# 0x7FFFFFF0 - Zone Events

## Common Data

| Field            | Value                         |
|------------------|-------------------------------|
| Zone             | Temple of Uggalepih (ID: 159) |
| Block Size       | 4360 bytes                    |
| Total Events     | 30                            |
| References Count | 133                           |

## List of Events

| Event ID                   | Entrypoint   |   Size |   Instructions |
|----------------------------|--------------|--------|----------------|
| [65535](#event-65535)      | 0x0000       |      1 |              1 |
| [65534](#event-65534)      | 0x0001       |      1 |              1 |
| [65](#event-65)            | 0x0002       |    439 |             72 |
| [65535.1](#event-655351)   | 0x01B9       |     10 |              2 |
| [65535.2](#event-655352)   | 0x01C3       |     10 |              2 |
| [65535.3](#event-655353)   | 0x01CD       |     14 |              4 |
| [65535.4](#event-655354)   | 0x01DB       |     27 |              3 |
| [65535.5](#event-655355)   | 0x01F6       |     27 |              3 |
| [65535.6](#event-655356)   | 0x0211       |     27 |              3 |
| [65535.7](#event-655357)   | 0x022C       |     10 |              2 |
| [65535.8](#event-655358)   | 0x0236       |     13 |              3 |
| [65535.9](#event-655359)   | 0x0243       |     14 |              4 |
| [65535.10](#event-6553510) | 0x0251       |     10 |              2 |
| [65535.11](#event-6553511) | 0x025B       |     13 |              3 |
| [65535.12](#event-6553512) | 0x0268       |     14 |              4 |
| [65535.13](#event-6553513) | 0x0276       |      6 |              2 |
| [65535.14](#event-6553514) | 0x027C       |      6 |              2 |
| [65535.15](#event-6553515) | 0x0282       |      6 |              2 |
| [65535.16](#event-6553516) | 0x0288       |      6 |              2 |
| [40](#event-40)            | 0x028E       |     13 |              3 |
| [41](#event-41)            | 0x029B       |     13 |              3 |
| [42](#event-42)            | 0x02A8       |     10 |              2 |
| [43](#event-43)            | 0x02B2       |     10 |              2 |
| [44](#event-44)            | 0x02BC       |     14 |              4 |
| [45](#event-45)            | 0x02CA       |     14 |              4 |
| [67](#event-67)            | 0x02D8       |   2912 |            376 |
| [65535.17](#event-6553517) | 0x0E38       |     10 |              2 |
| [65535.18](#event-6553518) | 0x0E42       |     14 |              4 |
| [65535.19](#event-6553519) | 0x0E50       |     14 |              4 |
| [65535.20](#event-6553520) | 0x0E5E       |     14 |              4 |

## DAT References (imed_data)

|   Index | Hex Value   |   Dec Value |
|---------|-------------|-------------|
|       0 | 0x00C8      |         200 |
|       1 | 0x0000      |           0 |
|       2 | 0x0013      |          19 |
|       3 | 0xFFFF3CAB  |  4294917291 |
|       4 | 0xFFFDC92D  |  4294822189 |
|       5 | 0xFFFFBD99  |  4294950297 |
|       6 | 0x03ED      |        1005 |
|       7 | 0x0001      |           1 |
|       8 | 0x00F4      |         244 |
|       9 | 0x0078      |         120 |
|      10 | 0x000D      |          13 |
|      11 | 0xFFFF3C9A  |  4294917274 |
|      12 | 0xFFFDBA0F  |  4294818319 |
|      13 | 0xFFFFBD98  |  4294950296 |
|      14 | 0x05FD      |        1533 |
|      15 | 0x0151      |         337 |
|      16 | 0x043D      |        1085 |
|      17 | 0x003C      |          60 |
|      18 | 0x1D27      |        7463 |
|      19 | 0x0005      |           5 |
|      20 | 0x0002      |           2 |
|      21 | 0x000A      |          10 |
|      22 | 0x0009      |           9 |
|      23 | 0x0046      |          70 |
|      24 | 0x008C      |         140 |
|      25 | 0x00D2      |         210 |
|      26 | 0x5303D     |      340029 |
|      27 | 0x51318     |      332568 |
|      28 | 0x0BF2      |        3058 |
|      29 | 0x5303F     |      340031 |
|      30 | 0x52410     |      336912 |
|      31 | 0x0BCD      |        3021 |
|      32 | 0x53022     |      340002 |
|      33 | 0x52B36     |      338742 |
|      34 | 0x53020     |      340000 |
|      35 | 0x50910     |      330000 |
|      36 | 0x0BDC      |        3036 |
|      37 | 0x51400     |      332800 |
|      38 | 0x0400      |        1024 |
|      39 | 0xEA6E      |       60014 |
|      40 | 0x3678      |       13944 |
|      41 | 0xEA3A      |       59962 |
|      42 | 0x270C      |        9996 |
|      43 | 0xFFFFFFFF  |  4294967295 |
|      44 | 0x03E1      |         993 |
|      45 | 0xEA5B      |       59995 |
|      46 | 0x25CF      |        9679 |
|      47 | 0x0BFC      |        3068 |
|      48 | 0xEA68      |       60008 |
|      49 | 0xFFFEE9B8  |  4294896056 |
|      50 | 0x05AA      |        1450 |
|      51 | 0x0C16      |        3094 |
|      52 | 0x00DF      |         223 |
|      53 | 0x1D2A      |        7466 |
|      54 | 0x00C1      |         193 |
|      55 | 0x0014      |          20 |
|      56 | 0x1D2B      |        7467 |
|      57 | 0x1D2C      |        7468 |
|      58 | 0x00FA      |         250 |
|      59 | 0x0064      |         100 |
|      60 | 0x1D2D      |        7469 |
|      61 | 0x000F      |          15 |
|      62 | 0x1D2E      |        7470 |
|      63 | 0x1D2F      |        7471 |
|      64 | 0x1D30      |        7472 |
|      65 | 0x1D31      |        7473 |
|      66 | 0x1D32      |        7474 |
|      67 | 0xF18D      |       61837 |
|      68 | 0xFFFEE85F  |  4294895711 |
|      69 | 0x05B2      |        1458 |
|      70 | 0x0575      |        1397 |
|      71 | 0x1D33      |        7475 |
|      72 | 0x007B      |         123 |
|      73 | 0x1D35      |        7477 |
|      74 | 0x1D34      |        7476 |
|      75 | 0x1D36      |        7478 |
|      76 | 0x1D37      |        7479 |
|      77 | 0x1D39      |        7481 |
|      78 | 0x1D3A      |        7482 |
|      79 | 0x1D38      |        7480 |
|      80 | 0x001E      |          30 |
|      81 | 0x1D3B      |        7483 |
|      82 | 0x1D3C      |        7484 |
|      83 | 0x00E9      |         233 |
|      84 | 0x001D      |          29 |
|      85 | 0x007A      |         122 |
|      86 | 0x00CF      |         207 |
|      87 | 0x1D3D      |        7485 |
|      88 | 0x1D3E      |        7486 |
|      89 | 0x1D3F      |        7487 |
|      90 | 0x1D40      |        7488 |
|      91 | 0x1D41      |        7489 |
|      92 | 0x1D42      |        7490 |
|      93 | 0x1D43      |        7491 |
|      94 | 0x1D44      |        7492 |
|      95 | 0x1D45      |        7493 |
|      96 | 0x1D46      |        7494 |
|      97 | 0x1D47      |        7495 |
|      98 | 0x1D48      |        7496 |
|      99 | 0x1D49      |        7497 |
|     100 | 0x1D4A      |        7498 |
|     101 | 0x1D4B      |        7499 |
|     102 | 0x0C00      |        3072 |
|     103 | 0x1D4C      |        7500 |
|     104 | 0x1D4D      |        7501 |
|     105 | 0x1D4E      |        7502 |
|     106 | 0x1D4F      |        7503 |
|     107 | 0x1D50      |        7504 |
|     108 | 0x1D51      |        7505 |
|     109 | 0x009F      |         159 |
|     110 | 0x1D52      |        7506 |
|     111 | 0x1D53      |        7507 |
|     112 | 0x1D54      |        7508 |
|     113 | 0x1D55      |        7509 |
|     114 | 0x00FF      |         255 |
|     115 | 0x0019      |          25 |
|     116 | 0x00B4      |         180 |
|     117 | 0x1D56      |        7510 |
|     118 | 0x1D57      |        7511 |
|     119 | 0x1D58      |        7512 |
|     120 | 0x1D59      |        7513 |
|     121 | 0x00C9      |         201 |
|     122 | 0xFFFC5B40  |  4294728512 |
|     123 | 0xFFFFB217  |  4294947351 |
|     124 | 0xFFFFF831  |  4294965297 |
|     125 | 0x07D3      |        2003 |
|     126 | 0xFFFC6ADF  |  4294732511 |
|     127 | 0xFFFFB218  |  4294947352 |
|     128 | 0xFFFFF830  |  4294965296 |
|     129 | 0x308E4     |      198884 |
|     130 | 0x4875      |       18549 |
|     131 | 0x5391D     |      342301 |
|     132 | 0x529F3     |      338419 |

## String References

- **7463**: You could not find Lightbringer here. Your investigation is over.

## Events

### Event 65535

#### Metadata

| Field        | Value   |
|--------------|---------|
| Entrypoint   | 0x0000  |
| Data Size    | 1 bytes |
| Instructions | 1       |

```
      00 01 02 03 04 05 06 07  08 09 0A 0B 0C 0D 0E 0F
      -- -- -- -- -- -- -- --  -- -- -- -- -- -- -- --
0000: 00                                                .               
```

#### Opcodes

```
  0: 0x0000 [0x00] END_REQSTACK()
```

### Event 65534

#### Metadata

| Field        | Value   |
|--------------|---------|
| Entrypoint   | 0x0001  |
| Data Size    | 1 bytes |
| Instructions | 1       |

```
      00 01 02 03 04 05 06 07  08 09 0A 0B 0C 0D 0E 0F
      -- -- -- -- -- -- -- --  -- -- -- -- -- -- -- --
0000:    00                                              .              
```

#### Opcodes

```
  0: 0x0001 [0x00] END_REQSTACK()
```

### Event 65

#### Metadata

| Field        | Value     |
|--------------|-----------|
| Entrypoint   | 0x0002    |
| Data Size    | 439 bytes |
| Instructions | 48        |

```
      00 01 02 03 04 05 06 07  08 09 0A 0B 0C 0D 0E 0F
      -- -- -- -- -- -- -- --  -- -- -- -- -- -- -- --
0000:       20 01 46 01 42 45  00 80 F0 FF FF 7F F0 FF     .F.BE........
0010: FF 7F 66 64 6F 31 01 80  55 00 80 F0 FF FF 7F F0  ..fdo1..U.......
0020: FF FF 7F 66 64 6F 31 38  02 80 37 03 80 04 80 05  ...fdo18..7.....
0030: 80 06 80 97 01 80 07 80  45 08 80 F0 FF FF 7F F0  ........E.......
0040: FF FF 7F 77 30 30 30 01  80 55 08 80 F0 FF FF 7F  ...w000..U......
0050: F0 FF FF 7F 77 30 30 30  45 00 80 F0 FF FF 7F F0  ....w000E.......
0060: FF FF 7F 66 64 69 31 01  80 55 00 80 F0 FF FF 7F  ...fdi1..U......
0070: F0 FF FF 7F 66 64 69 31  27 03 E9 F1 09 01 02 1C  ....fdi1'.......
0080: 09 80 32 0A 80 1F 00 0B  80 0C 80 0D 80 1F 01 6F  ..2............o
0090: 39 0E 80 1C 09 80 39 0F  80 1C 09 80 39 10 80 1C  9.....9.....9...
00A0: 11 80 03 00 00 87 7F 1A  25 01 66 01 00 F0 FF FF  ........%.f.....
00B0: 7F F0 FF FF 7F 73 69 72  30 53 F0 FF FF 7F F0 FF  .....sir0S......
00C0: FF 7F 73 69 72 30 1C 09  80 66 01 00 F0 FF FF 7F  ..sir0...f......
00D0: F0 FF FF 7F 73 68 61 31  53 F0 FF FF 7F F0 FF FF  ....sha1S.......
00E0: 7F 73 68 61 31 48 12 80  23 45 00 80 F0 FF FF 7F  .sha1H..#E......
00F0: F0 FF FF 7F 66 64 6F 32  01 80 55 00 80 F0 FF FF  ....fdo2..U.....
0100: 7F F0 FF FF 7F 66 64 6F  32 27 03 E9 F1 09 01 03  .....fdo2'......
0110: 46 00 45 00 80 F0 FF FF  7F F0 FF FF 7F 66 64 69  F.E..........fdi
0120: 32 01 80 21 00 03 01 00  00 00 02 01 00 13 80 05  2..!............
0130: 3A 01 08 01 00 07 80 01  3F 01 08 01 00 14 80 14  :.......?.......
0140: 01 00 15 80 07 01 00 16  80 1B 03 01 00 00 00 02  ................
0150: 01 00 13 80 05 5F 01 08  01 00 07 80 01 64 01 08  ....._.......d..
0160: 01 00 14 80 14 01 00 15  80 07 01 00 17 80 1B 03  ................
0170: 01 00 00 00 02 01 00 13  80 05 84 01 08 01 00 07  ................
0180: 80 01 89 01 08 01 00 14  80 14 01 00 15 80 07 01  ................
0190: 00 18 80 1B 03 01 00 00  00 02 01 00 13 80 05 A9  ................
01A0: 01 08 01 00 07 80 01 AE  01 08 01 00 14 80 14 01  ................
01B0: 00 15 80 07 01 00 19 80  1B                       .........       
```

#### Opcodes

```
  0: 0x0002 [0x20] SET_CLI_EVENT_UC_FLAG: Lock player control
  1: 0x0004 [0x46] CAMERA_CONTROL: Disable user control
  2: 0x0006 [0x42] SET_CLI_EVENT_CANCEL_DATA()
  3: 0x0007 [0x45] LOAD_SCHEDULED_TASK: Load scheduler "fdo1" with entities [LocalPlayer, LocalPlayer], work=[200*, 0*]
  4: 0x0018 [0x55] WAIT_LOAD_SCHEDULER: Wait for scheduler "fdo1" with entities [LocalPlayer, LocalPlayer], work=200*
  5: 0x0027 [0x38] SET_CLIENT_EVENT_MODE(mode=19*)
  6: 0x002A [0x37] UPDATE_EVENT_POSITION_AND_DIR: x=-50.005*, z=-145.107*, y=-16.999*, direction=88.3°*
  7: 0x0033 [0x97] SAVE_SET_WIND_VALUES(wind_base=0x8001, wind_width=0x8007)
  8: 0x0038 [0x45] LOAD_SCHEDULED_TASK: Load scheduler "w000" with entities [LocalPlayer, LocalPlayer], work=[244*, 0*]
  9: 0x0049 [0x55] WAIT_LOAD_SCHEDULER: Wait for scheduler "w000" with entities [LocalPlayer, LocalPlayer], work=244*
 10: 0x0058 [0x45] LOAD_SCHEDULED_TASK: Load scheduler "fdi1" with entities [LocalPlayer, LocalPlayer], work=[200*, 0*]
 11: 0x0069 [0x55] WAIT_LOAD_SCHEDULER: Wait for scheduler "fdi1" with entities [LocalPlayer, LocalPlayer], work=200*
 12: 0x0078 [0x27] REQ_SET(priority=0x03, entity_id=Granite Door (ID: 17428969/0x0109F1E9), tag_num=0x02)
 13: 0x007F [0x1C] WAIT(120* ticks)
 14: 0x0082 [0x32] ExtData[1]->MainSpeed = 13* * 0.1
 15: 0x0085 [0x1F] MOVE_ENTITY: EventEntity moves to X=-50.022*, Z=-148.977*, Y=-17.000*
 16: 0x008D [0x1F] MOVE_ENTITY: Update entity position (mode=1)
 17: 0x008F [0x6F] WAIT_FRAME_DELAY: Yield until WaitTime reaches zero
 18: 0x0090 [0x39] SET_ENTITY_DIRECTION(direction=8.4°*)
 19: 0x0093 [0x1C] WAIT(120* ticks)
 20: 0x0096 [0x39] SET_ENTITY_DIRECTION(direction=1.9°*)
 21: 0x0099 [0x1C] WAIT(120* ticks)
 22: 0x009C [0x39] SET_ENTITY_DIRECTION(direction=6.0°*)
 23: 0x009F [0x1C] WAIT(60* ticks)
 24: 0x00A2 [0x03] ExtData[1]->WorkLocal[0] = LocalPlayer->Race
 25: 0x00A7 [0x1A] CALL_SUBROUTINE(address=0x0125)
 26: 0x00AA [0x66] LOAD_EXT_SCHEDULER_MAIN: Load scheduler "sir0" with entities [LocalPlayer, LocalPlayer], work=ExtData[1]->WorkLocal[1]
 27: 0x00B9 [0x53] WAIT_SCHEDULER_TASK: Wait for scheduler "sir0" with entities [LocalPlayer, LocalPlayer]
 28: 0x00C6 [0x1C] WAIT(120* ticks)
 29: 0x00C9 [0x66] LOAD_EXT_SCHEDULER_MAIN: Load scheduler "sha1" with entities [LocalPlayer, LocalPlayer], work=ExtData[1]->WorkLocal[1]
 30: 0x00D8 [0x53] WAIT_SCHEDULER_TASK: Wait for scheduler "sha1" with entities [LocalPlayer, LocalPlayer]
 31: 0x00E5 [0x48] [System] [7463*]:
    → "You could not find Lightbringer here. Your investigation is over."
 32: 0x00E8 [0x23] WAIT_FOR_DIALOG_INTERACTION
 33: 0x00E9 [0x45] LOAD_SCHEDULED_TASK: Load scheduler "fdo2" with entities [LocalPlayer, LocalPlayer], work=[200*, 0*]
 34: 0x00FA [0x55] WAIT_LOAD_SCHEDULER: Wait for scheduler "fdo2" with entities [LocalPlayer, LocalPlayer], work=200*
 35: 0x0109 [0x27] REQ_SET(priority=0x03, entity_id=Granite Door (ID: 17428969/0x0109F1E9), tag_num=0x03)
 36: 0x0110 [0x46] CAMERA_CONTROL: Restore default settings
 37: 0x0112 [0x45] LOAD_SCHEDULED_TASK: Load scheduler "fdi2" with entities [LocalPlayer, LocalPlayer], work=[200*, 0*]
 38: 0x0123 [0x21] END_EVENT
 39: 0x0124 [0x00] END_REQSTACK()

SUBROUTINE_0125:
 40: 0x0125 [0x03] ExtData[1]->WorkLocal[1] = ExtData[1]->WorkLocal[0]
 41: 0x012A [0x02] IF !(ExtData[1]->WorkLocal[1] > 5*) GOTO 0x013A
 42: 0x0132 [0x08] ExtData[1]->WorkLocal[1] -= 1*
 43: 0x0137 [0x01] GOTO 0x013F
 44: 0x013A [0x08] ExtData[1]->WorkLocal[1] -= 2*

SUBROUTINE_013F:
 45: 0x013F [0x14] ExtData[1]->WorkLocal[1] *= 10*
 46: 0x0144 [0x07] ExtData[1]->WorkLocal[1] += 9*
 47: 0x0149 [0x1B] RETURN
```

#### Data or dead code:

```
# Dead code (unreachable instructions):
     0x014A [0x03] ExtData[1]->WorkLocal[1] = ExtData[1]->WorkLocal[0]
     0x014F [0x02] IF !(ExtData[1]->WorkLocal[1] > 5*) GOTO 0x015F
     0x0157 [0x08] ExtData[1]->WorkLocal[1] -= 1*
     0x015C [0x01] GOTO 0x0164
     0x015F [0x08] ExtData[1]->WorkLocal[1] -= 2*
     0x0164 [0x14] ExtData[1]->WorkLocal[1] *= 10*
     0x0169 [0x07] ExtData[1]->WorkLocal[1] += 70*
     0x016E [0x1B] RETURN
     0x016F [0x03] ExtData[1]->WorkLocal[1] = ExtData[1]->WorkLocal[0]
     0x0174 [0x02] IF !(ExtData[1]->WorkLocal[1] > 5*) GOTO 0x0184
     0x017C [0x08] ExtData[1]->WorkLocal[1] -= 1*
     0x0181 [0x01] GOTO 0x0189
     0x0184 [0x08] ExtData[1]->WorkLocal[1] -= 2*
     0x0189 [0x14] ExtData[1]->WorkLocal[1] *= 10*
     0x018E [0x07] ExtData[1]->WorkLocal[1] += 140*
     0x0193 [0x1B] RETURN
     0x0194 [0x03] ExtData[1]->WorkLocal[1] = ExtData[1]->WorkLocal[0]
     0x0199 [0x02] IF !(ExtData[1]->WorkLocal[1] > 5*) GOTO 0x01A9
     0x01A1 [0x08] ExtData[1]->WorkLocal[1] -= 1*
     0x01A6 [0x01] GOTO 0x01AE
     0x01A9 [0x08] ExtData[1]->WorkLocal[1] -= 2*
     0x01AE [0x14] ExtData[1]->WorkLocal[1] *= 10*
     0x01B3 [0x07] ExtData[1]->WorkLocal[1] += 210*
     0x01B8 [0x1B] RETURN
```

### Event 65535.1

#### Metadata

| Field        | Value    |
|--------------|----------|
| Entrypoint   | 0x01B9   |
| Data Size    | 10 bytes |
| Instructions | 2        |

```
      00 01 02 03 04 05 06 07  08 09 0A 0B 0C 0D 0E 0F
      -- -- -- -- -- -- -- --  -- -- -- -- -- -- -- --
01B0:                             37 1A 80 1B 80 01 80           7......
01C0: 1C 80 00                                          ...             
```

#### Opcodes

```
  0: 0x01B9 [0x37] UPDATE_EVENT_POSITION_AND_DIR: x=340.029*, z=332.568*, y=0.000*, direction=268.8°*
  1: 0x01C2 [0x00] END_REQSTACK()
```

### Event 65535.2

#### Metadata

| Field        | Value    |
|--------------|----------|
| Entrypoint   | 0x01C3   |
| Data Size    | 10 bytes |
| Instructions | 2        |

```
      00 01 02 03 04 05 06 07  08 09 0A 0B 0C 0D 0E 0F
      -- -- -- -- -- -- -- --  -- -- -- -- -- -- -- --
01C0:          37 1D 80 1E 80  01 80 1F 80 00              7.........   
```

#### Opcodes

```
  0: 0x01C3 [0x37] UPDATE_EVENT_POSITION_AND_DIR: x=340.031*, z=336.912*, y=0.000*, direction=265.5°*
  1: 0x01CC [0x00] END_REQSTACK()
```

### Event 65535.3

#### Metadata

| Field        | Value    |
|--------------|----------|
| Entrypoint   | 0x01CD   |
| Data Size    | 14 bytes |
| Instructions | 4        |

```
      00 01 02 03 04 05 06 07  08 09 0A 0B 0C 0D 0E 0F
      -- -- -- -- -- -- -- --  -- -- -- -- -- -- -- --
01C0:                                         32 0A 80               2..
01D0: 1F 00 20 80 21 80 01 80  1F 01 00                 .. .!......     
```

#### Opcodes

```
  0: 0x01CD [0x32] ExtData[1]->MainSpeed = 13* * 0.1
  1: 0x01D0 [0x1F] MOVE_ENTITY: EventEntity moves to X=340.002*, Z=338.742*, Y=0.000*
  2: 0x01D8 [0x1F] MOVE_ENTITY: Update entity position (mode=1)
  3: 0x01DA [0x00] END_REQSTACK()
```

### Event 65535.4

#### Metadata

| Field        | Value    |
|--------------|----------|
| Entrypoint   | 0x01DB   |
| Data Size    | 27 bytes |
| Instructions | 3        |

```
      00 01 02 03 04 05 06 07  08 09 0A 0B 0C 0D 0E 0F
      -- -- -- -- -- -- -- --  -- -- -- -- -- -- -- --
01D0:                                   2C F0 FF FF 7F             ,....
01E0: F0 FF FF 7F 72 65 73 30  53 F0 FF FF 7F F0 FF FF  ....res0S.......
01F0: 7F 72 65 73 30 00                                 .res0.          
```

#### Opcodes

```
  0: 0x01DB [0x2C] CREATE_SCHEDULER_TASK: Create scheduler "res0" with entities [LocalPlayer, LocalPlayer]
  1: 0x01E8 [0x53] WAIT_SCHEDULER_TASK: Wait for scheduler "res0" with entities [LocalPlayer, LocalPlayer]
  2: 0x01F5 [0x00] END_REQSTACK()
```

### Event 65535.5

#### Metadata

| Field        | Value    |
|--------------|----------|
| Entrypoint   | 0x01F6   |
| Data Size    | 27 bytes |
| Instructions | 3        |

```
      00 01 02 03 04 05 06 07  08 09 0A 0B 0C 0D 0E 0F
      -- -- -- -- -- -- -- --  -- -- -- -- -- -- -- --
01F0:                   2C F0  FF FF 7F F0 FF FF 7F 72        ,........r
0200: 65 73 32 53 F0 FF FF 7F  F0 FF FF 7F 72 65 73 32  es2S........res2
0210: 00                                                .               
```

#### Opcodes

```
  0: 0x01F6 [0x2C] CREATE_SCHEDULER_TASK: Create scheduler "res2" with entities [LocalPlayer, LocalPlayer]
  1: 0x0203 [0x53] WAIT_SCHEDULER_TASK: Wait for scheduler "res2" with entities [LocalPlayer, LocalPlayer]
  2: 0x0210 [0x00] END_REQSTACK()
```

### Event 65535.6

#### Metadata

| Field        | Value    |
|--------------|----------|
| Entrypoint   | 0x0211   |
| Data Size    | 27 bytes |
| Instructions | 3        |

```
      00 01 02 03 04 05 06 07  08 09 0A 0B 0C 0D 0E 0F
      -- -- -- -- -- -- -- --  -- -- -- -- -- -- -- --
0210:    2C F0 FF FF 7F F0 FF  FF 7F 72 65 73 31 53 F0   ,........res1S.
0220: FF FF 7F F0 FF FF 7F 72  65 73 31 00              .......res1.    
```

#### Opcodes

```
  0: 0x0211 [0x2C] CREATE_SCHEDULER_TASK: Create scheduler "res1" with entities [LocalPlayer, LocalPlayer]
  1: 0x021E [0x53] WAIT_SCHEDULER_TASK: Wait for scheduler "res1" with entities [LocalPlayer, LocalPlayer]
  2: 0x022B [0x00] END_REQSTACK()
```

### Event 65535.7

#### Metadata

| Field        | Value    |
|--------------|----------|
| Entrypoint   | 0x022C   |
| Data Size    | 10 bytes |
| Instructions | 2        |

```
      00 01 02 03 04 05 06 07  08 09 0A 0B 0C 0D 0E 0F
      -- -- -- -- -- -- -- --  -- -- -- -- -- -- -- --
0220:                                      37 22 80 23              7".#
0230: 80 01 80 24 80 00                                 ...$..          
```

#### Opcodes

```
  0: 0x022C [0x37] UPDATE_EVENT_POSITION_AND_DIR: x=340.000*, z=330.000*, y=0.000*, direction=266.8°*
  1: 0x0235 [0x00] END_REQSTACK()
```

### Event 65535.8

#### Metadata

| Field        | Value    |
|--------------|----------|
| Entrypoint   | 0x0236   |
| Data Size    | 13 bytes |
| Instructions | 3        |

```
      00 01 02 03 04 05 06 07  08 09 0A 0B 0C 0D 0E 0F
      -- -- -- -- -- -- -- --  -- -- -- -- -- -- -- --
0230:                   47 00  22 80 25 80 01 80 24 80        G.".%...$.
0240: 47 01 00                                          G..             
```

#### Opcodes

```
  0: 0x0236 [0x47] UPDATE_PLAYER_POS(340.000*, 332.800*, 0.000*, yaw=266.8°*)
  1: 0x0240 [0x47] WAIT_PLAYER_POS_UPDATE
  2: 0x0242 [0x00] END_REQSTACK()
```

### Event 65535.9

#### Metadata

| Field        | Value    |
|--------------|----------|
| Entrypoint   | 0x0243   |
| Data Size    | 14 bytes |
| Instructions | 4        |

```
      00 01 02 03 04 05 06 07  08 09 0A 0B 0C 0D 0E 0F
      -- -- -- -- -- -- -- --  -- -- -- -- -- -- -- --
0240:          32 0A 80 1F 00  22 80 25 80 01 80 1F 01     2....".%.....
0250: 00                                                .               
```

#### Opcodes

```
  0: 0x0243 [0x32] ExtData[1]->MainSpeed = 13* * 0.1
  1: 0x0246 [0x1F] MOVE_ENTITY: EventEntity moves to X=340.000*, Z=332.800*, Y=0.000*
  2: 0x024E [0x1F] MOVE_ENTITY: Update entity position (mode=1)
  3: 0x0250 [0x00] END_REQSTACK()
```

### Event 65535.10

#### Metadata

| Field        | Value    |
|--------------|----------|
| Entrypoint   | 0x0251   |
| Data Size    | 10 bytes |
| Instructions | 2        |

```
      00 01 02 03 04 05 06 07  08 09 0A 0B 0C 0D 0E 0F
      -- -- -- -- -- -- -- --  -- -- -- -- -- -- -- --
0250:    37 22 80 25 80 01 80  26 80 00                  7".%...&..     
```

#### Opcodes

```
  0: 0x0251 [0x37] UPDATE_EVENT_POSITION_AND_DIR: x=340.000*, z=332.800*, y=0.000*, direction=90.0°*
  1: 0x025A [0x00] END_REQSTACK()
```

### Event 65535.11

#### Metadata

| Field        | Value    |
|--------------|----------|
| Entrypoint   | 0x025B   |
| Data Size    | 13 bytes |
| Instructions | 3        |

```
      00 01 02 03 04 05 06 07  08 09 0A 0B 0C 0D 0E 0F
      -- -- -- -- -- -- -- --  -- -- -- -- -- -- -- --
0250:                                   47 00 22 80 23             G.".#
0260: 80 01 80 26 80 47 01 00                           ...&.G..        
```

#### Opcodes

```
  0: 0x025B [0x47] UPDATE_PLAYER_POS(340.000*, 330.000*, 0.000*, yaw=90.0°*)
  1: 0x0265 [0x47] WAIT_PLAYER_POS_UPDATE
  2: 0x0267 [0x00] END_REQSTACK()
```

### Event 65535.12

#### Metadata

| Field        | Value    |
|--------------|----------|
| Entrypoint   | 0x0268   |
| Data Size    | 14 bytes |
| Instructions | 4        |

```
      00 01 02 03 04 05 06 07  08 09 0A 0B 0C 0D 0E 0F
      -- -- -- -- -- -- -- --  -- -- -- -- -- -- -- --
0260:                          32 0A 80 1F 00 22 80 23          2....".#
0270: 80 01 80 1F 01 00                                 ......          
```

#### Opcodes

```
  0: 0x0268 [0x32] ExtData[1]->MainSpeed = 13* * 0.1
  1: 0x026B [0x1F] MOVE_ENTITY: EventEntity moves to X=340.000*, Z=330.000*, Y=0.000*
  2: 0x0273 [0x1F] MOVE_ENTITY: Update entity position (mode=1)
  3: 0x0275 [0x00] END_REQSTACK()
```

### Event 65535.13

#### Metadata

| Field        | Value   |
|--------------|---------|
| Entrypoint   | 0x0276  |
| Data Size    | 6 bytes |
| Instructions | 2       |

```
      00 01 02 03 04 05 06 07  08 09 0A 0B 0C 0D 0E 0F
      -- -- -- -- -- -- -- --  -- -- -- -- -- -- -- --
0270:                   03 02  10 0B 7F 00                    ......    
```

#### Opcodes

```
  0: 0x0276 [0x03] Work_Zone[2] = (Entity->Render.Flags01 >> 25) & 1
  1: 0x027B [0x00] END_REQSTACK()
```

### Event 65535.14

#### Metadata

| Field        | Value   |
|--------------|---------|
| Entrypoint   | 0x027C  |
| Data Size    | 6 bytes |
| Instructions | 2       |

```
      00 01 02 03 04 05 06 07  08 09 0A 0B 0C 0D 0E 0F
      -- -- -- -- -- -- -- --  -- -- -- -- -- -- -- --
0270:                                      03 02 10 07              ....
0280: 7F 00                                             ..              
```

#### Opcodes

```
  0: 0x027C [0x03] Work_Zone[2] = Entity->Race
  1: 0x0281 [0x00] END_REQSTACK()
```

### Event 65535.15

#### Metadata

| Field        | Value   |
|--------------|---------|
| Entrypoint   | 0x0282  |
| Data Size    | 6 bytes |
| Instructions | 2       |

```
      00 01 02 03 04 05 06 07  08 09 0A 0B 0C 0D 0E 0F
      -- -- -- -- -- -- -- --  -- -- -- -- -- -- -- --
0280:       03 09 10 07 7F 00                             ......        
```

#### Opcodes

```
  0: 0x0282 [0x03] Work_Zone[9] = Entity->Race
  1: 0x0287 [0x00] END_REQSTACK()
```

### Event 65535.16

#### Metadata

| Field        | Value   |
|--------------|---------|
| Entrypoint   | 0x0288  |
| Data Size    | 6 bytes |
| Instructions | 2       |

```
      00 01 02 03 04 05 06 07  08 09 0A 0B 0C 0D 0E 0F
      -- -- -- -- -- -- -- --  -- -- -- -- -- -- -- --
0280:                          03 02 10 06 7F 00                ......  
```

#### Opcodes

```
  0: 0x0288 [0x03] Work_Zone[2] = Entity->JobId (if LocalPlayer)
  1: 0x028D [0x00] END_REQSTACK()
```

### Event 40

#### Metadata

| Field        | Value    |
|--------------|----------|
| Entrypoint   | 0x028E   |
| Data Size    | 13 bytes |
| Instructions | 3        |

```
      00 01 02 03 04 05 06 07  08 09 0A 0B 0C 0D 0E 0F
      -- -- -- -- -- -- -- --  -- -- -- -- -- -- -- --
0280:                                            47 00                G.
0290: 27 80 28 80 01 80 1C 80  47 01 00                 '.(.....G..     
```

#### Opcodes

```
  0: 0x028E [0x47] UPDATE_PLAYER_POS(60.014*, 13.944*, 0.000*, yaw=268.8°*)
  1: 0x0298 [0x47] WAIT_PLAYER_POS_UPDATE
  2: 0x029A [0x00] END_REQSTACK()
```

### Event 41

#### Metadata

| Field        | Value    |
|--------------|----------|
| Entrypoint   | 0x029B   |
| Data Size    | 13 bytes |
| Instructions | 3        |

```
      00 01 02 03 04 05 06 07  08 09 0A 0B 0C 0D 0E 0F
      -- -- -- -- -- -- -- --  -- -- -- -- -- -- -- --
0290:                                   47 00 29 80 2A             G.).*
02A0: 80 2B 80 2C 80 47 01 00                           .+.,.G..        
```

#### Opcodes

```
  0: 0x029B [0x47] UPDATE_PLAYER_POS(59.962*, 9.996*, -0.001*, yaw=87.3°*)
  1: 0x02A5 [0x47] WAIT_PLAYER_POS_UPDATE
  2: 0x02A7 [0x00] END_REQSTACK()
```

### Event 42

#### Metadata

| Field        | Value    |
|--------------|----------|
| Entrypoint   | 0x02A8   |
| Data Size    | 10 bytes |
| Instructions | 2        |

```
      00 01 02 03 04 05 06 07  08 09 0A 0B 0C 0D 0E 0F
      -- -- -- -- -- -- -- --  -- -- -- -- -- -- -- --
02A0:                          37 2D 80 2E 80 01 80 2F          7-...../
02B0: 80 00                                             ..              
```

#### Opcodes

```
  0: 0x02A8 [0x37] UPDATE_EVENT_POSITION_AND_DIR: x=59.995*, z=9.679*, y=0.000*, direction=269.6°*
  1: 0x02B1 [0x00] END_REQSTACK()
```

### Event 43

#### Metadata

| Field        | Value    |
|--------------|----------|
| Entrypoint   | 0x02B2   |
| Data Size    | 10 bytes |
| Instructions | 2        |

```
      00 01 02 03 04 05 06 07  08 09 0A 0B 0C 0D 0E 0F
      -- -- -- -- -- -- -- --  -- -- -- -- -- -- -- --
02B0:       37 27 80 28 80 01  80 26 80 00                7'.(...&..    
```

#### Opcodes

```
  0: 0x02B2 [0x37] UPDATE_EVENT_POSITION_AND_DIR: x=60.014*, z=13.944*, y=0.000*, direction=90.0°*
  1: 0x02BB [0x00] END_REQSTACK()
```

### Event 44

#### Metadata

| Field        | Value    |
|--------------|----------|
| Entrypoint   | 0x02BC   |
| Data Size    | 14 bytes |
| Instructions | 4        |

```
      00 01 02 03 04 05 06 07  08 09 0A 0B 0C 0D 0E 0F
      -- -- -- -- -- -- -- --  -- -- -- -- -- -- -- --
02B0:                                      32 0A 80 1F              2...
02C0: 00 27 80 28 80 01 80 1F  01 00                    .'.(......      
```

#### Opcodes

```
  0: 0x02BC [0x32] ExtData[1]->MainSpeed = 13* * 0.1
  1: 0x02BF [0x1F] MOVE_ENTITY: EventEntity moves to X=60.014*, Z=13.944*, Y=0.000*
  2: 0x02C7 [0x1F] MOVE_ENTITY: Update entity position (mode=1)
  3: 0x02C9 [0x00] END_REQSTACK()
```

### Event 45

#### Metadata

| Field        | Value    |
|--------------|----------|
| Entrypoint   | 0x02CA   |
| Data Size    | 14 bytes |
| Instructions | 4        |

```
      00 01 02 03 04 05 06 07  08 09 0A 0B 0C 0D 0E 0F
      -- -- -- -- -- -- -- --  -- -- -- -- -- -- -- --
02C0:                                32 0A 80 1F 00 29            2....)
02D0: 80 2A 80 2B 80 1F 01 00                           .*.+....        
```

#### Opcodes

```
  0: 0x02CA [0x32] ExtData[1]->MainSpeed = 13* * 0.1
  1: 0x02CD [0x1F] MOVE_ENTITY: EventEntity moves to X=59.962*, Z=9.996*, Y=-0.001*
  2: 0x02D5 [0x1F] MOVE_ENTITY: Update entity position (mode=1)
  3: 0x02D7 [0x00] END_REQSTACK()
```

### Event 67

#### Metadata

| Field        | Value      |
|--------------|------------|
| Entrypoint   | 0x02D8     |
| Data Size    | 2912 bytes |
| Instructions | 376        |

```
      00 01 02 03 04 05 06 07  08 09 0A 0B 0C 0D 0E 0F
      -- -- -- -- -- -- -- --  -- -- -- -- -- -- -- --
02D0:                          20 01 46 01 42 45 00 80           .F.BE..
02E0: F0 FF FF 7F F0 FF FF 7F  66 64 6F 31 01 80 55 00  ........fdo1..U.
02F0: 80 F0 FF FF 7F F0 FF FF  7F 66 64 6F 31 38 02 80  .........fdo18..
0300: 37 30 80 31 80 32 80 33  80 03 00 00 87 7F 1A 25  70.1.2.3.......%
0310: 01 66 01 00 F0 FF FF 7F  F0 FF FF 7F 73 69 72 30  .f..........sir0
0320: 53 F0 FF FF 7F F0 FF FF  7F 73 69 72 30 97 01 80  S........sir0...
0330: 07 80 4E 00 AA F1 09 01  4E 00 A9 F1 09 01 45 34  ..N.....N.....E4
0340: 80 F0 FF FF 7F F0 FF FF  7F 78 30 30 30 01 80 55  .........x000..U
0350: 34 80 F0 FF FF 7F F0 FF  FF 7F 78 30 30 30 80 A9  4.........x000..
0360: F1 09 01 45 00 80 F0 FF  FF 7F F0 FF FF 7F 66 64  ...E..........fd
0370: 69 31 01 80 55 00 80 F0  FF FF 7F F0 FF FF 7F 66  i1..U..........f
0380: 64 69 31 1C 09 80 2B A9  F1 09 01 35 80 23 5C 00  di1...+....5.#\.
0390: 36 80 5C 01 36 80 27 03  A9 F1 09 01 02 1C 11 80  6.\.6.'.........
03A0: 66 01 00 F0 FF FF 7F F0  FF FF 7F 73 68 61 31 53  f..........sha1S
03B0: F0 FF FF 7F F0 FF FF 7F  73 68 61 31 4A F0 FF FF  ........sha1J...
03C0: 7F A9 F1 09 01 1C 37 80  45 34 80 F0 FF FF 7F F0  ......7.E4......
03D0: FF FF 7F 78 30 30 31 01  80 2A 03 A9 F1 09 01 55  ...x001..*.....U
03E0: 34 80 F0 FF FF 7F F0 FF  FF 7F 78 30 30 31 2B A9  4.........x001+.
03F0: F1 09 01 38 80 23 45 34  80 F0 FF FF 7F F0 FF FF  ...8.#E4........
0400: 7F 78 30 30 32 01 80 55  34 80 F0 FF FF 7F F0 FF  .x002..U4.......
0410: FF 7F 78 30 30 32 2B A9  F1 09 01 39 80 23 27 03  ..x002+....9.#'.
0420: A9 F1 09 01 05 1C 11 80  45 00 80 A9 F1 09 01 A9  ........E.......
0430: F1 09 01 62 6C 6F 6E 01  80 45 34 80 F0 FF FF 7F  ...blon..E4.....
0440: F0 FF FF 7F 78 30 30 33  01 80 55 34 80 F0 FF FF  ....x003..U4....
0450: 7F F0 FF FF 7F 78 30 30  33 45 34 80 F0 FF FF 7F  .....x003E4.....
0460: F0 FF FF 7F 78 30 30 34  01 80 27 03 A8 F1 09 01  ....x004..'.....
0470: 02 55 34 80 F0 FF FF 7F  F0 FF FF 7F 78 30 30 34  .U4.........x004
0480: 4E 00 A7 F1 09 01 45 00  80 A9 F1 09 01 A9 F1 09  N.....E.........
0490: 01 62 6C 6F 66 01 80 2A  03 A8 F1 09 01 4A F0 FF  .blof..*.....J..
04A0: FF 7F A8 F1 09 01 79 00  AA F1 09 01 A8 F1 09 01  ......y.........
04B0: 27 03 AA F1 09 01 02 1C  11 80 27 03 A8 F1 09 01  '.........'.....
04C0: 03 1C 3A 80 27 04 A7 F1  09 01 02 1C 15 80 52 34  ..:.'.........R4
04D0: 80 F0 FF FF 7F F0 FF FF  7F 78 30 30 62 45 34 80  .........x00bE4.
04E0: F0 FF FF 7F F0 FF FF 7F  78 30 30 35 01 80 4E 01  ........x005..N.
04F0: A8 F1 09 01 2A 04 A7 F1  09 01 4A A9 F1 09 01 A7  ....*.....J.....
0500: F1 09 01 55 34 80 F0 FF  FF 7F F0 FF FF 7F 78 30  ...U4.........x0
0510: 30 35 1C 3B 80 2B A7 F1  09 01 3C 80 23 4A A7 F1  05.;.+....<.#J..
0520: 09 01 F0 FF FF 7F 1C 3D  80 45 34 80 F0 FF FF 7F  .......=.E4.....
0530: F0 FF FF 7F 78 30 30 61  01 80 6F 76 A7 F1 09 01  ....x00a..ov....
0540: 55 34 80 F0 FF FF 7F F0  FF FF 7F 78 30 30 61 27  U4.........x00a'
0550: 03 A7 F1 09 01 06 2B A7  F1 09 01 3E 80 23 27 04  ......+....>.#'.
0560: A7 F1 09 01 07 45 34 80  F0 FF FF 7F F0 FF FF 7F  .....E4.........
0570: 78 30 30 36 01 80 55 34  80 F0 FF FF 7F F0 FF FF  x006..U4........
0580: 7F 78 30 30 36 27 03 A9  F1 09 01 06 2B A9 F1 09  .x006'......+...
0590: 01 3F 80 23 2B A9 F1 09  01 40 80 23 27 04 A9 F1  .?.#+....@.#'...
05A0: 09 01 07 4A A7 F1 09 01  A9 F1 09 01 45 34 80 F0  ...J........E4..
05B0: FF FF 7F F0 FF FF 7F 78  30 30 37 01 80 55 34 80  .......x007..U4.
05C0: F0 FF FF 7F F0 FF FF 7F  78 30 30 37 6F 76 A7 F1  ........x007ov..
05D0: 09 01 27 03 A7 F1 09 01  03 1C 11 80 4A F0 FF FF  ..'.........J...
05E0: 7F A7 F1 09 01 4A AA F1  09 01 A7 F1 09 01 2B A7  .....J........+.
05F0: F1 09 01 41 80 23 45 34  80 F0 FF FF 7F F0 FF FF  ...A.#E4........
0600: 7F 78 30 30 38 01 80 55  34 80 F0 FF FF 7F F0 FF  .x008..U4.......
0610: FF 7F 78 30 30 38 4A F0  FF FF 7F A7 F1 09 01 4A  ..x008J........J
0620: AA F1 09 01 A7 F1 09 01  2B A9 F1 09 01 42 80 23  ........+....B.#
0630: 4A F0 FF FF 7F A7 F1 09  01 4A AA F1 09 01 A7 F1  J........J......
0640: 09 01 45 34 80 F0 FF FF  7F F0 FF FF 7F 78 30 30  ..E4.........x00
0650: 39 01 80 27 03 A9 F1 09  01 03 4E 00 AB F1 09 01  9..'......N.....
0660: 4E 00 AC F1 09 01 4E 00  AD F1 09 01 27 03 AC F1  N.....N.....'...
0670: 09 01 02 27 03 AD F1 09  01 02 1C 11 80 27 03 AB  ...'.........'..
0680: F1 09 01 02 55 34 80 F0  FF FF 7F F0 FF FF 7F 78  ....U4.........x
0690: 30 30 39 2A 03 A9 F1 09  01 2A 03 AB F1 09 01 1C  009*.....*......
06A0: 11 80 45 34 80 F0 FF FF  7F F0 FF FF 7F 78 30 31  ..E4.........x01
06B0: 30 01 80 55 34 80 F0 FF  FF 7F F0 FF FF 7F 78 30  0..U4.........x0
06C0: 31 30 5D 01 80 3B 80 4A  AA F1 09 01 AB F1 09 01  10]..;.J........
06D0: 37 43 80 44 80 45 80 46  80 2A 03 AD F1 09 01 1C  7C.D.E.F.*......
06E0: 11 80 2B AB F1 09 01 47  80 23 5C 00 48 80 5C 01  ..+....G.#\.H.\.
06F0: 48 80 27 03 A9 F1 09 01  0A 1C 3D 80 45 34 80 F0  H.'.......=.E4..
0700: FF FF 7F F0 FF FF 7F 78  30 31 31 01 80 2B A9 F1  .......x011..+..
0710: 09 01 49 80 23 55 34 80  F0 FF FF 7F F0 FF FF 7F  ..I.#U4.........
0720: 78 30 31 31 2B AB F1 09  01 4A 80 23 2A 03 A9 F1  x011+....J.#*...
0730: 09 01 27 03 AB F1 09 01  03 1C 11 80 27 03 AD F1  ..'.........'...
0740: 09 01 04 1C 09 80 45 34  80 F0 FF FF 7F F0 FF FF  ......E4........
0750: 7F 78 30 31 32 01 80 2A  03 AB F1 09 01 55 34 80  .x012..*.....U4.
0760: F0 FF FF 7F F0 FF FF 7F  78 30 31 32 4E 01 AD F1  ........x012N...
0770: 09 01 4E 01 A9 F1 09 01  4E 01 AC F1 09 01 2B AB  ..N.....N.....+.
0780: F1 09 01 4B 80 23 45 34  80 F0 FF FF 7F F0 FF FF  ...K.#E4........
0790: 7F 78 30 31 33 01 80 55  34 80 F0 FF FF 7F F0 FF  .x013..U4.......
07A0: FF 7F 78 30 31 33 2B AB  F1 09 01 4C 80 23 27 03  ..x013+....L.#'.
07B0: A7 F1 09 01 06 02 02 10  07 80 00 D0 07 2B A7 F1  .............+..
07C0: 09 01 4D 80 23 2B AB F1  09 01 4E 80 23 01 D8 07  ..M.#+....N.#...
07D0: 2B A7 F1 09 01 4F 80 23  27 04 A7 F1 09 01 07 27  +....O.#'......'
07E0: 03 AB F1 09 01 04 1C 11  80 45 34 80 F0 FF FF 7F  .........E4.....
07F0: F0 FF FF 7F 78 30 31 34  01 80 55 34 80 F0 FF FF  ....x014..U4....
0800: 7F F0 FF FF 7F 78 30 31  34 1C 50 80 2B AB F1 09  .....x014.P.+...
0810: 01 51 80 23 2A 03 AB F1  09 01 1C 15 80 45 34 80  .Q.#*........E4.
0820: F0 FF FF 7F F0 FF FF 7F  78 30 31 35 01 80 1C 11  ........x015....
0830: 80 5D 01 80 3B 80 27 03  A7 F1 09 01 08 2B A7 F1  .]..;.'......+..
0840: 09 01 52 80 23 55 34 80  F0 FF FF 7F F0 FF FF 7F  ..R.#U4.........
0850: 78 30 31 35 45 00 80 F0  FF FF 7F F0 FF FF 7F 66  x015E..........f
0860: 64 6F 31 01 80 55 00 80  F0 FF FF 7F F0 FF FF 7F  do1..U..........
0870: 66 64 6F 31 34 53 80 1C  3B 80 77 01 80 01 80 4E  fdo14S..;.w....N
0880: 01 F0 FF FF 7F 4E 01 A7  F1 09 01 4E 01 AA F1 09  .....N.....N....
0890: 01 4E 01 AB F1 09 01 27  03 AE F1 09 01 03 27 03  .N.....'......'.
08A0: A8 F1 09 01 05 80 AE F1  09 01 80 A8 F1 09 01 45  ...............E
08B0: 34 80 F0 FF FF 7F F0 FF  FF 7F 77 30 30 30 01 80  4.........w000..
08C0: 55 34 80 F0 FF FF 7F F0  FF FF 7F 77 30 30 30 66  U4.........w000f
08D0: 54 80 A8 F1 09 01 A8 F1  09 01 73 68 61 30 53 A8  T.........sha0S.
08E0: F1 09 01 A8 F1 09 01 73  68 61 30 5C 00 55 80 5C  .......sha0\.U.\
08F0: 01 55 80 45 56 80 F0 FF  FF 7F F0 FF FF 7F 7A 30  .U.EV.........z0
0900: 30 32 01 80 55 56 80 F0  FF FF 7F F0 FF FF 7F 7A  02..UV.........z
0910: 30 30 32 27 03 AE F1 09  01 06 2B AE F1 09 01 57  002'......+....W
0920: 80 23 2B A8 F1 09 01 58  80 23 29 04 AE F1 09 01  .#+....X.#).....
0930: 07 4A AE F1 09 01 A8 F1  09 01 1C 3D 80 45 34 80  .J.........=.E4.
0940: F0 FF FF 7F F0 FF FF 7F  77 30 30 31 01 80 55 34  ........w001..U4
0950: 80 F0 FF FF 7F F0 FF FF  7F 77 30 30 31 6F 76 AE  .........w001ov.
0960: F1 09 01 2B AE F1 09 01  59 80 23 45 34 80 F0 FF  ...+....Y.#E4...
0970: FF 7F F0 FF FF 7F 77 30  30 32 01 80 55 34 80 F0  ......w002..U4..
0980: FF FF 7F F0 FF FF 7F 77  30 30 32 2B A8 F1 09 01  .......w002+....
0990: 5A 80 23 2B AE F1 09 01  5B 80 23 2B A8 F1 09 01  Z.#+....[.#+....
09A0: 5C 80 23 45 34 80 F0 FF  FF 7F F0 FF FF 7F 77 30  \.#E4.........w0
09B0: 30 33 01 80 55 34 80 F0  FF FF 7F F0 FF FF 7F 77  03..U4.........w
09C0: 30 30 33 27 03 AE F1 09  01 04 2B AE F1 09 01 5D  003'......+....]
09D0: 80 23 27 04 AE F1 09 01  05 2B A8 F1 09 01 5E 80  .#'......+....^.
09E0: 23 45 34 80 F0 FF FF 7F  F0 FF FF 7F 77 30 30 34  #E4.........w004
09F0: 01 80 55 34 80 F0 FF FF  7F F0 FF FF 7F 77 30 30  ..U4.........w00
0A00: 34 27 03 AE F1 09 01 08  2B AE F1 09 01 5F 80 23  4'......+...._.#
0A10: 29 04 AE F1 09 01 09 2B  A8 F1 09 01 60 80 23 27  )......+....`.#'
0A20: 04 AE F1 09 01 06 2B AE  F1 09 01 61 80 23 27 03  ......+....a.#'.
0A30: A8 F1 09 01 06 1C 50 80  45 34 80 F0 FF FF 7F F0  ......P.E4......
0A40: FF FF 7F 77 30 30 35 01  80 55 34 80 F0 FF FF 7F  ...w005..U4.....
0A50: F0 FF FF 7F 77 30 30 35  1C 50 80 2B A8 F1 09 01  ....w005.P.+....
0A60: 62 80 23 27 04 AE F1 09  01 07 2B AE F1 09 01 63  b.#'......+....c
0A70: 80 23 2B A8 F1 09 01 64  80 23 45 34 80 F0 FF FF  .#+....d.#E4....
0A80: 7F F0 FF FF 7F 77 30 30  36 01 80 55 34 80 F0 FF  .....w006..U4...
0A90: FF 7F F0 FF FF 7F 77 30  30 36 2B A8 F1 09 01 65  ......w006+....e
0AA0: 80 23 45 34 80 F0 FF FF  7F F0 FF FF 7F 77 30 30  .#E4.........w00
0AB0: 37 01 80 55 34 80 F0 FF  FF 7F F0 FF FF 7F 77 30  7..U4.........w0
0AC0: 30 37 1C 50 80 4B AE F1  09 01 66 80 1C 50 80 2B  07.P.K....f..P.+
0AD0: AE F1 09 01 67 80 23 27  03 AE F1 09 01 08 2B AE  ....g.#'......+.
0AE0: F1 09 01 68 80 23 2B AE  F1 09 01 69 80 23 29 03  ...h.#+....i.#).
0AF0: AE F1 09 01 09 2B A8 F1  09 01 6A 80 23 4A AE F1  .....+....j.#J..
0B00: 09 01 A8 F1 09 01 1C 15  80 45 34 80 F0 FF FF 7F  .........E4.....
0B10: F0 FF FF 7F 77 30 30 38  01 80 55 34 80 F0 FF FF  ....w008..U4....
0B20: 7F F0 FF FF 7F 77 30 30  38 6F 76 AE F1 09 01 1C  .....w008ov.....
0B30: 3D 80 27 03 AE F1 09 01  04 2B AE F1 09 01 6B 80  =.'......+....k.
0B40: 23 27 04 AE F1 09 01 05  2B A8 F1 09 01 6C 80 23  #'......+....l.#
0B50: 45 34 80 F0 FF FF 7F F0  FF FF 7F 77 30 30 39 01  E4.........w009.
0B60: 80 1C 09 80 45 00 80 F0  FF FF 7F F0 FF FF 7F 66  ....E..........f
0B70: 64 6F 32 01 80 55 00 80  F0 FF FF 7F F0 FF FF 7F  do2..U..........
0B80: 66 64 6F 32 52 34 80 F0  FF FF 7F F0 FF FF 7F 77  fdo2R4.........w
0B90: 30 30 39 35 6D 80 1C 3B  80 78 4E 00 F0 FF FF 7F  0095m..;.xN.....
0BA0: 4E 00 A7 F1 09 01 4E 00  AA F1 09 01 4E 00 AB F1  N.....N.....N...
0BB0: 09 01 80 F0 FF FF 7F 80  A7 F1 09 01 80 AA F1 09  ................
0BC0: 01 80 AB F1 09 01 29 03  A8 F1 09 01 04 29 04 A7  ......)......)..
0BD0: F1 09 01 08 45 34 80 F0  FF FF 7F F0 FF FF 7F 78  ....E4.........x
0BE0: 30 31 36 01 80 55 34 80  F0 FF FF 7F F0 FF FF 7F  016..U4.........
0BF0: 78 30 31 36 45 00 80 F0  FF FF 7F F0 FF FF 7F 66  x016E..........f
0C00: 64 69 31 01 80 55 00 80  F0 FF FF 7F F0 FF FF 7F  di1..U..........
0C10: 66 64 69 31 2B A7 F1 09  01 6E 80 23 27 04 A7 F1  fdi1+....n.#'...
0C20: 09 01 09 1C 15 80 45 34  80 F0 FF FF 7F F0 FF FF  ......E4........
0C30: 7F 78 30 31 37 01 80 2B  A7 F1 09 01 6F 80 23 55  .x017..+....o.#U
0C40: 34 80 F0 FF FF 7F F0 FF  FF 7F 78 30 31 37 45 34  4.........x017E4
0C50: 80 F0 FF FF 7F F0 FF FF  7F 78 30 31 38 01 80 55  .........x018..U
0C60: 34 80 F0 FF FF 7F F0 FF  FF 7F 78 30 31 38 2A 04  4.........x018*.
0C70: A7 F1 09 01 4A A7 F1 09  01 F0 FF FF 7F 6F 76 A7  ....J........ov.
0C80: F1 09 01 2B A7 F1 09 01  70 80 23 4A A7 F1 09 01  ...+....p.#J....
0C90: AA F1 09 01 6F 76 A7 F1  09 01 2B A7 F1 09 01 71  ....ov....+....q
0CA0: 80 23 29 03 A7 F1 09 01  04 5B 72 80 AA F1 09 01  .#)......[r.....
0CB0: AA F1 09 01 64 72 67 30  66 73 80 A8 F1 09 01 A8  ....drg0fs......
0CC0: F1 09 01 64 72 67 30 1C  15 80 45 34 80 F0 FF FF  ...drg0...E4....
0CD0: 7F F0 FF FF 7F 78 30 31  39 01 80 4E 00 A8 F1 09  .....x019..N....
0CE0: 01 4E 01 A7 F1 09 01 55  34 80 F0 FF FF 7F F0 FF  .N.....U4.......
0CF0: FF 7F 78 30 31 39 27 03  AB F1 09 01 08 53 AA F1  ..x019'......S..
0D00: 09 01 AA F1 09 01 64 72  67 30 5B 72 80 AA F1 09  ......drg0[r....
0D10: 01 AA F1 09 01 64 72 67  31 66 73 80 A8 F1 09 01  .....drg1fs.....
0D20: A8 F1 09 01 64 72 67 31  53 A8 F1 09 01 A8 F1 09  ....drg1S.......
0D30: 01 64 72 67 31 4A F0 FF  FF 7F A8 F1 09 01 4A AB  .drg1J........J.
0D40: F1 09 01 A8 F1 09 01 45  34 80 F0 FF FF 7F F0 FF  .......E4.......
0D50: FF 7F 78 30 32 30 01 80  1C 74 80 27 03 A7 F1 09  ..x020...t.'....
0D60: 01 05 2B A7 F1 09 01 75  80 23 55 34 80 F0 FF FF  ..+....u.#U4....
0D70: 7F F0 FF FF 7F 78 30 32  30 2A 03 A7 F1 09 01 1C  .....x020*......
0D80: 11 80 45 34 80 F0 FF FF  7F F0 FF FF 7F 78 30 32  ..E4.........x02
0D90: 31 01 80 55 34 80 F0 FF  FF 7F F0 FF FF 7F 78 30  1..U4.........x0
0DA0: 32 31 2B AB F1 09 01 76  80 23 29 04 AB F1 09 01  21+....v.#).....
0DB0: 09 4A AB F1 09 01 F0 FF  FF 7F 6F 76 AB F1 09 01  .J........ov....
0DC0: 4A F0 FF FF 7F AB F1 09  01 2B AB F1 09 01 77 80  J........+....w.
0DD0: 23 2B AB F1 09 01 78 80  23 29 03 AB F1 09 01 0A  #+....x.#)......
0DE0: 27 04 AB F1 09 01 05 1C  09 80 45 00 80 F0 FF FF  '.........E.....
0DF0: 7F F0 FF FF 7F 66 64 6F  32 01 80 55 00 80 F0 FF  .....fdo2..U....
0E00: FF 7F F0 FF FF 7F 66 64  6F 32 5C 00 01 80 5C 01  ......fdo2\...\.
0E10: 01 80 46 00 45 79 80 F0  FF FF 7F F0 FF FF 7F 71  ..F.Ey.........q
0E20: 73 74 63 01 80 45 00 80  F0 FF FF 7F F0 FF FF 7F  stc..E..........
0E30: 66 64 69 32 01 80 21 00                           fdi2..!.        
```

#### Opcodes

```
  0: 0x02D8 [0x20] SET_CLI_EVENT_UC_FLAG: Lock player control
  1: 0x02DA [0x46] CAMERA_CONTROL: Disable user control
  2: 0x02DC [0x42] SET_CLI_EVENT_CANCEL_DATA()
  3: 0x02DD [0x45] LOAD_SCHEDULED_TASK: Load scheduler "fdo1" with entities [LocalPlayer, LocalPlayer], work=[200*, 0*]
  4: 0x02EE [0x55] WAIT_LOAD_SCHEDULER: Wait for scheduler "fdo1" with entities [LocalPlayer, LocalPlayer], work=200*
  5: 0x02FD [0x38] SET_CLIENT_EVENT_MODE(mode=19*)
  6: 0x0300 [0x37] UPDATE_EVENT_POSITION_AND_DIR: x=60.008*, z=-71.240*, y=1.450*, direction=271.9°*
  7: 0x0309 [0x03] ExtData[1]->WorkLocal[0] = LocalPlayer->Race
  8: 0x030E [0x1A] CALL_SUBROUTINE(address=0x0125)
  9: 0x0311 [0x66] LOAD_EXT_SCHEDULER_MAIN: Load scheduler "sir0" with entities [LocalPlayer, LocalPlayer], work=ExtData[1]->WorkLocal[1]
 10: 0x0320 [0x53] WAIT_SCHEDULER_TASK: Wait for scheduler "sir0" with entities [LocalPlayer, LocalPlayer]
 11: 0x032D [0x97] SAVE_SET_WIND_VALUES(wind_base=0x8001, wind_width=0x8007)
 12: 0x0332 [0x4E] SET_ENTITY_HIDE_FLAG: Show Unnamed NPC (ID: 17428906/0x0109F1AA)
 13: 0x0338 [0x4E] SET_ENTITY_HIDE_FLAG: Show Ancolain (ID: 17428905/0x0109F1A9)
 14: 0x033E [0x45] LOAD_SCHEDULED_TASK: Load scheduler "x000" with entities [LocalPlayer, LocalPlayer], work=[223*, 0*]
 15: 0x034F [0x55] WAIT_LOAD_SCHEDULER: Wait for scheduler "x000" with entities [LocalPlayer, LocalPlayer], work=223*
 16: 0x035E [0x80] LOAD_WAIT(entity=Ancolain (ID: 17428905/0x0109F1A9))
 17: 0x0363 [0x45] LOAD_SCHEDULED_TASK: Load scheduler "fdi1" with entities [LocalPlayer, LocalPlayer], work=[200*, 0*]
 18: 0x0374 [0x55] WAIT_LOAD_SCHEDULER: Wait for scheduler "fdi1" with entities [LocalPlayer, LocalPlayer], work=200*
 19: 0x0383 [0x1C] WAIT(120* ticks)
 20: 0x0386 [0x2B] Ancolain (ID: 17428905/0x0109F1A9) [7466*]:
    → "Hm... It seems my trap was of little consequence after all. Not altogether unexpected."
 21: 0x038D [0x23] WAIT_FOR_DIALOG_INTERACTION
 22: 0x038E [0x5C] MUSIC_CONTROL: Set Idle (Day) music to song 193*
 23: 0x0392 [0x5C] MUSIC_CONTROL: Set Idle (Night) music to song 193*
 24: 0x0396 [0x27] REQ_SET(priority=0x03, entity_id=Ancolain (ID: 17428905/0x0109F1A9), tag_num=0x02)
 25: 0x039D [0x1C] WAIT(60* ticks)
 26: 0x03A0 [0x66] LOAD_EXT_SCHEDULER_MAIN: Load scheduler "sha1" with entities [LocalPlayer, LocalPlayer], work=ExtData[1]->WorkLocal[1]
 27: 0x03AF [0x53] WAIT_SCHEDULER_TASK: Wait for scheduler "sha1" with entities [LocalPlayer, LocalPlayer]
 28: 0x03BC [0x4A] LocalPlayer looks at Ancolain (ID: 17428905/0x0109F1A9)
 29: 0x03C5 [0x1C] WAIT(20* ticks)
 30: 0x03C8 [0x45] LOAD_SCHEDULED_TASK: Load scheduler "x001" with entities [LocalPlayer, LocalPlayer], work=[223*, 0*]
 31: 0x03D9 [0x2A] GET_REQ_LEVEL(level=3, entity_id=Ancolain (ID: 17428905/0x0109F1A9))
 32: 0x03DF [0x55] WAIT_LOAD_SCHEDULER: Wait for scheduler "x001" with entities [LocalPlayer, LocalPlayer], work=223*
 33: 0x03EE [0x2B] Ancolain (ID: 17428905/0x0109F1A9) [7467*]:
    → "However, I am skilled in more than just swordplay. I have also conquered the arts of necromancy. With the helm of the last dragoon I will resurrect the spirit of Erpalacion."
 34: 0x03F5 [0x23] WAIT_FOR_DIALOG_INTERACTION
 35: 0x03F6 [0x45] LOAD_SCHEDULED_TASK: Load scheduler "x002" with entities [LocalPlayer, LocalPlayer], work=[223*, 0*]
 36: 0x0407 [0x55] WAIT_LOAD_SCHEDULER: Wait for scheduler "x002" with entities [LocalPlayer, LocalPlayer], work=223*
 37: 0x0416 [0x2B] Ancolain (ID: 17428905/0x0109F1A9) [7468*]:
    → "He was betrayed by his home of San d'Oria, as was I. He will understand my need for revenge...!"
 38: 0x041D [0x23] WAIT_FOR_DIALOG_INTERACTION
 39: 0x041E [0x27] REQ_SET(priority=0x03, entity_id=Ancolain (ID: 17428905/0x0109F1A9), tag_num=0x05)
 40: 0x0425 [0x1C] WAIT(60* ticks)
 41: 0x0428 [0x45] LOAD_SCHEDULED_TASK: Load scheduler "blon" with entities [Ancolain (ID: 17428905/0x0109F1A9), Ancolain (ID: 17428905/0x0109F1A9)], work=[200*, 0*]
 42: 0x0439 [0x45] LOAD_SCHEDULED_TASK: Load scheduler "x003" with entities [LocalPlayer, LocalPlayer], work=[223*, 0*]
 43: 0x044A [0x55] WAIT_LOAD_SCHEDULER: Wait for scheduler "x003" with entities [LocalPlayer, LocalPlayer], work=223*
 44: 0x0459 [0x45] LOAD_SCHEDULED_TASK: Load scheduler "x004" with entities [LocalPlayer, LocalPlayer], work=[223*, 0*]
 45: 0x046A [0x27] REQ_SET(priority=0x03, entity_id=Erpalacion (ID: 17428904/0x0109F1A8), tag_num=0x02)
 46: 0x0471 [0x55] WAIT_LOAD_SCHEDULER: Wait for scheduler "x004" with entities [LocalPlayer, LocalPlayer], work=223*
 47: 0x0480 [0x4E] SET_ENTITY_HIDE_FLAG: Show Erpalacion (ID: 17428903/0x0109F1A7)
 48: 0x0486 [0x45] LOAD_SCHEDULED_TASK: Load scheduler "blof" with entities [Ancolain (ID: 17428905/0x0109F1A9), Ancolain (ID: 17428905/0x0109F1A9)], work=[200*, 0*]
 49: 0x0497 [0x2A] GET_REQ_LEVEL(level=3, entity_id=Erpalacion (ID: 17428904/0x0109F1A8))
 50: 0x049D [0x4A] LocalPlayer looks at Erpalacion (ID: 17428904/0x0109F1A8)
 51: 0x04A6 [0x79] Unnamed NPC (ID: 17428906/0x0109F1AA) looks at Erpalacion (ID: 17428904/0x0109F1A8) (Basic look)
 52: 0x04B0 [0x27] REQ_SET(priority=0x03, entity_id=Unnamed NPC (ID: 17428906/0x0109F1AA), tag_num=0x02)
 53: 0x04B7 [0x1C] WAIT(60* ticks)
 54: 0x04BA [0x27] REQ_SET(priority=0x03, entity_id=Erpalacion (ID: 17428904/0x0109F1A8), tag_num=0x03)
 55: 0x04C1 [0x1C] WAIT(250* ticks)
 56: 0x04C4 [0x27] REQ_SET(priority=0x04, entity_id=Erpalacion (ID: 17428903/0x0109F1A7), tag_num=0x02)
 57: 0x04CB [0x1C] WAIT(10* ticks)
 58: 0x04CE [0x52] END_LOAD_SCHEDULER: End scheduler "x00b" with entities [LocalPlayer, LocalPlayer], work=223*
 59: 0x04DD [0x45] LOAD_SCHEDULED_TASK: Load scheduler "x005" with entities [LocalPlayer, LocalPlayer], work=[223*, 0*]
 60: 0x04EE [0x4E] SET_ENTITY_HIDE_FLAG: Hide Erpalacion (ID: 17428904/0x0109F1A8)
 61: 0x04F4 [0x2A] GET_REQ_LEVEL(level=4, entity_id=Erpalacion (ID: 17428903/0x0109F1A7))
 62: 0x04FA [0x4A] Ancolain (ID: 17428905/0x0109F1A9) looks at Erpalacion (ID: 17428903/0x0109F1A7)
 63: 0x0503 [0x55] WAIT_LOAD_SCHEDULER: Wait for scheduler "x005" with entities [LocalPlayer, LocalPlayer], work=223*
 64: 0x0512 [0x1C] WAIT(100* ticks)
 65: 0x0515 [0x2B] Erpalacion (ID: 17428903/0x0109F1A7) [7469*]:
    → "I never dreamed the day would come when your kind would once again fly free in Vana'diel..."
 66: 0x051C [0x23] WAIT_FOR_DIALOG_INTERACTION
 67: 0x051D [0x4A] Erpalacion (ID: 17428903/0x0109F1A7) looks at LocalPlayer
 68: 0x0526 [0x1C] WAIT(15* ticks)
 69: 0x0529 [0x45] LOAD_SCHEDULED_TASK: Load scheduler "x00a" with entities [LocalPlayer, LocalPlayer], work=[223*, 0*]
 70: 0x053A [0x6F] WAIT_FRAME_DELAY: Yield until WaitTime reaches zero
 71: 0x053B [0x76] CHECK_ENTITY_RENDER_FLAGS: Wait until Erpalacion (ID: 17428903/0x0109F1A7) Render.Flags0 and Render.Flags3 conditions are met
 72: 0x0540 [0x55] WAIT_LOAD_SCHEDULER: Wait for scheduler "x00a" with entities [LocalPlayer, LocalPlayer], work=223*
 73: 0x054F [0x27] REQ_SET(priority=0x03, entity_id=Erpalacion (ID: 17428903/0x0109F1A7), tag_num=0x06)
 74: 0x0556 [0x2B] Erpalacion (ID: 17428903/0x0109F1A7) [7470*]:
    → "<Player>, I am most grateful to you."
 75: 0x055D [0x23] WAIT_FOR_DIALOG_INTERACTION
 76: 0x055E [0x27] REQ_SET(priority=0x04, entity_id=Erpalacion (ID: 17428903/0x0109F1A7), tag_num=0x07)
 77: 0x0565 [0x45] LOAD_SCHEDULED_TASK: Load scheduler "x006" with entities [LocalPlayer, LocalPlayer], work=[223*, 0*]
 78: 0x0576 [0x55] WAIT_LOAD_SCHEDULER: Wait for scheduler "x006" with entities [LocalPlayer, LocalPlayer], work=223*
 79: 0x0585 [0x27] REQ_SET(priority=0x03, entity_id=Ancolain (ID: 17428905/0x0109F1A9), tag_num=0x06)
 80: 0x058C [0x2B] Ancolain (ID: 17428905/0x0109F1A9) [7471*]:
    → "What are you waiting for, dragoon? As I was dismissed from my position of command, you were exiled from San d'Oria by King Ranperre."
 81: 0x0593 [0x23] WAIT_FOR_DIALOG_INTERACTION
 82: 0x0594 [0x2B] Ancolain (ID: 17428905/0x0109F1A9) [7472*]:
    → "Now is our chance to exact our vengeance upon the kingdom that betrayed us. Let this adventurer be the first to be sentenced in our trial of blood!"
 83: 0x059B [0x23] WAIT_FOR_DIALOG_INTERACTION
 84: 0x059C [0x27] REQ_SET(priority=0x04, entity_id=Ancolain (ID: 17428905/0x0109F1A9), tag_num=0x07)
 85: 0x05A3 [0x4A] Erpalacion (ID: 17428903/0x0109F1A7) looks at Ancolain (ID: 17428905/0x0109F1A9)
 86: 0x05AC [0x45] LOAD_SCHEDULED_TASK: Load scheduler "x007" with entities [LocalPlayer, LocalPlayer], work=[223*, 0*]
 87: 0x05BD [0x55] WAIT_LOAD_SCHEDULER: Wait for scheduler "x007" with entities [LocalPlayer, LocalPlayer], work=223*
 88: 0x05CC [0x6F] WAIT_FRAME_DELAY: Yield until WaitTime reaches zero
 89: 0x05CD [0x76] CHECK_ENTITY_RENDER_FLAGS: Wait until Erpalacion (ID: 17428903/0x0109F1A7) Render.Flags0 and Render.Flags3 conditions are met
 90: 0x05D2 [0x27] REQ_SET(priority=0x03, entity_id=Erpalacion (ID: 17428903/0x0109F1A7), tag_num=0x03)
 91: 0x05D9 [0x1C] WAIT(60* ticks)
 92: 0x05DC [0x4A] LocalPlayer looks at Erpalacion (ID: 17428903/0x0109F1A7)
 93: 0x05E5 [0x4A] Unnamed NPC (ID: 17428906/0x0109F1AA) looks at Erpalacion (ID: 17428903/0x0109F1A7)
 94: 0x05EE [0x2B] Erpalacion (ID: 17428903/0x0109F1A7) [7473*]:
    → "I have nothing but gratitude towards San d'Oria. Why would I sympathize with the plight of a spiteful child...?"
 95: 0x05F5 [0x23] WAIT_FOR_DIALOG_INTERACTION
 96: 0x05F6 [0x45] LOAD_SCHEDULED_TASK: Load scheduler "x008" with entities [LocalPlayer, LocalPlayer], work=[223*, 0*]
 97: 0x0607 [0x55] WAIT_LOAD_SCHEDULER: Wait for scheduler "x008" with entities [LocalPlayer, LocalPlayer], work=223*
 98: 0x0616 [0x4A] LocalPlayer looks at Erpalacion (ID: 17428903/0x0109F1A7)
 99: 0x061F [0x4A] Unnamed NPC (ID: 17428906/0x0109F1AA) looks at Erpalacion (ID: 17428903/0x0109F1A7)
100: 0x0628 [0x2B] Ancolain (ID: 17428905/0x0109F1A9) [7474*]:
    → "This is not the way it's supposed to be...!"
101: 0x062F [0x23] WAIT_FOR_DIALOG_INTERACTION
102: 0x0630 [0x4A] LocalPlayer looks at Erpalacion (ID: 17428903/0x0109F1A7)
103: 0x0639 [0x4A] Unnamed NPC (ID: 17428906/0x0109F1AA) looks at Erpalacion (ID: 17428903/0x0109F1A7)
104: 0x0642 [0x45] LOAD_SCHEDULED_TASK: Load scheduler "x009" with entities [LocalPlayer, LocalPlayer], work=[223*, 0*]
105: 0x0653 [0x27] REQ_SET(priority=0x03, entity_id=Ancolain (ID: 17428905/0x0109F1A9), tag_num=0x03)
106: 0x065A [0x4E] SET_ENTITY_HIDE_FLAG: Show Rahal (ID: 17428907/0x0109F1AB)
107: 0x0660 [0x4E] SET_ENTITY_HIDE_FLAG: Show Milchupain (ID: 17428908/0x0109F1AC)
108: 0x0666 [0x4E] SET_ENTITY_HIDE_FLAG: Show Aramaviont (ID: 17428909/0x0109F1AD)
109: 0x066C [0x27] REQ_SET(priority=0x03, entity_id=Milchupain (ID: 17428908/0x0109F1AC), tag_num=0x02)
110: 0x0673 [0x27] REQ_SET(priority=0x03, entity_id=Aramaviont (ID: 17428909/0x0109F1AD), tag_num=0x02)
111: 0x067A [0x1C] WAIT(60* ticks)
112: 0x067D [0x27] REQ_SET(priority=0x03, entity_id=Rahal (ID: 17428907/0x0109F1AB), tag_num=0x02)
113: 0x0684 [0x55] WAIT_LOAD_SCHEDULER: Wait for scheduler "x009" with entities [LocalPlayer, LocalPlayer], work=223*
114: 0x0693 [0x2A] GET_REQ_LEVEL(level=3, entity_id=Ancolain (ID: 17428905/0x0109F1A9))
115: 0x0699 [0x2A] GET_REQ_LEVEL(level=3, entity_id=Rahal (ID: 17428907/0x0109F1AB))
116: 0x069F [0x1C] WAIT(60* ticks)
117: 0x06A2 [0x45] LOAD_SCHEDULED_TASK: Load scheduler "x010" with entities [LocalPlayer, LocalPlayer], work=[223*, 0*]
118: 0x06B3 [0x55] WAIT_LOAD_SCHEDULER: Wait for scheduler "x010" with entities [LocalPlayer, LocalPlayer], work=223*
119: 0x06C2 [0x5D] SET_MUSIC_VOLUME(volume=0*, fade_time=100*)
120: 0x06C7 [0x4A] Unnamed NPC (ID: 17428906/0x0109F1AA) looks at Rahal (ID: 17428907/0x0109F1AB)
121: 0x06D0 [0x37] UPDATE_EVENT_POSITION_AND_DIR: x=61.837*, z=-71.585*, y=1.458*, direction=122.8°*
122: 0x06D9 [0x2A] GET_REQ_LEVEL(level=3, entity_id=Aramaviont (ID: 17428909/0x0109F1AD))
123: 0x06DF [0x1C] WAIT(60* ticks)
124: 0x06E2 [0x2B] Rahal (ID: 17428907/0x0109F1AB) [7475*]:
    → "Ancolain B Feulart, I hereby arrest you on charges of theft and violence against the Court of San d'Oria."
125: 0x06E9 [0x23] WAIT_FOR_DIALOG_INTERACTION
126: 0x06EA [0x5C] MUSIC_CONTROL: Set Idle (Day) music to song 123*
127: 0x06EE [0x5C] MUSIC_CONTROL: Set Idle (Night) music to song 123*
128: 0x06F2 [0x27] REQ_SET(priority=0x03, entity_id=Ancolain (ID: 17428905/0x0109F1A9), tag_num=0x0A)
129: 0x06F9 [0x1C] WAIT(15* ticks)
130: 0x06FC [0x45] LOAD_SCHEDULED_TASK: Load scheduler "x011" with entities [LocalPlayer, LocalPlayer], work=[223*, 0*]
131: 0x070D [0x2B] Ancolain (ID: 17428905/0x0109F1A9) [7477*]:
    → "No...!"
132: 0x0714 [0x23] WAIT_FOR_DIALOG_INTERACTION
133: 0x0715 [0x55] WAIT_LOAD_SCHEDULER: Wait for scheduler "x011" with entities [LocalPlayer, LocalPlayer], work=223*
134: 0x0724 [0x2B] Rahal (ID: 17428907/0x0109F1AB) [7476*]:
    → "I waited for you, Ancolain, believing that you would come to your senses and recognize your mistakes. Your position as second in command had been held vacant for your return. It's a shame things had to turn out like this, but you'll have time to reflect upon your sins in jail."
135: 0x072B [0x23] WAIT_FOR_DIALOG_INTERACTION
136: 0x072C [0x2A] GET_REQ_LEVEL(level=3, entity_id=Ancolain (ID: 17428905/0x0109F1A9))
137: 0x0732 [0x27] REQ_SET(priority=0x03, entity_id=Rahal (ID: 17428907/0x0109F1AB), tag_num=0x03)
138: 0x0739 [0x1C] WAIT(60* ticks)
139: 0x073C [0x27] REQ_SET(priority=0x03, entity_id=Aramaviont (ID: 17428909/0x0109F1AD), tag_num=0x04)
140: 0x0743 [0x1C] WAIT(120* ticks)
141: 0x0746 [0x45] LOAD_SCHEDULED_TASK: Load scheduler "x012" with entities [LocalPlayer, LocalPlayer], work=[223*, 0*]
142: 0x0757 [0x2A] GET_REQ_LEVEL(level=3, entity_id=Rahal (ID: 17428907/0x0109F1AB))
143: 0x075D [0x55] WAIT_LOAD_SCHEDULER: Wait for scheduler "x012" with entities [LocalPlayer, LocalPlayer], work=223*
144: 0x076C [0x4E] SET_ENTITY_HIDE_FLAG: Hide Aramaviont (ID: 17428909/0x0109F1AD)
145: 0x0772 [0x4E] SET_ENTITY_HIDE_FLAG: Hide Ancolain (ID: 17428905/0x0109F1A9)
146: 0x0778 [0x4E] SET_ENTITY_HIDE_FLAG: Hide Milchupain (ID: 17428908/0x0109F1AC)
147: 0x077E [0x2B] Rahal (ID: 17428907/0x0109F1AB) [7478*]:
    → "...!?"
148: 0x0785 [0x23] WAIT_FOR_DIALOG_INTERACTION
149: 0x0786 [0x45] LOAD_SCHEDULED_TASK: Load scheduler "x013" with entities [LocalPlayer, LocalPlayer], work=[223*, 0*]
150: 0x0797 [0x55] WAIT_LOAD_SCHEDULER: Wait for scheduler "x013" with entities [LocalPlayer, LocalPlayer], work=223*
151: 0x07A6 [0x2B] Rahal (ID: 17428907/0x0109F1AB) [7479*]:
    → "That armor! It can't be. The last dragoon...!"
152: 0x07AD [0x23] WAIT_FOR_DIALOG_INTERACTION
153: 0x07AE [0x27] REQ_SET(priority=0x03, entity_id=Erpalacion (ID: 17428903/0x0109F1A7), tag_num=0x06)
154: 0x07B5 [0x02] IF !(Work_Zone[2] == 1*) GOTO 0x07D0
155: 0x07BD [0x2B] Erpalacion (ID: 17428903/0x0109F1A7) [7481*]:
    → "I am Erpalacion. I have met you before at the Tomb of King Ranperre. You were the dragonslayer."
156: 0x07C4 [0x23] WAIT_FOR_DIALOG_INTERACTION
157: 0x07C5 [0x2B] Rahal (ID: 17428907/0x0109F1AB) [7482*]:
    → "Then, that time...! I never thought it was real..."
158: 0x07CC [0x23] WAIT_FOR_DIALOG_INTERACTION
159: 0x07CD [0x01] GOTO 0x07D8
160: 0x07D0 [0x2B] Erpalacion (ID: 17428903/0x0109F1A7) [7480*]:
    → "I am Erpalacion. And you must be the dragonslayer."
161: 0x07D7 [0x23] WAIT_FOR_DIALOG_INTERACTION

SUBROUTINE_07D8:
162: 0x07D8 [0x27] REQ_SET(priority=0x04, entity_id=Erpalacion (ID: 17428903/0x0109F1A7), tag_num=0x07)
163: 0x07DF [0x27] REQ_SET(priority=0x03, entity_id=Rahal (ID: 17428907/0x0109F1AB), tag_num=0x04)
164: 0x07E6 [0x1C] WAIT(60* ticks)
165: 0x07E9 [0x45] LOAD_SCHEDULED_TASK: Load scheduler "x014" with entities [LocalPlayer, LocalPlayer], work=[223*, 0*]
166: 0x07FA [0x55] WAIT_LOAD_SCHEDULER: Wait for scheduler "x014" with entities [LocalPlayer, LocalPlayer], work=223*
167: 0x0809 [0x1C] WAIT(30* ticks)
168: 0x080C [0x2B] Rahal (ID: 17428907/0x0109F1AB) [7483*]:
    → "If you are truly the last dragoon, then there is something that I must ask you. Why did the wise King Ranperre give you such an unreasonable order?"
169: 0x0813 [0x23] WAIT_FOR_DIALOG_INTERACTION
170: 0x0814 [0x2A] GET_REQ_LEVEL(level=3, entity_id=Rahal (ID: 17428907/0x0109F1AB))
171: 0x081A [0x1C] WAIT(10* ticks)
172: 0x081D [0x45] LOAD_SCHEDULED_TASK: Load scheduler "x015" with entities [LocalPlayer, LocalPlayer], work=[223*, 0*]
173: 0x082E [0x1C] WAIT(60* ticks)
174: 0x0831 [0x5D] SET_MUSIC_VOLUME(volume=0*, fade_time=100*)
175: 0x0836 [0x27] REQ_SET(priority=0x03, entity_id=Erpalacion (ID: 17428903/0x0109F1A7), tag_num=0x08)
176: 0x083D [0x2B] Erpalacion (ID: 17428903/0x0109F1A7) [7484*]:
    → "There is an explanation for that... It was the night of our triumphant homecoming..."
177: 0x0844 [0x23] WAIT_FOR_DIALOG_INTERACTION
178: 0x0845 [0x55] WAIT_LOAD_SCHEDULER: Wait for scheduler "x015" with entities [LocalPlayer, LocalPlayer], work=223*
179: 0x0854 [0x45] LOAD_SCHEDULED_TASK: Load scheduler "fdo1" with entities [LocalPlayer, LocalPlayer], work=[200*, 0*]
180: 0x0865 [0x55] WAIT_LOAD_SCHEDULER: Wait for scheduler "fdo1" with entities [LocalPlayer, LocalPlayer], work=200*
181: 0x0874 [0x34] LOAD_UNLOAD_ZONE(zone_id=233*)
182: 0x0877 [0x1C] WAIT(100* ticks)
183: 0x087A [0x77] SET_EVENT_TIME_WEATHER(hour=0*, weather=0*)
184: 0x087F [0x4E] SET_ENTITY_HIDE_FLAG: Hide LocalPlayer
185: 0x0885 [0x4E] SET_ENTITY_HIDE_FLAG: Hide Erpalacion (ID: 17428903/0x0109F1A7)
186: 0x088B [0x4E] SET_ENTITY_HIDE_FLAG: Hide Unnamed NPC (ID: 17428906/0x0109F1AA)
187: 0x0891 [0x4E] SET_ENTITY_HIDE_FLAG: Hide Rahal (ID: 17428907/0x0109F1AB)
188: 0x0897 [0x27] REQ_SET(priority=0x03, entity_id=Ranperre (ID: 17428910/0x0109F1AE), tag_num=0x03)
189: 0x089E [0x27] REQ_SET(priority=0x03, entity_id=Erpalacion (ID: 17428904/0x0109F1A8), tag_num=0x05)
190: 0x08A5 [0x80] LOAD_WAIT(entity=Ranperre (ID: 17428910/0x0109F1AE))
191: 0x08AA [0x80] LOAD_WAIT(entity=Erpalacion (ID: 17428904/0x0109F1A8))
192: 0x08AF [0x45] LOAD_SCHEDULED_TASK: Load scheduler "w000" with entities [LocalPlayer, LocalPlayer], work=[223*, 0*]
193: 0x08C0 [0x55] WAIT_LOAD_SCHEDULER: Wait for scheduler "w000" with entities [LocalPlayer, LocalPlayer], work=223*
194: 0x08CF [0x66] LOAD_EXT_SCHEDULER_MAIN: Load scheduler "sha0" with entities [Erpalacion (ID: 17428904/0x0109F1A8), Erpalacion (ID: 17428904/0x0109F1A8)], work=29*
195: 0x08DE [0x53] WAIT_SCHEDULER_TASK: Wait for scheduler "sha0" with entities [Erpalacion (ID: 17428904/0x0109F1A8), Erpalacion (ID: 17428904/0x0109F1A8)]
196: 0x08EB [0x5C] MUSIC_CONTROL: Set Idle (Day) music to song 122*
197: 0x08EF [0x5C] MUSIC_CONTROL: Set Idle (Night) music to song 122*
198: 0x08F3 [0x45] LOAD_SCHEDULED_TASK: Load scheduler "z002" with entities [LocalPlayer, LocalPlayer], work=[207*, 0*]
199: 0x0904 [0x55] WAIT_LOAD_SCHEDULER: Wait for scheduler "z002" with entities [LocalPlayer, LocalPlayer], work=207*
200: 0x0913 [0x27] REQ_SET(priority=0x03, entity_id=Ranperre (ID: 17428910/0x0109F1AE), tag_num=0x06)
201: 0x091A [0x2B] Ranperre (ID: 17428910/0x0109F1AE) [7485*]:
    → "Erpalacion, it is all finally over..."
202: 0x0921 [0x23] WAIT_FOR_DIALOG_INTERACTION
203: 0x0922 [0x2B] Erpalacion (ID: 17428904/0x0109F1A8) [7486*]:
    → "I'm afraid not, Your Majesty. This is only the beginning. You must turn your efforts towards rebuilding this war-ravaged country."
204: 0x0929 [0x23] WAIT_FOR_DIALOG_INTERACTION
205: 0x092A [0x29] REQ_SET_WAIT(priority=0x04, entity_id=Ranperre (ID: 17428910/0x0109F1AE), tag_num=0x07)
206: 0x0931 [0x4A] Ranperre (ID: 17428910/0x0109F1AE) looks at Erpalacion (ID: 17428904/0x0109F1A8)
207: 0x093A [0x1C] WAIT(15* ticks)
208: 0x093D [0x45] LOAD_SCHEDULED_TASK: Load scheduler "w001" with entities [LocalPlayer, LocalPlayer], work=[223*, 0*]
209: 0x094E [0x55] WAIT_LOAD_SCHEDULER: Wait for scheduler "w001" with entities [LocalPlayer, LocalPlayer], work=223*
210: 0x095D [0x6F] WAIT_FRAME_DELAY: Yield until WaitTime reaches zero
211: 0x095E [0x76] CHECK_ENTITY_RENDER_FLAGS: Wait until Ranperre (ID: 17428910/0x0109F1AE) Render.Flags0 and Render.Flags3 conditions are met
212: 0x0963 [0x2B] Ranperre (ID: 17428910/0x0109F1AE) [7487*]:
    → "Yes...you are right. And you will be here to help us, I trust? Without your strength, the insurrection would have been a difficult thing to put down..."
213: 0x096A [0x23] WAIT_FOR_DIALOG_INTERACTION
214: 0x096B [0x45] LOAD_SCHEDULED_TASK: Load scheduler "w002" with entities [LocalPlayer, LocalPlayer], work=[223*, 0*]
215: 0x097C [0x55] WAIT_LOAD_SCHEDULER: Wait for scheduler "w002" with entities [LocalPlayer, LocalPlayer], work=223*
216: 0x098B [0x2B] Erpalacion (ID: 17428904/0x0109F1A8) [7488*]:
    → "About that, Your Majesty..."
217: 0x0992 [0x23] WAIT_FOR_DIALOG_INTERACTION
218: 0x0993 [0x2B] Ranperre (ID: 17428910/0x0109F1AE) [7489*]:
    → "What is it, Erpalacion? Surely you're not considering retirement at your tender years! There are still many endeavors that will require your abilities."
219: 0x099A [0x23] WAIT_FOR_DIALOG_INTERACTION
220: 0x099B [0x2B] Erpalacion (ID: 17428904/0x0109F1A8) [7490*]:
    → "...I must apologize, but I can no longer remain here in San d'Oria. Forgive me, Your Majesty."
221: 0x09A2 [0x23] WAIT_FOR_DIALOG_INTERACTION
222: 0x09A3 [0x45] LOAD_SCHEDULED_TASK: Load scheduler "w003" with entities [LocalPlayer, LocalPlayer], work=[223*, 0*]
223: 0x09B4 [0x55] WAIT_LOAD_SCHEDULER: Wait for scheduler "w003" with entities [LocalPlayer, LocalPlayer], work=223*
224: 0x09C3 [0x27] REQ_SET(priority=0x03, entity_id=Ranperre (ID: 17428910/0x0109F1AE), tag_num=0x04)
225: 0x09CA [0x2B] Ranperre (ID: 17428910/0x0109F1AE) [7491*]:
    → "What is this you speak of? Tell me why this must be."
226: 0x09D1 [0x23] WAIT_FOR_DIALOG_INTERACTION
227: 0x09D2 [0x27] REQ_SET(priority=0x04, entity_id=Ranperre (ID: 17428910/0x0109F1AE), tag_num=0x05)
228: 0x09D9 [0x2B] Erpalacion (ID: 17428904/0x0109F1A8) [7492*]:
    → "I... During the course of this insurgence, an unholy sign has appeared upon my wyvern. In the heat of battle we slew those that have no sins to answer for. This is our punishment."
229: 0x09E0 [0x23] WAIT_FOR_DIALOG_INTERACTION
230: 0x09E1 [0x45] LOAD_SCHEDULED_TASK: Load scheduler "w004" with entities [LocalPlayer, LocalPlayer], work=[223*, 0*]
231: 0x09F2 [0x55] WAIT_LOAD_SCHEDULER: Wait for scheduler "w004" with entities [LocalPlayer, LocalPlayer], work=223*
232: 0x0A01 [0x27] REQ_SET(priority=0x03, entity_id=Ranperre (ID: 17428910/0x0109F1AE), tag_num=0x08)
233: 0x0A08 [0x2B] Ranperre (ID: 17428910/0x0109F1AE) [7493*]:
    → "Great Goddess...! Even as a dragonslayer, I failed to notice the sign. Forgive me, Erpalacion..."
234: 0x0A0F [0x23] WAIT_FOR_DIALOG_INTERACTION
235: 0x0A10 [0x29] REQ_SET_WAIT(priority=0x04, entity_id=Ranperre (ID: 17428910/0x0109F1AE), tag_num=0x09)
236: 0x0A17 [0x2B] Erpalacion (ID: 17428904/0x0109F1A8) [7494*]:
    → "I believe that dragons teach us the folly of our ways. To restore the holy sign, I must go where no people dwell and spend the rest of my life in quiet solitude."
237: 0x0A1E [0x23] WAIT_FOR_DIALOG_INTERACTION
238: 0x0A1F [0x27] REQ_SET(priority=0x04, entity_id=Ranperre (ID: 17428910/0x0109F1AE), tag_num=0x06)
239: 0x0A26 [0x2B] Ranperre (ID: 17428910/0x0109F1AE) [7495*]:
    → "I see... Well, I have no right to prevent you from leaving. If there is anything I can do, you must let me know."
240: 0x0A2D [0x23] WAIT_FOR_DIALOG_INTERACTION
241: 0x0A2E [0x27] REQ_SET(priority=0x03, entity_id=Erpalacion (ID: 17428904/0x0109F1A8), tag_num=0x06)
242: 0x0A35 [0x1C] WAIT(30* ticks)
243: 0x0A38 [0x45] LOAD_SCHEDULED_TASK: Load scheduler "w005" with entities [LocalPlayer, LocalPlayer], work=[223*, 0*]
244: 0x0A49 [0x55] WAIT_LOAD_SCHEDULER: Wait for scheduler "w005" with entities [LocalPlayer, LocalPlayer], work=223*
245: 0x0A58 [0x1C] WAIT(30* ticks)
246: 0x0A5B [0x2B] Erpalacion (ID: 17428904/0x0109F1A8) [7496*]:
    → "Your Majesty, I must ask you to assist me in convincing others that I had perished in battle."
247: 0x0A62 [0x23] WAIT_FOR_DIALOG_INTERACTION
248: 0x0A63 [0x27] REQ_SET(priority=0x04, entity_id=Ranperre (ID: 17428910/0x0109F1AE), tag_num=0x07)
249: 0x0A6A [0x2B] Ranperre (ID: 17428910/0x0109F1AE) [7497*]:
    → "What are you saying, Erpalacion?"
250: 0x0A71 [0x23] WAIT_FOR_DIALOG_INTERACTION
251: 0x0A72 [0x2B] Erpalacion (ID: 17428904/0x0109F1A8) [7498*]:
    → "If it is known that I still live, I will be hounded incessantly by foreign assassins, or those who hunger for a return to the days of war. The only way I can cast aside my bloodstained lance is to be dead in the eyes of the world."
252: 0x0A79 [0x23] WAIT_FOR_DIALOG_INTERACTION
253: 0x0A7A [0x45] LOAD_SCHEDULED_TASK: Load scheduler "w006" with entities [LocalPlayer, LocalPlayer], work=[223*, 0*]
254: 0x0A8B [0x55] WAIT_LOAD_SCHEDULER: Wait for scheduler "w006" with entities [LocalPlayer, LocalPlayer], work=223*
255: 0x0A9A [0x2B] Erpalacion (ID: 17428904/0x0109F1A8) [7499*]:
    → "That being said, you must know that I can never meet with Your Majesty again."
256: 0x0AA1 [0x23] WAIT_FOR_DIALOG_INTERACTION
257: 0x0AA2 [0x45] LOAD_SCHEDULED_TASK: Load scheduler "w007" with entities [LocalPlayer, LocalPlayer], work=[223*, 0*]
258: 0x0AB3 [0x55] WAIT_LOAD_SCHEDULER: Wait for scheduler "w007" with entities [LocalPlayer, LocalPlayer], work=223*
259: 0x0AC2 [0x1C] WAIT(30* ticks)
260: 0x0AC5 [0x4B] UPDATE_ENTITY_YAW(entity=Ranperre (ID: 17428910/0x0109F1AE), yaw=16.9°*)
261: 0x0ACC [0x1C] WAIT(30* ticks)
262: 0x0ACF [0x2B] Ranperre (ID: 17428910/0x0109F1AE) [7500*]:
    → "!!! To go to such extremes... That I must lose the one person who understands me so well..."
263: 0x0AD6 [0x23] WAIT_FOR_DIALOG_INTERACTION
264: 0x0AD7 [0x27] REQ_SET(priority=0x03, entity_id=Ranperre (ID: 17428910/0x0109F1AE), tag_num=0x08)
265: 0x0ADE [0x2B] Ranperre (ID: 17428910/0x0109F1AE) [7501*]:
    → "However, I must not keep you here for my sake; you have your own road to travel. ...I will send you on an expedition. Use the opportunity to disappear from this land."
266: 0x0AE5 [0x23] WAIT_FOR_DIALOG_INTERACTION
267: 0x0AE6 [0x2B] Ranperre (ID: 17428910/0x0109F1AE) [7502*]:
    → "I have no doubt that every citizen in this kingdom will be present for your state funeral."
268: 0x0AED [0x23] WAIT_FOR_DIALOG_INTERACTION
269: 0x0AEE [0x29] REQ_SET_WAIT(priority=0x03, entity_id=Ranperre (ID: 17428910/0x0109F1AE), tag_num=0x09)
270: 0x0AF5 [0x2B] Erpalacion (ID: 17428904/0x0109F1A8) [7503*]:
    → "My liege, you have my deepest gratitude..."
271: 0x0AFC [0x23] WAIT_FOR_DIALOG_INTERACTION
272: 0x0AFD [0x4A] Ranperre (ID: 17428910/0x0109F1AE) looks at Erpalacion (ID: 17428904/0x0109F1A8)
273: 0x0B06 [0x1C] WAIT(10* ticks)
274: 0x0B09 [0x45] LOAD_SCHEDULED_TASK: Load scheduler "w008" with entities [LocalPlayer, LocalPlayer], work=[223*, 0*]
275: 0x0B1A [0x55] WAIT_LOAD_SCHEDULER: Wait for scheduler "w008" with entities [LocalPlayer, LocalPlayer], work=223*
276: 0x0B29 [0x6F] WAIT_FRAME_DELAY: Yield until WaitTime reaches zero
277: 0x0B2A [0x76] CHECK_ENTITY_RENDER_FLAGS: Wait until Ranperre (ID: 17428910/0x0109F1AE) Render.Flags0 and Render.Flags3 conditions are met
278: 0x0B2F [0x1C] WAIT(15* ticks)
279: 0x0B32 [0x27] REQ_SET(priority=0x03, entity_id=Ranperre (ID: 17428910/0x0109F1AE), tag_num=0x04)
280: 0x0B39 [0x2B] Ranperre (ID: 17428910/0x0109F1AE) [7504*]:
    → "Tonight marks our final farewell. At the very least, we should empty a few glasses and talk until the dawn. What say you?"
281: 0x0B40 [0x23] WAIT_FOR_DIALOG_INTERACTION
282: 0x0B41 [0x27] REQ_SET(priority=0x04, entity_id=Ranperre (ID: 17428910/0x0109F1AE), tag_num=0x05)
283: 0x0B48 [0x2B] Erpalacion (ID: 17428904/0x0109F1A8) [7505*]:
    → "...As you wish, Your Majesty."
284: 0x0B4F [0x23] WAIT_FOR_DIALOG_INTERACTION
285: 0x0B50 [0x45] LOAD_SCHEDULED_TASK: Load scheduler "w009" with entities [LocalPlayer, LocalPlayer], work=[223*, 0*]
286: 0x0B61 [0x1C] WAIT(120* ticks)
287: 0x0B64 [0x45] LOAD_SCHEDULED_TASK: Load scheduler "fdo2" with entities [LocalPlayer, LocalPlayer], work=[200*, 0*]
288: 0x0B75 [0x55] WAIT_LOAD_SCHEDULER: Wait for scheduler "fdo2" with entities [LocalPlayer, LocalPlayer], work=200*
289: 0x0B84 [0x52] END_LOAD_SCHEDULER: End scheduler "w009" with entities [LocalPlayer, LocalPlayer], work=223*
290: 0x0B93 [0x35] LOAD_ZONE_NO_CLOSE(zone_id=159*)
291: 0x0B96 [0x1C] WAIT(100* ticks)
292: 0x0B99 [0x78] ENABLE_GAME_TIMER_RESET_WEATHER()
293: 0x0B9A [0x4E] SET_ENTITY_HIDE_FLAG: Show LocalPlayer
294: 0x0BA0 [0x4E] SET_ENTITY_HIDE_FLAG: Show Erpalacion (ID: 17428903/0x0109F1A7)
295: 0x0BA6 [0x4E] SET_ENTITY_HIDE_FLAG: Show Unnamed NPC (ID: 17428906/0x0109F1AA)
296: 0x0BAC [0x4E] SET_ENTITY_HIDE_FLAG: Show Rahal (ID: 17428907/0x0109F1AB)
297: 0x0BB2 [0x80] LOAD_WAIT(entity=LocalPlayer)
298: 0x0BB7 [0x80] LOAD_WAIT(entity=Erpalacion (ID: 17428903/0x0109F1A7))
299: 0x0BBC [0x80] LOAD_WAIT(entity=Unnamed NPC (ID: 17428906/0x0109F1AA))
300: 0x0BC1 [0x80] LOAD_WAIT(entity=Rahal (ID: 17428907/0x0109F1AB))
301: 0x0BC6 [0x29] REQ_SET_WAIT(priority=0x03, entity_id=Erpalacion (ID: 17428904/0x0109F1A8), tag_num=0x04)
302: 0x0BCD [0x29] REQ_SET_WAIT(priority=0x04, entity_id=Erpalacion (ID: 17428903/0x0109F1A7), tag_num=0x08)
303: 0x0BD4 [0x45] LOAD_SCHEDULED_TASK: Load scheduler "x016" with entities [LocalPlayer, LocalPlayer], work=[223*, 0*]
304: 0x0BE5 [0x55] WAIT_LOAD_SCHEDULER: Wait for scheduler "x016" with entities [LocalPlayer, LocalPlayer], work=223*
305: 0x0BF4 [0x45] LOAD_SCHEDULED_TASK: Load scheduler "fdi1" with entities [LocalPlayer, LocalPlayer], work=[200*, 0*]
306: 0x0C05 [0x55] WAIT_LOAD_SCHEDULER: Wait for scheduler "fdi1" with entities [LocalPlayer, LocalPlayer], work=200*
307: 0x0C14 [0x2B] Erpalacion (ID: 17428903/0x0109F1A7) [7506*]:
    → "And so, following the king's plan, I retired with my wyvern to the mountains."
308: 0x0C1B [0x23] WAIT_FOR_DIALOG_INTERACTION
309: 0x0C1C [0x27] REQ_SET(priority=0x04, entity_id=Erpalacion (ID: 17428903/0x0109F1A7), tag_num=0x09)
310: 0x0C23 [0x1C] WAIT(10* ticks)
311: 0x0C26 [0x45] LOAD_SCHEDULED_TASK: Load scheduler "x017" with entities [LocalPlayer, LocalPlayer], work=[223*, 0*]
312: 0x0C37 [0x2B] Erpalacion (ID: 17428903/0x0109F1A7) [7507*]:
    → "Thankfully, the unholy mark that blighted my wyvern faded, but by that time, I was too old to leave those snow-capped peaks. So, I decided to spend my remaining days raising a new wyvern."
313: 0x0C3E [0x23] WAIT_FOR_DIALOG_INTERACTION
314: 0x0C3F [0x55] WAIT_LOAD_SCHEDULER: Wait for scheduler "x017" with entities [LocalPlayer, LocalPlayer], work=223*
315: 0x0C4E [0x45] LOAD_SCHEDULED_TASK: Load scheduler "x018" with entities [LocalPlayer, LocalPlayer], work=[223*, 0*]
316: 0x0C5F [0x55] WAIT_LOAD_SCHEDULER: Wait for scheduler "x018" with entities [LocalPlayer, LocalPlayer], work=223*
317: 0x0C6E [0x2A] GET_REQ_LEVEL(level=4, entity_id=Erpalacion (ID: 17428903/0x0109F1A7))
318: 0x0C74 [0x4A] Erpalacion (ID: 17428903/0x0109F1A7) looks at LocalPlayer
319: 0x0C7D [0x6F] WAIT_FRAME_DELAY: Yield until WaitTime reaches zero
320: 0x0C7E [0x76] CHECK_ENTITY_RENDER_FLAGS: Wait until Erpalacion (ID: 17428903/0x0109F1A7) Render.Flags0 and Render.Flags3 conditions are met
321: 0x0C83 [0x2B] Erpalacion (ID: 17428903/0x0109F1A7) [7508*]:
    → "I left this life with my dream still unrealized... But now I see that there were others who carried out my final wish. You have given new life to the race of dragons."
322: 0x0C8A [0x23] WAIT_FOR_DIALOG_INTERACTION
323: 0x0C8B [0x4A] Erpalacion (ID: 17428903/0x0109F1A7) looks at Unnamed NPC (ID: 17428906/0x0109F1AA)
324: 0x0C94 [0x6F] WAIT_FRAME_DELAY: Yield until WaitTime reaches zero
325: 0x0C95 [0x76] CHECK_ENTITY_RENDER_FLAGS: Wait until Erpalacion (ID: 17428903/0x0109F1A7) Render.Flags0 and Render.Flags3 conditions are met
326: 0x0C9A [0x2B] Erpalacion (ID: 17428903/0x0109F1A7) [7509*]:
    → "Now is the time for me to return to my eternal slumber. Allow me a moment with this wyvern child."
327: 0x0CA1 [0x23] WAIT_FOR_DIALOG_INTERACTION
328: 0x0CA2 [0x29] REQ_SET_WAIT(priority=0x03, entity_id=Erpalacion (ID: 17428903/0x0109F1A7), tag_num=0x04)
329: 0x0CA9 [0x5B] LOAD_EXT_SCHEDULER: Load scheduler "drg0" with entities [Unnamed NPC (ID: 17428906/0x0109F1AA), Unnamed NPC (ID: 17428906/0x0109F1AA)], work=255*
330: 0x0CB8 [0x66] LOAD_EXT_SCHEDULER_MAIN: Load scheduler "drg0" with entities [Erpalacion (ID: 17428904/0x0109F1A8), Erpalacion (ID: 17428904/0x0109F1A8)], work=25*
331: 0x0CC7 [0x1C] WAIT(10* ticks)
332: 0x0CCA [0x45] LOAD_SCHEDULED_TASK: Load scheduler "x019" with entities [LocalPlayer, LocalPlayer], work=[223*, 0*]
333: 0x0CDB [0x4E] SET_ENTITY_HIDE_FLAG: Show Erpalacion (ID: 17428904/0x0109F1A8)
334: 0x0CE1 [0x4E] SET_ENTITY_HIDE_FLAG: Hide Erpalacion (ID: 17428903/0x0109F1A7)
335: 0x0CE7 [0x55] WAIT_LOAD_SCHEDULER: Wait for scheduler "x019" with entities [LocalPlayer, LocalPlayer], work=223*
336: 0x0CF6 [0x27] REQ_SET(priority=0x03, entity_id=Rahal (ID: 17428907/0x0109F1AB), tag_num=0x08)
337: 0x0CFD [0x53] WAIT_SCHEDULER_TASK: Wait for scheduler "drg0" with entities [Unnamed NPC (ID: 17428906/0x0109F1AA), Unnamed NPC (ID: 17428906/0x0109F1AA)]
338: 0x0D0A [0x5B] LOAD_EXT_SCHEDULER: Load scheduler "drg1" with entities [Unnamed NPC (ID: 17428906/0x0109F1AA), Unnamed NPC (ID: 17428906/0x0109F1AA)], work=255*
339: 0x0D19 [0x66] LOAD_EXT_SCHEDULER_MAIN: Load scheduler "drg1" with entities [Erpalacion (ID: 17428904/0x0109F1A8), Erpalacion (ID: 17428904/0x0109F1A8)], work=25*
340: 0x0D28 [0x53] WAIT_SCHEDULER_TASK: Wait for scheduler "drg1" with entities [Erpalacion (ID: 17428904/0x0109F1A8), Erpalacion (ID: 17428904/0x0109F1A8)]
341: 0x0D35 [0x4A] LocalPlayer looks at Erpalacion (ID: 17428904/0x0109F1A8)
342: 0x0D3E [0x4A] Rahal (ID: 17428907/0x0109F1AB) looks at Erpalacion (ID: 17428904/0x0109F1A8)
343: 0x0D47 [0x45] LOAD_SCHEDULED_TASK: Load scheduler "x020" with entities [LocalPlayer, LocalPlayer], work=[223*, 0*]
344: 0x0D58 [0x1C] WAIT(180* ticks)
345: 0x0D5B [0x27] REQ_SET(priority=0x03, entity_id=Erpalacion (ID: 17428903/0x0109F1A7), tag_num=0x05)
346: 0x0D62 [0x2B] Erpalacion (ID: 17428903/0x0109F1A7) [7510*]:
    → "Grow strong, little one... The life that pulses within you is not yours alone. You hold the spark of all the wyverns that were denied life in this world..."
347: 0x0D69 [0x23] WAIT_FOR_DIALOG_INTERACTION
348: 0x0D6A [0x55] WAIT_LOAD_SCHEDULER: Wait for scheduler "x020" with entities [LocalPlayer, LocalPlayer], work=223*
349: 0x0D79 [0x2A] GET_REQ_LEVEL(level=3, entity_id=Erpalacion (ID: 17428903/0x0109F1A7))
350: 0x0D7F [0x1C] WAIT(60* ticks)
351: 0x0D82 [0x45] LOAD_SCHEDULED_TASK: Load scheduler "x021" with entities [LocalPlayer, LocalPlayer], work=[223*, 0*]
352: 0x0D93 [0x55] WAIT_LOAD_SCHEDULER: Wait for scheduler "x021" with entities [LocalPlayer, LocalPlayer], work=223*
353: 0x0DA2 [0x2B] Rahal (ID: 17428907/0x0109F1AB) [7511*]:
    → "The last dragoon... He was a man worthy of the title."
354: 0x0DA9 [0x23] WAIT_FOR_DIALOG_INTERACTION
355: 0x0DAA [0x29] REQ_SET_WAIT(priority=0x04, entity_id=Rahal (ID: 17428907/0x0109F1AB), tag_num=0x09)
356: 0x0DB1 [0x4A] Rahal (ID: 17428907/0x0109F1AB) looks at LocalPlayer
357: 0x0DBA [0x6F] WAIT_FRAME_DELAY: Yield until WaitTime reaches zero
358: 0x0DBB [0x76] CHECK_ENTITY_RENDER_FLAGS: Wait until Rahal (ID: 17428907/0x0109F1AB) Render.Flags0 and Render.Flags3 conditions are met
359: 0x0DC0 [0x4A] LocalPlayer looks at Rahal (ID: 17428907/0x0109F1AB)
360: 0x0DC9 [0x2B] Rahal (ID: 17428907/0x0109F1AB) [7512*]:
    → "You have performed your duty well. We will escort Ancolain back to San d'Oria and quash these rumors that dishonor the last dragoon. You have the gratitude of the Royal Knights."
361: 0x0DD0 [0x23] WAIT_FOR_DIALOG_INTERACTION
362: 0x0DD1 [0x2B] Rahal (ID: 17428907/0x0109F1AB) [7513*]:
    → "As Erpalacion stated, you and your wyvern have an important destiny to fulfill. Keep that in mind, and take good care of your winged companion. ...Until we meet again."
363: 0x0DD8 [0x23] WAIT_FOR_DIALOG_INTERACTION
364: 0x0DD9 [0x29] REQ_SET_WAIT(priority=0x03, entity_id=Rahal (ID: 17428907/0x0109F1AB), tag_num=0x0A)
365: 0x0DE0 [0x27] REQ_SET(priority=0x04, entity_id=Rahal (ID: 17428907/0x0109F1AB), tag_num=0x05)
366: 0x0DE7 [0x1C] WAIT(120* ticks)
367: 0x0DEA [0x45] LOAD_SCHEDULED_TASK: Load scheduler "fdo2" with entities [LocalPlayer, LocalPlayer], work=[200*, 0*]
368: 0x0DFB [0x55] WAIT_LOAD_SCHEDULER: Wait for scheduler "fdo2" with entities [LocalPlayer, LocalPlayer], work=200*
369: 0x0E0A [0x5C] MUSIC_CONTROL: Set Idle (Day) music to song 0*
370: 0x0E0E [0x5C] MUSIC_CONTROL: Set Idle (Night) music to song 0*
371: 0x0E12 [0x46] CAMERA_CONTROL: Restore default settings
372: 0x0E14 [0x45] LOAD_SCHEDULED_TASK: Load scheduler "qstc" with entities [LocalPlayer, LocalPlayer], work=[201*, 0*]
373: 0x0E25 [0x45] LOAD_SCHEDULED_TASK: Load scheduler "fdi2" with entities [LocalPlayer, LocalPlayer], work=[200*, 0*]
374: 0x0E36 [0x21] END_EVENT
375: 0x0E37 [0x00] END_REQSTACK()
```

### Event 65535.17

#### Metadata

| Field        | Value    |
|--------------|----------|
| Entrypoint   | 0x0E38   |
| Data Size    | 10 bytes |
| Instructions | 2        |

```
      00 01 02 03 04 05 06 07  08 09 0A 0B 0C 0D 0E 0F
      -- -- -- -- -- -- -- --  -- -- -- -- -- -- -- --
0E30:                          37 7A 80 7B 80 7C 80 7D          7z.{.|.}
0E40: 80 00                                             ..              
```

#### Opcodes

```
  0: 0x0E38 [0x37] UPDATE_EVENT_POSITION_AND_DIR: x=-238.784*, z=-19.945*, y=-1.999*, direction=176.0°*
  1: 0x0E41 [0x00] END_REQSTACK()
```

### Event 65535.18

#### Metadata

| Field        | Value    |
|--------------|----------|
| Entrypoint   | 0x0E42   |
| Data Size    | 14 bytes |
| Instructions | 4        |

```
      00 01 02 03 04 05 06 07  08 09 0A 0B 0C 0D 0E 0F
      -- -- -- -- -- -- -- --  -- -- -- -- -- -- -- --
0E40:       32 0A 80 1F 00 7E  80 7F 80 80 80 1F 01 00    2....~........
```

#### Opcodes

```
  0: 0x0E42 [0x32] ExtData[1]->MainSpeed = 13* * 0.1
  1: 0x0E45 [0x1F] MOVE_ENTITY: EventEntity moves to X=-234.785*, Z=-19.944*, Y=-2.000*
  2: 0x0E4D [0x1F] MOVE_ENTITY: Update entity position (mode=1)
  3: 0x0E4F [0x00] END_REQSTACK()
```

### Event 65535.19

#### Metadata

| Field        | Value    |
|--------------|----------|
| Entrypoint   | 0x0E50   |
| Data Size    | 14 bytes |
| Instructions | 4        |

```
      00 01 02 03 04 05 06 07  08 09 0A 0B 0C 0D 0E 0F
      -- -- -- -- -- -- -- --  -- -- -- -- -- -- -- --
0E50: 32 0A 80 1F 00 81 80 82  80 01 80 1F 01 00        2.............  
```

#### Opcodes

```
  0: 0x0E50 [0x32] ExtData[1]->MainSpeed = 13* * 0.1
  1: 0x0E53 [0x1F] MOVE_ENTITY: EventEntity moves to X=198.884*, Z=18.549*, Y=0.000*
  2: 0x0E5B [0x1F] MOVE_ENTITY: Update entity position (mode=1)
  3: 0x0E5D [0x00] END_REQSTACK()
```

### Event 65535.20

#### Metadata

| Field        | Value    |
|--------------|----------|
| Entrypoint   | 0x0E5E   |
| Data Size    | 14 bytes |
| Instructions | 4        |

```
      00 01 02 03 04 05 06 07  08 09 0A 0B 0C 0D 0E 0F
      -- -- -- -- -- -- -- --  -- -- -- -- -- -- -- --
0E50:                                            32 0A                2.
0E60: 80 1F 00 83 80 84 80 01  80 1F 01 00              ............    
```

#### Opcodes

```
  0: 0x0E5E [0x32] ExtData[1]->MainSpeed = 13* * 0.1
  1: 0x0E61 [0x1F] MOVE_ENTITY: EventEntity moves to X=342.301*, Z=338.419*, Y=0.000*
  2: 0x0E69 [0x1F] MOVE_ENTITY: Update entity position (mode=1)
  3: 0x0E6B [0x00] END_REQSTACK()
```
