# Event 65535

## Metadata

| Field           | Value    |
|-----------------|----------|
| Event Index     | 47/56    |
| Offset          | 0x0565   |
| Data Size       | 50 bytes |
| Calculated Size | 50 bytes |
| Instructions    | 12       |

```
      00 01 02 03 04 05 06 07  08 09 0A 0B 0C 0D 0E 0F
      -- -- -- -- -- -- -- --  -- -- -- -- -- -- -- --
0560:                32 28 80  1F 00 A9 80 AA 80 AB 80       2(.........
0570: 1F 01 1C 2C 80 1F 00 AC  80 AD 80 AE 80 1F 01 1C  ...,............
0580: 2C 80 1F 00 90 80 91 80  92 80 1F 01 4B 14 61 0E  ,...........K.a.
0590: 01 AF 80 1C 2C 80 00                              ....,..         
```

## Opcodes

```
  0: 0x0565 [0x32] ExtData[1]->MainSpeed = 10* * 0.1
  1: 0x0568 [0x1F] MOVE_ENTITY: EventEntity moves to X=-600.221*, Z=588.558*, Y=0.369*
  2: 0x0570 [0x1F] MOVE_ENTITY: Update entity position (mode=1)
  3: 0x0572 [0x1C] WAIT(60* ticks)
  4: 0x0575 [0x1F] MOVE_ENTITY: EventEntity moves to X=-602.144*, Z=586.825*, Y=0.376*
  5: 0x057D [0x1F] MOVE_ENTITY: Update entity position (mode=1)
  6: 0x057F [0x1C] WAIT(60* ticks)
  7: 0x0582 [0x1F] MOVE_ENTITY: EventEntity moves to X=-600.128*, Z=585.578*, Y=0.628*
  8: 0x058A [0x1F] MOVE_ENTITY: Update entity position (mode=1)
  9: 0x058C [0x4B] UPDATE_ENTITY_YAW(entity=Unnamed NPC (ID: 17719572/0x010E6114), yaw=11.79°*)
 10: 0x0593 [0x1C] WAIT(60* ticks)
 11: 0x0596 [0x00] END_REQSTACK()
```
