# Event 65535

## Metadata

| Field           | Value    |
|-----------------|----------|
| Event Index     | 44/56    |
| Offset          | 0x04CB   |
| Data Size       | 66 bytes |
| Calculated Size | 66 bytes |
| Instructions    | 16       |

```
      00 01 02 03 04 05 06 07  08 09 0A 0B 0C 0D 0E 0F
      -- -- -- -- -- -- -- --  -- -- -- -- -- -- -- --
04C0:                                   32 31 80 1F 00             21...
04D0: 94 80 95 80 96 80 1F 01  1C A0 80 1F 00 97 80 98  ................
04E0: 80 99 80 1F 01 1C A0 80  1F 00 9A 80 9B 80 9C 80  ................
04F0: 1F 01 1C A0 80 1F 00 9D  80 9E 80 9F 80 1F 01 1C  ................
0500: A0 80 1F 00 90 80 91 80  92 80 1F 01 00           .............   
```

## Opcodes

```
  0: 0x04CB [0x32] ExtData[1]->MainSpeed = 19* * 0.1
  1: 0x04CE [0x1F] MOVE_ENTITY: EventEntity moves to X=-601.910*, Z=587.743*, Y=0.274*
  2: 0x04D6 [0x1F] MOVE_ENTITY: Update entity position (mode=1)
  3: 0x04D8 [0x1C] WAIT(30* ticks)
  4: 0x04DB [0x1F] MOVE_ENTITY: EventEntity moves to X=-600.199*, Z=588.994*, Y=0.347*
  5: 0x04E3 [0x1F] MOVE_ENTITY: Update entity position (mode=1)
  6: 0x04E5 [0x1C] WAIT(30* ticks)
  7: 0x04E8 [0x1F] MOVE_ENTITY: EventEntity moves to X=-599.211*, Z=586.089*, Y=0.586*
  8: 0x04F0 [0x1F] MOVE_ENTITY: Update entity position (mode=1)
  9: 0x04F2 [0x1C] WAIT(30* ticks)
 10: 0x04F5 [0x1F] MOVE_ENTITY: EventEntity moves to X=-599.391*, Z=583.375*, Y=0.830*
 11: 0x04FD [0x1F] MOVE_ENTITY: Update entity position (mode=1)
 12: 0x04FF [0x1C] WAIT(30* ticks)
 13: 0x0502 [0x1F] MOVE_ENTITY: EventEntity moves to X=-600.128*, Z=585.578*, Y=0.628*
 14: 0x050A [0x1F] MOVE_ENTITY: Update entity position (mode=1)
 15: 0x050C [0x00] END_REQSTACK()
```
