# Event 65535

## Metadata

| Field           | Value    |
|-----------------|----------|
| Event Index     | 53/56    |
| Offset          | 0x065B   |
| Data Size       | 51 bytes |
| Calculated Size | 51 bytes |
| Instructions    | 11       |

```
      00 01 02 03 04 05 06 07  08 09 0A 0B 0C 0D 0E 0F
      -- -- -- -- -- -- -- --  -- -- -- -- -- -- -- --
0650:                                   32 05 80 1F 00             2....
0660: C3 80 C4 80 05 80 1F 01  1F 00 C5 80 C6 80 C7 80  ................
0670: 1F 01 1F 00 C8 80 C9 80  CA 80 1F 01 1E 13 61 0E  ..............a.
0680: 01 1C A0 80 4A 13 61 0E  01 14 61 0E 01 00        ....J.a...a...  
```

## Opcodes

```
  0: 0x065B [0x32] ExtData[1]->MainSpeed = 57* * 0.1
  1: 0x065E [0x1F] MOVE_ENTITY: EventEntity moves to X=-604.257*, Z=586.573*, Y=0.057*
  2: 0x0666 [0x1F] MOVE_ENTITY: Update entity position (mode=1)
  3: 0x0668 [0x1F] MOVE_ENTITY: EventEntity moves to X=-603.318*, Z=588.527*, Y=0.196*
  4: 0x0670 [0x1F] MOVE_ENTITY: Update entity position (mode=1)
  5: 0x0672 [0x1F] MOVE_ENTITY: EventEntity moves to X=-601.495*, Z=586.040*, Y=0.496*
  6: 0x067A [0x1F] MOVE_ENTITY: Update entity position (mode=1)
  7: 0x067C [0x1E] EventEntity looks at Unnamed NPC (ID: 17719571/0x010E6113) and starts talking
  8: 0x0681 [0x1C] WAIT(30* ticks)
  9: 0x0684 [0x4A] Unnamed NPC (ID: 17719571/0x010E6113) looks at Unnamed NPC (ID: 17719572/0x010E6114)
 10: 0x068D [0x00] END_REQSTACK()
```
