# Event 65535

## Metadata

| Field           | Value    |
|-----------------|----------|
| Event Index     | 48/56    |
| Offset          | 0x0597   |
| Data Size       | 50 bytes |
| Calculated Size | 50 bytes |
| Instructions    | 12       |

```
      00 01 02 03 04 05 06 07  08 09 0A 0B 0C 0D 0E 0F
      -- -- -- -- -- -- -- --  -- -- -- -- -- -- -- --
0590:                      32  31 80 1F 00 B0 80 B1 80         21.......
05A0: B2 80 1F 01 1C 2C 80 1F  00 AC 80 AD 80 AE 80 1F  .....,..........
05B0: 01 1C 2C 80 1F 00 90 80  91 80 92 80 1F 01 4B 14  ..,...........K.
05C0: 61 0E 01 AF 80 1C 2C 80  00                       a.....,..       
```

## Opcodes

```
  0: 0x0597 [0x32] ExtData[1]->MainSpeed = 19* * 0.1
  1: 0x059A [0x1F] MOVE_ENTITY: EventEntity moves to X=-599.892*, Z=588.477*, Y=0.373*
  2: 0x05A2 [0x1F] MOVE_ENTITY: Update entity position (mode=1)
  3: 0x05A4 [0x1C] WAIT(60* ticks)
  4: 0x05A7 [0x1F] MOVE_ENTITY: EventEntity moves to X=-602.144*, Z=586.825*, Y=0.376*
  5: 0x05AF [0x1F] MOVE_ENTITY: Update entity position (mode=1)
  6: 0x05B1 [0x1C] WAIT(60* ticks)
  7: 0x05B4 [0x1F] MOVE_ENTITY: EventEntity moves to X=-600.128*, Z=585.578*, Y=0.628*
  8: 0x05BC [0x1F] MOVE_ENTITY: Update entity position (mode=1)
  9: 0x05BE [0x4B] UPDATE_ENTITY_YAW(entity=Unnamed NPC (ID: 17719572/0x010E6114), yaw=11.79°*)
 10: 0x05C5 [0x1C] WAIT(60* ticks)
 11: 0x05C8 [0x00] END_REQSTACK()
```
