# Event 65535

## Metadata

| Field           | Value    |
|-----------------|----------|
| Event Index     | 49/56    |
| Offset          | 0x05C9   |
| Data Size       | 67 bytes |
| Calculated Size | 67 bytes |
| Instructions    | 15       |

```
      00 01 02 03 04 05 06 07  08 09 0A 0B 0C 0D 0E 0F
      -- -- -- -- -- -- -- --  -- -- -- -- -- -- -- --
05C0:                             32 05 80 1F 00 B3 80           2......
05D0: B4 80 B5 80 1F 01 4B 14  61 0E 01 B6 80 1C 2C 80  ......K.a.....,.
05E0: 1F 00 B7 80 B8 80 B9 80  1F 01 4B 14 61 0E 01 BA  ..........K.a...
05F0: 80 1C BB 80 1F 00 BC 80  BD 80 BE 80 1F 01 1C A0  ................
0600: 80 4B 14 61 0E 01 BF 80  1C 2C 80 00              .K.a.....,..    
```

## Opcodes

```
  0: 0x05C9 [0x32] ExtData[1]->MainSpeed = 57* * 0.1
  1: 0x05CC [0x1F] MOVE_ENTITY: EventEntity moves to X=-599.295*, Z=590.678*, Y=0.264*
  2: 0x05D4 [0x1F] MOVE_ENTITY: Update entity position (mode=1)
  3: 0x05D6 [0x4B] UPDATE_ENTITY_YAW(entity=Unnamed NPC (ID: 17719572/0x010E6114), yaw=5.3°*)
  4: 0x05DD [0x1C] WAIT(60* ticks)
  5: 0x05E0 [0x1F] MOVE_ENTITY: EventEntity moves to X=-604.353*, Z=586.292*, Y=0.138*
  6: 0x05E8 [0x1F] MOVE_ENTITY: Update entity position (mode=1)
  7: 0x05EA [0x4B] UPDATE_ENTITY_YAW(entity=Unnamed NPC (ID: 17719572/0x010E6114), yaw=0.2°*)
  8: 0x05F1 [0x1C] WAIT(240* ticks)
  9: 0x05F4 [0x1F] MOVE_ENTITY: EventEntity moves to X=-600.328*, Z=582.410*, Y=0.802*
 10: 0x05FC [0x1F] MOVE_ENTITY: Update entity position (mode=1)
 11: 0x05FE [0x1C] WAIT(30* ticks)
 12: 0x0601 [0x4B] UPDATE_ENTITY_YAW(entity=Unnamed NPC (ID: 17719572/0x010E6114), yaw=16.6°*)
 13: 0x0608 [0x1C] WAIT(60* ticks)
 14: 0x060B [0x00] END_REQSTACK()
```
