# Event 65535

## Metadata

| Field           | Value    |
|-----------------|----------|
| Event Index     | 54/56    |
| Offset          | 0x068E   |
| Data Size       | 59 bytes |
| Calculated Size | 59 bytes |
| Instructions    | 13       |

```
      00 01 02 03 04 05 06 07  08 09 0A 0B 0C 0D 0E 0F
      -- -- -- -- -- -- -- --  -- -- -- -- -- -- -- --
0680:                                            32 28                2(
0690: 80 1F 00 CB 80 CC 80 CD  80 1F 01 1F 00 CE 80 CF  ................
06A0: 80 D0 80 1F 01 1F 00 D1  80 D2 80 D3 80 1F 01 1F  ................
06B0: 00 D4 80 D5 80 D6 80 1F  01 1F 00 D7 80 D8 80 D9  ................
06C0: 80 1F 01 1E 13 61 0E 01  00                       .....a...       
```

## Opcodes

```
  0: 0x068E [0x32] ExtData[1]->MainSpeed = 10* * 0.1
  1: 0x0691 [0x1F] MOVE_ENTITY: EventEntity moves to X=-601.361*, Z=584.507*, Y=0.542*
  2: 0x0699 [0x1F] MOVE_ENTITY: Update entity position (mode=1)
  3: 0x069B [0x1F] MOVE_ENTITY: EventEntity moves to X=-600.414*, Z=583.859*, Y=0.704*
  4: 0x06A3 [0x1F] MOVE_ENTITY: Update entity position (mode=1)
  5: 0x06A5 [0x1F] MOVE_ENTITY: EventEntity moves to X=-599.376*, Z=585.276*, Y=0.668*
  6: 0x06AD [0x1F] MOVE_ENTITY: Update entity position (mode=1)
  7: 0x06AF [0x1F] MOVE_ENTITY: EventEntity moves to X=-598.992*, Z=587.260*, Y=0.468*
  8: 0x06B7 [0x1F] MOVE_ENTITY: Update entity position (mode=1)
  9: 0x06B9 [0x1F] MOVE_ENTITY: EventEntity moves to X=-599.942*, Z=587.474*, Y=0.447*
 10: 0x06C1 [0x1F] MOVE_ENTITY: Update entity position (mode=1)
 11: 0x06C3 [0x1E] EventEntity looks at Unnamed NPC (ID: 17719571/0x010E6113) and starts talking
 12: 0x06C8 [0x00] END_REQSTACK()
```
