# Event 65535

## Metadata

| Field           | Value    |
|-----------------|----------|
| Event Index     | 43/56    |
| Offset          | 0x0495   |
| Data Size       | 54 bytes |
| Calculated Size | 54 bytes |
| Instructions    | 12       |

```
      00 01 02 03 04 05 06 07  08 09 0A 0B 0C 0D 0E 0F
      -- -- -- -- -- -- -- --  -- -- -- -- -- -- -- --
0490:                32 28 80  1F 00 94 80 95 80 96 80       2(.........
04A0: 1F 01 1F 00 97 80 98 80  99 80 1F 01 1F 00 9A 80  ................
04B0: 9B 80 9C 80 1F 01 1F 00  9D 80 9E 80 9F 80 1F 01  ................
04C0: 1F 00 90 80 91 80 92 80  1F 01 00                 ...........     
```

## Opcodes

```
  0: 0x0495 [0x32] ExtData[1]->MainSpeed = 10* * 0.1
  1: 0x0498 [0x1F] MOVE_ENTITY: EventEntity moves to X=-601.910*, Z=587.743*, Y=0.274*
  2: 0x04A0 [0x1F] MOVE_ENTITY: Update entity position (mode=1)
  3: 0x04A2 [0x1F] MOVE_ENTITY: EventEntity moves to X=-600.199*, Z=588.994*, Y=0.347*
  4: 0x04AA [0x1F] MOVE_ENTITY: Update entity position (mode=1)
  5: 0x04AC [0x1F] MOVE_ENTITY: EventEntity moves to X=-599.211*, Z=586.089*, Y=0.586*
  6: 0x04B4 [0x1F] MOVE_ENTITY: Update entity position (mode=1)
  7: 0x04B6 [0x1F] MOVE_ENTITY: EventEntity moves to X=-599.391*, Z=583.375*, Y=0.830*
  8: 0x04BE [0x1F] MOVE_ENTITY: Update entity position (mode=1)
  9: 0x04C0 [0x1F] MOVE_ENTITY: EventEntity moves to X=-600.128*, Z=585.578*, Y=0.628*
 10: 0x04C8 [0x1F] MOVE_ENTITY: Update entity position (mode=1)
 11: 0x04CA [0x00] END_REQSTACK()
```
