# Event 468

## Metadata

| Field           | Value    |
|-----------------|----------|
| Event Index     | 8/14     |
| Offset          | 0x034F   |
| Data Size       | 25 bytes |
| Calculated Size | 25 bytes |
| Instructions    | 11       |

```
      00 01 02 03 04 05 06 07  08 09 0A 0B 0C 0D 0E 0F
      -- -- -- -- -- -- -- --  -- -- -- -- -- -- -- --
0340:                                               03                 .
0350: 41 10 00 80 42 1E F0 FF  FF 7F 1D 4A 80 23 1D 4B  A...B......J.#.K
0360: 80 23 1D 4C 80 23 21 00                           .#.L.#!.        
```

## Opcodes

```
  0: 0x034F [0x03] Work_Zone[65] = 2*
  1: 0x0354 [0x42] SET_CLI_EVENT_CANCEL_DATA()
  2: 0x0355 [0x1E] EventEntity looks at LocalPlayer and starts talking
  3: 0x035A [0x1D] PRINT_EVENT_MESSAGE(message_id=9047*)
    → "\u0008, thank you for waiting.\u007F1\u0000\u0007"
  4: 0x035D [0x23] WAIT_FOR_DIALOG_INTERACTION
  5: 0x035E [0x1D] PRINT_EVENT_MESSAGE(message_id=9048*)
    → "Much to the VCS and the CRA's delight, the recent efforts of chocobo breeders across Vana'diel has helped to generate an unprecedented amount of interest in our endeavor.\u0007More people than ever have begun to express an interest in raising their own chocobo.\u007F1\u0000\u0007"
  6: 0x0361 [0x23] WAIT_FOR_DIALOG_INTERACTION
  7: 0x0362 [0x1D] PRINT_EVENT_MESSAGE(message_id=9049*)
    → "As a means of expressing our gratitude, we have therefore decided to confer upon the victors of CRA Classics rewards befitting a champion.\u0007We congratulate you on your impressive achievement, \u0008. You are a true inspiration for breeders everywhere!\u007F1\u0000\u0007"
  8: 0x0365 [0x23] WAIT_FOR_DIALOG_INTERACTION
  9: 0x0366 [0x21] END_EVENT
 10: 0x0367 [0x00] END_REQSTACK()
```
