# Event 470

## Metadata

| Field           | Value    |
|-----------------|----------|
| Event Index     | 10/14    |
| Offset          | 0x0602   |
| Data Size       | 23 bytes |
| Calculated Size | 23 bytes |
| Instructions    | 9        |

```
      00 01 02 03 04 05 06 07  08 09 0A 0B 0C 0D 0E 0F
      -- -- -- -- -- -- -- --  -- -- -- -- -- -- -- --
0600:       03 41 10 00 80 1E  F0 FF FF 7F 1C 38 80 1D    .A.........8..
0610: 01 80 23 1D 5E 80 23 21  00                       ..#.^.#!.       
```

## Opcodes

```
  0: 0x0602 [0x03] Work_Zone[65] = 2*
  1: 0x0607 [0x1E] EventEntity looks at LocalPlayer and starts talking
  2: 0x060C [0x1C] WAIT(30* ticks)
  3: 0x060F [0x1D] PRINT_EVENT_MESSAGE(message_id=8912*)
    → "Welcome to the Chocobo Racing Association's (CRA) \u000C\u0000[San d'Oria/Bastok/Windurst] branch.\u0007This service desk is here to accommodate our beginning and intermediate racers.\u007F1\u0000\u0007"
  4: 0x0612 [0x23] WAIT_FOR_DIALOG_INTERACTION
  5: 0x0613 [0x1D] PRINT_EVENT_MESSAGE(message_id=8913*)
    → "I am sorry, but there are no races scheduled at the moment.\u007F1\u0000\u0007"
  6: 0x0616 [0x23] WAIT_FOR_DIALOG_INTERACTION
  7: 0x0617 [0x21] END_EVENT
  8: 0x0618 [0x00] END_REQSTACK()
```
