# Event 443

## Metadata

| Field           | Value    |
|-----------------|----------|
| Event Index     | 46/97    |
| Offset          | 0x0377   |
| Data Size       | 33 bytes |
| Calculated Size | 33 bytes |
| Instructions    | 12       |

```
      00 01 02 03 04 05 06 07  08 09 0A 0B 0C 0D 0E 0F
      -- -- -- -- -- -- -- --  -- -- -- -- -- -- -- --
0370:                      1E  F0 FF FF 7F 6F 70 29 08         .....op).
0380: 57 00 0F 01 01 1D 20 80  23 1D 21 80 23 29 08 57  W..... .#.!.#).W
0390: 00 0F 01 02 20 00 21 00                           .... .!.        
```

## Opcodes

```
  0: 0x0377 [0x1E] EventEntity looks at LocalPlayer and starts talking
  1: 0x037C [0x6F] WAIT_FRAME_DELAY: Yield until WaitTime reaches zero
  2: 0x037D [0x70] WAIT_ENTITY_RENDER_FLAG: Wait while EventEntity->Render.Flags3 bit 2 is set (cancel turn if not)
  3: 0x037E [0x29] REQ_SET_WAIT(priority=0x08, entity_id=Pyo Nzon (ID: 17760343/0x010F0057), tag_num=0x01)
  4: 0x0385 [0x1D] PRINT_EVENT_MESSAGE(message_id=4393*)
    → "That Carrrdian is top secrrret!\u007F1\u0000\u0007"
  5: 0x0388 [0x23] WAIT_FOR_DIALOG_INTERACTION
  6: 0x0389 [0x1D] PRINT_EVENT_MESSAGE(message_id=4394*)
    → "Perrhaps he was teased by grrrown-ups so much that he hid in that house and fell asleep... Well that's what I think!\u007F1\u0000\u0007"
  7: 0x038C [0x23] WAIT_FOR_DIALOG_INTERACTION
  8: 0x038D [0x29] REQ_SET_WAIT(priority=0x08, entity_id=Pyo Nzon (ID: 17760343/0x010F0057), tag_num=0x02)
  9: 0x0394 [0x20] SET_CLI_EVENT_UC_FLAG: Unlock player control
 10: 0x0396 [0x21] END_EVENT
 11: 0x0397 [0x00] END_REQSTACK()
```
