# Event 510

## Metadata

| Field           | Value    |
|-----------------|----------|
| Event Index     | 77/97    |
| Offset          | 0x055C   |
| Data Size       | 33 bytes |
| Calculated Size | 33 bytes |
| Instructions    | 12       |

```
      00 01 02 03 04 05 06 07  08 09 0A 0B 0C 0D 0E 0F
      -- -- -- -- -- -- -- --  -- -- -- -- -- -- -- --
0550:                                      1E F0 FF FF              ....
0560: 7F 6F 70 29 08 57 00 0F  01 01 1D 77 80 23 1D 78  .op).W.....w.#.x
0570: 80 23 29 08 57 00 0F 01  02 20 00 21 00           .#).W.... .!.   
```

## Opcodes

```
  0: 0x055C [0x1E] EventEntity looks at LocalPlayer and starts talking
  1: 0x0561 [0x6F] WAIT_FRAME_DELAY: Yield until WaitTime reaches zero
  2: 0x0562 [0x70] WAIT_ENTITY_RENDER_FLAG: Wait while EventEntity->Render.Flags3 bit 2 is set (cancel turn if not)
  3: 0x0563 [0x29] REQ_SET_WAIT(priority=0x08, entity_id=Pyo Nzon (ID: 17760343/0x010F0057), tag_num=0x01)
  4: 0x056A [0x1D] PRINT_EVENT_MESSAGE(message_id=12468*)
    → "If we come acrrross Joker, we can't tell him any of this.\u007F1\u0000\u0007"
  5: 0x056D [0x23] WAIT_FOR_DIALOG_INTERACTION
  6: 0x056E [0x1D] PRINT_EVENT_MESSAGE(message_id=12469*)
    → "It would be such a shock for him. If it was me, I'd be crrrying into my milk...\u007F1\u0000\u0007"
  7: 0x0571 [0x23] WAIT_FOR_DIALOG_INTERACTION
  8: 0x0572 [0x29] REQ_SET_WAIT(priority=0x08, entity_id=Pyo Nzon (ID: 17760343/0x010F0057), tag_num=0x02)
  9: 0x0579 [0x20] SET_CLI_EVENT_UC_FLAG: Unlock player control
 10: 0x057B [0x21] END_EVENT
 11: 0x057C [0x00] END_REQSTACK()
```
