# Event 65535

## Metadata

| Field           | Value    |
|-----------------|----------|
| Event Index     | 13/97    |
| Offset          | 0x0128   |
| Data Size       | 80 bytes |
| Calculated Size | 80 bytes |
| Instructions    | 10       |

```
      00 01 02 03 04 05 06 07  08 09 0A 0B 0C 0D 0E 0F
      -- -- -- -- -- -- -- --  -- -- -- -- -- -- -- --
0120:                          7C 00 F8 FF FF 7F 81 00          |.......
0130: F8 FF FF 7F 5B 02 80 F8  FF FF 7F F8 FF FF 7F 62  ....[..........b
0140: 69 6B 30 53 F8 FF FF 7F  F8 FF FF 7F 62 69 6B 30  ik0S........bik0
0150: 7C 01 F8 FF FF 7F 81 01  F8 FF FF 7F 7C 01 F8 FF  |...........|...
0160: FF 7F 81 00 F8 FF FF 7F  5B 00 80 F8 FF FF 7F F8  ........[.......
0170: FF FF 7F 61 77 77 30 00                           ...aww0.        
```

## Opcodes

```
  0: 0x0128 [0x7C] EventEntity->Render.Flags2 |= 0x00
  1: 0x012E [0x81] SET_ENTITY_BLINKING(blink_flag=0x00, entity=EventEntity)
  2: 0x0134 [0x5B] LOAD_EXT_SCHEDULER(work_offset=81*, entity1=EventEntity, entity2=EventEntity, action="bik0")
  3: 0x0143 [0x53] WAIT_SCHEDULER_TASK(entity1=EventEntity, entity2=EventEntity, action_id="bik0")
  4: 0x0150 [0x7C] EventEntity->Render.Flags2 |= 0x01
  5: 0x0156 [0x81] SET_ENTITY_BLINKING(blink_flag=0x01, entity=EventEntity)
  6: 0x015C [0x7C] EventEntity->Render.Flags2 |= 0x01
  7: 0x0162 [0x81] SET_ENTITY_BLINKING(blink_flag=0x00, entity=EventEntity)
  8: 0x0168 [0x5B] LOAD_EXT_SCHEDULER(work_offset=80*, entity1=EventEntity, entity2=EventEntity, action="aww0")
  9: 0x0177 [0x00] END_REQSTACK()
```
