# Event 610

## Metadata

| Field           | Value    |
|-----------------|----------|
| Event Index     | 23/40    |
| Offset          | 0x017D   |
| Data Size       | 29 bytes |
| Calculated Size | 29 bytes |
| Instructions    | 13       |

```
      00 01 02 03 04 05 06 07  08 09 0A 0B 0C 0D 0E 0F
      -- -- -- -- -- -- -- --  -- -- -- -- -- -- -- --
0170:                                         86 01 F8               ...
0180: FF FF 7F 1E F0 FF FF 7F  6F 70 1D 06 80 23 1D 07  ........op...#..
0190: 80 23 1D 08 80 23 20 00  21 00                    .#...# .!.      
```

## Opcodes

```
  0: 0x017D [0x86] EventEntity->Render.Flags3 ^= 0x01
  1: 0x0183 [0x1E] EventEntity looks at LocalPlayer and starts talking
  2: 0x0188 [0x6F] WAIT_FRAME_DELAY: Yield until WaitTime reaches zero
  3: 0x0189 [0x70] WAIT_ENTITY_RENDER_FLAG: Wait while EventEntity->Render.Flags3 bit 2 is set (cancel turn if not)
  4: 0x018A [0x1D] PRINT_EVENT_MESSAGE(message_id=8890*)
    → "I'm the house flutist. I do nightly performances at this restaurant.\u007F1\u0000\u0007"
  5: 0x018D [0x23] WAIT_FOR_DIALOG_INTERACTION
  6: 0x018E [0x1D] PRINT_EVENT_MESSAGE(message_id=8891*)
    → "Have you ever visited us here at nighty-nighty?\u007F1\u0000\u0007"
  7: 0x0191 [0x23] WAIT_FOR_DIALOG_INTERACTION
  8: 0x0192 [0x1D] PRINT_EVENT_MESSAGE(message_id=8892*)
    → "People are strange when it comes to food. It seems our tastes change with the time of day. I recommend you try our dinner dishes here too!\u007F1\u0000\u0007"
  9: 0x0195 [0x23] WAIT_FOR_DIALOG_INTERACTION
 10: 0x0196 [0x20] SET_CLI_EVENT_UC_FLAG: Unlock player control
 11: 0x0198 [0x21] END_EVENT
 12: 0x0199 [0x00] END_REQSTACK()
```
