# Event 65535

## Metadata

| Field           | Value    |
|-----------------|----------|
| Event Index     | 38/40    |
| Offset          | 0x0492   |
| Data Size       | 27 bytes |
| Calculated Size | 27 bytes |
| Instructions    | 9        |

```
      00 01 02 03 04 05 06 07  08 09 0A 0B 0C 0D 0E 0F
      -- -- -- -- -- -- -- --  -- -- -- -- -- -- -- --
0490:       1D 39 80 23 1D 3A  80 23 29 08 4F E0 0E 01    .9.#.:.#).O...
04A0: 0F 1D 3B 80 23 29 08 4F  E0 0E 01 10 00           ..;.#).O.....   
```

## Opcodes

```
  0: 0x0492 [0x1D] PRINT_EVENT_MESSAGE(message_id=8934*)
    → "And so now I'm searching within myself for a more appropriate sound. Alas, I've been unable to find it yet.\u007F1\u0000\u0007"
  1: 0x0495 [0x23] WAIT_FOR_DIALOG_INTERACTION
  2: 0x0496 [0x1D] PRINT_EVENT_MESSAGE(message_id=8935*)
    → "I apologize for the trouble I've caused...drawing you into my own personal problems...problems that shouldn't concern one as esteemed as yourself.\u007F1\u0000\u0007"
  3: 0x0499 [0x23] WAIT_FOR_DIALOG_INTERACTION
  4: 0x049A [0x29] REQ_SET_WAIT(priority=0x08, entity_id=Jatan-Paratan (ID: 17752143/0x010EE04F), tag_num=0x0F)
  5: 0x04A1 [0x1D] PRINT_EVENT_MESSAGE(message_id=8936*)
    → "But, yes indeed, this was once the goal I sought after. I shall gladly accept it from you. However, let me pay you back with this...\u007F1\u0000\u0007"
  6: 0x04A4 [0x23] WAIT_FOR_DIALOG_INTERACTION
  7: 0x04A5 [0x29] REQ_SET_WAIT(priority=0x08, entity_id=Jatan-Paratan (ID: 17752143/0x010EE04F), tag_num=0x10)
  8: 0x04AC [0x00] END_REQSTACK()
```
