# 17924178 - KANI01

## Common Data

| Field            | Value                |
|------------------|----------------------|
| Zone             | Mog Garden (ID: 280) |
| Block Size       | 880 bytes            |
| Total Events     | 27                   |
| References Count | 62                   |

## List of Events

| Event ID                   | Entrypoint   |   Size |   Instructions |
|----------------------------|--------------|--------|----------------|
| [65535](#event-65535)      | 0x0000       |      1 |              1 |
| [2003](#event-2003)        | 0x0001       |      1 |              1 |
| [65535.1](#event-655351)   | 0x0002       |     16 |              3 |
| [65535.2](#event-655352)   | 0x0012       |     50 |              7 |
| [2005](#event-2005)        | 0x0044       |     35 |              5 |
| [65535.3](#event-655353)   | 0x0067       |     14 |              4 |
| [2006](#event-2006)        | 0x0075       |      1 |              1 |
| [65535.4](#event-655354)   | 0x0076       |     16 |              5 |
| [65535.5](#event-655355)   | 0x0086       |     26 |              4 |
| [65535.6](#event-655356)   | 0x00A0       |     76 |             17 |
| [65535.7](#event-655357)   | 0x00EC       |     25 |              6 |
| [65535.8](#event-655358)   | 0x0105       |      3 |              2 |
| [2036](#event-2036)        | 0x0108       |      1 |              1 |
| [65535.9](#event-655359)   | 0x0109       |      1 |              1 |
| [2045](#event-2045)        | 0x010A       |      1 |              1 |
| [65535.10](#event-6553510) | 0x010B       |     10 |              2 |
| [65535.11](#event-6553511) | 0x0115       |     22 |              6 |
| [65535.12](#event-6553512) | 0x012B       |     12 |              3 |
| [65535.13](#event-6553513) | 0x0137       |     33 |              8 |
| [65535.14](#event-6553514) | 0x0158       |     14 |              4 |
| [65535.15](#event-6553515) | 0x0166       |     14 |              4 |
| [65535.16](#event-6553516) | 0x0174       |     30 |              5 |
| [65535.17](#event-6553517) | 0x0192       |     18 |              6 |
| [2070](#event-2070)        | 0x01A4       |      1 |              1 |
| [65535.18](#event-6553518) | 0x01A5       |     29 |              4 |
| [65535.19](#event-6553519) | 0x01C2       |     10 |              2 |
| [65535.20](#event-6553520) | 0x01CC       |     48 |             10 |

## DAT References (imed_data)

|   Index | Hex Value   |   Dec Value |
|---------|-------------|-------------|
|       0 | 0x0108      |         264 |
|       1 | 0x16EE      |        5870 |
|       2 | 0x005F      |          95 |
|       3 | 0x0405      |        1029 |
|       4 | 0x0091      |         145 |
|       5 | 0x0000      |           0 |
|       6 | 0x0028      |          40 |
|       7 | 0x29DC      |       10716 |
|       8 | 0xFFFFAA8D  |  4294945421 |
|       9 | 0x05DB      |        1499 |
|      10 | 0x0FCC      |        4044 |
|      11 | 0x34F8      |       13560 |
|      12 | 0xFFFFFE07  |  4294966791 |
|      13 | 0x0498      |        1176 |
|      14 | 0x0A12      |        2578 |
|      15 | 0x130D      |        4877 |
|      16 | 0x006A      |         106 |
|      17 | 0x01C7      |         455 |
|      18 | 0xFFFF85F0  |  4294936048 |
|      19 | 0x09E4      |        2532 |
|      20 | 0x0BE6      |        3046 |
|      21 | 0x0CD1      |        3281 |
|      22 | 0xFFFFB3AC  |  4294947756 |
|      23 | 0x0E77      |        3703 |
|      24 | 0xFFFFAD02  |  4294946050 |
|      25 | 0x013C      |         316 |
|      26 | 0xFFFFA43C  |  4294943804 |
|      27 | 0xFFFFF233  |  4294963763 |
|      28 | 0xFFFFB261  |  4294947425 |
|      29 | 0xFFFFF25F  |  4294963807 |
|      30 | 0xFFFFBCF2  |  4294950130 |
|      31 | 0x0D19      |        3353 |
|      32 | 0xFFFFB2F3  |  4294947571 |
|      33 | 0x0E17      |        3607 |
|      34 | 0xFFFF9F30  |  4294942512 |
|      35 | 0x019E      |         414 |
|      36 | 0xFFFF95EE  |  4294940142 |
|      37 | 0x080B      |        2059 |
|      38 | 0x0C11      |        3089 |
|      39 | 0x01B8      |         440 |
|      40 | 0xFFFFAAAC  |  4294945452 |
|      41 | 0x0E94      |        3732 |
|      42 | 0x3225      |       12837 |
|      43 | 0x04D5      |        1237 |
|      44 | 0x001E      |          30 |
|      45 | 0xFFFFF4AF  |  4294964399 |
|      46 | 0x1ADD      |        6877 |
|      47 | 0x0118      |         280 |
|      48 | 0x0367      |         871 |
|      49 | 0xFFFFE2CD  |  4294959821 |
|      50 | 0x11E0      |        4576 |
|      51 | 0x01DD      |         477 |
|      52 | 0x003C      |          60 |
|      53 | 0x0B56      |        2902 |
|      54 | 0x2DF6      |       11766 |
|      55 | 0xFFFFFEB0  |  4294966960 |
|      56 | 0x03C2      |         962 |
|      57 | 0x2816      |       10262 |
|      58 | 0xFFFFBC06  |  4294949894 |
|      59 | 0x0506      |        1286 |
|      60 | 0x0400      |        1024 |
|      61 | 0x0164      |         356 |

## Events

### Event 65535

#### Metadata

| Field        | Value   |
|--------------|---------|
| Entrypoint   | 0x0000  |
| Data Size    | 1 bytes |
| Instructions | 1       |

```
      00 01 02 03 04 05 06 07  08 09 0A 0B 0C 0D 0E 0F
      -- -- -- -- -- -- -- --  -- -- -- -- -- -- -- --
0000: 00                                                .               
```

#### Opcodes

```
  0: 0x0000 [0x00] END_REQSTACK()
```

### Event 2003

#### Metadata

| Field        | Value   |
|--------------|---------|
| Entrypoint   | 0x0001  |
| Data Size    | 1 bytes |
| Instructions | 1       |

```
      00 01 02 03 04 05 06 07  08 09 0A 0B 0C 0D 0E 0F
      -- -- -- -- -- -- -- --  -- -- -- -- -- -- -- --
0000:    00                                              .              
```

#### Opcodes

```
  0: 0x0001 [0x00] END_REQSTACK()
```

### Event 65535.1

#### Metadata

| Field        | Value    |
|--------------|----------|
| Entrypoint   | 0x0002   |
| Data Size    | 16 bytes |
| Instructions | 3        |

```
      00 01 02 03 04 05 06 07  08 09 0A 0B 0C 0D 0E 0F
      -- -- -- -- -- -- -- --  -- -- -- -- -- -- -- --
0000:       37 00 80 01 80 02  80 03 80 2F 00 F8 FF FF    7......../....
0010: 7F 00                                             ..              
```

#### Opcodes

```
  0: 0x0002 [0x37] UPDATE_EVENT_POSITION_AND_DIR: x=0.264*, z=5.870*, y=0.095*, direction=90.4°*
  1: 0x000B [0x2F] EventEntity->Render.Flags0 &= ~0x80000 // Bit 19
  2: 0x0011 [0x00] END_REQSTACK()
```

### Event 65535.2

#### Metadata

| Field        | Value    |
|--------------|----------|
| Entrypoint   | 0x0012   |
| Data Size    | 50 bytes |
| Instructions | 7        |

```
      00 01 02 03 04 05 06 07  08 09 0A 0B 0C 0D 0E 0F
      -- -- -- -- -- -- -- --  -- -- -- -- -- -- -- --
0010:       22 00 CD 04 80 F8  FF FF 7F F8 FF FF 7F 73    "............s
0020: 30 30 30 05 80 32 06 80  CD 04 80 F8 FF FF 7F F8  000..2..........
0030: FF FF 7F 73 30 30 30 05  80 1F 00 07 80 08 80 09  ...s000.........
0040: 80 1F 01 00                                       ....            
```

#### Opcodes

```
  0: 0x0012 [0x22] ENTITY_HIDE_FLAG(enabled=0x00)
  1: 0x0014 [0xCD] LOAD_SCHEDULED_TASK_ALT4: Load scheduler "s000" with entities [EventEntity, EventEntity], work=[145*, 0*]
  2: 0x0025 [0x32] ExtData[1]->MainSpeed = 40* * 0.1
  3: 0x0028 [0xCD] LOAD_SCHEDULED_TASK_ALT4: Load scheduler "s000" with entities [EventEntity, EventEntity], work=[145*, 0*]
  4: 0x0039 [0x1F] MOVE_ENTITY: EventEntity moves to X=10.716*, Z=-21.875*, Y=1.499*
  5: 0x0041 [0x1F] MOVE_ENTITY: Update entity position (mode=1)
  6: 0x0043 [0x00] END_REQSTACK()
```

### Event 2005

#### Metadata

| Field        | Value    |
|--------------|----------|
| Entrypoint   | 0x0044   |
| Data Size    | 35 bytes |
| Instructions | 5        |

```
      00 01 02 03 04 05 06 07  08 09 0A 0B 0C 0D 0E 0F
      -- -- -- -- -- -- -- --  -- -- -- -- -- -- -- --
0040:             37 0A 80 0B  80 0C 80 0D 80 2F 00 F8      7......../..
0050: FF FF 7F 22 01 CD 04 80  F8 FF FF 7F F8 FF FF 7F  ..."............
0060: 73 30 30 30 05 80 00                              s000...         
```

#### Opcodes

```
  0: 0x0044 [0x37] UPDATE_EVENT_POSITION_AND_DIR: x=4.044*, z=13.560*, y=-0.505*, direction=103.4°*
  1: 0x004D [0x2F] EventEntity->Render.Flags0 &= ~0x80000 // Bit 19
  2: 0x0053 [0x22] ENTITY_HIDE_FLAG(enabled=0x01)
  3: 0x0055 [0xCD] LOAD_SCHEDULED_TASK_ALT4: Load scheduler "s000" with entities [EventEntity, EventEntity], work=[145*, 0*]
  4: 0x0066 [0x00] END_REQSTACK()
```

### Event 65535.3

#### Metadata

| Field        | Value    |
|--------------|----------|
| Entrypoint   | 0x0067   |
| Data Size    | 14 bytes |
| Instructions | 4        |

```
      00 01 02 03 04 05 06 07  08 09 0A 0B 0C 0D 0E 0F
      -- -- -- -- -- -- -- --  -- -- -- -- -- -- -- --
0060:                      32  06 80 1F 00 0E 80 0F 80         2........
0070: 10 80 1F 01 00                                    .....           
```

#### Opcodes

```
  0: 0x0067 [0x32] ExtData[1]->MainSpeed = 40* * 0.1
  1: 0x006A [0x1F] MOVE_ENTITY: EventEntity moves to X=2.578*, Z=4.877*, Y=0.106*
  2: 0x0072 [0x1F] MOVE_ENTITY: Update entity position (mode=1)
  3: 0x0074 [0x00] END_REQSTACK()
```

### Event 2006

#### Metadata

| Field        | Value   |
|--------------|---------|
| Entrypoint   | 0x0075  |
| Data Size    | 1 bytes |
| Instructions | 1       |

```
      00 01 02 03 04 05 06 07  08 09 0A 0B 0C 0D 0E 0F
      -- -- -- -- -- -- -- --  -- -- -- -- -- -- -- --
0070:                00                                      .          
```

#### Opcodes

```
  0: 0x0075 [0x00] END_REQSTACK()
```

### Event 65535.4

#### Metadata

| Field        | Value    |
|--------------|----------|
| Entrypoint   | 0x0076   |
| Data Size    | 16 bytes |
| Instructions | 5        |

```
      00 01 02 03 04 05 06 07  08 09 0A 0B 0C 0D 0E 0F
      -- -- -- -- -- -- -- --  -- -- -- -- -- -- -- --
0070:                   22 01  33 01 37 11 80 12 80 13        ".3.7.....
0080: 80 14 80 33 01 00                                 ...3..          
```

#### Opcodes

```
  0: 0x0076 [0x22] ENTITY_HIDE_FLAG(enabled=0x01)
  1: 0x0078 [0x33] EventEntity->Render.Flags0 |= 0x200000 // Bit 21 (flag=0x01)
  2: 0x007A [0x37] UPDATE_EVENT_POSITION_AND_DIR: x=0.455*, z=-31.248*, y=2.532*, direction=267.7°*
  3: 0x0083 [0x33] EventEntity->Render.Flags0 |= 0x200000 // Bit 21 (flag=0x01)
  4: 0x0085 [0x00] END_REQSTACK()
```

### Event 65535.5

#### Metadata

| Field        | Value    |
|--------------|----------|
| Entrypoint   | 0x0086   |
| Data Size    | 26 bytes |
| Instructions | 4        |

```
      00 01 02 03 04 05 06 07  08 09 0A 0B 0C 0D 0E 0F
      -- -- -- -- -- -- -- --  -- -- -- -- -- -- -- --
0080:                   2F 00  F8 FF FF 7F CD 04 80 F8        /.........
0090: FF FF 7F F8 FF FF 7F 73  31 32 38 05 80 22 00 00  .......s128.."..
```

#### Opcodes

```
  0: 0x0086 [0x2F] EventEntity->Render.Flags0 &= ~0x80000 // Bit 19
  1: 0x008C [0xCD] LOAD_SCHEDULED_TASK_ALT4: Load scheduler "s128" with entities [EventEntity, EventEntity], work=[145*, 0*]
  2: 0x009D [0x22] ENTITY_HIDE_FLAG(enabled=0x00)
  3: 0x009F [0x00] END_REQSTACK()
```

### Event 65535.6

#### Metadata

| Field        | Value    |
|--------------|----------|
| Entrypoint   | 0x00A0   |
| Data Size    | 76 bytes |
| Instructions | 17       |

```
      00 01 02 03 04 05 06 07  08 09 0A 0B 0C 0D 0E 0F
      -- -- -- -- -- -- -- --  -- -- -- -- -- -- -- --
00A0: 32 06 80 1F 00 15 80 16  80 09 80 1F 01 1F 00 17  2...............
00B0: 80 18 80 09 80 1F 01 1F  00 19 80 1A 80 09 80 1F  ................
00C0: 01 1F 00 1B 80 1C 80 09  80 1F 01 1F 00 1D 80 1E  ................
00D0: 80 09 80 1F 01 1F 00 1F  80 20 80 09 80 1F 01 1F  ......... ......
00E0: 00 21 80 22 80 09 80 1F  01 22 01 00              .!."....."..    
```

#### Opcodes

```
  0: 0x00A0 [0x32] ExtData[1]->MainSpeed = 40* * 0.1
  1: 0x00A3 [0x1F] MOVE_ENTITY: EventEntity moves to X=3.281*, Z=-19.540*, Y=1.499*
  2: 0x00AB [0x1F] MOVE_ENTITY: Update entity position (mode=1)
  3: 0x00AD [0x1F] MOVE_ENTITY: EventEntity moves to X=3.703*, Z=-21.246*, Y=1.499*
  4: 0x00B5 [0x1F] MOVE_ENTITY: Update entity position (mode=1)
  5: 0x00B7 [0x1F] MOVE_ENTITY: EventEntity moves to X=0.316*, Z=-23.492*, Y=1.499*
  6: 0x00BF [0x1F] MOVE_ENTITY: Update entity position (mode=1)
  7: 0x00C1 [0x1F] MOVE_ENTITY: EventEntity moves to X=-3.533*, Z=-19.871*, Y=1.499*
  8: 0x00C9 [0x1F] MOVE_ENTITY: Update entity position (mode=1)
  9: 0x00CB [0x1F] MOVE_ENTITY: EventEntity moves to X=-3.489*, Z=-17.166*, Y=1.499*
 10: 0x00D3 [0x1F] MOVE_ENTITY: Update entity position (mode=1)
 11: 0x00D5 [0x1F] MOVE_ENTITY: EventEntity moves to X=3.353*, Z=-19.725*, Y=1.499*
 12: 0x00DD [0x1F] MOVE_ENTITY: Update entity position (mode=1)
 13: 0x00DF [0x1F] MOVE_ENTITY: EventEntity moves to X=3.607*, Z=-24.784*, Y=1.499*
 14: 0x00E7 [0x1F] MOVE_ENTITY: Update entity position (mode=1)
 15: 0x00E9 [0x22] ENTITY_HIDE_FLAG(enabled=0x01)
 16: 0x00EB [0x00] END_REQSTACK()
```

### Event 65535.7

#### Metadata

| Field        | Value    |
|--------------|----------|
| Entrypoint   | 0x00EC   |
| Data Size    | 25 bytes |
| Instructions | 6        |

```
      00 01 02 03 04 05 06 07  08 09 0A 0B 0C 0D 0E 0F
      -- -- -- -- -- -- -- --  -- -- -- -- -- -- -- --
00E0:                                      37 23 80 24              7#.$
00F0: 80 25 80 26 80 22 00 32  06 80 5A 00 27 80 28 80  .%.&.".2..Z.'.(.
0100: 09 80 5A 01 00                                    ..Z..           
```

#### Opcodes

```
  0: 0x00EC [0x37] UPDATE_EVENT_POSITION_AND_DIR: x=0.414*, z=-27.154*, y=2.059*, direction=271.5°*
  1: 0x00F5 [0x22] ENTITY_HIDE_FLAG(enabled=0x00)
  2: 0x00F7 [0x32] ExtData[1]->MainSpeed = 40* * 0.1
  3: 0x00FA [0x5A] UPDATE_EVENT_POSITION: Set EventEntity MovePosition to X=0.440*, Z=-21.844*, Y=1.499*
  4: 0x0102 [0x5A] UPDATE_EVENT_POSITION: Move EventEntity incrementally towards MovePosition
  5: 0x0104 [0x00] END_REQSTACK()
```

### Event 65535.8

#### Metadata

| Field        | Value   |
|--------------|---------|
| Entrypoint   | 0x0105  |
| Data Size    | 3 bytes |
| Instructions | 2       |

```
      00 01 02 03 04 05 06 07  08 09 0A 0B 0C 0D 0E 0F
      -- -- -- -- -- -- -- --  -- -- -- -- -- -- -- --
0100:                AB 08 00                                ...        
```

#### Opcodes

```
  0: 0x0105 [0xAB] EventEntity->Render.Flags2 |= 0x02 // Set bit 1
  1: 0x0107 [0x00] END_REQSTACK()
```

### Event 2036

#### Metadata

| Field        | Value   |
|--------------|---------|
| Entrypoint   | 0x0108  |
| Data Size    | 1 bytes |
| Instructions | 1       |

```
      00 01 02 03 04 05 06 07  08 09 0A 0B 0C 0D 0E 0F
      -- -- -- -- -- -- -- --  -- -- -- -- -- -- -- --
0100:                          00                               .       
```

#### Opcodes

```
  0: 0x0108 [0x00] END_REQSTACK()
```

### Event 65535.9

#### Metadata

| Field        | Value   |
|--------------|---------|
| Entrypoint   | 0x0109  |
| Data Size    | 1 bytes |
| Instructions | 1       |

```
      00 01 02 03 04 05 06 07  08 09 0A 0B 0C 0D 0E 0F
      -- -- -- -- -- -- -- --  -- -- -- -- -- -- -- --
0100:                             00                             .      
```

#### Opcodes

```
  0: 0x0109 [0x00] END_REQSTACK()
```

### Event 2045

#### Metadata

| Field        | Value   |
|--------------|---------|
| Entrypoint   | 0x010A  |
| Data Size    | 1 bytes |
| Instructions | 1       |

```
      00 01 02 03 04 05 06 07  08 09 0A 0B 0C 0D 0E 0F
      -- -- -- -- -- -- -- --  -- -- -- -- -- -- -- --
0100:                                00                           .     
```

#### Opcodes

```
  0: 0x010A [0x00] END_REQSTACK()
```

### Event 65535.10

#### Metadata

| Field        | Value    |
|--------------|----------|
| Entrypoint   | 0x010B   |
| Data Size    | 10 bytes |
| Instructions | 2        |

```
      00 01 02 03 04 05 06 07  08 09 0A 0B 0C 0D 0E 0F
      -- -- -- -- -- -- -- --  -- -- -- -- -- -- -- --
0100:                                   37 29 80 2A 80             7).*.
0110: 0C 80 2B 80 00                                    ..+..           
```

#### Opcodes

```
  0: 0x010B [0x37] UPDATE_EVENT_POSITION_AND_DIR: x=3.732*, z=12.837*, y=-0.505*, direction=108.7°*
  1: 0x0114 [0x00] END_REQSTACK()
```

### Event 65535.11

#### Metadata

| Field        | Value    |
|--------------|----------|
| Entrypoint   | 0x0115   |
| Data Size    | 22 bytes |
| Instructions | 6        |

```
      00 01 02 03 04 05 06 07  08 09 0A 0B 0C 0D 0E 0F
      -- -- -- -- -- -- -- --  -- -- -- -- -- -- -- --
0110:                1C 2C 80  32 06 80 1F 00 2D 80 2E       .,.2....-..
0120: 80 2F 80 1F 01 1E 1D 80  11 01 00                 ./.........     
```

#### Opcodes

```
  0: 0x0115 [0x1C] WAIT(30* ticks)
  1: 0x0118 [0x32] ExtData[1]->MainSpeed = 40* * 0.1
  2: 0x011B [0x1F] MOVE_ENTITY: EventEntity moves to X=-2.897*, Z=6.877*, Y=0.280*
  3: 0x0123 [0x1F] MOVE_ENTITY: Update entity position (mode=1)
  4: 0x0125 [0x1E] EventEntity looks at Green Thumb Moogle (ID: 17924125/0x0111801D) and starts talking
  5: 0x012A [0x00] END_REQSTACK()
```

### Event 65535.12

#### Metadata

| Field        | Value    |
|--------------|----------|
| Entrypoint   | 0x012B   |
| Data Size    | 12 bytes |
| Instructions | 3        |

```
      00 01 02 03 04 05 06 07  08 09 0A 0B 0C 0D 0E 0F
      -- -- -- -- -- -- -- --  -- -- -- -- -- -- -- --
0120:                                   33 00 37 2D 80             3.7-.
0130: 2E 80 2F 80 30 80 00                              ../.0..         
```

#### Opcodes

```
  0: 0x012B [0x33] EventEntity->Render.Flags0 &= ~ 0x200000 // Bit 21 (flag=0x00)
  1: 0x012D [0x37] UPDATE_EVENT_POSITION_AND_DIR: x=-2.897*, z=6.877*, y=0.280*, direction=76.6°*
  2: 0x0136 [0x00] END_REQSTACK()
```

### Event 65535.13

#### Metadata

| Field        | Value    |
|--------------|----------|
| Entrypoint   | 0x0137   |
| Data Size    | 33 bytes |
| Instructions | 8        |

```
      00 01 02 03 04 05 06 07  08 09 0A 0B 0C 0D 0E 0F
      -- -- -- -- -- -- -- --  -- -- -- -- -- -- -- --
0130:                      32  06 80 1F 00 31 80 32 80         2....1.2.
0140: 33 80 1F 01 1E 5B 80 11  01 6F 70 C4 01 05 80 F8  3....[...op.....
0150: FF FF 7F 5B 80 11 01 00                           ...[....        
```

#### Opcodes

```
  0: 0x0137 [0x32] ExtData[1]->MainSpeed = 40* * 0.1
  1: 0x013A [0x1F] MOVE_ENTITY: EventEntity moves to X=-7.475*, Z=4.576*, Y=0.477*
  2: 0x0142 [0x1F] MOVE_ENTITY: Update entity position (mode=1)
  3: 0x0144 [0x1E] EventEntity looks at Chacharoon (ID: 17924187/0x0111805B) and starts talking
  4: 0x0149 [0x6F] WAIT_FRAME_DELAY: Yield until WaitTime reaches zero
  5: 0x014A [0x70] WAIT_ENTITY_RENDER_FLAG: Wait while EventEntity->Render.Flags3 bit 2 is set (cancel turn if not)
  6: 0x014B [0xC4] SCHEDULE_MAGIC_CASTING_ALT (arg=17): EventEntity casts magic 0* on Chacharoon (ID: 17924187/0x0111805B)
  7: 0x0157 [0x00] END_REQSTACK()
```

### Event 65535.14

#### Metadata

| Field        | Value    |
|--------------|----------|
| Entrypoint   | 0x0158   |
| Data Size    | 14 bytes |
| Instructions | 4        |

```
      00 01 02 03 04 05 06 07  08 09 0A 0B 0C 0D 0E 0F
      -- -- -- -- -- -- -- --  -- -- -- -- -- -- -- --
0150:                          33 01 37 11 80 12 80 13          3.7.....
0160: 80 14 80 33 01 00                                 ...3..          
```

#### Opcodes

```
  0: 0x0158 [0x33] EventEntity->Render.Flags0 |= 0x200000 // Bit 21 (flag=0x01)
  1: 0x015A [0x37] UPDATE_EVENT_POSITION_AND_DIR: x=0.455*, z=-31.248*, y=2.532*, direction=267.7°*
  2: 0x0163 [0x33] EventEntity->Render.Flags0 |= 0x200000 // Bit 21 (flag=0x01)
  3: 0x0165 [0x00] END_REQSTACK()
```

### Event 65535.15

#### Metadata

| Field        | Value    |
|--------------|----------|
| Entrypoint   | 0x0166   |
| Data Size    | 14 bytes |
| Instructions | 4        |

```
      00 01 02 03 04 05 06 07  08 09 0A 0B 0C 0D 0E 0F
      -- -- -- -- -- -- -- --  -- -- -- -- -- -- -- --
0160:                   32 06  80 5A 00 27 80 28 80 09        2..Z.'.(..
0170: 80 5A 01 00                                       .Z..            
```

#### Opcodes

```
  0: 0x0166 [0x32] ExtData[1]->MainSpeed = 40* * 0.1
  1: 0x0169 [0x5A] UPDATE_EVENT_POSITION: Set EventEntity MovePosition to X=0.440*, Z=-21.844*, Y=1.499*
  2: 0x0171 [0x5A] UPDATE_EVENT_POSITION: Move EventEntity incrementally towards MovePosition
  3: 0x0173 [0x00] END_REQSTACK()
```

### Event 65535.16

#### Metadata

| Field        | Value    |
|--------------|----------|
| Entrypoint   | 0x0174   |
| Data Size    | 30 bytes |
| Instructions | 5        |

```
      00 01 02 03 04 05 06 07  08 09 0A 0B 0C 0D 0E 0F
      -- -- -- -- -- -- -- --  -- -- -- -- -- -- -- --
0170:             33 00 C4 01  05 80 F8 FF FF 7F 5B 80      3.........[.
0180: 11 01 1C 34 80 C4 01 05  80 F8 FF FF 7F 5B 80 11  ...4.........[..
0190: 01 00                                             ..              
```

#### Opcodes

```
  0: 0x0174 [0x33] EventEntity->Render.Flags0 &= ~ 0x200000 // Bit 21 (flag=0x00)
  1: 0x0176 [0xC4] SCHEDULE_MAGIC_CASTING_ALT (arg=17): EventEntity casts magic 0* on Chacharoon (ID: 17924187/0x0111805B)
  2: 0x0182 [0x1C] WAIT(60* ticks)
  3: 0x0185 [0xC4] SCHEDULE_MAGIC_CASTING_ALT (arg=17): EventEntity casts magic 0* on Chacharoon (ID: 17924187/0x0111805B)
  4: 0x0191 [0x00] END_REQSTACK()
```

### Event 65535.17

#### Metadata

| Field        | Value    |
|--------------|----------|
| Entrypoint   | 0x0192   |
| Data Size    | 18 bytes |
| Instructions | 6        |

```
      00 01 02 03 04 05 06 07  08 09 0A 0B 0C 0D 0E 0F
      -- -- -- -- -- -- -- --  -- -- -- -- -- -- -- --
0190:       33 00 32 06 80 5A  00 35 80 36 80 37 80 5A    3.2..Z.5.6.7.Z
01A0: 01 22 01 00                                       ."..            
```

#### Opcodes

```
  0: 0x0192 [0x33] EventEntity->Render.Flags0 &= ~ 0x200000 // Bit 21 (flag=0x00)
  1: 0x0194 [0x32] ExtData[1]->MainSpeed = 40* * 0.1
  2: 0x0197 [0x5A] UPDATE_EVENT_POSITION: Set EventEntity MovePosition to X=2.902*, Z=11.766*, Y=-0.336*
  3: 0x019F [0x5A] UPDATE_EVENT_POSITION: Move EventEntity incrementally towards MovePosition
  4: 0x01A1 [0x22] ENTITY_HIDE_FLAG(enabled=0x01)
  5: 0x01A3 [0x00] END_REQSTACK()
```

### Event 2070

#### Metadata

| Field        | Value   |
|--------------|---------|
| Entrypoint   | 0x01A4  |
| Data Size    | 1 bytes |
| Instructions | 1       |

```
      00 01 02 03 04 05 06 07  08 09 0A 0B 0C 0D 0E 0F
      -- -- -- -- -- -- -- --  -- -- -- -- -- -- -- --
01A0:             00                                        .           
```

#### Opcodes

```
  0: 0x01A4 [0x00] END_REQSTACK()
```

### Event 65535.18

#### Metadata

| Field        | Value    |
|--------------|----------|
| Entrypoint   | 0x01A5   |
| Data Size    | 29 bytes |
| Instructions | 4        |

```
      00 01 02 03 04 05 06 07  08 09 0A 0B 0C 0D 0E 0F
      -- -- -- -- -- -- -- --  -- -- -- -- -- -- -- --
01A0:                B6 00 38  80 B4 00 00 00 3F 3F 3F       ..8.....???
01B0: 00 00 00 00 00 00 00 00  00 00 00 00 00 B5 00 00  ................
01C0: 00 00                                             ..              
```

#### Opcodes

```
  0: 0x01A5 [0xB6] ENTITY_APPEARANCE_HANDLER(case=Hair style, value=962*)
  1: 0x01A9 [0xB4] UI_WINDOW_STRING_HANDLER(case=0x00 - Copy string from opcode, work_offset=ExtData[1]->WorkLocal[0], string="???")
  2: 0x01BD [0xB5] SET_EVENT_ENTITY_NAME: Change EventEntity name to ExtData[1]->WorkLocal[0]
  3: 0x01C1 [0x00] END_REQSTACK()
```

### Event 65535.19

#### Metadata

| Field        | Value    |
|--------------|----------|
| Entrypoint   | 0x01C2   |
| Data Size    | 10 bytes |
| Instructions | 2        |

```
      00 01 02 03 04 05 06 07  08 09 0A 0B 0C 0D 0E 0F
      -- -- -- -- -- -- -- --  -- -- -- -- -- -- -- --
01C0:       37 39 80 3A 80 3B  80 3C 80 00                79.:.;.<..    
```

#### Opcodes

```
  0: 0x01C2 [0x37] UPDATE_EVENT_POSITION_AND_DIR: x=10.262*, z=-17.402*, y=1.286*, direction=90.0°*
  1: 0x01CB [0x00] END_REQSTACK()
```

### Event 65535.20

#### Metadata

| Field        | Value    |
|--------------|----------|
| Entrypoint   | 0x01CC   |
| Data Size    | 48 bytes |
| Instructions | 10       |

```
      00 01 02 03 04 05 06 07  08 09 0A 0B 0C 0D 0E 0F
      -- -- -- -- -- -- -- --  -- -- -- -- -- -- -- --
01C0:                                      B6 00 3D 80              ..=.
01D0: B4 00 00 00 4B 41 4E 49  30 31 00 00 00 00 00 00  ....KANI01......
01E0: 00 00 00 00 B5 00 00 00  96 A5 00 33 00 94 00 F8  ...........3....
01F0: FF FF 7F 22 01 2F 01 F8  FF FF 7F 00              ..."./......    
```

#### Opcodes

```
  0: 0x01CC [0xB6] ENTITY_APPEARANCE_HANDLER(case=Hair style, value=356*)
  1: 0x01D0 [0xB4] UI_WINDOW_STRING_HANDLER(case=0x00 - Copy string from opcode, work_offset=ExtData[1]->WorkLocal[0], string="KANI01")
  2: 0x01E4 [0xB5] SET_EVENT_ENTITY_NAME: Change EventEntity name to ExtData[1]->WorkLocal[0]
  3: 0x01E8 [0x96] UNSET_EVENT_NPC: Restore NPC after event (removes event NPC status)
  4: 0x01E9 [0xA5] EventEntity->Flags3.BallistaTeam &= ~0x08  // Clear bit 3 of BallistaTeam
  5: 0x01EB [0x33] EventEntity->Render.Flags0 &= ~ 0x200000 // Bit 21 (flag=0x00)
  6: 0x01ED [0x94] EventEntity->Render.Flags3 = Flags3  // No change (flag=0)
  7: 0x01F3 [0x22] ENTITY_HIDE_FLAG(enabled=0x01)
  8: 0x01F5 [0x2F] EventEntity->Render.Flags0 |= 0x80000 // Bit 19
  9: 0x01FB [0x00] END_REQSTACK()
```
