# 17924137 - Arboreal Grove 4

## Common Data

| Field            | Value                |
|------------------|----------------------|
| Zone             | Mog Garden (ID: 280) |
| Block Size       | 7048 bytes           |
| Total Events     | 5                    |
| References Count | 57                   |

## List of Events

| Event ID              | Entrypoint   |   Size |   Instructions |
|-----------------------|--------------|--------|----------------|
| [65535](#event-65535) | 0x0000       |      1 |              1 |
| [65534](#event-65534) | 0x0001       |      1 |              1 |
| [1023](#event-1023)   | 0x0002       |      3 |              1 |
| [1031](#event-1031)   | 0x0005       |      3 |              1 |
| [1039](#event-1039)   | 0x0008       |   6773 |           1183 |

## DAT References (imed_data)

|   Index | Hex Value   |   Dec Value |
|---------|-------------|-------------|
|       0 | 0x0000      |           0 |
|       1 | 0x1CCC      |        7372 |
|       2 | 0x40000000  |  1073741824 |
|       3 | 0x1CC9      |        7369 |
|       4 | 0x1CCA      |        7370 |
|       5 | 0x1CCB      |        7371 |
|       6 | 0x0001      |           1 |
|       7 | 0x1CC4      |        7364 |
|       8 | 0x1CC5      |        7365 |
|       9 | 0x000C      |          12 |
|      10 | 0x0003      |           3 |
|      11 | 0x000E      |          14 |
|      12 | 0x000B      |          11 |
|      13 | 0x1CC6      |        7366 |
|      14 | 0x0028      |          40 |
|      15 | 0x1D73      |        7539 |
|      16 | 0x1D72      |        7538 |
|      17 | 0x0002      |           2 |
|      18 | 0x002A      |          42 |
|      19 | 0x0004      |           4 |
|      20 | 0x001A      |          26 |
|      21 | 0x001B      |          27 |
|      22 | 0x001C      |          28 |
|      23 | 0x0005      |           5 |
|      24 | 0x0012      |          18 |
|      25 | 0x0013      |          19 |
|      26 | 0x0014      |          20 |
|      27 | 0x0015      |          21 |
|      28 | 0x0006      |           6 |
|      29 | 0x0007      |           7 |
|      30 | 0x0008      |           8 |
|      31 | 0x0016      |          22 |
|      32 | 0x0017      |          23 |
|      33 | 0x0018      |          24 |
|      34 | 0x0019      |          25 |
|      35 | 0x0009      |           9 |
|      36 | 0x000A      |          10 |
|      37 | 0x0011      |          17 |
|      38 | 0x000D      |          13 |
|      39 | 0x000F      |          15 |
|      40 | 0x0010      |          16 |
|      41 | 0x001D      |          29 |
|      42 | 0x001F      |          31 |
|      43 | 0x0063      |          99 |
|      44 | 0x0032      |          50 |
|      45 | 0x0049      |          73 |
|      46 | 0xFFFFF62B  |  4294964779 |
|      47 | 0xFFFFEC34  |  4294962228 |
|      48 | 0x01C4      |         452 |
|      49 | 0x0CF5      |        3317 |
|      50 | 0x00C8      |         200 |
|      51 | 0x0048      |          72 |
|      52 | 0x582C8     |      361160 |
|      53 | 0xFFF788EE  |  4294412526 |
|      54 | 0xFFFFF2F4  |  4294963956 |
|      55 | 0x064D      |        1613 |
|      56 | 0xFFFFFFFF  |  4294967295 |

## String References

- **7364**: This grove of trees is rank $0. You can harvest from it $2 more time[/s].
- **7365**: This grove is fertilized with $1.
- **7366**: What will you do? [Prune the trees./Multiple prunings./Remove weeds./Multiple removals./Nothing.]
- **7369**: Using this new fertilizer will overpower the effects of the $0 you already spread.
- **7370**: Use the $0? [Yes./No.]
- **7371**: You fertilized this spot with $0.
- **7372**: You cannot use that $0 on the grove.
- **7538**: You have successfully performed that action $0 time[/s], and may do so again $3 more time[/s].
- **7539**: You have successfully performed that action $0 time[/s], and may no longer do so again.

## Events

### Event 65535

#### Metadata

| Field        | Value   |
|--------------|---------|
| Entrypoint   | 0x0000  |
| Data Size    | 1 bytes |
| Instructions | 1       |

```
      00 01 02 03 04 05 06 07  08 09 0A 0B 0C 0D 0E 0F
      -- -- -- -- -- -- -- --  -- -- -- -- -- -- -- --
0000: 00                                                .               
```

#### Opcodes

```
  0: 0x0000 [0x00] END_REQSTACK()
```

### Event 65534

#### Metadata

| Field        | Value   |
|--------------|---------|
| Entrypoint   | 0x0001  |
| Data Size    | 1 bytes |
| Instructions | 1       |

```
      00 01 02 03 04 05 06 07  08 09 0A 0B 0C 0D 0E 0F
      -- -- -- -- -- -- -- --  -- -- -- -- -- -- -- --
0000:    00                                              .              
```

#### Opcodes

```
  0: 0x0001 [0x00] END_REQSTACK()
```

### Event 1023

#### Metadata

| Field        | Value   |
|--------------|---------|
| Entrypoint   | 0x0002  |
| Data Size    | 3 bytes |
| Instructions | 1       |

```
      00 01 02 03 04 05 06 07  08 09 0A 0B 0C 0D 0E 0F
      -- -- -- -- -- -- -- --  -- -- -- -- -- -- -- --
0000:       01 7B 00                                      .{.           
```

#### Opcodes

```
  0: 0x0002 [0x01] GOTO 0x007B
```

### Event 1031

#### Metadata

| Field        | Value   |
|--------------|---------|
| Entrypoint   | 0x0005  |
| Data Size    | 3 bytes |
| Instructions | 1       |

```
      00 01 02 03 04 05 06 07  08 09 0A 0B 0C 0D 0E 0F
      -- -- -- -- -- -- -- --  -- -- -- -- -- -- -- --
0000:                01 0B 00                                ...        
```

#### Opcodes

```
  0: 0x0005 [0x01] GOTO 0x000B
```

### Event 1039

#### Metadata

| Field        | Value      |
|--------------|------------|
| Entrypoint   | 0x0008     |
| Data Size    | 6773 bytes |
| Instructions | 56         |

```
      00 01 02 03 04 05 06 07  08 09 0A 0B 0C 0D 0E 0F
      -- -- -- -- -- -- -- --  -- -- -- -- -- -- -- --
0000:                          01 64 02 03 02 00 02 10          .d......
0010: 03 06 00 03 10 02 02 10  00 80 00 2E 00 03 02 10  ................
0020: 03 10 48 01 80 23 03 01  10 02 80 01 79 00 02 03  ..H..#......y...
0030: 10 00 80 01 6F 00 03 02  10 06 00 48 03 80 23 03  ....o......H..#.
0040: 02 10 02 00 24 04 80 00  80 00 80 25 02 00 10 00  ....$......%....
0050: 80 00 5C 00 42 48 05 80  23 01 6C 00 02 00 10 06  ..\.BH..#.l.....
0060: 80 00 6C 00 03 01 10 02  80 01 6C 00 01 79 00 42  ..l.......l..y.B
0070: 48 05 80 23 03 01 10 00  80 21 00 03 00 00 02 10  H..#.....!......
0080: 03 02 00 03 10 03 01 00  04 10 03 03 00 09 10 4A  ...............J
0090: F0 FF FF 7F F8 FF FF 7F  48 07 80 23 02 02 00 00  ........H..#....
00A0: 80 02 A8 00 48 08 80 23  02 01 00 06 80 02 C8 00  ....H..#........
00B0: 02 03 00 00 80 00 C0 00  03 04 00 09 80 01 C5 00  ................
00C0: 03 04 00 0A 80 01 DD 00  02 03 00 00 80 00 D8 00  ................
00D0: 03 04 00 0B 80 01 DD 00  03 04 00 0C 80 24 0D 80  .............$..
00E0: 00 80 04 00 25 02 00 10  00 80 00 1A 01 42 6E F0  ....%........Bn.
00F0: FF FF 7F 0E 80 99 F0 FF  FF 7F 03 01 10 00 80 43  ...............C
0100: 00 43 01 02 03 10 06 80  00 14 01 40 00 80 0A 80  .C.........@....
0110: 08 11 02 10 1A 44 04 01  62 02 02 00 10 06 80 00  .....D..b.......
0120: 9D 01 42 06 08 00 06 07  00 6E F0 FF FF 7F 0E 80  ..B......n......
0130: 99 F0 FF FF 7F 02 07 00  00 80 00 81 01 03 01 10  ................
0140: 00 80 43 00 43 01 02 06  10 00 80 01 51 01 05 07  ..C.C.......Q...
0150: 00 02 05 10 00 80 00 5C  01 05 07 00 02 04 10 00  .......\........
0160: 80 01 67 01 05 07 00 02  03 10 06 80 00 7B 01 40  ..g..........{.@
0170: 00 80 0A 80 08 11 02 10  05 07 00 0B 08 00 01 35  ...............5
0180: 01 03 02 10 08 00 02 05  10 00 80 00 94 01 48 0F  ..............H.
0190: 80 01 97 01 48 10 80 1A  44 04 01 62 02 02 00 10  ....H...D..b....
01A0: 11 80 00 D2 01 42 6E F0  FF FF 7F 12 80 99 F0 FF  .....Bn.........
01B0: FF 7F 03 01 10 00 80 43  00 43 01 02 03 10 06 80  .......C.C......
01C0: 00 CC 01 40 00 80 0A 80  08 11 02 10 1A 44 04 01  ...@.........D..
01D0: 62 02 02 00 10 0A 80 00  52 02 42 06 07 00 6E F0  b.......R.B...n.
01E0: FF FF 7F 12 80 99 F0 FF  FF 7F 02 07 00 00 80 00  ................
01F0: 36 02 03 01 10 00 80 43  00 43 01 02 06 10 00 80  6......C.C......
0200: 01 06 02 05 07 00 02 05  10 00 80 00 11 02 05 07  ................
0210: 00 02 04 10 00 80 01 1C  02 05 07 00 02 03 10 06  ................
0220: 80 00 30 02 40 00 80 0A  80 08 11 02 10 05 07 00  ..0.@...........
0230: 0B 08 00 01 EA 01 03 02  10 08 00 02 05 10 00 80  ................
0240: 00 49 02 48 0F 80 01 4C  02 48 10 80 1A 44 04 01  .I.H...L.H...D..
0250: 62 02 02 00 10 13 80 00  62 02 03 01 10 02 80 01  b.......b.......
0260: 62 02 21 00 42 40 00 80  0A 80 08 11 02 10 1A 44  b.!.B@.........D
0270: 04 21 00 92 00 1D 80 11  01 1A AD 0A 1A EA 02 1A  .!..............
0280: AE 03 1A 58 05 1A 85 07  1A 93 16 1A 93 07 1A 6F  ...X...........o
0290: 08 1A A6 08 1A C9 08 1A  F5 08 1A 95 09 1A 1F 0A  ................
02A0: 1A 48 0A 1A 8E 0A 1A C6  06 AC 02 35 80 11 01 1B  .H.........5....
02B0: 92 00 1D 80 11 01 1A EA  02 1A AE 03 1A 58 05 1A  .............X..
02C0: 85 07 1A 93 16 1A 93 07  1A 6F 08 1A A6 08 1A C9  .........o......
02D0: 08 1A F5 08 1A 95 09 1A  1F 0A 1A 48 0A 1A 8E 0A  ...........H....
02E0: 1A C6 06 AC 02 35 80 11  01 1B AC 02 09 80 11 01  .....5..........
02F0: 3E 00 11 00 80 01 03 27  80 09 80 11 01 02 01 08  >......'........
0300: 03 27 80 09 80 11 01 03  AC 02 0A 80 11 01 3E 00  .'............>.
0310: 11 06 80 1F 03 27 80 0A  80 11 01 02 01 26 03 27  .....'.......&.'
0320: 80 0A 80 11 01 03 AC 02  0B 80 11 01 3E 00 11 11  ............>...
0330: 80 3D 03 29 80 0B 80 11  01 02 01 44 03 29 80 0B  .=.).......D.)..
0340: 80 11 01 03 92 01 20 80  11 01 92 01 21 80 11 01  ...... .....!...
0350: 92 01 22 80 11 01 AC 02  20 80 11 01 3E 00 11 14  .."..... ...>...
0360: 80 6C 03 4E 00 20 80 11  01 01 72 03 4E 01 20 80  .l.N. ....r.N. .
0370: 11 01 AC 02 21 80 11 01  3E 00 11 15 80 88 03 4E  ....!...>......N
0380: 00 21 80 11 01 01 8E 03  4E 01 21 80 11 01 AC 02  .!......N.!.....
0390: 22 80 11 01 3E 00 11 16  80 A4 03 4E 00 22 80 11  "...>......N."..
03A0: 01 01 AA 03 4E 01 22 80  11 01 1C 06 80 1B AC 02  ....N.".........
03B0: 0F 80 11 01 3E 00 11 0A  80 C5 03 27 80 0F 80 11  ....>......'....
03C0: 01 02 01 CC 03 27 80 0F  80 11 01 03 AC 02 10 80  .....'..........
03D0: 11 01 3E 00 11 13 80 E3  03 27 80 10 80 11 01 02  ..>......'......
03E0: 01 EA 03 27 80 10 80 11  01 03 AC 02 11 80 11 01  ...'............
03F0: 3E 00 11 17 80 01 04 29  80 11 80 11 01 02 01 08  >......)........
0400: 04 29 80 11 80 11 01 03  AC 02 1A 80 11 01 3E 01  .)............>.
0410: 11 18 80 1F 04 27 80 1A  80 11 01 02 01 26 04 27  .....'.......&.'
0420: 80 1A 80 11 01 03 AC 02  1B 80 11 01 3E 01 11 19  ............>...
0430: 80 3D 04 29 80 1B 80 11  01 02 01 44 04 29 80 1B  .=.).......D.)..
0440: 80 11 01 03 AC 02 23 80  11 01 AC 02 24 80 11 01  ......#.....$...
0450: 3E 00 11 18 80 7C 04 3E  08 11 00 80 6D 04 4E 00  >....|.>....m.N.
0460: 24 80 11 01 4E 01 23 80  11 01 01 79 04 4E 00 23  $...N.#....y.N.#
0470: 80 11 01 4E 01 24 80 11  01 01 88 04 4E 01 23 80  ...N.$......N.#.
0480: 11 01 4E 01 24 80 11 01  AC 02 25 80 11 01 AC 02  ..N.$.....%.....
0490: 26 80 11 01 3E 00 11 19  80 C0 04 3E 08 11 06 80  &...>......>....
04A0: B1 04 4E 00 26 80 11 01  4E 01 25 80 11 01 01 BD  ..N.&...N.%.....
04B0: 04 4E 00 25 80 11 01 4E  01 26 80 11 01 01 CC 04  .N.%...N.&......
04C0: 4E 01 25 80 11 01 4E 01  26 80 11 01 AC 02 27 80  N.%...N.&.....'.
04D0: 11 01 AC 02 28 80 11 01  3E 00 11 1A 80 04 05 3E  ....(...>......>
04E0: 08 11 11 80 F5 04 4E 00  28 80 11 01 4E 01 27 80  ......N.(...N.'.
04F0: 11 01 01 01 05 4E 00 27  80 11 01 4E 01 28 80 11  .....N.'...N.(..
0500: 01 01 10 05 4E 01 27 80  11 01 4E 01 28 80 11 01  ....N.'...N.(...
0510: AC 02 29 80 11 01 AC 02  2A 80 11 01 3E 00 11 1B  ..).....*...>...
0520: 80 48 05 3E 08 11 0A 80  39 05 4E 00 2A 80 11 01  .H.>....9.N.*...
0530: 4E 01 29 80 11 01 01 45  05 4E 00 29 80 11 01 4E  N.)....E.N.)...N
0540: 01 2A 80 11 01 01 54 05  4E 01 29 80 11 01 4E 01  .*....T.N.)...N.
0550: 2A 80 11 01 1C 06 80 1B  AC 02 12 80 11 01 3E 00  *.............>.
0560: 11 1C 80 6F 05 27 80 12  80 11 01 02 01 76 05 27  ...o.'.......v.'
0570: 80 12 80 11 01 03 AC 02  13 80 11 01 3E 00 11 1D  ............>...
0580: 80 8D 05 27 80 13 80 11  01 02 01 94 05 27 80 13  ...'.........'..
0590: 80 11 01 03 AC 02 14 80  11 01 3E 00 11 1E 80 AB  ..........>.....
05A0: 05 29 80 14 80 11 01 02  01 B2 05 29 80 14 80 11  .).........)....
05B0: 01 03 AC 02 2B 80 11 01  AC 02 2C 80 11 01 3E 00  ....+.....,...>.
05C0: 11 1F 80 EA 05 3E 08 11  13 80 DB 05 4E 00 2C 80  .....>......N.,.
05D0: 11 01 4E 01 2B 80 11 01  01 E7 05 4E 00 2B 80 11  ..N.+......N.+..
05E0: 01 4E 01 2C 80 11 01 01  F6 05 4E 01 2B 80 11 01  .N.,......N.+...
05F0: 4E 01 2C 80 11 01 AC 02  2D 80 11 01 AC 02 2E 80  N.,.....-.......
0600: 11 01 3E 00 11 20 80 2E  06 3E 08 11 17 80 1F 06  ..>.. ...>......
0610: 4E 00 2E 80 11 01 4E 01  2D 80 11 01 01 2B 06 4E  N.....N.-....+.N
0620: 00 2D 80 11 01 4E 01 2E  80 11 01 01 3A 06 4E 01  .-...N......:.N.
0630: 2D 80 11 01 4E 01 2E 80  11 01 AC 02 2F 80 11 01  -...N......./...
0640: AC 02 30 80 11 01 3E 00  11 21 80 72 06 3E 08 11  ..0...>..!.r.>..
0650: 1C 80 63 06 4E 00 30 80  11 01 4E 01 2F 80 11 01  ..c.N.0...N./...
0660: 01 6F 06 4E 00 2F 80 11  01 4E 01 30 80 11 01 01  .o.N./...N.0....
0670: 7E 06 4E 01 2F 80 11 01  4E 01 30 80 11 01 AC 02  ~.N./...N.0.....
0680: 31 80 11 01 AC 02 32 80  11 01 3E 00 11 22 80 B6  1.....2...>.."..
0690: 06 3E 08 11 1D 80 A7 06  4E 00 32 80 11 01 4E 01  .>......N.2...N.
06A0: 31 80 11 01 01 B3 06 4E  00 31 80 11 01 4E 01 32  1......N.1...N.2
06B0: 80 11 01 01 C2 06 4E 01  31 80 11 01 4E 01 32 80  ......N.1...N.2.
06C0: 11 01 1C 06 80 1B 92 01  35 80 11 01 AC 02 15 80  ........5.......
06D0: 11 01 3E 00 11 23 80 E3  06 27 80 15 80 11 01 02  ..>..#...'......
06E0: 01 EA 06 27 80 15 80 11  01 03 AC 02 16 80 11 01  ...'............
06F0: 3E 00 11 24 80 01 07 27  80 16 80 11 01 02 01 08  >..$...'........
0700: 07 27 80 16 80 11 01 03  AC 02 17 80 11 01 3E 00  .'............>.
0710: 11 0C 80 1F 07 27 80 17  80 11 01 02 01 26 07 27  .....'.......&.'
0720: 80 17 80 11 01 03 AC 02  18 80 11 01 3E 01 11 25  ............>..%
0730: 80 3D 07 29 80 18 80 11  01 02 01 44 07 29 80 18  .=.).......D.)..
0740: 80 11 01 03 3E 01 11 1A  80 54 07 60 02 69 30 6F  ....>....T.`.i0o
0750: 6E 01 54 07 3E 01 11 1B  80 64 07 60 02 69 31 6F  n.T.>....d.`.i1o
0760: 6E 01 64 07 3E 01 11 1F  80 74 07 60 02 69 32 6F  n.d.>....t.`.i2o
0770: 6E 01 74 07 3E 01 11 20  80 84 07 60 02 69 33 6F  n.t.>.. ...`.i3o
0780: 6E 01 84 07 1B AC 02 35  80 11 01 29 08 35 80 11  n......5...).5..
0790: 01 04 1B 92 00 57 80 11  01 92 00 6A 80 11 01 92  .....W.....j....
07A0: 00 58 80 11 01 92 00 6B  80 11 01 92 00 59 80 11  .X.....k.....Y..
07B0: 01 92 00 6C 80 11 01 AC  02 57 80 11 01 3E 00 11  ...l.....W...>..
07C0: 09 80 CE 07 27 08 57 80  11 01 02 01 D5 07 27 08  ....'.W.......'.
07D0: 57 80 11 01 03 AC 02 6A  80 11 01 3E 00 11 26 80  W......j...>..&.
07E0: EC 07 27 08 6A 80 11 01  02 01 F3 07 27 08 6A 80  ..'.j.......'.j.
07F0: 11 01 03 AC 02 58 80 11  01 3E 00 11 0B 80 0A 08  .....X...>......
0800: 29 08 58 80 11 01 02 01  11 08 29 08 58 80 11 01  ).X.......).X...
0810: 03 AC 02 6B 80 11 01 3E  00 11 27 80 28 08 27 08  ...k...>..'.(.'.
0820: 6B 80 11 01 02 01 2F 08  27 08 6B 80 11 01 03 AC  k...../.'.k.....
0830: 02 59 80 11 01 3E 00 11  28 80 46 08 27 08 59 80  .Y...>..(.F.'.Y.
0840: 11 01 02 01 4D 08 27 08  59 80 11 01 03 AC 02 6C  ....M.'.Y......l
0850: 80 11 01 3E 00 11 25 80  64 08 29 08 6C 80 11 01  ...>..%.d.).l...
0860: 02 01 6B 08 29 08 6C 80  11 01 03 1C 06 80 1B AC  ..k.).l.........
0870: 02 36 80 11 01 3E 00 11  29 80 92 08 2C 36 80 11  .6...>..)...,6..
0880: 01 36 80 11 01 65 66 6F  6E B6 14 36 80 11 01 01  .6...efon..6....
0890: A5 08 2C 36 80 11 01 36  80 11 01 65 66 6F 66 B6  ..,6...6...efof.
08A0: 15 36 80 11 01 1B 3E 01  11 00 80 BC 08 4E 00 71  .6....>......N.q
08B0: 80 11 01 AC 03 71 80 11  01 01 C8 08 AC 02 71 80  .....q........q.
08C0: 11 01 4E 01 71 80 11 01  1B AC 02 72 80 11 01 3E  ..N.q......r...>
08D0: 01 11 06 80 ED 08 3E 01  11 0A 80 E4 08 29 08 72  ......>......).r
08E0: 80 11 01 04 4E 00 72 80  11 01 01 F4 08 29 08 72  ....N.r......).r
08F0: 80 11 01 03 1B AC 02 8E  80 11 01 3E 01 11 22 80  ...........>..".
0900: 0B 09 4E 00 8E 80 11 01  01 11 09 4E 01 8E 80 11  ..N........N....
0910: 01 1B AC 02 80 80 11 01  AC 02 81 80 11 01 AC 02  ................
0920: 82 80 11 01 AC 02 83 80  11 01 AC 02 84 80 11 01  ................
0930: 3E 01 11 14 80 76 09 4E  00 80 80 11 01 AC 03 80  >....v.N........
0940: 80 11 01 4E 00 81 80 11  01 AC 03 81 80 11 01 4E  ...N...........N
0950: 00 82 80 11 01 AC 03 82  80 11 01 4E 00 83 80 11  ...........N....
0960: 01 AC 03 83 80 11 01 4E  00 84 80 11 01 AC 03 84  .......N........
0970: 80 11 01 01 94 09 4E 01  80 80 11 01 4E 01 81 80  ......N.....N...
0980: 11 01 4E 01 82 80 11 01  4E 01 83 80 11 01 4E 01  ..N.....N.....N.
0990: 84 80 11 01 1B AC 02 85  80 11 01 AC 02 86 80 11  ................
09A0: 01 3E 01 11 15 80 12 0A  13 09 00 11 80 02 09 00  .>..............
09B0: 11 80 02 B8 09 06 09 00  02 09 00 00 80 80 D1 09  ................
09C0: 29 08 85 80 11 01 02 29  08 86 80 11 01 02 01 03  )......)........
09D0: 0A 02 09 00 06 80 80 EA  09 29 08 85 80 11 01 03  .........)......
09E0: 29 08 86 80 11 01 03 01  03 0A 02 09 00 11 80 80  )...............
09F0: 03 0A 29 08 85 80 11 01  04 29 08 86 80 11 01 04  ..)......)......
0A00: 01 03 0A 4E 00 85 80 11  01 4E 00 86 80 11 01 01  ...N.....N......
0A10: 1E 0A 4E 01 85 80 11 01  4E 01 86 80 11 01 1B AC  ..N.....N.......
0A20: 02 87 80 11 01 3E 01 11  13 80 3B 0A 4E 00 87 80  .....>....;.N...
0A30: 11 01 AC 03 87 80 11 01  01 47 0A AC 02 87 80 11  .........G......
0A40: 01 4E 01 87 80 11 01 1B  AC 02 89 80 11 01 29 08  .N............).
0A50: 89 80 11 01 04 1B AC 02  8A 80 11 01 29 08 8A 80  ............)...
0A60: 11 01 04 1B AC 02 8B 80  11 01 29 08 8B 80 11 01  ..........).....
0A70: 04 1B AC 02 8C 80 11 01  29 08 8C 80 11 01 04 1B  ........).......
0A80: AC 02 8D 80 11 01 29 08  8D 80 11 01 04 1B AC 02  ......).........
0A90: 1C 80 11 01 3E 01 11 21  80 A5 0A 29 80 1C 80 11  ....>..!...)....
0AA0: 01 02 01 AC 0A 29 80 1C  80 11 01 03 1B 03 01 10  .....)..........
0AB0: 06 80 43 00 43 01 03 0A  00 02 10 03 08 11 03 10  ..C.C...........
0AC0: 03 01 11 04 10 03 0A 11  05 10 03 0B 11 06 10 03  ................
0AD0: 0C 11 07 10 03 01 10 0C  80 43 00 43 01 03 02 11  .........C.C....
0AE0: 02 10 03 03 11 03 10 03  04 11 04 10 03 05 11 05  ................
0AF0: 10 03 06 11 06 10 03 07  11 07 10 03 09 11 08 10  ................
0B00: 41 00 80 0A 80 0A 00 09  00 1A FA 0C 41 13 80 1D  A...........A...
0B10: 80 0A 00 09 00 1A 02 0F  41 1E 80 0C 80 0A 00 09  ........A.......
0B20: 00 1A 92 11 41 09 80 27  80 0A 00 09 00 1A E0 13  ....A..'........
0B30: 41 1A 80 1F 80 0A 00 09  00 1A 62 0B 41 2A 80 2A  A.........b.A*.*
0B40: 80 0A 00 09 00 02 09 00  00 80 00 57 0B 3D 00 11  ...........W.=..
0B50: 29 80 06 80 01 5E 0B 3C  00 11 29 80 06 80 1A 7C  )....^.<..)....|
0B60: 0B 1B 02 09 00 0A 80 04  74 0B 3C 01 11 21 80 06  ........t.<..!..
0B70: 80 01 7B 0B 3D 01 11 21  80 06 80 1B 3E 08 11 1E  ..{.=..!....>...
0B80: 80 ED 0B 41 23 80 0C 80  08 11 09 00 02 09 00 06  ...A#...........
0B90: 80 80 A5 0B 3D 00 11 09  80 06 80 3C 00 11 26 80  ....=......<..&.
0BA0: 06 80 01 EA 0B 02 09 00  13 80 80 BE 0B 3C 00 11  .............<..
0BB0: 09 80 06 80 3D 00 11 26  80 06 80 01 EA 0B 13 09  ....=..&........
0BC0: 00 2B 80 02 09 00 2C 80  03 DC 0B 3D 00 11 09 80  .+....,....=....
0BD0: 06 80 3C 00 11 26 80 06  80 01 EA 0B 3C 00 11 09  ..<..&......<...
0BE0: 80 06 80 3D 00 11 26 80  06 80 01 FB 0B 3D 00 11  ...=..&......=..
0BF0: 09 80 06 80 3D 00 11 26  80 06 80 3E 08 11 09 80  ....=..&...>....
0C00: 6C 0C 41 26 80 27 80 08  11 09 00 02 09 00 06 80  l.A&.'..........
0C10: 80 24 0C 3C 00 11 0B 80  06 80 3D 00 11 27 80 06  .$.<......=..'..
0C20: 80 01 69 0C 02 09 00 17  80 80 3D 0C 3D 00 11 0B  ..i.......=.=...
0C30: 80 06 80 3C 00 11 27 80  06 80 01 69 0C 13 09 00  ...<..'....i....
0C40: 2B 80 02 09 00 2C 80 03  5B 0C 3C 00 11 0B 80 06  +....,..[.<.....
0C50: 80 3D 00 11 27 80 06 80  01 69 0C 3D 00 11 0B 80  .=..'....i.=....
0C60: 06 80 3C 00 11 27 80 06  80 01 7A 0C 3D 00 11 0B  ..<..'....z.=...
0C70: 80 06 80 3D 00 11 27 80  06 80 3E 08 11 28 80 EB  ...=..'...>..(..
0C80: 0C 41 25 80 19 80 08 11  09 00 02 09 00 0A 80 80  .A%.............
0C90: A3 0C 3C 00 11 28 80 06  80 3D 00 11 25 80 06 80  ..<..(...=..%...
0CA0: 01 E8 0C 02 09 00 11 80  80 BC 0C 3D 00 11 28 80  ...........=..(.
0CB0: 06 80 3C 00 11 25 80 06  80 01 E8 0C 13 09 00 2B  ..<..%.........+
0CC0: 80 02 09 00 2C 80 03 DA  0C 3C 00 11 28 80 06 80  ....,....<..(...
0CD0: 3D 00 11 25 80 06 80 01  E8 0C 3D 00 11 28 80 06  =..%......=..(..
0CE0: 80 3C 00 11 25 80 06 80  01 F9 0C 3D 00 11 28 80  .<..%......=..(.
0CF0: 06 80 3D 00 11 25 80 06  80 1B 02 09 00 00 80 80  ..=..%..........
0D00: 2F 0D 3D 00 11 00 80 06  80 3C 00 11 06 80 06 80  /.=......<......
0D10: 3C 00 11 11 80 06 80 3C  00 11 14 80 06 80 3D 00  <......<......=.
0D20: 11 15 80 06 80 3D 00 11  16 80 06 80 01 01 0F 02  .....=..........
0D30: 09 00 06 80 80 64 0D 3D  00 11 00 80 06 80 3C 00  .....d.=......<.
0D40: 11 06 80 06 80 3C 00 11  11 80 06 80 3C 00 11 14  .....<......<...
0D50: 80 06 80 3D 00 11 15 80  06 80 3D 00 11 16 80 06  ...=......=.....
0D60: 80 01 01 0F 02 09 00 11  80 80 99 0D 3D 00 11 00  ............=...
0D70: 80 06 80 3C 00 11 06 80  06 80 3C 00 11 11 80 06  ...<......<.....
0D80: 80 3C 00 11 14 80 06 80  3D 00 11 15 80 06 80 3D  .<......=......=
0D90: 00 11 16 80 06 80 01 01  0F 02 09 00 0A 80 80 CE  ................
0DA0: 0D 3D 00 11 00 80 06 80  3D 00 11 06 80 06 80 3C  .=......=......<
0DB0: 00 11 11 80 06 80 3C 00  11 14 80 06 80 3C 00 11  ......<......<..
0DC0: 15 80 06 80 3D 00 11 16  80 06 80 01 01 0F 02 09  ....=...........
0DD0: 00 13 80 80 03 0E 3D 00  11 00 80 06 80 3D 00 11  ......=......=..
0DE0: 06 80 06 80 3C 00 11 11  80 06 80 3C 00 11 14 80  ....<......<....
0DF0: 06 80 3C 00 11 15 80 06  80 3D 00 11 16 80 06 80  ..<......=......
0E00: 01 01 0F 02 09 00 17 80  80 38 0E 3D 00 11 00 80  .........8.=....
0E10: 06 80 3D 00 11 06 80 06  80 3D 00 11 11 80 06 80  ..=......=......
0E20: 3C 00 11 14 80 06 80 3C  00 11 15 80 06 80 3C 00  <......<......<.
0E30: 11 16 80 06 80 01 01 0F  02 09 00 1C 80 80 6D 0E  ..............m.
0E40: 3D 00 11 00 80 06 80 3D  00 11 06 80 06 80 3D 00  =......=......=.
0E50: 11 11 80 06 80 3C 00 11  14 80 06 80 3C 00 11 15  .....<......<...
0E60: 80 06 80 3C 00 11 16 80  06 80 01 01 0F 02 09 00  ...<............
0E70: 1D 80 80 A2 0E 3D 00 11  00 80 06 80 3D 00 11 06  .....=......=...
0E80: 80 06 80 3D 00 11 11 80  06 80 3C 00 11 14 80 06  ...=......<.....
0E90: 80 3C 00 11 15 80 06 80  3C 00 11 16 80 06 80 01  .<......<.......
0EA0: 01 0F 02 09 00 1E 80 80  D7 0E 3D 00 11 00 80 06  ..........=.....
0EB0: 80 3D 00 11 06 80 06 80  3D 00 11 11 80 06 80 3C  .=......=......<
0EC0: 00 11 14 80 06 80 3C 00  11 15 80 06 80 3C 00 11  ......<......<..
0ED0: 16 80 06 80 01 01 0F 3D  00 11 00 80 06 80 3C 00  .......=......<.
0EE0: 11 06 80 06 80 3C 00 11  11 80 06 80 3C 00 11 14  .....<......<...
0EF0: 80 06 80 3D 00 11 15 80  06 80 3D 00 11 16 80 06  ...=......=.....
0F00: 80 1B 02 09 00 00 80 80  4C 0F 3C 00 11 0A 80 06  ........L.<.....
0F10: 80 3C 00 11 13 80 06 80  3C 00 11 17 80 06 80 3C  .<......<......<
0F20: 01 11 18 80 06 80 3C 01  11 19 80 06 80 3C 00 11  ......<......<..
0F30: 18 80 06 80 3D 00 11 19  80 06 80 3D 00 11 1A 80  ....=......=....
0F40: 06 80 3D 00 11 1B 80 06  80 01 91 11 02 09 00 06  ..=.............
0F50: 80 80 96 0F 3C 00 11 0A  80 06 80 3C 00 11 13 80  ....<......<....
0F60: 06 80 3C 00 11 17 80 06  80 3C 01 11 18 80 06 80  ..<......<......
0F70: 3C 01 11 19 80 06 80 3C  00 11 18 80 06 80 3D 00  <......<......=.
0F80: 11 19 80 06 80 3D 00 11  1A 80 06 80 3D 00 11 1B  .....=......=...
0F90: 80 06 80 01 91 11 02 09  00 11 80 80 E0 0F 3C 00  ..............<.
0FA0: 11 0A 80 06 80 3C 00 11  13 80 06 80 3C 00 11 17  .....<......<...
0FB0: 80 06 80 3C 01 11 18 80  06 80 3C 01 11 19 80 06  ...<......<.....
0FC0: 80 3C 00 11 18 80 06 80  3D 00 11 19 80 06 80 3D  .<......=......=
0FD0: 00 11 1A 80 06 80 3D 00  11 1B 80 06 80 01 91 11  ......=.........
0FE0: 02 09 00 0A 80 80 2A 10  3D 00 11 0A 80 06 80 3C  ......*.=......<
0FF0: 00 11 13 80 06 80 3C 00  11 17 80 06 80 3D 01 11  ......<......=..
1000: 18 80 06 80 3C 01 11 19  80 06 80 3C 00 11 18 80  ....<......<....
1010: 06 80 3C 00 11 19 80 06  80 3D 00 11 1A 80 06 80  ..<......=......
1020: 3D 00 11 1B 80 06 80 01  91 11 02 09 00 13 80 80  =...............
1030: 74 10 3D 00 11 0A 80 06  80 3C 00 11 13 80 06 80  t.=......<......
1040: 3C 00 11 17 80 06 80 3D  01 11 18 80 06 80 3C 01  <......=......<.
1050: 11 19 80 06 80 3C 00 11  18 80 06 80 3C 00 11 19  .....<......<...
1060: 80 06 80 3D 00 11 1A 80  06 80 3D 00 11 1B 80 06  ...=......=.....
1070: 80 01 91 11 02 09 00 17  80 80 BE 10 3D 00 11 0A  ............=...
1080: 80 06 80 3D 00 11 13 80  06 80 3C 00 11 17 80 06  ...=......<.....
1090: 80 3D 01 11 18 80 06 80  3D 01 11 19 80 06 80 3C  .=......=......<
10A0: 00 11 18 80 06 80 3C 00  11 19 80 06 80 3C 00 11  ......<......<..
10B0: 1A 80 06 80 3D 00 11 1B  80 06 80 01 91 11 02 09  ....=...........
10C0: 00 1C 80 80 08 11 3D 00  11 0A 80 06 80 3D 00 11  ......=......=..
10D0: 13 80 06 80 3C 00 11 17  80 06 80 3D 01 11 18 80  ....<......=....
10E0: 06 80 3D 01 11 19 80 06  80 3C 00 11 18 80 06 80  ..=......<......
10F0: 3C 00 11 19 80 06 80 3C  00 11 1A 80 06 80 3D 00  <......<......=.
1100: 11 1B 80 06 80 01 91 11  02 09 00 1D 80 80 52 11  ..............R.
1110: 3D 00 11 0A 80 06 80 3D  00 11 13 80 06 80 3D 00  =......=......=.
1120: 11 17 80 06 80 3D 01 11  18 80 06 80 3D 01 11 19  .....=......=...
1130: 80 06 80 3C 00 11 18 80  06 80 3C 00 11 19 80 06  ...<......<.....
1140: 80 3C 00 11 1A 80 06 80  3C 00 11 1B 80 06 80 01  .<......<.......
1150: 91 11 3C 00 11 0A 80 06  80 3C 00 11 13 80 06 80  ..<......<......
1160: 3C 00 11 17 80 06 80 3C  01 11 18 80 06 80 3C 01  <......<......<.
1170: 11 19 80 06 80 3C 00 11  18 80 06 80 3D 00 11 19  .....<......=...
1180: 80 06 80 3D 00 11 1A 80  06 80 3D 00 11 1B 80 06  ...=......=.....
1190: 80 1B 02 09 00 00 80 80  CE 11 3D 00 11 1C 80 06  ..........=.....
11A0: 80 3D 00 11 1D 80 06 80  3D 00 11 1E 80 06 80 3C  .=......=......<
11B0: 00 11 1F 80 06 80 3D 00  11 20 80 06 80 3D 00 11  ......=.. ...=..
11C0: 21 80 06 80 3D 00 11 22  80 06 80 01 DF 13 02 09  !...=.."........
11D0: 00 06 80 80 0A 12 3D 00  11 1C 80 06 80 3D 00 11  ......=......=..
11E0: 1D 80 06 80 3D 00 11 1E  80 06 80 3C 00 11 1F 80  ....=......<....
11F0: 06 80 3D 00 11 20 80 06  80 3D 00 11 21 80 06 80  ..=.. ...=..!...
1200: 3D 00 11 22 80 06 80 01  DF 13 02 09 00 11 80 80  =.."............
1210: 46 12 3D 00 11 1C 80 06  80 3D 00 11 1D 80 06 80  F.=......=......
1220: 3D 00 11 1E 80 06 80 3C  00 11 1F 80 06 80 3D 00  =......<......=.
1230: 11 20 80 06 80 3D 00 11  21 80 06 80 3D 00 11 22  . ...=..!...=.."
1240: 80 06 80 01 DF 13 02 09  00 0A 80 80 82 12 3C 00  ..............<.
1250: 11 1C 80 06 80 3D 00 11  1D 80 06 80 3D 00 11 1E  .....=......=...
1260: 80 06 80 3C 00 11 1F 80  06 80 3C 00 11 20 80 06  ...<......<.. ..
1270: 80 3D 00 11 21 80 06 80  3D 00 11 22 80 06 80 01  .=..!...=.."....
1280: DF 13 02 09 00 13 80 80  BE 12 3C 00 11 1C 80 06  ..........<.....
1290: 80 3D 00 11 1D 80 06 80  3D 00 11 1E 80 06 80 3C  .=......=......<
12A0: 00 11 1F 80 06 80 3C 00  11 20 80 06 80 3D 00 11  ......<.. ...=..
12B0: 21 80 06 80 3D 00 11 22  80 06 80 01 DF 13 02 09  !...=.."........
12C0: 00 17 80 80 FA 12 3C 00  11 1C 80 06 80 3C 00 11  ......<......<..
12D0: 1D 80 06 80 3D 00 11 1E  80 06 80 3C 00 11 1F 80  ....=......<....
12E0: 06 80 3C 00 11 20 80 06  80 3C 00 11 21 80 06 80  ..<.. ...<..!...
12F0: 3D 00 11 22 80 06 80 01  DF 13 02 09 00 1C 80 80  =.."............
1300: 36 13 3C 00 11 1C 80 06  80 3C 00 11 1D 80 06 80  6.<......<......
1310: 3D 00 11 1E 80 06 80 3C  00 11 1F 80 06 80 3C 00  =......<......<.
1320: 11 20 80 06 80 3C 00 11  21 80 06 80 3D 00 11 22  . ...<..!...=.."
1330: 80 06 80 01 DF 13 02 09  00 1D 80 80 72 13 3C 00  ............r.<.
1340: 11 1C 80 06 80 3C 00 11  1D 80 06 80 3C 00 11 1E  .....<......<...
1350: 80 06 80 3C 00 11 1F 80  06 80 3C 00 11 20 80 06  ...<......<.. ..
1360: 80 3C 00 11 21 80 06 80  3C 00 11 22 80 06 80 01  .<..!...<.."....
1370: DF 13 02 09 00 1E 80 80  AE 13 3C 00 11 1C 80 06  ..........<.....
1380: 80 3C 00 11 1D 80 06 80  3C 00 11 1E 80 06 80 3C  .<......<......<
1390: 00 11 1F 80 06 80 3C 00  11 20 80 06 80 3C 00 11  ......<.. ...<..
13A0: 21 80 06 80 3C 00 11 22  80 06 80 01 DF 13 3D 00  !...<.."......=.
13B0: 11 1C 80 06 80 3D 00 11  1D 80 06 80 3D 00 11 1E  .....=......=...
13C0: 80 06 80 3C 00 11 1F 80  06 80 3D 00 11 20 80 06  ...<......=.. ..
13D0: 80 3D 00 11 21 80 06 80  3D 00 11 22 80 06 80 1B  .=..!...=.."....
13E0: 02 09 00 00 80 80 23 14  3D 00 11 23 80 06 80 3D  ......#.=..#...=
13F0: 00 11 24 80 06 80 3D 00  11 0C 80 06 80 3D 01 11  ..$...=......=..
1400: 25 80 06 80 3C 01 11 1A  80 06 80 3D 01 11 1B 80  %...<......=....
1410: 06 80 3D 01 11 1F 80 06  80 3D 01 11 20 80 06 80  ..=......=.. ...
1420: 01 30 16 02 09 00 06 80  80 66 14 3D 00 11 23 80  .0.......f.=..#.
1430: 06 80 3D 00 11 24 80 06  80 3D 00 11 0C 80 06 80  ..=..$...=......
1440: 3D 01 11 25 80 06 80 3C  01 11 1A 80 06 80 3D 01  =..%...<......=.
1450: 11 1B 80 06 80 3D 01 11  1F 80 06 80 3D 01 11 20  .....=......=.. 
1460: 80 06 80 01 30 16 02 09  00 11 80 80 A9 14 3D 00  ....0.........=.
1470: 11 23 80 06 80 3D 00 11  24 80 06 80 3D 00 11 0C  .#...=..$...=...
1480: 80 06 80 3D 01 11 25 80  06 80 3C 01 11 1A 80 06  ...=..%...<.....
1490: 80 3D 01 11 1B 80 06 80  3D 01 11 1F 80 06 80 3D  .=......=......=
14A0: 01 11 20 80 06 80 01 30  16 02 09 00 0A 80 80 EC  .. ....0........
14B0: 14 3C 00 11 23 80 06 80  3D 00 11 24 80 06 80 3D  .<..#...=..$...=
14C0: 00 11 0C 80 06 80 3D 01  11 25 80 06 80 3D 01 11  ......=..%...=..
14D0: 1A 80 06 80 3C 01 11 1B  80 06 80 3D 01 11 1F 80  ....<......=....
14E0: 06 80 3D 01 11 20 80 06  80 01 30 16 02 09 00 13  ..=.. ....0.....
14F0: 80 80 2F 15 3C 00 11 23  80 06 80 3D 00 11 24 80  ../.<..#...=..$.
1500: 06 80 3D 00 11 0C 80 06  80 3D 01 11 25 80 06 80  ..=......=..%...
1510: 3D 01 11 1A 80 06 80 3C  01 11 1B 80 06 80 3D 01  =......<......=.
1520: 11 1F 80 06 80 3D 01 11  20 80 06 80 01 30 16 02  .....=.. ....0..
1530: 09 00 17 80 80 72 15 3C  00 11 23 80 06 80 3C 00  .....r.<..#...<.
1540: 11 24 80 06 80 3D 00 11  0C 80 06 80 3D 01 11 25  .$...=......=..%
1550: 80 06 80 3D 01 11 1A 80  06 80 3D 01 11 1B 80 06  ...=......=.....
1560: 80 3C 01 11 1F 80 06 80  3D 01 11 20 80 06 80 01  .<......=.. ....
1570: 30 16 02 09 00 1C 80 80  B5 15 3C 00 11 23 80 06  0.........<..#..
1580: 80 3C 00 11 24 80 06 80  3D 00 11 0C 80 06 80 3D  .<..$...=......=
1590: 01 11 25 80 06 80 3D 01  11 1A 80 06 80 3D 01 11  ..%...=......=..
15A0: 1B 80 06 80 3C 01 11 1F  80 06 80 3D 01 11 20 80  ....<......=.. .
15B0: 06 80 01 30 16 02 09 00  1D 80 80 F8 15 3C 00 11  ...0.........<..
15C0: 23 80 06 80 3C 00 11 24  80 06 80 3C 00 11 0C 80  #...<..$...<....
15D0: 06 80 3C 01 11 25 80 06  80 3D 01 11 1A 80 06 80  ..<..%...=......
15E0: 3D 01 11 1B 80 06 80 3D  01 11 1F 80 06 80 3C 01  =......=......<.
15F0: 11 20 80 06 80 01 30 16  3D 00 11 23 80 06 80 3D  . ....0.=..#...=
1600: 00 11 24 80 06 80 3D 00  11 0C 80 06 80 3D 01 11  ..$...=......=..
1610: 25 80 06 80 3C 01 11 1A  80 06 80 3D 01 11 1B 80  %...<......=....
1620: 06 80 3D 01 11 1F 80 06  80 3D 01 11 20 80 06 80  ..=......=.. ...
1630: 1B 03 01 10 0C 80 43 00  43 01 03 02 11 02 10 03  ......C.C.......
1640: 03 11 03 10 03 04 11 04  10 03 05 11 05 10 03 06  ................
1650: 11 06 10 03 07 11 07 10  03 09 11 08 10 1B 03 01  ................
1660: 10 2D 80 47 00 2E 80 2F  80 30 80 31 80 47 01 03  .-.G.../.0.1.G..
1670: 02 11 02 10 03 03 11 03  10 03 04 11 04 10 03 05  ................
1680: 11 05 10 03 06 11 06 10  03 07 11 07 10 03 09 11  ................
1690: 08 10 1B 2F 00 37 80 11  01 2F 00 38 80 11 01 2F  .../.7.../.8.../
16A0: 00 39 80 11 01 2F 00 3A  80 11 01 2F 00 3B 80 11  .9.../.:.../.;..
16B0: 01 2F 00 3C 80 11 01 2F  00 3D 80 11 01 2F 00 3E  ./.<.../.=.../.>
16C0: 80 11 01 2F 00 3F 80 11  01 2F 00 40 80 11 01 2F  .../.?.../.@.../
16D0: 00 41 80 11 01 2F 00 42  80 11 01 2F 00 43 80 11  .A.../.B.../.C..
16E0: 01 2F 00 44 80 11 01 2F  00 45 80 11 01 2F 00 46  ./.D.../.E.../.F
16F0: 80 11 01 2F 00 47 80 11  01 2F 00 48 80 11 01 2F  .../.G.../.H.../
1700: 00 49 80 11 01 2F 00 4A  80 11 01 2F 00 4B 80 11  .I.../.J.../.K..
1710: 01 2F 00 4C 80 11 01 2F  00 4D 80 11 01 2F 00 4E  ./.L.../.M.../.N
1720: 80 11 01 AC 02 37 80 11  01 AC 02 38 80 11 01 AC  .....7.....8....
1730: 02 39 80 11 01 AC 02 3A  80 11 01 AC 02 3B 80 11  .9.....:.....;..
1740: 01 AC 02 3C 80 11 01 AC  02 3D 80 11 01 AC 02 3E  ...<.....=.....>
1750: 80 11 01 AC 02 3F 80 11  01 AC 02 40 80 11 01 AC  .....?.....@....
1760: 02 41 80 11 01 AC 02 42  80 11 01 AC 02 43 80 11  .A.....B.....C..
1770: 01 AC 02 44 80 11 01 AC  02 45 80 11 01 AC 02 46  ...D.....E.....F
1780: 80 11 01 AC 02 47 80 11  01 AC 02 48 80 11 01 AC  .....G.....H....
1790: 02 49 80 11 01 AC 02 4A  80 11 01 AC 02 4B 80 11  .I.....J.....K..
17A0: 01 AC 02 4C 80 11 01 AC  02 4D 80 11 01 AC 02 4E  ...L.....M.....N
17B0: 80 11 01 AC 02 0C 80 11  01 AC 02 0D 80 11 01 AC  ................
17C0: 02 0E 80 11 01 41 00 80  06 80 02 11 02 10 02 02  .....A..........
17D0: 10 06 80 00 E0 17 29 80  0C 80 11 01 03 01 E7 17  ......).........
17E0: 29 80 0C 80 11 01 02 41  00 80 06 80 03 11 02 10  )......A........
17F0: 02 02 10 06 80 00 02 18  29 80 0D 80 11 01 03 01  ........).......
1800: 09 18 29 80 0D 80 11 01  02 41 00 80 06 80 04 11  ..)......A......
1810: 02 10 02 02 10 06 80 00  24 18 29 80 0E 80 11 01  ........$.).....
1820: 03 01 2B 18 29 80 0E 80  11 01 02 27 80 37 80 11  ..+.)......'.7..
1830: 01 02 27 80 38 80 11 01  02 27 80 39 80 11 01 02  ..'.8....'.9....
1840: 29 80 3A 80 11 01 02 27  80 3B 80 11 01 02 27 80  ).:....'.;....'.
1850: 3C 80 11 01 02 27 80 3D  80 11 01 02 29 80 3E 80  <....'.=....).>.
1860: 11 01 02 27 80 3F 80 11  01 02 27 80 40 80 11 01  ...'.?....'.@...
1870: 02 27 80 41 80 11 01 02  29 80 42 80 11 01 02 27  .'.A....).B....'
1880: 80 43 80 11 01 02 27 80  44 80 11 01 02 27 80 45  .C....'.D....'.E
1890: 80 11 01 02 29 80 46 80  11 01 02 27 80 47 80 11  ....).F....'.G..
18A0: 01 02 27 80 48 80 11 01  02 27 80 49 80 11 01 02  ..'.H....'.I....
18B0: 29 80 4A 80 11 01 02 27  80 4B 80 11 01 02 27 80  ).J....'.K....'.
18C0: 4C 80 11 01 02 27 80 4D  80 11 01 02 29 80 4E 80  L....'.M....).N.
18D0: 11 01 02 1B 42 45 32 80  F0 FF FF 7F F0 FF FF 7F  ....BE2.........
18E0: 66 64 6F 30 00 80 55 32  80 F0 FF FF 7F F0 FF FF  fdo0..U2........
18F0: 7F 66 64 6F 30 1A 5E 16  1A 73 02 45 32 80 F0 FF  .fdo0.^..s.E2...
1900: FF 7F F0 FF FF 7F 66 64  69 30 00 80 55 32 80 F0  ......fdi0..U2..
1910: FF FF 7F F0 FF FF 7F 66  64 69 30 1B 42 45 32 80  .......fdi0.BE2.
1920: F0 FF FF 7F F0 FF FF 7F  66 64 6F 30 00 80 55 32  ........fdo0..U2
1930: 80 F0 FF FF 7F F0 FF FF  7F 66 64 6F 30 03 01 10  .........fdo0...
1940: 33 80 47 00 34 80 35 80  36 80 37 80 47 01 02 02  3.G.4.5.6.7.G...
1950: 10 00 80 00 6B 19 1A AD  0A 1A 56 0A 1A 64 0A 1A  ....k.....V..d..
1960: 72 0A 1A 80 0A 1A 12 09  01 6B 19 45 32 80 F0 FF  r........k.E2...
1970: FF 7F F0 FF FF 7F 66 64  69 30 00 80 55 32 80 F0  ......fdi0..U2..
1980: FF FF 7F F0 FF FF 7F 66  64 69 30 1B 1A F5 19 02  .......fdi0.....
1990: 09 00 00 80 01 98 19 1B  3C 00 11 02 10 06 80 1A  ........<.......
19A0: 73 02 1B 1A F5 19 02 09  00 00 80 01 AF 19 1B 3D  s..............=
19B0: 00 11 02 10 06 80 1A 73  02 1B 03 09 00 02 10 03  .......s........
19C0: 01 10 11 80 40 1E 80 2A  80 01 10 02 10 02 0A 00  ....@..*........
19D0: 00 80 00 DF 19 3C 01 10  2A 80 06 80 01 E6 19 3D  .....<..*......=
19E0: 01 10 2A 80 06 80 43 00  43 01 03 00 11 02 10 03  ..*...C.C.......
19F0: 09 00 00 80 1B 02 02 10  00 80 03 06 1A 03 09 00  ................
1A00: 38 80 1B 01 1C 1A 02 02  10 2A 80 02 17 1A 03 09  8........*......
1A10: 00 38 80 1B 01 1C 1A 03  09 00 00 80 1B 02 10 03  .8..............
1A20: 10 04 10 05 10 06 10 07  10 08 10 09 10 00 17 01  ................
1A30: 17 02 17 03 17 04 17 05  17 06 17 07 17 08 17 09  ................
1A40: 17 0A 17 0B 17 0C 17 0D  17 0E 17 0F 17 10 17 11  ................
1A50: 17 12 17 13 17 14 17 15  17 16 17 17 17 18 17 19  ................
1A60: 17 1A 17 1B 17 1C 17 1D  17 1E 17 1F 17 00 80 00  ................
1A70: 80 00 80 00 80 00 80 00  80 00 80 00 80           .............   
```

#### Opcodes

```
  0: 0x0008 [0x01] GOTO 0x0264

SUBROUTINE_0264:
  1: 0x0264 [0x42] SET_CLI_EVENT_CANCEL_DATA()
  2: 0x0265 [0x40] SET_BIT_WORK_RANGE(start_bit=0*, end_bit=3*, target=Work_Zone_Memorize[8], source=Work_Zone[2])
  3: 0x026E [0x1A] CALL_SUBROUTINE(address=0x0444)
  4: 0x0271 [0x21] END_EVENT
  5: 0x0272 [0x00] END_REQSTACK()

SUBROUTINE_0444:
  6: 0x0444 [0xAC] Arboreal Grove (ID: 17924131/0x01118023)->Render.Flags6 |= 0x02 // Set bit 1
  7: 0x044A [0xAC] Arboreal Grove (ID: 17924132/0x01118024)->Render.Flags6 |= 0x02 // Set bit 1
  8: 0x0450 [0x3E] IF !(Work_Zone_Memorize[0] bit 18*) GOTO 0x047C
  9: 0x0457 [0x3E] IF !(Work_Zone_Memorize[8] bit 0*) GOTO 0x046D
 10: 0x045E [0x4E] SET_ENTITY_HIDE_FLAG: Show Arboreal Grove (ID: 17924132/0x01118024)
 11: 0x0464 [0x4E] SET_ENTITY_HIDE_FLAG: Hide Arboreal Grove (ID: 17924131/0x01118023)
 12: 0x046A [0x01] GOTO 0x0479
 13: 0x046D [0x4E] SET_ENTITY_HIDE_FLAG: Show Arboreal Grove (ID: 17924131/0x01118023)
 14: 0x0473 [0x4E] SET_ENTITY_HIDE_FLAG: Hide Arboreal Grove (ID: 17924132/0x01118024)

SUBROUTINE_0479:
 15: 0x0479 [0x01] GOTO 0x0488
 16: 0x047C [0x4E] SET_ENTITY_HIDE_FLAG: Hide Arboreal Grove (ID: 17924131/0x01118023)
 17: 0x0482 [0x4E] SET_ENTITY_HIDE_FLAG: Hide Arboreal Grove (ID: 17924132/0x01118024)

SUBROUTINE_0488:
 18: 0x0488 [0xAC] Arboreal Grove #2 (ID: 17924133/0x01118025)->Render.Flags6 |= 0x02 // Set bit 1
 19: 0x048E [0xAC] Arboreal Grove #2 (ID: 17924134/0x01118026)->Render.Flags6 |= 0x02 // Set bit 1
 20: 0x0494 [0x3E] IF !(Work_Zone_Memorize[0] bit 19*) GOTO 0x04C0
 21: 0x049B [0x3E] IF !(Work_Zone_Memorize[8] bit 1*) GOTO 0x04B1
 22: 0x04A2 [0x4E] SET_ENTITY_HIDE_FLAG: Show Arboreal Grove #2 (ID: 17924134/0x01118026)
 23: 0x04A8 [0x4E] SET_ENTITY_HIDE_FLAG: Hide Arboreal Grove #2 (ID: 17924133/0x01118025)
 24: 0x04AE [0x01] GOTO 0x04BD
 25: 0x04B1 [0x4E] SET_ENTITY_HIDE_FLAG: Show Arboreal Grove #2 (ID: 17924133/0x01118025)
 26: 0x04B7 [0x4E] SET_ENTITY_HIDE_FLAG: Hide Arboreal Grove #2 (ID: 17924134/0x01118026)

SUBROUTINE_04BD:
 27: 0x04BD [0x01] GOTO 0x04CC
 28: 0x04C0 [0x4E] SET_ENTITY_HIDE_FLAG: Hide Arboreal Grove #2 (ID: 17924133/0x01118025)
 29: 0x04C6 [0x4E] SET_ENTITY_HIDE_FLAG: Hide Arboreal Grove #2 (ID: 17924134/0x01118026)

SUBROUTINE_04CC:
 30: 0x04CC [0xAC] Arboreal Grove #3 (ID: 17924135/0x01118027)->Render.Flags6 |= 0x02 // Set bit 1
 31: 0x04D2 [0xAC] Arboreal Grove #3 (ID: 17924136/0x01118028)->Render.Flags6 |= 0x02 // Set bit 1
 32: 0x04D8 [0x3E] IF !(Work_Zone_Memorize[0] bit 20*) GOTO 0x0504
 33: 0x04DF [0x3E] IF !(Work_Zone_Memorize[8] bit 2*) GOTO 0x04F5
 34: 0x04E6 [0x4E] SET_ENTITY_HIDE_FLAG: Show Arboreal Grove #3 (ID: 17924136/0x01118028)
 35: 0x04EC [0x4E] SET_ENTITY_HIDE_FLAG: Hide Arboreal Grove #3 (ID: 17924135/0x01118027)
 36: 0x04F2 [0x01] GOTO 0x0501
 37: 0x04F5 [0x4E] SET_ENTITY_HIDE_FLAG: Show Arboreal Grove #3 (ID: 17924135/0x01118027)
 38: 0x04FB [0x4E] SET_ENTITY_HIDE_FLAG: Hide Arboreal Grove #3 (ID: 17924136/0x01118028)

SUBROUTINE_0501:
 39: 0x0501 [0x01] GOTO 0x0510
 40: 0x0504 [0x4E] SET_ENTITY_HIDE_FLAG: Hide Arboreal Grove #3 (ID: 17924135/0x01118027)
 41: 0x050A [0x4E] SET_ENTITY_HIDE_FLAG: Hide Arboreal Grove #3 (ID: 17924136/0x01118028)

SUBROUTINE_0510:
 42: 0x0510 [0xAC] Arboreal Grove #4 (ID: 17924137/0x01118029)->Render.Flags6 |= 0x02 // Set bit 1
 43: 0x0516 [0xAC] Arboreal Grove #4 (ID: 17924138/0x0111802A)->Render.Flags6 |= 0x02 // Set bit 1
 44: 0x051C [0x3E] IF !(Work_Zone_Memorize[0] bit 21*) GOTO 0x0548
 45: 0x0523 [0x3E] IF !(Work_Zone_Memorize[8] bit 3*) GOTO 0x0539
 46: 0x052A [0x4E] SET_ENTITY_HIDE_FLAG: Show Arboreal Grove #4 (ID: 17924138/0x0111802A)
 47: 0x0530 [0x4E] SET_ENTITY_HIDE_FLAG: Hide Arboreal Grove #4 (ID: 17924137/0x01118029)
 48: 0x0536 [0x01] GOTO 0x0545
 49: 0x0539 [0x4E] SET_ENTITY_HIDE_FLAG: Show Arboreal Grove #4 (ID: 17924137/0x01118029)
 50: 0x053F [0x4E] SET_ENTITY_HIDE_FLAG: Hide Arboreal Grove #4 (ID: 17924138/0x0111802A)

SUBROUTINE_0545:
 51: 0x0545 [0x01] GOTO 0x0554
 52: 0x0548 [0x4E] SET_ENTITY_HIDE_FLAG: Hide Arboreal Grove #4 (ID: 17924137/0x01118029)
 53: 0x054E [0x4E] SET_ENTITY_HIDE_FLAG: Hide Arboreal Grove #4 (ID: 17924138/0x0111802A)

SUBROUTINE_0554:
 54: 0x0554 [0x1C] WAIT(1* ticks)
 55: 0x0557 [0x1B] RETURN
```

#### Data or dead code:

```
# Dead code (unreachable instructions):
     0x000B [0x03] ExtData[1]->WorkLocal[2] = Work_Zone[2]
     0x0010 [0x03] ExtData[1]->WorkLocal[6] = Work_Zone[3]
     0x0015 [0x02] IF !(Work_Zone[2] == 0*) GOTO 0x002E
     0x001D [0x03] Work_Zone[2] = Work_Zone[3]
     0x0022 [0x48] [System] [7372*]:
    → "You cannot use that $0 on the grove."
     0x0025 [0x23] WAIT_FOR_DIALOG_INTERACTION
     0x0026 [0x03] Work_Zone[1] = 1073741824*
     0x002B [0x01] GOTO 0x0079
     0x002E [0x02] IF !(Work_Zone[3] == 0*) GOTO 0x006F
     0x0036 [0x03] Work_Zone[2] = ExtData[1]->WorkLocal[6]
     0x003B [0x48] [System] [7369*]:
    → "Using this new fertilizer will overpower the effects of the $0 you already spread."
     0x003E [0x23] WAIT_FOR_DIALOG_INTERACTION
     0x003F [0x03] Work_Zone[2] = ExtData[1]->WorkLocal[2]
     0x0044 [0x24] CREATE_DIALOG(message_id=7370*, default_option=0*, option_flags=0*)
    → "Use the $0? [Yes./No.]"
     0x004B [0x25] WAIT_DIALOG_SELECT()
     0x004C [0x02] IF !(Work_Zone[0] == 0*) GOTO 0x005C
     0x0054 [0x42] SET_CLI_EVENT_CANCEL_DATA()
     0x0055 [0x48] [System] [7371*]:
    → "You fertilized this spot with $0."
     0x0058 [0x23] WAIT_FOR_DIALOG_INTERACTION
     0x0059 [0x01] GOTO 0x006C
     0x005C [0x02] IF !(Work_Zone[0] == 1*) GOTO 0x006C
     0x0064 [0x03] Work_Zone[1] = 1073741824*
     0x0069 [0x01] GOTO 0x006C
     0x006C [0x01] GOTO 0x0079
     0x006F [0x42] SET_CLI_EVENT_CANCEL_DATA()
     0x0070 [0x48] [System] [7371*]:
    → "You fertilized this spot with $0."
     0x0073 [0x23] WAIT_FOR_DIALOG_INTERACTION
     0x0074 [0x03] Work_Zone[1] = 0*
     0x0079 [0x21] END_EVENT
     0x007A [0x00] END_REQSTACK()
     0x007B [0x03] ExtData[1]->WorkLocal[0] = Work_Zone[2]
     0x0080 [0x03] ExtData[1]->WorkLocal[2] = Work_Zone[3]
     0x0085 [0x03] ExtData[1]->WorkLocal[1] = Work_Zone[4]
     0x008A [0x03] ExtData[1]->WorkLocal[3] = Work_Zone[9]
     0x008F [0x4A] LocalPlayer looks at EventEntity
     0x0098 [0x48] [System] [7364*]:
    → "This grove of trees is rank $0. You can harvest from it $2 more time[/s]."
     0x009B [0x23] WAIT_FOR_DIALOG_INTERACTION
     0x009C [0x02] IF !(ExtData[1]->WorkLocal[2] <= 0*) GOTO 0x00A8
     0x00A4 [0x48] [System] [7365*]:
    → "This grove is fertilized with $1."
     0x00A7 [0x23] WAIT_FOR_DIALOG_INTERACTION
     0x00A8 [0x02] IF !(ExtData[1]->WorkLocal[1] <= 1*) GOTO 0x00C8
     0x00B0 [0x02] IF !(ExtData[1]->WorkLocal[3] == 0*) GOTO 0x00C0
     0x00B8 [0x03] ExtData[1]->WorkLocal[4] = 12*
     0x00BD [0x01] GOTO 0x00C5
     0x00C0 [0x03] ExtData[1]->WorkLocal[4] = 3*
     0x00C5 [0x01] GOTO 0x00DD
     0x00C8 [0x02] IF !(ExtData[1]->WorkLocal[3] == 0*) GOTO 0x00D8
     0x00D0 [0x03] ExtData[1]->WorkLocal[4] = 14*
     0x00D5 [0x01] GOTO 0x00DD
     0x00D8 [0x03] ExtData[1]->WorkLocal[4] = 11*
     0x00DD [0x24] CREATE_DIALOG(message_id=7366*, default_option=0*, option_flags=ExtData[1]->WorkLocal[4])
    → "What will you do? [Prune the trees./Multiple prunings./Remove weeds./Multiple removals./Nothing.]"
     0x00E4 [0x25] WAIT_DIALOG_SELECT()
     0x00E5 [0x02] IF !(Work_Zone[0] == 0*) GOTO 0x011A
     0x00ED [0x42] SET_CLI_EVENT_CANCEL_DATA()
     0x00EE [0x6E] LocalPlayer uses emote 40*
     0x00F5 [0x99] Wait for LocalPlayer animation to complete
     0x00FA [0x03] Work_Zone[1] = 0*
     0x00FF [0x43] SEND_EVENT_UPDATE: Send pending tag to server (packet 0x005B)
     0x0101 [0x43] SEND_EVENT_UPDATE: Check pending flag (skip if not pending)
     0x0103 [0x02] IF !(Work_Zone[3] == 1*) GOTO 0x0114
     0x010B [0x40] SET_BIT_WORK_RANGE(start_bit=0*, end_bit=3*, target=Work_Zone_Memorize[8], source=Work_Zone[2])
     0x0114 [0x1A] CALL_SUBROUTINE(address=0x0444)
     0x0117 [0x01] GOTO 0x0262
     0x011A [0x02] IF !(Work_Zone[0] == 1*) GOTO 0x019D
     0x0122 [0x42] SET_CLI_EVENT_CANCEL_DATA()
     0x0123 [0x06] ExtData[1]->WorkLocal[8] = 0
     0x0126 [0x06] ExtData[1]->WorkLocal[7] = 0
     0x0129 [0x6E] LocalPlayer uses emote 40*
     0x0130 [0x99] Wait for LocalPlayer animation to complete
     0x0135 [0x02] IF !(ExtData[1]->WorkLocal[7] == 0*) GOTO 0x0181
     0x013D [0x03] Work_Zone[1] = 0*
     0x0142 [0x43] SEND_EVENT_UPDATE: Send pending tag to server (packet 0x005B)
     0x0144 [0x43] SEND_EVENT_UPDATE: Check pending flag (skip if not pending)
     0x0146 [0x02] IF !(Work_Zone[6] == 0*) GOTO 0x0151
     0x014E [0x05] ExtData[1]->WorkLocal[7] = 1
     0x0151 [0x02] IF !(Work_Zone[5] == 0*) GOTO 0x015C
     0x0159 [0x05] ExtData[1]->WorkLocal[7] = 1
     0x015C [0x02] IF !(Work_Zone[4] == 0*) GOTO 0x0167
     0x0164 [0x05] ExtData[1]->WorkLocal[7] = 1
     0x0167 [0x02] IF !(Work_Zone[3] == 1*) GOTO 0x017B
     0x016F [0x40] SET_BIT_WORK_RANGE(start_bit=0*, end_bit=3*, target=Work_Zone_Memorize[8], source=Work_Zone[2])
     0x0178 [0x05] ExtData[1]->WorkLocal[7] = 1
     0x017B [0x0B] ExtData[1]->WorkLocal[8]++
     0x017E [0x01] GOTO 0x0135
     0x0181 [0x03] Work_Zone[2] = ExtData[1]->WorkLocal[8]
     0x0186 [0x02] IF !(Work_Zone[5] == 0*) GOTO 0x0194
     0x018E [0x48] [System] [7539*]:
    → "You have successfully performed that action $0 time[/s], and may no longer do so again."
     0x0191 [0x01] GOTO 0x0197
     0x0194 [0x48] [System] [7538*]:
    → "You have successfully performed that action $0 time[/s], and may do so again $3 more time[/s]."
     0x0197 [0x1A] CALL_SUBROUTINE(address=0x0444)
     0x019A [0x01] GOTO 0x0262
     0x019D [0x02] IF !(Work_Zone[0] == 2*) GOTO 0x01D2
     0x01A5 [0x42] SET_CLI_EVENT_CANCEL_DATA()
     0x01A6 [0x6E] LocalPlayer uses emote 42*
     0x01AD [0x99] Wait for LocalPlayer animation to complete
     0x01B2 [0x03] Work_Zone[1] = 0*
     0x01B7 [0x43] SEND_EVENT_UPDATE: Send pending tag to server (packet 0x005B)
     0x01B9 [0x43] SEND_EVENT_UPDATE: Check pending flag (skip if not pending)
     0x01BB [0x02] IF !(Work_Zone[3] == 1*) GOTO 0x01CC
     0x01C3 [0x40] SET_BIT_WORK_RANGE(start_bit=0*, end_bit=3*, target=Work_Zone_Memorize[8], source=Work_Zone[2])
     0x01CC [0x1A] CALL_SUBROUTINE(address=0x0444)
     0x01CF [0x01] GOTO 0x0262
     0x01D2 [0x02] IF !(Work_Zone[0] == 3*) GOTO 0x0252
     0x01DA [0x42] SET_CLI_EVENT_CANCEL_DATA()
     0x01DB [0x06] ExtData[1]->WorkLocal[7] = 0
     0x01DE [0x6E] LocalPlayer uses emote 42*
     0x01E5 [0x99] Wait for LocalPlayer animation to complete
     0x01EA [0x02] IF !(ExtData[1]->WorkLocal[7] == 0*) GOTO 0x0236
     0x01F2 [0x03] Work_Zone[1] = 0*
     0x01F7 [0x43] SEND_EVENT_UPDATE: Send pending tag to server (packet 0x005B)
     0x01F9 [0x43] SEND_EVENT_UPDATE: Check pending flag (skip if not pending)
     0x01FB [0x02] IF !(Work_Zone[6] == 0*) GOTO 0x0206
     0x0203 [0x05] ExtData[1]->WorkLocal[7] = 1
     0x0206 [0x02] IF !(Work_Zone[5] == 0*) GOTO 0x0211
     0x020E [0x05] ExtData[1]->WorkLocal[7] = 1
     0x0211 [0x02] IF !(Work_Zone[4] == 0*) GOTO 0x021C
     0x0219 [0x05] ExtData[1]->WorkLocal[7] = 1
     0x021C [0x02] IF !(Work_Zone[3] == 1*) GOTO 0x0230
     0x0224 [0x40] SET_BIT_WORK_RANGE(start_bit=0*, end_bit=3*, target=Work_Zone_Memorize[8], source=Work_Zone[2])
     0x022D [0x05] ExtData[1]->WorkLocal[7] = 1
     0x0230 [0x0B] ExtData[1]->WorkLocal[8]++
     0x0233 [0x01] GOTO 0x01EA
     0x0236 [0x03] Work_Zone[2] = ExtData[1]->WorkLocal[8]
     0x023B [0x02] IF !(Work_Zone[5] == 0*) GOTO 0x0249
     0x0243 [0x48] [System] [7539*]:
    → "You have successfully performed that action $0 time[/s], and may no longer do so again."
     0x0246 [0x01] GOTO 0x024C
     0x0249 [0x48] [System] [7538*]:
    → "You have successfully performed that action $0 time[/s], and may do so again $3 more time[/s]."
     0x024C [0x1A] CALL_SUBROUTINE(address=0x0444)
     0x024F [0x01] GOTO 0x0262
     0x0252 [0x02] IF !(Work_Zone[0] == 4*) GOTO 0x0262
     0x025A [0x03] Work_Zone[1] = 1073741824*
     0x025F [0x01] GOTO 0x0262
     0x0262 [0x21] END_EVENT
     0x0263 [0x00] END_REQSTACK()
# Dead code (unreachable instructions):
     0x0273 [0x92] Green Thumb Moogle (ID: 17924125/0x0111801D)->Render.Flags3 = Flags3  // No change (flag=0)
     0x0279 [0x1A] CALL_SUBROUTINE(address=0x0AAD)
     0x027C [0x1A] CALL_SUBROUTINE(address=0x02EA)
     0x027F [0x1A] CALL_SUBROUTINE(address=0x03AE)
     0x0282 [0x1A] CALL_SUBROUTINE(address=0x0558)
     0x0285 [0x1A] CALL_SUBROUTINE(address=0x0785)
     0x0288 [0x1A] CALL_SUBROUTINE(address=0x1693)
     0x028B [0x1A] CALL_SUBROUTINE(address=0x0793)
     0x028E [0x1A] CALL_SUBROUTINE(address=0x086F)
     0x0291 [0x1A] CALL_SUBROUTINE(address=0x08A6)
     0x0294 [0x1A] CALL_SUBROUTINE(address=0x08C9)
     0x0297 [0x1A] CALL_SUBROUTINE(address=0x08F5)
     0x029A [0x1A] CALL_SUBROUTINE(address=0x0995)
     0x029D [0x1A] CALL_SUBROUTINE(address=0x0A1F)
     0x02A0 [0x1A] CALL_SUBROUTINE(address=0x0A48)
     0x02A3 [0x1A] CALL_SUBROUTINE(address=0x0A8E)
     0x02A6 [0x1A] CALL_SUBROUTINE(address=0x06C6)
     0x02A9 [0xAC] Coastal Fishing Net (ID: 17924149/0x01118035)->Render.Flags6 |= 0x02 // Set bit 1
     0x02AF [0x1B] RETURN
     0x02B0 [0x92] Green Thumb Moogle (ID: 17924125/0x0111801D)->Render.Flags3 = Flags3  // No change (flag=0)
     0x02B6 [0x1A] CALL_SUBROUTINE(address=0x02EA)
     0x02B9 [0x1A] CALL_SUBROUTINE(address=0x03AE)
     0x02BC [0x1A] CALL_SUBROUTINE(address=0x0558)
     0x02BF [0x1A] CALL_SUBROUTINE(address=0x0785)
     0x02C2 [0x1A] CALL_SUBROUTINE(address=0x1693)
     0x02C5 [0x1A] CALL_SUBROUTINE(address=0x0793)
     0x02C8 [0x1A] CALL_SUBROUTINE(address=0x086F)
     0x02CB [0x1A] CALL_SUBROUTINE(address=0x08A6)
     0x02CE [0x1A] CALL_SUBROUTINE(address=0x08C9)
     0x02D1 [0x1A] CALL_SUBROUTINE(address=0x08F5)
     0x02D4 [0x1A] CALL_SUBROUTINE(address=0x0995)
     0x02D7 [0x1A] CALL_SUBROUTINE(address=0x0A1F)
     0x02DA [0x1A] CALL_SUBROUTINE(address=0x0A48)
     0x02DD [0x1A] CALL_SUBROUTINE(address=0x0A8E)
     0x02E0 [0x1A] CALL_SUBROUTINE(address=0x06C6)
     0x02E3 [0xAC] Coastal Fishing Net (ID: 17924149/0x01118035)->Render.Flags6 |= 0x02 // Set bit 1
     0x02E9 [0x1B] RETURN
     0x02EA [0xAC] Unknown NPC (ID: 17924105/0x01118009)->Render.Flags6 |= 0x02 // Set bit 1
     0x02F0 [0x3E] IF !(Work_Zone_Memorize[0] bit 0*) GOTO 0x0301
     0x02F7 [0x27] REQ_SET(priority=0x80, entity_id=Unknown NPC (ID: 17924105/0x01118009), tag_num=0x02)
     0x02FE [0x01] GOTO 0x0308
     0x0301 [0x27] REQ_SET(priority=0x80, entity_id=Unknown NPC (ID: 17924105/0x01118009), tag_num=0x03)
     0x0308 [0xAC] Unknown NPC (ID: 17924106/0x0111800A)->Render.Flags6 |= 0x02 // Set bit 1
     0x030E [0x3E] IF !(Work_Zone_Memorize[0] bit 1*) GOTO 0x031F
     0x0315 [0x27] REQ_SET(priority=0x80, entity_id=Unknown NPC (ID: 17924106/0x0111800A), tag_num=0x02)
     0x031C [0x01] GOTO 0x0326
     0x031F [0x27] REQ_SET(priority=0x80, entity_id=Unknown NPC (ID: 17924106/0x0111800A), tag_num=0x03)
     0x0326 [0xAC] Unknown NPC (ID: 17924107/0x0111800B)->Render.Flags6 |= 0x02 // Set bit 1
     0x032C [0x3E] IF !(Work_Zone_Memorize[0] bit 2*) GOTO 0x033D
     0x0333 [0x29] REQ_SET_WAIT(priority=0x80, entity_id=Unknown NPC (ID: 17924107/0x0111800B), tag_num=0x02)
     0x033A [0x01] GOTO 0x0344
     0x033D [0x29] REQ_SET_WAIT(priority=0x80, entity_id=Unknown NPC (ID: 17924107/0x0111800B), tag_num=0x03)
     0x0344 [0x92] Garden Furrow (ID: 17924128/0x01118020)->Render.Flags3 ^= 0x01
     0x034A [0x92] Garden Furrow #2 (ID: 17924129/0x01118021)->Render.Flags3 ^= 0x01
     0x0350 [0x92] Garden Furrow #3 (ID: 17924130/0x01118022)->Render.Flags3 ^= 0x01
     0x0356 [0xAC] Garden Furrow (ID: 17924128/0x01118020)->Render.Flags6 |= 0x02 // Set bit 1
     0x035C [0x3E] IF !(Work_Zone_Memorize[0] bit 26*) GOTO 0x036C
     0x0363 [0x4E] SET_ENTITY_HIDE_FLAG: Show Garden Furrow (ID: 17924128/0x01118020)
     0x0369 [0x01] GOTO 0x0372
     0x036C [0x4E] SET_ENTITY_HIDE_FLAG: Hide Garden Furrow (ID: 17924128/0x01118020)
     0x0372 [0xAC] Garden Furrow #2 (ID: 17924129/0x01118021)->Render.Flags6 |= 0x02 // Set bit 1
     0x0378 [0x3E] IF !(Work_Zone_Memorize[0] bit 27*) GOTO 0x0388
     0x037F [0x4E] SET_ENTITY_HIDE_FLAG: Show Garden Furrow #2 (ID: 17924129/0x01118021)
     0x0385 [0x01] GOTO 0x038E
     0x0388 [0x4E] SET_ENTITY_HIDE_FLAG: Hide Garden Furrow #2 (ID: 17924129/0x01118021)
     0x038E [0xAC] Garden Furrow #3 (ID: 17924130/0x01118022)->Render.Flags6 |= 0x02 // Set bit 1
     0x0394 [0x3E] IF !(Work_Zone_Memorize[0] bit 28*) GOTO 0x03A4
     0x039B [0x4E] SET_ENTITY_HIDE_FLAG: Show Garden Furrow #3 (ID: 17924130/0x01118022)
     0x03A1 [0x01] GOTO 0x03AA
     0x03A4 [0x4E] SET_ENTITY_HIDE_FLAG: Hide Garden Furrow #3 (ID: 17924130/0x01118022)
     0x03AA [0x1C] WAIT(1* ticks)
     0x03AD [0x1B] RETURN
     0x03AE [0xAC] Unknown NPC (ID: 17924111/0x0111800F)->Render.Flags6 |= 0x02 // Set bit 1
     0x03B4 [0x3E] IF !(Work_Zone_Memorize[0] bit 3*) GOTO 0x03C5
     0x03BB [0x27] REQ_SET(priority=0x80, entity_id=Unknown NPC (ID: 17924111/0x0111800F), tag_num=0x02)
     0x03C2 [0x01] GOTO 0x03CC
     0x03C5 [0x27] REQ_SET(priority=0x80, entity_id=Unknown NPC (ID: 17924111/0x0111800F), tag_num=0x03)
     0x03CC [0xAC] Unknown NPC (ID: 17924112/0x01118010)->Render.Flags6 |= 0x02 // Set bit 1
     0x03D2 [0x3E] IF !(Work_Zone_Memorize[0] bit 4*) GOTO 0x03E3
     0x03D9 [0x27] REQ_SET(priority=0x80, entity_id=Unknown NPC (ID: 17924112/0x01118010), tag_num=0x02)
     0x03E0 [0x01] GOTO 0x03EA
     0x03E3 [0x27] REQ_SET(priority=0x80, entity_id=Unknown NPC (ID: 17924112/0x01118010), tag_num=0x03)
     0x03EA [0xAC] Unknown NPC (ID: 17924113/0x01118011)->Render.Flags6 |= 0x02 // Set bit 1
     0x03F0 [0x3E] IF !(Work_Zone_Memorize[0] bit 5*) GOTO 0x0401
     0x03F7 [0x29] REQ_SET_WAIT(priority=0x80, entity_id=Unknown NPC (ID: 17924113/0x01118011), tag_num=0x02)
     0x03FE [0x01] GOTO 0x0408
     0x0401 [0x29] REQ_SET_WAIT(priority=0x80, entity_id=Unknown NPC (ID: 17924113/0x01118011), tag_num=0x03)
     0x0408 [0xAC] Unknown NPC (ID: 17924122/0x0111801A)->Render.Flags6 |= 0x02 // Set bit 1
     0x040E [0x3E] IF !(Work_Zone_Memorize[1] bit 18*) GOTO 0x041F
     0x0415 [0x27] REQ_SET(priority=0x80, entity_id=Unknown NPC (ID: 17924122/0x0111801A), tag_num=0x02)
     0x041C [0x01] GOTO 0x0426
     0x041F [0x27] REQ_SET(priority=0x80, entity_id=Unknown NPC (ID: 17924122/0x0111801A), tag_num=0x03)
     0x0426 [0xAC] Unknown NPC (ID: 17924123/0x0111801B)->Render.Flags6 |= 0x02 // Set bit 1
     0x042C [0x3E] IF !(Work_Zone_Memorize[1] bit 19*) GOTO 0x043D
     0x0433 [0x29] REQ_SET_WAIT(priority=0x80, entity_id=Unknown NPC (ID: 17924123/0x0111801B), tag_num=0x02)
     0x043A [0x01] GOTO 0x0444
     0x043D [0x29] REQ_SET_WAIT(priority=0x80, entity_id=Unknown NPC (ID: 17924123/0x0111801B), tag_num=0x03)
# Dead code (unreachable instructions):
     0x0558 [0xAC] Unknown NPC (ID: 17924114/0x01118012)->Render.Flags6 |= 0x02 // Set bit 1
     0x055E [0x3E] IF !(Work_Zone_Memorize[0] bit 6*) GOTO 0x056F
     0x0565 [0x27] REQ_SET(priority=0x80, entity_id=Unknown NPC (ID: 17924114/0x01118012), tag_num=0x02)
     0x056C [0x01] GOTO 0x0576
     0x056F [0x27] REQ_SET(priority=0x80, entity_id=Unknown NPC (ID: 17924114/0x01118012), tag_num=0x03)
     0x0576 [0xAC] Unknown NPC (ID: 17924115/0x01118013)->Render.Flags6 |= 0x02 // Set bit 1
     0x057C [0x3E] IF !(Work_Zone_Memorize[0] bit 7*) GOTO 0x058D
     0x0583 [0x27] REQ_SET(priority=0x80, entity_id=Unknown NPC (ID: 17924115/0x01118013), tag_num=0x02)
     0x058A [0x01] GOTO 0x0594
     0x058D [0x27] REQ_SET(priority=0x80, entity_id=Unknown NPC (ID: 17924115/0x01118013), tag_num=0x03)
     0x0594 [0xAC] Unknown NPC (ID: 17924116/0x01118014)->Render.Flags6 |= 0x02 // Set bit 1
     0x059A [0x3E] IF !(Work_Zone_Memorize[0] bit 8*) GOTO 0x05AB
     0x05A1 [0x29] REQ_SET_WAIT(priority=0x80, entity_id=Unknown NPC (ID: 17924116/0x01118014), tag_num=0x02)
     0x05A8 [0x01] GOTO 0x05B2
     0x05AB [0x29] REQ_SET_WAIT(priority=0x80, entity_id=Unknown NPC (ID: 17924116/0x01118014), tag_num=0x03)
     0x05B2 [0xAC] Mineral Vein (ID: 17924139/0x0111802B)->Render.Flags6 |= 0x02 // Set bit 1
     0x05B8 [0xAC] Mineral Vein (ID: 17924140/0x0111802C)->Render.Flags6 |= 0x02 // Set bit 1
     0x05BE [0x3E] IF !(Work_Zone_Memorize[0] bit 22*) GOTO 0x05EA
     0x05C5 [0x3E] IF !(Work_Zone_Memorize[8] bit 4*) GOTO 0x05DB
     0x05CC [0x4E] SET_ENTITY_HIDE_FLAG: Show Mineral Vein (ID: 17924140/0x0111802C)
     0x05D2 [0x4E] SET_ENTITY_HIDE_FLAG: Hide Mineral Vein (ID: 17924139/0x0111802B)
     0x05D8 [0x01] GOTO 0x05E7
     0x05DB [0x4E] SET_ENTITY_HIDE_FLAG: Show Mineral Vein (ID: 17924139/0x0111802B)
     0x05E1 [0x4E] SET_ENTITY_HIDE_FLAG: Hide Mineral Vein (ID: 17924140/0x0111802C)
     0x05E7 [0x01] GOTO 0x05F6
     0x05EA [0x4E] SET_ENTITY_HIDE_FLAG: Hide Mineral Vein (ID: 17924139/0x0111802B)
     0x05F0 [0x4E] SET_ENTITY_HIDE_FLAG: Hide Mineral Vein (ID: 17924140/0x0111802C)
     0x05F6 [0xAC] Mineral Vein #2 (ID: 17924141/0x0111802D)->Render.Flags6 |= 0x02 // Set bit 1
     0x05FC [0xAC] Mineral Vein #2 (ID: 17924142/0x0111802E)->Render.Flags6 |= 0x02 // Set bit 1
     0x0602 [0x3E] IF !(Work_Zone_Memorize[0] bit 23*) GOTO 0x062E
     0x0609 [0x3E] IF !(Work_Zone_Memorize[8] bit 5*) GOTO 0x061F
     0x0610 [0x4E] SET_ENTITY_HIDE_FLAG: Show Mineral Vein #2 (ID: 17924142/0x0111802E)
     0x0616 [0x4E] SET_ENTITY_HIDE_FLAG: Hide Mineral Vein #2 (ID: 17924141/0x0111802D)
     0x061C [0x01] GOTO 0x062B
     0x061F [0x4E] SET_ENTITY_HIDE_FLAG: Show Mineral Vein #2 (ID: 17924141/0x0111802D)
     0x0625 [0x4E] SET_ENTITY_HIDE_FLAG: Hide Mineral Vein #2 (ID: 17924142/0x0111802E)
     0x062B [0x01] GOTO 0x063A
     0x062E [0x4E] SET_ENTITY_HIDE_FLAG: Hide Mineral Vein #2 (ID: 17924141/0x0111802D)
     0x0634 [0x4E] SET_ENTITY_HIDE_FLAG: Hide Mineral Vein #2 (ID: 17924142/0x0111802E)
     0x063A [0xAC] Mineral Vein #3 (ID: 17924143/0x0111802F)->Render.Flags6 |= 0x02 // Set bit 1
     0x0640 [0xAC] Mineral Vein #3 (ID: 17924144/0x01118030)->Render.Flags6 |= 0x02 // Set bit 1
     0x0646 [0x3E] IF !(Work_Zone_Memorize[0] bit 24*) GOTO 0x0672
     0x064D [0x3E] IF !(Work_Zone_Memorize[8] bit 6*) GOTO 0x0663
     0x0654 [0x4E] SET_ENTITY_HIDE_FLAG: Show Mineral Vein #3 (ID: 17924144/0x01118030)
     0x065A [0x4E] SET_ENTITY_HIDE_FLAG: Hide Mineral Vein #3 (ID: 17924143/0x0111802F)
     0x0660 [0x01] GOTO 0x066F
     0x0663 [0x4E] SET_ENTITY_HIDE_FLAG: Show Mineral Vein #3 (ID: 17924143/0x0111802F)
     0x0669 [0x4E] SET_ENTITY_HIDE_FLAG: Hide Mineral Vein #3 (ID: 17924144/0x01118030)
     0x066F [0x01] GOTO 0x067E
     0x0672 [0x4E] SET_ENTITY_HIDE_FLAG: Hide Mineral Vein #3 (ID: 17924143/0x0111802F)
     0x0678 [0x4E] SET_ENTITY_HIDE_FLAG: Hide Mineral Vein #3 (ID: 17924144/0x01118030)
     0x067E [0xAC] Mineral Vein #4 (ID: 17924145/0x01118031)->Render.Flags6 |= 0x02 // Set bit 1
     0x0684 [0xAC] Mineral Vein #4 (ID: 17924146/0x01118032)->Render.Flags6 |= 0x02 // Set bit 1
     0x068A [0x3E] IF !(Work_Zone_Memorize[0] bit 25*) GOTO 0x06B6
     0x0691 [0x3E] IF !(Work_Zone_Memorize[8] bit 7*) GOTO 0x06A7
     0x0698 [0x4E] SET_ENTITY_HIDE_FLAG: Show Mineral Vein #4 (ID: 17924146/0x01118032)
     0x069E [0x4E] SET_ENTITY_HIDE_FLAG: Hide Mineral Vein #4 (ID: 17924145/0x01118031)
     0x06A4 [0x01] GOTO 0x06B3
     0x06A7 [0x4E] SET_ENTITY_HIDE_FLAG: Show Mineral Vein #4 (ID: 17924145/0x01118031)
     0x06AD [0x4E] SET_ENTITY_HIDE_FLAG: Hide Mineral Vein #4 (ID: 17924146/0x01118032)
     0x06B3 [0x01] GOTO 0x06C2
     0x06B6 [0x4E] SET_ENTITY_HIDE_FLAG: Hide Mineral Vein #4 (ID: 17924145/0x01118031)
     0x06BC [0x4E] SET_ENTITY_HIDE_FLAG: Hide Mineral Vein #4 (ID: 17924146/0x01118032)
     0x06C2 [0x1C] WAIT(1* ticks)
     0x06C5 [0x1B] RETURN
     0x06C6 [0x92] Coastal Fishing Net (ID: 17924149/0x01118035)->Render.Flags3 ^= 0x01
     0x06CC [0xAC] Unknown NPC (ID: 17924117/0x01118015)->Render.Flags6 |= 0x02 // Set bit 1
     0x06D2 [0x3E] IF !(Work_Zone_Memorize[0] bit 9*) GOTO 0x06E3
     0x06D9 [0x27] REQ_SET(priority=0x80, entity_id=Unknown NPC (ID: 17924117/0x01118015), tag_num=0x02)
     0x06E0 [0x01] GOTO 0x06EA
     0x06E3 [0x27] REQ_SET(priority=0x80, entity_id=Unknown NPC (ID: 17924117/0x01118015), tag_num=0x03)
     0x06EA [0xAC] Unknown NPC (ID: 17924118/0x01118016)->Render.Flags6 |= 0x02 // Set bit 1
     0x06F0 [0x3E] IF !(Work_Zone_Memorize[0] bit 10*) GOTO 0x0701
     0x06F7 [0x27] REQ_SET(priority=0x80, entity_id=Unknown NPC (ID: 17924118/0x01118016), tag_num=0x02)
     0x06FE [0x01] GOTO 0x0708
     0x0701 [0x27] REQ_SET(priority=0x80, entity_id=Unknown NPC (ID: 17924118/0x01118016), tag_num=0x03)
     0x0708 [0xAC] Unknown NPC (ID: 17924119/0x01118017)->Render.Flags6 |= 0x02 // Set bit 1
     0x070E [0x3E] IF !(Work_Zone_Memorize[0] bit 11*) GOTO 0x071F
     0x0715 [0x27] REQ_SET(priority=0x80, entity_id=Unknown NPC (ID: 17924119/0x01118017), tag_num=0x02)
     0x071C [0x01] GOTO 0x0726
     0x071F [0x27] REQ_SET(priority=0x80, entity_id=Unknown NPC (ID: 17924119/0x01118017), tag_num=0x03)
     0x0726 [0xAC] Unknown NPC (ID: 17924120/0x01118018)->Render.Flags6 |= 0x02 // Set bit 1
     0x072C [0x3E] IF !(Work_Zone_Memorize[1] bit 17*) GOTO 0x073D
     0x0733 [0x29] REQ_SET_WAIT(priority=0x80, entity_id=Unknown NPC (ID: 17924120/0x01118018), tag_num=0x02)
     0x073A [0x01] GOTO 0x0744
     0x073D [0x29] REQ_SET_WAIT(priority=0x80, entity_id=Unknown NPC (ID: 17924120/0x01118018), tag_num=0x03)
     0x0744 [0x3E] IF !(Work_Zone_Memorize[1] bit 20*) GOTO 0x0754
     0x074B [0x60] ZONE_SET_ACTION: Set zone action with param 0x6E6F3069
     0x0751 [0x01] GOTO 0x0754
     0x0754 [0x3E] IF !(Work_Zone_Memorize[1] bit 21*) GOTO 0x0764
     0x075B [0x60] ZONE_SET_ACTION: Set zone action with param 0x6E6F3169
     0x0761 [0x01] GOTO 0x0764
     0x0764 [0x3E] IF !(Work_Zone_Memorize[1] bit 22*) GOTO 0x0774
     0x076B [0x60] ZONE_SET_ACTION: Set zone action with param 0x6E6F3269
     0x0771 [0x01] GOTO 0x0774
     0x0774 [0x3E] IF !(Work_Zone_Memorize[1] bit 23*) GOTO 0x0784
     0x077B [0x60] ZONE_SET_ACTION: Set zone action with param 0x6E6F3369
     0x0781 [0x01] GOTO 0x0784
     0x0784 [0x1B] RETURN
     0x0785 [0xAC] Coastal Fishing Net (ID: 17924149/0x01118035)->Render.Flags6 |= 0x02 // Set bit 1
     0x078B [0x29] REQ_SET_WAIT(priority=0x08, entity_id=Coastal Fishing Net (ID: 17924149/0x01118035), tag_num=0x04)
     0x0792 [0x1B] RETURN
     0x0793 [0x92] Kuyin Hathdenna (ID: 17924183/0x01118057)->Render.Flags3 = Flags3  // No change (flag=0)
     0x0799 [0x92] Kuyin Hathdenna (ID: 17924202/0x0111806A)->Render.Flags3 = Flags3  // No change (flag=0)
     0x079F [0x92] Susuroon (ID: 17924184/0x01118058)->Render.Flags3 = Flags3  // No change (flag=0)
     0x07A5 [0x92] Susuroon (ID: 17924203/0x0111806B)->Render.Flags3 = Flags3  // No change (flag=0)
     0x07AB [0x92] Yeestog (ID: 17924185/0x01118059)->Render.Flags3 = Flags3  // No change (flag=0)
     0x07B1 [0x92] Yeestog (ID: 17924204/0x0111806C)->Render.Flags3 = Flags3  // No change (flag=0)
     0x07B7 [0xAC] Kuyin Hathdenna (ID: 17924183/0x01118057)->Render.Flags6 |= 0x02 // Set bit 1
     0x07BD [0x3E] IF !(Work_Zone_Memorize[0] bit 12*) GOTO 0x07CE
     0x07C4 [0x27] REQ_SET(priority=0x08, entity_id=Kuyin Hathdenna (ID: 17924183/0x01118057), tag_num=0x02)
     0x07CB [0x01] GOTO 0x07D5
     0x07CE [0x27] REQ_SET(priority=0x08, entity_id=Kuyin Hathdenna (ID: 17924183/0x01118057), tag_num=0x03)
     0x07D5 [0xAC] Kuyin Hathdenna (ID: 17924202/0x0111806A)->Render.Flags6 |= 0x02 // Set bit 1
     0x07DB [0x3E] IF !(Work_Zone_Memorize[0] bit 13*) GOTO 0x07EC
     0x07E2 [0x27] REQ_SET(priority=0x08, entity_id=Kuyin Hathdenna (ID: 17924202/0x0111806A), tag_num=0x02)
     0x07E9 [0x01] GOTO 0x07F3
     0x07EC [0x27] REQ_SET(priority=0x08, entity_id=Kuyin Hathdenna (ID: 17924202/0x0111806A), tag_num=0x03)
     0x07F3 [0xAC] Susuroon (ID: 17924184/0x01118058)->Render.Flags6 |= 0x02 // Set bit 1
     0x07F9 [0x3E] IF !(Work_Zone_Memorize[0] bit 14*) GOTO 0x080A
     0x0800 [0x29] REQ_SET_WAIT(priority=0x08, entity_id=Susuroon (ID: 17924184/0x01118058), tag_num=0x02)
     0x0807 [0x01] GOTO 0x0811
     0x080A [0x29] REQ_SET_WAIT(priority=0x08, entity_id=Susuroon (ID: 17924184/0x01118058), tag_num=0x03)
     0x0811 [0xAC] Susuroon (ID: 17924203/0x0111806B)->Render.Flags6 |= 0x02 // Set bit 1
     0x0817 [0x3E] IF !(Work_Zone_Memorize[0] bit 15*) GOTO 0x0828
     0x081E [0x27] REQ_SET(priority=0x08, entity_id=Susuroon (ID: 17924203/0x0111806B), tag_num=0x02)
     0x0825 [0x01] GOTO 0x082F
     0x0828 [0x27] REQ_SET(priority=0x08, entity_id=Susuroon (ID: 17924203/0x0111806B), tag_num=0x03)
     0x082F [0xAC] Yeestog (ID: 17924185/0x01118059)->Render.Flags6 |= 0x02 // Set bit 1
     0x0835 [0x3E] IF !(Work_Zone_Memorize[0] bit 16*) GOTO 0x0846
     0x083C [0x27] REQ_SET(priority=0x08, entity_id=Yeestog (ID: 17924185/0x01118059), tag_num=0x02)
     0x0843 [0x01] GOTO 0x084D
     0x0846 [0x27] REQ_SET(priority=0x08, entity_id=Yeestog (ID: 17924185/0x01118059), tag_num=0x03)
     0x084D [0xAC] Yeestog (ID: 17924204/0x0111806C)->Render.Flags6 |= 0x02 // Set bit 1
     0x0853 [0x3E] IF !(Work_Zone_Memorize[0] bit 17*) GOTO 0x0864
     0x085A [0x29] REQ_SET_WAIT(priority=0x08, entity_id=Yeestog (ID: 17924204/0x0111806C), tag_num=0x02)
     0x0861 [0x01] GOTO 0x086B
     0x0864 [0x29] REQ_SET_WAIT(priority=0x08, entity_id=Yeestog (ID: 17924204/0x0111806C), tag_num=0x03)
     0x086B [0x1C] WAIT(1* ticks)
     0x086E [0x1B] RETURN
     0x086F [0xAC] Flotsam (ID: 17924150/0x01118036)->Render.Flags6 |= 0x02 // Set bit 1
     0x0875 [0x3E] IF !(Work_Zone_Memorize[0] bit 29*) GOTO 0x0892
     0x087C [0x2C] CREATE_SCHEDULER_TASK: Create scheduler "efon" with entities [Flotsam (ID: 17924150/0x01118036), Flotsam (ID: 17924150/0x01118036)]
     0x0889 [0xB6] ENTITY_APPEARANCE_HANDLER(case=Render.Flags2)
     0x088B [0x36] SET_ENTITY_EVENT_POSITION(pos_x=0x1180, pos_z=0x0101, pos_y=0x08A5)
     0x0892 [0x2C] CREATE_SCHEDULER_TASK: Create scheduler "efof" with entities [Flotsam (ID: 17924150/0x01118036), Flotsam (ID: 17924150/0x01118036)]
     0x089F [0xB6] ENTITY_APPEARANCE_HANDLER(case=Render.Flags2)
     0x08A1 [0x36] SET_ENTITY_EVENT_POSITION(pos_x=0x1180, pos_z=0x1B01, pos_y=0x013E)
     0x08A8 [0x11] 0* >>= 0x08BC
     0x08AD [0x4E] SET_ENTITY_HIDE_FLAG: Show Crabauble (ID: 17924209/0x01118071)
     0x08B3 [0xAC] Crabauble (ID: 17924209/0x01118071)->Render.Flags6 |= 0x02 // Set bit 1
     0x08B9 [0x01] GOTO 0x08C8
     0x08BC [0xAC] Crabauble (ID: 17924209/0x01118071)->Render.Flags6 |= 0x02 // Set bit 1
     0x08C2 [0x4E] SET_ENTITY_HIDE_FLAG: Hide Crabauble (ID: 17924209/0x01118071)
     0x08C8 [0x1B] RETURN
     0x08C9 [0xAC] Garden Strongbox (ID: 17924210/0x01118072)->Render.Flags6 |= 0x02 // Set bit 1
     0x08CF [0x3E] IF !(Work_Zone_Memorize[1] bit 1*) GOTO 0x08ED
     0x08D6 [0x3E] IF !(Work_Zone_Memorize[1] bit 3*) GOTO 0x08E4
     0x08DD [0x29] REQ_SET_WAIT(priority=0x08, entity_id=Garden Strongbox (ID: 17924210/0x01118072), tag_num=0x04)
     0x08E4 [0x4E] SET_ENTITY_HIDE_FLAG: Show Garden Strongbox (ID: 17924210/0x01118072)
     0x08EA [0x01] GOTO 0x08F4
     0x08ED [0x29] REQ_SET_WAIT(priority=0x08, entity_id=Garden Strongbox (ID: 17924210/0x01118072), tag_num=0x03)
     0x08F4 [0x1B] RETURN
     0x08F5 [0xAC] Ephemeral Moogle (ID: 17924238/0x0111808E)->Render.Flags6 |= 0x02 // Set bit 1
     0x08FB [0x3E] IF !(Work_Zone_Memorize[1] bit 25*) GOTO 0x090B
     0x0902 [0x4E] SET_ENTITY_HIDE_FLAG: Show Ephemeral Moogle (ID: 17924238/0x0111808E)
     0x0908 [0x01] GOTO 0x0911
     0x090B [0x4E] SET_ENTITY_HIDE_FLAG: Hide Ephemeral Moogle (ID: 17924238/0x0111808E)
     0x0911 [0x1B] RETURN
     0x0912 [0xAC] Unnamed NPC (ID: 17924224/0x01118080)->Render.Flags6 |= 0x02 // Set bit 1
     0x0918 [0xAC] Unnamed NPC (ID: 17924225/0x01118081)->Render.Flags6 |= 0x02 // Set bit 1
     0x091E [0xAC] Unnamed NPC (ID: 17924226/0x01118082)->Render.Flags6 |= 0x02 // Set bit 1
     0x0924 [0xAC] Unnamed NPC (ID: 17924227/0x01118083)->Render.Flags6 |= 0x02 // Set bit 1
     0x092A [0xAC] Unnamed NPC (ID: 17924228/0x01118084)->Render.Flags6 |= 0x02 // Set bit 1
     0x0930 [0x3E] IF !(Work_Zone_Memorize[1] bit 26*) GOTO 0x0976
     0x0937 [0x4E] SET_ENTITY_HIDE_FLAG: Show Unnamed NPC (ID: 17924224/0x01118080)
     0x093D [0xAC] Unnamed NPC (ID: 17924224/0x01118080)->Render.Flags6 |= 0x02 // Set bit 1
     0x0943 [0x4E] SET_ENTITY_HIDE_FLAG: Show Unnamed NPC (ID: 17924225/0x01118081)
     0x0949 [0xAC] Unnamed NPC (ID: 17924225/0x01118081)->Render.Flags6 |= 0x02 // Set bit 1
     0x094F [0x4E] SET_ENTITY_HIDE_FLAG: Show Unnamed NPC (ID: 17924226/0x01118082)
     0x0955 [0xAC] Unnamed NPC (ID: 17924226/0x01118082)->Render.Flags6 |= 0x02 // Set bit 1
     0x095B [0x4E] SET_ENTITY_HIDE_FLAG: Show Unnamed NPC (ID: 17924227/0x01118083)
     0x0961 [0xAC] Unnamed NPC (ID: 17924227/0x01118083)->Render.Flags6 |= 0x02 // Set bit 1
     0x0967 [0x4E] SET_ENTITY_HIDE_FLAG: Show Unnamed NPC (ID: 17924228/0x01118084)
     0x096D [0xAC] Unnamed NPC (ID: 17924228/0x01118084)->Render.Flags6 |= 0x02 // Set bit 1
     0x0973 [0x01] GOTO 0x0994
     0x0976 [0x4E] SET_ENTITY_HIDE_FLAG: Hide Unnamed NPC (ID: 17924224/0x01118080)
     0x097C [0x4E] SET_ENTITY_HIDE_FLAG: Hide Unnamed NPC (ID: 17924225/0x01118081)
     0x0982 [0x4E] SET_ENTITY_HIDE_FLAG: Hide Unnamed NPC (ID: 17924226/0x01118082)
     0x0988 [0x4E] SET_ENTITY_HIDE_FLAG: Hide Unnamed NPC (ID: 17924227/0x01118083)
     0x098E [0x4E] SET_ENTITY_HIDE_FLAG: Hide Unnamed NPC (ID: 17924228/0x01118084)
     0x0994 [0x1B] RETURN
     0x0995 [0xAC] ??? (ID: 17924229/0x01118085)->Render.Flags6 |= 0x02 // Set bit 1
     0x099B [0xAC] ??? (ID: 17924230/0x01118086)->Render.Flags6 |= 0x02 // Set bit 1
     0x09A1 [0x3E] IF !(Work_Zone_Memorize[1] bit 27*) GOTO 0x0A12
     0x09A8 [0x13] ExtData[1]->WorkLocal[9] = rand() % 2*
     0x09AD [0x02] IF !(ExtData[1]->WorkLocal[9] <= 2*) GOTO 0x09B8
     0x09B5 [0x06] ExtData[1]->WorkLocal[9] = 0
     0x09B8 [0x02] IF !(ExtData[1]->WorkLocal[9] == 0*) GOTO 0x09D1
     0x09C0 [0x29] REQ_SET_WAIT(priority=0x08, entity_id=??? (ID: 17924229/0x01118085), tag_num=0x02)
     0x09C7 [0x29] REQ_SET_WAIT(priority=0x08, entity_id=??? (ID: 17924230/0x01118086), tag_num=0x02)
     0x09CE [0x01] GOTO 0x0A03
     0x09D1 [0x02] IF !(ExtData[1]->WorkLocal[9] == 1*) GOTO 0x09EA
     0x09D9 [0x29] REQ_SET_WAIT(priority=0x08, entity_id=??? (ID: 17924229/0x01118085), tag_num=0x03)
     0x09E0 [0x29] REQ_SET_WAIT(priority=0x08, entity_id=??? (ID: 17924230/0x01118086), tag_num=0x03)
     0x09E7 [0x01] GOTO 0x0A03
     0x09EA [0x02] IF !(ExtData[1]->WorkLocal[9] == 2*) GOTO 0x0A03
     0x09F2 [0x29] REQ_SET_WAIT(priority=0x08, entity_id=??? (ID: 17924229/0x01118085), tag_num=0x04)
     0x09F9 [0x29] REQ_SET_WAIT(priority=0x08, entity_id=??? (ID: 17924230/0x01118086), tag_num=0x04)
     0x0A00 [0x01] GOTO 0x0A03
     0x0A03 [0x4E] SET_ENTITY_HIDE_FLAG: Show ??? (ID: 17924229/0x01118085)
     0x0A09 [0x4E] SET_ENTITY_HIDE_FLAG: Show ??? (ID: 17924230/0x01118086)
     0x0A0F [0x01] GOTO 0x0A1E
     0x0A12 [0x4E] SET_ENTITY_HIDE_FLAG: Hide ??? (ID: 17924229/0x01118085)
     0x0A18 [0x4E] SET_ENTITY_HIDE_FLAG: Hide ??? (ID: 17924230/0x01118086)
     0x0A1E [0x1B] RETURN
     0x0A1F [0xAC] Chacharoon (ID: 17924231/0x01118087)->Render.Flags6 |= 0x02 // Set bit 1
     0x0A25 [0x3E] IF !(Work_Zone_Memorize[1] bit 4*) GOTO 0x0A3B
     0x0A2C [0x4E] SET_ENTITY_HIDE_FLAG: Show Chacharoon (ID: 17924231/0x01118087)
     0x0A32 [0xAC] Chacharoon (ID: 17924231/0x01118087)->Render.Flags6 |= 0x02 // Set bit 1
     0x0A38 [0x01] GOTO 0x0A47
     0x0A3B [0xAC] Chacharoon (ID: 17924231/0x01118087)->Render.Flags6 |= 0x02 // Set bit 1
     0x0A41 [0x4E] SET_ENTITY_HIDE_FLAG: Hide Chacharoon (ID: 17924231/0x01118087)
     0x0A47 [0x1B] RETURN
     0x0A48 [0xAC] Breeding Monster (ID: 17924233/0x01118089)->Render.Flags6 |= 0x02 // Set bit 1
     0x0A4E [0x29] REQ_SET_WAIT(priority=0x08, entity_id=Breeding Monster (ID: 17924233/0x01118089), tag_num=0x04)
     0x0A55 [0x1B] RETURN
     0x0A56 [0xAC] Breeding Monster01 (ID: 17924234/0x0111808A)->Render.Flags6 |= 0x02 // Set bit 1
     0x0A5C [0x29] REQ_SET_WAIT(priority=0x08, entity_id=Breeding Monster01 (ID: 17924234/0x0111808A), tag_num=0x04)
     0x0A63 [0x1B] RETURN
     0x0A64 [0xAC] Breeding Monster02 (ID: 17924235/0x0111808B)->Render.Flags6 |= 0x02 // Set bit 1
     0x0A6A [0x29] REQ_SET_WAIT(priority=0x08, entity_id=Breeding Monster02 (ID: 17924235/0x0111808B), tag_num=0x04)
     0x0A71 [0x1B] RETURN
     0x0A72 [0xAC] Breeding Monster03 (ID: 17924236/0x0111808C)->Render.Flags6 |= 0x02 // Set bit 1
     0x0A78 [0x29] REQ_SET_WAIT(priority=0x08, entity_id=Breeding Monster03 (ID: 17924236/0x0111808C), tag_num=0x04)
     0x0A7F [0x1B] RETURN
     0x0A80 [0xAC] Breeding Monster00 (ID: 17924237/0x0111808D)->Render.Flags6 |= 0x02 // Set bit 1
     0x0A86 [0x29] REQ_SET_WAIT(priority=0x08, entity_id=Breeding Monster00 (ID: 17924237/0x0111808D), tag_num=0x04)
     0x0A8D [0x1B] RETURN
     0x0A8E [0xAC] Unnamed NPC (ID: 17924124/0x0111801C)->Render.Flags6 |= 0x02 // Set bit 1
     0x0A94 [0x3E] IF !(Work_Zone_Memorize[1] bit 24*) GOTO 0x0AA5
     0x0A9B [0x29] REQ_SET_WAIT(priority=0x80, entity_id=Unnamed NPC (ID: 17924124/0x0111801C), tag_num=0x02)
     0x0AA2 [0x01] GOTO 0x0AAC
     0x0AA5 [0x29] REQ_SET_WAIT(priority=0x80, entity_id=Unnamed NPC (ID: 17924124/0x0111801C), tag_num=0x03)
     0x0AAC [0x1B] RETURN
     0x0AAD [0x03] Work_Zone[1] = 1*
     0x0AB2 [0x43] SEND_EVENT_UPDATE: Send pending tag to server (packet 0x005B)
     0x0AB4 [0x43] SEND_EVENT_UPDATE: Check pending flag (skip if not pending)
     0x0AB6 [0x03] ExtData[1]->WorkLocal[10] = Work_Zone[2]
     0x0ABB [0x03] Work_Zone_Memorize[8] = Work_Zone[3]
     0x0AC0 [0x03] Work_Zone_Memorize[1] = Work_Zone[4]
     0x0AC5 [0x03] Work_Zone_Memorize[10] = Work_Zone[5]
     0x0ACA [0x03] Work_Zone_Memorize[11] = Work_Zone[6]
     0x0ACF [0x03] Work_Zone_Memorize[12] = Work_Zone[7]
     0x0AD4 [0x03] Work_Zone[1] = 11*
     0x0AD9 [0x43] SEND_EVENT_UPDATE: Send pending tag to server (packet 0x005B)
     0x0ADB [0x43] SEND_EVENT_UPDATE: Check pending flag (skip if not pending)
     0x0ADD [0x03] Work_Zone_Memorize[2] = Work_Zone[2]
     0x0AE2 [0x03] Work_Zone_Memorize[3] = Work_Zone[3]
     0x0AE7 [0x03] Work_Zone_Memorize[4] = Work_Zone[4]
     0x0AEC [0x03] Work_Zone_Memorize[5] = Work_Zone[5]
     0x0AF1 [0x03] Work_Zone_Memorize[6] = Work_Zone[6]
     0x0AF6 [0x03] Work_Zone_Memorize[7] = Work_Zone[7]
     0x0AFB [0x03] Work_Zone_Memorize[9] = Work_Zone[8]
     0x0B00 [0x41] ExtData[1]->WorkLocal[9] = ExtData[1]->WorkLocal[10] (bits 0*-3*)
     0x0B09 [0x1A] CALL_SUBROUTINE(address=0x0CFA)
     0x0B0C [0x41] ExtData[1]->WorkLocal[9] = ExtData[1]->WorkLocal[10] (bits 4*-7*)
     0x0B15 [0x1A] CALL_SUBROUTINE(address=0x0F02)
     0x0B18 [0x41] ExtData[1]->WorkLocal[9] = ExtData[1]->WorkLocal[10] (bits 8*-11*)
     0x0B21 [0x1A] CALL_SUBROUTINE(address=0x1192)
     0x0B24 [0x41] ExtData[1]->WorkLocal[9] = ExtData[1]->WorkLocal[10] (bits 12*-15*)
     0x0B2D [0x1A] CALL_SUBROUTINE(address=0x13E0)
     0x0B30 [0x41] ExtData[1]->WorkLocal[9] = ExtData[1]->WorkLocal[10] (bits 20*-22*)
     0x0B39 [0x1A] CALL_SUBROUTINE(address=0x0B62)
     0x0B3C [0x41] ExtData[1]->WorkLocal[9] = ExtData[1]->WorkLocal[10] (bits 31*-31*)
     0x0B45 [0x02] IF !(ExtData[1]->WorkLocal[9] == 0*) GOTO 0x0B57
     0x0B4D [0x3D] CLEAR_BIT_FLAG_CONDITIONAL(target_work_offset=Work_Zone_Memorize[0], bit_index_work_offset=29*, condition_work_offset=1*)
     0x0B54 [0x01] GOTO 0x0B5E
     0x0B57 [0x3C] SET_BIT_FLAG_CONDITIONAL(target_work_offset=Work_Zone_Memorize[0], bit_index_work_offset=29*, condition_work_offset=1*)
     0x0B5E [0x1A] CALL_SUBROUTINE(address=0x0B7C)
     0x0B61 [0x1B] RETURN
     0x0B62 [0x02] IF !(ExtData[1]->WorkLocal[9] < 3*) GOTO 0x0B74
     0x0B6A [0x3C] SET_BIT_FLAG_CONDITIONAL(target_work_offset=Work_Zone_Memorize[1], bit_index_work_offset=24*, condition_work_offset=1*)
     0x0B71 [0x01] GOTO 0x0B7B
     0x0B74 [0x3D] CLEAR_BIT_FLAG_CONDITIONAL(target_work_offset=Work_Zone_Memorize[1], bit_index_work_offset=24*, condition_work_offset=1*)
     0x0B7B [0x1B] RETURN
     0x0B7C [0x3E] IF !(Work_Zone_Memorize[8] bit 8*) GOTO 0x0BED
     0x0B83 [0x41] ExtData[1]->WorkLocal[9] = Work_Zone_Memorize[8] (bits 9*-11*)
     0x0B8C [0x02] IF !(ExtData[1]->WorkLocal[9] == 1*) GOTO 0x0BA5
     0x0B94 [0x3D] CLEAR_BIT_FLAG_CONDITIONAL(target_work_offset=Work_Zone_Memorize[0], bit_index_work_offset=12*, condition_work_offset=1*)
     0x0B9B [0x3C] SET_BIT_FLAG_CONDITIONAL(target_work_offset=Work_Zone_Memorize[0], bit_index_work_offset=13*, condition_work_offset=1*)
     0x0BA2 [0x01] GOTO 0x0BEA
     0x0BA5 [0x02] IF !(ExtData[1]->WorkLocal[9] == 4*) GOTO 0x0BBE
     0x0BAD [0x3C] SET_BIT_FLAG_CONDITIONAL(target_work_offset=Work_Zone_Memorize[0], bit_index_work_offset=12*, condition_work_offset=1*)
     0x0BB4 [0x3D] CLEAR_BIT_FLAG_CONDITIONAL(target_work_offset=Work_Zone_Memorize[0], bit_index_work_offset=13*, condition_work_offset=1*)
     0x0BBB [0x01] GOTO 0x0BEA
     0x0BBE [0x13] ExtData[1]->WorkLocal[9] = rand() % 99*
     0x0BC3 [0x02] IF !(ExtData[1]->WorkLocal[9] >= 50*) GOTO 0x0BDC
     0x0BCB [0x3D] CLEAR_BIT_FLAG_CONDITIONAL(target_work_offset=Work_Zone_Memorize[0], bit_index_work_offset=12*, condition_work_offset=1*)
     0x0BD2 [0x3C] SET_BIT_FLAG_CONDITIONAL(target_work_offset=Work_Zone_Memorize[0], bit_index_work_offset=13*, condition_work_offset=1*)
     0x0BD9 [0x01] GOTO 0x0BEA
     0x0BDC [0x3C] SET_BIT_FLAG_CONDITIONAL(target_work_offset=Work_Zone_Memorize[0], bit_index_work_offset=12*, condition_work_offset=1*)
     0x0BE3 [0x3D] CLEAR_BIT_FLAG_CONDITIONAL(target_work_offset=Work_Zone_Memorize[0], bit_index_work_offset=13*, condition_work_offset=1*)
     0x0BEA [0x01] GOTO 0x0BFB
     0x0BED [0x3D] CLEAR_BIT_FLAG_CONDITIONAL(target_work_offset=Work_Zone_Memorize[0], bit_index_work_offset=12*, condition_work_offset=1*)
     0x0BF4 [0x3D] CLEAR_BIT_FLAG_CONDITIONAL(target_work_offset=Work_Zone_Memorize[0], bit_index_work_offset=13*, condition_work_offset=1*)
     0x0BFB [0x3E] IF !(Work_Zone_Memorize[8] bit 12*) GOTO 0x0C6C
     0x0C02 [0x41] ExtData[1]->WorkLocal[9] = Work_Zone_Memorize[8] (bits 13*-15*)
     0x0C0B [0x02] IF !(ExtData[1]->WorkLocal[9] == 1*) GOTO 0x0C24
     0x0C13 [0x3C] SET_BIT_FLAG_CONDITIONAL(target_work_offset=Work_Zone_Memorize[0], bit_index_work_offset=14*, condition_work_offset=1*)
     0x0C1A [0x3D] CLEAR_BIT_FLAG_CONDITIONAL(target_work_offset=Work_Zone_Memorize[0], bit_index_work_offset=15*, condition_work_offset=1*)
     0x0C21 [0x01] GOTO 0x0C69
     0x0C24 [0x02] IF !(ExtData[1]->WorkLocal[9] == 5*) GOTO 0x0C3D
     0x0C2C [0x3D] CLEAR_BIT_FLAG_CONDITIONAL(target_work_offset=Work_Zone_Memorize[0], bit_index_work_offset=14*, condition_work_offset=1*)
     0x0C33 [0x3C] SET_BIT_FLAG_CONDITIONAL(target_work_offset=Work_Zone_Memorize[0], bit_index_work_offset=15*, condition_work_offset=1*)
     0x0C3A [0x01] GOTO 0x0C69
     0x0C3D [0x13] ExtData[1]->WorkLocal[9] = rand() % 99*
     0x0C42 [0x02] IF !(ExtData[1]->WorkLocal[9] >= 50*) GOTO 0x0C5B
     0x0C4A [0x3C] SET_BIT_FLAG_CONDITIONAL(target_work_offset=Work_Zone_Memorize[0], bit_index_work_offset=14*, condition_work_offset=1*)
     0x0C51 [0x3D] CLEAR_BIT_FLAG_CONDITIONAL(target_work_offset=Work_Zone_Memorize[0], bit_index_work_offset=15*, condition_work_offset=1*)
     0x0C58 [0x01] GOTO 0x0C69
     0x0C5B [0x3D] CLEAR_BIT_FLAG_CONDITIONAL(target_work_offset=Work_Zone_Memorize[0], bit_index_work_offset=14*, condition_work_offset=1*)
     0x0C62 [0x3C] SET_BIT_FLAG_CONDITIONAL(target_work_offset=Work_Zone_Memorize[0], bit_index_work_offset=15*, condition_work_offset=1*)
     0x0C69 [0x01] GOTO 0x0C7A
     0x0C6C [0x3D] CLEAR_BIT_FLAG_CONDITIONAL(target_work_offset=Work_Zone_Memorize[0], bit_index_work_offset=14*, condition_work_offset=1*)
     0x0C73 [0x3D] CLEAR_BIT_FLAG_CONDITIONAL(target_work_offset=Work_Zone_Memorize[0], bit_index_work_offset=15*, condition_work_offset=1*)
     0x0C7A [0x3E] IF !(Work_Zone_Memorize[8] bit 16*) GOTO 0x0CEB
     0x0C81 [0x41] ExtData[1]->WorkLocal[9] = Work_Zone_Memorize[8] (bits 17*-19*)
     0x0C8A [0x02] IF !(ExtData[1]->WorkLocal[9] == 3*) GOTO 0x0CA3
     0x0C92 [0x3C] SET_BIT_FLAG_CONDITIONAL(target_work_offset=Work_Zone_Memorize[0], bit_index_work_offset=16*, condition_work_offset=1*)
     0x0C99 [0x3D] CLEAR_BIT_FLAG_CONDITIONAL(target_work_offset=Work_Zone_Memorize[0], bit_index_work_offset=17*, condition_work_offset=1*)
     0x0CA0 [0x01] GOTO 0x0CE8
     0x0CA3 [0x02] IF !(ExtData[1]->WorkLocal[9] == 2*) GOTO 0x0CBC
     0x0CAB [0x3D] CLEAR_BIT_FLAG_CONDITIONAL(target_work_offset=Work_Zone_Memorize[0], bit_index_work_offset=16*, condition_work_offset=1*)
     0x0CB2 [0x3C] SET_BIT_FLAG_CONDITIONAL(target_work_offset=Work_Zone_Memorize[0], bit_index_work_offset=17*, condition_work_offset=1*)
     0x0CB9 [0x01] GOTO 0x0CE8
     0x0CBC [0x13] ExtData[1]->WorkLocal[9] = rand() % 99*
     0x0CC1 [0x02] IF !(ExtData[1]->WorkLocal[9] >= 50*) GOTO 0x0CDA
     0x0CC9 [0x3C] SET_BIT_FLAG_CONDITIONAL(target_work_offset=Work_Zone_Memorize[0], bit_index_work_offset=16*, condition_work_offset=1*)
     0x0CD0 [0x3D] CLEAR_BIT_FLAG_CONDITIONAL(target_work_offset=Work_Zone_Memorize[0], bit_index_work_offset=17*, condition_work_offset=1*)
     0x0CD7 [0x01] GOTO 0x0CE8
     0x0CDA [0x3D] CLEAR_BIT_FLAG_CONDITIONAL(target_work_offset=Work_Zone_Memorize[0], bit_index_work_offset=16*, condition_work_offset=1*)
     0x0CE1 [0x3C] SET_BIT_FLAG_CONDITIONAL(target_work_offset=Work_Zone_Memorize[0], bit_index_work_offset=17*, condition_work_offset=1*)
     0x0CE8 [0x01] GOTO 0x0CF9
     0x0CEB [0x3D] CLEAR_BIT_FLAG_CONDITIONAL(target_work_offset=Work_Zone_Memorize[0], bit_index_work_offset=16*, condition_work_offset=1*)
     0x0CF2 [0x3D] CLEAR_BIT_FLAG_CONDITIONAL(target_work_offset=Work_Zone_Memorize[0], bit_index_work_offset=17*, condition_work_offset=1*)
     0x0CF9 [0x1B] RETURN
     0x0CFA [0x02] IF !(ExtData[1]->WorkLocal[9] == 0*) GOTO 0x0D2F
     0x0D02 [0x3D] CLEAR_BIT_FLAG_CONDITIONAL(target_work_offset=Work_Zone_Memorize[0], bit_index_work_offset=0*, condition_work_offset=1*)
     0x0D09 [0x3C] SET_BIT_FLAG_CONDITIONAL(target_work_offset=Work_Zone_Memorize[0], bit_index_work_offset=1*, condition_work_offset=1*)
     0x0D10 [0x3C] SET_BIT_FLAG_CONDITIONAL(target_work_offset=Work_Zone_Memorize[0], bit_index_work_offset=2*, condition_work_offset=1*)
     0x0D17 [0x3C] SET_BIT_FLAG_CONDITIONAL(target_work_offset=Work_Zone_Memorize[0], bit_index_work_offset=26*, condition_work_offset=1*)
     0x0D1E [0x3D] CLEAR_BIT_FLAG_CONDITIONAL(target_work_offset=Work_Zone_Memorize[0], bit_index_work_offset=27*, condition_work_offset=1*)
     0x0D25 [0x3D] CLEAR_BIT_FLAG_CONDITIONAL(target_work_offset=Work_Zone_Memorize[0], bit_index_work_offset=28*, condition_work_offset=1*)
     0x0D2C [0x01] GOTO 0x0F01
     0x0D2F [0x02] IF !(ExtData[1]->WorkLocal[9] == 1*) GOTO 0x0D64
     0x0D37 [0x3D] CLEAR_BIT_FLAG_CONDITIONAL(target_work_offset=Work_Zone_Memorize[0], bit_index_work_offset=0*, condition_work_offset=1*)
     0x0D3E [0x3C] SET_BIT_FLAG_CONDITIONAL(target_work_offset=Work_Zone_Memorize[0], bit_index_work_offset=1*, condition_work_offset=1*)
     0x0D45 [0x3C] SET_BIT_FLAG_CONDITIONAL(target_work_offset=Work_Zone_Memorize[0], bit_index_work_offset=2*, condition_work_offset=1*)
     0x0D4C [0x3C] SET_BIT_FLAG_CONDITIONAL(target_work_offset=Work_Zone_Memorize[0], bit_index_work_offset=26*, condition_work_offset=1*)
     0x0D53 [0x3D] CLEAR_BIT_FLAG_CONDITIONAL(target_work_offset=Work_Zone_Memorize[0], bit_index_work_offset=27*, condition_work_offset=1*)
     0x0D5A [0x3D] CLEAR_BIT_FLAG_CONDITIONAL(target_work_offset=Work_Zone_Memorize[0], bit_index_work_offset=28*, condition_work_offset=1*)
     0x0D61 [0x01] GOTO 0x0F01
     0x0D64 [0x02] IF !(ExtData[1]->WorkLocal[9] == 2*) GOTO 0x0D99
     0x0D6C [0x3D] CLEAR_BIT_FLAG_CONDITIONAL(target_work_offset=Work_Zone_Memorize[0], bit_index_work_offset=0*, condition_work_offset=1*)
     0x0D73 [0x3C] SET_BIT_FLAG_CONDITIONAL(target_work_offset=Work_Zone_Memorize[0], bit_index_work_offset=1*, condition_work_offset=1*)
     0x0D7A [0x3C] SET_BIT_FLAG_CONDITIONAL(target_work_offset=Work_Zone_Memorize[0], bit_index_work_offset=2*, condition_work_offset=1*)
     0x0D81 [0x3C] SET_BIT_FLAG_CONDITIONAL(target_work_offset=Work_Zone_Memorize[0], bit_index_work_offset=26*, condition_work_offset=1*)
     0x0D88 [0x3D] CLEAR_BIT_FLAG_CONDITIONAL(target_work_offset=Work_Zone_Memorize[0], bit_index_work_offset=27*, condition_work_offset=1*)
     0x0D8F [0x3D] CLEAR_BIT_FLAG_CONDITIONAL(target_work_offset=Work_Zone_Memorize[0], bit_index_work_offset=28*, condition_work_offset=1*)
     0x0D96 [0x01] GOTO 0x0F01
     0x0D99 [0x02] IF !(ExtData[1]->WorkLocal[9] == 3*) GOTO 0x0DCE
     0x0DA1 [0x3D] CLEAR_BIT_FLAG_CONDITIONAL(target_work_offset=Work_Zone_Memorize[0], bit_index_work_offset=0*, condition_work_offset=1*)
     0x0DA8 [0x3D] CLEAR_BIT_FLAG_CONDITIONAL(target_work_offset=Work_Zone_Memorize[0], bit_index_work_offset=1*, condition_work_offset=1*)
     0x0DAF [0x3C] SET_BIT_FLAG_CONDITIONAL(target_work_offset=Work_Zone_Memorize[0], bit_index_work_offset=2*, condition_work_offset=1*)
     0x0DB6 [0x3C] SET_BIT_FLAG_CONDITIONAL(target_work_offset=Work_Zone_Memorize[0], bit_index_work_offset=26*, condition_work_offset=1*)
     0x0DBD [0x3C] SET_BIT_FLAG_CONDITIONAL(target_work_offset=Work_Zone_Memorize[0], bit_index_work_offset=27*, condition_work_offset=1*)
     0x0DC4 [0x3D] CLEAR_BIT_FLAG_CONDITIONAL(target_work_offset=Work_Zone_Memorize[0], bit_index_work_offset=28*, condition_work_offset=1*)
     0x0DCB [0x01] GOTO 0x0F01
     0x0DCE [0x02] IF !(ExtData[1]->WorkLocal[9] == 4*) GOTO 0x0E03
     0x0DD6 [0x3D] CLEAR_BIT_FLAG_CONDITIONAL(target_work_offset=Work_Zone_Memorize[0], bit_index_work_offset=0*, condition_work_offset=1*)
     0x0DDD [0x3D] CLEAR_BIT_FLAG_CONDITIONAL(target_work_offset=Work_Zone_Memorize[0], bit_index_work_offset=1*, condition_work_offset=1*)
     0x0DE4 [0x3C] SET_BIT_FLAG_CONDITIONAL(target_work_offset=Work_Zone_Memorize[0], bit_index_work_offset=2*, condition_work_offset=1*)
     0x0DEB [0x3C] SET_BIT_FLAG_CONDITIONAL(target_work_offset=Work_Zone_Memorize[0], bit_index_work_offset=26*, condition_work_offset=1*)
     0x0DF2 [0x3C] SET_BIT_FLAG_CONDITIONAL(target_work_offset=Work_Zone_Memorize[0], bit_index_work_offset=27*, condition_work_offset=1*)
     0x0DF9 [0x3D] CLEAR_BIT_FLAG_CONDITIONAL(target_work_offset=Work_Zone_Memorize[0], bit_index_work_offset=28*, condition_work_offset=1*)
     0x0E00 [0x01] GOTO 0x0F01
     0x0E03 [0x02] IF !(ExtData[1]->WorkLocal[9] == 5*) GOTO 0x0E38
     0x0E0B [0x3D] CLEAR_BIT_FLAG_CONDITIONAL(target_work_offset=Work_Zone_Memorize[0], bit_index_work_offset=0*, condition_work_offset=1*)
     0x0E12 [0x3D] CLEAR_BIT_FLAG_CONDITIONAL(target_work_offset=Work_Zone_Memorize[0], bit_index_work_offset=1*, condition_work_offset=1*)
     0x0E19 [0x3D] CLEAR_BIT_FLAG_CONDITIONAL(target_work_offset=Work_Zone_Memorize[0], bit_index_work_offset=2*, condition_work_offset=1*)
     0x0E20 [0x3C] SET_BIT_FLAG_CONDITIONAL(target_work_offset=Work_Zone_Memorize[0], bit_index_work_offset=26*, condition_work_offset=1*)
     0x0E27 [0x3C] SET_BIT_FLAG_CONDITIONAL(target_work_offset=Work_Zone_Memorize[0], bit_index_work_offset=27*, condition_work_offset=1*)
     0x0E2E [0x3C] SET_BIT_FLAG_CONDITIONAL(target_work_offset=Work_Zone_Memorize[0], bit_index_work_offset=28*, condition_work_offset=1*)
     0x0E35 [0x01] GOTO 0x0F01
     0x0E38 [0x02] IF !(ExtData[1]->WorkLocal[9] == 6*) GOTO 0x0E6D
     0x0E40 [0x3D] CLEAR_BIT_FLAG_CONDITIONAL(target_work_offset=Work_Zone_Memorize[0], bit_index_work_offset=0*, condition_work_offset=1*)
     0x0E47 [0x3D] CLEAR_BIT_FLAG_CONDITIONAL(target_work_offset=Work_Zone_Memorize[0], bit_index_work_offset=1*, condition_work_offset=1*)
     0x0E4E [0x3D] CLEAR_BIT_FLAG_CONDITIONAL(target_work_offset=Work_Zone_Memorize[0], bit_index_work_offset=2*, condition_work_offset=1*)
     0x0E55 [0x3C] SET_BIT_FLAG_CONDITIONAL(target_work_offset=Work_Zone_Memorize[0], bit_index_work_offset=26*, condition_work_offset=1*)
     0x0E5C [0x3C] SET_BIT_FLAG_CONDITIONAL(target_work_offset=Work_Zone_Memorize[0], bit_index_work_offset=27*, condition_work_offset=1*)
     0x0E63 [0x3C] SET_BIT_FLAG_CONDITIONAL(target_work_offset=Work_Zone_Memorize[0], bit_index_work_offset=28*, condition_work_offset=1*)
     0x0E6A [0x01] GOTO 0x0F01
     0x0E6D [0x02] IF !(ExtData[1]->WorkLocal[9] == 7*) GOTO 0x0EA2
     0x0E75 [0x3D] CLEAR_BIT_FLAG_CONDITIONAL(target_work_offset=Work_Zone_Memorize[0], bit_index_work_offset=0*, condition_work_offset=1*)
     0x0E7C [0x3D] CLEAR_BIT_FLAG_CONDITIONAL(target_work_offset=Work_Zone_Memorize[0], bit_index_work_offset=1*, condition_work_offset=1*)
     0x0E83 [0x3D] CLEAR_BIT_FLAG_CONDITIONAL(target_work_offset=Work_Zone_Memorize[0], bit_index_work_offset=2*, condition_work_offset=1*)
     0x0E8A [0x3C] SET_BIT_FLAG_CONDITIONAL(target_work_offset=Work_Zone_Memorize[0], bit_index_work_offset=26*, condition_work_offset=1*)
     0x0E91 [0x3C] SET_BIT_FLAG_CONDITIONAL(target_work_offset=Work_Zone_Memorize[0], bit_index_work_offset=27*, condition_work_offset=1*)
     0x0E98 [0x3C] SET_BIT_FLAG_CONDITIONAL(target_work_offset=Work_Zone_Memorize[0], bit_index_work_offset=28*, condition_work_offset=1*)
     0x0E9F [0x01] GOTO 0x0F01
     0x0EA2 [0x02] IF !(ExtData[1]->WorkLocal[9] == 8*) GOTO 0x0ED7
     0x0EAA [0x3D] CLEAR_BIT_FLAG_CONDITIONAL(target_work_offset=Work_Zone_Memorize[0], bit_index_work_offset=0*, condition_work_offset=1*)
     0x0EB1 [0x3D] CLEAR_BIT_FLAG_CONDITIONAL(target_work_offset=Work_Zone_Memorize[0], bit_index_work_offset=1*, condition_work_offset=1*)
     0x0EB8 [0x3D] CLEAR_BIT_FLAG_CONDITIONAL(target_work_offset=Work_Zone_Memorize[0], bit_index_work_offset=2*, condition_work_offset=1*)
     0x0EBF [0x3C] SET_BIT_FLAG_CONDITIONAL(target_work_offset=Work_Zone_Memorize[0], bit_index_work_offset=26*, condition_work_offset=1*)
     0x0EC6 [0x3C] SET_BIT_FLAG_CONDITIONAL(target_work_offset=Work_Zone_Memorize[0], bit_index_work_offset=27*, condition_work_offset=1*)
     0x0ECD [0x3C] SET_BIT_FLAG_CONDITIONAL(target_work_offset=Work_Zone_Memorize[0], bit_index_work_offset=28*, condition_work_offset=1*)
     0x0ED4 [0x01] GOTO 0x0F01
     0x0ED7 [0x3D] CLEAR_BIT_FLAG_CONDITIONAL(target_work_offset=Work_Zone_Memorize[0], bit_index_work_offset=0*, condition_work_offset=1*)
     0x0EDE [0x3C] SET_BIT_FLAG_CONDITIONAL(target_work_offset=Work_Zone_Memorize[0], bit_index_work_offset=1*, condition_work_offset=1*)
     0x0EE5 [0x3C] SET_BIT_FLAG_CONDITIONAL(target_work_offset=Work_Zone_Memorize[0], bit_index_work_offset=2*, condition_work_offset=1*)
     0x0EEC [0x3C] SET_BIT_FLAG_CONDITIONAL(target_work_offset=Work_Zone_Memorize[0], bit_index_work_offset=26*, condition_work_offset=1*)
     0x0EF3 [0x3D] CLEAR_BIT_FLAG_CONDITIONAL(target_work_offset=Work_Zone_Memorize[0], bit_index_work_offset=27*, condition_work_offset=1*)
     0x0EFA [0x3D] CLEAR_BIT_FLAG_CONDITIONAL(target_work_offset=Work_Zone_Memorize[0], bit_index_work_offset=28*, condition_work_offset=1*)
     0x0F01 [0x1B] RETURN
     0x0F02 [0x02] IF !(ExtData[1]->WorkLocal[9] == 0*) GOTO 0x0F4C
     0x0F0A [0x3C] SET_BIT_FLAG_CONDITIONAL(target_work_offset=Work_Zone_Memorize[0], bit_index_work_offset=3*, condition_work_offset=1*)
     0x0F11 [0x3C] SET_BIT_FLAG_CONDITIONAL(target_work_offset=Work_Zone_Memorize[0], bit_index_work_offset=4*, condition_work_offset=1*)
     0x0F18 [0x3C] SET_BIT_FLAG_CONDITIONAL(target_work_offset=Work_Zone_Memorize[0], bit_index_work_offset=5*, condition_work_offset=1*)
     0x0F1F [0x3C] SET_BIT_FLAG_CONDITIONAL(target_work_offset=Work_Zone_Memorize[1], bit_index_work_offset=18*, condition_work_offset=1*)
     0x0F26 [0x3C] SET_BIT_FLAG_CONDITIONAL(target_work_offset=Work_Zone_Memorize[1], bit_index_work_offset=19*, condition_work_offset=1*)
     0x0F2D [0x3C] SET_BIT_FLAG_CONDITIONAL(target_work_offset=Work_Zone_Memorize[0], bit_index_work_offset=18*, condition_work_offset=1*)
     0x0F34 [0x3D] CLEAR_BIT_FLAG_CONDITIONAL(target_work_offset=Work_Zone_Memorize[0], bit_index_work_offset=19*, condition_work_offset=1*)
     0x0F3B [0x3D] CLEAR_BIT_FLAG_CONDITIONAL(target_work_offset=Work_Zone_Memorize[0], bit_index_work_offset=20*, condition_work_offset=1*)
     0x0F42 [0x3D] CLEAR_BIT_FLAG_CONDITIONAL(target_work_offset=Work_Zone_Memorize[0], bit_index_work_offset=21*, condition_work_offset=1*)
     0x0F49 [0x01] GOTO 0x1191
     0x0F4C [0x02] IF !(ExtData[1]->WorkLocal[9] == 1*) GOTO 0x0F96
     0x0F54 [0x3C] SET_BIT_FLAG_CONDITIONAL(target_work_offset=Work_Zone_Memorize[0], bit_index_work_offset=3*, condition_work_offset=1*)
     0x0F5B [0x3C] SET_BIT_FLAG_CONDITIONAL(target_work_offset=Work_Zone_Memorize[0], bit_index_work_offset=4*, condition_work_offset=1*)
     0x0F62 [0x3C] SET_BIT_FLAG_CONDITIONAL(target_work_offset=Work_Zone_Memorize[0], bit_index_work_offset=5*, condition_work_offset=1*)
     0x0F69 [0x3C] SET_BIT_FLAG_CONDITIONAL(target_work_offset=Work_Zone_Memorize[1], bit_index_work_offset=18*, condition_work_offset=1*)
     0x0F70 [0x3C] SET_BIT_FLAG_CONDITIONAL(target_work_offset=Work_Zone_Memorize[1], bit_index_work_offset=19*, condition_work_offset=1*)
     0x0F77 [0x3C] SET_BIT_FLAG_CONDITIONAL(target_work_offset=Work_Zone_Memorize[0], bit_index_work_offset=18*, condition_work_offset=1*)
     0x0F7E [0x3D] CLEAR_BIT_FLAG_CONDITIONAL(target_work_offset=Work_Zone_Memorize[0], bit_index_work_offset=19*, condition_work_offset=1*)
     0x0F85 [0x3D] CLEAR_BIT_FLAG_CONDITIONAL(target_work_offset=Work_Zone_Memorize[0], bit_index_work_offset=20*, condition_work_offset=1*)
     0x0F8C [0x3D] CLEAR_BIT_FLAG_CONDITIONAL(target_work_offset=Work_Zone_Memorize[0], bit_index_work_offset=21*, condition_work_offset=1*)
     0x0F93 [0x01] GOTO 0x1191
     0x0F96 [0x02] IF !(ExtData[1]->WorkLocal[9] == 2*) GOTO 0x0FE0
     0x0F9E [0x3C] SET_BIT_FLAG_CONDITIONAL(target_work_offset=Work_Zone_Memorize[0], bit_index_work_offset=3*, condition_work_offset=1*)
     0x0FA5 [0x3C] SET_BIT_FLAG_CONDITIONAL(target_work_offset=Work_Zone_Memorize[0], bit_index_work_offset=4*, condition_work_offset=1*)
     0x0FAC [0x3C] SET_BIT_FLAG_CONDITIONAL(target_work_offset=Work_Zone_Memorize[0], bit_index_work_offset=5*, condition_work_offset=1*)
     0x0FB3 [0x3C] SET_BIT_FLAG_CONDITIONAL(target_work_offset=Work_Zone_Memorize[1], bit_index_work_offset=18*, condition_work_offset=1*)
     0x0FBA [0x3C] SET_BIT_FLAG_CONDITIONAL(target_work_offset=Work_Zone_Memorize[1], bit_index_work_offset=19*, condition_work_offset=1*)
     0x0FC1 [0x3C] SET_BIT_FLAG_CONDITIONAL(target_work_offset=Work_Zone_Memorize[0], bit_index_work_offset=18*, condition_work_offset=1*)
     0x0FC8 [0x3D] CLEAR_BIT_FLAG_CONDITIONAL(target_work_offset=Work_Zone_Memorize[0], bit_index_work_offset=19*, condition_work_offset=1*)
     0x0FCF [0x3D] CLEAR_BIT_FLAG_CONDITIONAL(target_work_offset=Work_Zone_Memorize[0], bit_index_work_offset=20*, condition_work_offset=1*)
     0x0FD6 [0x3D] CLEAR_BIT_FLAG_CONDITIONAL(target_work_offset=Work_Zone_Memorize[0], bit_index_work_offset=21*, condition_work_offset=1*)
     0x0FDD [0x01] GOTO 0x1191
     0x0FE0 [0x02] IF !(ExtData[1]->WorkLocal[9] == 3*) GOTO 0x102A
     0x0FE8 [0x3D] CLEAR_BIT_FLAG_CONDITIONAL(target_work_offset=Work_Zone_Memorize[0], bit_index_work_offset=3*, condition_work_offset=1*)
     0x0FEF [0x3C] SET_BIT_FLAG_CONDITIONAL(target_work_offset=Work_Zone_Memorize[0], bit_index_work_offset=4*, condition_work_offset=1*)
     0x0FF6 [0x3C] SET_BIT_FLAG_CONDITIONAL(target_work_offset=Work_Zone_Memorize[0], bit_index_work_offset=5*, condition_work_offset=1*)
     0x0FFD [0x3D] CLEAR_BIT_FLAG_CONDITIONAL(target_work_offset=Work_Zone_Memorize[1], bit_index_work_offset=18*, condition_work_offset=1*)
     0x1004 [0x3C] SET_BIT_FLAG_CONDITIONAL(target_work_offset=Work_Zone_Memorize[1], bit_index_work_offset=19*, condition_work_offset=1*)
     0x100B [0x3C] SET_BIT_FLAG_CONDITIONAL(target_work_offset=Work_Zone_Memorize[0], bit_index_work_offset=18*, condition_work_offset=1*)
     0x1012 [0x3C] SET_BIT_FLAG_CONDITIONAL(target_work_offset=Work_Zone_Memorize[0], bit_index_work_offset=19*, condition_work_offset=1*)
     0x1019 [0x3D] CLEAR_BIT_FLAG_CONDITIONAL(target_work_offset=Work_Zone_Memorize[0], bit_index_work_offset=20*, condition_work_offset=1*)
     0x1020 [0x3D] CLEAR_BIT_FLAG_CONDITIONAL(target_work_offset=Work_Zone_Memorize[0], bit_index_work_offset=21*, condition_work_offset=1*)
     0x1027 [0x01] GOTO 0x1191
     0x102A [0x02] IF !(ExtData[1]->WorkLocal[9] == 4*) GOTO 0x1074
     0x1032 [0x3D] CLEAR_BIT_FLAG_CONDITIONAL(target_work_offset=Work_Zone_Memorize[0], bit_index_work_offset=3*, condition_work_offset=1*)
     0x1039 [0x3C] SET_BIT_FLAG_CONDITIONAL(target_work_offset=Work_Zone_Memorize[0], bit_index_work_offset=4*, condition_work_offset=1*)
     0x1040 [0x3C] SET_BIT_FLAG_CONDITIONAL(target_work_offset=Work_Zone_Memorize[0], bit_index_work_offset=5*, condition_work_offset=1*)
     0x1047 [0x3D] CLEAR_BIT_FLAG_CONDITIONAL(target_work_offset=Work_Zone_Memorize[1], bit_index_work_offset=18*, condition_work_offset=1*)
     0x104E [0x3C] SET_BIT_FLAG_CONDITIONAL(target_work_offset=Work_Zone_Memorize[1], bit_index_work_offset=19*, condition_work_offset=1*)
     0x1055 [0x3C] SET_BIT_FLAG_CONDITIONAL(target_work_offset=Work_Zone_Memorize[0], bit_index_work_offset=18*, condition_work_offset=1*)
     0x105C [0x3C] SET_BIT_FLAG_CONDITIONAL(target_work_offset=Work_Zone_Memorize[0], bit_index_work_offset=19*, condition_work_offset=1*)
     0x1063 [0x3D] CLEAR_BIT_FLAG_CONDITIONAL(target_work_offset=Work_Zone_Memorize[0], bit_index_work_offset=20*, condition_work_offset=1*)
     0x106A [0x3D] CLEAR_BIT_FLAG_CONDITIONAL(target_work_offset=Work_Zone_Memorize[0], bit_index_work_offset=21*, condition_work_offset=1*)
     0x1071 [0x01] GOTO 0x1191
     0x1074 [0x02] IF !(ExtData[1]->WorkLocal[9] == 5*) GOTO 0x10BE
     0x107C [0x3D] CLEAR_BIT_FLAG_CONDITIONAL(target_work_offset=Work_Zone_Memorize[0], bit_index_work_offset=3*, condition_work_offset=1*)
     0x1083 [0x3D] CLEAR_BIT_FLAG_CONDITIONAL(target_work_offset=Work_Zone_Memorize[0], bit_index_work_offset=4*, condition_work_offset=1*)
     0x108A [0x3C] SET_BIT_FLAG_CONDITIONAL(target_work_offset=Work_Zone_Memorize[0], bit_index_work_offset=5*, condition_work_offset=1*)
     0x1091 [0x3D] CLEAR_BIT_FLAG_CONDITIONAL(target_work_offset=Work_Zone_Memorize[1], bit_index_work_offset=18*, condition_work_offset=1*)
     0x1098 [0x3D] CLEAR_BIT_FLAG_CONDITIONAL(target_work_offset=Work_Zone_Memorize[1], bit_index_work_offset=19*, condition_work_offset=1*)
