# 17924129 - Garden Furrow 2

## Common Data

| Field            | Value                |
|------------------|----------------------|
| Zone             | Mog Garden (ID: 280) |
| Block Size       | 7868 bytes           |
| Total Events     | 5                    |
| References Count | 73                   |

## List of Events

| Event ID              | Entrypoint   |   Size |   Instructions |
|-----------------------|--------------|--------|----------------|
| [65535](#event-65535) | 0x0000       |      1 |              1 |
| [65534](#event-65534) | 0x0001       |      1 |              1 |
| [1013](#event-1013)   | 0x0002       |    771 |            155 |
| [1007](#event-1007)   | 0x0305       |    244 |             32 |
| [1010](#event-1010)   | 0x03F9       |   6522 |           1103 |

## DAT References (imed_data)

|   Index | Hex Value   |   Dec Value |
|---------|-------------|-------------|
|       0 | 0x00C8      |         200 |
|       1 | 0x0000      |           0 |
|       2 | 0x0007      |           7 |
|       3 | 0x0010      |          16 |
|       4 | 0x001F      |          31 |
|       5 | 0x000F      |          15 |
|       6 | 0x0008      |           8 |
|       7 | 0x0017      |          23 |
|       8 | 0x1CA4      |        7332 |
|       9 | 0x1CA6      |        7334 |
|      10 | 0x1CA5      |        7333 |
|      11 | 0x1CA7      |        7335 |
|      12 | 0x0E10      |        3600 |
|      13 | 0x003C      |          60 |
|      14 | 0x1CAC      |        7340 |
|      15 | 0x1CAD      |        7341 |
|      16 | 0x0004      |           4 |
|      17 | 0x1CB0      |        7344 |
|      18 | 0x1CAE      |        7342 |
|      19 | 0x0001      |           1 |
|      20 | 0x1CAF      |        7343 |
|      21 | 0x0006      |           6 |
|      22 | 0x0002      |           2 |
|      23 | 0x0003      |           3 |
|      24 | 0x1CA8      |        7336 |
|      25 | 0x1CA9      |        7337 |
|      26 | 0x1CAB      |        7339 |
|      27 | 0x1CAA      |        7338 |
|      28 | 0x1CB1      |        7345 |
|      29 | 0x0012      |          18 |
|      30 | 0x1CB3      |        7347 |
|      31 | 0x1CB4      |        7348 |
|      32 | 0x1CB5      |        7349 |
|      33 | 0x0013      |          19 |
|      34 | 0x1CB6      |        7350 |
|      35 | 0x1CB7      |        7351 |
|      36 | 0x1CB8      |        7352 |
|      37 | 0x40000000  |  1073741824 |
|      38 | 0x1CBA      |        7354 |
|      39 | 0x1CBB      |        7355 |
|      40 | 0x1CBC      |        7356 |
|      41 | 0x0011      |          17 |
|      42 | 0x1CBD      |        7357 |
|      43 | 0x1CBE      |        7358 |
|      44 | 0x001A      |          26 |
|      45 | 0x001B      |          27 |
|      46 | 0x001C      |          28 |
|      47 | 0x0005      |           5 |
|      48 | 0x0014      |          20 |
|      49 | 0x0015      |          21 |
|      50 | 0x0016      |          22 |
|      51 | 0x0018      |          24 |
|      52 | 0x0019      |          25 |
|      53 | 0x0009      |           9 |
|      54 | 0x000A      |          10 |
|      55 | 0x000B      |          11 |
|      56 | 0x000C      |          12 |
|      57 | 0x000D      |          13 |
|      58 | 0x000E      |          14 |
|      59 | 0x001D      |          29 |
|      60 | 0x0063      |          99 |
|      61 | 0x0032      |          50 |
|      62 | 0x0049      |          73 |
|      63 | 0xFFFFF62B  |  4294964779 |
|      64 | 0xFFFFEC34  |  4294962228 |
|      65 | 0x01C4      |         452 |
|      66 | 0x0CF5      |        3317 |
|      67 | 0x0048      |          72 |
|      68 | 0x582C8     |      361160 |
|      69 | 0xFFF788EE  |  4294412526 |
|      70 | 0xFFFFF2F4  |  4294963956 |
|      71 | 0x064D      |        1613 |
|      72 | 0xFFFFFFFF  |  4294967295 |

## String References

- **7332**: This furrow is rank $0, but is devoid of both seeds and fertilizer.
- **7333**: This furrow is rank $0 and has $1 planted, but is devoid of fertilizer.
- **7334**: This furrow is rank $0 and is using $2 as fertilizer, but is devoid of seeds.
- **7335**: This moogle garden bed is rank $0, has $1 planted, and is using $2 as fertilizer.
- **7336**: What will you do? [Inspect the garden./Harvest crops./Uproot everything./Absolutely nothing.]
- **7337**: Nothing has been planted in this furrow. Select a seed to be sown and place it in the basket.
- **7338**: This furrow has $1 planted in it.
- **7339**: This furrow is fertilized with $2.
- **7340**: Your agrarian experience tells you that you will be able to harvest the $1 you planted in about $8 hour[/s] and $9 minute[/s] (Earth time).
- **7341**: Your agrarian experience tells you that you will be able to harvest the $1 you planted in about $9 minute[/s] (Earth time).
- **7342**: Your aggrarian experience tells you that the time for harvesting the $1 is imminent!
- **7343**: You also conclude that the seed you planted should sprout about $4 more time[/s].
- **7344**: Your $1 has matured!
- **7345**: Harvest this crop? [Yes./No.]
- **7347**: Uproot and discard the $1 you planted?
- **7348**: Uproot it? [Yes./No.]
- **7349**: You have removed the $1 from your garden.
- **7350**: Plant $0 in your garden? Beware that specific seeds cannot be planted again if uprooted later.
- **7351**: Plant the $0? [Yes./No.]
- **7352**: You have planted $0.
- **7354**: Fertilize the furrow with the $0? Beware that fertilizer cannot be recovered once used.
- **7355**: Using this new fertilizer will overpower the effects of the $2 you already spread.
- **7356**: Use the $0? [Yes./No.]
- **7357**: You have fertilized the furrow with $1.
- **7358**: You have fertilized the $0 with $1.

## Events

### Event 65535

#### Metadata

| Field        | Value   |
|--------------|---------|
| Entrypoint   | 0x0000  |
| Data Size    | 1 bytes |
| Instructions | 1       |

```
      00 01 02 03 04 05 06 07  08 09 0A 0B 0C 0D 0E 0F
      -- -- -- -- -- -- -- --  -- -- -- -- -- -- -- --
0000: 00                                                .               
```

#### Opcodes

```
  0: 0x0000 [0x00] END_REQSTACK()
```

### Event 65534

#### Metadata

| Field        | Value   |
|--------------|---------|
| Entrypoint   | 0x0001  |
| Data Size    | 1 bytes |
| Instructions | 1       |

```
      00 01 02 03 04 05 06 07  08 09 0A 0B 0C 0D 0E 0F
      -- -- -- -- -- -- -- --  -- -- -- -- -- -- -- --
0000:    00                                              .              
```

#### Opcodes

```
  0: 0x0001 [0x00] END_REQSTACK()
```

### Event 1013

#### Metadata

| Field        | Value     |
|--------------|-----------|
| Entrypoint   | 0x0002    |
| Data Size    | 771 bytes |
| Instructions | 155       |

```
      00 01 02 03 04 05 06 07  08 09 0A 0B 0C 0D 0E 0F
      -- -- -- -- -- -- -- --  -- -- -- -- -- -- -- --
0000:       42 46 01 45 00 80  F0 FF FF 7F F0 FF FF 7F    BF.E..........
0010: 66 64 6F 30 01 80 55 00  80 F0 FF FF 7F F0 FF FF  fdo0..U.........
0020: 7F 66 64 6F 30 41 01 80  02 80 02 10 00 00 41 03  .fdo0A........A.
0030: 80 04 80 02 10 0D 00 41  01 80 05 80 03 10 01 00  .......A........
0040: 41 03 80 04 80 03 10 02  00 40 06 80 05 80 09 11  A........@......
0050: 0D 00 03 07 00 05 10 03  08 00 06 10 03 0A 00 07  ................
0060: 10 03 0B 00 08 10 03 06  00 09 10 1A 30 1D 45 07  ............0.E.
0070: 80 F0 FF FF 7F F0 FF FF  7F 73 37 36 31 01 80 45  .........s761..E
0080: 00 80 F0 FF FF 7F F0 FF  FF 7F 66 64 69 30 01 80  ..........fdi0..
0090: 55 00 80 F0 FF FF 7F F0  FF FF 7F 66 64 69 30 03  U..........fdi0.
00A0: 02 10 00 00 03 03 10 01  00 03 04 10 02 00 02 01  ................
00B0: 00 01 80 00 CC 00 02 02  00 01 80 00 C5 00 48 08  ..............H.
00C0: 80 23 01 C9 00 48 09 80  23 01 4F 01 02 02 00 01  .#...H..#.O.....
00D0: 80 00 DB 00 48 0A 80 23  01 DF 00 48 0B 80 23 03  ....H..#...H..#.
00E0: 00 17 07 00 15 00 17 0C  80 03 01 17 07 00 15 01  ................
00F0: 17 0D 80 3F 01 17 01 17  0D 80 0B 01 17 02 01 17  ...?............
0100: 0D 80 04 0D 01 0B 00 17  08 01 17 0D 80 02 00 17  ................
0110: 01 80 02 1C 01 48 0E 80  23 01 3E 01 02 07 00 0D  .....H..#.>.....
0120: 80 04 2B 01 48 0F 80 23  01 3E 01 02 06 00 10 80  ..+.H..#.>......
0130: 00 3A 01 48 11 80 23 01  3E 01 48 12 80 23 02 08  .:.H..#.>.H..#..
0140: 00 13 80 02 4F 01 03 06  10 08 00 48 14 80 23 02  ....O......H..#.
0150: 06 00 13 80 80 64 01 03  09 00 15 80 03 0F 00 01  .....d..........
0160: 80 01 A3 01 02 06 00 16  80 80 79 01 03 09 00 16  ..........y.....
0170: 80 03 0F 00 01 80 01 A3  01 02 06 00 17 80 80 8E  ................
0180: 01 03 09 00 16 80 03 0F  00 01 80 01 A3 01 02 06  ................
0190: 00 10 80 80 A3 01 03 09  00 10 80 03 0F 00 13 80  ................
01A0: 01 A3 01 06 0C 00 02 0C  00 01 80 00 F8 01 24 18  ..............$.
01B0: 80 0F 00 09 00 25 02 00  10 01 80 00 C9 01 1A 3F  .....%.........?
01C0: 02 03 0C 00 13 80 01 F5  01 02 00 10 13 80 00 D7  ................
01D0: 01 1A A0 02 01 F5 01 02  00 10 16 80 00 E5 01 1A  ................
01E0: D5 02 01 F5 01 02 00 10  17 80 00 F5 01 03 0C 00  ................
01F0: 13 80 01 F5 01 01 A6 01  45 00 80 F0 FF FF 7F F0  ........E.......
0200: FF FF 7F 66 64 6F 30 01  80 55 00 80 F0 FF FF 7F  ...fdo0..U......
0210: F0 FF FF 7F 66 64 6F 30  52 07 80 F0 FF FF 7F F0  ....fdo0R.......
0220: FF FF 7F 73 37 36 31 1A  30 1D 46 00 45 00 80 F0  ...s761.0.F.E...
0230: FF FF 7F F0 FF FF 7F 66  64 69 30 01 80 21 00 02  .......fdi0..!..
0240: 06 00 13 80 80 5A 02 48  19 80 23 02 02 00 01 80  .....Z.H..#.....
0250: 01 57 02 48 1A 80 23 01  9F 02 02 06 00 16 80 80  .W.H..#.........
0260: 75 02 48 1B 80 23 02 02  00 01 80 01 72 02 48 1A  u.H..#......r.H.
0270: 80 23 01 9F 02 02 06 00  17 80 80 90 02 48 1B 80  .#...........H..
0280: 23 02 02 00 01 80 01 8D  02 48 1A 80 23 01 9F 02  #........H..#...
0290: 02 06 00 10 80 80 9F 02  48 11 80 23 01 9F 02 1B  ........H..#....
02A0: 24 1C 80 01 80 01 80 25  02 00 10 01 80 00 D4 02  $......%........
02B0: 03 01 10 1D 80 43 00 43  01 03 0A 00 02 10 03 0B  .....C.C........
02C0: 00 03 10 40 06 80 05 80  09 11 04 10 03 0C 00 13  ...@............
02D0: 80 01 D4 02 1B 48 1E 80  23 24 1F 80 13 80 01 80  .....H..#$......
02E0: 25 02 00 10 01 80 00 04  03 48 20 80 23 03 01 10  %........H .#...
02F0: 21 80 03 0C 00 13 80 03  0A 00 01 80 03 0B 00 01  !...............
0300: 80 01 04 03 1B                                    .....           
```

#### Opcodes

```
  0: 0x0002 [0x42] SET_CLI_EVENT_CANCEL_DATA()
  1: 0x0003 [0x46] CAMERA_CONTROL: Disable user control
  2: 0x0005 [0x45] LOAD_SCHEDULED_TASK: Load scheduler "fdo0" with entities [LocalPlayer, LocalPlayer], work=[200*, 0*]
  3: 0x0016 [0x55] WAIT_LOAD_SCHEDULER: Wait for scheduler "fdo0" with entities [LocalPlayer, LocalPlayer], work=200*
  4: 0x0025 [0x41] ExtData[1]->WorkLocal[0] = Work_Zone[2] (bits 0*-7*)
  5: 0x002E [0x41] ExtData[1]->WorkLocal[13] = Work_Zone[2] (bits 16*-31*)
  6: 0x0037 [0x41] ExtData[1]->WorkLocal[1] = Work_Zone[3] (bits 0*-15*)
  7: 0x0040 [0x41] ExtData[1]->WorkLocal[2] = Work_Zone[3] (bits 16*-31*)
  8: 0x0049 [0x40] SET_BIT_WORK_RANGE(start_bit=8*, end_bit=15*, target=Work_Zone_Memorize[9], source=ExtData[1]->WorkLocal[13])
  9: 0x0052 [0x03] ExtData[1]->WorkLocal[7] = Work_Zone[5]
 10: 0x0057 [0x03] ExtData[1]->WorkLocal[8] = Work_Zone[6]
 11: 0x005C [0x03] ExtData[1]->WorkLocal[10] = Work_Zone[7]
 12: 0x0061 [0x03] ExtData[1]->WorkLocal[11] = Work_Zone[8]
 13: 0x0066 [0x03] ExtData[1]->WorkLocal[6] = Work_Zone[9]
 14: 0x006B [0x1A] CALL_SUBROUTINE(address=0x1D30)
 15: 0x006E [0x45] LOAD_SCHEDULED_TASK: Load scheduler "s761" with entities [LocalPlayer, LocalPlayer], work=[23*, 0*]
 16: 0x007F [0x45] LOAD_SCHEDULED_TASK: Load scheduler "fdi0" with entities [LocalPlayer, LocalPlayer], work=[200*, 0*]
 17: 0x0090 [0x55] WAIT_LOAD_SCHEDULER: Wait for scheduler "fdi0" with entities [LocalPlayer, LocalPlayer], work=200*
 18: 0x009F [0x03] Work_Zone[2] = ExtData[1]->WorkLocal[0]
 19: 0x00A4 [0x03] Work_Zone[3] = ExtData[1]->WorkLocal[1]
 20: 0x00A9 [0x03] Work_Zone[4] = ExtData[1]->WorkLocal[2]
 21: 0x00AE [0x02] IF !(ExtData[1]->WorkLocal[1] == 0*) GOTO 0x00CC
 22: 0x00B6 [0x02] IF !(ExtData[1]->WorkLocal[2] == 0*) GOTO 0x00C5
 23: 0x00BE [0x48] [System] [7332*]:
    → "This furrow is rank $0, but is devoid of both seeds and fertilizer."
 24: 0x00C1 [0x23] WAIT_FOR_DIALOG_INTERACTION
 25: 0x00C2 [0x01] GOTO 0x00C9
 26: 0x00C5 [0x48] [System] [7334*]:
    → "This furrow is rank $0 and is using $2 as fertilizer, but is devoid of seeds."
 27: 0x00C8 [0x23] WAIT_FOR_DIALOG_INTERACTION

SUBROUTINE_00C9:
 28: 0x00C9 [0x01] GOTO 0x014F
 29: 0x00CC [0x02] IF !(ExtData[1]->WorkLocal[2] == 0*) GOTO 0x00DB
 30: 0x00D4 [0x48] [System] [7333*]:
    → "This furrow is rank $0 and has $1 planted, but is devoid of fertilizer."
 31: 0x00D7 [0x23] WAIT_FOR_DIALOG_INTERACTION
 32: 0x00D8 [0x01] GOTO 0x00DF
 33: 0x00DB [0x48] [System] [7335*]:
    → "This moogle garden bed is rank $0, has $1 planted, and is using $2 as fertilizer."
 34: 0x00DE [0x23] WAIT_FOR_DIALOG_INTERACTION

SUBROUTINE_00DF:
 35: 0x00DF [0x03] Work_Zone_1700[0] = ExtData[1]->WorkLocal[7]
 36: 0x00E4 [0x15] Work_Zone_1700[0] /= 3600*
 37: 0x00E9 [0x03] Work_Zone_1700[1] = ExtData[1]->WorkLocal[7]
 38: 0x00EE [0x15] Work_Zone_1700[1] /= 60*
 39: 0x00F3 [0x3F] Work_Zone_1700[1] = Work_Zone_1700[1] % 60*
 40: 0x00FA [0x0B] Work_Zone_1700[1]++
 41: 0x00FD [0x02] IF !(Work_Zone_1700[1] < 60*) GOTO 0x010D
 42: 0x0105 [0x0B] Work_Zone_1700[0]++
 43: 0x0108 [0x08] Work_Zone_1700[1] -= 60*
 44: 0x010D [0x02] IF !(Work_Zone_1700[0] <= 0*) GOTO 0x011C
 45: 0x0115 [0x48] [System] [7340*]:
    → "Your agrarian experience tells you that you will be able to harvest the $1 you planted in about $8 hour[/s] and $9 minute[/s] (Earth time)."
 46: 0x0118 [0x23] WAIT_FOR_DIALOG_INTERACTION
 47: 0x0119 [0x01] GOTO 0x013E
 48: 0x011C [0x02] IF !(ExtData[1]->WorkLocal[7] < 60*) GOTO 0x012B
 49: 0x0124 [0x48] [System] [7341*]:
    → "Your agrarian experience tells you that you will be able to harvest the $1 you planted in about $9 minute[/s] (Earth time)."
 50: 0x0127 [0x23] WAIT_FOR_DIALOG_INTERACTION
 51: 0x0128 [0x01] GOTO 0x013E
 52: 0x012B [0x02] IF !(ExtData[1]->WorkLocal[6] == 4*) GOTO 0x013A
 53: 0x0133 [0x48] [System] [7344*]:
    → "Your $1 has matured!"
 54: 0x0136 [0x23] WAIT_FOR_DIALOG_INTERACTION
 55: 0x0137 [0x01] GOTO 0x013E
 56: 0x013A [0x48] [System] [7342*]:
    → "Your aggrarian experience tells you that the time for harvesting the $1 is imminent!"
 57: 0x013D [0x23] WAIT_FOR_DIALOG_INTERACTION

SUBROUTINE_013E:
 58: 0x013E [0x02] IF !(ExtData[1]->WorkLocal[8] <= 1*) GOTO 0x014F
 59: 0x0146 [0x03] Work_Zone[6] = ExtData[1]->WorkLocal[8]
 60: 0x014B [0x48] [System] [7343*]:
    → "You also conclude that the seed you planted should sprout about $4 more time[/s]."
 61: 0x014E [0x23] WAIT_FOR_DIALOG_INTERACTION

SUBROUTINE_014F:
 62: 0x014F [0x02] IF !(ExtData[1]->WorkLocal[6] == 1*) GOTO 0x0164
 63: 0x0157 [0x03] ExtData[1]->WorkLocal[9] = 6*
 64: 0x015C [0x03] ExtData[1]->WorkLocal[15] = 0*
 65: 0x0161 [0x01] GOTO 0x01A3
 66: 0x0164 [0x02] IF !(ExtData[1]->WorkLocal[6] == 2*) GOTO 0x0179
 67: 0x016C [0x03] ExtData[1]->WorkLocal[9] = 2*
 68: 0x0171 [0x03] ExtData[1]->WorkLocal[15] = 0*
 69: 0x0176 [0x01] GOTO 0x01A3
 70: 0x0179 [0x02] IF !(ExtData[1]->WorkLocal[6] == 3*) GOTO 0x018E
 71: 0x0181 [0x03] ExtData[1]->WorkLocal[9] = 2*
 72: 0x0186 [0x03] ExtData[1]->WorkLocal[15] = 0*
 73: 0x018B [0x01] GOTO 0x01A3
 74: 0x018E [0x02] IF !(ExtData[1]->WorkLocal[6] == 4*) GOTO 0x01A3
 75: 0x0196 [0x03] ExtData[1]->WorkLocal[9] = 4*
 76: 0x019B [0x03] ExtData[1]->WorkLocal[15] = 1*
 77: 0x01A0 [0x01] GOTO 0x01A3

SUBROUTINE_01A3:
 78: 0x01A3 [0x06] ExtData[1]->WorkLocal[12] = 0

SUBROUTINE_01A6:
 79: 0x01A6 [0x02] IF !(ExtData[1]->WorkLocal[12] == 0*) GOTO 0x01F8
 80: 0x01AE [0x24] CREATE_DIALOG(message_id=7336*, default_option=ExtData[1]->WorkLocal[15], option_flags=ExtData[1]->WorkLocal[9])
    → "What will you do? [Inspect the garden./Harvest crops./Uproot everything./Absolutely nothing.]"
 81: 0x01B5 [0x25] WAIT_DIALOG_SELECT()
 82: 0x01B6 [0x02] IF !(Work_Zone[0] == 0*) GOTO 0x01C9
 83: 0x01BE [0x1A] CALL_SUBROUTINE(address=0x023F)
 84: 0x01C1 [0x03] ExtData[1]->WorkLocal[12] = 1*
 85: 0x01C6 [0x01] GOTO 0x01F5
 86: 0x01C9 [0x02] IF !(Work_Zone[0] == 1*) GOTO 0x01D7
 87: 0x01D1 [0x1A] CALL_SUBROUTINE(address=0x02A0)
 88: 0x01D4 [0x01] GOTO 0x01F5
 89: 0x01D7 [0x02] IF !(Work_Zone[0] == 2*) GOTO 0x01E5
 90: 0x01DF [0x1A] CALL_SUBROUTINE(address=0x02D5)
 91: 0x01E2 [0x01] GOTO 0x01F5
 92: 0x01E5 [0x02] IF !(Work_Zone[0] == 3*) GOTO 0x01F5
 93: 0x01ED [0x03] ExtData[1]->WorkLocal[12] = 1*
 94: 0x01F2 [0x01] GOTO 0x01F5

SUBROUTINE_01F5:
 95: 0x01F5 [0x01] GOTO 0x01A6
 96: 0x01F8 [0x45] LOAD_SCHEDULED_TASK: Load scheduler "fdo0" with entities [LocalPlayer, LocalPlayer], work=[200*, 0*]
 97: 0x0209 [0x55] WAIT_LOAD_SCHEDULER: Wait for scheduler "fdo0" with entities [LocalPlayer, LocalPlayer], work=200*
 98: 0x0218 [0x52] END_LOAD_SCHEDULER: End scheduler "s761" with entities [LocalPlayer, LocalPlayer], work=23*
 99: 0x0227 [0x1A] CALL_SUBROUTINE(address=0x1D30)
100: 0x022A [0x46] CAMERA_CONTROL: Restore default settings
101: 0x022C [0x45] LOAD_SCHEDULED_TASK: Load scheduler "fdi0" with entities [LocalPlayer, LocalPlayer], work=[200*, 0*]
102: 0x023D [0x21] END_EVENT
103: 0x023E [0x00] END_REQSTACK()

SUBROUTINE_023F:
104: 0x023F [0x02] IF !(ExtData[1]->WorkLocal[6] == 1*) GOTO 0x025A
105: 0x0247 [0x48] [System] [7337*]:
    → "Nothing has been planted in this furrow. Select a seed to be sown and place it in the basket."
106: 0x024A [0x23] WAIT_FOR_DIALOG_INTERACTION
107: 0x024B [0x02] IF !(ExtData[1]->WorkLocal[2] == 0*) GOTO 0x0257
108: 0x0253 [0x48] [System] [7339*]:
    → "This furrow is fertilized with $2."
109: 0x0256 [0x23] WAIT_FOR_DIALOG_INTERACTION
110: 0x0257 [0x01] GOTO 0x029F
111: 0x025A [0x02] IF !(ExtData[1]->WorkLocal[6] == 2*) GOTO 0x0275
112: 0x0262 [0x48] [System] [7338*]:
    → "This furrow has $1 planted in it."
113: 0x0265 [0x23] WAIT_FOR_DIALOG_INTERACTION
114: 0x0266 [0x02] IF !(ExtData[1]->WorkLocal[2] == 0*) GOTO 0x0272
115: 0x026E [0x48] [System] [7339*]:
    → "This furrow is fertilized with $2."
116: 0x0271 [0x23] WAIT_FOR_DIALOG_INTERACTION
117: 0x0272 [0x01] GOTO 0x029F
118: 0x0275 [0x02] IF !(ExtData[1]->WorkLocal[6] == 3*) GOTO 0x0290
119: 0x027D [0x48] [System] [7338*]:
    → "This furrow has $1 planted in it."
120: 0x0280 [0x23] WAIT_FOR_DIALOG_INTERACTION
121: 0x0281 [0x02] IF !(ExtData[1]->WorkLocal[2] == 0*) GOTO 0x028D
122: 0x0289 [0x48] [System] [7339*]:
    → "This furrow is fertilized with $2."
123: 0x028C [0x23] WAIT_FOR_DIALOG_INTERACTION
124: 0x028D [0x01] GOTO 0x029F
125: 0x0290 [0x02] IF !(ExtData[1]->WorkLocal[6] == 4*) GOTO 0x029F
126: 0x0298 [0x48] [System] [7344*]:
    → "Your $1 has matured!"
127: 0x029B [0x23] WAIT_FOR_DIALOG_INTERACTION
128: 0x029C [0x01] GOTO 0x029F

SUBROUTINE_029F:
129: 0x029F [0x1B] RETURN

SUBROUTINE_02A0:
130: 0x02A0 [0x24] CREATE_DIALOG(message_id=7345*, default_option=0*, option_flags=0*)
    → "Harvest this crop? [Yes./No.]"
131: 0x02A7 [0x25] WAIT_DIALOG_SELECT()
132: 0x02A8 [0x02] IF !(Work_Zone[0] == 0*) GOTO 0x02D4
133: 0x02B0 [0x03] Work_Zone[1] = 18*
134: 0x02B5 [0x43] SEND_EVENT_UPDATE: Send pending tag to server (packet 0x005B)
135: 0x02B7 [0x43] SEND_EVENT_UPDATE: Check pending flag (skip if not pending)
136: 0x02B9 [0x03] ExtData[1]->WorkLocal[10] = Work_Zone[2]
137: 0x02BE [0x03] ExtData[1]->WorkLocal[11] = Work_Zone[3]
138: 0x02C3 [0x40] SET_BIT_WORK_RANGE(start_bit=8*, end_bit=15*, target=Work_Zone_Memorize[9], source=Work_Zone[4])
139: 0x02CC [0x03] ExtData[1]->WorkLocal[12] = 1*
140: 0x02D1 [0x01] GOTO 0x02D4

SUBROUTINE_02D4:
141: 0x02D4 [0x1B] RETURN

SUBROUTINE_02D5:
142: 0x02D5 [0x48] [System] [7347*]:
    → "Uproot and discard the $1 you planted?"
143: 0x02D8 [0x23] WAIT_FOR_DIALOG_INTERACTION
144: 0x02D9 [0x24] CREATE_DIALOG(message_id=7348*, default_option=1*, option_flags=0*)
    → "Uproot it? [Yes./No.]"
145: 0x02E0 [0x25] WAIT_DIALOG_SELECT()
146: 0x02E1 [0x02] IF !(Work_Zone[0] == 0*) GOTO 0x0304
147: 0x02E9 [0x48] [System] [7349*]:
    → "You have removed the $1 from your garden."
148: 0x02EC [0x23] WAIT_FOR_DIALOG_INTERACTION
149: 0x02ED [0x03] Work_Zone[1] = 19*
150: 0x02F2 [0x03] ExtData[1]->WorkLocal[12] = 1*
151: 0x02F7 [0x03] ExtData[1]->WorkLocal[10] = 0*
152: 0x02FC [0x03] ExtData[1]->WorkLocal[11] = 0*
153: 0x0301 [0x01] GOTO 0x0304

SUBROUTINE_0304:
154: 0x0304 [0x1B] RETURN
```

### Event 1007

#### Metadata

| Field        | Value     |
|--------------|-----------|
| Entrypoint   | 0x0305    |
| Data Size    | 244 bytes |
| Instructions | 32        |

```
      00 01 02 03 04 05 06 07  08 09 0A 0B 0C 0D 0E 0F
      -- -- -- -- -- -- -- --  -- -- -- -- -- -- -- --
0300:                42 46 01  45 00 80 F0 FF FF 7F F0       BF.E.......
0310: FF FF 7F 66 64 6F 30 01  80 55 00 80 F0 FF FF 7F  ...fdo0..U......
0320: F0 FF FF 7F 66 64 6F 30  03 0A 00 07 10 03 0B 00  ....fdo0........
0330: 08 10 40 06 80 05 80 09  11 09 10 45 07 80 F0 FF  ..@........E....
0340: FF 7F F0 FF FF 7F 73 37  36 31 01 80 45 00 80 F0  ......s761..E...
0350: FF FF 7F F0 FF FF 7F 66  64 69 30 01 80 55 00 80  .......fdi0..U..
0360: F0 FF FF 7F F0 FF FF 7F  66 64 69 30 48 22 80 23  ........fdi0H".#
0370: 24 23 80 01 80 01 80 25  02 00 10 01 80 00 8C 03  $#.....%........
0380: 03 01 10 03 80 48 24 80  23 01 91 03 03 01 10 25  .....H$.#......%
0390: 80 45 00 80 F0 FF FF 7F  F0 FF FF 7F 66 64 6F 30  .E..........fdo0
03A0: 01 80 55 00 80 F0 FF FF  7F F0 FF FF 7F 66 64 6F  ..U..........fdo
03B0: 30 02 01 10 03 80 00 C6  03 03 0A 00 07 10 03 0B  0...............
03C0: 00 08 10 1A 30 1D 52 07  80 F0 FF FF 7F F0 FF FF  ....0.R.........
03D0: 7F 73 37 36 31 46 00 45  00 80 F0 FF FF 7F F0 FF  .s761F.E........
03E0: FF 7F 66 64 69 30 01 80  55 00 80 F0 FF FF 7F F0  ..fdi0..U.......
03F0: FF FF 7F 66 64 69 30 21  00                       ...fdi0!.       
```

#### Opcodes

```
  0: 0x0305 [0x42] SET_CLI_EVENT_CANCEL_DATA()
  1: 0x0306 [0x46] CAMERA_CONTROL: Disable user control
  2: 0x0308 [0x45] LOAD_SCHEDULED_TASK: Load scheduler "fdo0" with entities [LocalPlayer, LocalPlayer], work=[200*, 0*]
  3: 0x0319 [0x55] WAIT_LOAD_SCHEDULER: Wait for scheduler "fdo0" with entities [LocalPlayer, LocalPlayer], work=200*
  4: 0x0328 [0x03] ExtData[1]->WorkLocal[10] = Work_Zone[7]
  5: 0x032D [0x03] ExtData[1]->WorkLocal[11] = Work_Zone[8]
  6: 0x0332 [0x40] SET_BIT_WORK_RANGE(start_bit=8*, end_bit=15*, target=Work_Zone_Memorize[9], source=Work_Zone[9])
  7: 0x033B [0x45] LOAD_SCHEDULED_TASK: Load scheduler "s761" with entities [LocalPlayer, LocalPlayer], work=[23*, 0*]
  8: 0x034C [0x45] LOAD_SCHEDULED_TASK: Load scheduler "fdi0" with entities [LocalPlayer, LocalPlayer], work=[200*, 0*]
  9: 0x035D [0x55] WAIT_LOAD_SCHEDULER: Wait for scheduler "fdi0" with entities [LocalPlayer, LocalPlayer], work=200*
 10: 0x036C [0x48] [System] [7350*]:
    → "Plant $0 in your garden? Beware that specific seeds cannot be planted again if uprooted later."
 11: 0x036F [0x23] WAIT_FOR_DIALOG_INTERACTION
 12: 0x0370 [0x24] CREATE_DIALOG(message_id=7351*, default_option=0*, option_flags=0*)
    → "Plant the $0? [Yes./No.]"
 13: 0x0377 [0x25] WAIT_DIALOG_SELECT()
 14: 0x0378 [0x02] IF !(Work_Zone[0] == 0*) GOTO 0x038C
 15: 0x0380 [0x03] Work_Zone[1] = 16*
 16: 0x0385 [0x48] [System] [7352*]:
    → "You have planted $0."
 17: 0x0388 [0x23] WAIT_FOR_DIALOG_INTERACTION
 18: 0x0389 [0x01] GOTO 0x0391
 19: 0x038C [0x03] Work_Zone[1] = 1073741824*

SUBROUTINE_0391:
 20: 0x0391 [0x45] LOAD_SCHEDULED_TASK: Load scheduler "fdo0" with entities [LocalPlayer, LocalPlayer], work=[200*, 0*]
 21: 0x03A2 [0x55] WAIT_LOAD_SCHEDULER: Wait for scheduler "fdo0" with entities [LocalPlayer, LocalPlayer], work=200*
 22: 0x03B1 [0x02] IF !(Work_Zone[1] == 16*) GOTO 0x03C6
 23: 0x03B9 [0x03] ExtData[1]->WorkLocal[10] = Work_Zone[7]
 24: 0x03BE [0x03] ExtData[1]->WorkLocal[11] = Work_Zone[8]
 25: 0x03C3 [0x1A] CALL_SUBROUTINE(address=0x1D30)
 26: 0x03C6 [0x52] END_LOAD_SCHEDULER: End scheduler "s761" with entities [LocalPlayer, LocalPlayer], work=23*
 27: 0x03D5 [0x46] CAMERA_CONTROL: Restore default settings
 28: 0x03D7 [0x45] LOAD_SCHEDULED_TASK: Load scheduler "fdi0" with entities [LocalPlayer, LocalPlayer], work=[200*, 0*]
 29: 0x03E8 [0x55] WAIT_LOAD_SCHEDULER: Wait for scheduler "fdi0" with entities [LocalPlayer, LocalPlayer], work=200*
 30: 0x03F7 [0x21] END_EVENT
 31: 0x03F8 [0x00] END_REQSTACK()
```

### Event 1010

#### Metadata

| Field        | Value      |
|--------------|------------|
| Entrypoint   | 0x03F9     |
| Data Size    | 6522 bytes |
| Instructions | 153        |

```
      00 01 02 03 04 05 06 07  08 09 0A 0B 0C 0D 0E 0F
      -- -- -- -- -- -- -- --  -- -- -- -- -- -- -- --
03F0:                             42 46 01 03 04 00 02           BF.....
0400: 10 03 02 00 03 10 03 05  00 04 10 03 03 00 05 10  ................
0410: 03 01 00 06 10 45 00 80  F0 FF FF 7F F0 FF FF 7F  .....E..........
0420: 66 64 6F 30 01 80 55 00  80 F0 FF FF 7F F0 FF FF  fdo0..U.........
0430: 7F 66 64 6F 30 03 0A 00  07 10 03 0B 00 08 10 40  .fdo0..........@
0440: 06 80 05 80 09 11 09 10  1A 30 1D 45 07 80 F0 FF  .........0.E....
0450: FF 7F F0 FF FF 7F 73 37  36 31 01 80 45 00 80 F0  ......s761..E...
0460: FF FF 7F F0 FF FF 7F 66  64 69 30 01 80 55 00 80  .......fdi0..U..
0470: F0 FF FF 7F F0 FF FF 7F  66 64 69 30 02 03 00 01  ........fdi0....
0480: 80 00 90 04 03 02 10 04  00 48 26 80 23 01 99 04  .........H&.#...
0490: 03 04 10 05 00 48 27 80  23 03 02 10 04 00 24 28  .....H'.#.....$(
04A0: 80 01 80 01 80 25 02 00  10 01 80 00 DD 04 03 01  .....%..........
04B0: 10 29 80 03 03 10 04 00  02 01 00 01 80 00 CC 04  .)..............
04C0: 03 03 10 04 00 48 2A 80  23 01 DA 04 03 02 10 01  .....H*.#.......
04D0: 00 03 03 10 04 00 48 2B  80 23 01 E2 04 03 01 10  ......H+.#......
04E0: 25 80 45 00 80 F0 FF FF  7F F0 FF FF 7F 66 64 6F  %.E..........fdo
04F0: 30 01 80 55 00 80 F0 FF  FF 7F F0 FF FF 7F 66 64  0..U..........fd
0500: 6F 30 52 07 80 F0 FF FF  7F F0 FF FF 7F 73 37 36  o0R..........s76
0510: 31 46 00 45 00 80 F0 FF  FF 7F F0 FF FF 7F 66 64  1F.E..........fd
0520: 69 30 01 80 21 00 92 00  1D 80 11 01 1A 60 0D 1A  i0..!........`..
0530: 9D 05 1A 61 06 1A 0B 08  1A 38 0A 1A 46 19 1A 46  ...a.....8..F..F
0540: 0A 1A 22 0B 1A 59 0B 1A  7C 0B 1A A8 0B 1A 48 0C  .."..Y..|.....H.
0550: 1A D2 0C 1A FB 0C 1A 41  0D 1A 79 09 AC 02 35 80  .......A..y...5.
0560: 11 01 1B 92 00 1D 80 11  01 1A 9D 05 1A 61 06 1A  .............a..
0570: 0B 08 1A 38 0A 1A 46 19  1A 46 0A 1A 22 0B 1A 59  ...8..F..F.."..Y
0580: 0B 1A 7C 0B 1A A8 0B 1A  48 0C 1A D2 0C 1A FB 0C  ..|.....H.......
0590: 1A 41 0D 1A 79 09 AC 02  35 80 11 01 1B AC 02 09  .A..y...5.......
05A0: 80 11 01 3E 00 11 01 80  B4 05 27 80 09 80 11 01  ...>......'.....
05B0: 02 01 BB 05 27 80 09 80  11 01 03 AC 02 0A 80 11  ....'...........
05C0: 01 3E 00 11 13 80 D2 05  27 80 0A 80 11 01 02 01  .>......'.......
05D0: D9 05 27 80 0A 80 11 01  03 AC 02 0B 80 11 01 3E  ..'............>
05E0: 00 11 16 80 F0 05 29 80  0B 80 11 01 02 01 F7 05  ......).........
05F0: 29 80 0B 80 11 01 03 92  01 20 80 11 01 92 01 21  )........ .....!
0600: 80 11 01 92 01 22 80 11  01 AC 02 20 80 11 01 3E  ....."..... ...>
0610: 00 11 2C 80 1F 06 4E 00  20 80 11 01 01 25 06 4E  ..,...N. ....%.N
0620: 01 20 80 11 01 AC 02 21  80 11 01 3E 00 11 2D 80  . .....!...>..-.
0630: 3B 06 4E 00 21 80 11 01  01 41 06 4E 01 21 80 11  ;.N.!....A.N.!..
0640: 01 AC 02 22 80 11 01 3E  00 11 2E 80 57 06 4E 00  ..."...>....W.N.
0650: 22 80 11 01 01 5D 06 4E  01 22 80 11 01 1C 13 80  "....].N."......
0660: 1B AC 02 0F 80 11 01 3E  00 11 17 80 78 06 27 80  .......>....x.'.
0670: 0F 80 11 01 02 01 7F 06  27 80 0F 80 11 01 03 AC  ........'.......
0680: 02 10 80 11 01 3E 00 11  10 80 96 06 27 80 10 80  .....>......'...
0690: 11 01 02 01 9D 06 27 80  10 80 11 01 03 AC 02 11  ......'.........
06A0: 80 11 01 3E 00 11 2F 80  B4 06 29 80 11 80 11 01  ...>../...).....
06B0: 02 01 BB 06 29 80 11 80  11 01 03 AC 02 1A 80 11  ....)...........
06C0: 01 3E 01 11 1D 80 D2 06  27 80 1A 80 11 01 02 01  .>......'.......
06D0: D9 06 27 80 1A 80 11 01  03 AC 02 1B 80 11 01 3E  ..'............>
06E0: 01 11 21 80 F0 06 29 80  1B 80 11 01 02 01 F7 06  ..!...).........
06F0: 29 80 1B 80 11 01 03 AC  02 23 80 11 01 AC 02 24  )........#.....$
0700: 80 11 01 3E 00 11 1D 80  2F 07 3E 08 11 01 80 20  ...>..../.>.... 
0710: 07 4E 00 24 80 11 01 4E  01 23 80 11 01 01 2C 07  .N.$...N.#....,.
0720: 4E 00 23 80 11 01 4E 01  24 80 11 01 01 3B 07 4E  N.#...N.$....;.N
0730: 01 23 80 11 01 4E 01 24  80 11 01 AC 02 25 80 11  .#...N.$.....%..
0740: 01 AC 02 26 80 11 01 3E  00 11 21 80 73 07 3E 08  ...&...>..!.s.>.
0750: 11 13 80 64 07 4E 00 26  80 11 01 4E 01 25 80 11  ...d.N.&...N.%..
0760: 01 01 70 07 4E 00 25 80  11 01 4E 01 26 80 11 01  ..p.N.%...N.&...
0770: 01 7F 07 4E 01 25 80 11  01 4E 01 26 80 11 01 AC  ...N.%...N.&....
0780: 02 27 80 11 01 AC 02 28  80 11 01 3E 00 11 30 80  .'.....(...>..0.
0790: B7 07 3E 08 11 16 80 A8  07 4E 00 28 80 11 01 4E  ..>......N.(...N
07A0: 01 27 80 11 01 01 B4 07  4E 00 27 80 11 01 4E 01  .'......N.'...N.
07B0: 28 80 11 01 01 C3 07 4E  01 27 80 11 01 4E 01 28  (......N.'...N.(
07C0: 80 11 01 AC 02 29 80 11  01 AC 02 2A 80 11 01 3E  .....).....*...>
07D0: 00 11 31 80 FB 07 3E 08  11 17 80 EC 07 4E 00 2A  ..1...>......N.*
07E0: 80 11 01 4E 01 29 80 11  01 01 F8 07 4E 00 29 80  ...N.)......N.).
07F0: 11 01 4E 01 2A 80 11 01  01 07 08 4E 01 29 80 11  ..N.*......N.)..
0800: 01 4E 01 2A 80 11 01 1C  13 80 1B AC 02 12 80 11  .N.*............
0810: 01 3E 00 11 15 80 22 08  27 80 12 80 11 01 02 01  .>....".'.......
0820: 29 08 27 80 12 80 11 01  03 AC 02 13 80 11 01 3E  ).'............>
0830: 00 11 02 80 40 08 27 80  13 80 11 01 02 01 47 08  ....@.'.......G.
0840: 27 80 13 80 11 01 03 AC  02 14 80 11 01 3E 00 11  '............>..
0850: 06 80 5E 08 29 80 14 80  11 01 02 01 65 08 29 80  ..^.).......e.).
0860: 14 80 11 01 03 AC 02 2B  80 11 01 AC 02 2C 80 11  .......+.....,..
0870: 01 3E 00 11 32 80 9D 08  3E 08 11 10 80 8E 08 4E  .>..2...>......N
0880: 00 2C 80 11 01 4E 01 2B  80 11 01 01 9A 08 4E 00  .,...N.+......N.
0890: 2B 80 11 01 4E 01 2C 80  11 01 01 A9 08 4E 01 2B  +...N.,......N.+
08A0: 80 11 01 4E 01 2C 80 11  01 AC 02 2D 80 11 01 AC  ...N.,.....-....
08B0: 02 2E 80 11 01 3E 00 11  07 80 E1 08 3E 08 11 2F  .....>......>../
08C0: 80 D2 08 4E 00 2E 80 11  01 4E 01 2D 80 11 01 01  ...N.....N.-....
08D0: DE 08 4E 00 2D 80 11 01  4E 01 2E 80 11 01 01 ED  ..N.-...N.......
08E0: 08 4E 01 2D 80 11 01 4E  01 2E 80 11 01 AC 02 2F  .N.-...N......./
08F0: 80 11 01 AC 02 30 80 11  01 3E 00 11 33 80 25 09  .....0...>..3.%.
0900: 3E 08 11 15 80 16 09 4E  00 30 80 11 01 4E 01 2F  >......N.0...N./
0910: 80 11 01 01 22 09 4E 00  2F 80 11 01 4E 01 30 80  ....".N./...N.0.
0920: 11 01 01 31 09 4E 01 2F  80 11 01 4E 01 30 80 11  ...1.N./...N.0..
0930: 01 AC 02 31 80 11 01 AC  02 32 80 11 01 3E 00 11  ...1.....2...>..
0940: 34 80 69 09 3E 08 11 02  80 5A 09 4E 00 32 80 11  4.i.>....Z.N.2..
0950: 01 4E 01 31 80 11 01 01  66 09 4E 00 31 80 11 01  .N.1....f.N.1...
0960: 4E 01 32 80 11 01 01 75  09 4E 01 31 80 11 01 4E  N.2....u.N.1...N
0970: 01 32 80 11 01 1C 13 80  1B 92 01 35 80 11 01 AC  .2.........5....
0980: 02 15 80 11 01 3E 00 11  35 80 96 09 27 80 15 80  .....>..5...'...
0990: 11 01 02 01 9D 09 27 80  15 80 11 01 03 AC 02 16  ......'.........
09A0: 80 11 01 3E 00 11 36 80  B4 09 27 80 16 80 11 01  ...>..6...'.....
09B0: 02 01 BB 09 27 80 16 80  11 01 03 AC 02 17 80 11  ....'...........
09C0: 01 3E 00 11 37 80 D2 09  27 80 17 80 11 01 02 01  .>..7...'.......
09D0: D9 09 27 80 17 80 11 01  03 AC 02 18 80 11 01 3E  ..'............>
09E0: 01 11 29 80 F0 09 29 80  18 80 11 01 02 01 F7 09  ..)...).........
09F0: 29 80 18 80 11 01 03 3E  01 11 30 80 07 0A 60 02  )......>..0...`.
0A00: 69 30 6F 6E 01 07 0A 3E  01 11 31 80 17 0A 60 02  i0on...>..1...`.
0A10: 69 31 6F 6E 01 17 0A 3E  01 11 32 80 27 0A 60 02  i1on...>..2.'.`.
0A20: 69 32 6F 6E 01 27 0A 3E  01 11 07 80 37 0A 60 02  i2on.'.>....7.`.
0A30: 69 33 6F 6E 01 37 0A 1B  AC 02 35 80 11 01 29 08  i3on.7....5...).
0A40: 35 80 11 01 04 1B 92 00  57 80 11 01 92 00 6A 80  5.......W.....j.
0A50: 11 01 92 00 58 80 11 01  92 00 6B 80 11 01 92 00  ....X.....k.....
0A60: 59 80 11 01 92 00 6C 80  11 01 AC 02 57 80 11 01  Y.....l.....W...
0A70: 3E 00 11 38 80 81 0A 27  08 57 80 11 01 02 01 88  >..8...'.W......
0A80: 0A 27 08 57 80 11 01 03  AC 02 6A 80 11 01 3E 00  .'.W......j...>.
0A90: 11 39 80 9F 0A 27 08 6A  80 11 01 02 01 A6 0A 27  .9...'.j.......'
0AA0: 08 6A 80 11 01 03 AC 02  58 80 11 01 3E 00 11 3A  .j......X...>..:
0AB0: 80 BD 0A 29 08 58 80 11  01 02 01 C4 0A 29 08 58  ...).X.......).X
0AC0: 80 11 01 03 AC 02 6B 80  11 01 3E 00 11 05 80 DB  ......k...>.....
0AD0: 0A 27 08 6B 80 11 01 02  01 E2 0A 27 08 6B 80 11  .'.k.......'.k..
0AE0: 01 03 AC 02 59 80 11 01  3E 00 11 03 80 F9 0A 27  ....Y...>......'
0AF0: 08 59 80 11 01 02 01 00  0B 27 08 59 80 11 01 03  .Y.......'.Y....
0B00: AC 02 6C 80 11 01 3E 00  11 29 80 17 0B 29 08 6C  ..l...>..)...).l
0B10: 80 11 01 02 01 1E 0B 29  08 6C 80 11 01 03 1C 13  .......).l......
0B20: 80 1B AC 02 36 80 11 01  3E 00 11 3B 80 45 0B 2C  ....6...>..;.E.,
0B30: 36 80 11 01 36 80 11 01  65 66 6F 6E B6 14 36 80  6...6...efon..6.
0B40: 11 01 01 58 0B 2C 36 80  11 01 36 80 11 01 65 66  ...X.,6...6...ef
0B50: 6F 66 B6 15 36 80 11 01  1B 3E 01 11 01 80 6F 0B  of..6....>....o.
0B60: 4E 00 71 80 11 01 AC 03  71 80 11 01 01 7B 0B AC  N.q.....q....{..
0B70: 02 71 80 11 01 4E 01 71  80 11 01 1B AC 02 72 80  .q...N.q......r.
0B80: 11 01 3E 01 11 13 80 A0  0B 3E 01 11 17 80 97 0B  ..>......>......
0B90: 29 08 72 80 11 01 04 4E  00 72 80 11 01 01 A7 0B  ).r....N.r......
0BA0: 29 08 72 80 11 01 03 1B  AC 02 8E 80 11 01 3E 01  ).r...........>.
0BB0: 11 34 80 BE 0B 4E 00 8E  80 11 01 01 C4 0B 4E 01  .4...N........N.
0BC0: 8E 80 11 01 1B AC 02 80  80 11 01 AC 02 81 80 11  ................
0BD0: 01 AC 02 82 80 11 01 AC  02 83 80 11 01 AC 02 84  ................
0BE0: 80 11 01 3E 01 11 2C 80  29 0C 4E 00 80 80 11 01  ...>..,.).N.....
0BF0: AC 03 80 80 11 01 4E 00  81 80 11 01 AC 03 81 80  ......N.........
0C00: 11 01 4E 00 82 80 11 01  AC 03 82 80 11 01 4E 00  ..N...........N.
0C10: 83 80 11 01 AC 03 83 80  11 01 4E 00 84 80 11 01  ..........N.....
0C20: AC 03 84 80 11 01 01 47  0C 4E 01 80 80 11 01 4E  .......G.N.....N
0C30: 01 81 80 11 01 4E 01 82  80 11 01 4E 01 83 80 11  .....N.....N....
0C40: 01 4E 01 84 80 11 01 1B  AC 02 85 80 11 01 AC 02  .N..............
0C50: 86 80 11 01 3E 01 11 2D  80 C5 0C 13 10 00 16 80  ....>..-........
0C60: 02 10 00 16 80 02 6B 0C  06 10 00 02 10 00 01 80  ......k.........
0C70: 80 84 0C 29 08 85 80 11  01 02 29 08 86 80 11 01  ...)......).....
0C80: 02 01 B6 0C 02 10 00 13  80 80 9D 0C 29 08 85 80  ............)...
0C90: 11 01 03 29 08 86 80 11  01 03 01 B6 0C 02 10 00  ...)............
0CA0: 16 80 80 B6 0C 29 08 85  80 11 01 04 29 08 86 80  .....)......)...
0CB0: 11 01 04 01 B6 0C 4E 00  85 80 11 01 4E 00 86 80  ......N.....N...
0CC0: 11 01 01 D1 0C 4E 01 85  80 11 01 4E 01 86 80 11  .....N.....N....
0CD0: 01 1B AC 02 87 80 11 01  3E 01 11 10 80 EE 0C 4E  ........>......N
0CE0: 00 87 80 11 01 AC 03 87  80 11 01 01 FA 0C AC 02  ................
0CF0: 87 80 11 01 4E 01 87 80  11 01 1B AC 02 89 80 11  ....N...........
0D00: 01 29 08 89 80 11 01 04  1B AC 02 8A 80 11 01 29  .).............)
0D10: 08 8A 80 11 01 04 1B AC  02 8B 80 11 01 29 08 8B  .............)..
0D20: 80 11 01 04 1B AC 02 8C  80 11 01 29 08 8C 80 11  ...........)....
0D30: 01 04 1B AC 02 8D 80 11  01 29 08 8D 80 11 01 04  .........)......
0D40: 1B AC 02 1C 80 11 01 3E  01 11 33 80 58 0D 29 80  .......>..3.X.).
0D50: 1C 80 11 01 02 01 5F 0D  29 80 1C 80 11 01 03 1B  ......_.).......
0D60: 03 01 10 13 80 43 00 43  01 03 11 00 02 10 03 08  .....C.C........
0D70: 11 03 10 03 01 11 04 10  03 0A 11 05 10 03 0B 11  ................
0D80: 06 10 03 0C 11 07 10 03  01 10 37 80 43 00 43 01  ..........7.C.C.
0D90: 03 02 11 02 10 03 03 11  03 10 03 04 11 04 10 03  ................
0DA0: 05 11 05 10 03 06 11 06  10 03 07 11 07 10 03 09  ................
0DB0: 11 08 10 41 01 80 17 80  11 00 10 00 1A AD 0F 41  ...A...........A
0DC0: 10 80 02 80 11 00 10 00  1A B5 11 41 06 80 37 80  ...........A..7.
0DD0: 11 00 10 00 1A 45 14 41  38 80 05 80 11 00 10 00  .....E.A8.......
0DE0: 1A 93 16 41 30 80 32 80  11 00 10 00 1A 15 0E 41  ...A0.2........A
0DF0: 04 80 04 80 11 00 10 00  02 10 00 01 80 00 0A 0E  ................
0E00: 3D 00 11 3B 80 13 80 01  11 0E 3C 00 11 3B 80 13  =..;......<..;..
0E10: 80 1A 2F 0E 1B 02 10 00  17 80 04 27 0E 3C 01 11  ../........'.<..
0E20: 33 80 13 80 01 2E 0E 3D  01 11 33 80 13 80 1B 3E  3......=..3....>
0E30: 08 11 06 80 A0 0E 41 35  80 37 80 08 11 10 00 02  ......A5.7......
0E40: 10 00 13 80 80 58 0E 3D  00 11 38 80 13 80 3C 00  .....X.=..8...<.
0E50: 11 39 80 13 80 01 9D 0E  02 10 00 10 80 80 71 0E  .9............q.
0E60: 3C 00 11 38 80 13 80 3D  00 11 39 80 13 80 01 9D  <..8...=..9.....
0E70: 0E 13 10 00 3C 80 02 10  00 3D 80 03 8F 0E 3D 00  ....<....=....=.
0E80: 11 38 80 13 80 3C 00 11  39 80 13 80 01 9D 0E 3C  .8...<..9......<
0E90: 00 11 38 80 13 80 3D 00  11 39 80 13 80 01 AE 0E  ..8...=..9......
0EA0: 3D 00 11 38 80 13 80 3D  00 11 39 80 13 80 3E 08  =..8...=..9...>.
0EB0: 11 38 80 1F 0F 41 39 80  05 80 08 11 10 00 02 10  .8...A9.........
0EC0: 00 13 80 80 D7 0E 3C 00  11 3A 80 13 80 3D 00 11  ......<..:...=..
0ED0: 05 80 13 80 01 1C 0F 02  10 00 2F 80 80 F0 0E 3D  ........../....=
0EE0: 00 11 3A 80 13 80 3C 00  11 05 80 13 80 01 1C 0F  ..:...<.........
0EF0: 13 10 00 3C 80 02 10 00  3D 80 03 0E 0F 3C 00 11  ...<....=....<..
0F00: 3A 80 13 80 3D 00 11 05  80 13 80 01 1C 0F 3D 00  :...=.........=.
0F10: 11 3A 80 13 80 3C 00 11  05 80 13 80 01 2D 0F 3D  .:...<.......-.=
0F20: 00 11 3A 80 13 80 3D 00  11 05 80 13 80 3E 08 11  ..:...=......>..
0F30: 03 80 9E 0F 41 29 80 21  80 08 11 10 00 02 10 00  ....A).!........
0F40: 17 80 80 56 0F 3C 00 11  03 80 13 80 3D 00 11 29  ...V.<......=..)
0F50: 80 13 80 01 9B 0F 02 10  00 16 80 80 6F 0F 3D 00  ............o.=.
0F60: 11 03 80 13 80 3C 00 11  29 80 13 80 01 9B 0F 13  .....<..).......
0F70: 10 00 3C 80 02 10 00 3D  80 03 8D 0F 3C 00 11 03  ..<....=....<...
0F80: 80 13 80 3D 00 11 29 80  13 80 01 9B 0F 3D 00 11  ...=..)......=..
0F90: 03 80 13 80 3C 00 11 29  80 13 80 01 AC 0F 3D 00  ....<..)......=.
0FA0: 11 03 80 13 80 3D 00 11  29 80 13 80 1B 02 10 00  .....=..).......
0FB0: 01 80 80 E2 0F 3D 00 11  01 80 13 80 3C 00 11 13  .....=......<...
0FC0: 80 13 80 3C 00 11 16 80  13 80 3C 00 11 2C 80 13  ...<......<..,..
0FD0: 80 3D 00 11 2D 80 13 80  3D 00 11 2E 80 13 80 01  .=..-...=.......
0FE0: B4 11 02 10 00 13 80 80  17 10 3D 00 11 01 80 13  ..........=.....
0FF0: 80 3C 00 11 13 80 13 80  3C 00 11 16 80 13 80 3C  .<......<......<
1000: 00 11 2C 80 13 80 3D 00  11 2D 80 13 80 3D 00 11  ..,...=..-...=..
1010: 2E 80 13 80 01 B4 11 02  10 00 16 80 80 4C 10 3D  .............L.=
1020: 00 11 01 80 13 80 3C 00  11 13 80 13 80 3C 00 11  ......<......<..
1030: 16 80 13 80 3C 00 11 2C  80 13 80 3D 00 11 2D 80  ....<..,...=..-.
1040: 13 80 3D 00 11 2E 80 13  80 01 B4 11 02 10 00 17  ..=.............
1050: 80 80 81 10 3D 00 11 01  80 13 80 3D 00 11 13 80  ....=......=....
1060: 13 80 3C 00 11 16 80 13  80 3C 00 11 2C 80 13 80  ..<......<..,...
1070: 3C 00 11 2D 80 13 80 3D  00 11 2E 80 13 80 01 B4  <..-...=........
1080: 11 02 10 00 10 80 80 B6  10 3D 00 11 01 80 13 80  .........=......
1090: 3D 00 11 13 80 13 80 3C  00 11 16 80 13 80 3C 00  =......<......<.
10A0: 11 2C 80 13 80 3C 00 11  2D 80 13 80 3D 00 11 2E  .,...<..-...=...
10B0: 80 13 80 01 B4 11 02 10  00 2F 80 80 EB 10 3D 00  ........./....=.
10C0: 11 01 80 13 80 3D 00 11  13 80 13 80 3D 00 11 16  .....=......=...
10D0: 80 13 80 3C 00 11 2C 80  13 80 3C 00 11 2D 80 13  ...<..,...<..-..
10E0: 80 3C 00 11 2E 80 13 80  01 B4 11 02 10 00 15 80  .<..............
10F0: 80 20 11 3D 00 11 01 80  13 80 3D 00 11 13 80 13  . .=......=.....
1100: 80 3D 00 11 16 80 13 80  3C 00 11 2C 80 13 80 3C  .=......<..,...<
1110: 00 11 2D 80 13 80 3C 00  11 2E 80 13 80 01 B4 11  ..-...<.........
1120: 02 10 00 02 80 80 55 11  3D 00 11 01 80 13 80 3D  ......U.=......=
1130: 00 11 13 80 13 80 3D 00  11 16 80 13 80 3C 00 11  ......=......<..
1140: 2C 80 13 80 3C 00 11 2D  80 13 80 3C 00 11 2E 80  ,...<..-...<....
1150: 13 80 01 B4 11 02 10 00  06 80 80 8A 11 3D 00 11  .............=..
1160: 01 80 13 80 3D 00 11 13  80 13 80 3D 00 11 16 80  ....=......=....
1170: 13 80 3C 00 11 2C 80 13  80 3C 00 11 2D 80 13 80  ..<..,...<..-...
1180: 3C 00 11 2E 80 13 80 01  B4 11 3D 00 11 01 80 13  <.........=.....
1190: 80 3C 00 11 13 80 13 80  3C 00 11 16 80 13 80 3C  .<......<......<
11A0: 00 11 2C 80 13 80 3D 00  11 2D 80 13 80 3D 00 11  ..,...=..-...=..
11B0: 2E 80 13 80 1B 02 10 00  01 80 80 FF 11 3C 00 11  .............<..
11C0: 17 80 13 80 3C 00 11 10  80 13 80 3C 00 11 2F 80  ....<......<../.
11D0: 13 80 3C 01 11 1D 80 13  80 3C 01 11 21 80 13 80  ..<......<..!...
11E0: 3C 00 11 1D 80 13 80 3D  00 11 21 80 13 80 3D 00  <......=..!...=.
11F0: 11 30 80 13 80 3D 00 11  31 80 13 80 01 44 14 02  .0...=..1....D..
1200: 10 00 13 80 80 49 12 3C  00 11 17 80 13 80 3C 00  .....I.<......<.
1210: 11 10 80 13 80 3C 00 11  2F 80 13 80 3C 01 11 1D  .....<../...<...
1220: 80 13 80 3C 01 11 21 80  13 80 3C 00 11 1D 80 13  ...<..!...<.....
1230: 80 3D 00 11 21 80 13 80  3D 00 11 30 80 13 80 3D  .=..!...=..0...=
1240: 00 11 31 80 13 80 01 44  14 02 10 00 16 80 80 93  ..1....D........
1250: 12 3C 00 11 17 80 13 80  3C 00 11 10 80 13 80 3C  .<......<......<
1260: 00 11 2F 80 13 80 3C 01  11 1D 80 13 80 3C 01 11  ../...<......<..
1270: 21 80 13 80 3C 00 11 1D  80 13 80 3D 00 11 21 80  !...<......=..!.
1280: 13 80 3D 00 11 30 80 13  80 3D 00 11 31 80 13 80  ..=..0...=..1...
1290: 01 44 14 02 10 00 17 80  80 DD 12 3D 00 11 17 80  .D.........=....
12A0: 13 80 3C 00 11 10 80 13  80 3C 00 11 2F 80 13 80  ..<......<../...
12B0: 3D 01 11 1D 80 13 80 3C  01 11 21 80 13 80 3C 00  =......<..!...<.
12C0: 11 1D 80 13 80 3C 00 11  21 80 13 80 3D 00 11 30  .....<..!...=..0
12D0: 80 13 80 3D 00 11 31 80  13 80 01 44 14 02 10 00  ...=..1....D....
12E0: 10 80 80 27 13 3D 00 11  17 80 13 80 3C 00 11 10  ...'.=......<...
12F0: 80 13 80 3C 00 11 2F 80  13 80 3D 01 11 1D 80 13  ...<../...=.....
1300: 80 3C 01 11 21 80 13 80  3C 00 11 1D 80 13 80 3C  .<..!...<......<
1310: 00 11 21 80 13 80 3D 00  11 30 80 13 80 3D 00 11  ..!...=..0...=..
1320: 31 80 13 80 01 44 14 02  10 00 2F 80 80 71 13 3D  1....D..../..q.=
1330: 00 11 17 80 13 80 3D 00  11 10 80 13 80 3C 00 11  ......=......<..
1340: 2F 80 13 80 3D 01 11 1D  80 13 80 3D 01 11 21 80  /...=......=..!.
1350: 13 80 3C 00 11 1D 80 13  80 3C 00 11 21 80 13 80  ..<......<..!...
1360: 3C 00 11 30 80 13 80 3D  00 11 31 80 13 80 01 44  <..0...=..1....D
1370: 14 02 10 00 15 80 80 BB  13 3D 00 11 17 80 13 80  .........=......
1380: 3D 00 11 10 80 13 80 3C  00 11 2F 80 13 80 3D 01  =......<../...=.
1390: 11 1D 80 13 80 3D 01 11  21 80 13 80 3C 00 11 1D  .....=..!...<...
13A0: 80 13 80 3C 00 11 21 80  13 80 3C 00 11 30 80 13  ...<..!...<..0..
13B0: 80 3D 00 11 31 80 13 80  01 44 14 02 10 00 02 80  .=..1....D......
13C0: 80 05 14 3D 00 11 17 80  13 80 3D 00 11 10 80 13  ...=......=.....
13D0: 80 3D 00 11 2F 80 13 80  3D 01 11 1D 80 13 80 3D  .=../...=......=
13E0: 01 11 21 80 13 80 3C 00  11 1D 80 13 80 3C 00 11  ..!...<......<..
13F0: 21 80 13 80 3C 00 11 30  80 13 80 3C 00 11 31 80  !...<..0...<..1.
1400: 13 80 01 44 14 3C 00 11  17 80 13 80 3C 00 11 10  ...D.<......<...
1410: 80 13 80 3C 00 11 2F 80  13 80 3C 01 11 1D 80 13  ...<../...<.....
1420: 80 3C 01 11 21 80 13 80  3C 00 11 1D 80 13 80 3D  .<..!...<......=
1430: 00 11 21 80 13 80 3D 00  11 30 80 13 80 3D 00 11  ..!...=..0...=..
1440: 31 80 13 80 1B 02 10 00  01 80 80 81 14 3D 00 11  1............=..
1450: 15 80 13 80 3D 00 11 02  80 13 80 3D 00 11 06 80  ....=......=....
1460: 13 80 3C 00 11 32 80 13  80 3D 00 11 07 80 13 80  ..<..2...=......
1470: 3D 00 11 33 80 13 80 3D  00 11 34 80 13 80 01 92  =..3...=..4.....
1480: 16 02 10 00 13 80 80 BD  14 3D 00 11 15 80 13 80  .........=......
1490: 3D 00 11 02 80 13 80 3D  00 11 06 80 13 80 3C 00  =......=......<.
14A0: 11 32 80 13 80 3D 00 11  07 80 13 80 3D 00 11 33  .2...=......=..3
14B0: 80 13 80 3D 00 11 34 80  13 80 01 92 16 02 10 00  ...=..4.........
14C0: 16 80 80 F9 14 3D 00 11  15 80 13 80 3D 00 11 02  .....=......=...
14D0: 80 13 80 3D 00 11 06 80  13 80 3C 00 11 32 80 13  ...=......<..2..
14E0: 80 3D 00 11 07 80 13 80  3D 00 11 33 80 13 80 3D  .=......=..3...=
14F0: 00 11 34 80 13 80 01 92  16 02 10 00 17 80 80 35  ..4............5
1500: 15 3C 00 11 15 80 13 80  3D 00 11 02 80 13 80 3D  .<......=......=
1510: 00 11 06 80 13 80 3C 00  11 32 80 13 80 3C 00 11  ......<..2...<..
1520: 07 80 13 80 3D 00 11 33  80 13 80 3D 00 11 34 80  ....=..3...=..4.
1530: 13 80 01 92 16 02 10 00  10 80 80 71 15 3C 00 11  ...........q.<..
1540: 15 80 13 80 3D 00 11 02  80 13 80 3D 00 11 06 80  ....=......=....
1550: 13 80 3C 00 11 32 80 13  80 3C 00 11 07 80 13 80  ..<..2...<......
1560: 3D 00 11 33 80 13 80 3D  00 11 34 80 13 80 01 92  =..3...=..4.....
1570: 16 02 10 00 2F 80 80 AD  15 3C 00 11 15 80 13 80  ..../....<......
1580: 3C 00 11 02 80 13 80 3D  00 11 06 80 13 80 3C 00  <......=......<.
1590: 11 32 80 13 80 3C 00 11  07 80 13 80 3C 00 11 33  .2...<......<..3
15A0: 80 13 80 3D 00 11 34 80  13 80 01 92 16 02 10 00  ...=..4.........
15B0: 15 80 80 E9 15 3C 00 11  15 80 13 80 3C 00 11 02  .....<......<...
15C0: 80 13 80 3D 00 11 06 80  13 80 3C 00 11 32 80 13  ...=......<..2..
15D0: 80 3C 00 11 07 80 13 80  3C 00 11 33 80 13 80 3D  .<......<..3...=
15E0: 00 11 34 80 13 80 01 92  16 02 10 00 02 80 80 25  ..4............%
15F0: 16 3C 00 11 15 80 13 80  3C 00 11 02 80 13 80 3C  .<......<......<
1600: 00 11 06 80 13 80 3C 00  11 32 80 13 80 3C 00 11  ......<..2...<..
1610: 07 80 13 80 3C 00 11 33  80 13 80 3C 00 11 34 80  ....<..3...<..4.
1620: 13 80 01 92 16 02 10 00  06 80 80 61 16 3C 00 11  ...........a.<..
1630: 15 80 13 80 3C 00 11 02  80 13 80 3C 00 11 06 80  ....<......<....
1640: 13 80 3C 00 11 32 80 13  80 3C 00 11 07 80 13 80  ..<..2...<......
1650: 3C 00 11 33 80 13 80 3C  00 11 34 80 13 80 01 92  <..3...<..4.....
1660: 16 3D 00 11 15 80 13 80  3D 00 11 02 80 13 80 3D  .=......=......=
1670: 00 11 06 80 13 80 3C 00  11 32 80 13 80 3D 00 11  ......<..2...=..
1680: 07 80 13 80 3D 00 11 33  80 13 80 3D 00 11 34 80  ....=..3...=..4.
1690: 13 80 1B 02 10 00 01 80  80 D6 16 3D 00 11 35 80  ...........=..5.
16A0: 13 80 3D 00 11 36 80 13  80 3D 00 11 37 80 13 80  ..=..6...=..7...
16B0: 3D 01 11 29 80 13 80 3C  01 11 30 80 13 80 3D 01  =..)...<..0...=.
16C0: 11 31 80 13 80 3D 01 11  32 80 13 80 3D 01 11 07  .1...=..2...=...
16D0: 80 13 80 01 E3 18 02 10  00 13 80 80 19 17 3D 00  ..............=.
16E0: 11 35 80 13 80 3D 00 11  36 80 13 80 3D 00 11 37  .5...=..6...=..7
16F0: 80 13 80 3D 01 11 29 80  13 80 3C 01 11 30 80 13  ...=..)...<..0..
1700: 80 3D 01 11 31 80 13 80  3D 01 11 32 80 13 80 3D  .=..1...=..2...=
1710: 01 11 07 80 13 80 01 E3  18 02 10 00 16 80 80 5C  ...............\
1720: 17 3D 00 11 35 80 13 80  3D 00 11 36 80 13 80 3D  .=..5...=..6...=
1730: 00 11 37 80 13 80 3D 01  11 29 80 13 80 3C 01 11  ..7...=..)...<..
1740: 30 80 13 80 3D 01 11 31  80 13 80 3D 01 11 32 80  0...=..1...=..2.
1750: 13 80 3D 01 11 07 80 13  80 01 E3 18 02 10 00 17  ..=.............
1760: 80 80 9F 17 3C 00 11 35  80 13 80 3D 00 11 36 80  ....<..5...=..6.
1770: 13 80 3D 00 11 37 80 13  80 3D 01 11 29 80 13 80  ..=..7...=..)...
1780: 3D 01 11 30 80 13 80 3C  01 11 31 80 13 80 3D 01  =..0...<..1...=.
1790: 11 32 80 13 80 3D 01 11  07 80 13 80 01 E3 18 02  .2...=..........
17A0: 10 00 10 80 80 E2 17 3C  00 11 35 80 13 80 3D 00  .......<..5...=.
17B0: 11 36 80 13 80 3D 00 11  37 80 13 80 3D 01 11 29  .6...=..7...=..)
17C0: 80 13 80 3D 01 11 30 80  13 80 3C 01 11 31 80 13  ...=..0...<..1..
17D0: 80 3D 01 11 32 80 13 80  3D 01 11 07 80 13 80 01  .=..2...=.......
17E0: E3 18 02 10 00 2F 80 80  25 18 3C 00 11 35 80 13  ...../..%.<..5..
17F0: 80 3C 00 11 36 80 13 80  3D 00 11 37 80 13 80 3D  .<..6...=..7...=
1800: 01 11 29 80 13 80 3D 01  11 30 80 13 80 3D 01 11  ..)...=..0...=..
1810: 31 80 13 80 3C 01 11 32  80 13 80 3D 01 11 07 80  1...<..2...=....
1820: 13 80 01 E3 18 02 10 00  15 80 80 68 18 3C 00 11  ...........h.<..
1830: 35 80 13 80 3C 00 11 36  80 13 80 3D 00 11 37 80  5...<..6...=..7.
1840: 13 80 3D 01 11 29 80 13  80 3D 01 11 30 80 13 80  ..=..)...=..0...
1850: 3D 01 11 31 80 13 80 3C  01 11 32 80 13 80 3D 01  =..1...<..2...=.
1860: 11 07 80 13 80 01 E3 18  02 10 00 02 80 80 AB 18  ................
1870: 3C 00 11 35 80 13 80 3C  00 11 36 80 13 80 3C 00  <..5...<..6...<.
1880: 11 37 80 13 80 3C 01 11  29 80 13 80 3D 01 11 30  .7...<..)...=..0
1890: 80 13 80 3D 01 11 31 80  13 80 3D 01 11 32 80 13  ...=..1...=..2..
18A0: 80 3C 01 11 07 80 13 80  01 E3 18 3D 00 11 35 80  .<.........=..5.
18B0: 13 80 3D 00 11 36 80 13  80 3D 00 11 37 80 13 80  ..=..6...=..7...
18C0: 3D 01 11 29 80 13 80 3C  01 11 30 80 13 80 3D 01  =..)...<..0...=.
18D0: 11 31 80 13 80 3D 01 11  32 80 13 80 3D 01 11 07  .1...=..2...=...
18E0: 80 13 80 1B 03 01 10 37  80 43 00 43 01 03 02 11  .......7.C.C....
18F0: 02 10 03 03 11 03 10 03  04 11 04 10 03 05 11 05  ................
1900: 10 03 06 11 06 10 03 07  11 07 10 03 09 11 08 10  ................
1910: 1B 03 01 10 3E 80 47 00  3F 80 40 80 41 80 42 80  ....>.G.?.@.A.B.
1920: 47 01 03 02 11 02 10 03  03 11 03 10 03 04 11 04  G...............
1930: 10 03 05 11 05 10 03 06  11 06 10 03 07 11 07 10  ................
1940: 03 09 11 08 10 1B 2F 00  37 80 11 01 2F 00 38 80  ....../.7.../.8.
1950: 11 01 2F 00 39 80 11 01  2F 00 3A 80 11 01 2F 00  ../.9.../.:.../.
1960: 3B 80 11 01 2F 00 3C 80  11 01 2F 00 3D 80 11 01  ;.../.<.../.=...
1970: 2F 00 3E 80 11 01 2F 00  3F 80 11 01 2F 00 40 80  /.>.../.?.../.@.
1980: 11 01 2F 00 41 80 11 01  2F 00 42 80 11 01 2F 00  ../.A.../.B.../.
1990: 43 80 11 01 2F 00 44 80  11 01 2F 00 45 80 11 01  C.../.D.../.E...
19A0: 2F 00 46 80 11 01 2F 00  47 80 11 01 2F 00 48 80  /.F.../.G.../.H.
19B0: 11 01 2F 00 49 80 11 01  2F 00 4A 80 11 01 2F 00  ../.I.../.J.../.
19C0: 4B 80 11 01 2F 00 4C 80  11 01 2F 00 4D 80 11 01  K.../.L.../.M...
19D0: 2F 00 4E 80 11 01 AC 02  37 80 11 01 AC 02 38 80  /.N.....7.....8.
19E0: 11 01 AC 02 39 80 11 01  AC 02 3A 80 11 01 AC 02  ....9.....:.....
19F0: 3B 80 11 01 AC 02 3C 80  11 01 AC 02 3D 80 11 01  ;.....<.....=...
1A00: AC 02 3E 80 11 01 AC 02  3F 80 11 01 AC 02 40 80  ..>.....?.....@.
1A10: 11 01 AC 02 41 80 11 01  AC 02 42 80 11 01 AC 02  ....A.....B.....
1A20: 43 80 11 01 AC 02 44 80  11 01 AC 02 45 80 11 01  C.....D.....E...
1A30: AC 02 46 80 11 01 AC 02  47 80 11 01 AC 02 48 80  ..F.....G.....H.
1A40: 11 01 AC 02 49 80 11 01  AC 02 4A 80 11 01 AC 02  ....I.....J.....
1A50: 4B 80 11 01 AC 02 4C 80  11 01 AC 02 4D 80 11 01  K.....L.....M...
1A60: AC 02 4E 80 11 01 AC 02  0C 80 11 01 AC 02 0D 80  ..N.............
1A70: 11 01 AC 02 0E 80 11 01  41 01 80 13 80 02 11 02  ........A.......
1A80: 10 02 02 10 13 80 00 93  1A 29 80 0C 80 11 01 03  .........)......
1A90: 01 9A 1A 29 80 0C 80 11  01 02 41 01 80 13 80 03  ...)......A.....
1AA0: 11 02 10 02 02 10 13 80  00 B5 1A 29 80 0D 80 11  ...........)....
1AB0: 01 03 01 BC 1A 29 80 0D  80 11 01 02 41 01 80 13  .....)......A...
1AC0: 80 04 11 02 10 02 02 10  13 80 00 D7 1A 29 80 0E  .............)..
1AD0: 80 11 01 03 01 DE 1A 29  80 0E 80 11 01 02 27 80  .......)......'.
1AE0: 37 80 11 01 02 27 80 38  80 11 01 02 27 80 39 80  7....'.8....'.9.
1AF0: 11 01 02 29 80 3A 80 11  01 02 27 80 3B 80 11 01  ...).:....'.;...
1B00: 02 27 80 3C 80 11 01 02  27 80 3D 80 11 01 02 29  .'.<....'.=....)
1B10: 80 3E 80 11 01 02 27 80  3F 80 11 01 02 27 80 40  .>....'.?....'.@
1B20: 80 11 01 02 27 80 41 80  11 01 02 29 80 42 80 11  ....'.A....).B..
1B30: 01 02 27 80 43 80 11 01  02 27 80 44 80 11 01 02  ..'.C....'.D....
1B40: 27 80 45 80 11 01 02 29  80 46 80 11 01 02 27 80  '.E....).F....'.
1B50: 47 80 11 01 02 27 80 48  80 11 01 02 27 80 49 80  G....'.H....'.I.
1B60: 11 01 02 29 80 4A 80 11  01 02 27 80 4B 80 11 01  ...).J....'.K...
1B70: 02 27 80 4C 80 11 01 02  27 80 4D 80 11 01 02 29  .'.L....'.M....)
1B80: 80 4E 80 11 01 02 1B 42  45 00 80 F0 FF FF 7F F0  .N.....BE.......
1B90: FF FF 7F 66 64 6F 30 01  80 55 00 80 F0 FF FF 7F  ...fdo0..U......
1BA0: F0 FF FF 7F 66 64 6F 30  1A 11 19 1A 26 05 45 00  ....fdo0....&.E.
1BB0: 80 F0 FF FF 7F F0 FF FF  7F 66 64 69 30 01 80 55  .........fdi0..U
1BC0: 00 80 F0 FF FF 7F F0 FF  FF 7F 66 64 69 30 1B 42  ..........fdi0.B
1BD0: 45 00 80 F0 FF FF 7F F0  FF FF 7F 66 64 6F 30 01  E..........fdo0.
1BE0: 80 55 00 80 F0 FF FF 7F  F0 FF FF 7F 66 64 6F 30  .U..........fdo0
1BF0: 03 01 10 43 80 47 00 44  80 45 80 46 80 47 80 47  ...C.G.D.E.F.G.G
1C00: 01 02 02 10 01 80 00 1E  1C 1A 60 0D 1A 09 0D 1A  ..........`.....
1C10: 17 0D 1A 25 0D 1A 33 0D  1A C5 0B 01 1E 1C 45 00  ...%..3.......E.
1C20: 80 F0 FF FF 7F F0 FF FF  7F 66 64 69 30 01 80 55  .........fdi0..U
1C30: 00 80 F0 FF FF 7F F0 FF  FF 7F 66 64 69 30 1B 1A  ..........fdi0..
1C40: A8 1C 02 10 00 01 80 01  4B 1C 1B 3C 00 11 02 10  ........K..<....
1C50: 13 80 1A 26 05 1B 1A A8  1C 02 10 00 01 80 01 62  ...&...........b
1C60: 1C 1B 3D 00 11 02 10 13  80 1A 26 05 1B 03 10 00  ..=.......&.....
1C70: 02 10 03 01 10 16 80 40  06 80 04 80 01 10 02 10  .......@........
1C80: 02 11 00 01 80 00 92 1C  3C 01 10 04 80 13 80 01  ........<.......
1C90: 99 1C 3D 01 10 04 80 13  80 43 00 43 01 03 00 11  ..=......C.C....
1CA0: 02 10 03 10 00 01 80 1B  02 02 10 01 80 03 B9 1C  ................
1CB0: 03 10 00 48 80 1B 01 CF  1C 02 02 10 04 80 02 CA  ...H............
1CC0: 1C 03 10 00 48 80 1B 01  CF 1C 03 10 00 01 80 1B  ....H...........
1CD0: 02 10 03 10 04 10 05 10  06 10 07 10 08 10 09 10  ................
1CE0: 00 17 01 17 02 17 03 17  04 17 05 17 06 17 07 17  ................
1CF0: 08 17 09 17 0A 17 0B 17  0C 17 0D 17 0E 17 0F 17  ................
1D00: 10 17 11 17 12 17 13 17  14 17 15 17 16 17 17 17  ................
1D10: 18 17 19 17 1A 17 1B 17  1C 17 1D 17 1E 17 1F 17  ................
1D20: 01 80 01 80 01 80 01 80  01 80 01 80 01 80 01 80  ................
1D30: 02 13 80 01 80 00 45 1D  03 02 11 0A 00 03 05 11  ......E.........
1D40: 0B 00 01 6F 1D 02 13 80  13 80 00 5A 1D 03 03 11  ...o.......Z....
1D50: 0A 00 03 06 11 0B 00 01  6F 1D 02 13 80 16 80 00  ........o.......
1D60: 6F 1D 03 04 11 0A 00 03  07 11 0B 00 01 6F 1D 1A  o............o..
1D70: 46 19 1B                                          F..             
```

#### Opcodes

```
  0: 0x03F9 [0x42] SET_CLI_EVENT_CANCEL_DATA()
  1: 0x03FA [0x46] CAMERA_CONTROL: Disable user control
  2: 0x03FC [0x03] ExtData[1]->WorkLocal[4] = Work_Zone[2]
  3: 0x0401 [0x03] ExtData[1]->WorkLocal[2] = Work_Zone[3]
  4: 0x0406 [0x03] ExtData[1]->WorkLocal[5] = Work_Zone[4]
  5: 0x040B [0x03] ExtData[1]->WorkLocal[3] = Work_Zone[5]
  6: 0x0410 [0x03] ExtData[1]->WorkLocal[1] = Work_Zone[6]
  7: 0x0415 [0x45] LOAD_SCHEDULED_TASK: Load scheduler "fdo0" with entities [LocalPlayer, LocalPlayer], work=[200*, 0*]
  8: 0x0426 [0x55] WAIT_LOAD_SCHEDULER: Wait for scheduler "fdo0" with entities [LocalPlayer, LocalPlayer], work=200*
  9: 0x0435 [0x03] ExtData[1]->WorkLocal[10] = Work_Zone[7]
 10: 0x043A [0x03] ExtData[1]->WorkLocal[11] = Work_Zone[8]
 11: 0x043F [0x40] SET_BIT_WORK_RANGE(start_bit=8*, end_bit=15*, target=Work_Zone_Memorize[9], source=Work_Zone[9])
 12: 0x0448 [0x1A] CALL_SUBROUTINE(address=0x1D30)
 13: 0x044B [0x45] LOAD_SCHEDULED_TASK: Load scheduler "s761" with entities [LocalPlayer, LocalPlayer], work=[23*, 0*]
 14: 0x045C [0x45] LOAD_SCHEDULED_TASK: Load scheduler "fdi0" with entities [LocalPlayer, LocalPlayer], work=[200*, 0*]
 15: 0x046D [0x55] WAIT_LOAD_SCHEDULER: Wait for scheduler "fdi0" with entities [LocalPlayer, LocalPlayer], work=200*
 16: 0x047C [0x02] IF !(ExtData[1]->WorkLocal[3] == 0*) GOTO 0x0490
 17: 0x0484 [0x03] Work_Zone[2] = ExtData[1]->WorkLocal[4]
 18: 0x0489 [0x48] [System] [7354*]:
    → "Fertilize the furrow with the $0? Beware that fertilizer cannot be recovered once used."
 19: 0x048C [0x23] WAIT_FOR_DIALOG_INTERACTION
 20: 0x048D [0x01] GOTO 0x0499
 21: 0x0490 [0x03] Work_Zone[4] = ExtData[1]->WorkLocal[5]
 22: 0x0495 [0x48] [System] [7355*]:
    → "Using this new fertilizer will overpower the effects of the $2 you already spread."
 23: 0x0498 [0x23] WAIT_FOR_DIALOG_INTERACTION

SUBROUTINE_0499:
 24: 0x0499 [0x03] Work_Zone[2] = ExtData[1]->WorkLocal[4]
 25: 0x049E [0x24] CREATE_DIALOG(message_id=7356*, default_option=0*, option_flags=0*)
    → "Use the $0? [Yes./No.]"
 26: 0x04A5 [0x25] WAIT_DIALOG_SELECT()
 27: 0x04A6 [0x02] IF !(Work_Zone[0] == 0*) GOTO 0x04DD
 28: 0x04AE [0x03] Work_Zone[1] = 17*
 29: 0x04B3 [0x03] Work_Zone[3] = ExtData[1]->WorkLocal[4]
 30: 0x04B8 [0x02] IF !(ExtData[1]->WorkLocal[1] == 0*) GOTO 0x04CC
 31: 0x04C0 [0x03] Work_Zone[3] = ExtData[1]->WorkLocal[4]
 32: 0x04C5 [0x48] [System] [7357*]:
    → "You have fertilized the furrow with $1."
 33: 0x04C8 [0x23] WAIT_FOR_DIALOG_INTERACTION
 34: 0x04C9 [0x01] GOTO 0x04DA
 35: 0x04CC [0x03] Work_Zone[2] = ExtData[1]->WorkLocal[1]
 36: 0x04D1 [0x03] Work_Zone[3] = ExtData[1]->WorkLocal[4]
 37: 0x04D6 [0x48] [System] [7358*]:
    → "You have fertilized the $0 with $1."
 38: 0x04D9 [0x23] WAIT_FOR_DIALOG_INTERACTION

SUBROUTINE_04DA:
 39: 0x04DA [0x01] GOTO 0x04E2
 40: 0x04DD [0x03] Work_Zone[1] = 1073741824*

SUBROUTINE_04E2:
 41: 0x04E2 [0x45] LOAD_SCHEDULED_TASK: Load scheduler "fdo0" with entities [LocalPlayer, LocalPlayer], work=[200*, 0*]
 42: 0x04F3 [0x55] WAIT_LOAD_SCHEDULER: Wait for scheduler "fdo0" with entities [LocalPlayer, LocalPlayer], work=200*
 43: 0x0502 [0x52] END_LOAD_SCHEDULER: End scheduler "s761" with entities [LocalPlayer, LocalPlayer], work=23*
 44: 0x0511 [0x46] CAMERA_CONTROL: Restore default settings
 45: 0x0513 [0x45] LOAD_SCHEDULED_TASK: Load scheduler "fdi0" with entities [LocalPlayer, LocalPlayer], work=[200*, 0*]
 46: 0x0524 [0x21] END_EVENT
 47: 0x0525 [0x00] END_REQSTACK()

SUBROUTINE_1946:
 48: 0x1946 [0x2F] Plant00 (ID: 17924151/0x01118037)->Render.Flags0 &= ~0x80000 // Bit 19
 49: 0x194C [0x2F] Plant01 (ID: 17924152/0x01118038)->Render.Flags0 &= ~0x80000 // Bit 19
 50: 0x1952 [0x2F] Plant02 (ID: 17924153/0x01118039)->Render.Flags0 &= ~0x80000 // Bit 19
 51: 0x1958 [0x2F] Plant03 (ID: 17924154/0x0111803A)->Render.Flags0 &= ~0x80000 // Bit 19
 52: 0x195E [0x2F] PlantFurn00 (ID: 17924155/0x0111803B)->Render.Flags0 &= ~0x80000 // Bit 19
 53: 0x1964 [0x2F] PlantFurn01 (ID: 17924156/0x0111803C)->Render.Flags0 &= ~0x80000 // Bit 19
 54: 0x196A [0x2F] PlantFurn02 (ID: 17924157/0x0111803D)->Render.Flags0 &= ~0x80000 // Bit 19
 55: 0x1970 [0x2F] PlantFurn03 (ID: 17924158/0x0111803E)->Render.Flags0 &= ~0x80000 // Bit 19
 56: 0x1976 [0x2F] Plant10 (ID: 17924159/0x0111803F)->Render.Flags0 &= ~0x80000 // Bit 19
 57: 0x197C [0x2F] Plant11 (ID: 17924160/0x01118040)->Render.Flags0 &= ~0x80000 // Bit 19
 58: 0x1982 [0x2F] Plant12 (ID: 17924161/0x01118041)->Render.Flags0 &= ~0x80000 // Bit 19
 59: 0x1988 [0x2F] Plant13 (ID: 17924162/0x01118042)->Render.Flags0 &= ~0x80000 // Bit 19
 60: 0x198E [0x2F] PlantFurn10 (ID: 17924163/0x01118043)->Render.Flags0 &= ~0x80000 // Bit 19
 61: 0x1994 [0x2F] PlantFurn11 (ID: 17924164/0x01118044)->Render.Flags0 &= ~0x80000 // Bit 19
 62: 0x199A [0x2F] PlantFurn12 (ID: 17924165/0x01118045)->Render.Flags0 &= ~0x80000 // Bit 19
 63: 0x19A0 [0x2F] PlantFurn13 (ID: 17924166/0x01118046)->Render.Flags0 &= ~0x80000 // Bit 19
 64: 0x19A6 [0x2F] Plant20 (ID: 17924167/0x01118047)->Render.Flags0 &= ~0x80000 // Bit 19
 65: 0x19AC [0x2F] Plant21 (ID: 17924168/0x01118048)->Render.Flags0 &= ~0x80000 // Bit 19
 66: 0x19B2 [0x2F] Plant22 (ID: 17924169/0x01118049)->Render.Flags0 &= ~0x80000 // Bit 19
 67: 0x19B8 [0x2F] Plant23 (ID: 17924170/0x0111804A)->Render.Flags0 &= ~0x80000 // Bit 19
 68: 0x19BE [0x2F] PlantFurn20 (ID: 17924171/0x0111804B)->Render.Flags0 &= ~0x80000 // Bit 19
 69: 0x19C4 [0x2F] PlantFurn21 (ID: 17924172/0x0111804C)->Render.Flags0 &= ~0x80000 // Bit 19
 70: 0x19CA [0x2F] PlantFurn22 (ID: 17924173/0x0111804D)->Render.Flags0 &= ~0x80000 // Bit 19
 71: 0x19D0 [0x2F] PlantFurn23 (ID: 17924174/0x0111804E)->Render.Flags0 &= ~0x80000 // Bit 19
 72: 0x19D6 [0xAC] Plant00 (ID: 17924151/0x01118037)->Render.Flags6 |= 0x02 // Set bit 1
 73: 0x19DC [0xAC] Plant01 (ID: 17924152/0x01118038)->Render.Flags6 |= 0x02 // Set bit 1
 74: 0x19E2 [0xAC] Plant02 (ID: 17924153/0x01118039)->Render.Flags6 |= 0x02 // Set bit 1
 75: 0x19E8 [0xAC] Plant03 (ID: 17924154/0x0111803A)->Render.Flags6 |= 0x02 // Set bit 1
 76: 0x19EE [0xAC] PlantFurn00 (ID: 17924155/0x0111803B)->Render.Flags6 |= 0x02 // Set bit 1
 77: 0x19F4 [0xAC] PlantFurn01 (ID: 17924156/0x0111803C)->Render.Flags6 |= 0x02 // Set bit 1
 78: 0x19FA [0xAC] PlantFurn02 (ID: 17924157/0x0111803D)->Render.Flags6 |= 0x02 // Set bit 1
 79: 0x1A00 [0xAC] PlantFurn03 (ID: 17924158/0x0111803E)->Render.Flags6 |= 0x02 // Set bit 1
 80: 0x1A06 [0xAC] Plant10 (ID: 17924159/0x0111803F)->Render.Flags6 |= 0x02 // Set bit 1
 81: 0x1A0C [0xAC] Plant11 (ID: 17924160/0x01118040)->Render.Flags6 |= 0x02 // Set bit 1
 82: 0x1A12 [0xAC] Plant12 (ID: 17924161/0x01118041)->Render.Flags6 |= 0x02 // Set bit 1
 83: 0x1A18 [0xAC] Plant13 (ID: 17924162/0x01118042)->Render.Flags6 |= 0x02 // Set bit 1
 84: 0x1A1E [0xAC] PlantFurn10 (ID: 17924163/0x01118043)->Render.Flags6 |= 0x02 // Set bit 1
 85: 0x1A24 [0xAC] PlantFurn11 (ID: 17924164/0x01118044)->Render.Flags6 |= 0x02 // Set bit 1
 86: 0x1A2A [0xAC] PlantFurn12 (ID: 17924165/0x01118045)->Render.Flags6 |= 0x02 // Set bit 1
 87: 0x1A30 [0xAC] PlantFurn13 (ID: 17924166/0x01118046)->Render.Flags6 |= 0x02 // Set bit 1
 88: 0x1A36 [0xAC] Plant20 (ID: 17924167/0x01118047)->Render.Flags6 |= 0x02 // Set bit 1
 89: 0x1A3C [0xAC] Plant21 (ID: 17924168/0x01118048)->Render.Flags6 |= 0x02 // Set bit 1
 90: 0x1A42 [0xAC] Plant22 (ID: 17924169/0x01118049)->Render.Flags6 |= 0x02 // Set bit 1
 91: 0x1A48 [0xAC] Plant23 (ID: 17924170/0x0111804A)->Render.Flags6 |= 0x02 // Set bit 1
 92: 0x1A4E [0xAC] PlantFurn20 (ID: 17924171/0x0111804B)->Render.Flags6 |= 0x02 // Set bit 1
 93: 0x1A54 [0xAC] PlantFurn21 (ID: 17924172/0x0111804C)->Render.Flags6 |= 0x02 // Set bit 1
 94: 0x1A5A [0xAC] PlantFurn22 (ID: 17924173/0x0111804D)->Render.Flags6 |= 0x02 // Set bit 1
 95: 0x1A60 [0xAC] PlantFurn23 (ID: 17924174/0x0111804E)->Render.Flags6 |= 0x02 // Set bit 1
 96: 0x1A66 [0xAC] Unknown NPC (ID: 17924108/0x0111800C)->Render.Flags6 |= 0x02 // Set bit 1
 97: 0x1A6C [0xAC] Unknown NPC (ID: 17924109/0x0111800D)->Render.Flags6 |= 0x02 // Set bit 1
 98: 0x1A72 [0xAC] Unknown NPC (ID: 17924110/0x0111800E)->Render.Flags6 |= 0x02 // Set bit 1
 99: 0x1A78 [0x41] Work_Zone[2] = Work_Zone_Memorize[2] (bits 0*-1*)
100: 0x1A81 [0x02] IF !(Work_Zone[2] == 1*) GOTO 0x1A93
101: 0x1A89 [0x29] REQ_SET_WAIT(priority=0x80, entity_id=Unknown NPC (ID: 17924108/0x0111800C), tag_num=0x03)
102: 0x1A90 [0x01] GOTO 0x1A9A
103: 0x1A93 [0x29] REQ_SET_WAIT(priority=0x80, entity_id=Unknown NPC (ID: 17924108/0x0111800C), tag_num=0x02)

SUBROUTINE_1A9A:
104: 0x1A9A [0x41] Work_Zone[2] = Work_Zone_Memorize[3] (bits 0*-1*)
105: 0x1AA3 [0x02] IF !(Work_Zone[2] == 1*) GOTO 0x1AB5
106: 0x1AAB [0x29] REQ_SET_WAIT(priority=0x80, entity_id=Unknown NPC (ID: 17924109/0x0111800D), tag_num=0x03)
107: 0x1AB2 [0x01] GOTO 0x1ABC
108: 0x1AB5 [0x29] REQ_SET_WAIT(priority=0x80, entity_id=Unknown NPC (ID: 17924109/0x0111800D), tag_num=0x02)

SUBROUTINE_1ABC:
109: 0x1ABC [0x41] Work_Zone[2] = Work_Zone_Memorize[4] (bits 0*-1*)
110: 0x1AC5 [0x02] IF !(Work_Zone[2] == 1*) GOTO 0x1AD7
111: 0x1ACD [0x29] REQ_SET_WAIT(priority=0x80, entity_id=Unknown NPC (ID: 17924110/0x0111800E), tag_num=0x03)
112: 0x1AD4 [0x01] GOTO 0x1ADE
113: 0x1AD7 [0x29] REQ_SET_WAIT(priority=0x80, entity_id=Unknown NPC (ID: 17924110/0x0111800E), tag_num=0x02)

SUBROUTINE_1ADE:
114: 0x1ADE [0x27] REQ_SET(priority=0x80, entity_id=Plant00 (ID: 17924151/0x01118037), tag_num=0x02)
115: 0x1AE5 [0x27] REQ_SET(priority=0x80, entity_id=Plant01 (ID: 17924152/0x01118038), tag_num=0x02)
116: 0x1AEC [0x27] REQ_SET(priority=0x80, entity_id=Plant02 (ID: 17924153/0x01118039), tag_num=0x02)
117: 0x1AF3 [0x29] REQ_SET_WAIT(priority=0x80, entity_id=Plant03 (ID: 17924154/0x0111803A), tag_num=0x02)
118: 0x1AFA [0x27] REQ_SET(priority=0x80, entity_id=PlantFurn00 (ID: 17924155/0x0111803B), tag_num=0x02)
119: 0x1B01 [0x27] REQ_SET(priority=0x80, entity_id=PlantFurn01 (ID: 17924156/0x0111803C), tag_num=0x02)
120: 0x1B08 [0x27] REQ_SET(priority=0x80, entity_id=PlantFurn02 (ID: 17924157/0x0111803D), tag_num=0x02)
121: 0x1B0F [0x29] REQ_SET_WAIT(priority=0x80, entity_id=PlantFurn03 (ID: 17924158/0x0111803E), tag_num=0x02)
122: 0x1B16 [0x27] REQ_SET(priority=0x80, entity_id=Plant10 (ID: 17924159/0x0111803F), tag_num=0x02)
123: 0x1B1D [0x27] REQ_SET(priority=0x80, entity_id=Plant11 (ID: 17924160/0x01118040), tag_num=0x02)
124: 0x1B24 [0x27] REQ_SET(priority=0x80, entity_id=Plant12 (ID: 17924161/0x01118041), tag_num=0x02)
125: 0x1B2B [0x29] REQ_SET_WAIT(priority=0x80, entity_id=Plant13 (ID: 17924162/0x01118042), tag_num=0x02)
126: 0x1B32 [0x27] REQ_SET(priority=0x80, entity_id=PlantFurn10 (ID: 17924163/0x01118043), tag_num=0x02)
127: 0x1B39 [0x27] REQ_SET(priority=0x80, entity_id=PlantFurn11 (ID: 17924164/0x01118044), tag_num=0x02)
128: 0x1B40 [0x27] REQ_SET(priority=0x80, entity_id=PlantFurn12 (ID: 17924165/0x01118045), tag_num=0x02)
129: 0x1B47 [0x29] REQ_SET_WAIT(priority=0x80, entity_id=PlantFurn13 (ID: 17924166/0x01118046), tag_num=0x02)
130: 0x1B4E [0x27] REQ_SET(priority=0x80, entity_id=Plant20 (ID: 17924167/0x01118047), tag_num=0x02)
131: 0x1B55 [0x27] REQ_SET(priority=0x80, entity_id=Plant21 (ID: 17924168/0x01118048), tag_num=0x02)
132: 0x1B5C [0x27] REQ_SET(priority=0x80, entity_id=Plant22 (ID: 17924169/0x01118049), tag_num=0x02)
133: 0x1B63 [0x29] REQ_SET_WAIT(priority=0x80, entity_id=Plant23 (ID: 17924170/0x0111804A), tag_num=0x02)
134: 0x1B6A [0x27] REQ_SET(priority=0x80, entity_id=PlantFurn20 (ID: 17924171/0x0111804B), tag_num=0x02)
135: 0x1B71 [0x27] REQ_SET(priority=0x80, entity_id=PlantFurn21 (ID: 17924172/0x0111804C), tag_num=0x02)
136: 0x1B78 [0x27] REQ_SET(priority=0x80, entity_id=PlantFurn22 (ID: 17924173/0x0111804D), tag_num=0x02)
137: 0x1B7F [0x29] REQ_SET_WAIT(priority=0x80, entity_id=PlantFurn23 (ID: 17924174/0x0111804E), tag_num=0x02)
138: 0x1B86 [0x1B] RETURN

SUBROUTINE_1D30:
139: 0x1D30 [0x02] IF !(1* == 0*) GOTO 0x1D45
140: 0x1D38 [0x03] Work_Zone_Memorize[2] = ExtData[1]->WorkLocal[10]
141: 0x1D3D [0x03] Work_Zone_Memorize[5] = ExtData[1]->WorkLocal[11]
142: 0x1D42 [0x01] GOTO 0x1D6F
143: 0x1D45 [0x02] IF !(1* == 1*) GOTO 0x1D5A
144: 0x1D4D [0x03] Work_Zone_Memorize[3] = ExtData[1]->WorkLocal[10]
145: 0x1D52 [0x03] Work_Zone_Memorize[6] = ExtData[1]->WorkLocal[11]
146: 0x1D57 [0x01] GOTO 0x1D6F
147: 0x1D5A [0x02] IF !(1* == 2*) GOTO 0x1D6F
148: 0x1D62 [0x03] Work_Zone_Memorize[4] = ExtData[1]->WorkLocal[10]
149: 0x1D67 [0x03] Work_Zone_Memorize[7] = ExtData[1]->WorkLocal[11]
150: 0x1D6C [0x01] GOTO 0x1D6F

SUBROUTINE_1D6F:
151: 0x1D6F [0x1A] CALL_SUBROUTINE(address=0x1946)
152: 0x1D72 [0x1B] RETURN
```

#### Data or dead code:

```
# Dead code (unreachable instructions):
     0x0526 [0x92] Green Thumb Moogle (ID: 17924125/0x0111801D)->Render.Flags3 = Flags3  // No change (flag=0)
     0x052C [0x1A] CALL_SUBROUTINE(address=0x0D60)
     0x052F [0x1A] CALL_SUBROUTINE(address=0x059D)
     0x0532 [0x1A] CALL_SUBROUTINE(address=0x0661)
     0x0535 [0x1A] CALL_SUBROUTINE(address=0x080B)
     0x0538 [0x1A] CALL_SUBROUTINE(address=0x0A38)
     0x053B [0x1A] CALL_SUBROUTINE(address=0x1946)
     0x053E [0x1A] CALL_SUBROUTINE(address=0x0A46)
     0x0541 [0x1A] CALL_SUBROUTINE(address=0x0B22)
     0x0544 [0x1A] CALL_SUBROUTINE(address=0x0B59)
     0x0547 [0x1A] CALL_SUBROUTINE(address=0x0B7C)
     0x054A [0x1A] CALL_SUBROUTINE(address=0x0BA8)
     0x054D [0x1A] CALL_SUBROUTINE(address=0x0C48)
     0x0550 [0x1A] CALL_SUBROUTINE(address=0x0CD2)
     0x0553 [0x1A] CALL_SUBROUTINE(address=0x0CFB)
     0x0556 [0x1A] CALL_SUBROUTINE(address=0x0D41)
     0x0559 [0x1A] CALL_SUBROUTINE(address=0x0979)
     0x055C [0xAC] Coastal Fishing Net (ID: 17924149/0x01118035)->Render.Flags6 |= 0x02 // Set bit 1
     0x0562 [0x1B] RETURN
     0x0563 [0x92] Green Thumb Moogle (ID: 17924125/0x0111801D)->Render.Flags3 = Flags3  // No change (flag=0)
     0x0569 [0x1A] CALL_SUBROUTINE(address=0x059D)
     0x056C [0x1A] CALL_SUBROUTINE(address=0x0661)
     0x056F [0x1A] CALL_SUBROUTINE(address=0x080B)
     0x0572 [0x1A] CALL_SUBROUTINE(address=0x0A38)
     0x0575 [0x1A] CALL_SUBROUTINE(address=0x1946)
     0x0578 [0x1A] CALL_SUBROUTINE(address=0x0A46)
     0x057B [0x1A] CALL_SUBROUTINE(address=0x0B22)
     0x057E [0x1A] CALL_SUBROUTINE(address=0x0B59)
     0x0581 [0x1A] CALL_SUBROUTINE(address=0x0B7C)
     0x0584 [0x1A] CALL_SUBROUTINE(address=0x0BA8)
     0x0587 [0x1A] CALL_SUBROUTINE(address=0x0C48)
     0x058A [0x1A] CALL_SUBROUTINE(address=0x0CD2)
     0x058D [0x1A] CALL_SUBROUTINE(address=0x0CFB)
     0x0590 [0x1A] CALL_SUBROUTINE(address=0x0D41)
     0x0593 [0x1A] CALL_SUBROUTINE(address=0x0979)
     0x0596 [0xAC] Coastal Fishing Net (ID: 17924149/0x01118035)->Render.Flags6 |= 0x02 // Set bit 1
     0x059C [0x1B] RETURN
     0x059D [0xAC] Unknown NPC (ID: 17924105/0x01118009)->Render.Flags6 |= 0x02 // Set bit 1
     0x05A3 [0x3E] IF !(Work_Zone_Memorize[0] bit 0*) GOTO 0x05B4
     0x05AA [0x27] REQ_SET(priority=0x80, entity_id=Unknown NPC (ID: 17924105/0x01118009), tag_num=0x02)
     0x05B1 [0x01] GOTO 0x05BB
     0x05B4 [0x27] REQ_SET(priority=0x80, entity_id=Unknown NPC (ID: 17924105/0x01118009), tag_num=0x03)
     0x05BB [0xAC] Unknown NPC (ID: 17924106/0x0111800A)->Render.Flags6 |= 0x02 // Set bit 1
     0x05C1 [0x3E] IF !(Work_Zone_Memorize[0] bit 1*) GOTO 0x05D2
     0x05C8 [0x27] REQ_SET(priority=0x80, entity_id=Unknown NPC (ID: 17924106/0x0111800A), tag_num=0x02)
     0x05CF [0x01] GOTO 0x05D9
     0x05D2 [0x27] REQ_SET(priority=0x80, entity_id=Unknown NPC (ID: 17924106/0x0111800A), tag_num=0x03)
     0x05D9 [0xAC] Unknown NPC (ID: 17924107/0x0111800B)->Render.Flags6 |= 0x02 // Set bit 1
     0x05DF [0x3E] IF !(Work_Zone_Memorize[0] bit 2*) GOTO 0x05F0
     0x05E6 [0x29] REQ_SET_WAIT(priority=0x80, entity_id=Unknown NPC (ID: 17924107/0x0111800B), tag_num=0x02)
     0x05ED [0x01] GOTO 0x05F7
     0x05F0 [0x29] REQ_SET_WAIT(priority=0x80, entity_id=Unknown NPC (ID: 17924107/0x0111800B), tag_num=0x03)
     0x05F7 [0x92] Garden Furrow (ID: 17924128/0x01118020)->Render.Flags3 ^= 0x01
     0x05FD [0x92] Garden Furrow #2 (ID: 17924129/0x01118021)->Render.Flags3 ^= 0x01
     0x0603 [0x92] Garden Furrow #3 (ID: 17924130/0x01118022)->Render.Flags3 ^= 0x01
     0x0609 [0xAC] Garden Furrow (ID: 17924128/0x01118020)->Render.Flags6 |= 0x02 // Set bit 1
     0x060F [0x3E] IF !(Work_Zone_Memorize[0] bit 26*) GOTO 0x061F
     0x0616 [0x4E] SET_ENTITY_HIDE_FLAG: Show Garden Furrow (ID: 17924128/0x01118020)
     0x061C [0x01] GOTO 0x0625
     0x061F [0x4E] SET_ENTITY_HIDE_FLAG: Hide Garden Furrow (ID: 17924128/0x01118020)
     0x0625 [0xAC] Garden Furrow #2 (ID: 17924129/0x01118021)->Render.Flags6 |= 0x02 // Set bit 1
     0x062B [0x3E] IF !(Work_Zone_Memorize[0] bit 27*) GOTO 0x063B
     0x0632 [0x4E] SET_ENTITY_HIDE_FLAG: Show Garden Furrow #2 (ID: 17924129/0x01118021)
     0x0638 [0x01] GOTO 0x0641
     0x063B [0x4E] SET_ENTITY_HIDE_FLAG: Hide Garden Furrow #2 (ID: 17924129/0x01118021)
     0x0641 [0xAC] Garden Furrow #3 (ID: 17924130/0x01118022)->Render.Flags6 |= 0x02 // Set bit 1
     0x0647 [0x3E] IF !(Work_Zone_Memorize[0] bit 28*) GOTO 0x0657
     0x064E [0x4E] SET_ENTITY_HIDE_FLAG: Show Garden Furrow #3 (ID: 17924130/0x01118022)
     0x0654 [0x01] GOTO 0x065D
     0x0657 [0x4E] SET_ENTITY_HIDE_FLAG: Hide Garden Furrow #3 (ID: 17924130/0x01118022)
     0x065D [0x1C] WAIT(1* ticks)
     0x0660 [0x1B] RETURN
     0x0661 [0xAC] Unknown NPC (ID: 17924111/0x0111800F)->Render.Flags6 |= 0x02 // Set bit 1
     0x0667 [0x3E] IF !(Work_Zone_Memorize[0] bit 3*) GOTO 0x0678
     0x066E [0x27] REQ_SET(priority=0x80, entity_id=Unknown NPC (ID: 17924111/0x0111800F), tag_num=0x02)
     0x0675 [0x01] GOTO 0x067F
     0x0678 [0x27] REQ_SET(priority=0x80, entity_id=Unknown NPC (ID: 17924111/0x0111800F), tag_num=0x03)
     0x067F [0xAC] Unknown NPC (ID: 17924112/0x01118010)->Render.Flags6 |= 0x02 // Set bit 1
     0x0685 [0x3E] IF !(Work_Zone_Memorize[0] bit 4*) GOTO 0x0696
     0x068C [0x27] REQ_SET(priority=0x80, entity_id=Unknown NPC (ID: 17924112/0x01118010), tag_num=0x02)
     0x0693 [0x01] GOTO 0x069D
     0x0696 [0x27] REQ_SET(priority=0x80, entity_id=Unknown NPC (ID: 17924112/0x01118010), tag_num=0x03)
     0x069D [0xAC] Unknown NPC (ID: 17924113/0x01118011)->Render.Flags6 |= 0x02 // Set bit 1
     0x06A3 [0x3E] IF !(Work_Zone_Memorize[0] bit 5*) GOTO 0x06B4
     0x06AA [0x29] REQ_SET_WAIT(priority=0x80, entity_id=Unknown NPC (ID: 17924113/0x01118011), tag_num=0x02)
     0x06B1 [0x01] GOTO 0x06BB
     0x06B4 [0x29] REQ_SET_WAIT(priority=0x80, entity_id=Unknown NPC (ID: 17924113/0x01118011), tag_num=0x03)
     0x06BB [0xAC] Unknown NPC (ID: 17924122/0x0111801A)->Render.Flags6 |= 0x02 // Set bit 1
     0x06C1 [0x3E] IF !(Work_Zone_Memorize[1] bit 18*) GOTO 0x06D2
     0x06C8 [0x27] REQ_SET(priority=0x80, entity_id=Unknown NPC (ID: 17924122/0x0111801A), tag_num=0x02)
     0x06CF [0x01] GOTO 0x06D9
     0x06D2 [0x27] REQ_SET(priority=0x80, entity_id=Unknown NPC (ID: 17924122/0x0111801A), tag_num=0x03)
     0x06D9 [0xAC] Unknown NPC (ID: 17924123/0x0111801B)->Render.Flags6 |= 0x02 // Set bit 1
     0x06DF [0x3E] IF !(Work_Zone_Memorize[1] bit 19*) GOTO 0x06F0
     0x06E6 [0x29] REQ_SET_WAIT(priority=0x80, entity_id=Unknown NPC (ID: 17924123/0x0111801B), tag_num=0x02)
     0x06ED [0x01] GOTO 0x06F7
     0x06F0 [0x29] REQ_SET_WAIT(priority=0x80, entity_id=Unknown NPC (ID: 17924123/0x0111801B), tag_num=0x03)
     0x06F7 [0xAC] Arboreal Grove (ID: 17924131/0x01118023)->Render.Flags6 |= 0x02 // Set bit 1
     0x06FD [0xAC] Arboreal Grove (ID: 17924132/0x01118024)->Render.Flags6 |= 0x02 // Set bit 1
     0x0703 [0x3E] IF !(Work_Zone_Memorize[0] bit 18*) GOTO 0x072F
     0x070A [0x3E] IF !(Work_Zone_Memorize[8] bit 0*) GOTO 0x0720
     0x0711 [0x4E] SET_ENTITY_HIDE_FLAG: Show Arboreal Grove (ID: 17924132/0x01118024)
     0x0717 [0x4E] SET_ENTITY_HIDE_FLAG: Hide Arboreal Grove (ID: 17924131/0x01118023)
     0x071D [0x01] GOTO 0x072C
     0x0720 [0x4E] SET_ENTITY_HIDE_FLAG: Show Arboreal Grove (ID: 17924131/0x01118023)
     0x0726 [0x4E] SET_ENTITY_HIDE_FLAG: Hide Arboreal Grove (ID: 17924132/0x01118024)
     0x072C [0x01] GOTO 0x073B
     0x072F [0x4E] SET_ENTITY_HIDE_FLAG: Hide Arboreal Grove (ID: 17924131/0x01118023)
     0x0735 [0x4E] SET_ENTITY_HIDE_FLAG: Hide Arboreal Grove (ID: 17924132/0x01118024)
     0x073B [0xAC] Arboreal Grove #2 (ID: 17924133/0x01118025)->Render.Flags6 |= 0x02 // Set bit 1
     0x0741 [0xAC] Arboreal Grove #2 (ID: 17924134/0x01118026)->Render.Flags6 |= 0x02 // Set bit 1
     0x0747 [0x3E] IF !(Work_Zone_Memorize[0] bit 19*) GOTO 0x0773
     0x074E [0x3E] IF !(Work_Zone_Memorize[8] bit 1*) GOTO 0x0764
     0x0755 [0x4E] SET_ENTITY_HIDE_FLAG: Show Arboreal Grove #2 (ID: 17924134/0x01118026)
     0x075B [0x4E] SET_ENTITY_HIDE_FLAG: Hide Arboreal Grove #2 (ID: 17924133/0x01118025)
     0x0761 [0x01] GOTO 0x0770
     0x0764 [0x4E] SET_ENTITY_HIDE_FLAG: Show Arboreal Grove #2 (ID: 17924133/0x01118025)
     0x076A [0x4E] SET_ENTITY_HIDE_FLAG: Hide Arboreal Grove #2 (ID: 17924134/0x01118026)
     0x0770 [0x01] GOTO 0x077F
     0x0773 [0x4E] SET_ENTITY_HIDE_FLAG: Hide Arboreal Grove #2 (ID: 17924133/0x01118025)
     0x0779 [0x4E] SET_ENTITY_HIDE_FLAG: Hide Arboreal Grove #2 (ID: 17924134/0x01118026)
     0x077F [0xAC] Arboreal Grove #3 (ID: 17924135/0x01118027)->Render.Flags6 |= 0x02 // Set bit 1
     0x0785 [0xAC] Arboreal Grove #3 (ID: 17924136/0x01118028)->Render.Flags6 |= 0x02 // Set bit 1
     0x078B [0x3E] IF !(Work_Zone_Memorize[0] bit 20*) GOTO 0x07B7
     0x0792 [0x3E] IF !(Work_Zone_Memorize[8] bit 2*) GOTO 0x07A8
     0x0799 [0x4E] SET_ENTITY_HIDE_FLAG: Show Arboreal Grove #3 (ID: 17924136/0x01118028)
     0x079F [0x4E] SET_ENTITY_HIDE_FLAG: Hide Arboreal Grove #3 (ID: 17924135/0x01118027)
     0x07A5 [0x01] GOTO 0x07B4
     0x07A8 [0x4E] SET_ENTITY_HIDE_FLAG: Show Arboreal Grove #3 (ID: 17924135/0x01118027)
     0x07AE [0x4E] SET_ENTITY_HIDE_FLAG: Hide Arboreal Grove #3 (ID: 17924136/0x01118028)
     0x07B4 [0x01] GOTO 0x07C3
     0x07B7 [0x4E] SET_ENTITY_HIDE_FLAG: Hide Arboreal Grove #3 (ID: 17924135/0x01118027)
     0x07BD [0x4E] SET_ENTITY_HIDE_FLAG: Hide Arboreal Grove #3 (ID: 17924136/0x01118028)
     0x07C3 [0xAC] Arboreal Grove #4 (ID: 17924137/0x01118029)->Render.Flags6 |= 0x02 // Set bit 1
     0x07C9 [0xAC] Arboreal Grove #4 (ID: 17924138/0x0111802A)->Render.Flags6 |= 0x02 // Set bit 1
     0x07CF [0x3E] IF !(Work_Zone_Memorize[0] bit 21*) GOTO 0x07FB
     0x07D6 [0x3E] IF !(Work_Zone_Memorize[8] bit 3*) GOTO 0x07EC
     0x07DD [0x4E] SET_ENTITY_HIDE_FLAG: Show Arboreal Grove #4 (ID: 17924138/0x0111802A)
     0x07E3 [0x4E] SET_ENTITY_HIDE_FLAG: Hide Arboreal Grove #4 (ID: 17924137/0x01118029)
     0x07E9 [0x01] GOTO 0x07F8
     0x07EC [0x4E] SET_ENTITY_HIDE_FLAG: Show Arboreal Grove #4 (ID: 17924137/0x01118029)
     0x07F2 [0x4E] SET_ENTITY_HIDE_FLAG: Hide Arboreal Grove #4 (ID: 17924138/0x0111802A)
     0x07F8 [0x01] GOTO 0x0807
     0x07FB [0x4E] SET_ENTITY_HIDE_FLAG: Hide Arboreal Grove #4 (ID: 17924137/0x01118029)
     0x0801 [0x4E] SET_ENTITY_HIDE_FLAG: Hide Arboreal Grove #4 (ID: 17924138/0x0111802A)
     0x0807 [0x1C] WAIT(1* ticks)
     0x080A [0x1B] RETURN
     0x080B [0xAC] Unknown NPC (ID: 17924114/0x01118012)->Render.Flags6 |= 0x02 // Set bit 1
     0x0811 [0x3E] IF !(Work_Zone_Memorize[0] bit 6*) GOTO 0x0822
     0x0818 [0x27] REQ_SET(priority=0x80, entity_id=Unknown NPC (ID: 17924114/0x01118012), tag_num=0x02)
     0x081F [0x01] GOTO 0x0829
     0x0822 [0x27] REQ_SET(priority=0x80, entity_id=Unknown NPC (ID: 17924114/0x01118012), tag_num=0x03)
     0x0829 [0xAC] Unknown NPC (ID: 17924115/0x01118013)->Render.Flags6 |= 0x02 // Set bit 1
     0x082F [0x3E] IF !(Work_Zone_Memorize[0] bit 7*) GOTO 0x0840
     0x0836 [0x27] REQ_SET(priority=0x80, entity_id=Unknown NPC (ID: 17924115/0x01118013), tag_num=0x02)
     0x083D [0x01] GOTO 0x0847
     0x0840 [0x27] REQ_SET(priority=0x80, entity_id=Unknown NPC (ID: 17924115/0x01118013), tag_num=0x03)
     0x0847 [0xAC] Unknown NPC (ID: 17924116/0x01118014)->Render.Flags6 |= 0x02 // Set bit 1
     0x084D [0x3E] IF !(Work_Zone_Memorize[0] bit 8*) GOTO 0x085E
     0x0854 [0x29] REQ_SET_WAIT(priority=0x80, entity_id=Unknown NPC (ID: 17924116/0x01118014), tag_num=0x02)
     0x085B [0x01] GOTO 0x0865
     0x085E [0x29] REQ_SET_WAIT(priority=0x80, entity_id=Unknown NPC (ID: 17924116/0x01118014), tag_num=0x03)
     0x0865 [0xAC] Mineral Vein (ID: 17924139/0x0111802B)->Render.Flags6 |= 0x02 // Set bit 1
     0x086B [0xAC] Mineral Vein (ID: 17924140/0x0111802C)->Render.Flags6 |= 0x02 // Set bit 1
     0x0871 [0x3E] IF !(Work_Zone_Memorize[0] bit 22*) GOTO 0x089D
     0x0878 [0x3E] IF !(Work_Zone_Memorize[8] bit 4*) GOTO 0x088E
     0x087F [0x4E] SET_ENTITY_HIDE_FLAG: Show Mineral Vein (ID: 17924140/0x0111802C)
     0x0885 [0x4E] SET_ENTITY_HIDE_FLAG: Hide Mineral Vein (ID: 17924139/0x0111802B)
     0x088B [0x01] GOTO 0x089A
     0x088E [0x4E] SET_ENTITY_HIDE_FLAG: Show Mineral Vein (ID: 17924139/0x0111802B)
     0x0894 [0x4E] SET_ENTITY_HIDE_FLAG: Hide Mineral Vein (ID: 17924140/0x0111802C)
     0x089A [0x01] GOTO 0x08A9
     0x089D [0x4E] SET_ENTITY_HIDE_FLAG: Hide Mineral Vein (ID: 17924139/0x0111802B)
     0x08A3 [0x4E] SET_ENTITY_HIDE_FLAG: Hide Mineral Vein (ID: 17924140/0x0111802C)
     0x08A9 [0xAC] Mineral Vein #2 (ID: 17924141/0x0111802D)->Render.Flags6 |= 0x02 // Set bit 1
     0x08AF [0xAC] Mineral Vein #2 (ID: 17924142/0x0111802E)->Render.Flags6 |= 0x02 // Set bit 1
     0x08B5 [0x3E] IF !(Work_Zone_Memorize[0] bit 23*) GOTO 0x08E1
     0x08BC [0x3E] IF !(Work_Zone_Memorize[8] bit 5*) GOTO 0x08D2
     0x08C3 [0x4E] SET_ENTITY_HIDE_FLAG: Show Mineral Vein #2 (ID: 17924142/0x0111802E)
     0x08C9 [0x4E] SET_ENTITY_HIDE_FLAG: Hide Mineral Vein #2 (ID: 17924141/0x0111802D)
     0x08CF [0x01] GOTO 0x08DE
     0x08D2 [0x4E] SET_ENTITY_HIDE_FLAG: Show Mineral Vein #2 (ID: 17924141/0x0111802D)
     0x08D8 [0x4E] SET_ENTITY_HIDE_FLAG: Hide Mineral Vein #2 (ID: 17924142/0x0111802E)
     0x08DE [0x01] GOTO 0x08ED
     0x08E1 [0x4E] SET_ENTITY_HIDE_FLAG: Hide Mineral Vein #2 (ID: 17924141/0x0111802D)
     0x08E7 [0x4E] SET_ENTITY_HIDE_FLAG: Hide Mineral Vein #2 (ID: 17924142/0x0111802E)
     0x08ED [0xAC] Mineral Vein #3 (ID: 17924143/0x0111802F)->Render.Flags6 |= 0x02 // Set bit 1
     0x08F3 [0xAC] Mineral Vein #3 (ID: 17924144/0x01118030)->Render.Flags6 |= 0x02 // Set bit 1
     0x08F9 [0x3E] IF !(Work_Zone_Memorize[0] bit 24*) GOTO 0x0925
     0x0900 [0x3E] IF !(Work_Zone_Memorize[8] bit 6*) GOTO 0x0916
     0x0907 [0x4E] SET_ENTITY_HIDE_FLAG: Show Mineral Vein #3 (ID: 17924144/0x01118030)
     0x090D [0x4E] SET_ENTITY_HIDE_FLAG: Hide Mineral Vein #3 (ID: 17924143/0x0111802F)
     0x0913 [0x01] GOTO 0x0922
     0x0916 [0x4E] SET_ENTITY_HIDE_FLAG: Show Mineral Vein #3 (ID: 17924143/0x0111802F)
     0x091C [0x4E] SET_ENTITY_HIDE_FLAG: Hide Mineral Vein #3 (ID: 17924144/0x01118030)
     0x0922 [0x01] GOTO 0x0931
     0x0925 [0x4E] SET_ENTITY_HIDE_FLAG: Hide Mineral Vein #3 (ID: 17924143/0x0111802F)
     0x092B [0x4E] SET_ENTITY_HIDE_FLAG: Hide Mineral Vein #3 (ID: 17924144/0x01118030)
     0x0931 [0xAC] Mineral Vein #4 (ID: 17924145/0x01118031)->Render.Flags6 |= 0x02 // Set bit 1
     0x0937 [0xAC] Mineral Vein #4 (ID: 17924146/0x01118032)->Render.Flags6 |= 0x02 // Set bit 1
     0x093D [0x3E] IF !(Work_Zone_Memorize[0] bit 25*) GOTO 0x0969
     0x0944 [0x3E] IF !(Work_Zone_Memorize[8] bit 7*) GOTO 0x095A
     0x094B [0x4E] SET_ENTITY_HIDE_FLAG: Show Mineral Vein #4 (ID: 17924146/0x01118032)
     0x0951 [0x4E] SET_ENTITY_HIDE_FLAG: Hide Mineral Vein #4 (ID: 17924145/0x01118031)
     0x0957 [0x01] GOTO 0x0966
     0x095A [0x4E] SET_ENTITY_HIDE_FLAG: Show Mineral Vein #4 (ID: 17924145/0x01118031)
     0x0960 [0x4E] SET_ENTITY_HIDE_FLAG: Hide Mineral Vein #4 (ID: 17924146/0x01118032)
     0x0966 [0x01] GOTO 0x0975
     0x0969 [0x4E] SET_ENTITY_HIDE_FLAG: Hide Mineral Vein #4 (ID: 17924145/0x01118031)
     0x096F [0x4E] SET_ENTITY_HIDE_FLAG: Hide Mineral Vein #4 (ID: 17924146/0x01118032)
     0x0975 [0x1C] WAIT(1* ticks)
     0x0978 [0x1B] RETURN
     0x0979 [0x92] Coastal Fishing Net (ID: 17924149/0x01118035)->Render.Flags3 ^= 0x01
     0x097F [0xAC] Unknown NPC (ID: 17924117/0x01118015)->Render.Flags6 |= 0x02 // Set bit 1
     0x0985 [0x3E] IF !(Work_Zone_Memorize[0] bit 9*) GOTO 0x0996
     0x098C [0x27] REQ_SET(priority=0x80, entity_id=Unknown NPC (ID: 17924117/0x01118015), tag_num=0x02)
     0x0993 [0x01] GOTO 0x099D
     0x0996 [0x27] REQ_SET(priority=0x80, entity_id=Unknown NPC (ID: 17924117/0x01118015), tag_num=0x03)
     0x099D [0xAC] Unknown NPC (ID: 17924118/0x01118016)->Render.Flags6 |= 0x02 // Set bit 1
     0x09A3 [0x3E] IF !(Work_Zone_Memorize[0] bit 10*) GOTO 0x09B4
     0x09AA [0x27] REQ_SET(priority=0x80, entity_id=Unknown NPC (ID: 17924118/0x01118016), tag_num=0x02)
     0x09B1 [0x01] GOTO 0x09BB
     0x09B4 [0x27] REQ_SET(priority=0x80, entity_id=Unknown NPC (ID: 17924118/0x01118016), tag_num=0x03)
     0x09BB [0xAC] Unknown NPC (ID: 17924119/0x01118017)->Render.Flags6 |= 0x02 // Set bit 1
     0x09C1 [0x3E] IF !(Work_Zone_Memorize[0] bit 11*) GOTO 0x09D2
     0x09C8 [0x27] REQ_SET(priority=0x80, entity_id=Unknown NPC (ID: 17924119/0x01118017), tag_num=0x02)
     0x09CF [0x01] GOTO 0x09D9
     0x09D2 [0x27] REQ_SET(priority=0x80, entity_id=Unknown NPC (ID: 17924119/0x01118017), tag_num=0x03)
     0x09D9 [0xAC] Unknown NPC (ID: 17924120/0x01118018)->Render.Flags6 |= 0x02 // Set bit 1
     0x09DF [0x3E] IF !(Work_Zone_Memorize[1] bit 17*) GOTO 0x09F0
     0x09E6 [0x29] REQ_SET_WAIT(priority=0x80, entity_id=Unknown NPC (ID: 17924120/0x01118018), tag_num=0x02)
     0x09ED [0x01] GOTO 0x09F7
     0x09F0 [0x29] REQ_SET_WAIT(priority=0x80, entity_id=Unknown NPC (ID: 17924120/0x01118018), tag_num=0x03)
     0x09F7 [0x3E] IF !(Work_Zone_Memorize[1] bit 20*) GOTO 0x0A07
     0x09FE [0x60] ZONE_SET_ACTION: Set zone action with param 0x6E6F3069
     0x0A04 [0x01] GOTO 0x0A07
     0x0A07 [0x3E] IF !(Work_Zone_Memorize[1] bit 21*) GOTO 0x0A17
     0x0A0E [0x60] ZONE_SET_ACTION: Set zone action with param 0x6E6F3169
     0x0A14 [0x01] GOTO 0x0A17
     0x0A17 [0x3E] IF !(Work_Zone_Memorize[1] bit 22*) GOTO 0x0A27
     0x0A1E [0x60] ZONE_SET_ACTION: Set zone action with param 0x6E6F3269
     0x0A24 [0x01] GOTO 0x0A27
     0x0A27 [0x3E] IF !(Work_Zone_Memorize[1] bit 23*) GOTO 0x0A37
     0x0A2E [0x60] ZONE_SET_ACTION: Set zone action with param 0x6E6F3369
     0x0A34 [0x01] GOTO 0x0A37
     0x0A37 [0x1B] RETURN
     0x0A38 [0xAC] Coastal Fishing Net (ID: 17924149/0x01118035)->Render.Flags6 |= 0x02 // Set bit 1
     0x0A3E [0x29] REQ_SET_WAIT(priority=0x08, entity_id=Coastal Fishing Net (ID: 17924149/0x01118035), tag_num=0x04)
     0x0A45 [0x1B] RETURN
     0x0A46 [0x92] Kuyin Hathdenna (ID: 17924183/0x01118057)->Render.Flags3 = Flags3  // No change (flag=0)
     0x0A4C [0x92] Kuyin Hathdenna (ID: 17924202/0x0111806A)->Render.Flags3 = Flags3  // No change (flag=0)
     0x0A52 [0x92] Susuroon (ID: 17924184/0x01118058)->Render.Flags3 = Flags3  // No change (flag=0)
     0x0A58 [0x92] Susuroon (ID: 17924203/0x0111806B)->Render.Flags3 = Flags3  // No change (flag=0)
     0x0A5E [0x92] Yeestog (ID: 17924185/0x01118059)->Render.Flags3 = Flags3  // No change (flag=0)
     0x0A64 [0x92] Yeestog (ID: 17924204/0x0111806C)->Render.Flags3 = Flags3  // No change (flag=0)
     0x0A6A [0xAC] Kuyin Hathdenna (ID: 17924183/0x01118057)->Render.Flags6 |= 0x02 // Set bit 1
     0x0A70 [0x3E] IF !(Work_Zone_Memorize[0] bit 12*) GOTO 0x0A81
     0x0A77 [0x27] REQ_SET(priority=0x08, entity_id=Kuyin Hathdenna (ID: 17924183/0x01118057), tag_num=0x02)
     0x0A7E [0x01] GOTO 0x0A88
     0x0A81 [0x27] REQ_SET(priority=0x08, entity_id=Kuyin Hathdenna (ID: 17924183/0x01118057), tag_num=0x03)
     0x0A88 [0xAC] Kuyin Hathdenna (ID: 17924202/0x0111806A)->Render.Flags6 |= 0x02 // Set bit 1
     0x0A8E [0x3E] IF !(Work_Zone_Memorize[0] bit 13*) GOTO 0x0A9F
     0x0A95 [0x27] REQ_SET(priority=0x08, entity_id=Kuyin Hathdenna (ID: 17924202/0x0111806A), tag_num=0x02)
     0x0A9C [0x01] GOTO 0x0AA6
     0x0A9F [0x27] REQ_SET(priority=0x08, entity_id=Kuyin Hathdenna (ID: 17924202/0x0111806A), tag_num=0x03)
     0x0AA6 [0xAC] Susuroon (ID: 17924184/0x01118058)->Render.Flags6 |= 0x02 // Set bit 1
     0x0AAC [0x3E] IF !(Work_Zone_Memorize[0] bit 14*) GOTO 0x0ABD
     0x0AB3 [0x29] REQ_SET_WAIT(priority=0x08, entity_id=Susuroon (ID: 17924184/0x01118058), tag_num=0x02)
     0x0ABA [0x01] GOTO 0x0AC4
     0x0ABD [0x29] REQ_SET_WAIT(priority=0x08, entity_id=Susuroon (ID: 17924184/0x01118058), tag_num=0x03)
     0x0AC4 [0xAC] Susuroon (ID: 17924203/0x0111806B)->Render.Flags6 |= 0x02 // Set bit 1
     0x0ACA [0x3E] IF !(Work_Zone_Memorize[0] bit 15*) GOTO 0x0ADB
     0x0AD1 [0x27] REQ_SET(priority=0x08, entity_id=Susuroon (ID: 17924203/0x0111806B), tag_num=0x02)
     0x0AD8 [0x01] GOTO 0x0AE2
     0x0ADB [0x27] REQ_SET(priority=0x08, entity_id=Susuroon (ID: 17924203/0x0111806B), tag_num=0x03)
     0x0AE2 [0xAC] Yeestog (ID: 17924185/0x01118059)->Render.Flags6 |= 0x02 // Set bit 1
     0x0AE8 [0x3E] IF !(Work_Zone_Memorize[0] bit 16*) GOTO 0x0AF9
     0x0AEF [0x27] REQ_SET(priority=0x08, entity_id=Yeestog (ID: 17924185/0x01118059), tag_num=0x02)
     0x0AF6 [0x01] GOTO 0x0B00
     0x0AF9 [0x27] REQ_SET(priority=0x08, entity_id=Yeestog (ID: 17924185/0x01118059), tag_num=0x03)
     0x0B00 [0xAC] Yeestog (ID: 17924204/0x0111806C)->Render.Flags6 |= 0x02 // Set bit 1
     0x0B06 [0x3E] IF !(Work_Zone_Memorize[0] bit 17*) GOTO 0x0B17
     0x0B0D [0x29] REQ_SET_WAIT(priority=0x08, entity_id=Yeestog (ID: 17924204/0x0111806C), tag_num=0x02)
     0x0B14 [0x01] GOTO 0x0B1E
     0x0B17 [0x29] REQ_SET_WAIT(priority=0x08, entity_id=Yeestog (ID: 17924204/0x0111806C), tag_num=0x03)
     0x0B1E [0x1C] WAIT(1* ticks)
     0x0B21 [0x1B] RETURN
     0x0B22 [0xAC] Flotsam (ID: 17924150/0x01118036)->Render.Flags6 |= 0x02 // Set bit 1
     0x0B28 [0x3E] IF !(Work_Zone_Memorize[0] bit 29*) GOTO 0x0B45
     0x0B2F [0x2C] CREATE_SCHEDULER_TASK: Create scheduler "efon" with entities [Flotsam (ID: 17924150/0x01118036), Flotsam (ID: 17924150/0x01118036)]
     0x0B3C [0xB6] ENTITY_APPEARANCE_HANDLER(case=Render.Flags2)
     0x0B3E [0x36] SET_ENTITY_EVENT_POSITION(pos_x=0x1180, pos_z=0x0101, pos_y=0x0B58)
     0x0B45 [0x2C] CREATE_SCHEDULER_TASK: Create scheduler "efof" with entities [Flotsam (ID: 17924150/0x01118036), Flotsam (ID: 17924150/0x01118036)]
     0x0B52 [0xB6] ENTITY_APPEARANCE_HANDLER(case=Render.Flags2)
     0x0B54 [0x36] SET_ENTITY_EVENT_POSITION(pos_x=0x1180, pos_z=0x1B01, pos_y=0x013E)
     0x0B5B [0x11] 0* >>= 0x0B6F
     0x0B60 [0x4E] SET_ENTITY_HIDE_FLAG: Show Crabauble (ID: 17924209/0x01118071)
     0x0B66 [0xAC] Crabauble (ID: 17924209/0x01118071)->Render.Flags6 |= 0x02 // Set bit 1
     0x0B6C [0x01] GOTO 0x0B7B
     0x0B6F [0xAC] Crabauble (ID: 17924209/0x01118071)->Render.Flags6 |= 0x02 // Set bit 1
     0x0B75 [0x4E] SET_ENTITY_HIDE_FLAG: Hide Crabauble (ID: 17924209/0x01118071)
     0x0B7B [0x1B] RETURN
     0x0B7C [0xAC] Garden Strongbox (ID: 17924210/0x01118072)->Render.Flags6 |= 0x02 // Set bit 1
     0x0B82 [0x3E] IF !(Work_Zone_Memorize[1] bit 1*) GOTO 0x0BA0
     0x0B89 [0x3E] IF !(Work_Zone_Memorize[1] bit 3*) GOTO 0x0B97
     0x0B90 [0x29] REQ_SET_WAIT(priority=0x08, entity_id=Garden Strongbox (ID: 17924210/0x01118072), tag_num=0x04)
     0x0B97 [0x4E] SET_ENTITY_HIDE_FLAG: Show Garden Strongbox (ID: 17924210/0x01118072)
     0x0B9D [0x01] GOTO 0x0BA7
     0x0BA0 [0x29] REQ_SET_WAIT(priority=0x08, entity_id=Garden Strongbox (ID: 17924210/0x01118072), tag_num=0x03)
     0x0BA7 [0x1B] RETURN
     0x0BA8 [0xAC] Ephemeral Moogle (ID: 17924238/0x0111808E)->Render.Flags6 |= 0x02 // Set bit 1
     0x0BAE [0x3E] IF !(Work_Zone_Memorize[1] bit 25*) GOTO 0x0BBE
     0x0BB5 [0x4E] SET_ENTITY_HIDE_FLAG: Show Ephemeral Moogle (ID: 17924238/0x0111808E)
     0x0BBB [0x01] GOTO 0x0BC4
     0x0BBE [0x4E] SET_ENTITY_HIDE_FLAG: Hide Ephemeral Moogle (ID: 17924238/0x0111808E)
     0x0BC4 [0x1B] RETURN
     0x0BC5 [0xAC] Unnamed NPC (ID: 17924224/0x01118080)->Render.Flags6 |= 0x02 // Set bit 1
     0x0BCB [0xAC] Unnamed NPC (ID: 17924225/0x01118081)->Render.Flags6 |= 0x02 // Set bit 1
     0x0BD1 [0xAC] Unnamed NPC (ID: 17924226/0x01118082)->Render.Flags6 |= 0x02 // Set bit 1
     0x0BD7 [0xAC] Unnamed NPC (ID: 17924227/0x01118083)->Render.Flags6 |= 0x02 // Set bit 1
     0x0BDD [0xAC] Unnamed NPC (ID: 17924228/0x01118084)->Render.Flags6 |= 0x02 // Set bit 1
     0x0BE3 [0x3E] IF !(Work_Zone_Memorize[1] bit 26*) GOTO 0x0C29
     0x0BEA [0x4E] SET_ENTITY_HIDE_FLAG: Show Unnamed NPC (ID: 17924224/0x01118080)
     0x0BF0 [0xAC] Unnamed NPC (ID: 17924224/0x01118080)->Render.Flags6 |= 0x02 // Set bit 1
     0x0BF6 [0x4E] SET_ENTITY_HIDE_FLAG: Show Unnamed NPC (ID: 17924225/0x01118081)
     0x0BFC [0xAC] Unnamed NPC (ID: 17924225/0x01118081)->Render.Flags6 |= 0x02 // Set bit 1
     0x0C02 [0x4E] SET_ENTITY_HIDE_FLAG: Show Unnamed NPC (ID: 17924226/0x01118082)
     0x0C08 [0xAC] Unnamed NPC (ID: 17924226/0x01118082)->Render.Flags6 |= 0x02 // Set bit 1
     0x0C0E [0x4E] SET_ENTITY_HIDE_FLAG: Show Unnamed NPC (ID: 17924227/0x01118083)
     0x0C14 [0xAC] Unnamed NPC (ID: 17924227/0x01118083)->Render.Flags6 |= 0x02 // Set bit 1
     0x0C1A [0x4E] SET_ENTITY_HIDE_FLAG: Show Unnamed NPC (ID: 17924228/0x01118084)
     0x0C20 [0xAC] Unnamed NPC (ID: 17924228/0x01118084)->Render.Flags6 |= 0x02 // Set bit 1
     0x0C26 [0x01] GOTO 0x0C47
     0x0C29 [0x4E] SET_ENTITY_HIDE_FLAG: Hide Unnamed NPC (ID: 17924224/0x01118080)
     0x0C2F [0x4E] SET_ENTITY_HIDE_FLAG: Hide Unnamed NPC (ID: 17924225/0x01118081)
     0x0C35 [0x4E] SET_ENTITY_HIDE_FLAG: Hide Unnamed NPC (ID: 17924226/0x01118082)
     0x0C3B [0x4E] SET_ENTITY_HIDE_FLAG: Hide Unnamed NPC (ID: 17924227/0x01118083)
     0x0C41 [0x4E] SET_ENTITY_HIDE_FLAG: Hide Unnamed NPC (ID: 17924228/0x01118084)
     0x0C47 [0x1B] RETURN
     0x0C48 [0xAC] ??? (ID: 17924229/0x01118085)->Render.Flags6 |= 0x02 // Set bit 1
     0x0C4E [0xAC] ??? (ID: 17924230/0x01118086)->Render.Flags6 |= 0x02 // Set bit 1
     0x0C54 [0x3E] IF !(Work_Zone_Memorize[1] bit 27*) GOTO 0x0CC5
     0x0C5B [0x13] ExtData[1]->WorkLocal[16] = rand() % 2*
     0x0C60 [0x02] IF !(ExtData[1]->WorkLocal[16] <= 2*) GOTO 0x0C6B
     0x0C68 [0x06] ExtData[1]->WorkLocal[16] = 0
     0x0C6B [0x02] IF !(ExtData[1]->WorkLocal[16] == 0*) GOTO 0x0C84
     0x0C73 [0x29] REQ_SET_WAIT(priority=0x08, entity_id=??? (ID: 17924229/0x01118085), tag_num=0x02)
     0x0C7A [0x29] REQ_SET_WAIT(priority=0x08, entity_id=??? (ID: 17924230/0x01118086), tag_num=0x02)
     0x0C81 [0x01] GOTO 0x0CB6
     0x0C84 [0x02] IF !(ExtData[1]->WorkLocal[16] == 1*) GOTO 0x0C9D
     0x0C8C [0x29] REQ_SET_WAIT(priority=0x08, entity_id=??? (ID: 17924229/0x01118085), tag_num=0x03)
     0x0C93 [0x29] REQ_SET_WAIT(priority=0x08, entity_id=??? (ID: 17924230/0x01118086), tag_num=0x03)
     0x0C9A [0x01] GOTO 0x0CB6
     0x0C9D [0x02] IF !(ExtData[1]->WorkLocal[16] == 2*) GOTO 0x0CB6
     0x0CA5 [0x29] REQ_SET_WAIT(priority=0x08, entity_id=??? (ID: 17924229/0x01118085), tag_num=0x04)
     0x0CAC [0x29] REQ_SET_WAIT(priority=0x08, entity_id=??? (ID: 17924230/0x01118086), tag_num=0x04)
     0x0CB3 [0x01] GOTO 0x0CB6
     0x0CB6 [0x4E] SET_ENTITY_HIDE_FLAG: Show ??? (ID: 17924229/0x01118085)
     0x0CBC [0x4E] SET_ENTITY_HIDE_FLAG: Show ??? (ID: 17924230/0x01118086)
     0x0CC2 [0x01] GOTO 0x0CD1
     0x0CC5 [0x4E] SET_ENTITY_HIDE_FLAG: Hide ??? (ID: 17924229/0x01118085)
     0x0CCB [0x4E] SET_ENTITY_HIDE_FLAG: Hide ??? (ID: 17924230/0x01118086)
     0x0CD1 [0x1B] RETURN
     0x0CD2 [0xAC] Chacharoon (ID: 17924231/0x01118087)->Render.Flags6 |= 0x02 // Set bit 1
     0x0CD8 [0x3E] IF !(Work_Zone_Memorize[1] bit 4*) GOTO 0x0CEE
     0x0CDF [0x4E] SET_ENTITY_HIDE_FLAG: Show Chacharoon (ID: 17924231/0x01118087)
     0x0CE5 [0xAC] Chacharoon (ID: 17924231/0x01118087)->Render.Flags6 |= 0x02 // Set bit 1
     0x0CEB [0x01] GOTO 0x0CFA
     0x0CEE [0xAC] Chacharoon (ID: 17924231/0x01118087)->Render.Flags6 |= 0x02 // Set bit 1
     0x0CF4 [0x4E] SET_ENTITY_HIDE_FLAG: Hide Chacharoon (ID: 17924231/0x01118087)
     0x0CFA [0x1B] RETURN
     0x0CFB [0xAC] Breeding Monster (ID: 17924233/0x01118089)->Render.Flags6 |= 0x02 // Set bit 1
     0x0D01 [0x29] REQ_SET_WAIT(priority=0x08, entity_id=Breeding Monster (ID: 17924233/0x01118089), tag_num=0x04)
     0x0D08 [0x1B] RETURN
     0x0D09 [0xAC] Breeding Monster01 (ID: 17924234/0x0111808A)->Render.Flags6 |= 0x02 // Set bit 1
     0x0D0F [0x29] REQ_SET_WAIT(priority=0x08, entity_id=Breeding Monster01 (ID: 17924234/0x0111808A), tag_num=0x04)
     0x0D16 [0x1B] RETURN
     0x0D17 [0xAC] Breeding Monster02 (ID: 17924235/0x0111808B)->Render.Flags6 |= 0x02 // Set bit 1
     0x0D1D [0x29] REQ_SET_WAIT(priority=0x08, entity_id=Breeding Monster02 (ID: 17924235/0x0111808B), tag_num=0x04)
     0x0D24 [0x1B] RETURN
     0x0D25 [0xAC] Breeding Monster03 (ID: 17924236/0x0111808C)->Render.Flags6 |= 0x02 // Set bit 1
     0x0D2B [0x29] REQ_SET_WAIT(priority=0x08, entity_id=Breeding Monster03 (ID: 17924236/0x0111808C), tag_num=0x04)
     0x0D32 [0x1B] RETURN
     0x0D33 [0xAC] Breeding Monster00 (ID: 17924237/0x0111808D)->Render.Flags6 |= 0x02 // Set bit 1
     0x0D39 [0x29] REQ_SET_WAIT(priority=0x08, entity_id=Breeding Monster00 (ID: 17924237/0x0111808D), tag_num=0x04)
     0x0D40 [0x1B] RETURN
     0x0D41 [0xAC] Unnamed NPC (ID: 17924124/0x0111801C)->Render.Flags6 |= 0x02 // Set bit 1
     0x0D47 [0x3E] IF !(Work_Zone_Memorize[1] bit 24*) GOTO 0x0D58
     0x0D4E [0x29] REQ_SET_WAIT(priority=0x80, entity_id=Unnamed NPC (ID: 17924124/0x0111801C), tag_num=0x02)
     0x0D55 [0x01] GOTO 0x0D5F
     0x0D58 [0x29] REQ_SET_WAIT(priority=0x80, entity_id=Unnamed NPC (ID: 17924124/0x0111801C), tag_num=0x03)
     0x0D5F [0x1B] RETURN
     0x0D60 [0x03] Work_Zone[1] = 1*
     0x0D65 [0x43] SEND_EVENT_UPDATE: Send pending tag to server (packet 0x005B)
     0x0D67 [0x43] SEND_EVENT_UPDATE: Check pending flag (skip if not pending)
     0x0D69 [0x03] ExtData[1]->WorkLocal[17] = Work_Zone[2]
     0x0D6E [0x03] Work_Zone_Memorize[8] = Work_Zone[3]
     0x0D73 [0x03] Work_Zone_Memorize[1] = Work_Zone[4]
     0x0D78 [0x03] Work_Zone_Memorize[10] = Work_Zone[5]
     0x0D7D [0x03] Work_Zone_Memorize[11] = Work_Zone[6]
     0x0D82 [0x03] Work_Zone_Memorize[12] = Work_Zone[7]
     0x0D87 [0x03] Work_Zone[1] = 11*
     0x0D8C [0x43] SEND_EVENT_UPDATE: Send pending tag to server (packet 0x005B)
     0x0D8E [0x43] SEND_EVENT_UPDATE: Check pending flag (skip if not pending)
     0x0D90 [0x03] Work_Zone_Memorize[2] = Work_Zone[2]
     0x0D95 [0x03] Work_Zone_Memorize[3] = Work_Zone[3]
     0x0D9A [0x03] Work_Zone_Memorize[4] = Work_Zone[4]
     0x0D9F [0x03] Work_Zone_Memorize[5] = Work_Zone[5]
     0x0DA4 [0x03] Work_Zone_Memorize[6] = Work_Zone[6]
     0x0DA9 [0x03] Work_Zone_Memorize[7] = Work_Zone[7]
     0x0DAE [0x03] Work_Zone_Memorize[9] = Work_Zone[8]
     0x0DB3 [0x41] ExtData[1]->WorkLocal[16] = ExtData[1]->WorkLocal[17] (bits 0*-3*)
     0x0DBC [0x1A] CALL_SUBROUTINE(address=0x0FAD)
     0x0DBF [0x41] ExtData[1]->WorkLocal[16] = ExtData[1]->WorkLocal[17] (bits 4*-7*)
     0x0DC8 [0x1A] CALL_SUBROUTINE(address=0x11B5)
     0x0DCB [0x41] ExtData[1]->WorkLocal[16] = ExtData[1]->WorkLocal[17] (bits 8*-11*)
     0x0DD4 [0x1A] CALL_SUBROUTINE(address=0x1445)
     0x0DD7 [0x41] ExtData[1]->WorkLocal[16] = ExtData[1]->WorkLocal[17] (bits 12*-15*)
     0x0DE0 [0x1A] CALL_SUBROUTINE(address=0x1693)
     0x0DE3 [0x41] ExtData[1]->WorkLocal[16] = ExtData[1]->WorkLocal[17] (bits 20*-22*)
     0x0DEC [0x1A] CALL_SUBROUTINE(address=0x0E15)
     0x0DEF [0x41] ExtData[1]->WorkLocal[16] = ExtData[1]->WorkLocal[17] (bits 31*-31*)
     0x0DF8 [0x02] IF !(ExtData[1]->WorkLocal[16] == 0*) GOTO 0x0E0A
     0x0E00 [0x3D] CLEAR_BIT_FLAG_CONDITIONAL(target_work_offset=Work_Zone_Memorize[0], bit_index_work_offset=29*, condition_work_offset=1*)
     0x0E07 [0x01] GOTO 0x0E11
     0x0E0A [0x3C] SET_BIT_FLAG_CONDITIONAL(target_work_offset=Work_Zone_Memorize[0], bit_index_work_offset=29*, condition_work_offset=1*)
     0x0E11 [0x1A] CALL_SUBROUTINE(address=0x0E2F)
     0x0E14 [0x1B] RETURN
     0x0E15 [0x02] IF !(ExtData[1]->WorkLocal[16] < 3*) GOTO 0x0E27
     0x0E1D [0x3C] SET_BIT_FLAG_CONDITIONAL(target_work_offset=Work_Zone_Memorize[1], bit_index_work_offset=24*, condition_work_offset=1*)
     0x0E24 [0x01] GOTO 0x0E2E
     0x0E27 [0x3D] CLEAR_BIT_FLAG_CONDITIONAL(target_work_offset=Work_Zone_Memorize[1], bit_index_work_offset=24*, condition_work_offset=1*)
     0x0E2E [0x1B] RETURN
     0x0E2F [0x3E] IF !(Work_Zone_Memorize[8] bit 8*) GOTO 0x0EA0
     0x0E36 [0x41] ExtData[1]->WorkLocal[16] = Work_Zone_Memorize[8] (bits 9*-11*)
     0x0E3F [0x02] IF !(ExtData[1]->WorkLocal[16] == 1*) GOTO 0x0E58
     0x0E47 [0x3D] CLEAR_BIT_FLAG_CONDITIONAL(target_work_offset=Work_Zone_Memorize[0], bit_index_work_offset=12*, condition_work_offset=1*)
     0x0E4E [0x3C] SET_BIT_FLAG_CONDITIONAL(target_work_offset=Work_Zone_Memorize[0], bit_index_work_offset=13*, condition_work_offset=1*)
     0x0E55 [0x01] GOTO 0x0E9D
     0x0E58 [0x02] IF !(ExtData[1]->WorkLocal[16] == 4*) GOTO 0x0E71
