# 17924236 - Breeding Monster03

## Common Data

| Field            | Value                |
|------------------|----------------------|
| Zone             | Mog Garden (ID: 280) |
| Block Size       | 10412 bytes          |
| Total Events     | 7                    |
| References Count | 113                  |

## List of Events

| Event ID                 | Entrypoint   |   Size |   Instructions |
|--------------------------|--------------|--------|----------------|
| [65535](#event-65535)    | 0x0000       |      1 |              1 |
| [65534](#event-65534)    | 0x0001       |      1 |              1 |
| [1079](#event-1079)      | 0x0002       |      3 |              1 |
| [1084](#event-1084)      | 0x0005       |      4 |              2 |
| [65535.1](#event-655351) | 0x0009       |   3584 |            581 |
| [2050](#event-2050)      | 0x0E09       |      1 |              1 |
| [2051](#event-2051)      | 0x0E0A       |   6320 |           1073 |

## DAT References (imed_data)

|   Index | Hex Value   |   Dec Value |
|---------|-------------|-------------|
|       0 | 0x0000      |           0 |
|       1 | 0x0008      |           8 |
|       2 | 0x0010      |          16 |
|       3 | 0x001F      |          31 |
|       4 | 0x0018      |          24 |
|       5 | 0x0B62      |        2914 |
|       6 | 0x0004      |           4 |
|       7 | 0x0001      |           1 |
|       8 | 0x0155      |         341 |
|       9 | 0x0B64      |        2916 |
|      10 | 0x0121      |         289 |
|      11 | 0x0006      |           6 |
|      12 | 0x000C      |          12 |
|      13 | 0x00ED      |         237 |
|      14 | 0x00C8      |         200 |
|      15 | 0x0013      |          19 |
|      16 | 0xFFFFCEB1  |  4294954673 |
|      17 | 0x2F8A      |       12170 |
|      18 | 0x009C      |         156 |
|      19 | 0x0369      |         873 |
|      20 | 0x56288     |      352904 |
|      21 | 0xFFF791BD  |  4294414781 |
|      22 | 0xFFFFF351  |  4294964049 |
|      23 | 0x0F73      |        3955 |
|      24 | 0x57E5F     |      360031 |
|      25 | 0xFFF79C9A  |  4294417562 |
|      26 | 0xFFFFF3F1  |  4294964209 |
|      27 | 0x0785      |        1925 |
|      28 | 0x0003      |           3 |
|      29 | 0x0002      |           2 |
|      30 | 0x02B2      |         690 |
|      31 | 0x221A      |        8730 |
|      32 | 0x000D      |          13 |
|      33 | 0x221B      |        8731 |
|      34 | 0x221C      |        8732 |
|      35 | 0x221D      |        8733 |
|      36 | 0x000A      |          10 |
|      37 | 0x221E      |        8734 |
|      38 | 0x000F      |          15 |
|      39 | 0x221F      |        8735 |
|      40 | 0x2220      |        8736 |
|      41 | 0x1D22      |        7458 |
|      42 | 0x21E6      |        8678 |
|      43 | 0x21E7      |        8679 |
|      44 | 0x0DEE      |        3566 |
|      45 | 0x21E8      |        8680 |
|      46 | 0x00EC      |         236 |
|      47 | 0x2222      |        8738 |
|      48 | 0x21FF      |        8703 |
|      49 | 0x001E      |          30 |
|      50 | 0x222C      |        8748 |
|      51 | 0x222D      |        8749 |
|      52 | 0x003C      |          60 |
|      53 | 0x222E      |        8750 |
|      54 | 0x0032      |          50 |
|      55 | 0x2206      |        8710 |
|      56 | 0x2205      |        8709 |
|      57 | 0x2204      |        8708 |
|      58 | 0x00EB      |         235 |
|      59 | 0x2203      |        8707 |
|      60 | 0x2202      |        8706 |
|      61 | 0x220B      |        8715 |
|      62 | 0x220A      |        8714 |
|      63 | 0x2209      |        8713 |
|      64 | 0x2208      |        8712 |
|      65 | 0x2207      |        8711 |
|      66 | 0x220D      |        8717 |
|      67 | 0x220E      |        8718 |
|      68 | 0x220F      |        8719 |
|      69 | 0x2210      |        8720 |
|      70 | 0x2211      |        8721 |
|      71 | 0x2212      |        8722 |
|      72 | 0x2213      |        8723 |
|      73 | 0xFFFFFFFF  |  4294967295 |
|      74 | 0x2218      |        8728 |
|      75 | 0x2219      |        8729 |
|      76 | 0x000B      |          11 |
|      77 | 0x2214      |        8724 |
|      78 | 0x2215      |        8725 |
|      79 | 0x2217      |        8727 |
|      80 | 0x2216      |        8726 |
|      81 | 0x0007      |           7 |
|      82 | 0x0017      |          23 |
|      83 | 0x0012      |          18 |
|      84 | 0x0014      |          20 |
|      85 | 0x2223      |        8739 |
|      86 | 0x2228      |        8744 |
|      87 | 0x2229      |        8745 |
|      88 | 0x1DB4      |        7604 |
|      89 | 0x110E      |        4366 |
|      90 | 0x2224      |        8740 |
|      91 | 0x001A      |          26 |
|      92 | 0x001B      |          27 |
|      93 | 0x001C      |          28 |
|      94 | 0x0005      |           5 |
|      95 | 0x0015      |          21 |
|      96 | 0x0016      |          22 |
|      97 | 0x0019      |          25 |
|      98 | 0x0009      |           9 |
|      99 | 0x0011      |          17 |
|     100 | 0x000E      |          14 |
|     101 | 0x001D      |          29 |
|     102 | 0x0063      |          99 |
|     103 | 0x0049      |          73 |
|     104 | 0xFFFFF62B  |  4294964779 |
|     105 | 0xFFFFEC34  |  4294962228 |
|     106 | 0x01C4      |         452 |
|     107 | 0x0CF5      |        3317 |
|     108 | 0x0048      |          72 |
|     109 | 0x582C8     |      361160 |
|     110 | 0xFFF788EE  |  4294412526 |
|     111 | 0xFFFFF2F4  |  4294963956 |
|     112 | 0x064D      |        1613 |

## String References

- **7604**: What a terrific time to test tag utility, kupo!
- **8678**: By putting %0 down, you will personally end its life. While there will be no physical repercussion for doing such, are you willing to have that on your conscience?
- **8679**: Put the creature down? [Yes, I have no reservations./No, not yet!]
- **8703**: What will you do? [Nothing./See how the critter's doing./Interact with the beast./Give the creature a name./Collect items.]
- **8706**: %0's practically bursting with joy!
- **8707**: %0's in an obviously good mood.
- **8708**: %0 looks calm and collected.
- **8709**: %0 seems to be pouting slightly.
- **8710**: %0 looks like it wants absolutely nothing to do with anyone.
- **8711**: [However,/However,/Moreover,/Moreover,/Moreover,] it couldn't be more content with its life.
- **8712**: [However,/However,/Moreover,/Moreover,/Moreover,] it seems to be duly satisfied with its lot in life.
- **8713**: [Moreover,/Moreover,/However,/However,/However,] it exudes a slight aura of discontent.
- **8714**: [Moreover,/Moreover,/However,/However,/However,] it is clearly unhappy with the way things are.
- **8715**: [Moreover,/Moreover,/However,/However,/However,] it seems thoroughly depressed about the abysmal conditions under which it lives.
- **8717**: Current growth level: [EEE/$25EE/$26EE/$26$25E/$26$26E/$26$26$25/$26$26$26/$26$26$26].
- **8718**: How will you interact? [Do nothing./Pet it./Poke it./Slap it./Yell loudly at it./Get angry at it.]
- **8719**: %0 stares off into the distance as if you're not even there.
- **8720**: %0 is visibly angry with what you just did.
- **8721**: That didn't go over too well with %0.
- **8722**: That was surprisingly not worthless in the eyes of %0!
- **8723**: That strongly resonated with %0!
- **8724**: Please bestow a name of 15 letters or fewer upon your creature. Taking no action will annul the process.
- **8725**: Is %0 fine? [Yes./No, I'll pick a new one./No, I quit.]
- **8728**: Try to collect items from your beloved beastie?
- **8729**: Proceed? [Yes, that sounds wonderful./No, I won't take any chances.]
- **8731**: %0's heart is shrouded in darkness, turning the creature against you! Leaving %0 in this state could spell doom for your garden.
- **8732**: Whatever will you do!? [Not a thing./Hope moogle magic does the trick./Put the creature down.]
- **8733**: This entails having the Green Thumb Moogle employ the power of shining stars to cast an incantation on the creature, thus calming it.
- **8734**: Use moogle magic? (On hand: $26 x $0) [Yes.i$26 x $1)/No.]
- **8736**: The darkness no longer dwells within %0's heart.
- **8738**: %0's face beams with the light of pure contentment! There is nothing that can foul %0's mood right now, including gathering items from it.
- **8739**: You gave %0 $1.
- **8740**: Perhaps it would be best to give %0 $1.
- **8744**: %0 squirms uncontrollably.
- **8745**: %0 shudders violently.
- **8748**: Creature type: [/Lamb/Sheep/Karakul/Sapling/Green Foliage Treat/Red Foliage Treant/Baby Rabbit/Rabbit/White Rabbit/Baby Lizard/Lizard/Alabaster Lizard/Ram/Baby Cockatrice/Cockatrice/Ziz/Baby Raptor/Raptor/Red Raptor/Baby Eft/Eft/Tarichuk/Dhalmel Calf/Dhalmel/Great Dhalmel/Sea Monk Larva/Sea Monk/Blue Sea Monk/Uragnite Youngling].
- **8749**: Creature Type: [Uragnite/Limascabra/Immature Crab/Crab/Porter Crab/Baby Colibri/Colibri/Toucalibri/Coeurl Cub/Coeurl/Lynx/Buffalo Calf/Buffalo/Mini Slime/Slime/Clot/Hecteyes/Tiny Bugard/Bugard/Abyssobugard/Baby Adamantoise/Adamantoise/Great Adamantoise/White Adamantoise/Ferromantoise/Great Ferromantoise/Cluster/Bomb/Djinn/Snoll].
- **8750**: Creature type: [Behemoth Cub/Behemoth/King Behemoth/Elasmoth/Skormoth/Dragon Hatchling/Wyvern/Blue Wyvern/Green Wyvern/Abyssal Wyrm/Lunar Wyrm/Blazing Wyrm/Pequetender/Sabotender/Jumbotender/Mandragora Sproutling/Mandragora/Elder Mandragora/Lycopodium/Korrigan/Pachypodium/Adenium/Elder Adenium/Ake-Ome/Citrullus].

## Events

### Event 65535

#### Metadata

| Field        | Value   |
|--------------|---------|
| Entrypoint   | 0x0000  |
| Data Size    | 1 bytes |
| Instructions | 1       |

```
      00 01 02 03 04 05 06 07  08 09 0A 0B 0C 0D 0E 0F
      -- -- -- -- -- -- -- --  -- -- -- -- -- -- -- --
0000: 00                                                .               
```

#### Opcodes

```
  0: 0x0000 [0x00] END_REQSTACK()
```

### Event 65534

#### Metadata

| Field        | Value   |
|--------------|---------|
| Entrypoint   | 0x0001  |
| Data Size    | 1 bytes |
| Instructions | 1       |

```
      00 01 02 03 04 05 06 07  08 09 0A 0B 0C 0D 0E 0F
      -- -- -- -- -- -- -- --  -- -- -- -- -- -- -- --
0000:    00                                              .              
```

#### Opcodes

```
  0: 0x0001 [0x00] END_REQSTACK()
```

### Event 1079

#### Metadata

| Field        | Value   |
|--------------|---------|
| Entrypoint   | 0x0002  |
| Data Size    | 3 bytes |
| Instructions | 1       |

```
      00 01 02 03 04 05 06 07  08 09 0A 0B 0C 0D 0E 0F
      -- -- -- -- -- -- -- --  -- -- -- -- -- -- -- --
0000:       01 D7 00                                      ...           
```

#### Opcodes

```
  0: 0x0002 [0x01] GOTO 0x00D7
```

### Event 1084

#### Metadata

| Field        | Value   |
|--------------|---------|
| Entrypoint   | 0x0005  |
| Data Size    | 4 bytes |
| Instructions | 1       |

```
      00 01 02 03 04 05 06 07  08 09 0A 0B 0C 0D 0E 0F
      -- -- -- -- -- -- -- --  -- -- -- -- -- -- -- --
0000:                01 12 0D  00                            ....       
```

#### Opcodes

```
  0: 0x0005 [0x01] GOTO 0x0D12
```

#### Data or dead code:

```
# Dead code (unreachable instructions):
     0x0008 [0x00] END_REQSTACK()
```

### Event 65535.1

#### Metadata

| Field        | Value      |
|--------------|------------|
| Entrypoint   | 0x0009     |
| Data Size    | 3584 bytes |
| Instructions | 33         |

```
      00 01 02 03 04 05 06 07  08 09 0A 0B 0C 0D 0E 0F
      -- -- -- -- -- -- -- --  -- -- -- -- -- -- -- --
0000:                             AC 04 8C 80 11 01 00           .......
0010: 80 3E 01 11 01 80 D4 00  41 02 80 03 80 0C 11 00  .>......A.......
0020: 00 41 04 80 03 80 0A 11  01 00 B6 00 00 00 B6 0F  .A..............
0030: 01 00 80 F8 FF FF 7F 02  00 00 05 80 00 48 00 95  .............H..
0040: 06 80 1C 07 80 01 82 00  02 00 00 08 80 00 59 00  ..............Y.
0050: 95 06 80 1C 07 80 01 82  00 02 00 00 09 80 00 6A  ...............j
0060: 00 95 06 80 1C 07 80 01  82 00 02 00 00 0A 80 00  ................
0070: 82 00 2C F8 FF FF 7F F8  FF FF 7F 6B 69 6C 6C 1C  ..,........kill.
0080: 0B 80 22 00 1C 07 80 3E  01 11 0C 80 B1 00 CD 0D  .."....>........
0090: 80 F8 FF FF 7F F8 FF FF  7F 6F 6E 6D 79 00 80 CE  .........onmy...
00A0: 0D 80 F8 FF FF 7F F8 FF  FF 7F 6F 6E 6D 79 01 D1  ..........onmy..
00B0: 00 CD 0D 80 F8 FF FF 7F  F8 FF FF 7F 6B 6C 6D 79  ............klmy
00C0: 00 80 CE 0D 80 F8 FF FF  7F F8 FF FF 7F 6B 6C 6D  .............klm
00D0: 79 01 D6 00 22 01 00 03  0B 00 05 10 03 0D 00 06  y..."...........
00E0: 10 1A B7 0C 1E F0 FF FF  7F 06 10 00 03 0F 00 07  ................
00F0: 80 02 0F 00 00 80 02 DC  0B 3E 06 00 00 80 9C 07  .........>......
0100: 42 46 01 45 0E 80 F0 FF  FF 7F F0 FF FF 7F 66 64  BF.E..........fd
0110: 6F 31 00 80 55 0E 80 F0  FF FF 7F F0 FF FF 7F 66  o1..U..........f
0120: 64 6F 31 38 0F 80 2F 00  5B 80 11 01 4E 00 5B 80  do18../.[...N.[.
0130: 11 01 02 07 80 00 80 00  54 01 29 08 F0 FF FF 7F  ........T.).....
0140: 23 37 10 80 11 80 12 80  13 80 29 08 5B 80 11 01  #7........).[...
0150: 21 01 78 01 29 08 F0 FF  FF 7F 24 37 14 80 15 80  !.x.).....$7....
0160: 16 80 17 80 BA 1D 80 11  01 18 80 19 80 1A 80 1B  ................
0170: 80 29 08 5B 80 11 01 23  80 5B 80 11 01 CD 0D 80  .).[...#.[......
0180: F8 FF FF 7F F8 FF FF 7F  6F 6E 6D 79 00 80 02 07  ........onmy....
0190: 80 00 80 00 9F 01 4E 01  87 80 11 01 01 A5 01 4E  ......N........N
01A0: 01 88 80 11 01 4A 5B 80  11 01 F8 FF FF 7F 4A F8  .....J[.......J.
01B0: FF FF 7F F0 FF FF 7F 4A  1D 80 11 01 F8 FF FF 7F  .......J........
01C0: 6F 76 F8 FF FF 7F 6F 76  1D 80 11 01 6F 76 5B 80  ov....ov....ov[.
01D0: 11 01 92 01 5B 80 11 01  92 01 1D 80 11 01 92 01  ....[...........
01E0: F8 FF FF 7F 02 07 80 00  80 00 EF 01 01 B1 02 92  ................
01F0: 01 89 80 11 01 92 01 8A  80 11 01 92 01 8B 80 11  ................
0200: 01 92 01 8C 80 11 01 92  01 8D 80 11 01 02 1C 80  ................
0210: 00 80 00 36 02 92 01 89  80 11 01 92 01 8D 80 11  ...6............
0220: 01 4E 01 8A 80 11 01 4E  01 8B 80 11 01 4E 01 8C  .N.....N.....N..
0230: 80 11 01 01 B1 02 02 1C  80 07 80 00 5F 02 92 01  ............_...
0240: 8A 80 11 01 4E 01 8B 80  11 01 4E 01 8C 80 11 01  ....N.....N.....
0250: 4E 01 8D 80 11 01 4E 01  89 80 11 01 01 B1 02 02  N.....N.........
0260: 1C 80 1D 80 00 88 02 92  01 8B 80 11 01 4E 01 8C  .............N..
0270: 80 11 01 4E 01 8D 80 11  01 4E 01 89 80 11 01 4E  ...N.....N.....N
0280: 01 8A 80 11 01 01 B1 02  02 1C 80 1C 80 00 B1 02  ................
0290: 92 01 8C 80 11 01 4E 01  8A 80 11 01 4E 01 8B 80  ......N.....N...
02A0: 11 01 4E 01 8D 80 11 01  4E 01 89 80 11 01 01 B1  ..N.....N.......
02B0: 02 29 08 1D 80 11 01 49  02 07 80 00 80 00 D4 02  .).....I........
02C0: 45 1E 80 F0 FF FF 7F F0  FF FF 7F 73 31 30 33 00  E..........s103.
02D0: 80 01 E5 02 45 1E 80 F0  FF FF 7F F0 FF FF 7F 73  ....E..........s
02E0: 30 33 38 00 80 45 0E 80  F0 FF FF 7F F0 FF FF 7F  038..E..........
02F0: 66 64 69 31 00 80 55 0E  80 F0 FF FF 7F F0 FF FF  fdi1..U.........
0300: 7F 66 64 69 31 2B 1D 80  11 01 1F 80 23 02 07 80  .fdi1+......#...
0310: 00 80 00 27 03 52 1E 80  F0 FF FF 7F F0 FF FF 7F  ...'.R..........
0320: 73 31 30 33 01 36 03 52  1E 80 F0 FF FF 7F F0 FF  s103.6.R........
0330: FF 7F 73 30 33 38 02 07  80 00 80 00 6D 03 3E 01  ..s038......m.>.
0340: 11 20 80 59 03 45 1E 80  F0 FF FF 7F F0 FF FF 7F  . .Y.E..........
0350: 73 31 30 34 00 80 01 6A  03 45 1E 80 F0 FF FF 7F  s104...j.E......
0360: F0 FF FF 7F 73 31 30 35  00 80 01 99 03 3E 01 11  ....s105.....>..
0370: 20 80 88 03 45 1E 80 F0  FF FF 7F F0 FF FF 7F 73   ...E..........s
0380: 30 33 37 00 80 01 99 03  45 1E 80 F0 FF FF 7F F0  037.....E.......
0390: FF FF 7F 73 30 33 36 00  80 48 21 80 23 29 08 1D  ...s036..H!.#)..
03A0: 80 11 01 4A 02 07 80 00  80 00 D7 03 3E 01 11 20  ...J........>.. 
03B0: 80 C5 03 52 1E 80 F0 FF  FF 7F F0 FF FF 7F 73 31  ...R..........s1
03C0: 30 34 01 D4 03 52 1E 80  F0 FF FF 7F F0 FF FF 7F  04...R..........
03D0: 73 31 30 35 01 FF 03 3E  01 11 20 80 F0 03 52 1E  s105...>.. ...R.
03E0: 80 F0 FF FF 7F F0 FF FF  7F 73 30 33 37 01 FF 03  .........s037...
03F0: 52 1E 80 F0 FF FF 7F F0  FF FF 7F 73 30 33 36 0B  R..........s036.
0400: 0F 00 02 0F 00 07 80 02  99 07 24 22 80 00 80 00  ..........$"....
0410: 80 25 02 00 10 00 80 00  81 04 45 0E 80 F0 FF FF  .%........E.....
0420: 7F F0 FF FF 7F 66 64 6F  31 00 80 55 0E 80 F0 FF  .....fdo1..U....
0430: FF 7F F0 FF FF 7F 66 64  6F 31 4E 00 89 80 11 01  ......fdo1N.....
0440: 4E 00 8A 80 11 01 4E 00  8B 80 11 01 4E 00 8C 80  N.....N.....N...
0450: 11 01 4E 00 8D 80 11 01  1A EA 16 1A 93 16 1A A1  ..N.............
0460: 16 1A AF 16 1A BD 16 46  00 45 0E 80 F0 FF FF 7F  .......F.E......
0470: F0 FF FF 7F 66 64 69 31  00 80 21 06 0F 00 01 96  ....fdi1..!.....
0480: 07 02 00 10 07 80 00 00  06 29 08 1D 80 11 01 6A  .........).....j
0490: 48 23 80 23 03 02 10 0B  00 03 03 10 0C 00 07 03  H#.#............
04A0: 10 07 80 02 03 10 24 80  02 B0 04 03 03 10 24 80  ......$.......$.
04B0: 24 25 80 07 80 00 80 25  29 08 1D 80 11 01 6B 02  $%.....%).....k.
04C0: 00 10 00 80 00 F2 05 06  01 10 40 01 80 26 80 01  ..........@..&..
04D0: 10 20 80 43 00 43 01 02  09 10 00 80 00 E7 05 02  . .C.C..........
04E0: 07 80 00 80 00 FB 04 45  1E 80 F0 FF FF 7F F0 FF  .......E........
04F0: FF 7F 73 31 30 32 00 80  01 0C 05 45 1E 80 F0 FF  ..s102.....E....
0500: FF 7F F0 FF FF 7F 73 30  33 39 00 80 29 08 1D 80  ......s039..)...
0510: 11 01 6C 2B 1D 80 11 01  27 80 23 29 08 1D 80 11  ..l+....'.#)....
0520: 01 6D 02 07 80 00 80 00  3C 05 52 1E 80 F0 FF FF  .m......<.R.....
0530: 7F F0 FF FF 7F 73 31 30  32 01 4B 05 52 1E 80 F0  .....s102.K.R...
0540: FF FF 7F F0 FF FF 7F 73  30 33 39 CD 0D 80 F8 FF  .......s039.....
0550: FF 7F F8 FF FF 7F 6F 66  6D 79 00 80 45 0E 80 F0  ......ofmy..E...
0560: FF FF 7F F0 FF FF 7F 66  64 6F 31 00 80 55 0E 80  .......fdo1..U..
0570: F0 FF FF 7F F0 FF FF 7F  66 64 6F 31 52 1E 80 F0  ........fdo1R...
0580: FF FF 7F F0 FF FF 7F 73  31 30 32 4E 00 89 80 11  .......s102N....
0590: 01 4E 00 8A 80 11 01 4E  00 8B 80 11 01 4E 00 8C  .N.....N.....N..
05A0: 80 11 01 4E 00 8D 80 11  01 CD 0D 80 F8 FF FF 7F  ...N............
05B0: F8 FF FF 7F 6B 6C 6D 79  00 80 48 28 80 23 1A EA  ....klmy..H(.#..
05C0: 16 1A 93 16 1A A1 16 1A  AF 16 1A BD 16 46 00 45  .............F.E
05D0: 0E 80 F0 FF FF 7F F0 FF  FF 7F 66 64 69 31 00 80  ..........fdi1..
05E0: 20 00 21 00 01 EF 05 2B  1D 80 11 01 29 80 23 01   .!....+....).#.
05F0: FD 05 02 00 10 07 80 00  FD 05 01 FD 05 01 96 07  ................
0600: 02 00 10 1D 80 00 96 07  48 2A 80 23 24 2B 80 07  ........H*.#$+..
0610: 80 00 80 25 02 00 10 00  80 00 88 07 02 07 80 00  ...%............
0620: 80 00 53 06 3E 01 11 20  80 3F 06 45 1E 80 F0 FF  ..S.>.. .?.E....
0630: FF 7F F0 FF FF 7F 73 31  30 34 00 80 01 50 06 45  ......s104...P.E
0640: 1E 80 F0 FF FF 7F F0 FF  FF 7F 73 31 30 35 00 80  ..........s105..
0650: 01 7F 06 3E 01 11 20 80  6E 06 45 1E 80 F0 FF FF  ...>.. .n.E.....
0660: 7F F0 FF FF 7F 73 30 33  37 00 80 01 7F 06 45 1E  .....s037.....E.
0670: 80 F0 FF FF 7F F0 FF FF  7F 73 30 33 36 00 80 7B  .........s036..{
0680: 5B 80 11 01 5B 2C 80 5B  80 11 01 5B 80 11 01 68  [...[,.[...[...h
0690: 65 64 30 2B 5B 80 11 01  2D 80 23 45 0E 80 F0 FF  ed0+[...-.#E....
06A0: FF 7F F0 FF FF 7F 66 64  6F 31 00 80 55 0E 80 F0  ......fdo1..U...
06B0: FF FF 7F F0 FF FF 7F 66  64 6F 31 CD 0D 80 F8 FF  .......fdo1.....
06C0: FF 7F F8 FF FF 7F 6B 6C  6D 79 00 80 02 07 80 00  ......klmy......
06D0: 80 00 FF 06 3E 01 11 20  80 ED 06 52 1E 80 F0 FF  ....>.. ...R....
06E0: FF 7F F0 FF FF 7F 73 31  30 34 01 FC 06 52 1E 80  ......s104...R..
06F0: F0 FF FF 7F F0 FF FF 7F  73 31 30 35 01 27 07 3E  ........s105.'.>
0700: 01 11 20 80 18 07 52 1E  80 F0 FF FF 7F F0 FF FF  .. ...R.........
0710: 7F 73 30 33 37 01 27 07  52 1E 80 F0 FF FF 7F F0  .s037.'.R.......
0720: FF FF 7F 73 30 33 36 53  5B 80 11 01 5B 80 11 01  ...s036S[...[...
0730: 68 65 64 30 5B 2C 80 5B  80 11 01 5B 80 11 01 68  hed0[,.[...[...h
0740: 65 64 31 4E 01 5B 80 11  01 2F 01 5B 80 11 01 06  ed1N.[.../.[....
0750: 01 10 40 01 80 26 80 01  10 0C 80 43 00 43 01 1A  ..@..&.....C.C..
0760: EA 16 1A 93 16 1A A1 16  1A AF 16 1A BD 16 46 00  ..............F.
0770: 45 0E 80 F0 FF FF 7F F0  FF FF 7F 66 64 69 31 00  E..........fdi1.
0780: 80 20 00 21 00 01 93 07  02 00 10 07 80 00 93 07  . .!............
0790: 01 93 07 01 96 07 01 02  04 01 D9 0B 3E 06 00 07  ............>...
07A0: 80 EA 07 3E 10 00 00 80  AD 07 01 EA 07 42 CD 2E  ...>.........B..
07B0: 80 F8 FF FF 7F F8 FF FF  7F 6F 6E 6F 6E 00 80 48  .........onon..H
07C0: 2F 80 23 3C 10 00 00 80  07 80 CE 2E 80 F8 FF FF  /.#<............
07D0: 7F F8 FF FF 7F 6F 6E 6F  6E CD 2E 80 F8 FF FF 7F  .....onon.......
07E0: F8 FF FF 7F 6F 66 6F 6E  00 80 2E 0E 11 00 0D 00  ....ofon........
07F0: 3E 10 00 07 80 FE 07 3C  11 00 1D 80 07 80 3E 10  >......<......>.
0800: 00 1D 80 0C 08 3C 11 00  1C 80 07 80 24 30 80 00  .....<......$0..
0810: 80 11 00 25 02 00 10 00  80 00 22 08 06 0F 00 01  ...%......".....
0820: D9 0B 02 00 10 07 80 00  E6 09 03 03 10 03 00 15  ................
0830: 03 10 31 80 02 03 10 00  80 80 48 08 03 03 10 03  ..1.......H.....
0840: 00 48 32 80 23 01 7A 08  02 03 10 07 80 80 61 08  .H2.#.z.......a.
0850: 03 03 10 03 00 08 03 10  31 80 48 33 80 23 01 7A  ........1.H3.#.z
0860: 08 02 03 10 1D 80 80 7A  08 03 03 10 03 00 08 03  .......z........
0870: 10 34 80 48 35 80 23 01  7A 08 03 0E 00 05 00 15  .4.H5.#.z.......
0880: 0E 00 36 80 02 0E 00 00  80 03 92 08 06 0E 00 01  ..6.............
0890: 9F 08 02 0E 00 06 80 02  9F 08 03 0E 00 06 80 42  ...............B
08A0: 02 0E 00 00 80 80 E0 08  CD 0D 80 F8 FF FF 7F F8  ................
08B0: FF FF 7F 6F 6E 6D 79 00  80 48 37 80 23 CE 0D 80  ...onmy..H7.#...
08C0: F8 FF FF 7F F8 FF FF 7F  6F 6E 6D 79 CD 0D 80 F8  ........onmy....
08D0: FF FF 7F F8 FF FF 7F 6F  66 6D 79 00 80 01 61 09  .......ofmy...a.
08E0: 02 0E 00 07 80 80 EF 08  48 38 80 23 01 61 09 02  ........H8.#.a..
08F0: 0E 00 1D 80 80 FE 08 48  39 80 23 01 61 09 02 0E  .......H9.#.a...
0900: 00 1C 80 80 1E 09 CD 3A  80 F8 FF FF 7F F8 FF FF  .......:........
0910: 7F 6D 61 69 6E 00 80 48  3B 80 23 01 61 09 02 0E  .main..H;.#.a...
0920: 00 06 80 80 61 09 CD 2E  80 F8 FF FF 7F F8 FF FF  ....a...........
0930: 7F 6F 6E 6F 6E 00 80 48  3C 80 23 CE 2E 80 F8 FF  .onon..H<.#.....
0940: FF 7F F8 FF FF 7F 6F 6E  6F 6E CD 2E 80 F8 FF FF  ......onon......
0950: 7F F8 FF FF 7F 6F 66 6F  6E 00 80 1C 07 80 01 61  .....ofon......a
0960: 09 2E 03 02 10 0E 00 03  0E 00 04 00 15 0E 00 36  ...............6
0970: 80 02 0E 00 00 80 03 7F  09 06 0E 00 01 8C 09 02  ................
0980: 0E 00 06 80 02 8C 09 03  0E 00 06 80 02 0E 00 00  ................
0990: 80 80 9B 09 48 3D 80 23  01 D7 09 02 0E 00 07 80  ....H=.#........
09A0: 80 AA 09 48 3E 80 23 01  D7 09 02 0E 00 1D 80 80  ...H>.#.........
09B0: B9 09 48 3F 80 23 01 D7  09 02 0E 00 1C 80 80 C8  ..H?.#..........
09C0: 09 48 40 80 23 01 D7 09  02 0E 00 06 80 80 D7 09  .H@.#...........
09D0: 48 41 80 23 01 D7 09 03  02 10 09 00 48 42 80 23  HA.#........HB.#
09E0: 06 0F 00 01 D9 0B 02 00  10 1D 80 00 05 0B 24 43  ..............$C
09F0: 80 00 80 00 80 25 02 00  10 00 80 00 01 0A 01 01  .....%..........
0A00: 0A 02 00 10 00 80 01 02  0B 42 06 01 10 40 01 80  .........B...@..
0A10: 26 80 01 10 24 80 40 02  80 03 80 01 10 00 10 43  &...$.@........C
0A20: 00 43 01 02 02 10 00 80  80 32 0A 48 44 80 23 01  .C.......2.HD.#.
0A30: F3 0A 02 02 10 07 80 80  72 0A CD 0D 80 F8 FF FF  ........r.......
0A40: 7F F8 FF FF 7F 6F 6E 6D  79 00 80 48 45 80 23 CE  .....onmy..HE.#.
0A50: 0D 80 F8 FF FF 7F F8 FF  FF 7F 6F 6E 6D 79 CD 0D  ..........onmy..
0A60: 80 F8 FF FF 7F F8 FF FF  7F 6F 66 6D 79 00 80 01  .........ofmy...
0A70: F3 0A 02 02 10 1D 80 80  81 0A 48 46 80 23 01 F3  ..........HF.#..
0A80: 0A 02 02 10 1C 80 80 A1  0A CD 3A 80 F8 FF FF 7F  ..........:.....
0A90: F8 FF FF 7F 6D 61 69 6E  00 80 48 47 80 23 01 F3  ....main..HG.#..
0AA0: 0A 02 02 10 06 80 80 E4  0A CD 2E 80 F8 FF FF 7F  ................
0AB0: F8 FF FF 7F 6F 6E 6F 6E  00 80 48 48 80 23 CE 2E  ....onon..HH.#..
0AC0: 80 F8 FF FF 7F F8 FF FF  7F 6F 6E 6F 6E CD 2E 80  .........onon...
0AD0: F8 FF FF 7F F8 FF FF 7F  6F 66 6F 6E 00 80 1C 07  ........ofon....
0AE0: 80 01 F3 0A 02 02 10 49  80 80 F3 0A 48 44 80 23  .......I....HD.#
0AF0: 01 F3 0A 02 09 10 00 80  01 FB 0A 2E 06 0F 00 01  ................
0B00: 02 0B 01 D9 0B 02 00 10  1C 80 00 13 0B 1A DE 0B  ................
0B10: 01 D9 0B 02 00 10 06 80  00 D9 0B 48 4A 80 23 24  ...........HJ.#$
0B20: 4B 80 00 80 00 80 25 02  00 10 00 80 00 CB 0B 42  K.....%........B
0B30: 06 01 10 40 01 80 26 80  01 10 4C 80 43 00 43 01  ...@..&...L.C.C.
0B40: 02 02 10 00 80 80 80 0B  CD 0D 80 F8 FF FF 7F F8  ................
0B50: FF FF 7F 6F 6E 6D 79 00  80 48 46 80 23 CE 0D 80  ...onmy..HF.#...
0B60: F8 FF FF 7F F8 FF FF 7F  6F 6E 6D 79 CD 0D 80 F8  ........onmy....
0B70: FF FF 7F F8 FF FF 7F 6F  66 6D 79 00 80 01 C4 0B  .......ofmy.....
0B80: 02 02 10 07 80 80 8F 0B  48 44 80 23 01 C4 0B CD  ........HD.#....
0B90: 0D 80 F8 FF FF 7F F8 FF  FF 7F 6F 6E 6D 79 00 80  ..........onmy..
0BA0: 48 45 80 23 CE 0D 80 F8  FF FF 7F F8 FF FF 7F 6F  HE.#...........o
0BB0: 6E 6D 79 CD 0D 80 F8 FF  FF 7F F8 FF FF 7F 6F 66  nmy...........of
0BC0: 6D 79 00 80 2E 06 0F 00  01 D6 0B 02 00 10 07 80  my..............
0BD0: 00 D6 0B 01 D6 0B 01 D9  0B 01 F1 00 21 00 B4 01  ............!...
0BE0: 16 00 00 80 0B 0F 00 02  0F 00 07 80 02 B6 0C 48  ...............H
0BF0: 4D 80 71 32 1D 80 26 80  71 31 12 00 9D 08 12 00  M.q2..&.q1......
0C00: 01 00 00 00 00 00 00 00  00 00 00 00 00 00 00 00  ................
0C10: 00 AA 0C B4 04 12 00 00  80 24 4E 80 00 80 00 80  .........$N.....
0C20: 25 02 00 10 00 80 00 82  0C 42 71 03 02 10 02 02  %........Bq.....
0C30: 10 00 80 00 70 0C 71 01  02 02 10 00 80 00 5F 0C  ....p.q......._.
0C40: CD 3A 80 F8 FF FF 7F F8  FF FF 7F 6D 61 69 6E 00  .:.........main.
0C50: 80 2B 87 80 11 01 4F 80  23 0C 0F 00 01 6D 0C 2B  .+....O.#....m.+
0C60: 87 80 11 01 50 80 23 B4  04 16 00 00 80 01 7E 0C  ....P.#.......~.
0C70: 2B 87 80 11 01 50 80 23  B4 04 16 00 00 80 2E 01  +....P.#........
0C80: A7 0C 02 00 10 07 80 00  93 0C B4 04 16 00 00 80  ................
0C90: 01 A7 0C 02 00 10 1D 80  00 A7 0C B4 04 16 00 00  ................
0CA0: 80 0C 0F 00 01 A7 0C 01  B3 0C B4 04 16 00 00 80  ................
0CB0: 0C 0F 00 01 E7 0B 1B 41  00 80 03 80 02 10 02 00  .......A........
0CC0: 41 00 80 51 80 03 10 03  00 41 01 80 26 80 03 10  A..Q.....A..&...
0CD0: 04 00 41 02 80 52 80 03  10 05 00 41 04 80 03 80  ..A..R.....A....
0CE0: 03 10 06 00 41 00 80 51  80 04 10 07 00 41 01 80  ....A..Q.....A..
0CF0: 26 80 04 10 08 00 41 02  80 53 80 04 10 09 00 41  &.....A..S.....A
0D00: 0F 80 0F 80 04 10 0A 00  41 54 80 52 80 04 10 0C  ........AT.R....
0D10: 00 1B 42 1E F0 FF FF 7F  48 55 80 23 02 02 10 00  ..B.....HU.#....
0D20: 80 80 2B 0D 48 44 80 23  01 EC 0D 02 02 10 07 80  ..+.HD.#........
0D30: 80 6B 0D CD 0D 80 F8 FF  FF 7F F8 FF FF 7F 6F 6E  .k............on
0D40: 6D 79 00 80 48 45 80 23  CE 0D 80 F8 FF FF 7F F8  my..HE.#........
0D50: FF FF 7F 6F 6E 6D 79 CD  0D 80 F8 FF FF 7F F8 FF  ...onmy.........
0D60: FF 7F 6F 66 6D 79 00 80  01 EC 0D 02 02 10 1D 80  ..ofmy..........
0D70: 80 7A 0D 48 46 80 23 01  EC 0D 02 02 10 1C 80 80  .z.HF.#.........
0D80: 9A 0D CD 3A 80 F8 FF FF  7F F8 FF FF 7F 6D 61 69  ...:.........mai
0D90: 6E 00 80 48 47 80 23 01  EC 0D 02 02 10 06 80 80  n..HG.#.........
0DA0: DD 0D CD 2E 80 F8 FF FF  7F F8 FF FF 7F 6F 6E 6F  .............ono
0DB0: 6E 00 80 48 48 80 23 CE  2E 80 F8 FF FF 7F F8 FF  n..HH.#.........
0DC0: FF 7F 6F 6E 6F 6E CD 2E  80 F8 FF FF 7F F8 FF FF  ..onon..........
0DD0: 7F 6F 66 6F 6E 00 80 1C  07 80 01 EC 0D 02 02 10  .ofon...........
0DE0: 49 80 80 EC 0D 48 44 80  23 01 EC 0D 02 04 10 07  I....HD.#.......
0DF0: 80 00 FB 0D 48 56 80 23  01 07 0E 02 04 10 1D 80  ....HV.#........
0E00: 00 07 0E 48 57 80 23 21  00                       ...HW.#!.       
```

#### Opcodes

```
  0: 0x0009 [0xAC] Breeding Monster03 (ID: 17924236/0x0111808C)->Render.Flags7 = 0*
  1: 0x0011 [0x3E] IF !(Work_Zone_Memorize[1] bit 8*) GOTO 0x00D4
  2: 0x0018 [0x41] ExtData[1]->WorkLocal[0] = Work_Zone_Memorize[12] (bits 16*-31*)
  3: 0x0021 [0x41] ExtData[1]->WorkLocal[1] = Work_Zone_Memorize[10] (bits 24*-31*)
  4: 0x002A [0xB6] ENTITY_APPEARANCE_HANDLER(case=Hair style, value=ExtData[1]->WorkLocal[0])
  5: 0x002E [0xB6] ENTITY_APPEARANCE_HANDLER(case=Model size, value=ExtData[1]->WorkLocal[1])
  6: 0x0032 [0x80] LOAD_WAIT(entity=EventEntity)
  7: 0x0037 [0x02] IF !(ExtData[1]->WorkLocal[0] == 2914*) GOTO 0x0048
  8: 0x003F [0x95] SETUP_EVENT_NPC: Prepare NPC for event (Render.Flags3 = 4*)
  9: 0x0042 [0x1C] WAIT(1* ticks)
 10: 0x0045 [0x01] GOTO 0x0082
 11: 0x0048 [0x02] IF !(ExtData[1]->WorkLocal[0] == 341*) GOTO 0x0059
 12: 0x0050 [0x95] SETUP_EVENT_NPC: Prepare NPC for event (Render.Flags3 = 4*)
 13: 0x0053 [0x1C] WAIT(1* ticks)
 14: 0x0056 [0x01] GOTO 0x0082
 15: 0x0059 [0x02] IF !(ExtData[1]->WorkLocal[0] == 2916*) GOTO 0x006A
 16: 0x0061 [0x95] SETUP_EVENT_NPC: Prepare NPC for event (Render.Flags3 = 4*)
 17: 0x0064 [0x1C] WAIT(1* ticks)
 18: 0x0067 [0x01] GOTO 0x0082
 19: 0x006A [0x02] IF !(ExtData[1]->WorkLocal[0] == 289*) GOTO 0x0082
 20: 0x0072 [0x2C] CREATE_SCHEDULER_TASK: Create scheduler "kill" with entities [EventEntity, EventEntity]
 21: 0x007F [0x1C] WAIT(6* ticks)

SUBROUTINE_0082:
 22: 0x0082 [0x22] ENTITY_HIDE_FLAG(enabled=0x00)
 23: 0x0084 [0x1C] WAIT(1* ticks)
 24: 0x0087 [0x3E] IF !(Work_Zone_Memorize[1] bit 12*) GOTO 0x00B1
 25: 0x008E [0xCD] LOAD_SCHEDULED_TASK_ALT4: Load scheduler "onmy" with entities [EventEntity, EventEntity], work=[237*, 0*]
 26: 0x009F [0xCE] WAIT_LOAD_SCHEDULER_ALT4: Wait for scheduler "onmy" with entities [EventEntity, EventEntity], work=237*
 27: 0x00AE [0x01] GOTO 0x00D1
 28: 0x00B1 [0xCD] LOAD_SCHEDULED_TASK_ALT4: Load scheduler "klmy" with entities [EventEntity, EventEntity], work=[237*, 0*]
 29: 0x00C2 [0xCE] WAIT_LOAD_SCHEDULER_ALT4: Wait for scheduler "klmy" with entities [EventEntity, EventEntity], work=237*

SUBROUTINE_00D1:
 30: 0x00D1 [0x01] GOTO 0x00D6
 31: 0x00D4 [0x22] ENTITY_HIDE_FLAG(enabled=0x01)

SUBROUTINE_00D6:
 32: 0x00D6 [0x00] END_REQSTACK()
```

#### Data or dead code:

```
# Dead code (unreachable instructions):
     0x00D7 [0x03] ExtData[1]->WorkLocal[11] = Work_Zone[5]
     0x00DC [0x03] ExtData[1]->WorkLocal[13] = Work_Zone[6]
     0x00E1 [0x1A] CALL_SUBROUTINE(address=0x0CB7)
     0x00E4 [0x1E] EventEntity looks at LocalPlayer and starts talking
     0x00E9 [0x06] ExtData[1]->WorkLocal[16] = 0
     0x00EC [0x03] ExtData[1]->WorkLocal[15] = 1*
     0x00F1 [0x02] IF !(ExtData[1]->WorkLocal[15] <= 0*) GOTO 0x0BDC
     0x00F9 [0x3E] IF !(ExtData[1]->WorkLocal[6] bit 0*) GOTO 0x079C
     0x0100 [0x42] SET_CLI_EVENT_CANCEL_DATA()
     0x0101 [0x46] CAMERA_CONTROL: Disable user control
     0x0103 [0x45] LOAD_SCHEDULED_TASK: Load scheduler "fdo1" with entities [LocalPlayer, LocalPlayer], work=[200*, 0*]
     0x0114 [0x55] WAIT_LOAD_SCHEDULER: Wait for scheduler "fdo1" with entities [LocalPlayer, LocalPlayer], work=200*
     0x0123 [0x38] SET_CLIENT_EVENT_MODE(mode=19*)
     0x0126 [0x2F] Chacharoon (ID: 17924187/0x0111805B)->Render.Flags0 &= ~0x80000 // Bit 19
     0x012C [0x4E] SET_ENTITY_HIDE_FLAG: Show Chacharoon (ID: 17924187/0x0111805B)
     0x0132 [0x02] IF !(1* == 0*) GOTO 0x0154
     0x013A [0x29] REQ_SET_WAIT(priority=0x08, entity_id=LocalPlayer, tag_num=0x23)
     0x0141 [0x37] UPDATE_EVENT_POSITION_AND_DIR: x=-12.623*, z=12.170*, y=0.156*, direction=76.7°*
     0x014A [0x29] REQ_SET_WAIT(priority=0x08, entity_id=Chacharoon (ID: 17924187/0x0111805B), tag_num=0x21)
     0x0151 [0x01] GOTO 0x0178
     0x0154 [0x29] REQ_SET_WAIT(priority=0x08, entity_id=LocalPlayer, tag_num=0x24)
     0x015B [0x37] UPDATE_EVENT_POSITION_AND_DIR: x=352.904*, z=-552.515*, y=-3.247*, direction=347.6°*
     0x0164 [0xBA] SET_ENTITY_POSITION(entity_id=Green Thumb Moogle (ID: 17924125/0x0111801D), pos_x=360.031*, pos_z=-549.734*, pos_y=-3.087*, direction=169.2°*)
     0x0171 [0x29] REQ_SET_WAIT(priority=0x08, entity_id=Chacharoon (ID: 17924187/0x0111805B), tag_num=0x23)
     0x0178 [0x80] LOAD_WAIT(entity=Chacharoon (ID: 17924187/0x0111805B))
     0x017D [0xCD] LOAD_SCHEDULED_TASK_ALT4: Load scheduler "onmy" with entities [EventEntity, EventEntity], work=[237*, 0*]
     0x018E [0x02] IF !(1* == 0*) GOTO 0x019F
     0x0196 [0x4E] SET_ENTITY_HIDE_FLAG: Hide Chacharoon (ID: 17924231/0x01118087)
     0x019C [0x01] GOTO 0x01A5
     0x019F [0x4E] SET_ENTITY_HIDE_FLAG: Hide Chacharoon (ID: 17924232/0x01118088)
     0x01A5 [0x4A] Chacharoon (ID: 17924187/0x0111805B) looks at EventEntity
     0x01AE [0x4A] EventEntity looks at LocalPlayer
     0x01B7 [0x4A] Green Thumb Moogle (ID: 17924125/0x0111801D) looks at EventEntity
     0x01C0 [0x6F] WAIT_FRAME_DELAY: Yield until WaitTime reaches zero
     0x01C1 [0x76] CHECK_ENTITY_RENDER_FLAGS: Wait until EventEntity Render.Flags0 and Render.Flags3 conditions are met
     0x01C6 [0x6F] WAIT_FRAME_DELAY: Yield until WaitTime reaches zero
     0x01C7 [0x76] CHECK_ENTITY_RENDER_FLAGS: Wait until Green Thumb Moogle (ID: 17924125/0x0111801D) Render.Flags0 and Render.Flags3 conditions are met
     0x01CC [0x6F] WAIT_FRAME_DELAY: Yield until WaitTime reaches zero
     0x01CD [0x76] CHECK_ENTITY_RENDER_FLAGS: Wait until Chacharoon (ID: 17924187/0x0111805B) Render.Flags0 and Render.Flags3 conditions are met
     0x01D2 [0x92] Chacharoon (ID: 17924187/0x0111805B)->Render.Flags3 ^= 0x01
     0x01D8 [0x92] Green Thumb Moogle (ID: 17924125/0x0111801D)->Render.Flags3 ^= 0x01
     0x01DE [0x92] EventEntity->Render.Flags3 ^= 0x01
     0x01E4 [0x02] IF !(1* == 0*) GOTO 0x01EF
     0x01EC [0x01] GOTO 0x02B1
     0x01EF [0x92] Breeding Monster (ID: 17924233/0x01118089)->Render.Flags3 ^= 0x01
     0x01F5 [0x92] Breeding Monster01 (ID: 17924234/0x0111808A)->Render.Flags3 ^= 0x01
     0x01FB [0x92] Breeding Monster02 (ID: 17924235/0x0111808B)->Render.Flags3 ^= 0x01
     0x0201 [0x92] Breeding Monster03 (ID: 17924236/0x0111808C)->Render.Flags3 ^= 0x01
     0x0207 [0x92] Breeding Monster00 (ID: 17924237/0x0111808D)->Render.Flags3 ^= 0x01
     0x020D [0x02] IF !(3* == 0*) GOTO 0x0236
     0x0215 [0x92] Breeding Monster (ID: 17924233/0x01118089)->Render.Flags3 ^= 0x01
     0x021B [0x92] Breeding Monster00 (ID: 17924237/0x0111808D)->Render.Flags3 ^= 0x01
     0x0221 [0x4E] SET_ENTITY_HIDE_FLAG: Hide Breeding Monster01 (ID: 17924234/0x0111808A)
     0x0227 [0x4E] SET_ENTITY_HIDE_FLAG: Hide Breeding Monster02 (ID: 17924235/0x0111808B)
     0x022D [0x4E] SET_ENTITY_HIDE_FLAG: Hide Breeding Monster03 (ID: 17924236/0x0111808C)
     0x0233 [0x01] GOTO 0x02B1
     0x0236 [0x02] IF !(3* == 1*) GOTO 0x025F
     0x023E [0x92] Breeding Monster01 (ID: 17924234/0x0111808A)->Render.Flags3 ^= 0x01
     0x0244 [0x4E] SET_ENTITY_HIDE_FLAG: Hide Breeding Monster02 (ID: 17924235/0x0111808B)
     0x024A [0x4E] SET_ENTITY_HIDE_FLAG: Hide Breeding Monster03 (ID: 17924236/0x0111808C)
     0x0250 [0x4E] SET_ENTITY_HIDE_FLAG: Hide Breeding Monster00 (ID: 17924237/0x0111808D)
     0x0256 [0x4E] SET_ENTITY_HIDE_FLAG: Hide Breeding Monster (ID: 17924233/0x01118089)
     0x025C [0x01] GOTO 0x02B1
     0x025F [0x02] IF !(3* == 2*) GOTO 0x0288
     0x0267 [0x92] Breeding Monster02 (ID: 17924235/0x0111808B)->Render.Flags3 ^= 0x01
     0x026D [0x4E] SET_ENTITY_HIDE_FLAG: Hide Breeding Monster03 (ID: 17924236/0x0111808C)
     0x0273 [0x4E] SET_ENTITY_HIDE_FLAG: Hide Breeding Monster00 (ID: 17924237/0x0111808D)
     0x0279 [0x4E] SET_ENTITY_HIDE_FLAG: Hide Breeding Monster (ID: 17924233/0x01118089)
     0x027F [0x4E] SET_ENTITY_HIDE_FLAG: Hide Breeding Monster01 (ID: 17924234/0x0111808A)
     0x0285 [0x01] GOTO 0x02B1
     0x0288 [0x02] IF !(3* == 3*) GOTO 0x02B1
     0x0290 [0x92] Breeding Monster03 (ID: 17924236/0x0111808C)->Render.Flags3 ^= 0x01
     0x0296 [0x4E] SET_ENTITY_HIDE_FLAG: Hide Breeding Monster01 (ID: 17924234/0x0111808A)
     0x029C [0x4E] SET_ENTITY_HIDE_FLAG: Hide Breeding Monster02 (ID: 17924235/0x0111808B)
     0x02A2 [0x4E] SET_ENTITY_HIDE_FLAG: Hide Breeding Monster00 (ID: 17924237/0x0111808D)
     0x02A8 [0x4E] SET_ENTITY_HIDE_FLAG: Hide Breeding Monster (ID: 17924233/0x01118089)
     0x02AE [0x01] GOTO 0x02B1
     0x02B1 [0x29] REQ_SET_WAIT(priority=0x08, entity_id=Green Thumb Moogle (ID: 17924125/0x0111801D), tag_num=0x49)
     0x02B8 [0x02] IF !(1* == 0*) GOTO 0x02D4
     0x02C0 [0x45] LOAD_SCHEDULED_TASK: Load scheduler "s103" with entities [LocalPlayer, LocalPlayer], work=[690*, 0*]
     0x02D1 [0x01] GOTO 0x02E5
     0x02D4 [0x45] LOAD_SCHEDULED_TASK: Load scheduler "s038" with entities [LocalPlayer, LocalPlayer], work=[690*, 0*]
     0x02E5 [0x45] LOAD_SCHEDULED_TASK: Load scheduler "fdi1" with entities [LocalPlayer, LocalPlayer], work=[200*, 0*]
     0x02F6 [0x55] WAIT_LOAD_SCHEDULER: Wait for scheduler "fdi1" with entities [LocalPlayer, LocalPlayer], work=200*
     0x0305 [0x2B] Green Thumb Moogle (ID: 17924125/0x0111801D) [8730*]:
    → "Pardon my perilous proclamation, but your bestial buddy has become a blight on this backyard of bounties! At this rate, you'll be hard-pressed to have a harvest at all, kupo!"
     0x030C [0x23] WAIT_FOR_DIALOG_INTERACTION
     0x030D [0x02] IF !(1* == 0*) GOTO 0x0327
     0x0315 [0x52] END_LOAD_SCHEDULER: End scheduler "s103" with entities [LocalPlayer, LocalPlayer], work=690*
     0x0324 [0x01] GOTO 0x0336
     0x0327 [0x52] END_LOAD_SCHEDULER: End scheduler "s038" with entities [LocalPlayer, LocalPlayer], work=690*
     0x0336 [0x02] IF !(1* == 0*) GOTO 0x036D
     0x033E [0x3E] IF !(Work_Zone_Memorize[1] bit 13*) GOTO 0x0359
     0x0345 [0x45] LOAD_SCHEDULED_TASK: Load scheduler "s104" with entities [LocalPlayer, LocalPlayer], work=[690*, 0*]
     0x0356 [0x01] GOTO 0x036A
     0x0359 [0x45] LOAD_SCHEDULED_TASK: Load scheduler "s105" with entities [LocalPlayer, LocalPlayer], work=[690*, 0*]
     0x036A [0x01] GOTO 0x0399
     0x036D [0x3E] IF !(Work_Zone_Memorize[1] bit 13*) GOTO 0x0388
     0x0374 [0x45] LOAD_SCHEDULED_TASK: Load scheduler "s037" with entities [LocalPlayer, LocalPlayer], work=[690*, 0*]
     0x0385 [0x01] GOTO 0x0399
     0x0388 [0x45] LOAD_SCHEDULED_TASK: Load scheduler "s036" with entities [LocalPlayer, LocalPlayer], work=[690*, 0*]
     0x0399 [0x48] [System] [8731*]:
    → "%0's heart is shrouded in darkness, turning the creature against you! Leaving %0 in this state could spell doom for your garden."
     0x039C [0x23] WAIT_FOR_DIALOG_INTERACTION
     0x039D [0x29] REQ_SET_WAIT(priority=0x08, entity_id=Green Thumb Moogle (ID: 17924125/0x0111801D), tag_num=0x4A)
     0x03A4 [0x02] IF !(1* == 0*) GOTO 0x03D7
     0x03AC [0x3E] IF !(Work_Zone_Memorize[1] bit 13*) GOTO 0x03C5
     0x03B3 [0x52] END_LOAD_SCHEDULER: End scheduler "s104" with entities [LocalPlayer, LocalPlayer], work=690*
     0x03C2 [0x01] GOTO 0x03D4
     0x03C5 [0x52] END_LOAD_SCHEDULER: End scheduler "s105" with entities [LocalPlayer, LocalPlayer], work=690*
     0x03D4 [0x01] GOTO 0x03FF
     0x03D7 [0x3E] IF !(Work_Zone_Memorize[1] bit 13*) GOTO 0x03F0
     0x03DE [0x52] END_LOAD_SCHEDULER: End scheduler "s037" with entities [LocalPlayer, LocalPlayer], work=690*
     0x03ED [0x01] GOTO 0x03FF
     0x03F0 [0x52] END_LOAD_SCHEDULER: End scheduler "s036" with entities [LocalPlayer, LocalPlayer], work=690*
     0x03FF [0x0B] ExtData[1]->WorkLocal[15]++
     0x0402 [0x02] IF !(ExtData[1]->WorkLocal[15] <= 1*) GOTO 0x0799
     0x040A [0x24] CREATE_DIALOG(message_id=8732*, default_option=0*, option_flags=0*)
    → "Whatever will you do!? [Not a thing./Hope moogle magic does the trick./Put the creature down.]"
     0x0411 [0x25] WAIT_DIALOG_SELECT()
     0x0412 [0x02] IF !(Work_Zone[0] == 0*) GOTO 0x0481
     0x041A [0x45] LOAD_SCHEDULED_TASK: Load scheduler "fdo1" with entities [LocalPlayer, LocalPlayer], work=[200*, 0*]
     0x042B [0x55] WAIT_LOAD_SCHEDULER: Wait for scheduler "fdo1" with entities [LocalPlayer, LocalPlayer], work=200*
     0x043A [0x4E] SET_ENTITY_HIDE_FLAG: Show Breeding Monster (ID: 17924233/0x01118089)
     0x0440 [0x4E] SET_ENTITY_HIDE_FLAG: Show Breeding Monster01 (ID: 17924234/0x0111808A)
     0x0446 [0x4E] SET_ENTITY_HIDE_FLAG: Show Breeding Monster02 (ID: 17924235/0x0111808B)
     0x044C [0x4E] SET_ENTITY_HIDE_FLAG: Show Breeding Monster03 (ID: 17924236/0x0111808C)
     0x0452 [0x4E] SET_ENTITY_HIDE_FLAG: Show Breeding Monster00 (ID: 17924237/0x0111808D)
     0x0458 [0x1A] CALL_SUBROUTINE(address=0x16EA)
     0x045B [0x1A] CALL_SUBROUTINE(address=0x1693)
     0x045E [0x1A] CALL_SUBROUTINE(address=0x16A1)
     0x0461 [0x1A] CALL_SUBROUTINE(address=0x16AF)
     0x0464 [0x1A] CALL_SUBROUTINE(address=0x16BD)
     0x0467 [0x46] CAMERA_CONTROL: Restore default settings
     0x0469 [0x45] LOAD_SCHEDULED_TASK: Load scheduler "fdi1" with entities [LocalPlayer, LocalPlayer], work=[200*, 0*]
     0x047A [0x21] END_EVENT
     0x047B [0x06] ExtData[1]->WorkLocal[15] = 0
     0x047E [0x01] GOTO 0x0796
     0x0481 [0x02] IF !(Work_Zone[0] == 1*) GOTO 0x0600
     0x0489 [0x29] REQ_SET_WAIT(priority=0x08, entity_id=Green Thumb Moogle (ID: 17924125/0x0111801D), tag_num=0x6A)
     0x0490 [0x48] [System] [8733*]:
    → "This entails having the Green Thumb Moogle employ the power of shining stars to cast an incantation on the creature, thus calming it."
     0x0493 [0x23] WAIT_FOR_DIALOG_INTERACTION
     0x0494 [0x03] Work_Zone[2] = ExtData[1]->WorkLocal[11]
     0x0499 [0x03] Work_Zone[3] = ExtData[1]->WorkLocal[12]
     0x049E [0x07] Work_Zone[3] += 1*
     0x04A3 [0x02] IF !(Work_Zone[3] <= 10*) GOTO 0x04B0
     0x04AB [0x03] Work_Zone[3] = 10*
     0x04B0 [0x24] CREATE_DIALOG(message_id=8734*, default_option=1*, option_flags=0*)
    → "Use moogle magic? (On hand: $26 x $0) [Yes.i$26 x $1)/No.]"
     0x04B7 [0x25] WAIT_DIALOG_SELECT()
     0x04B8 [0x29] REQ_SET_WAIT(priority=0x08, entity_id=Green Thumb Moogle (ID: 17924125/0x0111801D), tag_num=0x6B)
     0x04BF [0x02] IF !(Work_Zone[0] == 0*) GOTO 0x05F2
     0x04C7 [0x06] Work_Zone[1] = 0
     0x04CA [0x40] SET_BIT_WORK_RANGE(start_bit=8*, end_bit=15*, target=Work_Zone[1], source=13*)
     0x04D3 [0x43] SEND_EVENT_UPDATE: Send pending tag to server (packet 0x005B)
     0x04D5 [0x43] SEND_EVENT_UPDATE: Check pending flag (skip if not pending)
     0x04D7 [0x02] IF !(Work_Zone[9] == 0*) GOTO 0x05E7
     0x04DF [0x02] IF !(1* == 0*) GOTO 0x04FB
     0x04E7 [0x45] LOAD_SCHEDULED_TASK: Load scheduler "s102" with entities [LocalPlayer, LocalPlayer], work=[690*, 0*]
     0x04F8 [0x01] GOTO 0x050C
     0x04FB [0x45] LOAD_SCHEDULED_TASK: Load scheduler "s039" with entities [LocalPlayer, LocalPlayer], work=[690*, 0*]
     0x050C [0x29] REQ_SET_WAIT(priority=0x08, entity_id=Green Thumb Moogle (ID: 17924125/0x0111801D), tag_num=0x6C)
     0x0513 [0x2B] Green Thumb Moogle (ID: 17924125/0x0111801D) [8735*]:
    → "Thanks to your terror's temper tantrum, I can't teleport! I can only hope this hex harbors hearty enough healing properties to help herald halcyon happenings, kupo."
     0x051A [0x23] WAIT_FOR_DIALOG_INTERACTION
     0x051B [0x29] REQ_SET_WAIT(priority=0x08, entity_id=Green Thumb Moogle (ID: 17924125/0x0111801D), tag_num=0x6D)
     0x0522 [0x02] IF !(1* == 0*) GOTO 0x053C
     0x052A [0x52] END_LOAD_SCHEDULER: End scheduler "s102" with entities [LocalPlayer, LocalPlayer], work=690*
     0x0539 [0x01] GOTO 0x054B
     0x053C [0x52] END_LOAD_SCHEDULER: End scheduler "s039" with entities [LocalPlayer, LocalPlayer], work=690*
     0x054B [0xCD] LOAD_SCHEDULED_TASK_ALT4: Load scheduler "ofmy" with entities [EventEntity, EventEntity], work=[237*, 0*]
     0x055C [0x45] LOAD_SCHEDULED_TASK: Load scheduler "fdo1" with entities [LocalPlayer, LocalPlayer], work=[200*, 0*]
     0x056D [0x55] WAIT_LOAD_SCHEDULER: Wait for scheduler "fdo1" with entities [LocalPlayer, LocalPlayer], work=200*
     0x057C [0x52] END_LOAD_SCHEDULER: End scheduler "s102" with entities [LocalPlayer, LocalPlayer], work=690*
     0x058B [0x4E] SET_ENTITY_HIDE_FLAG: Show Breeding Monster (ID: 17924233/0x01118089)
     0x0591 [0x4E] SET_ENTITY_HIDE_FLAG: Show Breeding Monster01 (ID: 17924234/0x0111808A)
     0x0597 [0x4E] SET_ENTITY_HIDE_FLAG: Show Breeding Monster02 (ID: 17924235/0x0111808B)
     0x059D [0x4E] SET_ENTITY_HIDE_FLAG: Show Breeding Monster03 (ID: 17924236/0x0111808C)
     0x05A3 [0x4E] SET_ENTITY_HIDE_FLAG: Show Breeding Monster00 (ID: 17924237/0x0111808D)
     0x05A9 [0xCD] LOAD_SCHEDULED_TASK_ALT4: Load scheduler "klmy" with entities [EventEntity, EventEntity], work=[237*, 0*]
     0x05BA [0x48] [System] [8736*]:
    → "The darkness no longer dwells within %0's heart."
     0x05BD [0x23] WAIT_FOR_DIALOG_INTERACTION
     0x05BE [0x1A] CALL_SUBROUTINE(address=0x16EA)
     0x05C1 [0x1A] CALL_SUBROUTINE(address=0x1693)
     0x05C4 [0x1A] CALL_SUBROUTINE(address=0x16A1)
     0x05C7 [0x1A] CALL_SUBROUTINE(address=0x16AF)
     0x05CA [0x1A] CALL_SUBROUTINE(address=0x16BD)
     0x05CD [0x46] CAMERA_CONTROL: Restore default settings
     0x05CF [0x45] LOAD_SCHEDULED_TASK: Load scheduler "fdi1" with entities [LocalPlayer, LocalPlayer], work=[200*, 0*]
     0x05E0 [0x20] SET_CLI_EVENT_UC_FLAG: Unlock player control
     0x05E2 [0x21] END_EVENT
     0x05E3 [0x00] END_REQSTACK()
     0x05E4 [0x01] GOTO 0x05EF
     0x05E7 [0x2B] Green Thumb Moogle (ID: 17924125/0x0111801D) [7458*]:
    → "Shucks, it seems you're sans sufficient starshine savings, kupo."
     0x05EE [0x23] WAIT_FOR_DIALOG_INTERACTION
     0x05EF [0x01] GOTO 0x05FD
     0x05F2 [0x02] IF !(Work_Zone[0] == 1*) GOTO 0x05FD
     0x05FA [0x01] GOTO 0x05FD
     0x05FD [0x01] GOTO 0x0796
     0x0600 [0x02] IF !(Work_Zone[0] == 2*) GOTO 0x0796
     0x0608 [0x48] [System] [8678*]:
    → "By putting %0 down, you will personally end its life. While there will be no physical repercussion for doing such, are you willing to have that on your conscience?"
     0x060B [0x23] WAIT_FOR_DIALOG_INTERACTION
     0x060C [0x24] CREATE_DIALOG(message_id=8679*, default_option=1*, option_flags=0*)
    → "Put the creature down? [Yes, I have no reservations./No, not yet!]"
     0x0613 [0x25] WAIT_DIALOG_SELECT()
     0x0614 [0x02] IF !(Work_Zone[0] == 0*) GOTO 0x0788
     0x061C [0x02] IF !(1* == 0*) GOTO 0x0653
     0x0624 [0x3E] IF !(Work_Zone_Memorize[1] bit 13*) GOTO 0x063F
     0x062B [0x45] LOAD_SCHEDULED_TASK: Load scheduler "s104" with entities [LocalPlayer, LocalPlayer], work=[690*, 0*]
     0x063C [0x01] GOTO 0x0650
     0x063F [0x45] LOAD_SCHEDULED_TASK: Load scheduler "s105" with entities [LocalPlayer, LocalPlayer], work=[690*, 0*]
     0x0650 [0x01] GOTO 0x067F
     0x0653 [0x3E] IF !(Work_Zone_Memorize[1] bit 13*) GOTO 0x066E
     0x065A [0x45] LOAD_SCHEDULED_TASK: Load scheduler "s037" with entities [LocalPlayer, LocalPlayer], work=[690*, 0*]
     0x066B [0x01] GOTO 0x067F
     0x066E [0x45] LOAD_SCHEDULED_TASK: Load scheduler "s036" with entities [LocalPlayer, LocalPlayer], work=[690*, 0*]
     0x067F [0x7B] Chacharoon (ID: 17924187/0x0111805B) stops talking
     0x0684 [0x5B] LOAD_EXT_SCHEDULER: Load scheduler "hed0" with entities [Chacharoon (ID: 17924187/0x0111805B), Chacharoon (ID: 17924187/0x0111805B)], work=3566*
     0x0693 [0x2B] Chacharoon (ID: 17924187/0x0111805B) [8680*]:
    → "<Snurk> Chacharoon...will not be forgetting %0...<snurk> ever. Waaaaaah!"
     0x069A [0x23] WAIT_FOR_DIALOG_INTERACTION
     0x069B [0x45] LOAD_SCHEDULED_TASK: Load scheduler "fdo1" with entities [LocalPlayer, LocalPlayer], work=[200*, 0*]
     0x06AC [0x55] WAIT_LOAD_SCHEDULER: Wait for scheduler "fdo1" with entities [LocalPlayer, LocalPlayer], work=200*
     0x06BB [0xCD] LOAD_SCHEDULED_TASK_ALT4: Load scheduler "klmy" with entities [EventEntity, EventEntity], work=[237*, 0*]
     0x06CC [0x02] IF !(1* == 0*) GOTO 0x06FF
     0x06D4 [0x3E] IF !(Work_Zone_Memorize[1] bit 13*) GOTO 0x06ED
     0x06DB [0x52] END_LOAD_SCHEDULER: End scheduler "s104" with entities [LocalPlayer, LocalPlayer], work=690*
     0x06EA [0x01] GOTO 0x06FC
     0x06ED [0x52] END_LOAD_SCHEDULER: End scheduler "s105" with entities [LocalPlayer, LocalPlayer], work=690*
     0x06FC [0x01] GOTO 0x0727
     0x06FF [0x3E] IF !(Work_Zone_Memorize[1] bit 13*) GOTO 0x0718
     0x0706 [0x52] END_LOAD_SCHEDULER: End scheduler "s037" with entities [LocalPlayer, LocalPlayer], work=690*
     0x0715 [0x01] GOTO 0x0727
     0x0718 [0x52] END_LOAD_SCHEDULER: End scheduler "s036" with entities [LocalPlayer, LocalPlayer], work=690*
     0x0727 [0x53] WAIT_SCHEDULER_TASK: Wait for scheduler "hed0" with entities [Chacharoon (ID: 17924187/0x0111805B), Chacharoon (ID: 17924187/0x0111805B)]
     0x0734 [0x5B] LOAD_EXT_SCHEDULER: Load scheduler "hed1" with entities [Chacharoon (ID: 17924187/0x0111805B), Chacharoon (ID: 17924187/0x0111805B)], work=3566*
     0x0743 [0x4E] SET_ENTITY_HIDE_FLAG: Hide Chacharoon (ID: 17924187/0x0111805B)
     0x0749 [0x2F] Chacharoon (ID: 17924187/0x0111805B)->Render.Flags0 |= 0x80000 // Bit 19
     0x074F [0x06] Work_Zone[1] = 0
     0x0752 [0x40] SET_BIT_WORK_RANGE(start_bit=8*, end_bit=15*, target=Work_Zone[1], source=12*)
     0x075B [0x43] SEND_EVENT_UPDATE: Send pending tag to server (packet 0x005B)
     0x075D [0x43] SEND_EVENT_UPDATE: Check pending flag (skip if not pending)
     0x075F [0x1A] CALL_SUBROUTINE(address=0x16EA)
     0x0762 [0x1A] CALL_SUBROUTINE(address=0x1693)
     0x0765 [0x1A] CALL_SUBROUTINE(address=0x16A1)
     0x0768 [0x1A] CALL_SUBROUTINE(address=0x16AF)
     0x076B [0x1A] CALL_SUBROUTINE(address=0x16BD)
     0x076E [0x46] CAMERA_CONTROL: Restore default settings
     0x0770 [0x45] LOAD_SCHEDULED_TASK: Load scheduler "fdi1" with entities [LocalPlayer, LocalPlayer], work=[200*, 0*]
     0x0781 [0x20] SET_CLI_EVENT_UC_FLAG: Unlock player control
     0x0783 [0x21] END_EVENT
     0x0784 [0x00] END_REQSTACK()
     0x0785 [0x01] GOTO 0x0793
     0x0788 [0x02] IF !(Work_Zone[0] == 1*) GOTO 0x0793
     0x0790 [0x01] GOTO 0x0793
     0x0793 [0x01] GOTO 0x0796
     0x0796 [0x01] GOTO 0x0402
     0x0799 [0x01] GOTO 0x0BD9
     0x079C [0x3E] IF !(ExtData[1]->WorkLocal[6] bit 1*) GOTO 0x07EA
     0x07A3 [0x3E] IF !(ExtData[1]->WorkLocal[16] bit 0*) GOTO 0x07AD
     0x07AA [0x01] GOTO 0x07EA
     0x07AD [0x42] SET_CLI_EVENT_CANCEL_DATA()
     0x07AE [0xCD] LOAD_SCHEDULED_TASK_ALT4: Load scheduler "onon" with entities [EventEntity, EventEntity], work=[236*, 0*]
     0x07BF [0x48] [System] [8738*]:
    → "%0's face beams with the light of pure contentment! There is nothing that can foul %0's mood right now, including gathering items from it."
     0x07C2 [0x23] WAIT_FOR_DIALOG_INTERACTION
     0x07C3 [0x3C] SET_BIT_FLAG_CONDITIONAL(target_work_offset=ExtData[1]->WorkLocal[16], bit_index_work_offset=0*, condition_work_offset=1*)
     0x07CA [0xCE] WAIT_LOAD_SCHEDULER_ALT4: Wait for scheduler "onon" with entities [EventEntity, EventEntity], work=236*
     0x07D9 [0xCD] LOAD_SCHEDULED_TASK_ALT4: Load scheduler "ofon" with entities [EventEntity, EventEntity], work=[236*, 0*]
     0x07EA [0x2E] SET_CLI_EVENT_CANCEL_FLAGS()
     0x07EB [0x0E] ExtData[1]->WorkLocal[17] |= ExtData[1]->WorkLocal[13]
     0x07F0 [0x3E] IF !(ExtData[1]->WorkLocal[16] bit 1*) GOTO 0x07FE
     0x07F7 [0x3C] SET_BIT_FLAG_CONDITIONAL(target_work_offset=ExtData[1]->WorkLocal[17], bit_index_work_offset=2*, condition_work_offset=1*)
     0x07FE [0x3E] IF !(ExtData[1]->WorkLocal[16] bit 2*) GOTO 0x080C
     0x0805 [0x3C] SET_BIT_FLAG_CONDITIONAL(target_work_offset=ExtData[1]->WorkLocal[17], bit_index_work_offset=3*, condition_work_offset=1*)
     0x080C [0x24] CREATE_DIALOG(message_id=8703*, default_option=0*, option_flags=ExtData[1]->WorkLocal[17])
    → "What will you do? [Nothing./See how the critter's doing./Interact with the beast./Give the creature a name./Collect items.]"
     0x0813 [0x25] WAIT_DIALOG_SELECT()
     0x0814 [0x02] IF !(Work_Zone[0] == 0*) GOTO 0x0822
     0x081C [0x06] ExtData[1]->WorkLocal[15] = 0
     0x081F [0x01] GOTO 0x0BD9
     0x0822 [0x02] IF !(Work_Zone[0] == 1*) GOTO 0x09E6
     0x082A [0x03] Work_Zone[3] = ExtData[1]->WorkLocal[3]
     0x082F [0x15] Work_Zone[3] /= 30*
     0x0834 [0x02] IF !(Work_Zone[3] == 0*) GOTO 0x0848
     0x083C [0x03] Work_Zone[3] = ExtData[1]->WorkLocal[3]
     0x0841 [0x48] [System] [8748*]:
    → "Creature type: [/Lamb/Sheep/Karakul/Sapling/Green Foliage Treat/Red Foliage Treant/Baby Rabbit/Rabbit/White Rabbit/Baby Lizard/Lizard/Alabaster Lizard/Ram/Baby Cockatrice/Cockatrice/Ziz/Baby Raptor/Raptor/Red Raptor/Baby Eft/Eft/Tarichuk/Dhalmel Calf/Dhalmel/Great Dhalmel/Sea Monk Larva/Sea Monk/Blue Sea Monk/Uragnite Youngling]."
     0x0844 [0x23] WAIT_FOR_DIALOG_INTERACTION
     0x0845 [0x01] GOTO 0x087A
     0x0848 [0x02] IF !(Work_Zone[3] == 1*) GOTO 0x0861
     0x0850 [0x03] Work_Zone[3] = ExtData[1]->WorkLocal[3]
     0x0855 [0x08] Work_Zone[3] -= 30*
     0x085A [0x48] [System] [8749*]:
    → "Creature Type: [Uragnite/Limascabra/Immature Crab/Crab/Porter Crab/Baby Colibri/Colibri/Toucalibri/Coeurl Cub/Coeurl/Lynx/Buffalo Calf/Buffalo/Mini Slime/Slime/Clot/Hecteyes/Tiny Bugard/Bugard/Abyssobugard/Baby Adamantoise/Adamantoise/Great Adamantoise/White Adamantoise/Ferromantoise/Great Ferromantoise/Cluster/Bomb/Djinn/Snoll]."
     0x085D [0x23] WAIT_FOR_DIALOG_INTERACTION
     0x085E [0x01] GOTO 0x087A
     0x0861 [0x02] IF !(Work_Zone[3] == 2*) GOTO 0x087A
     0x0869 [0x03] Work_Zone[3] = ExtData[1]->WorkLocal[3]
     0x086E [0x08] Work_Zone[3] -= 60*
     0x0873 [0x48] [System] [8750*]:
    → "Creature type: [Behemoth Cub/Behemoth/King Behemoth/Elasmoth/Skormoth/Dragon Hatchling/Wyvern/Blue Wyvern/Green Wyvern/Abyssal Wyrm/Lunar Wyrm/Blazing Wyrm/Pequetender/Sabotender/Jumbotender/Mandragora Sproutling/Mandragora/Elder Mandragora/Lycopodium/Korrigan/Pachypodium/Adenium/Elder Adenium/Ake-Ome/Citrullus]."
     0x0876 [0x23] WAIT_FOR_DIALOG_INTERACTION
     0x0877 [0x01] GOTO 0x087A
     0x087A [0x03] ExtData[1]->WorkLocal[14] = ExtData[1]->WorkLocal[5]
     0x087F [0x15] ExtData[1]->WorkLocal[14] /= 50*
     0x0884 [0x02] IF !(ExtData[1]->WorkLocal[14] >= 0*) GOTO 0x0892
     0x088C [0x06] ExtData[1]->WorkLocal[14] = 0
     0x088F [0x01] GOTO 0x089F
     0x0892 [0x02] IF !(ExtData[1]->WorkLocal[14] <= 4*) GOTO 0x089F
     0x089A [0x03] ExtData[1]->WorkLocal[14] = 4*
     0x089F [0x42] SET_CLI_EVENT_CANCEL_DATA()
     0x08A0 [0x02] IF !(ExtData[1]->WorkLocal[14] == 0*) GOTO 0x08E0
     0x08A8 [0xCD] LOAD_SCHEDULED_TASK_ALT4: Load scheduler "onmy" with entities [EventEntity, EventEntity], work=[237*, 0*]
     0x08B9 [0x48] [System] [8710*]:
    → "%0 looks like it wants absolutely nothing to do with anyone."
     0x08BC [0x23] WAIT_FOR_DIALOG_INTERACTION
     0x08BD [0xCE] WAIT_LOAD_SCHEDULER_ALT4: Wait for scheduler "onmy" with entities [EventEntity, EventEntity], work=237*
     0x08CC [0xCD] LOAD_SCHEDULED_TASK_ALT4: Load scheduler "ofmy" with entities [EventEntity, EventEntity], work=[237*, 0*]
     0x08DD [0x01] GOTO 0x0961
     0x08E0 [0x02] IF !(ExtData[1]->WorkLocal[14] == 1*) GOTO 0x08EF
     0x08E8 [0x48] [System] [8709*]:
    → "%0 seems to be pouting slightly."
     0x08EB [0x23] WAIT_FOR_DIALOG_INTERACTION
     0x08EC [0x01] GOTO 0x0961
     0x08EF [0x02] IF !(ExtData[1]->WorkLocal[14] == 2*) GOTO 0x08FE
     0x08F7 [0x48] [System] [8708*]:
    → "%0 looks calm and collected."
     0x08FA [0x23] WAIT_FOR_DIALOG_INTERACTION
     0x08FB [0x01] GOTO 0x0961
     0x08FE [0x02] IF !(ExtData[1]->WorkLocal[14] == 3*) GOTO 0x091E
     0x0906 [0xCD] LOAD_SCHEDULED_TASK_ALT4: Load scheduler "main" with entities [EventEntity, EventEntity], work=[235*, 0*]
     0x0917 [0x48] [System] [8707*]:
    → "%0's in an obviously good mood."
     0x091A [0x23] WAIT_FOR_DIALOG_INTERACTION
     0x091B [0x01] GOTO 0x0961
     0x091E [0x02] IF !(ExtData[1]->WorkLocal[14] == 4*) GOTO 0x0961
     0x0926 [0xCD] LOAD_SCHEDULED_TASK_ALT4: Load scheduler "onon" with entities [EventEntity, EventEntity], work=[236*, 0*]
     0x0937 [0x48] [System] [8706*]:
    → "%0's practically bursting with joy!"
     0x093A [0x23] WAIT_FOR_DIALOG_INTERACTION
     0x093B [0xCE] WAIT_LOAD_SCHEDULER_ALT4: Wait for scheduler "onon" with entities [EventEntity, EventEntity], work=236*
     0x094A [0xCD] LOAD_SCHEDULED_TASK_ALT4: Load scheduler "ofon" with entities [EventEntity, EventEntity], work=[236*, 0*]
     0x095B [0x1C] WAIT(1* ticks)
     0x095E [0x01] GOTO 0x0961
     0x0961 [0x2E] SET_CLI_EVENT_CANCEL_FLAGS()
     0x0962 [0x03] Work_Zone[2] = ExtData[1]->WorkLocal[14]
     0x0967 [0x03] ExtData[1]->WorkLocal[14] = ExtData[1]->WorkLocal[4]
     0x096C [0x15] ExtData[1]->WorkLocal[14] /= 50*
     0x0971 [0x02] IF !(ExtData[1]->WorkLocal[14] >= 0*) GOTO 0x097F
     0x0979 [0x06] ExtData[1]->WorkLocal[14] = 0
     0x097C [0x01] GOTO 0x098C
     0x097F [0x02] IF !(ExtData[1]->WorkLocal[14] <= 4*) GOTO 0x098C
     0x0987 [0x03] ExtData[1]->WorkLocal[14] = 4*
     0x098C [0x02] IF !(ExtData[1]->WorkLocal[14] == 0*) GOTO 0x099B
     0x0994 [0x48] [System] [8715*]:
    → "[Moreover,/Moreover,/However,/However,/However,] it seems thoroughly depressed about the abysmal conditions under which it lives."
     0x0997 [0x23] WAIT_FOR_DIALOG_INTERACTION
     0x0998 [0x01] GOTO 0x09D7
     0x099B [0x02] IF !(ExtData[1]->WorkLocal[14] == 1*) GOTO 0x09AA
     0x09A3 [0x48] [System] [8714*]:
    → "[Moreover,/Moreover,/However,/However,/However,] it is clearly unhappy with the way things are."
     0x09A6 [0x23] WAIT_FOR_DIALOG_INTERACTION
     0x09A7 [0x01] GOTO 0x09D7
     0x09AA [0x02] IF !(ExtData[1]->WorkLocal[14] == 2*) GOTO 0x09B9
     0x09B2 [0x48] [System] [8713*]:
    → "[Moreover,/Moreover,/However,/However,/However,] it exudes a slight aura of discontent."
     0x09B5 [0x23] WAIT_FOR_DIALOG_INTERACTION
     0x09B6 [0x01] GOTO 0x09D7
     0x09B9 [0x02] IF !(ExtData[1]->WorkLocal[14] == 3*) GOTO 0x09C8
     0x09C1 [0x48] [System] [8712*]:
    → "[However,/However,/Moreover,/Moreover,/Moreover,] it seems to be duly satisfied with its lot in life."
     0x09C4 [0x23] WAIT_FOR_DIALOG_INTERACTION
     0x09C5 [0x01] GOTO 0x09D7
     0x09C8 [0x02] IF !(ExtData[1]->WorkLocal[14] == 4*) GOTO 0x09D7
     0x09D0 [0x48] [System] [8711*]:
    → "[However,/However,/Moreover,/Moreover,/Moreover,] it couldn't be more content with its life."
     0x09D3 [0x23] WAIT_FOR_DIALOG_INTERACTION
     0x09D4 [0x01] GOTO 0x09D7
     0x09D7 [0x03] Work_Zone[2] = ExtData[1]->WorkLocal[9]
     0x09DC [0x48] [System] [8717*]:
    → "Current growth level: [EEE/$25EE/$26EE/$26$25E/$26$26E/$26$26$25/$26$26$26/$26$26$26]."
     0x09DF [0x23] WAIT_FOR_DIALOG_INTERACTION
     0x09E0 [0x06] ExtData[1]->WorkLocal[15] = 0
     0x09E3 [0x01] GOTO 0x0BD9
     0x09E6 [0x02] IF !(Work_Zone[0] == 2*) GOTO 0x0B05
     0x09EE [0x24] CREATE_DIALOG(message_id=8718*, default_option=0*, option_flags=0*)
    → "How will you interact? [Do nothing./Pet it./Poke it./Slap it./Yell loudly at it./Get angry at it.]"
     0x09F5 [0x25] WAIT_DIALOG_SELECT()
     0x09F6 [0x02] IF !(Work_Zone[0] == 0*) GOTO 0x0A01
     0x09FE [0x01] GOTO 0x0A01
     0x0A01 [0x02] IF !(Work_Zone[0] == 0*) GOTO 0x0B02
     0x0A09 [0x42] SET_CLI_EVENT_CANCEL_DATA()
     0x0A0A [0x06] Work_Zone[1] = 0
     0x0A0D [0x40] SET_BIT_WORK_RANGE(start_bit=8*, end_bit=15*, target=Work_Zone[1], source=10*)
     0x0A16 [0x40] SET_BIT_WORK_RANGE(start_bit=16*, end_bit=31*, target=Work_Zone[1], source=Work_Zone[0])
     0x0A1F [0x43] SEND_EVENT_UPDATE: Send pending tag to server (packet 0x005B)
     0x0A21 [0x43] SEND_EVENT_UPDATE: Check pending flag (skip if not pending)
     0x0A23 [0x02] IF !(Work_Zone[2] == 0*) GOTO 0x0A32
     0x0A2B [0x48] [System] [8719*]:
    → "%0 stares off into the distance as if you're not even there."
     0x0A2E [0x23] WAIT_FOR_DIALOG_INTERACTION
     0x0A2F [0x01] GOTO 0x0AF3
     0x0A32 [0x02] IF !(Work_Zone[2] == 1*) GOTO 0x0A72
     0x0A3A [0xCD] LOAD_SCHEDULED_TASK_ALT4: Load scheduler "onmy" with entities [EventEntity, EventEntity], work=[237*, 0*]
     0x0A4B [0x48] [System] [8720*]:
    → "%0 is visibly angry with what you just did."
     0x0A4E [0x23] WAIT_FOR_DIALOG_INTERACTION
     0x0A4F [0xCE] WAIT_LOAD_SCHEDULER_ALT4: Wait for scheduler "onmy" with entities [EventEntity, EventEntity], work=237*
     0x0A5E [0xCD] LOAD_SCHEDULED_TASK_ALT4: Load scheduler "ofmy" with entities [EventEntity, EventEntity], work=[237*, 0*]
     0x0A6F [0x01] GOTO 0x0AF3
     0x0A72 [0x02] IF !(Work_Zone[2] == 2*) GOTO 0x0A81
     0x0A7A [0x48] [System] [8721*]:
    → "That didn't go over too well with %0."
     0x0A7D [0x23] WAIT_FOR_DIALOG_INTERACTION
     0x0A7E [0x01] GOTO 0x0AF3
     0x0A81 [0x02] IF !(Work_Zone[2] == 3*) GOTO 0x0AA1
     0x0A89 [0xCD] LOAD_SCHEDULED_TASK_ALT4: Load scheduler "main" with entities [EventEntity, EventEntity], work=[235*, 0*]
     0x0A9A [0x48] [System] [8722*]:
    → "That was surprisingly not worthless in the eyes of %0!"
     0x0A9D [0x23] WAIT_FOR_DIALOG_INTERACTION
     0x0A9E [0x01] GOTO 0x0AF3
     0x0AA1 [0x02] IF !(Work_Zone[2] == 4*) GOTO 0x0AE4
     0x0AA9 [0xCD] LOAD_SCHEDULED_TASK_ALT4: Load scheduler "onon" with entities [EventEntity, EventEntity], work=[236*, 0*]
     0x0ABA [0x48] [System] [8723*]:
    → "That strongly resonated with %0!"
     0x0ABD [0x23] WAIT_FOR_DIALOG_INTERACTION
     0x0ABE [0xCE] WAIT_LOAD_SCHEDULER_ALT4: Wait for scheduler "onon" with entities [EventEntity, EventEntity], work=236*
     0x0ACD [0xCD] LOAD_SCHEDULED_TASK_ALT4: Load scheduler "ofon" with entities [EventEntity, EventEntity], work=[236*, 0*]
     0x0ADE [0x1C] WAIT(1* ticks)
     0x0AE1 [0x01] GOTO 0x0AF3
     0x0AE4 [0x02] IF !(Work_Zone[2] == 4294967295*) GOTO 0x0AF3
     0x0AEC [0x48] [System] [8719*]:
    → "%0 stares off into the distance as if you're not even there."
     0x0AEF [0x23] WAIT_FOR_DIALOG_INTERACTION
     0x0AF0 [0x01] GOTO 0x0AF3
     0x0AF3 [0x02] IF !(Work_Zone[9] == 0*) GOTO 0x0AFB
     0x0AFB [0x2E] SET_CLI_EVENT_CANCEL_FLAGS()
     0x0AFC [0x06] ExtData[1]->WorkLocal[15] = 0
     0x0AFF [0x01] GOTO 0x0B02
     0x0B02 [0x01] GOTO 0x0BD9
     0x0B05 [0x02] IF !(Work_Zone[0] == 3*) GOTO 0x0B13
     0x0B0D [0x1A] CALL_SUBROUTINE(address=0x0BDE)
     0x0B10 [0x01] GOTO 0x0BD9
     0x0B13 [0x02] IF !(Work_Zone[0] == 4*) GOTO 0x0BD9
     0x0B1B [0x48] [System] [8728*]:
    → "Try to collect items from your beloved beastie?"
     0x0B1E [0x23] WAIT_FOR_DIALOG_INTERACTION
     0x0B1F [0x24] CREATE_DIALOG(message_id=8729*, default_option=0*, option_flags=0*)
    → "Proceed? [Yes, that sounds wonderful./No, I won't take any chances.]"
     0x0B26 [0x25] WAIT_DIALOG_SELECT()
     0x0B27 [0x02] IF !(Work_Zone[0] == 0*) GOTO 0x0BCB
     0x0B2F [0x42] SET_CLI_EVENT_CANCEL_DATA()
     0x0B30 [0x06] Work_Zone[1] = 0
     0x0B33 [0x40] SET_BIT_WORK_RANGE(start_bit=8*, end_bit=15*, target=Work_Zone[1], source=11*)
     0x0B3C [0x43] SEND_EVENT_UPDATE: Send pending tag to server (packet 0x005B)
     0x0B3E [0x43] SEND_EVENT_UPDATE: Check pending flag (skip if not pending)
     0x0B40 [0x02] IF !(Work_Zone[2] == 0*) GOTO 0x0B80
     0x0B48 [0xCD] LOAD_SCHEDULED_TASK_ALT4: Load scheduler "onmy" with entities [EventEntity, EventEntity], work=[237*, 0*]
     0x0B59 [0x48] [System] [8721*]:
    → "That didn't go over too well with %0."
     0x0B5C [0x23] WAIT_FOR_DIALOG_INTERACTION
     0x0B5D [0xCE] WAIT_LOAD_SCHEDULER_ALT4: Wait for scheduler "onmy" with entities [EventEntity, EventEntity], work=237*
     0x0B6C [0xCD] LOAD_SCHEDULED_TASK_ALT4: Load scheduler "ofmy" with entities [EventEntity, EventEntity], work=[237*, 0*]
     0x0B7D [0x01] GOTO 0x0BC4
     0x0B80 [0x02] IF !(Work_Zone[2] == 1*) GOTO 0x0B8F
     0x0B88 [0x48] [System] [8719*]:
    → "%0 stares off into the distance as if you're not even there."
     0x0B8B [0x23] WAIT_FOR_DIALOG_INTERACTION
     0x0B8C [0x01] GOTO 0x0BC4
     0x0B8F [0xCD] LOAD_SCHEDULED_TASK_ALT4: Load scheduler "onmy" with entities [EventEntity, EventEntity], work=[237*, 0*]
     0x0BA0 [0x48] [System] [8720*]:
    → "%0 is visibly angry with what you just did."
     0x0BA3 [0x23] WAIT_FOR_DIALOG_INTERACTION
     0x0BA4 [0xCE] WAIT_LOAD_SCHEDULER_ALT4: Wait for scheduler "onmy" with entities [EventEntity, EventEntity], work=237*
     0x0BB3 [0xCD] LOAD_SCHEDULED_TASK_ALT4: Load scheduler "ofmy" with entities [EventEntity, EventEntity], work=[237*, 0*]
     0x0BC4 [0x2E] SET_CLI_EVENT_CANCEL_FLAGS()
     0x0BC5 [0x06] ExtData[1]->WorkLocal[15] = 0
     0x0BC8 [0x01] GOTO 0x0BD6
     0x0BCB [0x02] IF !(Work_Zone[0] == 1*) GOTO 0x0BD6
     0x0BD3 [0x01] GOTO 0x0BD6
     0x0BD6 [0x01] GOTO 0x0BD9
     0x0BD9 [0x01] GOTO 0x00F1
     0x0BDC [0x21] END_EVENT
     0x0BDD [0x00] END_REQSTACK()
     0x0BDE [0xB4] UI_WINDOW_STRING_HANDLER(case=0x01 - Copy string from event strings table, work_offset=ExtData[1]->WorkLocal[22], string_index=0*)
     0x0BE4 [0x0B] ExtData[1]->WorkLocal[15]++
     0x0BE7 [0x02] IF !(ExtData[1]->WorkLocal[15] <= 1*) GOTO 0x0CB6
     0x0BEF [0x48] [System] [8724*]:
    → "Please bestow a name of 15 letters or fewer upon your creature. Taking no action will annul the process."
     0x0BF2 [0x71] USER_INPUT_HANDLER: Menu operation with params (params=[0x801D, 0x8026])
     0x0BF8 [0x71] USER_INPUT_HANDLER: Menu operation B (param=0x0012)
     0x0BFC [0x9D] IF (strcmp(ExtData[1]->WorkLocal[18], 000000000000000000000000000000aa) != 0) GOTO 0x0C // Also sets ExtData[1]->WorkLocal[1]
     0x0C13 [0xB4] UI_WINDOW_STRING_HANDLER(case=0x04 - Copy string to shared buffers, work_offset1=ExtData[1]->WorkLocal[18], work_offset2=0*)
     0x0C19 [0x24] CREATE_DIALOG(message_id=8725*, default_option=0*, option_flags=0*)
    → "Is %0 fine? [Yes./No, I'll pick a new one./No, I quit.]"
     0x0C20 [0x25] WAIT_DIALOG_SELECT()
     0x0C21 [0x02] IF !(Work_Zone[0] == 0*) GOTO 0x0C82
     0x0C29 [0x42] SET_CLI_EVENT_CANCEL_DATA()
     0x0C2A [0x71] USER_INPUT_HANDLER: Check vulgar filter (work=Work_Zone[2])
     0x0C2E [0x02] IF !(Work_Zone[2] == 0*) GOTO 0x0C70
     0x0C36 [0x71] USER_INPUT_HANDLER: Check if player has input or exited
     0x0C38 [0x02] IF !(Work_Zone[2] == 0*) GOTO 0x0C5F
     0x0C40 [0xCD] LOAD_SCHEDULED_TASK_ALT4: Load scheduler "main" with entities [EventEntity, EventEntity], work=[235*, 0*]
     0x0C51 [0x2B] Chacharoon (ID: 17924231/0x01118087) [8727*]:
    → "Oooh, %0 is name of much preeetty! Is sign that many times of good be coming."
     0x0C58 [0x23] WAIT_FOR_DIALOG_INTERACTION
     0x0C59 [0x0C] ExtData[1]->WorkLocal[15]--
     0x0C5C [0x01] GOTO 0x0C6D
     0x0C5F [0x2B] Chacharoon (ID: 17924231/0x01118087) [8726*]:
    → "Hmmm... This name too haaard for Chacharoon. Sorry, but giving new name is best."
     0x0C66 [0x23] WAIT_FOR_DIALOG_INTERACTION
     0x0C67 [0xB4] UI_WINDOW_STRING_HANDLER(case=0x04 - Copy string to shared buffers, work_offset1=ExtData[1]->WorkLocal[22], work_offset2=0*)
     0x0C6D [0x01] GOTO 0x0C7E
     0x0C70 [0x2B] Chacharoon (ID: 17924231/0x01118087) [8726*]:
    → "Hmmm... This name too haaard for Chacharoon. Sorry, but giving new name is best."
     0x0C77 [0x23] WAIT_FOR_DIALOG_INTERACTION
     0x0C78 [0xB4] UI_WINDOW_STRING_HANDLER(case=0x04 - Copy string to shared buffers, work_offset1=ExtData[1]->WorkLocal[22], work_offset2=0*)
     0x0C7E [0x2E] SET_CLI_EVENT_CANCEL_FLAGS()
     0x0C7F [0x01] GOTO 0x0CA7
     0x0C82 [0x02] IF !(Work_Zone[0] == 1*) GOTO 0x0C93
     0x0C8A [0xB4] UI_WINDOW_STRING_HANDLER(case=0x04 - Copy string to shared buffers, work_offset1=ExtData[1]->WorkLocal[22], work_offset2=0*)
     0x0C90 [0x01] GOTO 0x0CA7
     0x0C93 [0x02] IF !(Work_Zone[0] == 2*) GOTO 0x0CA7
     0x0C9B [0xB4] UI_WINDOW_STRING_HANDLER(case=0x04 - Copy string to shared buffers, work_offset1=ExtData[1]->WorkLocal[22], work_offset2=0*)
     0x0CA1 [0x0C] ExtData[1]->WorkLocal[15]--
     0x0CA4 [0x01] GOTO 0x0CA7
     0x0CA7 [0x01] GOTO 0x0CB3
     0x0CAA [0xB4] UI_WINDOW_STRING_HANDLER(case=0x04 - Copy string to shared buffers, work_offset1=ExtData[1]->WorkLocal[22], work_offset2=0*)
     0x0CB0 [0x0C] ExtData[1]->WorkLocal[15]--
     0x0CB3 [0x01] GOTO 0x0BE7
     0x0CB6 [0x1B] RETURN
     0x0CB7 [0x41] ExtData[1]->WorkLocal[2] = Work_Zone[2] (bits 0*-31*)
     0x0CC0 [0x41] ExtData[1]->WorkLocal[3] = Work_Zone[3] (bits 0*-7*)
     0x0CC9 [0x41] ExtData[1]->WorkLocal[4] = Work_Zone[3] (bits 8*-15*)
     0x0CD2 [0x41] ExtData[1]->WorkLocal[5] = Work_Zone[3] (bits 16*-23*)
     0x0CDB [0x41] ExtData[1]->WorkLocal[6] = Work_Zone[3] (bits 24*-31*)
     0x0CE4 [0x41] ExtData[1]->WorkLocal[7] = Work_Zone[4] (bits 0*-7*)
     0x0CED [0x41] ExtData[1]->WorkLocal[8] = Work_Zone[4] (bits 8*-15*)
     0x0CF6 [0x41] ExtData[1]->WorkLocal[9] = Work_Zone[4] (bits 16*-18*)
     0x0CFF [0x41] ExtData[1]->WorkLocal[10] = Work_Zone[4] (bits 19*-19*)
     0x0D08 [0x41] ExtData[1]->WorkLocal[12] = Work_Zone[4] (bits 20*-23*)
     0x0D11 [0x1B] RETURN
     0x0D12 [0x42] SET_CLI_EVENT_CANCEL_DATA()
     0x0D13 [0x1E] EventEntity looks at LocalPlayer and starts talking
     0x0D18 [0x48] [System] [8739*]:
    → "You gave %0 $1."
     0x0D1B [0x23] WAIT_FOR_DIALOG_INTERACTION
     0x0D1C [0x02] IF !(Work_Zone[2] == 0*) GOTO 0x0D2B
     0x0D24 [0x48] [System] [8719*]:
    → "%0 stares off into the distance as if you're not even there."
     0x0D27 [0x23] WAIT_FOR_DIALOG_INTERACTION
     0x0D28 [0x01] GOTO 0x0DEC
     0x0D2B [0x02] IF !(Work_Zone[2] == 1*) GOTO 0x0D6B
     0x0D33 [0xCD] LOAD_SCHEDULED_TASK_ALT4: Load scheduler "onmy" with entities [EventEntity, EventEntity], work=[237*, 0*]
     0x0D44 [0x48] [System] [8720*]:
    → "%0 is visibly angry with what you just did."
     0x0D47 [0x23] WAIT_FOR_DIALOG_INTERACTION
     0x0D48 [0xCE] WAIT_LOAD_SCHEDULER_ALT4: Wait for scheduler "onmy" with entities [EventEntity, EventEntity], work=237*
     0x0D57 [0xCD] LOAD_SCHEDULED_TASK_ALT4: Load scheduler "ofmy" with entities [EventEntity, EventEntity], work=[237*, 0*]
     0x0D68 [0x01] GOTO 0x0DEC
     0x0D6B [0x02] IF !(Work_Zone[2] == 2*) GOTO 0x0D7A
     0x0D73 [0x48] [System] [8721*]:
    → "That didn't go over too well with %0."
     0x0D76 [0x23] WAIT_FOR_DIALOG_INTERACTION
     0x0D77 [0x01] GOTO 0x0DEC
     0x0D7A [0x02] IF !(Work_Zone[2] == 3*) GOTO 0x0D9A
     0x0D82 [0xCD] LOAD_SCHEDULED_TASK_ALT4: Load scheduler "main" with entities [EventEntity, EventEntity], work=[235*, 0*]
     0x0D93 [0x48] [System] [8722*]:
    → "That was surprisingly not worthless in the eyes of %0!"
     0x0D96 [0x23] WAIT_FOR_DIALOG_INTERACTION
     0x0D97 [0x01] GOTO 0x0DEC
     0x0D9A [0x02] IF !(Work_Zone[2] == 4*) GOTO 0x0DDD
     0x0DA2 [0xCD] LOAD_SCHEDULED_TASK_ALT4: Load scheduler "onon" with entities [EventEntity, EventEntity], work=[236*, 0*]
     0x0DB3 [0x48] [System] [8723*]:
    → "That strongly resonated with %0!"
     0x0DB6 [0x23] WAIT_FOR_DIALOG_INTERACTION
     0x0DB7 [0xCE] WAIT_LOAD_SCHEDULER_ALT4: Wait for scheduler "onon" with entities [EventEntity, EventEntity], work=236*
     0x0DC6 [0xCD] LOAD_SCHEDULED_TASK_ALT4: Load scheduler "ofon" with entities [EventEntity, EventEntity], work=[236*, 0*]
     0x0DD7 [0x1C] WAIT(1* ticks)
     0x0DDA [0x01] GOTO 0x0DEC
     0x0DDD [0x02] IF !(Work_Zone[2] == 4294967295*) GOTO 0x0DEC
     0x0DE5 [0x48] [System] [8719*]:
    → "%0 stares off into the distance as if you're not even there."
     0x0DE8 [0x23] WAIT_FOR_DIALOG_INTERACTION
     0x0DE9 [0x01] GOTO 0x0DEC
     0x0DEC [0x02] IF !(Work_Zone[4] == 1*) GOTO 0x0DFB
     0x0DF4 [0x48] [System] [8744*]:
    → "%0 squirms uncontrollably."
     0x0DF7 [0x23] WAIT_FOR_DIALOG_INTERACTION
     0x0DF8 [0x01] GOTO 0x0E07
     0x0DFB [0x02] IF !(Work_Zone[4] == 2*) GOTO 0x0E07
     0x0E03 [0x48] [System] [8745*]:
    → "%0 shudders violently."
     0x0E06 [0x23] WAIT_FOR_DIALOG_INTERACTION
     0x0E07 [0x21] END_EVENT
     0x0E08 [0x00] END_REQSTACK()
```

### Event 2050

#### Metadata

| Field        | Value   |
|--------------|---------|
| Entrypoint   | 0x0E09  |
| Data Size    | 1 bytes |
| Instructions | 1       |

```
      00 01 02 03 04 05 06 07  08 09 0A 0B 0C 0D 0E 0F
      -- -- -- -- -- -- -- --  -- -- -- -- -- -- -- --
0E00:                             00                             .      
```

#### Opcodes

```
  0: 0x0E09 [0x00] END_REQSTACK()
```

### Event 2051

#### Metadata

| Field        | Value      |
|--------------|------------|
| Entrypoint   | 0x0E0A     |
| Data Size    | 6320 bytes |
| Instructions | 21         |

```
      00 01 02 03 04 05 06 07  08 09 0A 0B 0C 0D 0E 0F
      -- -- -- -- -- -- -- --  -- -- -- -- -- -- -- --
0E00:                                42 46 01 45 0E 80            BF.E..
0E10: F0 FF FF 7F F0 FF FF 7F  66 64 6F 31 00 80 55 0E  ........fdo1..U.
0E20: 80 F0 FF FF 7F F0 FF FF  7F 66 64 6F 31 38 0F 80  .........fdo18..
0E30: 29 08 F0 FF FF 7F 23 37  10 80 11 80 12 80 13 80  ).....#7........
0E40: 4E 01 87 80 11 01 4A F8  FF FF 7F F0 FF FF 7F 6F  N.....J........o
0E50: 76 F8 FF FF 7F 45 1E 80  F0 FF FF 7F F0 FF FF 7F  v....E..........
0E60: 73 31 30 31 00 80 45 0E  80 F0 FF FF 7F F0 FF FF  s101..E.........
0E70: 7F 66 64 69 31 00 80 55  0E 80 F0 FF FF 7F F0 FF  .fdi1..U........
0E80: FF 7F 66 64 69 31 1D 58  80 23 52 1E 80 F0 FF FF  ..fdi1.X.#R.....
0E90: 7F F0 FF FF 7F 73 31 30  31 46 00 20 00 21 00 48  .....s101F. .!.H
0EA0: 44 80 23 21 00 03 03 10  59 80 48 5A 80 23 21 00  D.#!....Y.HZ.#!.
0EB0: 92 00 1D 80 11 01 1A EA  16 1A 27 0F 1A EB 0F 1A  ..........'.....
0EC0: 95 11 1A C2 13 1A D0 22  1A D0 13 1A AC 14 1A E3  ......."........
0ED0: 14 1A 06 15 1A 32 15 1A  D2 15 1A 5C 16 1A 85 16  .....2.....\....
0EE0: 1A CB 16 1A 03 13 AC 02  35 80 11 01 1B 92 00 1D  ........5.......
0EF0: 80 11 01 1A 27 0F 1A EB  0F 1A 95 11 1A C2 13 1A  ....'...........
0F00: D0 22 1A D0 13 1A AC 14  1A E3 14 1A 06 15 1A 32  .".............2
0F10: 15 1A D2 15 1A 5C 16 1A  85 16 1A CB 16 1A 03 13  .....\..........
0F20: AC 02 35 80 11 01 1B AC  02 09 80 11 01 3E 00 11  ..5..........>..
0F30: 00 80 3E 0F 27 80 09 80  11 01 02 01 45 0F 27 80  ..>.'.......E.'.
0F40: 09 80 11 01 03 AC 02 0A  80 11 01 3E 00 11 07 80  ...........>....
0F50: 5C 0F 27 80 0A 80 11 01  02 01 63 0F 27 80 0A 80  \.'.......c.'...
0F60: 11 01 03 AC 02 0B 80 11  01 3E 00 11 1D 80 7A 0F  .........>....z.
0F70: 29 80 0B 80 11 01 02 01  81 0F 29 80 0B 80 11 01  ).........).....
0F80: 03 92 01 20 80 11 01 92  01 21 80 11 01 92 01 22  ... .....!....."
0F90: 80 11 01 AC 02 20 80 11  01 3E 00 11 5B 80 A9 0F  ..... ...>..[...
0FA0: 4E 00 20 80 11 01 01 AF  0F 4E 01 20 80 11 01 AC  N. ......N. ....
0FB0: 02 21 80 11 01 3E 00 11  5C 80 C5 0F 4E 00 21 80  .!...>..\...N.!.
0FC0: 11 01 01 CB 0F 4E 01 21  80 11 01 AC 02 22 80 11  .....N.!....."..
0FD0: 01 3E 00 11 5D 80 E1 0F  4E 00 22 80 11 01 01 E7  .>..]...N.".....
0FE0: 0F 4E 01 22 80 11 01 1C  07 80 1B AC 02 0F 80 11  .N."............
0FF0: 01 3E 00 11 1C 80 02 10  27 80 0F 80 11 01 02 01  .>......'.......
1000: 09 10 27 80 0F 80 11 01  03 AC 02 10 80 11 01 3E  ..'............>
1010: 00 11 06 80 20 10 27 80  10 80 11 01 02 01 27 10  .... .'.......'.
1020: 27 80 10 80 11 01 03 AC  02 11 80 11 01 3E 00 11  '............>..
1030: 5E 80 3E 10 29 80 11 80  11 01 02 01 45 10 29 80  ^.>.).......E.).
1040: 11 80 11 01 03 AC 02 1A  80 11 01 3E 01 11 53 80  ...........>..S.
1050: 5C 10 27 80 1A 80 11 01  02 01 63 10 27 80 1A 80  \.'.......c.'...
1060: 11 01 03 AC 02 1B 80 11  01 3E 01 11 0F 80 7A 10  .........>....z.
1070: 29 80 1B 80 11 01 02 01  81 10 29 80 1B 80 11 01  ).........).....
1080: 03 AC 02 23 80 11 01 AC  02 24 80 11 01 3E 00 11  ...#.....$...>..
1090: 53 80 B9 10 3E 08 11 00  80 AA 10 4E 00 24 80 11  S...>......N.$..
10A0: 01 4E 01 23 80 11 01 01  B6 10 4E 00 23 80 11 01  .N.#......N.#...
10B0: 4E 01 24 80 11 01 01 C5  10 4E 01 23 80 11 01 4E  N.$......N.#...N
10C0: 01 24 80 11 01 AC 02 25  80 11 01 AC 02 26 80 11  .$.....%.....&..
10D0: 01 3E 00 11 0F 80 FD 10  3E 08 11 07 80 EE 10 4E  .>......>......N
10E0: 00 26 80 11 01 4E 01 25  80 11 01 01 FA 10 4E 00  .&...N.%......N.
10F0: 25 80 11 01 4E 01 26 80  11 01 01 09 11 4E 01 25  %...N.&......N.%
1100: 80 11 01 4E 01 26 80 11  01 AC 02 27 80 11 01 AC  ...N.&.....'....
1110: 02 28 80 11 01 3E 00 11  54 80 41 11 3E 08 11 1D  .(...>..T.A.>...
1120: 80 32 11 4E 00 28 80 11  01 4E 01 27 80 11 01 01  .2.N.(...N.'....
1130: 3E 11 4E 00 27 80 11 01  4E 01 28 80 11 01 01 4D  >.N.'...N.(....M
1140: 11 4E 01 27 80 11 01 4E  01 28 80 11 01 AC 02 29  .N.'...N.(.....)
1150: 80 11 01 AC 02 2A 80 11  01 3E 00 11 5F 80 85 11  .....*...>.._...
1160: 3E 08 11 1C 80 76 11 4E  00 2A 80 11 01 4E 01 29  >....v.N.*...N.)
1170: 80 11 01 01 82 11 4E 00  29 80 11 01 4E 01 2A 80  ......N.)...N.*.
1180: 11 01 01 91 11 4E 01 29  80 11 01 4E 01 2A 80 11  .....N.)...N.*..
1190: 01 1C 07 80 1B AC 02 12  80 11 01 3E 00 11 0B 80  ...........>....
11A0: AC 11 27 80 12 80 11 01  02 01 B3 11 27 80 12 80  ..'.........'...
11B0: 11 01 03 AC 02 13 80 11  01 3E 00 11 51 80 CA 11  .........>..Q...
11C0: 27 80 13 80 11 01 02 01  D1 11 27 80 13 80 11 01  '.........'.....
11D0: 03 AC 02 14 80 11 01 3E  00 11 01 80 E8 11 29 80  .......>......).
11E0: 14 80 11 01 02 01 EF 11  29 80 14 80 11 01 03 AC  ........).......
11F0: 02 2B 80 11 01 AC 02 2C  80 11 01 3E 00 11 60 80  .+.....,...>..`.
1200: 27 12 3E 08 11 06 80 18  12 4E 00 2C 80 11 01 4E  '.>......N.,...N
1210: 01 2B 80 11 01 01 24 12  4E 00 2B 80 11 01 4E 01  .+....$.N.+...N.
1220: 2C 80 11 01 01 33 12 4E  01 2B 80 11 01 4E 01 2C  ,....3.N.+...N.,
1230: 80 11 01 AC 02 2D 80 11  01 AC 02 2E 80 11 01 3E  .....-.........>
1240: 00 11 52 80 6B 12 3E 08  11 5E 80 5C 12 4E 00 2E  ..R.k.>..^.\.N..
1250: 80 11 01 4E 01 2D 80 11  01 01 68 12 4E 00 2D 80  ...N.-....h.N.-.
1260: 11 01 4E 01 2E 80 11 01  01 77 12 4E 01 2D 80 11  ..N......w.N.-..
1270: 01 4E 01 2E 80 11 01 AC  02 2F 80 11 01 AC 02 30  .N......./.....0
1280: 80 11 01 3E 00 11 04 80  AF 12 3E 08 11 0B 80 A0  ...>......>.....
1290: 12 4E 00 30 80 11 01 4E  01 2F 80 11 01 01 AC 12  .N.0...N./......
12A0: 4E 00 2F 80 11 01 4E 01  30 80 11 01 01 BB 12 4E  N./...N.0......N
12B0: 01 2F 80 11 01 4E 01 30  80 11 01 AC 02 31 80 11  ./...N.0.....1..
12C0: 01 AC 02 32 80 11 01 3E  00 11 61 80 F3 12 3E 08  ...2...>..a...>.
12D0: 11 51 80 E4 12 4E 00 32  80 11 01 4E 01 31 80 11  .Q...N.2...N.1..
12E0: 01 01 F0 12 4E 00 31 80  11 01 4E 01 32 80 11 01  ....N.1...N.2...
12F0: 01 FF 12 4E 01 31 80 11  01 4E 01 32 80 11 01 1C  ...N.1...N.2....
1300: 07 80 1B 92 01 35 80 11  01 AC 02 15 80 11 01 3E  .....5.........>
1310: 00 11 62 80 20 13 27 80  15 80 11 01 02 01 27 13  ..b. .'.......'.
1320: 27 80 15 80 11 01 03 AC  02 16 80 11 01 3E 00 11  '............>..
1330: 24 80 3E 13 27 80 16 80  11 01 02 01 45 13 27 80  $.>.'.......E.'.
1340: 16 80 11 01 03 AC 02 17  80 11 01 3E 00 11 4C 80  ...........>..L.
1350: 5C 13 27 80 17 80 11 01  02 01 63 13 27 80 17 80  \.'.......c.'...
1360: 11 01 03 AC 02 18 80 11  01 3E 01 11 63 80 7A 13  .........>..c.z.
1370: 29 80 18 80 11 01 02 01  81 13 29 80 18 80 11 01  ).........).....
1380: 03 3E 01 11 54 80 91 13  60 02 69 30 6F 6E 01 91  .>..T...`.i0on..
1390: 13 3E 01 11 5F 80 A1 13  60 02 69 31 6F 6E 01 A1  .>.._...`.i1on..
13A0: 13 3E 01 11 60 80 B1 13  60 02 69 32 6F 6E 01 B1  .>..`...`.i2on..
13B0: 13 3E 01 11 52 80 C1 13  60 02 69 33 6F 6E 01 C1  .>..R...`.i3on..
13C0: 13 1B AC 02 35 80 11 01  29 08 35 80 11 01 04 1B  ....5...).5.....
13D0: 92 00 57 80 11 01 92 00  6A 80 11 01 92 00 58 80  ..W.....j.....X.
13E0: 11 01 92 00 6B 80 11 01  92 00 59 80 11 01 92 00  ....k.....Y.....
13F0: 6C 80 11 01 AC 02 57 80  11 01 3E 00 11 0C 80 0B  l.....W...>.....
1400: 14 27 08 57 80 11 01 02  01 12 14 27 08 57 80 11  .'.W.......'.W..
1410: 01 03 AC 02 6A 80 11 01  3E 00 11 20 80 29 14 27  ....j...>.. .).'
1420: 08 6A 80 11 01 02 01 30  14 27 08 6A 80 11 01 03  .j.....0.'.j....
1430: AC 02 58 80 11 01 3E 00  11 64 80 47 14 29 08 58  ..X...>..d.G.).X
1440: 80 11 01 02 01 4E 14 29  08 58 80 11 01 03 AC 02  .....N.).X......
1450: 6B 80 11 01 3E 00 11 26  80 65 14 27 08 6B 80 11  k...>..&.e.'.k..
1460: 01 02 01 6C 14 27 08 6B  80 11 01 03 AC 02 59 80  ...l.'.k......Y.
1470: 11 01 3E 00 11 02 80 83  14 27 08 59 80 11 01 02  ..>......'.Y....
1480: 01 8A 14 27 08 59 80 11  01 03 AC 02 6C 80 11 01  ...'.Y......l...
1490: 3E 00 11 63 80 A1 14 29  08 6C 80 11 01 02 01 A8  >..c...).l......
14A0: 14 29 08 6C 80 11 01 03  1C 07 80 1B AC 02 36 80  .).l..........6.
14B0: 11 01 3E 00 11 65 80 CF  14 2C 36 80 11 01 36 80  ..>..e...,6...6.
14C0: 11 01 65 66 6F 6E B6 14  36 80 11 01 01 E2 14 2C  ..efon..6......,
14D0: 36 80 11 01 36 80 11 01  65 66 6F 66 B6 15 36 80  6...6...efof..6.
14E0: 11 01 1B 3E 01 11 00 80  F9 14 4E 00 71 80 11 01  ...>......N.q...
14F0: AC 03 71 80 11 01 01 05  15 AC 02 71 80 11 01 4E  ..q........q...N
1500: 01 71 80 11 01 1B AC 02  72 80 11 01 3E 01 11 07  .q......r...>...
1510: 80 2A 15 3E 01 11 1C 80  21 15 29 08 72 80 11 01  .*.>....!.).r...
1520: 04 4E 00 72 80 11 01 01  31 15 29 08 72 80 11 01  .N.r....1.).r...
1530: 03 1B AC 02 8E 80 11 01  3E 01 11 61 80 48 15 4E  ........>..a.H.N
1540: 00 8E 80 11 01 01 4E 15  4E 01 8E 80 11 01 1B AC  ......N.N.......
1550: 02 80 80 11 01 AC 02 81  80 11 01 AC 02 82 80 11  ................
1560: 01 AC 02 83 80 11 01 AC  02 84 80 11 01 3E 01 11  .............>..
1570: 5B 80 B3 15 4E 00 80 80  11 01 AC 03 80 80 11 01  [...N...........
1580: 4E 00 81 80 11 01 AC 03  81 80 11 01 4E 00 82 80  N...........N...
1590: 11 01 AC 03 82 80 11 01  4E 00 83 80 11 01 AC 03  ........N.......
15A0: 83 80 11 01 4E 00 84 80  11 01 AC 03 84 80 11 01  ....N...........
15B0: 01 D1 15 4E 01 80 80 11  01 4E 01 81 80 11 01 4E  ...N.....N.....N
15C0: 01 82 80 11 01 4E 01 83  80 11 01 4E 01 84 80 11  .....N.....N....
15D0: 01 1B AC 02 85 80 11 01  AC 02 86 80 11 01 3E 01  ..............>.
15E0: 11 5C 80 4F 16 13 1B 00  1D 80 02 1B 00 1D 80 02  .\.O............
15F0: F5 15 06 1B 00 02 1B 00  00 80 80 0E 16 29 08 85  .............)..
1600: 80 11 01 02 29 08 86 80  11 01 02 01 40 16 02 1B  ....).......@...
1610: 00 07 80 80 27 16 29 08  85 80 11 01 03 29 08 86  ....'.)......)..
1620: 80 11 01 03 01 40 16 02  1B 00 1D 80 80 40 16 29  .....@.......@.)
1630: 08 85 80 11 01 04 29 08  86 80 11 01 04 01 40 16  ......).......@.
1640: 4E 00 85 80 11 01 4E 00  86 80 11 01 01 5B 16 4E  N.....N......[.N
1650: 01 85 80 11 01 4E 01 86  80 11 01 1B AC 02 87 80  .....N..........
1660: 11 01 3E 01 11 06 80 78  16 4E 00 87 80 11 01 AC  ..>....x.N......
1670: 03 87 80 11 01 01 84 16  AC 02 87 80 11 01 4E 01  ..............N.
1680: 87 80 11 01 1B AC 02 89  80 11 01 29 08 89 80 11  ...........)....
1690: 01 04 1B AC 02 8A 80 11  01 29 08 8A 80 11 01 04  .........)......
16A0: 1B AC 02 8B 80 11 01 29  08 8B 80 11 01 04 1B AC  .......)........
16B0: 02 8C 80 11 01 29 08 8C  80 11 01 04 1B AC 02 8D  .....)..........
16C0: 80 11 01 29 08 8D 80 11  01 04 1B AC 02 1C 80 11  ...)............
16D0: 01 3E 01 11 04 80 E2 16  29 80 1C 80 11 01 02 01  .>......).......
16E0: E9 16 29 80 1C 80 11 01  03 1B 03 01 10 07 80 43  ..)............C
16F0: 00 43 01 03 1C 00 02 10  03 08 11 03 10 03 01 11  .C..............
1700: 04 10 03 0A 11 05 10 03  0B 11 06 10 03 0C 11 07  ................
1710: 10 03 01 10 4C 80 43 00  43 01 03 02 11 02 10 03  ....L.C.C.......
1720: 03 11 03 10 03 04 11 04  10 03 05 11 05 10 03 06  ................
1730: 11 06 10 03 07 11 07 10  03 09 11 08 10 41 00 80  .............A..
1740: 1C 80 1C 00 1B 00 1A 37  19 41 06 80 51 80 1C 00  .......7.A..Q...
1750: 1B 00 1A 3F 1B 41 01 80  4C 80 1C 00 1B 00 1A CF  ...?.A..L.......
1760: 1D 41 0C 80 26 80 1C 00  1B 00 1A 1D 20 41 54 80  .A..&....... AT.
1770: 60 80 1C 00 1B 00 1A 9F  17 41 03 80 03 80 1C 00  `........A......
1780: 1B 00 02 1B 00 00 80 00  94 17 3D 00 11 65 80 07  ..........=..e..
1790: 80 01 9B 17 3C 00 11 65  80 07 80 1A B9 17 1B 02  ....<..e........
17A0: 1B 00 1C 80 04 B1 17 3C  01 11 04 80 07 80 01 B8  .......<........
17B0: 17 3D 01 11 04 80 07 80  1B 3E 08 11 01 80 2A 18  .=.......>....*.
17C0: 41 62 80 4C 80 08 11 1B  00 02 1B 00 07 80 80 E2  Ab.L............
17D0: 17 3D 00 11 0C 80 07 80  3C 00 11 20 80 07 80 01  .=......<.. ....
17E0: 27 18 02 1B 00 06 80 80  FB 17 3C 00 11 0C 80 07  '.........<.....
17F0: 80 3D 00 11 20 80 07 80  01 27 18 13 1B 00 66 80  .=.. ....'....f.
1800: 02 1B 00 36 80 03 19 18  3D 00 11 0C 80 07 80 3C  ...6....=......<
1810: 00 11 20 80 07 80 01 27  18 3C 00 11 0C 80 07 80  .. ....'.<......
1820: 3D 00 11 20 80 07 80 01  38 18 3D 00 11 0C 80 07  =.. ....8.=.....
1830: 80 3D 00 11 20 80 07 80  3E 08 11 0C 80 A9 18 41  .=.. ...>......A
1840: 20 80 26 80 08 11 1B 00  02 1B 00 07 80 80 61 18   .&...........a.
1850: 3C 00 11 64 80 07 80 3D  00 11 26 80 07 80 01 A6  <..d...=..&.....
1860: 18 02 1B 00 5E 80 80 7A  18 3D 00 11 64 80 07 80  ....^..z.=..d...
1870: 3C 00 11 26 80 07 80 01  A6 18 13 1B 00 66 80 02  <..&.........f..
1880: 1B 00 36 80 03 98 18 3C  00 11 64 80 07 80 3D 00  ..6....<..d...=.
1890: 11 26 80 07 80 01 A6 18  3D 00 11 64 80 07 80 3C  .&......=..d...<
18A0: 00 11 26 80 07 80 01 B7  18 3D 00 11 64 80 07 80  ..&......=..d...
18B0: 3D 00 11 26 80 07 80 3E  08 11 02 80 28 19 41 63  =..&...>....(.Ac
18C0: 80 0F 80 08 11 1B 00 02  1B 00 1C 80 80 E0 18 3C  ...............<
18D0: 00 11 02 80 07 80 3D 00  11 63 80 07 80 01 25 19  ......=..c....%.
18E0: 02 1B 00 1D 80 80 F9 18  3D 00 11 02 80 07 80 3C  ........=......<
18F0: 00 11 63 80 07 80 01 25  19 13 1B 00 66 80 02 1B  ..c....%....f...
1900: 00 36 80 03 17 19 3C 00  11 02 80 07 80 3D 00 11  .6....<......=..
1910: 63 80 07 80 01 25 19 3D  00 11 02 80 07 80 3C 00  c....%.=......<.
1920: 11 63 80 07 80 01 36 19  3D 00 11 02 80 07 80 3D  .c....6.=......=
1930: 00 11 63 80 07 80 1B 02  1B 00 00 80 80 6C 19 3D  ..c..........l.=
1940: 00 11 00 80 07 80 3C 00  11 07 80 07 80 3C 00 11  ......<......<..
1950: 1D 80 07 80 3C 00 11 5B  80 07 80 3D 00 11 5C 80  ....<..[...=..\.
1960: 07 80 3D 00 11 5D 80 07  80 01 3E 1B 02 1B 00 07  ..=..]....>.....
1970: 80 80 A1 19 3D 00 11 00  80 07 80 3C 00 11 07 80  ....=......<....
1980: 07 80 3C 00 11 1D 80 07  80 3C 00 11 5B 80 07 80  ..<......<..[...
1990: 3D 00 11 5C 80 07 80 3D  00 11 5D 80 07 80 01 3E  =..\...=..]....>
19A0: 1B 02 1B 00 1D 80 80 D6  19 3D 00 11 00 80 07 80  .........=......
19B0: 3C 00 11 07 80 07 80 3C  00 11 1D 80 07 80 3C 00  <......<......<.
19C0: 11 5B 80 07 80 3D 00 11  5C 80 07 80 3D 00 11 5D  .[...=..\...=..]
19D0: 80 07 80 01 3E 1B 02 1B  00 1C 80 80 0B 1A 3D 00  ....>.........=.
19E0: 11 00 80 07 80 3D 00 11  07 80 07 80 3C 00 11 1D  .....=......<...
19F0: 80 07 80 3C 00 11 5B 80  07 80 3C 00 11 5C 80 07  ...<..[...<..\..
1A00: 80 3D 00 11 5D 80 07 80  01 3E 1B 02 1B 00 06 80  .=..]....>......
1A10: 80 40 1A 3D 00 11 00 80  07 80 3D 00 11 07 80 07  .@.=......=.....
1A20: 80 3C 00 11 1D 80 07 80  3C 00 11 5B 80 07 80 3C  .<......<..[...<
1A30: 00 11 5C 80 07 80 3D 00  11 5D 80 07 80 01 3E 1B  ..\...=..]....>.
1A40: 02 1B 00 5E 80 80 75 1A  3D 00 11 00 80 07 80 3D  ...^..u.=......=
1A50: 00 11 07 80 07 80 3D 00  11 1D 80 07 80 3C 00 11  ......=......<..
1A60: 5B 80 07 80 3C 00 11 5C  80 07 80 3C 00 11 5D 80  [...<..\...<..].
1A70: 07 80 01 3E 1B 02 1B 00  0B 80 80 AA 1A 3D 00 11  ...>.........=..
1A80: 00 80 07 80 3D 00 11 07  80 07 80 3D 00 11 1D 80  ....=......=....
1A90: 07 80 3C 00 11 5B 80 07  80 3C 00 11 5C 80 07 80  ..<..[...<..\...
1AA0: 3C 00 11 5D 80 07 80 01  3E 1B 02 1B 00 51 80 80  <..]....>....Q..
1AB0: DF 1A 3D 00 11 00 80 07  80 3D 00 11 07 80 07 80  ..=......=......
1AC0: 3D 00 11 1D 80 07 80 3C  00 11 5B 80 07 80 3C 00  =......<..[...<.
1AD0: 11 5C 80 07 80 3C 00 11  5D 80 07 80 01 3E 1B 02  .\...<..]....>..
1AE0: 1B 00 01 80 80 14 1B 3D  00 11 00 80 07 80 3D 00  .......=......=.
1AF0: 11 07 80 07 80 3D 00 11  1D 80 07 80 3C 00 11 5B  .....=......<..[
1B00: 80 07 80 3C 00 11 5C 80  07 80 3C 00 11 5D 80 07  ...<..\...<..]..
1B10: 80 01 3E 1B 3D 00 11 00  80 07 80 3C 00 11 07 80  ..>.=......<....
1B20: 07 80 3C 00 11 1D 80 07  80 3C 00 11 5B 80 07 80  ..<......<..[...
1B30: 3D 00 11 5C 80 07 80 3D  00 11 5D 80 07 80 1B 02  =..\...=..].....
1B40: 1B 00 00 80 80 89 1B 3C  00 11 1C 80 07 80 3C 00  .......<......<.
1B50: 11 06 80 07 80 3C 00 11  5E 80 07 80 3C 01 11 53  .....<..^...<..S
1B60: 80 07 80 3C 01 11 0F 80  07 80 3C 00 11 53 80 07  ...<......<..S..
1B70: 80 3D 00 11 0F 80 07 80  3D 00 11 54 80 07 80 3D  .=......=..T...=
1B80: 00 11 5F 80 07 80 01 CE  1D 02 1B 00 07 80 80 D3  .._.............
1B90: 1B 3C 00 11 1C 80 07 80  3C 00 11 06 80 07 80 3C  .<......<......<
1BA0: 00 11 5E 80 07 80 3C 01  11 53 80 07 80 3C 01 11  ..^...<..S...<..
1BB0: 0F 80 07 80 3C 00 11 53  80 07 80 3D 00 11 0F 80  ....<..S...=....
1BC0: 07 80 3D 00 11 54 80 07  80 3D 00 11 5F 80 07 80  ..=..T...=.._...
1BD0: 01 CE 1D 02 1B 00 1D 80  80 1D 1C 3C 00 11 1C 80  ...........<....
1BE0: 07 80 3C 00 11 06 80 07  80 3C 00 11 5E 80 07 80  ..<......<..^...
1BF0: 3C 01 11 53 80 07 80 3C  01 11 0F 80 07 80 3C 00  <..S...<......<.
1C00: 11 53 80 07 80 3D 00 11  0F 80 07 80 3D 00 11 54  .S...=......=..T
1C10: 80 07 80 3D 00 11 5F 80  07 80 01 CE 1D 02 1B 00  ...=.._.........
1C20: 1C 80 80 67 1C 3D 00 11  1C 80 07 80 3C 00 11 06  ...g.=......<...
1C30: 80 07 80 3C 00 11 5E 80  07 80 3D 01 11 53 80 07  ...<..^...=..S..
1C40: 80 3C 01 11 0F 80 07 80  3C 00 11 53 80 07 80 3C  .<......<..S...<
1C50: 00 11 0F 80 07 80 3D 00  11 54 80 07 80 3D 00 11  ......=..T...=..
1C60: 5F 80 07 80 01 CE 1D 02  1B 00 06 80 80 B1 1C 3D  _..............=
1C70: 00 11 1C 80 07 80 3C 00  11 06 80 07 80 3C 00 11  ......<......<..
1C80: 5E 80 07 80 3D 01 11 53  80 07 80 3C 01 11 0F 80  ^...=..S...<....
1C90: 07 80 3C 00 11 53 80 07  80 3C 00 11 0F 80 07 80  ..<..S...<......
1CA0: 3D 00 11 54 80 07 80 3D  00 11 5F 80 07 80 01 CE  =..T...=.._.....
1CB0: 1D 02 1B 00 5E 80 80 FB  1C 3D 00 11 1C 80 07 80  ....^....=......
1CC0: 3D 00 11 06 80 07 80 3C  00 11 5E 80 07 80 3D 01  =......<..^...=.
1CD0: 11 53 80 07 80 3D 01 11  0F 80 07 80 3C 00 11 53  .S...=......<..S
1CE0: 80 07 80 3C 00 11 0F 80  07 80 3C 00 11 54 80 07  ...<......<..T..
1CF0: 80 3D 00 11 5F 80 07 80  01 CE 1D 02 1B 00 0B 80  .=.._...........
1D00: 80 45 1D 3D 00 11 1C 80  07 80 3D 00 11 06 80 07  .E.=......=.....
1D10: 80 3C 00 11 5E 80 07 80  3D 01 11 53 80 07 80 3D  .<..^...=..S...=
1D20: 01 11 0F 80 07 80 3C 00  11 53 80 07 80 3C 00 11  ......<..S...<..
1D30: 0F 80 07 80 3C 00 11 54  80 07 80 3D 00 11 5F 80  ....<..T...=.._.
1D40: 07 80 01 CE 1D 02 1B 00  51 80 80 8F 1D 3D 00 11  ........Q....=..
1D50: 1C 80 07 80 3D 00 11 06  80 07 80 3D 00 11 5E 80  ....=......=..^.
1D60: 07 80 3D 01 11 53 80 07  80 3D 01 11 0F 80 07 80  ..=..S...=......
1D70: 3C 00 11 53 80 07 80 3C  00 11 0F 80 07 80 3C 00  <..S...<......<.
1D80: 11 54 80 07 80 3C 00 11  5F 80 07 80 01 CE 1D 3C  .T...<.._......<
1D90: 00 11 1C 80 07 80 3C 00  11 06 80 07 80 3C 00 11  ......<......<..
1DA0: 5E 80 07 80 3C 01 11 53  80 07 80 3C 01 11 0F 80  ^...<..S...<....
1DB0: 07 80 3C 00 11 53 80 07  80 3D 00 11 0F 80 07 80  ..<..S...=......
1DC0: 3D 00 11 54 80 07 80 3D  00 11 5F 80 07 80 1B 02  =..T...=.._.....
1DD0: 1B 00 00 80 80 0B 1E 3D  00 11 0B 80 07 80 3D 00  .......=......=.
1DE0: 11 51 80 07 80 3D 00 11  01 80 07 80 3C 00 11 60  .Q...=......<..`
1DF0: 80 07 80 3D 00 11 52 80  07 80 3D 00 11 04 80 07  ...=..R...=.....
1E00: 80 3D 00 11 61 80 07 80  01 1C 20 02 1B 00 07 80  .=..a..... .....
1E10: 80 47 1E 3D 00 11 0B 80  07 80 3D 00 11 51 80 07  .G.=......=..Q..
1E20: 80 3D 00 11 01 80 07 80  3C 00 11 60 80 07 80 3D  .=......<..`...=
1E30: 00 11 52 80 07 80 3D 00  11 04 80 07 80 3D 00 11  ..R...=......=..
1E40: 61 80 07 80 01 1C 20 02  1B 00 1D 80 80 83 1E 3D  a..... ........=
1E50: 00 11 0B 80 07 80 3D 00  11 51 80 07 80 3D 00 11  ......=..Q...=..
1E60: 01 80 07 80 3C 00 11 60  80 07 80 3D 00 11 52 80  ....<..`...=..R.
1E70: 07 80 3D 00 11 04 80 07  80 3D 00 11 61 80 07 80  ..=......=..a...
1E80: 01 1C 20 02 1B 00 1C 80  80 BF 1E 3C 00 11 0B 80  .. ........<....
1E90: 07 80 3D 00 11 51 80 07  80 3D 00 11 01 80 07 80  ..=..Q...=......
1EA0: 3C 00 11 60 80 07 80 3C  00 11 52 80 07 80 3D 00  <..`...<..R...=.
1EB0: 11 04 80 07 80 3D 00 11  61 80 07 80 01 1C 20 02  .....=..a..... .
1EC0: 1B 00 06 80 80 FB 1E 3C  00 11 0B 80 07 80 3D 00  .......<......=.
1ED0: 11 51 80 07 80 3D 00 11  01 80 07 80 3C 00 11 60  .Q...=......<..`
1EE0: 80 07 80 3C 00 11 52 80  07 80 3D 00 11 04 80 07  ...<..R...=.....
1EF0: 80 3D 00 11 61 80 07 80  01 1C 20 02 1B 00 5E 80  .=..a..... ...^.
1F00: 80 37 1F 3C 00 11 0B 80  07 80 3C 00 11 51 80 07  .7.<......<..Q..
1F10: 80 3D 00 11 01 80 07 80  3C 00 11 60 80 07 80 3C  .=......<..`...<
1F20: 00 11 52 80 07 80 3C 00  11 04 80 07 80 3D 00 11  ..R...<......=..
1F30: 61 80 07 80 01 1C 20 02  1B 00 0B 80 80 73 1F 3C  a..... ......s.<
1F40: 00 11 0B 80 07 80 3C 00  11 51 80 07 80 3D 00 11  ......<..Q...=..
1F50: 01 80 07 80 3C 00 11 60  80 07 80 3C 00 11 52 80  ....<..`...<..R.
1F60: 07 80 3C 00 11 04 80 07  80 3D 00 11 61 80 07 80  ..<......=..a...
1F70: 01 1C 20 02 1B 00 51 80  80 AF 1F 3C 00 11 0B 80  .. ...Q....<....
1F80: 07 80 3C 00 11 51 80 07  80 3C 00 11 01 80 07 80  ..<..Q...<......
1F90: 3C 00 11 60 80 07 80 3C  00 11 52 80 07 80 3C 00  <..`...<..R...<.
1FA0: 11 04 80 07 80 3C 00 11  61 80 07 80 01 1C 20 02  .....<..a..... .
1FB0: 1B 00 01 80 80 EB 1F 3C  00 11 0B 80 07 80 3C 00  .......<......<.
1FC0: 11 51 80 07 80 3C 00 11  01 80 07 80 3C 00 11 60  .Q...<......<..`
1FD0: 80 07 80 3C 00 11 52 80  07 80 3C 00 11 04 80 07  ...<..R...<.....
1FE0: 80 3C 00 11 61 80 07 80  01 1C 20 3D 00 11 0B 80  .<..a..... =....
1FF0: 07 80 3D 00 11 51 80 07  80 3D 00 11 01 80 07 80  ..=..Q...=......
2000: 3C 00 11 60 80 07 80 3D  00 11 52 80 07 80 3D 00  <..`...=..R...=.
2010: 11 04 80 07 80 3D 00 11  61 80 07 80 1B 02 1B 00  .....=..a.......
2020: 00 80 80 60 20 3D 00 11  62 80 07 80 3D 00 11 24  ...` =..b...=..$
2030: 80 07 80 3D 00 11 4C 80  07 80 3D 01 11 63 80 07  ...=..L...=..c..
2040: 80 3C 01 11 54 80 07 80  3D 01 11 5F 80 07 80 3D  .<..T...=.._...=
2050: 01 11 60 80 07 80 3D 01  11 52 80 07 80 01 6D 22  ..`...=..R....m"
2060: 02 1B 00 07 80 80 A3 20  3D 00 11 62 80 07 80 3D  ....... =..b...=
2070: 00 11 24 80 07 80 3D 00  11 4C 80 07 80 3D 01 11  ..$...=..L...=..
2080: 63 80 07 80 3C 01 11 54  80 07 80 3D 01 11 5F 80  c...<..T...=.._.
2090: 07 80 3D 01 11 60 80 07  80 3D 01 11 52 80 07 80  ..=..`...=..R...
20A0: 01 6D 22 02 1B 00 1D 80  80 E6 20 3D 00 11 62 80  .m"....... =..b.
20B0: 07 80 3D 00 11 24 80 07  80 3D 00 11 4C 80 07 80  ..=..$...=..L...
20C0: 3D 01 11 63 80 07 80 3C  01 11 54 80 07 80 3D 01  =..c...<..T...=.
20D0: 11 5F 80 07 80 3D 01 11  60 80 07 80 3D 01 11 52  ._...=..`...=..R
20E0: 80 07 80 01 6D 22 02 1B  00 1C 80 80 29 21 3C 00  ....m"......)!<.
20F0: 11 62 80 07 80 3D 00 11  24 80 07 80 3D 00 11 4C  .b...=..$...=..L
2100: 80 07 80 3D 01 11 63 80  07 80 3D 01 11 54 80 07  ...=..c...=..T..
2110: 80 3C 01 11 5F 80 07 80  3D 01 11 60 80 07 80 3D  .<.._...=..`...=
2120: 01 11 52 80 07 80 01 6D  22 02 1B 00 06 80 80 6C  ..R....m"......l
2130: 21 3C 00 11 62 80 07 80  3D 00 11 24 80 07 80 3D  !<..b...=..$...=
2140: 00 11 4C 80 07 80 3D 01  11 63 80 07 80 3D 01 11  ..L...=..c...=..
2150: 54 80 07 80 3C 01 11 5F  80 07 80 3D 01 11 60 80  T...<.._...=..`.
2160: 07 80 3D 01 11 52 80 07  80 01 6D 22 02 1B 00 5E  ..=..R....m"...^
2170: 80 80 AF 21 3C 00 11 62  80 07 80 3C 00 11 24 80  ...!<..b...<..$.
2180: 07 80 3D 00 11 4C 80 07  80 3D 01 11 63 80 07 80  ..=..L...=..c...
2190: 3D 01 11 54 80 07 80 3D  01 11 5F 80 07 80 3C 01  =..T...=.._...<.
21A0: 11 60 80 07 80 3D 01 11  52 80 07 80 01 6D 22 02  .`...=..R....m".
21B0: 1B 00 0B 80 80 F2 21 3C  00 11 62 80 07 80 3C 00  ......!<..b...<.
21C0: 11 24 80 07 80 3D 00 11  4C 80 07 80 3D 01 11 63  .$...=..L...=..c
21D0: 80 07 80 3D 01 11 54 80  07 80 3D 01 11 5F 80 07  ...=..T...=.._..
21E0: 80 3C 01 11 60 80 07 80  3D 01 11 52 80 07 80 01  .<..`...=..R....
21F0: 6D 22 02 1B 00 51 80 80  35 22 3C 00 11 62 80 07  m"...Q..5"<..b..
2200: 80 3C 00 11 24 80 07 80  3C 00 11 4C 80 07 80 3C  .<..$...<..L...<
2210: 01 11 63 80 07 80 3D 01  11 54 80 07 80 3D 01 11  ..c...=..T...=..
2220: 5F 80 07 80 3D 01 11 60  80 07 80 3C 01 11 52 80  _...=..`...<..R.
2230: 07 80 01 6D 22 3D 00 11  62 80 07 80 3D 00 11 24  ...m"=..b...=..$
2240: 80 07 80 3D 00 11 4C 80  07 80 3D 01 11 63 80 07  ...=..L...=..c..
2250: 80 3C 01 11 54 80 07 80  3D 01 11 5F 80 07 80 3D  .<..T...=.._...=
2260: 01 11 60 80 07 80 3D 01  11 52 80 07 80 1B 03 01  ..`...=..R......
2270: 10 4C 80 43 00 43 01 03  02 11 02 10 03 03 11 03  .L.C.C..........
2280: 10 03 04 11 04 10 03 05  11 05 10 03 06 11 06 10  ................
2290: 03 07 11 07 10 03 09 11  08 10 1B 03 01 10 67 80  ..............g.
22A0: 47 00 68 80 69 80 6A 80  6B 80 47 01 03 02 11 02  G.h.i.j.k.G.....
22B0: 10 03 03 11 03 10 03 04  11 04 10 03 05 11 05 10  ................
22C0: 03 06 11 06 10 03 07 11  07 10 03 09 11 08 10 1B  ................
22D0: 2F 00 37 80 11 01 2F 00  38 80 11 01 2F 00 39 80  /.7.../.8.../.9.
22E0: 11 01 2F 00 3A 80 11 01  2F 00 3B 80 11 01 2F 00  ../.:.../.;.../.
22F0: 3C 80 11 01 2F 00 3D 80  11 01 2F 00 3E 80 11 01  <.../.=.../.>...
2300: 2F 00 3F 80 11 01 2F 00  40 80 11 01 2F 00 41 80  /.?.../.@.../.A.
2310: 11 01 2F 00 42 80 11 01  2F 00 43 80 11 01 2F 00  ../.B.../.C.../.
2320: 44 80 11 01 2F 00 45 80  11 01 2F 00 46 80 11 01  D.../.E.../.F...
2330: 2F 00 47 80 11 01 2F 00  48 80 11 01 2F 00 49 80  /.G.../.H.../.I.
2340: 11 01 2F 00 4A 80 11 01  2F 00 4B 80 11 01 2F 00  ../.J.../.K.../.
2350: 4C 80 11 01 2F 00 4D 80  11 01 2F 00 4E 80 11 01  L.../.M.../.N...
2360: AC 02 37 80 11 01 AC 02  38 80 11 01 AC 02 39 80  ..7.....8.....9.
2370: 11 01 AC 02 3A 80 11 01  AC 02 3B 80 11 01 AC 02  ....:.....;.....
2380: 3C 80 11 01 AC 02 3D 80  11 01 AC 02 3E 80 11 01  <.....=.....>...
2390: AC 02 3F 80 11 01 AC 02  40 80 11 01 AC 02 41 80  ..?.....@.....A.
23A0: 11 01 AC 02 42 80 11 01  AC 02 43 80 11 01 AC 02  ....B.....C.....
23B0: 44 80 11 01 AC 02 45 80  11 01 AC 02 46 80 11 01  D.....E.....F...
23C0: AC 02 47 80 11 01 AC 02  48 80 11 01 AC 02 49 80  ..G.....H.....I.
23D0: 11 01 AC 02 4A 80 11 01  AC 02 4B 80 11 01 AC 02  ....J.....K.....
23E0: 4C 80 11 01 AC 02 4D 80  11 01 AC 02 4E 80 11 01  L.....M.....N...
23F0: AC 02 0C 80 11 01 AC 02  0D 80 11 01 AC 02 0E 80  ................
2400: 11 01 41 00 80 07 80 02  11 02 10 02 02 10 07 80  ..A.............
2410: 00 1D 24 29 80 0C 80 11  01 03 01 24 24 29 80 0C  ..$).......$$)..
2420: 80 11 01 02 41 00 80 07  80 03 11 02 10 02 02 10  ....A...........
2430: 07 80 00 3F 24 29 80 0D  80 11 01 03 01 46 24 29  ...?$).......F$)
2440: 80 0D 80 11 01 02 41 00  80 07 80 04 11 02 10 02  ......A.........
2450: 02 10 07 80 00 61 24 29  80 0E 80 11 01 03 01 68  .....a$).......h
2460: 24 29 80 0E 80 11 01 02  27 80 37 80 11 01 02 27  $)......'.7....'
2470: 80 38 80 11 01 02 27 80  39 80 11 01 02 29 80 3A  .8....'.9....).:
2480: 80 11 01 02 27 80 3B 80  11 01 02 27 80 3C 80 11  ....'.;....'.<..
2490: 01 02 27 80 3D 80 11 01  02 29 80 3E 80 11 01 02  ..'.=....).>....
24A0: 27 80 3F 80 11 01 02 27  80 40 80 11 01 02 27 80  '.?....'.@....'.
24B0: 41 80 11 01 02 29 80 42  80 11 01 02 27 80 43 80  A....).B....'.C.
24C0: 11 01 02 27 80 44 80 11  01 02 27 80 45 80 11 01  ...'.D....'.E...
24D0: 02 29 80 46 80 11 01 02  27 80 47 80 11 01 02 27  .).F....'.G....'
24E0: 80 48 80 11 01 02 27 80  49 80 11 01 02 29 80 4A  .H....'.I....).J
24F0: 80 11 01 02 27 80 4B 80  11 01 02 27 80 4C 80 11  ....'.K....'.L..
2500: 01 02 27 80 4D 80 11 01  02 29 80 4E 80 11 01 02  ..'.M....).N....
2510: 1B 42 45 0E 80 F0 FF FF  7F F0 FF FF 7F 66 64 6F  .BE..........fdo
2520: 30 00 80 55 0E 80 F0 FF  FF 7F F0 FF FF 7F 66 64  0..U..........fd
2530: 6F 30 1A 9B 22 1A B0 0E  45 0E 80 F0 FF FF 7F F0  o0.."...E.......
2540: FF FF 7F 66 64 69 30 00  80 55 0E 80 F0 FF FF 7F  ...fdi0..U......
2550: F0 FF FF 7F 66 64 69 30  1B 42 45 0E 80 F0 FF FF  ....fdi0.BE.....
