# 17924105

## Common Data

| Field            | Value                |
|------------------|----------------------|
| Zone             | Mog Garden (ID: 280) |
| Block Size       | 64 bytes             |
| Total Events     | 4                    |
| References Count | 0                    |

## List of Events

| Event ID                 | Entrypoint   |   Size |   Instructions |
|--------------------------|--------------|--------|----------------|
| [65535](#event-65535)    | 0x0000       |      1 |              1 |
| [65534](#event-65534)    | 0x0001       |      1 |              1 |
| [65535.1](#event-655351) | 0x0002       |     15 |              3 |
| [65535.2](#event-655352) | 0x0011       |     15 |              3 |

## Events

### Event 65535

#### Metadata

| Field        | Value   |
|--------------|---------|
| Entrypoint   | 0x0000  |
| Data Size    | 1 bytes |
| Instructions | 1       |

```
      00 01 02 03 04 05 06 07  08 09 0A 0B 0C 0D 0E 0F
      -- -- -- -- -- -- -- --  -- -- -- -- -- -- -- --
0000: 00                                                .               
```

#### Opcodes

```
  0: 0x0000 [0x00] END_REQSTACK()
```

### Event 65534

#### Metadata

| Field        | Value   |
|--------------|---------|
| Entrypoint   | 0x0001  |
| Data Size    | 1 bytes |
| Instructions | 1       |

```
      00 01 02 03 04 05 06 07  08 09 0A 0B 0C 0D 0E 0F
      -- -- -- -- -- -- -- --  -- -- -- -- -- -- -- --
0000:    00                                              .              
```

#### Opcodes

```
  0: 0x0001 [0x00] END_REQSTACK()
```

### Event 65535.1

#### Metadata

| Field        | Value    |
|--------------|----------|
| Entrypoint   | 0x0002   |
| Data Size    | 15 bytes |
| Instructions | 3        |

```
      00 01 02 03 04 05 06 07  08 09 0A 0B 0C 0D 0E 0F
      -- -- -- -- -- -- -- --  -- -- -- -- -- -- -- --
0000:       4C 54 F8 FF FF 7F  F8 FF FF 7F 6F 70 65 6E    LT........open
0010: 00                                                .               
```

#### Opcodes

```
  0: 0x0002 [0x4C] EventEntity->StatusEvent = 8 // Open door
  1: 0x0003 [0x54] WAIT_MAP_SCHEDULER: Wait for scheduler "open" with entities [EventEntity, EventEntity]
  2: 0x0010 [0x00] END_REQSTACK()
```

### Event 65535.2

#### Metadata

| Field        | Value    |
|--------------|----------|
| Entrypoint   | 0x0011   |
| Data Size    | 15 bytes |
| Instructions | 3        |

```
      00 01 02 03 04 05 06 07  08 09 0A 0B 0C 0D 0E 0F
      -- -- -- -- -- -- -- --  -- -- -- -- -- -- -- --
0010:    4D 54 F8 FF FF 7F F8  FF FF 7F 63 6C 6F 73 00   MT........clos.
```

#### Opcodes

```
  0: 0x0011 [0x4D] EventEntity->StatusEvent = 9 // Close door
  1: 0x0012 [0x54] WAIT_MAP_SCHEDULER: Wait for scheduler "clos" with entities [EventEntity, EventEntity]
  2: 0x001F [0x00] END_REQSTACK()
```
