# 17924192 - 01

## Common Data

| Field            | Value                |
|------------------|----------------------|
| Zone             | Mog Garden (ID: 280) |
| Block Size       | 172 bytes            |
| Total Events     | 8                    |
| References Count | 14                   |

## List of Events

| Event ID                 | Entrypoint   |   Size |   Instructions |
|--------------------------|--------------|--------|----------------|
| [65535](#event-65535)    | 0x0000       |      1 |              1 |
| [65535.1](#event-655351) | 0x0001       |     18 |              4 |
| [65535.2](#event-655352) | 0x0013       |     10 |              2 |
| [2037](#event-2037)      | 0x001D       |      1 |              1 |
| [65535.3](#event-655353) | 0x001E       |     18 |              4 |
| [65535.4](#event-655354) | 0x0030       |     18 |              4 |
| [2076](#event-2076)      | 0x0042       |      1 |              1 |
| [2039](#event-2039)      | 0x0043       |      1 |              1 |

## DAT References (imed_data)

|   Index | Hex Value   |   Dec Value |
|---------|-------------|-------------|
|       0 | 0x2760      |       10080 |
|       1 | 0x29A5      |       10661 |
|       2 | 0xFFFFFEFE  |  4294967038 |
|       3 | 0x0E11      |        3601 |
|       4 | 0x1DD0      |        7632 |
|       5 | 0x2DBE      |       11710 |
|       6 | 0xFFFFFE51  |  4294966865 |
|       7 | 0xFFFFFAFD  |  4294966013 |
|       8 | 0x0CC5      |        3269 |
|       9 | 0x00E9      |         233 |
|      10 | 0x037C      |         892 |
|      11 | 0x1D11      |        7441 |
|      12 | 0x235F      |        9055 |
|      13 | 0x0574      |        1396 |

## Events

### Event 65535

#### Metadata

| Field        | Value   |
|--------------|---------|
| Entrypoint   | 0x0000  |
| Data Size    | 1 bytes |
| Instructions | 1       |

```
      00 01 02 03 04 05 06 07  08 09 0A 0B 0C 0D 0E 0F
      -- -- -- -- -- -- -- --  -- -- -- -- -- -- -- --
0000: 00                                                .               
```

#### Opcodes

```
  0: 0x0000 [0x00] END_REQSTACK()
```

### Event 65535.1

#### Metadata

| Field        | Value    |
|--------------|----------|
| Entrypoint   | 0x0001   |
| Data Size    | 18 bytes |
| Instructions | 4        |

```
      00 01 02 03 04 05 06 07  08 09 0A 0B 0C 0D 0E 0F
      -- -- -- -- -- -- -- --  -- -- -- -- -- -- -- --
0000:    2F 00 F8 FF FF 7F 37  00 80 01 80 02 80 03 80   /.....7........
0010: 22 00 00                                          "..             
```

#### Opcodes

```
  0: 0x0001 [0x2F] EventEntity->Render.Flags0 &= ~0x80000 // Bit 19
  1: 0x0007 [0x37] UPDATE_EVENT_POSITION_AND_DIR: x=10.080*, z=10.661*, y=-0.258*, direction=316.5째*
  2: 0x0010 [0x22] ENTITY_HIDE_FLAG(enabled=0x00)
  3: 0x0012 [0x00] END_REQSTACK()
```

### Event 65535.2

#### Metadata

| Field        | Value    |
|--------------|----------|
| Entrypoint   | 0x0013   |
| Data Size    | 10 bytes |
| Instructions | 2        |

```
      00 01 02 03 04 05 06 07  08 09 0A 0B 0C 0D 0E 0F
      -- -- -- -- -- -- -- --  -- -- -- -- -- -- -- --
0010:          37 04 80 05 80  06 80 03 80 00              7.........   
```

#### Opcodes

```
  0: 0x0013 [0x37] UPDATE_EVENT_POSITION_AND_DIR: x=7.632*, z=11.710*, y=-0.431*, direction=316.5째*
  1: 0x001C [0x00] END_REQSTACK()
```

### Event 2037

#### Metadata

| Field        | Value   |
|--------------|---------|
| Entrypoint   | 0x001D  |
| Data Size    | 1 bytes |
| Instructions | 1       |

```
      00 01 02 03 04 05 06 07  08 09 0A 0B 0C 0D 0E 0F
      -- -- -- -- -- -- -- --  -- -- -- -- -- -- -- --
0010:                                         00                     .  
```

#### Opcodes

```
  0: 0x001D [0x00] END_REQSTACK()
```

### Event 65535.3

#### Metadata

| Field        | Value    |
|--------------|----------|
| Entrypoint   | 0x001E   |
| Data Size    | 18 bytes |
| Instructions | 4        |

```
      00 01 02 03 04 05 06 07  08 09 0A 0B 0C 0D 0E 0F
      -- -- -- -- -- -- -- --  -- -- -- -- -- -- -- --
0010:                                            2F 00                /.
0020: F8 FF FF 7F 37 07 80 08  80 09 80 0A 80 22 00 00  ....7........"..
```

#### Opcodes

```
  0: 0x001E [0x2F] EventEntity->Render.Flags0 &= ~0x80000 // Bit 19
  1: 0x0024 [0x37] UPDATE_EVENT_POSITION_AND_DIR: x=-1.283*, z=3.269*, y=0.233*, direction=78.4째*
  2: 0x002D [0x22] ENTITY_HIDE_FLAG(enabled=0x00)
  3: 0x002F [0x00] END_REQSTACK()
```

### Event 65535.4

#### Metadata

| Field        | Value    |
|--------------|----------|
| Entrypoint   | 0x0030   |
| Data Size    | 18 bytes |
| Instructions | 4        |

```
      00 01 02 03 04 05 06 07  08 09 0A 0B 0C 0D 0E 0F
      -- -- -- -- -- -- -- --  -- -- -- -- -- -- -- --
0030: 2F 00 F8 FF FF 7F 37 0B  80 0C 80 06 80 0D 80 22  /.....7........"
0040: 00 00                                             ..              
```

#### Opcodes

```
  0: 0x0030 [0x2F] EventEntity->Render.Flags0 &= ~0x80000 // Bit 19
  1: 0x0036 [0x37] UPDATE_EVENT_POSITION_AND_DIR: x=7.441*, z=9.055*, y=-0.431*, direction=122.7째*
  2: 0x003F [0x22] ENTITY_HIDE_FLAG(enabled=0x00)
  3: 0x0041 [0x00] END_REQSTACK()
```

### Event 2076

#### Metadata

| Field        | Value   |
|--------------|---------|
| Entrypoint   | 0x0042  |
| Data Size    | 1 bytes |
| Instructions | 1       |

```
      00 01 02 03 04 05 06 07  08 09 0A 0B 0C 0D 0E 0F
      -- -- -- -- -- -- -- --  -- -- -- -- -- -- -- --
0040:       00                                            .             
```

#### Opcodes

```
  0: 0x0042 [0x00] END_REQSTACK()
```

### Event 2039

#### Metadata

| Field        | Value   |
|--------------|---------|
| Entrypoint   | 0x0043  |
| Data Size    | 1 bytes |
| Instructions | 1       |

```
      00 01 02 03 04 05 06 07  08 09 0A 0B 0C 0D 0E 0F
      -- -- -- -- -- -- -- --  -- -- -- -- -- -- -- --
0040:          00                                          .            
```

#### Opcodes

```
  0: 0x0043 [0x00] END_REQSTACK()
```
