# 17924183 - Kuyin Hathdenna

## Common Data

| Field            | Value                |
|------------------|----------------------|
| Zone             | Mog Garden (ID: 280) |
| Block Size       | 7736 bytes           |
| Total Events     | 28                   |
| References Count | 78                   |

## List of Events

| Event ID                   | Entrypoint   |   Size |   Instructions |
|----------------------------|--------------|--------|----------------|
| [65535](#event-65535)      | 0x0000       |      1 |              1 |
| [65534](#event-65534)      | 0x0001       |      1 |              1 |
| [65535.1](#event-655351)   | 0x0002       |     16 |              4 |
| [65535.2](#event-655352)   | 0x0012       |      7 |              3 |
| [65535.3](#event-655353)   | 0x0019       |     25 |              3 |
| [65535.4](#event-655354)   | 0x0032       |     25 |              3 |
| [65535.5](#event-655355)   | 0x004B       |     16 |              2 |
| [65535.6](#event-655356)   | 0x005B       |     14 |              2 |
| [65535.7](#event-655357)   | 0x0069       |     16 |              2 |
| [65535.8](#event-655358)   | 0x0079       |     14 |              2 |
| [65535.9](#event-655359)   | 0x0087       |     16 |              2 |
| [65535.10](#event-6553510) | 0x0097       |     14 |              2 |
| [65535.11](#event-6553511) | 0x00A5       |      9 |              3 |
| [2001](#event-2001)        | 0x00AE       |      3 |              2 |
| [2002](#event-2002)        | 0x00B1       |      3 |              2 |
| [2003](#event-2003)        | 0x00B4       |      3 |              2 |
| [2004](#event-2004)        | 0x00B7       |      3 |              2 |
| [2005](#event-2005)        | 0x00BA       |      3 |              2 |
| [2006](#event-2006)        | 0x00BD       |      3 |              2 |
| [65535.12](#event-6553512) | 0x00C0       |     11 |              5 |
| [65535.13](#event-6553513) | 0x00CB       |     27 |              7 |
| [2011](#event-2011)        | 0x00E6       |      3 |              2 |
| [2010](#event-2010)        | 0x00E9       |      1 |              1 |
| [65535.14](#event-6553514) | 0x00EA       |     37 |              7 |
| [65535.15](#event-6553515) | 0x010F       |      2 |              2 |
| [2013](#event-2013)        | 0x0111       |    143 |             20 |
| [2014](#event-2014)        | 0x01A0       |    154 |             21 |
| [1067](#event-1067)        | 0x023A       |   6723 |           1139 |

## DAT References (imed_data)

|   Index | Hex Value   |   Dec Value |
|---------|-------------|-------------|
|       0 | 0x0AA7      |        2727 |
|       1 | 0xFFFFEA9E  |  4294961822 |
|       2 | 0x2456      |        9302 |
|       3 | 0x013B      |         315 |
|       4 | 0x0C19      |        3097 |
|       5 | 0x0034      |          52 |
|       6 | 0x0CF4      |        3316 |
|       7 | 0x001E      |          30 |
|       8 | 0xFFFFFF5C  |  4294967132 |
|       9 | 0x2258      |        8792 |
|      10 | 0x0018      |          24 |
|      11 | 0x003C      |          60 |
|      12 | 0x12A7      |        4775 |
|      13 | 0x0F75      |        3957 |
|      14 | 0x0065      |         101 |
|      15 | 0x0452      |        1106 |
|      16 | 0xFFFFFEBD  |  4294966973 |
|      17 | 0x00E3      |         227 |
|      18 | 0x0654      |        1620 |
|      19 | 0x0AA6      |        2726 |
|      20 | 0x0000      |           0 |
|      21 | 0x00C8      |         200 |
|      22 | 0x0013      |          19 |
|      23 | 0x0017      |          23 |
|      24 | 0x1DB4      |        7604 |
|      25 | 0x1D6C      |        7532 |
|      26 | 0x0DAA      |        3498 |
|      27 | 0x0429      |        1065 |
|      28 | 0x1CF1      |        7409 |
|      29 | 0x1CF2      |        7410 |
|      30 | 0x1CF3      |        7411 |
|      31 | 0x1CF4      |        7412 |
|      32 | 0x40000000  |  1073741824 |
|      33 | 0x0001      |           1 |
|      34 | 0x1CF5      |        7413 |
|      35 | 0x1CF7      |        7415 |
|      36 | 0x0026      |          38 |
|      37 | 0x0008      |           8 |
|      38 | 0x001F      |          31 |
|      39 | 0x0002      |           2 |
|      40 | 0x1CF6      |        7414 |
|      41 | 0x0003      |           3 |
|      42 | 0x0004      |           4 |
|      43 | 0x1CF8      |        7416 |
|      44 | 0x001A      |          26 |
|      45 | 0x001B      |          27 |
|      46 | 0x001C      |          28 |
|      47 | 0x0005      |           5 |
|      48 | 0x0012      |          18 |
|      49 | 0x0014      |          20 |
|      50 | 0x0015      |          21 |
|      51 | 0x0006      |           6 |
|      52 | 0x0007      |           7 |
|      53 | 0x0016      |          22 |
|      54 | 0x0019      |          25 |
|      55 | 0x0009      |           9 |
|      56 | 0x000A      |          10 |
|      57 | 0x000B      |          11 |
|      58 | 0x0011      |          17 |
|      59 | 0x000C      |          12 |
|      60 | 0x000D      |          13 |
|      61 | 0x000E      |          14 |
|      62 | 0x000F      |          15 |
|      63 | 0x0010      |          16 |
|      64 | 0x001D      |          29 |
|      65 | 0x0063      |          99 |
|      66 | 0x0032      |          50 |
|      67 | 0x0049      |          73 |
|      68 | 0xFFFFF62B  |  4294964779 |
|      69 | 0xFFFFEC34  |  4294962228 |
|      70 | 0x01C4      |         452 |
|      71 | 0x0CF5      |        3317 |
|      72 | 0x0048      |          72 |
|      73 | 0x582C8     |      361160 |
|      74 | 0xFFF788EE  |  4294412526 |
|      75 | 0xFFFFF2F4  |  4294963956 |
|      76 | 0x064D      |        1613 |
|      77 | 0xFFFFFFFF  |  4294967295 |

## String References

- **7409**: You called, remeowned pioneer?
- **7410**: By the way, I'm working my tail off [here/keeping crrrops growing in the furrows/here/here/trrrying to catch stuff in the pond/here]!
- **7411**: What will you ask of her? [To let me pet her./To help with the furrows./To help with the pond./Nothing.]
- **7412**: Thanks for making me feel grrreat about myself!
- **7413**: Have her help how? [Harvest a lot of crops./Look for seeds./Do a different favor.]
- **7414**: Have her help how? [Catch something./Go after a whopper./Aim for a minnow./Do a different favor.]
- **7415**: Thanks! Meow I know what to do!
- **7416**: If you don't have any instrrructions for me, I guess I'll keep working!
- **7604**: What a terrific time to test tag utility, kupo!

## Events

### Event 65535

#### Metadata

| Field        | Value   |
|--------------|---------|
| Entrypoint   | 0x0000  |
| Data Size    | 1 bytes |
| Instructions | 1       |

```
      00 01 02 03 04 05 06 07  08 09 0A 0B 0C 0D 0E 0F
      -- -- -- -- -- -- -- --  -- -- -- -- -- -- -- --
0000: 00                                                .               
```

#### Opcodes

```
  0: 0x0000 [0x00] END_REQSTACK()
```

### Event 65534

#### Metadata

| Field        | Value   |
|--------------|---------|
| Entrypoint   | 0x0001  |
| Data Size    | 1 bytes |
| Instructions | 1       |

```
      00 01 02 03 04 05 06 07  08 09 0A 0B 0C 0D 0E 0F
      -- -- -- -- -- -- -- --  -- -- -- -- -- -- -- --
0000:    00                                              .              
```

#### Opcodes

```
  0: 0x0001 [0x00] END_REQSTACK()
```

### Event 65535.1

#### Metadata

| Field        | Value    |
|--------------|----------|
| Entrypoint   | 0x0002   |
| Data Size    | 16 bytes |
| Instructions | 4        |

```
      00 01 02 03 04 05 06 07  08 09 0A 0B 0C 0D 0E 0F
      -- -- -- -- -- -- -- --  -- -- -- -- -- -- -- --
0000:       B6 00 00 80 37 01  80 02 80 03 80 04 80 22    ....7........"
0010: 00 00                                             ..              
```

#### Opcodes

```
  0: 0x0002 [0xB6] ENTITY_APPEARANCE_HANDLER(case=Hair style, value=2727*)
  1: 0x0006 [0x37] UPDATE_EVENT_POSITION_AND_DIR: x=-5.474*, z=9.302*, y=0.315*, direction=272.2°*
  2: 0x000F [0x22] ENTITY_HIDE_FLAG(enabled=0x00)
  3: 0x0011 [0x00] END_REQSTACK()
```

### Event 65535.2

#### Metadata

| Field        | Value   |
|--------------|---------|
| Entrypoint   | 0x0012  |
| Data Size    | 7 bytes |
| Instructions | 3       |

```
      00 01 02 03 04 05 06 07  08 09 0A 0B 0C 0D 0E 0F
      -- -- -- -- -- -- -- --  -- -- -- -- -- -- -- --
0010:       B6 00 05 80 22 01  00                         ...."..       
```

#### Opcodes

```
  0: 0x0012 [0xB6] ENTITY_APPEARANCE_HANDLER(case=Hair style, value=52*)
  1: 0x0016 [0x22] ENTITY_HIDE_FLAG(enabled=0x01)
  2: 0x0018 [0x00] END_REQSTACK()
```

### Event 65535.3

#### Metadata

| Field        | Value    |
|--------------|----------|
| Entrypoint   | 0x0019   |
| Data Size    | 25 bytes |
| Instructions | 3        |

```
      00 01 02 03 04 05 06 07  08 09 0A 0B 0C 0D 0E 0F
      -- -- -- -- -- -- -- --  -- -- -- -- -- -- -- --
0010:                             B4 00 00 00 3F 3F 3F           ....???
0020: 00 00 00 00 00 00 00 00  00 00 00 00 00 B5 00 00  ................
0030: 00 00                                             ..              
```

#### Opcodes

```
  0: 0x0019 [0xB4] UI_WINDOW_STRING_HANDLER(case=0x00 - Copy string from opcode, work_offset=ExtData[1]->WorkLocal[0], string="???")
  1: 0x002D [0xB5] SET_EVENT_ENTITY_NAME: Change EventEntity name to ExtData[1]->WorkLocal[0]
  2: 0x0031 [0x00] END_REQSTACK()
```

### Event 65535.4

#### Metadata

| Field        | Value    |
|--------------|----------|
| Entrypoint   | 0x0032   |
| Data Size    | 25 bytes |
| Instructions | 3        |

```
      00 01 02 03 04 05 06 07  08 09 0A 0B 0C 0D 0E 0F
      -- -- -- -- -- -- -- --  -- -- -- -- -- -- -- --
0030:       B4 13 00 00 4B 75  79 69 6E 40 48 61 74 68    ....Kuyin@Hath
0040: 64 65 6E 6E 61 00 B5 00  00 00 00                 denna......     
```

#### Opcodes

```
  0: 0x0032 [0xB4] UI_WINDOW_STRING_HANDLER(case=0x13 - Copy string and replace @ with space, work_offset=ExtData[1]->WorkLocal[0], string="Kuyin@Hathdenna")
  1: 0x0046 [0xB5] SET_EVENT_ENTITY_NAME: Change EventEntity name to ExtData[1]->WorkLocal[0]
  2: 0x004A [0x00] END_REQSTACK()
```

### Event 65535.5

#### Metadata

| Field        | Value    |
|--------------|----------|
| Entrypoint   | 0x004B   |
| Data Size    | 16 bytes |
| Instructions | 2        |

```
      00 01 02 03 04 05 06 07  08 09 0A 0B 0C 0D 0E 0F
      -- -- -- -- -- -- -- --  -- -- -- -- -- -- -- --
0040:                                   5B 06 80 F8 FF             [....
0050: FF 7F F8 FF FF 7F 74 6C  6B 30 00                 ......tlk0.     
```

#### Opcodes

```
  0: 0x004B [0x5B] LOAD_EXT_SCHEDULER: Load scheduler "tlk0" with entities [EventEntity, EventEntity], work=3316*
  1: 0x005A [0x00] END_REQSTACK()
```

### Event 65535.6

#### Metadata

| Field        | Value    |
|--------------|----------|
| Entrypoint   | 0x005B   |
| Data Size    | 14 bytes |
| Instructions | 2        |

```
      00 01 02 03 04 05 06 07  08 09 0A 0B 0C 0D 0E 0F
      -- -- -- -- -- -- -- --  -- -- -- -- -- -- -- --
0050:                                   53 F8 FF FF 7F             S....
0060: F8 FF FF 7F 74 6C 6B 30  00                       ....tlk0.       
```

#### Opcodes

```
  0: 0x005B [0x53] WAIT_SCHEDULER_TASK: Wait for scheduler "tlk0" with entities [EventEntity, EventEntity]
  1: 0x0068 [0x00] END_REQSTACK()
```

### Event 65535.7

#### Metadata

| Field        | Value    |
|--------------|----------|
| Entrypoint   | 0x0069   |
| Data Size    | 16 bytes |
| Instructions | 2        |

```
      00 01 02 03 04 05 06 07  08 09 0A 0B 0C 0D 0E 0F
      -- -- -- -- -- -- -- --  -- -- -- -- -- -- -- --
0060:                             5B 06 80 F8 FF FF 7F           [......
0070: F8 FF FF 7F 74 6C 6B 31  00                       ....tlk1.       
```

#### Opcodes

```
  0: 0x0069 [0x5B] LOAD_EXT_SCHEDULER: Load scheduler "tlk1" with entities [EventEntity, EventEntity], work=3316*
  1: 0x0078 [0x00] END_REQSTACK()
```

### Event 65535.8

#### Metadata

| Field        | Value    |
|--------------|----------|
| Entrypoint   | 0x0079   |
| Data Size    | 14 bytes |
| Instructions | 2        |

```
      00 01 02 03 04 05 06 07  08 09 0A 0B 0C 0D 0E 0F
      -- -- -- -- -- -- -- --  -- -- -- -- -- -- -- --
0070:                             53 F8 FF FF 7F F8 FF           S......
0080: FF 7F 74 6C 6B 31 00                              ..tlk1.         
```

#### Opcodes

```
  0: 0x0079 [0x53] WAIT_SCHEDULER_TASK: Wait for scheduler "tlk1" with entities [EventEntity, EventEntity]
  1: 0x0086 [0x00] END_REQSTACK()
```

### Event 65535.9

#### Metadata

| Field        | Value    |
|--------------|----------|
| Entrypoint   | 0x0087   |
| Data Size    | 16 bytes |
| Instructions | 2        |

```
      00 01 02 03 04 05 06 07  08 09 0A 0B 0C 0D 0E 0F
      -- -- -- -- -- -- -- --  -- -- -- -- -- -- -- --
0080:                      5B  06 80 F8 FF FF 7F F8 FF         [........
0090: FF 7F 68 61 69 30 00                              ..hai0.         
```

#### Opcodes

```
  0: 0x0087 [0x5B] LOAD_EXT_SCHEDULER: Load scheduler "hai0" with entities [EventEntity, EventEntity], work=3316*
  1: 0x0096 [0x00] END_REQSTACK()
```

### Event 65535.10

#### Metadata

| Field        | Value    |
|--------------|----------|
| Entrypoint   | 0x0097   |
| Data Size    | 14 bytes |
| Instructions | 2        |

```
      00 01 02 03 04 05 06 07  08 09 0A 0B 0C 0D 0E 0F
      -- -- -- -- -- -- -- --  -- -- -- -- -- -- -- --
0090:                      53  F8 FF FF 7F F8 FF FF 7F         S........
00A0: 68 61 69 30 00                                    hai0.           
```

#### Opcodes

```
  0: 0x0097 [0x53] WAIT_SCHEDULER_TASK: Wait for scheduler "hai0" with entities [EventEntity, EventEntity]
  1: 0x00A4 [0x00] END_REQSTACK()
```

### Event 65535.11

#### Metadata

| Field        | Value   |
|--------------|---------|
| Entrypoint   | 0x00A5  |
| Data Size    | 9 bytes |
| Instructions | 3       |

```
      00 01 02 03 04 05 06 07  08 09 0A 0B 0C 0D 0E 0F
      -- -- -- -- -- -- -- --  -- -- -- -- -- -- -- --
00A0:                5E 69 64  6C 30 1C 07 80 00             ^idl0....  
```

#### Opcodes

```
  0: 0x00A5 [0x5E] EventEntity goes idle (kills current action) (animation: "idl0")
  1: 0x00AA [0x1C] WAIT(30* ticks)
  2: 0x00AD [0x00] END_REQSTACK()
```

### Event 2001

#### Metadata

| Field        | Value   |
|--------------|---------|
| Entrypoint   | 0x00AE  |
| Data Size    | 3 bytes |
| Instructions | 2       |

```
      00 01 02 03 04 05 06 07  08 09 0A 0B 0C 0D 0E 0F
      -- -- -- -- -- -- -- --  -- -- -- -- -- -- -- --
00A0:                                            22 01                ".
00B0: 00                                                .               
```

#### Opcodes

```
  0: 0x00AE [0x22] ENTITY_HIDE_FLAG(enabled=0x01)
  1: 0x00B0 [0x00] END_REQSTACK()
```

### Event 2002

#### Metadata

| Field        | Value   |
|--------------|---------|
| Entrypoint   | 0x00B1  |
| Data Size    | 3 bytes |
| Instructions | 2       |

```
      00 01 02 03 04 05 06 07  08 09 0A 0B 0C 0D 0E 0F
      -- -- -- -- -- -- -- --  -- -- -- -- -- -- -- --
00B0:    22 01 00                                        "..            
```

#### Opcodes

```
  0: 0x00B1 [0x22] ENTITY_HIDE_FLAG(enabled=0x01)
  1: 0x00B3 [0x00] END_REQSTACK()
```

### Event 2003

#### Metadata

| Field        | Value   |
|--------------|---------|
| Entrypoint   | 0x00B4  |
| Data Size    | 3 bytes |
| Instructions | 2       |

```
      00 01 02 03 04 05 06 07  08 09 0A 0B 0C 0D 0E 0F
      -- -- -- -- -- -- -- --  -- -- -- -- -- -- -- --
00B0:             22 01 00                                  "..         
```

#### Opcodes

```
  0: 0x00B4 [0x22] ENTITY_HIDE_FLAG(enabled=0x01)
  1: 0x00B6 [0x00] END_REQSTACK()
```

### Event 2004

#### Metadata

| Field        | Value   |
|--------------|---------|
| Entrypoint   | 0x00B7  |
| Data Size    | 3 bytes |
| Instructions | 2       |

```
      00 01 02 03 04 05 06 07  08 09 0A 0B 0C 0D 0E 0F
      -- -- -- -- -- -- -- --  -- -- -- -- -- -- -- --
00B0:                      22  01 00                           "..      
```

#### Opcodes

```
  0: 0x00B7 [0x22] ENTITY_HIDE_FLAG(enabled=0x01)
  1: 0x00B9 [0x00] END_REQSTACK()
```

### Event 2005

#### Metadata

| Field        | Value   |
|--------------|---------|
| Entrypoint   | 0x00BA  |
| Data Size    | 3 bytes |
| Instructions | 2       |

```
      00 01 02 03 04 05 06 07  08 09 0A 0B 0C 0D 0E 0F
      -- -- -- -- -- -- -- --  -- -- -- -- -- -- -- --
00B0:                                22 01 00                     "..   
```

#### Opcodes

```
  0: 0x00BA [0x22] ENTITY_HIDE_FLAG(enabled=0x01)
  1: 0x00BC [0x00] END_REQSTACK()
```

### Event 2006

#### Metadata

| Field        | Value   |
|--------------|---------|
| Entrypoint   | 0x00BD  |
| Data Size    | 3 bytes |
| Instructions | 2       |

```
      00 01 02 03 04 05 06 07  08 09 0A 0B 0C 0D 0E 0F
      -- -- -- -- -- -- -- --  -- -- -- -- -- -- -- --
00B0:                                         22 01 00               "..
```

#### Opcodes

```
  0: 0x00BD [0x22] ENTITY_HIDE_FLAG(enabled=0x01)
  1: 0x00BF [0x00] END_REQSTACK()
```

### Event 65535.12

#### Metadata

| Field        | Value    |
|--------------|----------|
| Entrypoint   | 0x00C0   |
| Data Size    | 11 bytes |
| Instructions | 5        |

```
      00 01 02 03 04 05 06 07  08 09 0A 0B 0C 0D 0E 0F
      -- -- -- -- -- -- -- --  -- -- -- -- -- -- -- --
00C0: 1C 07 80 1E 1D 80 11 01  6F 70 00                 ........op.     
```

#### Opcodes

```
  0: 0x00C0 [0x1C] WAIT(30* ticks)
  1: 0x00C3 [0x1E] EventEntity looks at Green Thumb Moogle (ID: 17924125/0x0111801D) and starts talking
  2: 0x00C8 [0x6F] WAIT_FRAME_DELAY: Yield until WaitTime reaches zero
  3: 0x00C9 [0x70] WAIT_ENTITY_RENDER_FLAG: Wait while EventEntity->Render.Flags3 bit 2 is set (cancel turn if not)
  4: 0x00CA [0x00] END_REQSTACK()
```

### Event 65535.13

#### Metadata

| Field        | Value    |
|--------------|----------|
| Entrypoint   | 0x00CB   |
| Data Size    | 27 bytes |
| Instructions | 7        |

```
      00 01 02 03 04 05 06 07  08 09 0A 0B 0C 0D 0E 0F
      -- -- -- -- -- -- -- --  -- -- -- -- -- -- -- --
00C0:                                   32 07 80 1F 00             2....
00D0: 08 80 09 80 0A 80 1F 01  1C 0B 80 1F 00 0C 80 0D  ................
00E0: 80 0E 80 1F 01 00                                 ......          
```

#### Opcodes

```
  0: 0x00CB [0x32] ExtData[1]->MainSpeed = 30* * 0.1
  1: 0x00CE [0x1F] MOVE_ENTITY: EventEntity moves to X=-0.164*, Z=8.792*, Y=0.024*
  2: 0x00D6 [0x1F] MOVE_ENTITY: Update entity position (mode=1)
  3: 0x00D8 [0x1C] WAIT(60* ticks)
  4: 0x00DB [0x1F] MOVE_ENTITY: EventEntity moves to X=4.775*, Z=3.957*, Y=0.101*
  5: 0x00E3 [0x1F] MOVE_ENTITY: Update entity position (mode=1)
  6: 0x00E5 [0x00] END_REQSTACK()
```

### Event 2011

#### Metadata

| Field        | Value   |
|--------------|---------|
| Entrypoint   | 0x00E6  |
| Data Size    | 3 bytes |
| Instructions | 2       |

```
      00 01 02 03 04 05 06 07  08 09 0A 0B 0C 0D 0E 0F
      -- -- -- -- -- -- -- --  -- -- -- -- -- -- -- --
00E0:                   22 01  00                             "..       
```

#### Opcodes

```
  0: 0x00E6 [0x22] ENTITY_HIDE_FLAG(enabled=0x01)
  1: 0x00E8 [0x00] END_REQSTACK()
```

### Event 2010

#### Metadata

| Field        | Value   |
|--------------|---------|
| Entrypoint   | 0x00E9  |
| Data Size    | 1 bytes |
| Instructions | 1       |

```
      00 01 02 03 04 05 06 07  08 09 0A 0B 0C 0D 0E 0F
      -- -- -- -- -- -- -- --  -- -- -- -- -- -- -- --
00E0:                             00                             .      
```

#### Opcodes

```
  0: 0x00E9 [0x00] END_REQSTACK()
```

### Event 65535.14

#### Metadata

| Field        | Value    |
|--------------|----------|
| Entrypoint   | 0x00EA   |
| Data Size    | 37 bytes |
| Instructions | 7        |

```
      00 01 02 03 04 05 06 07  08 09 0A 0B 0C 0D 0E 0F
      -- -- -- -- -- -- -- --  -- -- -- -- -- -- -- --
00E0:                                37 0F 80 10 80 11            7.....
00F0: 80 12 80 B6 00 13 80 95  14 80 80 F8 FF FF 7F 2C  ...............,
0100: F8 FF FF 7F F8 FF FF 7F  77 30 6F 66 22 01 00     ........w0of".. 
```

#### Opcodes

```
  0: 0x00EA [0x37] UPDATE_EVENT_POSITION_AND_DIR: x=1.106*, z=-0.323*, y=0.227*, direction=142.4°*
  1: 0x00F3 [0xB6] ENTITY_APPEARANCE_HANDLER(case=Hair style, value=2726*)
  2: 0x00F7 [0x95] SETUP_EVENT_NPC: Prepare NPC for event (Render.Flags3 = 0*)
  3: 0x00FA [0x80] LOAD_WAIT(entity=EventEntity)
  4: 0x00FF [0x2C] CREATE_SCHEDULER_TASK: Create scheduler "w0of" with entities [EventEntity, EventEntity]
  5: 0x010C [0x22] ENTITY_HIDE_FLAG(enabled=0x01)
  6: 0x010E [0x00] END_REQSTACK()
```

### Event 65535.15

#### Metadata

| Field        | Value   |
|--------------|---------|
| Entrypoint   | 0x010F  |
| Data Size    | 2 bytes |
| Instructions | 2       |

```
      00 01 02 03 04 05 06 07  08 09 0A 0B 0C 0D 0E 0F
      -- -- -- -- -- -- -- --  -- -- -- -- -- -- -- --
0100:                                               96                 .
0110: 00                                                .               
```

#### Opcodes

```
  0: 0x010F [0x96] UNSET_EVENT_NPC: Restore NPC after event (removes event NPC status)
  1: 0x0110 [0x00] END_REQSTACK()
```

### Event 2013

#### Metadata

| Field        | Value     |
|--------------|-----------|
| Entrypoint   | 0x0111    |
| Data Size    | 143 bytes |
| Instructions | 20        |

```
      00 01 02 03 04 05 06 07  08 09 0A 0B 0C 0D 0E 0F
      -- -- -- -- -- -- -- --  -- -- -- -- -- -- -- --
0110:    42 46 01 45 15 80 F0  FF FF 7F F0 FF FF 7F 66   BF.E..........f
0120: 64 6F 31 14 80 55 15 80  F0 FF FF 7F F0 FF FF 7F  do1..U..........
0130: 66 64 6F 31 38 16 80 29  08 F0 FF FF 7F 1C 37 01  fdo18..)......7.
0140: 80 02 80 03 80 04 80 4A  57 80 11 01 F0 FF FF 7F  .......JW.......
0150: 6F 76 57 80 11 01 45 17  80 F0 FF FF 7F F0 FF FF  ovW...E.........
0160: 7F 73 35 36 30 14 80 45  15 80 F0 FF FF 7F F0 FF  .s560..E........
0170: FF 7F 66 64 69 31 14 80  55 15 80 F0 FF FF 7F F0  ..fdi1..U.......
0180: FF FF 7F 66 64 69 31 1D  18 80 23 52 17 80 F0 FF  ...fdi1...#R....
0190: FF 7F F0 FF FF 7F 73 35  36 30 46 00 20 00 21 00  ......s560F. .!.
```

#### Opcodes

```
  0: 0x0111 [0x42] SET_CLI_EVENT_CANCEL_DATA()
  1: 0x0112 [0x46] CAMERA_CONTROL: Disable user control
  2: 0x0114 [0x45] LOAD_SCHEDULED_TASK: Load scheduler "fdo1" with entities [LocalPlayer, LocalPlayer], work=[200*, 0*]
  3: 0x0125 [0x55] WAIT_LOAD_SCHEDULER: Wait for scheduler "fdo1" with entities [LocalPlayer, LocalPlayer], work=200*
  4: 0x0134 [0x38] SET_CLIENT_EVENT_MODE(mode=19*)
  5: 0x0137 [0x29] REQ_SET_WAIT(priority=0x08, entity_id=LocalPlayer, tag_num=0x1C)
  6: 0x013E [0x37] UPDATE_EVENT_POSITION_AND_DIR: x=-5.474*, z=9.302*, y=0.315*, direction=272.2°*
  7: 0x0147 [0x4A] Kuyin Hathdenna (ID: 17924183/0x01118057) looks at LocalPlayer
  8: 0x0150 [0x6F] WAIT_FRAME_DELAY: Yield until WaitTime reaches zero
  9: 0x0151 [0x76] CHECK_ENTITY_RENDER_FLAGS: Wait until Kuyin Hathdenna (ID: 17924183/0x01118057) Render.Flags0 and Render.Flags3 conditions are met
 10: 0x0156 [0x45] LOAD_SCHEDULED_TASK: Load scheduler "s560" with entities [LocalPlayer, LocalPlayer], work=[23*, 0*]
 11: 0x0167 [0x45] LOAD_SCHEDULED_TASK: Load scheduler "fdi1" with entities [LocalPlayer, LocalPlayer], work=[200*, 0*]
 12: 0x0178 [0x55] WAIT_LOAD_SCHEDULER: Wait for scheduler "fdi1" with entities [LocalPlayer, LocalPlayer], work=200*
 13: 0x0187 [0x1D] PRINT_EVENT_MESSAGE(message_id=7604*)
    → "What a terrific time to test tag utility, kupo!"
 14: 0x018A [0x23] WAIT_FOR_DIALOG_INTERACTION
 15: 0x018B [0x52] END_LOAD_SCHEDULER: End scheduler "s560" with entities [LocalPlayer, LocalPlayer], work=23*
 16: 0x019A [0x46] CAMERA_CONTROL: Restore default settings
 17: 0x019C [0x20] SET_CLI_EVENT_UC_FLAG: Unlock player control
 18: 0x019E [0x21] END_EVENT
 19: 0x019F [0x00] END_REQSTACK()
```

### Event 2014

#### Metadata

| Field        | Value     |
|--------------|-----------|
| Entrypoint   | 0x01A0    |
| Data Size    | 154 bytes |
| Instructions | 21        |

```
      00 01 02 03 04 05 06 07  08 09 0A 0B 0C 0D 0E 0F
      -- -- -- -- -- -- -- --  -- -- -- -- -- -- -- --
01A0: 42 46 01 45 15 80 F0 FF  FF 7F F0 FF FF 7F 66 64  BF.E..........fd
01B0: 6F 31 14 80 55 15 80 F0  FF FF 7F F0 FF FF 7F 66  o1..U..........f
01C0: 64 6F 31 29 08 F0 FF FF  7F 1D 37 19 80 1A 80 0E  do1)......7.....
01D0: 80 1B 80 4A 57 80 11 01  F0 FF FF 7F 6F 76 57 80  ...JW.......ovW.
01E0: 11 01 45 17 80 F0 FF FF  7F F0 FF FF 7F 73 35 36  ..E..........s56
01F0: 31 14 80 45 15 80 F0 FF  FF 7F F0 FF FF 7F 66 64  1..E..........fd
0200: 69 31 14 80 55 15 80 F0  FF FF 7F F0 FF FF 7F 66  i1..U..........f
0210: 64 69 31 29 08 57 80 11  01 06 1D 18 80 23 29 08  di1).W.......#).
0220: 57 80 11 01 07 52 17 80  F0 FF FF 7F F0 FF FF 7F  W....R..........
0230: 73 35 36 31 46 00 20 00  21 00                    s561F. .!.      
```

#### Opcodes

```
  0: 0x01A0 [0x42] SET_CLI_EVENT_CANCEL_DATA()
  1: 0x01A1 [0x46] CAMERA_CONTROL: Disable user control
  2: 0x01A3 [0x45] LOAD_SCHEDULED_TASK: Load scheduler "fdo1" with entities [LocalPlayer, LocalPlayer], work=[200*, 0*]
  3: 0x01B4 [0x55] WAIT_LOAD_SCHEDULER: Wait for scheduler "fdo1" with entities [LocalPlayer, LocalPlayer], work=200*
  4: 0x01C3 [0x29] REQ_SET_WAIT(priority=0x08, entity_id=LocalPlayer, tag_num=0x1D)
  5: 0x01CA [0x37] UPDATE_EVENT_POSITION_AND_DIR: x=7.532*, z=3.498*, y=0.101*, direction=93.6°*
  6: 0x01D3 [0x4A] Kuyin Hathdenna (ID: 17924183/0x01118057) looks at LocalPlayer
  7: 0x01DC [0x6F] WAIT_FRAME_DELAY: Yield until WaitTime reaches zero
  8: 0x01DD [0x76] CHECK_ENTITY_RENDER_FLAGS: Wait until Kuyin Hathdenna (ID: 17924183/0x01118057) Render.Flags0 and Render.Flags3 conditions are met
  9: 0x01E2 [0x45] LOAD_SCHEDULED_TASK: Load scheduler "s561" with entities [LocalPlayer, LocalPlayer], work=[23*, 0*]
 10: 0x01F3 [0x45] LOAD_SCHEDULED_TASK: Load scheduler "fdi1" with entities [LocalPlayer, LocalPlayer], work=[200*, 0*]
 11: 0x0204 [0x55] WAIT_LOAD_SCHEDULER: Wait for scheduler "fdi1" with entities [LocalPlayer, LocalPlayer], work=200*
 12: 0x0213 [0x29] REQ_SET_WAIT(priority=0x08, entity_id=Kuyin Hathdenna (ID: 17924183/0x01118057), tag_num=0x06)
 13: 0x021A [0x1D] PRINT_EVENT_MESSAGE(message_id=7604*)
    → "What a terrific time to test tag utility, kupo!"
 14: 0x021D [0x23] WAIT_FOR_DIALOG_INTERACTION
 15: 0x021E [0x29] REQ_SET_WAIT(priority=0x08, entity_id=Kuyin Hathdenna (ID: 17924183/0x01118057), tag_num=0x07)
 16: 0x0225 [0x52] END_LOAD_SCHEDULER: End scheduler "s561" with entities [LocalPlayer, LocalPlayer], work=23*
 17: 0x0234 [0x46] CAMERA_CONTROL: Restore default settings
 18: 0x0236 [0x20] SET_CLI_EVENT_UC_FLAG: Unlock player control
 19: 0x0238 [0x21] END_EVENT
 20: 0x0239 [0x00] END_REQSTACK()
```

### Event 1067

#### Metadata

| Field        | Value      |
|--------------|------------|
| Entrypoint   | 0x023A     |
| Data Size    | 6723 bytes |
| Instructions | 984        |

```
      00 01 02 03 04 05 06 07  08 09 0A 0B 0C 0D 0E 0F
      -- -- -- -- -- -- -- --  -- -- -- -- -- -- -- --
0230:                                42 46 01 45 15 80            BF.E..
0240: F0 FF FF 7F F0 FF FF 7F  66 64 6F 30 14 80 55 15  ........fdo0..U.
0250: 80 F0 FF FF 7F F0 FF FF  7F 66 64 6F 30 29 08 F0  .........fdo0)..
0260: FF FF 7F 1C B6 00 13 80  95 14 80 80 F8 FF FF 7F  ................
0270: 2C F8 FF FF 7F F8 FF FF  7F 77 30 6F 66 92 01 F8  ,........w0of...
0280: FF FF 7F 4A 57 80 11 01  F0 FF FF 7F 6F 76 57 80  ...JW.......ovW.
0290: 11 01 45 17 80 F0 FF FF  7F F0 FF FF 7F 73 35 36  ..E..........s56
02A0: 30 14 80 45 15 80 F0 FF  FF 7F F0 FF FF 7F 66 64  0..E..........fd
02B0: 69 30 14 80 1D 1C 80 23  1D 1D 80 23 24 1E 80 14  i0.....#...#$...
02C0: 80 14 80 25 02 00 10 14  80 00 E7 02 5B 06 80 F8  ...%........[...
02D0: FF FF 7F F8 FF FF 7F 74  6C 6B 30 1D 1F 80 23 03  .......tlk0...#.
02E0: 01 10 20 80 01 26 04 02  00 10 21 80 00 5D 03 24  .. ..&....!..].$
02F0: 22 80 14 80 14 80 25 02  00 10 14 80 00 27 03 5B  ".....%......'.[
0300: 06 80 F8 FF FF 7F F8 FF  FF 7F 68 61 69 30 1D 23  ..........hai0.#
0310: 80 23 03 01 10 24 80 40  25 80 26 80 01 10 14 80  .#...$.@%.&.....
0320: 43 00 43 01 01 5A 03 02  00 10 21 80 00 57 03 5B  C.C..Z....!..W.[
0330: 06 80 F8 FF FF 7F F8 FF  FF 7F 68 61 69 30 1D 23  ..........hai0.#
0340: 80 23 03 01 10 24 80 40  25 80 26 80 01 10 21 80  .#...$.@%.&...!.
0350: 43 00 43 01 01 5A 03 01  BC 02 01 26 04 02 00 10  C.C..Z.....&....
0360: 27 80 00 03 04 24 28 80  14 80 14 80 25 02 00 10  '....$(.....%...
0370: 14 80 00 9D 03 5B 06 80  F8 FF FF 7F F8 FF FF 7F  .....[..........
0380: 68 61 69 30 1D 23 80 23  03 01 10 24 80 40 25 80  hai0.#.#...$.@%.
0390: 26 80 01 10 27 80 43 00  43 01 01 00 04 02 00 10  &...'.C.C.......
03A0: 21 80 00 CD 03 5B 06 80  F8 FF FF 7F F8 FF FF 7F  !....[..........
03B0: 68 61 69 30 1D 23 80 23  03 01 10 24 80 40 25 80  hai0.#.#...$.@%.
03C0: 26 80 01 10 29 80 43 00  43 01 01 00 04 02 00 10  &...).C.C.......
03D0: 27 80 00 FD 03 5B 06 80  F8 FF FF 7F F8 FF FF 7F  '....[..........
03E0: 68 61 69 30 1D 23 80 23  03 01 10 24 80 40 25 80  hai0.#.#...$.@%.
03F0: 26 80 01 10 2A 80 43 00  43 01 01 00 04 01 BC 02  &...*.C.C.......
0400: 01 26 04 02 00 10 29 80  00 26 04 5B 06 80 F8 FF  .&....)..&.[....
0410: FF 7F F8 FF FF 7F 68 61  69 30 1D 2B 80 23 03 01  ......hai0.+.#..
0420: 10 20 80 01 26 04 45 15  80 F0 FF FF 7F F0 FF FF  . ..&.E.........
0430: 7F 66 64 6F 30 14 80 55  15 80 F0 FF FF 7F F0 FF  .fdo0..U........
0440: FF 7F 66 64 6F 30 1A 73  04 B6 00 00 80 95 29 80  ..fdo0.s......).
0450: 80 F8 FF FF 7F 37 01 80  02 80 03 80 04 80 45 15  .....7........E.
0460: 80 F0 FF FF 7F F0 FF FF  7F 66 64 69 30 14 80 46  .........fdi0..F
0470: 00 21 00 92 00 1D 80 11  01 1A AD 0C 1A EA 04 1A  .!..............
0480: AE 05 1A 58 07 1A 85 09  1A 93 18 1A 93 09 1A 6F  ...X...........o
0490: 0A 1A A6 0A 1A C9 0A 1A  F5 0A 1A 95 0B 1A 1F 0C  ................
04A0: 1A 48 0C 1A 8E 0C 1A C6  08 AC 02 35 80 11 01 1B  .H.........5....
04B0: 92 00 1D 80 11 01 1A EA  04 1A AE 05 1A 58 07 1A  .............X..
04C0: 85 09 1A 93 18 1A 93 09  1A 6F 0A 1A A6 0A 1A C9  .........o......
04D0: 0A 1A F5 0A 1A 95 0B 1A  1F 0C 1A 48 0C 1A 8E 0C  ...........H....
04E0: 1A C6 08 AC 02 35 80 11  01 1B AC 02 09 80 11 01  .....5..........
04F0: 3E 00 11 14 80 01 05 27  80 09 80 11 01 02 01 08  >......'........
0500: 05 27 80 09 80 11 01 03  AC 02 0A 80 11 01 3E 00  .'............>.
0510: 11 21 80 1F 05 27 80 0A  80 11 01 02 01 26 05 27  .!...'.......&.'
0520: 80 0A 80 11 01 03 AC 02  0B 80 11 01 3E 00 11 27  ............>..'
0530: 80 3D 05 29 80 0B 80 11  01 02 01 44 05 29 80 0B  .=.).......D.)..
0540: 80 11 01 03 92 01 20 80  11 01 92 01 21 80 11 01  ...... .....!...
0550: 92 01 22 80 11 01 AC 02  20 80 11 01 3E 00 11 2C  .."..... ...>..,
0560: 80 6C 05 4E 00 20 80 11  01 01 72 05 4E 01 20 80  .l.N. ....r.N. .
0570: 11 01 AC 02 21 80 11 01  3E 00 11 2D 80 88 05 4E  ....!...>..-...N
0580: 00 21 80 11 01 01 8E 05  4E 01 21 80 11 01 AC 02  .!......N.!.....
0590: 22 80 11 01 3E 00 11 2E  80 A4 05 4E 00 22 80 11  "...>......N."..
05A0: 01 01 AA 05 4E 01 22 80  11 01 1C 21 80 1B AC 02  ....N."....!....
05B0: 0F 80 11 01 3E 00 11 29  80 C5 05 27 80 0F 80 11  ....>..)...'....
05C0: 01 02 01 CC 05 27 80 0F  80 11 01 03 AC 02 10 80  .....'..........
05D0: 11 01 3E 00 11 2A 80 E3  05 27 80 10 80 11 01 02  ..>..*...'......
05E0: 01 EA 05 27 80 10 80 11  01 03 AC 02 11 80 11 01  ...'............
05F0: 3E 00 11 2F 80 01 06 29  80 11 80 11 01 02 01 08  >../...)........
0600: 06 29 80 11 80 11 01 03  AC 02 1A 80 11 01 3E 01  .)............>.
0610: 11 30 80 1F 06 27 80 1A  80 11 01 02 01 26 06 27  .0...'.......&.'
0620: 80 1A 80 11 01 03 AC 02  1B 80 11 01 3E 01 11 16  ............>...
0630: 80 3D 06 29 80 1B 80 11  01 02 01 44 06 29 80 1B  .=.).......D.)..
0640: 80 11 01 03 AC 02 23 80  11 01 AC 02 24 80 11 01  ......#.....$...
0650: 3E 00 11 30 80 7C 06 3E  08 11 14 80 6D 06 4E 00  >..0.|.>....m.N.
0660: 24 80 11 01 4E 01 23 80  11 01 01 79 06 4E 00 23  $...N.#....y.N.#
0670: 80 11 01 4E 01 24 80 11  01 01 88 06 4E 01 23 80  ...N.$......N.#.
0680: 11 01 4E 01 24 80 11 01  AC 02 25 80 11 01 AC 02  ..N.$.....%.....
0690: 26 80 11 01 3E 00 11 16  80 C0 06 3E 08 11 21 80  &...>......>..!.
06A0: B1 06 4E 00 26 80 11 01  4E 01 25 80 11 01 01 BD  ..N.&...N.%.....
06B0: 06 4E 00 25 80 11 01 4E  01 26 80 11 01 01 CC 06  .N.%...N.&......
06C0: 4E 01 25 80 11 01 4E 01  26 80 11 01 AC 02 27 80  N.%...N.&.....'.
06D0: 11 01 AC 02 28 80 11 01  3E 00 11 31 80 04 07 3E  ....(...>..1...>
06E0: 08 11 27 80 F5 06 4E 00  28 80 11 01 4E 01 27 80  ..'...N.(...N.'.
06F0: 11 01 01 01 07 4E 00 27  80 11 01 4E 01 28 80 11  .....N.'...N.(..
0700: 01 01 10 07 4E 01 27 80  11 01 4E 01 28 80 11 01  ....N.'...N.(...
0710: AC 02 29 80 11 01 AC 02  2A 80 11 01 3E 00 11 32  ..).....*...>..2
0720: 80 48 07 3E 08 11 29 80  39 07 4E 00 2A 80 11 01  .H.>..).9.N.*...
0730: 4E 01 29 80 11 01 01 45  07 4E 00 29 80 11 01 4E  N.)....E.N.)...N
0740: 01 2A 80 11 01 01 54 07  4E 01 29 80 11 01 4E 01  .*....T.N.)...N.
0750: 2A 80 11 01 1C 21 80 1B  AC 02 12 80 11 01 3E 00  *....!........>.
0760: 11 33 80 6F 07 27 80 12  80 11 01 02 01 76 07 27  .3.o.'.......v.'
0770: 80 12 80 11 01 03 AC 02  13 80 11 01 3E 00 11 34  ............>..4
0780: 80 8D 07 27 80 13 80 11  01 02 01 94 07 27 80 13  ...'.........'..
0790: 80 11 01 03 AC 02 14 80  11 01 3E 00 11 25 80 AB  ..........>..%..
07A0: 07 29 80 14 80 11 01 02  01 B2 07 29 80 14 80 11  .).........)....
07B0: 01 03 AC 02 2B 80 11 01  AC 02 2C 80 11 01 3E 00  ....+.....,...>.
07C0: 11 35 80 EA 07 3E 08 11  2A 80 DB 07 4E 00 2C 80  .5...>..*...N.,.
07D0: 11 01 4E 01 2B 80 11 01  01 E7 07 4E 00 2B 80 11  ..N.+......N.+..
07E0: 01 4E 01 2C 80 11 01 01  F6 07 4E 01 2B 80 11 01  .N.,......N.+...
07F0: 4E 01 2C 80 11 01 AC 02  2D 80 11 01 AC 02 2E 80  N.,.....-.......
0800: 11 01 3E 00 11 17 80 2E  08 3E 08 11 2F 80 1F 08  ..>......>../...
0810: 4E 00 2E 80 11 01 4E 01  2D 80 11 01 01 2B 08 4E  N.....N.-....+.N
0820: 00 2D 80 11 01 4E 01 2E  80 11 01 01 3A 08 4E 01  .-...N......:.N.
0830: 2D 80 11 01 4E 01 2E 80  11 01 AC 02 2F 80 11 01  -...N......./...
0840: AC 02 30 80 11 01 3E 00  11 0A 80 72 08 3E 08 11  ..0...>....r.>..
0850: 33 80 63 08 4E 00 30 80  11 01 4E 01 2F 80 11 01  3.c.N.0...N./...
0860: 01 6F 08 4E 00 2F 80 11  01 4E 01 30 80 11 01 01  .o.N./...N.0....
0870: 7E 08 4E 01 2F 80 11 01  4E 01 30 80 11 01 AC 02  ~.N./...N.0.....
0880: 31 80 11 01 AC 02 32 80  11 01 3E 00 11 36 80 B6  1.....2...>..6..
0890: 08 3E 08 11 34 80 A7 08  4E 00 32 80 11 01 4E 01  .>..4...N.2...N.
08A0: 31 80 11 01 01 B3 08 4E  00 31 80 11 01 4E 01 32  1......N.1...N.2
08B0: 80 11 01 01 C2 08 4E 01  31 80 11 01 4E 01 32 80  ......N.1...N.2.
08C0: 11 01 1C 21 80 1B 92 01  35 80 11 01 AC 02 15 80  ...!....5.......
08D0: 11 01 3E 00 11 37 80 E3  08 27 80 15 80 11 01 02  ..>..7...'......
08E0: 01 EA 08 27 80 15 80 11  01 03 AC 02 16 80 11 01  ...'............
08F0: 3E 00 11 38 80 01 09 27  80 16 80 11 01 02 01 08  >..8...'........
0900: 09 27 80 16 80 11 01 03  AC 02 17 80 11 01 3E 00  .'............>.
0910: 11 39 80 1F 09 27 80 17  80 11 01 02 01 26 09 27  .9...'.......&.'
0920: 80 17 80 11 01 03 AC 02  18 80 11 01 3E 01 11 3A  ............>..:
0930: 80 3D 09 29 80 18 80 11  01 02 01 44 09 29 80 18  .=.).......D.)..
0940: 80 11 01 03 3E 01 11 31  80 54 09 60 02 69 30 6F  ....>..1.T.`.i0o
0950: 6E 01 54 09 3E 01 11 32  80 64 09 60 02 69 31 6F  n.T.>..2.d.`.i1o
0960: 6E 01 64 09 3E 01 11 35  80 74 09 60 02 69 32 6F  n.d.>..5.t.`.i2o
0970: 6E 01 74 09 3E 01 11 17  80 84 09 60 02 69 33 6F  n.t.>......`.i3o
0980: 6E 01 84 09 1B AC 02 35  80 11 01 29 08 35 80 11  n......5...).5..
0990: 01 04 1B 92 00 57 80 11  01 92 00 6A 80 11 01 92  .....W.....j....
09A0: 00 58 80 11 01 92 00 6B  80 11 01 92 00 59 80 11  .X.....k.....Y..
09B0: 01 92 00 6C 80 11 01 AC  02 57 80 11 01 3E 00 11  ...l.....W...>..
09C0: 3B 80 CE 09 27 08 57 80  11 01 02 01 D5 09 27 08  ;...'.W.......'.
09D0: 57 80 11 01 03 AC 02 6A  80 11 01 3E 00 11 3C 80  W......j...>..<.
09E0: EC 09 27 08 6A 80 11 01  02 01 F3 09 27 08 6A 80  ..'.j.......'.j.
09F0: 11 01 03 AC 02 58 80 11  01 3E 00 11 3D 80 0A 0A  .....X...>..=...
0A00: 29 08 58 80 11 01 02 01  11 0A 29 08 58 80 11 01  ).X.......).X...
0A10: 03 AC 02 6B 80 11 01 3E  00 11 3E 80 28 0A 27 08  ...k...>..>.(.'.
0A20: 6B 80 11 01 02 01 2F 0A  27 08 6B 80 11 01 03 AC  k...../.'.k.....
0A30: 02 59 80 11 01 3E 00 11  3F 80 46 0A 27 08 59 80  .Y...>..?.F.'.Y.
0A40: 11 01 02 01 4D 0A 27 08  59 80 11 01 03 AC 02 6C  ....M.'.Y......l
0A50: 80 11 01 3E 00 11 3A 80  64 0A 29 08 6C 80 11 01  ...>..:.d.).l...
0A60: 02 01 6B 0A 29 08 6C 80  11 01 03 1C 21 80 1B AC  ..k.).l.....!...
0A70: 02 36 80 11 01 3E 00 11  40 80 92 0A 2C 36 80 11  .6...>..@...,6..
0A80: 01 36 80 11 01 65 66 6F  6E B6 14 36 80 11 01 01  .6...efon..6....
0A90: A5 0A 2C 36 80 11 01 36  80 11 01 65 66 6F 66 B6  ..,6...6...efof.
0AA0: 15 36 80 11 01 1B 3E 01  11 14 80 BC 0A 4E 00 71  .6....>......N.q
0AB0: 80 11 01 AC 03 71 80 11  01 01 C8 0A AC 02 71 80  .....q........q.
0AC0: 11 01 4E 01 71 80 11 01  1B AC 02 72 80 11 01 3E  ..N.q......r...>
0AD0: 01 11 21 80 ED 0A 3E 01  11 29 80 E4 0A 29 08 72  ..!...>..)...).r
0AE0: 80 11 01 04 4E 00 72 80  11 01 01 F4 0A 29 08 72  ....N.r......).r
0AF0: 80 11 01 03 1B AC 02 8E  80 11 01 3E 01 11 36 80  ...........>..6.
0B00: 0B 0B 4E 00 8E 80 11 01  01 11 0B 4E 01 8E 80 11  ..N........N....
0B10: 01 1B AC 02 80 80 11 01  AC 02 81 80 11 01 AC 02  ................
0B20: 82 80 11 01 AC 02 83 80  11 01 AC 02 84 80 11 01  ................
0B30: 3E 01 11 2C 80 76 0B 4E  00 80 80 11 01 AC 03 80  >..,.v.N........
0B40: 80 11 01 4E 00 81 80 11  01 AC 03 81 80 11 01 4E  ...N...........N
0B50: 00 82 80 11 01 AC 03 82  80 11 01 4E 00 83 80 11  ...........N....
0B60: 01 AC 03 83 80 11 01 4E  00 84 80 11 01 AC 03 84  .......N........
0B70: 80 11 01 01 94 0B 4E 01  80 80 11 01 4E 01 81 80  ......N.....N...
0B80: 11 01 4E 01 82 80 11 01  4E 01 83 80 11 01 4E 01  ..N.....N.....N.
0B90: 84 80 11 01 1B AC 02 85  80 11 01 AC 02 86 80 11  ................
0BA0: 01 3E 01 11 2D 80 12 0C  13 01 00 27 80 02 01 00  .>..-......'....
0BB0: 27 80 02 B8 0B 06 01 00  02 01 00 14 80 80 D1 0B  '...............
0BC0: 29 08 85 80 11 01 02 29  08 86 80 11 01 02 01 03  )......)........
0BD0: 0C 02 01 00 21 80 80 EA  0B 29 08 85 80 11 01 03  ....!....)......
0BE0: 29 08 86 80 11 01 03 01  03 0C 02 01 00 27 80 80  )............'..
0BF0: 03 0C 29 08 85 80 11 01  04 29 08 86 80 11 01 04  ..)......)......
0C00: 01 03 0C 4E 00 85 80 11  01 4E 00 86 80 11 01 01  ...N.....N......
0C10: 1E 0C 4E 01 85 80 11 01  4E 01 86 80 11 01 1B AC  ..N.....N.......
0C20: 02 87 80 11 01 3E 01 11  2A 80 3B 0C 4E 00 87 80  .....>..*.;.N...
0C30: 11 01 AC 03 87 80 11 01  01 47 0C AC 02 87 80 11  .........G......
0C40: 01 4E 01 87 80 11 01 1B  AC 02 89 80 11 01 29 08  .N............).
0C50: 89 80 11 01 04 1B AC 02  8A 80 11 01 29 08 8A 80  ............)...
0C60: 11 01 04 1B AC 02 8B 80  11 01 29 08 8B 80 11 01  ..........).....
0C70: 04 1B AC 02 8C 80 11 01  29 08 8C 80 11 01 04 1B  ........).......
0C80: AC 02 8D 80 11 01 29 08  8D 80 11 01 04 1B AC 02  ......).........
0C90: 1C 80 11 01 3E 01 11 0A  80 A5 0C 29 80 1C 80 11  ....>......)....
0CA0: 01 02 01 AC 0C 29 80 1C  80 11 01 03 1B 03 01 10  .....)..........
0CB0: 21 80 43 00 43 01 03 02  00 02 10 03 08 11 03 10  !.C.C...........
0CC0: 03 01 11 04 10 03 0A 11  05 10 03 0B 11 06 10 03  ................
0CD0: 0C 11 07 10 03 01 10 39  80 43 00 43 01 03 02 11  .......9.C.C....
0CE0: 02 10 03 03 11 03 10 03  04 11 04 10 03 05 11 05  ................
0CF0: 10 03 06 11 06 10 03 07  11 07 10 03 09 11 08 10  ................
0D00: 41 14 80 29 80 02 00 01  00 1A FA 0E 41 2A 80 34  A..)........A*.4
0D10: 80 02 00 01 00 1A 02 11  41 25 80 39 80 02 00 01  ........A%.9....
0D20: 00 1A 92 13 41 3B 80 3E  80 02 00 01 00 1A E0 15  ....A;.>........
0D30: 41 31 80 35 80 02 00 01  00 1A 62 0D 41 26 80 26  A1.5......b.A&.&
0D40: 80 02 00 01 00 02 01 00  14 80 00 57 0D 3D 00 11  ...........W.=..
0D50: 40 80 21 80 01 5E 0D 3C  00 11 40 80 21 80 1A 7C  @.!..^.<..@.!..|
0D60: 0D 1B 02 01 00 29 80 04  74 0D 3C 01 11 0A 80 21  .....)..t.<....!
0D70: 80 01 7B 0D 3D 01 11 0A  80 21 80 1B 3E 08 11 25  ..{.=....!..>..%
0D80: 80 ED 0D 41 37 80 39 80  08 11 01 00 02 01 00 21  ...A7.9........!
0D90: 80 80 A5 0D 3D 00 11 3B  80 21 80 3C 00 11 3C 80  ....=..;.!.<..<.
0DA0: 21 80 01 EA 0D 02 01 00  2A 80 80 BE 0D 3C 00 11  !.......*....<..
0DB0: 3B 80 21 80 3D 00 11 3C  80 21 80 01 EA 0D 13 01  ;.!.=..<.!......
0DC0: 00 41 80 02 01 00 42 80  03 DC 0D 3D 00 11 3B 80  .A....B....=..;.
0DD0: 21 80 3C 00 11 3C 80 21  80 01 EA 0D 3C 00 11 3B  !.<..<.!....<..;
0DE0: 80 21 80 3D 00 11 3C 80  21 80 01 FB 0D 3D 00 11  .!.=..<.!....=..
0DF0: 3B 80 21 80 3D 00 11 3C  80 21 80 3E 08 11 3B 80  ;.!.=..<.!.>..;.
0E00: 6C 0E 41 3C 80 3E 80 08  11 01 00 02 01 00 21 80  l.A<.>........!.
0E10: 80 24 0E 3C 00 11 3D 80  21 80 3D 00 11 3E 80 21  .$.<..=.!.=..>.!
0E20: 80 01 69 0E 02 01 00 2F  80 80 3D 0E 3D 00 11 3D  ..i..../..=.=..=
0E30: 80 21 80 3C 00 11 3E 80  21 80 01 69 0E 13 01 00  .!.<..>.!..i....
0E40: 41 80 02 01 00 42 80 03  5B 0E 3C 00 11 3D 80 21  A....B..[.<..=.!
0E50: 80 3D 00 11 3E 80 21 80  01 69 0E 3D 00 11 3D 80  .=..>.!..i.=..=.
0E60: 21 80 3C 00 11 3E 80 21  80 01 7A 0E 3D 00 11 3D  !.<..>.!..z.=..=
0E70: 80 21 80 3D 00 11 3E 80  21 80 3E 08 11 3F 80 EB  .!.=..>.!.>..?..
0E80: 0E 41 3A 80 16 80 08 11  01 00 02 01 00 29 80 80  .A:..........)..
0E90: A3 0E 3C 00 11 3F 80 21  80 3D 00 11 3A 80 21 80  ..<..?.!.=..:.!.
0EA0: 01 E8 0E 02 01 00 27 80  80 BC 0E 3D 00 11 3F 80  ......'....=..?.
0EB0: 21 80 3C 00 11 3A 80 21  80 01 E8 0E 13 01 00 41  !.<..:.!.......A
0EC0: 80 02 01 00 42 80 03 DA  0E 3C 00 11 3F 80 21 80  ....B....<..?.!.
0ED0: 3D 00 11 3A 80 21 80 01  E8 0E 3D 00 11 3F 80 21  =..:.!....=..?.!
0EE0: 80 3C 00 11 3A 80 21 80  01 F9 0E 3D 00 11 3F 80  .<..:.!....=..?.
0EF0: 21 80 3D 00 11 3A 80 21  80 1B 02 01 00 14 80 80  !.=..:.!........
0F00: 2F 0F 3D 00 11 14 80 21  80 3C 00 11 21 80 21 80  /.=....!.<..!.!.
0F10: 3C 00 11 27 80 21 80 3C  00 11 2C 80 21 80 3D 00  <..'.!.<..,.!.=.
0F20: 11 2D 80 21 80 3D 00 11  2E 80 21 80 01 01 11 02  .-.!.=....!.....
0F30: 01 00 21 80 80 64 0F 3D  00 11 14 80 21 80 3C 00  ..!..d.=....!.<.
0F40: 11 21 80 21 80 3C 00 11  27 80 21 80 3C 00 11 2C  .!.!.<..'.!.<..,
0F50: 80 21 80 3D 00 11 2D 80  21 80 3D 00 11 2E 80 21  .!.=..-.!.=....!
0F60: 80 01 01 11 02 01 00 27  80 80 99 0F 3D 00 11 14  .......'....=...
0F70: 80 21 80 3C 00 11 21 80  21 80 3C 00 11 27 80 21  .!.<..!.!.<..'.!
0F80: 80 3C 00 11 2C 80 21 80  3D 00 11 2D 80 21 80 3D  .<..,.!.=..-.!.=
0F90: 00 11 2E 80 21 80 01 01  11 02 01 00 29 80 80 CE  ....!.......)...
0FA0: 0F 3D 00 11 14 80 21 80  3D 00 11 21 80 21 80 3C  .=....!.=..!.!.<
0FB0: 00 11 27 80 21 80 3C 00  11 2C 80 21 80 3C 00 11  ..'.!.<..,.!.<..
0FC0: 2D 80 21 80 3D 00 11 2E  80 21 80 01 01 11 02 01  -.!.=....!......
0FD0: 00 2A 80 80 03 10 3D 00  11 14 80 21 80 3D 00 11  .*....=....!.=..
0FE0: 21 80 21 80 3C 00 11 27  80 21 80 3C 00 11 2C 80  !.!.<..'.!.<..,.
0FF0: 21 80 3C 00 11 2D 80 21  80 3D 00 11 2E 80 21 80  !.<..-.!.=....!.
1000: 01 01 11 02 01 00 2F 80  80 38 10 3D 00 11 14 80  ....../..8.=....
1010: 21 80 3D 00 11 21 80 21  80 3D 00 11 27 80 21 80  !.=..!.!.=..'.!.
1020: 3C 00 11 2C 80 21 80 3C  00 11 2D 80 21 80 3C 00  <..,.!.<..-.!.<.
1030: 11 2E 80 21 80 01 01 11  02 01 00 33 80 80 6D 10  ...!.......3..m.
1040: 3D 00 11 14 80 21 80 3D  00 11 21 80 21 80 3D 00  =....!.=..!.!.=.
1050: 11 27 80 21 80 3C 00 11  2C 80 21 80 3C 00 11 2D  .'.!.<..,.!.<..-
1060: 80 21 80 3C 00 11 2E 80  21 80 01 01 11 02 01 00  .!.<....!.......
1070: 34 80 80 A2 10 3D 00 11  14 80 21 80 3D 00 11 21  4....=....!.=..!
1080: 80 21 80 3D 00 11 27 80  21 80 3C 00 11 2C 80 21  .!.=..'.!.<..,.!
1090: 80 3C 00 11 2D 80 21 80  3C 00 11 2E 80 21 80 01  .<..-.!.<....!..
10A0: 01 11 02 01 00 25 80 80  D7 10 3D 00 11 14 80 21  .....%....=....!
10B0: 80 3D 00 11 21 80 21 80  3D 00 11 27 80 21 80 3C  .=..!.!.=..'.!.<
10C0: 00 11 2C 80 21 80 3C 00  11 2D 80 21 80 3C 00 11  ..,.!.<..-.!.<..
10D0: 2E 80 21 80 01 01 11 3D  00 11 14 80 21 80 3C 00  ..!....=....!.<.
10E0: 11 21 80 21 80 3C 00 11  27 80 21 80 3C 00 11 2C  .!.!.<..'.!.<..,
10F0: 80 21 80 3D 00 11 2D 80  21 80 3D 00 11 2E 80 21  .!.=..-.!.=....!
1100: 80 1B 02 01 00 14 80 80  4C 11 3C 00 11 29 80 21  ........L.<..).!
1110: 80 3C 00 11 2A 80 21 80  3C 00 11 2F 80 21 80 3C  .<..*.!.<../.!.<
1120: 01 11 30 80 21 80 3C 01  11 16 80 21 80 3C 00 11  ..0.!.<....!.<..
1130: 30 80 21 80 3D 00 11 16  80 21 80 3D 00 11 31 80  0.!.=....!.=..1.
1140: 21 80 3D 00 11 32 80 21  80 01 91 13 02 01 00 21  !.=..2.!.......!
1150: 80 80 96 11 3C 00 11 29  80 21 80 3C 00 11 2A 80  ....<..).!.<..*.
1160: 21 80 3C 00 11 2F 80 21  80 3C 01 11 30 80 21 80  !.<../.!.<..0.!.
1170: 3C 01 11 16 80 21 80 3C  00 11 30 80 21 80 3D 00  <....!.<..0.!.=.
1180: 11 16 80 21 80 3D 00 11  31 80 21 80 3D 00 11 32  ...!.=..1.!.=..2
1190: 80 21 80 01 91 13 02 01  00 27 80 80 E0 11 3C 00  .!.......'....<.
11A0: 11 29 80 21 80 3C 00 11  2A 80 21 80 3C 00 11 2F  .).!.<..*.!.<../
11B0: 80 21 80 3C 01 11 30 80  21 80 3C 01 11 16 80 21  .!.<..0.!.<....!
11C0: 80 3C 00 11 30 80 21 80  3D 00 11 16 80 21 80 3D  .<..0.!.=....!.=
11D0: 00 11 31 80 21 80 3D 00  11 32 80 21 80 01 91 13  ..1.!.=..2.!....
11E0: 02 01 00 29 80 80 2A 12  3D 00 11 29 80 21 80 3C  ...)..*.=..).!.<
11F0: 00 11 2A 80 21 80 3C 00  11 2F 80 21 80 3D 01 11  ..*.!.<../.!.=..
1200: 30 80 21 80 3C 01 11 16  80 21 80 3C 00 11 30 80  0.!.<....!.<..0.
1210: 21 80 3C 00 11 16 80 21  80 3D 00 11 31 80 21 80  !.<....!.=..1.!.
1220: 3D 00 11 32 80 21 80 01  91 13 02 01 00 2A 80 80  =..2.!.......*..
1230: 74 12 3D 00 11 29 80 21  80 3C 00 11 2A 80 21 80  t.=..).!.<..*.!.
1240: 3C 00 11 2F 80 21 80 3D  01 11 30 80 21 80 3C 01  <../.!.=..0.!.<.
1250: 11 16 80 21 80 3C 00 11  30 80 21 80 3C 00 11 16  ...!.<..0.!.<...
1260: 80 21 80 3D 00 11 31 80  21 80 3D 00 11 32 80 21  .!.=..1.!.=..2.!
1270: 80 01 91 13 02 01 00 2F  80 80 BE 12 3D 00 11 29  ......./....=..)
1280: 80 21 80 3D 00 11 2A 80  21 80 3C 00 11 2F 80 21  .!.=..*.!.<../.!
1290: 80 3D 01 11 30 80 21 80  3D 01 11 16 80 21 80 3C  .=..0.!.=....!.<
12A0: 00 11 30 80 21 80 3C 00  11 16 80 21 80 3C 00 11  ..0.!.<....!.<..
12B0: 31 80 21 80 3D 00 11 32  80 21 80 01 91 13 02 01  1.!.=..2.!......
12C0: 00 33 80 80 08 13 3D 00  11 29 80 21 80 3D 00 11  .3....=..).!.=..
12D0: 2A 80 21 80 3C 00 11 2F  80 21 80 3D 01 11 30 80  *.!.<../.!.=..0.
12E0: 21 80 3D 01 11 16 80 21  80 3C 00 11 30 80 21 80  !.=....!.<..0.!.
12F0: 3C 00 11 16 80 21 80 3C  00 11 31 80 21 80 3D 00  <....!.<..1.!.=.
1300: 11 32 80 21 80 01 91 13  02 01 00 34 80 80 52 13  .2.!.......4..R.
1310: 3D 00 11 29 80 21 80 3D  00 11 2A 80 21 80 3D 00  =..).!.=..*.!.=.
1320: 11 2F 80 21 80 3D 01 11  30 80 21 80 3D 01 11 16  ./.!.=..0.!.=...
1330: 80 21 80 3C 00 11 30 80  21 80 3C 00 11 16 80 21  .!.<..0.!.<....!
1340: 80 3C 00 11 31 80 21 80  3C 00 11 32 80 21 80 01  .<..1.!.<..2.!..
1350: 91 13 3C 00 11 29 80 21  80 3C 00 11 2A 80 21 80  ..<..).!.<..*.!.
1360: 3C 00 11 2F 80 21 80 3C  01 11 30 80 21 80 3C 01  <../.!.<..0.!.<.
1370: 11 16 80 21 80 3C 00 11  30 80 21 80 3D 00 11 16  ...!.<..0.!.=...
1380: 80 21 80 3D 00 11 31 80  21 80 3D 00 11 32 80 21  .!.=..1.!.=..2.!
1390: 80 1B 02 01 00 14 80 80  CE 13 3D 00 11 33 80 21  ..........=..3.!
13A0: 80 3D 00 11 34 80 21 80  3D 00 11 25 80 21 80 3C  .=..4.!.=..%.!.<
13B0: 00 11 35 80 21 80 3D 00  11 17 80 21 80 3D 00 11  ..5.!.=....!.=..
13C0: 0A 80 21 80 3D 00 11 36  80 21 80 01 DF 15 02 01  ..!.=..6.!......
13D0: 00 21 80 80 0A 14 3D 00  11 33 80 21 80 3D 00 11  .!....=..3.!.=..
13E0: 34 80 21 80 3D 00 11 25  80 21 80 3C 00 11 35 80  4.!.=..%.!.<..5.
13F0: 21 80 3D 00 11 17 80 21  80 3D 00 11 0A 80 21 80  !.=....!.=....!.
1400: 3D 00 11 36 80 21 80 01  DF 15 02 01 00 27 80 80  =..6.!.......'..
1410: 46 14 3D 00 11 33 80 21  80 3D 00 11 34 80 21 80  F.=..3.!.=..4.!.
1420: 3D 00 11 25 80 21 80 3C  00 11 35 80 21 80 3D 00  =..%.!.<..5.!.=.
1430: 11 17 80 21 80 3D 00 11  0A 80 21 80 3D 00 11 36  ...!.=....!.=..6
1440: 80 21 80 01 DF 15 02 01  00 29 80 80 82 14 3C 00  .!.......)....<.
1450: 11 33 80 21 80 3D 00 11  34 80 21 80 3D 00 11 25  .3.!.=..4.!.=..%
1460: 80 21 80 3C 00 11 35 80  21 80 3C 00 11 17 80 21  .!.<..5.!.<....!
1470: 80 3D 00 11 0A 80 21 80  3D 00 11 36 80 21 80 01  .=....!.=..6.!..
1480: DF 15 02 01 00 2A 80 80  BE 14 3C 00 11 33 80 21  .....*....<..3.!
1490: 80 3D 00 11 34 80 21 80  3D 00 11 25 80 21 80 3C  .=..4.!.=..%.!.<
14A0: 00 11 35 80 21 80 3C 00  11 17 80 21 80 3D 00 11  ..5.!.<....!.=..
14B0: 0A 80 21 80 3D 00 11 36  80 21 80 01 DF 15 02 01  ..!.=..6.!......
14C0: 00 2F 80 80 FA 14 3C 00  11 33 80 21 80 3C 00 11  ./....<..3.!.<..
14D0: 34 80 21 80 3D 00 11 25  80 21 80 3C 00 11 35 80  4.!.=..%.!.<..5.
14E0: 21 80 3C 00 11 17 80 21  80 3C 00 11 0A 80 21 80  !.<....!.<....!.
14F0: 3D 00 11 36 80 21 80 01  DF 15 02 01 00 33 80 80  =..6.!.......3..
1500: 36 15 3C 00 11 33 80 21  80 3C 00 11 34 80 21 80  6.<..3.!.<..4.!.
1510: 3D 00 11 25 80 21 80 3C  00 11 35 80 21 80 3C 00  =..%.!.<..5.!.<.
1520: 11 17 80 21 80 3C 00 11  0A 80 21 80 3D 00 11 36  ...!.<....!.=..6
1530: 80 21 80 01 DF 15 02 01  00 34 80 80 72 15 3C 00  .!.......4..r.<.
1540: 11 33 80 21 80 3C 00 11  34 80 21 80 3C 00 11 25  .3.!.<..4.!.<..%
1550: 80 21 80 3C 00 11 35 80  21 80 3C 00 11 17 80 21  .!.<..5.!.<....!
1560: 80 3C 00 11 0A 80 21 80  3C 00 11 36 80 21 80 01  .<....!.<..6.!..
1570: DF 15 02 01 00 25 80 80  AE 15 3C 00 11 33 80 21  .....%....<..3.!
1580: 80 3C 00 11 34 80 21 80  3C 00 11 25 80 21 80 3C  .<..4.!.<..%.!.<
1590: 00 11 35 80 21 80 3C 00  11 17 80 21 80 3C 00 11  ..5.!.<....!.<..
15A0: 0A 80 21 80 3C 00 11 36  80 21 80 01 DF 15 3D 00  ..!.<..6.!....=.
15B0: 11 33 80 21 80 3D 00 11  34 80 21 80 3D 00 11 25  .3.!.=..4.!.=..%
15C0: 80 21 80 3C 00 11 35 80  21 80 3D 00 11 17 80 21  .!.<..5.!.=....!
15D0: 80 3D 00 11 0A 80 21 80  3D 00 11 36 80 21 80 1B  .=....!.=..6.!..
15E0: 02 01 00 14 80 80 23 16  3D 00 11 37 80 21 80 3D  ......#.=..7.!.=
15F0: 00 11 38 80 21 80 3D 00  11 39 80 21 80 3D 01 11  ..8.!.=..9.!.=..
1600: 3A 80 21 80 3C 01 11 31  80 21 80 3D 01 11 32 80  :.!.<..1.!.=..2.
1610: 21 80 3D 01 11 35 80 21  80 3D 01 11 17 80 21 80  !.=..5.!.=....!.
1620: 01 30 18 02 01 00 21 80  80 66 16 3D 00 11 37 80  .0....!..f.=..7.
1630: 21 80 3D 00 11 38 80 21  80 3D 00 11 39 80 21 80  !.=..8.!.=..9.!.
1640: 3D 01 11 3A 80 21 80 3C  01 11 31 80 21 80 3D 01  =..:.!.<..1.!.=.
1650: 11 32 80 21 80 3D 01 11  35 80 21 80 3D 01 11 17  .2.!.=..5.!.=...
1660: 80 21 80 01 30 18 02 01  00 27 80 80 A9 16 3D 00  .!..0....'....=.
1670: 11 37 80 21 80 3D 00 11  38 80 21 80 3D 00 11 39  .7.!.=..8.!.=..9
1680: 80 21 80 3D 01 11 3A 80  21 80 3C 01 11 31 80 21  .!.=..:.!.<..1.!
1690: 80 3D 01 11 32 80 21 80  3D 01 11 35 80 21 80 3D  .=..2.!.=..5.!.=
16A0: 01 11 17 80 21 80 01 30  18 02 01 00 29 80 80 EC  ....!..0....)...
16B0: 16 3C 00 11 37 80 21 80  3D 00 11 38 80 21 80 3D  .<..7.!.=..8.!.=
16C0: 00 11 39 80 21 80 3D 01  11 3A 80 21 80 3D 01 11  ..9.!.=..:.!.=..
16D0: 31 80 21 80 3C 01 11 32  80 21 80 3D 01 11 35 80  1.!.<..2.!.=..5.
16E0: 21 80 3D 01 11 17 80 21  80 01 30 18 02 01 00 2A  !.=....!..0....*
16F0: 80 80 2F 17 3C 00 11 37  80 21 80 3D 00 11 38 80  ../.<..7.!.=..8.
1700: 21 80 3D 00 11 39 80 21  80 3D 01 11 3A 80 21 80  !.=..9.!.=..:.!.
1710: 3D 01 11 31 80 21 80 3C  01 11 32 80 21 80 3D 01  =..1.!.<..2.!.=.
1720: 11 35 80 21 80 3D 01 11  17 80 21 80 01 30 18 02  .5.!.=....!..0..
1730: 01 00 2F 80 80 72 17 3C  00 11 37 80 21 80 3C 00  ../..r.<..7.!.<.
1740: 11 38 80 21 80 3D 00 11  39 80 21 80 3D 01 11 3A  .8.!.=..9.!.=..:
1750: 80 21 80 3D 01 11 31 80  21 80 3D 01 11 32 80 21  .!.=..1.!.=..2.!
1760: 80 3C 01 11 35 80 21 80  3D 01 11 17 80 21 80 01  .<..5.!.=....!..
1770: 30 18 02 01 00 33 80 80  B5 17 3C 00 11 37 80 21  0....3....<..7.!
1780: 80 3C 00 11 38 80 21 80  3D 00 11 39 80 21 80 3D  .<..8.!.=..9.!.=
1790: 01 11 3A 80 21 80 3D 01  11 31 80 21 80 3D 01 11  ..:.!.=..1.!.=..
17A0: 32 80 21 80 3C 01 11 35  80 21 80 3D 01 11 17 80  2.!.<..5.!.=....
17B0: 21 80 01 30 18 02 01 00  34 80 80 F8 17 3C 00 11  !..0....4....<..
17C0: 37 80 21 80 3C 00 11 38  80 21 80 3C 00 11 39 80  7.!.<..8.!.<..9.
17D0: 21 80 3C 01 11 3A 80 21  80 3D 01 11 31 80 21 80  !.<..:.!.=..1.!.
17E0: 3D 01 11 32 80 21 80 3D  01 11 35 80 21 80 3C 01  =..2.!.=..5.!.<.
17F0: 11 17 80 21 80 01 30 18  3D 00 11 37 80 21 80 3D  ...!..0.=..7.!.=
1800: 00 11 38 80 21 80 3D 00  11 39 80 21 80 3D 01 11  ..8.!.=..9.!.=..
1810: 3A 80 21 80 3C 01 11 31  80 21 80 3D 01 11 32 80  :.!.<..1.!.=..2.
1820: 21 80 3D 01 11 35 80 21  80 3D 01 11 17 80 21 80  !.=..5.!.=....!.
1830: 1B 03 01 10 39 80 43 00  43 01 03 02 11 02 10 03  ....9.C.C.......
1840: 03 11 03 10 03 04 11 04  10 03 05 11 05 10 03 06  ................
1850: 11 06 10 03 07 11 07 10  03 09 11 08 10 1B 03 01  ................
1860: 10 43 80 47 00 44 80 45  80 46 80 47 80 47 01 03  .C.G.D.E.F.G.G..
1870: 02 11 02 10 03 03 11 03  10 03 04 11 04 10 03 05  ................
1880: 11 05 10 03 06 11 06 10  03 07 11 07 10 03 09 11  ................
1890: 08 10 1B 2F 00 37 80 11  01 2F 00 38 80 11 01 2F  .../.7.../.8.../
18A0: 00 39 80 11 01 2F 00 3A  80 11 01 2F 00 3B 80 11  .9.../.:.../.;..
18B0: 01 2F 00 3C 80 11 01 2F  00 3D 80 11 01 2F 00 3E  ./.<.../.=.../.>
18C0: 80 11 01 2F 00 3F 80 11  01 2F 00 40 80 11 01 2F  .../.?.../.@.../
18D0: 00 41 80 11 01 2F 00 42  80 11 01 2F 00 43 80 11  .A.../.B.../.C..
18E0: 01 2F 00 44 80 11 01 2F  00 45 80 11 01 2F 00 46  ./.D.../.E.../.F
18F0: 80 11 01 2F 00 47 80 11  01 2F 00 48 80 11 01 2F  .../.G.../.H.../
1900: 00 49 80 11 01 2F 00 4A  80 11 01 2F 00 4B 80 11  .I.../.J.../.K..
1910: 01 2F 00 4C 80 11 01 2F  00 4D 80 11 01 2F 00 4E  ./.L.../.M.../.N
1920: 80 11 01 AC 02 37 80 11  01 AC 02 38 80 11 01 AC  .....7.....8....
1930: 02 39 80 11 01 AC 02 3A  80 11 01 AC 02 3B 80 11  .9.....:.....;..
1940: 01 AC 02 3C 80 11 01 AC  02 3D 80 11 01 AC 02 3E  ...<.....=.....>
1950: 80 11 01 AC 02 3F 80 11  01 AC 02 40 80 11 01 AC  .....?.....@....
1960: 02 41 80 11 01 AC 02 42  80 11 01 AC 02 43 80 11  .A.....B.....C..
1970: 01 AC 02 44 80 11 01 AC  02 45 80 11 01 AC 02 46  ...D.....E.....F
1980: 80 11 01 AC 02 47 80 11  01 AC 02 48 80 11 01 AC  .....G.....H....
1990: 02 49 80 11 01 AC 02 4A  80 11 01 AC 02 4B 80 11  .I.....J.....K..
19A0: 01 AC 02 4C 80 11 01 AC  02 4D 80 11 01 AC 02 4E  ...L.....M.....N
19B0: 80 11 01 AC 02 0C 80 11  01 AC 02 0D 80 11 01 AC  ................
19C0: 02 0E 80 11 01 41 14 80  21 80 02 11 02 10 02 02  .....A..!.......
19D0: 10 21 80 00 E0 19 29 80  0C 80 11 01 03 01 E7 19  .!....).........
19E0: 29 80 0C 80 11 01 02 41  14 80 21 80 03 11 02 10  )......A..!.....
19F0: 02 02 10 21 80 00 02 1A  29 80 0D 80 11 01 03 01  ...!....).......
1A00: 09 1A 29 80 0D 80 11 01  02 41 14 80 21 80 04 11  ..)......A..!...
1A10: 02 10 02 02 10 21 80 00  24 1A 29 80 0E 80 11 01  .....!..$.).....
1A20: 03 01 2B 1A 29 80 0E 80  11 01 02 27 80 37 80 11  ..+.)......'.7..
1A30: 01 02 27 80 38 80 11 01  02 27 80 39 80 11 01 02  ..'.8....'.9....
1A40: 29 80 3A 80 11 01 02 27  80 3B 80 11 01 02 27 80  ).:....'.;....'.
1A50: 3C 80 11 01 02 27 80 3D  80 11 01 02 29 80 3E 80  <....'.=....).>.
1A60: 11 01 02 27 80 3F 80 11  01 02 27 80 40 80 11 01  ...'.?....'.@...
1A70: 02 27 80 41 80 11 01 02  29 80 42 80 11 01 02 27  .'.A....).B....'
1A80: 80 43 80 11 01 02 27 80  44 80 11 01 02 27 80 45  .C....'.D....'.E
1A90: 80 11 01 02 29 80 46 80  11 01 02 27 80 47 80 11  ....).F....'.G..
1AA0: 01 02 27 80 48 80 11 01  02 27 80 49 80 11 01 02  ..'.H....'.I....
1AB0: 29 80 4A 80 11 01 02 27  80 4B 80 11 01 02 27 80  ).J....'.K....'.
1AC0: 4C 80 11 01 02 27 80 4D  80 11 01 02 29 80 4E 80  L....'.M....).N.
1AD0: 11 01 02 1B 42 45 15 80  F0 FF FF 7F F0 FF FF 7F  ....BE..........
1AE0: 66 64 6F 30 14 80 55 15  80 F0 FF FF 7F F0 FF FF  fdo0..U.........
1AF0: 7F 66 64 6F 30 1A 5E 18  1A 73 04 45 15 80 F0 FF  .fdo0.^..s.E....
1B00: FF 7F F0 FF FF 7F 66 64  69 30 14 80 55 15 80 F0  ......fdi0..U...
1B10: FF FF 7F F0 FF FF 7F 66  64 69 30 1B 42 45 15 80  .......fdi0.BE..
1B20: F0 FF FF 7F F0 FF FF 7F  66 64 6F 30 14 80 55 15  ........fdo0..U.
1B30: 80 F0 FF FF 7F F0 FF FF  7F 66 64 6F 30 03 01 10  .........fdo0...
1B40: 48 80 47 00 49 80 4A 80  4B 80 4C 80 47 01 02 02  H.G.I.J.K.L.G...
1B50: 10 14 80 00 6B 1B 1A AD  0C 1A 56 0C 1A 64 0C 1A  ....k.....V..d..
1B60: 72 0C 1A 80 0C 1A 12 0B  01 6B 1B 45 15 80 F0 FF  r........k.E....
1B70: FF 7F F0 FF FF 7F 66 64  69 30 14 80 55 15 80 F0  ......fdi0..U...
1B80: FF FF 7F F0 FF FF 7F 66  64 69 30 1B 1A F5 1B 02  .......fdi0.....
1B90: 01 00 14 80 01 98 1B 1B  3C 00 11 02 10 21 80 1A  ........<....!..
1BA0: 73 04 1B 1A F5 1B 02 01  00 14 80 01 AF 1B 1B 3D  s..............=
1BB0: 00 11 02 10 21 80 1A 73  04 1B 03 01 00 02 10 03  ....!..s........
1BC0: 01 10 27 80 40 25 80 26  80 01 10 02 10 02 02 00  ..'.@%.&........
1BD0: 14 80 00 DF 1B 3C 01 10  26 80 21 80 01 E6 1B 3D  .....<..&.!....=
1BE0: 01 10 26 80 21 80 43 00  43 01 03 00 11 02 10 03  ..&.!.C.C.......
1BF0: 01 00 14 80 1B 02 02 10  14 80 03 06 1C 03 01 00  ................
1C00: 4D 80 1B 01 1C 1C 02 02  10 26 80 02 17 1C 03 01  M........&......
1C10: 00 4D 80 1B 01 1C 1C 03  01 00 14 80 1B 02 10 03  .M..............
1C20: 10 04 10 05 10 06 10 07  10 08 10 09 10 00 17 01  ................
1C30: 17 02 17 03 17 04 17 05  17 06 17 07 17 08 17 09  ................
1C40: 17 0A 17 0B 17 0C 17 0D  17 0E 17 0F 17 10 17 11  ................
1C50: 17 12 17 13 17 14 17 15  17 16 17 17 17 18 17 19  ................
1C60: 17 1A 17 1B 17 1C 17 1D  17 1E 17 1F 17 14 80 14  ................
1C70: 80 14 80 14 80 14 80 14  80 14 80 14 80           .............   
```

#### Opcodes

```
  0: 0x023A [0x42] SET_CLI_EVENT_CANCEL_DATA()
  1: 0x023B [0x46] CAMERA_CONTROL: Disable user control
  2: 0x023D [0x45] LOAD_SCHEDULED_TASK: Load scheduler "fdo0" with entities [LocalPlayer, LocalPlayer], work=[200*, 0*]
  3: 0x024E [0x55] WAIT_LOAD_SCHEDULER: Wait for scheduler "fdo0" with entities [LocalPlayer, LocalPlayer], work=200*
  4: 0x025D [0x29] REQ_SET_WAIT(priority=0x08, entity_id=LocalPlayer, tag_num=0x1C)
  5: 0x0264 [0xB6] ENTITY_APPEARANCE_HANDLER(case=Hair style, value=2726*)
  6: 0x0268 [0x95] SETUP_EVENT_NPC: Prepare NPC for event (Render.Flags3 = 0*)
  7: 0x026B [0x80] LOAD_WAIT(entity=EventEntity)
  8: 0x0270 [0x2C] CREATE_SCHEDULER_TASK: Create scheduler "w0of" with entities [EventEntity, EventEntity]
  9: 0x027D [0x92] EventEntity->Render.Flags3 ^= 0x01
 10: 0x0283 [0x4A] Kuyin Hathdenna (ID: 17924183/0x01118057) looks at LocalPlayer
 11: 0x028C [0x6F] WAIT_FRAME_DELAY: Yield until WaitTime reaches zero
 12: 0x028D [0x76] CHECK_ENTITY_RENDER_FLAGS: Wait until Kuyin Hathdenna (ID: 17924183/0x01118057) Render.Flags0 and Render.Flags3 conditions are met
 13: 0x0292 [0x45] LOAD_SCHEDULED_TASK: Load scheduler "s560" with entities [LocalPlayer, LocalPlayer], work=[23*, 0*]
 14: 0x02A3 [0x45] LOAD_SCHEDULED_TASK: Load scheduler "fdi0" with entities [LocalPlayer, LocalPlayer], work=[200*, 0*]
 15: 0x02B4 [0x1D] PRINT_EVENT_MESSAGE(message_id=7409*)
    → "You called, remeowned pioneer?"
 16: 0x02B7 [0x23] WAIT_FOR_DIALOG_INTERACTION
 17: 0x02B8 [0x1D] PRINT_EVENT_MESSAGE(message_id=7410*)
    → "By the way, I'm working my tail off [here/keeping crrrops growing in the furrows/here/here/trrrying to catch stuff in the pond/here]!"
 18: 0x02BB [0x23] WAIT_FOR_DIALOG_INTERACTION
 19: 0x02BC [0x24] CREATE_DIALOG(message_id=7411*, default_option=0*, option_flags=0*)
    → "What will you ask of her? [To let me pet her./To help with the furrows./To help with the pond./Nothing.]"
 20: 0x02C3 [0x25] WAIT_DIALOG_SELECT()
 21: 0x02C4 [0x02] IF !(Work_Zone[0] == 0*) GOTO 0x02E7
 22: 0x02CC [0x5B] LOAD_EXT_SCHEDULER: Load scheduler "tlk0" with entities [EventEntity, EventEntity], work=3316*
 23: 0x02DB [0x1D] PRINT_EVENT_MESSAGE(message_id=7412*)
    → "Thanks for making me feel grrreat about myself!"
 24: 0x02DE [0x23] WAIT_FOR_DIALOG_INTERACTION
 25: 0x02DF [0x03] Work_Zone[1] = 1073741824*
 26: 0x02E4 [0x01] GOTO 0x0426
 27: 0x02E7 [0x02] IF !(Work_Zone[0] == 1*) GOTO 0x035D
 28: 0x02EF [0x24] CREATE_DIALOG(message_id=7413*, default_option=0*, option_flags=0*)
    → "Have her help how? [Harvest a lot of crops./Look for seeds./Do a different favor.]"
 29: 0x02F6 [0x25] WAIT_DIALOG_SELECT()
 30: 0x02F7 [0x02] IF !(Work_Zone[0] == 0*) GOTO 0x0327
 31: 0x02FF [0x5B] LOAD_EXT_SCHEDULER: Load scheduler "hai0" with entities [EventEntity, EventEntity], work=3316*
 32: 0x030E [0x1D] PRINT_EVENT_MESSAGE(message_id=7415*)
    → "Thanks! Meow I know what to do!"
 33: 0x0311 [0x23] WAIT_FOR_DIALOG_INTERACTION
 34: 0x0312 [0x03] Work_Zone[1] = 38*
 35: 0x0317 [0x40] SET_BIT_WORK_RANGE(start_bit=8*, end_bit=31*, target=Work_Zone[1], source=0*)
 36: 0x0320 [0x43] SEND_EVENT_UPDATE: Send pending tag to server (packet 0x005B)
 37: 0x0322 [0x43] SEND_EVENT_UPDATE: Check pending flag (skip if not pending)
 38: 0x0324 [0x01] GOTO 0x035A
 39: 0x0327 [0x02] IF !(Work_Zone[0] == 1*) GOTO 0x0357
 40: 0x032F [0x5B] LOAD_EXT_SCHEDULER: Load scheduler "hai0" with entities [EventEntity, EventEntity], work=3316*
 41: 0x033E [0x1D] PRINT_EVENT_MESSAGE(message_id=7415*)
    → "Thanks! Meow I know what to do!"
 42: 0x0341 [0x23] WAIT_FOR_DIALOG_INTERACTION
 43: 0x0342 [0x03] Work_Zone[1] = 38*
 44: 0x0347 [0x40] SET_BIT_WORK_RANGE(start_bit=8*, end_bit=31*, target=Work_Zone[1], source=1*)
 45: 0x0350 [0x43] SEND_EVENT_UPDATE: Send pending tag to server (packet 0x005B)
 46: 0x0352 [0x43] SEND_EVENT_UPDATE: Check pending flag (skip if not pending)
 47: 0x0354 [0x01] GOTO 0x035A
 48: 0x0357 [0x01] GOTO 0x02BC

SUBROUTINE_035A:
 49: 0x035A [0x01] GOTO 0x0426
 50: 0x035D [0x02] IF !(Work_Zone[0] == 2*) GOTO 0x0403
 51: 0x0365 [0x24] CREATE_DIALOG(message_id=7414*, default_option=0*, option_flags=0*)
    → "Have her help how? [Catch something./Go after a whopper./Aim for a minnow./Do a different favor.]"
 52: 0x036C [0x25] WAIT_DIALOG_SELECT()
 53: 0x036D [0x02] IF !(Work_Zone[0] == 0*) GOTO 0x039D
 54: 0x0375 [0x5B] LOAD_EXT_SCHEDULER: Load scheduler "hai0" with entities [EventEntity, EventEntity], work=3316*
 55: 0x0384 [0x1D] PRINT_EVENT_MESSAGE(message_id=7415*)
    → "Thanks! Meow I know what to do!"
 56: 0x0387 [0x23] WAIT_FOR_DIALOG_INTERACTION
 57: 0x0388 [0x03] Work_Zone[1] = 38*
 58: 0x038D [0x40] SET_BIT_WORK_RANGE(start_bit=8*, end_bit=31*, target=Work_Zone[1], source=2*)
 59: 0x0396 [0x43] SEND_EVENT_UPDATE: Send pending tag to server (packet 0x005B)
 60: 0x0398 [0x43] SEND_EVENT_UPDATE: Check pending flag (skip if not pending)
 61: 0x039A [0x01] GOTO 0x0400
 62: 0x039D [0x02] IF !(Work_Zone[0] == 1*) GOTO 0x03CD
 63: 0x03A5 [0x5B] LOAD_EXT_SCHEDULER: Load scheduler "hai0" with entities [EventEntity, EventEntity], work=3316*
 64: 0x03B4 [0x1D] PRINT_EVENT_MESSAGE(message_id=7415*)
    → "Thanks! Meow I know what to do!"
 65: 0x03B7 [0x23] WAIT_FOR_DIALOG_INTERACTION
 66: 0x03B8 [0x03] Work_Zone[1] = 38*
 67: 0x03BD [0x40] SET_BIT_WORK_RANGE(start_bit=8*, end_bit=31*, target=Work_Zone[1], source=3*)
 68: 0x03C6 [0x43] SEND_EVENT_UPDATE: Send pending tag to server (packet 0x005B)
 69: 0x03C8 [0x43] SEND_EVENT_UPDATE: Check pending flag (skip if not pending)
 70: 0x03CA [0x01] GOTO 0x0400
 71: 0x03CD [0x02] IF !(Work_Zone[0] == 2*) GOTO 0x03FD
 72: 0x03D5 [0x5B] LOAD_EXT_SCHEDULER: Load scheduler "hai0" with entities [EventEntity, EventEntity], work=3316*
 73: 0x03E4 [0x1D] PRINT_EVENT_MESSAGE(message_id=7415*)
    → "Thanks! Meow I know what to do!"
 74: 0x03E7 [0x23] WAIT_FOR_DIALOG_INTERACTION
 75: 0x03E8 [0x03] Work_Zone[1] = 38*
 76: 0x03ED [0x40] SET_BIT_WORK_RANGE(start_bit=8*, end_bit=31*, target=Work_Zone[1], source=4*)
 77: 0x03F6 [0x43] SEND_EVENT_UPDATE: Send pending tag to server (packet 0x005B)
 78: 0x03F8 [0x43] SEND_EVENT_UPDATE: Check pending flag (skip if not pending)
 79: 0x03FA [0x01] GOTO 0x0400
 80: 0x03FD [0x01] GOTO 0x02BC

SUBROUTINE_0400:
 81: 0x0400 [0x01] GOTO 0x0426
 82: 0x0403 [0x02] IF !(Work_Zone[0] == 3*) GOTO 0x0426
 83: 0x040B [0x5B] LOAD_EXT_SCHEDULER: Load scheduler "hai0" with entities [EventEntity, EventEntity], work=3316*
 84: 0x041A [0x1D] PRINT_EVENT_MESSAGE(message_id=7416*)
    → "If you don't have any instrrructions for me, I guess I'll keep working!"
 85: 0x041D [0x23] WAIT_FOR_DIALOG_INTERACTION
 86: 0x041E [0x03] Work_Zone[1] = 1073741824*
 87: 0x0423 [0x01] GOTO 0x0426

SUBROUTINE_0426:
 88: 0x0426 [0x45] LOAD_SCHEDULED_TASK: Load scheduler "fdo0" with entities [LocalPlayer, LocalPlayer], work=[200*, 0*]
 89: 0x0437 [0x55] WAIT_LOAD_SCHEDULER: Wait for scheduler "fdo0" with entities [LocalPlayer, LocalPlayer], work=200*
 90: 0x0446 [0x1A] CALL_SUBROUTINE(address=0x0473)
 91: 0x0449 [0xB6] ENTITY_APPEARANCE_HANDLER(case=Hair style, value=2727*)
 92: 0x044D [0x95] SETUP_EVENT_NPC: Prepare NPC for event (Render.Flags3 = 3*)
 93: 0x0450 [0x80] LOAD_WAIT(entity=EventEntity)
 94: 0x0455 [0x37] UPDATE_EVENT_POSITION_AND_DIR: x=-5.474*, z=9.302*, y=0.315*, direction=272.2°*
 95: 0x045E [0x45] LOAD_SCHEDULED_TASK: Load scheduler "fdi0" with entities [LocalPlayer, LocalPlayer], work=[200*, 0*]
 96: 0x046F [0x46] CAMERA_CONTROL: Restore default settings
 97: 0x0471 [0x21] END_EVENT
 98: 0x0472 [0x00] END_REQSTACK()

SUBROUTINE_0473:
 99: 0x0473 [0x92] Green Thumb Moogle (ID: 17924125/0x0111801D)->Render.Flags3 = Flags3  // No change (flag=0)
100: 0x0479 [0x1A] CALL_SUBROUTINE(address=0x0CAD)
101: 0x047C [0x1A] CALL_SUBROUTINE(address=0x04EA)
102: 0x047F [0x1A] CALL_SUBROUTINE(address=0x05AE)
103: 0x0482 [0x1A] CALL_SUBROUTINE(address=0x0758)
104: 0x0485 [0x1A] CALL_SUBROUTINE(address=0x0985)
105: 0x0488 [0x1A] CALL_SUBROUTINE(address=0x1893)
106: 0x048B [0x1A] CALL_SUBROUTINE(address=0x0993)
107: 0x048E [0x1A] CALL_SUBROUTINE(address=0x0A6F)
108: 0x0491 [0x1A] CALL_SUBROUTINE(address=0x0AA6)
109: 0x0494 [0x1A] CALL_SUBROUTINE(address=0x0AC9)
110: 0x0497 [0x1A] CALL_SUBROUTINE(address=0x0AF5)
111: 0x049A [0x1A] CALL_SUBROUTINE(address=0x0B95)
112: 0x049D [0x1A] CALL_SUBROUTINE(address=0x0C1F)
113: 0x04A0 [0x1A] CALL_SUBROUTINE(address=0x0C48)
114: 0x04A3 [0x1A] CALL_SUBROUTINE(address=0x0C8E)
115: 0x04A6 [0x1A] CALL_SUBROUTINE(address=0x08C6)
116: 0x04A9 [0xAC] Coastal Fishing Net (ID: 17924149/0x01118035)->Render.Flags6 |= 0x02 // Set bit 1
117: 0x04AF [0x1B] RETURN

SUBROUTINE_04EA:
118: 0x04EA [0xAC] Unknown NPC (ID: 17924105/0x01118009)->Render.Flags6 |= 0x02 // Set bit 1
119: 0x04F0 [0x3E] IF !(Work_Zone_Memorize[0] bit 0*) GOTO 0x0501
120: 0x04F7 [0x27] REQ_SET(priority=0x80, entity_id=Unknown NPC (ID: 17924105/0x01118009), tag_num=0x02)
121: 0x04FE [0x01] GOTO 0x0508
122: 0x0501 [0x27] REQ_SET(priority=0x80, entity_id=Unknown NPC (ID: 17924105/0x01118009), tag_num=0x03)

SUBROUTINE_0508:
123: 0x0508 [0xAC] Unknown NPC (ID: 17924106/0x0111800A)->Render.Flags6 |= 0x02 // Set bit 1
124: 0x050E [0x3E] IF !(Work_Zone_Memorize[0] bit 1*) GOTO 0x051F
125: 0x0515 [0x27] REQ_SET(priority=0x80, entity_id=Unknown NPC (ID: 17924106/0x0111800A), tag_num=0x02)
126: 0x051C [0x01] GOTO 0x0526
127: 0x051F [0x27] REQ_SET(priority=0x80, entity_id=Unknown NPC (ID: 17924106/0x0111800A), tag_num=0x03)

SUBROUTINE_0526:
128: 0x0526 [0xAC] Unknown NPC (ID: 17924107/0x0111800B)->Render.Flags6 |= 0x02 // Set bit 1
129: 0x052C [0x3E] IF !(Work_Zone_Memorize[0] bit 2*) GOTO 0x053D
130: 0x0533 [0x29] REQ_SET_WAIT(priority=0x80, entity_id=Unknown NPC (ID: 17924107/0x0111800B), tag_num=0x02)
131: 0x053A [0x01] GOTO 0x0544
132: 0x053D [0x29] REQ_SET_WAIT(priority=0x80, entity_id=Unknown NPC (ID: 17924107/0x0111800B), tag_num=0x03)

SUBROUTINE_0544:
133: 0x0544 [0x92] Garden Furrow (ID: 17924128/0x01118020)->Render.Flags3 ^= 0x01
134: 0x054A [0x92] Garden Furrow #2 (ID: 17924129/0x01118021)->Render.Flags3 ^= 0x01
135: 0x0550 [0x92] Garden Furrow #3 (ID: 17924130/0x01118022)->Render.Flags3 ^= 0x01
136: 0x0556 [0xAC] Garden Furrow (ID: 17924128/0x01118020)->Render.Flags6 |= 0x02 // Set bit 1
137: 0x055C [0x3E] IF !(Work_Zone_Memorize[0] bit 26*) GOTO 0x056C
138: 0x0563 [0x4E] SET_ENTITY_HIDE_FLAG: Show Garden Furrow (ID: 17924128/0x01118020)
139: 0x0569 [0x01] GOTO 0x0572
140: 0x056C [0x4E] SET_ENTITY_HIDE_FLAG: Hide Garden Furrow (ID: 17924128/0x01118020)

SUBROUTINE_0572:
141: 0x0572 [0xAC] Garden Furrow #2 (ID: 17924129/0x01118021)->Render.Flags6 |= 0x02 // Set bit 1
142: 0x0578 [0x3E] IF !(Work_Zone_Memorize[0] bit 27*) GOTO 0x0588
143: 0x057F [0x4E] SET_ENTITY_HIDE_FLAG: Show Garden Furrow #2 (ID: 17924129/0x01118021)
144: 0x0585 [0x01] GOTO 0x058E
145: 0x0588 [0x4E] SET_ENTITY_HIDE_FLAG: Hide Garden Furrow #2 (ID: 17924129/0x01118021)

SUBROUTINE_058E:
146: 0x058E [0xAC] Garden Furrow #3 (ID: 17924130/0x01118022)->Render.Flags6 |= 0x02 // Set bit 1
147: 0x0594 [0x3E] IF !(Work_Zone_Memorize[0] bit 28*) GOTO 0x05A4
148: 0x059B [0x4E] SET_ENTITY_HIDE_FLAG: Show Garden Furrow #3 (ID: 17924130/0x01118022)
149: 0x05A1 [0x01] GOTO 0x05AA
150: 0x05A4 [0x4E] SET_ENTITY_HIDE_FLAG: Hide Garden Furrow #3 (ID: 17924130/0x01118022)

SUBROUTINE_05AA:
151: 0x05AA [0x1C] WAIT(1* ticks)
152: 0x05AD [0x1B] RETURN

SUBROUTINE_05AE:
153: 0x05AE [0xAC] Unknown NPC (ID: 17924111/0x0111800F)->Render.Flags6 |= 0x02 // Set bit 1
154: 0x05B4 [0x3E] IF !(Work_Zone_Memorize[0] bit 3*) GOTO 0x05C5
155: 0x05BB [0x27] REQ_SET(priority=0x80, entity_id=Unknown NPC (ID: 17924111/0x0111800F), tag_num=0x02)
156: 0x05C2 [0x01] GOTO 0x05CC
157: 0x05C5 [0x27] REQ_SET(priority=0x80, entity_id=Unknown NPC (ID: 17924111/0x0111800F), tag_num=0x03)

SUBROUTINE_05CC:
158: 0x05CC [0xAC] Unknown NPC (ID: 17924112/0x01118010)->Render.Flags6 |= 0x02 // Set bit 1
159: 0x05D2 [0x3E] IF !(Work_Zone_Memorize[0] bit 4*) GOTO 0x05E3
160: 0x05D9 [0x27] REQ_SET(priority=0x80, entity_id=Unknown NPC (ID: 17924112/0x01118010), tag_num=0x02)
161: 0x05E0 [0x01] GOTO 0x05EA
162: 0x05E3 [0x27] REQ_SET(priority=0x80, entity_id=Unknown NPC (ID: 17924112/0x01118010), tag_num=0x03)

SUBROUTINE_05EA:
163: 0x05EA [0xAC] Unknown NPC (ID: 17924113/0x01118011)->Render.Flags6 |= 0x02 // Set bit 1
164: 0x05F0 [0x3E] IF !(Work_Zone_Memorize[0] bit 5*) GOTO 0x0601
165: 0x05F7 [0x29] REQ_SET_WAIT(priority=0x80, entity_id=Unknown NPC (ID: 17924113/0x01118011), tag_num=0x02)
166: 0x05FE [0x01] GOTO 0x0608
167: 0x0601 [0x29] REQ_SET_WAIT(priority=0x80, entity_id=Unknown NPC (ID: 17924113/0x01118011), tag_num=0x03)

SUBROUTINE_0608:
168: 0x0608 [0xAC] Unknown NPC (ID: 17924122/0x0111801A)->Render.Flags6 |= 0x02 // Set bit 1
169: 0x060E [0x3E] IF !(Work_Zone_Memorize[1] bit 18*) GOTO 0x061F
170: 0x0615 [0x27] REQ_SET(priority=0x80, entity_id=Unknown NPC (ID: 17924122/0x0111801A), tag_num=0x02)
171: 0x061C [0x01] GOTO 0x0626
172: 0x061F [0x27] REQ_SET(priority=0x80, entity_id=Unknown NPC (ID: 17924122/0x0111801A), tag_num=0x03)

SUBROUTINE_0626:
173: 0x0626 [0xAC] Unknown NPC (ID: 17924123/0x0111801B)->Render.Flags6 |= 0x02 // Set bit 1
174: 0x062C [0x3E] IF !(Work_Zone_Memorize[1] bit 19*) GOTO 0x063D
175: 0x0633 [0x29] REQ_SET_WAIT(priority=0x80, entity_id=Unknown NPC (ID: 17924123/0x0111801B), tag_num=0x02)
176: 0x063A [0x01] GOTO 0x0644
177: 0x063D [0x29] REQ_SET_WAIT(priority=0x80, entity_id=Unknown NPC (ID: 17924123/0x0111801B), tag_num=0x03)

SUBROUTINE_0644:
178: 0x0644 [0xAC] Arboreal Grove (ID: 17924131/0x01118023)->Render.Flags6 |= 0x02 // Set bit 1
179: 0x064A [0xAC] Arboreal Grove (ID: 17924132/0x01118024)->Render.Flags6 |= 0x02 // Set bit 1
180: 0x0650 [0x3E] IF !(Work_Zone_Memorize[0] bit 18*) GOTO 0x067C
181: 0x0657 [0x3E] IF !(Work_Zone_Memorize[8] bit 0*) GOTO 0x066D
182: 0x065E [0x4E] SET_ENTITY_HIDE_FLAG: Show Arboreal Grove (ID: 17924132/0x01118024)
183: 0x0664 [0x4E] SET_ENTITY_HIDE_FLAG: Hide Arboreal Grove (ID: 17924131/0x01118023)
184: 0x066A [0x01] GOTO 0x0679
185: 0x066D [0x4E] SET_ENTITY_HIDE_FLAG: Show Arboreal Grove (ID: 17924131/0x01118023)
186: 0x0673 [0x4E] SET_ENTITY_HIDE_FLAG: Hide Arboreal Grove (ID: 17924132/0x01118024)

SUBROUTINE_0679:
187: 0x0679 [0x01] GOTO 0x0688
188: 0x067C [0x4E] SET_ENTITY_HIDE_FLAG: Hide Arboreal Grove (ID: 17924131/0x01118023)
189: 0x0682 [0x4E] SET_ENTITY_HIDE_FLAG: Hide Arboreal Grove (ID: 17924132/0x01118024)

SUBROUTINE_0688:
190: 0x0688 [0xAC] Arboreal Grove #2 (ID: 17924133/0x01118025)->Render.Flags6 |= 0x02 // Set bit 1
191: 0x068E [0xAC] Arboreal Grove #2 (ID: 17924134/0x01118026)->Render.Flags6 |= 0x02 // Set bit 1
192: 0x0694 [0x3E] IF !(Work_Zone_Memorize[0] bit 19*) GOTO 0x06C0
193: 0x069B [0x3E] IF !(Work_Zone_Memorize[8] bit 1*) GOTO 0x06B1
194: 0x06A2 [0x4E] SET_ENTITY_HIDE_FLAG: Show Arboreal Grove #2 (ID: 17924134/0x01118026)
195: 0x06A8 [0x4E] SET_ENTITY_HIDE_FLAG: Hide Arboreal Grove #2 (ID: 17924133/0x01118025)
196: 0x06AE [0x01] GOTO 0x06BD
197: 0x06B1 [0x4E] SET_ENTITY_HIDE_FLAG: Show Arboreal Grove #2 (ID: 17924133/0x01118025)
198: 0x06B7 [0x4E] SET_ENTITY_HIDE_FLAG: Hide Arboreal Grove #2 (ID: 17924134/0x01118026)

SUBROUTINE_06BD:
199: 0x06BD [0x01] GOTO 0x06CC
200: 0x06C0 [0x4E] SET_ENTITY_HIDE_FLAG: Hide Arboreal Grove #2 (ID: 17924133/0x01118025)
201: 0x06C6 [0x4E] SET_ENTITY_HIDE_FLAG: Hide Arboreal Grove #2 (ID: 17924134/0x01118026)

SUBROUTINE_06CC:
202: 0x06CC [0xAC] Arboreal Grove #3 (ID: 17924135/0x01118027)->Render.Flags6 |= 0x02 // Set bit 1
203: 0x06D2 [0xAC] Arboreal Grove #3 (ID: 17924136/0x01118028)->Render.Flags6 |= 0x02 // Set bit 1
204: 0x06D8 [0x3E] IF !(Work_Zone_Memorize[0] bit 20*) GOTO 0x0704
205: 0x06DF [0x3E] IF !(Work_Zone_Memorize[8] bit 2*) GOTO 0x06F5
206: 0x06E6 [0x4E] SET_ENTITY_HIDE_FLAG: Show Arboreal Grove #3 (ID: 17924136/0x01118028)
207: 0x06EC [0x4E] SET_ENTITY_HIDE_FLAG: Hide Arboreal Grove #3 (ID: 17924135/0x01118027)
208: 0x06F2 [0x01] GOTO 0x0701
209: 0x06F5 [0x4E] SET_ENTITY_HIDE_FLAG: Show Arboreal Grove #3 (ID: 17924135/0x01118027)
210: 0x06FB [0x4E] SET_ENTITY_HIDE_FLAG: Hide Arboreal Grove #3 (ID: 17924136/0x01118028)

SUBROUTINE_0701:
211: 0x0701 [0x01] GOTO 0x0710
212: 0x0704 [0x4E] SET_ENTITY_HIDE_FLAG: Hide Arboreal Grove #3 (ID: 17924135/0x01118027)
213: 0x070A [0x4E] SET_ENTITY_HIDE_FLAG: Hide Arboreal Grove #3 (ID: 17924136/0x01118028)

SUBROUTINE_0710:
214: 0x0710 [0xAC] Arboreal Grove #4 (ID: 17924137/0x01118029)->Render.Flags6 |= 0x02 // Set bit 1
215: 0x0716 [0xAC] Arboreal Grove #4 (ID: 17924138/0x0111802A)->Render.Flags6 |= 0x02 // Set bit 1
216: 0x071C [0x3E] IF !(Work_Zone_Memorize[0] bit 21*) GOTO 0x0748
217: 0x0723 [0x3E] IF !(Work_Zone_Memorize[8] bit 3*) GOTO 0x0739
218: 0x072A [0x4E] SET_ENTITY_HIDE_FLAG: Show Arboreal Grove #4 (ID: 17924138/0x0111802A)
219: 0x0730 [0x4E] SET_ENTITY_HIDE_FLAG: Hide Arboreal Grove #4 (ID: 17924137/0x01118029)
220: 0x0736 [0x01] GOTO 0x0745
221: 0x0739 [0x4E] SET_ENTITY_HIDE_FLAG: Show Arboreal Grove #4 (ID: 17924137/0x01118029)
222: 0x073F [0x4E] SET_ENTITY_HIDE_FLAG: Hide Arboreal Grove #4 (ID: 17924138/0x0111802A)

SUBROUTINE_0745:
223: 0x0745 [0x01] GOTO 0x0754
224: 0x0748 [0x4E] SET_ENTITY_HIDE_FLAG: Hide Arboreal Grove #4 (ID: 17924137/0x01118029)
225: 0x074E [0x4E] SET_ENTITY_HIDE_FLAG: Hide Arboreal Grove #4 (ID: 17924138/0x0111802A)

SUBROUTINE_0754:
226: 0x0754 [0x1C] WAIT(1* ticks)
227: 0x0757 [0x1B] RETURN

SUBROUTINE_0758:
228: 0x0758 [0xAC] Unknown NPC (ID: 17924114/0x01118012)->Render.Flags6 |= 0x02 // Set bit 1
229: 0x075E [0x3E] IF !(Work_Zone_Memorize[0] bit 6*) GOTO 0x076F
230: 0x0765 [0x27] REQ_SET(priority=0x80, entity_id=Unknown NPC (ID: 17924114/0x01118012), tag_num=0x02)
231: 0x076C [0x01] GOTO 0x0776
232: 0x076F [0x27] REQ_SET(priority=0x80, entity_id=Unknown NPC (ID: 17924114/0x01118012), tag_num=0x03)

SUBROUTINE_0776:
233: 0x0776 [0xAC] Unknown NPC (ID: 17924115/0x01118013)->Render.Flags6 |= 0x02 // Set bit 1
234: 0x077C [0x3E] IF !(Work_Zone_Memorize[0] bit 7*) GOTO 0x078D
235: 0x0783 [0x27] REQ_SET(priority=0x80, entity_id=Unknown NPC (ID: 17924115/0x01118013), tag_num=0x02)
236: 0x078A [0x01] GOTO 0x0794
237: 0x078D [0x27] REQ_SET(priority=0x80, entity_id=Unknown NPC (ID: 17924115/0x01118013), tag_num=0x03)

SUBROUTINE_0794:
238: 0x0794 [0xAC] Unknown NPC (ID: 17924116/0x01118014)->Render.Flags6 |= 0x02 // Set bit 1
239: 0x079A [0x3E] IF !(Work_Zone_Memorize[0] bit 8*) GOTO 0x07AB
240: 0x07A1 [0x29] REQ_SET_WAIT(priority=0x80, entity_id=Unknown NPC (ID: 17924116/0x01118014), tag_num=0x02)
241: 0x07A8 [0x01] GOTO 0x07B2
242: 0x07AB [0x29] REQ_SET_WAIT(priority=0x80, entity_id=Unknown NPC (ID: 17924116/0x01118014), tag_num=0x03)

SUBROUTINE_07B2:
243: 0x07B2 [0xAC] Mineral Vein (ID: 17924139/0x0111802B)->Render.Flags6 |= 0x02 // Set bit 1
244: 0x07B8 [0xAC] Mineral Vein (ID: 17924140/0x0111802C)->Render.Flags6 |= 0x02 // Set bit 1
245: 0x07BE [0x3E] IF !(Work_Zone_Memorize[0] bit 22*) GOTO 0x07EA
246: 0x07C5 [0x3E] IF !(Work_Zone_Memorize[8] bit 4*) GOTO 0x07DB
247: 0x07CC [0x4E] SET_ENTITY_HIDE_FLAG: Show Mineral Vein (ID: 17924140/0x0111802C)
248: 0x07D2 [0x4E] SET_ENTITY_HIDE_FLAG: Hide Mineral Vein (ID: 17924139/0x0111802B)
249: 0x07D8 [0x01] GOTO 0x07E7
250: 0x07DB [0x4E] SET_ENTITY_HIDE_FLAG: Show Mineral Vein (ID: 17924139/0x0111802B)
251: 0x07E1 [0x4E] SET_ENTITY_HIDE_FLAG: Hide Mineral Vein (ID: 17924140/0x0111802C)

SUBROUTINE_07E7:
252: 0x07E7 [0x01] GOTO 0x07F6
253: 0x07EA [0x4E] SET_ENTITY_HIDE_FLAG: Hide Mineral Vein (ID: 17924139/0x0111802B)
254: 0x07F0 [0x4E] SET_ENTITY_HIDE_FLAG: Hide Mineral Vein (ID: 17924140/0x0111802C)

SUBROUTINE_07F6:
255: 0x07F6 [0xAC] Mineral Vein #2 (ID: 17924141/0x0111802D)->Render.Flags6 |= 0x02 // Set bit 1
256: 0x07FC [0xAC] Mineral Vein #2 (ID: 17924142/0x0111802E)->Render.Flags6 |= 0x02 // Set bit 1
257: 0x0802 [0x3E] IF !(Work_Zone_Memorize[0] bit 23*) GOTO 0x082E
258: 0x0809 [0x3E] IF !(Work_Zone_Memorize[8] bit 5*) GOTO 0x081F
259: 0x0810 [0x4E] SET_ENTITY_HIDE_FLAG: Show Mineral Vein #2 (ID: 17924142/0x0111802E)
260: 0x0816 [0x4E] SET_ENTITY_HIDE_FLAG: Hide Mineral Vein #2 (ID: 17924141/0x0111802D)
261: 0x081C [0x01] GOTO 0x082B
262: 0x081F [0x4E] SET_ENTITY_HIDE_FLAG: Show Mineral Vein #2 (ID: 17924141/0x0111802D)
263: 0x0825 [0x4E] SET_ENTITY_HIDE_FLAG: Hide Mineral Vein #2 (ID: 17924142/0x0111802E)

SUBROUTINE_082B:
264: 0x082B [0x01] GOTO 0x083A
265: 0x082E [0x4E] SET_ENTITY_HIDE_FLAG: Hide Mineral Vein #2 (ID: 17924141/0x0111802D)
266: 0x0834 [0x4E] SET_ENTITY_HIDE_FLAG: Hide Mineral Vein #2 (ID: 17924142/0x0111802E)

SUBROUTINE_083A:
267: 0x083A [0xAC] Mineral Vein #3 (ID: 17924143/0x0111802F)->Render.Flags6 |= 0x02 // Set bit 1
268: 0x0840 [0xAC] Mineral Vein #3 (ID: 17924144/0x01118030)->Render.Flags6 |= 0x02 // Set bit 1
269: 0x0846 [0x3E] IF !(Work_Zone_Memorize[0] bit 24*) GOTO 0x0872
270: 0x084D [0x3E] IF !(Work_Zone_Memorize[8] bit 6*) GOTO 0x0863
271: 0x0854 [0x4E] SET_ENTITY_HIDE_FLAG: Show Mineral Vein #3 (ID: 17924144/0x01118030)
272: 0x085A [0x4E] SET_ENTITY_HIDE_FLAG: Hide Mineral Vein #3 (ID: 17924143/0x0111802F)
273: 0x0860 [0x01] GOTO 0x086F
274: 0x0863 [0x4E] SET_ENTITY_HIDE_FLAG: Show Mineral Vein #3 (ID: 17924143/0x0111802F)
275: 0x0869 [0x4E] SET_ENTITY_HIDE_FLAG: Hide Mineral Vein #3 (ID: 17924144/0x01118030)

SUBROUTINE_086F:
276: 0x086F [0x01] GOTO 0x087E
277: 0x0872 [0x4E] SET_ENTITY_HIDE_FLAG: Hide Mineral Vein #3 (ID: 17924143/0x0111802F)
278: 0x0878 [0x4E] SET_ENTITY_HIDE_FLAG: Hide Mineral Vein #3 (ID: 17924144/0x01118030)

SUBROUTINE_087E:
279: 0x087E [0xAC] Mineral Vein #4 (ID: 17924145/0x01118031)->Render.Flags6 |= 0x02 // Set bit 1
280: 0x0884 [0xAC] Mineral Vein #4 (ID: 17924146/0x01118032)->Render.Flags6 |= 0x02 // Set bit 1
281: 0x088A [0x3E] IF !(Work_Zone_Memorize[0] bit 25*) GOTO 0x08B6
282: 0x0891 [0x3E] IF !(Work_Zone_Memorize[8] bit 7*) GOTO 0x08A7
283: 0x0898 [0x4E] SET_ENTITY_HIDE_FLAG: Show Mineral Vein #4 (ID: 17924146/0x01118032)
284: 0x089E [0x4E] SET_ENTITY_HIDE_FLAG: Hide Mineral Vein #4 (ID: 17924145/0x01118031)
285: 0x08A4 [0x01] GOTO 0x08B3
286: 0x08A7 [0x4E] SET_ENTITY_HIDE_FLAG: Show Mineral Vein #4 (ID: 17924145/0x01118031)
287: 0x08AD [0x4E] SET_ENTITY_HIDE_FLAG: Hide Mineral Vein #4 (ID: 17924146/0x01118032)

SUBROUTINE_08B3:
288: 0x08B3 [0x01] GOTO 0x08C2
289: 0x08B6 [0x4E] SET_ENTITY_HIDE_FLAG: Hide Mineral Vein #4 (ID: 17924145/0x01118031)
290: 0x08BC [0x4E] SET_ENTITY_HIDE_FLAG: Hide Mineral Vein #4 (ID: 17924146/0x01118032)

SUBROUTINE_08C2:
291: 0x08C2 [0x1C] WAIT(1* ticks)
292: 0x08C5 [0x1B] RETURN

SUBROUTINE_08C6:
293: 0x08C6 [0x92] Coastal Fishing Net (ID: 17924149/0x01118035)->Render.Flags3 ^= 0x01
294: 0x08CC [0xAC] Unknown NPC (ID: 17924117/0x01118015)->Render.Flags6 |= 0x02 // Set bit 1
295: 0x08D2 [0x3E] IF !(Work_Zone_Memorize[0] bit 9*) GOTO 0x08E3
296: 0x08D9 [0x27] REQ_SET(priority=0x80, entity_id=Unknown NPC (ID: 17924117/0x01118015), tag_num=0x02)
297: 0x08E0 [0x01] GOTO 0x08EA
298: 0x08E3 [0x27] REQ_SET(priority=0x80, entity_id=Unknown NPC (ID: 17924117/0x01118015), tag_num=0x03)

SUBROUTINE_08EA:
299: 0x08EA [0xAC] Unknown NPC (ID: 17924118/0x01118016)->Render.Flags6 |= 0x02 // Set bit 1
300: 0x08F0 [0x3E] IF !(Work_Zone_Memorize[0] bit 10*) GOTO 0x0901
301: 0x08F7 [0x27] REQ_SET(priority=0x80, entity_id=Unknown NPC (ID: 17924118/0x01118016), tag_num=0x02)
302: 0x08FE [0x01] GOTO 0x0908
303: 0x0901 [0x27] REQ_SET(priority=0x80, entity_id=Unknown NPC (ID: 17924118/0x01118016), tag_num=0x03)

SUBROUTINE_0908:
304: 0x0908 [0xAC] Unknown NPC (ID: 17924119/0x01118017)->Render.Flags6 |= 0x02 // Set bit 1
305: 0x090E [0x3E] IF !(Work_Zone_Memorize[0] bit 11*) GOTO 0x091F
306: 0x0915 [0x27] REQ_SET(priority=0x80, entity_id=Unknown NPC (ID: 17924119/0x01118017), tag_num=0x02)
307: 0x091C [0x01] GOTO 0x0926
308: 0x091F [0x27] REQ_SET(priority=0x80, entity_id=Unknown NPC (ID: 17924119/0x01118017), tag_num=0x03)

SUBROUTINE_0926:
309: 0x0926 [0xAC] Unknown NPC (ID: 17924120/0x01118018)->Render.Flags6 |= 0x02 // Set bit 1
310: 0x092C [0x3E] IF !(Work_Zone_Memorize[1] bit 17*) GOTO 0x093D
311: 0x0933 [0x29] REQ_SET_WAIT(priority=0x80, entity_id=Unknown NPC (ID: 17924120/0x01118018), tag_num=0x02)
312: 0x093A [0x01] GOTO 0x0944
313: 0x093D [0x29] REQ_SET_WAIT(priority=0x80, entity_id=Unknown NPC (ID: 17924120/0x01118018), tag_num=0x03)

SUBROUTINE_0944:
314: 0x0944 [0x3E] IF !(Work_Zone_Memorize[1] bit 20*) GOTO 0x0954
315: 0x094B [0x60] ZONE_SET_ACTION: Set zone action with param 0x6E6F3069
316: 0x0951 [0x01] GOTO 0x0954

SUBROUTINE_0954:
317: 0x0954 [0x3E] IF !(Work_Zone_Memorize[1] bit 21*) GOTO 0x0964
318: 0x095B [0x60] ZONE_SET_ACTION: Set zone action with param 0x6E6F3169
319: 0x0961 [0x01] GOTO 0x0964

SUBROUTINE_0964:
320: 0x0964 [0x3E] IF !(Work_Zone_Memorize[1] bit 22*) GOTO 0x0974
321: 0x096B [0x60] ZONE_SET_ACTION: Set zone action with param 0x6E6F3269
322: 0x0971 [0x01] GOTO 0x0974

SUBROUTINE_0974:
323: 0x0974 [0x3E] IF !(Work_Zone_Memorize[1] bit 23*) GOTO 0x0984
324: 0x097B [0x60] ZONE_SET_ACTION: Set zone action with param 0x6E6F3369
325: 0x0981 [0x01] GOTO 0x0984

SUBROUTINE_0984:
326: 0x0984 [0x1B] RETURN

SUBROUTINE_0985:
327: 0x0985 [0xAC] Coastal Fishing Net (ID: 17924149/0x01118035)->Render.Flags6 |= 0x02 // Set bit 1
328: 0x098B [0x29] REQ_SET_WAIT(priority=0x08, entity_id=Coastal Fishing Net (ID: 17924149/0x01118035), tag_num=0x04)
329: 0x0992 [0x1B] RETURN

SUBROUTINE_0993:
330: 0x0993 [0x92] Kuyin Hathdenna (ID: 17924183/0x01118057)->Render.Flags3 = Flags3  // No change (flag=0)
331: 0x0999 [0x92] Kuyin Hathdenna (ID: 17924202/0x0111806A)->Render.Flags3 = Flags3  // No change (flag=0)
332: 0x099F [0x92] Susuroon (ID: 17924184/0x01118058)->Render.Flags3 = Flags3  // No change (flag=0)
333: 0x09A5 [0x92] Susuroon (ID: 17924203/0x0111806B)->Render.Flags3 = Flags3  // No change (flag=0)
334: 0x09AB [0x92] Yeestog (ID: 17924185/0x01118059)->Render.Flags3 = Flags3  // No change (flag=0)
335: 0x09B1 [0x92] Yeestog (ID: 17924204/0x0111806C)->Render.Flags3 = Flags3  // No change (flag=0)
336: 0x09B7 [0xAC] Kuyin Hathdenna (ID: 17924183/0x01118057)->Render.Flags6 |= 0x02 // Set bit 1
337: 0x09BD [0x3E] IF !(Work_Zone_Memorize[0] bit 12*) GOTO 0x09CE
338: 0x09C4 [0x27] REQ_SET(priority=0x08, entity_id=Kuyin Hathdenna (ID: 17924183/0x01118057), tag_num=0x02)
339: 0x09CB [0x01] GOTO 0x09D5
340: 0x09CE [0x27] REQ_SET(priority=0x08, entity_id=Kuyin Hathdenna (ID: 17924183/0x01118057), tag_num=0x03)

SUBROUTINE_09D5:
341: 0x09D5 [0xAC] Kuyin Hathdenna (ID: 17924202/0x0111806A)->Render.Flags6 |= 0x02 // Set bit 1
342: 0x09DB [0x3E] IF !(Work_Zone_Memorize[0] bit 13*) GOTO 0x09EC
343: 0x09E2 [0x27] REQ_SET(priority=0x08, entity_id=Kuyin Hathdenna (ID: 17924202/0x0111806A), tag_num=0x02)
344: 0x09E9 [0x01] GOTO 0x09F3
345: 0x09EC [0x27] REQ_SET(priority=0x08, entity_id=Kuyin Hathdenna (ID: 17924202/0x0111806A), tag_num=0x03)

SUBROUTINE_09F3:
346: 0x09F3 [0xAC] Susuroon (ID: 17924184/0x01118058)->Render.Flags6 |= 0x02 // Set bit 1
347: 0x09F9 [0x3E] IF !(Work_Zone_Memorize[0] bit 14*) GOTO 0x0A0A
348: 0x0A00 [0x29] REQ_SET_WAIT(priority=0x08, entity_id=Susuroon (ID: 17924184/0x01118058), tag_num=0x02)
349: 0x0A07 [0x01] GOTO 0x0A11
350: 0x0A0A [0x29] REQ_SET_WAIT(priority=0x08, entity_id=Susuroon (ID: 17924184/0x01118058), tag_num=0x03)

SUBROUTINE_0A11:
351: 0x0A11 [0xAC] Susuroon (ID: 17924203/0x0111806B)->Render.Flags6 |= 0x02 // Set bit 1
352: 0x0A17 [0x3E] IF !(Work_Zone_Memorize[0] bit 15*) GOTO 0x0A28
353: 0x0A1E [0x27] REQ_SET(priority=0x08, entity_id=Susuroon (ID: 17924203/0x0111806B), tag_num=0x02)
354: 0x0A25 [0x01] GOTO 0x0A2F
355: 0x0A28 [0x27] REQ_SET(priority=0x08, entity_id=Susuroon (ID: 17924203/0x0111806B), tag_num=0x03)

SUBROUTINE_0A2F:
356: 0x0A2F [0xAC] Yeestog (ID: 17924185/0x01118059)->Render.Flags6 |= 0x02 // Set bit 1
357: 0x0A35 [0x3E] IF !(Work_Zone_Memorize[0] bit 16*) GOTO 0x0A46
358: 0x0A3C [0x27] REQ_SET(priority=0x08, entity_id=Yeestog (ID: 17924185/0x01118059), tag_num=0x02)
359: 0x0A43 [0x01] GOTO 0x0A4D
360: 0x0A46 [0x27] REQ_SET(priority=0x08, entity_id=Yeestog (ID: 17924185/0x01118059), tag_num=0x03)

SUBROUTINE_0A4D:
361: 0x0A4D [0xAC] Yeestog (ID: 17924204/0x0111806C)->Render.Flags6 |= 0x02 // Set bit 1
362: 0x0A53 [0x3E] IF !(Work_Zone_Memorize[0] bit 17*) GOTO 0x0A64
363: 0x0A5A [0x29] REQ_SET_WAIT(priority=0x08, entity_id=Yeestog (ID: 17924204/0x0111806C), tag_num=0x02)
364: 0x0A61 [0x01] GOTO 0x0A6B
365: 0x0A64 [0x29] REQ_SET_WAIT(priority=0x08, entity_id=Yeestog (ID: 17924204/0x0111806C), tag_num=0x03)

SUBROUTINE_0A6B:
366: 0x0A6B [0x1C] WAIT(1* ticks)
367: 0x0A6E [0x1B] RETURN

SUBROUTINE_0A6F:
368: 0x0A6F [0xAC] Flotsam (ID: 17924150/0x01118036)->Render.Flags6 |= 0x02 // Set bit 1
369: 0x0A75 [0x3E] IF !(Work_Zone_Memorize[0] bit 29*) GOTO 0x0A92
370: 0x0A7C [0x2C] CREATE_SCHEDULER_TASK: Create scheduler "efon" with entities [Flotsam (ID: 17924150/0x01118036), Flotsam (ID: 17924150/0x01118036)]
371: 0x0A89 [0xB6] ENTITY_APPEARANCE_HANDLER(case=Render.Flags2)
372: 0x0A8B [0x36] SET_ENTITY_EVENT_POSITION(pos_x=0x1180, pos_z=0x0101, pos_y=0x0AA5)
373: 0x0A92 [0x2C] CREATE_SCHEDULER_TASK: Create scheduler "efof" with entities [Flotsam (ID: 17924150/0x01118036), Flotsam (ID: 17924150/0x01118036)]
374: 0x0A9F [0xB6] ENTITY_APPEARANCE_HANDLER(case=Render.Flags2)
375: 0x0AA1 [0x36] SET_ENTITY_EVENT_POSITION(pos_x=0x1180, pos_z=0x1B01, pos_y=0x013E)
376: 0x0AA8 [0x11] 0* >>= 0x0ABC
377: 0x0AAD [0x4E] SET_ENTITY_HIDE_FLAG: Show Crabauble (ID: 17924209/0x01118071)
378: 0x0AB3 [0xAC] Crabauble (ID: 17924209/0x01118071)->Render.Flags6 |= 0x02 // Set bit 1
379: 0x0AB9 [0x01] GOTO 0x0AC8

SUBROUTINE_0AC8:
380: 0x0AC8 [0x1B] RETURN

SUBROUTINE_0AC9:
381: 0x0AC9 [0xAC] Garden Strongbox (ID: 17924210/0x01118072)->Render.Flags6 |= 0x02 // Set bit 1
382: 0x0ACF [0x3E] IF !(Work_Zone_Memorize[1] bit 1*) GOTO 0x0AED
383: 0x0AD6 [0x3E] IF !(Work_Zone_Memorize[1] bit 3*) GOTO 0x0AE4
384: 0x0ADD [0x29] REQ_SET_WAIT(priority=0x08, entity_id=Garden Strongbox (ID: 17924210/0x01118072), tag_num=0x04)
385: 0x0AE4 [0x4E] SET_ENTITY_HIDE_FLAG: Show Garden Strongbox (ID: 17924210/0x01118072)
386: 0x0AEA [0x01] GOTO 0x0AF4
387: 0x0AED [0x29] REQ_SET_WAIT(priority=0x08, entity_id=Garden Strongbox (ID: 17924210/0x01118072), tag_num=0x03)

SUBROUTINE_0AF4:
388: 0x0AF4 [0x1B] RETURN

SUBROUTINE_0AF5:
389: 0x0AF5 [0xAC] Ephemeral Moogle (ID: 17924238/0x0111808E)->Render.Flags6 |= 0x02 // Set bit 1
390: 0x0AFB [0x3E] IF !(Work_Zone_Memorize[1] bit 25*) GOTO 0x0B0B
391: 0x0B02 [0x4E] SET_ENTITY_HIDE_FLAG: Show Ephemeral Moogle (ID: 17924238/0x0111808E)
392: 0x0B08 [0x01] GOTO 0x0B11
393: 0x0B0B [0x4E] SET_ENTITY_HIDE_FLAG: Hide Ephemeral Moogle (ID: 17924238/0x0111808E)

SUBROUTINE_0B11:
394: 0x0B11 [0x1B] RETURN

SUBROUTINE_0B95:
395: 0x0B95 [0xAC] ??? (ID: 17924229/0x01118085)->Render.Flags6 |= 0x02 // Set bit 1
396: 0x0B9B [0xAC] ??? (ID: 17924230/0x01118086)->Render.Flags6 |= 0x02 // Set bit 1
397: 0x0BA1 [0x3E] IF !(Work_Zone_Memorize[1] bit 27*) GOTO 0x0C12
398: 0x0BA8 [0x13] ExtData[1]->WorkLocal[1] = rand() % 2*
399: 0x0BAD [0x02] IF !(ExtData[1]->WorkLocal[1] <= 2*) GOTO 0x0BB8
400: 0x0BB5 [0x06] ExtData[1]->WorkLocal[1] = 0
401: 0x0BB8 [0x02] IF !(ExtData[1]->WorkLocal[1] == 0*) GOTO 0x0BD1
402: 0x0BC0 [0x29] REQ_SET_WAIT(priority=0x08, entity_id=??? (ID: 17924229/0x01118085), tag_num=0x02)
403: 0x0BC7 [0x29] REQ_SET_WAIT(priority=0x08, entity_id=??? (ID: 17924230/0x01118086), tag_num=0x02)
404: 0x0BCE [0x01] GOTO 0x0C03
405: 0x0BD1 [0x02] IF !(ExtData[1]->WorkLocal[1] == 1*) GOTO 0x0BEA
406: 0x0BD9 [0x29] REQ_SET_WAIT(priority=0x08, entity_id=??? (ID: 17924229/0x01118085), tag_num=0x03)
407: 0x0BE0 [0x29] REQ_SET_WAIT(priority=0x08, entity_id=??? (ID: 17924230/0x01118086), tag_num=0x03)
408: 0x0BE7 [0x01] GOTO 0x0C03
409: 0x0BEA [0x02] IF !(ExtData[1]->WorkLocal[1] == 2*) GOTO 0x0C03
410: 0x0BF2 [0x29] REQ_SET_WAIT(priority=0x08, entity_id=??? (ID: 17924229/0x01118085), tag_num=0x04)
411: 0x0BF9 [0x29] REQ_SET_WAIT(priority=0x08, entity_id=??? (ID: 17924230/0x01118086), tag_num=0x04)
412: 0x0C00 [0x01] GOTO 0x0C03

SUBROUTINE_0C03:
413: 0x0C03 [0x4E] SET_ENTITY_HIDE_FLAG: Show ??? (ID: 17924229/0x01118085)
414: 0x0C09 [0x4E] SET_ENTITY_HIDE_FLAG: Show ??? (ID: 17924230/0x01118086)
415: 0x0C0F [0x01] GOTO 0x0C1E
416: 0x0C12 [0x4E] SET_ENTITY_HIDE_FLAG: Hide ??? (ID: 17924229/0x01118085)
417: 0x0C18 [0x4E] SET_ENTITY_HIDE_FLAG: Hide ??? (ID: 17924230/0x01118086)

SUBROUTINE_0C1E:
418: 0x0C1E [0x1B] RETURN

SUBROUTINE_0C1F:
419: 0x0C1F [0xAC] Chacharoon (ID: 17924231/0x01118087)->Render.Flags6 |= 0x02 // Set bit 1
420: 0x0C25 [0x3E] IF !(Work_Zone_Memorize[1] bit 4*) GOTO 0x0C3B
421: 0x0C2C [0x4E] SET_ENTITY_HIDE_FLAG: Show Chacharoon (ID: 17924231/0x01118087)
422: 0x0C32 [0xAC] Chacharoon (ID: 17924231/0x01118087)->Render.Flags6 |= 0x02 // Set bit 1
423: 0x0C38 [0x01] GOTO 0x0C47
424: 0x0C3B [0xAC] Chacharoon (ID: 17924231/0x01118087)->Render.Flags6 |= 0x02 // Set bit 1
425: 0x0C41 [0x4E] SET_ENTITY_HIDE_FLAG: Hide Chacharoon (ID: 17924231/0x01118087)

SUBROUTINE_0C47:
426: 0x0C47 [0x1B] RETURN

SUBROUTINE_0C48:
427: 0x0C48 [0xAC] Breeding Monster (ID: 17924233/0x01118089)->Render.Flags6 |= 0x02 // Set bit 1
428: 0x0C4E [0x29] REQ_SET_WAIT(priority=0x08, entity_id=Breeding Monster (ID: 17924233/0x01118089), tag_num=0x04)
429: 0x0C55 [0x1B] RETURN

SUBROUTINE_0C8E:
430: 0x0C8E [0xAC] Unnamed NPC (ID: 17924124/0x0111801C)->Render.Flags6 |= 0x02 // Set bit 1
431: 0x0C94 [0x3E] IF !(Work_Zone_Memorize[1] bit 24*) GOTO 0x0CA5
432: 0x0C9B [0x29] REQ_SET_WAIT(priority=0x80, entity_id=Unnamed NPC (ID: 17924124/0x0111801C), tag_num=0x02)
433: 0x0CA2 [0x01] GOTO 0x0CAC
434: 0x0CA5 [0x29] REQ_SET_WAIT(priority=0x80, entity_id=Unnamed NPC (ID: 17924124/0x0111801C), tag_num=0x03)

SUBROUTINE_0CAC:
435: 0x0CAC [0x1B] RETURN

SUBROUTINE_0CAD:
436: 0x0CAD [0x03] Work_Zone[1] = 1*
437: 0x0CB2 [0x43] SEND_EVENT_UPDATE: Send pending tag to server (packet 0x005B)
438: 0x0CB4 [0x43] SEND_EVENT_UPDATE: Check pending flag (skip if not pending)
439: 0x0CB6 [0x03] ExtData[1]->WorkLocal[2] = Work_Zone[2]
440: 0x0CBB [0x03] Work_Zone_Memorize[8] = Work_Zone[3]
441: 0x0CC0 [0x03] Work_Zone_Memorize[1] = Work_Zone[4]
442: 0x0CC5 [0x03] Work_Zone_Memorize[10] = Work_Zone[5]
443: 0x0CCA [0x03] Work_Zone_Memorize[11] = Work_Zone[6]
444: 0x0CCF [0x03] Work_Zone_Memorize[12] = Work_Zone[7]
445: 0x0CD4 [0x03] Work_Zone[1] = 11*
446: 0x0CD9 [0x43] SEND_EVENT_UPDATE: Send pending tag to server (packet 0x005B)
447: 0x0CDB [0x43] SEND_EVENT_UPDATE: Check pending flag (skip if not pending)
448: 0x0CDD [0x03] Work_Zone_Memorize[2] = Work_Zone[2]
449: 0x0CE2 [0x03] Work_Zone_Memorize[3] = Work_Zone[3]
450: 0x0CE7 [0x03] Work_Zone_Memorize[4] = Work_Zone[4]
451: 0x0CEC [0x03] Work_Zone_Memorize[5] = Work_Zone[5]
452: 0x0CF1 [0x03] Work_Zone_Memorize[6] = Work_Zone[6]
453: 0x0CF6 [0x03] Work_Zone_Memorize[7] = Work_Zone[7]
454: 0x0CFB [0x03] Work_Zone_Memorize[9] = Work_Zone[8]
455: 0x0D00 [0x41] ExtData[1]->WorkLocal[1] = ExtData[1]->WorkLocal[2] (bits 0*-3*)
456: 0x0D09 [0x1A] CALL_SUBROUTINE(address=0x0EFA)
457: 0x0D0C [0x41] ExtData[1]->WorkLocal[1] = ExtData[1]->WorkLocal[2] (bits 4*-7*)
458: 0x0D15 [0x1A] CALL_SUBROUTINE(address=0x1102)
459: 0x0D18 [0x41] ExtData[1]->WorkLocal[1] = ExtData[1]->WorkLocal[2] (bits 8*-11*)
460: 0x0D21 [0x1A] CALL_SUBROUTINE(address=0x1392)
461: 0x0D24 [0x41] ExtData[1]->WorkLocal[1] = ExtData[1]->WorkLocal[2] (bits 12*-15*)
462: 0x0D2D [0x1A] CALL_SUBROUTINE(address=0x15E0)
463: 0x0D30 [0x41] ExtData[1]->WorkLocal[1] = ExtData[1]->WorkLocal[2] (bits 20*-22*)
464: 0x0D39 [0x1A] CALL_SUBROUTINE(address=0x0D62)
465: 0x0D3C [0x41] ExtData[1]->WorkLocal[1] = ExtData[1]->WorkLocal[2] (bits 31*-31*)
466: 0x0D45 [0x02] IF !(ExtData[1]->WorkLocal[1] == 0*) GOTO 0x0D57
467: 0x0D4D [0x3D] CLEAR_BIT_FLAG_CONDITIONAL(target_work_offset=Work_Zone_Memorize[0], bit_index_work_offset=29*, condition_work_offset=1*)
468: 0x0D54 [0x01] GOTO 0x0D5E
469: 0x0D57 [0x3C] SET_BIT_FLAG_CONDITIONAL(target_work_offset=Work_Zone_Memorize[0], bit_index_work_offset=29*, condition_work_offset=1*)

SUBROUTINE_0D5E:
470: 0x0D5E [0x1A] CALL_SUBROUTINE(address=0x0D7C)
471: 0x0D61 [0x1B] RETURN

SUBROUTINE_0D62:
472: 0x0D62 [0x02] IF !(ExtData[1]->WorkLocal[1] < 3*) GOTO 0x0D74
473: 0x0D6A [0x3C] SET_BIT_FLAG_CONDITIONAL(target_work_offset=Work_Zone_Memorize[1], bit_index_work_offset=24*, condition_work_offset=1*)
474: 0x0D71 [0x01] GOTO 0x0D7B
475: 0x0D74 [0x3D] CLEAR_BIT_FLAG_CONDITIONAL(target_work_offset=Work_Zone_Memorize[1], bit_index_work_offset=24*, condition_work_offset=1*)

SUBROUTINE_0D7B:
476: 0x0D7B [0x1B] RETURN

SUBROUTINE_0D7C:
477: 0x0D7C [0x3E] IF !(Work_Zone_Memorize[8] bit 8*) GOTO 0x0DED
478: 0x0D83 [0x41] ExtData[1]->WorkLocal[1] = Work_Zone_Memorize[8] (bits 9*-11*)
479: 0x0D8C [0x02] IF !(ExtData[1]->WorkLocal[1] == 1*) GOTO 0x0DA5
480: 0x0D94 [0x3D] CLEAR_BIT_FLAG_CONDITIONAL(target_work_offset=Work_Zone_Memorize[0], bit_index_work_offset=12*, condition_work_offset=1*)
481: 0x0D9B [0x3C] SET_BIT_FLAG_CONDITIONAL(target_work_offset=Work_Zone_Memorize[0], bit_index_work_offset=13*, condition_work_offset=1*)
482: 0x0DA2 [0x01] GOTO 0x0DEA
483: 0x0DA5 [0x02] IF !(ExtData[1]->WorkLocal[1] == 4*) GOTO 0x0DBE
484: 0x0DAD [0x3C] SET_BIT_FLAG_CONDITIONAL(target_work_offset=Work_Zone_Memorize[0], bit_index_work_offset=12*, condition_work_offset=1*)
485: 0x0DB4 [0x3D] CLEAR_BIT_FLAG_CONDITIONAL(target_work_offset=Work_Zone_Memorize[0], bit_index_work_offset=13*, condition_work_offset=1*)
486: 0x0DBB [0x01] GOTO 0x0DEA
487: 0x0DBE [0x13] ExtData[1]->WorkLocal[1] = rand() % 99*
488: 0x0DC3 [0x02] IF !(ExtData[1]->WorkLocal[1] >= 50*) GOTO 0x0DDC
489: 0x0DCB [0x3D] CLEAR_BIT_FLAG_CONDITIONAL(target_work_offset=Work_Zone_Memorize[0], bit_index_work_offset=12*, condition_work_offset=1*)
490: 0x0DD2 [0x3C] SET_BIT_FLAG_CONDITIONAL(target_work_offset=Work_Zone_Memorize[0], bit_index_work_offset=13*, condition_work_offset=1*)
491: 0x0DD9 [0x01] GOTO 0x0DEA
492: 0x0DDC [0x3C] SET_BIT_FLAG_CONDITIONAL(target_work_offset=Work_Zone_Memorize[0], bit_index_work_offset=12*, condition_work_offset=1*)
493: 0x0DE3 [0x3D] CLEAR_BIT_FLAG_CONDITIONAL(target_work_offset=Work_Zone_Memorize[0], bit_index_work_offset=13*, condition_work_offset=1*)

SUBROUTINE_0DEA:
494: 0x0DEA [0x01] GOTO 0x0DFB
495: 0x0DED [0x3D] CLEAR_BIT_FLAG_CONDITIONAL(target_work_offset=Work_Zone_Memorize[0], bit_index_work_offset=12*, condition_work_offset=1*)
496: 0x0DF4 [0x3D] CLEAR_BIT_FLAG_CONDITIONAL(target_work_offset=Work_Zone_Memorize[0], bit_index_work_offset=13*, condition_work_offset=1*)

SUBROUTINE_0DFB:
497: 0x0DFB [0x3E] IF !(Work_Zone_Memorize[8] bit 12*) GOTO 0x0E6C
498: 0x0E02 [0x41] ExtData[1]->WorkLocal[1] = Work_Zone_Memorize[8] (bits 13*-15*)
499: 0x0E0B [0x02] IF !(ExtData[1]->WorkLocal[1] == 1*) GOTO 0x0E24
500: 0x0E13 [0x3C] SET_BIT_FLAG_CONDITIONAL(target_work_offset=Work_Zone_Memorize[0], bit_index_work_offset=14*, condition_work_offset=1*)
501: 0x0E1A [0x3D] CLEAR_BIT_FLAG_CONDITIONAL(target_work_offset=Work_Zone_Memorize[0], bit_index_work_offset=15*, condition_work_offset=1*)
502: 0x0E21 [0x01] GOTO 0x0E69
503: 0x0E24 [0x02] IF !(ExtData[1]->WorkLocal[1] == 5*) GOTO 0x0E3D
504: 0x0E2C [0x3D] CLEAR_BIT_FLAG_CONDITIONAL(target_work_offset=Work_Zone_Memorize[0], bit_index_work_offset=14*, condition_work_offset=1*)
505: 0x0E33 [0x3C] SET_BIT_FLAG_CONDITIONAL(target_work_offset=Work_Zone_Memorize[0], bit_index_work_offset=15*, condition_work_offset=1*)
506: 0x0E3A [0x01] GOTO 0x0E69
507: 0x0E3D [0x13] ExtData[1]->WorkLocal[1] = rand() % 99*
508: 0x0E42 [0x02] IF !(ExtData[1]->WorkLocal[1] >= 50*) GOTO 0x0E5B
509: 0x0E4A [0x3C] SET_BIT_FLAG_CONDITIONAL(target_work_offset=Work_Zone_Memorize[0], bit_index_work_offset=14*, condition_work_offset=1*)
510: 0x0E51 [0x3D] CLEAR_BIT_FLAG_CONDITIONAL(target_work_offset=Work_Zone_Memorize[0], bit_index_work_offset=15*, condition_work_offset=1*)
511: 0x0E58 [0x01] GOTO 0x0E69
512: 0x0E5B [0x3D] CLEAR_BIT_FLAG_CONDITIONAL(target_work_offset=Work_Zone_Memorize[0], bit_index_work_offset=14*, condition_work_offset=1*)
513: 0x0E62 [0x3C] SET_BIT_FLAG_CONDITIONAL(target_work_offset=Work_Zone_Memorize[0], bit_index_work_offset=15*, condition_work_offset=1*)

SUBROUTINE_0E69:
514: 0x0E69 [0x01] GOTO 0x0E7A
515: 0x0E6C [0x3D] CLEAR_BIT_FLAG_CONDITIONAL(target_work_offset=Work_Zone_Memorize[0], bit_index_work_offset=14*, condition_work_offset=1*)
516: 0x0E73 [0x3D] CLEAR_BIT_FLAG_CONDITIONAL(target_work_offset=Work_Zone_Memorize[0], bit_index_work_offset=15*, condition_work_offset=1*)

SUBROUTINE_0E7A:
517: 0x0E7A [0x3E] IF !(Work_Zone_Memorize[8] bit 16*) GOTO 0x0EEB
518: 0x0E81 [0x41] ExtData[1]->WorkLocal[1] = Work_Zone_Memorize[8] (bits 17*-19*)
519: 0x0E8A [0x02] IF !(ExtData[1]->WorkLocal[1] == 3*) GOTO 0x0EA3
520: 0x0E92 [0x3C] SET_BIT_FLAG_CONDITIONAL(target_work_offset=Work_Zone_Memorize[0], bit_index_work_offset=16*, condition_work_offset=1*)
521: 0x0E99 [0x3D] CLEAR_BIT_FLAG_CONDITIONAL(target_work_offset=Work_Zone_Memorize[0], bit_index_work_offset=17*, condition_work_offset=1*)
522: 0x0EA0 [0x01] GOTO 0x0EE8
523: 0x0EA3 [0x02] IF !(ExtData[1]->WorkLocal[1] == 2*) GOTO 0x0EBC
524: 0x0EAB [0x3D] CLEAR_BIT_FLAG_CONDITIONAL(target_work_offset=Work_Zone_Memorize[0], bit_index_work_offset=16*, condition_work_offset=1*)
525: 0x0EB2 [0x3C] SET_BIT_FLAG_CONDITIONAL(target_work_offset=Work_Zone_Memorize[0], bit_index_work_offset=17*, condition_work_offset=1*)
526: 0x0EB9 [0x01] GOTO 0x0EE8
527: 0x0EBC [0x13] ExtData[1]->WorkLocal[1] = rand() % 99*
528: 0x0EC1 [0x02] IF !(ExtData[1]->WorkLocal[1] >= 50*) GOTO 0x0EDA
529: 0x0EC9 [0x3C] SET_BIT_FLAG_CONDITIONAL(target_work_offset=Work_Zone_Memorize[0], bit_index_work_offset=16*, condition_work_offset=1*)
530: 0x0ED0 [0x3D] CLEAR_BIT_FLAG_CONDITIONAL(target_work_offset=Work_Zone_Memorize[0], bit_index_work_offset=17*, condition_work_offset=1*)
