# 17924182 - KANI05

## Common Data

| Field            | Value                |
|------------------|----------------------|
| Zone             | Mog Garden (ID: 280) |
| Block Size       | 540 bytes            |
| Total Events     | 14                   |
| References Count | 47                   |

## List of Events

| Event ID                   | Entrypoint   |   Size |   Instructions |
|----------------------------|--------------|--------|----------------|
| [65535](#event-65535)      | 0x0000       |      1 |              1 |
| [2006](#event-2006)        | 0x0001       |      1 |              1 |
| [65535.1](#event-655351)   | 0x0002       |     14 |              4 |
| [65535.2](#event-655352)   | 0x0010       |      9 |              3 |
| [65535.3](#event-655353)   | 0x0019       |     86 |             19 |
| [65535.4](#event-655354)   | 0x006F       |     14 |              4 |
| [2045](#event-2045)        | 0x007D       |      1 |              1 |
| [65535.5](#event-655355)   | 0x007E       |     10 |              2 |
| [65535.6](#event-655356)   | 0x0088       |     39 |              9 |
| [65535.7](#event-655357)   | 0x00AF       |     12 |              3 |
| [65535.8](#event-655358)   | 0x00BB       |     33 |              8 |
| [65535.9](#event-655359)   | 0x00DC       |     14 |              4 |
| [65535.10](#event-6553510) | 0x00EA       |     18 |              4 |
| [65535.11](#event-6553511) | 0x00FC       |     28 |              8 |

## DAT References (imed_data)

|   Index | Hex Value   |   Dec Value |
|---------|-------------|-------------|
|       0 | 0xFFFFE86C  |  4294961260 |
|       1 | 0xFFFF8A6C  |  4294937196 |
|       2 | 0x09FD      |        2557 |
|       3 | 0x0C8D      |        3213 |
|       4 | 0x0028      |          40 |
|       5 | 0xFFFFFD94  |  4294966676 |
|       6 | 0xFFFFBC4A  |  4294949962 |
|       7 | 0x05DB      |        1499 |
|       8 | 0x0874      |        2164 |
|       9 | 0xFFFFB725  |  4294948645 |
|      10 | 0x1443      |        5187 |
|      11 | 0xFFFFBE3F  |  4294950463 |
|      12 | 0x0553      |        1363 |
|      13 | 0x0570      |        1392 |
|      14 | 0xFFFFBFA5  |  4294950821 |
|      15 | 0x05C1      |        1473 |
|      16 | 0x162E      |        5678 |
|      17 | 0xFFFFA256  |  4294943318 |
|      18 | 0xFFFFF8E6  |  4294965478 |
|      19 | 0xFFFFAC20  |  4294945824 |
|      20 | 0xFFFFF466  |  4294964326 |
|      21 | 0xFFFFB4A9  |  4294948009 |
|      22 | 0xFFFFFB6A  |  4294966122 |
|      23 | 0xFFFFA6A4  |  4294944420 |
|      24 | 0xFFFFEC40  |  4294962240 |
|      25 | 0xFFFFAD4E  |  4294946126 |
|      26 | 0x0B44      |        2884 |
|      27 | 0x4783      |       18307 |
|      28 | 0xFFFFFE29  |  4294966825 |
|      29 | 0x0393      |         915 |
|      30 | 0x0559      |        1369 |
|      31 | 0x2D70      |       11632 |
|      32 | 0xFFFFFF97  |  4294967191 |
|      33 | 0xFFFFF764  |  4294965092 |
|      34 | 0x2330      |        9008 |
|      35 | 0x0083      |         131 |
|      36 | 0xFFFFF19C  |  4294963612 |
|      37 | 0x2173      |        8563 |
|      38 | 0x010F      |         271 |
|      39 | 0x04B8      |        1208 |
|      40 | 0xFFFFE752  |  4294960978 |
|      41 | 0x11A2      |        4514 |
|      42 | 0x01AC      |         428 |
|      43 | 0x0000      |           0 |
|      44 | 0xFFFFF448  |  4294964296 |
|      45 | 0xFFFFA908  |  4294945032 |
|      46 | 0x001E      |          30 |

## Events

### Event 65535

#### Metadata

| Field        | Value   |
|--------------|---------|
| Entrypoint   | 0x0000  |
| Data Size    | 1 bytes |
| Instructions | 1       |

```
      00 01 02 03 04 05 06 07  08 09 0A 0B 0C 0D 0E 0F
      -- -- -- -- -- -- -- --  -- -- -- -- -- -- -- --
0000: 00                                                .               
```

#### Opcodes

```
  0: 0x0000 [0x00] END_REQSTACK()
```

### Event 2006

#### Metadata

| Field        | Value   |
|--------------|---------|
| Entrypoint   | 0x0001  |
| Data Size    | 1 bytes |
| Instructions | 1       |

```
      00 01 02 03 04 05 06 07  08 09 0A 0B 0C 0D 0E 0F
      -- -- -- -- -- -- -- --  -- -- -- -- -- -- -- --
0000:    00                                              .              
```

#### Opcodes

```
  0: 0x0001 [0x00] END_REQSTACK()
```

### Event 65535.1

#### Metadata

| Field        | Value    |
|--------------|----------|
| Entrypoint   | 0x0002   |
| Data Size    | 14 bytes |
| Instructions | 4        |

```
      00 01 02 03 04 05 06 07  08 09 0A 0B 0C 0D 0E 0F
      -- -- -- -- -- -- -- --  -- -- -- -- -- -- -- --
0000:       33 01 37 00 80 01  80 02 80 03 80 33 01 00    3.7........3..
```

#### Opcodes

```
  0: 0x0002 [0x33] EventEntity->Render.Flags0 |= 0x200000 // Bit 21 (flag=0x01)
  1: 0x0004 [0x37] UPDATE_EVENT_POSITION_AND_DIR: x=-6.036*, z=-30.100*, y=2.557*, direction=282.4°*
  2: 0x000D [0x33] EventEntity->Render.Flags0 |= 0x200000 // Bit 21 (flag=0x01)
  3: 0x000F [0x00] END_REQSTACK()
```

### Event 65535.2

#### Metadata

| Field        | Value   |
|--------------|---------|
| Entrypoint   | 0x0010  |
| Data Size    | 9 bytes |
| Instructions | 3       |

```
      00 01 02 03 04 05 06 07  08 09 0A 0B 0C 0D 0E 0F
      -- -- -- -- -- -- -- --  -- -- -- -- -- -- -- --
0010: 2F 00 F8 FF FF 7F 22 00  00                       /....."..       
```

#### Opcodes

```
  0: 0x0010 [0x2F] EventEntity->Render.Flags0 &= ~0x80000 // Bit 19
  1: 0x0016 [0x22] ENTITY_HIDE_FLAG(enabled=0x00)
  2: 0x0018 [0x00] END_REQSTACK()
```

### Event 65535.3

#### Metadata

| Field        | Value    |
|--------------|----------|
| Entrypoint   | 0x0019   |
| Data Size    | 86 bytes |
| Instructions | 19       |

```
      00 01 02 03 04 05 06 07  08 09 0A 0B 0C 0D 0E 0F
      -- -- -- -- -- -- -- --  -- -- -- -- -- -- -- --
0010:                             32 04 80 1F 00 05 80           2......
0020: 06 80 07 80 1F 01 1F 00  08 80 09 80 07 80 1F 01  ................
0030: 1F 00 0A 80 0B 80 0C 80  1F 01 1F 00 0D 80 0E 80  ................
0040: 0F 80 1F 01 1F 00 10 80  11 80 07 80 1F 01 1F 00  ................
0050: 12 80 13 80 07 80 1F 01  1F 00 14 80 15 80 07 80  ................
0060: 1F 01 1F 00 16 80 17 80  07 80 1F 01 22 01 00     ............".. 
```

#### Opcodes

```
  0: 0x0019 [0x32] ExtData[1]->MainSpeed = 40* * 0.1
  1: 0x001C [0x1F] MOVE_ENTITY: EventEntity moves to X=-0.620*, Z=-17.334*, Y=1.499*
  2: 0x0024 [0x1F] MOVE_ENTITY: Update entity position (mode=1)
  3: 0x0026 [0x1F] MOVE_ENTITY: EventEntity moves to X=2.164*, Z=-18.651*, Y=1.499*
  4: 0x002E [0x1F] MOVE_ENTITY: Update entity position (mode=1)
  5: 0x0030 [0x1F] MOVE_ENTITY: EventEntity moves to X=5.187*, Z=-16.833*, Y=1.363*
  6: 0x0038 [0x1F] MOVE_ENTITY: Update entity position (mode=1)
  7: 0x003A [0x1F] MOVE_ENTITY: EventEntity moves to X=1.392*, Z=-16.475*, Y=1.473*
  8: 0x0042 [0x1F] MOVE_ENTITY: Update entity position (mode=1)
  9: 0x0044 [0x1F] MOVE_ENTITY: EventEntity moves to X=5.678*, Z=-23.978*, Y=1.499*
 10: 0x004C [0x1F] MOVE_ENTITY: Update entity position (mode=1)
 11: 0x004E [0x1F] MOVE_ENTITY: EventEntity moves to X=-1.818*, Z=-21.472*, Y=1.499*
 12: 0x0056 [0x1F] MOVE_ENTITY: Update entity position (mode=1)
 13: 0x0058 [0x1F] MOVE_ENTITY: EventEntity moves to X=-2.970*, Z=-19.287*, Y=1.499*
 14: 0x0060 [0x1F] MOVE_ENTITY: Update entity position (mode=1)
 15: 0x0062 [0x1F] MOVE_ENTITY: EventEntity moves to X=-1.174*, Z=-22.876*, Y=1.499*
 16: 0x006A [0x1F] MOVE_ENTITY: Update entity position (mode=1)
 17: 0x006C [0x22] ENTITY_HIDE_FLAG(enabled=0x01)
 18: 0x006E [0x00] END_REQSTACK()
```

### Event 65535.4

#### Metadata

| Field        | Value    |
|--------------|----------|
| Entrypoint   | 0x006F   |
| Data Size    | 14 bytes |
| Instructions | 4        |

```
      00 01 02 03 04 05 06 07  08 09 0A 0B 0C 0D 0E 0F
      -- -- -- -- -- -- -- --  -- -- -- -- -- -- -- --
0060:                                               32                 2
0070: 04 80 5A 00 18 80 19 80  07 80 5A 01 00           ..Z.......Z..   
```

#### Opcodes

```
  0: 0x006F [0x32] ExtData[1]->MainSpeed = 40* * 0.1
  1: 0x0072 [0x5A] UPDATE_EVENT_POSITION: Set EventEntity MovePosition to X=-5.056*, Z=-21.170*, Y=1.499*
  2: 0x007A [0x5A] UPDATE_EVENT_POSITION: Move EventEntity incrementally towards MovePosition
  3: 0x007C [0x00] END_REQSTACK()
```

### Event 2045

#### Metadata

| Field        | Value   |
|--------------|---------|
| Entrypoint   | 0x007D  |
| Data Size    | 1 bytes |
| Instructions | 1       |

```
      00 01 02 03 04 05 06 07  08 09 0A 0B 0C 0D 0E 0F
      -- -- -- -- -- -- -- --  -- -- -- -- -- -- -- --
0070:                                         00                     .  
```

#### Opcodes

```
  0: 0x007D [0x00] END_REQSTACK()
```

### Event 65535.5

#### Metadata

| Field        | Value    |
|--------------|----------|
| Entrypoint   | 0x007E   |
| Data Size    | 10 bytes |
| Instructions | 2        |

```
      00 01 02 03 04 05 06 07  08 09 0A 0B 0C 0D 0E 0F
      -- -- -- -- -- -- -- --  -- -- -- -- -- -- -- --
0070:                                            37 1A                7.
0080: 80 1B 80 1C 80 1D 80 00                           ........        
```

#### Opcodes

```
  0: 0x007E [0x37] UPDATE_EVENT_POSITION_AND_DIR: x=2.884*, z=18.307*, y=-0.471*, direction=80.4°*
  1: 0x0087 [0x00] END_REQSTACK()
```

### Event 65535.6

#### Metadata

| Field        | Value    |
|--------------|----------|
| Entrypoint   | 0x0088   |
| Data Size    | 39 bytes |
| Instructions | 9        |

```
      00 01 02 03 04 05 06 07  08 09 0A 0B 0C 0D 0E 0F
      -- -- -- -- -- -- -- --  -- -- -- -- -- -- -- --
0080:                          32 04 80 1F 00 1E 80 1F          2.......
0090: 80 20 80 1F 01 1F 00 21  80 22 80 23 80 1F 01 1F  . .....!.".#....
00A0: 00 24 80 25 80 26 80 1F  01 1E 1D 80 11 01 00     .$.%.&......... 
```

#### Opcodes

```
  0: 0x0088 [0x32] ExtData[1]->MainSpeed = 40* * 0.1
  1: 0x008B [0x1F] MOVE_ENTITY: EventEntity moves to X=1.369*, Z=11.632*, Y=-0.105*
  2: 0x0093 [0x1F] MOVE_ENTITY: Update entity position (mode=1)
  3: 0x0095 [0x1F] MOVE_ENTITY: EventEntity moves to X=-2.204*, Z=9.008*, Y=0.131*
  4: 0x009D [0x1F] MOVE_ENTITY: Update entity position (mode=1)
  5: 0x009F [0x1F] MOVE_ENTITY: EventEntity moves to X=-3.684*, Z=8.563*, Y=0.271*
  6: 0x00A7 [0x1F] MOVE_ENTITY: Update entity position (mode=1)
  7: 0x00A9 [0x1E] EventEntity looks at Green Thumb Moogle (ID: 17924125/0x0111801D) and starts talking
  8: 0x00AE [0x00] END_REQSTACK()
```

### Event 65535.7

#### Metadata

| Field        | Value    |
|--------------|----------|
| Entrypoint   | 0x00AF   |
| Data Size    | 12 bytes |
| Instructions | 3        |

```
      00 01 02 03 04 05 06 07  08 09 0A 0B 0C 0D 0E 0F
      -- -- -- -- -- -- -- --  -- -- -- -- -- -- -- --
00A0:                                               33                 3
00B0: 00 37 24 80 25 80 26 80  27 80 00                 .7$.%.&.'..     
```

#### Opcodes

```
  0: 0x00AF [0x33] EventEntity->Render.Flags0 &= ~ 0x200000 // Bit 21 (flag=0x00)
  1: 0x00B1 [0x37] UPDATE_EVENT_POSITION_AND_DIR: x=-3.684*, z=8.563*, y=0.271*, direction=106.2°*
  2: 0x00BA [0x00] END_REQSTACK()
```

### Event 65535.8

#### Metadata

| Field        | Value    |
|--------------|----------|
| Entrypoint   | 0x00BB   |
| Data Size    | 33 bytes |
| Instructions | 8        |

```
      00 01 02 03 04 05 06 07  08 09 0A 0B 0C 0D 0E 0F
      -- -- -- -- -- -- -- --  -- -- -- -- -- -- -- --
00B0:                                   32 04 80 1F 00             2....
00C0: 28 80 29 80 2A 80 1F 01  1E 5B 80 11 01 6F 70 C4  (.).*....[...op.
00D0: 01 2B 80 F8 FF FF 7F 5B  80 11 01 00              .+.....[....    
```

#### Opcodes

```
  0: 0x00BB [0x32] ExtData[1]->MainSpeed = 40* * 0.1
  1: 0x00BE [0x1F] MOVE_ENTITY: EventEntity moves to X=-6.318*, Z=4.514*, Y=0.428*
  2: 0x00C6 [0x1F] MOVE_ENTITY: Update entity position (mode=1)
  3: 0x00C8 [0x1E] EventEntity looks at Chacharoon (ID: 17924187/0x0111805B) and starts talking
  4: 0x00CD [0x6F] WAIT_FRAME_DELAY: Yield until WaitTime reaches zero
  5: 0x00CE [0x70] WAIT_ENTITY_RENDER_FLAG: Wait while EventEntity->Render.Flags3 bit 2 is set (cancel turn if not)
  6: 0x00CF [0xC4] SCHEDULE_MAGIC_CASTING_ALT (arg=17): EventEntity casts magic 0* on Chacharoon (ID: 17924187/0x0111805B)
  7: 0x00DB [0x00] END_REQSTACK()
```

### Event 65535.9

#### Metadata

| Field        | Value    |
|--------------|----------|
| Entrypoint   | 0x00DC   |
| Data Size    | 14 bytes |
| Instructions | 4        |

```
      00 01 02 03 04 05 06 07  08 09 0A 0B 0C 0D 0E 0F
      -- -- -- -- -- -- -- --  -- -- -- -- -- -- -- --
00D0:                                      32 04 80 5A              2..Z
00E0: 00 2C 80 2D 80 07 80 5A  01 00                    .,.-...Z..      
```

#### Opcodes

```
  0: 0x00DC [0x32] ExtData[1]->MainSpeed = 40* * 0.1
  1: 0x00DF [0x5A] UPDATE_EVENT_POSITION: Set EventEntity MovePosition to X=-3.000*, Z=-22.264*, Y=1.499*
  2: 0x00E7 [0x5A] UPDATE_EVENT_POSITION: Move EventEntity incrementally towards MovePosition
  3: 0x00E9 [0x00] END_REQSTACK()
```

### Event 65535.10

#### Metadata

| Field        | Value    |
|--------------|----------|
| Entrypoint   | 0x00EA   |
| Data Size    | 18 bytes |
| Instructions | 4        |

```
      00 01 02 03 04 05 06 07  08 09 0A 0B 0C 0D 0E 0F
      -- -- -- -- -- -- -- --  -- -- -- -- -- -- -- --
00E0:                                33 00 1C 2E 80 C4            3.....
00F0: 01 2B 80 F8 FF FF 7F 5B  80 11 01 00              .+.....[....    
```

#### Opcodes

```
  0: 0x00EA [0x33] EventEntity->Render.Flags0 &= ~ 0x200000 // Bit 21 (flag=0x00)
  1: 0x00EC [0x1C] WAIT(30* ticks)
  2: 0x00EF [0xC4] SCHEDULE_MAGIC_CASTING_ALT (arg=17): EventEntity casts magic 0* on Chacharoon (ID: 17924187/0x0111805B)
  3: 0x00FB [0x00] END_REQSTACK()
```

### Event 65535.11

#### Metadata

| Field        | Value    |
|--------------|----------|
| Entrypoint   | 0x00FC   |
| Data Size    | 28 bytes |
| Instructions | 8        |

```
      00 01 02 03 04 05 06 07  08 09 0A 0B 0C 0D 0E 0F
      -- -- -- -- -- -- -- --  -- -- -- -- -- -- -- --
00F0:                                      33 00 32 04              3.2.
0100: 80 5A 00 21 80 22 80 23  80 5A 01 5A 00 1E 80 1F  .Z.!.".#.Z.Z....
0110: 80 20 80 5A 01 22 01 00                           . .Z."..        
```

#### Opcodes

```
  0: 0x00FC [0x33] EventEntity->Render.Flags0 &= ~ 0x200000 // Bit 21 (flag=0x00)
  1: 0x00FE [0x32] ExtData[1]->MainSpeed = 40* * 0.1
  2: 0x0101 [0x5A] UPDATE_EVENT_POSITION: Set EventEntity MovePosition to X=-2.204*, Z=9.008*, Y=0.131*
  3: 0x0109 [0x5A] UPDATE_EVENT_POSITION: Move EventEntity incrementally towards MovePosition
  4: 0x010B [0x5A] UPDATE_EVENT_POSITION: Set EventEntity MovePosition to X=1.369*, Z=11.632*, Y=-0.105*
  5: 0x0113 [0x5A] UPDATE_EVENT_POSITION: Move EventEntity incrementally towards MovePosition
  6: 0x0115 [0x22] ENTITY_HIDE_FLAG(enabled=0x01)
  7: 0x0117 [0x00] END_REQSTACK()
```
