# 17924176 - DIRECTOR

## Common Data

| Field            | Value                |
|------------------|----------------------|
| Zone             | Mog Garden (ID: 280) |
| Block Size       | 66928 bytes          |
| Total Events     | 23                   |
| References Count | 654                  |

## List of Events

| Event ID              | Entrypoint   |   Size |   Instructions |
|-----------------------|--------------|--------|----------------|
| [65535](#event-65535) | 0x0000       |      1 |              1 |
| [2000](#event-2000)   | 0x0001       |      1 |              1 |
| [2001](#event-2001)   | 0x0002       |    792 |            102 |
| [2002](#event-2002)   | 0x031A       |   1048 |            145 |
| [2003](#event-2003)   | 0x0732       |    953 |            133 |
| [2004](#event-2004)   | 0x0AEB       |    642 |             85 |
| [2005](#event-2005)   | 0x0D6D       |    884 |            120 |
| [2006](#event-2006)   | 0x10E1       |   2149 |            262 |
| [2007](#event-2007)   | 0x1946       |    575 |             78 |
| [2008](#event-2008)   | 0x1B85       |    599 |             79 |
| [2010](#event-2010)   | 0x1DDC       |   2264 |            301 |
| [2011](#event-2011)   | 0x26B4       |   2106 |            278 |
| [2012](#event-2012)   | 0x2EEE       |   1874 |            263 |
| [2032](#event-2032)   | 0x3640       |   5261 |            640 |
| [2041](#event-2041)   | 0x4ACD       |   4990 |            648 |
| [2043](#event-2043)   | 0x5E4B       |   1889 |            242 |
| [2044](#event-2044)   | 0x65AC       |   4886 |            626 |
| [2045](#event-2045)   | 0x78C2       |   5829 |            769 |
| [2046](#event-2046)   | 0x8F87       |   3795 |            473 |
| [2049](#event-2049)   | 0x9E5A       |   4890 |            646 |
| [2059](#event-2059)   | 0xB174       |   6527 |            829 |
| [2061](#event-2061)   | 0xCAF3       |   2825 |            354 |
| [2062](#event-2062)   | 0xD5FC       |   9421 |           1468 |

## DAT References (imed_data)

|   Index | Hex Value   |   Dec Value |
|---------|-------------|-------------|
|       0 | 0x00C8      |         200 |
|       1 | 0x0000      |           0 |
|       2 | 0x0013      |          19 |
|       3 | 0xFFFE7960  |  4294867296 |
|       4 | 0x13B2      |        5042 |
|       5 | 0x06F8      |        1784 |
|       6 | 0x0065      |         101 |
|       7 | 0x0DF9      |        3577 |
|       8 | 0x0017      |          23 |
|       9 | 0x0118      |         280 |
|      10 | 0x005A      |          90 |
|      11 | 0x1DC6      |        7622 |
|      12 | 0x1DC7      |        7623 |
|      13 | 0x095E      |        2398 |
|      14 | 0x1DC8      |        7624 |
|      15 | 0x1DC9      |        7625 |
|      16 | 0x1DCA      |        7626 |
|      17 | 0x003C      |          60 |
|      18 | 0xFFFFFC64  |  4294966372 |
|      19 | 0x1DCC      |        7628 |
|      20 | 0x0014      |          20 |
|      21 | 0xFFFFD5C0  |  4294956480 |
|      22 | 0x126C      |        4716 |
|      23 | 0x04B0      |        1200 |
|      24 | 0x069F      |        1695 |
|      25 | 0x1DCF      |        7631 |
|      26 | 0x1DD0      |        7632 |
|      27 | 0x012C      |         300 |
|      28 | 0x1DD1      |        7633 |
|      29 | 0x0064      |         100 |
|      30 | 0x1DD2      |        7634 |
|      31 | 0x1DD3      |        7635 |
|      32 | 0x007F      |         127 |
|      33 | 0x0001      |           1 |
|      34 | 0x0078      |         120 |
|      35 | 0x001E      |          30 |
|      36 | 0x1DD4      |        7636 |
|      37 | 0x0028      |          40 |
|      38 | 0x07D0      |        2000 |
|      39 | 0x0032      |          50 |
|      40 | 0x1DD5      |        7637 |
|      41 | 0x1DD6      |        7638 |
|      42 | 0x0043      |          67 |
|      43 | 0x1DD7      |        7639 |
|      44 | 0x1DD8      |        7640 |
|      45 | 0x00C9      |         201 |
|      46 | 0x1198      |        4504 |
|      47 | 0x1DDB      |        7643 |
|      48 | 0x02B0      |         688 |
|      49 | 0x1DDC      |        7644 |
|      50 | 0x007B      |         123 |
|      51 | 0x0190      |         400 |
|      52 | 0x1DDD      |        7645 |
|      53 | 0x1DDE      |        7646 |
|      54 | 0x1DDF      |        7647 |
|      55 | 0x1362      |        4962 |
|      56 | 0x312E      |       12590 |
|      57 | 0xFFFFFE1D  |  4294966813 |
|      58 | 0x05EC      |        1516 |
|      59 | 0x4390      |       17296 |
|      60 | 0x0050      |          80 |
|      61 | 0x1DE1      |        7649 |
|      62 | 0x0002      |           2 |
|      63 | 0x1DE4      |        7652 |
|      64 | 0x1DE5      |        7653 |
|      65 | 0x1DE6      |        7654 |
|      66 | 0x0090      |         144 |
|      67 | 0xFFFFF8F8  |  4294965496 |
|      68 | 0x1DE7      |        7655 |
|      69 | 0x1DE8      |        7656 |
|      70 | 0x1DE9      |        7657 |
|      71 | 0x1DEC      |        7660 |
|      72 | 0x1DED      |        7661 |
|      73 | 0xFFFFF546  |  4294964550 |
|      74 | 0x2802      |       10242 |
|      75 | 0xFFFFFFB1  |  4294967217 |
|      76 | 0x0A9F      |        2719 |
|      77 | 0x1DEE      |        7662 |
|      78 | 0x1DEF      |        7663 |
|      79 | 0x044C      |        1100 |
|      80 | 0x1DF0      |        7664 |
|      81 | 0x1DF1      |        7665 |
|      82 | 0x1DF2      |        7666 |
|      83 | 0x1DF3      |        7667 |
|      84 | 0x1DF4      |        7668 |
|      85 | 0x1DF8      |        7672 |
|      86 | 0x1DF9      |        7673 |
|      87 | 0x01C7      |         455 |
|      88 | 0xFFFF85F0  |  4294936048 |
|      89 | 0x09E4      |        2532 |
|      90 | 0x0BE6      |        3046 |
|      91 | 0x00F5      |         245 |
|      92 | 0x00AA      |         170 |
|      93 | 0x1DFA      |        7674 |
|      94 | 0x002D      |          45 |
|      95 | 0x1DFB      |        7675 |
|      96 | 0x1DFC      |        7676 |
|      97 | 0x1DFD      |        7677 |
|      98 | 0x0046      |          70 |
|      99 | 0x065E      |        1630 |
|     100 | 0xFFFF7D09  |  4294933769 |
|     101 | 0x0BBC      |        3004 |
|     102 | 0x0C46      |        3142 |
|     103 | 0x0F29      |        3881 |
|     104 | 0xFFFF774B  |  4294932299 |
|     105 | 0x0D3F      |        3391 |
|     106 | 0x0B8A      |        2954 |
|     107 | 0x1DFE      |        7678 |
|     108 | 0x1DFF      |        7679 |
|     109 | 0x1E00      |        7680 |
|     110 | 0xFFFFFAEC  |  4294965996 |
|     111 | 0x1E01      |        7681 |
|     112 | 0x1E02      |        7682 |
|     113 | 0x1E03      |        7683 |
|     114 | 0x1E04      |        7684 |
|     115 | 0x1E05      |        7685 |
|     116 | 0x0566      |        1382 |
|     117 | 0x29E2      |       10722 |
|     118 | 0xFFFFB076  |  4294946934 |
|     119 | 0x05DC      |        1500 |
|     120 | 0x1E08      |        7688 |
|     121 | 0x00E6      |         230 |
|     122 | 0x1E09      |        7689 |
|     123 | 0x0320      |         800 |
|     124 | 0x1E0A      |        7690 |
|     125 | 0x02BC      |         700 |
|     126 | 0x1E0B      |        7691 |
|     127 | 0x100D      |        4109 |
|     128 | 0x1E0E      |        7694 |
|     129 | 0x1E0F      |        7695 |
|     130 | 0x1E10      |        7696 |
|     131 | 0x1E11      |        7697 |
|     132 | 0x1E12      |        7698 |
|     133 | 0x1E13      |        7699 |
|     134 | 0x000C      |          12 |
|     135 | 0x1E14      |        7700 |
|     136 | 0x1E15      |        7701 |
|     137 | 0x0005      |           5 |
|     138 | 0x0006      |           6 |
|     139 | 0x1E16      |        7702 |
|     140 | 0x1E17      |        7703 |
|     141 | 0x1E18      |        7704 |
|     142 | 0x1E19      |        7705 |
|     143 | 0x1E1A      |        7706 |
|     144 | 0x1E1B      |        7707 |
|     145 | 0x1E1C      |        7708 |
|     146 | 0x1CA0      |        7328 |
|     147 | 0x1E1D      |        7709 |
|     148 | 0x1E1E      |        7710 |
|     149 | 0x1E1F      |        7711 |
|     150 | 0x1E20      |        7712 |
|     151 | 0x1E21      |        7713 |
|     152 | 0x1E22      |        7714 |
|     153 | 0x1E23      |        7715 |
|     154 | 0x1E24      |        7716 |
|     155 | 0x1E25      |        7717 |
|     156 | 0x1E26      |        7718 |
|     157 | 0x1E27      |        7719 |
|     158 | 0x1E28      |        7720 |
|     159 | 0x1E29      |        7721 |
|     160 | 0x1E2A      |        7722 |
|     161 | 0x1E2B      |        7723 |
|     162 | 0x1E2C      |        7724 |
|     163 | 0x1E2D      |        7725 |
|     164 | 0x1E2E      |        7726 |
|     165 | 0x1E2F      |        7727 |
|     166 | 0x1E30      |        7728 |
|     167 | 0x1E31      |        7729 |
|     168 | 0x000E      |          14 |
|     169 | 0x1E32      |        7730 |
|     170 | 0x1E33      |        7731 |
|     171 | 0x00A3      |         163 |
|     172 | 0x1E34      |        7732 |
|     173 | 0x0831      |        2097 |
|     174 | 0x1E35      |        7733 |
|     175 | 0x1E36      |        7734 |
|     176 | 0x1E37      |        7735 |
|     177 | 0x1E38      |        7736 |
|     178 | 0x1E39      |        7737 |
|     179 | 0x1E3A      |        7738 |
|     180 | 0x1E3B      |        7739 |
|     181 | 0x1E3C      |        7740 |
|     182 | 0x000A      |          10 |
|     183 | 0x1E3D      |        7741 |
|     184 | 0x1E3E      |        7742 |
|     185 | 0x1E3F      |        7743 |
|     186 | 0x1E40      |        7744 |
|     187 | 0x1E41      |        7745 |
|     188 | 0x1E42      |        7746 |
|     189 | 0x1E43      |        7747 |
|     190 | 0x1E44      |        7748 |
|     191 | 0x1E45      |        7749 |
|     192 | 0x1E46      |        7750 |
|     193 | 0x1E47      |        7751 |
|     194 | 0x1E48      |        7752 |
|     195 | 0x1E49      |        7753 |
|     196 | 0x1E4A      |        7754 |
|     197 | 0x1E4B      |        7755 |
|     198 | 0x0010      |          16 |
|     199 | 0x1E4C      |        7756 |
|     200 | 0x0FD2      |        4050 |
|     201 | 0x1E4D      |        7757 |
|     202 | 0x1E4E      |        7758 |
|     203 | 0x1E4F      |        7759 |
|     204 | 0x1E50      |        7760 |
|     205 | 0x1E51      |        7761 |
|     206 | 0x1E52      |        7762 |
|     207 | 0x1E53      |        7763 |
|     208 | 0x055B      |        1371 |
|     209 | 0x1E54      |        7764 |
|     210 | 0x1E55      |        7765 |
|     211 | 0x1E56      |        7766 |
|     212 | 0x1E57      |        7767 |
|     213 | 0x1E58      |        7768 |
|     214 | 0x1E59      |        7769 |
|     215 | 0x0800      |        2048 |
|     216 | 0x1E5A      |        7770 |
|     217 | 0x1E5B      |        7771 |
|     218 | 0x1E5C      |        7772 |
|     219 | 0x1E5D      |        7773 |
|     220 | 0x1E5E      |        7774 |
|     221 | 0x1E5F      |        7775 |
|     222 | 0x1E60      |        7776 |
|     223 | 0x1E61      |        7777 |
|     224 | 0x1E62      |        7778 |
|     225 | 0x1E63      |        7779 |
|     226 | 0x1E64      |        7780 |
|     227 | 0x1E65      |        7781 |
|     228 | 0x1E66      |        7782 |
|     229 | 0x029C      |         668 |
|     230 | 0x1E97      |        7831 |
|     231 | 0x1E98      |        7832 |
|     232 | 0x1E99      |        7833 |
|     233 | 0x1E9A      |        7834 |
|     234 | 0x1E9B      |        7835 |
|     235 | 0x1E9C      |        7836 |
|     236 | 0x1E9D      |        7837 |
|     237 | 0x1E9E      |        7838 |
|     238 | 0x1EA0      |        7840 |
|     239 | 0x1E9F      |        7839 |
|     240 | 0x1EA1      |        7841 |
|     241 | 0x1678      |        5752 |
|     242 | 0x1151      |        4433 |
|     243 | 0x1EA2      |        7842 |
|     244 | 0x1EA3      |        7843 |
|     245 | 0x1EA4      |        7844 |
|     246 | 0x1EA5      |        7845 |
|     247 | 0x1EA6      |        7846 |
|     248 | 0x1EA7      |        7847 |
|     249 | 0x1EA8      |        7848 |
|     250 | 0x1EA9      |        7849 |
|     251 | 0x1EAA      |        7850 |
|     252 | 0x00A9      |         169 |
|     253 | 0x006E      |         110 |
|     254 | 0x1EAB      |        7851 |
|     255 | 0x1EAC      |        7852 |
|     256 | 0x1EAD      |        7853 |
|     257 | 0x1EAE      |        7854 |
|     258 | 0x1EAF      |        7855 |
|     259 | 0x1EB0      |        7856 |
|     260 | 0x1EB1      |        7857 |
|     261 | 0x37A2      |       14242 |
|     262 | 0x1EB2      |        7858 |
|     263 | 0x1EB3      |        7859 |
|     264 | 0x1EB4      |        7860 |
|     265 | 0x1EB5      |        7861 |
|     266 | 0x0956      |        2390 |
|     267 | 0x1EB6      |        7862 |
|     268 | 0x1EB7      |        7863 |
|     269 | 0x1EB8      |        7864 |
|     270 | 0x1EB9      |        7865 |
|     271 | 0x0036      |          54 |
|     272 | 0x1EBA      |        7866 |
|     273 | 0x0FA0      |        4000 |
|     274 | 0x1EBB      |        7867 |
|     275 | 0x1EBC      |        7868 |
|     276 | 0x0080      |         128 |
|     277 | 0x1EBD      |        7869 |
|     278 | 0x1EBE      |        7870 |
|     279 | 0x0384      |         900 |
|     280 | 0x00FA      |         250 |
|     281 | 0x1EBF      |        7871 |
|     282 | 0x1EC0      |        7872 |
|     283 | 0x1EC1      |        7873 |
|     284 | 0x02AD      |         685 |
|     285 | 0x1F4B      |        8011 |
|     286 | 0x0971      |        2417 |
|     287 | 0x097F      |        2431 |
|     288 | 0x098D      |        2445 |
|     289 | 0x1F4C      |        8012 |
|     290 | 0x0007      |           7 |
|     291 | 0x1F4D      |        8013 |
|     292 | 0x1F4E      |        8014 |
|     293 | 0x1F4F      |        8015 |
|     294 | 0x1F50      |        8016 |
|     295 | 0x1F51      |        8017 |
|     296 | 0x1F52      |        8018 |
|     297 | 0x0009      |           9 |
|     298 | 0x1F53      |        8019 |
|     299 | 0x1F54      |        8020 |
|     300 | 0x1F55      |        8021 |
|     301 | 0x1F56      |        8022 |
|     302 | 0x1F57      |        8023 |
|     303 | 0x1F58      |        8024 |
|     304 | 0x1F59      |        8025 |
|     305 | 0x1F5A      |        8026 |
|     306 | 0x1F5B      |        8027 |
|     307 | 0x1F5C      |        8028 |
|     308 | 0x1F5D      |        8029 |
|     309 | 0x0003      |           3 |
|     310 | 0x0008      |           8 |
|     311 | 0x1F5E      |        8030 |
|     312 | 0x1F5F      |        8031 |
|     313 | 0x0797      |        1943 |
|     314 | 0x1F60      |        8032 |
|     315 | 0x1F61      |        8033 |
|     316 | 0x1F62      |        8034 |
|     317 | 0x1F63      |        8035 |
|     318 | 0x1F64      |        8036 |
|     319 | 0x1F65      |        8037 |
|     320 | 0x1F66      |        8038 |
|     321 | 0x1F67      |        8039 |
|     322 | 0x0015      |          21 |
|     323 | 0x1F68      |        8040 |
|     324 | 0x1F69      |        8041 |
|     325 | 0x1F6A      |        8042 |
|     326 | 0x1F6B      |        8043 |
|     327 | 0x1F6C      |        8044 |
|     328 | 0x1F6D      |        8045 |
|     329 | 0x1F6E      |        8046 |
|     330 | 0x1F6F      |        8047 |
|     331 | 0x1F70      |        8048 |
|     332 | 0x1F71      |        8049 |
|     333 | 0x1F72      |        8050 |
|     334 | 0x1F73      |        8051 |
|     335 | 0x1F74      |        8052 |
|     336 | 0x1F75      |        8053 |
|     337 | 0x1F76      |        8054 |
|     338 | 0x1F77      |        8055 |
|     339 | 0x1F78      |        8056 |
|     340 | 0x1F79      |        8057 |
|     341 | 0x1F7A      |        8058 |
|     342 | 0x1F7B      |        8059 |
|     343 | 0x426E      |       17006 |
|     344 | 0x1653      |        5715 |
|     345 | 0x03AE      |         942 |
|     346 | 0x1F7C      |        8060 |
|     347 | 0x1F7D      |        8061 |
|     348 | 0x1F7E      |        8062 |
|     349 | 0x1F7F      |        8063 |
|     350 | 0x1F80      |        8064 |
|     351 | 0x1F81      |        8065 |
|     352 | 0x1F84      |        8068 |
|     353 | 0x1F85      |        8069 |
|     354 | 0x1F86      |        8070 |
|     355 | 0x1F87      |        8071 |
|     356 | 0x1F88      |        8072 |
|     357 | 0x1F89      |        8073 |
|     358 | 0x1F8A      |        8074 |
|     359 | 0x1F8B      |        8075 |
|     360 | 0x1F8C      |        8076 |
|     361 | 0x1F8D      |        8077 |
|     362 | 0x1F8E      |        8078 |
|     363 | 0x1F8F      |        8079 |
|     364 | 0x1F90      |        8080 |
|     365 | 0x01CD      |         461 |
|     366 | 0x1F91      |        8081 |
|     367 | 0x1F92      |        8082 |
|     368 | 0x1F93      |        8083 |
|     369 | 0x1F94      |        8084 |
|     370 | 0x1F95      |        8085 |
|     371 | 0x1F96      |        8086 |
|     372 | 0x1F97      |        8087 |
|     373 | 0x1F98      |        8088 |
|     374 | 0x1F99      |        8089 |
|     375 | 0x1F9A      |        8090 |
|     376 | 0x0096      |         150 |
|     377 | 0x1F9B      |        8091 |
|     378 | 0x1F9C      |        8092 |
|     379 | 0x1F9D      |        8093 |
|     380 | 0x1F9E      |        8094 |
|     381 | 0x1F9F      |        8095 |
|     382 | 0x1FA0      |        8096 |
|     383 | 0x1FA1      |        8097 |
|     384 | 0x1FA2      |        8098 |
|     385 | 0x1FA3      |        8099 |
|     386 | 0x1FA4      |        8100 |
|     387 | 0x1FA5      |        8101 |
|     388 | 0x1FA6      |        8102 |
|     389 | 0x1FA7      |        8103 |
|     390 | 0x1FA8      |        8104 |
|     391 | 0x1FA9      |        8105 |
|     392 | 0x1FAA      |        8106 |
|     393 | 0x1FAB      |        8107 |
|     394 | 0x1FAC      |        8108 |
|     395 | 0x1FAD      |        8109 |
|     396 | 0x1FAE      |        8110 |
|     397 | 0x1FAF      |        8111 |
|     398 | 0x1FB0      |        8112 |
|     399 | 0x1FB1      |        8113 |
|     400 | 0x02B1      |         689 |
|     401 | 0x1FB6      |        8118 |
|     402 | 0x1FB7      |        8119 |
|     403 | 0x1FB8      |        8120 |
|     404 | 0x1FB9      |        8121 |
|     405 | 0x1FBA      |        8122 |
|     406 | 0x1FBB      |        8123 |
|     407 | 0x1FBC      |        8124 |
|     408 | 0x0400      |        1024 |
|     409 | 0x1FBD      |        8125 |
|     410 | 0x1FBE      |        8126 |
|     411 | 0x1FBF      |        8127 |
|     412 | 0x1FC0      |        8128 |
|     413 | 0x1FC1      |        8129 |
|     414 | 0x090B      |        2315 |
|     415 | 0x1FC2      |        8130 |
|     416 | 0x1FC3      |        8131 |
|     417 | 0x001D      |          29 |
|     418 | 0x1FC4      |        8132 |
|     419 | 0x1FC5      |        8133 |
|     420 | 0x1FC6      |        8134 |
|     421 | 0x1FC7      |        8135 |
|     422 | 0x1FC8      |        8136 |
|     423 | 0x1FC9      |        8137 |
|     424 | 0x006C      |         108 |
|     425 | 0x1FCA      |        8138 |
|     426 | 0x1FCB      |        8139 |
|     427 | 0x1FCC      |        8140 |
|     428 | 0x1FCD      |        8141 |
|     429 | 0x1FCE      |        8142 |
|     430 | 0x1FCF      |        8143 |
|     431 | 0x1FD0      |        8144 |
|     432 | 0x1FD1      |        8145 |
|     433 | 0x1FD2      |        8146 |
|     434 | 0x1FD3      |        8147 |
|     435 | 0x1FD4      |        8148 |
|     436 | 0x1FD5      |        8149 |
|     437 | 0x1FD6      |        8150 |
|     438 | 0x1FD7      |        8151 |
|     439 | 0x1FD8      |        8152 |
|     440 | 0x1FD9      |        8153 |
|     441 | 0x1FDA      |        8154 |
|     442 | 0x1FDB      |        8155 |
|     443 | 0x1FDC      |        8156 |
|     444 | 0x1FDD      |        8157 |
|     445 | 0x1FDE      |        8158 |
|     446 | 0x1FDF      |        8159 |
|     447 | 0x1FE0      |        8160 |
|     448 | 0x110E      |        4366 |
|     449 | 0x1FE1      |        8161 |
|     450 | 0x009F      |         159 |
|     451 | 0x02B2      |         690 |
|     452 | 0x1FE3      |        8163 |
|     453 | 0x1FE4      |        8164 |
|     454 | 0x1FE5      |        8165 |
|     455 | 0x1FE6      |        8166 |
|     456 | 0x1FE7      |        8167 |
|     457 | 0x1FE8      |        8168 |
|     458 | 0x1FE9      |        8169 |
|     459 | 0x1FEA      |        8170 |
|     460 | 0x1FEB      |        8171 |
|     461 | 0x1FEC      |        8172 |
|     462 | 0x1FED      |        8173 |
|     463 | 0x1FEE      |        8174 |
|     464 | 0x1FEF      |        8175 |
|     465 | 0x1FF0      |        8176 |
|     466 | 0x1FF1      |        8177 |
|     467 | 0x1FF2      |        8178 |
|     468 | 0x1FF3      |        8179 |
|     469 | 0x1FF4      |        8180 |
|     470 | 0x1FF5      |        8181 |
|     471 | 0x1FF6      |        8182 |
|     472 | 0x1FF7      |        8183 |
|     473 | 0x1FF8      |        8184 |
|     474 | 0x1FF9      |        8185 |
|     475 | 0x1FFA      |        8186 |
|     476 | 0x1FFB      |        8187 |
|     477 | 0x1FFC      |        8188 |
|     478 | 0x0332      |         818 |
|     479 | 0x1FFD      |        8189 |
|     480 | 0x1FFE      |        8190 |
|     481 | 0x1FFF      |        8191 |
|     482 | 0x2000      |        8192 |
|     483 | 0x02B3      |         691 |
|     484 | 0x2002      |        8194 |
|     485 | 0x1155      |        4437 |
|     486 | 0x2003      |        8195 |
|     487 | 0x2004      |        8196 |
|     488 | 0x2005      |        8197 |
|     489 | 0x2006      |        8198 |
|     490 | 0x2007      |        8199 |
|     491 | 0x2008      |        8200 |
|     492 | 0x2009      |        8201 |
|     493 | 0x200A      |        8202 |
|     494 | 0x200B      |        8203 |
|     495 | 0x200C      |        8204 |
|     496 | 0x200D      |        8205 |
|     497 | 0x200E      |        8206 |
|     498 | 0x2010      |        8208 |
|     499 | 0x200F      |        8207 |
|     500 | 0x2011      |        8209 |
|     501 | 0x2012      |        8210 |
|     502 | 0x2013      |        8211 |
|     503 | 0x041D      |        1053 |
|     504 | 0x2014      |        8212 |
|     505 | 0x2015      |        8213 |
|     506 | 0x2016      |        8214 |
|     507 | 0x2017      |        8215 |
|     508 | 0x2018      |        8216 |
|     509 | 0x2019      |        8217 |
|     510 | 0x201A      |        8218 |
|     511 | 0x201B      |        8219 |
|     512 | 0x201C      |        8220 |
|     513 | 0x201D      |        8221 |
|     514 | 0x201E      |        8222 |
|     515 | 0x201F      |        8223 |
|     516 | 0x0004      |           4 |
|     517 | 0x2020      |        8224 |
|     518 | 0x2021      |        8225 |
|     519 | 0x2022      |        8226 |
|     520 | 0x2023      |        8227 |
|     521 | 0x2024      |        8228 |
|     522 | 0x2025      |        8229 |
|     523 | 0x2026      |        8230 |
|     524 | 0x2027      |        8231 |
|     525 | 0x001F      |          31 |
|     526 | 0x02AC      |         684 |
|     527 | 0x2028      |        8232 |
|     528 | 0x2029      |        8233 |
|     529 | 0x202A      |        8234 |
|     530 | 0x0A49      |        2633 |
|     531 | 0x202B      |        8235 |
|     532 | 0x0016      |          22 |
|     533 | 0x202C      |        8236 |
|     534 | 0x202D      |        8237 |
|     535 | 0x053C      |        1340 |
|     536 | 0x007C      |         124 |
|     537 | 0x202E      |        8238 |
|     538 | 0x202F      |        8239 |
|     539 | 0x203A      |        8250 |
|     540 | 0x2030      |        8240 |
|     541 | 0x2031      |        8241 |
|     542 | 0x2032      |        8242 |
|     543 | 0x2033      |        8243 |
|     544 | 0x2034      |        8244 |
|     545 | 0x2035      |        8245 |
|     546 | 0x2036      |        8246 |
|     547 | 0x2037      |        8247 |
|     548 | 0x2038      |        8248 |
|     549 | 0x2039      |        8249 |
|     550 | 0x203B      |        8251 |
|     551 | 0x203C      |        8252 |
|     552 | 0x203D      |        8253 |
|     553 | 0x203E      |        8254 |
|     554 | 0x203F      |        8255 |
|     555 | 0x2040      |        8256 |
|     556 | 0x2041      |        8257 |
|     557 | 0x2042      |        8258 |
|     558 | 0x2043      |        8259 |
|     559 | 0x2044      |        8260 |
|     560 | 0x2045      |        8261 |
|     561 | 0x0BE5      |        3045 |
|     562 | 0x2046      |        8262 |
|     563 | 0x2047      |        8263 |
|     564 | 0x2048      |        8264 |
|     565 | 0x2049      |        8265 |
|     566 | 0x204A      |        8266 |
|     567 | 0x204B      |        8267 |
|     568 | 0x02EC      |         748 |
|     569 | 0x204C      |        8268 |
|     570 | 0x204D      |        8269 |
|     571 | 0x204E      |        8270 |
|     572 | 0x000F      |          15 |
|     573 | 0x2051      |        8273 |
|     574 | 0x2052      |        8274 |
|     575 | 0x2053      |        8275 |
|     576 | 0x2054      |        8276 |
|     577 | 0x2055      |        8277 |
|     578 | 0x2056      |        8278 |
|     579 | 0x2057      |        8279 |
|     580 | 0x2058      |        8280 |
|     581 | 0x2059      |        8281 |
|     582 | 0x205A      |        8282 |
|     583 | 0x205B      |        8283 |
|     584 | 0x205C      |        8284 |
|     585 | 0x00A0      |         160 |
|     586 | 0x0A52      |        2642 |
|     587 | 0x0A9C      |        2716 |
|     588 | 0x205D      |        8285 |
|     589 | 0x205E      |        8286 |
|     590 | 0x205F      |        8287 |
|     591 | 0x000D      |          13 |
|     592 | 0x008C      |         140 |
|     593 | 0x2060      |        8288 |
|     594 | 0x2061      |        8289 |
|     595 | 0x2062      |        8290 |
|     596 | 0x2063      |        8291 |
|     597 | 0x02F3      |         755 |
|     598 | 0x2065      |        8293 |
|     599 | 0x2066      |        8294 |
|     600 | 0x2067      |        8295 |
|     601 | 0x0759      |        1881 |
|     602 | 0x2068      |        8296 |
|     603 | 0x2069      |        8297 |
|     604 | 0x206A      |        8298 |
|     605 | 0x206B      |        8299 |
|     606 | 0x206C      |        8300 |
|     607 | 0x00A1      |         161 |
|     608 | 0x206D      |        8301 |
|     609 | 0x206E      |        8302 |
|     610 | 0x206F      |        8303 |
|     611 | 0x2070      |        8304 |
|     612 | 0x2071      |        8305 |
|     613 | 0x2072      |        8306 |
|     614 | 0x2073      |        8307 |
|     615 | 0x2074      |        8308 |
|     616 | 0x2075      |        8309 |
|     617 | 0x2076      |        8310 |
|     618 | 0x2077      |        8311 |
|     619 | 0x2078      |        8312 |
|     620 | 0x2079      |        8313 |
|     621 | 0x207A      |        8314 |
|     622 | 0x207B      |        8315 |
|     623 | 0x207C      |        8316 |
|     624 | 0x207D      |        8317 |
|     625 | 0x207E      |        8318 |
|     626 | 0x207F      |        8319 |
|     627 | 0x09C5      |        2501 |
|     628 | 0x09C3      |        2499 |
|     629 | 0x09C1      |        2497 |
|     630 | 0x2080      |        8320 |
|     631 | 0x2081      |        8321 |
|     632 | 0x2082      |        8322 |
|     633 | 0x2083      |        8323 |
|     634 | 0x001A      |          26 |
|     635 | 0x001B      |          27 |
|     636 | 0x001C      |          28 |
|     637 | 0x0012      |          18 |
|     638 | 0x0018      |          24 |
|     639 | 0x0019      |          25 |
|     640 | 0x000B      |          11 |
|     641 | 0x0011      |          17 |
|     642 | 0x0063      |          99 |
|     643 | 0x0049      |          73 |
|     644 | 0xFFFFF62B  |  4294964779 |
|     645 | 0xFFFFEC34  |  4294962228 |
|     646 | 0x01C4      |         452 |
|     647 | 0x0CF5      |        3317 |
|     648 | 0x0048      |          72 |
|     649 | 0x582C8     |      361160 |
|     650 | 0xFFF788EE  |  4294412526 |
|     651 | 0xFFFFF2F4  |  4294963956 |
|     652 | 0x064D      |        1613 |
|     653 | 0xFFFFFFFF  |  4294967295 |

## String References

- **7328**: @@
- **7724**: What say you? [Adopt the poor kitten./Send her to the pound.]
- **7751**: What will you do? ["Free" is my favorite word./He's not even worth "free."]
- **7774**: What do you say? [Show me what you've got./Burrow your way outta my sight.]
- **7851**: @
- **7870**: Peruse the prose? [I will without a single scruple./I wager I won't.]
- **8016**: Do you have a rousing response? [Hold your halberd, kupo!/Who penned those profound pages?/No. Stay silent.]
- **8049**: Do you know what's causing them? [A problem with the World Tree./Not in the least.]
- **8085**: Heard of any bad beasties around? [Yes, I have./No, not a one.]
- **8121**: Care to cast a quip? [They're those crazy crabs from before!/I really don't recall, kupo.]
- **8227**: Had you heard of this heresy? [Yup./Nope.]
- **8259**: Hear out this parent's plea? [Sure, why not./Not today.]
- **8277**: What will you do? [Convince him./Pretend you didn't hear him.]
- **8285**: The $3 satisfies the monster and triggers the $3.

## Events

### Event 65535

#### Metadata

| Field        | Value   |
|--------------|---------|
| Entrypoint   | 0x0000  |
| Data Size    | 1 bytes |
| Instructions | 1       |

```
      00 01 02 03 04 05 06 07  08 09 0A 0B 0C 0D 0E 0F
      -- -- -- -- -- -- -- --  -- -- -- -- -- -- -- --
0000: 00                                                .               
```

#### Opcodes

```
  0: 0x0000 [0x00] END_REQSTACK()
```

### Event 2000

#### Metadata

| Field        | Value   |
|--------------|---------|
| Entrypoint   | 0x0001  |
| Data Size    | 1 bytes |
| Instructions | 1       |

```
      00 01 02 03 04 05 06 07  08 09 0A 0B 0C 0D 0E 0F
      -- -- -- -- -- -- -- --  -- -- -- -- -- -- -- --
0000:    00                                              .              
```

#### Opcodes

```
  0: 0x0001 [0x00] END_REQSTACK()
```

### Event 2001

#### Metadata

| Field        | Value     |
|--------------|-----------|
| Entrypoint   | 0x0002    |
| Data Size    | 792 bytes |
| Instructions | 102       |

```
      00 01 02 03 04 05 06 07  08 09 0A 0B 0C 0D 0E 0F
      -- -- -- -- -- -- -- --  -- -- -- -- -- -- -- --
0000:       42 46 01 29 80 F0  FF FF 7F 03 45 00 80 F0    BF.)......E...
0010: FF FF 7F F0 FF FF 7F 66  64 6F 31 01 80 55 00 80  .......fdo1..U..
0020: F0 FF FF 7F F0 FF FF 7F  66 64 6F 31 38 02 80 4E  ........fdo18..N
0030: 00 F0 FF FF 7F 92 01 1D  80 11 01 92 01 20 80 11  ............. ..
0040: 01 92 01 21 80 11 01 92  01 22 80 11 01 92 01 8E  ...!....."......
0050: 80 11 01 4E 01 58 80 11  01 4E 01 57 80 11 01 4E  ...N.X...N.W...N
0060: 01 59 80 11 01 4E 01 6A  80 11 01 4E 01 6B 80 11  .Y...N.j...N.k..
0070: 01 4E 01 6C 80 11 01 4E  01 7D 80 11 01 4E 01 87  .N.l...N.}...N..
0080: 80 11 01 BA 87 80 11 01  03 80 03 80 01 80 01 80  ................
0090: 4E 01 89 80 11 01 80 1D  80 11 01 80 F0 FF FF 7F  N...............
00A0: 37 04 80 05 80 06 80 07  80 29 08 F0 FF FF 7F 0C  7........)......
00B0: 45 08 80 F0 FF FF 7F F0  FF FF 7F 73 35 30 30 01  E..........s500.
00C0: 80 27 08 F0 FF FF 7F 0D  45 00 80 F0 FF FF 7F F0  .'......E.......
00D0: FF FF 7F 66 64 69 31 01  80 55 00 80 F0 FF FF 7F  ...fdi1..U......
00E0: F0 FF FF 7F 66 64 69 31  1C 09 80 4A 1D 80 11 01  ....fdi1...J....
00F0: F0 FF FF 7F 6F 76 1D 80  11 01 52 08 80 F0 FF FF  ....ov....R.....
0100: 7F F0 FF FF 7F 73 35 30  30 45 08 80 F0 FF FF 7F  .....s500E......
0110: F0 FF FF 7F 73 35 30 32  01 80 79 00 F0 FF FF 7F  ....s502..y.....
0120: 1D 80 11 01 1C 0A 80 29  08 1D 80 11 01 7A 2A 08  .......).....z*.
0130: F0 FF FF 7F 52 08 80 F0  FF FF 7F F0 FF FF 7F 73  ....R..........s
0140: 35 30 32 45 08 80 F0 FF  FF 7F F0 FF FF 7F 73 35  502E..........s5
0150: 30 33 01 80 29 08 1D 80  11 01 29 2B 1D 80 11 01  03..).....)+....
0160: 0B 80 23 29 08 1D 80 11  01 2A 29 08 1D 80 11 01  ..#).....*).....
0170: 2B 29 08 1D 80 11 01 2C  29 08 1D 80 11 01 35 2B  +).....,).....5+
0180: 1D 80 11 01 0C 80 23 29  08 1D 80 11 01 36 29 08  ......#).....6).
0190: 1D 80 11 01 37 29 08 1D  80 11 01 38 29 08 1D 80  ....7).....8)...
01A0: 11 01 53 03 03 10 0D 80  2B 1D 80 11 01 0E 80 23  ..S.....+......#
01B0: 29 08 1D 80 11 01 54 52  08 80 F0 FF FF 7F F0 FF  ).....TR........
01C0: FF 7F 73 35 30 33 45 08  80 F0 FF FF 7F F0 FF FF  ..s503E.........
01D0: 7F 73 35 30 31 01 80 29  08 1D 80 11 01 43 2B 1D  .s501..).....C+.
01E0: 80 11 01 0F 80 23 29 08  1D 80 11 01 44 52 08 80  .....#).....DR..
01F0: F0 FF FF 7F F0 FF FF 7F  73 35 30 31 45 08 80 F0  ........s501E...
0200: FF FF 7F F0 FF FF 7F 73  35 35 39 01 80 29 08 1D  .......s559..)..
0210: 80 11 01 47 2B 1D 80 11  01 10 80 23 29 08 1D 80  ...G+......#)...
0220: 11 01 48 52 08 80 F0 FF  FF 7F F0 FF FF 7F 73 35  ..HR..........s5
0230: 35 39 45 08 80 F0 FF FF  7F F0 FF FF 7F 73 35 30  59E..........s50
0240: 34 01 80 7B F0 FF FF 7F  79 00 F0 FF FF 7F 50 80  4..{....y.....P.
0250: 11 01 27 08 1D 80 11 01  7B 1C 11 80 4A 1D 80 11  ..'.....{...J...
0260: 01 50 80 11 01 4B F0 FF  FF 7F 12 80 1C 11 80 2A  .P...K.........*
0270: 08 1D 80 11 01 52 08 80  F0 FF FF 7F F0 FF FF 7F  .....R..........
0280: 73 35 30 34 45 08 80 F0  FF FF 7F F0 FF FF 7F 73  s504E..........s
0290: 35 30 36 01 80 2B 1D 80  11 01 13 80 23 45 00 80  506..+......#E..
02A0: F0 FF FF 7F F0 FF FF 7F  66 64 6F 31 01 80 55 00  ........fdo1..U.
02B0: 80 F0 FF FF 7F F0 FF FF  7F 66 64 6F 31 52 08 80  .........fdo1R..
02C0: F0 FF FF 7F F0 FF FF 7F  73 35 30 36 92 00 1D 80  ........s506....
02D0: 11 01 92 00 57 80 11 01  4E 00 58 80 11 01 4E 00  ....W...N.X...N.
02E0: 59 80 11 01 4E 00 6A 80  11 01 4E 00 6B 80 11 01  Y...N.j...N.k...
02F0: 4E 00 6C 80 11 01 4E 00  7D 80 11 01 29 08 1D 80  N.l...N.}...)...
0300: 11 01 6E 46 00 45 00 80  F0 FF FF 7F F0 FF FF 7F  ..nF.E..........
0310: 66 64 69 31 01 80 20 00  21 00                    fdi1.. .!.      
```

#### Opcodes

```
  0: 0x0002 [0x42] SET_CLI_EVENT_CANCEL_DATA()
  1: 0x0003 [0x46] CAMERA_CONTROL: Disable user control
  2: 0x0005 [0x29] REQ_SET_WAIT(priority=0x80, entity_id=LocalPlayer, tag_num=0x03)
  3: 0x000C [0x45] LOAD_SCHEDULED_TASK: Load scheduler "fdo1" with entities [LocalPlayer, LocalPlayer], work=[200*, 0*]
  4: 0x001D [0x55] WAIT_LOAD_SCHEDULER: Wait for scheduler "fdo1" with entities [LocalPlayer, LocalPlayer], work=200*
  5: 0x002C [0x38] SET_CLIENT_EVENT_MODE(mode=19*)
  6: 0x002F [0x4E] SET_ENTITY_HIDE_FLAG: Show LocalPlayer
  7: 0x0035 [0x92] Green Thumb Moogle (ID: 17924125/0x0111801D)->Render.Flags3 ^= 0x01
  8: 0x003B [0x92] Garden Furrow (ID: 17924128/0x01118020)->Render.Flags3 ^= 0x01
  9: 0x0041 [0x92] Garden Furrow #2 (ID: 17924129/0x01118021)->Render.Flags3 ^= 0x01
 10: 0x0047 [0x92] Garden Furrow #3 (ID: 17924130/0x01118022)->Render.Flags3 ^= 0x01
 11: 0x004D [0x92] Ephemeral Moogle (ID: 17924238/0x0111808E)->Render.Flags3 ^= 0x01
 12: 0x0053 [0x4E] SET_ENTITY_HIDE_FLAG: Hide Susuroon (ID: 17924184/0x01118058)
 13: 0x0059 [0x4E] SET_ENTITY_HIDE_FLAG: Hide Kuyin Hathdenna (ID: 17924183/0x01118057)
 14: 0x005F [0x4E] SET_ENTITY_HIDE_FLAG: Hide Yeestog (ID: 17924185/0x01118059)
 15: 0x0065 [0x4E] SET_ENTITY_HIDE_FLAG: Hide Kuyin Hathdenna (ID: 17924202/0x0111806A)
 16: 0x006B [0x4E] SET_ENTITY_HIDE_FLAG: Hide Susuroon (ID: 17924203/0x0111806B)
 17: 0x0071 [0x4E] SET_ENTITY_HIDE_FLAG: Hide Yeestog (ID: 17924204/0x0111806C)
 18: 0x0077 [0x4E] SET_ENTITY_HIDE_FLAG: Hide Porter Moogle (ID: 17924221/0x0111807D)
 19: 0x007D [0x4E] SET_ENTITY_HIDE_FLAG: Hide Chacharoon (ID: 17924231/0x01118087)
 20: 0x0083 [0xBA] SET_ENTITY_POSITION(entity_id=Chacharoon (ID: 17924231/0x01118087), pos_x=-100.000*, pos_z=-100.000*, pos_y=0.000*, direction=0.0°*)
 21: 0x0090 [0x4E] SET_ENTITY_HIDE_FLAG: Hide Breeding Monster (ID: 17924233/0x01118089)
 22: 0x0096 [0x80] LOAD_WAIT(entity=Green Thumb Moogle (ID: 17924125/0x0111801D))
 23: 0x009B [0x80] LOAD_WAIT(entity=LocalPlayer)
 24: 0x00A0 [0x37] UPDATE_EVENT_POSITION_AND_DIR: x=5.042*, z=1.784*, y=0.101*, direction=314.4°*
 25: 0x00A9 [0x29] REQ_SET_WAIT(priority=0x08, entity_id=LocalPlayer, tag_num=0x0C)
 26: 0x00B0 [0x45] LOAD_SCHEDULED_TASK: Load scheduler "s500" with entities [LocalPlayer, LocalPlayer], work=[23*, 0*]
 27: 0x00C1 [0x27] REQ_SET(priority=0x08, entity_id=LocalPlayer, tag_num=0x0D)
 28: 0x00C8 [0x45] LOAD_SCHEDULED_TASK: Load scheduler "fdi1" with entities [LocalPlayer, LocalPlayer], work=[200*, 0*]
 29: 0x00D9 [0x55] WAIT_LOAD_SCHEDULER: Wait for scheduler "fdi1" with entities [LocalPlayer, LocalPlayer], work=200*
 30: 0x00E8 [0x1C] WAIT(280* ticks)
 31: 0x00EB [0x4A] Green Thumb Moogle (ID: 17924125/0x0111801D) looks at LocalPlayer
 32: 0x00F4 [0x6F] WAIT_FRAME_DELAY: Yield until WaitTime reaches zero
 33: 0x00F5 [0x76] CHECK_ENTITY_RENDER_FLAGS: Wait until Green Thumb Moogle (ID: 17924125/0x0111801D) Render.Flags0 and Render.Flags3 conditions are met
 34: 0x00FA [0x52] END_LOAD_SCHEDULER: End scheduler "s500" with entities [LocalPlayer, LocalPlayer], work=23*
 35: 0x0109 [0x45] LOAD_SCHEDULED_TASK: Load scheduler "s502" with entities [LocalPlayer, LocalPlayer], work=[23*, 0*]
 36: 0x011A [0x79] LocalPlayer looks at Green Thumb Moogle (ID: 17924125/0x0111801D) (Basic look)
 37: 0x0124 [0x1C] WAIT(90* ticks)
 38: 0x0127 [0x29] REQ_SET_WAIT(priority=0x08, entity_id=Green Thumb Moogle (ID: 17924125/0x0111801D), tag_num=0x7A)
 39: 0x012E [0x2A] GET_REQ_LEVEL(level=8, entity_id=LocalPlayer)
 40: 0x0134 [0x52] END_LOAD_SCHEDULER: End scheduler "s502" with entities [LocalPlayer, LocalPlayer], work=23*
 41: 0x0143 [0x45] LOAD_SCHEDULED_TASK: Load scheduler "s503" with entities [LocalPlayer, LocalPlayer], work=[23*, 0*]
 42: 0x0154 [0x29] REQ_SET_WAIT(priority=0x08, entity_id=Green Thumb Moogle (ID: 17924125/0x0111801D), tag_num=0x29)
 43: 0x015B [0x2B] Green Thumb Moogle (ID: 17924125/0x0111801D) [7622*]:
    → "How incredibly intrepid of you to inquest into this island plot. Welcome to your well-deserved Mog Garden, kupo!"
 44: 0x0162 [0x23] WAIT_FOR_DIALOG_INTERACTION
 45: 0x0163 [0x29] REQ_SET_WAIT(priority=0x08, entity_id=Green Thumb Moogle (ID: 17924125/0x0111801D), tag_num=0x2A)
 46: 0x016A [0x29] REQ_SET_WAIT(priority=0x08, entity_id=Green Thumb Moogle (ID: 17924125/0x0111801D), tag_num=0x2B)
 47: 0x0171 [0x29] REQ_SET_WAIT(priority=0x08, entity_id=Green Thumb Moogle (ID: 17924125/0x0111801D), tag_num=0x2C)
 48: 0x0178 [0x29] REQ_SET_WAIT(priority=0x08, entity_id=Green Thumb Moogle (ID: 17924125/0x0111801D), tag_num=0x35)
 49: 0x017F [0x2B] Green Thumb Moogle (ID: 17924125/0x0111801D) [7623*]:
    → "Did you toil tirelessly trying to amass agrarian assets in your Mog House, or did your knees start knocking at the very mention of gathering goods? Either way, Mog Gardens have proven positively pleasant for all pioneers!"
 50: 0x0186 [0x23] WAIT_FOR_DIALOG_INTERACTION
 51: 0x0187 [0x29] REQ_SET_WAIT(priority=0x08, entity_id=Green Thumb Moogle (ID: 17924125/0x0111801D), tag_num=0x36)
 52: 0x018E [0x29] REQ_SET_WAIT(priority=0x08, entity_id=Green Thumb Moogle (ID: 17924125/0x0111801D), tag_num=0x37)
 53: 0x0195 [0x29] REQ_SET_WAIT(priority=0x08, entity_id=Green Thumb Moogle (ID: 17924125/0x0111801D), tag_num=0x38)
 54: 0x019C [0x29] REQ_SET_WAIT(priority=0x08, entity_id=Green Thumb Moogle (ID: 17924125/0x0111801D), tag_num=0x53)
 55: 0x01A3 [0x03] Work_Zone[3] = 2398*
 56: 0x01A8 [0x2B] Green Thumb Moogle (ID: 17924125/0x0111801D) [7624*]:
    → "As an emblem of our eternal esteem for each other--and to elicit enthusiasm for this endeavor--allow me to present you with $6, kupo! Each day that elapses (in Earth time), you're served a star!"
 57: 0x01AF [0x23] WAIT_FOR_DIALOG_INTERACTION
 58: 0x01B0 [0x29] REQ_SET_WAIT(priority=0x08, entity_id=Green Thumb Moogle (ID: 17924125/0x0111801D), tag_num=0x54)
 59: 0x01B7 [0x52] END_LOAD_SCHEDULER: End scheduler "s503" with entities [LocalPlayer, LocalPlayer], work=23*
 60: 0x01C6 [0x45] LOAD_SCHEDULED_TASK: Load scheduler "s501" with entities [LocalPlayer, LocalPlayer], work=[23*, 0*]
 61: 0x01D7 [0x29] REQ_SET_WAIT(priority=0x08, entity_id=Green Thumb Moogle (ID: 17924125/0x0111801D), tag_num=0x43)
 62: 0x01DE [0x2B] Green Thumb Moogle (ID: 17924125/0x0111801D) [7625*]:
    → "The more refulgences residing in this rock, the richer the rewards you'll reap. But first, let's learn about the myriad methods by which you make use of your Mog Garden!"
 63: 0x01E5 [0x23] WAIT_FOR_DIALOG_INTERACTION
 64: 0x01E6 [0x29] REQ_SET_WAIT(priority=0x08, entity_id=Green Thumb Moogle (ID: 17924125/0x0111801D), tag_num=0x44)
 65: 0x01ED [0x52] END_LOAD_SCHEDULER: End scheduler "s501" with entities [LocalPlayer, LocalPlayer], work=23*
 66: 0x01FC [0x45] LOAD_SCHEDULED_TASK: Load scheduler "s559" with entities [LocalPlayer, LocalPlayer], work=[23*, 0*]
 67: 0x020D [0x29] REQ_SET_WAIT(priority=0x08, entity_id=Green Thumb Moogle (ID: 17924125/0x0111801D), tag_num=0x47)
 68: 0x0214 [0x2B] Green Thumb Moogle (ID: 17924125/0x0111801D) [7626*]:
    → "No need to sweat sabers over your neophyte knowledge of Mog Gardens, kupo! Leave everything to mister moogle here and his go-getting green thumb."
 69: 0x021B [0x23] WAIT_FOR_DIALOG_INTERACTION
 70: 0x021C [0x29] REQ_SET_WAIT(priority=0x08, entity_id=Green Thumb Moogle (ID: 17924125/0x0111801D), tag_num=0x48)
 71: 0x0223 [0x52] END_LOAD_SCHEDULER: End scheduler "s559" with entities [LocalPlayer, LocalPlayer], work=23*
 72: 0x0232 [0x45] LOAD_SCHEDULED_TASK: Load scheduler "s504" with entities [LocalPlayer, LocalPlayer], work=[23*, 0*]
 73: 0x0243 [0x7B] LocalPlayer stops talking
 74: 0x0248 [0x79] LocalPlayer looks at DIRECTOR (ID: 17924176/0x01118050) (Basic look)
 75: 0x0252 [0x27] REQ_SET(priority=0x08, entity_id=Green Thumb Moogle (ID: 17924125/0x0111801D), tag_num=0x7B)
 76: 0x0259 [0x1C] WAIT(60* ticks)
 77: 0x025C [0x4A] Green Thumb Moogle (ID: 17924125/0x0111801D) looks at DIRECTOR (ID: 17924176/0x01118050)
 78: 0x0265 [0x4B] UPDATE_ENTITY_YAW(entity=LocalPlayer, yaw=354.9°*)
 79: 0x026C [0x1C] WAIT(60* ticks)
 80: 0x026F [0x2A] GET_REQ_LEVEL(level=8, entity_id=Green Thumb Moogle (ID: 17924125/0x0111801D))
 81: 0x0275 [0x52] END_LOAD_SCHEDULER: End scheduler "s504" with entities [LocalPlayer, LocalPlayer], work=23*
 82: 0x0284 [0x45] LOAD_SCHEDULED_TASK: Load scheduler "s506" with entities [LocalPlayer, LocalPlayer], work=[23*, 0*]
 83: 0x0295 [0x2B] Green Thumb Moogle (ID: 17924125/0x0111801D) [7628*]:
    → "To be more precise, it may behoove you to barge into that basket over there, kupo."
 84: 0x029C [0x23] WAIT_FOR_DIALOG_INTERACTION
 85: 0x029D [0x45] LOAD_SCHEDULED_TASK: Load scheduler "fdo1" with entities [LocalPlayer, LocalPlayer], work=[200*, 0*]
 86: 0x02AE [0x55] WAIT_LOAD_SCHEDULER: Wait for scheduler "fdo1" with entities [LocalPlayer, LocalPlayer], work=200*
 87: 0x02BD [0x52] END_LOAD_SCHEDULER: End scheduler "s506" with entities [LocalPlayer, LocalPlayer], work=23*
 88: 0x02CC [0x92] Green Thumb Moogle (ID: 17924125/0x0111801D)->Render.Flags3 = Flags3  // No change (flag=0)
 89: 0x02D2 [0x92] Kuyin Hathdenna (ID: 17924183/0x01118057)->Render.Flags3 = Flags3  // No change (flag=0)
 90: 0x02D8 [0x4E] SET_ENTITY_HIDE_FLAG: Show Susuroon (ID: 17924184/0x01118058)
 91: 0x02DE [0x4E] SET_ENTITY_HIDE_FLAG: Show Yeestog (ID: 17924185/0x01118059)
 92: 0x02E4 [0x4E] SET_ENTITY_HIDE_FLAG: Show Kuyin Hathdenna (ID: 17924202/0x0111806A)
 93: 0x02EA [0x4E] SET_ENTITY_HIDE_FLAG: Show Susuroon (ID: 17924203/0x0111806B)
 94: 0x02F0 [0x4E] SET_ENTITY_HIDE_FLAG: Show Yeestog (ID: 17924204/0x0111806C)
 95: 0x02F6 [0x4E] SET_ENTITY_HIDE_FLAG: Show Porter Moogle (ID: 17924221/0x0111807D)
 96: 0x02FC [0x29] REQ_SET_WAIT(priority=0x08, entity_id=Green Thumb Moogle (ID: 17924125/0x0111801D), tag_num=0x6E)
 97: 0x0303 [0x46] CAMERA_CONTROL: Restore default settings
 98: 0x0305 [0x45] LOAD_SCHEDULED_TASK: Load scheduler "fdi1" with entities [LocalPlayer, LocalPlayer], work=[200*, 0*]
 99: 0x0316 [0x20] SET_CLI_EVENT_UC_FLAG: Unlock player control
100: 0x0318 [0x21] END_EVENT
101: 0x0319 [0x00] END_REQSTACK()
```

### Event 2002

#### Metadata

| Field        | Value      |
|--------------|------------|
| Entrypoint   | 0x031A     |
| Data Size    | 1048 bytes |
| Instructions | 145        |

```
      00 01 02 03 04 05 06 07  08 09 0A 0B 0C 0D 0E 0F
      -- -- -- -- -- -- -- --  -- -- -- -- -- -- -- --
0310:                                42 46 01 45 00 80            BF.E..
0320: F0 FF FF 7F F0 FF FF 7F  66 64 6F 31 01 80 55 00  ........fdo1..U.
0330: 80 F0 FF FF 7F F0 FF FF  7F 66 64 6F 31 38 02 80  .........fdo18..
0340: 92 01 1D 80 11 01 92 01  20 80 11 01 92 01 21 80  ........ .....!.
0350: 11 01 92 01 22 80 11 01  92 01 8E 80 11 01 4E 01  ....".........N.
0360: 58 80 11 01 4E 01 57 80  11 01 4E 01 59 80 11 01  X...N.W...N.Y...
0370: 4E 01 6A 80 11 01 4E 01  6B 80 11 01 4E 01 6C 80  N.j...N.k...N.l.
0380: 11 01 4E 01 7D 80 11 01  4E 01 87 80 11 01 BA 87  ..N.}...N.......
0390: 80 11 01 03 80 03 80 01  80 01 80 4E 01 89 80 11  ...........N....
03A0: 01 29 08 F0 FF FF 7F 0E  29 08 1D 80 11 01 7D 4A  .)......).....}J
03B0: F0 FF FF 7F 1D 80 11 01  79 00 1D 80 11 01 F0 FF  ........y.......
03C0: FF 7F 6F 76 F0 FF FF 7F  1C 14 80 37 15 80 16 80  ..ov.......7....
03D0: 17 80 18 80 45 08 80 F0  FF FF 7F F0 FF FF 7F 73  ....E..........s
03E0: 35 30 37 01 80 45 00 80  F0 FF FF 7F F0 FF FF 7F  507..E..........
03F0: 66 64 69 31 01 80 55 00  80 F0 FF FF 7F F0 FF FF  fdi1..U.........
0400: 7F 66 64 69 31 29 08 1D  80 11 01 35 2B 1D 80 11  .fdi1).....5+...
0410: 01 19 80 23 29 08 1D 80  11 01 36 29 08 1D 80 11  ...#).....6)....
0420: 01 37 29 08 1D 80 11 01  38 29 08 1D 80 11 01 43  .7).....8).....C
0430: 2B 1D 80 11 01 1A 80 23  29 08 1D 80 11 01 44 52  +......#).....DR
0440: 08 80 F0 FF FF 7F F0 FF  FF 7F 73 35 30 37 45 08  ..........s507E.
0450: 80 F0 FF FF 7F F0 FF FF  7F 73 35 30 38 01 80 5D  .........s508..]
0460: 01 80 1B 80 29 08 1D 80  11 01 35 2B 1D 80 11 01  ....).....5+....
0470: 1C 80 23 29 08 51 80 11  01 09 29 08 51 80 11 01  ..#).Q....).Q...
0480: 01 1C 1D 80 29 08 51 80  11 01 02 29 08 1D 80 11  ....).Q....)....
0490: 01 36 29 08 1D 80 11 01  37 29 08 1D 80 11 01 38  .6).....7).....8
04A0: 2B 1D 80 11 01 1E 80 23  7B 1D 80 11 01 29 08 1D  +......#{....)..
04B0: 80 11 01 39 2B 1D 80 11  01 1F 80 23 29 08 1D 80  ...9+......#)...
04C0: 11 01 3A 29 08 1D 80 11  01 3B 5C 00 01 80 5C 01  ..:).....;\...\.
04D0: 01 80 9A 5D 20 80 21 80  29 08 1D 80 11 01 3C 52  ...] .!.).....<R
04E0: 08 80 F0 FF FF 7F F0 FF  FF 7F 73 35 30 38 45 08  ..........s508E.
04F0: 80 F0 FF FF 7F F0 FF FF  7F 73 35 36 35 01 80 27  .........s565..'
0500: 08 1D 80 11 01 57 27 08  51 80 11 01 03 1C 22 80  .....W'.Q.....".
0510: 2A 08 1D 80 11 01 2A 08  51 80 11 01 52 08 80 F0  *.....*.Q...R...
0520: FF FF 7F F0 FF FF 7F 73  35 36 35 45 08 80 F0 FF  .......s565E....
0530: FF 7F F0 FF FF 7F 73 35  31 30 01 80 1C 23 80 29  ......s510...#.)
0540: 08 1D 80 11 01 58 29 08  51 80 11 01 04 2B 1D 80  .....X).Q....+..
0550: 11 01 24 80 23 79 00 F0  FF FF 7F 51 80 11 01 1C  ..$.#y.....Q....
0560: 23 80 27 08 F0 FF FF 7F  0F 1C 25 80 52 08 80 F0  #.'.......%.R...
0570: FF FF 7F F0 FF FF 7F 73  35 31 30 45 08 80 F0 FF  .......s510E....
0580: FF 7F F0 FF FF 7F 73 35  31 31 01 80 1C 22 80 2A  ......s511...".*
0590: 08 F0 FF FF 7F 4B F0 FF  FF 7F 26 80 1C 23 80 79  .....K....&..#.y
05A0: 00 F0 FF FF 7F 50 80 11  01 1C 25 80 52 08 80 F0  .....P....%.R...
05B0: FF FF 7F F0 FF FF 7F 73  35 31 31 45 08 80 F0 FF  .......s511E....
05C0: FF 7F F0 FF FF 7F 73 35  30 39 01 80 1C 27 80 1C  ......s509...'..
05D0: 0A 80 52 08 80 F0 FF FF  7F F0 FF FF 7F 73 35 30  ..R..........s50
05E0: 39 45 08 80 F0 FF FF 7F  F0 FF FF 7F 73 35 31 32  9E..........s512
05F0: 01 80 79 00 1D 80 11 01  50 80 11 01 29 08 1D 80  ..y.....P...)...
0600: 11 01 7E 2B 1D 80 11 01  28 80 23 29 08 1D 80 11  ..~+....(.#)....
0610: 01 4D 2B 1D 80 11 01 29  80 23 52 08 80 F0 FF FF  .M+....).#R.....
0620: 7F F0 FF FF 7F 73 35 31  32 45 08 80 F0 FF FF 7F  .....s512E......
0630: F0 FF FF 7F 73 35 31 33  01 80 5C 00 2A 80 5C 01  ....s513..\.*.\.
0640: 2A 80 9A 5D 20 80 21 80  29 08 1D 80 11 01 4D 29  *..] .!.).....M)
0650: 08 1D 80 11 01 4F 29 08  1D 80 11 01 50 4A 1D 80  .....O).....PJ..
0660: 11 01 F0 FF FF 7F 79 00  F0 FF FF 7F 1D 80 11 01  ......y.........
0670: 2B 1D 80 11 01 2B 80 23  6F 76 1D 80 11 01 29 08  +....+.#ov....).
0680: 1D 80 11 01 4B 79 00 F0  FF FF 7F 50 80 11 01 2B  ....Ky.....P...+
0690: 1D 80 11 01 2C 80 23 45  00 80 F0 FF FF 7F F0 FF  ....,.#E........
06A0: FF 7F 66 64 6F 31 01 80  55 00 80 F0 FF FF 7F F0  ..fdo1..U.......
06B0: FF FF 7F 66 64 6F 31 29  08 1D 80 11 01 4C 29 08  ...fdo1).....L).
06C0: 51 80 11 01 0B 52 08 80  F0 FF FF 7F F0 FF FF 7F  Q....R..........
06D0: 73 35 31 33 4E 00 58 80  11 01 4E 00 57 80 11 01  s513N.X...N.W...
06E0: 4E 00 59 80 11 01 4E 00  6A 80 11 01 4E 00 6B 80  N.Y...N.j...N.k.
06F0: 11 01 4E 00 6C 80 11 01  4E 00 7D 80 11 01 7B F0  ..N.l...N.}...{.
0700: FF FF 7F 45 2D 80 F8 FF  FF 7F F8 FF FF 7F 71 73  ...E-.........qs
0710: 74 63 01 80 29 08 1D 80  11 01 6E 46 00 45 00 80  tc..).....nF.E..
0720: F0 FF FF 7F F0 FF FF 7F  66 64 69 31 01 80 20 00  ........fdi1.. .
0730: 21 00                                             !.              
```

#### Opcodes

```
  0: 0x031A [0x42] SET_CLI_EVENT_CANCEL_DATA()
  1: 0x031B [0x46] CAMERA_CONTROL: Disable user control
  2: 0x031D [0x45] LOAD_SCHEDULED_TASK: Load scheduler "fdo1" with entities [LocalPlayer, LocalPlayer], work=[200*, 0*]
  3: 0x032E [0x55] WAIT_LOAD_SCHEDULER: Wait for scheduler "fdo1" with entities [LocalPlayer, LocalPlayer], work=200*
  4: 0x033D [0x38] SET_CLIENT_EVENT_MODE(mode=19*)
  5: 0x0340 [0x92] Green Thumb Moogle (ID: 17924125/0x0111801D)->Render.Flags3 ^= 0x01
  6: 0x0346 [0x92] Garden Furrow (ID: 17924128/0x01118020)->Render.Flags3 ^= 0x01
  7: 0x034C [0x92] Garden Furrow #2 (ID: 17924129/0x01118021)->Render.Flags3 ^= 0x01
  8: 0x0352 [0x92] Garden Furrow #3 (ID: 17924130/0x01118022)->Render.Flags3 ^= 0x01
  9: 0x0358 [0x92] Ephemeral Moogle (ID: 17924238/0x0111808E)->Render.Flags3 ^= 0x01
 10: 0x035E [0x4E] SET_ENTITY_HIDE_FLAG: Hide Susuroon (ID: 17924184/0x01118058)
 11: 0x0364 [0x4E] SET_ENTITY_HIDE_FLAG: Hide Kuyin Hathdenna (ID: 17924183/0x01118057)
 12: 0x036A [0x4E] SET_ENTITY_HIDE_FLAG: Hide Yeestog (ID: 17924185/0x01118059)
 13: 0x0370 [0x4E] SET_ENTITY_HIDE_FLAG: Hide Kuyin Hathdenna (ID: 17924202/0x0111806A)
 14: 0x0376 [0x4E] SET_ENTITY_HIDE_FLAG: Hide Susuroon (ID: 17924203/0x0111806B)
 15: 0x037C [0x4E] SET_ENTITY_HIDE_FLAG: Hide Yeestog (ID: 17924204/0x0111806C)
 16: 0x0382 [0x4E] SET_ENTITY_HIDE_FLAG: Hide Porter Moogle (ID: 17924221/0x0111807D)
 17: 0x0388 [0x4E] SET_ENTITY_HIDE_FLAG: Hide Chacharoon (ID: 17924231/0x01118087)
 18: 0x038E [0xBA] SET_ENTITY_POSITION(entity_id=Chacharoon (ID: 17924231/0x01118087), pos_x=-100.000*, pos_z=-100.000*, pos_y=0.000*, direction=0.0°*)
 19: 0x039B [0x4E] SET_ENTITY_HIDE_FLAG: Hide Breeding Monster (ID: 17924233/0x01118089)
 20: 0x03A1 [0x29] REQ_SET_WAIT(priority=0x08, entity_id=LocalPlayer, tag_num=0x0E)
 21: 0x03A8 [0x29] REQ_SET_WAIT(priority=0x08, entity_id=Green Thumb Moogle (ID: 17924125/0x0111801D), tag_num=0x7D)
 22: 0x03AF [0x4A] LocalPlayer looks at Green Thumb Moogle (ID: 17924125/0x0111801D)
 23: 0x03B8 [0x79] Green Thumb Moogle (ID: 17924125/0x0111801D) looks at LocalPlayer (Basic look)
 24: 0x03C2 [0x6F] WAIT_FRAME_DELAY: Yield until WaitTime reaches zero
 25: 0x03C3 [0x76] CHECK_ENTITY_RENDER_FLAGS: Wait until LocalPlayer Render.Flags0 and Render.Flags3 conditions are met
 26: 0x03C8 [0x1C] WAIT(20* ticks)
 27: 0x03CB [0x37] UPDATE_EVENT_POSITION_AND_DIR: x=-10.816*, z=4.716*, y=1.200*, direction=149.0°*
 28: 0x03D4 [0x45] LOAD_SCHEDULED_TASK: Load scheduler "s507" with entities [LocalPlayer, LocalPlayer], work=[23*, 0*]
 29: 0x03E5 [0x45] LOAD_SCHEDULED_TASK: Load scheduler "fdi1" with entities [LocalPlayer, LocalPlayer], work=[200*, 0*]
 30: 0x03F6 [0x55] WAIT_LOAD_SCHEDULER: Wait for scheduler "fdi1" with entities [LocalPlayer, LocalPlayer], work=200*
 31: 0x0405 [0x29] REQ_SET_WAIT(priority=0x08, entity_id=Green Thumb Moogle (ID: 17924125/0x0111801D), tag_num=0x35)
 32: 0x040C [0x2B] Green Thumb Moogle (ID: 17924125/0x0111801D) [7631*]:
    → "Congratulations on hauling in your headmost harvest! Don't forget, all that palatable produce and paraphernalia is yours for the picking, kupo."
 33: 0x0413 [0x23] WAIT_FOR_DIALOG_INTERACTION
 34: 0x0414 [0x29] REQ_SET_WAIT(priority=0x08, entity_id=Green Thumb Moogle (ID: 17924125/0x0111801D), tag_num=0x36)
 35: 0x041B [0x29] REQ_SET_WAIT(priority=0x08, entity_id=Green Thumb Moogle (ID: 17924125/0x0111801D), tag_num=0x37)
 36: 0x0422 [0x29] REQ_SET_WAIT(priority=0x08, entity_id=Green Thumb Moogle (ID: 17924125/0x0111801D), tag_num=0x38)
 37: 0x0429 [0x29] REQ_SET_WAIT(priority=0x08, entity_id=Green Thumb Moogle (ID: 17924125/0x0111801D), tag_num=0x43)
 38: 0x0430 [0x2B] Green Thumb Moogle (ID: 17924125/0x0111801D) [7632*]:
    → "Kupopopo... I sense some seedlings of information sprouting."
 39: 0x0437 [0x23] WAIT_FOR_DIALOG_INTERACTION
 40: 0x0438 [0x29] REQ_SET_WAIT(priority=0x08, entity_id=Green Thumb Moogle (ID: 17924125/0x0111801D), tag_num=0x44)
 41: 0x043F [0x52] END_LOAD_SCHEDULER: End scheduler "s507" with entities [LocalPlayer, LocalPlayer], work=23*
 42: 0x044E [0x45] LOAD_SCHEDULED_TASK: Load scheduler "s508" with entities [LocalPlayer, LocalPlayer], work=[23*, 0*]
 43: 0x045F [0x5D] SET_MUSIC_VOLUME(volume=0*, fade_time=300*)
 44: 0x0464 [0x29] REQ_SET_WAIT(priority=0x08, entity_id=Green Thumb Moogle (ID: 17924125/0x0111801D), tag_num=0x35)
 45: 0x046B [0x2B] Green Thumb Moogle (ID: 17924125/0x0111801D) [7633*]:
    → "Unlike at Mog Houses, leaving the fruits of your labor to languish on the vine won't dry them out like Hildebert's sense of humor, kupo."
 46: 0x0472 [0x23] WAIT_FOR_DIALOG_INTERACTION
 47: 0x0473 [0x29] REQ_SET_WAIT(priority=0x08, entity_id=Unnamed NPC (ID: 17924177/0x01118051), tag_num=0x09)
 48: 0x047A [0x29] REQ_SET_WAIT(priority=0x08, entity_id=Unnamed NPC (ID: 17924177/0x01118051), tag_num=0x01)
 49: 0x0481 [0x1C] WAIT(100* ticks)
 50: 0x0484 [0x29] REQ_SET_WAIT(priority=0x08, entity_id=Unnamed NPC (ID: 17924177/0x01118051), tag_num=0x02)
 51: 0x048B [0x29] REQ_SET_WAIT(priority=0x08, entity_id=Green Thumb Moogle (ID: 17924125/0x0111801D), tag_num=0x36)
 52: 0x0492 [0x29] REQ_SET_WAIT(priority=0x08, entity_id=Green Thumb Moogle (ID: 17924125/0x0111801D), tag_num=0x37)
 53: 0x0499 [0x29] REQ_SET_WAIT(priority=0x08, entity_id=Green Thumb Moogle (ID: 17924125/0x0111801D), tag_num=0x38)
 54: 0x04A0 [0x2B] Green Thumb Moogle (ID: 17924125/0x0111801D) [7634*]:
    → "Wha-wha-what? They wouldn't wither if we moogles watched over them properly, you proffer?"
 55: 0x04A7 [0x23] WAIT_FOR_DIALOG_INTERACTION
 56: 0x04A8 [0x7B] Green Thumb Moogle (ID: 17924125/0x0111801D) stops talking
 57: 0x04AD [0x29] REQ_SET_WAIT(priority=0x08, entity_id=Green Thumb Moogle (ID: 17924125/0x0111801D), tag_num=0x39)
 58: 0x04B4 [0x2B] Green Thumb Moogle (ID: 17924125/0x0111801D) [7635*]:
    → "Pish posh! We're on our best behavior when it comes to caring for crops, kupo!"
 59: 0x04BB [0x23] WAIT_FOR_DIALOG_INTERACTION
 60: 0x04BC [0x29] REQ_SET_WAIT(priority=0x08, entity_id=Green Thumb Moogle (ID: 17924125/0x0111801D), tag_num=0x3A)
 61: 0x04C3 [0x29] REQ_SET_WAIT(priority=0x08, entity_id=Green Thumb Moogle (ID: 17924125/0x0111801D), tag_num=0x3B)
 62: 0x04CA [0x5C] MUSIC_CONTROL: Set Idle (Day) music to song 0*
 63: 0x04CE [0x5C] MUSIC_CONTROL: Set Idle (Night) music to song 0*
 64: 0x04D2 [0x9A] WAIT_MUSIC_SERVER()
 65: 0x04D3 [0x5D] SET_MUSIC_VOLUME(volume=127*, fade_time=1*)
 66: 0x04D8 [0x29] REQ_SET_WAIT(priority=0x08, entity_id=Green Thumb Moogle (ID: 17924125/0x0111801D), tag_num=0x3C)
 67: 0x04DF [0x52] END_LOAD_SCHEDULER: End scheduler "s508" with entities [LocalPlayer, LocalPlayer], work=23*
 68: 0x04EE [0x45] LOAD_SCHEDULED_TASK: Load scheduler "s565" with entities [LocalPlayer, LocalPlayer], work=[23*, 0*]
 69: 0x04FF [0x27] REQ_SET(priority=0x08, entity_id=Green Thumb Moogle (ID: 17924125/0x0111801D), tag_num=0x57)
 70: 0x0506 [0x27] REQ_SET(priority=0x08, entity_id=Unnamed NPC (ID: 17924177/0x01118051), tag_num=0x03)
 71: 0x050D [0x1C] WAIT(120* ticks)
 72: 0x0510 [0x2A] GET_REQ_LEVEL(level=8, entity_id=Green Thumb Moogle (ID: 17924125/0x0111801D))
 73: 0x0516 [0x2A] GET_REQ_LEVEL(level=8, entity_id=Unnamed NPC (ID: 17924177/0x01118051))
 74: 0x051C [0x52] END_LOAD_SCHEDULER: End scheduler "s565" with entities [LocalPlayer, LocalPlayer], work=23*
 75: 0x052B [0x45] LOAD_SCHEDULED_TASK: Load scheduler "s510" with entities [LocalPlayer, LocalPlayer], work=[23*, 0*]
 76: 0x053C [0x1C] WAIT(30* ticks)
 77: 0x053F [0x29] REQ_SET_WAIT(priority=0x08, entity_id=Green Thumb Moogle (ID: 17924125/0x0111801D), tag_num=0x58)
 78: 0x0546 [0x29] REQ_SET_WAIT(priority=0x08, entity_id=Unnamed NPC (ID: 17924177/0x01118051), tag_num=0x04)
 79: 0x054D [0x2B] Green Thumb Moogle (ID: 17924125/0x0111801D) [7636*]:
    → "Owowow... I suppose the truth truly does hurt, kupo."
 80: 0x0554 [0x23] WAIT_FOR_DIALOG_INTERACTION
 81: 0x0555 [0x79] LocalPlayer looks at Unnamed NPC (ID: 17924177/0x01118051) (Basic look)
 82: 0x055F [0x1C] WAIT(30* ticks)
 83: 0x0562 [0x27] REQ_SET(priority=0x08, entity_id=LocalPlayer, tag_num=0x0F)
 84: 0x0569 [0x1C] WAIT(40* ticks)
 85: 0x056C [0x52] END_LOAD_SCHEDULER: End scheduler "s510" with entities [LocalPlayer, LocalPlayer], work=23*
 86: 0x057B [0x45] LOAD_SCHEDULED_TASK: Load scheduler "s511" with entities [LocalPlayer, LocalPlayer], work=[23*, 0*]
 87: 0x058C [0x1C] WAIT(120* ticks)
 88: 0x058F [0x2A] GET_REQ_LEVEL(level=8, entity_id=LocalPlayer)
 89: 0x0595 [0x4B] UPDATE_ENTITY_YAW(entity=LocalPlayer, yaw=11.0°*)
 90: 0x059C [0x1C] WAIT(30* ticks)
 91: 0x059F [0x79] LocalPlayer looks at DIRECTOR (ID: 17924176/0x01118050) (Basic look)
 92: 0x05A9 [0x1C] WAIT(40* ticks)
 93: 0x05AC [0x52] END_LOAD_SCHEDULER: End scheduler "s511" with entities [LocalPlayer, LocalPlayer], work=23*
 94: 0x05BB [0x45] LOAD_SCHEDULED_TASK: Load scheduler "s509" with entities [LocalPlayer, LocalPlayer], work=[23*, 0*]
 95: 0x05CC [0x1C] WAIT(50* ticks)
 96: 0x05CF [0x1C] WAIT(90* ticks)
 97: 0x05D2 [0x52] END_LOAD_SCHEDULER: End scheduler "s509" with entities [LocalPlayer, LocalPlayer], work=23*
 98: 0x05E1 [0x45] LOAD_SCHEDULED_TASK: Load scheduler "s512" with entities [LocalPlayer, LocalPlayer], work=[23*, 0*]
 99: 0x05F2 [0x79] Green Thumb Moogle (ID: 17924125/0x0111801D) looks at DIRECTOR (ID: 17924176/0x01118050) (Basic look)
100: 0x05FC [0x29] REQ_SET_WAIT(priority=0x08, entity_id=Green Thumb Moogle (ID: 17924125/0x0111801D), tag_num=0x7E)
101: 0x0603 [0x2B] Green Thumb Moogle (ID: 17924125/0x0111801D) [7637*]:
    → "So...the ferociously firm fruit that plunked me on my pom-pom fell from that flora?"
102: 0x060A [0x23] WAIT_FOR_DIALOG_INTERACTION
103: 0x060B [0x29] REQ_SET_WAIT(priority=0x08, entity_id=Green Thumb Moogle (ID: 17924125/0x0111801D), tag_num=0x4D)
104: 0x0612 [0x2B] Green Thumb Moogle (ID: 17924125/0x0111801D) [7638*]:
    → "But how could it have come so far? Did wild winds whip in from the Senroh Sea just to dent my dome? How devilishly disconcerting, kupo!"
105: 0x0619 [0x23] WAIT_FOR_DIALOG_INTERACTION
106: 0x061A [0x52] END_LOAD_SCHEDULER: End scheduler "s512" with entities [LocalPlayer, LocalPlayer], work=23*
107: 0x0629 [0x45] LOAD_SCHEDULED_TASK: Load scheduler "s513" with entities [LocalPlayer, LocalPlayer], work=[23*, 0*]
108: 0x063A [0x5C] MUSIC_CONTROL: Set Idle (Day) music to song 67*
109: 0x063E [0x5C] MUSIC_CONTROL: Set Idle (Night) music to song 67*
110: 0x0642 [0x9A] WAIT_MUSIC_SERVER()
111: 0x0643 [0x5D] SET_MUSIC_VOLUME(volume=127*, fade_time=1*)
112: 0x0648 [0x29] REQ_SET_WAIT(priority=0x08, entity_id=Green Thumb Moogle (ID: 17924125/0x0111801D), tag_num=0x4D)
113: 0x064F [0x29] REQ_SET_WAIT(priority=0x08, entity_id=Green Thumb Moogle (ID: 17924125/0x0111801D), tag_num=0x4F)
114: 0x0656 [0x29] REQ_SET_WAIT(priority=0x08, entity_id=Green Thumb Moogle (ID: 17924125/0x0111801D), tag_num=0x50)
115: 0x065D [0x4A] Green Thumb Moogle (ID: 17924125/0x0111801D) looks at LocalPlayer
116: 0x0666 [0x79] LocalPlayer looks at Green Thumb Moogle (ID: 17924125/0x0111801D) (Basic look)
117: 0x0670 [0x2B] Green Thumb Moogle (ID: 17924125/0x0111801D) [7639*]:
    → "We have to corral these cranium-crippling conundrums before they bonk any more bystanders!"
118: 0x0677 [0x23] WAIT_FOR_DIALOG_INTERACTION
119: 0x0678 [0x6F] WAIT_FRAME_DELAY: Yield until WaitTime reaches zero
120: 0x0679 [0x76] CHECK_ENTITY_RENDER_FLAGS: Wait until Green Thumb Moogle (ID: 17924125/0x0111801D) Render.Flags0 and Render.Flags3 conditions are met
121: 0x067E [0x29] REQ_SET_WAIT(priority=0x08, entity_id=Green Thumb Moogle (ID: 17924125/0x0111801D), tag_num=0x4B)
122: 0x0685 [0x79] LocalPlayer looks at DIRECTOR (ID: 17924176/0x01118050) (Basic look)
123: 0x068F [0x2B] Green Thumb Moogle (ID: 17924125/0x0111801D) [7640*]:
    → "<Player>, examine the rustic roots growing from that green grove to extirpate the extraneous and evildoing edibles! Trust me. It may seem irrelevant, but it'll actually help us get to the "root" of the problem. Kupopopo!"
124: 0x0696 [0x23] WAIT_FOR_DIALOG_INTERACTION
125: 0x0697 [0x45] LOAD_SCHEDULED_TASK: Load scheduler "fdo1" with entities [LocalPlayer, LocalPlayer], work=[200*, 0*]
126: 0x06A8 [0x55] WAIT_LOAD_SCHEDULER: Wait for scheduler "fdo1" with entities [LocalPlayer, LocalPlayer], work=200*
127: 0x06B7 [0x29] REQ_SET_WAIT(priority=0x08, entity_id=Green Thumb Moogle (ID: 17924125/0x0111801D), tag_num=0x4C)
128: 0x06BE [0x29] REQ_SET_WAIT(priority=0x08, entity_id=Unnamed NPC (ID: 17924177/0x01118051), tag_num=0x0B)
129: 0x06C5 [0x52] END_LOAD_SCHEDULER: End scheduler "s513" with entities [LocalPlayer, LocalPlayer], work=23*
130: 0x06D4 [0x4E] SET_ENTITY_HIDE_FLAG: Show Susuroon (ID: 17924184/0x01118058)
131: 0x06DA [0x4E] SET_ENTITY_HIDE_FLAG: Show Kuyin Hathdenna (ID: 17924183/0x01118057)
132: 0x06E0 [0x4E] SET_ENTITY_HIDE_FLAG: Show Yeestog (ID: 17924185/0x01118059)
133: 0x06E6 [0x4E] SET_ENTITY_HIDE_FLAG: Show Kuyin Hathdenna (ID: 17924202/0x0111806A)
134: 0x06EC [0x4E] SET_ENTITY_HIDE_FLAG: Show Susuroon (ID: 17924203/0x0111806B)
135: 0x06F2 [0x4E] SET_ENTITY_HIDE_FLAG: Show Yeestog (ID: 17924204/0x0111806C)
136: 0x06F8 [0x4E] SET_ENTITY_HIDE_FLAG: Show Porter Moogle (ID: 17924221/0x0111807D)
137: 0x06FE [0x7B] LocalPlayer stops talking
138: 0x0703 [0x45] LOAD_SCHEDULED_TASK: Load scheduler "qstc" with entities [EventEntity, EventEntity], work=[201*, 0*]
139: 0x0714 [0x29] REQ_SET_WAIT(priority=0x08, entity_id=Green Thumb Moogle (ID: 17924125/0x0111801D), tag_num=0x6E)
140: 0x071B [0x46] CAMERA_CONTROL: Restore default settings
141: 0x071D [0x45] LOAD_SCHEDULED_TASK: Load scheduler "fdi1" with entities [LocalPlayer, LocalPlayer], work=[200*, 0*]
142: 0x072E [0x20] SET_CLI_EVENT_UC_FLAG: Unlock player control
143: 0x0730 [0x21] END_EVENT
144: 0x0731 [0x00] END_REQSTACK()
```

### Event 2003

#### Metadata

| Field        | Value     |
|--------------|-----------|
| Entrypoint   | 0x0732    |
| Data Size    | 953 bytes |
| Instructions | 133       |

```
      00 01 02 03 04 05 06 07  08 09 0A 0B 0C 0D 0E 0F
      -- -- -- -- -- -- -- --  -- -- -- -- -- -- -- --
0730:       42 46 01 45 00 80  F0 FF FF 7F F0 FF FF 7F    BF.E..........
0740: 66 64 6F 31 01 80 55 00  80 F0 FF FF 7F F0 FF FF  fdo1..U.........
0750: 7F 66 64 6F 31 38 02 80  92 01 1D 80 11 01 92 01  .fdo18..........
0760: 20 80 11 01 92 01 21 80  11 01 92 01 22 80 11 01   .....!....."...
0770: 92 01 8E 80 11 01 4E 01  58 80 11 01 4E 01 57 80  ......N.X...N.W.
0780: 11 01 4E 01 59 80 11 01  4E 01 6A 80 11 01 4E 01  ..N.Y...N.j...N.
0790: 6B 80 11 01 4E 01 6C 80  11 01 4E 01 7D 80 11 01  k...N.l...N.}...
07A0: 4E 01 87 80 11 01 BA 87  80 11 01 03 80 03 80 01  N...............
07B0: 80 01 80 4E 01 89 80 11  01 29 08 1D 80 11 01 80  ...N.....)......
07C0: 29 08 F0 FF FF 7F 10 29  08 52 80 11 01 02 92 01  )......).R......
07D0: 52 80 11 01 45 08 80 F0  FF FF 7F F0 FF FF 7F 73  R...E..........s
07E0: 35 31 34 01 80 4A F0 FF  FF 7F 1D 80 11 01 6F 76  514..J........ov
07F0: F0 FF FF 7F 45 00 80 F0  FF FF 7F F0 FF FF 7F 66  ....E..........f
0800: 64 69 31 01 80 55 00 80  F0 FF FF 7F F0 FF FF 7F  di1..U..........
0810: 66 64 69 31 03 03 10 2E  80 29 08 1D 80 11 01 29  fdi1.....).....)
0820: 2B 1D 80 11 01 2F 80 23  29 08 1D 80 11 01 2A 29  +..../.#).....*)
0830: 08 1D 80 11 01 2B 52 08  80 F0 FF FF 7F F0 FF FF  .....+R.........
0840: 7F 73 35 31 34 45 08 80  F0 FF FF 7F F0 FF FF 7F  .s514E..........
0850: 73 35 31 35 01 80 4E 01  F0 FF FF 7F 5D 01 80 00  s515..N.....]...
0860: 80 03 04 10 30 80 29 08  1D 80 11 01 2C 29 08 1D  ....0.).....,)..
0870: 80 11 01 35 2B 1D 80 11  01 31 80 23 29 08 1D 80  ...5+....1.#)...
0880: 11 01 36 29 08 1D 80 11  01 37 52 08 80 F0 FF FF  ..6).....7R.....
0890: 7F F0 FF FF 7F 73 35 31  35 45 08 80 F0 FF FF 7F  .....s515E......
08A0: F0 FF FF 7F 73 35 32 30  01 80 27 08 52 80 11 01  ....s520..'.R...
08B0: 03 4E 00 F0 FF FF 7F 1C  25 80 52 08 80 F0 FF FF  .N......%.R.....
08C0: 7F F0 FF FF 7F 73 35 32  30 45 08 80 F0 FF FF 7F  .....s520E......
08D0: F0 FF FF 7F 73 35 31 38  01 80 1C 25 80 52 08 80  ....s518...%.R..
08E0: F0 FF FF 7F F0 FF FF 7F  73 35 31 38 45 08 80 F0  ........s518E...
08F0: FF FF 7F F0 FF FF 7F 73  35 31 36 01 80 5C 00 32  .......s516..\.2
0900: 80 5C 01 32 80 9A 5D 20  80 21 80 29 08 1D 80 11  .\.2..] .!.)....
0910: 01 38 4B 1D 80 11 01 33  80 6F 70 4A F0 FF FF 7F  .8K....3.opJ....
0920: 52 80 11 01 29 08 1D 80  11 01 45 1C 0A 80 7B F0  R...).....E...{.
0930: FF FF 7F 2B 1D 80 11 01  34 80 23 4E 01 52 80 11  ...+....4.#N.R..
0940: 01 52 08 80 F0 FF FF 7F  F0 FF FF 7F 73 35 31 36  .R..........s516
0950: 45 08 80 F0 FF FF 7F F0  FF FF 7F 73 35 36 32 01  E..........s562.
0960: 80 29 08 1D 80 11 01 46  29 08 1D 80 11 01 4D 2B  .).....F).....M+
0970: 1D 80 11 01 35 80 23 29  08 1D 80 11 01 4E 2A 08  ....5.#).....N*.
0980: 52 80 11 01 6F 70 4A F0  FF FF 7F 1D 80 11 01 29  R...opJ........)
0990: 08 1D 80 11 01 4F 2B 1D  80 11 01 36 80 29 08 1D  .....O+....6.)..
09A0: 80 11 01 50 29 08 1D 80  11 01 49 29 08 1D 80 11  ...P).....I)....
09B0: 01 4A 23 6F 70 52 08 80  F0 FF FF 7F F0 FF FF 7F  .J#opR..........
09C0: 73 35 36 32 45 08 80 F0  FF FF 7F F0 FF FF 7F 73  s562E..........s
09D0: 35 31 37 01 80 4B F0 FF  FF 7F 00 80 37 37 80 38  517..K......77.8
09E0: 80 39 80 3A 80 4A 1D 80  11 01 F0 FF FF 7F 6F 70  .9.:.J........op
09F0: 03 05 10 3B 80 29 08 1D  80 11 01 4B 27 08 1D 80  ...;.).....K'...
0A00: 11 01 81 1C 3C 80 79 00  1D 80 11 01 50 80 11 01  ....<.y.....P...
0A10: 79 00 F0 FF FF 7F 50 80  11 01 1C 25 80 52 08 80  y.....P....%.R..
0A20: F0 FF FF 7F F0 FF FF 7F  73 35 31 37 45 08 80 F0  ........s517E...
0A30: FF FF 7F F0 FF FF 7F 73  35 31 39 01 80 2A 08 1D  .......s519..*..
0A40: 80 11 01 29 08 1D 80 11  01 4C 2B 1D 80 11 01 3D  ...).....L+....=
0A50: 80 23 45 00 80 F0 FF FF  7F F0 FF FF 7F 66 64 6F  .#E..........fdo
0A60: 31 01 80 55 00 80 F0 FF  FF 7F F0 FF FF 7F 66 64  1..U..........fd
0A70: 6F 31 52 08 80 F0 FF FF  7F F0 FF FF 7F 73 35 31  o1R..........s51
0A80: 39 4E 00 58 80 11 01 4E  00 57 80 11 01 4E 00 59  9N.X...N.W...N.Y
0A90: 80 11 01 4E 00 6A 80 11  01 4E 00 6B 80 11 01 4E  ...N.j...N.k...N
0AA0: 00 6C 80 11 01 4E 00 7D  80 11 01 45 2D 80 F8 FF  .l...N.}...E-...
0AB0: FF 7F F8 FF FF 7F 71 73  74 63 01 80 5C 00 2A 80  ......qstc..\.*.
0AC0: 5C 01 2A 80 9A 5D 20 80  21 80 1C 3E 80 29 08 1D  \.*..] .!..>.)..
0AD0: 80 11 01 6E 46 00 45 00  80 F0 FF FF 7F F0 FF FF  ...nF.E.........
0AE0: 7F 66 64 69 31 01 80 20  00 21 00                 .fdi1.. .!.     
```

#### Opcodes

```
  0: 0x0732 [0x42] SET_CLI_EVENT_CANCEL_DATA()
  1: 0x0733 [0x46] CAMERA_CONTROL: Disable user control
  2: 0x0735 [0x45] LOAD_SCHEDULED_TASK: Load scheduler "fdo1" with entities [LocalPlayer, LocalPlayer], work=[200*, 0*]
  3: 0x0746 [0x55] WAIT_LOAD_SCHEDULER: Wait for scheduler "fdo1" with entities [LocalPlayer, LocalPlayer], work=200*
  4: 0x0755 [0x38] SET_CLIENT_EVENT_MODE(mode=19*)
  5: 0x0758 [0x92] Green Thumb Moogle (ID: 17924125/0x0111801D)->Render.Flags3 ^= 0x01
  6: 0x075E [0x92] Garden Furrow (ID: 17924128/0x01118020)->Render.Flags3 ^= 0x01
  7: 0x0764 [0x92] Garden Furrow #2 (ID: 17924129/0x01118021)->Render.Flags3 ^= 0x01
  8: 0x076A [0x92] Garden Furrow #3 (ID: 17924130/0x01118022)->Render.Flags3 ^= 0x01
  9: 0x0770 [0x92] Ephemeral Moogle (ID: 17924238/0x0111808E)->Render.Flags3 ^= 0x01
 10: 0x0776 [0x4E] SET_ENTITY_HIDE_FLAG: Hide Susuroon (ID: 17924184/0x01118058)
 11: 0x077C [0x4E] SET_ENTITY_HIDE_FLAG: Hide Kuyin Hathdenna (ID: 17924183/0x01118057)
 12: 0x0782 [0x4E] SET_ENTITY_HIDE_FLAG: Hide Yeestog (ID: 17924185/0x01118059)
 13: 0x0788 [0x4E] SET_ENTITY_HIDE_FLAG: Hide Kuyin Hathdenna (ID: 17924202/0x0111806A)
 14: 0x078E [0x4E] SET_ENTITY_HIDE_FLAG: Hide Susuroon (ID: 17924203/0x0111806B)
 15: 0x0794 [0x4E] SET_ENTITY_HIDE_FLAG: Hide Yeestog (ID: 17924204/0x0111806C)
 16: 0x079A [0x4E] SET_ENTITY_HIDE_FLAG: Hide Porter Moogle (ID: 17924221/0x0111807D)
 17: 0x07A0 [0x4E] SET_ENTITY_HIDE_FLAG: Hide Chacharoon (ID: 17924231/0x01118087)
 18: 0x07A6 [0xBA] SET_ENTITY_POSITION(entity_id=Chacharoon (ID: 17924231/0x01118087), pos_x=-100.000*, pos_z=-100.000*, pos_y=0.000*, direction=0.0°*)
 19: 0x07B3 [0x4E] SET_ENTITY_HIDE_FLAG: Hide Breeding Monster (ID: 17924233/0x01118089)
 20: 0x07B9 [0x29] REQ_SET_WAIT(priority=0x08, entity_id=Green Thumb Moogle (ID: 17924125/0x0111801D), tag_num=0x80)
 21: 0x07C0 [0x29] REQ_SET_WAIT(priority=0x08, entity_id=LocalPlayer, tag_num=0x10)
 22: 0x07C7 [0x29] REQ_SET_WAIT(priority=0x08, entity_id=KANI01 (ID: 17924178/0x01118052), tag_num=0x02)
 23: 0x07CE [0x92] KANI01 (ID: 17924178/0x01118052)->Render.Flags3 ^= 0x01
 24: 0x07D4 [0x45] LOAD_SCHEDULED_TASK: Load scheduler "s514" with entities [LocalPlayer, LocalPlayer], work=[23*, 0*]
 25: 0x07E5 [0x4A] LocalPlayer looks at Green Thumb Moogle (ID: 17924125/0x0111801D)
 26: 0x07EE [0x6F] WAIT_FRAME_DELAY: Yield until WaitTime reaches zero
 27: 0x07EF [0x76] CHECK_ENTITY_RENDER_FLAGS: Wait until LocalPlayer Render.Flags0 and Render.Flags3 conditions are met
 28: 0x07F4 [0x45] LOAD_SCHEDULED_TASK: Load scheduler "fdi1" with entities [LocalPlayer, LocalPlayer], work=[200*, 0*]
 29: 0x0805 [0x55] WAIT_LOAD_SCHEDULER: Wait for scheduler "fdi1" with entities [LocalPlayer, LocalPlayer], work=200*
 30: 0x0814 [0x03] Work_Zone[3] = 4504*
 31: 0x0819 [0x29] REQ_SET_WAIT(priority=0x08, entity_id=Green Thumb Moogle (ID: 17924125/0x0111801D), tag_num=0x29)
 32: 0x0820 [0x2B] Green Thumb Moogle (ID: 17924125/0x0111801D) [7643*]:
    → "Thank you for collecting those cursed comestibles. Feel free to keep any and all you find hereafter for your culinary consumption."
 33: 0x0827 [0x23] WAIT_FOR_DIALOG_INTERACTION
 34: 0x0828 [0x29] REQ_SET_WAIT(priority=0x08, entity_id=Green Thumb Moogle (ID: 17924125/0x0111801D), tag_num=0x2A)
 35: 0x082F [0x29] REQ_SET_WAIT(priority=0x08, entity_id=Green Thumb Moogle (ID: 17924125/0x0111801D), tag_num=0x2B)
 36: 0x0836 [0x52] END_LOAD_SCHEDULER: End scheduler "s514" with entities [LocalPlayer, LocalPlayer], work=23*
 37: 0x0845 [0x45] LOAD_SCHEDULED_TASK: Load scheduler "s515" with entities [LocalPlayer, LocalPlayer], work=[23*, 0*]
 38: 0x0856 [0x4E] SET_ENTITY_HIDE_FLAG: Hide LocalPlayer
 39: 0x085C [0x5D] SET_MUSIC_VOLUME(volume=0*, fade_time=200*)
 40: 0x0861 [0x03] Work_Zone[4] = 688*
 41: 0x0866 [0x29] REQ_SET_WAIT(priority=0x08, entity_id=Green Thumb Moogle (ID: 17924125/0x0111801D), tag_num=0x2C)
 42: 0x086D [0x29] REQ_SET_WAIT(priority=0x08, entity_id=Green Thumb Moogle (ID: 17924125/0x0111801D), tag_num=0x35)
 43: 0x0874 [0x2B] Green Thumb Moogle (ID: 17924125/0x0111801D) [7644*]:
    → "As an aside, should you lack ligneous libations, logging will lay you up with some $2, kupo."
 44: 0x087B [0x23] WAIT_FOR_DIALOG_INTERACTION
 45: 0x087C [0x29] REQ_SET_WAIT(priority=0x08, entity_id=Green Thumb Moogle (ID: 17924125/0x0111801D), tag_num=0x36)
 46: 0x0883 [0x29] REQ_SET_WAIT(priority=0x08, entity_id=Green Thumb Moogle (ID: 17924125/0x0111801D), tag_num=0x37)
 47: 0x088A [0x52] END_LOAD_SCHEDULER: End scheduler "s515" with entities [LocalPlayer, LocalPlayer], work=23*
 48: 0x0899 [0x45] LOAD_SCHEDULED_TASK: Load scheduler "s520" with entities [LocalPlayer, LocalPlayer], work=[23*, 0*]
 49: 0x08AA [0x27] REQ_SET(priority=0x08, entity_id=KANI01 (ID: 17924178/0x01118052), tag_num=0x03)
 50: 0x08B1 [0x4E] SET_ENTITY_HIDE_FLAG: Show LocalPlayer
 51: 0x08B7 [0x1C] WAIT(40* ticks)
 52: 0x08BA [0x52] END_LOAD_SCHEDULER: End scheduler "s520" with entities [LocalPlayer, LocalPlayer], work=23*
 53: 0x08C9 [0x45] LOAD_SCHEDULED_TASK: Load scheduler "s518" with entities [LocalPlayer, LocalPlayer], work=[23*, 0*]
 54: 0x08DA [0x1C] WAIT(40* ticks)
 55: 0x08DD [0x52] END_LOAD_SCHEDULER: End scheduler "s518" with entities [LocalPlayer, LocalPlayer], work=23*
 56: 0x08EC [0x45] LOAD_SCHEDULED_TASK: Load scheduler "s516" with entities [LocalPlayer, LocalPlayer], work=[23*, 0*]
 57: 0x08FD [0x5C] MUSIC_CONTROL: Set Idle (Day) music to song 123*
 58: 0x0901 [0x5C] MUSIC_CONTROL: Set Idle (Night) music to song 123*
 59: 0x0905 [0x9A] WAIT_MUSIC_SERVER()
 60: 0x0906 [0x5D] SET_MUSIC_VOLUME(volume=127*, fade_time=1*)
 61: 0x090B [0x29] REQ_SET_WAIT(priority=0x08, entity_id=Green Thumb Moogle (ID: 17924125/0x0111801D), tag_num=0x38)
 62: 0x0912 [0x4B] UPDATE_ENTITY_YAW(entity=Green Thumb Moogle (ID: 17924125/0x0111801D), yaw=2.2°*)
 63: 0x0919 [0x6F] WAIT_FRAME_DELAY: Yield until WaitTime reaches zero
 64: 0x091A [0x70] WAIT_ENTITY_RENDER_FLAG: Wait while EventEntity->Render.Flags3 bit 2 is set (cancel turn if not)
 65: 0x091B [0x4A] LocalPlayer looks at KANI01 (ID: 17924178/0x01118052)
 66: 0x0924 [0x29] REQ_SET_WAIT(priority=0x08, entity_id=Green Thumb Moogle (ID: 17924125/0x0111801D), tag_num=0x45)
 67: 0x092B [0x1C] WAIT(90* ticks)
 68: 0x092E [0x7B] LocalPlayer stops talking
 69: 0x0933 [0x2B] Green Thumb Moogle (ID: 17924125/0x0111801D) [7645*]:
    → "Undulating umbrils! What in the world was that!?"
 70: 0x093A [0x23] WAIT_FOR_DIALOG_INTERACTION
 71: 0x093B [0x4E] SET_ENTITY_HIDE_FLAG: Hide KANI01 (ID: 17924178/0x01118052)
 72: 0x0941 [0x52] END_LOAD_SCHEDULER: End scheduler "s516" with entities [LocalPlayer, LocalPlayer], work=23*
 73: 0x0950 [0x45] LOAD_SCHEDULED_TASK: Load scheduler "s562" with entities [LocalPlayer, LocalPlayer], work=[23*, 0*]
 74: 0x0961 [0x29] REQ_SET_WAIT(priority=0x08, entity_id=Green Thumb Moogle (ID: 17924125/0x0111801D), tag_num=0x46)
 75: 0x0968 [0x29] REQ_SET_WAIT(priority=0x08, entity_id=Green Thumb Moogle (ID: 17924125/0x0111801D), tag_num=0x4D)
 76: 0x096F [0x2B] Green Thumb Moogle (ID: 17924125/0x0111801D) [7646*]:
    → "...It seems this island has been infiltrated by an insidious instigator, kupo."
 77: 0x0976 [0x23] WAIT_FOR_DIALOG_INTERACTION
 78: 0x0977 [0x29] REQ_SET_WAIT(priority=0x08, entity_id=Green Thumb Moogle (ID: 17924125/0x0111801D), tag_num=0x4E)
 79: 0x097E [0x2A] GET_REQ_LEVEL(level=8, entity_id=KANI01 (ID: 17924178/0x01118052))
 80: 0x0984 [0x6F] WAIT_FRAME_DELAY: Yield until WaitTime reaches zero
 81: 0x0985 [0x70] WAIT_ENTITY_RENDER_FLAG: Wait while EventEntity->Render.Flags3 bit 2 is set (cancel turn if not)
 82: 0x0986 [0x4A] LocalPlayer looks at Green Thumb Moogle (ID: 17924125/0x0111801D)
 83: 0x098F [0x29] REQ_SET_WAIT(priority=0x08, entity_id=Green Thumb Moogle (ID: 17924125/0x0111801D), tag_num=0x4F)
 84: 0x0996 [0x2B] Green Thumb Moogle (ID: 17924125/0x0111801D) [7647*]:
    → "I'm sure that he's the one responsible for that headward-hurtling harvest mere moments ago!"
 85: 0x099D [0x29] REQ_SET_WAIT(priority=0x08, entity_id=Green Thumb Moogle (ID: 17924125/0x0111801D), tag_num=0x50)
 86: 0x09A4 [0x29] REQ_SET_WAIT(priority=0x08, entity_id=Green Thumb Moogle (ID: 17924125/0x0111801D), tag_num=0x49)
 87: 0x09AB [0x29] REQ_SET_WAIT(priority=0x08, entity_id=Green Thumb Moogle (ID: 17924125/0x0111801D), tag_num=0x4A)
 88: 0x09B2 [0x23] WAIT_FOR_DIALOG_INTERACTION
 89: 0x09B3 [0x6F] WAIT_FRAME_DELAY: Yield until WaitTime reaches zero
 90: 0x09B4 [0x70] WAIT_ENTITY_RENDER_FLAG: Wait while EventEntity->Render.Flags3 bit 2 is set (cancel turn if not)
 91: 0x09B5 [0x52] END_LOAD_SCHEDULER: End scheduler "s562" with entities [LocalPlayer, LocalPlayer], work=23*
 92: 0x09C4 [0x45] LOAD_SCHEDULED_TASK: Load scheduler "s517" with entities [LocalPlayer, LocalPlayer], work=[23*, 0*]
 93: 0x09D5 [0x4B] UPDATE_ENTITY_YAW(entity=LocalPlayer, yaw=1.1°*)
 94: 0x09DC [0x37] UPDATE_EVENT_POSITION_AND_DIR: x=4.962*, z=12.590*, y=-0.483*, direction=133.2°*
 95: 0x09E5 [0x4A] Green Thumb Moogle (ID: 17924125/0x0111801D) looks at LocalPlayer
 96: 0x09EE [0x6F] WAIT_FRAME_DELAY: Yield until WaitTime reaches zero
 97: 0x09EF [0x70] WAIT_ENTITY_RENDER_FLAG: Wait while EventEntity->Render.Flags3 bit 2 is set (cancel turn if not)
 98: 0x09F0 [0x03] Work_Zone[5] = 17296*
 99: 0x09F5 [0x29] REQ_SET_WAIT(priority=0x08, entity_id=Green Thumb Moogle (ID: 17924125/0x0111801D), tag_num=0x4B)
100: 0x09FC [0x27] REQ_SET(priority=0x08, entity_id=Green Thumb Moogle (ID: 17924125/0x0111801D), tag_num=0x81)
101: 0x0A03 [0x1C] WAIT(80* ticks)
102: 0x0A06 [0x79] Green Thumb Moogle (ID: 17924125/0x0111801D) looks at DIRECTOR (ID: 17924176/0x01118050) (Basic look)
103: 0x0A10 [0x79] LocalPlayer looks at DIRECTOR (ID: 17924176/0x01118050) (Basic look)
104: 0x0A1A [0x1C] WAIT(40* ticks)
105: 0x0A1D [0x52] END_LOAD_SCHEDULER: End scheduler "s517" with entities [LocalPlayer, LocalPlayer], work=23*
106: 0x0A2C [0x45] LOAD_SCHEDULED_TASK: Load scheduler "s519" with entities [LocalPlayer, LocalPlayer], work=[23*, 0*]
107: 0x0A3D [0x2A] GET_REQ_LEVEL(level=8, entity_id=Green Thumb Moogle (ID: 17924125/0x0111801D))
108: 0x0A43 [0x29] REQ_SET_WAIT(priority=0x08, entity_id=Green Thumb Moogle (ID: 17924125/0x0111801D), tag_num=0x4C)
109: 0x0A4A [0x2B] Green Thumb Moogle (ID: 17924125/0x0111801D) [7649*]:
    → "While you're whittling away at that whetstone, I'll start in on a snare."
110: 0x0A51 [0x23] WAIT_FOR_DIALOG_INTERACTION
111: 0x0A52 [0x45] LOAD_SCHEDULED_TASK: Load scheduler "fdo1" with entities [LocalPlayer, LocalPlayer], work=[200*, 0*]
112: 0x0A63 [0x55] WAIT_LOAD_SCHEDULER: Wait for scheduler "fdo1" with entities [LocalPlayer, LocalPlayer], work=200*
113: 0x0A72 [0x52] END_LOAD_SCHEDULER: End scheduler "s519" with entities [LocalPlayer, LocalPlayer], work=23*
114: 0x0A81 [0x4E] SET_ENTITY_HIDE_FLAG: Show Susuroon (ID: 17924184/0x01118058)
115: 0x0A87 [0x4E] SET_ENTITY_HIDE_FLAG: Show Kuyin Hathdenna (ID: 17924183/0x01118057)
116: 0x0A8D [0x4E] SET_ENTITY_HIDE_FLAG: Show Yeestog (ID: 17924185/0x01118059)
117: 0x0A93 [0x4E] SET_ENTITY_HIDE_FLAG: Show Kuyin Hathdenna (ID: 17924202/0x0111806A)
118: 0x0A99 [0x4E] SET_ENTITY_HIDE_FLAG: Show Susuroon (ID: 17924203/0x0111806B)
119: 0x0A9F [0x4E] SET_ENTITY_HIDE_FLAG: Show Yeestog (ID: 17924204/0x0111806C)
120: 0x0AA5 [0x4E] SET_ENTITY_HIDE_FLAG: Show Porter Moogle (ID: 17924221/0x0111807D)
121: 0x0AAB [0x45] LOAD_SCHEDULED_TASK: Load scheduler "qstc" with entities [EventEntity, EventEntity], work=[201*, 0*]
122: 0x0ABC [0x5C] MUSIC_CONTROL: Set Idle (Day) music to song 67*
123: 0x0AC0 [0x5C] MUSIC_CONTROL: Set Idle (Night) music to song 67*
124: 0x0AC4 [0x9A] WAIT_MUSIC_SERVER()
125: 0x0AC5 [0x5D] SET_MUSIC_VOLUME(volume=127*, fade_time=1*)
126: 0x0ACA [0x1C] WAIT(2* ticks)
127: 0x0ACD [0x29] REQ_SET_WAIT(priority=0x08, entity_id=Green Thumb Moogle (ID: 17924125/0x0111801D), tag_num=0x6E)
128: 0x0AD4 [0x46] CAMERA_CONTROL: Restore default settings
129: 0x0AD6 [0x45] LOAD_SCHEDULED_TASK: Load scheduler "fdi1" with entities [LocalPlayer, LocalPlayer], work=[200*, 0*]
130: 0x0AE7 [0x20] SET_CLI_EVENT_UC_FLAG: Unlock player control
131: 0x0AE9 [0x21] END_EVENT
132: 0x0AEA [0x00] END_REQSTACK()
```

### Event 2004

#### Metadata

| Field        | Value     |
|--------------|-----------|
| Entrypoint   | 0x0AEB    |
| Data Size    | 642 bytes |
| Instructions | 85        |

```
      00 01 02 03 04 05 06 07  08 09 0A 0B 0C 0D 0E 0F
      -- -- -- -- -- -- -- --  -- -- -- -- -- -- -- --
0AE0:                                   42 46 01 45 00             BF.E.
0AF0: 80 F0 FF FF 7F F0 FF FF  7F 66 64 6F 31 01 80 55  .........fdo1..U
0B00: 00 80 F0 FF FF 7F F0 FF  FF 7F 66 64 6F 31 38 02  ..........fdo18.
0B10: 80 92 01 1D 80 11 01 92  01 20 80 11 01 92 01 21  ......... .....!
0B20: 80 11 01 92 01 22 80 11  01 92 01 8E 80 11 01 4E  .....".........N
0B30: 01 58 80 11 01 4E 01 57  80 11 01 4E 01 59 80 11  .X...N.W...N.Y..
0B40: 01 4E 01 6A 80 11 01 4E  01 6B 80 11 01 4E 01 6C  .N.j...N.k...N.l
0B50: 80 11 01 4E 01 7D 80 11  01 4E 01 87 80 11 01 BA  ...N.}...N......
0B60: 87 80 11 01 03 80 03 80  01 80 01 80 4E 01 89 80  ............N...
0B70: 11 01 29 08 1D 80 11 01  83 29 08 F0 FF FF 7F 11  ..)......)......
0B80: 4A F0 FF FF 7F 1D 80 11  01 6F 76 F0 FF FF 7F 1C  J........ov.....
0B90: 23 80 45 08 80 F0 FF FF  7F F0 FF FF 7F 73 35 32  #.E..........s52
0BA0: 31 01 80 45 00 80 F0 FF  FF 7F F0 FF FF 7F 66 64  1..E..........fd
0BB0: 69 31 01 80 55 00 80 F0  FF FF 7F F0 FF FF 7F 66  i1..U..........f
0BC0: 64 69 31 03 05 10 3B 80  29 08 1D 80 11 01 35 2B  di1...;.).....5+
0BD0: 1D 80 11 01 3F 80 23 29  08 1D 80 11 01 36 52 08  ....?.#).....6R.
0BE0: 80 F0 FF FF 7F F0 FF FF  7F 73 35 32 31 45 08 80  .........s521E..
0BF0: F0 FF FF 7F F0 FF FF 7F  73 35 32 33 01 80 1C 23  ........s523...#
0C00: 80 29 08 1D 80 11 01 37  2B 1D 80 11 01 40 80 23  .).....7+....@.#
0C10: 29 08 1D 80 11 01 38 5D  01 80 11 80 2B 1D 80 11  ).....8]....+...
0C20: 01 41 80 23 CD 42 80 F8  FF FF 7F F8 FF FF 7F 73  .A.#.B.........s
0C30: 30 30 31 01 80 45 08 80  F8 FF FF 7F F8 FF FF 7F  001..E..........
0C40: 73 65 30 31 01 80 1C 0A  80 1C 0A 80 52 08 80 F0  se01........R...
0C50: FF FF 7F F0 FF FF 7F 73  35 32 33 45 08 80 F0 FF  .......s523E....
0C60: FF 7F F0 FF FF 7F 73 35  32 34 01 80 29 08 1D 80  ......s524..)...
0C70: 11 01 45 29 08 1D 80 11  01 46 52 08 80 F0 FF FF  ..E).....FR.....
0C80: 7F F0 FF FF 7F 73 35 32  34 45 08 80 F0 FF FF 7F  .....s524E......
0C90: F0 FF FF 7F 73 35 32 35  01 80 4B 1D 80 11 01 43  ....s525..K....C
0CA0: 80 4B F0 FF FF 7F 43 80  2B 1D 80 11 01 44 80 23  .K....C.+....D.#
0CB0: 5C 00 2A 80 5C 01 2A 80  5D 20 80 11 80 2B 1D 80  \.*.\.*.] ...+..
0CC0: 11 01 45 80 23 4A 1D 80  11 01 F0 FF FF 7F 79 00  ..E.#J........y.
0CD0: F0 FF FF 7F 1D 80 11 01  2B 1D 80 11 01 46 80 23  ........+....F.#
0CE0: 45 00 80 F0 FF FF 7F F0  FF FF 7F 66 64 6F 31 01  E..........fdo1.
0CF0: 80 55 00 80 F0 FF FF 7F  F0 FF FF 7F 66 64 6F 31  .U..........fdo1
0D00: 52 08 80 F0 FF FF 7F F0  FF FF 7F 73 35 32 35 4E  R..........s525N
0D10: 00 58 80 11 01 4E 00 57  80 11 01 4E 00 59 80 11  .X...N.W...N.Y..
0D20: 01 4E 00 6A 80 11 01 4E  00 6B 80 11 01 4E 00 6C  .N.j...N.k...N.l
0D30: 80 11 01 4E 00 7D 80 11  01 7B F0 FF FF 7F 45 2D  ...N.}...{....E-
0D40: 80 F8 FF FF 7F F8 FF FF  7F 71 73 74 63 01 80 29  .........qstc..)
0D50: 08 1D 80 11 01 6E 46 00  45 00 80 F0 FF FF 7F F0  .....nF.E.......
0D60: FF FF 7F 66 64 69 31 01  80 20 00 21 00           ...fdi1.. .!.   
```

#### Opcodes

```
  0: 0x0AEB [0x42] SET_CLI_EVENT_CANCEL_DATA()
  1: 0x0AEC [0x46] CAMERA_CONTROL: Disable user control
  2: 0x0AEE [0x45] LOAD_SCHEDULED_TASK: Load scheduler "fdo1" with entities [LocalPlayer, LocalPlayer], work=[200*, 0*]
  3: 0x0AFF [0x55] WAIT_LOAD_SCHEDULER: Wait for scheduler "fdo1" with entities [LocalPlayer, LocalPlayer], work=200*
  4: 0x0B0E [0x38] SET_CLIENT_EVENT_MODE(mode=19*)
  5: 0x0B11 [0x92] Green Thumb Moogle (ID: 17924125/0x0111801D)->Render.Flags3 ^= 0x01
  6: 0x0B17 [0x92] Garden Furrow (ID: 17924128/0x01118020)->Render.Flags3 ^= 0x01
  7: 0x0B1D [0x92] Garden Furrow #2 (ID: 17924129/0x01118021)->Render.Flags3 ^= 0x01
  8: 0x0B23 [0x92] Garden Furrow #3 (ID: 17924130/0x01118022)->Render.Flags3 ^= 0x01
  9: 0x0B29 [0x92] Ephemeral Moogle (ID: 17924238/0x0111808E)->Render.Flags3 ^= 0x01
 10: 0x0B2F [0x4E] SET_ENTITY_HIDE_FLAG: Hide Susuroon (ID: 17924184/0x01118058)
 11: 0x0B35 [0x4E] SET_ENTITY_HIDE_FLAG: Hide Kuyin Hathdenna (ID: 17924183/0x01118057)
 12: 0x0B3B [0x4E] SET_ENTITY_HIDE_FLAG: Hide Yeestog (ID: 17924185/0x01118059)
 13: 0x0B41 [0x4E] SET_ENTITY_HIDE_FLAG: Hide Kuyin Hathdenna (ID: 17924202/0x0111806A)
 14: 0x0B47 [0x4E] SET_ENTITY_HIDE_FLAG: Hide Susuroon (ID: 17924203/0x0111806B)
 15: 0x0B4D [0x4E] SET_ENTITY_HIDE_FLAG: Hide Yeestog (ID: 17924204/0x0111806C)
 16: 0x0B53 [0x4E] SET_ENTITY_HIDE_FLAG: Hide Porter Moogle (ID: 17924221/0x0111807D)
 17: 0x0B59 [0x4E] SET_ENTITY_HIDE_FLAG: Hide Chacharoon (ID: 17924231/0x01118087)
 18: 0x0B5F [0xBA] SET_ENTITY_POSITION(entity_id=Chacharoon (ID: 17924231/0x01118087), pos_x=-100.000*, pos_z=-100.000*, pos_y=0.000*, direction=0.0°*)
 19: 0x0B6C [0x4E] SET_ENTITY_HIDE_FLAG: Hide Breeding Monster (ID: 17924233/0x01118089)
 20: 0x0B72 [0x29] REQ_SET_WAIT(priority=0x08, entity_id=Green Thumb Moogle (ID: 17924125/0x0111801D), tag_num=0x83)
 21: 0x0B79 [0x29] REQ_SET_WAIT(priority=0x08, entity_id=LocalPlayer, tag_num=0x11)
 22: 0x0B80 [0x4A] LocalPlayer looks at Green Thumb Moogle (ID: 17924125/0x0111801D)
 23: 0x0B89 [0x6F] WAIT_FRAME_DELAY: Yield until WaitTime reaches zero
 24: 0x0B8A [0x76] CHECK_ENTITY_RENDER_FLAGS: Wait until LocalPlayer Render.Flags0 and Render.Flags3 conditions are met
 25: 0x0B8F [0x1C] WAIT(30* ticks)
 26: 0x0B92 [0x45] LOAD_SCHEDULED_TASK: Load scheduler "s521" with entities [LocalPlayer, LocalPlayer], work=[23*, 0*]
 27: 0x0BA3 [0x45] LOAD_SCHEDULED_TASK: Load scheduler "fdi1" with entities [LocalPlayer, LocalPlayer], work=[200*, 0*]
 28: 0x0BB4 [0x55] WAIT_LOAD_SCHEDULER: Wait for scheduler "fdi1" with entities [LocalPlayer, LocalPlayer], work=200*
 29: 0x0BC3 [0x03] Work_Zone[5] = 17296*
 30: 0x0BC8 [0x29] REQ_SET_WAIT(priority=0x08, entity_id=Green Thumb Moogle (ID: 17924125/0x0111801D), tag_num=0x35)
 31: 0x0BCF [0x2B] Green Thumb Moogle (ID: 17924125/0x0111801D) [7652*]:
    → "Hip, hip, hooray, kupo! With this $3, we can smother, smash, and smear that smug stowaway into oblivion!"
 32: 0x0BD6 [0x23] WAIT_FOR_DIALOG_INTERACTION
 33: 0x0BD7 [0x29] REQ_SET_WAIT(priority=0x08, entity_id=Green Thumb Moogle (ID: 17924125/0x0111801D), tag_num=0x36)
 34: 0x0BDE [0x52] END_LOAD_SCHEDULER: End scheduler "s521" with entities [LocalPlayer, LocalPlayer], work=23*
 35: 0x0BED [0x45] LOAD_SCHEDULED_TASK: Load scheduler "s523" with entities [LocalPlayer, LocalPlayer], work=[23*, 0*]
 36: 0x0BFE [0x1C] WAIT(30* ticks)
 37: 0x0C01 [0x29] REQ_SET_WAIT(priority=0x08, entity_id=Green Thumb Moogle (ID: 17924125/0x0111801D), tag_num=0x37)
 38: 0x0C08 [0x2B] Green Thumb Moogle (ID: 17924125/0x0111801D) [7653*]:
    → "Now go out there and garrote him, <Player>! I'll stay back and serve as your sturdy supporting stanchion, kupo."
 39: 0x0C0F [0x23] WAIT_FOR_DIALOG_INTERACTION
 40: 0x0C10 [0x29] REQ_SET_WAIT(priority=0x08, entity_id=Green Thumb Moogle (ID: 17924125/0x0111801D), tag_num=0x38)
 41: 0x0C17 [0x5D] SET_MUSIC_VOLUME(volume=0*, fade_time=60*)
 42: 0x0C1C [0x2B] Green Thumb Moogle (ID: 17924125/0x0111801D) [7654*]:
    → "I'd love to help with pummeling that pernicious punk, but we're preeminent pacifists. It's contrary to our character to lash out against living things. I wish you the best in battle, though, kupo!"
 43: 0x0C23 [0x23] WAIT_FOR_DIALOG_INTERACTION
 44: 0x0C24 [0xCD] LOAD_SCHEDULED_TASK_ALT4: Load scheduler "s001" with entities [EventEntity, EventEntity], work=[144*, 0*]
 45: 0x0C35 [0x45] LOAD_SCHEDULED_TASK: Load scheduler "se01" with entities [EventEntity, EventEntity], work=[23*, 0*]
 46: 0x0C46 [0x1C] WAIT(90* ticks)
 47: 0x0C49 [0x1C] WAIT(90* ticks)
 48: 0x0C4C [0x52] END_LOAD_SCHEDULER: End scheduler "s523" with entities [LocalPlayer, LocalPlayer], work=23*
 49: 0x0C5B [0x45] LOAD_SCHEDULED_TASK: Load scheduler "s524" with entities [LocalPlayer, LocalPlayer], work=[23*, 0*]
 50: 0x0C6C [0x29] REQ_SET_WAIT(priority=0x08, entity_id=Green Thumb Moogle (ID: 17924125/0x0111801D), tag_num=0x45)
 51: 0x0C73 [0x29] REQ_SET_WAIT(priority=0x08, entity_id=Green Thumb Moogle (ID: 17924125/0x0111801D), tag_num=0x46)
 52: 0x0C7A [0x52] END_LOAD_SCHEDULER: End scheduler "s524" with entities [LocalPlayer, LocalPlayer], work=23*
 53: 0x0C89 [0x45] LOAD_SCHEDULED_TASK: Load scheduler "s525" with entities [LocalPlayer, LocalPlayer], work=[23*, 0*]
 54: 0x0C9A [0x4B] UPDATE_ENTITY_YAW(entity=Green Thumb Moogle (ID: 17924125/0x0111801D), yaw=350.1°*)
 55: 0x0CA1 [0x4B] UPDATE_ENTITY_YAW(entity=LocalPlayer, yaw=350.1°*)
 56: 0x0CA8 [0x2B] Green Thumb Moogle (ID: 17924125/0x0111801D) [7655*]:
    → "Do my ears deceive me, or is something stirring in yonder pond, kupo?"
 57: 0x0CAF [0x23] WAIT_FOR_DIALOG_INTERACTION
 58: 0x0CB0 [0x5C] MUSIC_CONTROL: Set Idle (Day) music to song 67*
 59: 0x0CB4 [0x5C] MUSIC_CONTROL: Set Idle (Night) music to song 67*
 60: 0x0CB8 [0x5D] SET_MUSIC_VOLUME(volume=127*, fade_time=60*)
 61: 0x0CBD [0x2B] Green Thumb Moogle (ID: 17924125/0x0111801D) [7656*]:
    → "Terrific timing! Let's launch into a new lesson by letting you lift the net sitting silently in the pond over there."
 62: 0x0CC4 [0x23] WAIT_FOR_DIALOG_INTERACTION
 63: 0x0CC5 [0x4A] Green Thumb Moogle (ID: 17924125/0x0111801D) looks at LocalPlayer
 64: 0x0CCE [0x79] LocalPlayer looks at Green Thumb Moogle (ID: 17924125/0x0111801D) (Basic look)
 65: 0x0CD8 [0x2B] Green Thumb Moogle (ID: 17924125/0x0111801D) [7657*]:
    → "Fish up all the freshwater fare you can, including that craven criminal, kupo!"
 66: 0x0CDF [0x23] WAIT_FOR_DIALOG_INTERACTION
 67: 0x0CE0 [0x45] LOAD_SCHEDULED_TASK: Load scheduler "fdo1" with entities [LocalPlayer, LocalPlayer], work=[200*, 0*]
 68: 0x0CF1 [0x55] WAIT_LOAD_SCHEDULER: Wait for scheduler "fdo1" with entities [LocalPlayer, LocalPlayer], work=200*
 69: 0x0D00 [0x52] END_LOAD_SCHEDULER: End scheduler "s525" with entities [LocalPlayer, LocalPlayer], work=23*
 70: 0x0D0F [0x4E] SET_ENTITY_HIDE_FLAG: Show Susuroon (ID: 17924184/0x01118058)
 71: 0x0D15 [0x4E] SET_ENTITY_HIDE_FLAG: Show Kuyin Hathdenna (ID: 17924183/0x01118057)
 72: 0x0D1B [0x4E] SET_ENTITY_HIDE_FLAG: Show Yeestog (ID: 17924185/0x01118059)
 73: 0x0D21 [0x4E] SET_ENTITY_HIDE_FLAG: Show Kuyin Hathdenna (ID: 17924202/0x0111806A)
 74: 0x0D27 [0x4E] SET_ENTITY_HIDE_FLAG: Show Susuroon (ID: 17924203/0x0111806B)
 75: 0x0D2D [0x4E] SET_ENTITY_HIDE_FLAG: Show Yeestog (ID: 17924204/0x0111806C)
 76: 0x0D33 [0x4E] SET_ENTITY_HIDE_FLAG: Show Porter Moogle (ID: 17924221/0x0111807D)
 77: 0x0D39 [0x7B] LocalPlayer stops talking
 78: 0x0D3E [0x45] LOAD_SCHEDULED_TASK: Load scheduler "qstc" with entities [EventEntity, EventEntity], work=[201*, 0*]
 79: 0x0D4F [0x29] REQ_SET_WAIT(priority=0x08, entity_id=Green Thumb Moogle (ID: 17924125/0x0111801D), tag_num=0x6E)
 80: 0x0D56 [0x46] CAMERA_CONTROL: Restore default settings
 81: 0x0D58 [0x45] LOAD_SCHEDULED_TASK: Load scheduler "fdi1" with entities [LocalPlayer, LocalPlayer], work=[200*, 0*]
 82: 0x0D69 [0x20] SET_CLI_EVENT_UC_FLAG: Unlock player control
 83: 0x0D6B [0x21] END_EVENT
 84: 0x0D6C [0x00] END_REQSTACK()
```

### Event 2005

#### Metadata

| Field        | Value     |
|--------------|-----------|
| Entrypoint   | 0x0D6D    |
| Data Size    | 884 bytes |
| Instructions | 120       |

```
      00 01 02 03 04 05 06 07  08 09 0A 0B 0C 0D 0E 0F
      -- -- -- -- -- -- -- --  -- -- -- -- -- -- -- --
0D60:                                         42 46 01               BF.
0D70: 45 00 80 F0 FF FF 7F F0  FF FF 7F 66 64 6F 31 01  E..........fdo1.
0D80: 80 55 00 80 F0 FF FF 7F  F0 FF FF 7F 66 64 6F 31  .U..........fdo1
0D90: 38 02 80 92 01 1D 80 11  01 92 01 20 80 11 01 92  8.......... ....
0DA0: 01 21 80 11 01 92 01 22  80 11 01 92 01 8E 80 11  .!....."........
0DB0: 01 4E 01 58 80 11 01 4E  01 57 80 11 01 4E 01 59  .N.X...N.W...N.Y
0DC0: 80 11 01 4E 01 6A 80 11  01 4E 01 6B 80 11 01 4E  ...N.j...N.k...N
0DD0: 01 6C 80 11 01 4E 01 7D  80 11 01 4E 01 87 80 11  .l...N.}...N....
0DE0: 01 BA 87 80 11 01 03 80  03 80 01 80 01 80 4E 01  ..............N.
0DF0: 89 80 11 01 29 08 1D 80  11 01 85 29 08 F0 FF FF  ....)......)....
0E00: 7F 12 79 00 F0 FF FF 7F  1D 80 11 01 1C 23 80 45  ..y..........#.E
0E10: 08 80 F0 FF FF 7F F0 FF  FF 7F 73 35 32 32 01 80  ..........s522..
0E20: 45 00 80 F0 FF FF 7F F0  FF FF 7F 66 64 69 31 01  E..........fdi1.
0E30: 80 55 00 80 F0 FF FF 7F  F0 FF FF 7F 66 64 69 31  .U..........fdi1
0E40: 29 08 1D 80 11 01 51 2B  1D 80 11 01 47 80 23 29  ).....Q+....G.#)
0E50: 08 1D 80 11 01 52 52 08  80 F0 FF FF 7F F0 FF FF  .....RR.........
0E60: 7F 73 35 32 32 45 08 80  F0 FF FF 7F F0 FF FF 7F  .s522E..........
0E70: 73 35 32 36 01 80 5D 01  80 00 80 29 08 1D 80 11  s526..]....)....
0E80: 01 4D 2B 1D 80 11 01 48  80 23 29 08 1D 80 11 01  .M+....H.#).....
0E90: 4E 37 49 80 4A 80 4B 80  4C 80 52 08 80 F0 FF FF  N7I.J.K.L.R.....
0EA0: 7F F0 FF FF 7F 73 35 32  36 45 08 80 F0 FF FF 7F  .....s526E......
0EB0: F0 FF FF 7F 73 35 36 34  01 80 79 00 1D 80 11 01  ....s564..y.....
0EC0: 50 80 11 01 29 08 1D 80  11 01 4F 29 08 1D 80 11  P...).....O)....
0ED0: 01 50 27 08 1D 80 11 01  86 2B 1D 80 11 01 4D 80  .P'......+....M.
0EE0: 23 52 08 80 F0 FF FF 7F  F0 FF FF 7F 73 35 36 34  #R..........s564
0EF0: 45 08 80 F0 FF FF 7F F0  FF FF 7F 73 35 32 38 01  E..........s528.
0F00: 80 27 08 52 80 11 01 05  1C 25 80 52 08 80 F0 FF  .'.R.....%.R....
0F10: FF 7F F0 FF FF 7F 73 35  32 38 45 08 80 F0 FF FF  ......s528E.....
0F20: 7F F0 FF FF 7F 73 35 32  37 01 80 4E 00 52 80 11  .....s527..N.R..
0F30: 01 1C 11 80 52 08 80 F0  FF FF 7F F0 FF FF 7F 73  ....R..........s
0F40: 35 32 37 45 08 80 F0 FF  FF 7F F0 FF FF 7F 73 35  527E..........s5
0F50: 32 39 01 80 2A 08 1D 80  11 01 4A 1D 80 11 01 F0  29..*.....J.....
0F60: FF FF 7F 6F 70 4A F0 FF  FF 7F 52 80 11 01 29 08  ...opJ....R...).
0F70: 1D 80 11 01 45 29 08 1D  80 11 01 46 27 08 1D 80  ....E).....F'...
0F80: 11 01 87 2B 1D 80 11 01  4E 80 23 2A 08 1D 80 11  ...+....N.#*....
0F90: 01 2A 08 52 80 11 01 4E  01 52 80 11 01 52 08 80  .*.R...N.R...R..
0FA0: F0 FF FF 7F F0 FF FF 7F  73 35 32 39 45 08 80 F0  ........s529E...
0FB0: FF FF 7F F0 FF FF 7F 73  35 33 30 01 80 4B 1D 80  .......s530..K..
0FC0: 11 01 4F 80 6F 70 2B 1D  80 11 01 50 80 23 29 08  ..O.op+....P.#).
0FD0: 1D 80 11 01 51 2B 1D 80  11 01 51 80 23 29 08 1D  ....Q+....Q.#)..
0FE0: 80 11 01 52 4A 1D 80 11  01 F0 FF FF 7F 6F 70 79  ...RJ........opy
0FF0: 00 F0 FF FF 7F 1D 80 11  01 2B 1D 80 11 01 52 80  .........+....R.
1000: 23 52 08 80 F0 FF FF 7F  F0 FF FF 7F 73 35 33 30  #R..........s530
1010: 45 08 80 F0 FF FF 7F F0  FF FF 7F 73 35 33 31 01  E..........s531.
1020: 80 4B 1D 80 11 01 4F 80  6F 70 29 08 1D 80 11 01  .K....O.op).....
1030: 39 2B 1D 80 11 01 53 80  23 2B 1D 80 11 01 54 80  9+....S.#+....T.
1040: 23 29 08 1D 80 11 01 3A  45 00 80 F0 FF FF 7F F0  #).....:E.......
1050: FF FF 7F 66 64 6F 31 01  80 55 00 80 F0 FF FF 7F  ...fdo1..U......
1060: F0 FF FF 7F 66 64 6F 31  52 08 80 F0 FF FF 7F F0  ....fdo1R.......
1070: FF FF 7F 73 35 33 31 4E  00 58 80 11 01 4E 00 57  ...s531N.X...N.W
1080: 80 11 01 4E 00 59 80 11  01 4E 00 6A 80 11 01 4E  ...N.Y...N.j...N
1090: 00 6B 80 11 01 4E 00 6C  80 11 01 4E 00 7D 80 11  .k...N.l...N.}..
10A0: 01 45 2D 80 F8 FF FF 7F  F8 FF FF 7F 71 73 74 63  .E-.........qstc
10B0: 01 80 5C 00 2A 80 5C 01  2A 80 9A 5D 20 80 21 80  ..\.*.\.*..] .!.
10C0: 1C 3E 80 29 08 1D 80 11  01 6E 46 00 45 00 80 F0  .>.).....nF.E...
10D0: FF FF 7F F0 FF FF 7F 66  64 69 31 01 80 20 00 21  .......fdi1.. .!
10E0: 00                                                .               
```

#### Opcodes

```
  0: 0x0D6D [0x42] SET_CLI_EVENT_CANCEL_DATA()
  1: 0x0D6E [0x46] CAMERA_CONTROL: Disable user control
  2: 0x0D70 [0x45] LOAD_SCHEDULED_TASK: Load scheduler "fdo1" with entities [LocalPlayer, LocalPlayer], work=[200*, 0*]
  3: 0x0D81 [0x55] WAIT_LOAD_SCHEDULER: Wait for scheduler "fdo1" with entities [LocalPlayer, LocalPlayer], work=200*
  4: 0x0D90 [0x38] SET_CLIENT_EVENT_MODE(mode=19*)
  5: 0x0D93 [0x92] Green Thumb Moogle (ID: 17924125/0x0111801D)->Render.Flags3 ^= 0x01
  6: 0x0D99 [0x92] Garden Furrow (ID: 17924128/0x01118020)->Render.Flags3 ^= 0x01
  7: 0x0D9F [0x92] Garden Furrow #2 (ID: 17924129/0x01118021)->Render.Flags3 ^= 0x01
  8: 0x0DA5 [0x92] Garden Furrow #3 (ID: 17924130/0x01118022)->Render.Flags3 ^= 0x01
  9: 0x0DAB [0x92] Ephemeral Moogle (ID: 17924238/0x0111808E)->Render.Flags3 ^= 0x01
 10: 0x0DB1 [0x4E] SET_ENTITY_HIDE_FLAG: Hide Susuroon (ID: 17924184/0x01118058)
 11: 0x0DB7 [0x4E] SET_ENTITY_HIDE_FLAG: Hide Kuyin Hathdenna (ID: 17924183/0x01118057)
 12: 0x0DBD [0x4E] SET_ENTITY_HIDE_FLAG: Hide Yeestog (ID: 17924185/0x01118059)
 13: 0x0DC3 [0x4E] SET_ENTITY_HIDE_FLAG: Hide Kuyin Hathdenna (ID: 17924202/0x0111806A)
 14: 0x0DC9 [0x4E] SET_ENTITY_HIDE_FLAG: Hide Susuroon (ID: 17924203/0x0111806B)
 15: 0x0DCF [0x4E] SET_ENTITY_HIDE_FLAG: Hide Yeestog (ID: 17924204/0x0111806C)
 16: 0x0DD5 [0x4E] SET_ENTITY_HIDE_FLAG: Hide Porter Moogle (ID: 17924221/0x0111807D)
 17: 0x0DDB [0x4E] SET_ENTITY_HIDE_FLAG: Hide Chacharoon (ID: 17924231/0x01118087)
 18: 0x0DE1 [0xBA] SET_ENTITY_POSITION(entity_id=Chacharoon (ID: 17924231/0x01118087), pos_x=-100.000*, pos_z=-100.000*, pos_y=0.000*, direction=0.0°*)
 19: 0x0DEE [0x4E] SET_ENTITY_HIDE_FLAG: Hide Breeding Monster (ID: 17924233/0x01118089)
 20: 0x0DF4 [0x29] REQ_SET_WAIT(priority=0x08, entity_id=Green Thumb Moogle (ID: 17924125/0x0111801D), tag_num=0x85)
 21: 0x0DFB [0x29] REQ_SET_WAIT(priority=0x08, entity_id=LocalPlayer, tag_num=0x12)
 22: 0x0E02 [0x79] LocalPlayer looks at Green Thumb Moogle (ID: 17924125/0x0111801D) (Basic look)
 23: 0x0E0C [0x1C] WAIT(30* ticks)
 24: 0x0E0F [0x45] LOAD_SCHEDULED_TASK: Load scheduler "s522" with entities [LocalPlayer, LocalPlayer], work=[23*, 0*]
 25: 0x0E20 [0x45] LOAD_SCHEDULED_TASK: Load scheduler "fdi1" with entities [LocalPlayer, LocalPlayer], work=[200*, 0*]
 26: 0x0E31 [0x55] WAIT_LOAD_SCHEDULER: Wait for scheduler "fdi1" with entities [LocalPlayer, LocalPlayer], work=200*
 27: 0x0E40 [0x29] REQ_SET_WAIT(priority=0x08, entity_id=Green Thumb Moogle (ID: 17924125/0x0111801D), tag_num=0x51)
 28: 0x0E47 [0x2B] Green Thumb Moogle (ID: 17924125/0x0111801D) [7660*]:
    → "Power to the pioneers, kupo! You've successfully seized the catch of the day!"
 29: 0x0E4E [0x23] WAIT_FOR_DIALOG_INTERACTION
 30: 0x0E4F [0x29] REQ_SET_WAIT(priority=0x08, entity_id=Green Thumb Moogle (ID: 17924125/0x0111801D), tag_num=0x52)
 31: 0x0E56 [0x52] END_LOAD_SCHEDULER: End scheduler "s522" with entities [LocalPlayer, LocalPlayer], work=23*
 32: 0x0E65 [0x45] LOAD_SCHEDULED_TASK: Load scheduler "s526" with entities [LocalPlayer, LocalPlayer], work=[23*, 0*]
 33: 0x0E76 [0x5D] SET_MUSIC_VOLUME(volume=0*, fade_time=200*)
 34: 0x0E7B [0x29] REQ_SET_WAIT(priority=0x08, entity_id=Green Thumb Moogle (ID: 17924125/0x0111801D), tag_num=0x4D)
 35: 0x0E82 [0x2B] Green Thumb Moogle (ID: 17924125/0x0111801D) [7661*]:
    → "...Or not? I never knew the numbers of fish were so negligible here."
 36: 0x0E89 [0x23] WAIT_FOR_DIALOG_INTERACTION
 37: 0x0E8A [0x29] REQ_SET_WAIT(priority=0x08, entity_id=Green Thumb Moogle (ID: 17924125/0x0111801D), tag_num=0x4E)
 38: 0x0E91 [0x37] UPDATE_EVENT_POSITION_AND_DIR: x=-2.746*, z=10.242*, y=-0.079*, direction=239.0°*
 39: 0x0E9A [0x52] END_LOAD_SCHEDULER: End scheduler "s526" with entities [LocalPlayer, LocalPlayer], work=23*
 40: 0x0EA9 [0x45] LOAD_SCHEDULED_TASK: Load scheduler "s564" with entities [LocalPlayer, LocalPlayer], work=[23*, 0*]
 41: 0x0EBA [0x79] Green Thumb Moogle (ID: 17924125/0x0111801D) looks at DIRECTOR (ID: 17924176/0x01118050) (Basic look)
