# 17924166 - PlantFurn13

## Common Data

| Field            | Value                |
|------------------|----------------------|
| Zone             | Mog Garden (ID: 280) |
| Block Size       | 196 bytes            |
| Total Events     | 3                    |
| References Count | 14                   |

## List of Events

| Event ID                 | Entrypoint   |   Size |   Instructions |
|--------------------------|--------------|--------|----------------|
| [65535](#event-65535)    | 0x0000       |      1 |              1 |
| [65534](#event-65534)    | 0x0001       |      1 |              1 |
| [65535.1](#event-655351) | 0x0002       |    110 |             24 |

## DAT References (imed_data)

|   Index | Hex Value   |   Dec Value |
|---------|-------------|-------------|
|       0 | 0x0000      |           0 |
|       1 | 0x0001      |           1 |
|       2 | 0x0003      |           3 |
|       3 | 0x001E      |          30 |
|       4 | 0x001F      |          31 |
|       5 | 0x0004      |           4 |
|       6 | 0x24A2      |        9378 |
|       7 | 0x08CA      |        2250 |
|       8 | 0xFFFFFF9C  |  4294967196 |
|       9 | 0xFFFFF83E  |  4294965310 |
|      10 | 0x0012      |          18 |
|      11 | 0x001D      |          29 |
|      12 | 0x0002      |           2 |
|      13 | 0x0011      |          17 |

## Events

### Event 65535

#### Metadata

| Field        | Value   |
|--------------|---------|
| Entrypoint   | 0x0000  |
| Data Size    | 1 bytes |
| Instructions | 1       |

```
      00 01 02 03 04 05 06 07  08 09 0A 0B 0C 0D 0E 0F
      -- -- -- -- -- -- -- --  -- -- -- -- -- -- -- --
0000: 00                                                .               
```

#### Opcodes

```
  0: 0x0000 [0x00] END_REQSTACK()
```

### Event 65534

#### Metadata

| Field        | Value   |
|--------------|---------|
| Entrypoint   | 0x0001  |
| Data Size    | 1 bytes |
| Instructions | 1       |

```
      00 01 02 03 04 05 06 07  08 09 0A 0B 0C 0D 0E 0F
      -- -- -- -- -- -- -- --  -- -- -- -- -- -- -- --
0000:    00                                              .              
```

#### Opcodes

```
  0: 0x0001 [0x00] END_REQSTACK()
```

### Event 65535.1

#### Metadata

| Field        | Value     |
|--------------|-----------|
| Entrypoint   | 0x0002    |
| Data Size    | 110 bytes |
| Instructions | 21        |

```
      00 01 02 03 04 05 06 07  08 09 0A 0B 0C 0D 0E 0F
      -- -- -- -- -- -- -- --  -- -- -- -- -- -- -- --
0000:       41 00 80 01 80 03  11 00 00 02 00 00 02 80    A.............
0010: 01 1C 00 22 01 2F 01 F8  FF FF 7F 00 41 03 80 04  ..."./......A...
0020: 80 03 11 00 00 0B 00 00  02 00 00 05 80 03 39 00  ..............9.
0030: 22 01 2F 01 F8 FF FF 7F  00 03 00 00 06 80 08 00  "./.............
0040: 00 07 80 03 01 00 08 80  07 01 00 06 11 36 00 00  .............6..
0050: 09 80 01 00 41 0A 80 0B  80 03 11 00 00 39 00 00  ....A........9..
0060: 41 0C 80 0D 80 03 11 00  00 B6 11 00 00 22 00 00  A............"..
```

#### Opcodes

```
  0: 0x0002 [0x41] ExtData[1]->WorkLocal[0] = Work_Zone_Memorize[3] (bits 0*-1*)
  1: 0x000B [0x02] IF !(ExtData[1]->WorkLocal[0] == 3*) GOTO 0x001C
  2: 0x0013 [0x22] ENTITY_HIDE_FLAG(enabled=0x01)
  3: 0x0015 [0x2F] EventEntity->Render.Flags0 |= 0x80000 // Bit 19
  4: 0x001B [0x00] END_REQSTACK()
  5: 0x001C [0x41] ExtData[1]->WorkLocal[0] = Work_Zone_Memorize[3] (bits 30*-31*)
  6: 0x0025 [0x0B] ExtData[1]->WorkLocal[0]++
  7: 0x0028 [0x02] IF !(ExtData[1]->WorkLocal[0] >= 4*) GOTO 0x0039
  8: 0x0030 [0x22] ENTITY_HIDE_FLAG(enabled=0x01)
  9: 0x0032 [0x2F] EventEntity->Render.Flags0 |= 0x80000 // Bit 19
 10: 0x0038 [0x00] END_REQSTACK()
 11: 0x0039 [0x03] ExtData[1]->WorkLocal[0] = 9378*
 12: 0x003E [0x08] ExtData[1]->WorkLocal[0] -= 2250*
 13: 0x0043 [0x03] ExtData[1]->WorkLocal[1] = 4294967196*
 14: 0x0048 [0x07] ExtData[1]->WorkLocal[1] += Work_Zone_Memorize[6]
 15: 0x004D [0x36] SET_ENTITY_EVENT_POSITION(pos_x=ExtData[1]->WorkLocal[0], pos_z=-1.986*, pos_y=ExtData[1]->WorkLocal[1])
 16: 0x0054 [0x41] ExtData[1]->WorkLocal[0] = Work_Zone_Memorize[3] (bits 18*-29*)
 17: 0x005D [0x39] SET_ENTITY_DIRECTION(direction=ExtData[1]->WorkLocal[0])
 18: 0x0060 [0x41] ExtData[1]->WorkLocal[0] = Work_Zone_Memorize[3] (bits 2*-17*)
 19: 0x0069 [0xB6] ENTITY_APPEARANCE_HANDLER(case=Unknown call)
 20: 0x006B [0x00] END_REQSTACK()
```

#### Data or dead code:

```
# Dead code (unreachable instructions):
     0x006C [0x00] END_REQSTACK()
     0x006D [0x22] ENTITY_HIDE_FLAG(enabled=0x00)
     0x006F [0x00] END_REQSTACK()
```
