# 17924128 - Garden Furrow

## Common Data

| Field            | Value                |
|------------------|----------------------|
| Zone             | Mog Garden (ID: 280) |
| Block Size       | 7884 bytes           |
| Total Events     | 5                    |
| References Count | 73                   |

## List of Events

| Event ID              | Entrypoint   |   Size |   Instructions |
|-----------------------|--------------|--------|----------------|
| [65535](#event-65535) | 0x0000       |      1 |              1 |
| [65534](#event-65534) | 0x0001       |      1 |              1 |
| [1012](#event-1012)   | 0x0002       |    773 |            157 |
| [1006](#event-1006)   | 0x0307       |    244 |             32 |
| [1009](#event-1009)   | 0x03FB       |   6537 |           1104 |

## DAT References (imed_data)

|   Index | Hex Value   |   Dec Value |
|---------|-------------|-------------|
|       0 | 0x00C8      |         200 |
|       1 | 0x0000      |           0 |
|       2 | 0x0007      |           7 |
|       3 | 0x0010      |          16 |
|       4 | 0x001F      |          31 |
|       5 | 0x000F      |          15 |
|       6 | 0x0017      |          23 |
|       7 | 0x1CA4      |        7332 |
|       8 | 0x1CA6      |        7334 |
|       9 | 0x1CA5      |        7333 |
|      10 | 0x1CA7      |        7335 |
|      11 | 0x0E10      |        3600 |
|      12 | 0x003C      |          60 |
|      13 | 0x1CAC      |        7340 |
|      14 | 0x1CAD      |        7341 |
|      15 | 0x0004      |           4 |
|      16 | 0x1CB0      |        7344 |
|      17 | 0x1CAE      |        7342 |
|      18 | 0x0001      |           1 |
|      19 | 0x1CAF      |        7343 |
|      20 | 0x0006      |           6 |
|      21 | 0x0002      |           2 |
|      22 | 0x0003      |           3 |
|      23 | 0x1CA8      |        7336 |
|      24 | 0x1CA9      |        7337 |
|      25 | 0x1CAB      |        7339 |
|      26 | 0x1CAA      |        7338 |
|      27 | 0x1CB1      |        7345 |
|      28 | 0x0012      |          18 |
|      29 | 0x1CB3      |        7347 |
|      30 | 0x1CB4      |        7348 |
|      31 | 0x1CB5      |        7349 |
|      32 | 0x0013      |          19 |
|      33 | 0x1CB6      |        7350 |
|      34 | 0x1CB7      |        7351 |
|      35 | 0x1CB8      |        7352 |
|      36 | 0x40000000  |  1073741824 |
|      37 | 0x1CBA      |        7354 |
|      38 | 0x1CBB      |        7355 |
|      39 | 0x1CBC      |        7356 |
|      40 | 0x0011      |          17 |
|      41 | 0x1CBD      |        7357 |
|      42 | 0x1CBE      |        7358 |
|      43 | 0x001A      |          26 |
|      44 | 0x001B      |          27 |
|      45 | 0x001C      |          28 |
|      46 | 0x0005      |           5 |
|      47 | 0x0014      |          20 |
|      48 | 0x0015      |          21 |
|      49 | 0x0008      |           8 |
|      50 | 0x0016      |          22 |
|      51 | 0x0018      |          24 |
|      52 | 0x0019      |          25 |
|      53 | 0x0009      |           9 |
|      54 | 0x000A      |          10 |
|      55 | 0x000B      |          11 |
|      56 | 0x000C      |          12 |
|      57 | 0x000D      |          13 |
|      58 | 0x000E      |          14 |
|      59 | 0x001D      |          29 |
|      60 | 0x0063      |          99 |
|      61 | 0x0032      |          50 |
|      62 | 0x0049      |          73 |
|      63 | 0xFFFFF62B  |  4294964779 |
|      64 | 0xFFFFEC34  |  4294962228 |
|      65 | 0x01C4      |         452 |
|      66 | 0x0CF5      |        3317 |
|      67 | 0x0048      |          72 |
|      68 | 0x582C8     |      361160 |
|      69 | 0xFFF788EE  |  4294412526 |
|      70 | 0xFFFFF2F4  |  4294963956 |
|      71 | 0x064D      |        1613 |
|      72 | 0xFFFFFFFF  |  4294967295 |

## String References

- **7332**: This furrow is rank $0, but is devoid of both seeds and fertilizer.
- **7333**: This furrow is rank $0 and has $1 planted, but is devoid of fertilizer.
- **7334**: This furrow is rank $0 and is using $2 as fertilizer, but is devoid of seeds.
- **7335**: This moogle garden bed is rank $0, has $1 planted, and is using $2 as fertilizer.
- **7336**: What will you do? [Inspect the garden./Harvest crops./Uproot everything./Absolutely nothing.]
- **7337**: Nothing has been planted in this furrow. Select a seed to be sown and place it in the basket.
- **7338**: This furrow has $1 planted in it.
- **7339**: This furrow is fertilized with $2.
- **7340**: Your agrarian experience tells you that you will be able to harvest the $1 you planted in about $8 hour[/s] and $9 minute[/s] (Earth time).
- **7341**: Your agrarian experience tells you that you will be able to harvest the $1 you planted in about $9 minute[/s] (Earth time).
- **7342**: Your aggrarian experience tells you that the time for harvesting the $1 is imminent!
- **7343**: You also conclude that the seed you planted should sprout about $4 more time[/s].
- **7344**: Your $1 has matured!
- **7345**: Harvest this crop? [Yes./No.]
- **7347**: Uproot and discard the $1 you planted?
- **7348**: Uproot it? [Yes./No.]
- **7349**: You have removed the $1 from your garden.
- **7350**: Plant $0 in your garden? Beware that specific seeds cannot be planted again if uprooted later.
- **7351**: Plant the $0? [Yes./No.]
- **7352**: You have planted $0.
- **7354**: Fertilize the furrow with the $0? Beware that fertilizer cannot be recovered once used.
- **7355**: Using this new fertilizer will overpower the effects of the $2 you already spread.
- **7356**: Use the $0? [Yes./No.]
- **7357**: You have fertilized the furrow with $1.
- **7358**: You have fertilized the $0 with $1.

## Events

### Event 65535

#### Metadata

| Field        | Value   |
|--------------|---------|
| Entrypoint   | 0x0000  |
| Data Size    | 1 bytes |
| Instructions | 1       |

```
      00 01 02 03 04 05 06 07  08 09 0A 0B 0C 0D 0E 0F
      -- -- -- -- -- -- -- --  -- -- -- -- -- -- -- --
0000: 00                                                .               
```

#### Opcodes

```
  0: 0x0000 [0x00] END_REQSTACK()
```

### Event 65534

#### Metadata

| Field        | Value   |
|--------------|---------|
| Entrypoint   | 0x0001  |
| Data Size    | 1 bytes |
| Instructions | 1       |

```
      00 01 02 03 04 05 06 07  08 09 0A 0B 0C 0D 0E 0F
      -- -- -- -- -- -- -- --  -- -- -- -- -- -- -- --
0000:    00                                              .              
```

#### Opcodes

```
  0: 0x0001 [0x00] END_REQSTACK()
```

### Event 1012

#### Metadata

| Field        | Value     |
|--------------|-----------|
| Entrypoint   | 0x0002    |
| Data Size    | 773 bytes |
| Instructions | 157       |

```
      00 01 02 03 04 05 06 07  08 09 0A 0B 0C 0D 0E 0F
      -- -- -- -- -- -- -- --  -- -- -- -- -- -- -- --
0000:       42 46 01 45 00 80  F0 FF FF 7F F0 FF FF 7F    BF.E..........
0010: 66 64 6F 30 01 80 55 00  80 F0 FF FF 7F F0 FF FF  fdo0..U.........
0020: 7F 66 64 6F 30 41 01 80  02 80 02 10 00 00 41 03  .fdo0A........A.
0030: 80 04 80 02 10 0D 00 41  01 80 05 80 03 10 01 00  .......A........
0040: 41 03 80 04 80 03 10 02  00 40 01 80 02 80 09 11  A........@......
0050: 0D 00 03 07 00 05 10 03  08 00 06 10 03 0A 00 07  ................
0060: 10 03 0B 00 08 10 03 06  00 09 10 1A 41 1D 45 06  ............A.E.
0070: 80 F0 FF FF 7F F0 FF FF  7F 73 37 36 30 01 80 45  .........s760..E
0080: 00 80 F0 FF FF 7F F0 FF  FF 7F 66 64 69 30 01 80  ..........fdi0..
0090: 55 00 80 F0 FF FF 7F F0  FF FF 7F 66 64 69 30 03  U..........fdi0.
00A0: 02 10 00 00 03 03 10 01  00 03 04 10 02 00 02 01  ................
00B0: 00 01 80 00 CC 00 02 02  00 01 80 00 C5 00 48 07  ..............H.
00C0: 80 23 01 C9 00 48 08 80  23 01 4F 01 02 02 00 01  .#...H..#.O.....
00D0: 80 00 DB 00 48 09 80 23  01 DF 00 48 0A 80 23 03  ....H..#...H..#.
00E0: 00 17 07 00 15 00 17 0B  80 03 01 17 07 00 15 01  ................
00F0: 17 0C 80 3F 01 17 01 17  0C 80 0B 01 17 02 01 17  ...?............
0100: 0C 80 04 0D 01 0B 00 17  08 01 17 0C 80 02 00 17  ................
0110: 01 80 02 1C 01 48 0D 80  23 01 3E 01 02 07 00 0C  .....H..#.>.....
0120: 80 04 2B 01 48 0E 80 23  01 3E 01 02 06 00 0F 80  ..+.H..#.>......
0130: 00 3A 01 48 10 80 23 01  3E 01 48 11 80 23 02 08  .:.H..#.>.H..#..
0140: 00 12 80 02 4F 01 03 06  10 08 00 48 13 80 23 02  ....O......H..#.
0150: 06 00 12 80 80 64 01 03  09 00 14 80 03 0F 00 01  .....d..........
0160: 80 01 A3 01 02 06 00 15  80 80 79 01 03 09 00 15  ..........y.....
0170: 80 03 0F 00 01 80 01 A3  01 02 06 00 16 80 80 8E  ................
0180: 01 03 09 00 15 80 03 0F  00 01 80 01 A3 01 02 06  ................
0190: 00 0F 80 80 A3 01 03 09  00 0F 80 03 0F 00 12 80  ................
01A0: 01 A3 01 06 0C 00 02 0C  00 01 80 00 F8 01 24 17  ..............$.
01B0: 80 0F 00 09 00 25 02 00  10 01 80 00 C9 01 1A 3F  .....%.........?
01C0: 02 03 0C 00 12 80 01 F5  01 02 00 10 12 80 00 D7  ................
01D0: 01 1A A0 02 01 F5 01 02  00 10 15 80 00 E5 01 1A  ................
01E0: D6 02 01 F5 01 02 00 10  16 80 00 F5 01 03 0C 00  ................
01F0: 12 80 01 F5 01 01 A6 01  45 00 80 F0 FF FF 7F F0  ........E.......
0200: FF FF 7F 66 64 6F 30 01  80 55 00 80 F0 FF FF 7F  ...fdo0..U......
0210: F0 FF FF 7F 66 64 6F 30  52 06 80 F0 FF FF 7F F0  ....fdo0R.......
0220: FF FF 7F 73 37 36 30 1A  41 1D 46 00 45 00 80 F0  ...s760.A.F.E...
0230: FF FF 7F F0 FF FF 7F 66  64 69 30 01 80 21 00 02  .......fdi0..!..
0240: 06 00 12 80 80 5A 02 48  18 80 23 02 02 00 01 80  .....Z.H..#.....
0250: 01 57 02 48 19 80 23 01  9F 02 02 06 00 15 80 80  .W.H..#.........
0260: 75 02 48 1A 80 23 02 02  00 01 80 01 72 02 48 19  u.H..#......r.H.
0270: 80 23 01 9F 02 02 06 00  16 80 80 90 02 48 1A 80  .#...........H..
0280: 23 02 02 00 01 80 01 8D  02 48 19 80 23 01 9F 02  #........H..#...
0290: 02 06 00 0F 80 80 9F 02  48 10 80 23 01 9F 02 1B  ........H..#....
02A0: 24 1B 80 01 80 01 80 25  02 00 10 01 80 00 D5 02  $......%........
02B0: 42 03 01 10 1C 80 43 00  43 01 03 0A 00 02 10 03  B.....C.C.......
02C0: 0B 00 03 10 40 01 80 02  80 09 11 04 10 03 0C 00  ....@...........
02D0: 12 80 01 D5 02 1B 48 1D  80 23 24 1E 80 12 80 01  ......H..#$.....
02E0: 80 25 02 00 10 01 80 00  06 03 42 48 1F 80 23 03  .%........BH..#.
02F0: 01 10 20 80 03 0C 00 12  80 03 0A 00 01 80 03 0B  .. .............
0300: 00 01 80 01 06 03 1B                              .......         
```

#### Opcodes

```
  0: 0x0002 [0x42] SET_CLI_EVENT_CANCEL_DATA()
  1: 0x0003 [0x46] CAMERA_CONTROL: Disable user control
  2: 0x0005 [0x45] LOAD_SCHEDULED_TASK: Load scheduler "fdo0" with entities [LocalPlayer, LocalPlayer], work=[200*, 0*]
  3: 0x0016 [0x55] WAIT_LOAD_SCHEDULER: Wait for scheduler "fdo0" with entities [LocalPlayer, LocalPlayer], work=200*
  4: 0x0025 [0x41] ExtData[1]->WorkLocal[0] = Work_Zone[2] (bits 0*-7*)
  5: 0x002E [0x41] ExtData[1]->WorkLocal[13] = Work_Zone[2] (bits 16*-31*)
  6: 0x0037 [0x41] ExtData[1]->WorkLocal[1] = Work_Zone[3] (bits 0*-15*)
  7: 0x0040 [0x41] ExtData[1]->WorkLocal[2] = Work_Zone[3] (bits 16*-31*)
  8: 0x0049 [0x40] SET_BIT_WORK_RANGE(start_bit=0*, end_bit=7*, target=Work_Zone_Memorize[9], source=ExtData[1]->WorkLocal[13])
  9: 0x0052 [0x03] ExtData[1]->WorkLocal[7] = Work_Zone[5]
 10: 0x0057 [0x03] ExtData[1]->WorkLocal[8] = Work_Zone[6]
 11: 0x005C [0x03] ExtData[1]->WorkLocal[10] = Work_Zone[7]
 12: 0x0061 [0x03] ExtData[1]->WorkLocal[11] = Work_Zone[8]
 13: 0x0066 [0x03] ExtData[1]->WorkLocal[6] = Work_Zone[9]
 14: 0x006B [0x1A] CALL_SUBROUTINE(address=0x1D41)
 15: 0x006E [0x45] LOAD_SCHEDULED_TASK: Load scheduler "s760" with entities [LocalPlayer, LocalPlayer], work=[23*, 0*]
 16: 0x007F [0x45] LOAD_SCHEDULED_TASK: Load scheduler "fdi0" with entities [LocalPlayer, LocalPlayer], work=[200*, 0*]
 17: 0x0090 [0x55] WAIT_LOAD_SCHEDULER: Wait for scheduler "fdi0" with entities [LocalPlayer, LocalPlayer], work=200*
 18: 0x009F [0x03] Work_Zone[2] = ExtData[1]->WorkLocal[0]
 19: 0x00A4 [0x03] Work_Zone[3] = ExtData[1]->WorkLocal[1]
 20: 0x00A9 [0x03] Work_Zone[4] = ExtData[1]->WorkLocal[2]
 21: 0x00AE [0x02] IF !(ExtData[1]->WorkLocal[1] == 0*) GOTO 0x00CC
 22: 0x00B6 [0x02] IF !(ExtData[1]->WorkLocal[2] == 0*) GOTO 0x00C5
 23: 0x00BE [0x48] [System] [7332*]:
    → "This furrow is rank $0, but is devoid of both seeds and fertilizer."
 24: 0x00C1 [0x23] WAIT_FOR_DIALOG_INTERACTION
 25: 0x00C2 [0x01] GOTO 0x00C9
 26: 0x00C5 [0x48] [System] [7334*]:
    → "This furrow is rank $0 and is using $2 as fertilizer, but is devoid of seeds."
 27: 0x00C8 [0x23] WAIT_FOR_DIALOG_INTERACTION

SUBROUTINE_00C9:
 28: 0x00C9 [0x01] GOTO 0x014F
 29: 0x00CC [0x02] IF !(ExtData[1]->WorkLocal[2] == 0*) GOTO 0x00DB
 30: 0x00D4 [0x48] [System] [7333*]:
    → "This furrow is rank $0 and has $1 planted, but is devoid of fertilizer."
 31: 0x00D7 [0x23] WAIT_FOR_DIALOG_INTERACTION
 32: 0x00D8 [0x01] GOTO 0x00DF
 33: 0x00DB [0x48] [System] [7335*]:
    → "This moogle garden bed is rank $0, has $1 planted, and is using $2 as fertilizer."
 34: 0x00DE [0x23] WAIT_FOR_DIALOG_INTERACTION

SUBROUTINE_00DF:
 35: 0x00DF [0x03] Work_Zone_1700[0] = ExtData[1]->WorkLocal[7]
 36: 0x00E4 [0x15] Work_Zone_1700[0] /= 3600*
 37: 0x00E9 [0x03] Work_Zone_1700[1] = ExtData[1]->WorkLocal[7]
 38: 0x00EE [0x15] Work_Zone_1700[1] /= 60*
 39: 0x00F3 [0x3F] Work_Zone_1700[1] = Work_Zone_1700[1] % 60*
 40: 0x00FA [0x0B] Work_Zone_1700[1]++
 41: 0x00FD [0x02] IF !(Work_Zone_1700[1] < 60*) GOTO 0x010D
 42: 0x0105 [0x0B] Work_Zone_1700[0]++
 43: 0x0108 [0x08] Work_Zone_1700[1] -= 60*
 44: 0x010D [0x02] IF !(Work_Zone_1700[0] <= 0*) GOTO 0x011C
 45: 0x0115 [0x48] [System] [7340*]:
    → "Your agrarian experience tells you that you will be able to harvest the $1 you planted in about $8 hour[/s] and $9 minute[/s] (Earth time)."
 46: 0x0118 [0x23] WAIT_FOR_DIALOG_INTERACTION
 47: 0x0119 [0x01] GOTO 0x013E
 48: 0x011C [0x02] IF !(ExtData[1]->WorkLocal[7] < 60*) GOTO 0x012B
 49: 0x0124 [0x48] [System] [7341*]:
    → "Your agrarian experience tells you that you will be able to harvest the $1 you planted in about $9 minute[/s] (Earth time)."
 50: 0x0127 [0x23] WAIT_FOR_DIALOG_INTERACTION
 51: 0x0128 [0x01] GOTO 0x013E
 52: 0x012B [0x02] IF !(ExtData[1]->WorkLocal[6] == 4*) GOTO 0x013A
 53: 0x0133 [0x48] [System] [7344*]:
    → "Your $1 has matured!"
 54: 0x0136 [0x23] WAIT_FOR_DIALOG_INTERACTION
 55: 0x0137 [0x01] GOTO 0x013E
 56: 0x013A [0x48] [System] [7342*]:
    → "Your aggrarian experience tells you that the time for harvesting the $1 is imminent!"
 57: 0x013D [0x23] WAIT_FOR_DIALOG_INTERACTION

SUBROUTINE_013E:
 58: 0x013E [0x02] IF !(ExtData[1]->WorkLocal[8] <= 1*) GOTO 0x014F
 59: 0x0146 [0x03] Work_Zone[6] = ExtData[1]->WorkLocal[8]
 60: 0x014B [0x48] [System] [7343*]:
    → "You also conclude that the seed you planted should sprout about $4 more time[/s]."
 61: 0x014E [0x23] WAIT_FOR_DIALOG_INTERACTION

SUBROUTINE_014F:
 62: 0x014F [0x02] IF !(ExtData[1]->WorkLocal[6] == 1*) GOTO 0x0164
 63: 0x0157 [0x03] ExtData[1]->WorkLocal[9] = 6*
 64: 0x015C [0x03] ExtData[1]->WorkLocal[15] = 0*
 65: 0x0161 [0x01] GOTO 0x01A3
 66: 0x0164 [0x02] IF !(ExtData[1]->WorkLocal[6] == 2*) GOTO 0x0179
 67: 0x016C [0x03] ExtData[1]->WorkLocal[9] = 2*
 68: 0x0171 [0x03] ExtData[1]->WorkLocal[15] = 0*
 69: 0x0176 [0x01] GOTO 0x01A3
 70: 0x0179 [0x02] IF !(ExtData[1]->WorkLocal[6] == 3*) GOTO 0x018E
 71: 0x0181 [0x03] ExtData[1]->WorkLocal[9] = 2*
 72: 0x0186 [0x03] ExtData[1]->WorkLocal[15] = 0*
 73: 0x018B [0x01] GOTO 0x01A3
 74: 0x018E [0x02] IF !(ExtData[1]->WorkLocal[6] == 4*) GOTO 0x01A3
 75: 0x0196 [0x03] ExtData[1]->WorkLocal[9] = 4*
 76: 0x019B [0x03] ExtData[1]->WorkLocal[15] = 1*
 77: 0x01A0 [0x01] GOTO 0x01A3

SUBROUTINE_01A3:
 78: 0x01A3 [0x06] ExtData[1]->WorkLocal[12] = 0

SUBROUTINE_01A6:
 79: 0x01A6 [0x02] IF !(ExtData[1]->WorkLocal[12] == 0*) GOTO 0x01F8
 80: 0x01AE [0x24] CREATE_DIALOG(message_id=7336*, default_option=ExtData[1]->WorkLocal[15], option_flags=ExtData[1]->WorkLocal[9])
    → "What will you do? [Inspect the garden./Harvest crops./Uproot everything./Absolutely nothing.]"
 81: 0x01B5 [0x25] WAIT_DIALOG_SELECT()
 82: 0x01B6 [0x02] IF !(Work_Zone[0] == 0*) GOTO 0x01C9
 83: 0x01BE [0x1A] CALL_SUBROUTINE(address=0x023F)
 84: 0x01C1 [0x03] ExtData[1]->WorkLocal[12] = 1*
 85: 0x01C6 [0x01] GOTO 0x01F5
 86: 0x01C9 [0x02] IF !(Work_Zone[0] == 1*) GOTO 0x01D7
 87: 0x01D1 [0x1A] CALL_SUBROUTINE(address=0x02A0)
 88: 0x01D4 [0x01] GOTO 0x01F5
 89: 0x01D7 [0x02] IF !(Work_Zone[0] == 2*) GOTO 0x01E5
 90: 0x01DF [0x1A] CALL_SUBROUTINE(address=0x02D6)
 91: 0x01E2 [0x01] GOTO 0x01F5
 92: 0x01E5 [0x02] IF !(Work_Zone[0] == 3*) GOTO 0x01F5
 93: 0x01ED [0x03] ExtData[1]->WorkLocal[12] = 1*
 94: 0x01F2 [0x01] GOTO 0x01F5

SUBROUTINE_01F5:
 95: 0x01F5 [0x01] GOTO 0x01A6
 96: 0x01F8 [0x45] LOAD_SCHEDULED_TASK: Load scheduler "fdo0" with entities [LocalPlayer, LocalPlayer], work=[200*, 0*]
 97: 0x0209 [0x55] WAIT_LOAD_SCHEDULER: Wait for scheduler "fdo0" with entities [LocalPlayer, LocalPlayer], work=200*
 98: 0x0218 [0x52] END_LOAD_SCHEDULER: End scheduler "s760" with entities [LocalPlayer, LocalPlayer], work=23*
 99: 0x0227 [0x1A] CALL_SUBROUTINE(address=0x1D41)
100: 0x022A [0x46] CAMERA_CONTROL: Restore default settings
101: 0x022C [0x45] LOAD_SCHEDULED_TASK: Load scheduler "fdi0" with entities [LocalPlayer, LocalPlayer], work=[200*, 0*]
102: 0x023D [0x21] END_EVENT
103: 0x023E [0x00] END_REQSTACK()

SUBROUTINE_023F:
104: 0x023F [0x02] IF !(ExtData[1]->WorkLocal[6] == 1*) GOTO 0x025A
105: 0x0247 [0x48] [System] [7337*]:
    → "Nothing has been planted in this furrow. Select a seed to be sown and place it in the basket."
106: 0x024A [0x23] WAIT_FOR_DIALOG_INTERACTION
107: 0x024B [0x02] IF !(ExtData[1]->WorkLocal[2] == 0*) GOTO 0x0257
108: 0x0253 [0x48] [System] [7339*]:
    → "This furrow is fertilized with $2."
109: 0x0256 [0x23] WAIT_FOR_DIALOG_INTERACTION
110: 0x0257 [0x01] GOTO 0x029F
111: 0x025A [0x02] IF !(ExtData[1]->WorkLocal[6] == 2*) GOTO 0x0275
112: 0x0262 [0x48] [System] [7338*]:
    → "This furrow has $1 planted in it."
113: 0x0265 [0x23] WAIT_FOR_DIALOG_INTERACTION
114: 0x0266 [0x02] IF !(ExtData[1]->WorkLocal[2] == 0*) GOTO 0x0272
115: 0x026E [0x48] [System] [7339*]:
    → "This furrow is fertilized with $2."
116: 0x0271 [0x23] WAIT_FOR_DIALOG_INTERACTION
117: 0x0272 [0x01] GOTO 0x029F
118: 0x0275 [0x02] IF !(ExtData[1]->WorkLocal[6] == 3*) GOTO 0x0290
119: 0x027D [0x48] [System] [7338*]:
    → "This furrow has $1 planted in it."
120: 0x0280 [0x23] WAIT_FOR_DIALOG_INTERACTION
121: 0x0281 [0x02] IF !(ExtData[1]->WorkLocal[2] == 0*) GOTO 0x028D
122: 0x0289 [0x48] [System] [7339*]:
    → "This furrow is fertilized with $2."
123: 0x028C [0x23] WAIT_FOR_DIALOG_INTERACTION
124: 0x028D [0x01] GOTO 0x029F
125: 0x0290 [0x02] IF !(ExtData[1]->WorkLocal[6] == 4*) GOTO 0x029F
126: 0x0298 [0x48] [System] [7344*]:
    → "Your $1 has matured!"
127: 0x029B [0x23] WAIT_FOR_DIALOG_INTERACTION
128: 0x029C [0x01] GOTO 0x029F

SUBROUTINE_029F:
129: 0x029F [0x1B] RETURN

SUBROUTINE_02A0:
130: 0x02A0 [0x24] CREATE_DIALOG(message_id=7345*, default_option=0*, option_flags=0*)
    → "Harvest this crop? [Yes./No.]"
131: 0x02A7 [0x25] WAIT_DIALOG_SELECT()
132: 0x02A8 [0x02] IF !(Work_Zone[0] == 0*) GOTO 0x02D5
133: 0x02B0 [0x42] SET_CLI_EVENT_CANCEL_DATA()
134: 0x02B1 [0x03] Work_Zone[1] = 18*
135: 0x02B6 [0x43] SEND_EVENT_UPDATE: Send pending tag to server (packet 0x005B)
136: 0x02B8 [0x43] SEND_EVENT_UPDATE: Check pending flag (skip if not pending)
137: 0x02BA [0x03] ExtData[1]->WorkLocal[10] = Work_Zone[2]
138: 0x02BF [0x03] ExtData[1]->WorkLocal[11] = Work_Zone[3]
139: 0x02C4 [0x40] SET_BIT_WORK_RANGE(start_bit=0*, end_bit=7*, target=Work_Zone_Memorize[9], source=Work_Zone[4])
140: 0x02CD [0x03] ExtData[1]->WorkLocal[12] = 1*
141: 0x02D2 [0x01] GOTO 0x02D5

SUBROUTINE_02D5:
142: 0x02D5 [0x1B] RETURN

SUBROUTINE_02D6:
143: 0x02D6 [0x48] [System] [7347*]:
    → "Uproot and discard the $1 you planted?"
144: 0x02D9 [0x23] WAIT_FOR_DIALOG_INTERACTION
145: 0x02DA [0x24] CREATE_DIALOG(message_id=7348*, default_option=1*, option_flags=0*)
    → "Uproot it? [Yes./No.]"
146: 0x02E1 [0x25] WAIT_DIALOG_SELECT()
147: 0x02E2 [0x02] IF !(Work_Zone[0] == 0*) GOTO 0x0306
148: 0x02EA [0x42] SET_CLI_EVENT_CANCEL_DATA()
149: 0x02EB [0x48] [System] [7349*]:
    → "You have removed the $1 from your garden."
150: 0x02EE [0x23] WAIT_FOR_DIALOG_INTERACTION
151: 0x02EF [0x03] Work_Zone[1] = 19*
152: 0x02F4 [0x03] ExtData[1]->WorkLocal[12] = 1*
153: 0x02F9 [0x03] ExtData[1]->WorkLocal[10] = 0*
154: 0x02FE [0x03] ExtData[1]->WorkLocal[11] = 0*
155: 0x0303 [0x01] GOTO 0x0306

SUBROUTINE_0306:
156: 0x0306 [0x1B] RETURN
```

### Event 1006

#### Metadata

| Field        | Value     |
|--------------|-----------|
| Entrypoint   | 0x0307    |
| Data Size    | 244 bytes |
| Instructions | 32        |

```
      00 01 02 03 04 05 06 07  08 09 0A 0B 0C 0D 0E 0F
      -- -- -- -- -- -- -- --  -- -- -- -- -- -- -- --
0300:                      42  46 01 45 00 80 F0 FF FF         BF.E.....
0310: 7F F0 FF FF 7F 66 64 6F  30 01 80 55 00 80 F0 FF  .....fdo0..U....
0320: FF 7F F0 FF FF 7F 66 64  6F 30 03 0A 00 07 10 03  ......fdo0......
0330: 0B 00 08 10 40 01 80 02  80 09 11 09 10 45 06 80  ....@........E..
0340: F0 FF FF 7F F0 FF FF 7F  73 37 36 30 01 80 45 00  ........s760..E.
0350: 80 F0 FF FF 7F F0 FF FF  7F 66 64 69 30 01 80 55  .........fdi0..U
0360: 00 80 F0 FF FF 7F F0 FF  FF 7F 66 64 69 30 48 21  ..........fdi0H!
0370: 80 23 24 22 80 01 80 01  80 25 02 00 10 01 80 00  .#$".....%......
0380: 8E 03 03 01 10 03 80 48  23 80 23 01 93 03 03 01  .......H#.#.....
0390: 10 24 80 45 00 80 F0 FF  FF 7F F0 FF FF 7F 66 64  .$.E..........fd
03A0: 6F 30 01 80 55 00 80 F0  FF FF 7F F0 FF FF 7F 66  o0..U..........f
03B0: 64 6F 30 52 06 80 F0 FF  FF 7F F0 FF FF 7F 73 37  do0R..........s7
03C0: 36 30 02 01 10 03 80 00  D7 03 03 0A 00 07 10 03  60..............
03D0: 0B 00 08 10 1A 41 1D 46  00 45 00 80 F0 FF FF 7F  .....A.F.E......
03E0: F0 FF FF 7F 66 64 69 30  01 80 55 00 80 F0 FF FF  ....fdi0..U.....
03F0: 7F F0 FF FF 7F 66 64 69  30 21 00                 .....fdi0!.     
```

#### Opcodes

```
  0: 0x0307 [0x42] SET_CLI_EVENT_CANCEL_DATA()
  1: 0x0308 [0x46] CAMERA_CONTROL: Disable user control
  2: 0x030A [0x45] LOAD_SCHEDULED_TASK: Load scheduler "fdo0" with entities [LocalPlayer, LocalPlayer], work=[200*, 0*]
  3: 0x031B [0x55] WAIT_LOAD_SCHEDULER: Wait for scheduler "fdo0" with entities [LocalPlayer, LocalPlayer], work=200*
  4: 0x032A [0x03] ExtData[1]->WorkLocal[10] = Work_Zone[7]
  5: 0x032F [0x03] ExtData[1]->WorkLocal[11] = Work_Zone[8]
  6: 0x0334 [0x40] SET_BIT_WORK_RANGE(start_bit=0*, end_bit=7*, target=Work_Zone_Memorize[9], source=Work_Zone[9])
  7: 0x033D [0x45] LOAD_SCHEDULED_TASK: Load scheduler "s760" with entities [LocalPlayer, LocalPlayer], work=[23*, 0*]
  8: 0x034E [0x45] LOAD_SCHEDULED_TASK: Load scheduler "fdi0" with entities [LocalPlayer, LocalPlayer], work=[200*, 0*]
  9: 0x035F [0x55] WAIT_LOAD_SCHEDULER: Wait for scheduler "fdi0" with entities [LocalPlayer, LocalPlayer], work=200*
 10: 0x036E [0x48] [System] [7350*]:
    → "Plant $0 in your garden? Beware that specific seeds cannot be planted again if uprooted later."
 11: 0x0371 [0x23] WAIT_FOR_DIALOG_INTERACTION
 12: 0x0372 [0x24] CREATE_DIALOG(message_id=7351*, default_option=0*, option_flags=0*)
    → "Plant the $0? [Yes./No.]"
 13: 0x0379 [0x25] WAIT_DIALOG_SELECT()
 14: 0x037A [0x02] IF !(Work_Zone[0] == 0*) GOTO 0x038E
 15: 0x0382 [0x03] Work_Zone[1] = 16*
 16: 0x0387 [0x48] [System] [7352*]:
    → "You have planted $0."
 17: 0x038A [0x23] WAIT_FOR_DIALOG_INTERACTION
 18: 0x038B [0x01] GOTO 0x0393
 19: 0x038E [0x03] Work_Zone[1] = 1073741824*

SUBROUTINE_0393:
 20: 0x0393 [0x45] LOAD_SCHEDULED_TASK: Load scheduler "fdo0" with entities [LocalPlayer, LocalPlayer], work=[200*, 0*]
 21: 0x03A4 [0x55] WAIT_LOAD_SCHEDULER: Wait for scheduler "fdo0" with entities [LocalPlayer, LocalPlayer], work=200*
 22: 0x03B3 [0x52] END_LOAD_SCHEDULER: End scheduler "s760" with entities [LocalPlayer, LocalPlayer], work=23*
 23: 0x03C2 [0x02] IF !(Work_Zone[1] == 16*) GOTO 0x03D7
 24: 0x03CA [0x03] ExtData[1]->WorkLocal[10] = Work_Zone[7]
 25: 0x03CF [0x03] ExtData[1]->WorkLocal[11] = Work_Zone[8]
 26: 0x03D4 [0x1A] CALL_SUBROUTINE(address=0x1D41)
 27: 0x03D7 [0x46] CAMERA_CONTROL: Restore default settings
 28: 0x03D9 [0x45] LOAD_SCHEDULED_TASK: Load scheduler "fdi0" with entities [LocalPlayer, LocalPlayer], work=[200*, 0*]
 29: 0x03EA [0x55] WAIT_LOAD_SCHEDULER: Wait for scheduler "fdi0" with entities [LocalPlayer, LocalPlayer], work=200*
 30: 0x03F9 [0x21] END_EVENT
 31: 0x03FA [0x00] END_REQSTACK()
```

### Event 1009

#### Metadata

| Field        | Value      |
|--------------|------------|
| Entrypoint   | 0x03FB     |
| Data Size    | 6537 bytes |
| Instructions | 154        |

```
      00 01 02 03 04 05 06 07  08 09 0A 0B 0C 0D 0E 0F
      -- -- -- -- -- -- -- --  -- -- -- -- -- -- -- --
03F0:                                   42 46 01 03 04             BF...
0400: 00 02 10 03 02 00 03 10  03 05 00 04 10 03 03 00  ................
0410: 05 10 03 01 00 06 10 45  00 80 F0 FF FF 7F F0 FF  .......E........
0420: FF 7F 66 64 6F 30 01 80  55 00 80 F0 FF FF 7F F0  ..fdo0..U.......
0430: FF FF 7F 66 64 6F 30 45  06 80 F0 FF FF 7F F0 FF  ...fdo0E........
0440: FF 7F 73 37 36 30 01 80  03 0A 00 07 10 03 0B 00  ..s760..........
0450: 08 10 40 01 80 02 80 09  11 09 10 1A 41 1D 45 00  ..@.........A.E.
0460: 80 F0 FF FF 7F F0 FF FF  7F 66 64 69 30 01 80 55  .........fdi0..U
0470: 00 80 F0 FF FF 7F F0 FF  FF 7F 66 64 69 30 02 03  ..........fdi0..
0480: 00 01 80 00 92 04 03 02  10 04 00 48 25 80 23 01  ...........H%.#.
0490: 9B 04 03 04 10 05 00 48  26 80 23 03 02 10 04 00  .......H&.#.....
04A0: 24 27 80 01 80 01 80 25  02 00 10 01 80 00 DF 04  $'.....%........
04B0: 03 01 10 28 80 03 03 10  04 00 02 01 00 01 80 00  ...(............
04C0: CE 04 03 03 10 04 00 48  29 80 23 01 DC 04 03 02  .......H).#.....
04D0: 10 01 00 03 03 10 04 00  48 2A 80 23 01 E4 04 03  ........H*.#....
04E0: 01 10 24 80 45 00 80 F0  FF FF 7F F0 FF FF 7F 66  ..$.E..........f
04F0: 64 6F 30 01 80 55 00 80  F0 FF FF 7F F0 FF FF 7F  do0..U..........
0500: 66 64 6F 30 52 06 80 F0  FF FF 7F F0 FF FF 7F 73  fdo0R..........s
0510: 37 36 30 46 00 45 00 80  F0 FF FF 7F F0 FF FF 7F  760F.E..........
0520: 66 64 69 30 01 80 55 00  80 F0 FF FF 7F F0 FF FF  fdi0..U.........
0530: 7F 66 64 69 30 21 00 92  00 1D 80 11 01 1A 71 0D  .fdi0!........q.
0540: 1A AE 05 1A 72 06 1A 1C  08 1A 49 0A 1A 57 19 1A  ....r.....I..W..
0550: 57 0A 1A 33 0B 1A 6A 0B  1A 8D 0B 1A B9 0B 1A 59  W..3..j........Y
0560: 0C 1A E3 0C 1A 0C 0D 1A  52 0D 1A 8A 09 AC 02 35  ........R......5
0570: 80 11 01 1B 92 00 1D 80  11 01 1A AE 05 1A 72 06  ..............r.
0580: 1A 1C 08 1A 49 0A 1A 57  19 1A 57 0A 1A 33 0B 1A  ....I..W..W..3..
0590: 6A 0B 1A 8D 0B 1A B9 0B  1A 59 0C 1A E3 0C 1A 0C  j........Y......
05A0: 0D 1A 52 0D 1A 8A 09 AC  02 35 80 11 01 1B AC 02  ..R......5......
05B0: 09 80 11 01 3E 00 11 01  80 C5 05 27 80 09 80 11  ....>......'....
05C0: 01 02 01 CC 05 27 80 09  80 11 01 03 AC 02 0A 80  .....'..........
05D0: 11 01 3E 00 11 12 80 E3  05 27 80 0A 80 11 01 02  ..>......'......
05E0: 01 EA 05 27 80 0A 80 11  01 03 AC 02 0B 80 11 01  ...'............
05F0: 3E 00 11 15 80 01 06 29  80 0B 80 11 01 02 01 08  >......)........
0600: 06 29 80 0B 80 11 01 03  92 01 20 80 11 01 92 01  .)........ .....
0610: 21 80 11 01 92 01 22 80  11 01 AC 02 20 80 11 01  !....."..... ...
0620: 3E 00 11 2B 80 30 06 4E  00 20 80 11 01 01 36 06  >..+.0.N. ....6.
0630: 4E 01 20 80 11 01 AC 02  21 80 11 01 3E 00 11 2C  N. .....!...>..,
0640: 80 4C 06 4E 00 21 80 11  01 01 52 06 4E 01 21 80  .L.N.!....R.N.!.
0650: 11 01 AC 02 22 80 11 01  3E 00 11 2D 80 68 06 4E  ...."...>..-.h.N
0660: 00 22 80 11 01 01 6E 06  4E 01 22 80 11 01 1C 12  ."....n.N.".....
0670: 80 1B AC 02 0F 80 11 01  3E 00 11 16 80 89 06 27  ........>......'
0680: 80 0F 80 11 01 02 01 90  06 27 80 0F 80 11 01 03  .........'......
0690: AC 02 10 80 11 01 3E 00  11 0F 80 A7 06 27 80 10  ......>......'..
06A0: 80 11 01 02 01 AE 06 27  80 10 80 11 01 03 AC 02  .......'........
06B0: 11 80 11 01 3E 00 11 2E  80 C5 06 29 80 11 80 11  ....>......)....
06C0: 01 02 01 CC 06 29 80 11  80 11 01 03 AC 02 1A 80  .....)..........
06D0: 11 01 3E 01 11 1C 80 E3  06 27 80 1A 80 11 01 02  ..>......'......
06E0: 01 EA 06 27 80 1A 80 11  01 03 AC 02 1B 80 11 01  ...'............
06F0: 3E 01 11 20 80 01 07 29  80 1B 80 11 01 02 01 08  >.. ...)........
0700: 07 29 80 1B 80 11 01 03  AC 02 23 80 11 01 AC 02  .)........#.....
0710: 24 80 11 01 3E 00 11 1C  80 40 07 3E 08 11 01 80  $...>....@.>....
0720: 31 07 4E 00 24 80 11 01  4E 01 23 80 11 01 01 3D  1.N.$...N.#....=
0730: 07 4E 00 23 80 11 01 4E  01 24 80 11 01 01 4C 07  .N.#...N.$....L.
0740: 4E 01 23 80 11 01 4E 01  24 80 11 01 AC 02 25 80  N.#...N.$.....%.
0750: 11 01 AC 02 26 80 11 01  3E 00 11 20 80 84 07 3E  ....&...>.. ...>
0760: 08 11 12 80 75 07 4E 00  26 80 11 01 4E 01 25 80  ....u.N.&...N.%.
0770: 11 01 01 81 07 4E 00 25  80 11 01 4E 01 26 80 11  .....N.%...N.&..
0780: 01 01 90 07 4E 01 25 80  11 01 4E 01 26 80 11 01  ....N.%...N.&...
0790: AC 02 27 80 11 01 AC 02  28 80 11 01 3E 00 11 2F  ..'.....(...>../
07A0: 80 C8 07 3E 08 11 15 80  B9 07 4E 00 28 80 11 01  ...>......N.(...
07B0: 4E 01 27 80 11 01 01 C5  07 4E 00 27 80 11 01 4E  N.'......N.'...N
07C0: 01 28 80 11 01 01 D4 07  4E 01 27 80 11 01 4E 01  .(......N.'...N.
07D0: 28 80 11 01 AC 02 29 80  11 01 AC 02 2A 80 11 01  (.....).....*...
07E0: 3E 00 11 30 80 0C 08 3E  08 11 16 80 FD 07 4E 00  >..0...>......N.
07F0: 2A 80 11 01 4E 01 29 80  11 01 01 09 08 4E 00 29  *...N.)......N.)
0800: 80 11 01 4E 01 2A 80 11  01 01 18 08 4E 01 29 80  ...N.*......N.).
0810: 11 01 4E 01 2A 80 11 01  1C 12 80 1B AC 02 12 80  ..N.*...........
0820: 11 01 3E 00 11 14 80 33  08 27 80 12 80 11 01 02  ..>....3.'......
0830: 01 3A 08 27 80 12 80 11  01 03 AC 02 13 80 11 01  .:.'............
0840: 3E 00 11 02 80 51 08 27  80 13 80 11 01 02 01 58  >....Q.'.......X
0850: 08 27 80 13 80 11 01 03  AC 02 14 80 11 01 3E 00  .'............>.
0860: 11 31 80 6F 08 29 80 14  80 11 01 02 01 76 08 29  .1.o.).......v.)
0870: 80 14 80 11 01 03 AC 02  2B 80 11 01 AC 02 2C 80  ........+.....,.
0880: 11 01 3E 00 11 32 80 AE  08 3E 08 11 0F 80 9F 08  ..>..2...>......
0890: 4E 00 2C 80 11 01 4E 01  2B 80 11 01 01 AB 08 4E  N.,...N.+......N
08A0: 00 2B 80 11 01 4E 01 2C  80 11 01 01 BA 08 4E 01  .+...N.,......N.
08B0: 2B 80 11 01 4E 01 2C 80  11 01 AC 02 2D 80 11 01  +...N.,.....-...
08C0: AC 02 2E 80 11 01 3E 00  11 06 80 F2 08 3E 08 11  ......>......>..
08D0: 2E 80 E3 08 4E 00 2E 80  11 01 4E 01 2D 80 11 01  ....N.....N.-...
08E0: 01 EF 08 4E 00 2D 80 11  01 4E 01 2E 80 11 01 01  ...N.-...N......
08F0: FE 08 4E 01 2D 80 11 01  4E 01 2E 80 11 01 AC 02  ..N.-...N.......
0900: 2F 80 11 01 AC 02 30 80  11 01 3E 00 11 33 80 36  /.....0...>..3.6
0910: 09 3E 08 11 14 80 27 09  4E 00 30 80 11 01 4E 01  .>....'.N.0...N.
0920: 2F 80 11 01 01 33 09 4E  00 2F 80 11 01 4E 01 30  /....3.N./...N.0
0930: 80 11 01 01 42 09 4E 01  2F 80 11 01 4E 01 30 80  ....B.N./...N.0.
0940: 11 01 AC 02 31 80 11 01  AC 02 32 80 11 01 3E 00  ....1.....2...>.
0950: 11 34 80 7A 09 3E 08 11  02 80 6B 09 4E 00 32 80  .4.z.>....k.N.2.
0960: 11 01 4E 01 31 80 11 01  01 77 09 4E 00 31 80 11  ..N.1....w.N.1..
0970: 01 4E 01 32 80 11 01 01  86 09 4E 01 31 80 11 01  .N.2......N.1...
0980: 4E 01 32 80 11 01 1C 12  80 1B 92 01 35 80 11 01  N.2.........5...
0990: AC 02 15 80 11 01 3E 00  11 35 80 A7 09 27 80 15  ......>..5...'..
09A0: 80 11 01 02 01 AE 09 27  80 15 80 11 01 03 AC 02  .......'........
09B0: 16 80 11 01 3E 00 11 36  80 C5 09 27 80 16 80 11  ....>..6...'....
09C0: 01 02 01 CC 09 27 80 16  80 11 01 03 AC 02 17 80  .....'..........
09D0: 11 01 3E 00 11 37 80 E3  09 27 80 17 80 11 01 02  ..>..7...'......
09E0: 01 EA 09 27 80 17 80 11  01 03 AC 02 18 80 11 01  ...'............
09F0: 3E 01 11 28 80 01 0A 29  80 18 80 11 01 02 01 08  >..(...)........
0A00: 0A 29 80 18 80 11 01 03  3E 01 11 2F 80 18 0A 60  .)......>../...`
0A10: 02 69 30 6F 6E 01 18 0A  3E 01 11 30 80 28 0A 60  .i0on...>..0.(.`
0A20: 02 69 31 6F 6E 01 28 0A  3E 01 11 32 80 38 0A 60  .i1on.(.>..2.8.`
0A30: 02 69 32 6F 6E 01 38 0A  3E 01 11 06 80 48 0A 60  .i2on.8.>....H.`
0A40: 02 69 33 6F 6E 01 48 0A  1B AC 02 35 80 11 01 29  .i3on.H....5...)
0A50: 08 35 80 11 01 04 1B 92  00 57 80 11 01 92 00 6A  .5.......W.....j
0A60: 80 11 01 92 00 58 80 11  01 92 00 6B 80 11 01 92  .....X.....k....
0A70: 00 59 80 11 01 92 00 6C  80 11 01 AC 02 57 80 11  .Y.....l.....W..
0A80: 01 3E 00 11 38 80 92 0A  27 08 57 80 11 01 02 01  .>..8...'.W.....
0A90: 99 0A 27 08 57 80 11 01  03 AC 02 6A 80 11 01 3E  ..'.W......j...>
0AA0: 00 11 39 80 B0 0A 27 08  6A 80 11 01 02 01 B7 0A  ..9...'.j.......
0AB0: 27 08 6A 80 11 01 03 AC  02 58 80 11 01 3E 00 11  '.j......X...>..
0AC0: 3A 80 CE 0A 29 08 58 80  11 01 02 01 D5 0A 29 08  :...).X.......).
0AD0: 58 80 11 01 03 AC 02 6B  80 11 01 3E 00 11 05 80  X......k...>....
0AE0: EC 0A 27 08 6B 80 11 01  02 01 F3 0A 27 08 6B 80  ..'.k.......'.k.
0AF0: 11 01 03 AC 02 59 80 11  01 3E 00 11 03 80 0A 0B  .....Y...>......
0B00: 27 08 59 80 11 01 02 01  11 0B 27 08 59 80 11 01  '.Y.......'.Y...
0B10: 03 AC 02 6C 80 11 01 3E  00 11 28 80 28 0B 29 08  ...l...>..(.(.).
0B20: 6C 80 11 01 02 01 2F 0B  29 08 6C 80 11 01 03 1C  l...../.).l.....
0B30: 12 80 1B AC 02 36 80 11  01 3E 00 11 3B 80 56 0B  .....6...>..;.V.
0B40: 2C 36 80 11 01 36 80 11  01 65 66 6F 6E B6 14 36  ,6...6...efon..6
0B50: 80 11 01 01 69 0B 2C 36  80 11 01 36 80 11 01 65  ....i.,6...6...e
0B60: 66 6F 66 B6 15 36 80 11  01 1B 3E 01 11 01 80 80  fof..6....>.....
0B70: 0B 4E 00 71 80 11 01 AC  03 71 80 11 01 01 8C 0B  .N.q.....q......
0B80: AC 02 71 80 11 01 4E 01  71 80 11 01 1B AC 02 72  ..q...N.q......r
0B90: 80 11 01 3E 01 11 12 80  B1 0B 3E 01 11 16 80 A8  ...>......>.....
0BA0: 0B 29 08 72 80 11 01 04  4E 00 72 80 11 01 01 B8  .).r....N.r.....
0BB0: 0B 29 08 72 80 11 01 03  1B AC 02 8E 80 11 01 3E  .).r...........>
0BC0: 01 11 34 80 CF 0B 4E 00  8E 80 11 01 01 D5 0B 4E  ..4...N........N
0BD0: 01 8E 80 11 01 1B AC 02  80 80 11 01 AC 02 81 80  ................
0BE0: 11 01 AC 02 82 80 11 01  AC 02 83 80 11 01 AC 02  ................
0BF0: 84 80 11 01 3E 01 11 2B  80 3A 0C 4E 00 80 80 11  ....>..+.:.N....
0C00: 01 AC 03 80 80 11 01 4E  00 81 80 11 01 AC 03 81  .......N........
0C10: 80 11 01 4E 00 82 80 11  01 AC 03 82 80 11 01 4E  ...N...........N
0C20: 00 83 80 11 01 AC 03 83  80 11 01 4E 00 84 80 11  ...........N....
0C30: 01 AC 03 84 80 11 01 01  58 0C 4E 01 80 80 11 01  ........X.N.....
0C40: 4E 01 81 80 11 01 4E 01  82 80 11 01 4E 01 83 80  N.....N.....N...
0C50: 11 01 4E 01 84 80 11 01  1B AC 02 85 80 11 01 AC  ..N.............
0C60: 02 86 80 11 01 3E 01 11  2C 80 D6 0C 13 10 00 15  .....>..,.......
0C70: 80 02 10 00 15 80 02 7C  0C 06 10 00 02 10 00 01  .......|........
0C80: 80 80 95 0C 29 08 85 80  11 01 02 29 08 86 80 11  ....)......)....
0C90: 01 02 01 C7 0C 02 10 00  12 80 80 AE 0C 29 08 85  .............)..
0CA0: 80 11 01 03 29 08 86 80  11 01 03 01 C7 0C 02 10  ....)...........
0CB0: 00 15 80 80 C7 0C 29 08  85 80 11 01 04 29 08 86  ......)......)..
0CC0: 80 11 01 04 01 C7 0C 4E  00 85 80 11 01 4E 00 86  .......N.....N..
0CD0: 80 11 01 01 E2 0C 4E 01  85 80 11 01 4E 01 86 80  ......N.....N...
0CE0: 11 01 1B AC 02 87 80 11  01 3E 01 11 0F 80 FF 0C  .........>......
0CF0: 4E 00 87 80 11 01 AC 03  87 80 11 01 01 0B 0D AC  N...............
0D00: 02 87 80 11 01 4E 01 87  80 11 01 1B AC 02 89 80  .....N..........
0D10: 11 01 29 08 89 80 11 01  04 1B AC 02 8A 80 11 01  ..).............
0D20: 29 08 8A 80 11 01 04 1B  AC 02 8B 80 11 01 29 08  ).............).
0D30: 8B 80 11 01 04 1B AC 02  8C 80 11 01 29 08 8C 80  ............)...
0D40: 11 01 04 1B AC 02 8D 80  11 01 29 08 8D 80 11 01  ..........).....
0D50: 04 1B AC 02 1C 80 11 01  3E 01 11 33 80 69 0D 29  ........>..3.i.)
0D60: 80 1C 80 11 01 02 01 70  0D 29 80 1C 80 11 01 03  .......p.)......
0D70: 1B 03 01 10 12 80 43 00  43 01 03 11 00 02 10 03  ......C.C.......
0D80: 08 11 03 10 03 01 11 04  10 03 0A 11 05 10 03 0B  ................
0D90: 11 06 10 03 0C 11 07 10  03 01 10 37 80 43 00 43  ...........7.C.C
0DA0: 01 03 02 11 02 10 03 03  11 03 10 03 04 11 04 10  ................
0DB0: 03 05 11 05 10 03 06 11  06 10 03 07 11 07 10 03  ................
0DC0: 09 11 08 10 41 01 80 16  80 11 00 10 00 1A BE 0F  ....A...........
0DD0: 41 0F 80 02 80 11 00 10  00 1A C6 11 41 31 80 37  A...........A1.7
0DE0: 80 11 00 10 00 1A 56 14  41 38 80 05 80 11 00 10  ......V.A8......
0DF0: 00 1A A4 16 41 2F 80 32  80 11 00 10 00 1A 26 0E  ....A/.2......&.
0E00: 41 04 80 04 80 11 00 10  00 02 10 00 01 80 00 1B  A...............
0E10: 0E 3D 00 11 3B 80 12 80  01 22 0E 3C 00 11 3B 80  .=..;....".<..;.
0E20: 12 80 1A 40 0E 1B 02 10  00 16 80 04 38 0E 3C 01  ...@........8.<.
0E30: 11 33 80 12 80 01 3F 0E  3D 01 11 33 80 12 80 1B  .3....?.=..3....
0E40: 3E 08 11 31 80 B1 0E 41  35 80 37 80 08 11 10 00  >..1...A5.7.....
0E50: 02 10 00 12 80 80 69 0E  3D 00 11 38 80 12 80 3C  ......i.=..8...<
0E60: 00 11 39 80 12 80 01 AE  0E 02 10 00 0F 80 80 82  ..9.............
0E70: 0E 3C 00 11 38 80 12 80  3D 00 11 39 80 12 80 01  .<..8...=..9....
0E80: AE 0E 13 10 00 3C 80 02  10 00 3D 80 03 A0 0E 3D  .....<....=....=
0E90: 00 11 38 80 12 80 3C 00  11 39 80 12 80 01 AE 0E  ..8...<..9......
0EA0: 3C 00 11 38 80 12 80 3D  00 11 39 80 12 80 01 BF  <..8...=..9.....
0EB0: 0E 3D 00 11 38 80 12 80  3D 00 11 39 80 12 80 3E  .=..8...=..9...>
0EC0: 08 11 38 80 30 0F 41 39  80 05 80 08 11 10 00 02  ..8.0.A9........
0ED0: 10 00 12 80 80 E8 0E 3C  00 11 3A 80 12 80 3D 00  .......<..:...=.
0EE0: 11 05 80 12 80 01 2D 0F  02 10 00 2E 80 80 01 0F  ......-.........
0EF0: 3D 00 11 3A 80 12 80 3C  00 11 05 80 12 80 01 2D  =..:...<.......-
0F00: 0F 13 10 00 3C 80 02 10  00 3D 80 03 1F 0F 3C 00  ....<....=....<.
0F10: 11 3A 80 12 80 3D 00 11  05 80 12 80 01 2D 0F 3D  .:...=.......-.=
0F20: 00 11 3A 80 12 80 3C 00  11 05 80 12 80 01 3E 0F  ..:...<.......>.
0F30: 3D 00 11 3A 80 12 80 3D  00 11 05 80 12 80 3E 08  =..:...=......>.
0F40: 11 03 80 AF 0F 41 28 80  20 80 08 11 10 00 02 10  .....A(. .......
0F50: 00 16 80 80 67 0F 3C 00  11 03 80 12 80 3D 00 11  ....g.<......=..
0F60: 28 80 12 80 01 AC 0F 02  10 00 15 80 80 80 0F 3D  (..............=
0F70: 00 11 03 80 12 80 3C 00  11 28 80 12 80 01 AC 0F  ......<..(......
0F80: 13 10 00 3C 80 02 10 00  3D 80 03 9E 0F 3C 00 11  ...<....=....<..
0F90: 03 80 12 80 3D 00 11 28  80 12 80 01 AC 0F 3D 00  ....=..(......=.
0FA0: 11 03 80 12 80 3C 00 11  28 80 12 80 01 BD 0F 3D  .....<..(......=
0FB0: 00 11 03 80 12 80 3D 00  11 28 80 12 80 1B 02 10  ......=..(......
0FC0: 00 01 80 80 F3 0F 3D 00  11 01 80 12 80 3C 00 11  ......=......<..
0FD0: 12 80 12 80 3C 00 11 15  80 12 80 3C 00 11 2B 80  ....<......<..+.
0FE0: 12 80 3D 00 11 2C 80 12  80 3D 00 11 2D 80 12 80  ..=..,...=..-...
0FF0: 01 C5 11 02 10 00 12 80  80 28 10 3D 00 11 01 80  .........(.=....
1000: 12 80 3C 00 11 12 80 12  80 3C 00 11 15 80 12 80  ..<......<......
1010: 3C 00 11 2B 80 12 80 3D  00 11 2C 80 12 80 3D 00  <..+...=..,...=.
1020: 11 2D 80 12 80 01 C5 11  02 10 00 15 80 80 5D 10  .-............].
1030: 3D 00 11 01 80 12 80 3C  00 11 12 80 12 80 3C 00  =......<......<.
1040: 11 15 80 12 80 3C 00 11  2B 80 12 80 3D 00 11 2C  .....<..+...=..,
1050: 80 12 80 3D 00 11 2D 80  12 80 01 C5 11 02 10 00  ...=..-.........
1060: 16 80 80 92 10 3D 00 11  01 80 12 80 3D 00 11 12  .....=......=...
1070: 80 12 80 3C 00 11 15 80  12 80 3C 00 11 2B 80 12  ...<......<..+..
1080: 80 3C 00 11 2C 80 12 80  3D 00 11 2D 80 12 80 01  .<..,...=..-....
1090: C5 11 02 10 00 0F 80 80  C7 10 3D 00 11 01 80 12  ..........=.....
10A0: 80 3D 00 11 12 80 12 80  3C 00 11 15 80 12 80 3C  .=......<......<
10B0: 00 11 2B 80 12 80 3C 00  11 2C 80 12 80 3D 00 11  ..+...<..,...=..
10C0: 2D 80 12 80 01 C5 11 02  10 00 2E 80 80 FC 10 3D  -..............=
10D0: 00 11 01 80 12 80 3D 00  11 12 80 12 80 3D 00 11  ......=......=..
10E0: 15 80 12 80 3C 00 11 2B  80 12 80 3C 00 11 2C 80  ....<..+...<..,.
10F0: 12 80 3C 00 11 2D 80 12  80 01 C5 11 02 10 00 14  ..<..-..........
1100: 80 80 31 11 3D 00 11 01  80 12 80 3D 00 11 12 80  ..1.=......=....
1110: 12 80 3D 00 11 15 80 12  80 3C 00 11 2B 80 12 80  ..=......<..+...
1120: 3C 00 11 2C 80 12 80 3C  00 11 2D 80 12 80 01 C5  <..,...<..-.....
1130: 11 02 10 00 02 80 80 66  11 3D 00 11 01 80 12 80  .......f.=......
1140: 3D 00 11 12 80 12 80 3D  00 11 15 80 12 80 3C 00  =......=......<.
1150: 11 2B 80 12 80 3C 00 11  2C 80 12 80 3C 00 11 2D  .+...<..,...<..-
1160: 80 12 80 01 C5 11 02 10  00 31 80 80 9B 11 3D 00  .........1....=.
1170: 11 01 80 12 80 3D 00 11  12 80 12 80 3D 00 11 15  .....=......=...
1180: 80 12 80 3C 00 11 2B 80  12 80 3C 00 11 2C 80 12  ...<..+...<..,..
1190: 80 3C 00 11 2D 80 12 80  01 C5 11 3D 00 11 01 80  .<..-......=....
11A0: 12 80 3C 00 11 12 80 12  80 3C 00 11 15 80 12 80  ..<......<......
11B0: 3C 00 11 2B 80 12 80 3D  00 11 2C 80 12 80 3D 00  <..+...=..,...=.
11C0: 11 2D 80 12 80 1B 02 10  00 01 80 80 10 12 3C 00  .-............<.
11D0: 11 16 80 12 80 3C 00 11  0F 80 12 80 3C 00 11 2E  .....<......<...
11E0: 80 12 80 3C 01 11 1C 80  12 80 3C 01 11 20 80 12  ...<......<.. ..
11F0: 80 3C 00 11 1C 80 12 80  3D 00 11 20 80 12 80 3D  .<......=.. ...=
1200: 00 11 2F 80 12 80 3D 00  11 30 80 12 80 01 55 14  ../...=..0....U.
1210: 02 10 00 12 80 80 5A 12  3C 00 11 16 80 12 80 3C  ......Z.<......<
1220: 00 11 0F 80 12 80 3C 00  11 2E 80 12 80 3C 01 11  ......<......<..
1230: 1C 80 12 80 3C 01 11 20  80 12 80 3C 00 11 1C 80  ....<.. ...<....
1240: 12 80 3D 00 11 20 80 12  80 3D 00 11 2F 80 12 80  ..=.. ...=../...
1250: 3D 00 11 30 80 12 80 01  55 14 02 10 00 15 80 80  =..0....U.......
1260: A4 12 3C 00 11 16 80 12  80 3C 00 11 0F 80 12 80  ..<......<......
1270: 3C 00 11 2E 80 12 80 3C  01 11 1C 80 12 80 3C 01  <......<......<.
1280: 11 20 80 12 80 3C 00 11  1C 80 12 80 3D 00 11 20  . ...<......=.. 
1290: 80 12 80 3D 00 11 2F 80  12 80 3D 00 11 30 80 12  ...=../...=..0..
12A0: 80 01 55 14 02 10 00 16  80 80 EE 12 3D 00 11 16  ..U.........=...
12B0: 80 12 80 3C 00 11 0F 80  12 80 3C 00 11 2E 80 12  ...<......<.....
12C0: 80 3D 01 11 1C 80 12 80  3C 01 11 20 80 12 80 3C  .=......<.. ...<
12D0: 00 11 1C 80 12 80 3C 00  11 20 80 12 80 3D 00 11  ......<.. ...=..
12E0: 2F 80 12 80 3D 00 11 30  80 12 80 01 55 14 02 10  /...=..0....U...
12F0: 00 0F 80 80 38 13 3D 00  11 16 80 12 80 3C 00 11  ....8.=......<..
1300: 0F 80 12 80 3C 00 11 2E  80 12 80 3D 01 11 1C 80  ....<......=....
1310: 12 80 3C 01 11 20 80 12  80 3C 00 11 1C 80 12 80  ..<.. ...<......
1320: 3C 00 11 20 80 12 80 3D  00 11 2F 80 12 80 3D 00  <.. ...=../...=.
1330: 11 30 80 12 80 01 55 14  02 10 00 2E 80 80 82 13  .0....U.........
1340: 3D 00 11 16 80 12 80 3D  00 11 0F 80 12 80 3C 00  =......=......<.
1350: 11 2E 80 12 80 3D 01 11  1C 80 12 80 3D 01 11 20  .....=......=.. 
1360: 80 12 80 3C 00 11 1C 80  12 80 3C 00 11 20 80 12  ...<......<.. ..
1370: 80 3C 00 11 2F 80 12 80  3D 00 11 30 80 12 80 01  .<../...=..0....
1380: 55 14 02 10 00 14 80 80  CC 13 3D 00 11 16 80 12  U.........=.....
1390: 80 3D 00 11 0F 80 12 80  3C 00 11 2E 80 12 80 3D  .=......<......=
13A0: 01 11 1C 80 12 80 3D 01  11 20 80 12 80 3C 00 11  ......=.. ...<..
13B0: 1C 80 12 80 3C 00 11 20  80 12 80 3C 00 11 2F 80  ....<.. ...<../.
13C0: 12 80 3D 00 11 30 80 12  80 01 55 14 02 10 00 02  ..=..0....U.....
13D0: 80 80 16 14 3D 00 11 16  80 12 80 3D 00 11 0F 80  ....=......=....
13E0: 12 80 3D 00 11 2E 80 12  80 3D 01 11 1C 80 12 80  ..=......=......
13F0: 3D 01 11 20 80 12 80 3C  00 11 1C 80 12 80 3C 00  =.. ...<......<.
1400: 11 20 80 12 80 3C 00 11  2F 80 12 80 3C 00 11 30  . ...<../...<..0
1410: 80 12 80 01 55 14 3C 00  11 16 80 12 80 3C 00 11  ....U.<......<..
1420: 0F 80 12 80 3C 00 11 2E  80 12 80 3C 01 11 1C 80  ....<......<....
1430: 12 80 3C 01 11 20 80 12  80 3C 00 11 1C 80 12 80  ..<.. ...<......
1440: 3D 00 11 20 80 12 80 3D  00 11 2F 80 12 80 3D 00  =.. ...=../...=.
1450: 11 30 80 12 80 1B 02 10  00 01 80 80 92 14 3D 00  .0............=.
1460: 11 14 80 12 80 3D 00 11  02 80 12 80 3D 00 11 31  .....=......=..1
1470: 80 12 80 3C 00 11 32 80  12 80 3D 00 11 06 80 12  ...<..2...=.....
1480: 80 3D 00 11 33 80 12 80  3D 00 11 34 80 12 80 01  .=..3...=..4....
1490: A3 16 02 10 00 12 80 80  CE 14 3D 00 11 14 80 12  ..........=.....
14A0: 80 3D 00 11 02 80 12 80  3D 00 11 31 80 12 80 3C  .=......=..1...<
14B0: 00 11 32 80 12 80 3D 00  11 06 80 12 80 3D 00 11  ..2...=......=..
14C0: 33 80 12 80 3D 00 11 34  80 12 80 01 A3 16 02 10  3...=..4........
14D0: 00 15 80 80 0A 15 3D 00  11 14 80 12 80 3D 00 11  ......=......=..
14E0: 02 80 12 80 3D 00 11 31  80 12 80 3C 00 11 32 80  ....=..1...<..2.
14F0: 12 80 3D 00 11 06 80 12  80 3D 00 11 33 80 12 80  ..=......=..3...
1500: 3D 00 11 34 80 12 80 01  A3 16 02 10 00 16 80 80  =..4............
1510: 46 15 3C 00 11 14 80 12  80 3D 00 11 02 80 12 80  F.<......=......
1520: 3D 00 11 31 80 12 80 3C  00 11 32 80 12 80 3C 00  =..1...<..2...<.
1530: 11 06 80 12 80 3D 00 11  33 80 12 80 3D 00 11 34  .....=..3...=..4
1540: 80 12 80 01 A3 16 02 10  00 0F 80 80 82 15 3C 00  ..............<.
1550: 11 14 80 12 80 3D 00 11  02 80 12 80 3D 00 11 31  .....=......=..1
1560: 80 12 80 3C 00 11 32 80  12 80 3C 00 11 06 80 12  ...<..2...<.....
1570: 80 3D 00 11 33 80 12 80  3D 00 11 34 80 12 80 01  .=..3...=..4....
1580: A3 16 02 10 00 2E 80 80  BE 15 3C 00 11 14 80 12  ..........<.....
1590: 80 3C 00 11 02 80 12 80  3D 00 11 31 80 12 80 3C  .<......=..1...<
15A0: 00 11 32 80 12 80 3C 00  11 06 80 12 80 3C 00 11  ..2...<......<..
15B0: 33 80 12 80 3D 00 11 34  80 12 80 01 A3 16 02 10  3...=..4........
15C0: 00 14 80 80 FA 15 3C 00  11 14 80 12 80 3C 00 11  ......<......<..
15D0: 02 80 12 80 3D 00 11 31  80 12 80 3C 00 11 32 80  ....=..1...<..2.
15E0: 12 80 3C 00 11 06 80 12  80 3C 00 11 33 80 12 80  ..<......<..3...
15F0: 3D 00 11 34 80 12 80 01  A3 16 02 10 00 02 80 80  =..4............
1600: 36 16 3C 00 11 14 80 12  80 3C 00 11 02 80 12 80  6.<......<......
1610: 3C 00 11 31 80 12 80 3C  00 11 32 80 12 80 3C 00  <..1...<..2...<.
1620: 11 06 80 12 80 3C 00 11  33 80 12 80 3C 00 11 34  .....<..3...<..4
1630: 80 12 80 01 A3 16 02 10  00 31 80 80 72 16 3C 00  .........1..r.<.
1640: 11 14 80 12 80 3C 00 11  02 80 12 80 3C 00 11 31  .....<......<..1
1650: 80 12 80 3C 00 11 32 80  12 80 3C 00 11 06 80 12  ...<..2...<.....
1660: 80 3C 00 11 33 80 12 80  3C 00 11 34 80 12 80 01  .<..3...<..4....
1670: A3 16 3D 00 11 14 80 12  80 3D 00 11 02 80 12 80  ..=......=......
1680: 3D 00 11 31 80 12 80 3C  00 11 32 80 12 80 3D 00  =..1...<..2...=.
1690: 11 06 80 12 80 3D 00 11  33 80 12 80 3D 00 11 34  .....=..3...=..4
16A0: 80 12 80 1B 02 10 00 01  80 80 E7 16 3D 00 11 35  ............=..5
16B0: 80 12 80 3D 00 11 36 80  12 80 3D 00 11 37 80 12  ...=..6...=..7..
16C0: 80 3D 01 11 28 80 12 80  3C 01 11 2F 80 12 80 3D  .=..(...<../...=
16D0: 01 11 30 80 12 80 3D 01  11 32 80 12 80 3D 01 11  ..0...=..2...=..
16E0: 06 80 12 80 01 F4 18 02  10 00 12 80 80 2A 17 3D  .............*.=
16F0: 00 11 35 80 12 80 3D 00  11 36 80 12 80 3D 00 11  ..5...=..6...=..
1700: 37 80 12 80 3D 01 11 28  80 12 80 3C 01 11 2F 80  7...=..(...<../.
1710: 12 80 3D 01 11 30 80 12  80 3D 01 11 32 80 12 80  ..=..0...=..2...
1720: 3D 01 11 06 80 12 80 01  F4 18 02 10 00 15 80 80  =...............
1730: 6D 17 3D 00 11 35 80 12  80 3D 00 11 36 80 12 80  m.=..5...=..6...
1740: 3D 00 11 37 80 12 80 3D  01 11 28 80 12 80 3C 01  =..7...=..(...<.
1750: 11 2F 80 12 80 3D 01 11  30 80 12 80 3D 01 11 32  ./...=..0...=..2
1760: 80 12 80 3D 01 11 06 80  12 80 01 F4 18 02 10 00  ...=............
1770: 16 80 80 B0 17 3C 00 11  35 80 12 80 3D 00 11 36  .....<..5...=..6
1780: 80 12 80 3D 00 11 37 80  12 80 3D 01 11 28 80 12  ...=..7...=..(..
1790: 80 3D 01 11 2F 80 12 80  3C 01 11 30 80 12 80 3D  .=../...<..0...=
17A0: 01 11 32 80 12 80 3D 01  11 06 80 12 80 01 F4 18  ..2...=.........
17B0: 02 10 00 0F 80 80 F3 17  3C 00 11 35 80 12 80 3D  ........<..5...=
17C0: 00 11 36 80 12 80 3D 00  11 37 80 12 80 3D 01 11  ..6...=..7...=..
17D0: 28 80 12 80 3D 01 11 2F  80 12 80 3C 01 11 30 80  (...=../...<..0.
17E0: 12 80 3D 01 11 32 80 12  80 3D 01 11 06 80 12 80  ..=..2...=......
17F0: 01 F4 18 02 10 00 2E 80  80 36 18 3C 00 11 35 80  .........6.<..5.
1800: 12 80 3C 00 11 36 80 12  80 3D 00 11 37 80 12 80  ..<..6...=..7...
1810: 3D 01 11 28 80 12 80 3D  01 11 2F 80 12 80 3D 01  =..(...=../...=.
1820: 11 30 80 12 80 3C 01 11  32 80 12 80 3D 01 11 06  .0...<..2...=...
1830: 80 12 80 01 F4 18 02 10  00 14 80 80 79 18 3C 00  ............y.<.
1840: 11 35 80 12 80 3C 00 11  36 80 12 80 3D 00 11 37  .5...<..6...=..7
1850: 80 12 80 3D 01 11 28 80  12 80 3D 01 11 2F 80 12  ...=..(...=../..
1860: 80 3D 01 11 30 80 12 80  3C 01 11 32 80 12 80 3D  .=..0...<..2...=
1870: 01 11 06 80 12 80 01 F4  18 02 10 00 02 80 80 BC  ................
1880: 18 3C 00 11 35 80 12 80  3C 00 11 36 80 12 80 3C  .<..5...<..6...<
1890: 00 11 37 80 12 80 3C 01  11 28 80 12 80 3D 01 11  ..7...<..(...=..
18A0: 2F 80 12 80 3D 01 11 30  80 12 80 3D 01 11 32 80  /...=..0...=..2.
18B0: 12 80 3C 01 11 06 80 12  80 01 F4 18 3D 00 11 35  ..<.........=..5
18C0: 80 12 80 3D 00 11 36 80  12 80 3D 00 11 37 80 12  ...=..6...=..7..
18D0: 80 3D 01 11 28 80 12 80  3C 01 11 2F 80 12 80 3D  .=..(...<../...=
18E0: 01 11 30 80 12 80 3D 01  11 32 80 12 80 3D 01 11  ..0...=..2...=..
18F0: 06 80 12 80 1B 03 01 10  37 80 43 00 43 01 03 02  ........7.C.C...
1900: 11 02 10 03 03 11 03 10  03 04 11 04 10 03 05 11  ................
1910: 05 10 03 06 11 06 10 03  07 11 07 10 03 09 11 08  ................
1920: 10 1B 03 01 10 3E 80 47  00 3F 80 40 80 41 80 42  .....>.G.?.@.A.B
1930: 80 47 01 03 02 11 02 10  03 03 11 03 10 03 04 11  .G..............
1940: 04 10 03 05 11 05 10 03  06 11 06 10 03 07 11 07  ................
1950: 10 03 09 11 08 10 1B 2F  00 37 80 11 01 2F 00 38  ......./.7.../.8
1960: 80 11 01 2F 00 39 80 11  01 2F 00 3A 80 11 01 2F  .../.9.../.:.../
1970: 00 3B 80 11 01 2F 00 3C  80 11 01 2F 00 3D 80 11  .;.../.<.../.=..
1980: 01 2F 00 3E 80 11 01 2F  00 3F 80 11 01 2F 00 40  ./.>.../.?.../.@
1990: 80 11 01 2F 00 41 80 11  01 2F 00 42 80 11 01 2F  .../.A.../.B.../
19A0: 00 43 80 11 01 2F 00 44  80 11 01 2F 00 45 80 11  .C.../.D.../.E..
19B0: 01 2F 00 46 80 11 01 2F  00 47 80 11 01 2F 00 48  ./.F.../.G.../.H
19C0: 80 11 01 2F 00 49 80 11  01 2F 00 4A 80 11 01 2F  .../.I.../.J.../
19D0: 00 4B 80 11 01 2F 00 4C  80 11 01 2F 00 4D 80 11  .K.../.L.../.M..
19E0: 01 2F 00 4E 80 11 01 AC  02 37 80 11 01 AC 02 38  ./.N.....7.....8
19F0: 80 11 01 AC 02 39 80 11  01 AC 02 3A 80 11 01 AC  .....9.....:....
1A00: 02 3B 80 11 01 AC 02 3C  80 11 01 AC 02 3D 80 11  .;.....<.....=..
1A10: 01 AC 02 3E 80 11 01 AC  02 3F 80 11 01 AC 02 40  ...>.....?.....@
1A20: 80 11 01 AC 02 41 80 11  01 AC 02 42 80 11 01 AC  .....A.....B....
1A30: 02 43 80 11 01 AC 02 44  80 11 01 AC 02 45 80 11  .C.....D.....E..
1A40: 01 AC 02 46 80 11 01 AC  02 47 80 11 01 AC 02 48  ...F.....G.....H
1A50: 80 11 01 AC 02 49 80 11  01 AC 02 4A 80 11 01 AC  .....I.....J....
1A60: 02 4B 80 11 01 AC 02 4C  80 11 01 AC 02 4D 80 11  .K.....L.....M..
1A70: 01 AC 02 4E 80 11 01 AC  02 0C 80 11 01 AC 02 0D  ...N............
1A80: 80 11 01 AC 02 0E 80 11  01 41 01 80 12 80 02 11  .........A......
1A90: 02 10 02 02 10 12 80 00  A4 1A 29 80 0C 80 11 01  ..........).....
1AA0: 03 01 AB 1A 29 80 0C 80  11 01 02 41 01 80 12 80  ....)......A....
1AB0: 03 11 02 10 02 02 10 12  80 00 C6 1A 29 80 0D 80  ............)...
1AC0: 11 01 03 01 CD 1A 29 80  0D 80 11 01 02 41 01 80  ......)......A..
1AD0: 12 80 04 11 02 10 02 02  10 12 80 00 E8 1A 29 80  ..............).
1AE0: 0E 80 11 01 03 01 EF 1A  29 80 0E 80 11 01 02 27  ........)......'
1AF0: 80 37 80 11 01 02 27 80  38 80 11 01 02 27 80 39  .7....'.8....'.9
1B00: 80 11 01 02 29 80 3A 80  11 01 02 27 80 3B 80 11  ....).:....'.;..
1B10: 01 02 27 80 3C 80 11 01  02 27 80 3D 80 11 01 02  ..'.<....'.=....
1B20: 29 80 3E 80 11 01 02 27  80 3F 80 11 01 02 27 80  ).>....'.?....'.
1B30: 40 80 11 01 02 27 80 41  80 11 01 02 29 80 42 80  @....'.A....).B.
1B40: 11 01 02 27 80 43 80 11  01 02 27 80 44 80 11 01  ...'.C....'.D...
1B50: 02 27 80 45 80 11 01 02  29 80 46 80 11 01 02 27  .'.E....).F....'
1B60: 80 47 80 11 01 02 27 80  48 80 11 01 02 27 80 49  .G....'.H....'.I
1B70: 80 11 01 02 29 80 4A 80  11 01 02 27 80 4B 80 11  ....).J....'.K..
1B80: 01 02 27 80 4C 80 11 01  02 27 80 4D 80 11 01 02  ..'.L....'.M....
1B90: 29 80 4E 80 11 01 02 1B  42 45 00 80 F0 FF FF 7F  ).N.....BE......
1BA0: F0 FF FF 7F 66 64 6F 30  01 80 55 00 80 F0 FF FF  ....fdo0..U.....
1BB0: 7F F0 FF FF 7F 66 64 6F  30 1A 22 19 1A 37 05 45  .....fdo0."..7.E
1BC0: 00 80 F0 FF FF 7F F0 FF  FF 7F 66 64 69 30 01 80  ..........fdi0..
1BD0: 55 00 80 F0 FF FF 7F F0  FF FF 7F 66 64 69 30 1B  U..........fdi0.
1BE0: 42 45 00 80 F0 FF FF 7F  F0 FF FF 7F 66 64 6F 30  BE..........fdo0
1BF0: 01 80 55 00 80 F0 FF FF  7F F0 FF FF 7F 66 64 6F  ..U..........fdo
1C00: 30 03 01 10 43 80 47 00  44 80 45 80 46 80 47 80  0...C.G.D.E.F.G.
1C10: 47 01 02 02 10 01 80 00  2F 1C 1A 71 0D 1A 1A 0D  G......./..q....
1C20: 1A 28 0D 1A 36 0D 1A 44  0D 1A D6 0B 01 2F 1C 45  .(..6..D...../.E
1C30: 00 80 F0 FF FF 7F F0 FF  FF 7F 66 64 69 30 01 80  ..........fdi0..
1C40: 55 00 80 F0 FF FF 7F F0  FF FF 7F 66 64 69 30 1B  U..........fdi0.
1C50: 1A B9 1C 02 10 00 01 80  01 5C 1C 1B 3C 00 11 02  .........\..<...
1C60: 10 12 80 1A 37 05 1B 1A  B9 1C 02 10 00 01 80 01  ....7...........
1C70: 73 1C 1B 3D 00 11 02 10  12 80 1A 37 05 1B 03 10  s..=.......7....
1C80: 00 02 10 03 01 10 15 80  40 31 80 04 80 01 10 02  ........@1......
1C90: 10 02 11 00 01 80 00 A3  1C 3C 01 10 04 80 12 80  .........<......
1CA0: 01 AA 1C 3D 01 10 04 80  12 80 43 00 43 01 03 00  ...=......C.C...
1CB0: 11 02 10 03 10 00 01 80  1B 02 02 10 01 80 03 CA  ................
1CC0: 1C 03 10 00 48 80 1B 01  E0 1C 02 02 10 04 80 02  ....H...........
1CD0: DB 1C 03 10 00 48 80 1B  01 E0 1C 03 10 00 01 80  .....H..........
1CE0: 1B 02 10 03 10 04 10 05  10 06 10 07 10 08 10 09  ................
1CF0: 10 00 17 01 17 02 17 03  17 04 17 05 17 06 17 07  ................
1D00: 17 08 17 09 17 0A 17 0B  17 0C 17 0D 17 0E 17 0F  ................
1D10: 17 10 17 11 17 12 17 13  17 14 17 15 17 16 17 17  ................
1D20: 17 18 17 19 17 1A 17 1B  17 1C 17 1D 17 1E 17 1F  ................
1D30: 17 01 80 01 80 01 80 01  80 01 80 01 80 01 80 01  ................
1D40: 80 02 01 80 01 80 00 56  1D 03 02 11 0A 00 03 05  .......V........
1D50: 11 0B 00 01 80 1D 02 01  80 12 80 00 6B 1D 03 03  ............k...
1D60: 11 0A 00 03 06 11 0B 00  01 80 1D 02 01 80 15 80  ................
1D70: 00 80 1D 03 04 11 0A 00  03 07 11 0B 00 01 80 1D  ................
1D80: 1A 57 19 1B                                       .W..            
```

#### Opcodes

```
  0: 0x03FB [0x42] SET_CLI_EVENT_CANCEL_DATA()
  1: 0x03FC [0x46] CAMERA_CONTROL: Disable user control
  2: 0x03FE [0x03] ExtData[1]->WorkLocal[4] = Work_Zone[2]
  3: 0x0403 [0x03] ExtData[1]->WorkLocal[2] = Work_Zone[3]
  4: 0x0408 [0x03] ExtData[1]->WorkLocal[5] = Work_Zone[4]
  5: 0x040D [0x03] ExtData[1]->WorkLocal[3] = Work_Zone[5]
  6: 0x0412 [0x03] ExtData[1]->WorkLocal[1] = Work_Zone[6]
  7: 0x0417 [0x45] LOAD_SCHEDULED_TASK: Load scheduler "fdo0" with entities [LocalPlayer, LocalPlayer], work=[200*, 0*]
  8: 0x0428 [0x55] WAIT_LOAD_SCHEDULER: Wait for scheduler "fdo0" with entities [LocalPlayer, LocalPlayer], work=200*
  9: 0x0437 [0x45] LOAD_SCHEDULED_TASK: Load scheduler "s760" with entities [LocalPlayer, LocalPlayer], work=[23*, 0*]
 10: 0x0448 [0x03] ExtData[1]->WorkLocal[10] = Work_Zone[7]
 11: 0x044D [0x03] ExtData[1]->WorkLocal[11] = Work_Zone[8]
 12: 0x0452 [0x40] SET_BIT_WORK_RANGE(start_bit=0*, end_bit=7*, target=Work_Zone_Memorize[9], source=Work_Zone[9])
 13: 0x045B [0x1A] CALL_SUBROUTINE(address=0x1D41)
 14: 0x045E [0x45] LOAD_SCHEDULED_TASK: Load scheduler "fdi0" with entities [LocalPlayer, LocalPlayer], work=[200*, 0*]
 15: 0x046F [0x55] WAIT_LOAD_SCHEDULER: Wait for scheduler "fdi0" with entities [LocalPlayer, LocalPlayer], work=200*
 16: 0x047E [0x02] IF !(ExtData[1]->WorkLocal[3] == 0*) GOTO 0x0492
 17: 0x0486 [0x03] Work_Zone[2] = ExtData[1]->WorkLocal[4]
 18: 0x048B [0x48] [System] [7354*]:
    → "Fertilize the furrow with the $0? Beware that fertilizer cannot be recovered once used."
 19: 0x048E [0x23] WAIT_FOR_DIALOG_INTERACTION
 20: 0x048F [0x01] GOTO 0x049B
 21: 0x0492 [0x03] Work_Zone[4] = ExtData[1]->WorkLocal[5]
 22: 0x0497 [0x48] [System] [7355*]:
    → "Using this new fertilizer will overpower the effects of the $2 you already spread."
 23: 0x049A [0x23] WAIT_FOR_DIALOG_INTERACTION

SUBROUTINE_049B:
 24: 0x049B [0x03] Work_Zone[2] = ExtData[1]->WorkLocal[4]
 25: 0x04A0 [0x24] CREATE_DIALOG(message_id=7356*, default_option=0*, option_flags=0*)
    → "Use the $0? [Yes./No.]"
 26: 0x04A7 [0x25] WAIT_DIALOG_SELECT()
 27: 0x04A8 [0x02] IF !(Work_Zone[0] == 0*) GOTO 0x04DF
 28: 0x04B0 [0x03] Work_Zone[1] = 17*
 29: 0x04B5 [0x03] Work_Zone[3] = ExtData[1]->WorkLocal[4]
 30: 0x04BA [0x02] IF !(ExtData[1]->WorkLocal[1] == 0*) GOTO 0x04CE
 31: 0x04C2 [0x03] Work_Zone[3] = ExtData[1]->WorkLocal[4]
 32: 0x04C7 [0x48] [System] [7357*]:
    → "You have fertilized the furrow with $1."
 33: 0x04CA [0x23] WAIT_FOR_DIALOG_INTERACTION
 34: 0x04CB [0x01] GOTO 0x04DC
 35: 0x04CE [0x03] Work_Zone[2] = ExtData[1]->WorkLocal[1]
 36: 0x04D3 [0x03] Work_Zone[3] = ExtData[1]->WorkLocal[4]
 37: 0x04D8 [0x48] [System] [7358*]:
    → "You have fertilized the $0 with $1."
 38: 0x04DB [0x23] WAIT_FOR_DIALOG_INTERACTION

SUBROUTINE_04DC:
 39: 0x04DC [0x01] GOTO 0x04E4
 40: 0x04DF [0x03] Work_Zone[1] = 1073741824*

SUBROUTINE_04E4:
 41: 0x04E4 [0x45] LOAD_SCHEDULED_TASK: Load scheduler "fdo0" with entities [LocalPlayer, LocalPlayer], work=[200*, 0*]
 42: 0x04F5 [0x55] WAIT_LOAD_SCHEDULER: Wait for scheduler "fdo0" with entities [LocalPlayer, LocalPlayer], work=200*
 43: 0x0504 [0x52] END_LOAD_SCHEDULER: End scheduler "s760" with entities [LocalPlayer, LocalPlayer], work=23*
 44: 0x0513 [0x46] CAMERA_CONTROL: Restore default settings
 45: 0x0515 [0x45] LOAD_SCHEDULED_TASK: Load scheduler "fdi0" with entities [LocalPlayer, LocalPlayer], work=[200*, 0*]
 46: 0x0526 [0x55] WAIT_LOAD_SCHEDULER: Wait for scheduler "fdi0" with entities [LocalPlayer, LocalPlayer], work=200*
 47: 0x0535 [0x21] END_EVENT
 48: 0x0536 [0x00] END_REQSTACK()

SUBROUTINE_1957:
 49: 0x1957 [0x2F] Plant00 (ID: 17924151/0x01118037)->Render.Flags0 &= ~0x80000 // Bit 19
 50: 0x195D [0x2F] Plant01 (ID: 17924152/0x01118038)->Render.Flags0 &= ~0x80000 // Bit 19
 51: 0x1963 [0x2F] Plant02 (ID: 17924153/0x01118039)->Render.Flags0 &= ~0x80000 // Bit 19
 52: 0x1969 [0x2F] Plant03 (ID: 17924154/0x0111803A)->Render.Flags0 &= ~0x80000 // Bit 19
 53: 0x196F [0x2F] PlantFurn00 (ID: 17924155/0x0111803B)->Render.Flags0 &= ~0x80000 // Bit 19
 54: 0x1975 [0x2F] PlantFurn01 (ID: 17924156/0x0111803C)->Render.Flags0 &= ~0x80000 // Bit 19
 55: 0x197B [0x2F] PlantFurn02 (ID: 17924157/0x0111803D)->Render.Flags0 &= ~0x80000 // Bit 19
 56: 0x1981 [0x2F] PlantFurn03 (ID: 17924158/0x0111803E)->Render.Flags0 &= ~0x80000 // Bit 19
 57: 0x1987 [0x2F] Plant10 (ID: 17924159/0x0111803F)->Render.Flags0 &= ~0x80000 // Bit 19
 58: 0x198D [0x2F] Plant11 (ID: 17924160/0x01118040)->Render.Flags0 &= ~0x80000 // Bit 19
 59: 0x1993 [0x2F] Plant12 (ID: 17924161/0x01118041)->Render.Flags0 &= ~0x80000 // Bit 19
 60: 0x1999 [0x2F] Plant13 (ID: 17924162/0x01118042)->Render.Flags0 &= ~0x80000 // Bit 19
 61: 0x199F [0x2F] PlantFurn10 (ID: 17924163/0x01118043)->Render.Flags0 &= ~0x80000 // Bit 19
 62: 0x19A5 [0x2F] PlantFurn11 (ID: 17924164/0x01118044)->Render.Flags0 &= ~0x80000 // Bit 19
 63: 0x19AB [0x2F] PlantFurn12 (ID: 17924165/0x01118045)->Render.Flags0 &= ~0x80000 // Bit 19
 64: 0x19B1 [0x2F] PlantFurn13 (ID: 17924166/0x01118046)->Render.Flags0 &= ~0x80000 // Bit 19
 65: 0x19B7 [0x2F] Plant20 (ID: 17924167/0x01118047)->Render.Flags0 &= ~0x80000 // Bit 19
 66: 0x19BD [0x2F] Plant21 (ID: 17924168/0x01118048)->Render.Flags0 &= ~0x80000 // Bit 19
 67: 0x19C3 [0x2F] Plant22 (ID: 17924169/0x01118049)->Render.Flags0 &= ~0x80000 // Bit 19
 68: 0x19C9 [0x2F] Plant23 (ID: 17924170/0x0111804A)->Render.Flags0 &= ~0x80000 // Bit 19
 69: 0x19CF [0x2F] PlantFurn20 (ID: 17924171/0x0111804B)->Render.Flags0 &= ~0x80000 // Bit 19
 70: 0x19D5 [0x2F] PlantFurn21 (ID: 17924172/0x0111804C)->Render.Flags0 &= ~0x80000 // Bit 19
 71: 0x19DB [0x2F] PlantFurn22 (ID: 17924173/0x0111804D)->Render.Flags0 &= ~0x80000 // Bit 19
 72: 0x19E1 [0x2F] PlantFurn23 (ID: 17924174/0x0111804E)->Render.Flags0 &= ~0x80000 // Bit 19
 73: 0x19E7 [0xAC] Plant00 (ID: 17924151/0x01118037)->Render.Flags6 |= 0x02 // Set bit 1
 74: 0x19ED [0xAC] Plant01 (ID: 17924152/0x01118038)->Render.Flags6 |= 0x02 // Set bit 1
 75: 0x19F3 [0xAC] Plant02 (ID: 17924153/0x01118039)->Render.Flags6 |= 0x02 // Set bit 1
 76: 0x19F9 [0xAC] Plant03 (ID: 17924154/0x0111803A)->Render.Flags6 |= 0x02 // Set bit 1
 77: 0x19FF [0xAC] PlantFurn00 (ID: 17924155/0x0111803B)->Render.Flags6 |= 0x02 // Set bit 1
 78: 0x1A05 [0xAC] PlantFurn01 (ID: 17924156/0x0111803C)->Render.Flags6 |= 0x02 // Set bit 1
 79: 0x1A0B [0xAC] PlantFurn02 (ID: 17924157/0x0111803D)->Render.Flags6 |= 0x02 // Set bit 1
 80: 0x1A11 [0xAC] PlantFurn03 (ID: 17924158/0x0111803E)->Render.Flags6 |= 0x02 // Set bit 1
 81: 0x1A17 [0xAC] Plant10 (ID: 17924159/0x0111803F)->Render.Flags6 |= 0x02 // Set bit 1
 82: 0x1A1D [0xAC] Plant11 (ID: 17924160/0x01118040)->Render.Flags6 |= 0x02 // Set bit 1
 83: 0x1A23 [0xAC] Plant12 (ID: 17924161/0x01118041)->Render.Flags6 |= 0x02 // Set bit 1
 84: 0x1A29 [0xAC] Plant13 (ID: 17924162/0x01118042)->Render.Flags6 |= 0x02 // Set bit 1
 85: 0x1A2F [0xAC] PlantFurn10 (ID: 17924163/0x01118043)->Render.Flags6 |= 0x02 // Set bit 1
 86: 0x1A35 [0xAC] PlantFurn11 (ID: 17924164/0x01118044)->Render.Flags6 |= 0x02 // Set bit 1
 87: 0x1A3B [0xAC] PlantFurn12 (ID: 17924165/0x01118045)->Render.Flags6 |= 0x02 // Set bit 1
 88: 0x1A41 [0xAC] PlantFurn13 (ID: 17924166/0x01118046)->Render.Flags6 |= 0x02 // Set bit 1
 89: 0x1A47 [0xAC] Plant20 (ID: 17924167/0x01118047)->Render.Flags6 |= 0x02 // Set bit 1
 90: 0x1A4D [0xAC] Plant21 (ID: 17924168/0x01118048)->Render.Flags6 |= 0x02 // Set bit 1
 91: 0x1A53 [0xAC] Plant22 (ID: 17924169/0x01118049)->Render.Flags6 |= 0x02 // Set bit 1
 92: 0x1A59 [0xAC] Plant23 (ID: 17924170/0x0111804A)->Render.Flags6 |= 0x02 // Set bit 1
 93: 0x1A5F [0xAC] PlantFurn20 (ID: 17924171/0x0111804B)->Render.Flags6 |= 0x02 // Set bit 1
 94: 0x1A65 [0xAC] PlantFurn21 (ID: 17924172/0x0111804C)->Render.Flags6 |= 0x02 // Set bit 1
 95: 0x1A6B [0xAC] PlantFurn22 (ID: 17924173/0x0111804D)->Render.Flags6 |= 0x02 // Set bit 1
 96: 0x1A71 [0xAC] PlantFurn23 (ID: 17924174/0x0111804E)->Render.Flags6 |= 0x02 // Set bit 1
 97: 0x1A77 [0xAC] Unknown NPC (ID: 17924108/0x0111800C)->Render.Flags6 |= 0x02 // Set bit 1
 98: 0x1A7D [0xAC] Unknown NPC (ID: 17924109/0x0111800D)->Render.Flags6 |= 0x02 // Set bit 1
 99: 0x1A83 [0xAC] Unknown NPC (ID: 17924110/0x0111800E)->Render.Flags6 |= 0x02 // Set bit 1
100: 0x1A89 [0x41] Work_Zone[2] = Work_Zone_Memorize[2] (bits 0*-1*)
101: 0x1A92 [0x02] IF !(Work_Zone[2] == 1*) GOTO 0x1AA4
102: 0x1A9A [0x29] REQ_SET_WAIT(priority=0x80, entity_id=Unknown NPC (ID: 17924108/0x0111800C), tag_num=0x03)
103: 0x1AA1 [0x01] GOTO 0x1AAB
104: 0x1AA4 [0x29] REQ_SET_WAIT(priority=0x80, entity_id=Unknown NPC (ID: 17924108/0x0111800C), tag_num=0x02)

SUBROUTINE_1AAB:
105: 0x1AAB [0x41] Work_Zone[2] = Work_Zone_Memorize[3] (bits 0*-1*)
106: 0x1AB4 [0x02] IF !(Work_Zone[2] == 1*) GOTO 0x1AC6
107: 0x1ABC [0x29] REQ_SET_WAIT(priority=0x80, entity_id=Unknown NPC (ID: 17924109/0x0111800D), tag_num=0x03)
108: 0x1AC3 [0x01] GOTO 0x1ACD
109: 0x1AC6 [0x29] REQ_SET_WAIT(priority=0x80, entity_id=Unknown NPC (ID: 17924109/0x0111800D), tag_num=0x02)

SUBROUTINE_1ACD:
110: 0x1ACD [0x41] Work_Zone[2] = Work_Zone_Memorize[4] (bits 0*-1*)
111: 0x1AD6 [0x02] IF !(Work_Zone[2] == 1*) GOTO 0x1AE8
112: 0x1ADE [0x29] REQ_SET_WAIT(priority=0x80, entity_id=Unknown NPC (ID: 17924110/0x0111800E), tag_num=0x03)
113: 0x1AE5 [0x01] GOTO 0x1AEF
114: 0x1AE8 [0x29] REQ_SET_WAIT(priority=0x80, entity_id=Unknown NPC (ID: 17924110/0x0111800E), tag_num=0x02)

SUBROUTINE_1AEF:
115: 0x1AEF [0x27] REQ_SET(priority=0x80, entity_id=Plant00 (ID: 17924151/0x01118037), tag_num=0x02)
116: 0x1AF6 [0x27] REQ_SET(priority=0x80, entity_id=Plant01 (ID: 17924152/0x01118038), tag_num=0x02)
117: 0x1AFD [0x27] REQ_SET(priority=0x80, entity_id=Plant02 (ID: 17924153/0x01118039), tag_num=0x02)
118: 0x1B04 [0x29] REQ_SET_WAIT(priority=0x80, entity_id=Plant03 (ID: 17924154/0x0111803A), tag_num=0x02)
119: 0x1B0B [0x27] REQ_SET(priority=0x80, entity_id=PlantFurn00 (ID: 17924155/0x0111803B), tag_num=0x02)
120: 0x1B12 [0x27] REQ_SET(priority=0x80, entity_id=PlantFurn01 (ID: 17924156/0x0111803C), tag_num=0x02)
121: 0x1B19 [0x27] REQ_SET(priority=0x80, entity_id=PlantFurn02 (ID: 17924157/0x0111803D), tag_num=0x02)
122: 0x1B20 [0x29] REQ_SET_WAIT(priority=0x80, entity_id=PlantFurn03 (ID: 17924158/0x0111803E), tag_num=0x02)
123: 0x1B27 [0x27] REQ_SET(priority=0x80, entity_id=Plant10 (ID: 17924159/0x0111803F), tag_num=0x02)
124: 0x1B2E [0x27] REQ_SET(priority=0x80, entity_id=Plant11 (ID: 17924160/0x01118040), tag_num=0x02)
125: 0x1B35 [0x27] REQ_SET(priority=0x80, entity_id=Plant12 (ID: 17924161/0x01118041), tag_num=0x02)
126: 0x1B3C [0x29] REQ_SET_WAIT(priority=0x80, entity_id=Plant13 (ID: 17924162/0x01118042), tag_num=0x02)
127: 0x1B43 [0x27] REQ_SET(priority=0x80, entity_id=PlantFurn10 (ID: 17924163/0x01118043), tag_num=0x02)
128: 0x1B4A [0x27] REQ_SET(priority=0x80, entity_id=PlantFurn11 (ID: 17924164/0x01118044), tag_num=0x02)
129: 0x1B51 [0x27] REQ_SET(priority=0x80, entity_id=PlantFurn12 (ID: 17924165/0x01118045), tag_num=0x02)
130: 0x1B58 [0x29] REQ_SET_WAIT(priority=0x80, entity_id=PlantFurn13 (ID: 17924166/0x01118046), tag_num=0x02)
131: 0x1B5F [0x27] REQ_SET(priority=0x80, entity_id=Plant20 (ID: 17924167/0x01118047), tag_num=0x02)
132: 0x1B66 [0x27] REQ_SET(priority=0x80, entity_id=Plant21 (ID: 17924168/0x01118048), tag_num=0x02)
133: 0x1B6D [0x27] REQ_SET(priority=0x80, entity_id=Plant22 (ID: 17924169/0x01118049), tag_num=0x02)
134: 0x1B74 [0x29] REQ_SET_WAIT(priority=0x80, entity_id=Plant23 (ID: 17924170/0x0111804A), tag_num=0x02)
135: 0x1B7B [0x27] REQ_SET(priority=0x80, entity_id=PlantFurn20 (ID: 17924171/0x0111804B), tag_num=0x02)
136: 0x1B82 [0x27] REQ_SET(priority=0x80, entity_id=PlantFurn21 (ID: 17924172/0x0111804C), tag_num=0x02)
137: 0x1B89 [0x27] REQ_SET(priority=0x80, entity_id=PlantFurn22 (ID: 17924173/0x0111804D), tag_num=0x02)
138: 0x1B90 [0x29] REQ_SET_WAIT(priority=0x80, entity_id=PlantFurn23 (ID: 17924174/0x0111804E), tag_num=0x02)
139: 0x1B97 [0x1B] RETURN

SUBROUTINE_1D41:
140: 0x1D41 [0x02] IF !(0* == 0*) GOTO 0x1D56
141: 0x1D49 [0x03] Work_Zone_Memorize[2] = ExtData[1]->WorkLocal[10]
142: 0x1D4E [0x03] Work_Zone_Memorize[5] = ExtData[1]->WorkLocal[11]
143: 0x1D53 [0x01] GOTO 0x1D80
144: 0x1D56 [0x02] IF !(0* == 1*) GOTO 0x1D6B
145: 0x1D5E [0x03] Work_Zone_Memorize[3] = ExtData[1]->WorkLocal[10]
146: 0x1D63 [0x03] Work_Zone_Memorize[6] = ExtData[1]->WorkLocal[11]
147: 0x1D68 [0x01] GOTO 0x1D80
148: 0x1D6B [0x02] IF !(0* == 2*) GOTO 0x1D80
149: 0x1D73 [0x03] Work_Zone_Memorize[4] = ExtData[1]->WorkLocal[10]
150: 0x1D78 [0x03] Work_Zone_Memorize[7] = ExtData[1]->WorkLocal[11]
151: 0x1D7D [0x01] GOTO 0x1D80

SUBROUTINE_1D80:
152: 0x1D80 [0x1A] CALL_SUBROUTINE(address=0x1957)
153: 0x1D83 [0x1B] RETURN
```

#### Data or dead code:

```
# Dead code (unreachable instructions):
     0x0537 [0x92] Green Thumb Moogle (ID: 17924125/0x0111801D)->Render.Flags3 = Flags3  // No change (flag=0)
     0x053D [0x1A] CALL_SUBROUTINE(address=0x0D71)
     0x0540 [0x1A] CALL_SUBROUTINE(address=0x05AE)
     0x0543 [0x1A] CALL_SUBROUTINE(address=0x0672)
     0x0546 [0x1A] CALL_SUBROUTINE(address=0x081C)
     0x0549 [0x1A] CALL_SUBROUTINE(address=0x0A49)
     0x054C [0x1A] CALL_SUBROUTINE(address=0x1957)
     0x054F [0x1A] CALL_SUBROUTINE(address=0x0A57)
     0x0552 [0x1A] CALL_SUBROUTINE(address=0x0B33)
     0x0555 [0x1A] CALL_SUBROUTINE(address=0x0B6A)
     0x0558 [0x1A] CALL_SUBROUTINE(address=0x0B8D)
     0x055B [0x1A] CALL_SUBROUTINE(address=0x0BB9)
     0x055E [0x1A] CALL_SUBROUTINE(address=0x0C59)
     0x0561 [0x1A] CALL_SUBROUTINE(address=0x0CE3)
     0x0564 [0x1A] CALL_SUBROUTINE(address=0x0D0C)
     0x0567 [0x1A] CALL_SUBROUTINE(address=0x0D52)
     0x056A [0x1A] CALL_SUBROUTINE(address=0x098A)
     0x056D [0xAC] Coastal Fishing Net (ID: 17924149/0x01118035)->Render.Flags6 |= 0x02 // Set bit 1
     0x0573 [0x1B] RETURN
     0x0574 [0x92] Green Thumb Moogle (ID: 17924125/0x0111801D)->Render.Flags3 = Flags3  // No change (flag=0)
     0x057A [0x1A] CALL_SUBROUTINE(address=0x05AE)
     0x057D [0x1A] CALL_SUBROUTINE(address=0x0672)
     0x0580 [0x1A] CALL_SUBROUTINE(address=0x081C)
     0x0583 [0x1A] CALL_SUBROUTINE(address=0x0A49)
     0x0586 [0x1A] CALL_SUBROUTINE(address=0x1957)
     0x0589 [0x1A] CALL_SUBROUTINE(address=0x0A57)
     0x058C [0x1A] CALL_SUBROUTINE(address=0x0B33)
     0x058F [0x1A] CALL_SUBROUTINE(address=0x0B6A)
     0x0592 [0x1A] CALL_SUBROUTINE(address=0x0B8D)
     0x0595 [0x1A] CALL_SUBROUTINE(address=0x0BB9)
     0x0598 [0x1A] CALL_SUBROUTINE(address=0x0C59)
     0x059B [0x1A] CALL_SUBROUTINE(address=0x0CE3)
     0x059E [0x1A] CALL_SUBROUTINE(address=0x0D0C)
     0x05A1 [0x1A] CALL_SUBROUTINE(address=0x0D52)
     0x05A4 [0x1A] CALL_SUBROUTINE(address=0x098A)
     0x05A7 [0xAC] Coastal Fishing Net (ID: 17924149/0x01118035)->Render.Flags6 |= 0x02 // Set bit 1
     0x05AD [0x1B] RETURN
     0x05AE [0xAC] Unknown NPC (ID: 17924105/0x01118009)->Render.Flags6 |= 0x02 // Set bit 1
     0x05B4 [0x3E] IF !(Work_Zone_Memorize[0] bit 0*) GOTO 0x05C5
     0x05BB [0x27] REQ_SET(priority=0x80, entity_id=Unknown NPC (ID: 17924105/0x01118009), tag_num=0x02)
     0x05C2 [0x01] GOTO 0x05CC
     0x05C5 [0x27] REQ_SET(priority=0x80, entity_id=Unknown NPC (ID: 17924105/0x01118009), tag_num=0x03)
     0x05CC [0xAC] Unknown NPC (ID: 17924106/0x0111800A)->Render.Flags6 |= 0x02 // Set bit 1
     0x05D2 [0x3E] IF !(Work_Zone_Memorize[0] bit 1*) GOTO 0x05E3
     0x05D9 [0x27] REQ_SET(priority=0x80, entity_id=Unknown NPC (ID: 17924106/0x0111800A), tag_num=0x02)
     0x05E0 [0x01] GOTO 0x05EA
     0x05E3 [0x27] REQ_SET(priority=0x80, entity_id=Unknown NPC (ID: 17924106/0x0111800A), tag_num=0x03)
     0x05EA [0xAC] Unknown NPC (ID: 17924107/0x0111800B)->Render.Flags6 |= 0x02 // Set bit 1
     0x05F0 [0x3E] IF !(Work_Zone_Memorize[0] bit 2*) GOTO 0x0601
     0x05F7 [0x29] REQ_SET_WAIT(priority=0x80, entity_id=Unknown NPC (ID: 17924107/0x0111800B), tag_num=0x02)
     0x05FE [0x01] GOTO 0x0608
     0x0601 [0x29] REQ_SET_WAIT(priority=0x80, entity_id=Unknown NPC (ID: 17924107/0x0111800B), tag_num=0x03)
     0x0608 [0x92] Garden Furrow (ID: 17924128/0x01118020)->Render.Flags3 ^= 0x01
     0x060E [0x92] Garden Furrow #2 (ID: 17924129/0x01118021)->Render.Flags3 ^= 0x01
     0x0614 [0x92] Garden Furrow #3 (ID: 17924130/0x01118022)->Render.Flags3 ^= 0x01
     0x061A [0xAC] Garden Furrow (ID: 17924128/0x01118020)->Render.Flags6 |= 0x02 // Set bit 1
     0x0620 [0x3E] IF !(Work_Zone_Memorize[0] bit 26*) GOTO 0x0630
     0x0627 [0x4E] SET_ENTITY_HIDE_FLAG: Show Garden Furrow (ID: 17924128/0x01118020)
     0x062D [0x01] GOTO 0x0636
     0x0630 [0x4E] SET_ENTITY_HIDE_FLAG: Hide Garden Furrow (ID: 17924128/0x01118020)
     0x0636 [0xAC] Garden Furrow #2 (ID: 17924129/0x01118021)->Render.Flags6 |= 0x02 // Set bit 1
     0x063C [0x3E] IF !(Work_Zone_Memorize[0] bit 27*) GOTO 0x064C
     0x0643 [0x4E] SET_ENTITY_HIDE_FLAG: Show Garden Furrow #2 (ID: 17924129/0x01118021)
     0x0649 [0x01] GOTO 0x0652
     0x064C [0x4E] SET_ENTITY_HIDE_FLAG: Hide Garden Furrow #2 (ID: 17924129/0x01118021)
     0x0652 [0xAC] Garden Furrow #3 (ID: 17924130/0x01118022)->Render.Flags6 |= 0x02 // Set bit 1
     0x0658 [0x3E] IF !(Work_Zone_Memorize[0] bit 28*) GOTO 0x0668
     0x065F [0x4E] SET_ENTITY_HIDE_FLAG: Show Garden Furrow #3 (ID: 17924130/0x01118022)
     0x0665 [0x01] GOTO 0x066E
     0x0668 [0x4E] SET_ENTITY_HIDE_FLAG: Hide Garden Furrow #3 (ID: 17924130/0x01118022)
     0x066E [0x1C] WAIT(1* ticks)
     0x0671 [0x1B] RETURN
     0x0672 [0xAC] Unknown NPC (ID: 17924111/0x0111800F)->Render.Flags6 |= 0x02 // Set bit 1
     0x0678 [0x3E] IF !(Work_Zone_Memorize[0] bit 3*) GOTO 0x0689
     0x067F [0x27] REQ_SET(priority=0x80, entity_id=Unknown NPC (ID: 17924111/0x0111800F), tag_num=0x02)
     0x0686 [0x01] GOTO 0x0690
     0x0689 [0x27] REQ_SET(priority=0x80, entity_id=Unknown NPC (ID: 17924111/0x0111800F), tag_num=0x03)
     0x0690 [0xAC] Unknown NPC (ID: 17924112/0x01118010)->Render.Flags6 |= 0x02 // Set bit 1
     0x0696 [0x3E] IF !(Work_Zone_Memorize[0] bit 4*) GOTO 0x06A7
     0x069D [0x27] REQ_SET(priority=0x80, entity_id=Unknown NPC (ID: 17924112/0x01118010), tag_num=0x02)
     0x06A4 [0x01] GOTO 0x06AE
     0x06A7 [0x27] REQ_SET(priority=0x80, entity_id=Unknown NPC (ID: 17924112/0x01118010), tag_num=0x03)
     0x06AE [0xAC] Unknown NPC (ID: 17924113/0x01118011)->Render.Flags6 |= 0x02 // Set bit 1
     0x06B4 [0x3E] IF !(Work_Zone_Memorize[0] bit 5*) GOTO 0x06C5
     0x06BB [0x29] REQ_SET_WAIT(priority=0x80, entity_id=Unknown NPC (ID: 17924113/0x01118011), tag_num=0x02)
     0x06C2 [0x01] GOTO 0x06CC
     0x06C5 [0x29] REQ_SET_WAIT(priority=0x80, entity_id=Unknown NPC (ID: 17924113/0x01118011), tag_num=0x03)
     0x06CC [0xAC] Unknown NPC (ID: 17924122/0x0111801A)->Render.Flags6 |= 0x02 // Set bit 1
     0x06D2 [0x3E] IF !(Work_Zone_Memorize[1] bit 18*) GOTO 0x06E3
     0x06D9 [0x27] REQ_SET(priority=0x80, entity_id=Unknown NPC (ID: 17924122/0x0111801A), tag_num=0x02)
     0x06E0 [0x01] GOTO 0x06EA
     0x06E3 [0x27] REQ_SET(priority=0x80, entity_id=Unknown NPC (ID: 17924122/0x0111801A), tag_num=0x03)
     0x06EA [0xAC] Unknown NPC (ID: 17924123/0x0111801B)->Render.Flags6 |= 0x02 // Set bit 1
     0x06F0 [0x3E] IF !(Work_Zone_Memorize[1] bit 19*) GOTO 0x0701
     0x06F7 [0x29] REQ_SET_WAIT(priority=0x80, entity_id=Unknown NPC (ID: 17924123/0x0111801B), tag_num=0x02)
     0x06FE [0x01] GOTO 0x0708
     0x0701 [0x29] REQ_SET_WAIT(priority=0x80, entity_id=Unknown NPC (ID: 17924123/0x0111801B), tag_num=0x03)
     0x0708 [0xAC] Arboreal Grove (ID: 17924131/0x01118023)->Render.Flags6 |= 0x02 // Set bit 1
     0x070E [0xAC] Arboreal Grove (ID: 17924132/0x01118024)->Render.Flags6 |= 0x02 // Set bit 1
     0x0714 [0x3E] IF !(Work_Zone_Memorize[0] bit 18*) GOTO 0x0740
     0x071B [0x3E] IF !(Work_Zone_Memorize[8] bit 0*) GOTO 0x0731
     0x0722 [0x4E] SET_ENTITY_HIDE_FLAG: Show Arboreal Grove (ID: 17924132/0x01118024)
     0x0728 [0x4E] SET_ENTITY_HIDE_FLAG: Hide Arboreal Grove (ID: 17924131/0x01118023)
     0x072E [0x01] GOTO 0x073D
     0x0731 [0x4E] SET_ENTITY_HIDE_FLAG: Show Arboreal Grove (ID: 17924131/0x01118023)
     0x0737 [0x4E] SET_ENTITY_HIDE_FLAG: Hide Arboreal Grove (ID: 17924132/0x01118024)
     0x073D [0x01] GOTO 0x074C
     0x0740 [0x4E] SET_ENTITY_HIDE_FLAG: Hide Arboreal Grove (ID: 17924131/0x01118023)
     0x0746 [0x4E] SET_ENTITY_HIDE_FLAG: Hide Arboreal Grove (ID: 17924132/0x01118024)
     0x074C [0xAC] Arboreal Grove #2 (ID: 17924133/0x01118025)->Render.Flags6 |= 0x02 // Set bit 1
     0x0752 [0xAC] Arboreal Grove #2 (ID: 17924134/0x01118026)->Render.Flags6 |= 0x02 // Set bit 1
     0x0758 [0x3E] IF !(Work_Zone_Memorize[0] bit 19*) GOTO 0x0784
     0x075F [0x3E] IF !(Work_Zone_Memorize[8] bit 1*) GOTO 0x0775
     0x0766 [0x4E] SET_ENTITY_HIDE_FLAG: Show Arboreal Grove #2 (ID: 17924134/0x01118026)
     0x076C [0x4E] SET_ENTITY_HIDE_FLAG: Hide Arboreal Grove #2 (ID: 17924133/0x01118025)
     0x0772 [0x01] GOTO 0x0781
     0x0775 [0x4E] SET_ENTITY_HIDE_FLAG: Show Arboreal Grove #2 (ID: 17924133/0x01118025)
     0x077B [0x4E] SET_ENTITY_HIDE_FLAG: Hide Arboreal Grove #2 (ID: 17924134/0x01118026)
     0x0781 [0x01] GOTO 0x0790
     0x0784 [0x4E] SET_ENTITY_HIDE_FLAG: Hide Arboreal Grove #2 (ID: 17924133/0x01118025)
     0x078A [0x4E] SET_ENTITY_HIDE_FLAG: Hide Arboreal Grove #2 (ID: 17924134/0x01118026)
     0x0790 [0xAC] Arboreal Grove #3 (ID: 17924135/0x01118027)->Render.Flags6 |= 0x02 // Set bit 1
     0x0796 [0xAC] Arboreal Grove #3 (ID: 17924136/0x01118028)->Render.Flags6 |= 0x02 // Set bit 1
     0x079C [0x3E] IF !(Work_Zone_Memorize[0] bit 20*) GOTO 0x07C8
     0x07A3 [0x3E] IF !(Work_Zone_Memorize[8] bit 2*) GOTO 0x07B9
     0x07AA [0x4E] SET_ENTITY_HIDE_FLAG: Show Arboreal Grove #3 (ID: 17924136/0x01118028)
     0x07B0 [0x4E] SET_ENTITY_HIDE_FLAG: Hide Arboreal Grove #3 (ID: 17924135/0x01118027)
     0x07B6 [0x01] GOTO 0x07C5
     0x07B9 [0x4E] SET_ENTITY_HIDE_FLAG: Show Arboreal Grove #3 (ID: 17924135/0x01118027)
     0x07BF [0x4E] SET_ENTITY_HIDE_FLAG: Hide Arboreal Grove #3 (ID: 17924136/0x01118028)
     0x07C5 [0x01] GOTO 0x07D4
     0x07C8 [0x4E] SET_ENTITY_HIDE_FLAG: Hide Arboreal Grove #3 (ID: 17924135/0x01118027)
     0x07CE [0x4E] SET_ENTITY_HIDE_FLAG: Hide Arboreal Grove #3 (ID: 17924136/0x01118028)
     0x07D4 [0xAC] Arboreal Grove #4 (ID: 17924137/0x01118029)->Render.Flags6 |= 0x02 // Set bit 1
     0x07DA [0xAC] Arboreal Grove #4 (ID: 17924138/0x0111802A)->Render.Flags6 |= 0x02 // Set bit 1
     0x07E0 [0x3E] IF !(Work_Zone_Memorize[0] bit 21*) GOTO 0x080C
     0x07E7 [0x3E] IF !(Work_Zone_Memorize[8] bit 3*) GOTO 0x07FD
     0x07EE [0x4E] SET_ENTITY_HIDE_FLAG: Show Arboreal Grove #4 (ID: 17924138/0x0111802A)
     0x07F4 [0x4E] SET_ENTITY_HIDE_FLAG: Hide Arboreal Grove #4 (ID: 17924137/0x01118029)
     0x07FA [0x01] GOTO 0x0809
     0x07FD [0x4E] SET_ENTITY_HIDE_FLAG: Show Arboreal Grove #4 (ID: 17924137/0x01118029)
     0x0803 [0x4E] SET_ENTITY_HIDE_FLAG: Hide Arboreal Grove #4 (ID: 17924138/0x0111802A)
     0x0809 [0x01] GOTO 0x0818
     0x080C [0x4E] SET_ENTITY_HIDE_FLAG: Hide Arboreal Grove #4 (ID: 17924137/0x01118029)
     0x0812 [0x4E] SET_ENTITY_HIDE_FLAG: Hide Arboreal Grove #4 (ID: 17924138/0x0111802A)
     0x0818 [0x1C] WAIT(1* ticks)
     0x081B [0x1B] RETURN
     0x081C [0xAC] Unknown NPC (ID: 17924114/0x01118012)->Render.Flags6 |= 0x02 // Set bit 1
     0x0822 [0x3E] IF !(Work_Zone_Memorize[0] bit 6*) GOTO 0x0833
     0x0829 [0x27] REQ_SET(priority=0x80, entity_id=Unknown NPC (ID: 17924114/0x01118012), tag_num=0x02)
     0x0830 [0x01] GOTO 0x083A
     0x0833 [0x27] REQ_SET(priority=0x80, entity_id=Unknown NPC (ID: 17924114/0x01118012), tag_num=0x03)
     0x083A [0xAC] Unknown NPC (ID: 17924115/0x01118013)->Render.Flags6 |= 0x02 // Set bit 1
     0x0840 [0x3E] IF !(Work_Zone_Memorize[0] bit 7*) GOTO 0x0851
     0x0847 [0x27] REQ_SET(priority=0x80, entity_id=Unknown NPC (ID: 17924115/0x01118013), tag_num=0x02)
     0x084E [0x01] GOTO 0x0858
     0x0851 [0x27] REQ_SET(priority=0x80, entity_id=Unknown NPC (ID: 17924115/0x01118013), tag_num=0x03)
     0x0858 [0xAC] Unknown NPC (ID: 17924116/0x01118014)->Render.Flags6 |= 0x02 // Set bit 1
     0x085E [0x3E] IF !(Work_Zone_Memorize[0] bit 8*) GOTO 0x086F
     0x0865 [0x29] REQ_SET_WAIT(priority=0x80, entity_id=Unknown NPC (ID: 17924116/0x01118014), tag_num=0x02)
     0x086C [0x01] GOTO 0x0876
     0x086F [0x29] REQ_SET_WAIT(priority=0x80, entity_id=Unknown NPC (ID: 17924116/0x01118014), tag_num=0x03)
     0x0876 [0xAC] Mineral Vein (ID: 17924139/0x0111802B)->Render.Flags6 |= 0x02 // Set bit 1
     0x087C [0xAC] Mineral Vein (ID: 17924140/0x0111802C)->Render.Flags6 |= 0x02 // Set bit 1
     0x0882 [0x3E] IF !(Work_Zone_Memorize[0] bit 22*) GOTO 0x08AE
     0x0889 [0x3E] IF !(Work_Zone_Memorize[8] bit 4*) GOTO 0x089F
     0x0890 [0x4E] SET_ENTITY_HIDE_FLAG: Show Mineral Vein (ID: 17924140/0x0111802C)
     0x0896 [0x4E] SET_ENTITY_HIDE_FLAG: Hide Mineral Vein (ID: 17924139/0x0111802B)
     0x089C [0x01] GOTO 0x08AB
     0x089F [0x4E] SET_ENTITY_HIDE_FLAG: Show Mineral Vein (ID: 17924139/0x0111802B)
     0x08A5 [0x4E] SET_ENTITY_HIDE_FLAG: Hide Mineral Vein (ID: 17924140/0x0111802C)
     0x08AB [0x01] GOTO 0x08BA
     0x08AE [0x4E] SET_ENTITY_HIDE_FLAG: Hide Mineral Vein (ID: 17924139/0x0111802B)
     0x08B4 [0x4E] SET_ENTITY_HIDE_FLAG: Hide Mineral Vein (ID: 17924140/0x0111802C)
     0x08BA [0xAC] Mineral Vein #2 (ID: 17924141/0x0111802D)->Render.Flags6 |= 0x02 // Set bit 1
     0x08C0 [0xAC] Mineral Vein #2 (ID: 17924142/0x0111802E)->Render.Flags6 |= 0x02 // Set bit 1
     0x08C6 [0x3E] IF !(Work_Zone_Memorize[0] bit 23*) GOTO 0x08F2
     0x08CD [0x3E] IF !(Work_Zone_Memorize[8] bit 5*) GOTO 0x08E3
     0x08D4 [0x4E] SET_ENTITY_HIDE_FLAG: Show Mineral Vein #2 (ID: 17924142/0x0111802E)
     0x08DA [0x4E] SET_ENTITY_HIDE_FLAG: Hide Mineral Vein #2 (ID: 17924141/0x0111802D)
     0x08E0 [0x01] GOTO 0x08EF
     0x08E3 [0x4E] SET_ENTITY_HIDE_FLAG: Show Mineral Vein #2 (ID: 17924141/0x0111802D)
     0x08E9 [0x4E] SET_ENTITY_HIDE_FLAG: Hide Mineral Vein #2 (ID: 17924142/0x0111802E)
     0x08EF [0x01] GOTO 0x08FE
     0x08F2 [0x4E] SET_ENTITY_HIDE_FLAG: Hide Mineral Vein #2 (ID: 17924141/0x0111802D)
     0x08F8 [0x4E] SET_ENTITY_HIDE_FLAG: Hide Mineral Vein #2 (ID: 17924142/0x0111802E)
     0x08FE [0xAC] Mineral Vein #3 (ID: 17924143/0x0111802F)->Render.Flags6 |= 0x02 // Set bit 1
     0x0904 [0xAC] Mineral Vein #3 (ID: 17924144/0x01118030)->Render.Flags6 |= 0x02 // Set bit 1
     0x090A [0x3E] IF !(Work_Zone_Memorize[0] bit 24*) GOTO 0x0936
     0x0911 [0x3E] IF !(Work_Zone_Memorize[8] bit 6*) GOTO 0x0927
     0x0918 [0x4E] SET_ENTITY_HIDE_FLAG: Show Mineral Vein #3 (ID: 17924144/0x01118030)
     0x091E [0x4E] SET_ENTITY_HIDE_FLAG: Hide Mineral Vein #3 (ID: 17924143/0x0111802F)
     0x0924 [0x01] GOTO 0x0933
     0x0927 [0x4E] SET_ENTITY_HIDE_FLAG: Show Mineral Vein #3 (ID: 17924143/0x0111802F)
     0x092D [0x4E] SET_ENTITY_HIDE_FLAG: Hide Mineral Vein #3 (ID: 17924144/0x01118030)
     0x0933 [0x01] GOTO 0x0942
     0x0936 [0x4E] SET_ENTITY_HIDE_FLAG: Hide Mineral Vein #3 (ID: 17924143/0x0111802F)
     0x093C [0x4E] SET_ENTITY_HIDE_FLAG: Hide Mineral Vein #3 (ID: 17924144/0x01118030)
     0x0942 [0xAC] Mineral Vein #4 (ID: 17924145/0x01118031)->Render.Flags6 |= 0x02 // Set bit 1
     0x0948 [0xAC] Mineral Vein #4 (ID: 17924146/0x01118032)->Render.Flags6 |= 0x02 // Set bit 1
     0x094E [0x3E] IF !(Work_Zone_Memorize[0] bit 25*) GOTO 0x097A
     0x0955 [0x3E] IF !(Work_Zone_Memorize[8] bit 7*) GOTO 0x096B
     0x095C [0x4E] SET_ENTITY_HIDE_FLAG: Show Mineral Vein #4 (ID: 17924146/0x01118032)
     0x0962 [0x4E] SET_ENTITY_HIDE_FLAG: Hide Mineral Vein #4 (ID: 17924145/0x01118031)
     0x0968 [0x01] GOTO 0x0977
     0x096B [0x4E] SET_ENTITY_HIDE_FLAG: Show Mineral Vein #4 (ID: 17924145/0x01118031)
     0x0971 [0x4E] SET_ENTITY_HIDE_FLAG: Hide Mineral Vein #4 (ID: 17924146/0x01118032)
     0x0977 [0x01] GOTO 0x0986
     0x097A [0x4E] SET_ENTITY_HIDE_FLAG: Hide Mineral Vein #4 (ID: 17924145/0x01118031)
     0x0980 [0x4E] SET_ENTITY_HIDE_FLAG: Hide Mineral Vein #4 (ID: 17924146/0x01118032)
     0x0986 [0x1C] WAIT(1* ticks)
     0x0989 [0x1B] RETURN
     0x098A [0x92] Coastal Fishing Net (ID: 17924149/0x01118035)->Render.Flags3 ^= 0x01
     0x0990 [0xAC] Unknown NPC (ID: 17924117/0x01118015)->Render.Flags6 |= 0x02 // Set bit 1
     0x0996 [0x3E] IF !(Work_Zone_Memorize[0] bit 9*) GOTO 0x09A7
     0x099D [0x27] REQ_SET(priority=0x80, entity_id=Unknown NPC (ID: 17924117/0x01118015), tag_num=0x02)
     0x09A4 [0x01] GOTO 0x09AE
     0x09A7 [0x27] REQ_SET(priority=0x80, entity_id=Unknown NPC (ID: 17924117/0x01118015), tag_num=0x03)
     0x09AE [0xAC] Unknown NPC (ID: 17924118/0x01118016)->Render.Flags6 |= 0x02 // Set bit 1
     0x09B4 [0x3E] IF !(Work_Zone_Memorize[0] bit 10*) GOTO 0x09C5
     0x09BB [0x27] REQ_SET(priority=0x80, entity_id=Unknown NPC (ID: 17924118/0x01118016), tag_num=0x02)
     0x09C2 [0x01] GOTO 0x09CC
     0x09C5 [0x27] REQ_SET(priority=0x80, entity_id=Unknown NPC (ID: 17924118/0x01118016), tag_num=0x03)
     0x09CC [0xAC] Unknown NPC (ID: 17924119/0x01118017)->Render.Flags6 |= 0x02 // Set bit 1
     0x09D2 [0x3E] IF !(Work_Zone_Memorize[0] bit 11*) GOTO 0x09E3
     0x09D9 [0x27] REQ_SET(priority=0x80, entity_id=Unknown NPC (ID: 17924119/0x01118017), tag_num=0x02)
     0x09E0 [0x01] GOTO 0x09EA
     0x09E3 [0x27] REQ_SET(priority=0x80, entity_id=Unknown NPC (ID: 17924119/0x01118017), tag_num=0x03)
     0x09EA [0xAC] Unknown NPC (ID: 17924120/0x01118018)->Render.Flags6 |= 0x02 // Set bit 1
     0x09F0 [0x3E] IF !(Work_Zone_Memorize[1] bit 17*) GOTO 0x0A01
     0x09F7 [0x29] REQ_SET_WAIT(priority=0x80, entity_id=Unknown NPC (ID: 17924120/0x01118018), tag_num=0x02)
     0x09FE [0x01] GOTO 0x0A08
     0x0A01 [0x29] REQ_SET_WAIT(priority=0x80, entity_id=Unknown NPC (ID: 17924120/0x01118018), tag_num=0x03)
     0x0A08 [0x3E] IF !(Work_Zone_Memorize[1] bit 20*) GOTO 0x0A18
     0x0A0F [0x60] ZONE_SET_ACTION: Set zone action with param 0x6E6F3069
     0x0A15 [0x01] GOTO 0x0A18
     0x0A18 [0x3E] IF !(Work_Zone_Memorize[1] bit 21*) GOTO 0x0A28
     0x0A1F [0x60] ZONE_SET_ACTION: Set zone action with param 0x6E6F3169
     0x0A25 [0x01] GOTO 0x0A28
     0x0A28 [0x3E] IF !(Work_Zone_Memorize[1] bit 22*) GOTO 0x0A38
     0x0A2F [0x60] ZONE_SET_ACTION: Set zone action with param 0x6E6F3269
     0x0A35 [0x01] GOTO 0x0A38
     0x0A38 [0x3E] IF !(Work_Zone_Memorize[1] bit 23*) GOTO 0x0A48
     0x0A3F [0x60] ZONE_SET_ACTION: Set zone action with param 0x6E6F3369
     0x0A45 [0x01] GOTO 0x0A48
     0x0A48 [0x1B] RETURN
     0x0A49 [0xAC] Coastal Fishing Net (ID: 17924149/0x01118035)->Render.Flags6 |= 0x02 // Set bit 1
     0x0A4F [0x29] REQ_SET_WAIT(priority=0x08, entity_id=Coastal Fishing Net (ID: 17924149/0x01118035), tag_num=0x04)
     0x0A56 [0x1B] RETURN
     0x0A57 [0x92] Kuyin Hathdenna (ID: 17924183/0x01118057)->Render.Flags3 = Flags3  // No change (flag=0)
     0x0A5D [0x92] Kuyin Hathdenna (ID: 17924202/0x0111806A)->Render.Flags3 = Flags3  // No change (flag=0)
     0x0A63 [0x92] Susuroon (ID: 17924184/0x01118058)->Render.Flags3 = Flags3  // No change (flag=0)
     0x0A69 [0x92] Susuroon (ID: 17924203/0x0111806B)->Render.Flags3 = Flags3  // No change (flag=0)
     0x0A6F [0x92] Yeestog (ID: 17924185/0x01118059)->Render.Flags3 = Flags3  // No change (flag=0)
     0x0A75 [0x92] Yeestog (ID: 17924204/0x0111806C)->Render.Flags3 = Flags3  // No change (flag=0)
     0x0A7B [0xAC] Kuyin Hathdenna (ID: 17924183/0x01118057)->Render.Flags6 |= 0x02 // Set bit 1
     0x0A81 [0x3E] IF !(Work_Zone_Memorize[0] bit 12*) GOTO 0x0A92
     0x0A88 [0x27] REQ_SET(priority=0x08, entity_id=Kuyin Hathdenna (ID: 17924183/0x01118057), tag_num=0x02)
     0x0A8F [0x01] GOTO 0x0A99
     0x0A92 [0x27] REQ_SET(priority=0x08, entity_id=Kuyin Hathdenna (ID: 17924183/0x01118057), tag_num=0x03)
     0x0A99 [0xAC] Kuyin Hathdenna (ID: 17924202/0x0111806A)->Render.Flags6 |= 0x02 // Set bit 1
     0x0A9F [0x3E] IF !(Work_Zone_Memorize[0] bit 13*) GOTO 0x0AB0
     0x0AA6 [0x27] REQ_SET(priority=0x08, entity_id=Kuyin Hathdenna (ID: 17924202/0x0111806A), tag_num=0x02)
     0x0AAD [0x01] GOTO 0x0AB7
     0x0AB0 [0x27] REQ_SET(priority=0x08, entity_id=Kuyin Hathdenna (ID: 17924202/0x0111806A), tag_num=0x03)
     0x0AB7 [0xAC] Susuroon (ID: 17924184/0x01118058)->Render.Flags6 |= 0x02 // Set bit 1
     0x0ABD [0x3E] IF !(Work_Zone_Memorize[0] bit 14*) GOTO 0x0ACE
     0x0AC4 [0x29] REQ_SET_WAIT(priority=0x08, entity_id=Susuroon (ID: 17924184/0x01118058), tag_num=0x02)
     0x0ACB [0x01] GOTO 0x0AD5
     0x0ACE [0x29] REQ_SET_WAIT(priority=0x08, entity_id=Susuroon (ID: 17924184/0x01118058), tag_num=0x03)
     0x0AD5 [0xAC] Susuroon (ID: 17924203/0x0111806B)->Render.Flags6 |= 0x02 // Set bit 1
     0x0ADB [0x3E] IF !(Work_Zone_Memorize[0] bit 15*) GOTO 0x0AEC
     0x0AE2 [0x27] REQ_SET(priority=0x08, entity_id=Susuroon (ID: 17924203/0x0111806B), tag_num=0x02)
     0x0AE9 [0x01] GOTO 0x0AF3
     0x0AEC [0x27] REQ_SET(priority=0x08, entity_id=Susuroon (ID: 17924203/0x0111806B), tag_num=0x03)
     0x0AF3 [0xAC] Yeestog (ID: 17924185/0x01118059)->Render.Flags6 |= 0x02 // Set bit 1
     0x0AF9 [0x3E] IF !(Work_Zone_Memorize[0] bit 16*) GOTO 0x0B0A
     0x0B00 [0x27] REQ_SET(priority=0x08, entity_id=Yeestog (ID: 17924185/0x01118059), tag_num=0x02)
     0x0B07 [0x01] GOTO 0x0B11
     0x0B0A [0x27] REQ_SET(priority=0x08, entity_id=Yeestog (ID: 17924185/0x01118059), tag_num=0x03)
     0x0B11 [0xAC] Yeestog (ID: 17924204/0x0111806C)->Render.Flags6 |= 0x02 // Set bit 1
     0x0B17 [0x3E] IF !(Work_Zone_Memorize[0] bit 17*) GOTO 0x0B28
     0x0B1E [0x29] REQ_SET_WAIT(priority=0x08, entity_id=Yeestog (ID: 17924204/0x0111806C), tag_num=0x02)
     0x0B25 [0x01] GOTO 0x0B2F
     0x0B28 [0x29] REQ_SET_WAIT(priority=0x08, entity_id=Yeestog (ID: 17924204/0x0111806C), tag_num=0x03)
     0x0B2F [0x1C] WAIT(1* ticks)
     0x0B32 [0x1B] RETURN
     0x0B33 [0xAC] Flotsam (ID: 17924150/0x01118036)->Render.Flags6 |= 0x02 // Set bit 1
     0x0B39 [0x3E] IF !(Work_Zone_Memorize[0] bit 29*) GOTO 0x0B56
     0x0B40 [0x2C] CREATE_SCHEDULER_TASK: Create scheduler "efon" with entities [Flotsam (ID: 17924150/0x01118036), Flotsam (ID: 17924150/0x01118036)]
     0x0B4D [0xB6] ENTITY_APPEARANCE_HANDLER(case=Render.Flags2)
     0x0B4F [0x36] SET_ENTITY_EVENT_POSITION(pos_x=0x1180, pos_z=0x0101, pos_y=0x0B69)
     0x0B56 [0x2C] CREATE_SCHEDULER_TASK: Create scheduler "efof" with entities [Flotsam (ID: 17924150/0x01118036), Flotsam (ID: 17924150/0x01118036)]
     0x0B63 [0xB6] ENTITY_APPEARANCE_HANDLER(case=Render.Flags2)
     0x0B65 [0x36] SET_ENTITY_EVENT_POSITION(pos_x=0x1180, pos_z=0x1B01, pos_y=0x013E)
     0x0B6C [0x11] 0* >>= 0x0B80
     0x0B71 [0x4E] SET_ENTITY_HIDE_FLAG: Show Crabauble (ID: 17924209/0x01118071)
     0x0B77 [0xAC] Crabauble (ID: 17924209/0x01118071)->Render.Flags6 |= 0x02 // Set bit 1
     0x0B7D [0x01] GOTO 0x0B8C
     0x0B80 [0xAC] Crabauble (ID: 17924209/0x01118071)->Render.Flags6 |= 0x02 // Set bit 1
     0x0B86 [0x4E] SET_ENTITY_HIDE_FLAG: Hide Crabauble (ID: 17924209/0x01118071)
     0x0B8C [0x1B] RETURN
     0x0B8D [0xAC] Garden Strongbox (ID: 17924210/0x01118072)->Render.Flags6 |= 0x02 // Set bit 1
     0x0B93 [0x3E] IF !(Work_Zone_Memorize[1] bit 1*) GOTO 0x0BB1
     0x0B9A [0x3E] IF !(Work_Zone_Memorize[1] bit 3*) GOTO 0x0BA8
     0x0BA1 [0x29] REQ_SET_WAIT(priority=0x08, entity_id=Garden Strongbox (ID: 17924210/0x01118072), tag_num=0x04)
     0x0BA8 [0x4E] SET_ENTITY_HIDE_FLAG: Show Garden Strongbox (ID: 17924210/0x01118072)
     0x0BAE [0x01] GOTO 0x0BB8
     0x0BB1 [0x29] REQ_SET_WAIT(priority=0x08, entity_id=Garden Strongbox (ID: 17924210/0x01118072), tag_num=0x03)
     0x0BB8 [0x1B] RETURN
     0x0BB9 [0xAC] Ephemeral Moogle (ID: 17924238/0x0111808E)->Render.Flags6 |= 0x02 // Set bit 1
     0x0BBF [0x3E] IF !(Work_Zone_Memorize[1] bit 25*) GOTO 0x0BCF
     0x0BC6 [0x4E] SET_ENTITY_HIDE_FLAG: Show Ephemeral Moogle (ID: 17924238/0x0111808E)
     0x0BCC [0x01] GOTO 0x0BD5
     0x0BCF [0x4E] SET_ENTITY_HIDE_FLAG: Hide Ephemeral Moogle (ID: 17924238/0x0111808E)
     0x0BD5 [0x1B] RETURN
     0x0BD6 [0xAC] Unnamed NPC (ID: 17924224/0x01118080)->Render.Flags6 |= 0x02 // Set bit 1
     0x0BDC [0xAC] Unnamed NPC (ID: 17924225/0x01118081)->Render.Flags6 |= 0x02 // Set bit 1
     0x0BE2 [0xAC] Unnamed NPC (ID: 17924226/0x01118082)->Render.Flags6 |= 0x02 // Set bit 1
     0x0BE8 [0xAC] Unnamed NPC (ID: 17924227/0x01118083)->Render.Flags6 |= 0x02 // Set bit 1
     0x0BEE [0xAC] Unnamed NPC (ID: 17924228/0x01118084)->Render.Flags6 |= 0x02 // Set bit 1
     0x0BF4 [0x3E] IF !(Work_Zone_Memorize[1] bit 26*) GOTO 0x0C3A
     0x0BFB [0x4E] SET_ENTITY_HIDE_FLAG: Show Unnamed NPC (ID: 17924224/0x01118080)
     0x0C01 [0xAC] Unnamed NPC (ID: 17924224/0x01118080)->Render.Flags6 |= 0x02 // Set bit 1
     0x0C07 [0x4E] SET_ENTITY_HIDE_FLAG: Show Unnamed NPC (ID: 17924225/0x01118081)
     0x0C0D [0xAC] Unnamed NPC (ID: 17924225/0x01118081)->Render.Flags6 |= 0x02 // Set bit 1
     0x0C13 [0x4E] SET_ENTITY_HIDE_FLAG: Show Unnamed NPC (ID: 17924226/0x01118082)
     0x0C19 [0xAC] Unnamed NPC (ID: 17924226/0x01118082)->Render.Flags6 |= 0x02 // Set bit 1
     0x0C1F [0x4E] SET_ENTITY_HIDE_FLAG: Show Unnamed NPC (ID: 17924227/0x01118083)
     0x0C25 [0xAC] Unnamed NPC (ID: 17924227/0x01118083)->Render.Flags6 |= 0x02 // Set bit 1
     0x0C2B [0x4E] SET_ENTITY_HIDE_FLAG: Show Unnamed NPC (ID: 17924228/0x01118084)
     0x0C31 [0xAC] Unnamed NPC (ID: 17924228/0x01118084)->Render.Flags6 |= 0x02 // Set bit 1
     0x0C37 [0x01] GOTO 0x0C58
     0x0C3A [0x4E] SET_ENTITY_HIDE_FLAG: Hide Unnamed NPC (ID: 17924224/0x01118080)
     0x0C40 [0x4E] SET_ENTITY_HIDE_FLAG: Hide Unnamed NPC (ID: 17924225/0x01118081)
     0x0C46 [0x4E] SET_ENTITY_HIDE_FLAG: Hide Unnamed NPC (ID: 17924226/0x01118082)
     0x0C4C [0x4E] SET_ENTITY_HIDE_FLAG: Hide Unnamed NPC (ID: 17924227/0x01118083)
     0x0C52 [0x4E] SET_ENTITY_HIDE_FLAG: Hide Unnamed NPC (ID: 17924228/0x01118084)
     0x0C58 [0x1B] RETURN
     0x0C59 [0xAC] ??? (ID: 17924229/0x01118085)->Render.Flags6 |= 0x02 // Set bit 1
     0x0C5F [0xAC] ??? (ID: 17924230/0x01118086)->Render.Flags6 |= 0x02 // Set bit 1
     0x0C65 [0x3E] IF !(Work_Zone_Memorize[1] bit 27*) GOTO 0x0CD6
     0x0C6C [0x13] ExtData[1]->WorkLocal[16] = rand() % 2*
     0x0C71 [0x02] IF !(ExtData[1]->WorkLocal[16] <= 2*) GOTO 0x0C7C
     0x0C79 [0x06] ExtData[1]->WorkLocal[16] = 0
     0x0C7C [0x02] IF !(ExtData[1]->WorkLocal[16] == 0*) GOTO 0x0C95
     0x0C84 [0x29] REQ_SET_WAIT(priority=0x08, entity_id=??? (ID: 17924229/0x01118085), tag_num=0x02)
     0x0C8B [0x29] REQ_SET_WAIT(priority=0x08, entity_id=??? (ID: 17924230/0x01118086), tag_num=0x02)
     0x0C92 [0x01] GOTO 0x0CC7
     0x0C95 [0x02] IF !(ExtData[1]->WorkLocal[16] == 1*) GOTO 0x0CAE
     0x0C9D [0x29] REQ_SET_WAIT(priority=0x08, entity_id=??? (ID: 17924229/0x01118085), tag_num=0x03)
     0x0CA4 [0x29] REQ_SET_WAIT(priority=0x08, entity_id=??? (ID: 17924230/0x01118086), tag_num=0x03)
     0x0CAB [0x01] GOTO 0x0CC7
     0x0CAE [0x02] IF !(ExtData[1]->WorkLocal[16] == 2*) GOTO 0x0CC7
     0x0CB6 [0x29] REQ_SET_WAIT(priority=0x08, entity_id=??? (ID: 17924229/0x01118085), tag_num=0x04)
     0x0CBD [0x29] REQ_SET_WAIT(priority=0x08, entity_id=??? (ID: 17924230/0x01118086), tag_num=0x04)
     0x0CC4 [0x01] GOTO 0x0CC7
     0x0CC7 [0x4E] SET_ENTITY_HIDE_FLAG: Show ??? (ID: 17924229/0x01118085)
     0x0CCD [0x4E] SET_ENTITY_HIDE_FLAG: Show ??? (ID: 17924230/0x01118086)
     0x0CD3 [0x01] GOTO 0x0CE2
     0x0CD6 [0x4E] SET_ENTITY_HIDE_FLAG: Hide ??? (ID: 17924229/0x01118085)
     0x0CDC [0x4E] SET_ENTITY_HIDE_FLAG: Hide ??? (ID: 17924230/0x01118086)
     0x0CE2 [0x1B] RETURN
     0x0CE3 [0xAC] Chacharoon (ID: 17924231/0x01118087)->Render.Flags6 |= 0x02 // Set bit 1
     0x0CE9 [0x3E] IF !(Work_Zone_Memorize[1] bit 4*) GOTO 0x0CFF
     0x0CF0 [0x4E] SET_ENTITY_HIDE_FLAG: Show Chacharoon (ID: 17924231/0x01118087)
     0x0CF6 [0xAC] Chacharoon (ID: 17924231/0x01118087)->Render.Flags6 |= 0x02 // Set bit 1
     0x0CFC [0x01] GOTO 0x0D0B
     0x0CFF [0xAC] Chacharoon (ID: 17924231/0x01118087)->Render.Flags6 |= 0x02 // Set bit 1
     0x0D05 [0x4E] SET_ENTITY_HIDE_FLAG: Hide Chacharoon (ID: 17924231/0x01118087)
     0x0D0B [0x1B] RETURN
     0x0D0C [0xAC] Breeding Monster (ID: 17924233/0x01118089)->Render.Flags6 |= 0x02 // Set bit 1
     0x0D12 [0x29] REQ_SET_WAIT(priority=0x08, entity_id=Breeding Monster (ID: 17924233/0x01118089), tag_num=0x04)
     0x0D19 [0x1B] RETURN
     0x0D1A [0xAC] Breeding Monster01 (ID: 17924234/0x0111808A)->Render.Flags6 |= 0x02 // Set bit 1
     0x0D20 [0x29] REQ_SET_WAIT(priority=0x08, entity_id=Breeding Monster01 (ID: 17924234/0x0111808A), tag_num=0x04)
     0x0D27 [0x1B] RETURN
     0x0D28 [0xAC] Breeding Monster02 (ID: 17924235/0x0111808B)->Render.Flags6 |= 0x02 // Set bit 1
     0x0D2E [0x29] REQ_SET_WAIT(priority=0x08, entity_id=Breeding Monster02 (ID: 17924235/0x0111808B), tag_num=0x04)
     0x0D35 [0x1B] RETURN
     0x0D36 [0xAC] Breeding Monster03 (ID: 17924236/0x0111808C)->Render.Flags6 |= 0x02 // Set bit 1
     0x0D3C [0x29] REQ_SET_WAIT(priority=0x08, entity_id=Breeding Monster03 (ID: 17924236/0x0111808C), tag_num=0x04)
     0x0D43 [0x1B] RETURN
     0x0D44 [0xAC] Breeding Monster00 (ID: 17924237/0x0111808D)->Render.Flags6 |= 0x02 // Set bit 1
     0x0D4A [0x29] REQ_SET_WAIT(priority=0x08, entity_id=Breeding Monster00 (ID: 17924237/0x0111808D), tag_num=0x04)
     0x0D51 [0x1B] RETURN
     0x0D52 [0xAC] Unnamed NPC (ID: 17924124/0x0111801C)->Render.Flags6 |= 0x02 // Set bit 1
     0x0D58 [0x3E] IF !(Work_Zone_Memorize[1] bit 24*) GOTO 0x0D69
     0x0D5F [0x29] REQ_SET_WAIT(priority=0x80, entity_id=Unnamed NPC (ID: 17924124/0x0111801C), tag_num=0x02)
     0x0D66 [0x01] GOTO 0x0D70
     0x0D69 [0x29] REQ_SET_WAIT(priority=0x80, entity_id=Unnamed NPC (ID: 17924124/0x0111801C), tag_num=0x03)
     0x0D70 [0x1B] RETURN
     0x0D71 [0x03] Work_Zone[1] = 1*
     0x0D76 [0x43] SEND_EVENT_UPDATE: Send pending tag to server (packet 0x005B)
     0x0D78 [0x43] SEND_EVENT_UPDATE: Check pending flag (skip if not pending)
     0x0D7A [0x03] ExtData[1]->WorkLocal[17] = Work_Zone[2]
     0x0D7F [0x03] Work_Zone_Memorize[8] = Work_Zone[3]
     0x0D84 [0x03] Work_Zone_Memorize[1] = Work_Zone[4]
     0x0D89 [0x03] Work_Zone_Memorize[10] = Work_Zone[5]
     0x0D8E [0x03] Work_Zone_Memorize[11] = Work_Zone[6]
     0x0D93 [0x03] Work_Zone_Memorize[12] = Work_Zone[7]
     0x0D98 [0x03] Work_Zone[1] = 11*
     0x0D9D [0x43] SEND_EVENT_UPDATE: Send pending tag to server (packet 0x005B)
     0x0D9F [0x43] SEND_EVENT_UPDATE: Check pending flag (skip if not pending)
     0x0DA1 [0x03] Work_Zone_Memorize[2] = Work_Zone[2]
     0x0DA6 [0x03] Work_Zone_Memorize[3] = Work_Zone[3]
     0x0DAB [0x03] Work_Zone_Memorize[4] = Work_Zone[4]
     0x0DB0 [0x03] Work_Zone_Memorize[5] = Work_Zone[5]
     0x0DB5 [0x03] Work_Zone_Memorize[6] = Work_Zone[6]
     0x0DBA [0x03] Work_Zone_Memorize[7] = Work_Zone[7]
     0x0DBF [0x03] Work_Zone_Memorize[9] = Work_Zone[8]
     0x0DC4 [0x41] ExtData[1]->WorkLocal[16] = ExtData[1]->WorkLocal[17] (bits 0*-3*)
     0x0DCD [0x1A] CALL_SUBROUTINE(address=0x0FBE)
     0x0DD0 [0x41] ExtData[1]->WorkLocal[16] = ExtData[1]->WorkLocal[17] (bits 4*-7*)
     0x0DD9 [0x1A] CALL_SUBROUTINE(address=0x11C6)
     0x0DDC [0x41] ExtData[1]->WorkLocal[16] = ExtData[1]->WorkLocal[17] (bits 8*-11*)
     0x0DE5 [0x1A] CALL_SUBROUTINE(address=0x1456)
     0x0DE8 [0x41] ExtData[1]->WorkLocal[16] = ExtData[1]->WorkLocal[17] (bits 12*-15*)
     0x0DF1 [0x1A] CALL_SUBROUTINE(address=0x16A4)
     0x0DF4 [0x41] ExtData[1]->WorkLocal[16] = ExtData[1]->WorkLocal[17] (bits 20*-22*)
     0x0DFD [0x1A] CALL_SUBROUTINE(address=0x0E26)
     0x0E00 [0x41] ExtData[1]->WorkLocal[16] = ExtData[1]->WorkLocal[17] (bits 31*-31*)
     0x0E09 [0x02] IF !(ExtData[1]->WorkLocal[16] == 0*) GOTO 0x0E1B
     0x0E11 [0x3D] CLEAR_BIT_FLAG_CONDITIONAL(target_work_offset=Work_Zone_Memorize[0], bit_index_work_offset=29*, condition_work_offset=1*)
     0x0E18 [0x01] GOTO 0x0E22
     0x0E1B [0x3C] SET_BIT_FLAG_CONDITIONAL(target_work_offset=Work_Zone_Memorize[0], bit_index_work_offset=29*, condition_work_offset=1*)
     0x0E22 [0x1A] CALL_SUBROUTINE(address=0x0E40)
     0x0E25 [0x1B] RETURN
     0x0E26 [0x02] IF !(ExtData[1]->WorkLocal[16] < 3*) GOTO 0x0E38
     0x0E2E [0x3C] SET_BIT_FLAG_CONDITIONAL(target_work_offset=Work_Zone_Memorize[1], bit_index_work_offset=24*, condition_work_offset=1*)
     0x0E35 [0x01] GOTO 0x0E3F
     0x0E38 [0x3D] CLEAR_BIT_FLAG_CONDITIONAL(target_work_offset=Work_Zone_Memorize[1], bit_index_work_offset=24*, condition_work_offset=1*)
     0x0E3F [0x1B] RETURN
     0x0E40 [0x3E] IF !(Work_Zone_Memorize[8] bit 8*) GOTO 0x0EB1
     0x0E47 [0x41] ExtData[1]->WorkLocal[16] = Work_Zone_Memorize[8] (bits 9*-11*)
     0x0E50 [0x02] IF !(ExtData[1]->WorkLocal[16] == 1*) GOTO 0x0E69
