# 17924230

## Common Data

| Field            | Value                |
|------------------|----------------------|
| Zone             | Mog Garden (ID: 280) |
| Block Size       | 148 bytes            |
| Total Events     | 5                    |
| References Count | 15                   |

## List of Events

| Event ID                 | Entrypoint   |   Size |   Instructions |
|--------------------------|--------------|--------|----------------|
| [65535](#event-65535)    | 0x0000       |      1 |              1 |
| [65534](#event-65534)    | 0x0001       |      1 |              1 |
| [65535.1](#event-655351) | 0x0002       |     16 |              4 |
| [65535.2](#event-655352) | 0x0012       |     16 |              4 |
| [65535.3](#event-655353) | 0x0022       |     16 |              4 |

## DAT References (imed_data)

|   Index | Hex Value   |   Dec Value |
|---------|-------------|-------------|
|       0 | 0x0042      |          66 |
|       1 | 0x13BA      |        5050 |
|       2 | 0xFFFFBBFE  |  4294949886 |
|       3 | 0x05DC      |        1500 |
|       4 | 0x0500      |        1280 |
|       5 | 0x0048      |          72 |
|       6 | 0x2DD2      |       11730 |
|       7 | 0xFFFFCF18  |  4294954776 |
|       8 | 0x0352      |         850 |
|       9 | 0x0200      |         512 |
|      10 | 0x004A      |          74 |
|      11 | 0xFFFFF394  |  4294964116 |
|      12 | 0x244A      |        9290 |
|      13 | 0x00B4      |         180 |
|      14 | 0x0A00      |        2560 |

## Events

### Event 65535

#### Metadata

| Field        | Value   |
|--------------|---------|
| Entrypoint   | 0x0000  |
| Data Size    | 1 bytes |
| Instructions | 1       |

```
      00 01 02 03 04 05 06 07  08 09 0A 0B 0C 0D 0E 0F
      -- -- -- -- -- -- -- --  -- -- -- -- -- -- -- --
0000: 00                                                .               
```

#### Opcodes

```
  0: 0x0000 [0x00] END_REQSTACK()
```

### Event 65534

#### Metadata

| Field        | Value   |
|--------------|---------|
| Entrypoint   | 0x0001  |
| Data Size    | 1 bytes |
| Instructions | 1       |

```
      00 01 02 03 04 05 06 07  08 09 0A 0B 0C 0D 0E 0F
      -- -- -- -- -- -- -- --  -- -- -- -- -- -- -- --
0000:    00                                              .              
```

#### Opcodes

```
  0: 0x0001 [0x00] END_REQSTACK()
```

### Event 65535.1

#### Metadata

| Field        | Value    |
|--------------|----------|
| Entrypoint   | 0x0002   |
| Data Size    | 16 bytes |
| Instructions | 4        |

```
      00 01 02 03 04 05 06 07  08 09 0A 0B 0C 0D 0E 0F
      -- -- -- -- -- -- -- --  -- -- -- -- -- -- -- --
0000:       33 00 B6 00 00 80  37 01 80 02 80 03 80 04    3.....7.......
0010: 80 00                                             ..              
```

#### Opcodes

```
  0: 0x0002 [0x33] EventEntity->Render.Flags0 &= ~ 0x200000 // Bit 21 (flag=0x00)
  1: 0x0004 [0xB6] ENTITY_APPEARANCE_HANDLER(case=Hair style, value=66*)
  2: 0x0008 [0x37] UPDATE_EVENT_POSITION_AND_DIR: x=5.050*, z=-17.410*, y=1.500*, direction=112.5°*
  3: 0x0011 [0x00] END_REQSTACK()
```

### Event 65535.2

#### Metadata

| Field        | Value    |
|--------------|----------|
| Entrypoint   | 0x0012   |
| Data Size    | 16 bytes |
| Instructions | 4        |

```
      00 01 02 03 04 05 06 07  08 09 0A 0B 0C 0D 0E 0F
      -- -- -- -- -- -- -- --  -- -- -- -- -- -- -- --
0010:       33 00 B6 00 05 80  37 06 80 07 80 08 80 09    3.....7.......
0020: 80 00                                             ..              
```

#### Opcodes

```
  0: 0x0012 [0x33] EventEntity->Render.Flags0 &= ~ 0x200000 // Bit 21 (flag=0x00)
  1: 0x0014 [0xB6] ENTITY_APPEARANCE_HANDLER(case=Hair style, value=72*)
  2: 0x0018 [0x37] UPDATE_EVENT_POSITION_AND_DIR: x=11.730*, z=-12.520*, y=0.850*, direction=45.0°*
  3: 0x0021 [0x00] END_REQSTACK()
```

### Event 65535.3

#### Metadata

| Field        | Value    |
|--------------|----------|
| Entrypoint   | 0x0022   |
| Data Size    | 16 bytes |
| Instructions | 4        |

```
      00 01 02 03 04 05 06 07  08 09 0A 0B 0C 0D 0E 0F
      -- -- -- -- -- -- -- --  -- -- -- -- -- -- -- --
0020:       33 01 B6 00 0A 80  37 0B 80 0C 80 0D 80 0E    3.....7.......
0030: 80 00                                             ..              
```

#### Opcodes

```
  0: 0x0022 [0x33] EventEntity->Render.Flags0 |= 0x200000 // Bit 21 (flag=0x01)
  1: 0x0024 [0xB6] ENTITY_APPEARANCE_HANDLER(case=Hair style, value=74*)
  2: 0x0028 [0x37] UPDATE_EVENT_POSITION_AND_DIR: x=-3.180*, z=9.290*, y=0.180*, direction=225.0°*
  3: 0x0031 [0x00] END_REQSTACK()
```
