# 17924179 - KANI02

## Common Data

| Field            | Value                |
|------------------|----------------------|
| Zone             | Mog Garden (ID: 280) |
| Block Size       | 524 bytes            |
| Total Events     | 13                   |
| References Count | 47                   |

## List of Events

| Event ID                   | Entrypoint   |   Size |   Instructions |
|----------------------------|--------------|--------|----------------|
| [65535](#event-65535)      | 0x0000       |      1 |              1 |
| [2006](#event-2006)        | 0x0001       |      1 |              1 |
| [65535.1](#event-655351)   | 0x0002       |     14 |              4 |
| [65535.2](#event-655352)   | 0x0010       |     14 |              4 |
| [65535.3](#event-655353)   | 0x001E       |     76 |             17 |
| [65535.4](#event-655354)   | 0x006A       |     14 |              4 |
| [2045](#event-2045)        | 0x0078       |      1 |              1 |
| [65535.5](#event-655355)   | 0x0079       |     10 |              2 |
| [65535.6](#event-655356)   | 0x0083       |     44 |             10 |
| [65535.7](#event-655357)   | 0x00AF       |     12 |              3 |
| [65535.8](#event-655358)   | 0x00BB       |     33 |              8 |
| [65535.9](#event-655359)   | 0x00DC       |     30 |              5 |
| [65535.10](#event-6553510) | 0x00FA       |     18 |              6 |

## DAT References (imed_data)

|   Index | Hex Value   |   Dec Value |
|---------|-------------|-------------|
|       0 | 0x065E      |        1630 |
|       1 | 0xFFFF7D09  |  4294933769 |
|       2 | 0x0BBC      |        3004 |
|       3 | 0x0C46      |        3142 |
|       4 | 0x0028      |          40 |
|       5 | 0xFFFFF57A  |  4294964602 |
|       6 | 0xFFFFB625  |  4294948389 |
|       7 | 0x05DB      |        1499 |
|       8 | 0xFFFFFB4D  |  4294966093 |
|       9 | 0xFFFFBFB1  |  4294950833 |
|      10 | 0x08D1      |        2257 |
|      11 | 0xFFFFBA37  |  4294949431 |
|      12 | 0x05F2      |        1522 |
|      13 | 0xFFFFAB0C  |  4294945548 |
|      14 | 0xFFFFF3D9  |  4294964185 |
|      15 | 0xFFFFB2CB  |  4294947531 |
|      16 | 0xFFFFEB49  |  4294961993 |
|      17 | 0xFFFFB988  |  4294949256 |
|      18 | 0xFFFFE507  |  4294960391 |
|      19 | 0xFFFFAE3D  |  4294946365 |
|      20 | 0x0806      |        2054 |
|      21 | 0xFFFFA3CD  |  4294943693 |
|      22 | 0xFFFFB091  |  4294946961 |
|      23 | 0x6026      |       24614 |
|      24 | 0xFFFFE74C  |  4294960972 |
|      25 | 0x0EA1      |        3745 |
|      26 | 0xFFFFB7F5  |  4294948853 |
|      27 | 0x55D2      |       21970 |
|      28 | 0xFFFFEAE1  |  4294961889 |
|      29 | 0xFFFFBFD4  |  4294950868 |
|      30 | 0x4BF0      |       19440 |
|      31 | 0xFFFFED86  |  4294962566 |
|      32 | 0xFFFFCA00  |  4294953472 |
|      33 | 0x420A      |       16906 |
|      34 | 0xFFFFFF2D  |  4294967085 |
|      35 | 0xFFFFE02C  |  4294959148 |
|      36 | 0x25DC      |        9692 |
|      37 | 0x0198      |         408 |
|      38 | 0x0D02      |        3330 |
|      39 | 0xFFFFE0CA  |  4294959306 |
|      40 | 0x1CE1      |        7393 |
|      41 | 0x01F2      |         498 |
|      42 | 0x0000      |           0 |
|      43 | 0x003C      |          60 |
|      44 | 0xFFFFCCC0  |  4294954176 |
|      45 | 0x3D1F      |       15647 |
|      46 | 0xFFFFFF9C  |  4294967196 |

## Events

### Event 65535

#### Metadata

| Field        | Value   |
|--------------|---------|
| Entrypoint   | 0x0000  |
| Data Size    | 1 bytes |
| Instructions | 1       |

```
      00 01 02 03 04 05 06 07  08 09 0A 0B 0C 0D 0E 0F
      -- -- -- -- -- -- -- --  -- -- -- -- -- -- -- --
0000: 00                                                .               
```

#### Opcodes

```
  0: 0x0000 [0x00] END_REQSTACK()
```

### Event 2006

#### Metadata

| Field        | Value   |
|--------------|---------|
| Entrypoint   | 0x0001  |
| Data Size    | 1 bytes |
| Instructions | 1       |

```
      00 01 02 03 04 05 06 07  08 09 0A 0B 0C 0D 0E 0F
      -- -- -- -- -- -- -- --  -- -- -- -- -- -- -- --
0000:    00                                              .              
```

#### Opcodes

```
  0: 0x0001 [0x00] END_REQSTACK()
```

### Event 65535.1

#### Metadata

| Field        | Value    |
|--------------|----------|
| Entrypoint   | 0x0002   |
| Data Size    | 14 bytes |
| Instructions | 4        |

```
      00 01 02 03 04 05 06 07  08 09 0A 0B 0C 0D 0E 0F
      -- -- -- -- -- -- -- --  -- -- -- -- -- -- -- --
0000:       33 01 37 00 80 01  80 02 80 03 80 33 01 00    3.7........3..
```

#### Opcodes

```
  0: 0x0002 [0x33] EventEntity->Render.Flags0 |= 0x200000 // Bit 21 (flag=0x01)
  1: 0x0004 [0x37] UPDATE_EVENT_POSITION_AND_DIR: x=1.630*, z=-33.527*, y=3.004*, direction=276.1°*
  2: 0x000D [0x33] EventEntity->Render.Flags0 |= 0x200000 // Bit 21 (flag=0x01)
  3: 0x000F [0x00] END_REQSTACK()
```

### Event 65535.2

#### Metadata

| Field        | Value    |
|--------------|----------|
| Entrypoint   | 0x0010   |
| Data Size    | 14 bytes |
| Instructions | 4        |

```
      00 01 02 03 04 05 06 07  08 09 0A 0B 0C 0D 0E 0F
      -- -- -- -- -- -- -- --  -- -- -- -- -- -- -- --
0010: 2F 00 F8 FF FF 7F 22 00  80 F8 FF FF 7F 00        /.....".......  
```

#### Opcodes

```
  0: 0x0010 [0x2F] EventEntity->Render.Flags0 &= ~0x80000 // Bit 19
  1: 0x0016 [0x22] ENTITY_HIDE_FLAG(enabled=0x00)
  2: 0x0018 [0x80] LOAD_WAIT(entity=EventEntity)
  3: 0x001D [0x00] END_REQSTACK()
```

### Event 65535.3

#### Metadata

| Field        | Value    |
|--------------|----------|
| Entrypoint   | 0x001E   |
| Data Size    | 76 bytes |
| Instructions | 17       |

```
      00 01 02 03 04 05 06 07  08 09 0A 0B 0C 0D 0E 0F
      -- -- -- -- -- -- -- --  -- -- -- -- -- -- -- --
0010:                                            32 04                2.
0020: 80 1F 00 05 80 06 80 07  80 1F 01 1F 00 08 80 09  ................
0030: 80 07 80 1F 01 1F 00 0A  80 0B 80 07 80 1F 01 1F  ................
0040: 00 0C 80 0D 80 07 80 1F  01 1F 00 0E 80 0F 80 07  ................
0050: 80 1F 01 1F 00 10 80 11  80 07 80 1F 01 1F 00 12  ................
0060: 80 13 80 07 80 1F 01 22  01 00                    ......."..      
```

#### Opcodes

```
  0: 0x001E [0x32] ExtData[1]->MainSpeed = 40* * 0.1
  1: 0x0021 [0x1F] MOVE_ENTITY: EventEntity moves to X=-2.694*, Z=-18.907*, Y=1.499*
  2: 0x0029 [0x1F] MOVE_ENTITY: Update entity position (mode=1)
  3: 0x002B [0x1F] MOVE_ENTITY: EventEntity moves to X=-1.203*, Z=-16.463*, Y=1.499*
  4: 0x0033 [0x1F] MOVE_ENTITY: Update entity position (mode=1)
  5: 0x0035 [0x1F] MOVE_ENTITY: EventEntity moves to X=2.257*, Z=-17.865*, Y=1.499*
  6: 0x003D [0x1F] MOVE_ENTITY: Update entity position (mode=1)
  7: 0x003F [0x1F] MOVE_ENTITY: EventEntity moves to X=1.522*, Z=-21.748*, Y=1.499*
  8: 0x0047 [0x1F] MOVE_ENTITY: Update entity position (mode=1)
  9: 0x0049 [0x1F] MOVE_ENTITY: EventEntity moves to X=-3.111*, Z=-19.765*, Y=1.499*
 10: 0x0051 [0x1F] MOVE_ENTITY: Update entity position (mode=1)
 11: 0x0053 [0x1F] MOVE_ENTITY: EventEntity moves to X=-5.303*, Z=-18.040*, Y=1.499*
 12: 0x005B [0x1F] MOVE_ENTITY: Update entity position (mode=1)
 13: 0x005D [0x1F] MOVE_ENTITY: EventEntity moves to X=-6.905*, Z=-20.931*, Y=1.499*
 14: 0x0065 [0x1F] MOVE_ENTITY: Update entity position (mode=1)
 15: 0x0067 [0x22] ENTITY_HIDE_FLAG(enabled=0x01)
 16: 0x0069 [0x00] END_REQSTACK()
```

### Event 65535.4

#### Metadata

| Field        | Value    |
|--------------|----------|
| Entrypoint   | 0x006A   |
| Data Size    | 14 bytes |
| Instructions | 4        |

```
      00 01 02 03 04 05 06 07  08 09 0A 0B 0C 0D 0E 0F
      -- -- -- -- -- -- -- --  -- -- -- -- -- -- -- --
0060:                                32 04 80 5A 00 14            2..Z..
0070: 80 15 80 07 80 5A 01 00                           .....Z..        
```

#### Opcodes

```
  0: 0x006A [0x32] ExtData[1]->MainSpeed = 40* * 0.1
  1: 0x006D [0x5A] UPDATE_EVENT_POSITION: Set EventEntity MovePosition to X=2.054*, Z=-23.603*, Y=1.499*
  2: 0x0075 [0x5A] UPDATE_EVENT_POSITION: Move EventEntity incrementally towards MovePosition
  3: 0x0077 [0x00] END_REQSTACK()
```

### Event 2045

#### Metadata

| Field        | Value   |
|--------------|---------|
| Entrypoint   | 0x0078  |
| Data Size    | 1 bytes |
| Instructions | 1       |

```
      00 01 02 03 04 05 06 07  08 09 0A 0B 0C 0D 0E 0F
      -- -- -- -- -- -- -- --  -- -- -- -- -- -- -- --
0070:                          00                               .       
```

#### Opcodes

```
  0: 0x0078 [0x00] END_REQSTACK()
```

### Event 65535.5

#### Metadata

| Field        | Value    |
|--------------|----------|
| Entrypoint   | 0x0079   |
| Data Size    | 10 bytes |
| Instructions | 2        |

```
      00 01 02 03 04 05 06 07  08 09 0A 0B 0C 0D 0E 0F
      -- -- -- -- -- -- -- --  -- -- -- -- -- -- -- --
0070:                             37 16 80 17 80 18 80           7......
0080: 19 80 00                                          ...             
```

#### Opcodes

```
  0: 0x0079 [0x37] UPDATE_EVENT_POSITION_AND_DIR: x=-20.335*, z=24.614*, y=-6.324*, direction=329.1°*
  1: 0x0082 [0x00] END_REQSTACK()
```

### Event 65535.6

#### Metadata

| Field        | Value    |
|--------------|----------|
| Entrypoint   | 0x0083   |
| Data Size    | 44 bytes |
| Instructions | 10       |

```
      00 01 02 03 04 05 06 07  08 09 0A 0B 0C 0D 0E 0F
      -- -- -- -- -- -- -- --  -- -- -- -- -- -- -- --
0080:          32 04 80 5A 00  1A 80 1B 80 1C 80 5A 01     2..Z.......Z.
0090: 5A 00 1D 80 1E 80 1F 80  5A 01 5A 00 20 80 21 80  Z.......Z.Z. .!.
00A0: 22 80 5A 01 1F 00 23 80  24 80 25 80 1F 01 00     ".Z...#.$.%.... 
```

#### Opcodes

```
  0: 0x0083 [0x32] ExtData[1]->MainSpeed = 40* * 0.1
  1: 0x0086 [0x5A] UPDATE_EVENT_POSITION: Set EventEntity MovePosition to X=-18.443*, Z=21.970*, Y=-5.407*
  2: 0x008E [0x5A] UPDATE_EVENT_POSITION: Move EventEntity incrementally towards MovePosition
  3: 0x0090 [0x5A] UPDATE_EVENT_POSITION: Set EventEntity MovePosition to X=-16.428*, Z=19.440*, Y=-4.730*
  4: 0x0098 [0x5A] UPDATE_EVENT_POSITION: Move EventEntity incrementally towards MovePosition
  5: 0x009A [0x5A] UPDATE_EVENT_POSITION: Set EventEntity MovePosition to X=-13.824*, Z=16.906*, Y=-0.211*
  6: 0x00A2 [0x5A] UPDATE_EVENT_POSITION: Move EventEntity incrementally towards MovePosition
  7: 0x00A4 [0x1F] MOVE_ENTITY: EventEntity moves to X=-8.148*, Z=9.692*, Y=0.408*
  8: 0x00AC [0x1F] MOVE_ENTITY: Update entity position (mode=1)
  9: 0x00AE [0x00] END_REQSTACK()
```

### Event 65535.7

#### Metadata

| Field        | Value    |
|--------------|----------|
| Entrypoint   | 0x00AF   |
| Data Size    | 12 bytes |
| Instructions | 3        |

```
      00 01 02 03 04 05 06 07  08 09 0A 0B 0C 0D 0E 0F
      -- -- -- -- -- -- -- --  -- -- -- -- -- -- -- --
00A0:                                               33                 3
00B0: 00 37 23 80 24 80 25 80  26 80 00                 .7#.$.%.&..     
```

#### Opcodes

```
  0: 0x00AF [0x33] EventEntity->Render.Flags0 &= ~ 0x200000 // Bit 21 (flag=0x00)
  1: 0x00B1 [0x37] UPDATE_EVENT_POSITION_AND_DIR: x=-8.148*, z=9.692*, y=0.408*, direction=292.7°*
  2: 0x00BA [0x00] END_REQSTACK()
```

### Event 65535.8

#### Metadata

| Field        | Value    |
|--------------|----------|
| Entrypoint   | 0x00BB   |
| Data Size    | 33 bytes |
| Instructions | 8        |

```
      00 01 02 03 04 05 06 07  08 09 0A 0B 0C 0D 0E 0F
      -- -- -- -- -- -- -- --  -- -- -- -- -- -- -- --
00B0:                                   32 04 80 1F 00             2....
00C0: 27 80 28 80 29 80 1F 01  1E 5B 80 11 01 6F 70 C4  '.(.)....[...op.
00D0: 01 2A 80 F8 FF FF 7F 5B  80 11 01 00              .*.....[....    
```

#### Opcodes

```
  0: 0x00BB [0x32] ExtData[1]->MainSpeed = 40* * 0.1
  1: 0x00BE [0x1F] MOVE_ENTITY: EventEntity moves to X=-7.990*, Z=7.393*, Y=0.498*
  2: 0x00C6 [0x1F] MOVE_ENTITY: Update entity position (mode=1)
  3: 0x00C8 [0x1E] EventEntity looks at Chacharoon (ID: 17924187/0x0111805B) and starts talking
  4: 0x00CD [0x6F] WAIT_FRAME_DELAY: Yield until WaitTime reaches zero
  5: 0x00CE [0x70] WAIT_ENTITY_RENDER_FLAG: Wait while EventEntity->Render.Flags3 bit 2 is set (cancel turn if not)
  6: 0x00CF [0xC4] SCHEDULE_MAGIC_CASTING_ALT (arg=17): EventEntity casts magic 0* on Chacharoon (ID: 17924187/0x0111805B)
  7: 0x00DB [0x00] END_REQSTACK()
```

### Event 65535.9

#### Metadata

| Field        | Value    |
|--------------|----------|
| Entrypoint   | 0x00DC   |
| Data Size    | 30 bytes |
| Instructions | 5        |

```
      00 01 02 03 04 05 06 07  08 09 0A 0B 0C 0D 0E 0F
      -- -- -- -- -- -- -- --  -- -- -- -- -- -- -- --
00D0:                                      33 00 C4 01              3...
00E0: 2A 80 F8 FF FF 7F 5B 80  11 01 1C 2B 80 C4 01 2A  *.....[....+...*
00F0: 80 F8 FF FF 7F 5B 80 11  01 00                    .....[....      
```

#### Opcodes

```
  0: 0x00DC [0x33] EventEntity->Render.Flags0 &= ~ 0x200000 // Bit 21 (flag=0x00)
  1: 0x00DE [0xC4] SCHEDULE_MAGIC_CASTING_ALT (arg=17): EventEntity casts magic 0* on Chacharoon (ID: 17924187/0x0111805B)
  2: 0x00EA [0x1C] WAIT(60* ticks)
  3: 0x00ED [0xC4] SCHEDULE_MAGIC_CASTING_ALT (arg=17): EventEntity casts magic 0* on Chacharoon (ID: 17924187/0x0111805B)
  4: 0x00F9 [0x00] END_REQSTACK()
```

### Event 65535.10

#### Metadata

| Field        | Value    |
|--------------|----------|
| Entrypoint   | 0x00FA   |
| Data Size    | 18 bytes |
| Instructions | 6        |

```
      00 01 02 03 04 05 06 07  08 09 0A 0B 0C 0D 0E 0F
      -- -- -- -- -- -- -- --  -- -- -- -- -- -- -- --
00F0:                                33 00 32 04 80 5A            3.2..Z
0100: 00 2C 80 2D 80 2E 80 5A  01 22 01 00              .,.-...Z."..    
```

#### Opcodes

```
  0: 0x00FA [0x33] EventEntity->Render.Flags0 &= ~ 0x200000 // Bit 21 (flag=0x00)
  1: 0x00FC [0x32] ExtData[1]->MainSpeed = 40* * 0.1
  2: 0x00FF [0x5A] UPDATE_EVENT_POSITION: Set EventEntity MovePosition to X=-13.120*, Z=15.647*, Y=-0.100*
  3: 0x0107 [0x5A] UPDATE_EVENT_POSITION: Move EventEntity incrementally towards MovePosition
  4: 0x0109 [0x22] ENTITY_HIDE_FLAG(enabled=0x01)
  5: 0x010B [0x00] END_REQSTACK()
```
