# 17924234 - Breeding Monster01

## Common Data

| Field            | Value                |
|------------------|----------------------|
| Zone             | Mog Garden (ID: 280) |
| Block Size       | 10412 bytes          |
| Total Events     | 7                    |
| References Count | 113                  |

## List of Events

| Event ID                 | Entrypoint   |   Size |   Instructions |
|--------------------------|--------------|--------|----------------|
| [65535](#event-65535)    | 0x0000       |      1 |              1 |
| [65534](#event-65534)    | 0x0001       |      1 |              1 |
| [1077](#event-1077)      | 0x0002       |      4 |              2 |
| [1082](#event-1082)      | 0x0006       |      4 |              2 |
| [65535.1](#event-655351) | 0x000A       |   3584 |            581 |
| [2050](#event-2050)      | 0x0E0A       |      1 |              1 |
| [2051](#event-2051)      | 0x0E0B       |   6320 |           1073 |

## DAT References (imed_data)

|   Index | Hex Value   |   Dec Value |
|---------|-------------|-------------|
|       0 | 0x0000      |           0 |
|       1 | 0x0006      |           6 |
|       2 | 0x0010      |          16 |
|       3 | 0x001F      |          31 |
|       4 | 0x0008      |           8 |
|       5 | 0x000F      |          15 |
|       6 | 0x0B62      |        2914 |
|       7 | 0x0004      |           4 |
|       8 | 0x0001      |           1 |
|       9 | 0x0155      |         341 |
|      10 | 0x0B64      |        2916 |
|      11 | 0x0121      |         289 |
|      12 | 0x000A      |          10 |
|      13 | 0x00ED      |         237 |
|      14 | 0x00C8      |         200 |
|      15 | 0x0013      |          19 |
|      16 | 0xFFFFCEB1  |  4294954673 |
|      17 | 0x2F8A      |       12170 |
|      18 | 0x009C      |         156 |
|      19 | 0x0369      |         873 |
|      20 | 0x56288     |      352904 |
|      21 | 0xFFF791BD  |  4294414781 |
|      22 | 0xFFFFF351  |  4294964049 |
|      23 | 0x0F73      |        3955 |
|      24 | 0x57E5F     |      360031 |
|      25 | 0xFFF79C9A  |  4294417562 |
|      26 | 0xFFFFF3F1  |  4294964209 |
|      27 | 0x0785      |        1925 |
|      28 | 0x0002      |           2 |
|      29 | 0x0003      |           3 |
|      30 | 0x02B2      |         690 |
|      31 | 0x221A      |        8730 |
|      32 | 0x000D      |          13 |
|      33 | 0x221B      |        8731 |
|      34 | 0x221C      |        8732 |
|      35 | 0x221D      |        8733 |
|      36 | 0x221E      |        8734 |
|      37 | 0x221F      |        8735 |
|      38 | 0x2220      |        8736 |
|      39 | 0x1D22      |        7458 |
|      40 | 0x21E6      |        8678 |
|      41 | 0x21E7      |        8679 |
|      42 | 0x0DEE      |        3566 |
|      43 | 0x21E8      |        8680 |
|      44 | 0x000C      |          12 |
|      45 | 0x00EC      |         236 |
|      46 | 0x2222      |        8738 |
|      47 | 0x21FF      |        8703 |
|      48 | 0x001E      |          30 |
|      49 | 0x222C      |        8748 |
|      50 | 0x222D      |        8749 |
|      51 | 0x003C      |          60 |
|      52 | 0x222E      |        8750 |
|      53 | 0x0032      |          50 |
|      54 | 0x2206      |        8710 |
|      55 | 0x2205      |        8709 |
|      56 | 0x2204      |        8708 |
|      57 | 0x00EB      |         235 |
|      58 | 0x2203      |        8707 |
|      59 | 0x2202      |        8706 |
|      60 | 0x220B      |        8715 |
|      61 | 0x220A      |        8714 |
|      62 | 0x2209      |        8713 |
|      63 | 0x2208      |        8712 |
|      64 | 0x2207      |        8711 |
|      65 | 0x220D      |        8717 |
|      66 | 0x220E      |        8718 |
|      67 | 0x220F      |        8719 |
|      68 | 0x2210      |        8720 |
|      69 | 0x2211      |        8721 |
|      70 | 0x2212      |        8722 |
|      71 | 0x2213      |        8723 |
|      72 | 0xFFFFFFFF  |  4294967295 |
|      73 | 0x2218      |        8728 |
|      74 | 0x2219      |        8729 |
|      75 | 0x000B      |          11 |
|      76 | 0x2214      |        8724 |
|      77 | 0x2215      |        8725 |
|      78 | 0x2217      |        8727 |
|      79 | 0x2216      |        8726 |
|      80 | 0x0007      |           7 |
|      81 | 0x0017      |          23 |
|      82 | 0x0018      |          24 |
|      83 | 0x0012      |          18 |
|      84 | 0x0014      |          20 |
|      85 | 0x2223      |        8739 |
|      86 | 0x2228      |        8744 |
|      87 | 0x2229      |        8745 |
|      88 | 0x1DB4      |        7604 |
|      89 | 0x110E      |        4366 |
|      90 | 0x2224      |        8740 |
|      91 | 0x001A      |          26 |
|      92 | 0x001B      |          27 |
|      93 | 0x001C      |          28 |
|      94 | 0x0005      |           5 |
|      95 | 0x0015      |          21 |
|      96 | 0x0016      |          22 |
|      97 | 0x0019      |          25 |
|      98 | 0x0009      |           9 |
|      99 | 0x0011      |          17 |
|     100 | 0x000E      |          14 |
|     101 | 0x001D      |          29 |
|     102 | 0x0063      |          99 |
|     103 | 0x0049      |          73 |
|     104 | 0xFFFFF62B  |  4294964779 |
|     105 | 0xFFFFEC34  |  4294962228 |
|     106 | 0x01C4      |         452 |
|     107 | 0x0CF5      |        3317 |
|     108 | 0x0048      |          72 |
|     109 | 0x582C8     |      361160 |
|     110 | 0xFFF788EE  |  4294412526 |
|     111 | 0xFFFFF2F4  |  4294963956 |
|     112 | 0x064D      |        1613 |

## String References

- **7604**: What a terrific time to test tag utility, kupo!
- **8678**: By putting %0 down, you will personally end its life. While there will be no physical repercussion for doing such, are you willing to have that on your conscience?
- **8679**: Put the creature down? [Yes, I have no reservations./No, not yet!]
- **8703**: What will you do? [Nothing./See how the critter's doing./Interact with the beast./Give the creature a name./Collect items.]
- **8706**: %0's practically bursting with joy!
- **8707**: %0's in an obviously good mood.
- **8708**: %0 looks calm and collected.
- **8709**: %0 seems to be pouting slightly.
- **8710**: %0 looks like it wants absolutely nothing to do with anyone.
- **8711**: [However,/However,/Moreover,/Moreover,/Moreover,] it couldn't be more content with its life.
- **8712**: [However,/However,/Moreover,/Moreover,/Moreover,] it seems to be duly satisfied with its lot in life.
- **8713**: [Moreover,/Moreover,/However,/However,/However,] it exudes a slight aura of discontent.
- **8714**: [Moreover,/Moreover,/However,/However,/However,] it is clearly unhappy with the way things are.
- **8715**: [Moreover,/Moreover,/However,/However,/However,] it seems thoroughly depressed about the abysmal conditions under which it lives.
- **8717**: Current growth level: [EEE/$25EE/$26EE/$26$25E/$26$26E/$26$26$25/$26$26$26/$26$26$26].
- **8718**: How will you interact? [Do nothing./Pet it./Poke it./Slap it./Yell loudly at it./Get angry at it.]
- **8719**: %0 stares off into the distance as if you're not even there.
- **8720**: %0 is visibly angry with what you just did.
- **8721**: That didn't go over too well with %0.
- **8722**: That was surprisingly not worthless in the eyes of %0!
- **8723**: That strongly resonated with %0!
- **8724**: Please bestow a name of 15 letters or fewer upon your creature. Taking no action will annul the process.
- **8725**: Is %0 fine? [Yes./No, I'll pick a new one./No, I quit.]
- **8728**: Try to collect items from your beloved beastie?
- **8729**: Proceed? [Yes, that sounds wonderful./No, I won't take any chances.]
- **8731**: %0's heart is shrouded in darkness, turning the creature against you! Leaving %0 in this state could spell doom for your garden.
- **8732**: Whatever will you do!? [Not a thing./Hope moogle magic does the trick./Put the creature down.]
- **8733**: This entails having the Green Thumb Moogle employ the power of shining stars to cast an incantation on the creature, thus calming it.
- **8734**: Use moogle magic? (On hand: $26 x $0) [Yes.i$26 x $1)/No.]
- **8736**: The darkness no longer dwells within %0's heart.
- **8738**: %0's face beams with the light of pure contentment! There is nothing that can foul %0's mood right now, including gathering items from it.
- **8739**: You gave %0 $1.
- **8740**: Perhaps it would be best to give %0 $1.
- **8744**: %0 squirms uncontrollably.
- **8745**: %0 shudders violently.
- **8748**: Creature type: [/Lamb/Sheep/Karakul/Sapling/Green Foliage Treat/Red Foliage Treant/Baby Rabbit/Rabbit/White Rabbit/Baby Lizard/Lizard/Alabaster Lizard/Ram/Baby Cockatrice/Cockatrice/Ziz/Baby Raptor/Raptor/Red Raptor/Baby Eft/Eft/Tarichuk/Dhalmel Calf/Dhalmel/Great Dhalmel/Sea Monk Larva/Sea Monk/Blue Sea Monk/Uragnite Youngling].
- **8749**: Creature Type: [Uragnite/Limascabra/Immature Crab/Crab/Porter Crab/Baby Colibri/Colibri/Toucalibri/Coeurl Cub/Coeurl/Lynx/Buffalo Calf/Buffalo/Mini Slime/Slime/Clot/Hecteyes/Tiny Bugard/Bugard/Abyssobugard/Baby Adamantoise/Adamantoise/Great Adamantoise/White Adamantoise/Ferromantoise/Great Ferromantoise/Cluster/Bomb/Djinn/Snoll].
- **8750**: Creature type: [Behemoth Cub/Behemoth/King Behemoth/Elasmoth/Skormoth/Dragon Hatchling/Wyvern/Blue Wyvern/Green Wyvern/Abyssal Wyrm/Lunar Wyrm/Blazing Wyrm/Pequetender/Sabotender/Jumbotender/Mandragora Sproutling/Mandragora/Elder Mandragora/Lycopodium/Korrigan/Pachypodium/Adenium/Elder Adenium/Ake-Ome/Citrullus].

## Events

### Event 65535

#### Metadata

| Field        | Value   |
|--------------|---------|
| Entrypoint   | 0x0000  |
| Data Size    | 1 bytes |
| Instructions | 1       |

```
      00 01 02 03 04 05 06 07  08 09 0A 0B 0C 0D 0E 0F
      -- -- -- -- -- -- -- --  -- -- -- -- -- -- -- --
0000: 00                                                .               
```

#### Opcodes

```
  0: 0x0000 [0x00] END_REQSTACK()
```

### Event 65534

#### Metadata

| Field        | Value   |
|--------------|---------|
| Entrypoint   | 0x0001  |
| Data Size    | 1 bytes |
| Instructions | 1       |

```
      00 01 02 03 04 05 06 07  08 09 0A 0B 0C 0D 0E 0F
      -- -- -- -- -- -- -- --  -- -- -- -- -- -- -- --
0000:    00                                              .              
```

#### Opcodes

```
  0: 0x0001 [0x00] END_REQSTACK()
```

### Event 1077

#### Metadata

| Field        | Value   |
|--------------|---------|
| Entrypoint   | 0x0002  |
| Data Size    | 4 bytes |
| Instructions | 1       |

```
      00 01 02 03 04 05 06 07  08 09 0A 0B 0C 0D 0E 0F
      -- -- -- -- -- -- -- --  -- -- -- -- -- -- -- --
0000:       01 D8 00 00                                   ....          
```

#### Opcodes

```
  0: 0x0002 [0x01] GOTO 0x00D8
```

#### Data or dead code:

```
# Dead code (unreachable instructions):
     0x0005 [0x00] END_REQSTACK()
```

### Event 1082

#### Metadata

| Field        | Value   |
|--------------|---------|
| Entrypoint   | 0x0006  |
| Data Size    | 4 bytes |
| Instructions | 1       |

```
      00 01 02 03 04 05 06 07  08 09 0A 0B 0C 0D 0E 0F
      -- -- -- -- -- -- -- --  -- -- -- -- -- -- -- --
0000:                   01 13  0D 00                          ....      
```

#### Opcodes

```
  0: 0x0006 [0x01] GOTO 0x0D13
```

#### Data or dead code:

```
# Dead code (unreachable instructions):
     0x0009 [0x00] END_REQSTACK()
```

### Event 65535.1

#### Metadata

| Field        | Value      |
|--------------|------------|
| Entrypoint   | 0x000A     |
| Data Size    | 3584 bytes |
| Instructions | 33         |

```
      00 01 02 03 04 05 06 07  08 09 0A 0B 0C 0D 0E 0F
      -- -- -- -- -- -- -- --  -- -- -- -- -- -- -- --
0000:                                AC 04 8A 80 11 01            ......
0010: 00 80 3E 01 11 01 80 D5  00 41 02 80 03 80 0B 11  ..>......A......
0020: 00 00 41 04 80 05 80 0A  11 01 00 B6 00 00 00 B6  ..A.............
0030: 0F 01 00 80 F8 FF FF 7F  02 00 00 06 80 00 49 00  ..............I.
0040: 95 07 80 1C 08 80 01 83  00 02 00 00 09 80 00 5A  ...............Z
0050: 00 95 07 80 1C 08 80 01  83 00 02 00 00 0A 80 00  ................
0060: 6B 00 95 07 80 1C 08 80  01 83 00 02 00 00 0B 80  k...............
0070: 00 83 00 2C F8 FF FF 7F  F8 FF FF 7F 6B 69 6C 6C  ...,........kill
0080: 1C 01 80 22 00 1C 08 80  3E 01 11 0C 80 B2 00 CD  ..."....>.......
0090: 0D 80 F8 FF FF 7F F8 FF  FF 7F 6F 6E 6D 79 00 80  ..........onmy..
00A0: CE 0D 80 F8 FF FF 7F F8  FF FF 7F 6F 6E 6D 79 01  ...........onmy.
00B0: D2 00 CD 0D 80 F8 FF FF  7F F8 FF FF 7F 6B 6C 6D  .............klm
00C0: 79 00 80 CE 0D 80 F8 FF  FF 7F F8 FF FF 7F 6B 6C  y.............kl
00D0: 6D 79 01 D7 00 22 01 00  03 0B 00 05 10 03 0D 00  my..."..........
00E0: 06 10 1A B8 0C 1E F0 FF  FF 7F 06 10 00 03 0F 00  ................
00F0: 08 80 02 0F 00 00 80 02  DD 0B 3E 06 00 00 80 9D  ..........>.....
0100: 07 42 46 01 45 0E 80 F0  FF FF 7F F0 FF FF 7F 66  .BF.E..........f
0110: 64 6F 31 00 80 55 0E 80  F0 FF FF 7F F0 FF FF 7F  do1..U..........
0120: 66 64 6F 31 38 0F 80 2F  00 5B 80 11 01 4E 00 5B  fdo18../.[...N.[
0130: 80 11 01 02 08 80 00 80  00 55 01 29 08 F0 FF FF  .........U.)....
0140: 7F 23 37 10 80 11 80 12  80 13 80 29 08 5B 80 11  .#7........).[..
0150: 01 21 01 79 01 29 08 F0  FF FF 7F 24 37 14 80 15  .!.y.).....$7...
0160: 80 16 80 17 80 BA 1D 80  11 01 18 80 19 80 1A 80  ................
0170: 1B 80 29 08 5B 80 11 01  23 80 5B 80 11 01 CD 0D  ..).[...#.[.....
0180: 80 F8 FF FF 7F F8 FF FF  7F 6F 6E 6D 79 00 80 02  .........onmy...
0190: 08 80 00 80 00 A0 01 4E  01 87 80 11 01 01 A6 01  .......N........
01A0: 4E 01 88 80 11 01 4A 5B  80 11 01 F8 FF FF 7F 4A  N.....J[.......J
01B0: F8 FF FF 7F F0 FF FF 7F  4A 1D 80 11 01 F8 FF FF  ........J.......
01C0: 7F 6F 76 F8 FF FF 7F 6F  76 1D 80 11 01 6F 76 5B  .ov....ov....ov[
01D0: 80 11 01 92 01 5B 80 11  01 92 01 1D 80 11 01 92  .....[..........
01E0: 01 F8 FF FF 7F 02 08 80  00 80 00 F0 01 01 B2 02  ................
01F0: 92 01 89 80 11 01 92 01  8A 80 11 01 92 01 8B 80  ................
0200: 11 01 92 01 8C 80 11 01  92 01 8D 80 11 01 02 08  ................
0210: 80 00 80 00 37 02 92 01  89 80 11 01 92 01 8D 80  ....7...........
0220: 11 01 4E 01 8A 80 11 01  4E 01 8B 80 11 01 4E 01  ..N.....N.....N.
0230: 8C 80 11 01 01 B2 02 02  08 80 08 80 00 60 02 92  .............`..
0240: 01 8A 80 11 01 4E 01 8B  80 11 01 4E 01 8C 80 11  .....N.....N....
0250: 01 4E 01 8D 80 11 01 4E  01 89 80 11 01 01 B2 02  .N.....N........
0260: 02 08 80 1C 80 00 89 02  92 01 8B 80 11 01 4E 01  ..............N.
0270: 8C 80 11 01 4E 01 8D 80  11 01 4E 01 89 80 11 01  ....N.....N.....
0280: 4E 01 8A 80 11 01 01 B2  02 02 08 80 1D 80 00 B2  N...............
0290: 02 92 01 8C 80 11 01 4E  01 8A 80 11 01 4E 01 8B  .......N.....N..
02A0: 80 11 01 4E 01 8D 80 11  01 4E 01 89 80 11 01 01  ...N.....N......
02B0: B2 02 29 08 1D 80 11 01  49 02 08 80 00 80 00 D5  ..).....I.......
02C0: 02 45 1E 80 F0 FF FF 7F  F0 FF FF 7F 73 31 30 33  .E..........s103
02D0: 00 80 01 E6 02 45 1E 80  F0 FF FF 7F F0 FF FF 7F  .....E..........
02E0: 73 30 33 38 00 80 45 0E  80 F0 FF FF 7F F0 FF FF  s038..E.........
02F0: 7F 66 64 69 31 00 80 55  0E 80 F0 FF FF 7F F0 FF  .fdi1..U........
0300: FF 7F 66 64 69 31 2B 1D  80 11 01 1F 80 23 02 08  ..fdi1+......#..
0310: 80 00 80 00 28 03 52 1E  80 F0 FF FF 7F F0 FF FF  ....(.R.........
0320: 7F 73 31 30 33 01 37 03  52 1E 80 F0 FF FF 7F F0  .s103.7.R.......
0330: FF FF 7F 73 30 33 38 02  08 80 00 80 00 6E 03 3E  ...s038......n.>
0340: 01 11 20 80 5A 03 45 1E  80 F0 FF FF 7F F0 FF FF  .. .Z.E.........
0350: 7F 73 31 30 34 00 80 01  6B 03 45 1E 80 F0 FF FF  .s104...k.E.....
0360: 7F F0 FF FF 7F 73 31 30  35 00 80 01 9A 03 3E 01  .....s105.....>.
0370: 11 20 80 89 03 45 1E 80  F0 FF FF 7F F0 FF FF 7F  . ...E..........
0380: 73 30 33 37 00 80 01 9A  03 45 1E 80 F0 FF FF 7F  s037.....E......
0390: F0 FF FF 7F 73 30 33 36  00 80 48 21 80 23 29 08  ....s036..H!.#).
03A0: 1D 80 11 01 4A 02 08 80  00 80 00 D8 03 3E 01 11  ....J........>..
03B0: 20 80 C6 03 52 1E 80 F0  FF FF 7F F0 FF FF 7F 73   ...R..........s
03C0: 31 30 34 01 D5 03 52 1E  80 F0 FF FF 7F F0 FF FF  104...R.........
03D0: 7F 73 31 30 35 01 00 04  3E 01 11 20 80 F1 03 52  .s105...>.. ...R
03E0: 1E 80 F0 FF FF 7F F0 FF  FF 7F 73 30 33 37 01 00  ..........s037..
03F0: 04 52 1E 80 F0 FF FF 7F  F0 FF FF 7F 73 30 33 36  .R..........s036
0400: 0B 0F 00 02 0F 00 08 80  02 9A 07 24 22 80 00 80  ...........$"...
0410: 00 80 25 02 00 10 00 80  00 82 04 45 0E 80 F0 FF  ..%........E....
0420: FF 7F F0 FF FF 7F 66 64  6F 31 00 80 55 0E 80 F0  ......fdo1..U...
0430: FF FF 7F F0 FF FF 7F 66  64 6F 31 4E 00 89 80 11  .......fdo1N....
0440: 01 4E 00 8A 80 11 01 4E  00 8B 80 11 01 4E 00 8C  .N.....N.....N..
0450: 80 11 01 4E 00 8D 80 11  01 1A EB 16 1A 94 16 1A  ...N............
0460: A2 16 1A B0 16 1A BE 16  46 00 45 0E 80 F0 FF FF  ........F.E.....
0470: 7F F0 FF FF 7F 66 64 69  31 00 80 21 06 0F 00 01  .....fdi1..!....
0480: 97 07 02 00 10 08 80 00  01 06 29 08 1D 80 11 01  ..........).....
0490: 6A 48 23 80 23 03 02 10  0B 00 03 03 10 0C 00 07  jH#.#...........
04A0: 03 10 08 80 02 03 10 0C  80 02 B1 04 03 03 10 0C  ................
04B0: 80 24 24 80 08 80 00 80  25 29 08 1D 80 11 01 6B  .$$.....%).....k
04C0: 02 00 10 00 80 00 F3 05  06 01 10 40 04 80 05 80  ...........@....
04D0: 01 10 20 80 43 00 43 01  02 09 10 00 80 00 E8 05  .. .C.C.........
04E0: 02 08 80 00 80 00 FC 04  45 1E 80 F0 FF FF 7F F0  ........E.......
04F0: FF FF 7F 73 31 30 32 00  80 01 0D 05 45 1E 80 F0  ...s102.....E...
0500: FF FF 7F F0 FF FF 7F 73  30 33 39 00 80 29 08 1D  .......s039..)..
0510: 80 11 01 6C 2B 1D 80 11  01 25 80 23 29 08 1D 80  ...l+....%.#)...
0520: 11 01 6D 02 08 80 00 80  00 3D 05 52 1E 80 F0 FF  ..m......=.R....
0530: FF 7F F0 FF FF 7F 73 31  30 32 01 4C 05 52 1E 80  ......s102.L.R..
0540: F0 FF FF 7F F0 FF FF 7F  73 30 33 39 CD 0D 80 F8  ........s039....
0550: FF FF 7F F8 FF FF 7F 6F  66 6D 79 00 80 45 0E 80  .......ofmy..E..
0560: F0 FF FF 7F F0 FF FF 7F  66 64 6F 31 00 80 55 0E  ........fdo1..U.
0570: 80 F0 FF FF 7F F0 FF FF  7F 66 64 6F 31 52 1E 80  .........fdo1R..
0580: F0 FF FF 7F F0 FF FF 7F  73 31 30 32 4E 00 89 80  ........s102N...
0590: 11 01 4E 00 8A 80 11 01  4E 00 8B 80 11 01 4E 00  ..N.....N.....N.
05A0: 8C 80 11 01 4E 00 8D 80  11 01 CD 0D 80 F8 FF FF  ....N...........
05B0: 7F F8 FF FF 7F 6B 6C 6D  79 00 80 48 26 80 23 1A  .....klmy..H&.#.
05C0: EB 16 1A 94 16 1A A2 16  1A B0 16 1A BE 16 46 00  ..............F.
05D0: 45 0E 80 F0 FF FF 7F F0  FF FF 7F 66 64 69 31 00  E..........fdi1.
05E0: 80 20 00 21 00 01 F0 05  2B 1D 80 11 01 27 80 23  . .!....+....'.#
05F0: 01 FE 05 02 00 10 08 80  00 FE 05 01 FE 05 01 97  ................
0600: 07 02 00 10 1C 80 00 97  07 48 28 80 23 24 29 80  .........H(.#$).
0610: 08 80 00 80 25 02 00 10  00 80 00 89 07 02 08 80  ....%...........
0620: 00 80 00 54 06 3E 01 11  20 80 40 06 45 1E 80 F0  ...T.>.. .@.E...
0630: FF FF 7F F0 FF FF 7F 73  31 30 34 00 80 01 51 06  .......s104...Q.
0640: 45 1E 80 F0 FF FF 7F F0  FF FF 7F 73 31 30 35 00  E..........s105.
0650: 80 01 80 06 3E 01 11 20  80 6F 06 45 1E 80 F0 FF  ....>.. .o.E....
0660: FF 7F F0 FF FF 7F 73 30  33 37 00 80 01 80 06 45  ......s037.....E
0670: 1E 80 F0 FF FF 7F F0 FF  FF 7F 73 30 33 36 00 80  ..........s036..
0680: 7B 5B 80 11 01 5B 2A 80  5B 80 11 01 5B 80 11 01  {[...[*.[...[...
0690: 68 65 64 30 2B 5B 80 11  01 2B 80 23 45 0E 80 F0  hed0+[...+.#E...
06A0: FF FF 7F F0 FF FF 7F 66  64 6F 31 00 80 55 0E 80  .......fdo1..U..
06B0: F0 FF FF 7F F0 FF FF 7F  66 64 6F 31 CD 0D 80 F8  ........fdo1....
06C0: FF FF 7F F8 FF FF 7F 6B  6C 6D 79 00 80 02 08 80  .......klmy.....
06D0: 00 80 00 00 07 3E 01 11  20 80 EE 06 52 1E 80 F0  .....>.. ...R...
06E0: FF FF 7F F0 FF FF 7F 73  31 30 34 01 FD 06 52 1E  .......s104...R.
06F0: 80 F0 FF FF 7F F0 FF FF  7F 73 31 30 35 01 28 07  .........s105.(.
0700: 3E 01 11 20 80 19 07 52  1E 80 F0 FF FF 7F F0 FF  >.. ...R........
0710: FF 7F 73 30 33 37 01 28  07 52 1E 80 F0 FF FF 7F  ..s037.(.R......
0720: F0 FF FF 7F 73 30 33 36  53 5B 80 11 01 5B 80 11  ....s036S[...[..
0730: 01 68 65 64 30 5B 2A 80  5B 80 11 01 5B 80 11 01  .hed0[*.[...[...
0740: 68 65 64 31 4E 01 5B 80  11 01 2F 01 5B 80 11 01  hed1N.[.../.[...
0750: 06 01 10 40 04 80 05 80  01 10 2C 80 43 00 43 01  ...@......,.C.C.
0760: 1A EB 16 1A 94 16 1A A2  16 1A B0 16 1A BE 16 46  ...............F
0770: 00 45 0E 80 F0 FF FF 7F  F0 FF FF 7F 66 64 69 31  .E..........fdi1
0780: 00 80 20 00 21 00 01 94  07 02 00 10 08 80 00 94  .. .!...........
0790: 07 01 94 07 01 97 07 01  03 04 01 DA 0B 3E 06 00  .............>..
07A0: 08 80 EB 07 3E 10 00 00  80 AE 07 01 EB 07 42 CD  ....>.........B.
07B0: 2D 80 F8 FF FF 7F F8 FF  FF 7F 6F 6E 6F 6E 00 80  -.........onon..
07C0: 48 2E 80 23 3C 10 00 00  80 08 80 CE 2D 80 F8 FF  H..#<.......-...
07D0: FF 7F F8 FF FF 7F 6F 6E  6F 6E CD 2D 80 F8 FF FF  ......onon.-....
07E0: 7F F8 FF FF 7F 6F 66 6F  6E 00 80 2E 0E 11 00 0D  .....ofon.......
07F0: 00 3E 10 00 08 80 FF 07  3C 11 00 1C 80 08 80 3E  .>......<......>
0800: 10 00 1C 80 0D 08 3C 11  00 1D 80 08 80 24 2F 80  ......<......$/.
0810: 00 80 11 00 25 02 00 10  00 80 00 23 08 06 0F 00  ....%......#....
0820: 01 DA 0B 02 00 10 08 80  00 E7 09 03 03 10 03 00  ................
0830: 15 03 10 30 80 02 03 10  00 80 80 49 08 03 03 10  ...0.......I....
0840: 03 00 48 31 80 23 01 7B  08 02 03 10 08 80 80 62  ..H1.#.{.......b
0850: 08 03 03 10 03 00 08 03  10 30 80 48 32 80 23 01  .........0.H2.#.
0860: 7B 08 02 03 10 1C 80 80  7B 08 03 03 10 03 00 08  {.......{.......
0870: 03 10 33 80 48 34 80 23  01 7B 08 03 0E 00 05 00  ..3.H4.#.{......
0880: 15 0E 00 35 80 02 0E 00  00 80 03 93 08 06 0E 00  ...5............
0890: 01 A0 08 02 0E 00 07 80  02 A0 08 03 0E 00 07 80  ................
08A0: 42 02 0E 00 00 80 80 E1  08 CD 0D 80 F8 FF FF 7F  B...............
08B0: F8 FF FF 7F 6F 6E 6D 79  00 80 48 36 80 23 CE 0D  ....onmy..H6.#..
08C0: 80 F8 FF FF 7F F8 FF FF  7F 6F 6E 6D 79 CD 0D 80  .........onmy...
08D0: F8 FF FF 7F F8 FF FF 7F  6F 66 6D 79 00 80 01 62  ........ofmy...b
08E0: 09 02 0E 00 08 80 80 F0  08 48 37 80 23 01 62 09  .........H7.#.b.
08F0: 02 0E 00 1C 80 80 FF 08  48 38 80 23 01 62 09 02  ........H8.#.b..
0900: 0E 00 1D 80 80 1F 09 CD  39 80 F8 FF FF 7F F8 FF  ........9.......
0910: FF 7F 6D 61 69 6E 00 80  48 3A 80 23 01 62 09 02  ..main..H:.#.b..
0920: 0E 00 07 80 80 62 09 CD  2D 80 F8 FF FF 7F F8 FF  .....b..-.......
0930: FF 7F 6F 6E 6F 6E 00 80  48 3B 80 23 CE 2D 80 F8  ..onon..H;.#.-..
0940: FF FF 7F F8 FF FF 7F 6F  6E 6F 6E CD 2D 80 F8 FF  .......onon.-...
0950: FF 7F F8 FF FF 7F 6F 66  6F 6E 00 80 1C 08 80 01  ......ofon......
0960: 62 09 2E 03 02 10 0E 00  03 0E 00 04 00 15 0E 00  b...............
0970: 35 80 02 0E 00 00 80 03  80 09 06 0E 00 01 8D 09  5...............
0980: 02 0E 00 07 80 02 8D 09  03 0E 00 07 80 02 0E 00  ................
0990: 00 80 80 9C 09 48 3C 80  23 01 D8 09 02 0E 00 08  .....H<.#.......
09A0: 80 80 AB 09 48 3D 80 23  01 D8 09 02 0E 00 1C 80  ....H=.#........
09B0: 80 BA 09 48 3E 80 23 01  D8 09 02 0E 00 1D 80 80  ...H>.#.........
09C0: C9 09 48 3F 80 23 01 D8  09 02 0E 00 07 80 80 D8  ..H?.#..........
09D0: 09 48 40 80 23 01 D8 09  03 02 10 09 00 48 41 80  .H@.#........HA.
09E0: 23 06 0F 00 01 DA 0B 02  00 10 1C 80 00 06 0B 24  #..............$
09F0: 42 80 00 80 00 80 25 02  00 10 00 80 00 02 0A 01  B.....%.........
0A00: 02 0A 02 00 10 00 80 01  03 0B 42 06 01 10 40 04  ..........B...@.
0A10: 80 05 80 01 10 0C 80 40  02 80 03 80 01 10 00 10  .......@........
0A20: 43 00 43 01 02 02 10 00  80 80 33 0A 48 43 80 23  C.C.......3.HC.#
0A30: 01 F4 0A 02 02 10 08 80  80 73 0A CD 0D 80 F8 FF  .........s......
0A40: FF 7F F8 FF FF 7F 6F 6E  6D 79 00 80 48 44 80 23  ......onmy..HD.#
0A50: CE 0D 80 F8 FF FF 7F F8  FF FF 7F 6F 6E 6D 79 CD  ...........onmy.
0A60: 0D 80 F8 FF FF 7F F8 FF  FF 7F 6F 66 6D 79 00 80  ..........ofmy..
0A70: 01 F4 0A 02 02 10 1C 80  80 82 0A 48 45 80 23 01  ...........HE.#.
0A80: F4 0A 02 02 10 1D 80 80  A2 0A CD 39 80 F8 FF FF  ...........9....
0A90: 7F F8 FF FF 7F 6D 61 69  6E 00 80 48 46 80 23 01  .....main..HF.#.
0AA0: F4 0A 02 02 10 07 80 80  E5 0A CD 2D 80 F8 FF FF  ...........-....
0AB0: 7F F8 FF FF 7F 6F 6E 6F  6E 00 80 48 47 80 23 CE  .....onon..HG.#.
0AC0: 2D 80 F8 FF FF 7F F8 FF  FF 7F 6F 6E 6F 6E CD 2D  -.........onon.-
0AD0: 80 F8 FF FF 7F F8 FF FF  7F 6F 66 6F 6E 00 80 1C  .........ofon...
0AE0: 08 80 01 F4 0A 02 02 10  48 80 80 F4 0A 48 43 80  ........H....HC.
0AF0: 23 01 F4 0A 02 09 10 00  80 01 FC 0A 2E 06 0F 00  #...............
0B00: 01 03 0B 01 DA 0B 02 00  10 1D 80 00 14 0B 1A DF  ................
0B10: 0B 01 DA 0B 02 00 10 07  80 00 DA 0B 48 49 80 23  ............HI.#
0B20: 24 4A 80 00 80 00 80 25  02 00 10 00 80 00 CC 0B  $J.....%........
0B30: 42 06 01 10 40 04 80 05  80 01 10 4B 80 43 00 43  B...@......K.C.C
0B40: 01 02 02 10 00 80 80 81  0B CD 0D 80 F8 FF FF 7F  ................
0B50: F8 FF FF 7F 6F 6E 6D 79  00 80 48 45 80 23 CE 0D  ....onmy..HE.#..
0B60: 80 F8 FF FF 7F F8 FF FF  7F 6F 6E 6D 79 CD 0D 80  .........onmy...
0B70: F8 FF FF 7F F8 FF FF 7F  6F 66 6D 79 00 80 01 C5  ........ofmy....
0B80: 0B 02 02 10 08 80 80 90  0B 48 43 80 23 01 C5 0B  .........HC.#...
0B90: CD 0D 80 F8 FF FF 7F F8  FF FF 7F 6F 6E 6D 79 00  ...........onmy.
0BA0: 80 48 44 80 23 CE 0D 80  F8 FF FF 7F F8 FF FF 7F  .HD.#...........
0BB0: 6F 6E 6D 79 CD 0D 80 F8  FF FF 7F F8 FF FF 7F 6F  onmy...........o
0BC0: 66 6D 79 00 80 2E 06 0F  00 01 D7 0B 02 00 10 08  fmy.............
0BD0: 80 00 D7 0B 01 D7 0B 01  DA 0B 01 F2 00 21 00 B4  .............!..
0BE0: 01 16 00 00 80 0B 0F 00  02 0F 00 08 80 02 B7 0C  ................
0BF0: 48 4C 80 71 32 1C 80 05  80 71 31 12 00 9D 08 12  HL.q2....q1.....
0C00: 00 01 00 00 00 00 00 00  00 00 00 00 00 00 00 00  ................
0C10: 00 00 AB 0C B4 04 12 00  00 80 24 4D 80 00 80 00  ..........$M....
0C20: 80 25 02 00 10 00 80 00  83 0C 42 71 03 02 10 02  .%........Bq....
0C30: 02 10 00 80 00 71 0C 71  01 02 02 10 00 80 00 60  .....q.q.......`
0C40: 0C CD 39 80 F8 FF FF 7F  F8 FF FF 7F 6D 61 69 6E  ..9.........main
0C50: 00 80 2B 87 80 11 01 4E  80 23 0C 0F 00 01 6E 0C  ..+....N.#....n.
0C60: 2B 87 80 11 01 4F 80 23  B4 04 16 00 00 80 01 7F  +....O.#........
0C70: 0C 2B 87 80 11 01 4F 80  23 B4 04 16 00 00 80 2E  .+....O.#.......
0C80: 01 A8 0C 02 00 10 08 80  00 94 0C B4 04 16 00 00  ................
0C90: 80 01 A8 0C 02 00 10 1C  80 00 A8 0C B4 04 16 00  ................
0CA0: 00 80 0C 0F 00 01 A8 0C  01 B4 0C B4 04 16 00 00  ................
0CB0: 80 0C 0F 00 01 E8 0B 1B  41 00 80 03 80 02 10 02  ........A.......
0CC0: 00 41 00 80 50 80 03 10  03 00 41 04 80 05 80 03  .A..P.....A.....
0CD0: 10 04 00 41 02 80 51 80  03 10 05 00 41 52 80 03  ...A..Q.....AR..
0CE0: 80 03 10 06 00 41 00 80  50 80 04 10 07 00 41 04  .....A..P.....A.
0CF0: 80 05 80 04 10 08 00 41  02 80 53 80 04 10 09 00  .......A..S.....
0D00: 41 0F 80 0F 80 04 10 0A  00 41 54 80 51 80 04 10  A........AT.Q...
0D10: 0C 00 1B 42 1E F0 FF FF  7F 48 55 80 23 02 02 10  ...B.....HU.#...
0D20: 00 80 80 2C 0D 48 43 80  23 01 ED 0D 02 02 10 08  ...,.HC.#.......
0D30: 80 80 6C 0D CD 0D 80 F8  FF FF 7F F8 FF FF 7F 6F  ..l............o
0D40: 6E 6D 79 00 80 48 44 80  23 CE 0D 80 F8 FF FF 7F  nmy..HD.#.......
0D50: F8 FF FF 7F 6F 6E 6D 79  CD 0D 80 F8 FF FF 7F F8  ....onmy........
0D60: FF FF 7F 6F 66 6D 79 00  80 01 ED 0D 02 02 10 1C  ...ofmy.........
0D70: 80 80 7B 0D 48 45 80 23  01 ED 0D 02 02 10 1D 80  ..{.HE.#........
0D80: 80 9B 0D CD 39 80 F8 FF  FF 7F F8 FF FF 7F 6D 61  ....9.........ma
0D90: 69 6E 00 80 48 46 80 23  01 ED 0D 02 02 10 07 80  in..HF.#........
0DA0: 80 DE 0D CD 2D 80 F8 FF  FF 7F F8 FF FF 7F 6F 6E  ....-.........on
0DB0: 6F 6E 00 80 48 47 80 23  CE 2D 80 F8 FF FF 7F F8  on..HG.#.-......
0DC0: FF FF 7F 6F 6E 6F 6E CD  2D 80 F8 FF FF 7F F8 FF  ...onon.-.......
0DD0: FF 7F 6F 66 6F 6E 00 80  1C 08 80 01 ED 0D 02 02  ..ofon..........
0DE0: 10 48 80 80 ED 0D 48 43  80 23 01 ED 0D 02 04 10  .H....HC.#......
0DF0: 08 80 00 FC 0D 48 56 80  23 01 08 0E 02 04 10 1C  .....HV.#.......
0E00: 80 00 08 0E 48 57 80 23  21 00                    ....HW.#!.      
```

#### Opcodes

```
  0: 0x000A [0xAC] Breeding Monster01 (ID: 17924234/0x0111808A)->Render.Flags7 = 0*
  1: 0x0012 [0x3E] IF !(Work_Zone_Memorize[1] bit 6*) GOTO 0x00D5
  2: 0x0019 [0x41] ExtData[1]->WorkLocal[0] = Work_Zone_Memorize[11] (bits 16*-31*)
  3: 0x0022 [0x41] ExtData[1]->WorkLocal[1] = Work_Zone_Memorize[10] (bits 8*-15*)
  4: 0x002B [0xB6] ENTITY_APPEARANCE_HANDLER(case=Hair style, value=ExtData[1]->WorkLocal[0])
  5: 0x002F [0xB6] ENTITY_APPEARANCE_HANDLER(case=Model size, value=ExtData[1]->WorkLocal[1])
  6: 0x0033 [0x80] LOAD_WAIT(entity=EventEntity)
  7: 0x0038 [0x02] IF !(ExtData[1]->WorkLocal[0] == 2914*) GOTO 0x0049
  8: 0x0040 [0x95] SETUP_EVENT_NPC: Prepare NPC for event (Render.Flags3 = 4*)
  9: 0x0043 [0x1C] WAIT(1* ticks)
 10: 0x0046 [0x01] GOTO 0x0083
 11: 0x0049 [0x02] IF !(ExtData[1]->WorkLocal[0] == 341*) GOTO 0x005A
 12: 0x0051 [0x95] SETUP_EVENT_NPC: Prepare NPC for event (Render.Flags3 = 4*)
 13: 0x0054 [0x1C] WAIT(1* ticks)
 14: 0x0057 [0x01] GOTO 0x0083
 15: 0x005A [0x02] IF !(ExtData[1]->WorkLocal[0] == 2916*) GOTO 0x006B
 16: 0x0062 [0x95] SETUP_EVENT_NPC: Prepare NPC for event (Render.Flags3 = 4*)
 17: 0x0065 [0x1C] WAIT(1* ticks)
 18: 0x0068 [0x01] GOTO 0x0083
 19: 0x006B [0x02] IF !(ExtData[1]->WorkLocal[0] == 289*) GOTO 0x0083
 20: 0x0073 [0x2C] CREATE_SCHEDULER_TASK: Create scheduler "kill" with entities [EventEntity, EventEntity]
 21: 0x0080 [0x1C] WAIT(6* ticks)

SUBROUTINE_0083:
 22: 0x0083 [0x22] ENTITY_HIDE_FLAG(enabled=0x00)
 23: 0x0085 [0x1C] WAIT(1* ticks)
 24: 0x0088 [0x3E] IF !(Work_Zone_Memorize[1] bit 10*) GOTO 0x00B2
 25: 0x008F [0xCD] LOAD_SCHEDULED_TASK_ALT4: Load scheduler "onmy" with entities [EventEntity, EventEntity], work=[237*, 0*]
 26: 0x00A0 [0xCE] WAIT_LOAD_SCHEDULER_ALT4: Wait for scheduler "onmy" with entities [EventEntity, EventEntity], work=237*
 27: 0x00AF [0x01] GOTO 0x00D2
 28: 0x00B2 [0xCD] LOAD_SCHEDULED_TASK_ALT4: Load scheduler "klmy" with entities [EventEntity, EventEntity], work=[237*, 0*]
 29: 0x00C3 [0xCE] WAIT_LOAD_SCHEDULER_ALT4: Wait for scheduler "klmy" with entities [EventEntity, EventEntity], work=237*

SUBROUTINE_00D2:
 30: 0x00D2 [0x01] GOTO 0x00D7
 31: 0x00D5 [0x22] ENTITY_HIDE_FLAG(enabled=0x01)

SUBROUTINE_00D7:
 32: 0x00D7 [0x00] END_REQSTACK()
```

#### Data or dead code:

```
# Dead code (unreachable instructions):
     0x00D8 [0x03] ExtData[1]->WorkLocal[11] = Work_Zone[5]
     0x00DD [0x03] ExtData[1]->WorkLocal[13] = Work_Zone[6]
     0x00E2 [0x1A] CALL_SUBROUTINE(address=0x0CB8)
     0x00E5 [0x1E] EventEntity looks at LocalPlayer and starts talking
     0x00EA [0x06] ExtData[1]->WorkLocal[16] = 0
     0x00ED [0x03] ExtData[1]->WorkLocal[15] = 1*
     0x00F2 [0x02] IF !(ExtData[1]->WorkLocal[15] <= 0*) GOTO 0x0BDD
     0x00FA [0x3E] IF !(ExtData[1]->WorkLocal[6] bit 0*) GOTO 0x079D
     0x0101 [0x42] SET_CLI_EVENT_CANCEL_DATA()
     0x0102 [0x46] CAMERA_CONTROL: Disable user control
     0x0104 [0x45] LOAD_SCHEDULED_TASK: Load scheduler "fdo1" with entities [LocalPlayer, LocalPlayer], work=[200*, 0*]
     0x0115 [0x55] WAIT_LOAD_SCHEDULER: Wait for scheduler "fdo1" with entities [LocalPlayer, LocalPlayer], work=200*
     0x0124 [0x38] SET_CLIENT_EVENT_MODE(mode=19*)
     0x0127 [0x2F] Chacharoon (ID: 17924187/0x0111805B)->Render.Flags0 &= ~0x80000 // Bit 19
     0x012D [0x4E] SET_ENTITY_HIDE_FLAG: Show Chacharoon (ID: 17924187/0x0111805B)
     0x0133 [0x02] IF !(1* == 0*) GOTO 0x0155
     0x013B [0x29] REQ_SET_WAIT(priority=0x08, entity_id=LocalPlayer, tag_num=0x23)
     0x0142 [0x37] UPDATE_EVENT_POSITION_AND_DIR: x=-12.623*, z=12.170*, y=0.156*, direction=76.7°*
     0x014B [0x29] REQ_SET_WAIT(priority=0x08, entity_id=Chacharoon (ID: 17924187/0x0111805B), tag_num=0x21)
     0x0152 [0x01] GOTO 0x0179
     0x0155 [0x29] REQ_SET_WAIT(priority=0x08, entity_id=LocalPlayer, tag_num=0x24)
     0x015C [0x37] UPDATE_EVENT_POSITION_AND_DIR: x=352.904*, z=-552.515*, y=-3.247*, direction=347.6°*
     0x0165 [0xBA] SET_ENTITY_POSITION(entity_id=Green Thumb Moogle (ID: 17924125/0x0111801D), pos_x=360.031*, pos_z=-549.734*, pos_y=-3.087*, direction=169.2°*)
     0x0172 [0x29] REQ_SET_WAIT(priority=0x08, entity_id=Chacharoon (ID: 17924187/0x0111805B), tag_num=0x23)
     0x0179 [0x80] LOAD_WAIT(entity=Chacharoon (ID: 17924187/0x0111805B))
     0x017E [0xCD] LOAD_SCHEDULED_TASK_ALT4: Load scheduler "onmy" with entities [EventEntity, EventEntity], work=[237*, 0*]
     0x018F [0x02] IF !(1* == 0*) GOTO 0x01A0
     0x0197 [0x4E] SET_ENTITY_HIDE_FLAG: Hide Chacharoon (ID: 17924231/0x01118087)
     0x019D [0x01] GOTO 0x01A6
     0x01A0 [0x4E] SET_ENTITY_HIDE_FLAG: Hide Chacharoon (ID: 17924232/0x01118088)
     0x01A6 [0x4A] Chacharoon (ID: 17924187/0x0111805B) looks at EventEntity
     0x01AF [0x4A] EventEntity looks at LocalPlayer
     0x01B8 [0x4A] Green Thumb Moogle (ID: 17924125/0x0111801D) looks at EventEntity
     0x01C1 [0x6F] WAIT_FRAME_DELAY: Yield until WaitTime reaches zero
     0x01C2 [0x76] CHECK_ENTITY_RENDER_FLAGS: Wait until EventEntity Render.Flags0 and Render.Flags3 conditions are met
     0x01C7 [0x6F] WAIT_FRAME_DELAY: Yield until WaitTime reaches zero
     0x01C8 [0x76] CHECK_ENTITY_RENDER_FLAGS: Wait until Green Thumb Moogle (ID: 17924125/0x0111801D) Render.Flags0 and Render.Flags3 conditions are met
     0x01CD [0x6F] WAIT_FRAME_DELAY: Yield until WaitTime reaches zero
     0x01CE [0x76] CHECK_ENTITY_RENDER_FLAGS: Wait until Chacharoon (ID: 17924187/0x0111805B) Render.Flags0 and Render.Flags3 conditions are met
     0x01D3 [0x92] Chacharoon (ID: 17924187/0x0111805B)->Render.Flags3 ^= 0x01
     0x01D9 [0x92] Green Thumb Moogle (ID: 17924125/0x0111801D)->Render.Flags3 ^= 0x01
     0x01DF [0x92] EventEntity->Render.Flags3 ^= 0x01
     0x01E5 [0x02] IF !(1* == 0*) GOTO 0x01F0
     0x01ED [0x01] GOTO 0x02B2
     0x01F0 [0x92] Breeding Monster (ID: 17924233/0x01118089)->Render.Flags3 ^= 0x01
     0x01F6 [0x92] Breeding Monster01 (ID: 17924234/0x0111808A)->Render.Flags3 ^= 0x01
     0x01FC [0x92] Breeding Monster02 (ID: 17924235/0x0111808B)->Render.Flags3 ^= 0x01
     0x0202 [0x92] Breeding Monster03 (ID: 17924236/0x0111808C)->Render.Flags3 ^= 0x01
     0x0208 [0x92] Breeding Monster00 (ID: 17924237/0x0111808D)->Render.Flags3 ^= 0x01
     0x020E [0x02] IF !(1* == 0*) GOTO 0x0237
     0x0216 [0x92] Breeding Monster (ID: 17924233/0x01118089)->Render.Flags3 ^= 0x01
     0x021C [0x92] Breeding Monster00 (ID: 17924237/0x0111808D)->Render.Flags3 ^= 0x01
     0x0222 [0x4E] SET_ENTITY_HIDE_FLAG: Hide Breeding Monster01 (ID: 17924234/0x0111808A)
     0x0228 [0x4E] SET_ENTITY_HIDE_FLAG: Hide Breeding Monster02 (ID: 17924235/0x0111808B)
     0x022E [0x4E] SET_ENTITY_HIDE_FLAG: Hide Breeding Monster03 (ID: 17924236/0x0111808C)
     0x0234 [0x01] GOTO 0x02B2
     0x0237 [0x02] IF !(1* == 1*) GOTO 0x0260
     0x023F [0x92] Breeding Monster01 (ID: 17924234/0x0111808A)->Render.Flags3 ^= 0x01
     0x0245 [0x4E] SET_ENTITY_HIDE_FLAG: Hide Breeding Monster02 (ID: 17924235/0x0111808B)
     0x024B [0x4E] SET_ENTITY_HIDE_FLAG: Hide Breeding Monster03 (ID: 17924236/0x0111808C)
     0x0251 [0x4E] SET_ENTITY_HIDE_FLAG: Hide Breeding Monster00 (ID: 17924237/0x0111808D)
     0x0257 [0x4E] SET_ENTITY_HIDE_FLAG: Hide Breeding Monster (ID: 17924233/0x01118089)
     0x025D [0x01] GOTO 0x02B2
     0x0260 [0x02] IF !(1* == 2*) GOTO 0x0289
     0x0268 [0x92] Breeding Monster02 (ID: 17924235/0x0111808B)->Render.Flags3 ^= 0x01
     0x026E [0x4E] SET_ENTITY_HIDE_FLAG: Hide Breeding Monster03 (ID: 17924236/0x0111808C)
     0x0274 [0x4E] SET_ENTITY_HIDE_FLAG: Hide Breeding Monster00 (ID: 17924237/0x0111808D)
     0x027A [0x4E] SET_ENTITY_HIDE_FLAG: Hide Breeding Monster (ID: 17924233/0x01118089)
     0x0280 [0x4E] SET_ENTITY_HIDE_FLAG: Hide Breeding Monster01 (ID: 17924234/0x0111808A)
     0x0286 [0x01] GOTO 0x02B2
     0x0289 [0x02] IF !(1* == 3*) GOTO 0x02B2
     0x0291 [0x92] Breeding Monster03 (ID: 17924236/0x0111808C)->Render.Flags3 ^= 0x01
     0x0297 [0x4E] SET_ENTITY_HIDE_FLAG: Hide Breeding Monster01 (ID: 17924234/0x0111808A)
     0x029D [0x4E] SET_ENTITY_HIDE_FLAG: Hide Breeding Monster02 (ID: 17924235/0x0111808B)
     0x02A3 [0x4E] SET_ENTITY_HIDE_FLAG: Hide Breeding Monster00 (ID: 17924237/0x0111808D)
     0x02A9 [0x4E] SET_ENTITY_HIDE_FLAG: Hide Breeding Monster (ID: 17924233/0x01118089)
     0x02AF [0x01] GOTO 0x02B2
     0x02B2 [0x29] REQ_SET_WAIT(priority=0x08, entity_id=Green Thumb Moogle (ID: 17924125/0x0111801D), tag_num=0x49)
     0x02B9 [0x02] IF !(1* == 0*) GOTO 0x02D5
     0x02C1 [0x45] LOAD_SCHEDULED_TASK: Load scheduler "s103" with entities [LocalPlayer, LocalPlayer], work=[690*, 0*]
     0x02D2 [0x01] GOTO 0x02E6
     0x02D5 [0x45] LOAD_SCHEDULED_TASK: Load scheduler "s038" with entities [LocalPlayer, LocalPlayer], work=[690*, 0*]
     0x02E6 [0x45] LOAD_SCHEDULED_TASK: Load scheduler "fdi1" with entities [LocalPlayer, LocalPlayer], work=[200*, 0*]
     0x02F7 [0x55] WAIT_LOAD_SCHEDULER: Wait for scheduler "fdi1" with entities [LocalPlayer, LocalPlayer], work=200*
     0x0306 [0x2B] Green Thumb Moogle (ID: 17924125/0x0111801D) [8730*]:
    → "Pardon my perilous proclamation, but your bestial buddy has become a blight on this backyard of bounties! At this rate, you'll be hard-pressed to have a harvest at all, kupo!"
     0x030D [0x23] WAIT_FOR_DIALOG_INTERACTION
     0x030E [0x02] IF !(1* == 0*) GOTO 0x0328
     0x0316 [0x52] END_LOAD_SCHEDULER: End scheduler "s103" with entities [LocalPlayer, LocalPlayer], work=690*
     0x0325 [0x01] GOTO 0x0337
     0x0328 [0x52] END_LOAD_SCHEDULER: End scheduler "s038" with entities [LocalPlayer, LocalPlayer], work=690*
     0x0337 [0x02] IF !(1* == 0*) GOTO 0x036E
     0x033F [0x3E] IF !(Work_Zone_Memorize[1] bit 13*) GOTO 0x035A
     0x0346 [0x45] LOAD_SCHEDULED_TASK: Load scheduler "s104" with entities [LocalPlayer, LocalPlayer], work=[690*, 0*]
     0x0357 [0x01] GOTO 0x036B
     0x035A [0x45] LOAD_SCHEDULED_TASK: Load scheduler "s105" with entities [LocalPlayer, LocalPlayer], work=[690*, 0*]
     0x036B [0x01] GOTO 0x039A
     0x036E [0x3E] IF !(Work_Zone_Memorize[1] bit 13*) GOTO 0x0389
     0x0375 [0x45] LOAD_SCHEDULED_TASK: Load scheduler "s037" with entities [LocalPlayer, LocalPlayer], work=[690*, 0*]
     0x0386 [0x01] GOTO 0x039A
     0x0389 [0x45] LOAD_SCHEDULED_TASK: Load scheduler "s036" with entities [LocalPlayer, LocalPlayer], work=[690*, 0*]
     0x039A [0x48] [System] [8731*]:
    → "%0's heart is shrouded in darkness, turning the creature against you! Leaving %0 in this state could spell doom for your garden."
     0x039D [0x23] WAIT_FOR_DIALOG_INTERACTION
     0x039E [0x29] REQ_SET_WAIT(priority=0x08, entity_id=Green Thumb Moogle (ID: 17924125/0x0111801D), tag_num=0x4A)
     0x03A5 [0x02] IF !(1* == 0*) GOTO 0x03D8
     0x03AD [0x3E] IF !(Work_Zone_Memorize[1] bit 13*) GOTO 0x03C6
     0x03B4 [0x52] END_LOAD_SCHEDULER: End scheduler "s104" with entities [LocalPlayer, LocalPlayer], work=690*
     0x03C3 [0x01] GOTO 0x03D5
     0x03C6 [0x52] END_LOAD_SCHEDULER: End scheduler "s105" with entities [LocalPlayer, LocalPlayer], work=690*
     0x03D5 [0x01] GOTO 0x0400
     0x03D8 [0x3E] IF !(Work_Zone_Memorize[1] bit 13*) GOTO 0x03F1
     0x03DF [0x52] END_LOAD_SCHEDULER: End scheduler "s037" with entities [LocalPlayer, LocalPlayer], work=690*
     0x03EE [0x01] GOTO 0x0400
     0x03F1 [0x52] END_LOAD_SCHEDULER: End scheduler "s036" with entities [LocalPlayer, LocalPlayer], work=690*
     0x0400 [0x0B] ExtData[1]->WorkLocal[15]++
     0x0403 [0x02] IF !(ExtData[1]->WorkLocal[15] <= 1*) GOTO 0x079A
     0x040B [0x24] CREATE_DIALOG(message_id=8732*, default_option=0*, option_flags=0*)
    → "Whatever will you do!? [Not a thing./Hope moogle magic does the trick./Put the creature down.]"
     0x0412 [0x25] WAIT_DIALOG_SELECT()
     0x0413 [0x02] IF !(Work_Zone[0] == 0*) GOTO 0x0482
     0x041B [0x45] LOAD_SCHEDULED_TASK: Load scheduler "fdo1" with entities [LocalPlayer, LocalPlayer], work=[200*, 0*]
     0x042C [0x55] WAIT_LOAD_SCHEDULER: Wait for scheduler "fdo1" with entities [LocalPlayer, LocalPlayer], work=200*
     0x043B [0x4E] SET_ENTITY_HIDE_FLAG: Show Breeding Monster (ID: 17924233/0x01118089)
     0x0441 [0x4E] SET_ENTITY_HIDE_FLAG: Show Breeding Monster01 (ID: 17924234/0x0111808A)
     0x0447 [0x4E] SET_ENTITY_HIDE_FLAG: Show Breeding Monster02 (ID: 17924235/0x0111808B)
     0x044D [0x4E] SET_ENTITY_HIDE_FLAG: Show Breeding Monster03 (ID: 17924236/0x0111808C)
     0x0453 [0x4E] SET_ENTITY_HIDE_FLAG: Show Breeding Monster00 (ID: 17924237/0x0111808D)
     0x0459 [0x1A] CALL_SUBROUTINE(address=0x16EB)
     0x045C [0x1A] CALL_SUBROUTINE(address=0x1694)
     0x045F [0x1A] CALL_SUBROUTINE(address=0x16A2)
     0x0462 [0x1A] CALL_SUBROUTINE(address=0x16B0)
     0x0465 [0x1A] CALL_SUBROUTINE(address=0x16BE)
     0x0468 [0x46] CAMERA_CONTROL: Restore default settings
     0x046A [0x45] LOAD_SCHEDULED_TASK: Load scheduler "fdi1" with entities [LocalPlayer, LocalPlayer], work=[200*, 0*]
     0x047B [0x21] END_EVENT
     0x047C [0x06] ExtData[1]->WorkLocal[15] = 0
     0x047F [0x01] GOTO 0x0797
     0x0482 [0x02] IF !(Work_Zone[0] == 1*) GOTO 0x0601
     0x048A [0x29] REQ_SET_WAIT(priority=0x08, entity_id=Green Thumb Moogle (ID: 17924125/0x0111801D), tag_num=0x6A)
     0x0491 [0x48] [System] [8733*]:
    → "This entails having the Green Thumb Moogle employ the power of shining stars to cast an incantation on the creature, thus calming it."
     0x0494 [0x23] WAIT_FOR_DIALOG_INTERACTION
     0x0495 [0x03] Work_Zone[2] = ExtData[1]->WorkLocal[11]
     0x049A [0x03] Work_Zone[3] = ExtData[1]->WorkLocal[12]
     0x049F [0x07] Work_Zone[3] += 1*
     0x04A4 [0x02] IF !(Work_Zone[3] <= 10*) GOTO 0x04B1
     0x04AC [0x03] Work_Zone[3] = 10*
     0x04B1 [0x24] CREATE_DIALOG(message_id=8734*, default_option=1*, option_flags=0*)
    → "Use moogle magic? (On hand: $26 x $0) [Yes.i$26 x $1)/No.]"
     0x04B8 [0x25] WAIT_DIALOG_SELECT()
     0x04B9 [0x29] REQ_SET_WAIT(priority=0x08, entity_id=Green Thumb Moogle (ID: 17924125/0x0111801D), tag_num=0x6B)
     0x04C0 [0x02] IF !(Work_Zone[0] == 0*) GOTO 0x05F3
     0x04C8 [0x06] Work_Zone[1] = 0
     0x04CB [0x40] SET_BIT_WORK_RANGE(start_bit=8*, end_bit=15*, target=Work_Zone[1], source=13*)
     0x04D4 [0x43] SEND_EVENT_UPDATE: Send pending tag to server (packet 0x005B)
     0x04D6 [0x43] SEND_EVENT_UPDATE: Check pending flag (skip if not pending)
     0x04D8 [0x02] IF !(Work_Zone[9] == 0*) GOTO 0x05E8
     0x04E0 [0x02] IF !(1* == 0*) GOTO 0x04FC
     0x04E8 [0x45] LOAD_SCHEDULED_TASK: Load scheduler "s102" with entities [LocalPlayer, LocalPlayer], work=[690*, 0*]
     0x04F9 [0x01] GOTO 0x050D
     0x04FC [0x45] LOAD_SCHEDULED_TASK: Load scheduler "s039" with entities [LocalPlayer, LocalPlayer], work=[690*, 0*]
     0x050D [0x29] REQ_SET_WAIT(priority=0x08, entity_id=Green Thumb Moogle (ID: 17924125/0x0111801D), tag_num=0x6C)
     0x0514 [0x2B] Green Thumb Moogle (ID: 17924125/0x0111801D) [8735*]:
    → "Thanks to your terror's temper tantrum, I can't teleport! I can only hope this hex harbors hearty enough healing properties to help herald halcyon happenings, kupo."
     0x051B [0x23] WAIT_FOR_DIALOG_INTERACTION
     0x051C [0x29] REQ_SET_WAIT(priority=0x08, entity_id=Green Thumb Moogle (ID: 17924125/0x0111801D), tag_num=0x6D)
     0x0523 [0x02] IF !(1* == 0*) GOTO 0x053D
     0x052B [0x52] END_LOAD_SCHEDULER: End scheduler "s102" with entities [LocalPlayer, LocalPlayer], work=690*
     0x053A [0x01] GOTO 0x054C
     0x053D [0x52] END_LOAD_SCHEDULER: End scheduler "s039" with entities [LocalPlayer, LocalPlayer], work=690*
     0x054C [0xCD] LOAD_SCHEDULED_TASK_ALT4: Load scheduler "ofmy" with entities [EventEntity, EventEntity], work=[237*, 0*]
     0x055D [0x45] LOAD_SCHEDULED_TASK: Load scheduler "fdo1" with entities [LocalPlayer, LocalPlayer], work=[200*, 0*]
     0x056E [0x55] WAIT_LOAD_SCHEDULER: Wait for scheduler "fdo1" with entities [LocalPlayer, LocalPlayer], work=200*
     0x057D [0x52] END_LOAD_SCHEDULER: End scheduler "s102" with entities [LocalPlayer, LocalPlayer], work=690*
     0x058C [0x4E] SET_ENTITY_HIDE_FLAG: Show Breeding Monster (ID: 17924233/0x01118089)
     0x0592 [0x4E] SET_ENTITY_HIDE_FLAG: Show Breeding Monster01 (ID: 17924234/0x0111808A)
     0x0598 [0x4E] SET_ENTITY_HIDE_FLAG: Show Breeding Monster02 (ID: 17924235/0x0111808B)
     0x059E [0x4E] SET_ENTITY_HIDE_FLAG: Show Breeding Monster03 (ID: 17924236/0x0111808C)
     0x05A4 [0x4E] SET_ENTITY_HIDE_FLAG: Show Breeding Monster00 (ID: 17924237/0x0111808D)
     0x05AA [0xCD] LOAD_SCHEDULED_TASK_ALT4: Load scheduler "klmy" with entities [EventEntity, EventEntity], work=[237*, 0*]
     0x05BB [0x48] [System] [8736*]:
    → "The darkness no longer dwells within %0's heart."
     0x05BE [0x23] WAIT_FOR_DIALOG_INTERACTION
     0x05BF [0x1A] CALL_SUBROUTINE(address=0x16EB)
     0x05C2 [0x1A] CALL_SUBROUTINE(address=0x1694)
     0x05C5 [0x1A] CALL_SUBROUTINE(address=0x16A2)
     0x05C8 [0x1A] CALL_SUBROUTINE(address=0x16B0)
     0x05CB [0x1A] CALL_SUBROUTINE(address=0x16BE)
     0x05CE [0x46] CAMERA_CONTROL: Restore default settings
     0x05D0 [0x45] LOAD_SCHEDULED_TASK: Load scheduler "fdi1" with entities [LocalPlayer, LocalPlayer], work=[200*, 0*]
     0x05E1 [0x20] SET_CLI_EVENT_UC_FLAG: Unlock player control
     0x05E3 [0x21] END_EVENT
     0x05E4 [0x00] END_REQSTACK()
     0x05E5 [0x01] GOTO 0x05F0
     0x05E8 [0x2B] Green Thumb Moogle (ID: 17924125/0x0111801D) [7458*]:
    → "Shucks, it seems you're sans sufficient starshine savings, kupo."
     0x05EF [0x23] WAIT_FOR_DIALOG_INTERACTION
     0x05F0 [0x01] GOTO 0x05FE
     0x05F3 [0x02] IF !(Work_Zone[0] == 1*) GOTO 0x05FE
     0x05FB [0x01] GOTO 0x05FE
     0x05FE [0x01] GOTO 0x0797
     0x0601 [0x02] IF !(Work_Zone[0] == 2*) GOTO 0x0797
     0x0609 [0x48] [System] [8678*]:
    → "By putting %0 down, you will personally end its life. While there will be no physical repercussion for doing such, are you willing to have that on your conscience?"
     0x060C [0x23] WAIT_FOR_DIALOG_INTERACTION
     0x060D [0x24] CREATE_DIALOG(message_id=8679*, default_option=1*, option_flags=0*)
    → "Put the creature down? [Yes, I have no reservations./No, not yet!]"
     0x0614 [0x25] WAIT_DIALOG_SELECT()
     0x0615 [0x02] IF !(Work_Zone[0] == 0*) GOTO 0x0789
     0x061D [0x02] IF !(1* == 0*) GOTO 0x0654
     0x0625 [0x3E] IF !(Work_Zone_Memorize[1] bit 13*) GOTO 0x0640
     0x062C [0x45] LOAD_SCHEDULED_TASK: Load scheduler "s104" with entities [LocalPlayer, LocalPlayer], work=[690*, 0*]
     0x063D [0x01] GOTO 0x0651
     0x0640 [0x45] LOAD_SCHEDULED_TASK: Load scheduler "s105" with entities [LocalPlayer, LocalPlayer], work=[690*, 0*]
     0x0651 [0x01] GOTO 0x0680
     0x0654 [0x3E] IF !(Work_Zone_Memorize[1] bit 13*) GOTO 0x066F
     0x065B [0x45] LOAD_SCHEDULED_TASK: Load scheduler "s037" with entities [LocalPlayer, LocalPlayer], work=[690*, 0*]
     0x066C [0x01] GOTO 0x0680
     0x066F [0x45] LOAD_SCHEDULED_TASK: Load scheduler "s036" with entities [LocalPlayer, LocalPlayer], work=[690*, 0*]
     0x0680 [0x7B] Chacharoon (ID: 17924187/0x0111805B) stops talking
     0x0685 [0x5B] LOAD_EXT_SCHEDULER: Load scheduler "hed0" with entities [Chacharoon (ID: 17924187/0x0111805B), Chacharoon (ID: 17924187/0x0111805B)], work=3566*
     0x0694 [0x2B] Chacharoon (ID: 17924187/0x0111805B) [8680*]:
    → "<Snurk> Chacharoon...will not be forgetting %0...<snurk> ever. Waaaaaah!"
     0x069B [0x23] WAIT_FOR_DIALOG_INTERACTION
     0x069C [0x45] LOAD_SCHEDULED_TASK: Load scheduler "fdo1" with entities [LocalPlayer, LocalPlayer], work=[200*, 0*]
     0x06AD [0x55] WAIT_LOAD_SCHEDULER: Wait for scheduler "fdo1" with entities [LocalPlayer, LocalPlayer], work=200*
     0x06BC [0xCD] LOAD_SCHEDULED_TASK_ALT4: Load scheduler "klmy" with entities [EventEntity, EventEntity], work=[237*, 0*]
     0x06CD [0x02] IF !(1* == 0*) GOTO 0x0700
     0x06D5 [0x3E] IF !(Work_Zone_Memorize[1] bit 13*) GOTO 0x06EE
     0x06DC [0x52] END_LOAD_SCHEDULER: End scheduler "s104" with entities [LocalPlayer, LocalPlayer], work=690*
     0x06EB [0x01] GOTO 0x06FD
     0x06EE [0x52] END_LOAD_SCHEDULER: End scheduler "s105" with entities [LocalPlayer, LocalPlayer], work=690*
     0x06FD [0x01] GOTO 0x0728
     0x0700 [0x3E] IF !(Work_Zone_Memorize[1] bit 13*) GOTO 0x0719
     0x0707 [0x52] END_LOAD_SCHEDULER: End scheduler "s037" with entities [LocalPlayer, LocalPlayer], work=690*
     0x0716 [0x01] GOTO 0x0728
     0x0719 [0x52] END_LOAD_SCHEDULER: End scheduler "s036" with entities [LocalPlayer, LocalPlayer], work=690*
     0x0728 [0x53] WAIT_SCHEDULER_TASK: Wait for scheduler "hed0" with entities [Chacharoon (ID: 17924187/0x0111805B), Chacharoon (ID: 17924187/0x0111805B)]
     0x0735 [0x5B] LOAD_EXT_SCHEDULER: Load scheduler "hed1" with entities [Chacharoon (ID: 17924187/0x0111805B), Chacharoon (ID: 17924187/0x0111805B)], work=3566*
     0x0744 [0x4E] SET_ENTITY_HIDE_FLAG: Hide Chacharoon (ID: 17924187/0x0111805B)
     0x074A [0x2F] Chacharoon (ID: 17924187/0x0111805B)->Render.Flags0 |= 0x80000 // Bit 19
     0x0750 [0x06] Work_Zone[1] = 0
     0x0753 [0x40] SET_BIT_WORK_RANGE(start_bit=8*, end_bit=15*, target=Work_Zone[1], source=12*)
     0x075C [0x43] SEND_EVENT_UPDATE: Send pending tag to server (packet 0x005B)
     0x075E [0x43] SEND_EVENT_UPDATE: Check pending flag (skip if not pending)
     0x0760 [0x1A] CALL_SUBROUTINE(address=0x16EB)
     0x0763 [0x1A] CALL_SUBROUTINE(address=0x1694)
     0x0766 [0x1A] CALL_SUBROUTINE(address=0x16A2)
     0x0769 [0x1A] CALL_SUBROUTINE(address=0x16B0)
     0x076C [0x1A] CALL_SUBROUTINE(address=0x16BE)
     0x076F [0x46] CAMERA_CONTROL: Restore default settings
     0x0771 [0x45] LOAD_SCHEDULED_TASK: Load scheduler "fdi1" with entities [LocalPlayer, LocalPlayer], work=[200*, 0*]
     0x0782 [0x20] SET_CLI_EVENT_UC_FLAG: Unlock player control
     0x0784 [0x21] END_EVENT
     0x0785 [0x00] END_REQSTACK()
     0x0786 [0x01] GOTO 0x0794
     0x0789 [0x02] IF !(Work_Zone[0] == 1*) GOTO 0x0794
     0x0791 [0x01] GOTO 0x0794
     0x0794 [0x01] GOTO 0x0797
     0x0797 [0x01] GOTO 0x0403
     0x079A [0x01] GOTO 0x0BDA
     0x079D [0x3E] IF !(ExtData[1]->WorkLocal[6] bit 1*) GOTO 0x07EB
     0x07A4 [0x3E] IF !(ExtData[1]->WorkLocal[16] bit 0*) GOTO 0x07AE
     0x07AB [0x01] GOTO 0x07EB
     0x07AE [0x42] SET_CLI_EVENT_CANCEL_DATA()
     0x07AF [0xCD] LOAD_SCHEDULED_TASK_ALT4: Load scheduler "onon" with entities [EventEntity, EventEntity], work=[236*, 0*]
     0x07C0 [0x48] [System] [8738*]:
    → "%0's face beams with the light of pure contentment! There is nothing that can foul %0's mood right now, including gathering items from it."
     0x07C3 [0x23] WAIT_FOR_DIALOG_INTERACTION
     0x07C4 [0x3C] SET_BIT_FLAG_CONDITIONAL(target_work_offset=ExtData[1]->WorkLocal[16], bit_index_work_offset=0*, condition_work_offset=1*)
     0x07CB [0xCE] WAIT_LOAD_SCHEDULER_ALT4: Wait for scheduler "onon" with entities [EventEntity, EventEntity], work=236*
     0x07DA [0xCD] LOAD_SCHEDULED_TASK_ALT4: Load scheduler "ofon" with entities [EventEntity, EventEntity], work=[236*, 0*]
     0x07EB [0x2E] SET_CLI_EVENT_CANCEL_FLAGS()
     0x07EC [0x0E] ExtData[1]->WorkLocal[17] |= ExtData[1]->WorkLocal[13]
     0x07F1 [0x3E] IF !(ExtData[1]->WorkLocal[16] bit 1*) GOTO 0x07FF
     0x07F8 [0x3C] SET_BIT_FLAG_CONDITIONAL(target_work_offset=ExtData[1]->WorkLocal[17], bit_index_work_offset=2*, condition_work_offset=1*)
     0x07FF [0x3E] IF !(ExtData[1]->WorkLocal[16] bit 2*) GOTO 0x080D
     0x0806 [0x3C] SET_BIT_FLAG_CONDITIONAL(target_work_offset=ExtData[1]->WorkLocal[17], bit_index_work_offset=3*, condition_work_offset=1*)
     0x080D [0x24] CREATE_DIALOG(message_id=8703*, default_option=0*, option_flags=ExtData[1]->WorkLocal[17])
    → "What will you do? [Nothing./See how the critter's doing./Interact with the beast./Give the creature a name./Collect items.]"
     0x0814 [0x25] WAIT_DIALOG_SELECT()
     0x0815 [0x02] IF !(Work_Zone[0] == 0*) GOTO 0x0823
     0x081D [0x06] ExtData[1]->WorkLocal[15] = 0
     0x0820 [0x01] GOTO 0x0BDA
     0x0823 [0x02] IF !(Work_Zone[0] == 1*) GOTO 0x09E7
     0x082B [0x03] Work_Zone[3] = ExtData[1]->WorkLocal[3]
     0x0830 [0x15] Work_Zone[3] /= 30*
     0x0835 [0x02] IF !(Work_Zone[3] == 0*) GOTO 0x0849
     0x083D [0x03] Work_Zone[3] = ExtData[1]->WorkLocal[3]
     0x0842 [0x48] [System] [8748*]:
    → "Creature type: [/Lamb/Sheep/Karakul/Sapling/Green Foliage Treat/Red Foliage Treant/Baby Rabbit/Rabbit/White Rabbit/Baby Lizard/Lizard/Alabaster Lizard/Ram/Baby Cockatrice/Cockatrice/Ziz/Baby Raptor/Raptor/Red Raptor/Baby Eft/Eft/Tarichuk/Dhalmel Calf/Dhalmel/Great Dhalmel/Sea Monk Larva/Sea Monk/Blue Sea Monk/Uragnite Youngling]."
     0x0845 [0x23] WAIT_FOR_DIALOG_INTERACTION
     0x0846 [0x01] GOTO 0x087B
     0x0849 [0x02] IF !(Work_Zone[3] == 1*) GOTO 0x0862
     0x0851 [0x03] Work_Zone[3] = ExtData[1]->WorkLocal[3]
     0x0856 [0x08] Work_Zone[3] -= 30*
     0x085B [0x48] [System] [8749*]:
    → "Creature Type: [Uragnite/Limascabra/Immature Crab/Crab/Porter Crab/Baby Colibri/Colibri/Toucalibri/Coeurl Cub/Coeurl/Lynx/Buffalo Calf/Buffalo/Mini Slime/Slime/Clot/Hecteyes/Tiny Bugard/Bugard/Abyssobugard/Baby Adamantoise/Adamantoise/Great Adamantoise/White Adamantoise/Ferromantoise/Great Ferromantoise/Cluster/Bomb/Djinn/Snoll]."
     0x085E [0x23] WAIT_FOR_DIALOG_INTERACTION
     0x085F [0x01] GOTO 0x087B
     0x0862 [0x02] IF !(Work_Zone[3] == 2*) GOTO 0x087B
     0x086A [0x03] Work_Zone[3] = ExtData[1]->WorkLocal[3]
     0x086F [0x08] Work_Zone[3] -= 60*
     0x0874 [0x48] [System] [8750*]:
    → "Creature type: [Behemoth Cub/Behemoth/King Behemoth/Elasmoth/Skormoth/Dragon Hatchling/Wyvern/Blue Wyvern/Green Wyvern/Abyssal Wyrm/Lunar Wyrm/Blazing Wyrm/Pequetender/Sabotender/Jumbotender/Mandragora Sproutling/Mandragora/Elder Mandragora/Lycopodium/Korrigan/Pachypodium/Adenium/Elder Adenium/Ake-Ome/Citrullus]."
     0x0877 [0x23] WAIT_FOR_DIALOG_INTERACTION
     0x0878 [0x01] GOTO 0x087B
     0x087B [0x03] ExtData[1]->WorkLocal[14] = ExtData[1]->WorkLocal[5]
     0x0880 [0x15] ExtData[1]->WorkLocal[14] /= 50*
     0x0885 [0x02] IF !(ExtData[1]->WorkLocal[14] >= 0*) GOTO 0x0893
     0x088D [0x06] ExtData[1]->WorkLocal[14] = 0
     0x0890 [0x01] GOTO 0x08A0
     0x0893 [0x02] IF !(ExtData[1]->WorkLocal[14] <= 4*) GOTO 0x08A0
     0x089B [0x03] ExtData[1]->WorkLocal[14] = 4*
     0x08A0 [0x42] SET_CLI_EVENT_CANCEL_DATA()
     0x08A1 [0x02] IF !(ExtData[1]->WorkLocal[14] == 0*) GOTO 0x08E1
     0x08A9 [0xCD] LOAD_SCHEDULED_TASK_ALT4: Load scheduler "onmy" with entities [EventEntity, EventEntity], work=[237*, 0*]
     0x08BA [0x48] [System] [8710*]:
    → "%0 looks like it wants absolutely nothing to do with anyone."
     0x08BD [0x23] WAIT_FOR_DIALOG_INTERACTION
     0x08BE [0xCE] WAIT_LOAD_SCHEDULER_ALT4: Wait for scheduler "onmy" with entities [EventEntity, EventEntity], work=237*
     0x08CD [0xCD] LOAD_SCHEDULED_TASK_ALT4: Load scheduler "ofmy" with entities [EventEntity, EventEntity], work=[237*, 0*]
     0x08DE [0x01] GOTO 0x0962
     0x08E1 [0x02] IF !(ExtData[1]->WorkLocal[14] == 1*) GOTO 0x08F0
     0x08E9 [0x48] [System] [8709*]:
    → "%0 seems to be pouting slightly."
     0x08EC [0x23] WAIT_FOR_DIALOG_INTERACTION
     0x08ED [0x01] GOTO 0x0962
     0x08F0 [0x02] IF !(ExtData[1]->WorkLocal[14] == 2*) GOTO 0x08FF
     0x08F8 [0x48] [System] [8708*]:
    → "%0 looks calm and collected."
     0x08FB [0x23] WAIT_FOR_DIALOG_INTERACTION
     0x08FC [0x01] GOTO 0x0962
     0x08FF [0x02] IF !(ExtData[1]->WorkLocal[14] == 3*) GOTO 0x091F
     0x0907 [0xCD] LOAD_SCHEDULED_TASK_ALT4: Load scheduler "main" with entities [EventEntity, EventEntity], work=[235*, 0*]
     0x0918 [0x48] [System] [8707*]:
    → "%0's in an obviously good mood."
     0x091B [0x23] WAIT_FOR_DIALOG_INTERACTION
     0x091C [0x01] GOTO 0x0962
     0x091F [0x02] IF !(ExtData[1]->WorkLocal[14] == 4*) GOTO 0x0962
     0x0927 [0xCD] LOAD_SCHEDULED_TASK_ALT4: Load scheduler "onon" with entities [EventEntity, EventEntity], work=[236*, 0*]
     0x0938 [0x48] [System] [8706*]:
    → "%0's practically bursting with joy!"
     0x093B [0x23] WAIT_FOR_DIALOG_INTERACTION
     0x093C [0xCE] WAIT_LOAD_SCHEDULER_ALT4: Wait for scheduler "onon" with entities [EventEntity, EventEntity], work=236*
     0x094B [0xCD] LOAD_SCHEDULED_TASK_ALT4: Load scheduler "ofon" with entities [EventEntity, EventEntity], work=[236*, 0*]
     0x095C [0x1C] WAIT(1* ticks)
     0x095F [0x01] GOTO 0x0962
     0x0962 [0x2E] SET_CLI_EVENT_CANCEL_FLAGS()
     0x0963 [0x03] Work_Zone[2] = ExtData[1]->WorkLocal[14]
     0x0968 [0x03] ExtData[1]->WorkLocal[14] = ExtData[1]->WorkLocal[4]
     0x096D [0x15] ExtData[1]->WorkLocal[14] /= 50*
     0x0972 [0x02] IF !(ExtData[1]->WorkLocal[14] >= 0*) GOTO 0x0980
     0x097A [0x06] ExtData[1]->WorkLocal[14] = 0
     0x097D [0x01] GOTO 0x098D
     0x0980 [0x02] IF !(ExtData[1]->WorkLocal[14] <= 4*) GOTO 0x098D
     0x0988 [0x03] ExtData[1]->WorkLocal[14] = 4*
     0x098D [0x02] IF !(ExtData[1]->WorkLocal[14] == 0*) GOTO 0x099C
     0x0995 [0x48] [System] [8715*]:
    → "[Moreover,/Moreover,/However,/However,/However,] it seems thoroughly depressed about the abysmal conditions under which it lives."
     0x0998 [0x23] WAIT_FOR_DIALOG_INTERACTION
     0x0999 [0x01] GOTO 0x09D8
     0x099C [0x02] IF !(ExtData[1]->WorkLocal[14] == 1*) GOTO 0x09AB
     0x09A4 [0x48] [System] [8714*]:
    → "[Moreover,/Moreover,/However,/However,/However,] it is clearly unhappy with the way things are."
     0x09A7 [0x23] WAIT_FOR_DIALOG_INTERACTION
     0x09A8 [0x01] GOTO 0x09D8
     0x09AB [0x02] IF !(ExtData[1]->WorkLocal[14] == 2*) GOTO 0x09BA
     0x09B3 [0x48] [System] [8713*]:
    → "[Moreover,/Moreover,/However,/However,/However,] it exudes a slight aura of discontent."
     0x09B6 [0x23] WAIT_FOR_DIALOG_INTERACTION
     0x09B7 [0x01] GOTO 0x09D8
     0x09BA [0x02] IF !(ExtData[1]->WorkLocal[14] == 3*) GOTO 0x09C9
     0x09C2 [0x48] [System] [8712*]:
    → "[However,/However,/Moreover,/Moreover,/Moreover,] it seems to be duly satisfied with its lot in life."
     0x09C5 [0x23] WAIT_FOR_DIALOG_INTERACTION
     0x09C6 [0x01] GOTO 0x09D8
     0x09C9 [0x02] IF !(ExtData[1]->WorkLocal[14] == 4*) GOTO 0x09D8
     0x09D1 [0x48] [System] [8711*]:
    → "[However,/However,/Moreover,/Moreover,/Moreover,] it couldn't be more content with its life."
     0x09D4 [0x23] WAIT_FOR_DIALOG_INTERACTION
     0x09D5 [0x01] GOTO 0x09D8
     0x09D8 [0x03] Work_Zone[2] = ExtData[1]->WorkLocal[9]
     0x09DD [0x48] [System] [8717*]:
    → "Current growth level: [EEE/$25EE/$26EE/$26$25E/$26$26E/$26$26$25/$26$26$26/$26$26$26]."
     0x09E0 [0x23] WAIT_FOR_DIALOG_INTERACTION
     0x09E1 [0x06] ExtData[1]->WorkLocal[15] = 0
     0x09E4 [0x01] GOTO 0x0BDA
     0x09E7 [0x02] IF !(Work_Zone[0] == 2*) GOTO 0x0B06
     0x09EF [0x24] CREATE_DIALOG(message_id=8718*, default_option=0*, option_flags=0*)
    → "How will you interact? [Do nothing./Pet it./Poke it./Slap it./Yell loudly at it./Get angry at it.]"
     0x09F6 [0x25] WAIT_DIALOG_SELECT()
     0x09F7 [0x02] IF !(Work_Zone[0] == 0*) GOTO 0x0A02
     0x09FF [0x01] GOTO 0x0A02
     0x0A02 [0x02] IF !(Work_Zone[0] == 0*) GOTO 0x0B03
     0x0A0A [0x42] SET_CLI_EVENT_CANCEL_DATA()
     0x0A0B [0x06] Work_Zone[1] = 0
     0x0A0E [0x40] SET_BIT_WORK_RANGE(start_bit=8*, end_bit=15*, target=Work_Zone[1], source=10*)
     0x0A17 [0x40] SET_BIT_WORK_RANGE(start_bit=16*, end_bit=31*, target=Work_Zone[1], source=Work_Zone[0])
     0x0A20 [0x43] SEND_EVENT_UPDATE: Send pending tag to server (packet 0x005B)
     0x0A22 [0x43] SEND_EVENT_UPDATE: Check pending flag (skip if not pending)
     0x0A24 [0x02] IF !(Work_Zone[2] == 0*) GOTO 0x0A33
     0x0A2C [0x48] [System] [8719*]:
    → "%0 stares off into the distance as if you're not even there."
     0x0A2F [0x23] WAIT_FOR_DIALOG_INTERACTION
     0x0A30 [0x01] GOTO 0x0AF4
     0x0A33 [0x02] IF !(Work_Zone[2] == 1*) GOTO 0x0A73
     0x0A3B [0xCD] LOAD_SCHEDULED_TASK_ALT4: Load scheduler "onmy" with entities [EventEntity, EventEntity], work=[237*, 0*]
     0x0A4C [0x48] [System] [8720*]:
    → "%0 is visibly angry with what you just did."
     0x0A4F [0x23] WAIT_FOR_DIALOG_INTERACTION
     0x0A50 [0xCE] WAIT_LOAD_SCHEDULER_ALT4: Wait for scheduler "onmy" with entities [EventEntity, EventEntity], work=237*
     0x0A5F [0xCD] LOAD_SCHEDULED_TASK_ALT4: Load scheduler "ofmy" with entities [EventEntity, EventEntity], work=[237*, 0*]
     0x0A70 [0x01] GOTO 0x0AF4
     0x0A73 [0x02] IF !(Work_Zone[2] == 2*) GOTO 0x0A82
     0x0A7B [0x48] [System] [8721*]:
    → "That didn't go over too well with %0."
     0x0A7E [0x23] WAIT_FOR_DIALOG_INTERACTION
     0x0A7F [0x01] GOTO 0x0AF4
     0x0A82 [0x02] IF !(Work_Zone[2] == 3*) GOTO 0x0AA2
     0x0A8A [0xCD] LOAD_SCHEDULED_TASK_ALT4: Load scheduler "main" with entities [EventEntity, EventEntity], work=[235*, 0*]
     0x0A9B [0x48] [System] [8722*]:
    → "That was surprisingly not worthless in the eyes of %0!"
     0x0A9E [0x23] WAIT_FOR_DIALOG_INTERACTION
     0x0A9F [0x01] GOTO 0x0AF4
     0x0AA2 [0x02] IF !(Work_Zone[2] == 4*) GOTO 0x0AE5
     0x0AAA [0xCD] LOAD_SCHEDULED_TASK_ALT4: Load scheduler "onon" with entities [EventEntity, EventEntity], work=[236*, 0*]
     0x0ABB [0x48] [System] [8723*]:
    → "That strongly resonated with %0!"
     0x0ABE [0x23] WAIT_FOR_DIALOG_INTERACTION
     0x0ABF [0xCE] WAIT_LOAD_SCHEDULER_ALT4: Wait for scheduler "onon" with entities [EventEntity, EventEntity], work=236*
     0x0ACE [0xCD] LOAD_SCHEDULED_TASK_ALT4: Load scheduler "ofon" with entities [EventEntity, EventEntity], work=[236*, 0*]
     0x0ADF [0x1C] WAIT(1* ticks)
     0x0AE2 [0x01] GOTO 0x0AF4
     0x0AE5 [0x02] IF !(Work_Zone[2] == 4294967295*) GOTO 0x0AF4
     0x0AED [0x48] [System] [8719*]:
    → "%0 stares off into the distance as if you're not even there."
     0x0AF0 [0x23] WAIT_FOR_DIALOG_INTERACTION
     0x0AF1 [0x01] GOTO 0x0AF4
     0x0AF4 [0x02] IF !(Work_Zone[9] == 0*) GOTO 0x0AFC
     0x0AFC [0x2E] SET_CLI_EVENT_CANCEL_FLAGS()
     0x0AFD [0x06] ExtData[1]->WorkLocal[15] = 0
     0x0B00 [0x01] GOTO 0x0B03
     0x0B03 [0x01] GOTO 0x0BDA
     0x0B06 [0x02] IF !(Work_Zone[0] == 3*) GOTO 0x0B14
     0x0B0E [0x1A] CALL_SUBROUTINE(address=0x0BDF)
     0x0B11 [0x01] GOTO 0x0BDA
     0x0B14 [0x02] IF !(Work_Zone[0] == 4*) GOTO 0x0BDA
     0x0B1C [0x48] [System] [8728*]:
    → "Try to collect items from your beloved beastie?"
     0x0B1F [0x23] WAIT_FOR_DIALOG_INTERACTION
     0x0B20 [0x24] CREATE_DIALOG(message_id=8729*, default_option=0*, option_flags=0*)
    → "Proceed? [Yes, that sounds wonderful./No, I won't take any chances.]"
     0x0B27 [0x25] WAIT_DIALOG_SELECT()
     0x0B28 [0x02] IF !(Work_Zone[0] == 0*) GOTO 0x0BCC
     0x0B30 [0x42] SET_CLI_EVENT_CANCEL_DATA()
     0x0B31 [0x06] Work_Zone[1] = 0
     0x0B34 [0x40] SET_BIT_WORK_RANGE(start_bit=8*, end_bit=15*, target=Work_Zone[1], source=11*)
     0x0B3D [0x43] SEND_EVENT_UPDATE: Send pending tag to server (packet 0x005B)
     0x0B3F [0x43] SEND_EVENT_UPDATE: Check pending flag (skip if not pending)
     0x0B41 [0x02] IF !(Work_Zone[2] == 0*) GOTO 0x0B81
     0x0B49 [0xCD] LOAD_SCHEDULED_TASK_ALT4: Load scheduler "onmy" with entities [EventEntity, EventEntity], work=[237*, 0*]
     0x0B5A [0x48] [System] [8721*]:
    → "That didn't go over too well with %0."
     0x0B5D [0x23] WAIT_FOR_DIALOG_INTERACTION
     0x0B5E [0xCE] WAIT_LOAD_SCHEDULER_ALT4: Wait for scheduler "onmy" with entities [EventEntity, EventEntity], work=237*
     0x0B6D [0xCD] LOAD_SCHEDULED_TASK_ALT4: Load scheduler "ofmy" with entities [EventEntity, EventEntity], work=[237*, 0*]
     0x0B7E [0x01] GOTO 0x0BC5
     0x0B81 [0x02] IF !(Work_Zone[2] == 1*) GOTO 0x0B90
     0x0B89 [0x48] [System] [8719*]:
    → "%0 stares off into the distance as if you're not even there."
     0x0B8C [0x23] WAIT_FOR_DIALOG_INTERACTION
     0x0B8D [0x01] GOTO 0x0BC5
     0x0B90 [0xCD] LOAD_SCHEDULED_TASK_ALT4: Load scheduler "onmy" with entities [EventEntity, EventEntity], work=[237*, 0*]
     0x0BA1 [0x48] [System] [8720*]:
    → "%0 is visibly angry with what you just did."
     0x0BA4 [0x23] WAIT_FOR_DIALOG_INTERACTION
     0x0BA5 [0xCE] WAIT_LOAD_SCHEDULER_ALT4: Wait for scheduler "onmy" with entities [EventEntity, EventEntity], work=237*
     0x0BB4 [0xCD] LOAD_SCHEDULED_TASK_ALT4: Load scheduler "ofmy" with entities [EventEntity, EventEntity], work=[237*, 0*]
     0x0BC5 [0x2E] SET_CLI_EVENT_CANCEL_FLAGS()
     0x0BC6 [0x06] ExtData[1]->WorkLocal[15] = 0
     0x0BC9 [0x01] GOTO 0x0BD7
     0x0BCC [0x02] IF !(Work_Zone[0] == 1*) GOTO 0x0BD7
     0x0BD4 [0x01] GOTO 0x0BD7
     0x0BD7 [0x01] GOTO 0x0BDA
     0x0BDA [0x01] GOTO 0x00F2
     0x0BDD [0x21] END_EVENT
     0x0BDE [0x00] END_REQSTACK()
     0x0BDF [0xB4] UI_WINDOW_STRING_HANDLER(case=0x01 - Copy string from event strings table, work_offset=ExtData[1]->WorkLocal[22], string_index=0*)
     0x0BE5 [0x0B] ExtData[1]->WorkLocal[15]++
     0x0BE8 [0x02] IF !(ExtData[1]->WorkLocal[15] <= 1*) GOTO 0x0CB7
     0x0BF0 [0x48] [System] [8724*]:
    → "Please bestow a name of 15 letters or fewer upon your creature. Taking no action will annul the process."
     0x0BF3 [0x71] USER_INPUT_HANDLER: Menu operation with params (params=[0x801C, 0x8005])
     0x0BF9 [0x71] USER_INPUT_HANDLER: Menu operation B (param=0x0012)
     0x0BFD [0x9D] IF (strcmp(ExtData[1]->WorkLocal[18], 000000000000000000000000000000ab) != 0) GOTO 0x0C // Also sets ExtData[1]->WorkLocal[1]
     0x0C14 [0xB4] UI_WINDOW_STRING_HANDLER(case=0x04 - Copy string to shared buffers, work_offset1=ExtData[1]->WorkLocal[18], work_offset2=0*)
     0x0C1A [0x24] CREATE_DIALOG(message_id=8725*, default_option=0*, option_flags=0*)
    → "Is %0 fine? [Yes./No, I'll pick a new one./No, I quit.]"
     0x0C21 [0x25] WAIT_DIALOG_SELECT()
     0x0C22 [0x02] IF !(Work_Zone[0] == 0*) GOTO 0x0C83
     0x0C2A [0x42] SET_CLI_EVENT_CANCEL_DATA()
     0x0C2B [0x71] USER_INPUT_HANDLER: Check vulgar filter (work=Work_Zone[2])
     0x0C2F [0x02] IF !(Work_Zone[2] == 0*) GOTO 0x0C71
     0x0C37 [0x71] USER_INPUT_HANDLER: Check if player has input or exited
     0x0C39 [0x02] IF !(Work_Zone[2] == 0*) GOTO 0x0C60
     0x0C41 [0xCD] LOAD_SCHEDULED_TASK_ALT4: Load scheduler "main" with entities [EventEntity, EventEntity], work=[235*, 0*]
     0x0C52 [0x2B] Chacharoon (ID: 17924231/0x01118087) [8727*]:
    → "Oooh, %0 is name of much preeetty! Is sign that many times of good be coming."
     0x0C59 [0x23] WAIT_FOR_DIALOG_INTERACTION
     0x0C5A [0x0C] ExtData[1]->WorkLocal[15]--
     0x0C5D [0x01] GOTO 0x0C6E
     0x0C60 [0x2B] Chacharoon (ID: 17924231/0x01118087) [8726*]:
    → "Hmmm... This name too haaard for Chacharoon. Sorry, but giving new name is best."
     0x0C67 [0x23] WAIT_FOR_DIALOG_INTERACTION
     0x0C68 [0xB4] UI_WINDOW_STRING_HANDLER(case=0x04 - Copy string to shared buffers, work_offset1=ExtData[1]->WorkLocal[22], work_offset2=0*)
     0x0C6E [0x01] GOTO 0x0C7F
     0x0C71 [0x2B] Chacharoon (ID: 17924231/0x01118087) [8726*]:
    → "Hmmm... This name too haaard for Chacharoon. Sorry, but giving new name is best."
     0x0C78 [0x23] WAIT_FOR_DIALOG_INTERACTION
     0x0C79 [0xB4] UI_WINDOW_STRING_HANDLER(case=0x04 - Copy string to shared buffers, work_offset1=ExtData[1]->WorkLocal[22], work_offset2=0*)
     0x0C7F [0x2E] SET_CLI_EVENT_CANCEL_FLAGS()
     0x0C80 [0x01] GOTO 0x0CA8
     0x0C83 [0x02] IF !(Work_Zone[0] == 1*) GOTO 0x0C94
     0x0C8B [0xB4] UI_WINDOW_STRING_HANDLER(case=0x04 - Copy string to shared buffers, work_offset1=ExtData[1]->WorkLocal[22], work_offset2=0*)
     0x0C91 [0x01] GOTO 0x0CA8
     0x0C94 [0x02] IF !(Work_Zone[0] == 2*) GOTO 0x0CA8
     0x0C9C [0xB4] UI_WINDOW_STRING_HANDLER(case=0x04 - Copy string to shared buffers, work_offset1=ExtData[1]->WorkLocal[22], work_offset2=0*)
     0x0CA2 [0x0C] ExtData[1]->WorkLocal[15]--
     0x0CA5 [0x01] GOTO 0x0CA8
     0x0CA8 [0x01] GOTO 0x0CB4
     0x0CAB [0xB4] UI_WINDOW_STRING_HANDLER(case=0x04 - Copy string to shared buffers, work_offset1=ExtData[1]->WorkLocal[22], work_offset2=0*)
     0x0CB1 [0x0C] ExtData[1]->WorkLocal[15]--
     0x0CB4 [0x01] GOTO 0x0BE8
     0x0CB7 [0x1B] RETURN
     0x0CB8 [0x41] ExtData[1]->WorkLocal[2] = Work_Zone[2] (bits 0*-31*)
     0x0CC1 [0x41] ExtData[1]->WorkLocal[3] = Work_Zone[3] (bits 0*-7*)
     0x0CCA [0x41] ExtData[1]->WorkLocal[4] = Work_Zone[3] (bits 8*-15*)
     0x0CD3 [0x41] ExtData[1]->WorkLocal[5] = Work_Zone[3] (bits 16*-23*)
     0x0CDC [0x41] ExtData[1]->WorkLocal[6] = Work_Zone[3] (bits 24*-31*)
     0x0CE5 [0x41] ExtData[1]->WorkLocal[7] = Work_Zone[4] (bits 0*-7*)
     0x0CEE [0x41] ExtData[1]->WorkLocal[8] = Work_Zone[4] (bits 8*-15*)
     0x0CF7 [0x41] ExtData[1]->WorkLocal[9] = Work_Zone[4] (bits 16*-18*)
     0x0D00 [0x41] ExtData[1]->WorkLocal[10] = Work_Zone[4] (bits 19*-19*)
     0x0D09 [0x41] ExtData[1]->WorkLocal[12] = Work_Zone[4] (bits 20*-23*)
     0x0D12 [0x1B] RETURN
     0x0D13 [0x42] SET_CLI_EVENT_CANCEL_DATA()
     0x0D14 [0x1E] EventEntity looks at LocalPlayer and starts talking
     0x0D19 [0x48] [System] [8739*]:
    → "You gave %0 $1."
     0x0D1C [0x23] WAIT_FOR_DIALOG_INTERACTION
     0x0D1D [0x02] IF !(Work_Zone[2] == 0*) GOTO 0x0D2C
     0x0D25 [0x48] [System] [8719*]:
    → "%0 stares off into the distance as if you're not even there."
     0x0D28 [0x23] WAIT_FOR_DIALOG_INTERACTION
     0x0D29 [0x01] GOTO 0x0DED
     0x0D2C [0x02] IF !(Work_Zone[2] == 1*) GOTO 0x0D6C
     0x0D34 [0xCD] LOAD_SCHEDULED_TASK_ALT4: Load scheduler "onmy" with entities [EventEntity, EventEntity], work=[237*, 0*]
     0x0D45 [0x48] [System] [8720*]:
    → "%0 is visibly angry with what you just did."
     0x0D48 [0x23] WAIT_FOR_DIALOG_INTERACTION
     0x0D49 [0xCE] WAIT_LOAD_SCHEDULER_ALT4: Wait for scheduler "onmy" with entities [EventEntity, EventEntity], work=237*
     0x0D58 [0xCD] LOAD_SCHEDULED_TASK_ALT4: Load scheduler "ofmy" with entities [EventEntity, EventEntity], work=[237*, 0*]
     0x0D69 [0x01] GOTO 0x0DED
     0x0D6C [0x02] IF !(Work_Zone[2] == 2*) GOTO 0x0D7B
     0x0D74 [0x48] [System] [8721*]:
    → "That didn't go over too well with %0."
     0x0D77 [0x23] WAIT_FOR_DIALOG_INTERACTION
     0x0D78 [0x01] GOTO 0x0DED
     0x0D7B [0x02] IF !(Work_Zone[2] == 3*) GOTO 0x0D9B
     0x0D83 [0xCD] LOAD_SCHEDULED_TASK_ALT4: Load scheduler "main" with entities [EventEntity, EventEntity], work=[235*, 0*]
     0x0D94 [0x48] [System] [8722*]:
    → "That was surprisingly not worthless in the eyes of %0!"
     0x0D97 [0x23] WAIT_FOR_DIALOG_INTERACTION
     0x0D98 [0x01] GOTO 0x0DED
     0x0D9B [0x02] IF !(Work_Zone[2] == 4*) GOTO 0x0DDE
     0x0DA3 [0xCD] LOAD_SCHEDULED_TASK_ALT4: Load scheduler "onon" with entities [EventEntity, EventEntity], work=[236*, 0*]
     0x0DB4 [0x48] [System] [8723*]:
    → "That strongly resonated with %0!"
     0x0DB7 [0x23] WAIT_FOR_DIALOG_INTERACTION
     0x0DB8 [0xCE] WAIT_LOAD_SCHEDULER_ALT4: Wait for scheduler "onon" with entities [EventEntity, EventEntity], work=236*
     0x0DC7 [0xCD] LOAD_SCHEDULED_TASK_ALT4: Load scheduler "ofon" with entities [EventEntity, EventEntity], work=[236*, 0*]
     0x0DD8 [0x1C] WAIT(1* ticks)
     0x0DDB [0x01] GOTO 0x0DED
     0x0DDE [0x02] IF !(Work_Zone[2] == 4294967295*) GOTO 0x0DED
     0x0DE6 [0x48] [System] [8719*]:
    → "%0 stares off into the distance as if you're not even there."
     0x0DE9 [0x23] WAIT_FOR_DIALOG_INTERACTION
     0x0DEA [0x01] GOTO 0x0DED
     0x0DED [0x02] IF !(Work_Zone[4] == 1*) GOTO 0x0DFC
     0x0DF5 [0x48] [System] [8744*]:
    → "%0 squirms uncontrollably."
     0x0DF8 [0x23] WAIT_FOR_DIALOG_INTERACTION
     0x0DF9 [0x01] GOTO 0x0E08
     0x0DFC [0x02] IF !(Work_Zone[4] == 2*) GOTO 0x0E08
     0x0E04 [0x48] [System] [8745*]:
    → "%0 shudders violently."
     0x0E07 [0x23] WAIT_FOR_DIALOG_INTERACTION
     0x0E08 [0x21] END_EVENT
     0x0E09 [0x00] END_REQSTACK()
```

### Event 2050

#### Metadata

| Field        | Value   |
|--------------|---------|
| Entrypoint   | 0x0E0A  |
| Data Size    | 1 bytes |
| Instructions | 1       |

```
      00 01 02 03 04 05 06 07  08 09 0A 0B 0C 0D 0E 0F
      -- -- -- -- -- -- -- --  -- -- -- -- -- -- -- --
0E00:                                00                           .     
```

#### Opcodes

```
  0: 0x0E0A [0x00] END_REQSTACK()
```

### Event 2051

#### Metadata

| Field        | Value      |
|--------------|------------|
| Entrypoint   | 0x0E0B     |
| Data Size    | 6320 bytes |
| Instructions | 21         |

```
      00 01 02 03 04 05 06 07  08 09 0A 0B 0C 0D 0E 0F
      -- -- -- -- -- -- -- --  -- -- -- -- -- -- -- --
0E00:                                   42 46 01 45 0E             BF.E.
0E10: 80 F0 FF FF 7F F0 FF FF  7F 66 64 6F 31 00 80 55  .........fdo1..U
0E20: 0E 80 F0 FF FF 7F F0 FF  FF 7F 66 64 6F 31 38 0F  ..........fdo18.
0E30: 80 29 08 F0 FF FF 7F 23  37 10 80 11 80 12 80 13  .).....#7.......
0E40: 80 4E 01 87 80 11 01 4A  F8 FF FF 7F F0 FF FF 7F  .N.....J........
0E50: 6F 76 F8 FF FF 7F 45 1E  80 F0 FF FF 7F F0 FF FF  ov....E.........
0E60: 7F 73 31 30 31 00 80 45  0E 80 F0 FF FF 7F F0 FF  .s101..E........
0E70: FF 7F 66 64 69 31 00 80  55 0E 80 F0 FF FF 7F F0  ..fdi1..U.......
0E80: FF FF 7F 66 64 69 31 1D  58 80 23 52 1E 80 F0 FF  ...fdi1.X.#R....
0E90: FF 7F F0 FF FF 7F 73 31  30 31 46 00 20 00 21 00  ......s101F. .!.
0EA0: 48 43 80 23 21 00 03 03  10 59 80 48 5A 80 23 21  HC.#!....Y.HZ.#!
0EB0: 00 92 00 1D 80 11 01 1A  EB 16 1A 28 0F 1A EC 0F  ...........(....
0EC0: 1A 96 11 1A C3 13 1A D1  22 1A D1 13 1A AD 14 1A  ........".......
0ED0: E4 14 1A 07 15 1A 33 15  1A D3 15 1A 5D 16 1A 86  ......3.....]...
0EE0: 16 1A CC 16 1A 04 13 AC  02 35 80 11 01 1B 92 00  .........5......
0EF0: 1D 80 11 01 1A 28 0F 1A  EC 0F 1A 96 11 1A C3 13  .....(..........
0F00: 1A D1 22 1A D1 13 1A AD  14 1A E4 14 1A 07 15 1A  ..".............
0F10: 33 15 1A D3 15 1A 5D 16  1A 86 16 1A CC 16 1A 04  3.....].........
0F20: 13 AC 02 35 80 11 01 1B  AC 02 09 80 11 01 3E 00  ...5..........>.
0F30: 11 00 80 3F 0F 27 80 09  80 11 01 02 01 46 0F 27  ...?.'.......F.'
0F40: 80 09 80 11 01 03 AC 02  0A 80 11 01 3E 00 11 08  ............>...
0F50: 80 5D 0F 27 80 0A 80 11  01 02 01 64 0F 27 80 0A  .].'.......d.'..
0F60: 80 11 01 03 AC 02 0B 80  11 01 3E 00 11 1C 80 7B  ..........>....{
0F70: 0F 29 80 0B 80 11 01 02  01 82 0F 29 80 0B 80 11  .).........)....
0F80: 01 03 92 01 20 80 11 01  92 01 21 80 11 01 92 01  .... .....!.....
0F90: 22 80 11 01 AC 02 20 80  11 01 3E 00 11 5B 80 AA  "..... ...>..[..
0FA0: 0F 4E 00 20 80 11 01 01  B0 0F 4E 01 20 80 11 01  .N. ......N. ...
0FB0: AC 02 21 80 11 01 3E 00  11 5C 80 C6 0F 4E 00 21  ..!...>..\...N.!
0FC0: 80 11 01 01 CC 0F 4E 01  21 80 11 01 AC 02 22 80  ......N.!.....".
0FD0: 11 01 3E 00 11 5D 80 E2  0F 4E 00 22 80 11 01 01  ..>..]...N."....
0FE0: E8 0F 4E 01 22 80 11 01  1C 08 80 1B AC 02 0F 80  ..N."...........
0FF0: 11 01 3E 00 11 1D 80 03  10 27 80 0F 80 11 01 02  ..>......'......
1000: 01 0A 10 27 80 0F 80 11  01 03 AC 02 10 80 11 01  ...'............
1010: 3E 00 11 07 80 21 10 27  80 10 80 11 01 02 01 28  >....!.'.......(
1020: 10 27 80 10 80 11 01 03  AC 02 11 80 11 01 3E 00  .'............>.
1030: 11 5E 80 3F 10 29 80 11  80 11 01 02 01 46 10 29  .^.?.).......F.)
1040: 80 11 80 11 01 03 AC 02  1A 80 11 01 3E 01 11 53  ............>..S
1050: 80 5D 10 27 80 1A 80 11  01 02 01 64 10 27 80 1A  .].'.......d.'..
1060: 80 11 01 03 AC 02 1B 80  11 01 3E 01 11 0F 80 7B  ..........>....{
1070: 10 29 80 1B 80 11 01 02  01 82 10 29 80 1B 80 11  .).........)....
1080: 01 03 AC 02 23 80 11 01  AC 02 24 80 11 01 3E 00  ....#.....$...>.
1090: 11 53 80 BA 10 3E 08 11  00 80 AB 10 4E 00 24 80  .S...>......N.$.
10A0: 11 01 4E 01 23 80 11 01  01 B7 10 4E 00 23 80 11  ..N.#......N.#..
10B0: 01 4E 01 24 80 11 01 01  C6 10 4E 01 23 80 11 01  .N.$......N.#...
10C0: 4E 01 24 80 11 01 AC 02  25 80 11 01 AC 02 26 80  N.$.....%.....&.
10D0: 11 01 3E 00 11 0F 80 FE  10 3E 08 11 08 80 EF 10  ..>......>......
10E0: 4E 00 26 80 11 01 4E 01  25 80 11 01 01 FB 10 4E  N.&...N.%......N
10F0: 00 25 80 11 01 4E 01 26  80 11 01 01 0A 11 4E 01  .%...N.&......N.
1100: 25 80 11 01 4E 01 26 80  11 01 AC 02 27 80 11 01  %...N.&.....'...
1110: AC 02 28 80 11 01 3E 00  11 54 80 42 11 3E 08 11  ..(...>..T.B.>..
1120: 1C 80 33 11 4E 00 28 80  11 01 4E 01 27 80 11 01  ..3.N.(...N.'...
1130: 01 3F 11 4E 00 27 80 11  01 4E 01 28 80 11 01 01  .?.N.'...N.(....
1140: 4E 11 4E 01 27 80 11 01  4E 01 28 80 11 01 AC 02  N.N.'...N.(.....
1150: 29 80 11 01 AC 02 2A 80  11 01 3E 00 11 5F 80 86  ).....*...>.._..
1160: 11 3E 08 11 1D 80 77 11  4E 00 2A 80 11 01 4E 01  .>....w.N.*...N.
1170: 29 80 11 01 01 83 11 4E  00 29 80 11 01 4E 01 2A  )......N.)...N.*
1180: 80 11 01 01 92 11 4E 01  29 80 11 01 4E 01 2A 80  ......N.)...N.*.
1190: 11 01 1C 08 80 1B AC 02  12 80 11 01 3E 00 11 01  ............>...
11A0: 80 AD 11 27 80 12 80 11  01 02 01 B4 11 27 80 12  ...'.........'..
11B0: 80 11 01 03 AC 02 13 80  11 01 3E 00 11 50 80 CB  ..........>..P..
11C0: 11 27 80 13 80 11 01 02  01 D2 11 27 80 13 80 11  .'.........'....
11D0: 01 03 AC 02 14 80 11 01  3E 00 11 04 80 E9 11 29  ........>......)
11E0: 80 14 80 11 01 02 01 F0  11 29 80 14 80 11 01 03  .........)......
11F0: AC 02 2B 80 11 01 AC 02  2C 80 11 01 3E 00 11 60  ..+.....,...>..`
1200: 80 28 12 3E 08 11 07 80  19 12 4E 00 2C 80 11 01  .(.>......N.,...
1210: 4E 01 2B 80 11 01 01 25  12 4E 00 2B 80 11 01 4E  N.+....%.N.+...N
1220: 01 2C 80 11 01 01 34 12  4E 01 2B 80 11 01 4E 01  .,....4.N.+...N.
1230: 2C 80 11 01 AC 02 2D 80  11 01 AC 02 2E 80 11 01  ,.....-.........
1240: 3E 00 11 51 80 6C 12 3E  08 11 5E 80 5D 12 4E 00  >..Q.l.>..^.].N.
1250: 2E 80 11 01 4E 01 2D 80  11 01 01 69 12 4E 00 2D  ....N.-....i.N.-
1260: 80 11 01 4E 01 2E 80 11  01 01 78 12 4E 01 2D 80  ...N......x.N.-.
1270: 11 01 4E 01 2E 80 11 01  AC 02 2F 80 11 01 AC 02  ..N......./.....
1280: 30 80 11 01 3E 00 11 52  80 B0 12 3E 08 11 01 80  0...>..R...>....
1290: A1 12 4E 00 30 80 11 01  4E 01 2F 80 11 01 01 AD  ..N.0...N./.....
12A0: 12 4E 00 2F 80 11 01 4E  01 30 80 11 01 01 BC 12  .N./...N.0......
12B0: 4E 01 2F 80 11 01 4E 01  30 80 11 01 AC 02 31 80  N./...N.0.....1.
12C0: 11 01 AC 02 32 80 11 01  3E 00 11 61 80 F4 12 3E  ....2...>..a...>
12D0: 08 11 50 80 E5 12 4E 00  32 80 11 01 4E 01 31 80  ..P...N.2...N.1.
12E0: 11 01 01 F1 12 4E 00 31  80 11 01 4E 01 32 80 11  .....N.1...N.2..
12F0: 01 01 00 13 4E 01 31 80  11 01 4E 01 32 80 11 01  ....N.1...N.2...
1300: 1C 08 80 1B 92 01 35 80  11 01 AC 02 15 80 11 01  ......5.........
1310: 3E 00 11 62 80 21 13 27  80 15 80 11 01 02 01 28  >..b.!.'.......(
1320: 13 27 80 15 80 11 01 03  AC 02 16 80 11 01 3E 00  .'............>.
1330: 11 0C 80 3F 13 27 80 16  80 11 01 02 01 46 13 27  ...?.'.......F.'
1340: 80 16 80 11 01 03 AC 02  17 80 11 01 3E 00 11 4B  ............>..K
1350: 80 5D 13 27 80 17 80 11  01 02 01 64 13 27 80 17  .].'.......d.'..
1360: 80 11 01 03 AC 02 18 80  11 01 3E 01 11 63 80 7B  ..........>..c.{
1370: 13 29 80 18 80 11 01 02  01 82 13 29 80 18 80 11  .).........)....
1380: 01 03 3E 01 11 54 80 92  13 60 02 69 30 6F 6E 01  ..>..T...`.i0on.
1390: 92 13 3E 01 11 5F 80 A2  13 60 02 69 31 6F 6E 01  ..>.._...`.i1on.
13A0: A2 13 3E 01 11 60 80 B2  13 60 02 69 32 6F 6E 01  ..>..`...`.i2on.
13B0: B2 13 3E 01 11 51 80 C2  13 60 02 69 33 6F 6E 01  ..>..Q...`.i3on.
13C0: C2 13 1B AC 02 35 80 11  01 29 08 35 80 11 01 04  .....5...).5....
13D0: 1B 92 00 57 80 11 01 92  00 6A 80 11 01 92 00 58  ...W.....j.....X
13E0: 80 11 01 92 00 6B 80 11  01 92 00 59 80 11 01 92  .....k.....Y....
13F0: 00 6C 80 11 01 AC 02 57  80 11 01 3E 00 11 2C 80  .l.....W...>..,.
1400: 0C 14 27 08 57 80 11 01  02 01 13 14 27 08 57 80  ..'.W.......'.W.
1410: 11 01 03 AC 02 6A 80 11  01 3E 00 11 20 80 2A 14  .....j...>.. .*.
1420: 27 08 6A 80 11 01 02 01  31 14 27 08 6A 80 11 01  '.j.....1.'.j...
1430: 03 AC 02 58 80 11 01 3E  00 11 64 80 48 14 29 08  ...X...>..d.H.).
1440: 58 80 11 01 02 01 4F 14  29 08 58 80 11 01 03 AC  X.....O.).X.....
1450: 02 6B 80 11 01 3E 00 11  05 80 66 14 27 08 6B 80  .k...>....f.'.k.
1460: 11 01 02 01 6D 14 27 08  6B 80 11 01 03 AC 02 59  ....m.'.k......Y
1470: 80 11 01 3E 00 11 02 80  84 14 27 08 59 80 11 01  ...>......'.Y...
1480: 02 01 8B 14 27 08 59 80  11 01 03 AC 02 6C 80 11  ....'.Y......l..
1490: 01 3E 00 11 63 80 A2 14  29 08 6C 80 11 01 02 01  .>..c...).l.....
14A0: A9 14 29 08 6C 80 11 01  03 1C 08 80 1B AC 02 36  ..).l..........6
14B0: 80 11 01 3E 00 11 65 80  D0 14 2C 36 80 11 01 36  ...>..e...,6...6
14C0: 80 11 01 65 66 6F 6E B6  14 36 80 11 01 01 E3 14  ...efon..6......
14D0: 2C 36 80 11 01 36 80 11  01 65 66 6F 66 B6 15 36  ,6...6...efof..6
14E0: 80 11 01 1B 3E 01 11 00  80 FA 14 4E 00 71 80 11  ....>......N.q..
14F0: 01 AC 03 71 80 11 01 01  06 15 AC 02 71 80 11 01  ...q........q...
1500: 4E 01 71 80 11 01 1B AC  02 72 80 11 01 3E 01 11  N.q......r...>..
1510: 08 80 2B 15 3E 01 11 1D  80 22 15 29 08 72 80 11  ..+.>....".).r..
1520: 01 04 4E 00 72 80 11 01  01 32 15 29 08 72 80 11  ..N.r....2.).r..
1530: 01 03 1B AC 02 8E 80 11  01 3E 01 11 61 80 49 15  .........>..a.I.
1540: 4E 00 8E 80 11 01 01 4F  15 4E 01 8E 80 11 01 1B  N......O.N......
1550: AC 02 80 80 11 01 AC 02  81 80 11 01 AC 02 82 80  ................
1560: 11 01 AC 02 83 80 11 01  AC 02 84 80 11 01 3E 01  ..............>.
1570: 11 5B 80 B4 15 4E 00 80  80 11 01 AC 03 80 80 11  .[...N..........
1580: 01 4E 00 81 80 11 01 AC  03 81 80 11 01 4E 00 82  .N...........N..
1590: 80 11 01 AC 03 82 80 11  01 4E 00 83 80 11 01 AC  .........N......
15A0: 03 83 80 11 01 4E 00 84  80 11 01 AC 03 84 80 11  .....N..........
15B0: 01 01 D2 15 4E 01 80 80  11 01 4E 01 81 80 11 01  ....N.....N.....
15C0: 4E 01 82 80 11 01 4E 01  83 80 11 01 4E 01 84 80  N.....N.....N...
15D0: 11 01 1B AC 02 85 80 11  01 AC 02 86 80 11 01 3E  ...............>
15E0: 01 11 5C 80 50 16 13 1B  00 1C 80 02 1B 00 1C 80  ..\.P...........
15F0: 02 F6 15 06 1B 00 02 1B  00 00 80 80 0F 16 29 08  ..............).
1600: 85 80 11 01 02 29 08 86  80 11 01 02 01 41 16 02  .....).......A..
1610: 1B 00 08 80 80 28 16 29  08 85 80 11 01 03 29 08  .....(.)......).
1620: 86 80 11 01 03 01 41 16  02 1B 00 1C 80 80 41 16  ......A.......A.
1630: 29 08 85 80 11 01 04 29  08 86 80 11 01 04 01 41  )......).......A
1640: 16 4E 00 85 80 11 01 4E  00 86 80 11 01 01 5C 16  .N.....N......\.
1650: 4E 01 85 80 11 01 4E 01  86 80 11 01 1B AC 02 87  N.....N.........
1660: 80 11 01 3E 01 11 07 80  79 16 4E 00 87 80 11 01  ...>....y.N.....
1670: AC 03 87 80 11 01 01 85  16 AC 02 87 80 11 01 4E  ...............N
1680: 01 87 80 11 01 1B AC 02  89 80 11 01 29 08 89 80  ............)...
1690: 11 01 04 1B AC 02 8A 80  11 01 29 08 8A 80 11 01  ..........).....
16A0: 04 1B AC 02 8B 80 11 01  29 08 8B 80 11 01 04 1B  ........).......
16B0: AC 02 8C 80 11 01 29 08  8C 80 11 01 04 1B AC 02  ......).........
16C0: 8D 80 11 01 29 08 8D 80  11 01 04 1B AC 02 1C 80  ....)...........
16D0: 11 01 3E 01 11 52 80 E3  16 29 80 1C 80 11 01 02  ..>..R...)......
16E0: 01 EA 16 29 80 1C 80 11  01 03 1B 03 01 10 08 80  ...)............
16F0: 43 00 43 01 03 1C 00 02  10 03 08 11 03 10 03 01  C.C.............
1700: 11 04 10 03 0A 11 05 10  03 0B 11 06 10 03 0C 11  ................
1710: 07 10 03 01 10 4B 80 43  00 43 01 03 02 11 02 10  .....K.C.C......
1720: 03 03 11 03 10 03 04 11  04 10 03 05 11 05 10 03  ................
1730: 06 11 06 10 03 07 11 07  10 03 09 11 08 10 41 00  ..............A.
1740: 80 1D 80 1C 00 1B 00 1A  38 19 41 07 80 50 80 1C  ........8.A..P..
1750: 00 1B 00 1A 40 1B 41 04  80 4B 80 1C 00 1B 00 1A  ....@.A..K......
1760: D0 1D 41 2C 80 05 80 1C  00 1B 00 1A 1E 20 41 54  ..A,......... AT
1770: 80 60 80 1C 00 1B 00 1A  A0 17 41 03 80 03 80 1C  .`........A.....
1780: 00 1B 00 02 1B 00 00 80  00 95 17 3D 00 11 65 80  ...........=..e.
1790: 08 80 01 9C 17 3C 00 11  65 80 08 80 1A BA 17 1B  .....<..e.......
17A0: 02 1B 00 1D 80 04 B2 17  3C 01 11 52 80 08 80 01  ........<..R....
17B0: B9 17 3D 01 11 52 80 08  80 1B 3E 08 11 04 80 2B  ..=..R....>....+
17C0: 18 41 62 80 4B 80 08 11  1B 00 02 1B 00 08 80 80  .Ab.K...........
17D0: E3 17 3D 00 11 2C 80 08  80 3C 00 11 20 80 08 80  ..=..,...<.. ...
17E0: 01 28 18 02 1B 00 07 80  80 FC 17 3C 00 11 2C 80  .(.........<..,.
17F0: 08 80 3D 00 11 20 80 08  80 01 28 18 13 1B 00 66  ..=.. ....(....f
1800: 80 02 1B 00 35 80 03 1A  18 3D 00 11 2C 80 08 80  ....5....=..,...
1810: 3C 00 11 20 80 08 80 01  28 18 3C 00 11 2C 80 08  <.. ....(.<..,..
1820: 80 3D 00 11 20 80 08 80  01 39 18 3D 00 11 2C 80  .=.. ....9.=..,.
1830: 08 80 3D 00 11 20 80 08  80 3E 08 11 2C 80 AA 18  ..=.. ...>..,...
1840: 41 20 80 05 80 08 11 1B  00 02 1B 00 08 80 80 62  A .............b
1850: 18 3C 00 11 64 80 08 80  3D 00 11 05 80 08 80 01  .<..d...=.......
1860: A7 18 02 1B 00 5E 80 80  7B 18 3D 00 11 64 80 08  .....^..{.=..d..
1870: 80 3C 00 11 05 80 08 80  01 A7 18 13 1B 00 66 80  .<............f.
1880: 02 1B 00 35 80 03 99 18  3C 00 11 64 80 08 80 3D  ...5....<..d...=
1890: 00 11 05 80 08 80 01 A7  18 3D 00 11 64 80 08 80  .........=..d...
18A0: 3C 00 11 05 80 08 80 01  B8 18 3D 00 11 64 80 08  <.........=..d..
18B0: 80 3D 00 11 05 80 08 80  3E 08 11 02 80 29 19 41  .=......>....).A
18C0: 63 80 0F 80 08 11 1B 00  02 1B 00 1D 80 80 E1 18  c...............
18D0: 3C 00 11 02 80 08 80 3D  00 11 63 80 08 80 01 26  <......=..c....&
18E0: 19 02 1B 00 1C 80 80 FA  18 3D 00 11 02 80 08 80  .........=......
18F0: 3C 00 11 63 80 08 80 01  26 19 13 1B 00 66 80 02  <..c....&....f..
1900: 1B 00 35 80 03 18 19 3C  00 11 02 80 08 80 3D 00  ..5....<......=.
1910: 11 63 80 08 80 01 26 19  3D 00 11 02 80 08 80 3C  .c....&.=......<
1920: 00 11 63 80 08 80 01 37  19 3D 00 11 02 80 08 80  ..c....7.=......
1930: 3D 00 11 63 80 08 80 1B  02 1B 00 00 80 80 6D 19  =..c..........m.
1940: 3D 00 11 00 80 08 80 3C  00 11 08 80 08 80 3C 00  =......<......<.
1950: 11 1C 80 08 80 3C 00 11  5B 80 08 80 3D 00 11 5C  .....<..[...=..\
1960: 80 08 80 3D 00 11 5D 80  08 80 01 3F 1B 02 1B 00  ...=..]....?....
1970: 08 80 80 A2 19 3D 00 11  00 80 08 80 3C 00 11 08  .....=......<...
1980: 80 08 80 3C 00 11 1C 80  08 80 3C 00 11 5B 80 08  ...<......<..[..
1990: 80 3D 00 11 5C 80 08 80  3D 00 11 5D 80 08 80 01  .=..\...=..]....
19A0: 3F 1B 02 1B 00 1C 80 80  D7 19 3D 00 11 00 80 08  ?.........=.....
19B0: 80 3C 00 11 08 80 08 80  3C 00 11 1C 80 08 80 3C  .<......<......<
19C0: 00 11 5B 80 08 80 3D 00  11 5C 80 08 80 3D 00 11  ..[...=..\...=..
19D0: 5D 80 08 80 01 3F 1B 02  1B 00 1D 80 80 0C 1A 3D  ]....?.........=
19E0: 00 11 00 80 08 80 3D 00  11 08 80 08 80 3C 00 11  ......=......<..
19F0: 1C 80 08 80 3C 00 11 5B  80 08 80 3C 00 11 5C 80  ....<..[...<..\.
1A00: 08 80 3D 00 11 5D 80 08  80 01 3F 1B 02 1B 00 07  ..=..]....?.....
1A10: 80 80 41 1A 3D 00 11 00  80 08 80 3D 00 11 08 80  ..A.=......=....
1A20: 08 80 3C 00 11 1C 80 08  80 3C 00 11 5B 80 08 80  ..<......<..[...
1A30: 3C 00 11 5C 80 08 80 3D  00 11 5D 80 08 80 01 3F  <..\...=..]....?
1A40: 1B 02 1B 00 5E 80 80 76  1A 3D 00 11 00 80 08 80  ....^..v.=......
1A50: 3D 00 11 08 80 08 80 3D  00 11 1C 80 08 80 3C 00  =......=......<.
1A60: 11 5B 80 08 80 3C 00 11  5C 80 08 80 3C 00 11 5D  .[...<..\...<..]
1A70: 80 08 80 01 3F 1B 02 1B  00 01 80 80 AB 1A 3D 00  ....?.........=.
1A80: 11 00 80 08 80 3D 00 11  08 80 08 80 3D 00 11 1C  .....=......=...
1A90: 80 08 80 3C 00 11 5B 80  08 80 3C 00 11 5C 80 08  ...<..[...<..\..
1AA0: 80 3C 00 11 5D 80 08 80  01 3F 1B 02 1B 00 50 80  .<..]....?....P.
1AB0: 80 E0 1A 3D 00 11 00 80  08 80 3D 00 11 08 80 08  ...=......=.....
1AC0: 80 3D 00 11 1C 80 08 80  3C 00 11 5B 80 08 80 3C  .=......<..[...<
1AD0: 00 11 5C 80 08 80 3C 00  11 5D 80 08 80 01 3F 1B  ..\...<..]....?.
1AE0: 02 1B 00 04 80 80 15 1B  3D 00 11 00 80 08 80 3D  ........=......=
1AF0: 00 11 08 80 08 80 3D 00  11 1C 80 08 80 3C 00 11  ......=......<..
1B00: 5B 80 08 80 3C 00 11 5C  80 08 80 3C 00 11 5D 80  [...<..\...<..].
1B10: 08 80 01 3F 1B 3D 00 11  00 80 08 80 3C 00 11 08  ...?.=......<...
1B20: 80 08 80 3C 00 11 1C 80  08 80 3C 00 11 5B 80 08  ...<......<..[..
1B30: 80 3D 00 11 5C 80 08 80  3D 00 11 5D 80 08 80 1B  .=..\...=..]....
1B40: 02 1B 00 00 80 80 8A 1B  3C 00 11 1D 80 08 80 3C  ........<......<
1B50: 00 11 07 80 08 80 3C 00  11 5E 80 08 80 3C 01 11  ......<..^...<..
1B60: 53 80 08 80 3C 01 11 0F  80 08 80 3C 00 11 53 80  S...<......<..S.
1B70: 08 80 3D 00 11 0F 80 08  80 3D 00 11 54 80 08 80  ..=......=..T...
1B80: 3D 00 11 5F 80 08 80 01  CF 1D 02 1B 00 08 80 80  =.._............
1B90: D4 1B 3C 00 11 1D 80 08  80 3C 00 11 07 80 08 80  ..<......<......
1BA0: 3C 00 11 5E 80 08 80 3C  01 11 53 80 08 80 3C 01  <..^...<..S...<.
1BB0: 11 0F 80 08 80 3C 00 11  53 80 08 80 3D 00 11 0F  .....<..S...=...
1BC0: 80 08 80 3D 00 11 54 80  08 80 3D 00 11 5F 80 08  ...=..T...=.._..
1BD0: 80 01 CF 1D 02 1B 00 1C  80 80 1E 1C 3C 00 11 1D  ............<...
1BE0: 80 08 80 3C 00 11 07 80  08 80 3C 00 11 5E 80 08  ...<......<..^..
1BF0: 80 3C 01 11 53 80 08 80  3C 01 11 0F 80 08 80 3C  .<..S...<......<
1C00: 00 11 53 80 08 80 3D 00  11 0F 80 08 80 3D 00 11  ..S...=......=..
1C10: 54 80 08 80 3D 00 11 5F  80 08 80 01 CF 1D 02 1B  T...=.._........
1C20: 00 1D 80 80 68 1C 3D 00  11 1D 80 08 80 3C 00 11  ....h.=......<..
1C30: 07 80 08 80 3C 00 11 5E  80 08 80 3D 01 11 53 80  ....<..^...=..S.
1C40: 08 80 3C 01 11 0F 80 08  80 3C 00 11 53 80 08 80  ..<......<..S...
1C50: 3C 00 11 0F 80 08 80 3D  00 11 54 80 08 80 3D 00  <......=..T...=.
1C60: 11 5F 80 08 80 01 CF 1D  02 1B 00 07 80 80 B2 1C  ._..............
1C70: 3D 00 11 1D 80 08 80 3C  00 11 07 80 08 80 3C 00  =......<......<.
1C80: 11 5E 80 08 80 3D 01 11  53 80 08 80 3C 01 11 0F  .^...=..S...<...
1C90: 80 08 80 3C 00 11 53 80  08 80 3C 00 11 0F 80 08  ...<..S...<.....
1CA0: 80 3D 00 11 54 80 08 80  3D 00 11 5F 80 08 80 01  .=..T...=.._....
1CB0: CF 1D 02 1B 00 5E 80 80  FC 1C 3D 00 11 1D 80 08  .....^....=.....
1CC0: 80 3D 00 11 07 80 08 80  3C 00 11 5E 80 08 80 3D  .=......<..^...=
1CD0: 01 11 53 80 08 80 3D 01  11 0F 80 08 80 3C 00 11  ..S...=......<..
1CE0: 53 80 08 80 3C 00 11 0F  80 08 80 3C 00 11 54 80  S...<......<..T.
1CF0: 08 80 3D 00 11 5F 80 08  80 01 CF 1D 02 1B 00 01  ..=.._..........
1D00: 80 80 46 1D 3D 00 11 1D  80 08 80 3D 00 11 07 80  ..F.=......=....
1D10: 08 80 3C 00 11 5E 80 08  80 3D 01 11 53 80 08 80  ..<..^...=..S...
1D20: 3D 01 11 0F 80 08 80 3C  00 11 53 80 08 80 3C 00  =......<..S...<.
1D30: 11 0F 80 08 80 3C 00 11  54 80 08 80 3D 00 11 5F  .....<..T...=.._
1D40: 80 08 80 01 CF 1D 02 1B  00 50 80 80 90 1D 3D 00  .........P....=.
1D50: 11 1D 80 08 80 3D 00 11  07 80 08 80 3D 00 11 5E  .....=......=..^
1D60: 80 08 80 3D 01 11 53 80  08 80 3D 01 11 0F 80 08  ...=..S...=.....
1D70: 80 3C 00 11 53 80 08 80  3C 00 11 0F 80 08 80 3C  .<..S...<......<
1D80: 00 11 54 80 08 80 3C 00  11 5F 80 08 80 01 CF 1D  ..T...<.._......
1D90: 3C 00 11 1D 80 08 80 3C  00 11 07 80 08 80 3C 00  <......<......<.
1DA0: 11 5E 80 08 80 3C 01 11  53 80 08 80 3C 01 11 0F  .^...<..S...<...
1DB0: 80 08 80 3C 00 11 53 80  08 80 3D 00 11 0F 80 08  ...<..S...=.....
1DC0: 80 3D 00 11 54 80 08 80  3D 00 11 5F 80 08 80 1B  .=..T...=.._....
1DD0: 02 1B 00 00 80 80 0C 1E  3D 00 11 01 80 08 80 3D  ........=......=
1DE0: 00 11 50 80 08 80 3D 00  11 04 80 08 80 3C 00 11  ..P...=......<..
1DF0: 60 80 08 80 3D 00 11 51  80 08 80 3D 00 11 52 80  `...=..Q...=..R.
1E00: 08 80 3D 00 11 61 80 08  80 01 1D 20 02 1B 00 08  ..=..a..... ....
1E10: 80 80 48 1E 3D 00 11 01  80 08 80 3D 00 11 50 80  ..H.=......=..P.
1E20: 08 80 3D 00 11 04 80 08  80 3C 00 11 60 80 08 80  ..=......<..`...
1E30: 3D 00 11 51 80 08 80 3D  00 11 52 80 08 80 3D 00  =..Q...=..R...=.
1E40: 11 61 80 08 80 01 1D 20  02 1B 00 1C 80 80 84 1E  .a..... ........
1E50: 3D 00 11 01 80 08 80 3D  00 11 50 80 08 80 3D 00  =......=..P...=.
1E60: 11 04 80 08 80 3C 00 11  60 80 08 80 3D 00 11 51  .....<..`...=..Q
1E70: 80 08 80 3D 00 11 52 80  08 80 3D 00 11 61 80 08  ...=..R...=..a..
1E80: 80 01 1D 20 02 1B 00 1D  80 80 C0 1E 3C 00 11 01  ... ........<...
1E90: 80 08 80 3D 00 11 50 80  08 80 3D 00 11 04 80 08  ...=..P...=.....
1EA0: 80 3C 00 11 60 80 08 80  3C 00 11 51 80 08 80 3D  .<..`...<..Q...=
1EB0: 00 11 52 80 08 80 3D 00  11 61 80 08 80 01 1D 20  ..R...=..a..... 
1EC0: 02 1B 00 07 80 80 FC 1E  3C 00 11 01 80 08 80 3D  ........<......=
1ED0: 00 11 50 80 08 80 3D 00  11 04 80 08 80 3C 00 11  ..P...=......<..
1EE0: 60 80 08 80 3C 00 11 51  80 08 80 3D 00 11 52 80  `...<..Q...=..R.
1EF0: 08 80 3D 00 11 61 80 08  80 01 1D 20 02 1B 00 5E  ..=..a..... ...^
1F00: 80 80 38 1F 3C 00 11 01  80 08 80 3C 00 11 50 80  ..8.<......<..P.
1F10: 08 80 3D 00 11 04 80 08  80 3C 00 11 60 80 08 80  ..=......<..`...
1F20: 3C 00 11 51 80 08 80 3C  00 11 52 80 08 80 3D 00  <..Q...<..R...=.
1F30: 11 61 80 08 80 01 1D 20  02 1B 00 01 80 80 74 1F  .a..... ......t.
1F40: 3C 00 11 01 80 08 80 3C  00 11 50 80 08 80 3D 00  <......<..P...=.
1F50: 11 04 80 08 80 3C 00 11  60 80 08 80 3C 00 11 51  .....<..`...<..Q
1F60: 80 08 80 3C 00 11 52 80  08 80 3D 00 11 61 80 08  ...<..R...=..a..
1F70: 80 01 1D 20 02 1B 00 50  80 80 B0 1F 3C 00 11 01  ... ...P....<...
1F80: 80 08 80 3C 00 11 50 80  08 80 3C 00 11 04 80 08  ...<..P...<.....
1F90: 80 3C 00 11 60 80 08 80  3C 00 11 51 80 08 80 3C  .<..`...<..Q...<
1FA0: 00 11 52 80 08 80 3C 00  11 61 80 08 80 01 1D 20  ..R...<..a..... 
1FB0: 02 1B 00 04 80 80 EC 1F  3C 00 11 01 80 08 80 3C  ........<......<
1FC0: 00 11 50 80 08 80 3C 00  11 04 80 08 80 3C 00 11  ..P...<......<..
1FD0: 60 80 08 80 3C 00 11 51  80 08 80 3C 00 11 52 80  `...<..Q...<..R.
1FE0: 08 80 3C 00 11 61 80 08  80 01 1D 20 3D 00 11 01  ..<..a..... =...
1FF0: 80 08 80 3D 00 11 50 80  08 80 3D 00 11 04 80 08  ...=..P...=.....
2000: 80 3C 00 11 60 80 08 80  3D 00 11 51 80 08 80 3D  .<..`...=..Q...=
2010: 00 11 52 80 08 80 3D 00  11 61 80 08 80 1B 02 1B  ..R...=..a......
2020: 00 00 80 80 61 20 3D 00  11 62 80 08 80 3D 00 11  ....a =..b...=..
2030: 0C 80 08 80 3D 00 11 4B  80 08 80 3D 01 11 63 80  ....=..K...=..c.
2040: 08 80 3C 01 11 54 80 08  80 3D 01 11 5F 80 08 80  ..<..T...=.._...
2050: 3D 01 11 60 80 08 80 3D  01 11 51 80 08 80 01 6E  =..`...=..Q....n
2060: 22 02 1B 00 08 80 80 A4  20 3D 00 11 62 80 08 80  "....... =..b...
2070: 3D 00 11 0C 80 08 80 3D  00 11 4B 80 08 80 3D 01  =......=..K...=.
2080: 11 63 80 08 80 3C 01 11  54 80 08 80 3D 01 11 5F  .c...<..T...=.._
2090: 80 08 80 3D 01 11 60 80  08 80 3D 01 11 51 80 08  ...=..`...=..Q..
20A0: 80 01 6E 22 02 1B 00 1C  80 80 E7 20 3D 00 11 62  ..n"....... =..b
20B0: 80 08 80 3D 00 11 0C 80  08 80 3D 00 11 4B 80 08  ...=......=..K..
20C0: 80 3D 01 11 63 80 08 80  3C 01 11 54 80 08 80 3D  .=..c...<..T...=
20D0: 01 11 5F 80 08 80 3D 01  11 60 80 08 80 3D 01 11  .._...=..`...=..
20E0: 51 80 08 80 01 6E 22 02  1B 00 1D 80 80 2A 21 3C  Q....n"......*!<
20F0: 00 11 62 80 08 80 3D 00  11 0C 80 08 80 3D 00 11  ..b...=......=..
2100: 4B 80 08 80 3D 01 11 63  80 08 80 3D 01 11 54 80  K...=..c...=..T.
2110: 08 80 3C 01 11 5F 80 08  80 3D 01 11 60 80 08 80  ..<.._...=..`...
2120: 3D 01 11 51 80 08 80 01  6E 22 02 1B 00 07 80 80  =..Q....n"......
2130: 6D 21 3C 00 11 62 80 08  80 3D 00 11 0C 80 08 80  m!<..b...=......
2140: 3D 00 11 4B 80 08 80 3D  01 11 63 80 08 80 3D 01  =..K...=..c...=.
2150: 11 54 80 08 80 3C 01 11  5F 80 08 80 3D 01 11 60  .T...<.._...=..`
2160: 80 08 80 3D 01 11 51 80  08 80 01 6E 22 02 1B 00  ...=..Q....n"...
2170: 5E 80 80 B0 21 3C 00 11  62 80 08 80 3C 00 11 0C  ^...!<..b...<...
2180: 80 08 80 3D 00 11 4B 80  08 80 3D 01 11 63 80 08  ...=..K...=..c..
2190: 80 3D 01 11 54 80 08 80  3D 01 11 5F 80 08 80 3C  .=..T...=.._...<
21A0: 01 11 60 80 08 80 3D 01  11 51 80 08 80 01 6E 22  ..`...=..Q....n"
21B0: 02 1B 00 01 80 80 F3 21  3C 00 11 62 80 08 80 3C  .......!<..b...<
21C0: 00 11 0C 80 08 80 3D 00  11 4B 80 08 80 3D 01 11  ......=..K...=..
21D0: 63 80 08 80 3D 01 11 54  80 08 80 3D 01 11 5F 80  c...=..T...=.._.
21E0: 08 80 3C 01 11 60 80 08  80 3D 01 11 51 80 08 80  ..<..`...=..Q...
21F0: 01 6E 22 02 1B 00 50 80  80 36 22 3C 00 11 62 80  .n"...P..6"<..b.
2200: 08 80 3C 00 11 0C 80 08  80 3C 00 11 4B 80 08 80  ..<......<..K...
2210: 3C 01 11 63 80 08 80 3D  01 11 54 80 08 80 3D 01  <..c...=..T...=.
2220: 11 5F 80 08 80 3D 01 11  60 80 08 80 3C 01 11 51  ._...=..`...<..Q
2230: 80 08 80 01 6E 22 3D 00  11 62 80 08 80 3D 00 11  ....n"=..b...=..
2240: 0C 80 08 80 3D 00 11 4B  80 08 80 3D 01 11 63 80  ....=..K...=..c.
2250: 08 80 3C 01 11 54 80 08  80 3D 01 11 5F 80 08 80  ..<..T...=.._...
2260: 3D 01 11 60 80 08 80 3D  01 11 51 80 08 80 1B 03  =..`...=..Q.....
2270: 01 10 4B 80 43 00 43 01  03 02 11 02 10 03 03 11  ..K.C.C.........
2280: 03 10 03 04 11 04 10 03  05 11 05 10 03 06 11 06  ................
2290: 10 03 07 11 07 10 03 09  11 08 10 1B 03 01 10 67  ...............g
22A0: 80 47 00 68 80 69 80 6A  80 6B 80 47 01 03 02 11  .G.h.i.j.k.G....
22B0: 02 10 03 03 11 03 10 03  04 11 04 10 03 05 11 05  ................
22C0: 10 03 06 11 06 10 03 07  11 07 10 03 09 11 08 10  ................
22D0: 1B 2F 00 37 80 11 01 2F  00 38 80 11 01 2F 00 39  ./.7.../.8.../.9
22E0: 80 11 01 2F 00 3A 80 11  01 2F 00 3B 80 11 01 2F  .../.:.../.;.../
22F0: 00 3C 80 11 01 2F 00 3D  80 11 01 2F 00 3E 80 11  .<.../.=.../.>..
2300: 01 2F 00 3F 80 11 01 2F  00 40 80 11 01 2F 00 41  ./.?.../.@.../.A
2310: 80 11 01 2F 00 42 80 11  01 2F 00 43 80 11 01 2F  .../.B.../.C.../
2320: 00 44 80 11 01 2F 00 45  80 11 01 2F 00 46 80 11  .D.../.E.../.F..
2330: 01 2F 00 47 80 11 01 2F  00 48 80 11 01 2F 00 49  ./.G.../.H.../.I
2340: 80 11 01 2F 00 4A 80 11  01 2F 00 4B 80 11 01 2F  .../.J.../.K.../
2350: 00 4C 80 11 01 2F 00 4D  80 11 01 2F 00 4E 80 11  .L.../.M.../.N..
2360: 01 AC 02 37 80 11 01 AC  02 38 80 11 01 AC 02 39  ...7.....8.....9
2370: 80 11 01 AC 02 3A 80 11  01 AC 02 3B 80 11 01 AC  .....:.....;....
2380: 02 3C 80 11 01 AC 02 3D  80 11 01 AC 02 3E 80 11  .<.....=.....>..
2390: 01 AC 02 3F 80 11 01 AC  02 40 80 11 01 AC 02 41  ...?.....@.....A
23A0: 80 11 01 AC 02 42 80 11  01 AC 02 43 80 11 01 AC  .....B.....C....
23B0: 02 44 80 11 01 AC 02 45  80 11 01 AC 02 46 80 11  .D.....E.....F..
23C0: 01 AC 02 47 80 11 01 AC  02 48 80 11 01 AC 02 49  ...G.....H.....I
23D0: 80 11 01 AC 02 4A 80 11  01 AC 02 4B 80 11 01 AC  .....J.....K....
23E0: 02 4C 80 11 01 AC 02 4D  80 11 01 AC 02 4E 80 11  .L.....M.....N..
23F0: 01 AC 02 0C 80 11 01 AC  02 0D 80 11 01 AC 02 0E  ................
2400: 80 11 01 41 00 80 08 80  02 11 02 10 02 02 10 08  ...A............
2410: 80 00 1E 24 29 80 0C 80  11 01 03 01 25 24 29 80  ...$).......%$).
2420: 0C 80 11 01 02 41 00 80  08 80 03 11 02 10 02 02  .....A..........
2430: 10 08 80 00 40 24 29 80  0D 80 11 01 03 01 47 24  ....@$).......G$
2440: 29 80 0D 80 11 01 02 41  00 80 08 80 04 11 02 10  )......A........
2450: 02 02 10 08 80 00 62 24  29 80 0E 80 11 01 03 01  ......b$).......
2460: 69 24 29 80 0E 80 11 01  02 27 80 37 80 11 01 02  i$)......'.7....
2470: 27 80 38 80 11 01 02 27  80 39 80 11 01 02 29 80  '.8....'.9....).
2480: 3A 80 11 01 02 27 80 3B  80 11 01 02 27 80 3C 80  :....'.;....'.<.
2490: 11 01 02 27 80 3D 80 11  01 02 29 80 3E 80 11 01  ...'.=....).>...
24A0: 02 27 80 3F 80 11 01 02  27 80 40 80 11 01 02 27  .'.?....'.@....'
24B0: 80 41 80 11 01 02 29 80  42 80 11 01 02 27 80 43  .A....).B....'.C
24C0: 80 11 01 02 27 80 44 80  11 01 02 27 80 45 80 11  ....'.D....'.E..
24D0: 01 02 29 80 46 80 11 01  02 27 80 47 80 11 01 02  ..).F....'.G....
24E0: 27 80 48 80 11 01 02 27  80 49 80 11 01 02 29 80  '.H....'.I....).
24F0: 4A 80 11 01 02 27 80 4B  80 11 01 02 27 80 4C 80  J....'.K....'.L.
2500: 11 01 02 27 80 4D 80 11  01 02 29 80 4E 80 11 01  ...'.M....).N...
2510: 02 1B 42 45 0E 80 F0 FF  FF 7F F0 FF FF 7F 66 64  ..BE..........fd
2520: 6F 30 00 80 55 0E 80 F0  FF FF 7F F0 FF FF 7F 66  o0..U..........f
2530: 64 6F 30 1A 9C 22 1A B1  0E 45 0E 80 F0 FF FF 7F  do0.."...E......
2540: F0 FF FF 7F 66 64 69 30  00 80 55 0E 80 F0 FF FF  ....fdi0..U.....
