# 17924221 - Porter Moogle

## Common Data

| Field            | Value                |
|------------------|----------------------|
| Zone             | Mog Garden (ID: 280) |
| Block Size       | 3028 bytes           |
| Total Events     | 8                    |
| References Count | 116                  |

## List of Events

| Event ID              | Entrypoint   |   Size |   Instructions |
|-----------------------|--------------|--------|----------------|
| [65535](#event-65535) | 0x0000       |      1 |              1 |
| [65534](#event-65534) | 0x0001       |      1 |              1 |
| [800](#event-800)     | 0x0002       |      5 |              3 |
| [801](#event-801)     | 0x0007       |      5 |              3 |
| [802](#event-802)     | 0x000C       |      5 |              3 |
| [803](#event-803)     | 0x0011       |      5 |              3 |
| [804](#event-804)     | 0x0016       |      5 |              3 |
| [805](#event-805)     | 0x001B       |   2487 |            528 |

## DAT References (imed_data)

|   Index | Hex Value   |   Dec Value |
|---------|-------------|-------------|
|       0 | 0x2164      |        8548 |
|       1 | 0x0001      |           1 |
|       2 | 0x2165      |        8549 |
|       3 | 0x0000      |           0 |
|       4 | 0x0002      |           2 |
|       5 | 0x40000000  |  1073741824 |
|       6 | 0x2189      |        8585 |
|       7 | 0x2188      |        8584 |
|       8 | 0x2191      |        8593 |
|       9 | 0x2192      |        8594 |
|      10 | 0x2182      |        8578 |
|      11 | 0x2183      |        8579 |
|      12 | 0x2187      |        8583 |
|      13 | 0x218A      |        8586 |
|      14 | 0x218C      |        8588 |
|      15 | 0x003C      |          60 |
|      16 | 0x218D      |        8589 |
|      17 | 0x218E      |        8590 |
|      18 | 0x2166      |        8550 |
|      19 | 0x2167      |        8551 |
|      20 | 0x7280      |       29312 |
|      21 | 0x2168      |        8552 |
|      22 | 0x7283      |       29315 |
|      23 | 0x2169      |        8553 |
|      24 | 0x728A      |       29322 |
|      25 | 0x216A      |        8554 |
|      26 | 0x216B      |        8555 |
|      27 | 0x216C      |        8556 |
|      28 | 0x216D      |        8557 |
|      29 | 0x216E      |        8558 |
|      30 | 0x216F      |        8559 |
|      31 | 0x2170      |        8560 |
|      32 | 0x2171      |        8561 |
|      33 | 0x2172      |        8562 |
|      34 | 0x2173      |        8563 |
|      35 | 0x2174      |        8564 |
|      36 | 0x2175      |        8565 |
|      37 | 0x2176      |        8566 |
|      38 | 0x2177      |        8567 |
|      39 | 0x2178      |        8568 |
|      40 | 0x0028      |          40 |
|      41 | 0x0010      |          16 |
|      42 | 0x0011      |          17 |
|      43 | 0x2179      |        8569 |
|      44 | 0x0012      |          18 |
|      45 | 0x217A      |        8570 |
|      46 | 0x217B      |        8571 |
|      47 | 0x0003      |           3 |
|      48 | 0x0004      |           4 |
|      49 | 0x0009      |           9 |
|      50 | 0x00C0      |         192 |
|      51 | 0x2180      |        8576 |
|      52 | 0x1FFFE     |      131070 |
|      53 | 0x0006      |           6 |
|      54 | 0x0020      |          32 |
|      55 | 0x2184      |        8580 |
|      56 | 0x3F0B      |       16139 |
|      57 | 0x38F3      |       14579 |
|      58 | 0x3A9B      |       15003 |
|      59 | 0x3D2C      |       15660 |
|      60 | 0x3D83      |       15747 |
|      61 | 0x2CD4      |       11476 |
|      62 | 0x2C27      |       11303 |
|      63 | 0x3ABC      |       15036 |
|      64 | 0x3FE6      |       16358 |
|      65 | 0x2C82      |       11394 |
|      66 | 0x6C22      |       27682 |
|      67 | 0x6CB2      |       27826 |
|      68 | 0x6D3A      |       27962 |
|      69 | 0x6DCD      |       28109 |
|      70 | 0x6E52      |       28242 |
|      71 | 0x6C37      |       27703 |
|      72 | 0x6CC7      |       27847 |
|      73 | 0x6D4F      |       27983 |
|      74 | 0x6DE2      |       28130 |
|      75 | 0x6E67      |       28263 |
|      76 | 0x5A13      |       23059 |
|      77 | 0x5A56      |       23126 |
|      78 | 0x5A99      |       23193 |
|      79 | 0x5ADC      |       23260 |
|      80 | 0x5B1F      |       23327 |
|      81 | 0x5B62      |       23394 |
|      82 | 0x5BA5      |       23461 |
|      83 | 0x5BE8      |       23528 |
|      84 | 0x5C2B      |       23595 |
|      85 | 0x5C6E      |       23662 |
|      86 | 0x7281      |       29313 |
|      87 | 0x7282      |       29314 |
|      88 | 0x7284      |       29316 |
|      89 | 0x7285      |       29317 |
|      90 | 0x7286      |       29318 |
|      91 | 0x7287      |       29319 |
|      92 | 0x7288      |       29320 |
|      93 | 0x7289      |       29321 |
|      94 | 0x728B      |       29323 |
|      95 | 0x728C      |       29324 |
|      96 | 0x728D      |       29325 |
|      97 | 0x728E      |       29326 |
|      98 | 0x728F      |       29327 |
|      99 | 0x7290      |       29328 |
|     100 | 0x7291      |       29329 |
|     101 | 0x7292      |       29330 |
|     102 | 0x7293      |       29331 |
|     103 | 0x7294      |       29332 |
|     104 | 0x7295      |       29333 |
|     105 | 0x7296      |       29334 |
|     106 | 0x7297      |       29335 |
|     107 | 0x7298      |       29336 |
|     108 | 0x7299      |       29337 |
|     109 | 0x729A      |       29338 |
|     110 | 0x729B      |       29339 |
|     111 | 0x729C      |       29340 |
|     112 | 0x729D      |       29341 |
|     113 | 0x729E      |       29342 |
|     114 | 0x729F      |       29343 |
|     115 | 0x72A0      |       29344 |

## String References

- **8548**: Welcome to the MHMU's porter service, kupo! Which of your burdensome belongings shall I take off your hands today?
- **8549**: Do something, kupo? [Porter service?/Buy a storage slip./No, thank you.]
- **8550**: Is your gobbiebag splitting at the seams? Mog Safe spilling over? Why, an accomplished adventurer like yourself surely has more stuff than you know what to do with.
- **8551**: That's where I come in, kupo. I'll gladly hold onto your prized possessions, freeing you space to gather up even grander goodies.
- **8552**: To make use of my services, first you'll need to buy one of these storage slips for the low, low fee of $19 gil.
- **8553**: Storage slips come in numerous varieties, kupo, each corresponding to a different type of item.
- **8554**: You'll want to peruse the fine print closely, so you don't end up paying good gil for a scrap of parchment useless for the particular item you wish to store.
- **8555**: Not that we moogles would object to that sort of donation, kupo.
- **8556**: Choose the item you wish to entrust, then trade it to me along with a single storage slip. I will take the item and return the slip to you, marked with an invisible seal.
- **8557**: Invisible to you, at least. It's plain as day to us moogles, so don't even think of trying to pull one over on us, kupo.
- **8558**: When it comes time to retrieve your item, just trade to me a single storage slip--any slip--once again.
- **8559**: I will present you with a list of all the items currently in my care, and you may choose the one you wish to withdraw. Simple as that, kupo!
- **8560**: What's more, no additional transaction fees will be incurred! Pretty generous of us for a change, no?
- **8561**: Now I bet you're wondering what the catch is, kupo. So as not to disappoint you, there are a few!
- **8562**: For one, any signed items will lose their signatures if you store them with me.
- **8563**: Why, you say? Hey, even we moogles aren't perfect! It's better for both of us if you keep your most precious possessions close at hand, kupo.
- **8564**: Now listen up, because there's another catch, and it's a doozy.
- **8565**: If you lose your storage slip, I won't be able to return your item. Ever. No ifs, ands, or buts! No "I'm sorry, Mister Porter Moogle, it'll never happen again!" Rules are rules, kupo, and someone has to keep them.
- **8566**: Last, but not least, I can't accept equipment bearing Magian trial insignia.
- **8567**: If you have such an item that you're simply dying to entrust to me, you'll have to abandon your trial first, kupo.
- **8568**: And that's all there is to it. This humble moogle can hardly wait to serve you!
- **8570**: $32 will cost you $19 gil. Do we have a deal, kupo?
- **8571**: Deal, kupo? (Current gil: $18). [Check storable items./Deal./No deal.]
- **8578**: Is that $3 I see, kupo?
- **8579**: What will you do? [Retrieve an item./Confirm storable items./Nothing.]
- **8583**: Kupo? I'm already taking care of that item for you.
- **8584**: $0, yes? Very well! Your precious property is safe with me, kupo!
- **8585**: $0 [variety/varieties] of item, is it? Very well! Your precious property is safe with me, kupo!
- **8586**: Is that a Magian insignia I see on that $0? You'll have to abandon your trial before I can take it off your hands, kupo.
- **8588**: Curious as to whether I can accept that item? Let me check my annals.
- **8589**: Why, yes I can! % can be stored with $1.
- **8590**: Why, it looks as if you have $1 located in your [inventory/Mog Safe/Mog Safe 2/Mog House storage/Mog Locker/Mog Satchel/Mog Sack/Mog Case/Mog Wardrobe/Mog Wardrobe 2/Mog Wardrobe 3/Mog Wardrobe 4/Mog Wardrobe 5/Mog Wardrobe 6/Mog Wardrobe 7/Mog Wardrobe 8/Recycle Bin]!
- **8593**: 0: $0 1: $1 2: $2 3: $3
- **8594**: 4: $4 5: $5 6: $6 7: $7

## Events

### Event 65535

#### Metadata

| Field        | Value   |
|--------------|---------|
| Entrypoint   | 0x0000  |
| Data Size    | 1 bytes |
| Instructions | 1       |

```
      00 01 02 03 04 05 06 07  08 09 0A 0B 0C 0D 0E 0F
      -- -- -- -- -- -- -- --  -- -- -- -- -- -- -- --
0000: 00                                                .               
```

#### Opcodes

```
  0: 0x0000 [0x00] END_REQSTACK()
```

### Event 65534

#### Metadata

| Field        | Value   |
|--------------|---------|
| Entrypoint   | 0x0001  |
| Data Size    | 1 bytes |
| Instructions | 1       |

```
      00 01 02 03 04 05 06 07  08 09 0A 0B 0C 0D 0E 0F
      -- -- -- -- -- -- -- --  -- -- -- -- -- -- -- --
0000:    00                                              .              
```

#### Opcodes

```
  0: 0x0001 [0x00] END_REQSTACK()
```

### Event 800

#### Metadata

| Field        | Value   |
|--------------|---------|
| Entrypoint   | 0x0002  |
| Data Size    | 5 bytes |
| Instructions | 3       |

```
      00 01 02 03 04 05 06 07  08 09 0A 0B 0C 0D 0E 0F
      -- -- -- -- -- -- -- --  -- -- -- -- -- -- -- --
0000:       1A 20 00 21 00                                . .!.         
```

#### Opcodes

```
  0: 0x0002 [0x1A] CALL_SUBROUTINE(address=0x0020)
  1: 0x0005 [0x21] END_EVENT
  2: 0x0006 [0x00] END_REQSTACK()
```

### Event 801

#### Metadata

| Field        | Value   |
|--------------|---------|
| Entrypoint   | 0x0007  |
| Data Size    | 5 bytes |
| Instructions | 3       |

```
      00 01 02 03 04 05 06 07  08 09 0A 0B 0C 0D 0E 0F
      -- -- -- -- -- -- -- --  -- -- -- -- -- -- -- --
0000:                      1A  83 00 21 00                     ...!.    
```

#### Opcodes

```
  0: 0x0007 [0x1A] CALL_SUBROUTINE(address=0x0083)
  1: 0x000A [0x21] END_EVENT
  2: 0x000B [0x00] END_REQSTACK()
```

### Event 802

#### Metadata

| Field        | Value   |
|--------------|---------|
| Entrypoint   | 0x000C  |
| Data Size    | 5 bytes |
| Instructions | 3       |

```
      00 01 02 03 04 05 06 07  08 09 0A 0B 0C 0D 0E 0F
      -- -- -- -- -- -- -- --  -- -- -- -- -- -- -- --
0000:                                      1A 9D 00 21              ...!
0010: 00                                                .               
```

#### Opcodes

```
  0: 0x000C [0x1A] CALL_SUBROUTINE(address=0x009D)
  1: 0x000F [0x21] END_EVENT
  2: 0x0010 [0x00] END_REQSTACK()
```

### Event 803

#### Metadata

| Field        | Value   |
|--------------|---------|
| Entrypoint   | 0x0011  |
| Data Size    | 5 bytes |
| Instructions | 3       |

```
      00 01 02 03 04 05 06 07  08 09 0A 0B 0C 0D 0E 0F
      -- -- -- -- -- -- -- --  -- -- -- -- -- -- -- --
0010:    1A 5C 01 21 00                                  .\.!.          
```

#### Opcodes

```
  0: 0x0011 [0x1A] CALL_SUBROUTINE(address=0x015C)
  1: 0x0014 [0x21] END_EVENT
  2: 0x0015 [0x00] END_REQSTACK()
```

### Event 804

#### Metadata

| Field        | Value   |
|--------------|---------|
| Entrypoint   | 0x0016  |
| Data Size    | 5 bytes |
| Instructions | 3       |

```
      00 01 02 03 04 05 06 07  08 09 0A 0B 0C 0D 0E 0F
      -- -- -- -- -- -- -- --  -- -- -- -- -- -- -- --
0010:                   1A 66  01 21 00                       .f.!.     
```

#### Opcodes

```
  0: 0x0016 [0x1A] CALL_SUBROUTINE(address=0x0166)
  1: 0x0019 [0x21] END_EVENT
  2: 0x001A [0x00] END_REQSTACK()
```

### Event 805

#### Metadata

| Field        | Value      |
|--------------|------------|
| Entrypoint   | 0x001B     |
| Data Size    | 2487 bytes |
| Instructions | 13         |

```
      00 01 02 03 04 05 06 07  08 09 0A 0B 0C 0D 0E 0F
      -- -- -- -- -- -- -- --  -- -- -- -- -- -- -- --
0010:                                   1A 70 01 21 00             .p.!.
0020: 03 06 00 02 10 03 09 00  07 10 03 0A 17 08 10 03  ................
0030: 0B 17 09 10 1E F0 FF FF  7F 1D 00 80 23 05 01 00  ............#...
0040: 02 01 00 01 80 00 82 00  24 02 80 03 80 03 80 25  ........$......%
0050: 02 00 10 03 80 00 5E 00  1A 8D 01 01 7F 00 02 00  ......^.........
0060: 10 01 80 00 6C 00 1A 01  02 01 7F 00 02 00 10 04  ....l...........
0070: 80 00 7F 00 06 01 00 03  01 10 05 80 01 7F 00 01  ................
0080: 40 00 1B 1E F0 FF FF 7F  42 02 03 10 01 80 00 98  @.......B.......
0090: 00 1D 06 80 23 01 9C 00  1D 07 80 23 1B 1E F0 FF  ....#......#....
00A0: FF 7F 03 0D 00 02 10 03  0E 00 03 10 03 0F 00 04  ................
00B0: 10 03 10 00 05 10 03 11  00 06 10 03 12 00 07 10  ................
00C0: 03 0B 00 09 10 3E 08 10  03 80 D4 00 03 19 00 01  .....>..........
00D0: 80 01 D9 00 03 19 00 03  80 9D 00 52 09 0C 00 0B  ...........R....
00E0: 00 02 19 00 01 80 00 F1  00 48 08 80 23 48 09 80  .........H..#H..
00F0: 23 03 05 10 0C 00 03 18  17 0C 00 1D 0A 80 23 05  #.............#.
0100: 01 00 02 01 00 01 80 00  5B 01 03 0A 00 03 80 1A  ........[.......
0110: A7 06 02 15 00 03 80 00  21 01 3C 0A 00 03 80 01  ........!.<.....
0120: 80 24 0B 80 03 80 0A 00  25 02 00 10 03 80 00 37  .$......%......7
0130: 01 1A D6 04 01 58 01 02  00 10 01 80 00 45 01 1A  .....X.......E..
0140: 97 03 01 58 01 02 00 10  04 80 00 58 01 03 01 10  ...X.......X....
0150: 05 80 06 01 00 01 58 01  01 02 01 1B 1E F0 FF FF  ......X.........
0160: 7F 1D 0C 80 23 1B 1E F0  FF FF 7F 1D 0D 80 23 1B  ....#.........#.
0170: 1E F0 FF FF 7F 1D 0E 80  23 1C 0F 80 1D 10 80 23  ........#......#
0180: 02 04 10 03 80 04 8C 01  1D 11 80 23 1B 1D 12 80  ...........#....
0190: 23 1D 13 80 23 CC 01 14  80 03 80 03 80 03 80 1D  #...#...........
01A0: 15 80 23 93 03 80 CC 01  16 80 03 80 03 80 03 80  ..#.............
01B0: 1D 17 80 23 93 03 80 CC  01 18 80 03 80 03 80 03  ...#............
01C0: 80 1D 19 80 23 93 03 80  1D 1A 80 23 1D 1B 80 23  ....#......#...#
01D0: 1D 1C 80 23 1D 1D 80 23  1D 1E 80 23 1D 1F 80 23  ...#...#...#...#
01E0: 1D 20 80 23 1D 21 80 23  1D 22 80 23 1D 23 80 23  . .#.!.#.".#.#.#
01F0: 1D 24 80 23 1D 25 80 23  1D 26 80 23 1D 27 80 23  .$.#.%.#.&.#.'.#
0200: 1B 05 24 00 03 08 17 01  80 03 09 17 28 80 15 09  ..$.........(...
0210: 17 29 80 3F 00 00 28 80  29 80 02 00 00 03 80 01  .).?..(.).......
0220: 25 02 0B 09 17 03 26 00  09 17 02 24 00 01 80 00  %.....&....$....
0230: 1F 03 03 09 17 26 00 03  0A 00 03 80 02 08 17 01  .....&..........
0240: 80 00 53 02 3C 0A 00 03  80 01 80 03 03 00 29 80  ..S.<.........).
0250: 01 62 02 02 08 17 09 17  00 62 02 3C 0A 00 2A 80  .b.......b.<..*.
0260: 01 80 03 02 00 03 80 1A  E1 08 02 02 00 29 80 03  .............)..
0270: C2 02 03 05 00 08 17 0C  05 00 14 05 00 29 80 07  .............)..
0280: 05 00 02 00 9D 00 52 09  00 00 05 00 02 00 00 03  ......R.........
0290: 80 00 A6 02 03 00 00 02  00 0B 00 00 3C 0A 00 00  ............<...
02A0: 00 01 80 01 BC 02 03 05  00 02 00 0B 05 00 D4 03  ................
02B0: 05 00 00 00 9D 05 12 09  00 00 02 00 0B 02 00 01  ................
02C0: 6A 02 D4 02 2B 80 03 80  0A 00 25 02 00 10 03 80  j...+.....%.....
02D0: 00 D9 02 0C 08 17 01 1C  03 02 00 10 2A 80 00 E7  ............*...
02E0: 02 0B 08 17 01 1C 03 02  00 10 2C 80 00 F5 02 06  ..........,.....
02F0: 24 00 01 1C 03 03 00 00  08 17 0C 00 00 14 00 00  $...............
0300: 29 80 07 00 00 00 10 0C  00 00 03 0B 00 00 00 03  )...............
0310: 25 00 08 17 1A 20 03 03  08 17 25 00 01 2A 02 1B  %.... ....%..*..
0320: 05 28 00 02 28 00 01 80  00 96 03 9D 00 52 09 18  .(..(........R..
0330: 17 0B 00 CC 01 18 17 03  80 03 80 03 80 1D 2D 80  ..............-.
0340: 23 93 03 80 24 2E 80 03  80 03 80 25 02 00 10 03  #...$......%....
0350: 80 00 5A 03 1A 97 03 01  93 03 02 00 10 01 80 00  ..Z.............
0360: 85 03 06 28 00 06 24 00  06 01 00 03 01 10 03 80  ...(..$.........
0370: 40 03 80 2F 80 01 10 01  80 40 30 80 31 80 01 10  @../.....@0.1...
0380: 0B 00 01 93 03 02 00 10  04 80 00 93 03 06 28 00  ..............(.
0390: 01 93 03 01 23 03 1B 1A  B2 09 03 09 17 17 17 15  ....#...........
03A0: 09 17 29 80 3F 00 00 17  17 29 80 02 00 00 03 80  ..).?....)......
03B0: 01 B6 03 0B 09 17 03 08  17 01 80 03 18 00 03 80  ................
03C0: 03 2A 00 03 80 05 29 00  02 29 00 01 80 00 D5 04  .*....)..)......
03D0: 03 0A 00 03 80 1A E1 08  03 02 00 03 80 03 03 00  ................
03E0: 03 80 03 18 00 08 17 0C  18 00 14 18 00 29 80 03  .............)..
03F0: 2B 00 03 80 02 02 00 32  80 03 3B 04 9D 03 03 80  +......2..;.....
0400: 00 00 02 00 02 00 00 03  80 02 35 04 02 2B 00 18  ..........5..+..
0410: 00 04 32 04 9D 05 12 09  00 00 03 00 0B 03 00 02  ..2.............
0420: 03 00 29 80 04 2C 04 03  02 00 32 80 D4 03 03 00  ..)..,....2.....
0430: 00 00 0B 2B 00 0B 02 00  01 F4 03 03 02 00 03 80  ...+............
0440: 02 02 00 29 80 03 6D 04  9D 00 12 09 00 00 02 00  ...)..m.........
0450: 02 00 00 03 80 00 67 04  03 00 00 02 00 0B 00 00  ......g.........
0460: 3C 0A 00 00 00 01 80 0B  02 00 01 40 04 02 08 17  <..........@....
0470: 01 80 00 7C 04 3C 0A 00  03 80 01 80 02 08 17 09  ...|.<..........
0480: 17 00 8B 04 3C 0A 00 2A  80 01 80 D4 02 33 80 2A  ....<..*.....3.*
0490: 00 0A 00 25 02 00 10 03  80 00 A7 04 0C 08 17 03  ...%............
04A0: 2A 00 03 80 01 D2 04 02  00 10 2A 80 00 BA 04 0B  *.........*.....
04B0: 08 17 03 2A 00 03 80 01  D2 04 02 00 10 2C 80 00  ...*.........,..
04C0: CD 04 06 29 00 03 2A 00  03 80 01 D2 04 03 2A 00  ...)..*.......*.
04D0: 00 10 01 C8 03 1B 1A B2  09 05 2C 00 03 30 00 03  ..........,..0..
04E0: 80 03 09 17 15 00 15 09  17 29 80 3F 00 00 15 00  .........).?....
04F0: 29 80 02 00 00 03 80 01  FD 04 0B 09 17 03 08 17  )...............
0500: 01 80 02 2C 00 01 80 00  A6 06 03 0A 00 34 80 03  ...,.........4..
0510: 2D 00 01 80 03 2E 00 08  17 0C 2E 00 14 2E 00 29  -..............)
0520: 80 03 03 00 03 80 03 2F  00 03 80 1A E1 08 02 03  ......./........
0530: 00 35 80 03 A8 05 9D 00  32 09 13 00 03 00 03 02  .5......2.......
0540: 00 03 80 02 02 00 36 80  03 A2 05 02 2D 00 2A 80  ......6.....-.*.
0550: 03 9C 05 3E 13 00 02 00  9C 05 02 2F 00 2E 00 04  ...>......./....
0560: 99 05 03 00 00 03 00 14  00 00 36 80 07 00 00 02  ..........6.....
0570: 00 9D 03 03 80 14 00 00  00 03 18 00 2D 00 0C 18  ............-...
0580: 00 9D 05 12 09 14 00 18  00 3D 0A 00 2D 00 01 80  .........=..-...
0590: D4 03 2D 00 14 00 0B 2D  00 0B 2F 00 0B 02 00 01  ..-....-../.....
05A0: 43 05 0B 03 00 01 2E 05  02 08 17 01 80 00 B7 05  C...............
05B0: 3C 0A 00 03 80 01 80 02  08 17 09 17 00 C6 05 3C  <..............<
05C0: 0A 00 2A 80 01 80 D4 02  37 80 30 00 0A 00 25 02  ..*.....7.0...%.
05D0: 00 10 03 80 00 E2 05 0C  08 17 03 30 00 03 80 01  ...........0....
05E0: A3 06 02 00 10 2A 80 00  F5 05 0B 08 17 03 30 00  .....*........0.
05F0: 03 80 01 A3 06 02 00 10  2C 80 00 08 06 06 2C 00  ........,.....,.
0600: 03 30 00 03 80 01 A3 06  02 00 10 2A 80 03 A3 06  .0.........*....
0610: 03 00 00 08 17 0C 00 00  14 00 00 29 80 07 00 00  ...........)....
0620: 00 10 0C 00 00 03 01 10  00 00 43 00 43 01 02 19  ..........C.C...
0630: 00 01 80 00 3E 06 48 08  80 23 48 09 80 23 03 0D  ....>.H..#H..#..
0640: 00 02 10 03 0E 00 03 10  03 0F 00 04 10 03 10 00  ................
0650: 05 10 03 11 00 06 10 03  12 00 07 10 1A A7 06 02  ................
0660: 15 00 03 80 02 A0 06 03  09 17 15 00 15 09 17 29  ...............)
0670: 80 3F 00 00 15 00 29 80  02 00 00 03 80 01 83 06  .?....).........
0680: 0B 09 17 02 08 17 09 17  02 98 06 03 08 17 09 17  ................
0690: 03 30 00 03 80 01 9D 06  03 30 00 00 10 01 A3 06  .0.......0......
06A0: 06 2C 00 01 02 05 1B 1A  B2 09 03 15 00 03 80 03  .,..............
06B0: 03 00 03 80 03 18 00 03  80 02 03 00 35 80 03 FF  ............5...
06C0: 06 9D 00 32 09 13 00 03  00 03 02 00 03 80 02 02  ...2............
06D0: 00 36 80 03 F9 06 3E 13  00 02 00 F0 06 9D 03 03  .6....>.........
06E0: 80 00 00 18 00 02 00 00  03 80 01 F0 06 0B 15 00  ................
06F0: 0B 02 00 0B 18 00 01 CE  06 0B 03 00 01 B9 06 1B  ................
0700: 02 00 00 38 80 80 10 07  03 00 00 03 80 01 E0 08  ...8............
0710: 02 00 00 39 80 80 20 07  03 00 00 03 80 01 E0 08  ...9.. .........
0720: 02 00 00 3A 80 80 30 07  03 00 00 03 80 01 E0 08  ...:..0.........
0730: 02 00 00 3B 80 80 40 07  03 00 00 03 80 01 E0 08  ...;..@.........
0740: 02 00 00 3C 80 80 50 07  03 00 00 03 80 01 E0 08  ...<..P.........
0750: 02 00 00 3D 80 80 60 07  03 00 00 03 80 01 E0 08  ...=..`.........
0760: 02 00 00 3E 80 80 70 07  03 00 00 03 80 01 E0 08  ...>..p.........
0770: 02 00 00 3F 80 80 80 07  03 00 00 03 80 01 E0 08  ...?............
0780: 02 00 00 40 80 80 90 07  03 00 00 03 80 01 E0 08  ...@............
0790: 02 00 00 41 80 80 A0 07  03 00 00 03 80 01 E0 08  ...A............
07A0: 02 00 00 42 80 80 B0 07  03 00 00 03 80 01 E0 08  ...B............
07B0: 02 00 00 43 80 80 C0 07  03 00 00 03 80 01 E0 08  ...C............
07C0: 02 00 00 44 80 80 D0 07  03 00 00 03 80 01 E0 08  ...D............
07D0: 02 00 00 45 80 80 E0 07  03 00 00 03 80 01 E0 08  ...E............
07E0: 02 00 00 46 80 80 F0 07  03 00 00 03 80 01 E0 08  ...F............
07F0: 02 00 00 47 80 80 00 08  03 00 00 03 80 01 E0 08  ...G............
0800: 02 00 00 48 80 80 10 08  03 00 00 03 80 01 E0 08  ...H............
0810: 02 00 00 49 80 80 20 08  03 00 00 03 80 01 E0 08  ...I.. .........
0820: 02 00 00 4A 80 80 30 08  03 00 00 03 80 01 E0 08  ...J..0.........
0830: 02 00 00 4B 80 80 40 08  03 00 00 03 80 01 E0 08  ...K..@.........
0840: 02 00 00 4C 80 80 50 08  03 00 00 03 80 01 E0 08  ...L..P.........
0850: 02 00 00 4D 80 80 60 08  03 00 00 03 80 01 E0 08  ...M..`.........
0860: 02 00 00 4E 80 80 70 08  03 00 00 03 80 01 E0 08  ...N..p.........
0870: 02 00 00 4F 80 80 80 08  03 00 00 03 80 01 E0 08  ...O............
0880: 02 00 00 50 80 80 90 08  03 00 00 03 80 01 E0 08  ...P............
0890: 02 00 00 51 80 80 A0 08  03 00 00 03 80 01 E0 08  ...Q............
08A0: 02 00 00 52 80 80 B0 08  03 00 00 03 80 01 E0 08  ...R............
08B0: 02 00 00 53 80 80 C0 08  03 00 00 03 80 01 E0 08  ...S............
08C0: 02 00 00 54 80 80 D0 08  03 00 00 03 80 01 E0 08  ...T............
08D0: 02 00 00 55 80 80 E0 08  03 00 00 03 80 01 E0 08  ...U............
08E0: 1B 06 02 10 06 03 10 06  04 10 06 05 10 06 06 10  ................
08F0: 06 07 10 06 08 10 06 09  10 06 00 17 06 01 17 06  ................
0900: 02 17 06 03 17 06 04 17  06 05 17 06 06 17 06 07  ................
0910: 17 1B 02 10 03 10 04 10  05 10 06 10 07 10 08 10  ................
0920: 09 10 00 17 01 17 02 17  03 17 04 17 05 17 06 17  ................
0930: 07 17 0D 00 0E 00 0F 00  10 00 11 00 12 00 03 80  ................
0940: 03 80 1A 00 1B 00 1C 00  1D 00 1E 00 1F 00 20 00  .............. .
0950: 21 00 14 80 56 80 57 80  16 80 58 80 59 80 5A 80  !...V.W...X.Y.Z.
0960: 5B 80 5C 80 5D 80 18 80  5E 80 5F 80 60 80 61 80  [.\.]...^._.`.a.
0970: 62 80 63 80 64 80 65 80  66 80 67 80 68 80 69 80  b.c.d.e.f.g.h.i.
0980: 6A 80 6B 80 6C 80 6D 80  6E 80 6F 80 70 80 71 80  j.k.l.m.n.o.p.q.
0990: 72 80 73 80 03 80 03 80  03 80 03 80 03 80 03 80  r.s.............
09A0: 03 80 03 80 03 80 03 80  03 80 03 80 03 80 03 80  ................
09B0: 03 80 03 16 17 0B 00 7A  00 7E 80 11 01 27 0B 7E  .......z.~...'.~
09C0: 80 11 01 05 29 0B 7E 80  11 01 05 2A 0B 7E 80 11  ....).~....*.~..
09D0: 01 1B                                             ..              
```

#### Opcodes

```
  0: 0x001B [0x1A] CALL_SUBROUTINE(address=0x0170)
  1: 0x001E [0x21] END_EVENT
  2: 0x001F [0x00] END_REQSTACK()

SUBROUTINE_0170:
  3: 0x0170 [0x1E] EventEntity looks at LocalPlayer and starts talking
  4: 0x0175 [0x1D] PRINT_EVENT_MESSAGE(message_id=8588*)
    → "Curious as to whether I can accept that item? Let me check my annals."
  5: 0x0178 [0x23] WAIT_FOR_DIALOG_INTERACTION
  6: 0x0179 [0x1C] WAIT(60* ticks)
  7: 0x017C [0x1D] PRINT_EVENT_MESSAGE(message_id=8589*)
    → "Why, yes I can! % can be stored with $1."
  8: 0x017F [0x23] WAIT_FOR_DIALOG_INTERACTION
  9: 0x0180 [0x02] IF !(Work_Zone[4] < 0*) GOTO 0x018C
 10: 0x0188 [0x1D] PRINT_EVENT_MESSAGE(message_id=8590*)
    → "Why, it looks as if you have $1 located in your [inventory/Mog Safe/Mog Safe 2/Mog House storage/Mog Locker/Mog Satchel/Mog Sack/Mog Case/Mog Wardrobe/Mog Wardrobe 2/Mog Wardrobe 3/Mog Wardrobe 4/Mog Wardrobe 5/Mog Wardrobe 6/Mog Wardrobe 7/Mog Wardrobe 8/Recycle Bin]!"
 11: 0x018B [0x23] WAIT_FOR_DIALOG_INTERACTION
 12: 0x018C [0x1B] RETURN
```

#### Data or dead code:

```
# Dead code (unreachable instructions):
     0x0020 [0x03] ExtData[1]->WorkLocal[6] = Work_Zone[2]
     0x0025 [0x03] ExtData[1]->WorkLocal[9] = Work_Zone[7]
     0x002A [0x03] Work_Zone_1700[10] = Work_Zone[8]
     0x002F [0x03] Work_Zone_1700[11] = Work_Zone[9]
     0x0034 [0x1E] EventEntity looks at LocalPlayer and starts talking
     0x0039 [0x1D] PRINT_EVENT_MESSAGE(message_id=8548*)
    → "Welcome to the MHMU's porter service, kupo! Which of your burdensome belongings shall I take off your hands today?"
     0x003C [0x23] WAIT_FOR_DIALOG_INTERACTION
     0x003D [0x05] ExtData[1]->WorkLocal[1] = 1
     0x0040 [0x02] IF !(ExtData[1]->WorkLocal[1] == 1*) GOTO 0x0082
     0x0048 [0x24] CREATE_DIALOG(message_id=8549*, default_option=0*, option_flags=0*)
    → "Do something, kupo? [Porter service?/Buy a storage slip./No, thank you.]"
     0x004F [0x25] WAIT_DIALOG_SELECT()
     0x0050 [0x02] IF !(Work_Zone[0] == 0*) GOTO 0x005E
     0x0058 [0x1A] CALL_SUBROUTINE(address=0x018D)
     0x005B [0x01] GOTO 0x007F
     0x005E [0x02] IF !(Work_Zone[0] == 1*) GOTO 0x006C
     0x0066 [0x1A] CALL_SUBROUTINE(address=0x0201)
     0x0069 [0x01] GOTO 0x007F
     0x006C [0x02] IF !(Work_Zone[0] == 2*) GOTO 0x007F
     0x0074 [0x06] ExtData[1]->WorkLocal[1] = 0
     0x0077 [0x03] Work_Zone[1] = 1073741824*
     0x007C [0x01] GOTO 0x007F
     0x007F [0x01] GOTO 0x0040
     0x0082 [0x1B] RETURN
     0x0083 [0x1E] EventEntity looks at LocalPlayer and starts talking
     0x0088 [0x42] SET_CLI_EVENT_CANCEL_DATA()
     0x0089 [0x02] IF !(Work_Zone[3] == 1*) GOTO 0x0098
     0x0091 [0x1D] PRINT_EVENT_MESSAGE(message_id=8585*)
    → "$0 [variety/varieties] of item, is it? Very well! Your precious property is safe with me, kupo!"
     0x0094 [0x23] WAIT_FOR_DIALOG_INTERACTION
     0x0095 [0x01] GOTO 0x009C
     0x0098 [0x1D] PRINT_EVENT_MESSAGE(message_id=8584*)
    → "$0, yes? Very well! Your precious property is safe with me, kupo!"
     0x009B [0x23] WAIT_FOR_DIALOG_INTERACTION
     0x009C [0x1B] RETURN
     0x009D [0x1E] EventEntity looks at LocalPlayer and starts talking
     0x00A2 [0x03] ExtData[1]->WorkLocal[13] = Work_Zone[2]
     0x00A7 [0x03] ExtData[1]->WorkLocal[14] = Work_Zone[3]
     0x00AC [0x03] ExtData[1]->WorkLocal[15] = Work_Zone[4]
     0x00B1 [0x03] ExtData[1]->WorkLocal[16] = Work_Zone[5]
     0x00B6 [0x03] ExtData[1]->WorkLocal[17] = Work_Zone[6]
     0x00BB [0x03] ExtData[1]->WorkLocal[18] = Work_Zone[7]
     0x00C0 [0x03] ExtData[1]->WorkLocal[11] = Work_Zone[9]
     0x00C5 [0x3E] IF !(Work_Zone[8] bit 0*) GOTO 0x00D4
     0x00CC [0x03] ExtData[1]->WorkLocal[25] = 1*
     0x00D1 [0x01] GOTO 0x00D9
     0x00D4 [0x03] ExtData[1]->WorkLocal[25] = 0*
     0x00D9 [0x9D] ExtData[1]->WorkLocal[12] = 0x0952[ExtData[1]->WorkLocal[11]] // Read WORD
     0x00E1 [0x02] IF !(ExtData[1]->WorkLocal[25] == 1*) GOTO 0x00F1
     0x00E9 [0x48] [System] [8593*]:
    → "0: $0 1: $1 2: $2 3: $3"
     0x00EC [0x23] WAIT_FOR_DIALOG_INTERACTION
     0x00ED [0x48] [System] [8594*]:
    → "4: $4 5: $5 6: $6 7: $7"
     0x00F0 [0x23] WAIT_FOR_DIALOG_INTERACTION
     0x00F1 [0x03] Work_Zone[5] = ExtData[1]->WorkLocal[12]
     0x00F6 [0x03] Work_Zone_1700[24] = ExtData[1]->WorkLocal[12]
     0x00FB [0x1D] PRINT_EVENT_MESSAGE(message_id=8578*)
    → "Is that $3 I see, kupo?"
     0x00FE [0x23] WAIT_FOR_DIALOG_INTERACTION
     0x00FF [0x05] ExtData[1]->WorkLocal[1] = 1
     0x0102 [0x02] IF !(ExtData[1]->WorkLocal[1] == 1*) GOTO 0x015B
     0x010A [0x03] ExtData[1]->WorkLocal[10] = 0*
     0x010F [0x1A] CALL_SUBROUTINE(address=0x06A7)
     0x0112 [0x02] IF !(ExtData[1]->WorkLocal[21] == 0*) GOTO 0x0121
     0x011A [0x3C] SET_BIT_FLAG_CONDITIONAL(target_work_offset=ExtData[1]->WorkLocal[10], bit_index_work_offset=0*, condition_work_offset=1*)
     0x0121 [0x24] CREATE_DIALOG(message_id=8579*, default_option=0*, option_flags=ExtData[1]->WorkLocal[10])
    → "What will you do? [Retrieve an item./Confirm storable items./Nothing.]"
     0x0128 [0x25] WAIT_DIALOG_SELECT()
     0x0129 [0x02] IF !(Work_Zone[0] == 0*) GOTO 0x0137
     0x0131 [0x1A] CALL_SUBROUTINE(address=0x04D6)
     0x0134 [0x01] GOTO 0x0158
     0x0137 [0x02] IF !(Work_Zone[0] == 1*) GOTO 0x0145
     0x013F [0x1A] CALL_SUBROUTINE(address=0x0397)
     0x0142 [0x01] GOTO 0x0158
     0x0145 [0x02] IF !(Work_Zone[0] == 2*) GOTO 0x0158
     0x014D [0x03] Work_Zone[1] = 1073741824*
     0x0152 [0x06] ExtData[1]->WorkLocal[1] = 0
     0x0155 [0x01] GOTO 0x0158
     0x0158 [0x01] GOTO 0x0102
     0x015B [0x1B] RETURN
     0x015C [0x1E] EventEntity looks at LocalPlayer and starts talking
     0x0161 [0x1D] PRINT_EVENT_MESSAGE(message_id=8583*)
    → "Kupo? I'm already taking care of that item for you."
     0x0164 [0x23] WAIT_FOR_DIALOG_INTERACTION
     0x0165 [0x1B] RETURN
     0x0166 [0x1E] EventEntity looks at LocalPlayer and starts talking
     0x016B [0x1D] PRINT_EVENT_MESSAGE(message_id=8586*)
    → "Is that a Magian insignia I see on that $0? You'll have to abandon your trial before I can take it off your hands, kupo."
     0x016E [0x23] WAIT_FOR_DIALOG_INTERACTION
     0x016F [0x1B] RETURN
# Dead code (unreachable instructions):
     0x018D [0x1D] PRINT_EVENT_MESSAGE(message_id=8550*)
    → "Is your gobbiebag splitting at the seams? Mog Safe spilling over? Why, an accomplished adventurer like yourself surely has more stuff than you know what to do with."
     0x0190 [0x23] WAIT_FOR_DIALOG_INTERACTION
     0x0191 [0x1D] PRINT_EVENT_MESSAGE(message_id=8551*)
    → "That's where I come in, kupo. I'll gladly hold onto your prized possessions, freeing you space to gather up even grander goodies."
     0x0194 [0x23] WAIT_FOR_DIALOG_INTERACTION
     0x0195 [0xCC] ITEM_INFO_WINDOW_HANDLER(case=0x01 - Open item info window (with chase), check_value=29312*, buffer1=0*, buffer2=0*, buffer3=0*)
     0x019F [0x1D] PRINT_EVENT_MESSAGE(message_id=8552*)
    → "To make use of my services, first you'll need to buy one of these storage slips for the low, low fee of $19 gil."
     0x01A2 [0x23] WAIT_FOR_DIALOG_INTERACTION
     0x01A3 [0x93] DISPLAY_ITEM_INFO(item_id=0*)
     0x01A6 [0xCC] ITEM_INFO_WINDOW_HANDLER(case=0x01 - Open item info window (with chase), check_value=29315*, buffer1=0*, buffer2=0*, buffer3=0*)
     0x01B0 [0x1D] PRINT_EVENT_MESSAGE(message_id=8553*)
    → "Storage slips come in numerous varieties, kupo, each corresponding to a different type of item."
     0x01B3 [0x23] WAIT_FOR_DIALOG_INTERACTION
     0x01B4 [0x93] DISPLAY_ITEM_INFO(item_id=0*)
     0x01B7 [0xCC] ITEM_INFO_WINDOW_HANDLER(case=0x01 - Open item info window (with chase), check_value=29322*, buffer1=0*, buffer2=0*, buffer3=0*)
     0x01C1 [0x1D] PRINT_EVENT_MESSAGE(message_id=8554*)
    → "You'll want to peruse the fine print closely, so you don't end up paying good gil for a scrap of parchment useless for the particular item you wish to store."
     0x01C4 [0x23] WAIT_FOR_DIALOG_INTERACTION
     0x01C5 [0x93] DISPLAY_ITEM_INFO(item_id=0*)
     0x01C8 [0x1D] PRINT_EVENT_MESSAGE(message_id=8555*)
    → "Not that we moogles would object to that sort of donation, kupo."
     0x01CB [0x23] WAIT_FOR_DIALOG_INTERACTION
     0x01CC [0x1D] PRINT_EVENT_MESSAGE(message_id=8556*)
    → "Choose the item you wish to entrust, then trade it to me along with a single storage slip. I will take the item and return the slip to you, marked with an invisible seal."
     0x01CF [0x23] WAIT_FOR_DIALOG_INTERACTION
     0x01D0 [0x1D] PRINT_EVENT_MESSAGE(message_id=8557*)
    → "Invisible to you, at least. It's plain as day to us moogles, so don't even think of trying to pull one over on us, kupo."
     0x01D3 [0x23] WAIT_FOR_DIALOG_INTERACTION
     0x01D4 [0x1D] PRINT_EVENT_MESSAGE(message_id=8558*)
    → "When it comes time to retrieve your item, just trade to me a single storage slip--any slip--once again."
     0x01D7 [0x23] WAIT_FOR_DIALOG_INTERACTION
     0x01D8 [0x1D] PRINT_EVENT_MESSAGE(message_id=8559*)
    → "I will present you with a list of all the items currently in my care, and you may choose the one you wish to withdraw. Simple as that, kupo!"
     0x01DB [0x23] WAIT_FOR_DIALOG_INTERACTION
     0x01DC [0x1D] PRINT_EVENT_MESSAGE(message_id=8560*)
    → "What's more, no additional transaction fees will be incurred! Pretty generous of us for a change, no?"
     0x01DF [0x23] WAIT_FOR_DIALOG_INTERACTION
     0x01E0 [0x1D] PRINT_EVENT_MESSAGE(message_id=8561*)
    → "Now I bet you're wondering what the catch is, kupo. So as not to disappoint you, there are a few!"
     0x01E3 [0x23] WAIT_FOR_DIALOG_INTERACTION
     0x01E4 [0x1D] PRINT_EVENT_MESSAGE(message_id=8562*)
    → "For one, any signed items will lose their signatures if you store them with me."
     0x01E7 [0x23] WAIT_FOR_DIALOG_INTERACTION
     0x01E8 [0x1D] PRINT_EVENT_MESSAGE(message_id=8563*)
    → "Why, you say? Hey, even we moogles aren't perfect! It's better for both of us if you keep your most precious possessions close at hand, kupo."
     0x01EB [0x23] WAIT_FOR_DIALOG_INTERACTION
     0x01EC [0x1D] PRINT_EVENT_MESSAGE(message_id=8564*)
    → "Now listen up, because there's another catch, and it's a doozy."
     0x01EF [0x23] WAIT_FOR_DIALOG_INTERACTION
     0x01F0 [0x1D] PRINT_EVENT_MESSAGE(message_id=8565*)
    → "If you lose your storage slip, I won't be able to return your item. Ever. No ifs, ands, or buts! No "I'm sorry, Mister Porter Moogle, it'll never happen again!" Rules are rules, kupo, and someone has to keep them."
     0x01F3 [0x23] WAIT_FOR_DIALOG_INTERACTION
     0x01F4 [0x1D] PRINT_EVENT_MESSAGE(message_id=8566*)
    → "Last, but not least, I can't accept equipment bearing Magian trial insignia."
     0x01F7 [0x23] WAIT_FOR_DIALOG_INTERACTION
     0x01F8 [0x1D] PRINT_EVENT_MESSAGE(message_id=8567*)
    → "If you have such an item that you're simply dying to entrust to me, you'll have to abandon your trial first, kupo."
     0x01FB [0x23] WAIT_FOR_DIALOG_INTERACTION
     0x01FC [0x1D] PRINT_EVENT_MESSAGE(message_id=8568*)
    → "And that's all there is to it. This humble moogle can hardly wait to serve you!"
     0x01FF [0x23] WAIT_FOR_DIALOG_INTERACTION
     0x0200 [0x1B] RETURN
     0x0201 [0x05] ExtData[1]->WorkLocal[36] = 1
     0x0204 [0x03] Work_Zone_1700[8] = 1*
     0x0209 [0x03] Work_Zone_1700[9] = 40*
     0x020E [0x15] Work_Zone_1700[9] /= 16*
     0x0213 [0x3F] ExtData[1]->WorkLocal[0] = 40* % 16*
     0x021A [0x02] IF !(ExtData[1]->WorkLocal[0] == 0*) GOTO 0x0225
     0x0222 [0x0B] Work_Zone_1700[9]++
     0x0225 [0x03] ExtData[1]->WorkLocal[38] = Work_Zone_1700[9]
     0x022A [0x02] IF !(ExtData[1]->WorkLocal[36] == 1*) GOTO 0x031F
     0x0232 [0x03] Work_Zone_1700[9] = ExtData[1]->WorkLocal[38]
     0x0237 [0x03] ExtData[1]->WorkLocal[10] = 0*
     0x023C [0x02] IF !(Work_Zone_1700[8] == 1*) GOTO 0x0253
     0x0244 [0x3C] SET_BIT_FLAG_CONDITIONAL(target_work_offset=ExtData[1]->WorkLocal[10], bit_index_work_offset=0*, condition_work_offset=1*)
     0x024B [0x03] ExtData[1]->WorkLocal[3] = 16*
     0x0250 [0x01] GOTO 0x0262
     0x0253 [0x02] IF !(Work_Zone_1700[8] == Work_Zone_1700[9]) GOTO 0x0262
     0x025B [0x3C] SET_BIT_FLAG_CONDITIONAL(target_work_offset=ExtData[1]->WorkLocal[10], bit_index_work_offset=17*, condition_work_offset=1*)
     0x0262 [0x03] ExtData[1]->WorkLocal[2] = 0*
     0x0267 [0x1A] CALL_SUBROUTINE(address=0x08E1)
     0x026A [0x02] IF !(ExtData[1]->WorkLocal[2] >= 16*) GOTO 0x02C2
     0x0272 [0x03] ExtData[1]->WorkLocal[5] = Work_Zone_1700[8]
     0x0277 [0x0C] ExtData[1]->WorkLocal[5]--
     0x027A [0x14] ExtData[1]->WorkLocal[5] *= 16*
     0x027F [0x07] ExtData[1]->WorkLocal[5] += ExtData[1]->WorkLocal[2]
     0x0284 [0x9D] ExtData[1]->WorkLocal[0] = 0x0952[ExtData[1]->WorkLocal[5]] // Read WORD
     0x028C [0x02] IF !(ExtData[1]->WorkLocal[0] == 0*) GOTO 0x02A6
     0x0294 [0x03] ExtData[1]->WorkLocal[0] = ExtData[1]->WorkLocal[2]
     0x0299 [0x0B] ExtData[1]->WorkLocal[0]++
     0x029C [0x3C] SET_BIT_FLAG_CONDITIONAL(target_work_offset=ExtData[1]->WorkLocal[10], bit_index_work_offset=ExtData[1]->WorkLocal[0], condition_work_offset=1*)
     0x02A3 [0x01] GOTO 0x02BC
     0x02A6 [0x03] ExtData[1]->WorkLocal[5] = ExtData[1]->WorkLocal[2]
     0x02AB [0x0B] ExtData[1]->WorkLocal[5]++
     0x02AE [0xD4] MAP_QUERY_WINDOW: Prepare buffer configuration A (buffer=[05 00 00 00 9D 05 12 09...])
     0x02CC [0x00] END_REQSTACK()
     0x02CD [0x10] 0* <<= 0xD900
     0x02D2 [0x02] IF !(0x080C UNKNOWN_COND_12 0x0117) GOTO 0x0203
     0x02DA [0x00] END_REQSTACK()
     0x02DB [0x10] 17* <<= 0xE700
     0x02E0 [0x02] IF !(0x080B UNKNOWN_COND_12 0x0117) GOTO 0x0203
     0x02E8 [0x00] END_REQSTACK()
     0x02E9 [0x10] 18* <<= 0xF500
     0x02EE [0x02] IF !(0x2406 UNKNOWN_COND_12 0x0100) GOTO 0x0303
     0x02F6 [0x00] END_REQSTACK()
     0x02F7 [0x00] END_REQSTACK()
     0x02F8 [0x08] 0x0C17 -= ExtData[1]->WorkLocal[0]
     0x02FD [0x14] ExtData[1]->WorkLocal[0] *= 16*
     0x0302 [0x07] ExtData[1]->WorkLocal[0] += Work_Zone[0]
     0x0307 [0x0C] ExtData[1]->WorkLocal[0]--
     0x030A [0x03] ExtData[1]->WorkLocal[11] = ExtData[1]->WorkLocal[0]
     0x030F [0x03] ExtData[1]->WorkLocal[37] = Work_Zone_1700[8]
     0x0314 [0x1A] CALL_SUBROUTINE(address=0x0320)
     0x0317 [0x03] Work_Zone_1700[8] = ExtData[1]->WorkLocal[37]
     0x031C [0x01] GOTO 0x022A
     0x031F [0x1B] RETURN
     0x0320 [0x05] ExtData[1]->WorkLocal[40] = 1
     0x0323 [0x02] IF !(ExtData[1]->WorkLocal[40] == 1*) GOTO 0x0396
     0x032B [0x9D] Work_Zone_1700[24] = 0x0952[ExtData[1]->WorkLocal[11]] // Read WORD
     0x0333 [0xCC] ITEM_INFO_WINDOW_HANDLER(case=0x01 - Open item info window (with chase), check_value=Work_Zone_1700[24], buffer1=0*, buffer2=0*, buffer3=0*)
     0x033D [0x1D] PRINT_EVENT_MESSAGE(message_id=8570*)
    → "$32 will cost you $19 gil. Do we have a deal, kupo?"
     0x0340 [0x23] WAIT_FOR_DIALOG_INTERACTION
     0x0341 [0x93] DISPLAY_ITEM_INFO(item_id=0*)
     0x0344 [0x24] CREATE_DIALOG(message_id=8571*, default_option=0*, option_flags=0*)
    → "Deal, kupo? (Current gil: $18). [Check storable items./Deal./No deal.]"
     0x034B [0x25] WAIT_DIALOG_SELECT()
     0x034C [0x02] IF !(Work_Zone[0] == 0*) GOTO 0x035A
     0x0354 [0x1A] CALL_SUBROUTINE(address=0x0397)
     0x0357 [0x01] GOTO 0x0393
     0x035A [0x02] IF !(Work_Zone[0] == 1*) GOTO 0x0385
     0x0362 [0x06] ExtData[1]->WorkLocal[40] = 0
     0x0365 [0x06] ExtData[1]->WorkLocal[36] = 0
     0x0368 [0x06] ExtData[1]->WorkLocal[1] = 0
     0x036B [0x03] Work_Zone[1] = 0*
     0x0370 [0x40] SET_BIT_WORK_RANGE(start_bit=0*, end_bit=3*, target=Work_Zone[1], source=1*)
     0x0379 [0x40] SET_BIT_WORK_RANGE(start_bit=4*, end_bit=9*, target=Work_Zone[1], source=ExtData[1]->WorkLocal[11])
     0x0382 [0x01] GOTO 0x0393
     0x0385 [0x02] IF !(Work_Zone[0] == 2*) GOTO 0x0393
     0x038D [0x06] ExtData[1]->WorkLocal[40] = 0
     0x0390 [0x01] GOTO 0x0393
     0x0393 [0x01] GOTO 0x0323
     0x0396 [0x1B] RETURN
     0x0397 [0x1A] CALL_SUBROUTINE(address=0x09B2)
     0x039A [0x03] Work_Zone_1700[9] = Work_Zone_1700[23]
     0x039F [0x15] Work_Zone_1700[9] /= 16*
     0x03A4 [0x3F] ExtData[1]->WorkLocal[0] = Work_Zone_1700[23] % 16*
     0x03AB [0x02] IF !(ExtData[1]->WorkLocal[0] == 0*) GOTO 0x03B6
     0x03B3 [0x0B] Work_Zone_1700[9]++
     0x03B6 [0x03] Work_Zone_1700[8] = 1*
     0x03BB [0x03] ExtData[1]->WorkLocal[24] = 0*
     0x03C0 [0x03] ExtData[1]->WorkLocal[42] = 0*
     0x03C5 [0x05] ExtData[1]->WorkLocal[41] = 1
     0x03C8 [0x02] IF !(ExtData[1]->WorkLocal[41] == 1*) GOTO 0x04D5
     0x03D0 [0x03] ExtData[1]->WorkLocal[10] = 0*
     0x03D5 [0x1A] CALL_SUBROUTINE(address=0x08E1)
     0x03D8 [0x03] ExtData[1]->WorkLocal[2] = 0*
     0x03DD [0x03] ExtData[1]->WorkLocal[3] = 0*
     0x03E2 [0x03] ExtData[1]->WorkLocal[24] = Work_Zone_1700[8]
     0x03E7 [0x0C] ExtData[1]->WorkLocal[24]--
     0x03EA [0x14] ExtData[1]->WorkLocal[24] *= 16*
     0x03EF [0x03] ExtData[1]->WorkLocal[43] = 0*
     0x03F4 [0x02] IF !(ExtData[1]->WorkLocal[2] >= 192*) GOTO 0x043B
     0x03FC [0x9D] ExtData[1]->WorkLocal[2] = Work_Zone[0*][ExtData[1]->WorkLocal[0]] // Via remapped space
     0x0404 [0x02] IF !(ExtData[1]->WorkLocal[0] <= 0*) GOTO 0x0435
     0x040C [0x02] IF !(ExtData[1]->WorkLocal[43] < ExtData[1]->WorkLocal[24]) GOTO 0x0432
     0x0414 [0x9D] 0x0912[ExtData[1]->WorkLocal[3] * 2] = ExtData[1]->WorkLocal[0] // Write WORD
     0x041C [0x0B] ExtData[1]->WorkLocal[3]++
     0x041F [0x02] IF !(ExtData[1]->WorkLocal[3] < 16*) GOTO 0x042C
     0x0427 [0x03] ExtData[1]->WorkLocal[2] = 192*
     0x042C [0xD4] MAP_QUERY_WINDOW: Prepare buffer configuration A (buffer=[03 00 00 00 0B 2B 00 0B...])
     0x044A [0x12] ExtData[1]->WorkLocal[9] = rand()
     0x044D [0x00] END_REQSTACK()
     0x044E [0x02] IF !(0x0200 >= ExtData[1]->WorkLocal[0]) GOTO 0x0080
     0x0456 [0x67] HIDE_HUD_ELEMENTS(param1=0x0304, param2=0x00)
     0x045B [0x02] IF !(0x0B00 UNKNOWN_COND_12 ExtData[1]->WorkLocal[0]) GOTO 0x000A
     0x0463 [0x00] END_REQSTACK()
     0x0464 [0x00] END_REQSTACK()
     0x0465 [0x01] GOTO 0x0B80
     0x0468 [0x02] IF !(0x0100 <= 0x0440) GOTO 0x1708
     0x0470 [0x01] GOTO 0x0080
     0x0473 [0x7C] Unknown NPC (ID: 50334268/0x03000A3C)->Render.Flags2 |= 0x04
     0x0479 [0x80] LOAD_WAIT(entity=Unknown NPC (ID: 134381569/0x08028001))
     0x047E [0x17] Work_Zone_1700[9] = cos(References[2816]) * 0x3C04
     0x0485 [0x0A] 0x2A00 &= ~(1 << 0x0180)
     0x048A [0x80] LOAD_WAIT(entity=Unknown NPC (ID: 2150826708/0x803302D4))
     0x048F [0x2A] GET_REQ_LEVEL(level=0, entity_id=Unknown NPC (ID: 35979274/0x0225000A))
     0x0495 [0x00] END_REQSTACK()
     0x0496 [0x10] 0* <<= 0xA700
     0x049B [0x04] DEPRECATED_NOP(unused=0x080C)
     0x049E [0x17] 0x2A03 = cos(0x0300) * 0x0180
     0x04A5 [0xD2] END_LOAD_SCHEDULER_MAIN_ALT7: End scheduler 0x00001708 with entities [Unknown NPC (ID: 2150240256/0x802A1000), Unknown NPC (ID: 184859136/0x0B04BA00)], work=ExtData[1]->WorkLocal[42]
     0x04B4 [0x00] END_REQSTACK()
     0x04B5 [0x03] 0x0180 = 0x04D2
     0x04BA [0x02] IF !(Work_Zone[0] == 18*) GOTO 0x04CD
     0x04C2 [0x06] ExtData[1]->WorkLocal[41] = 0
     0x04C5 [0x03] ExtData[1]->WorkLocal[42] = 0*
     0x04CA [0x01] GOTO 0x04D2
     0x04CD [0x03] ExtData[1]->WorkLocal[42] = Work_Zone[0]
     0x04D2 [0x01] GOTO 0x03C8
     0x04D5 [0x1B] RETURN
     0x04D6 [0x1A] CALL_SUBROUTINE(address=0x09B2)
     0x04D9 [0x05] ExtData[1]->WorkLocal[44] = 1
     0x04DC [0x03] ExtData[1]->WorkLocal[48] = 0*
     0x04E1 [0x03] Work_Zone_1700[9] = ExtData[1]->WorkLocal[21]
     0x04E6 [0x15] Work_Zone_1700[9] /= 16*
     0x04EB [0x3F] ExtData[1]->WorkLocal[0] = ExtData[1]->WorkLocal[21] % 16*
     0x04F2 [0x02] IF !(ExtData[1]->WorkLocal[0] == 0*) GOTO 0x04FD
     0x04FA [0x0B] Work_Zone_1700[9]++
     0x04FD [0x03] Work_Zone_1700[8] = 1*
     0x0502 [0x02] IF !(ExtData[1]->WorkLocal[44] == 1*) GOTO 0x06A6
     0x050A [0x03] ExtData[1]->WorkLocal[10] = 131070*
     0x050F [0x03] ExtData[1]->WorkLocal[45] = 1*
     0x0514 [0x03] ExtData[1]->WorkLocal[46] = Work_Zone_1700[8]
     0x0519 [0x0C] ExtData[1]->WorkLocal[46]--
     0x051C [0x14] ExtData[1]->WorkLocal[46] *= 16*
     0x0521 [0x03] ExtData[1]->WorkLocal[3] = 0*
     0x0526 [0x03] ExtData[1]->WorkLocal[47] = 0*
     0x052B [0x1A] CALL_SUBROUTINE(address=0x08E1)
     0x052E [0x02] IF !(ExtData[1]->WorkLocal[3] >= 6*) GOTO 0x05A8
     0x0536 [0x9D] ExtData[1]->WorkLocal[19] = 0x0932[ExtData[1]->WorkLocal[3]] // Read WORD
     0x053E [0x03] ExtData[1]->WorkLocal[2] = 0*
     0x0543 [0x02] IF !(ExtData[1]->WorkLocal[2] >= 32*) GOTO 0x05A2
     0x054B [0x02] IF !(ExtData[1]->WorkLocal[45] >= 17*) GOTO 0x059C
     0x0553 [0x3E] IF !(ExtData[1]->WorkLocal[19] bit ExtData[1]->WorkLocal[2]) GOTO 0x059C
     0x055A [0x02] IF !(ExtData[1]->WorkLocal[47] < ExtData[1]->WorkLocal[46]) GOTO 0x0599
     0x0562 [0x03] ExtData[1]->WorkLocal[0] = ExtData[1]->WorkLocal[3]
     0x0567 [0x14] ExtData[1]->WorkLocal[0] *= 32*
     0x056C [0x07] ExtData[1]->WorkLocal[0] += ExtData[1]->WorkLocal[2]
     0x0571 [0x9D] ExtData[1]->WorkLocal[0] = Work_Zone[0*][ExtData[1]->WorkLocal[20]] // Via remapped space
     0x0579 [0x03] ExtData[1]->WorkLocal[24] = ExtData[1]->WorkLocal[45]
     0x057E [0x0C] ExtData[1]->WorkLocal[24]--
     0x0581 [0x9D] 0x0912[ExtData[1]->WorkLocal[24] * 2] = ExtData[1]->WorkLocal[20] // Write WORD
     0x0589 [0x3D] CLEAR_BIT_FLAG_CONDITIONAL(target_work_offset=ExtData[1]->WorkLocal[10], bit_index_work_offset=ExtData[1]->WorkLocal[45], condition_work_offset=1*)
     0x0590 [0xD4] MAP_QUERY_WINDOW: Prepare buffer configuration A (buffer=[2D 00 14 00 0B 2D 00 0B...])
     0x05AE [0xB7] ENTITY_DATA_HANDLER: Unknown case 0x05 for Unknown NPC (ID: 50334268/0x03000A3C)
     0x05B6 [0x80] LOAD_WAIT(entity=Unknown NPC (ID: 152504322/0x09170802))
     0x05BB [0x17] 0xC600 = cos(0x3C05) * ExtData[1]->WorkLocal[10]
     0x05C2 [0x2A] GET_REQ_LEVEL(level=128, entity_id=Unknown NPC (ID: 47480833/0x02D48001))
     0x05C8 [0x37] UPDATE_EVENT_POSITION_AND_DIR: x=0x3080, z=0x0A00, y=0x2500, direction=ExtData[1]->WorkLocal[2]
     0x05D1 [0x10] 0* <<= 0xE200
     0x05D6 [0x05] 0x080C = 1
     0x05D9 [0x17] 0x3003 = cos(0x0300) * 0x0180
     0x05E0 [0xA3] END_LOAD_SCHEDULER_MAIN_ALT: End scheduler 0x30031708 with entities [Unknown NPC (ID: 2150240256/0x802A1000), Unknown NPC (ID: 184939776/0x0B05F500)], work=0x0206
     0x05EF [0x00] END_REQSTACK()
     0x05F0 [0x03] 0x0180 = 0x06A3
     0x05F5 [0x02] IF !(Work_Zone[0] == 18*) GOTO 0x0608
     0x05FD [0x06] ExtData[1]->WorkLocal[44] = 0
     0x0600 [0x03] ExtData[1]->WorkLocal[48] = 0*
     0x0605 [0x01] GOTO 0x06A3
     0x0608 [0x02] IF !(Work_Zone[0] >= 17*) GOTO 0x06A3
     0x0610 [0x03] ExtData[1]->WorkLocal[0] = Work_Zone_1700[8]
     0x0615 [0x0C] ExtData[1]->WorkLocal[0]--
     0x0618 [0x14] ExtData[1]->WorkLocal[0] *= 16*
     0x061D [0x07] ExtData[1]->WorkLocal[0] += Work_Zone[0]
     0x0622 [0x0C] ExtData[1]->WorkLocal[0]--
     0x0625 [0x03] Work_Zone[1] = ExtData[1]->WorkLocal[0]
     0x062A [0x43] SEND_EVENT_UPDATE: Send pending tag to server (packet 0x005B)
     0x062C [0x43] SEND_EVENT_UPDATE: Check pending flag (skip if not pending)
     0x062E [0x02] IF !(ExtData[1]->WorkLocal[25] == 1*) GOTO 0x063E
     0x0636 [0x48] [System] [8593*]:
    → "0: $0 1: $1 2: $2 3: $3"
     0x0639 [0x23] WAIT_FOR_DIALOG_INTERACTION
     0x063A [0x48] [System] [8594*]:
    → "4: $4 5: $5 6: $6 7: $7"
     0x063D [0x23] WAIT_FOR_DIALOG_INTERACTION
     0x063E [0x03] ExtData[1]->WorkLocal[13] = Work_Zone[2]
     0x0643 [0x03] ExtData[1]->WorkLocal[14] = Work_Zone[3]
     0x0648 [0x03] ExtData[1]->WorkLocal[15] = Work_Zone[4]
     0x064D [0x03] ExtData[1]->WorkLocal[16] = Work_Zone[5]
     0x0652 [0x03] ExtData[1]->WorkLocal[17] = Work_Zone[6]
     0x0657 [0x03] ExtData[1]->WorkLocal[18] = Work_Zone[7]
     0x065C [0x1A] CALL_SUBROUTINE(address=0x06A7)
     0x065F [0x02] IF !(ExtData[1]->WorkLocal[21] <= 0*) GOTO 0x06A0
     0x0667 [0x03] Work_Zone_1700[9] = ExtData[1]->WorkLocal[21]
     0x066C [0x15] Work_Zone_1700[9] /= 16*
     0x0671 [0x3F] ExtData[1]->WorkLocal[0] = ExtData[1]->WorkLocal[21] % 16*
     0x0678 [0x02] IF !(ExtData[1]->WorkLocal[0] == 0*) GOTO 0x0683
     0x0680 [0x0B] Work_Zone_1700[9]++
     0x0683 [0x02] IF !(Work_Zone_1700[8] <= Work_Zone_1700[9]) GOTO 0x0698
     0x068B [0x03] Work_Zone_1700[8] = Work_Zone_1700[9]
     0x0690 [0x03] ExtData[1]->WorkLocal[48] = 0*
     0x0695 [0x01] GOTO 0x069D
     0x0698 [0x03] ExtData[1]->WorkLocal[48] = Work_Zone[0]
     0x069D [0x01] GOTO 0x06A3
     0x06A0 [0x06] ExtData[1]->WorkLocal[44] = 0
     0x06A3 [0x01] GOTO 0x0502
     0x06A6 [0x1B] RETURN
     0x06A7 [0x1A] CALL_SUBROUTINE(address=0x09B2)
     0x06AA [0x03] ExtData[1]->WorkLocal[21] = 0*
     0x06AF [0x03] ExtData[1]->WorkLocal[3] = 0*
     0x06B4 [0x03] ExtData[1]->WorkLocal[24] = 0*
     0x06B9 [0x02] IF !(ExtData[1]->WorkLocal[3] >= 6*) GOTO 0x06FF
     0x06C1 [0x9D] ExtData[1]->WorkLocal[19] = 0x0932[ExtData[1]->WorkLocal[3]] // Read WORD
     0x06C9 [0x03] ExtData[1]->WorkLocal[2] = 0*
     0x06CE [0x02] IF !(ExtData[1]->WorkLocal[2] >= 32*) GOTO 0x06F9
     0x06D6 [0x3E] IF !(ExtData[1]->WorkLocal[19] bit ExtData[1]->WorkLocal[2]) GOTO 0x06F0
     0x06DD [0x9D] ExtData[1]->WorkLocal[24] = Work_Zone[0*][ExtData[1]->WorkLocal[0]] // Via remapped space
     0x06E5 [0x02] IF !(ExtData[1]->WorkLocal[0] == 0*) GOTO 0x06F0
     0x06ED [0x0B] ExtData[1]->WorkLocal[21]++
     0x06F0 [0x0B] ExtData[1]->WorkLocal[2]++
     0x06F3 [0x0B] ExtData[1]->WorkLocal[24]++
     0x06F6 [0x01] GOTO 0x06CE
     0x06F9 [0x0B] ExtData[1]->WorkLocal[3]++
     0x06FC [0x01] GOTO 0x06B9
     0x06FF [0x1B] RETURN
     0x0700 [0x02] IF !(ExtData[1]->WorkLocal[0] == 16139*) GOTO 0x0710
     0x0708 [0x03] ExtData[1]->WorkLocal[0] = 0*
     0x070D [0x01] GOTO 0x08E0
     0x0710 [0x02] IF !(ExtData[1]->WorkLocal[0] == 14579*) GOTO 0x0720
     0x0718 [0x03] ExtData[1]->WorkLocal[0] = 0*
     0x071D [0x01] GOTO 0x08E0
     0x0720 [0x02] IF !(ExtData[1]->WorkLocal[0] == 15003*) GOTO 0x0730
     0x0728 [0x03] ExtData[1]->WorkLocal[0] = 0*
     0x072D [0x01] GOTO 0x08E0
     0x0730 [0x02] IF !(ExtData[1]->WorkLocal[0] == 15660*) GOTO 0x0740
     0x0738 [0x03] ExtData[1]->WorkLocal[0] = 0*
     0x073D [0x01] GOTO 0x08E0
     0x0740 [0x02] IF !(ExtData[1]->WorkLocal[0] == 15747*) GOTO 0x0750
     0x0748 [0x03] ExtData[1]->WorkLocal[0] = 0*
     0x074D [0x01] GOTO 0x08E0
     0x0750 [0x02] IF !(ExtData[1]->WorkLocal[0] == 11476*) GOTO 0x0760
     0x0758 [0x03] ExtData[1]->WorkLocal[0] = 0*
     0x075D [0x01] GOTO 0x08E0
     0x0760 [0x02] IF !(ExtData[1]->WorkLocal[0] == 11303*) GOTO 0x0770
     0x0768 [0x03] ExtData[1]->WorkLocal[0] = 0*
     0x076D [0x01] GOTO 0x08E0
     0x0770 [0x02] IF !(ExtData[1]->WorkLocal[0] == 15036*) GOTO 0x0780
     0x0778 [0x03] ExtData[1]->WorkLocal[0] = 0*
     0x077D [0x01] GOTO 0x08E0
     0x0780 [0x02] IF !(ExtData[1]->WorkLocal[0] == 16358*) GOTO 0x0790
     0x0788 [0x03] ExtData[1]->WorkLocal[0] = 0*
     0x078D [0x01] GOTO 0x08E0
     0x0790 [0x02] IF !(ExtData[1]->WorkLocal[0] == 11394*) GOTO 0x07A0
     0x0798 [0x03] ExtData[1]->WorkLocal[0] = 0*
     0x079D [0x01] GOTO 0x08E0
     0x07A0 [0x02] IF !(ExtData[1]->WorkLocal[0] == 27682*) GOTO 0x07B0
     0x07A8 [0x03] ExtData[1]->WorkLocal[0] = 0*
     0x07AD [0x01] GOTO 0x08E0
     0x07B0 [0x02] IF !(ExtData[1]->WorkLocal[0] == 27826*) GOTO 0x07C0
     0x07B8 [0x03] ExtData[1]->WorkLocal[0] = 0*
     0x07BD [0x01] GOTO 0x08E0
     0x07C0 [0x02] IF !(ExtData[1]->WorkLocal[0] == 27962*) GOTO 0x07D0
     0x07C8 [0x03] ExtData[1]->WorkLocal[0] = 0*
     0x07CD [0x01] GOTO 0x08E0
     0x07D0 [0x02] IF !(ExtData[1]->WorkLocal[0] == 28109*) GOTO 0x07E0
     0x07D8 [0x03] ExtData[1]->WorkLocal[0] = 0*
     0x07DD [0x01] GOTO 0x08E0
     0x07E0 [0x02] IF !(ExtData[1]->WorkLocal[0] == 28242*) GOTO 0x07F0
     0x07E8 [0x03] ExtData[1]->WorkLocal[0] = 0*
     0x07ED [0x01] GOTO 0x08E0
     0x07F0 [0x02] IF !(ExtData[1]->WorkLocal[0] == 27703*) GOTO 0x0800
     0x07F8 [0x03] ExtData[1]->WorkLocal[0] = 0*
     0x07FD [0x01] GOTO 0x08E0
     0x0800 [0x02] IF !(ExtData[1]->WorkLocal[0] == 27847*) GOTO 0x0810
     0x0808 [0x03] ExtData[1]->WorkLocal[0] = 0*
     0x080D [0x01] GOTO 0x08E0
     0x0810 [0x02] IF !(ExtData[1]->WorkLocal[0] == 27983*) GOTO 0x0820
     0x0818 [0x03] ExtData[1]->WorkLocal[0] = 0*
     0x081D [0x01] GOTO 0x08E0
     0x0820 [0x02] IF !(ExtData[1]->WorkLocal[0] == 28130*) GOTO 0x0830
     0x0828 [0x03] ExtData[1]->WorkLocal[0] = 0*
     0x082D [0x01] GOTO 0x08E0
     0x0830 [0x02] IF !(ExtData[1]->WorkLocal[0] == 28263*) GOTO 0x0840
     0x0838 [0x03] ExtData[1]->WorkLocal[0] = 0*
     0x083D [0x01] GOTO 0x08E0
     0x0840 [0x02] IF !(ExtData[1]->WorkLocal[0] == 23059*) GOTO 0x0850
     0x0848 [0x03] ExtData[1]->WorkLocal[0] = 0*
     0x084D [0x01] GOTO 0x08E0
     0x0850 [0x02] IF !(ExtData[1]->WorkLocal[0] == 23126*) GOTO 0x0860
     0x0858 [0x03] ExtData[1]->WorkLocal[0] = 0*
     0x085D [0x01] GOTO 0x08E0
     0x0860 [0x02] IF !(ExtData[1]->WorkLocal[0] == 23193*) GOTO 0x0870
     0x0868 [0x03] ExtData[1]->WorkLocal[0] = 0*
     0x086D [0x01] GOTO 0x08E0
     0x0870 [0x02] IF !(ExtData[1]->WorkLocal[0] == 23260*) GOTO 0x0880
     0x0878 [0x03] ExtData[1]->WorkLocal[0] = 0*
     0x087D [0x01] GOTO 0x08E0
     0x0880 [0x02] IF !(ExtData[1]->WorkLocal[0] == 23327*) GOTO 0x0890
     0x0888 [0x03] ExtData[1]->WorkLocal[0] = 0*
     0x088D [0x01] GOTO 0x08E0
     0x0890 [0x02] IF !(ExtData[1]->WorkLocal[0] == 23394*) GOTO 0x08A0
     0x0898 [0x03] ExtData[1]->WorkLocal[0] = 0*
     0x089D [0x01] GOTO 0x08E0
     0x08A0 [0x02] IF !(ExtData[1]->WorkLocal[0] == 23461*) GOTO 0x08B0
     0x08A8 [0x03] ExtData[1]->WorkLocal[0] = 0*
     0x08AD [0x01] GOTO 0x08E0
     0x08B0 [0x02] IF !(ExtData[1]->WorkLocal[0] == 23528*) GOTO 0x08C0
     0x08B8 [0x03] ExtData[1]->WorkLocal[0] = 0*
     0x08BD [0x01] GOTO 0x08E0
     0x08C0 [0x02] IF !(ExtData[1]->WorkLocal[0] == 23595*) GOTO 0x08D0
     0x08C8 [0x03] ExtData[1]->WorkLocal[0] = 0*
     0x08CD [0x01] GOTO 0x08E0
     0x08D0 [0x02] IF !(ExtData[1]->WorkLocal[0] == 23662*) GOTO 0x08E0
     0x08D8 [0x03] ExtData[1]->WorkLocal[0] = 0*
     0x08DD [0x01] GOTO 0x08E0
     0x08E0 [0x1B] RETURN
     0x08E1 [0x06] Work_Zone[2] = 0
     0x08E4 [0x06] Work_Zone[3] = 0
     0x08E7 [0x06] Work_Zone[4] = 0
     0x08EA [0x06] Work_Zone[5] = 0
     0x08ED [0x06] Work_Zone[6] = 0
     0x08F0 [0x06] Work_Zone[7] = 0
     0x08F3 [0x06] Work_Zone[8] = 0
     0x08F6 [0x06] Work_Zone[9] = 0
     0x08F9 [0x06] Work_Zone_1700[0] = 0
     0x08FC [0x06] Work_Zone_1700[1] = 0
     0x08FF [0x06] Work_Zone_1700[2] = 0
     0x0902 [0x06] Work_Zone_1700[3] = 0
     0x0905 [0x06] Work_Zone_1700[4] = 0
     0x0908 [0x06] Work_Zone_1700[5] = 0
     0x090B [0x06] Work_Zone_1700[6] = 0
     0x090E [0x06] Work_Zone_1700[7] = 0
     0x0911 [0x1B] RETURN
     0x0912 [0x02] IF !(0x0310 == 0x0410) GOTO 0x1005
     0x091A [0x06] 0x0710 = 0
     0x091D [0x10] Work_Zone[8] <<= Work_Zone[9]
     0x0922 [0x00] END_REQSTACK()
     0x0923 [0x17] Work_Zone_1700[1] = cos(Work_Zone_1700[2]) * Work_Zone_1700[3]
     0x092A [0x04] DEPRECATED_NOP(unused=0x0517)
     0x092D [0x17] Work_Zone_1700[6] = cos(Work_Zone_1700[7]) * ExtData[1]->WorkLocal[13]
     0x0934 [0x0E] 0x0F00 |= Work_Zone[0]
     0x0939 [0x00] END_REQSTACK()
     0x093A [0x11] 0x1200 >>= 0x0300
     0x093F [0x80] LOAD_WAIT(entity=Unknown NPC (ID: 1736707/0x001A8003))
     0x0944 [0x1B] RETURN
     0x0945 [0x00] END_REQSTACK()
     0x0946 [0x1C] WAIT(0x1D00 ticks)
     0x0949 [0x00] END_REQSTACK()
     0x094A [0x1E] EventEntity looks at Unknown NPC (ID: 536878848/0x20001F00) and starts talking
     0x094F [0x00] END_REQSTACK()
     0x0950 [0x21] END_EVENT
     0x0951 [0x00] END_REQSTACK()
     0x0952 [0x14] 0x5680 *= 0x5780
     0x0957 [0x80] LOAD_WAIT(entity=Unknown NPC (ID: 2153283606/0x80588016))
     0x095C [0x59] UPDATE_ENTITY_DATA: Unknown mode 128
     0x0960 [0x5B] LOAD_EXT_SCHEDULER: Load scheduler 0x61806080 with entities [Unknown NPC (ID: 411065728/0x18805D80), Unknown NPC (ID: 1602248320/0x5F805E80)], work=0x5C80
     0x096F [0x80] LOAD_WAIT(entity=Unknown NPC (ID: 2154004578/0x80638062))
     0x0974 [0x64] CALCULATE_DISTANCE: 0x6580 = distance between point1(0x6680, 0x6780) and point2(0x6880, 0x6980)
     0x097F [0x80] LOAD_WAIT(entity=Unknown NPC (ID: 2154528874/0x806B806A))
     0x0984 [0x6C] FADE_ENTITY_COLOR(entity_id=Unknown NPC (ID: 1853910400/0x6E806D80), end_alpha=0x6F80, fade_time=0x7080)
     0x098D [0x80] LOAD_WAIT(entity=Unknown NPC (ID: 2154987633/0x80728071))
     0x0992 [0x73] Unknown NPC (ID: 58721152/0x03800380) casts magic 0x0380 on Unknown NPC (ID: 58721152/0x03800380)
     0x099D [0x80] LOAD_WAIT(entity=Unknown NPC (ID: 2147713027/0x80038003))
     0x09A2 [0x03] 0x0380 = 0x0380
     0x09A7 [0x80] LOAD_WAIT(entity=Unknown NPC (ID: 2147713027/0x80038003))
     0x09AC [0x03] 0x0380 = 0x0380
     0x09B1 [0x80] LOAD_WAIT(entity=Unknown NPC (ID: 186062339/0x0B171603))
     0x09B6 [0x00] END_REQSTACK()
     0x09B7 [0x7A] VM_CONTROL: Reset VM for Unknown NPC (ID: 17924222/0x0111807E)
     0x09BD [0x27] REQ_SET(priority=0x0B, entity_id=Unknown NPC (ID: 17924222/0x0111807E), tag_num=0x05)
     0x09C4 [0x29] REQ_SET_WAIT(priority=0x0B, entity_id=Unknown NPC (ID: 17924222/0x0111807E), tag_num=0x05)
     0x09CB [0x2A] GET_REQ_LEVEL(level=11, entity_id=Unknown NPC (ID: 17924222/0x0111807E))
     0x09D1 [0x1B] RETURN
```
