# 17924177

## Common Data

| Field            | Value                |
|------------------|----------------------|
| Zone             | Mog Garden (ID: 280) |
| Block Size       | 1536 bytes           |
| Total Events     | 56                   |
| References Count | 93                   |

## List of Events

| Event ID                   | Entrypoint   |   Size |   Instructions |
|----------------------------|--------------|--------|----------------|
| [65535](#event-65535)      | 0x0000       |      1 |              1 |
| [65535.1](#event-655351)   | 0x0001       |     16 |              2 |
| [65535.2](#event-655352)   | 0x0011       |     14 |              2 |
| [65535.3](#event-655353)   | 0x001F       |     18 |              3 |
| [65535.4](#event-655354)   | 0x0031       |     14 |              2 |
| [65535.5](#event-655355)   | 0x003F       |      3 |              2 |
| [65535.6](#event-655356)   | 0x0042       |     16 |              3 |
| [65535.7](#event-655357)   | 0x0052       |      3 |              2 |
| [2002](#event-2002)        | 0x0055       |      1 |              1 |
| [65535.8](#event-655358)   | 0x0056       |     18 |              4 |
| [65535.9](#event-655359)   | 0x0068       |     10 |              2 |
| [65535.10](#event-6553510) | 0x0072       |      3 |              2 |
| [2032](#event-2032)        | 0x0075       |      1 |              1 |
| [65535.11](#event-6553511) | 0x0076       |     26 |              7 |
| [65535.12](#event-6553512) | 0x0090       |     23 |              7 |
| [2041](#event-2041)        | 0x00A7       |      1 |              1 |
| [2044](#event-2044)        | 0x00A8       |      1 |              1 |
| [65535.13](#event-6553513) | 0x00A9       |     18 |              3 |
| [65535.14](#event-6553514) | 0x00BB       |     24 |              8 |
| [65535.15](#event-6553515) | 0x00D3       |     10 |              2 |
| [65535.16](#event-6553516) | 0x00DD       |     27 |              5 |
| [65535.17](#event-6553517) | 0x00F8       |     20 |              6 |
| [2045](#event-2045)        | 0x010C       |      1 |              1 |
| [65535.18](#event-6553518) | 0x010D       |     10 |              2 |
| [65535.19](#event-6553519) | 0x0117       |     16 |              5 |
| [65535.20](#event-6553520) | 0x0127       |     29 |              6 |
| [65535.21](#event-6553521) | 0x0144       |     16 |              5 |
| [65535.22](#event-6553522) | 0x0154       |     12 |              3 |
| [2046](#event-2046)        | 0x0160       |      1 |              1 |
| [65535.23](#event-6553523) | 0x0161       |     10 |              2 |
| [65535.24](#event-6553524) | 0x016B       |     10 |              2 |
| [2059](#event-2059)        | 0x0175       |      1 |              1 |
| [65535.25](#event-6553525) | 0x0176       |      5 |              2 |
| [65535.26](#event-6553526) | 0x017B       |     42 |              6 |
| [65535.27](#event-6553527) | 0x01A5       |     42 |              6 |
| [2065](#event-2065)        | 0x01CF       |      1 |              1 |
| [65535.28](#event-6553528) | 0x01D0       |     29 |              4 |
| [65535.29](#event-6553529) | 0x01ED       |     10 |              2 |
| [65535.30](#event-6553530) | 0x01F7       |     14 |              4 |
| [65535.31](#event-6553531) | 0x0205       |    104 |             22 |
| [65535.32](#event-6553532) | 0x026D       |     48 |             10 |
| [2068](#event-2068)        | 0x029D       |      1 |              1 |
| [65535.33](#event-6553533) | 0x029E       |     29 |              4 |
| [65535.34](#event-6553534) | 0x02BB       |     29 |              4 |
| [65535.35](#event-6553535) | 0x02D8       |     10 |              2 |
| [2070](#event-2070)        | 0x02E2       |      1 |              1 |
| [65535.36](#event-6553536) | 0x02E3       |     14 |              4 |
| [2071](#event-2071)        | 0x02F1       |      1 |              1 |
| [65535.37](#event-6553537) | 0x02F2       |      5 |              2 |
| [65535.38](#event-6553538) | 0x02F7       |     42 |              6 |
| [65535.39](#event-6553539) | 0x0321       |     42 |              6 |
| [2039](#event-2039)        | 0x034B       |      1 |              1 |
| [65535.40](#event-6553540) | 0x034C       |     33 |              5 |
| [65535.41](#event-6553541) | 0x036D       |     22 |              5 |
| [65535.42](#event-6553542) | 0x0383       |     10 |              2 |
| [65535.43](#event-6553543) | 0x038D       |     13 |              2 |

## DAT References (imed_data)

|   Index | Hex Value   |   Dec Value |
|---------|-------------|-------------|
|       0 | 0x0CAD      |        3245 |
|       1 | 0x04F6      |        1270 |
|       2 | 0x0703      |        1795 |
|       3 | 0x00CD      |         205 |
|       4 | 0x0FAD      |        4013 |
|       5 | 0x01B8      |         440 |
|       6 | 0xFFFFAAAC  |  4294945452 |
|       7 | 0x05DB      |        1499 |
|       8 | 0x0BE6      |        3046 |
|       9 | 0x08DD      |        2269 |
|      10 | 0x1EF6      |        7926 |
|      11 | 0xFFFFCC74  |  4294954100 |
|      12 | 0x044C      |        1100 |
|      13 | 0x0431      |        1073 |
|      14 | 0x0AE8      |        2792 |
|      15 | 0x0B62      |        2914 |
|      16 | 0xFFFFCB68  |  4294953832 |
|      17 | 0xFFFFB5C2  |  4294948290 |
|      18 | 0x0D49      |        3401 |
|      19 | 0x0028      |          40 |
|      20 | 0xFFFFEEE1  |  4294962913 |
|      21 | 0xFFFFEAF2  |  4294961906 |
|      22 | 0x0203      |         515 |
|      23 | 0x001E      |          30 |
|      24 | 0x000D      |          13 |
|      25 | 0xFFFFF28A  |  4294963850 |
|      26 | 0xFFFFF5E5  |  4294964709 |
|      27 | 0x01D5      |         469 |
|      28 | 0x0014      |          20 |
|      29 | 0xFFFFE25F  |  4294959711 |
|      30 | 0x1176      |        4470 |
|      31 | 0x01E2      |         482 |
|      32 | 0x0D43      |        3395 |
|      33 | 0xFFFFE742  |  4294960962 |
|      34 | 0xFFFFF82E  |  4294965294 |
|      35 | 0x01E3      |         483 |
|      36 | 0xFFFFE068  |  4294959208 |
|      37 | 0x117F      |        4479 |
|      38 | 0x01F3      |         499 |
|      39 | 0xFFFFE30B  |  4294959883 |
|      40 | 0x15B7      |        5559 |
|      41 | 0x01DA      |         474 |
|      42 | 0x0000      |           0 |
|      43 | 0xFFFFE2B4  |  4294959796 |
|      44 | 0x24DB      |        9435 |
|      45 | 0x018F      |         399 |
|      46 | 0x02BA      |         698 |
|      47 | 0xFFFEDB08  |  4294892296 |
|      48 | 0x1708E     |       94350 |
|      49 | 0x0AF9      |        2809 |
|      50 | 0x259E      |        9630 |
|      51 | 0xFFFFCD7D  |  4294954365 |
|      52 | 0x09E5      |        2533 |
|      53 | 0x0CFB      |        3323 |
|      54 | 0x04D1      |        1233 |
|      55 | 0x0B5F      |        2911 |
|      56 | 0x57317     |      357143 |
|      57 | 0xFFF79216  |  4294414870 |
|      58 | 0xFFFFF36B  |  4294964075 |
|      59 | 0x08FB      |        2299 |
|      60 | 0x57443     |      357443 |
|      61 | 0xFFF798CA  |  4294416586 |
|      62 | 0xFFFFF3C1  |  4294964161 |
|      63 | 0x5795A     |      358746 |
|      64 | 0xFFF7939D  |  4294415261 |
|      65 | 0xFFFFF37F  |  4294964095 |
|      66 | 0x58023     |      360483 |
|      67 | 0xFFF79592  |  4294415762 |
|      68 | 0xFFFFF398  |  4294964120 |
|      69 | 0x58298     |      361112 |
|      70 | 0xFFF79B56  |  4294417238 |
|      71 | 0xFFFFF3E1  |  4294964193 |
|      72 | 0x5772C     |      358188 |
|      73 | 0xFFF79E75  |  4294418037 |
|      74 | 0xFFFFF409  |  4294964233 |
|      75 | 0x0B6E      |        2926 |
|      76 | 0x0B6D      |        2925 |
|      77 | 0x272C      |       10028 |
|      78 | 0xFFFFB1DA  |  4294947290 |
|      79 | 0x0C63      |        3171 |
|      80 | 0x2C4E      |       11342 |
|      81 | 0xFFFF95B9  |  4294940089 |
|      82 | 0x017C      |         380 |
|      83 | 0x0032      |          50 |
|      84 | 0xFFFFF89D  |  4294965405 |
|      85 | 0x120B      |        4619 |
|      86 | 0x00EE      |         238 |
|      87 | 0x0360      |         864 |
|      88 | 0x3010      |       12304 |
|      89 | 0x1F55      |        8021 |
|      90 | 0x005C      |          92 |
|      91 | 0x0E65      |        3685 |
|      92 | 0x003F      |          63 |

## Events

### Event 65535

#### Metadata

| Field        | Value   |
|--------------|---------|
| Entrypoint   | 0x0000  |
| Data Size    | 1 bytes |
| Instructions | 1       |

```
      00 01 02 03 04 05 06 07  08 09 0A 0B 0C 0D 0E 0F
      -- -- -- -- -- -- -- --  -- -- -- -- -- -- -- --
0000: 00                                                .               
```

#### Opcodes

```
  0: 0x0000 [0x00] END_REQSTACK()
```

### Event 65535.1

#### Metadata

| Field        | Value    |
|--------------|----------|
| Entrypoint   | 0x0001   |
| Data Size    | 16 bytes |
| Instructions | 2        |

```
      00 01 02 03 04 05 06 07  08 09 0A 0B 0C 0D 0E 0F
      -- -- -- -- -- -- -- --  -- -- -- -- -- -- -- --
0000:    5B 00 80 F8 FF FF 7F  F8 FF FF 7F 61 74 61 30   [..........ata0
0010: 00                                                .               
```

#### Opcodes

```
  0: 0x0001 [0x5B] LOAD_EXT_SCHEDULER: Load scheduler "ata0" with entities [EventEntity, EventEntity], work=3245*
  1: 0x0010 [0x00] END_REQSTACK()
```

### Event 65535.2

#### Metadata

| Field        | Value    |
|--------------|----------|
| Entrypoint   | 0x0011   |
| Data Size    | 14 bytes |
| Instructions | 2        |

```
      00 01 02 03 04 05 06 07  08 09 0A 0B 0C 0D 0E 0F
      -- -- -- -- -- -- -- --  -- -- -- -- -- -- -- --
0010:    53 F8 FF FF 7F F8 FF  FF 7F 61 74 61 30 00      S........ata0. 
```

#### Opcodes

```
  0: 0x0011 [0x53] WAIT_SCHEDULER_TASK: Wait for scheduler "ata0" with entities [EventEntity, EventEntity]
  1: 0x001E [0x00] END_REQSTACK()
```

### Event 65535.3

#### Metadata

| Field        | Value    |
|--------------|----------|
| Entrypoint   | 0x001F   |
| Data Size    | 18 bytes |
| Instructions | 3        |

```
      00 01 02 03 04 05 06 07  08 09 0A 0B 0C 0D 0E 0F
      -- -- -- -- -- -- -- --  -- -- -- -- -- -- -- --
0010:                                               22                 "
0020: 00 5B 00 80 F8 FF FF 7F  F8 FF FF 7F 61 74 61 31  .[..........ata1
0030: 00                                                .               
```

#### Opcodes

```
  0: 0x001F [0x22] ENTITY_HIDE_FLAG(enabled=0x00)
  1: 0x0021 [0x5B] LOAD_EXT_SCHEDULER: Load scheduler "ata1" with entities [EventEntity, EventEntity], work=3245*
  2: 0x0030 [0x00] END_REQSTACK()
```

### Event 65535.4

#### Metadata

| Field        | Value    |
|--------------|----------|
| Entrypoint   | 0x0031   |
| Data Size    | 14 bytes |
| Instructions | 2        |

```
      00 01 02 03 04 05 06 07  08 09 0A 0B 0C 0D 0E 0F
      -- -- -- -- -- -- -- --  -- -- -- -- -- -- -- --
0030:    53 F8 FF FF 7F F8 FF  FF 7F 61 74 61 31 00      S........ata1. 
```

#### Opcodes

```
  0: 0x0031 [0x53] WAIT_SCHEDULER_TASK: Wait for scheduler "ata1" with entities [EventEntity, EventEntity]
  1: 0x003E [0x00] END_REQSTACK()
```

### Event 65535.5

#### Metadata

| Field        | Value   |
|--------------|---------|
| Entrypoint   | 0x003F  |
| Data Size    | 3 bytes |
| Instructions | 2       |

```
      00 01 02 03 04 05 06 07  08 09 0A 0B 0C 0D 0E 0F
      -- -- -- -- -- -- -- --  -- -- -- -- -- -- -- --
0030:                                               A5                 .
0040: 01 00                                             ..              
```

#### Opcodes

```
  0: 0x003F [0xA5] EventEntity->Flags3.BallistaTeam |= 0x08  // Set bit 3 of BallistaTeam
  1: 0x0041 [0x00] END_REQSTACK()
```

### Event 65535.6

#### Metadata

| Field        | Value    |
|--------------|----------|
| Entrypoint   | 0x0042   |
| Data Size    | 16 bytes |
| Instructions | 3        |

```
      00 01 02 03 04 05 06 07  08 09 0A 0B 0C 0D 0E 0F
      -- -- -- -- -- -- -- --  -- -- -- -- -- -- -- --
0040:       A5 01 2C 51 80 11  01 51 80 11 01 73 70 37    ..,Q...Q...sp7
0050: 30 00                                             0.              
```

#### Opcodes

```
  0: 0x0042 [0xA5] EventEntity->Flags3.BallistaTeam |= 0x08  // Set bit 3 of BallistaTeam
  1: 0x0044 [0x2C] CREATE_SCHEDULER_TASK: Create scheduler "sp70" with entities [Unnamed NPC (ID: 17924177/0x01118051), Unnamed NPC (ID: 17924177/0x01118051)]
  2: 0x0051 [0x00] END_REQSTACK()
```

### Event 65535.7

#### Metadata

| Field        | Value   |
|--------------|---------|
| Entrypoint   | 0x0052  |
| Data Size    | 3 bytes |
| Instructions | 2       |

```
      00 01 02 03 04 05 06 07  08 09 0A 0B 0C 0D 0E 0F
      -- -- -- -- -- -- -- --  -- -- -- -- -- -- -- --
0050:       A5 00 00                                      ...           
```

#### Opcodes

```
  0: 0x0052 [0xA5] EventEntity->Flags3.BallistaTeam &= ~0x08  // Clear bit 3 of BallistaTeam
  1: 0x0054 [0x00] END_REQSTACK()
```

### Event 2002

#### Metadata

| Field        | Value   |
|--------------|---------|
| Entrypoint   | 0x0055  |
| Data Size    | 1 bytes |
| Instructions | 1       |

```
      00 01 02 03 04 05 06 07  08 09 0A 0B 0C 0D 0E 0F
      -- -- -- -- -- -- -- --  -- -- -- -- -- -- -- --
0050:                00                                      .          
```

#### Opcodes

```
  0: 0x0055 [0x00] END_REQSTACK()
```

### Event 65535.8

#### Metadata

| Field        | Value    |
|--------------|----------|
| Entrypoint   | 0x0056   |
| Data Size    | 18 bytes |
| Instructions | 4        |

```
      00 01 02 03 04 05 06 07  08 09 0A 0B 0C 0D 0E 0F
      -- -- -- -- -- -- -- --  -- -- -- -- -- -- -- --
0050:                   37 01  80 02 80 03 80 04 80 2F        7......../
0060: 00 F8 FF FF 7F A5 01 00                           ........        
```

#### Opcodes

```
  0: 0x0056 [0x37] UPDATE_EVENT_POSITION_AND_DIR: x=1.270*, z=1.795*, y=0.205*, direction=352.7°*
  1: 0x005F [0x2F] EventEntity->Render.Flags0 &= ~0x80000 // Bit 19
  2: 0x0065 [0xA5] EventEntity->Flags3.BallistaTeam |= 0x08  // Set bit 3 of BallistaTeam
  3: 0x0067 [0x00] END_REQSTACK()
```

### Event 65535.9

#### Metadata

| Field        | Value    |
|--------------|----------|
| Entrypoint   | 0x0068   |
| Data Size    | 10 bytes |
| Instructions | 2        |

```
      00 01 02 03 04 05 06 07  08 09 0A 0B 0C 0D 0E 0F
      -- -- -- -- -- -- -- --  -- -- -- -- -- -- -- --
0060:                          37 05 80 06 80 07 80 08          7.......
0070: 80 00                                             ..              
```

#### Opcodes

```
  0: 0x0068 [0x37] UPDATE_EVENT_POSITION_AND_DIR: x=0.440*, z=-21.844*, y=1.499*, direction=267.7°*
  1: 0x0071 [0x00] END_REQSTACK()
```

### Event 65535.10

#### Metadata

| Field        | Value   |
|--------------|---------|
| Entrypoint   | 0x0072  |
| Data Size    | 3 bytes |
| Instructions | 2       |

```
      00 01 02 03 04 05 06 07  08 09 0A 0B 0C 0D 0E 0F
      -- -- -- -- -- -- -- --  -- -- -- -- -- -- -- --
0070:       A5 00 00                                      ...           
```

#### Opcodes

```
  0: 0x0072 [0xA5] EventEntity->Flags3.BallistaTeam &= ~0x08  // Clear bit 3 of BallistaTeam
  1: 0x0074 [0x00] END_REQSTACK()
```

### Event 2032

#### Metadata

| Field        | Value   |
|--------------|---------|
| Entrypoint   | 0x0075  |
| Data Size    | 1 bytes |
| Instructions | 1       |

```
      00 01 02 03 04 05 06 07  08 09 0A 0B 0C 0D 0E 0F
      -- -- -- -- -- -- -- --  -- -- -- -- -- -- -- --
0070:                00                                      .          
```

#### Opcodes

```
  0: 0x0075 [0x00] END_REQSTACK()
```

### Event 65535.11

#### Metadata

| Field        | Value    |
|--------------|----------|
| Entrypoint   | 0x0076   |
| Data Size    | 26 bytes |
| Instructions | 7        |

```
      00 01 02 03 04 05 06 07  08 09 0A 0B 0C 0D 0E 0F
      -- -- -- -- -- -- -- --  -- -- -- -- -- -- -- --
0070:                   B6 00  09 80 33 01 37 0A 80 0B        ....3.7...
0080: 80 0C 80 0D 80 33 01 A5  01 94 01 F8 FF FF 7F 00  .....3..........
```

#### Opcodes

```
  0: 0x0076 [0xB6] ENTITY_APPEARANCE_HANDLER(case=Hair style, value=2269*)
  1: 0x007A [0x33] EventEntity->Render.Flags0 |= 0x200000 // Bit 21 (flag=0x01)
  2: 0x007C [0x37] UPDATE_EVENT_POSITION_AND_DIR: x=7.926*, z=-13.196*, y=1.100*, direction=94.3°*
  3: 0x0085 [0x33] EventEntity->Render.Flags0 |= 0x200000 // Bit 21 (flag=0x01)
  4: 0x0087 [0xA5] EventEntity->Flags3.BallistaTeam |= 0x08  // Set bit 3 of BallistaTeam
  5: 0x0089 [0x94] EventEntity->Render.Flags3 ^= 0x01
  6: 0x008F [0x00] END_REQSTACK()
```

### Event 65535.12

#### Metadata

| Field        | Value    |
|--------------|----------|
| Entrypoint   | 0x0090   |
| Data Size    | 23 bytes |
| Instructions | 7        |

```
      00 01 02 03 04 05 06 07  08 09 0A 0B 0C 0D 0E 0F
      -- -- -- -- -- -- -- --  -- -- -- -- -- -- -- --
0090: B6 00 0E 80 A5 00 33 00  94 00 F8 FF FF 7F 22 01  ......3.......".
00A0: 2F 01 F8 FF FF 7F 00                              /......         
```

#### Opcodes

```
  0: 0x0090 [0xB6] ENTITY_APPEARANCE_HANDLER(case=Hair style, value=2792*)
  1: 0x0094 [0xA5] EventEntity->Flags3.BallistaTeam &= ~0x08  // Clear bit 3 of BallistaTeam
  2: 0x0096 [0x33] EventEntity->Render.Flags0 &= ~ 0x200000 // Bit 21 (flag=0x00)
  3: 0x0098 [0x94] EventEntity->Render.Flags3 = Flags3  // No change (flag=0)
  4: 0x009E [0x22] ENTITY_HIDE_FLAG(enabled=0x01)
  5: 0x00A0 [0x2F] EventEntity->Render.Flags0 |= 0x80000 // Bit 19
  6: 0x00A6 [0x00] END_REQSTACK()
```

### Event 2041

#### Metadata

| Field        | Value   |
|--------------|---------|
| Entrypoint   | 0x00A7  |
| Data Size    | 1 bytes |
| Instructions | 1       |

```
      00 01 02 03 04 05 06 07  08 09 0A 0B 0C 0D 0E 0F
      -- -- -- -- -- -- -- --  -- -- -- -- -- -- -- --
00A0:                      00                                  .        
```

#### Opcodes

```
  0: 0x00A7 [0x00] END_REQSTACK()
```

### Event 2044

#### Metadata

| Field        | Value   |
|--------------|---------|
| Entrypoint   | 0x00A8  |
| Data Size    | 1 bytes |
| Instructions | 1       |

```
      00 01 02 03 04 05 06 07  08 09 0A 0B 0C 0D 0E 0F
      -- -- -- -- -- -- -- --  -- -- -- -- -- -- -- --
00A0:                          00                               .       
```

#### Opcodes

```
  0: 0x00A8 [0x00] END_REQSTACK()
```

### Event 65535.13

#### Metadata

| Field        | Value    |
|--------------|----------|
| Entrypoint   | 0x00A9   |
| Data Size    | 18 bytes |
| Instructions | 3        |

```
      00 01 02 03 04 05 06 07  08 09 0A 0B 0C 0D 0E 0F
      -- -- -- -- -- -- -- --  -- -- -- -- -- -- -- --
00A0:                             B6 00 0F 80 2C F8 FF           ....,..
00B0: FF 7F F8 FF FF 7F 69 64  73 30 00                 ......ids0.     
```

#### Opcodes

```
  0: 0x00A9 [0xB6] ENTITY_APPEARANCE_HANDLER(case=Hair style, value=2914*)
  1: 0x00AD [0x2C] CREATE_SCHEDULER_TASK: Create scheduler "ids0" with entities [EventEntity, EventEntity]
  2: 0x00BA [0x00] END_REQSTACK()
```

### Event 65535.14

#### Metadata

| Field        | Value    |
|--------------|----------|
| Entrypoint   | 0x00BB   |
| Data Size    | 24 bytes |
| Instructions | 8        |

```
      00 01 02 03 04 05 06 07  08 09 0A 0B 0C 0D 0E 0F
      -- -- -- -- -- -- -- --  -- -- -- -- -- -- -- --
00B0:                                   B6 00 0E 80 96             .....
00C0: A5 00 33 00 94 00 F8 FF  FF 7F 22 01 2F 01 F8 FF  ..3......."./...
00D0: FF 7F 00                                          ...             
```

#### Opcodes

```
  0: 0x00BB [0xB6] ENTITY_APPEARANCE_HANDLER(case=Hair style, value=2792*)
  1: 0x00BF [0x96] UNSET_EVENT_NPC: Restore NPC after event (removes event NPC status)
  2: 0x00C0 [0xA5] EventEntity->Flags3.BallistaTeam &= ~0x08  // Clear bit 3 of BallistaTeam
  3: 0x00C2 [0x33] EventEntity->Render.Flags0 &= ~ 0x200000 // Bit 21 (flag=0x00)
  4: 0x00C4 [0x94] EventEntity->Render.Flags3 = Flags3  // No change (flag=0)
  5: 0x00CA [0x22] ENTITY_HIDE_FLAG(enabled=0x01)
  6: 0x00CC [0x2F] EventEntity->Render.Flags0 |= 0x80000 // Bit 19
  7: 0x00D2 [0x00] END_REQSTACK()
```

### Event 65535.15

#### Metadata

| Field        | Value    |
|--------------|----------|
| Entrypoint   | 0x00D3   |
| Data Size    | 10 bytes |
| Instructions | 2        |

```
      00 01 02 03 04 05 06 07  08 09 0A 0B 0C 0D 0E 0F
      -- -- -- -- -- -- -- --  -- -- -- -- -- -- -- --
00D0:          37 10 80 11 80  07 80 12 80 00              7.........   
```

#### Opcodes

```
  0: 0x00D3 [0x37] UPDATE_EVENT_POSITION_AND_DIR: x=-13.464*, z=-19.006*, y=1.499*, direction=298.9°*
  1: 0x00DC [0x00] END_REQSTACK()
```

### Event 65535.16

#### Metadata

| Field        | Value    |
|--------------|----------|
| Entrypoint   | 0x00DD   |
| Data Size    | 27 bytes |
| Instructions | 5        |

```
      00 01 02 03 04 05 06 07  08 09 0A 0B 0C 0D 0E 0F
      -- -- -- -- -- -- -- --  -- -- -- -- -- -- -- --
00D0:                                         2C F8 FF               ,..
00E0: FF 7F F8 FF FF 7F 69 64  73 30 32 13 80 1F 00 14  ......ids02.....
00F0: 80 15 80 16 80 1F 01 00                           ........        
```

#### Opcodes

```
  0: 0x00DD [0x2C] CREATE_SCHEDULER_TASK: Create scheduler "ids0" with entities [EventEntity, EventEntity]
  1: 0x00EA [0x32] ExtData[1]->MainSpeed = 40* * 0.1
  2: 0x00ED [0x1F] MOVE_ENTITY: EventEntity moves to X=-4.383*, Z=-5.390*, Y=0.515*
  3: 0x00F5 [0x1F] MOVE_ENTITY: Update entity position (mode=1)
  4: 0x00F7 [0x00] END_REQSTACK()
```

### Event 65535.17

#### Metadata

| Field        | Value    |
|--------------|----------|
| Entrypoint   | 0x00F8   |
| Data Size    | 20 bytes |
| Instructions | 6        |

```
      00 01 02 03 04 05 06 07  08 09 0A 0B 0C 0D 0E 0F
      -- -- -- -- -- -- -- --  -- -- -- -- -- -- -- --
00F0:                          1C 17 80 32 18 80 1F 00          ...2....
0100: 19 80 1A 80 1B 80 1F 01  1C 1C 80 00              ............    
```

#### Opcodes

```
  0: 0x00F8 [0x1C] WAIT(30* ticks)
  1: 0x00FB [0x32] ExtData[1]->MainSpeed = 13* * 0.1
  2: 0x00FE [0x1F] MOVE_ENTITY: EventEntity moves to X=-3.446*, Z=-2.587*, Y=0.469*
  3: 0x0106 [0x1F] MOVE_ENTITY: Update entity position (mode=1)
  4: 0x0108 [0x1C] WAIT(20* ticks)
  5: 0x010B [0x00] END_REQSTACK()
```

### Event 2045

#### Metadata

| Field        | Value   |
|--------------|---------|
| Entrypoint   | 0x010C  |
| Data Size    | 1 bytes |
| Instructions | 1       |

```
      00 01 02 03 04 05 06 07  08 09 0A 0B 0C 0D 0E 0F
      -- -- -- -- -- -- -- --  -- -- -- -- -- -- -- --
0100:                                      00                       .   
```

#### Opcodes

```
  0: 0x010C [0x00] END_REQSTACK()
```

### Event 65535.18

#### Metadata

| Field        | Value    |
|--------------|----------|
| Entrypoint   | 0x010D   |
| Data Size    | 10 bytes |
| Instructions | 2        |

```
      00 01 02 03 04 05 06 07  08 09 0A 0B 0C 0D 0E 0F
      -- -- -- -- -- -- -- --  -- -- -- -- -- -- -- --
0100:                                         37 1D 80               7..
0110: 1E 80 1F 80 20 80 00                              .... ..         
```

#### Opcodes

```
  0: 0x010D [0x37] UPDATE_EVENT_POSITION_AND_DIR: x=-7.585*, z=4.470*, y=0.482*, direction=298.4°*
  1: 0x0116 [0x00] END_REQSTACK()
```

### Event 65535.19

#### Metadata

| Field        | Value    |
|--------------|----------|
| Entrypoint   | 0x0117   |
| Data Size    | 16 bytes |
| Instructions | 5        |

```
      00 01 02 03 04 05 06 07  08 09 0A 0B 0C 0D 0E 0F
      -- -- -- -- -- -- -- --  -- -- -- -- -- -- -- --
0110:                      32  13 80 1F 00 21 80 22 80         2....!.".
0120: 23 80 1F 01 22 01 00                              #..."..         
```

#### Opcodes

```
  0: 0x0117 [0x32] ExtData[1]->MainSpeed = 40* * 0.1
  1: 0x011A [0x1F] MOVE_ENTITY: EventEntity moves to X=-6.334*, Z=-2.002*, Y=0.483*
  2: 0x0122 [0x1F] MOVE_ENTITY: Update entity position (mode=1)
  3: 0x0124 [0x22] ENTITY_HIDE_FLAG(enabled=0x01)
  4: 0x0126 [0x00] END_REQSTACK()
```

### Event 65535.20

#### Metadata

| Field        | Value    |
|--------------|----------|
| Entrypoint   | 0x0127   |
| Data Size    | 29 bytes |
| Instructions | 6        |

```
      00 01 02 03 04 05 06 07  08 09 0A 0B 0C 0D 0E 0F
      -- -- -- -- -- -- -- --  -- -- -- -- -- -- -- --
0120:                      22  00 32 18 80 1F 00 24 80         ".2....$.
0130: 25 80 26 80 1F 01 2C F8  FF FF 7F F8 FF FF 7F 69  %.&...,........i
0140: 64 73 32 00                                       ds2.            
```

#### Opcodes

```
  0: 0x0127 [0x22] ENTITY_HIDE_FLAG(enabled=0x00)
  1: 0x0129 [0x32] ExtData[1]->MainSpeed = 13* * 0.1
  2: 0x012C [0x1F] MOVE_ENTITY: EventEntity moves to X=-8.088*, Z=4.479*, Y=0.499*
  3: 0x0134 [0x1F] MOVE_ENTITY: Update entity position (mode=1)
  4: 0x0136 [0x2C] CREATE_SCHEDULER_TASK: Create scheduler "ids2" with entities [EventEntity, EventEntity]
  5: 0x0143 [0x00] END_REQSTACK()
```

### Event 65535.21

#### Metadata

| Field        | Value    |
|--------------|----------|
| Entrypoint   | 0x0144   |
| Data Size    | 16 bytes |
| Instructions | 5        |

```
      00 01 02 03 04 05 06 07  08 09 0A 0B 0C 0D 0E 0F
      -- -- -- -- -- -- -- --  -- -- -- -- -- -- -- --
0140:             22 00 32 18  80 1F 00 27 80 28 80 29      ".2....'.(.)
0150: 80 1F 01 00                                       ....            
```

#### Opcodes

```
  0: 0x0144 [0x22] ENTITY_HIDE_FLAG(enabled=0x00)
  1: 0x0146 [0x32] ExtData[1]->MainSpeed = 13* * 0.1
  2: 0x0149 [0x1F] MOVE_ENTITY: EventEntity moves to X=-7.413*, Z=5.559*, Y=0.474*
  3: 0x0151 [0x1F] MOVE_ENTITY: Update entity position (mode=1)
  4: 0x0153 [0x00] END_REQSTACK()
```

### Event 65535.22

#### Metadata

| Field        | Value    |
|--------------|----------|
| Entrypoint   | 0x0154   |
| Data Size    | 12 bytes |
| Instructions | 3        |

```
      00 01 02 03 04 05 06 07  08 09 0A 0B 0C 0D 0E 0F
      -- -- -- -- -- -- -- --  -- -- -- -- -- -- -- --
0150:             33 01 37 27  80 28 80 29 80 2A 80 00      3.7'.(.).*..
```

#### Opcodes

```
  0: 0x0154 [0x33] EventEntity->Render.Flags0 |= 0x200000 // Bit 21 (flag=0x01)
  1: 0x0156 [0x37] UPDATE_EVENT_POSITION_AND_DIR: x=-7.413*, z=5.559*, y=0.474*, direction=0.0°*
  2: 0x015F [0x00] END_REQSTACK()
```

### Event 2046

#### Metadata

| Field        | Value   |
|--------------|---------|
| Entrypoint   | 0x0160  |
| Data Size    | 1 bytes |
| Instructions | 1       |

```
      00 01 02 03 04 05 06 07  08 09 0A 0B 0C 0D 0E 0F
      -- -- -- -- -- -- -- --  -- -- -- -- -- -- -- --
0160: 00                                                .               
```

#### Opcodes

```
  0: 0x0160 [0x00] END_REQSTACK()
```

### Event 65535.23

#### Metadata

| Field        | Value    |
|--------------|----------|
| Entrypoint   | 0x0161   |
| Data Size    | 10 bytes |
| Instructions | 2        |

```
      00 01 02 03 04 05 06 07  08 09 0A 0B 0C 0D 0E 0F
      -- -- -- -- -- -- -- --  -- -- -- -- -- -- -- --
0160:    37 2B 80 2C 80 2D 80  2E 80 00                  7+.,.-....     
```

#### Opcodes

```
  0: 0x0161 [0x37] UPDATE_EVENT_POSITION_AND_DIR: x=-7.500*, z=9.435*, y=0.399*, direction=61.3°*
  1: 0x016A [0x00] END_REQSTACK()
```

### Event 65535.24

#### Metadata

| Field        | Value    |
|--------------|----------|
| Entrypoint   | 0x016B   |
| Data Size    | 10 bytes |
| Instructions | 2        |

```
      00 01 02 03 04 05 06 07  08 09 0A 0B 0C 0D 0E 0F
      -- -- -- -- -- -- -- --  -- -- -- -- -- -- -- --
0160:                                   37 2F 80 30 80             7/.0.
0170: 2D 80 2E 80 00                                    -....           
```

#### Opcodes

```
  0: 0x016B [0x37] UPDATE_EVENT_POSITION_AND_DIR: x=-75.000*, z=94.350*, y=0.399*, direction=61.3°*
  1: 0x0174 [0x00] END_REQSTACK()
```

### Event 2059

#### Metadata

| Field        | Value   |
|--------------|---------|
| Entrypoint   | 0x0175  |
| Data Size    | 1 bytes |
| Instructions | 1       |

```
      00 01 02 03 04 05 06 07  08 09 0A 0B 0C 0D 0E 0F
      -- -- -- -- -- -- -- --  -- -- -- -- -- -- -- --
0170:                00                                      .          
```

#### Opcodes

```
  0: 0x0175 [0x00] END_REQSTACK()
```

### Event 65535.25

#### Metadata

| Field        | Value   |
|--------------|---------|
| Entrypoint   | 0x0176  |
| Data Size    | 5 bytes |
| Instructions | 2       |

```
      00 01 02 03 04 05 06 07  08 09 0A 0B 0C 0D 0E 0F
      -- -- -- -- -- -- -- --  -- -- -- -- -- -- -- --
0170:                   B6 00  31 80 00                       ..1..     
```

#### Opcodes

```
  0: 0x0176 [0xB6] ENTITY_APPEARANCE_HANDLER(case=Hair style, value=2809*)
  1: 0x017A [0x00] END_REQSTACK()
```

### Event 65535.26

#### Metadata

| Field        | Value    |
|--------------|----------|
| Entrypoint   | 0x017B   |
| Data Size    | 42 bytes |
| Instructions | 6        |

```
      00 01 02 03 04 05 06 07  08 09 0A 0B 0C 0D 0E 0F
      -- -- -- -- -- -- -- --  -- -- -- -- -- -- -- --
0170:                                   A5 01 33 01 37             ..3.7
0180: 32 80 33 80 2A 80 34 80  5B 35 80 F8 FF FF 7F F8  2.3.*.4.[5......
0190: FF FF 7F 62 6F 6B 31 53  F8 FF FF 7F F8 FF FF 7F  ...bok1S........
01A0: 62 6F 6B 31 00                                    bok1.           
```

#### Opcodes

```
  0: 0x017B [0xA5] EventEntity->Flags3.BallistaTeam |= 0x08  // Set bit 3 of BallistaTeam
  1: 0x017D [0x33] EventEntity->Render.Flags0 |= 0x200000 // Bit 21 (flag=0x01)
  2: 0x017F [0x37] UPDATE_EVENT_POSITION_AND_DIR: x=9.630*, z=-12.931*, y=0.000*, direction=222.6°*
  3: 0x0188 [0x5B] LOAD_EXT_SCHEDULER: Load scheduler "bok1" with entities [EventEntity, EventEntity], work=3323*
  4: 0x0197 [0x53] WAIT_SCHEDULER_TASK: Wait for scheduler "bok1" with entities [EventEntity, EventEntity]
  5: 0x01A4 [0x00] END_REQSTACK()
```

### Event 65535.27

#### Metadata

| Field        | Value    |
|--------------|----------|
| Entrypoint   | 0x01A5   |
| Data Size    | 42 bytes |
| Instructions | 6        |

```
      00 01 02 03 04 05 06 07  08 09 0A 0B 0C 0D 0E 0F
      -- -- -- -- -- -- -- --  -- -- -- -- -- -- -- --
01A0:                A5 01 33  01 37 32 80 33 80 2A 80       ..3.72.3.*.
01B0: 36 80 5B 35 80 F8 FF FF  7F F8 FF FF 7F 62 6F 6B  6.[5.........bok
01C0: 31 53 F8 FF FF 7F F8 FF  FF 7F 62 6F 6B 31 00     1S........bok1. 
```

#### Opcodes

```
  0: 0x01A5 [0xA5] EventEntity->Flags3.BallistaTeam |= 0x08  // Set bit 3 of BallistaTeam
  1: 0x01A7 [0x33] EventEntity->Render.Flags0 |= 0x200000 // Bit 21 (flag=0x01)
  2: 0x01A9 [0x37] UPDATE_EVENT_POSITION_AND_DIR: x=9.630*, z=-12.931*, y=0.000*, direction=108.4°*
  3: 0x01B2 [0x5B] LOAD_EXT_SCHEDULER: Load scheduler "bok1" with entities [EventEntity, EventEntity], work=3323*
  4: 0x01C1 [0x53] WAIT_SCHEDULER_TASK: Wait for scheduler "bok1" with entities [EventEntity, EventEntity]
  5: 0x01CE [0x00] END_REQSTACK()
```

### Event 2065

#### Metadata

| Field        | Value   |
|--------------|---------|
| Entrypoint   | 0x01CF  |
| Data Size    | 1 bytes |
| Instructions | 1       |

```
      00 01 02 03 04 05 06 07  08 09 0A 0B 0C 0D 0E 0F
      -- -- -- -- -- -- -- --  -- -- -- -- -- -- -- --
01C0:                                               00                 .
```

#### Opcodes

```
  0: 0x01CF [0x00] END_REQSTACK()
```

### Event 65535.28

#### Metadata

| Field        | Value    |
|--------------|----------|
| Entrypoint   | 0x01D0   |
| Data Size    | 29 bytes |
| Instructions | 4        |

```
      00 01 02 03 04 05 06 07  08 09 0A 0B 0C 0D 0E 0F
      -- -- -- -- -- -- -- --  -- -- -- -- -- -- -- --
01D0: B6 00 37 80 B4 00 00 00  43 68 61 63 68 61 72 6F  ..7.....Chacharo
01E0: 6F 6E 00 00 00 00 00 00  B5 00 00 00 00           on...........   
```

#### Opcodes

```
  0: 0x01D0 [0xB6] ENTITY_APPEARANCE_HANDLER(case=Hair style, value=2911*)
  1: 0x01D4 [0xB4] UI_WINDOW_STRING_HANDLER(case=0x00 - Copy string from opcode, work_offset=ExtData[1]->WorkLocal[0], string="Chacharoon")
  2: 0x01E8 [0xB5] SET_EVENT_ENTITY_NAME: Change EventEntity name to ExtData[1]->WorkLocal[0]
  3: 0x01EC [0x00] END_REQSTACK()
```

### Event 65535.29

#### Metadata

| Field        | Value    |
|--------------|----------|
| Entrypoint   | 0x01ED   |
| Data Size    | 10 bytes |
| Instructions | 2        |

```
      00 01 02 03 04 05 06 07  08 09 0A 0B 0C 0D 0E 0F
      -- -- -- -- -- -- -- --  -- -- -- -- -- -- -- --
01E0:                                         37 38 80               78.
01F0: 39 80 3A 80 3B 80 00                              9.:.;..         
```

#### Opcodes

```
  0: 0x01ED [0x37] UPDATE_EVENT_POSITION_AND_DIR: x=357.143*, z=-552.426*, y=-3.221*, direction=202.1°*
  1: 0x01F6 [0x00] END_REQSTACK()
```

### Event 65535.30

#### Metadata

| Field        | Value    |
|--------------|----------|
| Entrypoint   | 0x01F7   |
| Data Size    | 14 bytes |
| Instructions | 4        |

```
      00 01 02 03 04 05 06 07  08 09 0A 0B 0C 0D 0E 0F
      -- -- -- -- -- -- -- --  -- -- -- -- -- -- -- --
01F0:                      32  18 80 1F 00 3C 80 3D 80         2....<.=.
0200: 3E 80 1F 01 00                                    >....           
```

#### Opcodes

```
  0: 0x01F7 [0x32] ExtData[1]->MainSpeed = 13* * 0.1
  1: 0x01FA [0x1F] MOVE_ENTITY: EventEntity moves to X=357.443*, Z=-550.710*, Y=-3.135*
  2: 0x0202 [0x1F] MOVE_ENTITY: Update entity position (mode=1)
  3: 0x0204 [0x00] END_REQSTACK()
```

### Event 65535.31

#### Metadata

| Field        | Value     |
|--------------|-----------|
| Entrypoint   | 0x0205    |
| Data Size    | 104 bytes |
| Instructions | 22        |

```
      00 01 02 03 04 05 06 07  08 09 0A 0B 0C 0D 0E 0F
      -- -- -- -- -- -- -- --  -- -- -- -- -- -- -- --
0200:                32 13 80  1F 00 3F 80 40 80 41 80       2....?.@.A.
0210: 1F 01 1F 00 42 80 43 80  44 80 1F 01 1F 00 45 80  ....B.C.D.....E.
0220: 46 80 47 80 1F 01 1F 00  48 80 49 80 4A 80 1F 01  F.G.....H.I.J...
0230: 1F 00 3C 80 3D 80 3E 80  1F 01 1F 00 3F 80 40 80  ..<.=.>.....?.@.
0240: 41 80 1F 01 1F 00 42 80  43 80 44 80 1F 01 1F 00  A.....B.C.D.....
0250: 45 80 46 80 47 80 1F 01  1F 00 48 80 49 80 4A 80  E.F.G.....H.I.J.
0260: 1F 01 1F 00 3C 80 3D 80  3E 80 1F 01 00           ....<.=.>....   
```

#### Opcodes

```
  0: 0x0205 [0x32] ExtData[1]->MainSpeed = 40* * 0.1
  1: 0x0208 [0x1F] MOVE_ENTITY: EventEntity moves to X=358.746*, Z=-552.035*, Y=-3.201*
  2: 0x0210 [0x1F] MOVE_ENTITY: Update entity position (mode=1)
  3: 0x0212 [0x1F] MOVE_ENTITY: EventEntity moves to X=360.483*, Z=-551.534*, Y=-3.176*
  4: 0x021A [0x1F] MOVE_ENTITY: Update entity position (mode=1)
  5: 0x021C [0x1F] MOVE_ENTITY: EventEntity moves to X=361.112*, Z=-550.058*, Y=-3.103*
  6: 0x0224 [0x1F] MOVE_ENTITY: Update entity position (mode=1)
  7: 0x0226 [0x1F] MOVE_ENTITY: EventEntity moves to X=358.188*, Z=-549.259*, Y=-3.063*
  8: 0x022E [0x1F] MOVE_ENTITY: Update entity position (mode=1)
  9: 0x0230 [0x1F] MOVE_ENTITY: EventEntity moves to X=357.443*, Z=-550.710*, Y=-3.135*
 10: 0x0238 [0x1F] MOVE_ENTITY: Update entity position (mode=1)
 11: 0x023A [0x1F] MOVE_ENTITY: EventEntity moves to X=358.746*, Z=-552.035*, Y=-3.201*
 12: 0x0242 [0x1F] MOVE_ENTITY: Update entity position (mode=1)
 13: 0x0244 [0x1F] MOVE_ENTITY: EventEntity moves to X=360.483*, Z=-551.534*, Y=-3.176*
 14: 0x024C [0x1F] MOVE_ENTITY: Update entity position (mode=1)
 15: 0x024E [0x1F] MOVE_ENTITY: EventEntity moves to X=361.112*, Z=-550.058*, Y=-3.103*
 16: 0x0256 [0x1F] MOVE_ENTITY: Update entity position (mode=1)
 17: 0x0258 [0x1F] MOVE_ENTITY: EventEntity moves to X=358.188*, Z=-549.259*, Y=-3.063*
 18: 0x0260 [0x1F] MOVE_ENTITY: Update entity position (mode=1)
 19: 0x0262 [0x1F] MOVE_ENTITY: EventEntity moves to X=357.443*, Z=-550.710*, Y=-3.135*
 20: 0x026A [0x1F] MOVE_ENTITY: Update entity position (mode=1)
 21: 0x026C [0x00] END_REQSTACK()
```

### Event 65535.32

#### Metadata

| Field        | Value    |
|--------------|----------|
| Entrypoint   | 0x026D   |
| Data Size    | 48 bytes |
| Instructions | 10       |

```
      00 01 02 03 04 05 06 07  08 09 0A 0B 0C 0D 0E 0F
      -- -- -- -- -- -- -- --  -- -- -- -- -- -- -- --
0260:                                         B6 00 0E               ...
0270: 80 B4 00 00 00 00 00 00  00 00 00 00 00 00 00 00  ................
0280: 00 00 00 00 00 B5 00 00  00 96 A5 00 33 00 94 00  ............3...
0290: F8 FF FF 7F 22 01 2F 01  F8 FF FF 7F 00           ...."./......   
```

#### Opcodes

```
  0: 0x026D [0xB6] ENTITY_APPEARANCE_HANDLER(case=Hair style, value=2792*)
  1: 0x0271 [0xB4] UI_WINDOW_STRING_HANDLER(case=0x00 - Copy string from opcode, work_offset=ExtData[1]->WorkLocal[0], string="")
  2: 0x0285 [0xB5] SET_EVENT_ENTITY_NAME: Change EventEntity name to ExtData[1]->WorkLocal[0]
  3: 0x0289 [0x96] UNSET_EVENT_NPC: Restore NPC after event (removes event NPC status)
  4: 0x028A [0xA5] EventEntity->Flags3.BallistaTeam &= ~0x08  // Clear bit 3 of BallistaTeam
  5: 0x028C [0x33] EventEntity->Render.Flags0 &= ~ 0x200000 // Bit 21 (flag=0x00)
  6: 0x028E [0x94] EventEntity->Render.Flags3 = Flags3  // No change (flag=0)
  7: 0x0294 [0x22] ENTITY_HIDE_FLAG(enabled=0x01)
  8: 0x0296 [0x2F] EventEntity->Render.Flags0 |= 0x80000 // Bit 19
  9: 0x029C [0x00] END_REQSTACK()
```

### Event 2068

#### Metadata

| Field        | Value   |
|--------------|---------|
| Entrypoint   | 0x029D  |
| Data Size    | 1 bytes |
| Instructions | 1       |

```
      00 01 02 03 04 05 06 07  08 09 0A 0B 0C 0D 0E 0F
      -- -- -- -- -- -- -- --  -- -- -- -- -- -- -- --
0290:                                         00                     .  
```

#### Opcodes

```
  0: 0x029D [0x00] END_REQSTACK()
```

### Event 65535.33

#### Metadata

| Field        | Value    |
|--------------|----------|
| Entrypoint   | 0x029E   |
| Data Size    | 29 bytes |
| Instructions | 4        |

```
      00 01 02 03 04 05 06 07  08 09 0A 0B 0C 0D 0E 0F
      -- -- -- -- -- -- -- --  -- -- -- -- -- -- -- --
0290:                                            B6 00                ..
02A0: 4B 80 B4 00 00 00 3F 3F  3F 00 00 00 00 00 00 00  K.....???.......
02B0: 00 00 00 00 00 00 B5 00  00 00 00                 ...........     
```

#### Opcodes

```
  0: 0x029E [0xB6] ENTITY_APPEARANCE_HANDLER(case=Hair style, value=2926*)
  1: 0x02A2 [0xB4] UI_WINDOW_STRING_HANDLER(case=0x00 - Copy string from opcode, work_offset=ExtData[1]->WorkLocal[0], string="???")
  2: 0x02B6 [0xB5] SET_EVENT_ENTITY_NAME: Change EventEntity name to ExtData[1]->WorkLocal[0]
  3: 0x02BA [0x00] END_REQSTACK()
```

### Event 65535.34

#### Metadata

| Field        | Value    |
|--------------|----------|
| Entrypoint   | 0x02BB   |
| Data Size    | 29 bytes |
| Instructions | 4        |

```
      00 01 02 03 04 05 06 07  08 09 0A 0B 0C 0D 0E 0F
      -- -- -- -- -- -- -- --  -- -- -- -- -- -- -- --
02B0:                                   B6 00 4C 80 B4             ..L..
02C0: 00 00 00 3F 3F 3F 00 00  00 00 00 00 00 00 00 00  ...???..........
02D0: 00 00 00 B5 00 00 00 00                           ........        
```

#### Opcodes

```
  0: 0x02BB [0xB6] ENTITY_APPEARANCE_HANDLER(case=Hair style, value=2925*)
  1: 0x02BF [0xB4] UI_WINDOW_STRING_HANDLER(case=0x00 - Copy string from opcode, work_offset=ExtData[1]->WorkLocal[0], string="???")
  2: 0x02D3 [0xB5] SET_EVENT_ENTITY_NAME: Change EventEntity name to ExtData[1]->WorkLocal[0]
  3: 0x02D7 [0x00] END_REQSTACK()
```

### Event 65535.35

#### Metadata

| Field        | Value    |
|--------------|----------|
| Entrypoint   | 0x02D8   |
| Data Size    | 10 bytes |
| Instructions | 2        |

```
      00 01 02 03 04 05 06 07  08 09 0A 0B 0C 0D 0E 0F
      -- -- -- -- -- -- -- --  -- -- -- -- -- -- -- --
02D0:                          37 4D 80 4E 80 07 80 4F          7M.N...O
02E0: 80 00                                             ..              
```

#### Opcodes

```
  0: 0x02D8 [0x37] UPDATE_EVENT_POSITION_AND_DIR: x=10.028*, z=-20.006*, y=1.499*, direction=278.7°*
  1: 0x02E1 [0x00] END_REQSTACK()
```

### Event 2070

#### Metadata

| Field        | Value   |
|--------------|---------|
| Entrypoint   | 0x02E2  |
| Data Size    | 1 bytes |
| Instructions | 1       |

```
      00 01 02 03 04 05 06 07  08 09 0A 0B 0C 0D 0E 0F
      -- -- -- -- -- -- -- --  -- -- -- -- -- -- -- --
02E0:       00                                            .             
```

#### Opcodes

```
  0: 0x02E2 [0x00] END_REQSTACK()
```

### Event 65535.36

#### Metadata

| Field        | Value    |
|--------------|----------|
| Entrypoint   | 0x02E3   |
| Data Size    | 14 bytes |
| Instructions | 4        |

```
      00 01 02 03 04 05 06 07  08 09 0A 0B 0C 0D 0E 0F
      -- -- -- -- -- -- -- --  -- -- -- -- -- -- -- --
02E0:          32 18 80 1F 00  50 80 51 80 07 80 1F 01     2....P.Q.....
02F0: 00                                                .               
```

#### Opcodes

```
  0: 0x02E3 [0x32] ExtData[1]->MainSpeed = 13* * 0.1
  1: 0x02E6 [0x1F] MOVE_ENTITY: EventEntity moves to X=11.342*, Z=-27.207*, Y=1.499*
  2: 0x02EE [0x1F] MOVE_ENTITY: Update entity position (mode=1)
  3: 0x02F0 [0x00] END_REQSTACK()
```

### Event 2071

#### Metadata

| Field        | Value   |
|--------------|---------|
| Entrypoint   | 0x02F1  |
| Data Size    | 1 bytes |
| Instructions | 1       |

```
      00 01 02 03 04 05 06 07  08 09 0A 0B 0C 0D 0E 0F
      -- -- -- -- -- -- -- --  -- -- -- -- -- -- -- --
02F0:    00                                              .              
```

#### Opcodes

```
  0: 0x02F1 [0x00] END_REQSTACK()
```

### Event 65535.37

#### Metadata

| Field        | Value   |
|--------------|---------|
| Entrypoint   | 0x02F2  |
| Data Size    | 5 bytes |
| Instructions | 2       |

```
      00 01 02 03 04 05 06 07  08 09 0A 0B 0C 0D 0E 0F
      -- -- -- -- -- -- -- --  -- -- -- -- -- -- -- --
02F0:       B6 00 31 80 00                                ..1..         
```

#### Opcodes

```
  0: 0x02F2 [0xB6] ENTITY_APPEARANCE_HANDLER(case=Hair style, value=2809*)
  1: 0x02F6 [0x00] END_REQSTACK()
```

### Event 65535.38

#### Metadata

| Field        | Value    |
|--------------|----------|
| Entrypoint   | 0x02F7   |
| Data Size    | 42 bytes |
| Instructions | 6        |

```
      00 01 02 03 04 05 06 07  08 09 0A 0B 0C 0D 0E 0F
      -- -- -- -- -- -- -- --  -- -- -- -- -- -- -- --
02F0:                      A5  01 33 01 37 32 80 33 80         ..3.72.3.
0300: 2A 80 34 80 5B 35 80 F8  FF FF 7F F8 FF FF 7F 62  *.4.[5.........b
0310: 6F 6B 31 53 F8 FF FF 7F  F8 FF FF 7F 62 6F 6B 31  ok1S........bok1
0320: 00                                                .               
```

#### Opcodes

```
  0: 0x02F7 [0xA5] EventEntity->Flags3.BallistaTeam |= 0x08  // Set bit 3 of BallistaTeam
  1: 0x02F9 [0x33] EventEntity->Render.Flags0 |= 0x200000 // Bit 21 (flag=0x01)
  2: 0x02FB [0x37] UPDATE_EVENT_POSITION_AND_DIR: x=9.630*, z=-12.931*, y=0.000*, direction=222.6°*
  3: 0x0304 [0x5B] LOAD_EXT_SCHEDULER: Load scheduler "bok1" with entities [EventEntity, EventEntity], work=3323*
  4: 0x0313 [0x53] WAIT_SCHEDULER_TASK: Wait for scheduler "bok1" with entities [EventEntity, EventEntity]
  5: 0x0320 [0x00] END_REQSTACK()
```

### Event 65535.39

#### Metadata

| Field        | Value    |
|--------------|----------|
| Entrypoint   | 0x0321   |
| Data Size    | 42 bytes |
| Instructions | 6        |

```
      00 01 02 03 04 05 06 07  08 09 0A 0B 0C 0D 0E 0F
      -- -- -- -- -- -- -- --  -- -- -- -- -- -- -- --
0320:    A5 01 33 01 37 32 80  33 80 2A 80 36 80 5B 35   ..3.72.3.*.6.[5
0330: 80 F8 FF FF 7F F8 FF FF  7F 62 6F 6B 31 53 F8 FF  .........bok1S..
0340: FF 7F F8 FF FF 7F 62 6F  6B 31 00                 ......bok1.     
```

#### Opcodes

```
  0: 0x0321 [0xA5] EventEntity->Flags3.BallistaTeam |= 0x08  // Set bit 3 of BallistaTeam
  1: 0x0323 [0x33] EventEntity->Render.Flags0 |= 0x200000 // Bit 21 (flag=0x01)
  2: 0x0325 [0x37] UPDATE_EVENT_POSITION_AND_DIR: x=9.630*, z=-12.931*, y=0.000*, direction=108.4°*
  3: 0x032E [0x5B] LOAD_EXT_SCHEDULER: Load scheduler "bok1" with entities [EventEntity, EventEntity], work=3323*
  4: 0x033D [0x53] WAIT_SCHEDULER_TASK: Wait for scheduler "bok1" with entities [EventEntity, EventEntity]
  5: 0x034A [0x00] END_REQSTACK()
```

### Event 2039

#### Metadata

| Field        | Value   |
|--------------|---------|
| Entrypoint   | 0x034B  |
| Data Size    | 1 bytes |
| Instructions | 1       |

```
      00 01 02 03 04 05 06 07  08 09 0A 0B 0C 0D 0E 0F
      -- -- -- -- -- -- -- --  -- -- -- -- -- -- -- --
0340:                                   00                         .    
```

#### Opcodes

```
  0: 0x034B [0x00] END_REQSTACK()
```

### Event 65535.40

#### Metadata

| Field        | Value    |
|--------------|----------|
| Entrypoint   | 0x034C   |
| Data Size    | 33 bytes |
| Instructions | 5        |

```
      00 01 02 03 04 05 06 07  08 09 0A 0B 0C 0D 0E 0F
      -- -- -- -- -- -- -- --  -- -- -- -- -- -- -- --
0340:                                      B6 00 52 80              ..R.
0350: B6 0F 53 80 B4 13 00 00  3F 3F 3F 00 00 00 00 00  ..S.....???.....
0360: 00 00 00 00 00 00 00 00  B5 00 00 00 00           .............   
```

#### Opcodes

```
  0: 0x034C [0xB6] ENTITY_APPEARANCE_HANDLER(case=Hair style, value=380*)
  1: 0x0350 [0xB6] ENTITY_APPEARANCE_HANDLER(case=Model size, value=50*)
  2: 0x0354 [0xB4] UI_WINDOW_STRING_HANDLER(case=0x13 - Copy string and replace @ with space, work_offset=ExtData[1]->WorkLocal[0], string="???")
  3: 0x0368 [0xB5] SET_EVENT_ENTITY_NAME: Change EventEntity name to ExtData[1]->WorkLocal[0]
  4: 0x036C [0x00] END_REQSTACK()
```

### Event 65535.41

#### Metadata

| Field        | Value    |
|--------------|----------|
| Entrypoint   | 0x036D   |
| Data Size    | 22 bytes |
| Instructions | 5        |

```
      00 01 02 03 04 05 06 07  08 09 0A 0B 0C 0D 0E 0F
      -- -- -- -- -- -- -- --  -- -- -- -- -- -- -- --
0360:                                         B6 00 0E               ...
0370: 80 37 54 80 55 80 56 80  57 80 22 01 2F 01 F8 FF  .7T.U.V.W."./...
0380: FF 7F 00                                          ...             
```

#### Opcodes

```
  0: 0x036D [0xB6] ENTITY_APPEARANCE_HANDLER(case=Hair style, value=2792*)
  1: 0x0371 [0x37] UPDATE_EVENT_POSITION_AND_DIR: x=-1.891*, z=4.619*, y=0.238*, direction=75.9°*
  2: 0x037A [0x22] ENTITY_HIDE_FLAG(enabled=0x01)
  3: 0x037C [0x2F] EventEntity->Render.Flags0 |= 0x80000 // Bit 19
  4: 0x0382 [0x00] END_REQSTACK()
```

### Event 65535.42

#### Metadata

| Field        | Value    |
|--------------|----------|
| Entrypoint   | 0x0383   |
| Data Size    | 10 bytes |
| Instructions | 2        |

```
      00 01 02 03 04 05 06 07  08 09 0A 0B 0C 0D 0E 0F
      -- -- -- -- -- -- -- --  -- -- -- -- -- -- -- --
0380:          37 58 80 59 80  5A 80 5B 80 00              7X.Y.Z.[..   
```

#### Opcodes

```
  0: 0x0383 [0x37] UPDATE_EVENT_POSITION_AND_DIR: x=12.304*, z=8.021*, y=0.092*, direction=323.9°*
  1: 0x038C [0x00] END_REQSTACK()
```

### Event 65535.43

#### Metadata

| Field        | Value    |
|--------------|----------|
| Entrypoint   | 0x038D   |
| Data Size    | 13 bytes |
| Instructions | 2        |

```
      00 01 02 03 04 05 06 07  08 09 0A 0B 0C 0D 0E 0F
      -- -- -- -- -- -- -- --  -- -- -- -- -- -- -- --
0380:                                         C4 02 5C               ..\
0390: 80 F8 FF FF 7F 5C 80 11  01 00                    .....\....      
```

#### Opcodes

```
  0: 0x038D [0xC4] SCHEDULE_MAGIC_CASTING_ALT (arg=18): EventEntity casts magic 63* on DIRECTOR2 (ID: 17924188/0x0111805C)
  1: 0x0399 [0x00] END_REQSTACK()
```
