# 17924234 - Breeding Monster01

## Common Data

| Field            | Value                |
|------------------|----------------------|
| Zone             | Mog Garden (ID: 280) |
| Block Size       | 10368 bytes          |
| Total Events     | 7                    |
| References Count | 113                  |

## List of Events

| Event ID                 | Entrypoint   |   Size |   Instructions |
|--------------------------|--------------|--------|----------------|
| [65535](#event-65535)    | 0x0000       |      1 |              1 |
| [65534](#event-65534)    | 0x0001       |      1 |              1 |
| [1077](#event-1077)      | 0x0002       |      4 |              2 |
| [1082](#event-1082)      | 0x0006       |      4 |              2 |
| [65535.1](#event-655351) | 0x000A       |   3541 |            573 |
| [2050](#event-2050)      | 0x0DDF       |      1 |              1 |
| [2051](#event-2051)      | 0x0DE0       |   6320 |           1073 |

## DAT References (imed_data)

|   Index | Hex Value   |   Dec Value |
|---------|-------------|-------------|
|       0 | 0x0000      |           0 |
|       1 | 0x0006      |           6 |
|       2 | 0x0010      |          16 |
|       3 | 0x001F      |          31 |
|       4 | 0x0008      |           8 |
|       5 | 0x000F      |          15 |
|       6 | 0x0B62      |        2914 |
|       7 | 0x0004      |           4 |
|       8 | 0x0001      |           1 |
|       9 | 0x0155      |         341 |
|      10 | 0x0B64      |        2916 |
|      11 | 0x0121      |         289 |
|      12 | 0x000A      |          10 |
|      13 | 0x00ED      |         237 |
|      14 | 0x00C8      |         200 |
|      15 | 0x0013      |          19 |
|      16 | 0xFFFFCEB1  |  4294954673 |
|      17 | 0x2F8A      |       12170 |
|      18 | 0x009C      |         156 |
|      19 | 0x0369      |         873 |
|      20 | 0x56288     |      352904 |
|      21 | 0xFFF791BD  |  4294414781 |
|      22 | 0xFFFFF351  |  4294964049 |
|      23 | 0x0F73      |        3955 |
|      24 | 0x57E5F     |      360031 |
|      25 | 0xFFF79C9A  |  4294417562 |
|      26 | 0xFFFFF3F1  |  4294964209 |
|      27 | 0x0785      |        1925 |
|      28 | 0x0002      |           2 |
|      29 | 0x0003      |           3 |
|      30 | 0x02B2      |         690 |
|      31 | 0x221A      |        8730 |
|      32 | 0x000D      |          13 |
|      33 | 0x221B      |        8731 |
|      34 | 0x221C      |        8732 |
|      35 | 0x221D      |        8733 |
|      36 | 0x221E      |        8734 |
|      37 | 0x221F      |        8735 |
|      38 | 0x2220      |        8736 |
|      39 | 0x1D22      |        7458 |
|      40 | 0x21E6      |        8678 |
|      41 | 0x21E7      |        8679 |
|      42 | 0x0DEE      |        3566 |
|      43 | 0x21E8      |        8680 |
|      44 | 0x000C      |          12 |
|      45 | 0x00EC      |         236 |
|      46 | 0x2222      |        8738 |
|      47 | 0x21FF      |        8703 |
|      48 | 0x001E      |          30 |
|      49 | 0x222C      |        8748 |
|      50 | 0x222D      |        8749 |
|      51 | 0x003C      |          60 |
|      52 | 0x222E      |        8750 |
|      53 | 0x0032      |          50 |
|      54 | 0x2206      |        8710 |
|      55 | 0x2205      |        8709 |
|      56 | 0x2204      |        8708 |
|      57 | 0x00EB      |         235 |
|      58 | 0x2203      |        8707 |
|      59 | 0x2202      |        8706 |
|      60 | 0x220B      |        8715 |
|      61 | 0x220A      |        8714 |
|      62 | 0x2209      |        8713 |
|      63 | 0x2208      |        8712 |
|      64 | 0x2207      |        8711 |
|      65 | 0x220D      |        8717 |
|      66 | 0x220E      |        8718 |
|      67 | 0x220F      |        8719 |
|      68 | 0x2210      |        8720 |
|      69 | 0x2211      |        8721 |
|      70 | 0x2212      |        8722 |
|      71 | 0x2213      |        8723 |
|      72 | 0xFFFFFFFF  |  4294967295 |
|      73 | 0x2218      |        8728 |
|      74 | 0x2219      |        8729 |
|      75 | 0x000B      |          11 |
|      76 | 0x2214      |        8724 |
|      77 | 0x2215      |        8725 |
|      78 | 0x2217      |        8727 |
|      79 | 0x2216      |        8726 |
|      80 | 0x0007      |           7 |
|      81 | 0x0017      |          23 |
|      82 | 0x0018      |          24 |
|      83 | 0x0012      |          18 |
|      84 | 0x0014      |          20 |
|      85 | 0x2223      |        8739 |
|      86 | 0x2228      |        8744 |
|      87 | 0x2229      |        8745 |
|      88 | 0x1DB4      |        7604 |
|      89 | 0x110E      |        4366 |
|      90 | 0x2224      |        8740 |
|      91 | 0x001A      |          26 |
|      92 | 0x001B      |          27 |
|      93 | 0x001C      |          28 |
|      94 | 0x0005      |           5 |
|      95 | 0x0015      |          21 |
|      96 | 0x0016      |          22 |
|      97 | 0x0019      |          25 |
|      98 | 0x0009      |           9 |
|      99 | 0x0011      |          17 |
|     100 | 0x000E      |          14 |
|     101 | 0x001D      |          29 |
|     102 | 0x0063      |          99 |
|     103 | 0x0049      |          73 |
|     104 | 0xFFFFF62B  |  4294964779 |
|     105 | 0xFFFFEC34  |  4294962228 |
|     106 | 0x01C4      |         452 |
|     107 | 0x0CF5      |        3317 |
|     108 | 0x0048      |          72 |
|     109 | 0x582C8     |      361160 |
|     110 | 0xFFF788EE  |  4294412526 |
|     111 | 0xFFFFF2F4  |  4294963956 |
|     112 | 0x064D      |        1613 |

## String References

- **7604**: What a terrific time to test tag utility, kupo!
- **8678**: By putting %0 down, you will personally end its life. While there will be no physical repercussion for doing such, are you willing to have that on your conscience?
- **8679**: Put the creature down? [Yes, I have no reservations./No, not yet!]
- **8703**: What will you do? [Nothing./See how the critter's doing./Interact with the beast./Give the creature a name./Collect items.]
- **8706**: %0's practically bursting with joy!
- **8707**: %0's in an obviously good mood.
- **8708**: %0 looks calm and collected.
- **8709**: %0 seems to be pouting slightly.
- **8710**: %0 looks like it wants absolutely nothing to do with anyone.
- **8711**: [However,/However,/Moreover,/Moreover,/Moreover,] it couldn't be more content with its life.
- **8712**: [However,/However,/Moreover,/Moreover,/Moreover,] it seems to be duly satisfied with its lot in life.
- **8713**: [Moreover,/Moreover,/However,/However,/However,] it exudes a slight aura of discontent.
- **8714**: [Moreover,/Moreover,/However,/However,/However,] it is clearly unhappy with the way things are.
- **8715**: [Moreover,/Moreover,/However,/However,/However,] it seems thoroughly depressed about the abysmal conditions under which it lives.
- **8717**: Current growth level: [EEE/$25EE/$26EE/$26$25E/$26$26E/$26$26$25/$26$26$26/$26$26$26].
- **8718**: How will you interact? [Do nothing./Pet it./Poke it./Slap it./Yell loudly at it./Get angry at it.]
- **8719**: %0 stares off into the distance as if you're not even there.
- **8720**: %0 is visibly angry with what you just did.
- **8721**: That didn't go over too well with %0.
- **8722**: That was surprisingly not worthless in the eyes of %0!
- **8723**: That strongly resonated with %0!
- **8724**: Please bestow a name of 15 letters or fewer upon your creature. Taking no action will annul the process.
- **8725**: Is %0 fine? [Yes./No, I'll pick a new one./No, I quit.]
- **8728**: Try to collect items from your beloved beastie?
- **8729**: Proceed? [Yes, that sounds wonderful./No, I won't take any chances.]
- **8731**: %0's heart is shrouded in darkness, turning the creature against you! Leaving %0 in this state could spell doom for your garden.
- **8732**: Whatever will you do!? [Not a thing./Hope moogle magic does the trick./Put the creature down.]
- **8733**: This entails having the Green Thumb Moogle employ the power of shining stars to cast an incantation on the creature, thus calming it.
- **8734**: Use moogle magic? (On hand: $26 x $0) [Yes.i$26 x $1)/No.]
- **8736**: The darkness no longer dwells within %0's heart.
- **8738**: %0's face beams with the light of pure contentment! There is nothing that can foul %0's mood right now, including gathering items from it.
- **8739**: You gave %0 $1.
- **8740**: Perhaps it would be best to give %0 $1.
- **8744**: %0 squirms uncontrollably.
- **8745**: %0 shudders violently.
- **8748**: Creature type: [/Lamb/Sheep/Karakul/Sapling/Green Foliage Treat/Red Foliage Treant/Baby Rabbit/Rabbit/White Rabbit/Baby Lizard/Lizard/Alabaster Lizard/Ram/Baby Cockatrice/Cockatrice/Ziz/Baby Raptor/Raptor/Red Raptor/Baby Eft/Eft/Tarichuk/Dhalmel Calf/Dhalmel/Great Dhalmel/Sea Monk Larva/Sea Monk/Blue Sea Monk/Uragnite Youngling].
- **8749**: Creature Type: [Uragnite/Limascabra/Immature Crab/Crab/Porter Crab/Baby Colibri/Colibri/Toucalibri/Coeurl Cub/Coeurl/Lynx/Buffalo Calf/Buffalo/Mini Slime/Slime/Clot/Hecteyes/Tiny Bugard/Bugard/Abyssobugard/Baby Adamantoise/Adamantoise/Great Adamantoise/White Adamantoise/Ferromantoise/Great Ferromantoise/Cluster/Bomb/Djinn/Snoll].
- **8750**: Creature type: [Behemoth Cub/Behemoth/King Behemoth/Elasmoth/Skormoth/Dragon Hatchling/Wyvern/Blue Wyvern/Green Wyvern/Abyssal Wyrm/Lunar Wyrm/Blazing Wyrm/Pequetender/Sabotender/Jumbotender/Mandragora Sproutling/Mandragora/Elder Mandragora/Lycopodium/Korrigan/Pachypodium/Adenium/Elder Adenium/Ake-Ome/Citrullus].

## Events

### Event 65535

#### Metadata

| Field        | Value   |
|--------------|---------|
| Entrypoint   | 0x0000  |
| Data Size    | 1 bytes |
| Instructions | 1       |

```
      00 01 02 03 04 05 06 07  08 09 0A 0B 0C 0D 0E 0F
      -- -- -- -- -- -- -- --  -- -- -- -- -- -- -- --
0000: 00                                                .               
```

#### Opcodes

```
  0: 0x0000 [0x00] END_REQSTACK()
```

### Event 65534

#### Metadata

| Field        | Value   |
|--------------|---------|
| Entrypoint   | 0x0001  |
| Data Size    | 1 bytes |
| Instructions | 1       |

```
      00 01 02 03 04 05 06 07  08 09 0A 0B 0C 0D 0E 0F
      -- -- -- -- -- -- -- --  -- -- -- -- -- -- -- --
0000:    00                                              .              
```

#### Opcodes

```
  0: 0x0001 [0x00] END_REQSTACK()
```

### Event 1077

#### Metadata

| Field        | Value   |
|--------------|---------|
| Entrypoint   | 0x0002  |
| Data Size    | 4 bytes |
| Instructions | 1       |

```
      00 01 02 03 04 05 06 07  08 09 0A 0B 0C 0D 0E 0F
      -- -- -- -- -- -- -- --  -- -- -- -- -- -- -- --
0000:       01 D8 00 00                                   ....          
```

#### Opcodes

```
  0: 0x0002 [0x01] GOTO 0x00D8
```

#### Data or dead code:

```
# Dead code (unreachable instructions):
     0x0005 [0x00] END_REQSTACK()
```

### Event 1082

#### Metadata

| Field        | Value   |
|--------------|---------|
| Entrypoint   | 0x0006  |
| Data Size    | 4 bytes |
| Instructions | 1       |

```
      00 01 02 03 04 05 06 07  08 09 0A 0B 0C 0D 0E 0F
      -- -- -- -- -- -- -- --  -- -- -- -- -- -- -- --
0000:                   01 E8  0C 00                          ....      
```

#### Opcodes

```
  0: 0x0006 [0x01] GOTO 0x0CE8
```

#### Data or dead code:

```
# Dead code (unreachable instructions):
     0x0009 [0x00] END_REQSTACK()
```

### Event 65535.1

#### Metadata

| Field        | Value      |
|--------------|------------|
| Entrypoint   | 0x000A     |
| Data Size    | 3541 bytes |
| Instructions | 33         |

```
      00 01 02 03 04 05 06 07  08 09 0A 0B 0C 0D 0E 0F
      -- -- -- -- -- -- -- --  -- -- -- -- -- -- -- --
0000:                                AC 04 8A 80 11 01            ......
0010: 00 80 3E 01 11 01 80 D5  00 41 02 80 03 80 0B 11  ..>......A......
0020: 00 00 41 04 80 05 80 0A  11 01 00 B6 00 00 00 B6  ..A.............
0030: 0F 01 00 80 F8 FF FF 7F  02 00 00 06 80 00 49 00  ..............I.
0040: 95 07 80 1C 08 80 01 83  00 02 00 00 09 80 00 5A  ...............Z
0050: 00 95 07 80 1C 08 80 01  83 00 02 00 00 0A 80 00  ................
0060: 6B 00 95 07 80 1C 08 80  01 83 00 02 00 00 0B 80  k...............
0070: 00 83 00 2C F8 FF FF 7F  F8 FF FF 7F 6B 69 6C 6C  ...,........kill
0080: 1C 01 80 22 00 1C 08 80  3E 01 11 0C 80 B2 00 CD  ..."....>.......
0090: 0D 80 F8 FF FF 7F F8 FF  FF 7F 6F 6E 6D 79 00 80  ..........onmy..
00A0: CE 0D 80 F8 FF FF 7F F8  FF FF 7F 6F 6E 6D 79 01  ...........onmy.
00B0: D2 00 CD 0D 80 F8 FF FF  7F F8 FF FF 7F 6B 6C 6D  .............klm
00C0: 79 00 80 CE 0D 80 F8 FF  FF 7F F8 FF FF 7F 6B 6C  y.............kl
00D0: 6D 79 01 D7 00 22 01 00  03 0B 00 05 10 03 0D 00  my..."..........
00E0: 06 10 1A 8D 0C 1E F0 FF  FF 7F 06 10 00 03 0F 00  ................
00F0: 08 80 02 0F 00 00 80 02  DD 0B 3E 06 00 00 80 9D  ..........>.....
0100: 07 42 46 01 45 0E 80 F0  FF FF 7F F0 FF FF 7F 66  .BF.E..........f
0110: 64 6F 31 00 80 55 0E 80  F0 FF FF 7F F0 FF FF 7F  do1..U..........
0120: 66 64 6F 31 38 0F 80 2F  00 5B 80 11 01 4E 00 5B  fdo18../.[...N.[
0130: 80 11 01 02 08 80 00 80  00 55 01 29 08 F0 FF FF  .........U.)....
0140: 7F 23 37 10 80 11 80 12  80 13 80 29 08 5B 80 11  .#7........).[..
0150: 01 21 01 79 01 29 08 F0  FF FF 7F 24 37 14 80 15  .!.y.).....$7...
0160: 80 16 80 17 80 BA 1D 80  11 01 18 80 19 80 1A 80  ................
0170: 1B 80 29 08 5B 80 11 01  23 80 5B 80 11 01 CD 0D  ..).[...#.[.....
0180: 80 F8 FF FF 7F F8 FF FF  7F 6F 6E 6D 79 00 80 02  .........onmy...
0190: 08 80 00 80 00 A0 01 4E  01 87 80 11 01 01 A6 01  .......N........
01A0: 4E 01 88 80 11 01 4A 5B  80 11 01 F8 FF FF 7F 4A  N.....J[.......J
01B0: F8 FF FF 7F F0 FF FF 7F  4A 1D 80 11 01 F8 FF FF  ........J.......
01C0: 7F 6F 76 F8 FF FF 7F 6F  76 1D 80 11 01 6F 76 5B  .ov....ov....ov[
01D0: 80 11 01 92 01 5B 80 11  01 92 01 1D 80 11 01 92  .....[..........
01E0: 01 F8 FF FF 7F 02 08 80  00 80 00 F0 01 01 B2 02  ................
01F0: 92 01 89 80 11 01 92 01  8A 80 11 01 92 01 8B 80  ................
0200: 11 01 92 01 8C 80 11 01  92 01 8D 80 11 01 02 08  ................
0210: 80 00 80 00 37 02 92 01  89 80 11 01 92 01 8D 80  ....7...........
0220: 11 01 4E 01 8A 80 11 01  4E 01 8B 80 11 01 4E 01  ..N.....N.....N.
0230: 8C 80 11 01 01 B2 02 02  08 80 08 80 00 60 02 92  .............`..
0240: 01 8A 80 11 01 4E 01 8B  80 11 01 4E 01 8C 80 11  .....N.....N....
0250: 01 4E 01 8D 80 11 01 4E  01 89 80 11 01 01 B2 02  .N.....N........
0260: 02 08 80 1C 80 00 89 02  92 01 8B 80 11 01 4E 01  ..............N.
0270: 8C 80 11 01 4E 01 8D 80  11 01 4E 01 89 80 11 01  ....N.....N.....
0280: 4E 01 8A 80 11 01 01 B2  02 02 08 80 1D 80 00 B2  N...............
0290: 02 92 01 8C 80 11 01 4E  01 8A 80 11 01 4E 01 8B  .......N.....N..
02A0: 80 11 01 4E 01 8D 80 11  01 4E 01 89 80 11 01 01  ...N.....N......
02B0: B2 02 29 08 1D 80 11 01  49 02 08 80 00 80 00 D5  ..).....I.......
02C0: 02 45 1E 80 F0 FF FF 7F  F0 FF FF 7F 73 31 30 33  .E..........s103
02D0: 00 80 01 E6 02 45 1E 80  F0 FF FF 7F F0 FF FF 7F  .....E..........
02E0: 73 30 33 38 00 80 45 0E  80 F0 FF FF 7F F0 FF FF  s038..E.........
02F0: 7F 66 64 69 31 00 80 55  0E 80 F0 FF FF 7F F0 FF  .fdi1..U........
0300: FF 7F 66 64 69 31 2B 1D  80 11 01 1F 80 23 02 08  ..fdi1+......#..
0310: 80 00 80 00 28 03 52 1E  80 F0 FF FF 7F F0 FF FF  ....(.R.........
0320: 7F 73 31 30 33 01 37 03  52 1E 80 F0 FF FF 7F F0  .s103.7.R.......
0330: FF FF 7F 73 30 33 38 02  08 80 00 80 00 6E 03 3E  ...s038......n.>
0340: 01 11 20 80 5A 03 45 1E  80 F0 FF FF 7F F0 FF FF  .. .Z.E.........
0350: 7F 73 31 30 34 00 80 01  6B 03 45 1E 80 F0 FF FF  .s104...k.E.....
0360: 7F F0 FF FF 7F 73 31 30  35 00 80 01 9A 03 3E 01  .....s105.....>.
0370: 11 20 80 89 03 45 1E 80  F0 FF FF 7F F0 FF FF 7F  . ...E..........
0380: 73 30 33 37 00 80 01 9A  03 45 1E 80 F0 FF FF 7F  s037.....E......
0390: F0 FF FF 7F 73 30 33 36  00 80 48 21 80 23 29 08  ....s036..H!.#).
03A0: 1D 80 11 01 4A 02 08 80  00 80 00 D8 03 3E 01 11  ....J........>..
03B0: 20 80 C6 03 52 1E 80 F0  FF FF 7F F0 FF FF 7F 73   ...R..........s
03C0: 31 30 34 01 D5 03 52 1E  80 F0 FF FF 7F F0 FF FF  104...R.........
03D0: 7F 73 31 30 35 01 00 04  3E 01 11 20 80 F1 03 52  .s105...>.. ...R
03E0: 1E 80 F0 FF FF 7F F0 FF  FF 7F 73 30 33 37 01 00  ..........s037..
03F0: 04 52 1E 80 F0 FF FF 7F  F0 FF FF 7F 73 30 33 36  .R..........s036
0400: 0B 0F 00 02 0F 00 08 80  02 9A 07 24 22 80 00 80  ...........$"...
0410: 00 80 25 02 00 10 00 80  00 82 04 45 0E 80 F0 FF  ..%........E....
0420: FF 7F F0 FF FF 7F 66 64  6F 31 00 80 55 0E 80 F0  ......fdo1..U...
0430: FF FF 7F F0 FF FF 7F 66  64 6F 31 4E 00 89 80 11  .......fdo1N....
0440: 01 4E 00 8A 80 11 01 4E  00 8B 80 11 01 4E 00 8C  .N.....N.....N..
0450: 80 11 01 4E 00 8D 80 11  01 1A C0 16 1A 69 16 1A  ...N.........i..
0460: 77 16 1A 85 16 1A 93 16  46 00 45 0E 80 F0 FF FF  w.......F.E.....
0470: 7F F0 FF FF 7F 66 64 69  31 00 80 21 06 0F 00 01  .....fdi1..!....
0480: 97 07 02 00 10 08 80 00  01 06 29 08 1D 80 11 01  ..........).....
0490: 6A 48 23 80 23 03 02 10  0B 00 03 03 10 0C 00 07  jH#.#...........
04A0: 03 10 08 80 02 03 10 0C  80 02 B1 04 03 03 10 0C  ................
04B0: 80 24 24 80 08 80 00 80  25 29 08 1D 80 11 01 6B  .$$.....%).....k
04C0: 02 00 10 00 80 00 F3 05  06 01 10 40 04 80 05 80  ...........@....
04D0: 01 10 20 80 43 00 43 01  02 09 10 00 80 00 E8 05  .. .C.C.........
04E0: 02 08 80 00 80 00 FC 04  45 1E 80 F0 FF FF 7F F0  ........E.......
04F0: FF FF 7F 73 31 30 32 00  80 01 0D 05 45 1E 80 F0  ...s102.....E...
0500: FF FF 7F F0 FF FF 7F 73  30 33 39 00 80 29 08 1D  .......s039..)..
0510: 80 11 01 6C 2B 1D 80 11  01 25 80 23 29 08 1D 80  ...l+....%.#)...
0520: 11 01 6D 02 08 80 00 80  00 3D 05 52 1E 80 F0 FF  ..m......=.R....
0530: FF 7F F0 FF FF 7F 73 31  30 32 01 4C 05 52 1E 80  ......s102.L.R..
0540: F0 FF FF 7F F0 FF FF 7F  73 30 33 39 CD 0D 80 F8  ........s039....
0550: FF FF 7F F8 FF FF 7F 6F  66 6D 79 00 80 45 0E 80  .......ofmy..E..
0560: F0 FF FF 7F F0 FF FF 7F  66 64 6F 31 00 80 55 0E  ........fdo1..U.
0570: 80 F0 FF FF 7F F0 FF FF  7F 66 64 6F 31 52 1E 80  .........fdo1R..
0580: F0 FF FF 7F F0 FF FF 7F  73 31 30 32 4E 00 89 80  ........s102N...
0590: 11 01 4E 00 8A 80 11 01  4E 00 8B 80 11 01 4E 00  ..N.....N.....N.
05A0: 8C 80 11 01 4E 00 8D 80  11 01 CD 0D 80 F8 FF FF  ....N...........
05B0: 7F F8 FF FF 7F 6B 6C 6D  79 00 80 48 26 80 23 1A  .....klmy..H&.#.
05C0: C0 16 1A 69 16 1A 77 16  1A 85 16 1A 93 16 46 00  ...i..w.......F.
05D0: 45 0E 80 F0 FF FF 7F F0  FF FF 7F 66 64 69 31 00  E..........fdi1.
05E0: 80 20 00 21 00 01 F0 05  2B 1D 80 11 01 27 80 23  . .!....+....'.#
05F0: 01 FE 05 02 00 10 08 80  00 FE 05 01 FE 05 01 97  ................
0600: 07 02 00 10 1C 80 00 97  07 48 28 80 23 24 29 80  .........H(.#$).
0610: 08 80 00 80 25 02 00 10  00 80 00 89 07 02 08 80  ....%...........
0620: 00 80 00 54 06 3E 01 11  20 80 40 06 45 1E 80 F0  ...T.>.. .@.E...
0630: FF FF 7F F0 FF FF 7F 73  31 30 34 00 80 01 51 06  .......s104...Q.
0640: 45 1E 80 F0 FF FF 7F F0  FF FF 7F 73 31 30 35 00  E..........s105.
0650: 80 01 80 06 3E 01 11 20  80 6F 06 45 1E 80 F0 FF  ....>.. .o.E....
0660: FF 7F F0 FF FF 7F 73 30  33 37 00 80 01 80 06 45  ......s037.....E
0670: 1E 80 F0 FF FF 7F F0 FF  FF 7F 73 30 33 36 00 80  ..........s036..
0680: 7B 5B 80 11 01 5B 2A 80  5B 80 11 01 5B 80 11 01  {[...[*.[...[...
0690: 68 65 64 30 2B 5B 80 11  01 2B 80 23 45 0E 80 F0  hed0+[...+.#E...
06A0: FF FF 7F F0 FF FF 7F 66  64 6F 31 00 80 55 0E 80  .......fdo1..U..
06B0: F0 FF FF 7F F0 FF FF 7F  66 64 6F 31 CD 0D 80 F8  ........fdo1....
06C0: FF FF 7F F8 FF FF 7F 6B  6C 6D 79 00 80 02 08 80  .......klmy.....
06D0: 00 80 00 00 07 3E 01 11  20 80 EE 06 52 1E 80 F0  .....>.. ...R...
06E0: FF FF 7F F0 FF FF 7F 73  31 30 34 01 FD 06 52 1E  .......s104...R.
06F0: 80 F0 FF FF 7F F0 FF FF  7F 73 31 30 35 01 28 07  .........s105.(.
0700: 3E 01 11 20 80 19 07 52  1E 80 F0 FF FF 7F F0 FF  >.. ...R........
0710: FF 7F 73 30 33 37 01 28  07 52 1E 80 F0 FF FF 7F  ..s037.(.R......
0720: F0 FF FF 7F 73 30 33 36  53 5B 80 11 01 5B 80 11  ....s036S[...[..
0730: 01 68 65 64 30 5B 2A 80  5B 80 11 01 5B 80 11 01  .hed0[*.[...[...
0740: 68 65 64 31 4E 01 5B 80  11 01 2F 01 5B 80 11 01  hed1N.[.../.[...
0750: 06 01 10 40 04 80 05 80  01 10 2C 80 43 00 43 01  ...@......,.C.C.
0760: 1A C0 16 1A 69 16 1A 77  16 1A 85 16 1A 93 16 46  ....i..w.......F
0770: 00 45 0E 80 F0 FF FF 7F  F0 FF FF 7F 66 64 69 31  .E..........fdi1
0780: 00 80 20 00 21 00 01 94  07 02 00 10 08 80 00 94  .. .!...........
0790: 07 01 94 07 01 97 07 01  03 04 01 DA 0B 3E 06 00  .............>..
07A0: 08 80 EB 07 3E 10 00 00  80 AE 07 01 EB 07 42 CD  ....>.........B.
07B0: 2D 80 F8 FF FF 7F F8 FF  FF 7F 6F 6E 6F 6E 00 80  -.........onon..
07C0: 48 2E 80 23 3C 10 00 00  80 08 80 CE 2D 80 F8 FF  H..#<.......-...
07D0: FF 7F F8 FF FF 7F 6F 6E  6F 6E CD 2D 80 F8 FF FF  ......onon.-....
07E0: 7F F8 FF FF 7F 6F 66 6F  6E 00 80 2E 0E 11 00 0D  .....ofon.......
07F0: 00 3E 10 00 08 80 FF 07  3C 11 00 1C 80 08 80 3E  .>......<......>
0800: 10 00 1C 80 0D 08 3C 11  00 1D 80 08 80 24 2F 80  ......<......$/.
0810: 00 80 11 00 25 02 00 10  00 80 00 23 08 06 0F 00  ....%......#....
0820: 01 DA 0B 02 00 10 08 80  00 E7 09 03 03 10 03 00  ................
0830: 15 03 10 30 80 02 03 10  00 80 80 49 08 03 03 10  ...0.......I....
0840: 03 00 48 31 80 23 01 7B  08 02 03 10 08 80 80 62  ..H1.#.{.......b
0850: 08 03 03 10 03 00 08 03  10 30 80 48 32 80 23 01  .........0.H2.#.
0860: 7B 08 02 03 10 1C 80 80  7B 08 03 03 10 03 00 08  {.......{.......
0870: 03 10 33 80 48 34 80 23  01 7B 08 03 0E 00 05 00  ..3.H4.#.{......
0880: 15 0E 00 35 80 02 0E 00  00 80 03 93 08 06 0E 00  ...5............
0890: 01 A0 08 02 0E 00 07 80  02 A0 08 03 0E 00 07 80  ................
08A0: 42 02 0E 00 00 80 80 E1  08 CD 0D 80 F8 FF FF 7F  B...............
08B0: F8 FF FF 7F 6F 6E 6D 79  00 80 48 36 80 23 CE 0D  ....onmy..H6.#..
08C0: 80 F8 FF FF 7F F8 FF FF  7F 6F 6E 6D 79 CD 0D 80  .........onmy...
08D0: F8 FF FF 7F F8 FF FF 7F  6F 66 6D 79 00 80 01 62  ........ofmy...b
08E0: 09 02 0E 00 08 80 80 F0  08 48 37 80 23 01 62 09  .........H7.#.b.
08F0: 02 0E 00 1C 80 80 FF 08  48 38 80 23 01 62 09 02  ........H8.#.b..
0900: 0E 00 1D 80 80 1F 09 CD  39 80 F8 FF FF 7F F8 FF  ........9.......
0910: FF 7F 6D 61 69 6E 00 80  48 3A 80 23 01 62 09 02  ..main..H:.#.b..
0920: 0E 00 07 80 80 62 09 CD  2D 80 F8 FF FF 7F F8 FF  .....b..-.......
0930: FF 7F 6F 6E 6F 6E 00 80  48 3B 80 23 CE 2D 80 F8  ..onon..H;.#.-..
0940: FF FF 7F F8 FF FF 7F 6F  6E 6F 6E CD 2D 80 F8 FF  .......onon.-...
0950: FF 7F F8 FF FF 7F 6F 66  6F 6E 00 80 1C 08 80 01  ......ofon......
0960: 62 09 2E 03 02 10 0E 00  03 0E 00 04 00 15 0E 00  b...............
0970: 35 80 02 0E 00 00 80 03  80 09 06 0E 00 01 8D 09  5...............
0980: 02 0E 00 07 80 02 8D 09  03 0E 00 07 80 02 0E 00  ................
0990: 00 80 80 9C 09 48 3C 80  23 01 D8 09 02 0E 00 08  .....H<.#.......
09A0: 80 80 AB 09 48 3D 80 23  01 D8 09 02 0E 00 1C 80  ....H=.#........
09B0: 80 BA 09 48 3E 80 23 01  D8 09 02 0E 00 1D 80 80  ...H>.#.........
09C0: C9 09 48 3F 80 23 01 D8  09 02 0E 00 07 80 80 D8  ..H?.#..........
09D0: 09 48 40 80 23 01 D8 09  03 02 10 09 00 48 41 80  .H@.#........HA.
09E0: 23 06 0F 00 01 DA 0B 02  00 10 1C 80 00 06 0B 24  #..............$
09F0: 42 80 00 80 00 80 25 02  00 10 00 80 00 02 0A 01  B.....%.........
0A00: 02 0A 02 00 10 00 80 01  03 0B 42 06 01 10 40 04  ..........B...@.
0A10: 80 05 80 01 10 0C 80 40  02 80 03 80 01 10 00 10  .......@........
0A20: 43 00 43 01 02 02 10 00  80 80 33 0A 48 43 80 23  C.C.......3.HC.#
0A30: 01 F4 0A 02 02 10 08 80  80 73 0A CD 0D 80 F8 FF  .........s......
0A40: FF 7F F8 FF FF 7F 6F 6E  6D 79 00 80 48 44 80 23  ......onmy..HD.#
0A50: CE 0D 80 F8 FF FF 7F F8  FF FF 7F 6F 6E 6D 79 CD  ...........onmy.
0A60: 0D 80 F8 FF FF 7F F8 FF  FF 7F 6F 66 6D 79 00 80  ..........ofmy..
0A70: 01 F4 0A 02 02 10 1C 80  80 82 0A 48 45 80 23 01  ...........HE.#.
0A80: F4 0A 02 02 10 1D 80 80  A2 0A CD 39 80 F8 FF FF  ...........9....
0A90: 7F F8 FF FF 7F 6D 61 69  6E 00 80 48 46 80 23 01  .....main..HF.#.
0AA0: F4 0A 02 02 10 07 80 80  E5 0A CD 2D 80 F8 FF FF  ...........-....
0AB0: 7F F8 FF FF 7F 6F 6E 6F  6E 00 80 48 47 80 23 CE  .....onon..HG.#.
0AC0: 2D 80 F8 FF FF 7F F8 FF  FF 7F 6F 6E 6F 6E CD 2D  -.........onon.-
0AD0: 80 F8 FF FF 7F F8 FF FF  7F 6F 66 6F 6E 00 80 1C  .........ofon...
0AE0: 08 80 01 F4 0A 02 02 10  48 80 80 F4 0A 48 43 80  ........H....HC.
0AF0: 23 01 F4 0A 02 09 10 00  80 01 FC 0A 2E 06 0F 00  #...............
0B00: 01 03 0B 01 DA 0B 02 00  10 1D 80 00 14 0B 1A DF  ................
0B10: 0B 01 DA 0B 02 00 10 07  80 00 DA 0B 48 49 80 23  ............HI.#
0B20: 24 4A 80 00 80 00 80 25  02 00 10 00 80 00 CC 0B  $J.....%........
0B30: 42 06 01 10 40 04 80 05  80 01 10 4B 80 43 00 43  B...@......K.C.C
0B40: 01 02 02 10 00 80 80 81  0B CD 0D 80 F8 FF FF 7F  ................
0B50: F8 FF FF 7F 6F 6E 6D 79  00 80 48 45 80 23 CE 0D  ....onmy..HE.#..
0B60: 80 F8 FF FF 7F F8 FF FF  7F 6F 6E 6D 79 CD 0D 80  .........onmy...
0B70: F8 FF FF 7F F8 FF FF 7F  6F 66 6D 79 00 80 01 C5  ........ofmy....
0B80: 0B 02 02 10 08 80 80 90  0B 48 43 80 23 01 C5 0B  .........HC.#...
0B90: CD 0D 80 F8 FF FF 7F F8  FF FF 7F 6F 6E 6D 79 00  ...........onmy.
0BA0: 80 48 44 80 23 CE 0D 80  F8 FF FF 7F F8 FF FF 7F  .HD.#...........
0BB0: 6F 6E 6D 79 CD 0D 80 F8  FF FF 7F F8 FF FF 7F 6F  onmy...........o
0BC0: 66 6D 79 00 80 2E 06 0F  00 01 D7 0B 02 00 10 08  fmy.............
0BD0: 80 00 D7 0B 01 D7 0B 01  DA 0B 01 F2 00 21 00 0B  .............!..
0BE0: 0F 00 02 0F 00 08 80 02  8C 0C 48 4C 80 71 32 1C  ..........HL.q2.
0BF0: 80 05 80 71 31 12 00 9D  08 12 00 01 00 00 00 00  ...q1...........
0C00: 00 00 00 00 00 00 00 00  00 00 00 00 86 0C B4 01  ................
0C10: 16 00 00 80 B4 04 12 00  00 80 24 4D 80 00 80 00  ..........$M....
0C20: 80 25 02 00 10 00 80 00  64 0C 42 71 03 02 10 02  .%......d.Bq....
0C30: 02 10 00 80 00 58 0C 71  01 CD 39 80 F8 FF FF 7F  .....X.q..9.....
0C40: F8 FF FF 7F 6D 61 69 6E  00 80 2B 87 80 11 01 4E  ....main..+....N
0C50: 80 23 0C 0F 00 01 60 0C  2B 87 80 11 01 4F 80 23  .#....`.+....O.#
0C60: 2E 01 83 0C 02 00 10 08  80 00 6F 0C 01 83 0C 02  ..........o.....
0C70: 00 10 1C 80 00 83 0C B4  04 16 00 00 80 0C 0F 00  ................
0C80: 01 83 0C 01 89 0C 0C 0F  00 01 E2 0B 1B 41 00 80  .............A..
0C90: 03 80 02 10 02 00 41 00  80 50 80 03 10 03 00 41  ......A..P.....A
0CA0: 04 80 05 80 03 10 04 00  41 02 80 51 80 03 10 05  ........A..Q....
0CB0: 00 41 52 80 03 80 03 10  06 00 41 00 80 50 80 04  .AR.......A..P..
0CC0: 10 07 00 41 04 80 05 80  04 10 08 00 41 02 80 53  ...A........A..S
0CD0: 80 04 10 09 00 41 0F 80  0F 80 04 10 0A 00 41 54  .....A........AT
0CE0: 80 51 80 04 10 0C 00 1B  42 1E F0 FF FF 7F 48 55  .Q......B.....HU
0CF0: 80 23 02 02 10 00 80 80  01 0D 48 43 80 23 01 C2  .#........HC.#..
0D00: 0D 02 02 10 08 80 80 41  0D CD 0D 80 F8 FF FF 7F  .......A........
0D10: F8 FF FF 7F 6F 6E 6D 79  00 80 48 44 80 23 CE 0D  ....onmy..HD.#..
0D20: 80 F8 FF FF 7F F8 FF FF  7F 6F 6E 6D 79 CD 0D 80  .........onmy...
0D30: F8 FF FF 7F F8 FF FF 7F  6F 66 6D 79 00 80 01 C2  ........ofmy....
0D40: 0D 02 02 10 1C 80 80 50  0D 48 45 80 23 01 C2 0D  .......P.HE.#...
0D50: 02 02 10 1D 80 80 70 0D  CD 39 80 F8 FF FF 7F F8  ......p..9......
0D60: FF FF 7F 6D 61 69 6E 00  80 48 46 80 23 01 C2 0D  ...main..HF.#...
0D70: 02 02 10 07 80 80 B3 0D  CD 2D 80 F8 FF FF 7F F8  .........-......
0D80: FF FF 7F 6F 6E 6F 6E 00  80 48 47 80 23 CE 2D 80  ...onon..HG.#.-.
0D90: F8 FF FF 7F F8 FF FF 7F  6F 6E 6F 6E CD 2D 80 F8  ........onon.-..
0DA0: FF FF 7F F8 FF FF 7F 6F  66 6F 6E 00 80 1C 08 80  .......ofon.....
0DB0: 01 C2 0D 02 02 10 48 80  80 C2 0D 48 43 80 23 01  ......H....HC.#.
0DC0: C2 0D 02 04 10 08 80 00  D1 0D 48 56 80 23 01 DD  ..........HV.#..
0DD0: 0D 02 04 10 1C 80 00 DD  0D 48 57 80 23 21 00     .........HW.#!. 
```

#### Opcodes

```
  0: 0x000A [0xAC] Breeding Monster01 (ID: 17924234/0x0111808A)->Render.Flags7 = 0*
  1: 0x0012 [0x3E] IF !(Work_Zone_Memorize[1] bit 6*) GOTO 0x00D5
  2: 0x0019 [0x41] ExtData[1]->WorkLocal[0] = Work_Zone_Memorize[11] (bits 16*-31*)
  3: 0x0022 [0x41] ExtData[1]->WorkLocal[1] = Work_Zone_Memorize[10] (bits 8*-15*)
  4: 0x002B [0xB6] ENTITY_APPEARANCE_HANDLER(case=Hair style, value=ExtData[1]->WorkLocal[0])
  5: 0x002F [0xB6] ENTITY_APPEARANCE_HANDLER(case=Model size, value=ExtData[1]->WorkLocal[1])
  6: 0x0033 [0x80] LOAD_WAIT(entity=EventEntity)
  7: 0x0038 [0x02] IF !(ExtData[1]->WorkLocal[0] == 2914*) GOTO 0x0049
  8: 0x0040 [0x95] SETUP_EVENT_NPC: Prepare NPC for event (Render.Flags3 = 4*)
  9: 0x0043 [0x1C] WAIT(1* ticks)
 10: 0x0046 [0x01] GOTO 0x0083
 11: 0x0049 [0x02] IF !(ExtData[1]->WorkLocal[0] == 341*) GOTO 0x005A
 12: 0x0051 [0x95] SETUP_EVENT_NPC: Prepare NPC for event (Render.Flags3 = 4*)
 13: 0x0054 [0x1C] WAIT(1* ticks)
 14: 0x0057 [0x01] GOTO 0x0083
 15: 0x005A [0x02] IF !(ExtData[1]->WorkLocal[0] == 2916*) GOTO 0x006B
 16: 0x0062 [0x95] SETUP_EVENT_NPC: Prepare NPC for event (Render.Flags3 = 4*)
 17: 0x0065 [0x1C] WAIT(1* ticks)
 18: 0x0068 [0x01] GOTO 0x0083
 19: 0x006B [0x02] IF !(ExtData[1]->WorkLocal[0] == 289*) GOTO 0x0083
 20: 0x0073 [0x2C] CREATE_SCHEDULER_TASK: Create scheduler "kill" with entities [EventEntity, EventEntity]
 21: 0x0080 [0x1C] WAIT(6* ticks)

SUBROUTINE_0083:
 22: 0x0083 [0x22] ENTITY_HIDE_FLAG(enabled=0x00)
 23: 0x0085 [0x1C] WAIT(1* ticks)
 24: 0x0088 [0x3E] IF !(Work_Zone_Memorize[1] bit 10*) GOTO 0x00B2
 25: 0x008F [0xCD] LOAD_SCHEDULED_TASK_ALT4: Load scheduler "onmy" with entities [EventEntity, EventEntity], work=[237*, 0*]
 26: 0x00A0 [0xCE] WAIT_LOAD_SCHEDULER_ALT4: Wait for scheduler "onmy" with entities [EventEntity, EventEntity], work=237*
 27: 0x00AF [0x01] GOTO 0x00D2
 28: 0x00B2 [0xCD] LOAD_SCHEDULED_TASK_ALT4: Load scheduler "klmy" with entities [EventEntity, EventEntity], work=[237*, 0*]
 29: 0x00C3 [0xCE] WAIT_LOAD_SCHEDULER_ALT4: Wait for scheduler "klmy" with entities [EventEntity, EventEntity], work=237*

SUBROUTINE_00D2:
 30: 0x00D2 [0x01] GOTO 0x00D7
 31: 0x00D5 [0x22] ENTITY_HIDE_FLAG(enabled=0x01)

SUBROUTINE_00D7:
 32: 0x00D7 [0x00] END_REQSTACK()
```

#### Data or dead code:

```
# Dead code (unreachable instructions):
     0x00D8 [0x03] ExtData[1]->WorkLocal[11] = Work_Zone[5]
     0x00DD [0x03] ExtData[1]->WorkLocal[13] = Work_Zone[6]
     0x00E2 [0x1A] CALL_SUBROUTINE(address=0x0C8D)
     0x00E5 [0x1E] EventEntity looks at LocalPlayer and starts talking
     0x00EA [0x06] ExtData[1]->WorkLocal[16] = 0
     0x00ED [0x03] ExtData[1]->WorkLocal[15] = 1*
     0x00F2 [0x02] IF !(ExtData[1]->WorkLocal[15] <= 0*) GOTO 0x0BDD
     0x00FA [0x3E] IF !(ExtData[1]->WorkLocal[6] bit 0*) GOTO 0x079D
     0x0101 [0x42] SET_CLI_EVENT_CANCEL_DATA()
     0x0102 [0x46] CAMERA_CONTROL: Disable user control
     0x0104 [0x45] LOAD_SCHEDULED_TASK: Load scheduler "fdo1" with entities [LocalPlayer, LocalPlayer], work=[200*, 0*]
     0x0115 [0x55] WAIT_LOAD_SCHEDULER: Wait for scheduler "fdo1" with entities [LocalPlayer, LocalPlayer], work=200*
     0x0124 [0x38] SET_CLIENT_EVENT_MODE(mode=19*)
     0x0127 [0x2F] Chacharoon (ID: 17924187/0x0111805B)->Render.Flags0 &= ~0x80000 // Bit 19
     0x012D [0x4E] SET_ENTITY_HIDE_FLAG: Show Chacharoon (ID: 17924187/0x0111805B)
     0x0133 [0x02] IF !(1* == 0*) GOTO 0x0155
     0x013B [0x29] REQ_SET_WAIT(priority=0x08, entity_id=LocalPlayer, tag_num=0x23)
     0x0142 [0x37] UPDATE_EVENT_POSITION_AND_DIR: x=-12.623*, z=12.170*, y=0.156*, direction=76.7°*
     0x014B [0x29] REQ_SET_WAIT(priority=0x08, entity_id=Chacharoon (ID: 17924187/0x0111805B), tag_num=0x21)
     0x0152 [0x01] GOTO 0x0179
     0x0155 [0x29] REQ_SET_WAIT(priority=0x08, entity_id=LocalPlayer, tag_num=0x24)
     0x015C [0x37] UPDATE_EVENT_POSITION_AND_DIR: x=352.904*, z=-552.515*, y=-3.247*, direction=347.6°*
     0x0165 [0xBA] SET_ENTITY_POSITION(entity_id=Green Thumb Moogle (ID: 17924125/0x0111801D), pos_x=360.031*, pos_z=-549.734*, pos_y=-3.087*, direction=169.2°*)
     0x0172 [0x29] REQ_SET_WAIT(priority=0x08, entity_id=Chacharoon (ID: 17924187/0x0111805B), tag_num=0x23)
     0x0179 [0x80] LOAD_WAIT(entity=Chacharoon (ID: 17924187/0x0111805B))
     0x017E [0xCD] LOAD_SCHEDULED_TASK_ALT4: Load scheduler "onmy" with entities [EventEntity, EventEntity], work=[237*, 0*]
     0x018F [0x02] IF !(1* == 0*) GOTO 0x01A0
     0x0197 [0x4E] SET_ENTITY_HIDE_FLAG: Hide Chacharoon (ID: 17924231/0x01118087)
     0x019D [0x01] GOTO 0x01A6
     0x01A0 [0x4E] SET_ENTITY_HIDE_FLAG: Hide Chacharoon (ID: 17924232/0x01118088)
     0x01A6 [0x4A] Chacharoon (ID: 17924187/0x0111805B) looks at EventEntity
     0x01AF [0x4A] EventEntity looks at LocalPlayer
     0x01B8 [0x4A] Green Thumb Moogle (ID: 17924125/0x0111801D) looks at EventEntity
     0x01C1 [0x6F] WAIT_FRAME_DELAY: Yield until WaitTime reaches zero
     0x01C2 [0x76] CHECK_ENTITY_RENDER_FLAGS: Wait until EventEntity Render.Flags0 and Render.Flags3 conditions are met
     0x01C7 [0x6F] WAIT_FRAME_DELAY: Yield until WaitTime reaches zero
     0x01C8 [0x76] CHECK_ENTITY_RENDER_FLAGS: Wait until Green Thumb Moogle (ID: 17924125/0x0111801D) Render.Flags0 and Render.Flags3 conditions are met
     0x01CD [0x6F] WAIT_FRAME_DELAY: Yield until WaitTime reaches zero
     0x01CE [0x76] CHECK_ENTITY_RENDER_FLAGS: Wait until Chacharoon (ID: 17924187/0x0111805B) Render.Flags0 and Render.Flags3 conditions are met
     0x01D3 [0x92] Chacharoon (ID: 17924187/0x0111805B)->Render.Flags3 ^= 0x01
     0x01D9 [0x92] Green Thumb Moogle (ID: 17924125/0x0111801D)->Render.Flags3 ^= 0x01
     0x01DF [0x92] EventEntity->Render.Flags3 ^= 0x01
     0x01E5 [0x02] IF !(1* == 0*) GOTO 0x01F0
     0x01ED [0x01] GOTO 0x02B2
     0x01F0 [0x92] Breeding Monster (ID: 17924233/0x01118089)->Render.Flags3 ^= 0x01
     0x01F6 [0x92] Breeding Monster01 (ID: 17924234/0x0111808A)->Render.Flags3 ^= 0x01
     0x01FC [0x92] Breeding Monster02 (ID: 17924235/0x0111808B)->Render.Flags3 ^= 0x01
     0x0202 [0x92] Breeding Monster03 (ID: 17924236/0x0111808C)->Render.Flags3 ^= 0x01
     0x0208 [0x92] Breeding Monster00 (ID: 17924237/0x0111808D)->Render.Flags3 ^= 0x01
     0x020E [0x02] IF !(1* == 0*) GOTO 0x0237
     0x0216 [0x92] Breeding Monster (ID: 17924233/0x01118089)->Render.Flags3 ^= 0x01
     0x021C [0x92] Breeding Monster00 (ID: 17924237/0x0111808D)->Render.Flags3 ^= 0x01
     0x0222 [0x4E] SET_ENTITY_HIDE_FLAG: Hide Breeding Monster01 (ID: 17924234/0x0111808A)
     0x0228 [0x4E] SET_ENTITY_HIDE_FLAG: Hide Breeding Monster02 (ID: 17924235/0x0111808B)
     0x022E [0x4E] SET_ENTITY_HIDE_FLAG: Hide Breeding Monster03 (ID: 17924236/0x0111808C)
     0x0234 [0x01] GOTO 0x02B2
     0x0237 [0x02] IF !(1* == 1*) GOTO 0x0260
     0x023F [0x92] Breeding Monster01 (ID: 17924234/0x0111808A)->Render.Flags3 ^= 0x01
     0x0245 [0x4E] SET_ENTITY_HIDE_FLAG: Hide Breeding Monster02 (ID: 17924235/0x0111808B)
     0x024B [0x4E] SET_ENTITY_HIDE_FLAG: Hide Breeding Monster03 (ID: 17924236/0x0111808C)
     0x0251 [0x4E] SET_ENTITY_HIDE_FLAG: Hide Breeding Monster00 (ID: 17924237/0x0111808D)
     0x0257 [0x4E] SET_ENTITY_HIDE_FLAG: Hide Breeding Monster (ID: 17924233/0x01118089)
     0x025D [0x01] GOTO 0x02B2
     0x0260 [0x02] IF !(1* == 2*) GOTO 0x0289
     0x0268 [0x92] Breeding Monster02 (ID: 17924235/0x0111808B)->Render.Flags3 ^= 0x01
     0x026E [0x4E] SET_ENTITY_HIDE_FLAG: Hide Breeding Monster03 (ID: 17924236/0x0111808C)
     0x0274 [0x4E] SET_ENTITY_HIDE_FLAG: Hide Breeding Monster00 (ID: 17924237/0x0111808D)
     0x027A [0x4E] SET_ENTITY_HIDE_FLAG: Hide Breeding Monster (ID: 17924233/0x01118089)
     0x0280 [0x4E] SET_ENTITY_HIDE_FLAG: Hide Breeding Monster01 (ID: 17924234/0x0111808A)
     0x0286 [0x01] GOTO 0x02B2
     0x0289 [0x02] IF !(1* == 3*) GOTO 0x02B2
     0x0291 [0x92] Breeding Monster03 (ID: 17924236/0x0111808C)->Render.Flags3 ^= 0x01
     0x0297 [0x4E] SET_ENTITY_HIDE_FLAG: Hide Breeding Monster01 (ID: 17924234/0x0111808A)
     0x029D [0x4E] SET_ENTITY_HIDE_FLAG: Hide Breeding Monster02 (ID: 17924235/0x0111808B)
     0x02A3 [0x4E] SET_ENTITY_HIDE_FLAG: Hide Breeding Monster00 (ID: 17924237/0x0111808D)
     0x02A9 [0x4E] SET_ENTITY_HIDE_FLAG: Hide Breeding Monster (ID: 17924233/0x01118089)
     0x02AF [0x01] GOTO 0x02B2
     0x02B2 [0x29] REQ_SET_WAIT(priority=0x08, entity_id=Green Thumb Moogle (ID: 17924125/0x0111801D), tag_num=0x49)
     0x02B9 [0x02] IF !(1* == 0*) GOTO 0x02D5
     0x02C1 [0x45] LOAD_SCHEDULED_TASK: Load scheduler "s103" with entities [LocalPlayer, LocalPlayer], work=[690*, 0*]
     0x02D2 [0x01] GOTO 0x02E6
     0x02D5 [0x45] LOAD_SCHEDULED_TASK: Load scheduler "s038" with entities [LocalPlayer, LocalPlayer], work=[690*, 0*]
     0x02E6 [0x45] LOAD_SCHEDULED_TASK: Load scheduler "fdi1" with entities [LocalPlayer, LocalPlayer], work=[200*, 0*]
     0x02F7 [0x55] WAIT_LOAD_SCHEDULER: Wait for scheduler "fdi1" with entities [LocalPlayer, LocalPlayer], work=200*
     0x0306 [0x2B] Green Thumb Moogle (ID: 17924125/0x0111801D) [8730*]:
    → "Pardon my perilous proclamation, but your bestial buddy has become a blight on this backyard of bounties! At this rate, you'll be hard-pressed to have a harvest at all, kupo!"
     0x030D [0x23] WAIT_FOR_DIALOG_INTERACTION
     0x030E [0x02] IF !(1* == 0*) GOTO 0x0328
     0x0316 [0x52] END_LOAD_SCHEDULER: End scheduler "s103" with entities [LocalPlayer, LocalPlayer], work=690*
     0x0325 [0x01] GOTO 0x0337
     0x0328 [0x52] END_LOAD_SCHEDULER: End scheduler "s038" with entities [LocalPlayer, LocalPlayer], work=690*
     0x0337 [0x02] IF !(1* == 0*) GOTO 0x036E
     0x033F [0x3E] IF !(Work_Zone_Memorize[1] bit 13*) GOTO 0x035A
     0x0346 [0x45] LOAD_SCHEDULED_TASK: Load scheduler "s104" with entities [LocalPlayer, LocalPlayer], work=[690*, 0*]
     0x0357 [0x01] GOTO 0x036B
     0x035A [0x45] LOAD_SCHEDULED_TASK: Load scheduler "s105" with entities [LocalPlayer, LocalPlayer], work=[690*, 0*]
     0x036B [0x01] GOTO 0x039A
     0x036E [0x3E] IF !(Work_Zone_Memorize[1] bit 13*) GOTO 0x0389
     0x0375 [0x45] LOAD_SCHEDULED_TASK: Load scheduler "s037" with entities [LocalPlayer, LocalPlayer], work=[690*, 0*]
     0x0386 [0x01] GOTO 0x039A
     0x0389 [0x45] LOAD_SCHEDULED_TASK: Load scheduler "s036" with entities [LocalPlayer, LocalPlayer], work=[690*, 0*]
     0x039A [0x48] [System] [8731*]:
    → "%0's heart is shrouded in darkness, turning the creature against you! Leaving %0 in this state could spell doom for your garden."
     0x039D [0x23] WAIT_FOR_DIALOG_INTERACTION
     0x039E [0x29] REQ_SET_WAIT(priority=0x08, entity_id=Green Thumb Moogle (ID: 17924125/0x0111801D), tag_num=0x4A)
     0x03A5 [0x02] IF !(1* == 0*) GOTO 0x03D8
     0x03AD [0x3E] IF !(Work_Zone_Memorize[1] bit 13*) GOTO 0x03C6
     0x03B4 [0x52] END_LOAD_SCHEDULER: End scheduler "s104" with entities [LocalPlayer, LocalPlayer], work=690*
     0x03C3 [0x01] GOTO 0x03D5
     0x03C6 [0x52] END_LOAD_SCHEDULER: End scheduler "s105" with entities [LocalPlayer, LocalPlayer], work=690*
     0x03D5 [0x01] GOTO 0x0400
     0x03D8 [0x3E] IF !(Work_Zone_Memorize[1] bit 13*) GOTO 0x03F1
     0x03DF [0x52] END_LOAD_SCHEDULER: End scheduler "s037" with entities [LocalPlayer, LocalPlayer], work=690*
     0x03EE [0x01] GOTO 0x0400
     0x03F1 [0x52] END_LOAD_SCHEDULER: End scheduler "s036" with entities [LocalPlayer, LocalPlayer], work=690*
     0x0400 [0x0B] ExtData[1]->WorkLocal[15]++
     0x0403 [0x02] IF !(ExtData[1]->WorkLocal[15] <= 1*) GOTO 0x079A
     0x040B [0x24] CREATE_DIALOG(message_id=8732*, default_option=0*, option_flags=0*)
    → "Whatever will you do!? [Not a thing./Hope moogle magic does the trick./Put the creature down.]"
     0x0412 [0x25] WAIT_DIALOG_SELECT()
     0x0413 [0x02] IF !(Work_Zone[0] == 0*) GOTO 0x0482
     0x041B [0x45] LOAD_SCHEDULED_TASK: Load scheduler "fdo1" with entities [LocalPlayer, LocalPlayer], work=[200*, 0*]
     0x042C [0x55] WAIT_LOAD_SCHEDULER: Wait for scheduler "fdo1" with entities [LocalPlayer, LocalPlayer], work=200*
     0x043B [0x4E] SET_ENTITY_HIDE_FLAG: Show Breeding Monster (ID: 17924233/0x01118089)
     0x0441 [0x4E] SET_ENTITY_HIDE_FLAG: Show Breeding Monster01 (ID: 17924234/0x0111808A)
     0x0447 [0x4E] SET_ENTITY_HIDE_FLAG: Show Breeding Monster02 (ID: 17924235/0x0111808B)
     0x044D [0x4E] SET_ENTITY_HIDE_FLAG: Show Breeding Monster03 (ID: 17924236/0x0111808C)
     0x0453 [0x4E] SET_ENTITY_HIDE_FLAG: Show Breeding Monster00 (ID: 17924237/0x0111808D)
     0x0459 [0x1A] CALL_SUBROUTINE(address=0x16C0)
     0x045C [0x1A] CALL_SUBROUTINE(address=0x1669)
     0x045F [0x1A] CALL_SUBROUTINE(address=0x1677)
     0x0462 [0x1A] CALL_SUBROUTINE(address=0x1685)
     0x0465 [0x1A] CALL_SUBROUTINE(address=0x1693)
     0x0468 [0x46] CAMERA_CONTROL: Restore default settings
     0x046A [0x45] LOAD_SCHEDULED_TASK: Load scheduler "fdi1" with entities [LocalPlayer, LocalPlayer], work=[200*, 0*]
     0x047B [0x21] END_EVENT
     0x047C [0x06] ExtData[1]->WorkLocal[15] = 0
     0x047F [0x01] GOTO 0x0797
     0x0482 [0x02] IF !(Work_Zone[0] == 1*) GOTO 0x0601
     0x048A [0x29] REQ_SET_WAIT(priority=0x08, entity_id=Green Thumb Moogle (ID: 17924125/0x0111801D), tag_num=0x6A)
     0x0491 [0x48] [System] [8733*]:
    → "This entails having the Green Thumb Moogle employ the power of shining stars to cast an incantation on the creature, thus calming it."
     0x0494 [0x23] WAIT_FOR_DIALOG_INTERACTION
     0x0495 [0x03] Work_Zone[2] = ExtData[1]->WorkLocal[11]
     0x049A [0x03] Work_Zone[3] = ExtData[1]->WorkLocal[12]
     0x049F [0x07] Work_Zone[3] += 1*
     0x04A4 [0x02] IF !(Work_Zone[3] <= 10*) GOTO 0x04B1
     0x04AC [0x03] Work_Zone[3] = 10*
     0x04B1 [0x24] CREATE_DIALOG(message_id=8734*, default_option=1*, option_flags=0*)
    → "Use moogle magic? (On hand: $26 x $0) [Yes.i$26 x $1)/No.]"
     0x04B8 [0x25] WAIT_DIALOG_SELECT()
     0x04B9 [0x29] REQ_SET_WAIT(priority=0x08, entity_id=Green Thumb Moogle (ID: 17924125/0x0111801D), tag_num=0x6B)
     0x04C0 [0x02] IF !(Work_Zone[0] == 0*) GOTO 0x05F3
     0x04C8 [0x06] Work_Zone[1] = 0
     0x04CB [0x40] SET_BIT_WORK_RANGE(start_bit=8*, end_bit=15*, target=Work_Zone[1], source=13*)
     0x04D4 [0x43] SEND_EVENT_UPDATE: Send pending tag to server (packet 0x005B)
     0x04D6 [0x43] SEND_EVENT_UPDATE: Check pending flag (skip if not pending)
     0x04D8 [0x02] IF !(Work_Zone[9] == 0*) GOTO 0x05E8
     0x04E0 [0x02] IF !(1* == 0*) GOTO 0x04FC
     0x04E8 [0x45] LOAD_SCHEDULED_TASK: Load scheduler "s102" with entities [LocalPlayer, LocalPlayer], work=[690*, 0*]
     0x04F9 [0x01] GOTO 0x050D
     0x04FC [0x45] LOAD_SCHEDULED_TASK: Load scheduler "s039" with entities [LocalPlayer, LocalPlayer], work=[690*, 0*]
     0x050D [0x29] REQ_SET_WAIT(priority=0x08, entity_id=Green Thumb Moogle (ID: 17924125/0x0111801D), tag_num=0x6C)
     0x0514 [0x2B] Green Thumb Moogle (ID: 17924125/0x0111801D) [8735*]:
    → "Thanks to your terror's temper tantrum, I can't teleport! I can only hope this hex harbors hearty enough healing properties to help herald halcyon happenings, kupo."
     0x051B [0x23] WAIT_FOR_DIALOG_INTERACTION
     0x051C [0x29] REQ_SET_WAIT(priority=0x08, entity_id=Green Thumb Moogle (ID: 17924125/0x0111801D), tag_num=0x6D)
     0x0523 [0x02] IF !(1* == 0*) GOTO 0x053D
     0x052B [0x52] END_LOAD_SCHEDULER: End scheduler "s102" with entities [LocalPlayer, LocalPlayer], work=690*
     0x053A [0x01] GOTO 0x054C
     0x053D [0x52] END_LOAD_SCHEDULER: End scheduler "s039" with entities [LocalPlayer, LocalPlayer], work=690*
     0x054C [0xCD] LOAD_SCHEDULED_TASK_ALT4: Load scheduler "ofmy" with entities [EventEntity, EventEntity], work=[237*, 0*]
     0x055D [0x45] LOAD_SCHEDULED_TASK: Load scheduler "fdo1" with entities [LocalPlayer, LocalPlayer], work=[200*, 0*]
     0x056E [0x55] WAIT_LOAD_SCHEDULER: Wait for scheduler "fdo1" with entities [LocalPlayer, LocalPlayer], work=200*
     0x057D [0x52] END_LOAD_SCHEDULER: End scheduler "s102" with entities [LocalPlayer, LocalPlayer], work=690*
     0x058C [0x4E] SET_ENTITY_HIDE_FLAG: Show Breeding Monster (ID: 17924233/0x01118089)
     0x0592 [0x4E] SET_ENTITY_HIDE_FLAG: Show Breeding Monster01 (ID: 17924234/0x0111808A)
     0x0598 [0x4E] SET_ENTITY_HIDE_FLAG: Show Breeding Monster02 (ID: 17924235/0x0111808B)
     0x059E [0x4E] SET_ENTITY_HIDE_FLAG: Show Breeding Monster03 (ID: 17924236/0x0111808C)
     0x05A4 [0x4E] SET_ENTITY_HIDE_FLAG: Show Breeding Monster00 (ID: 17924237/0x0111808D)
     0x05AA [0xCD] LOAD_SCHEDULED_TASK_ALT4: Load scheduler "klmy" with entities [EventEntity, EventEntity], work=[237*, 0*]
     0x05BB [0x48] [System] [8736*]:
    → "The darkness no longer dwells within %0's heart."
     0x05BE [0x23] WAIT_FOR_DIALOG_INTERACTION
     0x05BF [0x1A] CALL_SUBROUTINE(address=0x16C0)
     0x05C2 [0x1A] CALL_SUBROUTINE(address=0x1669)
     0x05C5 [0x1A] CALL_SUBROUTINE(address=0x1677)
     0x05C8 [0x1A] CALL_SUBROUTINE(address=0x1685)
     0x05CB [0x1A] CALL_SUBROUTINE(address=0x1693)
     0x05CE [0x46] CAMERA_CONTROL: Restore default settings
     0x05D0 [0x45] LOAD_SCHEDULED_TASK: Load scheduler "fdi1" with entities [LocalPlayer, LocalPlayer], work=[200*, 0*]
     0x05E1 [0x20] SET_CLI_EVENT_UC_FLAG: Unlock player control
     0x05E3 [0x21] END_EVENT
     0x05E4 [0x00] END_REQSTACK()
     0x05E5 [0x01] GOTO 0x05F0
     0x05E8 [0x2B] Green Thumb Moogle (ID: 17924125/0x0111801D) [7458*]:
    → "Shucks, it seems you're sans sufficient starshine savings, kupo."
     0x05EF [0x23] WAIT_FOR_DIALOG_INTERACTION
     0x05F0 [0x01] GOTO 0x05FE
     0x05F3 [0x02] IF !(Work_Zone[0] == 1*) GOTO 0x05FE
     0x05FB [0x01] GOTO 0x05FE
     0x05FE [0x01] GOTO 0x0797
     0x0601 [0x02] IF !(Work_Zone[0] == 2*) GOTO 0x0797
     0x0609 [0x48] [System] [8678*]:
    → "By putting %0 down, you will personally end its life. While there will be no physical repercussion for doing such, are you willing to have that on your conscience?"
     0x060C [0x23] WAIT_FOR_DIALOG_INTERACTION
     0x060D [0x24] CREATE_DIALOG(message_id=8679*, default_option=1*, option_flags=0*)
    → "Put the creature down? [Yes, I have no reservations./No, not yet!]"
     0x0614 [0x25] WAIT_DIALOG_SELECT()
     0x0615 [0x02] IF !(Work_Zone[0] == 0*) GOTO 0x0789
     0x061D [0x02] IF !(1* == 0*) GOTO 0x0654
     0x0625 [0x3E] IF !(Work_Zone_Memorize[1] bit 13*) GOTO 0x0640
     0x062C [0x45] LOAD_SCHEDULED_TASK: Load scheduler "s104" with entities [LocalPlayer, LocalPlayer], work=[690*, 0*]
     0x063D [0x01] GOTO 0x0651
     0x0640 [0x45] LOAD_SCHEDULED_TASK: Load scheduler "s105" with entities [LocalPlayer, LocalPlayer], work=[690*, 0*]
     0x0651 [0x01] GOTO 0x0680
     0x0654 [0x3E] IF !(Work_Zone_Memorize[1] bit 13*) GOTO 0x066F
     0x065B [0x45] LOAD_SCHEDULED_TASK: Load scheduler "s037" with entities [LocalPlayer, LocalPlayer], work=[690*, 0*]
     0x066C [0x01] GOTO 0x0680
     0x066F [0x45] LOAD_SCHEDULED_TASK: Load scheduler "s036" with entities [LocalPlayer, LocalPlayer], work=[690*, 0*]
     0x0680 [0x7B] Chacharoon (ID: 17924187/0x0111805B) stops talking
     0x0685 [0x5B] LOAD_EXT_SCHEDULER: Load scheduler "hed0" with entities [Chacharoon (ID: 17924187/0x0111805B), Chacharoon (ID: 17924187/0x0111805B)], work=3566*
     0x0694 [0x2B] Chacharoon (ID: 17924187/0x0111805B) [8680*]:
    → "<Snurk> Chacharoon...will not be forgetting %0...<snurk> ever. Waaaaaah!"
     0x069B [0x23] WAIT_FOR_DIALOG_INTERACTION
     0x069C [0x45] LOAD_SCHEDULED_TASK: Load scheduler "fdo1" with entities [LocalPlayer, LocalPlayer], work=[200*, 0*]
     0x06AD [0x55] WAIT_LOAD_SCHEDULER: Wait for scheduler "fdo1" with entities [LocalPlayer, LocalPlayer], work=200*
     0x06BC [0xCD] LOAD_SCHEDULED_TASK_ALT4: Load scheduler "klmy" with entities [EventEntity, EventEntity], work=[237*, 0*]
     0x06CD [0x02] IF !(1* == 0*) GOTO 0x0700
     0x06D5 [0x3E] IF !(Work_Zone_Memorize[1] bit 13*) GOTO 0x06EE
     0x06DC [0x52] END_LOAD_SCHEDULER: End scheduler "s104" with entities [LocalPlayer, LocalPlayer], work=690*
     0x06EB [0x01] GOTO 0x06FD
     0x06EE [0x52] END_LOAD_SCHEDULER: End scheduler "s105" with entities [LocalPlayer, LocalPlayer], work=690*
     0x06FD [0x01] GOTO 0x0728
     0x0700 [0x3E] IF !(Work_Zone_Memorize[1] bit 13*) GOTO 0x0719
     0x0707 [0x52] END_LOAD_SCHEDULER: End scheduler "s037" with entities [LocalPlayer, LocalPlayer], work=690*
     0x0716 [0x01] GOTO 0x0728
     0x0719 [0x52] END_LOAD_SCHEDULER: End scheduler "s036" with entities [LocalPlayer, LocalPlayer], work=690*
     0x0728 [0x53] WAIT_SCHEDULER_TASK: Wait for scheduler "hed0" with entities [Chacharoon (ID: 17924187/0x0111805B), Chacharoon (ID: 17924187/0x0111805B)]
     0x0735 [0x5B] LOAD_EXT_SCHEDULER: Load scheduler "hed1" with entities [Chacharoon (ID: 17924187/0x0111805B), Chacharoon (ID: 17924187/0x0111805B)], work=3566*
     0x0744 [0x4E] SET_ENTITY_HIDE_FLAG: Hide Chacharoon (ID: 17924187/0x0111805B)
     0x074A [0x2F] Chacharoon (ID: 17924187/0x0111805B)->Render.Flags0 |= 0x80000 // Bit 19
     0x0750 [0x06] Work_Zone[1] = 0
     0x0753 [0x40] SET_BIT_WORK_RANGE(start_bit=8*, end_bit=15*, target=Work_Zone[1], source=12*)
     0x075C [0x43] SEND_EVENT_UPDATE: Send pending tag to server (packet 0x005B)
     0x075E [0x43] SEND_EVENT_UPDATE: Check pending flag (skip if not pending)
     0x0760 [0x1A] CALL_SUBROUTINE(address=0x16C0)
     0x0763 [0x1A] CALL_SUBROUTINE(address=0x1669)
     0x0766 [0x1A] CALL_SUBROUTINE(address=0x1677)
     0x0769 [0x1A] CALL_SUBROUTINE(address=0x1685)
     0x076C [0x1A] CALL_SUBROUTINE(address=0x1693)
     0x076F [0x46] CAMERA_CONTROL: Restore default settings
     0x0771 [0x45] LOAD_SCHEDULED_TASK: Load scheduler "fdi1" with entities [LocalPlayer, LocalPlayer], work=[200*, 0*]
     0x0782 [0x20] SET_CLI_EVENT_UC_FLAG: Unlock player control
     0x0784 [0x21] END_EVENT
     0x0785 [0x00] END_REQSTACK()
     0x0786 [0x01] GOTO 0x0794
     0x0789 [0x02] IF !(Work_Zone[0] == 1*) GOTO 0x0794
     0x0791 [0x01] GOTO 0x0794
     0x0794 [0x01] GOTO 0x0797
     0x0797 [0x01] GOTO 0x0403
     0x079A [0x01] GOTO 0x0BDA
     0x079D [0x3E] IF !(ExtData[1]->WorkLocal[6] bit 1*) GOTO 0x07EB
     0x07A4 [0x3E] IF !(ExtData[1]->WorkLocal[16] bit 0*) GOTO 0x07AE
     0x07AB [0x01] GOTO 0x07EB
     0x07AE [0x42] SET_CLI_EVENT_CANCEL_DATA()
     0x07AF [0xCD] LOAD_SCHEDULED_TASK_ALT4: Load scheduler "onon" with entities [EventEntity, EventEntity], work=[236*, 0*]
     0x07C0 [0x48] [System] [8738*]:
    → "%0's face beams with the light of pure contentment! There is nothing that can foul %0's mood right now, including gathering items from it."
     0x07C3 [0x23] WAIT_FOR_DIALOG_INTERACTION
     0x07C4 [0x3C] SET_BIT_FLAG_CONDITIONAL(target_work_offset=ExtData[1]->WorkLocal[16], bit_index_work_offset=0*, condition_work_offset=1*)
     0x07CB [0xCE] WAIT_LOAD_SCHEDULER_ALT4: Wait for scheduler "onon" with entities [EventEntity, EventEntity], work=236*
     0x07DA [0xCD] LOAD_SCHEDULED_TASK_ALT4: Load scheduler "ofon" with entities [EventEntity, EventEntity], work=[236*, 0*]
     0x07EB [0x2E] SET_CLI_EVENT_CANCEL_FLAGS()
     0x07EC [0x0E] ExtData[1]->WorkLocal[17] |= ExtData[1]->WorkLocal[13]
     0x07F1 [0x3E] IF !(ExtData[1]->WorkLocal[16] bit 1*) GOTO 0x07FF
     0x07F8 [0x3C] SET_BIT_FLAG_CONDITIONAL(target_work_offset=ExtData[1]->WorkLocal[17], bit_index_work_offset=2*, condition_work_offset=1*)
     0x07FF [0x3E] IF !(ExtData[1]->WorkLocal[16] bit 2*) GOTO 0x080D
     0x0806 [0x3C] SET_BIT_FLAG_CONDITIONAL(target_work_offset=ExtData[1]->WorkLocal[17], bit_index_work_offset=3*, condition_work_offset=1*)
     0x080D [0x24] CREATE_DIALOG(message_id=8703*, default_option=0*, option_flags=ExtData[1]->WorkLocal[17])
    → "What will you do? [Nothing./See how the critter's doing./Interact with the beast./Give the creature a name./Collect items.]"
     0x0814 [0x25] WAIT_DIALOG_SELECT()
     0x0815 [0x02] IF !(Work_Zone[0] == 0*) GOTO 0x0823
     0x081D [0x06] ExtData[1]->WorkLocal[15] = 0
     0x0820 [0x01] GOTO 0x0BDA
     0x0823 [0x02] IF !(Work_Zone[0] == 1*) GOTO 0x09E7
     0x082B [0x03] Work_Zone[3] = ExtData[1]->WorkLocal[3]
     0x0830 [0x15] Work_Zone[3] /= 30*
     0x0835 [0x02] IF !(Work_Zone[3] == 0*) GOTO 0x0849
     0x083D [0x03] Work_Zone[3] = ExtData[1]->WorkLocal[3]
     0x0842 [0x48] [System] [8748*]:
    → "Creature type: [/Lamb/Sheep/Karakul/Sapling/Green Foliage Treat/Red Foliage Treant/Baby Rabbit/Rabbit/White Rabbit/Baby Lizard/Lizard/Alabaster Lizard/Ram/Baby Cockatrice/Cockatrice/Ziz/Baby Raptor/Raptor/Red Raptor/Baby Eft/Eft/Tarichuk/Dhalmel Calf/Dhalmel/Great Dhalmel/Sea Monk Larva/Sea Monk/Blue Sea Monk/Uragnite Youngling]."
     0x0845 [0x23] WAIT_FOR_DIALOG_INTERACTION
     0x0846 [0x01] GOTO 0x087B
     0x0849 [0x02] IF !(Work_Zone[3] == 1*) GOTO 0x0862
     0x0851 [0x03] Work_Zone[3] = ExtData[1]->WorkLocal[3]
     0x0856 [0x08] Work_Zone[3] -= 30*
     0x085B [0x48] [System] [8749*]:
    → "Creature Type: [Uragnite/Limascabra/Immature Crab/Crab/Porter Crab/Baby Colibri/Colibri/Toucalibri/Coeurl Cub/Coeurl/Lynx/Buffalo Calf/Buffalo/Mini Slime/Slime/Clot/Hecteyes/Tiny Bugard/Bugard/Abyssobugard/Baby Adamantoise/Adamantoise/Great Adamantoise/White Adamantoise/Ferromantoise/Great Ferromantoise/Cluster/Bomb/Djinn/Snoll]."
     0x085E [0x23] WAIT_FOR_DIALOG_INTERACTION
     0x085F [0x01] GOTO 0x087B
     0x0862 [0x02] IF !(Work_Zone[3] == 2*) GOTO 0x087B
     0x086A [0x03] Work_Zone[3] = ExtData[1]->WorkLocal[3]
     0x086F [0x08] Work_Zone[3] -= 60*
     0x0874 [0x48] [System] [8750*]:
    → "Creature type: [Behemoth Cub/Behemoth/King Behemoth/Elasmoth/Skormoth/Dragon Hatchling/Wyvern/Blue Wyvern/Green Wyvern/Abyssal Wyrm/Lunar Wyrm/Blazing Wyrm/Pequetender/Sabotender/Jumbotender/Mandragora Sproutling/Mandragora/Elder Mandragora/Lycopodium/Korrigan/Pachypodium/Adenium/Elder Adenium/Ake-Ome/Citrullus]."
     0x0877 [0x23] WAIT_FOR_DIALOG_INTERACTION
     0x0878 [0x01] GOTO 0x087B
     0x087B [0x03] ExtData[1]->WorkLocal[14] = ExtData[1]->WorkLocal[5]
     0x0880 [0x15] ExtData[1]->WorkLocal[14] /= 50*
     0x0885 [0x02] IF !(ExtData[1]->WorkLocal[14] >= 0*) GOTO 0x0893
     0x088D [0x06] ExtData[1]->WorkLocal[14] = 0
     0x0890 [0x01] GOTO 0x08A0
     0x0893 [0x02] IF !(ExtData[1]->WorkLocal[14] <= 4*) GOTO 0x08A0
     0x089B [0x03] ExtData[1]->WorkLocal[14] = 4*
     0x08A0 [0x42] SET_CLI_EVENT_CANCEL_DATA()
     0x08A1 [0x02] IF !(ExtData[1]->WorkLocal[14] == 0*) GOTO 0x08E1
     0x08A9 [0xCD] LOAD_SCHEDULED_TASK_ALT4: Load scheduler "onmy" with entities [EventEntity, EventEntity], work=[237*, 0*]
     0x08BA [0x48] [System] [8710*]:
    → "%0 looks like it wants absolutely nothing to do with anyone."
     0x08BD [0x23] WAIT_FOR_DIALOG_INTERACTION
     0x08BE [0xCE] WAIT_LOAD_SCHEDULER_ALT4: Wait for scheduler "onmy" with entities [EventEntity, EventEntity], work=237*
     0x08CD [0xCD] LOAD_SCHEDULED_TASK_ALT4: Load scheduler "ofmy" with entities [EventEntity, EventEntity], work=[237*, 0*]
     0x08DE [0x01] GOTO 0x0962
     0x08E1 [0x02] IF !(ExtData[1]->WorkLocal[14] == 1*) GOTO 0x08F0
     0x08E9 [0x48] [System] [8709*]:
    → "%0 seems to be pouting slightly."
     0x08EC [0x23] WAIT_FOR_DIALOG_INTERACTION
     0x08ED [0x01] GOTO 0x0962
     0x08F0 [0x02] IF !(ExtData[1]->WorkLocal[14] == 2*) GOTO 0x08FF
     0x08F8 [0x48] [System] [8708*]:
    → "%0 looks calm and collected."
     0x08FB [0x23] WAIT_FOR_DIALOG_INTERACTION
     0x08FC [0x01] GOTO 0x0962
     0x08FF [0x02] IF !(ExtData[1]->WorkLocal[14] == 3*) GOTO 0x091F
     0x0907 [0xCD] LOAD_SCHEDULED_TASK_ALT4: Load scheduler "main" with entities [EventEntity, EventEntity], work=[235*, 0*]
     0x0918 [0x48] [System] [8707*]:
    → "%0's in an obviously good mood."
     0x091B [0x23] WAIT_FOR_DIALOG_INTERACTION
     0x091C [0x01] GOTO 0x0962
     0x091F [0x02] IF !(ExtData[1]->WorkLocal[14] == 4*) GOTO 0x0962
     0x0927 [0xCD] LOAD_SCHEDULED_TASK_ALT4: Load scheduler "onon" with entities [EventEntity, EventEntity], work=[236*, 0*]
     0x0938 [0x48] [System] [8706*]:
    → "%0's practically bursting with joy!"
     0x093B [0x23] WAIT_FOR_DIALOG_INTERACTION
     0x093C [0xCE] WAIT_LOAD_SCHEDULER_ALT4: Wait for scheduler "onon" with entities [EventEntity, EventEntity], work=236*
     0x094B [0xCD] LOAD_SCHEDULED_TASK_ALT4: Load scheduler "ofon" with entities [EventEntity, EventEntity], work=[236*, 0*]
     0x095C [0x1C] WAIT(1* ticks)
     0x095F [0x01] GOTO 0x0962
     0x0962 [0x2E] SET_CLI_EVENT_CANCEL_FLAGS()
     0x0963 [0x03] Work_Zone[2] = ExtData[1]->WorkLocal[14]
     0x0968 [0x03] ExtData[1]->WorkLocal[14] = ExtData[1]->WorkLocal[4]
     0x096D [0x15] ExtData[1]->WorkLocal[14] /= 50*
     0x0972 [0x02] IF !(ExtData[1]->WorkLocal[14] >= 0*) GOTO 0x0980
     0x097A [0x06] ExtData[1]->WorkLocal[14] = 0
     0x097D [0x01] GOTO 0x098D
     0x0980 [0x02] IF !(ExtData[1]->WorkLocal[14] <= 4*) GOTO 0x098D
     0x0988 [0x03] ExtData[1]->WorkLocal[14] = 4*
     0x098D [0x02] IF !(ExtData[1]->WorkLocal[14] == 0*) GOTO 0x099C
     0x0995 [0x48] [System] [8715*]:
    → "[Moreover,/Moreover,/However,/However,/However,] it seems thoroughly depressed about the abysmal conditions under which it lives."
     0x0998 [0x23] WAIT_FOR_DIALOG_INTERACTION
     0x0999 [0x01] GOTO 0x09D8
     0x099C [0x02] IF !(ExtData[1]->WorkLocal[14] == 1*) GOTO 0x09AB
     0x09A4 [0x48] [System] [8714*]:
    → "[Moreover,/Moreover,/However,/However,/However,] it is clearly unhappy with the way things are."
     0x09A7 [0x23] WAIT_FOR_DIALOG_INTERACTION
     0x09A8 [0x01] GOTO 0x09D8
     0x09AB [0x02] IF !(ExtData[1]->WorkLocal[14] == 2*) GOTO 0x09BA
     0x09B3 [0x48] [System] [8713*]:
    → "[Moreover,/Moreover,/However,/However,/However,] it exudes a slight aura of discontent."
     0x09B6 [0x23] WAIT_FOR_DIALOG_INTERACTION
     0x09B7 [0x01] GOTO 0x09D8
     0x09BA [0x02] IF !(ExtData[1]->WorkLocal[14] == 3*) GOTO 0x09C9
     0x09C2 [0x48] [System] [8712*]:
    → "[However,/However,/Moreover,/Moreover,/Moreover,] it seems to be duly satisfied with its lot in life."
     0x09C5 [0x23] WAIT_FOR_DIALOG_INTERACTION
     0x09C6 [0x01] GOTO 0x09D8
     0x09C9 [0x02] IF !(ExtData[1]->WorkLocal[14] == 4*) GOTO 0x09D8
     0x09D1 [0x48] [System] [8711*]:
    → "[However,/However,/Moreover,/Moreover,/Moreover,] it couldn't be more content with its life."
     0x09D4 [0x23] WAIT_FOR_DIALOG_INTERACTION
     0x09D5 [0x01] GOTO 0x09D8
     0x09D8 [0x03] Work_Zone[2] = ExtData[1]->WorkLocal[9]
     0x09DD [0x48] [System] [8717*]:
    → "Current growth level: [EEE/$25EE/$26EE/$26$25E/$26$26E/$26$26$25/$26$26$26/$26$26$26]."
     0x09E0 [0x23] WAIT_FOR_DIALOG_INTERACTION
     0x09E1 [0x06] ExtData[1]->WorkLocal[15] = 0
     0x09E4 [0x01] GOTO 0x0BDA
     0x09E7 [0x02] IF !(Work_Zone[0] == 2*) GOTO 0x0B06
     0x09EF [0x24] CREATE_DIALOG(message_id=8718*, default_option=0*, option_flags=0*)
    → "How will you interact? [Do nothing./Pet it./Poke it./Slap it./Yell loudly at it./Get angry at it.]"
     0x09F6 [0x25] WAIT_DIALOG_SELECT()
     0x09F7 [0x02] IF !(Work_Zone[0] == 0*) GOTO 0x0A02
     0x09FF [0x01] GOTO 0x0A02
     0x0A02 [0x02] IF !(Work_Zone[0] == 0*) GOTO 0x0B03
     0x0A0A [0x42] SET_CLI_EVENT_CANCEL_DATA()
     0x0A0B [0x06] Work_Zone[1] = 0
     0x0A0E [0x40] SET_BIT_WORK_RANGE(start_bit=8*, end_bit=15*, target=Work_Zone[1], source=10*)
     0x0A17 [0x40] SET_BIT_WORK_RANGE(start_bit=16*, end_bit=31*, target=Work_Zone[1], source=Work_Zone[0])
     0x0A20 [0x43] SEND_EVENT_UPDATE: Send pending tag to server (packet 0x005B)
     0x0A22 [0x43] SEND_EVENT_UPDATE: Check pending flag (skip if not pending)
     0x0A24 [0x02] IF !(Work_Zone[2] == 0*) GOTO 0x0A33
     0x0A2C [0x48] [System] [8719*]:
    → "%0 stares off into the distance as if you're not even there."
     0x0A2F [0x23] WAIT_FOR_DIALOG_INTERACTION
     0x0A30 [0x01] GOTO 0x0AF4
     0x0A33 [0x02] IF !(Work_Zone[2] == 1*) GOTO 0x0A73
     0x0A3B [0xCD] LOAD_SCHEDULED_TASK_ALT4: Load scheduler "onmy" with entities [EventEntity, EventEntity], work=[237*, 0*]
     0x0A4C [0x48] [System] [8720*]:
    → "%0 is visibly angry with what you just did."
     0x0A4F [0x23] WAIT_FOR_DIALOG_INTERACTION
     0x0A50 [0xCE] WAIT_LOAD_SCHEDULER_ALT4: Wait for scheduler "onmy" with entities [EventEntity, EventEntity], work=237*
     0x0A5F [0xCD] LOAD_SCHEDULED_TASK_ALT4: Load scheduler "ofmy" with entities [EventEntity, EventEntity], work=[237*, 0*]
     0x0A70 [0x01] GOTO 0x0AF4
     0x0A73 [0x02] IF !(Work_Zone[2] == 2*) GOTO 0x0A82
     0x0A7B [0x48] [System] [8721*]:
    → "That didn't go over too well with %0."
     0x0A7E [0x23] WAIT_FOR_DIALOG_INTERACTION
     0x0A7F [0x01] GOTO 0x0AF4
     0x0A82 [0x02] IF !(Work_Zone[2] == 3*) GOTO 0x0AA2
     0x0A8A [0xCD] LOAD_SCHEDULED_TASK_ALT4: Load scheduler "main" with entities [EventEntity, EventEntity], work=[235*, 0*]
     0x0A9B [0x48] [System] [8722*]:
    → "That was surprisingly not worthless in the eyes of %0!"
     0x0A9E [0x23] WAIT_FOR_DIALOG_INTERACTION
     0x0A9F [0x01] GOTO 0x0AF4
     0x0AA2 [0x02] IF !(Work_Zone[2] == 4*) GOTO 0x0AE5
     0x0AAA [0xCD] LOAD_SCHEDULED_TASK_ALT4: Load scheduler "onon" with entities [EventEntity, EventEntity], work=[236*, 0*]
     0x0ABB [0x48] [System] [8723*]:
    → "That strongly resonated with %0!"
     0x0ABE [0x23] WAIT_FOR_DIALOG_INTERACTION
     0x0ABF [0xCE] WAIT_LOAD_SCHEDULER_ALT4: Wait for scheduler "onon" with entities [EventEntity, EventEntity], work=236*
     0x0ACE [0xCD] LOAD_SCHEDULED_TASK_ALT4: Load scheduler "ofon" with entities [EventEntity, EventEntity], work=[236*, 0*]
     0x0ADF [0x1C] WAIT(1* ticks)
     0x0AE2 [0x01] GOTO 0x0AF4
     0x0AE5 [0x02] IF !(Work_Zone[2] == 4294967295*) GOTO 0x0AF4
     0x0AED [0x48] [System] [8719*]:
    → "%0 stares off into the distance as if you're not even there."
     0x0AF0 [0x23] WAIT_FOR_DIALOG_INTERACTION
     0x0AF1 [0x01] GOTO 0x0AF4
     0x0AF4 [0x02] IF !(Work_Zone[9] == 0*) GOTO 0x0AFC
     0x0AFC [0x2E] SET_CLI_EVENT_CANCEL_FLAGS()
     0x0AFD [0x06] ExtData[1]->WorkLocal[15] = 0
     0x0B00 [0x01] GOTO 0x0B03
     0x0B03 [0x01] GOTO 0x0BDA
     0x0B06 [0x02] IF !(Work_Zone[0] == 3*) GOTO 0x0B14
     0x0B0E [0x1A] CALL_SUBROUTINE(address=0x0BDF)
     0x0B11 [0x01] GOTO 0x0BDA
     0x0B14 [0x02] IF !(Work_Zone[0] == 4*) GOTO 0x0BDA
     0x0B1C [0x48] [System] [8728*]:
    → "Try to collect items from your beloved beastie?"
     0x0B1F [0x23] WAIT_FOR_DIALOG_INTERACTION
     0x0B20 [0x24] CREATE_DIALOG(message_id=8729*, default_option=0*, option_flags=0*)
    → "Proceed? [Yes, that sounds wonderful./No, I won't take any chances.]"
     0x0B27 [0x25] WAIT_DIALOG_SELECT()
     0x0B28 [0x02] IF !(Work_Zone[0] == 0*) GOTO 0x0BCC
     0x0B30 [0x42] SET_CLI_EVENT_CANCEL_DATA()
     0x0B31 [0x06] Work_Zone[1] = 0
     0x0B34 [0x40] SET_BIT_WORK_RANGE(start_bit=8*, end_bit=15*, target=Work_Zone[1], source=11*)
     0x0B3D [0x43] SEND_EVENT_UPDATE: Send pending tag to server (packet 0x005B)
     0x0B3F [0x43] SEND_EVENT_UPDATE: Check pending flag (skip if not pending)
     0x0B41 [0x02] IF !(Work_Zone[2] == 0*) GOTO 0x0B81
     0x0B49 [0xCD] LOAD_SCHEDULED_TASK_ALT4: Load scheduler "onmy" with entities [EventEntity, EventEntity], work=[237*, 0*]
     0x0B5A [0x48] [System] [8721*]:
    → "That didn't go over too well with %0."
     0x0B5D [0x23] WAIT_FOR_DIALOG_INTERACTION
     0x0B5E [0xCE] WAIT_LOAD_SCHEDULER_ALT4: Wait for scheduler "onmy" with entities [EventEntity, EventEntity], work=237*
     0x0B6D [0xCD] LOAD_SCHEDULED_TASK_ALT4: Load scheduler "ofmy" with entities [EventEntity, EventEntity], work=[237*, 0*]
     0x0B7E [0x01] GOTO 0x0BC5
     0x0B81 [0x02] IF !(Work_Zone[2] == 1*) GOTO 0x0B90
     0x0B89 [0x48] [System] [8719*]:
    → "%0 stares off into the distance as if you're not even there."
     0x0B8C [0x23] WAIT_FOR_DIALOG_INTERACTION
     0x0B8D [0x01] GOTO 0x0BC5
     0x0B90 [0xCD] LOAD_SCHEDULED_TASK_ALT4: Load scheduler "onmy" with entities [EventEntity, EventEntity], work=[237*, 0*]
     0x0BA1 [0x48] [System] [8720*]:
    → "%0 is visibly angry with what you just did."
     0x0BA4 [0x23] WAIT_FOR_DIALOG_INTERACTION
     0x0BA5 [0xCE] WAIT_LOAD_SCHEDULER_ALT4: Wait for scheduler "onmy" with entities [EventEntity, EventEntity], work=237*
     0x0BB4 [0xCD] LOAD_SCHEDULED_TASK_ALT4: Load scheduler "ofmy" with entities [EventEntity, EventEntity], work=[237*, 0*]
     0x0BC5 [0x2E] SET_CLI_EVENT_CANCEL_FLAGS()
     0x0BC6 [0x06] ExtData[1]->WorkLocal[15] = 0
     0x0BC9 [0x01] GOTO 0x0BD7
     0x0BCC [0x02] IF !(Work_Zone[0] == 1*) GOTO 0x0BD7
     0x0BD4 [0x01] GOTO 0x0BD7
     0x0BD7 [0x01] GOTO 0x0BDA
     0x0BDA [0x01] GOTO 0x00F2
     0x0BDD [0x21] END_EVENT
     0x0BDE [0x00] END_REQSTACK()
     0x0BDF [0x0B] ExtData[1]->WorkLocal[15]++
     0x0BE2 [0x02] IF !(ExtData[1]->WorkLocal[15] <= 1*) GOTO 0x0C8C
     0x0BEA [0x48] [System] [8724*]:
    → "Please bestow a name of 15 letters or fewer upon your creature. Taking no action will annul the process."
     0x0BED [0x71] USER_INPUT_HANDLER: Menu operation with params (params=[0x801C, 0x8005])
     0x0BF3 [0x71] USER_INPUT_HANDLER: Menu operation B (param=0x0012)
     0x0BF7 [0x9D] IF (strcmp(ExtData[1]->WorkLocal[18], 00000000000000000000000000000086) != 0) GOTO 0x0C // Also sets ExtData[1]->WorkLocal[1]
     0x0C0E [0xB4] UI_WINDOW_STRING_HANDLER(case=0x01 - Copy string from event strings table, work_offset=ExtData[1]->WorkLocal[22], string_index=0*)
     0x0C14 [0xB4] UI_WINDOW_STRING_HANDLER(case=0x04 - Copy string to shared buffers, work_offset1=ExtData[1]->WorkLocal[18], work_offset2=0*)
     0x0C1A [0x24] CREATE_DIALOG(message_id=8725*, default_option=0*, option_flags=0*)
    → "Is %0 fine? [Yes./No, I'll pick a new one./No, I quit.]"
     0x0C21 [0x25] WAIT_DIALOG_SELECT()
     0x0C22 [0x02] IF !(Work_Zone[0] == 0*) GOTO 0x0C64
     0x0C2A [0x42] SET_CLI_EVENT_CANCEL_DATA()
     0x0C2B [0x71] USER_INPUT_HANDLER: Check vulgar filter (work=Work_Zone[2])
     0x0C2F [0x02] IF !(Work_Zone[2] == 0*) GOTO 0x0C58
     0x0C37 [0x71] USER_INPUT_HANDLER: Check if player has input or exited
     0x0C39 [0xCD] LOAD_SCHEDULED_TASK_ALT4: Load scheduler "main" with entities [EventEntity, EventEntity], work=[235*, 0*]
     0x0C4A [0x2B] Chacharoon (ID: 17924231/0x01118087) [8727*]:
    → "Oooh, %0 is name of much preeetty! Is sign that many times of good be coming."
     0x0C51 [0x23] WAIT_FOR_DIALOG_INTERACTION
     0x0C52 [0x0C] ExtData[1]->WorkLocal[15]--
     0x0C55 [0x01] GOTO 0x0C60
     0x0C58 [0x2B] Chacharoon (ID: 17924231/0x01118087) [8726*]:
    → "Hmmm... This name too haaard for Chacharoon. Sorry, but giving new name is best."
     0x0C5F [0x23] WAIT_FOR_DIALOG_INTERACTION
     0x0C60 [0x2E] SET_CLI_EVENT_CANCEL_FLAGS()
     0x0C61 [0x01] GOTO 0x0C83
     0x0C64 [0x02] IF !(Work_Zone[0] == 1*) GOTO 0x0C6F
     0x0C6C [0x01] GOTO 0x0C83
     0x0C6F [0x02] IF !(Work_Zone[0] == 2*) GOTO 0x0C83
     0x0C77 [0xB4] UI_WINDOW_STRING_HANDLER(case=0x04 - Copy string to shared buffers, work_offset1=ExtData[1]->WorkLocal[22], work_offset2=0*)
     0x0C7D [0x0C] ExtData[1]->WorkLocal[15]--
     0x0C80 [0x01] GOTO 0x0C83
     0x0C83 [0x01] GOTO 0x0C89
     0x0C86 [0x0C] ExtData[1]->WorkLocal[15]--
     0x0C89 [0x01] GOTO 0x0BE2
     0x0C8C [0x1B] RETURN
     0x0C8D [0x41] ExtData[1]->WorkLocal[2] = Work_Zone[2] (bits 0*-31*)
     0x0C96 [0x41] ExtData[1]->WorkLocal[3] = Work_Zone[3] (bits 0*-7*)
     0x0C9F [0x41] ExtData[1]->WorkLocal[4] = Work_Zone[3] (bits 8*-15*)
     0x0CA8 [0x41] ExtData[1]->WorkLocal[5] = Work_Zone[3] (bits 16*-23*)
     0x0CB1 [0x41] ExtData[1]->WorkLocal[6] = Work_Zone[3] (bits 24*-31*)
     0x0CBA [0x41] ExtData[1]->WorkLocal[7] = Work_Zone[4] (bits 0*-7*)
     0x0CC3 [0x41] ExtData[1]->WorkLocal[8] = Work_Zone[4] (bits 8*-15*)
     0x0CCC [0x41] ExtData[1]->WorkLocal[9] = Work_Zone[4] (bits 16*-18*)
     0x0CD5 [0x41] ExtData[1]->WorkLocal[10] = Work_Zone[4] (bits 19*-19*)
     0x0CDE [0x41] ExtData[1]->WorkLocal[12] = Work_Zone[4] (bits 20*-23*)
     0x0CE7 [0x1B] RETURN
     0x0CE8 [0x42] SET_CLI_EVENT_CANCEL_DATA()
     0x0CE9 [0x1E] EventEntity looks at LocalPlayer and starts talking
     0x0CEE [0x48] [System] [8739*]:
    → "You gave %0 $1."
     0x0CF1 [0x23] WAIT_FOR_DIALOG_INTERACTION
     0x0CF2 [0x02] IF !(Work_Zone[2] == 0*) GOTO 0x0D01
     0x0CFA [0x48] [System] [8719*]:
    → "%0 stares off into the distance as if you're not even there."
     0x0CFD [0x23] WAIT_FOR_DIALOG_INTERACTION
     0x0CFE [0x01] GOTO 0x0DC2
     0x0D01 [0x02] IF !(Work_Zone[2] == 1*) GOTO 0x0D41
     0x0D09 [0xCD] LOAD_SCHEDULED_TASK_ALT4: Load scheduler "onmy" with entities [EventEntity, EventEntity], work=[237*, 0*]
     0x0D1A [0x48] [System] [8720*]:
    → "%0 is visibly angry with what you just did."
     0x0D1D [0x23] WAIT_FOR_DIALOG_INTERACTION
     0x0D1E [0xCE] WAIT_LOAD_SCHEDULER_ALT4: Wait for scheduler "onmy" with entities [EventEntity, EventEntity], work=237*
     0x0D2D [0xCD] LOAD_SCHEDULED_TASK_ALT4: Load scheduler "ofmy" with entities [EventEntity, EventEntity], work=[237*, 0*]
     0x0D3E [0x01] GOTO 0x0DC2
     0x0D41 [0x02] IF !(Work_Zone[2] == 2*) GOTO 0x0D50
     0x0D49 [0x48] [System] [8721*]:
    → "That didn't go over too well with %0."
     0x0D4C [0x23] WAIT_FOR_DIALOG_INTERACTION
     0x0D4D [0x01] GOTO 0x0DC2
     0x0D50 [0x02] IF !(Work_Zone[2] == 3*) GOTO 0x0D70
     0x0D58 [0xCD] LOAD_SCHEDULED_TASK_ALT4: Load scheduler "main" with entities [EventEntity, EventEntity], work=[235*, 0*]
     0x0D69 [0x48] [System] [8722*]:
    → "That was surprisingly not worthless in the eyes of %0!"
     0x0D6C [0x23] WAIT_FOR_DIALOG_INTERACTION
     0x0D6D [0x01] GOTO 0x0DC2
     0x0D70 [0x02] IF !(Work_Zone[2] == 4*) GOTO 0x0DB3
     0x0D78 [0xCD] LOAD_SCHEDULED_TASK_ALT4: Load scheduler "onon" with entities [EventEntity, EventEntity], work=[236*, 0*]
     0x0D89 [0x48] [System] [8723*]:
    → "That strongly resonated with %0!"
     0x0D8C [0x23] WAIT_FOR_DIALOG_INTERACTION
     0x0D8D [0xCE] WAIT_LOAD_SCHEDULER_ALT4: Wait for scheduler "onon" with entities [EventEntity, EventEntity], work=236*
     0x0D9C [0xCD] LOAD_SCHEDULED_TASK_ALT4: Load scheduler "ofon" with entities [EventEntity, EventEntity], work=[236*, 0*]
     0x0DAD [0x1C] WAIT(1* ticks)
     0x0DB0 [0x01] GOTO 0x0DC2
     0x0DB3 [0x02] IF !(Work_Zone[2] == 4294967295*) GOTO 0x0DC2
     0x0DBB [0x48] [System] [8719*]:
    → "%0 stares off into the distance as if you're not even there."
     0x0DBE [0x23] WAIT_FOR_DIALOG_INTERACTION
     0x0DBF [0x01] GOTO 0x0DC2
     0x0DC2 [0x02] IF !(Work_Zone[4] == 1*) GOTO 0x0DD1
     0x0DCA [0x48] [System] [8744*]:
    → "%0 squirms uncontrollably."
     0x0DCD [0x23] WAIT_FOR_DIALOG_INTERACTION
     0x0DCE [0x01] GOTO 0x0DDD
     0x0DD1 [0x02] IF !(Work_Zone[4] == 2*) GOTO 0x0DDD
     0x0DD9 [0x48] [System] [8745*]:
    → "%0 shudders violently."
     0x0DDC [0x23] WAIT_FOR_DIALOG_INTERACTION
     0x0DDD [0x21] END_EVENT
     0x0DDE [0x00] END_REQSTACK()
```

### Event 2050

#### Metadata

| Field        | Value   |
|--------------|---------|
| Entrypoint   | 0x0DDF  |
| Data Size    | 1 bytes |
| Instructions | 1       |

```
      00 01 02 03 04 05 06 07  08 09 0A 0B 0C 0D 0E 0F
      -- -- -- -- -- -- -- --  -- -- -- -- -- -- -- --
0DD0:                                               00                 .
```

#### Opcodes

```
  0: 0x0DDF [0x00] END_REQSTACK()
```

### Event 2051

#### Metadata

| Field        | Value      |
|--------------|------------|
| Entrypoint   | 0x0DE0     |
| Data Size    | 6320 bytes |
| Instructions | 21         |

```
      00 01 02 03 04 05 06 07  08 09 0A 0B 0C 0D 0E 0F
      -- -- -- -- -- -- -- --  -- -- -- -- -- -- -- --
0DE0: 42 46 01 45 0E 80 F0 FF  FF 7F F0 FF FF 7F 66 64  BF.E..........fd
0DF0: 6F 31 00 80 55 0E 80 F0  FF FF 7F F0 FF FF 7F 66  o1..U..........f
0E00: 64 6F 31 38 0F 80 29 08  F0 FF FF 7F 23 37 10 80  do18..).....#7..
0E10: 11 80 12 80 13 80 4E 01  87 80 11 01 4A F8 FF FF  ......N.....J...
0E20: 7F F0 FF FF 7F 6F 76 F8  FF FF 7F 45 1E 80 F0 FF  .....ov....E....
0E30: FF 7F F0 FF FF 7F 73 31  30 31 00 80 45 0E 80 F0  ......s101..E...
0E40: FF FF 7F F0 FF FF 7F 66  64 69 31 00 80 55 0E 80  .......fdi1..U..
0E50: F0 FF FF 7F F0 FF FF 7F  66 64 69 31 1D 58 80 23  ........fdi1.X.#
0E60: 52 1E 80 F0 FF FF 7F F0  FF FF 7F 73 31 30 31 46  R..........s101F
0E70: 00 20 00 21 00 48 43 80  23 21 00 03 03 10 59 80  . .!.HC.#!....Y.
0E80: 48 5A 80 23 21 00 92 00  1D 80 11 01 1A C0 16 1A  HZ.#!...........
0E90: FD 0E 1A C1 0F 1A 6B 11  1A 98 13 1A A6 22 1A A6  ......k......"..
0EA0: 13 1A 82 14 1A B9 14 1A  DC 14 1A 08 15 1A A8 15  ................
0EB0: 1A 32 16 1A 5B 16 1A A1  16 1A D9 12 AC 02 35 80  .2..[.........5.
0EC0: 11 01 1B 92 00 1D 80 11  01 1A FD 0E 1A C1 0F 1A  ................
0ED0: 6B 11 1A 98 13 1A A6 22  1A A6 13 1A 82 14 1A B9  k......"........
0EE0: 14 1A DC 14 1A 08 15 1A  A8 15 1A 32 16 1A 5B 16  ...........2..[.
0EF0: 1A A1 16 1A D9 12 AC 02  35 80 11 01 1B AC 02 09  ........5.......
0F00: 80 11 01 3E 00 11 00 80  14 0F 27 80 09 80 11 01  ...>......'.....
0F10: 02 01 1B 0F 27 80 09 80  11 01 03 AC 02 0A 80 11  ....'...........
0F20: 01 3E 00 11 08 80 32 0F  27 80 0A 80 11 01 02 01  .>....2.'.......
0F30: 39 0F 27 80 0A 80 11 01  03 AC 02 0B 80 11 01 3E  9.'............>
0F40: 00 11 1C 80 50 0F 29 80  0B 80 11 01 02 01 57 0F  ....P.).......W.
0F50: 29 80 0B 80 11 01 03 92  01 20 80 11 01 92 01 21  )........ .....!
0F60: 80 11 01 92 01 22 80 11  01 AC 02 20 80 11 01 3E  ....."..... ...>
0F70: 00 11 5B 80 7F 0F 4E 00  20 80 11 01 01 85 0F 4E  ..[...N. ......N
0F80: 01 20 80 11 01 AC 02 21  80 11 01 3E 00 11 5C 80  . .....!...>..\.
0F90: 9B 0F 4E 00 21 80 11 01  01 A1 0F 4E 01 21 80 11  ..N.!......N.!..
0FA0: 01 AC 02 22 80 11 01 3E  00 11 5D 80 B7 0F 4E 00  ..."...>..]...N.
0FB0: 22 80 11 01 01 BD 0F 4E  01 22 80 11 01 1C 08 80  "......N."......
0FC0: 1B AC 02 0F 80 11 01 3E  00 11 1D 80 D8 0F 27 80  .......>......'.
0FD0: 0F 80 11 01 02 01 DF 0F  27 80 0F 80 11 01 03 AC  ........'.......
0FE0: 02 10 80 11 01 3E 00 11  07 80 F6 0F 27 80 10 80  .....>......'...
0FF0: 11 01 02 01 FD 0F 27 80  10 80 11 01 03 AC 02 11  ......'.........
1000: 80 11 01 3E 00 11 5E 80  14 10 29 80 11 80 11 01  ...>..^...).....
1010: 02 01 1B 10 29 80 11 80  11 01 03 AC 02 1A 80 11  ....)...........
1020: 01 3E 01 11 53 80 32 10  27 80 1A 80 11 01 02 01  .>..S.2.'.......
1030: 39 10 27 80 1A 80 11 01  03 AC 02 1B 80 11 01 3E  9.'............>
1040: 01 11 0F 80 50 10 29 80  1B 80 11 01 02 01 57 10  ....P.).......W.
1050: 29 80 1B 80 11 01 03 AC  02 23 80 11 01 AC 02 24  )........#.....$
1060: 80 11 01 3E 00 11 53 80  8F 10 3E 08 11 00 80 80  ...>..S...>.....
1070: 10 4E 00 24 80 11 01 4E  01 23 80 11 01 01 8C 10  .N.$...N.#......
1080: 4E 00 23 80 11 01 4E 01  24 80 11 01 01 9B 10 4E  N.#...N.$......N
1090: 01 23 80 11 01 4E 01 24  80 11 01 AC 02 25 80 11  .#...N.$.....%..
10A0: 01 AC 02 26 80 11 01 3E  00 11 0F 80 D3 10 3E 08  ...&...>......>.
10B0: 11 08 80 C4 10 4E 00 26  80 11 01 4E 01 25 80 11  .....N.&...N.%..
10C0: 01 01 D0 10 4E 00 25 80  11 01 4E 01 26 80 11 01  ....N.%...N.&...
10D0: 01 DF 10 4E 01 25 80 11  01 4E 01 26 80 11 01 AC  ...N.%...N.&....
10E0: 02 27 80 11 01 AC 02 28  80 11 01 3E 00 11 54 80  .'.....(...>..T.
10F0: 17 11 3E 08 11 1C 80 08  11 4E 00 28 80 11 01 4E  ..>......N.(...N
1100: 01 27 80 11 01 01 14 11  4E 00 27 80 11 01 4E 01  .'......N.'...N.
1110: 28 80 11 01 01 23 11 4E  01 27 80 11 01 4E 01 28  (....#.N.'...N.(
1120: 80 11 01 AC 02 29 80 11  01 AC 02 2A 80 11 01 3E  .....).....*...>
1130: 00 11 5F 80 5B 11 3E 08  11 1D 80 4C 11 4E 00 2A  .._.[.>....L.N.*
1140: 80 11 01 4E 01 29 80 11  01 01 58 11 4E 00 29 80  ...N.)....X.N.).
1150: 11 01 4E 01 2A 80 11 01  01 67 11 4E 01 29 80 11  ..N.*....g.N.)..
1160: 01 4E 01 2A 80 11 01 1C  08 80 1B AC 02 12 80 11  .N.*............
1170: 01 3E 00 11 01 80 82 11  27 80 12 80 11 01 02 01  .>......'.......
1180: 89 11 27 80 12 80 11 01  03 AC 02 13 80 11 01 3E  ..'............>
1190: 00 11 50 80 A0 11 27 80  13 80 11 01 02 01 A7 11  ..P...'.........
11A0: 27 80 13 80 11 01 03 AC  02 14 80 11 01 3E 00 11  '............>..
11B0: 04 80 BE 11 29 80 14 80  11 01 02 01 C5 11 29 80  ....).........).
11C0: 14 80 11 01 03 AC 02 2B  80 11 01 AC 02 2C 80 11  .......+.....,..
11D0: 01 3E 00 11 60 80 FD 11  3E 08 11 07 80 EE 11 4E  .>..`...>......N
11E0: 00 2C 80 11 01 4E 01 2B  80 11 01 01 FA 11 4E 00  .,...N.+......N.
11F0: 2B 80 11 01 4E 01 2C 80  11 01 01 09 12 4E 01 2B  +...N.,......N.+
1200: 80 11 01 4E 01 2C 80 11  01 AC 02 2D 80 11 01 AC  ...N.,.....-....
1210: 02 2E 80 11 01 3E 00 11  51 80 41 12 3E 08 11 5E  .....>..Q.A.>..^
1220: 80 32 12 4E 00 2E 80 11  01 4E 01 2D 80 11 01 01  .2.N.....N.-....
1230: 3E 12 4E 00 2D 80 11 01  4E 01 2E 80 11 01 01 4D  >.N.-...N......M
1240: 12 4E 01 2D 80 11 01 4E  01 2E 80 11 01 AC 02 2F  .N.-...N......./
1250: 80 11 01 AC 02 30 80 11  01 3E 00 11 52 80 85 12  .....0...>..R...
1260: 3E 08 11 01 80 76 12 4E  00 30 80 11 01 4E 01 2F  >....v.N.0...N./
1270: 80 11 01 01 82 12 4E 00  2F 80 11 01 4E 01 30 80  ......N./...N.0.
1280: 11 01 01 91 12 4E 01 2F  80 11 01 4E 01 30 80 11  .....N./...N.0..
1290: 01 AC 02 31 80 11 01 AC  02 32 80 11 01 3E 00 11  ...1.....2...>..
12A0: 61 80 C9 12 3E 08 11 50  80 BA 12 4E 00 32 80 11  a...>..P...N.2..
12B0: 01 4E 01 31 80 11 01 01  C6 12 4E 00 31 80 11 01  .N.1......N.1...
12C0: 4E 01 32 80 11 01 01 D5  12 4E 01 31 80 11 01 4E  N.2......N.1...N
12D0: 01 32 80 11 01 1C 08 80  1B 92 01 35 80 11 01 AC  .2.........5....
12E0: 02 15 80 11 01 3E 00 11  62 80 F6 12 27 80 15 80  .....>..b...'...
12F0: 11 01 02 01 FD 12 27 80  15 80 11 01 03 AC 02 16  ......'.........
1300: 80 11 01 3E 00 11 0C 80  14 13 27 80 16 80 11 01  ...>......'.....
1310: 02 01 1B 13 27 80 16 80  11 01 03 AC 02 17 80 11  ....'...........
1320: 01 3E 00 11 4B 80 32 13  27 80 17 80 11 01 02 01  .>..K.2.'.......
1330: 39 13 27 80 17 80 11 01  03 AC 02 18 80 11 01 3E  9.'............>
1340: 01 11 63 80 50 13 29 80  18 80 11 01 02 01 57 13  ..c.P.).......W.
1350: 29 80 18 80 11 01 03 3E  01 11 54 80 67 13 60 02  )......>..T.g.`.
1360: 69 30 6F 6E 01 67 13 3E  01 11 5F 80 77 13 60 02  i0on.g.>.._.w.`.
1370: 69 31 6F 6E 01 77 13 3E  01 11 60 80 87 13 60 02  i1on.w.>..`...`.
1380: 69 32 6F 6E 01 87 13 3E  01 11 51 80 97 13 60 02  i2on...>..Q...`.
1390: 69 33 6F 6E 01 97 13 1B  AC 02 35 80 11 01 29 08  i3on......5...).
13A0: 35 80 11 01 04 1B 92 00  57 80 11 01 92 00 6A 80  5.......W.....j.
13B0: 11 01 92 00 58 80 11 01  92 00 6B 80 11 01 92 00  ....X.....k.....
13C0: 59 80 11 01 92 00 6C 80  11 01 AC 02 57 80 11 01  Y.....l.....W...
13D0: 3E 00 11 2C 80 E1 13 27  08 57 80 11 01 02 01 E8  >..,...'.W......
13E0: 13 27 08 57 80 11 01 03  AC 02 6A 80 11 01 3E 00  .'.W......j...>.
13F0: 11 20 80 FF 13 27 08 6A  80 11 01 02 01 06 14 27  . ...'.j.......'
1400: 08 6A 80 11 01 03 AC 02  58 80 11 01 3E 00 11 64  .j......X...>..d
1410: 80 1D 14 29 08 58 80 11  01 02 01 24 14 29 08 58  ...).X.....$.).X
1420: 80 11 01 03 AC 02 6B 80  11 01 3E 00 11 05 80 3B  ......k...>....;
1430: 14 27 08 6B 80 11 01 02  01 42 14 27 08 6B 80 11  .'.k.....B.'.k..
1440: 01 03 AC 02 59 80 11 01  3E 00 11 02 80 59 14 27  ....Y...>....Y.'
1450: 08 59 80 11 01 02 01 60  14 27 08 59 80 11 01 03  .Y.....`.'.Y....
1460: AC 02 6C 80 11 01 3E 00  11 63 80 77 14 29 08 6C  ..l...>..c.w.).l
1470: 80 11 01 02 01 7E 14 29  08 6C 80 11 01 03 1C 08  .....~.).l......
1480: 80 1B AC 02 36 80 11 01  3E 00 11 65 80 A5 14 2C  ....6...>..e...,
1490: 36 80 11 01 36 80 11 01  65 66 6F 6E B6 14 36 80  6...6...efon..6.
14A0: 11 01 01 B8 14 2C 36 80  11 01 36 80 11 01 65 66  .....,6...6...ef
14B0: 6F 66 B6 15 36 80 11 01  1B 3E 01 11 00 80 CF 14  of..6....>......
14C0: 4E 00 71 80 11 01 AC 03  71 80 11 01 01 DB 14 AC  N.q.....q.......
14D0: 02 71 80 11 01 4E 01 71  80 11 01 1B AC 02 72 80  .q...N.q......r.
14E0: 11 01 3E 01 11 08 80 00  15 3E 01 11 1D 80 F7 14  ..>......>......
14F0: 29 08 72 80 11 01 04 4E  00 72 80 11 01 01 07 15  ).r....N.r......
1500: 29 08 72 80 11 01 03 1B  AC 02 8E 80 11 01 3E 01  ).r...........>.
1510: 11 61 80 1E 15 4E 00 8E  80 11 01 01 24 15 4E 01  .a...N......$.N.
1520: 8E 80 11 01 1B AC 02 80  80 11 01 AC 02 81 80 11  ................
1530: 01 AC 02 82 80 11 01 AC  02 83 80 11 01 AC 02 84  ................
1540: 80 11 01 3E 01 11 5B 80  89 15 4E 00 80 80 11 01  ...>..[...N.....
1550: AC 03 80 80 11 01 4E 00  81 80 11 01 AC 03 81 80  ......N.........
1560: 11 01 4E 00 82 80 11 01  AC 03 82 80 11 01 4E 00  ..N...........N.
1570: 83 80 11 01 AC 03 83 80  11 01 4E 00 84 80 11 01  ..........N.....
1580: AC 03 84 80 11 01 01 A7  15 4E 01 80 80 11 01 4E  .........N.....N
1590: 01 81 80 11 01 4E 01 82  80 11 01 4E 01 83 80 11  .....N.....N....
15A0: 01 4E 01 84 80 11 01 1B  AC 02 85 80 11 01 AC 02  .N..............
15B0: 86 80 11 01 3E 01 11 5C  80 25 16 13 1B 00 1C 80  ....>..\.%......
15C0: 02 1B 00 1C 80 02 CB 15  06 1B 00 02 1B 00 00 80  ................
15D0: 80 E4 15 29 08 85 80 11  01 02 29 08 86 80 11 01  ...)......).....
15E0: 02 01 16 16 02 1B 00 08  80 80 FD 15 29 08 85 80  ............)...
15F0: 11 01 03 29 08 86 80 11  01 03 01 16 16 02 1B 00  ...)............
1600: 1C 80 80 16 16 29 08 85  80 11 01 04 29 08 86 80  .....)......)...
1610: 11 01 04 01 16 16 4E 00  85 80 11 01 4E 00 86 80  ......N.....N...
1620: 11 01 01 31 16 4E 01 85  80 11 01 4E 01 86 80 11  ...1.N.....N....
1630: 01 1B AC 02 87 80 11 01  3E 01 11 07 80 4E 16 4E  ........>....N.N
1640: 00 87 80 11 01 AC 03 87  80 11 01 01 5A 16 AC 02  ............Z...
1650: 87 80 11 01 4E 01 87 80  11 01 1B AC 02 89 80 11  ....N...........
1660: 01 29 08 89 80 11 01 04  1B AC 02 8A 80 11 01 29  .).............)
1670: 08 8A 80 11 01 04 1B AC  02 8B 80 11 01 29 08 8B  .............)..
1680: 80 11 01 04 1B AC 02 8C  80 11 01 29 08 8C 80 11  ...........)....
1690: 01 04 1B AC 02 8D 80 11  01 29 08 8D 80 11 01 04  .........)......
16A0: 1B AC 02 1C 80 11 01 3E  01 11 52 80 B8 16 29 80  .......>..R...).
16B0: 1C 80 11 01 02 01 BF 16  29 80 1C 80 11 01 03 1B  ........).......
16C0: 03 01 10 08 80 43 00 43  01 03 1C 00 02 10 03 08  .....C.C........
16D0: 11 03 10 03 01 11 04 10  03 0A 11 05 10 03 0B 11  ................
16E0: 06 10 03 0C 11 07 10 03  01 10 4B 80 43 00 43 01  ..........K.C.C.
16F0: 03 02 11 02 10 03 03 11  03 10 03 04 11 04 10 03  ................
1700: 05 11 05 10 03 06 11 06  10 03 07 11 07 10 03 09  ................
1710: 11 08 10 41 00 80 1D 80  1C 00 1B 00 1A 0D 19 41  ...A...........A
1720: 07 80 50 80 1C 00 1B 00  1A 15 1B 41 04 80 4B 80  ..P........A..K.
1730: 1C 00 1B 00 1A A5 1D 41  2C 80 05 80 1C 00 1B 00  .......A,.......
1740: 1A F3 1F 41 54 80 60 80  1C 00 1B 00 1A 75 17 41  ...AT.`......u.A
1750: 03 80 03 80 1C 00 1B 00  02 1B 00 00 80 00 6A 17  ..............j.
1760: 3D 00 11 65 80 08 80 01  71 17 3C 00 11 65 80 08  =..e....q.<..e..
1770: 80 1A 8F 17 1B 02 1B 00  1D 80 04 87 17 3C 01 11  .............<..
1780: 52 80 08 80 01 8E 17 3D  01 11 52 80 08 80 1B 3E  R......=..R....>
1790: 08 11 04 80 00 18 41 62  80 4B 80 08 11 1B 00 02  ......Ab.K......
17A0: 1B 00 08 80 80 B8 17 3D  00 11 2C 80 08 80 3C 00  .......=..,...<.
17B0: 11 20 80 08 80 01 FD 17  02 1B 00 07 80 80 D1 17  . ..............
17C0: 3C 00 11 2C 80 08 80 3D  00 11 20 80 08 80 01 FD  <..,...=.. .....
17D0: 17 13 1B 00 66 80 02 1B  00 35 80 03 EF 17 3D 00  ....f....5....=.
17E0: 11 2C 80 08 80 3C 00 11  20 80 08 80 01 FD 17 3C  .,...<.. ......<
17F0: 00 11 2C 80 08 80 3D 00  11 20 80 08 80 01 0E 18  ..,...=.. ......
1800: 3D 00 11 2C 80 08 80 3D  00 11 20 80 08 80 3E 08  =..,...=.. ...>.
1810: 11 2C 80 7F 18 41 20 80  05 80 08 11 1B 00 02 1B  .,...A .........
1820: 00 08 80 80 37 18 3C 00  11 64 80 08 80 3D 00 11  ....7.<..d...=..
1830: 05 80 08 80 01 7C 18 02  1B 00 5E 80 80 50 18 3D  .....|....^..P.=
1840: 00 11 64 80 08 80 3C 00  11 05 80 08 80 01 7C 18  ..d...<.......|.
1850: 13 1B 00 66 80 02 1B 00  35 80 03 6E 18 3C 00 11  ...f....5..n.<..
1860: 64 80 08 80 3D 00 11 05  80 08 80 01 7C 18 3D 00  d...=.......|.=.
1870: 11 64 80 08 80 3C 00 11  05 80 08 80 01 8D 18 3D  .d...<.........=
1880: 00 11 64 80 08 80 3D 00  11 05 80 08 80 3E 08 11  ..d...=......>..
1890: 02 80 FE 18 41 63 80 0F  80 08 11 1B 00 02 1B 00  ....Ac..........
18A0: 1D 80 80 B6 18 3C 00 11  02 80 08 80 3D 00 11 63  .....<......=..c
18B0: 80 08 80 01 FB 18 02 1B  00 1C 80 80 CF 18 3D 00  ..............=.
18C0: 11 02 80 08 80 3C 00 11  63 80 08 80 01 FB 18 13  .....<..c.......
18D0: 1B 00 66 80 02 1B 00 35  80 03 ED 18 3C 00 11 02  ..f....5....<...
18E0: 80 08 80 3D 00 11 63 80  08 80 01 FB 18 3D 00 11  ...=..c......=..
18F0: 02 80 08 80 3C 00 11 63  80 08 80 01 0C 19 3D 00  ....<..c......=.
1900: 11 02 80 08 80 3D 00 11  63 80 08 80 1B 02 1B 00  .....=..c.......
1910: 00 80 80 42 19 3D 00 11  00 80 08 80 3C 00 11 08  ...B.=......<...
1920: 80 08 80 3C 00 11 1C 80  08 80 3C 00 11 5B 80 08  ...<......<..[..
1930: 80 3D 00 11 5C 80 08 80  3D 00 11 5D 80 08 80 01  .=..\...=..]....
1940: 14 1B 02 1B 00 08 80 80  77 19 3D 00 11 00 80 08  ........w.=.....
1950: 80 3C 00 11 08 80 08 80  3C 00 11 1C 80 08 80 3C  .<......<......<
1960: 00 11 5B 80 08 80 3D 00  11 5C 80 08 80 3D 00 11  ..[...=..\...=..
1970: 5D 80 08 80 01 14 1B 02  1B 00 1C 80 80 AC 19 3D  ]..............=
1980: 00 11 00 80 08 80 3C 00  11 08 80 08 80 3C 00 11  ......<......<..
1990: 1C 80 08 80 3C 00 11 5B  80 08 80 3D 00 11 5C 80  ....<..[...=..\.
19A0: 08 80 3D 00 11 5D 80 08  80 01 14 1B 02 1B 00 1D  ..=..]..........
19B0: 80 80 E1 19 3D 00 11 00  80 08 80 3D 00 11 08 80  ....=......=....
19C0: 08 80 3C 00 11 1C 80 08  80 3C 00 11 5B 80 08 80  ..<......<..[...
19D0: 3C 00 11 5C 80 08 80 3D  00 11 5D 80 08 80 01 14  <..\...=..].....
19E0: 1B 02 1B 00 07 80 80 16  1A 3D 00 11 00 80 08 80  .........=......
19F0: 3D 00 11 08 80 08 80 3C  00 11 1C 80 08 80 3C 00  =......<......<.
1A00: 11 5B 80 08 80 3C 00 11  5C 80 08 80 3D 00 11 5D  .[...<..\...=..]
1A10: 80 08 80 01 14 1B 02 1B  00 5E 80 80 4B 1A 3D 00  .........^..K.=.
1A20: 11 00 80 08 80 3D 00 11  08 80 08 80 3D 00 11 1C  .....=......=...
1A30: 80 08 80 3C 00 11 5B 80  08 80 3C 00 11 5C 80 08  ...<..[...<..\..
1A40: 80 3C 00 11 5D 80 08 80  01 14 1B 02 1B 00 01 80  .<..]...........
1A50: 80 80 1A 3D 00 11 00 80  08 80 3D 00 11 08 80 08  ...=......=.....
1A60: 80 3D 00 11 1C 80 08 80  3C 00 11 5B 80 08 80 3C  .=......<..[...<
1A70: 00 11 5C 80 08 80 3C 00  11 5D 80 08 80 01 14 1B  ..\...<..]......
1A80: 02 1B 00 50 80 80 B5 1A  3D 00 11 00 80 08 80 3D  ...P....=......=
1A90: 00 11 08 80 08 80 3D 00  11 1C 80 08 80 3C 00 11  ......=......<..
1AA0: 5B 80 08 80 3C 00 11 5C  80 08 80 3C 00 11 5D 80  [...<..\...<..].
1AB0: 08 80 01 14 1B 02 1B 00  04 80 80 EA 1A 3D 00 11  .............=..
1AC0: 00 80 08 80 3D 00 11 08  80 08 80 3D 00 11 1C 80  ....=......=....
1AD0: 08 80 3C 00 11 5B 80 08  80 3C 00 11 5C 80 08 80  ..<..[...<..\...
1AE0: 3C 00 11 5D 80 08 80 01  14 1B 3D 00 11 00 80 08  <..]......=.....
1AF0: 80 3C 00 11 08 80 08 80  3C 00 11 1C 80 08 80 3C  .<......<......<
1B00: 00 11 5B 80 08 80 3D 00  11 5C 80 08 80 3D 00 11  ..[...=..\...=..
1B10: 5D 80 08 80 1B 02 1B 00  00 80 80 5F 1B 3C 00 11  ].........._.<..
1B20: 1D 80 08 80 3C 00 11 07  80 08 80 3C 00 11 5E 80  ....<......<..^.
1B30: 08 80 3C 01 11 53 80 08  80 3C 01 11 0F 80 08 80  ..<..S...<......
1B40: 3C 00 11 53 80 08 80 3D  00 11 0F 80 08 80 3D 00  <..S...=......=.
1B50: 11 54 80 08 80 3D 00 11  5F 80 08 80 01 A4 1D 02  .T...=.._.......
1B60: 1B 00 08 80 80 A9 1B 3C  00 11 1D 80 08 80 3C 00  .......<......<.
1B70: 11 07 80 08 80 3C 00 11  5E 80 08 80 3C 01 11 53  .....<..^...<..S
1B80: 80 08 80 3C 01 11 0F 80  08 80 3C 00 11 53 80 08  ...<......<..S..
1B90: 80 3D 00 11 0F 80 08 80  3D 00 11 54 80 08 80 3D  .=......=..T...=
1BA0: 00 11 5F 80 08 80 01 A4  1D 02 1B 00 1C 80 80 F3  .._.............
1BB0: 1B 3C 00 11 1D 80 08 80  3C 00 11 07 80 08 80 3C  .<......<......<
1BC0: 00 11 5E 80 08 80 3C 01  11 53 80 08 80 3C 01 11  ..^...<..S...<..
1BD0: 0F 80 08 80 3C 00 11 53  80 08 80 3D 00 11 0F 80  ....<..S...=....
1BE0: 08 80 3D 00 11 54 80 08  80 3D 00 11 5F 80 08 80  ..=..T...=.._...
1BF0: 01 A4 1D 02 1B 00 1D 80  80 3D 1C 3D 00 11 1D 80  .........=.=....
1C00: 08 80 3C 00 11 07 80 08  80 3C 00 11 5E 80 08 80  ..<......<..^...
1C10: 3D 01 11 53 80 08 80 3C  01 11 0F 80 08 80 3C 00  =..S...<......<.
1C20: 11 53 80 08 80 3C 00 11  0F 80 08 80 3D 00 11 54  .S...<......=..T
1C30: 80 08 80 3D 00 11 5F 80  08 80 01 A4 1D 02 1B 00  ...=.._.........
1C40: 07 80 80 87 1C 3D 00 11  1D 80 08 80 3C 00 11 07  .....=......<...
1C50: 80 08 80 3C 00 11 5E 80  08 80 3D 01 11 53 80 08  ...<..^...=..S..
1C60: 80 3C 01 11 0F 80 08 80  3C 00 11 53 80 08 80 3C  .<......<..S...<
1C70: 00 11 0F 80 08 80 3D 00  11 54 80 08 80 3D 00 11  ......=..T...=..
1C80: 5F 80 08 80 01 A4 1D 02  1B 00 5E 80 80 D1 1C 3D  _.........^....=
1C90: 00 11 1D 80 08 80 3D 00  11 07 80 08 80 3C 00 11  ......=......<..
1CA0: 5E 80 08 80 3D 01 11 53  80 08 80 3D 01 11 0F 80  ^...=..S...=....
1CB0: 08 80 3C 00 11 53 80 08  80 3C 00 11 0F 80 08 80  ..<..S...<......
1CC0: 3C 00 11 54 80 08 80 3D  00 11 5F 80 08 80 01 A4  <..T...=.._.....
1CD0: 1D 02 1B 00 01 80 80 1B  1D 3D 00 11 1D 80 08 80  .........=......
1CE0: 3D 00 11 07 80 08 80 3C  00 11 5E 80 08 80 3D 01  =......<..^...=.
1CF0: 11 53 80 08 80 3D 01 11  0F 80 08 80 3C 00 11 53  .S...=......<..S
1D00: 80 08 80 3C 00 11 0F 80  08 80 3C 00 11 54 80 08  ...<......<..T..
1D10: 80 3D 00 11 5F 80 08 80  01 A4 1D 02 1B 00 50 80  .=.._.........P.
1D20: 80 65 1D 3D 00 11 1D 80  08 80 3D 00 11 07 80 08  .e.=......=.....
1D30: 80 3D 00 11 5E 80 08 80  3D 01 11 53 80 08 80 3D  .=..^...=..S...=
1D40: 01 11 0F 80 08 80 3C 00  11 53 80 08 80 3C 00 11  ......<..S...<..
1D50: 0F 80 08 80 3C 00 11 54  80 08 80 3C 00 11 5F 80  ....<..T...<.._.
1D60: 08 80 01 A4 1D 3C 00 11  1D 80 08 80 3C 00 11 07  .....<......<...
1D70: 80 08 80 3C 00 11 5E 80  08 80 3C 01 11 53 80 08  ...<..^...<..S..
1D80: 80 3C 01 11 0F 80 08 80  3C 00 11 53 80 08 80 3D  .<......<..S...=
1D90: 00 11 0F 80 08 80 3D 00  11 54 80 08 80 3D 00 11  ......=..T...=..
1DA0: 5F 80 08 80 1B 02 1B 00  00 80 80 E1 1D 3D 00 11  _............=..
1DB0: 01 80 08 80 3D 00 11 50  80 08 80 3D 00 11 04 80  ....=..P...=....
1DC0: 08 80 3C 00 11 60 80 08  80 3D 00 11 51 80 08 80  ..<..`...=..Q...
1DD0: 3D 00 11 52 80 08 80 3D  00 11 61 80 08 80 01 F2  =..R...=..a.....
1DE0: 1F 02 1B 00 08 80 80 1D  1E 3D 00 11 01 80 08 80  .........=......
1DF0: 3D 00 11 50 80 08 80 3D  00 11 04 80 08 80 3C 00  =..P...=......<.
1E00: 11 60 80 08 80 3D 00 11  51 80 08 80 3D 00 11 52  .`...=..Q...=..R
1E10: 80 08 80 3D 00 11 61 80  08 80 01 F2 1F 02 1B 00  ...=..a.........
1E20: 1C 80 80 59 1E 3D 00 11  01 80 08 80 3D 00 11 50  ...Y.=......=..P
1E30: 80 08 80 3D 00 11 04 80  08 80 3C 00 11 60 80 08  ...=......<..`..
1E40: 80 3D 00 11 51 80 08 80  3D 00 11 52 80 08 80 3D  .=..Q...=..R...=
1E50: 00 11 61 80 08 80 01 F2  1F 02 1B 00 1D 80 80 95  ..a.............
1E60: 1E 3C 00 11 01 80 08 80  3D 00 11 50 80 08 80 3D  .<......=..P...=
1E70: 00 11 04 80 08 80 3C 00  11 60 80 08 80 3C 00 11  ......<..`...<..
1E80: 51 80 08 80 3D 00 11 52  80 08 80 3D 00 11 61 80  Q...=..R...=..a.
1E90: 08 80 01 F2 1F 02 1B 00  07 80 80 D1 1E 3C 00 11  .............<..
1EA0: 01 80 08 80 3D 00 11 50  80 08 80 3D 00 11 04 80  ....=..P...=....
1EB0: 08 80 3C 00 11 60 80 08  80 3C 00 11 51 80 08 80  ..<..`...<..Q...
1EC0: 3D 00 11 52 80 08 80 3D  00 11 61 80 08 80 01 F2  =..R...=..a.....
1ED0: 1F 02 1B 00 5E 80 80 0D  1F 3C 00 11 01 80 08 80  ....^....<......
1EE0: 3C 00 11 50 80 08 80 3D  00 11 04 80 08 80 3C 00  <..P...=......<.
1EF0: 11 60 80 08 80 3C 00 11  51 80 08 80 3C 00 11 52  .`...<..Q...<..R
1F00: 80 08 80 3D 00 11 61 80  08 80 01 F2 1F 02 1B 00  ...=..a.........
1F10: 01 80 80 49 1F 3C 00 11  01 80 08 80 3C 00 11 50  ...I.<......<..P
1F20: 80 08 80 3D 00 11 04 80  08 80 3C 00 11 60 80 08  ...=......<..`..
1F30: 80 3C 00 11 51 80 08 80  3C 00 11 52 80 08 80 3D  .<..Q...<..R...=
1F40: 00 11 61 80 08 80 01 F2  1F 02 1B 00 50 80 80 85  ..a.........P...
1F50: 1F 3C 00 11 01 80 08 80  3C 00 11 50 80 08 80 3C  .<......<..P...<
1F60: 00 11 04 80 08 80 3C 00  11 60 80 08 80 3C 00 11  ......<..`...<..
1F70: 51 80 08 80 3C 00 11 52  80 08 80 3C 00 11 61 80  Q...<..R...<..a.
1F80: 08 80 01 F2 1F 02 1B 00  04 80 80 C1 1F 3C 00 11  .............<..
1F90: 01 80 08 80 3C 00 11 50  80 08 80 3C 00 11 04 80  ....<..P...<....
1FA0: 08 80 3C 00 11 60 80 08  80 3C 00 11 51 80 08 80  ..<..`...<..Q...
1FB0: 3C 00 11 52 80 08 80 3C  00 11 61 80 08 80 01 F2  <..R...<..a.....
1FC0: 1F 3D 00 11 01 80 08 80  3D 00 11 50 80 08 80 3D  .=......=..P...=
1FD0: 00 11 04 80 08 80 3C 00  11 60 80 08 80 3D 00 11  ......<..`...=..
1FE0: 51 80 08 80 3D 00 11 52  80 08 80 3D 00 11 61 80  Q...=..R...=..a.
1FF0: 08 80 1B 02 1B 00 00 80  80 36 20 3D 00 11 62 80  .........6 =..b.
2000: 08 80 3D 00 11 0C 80 08  80 3D 00 11 4B 80 08 80  ..=......=..K...
2010: 3D 01 11 63 80 08 80 3C  01 11 54 80 08 80 3D 01  =..c...<..T...=.
2020: 11 5F 80 08 80 3D 01 11  60 80 08 80 3D 01 11 51  ._...=..`...=..Q
2030: 80 08 80 01 43 22 02 1B  00 08 80 80 79 20 3D 00  ....C"......y =.
2040: 11 62 80 08 80 3D 00 11  0C 80 08 80 3D 00 11 4B  .b...=......=..K
2050: 80 08 80 3D 01 11 63 80  08 80 3C 01 11 54 80 08  ...=..c...<..T..
2060: 80 3D 01 11 5F 80 08 80  3D 01 11 60 80 08 80 3D  .=.._...=..`...=
2070: 01 11 51 80 08 80 01 43  22 02 1B 00 1C 80 80 BC  ..Q....C".......
2080: 20 3D 00 11 62 80 08 80  3D 00 11 0C 80 08 80 3D   =..b...=......=
2090: 00 11 4B 80 08 80 3D 01  11 63 80 08 80 3C 01 11  ..K...=..c...<..
20A0: 54 80 08 80 3D 01 11 5F  80 08 80 3D 01 11 60 80  T...=.._...=..`.
20B0: 08 80 3D 01 11 51 80 08  80 01 43 22 02 1B 00 1D  ..=..Q....C"....
20C0: 80 80 FF 20 3C 00 11 62  80 08 80 3D 00 11 0C 80  ... <..b...=....
20D0: 08 80 3D 00 11 4B 80 08  80 3D 01 11 63 80 08 80  ..=..K...=..c...
20E0: 3D 01 11 54 80 08 80 3C  01 11 5F 80 08 80 3D 01  =..T...<.._...=.
20F0: 11 60 80 08 80 3D 01 11  51 80 08 80 01 43 22 02  .`...=..Q....C".
2100: 1B 00 07 80 80 42 21 3C  00 11 62 80 08 80 3D 00  .....B!<..b...=.
2110: 11 0C 80 08 80 3D 00 11  4B 80 08 80 3D 01 11 63  .....=..K...=..c
2120: 80 08 80 3D 01 11 54 80  08 80 3C 01 11 5F 80 08  ...=..T...<.._..
2130: 80 3D 01 11 60 80 08 80  3D 01 11 51 80 08 80 01  .=..`...=..Q....
2140: 43 22 02 1B 00 5E 80 80  85 21 3C 00 11 62 80 08  C"...^...!<..b..
2150: 80 3C 00 11 0C 80 08 80  3D 00 11 4B 80 08 80 3D  .<......=..K...=
2160: 01 11 63 80 08 80 3D 01  11 54 80 08 80 3D 01 11  ..c...=..T...=..
2170: 5F 80 08 80 3C 01 11 60  80 08 80 3D 01 11 51 80  _...<..`...=..Q.
2180: 08 80 01 43 22 02 1B 00  01 80 80 C8 21 3C 00 11  ...C".......!<..
2190: 62 80 08 80 3C 00 11 0C  80 08 80 3D 00 11 4B 80  b...<......=..K.
21A0: 08 80 3D 01 11 63 80 08  80 3D 01 11 54 80 08 80  ..=..c...=..T...
21B0: 3D 01 11 5F 80 08 80 3C  01 11 60 80 08 80 3D 01  =.._...<..`...=.
21C0: 11 51 80 08 80 01 43 22  02 1B 00 50 80 80 0B 22  .Q....C"...P..."
21D0: 3C 00 11 62 80 08 80 3C  00 11 0C 80 08 80 3C 00  <..b...<......<.
21E0: 11 4B 80 08 80 3C 01 11  63 80 08 80 3D 01 11 54  .K...<..c...=..T
21F0: 80 08 80 3D 01 11 5F 80  08 80 3D 01 11 60 80 08  ...=.._...=..`..
2200: 80 3C 01 11 51 80 08 80  01 43 22 3D 00 11 62 80  .<..Q....C"=..b.
2210: 08 80 3D 00 11 0C 80 08  80 3D 00 11 4B 80 08 80  ..=......=..K...
2220: 3D 01 11 63 80 08 80 3C  01 11 54 80 08 80 3D 01  =..c...<..T...=.
2230: 11 5F 80 08 80 3D 01 11  60 80 08 80 3D 01 11 51  ._...=..`...=..Q
2240: 80 08 80 1B 03 01 10 4B  80 43 00 43 01 03 02 11  .......K.C.C....
2250: 02 10 03 03 11 03 10 03  04 11 04 10 03 05 11 05  ................
2260: 10 03 06 11 06 10 03 07  11 07 10 03 09 11 08 10  ................
2270: 1B 03 01 10 67 80 47 00  68 80 69 80 6A 80 6B 80  ....g.G.h.i.j.k.
2280: 47 01 03 02 11 02 10 03  03 11 03 10 03 04 11 04  G...............
2290: 10 03 05 11 05 10 03 06  11 06 10 03 07 11 07 10  ................
22A0: 03 09 11 08 10 1B 2F 00  37 80 11 01 2F 00 38 80  ....../.7.../.8.
22B0: 11 01 2F 00 39 80 11 01  2F 00 3A 80 11 01 2F 00  ../.9.../.:.../.
22C0: 3B 80 11 01 2F 00 3C 80  11 01 2F 00 3D 80 11 01  ;.../.<.../.=...
22D0: 2F 00 3E 80 11 01 2F 00  3F 80 11 01 2F 00 40 80  /.>.../.?.../.@.
22E0: 11 01 2F 00 41 80 11 01  2F 00 42 80 11 01 2F 00  ../.A.../.B.../.
22F0: 43 80 11 01 2F 00 44 80  11 01 2F 00 45 80 11 01  C.../.D.../.E...
2300: 2F 00 46 80 11 01 2F 00  47 80 11 01 2F 00 48 80  /.F.../.G.../.H.
2310: 11 01 2F 00 49 80 11 01  2F 00 4A 80 11 01 2F 00  ../.I.../.J.../.
2320: 4B 80 11 01 2F 00 4C 80  11 01 2F 00 4D 80 11 01  K.../.L.../.M...
2330: 2F 00 4E 80 11 01 AC 02  37 80 11 01 AC 02 38 80  /.N.....7.....8.
2340: 11 01 AC 02 39 80 11 01  AC 02 3A 80 11 01 AC 02  ....9.....:.....
2350: 3B 80 11 01 AC 02 3C 80  11 01 AC 02 3D 80 11 01  ;.....<.....=...
2360: AC 02 3E 80 11 01 AC 02  3F 80 11 01 AC 02 40 80  ..>.....?.....@.
2370: 11 01 AC 02 41 80 11 01  AC 02 42 80 11 01 AC 02  ....A.....B.....
2380: 43 80 11 01 AC 02 44 80  11 01 AC 02 45 80 11 01  C.....D.....E...
2390: AC 02 46 80 11 01 AC 02  47 80 11 01 AC 02 48 80  ..F.....G.....H.
23A0: 11 01 AC 02 49 80 11 01  AC 02 4A 80 11 01 AC 02  ....I.....J.....
23B0: 4B 80 11 01 AC 02 4C 80  11 01 AC 02 4D 80 11 01  K.....L.....M...
23C0: AC 02 4E 80 11 01 AC 02  0C 80 11 01 AC 02 0D 80  ..N.............
23D0: 11 01 AC 02 0E 80 11 01  41 00 80 08 80 02 11 02  ........A.......
23E0: 10 02 02 10 08 80 00 F3  23 29 80 0C 80 11 01 03  ........#)......
23F0: 01 FA 23 29 80 0C 80 11  01 02 41 00 80 08 80 03  ..#)......A.....
2400: 11 02 10 02 02 10 08 80  00 15 24 29 80 0D 80 11  ..........$)....
2410: 01 03 01 1C 24 29 80 0D  80 11 01 02 41 00 80 08  ....$)......A...
2420: 80 04 11 02 10 02 02 10  08 80 00 37 24 29 80 0E  ...........7$)..
2430: 80 11 01 03 01 3E 24 29  80 0E 80 11 01 02 27 80  .....>$)......'.
2440: 37 80 11 01 02 27 80 38  80 11 01 02 27 80 39 80  7....'.8....'.9.
2450: 11 01 02 29 80 3A 80 11  01 02 27 80 3B 80 11 01  ...).:....'.;...
2460: 02 27 80 3C 80 11 01 02  27 80 3D 80 11 01 02 29  .'.<....'.=....)
2470: 80 3E 80 11 01 02 27 80  3F 80 11 01 02 27 80 40  .>....'.?....'.@
2480: 80 11 01 02 27 80 41 80  11 01 02 29 80 42 80 11  ....'.A....).B..
2490: 01 02 27 80 43 80 11 01  02 27 80 44 80 11 01 02  ..'.C....'.D....
24A0: 27 80 45 80 11 01 02 29  80 46 80 11 01 02 27 80  '.E....).F....'.
24B0: 47 80 11 01 02 27 80 48  80 11 01 02 27 80 49 80  G....'.H....'.I.
24C0: 11 01 02 29 80 4A 80 11  01 02 27 80 4B 80 11 01  ...).J....'.K...
24D0: 02 27 80 4C 80 11 01 02  27 80 4D 80 11 01 02 29  .'.L....'.M....)
24E0: 80 4E 80 11 01 02 1B 42  45 0E 80 F0 FF FF 7F F0  .N.....BE.......
24F0: FF FF 7F 66 64 6F 30 00  80 55 0E 80 F0 FF FF 7F  ...fdo0..U......
2500: F0 FF FF 7F 66 64 6F 30  1A 71 22 1A 86 0E 45 0E  ....fdo0.q"...E.
2510: 80 F0 FF FF 7F F0 FF FF  7F 66 64 69 30 00 80 55  .........fdi0..U
2520: 0E 80 F0 FF FF 7F F0 FF  FF 7F 66 64 69 30 1B 42  ..........fdi0.B
2530: 45 0E 80 F0 FF FF 7F F0  FF FF 7F 66 64 6F 30 00  E..........fdo0.
2540: 80 55 0E 80 F0 FF FF 7F  F0 FF FF 7F 66 64 6F 30  .U..........fdo0
2550: 03 01 10 6C 80 47 00 6D  80 6E 80 6F 80 70 80 47  ...l.G.m.n.o.p.G
2560: 01 02 02 10 00 80 00 7E  25 1A C0 16 1A 69 16 1A  .......~%....i..
2570: 77 16 1A 85 16 1A 93 16  1A 25 15 01 7E 25 45 0E  w........%..~%E.
2580: 80 F0 FF FF 7F F0 FF FF  7F 66 64 69 30 00 80 55  .........fdi0..U
2590: 0E 80 F0 FF FF 7F F0 FF  FF 7F 66 64 69 30 1B 1A  ..........fdi0..
25A0: 08 26 02 1B 00 00 80 01  AB 25 1B 3C 00 11 02 10  .&.......%.<....
25B0: 08 80 1A 86 0E 1B 1A 08  26 02 1B 00 00 80 01 C2  ........&.......
25C0: 25 1B 3D 00 11 02 10 08  80 1A 86 0E 1B 03 1B 00  %.=.............
25D0: 02 10 03 01 10 1C 80 40  04 80 03 80 01 10 02 10  .......@........
25E0: 02 1C 00 00 80 00 F2 25  3C 01 10 03 80 08 80 01  .......%<.......
25F0: F9 25 3D 01 10 03 80 08  80 43 00 43 01 03 00 11  .%=......C.C....
2600: 02 10 03 1B 00 00 80 1B  02 02 10 00 80 03 19 26  ...............&
2610: 03 1B 00 48 80 1B 01 2F  26 02 02 10 03 80 02 2A  ...H.../&......*
