# 17924188 - DIRECTOR2

## Common Data

| Field            | Value                |
|------------------|----------------------|
| Zone             | Mog Garden (ID: 280) |
| Block Size       | 28532 bytes          |
| Total Events     | 52                   |
| References Count | 299                  |

## List of Events

| Event ID                   | Entrypoint   |   Size |   Instructions |
|----------------------------|--------------|--------|----------------|
| [65535](#event-65535)      | 0x0000       |      1 |              1 |
| [2006](#event-2006)        | 0x0001       |      1 |              1 |
| [65535.1](#event-655351)   | 0x0002       |     27 |              7 |
| [65535.2](#event-655352)   | 0x001D       |     10 |              2 |
| [65535.3](#event-655353)   | 0x0027       |     14 |              2 |
| [65535.4](#event-655354)   | 0x0035       |     14 |              2 |
| [65535.5](#event-655355)   | 0x0043       |     14 |              2 |
| [65535.6](#event-655356)   | 0x0051       |     14 |              2 |
| [65535.7](#event-655357)   | 0x005F       |     14 |              2 |
| [65535.8](#event-655358)   | 0x006D       |     14 |              2 |
| [65535.9](#event-655359)   | 0x007B       |     14 |              2 |
| [65535.10](#event-6553510) | 0x0089       |     14 |              2 |
| [65535.11](#event-6553511) | 0x0097       |     14 |              2 |
| [65535.12](#event-6553512) | 0x00A5       |     14 |              2 |
| [65535.13](#event-6553513) | 0x00B3       |     14 |              2 |
| [65535.14](#event-6553514) | 0x00C1       |     14 |              2 |
| [65535.15](#event-6553515) | 0x00CF       |     14 |              2 |
| [65535.16](#event-6553516) | 0x00DD       |     14 |              2 |
| [65535.17](#event-6553517) | 0x00EB       |     14 |              2 |
| [65535.18](#event-6553518) | 0x00F9       |     14 |              2 |
| [65535.19](#event-6553519) | 0x0107       |     14 |              2 |
| [65535.20](#event-6553520) | 0x0115       |     14 |              2 |
| [65535.21](#event-6553521) | 0x0123       |     14 |              2 |
| [65535.22](#event-6553522) | 0x0131       |     14 |              2 |
| [65535.23](#event-6553523) | 0x013F       |     14 |              2 |
| [65535.24](#event-6553524) | 0x014D       |     14 |              2 |
| [65535.25](#event-6553525) | 0x015B       |     14 |              2 |
| [65535.26](#event-6553526) | 0x0169       |     14 |              2 |
| [65535.27](#event-6553527) | 0x0177       |     38 |              5 |
| [2036](#event-2036)        | 0x019D       |      1 |              1 |
| [65535.28](#event-6553528) | 0x019E       |     32 |              5 |
| [65535.29](#event-6553529) | 0x01BE       |     22 |              5 |
| [65535.30](#event-6553530) | 0x01D4       |     10 |              2 |
| [65535.31](#event-6553531) | 0x01DE       |     10 |              2 |
| [65535.32](#event-6553532) | 0x01E8       |     10 |              2 |
| [65535.33](#event-6553533) | 0x01F2       |     14 |              4 |
| [65535.34](#event-6553534) | 0x0200       |     14 |              4 |
| [65535.35](#event-6553535) | 0x020E       |     14 |              4 |
| [65535.36](#event-6553536) | 0x021C       |     10 |              2 |
| [65535.37](#event-6553537) | 0x0226       |     10 |              2 |
| [65535.38](#event-6553538) | 0x0230       |     24 |              8 |
| [65535.39](#event-6553539) | 0x0248       |     43 |              7 |
| [2037](#event-2037)        | 0x0273       |      1 |              1 |
| [2039](#event-2039)        | 0x0274       |      1 |              1 |
| [65535.40](#event-6553540) | 0x0275       |     10 |              2 |
| [65535.41](#event-6553541) | 0x027F       |     10 |              2 |
| [65535.42](#event-6553542) | 0x0289       |     14 |              4 |
| [2065](#event-2065)        | 0x0297       |   8285 |           1048 |
| [2068](#event-2068)        | 0x22F4       |   3421 |            454 |
| [2070](#event-2070)        | 0x3051       |   6476 |            821 |
| [2071](#event-2071)        | 0x499D       |   3793 |            484 |
| [2075](#event-2075)        | 0x586E       |   4474 |            561 |

## DAT References (imed_data)

|   Index | Hex Value   |   Dec Value |
|---------|-------------|-------------|
|       0 | 0xFFFFF453  |  4294964307 |
|       1 | 0xFFFF7D3C  |  4294933820 |
|       2 | 0x0B80      |        2944 |
|       3 | 0x0C7F      |        3199 |
|       4 | 0xFFFFE86C  |  4294961260 |
|       5 | 0xFFFF8A6C  |  4294937196 |
|       6 | 0x09FD      |        2557 |
|       7 | 0x0C8D      |        3213 |
|       8 | 0x093A      |        2362 |
|       9 | 0x00B4      |         180 |
|      10 | 0x0032      |          50 |
|      11 | 0x0000      |           0 |
|      12 | 0xFFFFD962  |  4294957410 |
|      13 | 0xFFFFCCBF  |  4294954175 |
|      14 | 0x04D7      |        1239 |
|      15 | 0x0E00      |        3584 |
|      16 | 0xFFFFE195  |  4294959509 |
|      17 | 0xFFFFCEFE  |  4294954750 |
|      18 | 0x0444      |        1092 |
|      19 | 0x056F      |        1391 |
|      20 | 0xFFFFD218  |  4294955544 |
|      21 | 0xFFFFBD02  |  4294950146 |
|      22 | 0x05DB      |        1499 |
|      23 | 0x000D      |          13 |
|      24 | 0xFFFFDE1D  |  4294958621 |
|      25 | 0xFFFFD053  |  4294955091 |
|      26 | 0x041F      |        1055 |
|      27 | 0xFFFFF8A4  |  4294965412 |
|      28 | 0xFFFFF9CE  |  4294965710 |
|      29 | 0x017F      |         383 |
|      30 | 0xFFFFF8C6  |  4294965446 |
|      31 | 0xFFFFF36E  |  4294964078 |
|      32 | 0x018C      |         396 |
|      33 | 0x0FF3      |        4083 |
|      34 | 0x1D86      |        7558 |
|      35 | 0x2DED      |       11757 |
|      36 | 0xFFFFFE4F  |  4294966863 |
|      37 | 0x00BE      |         190 |
|      38 | 0x0014      |          20 |
|      39 | 0x2174      |        8564 |
|      40 | 0x2BD9      |       11225 |
|      41 | 0xFFFFFEB3  |  4294966963 |
|      42 | 0x0E11      |        3601 |
|      43 | 0x20FB      |        8443 |
|      44 | 0x249B      |        9371 |
|      45 | 0xFFFFFFA9  |  4294967209 |
|      46 | 0x0574      |        1396 |
|      47 | 0x2639      |        9785 |
|      48 | 0x24EC      |        9452 |
|      49 | 0xFFFFFF9F  |  4294967199 |
|      50 | 0x00C8      |         200 |
|      51 | 0x0013      |          19 |
|      52 | 0xFFFE7960  |  4294867296 |
|      53 | 0x13B2      |        5042 |
|      54 | 0x06F8      |        1784 |
|      55 | 0x0065      |         101 |
|      56 | 0x0DF9      |        3577 |
|      57 | 0x02F5      |         757 |
|      58 | 0x0078      |         120 |
|      59 | 0x0005      |           5 |
|      60 | 0x0006      |           6 |
|      61 | 0x208B      |        8331 |
|      62 | 0x208C      |        8332 |
|      63 | 0x0708      |        1800 |
|      64 | 0x208D      |        8333 |
|      65 | 0x0007      |           7 |
|      66 | 0x005A      |          90 |
|      67 | 0x208E      |        8334 |
|      68 | 0x003C      |          60 |
|      69 | 0x0190      |         400 |
|      70 | 0x1CA0      |        7328 |
|      71 | 0x0064      |         100 |
|      72 | 0x208F      |        8335 |
|      73 | 0x2090      |        8336 |
|      74 | 0x2091      |        8337 |
|      75 | 0x0001      |           1 |
|      76 | 0x2092      |        8338 |
|      77 | 0x0002      |           2 |
|      78 | 0x2093      |        8339 |
|      79 | 0x2094      |        8340 |
|      80 | 0x00A3      |         163 |
|      81 | 0x007F      |         127 |
|      82 | 0x0015      |          21 |
|      83 | 0x2095      |        8341 |
|      84 | 0x2096      |        8342 |
|      85 | 0x000A      |          10 |
|      86 | 0x2097      |        8343 |
|      87 | 0x2098      |        8344 |
|      88 | 0x001E      |          30 |
|      89 | 0x2099      |        8345 |
|      90 | 0x209A      |        8346 |
|      91 | 0x209B      |        8347 |
|      92 | 0x209C      |        8348 |
|      93 | 0x209D      |        8349 |
|      94 | 0x209E      |        8350 |
|      95 | 0x209F      |        8351 |
|      96 | 0x001D      |          29 |
|      97 | 0x20A0      |        8352 |
|      98 | 0x20A1      |        8353 |
|      99 | 0x20A2      |        8354 |
|     100 | 0x20A3      |        8355 |
|     101 | 0x20A4      |        8356 |
|     102 | 0x0010      |          16 |
|     103 | 0x20A5      |        8357 |
|     104 | 0x20A6      |        8358 |
|     105 | 0x20A7      |        8359 |
|     106 | 0x20A8      |        8360 |
|     107 | 0x20A9      |        8361 |
|     108 | 0x20AA      |        8362 |
|     109 | 0x20AB      |        8363 |
|     110 | 0x20AC      |        8364 |
|     111 | 0x20AD      |        8365 |
|     112 | 0x0028      |          40 |
|     113 | 0x20AE      |        8366 |
|     114 | 0x00DB      |         219 |
|     115 | 0x20AF      |        8367 |
|     116 | 0x0082      |         130 |
|     117 | 0x20B0      |        8368 |
|     118 | 0x20B1      |        8369 |
|     119 | 0x012C      |         300 |
|     120 | 0x20B2      |        8370 |
|     121 | 0x20B3      |        8371 |
|     122 | 0x20B4      |        8372 |
|     123 | 0x20B5      |        8373 |
|     124 | 0x20B6      |        8374 |
|     125 | 0x20B7      |        8375 |
|     126 | 0x20B8      |        8376 |
|     127 | 0x20B9      |        8377 |
|     128 | 0x20BA      |        8378 |
|     129 | 0x0003      |           3 |
|     130 | 0x0004      |           4 |
|     131 | 0x0008      |           8 |
|     132 | 0x20BB      |        8379 |
|     133 | 0x20BC      |        8380 |
|     134 | 0x0020      |          32 |
|     135 | 0x20BD      |        8381 |
|     136 | 0x20BE      |        8382 |
|     137 | 0x00AE      |         174 |
|     138 | 0x20BF      |        8383 |
|     139 | 0x20C0      |        8384 |
|     140 | 0x00C9      |         201 |
|     141 | 0x00B1      |         177 |
|     142 | 0x20C1      |        8385 |
|     143 | 0x20C2      |        8386 |
|     144 | 0x20C3      |        8387 |
|     145 | 0x0DEE      |        3566 |
|     146 | 0x20C4      |        8388 |
|     147 | 0x20C5      |        8389 |
|     148 | 0x20C6      |        8390 |
|     149 | 0x00AA      |         170 |
|     150 | 0x09C5      |        2501 |
|     151 | 0x09C3      |        2499 |
|     152 | 0x09C1      |        2497 |
|     153 | 0x20C7      |        8391 |
|     154 | 0x20C8      |        8392 |
|     155 | 0x0043      |          67 |
|     156 | 0x02F6      |         758 |
|     157 | 0x20C9      |        8393 |
|     158 | 0x20CA      |        8394 |
|     159 | 0x20CB      |        8395 |
|     160 | 0x20CC      |        8396 |
|     161 | 0x20CD      |        8397 |
|     162 | 0x20CE      |        8398 |
|     163 | 0x20CF      |        8399 |
|     164 | 0x20D0      |        8400 |
|     165 | 0x20D1      |        8401 |
|     166 | 0x20D2      |        8402 |
|     167 | 0x20D3      |        8403 |
|     168 | 0x20D4      |        8404 |
|     169 | 0x20D5      |        8405 |
|     170 | 0x20D6      |        8406 |
|     171 | 0x20D7      |        8407 |
|     172 | 0x20D8      |        8408 |
|     173 | 0x20D9      |        8409 |
|     174 | 0x20DA      |        8410 |
|     175 | 0x0050      |          80 |
|     176 | 0x20DB      |        8411 |
|     177 | 0x20DC      |        8412 |
|     178 | 0x20DD      |        8413 |
|     179 | 0x20DE      |        8414 |
|     180 | 0x1178      |        4472 |
|     181 | 0x20DF      |        8415 |
|     182 | 0x20E0      |        8416 |
|     183 | 0x20E3      |        8419 |
|     184 | 0x20E4      |        8420 |
|     185 | 0x20E5      |        8421 |
|     186 | 0x20E6      |        8422 |
|     187 | 0x20E7      |        8423 |
|     188 | 0x00ED      |         237 |
|     189 | 0x004C      |          76 |
|     190 | 0x0EBF      |        3775 |
|     191 | 0xFFFFB8A3  |  4294949027 |
|     192 | 0x09C2      |        2498 |
|     193 | 0x328D      |       12941 |
|     194 | 0xFFFFBCF4  |  4294950132 |
|     195 | 0x04B2      |        1202 |
|     196 | 0x017A      |         378 |
|     197 | 0xFFFFC8FB  |  4294953211 |
|     198 | 0x038B      |         907 |
|     199 | 0x20E8      |        8424 |
|     200 | 0x20E9      |        8425 |
|     201 | 0x20EA      |        8426 |
|     202 | 0x20EB      |        8427 |
|     203 | 0x20EC      |        8428 |
|     204 | 0x20ED      |        8429 |
|     205 | 0x20EE      |        8430 |
|     206 | 0x20EF      |        8431 |
|     207 | 0x20F0      |        8432 |
|     208 | 0x20F1      |        8433 |
|     209 | 0x20F2      |        8434 |
|     210 | 0x20F3      |        8435 |
|     211 | 0x20F4      |        8436 |
|     212 | 0x20F5      |        8437 |
|     213 | 0x20F6      |        8438 |
|     214 | 0x20F7      |        8439 |
|     215 | 0x20F8      |        8440 |
|     216 | 0x20F9      |        8441 |
|     217 | 0x20FA      |        8442 |
|     218 | 0x0400      |        1024 |
|     219 | 0x00EC      |         236 |
|     220 | 0x20FC      |        8444 |
|     221 | 0x20FD      |        8445 |
|     222 | 0x20FE      |        8446 |
|     223 | 0x20FF      |        8447 |
|     224 | 0x2100      |        8448 |
|     225 | 0x2101      |        8449 |
|     226 | 0x2102      |        8450 |
|     227 | 0x2103      |        8451 |
|     228 | 0x2104      |        8452 |
|     229 | 0x2105      |        8453 |
|     230 | 0x2106      |        8454 |
|     231 | 0x2107      |        8455 |
|     232 | 0x2108      |        8456 |
|     233 | 0x2109      |        8457 |
|     234 | 0x210A      |        8458 |
|     235 | 0x210B      |        8459 |
|     236 | 0x210C      |        8460 |
|     237 | 0x210D      |        8461 |
|     238 | 0x003E      |          62 |
|     239 | 0x210E      |        8462 |
|     240 | 0x210F      |        8463 |
|     241 | 0x2110      |        8464 |
|     242 | 0x2111      |        8465 |
|     243 | 0x2112      |        8466 |
|     244 | 0x2113      |        8467 |
|     245 | 0x0298      |         664 |
|     246 | 0x2114      |        8468 |
|     247 | 0x2115      |        8469 |
|     248 | 0x2116      |        8470 |
|     249 | 0x2117      |        8471 |
|     250 | 0x0B1E      |        2846 |
|     251 | 0x2118      |        8472 |
|     252 | 0x2119      |        8473 |
|     253 | 0x211A      |        8474 |
|     254 | 0x211B      |        8475 |
|     255 | 0x0CA0      |        3232 |
|     256 | 0x211C      |        8476 |
|     257 | 0x211D      |        8477 |
|     258 | 0x211E      |        8478 |
|     259 | 0x211F      |        8479 |
|     260 | 0x2120      |        8480 |
|     261 | 0x2121      |        8481 |
|     262 | 0x2122      |        8482 |
|     263 | 0x2123      |        8483 |
|     264 | 0x2124      |        8484 |
|     265 | 0x2125      |        8485 |
|     266 | 0x2126      |        8486 |
|     267 | 0x2127      |        8487 |
|     268 | 0x2128      |        8488 |
|     269 | 0x2129      |        8489 |
|     270 | 0x212A      |        8490 |
|     271 | 0x212B      |        8491 |
|     272 | 0x212C      |        8492 |
|     273 | 0x212D      |        8493 |
|     274 | 0x212E      |        8494 |
|     275 | 0x0067      |         103 |
|     276 | 0x2135      |        8501 |
|     277 | 0x2136      |        8502 |
|     278 | 0x025E      |         606 |
|     279 | 0x2137      |        8503 |
|     280 | 0x2138      |        8504 |
|     281 | 0x2139      |        8505 |
|     282 | 0x213A      |        8506 |
|     283 | 0x213B      |        8507 |
|     284 | 0x213C      |        8508 |
|     285 | 0x213D      |        8509 |
|     286 | 0x213E      |        8510 |
|     287 | 0x213F      |        8511 |
|     288 | 0x2140      |        8512 |
|     289 | 0x2141      |        8513 |
|     290 | 0x2142      |        8514 |
|     291 | 0x2143      |        8515 |
|     292 | 0x2144      |        8516 |
|     293 | 0x2145      |        8517 |
|     294 | 0x2146      |        8518 |
|     295 | 0x2147      |        8519 |
|     296 | 0x2148      |        8520 |
|     297 | 0x2149      |        8521 |
|     298 | 0x0024      |          36 |

## String References

- **7328**: @@
- **8336**: How do you cheer him up? [Don't let it get you down!/I'll give you some jingly!/We'll catch whoever did this!]
- **8355**: How do you respond? [Perfect plan!/Utterly unacceptable./The cuddly creature's the culprit!]
- **8360**: What should happen next? [We should be honest./Run while we can!/Maybe hypnosis would work?]
- **8380**: How do you respond? [He's right./Stare daggers at the moogle.]
- **8396**: What will you do? [Take a good look at it./Explosives solve most problems./Who cares? Bury it in the sand.]
- **8456**: What do you say? [It's a trap!/You worry too much.]
- **8461**: Open the box? [Fine./No way!]
- **8510**: Don't you think so? [Of course!/I...guess so?/Naaaaaah.]

## Events

### Event 65535

#### Metadata

| Field        | Value   |
|--------------|---------|
| Entrypoint   | 0x0000  |
| Data Size    | 1 bytes |
| Instructions | 1       |

```
      00 01 02 03 04 05 06 07  08 09 0A 0B 0C 0D 0E 0F
      -- -- -- -- -- -- -- --  -- -- -- -- -- -- -- --
0000: 00                                                .               
```

#### Opcodes

```
  0: 0x0000 [0x00] END_REQSTACK()
```

### Event 2006

#### Metadata

| Field        | Value   |
|--------------|---------|
| Entrypoint   | 0x0001  |
| Data Size    | 1 bytes |
| Instructions | 1       |

```
      00 01 02 03 04 05 06 07  08 09 0A 0B 0C 0D 0E 0F
      -- -- -- -- -- -- -- --  -- -- -- -- -- -- -- --
0000:    00                                              .              
```

#### Opcodes

```
  0: 0x0001 [0x00] END_REQSTACK()
```

### Event 65535.1

#### Metadata

| Field        | Value    |
|--------------|----------|
| Entrypoint   | 0x0002   |
| Data Size    | 27 bytes |
| Instructions | 7        |

```
      00 01 02 03 04 05 06 07  08 09 0A 0B 0C 0D 0E 0F
      -- -- -- -- -- -- -- --  -- -- -- -- -- -- -- --
0000:       2F 00 F8 FF FF 7F  22 00 80 F8 FF FF 7F 33    /....."......3
0010: 01 37 00 80 01 80 02 80  03 80 33 01 00           .7........3..   
```

#### Opcodes

```
  0: 0x0002 [0x2F] EventEntity->Render.Flags0 &= ~0x80000 // Bit 19
  1: 0x0008 [0x22] ENTITY_HIDE_FLAG(enabled=0x00)
  2: 0x000A [0x80] LOAD_WAIT(entity=EventEntity)
  3: 0x000F [0x33] EventEntity->Render.Flags0 |= 0x200000 // Bit 21 (flag=0x01)
  4: 0x0011 [0x37] UPDATE_EVENT_POSITION_AND_DIR: x=-2.989*, z=-33.476*, y=2.944*, direction=281.2°*
  5: 0x001A [0x33] EventEntity->Render.Flags0 |= 0x200000 // Bit 21 (flag=0x01)
  6: 0x001C [0x00] END_REQSTACK()
```

### Event 65535.2

#### Metadata

| Field        | Value    |
|--------------|----------|
| Entrypoint   | 0x001D   |
| Data Size    | 10 bytes |
| Instructions | 2        |

```
      00 01 02 03 04 05 06 07  08 09 0A 0B 0C 0D 0E 0F
      -- -- -- -- -- -- -- --  -- -- -- -- -- -- -- --
0010:                                         37 04 80               7..
0020: 05 80 06 80 07 80 00                              .......         
```

#### Opcodes

```
  0: 0x001D [0x37] UPDATE_EVENT_POSITION_AND_DIR: x=-6.036*, z=-30.100*, y=2.557*, direction=282.4°*
  1: 0x0026 [0x00] END_REQSTACK()
```

### Event 65535.3

#### Metadata

| Field        | Value    |
|--------------|----------|
| Entrypoint   | 0x0027   |
| Data Size    | 14 bytes |
| Instructions | 2        |

```
      00 01 02 03 04 05 06 07  08 09 0A 0B 0C 0D 0E 0F
      -- -- -- -- -- -- -- --  -- -- -- -- -- -- -- --
0020:                      2C  5C 80 11 01 5C 80 11 01         ,\...\...
0030: 6E 6F 30 30 00                                    no00.           
```

#### Opcodes

```
  0: 0x0027 [0x2C] CREATE_SCHEDULER_TASK: Create scheduler "no00" with entities [DIRECTOR2 (ID: 17924188/0x0111805C), DIRECTOR2 (ID: 17924188/0x0111805C)]
  1: 0x0034 [0x00] END_REQSTACK()
```

### Event 65535.4

#### Metadata

| Field        | Value    |
|--------------|----------|
| Entrypoint   | 0x0035   |
| Data Size    | 14 bytes |
| Instructions | 2        |

```
      00 01 02 03 04 05 06 07  08 09 0A 0B 0C 0D 0E 0F
      -- -- -- -- -- -- -- --  -- -- -- -- -- -- -- --
0030:                53 5C 80  11 01 5C 80 11 01 6E 6F       S\...\...no
0040: 30 30 00                                          00.             
```

#### Opcodes

```
  0: 0x0035 [0x53] WAIT_SCHEDULER_TASK: Wait for scheduler "no00" with entities [DIRECTOR2 (ID: 17924188/0x0111805C), DIRECTOR2 (ID: 17924188/0x0111805C)]
  1: 0x0042 [0x00] END_REQSTACK()
```

### Event 65535.5

#### Metadata

| Field        | Value    |
|--------------|----------|
| Entrypoint   | 0x0043   |
| Data Size    | 14 bytes |
| Instructions | 2        |

```
      00 01 02 03 04 05 06 07  08 09 0A 0B 0C 0D 0E 0F
      -- -- -- -- -- -- -- --  -- -- -- -- -- -- -- --
0040:          2C 5C 80 11 01  5C 80 11 01 6B 79 6F 30     ,\...\...kyo0
0050: 00                                                .               
```

#### Opcodes

```
  0: 0x0043 [0x2C] CREATE_SCHEDULER_TASK: Create scheduler "kyo0" with entities [DIRECTOR2 (ID: 17924188/0x0111805C), DIRECTOR2 (ID: 17924188/0x0111805C)]
  1: 0x0050 [0x00] END_REQSTACK()
```

### Event 65535.6

#### Metadata

| Field        | Value    |
|--------------|----------|
| Entrypoint   | 0x0051   |
| Data Size    | 14 bytes |
| Instructions | 2        |

```
      00 01 02 03 04 05 06 07  08 09 0A 0B 0C 0D 0E 0F
      -- -- -- -- -- -- -- --  -- -- -- -- -- -- -- --
0050:    53 5C 80 11 01 5C 80  11 01 6B 79 6F 30 00      S\...\...kyo0. 
```

#### Opcodes

```
  0: 0x0051 [0x53] WAIT_SCHEDULER_TASK: Wait for scheduler "kyo0" with entities [DIRECTOR2 (ID: 17924188/0x0111805C), DIRECTOR2 (ID: 17924188/0x0111805C)]
  1: 0x005E [0x00] END_REQSTACK()
```

### Event 65535.7

#### Metadata

| Field        | Value    |
|--------------|----------|
| Entrypoint   | 0x005F   |
| Data Size    | 14 bytes |
| Instructions | 2        |

```
      00 01 02 03 04 05 06 07  08 09 0A 0B 0C 0D 0E 0F
      -- -- -- -- -- -- -- --  -- -- -- -- -- -- -- --
0050:                                               2C                 ,
0060: 5C 80 11 01 5C 80 11 01  79 65 73 30 00           \...\...yes0.   
```

#### Opcodes

```
  0: 0x005F [0x2C] CREATE_SCHEDULER_TASK: Create scheduler "yes0" with entities [DIRECTOR2 (ID: 17924188/0x0111805C), DIRECTOR2 (ID: 17924188/0x0111805C)]
  1: 0x006C [0x00] END_REQSTACK()
```

### Event 65535.8

#### Metadata

| Field        | Value    |
|--------------|----------|
| Entrypoint   | 0x006D   |
| Data Size    | 14 bytes |
| Instructions | 2        |

```
      00 01 02 03 04 05 06 07  08 09 0A 0B 0C 0D 0E 0F
      -- -- -- -- -- -- -- --  -- -- -- -- -- -- -- --
0060:                                         53 5C 80               S\.
0070: 11 01 5C 80 11 01 79 65  73 30 00                 ..\...yes0.     
```

#### Opcodes

```
  0: 0x006D [0x53] WAIT_SCHEDULER_TASK: Wait for scheduler "yes0" with entities [DIRECTOR2 (ID: 17924188/0x0111805C), DIRECTOR2 (ID: 17924188/0x0111805C)]
  1: 0x007A [0x00] END_REQSTACK()
```

### Event 65535.9

#### Metadata

| Field        | Value    |
|--------------|----------|
| Entrypoint   | 0x007B   |
| Data Size    | 14 bytes |
| Instructions | 2        |

```
      00 01 02 03 04 05 06 07  08 09 0A 0B 0C 0D 0E 0F
      -- -- -- -- -- -- -- --  -- -- -- -- -- -- -- --
0070:                                   2C 5C 80 11 01             ,\...
0080: 5C 80 11 01 65 69 6F 30  00                       \...eio0.       
```

#### Opcodes

```
  0: 0x007B [0x2C] CREATE_SCHEDULER_TASK: Create scheduler "eio0" with entities [DIRECTOR2 (ID: 17924188/0x0111805C), DIRECTOR2 (ID: 17924188/0x0111805C)]
  1: 0x0088 [0x00] END_REQSTACK()
```

### Event 65535.10

#### Metadata

| Field        | Value    |
|--------------|----------|
| Entrypoint   | 0x0089   |
| Data Size    | 14 bytes |
| Instructions | 2        |

```
      00 01 02 03 04 05 06 07  08 09 0A 0B 0C 0D 0E 0F
      -- -- -- -- -- -- -- --  -- -- -- -- -- -- -- --
0080:                             53 5C 80 11 01 5C 80           S\...\.
0090: 11 01 65 69 6F 30 00                              ..eio0.         
```

#### Opcodes

```
  0: 0x0089 [0x53] WAIT_SCHEDULER_TASK: Wait for scheduler "eio0" with entities [DIRECTOR2 (ID: 17924188/0x0111805C), DIRECTOR2 (ID: 17924188/0x0111805C)]
  1: 0x0096 [0x00] END_REQSTACK()
```

### Event 65535.11

#### Metadata

| Field        | Value    |
|--------------|----------|
| Entrypoint   | 0x0097   |
| Data Size    | 14 bytes |
| Instructions | 2        |

```
      00 01 02 03 04 05 06 07  08 09 0A 0B 0C 0D 0E 0F
      -- -- -- -- -- -- -- --  -- -- -- -- -- -- -- --
0090:                      2C  5C 80 11 01 5C 80 11 01         ,\...\...
00A0: 6B 73 75 30 00                                    ksu0.           
```

#### Opcodes

```
  0: 0x0097 [0x2C] CREATE_SCHEDULER_TASK: Create scheduler "ksu0" with entities [DIRECTOR2 (ID: 17924188/0x0111805C), DIRECTOR2 (ID: 17924188/0x0111805C)]
  1: 0x00A4 [0x00] END_REQSTACK()
```

### Event 65535.12

#### Metadata

| Field        | Value    |
|--------------|----------|
| Entrypoint   | 0x00A5   |
| Data Size    | 14 bytes |
| Instructions | 2        |

```
      00 01 02 03 04 05 06 07  08 09 0A 0B 0C 0D 0E 0F
      -- -- -- -- -- -- -- --  -- -- -- -- -- -- -- --
00A0:                53 5C 80  11 01 5C 80 11 01 6B 73       S\...\...ks
00B0: 75 30 00                                          u0.             
```

#### Opcodes

```
  0: 0x00A5 [0x53] WAIT_SCHEDULER_TASK: Wait for scheduler "ksu0" with entities [DIRECTOR2 (ID: 17924188/0x0111805C), DIRECTOR2 (ID: 17924188/0x0111805C)]
  1: 0x00B2 [0x00] END_REQSTACK()
```

### Event 65535.13

#### Metadata

| Field        | Value    |
|--------------|----------|
| Entrypoint   | 0x00B3   |
| Data Size    | 14 bytes |
| Instructions | 2        |

```
      00 01 02 03 04 05 06 07  08 09 0A 0B 0C 0D 0E 0F
      -- -- -- -- -- -- -- --  -- -- -- -- -- -- -- --
00B0:          2C 5C 80 11 01  5C 80 11 01 67 61 6B 30     ,\...\...gak0
00C0: 00                                                .               
```

#### Opcodes

```
  0: 0x00B3 [0x2C] CREATE_SCHEDULER_TASK: Create scheduler "gak0" with entities [DIRECTOR2 (ID: 17924188/0x0111805C), DIRECTOR2 (ID: 17924188/0x0111805C)]
  1: 0x00C0 [0x00] END_REQSTACK()
```

### Event 65535.14

#### Metadata

| Field        | Value    |
|--------------|----------|
| Entrypoint   | 0x00C1   |
| Data Size    | 14 bytes |
| Instructions | 2        |

```
      00 01 02 03 04 05 06 07  08 09 0A 0B 0C 0D 0E 0F
      -- -- -- -- -- -- -- --  -- -- -- -- -- -- -- --
00C0:    53 5C 80 11 01 5C 80  11 01 67 61 6B 30 00      S\...\...gak0. 
```

#### Opcodes

```
  0: 0x00C1 [0x53] WAIT_SCHEDULER_TASK: Wait for scheduler "gak0" with entities [DIRECTOR2 (ID: 17924188/0x0111805C), DIRECTOR2 (ID: 17924188/0x0111805C)]
  1: 0x00CE [0x00] END_REQSTACK()
```

### Event 65535.15

#### Metadata

| Field        | Value    |
|--------------|----------|
| Entrypoint   | 0x00CF   |
| Data Size    | 14 bytes |
| Instructions | 2        |

```
      00 01 02 03 04 05 06 07  08 09 0A 0B 0C 0D 0E 0F
      -- -- -- -- -- -- -- --  -- -- -- -- -- -- -- --
00C0:                                               2C                 ,
00D0: 5C 80 11 01 5C 80 11 01  67 61 6B 31 00           \...\...gak1.   
```

#### Opcodes

```
  0: 0x00CF [0x2C] CREATE_SCHEDULER_TASK: Create scheduler "gak1" with entities [DIRECTOR2 (ID: 17924188/0x0111805C), DIRECTOR2 (ID: 17924188/0x0111805C)]
  1: 0x00DC [0x00] END_REQSTACK()
```

### Event 65535.16

#### Metadata

| Field        | Value    |
|--------------|----------|
| Entrypoint   | 0x00DD   |
| Data Size    | 14 bytes |
| Instructions | 2        |

```
      00 01 02 03 04 05 06 07  08 09 0A 0B 0C 0D 0E 0F
      -- -- -- -- -- -- -- --  -- -- -- -- -- -- -- --
00D0:                                         53 5C 80               S\.
00E0: 11 01 5C 80 11 01 67 61  6B 31 00                 ..\...gak1.     
```

#### Opcodes

```
  0: 0x00DD [0x53] WAIT_SCHEDULER_TASK: Wait for scheduler "gak1" with entities [DIRECTOR2 (ID: 17924188/0x0111805C), DIRECTOR2 (ID: 17924188/0x0111805C)]
  1: 0x00EA [0x00] END_REQSTACK()
```

### Event 65535.17

#### Metadata

| Field        | Value    |
|--------------|----------|
| Entrypoint   | 0x00EB   |
| Data Size    | 14 bytes |
| Instructions | 2        |

```
      00 01 02 03 04 05 06 07  08 09 0A 0B 0C 0D 0E 0F
      -- -- -- -- -- -- -- --  -- -- -- -- -- -- -- --
00E0:                                   2C 5C 80 11 01             ,\...
00F0: 5C 80 11 01 74 6C 6B 30  00                       \...tlk0.       
```

#### Opcodes

```
  0: 0x00EB [0x2C] CREATE_SCHEDULER_TASK: Create scheduler "tlk0" with entities [DIRECTOR2 (ID: 17924188/0x0111805C), DIRECTOR2 (ID: 17924188/0x0111805C)]
  1: 0x00F8 [0x00] END_REQSTACK()
```

### Event 65535.18

#### Metadata

| Field        | Value    |
|--------------|----------|
| Entrypoint   | 0x00F9   |
| Data Size    | 14 bytes |
| Instructions | 2        |

```
      00 01 02 03 04 05 06 07  08 09 0A 0B 0C 0D 0E 0F
      -- -- -- -- -- -- -- --  -- -- -- -- -- -- -- --
00F0:                             53 5C 80 11 01 5C 80           S\...\.
0100: 11 01 74 6C 6B 30 00                              ..tlk0.         
```

#### Opcodes

```
  0: 0x00F9 [0x53] WAIT_SCHEDULER_TASK: Wait for scheduler "tlk0" with entities [DIRECTOR2 (ID: 17924188/0x0111805C), DIRECTOR2 (ID: 17924188/0x0111805C)]
  1: 0x0106 [0x00] END_REQSTACK()
```

### Event 65535.19

#### Metadata

| Field        | Value    |
|--------------|----------|
| Entrypoint   | 0x0107   |
| Data Size    | 14 bytes |
| Instructions | 2        |

```
      00 01 02 03 04 05 06 07  08 09 0A 0B 0C 0D 0E 0F
      -- -- -- -- -- -- -- --  -- -- -- -- -- -- -- --
0100:                      2C  5C 80 11 01 5C 80 11 01         ,\...\...
0110: 68 61 70 30 00                                    hap0.           
```

#### Opcodes

```
  0: 0x0107 [0x2C] CREATE_SCHEDULER_TASK: Create scheduler "hap0" with entities [DIRECTOR2 (ID: 17924188/0x0111805C), DIRECTOR2 (ID: 17924188/0x0111805C)]
  1: 0x0114 [0x00] END_REQSTACK()
```

### Event 65535.20

#### Metadata

| Field        | Value    |
|--------------|----------|
| Entrypoint   | 0x0115   |
| Data Size    | 14 bytes |
| Instructions | 2        |

```
      00 01 02 03 04 05 06 07  08 09 0A 0B 0C 0D 0E 0F
      -- -- -- -- -- -- -- --  -- -- -- -- -- -- -- --
0110:                53 5C 80  11 01 5C 80 11 01 68 61       S\...\...ha
0120: 70 30 00                                          p0.             
```

#### Opcodes

```
  0: 0x0115 [0x53] WAIT_SCHEDULER_TASK: Wait for scheduler "hap0" with entities [DIRECTOR2 (ID: 17924188/0x0111805C), DIRECTOR2 (ID: 17924188/0x0111805C)]
  1: 0x0122 [0x00] END_REQSTACK()
```

### Event 65535.21

#### Metadata

| Field        | Value    |
|--------------|----------|
| Entrypoint   | 0x0123   |
| Data Size    | 14 bytes |
| Instructions | 2        |

```
      00 01 02 03 04 05 06 07  08 09 0A 0B 0C 0D 0E 0F
      -- -- -- -- -- -- -- --  -- -- -- -- -- -- -- --
0120:          2C 5C 80 11 01  5C 80 11 01 6B 72 75 30     ,\...\...kru0
0130: 00                                                .               
```

#### Opcodes

```
  0: 0x0123 [0x2C] CREATE_SCHEDULER_TASK: Create scheduler "kru0" with entities [DIRECTOR2 (ID: 17924188/0x0111805C), DIRECTOR2 (ID: 17924188/0x0111805C)]
  1: 0x0130 [0x00] END_REQSTACK()
```

### Event 65535.22

#### Metadata

| Field        | Value    |
|--------------|----------|
| Entrypoint   | 0x0131   |
| Data Size    | 14 bytes |
| Instructions | 2        |

```
      00 01 02 03 04 05 06 07  08 09 0A 0B 0C 0D 0E 0F
      -- -- -- -- -- -- -- --  -- -- -- -- -- -- -- --
0130:    53 5C 80 11 01 5C 80  11 01 6B 72 75 30 00      S\...\...kru0. 
```

#### Opcodes

```
  0: 0x0131 [0x53] WAIT_SCHEDULER_TASK: Wait for scheduler "kru0" with entities [DIRECTOR2 (ID: 17924188/0x0111805C), DIRECTOR2 (ID: 17924188/0x0111805C)]
  1: 0x013E [0x00] END_REQSTACK()
```

### Event 65535.23

#### Metadata

| Field        | Value    |
|--------------|----------|
| Entrypoint   | 0x013F   |
| Data Size    | 14 bytes |
| Instructions | 2        |

```
      00 01 02 03 04 05 06 07  08 09 0A 0B 0C 0D 0E 0F
      -- -- -- -- -- -- -- --  -- -- -- -- -- -- -- --
0130:                                               2C                 ,
0140: 5C 80 11 01 5C 80 11 01  73 74 64 30 00           \...\...std0.   
```

#### Opcodes

```
  0: 0x013F [0x2C] CREATE_SCHEDULER_TASK: Create scheduler "std0" with entities [DIRECTOR2 (ID: 17924188/0x0111805C), DIRECTOR2 (ID: 17924188/0x0111805C)]
  1: 0x014C [0x00] END_REQSTACK()
```

### Event 65535.24

#### Metadata

| Field        | Value    |
|--------------|----------|
| Entrypoint   | 0x014D   |
| Data Size    | 14 bytes |
| Instructions | 2        |

```
      00 01 02 03 04 05 06 07  08 09 0A 0B 0C 0D 0E 0F
      -- -- -- -- -- -- -- --  -- -- -- -- -- -- -- --
0140:                                         53 5C 80               S\.
0150: 11 01 5C 80 11 01 73 74  64 30 00                 ..\...std0.     
```

#### Opcodes

```
  0: 0x014D [0x53] WAIT_SCHEDULER_TASK: Wait for scheduler "std0" with entities [DIRECTOR2 (ID: 17924188/0x0111805C), DIRECTOR2 (ID: 17924188/0x0111805C)]
  1: 0x015A [0x00] END_REQSTACK()
```

### Event 65535.25

#### Metadata

| Field        | Value    |
|--------------|----------|
| Entrypoint   | 0x015B   |
| Data Size    | 14 bytes |
| Instructions | 2        |

```
      00 01 02 03 04 05 06 07  08 09 0A 0B 0C 0D 0E 0F
      -- -- -- -- -- -- -- --  -- -- -- -- -- -- -- --
0150:                                   2C 5C 80 11 01             ,\...
0160: 5C 80 11 01 70 6E 63 30  00                       \...pnc0.       
```

#### Opcodes

```
  0: 0x015B [0x2C] CREATE_SCHEDULER_TASK: Create scheduler "pnc0" with entities [DIRECTOR2 (ID: 17924188/0x0111805C), DIRECTOR2 (ID: 17924188/0x0111805C)]
  1: 0x0168 [0x00] END_REQSTACK()
```

### Event 65535.26

#### Metadata

| Field        | Value    |
|--------------|----------|
| Entrypoint   | 0x0169   |
| Data Size    | 14 bytes |
| Instructions | 2        |

```
      00 01 02 03 04 05 06 07  08 09 0A 0B 0C 0D 0E 0F
      -- -- -- -- -- -- -- --  -- -- -- -- -- -- -- --
0160:                             53 5C 80 11 01 5C 80           S\...\.
0170: 11 01 70 6E 63 30 00                              ..pnc0.         
```

#### Opcodes

```
  0: 0x0169 [0x53] WAIT_SCHEDULER_TASK: Wait for scheduler "pnc0" with entities [DIRECTOR2 (ID: 17924188/0x0111805C), DIRECTOR2 (ID: 17924188/0x0111805C)]
  1: 0x0176 [0x00] END_REQSTACK()
```

### Event 65535.27

#### Metadata

| Field        | Value    |
|--------------|----------|
| Entrypoint   | 0x0177   |
| Data Size    | 38 bytes |
| Instructions | 5        |

```
      00 01 02 03 04 05 06 07  08 09 0A 0B 0C 0D 0E 0F
      -- -- -- -- -- -- -- --  -- -- -- -- -- -- -- --
0170:                      4E  00 5C 80 11 01 80 5C 80         N.\....\.
0180: 11 01 2C 5C 80 11 01 5C  80 11 01 6B 69 6C 61 53  ..,\...\...kilaS
0190: 5C 80 11 01 5C 80 11 01  6B 69 6C 61 00           \...\...kila.   
```

#### Opcodes

```
  0: 0x0177 [0x4E] SET_ENTITY_HIDE_FLAG: Show DIRECTOR2 (ID: 17924188/0x0111805C)
  1: 0x017D [0x80] LOAD_WAIT(entity=DIRECTOR2 (ID: 17924188/0x0111805C))
  2: 0x0182 [0x2C] CREATE_SCHEDULER_TASK: Create scheduler "kila" with entities [DIRECTOR2 (ID: 17924188/0x0111805C), DIRECTOR2 (ID: 17924188/0x0111805C)]
  3: 0x018F [0x53] WAIT_SCHEDULER_TASK: Wait for scheduler "kila" with entities [DIRECTOR2 (ID: 17924188/0x0111805C), DIRECTOR2 (ID: 17924188/0x0111805C)]
  4: 0x019C [0x00] END_REQSTACK()
```

### Event 2036

#### Metadata

| Field        | Value   |
|--------------|---------|
| Entrypoint   | 0x019D  |
| Data Size    | 1 bytes |
| Instructions | 1       |

```
      00 01 02 03 04 05 06 07  08 09 0A 0B 0C 0D 0E 0F
      -- -- -- -- -- -- -- --  -- -- -- -- -- -- -- --
0190:                                         00                     .  
```

#### Opcodes

```
  0: 0x019D [0x00] END_REQSTACK()
```

### Event 65535.28

#### Metadata

| Field        | Value    |
|--------------|----------|
| Entrypoint   | 0x019E   |
| Data Size    | 32 bytes |
| Instructions | 5        |

```
      00 01 02 03 04 05 06 07  08 09 0A 0B 0C 0D 0E 0F
      -- -- -- -- -- -- -- --  -- -- -- -- -- -- -- --
0190:                                            B6 00                ..
01A0: 08 80 1C 09 80 B4 13 04  00 4D 69 79 75 40 4B 75  .........Miyu@Ku
01B0: 70 6F 76 65 6C 6C 61 00  00 B5 00 04 00 00        povella.......  
```

#### Opcodes

```
  0: 0x019E [0xB6] ENTITY_APPEARANCE_HANDLER(case=Hair style, value=2362*)
  1: 0x01A2 [0x1C] WAIT(180* ticks)
  2: 0x01A5 [0xB4] UI_WINDOW_STRING_HANDLER(case=0x13 - Copy string and replace @ with space, work_offset=ExtData[1]->WorkLocal[4], string="Miyu@Kupovella")
  3: 0x01B9 [0xB5] SET_EVENT_ENTITY_NAME: Change EventEntity name to ExtData[1]->WorkLocal[4]
  4: 0x01BD [0x00] END_REQSTACK()
```

### Event 65535.29

#### Metadata

| Field        | Value    |
|--------------|----------|
| Entrypoint   | 0x01BE   |
| Data Size    | 22 bytes |
| Instructions | 5        |

```
      00 01 02 03 04 05 06 07  08 09 0A 0B 0C 0D 0E 0F
      -- -- -- -- -- -- -- --  -- -- -- -- -- -- -- --
01B0:                                            B6 00                ..
01C0: 0A 80 37 0B 80 0B 80 0B  80 0B 80 22 01 2F 01 F8  ..7........"./..
01D0: FF FF 7F 00                                       ....            
```

#### Opcodes

```
  0: 0x01BE [0xB6] ENTITY_APPEARANCE_HANDLER(case=Hair style, value=50*)
  1: 0x01C2 [0x37] UPDATE_EVENT_POSITION_AND_DIR: x=0.000*, z=0.000*, y=0.000*, direction=0.0°*
  2: 0x01CB [0x22] ENTITY_HIDE_FLAG(enabled=0x01)
  3: 0x01CD [0x2F] EventEntity->Render.Flags0 |= 0x80000 // Bit 19
  4: 0x01D3 [0x00] END_REQSTACK()
```

### Event 65535.30

#### Metadata

| Field        | Value    |
|--------------|----------|
| Entrypoint   | 0x01D4   |
| Data Size    | 10 bytes |
| Instructions | 2        |

```
      00 01 02 03 04 05 06 07  08 09 0A 0B 0C 0D 0E 0F
      -- -- -- -- -- -- -- --  -- -- -- -- -- -- -- --
01D0:             37 0C 80 0D  80 0E 80 0F 80 00            7.........  
```

#### Opcodes

```
  0: 0x01D4 [0x37] UPDATE_EVENT_POSITION_AND_DIR: x=-9.886*, z=-13.121*, y=1.239*, direction=315.0°*
  1: 0x01DD [0x00] END_REQSTACK()
```

### Event 65535.31

#### Metadata

| Field        | Value    |
|--------------|----------|
| Entrypoint   | 0x01DE   |
| Data Size    | 10 bytes |
| Instructions | 2        |

```
      00 01 02 03 04 05 06 07  08 09 0A 0B 0C 0D 0E 0F
      -- -- -- -- -- -- -- --  -- -- -- -- -- -- -- --
01D0:                                            37 10                7.
01E0: 80 11 80 12 80 13 80 00                           ........        
```

#### Opcodes

```
  0: 0x01DE [0x37] UPDATE_EVENT_POSITION_AND_DIR: x=-7.787*, z=-12.546*, y=1.092*, direction=122.3°*
  1: 0x01E7 [0x00] END_REQSTACK()
```

### Event 65535.32

#### Metadata

| Field        | Value    |
|--------------|----------|
| Entrypoint   | 0x01E8   |
| Data Size    | 10 bytes |
| Instructions | 2        |

```
      00 01 02 03 04 05 06 07  08 09 0A 0B 0C 0D 0E 0F
      -- -- -- -- -- -- -- --  -- -- -- -- -- -- -- --
01E0:                          37 14 80 15 80 16 80 13          7.......
01F0: 80 00                                             ..              
```

#### Opcodes

```
  0: 0x01E8 [0x37] UPDATE_EVENT_POSITION_AND_DIR: x=-11.752*, z=-17.150*, y=1.499*, direction=122.3°*
  1: 0x01F1 [0x00] END_REQSTACK()
```

### Event 65535.33

#### Metadata

| Field        | Value    |
|--------------|----------|
| Entrypoint   | 0x01F2   |
| Data Size    | 14 bytes |
| Instructions | 4        |

```
      00 01 02 03 04 05 06 07  08 09 0A 0B 0C 0D 0E 0F
      -- -- -- -- -- -- -- --  -- -- -- -- -- -- -- --
01F0:       32 17 80 1F 00 18  80 19 80 1A 80 1F 01 00    2.............
```

#### Opcodes

```
  0: 0x01F2 [0x32] ExtData[1]->MainSpeed = 13* * 0.1
  1: 0x01F5 [0x1F] MOVE_ENTITY: EventEntity moves to X=-8.675*, Z=-12.205*, Y=1.055*
  2: 0x01FD [0x1F] MOVE_ENTITY: Update entity position (mode=1)
  3: 0x01FF [0x00] END_REQSTACK()
```

### Event 65535.34

#### Metadata

| Field        | Value    |
|--------------|----------|
| Entrypoint   | 0x0200   |
| Data Size    | 14 bytes |
| Instructions | 4        |

```
      00 01 02 03 04 05 06 07  08 09 0A 0B 0C 0D 0E 0F
      -- -- -- -- -- -- -- --  -- -- -- -- -- -- -- --
0200: 32 17 80 1F 00 1B 80 1C  80 1D 80 1F 01 00        2.............  
```

#### Opcodes

```
  0: 0x0200 [0x32] ExtData[1]->MainSpeed = 13* * 0.1
  1: 0x0203 [0x1F] MOVE_ENTITY: EventEntity moves to X=-1.884*, Z=-1.586*, Y=0.383*
  2: 0x020B [0x1F] MOVE_ENTITY: Update entity position (mode=1)
  3: 0x020D [0x00] END_REQSTACK()
```

### Event 65535.35

#### Metadata

| Field        | Value    |
|--------------|----------|
| Entrypoint   | 0x020E   |
| Data Size    | 14 bytes |
| Instructions | 4        |

```
      00 01 02 03 04 05 06 07  08 09 0A 0B 0C 0D 0E 0F
      -- -- -- -- -- -- -- --  -- -- -- -- -- -- -- --
0200:                                            32 17                2.
0210: 80 1F 00 1E 80 1F 80 20  80 1F 01 00              ....... ....    
```

#### Opcodes

```
  0: 0x020E [0x32] ExtData[1]->MainSpeed = 13* * 0.1
  1: 0x0211 [0x1F] MOVE_ENTITY: EventEntity moves to X=-1.850*, Z=-3.218*, Y=0.396*
  2: 0x0219 [0x1F] MOVE_ENTITY: Update entity position (mode=1)
  3: 0x021B [0x00] END_REQSTACK()
```

### Event 65535.36

#### Metadata

| Field        | Value    |
|--------------|----------|
| Entrypoint   | 0x021C   |
| Data Size    | 10 bytes |
| Instructions | 2        |

```
      00 01 02 03 04 05 06 07  08 09 0A 0B 0C 0D 0E 0F
      -- -- -- -- -- -- -- --  -- -- -- -- -- -- -- --
0210:                                      37 1E 80 1F              7...
0220: 80 20 80 21 80 00                                 . .!..          
```

#### Opcodes

```
  0: 0x021C [0x37] UPDATE_EVENT_POSITION_AND_DIR: x=-1.850*, z=-3.218*, y=0.396*, direction=358.8°*
  1: 0x0225 [0x00] END_REQSTACK()
```

### Event 65535.37

#### Metadata

| Field        | Value    |
|--------------|----------|
| Entrypoint   | 0x0226   |
| Data Size    | 10 bytes |
| Instructions | 2        |

```
      00 01 02 03 04 05 06 07  08 09 0A 0B 0C 0D 0E 0F
      -- -- -- -- -- -- -- --  -- -- -- -- -- -- -- --
0220:                   37 22  80 23 80 24 80 25 80 00        7".#.$.%..
```

#### Opcodes

```
  0: 0x0226 [0x37] UPDATE_EVENT_POSITION_AND_DIR: x=7.558*, z=11.757*, y=-0.433*, direction=16.7°*
  1: 0x022F [0x00] END_REQSTACK()
```

### Event 65535.38

#### Metadata

| Field        | Value    |
|--------------|----------|
| Entrypoint   | 0x0230   |
| Data Size    | 24 bytes |
| Instructions | 8        |

```
      00 01 02 03 04 05 06 07  08 09 0A 0B 0C 0D 0E 0F
      -- -- -- -- -- -- -- --  -- -- -- -- -- -- -- --
0230: 1E 5D 80 11 01 6F 70 1C  26 80 32 17 80 1F 00 27  .]...op.&.2....'
0240: 80 28 80 29 80 1F 01 00                           .(.)....        
```

#### Opcodes

```
  0: 0x0230 [0x1E] EventEntity looks at Monsieur Kupont (ID: 17924189/0x0111805D) and starts talking
  1: 0x0235 [0x6F] WAIT_FRAME_DELAY: Yield until WaitTime reaches zero
  2: 0x0236 [0x70] WAIT_ENTITY_RENDER_FLAG: Wait while EventEntity->Render.Flags3 bit 2 is set (cancel turn if not)
  3: 0x0237 [0x1C] WAIT(20* ticks)
  4: 0x023A [0x32] ExtData[1]->MainSpeed = 13* * 0.1
  5: 0x023D [0x1F] MOVE_ENTITY: EventEntity moves to X=8.564*, Z=11.225*, Y=-0.333*
  6: 0x0245 [0x1F] MOVE_ENTITY: Update entity position (mode=1)
  7: 0x0247 [0x00] END_REQSTACK()
```

### Event 65535.39

#### Metadata

| Field        | Value    |
|--------------|----------|
| Entrypoint   | 0x0248   |
| Data Size    | 43 bytes |
| Instructions | 7        |

```
      00 01 02 03 04 05 06 07  08 09 0A 0B 0C 0D 0E 0F
      -- -- -- -- -- -- -- --  -- -- -- -- -- -- -- --
0240:                          29 08 5C 80 11 01 14 29          ).\....)
0250: 08 5C 80 11 01 15 29 08  5C 80 11 01 0C 29 08 5C  .\....).\....).\
0260: 80 11 01 0D 29 08 5C 80  11 01 08 29 08 5C 80 11  ....).\....).\..
0270: 01 09 00                                          ...             
```

#### Opcodes

```
  0: 0x0248 [0x29] REQ_SET_WAIT(priority=0x08, entity_id=DIRECTOR2 (ID: 17924188/0x0111805C), tag_num=0x14)
  1: 0x024F [0x29] REQ_SET_WAIT(priority=0x08, entity_id=DIRECTOR2 (ID: 17924188/0x0111805C), tag_num=0x15)
  2: 0x0256 [0x29] REQ_SET_WAIT(priority=0x08, entity_id=DIRECTOR2 (ID: 17924188/0x0111805C), tag_num=0x0C)
  3: 0x025D [0x29] REQ_SET_WAIT(priority=0x08, entity_id=DIRECTOR2 (ID: 17924188/0x0111805C), tag_num=0x0D)
  4: 0x0264 [0x29] REQ_SET_WAIT(priority=0x08, entity_id=DIRECTOR2 (ID: 17924188/0x0111805C), tag_num=0x08)
  5: 0x026B [0x29] REQ_SET_WAIT(priority=0x08, entity_id=DIRECTOR2 (ID: 17924188/0x0111805C), tag_num=0x09)
  6: 0x0272 [0x00] END_REQSTACK()
```

### Event 2037

#### Metadata

| Field        | Value   |
|--------------|---------|
| Entrypoint   | 0x0273  |
| Data Size    | 1 bytes |
| Instructions | 1       |

```
      00 01 02 03 04 05 06 07  08 09 0A 0B 0C 0D 0E 0F
      -- -- -- -- -- -- -- --  -- -- -- -- -- -- -- --
0270:          00                                          .            
```

#### Opcodes

```
  0: 0x0273 [0x00] END_REQSTACK()
```

### Event 2039

#### Metadata

| Field        | Value   |
|--------------|---------|
| Entrypoint   | 0x0274  |
| Data Size    | 1 bytes |
| Instructions | 1       |

```
      00 01 02 03 04 05 06 07  08 09 0A 0B 0C 0D 0E 0F
      -- -- -- -- -- -- -- --  -- -- -- -- -- -- -- --
0270:             00                                        .           
```

#### Opcodes

```
  0: 0x0274 [0x00] END_REQSTACK()
```

### Event 65535.40

#### Metadata

| Field        | Value    |
|--------------|----------|
| Entrypoint   | 0x0275   |
| Data Size    | 10 bytes |
| Instructions | 2        |

```
      00 01 02 03 04 05 06 07  08 09 0A 0B 0C 0D 0E 0F
      -- -- -- -- -- -- -- --  -- -- -- -- -- -- -- --
0270:                37 27 80  28 80 29 80 2A 80 00          7'.(.).*.. 
```

#### Opcodes

```
  0: 0x0275 [0x37] UPDATE_EVENT_POSITION_AND_DIR: x=8.564*, z=11.225*, y=-0.333*, direction=316.5°*
  1: 0x027E [0x00] END_REQSTACK()
```

### Event 65535.41

#### Metadata

| Field        | Value    |
|--------------|----------|
| Entrypoint   | 0x027F   |
| Data Size    | 10 bytes |
| Instructions | 2        |

```
      00 01 02 03 04 05 06 07  08 09 0A 0B 0C 0D 0E 0F
      -- -- -- -- -- -- -- --  -- -- -- -- -- -- -- --
0270:                                               37                 7
0280: 2B 80 2C 80 2D 80 2E 80  00                       +.,.-....       
```

#### Opcodes

```
  0: 0x027F [0x37] UPDATE_EVENT_POSITION_AND_DIR: x=8.443*, z=9.371*, y=-0.087*, direction=122.7°*
  1: 0x0288 [0x00] END_REQSTACK()
```

### Event 65535.42

#### Metadata

| Field        | Value    |
|--------------|----------|
| Entrypoint   | 0x0289   |
| Data Size    | 14 bytes |
| Instructions | 4        |

```
      00 01 02 03 04 05 06 07  08 09 0A 0B 0C 0D 0E 0F
      -- -- -- -- -- -- -- --  -- -- -- -- -- -- -- --
0280:                             32 17 80 1F 00 2F 80           2..../.
0290: 30 80 31 80 1F 01 00                              0.1....         
```

#### Opcodes

```
  0: 0x0289 [0x32] ExtData[1]->MainSpeed = 13* * 0.1
  1: 0x028C [0x1F] MOVE_ENTITY: EventEntity moves to X=9.785*, Z=9.452*, Y=-0.097*
  2: 0x0294 [0x1F] MOVE_ENTITY: Update entity position (mode=1)
  3: 0x0296 [0x00] END_REQSTACK()
```

### Event 2065

#### Metadata

| Field        | Value      |
|--------------|------------|
| Entrypoint   | 0x0297     |
| Data Size    | 8285 bytes |
| Instructions | 1048       |

```
      00 01 02 03 04 05 06 07  08 09 0A 0B 0C 0D 0E 0F
      -- -- -- -- -- -- -- --  -- -- -- -- -- -- -- --
0290:                      42  46 01 03 00 00 05 10 03         BF.......
02A0: 01 00 06 10 45 32 80 F0  FF FF 7F F0 FF FF 7F 66  ....E2.........f
02B0: 64 6F 31 0B 80 55 32 80  F0 FF FF 7F F0 FF FF 7F  do1..U2.........
02C0: 66 64 6F 31 38 33 80 4E  00 F0 FF FF 7F 2F 00 5B  fdo183.N...../.[
02D0: 80 11 01 2F 00 51 80 11  01 4E 00 5B 80 11 01 29  .../.Q...N.[...)
02E0: 08 51 80 11 01 24 4E 01  51 80 11 01 4E 01 1D 80  .Q...$N.Q...N...
02F0: 11 01 92 01 1D 80 11 01  92 01 5B 80 11 01 92 01  ..........[.....
0300: 20 80 11 01 92 01 21 80  11 01 92 01 22 80 11 01   .....!....."...
0310: 92 01 51 80 11 01 92 01  89 80 11 01 92 01 8A 80  ..Q.............
0320: 11 01 92 01 8B 80 11 01  92 01 8C 80 11 01 92 01  ................
0330: 8D 80 11 01 92 01 8E 80  11 01 4E 01 58 80 11 01  ..........N.X...
0340: 4E 01 57 80 11 01 4E 01  59 80 11 01 4E 01 6A 80  N.W...N.Y...N.j.
0350: 11 01 4E 01 6B 80 11 01  4E 01 6C 80 11 01 4E 01  ..N.k...N.l...N.
0360: 7D 80 11 01 4E 01 88 80  11 01 BA 88 80 11 01 34  }...N..........4
0370: 80 34 80 0B 80 0B 80 4E  01 89 80 11 01 4E 01 8A  .4.....N.....N..
0380: 80 11 01 4E 01 8B 80 11  01 4E 01 8C 80 11 01 4E  ...N.....N.....N
0390: 01 8D 80 11 01 80 F0 FF  FF 7F 80 5B 80 11 01 37  ...........[...7
03A0: 35 80 36 80 37 80 38 80  29 08 F0 FF FF 7F 4F 29  5.6.7.8.).....O)
03B0: 08 5B 80 11 01 30 29 08  F0 FF FF 7F 0A 29 08 1D  .[...0)......)..
03C0: 80 11 01 0F 4A F0 FF FF  7F 5B 80 11 01 4A 5B 80  ....J....[...J[.
03D0: 11 01 F0 FF FF 7F 6F 76  F0 FF FF 7F 6F 76 5B 80  ......ov....ov[.
03E0: 11 01 45 39 80 F8 FF FF  7F F8 FF FF 7F 73 30 35  ..E9.........s05
03F0: 30 0B 80 45 32 80 F0 FF  FF 7F F0 FF FF 7F 66 64  0..E2.........fd
0400: 69 31 0B 80 55 32 80 F0  FF FF 7F F0 FF FF 7F 66  i1..U2.........f
0410: 64 69 31 1C 3A 80 52 39  80 F8 FF FF 7F F8 FF FF  di1.:.R9........
0420: 7F 73 30 35 30 45 39 80  F8 FF FF 7F F8 FF FF 7F  .s050E9.........
0430: 73 30 35 31 0B 80 1C 3A  80 27 08 5B 80 11 01 31  s051...:.'.[...1
0440: 52 39 80 F8 FF FF 7F F8  FF FF 7F 73 30 35 31 02  R9.........s051.
0450: 09 10 3B 80 00 6B 04 45  39 80 F8 FF FF 7F F8 FF  ..;..k.E9.......
0460: FF 7F 73 30 35 32 0B 80  01 98 04 02 09 10 3C 80  ..s052........<.
0470: 00 87 04 45 39 80 F8 FF  FF 7F F8 FF FF 7F 73 30  ...E9.........s0
0480: 35 32 0B 80 01 98 04 45  39 80 F8 FF FF 7F F8 FF  52.....E9.......
0490: FF 7F 73 30 30 30 0B 80  2B 5B 80 11 01 3D 80 23  ..s000..+[...=.#
04A0: 2A 08 5B 80 11 01 02 09  10 3B 80 00 C0 04 52 39  *.[......;....R9
04B0: 80 F8 FF FF 7F F8 FF FF  7F 73 30 35 32 01 E9 04  .........s052...
04C0: 02 09 10 3C 80 00 DA 04  52 39 80 F8 FF FF 7F F8  ...<....R9......
04D0: FF FF 7F 73 30 35 32 01  E9 04 52 39 80 F8 FF FF  ...s052...R9....
04E0: 7F F8 FF FF 7F 73 30 30  30 45 39 80 F8 FF FF 7F  .....s000E9.....
04F0: F8 FF FF 7F 73 30 30 31  0B 80 29 08 5B 80 11 01  ....s001..).[...
0500: 01 2B 5B 80 11 01 3E 80  1C 26 80 4B F0 FF FF 7F  .+[...>..&.K....
0510: 3F 80 6F 76 F0 FF FF 7F  23 4A F0 FF FF 7F 5B 80  ?.ov....#J....[.
0520: 11 01 2B 5B 80 11 01 40  80 23 29 08 5B 80 11 01  ..+[...@.#).[...
0530: 02 6F 76 F0 FF FF 7F 29  08 5B 80 11 01 03 6E F0  .ov....).[....n.
0540: FF FF 7F 41 80 99 F0 FF  FF 7F 1C 42 80 52 39 80  ...A.......B.R9.
0550: F8 FF FF 7F F8 FF FF 7F  73 30 30 31 45 39 80 F8  ........s001E9..
0560: FF FF 7F F8 FF FF 7F 73  30 30 32 0B 80 29 08 5B  .......s002..).[
0570: 80 11 01 04 29 08 5B 80  11 01 09 2B 5B 80 11 01  ....).[....+[...
0580: 43 80 23 29 08 5B 80 11  01 0A 52 39 80 F8 FF FF  C.#).[....R9....
0590: 7F F8 FF FF 7F 73 30 30  32 45 39 80 F8 FF FF 7F  .....s002E9.....
05A0: F8 FF FF 7F 73 30 30 39  0B 80 29 08 F0 FF FF 7F  ....s009..).....
05B0: 48 1C 44 80 5D 0B 80 45  80 45 32 80 F0 FF FF 7F  H.D.]..E.E2.....
05C0: F0 FF FF 7F 66 64 6F 31  0B 80 55 32 80 F0 FF FF  ....fdo1..U2....
05D0: 7F F0 FF FF 7F 66 64 6F  31 29 08 F0 FF FF 7F 49  .....fdo1).....I
05E0: 48 46 80 23 7B 5B 80 11  01 29 08 5B 80 11 01 05  HF.#{[...).[....
05F0: 29 08 5B 80 11 01 06 81  00 5B 80 11 01 52 39 80  ).[......[...R9.
0600: F8 FF FF 7F F8 FF FF 7F  73 30 30 39 45 39 80 F8  ........s009E9..
0610: FF FF 7F F8 FF FF 7F 73  30 30 33 0B 80 45 32 80  .......s003..E2.
0620: F0 FF FF 7F F0 FF FF 7F  66 64 69 31 0B 80 55 32  ........fdi1..U2
0630: 80 F0 FF FF 7F F0 FF FF  7F 66 64 69 31 1C 3A 80  .........fdi1.:.
0640: 52 39 80 F8 FF FF 7F F8  FF FF 7F 73 30 30 33 45  R9.........s003E
0650: 39 80 F8 FF FF 7F F8 FF  FF 7F 73 30 30 34 0B 80  9.........s004..
0660: 1C 47 80 2B 5B 80 11 01  48 80 23 52 39 80 F8 FF  .G.+[...H.#R9...
0670: FF 7F F8 FF FF 7F 73 30  30 34 02 09 10 3B 80 00  ......s004...;..
0680: 96 06 45 39 80 F8 FF FF  7F F8 FF FF 7F 73 30 35  ..E9.........s05
0690: 33 0B 80 01 C3 06 02 09  10 3C 80 00 B2 06 45 39  3........<....E9
06A0: 80 F8 FF FF 7F F8 FF FF  7F 73 30 35 33 0B 80 01  .........s053...
06B0: C3 06 45 39 80 F8 FF FF  7F F8 FF FF 7F 73 30 30  ..E9.........s00
06C0: 35 0B 80 24 49 80 0B 80  0B 80 25 02 00 10 0B 80  5..$I.....%.....
06D0: 00 6F 07 29 08 F0 FF FF  7F 48 1C 42 80 29 08 5B  .o.).....H.B.).[
06E0: 80 11 01 07 29 08 5B 80  11 01 08 29 08 F0 FF FF  ....).[....)....
06F0: 7F 49 81 01 5B 80 11 01  79 00 5B 80 11 01 F0 FF  .I..[...y.[.....
0700: FF 7F 1C 42 80 02 09 10  3B 80 00 1F 07 52 39 80  ...B....;....R9.
0710: F8 FF FF 7F F8 FF FF 7F  73 30 35 33 01 48 07 02  ........s053.H..
0720: 09 10 3C 80 00 39 07 52  39 80 F8 FF FF 7F F8 FF  ..<..9.R9.......
0730: FF 7F 73 30 35 33 01 48  07 52 39 80 F8 FF FF 7F  ..s053.H.R9.....
0740: F8 FF FF 7F 73 30 30 35  45 39 80 F8 FF FF 7F F8  ....s005E9......
0750: FF FF 7F 73 30 30 36 0B  80 7B 5B 80 11 01 27 08  ...s006..{[...'.
0760: 5B 80 11 01 32 2B 5B 80  11 01 4A 80 01 83 08 02  [...2+[...J.....
0770: 00 10 4B 80 00 13 08 29  08 F0 FF FF 7F 48 1C 42  ..K....).....H.B
0780: 80 29 08 5B 80 11 01 07  29 08 5B 80 11 01 08 29  .).[....).[....)
0790: 08 F0 FF FF 7F 49 81 01  5B 80 11 01 79 00 5B 80  .....I..[...y.[.
07A0: 11 01 F0 FF FF 7F 1C 42  80 02 09 10 3B 80 00 C3  .......B....;...
07B0: 07 52 39 80 F8 FF FF 7F  F8 FF FF 7F 73 30 35 33  .R9.........s053
07C0: 01 EC 07 02 09 10 3C 80  00 DD 07 52 39 80 F8 FF  ......<....R9...
07D0: FF 7F F8 FF FF 7F 73 30  35 33 01 EC 07 52 39 80  ......s053...R9.
07E0: F8 FF FF 7F F8 FF FF 7F  73 30 30 35 45 39 80 F8  ........s005E9..
07F0: FF FF 7F F8 FF FF 7F 73  30 30 36 0B 80 7B 5B 80  .......s006..{[.
0800: 11 01 27 08 5B 80 11 01  32 2B 5B 80 11 01 4C 80  ..'.[...2+[...L.
0810: 01 83 08 02 00 10 4D 80  00 83 08 29 08 F0 FF FF  ......M....)....
0820: 7F 48 1C 42 80 29 08 5B  80 11 01 07 29 08 5B 80  .H.B.).[....).[.
0830: 11 01 08 29 08 F0 FF FF  7F 49 81 01 5B 80 11 01  ...).....I..[...
0840: 79 00 5B 80 11 01 F0 FF  FF 7F 1C 42 80 52 39 80  y.[........B.R9.
0850: F8 FF FF 7F F8 FF FF 7F  73 30 30 35 45 39 80 F8  ........s005E9..
0860: FF FF 7F F8 FF FF 7F 73  30 30 36 0B 80 7B 5B 80  .......s006..{[.
0870: 11 01 27 08 5B 80 11 01  32 2B 5B 80 11 01 4E 80  ..'.[...2+[...N.
0880: 01 83 08 1C 0A 80 4A F0  FF FF 7F 5B 80 11 01 6F  ......J....[...o
0890: 76 F0 FF FF 7F 23 2A 08  5B 80 11 01 7B 5B 80 11  v....#*.[...{[..
08A0: 01 4B 5B 80 11 01 3F 80  6F 76 5B 80 11 01 52 39  .K[...?.ov[...R9
08B0: 80 F8 FF FF 7F F8 FF FF  7F 73 30 30 36 45 39 80  .........s006E9.
08C0: F8 FF FF 7F F8 FF FF 7F  73 30 30 37 0B 80 4E 00  ........s007..N.
08D0: 1D 80 11 01 29 08 5B 80  11 01 09 2B 5B 80 11 01  ....).[....+[...
08E0: 4F 80 5C 00 50 80 5C 01  50 80 9A 5D 51 80 4B 80  O.\.P.\.P..]Q.K.
08F0: 23 80 1D 80 11 01 52 39  80 F8 FF FF 7F F8 FF FF  #.....R9........
0900: 7F 73 30 30 37 02 09 10  3B 80 00 21 09 45 39 80  .s007...;..!.E9.
0910: F8 FF FF 7F F8 FF FF 7F  73 30 35 34 0B 80 01 4E  ........s054...N
0920: 09 02 09 10 3C 80 00 3D  09 45 39 80 F8 FF FF 7F  ....<..=.E9.....
0930: F8 FF FF 7F 73 30 35 34  0B 80 01 4E 09 45 39 80  ....s054...N.E9.
0940: F8 FF FF 7F F8 FF FF 7F  73 30 30 38 0B 80 79 00  ........s008..y.
0950: 1D 80 11 01 F0 FF FF 7F  6E F0 FF FF 7F 52 80 99  ........n....R..
0960: F0 FF FF 7F 1C 47 80 79  00 5B 80 11 01 1D 80 11  .....G.y.[......
0970: 01 27 08 1D 80 11 01 10  1C 44 80 4A F0 FF FF 7F  .'.......D.J....
0980: 1D 80 11 01 6F 76 F0 FF  FF 7F 29 08 5B 80 11 01  ....ov....).[...
0990: 0A 1C 44 80 02 09 10 3B  80 00 AE 09 52 39 80 F8  ..D....;....R9..
09A0: FF FF 7F F8 FF FF 7F 73  30 35 34 01 D7 09 02 09  .......s054.....
09B0: 10 3C 80 00 C8 09 52 39  80 F8 FF FF 7F F8 FF FF  .<....R9........
09C0: 7F 73 30 35 34 01 D7 09  52 39 80 F8 FF FF 7F F8  .s054...R9......
09D0: FF FF 7F 73 30 30 38 45  39 80 F8 FF FF 7F F8 FF  ...s008E9.......
09E0: FF 7F 73 30 31 30 0B 80  79 00 1D 80 11 01 F0 FF  ..s010..y.......
09F0: FF 7F 2A 08 1D 80 11 01  4A 1D 80 11 01 5B 80 11  ..*.....J....[..
0A00: 01 6F 76 1D 80 11 01 29  08 1D 80 11 01 43 2B 1D  .ov....).....C+.
0A10: 80 11 01 53 80 23 29 08  1D 80 11 01 44 7B 5B 80  ...S.#).....D{[.
0A20: 11 01 52 39 80 F8 FF FF  7F F8 FF FF 7F 73 30 31  ..R9.........s01
0A30: 30 02 09 10 3B 80 00 4D  0A 45 39 80 F8 FF FF 7F  0...;..M.E9.....
0A40: F8 FF FF 7F 73 30 35 35  0B 80 01 7A 0A 02 09 10  ....s055...z....
0A50: 3C 80 00 69 0A 45 39 80  F8 FF FF 7F F8 FF FF 7F  <..i.E9.........
0A60: 73 30 35 35 0B 80 01 7A  0A 45 39 80 F8 FF FF 7F  s055...z.E9.....
0A70: F8 FF FF 7F 73 30 31 31  0B 80 29 08 1D 80 11 01  ....s011..).....
0A80: 4B 2B 1D 80 11 01 54 80  1C 55 80 79 00 F0 FF FF  K+....T..U.y....
0A90: 7F 5B 80 11 01 23 29 08  1D 80 11 01 4C 02 09 10  .[...#).....L...
0AA0: 3B 80 00 B7 0A 52 39 80  F8 FF FF 7F F8 FF FF 7F  ;....R9.........
0AB0: 73 30 35 35 01 E0 0A 02  09 10 3C 80 00 D1 0A 52  s055......<....R
0AC0: 39 80 F8 FF FF 7F F8 FF  FF 7F 73 30 35 35 01 E0  9.........s055..
0AD0: 0A 52 39 80 F8 FF FF 7F  F8 FF FF 7F 73 30 31 31  .R9.........s011
0AE0: 45 39 80 F8 FF FF 7F F8  FF FF 7F 73 30 31 33 0B  E9.........s013.
0AF0: 80 79 00 F0 FF FF 7F 1D  80 11 01 79 00 5B 80 11  .y.........y.[..
0B00: 01 1D 80 11 01 29 08 1D  80 11 01 51 2B 1D 80 11  .....).....Q+...
0B10: 01 56 80 23 29 08 1D 80  11 01 52 52 39 80 F8 FF  .V.#).....RR9...
0B20: FF 7F F8 FF FF 7F 73 30  31 33 45 39 80 F8 FF FF  ......s013E9....
0B30: 7F F8 FF FF 7F 73 30 31  32 0B 80 79 00 1D 80 11  .....s012..y....
0B40: 01 F0 FF FF 7F 6E F0 FF  FF 7F 33 80 99 F0 FF FF  .....n....3.....
0B50: 7F 1C 42 80 79 00 5B 80  11 01 F0 FF FF 7F 27 08  ..B.y.[.......'.
0B60: 5B 80 11 01 33 2B 5B 80  11 01 57 80 1C 58 80 79  [...3+[...W..X.y
0B70: 00 F0 FF FF 7F 5B 80 11  01 4A 1D 80 11 01 5B 80  .....[...J....[.
0B80: 11 01 23 29 08 5B 80 11  01 01 2A 08 5B 80 11 01  ..#).[....*.[...
0B90: 52 39 80 F8 FF FF 7F F8  FF FF 7F 73 30 31 32 45  R9.........s012E
0BA0: 39 80 F8 FF FF 7F F8 FF  FF 7F 73 30 32 33 0B 80  9.........s023..
0BB0: 29 08 5B 80 11 01 01 2B  5B 80 11 01 59 80 1C 44  ).[....+[...Y..D
0BC0: 80 23 52 39 80 F8 FF FF  7F F8 FF FF 7F 73 30 32  .#R9.........s02
0BD0: 33 45 39 80 F8 FF FF 7F  F8 FF FF 7F 73 30 31 34  3E9.........s014
0BE0: 0B 80 2B 5B 80 11 01 5A  80 23 2B 5B 80 11 01 5B  ..+[...Z.#+[...[
0BF0: 80 23 29 08 5B 80 11 01  02 52 39 80 F8 FF FF 7F  .#).[....R9.....
0C00: F8 FF FF 7F 73 30 31 34  02 09 10 3B 80 00 24 0C  ....s014...;..$.
0C10: 45 39 80 F8 FF FF 7F F8  FF FF 7F 73 30 35 36 0B  E9.........s056.
0C20: 80 01 51 0C 02 09 10 3C  80 00 40 0C 45 39 80 F8  ..Q....<..@.E9..
0C30: FF FF 7F F8 FF FF 7F 73  30 35 36 0B 80 01 51 0C  .......s056...Q.
0C40: 45 39 80 F8 FF FF 7F F8  FF FF 7F 73 30 31 35 0B  E9.........s015.
0C50: 80 29 08 5B 80 11 01 03  79 00 F0 FF FF 7F 1D 80  .).[....y.......
0C60: 11 01 4A 1D 80 11 01 F0  FF FF 7F 7B 5B 80 11 01  ..J........{[...
0C70: 81 00 5B 80 11 01 6F 76  1D 80 11 01 29 08 1D 80  ..[...ov....)...
0C80: 11 01 43 2B 1D 80 11 01  5C 80 23 29 08 1D 80 11  ..C+....\.#)....
0C90: 01 44 4A 1D 80 11 01 5B  80 11 01 6F 76 1D 80 11  .DJ....[...ov...
0CA0: 01 29 08 5B 80 11 01 05  29 08 1D 80 11 01 39 2B  .).[....).....9+
0CB0: 1D 80 11 01 5D 80 23 29  08 1D 80 11 01 3A 02 09  ....].#).....:..
0CC0: 10 3B 80 00 D8 0C 52 39  80 F8 FF FF 7F F8 FF FF  .;....R9........
0CD0: 7F 73 30 35 36 01 01 0D  02 09 10 3C 80 00 F2 0C  .s056......<....
0CE0: 52 39 80 F8 FF FF 7F F8  FF FF 7F 73 30 35 36 01  R9.........s056.
0CF0: 01 0D 52 39 80 F8 FF FF  7F F8 FF FF 7F 73 30 31  ..R9.........s01
0D00: 35 45 39 80 F8 FF FF 7F  F8 FF FF 7F 73 30 31 36  5E9.........s016
0D10: 0B 80 29 08 1D 80 11 01  3B 2B 5B 80 11 01 5E 80  ..).....;+[...^.
0D20: 23 29 08 1D 80 11 01 3C  2B 5B 80 11 01 5F 80 52  #).....<+[..._.R
0D30: 39 80 F8 FF FF 7F F8 FF  FF 7F 73 30 31 36 02 09  9.........s016..
0D40: 10 3B 80 00 5A 0D 45 39  80 F8 FF FF 7F F8 FF FF  .;..Z.E9........
0D50: 7F 73 30 35 37 0B 80 01  87 0D 02 09 10 3C 80 00  .s057........<..
0D60: 76 0D 45 39 80 F8 FF FF  7F F8 FF FF 7F 73 30 35  v.E9.........s05
0D70: 37 0B 80 01 87 0D 45 39  80 F8 FF FF 7F F8 FF FF  7.....E9........
0D80: 7F 73 30 31 37 0B 80 29  08 1D 80 11 01 2D 1C 26  .s017..).....-.&
0D90: 80 6E F0 FF FF 7F 60 80  99 F0 FF FF 7F 1C 58 80  .n....`.......X.
0DA0: 23 29 08 1D 80 11 01 2E  29 08 5B 80 11 01 06 29  #)......).[....)
0DB0: 08 1D 80 11 01 2F 02 09  10 3B 80 00 D0 0D 52 39  ...../...;....R9
0DC0: 80 F8 FF FF 7F F8 FF FF  7F 73 30 35 37 01 F9 0D  .........s057...
0DD0: 02 09 10 3C 80 00 EA 0D  52 39 80 F8 FF FF 7F F8  ...<....R9......
0DE0: FF FF 7F 73 30 35 37 01  F9 0D 52 39 80 F8 FF FF  ...s057...R9....
0DF0: 7F F8 FF FF 7F 73 30 31  37 45 39 80 F8 FF FF 7F  .....s017E9.....
0E00: F8 FF FF 7F 73 30 31 39  0B 80 2B 1D 80 11 01 61  ....s019..+....a
0E10: 80 23 29 08 1D 80 11 01  30 79 00 F0 FF FF 7F 1D  .#).....0y......
0E20: 80 11 01 7B 1D 80 11 01  29 08 1D 80 11 01 4D 29  ...{....).....M)
0E30: 08 1D 80 11 01 4E 29 08  1D 80 11 01 4F 52 39 80  .....N).....OR9.
0E40: F8 FF FF 7F F8 FF FF 7F  73 30 31 39 02 09 10 3B  ........s019...;
0E50: 80 00 68 0E 45 39 80 F8  FF FF 7F F8 FF FF 7F 73  ..h.E9.........s
0E60: 30 35 38 0B 80 01 95 0E  02 09 10 3C 80 00 84 0E  058........<....
0E70: 45 39 80 F8 FF FF 7F F8  FF FF 7F 73 30 35 38 0B  E9.........s058.
0E80: 80 01 95 0E 45 39 80 F8  FF FF 7F F8 FF FF 7F 73  ....E9.........s
0E90: 30 31 38 0B 80 2B 1D 80  11 01 62 80 23 29 08 1D  018..+....b.#)..
0EA0: 80 11 01 50 4A 1D 80 11  01 F0 FF FF 7F 6F 76 1D  ...PJ........ov.
0EB0: 80 11 01 29 08 1D 80 11  01 45 2B 1D 80 11 01 63  ...).....E+....c
0EC0: 80 23 29 08 1D 80 11 01  46 29 08 5B 80 11 01 07  .#).....F).[....
0ED0: 03 03 00 0B 80 06 02 00  02 02 00 0B 80 00 FB 11  ................
0EE0: 24 64 80 0B 80 03 00 25  02 00 10 0B 80 00 07 10  $d.....%........
0EF0: 6E F0 FF FF 7F 41 80 99  F0 FF FF 7F 1C 42 80 02  n....A.......B..
0F00: 09 10 3B 80 00 19 0F 52  39 80 F8 FF FF 7F F8 FF  ..;....R9.......
0F10: FF 7F 73 30 35 38 01 42  0F 02 09 10 3C 80 00 33  ..s058.B....<..3
0F20: 0F 52 39 80 F8 FF FF 7F  F8 FF FF 7F 73 30 35 38  .R9.........s058
0F30: 01 42 0F 52 39 80 F8 FF  FF 7F F8 FF FF 7F 73 30  .B.R9.........s0
0F40: 31 38 45 39 80 F8 FF FF  7F F8 FF FF 7F 73 30 32  18E9.........s02
0F50: 30 0B 80 29 08 5B 80 11  01 08 29 08 5B 80 11 01  0..).[....).[...
0F60: 09 2B 5B 80 11 01 65 80  1C 55 80 79 00 1D 80 11  .+[...e..U.y....
0F70: 01 5B 80 11 01 4A F0 FF  FF 7F 5B 80 11 01 6F 76  .[...J....[...ov
0F80: F0 FF FF 7F 23 29 08 5B  80 11 01 0A 52 39 80 F8  ....#).[....R9..
0F90: FF FF 7F F8 FF FF 7F 73  30 32 30 02 09 10 3B 80  .......s020...;.
0FA0: 00 B7 0F 45 39 80 F8 FF  FF 7F F8 FF FF 7F 73 30  ...E9.........s0
0FB0: 35 39 0B 80 01 E4 0F 02  09 10 3C 80 00 D3 0F 45  59........<....E
0FC0: 39 80 F8 FF FF 7F F8 FF  FF 7F 73 30 35 39 0B 80  9.........s059..
0FD0: 01 E4 0F 45 39 80 F8 FF  FF 7F F8 FF FF 7F 73 30  ...E9.........s0
0FE0: 32 37 0B 80 4A F0 FF FF  7F 1D 80 11 01 79 00 1D  27..J........y..
0FF0: 80 11 01 F0 FF FF 7F 6F  76 F0 FF FF 7F 3C 03 00  .......ov....<..
1000: 0B 80 4B 80 01 F8 11 02  00 10 4B 80 00 AF 10 05  ..K.......K.....
1010: 02 00 29 08 F0 FF FF 7F  48 1C 42 80 29 08 F0 FF  ..).....H.B.)...
1020: FF 7F 49 1C 42 80 02 09  10 3B 80 00 40 10 52 39  ..I.B....;..@.R9
1030: 80 F8 FF FF 7F F8 FF FF  7F 73 30 35 39 01 69 10  .........s059.i.
1040: 02 09 10 3C 80 00 5A 10  52 39 80 F8 FF FF 7F F8  ...<..Z.R9......
1050: FF FF 7F 73 30 35 39 01  69 10 52 39 80 F8 FF FF  ...s059.i.R9....
1060: 7F F8 FF FF 7F 73 30 32  37 02 09 10 3B 80 00 83  .....s027...;...
1070: 10 52 39 80 F8 FF FF 7F  F8 FF FF 7F 73 30 35 38  .R9.........s058
1080: 01 AC 10 02 09 10 3C 80  00 9D 10 52 39 80 F8 FF  ......<....R9...
1090: FF 7F F8 FF FF 7F 73 30  35 38 01 AC 10 52 39 80  ......s058...R9.
10A0: F8 FF FF 7F F8 FF FF 7F  73 30 31 38 01 F8 11 02  ........s018....
10B0: 00 10 4D 80 00 F8 11 79  00 5B 80 11 01 1D 80 11  ..M....y.[......
10C0: 01 6E F0 FF FF 7F 66 80  99 F0 FF FF 7F 1C 42 80  .n....f.......B.
10D0: 02 09 10 3B 80 00 EA 10  52 39 80 F8 FF FF 7F F8  ...;....R9......
10E0: FF FF 7F 73 30 35 38 01  13 11 02 09 10 3C 80 00  ...s058......<..
10F0: 04 11 52 39 80 F8 FF FF  7F F8 FF FF 7F 73 30 35  ..R9.........s05
1100: 38 01 13 11 52 39 80 F8  FF FF 7F F8 FF FF 7F 73  8...R9.........s
1110: 30 31 38 45 39 80 F8 FF  FF 7F F8 FF FF 7F 73 30  018E9.........s0
1120: 32 30 0B 80 29 08 5B 80  11 01 07 29 08 1D 80 11  20..).[....)....
1130: 01 49 2B 1D 80 11 01 67  80 23 79 00 5B 80 11 01  .I+....g.#y.[...
1140: F0 FF FF 7F 29 08 5B 80  11 01 09 2B 5B 80 11 01  ....).[....+[...
1150: 68 80 1C 55 80 4A F0 FF  FF 7F 5B 80 11 01 79 00  h..U.J....[...y.
1160: 1D 80 11 01 5B 80 11 01  6F 76 F0 FF FF 7F 23 29  ....[...ov....#)
1170: 08 1D 80 11 01 4A 29 08  5B 80 11 01 0A 52 39 80  .....J).[....R9.
1180: F8 FF FF 7F F8 FF FF 7F  73 30 32 30 02 09 10 3B  ........s020...;
1190: 80 00 A8 11 45 39 80 F8  FF FF 7F F8 FF FF 7F 73  ....E9.........s
11A0: 30 35 39 0B 80 01 D5 11  02 09 10 3C 80 00 C4 11  059........<....
11B0: 45 39 80 F8 FF FF 7F F8  FF FF 7F 73 30 35 39 0B  E9.........s059.
11C0: 80 01 D5 11 45 39 80 F8  FF FF 7F F8 FF FF 7F 73  ....E9.........s
11D0: 30 32 37 0B 80 4A F0 FF  FF 7F 1D 80 11 01 79 00  027..J........y.
11E0: 1D 80 11 01 F0 FF FF 7F  6F 76 F0 FF FF 7F 3C 03  ........ov....<.
11F0: 00 4D 80 4B 80 01 F8 11  01 D8 0E 02 09 10 3B 80  .M.K..........;.
1200: 00 17 12 45 39 80 F8 FF  FF 7F F8 FF FF 7F 73 30  ...E9.........s0
1210: 36 36 0B 80 01 44 12 02  09 10 3C 80 00 33 12 45  66...D....<..3.E
1220: 39 80 F8 FF FF 7F F8 FF  FF 7F 73 30 36 36 0B 80  9.........s066..
1230: 01 44 12 45 39 80 F8 FF  FF 7F F8 FF FF 7F 73 30  .D.E9.........s0
1240: 32 31 0B 80 2B 1D 80 11  01 69 80 1C 55 80 4A F0  21..+....i..U.J.
1250: FF FF 7F 1D 80 11 01 6F  76 F0 FF FF 7F 23 06 02  .......ov....#..
1260: 00 02 02 00 0B 80 00 86  17 24 6A 80 0B 80 00 00  .........$j.....
1270: 25 02 00 10 0B 80 00 7F  12 05 02 00 01 83 17 02  %...............
1280: 00 10 4B 80 00 35 14 29  08 5B 80 11 01 09 1C 0A  ..K..5.).[......
1290: 80 02 09 10 3B 80 00 AB  12 52 39 80 F8 FF FF 7F  ....;....R9.....
12A0: F8 FF FF 7F 73 30 36 36  01 D4 12 02 09 10 3C 80  ....s066......<.
12B0: 00 C5 12 52 39 80 F8 FF  FF 7F F8 FF FF 7F 73 30  ...R9.........s0
12C0: 36 36 01 D4 12 52 39 80  F8 FF FF 7F F8 FF FF 7F  66...R9.........
12D0: 73 30 32 31 02 09 10 3B  80 00 F0 12 45 39 80 F8  s021...;....E9..
12E0: FF FF 7F F8 FF FF 7F 73  30 36 30 0B 80 01 1D 13  .......s060.....
12F0: 02 09 10 3C 80 00 0C 13  45 39 80 F8 FF FF 7F F8  ...<....E9......
1300: FF FF 7F 73 30 36 30 0B  80 01 1D 13 45 39 80 F8  ...s060.....E9..
1310: FF FF 7F F8 FF FF 7F 73  30 32 35 0B 80 7B 5B 80  .......s025..{[.
1320: 11 01 79 00 F0 FF FF 7F  5B 80 11 01 79 00 1D 80  ..y.....[...y...
1330: 11 01 5B 80 11 01 2B 5B  80 11 01 6B 80 29 08 5B  ..[...+[...k.).[
1340: 80 11 01 0A 29 08 5B 80  11 01 01 23 29 08 5B 80  ....).[....#).[.
1350: 11 01 02 79 00 F0 FF FF  7F 1D 80 11 01 79 00 1D  ...y.........y..
1360: 80 11 01 F0 FF FF 7F 29  08 5B 80 11 01 03 29 08  .......).[....).
1370: 1D 80 11 01 4B 2B 1D 80  11 01 6C 80 23 29 08 1D  ....K+....l.#)..
1380: 80 11 01 4C 29 08 5B 80  11 01 04 02 09 10 3B 80  ...L).[.......;.
1390: 00 A5 13 52 39 80 F8 FF  FF 7F F8 FF FF 7F 73 30  ...R9.........s0
13A0: 36 30 01 CE 13 02 09 10  3C 80 00 BF 13 52 39 80  60......<....R9.
13B0: F8 FF FF 7F F8 FF FF 7F  73 30 36 30 01 CE 13 52  ........s060...R
13C0: 39 80 F8 FF FF 7F F8 FF  FF 7F 73 30 32 35 02 09  9.........s025..
13D0: 10 3B 80 00 EA 13 45 39  80 F8 FF FF 7F F8 FF FF  .;....E9........
13E0: 7F 73 30 36 36 0B 80 01  17 14 02 09 10 3C 80 00  .s066........<..
13F0: 06 14 45 39 80 F8 FF FF  7F F8 FF FF 7F 73 30 36  ..E9.........s06
1400: 36 0B 80 01 17 14 45 39  80 F8 FF FF 7F F8 FF FF  6.....E9........
1410: 7F 73 30 32 31 0B 80 79  00 F0 FF FF 7F 1D 80 11  .s021..y........
1420: 01 79 00 1D 80 11 01 F0  FF FF 7F 3C 00 00 4B 80  .y.........<..K.
1430: 4B 80 01 83 17 02 00 10  4D 80 00 83 17 02 09 10  K.......M.......
1440: 3B 80 00 57 14 52 39 80  F8 FF FF 7F F8 FF FF 7F  ;..W.R9.........
1450: 73 30 36 36 01 80 14 02  09 10 3C 80 00 71 14 52  s066......<..q.R
1460: 39 80 F8 FF FF 7F F8 FF  FF 7F 73 30 36 36 01 80  9.........s066..
1470: 14 52 39 80 F8 FF FF 7F  F8 FF FF 7F 73 30 32 31  .R9.........s021
1480: 45 39 80 F8 FF FF 7F F8  FF FF 7F 73 30 32 34 0B  E9.........s024.
1490: 80 5D 0B 80 45 80 7B 1D  80 11 01 79 00 F0 FF FF  .]..E.{....y....
14A0: 7F 1D 80 11 01 29 08 1D  80 11 01 47 2B 1D 80 11  .....).....G+...
14B0: 01 6D 80 23 79 00 F0 FF  FF 7F 5B 80 11 01 29 08  .m.#y.....[...).
14C0: 5B 80 11 01 09 2B 5B 80  11 01 6E 80 1C 55 80 29  [....+[...n..U.)
14D0: 08 1D 80 11 01 48 4A 1D  80 11 01 5B 80 11 01 6F  .....HJ....[...o
14E0: 76 1D 80 11 01 23 52 39  80 F8 FF FF 7F F8 FF FF  v....#R9........
14F0: 7F 73 30 32 34 45 39 80  F8 FF FF 7F F8 FF FF 7F  .s024E9.........
1500: 73 30 32 32 0B 80 79 00  F0 FF FF 7F 1D 80 11 01  s022..y.........
1510: 2B 1D 80 11 01 6F 80 29  08 5B 80 11 01 0A 1C 58  +....o.).[.....X
1520: 80 29 08 1D 80 11 01 39  29 08 1D 80 11 01 3A 23  .).....9).....:#
1530: 29 08 1D 80 11 01 31 1C  70 80 1C 70 80 52 39 80  ).....1.p..p.R9.
1540: F8 FF FF 7F F8 FF FF 7F  73 30 32 32 45 39 80 F8  ........s022E9..
1550: FF FF 7F F8 FF FF 7F 73  30 32 38 0B 80 2B 1D 80  .......s028..+..
1560: 11 01 71 80 6E F0 FF FF  7F 60 80 99 F0 FF FF 7F  ..q.n....`......
1570: 1C 58 80 45 32 80 F0 FF  FF 7F F0 FF FF 7F 66 64  .X.E2.........fd
1580: 6F 31 0B 80 55 32 80 F0  FF FF 7F F0 FF FF 7F 66  o1..U2.........f
1590: 64 6F 31 23 52 39 80 F8  FF FF 7F F8 FF FF 7F 73  do1#R9.........s
15A0: 30 32 38 48 46 80 23 29  08 1D 80 11 01 32 29 08  028HF.#).....2).
15B0: 1D 80 11 01 33 45 39 80  F8 FF FF 7F F8 FF FF 7F  ....3E9.........
15C0: 73 30 32 39 0B 80 9F 72  80 F8 FF FF 7F F8 FF FF  s029...r........
15D0: 7F 62 6C 30 30 0B 80 1C  44 80 45 32 80 F0 FF FF  .bl00...D.E2....
15E0: 7F F0 FF FF 7F 66 64 69  31 0B 80 9F 72 80 F8 FF  .....fdi1...r...
15F0: FF 7F F8 FF FF 7F 6F 70  65 6E 0B 80 29 08 5B 80  ......open..).[.
1600: 11 01 09 2B 5B 80 11 01  73 80 1C 3A 80 23 29 08  ...+[...s..:.#).
1610: 5B 80 11 01 0A 9F 72 80  F8 FF FF 7F F8 FF FF 7F  [.....r.........
1620: 63 6C 6F 73 0B 80 1C 74  80 45 32 80 F0 FF FF 7F  clos...t.E2.....
1630: F0 FF FF 7F 66 64 6F 31  0B 80 55 32 80 F0 FF FF  ....fdo1..U2....
1640: 7F F0 FF FF 7F 66 64 6F  31 52 39 80 F8 FF FF 7F  .....fdo1R9.....
1650: F8 FF FF 7F 73 30 32 39  9F 72 80 F8 FF FF 7F F8  ....s029.r......
1660: FF FF 7F 6B 69 6C 6C 0B  80 45 39 80 F8 FF FF 7F  ...kill..E9.....
1670: F8 FF FF 7F 73 30 33 30  0B 80 45 32 80 F0 FF FF  ....s030..E2....
1680: 7F F0 FF FF 7F 66 64 69  31 0B 80 2B 1D 80 11 01  .....fdi1..+....
1690: 75 80 23 29 08 1D 80 11  01 34 52 39 80 F8 FF FF  u.#).....4R9....
16A0: 7F F8 FF FF 7F 73 30 33  30 45 39 80 F8 FF FF 7F  .....s030E9.....
16B0: F8 FF FF 7F 73 30 33 31  0B 80 79 00 5B 80 11 01  ....s031..y.[...
16C0: F0 FF FF 7F 79 00 F0 FF  FF 7F 5B 80 11 01 7B 5B  ....y.....[...{[
16D0: 80 11 01 29 08 1D 80 11  01 45 29 08 5B 80 11 01  ...).....E).[...
16E0: 05 2B 5B 80 11 01 76 80  23 29 08 5B 80 11 01 06  .+[...v.#).[....
16F0: 29 08 1D 80 11 01 46 29  08 5B 80 11 01 07 52 39  ).....F).[....R9
1700: 80 F8 FF FF 7F F8 FF FF  7F 73 30 33 31 02 09 10  .........s031...
1710: 3B 80 00 29 17 45 39 80  F8 FF FF 7F F8 FF FF 7F  ;..).E9.........
1720: 73 30 36 36 0B 80 01 56  17 02 09 10 3C 80 00 45  s066...V....<..E
1730: 17 45 39 80 F8 FF FF 7F  F8 FF FF 7F 73 30 36 36  .E9.........s066
1740: 0B 80 01 56 17 45 39 80  F8 FF FF 7F F8 FF FF 7F  ...V.E9.........
1750: 73 30 32 31 0B 80 79 00  F0 FF FF 7F 1D 80 11 01  s021..y.........
1760: 79 00 1D 80 11 01 F0 FF  FF 7F 79 00 5B 80 11 01  y.........y.[...
1770: F0 FF FF 7F 3C 00 00 4D  80 4B 80 5D 51 80 4B 80  ....<..M.K.]Q.K.
1780: 01 83 17 01 61 12 02 09  10 3B 80 00 A0 17 52 39  ....a....;....R9
1790: 80 F8 FF FF 7F F8 FF FF  7F 73 30 36 36 01 C9 17  .........s066...
17A0: 02 09 10 3C 80 00 BA 17  52 39 80 F8 FF FF 7F F8  ...<....R9......
17B0: FF FF 7F 73 30 36 36 01  C9 17 52 39 80 F8 FF FF  ...s066...R9....
17C0: 7F F8 FF FF 7F 73 30 32  31 02 09 10 3B 80 00 E5  .....s021...;...
17D0: 17 45 39 80 F8 FF FF 7F  F8 FF FF 7F 73 30 36 31  .E9.........s061
17E0: 0B 80 01 12 18 02 09 10  3C 80 00 01 18 45 39 80  ........<....E9.
17F0: F8 FF FF 7F F8 FF FF 7F  73 30 36 31 0B 80 01 12  ........s061....
1800: 18 45 39 80 F8 FF FF 7F  F8 FF FF 7F 73 30 33 32  .E9.........s032
1810: 0B 80 5D 0B 80 77 80 4A  1D 80 11 01 F0 FF FF 7F  ..]..w.J........
1820: 6F 76 1D 80 11 01 79 00  5B 80 11 01 1D 80 11 01  ov....y.[.......
1830: 29 08 1D 80 11 01 29 2B  1D 80 11 01 78 80 23 29  ).....)+....x.#)
1840: 08 1D 80 11 01 2A 7B 5B  80 11 01 02 09 10 3B 80  .....*{[......;.
1850: 00 65 18 52 39 80 F8 FF  FF 7F F8 FF FF 7F 73 30  .e.R9.........s0
1860: 36 31 01 8E 18 02 09 10  3C 80 00 7F 18 52 39 80  61......<....R9.
1870: F8 FF FF 7F F8 FF FF 7F  73 30 36 31 01 8E 18 52  ........s061...R
1880: 39 80 F8 FF FF 7F F8 FF  FF 7F 73 30 33 32 45 39  9.........s032E9
1890: 80 F8 FF FF 7F F8 FF FF  7F 73 30 33 33 0B 80 79  .........s033..y
18A0: 00 F0 FF FF 7F 5B 80 11  01 4A 1D 80 11 01 5B 80  .....[...J....[.
18B0: 11 01 29 08 1D 80 11 01  2B 29 08 5B 80 11 01 01  ..).....+).[....
18C0: 2B 5B 80 11 01 79 80 23  29 08 1D 80 11 01 2C 52  +[...y.#).....,R
18D0: 39 80 F8 FF FF 7F F8 FF  FF 7F 73 30 33 33 45 39  9.........s033E9
18E0: 80 F8 FF FF 7F F8 FF FF  7F 73 30 33 34 0B 80 2B  .........s034..+
18F0: 5B 80 11 01 7A 80 23 29  08 5B 80 11 01 02 29 08  [...z.#).[....).
1900: 5B 80 11 01 03 29 08 5B  80 11 01 04 29 08 5B 80  [....).[....).[.
1910: 11 01 05 2B 5B 80 11 01  7B 80 23 52 39 80 F8 FF  ...+[...{.#R9...
1920: FF 7F F8 FF FF 7F 73 30  33 34 45 39 80 F8 FF FF  ......s034E9....
1930: 7F F8 FF FF 7F 73 30 33  39 0B 80 29 08 1D 80 11  .....s039..)....
1940: 01 4D 2B 5B 80 11 01 7C  80 23 29 08 1D 80 11 01  .M+[...|.#).....
1950: 4E 29 08 5B 80 11 01 06  52 39 80 F8 FF FF 7F F8  N).[....R9......
1960: FF FF 7F 73 30 33 39 02  09 10 3B 80 00 83 19 45  ...s039...;....E
1970: 39 80 F8 FF FF 7F F8 FF  FF 7F 73 30 36 32 0B 80  9.........s062..
1980: 01 B0 19 02 09 10 3C 80  00 9F 19 45 39 80 F8 FF  ......<....E9...
1990: FF 7F F8 FF FF 7F 73 30  36 32 0B 80 01 B0 19 45  ......s062.....E
19A0: 39 80 F8 FF FF 7F F8 FF  FF 7F 73 30 32 36 0B 80  9.........s026..
19B0: 79 00 F0 FF FF 7F 1D 80  11 01 79 00 1D 80 11 01  y.........y.....
19C0: F0 FF FF 7F 29 08 1D 80  11 01 4F 2B 1D 80 11 01  ....).....O+....
19D0: 7D 80 23 29 08 1D 80 11  01 50 02 09 10 3B 80 00  }.#).....P...;..
19E0: F4 19 52 39 80 F8 FF FF  7F F8 FF FF 7F 73 30 36  ..R9.........s06
19F0: 32 01 1D 1A 02 09 10 3C  80 00 0E 1A 52 39 80 F8  2......<....R9..
1A00: FF FF 7F F8 FF FF 7F 73  30 36 32 01 1D 1A 52 39  .......s062...R9
1A10: 80 F8 FF FF 7F F8 FF FF  7F 73 30 32 36 45 39 80  .........s026E9.
1A20: F8 FF FF 7F F8 FF FF 7F  73 30 33 35 0B 80 79 00  ........s035..y.
1A30: 1D 80 11 01 5B 80 11 01  79 00 5B 80 11 01 1D 80  ....[...y.[.....
1A40: 11 01 79 00 F0 FF FF 7F  1D 80 11 01 29 08 1D 80  ..y.........)...
1A50: 11 01 51 2B 1D 80 11 01  7E 80 23 29 08 1D 80 11  ..Q+....~.#)....
1A60: 01 52 5C 00 3A 80 5C 01  3A 80 9A 5D 51 80 4B 80  .R\.:.\.:..]Q.K.
1A70: 29 08 1D 80 11 01 35 2B  1D 80 11 01 7F 80 23 29  ).....5+......#)
1A80: 08 1D 80 11 01 36 52 39  80 F8 FF FF 7F F8 FF FF  .....6R9........
1A90: 7F 73 30 33 35 45 39 80  F8 FF FF 7F F8 FF FF 7F  .s035E9.........
1AA0: 73 30 33 36 0B 80 29 08  1D 80 11 01 3F 2B 1D 80  s036..).....?+..
1AB0: 11 01 80 80 23 29 08 1D  80 11 01 40 52 39 80 F8  ....#).....@R9..
1AC0: FF FF 7F F8 FF FF 7F 73  30 33 36 02 09 10 81 80  .......s036.....
1AD0: 00 E7 1A 45 39 80 F8 FF  FF 7F F8 FF FF 7F 73 30  ...E9.........s0
1AE0: 33 37 0B 80 01 68 1B 02  09 10 82 80 00 03 1B 45  37...h.........E
1AF0: 39 80 F8 FF FF 7F F8 FF  FF 7F 73 30 33 37 0B 80  9.........s037..
1B00: 01 68 1B 02 09 10 3B 80  00 1F 1B 45 39 80 F8 FF  .h....;....E9...
1B10: FF 7F F8 FF FF 7F 73 30  36 33 0B 80 01 68 1B 02  ......s063...h..
1B20: 09 10 3C 80 00 3B 1B 45  39 80 F8 FF FF 7F F8 FF  ..<..;.E9.......
1B30: FF 7F 73 30 36 33 0B 80  01 68 1B 02 09 10 83 80  ..s063...h......
1B40: 00 57 1B 45 39 80 F8 FF  FF 7F F8 FF FF 7F 73 30  .W.E9.........s0
1B50: 33 37 0B 80 01 68 1B 45  39 80 F8 FF FF 7F F8 FF  37...h.E9.......
1B60: FF 7F 73 30 36 38 0B 80  4A F0 FF FF 7F 5B 80 11  ..s068..J....[..
1B70: 01 29 08 1D 80 11 01 41  2B 1D 80 11 01 84 80 29  .).....A+......)
1B80: 08 5B 80 11 01 07 1C 26  80 79 00 F0 FF FF 7F 5B  .[.....&.y.....[
1B90: 80 11 01 79 00 5B 80 11  01 F0 FF FF 7F 29 08 5B  ...y.[.......).[
1BA0: 80 11 01 08 23 29 08 1D  80 11 01 42 6F 76 F0 FF  ....#).....Bov..
1BB0: FF 7F 24 85 80 0B 80 0B  80 25 02 00 10 0B 80 00  ..$......%......
1BC0: D4 1B 6E F0 FF FF 7F 41  80 99 F0 FF FF 7F 1C 42  ..n....A.......B
1BD0: 80 01 EE 1B 02 00 10 4B  80 00 EE 1B 6E F0 FF FF  .......K....n...
1BE0: 7F 86 80 99 F0 FF FF 7F  1C 42 80 01 EE 1B 02 09  .........B......
1BF0: 10 81 80 00 08 1C 52 39  80 F8 FF FF 7F F8 FF FF  ......R9........
1C00: 7F 73 30 33 37 01 7F 1C  02 09 10 82 80 00 22 1C  .s037.........".
1C10: 52 39 80 F8 FF FF 7F F8  FF FF 7F 73 30 33 37 01  R9.........s037.
1C20: 7F 1C 02 09 10 3B 80 00  3C 1C 52 39 80 F8 FF FF  .....;..<.R9....
1C30: 7F F8 FF FF 7F 73 30 36  33 01 7F 1C 02 09 10 3C  .....s063......<
1C40: 80 00 56 1C 52 39 80 F8  FF FF 7F F8 FF FF 7F 73  ..V.R9.........s
1C50: 30 36 33 01 7F 1C 02 09  10 83 80 00 70 1C 52 39  063.........p.R9
1C60: 80 F8 FF FF 7F F8 FF FF  7F 73 30 33 37 01 7F 1C  .........s037...
1C70: 52 39 80 F8 FF FF 7F F8  FF FF 7F 73 30 36 38 45  R9.........s068E
1C80: 39 80 F8 FF FF 7F F8 FF  FF 7F 73 30 33 38 0B 80  9.........s038..
1C90: 7B 5B 80 11 01 29 08 5B  80 11 01 05 2B 5B 80 11  {[...).[....+[..
1CA0: 01 87 80 23 52 39 80 F8  FF FF 7F F8 FF FF 7F 73  ...#R9.........s
1CB0: 30 33 38 02 09 10 3B 80  00 CF 1C 45 39 80 F8 FF  038...;....E9...
1CC0: FF 7F F8 FF FF 7F 73 30  36 37 0B 80 01 FC 1C 02  ......s067......
1CD0: 09 10 3C 80 00 EB 1C 45  39 80 F8 FF FF 7F F8 FF  ..<....E9.......
1CE0: FF 7F 73 30 36 37 0B 80  01 FC 1C 45 39 80 F8 FF  ..s067.....E9...
1CF0: FF 7F F8 FF FF 7F 73 30  34 30 0B 80 2B 5B 80 11  ......s040..+[..
1D00: 01 88 80 29 08 5B 80 11  01 06 29 08 5B 80 11 01  ...).[....).[...
1D10: 07 29 08 5B 80 11 01 08  23 6E F0 FF FF 7F 41 80  .).[....#n....A.
1D20: 99 F0 FF FF 7F 1C 70 80  02 09 10 3B 80 00 42 1D  ......p....;..B.
1D30: 52 39 80 F8 FF FF 7F F8  FF FF 7F 73 30 36 37 01  R9.........s067.
1D40: 6B 1D 02 09 10 3C 80 00  5C 1D 52 39 80 F8 FF FF  k....<..\.R9....
1D50: 7F F8 FF FF 7F 73 30 36  37 01 6B 1D 52 39 80 F8  .....s067.k.R9..
1D60: FF FF 7F F8 FF FF 7F 73  30 34 30 45 39 80 F8 FF  .......s040E9...
1D70: FF 7F F8 FF FF 7F 73 30  34 33 0B 80 5D 0B 80 45  ......s043..]..E
1D80: 80 1C 42 80 CD 89 80 F0  FF FF 7F F0 FF FF 7F 73  ..B............s
1D90: 74 61 72 0B 80 4A 1D 80  11 01 F0 FF FF 7F 6F 76  tar..J........ov
1DA0: 1D 80 11 01 29 08 1D 80  11 01 45 29 08 5B 80 11  ....).....E).[..
1DB0: 01 09 2B 1D 80 11 01 8A  80 23 1C 3A 80 29 08 5B  ..+......#.:.).[
1DC0: 80 11 01 0A CD 89 80 F0  FF FF 7F F0 FF FF 7F 73  ...............s
1DD0: 74 6F 70 0B 80 29 08 5B  80 11 01 09 2B 5B 80 11  top..).[....+[..
1DE0: 01 8B 80 23 1C 47 80 45  8C 80 F0 FF FF 7F F0 FF  ...#.G.E........
1DF0: FF 7F 77 68 6F 31 0B 80  55 8C 80 F0 FF FF 7F F0  ..who1..U.......
1E00: FF FF 7F 77 68 6F 31 52  39 80 F8 FF FF 7F F8 FF  ...who1R9.......
1E10: FF 7F 73 30 34 33 29 08  1D 80 11 01 46 29 08 5B  ..s043).....F).[
1E20: 80 11 01 0A 4E 00 51 80  11 01 80 51 80 11 01 29  ....N.Q....Q...)
1E30: 08 51 80 11 01 25 4A 51  80 11 01 F0 FF FF 7F 4A  .Q...%JQ.......J
1E40: 1D 80 11 01 51 80 11 01  4A 5B 80 11 01 51 80 11  ....Q...J[...Q..
1E50: 01 4A F0 FF FF 7F 51 80  11 01 6F 76 F0 FF FF 7F  .J....Q...ov....
1E60: 6F 76 51 80 11 01 1C 32  80 45 39 80 F8 FF FF 7F  ovQ....2.E9.....
1E70: F8 FF FF 7F 73 30 34 31  0B 80 CD 8D 80 51 80 11  ....s041.....Q..
1E80: 01 51 80 11 01 6D 61 69  6E 0B 80 5D 51 80 4B 80  .Q...main..]Q.K.
1E90: 45 8C 80 F0 FF FF 7F F0  FF FF 7F 77 68 69 31 0B  E..........whi1.
1EA0: 80 55 8C 80 F0 FF FF 7F  F0 FF FF 7F 77 68 69 31  .U..........whi1
1EB0: 1C 3A 80 52 39 80 F8 FF  FF 7F F8 FF FF 7F 73 30  .:.R9.........s0
1EC0: 34 31 45 39 80 F8 FF FF  7F F8 FF FF 7F 73 30 34  41E9.........s04
1ED0: 32 0B 80 2B 1D 80 11 01  8E 80 23 79 00 51 80 11  2..+......#y.Q..
1EE0: 01 5B 80 11 01 27 08 51  80 11 01 26 1C 58 80 4A  .[...'.Q...&.X.J
1EF0: 1D 80 11 01 51 80 11 01  6F 76 1D 80 11 01 52 39  ....Q...ov....R9
1F00: 80 F8 FF FF 7F F8 FF FF  7F 73 30 34 32 45 39 80  .........s042E9.
1F10: F8 FF FF 7F F8 FF FF 7F  73 30 34 34 0B 80 4A F0  ........s044..J.
1F20: FF FF 7F 51 80 11 01 6F  76 F0 FF FF 7F 4A 1D 80  ...Q...ov....J..
1F30: 11 01 51 80 11 01 6F 76  1D 80 11 01 2A 08 51 80  ..Q...ov....*.Q.
1F40: 11 01 29 08 1D 80 11 01  35 2B 1D 80 11 01 8F 80  ..).....5+......
1F50: 23 29 08 1D 80 11 01 36  29 08 1D 80 11 01 37 29  #).....6).....7)
1F60: 08 5B 80 11 01 09 2B 5B  80 11 01 90 80 23 29 08  .[....+[.....#).
1F70: 5B 80 11 01 0A 29 08 1D  80 11 01 38 52 39 80 F8  [....).....8R9..
1F80: FF FF 7F F8 FF FF 7F 73  30 34 34 02 09 10 3B 80  .......s044...;.
1F90: 00 A7 1F 45 39 80 F8 FF  FF 7F F8 FF FF 7F 73 30  ...E9.........s0
1FA0: 36 34 0B 80 01 D4 1F 02  09 10 3C 80 00 C3 1F 45  64........<....E
1FB0: 39 80 F8 FF FF 7F F8 FF  FF 7F 73 30 36 34 0B 80  9.........s064..
1FC0: 01 D4 1F 45 39 80 F8 FF  FF 7F F8 FF FF 7F 73 30  ...E9.........s0
1FD0: 34 35 0B 80 4A 51 80 11  01 F0 FF FF 7F 6F 76 51  45..JQ.......ovQ
1FE0: 80 11 01 5B 91 80 51 80  11 01 51 80 11 01 74 6C  ...[..Q...Q...tl
1FF0: 6B 30 2B 51 80 11 01 92  80 1C 58 80 4A 5B 80 11  k0+Q......X.J[..
2000: 01 F0 FF FF 7F 6F 76 5B  80 11 01 23 53 51 80 11  .....ov[...#SQ..
2010: 01 51 80 11 01 74 6C 6B  30 5B 91 80 51 80 11 01  .Q...tlk0[..Q...
2020: 51 80 11 01 74 6C 6B 31  6E F0 FF FF 7F 41 80 99  Q...tlk1n....A..
2030: F0 FF FF 7F 1C 42 80 53  51 80 11 01 51 80 11 01  .....B.SQ...Q...
2040: 74 6C 6B 31 79 00 1D 80  11 01 5B 80 11 01 29 08  tlk1y.....[...).
2050: 5B 80 11 01 01 2B 5B 80  11 01 93 80 1C 26 80 4A  [....+[......&.J
2060: 51 80 11 01 5B 80 11 01  6F 76 51 80 11 01 23 29  Q...[...ovQ...#)
2070: 08 5B 80 11 01 02 6E F0  FF FF 7F 41 80 99 F0 FF  .[....n....A....
2080: FF 7F 1C 42 80 02 09 10  3B 80 00 9F 20 52 39 80  ...B....;... R9.
2090: F8 FF FF 7F F8 FF FF 7F  73 30 36 34 01 C8 20 02  ........s064.. .
20A0: 09 10 3C 80 00 B9 20 52  39 80 F8 FF FF 7F F8 FF  ..<... R9.......
20B0: FF 7F 73 30 36 34 01 C8  20 52 39 80 F8 FF FF 7F  ..s064.. R9.....
20C0: F8 FF FF 7F 73 30 34 35  02 09 10 3B 80 00 E4 20  ....s045...;... 
20D0: 45 39 80 F8 FF FF 7F F8  FF FF 7F 73 30 36 35 0B  E9.........s065.
20E0: 80 01 11 21 02 09 10 3C  80 00 00 21 45 39 80 F8  ...!...<...!E9..
20F0: FF FF 7F F8 FF FF 7F 73  30 36 35 0B 80 01 11 21  .......s065....!
2100: 45 39 80 F8 FF FF 7F F8  FF FF 7F 73 30 34 39 0B  E9.........s049.
2110: 80 29 08 5B 80 11 01 03  79 00 51 80 11 01 1D 80  .).[....y.Q.....
2120: 11 01 29 08 1D 80 11 01  43 2B 1D 80 11 01 94 80  ..).....C+......
2130: 23 29 08 1D 80 11 01 44  29 08 5B 80 11 01 04 02  #).....D).[.....
2140: 09 10 3B 80 00 59 21 52  39 80 F8 FF FF 7F F8 FF  ..;..Y!R9.......
2150: FF 7F 73 30 36 35 01 82  21 02 09 10 3C 80 00 73  ..s065..!...<..s
2160: 21 52 39 80 F8 FF FF 7F  F8 FF FF 7F 73 30 36 35  !R9.........s065
2170: 01 82 21 52 39 80 F8 FF  FF 7F F8 FF FF 7F 73 30  ..!R9.........s0
2180: 34 39 45 39 80 F8 FF FF  7F F8 FF FF 7F 73 30 34  49E9.........s04
2190: 36 0B 80 4A 51 80 11 01  5B 80 11 01 4A 5B 80 11  6..JQ...[...J[..
21A0: 01 51 80 11 01 6F 76 51  80 11 01 6F 76 5B 80 11  .Q...ovQ...ov[..
21B0: 01 7B 51 80 11 01 7B 5B  80 11 01 27 08 51 80 11  .{Q...{[...'.Q..
21C0: 01 27 1C 58 80 27 08 5B  80 11 01 34 6E F0 FF FF  .'.X.'.[...4n...
21D0: 7F 52 80 99 F0 FF FF 7F  1C 95 80 52 39 80 F8 FF  .R.........R9...
21E0: FF 7F F8 FF FF 7F 73 30  34 36 45 39 80 F8 FF FF  ......s046E9....
21F0: 7F F8 FF FF 7F 73 30 34  37 0B 80 5D 0B 80 45 80  .....s047..]..E.
2200: 7B 1D 80 11 01 1C 42 80  02 01 00 4B 80 00 18 22  {.....B....K..."
2210: 03 03 10 96 80 01 2D 22  02 01 00 4D 80 00 28 22  ......-"...M..("
2220: 03 03 10 97 80 01 2D 22  03 03 10 98 80 2B 1D 80  ......-".....+..
2230: 11 01 99 80 23 52 39 80  F8 FF FF 7F F8 FF FF 7F  ....#R9.........
2240: 73 30 34 37 45 39 80 F8  FF FF 7F F8 FF FF 7F 73  s047E9.........s
2250: 30 34 38 0B 80 29 08 1D  80 11 01 3F 2B 1D 80 11  048..).....?+...
2260: 01 9A 80 23 29 08 1D 80  11 01 40 45 32 80 F0 FF  ...#).....@E2...
2270: FF 7F F0 FF FF 7F 66 64  6F 31 0B 80 55 32 80 F0  ......fdo1..U2..
2280: FF FF 7F F0 FF FF 7F 66  64 6F 31 52 39 80 F8 FF  .......fdo1R9...
2290: FF 7F F8 FF FF 7F 73 30  34 38 45 8C 80 F8 FF FF  ......s048E.....
22A0: 7F F8 FF FF 7F 71 73 74  63 0B 80 2A 08 51 80 11  .....qstc..*.Q..
22B0: 01 2A 08 5B 80 11 01 29  08 51 80 11 01 28 5C 00  .*.[...).Q...(\.
22C0: 9B 80 5C 01 9B 80 9A 5D  51 80 4B 80 1C 4D 80 29  ..\....]Q.K..M.)
22D0: 08 1D 80 11 01 6E 29 08  1D 80 11 01 6F 46 00 45  .....n).....oF.E
22E0: 32 80 F0 FF FF 7F F0 FF  FF 7F 66 64 69 31 0B 80  2.........fdi1..
22F0: 20 00 21 00                                        .!.            
```

#### Opcodes

```
  0: 0x0297 [0x42] SET_CLI_EVENT_CANCEL_DATA()
  1: 0x0298 [0x46] CAMERA_CONTROL: Disable user control
  2: 0x029A [0x03] ExtData[1]->WorkLocal[0] = Work_Zone[5]
  3: 0x029F [0x03] ExtData[1]->WorkLocal[1] = Work_Zone[6]
  4: 0x02A4 [0x45] LOAD_SCHEDULED_TASK: Load scheduler "fdo1" with entities [LocalPlayer, LocalPlayer], work=[200*, 0*]
  5: 0x02B5 [0x55] WAIT_LOAD_SCHEDULER: Wait for scheduler "fdo1" with entities [LocalPlayer, LocalPlayer], work=200*
  6: 0x02C4 [0x38] SET_CLIENT_EVENT_MODE(mode=19*)
  7: 0x02C7 [0x4E] SET_ENTITY_HIDE_FLAG: Show LocalPlayer
  8: 0x02CD [0x2F] Chacharoon (ID: 17924187/0x0111805B)->Render.Flags0 &= ~0x80000 // Bit 19
  9: 0x02D3 [0x2F] Unnamed NPC (ID: 17924177/0x01118051)->Render.Flags0 &= ~0x80000 // Bit 19
 10: 0x02D9 [0x4E] SET_ENTITY_HIDE_FLAG: Show Chacharoon (ID: 17924187/0x0111805B)
 11: 0x02DF [0x29] REQ_SET_WAIT(priority=0x08, entity_id=Unnamed NPC (ID: 17924177/0x01118051), tag_num=0x24)
 12: 0x02E6 [0x4E] SET_ENTITY_HIDE_FLAG: Hide Unnamed NPC (ID: 17924177/0x01118051)
 13: 0x02EC [0x4E] SET_ENTITY_HIDE_FLAG: Hide Green Thumb Moogle (ID: 17924125/0x0111801D)
 14: 0x02F2 [0x92] Green Thumb Moogle (ID: 17924125/0x0111801D)->Render.Flags3 ^= 0x01
 15: 0x02F8 [0x92] Chacharoon (ID: 17924187/0x0111805B)->Render.Flags3 ^= 0x01
 16: 0x02FE [0x92] Garden Furrow (ID: 17924128/0x01118020)->Render.Flags3 ^= 0x01
 17: 0x0304 [0x92] Garden Furrow #2 (ID: 17924129/0x01118021)->Render.Flags3 ^= 0x01
 18: 0x030A [0x92] Garden Furrow #3 (ID: 17924130/0x01118022)->Render.Flags3 ^= 0x01
 19: 0x0310 [0x92] Unnamed NPC (ID: 17924177/0x01118051)->Render.Flags3 ^= 0x01
 20: 0x0316 [0x92] Breeding Monster (ID: 17924233/0x01118089)->Render.Flags3 ^= 0x01
 21: 0x031C [0x92] Breeding Monster01 (ID: 17924234/0x0111808A)->Render.Flags3 ^= 0x01
 22: 0x0322 [0x92] Breeding Monster02 (ID: 17924235/0x0111808B)->Render.Flags3 ^= 0x01
 23: 0x0328 [0x92] Breeding Monster03 (ID: 17924236/0x0111808C)->Render.Flags3 ^= 0x01
 24: 0x032E [0x92] Breeding Monster00 (ID: 17924237/0x0111808D)->Render.Flags3 ^= 0x01
 25: 0x0334 [0x92] Ephemeral Moogle (ID: 17924238/0x0111808E)->Render.Flags3 ^= 0x01
 26: 0x033A [0x4E] SET_ENTITY_HIDE_FLAG: Hide Susuroon (ID: 17924184/0x01118058)
 27: 0x0340 [0x4E] SET_ENTITY_HIDE_FLAG: Hide Kuyin Hathdenna (ID: 17924183/0x01118057)
 28: 0x0346 [0x4E] SET_ENTITY_HIDE_FLAG: Hide Yeestog (ID: 17924185/0x01118059)
 29: 0x034C [0x4E] SET_ENTITY_HIDE_FLAG: Hide Kuyin Hathdenna (ID: 17924202/0x0111806A)
 30: 0x0352 [0x4E] SET_ENTITY_HIDE_FLAG: Hide Susuroon (ID: 17924203/0x0111806B)
 31: 0x0358 [0x4E] SET_ENTITY_HIDE_FLAG: Hide Yeestog (ID: 17924204/0x0111806C)
 32: 0x035E [0x4E] SET_ENTITY_HIDE_FLAG: Hide Porter Moogle (ID: 17924221/0x0111807D)
 33: 0x0364 [0x4E] SET_ENTITY_HIDE_FLAG: Hide Chacharoon (ID: 17924232/0x01118088)
 34: 0x036A [0xBA] SET_ENTITY_POSITION(entity_id=Chacharoon (ID: 17924232/0x01118088), pos_x=-100.000*, pos_z=-100.000*, pos_y=0.000*, direction=0.0°*)
 35: 0x0377 [0x4E] SET_ENTITY_HIDE_FLAG: Hide Breeding Monster (ID: 17924233/0x01118089)
 36: 0x037D [0x4E] SET_ENTITY_HIDE_FLAG: Hide Breeding Monster01 (ID: 17924234/0x0111808A)
 37: 0x0383 [0x4E] SET_ENTITY_HIDE_FLAG: Hide Breeding Monster02 (ID: 17924235/0x0111808B)
 38: 0x0389 [0x4E] SET_ENTITY_HIDE_FLAG: Hide Breeding Monster03 (ID: 17924236/0x0111808C)
 39: 0x038F [0x4E] SET_ENTITY_HIDE_FLAG: Hide Breeding Monster00 (ID: 17924237/0x0111808D)
 40: 0x0395 [0x80] LOAD_WAIT(entity=LocalPlayer)
 41: 0x039A [0x80] LOAD_WAIT(entity=Chacharoon (ID: 17924187/0x0111805B))
 42: 0x039F [0x37] UPDATE_EVENT_POSITION_AND_DIR: x=5.042*, z=1.784*, y=0.101*, direction=314.4°*
 43: 0x03A8 [0x29] REQ_SET_WAIT(priority=0x08, entity_id=LocalPlayer, tag_num=0x4F)
 44: 0x03AF [0x29] REQ_SET_WAIT(priority=0x08, entity_id=Chacharoon (ID: 17924187/0x0111805B), tag_num=0x30)
 45: 0x03B6 [0x29] REQ_SET_WAIT(priority=0x08, entity_id=LocalPlayer, tag_num=0x0A)
 46: 0x03BD [0x29] REQ_SET_WAIT(priority=0x08, entity_id=Green Thumb Moogle (ID: 17924125/0x0111801D), tag_num=0x0F)
 47: 0x03C4 [0x4A] LocalPlayer looks at Chacharoon (ID: 17924187/0x0111805B)
 48: 0x03CD [0x4A] Chacharoon (ID: 17924187/0x0111805B) looks at LocalPlayer
 49: 0x03D6 [0x6F] WAIT_FRAME_DELAY: Yield until WaitTime reaches zero
 50: 0x03D7 [0x76] CHECK_ENTITY_RENDER_FLAGS: Wait until LocalPlayer Render.Flags0 and Render.Flags3 conditions are met
 51: 0x03DC [0x6F] WAIT_FRAME_DELAY: Yield until WaitTime reaches zero
 52: 0x03DD [0x76] CHECK_ENTITY_RENDER_FLAGS: Wait until Chacharoon (ID: 17924187/0x0111805B) Render.Flags0 and Render.Flags3 conditions are met
 53: 0x03E2 [0x45] LOAD_SCHEDULED_TASK: Load scheduler "s050" with entities [EventEntity, EventEntity], work=[757*, 0*]
 54: 0x03F3 [0x45] LOAD_SCHEDULED_TASK: Load scheduler "fdi1" with entities [LocalPlayer, LocalPlayer], work=[200*, 0*]
 55: 0x0404 [0x55] WAIT_LOAD_SCHEDULER: Wait for scheduler "fdi1" with entities [LocalPlayer, LocalPlayer], work=200*
 56: 0x0413 [0x1C] WAIT(120* ticks)
 57: 0x0416 [0x52] END_LOAD_SCHEDULER: End scheduler "s050" with entities [EventEntity, EventEntity], work=757*
 58: 0x0425 [0x45] LOAD_SCHEDULED_TASK: Load scheduler "s051" with entities [EventEntity, EventEntity], work=[757*, 0*]
 59: 0x0436 [0x1C] WAIT(120* ticks)
 60: 0x0439 [0x27] REQ_SET(priority=0x08, entity_id=Chacharoon (ID: 17924187/0x0111805B), tag_num=0x31)
 61: 0x0440 [0x52] END_LOAD_SCHEDULER: End scheduler "s051" with entities [EventEntity, EventEntity], work=757*
 62: 0x044F [0x02] IF !(Work_Zone[9] == 5*) GOTO 0x046B
 63: 0x0457 [0x45] LOAD_SCHEDULED_TASK: Load scheduler "s052" with entities [EventEntity, EventEntity], work=[757*, 0*]
 64: 0x0468 [0x01] GOTO 0x0498
 65: 0x046B [0x02] IF !(Work_Zone[9] == 6*) GOTO 0x0487
 66: 0x0473 [0x45] LOAD_SCHEDULED_TASK: Load scheduler "s052" with entities [EventEntity, EventEntity], work=[757*, 0*]
 67: 0x0484 [0x01] GOTO 0x0498
 68: 0x0487 [0x45] LOAD_SCHEDULED_TASK: Load scheduler "s000" with entities [EventEntity, EventEntity], work=[757*, 0*]

SUBROUTINE_0498:
 69: 0x0498 [0x2B] Chacharoon (ID: 17924187/0x0111805B) [8331*]:
    → "Chief, give wide-look to gaaarden! Much space for creatures!"
 70: 0x049F [0x23] WAIT_FOR_DIALOG_INTERACTION
 71: 0x04A0 [0x2A] GET_REQ_LEVEL(level=8, entity_id=Chacharoon (ID: 17924187/0x0111805B))
 72: 0x04A6 [0x02] IF !(Work_Zone[9] == 5*) GOTO 0x04C0
 73: 0x04AE [0x52] END_LOAD_SCHEDULER: End scheduler "s052" with entities [EventEntity, EventEntity], work=757*
 74: 0x04BD [0x01] GOTO 0x04E9
 75: 0x04C0 [0x02] IF !(Work_Zone[9] == 6*) GOTO 0x04DA
 76: 0x04C8 [0x52] END_LOAD_SCHEDULER: End scheduler "s052" with entities [EventEntity, EventEntity], work=757*
 77: 0x04D7 [0x01] GOTO 0x04E9
 78: 0x04DA [0x52] END_LOAD_SCHEDULER: End scheduler "s000" with entities [EventEntity, EventEntity], work=757*

SUBROUTINE_04E9:
 79: 0x04E9 [0x45] LOAD_SCHEDULED_TASK: Load scheduler "s001" with entities [EventEntity, EventEntity], work=[757*, 0*]
 80: 0x04FA [0x29] REQ_SET_WAIT(priority=0x08, entity_id=Chacharoon (ID: 17924187/0x0111805B), tag_num=0x01)
 81: 0x0501 [0x2B] Chacharoon (ID: 17924187/0x0111805B) [8332*]:
    → "Pretty like Adoulin princess! Chacharoon do much arm-liiifting and rock-pushing to make big space."
 82: 0x0508 [0x1C] WAIT(20* ticks)
 83: 0x050B [0x4B] UPDATE_ENTITY_YAW(entity=LocalPlayer, yaw=9.9°*)
 84: 0x0512 [0x6F] WAIT_FRAME_DELAY: Yield until WaitTime reaches zero
 85: 0x0513 [0x76] CHECK_ENTITY_RENDER_FLAGS: Wait until LocalPlayer Render.Flags0 and Render.Flags3 conditions are met
 86: 0x0518 [0x23] WAIT_FOR_DIALOG_INTERACTION
 87: 0x0519 [0x4A] LocalPlayer looks at Chacharoon (ID: 17924187/0x0111805B)
 88: 0x0522 [0x2B] Chacharoon (ID: 17924187/0x0111805B) [8333*]:
    → "Chief creature sleeep happy and eat happy here!"
 89: 0x0529 [0x23] WAIT_FOR_DIALOG_INTERACTION
 90: 0x052A [0x29] REQ_SET_WAIT(priority=0x08, entity_id=Chacharoon (ID: 17924187/0x0111805B), tag_num=0x02)
 91: 0x0531 [0x6F] WAIT_FRAME_DELAY: Yield until WaitTime reaches zero
 92: 0x0532 [0x76] CHECK_ENTITY_RENDER_FLAGS: Wait until LocalPlayer Render.Flags0 and Render.Flags3 conditions are met
 93: 0x0537 [0x29] REQ_SET_WAIT(priority=0x08, entity_id=Chacharoon (ID: 17924187/0x0111805B), tag_num=0x03)
 94: 0x053E [0x6E] LocalPlayer uses emote 7*
 95: 0x0545 [0x99] Wait for LocalPlayer animation to complete
 96: 0x054A [0x1C] WAIT(90* ticks)
 97: 0x054D [0x52] END_LOAD_SCHEDULER: End scheduler "s001" with entities [EventEntity, EventEntity], work=757*
 98: 0x055C [0x45] LOAD_SCHEDULED_TASK: Load scheduler "s002" with entities [EventEntity, EventEntity], work=[757*, 0*]
 99: 0x056D [0x29] REQ_SET_WAIT(priority=0x08, entity_id=Chacharoon (ID: 17924187/0x0111805B), tag_num=0x04)
100: 0x0574 [0x29] REQ_SET_WAIT(priority=0x08, entity_id=Chacharoon (ID: 17924187/0x0111805B), tag_num=0x09)
101: 0x057B [0x2B] Chacharoon (ID: 17924187/0x0111805B) [8334*]:
    → "Chacharoon happy than before, too!"
102: 0x0582 [0x23] WAIT_FOR_DIALOG_INTERACTION
103: 0x0583 [0x29] REQ_SET_WAIT(priority=0x08, entity_id=Chacharoon (ID: 17924187/0x0111805B), tag_num=0x0A)
104: 0x058A [0x52] END_LOAD_SCHEDULER: End scheduler "s002" with entities [EventEntity, EventEntity], work=757*
105: 0x0599 [0x45] LOAD_SCHEDULED_TASK: Load scheduler "s009" with entities [EventEntity, EventEntity], work=[757*, 0*]
106: 0x05AA [0x29] REQ_SET_WAIT(priority=0x08, entity_id=LocalPlayer, tag_num=0x48)
107: 0x05B1 [0x1C] WAIT(60* ticks)
108: 0x05B4 [0x5D] SET_MUSIC_VOLUME(volume=0*, fade_time=400*)
109: 0x05B9 [0x45] LOAD_SCHEDULED_TASK: Load scheduler "fdo1" with entities [LocalPlayer, LocalPlayer], work=[200*, 0*]
110: 0x05CA [0x55] WAIT_LOAD_SCHEDULER: Wait for scheduler "fdo1" with entities [LocalPlayer, LocalPlayer], work=200*
111: 0x05D9 [0x29] REQ_SET_WAIT(priority=0x08, entity_id=LocalPlayer, tag_num=0x49)
112: 0x05E0 [0x48] [System] [7328*]:
    → "@@"
113: 0x05E3 [0x23] WAIT_FOR_DIALOG_INTERACTION
114: 0x05E4 [0x7B] Chacharoon (ID: 17924187/0x0111805B) stops talking
115: 0x05E9 [0x29] REQ_SET_WAIT(priority=0x08, entity_id=Chacharoon (ID: 17924187/0x0111805B), tag_num=0x05)
116: 0x05F0 [0x29] REQ_SET_WAIT(priority=0x08, entity_id=Chacharoon (ID: 17924187/0x0111805B), tag_num=0x06)
117: 0x05F7 [0x81] SET_ENTITY_BLINKING(blink_flag=0x00, entity=Chacharoon (ID: 17924187/0x0111805B))
118: 0x05FD [0x52] END_LOAD_SCHEDULER: End scheduler "s009" with entities [EventEntity, EventEntity], work=757*
119: 0x060C [0x45] LOAD_SCHEDULED_TASK: Load scheduler "s003" with entities [EventEntity, EventEntity], work=[757*, 0*]
120: 0x061D [0x45] LOAD_SCHEDULED_TASK: Load scheduler "fdi1" with entities [LocalPlayer, LocalPlayer], work=[200*, 0*]
121: 0x062E [0x55] WAIT_LOAD_SCHEDULER: Wait for scheduler "fdi1" with entities [LocalPlayer, LocalPlayer], work=200*
122: 0x063D [0x1C] WAIT(120* ticks)
123: 0x0640 [0x52] END_LOAD_SCHEDULER: End scheduler "s003" with entities [EventEntity, EventEntity], work=757*
124: 0x064F [0x45] LOAD_SCHEDULED_TASK: Load scheduler "s004" with entities [EventEntity, EventEntity], work=[757*, 0*]
125: 0x0660 [0x1C] WAIT(100* ticks)
126: 0x0663 [0x2B] Chacharoon (ID: 17924187/0x0111805B) [8335*]:
    → "...Chacharoon jingly hand-taken?"
127: 0x066A [0x23] WAIT_FOR_DIALOG_INTERACTION
128: 0x066B [0x52] END_LOAD_SCHEDULER: End scheduler "s004" with entities [EventEntity, EventEntity], work=757*
129: 0x067A [0x02] IF !(Work_Zone[9] == 5*) GOTO 0x0696
130: 0x0682 [0x45] LOAD_SCHEDULED_TASK: Load scheduler "s053" with entities [EventEntity, EventEntity], work=[757*, 0*]
131: 0x0693 [0x01] GOTO 0x06C3
132: 0x0696 [0x02] IF !(Work_Zone[9] == 6*) GOTO 0x06B2
133: 0x069E [0x45] LOAD_SCHEDULED_TASK: Load scheduler "s053" with entities [EventEntity, EventEntity], work=[757*, 0*]
134: 0x06AF [0x01] GOTO 0x06C3
135: 0x06B2 [0x45] LOAD_SCHEDULED_TASK: Load scheduler "s005" with entities [EventEntity, EventEntity], work=[757*, 0*]

SUBROUTINE_06C3:
136: 0x06C3 [0x24] CREATE_DIALOG(message_id=8336*, default_option=0*, option_flags=0*)
    → "How do you cheer him up? [Don't let it get you down!/I'll give you some jingly!/We'll catch whoever did this!]"
137: 0x06CA [0x25] WAIT_DIALOG_SELECT()
138: 0x06CB [0x02] IF !(Work_Zone[0] == 0*) GOTO 0x076F
139: 0x06D3 [0x29] REQ_SET_WAIT(priority=0x08, entity_id=LocalPlayer, tag_num=0x48)
140: 0x06DA [0x1C] WAIT(90* ticks)
141: 0x06DD [0x29] REQ_SET_WAIT(priority=0x08, entity_id=Chacharoon (ID: 17924187/0x0111805B), tag_num=0x07)
142: 0x06E4 [0x29] REQ_SET_WAIT(priority=0x08, entity_id=Chacharoon (ID: 17924187/0x0111805B), tag_num=0x08)
143: 0x06EB [0x29] REQ_SET_WAIT(priority=0x08, entity_id=LocalPlayer, tag_num=0x49)
144: 0x06F2 [0x81] SET_ENTITY_BLINKING(blink_flag=0x01, entity=Chacharoon (ID: 17924187/0x0111805B))
145: 0x06F8 [0x79] Chacharoon (ID: 17924187/0x0111805B) looks at LocalPlayer (Basic look)
146: 0x0702 [0x1C] WAIT(90* ticks)
147: 0x0705 [0x02] IF !(Work_Zone[9] == 5*) GOTO 0x071F
148: 0x070D [0x52] END_LOAD_SCHEDULER: End scheduler "s053" with entities [EventEntity, EventEntity], work=757*
149: 0x071C [0x01] GOTO 0x0748
150: 0x071F [0x02] IF !(Work_Zone[9] == 6*) GOTO 0x0739
151: 0x0727 [0x52] END_LOAD_SCHEDULER: End scheduler "s053" with entities [EventEntity, EventEntity], work=757*
152: 0x0736 [0x01] GOTO 0x0748
153: 0x0739 [0x52] END_LOAD_SCHEDULER: End scheduler "s005" with entities [EventEntity, EventEntity], work=757*

SUBROUTINE_0748:
154: 0x0748 [0x45] LOAD_SCHEDULED_TASK: Load scheduler "s006" with entities [EventEntity, EventEntity], work=[757*, 0*]
155: 0x0759 [0x7B] Chacharoon (ID: 17924187/0x0111805B) stops talking
156: 0x075E [0x27] REQ_SET(priority=0x08, entity_id=Chacharoon (ID: 17924187/0x0111805B), tag_num=0x32)
157: 0x0765 [0x2B] Chacharoon (ID: 17924187/0x0111805B) [8337*]:
    → "Chacharoon not know what say..."
158: 0x076C [0x01] GOTO 0x0883
159: 0x076F [0x02] IF !(Work_Zone[0] == 1*) GOTO 0x0813
160: 0x0777 [0x29] REQ_SET_WAIT(priority=0x08, entity_id=LocalPlayer, tag_num=0x48)
