# 17924233 - Breeding Monster

## Common Data

| Field            | Value                |
|------------------|----------------------|
| Zone             | Mog Garden (ID: 280) |
| Block Size       | 9736 bytes           |
| Total Events     | 9                    |
| References Count | 109                  |

## List of Events

| Event ID                 | Entrypoint   |   Size |   Instructions |
|--------------------------|--------------|--------|----------------|
| [65535](#event-65535)    | 0x0000       |      1 |              1 |
| [65534](#event-65534)    | 0x0001       |      1 |              1 |
| [1076](#event-1076)      | 0x0002       |   2425 |            402 |
| [1081](#event-1081)      | 0x097B       |    289 |             54 |
| [65535.1](#event-655351) | 0x0A9C       |    211 |             33 |
| [2050](#event-2050)      | 0x0B6F       |      1 |              1 |
| [2051](#event-2051)      | 0x0B70       |    149 |             21 |
| [2053](#event-2053)      | 0x0C05       |      6 |              4 |
| [2054](#event-2054)      | 0x0C0B       |   6165 |           1046 |

## DAT References (imed_data)

|   Index | Hex Value   |   Dec Value |
|---------|-------------|-------------|
|       0 | 0x0034      |          52 |
|       1 | 0x02BC      |         700 |
|       2 | 0x0035      |          53 |
|       3 | 0x0037      |          55 |
|       4 | 0x0001      |           1 |
|       5 | 0x0000      |           0 |
|       6 | 0x00C8      |         200 |
|       7 | 0x0013      |          19 |
|       8 | 0xFFFFCEB1  |  4294954673 |
|       9 | 0x2F8A      |       12170 |
|      10 | 0x009C      |         156 |
|      11 | 0x0369      |         873 |
|      12 | 0x00ED      |         237 |
|      13 | 0x02B2      |         690 |
|      14 | 0x221A      |        8730 |
|      15 | 0x000D      |          13 |
|      16 | 0x221B      |        8731 |
|      17 | 0x221C      |        8732 |
|      18 | 0x221D      |        8733 |
|      19 | 0x000A      |          10 |
|      20 | 0x221E      |        8734 |
|      21 | 0x0008      |           8 |
|      22 | 0x000F      |          15 |
|      23 | 0x221F      |        8735 |
|      24 | 0x2220      |        8736 |
|      25 | 0x1D22      |        7458 |
|      26 | 0x0002      |           2 |
|      27 | 0x21E6      |        8678 |
|      28 | 0x21E7      |        8679 |
|      29 | 0x0DEE      |        3566 |
|      30 | 0x21E8      |        8680 |
|      31 | 0x000C      |          12 |
|      32 | 0x00EC      |         236 |
|      33 | 0x2222      |        8738 |
|      34 | 0x0003      |           3 |
|      35 | 0x21FF      |        8703 |
|      36 | 0x001E      |          30 |
|      37 | 0x222C      |        8748 |
|      38 | 0x222D      |        8749 |
|      39 | 0x003C      |          60 |
|      40 | 0x222E      |        8750 |
|      41 | 0x0032      |          50 |
|      42 | 0x0004      |           4 |
|      43 | 0x2206      |        8710 |
|      44 | 0x2205      |        8709 |
|      45 | 0x2204      |        8708 |
|      46 | 0x00EB      |         235 |
|      47 | 0x2203      |        8707 |
|      48 | 0x2202      |        8706 |
|      49 | 0x220B      |        8715 |
|      50 | 0x220A      |        8714 |
|      51 | 0x2209      |        8713 |
|      52 | 0x2208      |        8712 |
|      53 | 0x2207      |        8711 |
|      54 | 0x220D      |        8717 |
|      55 | 0x220E      |        8718 |
|      56 | 0x0010      |          16 |
|      57 | 0x001F      |          31 |
|      58 | 0x220F      |        8719 |
|      59 | 0x2210      |        8720 |
|      60 | 0x2211      |        8721 |
|      61 | 0x2212      |        8722 |
|      62 | 0x2213      |        8723 |
|      63 | 0xFFFFFFFF  |  4294967295 |
|      64 | 0x2218      |        8728 |
|      65 | 0x2219      |        8729 |
|      66 | 0x000B      |          11 |
|      67 | 0x2214      |        8724 |
|      68 | 0x2215      |        8725 |
|      69 | 0x2217      |        8727 |
|      70 | 0x2216      |        8726 |
|      71 | 0x0007      |           7 |
|      72 | 0x0017      |          23 |
|      73 | 0x0018      |          24 |
|      74 | 0x0012      |          18 |
|      75 | 0x0014      |          20 |
|      76 | 0x2223      |        8739 |
|      77 | 0x2228      |        8744 |
|      78 | 0x2229      |        8745 |
|      79 | 0x0005      |           5 |
|      80 | 0x0B62      |        2914 |
|      81 | 0x0155      |         341 |
|      82 | 0x0B64      |        2916 |
|      83 | 0x0121      |         289 |
|      84 | 0x0009      |           9 |
|      85 | 0x1DB4      |        7604 |
|      86 | 0x110E      |        4366 |
|      87 | 0x2224      |        8740 |
|      88 | 0x001A      |          26 |
|      89 | 0x001B      |          27 |
|      90 | 0x001C      |          28 |
|      91 | 0x0015      |          21 |
|      92 | 0x0006      |           6 |
|      93 | 0x0016      |          22 |
|      94 | 0x0019      |          25 |
|      95 | 0x0011      |          17 |
|      96 | 0x000E      |          14 |
|      97 | 0x001D      |          29 |
|      98 | 0x0063      |          99 |
|      99 | 0x0049      |          73 |
|     100 | 0xFFFFF62B  |  4294964779 |
|     101 | 0xFFFFEC34  |  4294962228 |
|     102 | 0x01C4      |         452 |
|     103 | 0x0CF5      |        3317 |
|     104 | 0x0048      |          72 |
|     105 | 0x582C8     |      361160 |
|     106 | 0xFFF788EE  |  4294412526 |
|     107 | 0xFFFFF2F4  |  4294963956 |
|     108 | 0x064D      |        1613 |

## String References

- **7604**: What a terrific time to test tag utility, kupo!
- **8678**: By putting %0 down, you will personally end its life. While there will be no physical repercussion for doing such, are you willing to have that on your conscience?
- **8679**: Put the creature down? [Yes, I have no reservations./No, not yet!]
- **8703**: What will you do? [Nothing./See how the critter's doing./Interact with the beast./Give the creature a name./Collect items.]
- **8706**: %0's practically bursting with joy!
- **8707**: %0's in an obviously good mood.
- **8708**: %0 looks calm and collected.
- **8709**: %0 seems to be pouting slightly.
- **8710**: %0 looks like it wants absolutely nothing to do with anyone.
- **8711**: [However,/However,/Moreover,/Moreover,/Moreover,] it couldn't be more content with its life.
- **8712**: [However,/However,/Moreover,/Moreover,/Moreover,] it seems to be duly satisfied with its lot in life.
- **8713**: [Moreover,/Moreover,/However,/However,/However,] it exudes a slight aura of discontent.
- **8714**: [Moreover,/Moreover,/However,/However,/However,] it is clearly unhappy with the way things are.
- **8715**: [Moreover,/Moreover,/However,/However,/However,] it seems thoroughly depressed about the abysmal conditions under which it lives.
- **8717**: Current growth level: [EEE/$25EE/$26EE/$26$25E/$26$26E/$26$26$25/$26$26$26/$26$26$26].
- **8718**: How will you interact? [Do nothing./Pet it./Poke it./Slap it./Yell loudly at it./Get angry at it.]
- **8719**: %0 stares off into the distance as if you're not even there.
- **8720**: %0 is visibly angry with what you just did.
- **8721**: That didn't go over too well with %0.
- **8722**: That was surprisingly not worthless in the eyes of %0!
- **8723**: That strongly resonated with %0!
- **8724**: Please bestow a name of 15 letters or fewer upon your creature. Taking no action will annul the process.
- **8725**: Is %0 fine? [Yes./No, I'll pick a new one./No, I quit.]
- **8728**: Try to collect items from your beloved beastie?
- **8729**: Proceed? [Yes, that sounds wonderful./No, I won't take any chances.]
- **8731**: %0's heart is shrouded in darkness, turning the creature against you! Leaving %0 in this state could spell doom for your garden.
- **8732**: Whatever will you do!? [Not a thing./Hope moogle magic does the trick./Put the creature down.]
- **8733**: This entails having the Green Thumb Moogle employ the power of shining stars to cast an incantation on the creature, thus calming it.
- **8734**: Use moogle magic? (On hand: $26 x $0) [Yes.i$26 x $1)/No.]
- **8736**: The darkness no longer dwells within %0's heart.
- **8738**: %0's face beams with the light of pure contentment! There is nothing that can foul %0's mood right now, including gathering items from it.
- **8739**: You gave %0 $1.
- **8740**: Perhaps it would be best to give %0 $1.
- **8744**: %0 squirms uncontrollably.
- **8745**: %0 shudders violently.
- **8748**: Creature type: [/Lamb/Sheep/Karakul/Sapling/Green Foliage Treat/Red Foliage Treant/Baby Rabbit/Rabbit/White Rabbit/Baby Lizard/Lizard/Alabaster Lizard/Ram/Baby Cockatrice/Cockatrice/Ziz/Baby Raptor/Raptor/Red Raptor/Baby Eft/Eft/Tarichuk/Dhalmel Calf/Dhalmel/Great Dhalmel/Sea Monk Larva/Sea Monk/Blue Sea Monk/Uragnite Youngling].
- **8749**: Creature Type: [Uragnite/Limascabra/Immature Crab/Crab/Porter Crab/Baby Colibri/Colibri/Toucalibri/Coeurl Cub/Coeurl/Lynx/Buffalo Calf/Buffalo/Mini Slime/Slime/Clot/Hecteyes/Tiny Bugard/Bugard/Abyssobugard/Baby Adamantoise/Adamantoise/Great Adamantoise/White Adamantoise/Ferromantoise/Great Ferromantoise/Cluster/Bomb/Djinn/Snoll].
- **8750**: Creature type: [Behemoth Cub/Behemoth/King Behemoth/Elasmoth/Skormoth/Dragon Hatchling/Wyvern/Blue Wyvern/Green Wyvern/Abyssal Wyrm/Lunar Wyrm/Blazing Wyrm/Pequetender/Sabotender/Jumbotender/Mandragora Sproutling/Mandragora/Elder Mandragora/Lycopodium/Korrigan/Pachypodium/Adenium/Elder Adenium/Ake-Ome/Citrullus].

## Events

### Event 65535

#### Metadata

| Field        | Value   |
|--------------|---------|
| Entrypoint   | 0x0000  |
| Data Size    | 1 bytes |
| Instructions | 1       |

```
      00 01 02 03 04 05 06 07  08 09 0A 0B 0C 0D 0E 0F
      -- -- -- -- -- -- -- --  -- -- -- -- -- -- -- --
0000: 00                                                .               
```

#### Opcodes

```
  0: 0x0000 [0x00] END_REQSTACK()
```

### Event 65534

#### Metadata

| Field        | Value   |
|--------------|---------|
| Entrypoint   | 0x0001  |
| Data Size    | 1 bytes |
| Instructions | 1       |

```
      00 01 02 03 04 05 06 07  08 09 0A 0B 0C 0D 0E 0F
      -- -- -- -- -- -- -- --  -- -- -- -- -- -- -- --
0000:    00                                              .              
```

#### Opcodes

```
  0: 0x0001 [0x00] END_REQSTACK()
```

### Event 1076

#### Metadata

| Field        | Value      |
|--------------|------------|
| Entrypoint   | 0x0002     |
| Data Size    | 2425 bytes |
| Instructions | 357        |

```
      00 01 02 03 04 05 06 07  08 09 0A 0B 0C 0D 0E 0F
      -- -- -- -- -- -- -- --  -- -- -- -- -- -- -- --
0000:       03 09 00 05 10 03  0B 00 06 10 1A 20 09 02    ........... ..
0010: 01 00 00 80 80 1D 00 39  01 80 01 3E 00 02 01 00  .......9...>....
0020: 02 80 80 2B 00 39 01 80  01 3E 00 02 01 00 03 80  ...+.9...>......
0030: 80 39 00 39 01 80 01 3E  00 1E F0 FF FF 7F 06 0E  .9.9...>........
0040: 00 03 0D 00 04 80 02 0D  00 05 80 02 4B 08 3E 04  ............K.>.
0050: 00 05 80 0A 04 42 46 01  45 06 80 F0 FF FF 7F F0  .....BF.E.......
0060: FF FF 7F 66 64 6F 31 05  80 55 06 80 F0 FF FF 7F  ...fdo1..U......
0070: F0 FF FF 7F 66 64 6F 31  38 07 80 2F 00 5B 80 11  ....fdo18../.[..
0080: 01 4E 00 5B 80 11 01 29  08 F0 FF FF 7F 23 37 08  .N.[...).....#7.
0090: 80 09 80 0A 80 0B 80 29  08 5B 80 11 01 21 80 5B  .......).[...!.[
00A0: 80 11 01 CD 0C 80 F8 FF  FF 7F F8 FF FF 7F 6F 6E  ..............on
00B0: 6D 79 05 80 4E 01 87 80  11 01 4A 5B 80 11 01 F8  my..N.....J[....
00C0: FF FF 7F 4A F8 FF FF 7F  F0 FF FF 7F 4A 1D 80 11  ...J........J...
00D0: 01 F8 FF FF 7F 6F 76 F8  FF FF 7F 6F 76 1D 80 11  .....ov....ov...
00E0: 01 6F 76 5B 80 11 01 92  01 5B 80 11 01 92 01 1D  .ov[.....[......
00F0: 80 11 01 92 01 F8 FF FF  7F 29 08 1D 80 11 01 49  .........).....I
0100: 45 0D 80 F0 FF FF 7F F0  FF FF 7F 73 31 30 33 05  E..........s103.
0110: 80 45 06 80 F0 FF FF 7F  F0 FF FF 7F 66 64 69 31  .E..........fdi1
0120: 05 80 55 06 80 F0 FF FF  7F F0 FF FF 7F 66 64 69  ..U..........fdi
0130: 31 2B 1D 80 11 01 0E 80  23 52 0D 80 F0 FF FF 7F  1+......#R......
0140: F0 FF FF 7F 73 31 30 33  3E 01 11 0F 80 63 01 45  ....s103>....c.E
0150: 0D 80 F0 FF FF 7F F0 FF  FF 7F 73 31 30 34 05 80  ..........s104..
0160: 01 74 01 45 0D 80 F0 FF  FF 7F F0 FF FF 7F 73 31  .t.E..........s1
0170: 30 35 05 80 48 10 80 23  29 08 1D 80 11 01 4A 3E  05..H..#).....J>
0180: 01 11 0F 80 98 01 52 0D  80 F0 FF FF 7F F0 FF FF  ......R.........
0190: 7F 73 31 30 34 01 A7 01  52 0D 80 F0 FF FF 7F F0  .s104...R.......
01A0: FF FF 7F 73 31 30 35 0B  0D 00 02 0D 00 04 80 02  ...s105.........
01B0: 07 04 24 11 80 05 80 05  80 25 02 00 10 05 80 00  ..$......%......
01C0: FC 01 45 06 80 F0 FF FF  7F F0 FF FF 7F 66 64 6F  ..E..........fdo
01D0: 31 05 80 55 06 80 F0 FF  FF 7F F0 FF FF 7F 66 64  1..U..........fd
01E0: 6F 31 46 00 45 06 80 F0  FF FF 7F F0 FF FF 7F 66  o1F.E..........f
01F0: 64 69 31 05 80 21 06 0D  00 01 04 04 02 00 10 04  di1..!..........
0200: 80 00 18 03 29 08 1D 80  11 01 6A 48 12 80 23 03  ....).....jH..#.
0210: 02 10 09 00 03 03 10 0A  00 07 03 10 04 80 02 03  ................
0220: 10 13 80 02 2B 02 03 03  10 13 80 24 14 80 04 80  ....+......$....
0230: 05 80 25 29 08 1D 80 11  01 6B 02 00 10 05 80 00  ..%).....k......
0240: 0A 03 06 01 10 40 15 80  16 80 01 10 0F 80 43 00  .....@........C.
0250: 43 01 02 09 10 05 80 00  FF 02 45 0D 80 F0 FF FF  C.........E.....
0260: 7F F0 FF FF 7F 73 31 30  32 05 80 29 08 1D 80 11  .....s102..)....
0270: 01 6C 2B 1D 80 11 01 17  80 23 29 08 1D 80 11 01  .l+......#).....
0280: 6D 52 0D 80 F0 FF FF 7F  F0 FF FF 7F 73 31 30 32  mR..........s102
0290: CD 0C 80 F8 FF FF 7F F8  FF FF 7F 6F 66 6D 79 05  ...........ofmy.
02A0: 80 45 06 80 F0 FF FF 7F  F0 FF FF 7F 66 64 6F 31  .E..........fdo1
02B0: 05 80 55 06 80 F0 FF FF  7F F0 FF FF 7F 66 64 6F  ..U..........fdo
02C0: 31 52 0D 80 F0 FF FF 7F  F0 FF FF 7F 73 31 30 32  1R..........s102
02D0: CD 0C 80 F8 FF FF 7F F8  FF FF 7F 6B 6C 6D 79 05  ...........klmy.
02E0: 80 48 18 80 23 46 00 45  06 80 F0 FF FF 7F F0 FF  .H..#F.E........
02F0: FF 7F 66 64 69 31 05 80  20 00 21 00 01 07 03 2B  ..fdi1.. .!....+
0300: 1D 80 11 01 19 80 23 01  15 03 02 00 10 04 80 00  ......#.........
0310: 15 03 01 15 03 01 04 04  02 00 10 1A 80 00 04 04  ................
0320: 48 1B 80 23 24 1C 80 04  80 05 80 25 02 00 10 05  H..#$......%....
0330: 80 00 F6 03 45 0D 80 F0  FF FF 7F F0 FF FF 7F 73  ....E..........s
0340: 31 30 34 05 80 7B 5B 80  11 01 5B 1D 80 5B 80 11  104..{[...[..[..
0350: 01 5B 80 11 01 68 65 64  30 2B 5B 80 11 01 1E 80  .[...hed0+[.....
0360: 23 45 06 80 F0 FF FF 7F  F0 FF FF 7F 66 64 6F 31  #E..........fdo1
0370: 05 80 55 06 80 F0 FF FF  7F F0 FF FF 7F 66 64 6F  ..U..........fdo
0380: 31 CD 0C 80 F8 FF FF 7F  F8 FF FF 7F 6B 6C 6D 79  1...........klmy
0390: 05 80 52 0D 80 F0 FF FF  7F F0 FF FF 7F 73 31 30  ..R..........s10
03A0: 34 53 5B 80 11 01 5B 80  11 01 68 65 64 30 5B 1D  4S[...[...hed0[.
03B0: 80 5B 80 11 01 5B 80 11  01 68 65 64 31 4E 01 5B  .[...[...hed1N.[
03C0: 80 11 01 2F 01 5B 80 11  01 06 01 10 40 15 80 16  .../.[......@...
03D0: 80 01 10 1F 80 43 00 43  01 1A 16 0C 46 00 45 06  .....C.C....F.E.
03E0: 80 F0 FF FF 7F F0 FF FF  7F 66 64 69 31 05 80 20  .........fdi1.. 
03F0: 00 21 00 01 01 04 02 00  10 04 80 00 01 04 01 01  .!..............
0400: 04 01 04 04 01 AA 01 01  48 08 3E 04 00 04 80 59  ........H.>....Y
0410: 04 3E 0E 00 05 80 1B 04  01 59 04 42 CD 20 80 F8  .>.......Y.B. ..
0420: FF FF 7F F8 FF FF 7F 6F  6E 6F 6E 05 80 48 21 80  .......onon..H!.
0430: 23 3C 0E 00 05 80 04 80  CE 20 80 F8 FF FF 7F F8  #<....... ......
0440: FF FF 7F 6F 6E 6F 6E CD  20 80 F8 FF FF 7F F8 FF  ...onon. .......
0450: FF 7F 6F 66 6F 6E 05 80  2E 2E 0E 0F 00 0B 00 3E  ..ofon.........>
0460: 0E 00 04 80 6D 04 3C 0F  00 1A 80 04 80 3E 0E 00  ....m.<......>..
0470: 1A 80 7B 04 3C 0F 00 22  80 04 80 24 23 80 05 80  ..{.<.."...$#...
0480: 0F 00 25 02 00 10 05 80  00 91 04 06 0D 00 01 48  ..%............H
0490: 08 02 00 10 04 80 00 55  06 03 03 10 01 00 15 03  .......U........
04A0: 10 24 80 02 03 10 05 80  80 B7 04 03 03 10 01 00  .$..............
04B0: 48 25 80 23 01 E9 04 02  03 10 04 80 80 D0 04 03  H%.#............
04C0: 03 10 01 00 08 03 10 24  80 48 26 80 23 01 E9 04  .......$.H&.#...
04D0: 02 03 10 1A 80 80 E9 04  03 03 10 01 00 08 03 10  ................
04E0: 27 80 48 28 80 23 01 E9  04 03 0C 00 03 00 15 0C  '.H(.#..........
04F0: 00 29 80 02 0C 00 05 80  03 01 05 06 0C 00 01 0E  .)..............
0500: 05 02 0C 00 2A 80 02 0E  05 03 0C 00 2A 80 42 02  ....*.......*.B.
0510: 0C 00 05 80 80 4F 05 CD  0C 80 F8 FF FF 7F F8 FF  .....O..........
0520: FF 7F 6F 6E 6D 79 05 80  48 2B 80 23 CE 0C 80 F8  ..onmy..H+.#....
0530: FF FF 7F F8 FF FF 7F 6F  6E 6D 79 CD 0C 80 F8 FF  .......onmy.....
0540: FF 7F F8 FF FF 7F 6F 66  6D 79 05 80 01 D0 05 02  ......ofmy......
0550: 0C 00 04 80 80 5E 05 48  2C 80 23 01 D0 05 02 0C  .....^.H,.#.....
0560: 00 1A 80 80 6D 05 48 2D  80 23 01 D0 05 02 0C 00  ....m.H-.#......
0570: 22 80 80 8D 05 CD 2E 80  F8 FF FF 7F F8 FF FF 7F  "...............
0580: 6D 61 69 6E 05 80 48 2F  80 23 01 D0 05 02 0C 00  main..H/.#......
0590: 2A 80 80 D0 05 CD 20 80  F8 FF FF 7F F8 FF FF 7F  *..... .........
05A0: 6F 6E 6F 6E 05 80 48 30  80 23 CE 20 80 F8 FF FF  onon..H0.#. ....
05B0: 7F F8 FF FF 7F 6F 6E 6F  6E CD 20 80 F8 FF FF 7F  .....onon. .....
05C0: F8 FF FF 7F 6F 66 6F 6E  05 80 1C 04 80 01 D0 05  ....ofon........
05D0: 2E 03 02 10 0C 00 03 0C  00 02 00 15 0C 00 29 80  ..............).
05E0: 02 0C 00 05 80 03 EE 05  06 0C 00 01 FB 05 02 0C  ................
05F0: 00 2A 80 02 FB 05 03 0C  00 2A 80 02 0C 00 05 80  .*.......*......
0600: 80 0A 06 48 31 80 23 01  46 06 02 0C 00 04 80 80  ...H1.#.F.......
0610: 19 06 48 32 80 23 01 46  06 02 0C 00 1A 80 80 28  ..H2.#.F.......(
0620: 06 48 33 80 23 01 46 06  02 0C 00 22 80 80 37 06  .H3.#.F...."..7.
0630: 48 34 80 23 01 46 06 02  0C 00 2A 80 80 46 06 48  H4.#.F....*..F.H
0640: 35 80 23 01 46 06 03 02  10 07 00 48 36 80 23 06  5.#.F......H6.#.
0650: 0D 00 01 48 08 02 00 10  1A 80 00 74 07 24 37 80  ...H.......t.$7.
0660: 05 80 05 80 25 02 00 10  05 80 00 70 06 01 70 06  ....%......p..p.
0670: 02 00 10 05 80 01 71 07  42 06 01 10 40 15 80 16  ......q.B...@...
0680: 80 01 10 13 80 40 38 80  39 80 01 10 00 10 43 00  .....@8.9.....C.
0690: 43 01 02 02 10 05 80 80  A1 06 48 3A 80 23 01 62  C.........H:.#.b
06A0: 07 02 02 10 04 80 80 E1  06 CD 0C 80 F8 FF FF 7F  ................
06B0: F8 FF FF 7F 6F 6E 6D 79  05 80 48 3B 80 23 CE 0C  ....onmy..H;.#..
06C0: 80 F8 FF FF 7F F8 FF FF  7F 6F 6E 6D 79 CD 0C 80  .........onmy...
06D0: F8 FF FF 7F F8 FF FF 7F  6F 66 6D 79 05 80 01 62  ........ofmy...b
06E0: 07 02 02 10 1A 80 80 F0  06 48 3C 80 23 01 62 07  .........H<.#.b.
06F0: 02 02 10 22 80 80 10 07  CD 2E 80 F8 FF FF 7F F8  ..."............
0700: FF FF 7F 6D 61 69 6E 05  80 48 3D 80 23 01 62 07  ...main..H=.#.b.
0710: 02 02 10 2A 80 80 53 07  CD 20 80 F8 FF FF 7F F8  ...*..S.. ......
0720: FF FF 7F 6F 6E 6F 6E 05  80 48 3E 80 23 CE 20 80  ...onon..H>.#. .
0730: F8 FF FF 7F F8 FF FF 7F  6F 6E 6F 6E CD 20 80 F8  ........onon. ..
0740: FF FF 7F F8 FF FF 7F 6F  66 6F 6E 05 80 1C 04 80  .......ofon.....
0750: 01 62 07 02 02 10 3F 80  80 62 07 48 3A 80 23 01  .b....?..b.H:.#.
0760: 62 07 02 09 10 05 80 01  6A 07 2E 06 0D 00 01 71  b.......j......q
0770: 07 01 48 08 02 00 10 22  80 00 82 07 1A 4D 08 01  ..H....".....M..
0780: 48 08 02 00 10 2A 80 00  48 08 48 40 80 23 24 41  H....*..H.H@.#$A
0790: 80 05 80 05 80 25 02 00  10 05 80 00 3A 08 42 06  .....%......:.B.
07A0: 01 10 40 15 80 16 80 01  10 42 80 43 00 43 01 02  ..@......B.C.C..
07B0: 02 10 05 80 80 EF 07 CD  0C 80 F8 FF FF 7F F8 FF  ................
07C0: FF 7F 6F 6E 6D 79 05 80  48 3C 80 23 CE 0C 80 F8  ..onmy..H<.#....
07D0: FF FF 7F F8 FF FF 7F 6F  6E 6D 79 CD 0C 80 F8 FF  .......onmy.....
07E0: FF 7F F8 FF FF 7F 6F 66  6D 79 05 80 01 33 08 02  ......ofmy...3..
07F0: 02 10 04 80 80 FE 07 48  3A 80 23 01 33 08 CD 0C  .......H:.#.3...
0800: 80 F8 FF FF 7F F8 FF FF  7F 6F 6E 6D 79 05 80 48  .........onmy..H
0810: 3B 80 23 CE 0C 80 F8 FF  FF 7F F8 FF FF 7F 6F 6E  ;.#...........on
0820: 6D 79 CD 0C 80 F8 FF FF  7F F8 FF FF 7F 6F 66 6D  my...........ofm
0830: 79 05 80 2E 06 0D 00 01  45 08 02 00 10 04 80 00  y.......E.......
0840: 45 08 01 45 08 01 48 08  01 46 00 21 00 B4 01 14  E..E..H..F.!....
0850: 00 05 80 0B 0D 00 02 0D  00 04 80 02 1F 09 48 43  ..............HC
0860: 80 71 32 1A 80 16 80 71  31 10 00 9D 08 10 00 01  .q2....q1.......
0870: 00 00 00 00 00 00 00 00  00 00 00 00 00 00 00 00  ................
0880: 19 09 B4 04 10 00 05 80  24 44 80 05 80 05 80 25  ........$D.....%
0890: 02 00 10 05 80 00 F1 08  42 71 03 02 10 02 02 10  ........Bq......
08A0: 05 80 00 DF 08 71 01 02  02 10 05 80 00 CE 08 CD  .....q..........
08B0: 2E 80 F8 FF FF 7F F8 FF  FF 7F 6D 61 69 6E 05 80  ..........main..
08C0: 2B 87 80 11 01 45 80 23  0C 0D 00 01 DC 08 2B 87  +....E.#......+.
08D0: 80 11 01 46 80 23 B4 04  14 00 05 80 01 ED 08 2B  ...F.#.........+
08E0: 87 80 11 01 46 80 23 B4  04 14 00 05 80 2E 01 16  ....F.#.........
08F0: 09 02 00 10 04 80 00 02  09 B4 04 14 00 05 80 01  ................
0900: 16 09 02 00 10 1A 80 00  16 09 B4 04 14 00 05 80  ................
0910: 0C 0D 00 01 16 09 01 1C  09 0C 0D 00 01 56 08 1B  .............V..
0920: 41 05 80 39 80 02 10 00  00 41 05 80 47 80 03 10  A..9.....A..G...
0930: 01 00 41 15 80 16 80 03  10 02 00 41 38 80 48 80  ..A........A8.H.
0940: 03 10 03 00 41 49 80 39  80 03 10 04 00 41 05 80  ....AI.9.....A..
0950: 47 80 04 10 05 00 41 15  80 16 80 04 10 06 00 41  G.....A........A
0960: 38 80 4A 80 04 10 07 00  41 07 80 07 80 04 10 08  8.J.....A.......
0970: 00 41 4B 80 48 80 04 10  0A 00 1B                 .AK.H......     
```

#### Opcodes

```
  0: 0x0002 [0x03] ExtData[1]->WorkLocal[9] = Work_Zone[5]
  1: 0x0007 [0x03] ExtData[1]->WorkLocal[11] = Work_Zone[6]
  2: 0x000C [0x1A] CALL_SUBROUTINE(address=0x0920)
  3: 0x000F [0x02] IF !(ExtData[1]->WorkLocal[1] == 52*) GOTO 0x001D
  4: 0x0017 [0x39] SET_ENTITY_DIRECTION(direction=3.8°*)
  5: 0x001A [0x01] GOTO 0x003E
  6: 0x001D [0x02] IF !(ExtData[1]->WorkLocal[1] == 53*) GOTO 0x002B
  7: 0x0025 [0x39] SET_ENTITY_DIRECTION(direction=3.8°*)
  8: 0x0028 [0x01] GOTO 0x003E
  9: 0x002B [0x02] IF !(ExtData[1]->WorkLocal[1] == 55*) GOTO 0x0039
 10: 0x0033 [0x39] SET_ENTITY_DIRECTION(direction=3.8°*)
 11: 0x0036 [0x01] GOTO 0x003E
 12: 0x0039 [0x1E] EventEntity looks at LocalPlayer and starts talking

SUBROUTINE_003E:
 13: 0x003E [0x06] ExtData[1]->WorkLocal[14] = 0
 14: 0x0041 [0x03] ExtData[1]->WorkLocal[13] = 1*

SUBROUTINE_0046:
 15: 0x0046 [0x02] IF !(ExtData[1]->WorkLocal[13] <= 0*) GOTO 0x084B
 16: 0x004E [0x3E] IF !(ExtData[1]->WorkLocal[4] bit 0*) GOTO 0x040A
 17: 0x0055 [0x42] SET_CLI_EVENT_CANCEL_DATA()
 18: 0x0056 [0x46] CAMERA_CONTROL: Disable user control
 19: 0x0058 [0x45] LOAD_SCHEDULED_TASK: Load scheduler "fdo1" with entities [LocalPlayer, LocalPlayer], work=[200*, 0*]
 20: 0x0069 [0x55] WAIT_LOAD_SCHEDULER: Wait for scheduler "fdo1" with entities [LocalPlayer, LocalPlayer], work=200*
 21: 0x0078 [0x38] SET_CLIENT_EVENT_MODE(mode=19*)
 22: 0x007B [0x2F] Chacharoon (ID: 17924187/0x0111805B)->Render.Flags0 &= ~0x80000 // Bit 19
 23: 0x0081 [0x4E] SET_ENTITY_HIDE_FLAG: Show Chacharoon (ID: 17924187/0x0111805B)
 24: 0x0087 [0x29] REQ_SET_WAIT(priority=0x08, entity_id=LocalPlayer, tag_num=0x23)
 25: 0x008E [0x37] UPDATE_EVENT_POSITION_AND_DIR: x=-12.623*, z=12.170*, y=0.156*, direction=76.7°*
 26: 0x0097 [0x29] REQ_SET_WAIT(priority=0x08, entity_id=Chacharoon (ID: 17924187/0x0111805B), tag_num=0x21)
 27: 0x009E [0x80] LOAD_WAIT(entity=Chacharoon (ID: 17924187/0x0111805B))
 28: 0x00A3 [0xCD] LOAD_SCHEDULED_TASK_ALT4: Load scheduler "onmy" with entities [EventEntity, EventEntity], work=[237*, 0*]
 29: 0x00B4 [0x4E] SET_ENTITY_HIDE_FLAG: Hide Chacharoon (ID: 17924231/0x01118087)
 30: 0x00BA [0x4A] Chacharoon (ID: 17924187/0x0111805B) looks at EventEntity
 31: 0x00C3 [0x4A] EventEntity looks at LocalPlayer
 32: 0x00CC [0x4A] Green Thumb Moogle (ID: 17924125/0x0111801D) looks at EventEntity
 33: 0x00D5 [0x6F] WAIT_FRAME_DELAY: Yield until WaitTime reaches zero
 34: 0x00D6 [0x76] CHECK_ENTITY_RENDER_FLAGS: Wait until EventEntity Render.Flags0 and Render.Flags3 conditions are met
 35: 0x00DB [0x6F] WAIT_FRAME_DELAY: Yield until WaitTime reaches zero
 36: 0x00DC [0x76] CHECK_ENTITY_RENDER_FLAGS: Wait until Green Thumb Moogle (ID: 17924125/0x0111801D) Render.Flags0 and Render.Flags3 conditions are met
 37: 0x00E1 [0x6F] WAIT_FRAME_DELAY: Yield until WaitTime reaches zero
 38: 0x00E2 [0x76] CHECK_ENTITY_RENDER_FLAGS: Wait until Chacharoon (ID: 17924187/0x0111805B) Render.Flags0 and Render.Flags3 conditions are met
 39: 0x00E7 [0x92] Chacharoon (ID: 17924187/0x0111805B)->Render.Flags3 ^= 0x01
 40: 0x00ED [0x92] Green Thumb Moogle (ID: 17924125/0x0111801D)->Render.Flags3 ^= 0x01
 41: 0x00F3 [0x92] EventEntity->Render.Flags3 ^= 0x01
 42: 0x00F9 [0x29] REQ_SET_WAIT(priority=0x08, entity_id=Green Thumb Moogle (ID: 17924125/0x0111801D), tag_num=0x49)
 43: 0x0100 [0x45] LOAD_SCHEDULED_TASK: Load scheduler "s103" with entities [LocalPlayer, LocalPlayer], work=[690*, 0*]
 44: 0x0111 [0x45] LOAD_SCHEDULED_TASK: Load scheduler "fdi1" with entities [LocalPlayer, LocalPlayer], work=[200*, 0*]
 45: 0x0122 [0x55] WAIT_LOAD_SCHEDULER: Wait for scheduler "fdi1" with entities [LocalPlayer, LocalPlayer], work=200*
 46: 0x0131 [0x2B] Green Thumb Moogle (ID: 17924125/0x0111801D) [8730*]:
    → "Pardon my perilous proclamation, but your bestial buddy has become a blight on this backyard of bounties! At this rate, you'll be hard-pressed to have a harvest at all, kupo!"
 47: 0x0138 [0x23] WAIT_FOR_DIALOG_INTERACTION
 48: 0x0139 [0x52] END_LOAD_SCHEDULER: End scheduler "s103" with entities [LocalPlayer, LocalPlayer], work=690*
 49: 0x0148 [0x3E] IF !(Work_Zone_Memorize[1] bit 13*) GOTO 0x0163
 50: 0x014F [0x45] LOAD_SCHEDULED_TASK: Load scheduler "s104" with entities [LocalPlayer, LocalPlayer], work=[690*, 0*]
 51: 0x0160 [0x01] GOTO 0x0174
 52: 0x0163 [0x45] LOAD_SCHEDULED_TASK: Load scheduler "s105" with entities [LocalPlayer, LocalPlayer], work=[690*, 0*]

SUBROUTINE_0174:
 53: 0x0174 [0x48] [System] [8731*]:
    → "%0's heart is shrouded in darkness, turning the creature against you! Leaving %0 in this state could spell doom for your garden."
 54: 0x0177 [0x23] WAIT_FOR_DIALOG_INTERACTION
 55: 0x0178 [0x29] REQ_SET_WAIT(priority=0x08, entity_id=Green Thumb Moogle (ID: 17924125/0x0111801D), tag_num=0x4A)
 56: 0x017F [0x3E] IF !(Work_Zone_Memorize[1] bit 13*) GOTO 0x0198
 57: 0x0186 [0x52] END_LOAD_SCHEDULER: End scheduler "s104" with entities [LocalPlayer, LocalPlayer], work=690*
 58: 0x0195 [0x01] GOTO 0x01A7
 59: 0x0198 [0x52] END_LOAD_SCHEDULER: End scheduler "s105" with entities [LocalPlayer, LocalPlayer], work=690*

SUBROUTINE_01A7:
 60: 0x01A7 [0x0B] ExtData[1]->WorkLocal[13]++

SUBROUTINE_01AA:
 61: 0x01AA [0x02] IF !(ExtData[1]->WorkLocal[13] <= 1*) GOTO 0x0407
 62: 0x01B2 [0x24] CREATE_DIALOG(message_id=8732*, default_option=0*, option_flags=0*)
    → "Whatever will you do!? [Not a thing./Hope moogle magic does the trick./Put the creature down.]"
 63: 0x01B9 [0x25] WAIT_DIALOG_SELECT()
 64: 0x01BA [0x02] IF !(Work_Zone[0] == 0*) GOTO 0x01FC
 65: 0x01C2 [0x45] LOAD_SCHEDULED_TASK: Load scheduler "fdo1" with entities [LocalPlayer, LocalPlayer], work=[200*, 0*]
 66: 0x01D3 [0x55] WAIT_LOAD_SCHEDULER: Wait for scheduler "fdo1" with entities [LocalPlayer, LocalPlayer], work=200*
 67: 0x01E2 [0x46] CAMERA_CONTROL: Restore default settings
 68: 0x01E4 [0x45] LOAD_SCHEDULED_TASK: Load scheduler "fdi1" with entities [LocalPlayer, LocalPlayer], work=[200*, 0*]
 69: 0x01F5 [0x21] END_EVENT

SUBROUTINE_0307:
 70: 0x0307 [0x01] GOTO 0x0315
 71: 0x030A [0x02] IF !(Work_Zone[0] == 1*) GOTO 0x0315
 72: 0x0312 [0x01] GOTO 0x0315

SUBROUTINE_0315:
 73: 0x0315 [0x01] GOTO 0x0404
 74: 0x0318 [0x02] IF !(Work_Zone[0] == 2*) GOTO 0x0404
 75: 0x0320 [0x48] [System] [8678*]:
    → "By putting %0 down, you will personally end its life. While there will be no physical repercussion for doing such, are you willing to have that on your conscience?"
 76: 0x0323 [0x23] WAIT_FOR_DIALOG_INTERACTION
 77: 0x0324 [0x24] CREATE_DIALOG(message_id=8679*, default_option=1*, option_flags=0*)
    → "Put the creature down? [Yes, I have no reservations./No, not yet!]"
 78: 0x032B [0x25] WAIT_DIALOG_SELECT()
 79: 0x032C [0x02] IF !(Work_Zone[0] == 0*) GOTO 0x03F6
 80: 0x0334 [0x45] LOAD_SCHEDULED_TASK: Load scheduler "s104" with entities [LocalPlayer, LocalPlayer], work=[690*, 0*]
 81: 0x0345 [0x7B] Chacharoon (ID: 17924187/0x0111805B) stops talking
 82: 0x034A [0x5B] LOAD_EXT_SCHEDULER: Load scheduler "hed0" with entities [Chacharoon (ID: 17924187/0x0111805B), Chacharoon (ID: 17924187/0x0111805B)], work=3566*
 83: 0x0359 [0x2B] Chacharoon (ID: 17924187/0x0111805B) [8680*]:
    → "<Snurk> Chacharoon...will not be forgetting %0...<snurk> ever. Waaaaaah!"
 84: 0x0360 [0x23] WAIT_FOR_DIALOG_INTERACTION
 85: 0x0361 [0x45] LOAD_SCHEDULED_TASK: Load scheduler "fdo1" with entities [LocalPlayer, LocalPlayer], work=[200*, 0*]
 86: 0x0372 [0x55] WAIT_LOAD_SCHEDULER: Wait for scheduler "fdo1" with entities [LocalPlayer, LocalPlayer], work=200*
 87: 0x0381 [0xCD] LOAD_SCHEDULED_TASK_ALT4: Load scheduler "klmy" with entities [EventEntity, EventEntity], work=[237*, 0*]
 88: 0x0392 [0x52] END_LOAD_SCHEDULER: End scheduler "s104" with entities [LocalPlayer, LocalPlayer], work=690*
 89: 0x03A1 [0x53] WAIT_SCHEDULER_TASK: Wait for scheduler "hed0" with entities [Chacharoon (ID: 17924187/0x0111805B), Chacharoon (ID: 17924187/0x0111805B)]
 90: 0x03AE [0x5B] LOAD_EXT_SCHEDULER: Load scheduler "hed1" with entities [Chacharoon (ID: 17924187/0x0111805B), Chacharoon (ID: 17924187/0x0111805B)], work=3566*
 91: 0x03BD [0x4E] SET_ENTITY_HIDE_FLAG: Hide Chacharoon (ID: 17924187/0x0111805B)
 92: 0x03C3 [0x2F] Chacharoon (ID: 17924187/0x0111805B)->Render.Flags0 |= 0x80000 // Bit 19
 93: 0x03C9 [0x06] Work_Zone[1] = 0
 94: 0x03CC [0x40] SET_BIT_WORK_RANGE(start_bit=8*, end_bit=15*, target=Work_Zone[1], source=12*)
 95: 0x03D5 [0x43] SEND_EVENT_UPDATE: Send pending tag to server (packet 0x005B)
 96: 0x03D7 [0x43] SEND_EVENT_UPDATE: Check pending flag (skip if not pending)
 97: 0x03D9 [0x1A] CALL_SUBROUTINE(address=0x0C16)
 98: 0x03DC [0x46] CAMERA_CONTROL: Restore default settings
 99: 0x03DE [0x45] LOAD_SCHEDULED_TASK: Load scheduler "fdi1" with entities [LocalPlayer, LocalPlayer], work=[200*, 0*]
100: 0x03EF [0x20] SET_CLI_EVENT_UC_FLAG: Unlock player control
101: 0x03F1 [0x21] END_EVENT
102: 0x03F2 [0x00] END_REQSTACK()

SUBROUTINE_0401:
103: 0x0401 [0x01] GOTO 0x0404

SUBROUTINE_0404:
104: 0x0404 [0x01] GOTO 0x01AA
105: 0x0407 [0x01] GOTO 0x0848
106: 0x040A [0x3E] IF !(ExtData[1]->WorkLocal[4] bit 1*) GOTO 0x0459
107: 0x0411 [0x3E] IF !(ExtData[1]->WorkLocal[14] bit 0*) GOTO 0x041B
108: 0x0418 [0x01] GOTO 0x0459
109: 0x041B [0x42] SET_CLI_EVENT_CANCEL_DATA()
110: 0x041C [0xCD] LOAD_SCHEDULED_TASK_ALT4: Load scheduler "onon" with entities [EventEntity, EventEntity], work=[236*, 0*]
111: 0x042D [0x48] [System] [8738*]:
    → "%0's face beams with the light of pure contentment! There is nothing that can foul %0's mood right now, including gathering items from it."
112: 0x0430 [0x23] WAIT_FOR_DIALOG_INTERACTION
113: 0x0431 [0x3C] SET_BIT_FLAG_CONDITIONAL(target_work_offset=ExtData[1]->WorkLocal[14], bit_index_work_offset=0*, condition_work_offset=1*)
114: 0x0438 [0xCE] WAIT_LOAD_SCHEDULER_ALT4: Wait for scheduler "onon" with entities [EventEntity, EventEntity], work=236*
115: 0x0447 [0xCD] LOAD_SCHEDULED_TASK_ALT4: Load scheduler "ofon" with entities [EventEntity, EventEntity], work=[236*, 0*]
116: 0x0458 [0x2E] SET_CLI_EVENT_CANCEL_FLAGS()

SUBROUTINE_0459:
117: 0x0459 [0x2E] SET_CLI_EVENT_CANCEL_FLAGS()
118: 0x045A [0x0E] ExtData[1]->WorkLocal[15] |= ExtData[1]->WorkLocal[11]
119: 0x045F [0x3E] IF !(ExtData[1]->WorkLocal[14] bit 1*) GOTO 0x046D
120: 0x0466 [0x3C] SET_BIT_FLAG_CONDITIONAL(target_work_offset=ExtData[1]->WorkLocal[15], bit_index_work_offset=2*, condition_work_offset=1*)
121: 0x046D [0x3E] IF !(ExtData[1]->WorkLocal[14] bit 2*) GOTO 0x047B
122: 0x0474 [0x3C] SET_BIT_FLAG_CONDITIONAL(target_work_offset=ExtData[1]->WorkLocal[15], bit_index_work_offset=3*, condition_work_offset=1*)
123: 0x047B [0x24] CREATE_DIALOG(message_id=8703*, default_option=0*, option_flags=ExtData[1]->WorkLocal[15])
    → "What will you do? [Nothing./See how the critter's doing./Interact with the beast./Give the creature a name./Collect items.]"
124: 0x0482 [0x25] WAIT_DIALOG_SELECT()
125: 0x0483 [0x02] IF !(Work_Zone[0] == 0*) GOTO 0x0491
126: 0x048B [0x06] ExtData[1]->WorkLocal[13] = 0
127: 0x048E [0x01] GOTO 0x0848
128: 0x0491 [0x02] IF !(Work_Zone[0] == 1*) GOTO 0x0655
129: 0x0499 [0x03] Work_Zone[3] = ExtData[1]->WorkLocal[1]
130: 0x049E [0x15] Work_Zone[3] /= 30*
131: 0x04A3 [0x02] IF !(Work_Zone[3] == 0*) GOTO 0x04B7
132: 0x04AB [0x03] Work_Zone[3] = ExtData[1]->WorkLocal[1]
133: 0x04B0 [0x48] [System] [8748*]:
    → "Creature type: [/Lamb/Sheep/Karakul/Sapling/Green Foliage Treat/Red Foliage Treant/Baby Rabbit/Rabbit/White Rabbit/Baby Lizard/Lizard/Alabaster Lizard/Ram/Baby Cockatrice/Cockatrice/Ziz/Baby Raptor/Raptor/Red Raptor/Baby Eft/Eft/Tarichuk/Dhalmel Calf/Dhalmel/Great Dhalmel/Sea Monk Larva/Sea Monk/Blue Sea Monk/Uragnite Youngling]."
134: 0x04B3 [0x23] WAIT_FOR_DIALOG_INTERACTION
135: 0x04B4 [0x01] GOTO 0x04E9
136: 0x04B7 [0x02] IF !(Work_Zone[3] == 1*) GOTO 0x04D0
137: 0x04BF [0x03] Work_Zone[3] = ExtData[1]->WorkLocal[1]
138: 0x04C4 [0x08] Work_Zone[3] -= 30*
139: 0x04C9 [0x48] [System] [8749*]:
    → "Creature Type: [Uragnite/Limascabra/Immature Crab/Crab/Porter Crab/Baby Colibri/Colibri/Toucalibri/Coeurl Cub/Coeurl/Lynx/Buffalo Calf/Buffalo/Mini Slime/Slime/Clot/Hecteyes/Tiny Bugard/Bugard/Abyssobugard/Baby Adamantoise/Adamantoise/Great Adamantoise/White Adamantoise/Ferromantoise/Great Ferromantoise/Cluster/Bomb/Djinn/Snoll]."
140: 0x04CC [0x23] WAIT_FOR_DIALOG_INTERACTION
141: 0x04CD [0x01] GOTO 0x04E9
142: 0x04D0 [0x02] IF !(Work_Zone[3] == 2*) GOTO 0x04E9
143: 0x04D8 [0x03] Work_Zone[3] = ExtData[1]->WorkLocal[1]
144: 0x04DD [0x08] Work_Zone[3] -= 60*
145: 0x04E2 [0x48] [System] [8750*]:
    → "Creature type: [Behemoth Cub/Behemoth/King Behemoth/Elasmoth/Skormoth/Dragon Hatchling/Wyvern/Blue Wyvern/Green Wyvern/Abyssal Wyrm/Lunar Wyrm/Blazing Wyrm/Pequetender/Sabotender/Jumbotender/Mandragora Sproutling/Mandragora/Elder Mandragora/Lycopodium/Korrigan/Pachypodium/Adenium/Elder Adenium/Ake-Ome/Citrullus]."
146: 0x04E5 [0x23] WAIT_FOR_DIALOG_INTERACTION
147: 0x04E6 [0x01] GOTO 0x04E9

SUBROUTINE_04E9:
148: 0x04E9 [0x03] ExtData[1]->WorkLocal[12] = ExtData[1]->WorkLocal[3]
149: 0x04EE [0x15] ExtData[1]->WorkLocal[12] /= 50*
150: 0x04F3 [0x02] IF !(ExtData[1]->WorkLocal[12] >= 0*) GOTO 0x0501
151: 0x04FB [0x06] ExtData[1]->WorkLocal[12] = 0
152: 0x04FE [0x01] GOTO 0x050E
153: 0x0501 [0x02] IF !(ExtData[1]->WorkLocal[12] <= 4*) GOTO 0x050E
154: 0x0509 [0x03] ExtData[1]->WorkLocal[12] = 4*

SUBROUTINE_050E:
155: 0x050E [0x42] SET_CLI_EVENT_CANCEL_DATA()
156: 0x050F [0x02] IF !(ExtData[1]->WorkLocal[12] == 0*) GOTO 0x054F
157: 0x0517 [0xCD] LOAD_SCHEDULED_TASK_ALT4: Load scheduler "onmy" with entities [EventEntity, EventEntity], work=[237*, 0*]
158: 0x0528 [0x48] [System] [8710*]:
    → "%0 looks like it wants absolutely nothing to do with anyone."
159: 0x052B [0x23] WAIT_FOR_DIALOG_INTERACTION
160: 0x052C [0xCE] WAIT_LOAD_SCHEDULER_ALT4: Wait for scheduler "onmy" with entities [EventEntity, EventEntity], work=237*
161: 0x053B [0xCD] LOAD_SCHEDULED_TASK_ALT4: Load scheduler "ofmy" with entities [EventEntity, EventEntity], work=[237*, 0*]
162: 0x054C [0x01] GOTO 0x05D0
163: 0x054F [0x02] IF !(ExtData[1]->WorkLocal[12] == 1*) GOTO 0x055E
164: 0x0557 [0x48] [System] [8709*]:
    → "%0 seems to be pouting slightly."
165: 0x055A [0x23] WAIT_FOR_DIALOG_INTERACTION
166: 0x055B [0x01] GOTO 0x05D0
167: 0x055E [0x02] IF !(ExtData[1]->WorkLocal[12] == 2*) GOTO 0x056D
168: 0x0566 [0x48] [System] [8708*]:
    → "%0 looks calm and collected."
169: 0x0569 [0x23] WAIT_FOR_DIALOG_INTERACTION
170: 0x056A [0x01] GOTO 0x05D0
171: 0x056D [0x02] IF !(ExtData[1]->WorkLocal[12] == 3*) GOTO 0x058D
172: 0x0575 [0xCD] LOAD_SCHEDULED_TASK_ALT4: Load scheduler "main" with entities [EventEntity, EventEntity], work=[235*, 0*]
173: 0x0586 [0x48] [System] [8707*]:
    → "%0's in an obviously good mood."
174: 0x0589 [0x23] WAIT_FOR_DIALOG_INTERACTION
175: 0x058A [0x01] GOTO 0x05D0
176: 0x058D [0x02] IF !(ExtData[1]->WorkLocal[12] == 4*) GOTO 0x05D0
177: 0x0595 [0xCD] LOAD_SCHEDULED_TASK_ALT4: Load scheduler "onon" with entities [EventEntity, EventEntity], work=[236*, 0*]
178: 0x05A6 [0x48] [System] [8706*]:
    → "%0's practically bursting with joy!"
179: 0x05A9 [0x23] WAIT_FOR_DIALOG_INTERACTION
180: 0x05AA [0xCE] WAIT_LOAD_SCHEDULER_ALT4: Wait for scheduler "onon" with entities [EventEntity, EventEntity], work=236*
181: 0x05B9 [0xCD] LOAD_SCHEDULED_TASK_ALT4: Load scheduler "ofon" with entities [EventEntity, EventEntity], work=[236*, 0*]
182: 0x05CA [0x1C] WAIT(1* ticks)
183: 0x05CD [0x01] GOTO 0x05D0

SUBROUTINE_05D0:
184: 0x05D0 [0x2E] SET_CLI_EVENT_CANCEL_FLAGS()
185: 0x05D1 [0x03] Work_Zone[2] = ExtData[1]->WorkLocal[12]
186: 0x05D6 [0x03] ExtData[1]->WorkLocal[12] = ExtData[1]->WorkLocal[2]
187: 0x05DB [0x15] ExtData[1]->WorkLocal[12] /= 50*
188: 0x05E0 [0x02] IF !(ExtData[1]->WorkLocal[12] >= 0*) GOTO 0x05EE
189: 0x05E8 [0x06] ExtData[1]->WorkLocal[12] = 0
190: 0x05EB [0x01] GOTO 0x05FB
191: 0x05EE [0x02] IF !(ExtData[1]->WorkLocal[12] <= 4*) GOTO 0x05FB
192: 0x05F6 [0x03] ExtData[1]->WorkLocal[12] = 4*

SUBROUTINE_05FB:
193: 0x05FB [0x02] IF !(ExtData[1]->WorkLocal[12] == 0*) GOTO 0x060A
194: 0x0603 [0x48] [System] [8715*]:
    → "[Moreover,/Moreover,/However,/However,/However,] it seems thoroughly depressed about the abysmal conditions under which it lives."
195: 0x0606 [0x23] WAIT_FOR_DIALOG_INTERACTION
196: 0x0607 [0x01] GOTO 0x0646
197: 0x060A [0x02] IF !(ExtData[1]->WorkLocal[12] == 1*) GOTO 0x0619
198: 0x0612 [0x48] [System] [8714*]:
    → "[Moreover,/Moreover,/However,/However,/However,] it is clearly unhappy with the way things are."
199: 0x0615 [0x23] WAIT_FOR_DIALOG_INTERACTION
200: 0x0616 [0x01] GOTO 0x0646
201: 0x0619 [0x02] IF !(ExtData[1]->WorkLocal[12] == 2*) GOTO 0x0628
202: 0x0621 [0x48] [System] [8713*]:
    → "[Moreover,/Moreover,/However,/However,/However,] it exudes a slight aura of discontent."
203: 0x0624 [0x23] WAIT_FOR_DIALOG_INTERACTION
204: 0x0625 [0x01] GOTO 0x0646
205: 0x0628 [0x02] IF !(ExtData[1]->WorkLocal[12] == 3*) GOTO 0x0637
206: 0x0630 [0x48] [System] [8712*]:
    → "[However,/However,/Moreover,/Moreover,/Moreover,] it seems to be duly satisfied with its lot in life."
207: 0x0633 [0x23] WAIT_FOR_DIALOG_INTERACTION
208: 0x0634 [0x01] GOTO 0x0646
209: 0x0637 [0x02] IF !(ExtData[1]->WorkLocal[12] == 4*) GOTO 0x0646
210: 0x063F [0x48] [System] [8711*]:
    → "[However,/However,/Moreover,/Moreover,/Moreover,] it couldn't be more content with its life."
211: 0x0642 [0x23] WAIT_FOR_DIALOG_INTERACTION
212: 0x0643 [0x01] GOTO 0x0646

SUBROUTINE_0646:
213: 0x0646 [0x03] Work_Zone[2] = ExtData[1]->WorkLocal[7]
214: 0x064B [0x48] [System] [8717*]:
    → "Current growth level: [EEE/$25EE/$26EE/$26$25E/$26$26E/$26$26$25/$26$26$26/$26$26$26]."
215: 0x064E [0x23] WAIT_FOR_DIALOG_INTERACTION
216: 0x064F [0x06] ExtData[1]->WorkLocal[13] = 0
217: 0x0652 [0x01] GOTO 0x0848
218: 0x0655 [0x02] IF !(Work_Zone[0] == 2*) GOTO 0x0774
219: 0x065D [0x24] CREATE_DIALOG(message_id=8718*, default_option=0*, option_flags=0*)
    → "How will you interact? [Do nothing./Pet it./Poke it./Slap it./Yell loudly at it./Get angry at it.]"
220: 0x0664 [0x25] WAIT_DIALOG_SELECT()
221: 0x0665 [0x02] IF !(Work_Zone[0] == 0*) GOTO 0x0670
222: 0x066D [0x01] GOTO 0x0670

SUBROUTINE_0670:
223: 0x0670 [0x02] IF !(Work_Zone[0] == 0*) GOTO 0x0771
224: 0x0678 [0x42] SET_CLI_EVENT_CANCEL_DATA()
225: 0x0679 [0x06] Work_Zone[1] = 0
226: 0x067C [0x40] SET_BIT_WORK_RANGE(start_bit=8*, end_bit=15*, target=Work_Zone[1], source=10*)
227: 0x0685 [0x40] SET_BIT_WORK_RANGE(start_bit=16*, end_bit=31*, target=Work_Zone[1], source=Work_Zone[0])
228: 0x068E [0x43] SEND_EVENT_UPDATE: Send pending tag to server (packet 0x005B)
229: 0x0690 [0x43] SEND_EVENT_UPDATE: Check pending flag (skip if not pending)
230: 0x0692 [0x02] IF !(Work_Zone[2] == 0*) GOTO 0x06A1
231: 0x069A [0x48] [System] [8719*]:
    → "%0 stares off into the distance as if you're not even there."
232: 0x069D [0x23] WAIT_FOR_DIALOG_INTERACTION
233: 0x069E [0x01] GOTO 0x0762
234: 0x06A1 [0x02] IF !(Work_Zone[2] == 1*) GOTO 0x06E1
235: 0x06A9 [0xCD] LOAD_SCHEDULED_TASK_ALT4: Load scheduler "onmy" with entities [EventEntity, EventEntity], work=[237*, 0*]
236: 0x06BA [0x48] [System] [8720*]:
    → "%0 is visibly angry with what you just did."
237: 0x06BD [0x23] WAIT_FOR_DIALOG_INTERACTION
238: 0x06BE [0xCE] WAIT_LOAD_SCHEDULER_ALT4: Wait for scheduler "onmy" with entities [EventEntity, EventEntity], work=237*
239: 0x06CD [0xCD] LOAD_SCHEDULED_TASK_ALT4: Load scheduler "ofmy" with entities [EventEntity, EventEntity], work=[237*, 0*]
240: 0x06DE [0x01] GOTO 0x0762
241: 0x06E1 [0x02] IF !(Work_Zone[2] == 2*) GOTO 0x06F0
242: 0x06E9 [0x48] [System] [8721*]:
    → "That didn't go over too well with %0."
243: 0x06EC [0x23] WAIT_FOR_DIALOG_INTERACTION
244: 0x06ED [0x01] GOTO 0x0762
245: 0x06F0 [0x02] IF !(Work_Zone[2] == 3*) GOTO 0x0710
246: 0x06F8 [0xCD] LOAD_SCHEDULED_TASK_ALT4: Load scheduler "main" with entities [EventEntity, EventEntity], work=[235*, 0*]
247: 0x0709 [0x48] [System] [8722*]:
    → "That was surprisingly not worthless in the eyes of %0!"
248: 0x070C [0x23] WAIT_FOR_DIALOG_INTERACTION
249: 0x070D [0x01] GOTO 0x0762
250: 0x0710 [0x02] IF !(Work_Zone[2] == 4*) GOTO 0x0753
251: 0x0718 [0xCD] LOAD_SCHEDULED_TASK_ALT4: Load scheduler "onon" with entities [EventEntity, EventEntity], work=[236*, 0*]
252: 0x0729 [0x48] [System] [8723*]:
    → "That strongly resonated with %0!"
253: 0x072C [0x23] WAIT_FOR_DIALOG_INTERACTION
254: 0x072D [0xCE] WAIT_LOAD_SCHEDULER_ALT4: Wait for scheduler "onon" with entities [EventEntity, EventEntity], work=236*
255: 0x073C [0xCD] LOAD_SCHEDULED_TASK_ALT4: Load scheduler "ofon" with entities [EventEntity, EventEntity], work=[236*, 0*]
256: 0x074D [0x1C] WAIT(1* ticks)
257: 0x0750 [0x01] GOTO 0x0762
258: 0x0753 [0x02] IF !(Work_Zone[2] == 4294967295*) GOTO 0x0762
259: 0x075B [0x48] [System] [8719*]:
    → "%0 stares off into the distance as if you're not even there."
260: 0x075E [0x23] WAIT_FOR_DIALOG_INTERACTION
261: 0x075F [0x01] GOTO 0x0762

SUBROUTINE_0762:
262: 0x0762 [0x02] IF !(Work_Zone[9] == 0*) GOTO 0x076A
263: 0x076A [0x2E] SET_CLI_EVENT_CANCEL_FLAGS()
264: 0x076B [0x06] ExtData[1]->WorkLocal[13] = 0
265: 0x076E [0x01] GOTO 0x0771

SUBROUTINE_0771:
266: 0x0771 [0x01] GOTO 0x0848
267: 0x0774 [0x02] IF !(Work_Zone[0] == 3*) GOTO 0x0782
268: 0x077C [0x1A] CALL_SUBROUTINE(address=0x084D)
269: 0x077F [0x01] GOTO 0x0848
270: 0x0782 [0x02] IF !(Work_Zone[0] == 4*) GOTO 0x0848
271: 0x078A [0x48] [System] [8728*]:
    → "Try to collect items from your beloved beastie?"
272: 0x078D [0x23] WAIT_FOR_DIALOG_INTERACTION
273: 0x078E [0x24] CREATE_DIALOG(message_id=8729*, default_option=0*, option_flags=0*)
    → "Proceed? [Yes, that sounds wonderful./No, I won't take any chances.]"
274: 0x0795 [0x25] WAIT_DIALOG_SELECT()
275: 0x0796 [0x02] IF !(Work_Zone[0] == 0*) GOTO 0x083A
276: 0x079E [0x42] SET_CLI_EVENT_CANCEL_DATA()
277: 0x079F [0x06] Work_Zone[1] = 0
278: 0x07A2 [0x40] SET_BIT_WORK_RANGE(start_bit=8*, end_bit=15*, target=Work_Zone[1], source=11*)
279: 0x07AB [0x43] SEND_EVENT_UPDATE: Send pending tag to server (packet 0x005B)
280: 0x07AD [0x43] SEND_EVENT_UPDATE: Check pending flag (skip if not pending)
281: 0x07AF [0x02] IF !(Work_Zone[2] == 0*) GOTO 0x07EF
282: 0x07B7 [0xCD] LOAD_SCHEDULED_TASK_ALT4: Load scheduler "onmy" with entities [EventEntity, EventEntity], work=[237*, 0*]
283: 0x07C8 [0x48] [System] [8721*]:
    → "That didn't go over too well with %0."
284: 0x07CB [0x23] WAIT_FOR_DIALOG_INTERACTION
285: 0x07CC [0xCE] WAIT_LOAD_SCHEDULER_ALT4: Wait for scheduler "onmy" with entities [EventEntity, EventEntity], work=237*
286: 0x07DB [0xCD] LOAD_SCHEDULED_TASK_ALT4: Load scheduler "ofmy" with entities [EventEntity, EventEntity], work=[237*, 0*]
287: 0x07EC [0x01] GOTO 0x0833
288: 0x07EF [0x02] IF !(Work_Zone[2] == 1*) GOTO 0x07FE
289: 0x07F7 [0x48] [System] [8719*]:
    → "%0 stares off into the distance as if you're not even there."
290: 0x07FA [0x23] WAIT_FOR_DIALOG_INTERACTION
291: 0x07FB [0x01] GOTO 0x0833
292: 0x07FE [0xCD] LOAD_SCHEDULED_TASK_ALT4: Load scheduler "onmy" with entities [EventEntity, EventEntity], work=[237*, 0*]
293: 0x080F [0x48] [System] [8720*]:
    → "%0 is visibly angry with what you just did."
294: 0x0812 [0x23] WAIT_FOR_DIALOG_INTERACTION
295: 0x0813 [0xCE] WAIT_LOAD_SCHEDULER_ALT4: Wait for scheduler "onmy" with entities [EventEntity, EventEntity], work=237*
296: 0x0822 [0xCD] LOAD_SCHEDULED_TASK_ALT4: Load scheduler "ofmy" with entities [EventEntity, EventEntity], work=[237*, 0*]

SUBROUTINE_0833:
297: 0x0833 [0x2E] SET_CLI_EVENT_CANCEL_FLAGS()
298: 0x0834 [0x06] ExtData[1]->WorkLocal[13] = 0
299: 0x0837 [0x01] GOTO 0x0845
300: 0x083A [0x02] IF !(Work_Zone[0] == 1*) GOTO 0x0845
301: 0x0842 [0x01] GOTO 0x0845

SUBROUTINE_0845:
302: 0x0845 [0x01] GOTO 0x0848

SUBROUTINE_0848:
303: 0x0848 [0x01] GOTO 0x0046
304: 0x084B [0x21] END_EVENT
305: 0x084C [0x00] END_REQSTACK()

SUBROUTINE_084D:
306: 0x084D [0xB4] UI_WINDOW_STRING_HANDLER(case=0x01 - Copy string from event strings table, work_offset=ExtData[1]->WorkLocal[20], string_index=0*)
307: 0x0853 [0x0B] ExtData[1]->WorkLocal[13]++

SUBROUTINE_0856:
308: 0x0856 [0x02] IF !(ExtData[1]->WorkLocal[13] <= 1*) GOTO 0x091F
309: 0x085E [0x48] [System] [8724*]:
    → "Please bestow a name of 15 letters or fewer upon your creature. Taking no action will annul the process."
310: 0x0861 [0x71] USER_INPUT_HANDLER: Menu operation with params (params=[0x801A, 0x8016])
311: 0x0867 [0x71] USER_INPUT_HANDLER: Menu operation B (param=0x0010)
312: 0x086B [0x9D] IF (strcmp(ExtData[1]->WorkLocal[16], 00000000000000000000000000000019) != 0) GOTO 0x09 // Also sets ExtData[1]->WorkLocal[1]
313: 0x0882 [0xB4] UI_WINDOW_STRING_HANDLER(case=0x04 - Copy string to shared buffers, work_offset1=ExtData[1]->WorkLocal[16], work_offset2=0*)
314: 0x0888 [0x24] CREATE_DIALOG(message_id=8725*, default_option=0*, option_flags=0*)
    → "Is %0 fine? [Yes./No, I'll pick a new one./No, I quit.]"
315: 0x088F [0x25] WAIT_DIALOG_SELECT()
316: 0x0890 [0x02] IF !(Work_Zone[0] == 0*) GOTO 0x08F1
317: 0x0898 [0x42] SET_CLI_EVENT_CANCEL_DATA()
318: 0x0899 [0x71] USER_INPUT_HANDLER: Check vulgar filter (work=Work_Zone[2])
319: 0x089D [0x02] IF !(Work_Zone[2] == 0*) GOTO 0x08DF
320: 0x08A5 [0x71] USER_INPUT_HANDLER: Check if player has input or exited
321: 0x08A7 [0x02] IF !(Work_Zone[2] == 0*) GOTO 0x08CE
322: 0x08AF [0xCD] LOAD_SCHEDULED_TASK_ALT4: Load scheduler "main" with entities [EventEntity, EventEntity], work=[235*, 0*]
323: 0x08C0 [0x2B] Chacharoon (ID: 17924231/0x01118087) [8727*]:
    → "Oooh, %0 is name of much preeetty! Is sign that many times of good be coming."
324: 0x08C7 [0x23] WAIT_FOR_DIALOG_INTERACTION
325: 0x08C8 [0x0C] ExtData[1]->WorkLocal[13]--
326: 0x08CB [0x01] GOTO 0x08DC
327: 0x08CE [0x2B] Chacharoon (ID: 17924231/0x01118087) [8726*]:
    → "Hmmm... This name too haaard for Chacharoon. Sorry, but giving new name is best."
328: 0x08D5 [0x23] WAIT_FOR_DIALOG_INTERACTION
329: 0x08D6 [0xB4] UI_WINDOW_STRING_HANDLER(case=0x04 - Copy string to shared buffers, work_offset1=ExtData[1]->WorkLocal[20], work_offset2=0*)

SUBROUTINE_08DC:
330: 0x08DC [0x01] GOTO 0x08ED
331: 0x08DF [0x2B] Chacharoon (ID: 17924231/0x01118087) [8726*]:
    → "Hmmm... This name too haaard for Chacharoon. Sorry, but giving new name is best."
332: 0x08E6 [0x23] WAIT_FOR_DIALOG_INTERACTION
333: 0x08E7 [0xB4] UI_WINDOW_STRING_HANDLER(case=0x04 - Copy string to shared buffers, work_offset1=ExtData[1]->WorkLocal[20], work_offset2=0*)

SUBROUTINE_08ED:
334: 0x08ED [0x2E] SET_CLI_EVENT_CANCEL_FLAGS()
335: 0x08EE [0x01] GOTO 0x0916
336: 0x08F1 [0x02] IF !(Work_Zone[0] == 1*) GOTO 0x0902
337: 0x08F9 [0xB4] UI_WINDOW_STRING_HANDLER(case=0x04 - Copy string to shared buffers, work_offset1=ExtData[1]->WorkLocal[20], work_offset2=0*)
338: 0x08FF [0x01] GOTO 0x0916
339: 0x0902 [0x02] IF !(Work_Zone[0] == 2*) GOTO 0x0916
340: 0x090A [0xB4] UI_WINDOW_STRING_HANDLER(case=0x04 - Copy string to shared buffers, work_offset1=ExtData[1]->WorkLocal[20], work_offset2=0*)
341: 0x0910 [0x0C] ExtData[1]->WorkLocal[13]--
342: 0x0913 [0x01] GOTO 0x0916

SUBROUTINE_0916:
343: 0x0916 [0x01] GOTO 0x091C

SUBROUTINE_091C:
344: 0x091C [0x01] GOTO 0x0856
345: 0x091F [0x1B] RETURN

SUBROUTINE_0920:
346: 0x0920 [0x41] ExtData[1]->WorkLocal[0] = Work_Zone[2] (bits 0*-31*)
347: 0x0929 [0x41] ExtData[1]->WorkLocal[1] = Work_Zone[3] (bits 0*-7*)
348: 0x0932 [0x41] ExtData[1]->WorkLocal[2] = Work_Zone[3] (bits 8*-15*)
349: 0x093B [0x41] ExtData[1]->WorkLocal[3] = Work_Zone[3] (bits 16*-23*)
350: 0x0944 [0x41] ExtData[1]->WorkLocal[4] = Work_Zone[3] (bits 24*-31*)
351: 0x094D [0x41] ExtData[1]->WorkLocal[5] = Work_Zone[4] (bits 0*-7*)
352: 0x0956 [0x41] ExtData[1]->WorkLocal[6] = Work_Zone[4] (bits 8*-15*)
353: 0x095F [0x41] ExtData[1]->WorkLocal[7] = Work_Zone[4] (bits 16*-18*)
354: 0x0968 [0x41] ExtData[1]->WorkLocal[8] = Work_Zone[4] (bits 19*-19*)
355: 0x0971 [0x41] ExtData[1]->WorkLocal[10] = Work_Zone[4] (bits 20*-23*)
356: 0x097A [0x1B] RETURN
```

#### Data or dead code:

```
# Dead code (unreachable instructions):
     0x01F6 [0x06] ExtData[1]->WorkLocal[13] = 0
     0x01F9 [0x01] GOTO 0x0404
     0x02FC [0x01] GOTO 0x0307
# Dead code (unreachable instructions):
     0x03F3 [0x01] GOTO 0x0401
# Dead code (unreachable instructions):
     0x0919 [0x0C] ExtData[1]->WorkLocal[13]--
```

### Event 1081

#### Metadata

| Field        | Value     |
|--------------|-----------|
| Entrypoint   | 0x097B    |
| Data Size    | 289 bytes |
| Instructions | 54        |

```
      00 01 02 03 04 05 06 07  08 09 0A 0B 0C 0D 0E 0F
      -- -- -- -- -- -- -- --  -- -- -- -- -- -- -- --
0970:                                   42 02 05 10 00             B....
0980: 80 80 8A 09 39 01 80 01  AB 09 02 05 10 02 80 80  ....9...........
0990: 98 09 39 01 80 01 AB 09  02 05 10 03 80 80 A6 09  ..9.............
09A0: 39 01 80 01 AB 09 1E F0  FF FF 7F 48 4C 80 23 02  9..........HL.#.
09B0: 02 10 05 80 80 BE 09 48  3A 80 23 01 7F 0A 02 02  .......H:.#.....
09C0: 10 04 80 80 FE 09 CD 0C  80 F8 FF FF 7F F8 FF FF  ................
09D0: 7F 6F 6E 6D 79 05 80 48  3B 80 23 CE 0C 80 F8 FF  .onmy..H;.#.....
09E0: FF 7F F8 FF FF 7F 6F 6E  6D 79 CD 0C 80 F8 FF FF  ......onmy......
09F0: 7F F8 FF FF 7F 6F 66 6D  79 05 80 01 7F 0A 02 02  .....ofmy.......
0A00: 10 1A 80 80 0D 0A 48 3C  80 23 01 7F 0A 02 02 10  ......H<.#......
0A10: 22 80 80 2D 0A CD 2E 80  F8 FF FF 7F F8 FF FF 7F  "..-............
0A20: 6D 61 69 6E 05 80 48 3D  80 23 01 7F 0A 02 02 10  main..H=.#......
0A30: 2A 80 80 70 0A CD 20 80  F8 FF FF 7F F8 FF FF 7F  *..p.. .........
0A40: 6F 6E 6F 6E 05 80 48 3E  80 23 CE 20 80 F8 FF FF  onon..H>.#. ....
0A50: 7F F8 FF FF 7F 6F 6E 6F  6E CD 20 80 F8 FF FF 7F  .....onon. .....
0A60: F8 FF FF 7F 6F 66 6F 6E  05 80 1C 04 80 01 7F 0A  ....ofon........
0A70: 02 02 10 3F 80 80 7F 0A  48 3A 80 23 01 7F 0A 02  ...?....H:.#....
0A80: 04 10 04 80 00 8E 0A 48  4D 80 23 01 9A 0A 02 04  .......HM.#.....
0A90: 10 1A 80 00 9A 0A 48 4E  80 23 21 00              ......HN.#!.    
```

#### Opcodes

```
  0: 0x097B [0x42] SET_CLI_EVENT_CANCEL_DATA()
  1: 0x097C [0x02] IF !(Work_Zone[5] == 52*) GOTO 0x098A
  2: 0x0984 [0x39] SET_ENTITY_DIRECTION(direction=3.8°*)
  3: 0x0987 [0x01] GOTO 0x09AB
  4: 0x098A [0x02] IF !(Work_Zone[5] == 53*) GOTO 0x0998
  5: 0x0992 [0x39] SET_ENTITY_DIRECTION(direction=3.8°*)
  6: 0x0995 [0x01] GOTO 0x09AB
  7: 0x0998 [0x02] IF !(Work_Zone[5] == 55*) GOTO 0x09A6
  8: 0x09A0 [0x39] SET_ENTITY_DIRECTION(direction=3.8°*)
  9: 0x09A3 [0x01] GOTO 0x09AB
 10: 0x09A6 [0x1E] EventEntity looks at LocalPlayer and starts talking

SUBROUTINE_09AB:
 11: 0x09AB [0x48] [System] [8739*]:
    → "You gave %0 $1."
 12: 0x09AE [0x23] WAIT_FOR_DIALOG_INTERACTION
 13: 0x09AF [0x02] IF !(Work_Zone[2] == 0*) GOTO 0x09BE
 14: 0x09B7 [0x48] [System] [8719*]:
    → "%0 stares off into the distance as if you're not even there."
 15: 0x09BA [0x23] WAIT_FOR_DIALOG_INTERACTION
 16: 0x09BB [0x01] GOTO 0x0A7F
 17: 0x09BE [0x02] IF !(Work_Zone[2] == 1*) GOTO 0x09FE
 18: 0x09C6 [0xCD] LOAD_SCHEDULED_TASK_ALT4: Load scheduler "onmy" with entities [EventEntity, EventEntity], work=[237*, 0*]
 19: 0x09D7 [0x48] [System] [8720*]:
    → "%0 is visibly angry with what you just did."
 20: 0x09DA [0x23] WAIT_FOR_DIALOG_INTERACTION
 21: 0x09DB [0xCE] WAIT_LOAD_SCHEDULER_ALT4: Wait for scheduler "onmy" with entities [EventEntity, EventEntity], work=237*
 22: 0x09EA [0xCD] LOAD_SCHEDULED_TASK_ALT4: Load scheduler "ofmy" with entities [EventEntity, EventEntity], work=[237*, 0*]
 23: 0x09FB [0x01] GOTO 0x0A7F
 24: 0x09FE [0x02] IF !(Work_Zone[2] == 2*) GOTO 0x0A0D
 25: 0x0A06 [0x48] [System] [8721*]:
    → "That didn't go over too well with %0."
 26: 0x0A09 [0x23] WAIT_FOR_DIALOG_INTERACTION
 27: 0x0A0A [0x01] GOTO 0x0A7F
 28: 0x0A0D [0x02] IF !(Work_Zone[2] == 3*) GOTO 0x0A2D
 29: 0x0A15 [0xCD] LOAD_SCHEDULED_TASK_ALT4: Load scheduler "main" with entities [EventEntity, EventEntity], work=[235*, 0*]
 30: 0x0A26 [0x48] [System] [8722*]:
    → "That was surprisingly not worthless in the eyes of %0!"
 31: 0x0A29 [0x23] WAIT_FOR_DIALOG_INTERACTION
 32: 0x0A2A [0x01] GOTO 0x0A7F
 33: 0x0A2D [0x02] IF !(Work_Zone[2] == 4*) GOTO 0x0A70
 34: 0x0A35 [0xCD] LOAD_SCHEDULED_TASK_ALT4: Load scheduler "onon" with entities [EventEntity, EventEntity], work=[236*, 0*]
 35: 0x0A46 [0x48] [System] [8723*]:
    → "That strongly resonated with %0!"
 36: 0x0A49 [0x23] WAIT_FOR_DIALOG_INTERACTION
 37: 0x0A4A [0xCE] WAIT_LOAD_SCHEDULER_ALT4: Wait for scheduler "onon" with entities [EventEntity, EventEntity], work=236*
 38: 0x0A59 [0xCD] LOAD_SCHEDULED_TASK_ALT4: Load scheduler "ofon" with entities [EventEntity, EventEntity], work=[236*, 0*]
 39: 0x0A6A [0x1C] WAIT(1* ticks)
 40: 0x0A6D [0x01] GOTO 0x0A7F
 41: 0x0A70 [0x02] IF !(Work_Zone[2] == 4294967295*) GOTO 0x0A7F
 42: 0x0A78 [0x48] [System] [8719*]:
    → "%0 stares off into the distance as if you're not even there."
 43: 0x0A7B [0x23] WAIT_FOR_DIALOG_INTERACTION
 44: 0x0A7C [0x01] GOTO 0x0A7F

SUBROUTINE_0A7F:
 45: 0x0A7F [0x02] IF !(Work_Zone[4] == 1*) GOTO 0x0A8E
 46: 0x0A87 [0x48] [System] [8744*]:
    → "%0 squirms uncontrollably."
 47: 0x0A8A [0x23] WAIT_FOR_DIALOG_INTERACTION
 48: 0x0A8B [0x01] GOTO 0x0A9A
 49: 0x0A8E [0x02] IF !(Work_Zone[4] == 2*) GOTO 0x0A9A
 50: 0x0A96 [0x48] [System] [8745*]:
    → "%0 shudders violently."
 51: 0x0A99 [0x23] WAIT_FOR_DIALOG_INTERACTION

SUBROUTINE_0A9A:
 52: 0x0A9A [0x21] END_EVENT
 53: 0x0A9B [0x00] END_REQSTACK()
```

### Event 65535.1

#### Metadata

| Field        | Value     |
|--------------|-----------|
| Entrypoint   | 0x0A9C    |
| Data Size    | 211 bytes |
| Instructions | 33        |

```
      00 01 02 03 04 05 06 07  08 09 0A 0B 0C 0D 0E 0F
      -- -- -- -- -- -- -- --  -- -- -- -- -- -- -- --
0A90:                                      3E 01 11 4F              >..O
0AA0: 80 6C 0B 41 05 80 16 80  0B 11 19 00 41 05 80 47  .l.A........A..G
0AB0: 80 0A 11 1A 00 B6 00 19  00 B6 0F 1A 00 80 89 80  ................
0AC0: 11 01 02 19 00 50 80 00  D3 0A 95 2A 80 1C 04 80  .....P.....*....
0AD0: 01 17 0B 02 19 00 51 80  00 E4 0A 95 2A 80 1C 04  ......Q.....*...
0AE0: 80 01 17 0B 02 19 00 52  80 00 F5 0A 95 2A 80 1C  .......R.....*..
0AF0: 04 80 01 17 0B 02 19 00  53 80 00 17 0B 2C F8 FF  ........S....,..
0B00: FF 7F F8 FF FF 7F 6B 69  6C 6C 53 F8 FF FF 7F F8  ......killS.....
0B10: FF FF 7F 6B 69 6C 6C 22  00 3E 01 11 54 80 46 0B  ...kill".>..T.F.
0B20: 1C 04 80 CD 0C 80 F8 FF  FF 7F F8 FF FF 7F 6F 6E  ..............on
0B30: 6D 79 05 80 CE 0C 80 F8  FF FF 7F F8 FF FF 7F 6F  my.............o
0B40: 6E 6D 79 01 69 0B 1C 04  80 CD 0C 80 F8 FF FF 7F  nmy.i...........
0B50: F8 FF FF 7F 6B 6C 6D 79  05 80 CE 0C 80 F8 FF FF  ....klmy........
0B60: 7F F8 FF FF 7F 6B 6C 6D  79 01 6E 0B 22 01 00     .....klmy.n.".. 
```

#### Opcodes

```
  0: 0x0A9C [0x3E] IF !(Work_Zone_Memorize[1] bit 5*) GOTO 0x0B6C
  1: 0x0AA3 [0x41] ExtData[1]->WorkLocal[25] = Work_Zone_Memorize[11] (bits 0*-15*)
  2: 0x0AAC [0x41] ExtData[1]->WorkLocal[26] = Work_Zone_Memorize[10] (bits 0*-7*)
  3: 0x0AB5 [0xB6] ENTITY_APPEARANCE_HANDLER(case=Hair style, value=ExtData[1]->WorkLocal[25])
  4: 0x0AB9 [0xB6] ENTITY_APPEARANCE_HANDLER(case=Model size, value=ExtData[1]->WorkLocal[26])
  5: 0x0ABD [0x80] LOAD_WAIT(entity=Breeding Monster (ID: 17924233/0x01118089))
  6: 0x0AC2 [0x02] IF !(ExtData[1]->WorkLocal[25] == 2914*) GOTO 0x0AD3
  7: 0x0ACA [0x95] SETUP_EVENT_NPC: Prepare NPC for event (Render.Flags3 = 4*)
  8: 0x0ACD [0x1C] WAIT(1* ticks)
  9: 0x0AD0 [0x01] GOTO 0x0B17
 10: 0x0AD3 [0x02] IF !(ExtData[1]->WorkLocal[25] == 341*) GOTO 0x0AE4
 11: 0x0ADB [0x95] SETUP_EVENT_NPC: Prepare NPC for event (Render.Flags3 = 4*)
 12: 0x0ADE [0x1C] WAIT(1* ticks)
 13: 0x0AE1 [0x01] GOTO 0x0B17
 14: 0x0AE4 [0x02] IF !(ExtData[1]->WorkLocal[25] == 2916*) GOTO 0x0AF5
 15: 0x0AEC [0x95] SETUP_EVENT_NPC: Prepare NPC for event (Render.Flags3 = 4*)
 16: 0x0AEF [0x1C] WAIT(1* ticks)
 17: 0x0AF2 [0x01] GOTO 0x0B17
 18: 0x0AF5 [0x02] IF !(ExtData[1]->WorkLocal[25] == 289*) GOTO 0x0B17
 19: 0x0AFD [0x2C] CREATE_SCHEDULER_TASK: Create scheduler "kill" with entities [EventEntity, EventEntity]
 20: 0x0B0A [0x53] WAIT_SCHEDULER_TASK: Wait for scheduler "kill" with entities [EventEntity, EventEntity]

SUBROUTINE_0B17:
 21: 0x0B17 [0x22] ENTITY_HIDE_FLAG(enabled=0x00)
 22: 0x0B19 [0x3E] IF !(Work_Zone_Memorize[1] bit 9*) GOTO 0x0B46
 23: 0x0B20 [0x1C] WAIT(1* ticks)
 24: 0x0B23 [0xCD] LOAD_SCHEDULED_TASK_ALT4: Load scheduler "onmy" with entities [EventEntity, EventEntity], work=[237*, 0*]
 25: 0x0B34 [0xCE] WAIT_LOAD_SCHEDULER_ALT4: Wait for scheduler "onmy" with entities [EventEntity, EventEntity], work=237*
 26: 0x0B43 [0x01] GOTO 0x0B69
 27: 0x0B46 [0x1C] WAIT(1* ticks)
 28: 0x0B49 [0xCD] LOAD_SCHEDULED_TASK_ALT4: Load scheduler "klmy" with entities [EventEntity, EventEntity], work=[237*, 0*]
 29: 0x0B5A [0xCE] WAIT_LOAD_SCHEDULER_ALT4: Wait for scheduler "klmy" with entities [EventEntity, EventEntity], work=237*

SUBROUTINE_0B69:
 30: 0x0B69 [0x01] GOTO 0x0B6E
 31: 0x0B6C [0x22] ENTITY_HIDE_FLAG(enabled=0x01)

SUBROUTINE_0B6E:
 32: 0x0B6E [0x00] END_REQSTACK()
```

### Event 2050

#### Metadata

| Field        | Value   |
|--------------|---------|
| Entrypoint   | 0x0B6F  |
| Data Size    | 1 bytes |
| Instructions | 1       |

```
      00 01 02 03 04 05 06 07  08 09 0A 0B 0C 0D 0E 0F
      -- -- -- -- -- -- -- --  -- -- -- -- -- -- -- --
0B60:                                               00                 .
```

#### Opcodes

```
  0: 0x0B6F [0x00] END_REQSTACK()
```

### Event 2051

#### Metadata

| Field        | Value     |
|--------------|-----------|
| Entrypoint   | 0x0B70    |
| Data Size    | 149 bytes |
| Instructions | 21        |

```
      00 01 02 03 04 05 06 07  08 09 0A 0B 0C 0D 0E 0F
      -- -- -- -- -- -- -- --  -- -- -- -- -- -- -- --
0B70: 42 46 01 45 06 80 F0 FF  FF 7F F0 FF FF 7F 66 64  BF.E..........fd
0B80: 6F 31 05 80 55 06 80 F0  FF FF 7F F0 FF FF 7F 66  o1..U..........f
0B90: 64 6F 31 38 07 80 29 08  F0 FF FF 7F 23 37 08 80  do18..).....#7..
0BA0: 09 80 0A 80 0B 80 4E 01  87 80 11 01 4A F8 FF FF  ......N.....J...
0BB0: 7F F0 FF FF 7F 6F 76 F8  FF FF 7F 45 0D 80 F0 FF  .....ov....E....
0BC0: FF 7F F0 FF FF 7F 73 31  30 31 05 80 45 06 80 F0  ......s101..E...
0BD0: FF FF 7F F0 FF FF 7F 66  64 69 31 05 80 55 06 80  .......fdi1..U..
0BE0: F0 FF FF 7F F0 FF FF 7F  66 64 69 31 1D 55 80 23  ........fdi1.U.#
0BF0: 52 0D 80 F0 FF FF 7F F0  FF FF 7F 73 31 30 31 46  R..........s101F
0C00: 00 20 00 21 00                                    . .!.           
```

#### Opcodes

```
  0: 0x0B70 [0x42] SET_CLI_EVENT_CANCEL_DATA()
  1: 0x0B71 [0x46] CAMERA_CONTROL: Disable user control
  2: 0x0B73 [0x45] LOAD_SCHEDULED_TASK: Load scheduler "fdo1" with entities [LocalPlayer, LocalPlayer], work=[200*, 0*]
  3: 0x0B84 [0x55] WAIT_LOAD_SCHEDULER: Wait for scheduler "fdo1" with entities [LocalPlayer, LocalPlayer], work=200*
  4: 0x0B93 [0x38] SET_CLIENT_EVENT_MODE(mode=19*)
  5: 0x0B96 [0x29] REQ_SET_WAIT(priority=0x08, entity_id=LocalPlayer, tag_num=0x23)
  6: 0x0B9D [0x37] UPDATE_EVENT_POSITION_AND_DIR: x=-12.623*, z=12.170*, y=0.156*, direction=76.7°*
  7: 0x0BA6 [0x4E] SET_ENTITY_HIDE_FLAG: Hide Chacharoon (ID: 17924231/0x01118087)
  8: 0x0BAC [0x4A] EventEntity looks at LocalPlayer
  9: 0x0BB5 [0x6F] WAIT_FRAME_DELAY: Yield until WaitTime reaches zero
 10: 0x0BB6 [0x76] CHECK_ENTITY_RENDER_FLAGS: Wait until EventEntity Render.Flags0 and Render.Flags3 conditions are met
 11: 0x0BBB [0x45] LOAD_SCHEDULED_TASK: Load scheduler "s101" with entities [LocalPlayer, LocalPlayer], work=[690*, 0*]
 12: 0x0BCC [0x45] LOAD_SCHEDULED_TASK: Load scheduler "fdi1" with entities [LocalPlayer, LocalPlayer], work=[200*, 0*]
 13: 0x0BDD [0x55] WAIT_LOAD_SCHEDULER: Wait for scheduler "fdi1" with entities [LocalPlayer, LocalPlayer], work=200*
 14: 0x0BEC [0x1D] PRINT_EVENT_MESSAGE(message_id=7604*)
    → "What a terrific time to test tag utility, kupo!"
 15: 0x0BEF [0x23] WAIT_FOR_DIALOG_INTERACTION
 16: 0x0BF0 [0x52] END_LOAD_SCHEDULER: End scheduler "s101" with entities [LocalPlayer, LocalPlayer], work=690*
 17: 0x0BFF [0x46] CAMERA_CONTROL: Restore default settings
 18: 0x0C01 [0x20] SET_CLI_EVENT_UC_FLAG: Unlock player control
 19: 0x0C03 [0x21] END_EVENT
 20: 0x0C04 [0x00] END_REQSTACK()
```

### Event 2053

#### Metadata

| Field        | Value   |
|--------------|---------|
| Entrypoint   | 0x0C05  |
| Data Size    | 6 bytes |
| Instructions | 4       |

```
      00 01 02 03 04 05 06 07  08 09 0A 0B 0C 0D 0E 0F
      -- -- -- -- -- -- -- --  -- -- -- -- -- -- -- --
0C00:                48 3A 80  23 21 00                      H:.#!.     
```

#### Opcodes

```
  0: 0x0C05 [0x48] [System] [8719*]:
    → "%0 stares off into the distance as if you're not even there."
  1: 0x0C08 [0x23] WAIT_FOR_DIALOG_INTERACTION
  2: 0x0C09 [0x21] END_EVENT
  3: 0x0C0A [0x00] END_REQSTACK()
```

### Event 2054

#### Metadata

| Field        | Value      |
|--------------|------------|
| Entrypoint   | 0x0C0B     |
| Data Size    | 6165 bytes |
| Instructions | 5          |

```
      00 01 02 03 04 05 06 07  08 09 0A 0B 0C 0D 0E 0F
      -- -- -- -- -- -- -- --  -- -- -- -- -- -- -- --
0C00:                                   03 03 10 56 80             ...V.
0C10: 48 57 80 23 21 00 92 00  1D 80 11 01 1A 50 14 1A  HW.#!........P..
0C20: 8D 0C 1A 51 0D 1A FB 0E  1A 28 11 1A 36 20 1A 36  ...Q.....(..6 .6
0C30: 11 1A 12 12 1A 49 12 1A  6C 12 1A 98 12 1A 38 13  .....I..l.....8.
0C40: 1A C2 13 1A EB 13 1A 31  14 1A 69 10 AC 02 35 80  .......1..i...5.
0C50: 11 01 1B 92 00 1D 80 11  01 1A 8D 0C 1A 51 0D 1A  .............Q..
0C60: FB 0E 1A 28 11 1A 36 20  1A 36 11 1A 12 12 1A 49  ...(..6 .6.....I
0C70: 12 1A 6C 12 1A 98 12 1A  38 13 1A C2 13 1A EB 13  ..l.....8.......
0C80: 1A 31 14 1A 69 10 AC 02  35 80 11 01 1B AC 02 09  .1..i...5.......
0C90: 80 11 01 3E 00 11 05 80  A4 0C 27 80 09 80 11 01  ...>......'.....
0CA0: 02 01 AB 0C 27 80 09 80  11 01 03 AC 02 0A 80 11  ....'...........
0CB0: 01 3E 00 11 04 80 C2 0C  27 80 0A 80 11 01 02 01  .>......'.......
0CC0: C9 0C 27 80 0A 80 11 01  03 AC 02 0B 80 11 01 3E  ..'............>
0CD0: 00 11 1A 80 E0 0C 29 80  0B 80 11 01 02 01 E7 0C  ......).........
0CE0: 29 80 0B 80 11 01 03 92  01 20 80 11 01 92 01 21  )........ .....!
0CF0: 80 11 01 92 01 22 80 11  01 AC 02 20 80 11 01 3E  ....."..... ...>
0D00: 00 11 58 80 0F 0D 4E 00  20 80 11 01 01 15 0D 4E  ..X...N. ......N
0D10: 01 20 80 11 01 AC 02 21  80 11 01 3E 00 11 59 80  . .....!...>..Y.
0D20: 2B 0D 4E 00 21 80 11 01  01 31 0D 4E 01 21 80 11  +.N.!....1.N.!..
0D30: 01 AC 02 22 80 11 01 3E  00 11 5A 80 47 0D 4E 00  ..."...>..Z.G.N.
0D40: 22 80 11 01 01 4D 0D 4E  01 22 80 11 01 1C 04 80  "....M.N."......
0D50: 1B AC 02 0F 80 11 01 3E  00 11 22 80 68 0D 27 80  .......>..".h.'.
0D60: 0F 80 11 01 02 01 6F 0D  27 80 0F 80 11 01 03 AC  ......o.'.......
0D70: 02 10 80 11 01 3E 00 11  2A 80 86 0D 27 80 10 80  .....>..*...'...
0D80: 11 01 02 01 8D 0D 27 80  10 80 11 01 03 AC 02 11  ......'.........
0D90: 80 11 01 3E 00 11 4F 80  A4 0D 29 80 11 80 11 01  ...>..O...).....
0DA0: 02 01 AB 0D 29 80 11 80  11 01 03 AC 02 1A 80 11  ....)...........
0DB0: 01 3E 01 11 4A 80 C2 0D  27 80 1A 80 11 01 02 01  .>..J...'.......
0DC0: C9 0D 27 80 1A 80 11 01  03 AC 02 1B 80 11 01 3E  ..'............>
0DD0: 01 11 07 80 E0 0D 29 80  1B 80 11 01 02 01 E7 0D  ......).........
0DE0: 29 80 1B 80 11 01 03 AC  02 23 80 11 01 AC 02 24  )........#.....$
0DF0: 80 11 01 3E 00 11 4A 80  1F 0E 3E 08 11 05 80 10  ...>..J...>.....
0E00: 0E 4E 00 24 80 11 01 4E  01 23 80 11 01 01 1C 0E  .N.$...N.#......
0E10: 4E 00 23 80 11 01 4E 01  24 80 11 01 01 2B 0E 4E  N.#...N.$....+.N
0E20: 01 23 80 11 01 4E 01 24  80 11 01 AC 02 25 80 11  .#...N.$.....%..
0E30: 01 AC 02 26 80 11 01 3E  00 11 07 80 63 0E 3E 08  ...&...>....c.>.
0E40: 11 04 80 54 0E 4E 00 26  80 11 01 4E 01 25 80 11  ...T.N.&...N.%..
0E50: 01 01 60 0E 4E 00 25 80  11 01 4E 01 26 80 11 01  ..`.N.%...N.&...
0E60: 01 6F 0E 4E 01 25 80 11  01 4E 01 26 80 11 01 AC  .o.N.%...N.&....
0E70: 02 27 80 11 01 AC 02 28  80 11 01 3E 00 11 4B 80  .'.....(...>..K.
0E80: A7 0E 3E 08 11 1A 80 98  0E 4E 00 28 80 11 01 4E  ..>......N.(...N
0E90: 01 27 80 11 01 01 A4 0E  4E 00 27 80 11 01 4E 01  .'......N.'...N.
0EA0: 28 80 11 01 01 B3 0E 4E  01 27 80 11 01 4E 01 28  (......N.'...N.(
0EB0: 80 11 01 AC 02 29 80 11  01 AC 02 2A 80 11 01 3E  .....).....*...>
0EC0: 00 11 5B 80 EB 0E 3E 08  11 22 80 DC 0E 4E 00 2A  ..[...>.."...N.*
0ED0: 80 11 01 4E 01 29 80 11  01 01 E8 0E 4E 00 29 80  ...N.)......N.).
0EE0: 11 01 4E 01 2A 80 11 01  01 F7 0E 4E 01 29 80 11  ..N.*......N.)..
0EF0: 01 4E 01 2A 80 11 01 1C  04 80 1B AC 02 12 80 11  .N.*............
0F00: 01 3E 00 11 5C 80 12 0F  27 80 12 80 11 01 02 01  .>..\...'.......
0F10: 19 0F 27 80 12 80 11 01  03 AC 02 13 80 11 01 3E  ..'............>
0F20: 00 11 47 80 30 0F 27 80  13 80 11 01 02 01 37 0F  ..G.0.'.......7.
0F30: 27 80 13 80 11 01 03 AC  02 14 80 11 01 3E 00 11  '............>..
0F40: 15 80 4E 0F 29 80 14 80  11 01 02 01 55 0F 29 80  ..N.).......U.).
0F50: 14 80 11 01 03 AC 02 2B  80 11 01 AC 02 2C 80 11  .......+.....,..
0F60: 01 3E 00 11 5D 80 8D 0F  3E 08 11 2A 80 7E 0F 4E  .>..]...>..*.~.N
0F70: 00 2C 80 11 01 4E 01 2B  80 11 01 01 8A 0F 4E 00  .,...N.+......N.
0F80: 2B 80 11 01 4E 01 2C 80  11 01 01 99 0F 4E 01 2B  +...N.,......N.+
0F90: 80 11 01 4E 01 2C 80 11  01 AC 02 2D 80 11 01 AC  ...N.,.....-....
0FA0: 02 2E 80 11 01 3E 00 11  48 80 D1 0F 3E 08 11 4F  .....>..H...>..O
0FB0: 80 C2 0F 4E 00 2E 80 11  01 4E 01 2D 80 11 01 01  ...N.....N.-....
0FC0: CE 0F 4E 00 2D 80 11 01  4E 01 2E 80 11 01 01 DD  ..N.-...N.......
0FD0: 0F 4E 01 2D 80 11 01 4E  01 2E 80 11 01 AC 02 2F  .N.-...N......./
0FE0: 80 11 01 AC 02 30 80 11  01 3E 00 11 49 80 15 10  .....0...>..I...
0FF0: 3E 08 11 5C 80 06 10 4E  00 30 80 11 01 4E 01 2F  >..\...N.0...N./
1000: 80 11 01 01 12 10 4E 00  2F 80 11 01 4E 01 30 80  ......N./...N.0.
1010: 11 01 01 21 10 4E 01 2F  80 11 01 4E 01 30 80 11  ...!.N./...N.0..
1020: 01 AC 02 31 80 11 01 AC  02 32 80 11 01 3E 00 11  ...1.....2...>..
1030: 5E 80 59 10 3E 08 11 47  80 4A 10 4E 00 32 80 11  ^.Y.>..G.J.N.2..
1040: 01 4E 01 31 80 11 01 01  56 10 4E 00 31 80 11 01  .N.1....V.N.1...
1050: 4E 01 32 80 11 01 01 65  10 4E 01 31 80 11 01 4E  N.2....e.N.1...N
1060: 01 32 80 11 01 1C 04 80  1B 92 01 35 80 11 01 AC  .2.........5....
1070: 02 15 80 11 01 3E 00 11  54 80 86 10 27 80 15 80  .....>..T...'...
1080: 11 01 02 01 8D 10 27 80  15 80 11 01 03 AC 02 16  ......'.........
1090: 80 11 01 3E 00 11 13 80  A4 10 27 80 16 80 11 01  ...>......'.....
10A0: 02 01 AB 10 27 80 16 80  11 01 03 AC 02 17 80 11  ....'...........
10B0: 01 3E 00 11 42 80 C2 10  27 80 17 80 11 01 02 01  .>..B...'.......
10C0: C9 10 27 80 17 80 11 01  03 AC 02 18 80 11 01 3E  ..'............>
10D0: 01 11 5F 80 E0 10 29 80  18 80 11 01 02 01 E7 10  .._...).........
10E0: 29 80 18 80 11 01 03 3E  01 11 4B 80 F7 10 60 02  )......>..K...`.
10F0: 69 30 6F 6E 01 F7 10 3E  01 11 5B 80 07 11 60 02  i0on...>..[...`.
1100: 69 31 6F 6E 01 07 11 3E  01 11 5D 80 17 11 60 02  i1on...>..]...`.
1110: 69 32 6F 6E 01 17 11 3E  01 11 48 80 27 11 60 02  i2on...>..H.'.`.
1120: 69 33 6F 6E 01 27 11 1B  AC 02 35 80 11 01 29 08  i3on.'....5...).
1130: 35 80 11 01 04 1B 92 00  57 80 11 01 92 00 6A 80  5.......W.....j.
1140: 11 01 92 00 58 80 11 01  92 00 6B 80 11 01 92 00  ....X.....k.....
1150: 59 80 11 01 92 00 6C 80  11 01 AC 02 57 80 11 01  Y.....l.....W...
1160: 3E 00 11 1F 80 71 11 27  08 57 80 11 01 02 01 78  >....q.'.W.....x
1170: 11 27 08 57 80 11 01 03  AC 02 6A 80 11 01 3E 00  .'.W......j...>.
1180: 11 0F 80 8F 11 27 08 6A  80 11 01 02 01 96 11 27  .....'.j.......'
1190: 08 6A 80 11 01 03 AC 02  58 80 11 01 3E 00 11 60  .j......X...>..`
11A0: 80 AD 11 29 08 58 80 11  01 02 01 B4 11 29 08 58  ...).X.......).X
11B0: 80 11 01 03 AC 02 6B 80  11 01 3E 00 11 16 80 CB  ......k...>.....
11C0: 11 27 08 6B 80 11 01 02  01 D2 11 27 08 6B 80 11  .'.k.......'.k..
11D0: 01 03 AC 02 59 80 11 01  3E 00 11 38 80 E9 11 27  ....Y...>..8...'
11E0: 08 59 80 11 01 02 01 F0  11 27 08 59 80 11 01 03  .Y.......'.Y....
11F0: AC 02 6C 80 11 01 3E 00  11 5F 80 07 12 29 08 6C  ..l...>.._...).l
1200: 80 11 01 02 01 0E 12 29  08 6C 80 11 01 03 1C 04  .......).l......
1210: 80 1B AC 02 36 80 11 01  3E 00 11 61 80 35 12 2C  ....6...>..a.5.,
1220: 36 80 11 01 36 80 11 01  65 66 6F 6E B6 14 36 80  6...6...efon..6.
1230: 11 01 01 48 12 2C 36 80  11 01 36 80 11 01 65 66  ...H.,6...6...ef
1240: 6F 66 B6 15 36 80 11 01  1B 3E 01 11 05 80 5F 12  of..6....>...._.
1250: 4E 00 71 80 11 01 AC 03  71 80 11 01 01 6B 12 AC  N.q.....q....k..
1260: 02 71 80 11 01 4E 01 71  80 11 01 1B AC 02 72 80  .q...N.q......r.
1270: 11 01 3E 01 11 04 80 90  12 3E 01 11 22 80 87 12  ..>......>.."...
1280: 29 08 72 80 11 01 04 4E  00 72 80 11 01 01 97 12  ).r....N.r......
1290: 29 08 72 80 11 01 03 1B  AC 02 8E 80 11 01 3E 01  ).r...........>.
12A0: 11 5E 80 AE 12 4E 00 8E  80 11 01 01 B4 12 4E 01  .^...N........N.
12B0: 8E 80 11 01 1B AC 02 80  80 11 01 AC 02 81 80 11  ................
12C0: 01 AC 02 82 80 11 01 AC  02 83 80 11 01 AC 02 84  ................
12D0: 80 11 01 3E 01 11 58 80  19 13 4E 00 80 80 11 01  ...>..X...N.....
12E0: AC 03 80 80 11 01 4E 00  81 80 11 01 AC 03 81 80  ......N.........
12F0: 11 01 4E 00 82 80 11 01  AC 03 82 80 11 01 4E 00  ..N...........N.
1300: 83 80 11 01 AC 03 83 80  11 01 4E 00 84 80 11 01  ..........N.....
1310: AC 03 84 80 11 01 01 37  13 4E 01 80 80 11 01 4E  .......7.N.....N
1320: 01 81 80 11 01 4E 01 82  80 11 01 4E 01 83 80 11  .....N.....N....
1330: 01 4E 01 84 80 11 01 1B  AC 02 85 80 11 01 AC 02  .N..............
1340: 86 80 11 01 3E 01 11 59  80 B5 13 13 1B 00 1A 80  ....>..Y........
1350: 02 1B 00 1A 80 02 5B 13  06 1B 00 02 1B 00 05 80  ......[.........
1360: 80 74 13 29 08 85 80 11  01 02 29 08 86 80 11 01  .t.)......).....
1370: 02 01 A6 13 02 1B 00 04  80 80 8D 13 29 08 85 80  ............)...
1380: 11 01 03 29 08 86 80 11  01 03 01 A6 13 02 1B 00  ...)............
1390: 1A 80 80 A6 13 29 08 85  80 11 01 04 29 08 86 80  .....)......)...
13A0: 11 01 04 01 A6 13 4E 00  85 80 11 01 4E 00 86 80  ......N.....N...
13B0: 11 01 01 C1 13 4E 01 85  80 11 01 4E 01 86 80 11  .....N.....N....
13C0: 01 1B AC 02 87 80 11 01  3E 01 11 2A 80 DE 13 4E  ........>..*...N
13D0: 00 87 80 11 01 AC 03 87  80 11 01 01 EA 13 AC 02  ................
13E0: 87 80 11 01 4E 01 87 80  11 01 1B AC 02 89 80 11  ....N...........
13F0: 01 29 08 89 80 11 01 04  1B AC 02 8A 80 11 01 29  .).............)
1400: 08 8A 80 11 01 04 1B AC  02 8B 80 11 01 29 08 8B  .............)..
1410: 80 11 01 04 1B AC 02 8C  80 11 01 29 08 8C 80 11  ...........)....
1420: 01 04 1B AC 02 8D 80 11  01 29 08 8D 80 11 01 04  .........)......
1430: 1B AC 02 1C 80 11 01 3E  01 11 49 80 48 14 29 80  .......>..I.H.).
1440: 1C 80 11 01 02 01 4F 14  29 80 1C 80 11 01 03 1B  ......O.).......
1450: 03 01 10 04 80 43 00 43  01 03 1C 00 02 10 03 08  .....C.C........
1460: 11 03 10 03 01 11 04 10  03 0A 11 05 10 03 0B 11  ................
1470: 06 10 03 0C 11 07 10 03  01 10 42 80 43 00 43 01  ..........B.C.C.
1480: 03 02 11 02 10 03 03 11  03 10 03 04 11 04 10 03  ................
1490: 05 11 05 10 03 06 11 06  10 03 07 11 07 10 03 09  ................
14A0: 11 08 10 41 05 80 22 80  1C 00 1B 00 1A 9D 16 41  ...A.."........A
14B0: 2A 80 47 80 1C 00 1B 00  1A A5 18 41 15 80 42 80  *.G........A..B.
14C0: 1C 00 1B 00 1A 35 1B 41  1F 80 16 80 1C 00 1B 00  .....5.A........
14D0: 1A 83 1D 41 4B 80 5D 80  1C 00 1B 00 1A 05 15 41  ...AK.]........A
14E0: 39 80 39 80 1C 00 1B 00  02 1B 00 05 80 00 FA 14  9.9.............
14F0: 3D 00 11 61 80 04 80 01  01 15 3C 00 11 61 80 04  =..a......<..a..
1500: 80 1A 1F 15 1B 02 1B 00  22 80 04 17 15 3C 01 11  ........"....<..
1510: 49 80 04 80 01 1E 15 3D  01 11 49 80 04 80 1B 3E  I......=..I....>
1520: 08 11 15 80 90 15 41 54  80 42 80 08 11 1B 00 02  ......AT.B......
1530: 1B 00 04 80 80 48 15 3D  00 11 1F 80 04 80 3C 00  .....H.=......<.
1540: 11 0F 80 04 80 01 8D 15  02 1B 00 2A 80 80 61 15  ...........*..a.
1550: 3C 00 11 1F 80 04 80 3D  00 11 0F 80 04 80 01 8D  <......=........
1560: 15 13 1B 00 62 80 02 1B  00 29 80 03 7F 15 3D 00  ....b....)....=.
1570: 11 1F 80 04 80 3C 00 11  0F 80 04 80 01 8D 15 3C  .....<.........<
1580: 00 11 1F 80 04 80 3D 00  11 0F 80 04 80 01 9E 15  ......=.........
1590: 3D 00 11 1F 80 04 80 3D  00 11 0F 80 04 80 3E 08  =......=......>.
15A0: 11 1F 80 0F 16 41 0F 80  16 80 08 11 1B 00 02 1B  .....A..........
15B0: 00 04 80 80 C7 15 3C 00  11 60 80 04 80 3D 00 11  ......<..`...=..
15C0: 16 80 04 80 01 0C 16 02  1B 00 4F 80 80 E0 15 3D  ..........O....=
15D0: 00 11 60 80 04 80 3C 00  11 16 80 04 80 01 0C 16  ..`...<.........
15E0: 13 1B 00 62 80 02 1B 00  29 80 03 FE 15 3C 00 11  ...b....)....<..
15F0: 60 80 04 80 3D 00 11 16  80 04 80 01 0C 16 3D 00  `...=.........=.
1600: 11 60 80 04 80 3C 00 11  16 80 04 80 01 1D 16 3D  .`...<.........=
1610: 00 11 60 80 04 80 3D 00  11 16 80 04 80 3E 08 11  ..`...=......>..
1620: 38 80 8E 16 41 5F 80 07  80 08 11 1B 00 02 1B 00  8...A_..........
1630: 22 80 80 46 16 3C 00 11  38 80 04 80 3D 00 11 5F  "..F.<..8...=.._
1640: 80 04 80 01 8B 16 02 1B  00 1A 80 80 5F 16 3D 00  ............_.=.
1650: 11 38 80 04 80 3C 00 11  5F 80 04 80 01 8B 16 13  .8...<.._.......
1660: 1B 00 62 80 02 1B 00 29  80 03 7D 16 3C 00 11 38  ..b....)..}.<..8
1670: 80 04 80 3D 00 11 5F 80  04 80 01 8B 16 3D 00 11  ...=.._......=..
1680: 38 80 04 80 3C 00 11 5F  80 04 80 01 9C 16 3D 00  8...<.._......=.
1690: 11 38 80 04 80 3D 00 11  5F 80 04 80 1B 02 1B 00  .8...=.._.......
16A0: 05 80 80 D2 16 3D 00 11  05 80 04 80 3C 00 11 04  .....=......<...
16B0: 80 04 80 3C 00 11 1A 80  04 80 3C 00 11 58 80 04  ...<......<..X..
16C0: 80 3D 00 11 59 80 04 80  3D 00 11 5A 80 04 80 01  .=..Y...=..Z....
16D0: A4 18 02 1B 00 04 80 80  07 17 3D 00 11 05 80 04  ..........=.....
16E0: 80 3C 00 11 04 80 04 80  3C 00 11 1A 80 04 80 3C  .<......<......<
16F0: 00 11 58 80 04 80 3D 00  11 59 80 04 80 3D 00 11  ..X...=..Y...=..
1700: 5A 80 04 80 01 A4 18 02  1B 00 1A 80 80 3C 17 3D  Z............<.=
1710: 00 11 05 80 04 80 3C 00  11 04 80 04 80 3C 00 11  ......<......<..
1720: 1A 80 04 80 3C 00 11 58  80 04 80 3D 00 11 59 80  ....<..X...=..Y.
1730: 04 80 3D 00 11 5A 80 04  80 01 A4 18 02 1B 00 22  ..=..Z........."
1740: 80 80 71 17 3D 00 11 05  80 04 80 3D 00 11 04 80  ..q.=......=....
1750: 04 80 3C 00 11 1A 80 04  80 3C 00 11 58 80 04 80  ..<......<..X...
1760: 3C 00 11 59 80 04 80 3D  00 11 5A 80 04 80 01 A4  <..Y...=..Z.....
1770: 18 02 1B 00 2A 80 80 A6  17 3D 00 11 05 80 04 80  ....*....=......
1780: 3D 00 11 04 80 04 80 3C  00 11 1A 80 04 80 3C 00  =......<......<.
1790: 11 58 80 04 80 3C 00 11  59 80 04 80 3D 00 11 5A  .X...<..Y...=..Z
17A0: 80 04 80 01 A4 18 02 1B  00 4F 80 80 DB 17 3D 00  .........O....=.
17B0: 11 05 80 04 80 3D 00 11  04 80 04 80 3D 00 11 1A  .....=......=...
17C0: 80 04 80 3C 00 11 58 80  04 80 3C 00 11 59 80 04  ...<..X...<..Y..
17D0: 80 3C 00 11 5A 80 04 80  01 A4 18 02 1B 00 5C 80  .<..Z.........\.
17E0: 80 10 18 3D 00 11 05 80  04 80 3D 00 11 04 80 04  ...=......=.....
17F0: 80 3D 00 11 1A 80 04 80  3C 00 11 58 80 04 80 3C  .=......<..X...<
1800: 00 11 59 80 04 80 3C 00  11 5A 80 04 80 01 A4 18  ..Y...<..Z......
1810: 02 1B 00 47 80 80 45 18  3D 00 11 05 80 04 80 3D  ...G..E.=......=
1820: 00 11 04 80 04 80 3D 00  11 1A 80 04 80 3C 00 11  ......=......<..
1830: 58 80 04 80 3C 00 11 59  80 04 80 3C 00 11 5A 80  X...<..Y...<..Z.
1840: 04 80 01 A4 18 02 1B 00  15 80 80 7A 18 3D 00 11  ...........z.=..
1850: 05 80 04 80 3D 00 11 04  80 04 80 3D 00 11 1A 80  ....=......=....
1860: 04 80 3C 00 11 58 80 04  80 3C 00 11 59 80 04 80  ..<..X...<..Y...
1870: 3C 00 11 5A 80 04 80 01  A4 18 3D 00 11 05 80 04  <..Z......=.....
1880: 80 3C 00 11 04 80 04 80  3C 00 11 1A 80 04 80 3C  .<......<......<
1890: 00 11 58 80 04 80 3D 00  11 59 80 04 80 3D 00 11  ..X...=..Y...=..
18A0: 5A 80 04 80 1B 02 1B 00  05 80 80 EF 18 3C 00 11  Z............<..
18B0: 22 80 04 80 3C 00 11 2A  80 04 80 3C 00 11 4F 80  "...<..*...<..O.
18C0: 04 80 3C 01 11 4A 80 04  80 3C 01 11 07 80 04 80  ..<..J...<......
18D0: 3C 00 11 4A 80 04 80 3D  00 11 07 80 04 80 3D 00  <..J...=......=.
18E0: 11 4B 80 04 80 3D 00 11  5B 80 04 80 01 34 1B 02  .K...=..[....4..
18F0: 1B 00 04 80 80 39 19 3C  00 11 22 80 04 80 3C 00  .....9.<.."...<.
1900: 11 2A 80 04 80 3C 00 11  4F 80 04 80 3C 01 11 4A  .*...<..O...<..J
1910: 80 04 80 3C 01 11 07 80  04 80 3C 00 11 4A 80 04  ...<......<..J..
1920: 80 3D 00 11 07 80 04 80  3D 00 11 4B 80 04 80 3D  .=......=..K...=
1930: 00 11 5B 80 04 80 01 34  1B 02 1B 00 1A 80 80 83  ..[....4........
1940: 19 3C 00 11 22 80 04 80  3C 00 11 2A 80 04 80 3C  .<.."...<..*...<
1950: 00 11 4F 80 04 80 3C 01  11 4A 80 04 80 3C 01 11  ..O...<..J...<..
1960: 07 80 04 80 3C 00 11 4A  80 04 80 3D 00 11 07 80  ....<..J...=....
1970: 04 80 3D 00 11 4B 80 04  80 3D 00 11 5B 80 04 80  ..=..K...=..[...
1980: 01 34 1B 02 1B 00 22 80  80 CD 19 3D 00 11 22 80  .4...."....=..".
1990: 04 80 3C 00 11 2A 80 04  80 3C 00 11 4F 80 04 80  ..<..*...<..O...
19A0: 3D 01 11 4A 80 04 80 3C  01 11 07 80 04 80 3C 00  =..J...<......<.
19B0: 11 4A 80 04 80 3C 00 11  07 80 04 80 3D 00 11 4B  .J...<......=..K
19C0: 80 04 80 3D 00 11 5B 80  04 80 01 34 1B 02 1B 00  ...=..[....4....
19D0: 2A 80 80 17 1A 3D 00 11  22 80 04 80 3C 00 11 2A  *....=.."...<..*
19E0: 80 04 80 3C 00 11 4F 80  04 80 3D 01 11 4A 80 04  ...<..O...=..J..
19F0: 80 3C 01 11 07 80 04 80  3C 00 11 4A 80 04 80 3C  .<......<..J...<
1A00: 00 11 07 80 04 80 3D 00  11 4B 80 04 80 3D 00 11  ......=..K...=..
1A10: 5B 80 04 80 01 34 1B 02  1B 00 4F 80 80 61 1A 3D  [....4....O..a.=
1A20: 00 11 22 80 04 80 3D 00  11 2A 80 04 80 3C 00 11  .."...=..*...<..
1A30: 4F 80 04 80 3D 01 11 4A  80 04 80 3D 01 11 07 80  O...=..J...=....
1A40: 04 80 3C 00 11 4A 80 04  80 3C 00 11 07 80 04 80  ..<..J...<......
1A50: 3C 00 11 4B 80 04 80 3D  00 11 5B 80 04 80 01 34  <..K...=..[....4
1A60: 1B 02 1B 00 5C 80 80 AB  1A 3D 00 11 22 80 04 80  ....\....=.."...
1A70: 3D 00 11 2A 80 04 80 3C  00 11 4F 80 04 80 3D 01  =..*...<..O...=.
1A80: 11 4A 80 04 80 3D 01 11  07 80 04 80 3C 00 11 4A  .J...=......<..J
1A90: 80 04 80 3C 00 11 07 80  04 80 3C 00 11 4B 80 04  ...<......<..K..
1AA0: 80 3D 00 11 5B 80 04 80  01 34 1B 02 1B 00 47 80  .=..[....4....G.
1AB0: 80 F5 1A 3D 00 11 22 80  04 80 3D 00 11 2A 80 04  ...=.."...=..*..
1AC0: 80 3D 00 11 4F 80 04 80  3D 01 11 4A 80 04 80 3D  .=..O...=..J...=
1AD0: 01 11 07 80 04 80 3C 00  11 4A 80 04 80 3C 00 11  ......<..J...<..
1AE0: 07 80 04 80 3C 00 11 4B  80 04 80 3C 00 11 5B 80  ....<..K...<..[.
1AF0: 04 80 01 34 1B 3C 00 11  22 80 04 80 3C 00 11 2A  ...4.<.."...<..*
1B00: 80 04 80 3C 00 11 4F 80  04 80 3C 01 11 4A 80 04  ...<..O...<..J..
1B10: 80 3C 01 11 07 80 04 80  3C 00 11 4A 80 04 80 3D  .<......<..J...=
1B20: 00 11 07 80 04 80 3D 00  11 4B 80 04 80 3D 00 11  ......=..K...=..
1B30: 5B 80 04 80 1B 02 1B 00  05 80 80 71 1B 3D 00 11  [..........q.=..
1B40: 5C 80 04 80 3D 00 11 47  80 04 80 3D 00 11 15 80  \...=..G...=....
1B50: 04 80 3C 00 11 5D 80 04  80 3D 00 11 48 80 04 80  ..<..]...=..H...
1B60: 3D 00 11 49 80 04 80 3D  00 11 5E 80 04 80 01 82  =..I...=..^.....
1B70: 1D 02 1B 00 04 80 80 AD  1B 3D 00 11 5C 80 04 80  .........=..\...
1B80: 3D 00 11 47 80 04 80 3D  00 11 15 80 04 80 3C 00  =..G...=......<.
1B90: 11 5D 80 04 80 3D 00 11  48 80 04 80 3D 00 11 49  .]...=..H...=..I
1BA0: 80 04 80 3D 00 11 5E 80  04 80 01 82 1D 02 1B 00  ...=..^.........
1BB0: 1A 80 80 E9 1B 3D 00 11  5C 80 04 80 3D 00 11 47  .....=..\...=..G
1BC0: 80 04 80 3D 00 11 15 80  04 80 3C 00 11 5D 80 04  ...=......<..]..
1BD0: 80 3D 00 11 48 80 04 80  3D 00 11 49 80 04 80 3D  .=..H...=..I...=
1BE0: 00 11 5E 80 04 80 01 82  1D 02 1B 00 22 80 80 25  ..^........."..%
1BF0: 1C 3C 00 11 5C 80 04 80  3D 00 11 47 80 04 80 3D  .<..\...=..G...=
1C00: 00 11 15 80 04 80 3C 00  11 5D 80 04 80 3C 00 11  ......<..]...<..
1C10: 48 80 04 80 3D 00 11 49  80 04 80 3D 00 11 5E 80  H...=..I...=..^.
1C20: 04 80 01 82 1D 02 1B 00  2A 80 80 61 1C 3C 00 11  ........*..a.<..
1C30: 5C 80 04 80 3D 00 11 47  80 04 80 3D 00 11 15 80  \...=..G...=....
1C40: 04 80 3C 00 11 5D 80 04  80 3C 00 11 48 80 04 80  ..<..]...<..H...
1C50: 3D 00 11 49 80 04 80 3D  00 11 5E 80 04 80 01 82  =..I...=..^.....
1C60: 1D 02 1B 00 4F 80 80 9D  1C 3C 00 11 5C 80 04 80  ....O....<..\...
1C70: 3C 00 11 47 80 04 80 3D  00 11 15 80 04 80 3C 00  <..G...=......<.
1C80: 11 5D 80 04 80 3C 00 11  48 80 04 80 3C 00 11 49  .]...<..H...<..I
1C90: 80 04 80 3D 00 11 5E 80  04 80 01 82 1D 02 1B 00  ...=..^.........
1CA0: 5C 80 80 D9 1C 3C 00 11  5C 80 04 80 3C 00 11 47  \....<..\...<..G
1CB0: 80 04 80 3D 00 11 15 80  04 80 3C 00 11 5D 80 04  ...=......<..]..
1CC0: 80 3C 00 11 48 80 04 80  3C 00 11 49 80 04 80 3D  .<..H...<..I...=
1CD0: 00 11 5E 80 04 80 01 82  1D 02 1B 00 47 80 80 15  ..^.........G...
1CE0: 1D 3C 00 11 5C 80 04 80  3C 00 11 47 80 04 80 3C  .<..\...<..G...<
1CF0: 00 11 15 80 04 80 3C 00  11 5D 80 04 80 3C 00 11  ......<..]...<..
1D00: 48 80 04 80 3C 00 11 49  80 04 80 3C 00 11 5E 80  H...<..I...<..^.
1D10: 04 80 01 82 1D 02 1B 00  15 80 80 51 1D 3C 00 11  ...........Q.<..
1D20: 5C 80 04 80 3C 00 11 47  80 04 80 3C 00 11 15 80  \...<..G...<....
1D30: 04 80 3C 00 11 5D 80 04  80 3C 00 11 48 80 04 80  ..<..]...<..H...
1D40: 3C 00 11 49 80 04 80 3C  00 11 5E 80 04 80 01 82  <..I...<..^.....
1D50: 1D 3D 00 11 5C 80 04 80  3D 00 11 47 80 04 80 3D  .=..\...=..G...=
1D60: 00 11 15 80 04 80 3C 00  11 5D 80 04 80 3D 00 11  ......<..]...=..
1D70: 48 80 04 80 3D 00 11 49  80 04 80 3D 00 11 5E 80  H...=..I...=..^.
1D80: 04 80 1B 02 1B 00 05 80  80 C6 1D 3D 00 11 54 80  ...........=..T.
1D90: 04 80 3D 00 11 13 80 04  80 3D 00 11 42 80 04 80  ..=......=..B...
1DA0: 3D 01 11 5F 80 04 80 3C  01 11 4B 80 04 80 3D 01  =.._...<..K...=.
1DB0: 11 5B 80 04 80 3D 01 11  5D 80 04 80 3D 01 11 48  .[...=..]...=..H
1DC0: 80 04 80 01 D3 1F 02 1B  00 04 80 80 09 1E 3D 00  ..............=.
1DD0: 11 54 80 04 80 3D 00 11  13 80 04 80 3D 00 11 42  .T...=......=..B
1DE0: 80 04 80 3D 01 11 5F 80  04 80 3C 01 11 4B 80 04  ...=.._...<..K..
1DF0: 80 3D 01 11 5B 80 04 80  3D 01 11 5D 80 04 80 3D  .=..[...=..]...=
1E00: 01 11 48 80 04 80 01 D3  1F 02 1B 00 1A 80 80 4C  ..H............L
1E10: 1E 3D 00 11 54 80 04 80  3D 00 11 13 80 04 80 3D  .=..T...=......=
1E20: 00 11 42 80 04 80 3D 01  11 5F 80 04 80 3C 01 11  ..B...=.._...<..
1E30: 4B 80 04 80 3D 01 11 5B  80 04 80 3D 01 11 5D 80  K...=..[...=..].
1E40: 04 80 3D 01 11 48 80 04  80 01 D3 1F 02 1B 00 22  ..=..H........."
1E50: 80 80 8F 1E 3C 00 11 54  80 04 80 3D 00 11 13 80  ....<..T...=....
1E60: 04 80 3D 00 11 42 80 04  80 3D 01 11 5F 80 04 80  ..=..B...=.._...
1E70: 3D 01 11 4B 80 04 80 3C  01 11 5B 80 04 80 3D 01  =..K...<..[...=.
1E80: 11 5D 80 04 80 3D 01 11  48 80 04 80 01 D3 1F 02  .]...=..H.......
1E90: 1B 00 2A 80 80 D2 1E 3C  00 11 54 80 04 80 3D 00  ..*....<..T...=.
1EA0: 11 13 80 04 80 3D 00 11  42 80 04 80 3D 01 11 5F  .....=..B...=.._
1EB0: 80 04 80 3D 01 11 4B 80  04 80 3C 01 11 5B 80 04  ...=..K...<..[..
1EC0: 80 3D 01 11 5D 80 04 80  3D 01 11 48 80 04 80 01  .=..]...=..H....
1ED0: D3 1F 02 1B 00 4F 80 80  15 1F 3C 00 11 54 80 04  .....O....<..T..
1EE0: 80 3C 00 11 13 80 04 80  3D 00 11 42 80 04 80 3D  .<......=..B...=
1EF0: 01 11 5F 80 04 80 3D 01  11 4B 80 04 80 3D 01 11  .._...=..K...=..
1F00: 5B 80 04 80 3C 01 11 5D  80 04 80 3D 01 11 48 80  [...<..]...=..H.
1F10: 04 80 01 D3 1F 02 1B 00  5C 80 80 58 1F 3C 00 11  ........\..X.<..
1F20: 54 80 04 80 3C 00 11 13  80 04 80 3D 00 11 42 80  T...<......=..B.
1F30: 04 80 3D 01 11 5F 80 04  80 3D 01 11 4B 80 04 80  ..=.._...=..K...
1F40: 3D 01 11 5B 80 04 80 3C  01 11 5D 80 04 80 3D 01  =..[...<..]...=.
1F50: 11 48 80 04 80 01 D3 1F  02 1B 00 47 80 80 9B 1F  .H.........G....
1F60: 3C 00 11 54 80 04 80 3C  00 11 13 80 04 80 3C 00  <..T...<......<.
1F70: 11 42 80 04 80 3C 01 11  5F 80 04 80 3D 01 11 4B  .B...<.._...=..K
1F80: 80 04 80 3D 01 11 5B 80  04 80 3D 01 11 5D 80 04  ...=..[...=..]..
1F90: 80 3C 01 11 48 80 04 80  01 D3 1F 3D 00 11 54 80  .<..H......=..T.
1FA0: 04 80 3D 00 11 13 80 04  80 3D 00 11 42 80 04 80  ..=......=..B...
1FB0: 3D 01 11 5F 80 04 80 3C  01 11 4B 80 04 80 3D 01  =.._...<..K...=.
1FC0: 11 5B 80 04 80 3D 01 11  5D 80 04 80 3D 01 11 48  .[...=..]...=..H
1FD0: 80 04 80 1B 03 01 10 42  80 43 00 43 01 03 02 11  .......B.C.C....
1FE0: 02 10 03 03 11 03 10 03  04 11 04 10 03 05 11 05  ................
1FF0: 10 03 06 11 06 10 03 07  11 07 10 03 09 11 08 10  ................
2000: 1B 03 01 10 63 80 47 00  64 80 65 80 66 80 67 80  ....c.G.d.e.f.g.
2010: 47 01 03 02 11 02 10 03  03 11 03 10 03 04 11 04  G...............
2020: 10 03 05 11 05 10 03 06  11 06 10 03 07 11 07 10  ................
2030: 03 09 11 08 10 1B 2F 00  37 80 11 01 2F 00 38 80  ....../.7.../.8.
2040: 11 01 2F 00 39 80 11 01  2F 00 3A 80 11 01 2F 00  ../.9.../.:.../.
2050: 3B 80 11 01 2F 00 3C 80  11 01 2F 00 3D 80 11 01  ;.../.<.../.=...
2060: 2F 00 3E 80 11 01 2F 00  3F 80 11 01 2F 00 40 80  /.>.../.?.../.@.
2070: 11 01 2F 00 41 80 11 01  2F 00 42 80 11 01 2F 00  ../.A.../.B.../.
2080: 43 80 11 01 2F 00 44 80  11 01 2F 00 45 80 11 01  C.../.D.../.E...
2090: 2F 00 46 80 11 01 2F 00  47 80 11 01 2F 00 48 80  /.F.../.G.../.H.
20A0: 11 01 2F 00 49 80 11 01  2F 00 4A 80 11 01 2F 00  ../.I.../.J.../.
20B0: 4B 80 11 01 2F 00 4C 80  11 01 2F 00 4D 80 11 01  K.../.L.../.M...
20C0: 2F 00 4E 80 11 01 AC 02  37 80 11 01 AC 02 38 80  /.N.....7.....8.
20D0: 11 01 AC 02 39 80 11 01  AC 02 3A 80 11 01 AC 02  ....9.....:.....
20E0: 3B 80 11 01 AC 02 3C 80  11 01 AC 02 3D 80 11 01  ;.....<.....=...
20F0: AC 02 3E 80 11 01 AC 02  3F 80 11 01 AC 02 40 80  ..>.....?.....@.
2100: 11 01 AC 02 41 80 11 01  AC 02 42 80 11 01 AC 02  ....A.....B.....
2110: 43 80 11 01 AC 02 44 80  11 01 AC 02 45 80 11 01  C.....D.....E...
2120: AC 02 46 80 11 01 AC 02  47 80 11 01 AC 02 48 80  ..F.....G.....H.
2130: 11 01 AC 02 49 80 11 01  AC 02 4A 80 11 01 AC 02  ....I.....J.....
2140: 4B 80 11 01 AC 02 4C 80  11 01 AC 02 4D 80 11 01  K.....L.....M...
2150: AC 02 4E 80 11 01 AC 02  0C 80 11 01 AC 02 0D 80  ..N.............
2160: 11 01 AC 02 0E 80 11 01  41 05 80 04 80 02 11 02  ........A.......
2170: 10 02 02 10 04 80 00 83  21 29 80 0C 80 11 01 03  ........!)......
2180: 01 8A 21 29 80 0C 80 11  01 02 41 05 80 04 80 03  ..!)......A.....
2190: 11 02 10 02 02 10 04 80  00 A5 21 29 80 0D 80 11  ..........!)....
21A0: 01 03 01 AC 21 29 80 0D  80 11 01 02 41 05 80 04  ....!)......A...
21B0: 80 04 11 02 10 02 02 10  04 80 00 C7 21 29 80 0E  ............!)..
21C0: 80 11 01 03 01 CE 21 29  80 0E 80 11 01 02 27 80  ......!)......'.
21D0: 37 80 11 01 02 27 80 38  80 11 01 02 27 80 39 80  7....'.8....'.9.
21E0: 11 01 02 29 80 3A 80 11  01 02 27 80 3B 80 11 01  ...).:....'.;...
21F0: 02 27 80 3C 80 11 01 02  27 80 3D 80 11 01 02 29  .'.<....'.=....)
2200: 80 3E 80 11 01 02 27 80  3F 80 11 01 02 27 80 40  .>....'.?....'.@
2210: 80 11 01 02 27 80 41 80  11 01 02 29 80 42 80 11  ....'.A....).B..
2220: 01 02 27 80 43 80 11 01  02 27 80 44 80 11 01 02  ..'.C....'.D....
2230: 27 80 45 80 11 01 02 29  80 46 80 11 01 02 27 80  '.E....).F....'.
2240: 47 80 11 01 02 27 80 48  80 11 01 02 27 80 49 80  G....'.H....'.I.
2250: 11 01 02 29 80 4A 80 11  01 02 27 80 4B 80 11 01  ...).J....'.K...
2260: 02 27 80 4C 80 11 01 02  27 80 4D 80 11 01 02 29  .'.L....'.M....)
2270: 80 4E 80 11 01 02 1B 42  45 06 80 F0 FF FF 7F F0  .N.....BE.......
2280: FF FF 7F 66 64 6F 30 05  80 55 06 80 F0 FF FF 7F  ...fdo0..U......
2290: F0 FF FF 7F 66 64 6F 30  1A 01 20 1A 16 0C 45 06  ....fdo0.. ...E.
22A0: 80 F0 FF FF 7F F0 FF FF  7F 66 64 69 30 05 80 55  .........fdi0..U
22B0: 06 80 F0 FF FF 7F F0 FF  FF 7F 66 64 69 30 1B 42  ..........fdi0.B
22C0: 45 06 80 F0 FF FF 7F F0  FF FF 7F 66 64 6F 30 05  E..........fdo0.
22D0: 80 55 06 80 F0 FF FF 7F  F0 FF FF 7F 66 64 6F 30  .U..........fdo0
22E0: 03 01 10 68 80 47 00 69  80 6A 80 6B 80 6C 80 47  ...h.G.i.j.k.l.G
22F0: 01 02 02 10 05 80 00 0E  23 1A 50 14 1A F9 13 1A  ........#.P.....
2300: 07 14 1A 15 14 1A 23 14  1A B5 12 01 0E 23 45 06  ......#......#E.
2310: 80 F0 FF FF 7F F0 FF FF  7F 66 64 69 30 05 80 55  .........fdi0..U
2320: 06 80 F0 FF FF 7F F0 FF  FF 7F 66 64 69 30 1B 1A  ..........fdi0..
2330: 98 23 02 1B 00 05 80 01  3B 23 1B 3C 00 11 02 10  .#......;#.<....
2340: 04 80 1A 16 0C 1B 1A 98  23 02 1B 00 05 80 01 52  ........#......R
2350: 23 1B 3D 00 11 02 10 04  80 1A 16 0C 1B 03 1B 00  #.=.............
2360: 02 10 03 01 10 1A 80 40  15 80 39 80 01 10 02 10  .......@..9.....
2370: 02 1C 00 05 80 00 82 23  3C 01 10 39 80 04 80 01  .......#<..9....
2380: 89 23 3D 01 10 39 80 04  80 43 00 43 01 03 00 11  .#=..9...C.C....
2390: 02 10 03 1B 00 05 80 1B  02 02 10 05 80 03 A9 23  ...............#
23A0: 03 1B 00 3F 80 1B 01 BF  23 02 02 10 39 80 02 BA  ...?....#...9...
23B0: 23 03 1B 00 3F 80 1B 01  BF 23 03 1B 00 05 80 1B  #...?....#......
23C0: 02 10 03 10 04 10 05 10  06 10 07 10 08 10 09 10  ................
23D0: 00 17 01 17 02 17 03 17  04 17 05 17 06 17 07 17  ................
23E0: 08 17 09 17 0A 17 0B 17  0C 17 0D 17 0E 17 0F 17  ................
23F0: 10 17 11 17 12 17 13 17  14 17 15 17 16 17 17 17  ................
2400: 18 17 19 17 1A 17 1B 17  1C 17 1D 17 1E 17 1F 17  ................
2410: 05 80 05 80 05 80 05 80  05 80 05 80 05 80 05 80  ................
```

#### Opcodes

```
  0: 0x0C0B [0x03] Work_Zone[3] = 4366*
  1: 0x0C10 [0x48] [System] [8740*]:
    → "Perhaps it would be best to give %0 $1."
  2: 0x0C13 [0x23] WAIT_FOR_DIALOG_INTERACTION
  3: 0x0C14 [0x21] END_EVENT
  4: 0x0C15 [0x00] END_REQSTACK()
```

#### Data or dead code:

```
# Dead code (unreachable instructions):
     0x0C16 [0x92] Green Thumb Moogle (ID: 17924125/0x0111801D)->Render.Flags3 = Flags3  // No change (flag=0)
     0x0C1C [0x1A] CALL_SUBROUTINE(address=0x1450)
     0x0C1F [0x1A] CALL_SUBROUTINE(address=0x0C8D)
     0x0C22 [0x1A] CALL_SUBROUTINE(address=0x0D51)
     0x0C25 [0x1A] CALL_SUBROUTINE(address=0x0EFB)
     0x0C28 [0x1A] CALL_SUBROUTINE(address=0x1128)
     0x0C2B [0x1A] CALL_SUBROUTINE(address=0x2036)
     0x0C2E [0x1A] CALL_SUBROUTINE(address=0x1136)
     0x0C31 [0x1A] CALL_SUBROUTINE(address=0x1212)
     0x0C34 [0x1A] CALL_SUBROUTINE(address=0x1249)
     0x0C37 [0x1A] CALL_SUBROUTINE(address=0x126C)
     0x0C3A [0x1A] CALL_SUBROUTINE(address=0x1298)
     0x0C3D [0x1A] CALL_SUBROUTINE(address=0x1338)
     0x0C40 [0x1A] CALL_SUBROUTINE(address=0x13C2)
     0x0C43 [0x1A] CALL_SUBROUTINE(address=0x13EB)
     0x0C46 [0x1A] CALL_SUBROUTINE(address=0x1431)
     0x0C49 [0x1A] CALL_SUBROUTINE(address=0x1069)
     0x0C4C [0xAC] Coastal Fishing Net (ID: 17924149/0x01118035)->Render.Flags6 |= 0x02 // Set bit 1
     0x0C52 [0x1B] RETURN
     0x0C53 [0x92] Green Thumb Moogle (ID: 17924125/0x0111801D)->Render.Flags3 = Flags3  // No change (flag=0)
     0x0C59 [0x1A] CALL_SUBROUTINE(address=0x0C8D)
     0x0C5C [0x1A] CALL_SUBROUTINE(address=0x0D51)
     0x0C5F [0x1A] CALL_SUBROUTINE(address=0x0EFB)
     0x0C62 [0x1A] CALL_SUBROUTINE(address=0x1128)
     0x0C65 [0x1A] CALL_SUBROUTINE(address=0x2036)
     0x0C68 [0x1A] CALL_SUBROUTINE(address=0x1136)
     0x0C6B [0x1A] CALL_SUBROUTINE(address=0x1212)
     0x0C6E [0x1A] CALL_SUBROUTINE(address=0x1249)
     0x0C71 [0x1A] CALL_SUBROUTINE(address=0x126C)
     0x0C74 [0x1A] CALL_SUBROUTINE(address=0x1298)
     0x0C77 [0x1A] CALL_SUBROUTINE(address=0x1338)
     0x0C7A [0x1A] CALL_SUBROUTINE(address=0x13C2)
     0x0C7D [0x1A] CALL_SUBROUTINE(address=0x13EB)
     0x0C80 [0x1A] CALL_SUBROUTINE(address=0x1431)
     0x0C83 [0x1A] CALL_SUBROUTINE(address=0x1069)
     0x0C86 [0xAC] Coastal Fishing Net (ID: 17924149/0x01118035)->Render.Flags6 |= 0x02 // Set bit 1
     0x0C8C [0x1B] RETURN
     0x0C8D [0xAC] Unknown NPC (ID: 17924105/0x01118009)->Render.Flags6 |= 0x02 // Set bit 1
     0x0C93 [0x3E] IF !(Work_Zone_Memorize[0] bit 0*) GOTO 0x0CA4
     0x0C9A [0x27] REQ_SET(priority=0x80, entity_id=Unknown NPC (ID: 17924105/0x01118009), tag_num=0x02)
     0x0CA1 [0x01] GOTO 0x0CAB
     0x0CA4 [0x27] REQ_SET(priority=0x80, entity_id=Unknown NPC (ID: 17924105/0x01118009), tag_num=0x03)
     0x0CAB [0xAC] Unknown NPC (ID: 17924106/0x0111800A)->Render.Flags6 |= 0x02 // Set bit 1
     0x0CB1 [0x3E] IF !(Work_Zone_Memorize[0] bit 1*) GOTO 0x0CC2
     0x0CB8 [0x27] REQ_SET(priority=0x80, entity_id=Unknown NPC (ID: 17924106/0x0111800A), tag_num=0x02)
     0x0CBF [0x01] GOTO 0x0CC9
     0x0CC2 [0x27] REQ_SET(priority=0x80, entity_id=Unknown NPC (ID: 17924106/0x0111800A), tag_num=0x03)
     0x0CC9 [0xAC] Unknown NPC (ID: 17924107/0x0111800B)->Render.Flags6 |= 0x02 // Set bit 1
     0x0CCF [0x3E] IF !(Work_Zone_Memorize[0] bit 2*) GOTO 0x0CE0
     0x0CD6 [0x29] REQ_SET_WAIT(priority=0x80, entity_id=Unknown NPC (ID: 17924107/0x0111800B), tag_num=0x02)
     0x0CDD [0x01] GOTO 0x0CE7
     0x0CE0 [0x29] REQ_SET_WAIT(priority=0x80, entity_id=Unknown NPC (ID: 17924107/0x0111800B), tag_num=0x03)
     0x0CE7 [0x92] Garden Furrow (ID: 17924128/0x01118020)->Render.Flags3 ^= 0x01
     0x0CED [0x92] Garden Furrow #2 (ID: 17924129/0x01118021)->Render.Flags3 ^= 0x01
     0x0CF3 [0x92] Garden Furrow #3 (ID: 17924130/0x01118022)->Render.Flags3 ^= 0x01
     0x0CF9 [0xAC] Garden Furrow (ID: 17924128/0x01118020)->Render.Flags6 |= 0x02 // Set bit 1
     0x0CFF [0x3E] IF !(Work_Zone_Memorize[0] bit 26*) GOTO 0x0D0F
     0x0D06 [0x4E] SET_ENTITY_HIDE_FLAG: Show Garden Furrow (ID: 17924128/0x01118020)
     0x0D0C [0x01] GOTO 0x0D15
     0x0D0F [0x4E] SET_ENTITY_HIDE_FLAG: Hide Garden Furrow (ID: 17924128/0x01118020)
     0x0D15 [0xAC] Garden Furrow #2 (ID: 17924129/0x01118021)->Render.Flags6 |= 0x02 // Set bit 1
     0x0D1B [0x3E] IF !(Work_Zone_Memorize[0] bit 27*) GOTO 0x0D2B
     0x0D22 [0x4E] SET_ENTITY_HIDE_FLAG: Show Garden Furrow #2 (ID: 17924129/0x01118021)
     0x0D28 [0x01] GOTO 0x0D31
     0x0D2B [0x4E] SET_ENTITY_HIDE_FLAG: Hide Garden Furrow #2 (ID: 17924129/0x01118021)
     0x0D31 [0xAC] Garden Furrow #3 (ID: 17924130/0x01118022)->Render.Flags6 |= 0x02 // Set bit 1
     0x0D37 [0x3E] IF !(Work_Zone_Memorize[0] bit 28*) GOTO 0x0D47
     0x0D3E [0x4E] SET_ENTITY_HIDE_FLAG: Show Garden Furrow #3 (ID: 17924130/0x01118022)
     0x0D44 [0x01] GOTO 0x0D4D
     0x0D47 [0x4E] SET_ENTITY_HIDE_FLAG: Hide Garden Furrow #3 (ID: 17924130/0x01118022)
     0x0D4D [0x1C] WAIT(1* ticks)
     0x0D50 [0x1B] RETURN
     0x0D51 [0xAC] Unknown NPC (ID: 17924111/0x0111800F)->Render.Flags6 |= 0x02 // Set bit 1
     0x0D57 [0x3E] IF !(Work_Zone_Memorize[0] bit 3*) GOTO 0x0D68
     0x0D5E [0x27] REQ_SET(priority=0x80, entity_id=Unknown NPC (ID: 17924111/0x0111800F), tag_num=0x02)
     0x0D65 [0x01] GOTO 0x0D6F
     0x0D68 [0x27] REQ_SET(priority=0x80, entity_id=Unknown NPC (ID: 17924111/0x0111800F), tag_num=0x03)
     0x0D6F [0xAC] Unknown NPC (ID: 17924112/0x01118010)->Render.Flags6 |= 0x02 // Set bit 1
     0x0D75 [0x3E] IF !(Work_Zone_Memorize[0] bit 4*) GOTO 0x0D86
     0x0D7C [0x27] REQ_SET(priority=0x80, entity_id=Unknown NPC (ID: 17924112/0x01118010), tag_num=0x02)
     0x0D83 [0x01] GOTO 0x0D8D
     0x0D86 [0x27] REQ_SET(priority=0x80, entity_id=Unknown NPC (ID: 17924112/0x01118010), tag_num=0x03)
     0x0D8D [0xAC] Unknown NPC (ID: 17924113/0x01118011)->Render.Flags6 |= 0x02 // Set bit 1
     0x0D93 [0x3E] IF !(Work_Zone_Memorize[0] bit 5*) GOTO 0x0DA4
     0x0D9A [0x29] REQ_SET_WAIT(priority=0x80, entity_id=Unknown NPC (ID: 17924113/0x01118011), tag_num=0x02)
     0x0DA1 [0x01] GOTO 0x0DAB
     0x0DA4 [0x29] REQ_SET_WAIT(priority=0x80, entity_id=Unknown NPC (ID: 17924113/0x01118011), tag_num=0x03)
     0x0DAB [0xAC] Unknown NPC (ID: 17924122/0x0111801A)->Render.Flags6 |= 0x02 // Set bit 1
     0x0DB1 [0x3E] IF !(Work_Zone_Memorize[1] bit 18*) GOTO 0x0DC2
     0x0DB8 [0x27] REQ_SET(priority=0x80, entity_id=Unknown NPC (ID: 17924122/0x0111801A), tag_num=0x02)
     0x0DBF [0x01] GOTO 0x0DC9
     0x0DC2 [0x27] REQ_SET(priority=0x80, entity_id=Unknown NPC (ID: 17924122/0x0111801A), tag_num=0x03)
     0x0DC9 [0xAC] Unknown NPC (ID: 17924123/0x0111801B)->Render.Flags6 |= 0x02 // Set bit 1
     0x0DCF [0x3E] IF !(Work_Zone_Memorize[1] bit 19*) GOTO 0x0DE0
     0x0DD6 [0x29] REQ_SET_WAIT(priority=0x80, entity_id=Unknown NPC (ID: 17924123/0x0111801B), tag_num=0x02)
     0x0DDD [0x01] GOTO 0x0DE7
     0x0DE0 [0x29] REQ_SET_WAIT(priority=0x80, entity_id=Unknown NPC (ID: 17924123/0x0111801B), tag_num=0x03)
     0x0DE7 [0xAC] Arboreal Grove (ID: 17924131/0x01118023)->Render.Flags6 |= 0x02 // Set bit 1
     0x0DED [0xAC] Arboreal Grove (ID: 17924132/0x01118024)->Render.Flags6 |= 0x02 // Set bit 1
     0x0DF3 [0x3E] IF !(Work_Zone_Memorize[0] bit 18*) GOTO 0x0E1F
     0x0DFA [0x3E] IF !(Work_Zone_Memorize[8] bit 0*) GOTO 0x0E10
     0x0E01 [0x4E] SET_ENTITY_HIDE_FLAG: Show Arboreal Grove (ID: 17924132/0x01118024)
     0x0E07 [0x4E] SET_ENTITY_HIDE_FLAG: Hide Arboreal Grove (ID: 17924131/0x01118023)
     0x0E0D [0x01] GOTO 0x0E1C
     0x0E10 [0x4E] SET_ENTITY_HIDE_FLAG: Show Arboreal Grove (ID: 17924131/0x01118023)
     0x0E16 [0x4E] SET_ENTITY_HIDE_FLAG: Hide Arboreal Grove (ID: 17924132/0x01118024)
     0x0E1C [0x01] GOTO 0x0E2B
     0x0E1F [0x4E] SET_ENTITY_HIDE_FLAG: Hide Arboreal Grove (ID: 17924131/0x01118023)
     0x0E25 [0x4E] SET_ENTITY_HIDE_FLAG: Hide Arboreal Grove (ID: 17924132/0x01118024)
     0x0E2B [0xAC] Arboreal Grove #2 (ID: 17924133/0x01118025)->Render.Flags6 |= 0x02 // Set bit 1
     0x0E31 [0xAC] Arboreal Grove #2 (ID: 17924134/0x01118026)->Render.Flags6 |= 0x02 // Set bit 1
     0x0E37 [0x3E] IF !(Work_Zone_Memorize[0] bit 19*) GOTO 0x0E63
     0x0E3E [0x3E] IF !(Work_Zone_Memorize[8] bit 1*) GOTO 0x0E54
     0x0E45 [0x4E] SET_ENTITY_HIDE_FLAG: Show Arboreal Grove #2 (ID: 17924134/0x01118026)
     0x0E4B [0x4E] SET_ENTITY_HIDE_FLAG: Hide Arboreal Grove #2 (ID: 17924133/0x01118025)
     0x0E51 [0x01] GOTO 0x0E60
     0x0E54 [0x4E] SET_ENTITY_HIDE_FLAG: Show Arboreal Grove #2 (ID: 17924133/0x01118025)
     0x0E5A [0x4E] SET_ENTITY_HIDE_FLAG: Hide Arboreal Grove #2 (ID: 17924134/0x01118026)
     0x0E60 [0x01] GOTO 0x0E6F
