# 17924125 - Green Thumb Moogle

## Common Data

| Field            | Value                |
|------------------|----------------------|
| Zone             | Mog Garden (ID: 280) |
| Block Size       | 19368 bytes          |
| Total Events     | 206                  |
| References Count | 501                  |

## List of Events

| Event ID                     | Entrypoint   |   Size |   Instructions |
|------------------------------|--------------|--------|----------------|
| [65535](#event-65535)        | 0x0000       |      1 |              1 |
| [2059](#event-2059)          | 0x0001       |      1 |              1 |
| [65535.1](#event-655351)     | 0x0002       |     32 |              8 |
| [65535.2](#event-655352)     | 0x0022       |     12 |              3 |
| [65535.3](#event-655353)     | 0x002E       |     14 |              4 |
| [2060](#event-2060)          | 0x003C       |     54 |             13 |
| [2061](#event-2061)          | 0x0072       |      1 |              1 |
| [65535.4](#event-655354)     | 0x0073       |     10 |              2 |
| [65535.5](#event-655355)     | 0x007D       |     14 |              4 |
| [2062](#event-2062)          | 0x008B       |      1 |              1 |
| [65535.6](#event-655356)     | 0x008C       |     10 |              2 |
| [65535.7](#event-655357)     | 0x0096       |     14 |              4 |
| [2063](#event-2063)          | 0x00A4       |     49 |             12 |
| [2064](#event-2064)          | 0x00D5       |     49 |             12 |
| [2065](#event-2065)          | 0x0106       |      1 |              1 |
| [65535.8](#event-655358)     | 0x0107       |     10 |              2 |
| [65535.9](#event-655359)     | 0x0111       |     14 |              4 |
| [2068](#event-2068)          | 0x011F       |      1 |              1 |
| [65535.10](#event-6553510)   | 0x0120       |     10 |              2 |
| [65535.11](#event-6553511)   | 0x012A       |     10 |              2 |
| [2069](#event-2069)          | 0x0134       |     54 |             13 |
| [2070](#event-2070)          | 0x016A       |      1 |              1 |
| [65535.12](#event-6553512)   | 0x016B       |     10 |              2 |
| [65535.13](#event-6553513)   | 0x0175       |     14 |              4 |
| [65535.14](#event-6553514)   | 0x0183       |     23 |              5 |
| [65535.15](#event-6553515)   | 0x019A       |     12 |              3 |
| [65535.16](#event-6553516)   | 0x01A6       |     32 |              8 |
| [2071](#event-2071)          | 0x01C6       |      1 |              1 |
| [65535.17](#event-6553517)   | 0x01C7       |     10 |              2 |
| [65535.18](#event-6553518)   | 0x01D1       |     10 |              2 |
| [2072](#event-2072)          | 0x01DB       |     53 |             14 |
| [2073](#event-2073)          | 0x0210       |     45 |             10 |
| [2075](#event-2075)          | 0x023D       |      1 |              1 |
| [65535.19](#event-6553519)   | 0x023E       |     10 |              2 |
| [65535.20](#event-6553520)   | 0x0248       |     21 |              7 |
| [65535.21](#event-6553521)   | 0x025D       |     14 |              4 |
| [65535.22](#event-6553522)   | 0x026B       |     14 |              4 |
| [65535.23](#event-6553523)   | 0x0279       |     23 |              5 |
| [65535.24](#event-6553524)   | 0x0290       |     10 |              2 |
| [65535.25](#event-6553525)   | 0x029A       |     32 |              8 |
| [65535.26](#event-6553526)   | 0x02BA       |     14 |              4 |
| [65535.27](#event-6553527)   | 0x02C8       |     33 |              3 |
| [65535.28](#event-6553528)   | 0x02E9       |     14 |              2 |
| [65535.29](#event-6553529)   | 0x02F7       |     16 |              2 |
| [65535.30](#event-6553530)   | 0x0307       |     14 |              2 |
| [65535.31](#event-6553531)   | 0x0315       |     33 |              3 |
| [65535.32](#event-6553532)   | 0x0336       |     14 |              2 |
| [65535.33](#event-6553533)   | 0x0344       |     16 |              2 |
| [65535.34](#event-6553534)   | 0x0354       |     14 |              2 |
| [65535.35](#event-6553535)   | 0x0362       |     33 |              3 |
| [65535.36](#event-6553536)   | 0x0383       |     14 |              2 |
| [65535.37](#event-6553537)   | 0x0391       |     16 |              2 |
| [65535.38](#event-6553538)   | 0x03A1       |     14 |              2 |
| [65535.39](#event-6553539)   | 0x03AF       |     33 |              3 |
| [65535.40](#event-6553540)   | 0x03D0       |     14 |              2 |
| [65535.41](#event-6553541)   | 0x03DE       |     16 |              2 |
| [65535.42](#event-6553542)   | 0x03EE       |     14 |              2 |
| [65535.43](#event-6553543)   | 0x03FC       |     16 |              2 |
| [65535.44](#event-6553544)   | 0x040C       |     14 |              2 |
| [65535.45](#event-6553545)   | 0x041A       |     16 |              2 |
| [65535.46](#event-6553546)   | 0x042A       |     14 |              2 |
| [65535.47](#event-6553547)   | 0x0438       |     16 |              2 |
| [65535.48](#event-6553548)   | 0x0448       |     14 |              2 |
| [65535.49](#event-6553549)   | 0x0456       |     16 |              2 |
| [65535.50](#event-6553550)   | 0x0466       |     14 |              2 |
| [65535.51](#event-6553551)   | 0x0474       |     16 |              2 |
| [65535.52](#event-6553552)   | 0x0484       |     14 |              2 |
| [65535.53](#event-6553553)   | 0x0492       |     16 |              2 |
| [65535.54](#event-6553554)   | 0x04A2       |     14 |              2 |
| [65535.55](#event-6553555)   | 0x04B0       |     16 |              2 |
| [65535.56](#event-6553556)   | 0x04C0       |     14 |              2 |
| [65535.57](#event-6553557)   | 0x04CE       |     33 |              3 |
| [65535.58](#event-6553558)   | 0x04EF       |     14 |              2 |
| [65535.59](#event-6553559)   | 0x04FD       |     33 |              3 |
| [65535.60](#event-6553560)   | 0x051E       |     14 |              2 |
| [65535.61](#event-6553561)   | 0x052C       |     16 |              2 |
| [65535.62](#event-6553562)   | 0x053C       |     14 |              2 |
| [65535.63](#event-6553563)   | 0x054A       |     16 |              2 |
| [65535.64](#event-6553564)   | 0x055A       |     14 |              2 |
| [65535.65](#event-6553565)   | 0x0568       |     16 |              2 |
| [65535.66](#event-6553566)   | 0x0578       |     14 |              2 |
| [65535.67](#event-6553567)   | 0x0586       |     16 |              2 |
| [65535.68](#event-6553568)   | 0x0596       |     14 |              2 |
| [65535.69](#event-6553569)   | 0x05A4       |     16 |              2 |
| [65535.70](#event-6553570)   | 0x05B4       |     14 |              2 |
| [65535.71](#event-6553571)   | 0x05C2       |     16 |              2 |
| [65535.72](#event-6553572)   | 0x05D2       |     14 |              2 |
| [65535.73](#event-6553573)   | 0x05E0       |     35 |              4 |
| [65535.74](#event-6553574)   | 0x0603       |     14 |              2 |
| [65535.75](#event-6553575)   | 0x0611       |     18 |              2 |
| [65535.76](#event-6553576)   | 0x0623       |     14 |              2 |
| [65535.77](#event-6553577)   | 0x0631       |     18 |              2 |
| [65535.78](#event-6553578)   | 0x0643       |     14 |              2 |
| [65535.79](#event-6553579)   | 0x0651       |     18 |              2 |
| [65535.80](#event-6553580)   | 0x0663       |     14 |              2 |
| [65535.81](#event-6553581)   | 0x0671       |     29 |              3 |
| [65535.82](#event-6553582)   | 0x068E       |    183 |             15 |
| [65535.83](#event-6553583)   | 0x0745       |     40 |              4 |
| [65535.84](#event-6553584)   | 0x076D       |     14 |              2 |
| [65535.85](#event-6553585)   | 0x077B       |     29 |              3 |
| [65535.86](#event-6553586)   | 0x0798       |     16 |              2 |
| [65535.87](#event-6553587)   | 0x07A8       |     14 |              2 |
| [65535.88](#event-6553588)   | 0x07B6       |     16 |              2 |
| [65535.89](#event-6553589)   | 0x07C6       |     42 |              4 |
| [65535.90](#event-6553590)   | 0x07F0       |     16 |              2 |
| [65535.91](#event-6553591)   | 0x0800       |     14 |              2 |
| [65535.92](#event-6553592)   | 0x080E       |     16 |              2 |
| [65535.93](#event-6553593)   | 0x081E       |     14 |              2 |
| [65535.94](#event-6553594)   | 0x082C       |     16 |              2 |
| [65535.95](#event-6553595)   | 0x083C       |     14 |              2 |
| [65535.96](#event-6553596)   | 0x084A       |      4 |              2 |
| [65535.97](#event-6553597)   | 0x084E       |     13 |              5 |
| [2009](#event-2009)          | 0x085B       |     66 |             13 |
| [2016](#event-2016)          | 0x089D       |     47 |             12 |
| [2017](#event-2017)          | 0x08CC       |     54 |             13 |
| [2018](#event-2018)          | 0x0902       |     34 |             11 |
| [2019](#event-2019)          | 0x0924       |     83 |             16 |
| [2020](#event-2020)          | 0x0977       |     79 |             14 |
| [2021](#event-2021)          | 0x09C6       |     66 |             13 |
| [2000](#event-2000)          | 0x0A08       |      1 |              1 |
| [2001](#event-2001)          | 0x0A09       |      1 |              1 |
| [65535.98](#event-6553598)   | 0x0A0A       |      1 |              1 |
| [65535.99](#event-6553599)   | 0x0A0B       |     21 |              7 |
| [65535.100](#event-65535100) | 0x0A20       |      9 |              3 |
| [2002](#event-2002)          | 0x0A29       |      1 |              1 |
| [65535.101](#event-65535101) | 0x0A2A       |     10 |              2 |
| [65535.102](#event-65535102) | 0x0A34       |     16 |              5 |
| [2003](#event-2003)          | 0x0A44       |      1 |              1 |
| [65535.103](#event-65535103) | 0x0A45       |     10 |              2 |
| [65535.104](#event-65535104) | 0x0A4F       |      9 |              3 |
| [2004](#event-2004)          | 0x0A58       |      1 |              1 |
| [65535.105](#event-65535105) | 0x0A59       |     10 |              2 |
| [2005](#event-2005)          | 0x0A63       |      1 |              1 |
| [65535.106](#event-65535106) | 0x0A64       |     10 |              2 |
| [65535.107](#event-65535107) | 0x0A6E       |     16 |              5 |
| [65535.108](#event-65535108) | 0x0A7E       |     16 |              5 |
| [2006](#event-2006)          | 0x0A8E       |      1 |              1 |
| [65535.109](#event-65535109) | 0x0A8F       |     10 |              2 |
| [65535.110](#event-65535110) | 0x0A99       |     14 |              4 |
| [65535.111](#event-65535111) | 0x0AA7       |     14 |              4 |
| [2007](#event-2007)          | 0x0AB5       |      1 |              1 |
| [65535.112](#event-65535112) | 0x0AB6       |     10 |              2 |
| [2008](#event-2008)          | 0x0AC0       |      1 |              1 |
| [65535.113](#event-65535113) | 0x0AC1       |     10 |              2 |
| [65535.114](#event-65535114) | 0x0ACB       |     14 |              4 |
| [65535.115](#event-65535115) | 0x0AD9       |      1 |              1 |
| [65535.116](#event-65535116) | 0x0ADA       |     10 |              2 |
| [2010](#event-2010)          | 0x0AE4       |      1 |              1 |
| [65535.117](#event-65535117) | 0x0AE5       |     10 |              2 |
| [2011](#event-2011)          | 0x0AEF       |      1 |              1 |
| [2012](#event-2012)          | 0x0AF0       |      1 |              1 |
| [65535.118](#event-65535118) | 0x0AF1       |     65 |             11 |
| [65535.119](#event-65535119) | 0x0B32       |     10 |              4 |
| [65535.120](#event-65535120) | 0x0B3C       |     10 |              4 |
| [65535.121](#event-65535121) | 0x0B46       |     10 |              4 |
| [2022](#event-2022)          | 0x0B50       |    184 |             29 |
| [2023](#event-2023)          | 0x0C08       |     83 |             16 |
| [2024](#event-2024)          | 0x0C5B       |    234 |             31 |
| [2025](#event-2025)          | 0x0D45       |    222 |             37 |
| [2026](#event-2026)          | 0x0E23       |     51 |             14 |
| [2027](#event-2027)          | 0x0E56       |    286 |             37 |
| [2028](#event-2028)          | 0x0F74       |    295 |             44 |
| [2029](#event-2029)          | 0x109B       |     77 |             16 |
| [2030](#event-2030)          | 0x10E8       |     99 |             18 |
| [2031](#event-2031)          | 0x114B       |     66 |             13 |
| [2032](#event-2032)          | 0x118D       |      1 |              1 |
| [65535.122](#event-65535122) | 0x118E       |     12 |              3 |
| [65535.123](#event-65535123) | 0x119A       |     26 |              7 |
| [65535.124](#event-65535124) | 0x11B4       |     21 |              7 |
| [65535.125](#event-65535125) | 0x11C9       |     10 |              2 |
| [65535.126](#event-65535126) | 0x11D3       |     10 |              2 |
| [65535.127](#event-65535127) | 0x11DD       |     14 |              4 |
| [65535.128](#event-65535128) | 0x11EB       |     17 |              5 |
| [65535.129](#event-65535129) | 0x11FC       |     14 |              4 |
| [2033](#event-2033)          | 0x120A       |    373 |             50 |
| [2035](#event-2035)          | 0x137F       |     89 |             16 |
| [65535.130](#event-65535130) | 0x13D8       |     14 |              4 |
| [65535.131](#event-65535131) | 0x13E6       |     14 |              4 |
| [2036](#event-2036)          | 0x13F4       |      1 |              1 |
| [2037](#event-2037)          | 0x13F5       |      1 |              1 |
| [2076](#event-2076)          | 0x13F6       |      1 |              1 |
| [2038](#event-2038)          | 0x13F7       |     84 |             15 |
| [2039](#event-2039)          | 0x144B       |      1 |              1 |
| [65535.132](#event-65535132) | 0x144C       |     10 |              2 |
| [65535.133](#event-65535133) | 0x1456       |     14 |              4 |
| [2041](#event-2041)          | 0x1464       |      1 |              1 |
| [65535.134](#event-65535134) | 0x1465       |     14 |              4 |
| [65535.135](#event-65535135) | 0x1473       |     10 |              2 |
| [2042](#event-2042)          | 0x147D       |     64 |             15 |
| [2043](#event-2043)          | 0x14BD       |      1 |              1 |
| [2044](#event-2044)          | 0x14BE       |      1 |              1 |
| [2045](#event-2045)          | 0x14BF       |      1 |              1 |
| [65535.136](#event-65535136) | 0x14C0       |     14 |              4 |
| [65535.137](#event-65535137) | 0x14CE       |     14 |              4 |
| [2046](#event-2046)          | 0x14DC       |      1 |              1 |
| [65535.138](#event-65535138) | 0x14DD       |     14 |              4 |
| [2049](#event-2049)          | 0x14EB       |      1 |              1 |
| [2052](#event-2052)          | 0x14EC       |      1 |              1 |
| [1076](#event-1076)          | 0x14ED       |      1 |              1 |
| [65535.139](#event-65535139) | 0x14EE       |     10 |              4 |
| [1016](#event-1016)          | 0x14F8       |   4700 |           1057 |
| [1072](#event-1072)          | 0x2754       |    295 |             61 |
| [1077](#event-1077)          | 0x287B       |      1 |              1 |
| [1078](#event-1078)          | 0x287C       |      1 |              1 |
| [1079](#event-1079)          | 0x287D       |      1 |              1 |
| [1080](#event-1080)          | 0x287E       |   6155 |           1042 |

## DAT References (imed_data)

|   Index | Hex Value   |   Dec Value |
|---------|-------------|-------------|
|       0 | 0x0028      |          40 |
|       1 | 0xFFFFF9C7  |  4294965703 |
|       2 | 0xFFFFEE58  |  4294962776 |
|       3 | 0x018F      |         399 |
|       4 | 0x000A      |          10 |
|       5 | 0x2ECE      |       11982 |
|       6 | 0xFFFFCBC1  |  4294953921 |
|       7 | 0x0075      |         117 |
|       8 | 0x0836      |        2102 |
|       9 | 0x000D      |          13 |
|      10 | 0x27FA      |       10234 |
|      11 | 0xFFFFD822  |  4294957090 |
|      12 | 0x0228      |         552 |
|      13 | 0x02EC      |         748 |
|      14 | 0x0A57      |        2647 |
|      15 | 0x204F      |        8271 |
|      16 | 0x2050      |        8272 |
|      17 | 0xFFFFEC83  |  4294962307 |
|      18 | 0x218A      |        8586 |
|      19 | 0x014E      |         334 |
|      20 | 0x0976      |        2422 |
|      21 | 0xFFFFE9D9  |  4294961625 |
|      22 | 0x215E      |        8542 |
|      23 | 0x016E      |         366 |
|      24 | 0xFFFFEDC7  |  4294962631 |
|      25 | 0xFFFFE304  |  4294959876 |
|      26 | 0x0207      |         519 |
|      27 | 0x017C      |         380 |
|      28 | 0xFFFFEDAA  |  4294962602 |
|      29 | 0xFFFFDEDE  |  4294958814 |
|      30 | 0x02C8      |         712 |
|      31 | 0x2084      |        8324 |
|      32 | 0x2085      |        8325 |
|      33 | 0x2086      |        8326 |
|      34 | 0x2087      |        8327 |
|      35 | 0x56F47     |      356167 |
|      36 | 0xFFF78BEF  |  4294413295 |
|      37 | 0xFFFFF313  |  4294963987 |
|      38 | 0x0810      |        2064 |
|      39 | 0x56F0C     |      356108 |
|      40 | 0xFFF794BB  |  4294415547 |
|      41 | 0xFFFFF38D  |  4294964109 |
|      42 | 0x2EC5      |       11973 |
|      43 | 0xFFFFB31C  |  4294947612 |
|      44 | 0x05DB      |        1499 |
|      45 | 0x009D      |         157 |
|      46 | 0x2C85      |       11397 |
|      47 | 0xFFFFB350  |  4294947664 |
|      48 | 0x0215      |         533 |
|      49 | 0x20E1      |        8417 |
|      50 | 0x1178      |        4472 |
|      51 | 0x20E2      |        8418 |
|      52 | 0x0000      |           0 |
|      53 | 0x0400      |        1024 |
|      54 | 0x2D9E      |       11678 |
|      55 | 0xFFFFB962  |  4294949218 |
|      56 | 0x056D      |        1389 |
|      57 | 0x39E7      |       14823 |
|      58 | 0xFFFFC1B1  |  4294951345 |
|      59 | 0x0439      |        1081 |
|      60 | 0x0859      |        2137 |
|      61 | 0x328D      |       12941 |
|      62 | 0xFFFFBCF4  |  4294950132 |
|      63 | 0x04B2      |        1202 |
|      64 | 0x27A2      |       10146 |
|      65 | 0xFFFFBE2B  |  4294950443 |
|      66 | 0x0514      |        1300 |
|      67 | 0x0DD8      |        3544 |
|      68 | 0x2723      |       10019 |
|      69 | 0xFFFFC47A  |  4294952058 |
|      70 | 0x03F3      |        1011 |
|      71 | 0x200F      |        8207 |
|      72 | 0xFFFFCC92  |  4294954130 |
|      73 | 0x035D      |         861 |
|      74 | 0x0D44      |        3396 |
|      75 | 0x212F      |        8495 |
|      76 | 0x2130      |        8496 |
|      77 | 0x2131      |        8497 |
|      78 | 0x2132      |        8498 |
|      79 | 0x57BB5     |      359349 |
|      80 | 0xFFF78EFF  |  4294414079 |
|      81 | 0xFFFFF344  |  4294964036 |
|      82 | 0x022E      |         558 |
|      83 | 0x57074     |      356468 |
|      84 | 0xFFF79254  |  4294414932 |
|      85 | 0xFFFFF36E  |  4294964078 |
|      86 | 0x56983     |      354691 |
|      87 | 0xFFF7949D  |  4294415517 |
|      88 | 0xFFFFF365  |  4294964069 |
|      89 | 0x0A47      |        2631 |
|      90 | 0x17C4      |        6084 |
|      91 | 0x004A      |          74 |
|      92 | 0x1286      |        4742 |
|      93 | 0x0544      |        1348 |
|      94 | 0xFFFFFF75  |  4294967157 |
|      95 | 0x0DB4      |        3508 |
|      96 | 0x192E      |        6446 |
|      97 | 0x20C3      |        8387 |
|      98 | 0x0027      |          39 |
|      99 | 0x0574      |        1396 |
|     100 | 0x0B9D      |        2973 |
|     101 | 0x1E42      |        7746 |
|     102 | 0x0051      |          81 |
|     103 | 0x0001      |           1 |
|     104 | 0x151F      |        5407 |
|     105 | 0x21C6      |        8646 |
|     106 | 0xFFFFFFFD  |  4294967293 |
|     107 | 0x00BC      |         188 |
|     108 | 0x0A4C      |        2636 |
|     109 | 0x0A53      |        2643 |
|     110 | 0x0A4A      |        2634 |
|     111 | 0x0A52      |        2642 |
|     112 | 0x0AC3      |        2755 |
|     113 | 0x0AC6      |        2758 |
|     114 | 0x0093      |         147 |
|     115 | 0x0094      |         148 |
|     116 | 0x0A56      |        2646 |
|     117 | 0x1DCD      |        7629 |
|     118 | 0x1DCE      |        7630 |
|     119 | 0x1DD9      |        7641 |
|     120 | 0x1DDA      |        7642 |
|     121 | 0x4390      |       17296 |
|     122 | 0x1DE2      |        7650 |
|     123 | 0x1DE3      |        7651 |
|     124 | 0x1DEA      |        7658 |
|     125 | 0x1DEB      |        7659 |
|     126 | 0x1DF5      |        7669 |
|     127 | 0x1DF6      |        7670 |
|     128 | 0x1DF7      |        7671 |
|     129 | 0x1E06      |        7686 |
|     130 | 0x1E07      |        7687 |
|     131 | 0x1E0C      |        7692 |
|     132 | 0x1E0D      |        7693 |
|     133 | 0x0026      |          38 |
|     134 | 0xFFFFFB91  |  4294966161 |
|     135 | 0xFFFFF094  |  4294963348 |
|     136 | 0x1DCB      |        7627 |
|     137 | 0x04F6      |        1270 |
|     138 | 0x0703      |        1795 |
|     139 | 0x00CD      |         205 |
|     140 | 0x0FAD      |        4013 |
|     141 | 0xFFFFF660  |  4294964832 |
|     142 | 0x0BB0      |        2992 |
|     143 | 0x0125      |         293 |
|     144 | 0xFFFFED6E  |  4294962542 |
|     145 | 0x09FB      |        2555 |
|     146 | 0x019B      |         411 |
|     147 | 0x07FE      |        2046 |
|     148 | 0x1DE0      |        7648 |
|     149 | 0x13B1      |        5041 |
|     150 | 0x3104      |       12548 |
|     151 | 0xFFFFFE1F  |  4294966815 |
|     152 | 0x0D82      |        3458 |
|     153 | 0xFFFFF922  |  4294965538 |
|     154 | 0x228F      |        8847 |
|     155 | 0x0068      |         104 |
|     156 | 0x0DB0      |        3504 |
|     157 | 0xFFFFF546  |  4294964550 |
|     158 | 0x2802      |       10242 |
|     159 | 0xFFFFFFB1  |  4294967217 |
|     160 | 0x03E3      |         995 |
|     161 | 0x1C87      |        7303 |
|     162 | 0x003E      |          62 |
|     163 | 0x0553      |        1363 |
|     164 | 0xFFFFDA8B  |  4294957707 |
|     165 | 0x0182      |         386 |
|     166 | 0x03E6      |         998 |
|     167 | 0x057F      |        1407 |
|     168 | 0xFFFFE3F7  |  4294960119 |
|     169 | 0x0150      |         336 |
|     170 | 0x0D1C      |        3356 |
|     171 | 0xFFFFBB05  |  4294949637 |
|     172 | 0x0014      |          20 |
|     173 | 0x0ACC      |        2764 |
|     174 | 0x00BF      |         191 |
|     175 | 0x0F5B      |        3931 |
|     176 | 0x2E6C      |       11884 |
|     177 | 0xFFFFBAB0  |  4294949552 |
|     178 | 0x052E      |        1326 |
|     179 | 0x021B      |         539 |
|     180 | 0x1512      |        5394 |
|     181 | 0xFFFFD7BA  |  4294956986 |
|     182 | 0x01C9      |         457 |
|     183 | 0xFFFFFDF0  |  4294966768 |
|     184 | 0xFFFFF6E9  |  4294964969 |
|     185 | 0x0143      |         323 |
|     186 | 0x01AE      |         430 |
|     187 | 0xFFFFF4A0  |  4294964384 |
|     188 | 0x0117      |         279 |
|     189 | 0x0BF5      |        3061 |
|     190 | 0x002A      |          42 |
|     191 | 0x002B      |          43 |
|     192 | 0x002C      |          44 |
|     193 | 0x1E67      |        7783 |
|     194 | 0x1E68      |        7784 |
|     195 | 0x1E69      |        7785 |
|     196 | 0x1E6A      |        7786 |
|     197 | 0x1E6B      |        7787 |
|     198 | 0x1E6C      |        7788 |
|     199 | 0x1E6D      |        7789 |
|     200 | 0x1E6E      |        7790 |
|     201 | 0x1E6F      |        7791 |
|     202 | 0x1E70      |        7792 |
|     203 | 0x1E71      |        7793 |
|     204 | 0x1E72      |        7794 |
|     205 | 0x1E73      |        7795 |
|     206 | 0x1E74      |        7796 |
|     207 | 0x00C9      |         201 |
|     208 | 0x1E75      |        7797 |
|     209 | 0x1E76      |        7798 |
|     210 | 0x1E77      |        7799 |
|     211 | 0x1E78      |        7800 |
|     212 | 0x1E79      |        7801 |
|     213 | 0x1E7A      |        7802 |
|     214 | 0x1E7B      |        7803 |
|     215 | 0x1E7C      |        7804 |
|     216 | 0x1E7D      |        7805 |
|     217 | 0x1E7E      |        7806 |
|     218 | 0x1E7F      |        7807 |
|     219 | 0x1E80      |        7808 |
|     220 | 0x1E81      |        7809 |
|     221 | 0x1E82      |        7810 |
|     222 | 0x1E83      |        7811 |
|     223 | 0x003C      |          60 |
|     224 | 0x1E84      |        7812 |
|     225 | 0x1E85      |        7813 |
|     226 | 0x1E86      |        7814 |
|     227 | 0x1E87      |        7815 |
|     228 | 0x1E88      |        7816 |
|     229 | 0x1E89      |        7817 |
|     230 | 0x1E8A      |        7818 |
|     231 | 0x1E8B      |        7819 |
|     232 | 0x1E8C      |        7820 |
|     233 | 0x1E8D      |        7821 |
|     234 | 0x1E8E      |        7822 |
|     235 | 0x16B2      |        5810 |
|     236 | 0x1760      |        5984 |
|     237 | 0x15BE      |        5566 |
|     238 | 0x1E8F      |        7823 |
|     239 | 0x1E90      |        7824 |
|     240 | 0x1E91      |        7825 |
|     241 | 0x1E92      |        7826 |
|     242 | 0x1E93      |        7827 |
|     243 | 0x1E94      |        7828 |
|     244 | 0x1E95      |        7829 |
|     245 | 0x1E96      |        7830 |
|     246 | 0x2D83      |       11651 |
|     247 | 0xFFFFD08E  |  4294955150 |
|     248 | 0x0288      |         648 |
|     249 | 0x040E      |        1038 |
|     250 | 0x22C6      |        8902 |
|     251 | 0xFFFFD29C  |  4294955676 |
|     252 | 0x1CA0      |        7328 |
|     253 | 0xFFFFCB5B  |  4294953819 |
|     254 | 0x1D83      |        7555 |
|     255 | 0xFFFFC969  |  4294953321 |
|     256 | 0x0380      |         896 |
|     257 | 0x1FF9      |        8185 |
|     258 | 0xFFFFC830  |  4294953008 |
|     259 | 0x039F      |         927 |
|     260 | 0x042E      |        1070 |
|     261 | 0x1F57      |        8023 |
|     262 | 0xFFFFD172  |  4294955378 |
|     263 | 0x0355      |         853 |
|     264 | 0x040A      |        1034 |
|     265 | 0x2C2F      |       11311 |
|     266 | 0xFFFFBF59  |  4294950745 |
|     267 | 0x0469      |        1129 |
|     268 | 0x1C8B      |        7307 |
|     269 | 0xFFFFCF07  |  4294954759 |
|     270 | 0x035A      |         858 |
|     271 | 0x0005      |           5 |
|     272 | 0xFFFFE7ED  |  4294961133 |
|     273 | 0xFFFFC519  |  4294952217 |
|     274 | 0x1EC2      |        7874 |
|     275 | 0x1EC3      |        7875 |
|     276 | 0x1EC4      |        7876 |
|     277 | 0x1EC5      |        7877 |
|     278 | 0x1EC6      |        7878 |
|     279 | 0x1EC7      |        7879 |
|     280 | 0x51AD      |       20909 |
|     281 | 0x1EC8      |        7880 |
|     282 | 0x1EC9      |        7881 |
|     283 | 0x1ECA      |        7882 |
|     284 | 0x1EF2      |        7922 |
|     285 | 0x023E      |         574 |
|     286 | 0x01F7      |         503 |
|     287 | 0x1EF3      |        7923 |
|     288 | 0x1A42      |        6722 |
|     289 | 0x2300      |        8960 |
|     290 | 0xFFFFFFD3  |  4294967251 |
|     291 | 0x17EB      |        6123 |
|     292 | 0x2433      |        9267 |
|     293 | 0xFFFFFFAB  |  4294967211 |
|     294 | 0x0FAB      |        4011 |
|     295 | 0x1F12      |        7954 |
|     296 | 0x1F13      |        7955 |
|     297 | 0xFFFFEC66  |  4294962278 |
|     298 | 0xFFFFEC2B  |  4294962219 |
|     299 | 0x01FE      |         510 |
|     300 | 0x05D1      |        1489 |
|     301 | 0xFFFFE86B  |  4294961259 |
|     302 | 0xFFFFE4F5  |  4294960373 |
|     303 | 0x022F      |         559 |
|     304 | 0xFFFFEEC0  |  4294962880 |
|     305 | 0xFFFFE4EC  |  4294960364 |
|     306 | 0x021C      |         540 |
|     307 | 0x0563      |        1379 |
|     308 | 0x426E      |       17006 |
|     309 | 0x1653      |        5715 |
|     310 | 0x03AE      |         942 |
|     311 | 0x1F82      |        8066 |
|     312 | 0x1F83      |        8067 |
|     313 | 0xFFFFFDA2  |  4294966690 |
|     314 | 0x068B      |        1675 |
|     315 | 0x00FC      |         252 |
|     316 | 0xFFFFEDEF  |  4294962671 |
|     317 | 0x133F      |        4927 |
|     318 | 0x0164      |         356 |
|     319 | 0xFFFFECE1  |  4294962401 |
|     320 | 0x1D1E      |        7454 |
|     321 | 0x0170      |         368 |
|     322 | 0x0044      |          68 |
|     323 | 0x0004      |           4 |
|     324 | 0x0007      |           7 |
|     325 | 0x0008      |           8 |
|     326 | 0x000F      |          15 |
|     327 | 0x1D09      |        7433 |
|     328 | 0x1D0A      |        7434 |
|     329 | 0x1D0B      |        7435 |
|     330 | 0xFFF00FF   |   268370175 |
|     331 | 0x0003      |           3 |
|     332 | 0x000E      |          14 |
|     333 | 0x000C      |          12 |
|     334 | 0x1D0C      |        7436 |
|     335 | 0xFFE00FF   |   268304639 |
|     336 | 0xFFA00FF   |   268042495 |
|     337 | 0x0002      |           2 |
|     338 | 0xFF800FF   |   267911423 |
|     339 | 0xFF900FF   |   267976959 |
|     340 | 0x1D6E      |        7534 |
|     341 | 0x1D2F      |        7471 |
|     342 | 0x001B      |          27 |
|     343 | 0x15180     |       86400 |
|     344 | 0xFFFFFFFF  |  4294967295 |
|     345 | 0x1D30      |        7472 |
|     346 | 0x1D31      |        7473 |
|     347 | 0x1D32      |        7474 |
|     348 | 0x1D2A      |        7466 |
|     349 | 0x1D2B      |        7467 |
|     350 | 0x1D2C      |        7468 |
|     351 | 0x1D2D      |        7469 |
|     352 | 0x001F      |          31 |
|     353 | 0x1D2E      |        7470 |
|     354 | 0x0030      |          48 |
|     355 | 0x1D0D      |        7437 |
|     356 | 0x095E      |        2398 |
|     357 | 0x1D0E      |        7438 |
|     358 | 0x1D0F      |        7439 |
|     359 | 0x1D10      |        7440 |
|     360 | 0x1D11      |        7441 |
|     361 | 0x1D16      |        7446 |
|     362 | 0x1D1D      |        7453 |
|     363 | 0x1D1F      |        7455 |
|     364 | 0x1D20      |        7456 |
|     365 | 0x0031      |          49 |
|     366 | 0x00C8      |         200 |
|     367 | 0x001E      |          30 |
|     368 | 0x007F      |         127 |
|     369 | 0x1D22      |        7458 |
|     370 | 0x0032      |          50 |
|     371 | 0x0033      |          51 |
|     372 | 0x0994      |        2452 |
|     373 | 0x1D12      |        7442 |
|     374 | 0x1D18      |        7448 |
|     375 | 0x1D21      |        7457 |
|     376 | 0x0034      |          52 |
|     377 | 0x1D17      |        7447 |
|     378 | 0x1D23      |        7459 |
|     379 | 0x1D24      |        7460 |
|     380 | 0x003F      |          63 |
|     381 | 0x003B      |          59 |
|     382 | 0x0040      |          64 |
|     383 | 0x0041      |          65 |
|     384 | 0x0F96      |        3990 |
|     385 | 0x0FA5      |        4005 |
|     386 | 0x0FAA      |        4010 |
|     387 | 0x1D13      |        7443 |
|     388 | 0x1D1C      |        7452 |
|     389 | 0x0035      |          53 |
|     390 | 0x0036      |          54 |
|     391 | 0x0037      |          55 |
|     392 | 0x0995      |        2453 |
|     393 | 0x0F9B      |        3995 |
|     394 | 0x0FA0      |        4000 |
|     395 | 0x0BFD      |        3069 |
|     396 | 0x0006      |           6 |
|     397 | 0x1D14      |        7444 |
|     398 | 0x1D19      |        7449 |
|     399 | 0x003A      |          58 |
|     400 | 0x0038      |          56 |
|     401 | 0x0039      |          57 |
|     402 | 0x1D1A      |        7450 |
|     403 | 0x1D1B      |        7451 |
|     404 | 0x004F      |          79 |
|     405 | 0x6CE7      |       27879 |
|     406 | 0x6CE8      |       27880 |
|     407 | 0x1D15      |        7445 |
|     408 | 0x0042      |          66 |
|     409 | 0x1D25      |        7461 |
|     410 | 0x1D26      |        7462 |
|     411 | 0x1D27      |        7463 |
|     412 | 0x1D28      |        7464 |
|     413 | 0x1D29      |        7465 |
|     414 | 0x1D3E      |        7486 |
|     415 | 0x1D3F      |        7487 |
|     416 | 0x1D40      |        7488 |
|     417 | 0x1D41      |        7489 |
|     418 | 0x1D42      |        7490 |
|     419 | 0x1D43      |        7491 |
|     420 | 0x1D44      |        7492 |
|     421 | 0x1D45      |        7493 |
|     422 | 0x1D46      |        7494 |
|     423 | 0x1D47      |        7495 |
|     424 | 0x1D48      |        7496 |
|     425 | 0x1D49      |        7497 |
|     426 | 0x1D4A      |        7498 |
|     427 | 0x1D4B      |        7499 |
|     428 | 0x1D4C      |        7500 |
|     429 | 0x1D4D      |        7501 |
|     430 | 0x1D4E      |        7502 |
|     431 | 0x1D4F      |        7503 |
|     432 | 0x1D50      |        7504 |
|     433 | 0x1D51      |        7505 |
|     434 | 0x1D52      |        7506 |
|     435 | 0x1D53      |        7507 |
|     436 | 0x1D54      |        7508 |
|     437 | 0x1D55      |        7509 |
|     438 | 0x1D56      |        7510 |
|     439 | 0x1D57      |        7511 |
|     440 | 0x1D58      |        7512 |
|     441 | 0x1D59      |        7513 |
|     442 | 0x1D5A      |        7514 |
|     443 | 0x1D78      |        7544 |
|     444 | 0x0050      |          80 |
|     445 | 0x0010      |          16 |
|     446 | 0x1D79      |        7545 |
|     447 | 0x1D7A      |        7546 |
|     448 | 0x1D7C      |        7548 |
|     449 | 0x1D7D      |        7549 |
|     450 | 0x1CA1      |        7329 |
|     451 | 0x40000000  |  1073741824 |
|     452 | 0xFFB00FF   |   268108031 |
|     453 | 0xFFD00FF   |   268239103 |
|     454 | 0xFFC00FF   |   268173567 |
|     455 | 0x1D33      |        7475 |
|     456 | 0x2710      |       10000 |
|     457 | 0x1D34      |        7476 |
|     458 | 0x1D35      |        7477 |
|     459 | 0x1D36      |        7478 |
|     460 | 0x001C      |          28 |
|     461 | 0x001D      |          29 |
|     462 | 0x1D39      |        7481 |
|     463 | 0x18FC      |        6396 |
|     464 | 0x1D37      |        7479 |
|     465 | 0x1D38      |        7480 |
|     466 | 0x0023      |          35 |
|     467 | 0x0024      |          36 |
|     468 | 0x0025      |          37 |
|     469 | 0x0FD0      |        4048 |
|     470 | 0x0FD1      |        4049 |
|     471 | 0x0FD2      |        4050 |
|     472 | 0x1D3A      |        7482 |
|     473 | 0x1D3B      |        7483 |
|     474 | 0x1D3C      |        7484 |
|     475 | 0x002D      |          45 |
|     476 | 0x002E      |          46 |
|     477 | 0x002F      |          47 |
|     478 | 0x1D3D      |        7485 |
|     479 | 0x001A      |          26 |
|     480 | 0x0012      |          18 |
|     481 | 0x0013      |          19 |
|     482 | 0x0015      |          21 |
|     483 | 0x0016      |          22 |
|     484 | 0x0017      |          23 |
|     485 | 0x0018      |          24 |
|     486 | 0x0019      |          25 |
|     487 | 0x0009      |           9 |
|     488 | 0x000B      |          11 |
|     489 | 0x0011      |          17 |
|     490 | 0x0063      |          99 |
|     491 | 0x0049      |          73 |
|     492 | 0xFFFFF62B  |  4294964779 |
|     493 | 0xFFFFEC34  |  4294962228 |
|     494 | 0x01C4      |         452 |
|     495 | 0x0CF5      |        3317 |
|     496 | 0x0048      |          72 |
|     497 | 0x582C8     |      361160 |
|     498 | 0xFFF788EE  |  4294412526 |
|     499 | 0xFFFFF2F4  |  4294963956 |
|     500 | 0x064D      |        1613 |

## String References

- **6396**: You do not have enough gil.
- **7329**: Set sail for where? [Let me get my sea legs first./Whence I came./Western Adoulin./Eastern Adoulin./The rearing grounds./The Mog Gardens.]
- **7433**: Whatever would you want from a woolly monster like me, kupo?
- **7434**: What do you want to do? [Look into my Mog House./Buy or sell things!/Check on my assistants./Check on my shining stars./Learn about the garden./Head elsewhere./Nothing.]
- **7435**: Understood to the utmost, kupo!
- **7436**: Choose wisely. [Goods and rank one and two creatures./Rank three creatures./Rank four creatures./Rank five through seven creatures./Nothing for now.]
- **7437**: What will you do? [Check star count./Exchange stars./...Stars? What?/Go back.]
- **7438**: I see $2 star[/s] scintillating inside your $3, kupo.
- **7439**: Your word is my warrant, [master/mistress]. Select a stunning specimen from one of these lovely lists and procure your prize, kupo.
- **7440**: Exchange how many? (Stars: $0) [One./Five./Ten./Fifteen./Thirty./None. Go back.]
- **7441**: Which one? [Trip to San d'Oria./Trip to Bastok./Trip to Windurst./None. Go back.]
- **7442**: Which one? [3./One week of work from Kuyin./One week of work from Susuroon./One week of work from Yeestog./None. Go back.]
- **7443**: Which one? [#./$1./$2./None. Go back.]
- **7444**: Which one? [3./$1./$2./$3./None. Go back.]
- **7445**: Which one? [#./None. Go back.]
- **7446**: I'll launch you ludicrous lengths to [San d'Oria/Bastok/Windurst] with mysterious moogle magic, kupo!
- **7447**: [Kuyin Hathdenna/Susuroon/Yeestog] will be willing to work wonders for one week in your Mog Garden, for five shining stars per week, kupo! Just tell me how long you want.
- **7448**: With this $3, you can store a gratuitous amount of gil in your garden, kupo!
- **7449**: The $3...um...well...kind of calls crabs to the coast, kupo. There's not much more to say.
- **7450**: Maybe I'll scribble a sentence or two to that lovely ephemeral moogle, kupo!
- **7451**: Let's do it! I'll explain everything and woo him with wondrous tales of our exploits here!
- **7452**: Now all that's left is for you to receive your rightful remuneration, kupo.
- **7453**: Are you delighted with your decision, kupo?
- **7454**: Are you delighted with your decision? [Yes! Gimme, gimme, gimme!/Not at all.]
- **7455**: Get launched ludicrous lengths? [Lovely idea!/Loathsome idea.]
- **7456**: Happy trails, kupo!
- **7457**: Here you go. I hope you adore your amazing award, kupo.
- **7458**: Shucks, it seems you're sans sufficient starshine savings, kupo.
- **7459**: Your amazing assistant will attend you garden for that long for a cost of $2 shining stars.
- **7460**: Is $1 week[/s] correct? [Perfect!/Hold on.]
- **7461**: You remember the $3, that resplendent rig I remitted to you on your inaugural visit, kupo?
- **7462**: Well, the stars that scintillate inside earn energy just from coming in close proximity to the master moogle who made the device, kupo.
- **7463**: In other words, nudging near me with your $3 nets you a star once every Earth day, kupo.
- **7464**: I can ply that powerful patina into palpable products for your pleasure as long as you expend the energy of a certain slew of stars, kupo.
- **7465**: However, I can only manifest matter that matters to your Mog Garden. Sorry, kupo.
- **7466**: What about this assistant? [Employ./Dismiss./Go back.]
- **7467**: Even the most agreeable assistant requires recompense, kupo! I'll inform you when their contract is about to close.
- **7468**: Enter how many days in advance (Earth time) you wish to be notified of impending contract expiration.
- **7469**: Current notification: [Always/7 days in advance/6 days in advance/5 days in advance/4 days in advance/3 days in advance/2 days in advance/1 day in advance/None]. [Always notify me./Notify me 7 days in advance./Notify me 6 days in advance./Notify me 5 days in advance./Notify me 4 days in advance./Notify me 3 days in advance./Notify me 2 days in advance./Notify me 1 day in advance./Never notify me./Back.]
- **7470**: You will now [always be notified of your assistant's contract expiration/be notified of your assistant's contract expiration 7 days in advance/be notified of your assistant's contract expiration 6 days in advance/be notified of your assistant's contract expiration 5 days in advance/be notified of your assistant's contract expiration 4 days in advance/be notified of your assistant's contract expiration 3 days in advance/be notified of your assistant's contract expiration 2 days in advance/be notified of your assistant's contract expiration 1 day in advance/never be notified of you assistant's contract expiration].
- **7471**: Which ardently allegiant assistant, kupo?
- **7472**: Which ardently allegiant assistant? [Kuyin Hathdenna.[/ (Employed)]/Susuroon.[/ (Employed)]/Yeestog.[/ (Employed)]/Set contract expiration notification./Go back.]
- **7473**: [Kuyin Hathdenna/Susuroon/Yeestog] has yet to consent to a contract, and is thus free as a frolicking fairy, kupo.
- **7474**: [Kuyin Hathdenna/Susuroon/Yeestog] can still toil tirelessly for a total of $1 day[/s], kupo.
- **7475**: Hire this helper? If you've already contracted this critter, you can extend the length of their labor. Remember, the regular range of such records is one week (Earth time), kupo.
- **7476**: [Kuyin Hathdenna/Susuroon/Yeestog] for $2 week[/s], kupo? Then that means you wish to win over this workhorse with a $1-day contract costing $3 gil?
- **7477**: [Kuyin Hathdenna/Susuroon/Yeestog] for $2 week[/s], kupo? That means you'll extend [her/his/his] contract for $5 day[/s] on top of the $4 remaining, to make a new $1-day contract costing $3 gil.
- **7478**: Is this sufficient? [Yes! Seal the deal!/No. Let me think it over.]
- **7479**: Cancel your contract with [Kuyin Hathdenna/Susuroon/Yeestog]!? Fine, but you won't get back the gil you gave to hire [her/him/him], kupo.
- **7480**: Cancel the contract? [Without a doubt./Let me think it over.]
- **7481**: Contract: complete! ...For all plans and purposes. Let me deal with the dirty detail drudgery, kupo.
- **7482**: Kupopopo, $1? This is sure to tickle [Kuyin Hathdenna/Susuroon/Yeestog]'s toes!
- **7483**: Now, bequeathing this bauble to me will allow your assistant to aid you for $2 day[/s]. Is that alright, kupo?
- **7484**: Is that alright? [You know it, poet!/Hmmm, let me think it over.]
- **7485**: My apologies, but a plethora of problems have proliferated, kupo! Take this back and turn it in at another time.
- **7486**: What do you want to know about? [This island./Provisions./The furrows./The grove and mineral vein./The two nets./Other items of note./Tidbits of information./Go back.]
- **7487**: This's one of many isolated islands spurting from the Senroh Sea, kupo! It harbors such an overabundance of organic objects that it's acquired the appellation of "nature's treasure trove."
- **7488**: Conferred upon colonization collaborators by Adoulin's administrative authorities, these parcels provide services similar to those of the MHMU's Mog Houses, kupo.
- **7489**: And of these ostensibly innumerable islands, each gets sliced into sections and managed by moogles, which gives rise to their name: "Mog Gardens"!
- **7490**: Should ennui envelop your entirety and you actually wish to vacate this veritable vacationland, shove off in the Mog Dinghy anchored near the shore. It sets sail to either Eastern or Western Adoulin, kupo.
- **7491**: All the fodder you forage in this forest is yours to freely fritter away or store safely, kupo.
- **7492**: But that means you'll be teleporting time and time again to take trinkets to your Mog House, you moan? Oh ho ho, that's simply not so, kupo!
- **7493**: Your Mog Safe is miraculously manageable from here. Plus, you can draw doodads from your Delivery Box like a dream! Just inform me of your intentions or manipulate the main menu yourself to carouse at your convenience, kupo.
- **7494**: It may be exposed to the elements, but this area is astonishingly analogous to your Mog House--both in function and the fact that it's free of charge!
- **7495**: Plant seeds in garden furrows to cultivate crops conducive to your current lifestyle. Unlike gardening in your Mog House, however, they don't wither and waste away when you're not watching, kupo.
- **7496**: The time it takes to reap your rewards differs depending on the specimen of seed you plant. If you're ever at a loss for how long gestation lasts, ask to "Inspect the garden," and all your anxieties will abate.
- **7497**: As your garden grows in rank, you can claim higher quality crops with the same seeds, kupo. The number of furrows will also fill out finely so you can sprout up to three seeds.
- **7498**: Furnishing your furrows with fertilizer exerts an extra effect on your harvest. Beware, though, because the benefit breaks down after you reap returns, kupo.
- **7499**: Finally, if a fine-furred follower fortuitously fiddles with your furrows, it'll benefit your bounty in a different way from flinging fertilizer on your fields!
- **7500**: Where can you log, harvest, and mine...without needing to tinker with tools? The interior of this island, of course, kupo!
- **7501**: The arboreal grove ladles out logs like with logging and gives out grasses as with harvesting.
- **7502**: Then the mineral vein embedded in a bulky bit of bedrock offers ore for its owners, much in the same manner as mining, kupo.
- **7503**: No need to trade in tools--the MHMU will supply special ones for you! Mine and harvest until you lose your lucidity and descend into delirium, kupo.
- **7504**: The higher their ranks rise, the more places you can procure provisions from...thus powering up your productivity!
- **7505**: Set certain fertilizers on roots or let loose liquids upon the boulder to see some delightful developments. Furthermore, assigning an able-bodied assistant to service these spaces grants greater gratuities to your garden, kupo.
- **7506**: We've set two nets for you, which may each be brought up only once per day (Earth time), kupo.
- **7507**: Sitting silently in the surf is the coastal fishing net, which seizes prey from the sea.
- **7508**: Lounging in the lakelet is the pond dredger, which drags up freshwater fish.
- **7509**: Both benefit from being baited with different bits, so watch which you use where, kupo.
- **7510**: Mayhaps mentioning multiple measures of caution really is relevant, kupo...
- **7511**: Can't carry any more commodities? Then burrow into your bag and sort out enough space to put them all in, kupo.
- **7512**: Your yield gets yanked away by the evil aether if you leave it all and depart via dinghy. In addition, you can't collect any more curios if you don't have an open inventory, so don't forget to free up a fitting amount of room, kupo.
- **7513**: Oh, yes. Exceptional erudition is the elementary step in enhancing the ranks of your resources. Where do you obtain this innovative insight, you inquire? Tomes tucked tightly into the shelves of the Pioneers' Coalition, kupo.
- **7514**: Well, that's all the caution I can conjure under these conditions, kupo.
- **7534**: You cannot perform that action while your Mog Garden is open to visitors.
- **7544**: Permit me to tell you tales of your exciting exploits here, kupo!
- **7545**: You have visited a total of $0 day[/s]. You have gathered from your furrow $1 time[/s]. You have gathered from your grove $2 time[/s]. You have gathered from veins $3 time[/s].
- **7546**: You have fished from the pond $0 time[/s]. You have fished from the coast $1 time[/s].
- **7548**: You have cared for creatures $0 time[/s]. You have successfully reared $1 creature[/s]. You have freed $2 creature[/s]. $3 creature[/s] [has/have] passed on.
- **7549**: Your Mog Garden is [extraordinarily/quite/somewhat/slightly/marginally] peaceful.
- **7629**: Back in your Mog House, I bet gardening was a chore. Here, however, it's a delightful diversion from the wild and woolly world outside.
- **7630**: Simply stick your snout in that basket over there, and declare your discoveries to me.
- **7641**: Examine the earth-rupturing roots to reveal riveting rewards!
- **7642**: Well, maybe not "riveting," but rewards nonetheless, kupo. Either way, take some time to talk to me when you're done.
- **7650**: A rotten reprobate's been running around like a rogue in the Mog Garden, kupo.
- **7651**: To stop this sorry sod, we'll need $3 from that bulky boulder beyond. Once you get it, make me aware and we'll go from there.
- **7658**: Nurse the netting out of the swelling spring to see if that evil entity got entangled in it.
- **7659**: Should you find fishy fragments--or anything at all--apprise me as soon as you're able, kupo.
- **7669**: It's detestable, deplorable, despicable even! No one pillages this paradise from perimeter to pole and gets away with it, kupo!
- **7670**: What was that? Poles and perimeters aren't perfectly paired, and this profligate isn't pillaging per se, kupo?
- **7671**: No matter, just nudge the netting that's sitting near the sandy shore and come calling when you've finished.
- **7686**: Eleven energetic exclamations! The enemy has been eliminated, kupo! Peace prevails in our part of the province!
- **7687**: Plant the precious seed I presented you and proclaim your progress to me when you're finished, kupo.
- **7692**: Wonders from worlds beyond are wont to wash up on these shores.
- **7693**: Could you be so kind as to creep up to the coast and catch a glimpse of what drifted down here? You never know, it might turn out to contribute to the colonization of the continent, kupo.
- **7783**: How have you adjusted to governing these garden grounds, kupo?
- **7784**: We moogles across the Adoulin archipelago all agree that carrying out your commands is a piece of copse candy, kupo!
- **7785**: By the bye, did I neglect to notify you that an ancient associate of mine--Monsieur Kupont--shall arrive anon? I swear, I can see the foretold fun flowing from my fur already!
- **7786**: You've been a caring commander to me, so how about I weave a wall's worth of worshiping words adorned by ardent acclaim when I introduce you, kupo?
- **7787**: This is all predicated upon your prominent partnership in my plan, however. My floating friend fancies collecting the carcasses of crustaceans from all the places he patrons.
- **7788**: Should a rare representative of deep-sea denizens reveal itself to you on the banks of the beach, please pick it up and place it in my paws, kupo.
- **7789**: I simply can't wait for my friend to flap his furry physique over here. Oh, the terrific times we'll have together...
- **7790**: I'd love to secure a striking specimen of a shell for him so he could have proof of his peregrinations, kupo.
- **7791**: If you could wade through what washes up on shore and find a fitting figure of one, I would be...dare I say it...shell-shocked.
- **7792**: This relic is...not just resplendent and rare, but ravishing too, kupo!
- **7793**: I'm certain my sidekick will shudder at its shape and cry over its contours, kupo. There's one obstacle, though. This isn't a shell, but a breathing being.
- **7794**: <Ahmph>
- **7795**: <Munch> <munch> <munch>...
- **7796**: Decadently delicious, kupo. The taste even triples with the turbulence of it trying to trek out of my tummy.
- **7797**: <Grrrg> <grrrg>... The pain...it pierces the provenance of my puffy paunch, kupo.
- **7798**: Now I know to never judge a shellfish by its sheen... That crustacean you captured may not have shown much intransigence in my innards initially, but now it's incapacitated me, kupo.
- **7799**: On top of it all, an impromptu incident's mutilating my mind like a mauling from a mighty mace, kupooo...
- **7800**: My amiable associate announced that he's coming with a companion of his own...
- **7801**: That's all well and good, but his consort's the most terrifically terrifying tyrant of all time, kupo! Even the moogle's name is tyrannical--Kupivolo!
- **7802**: Me, twitch and tremble like a twittering twitherym? For shame, kupo! I fear not for my fate at all!
- **7803**: My only concern is for the good of this great garden. Ohhh...now a biting blizzard blows inside my bosom in anticipation of the apocalypse accompanying his arrival.
- **7804**: In this condition, it's impossible for me to investigate the island for interesting items with which to placate his pernicious passions. Therefore, I entreat you to explore these environs and acquire an astonishing article, kupo!
- **7805**: As for its form, however, I haven't even a hypothesis. I do have the utmost confidence in your capacity to come up with a compelling curio, though!
- **7806**: My tummy's taken a turn for the treacherous, so I must ask for assistance, kupo.
- **7807**: Discover a desirable doohickey that'll trump the tyrannical tendencies of my companion's cohort.
- **7808**: As for its form, however, I haven't even a hypothesis. I do have the utmost confidence in your capacity to come up with a compelling curio, though!
- **7809**: Why, this is...! I've finally found the fix for this firestorm!
- **7810**: Hypnosis will heal my headache and stave off our slaughter, kupo.
- **7811**: If we hypnotize him into thinking you and I are invincible, he'll surely shun his shenanigans. Then we can smack that smug smirk right off--
- **7812**: By Altana's ancient affection, I could never consent to such cruel carnage, kupo! Moogles are a peaceful people who provide their powers for the forces of fairness only.
- **7813**: Though hypnosis is indeed held in high esteem by humanity... A persuasive proposition if I've ever heard one.
- **7814**: Well now, off to practice my new profession. If I can't cross coasts to learn hypnosis, then I'll commit to commencing a correspondence course, kupo!
- **7815**: So, so sleepy...and it's all caused by that correspondence course in hypnotic hijinks, kupo.
- **7816**: I tried out something that my tutorial tome termed "Hysterical Hypnosis for the Hoi Polloi," but ended up sinking into slumber myself, kupo.
- **7817**: Thus, I disclosed my displeasure at the cruddy curriculum in a bitter billet to my terrible teacher.
- **7818**: Interestingly, I ascertained that the professor I persecuted was none other than my bosom buddy, the Great Kupellion. It's a small world, indeed, kupo.
- **7819**: After that, we got to gabbing about the vile and villainous Kupivolo. Once I had espoused my extreme enmity regarding that hellion's horrific horseplay, Kupellion decided to drop by this Mog Garden, kupo.
- **7820**: With the Great Kupellion here, he can mitigate the madness of the maelstrom that is Kupivolo by hypnotizing him.
- **7821**: Then we'll be ready to raise the roof and revel in rambunctiousness! We'll be singing, "Who let the moogles out? (Kupo, kupo.)"
- **7822**: What a grand ol' gala it'll be! And we'd like you to help[ us prepare for the party/, seeing as you're so perfectly proficient at courting capable companions], kupo.
- **7823**: To kick off this commemorative carnival, we'll need you to pluck $1 from the pond and filch both $2 and $3 from the furrows, kupo.
- **7824**: I can't wait for the wondrous and wild wassailing when we all meet, kupo! [Well, it's time to tackle the technicalities./If only I could participate in the planning, too.]
- **7825**: To kick off this commemorative carnival, we'll need you to pluck $1 from the pond and filch both $2 and $3 from the furrows, kupo.
- **7826**: Thirty thousand thanks be to thee, kupo! I could opine for hours on the opulence of your overt kindness, kupo.
- **7827**: I've gathered a garrison of goods, myself. It'll all be worth it when we get to gaze upon the elated expressions of everyone involved, kupo.
- **7828**: The troops are trekking towards Adoulin as I articulate this very assertion. They should disembark in a day or so, kupo.
- **7829**: The troops are trekking towards Adoulin as I articulate this very assertion. They should disembark in a day or so, kupo.
- **7830**: Entrust us with the excess exercises in expectancy. You've already laden yourself with loads more than the lion's share, kupo.
- **7874**: What happened, kupo?
- **7875**: Did the hypnosis fail to fix Kupivolo's foul frame of mind? Did he damage this domain and drive away our dear guests?
- **7876**: Did the hypnosis work? [You bet./Well, you know...]
- **7877**: It did!? So, everyone enjoyed the event so excessively that they lost themselves and wandered away?
- **7878**: What fraudulent friends, kupo. At least you were kind enough to come clomping back to me, <Player>.
- **7879**: I remember rather little from that rowdy reception, but I do know the Great Kupellion left this behind, kupo.
- **7880**: I'm particularly partial to $1, but I'll pass it on as a present for powering through professionally. Prior to parting, Kupellion mentioned that this was "compensation for conferring the compendium upon a compatriot," kupo.
- **7881**: I wonder what in the world he was warbling about. My worthless workbook on hypnosis, kupo?
- **7882**: That must be it. Oh, how caring and conscientious a consort Kupellion is, kupo!
- **7922**: Grow some crab chow and show those strange girls what a green thumb really means!
- **7923**: Sow the $2 into the ground and apply the $1 to help it grow, kupo!
- **7954**: I require $1 so that the plants grow straight and strong, kupo!
- **7955**: If a way to a man's heart is through his stomach, then the way to a woman's is through flowers!
- **8066**: The MHMU needs $1 filched from the fishing net, $2 plucked from the pond, and $3 veiled within veins, kupo.
- **8067**: If we don't get them, the wibbly wobbly woozies will continue to whittle away at our wisemen's wits, kupo!
- **8271**: Give one $1 to Chacharoon and holler that you need help harvesting such a hearty haul, kupo.
- **8272**: Additionally, I'll let you know that Chacharoon favors friends that are awe-inspiring adventurers at the apex of their accomplishments.
- **8324**: Before consoling Chacharoon, I insist you set sail for your home nation.
- **8325**: Once there, tap into the tenets of Trust. Only then will you be able to truly tackle the trepidations that terrorize Susuroon.
- **8326**: Head for the hills and console Chacharoon!
- **8327**: Bring your butt to the boat and take the tiny trail to the top. Stare in stupefied silence at the ravishing refurbishment of the range!
- **8417**: I will prepare an appropriate moogle soup to aid this afflicted adamantoise, kupo.
- **8418**: Bring me twelve $1 so that I can brew the best bisque to tend to our tepid tortoise.
- **8495**: Getting a fourth creature into our rearing grounds is bound to be a fearsome feat.
- **8496**: Could you please help poor Chacharoon keep up with inventory before he gets buried under a mound of monster manure?
- **8497**: Head to the Goblins' shop in Lower Jeuno for supplies. We're counting on you, kupo!
- **8498**: Superb! You've returned with the supplies! Just drop them off in the rearing grounds out back, kupo.

## Events

### Event 65535

#### Metadata

| Field        | Value   |
|--------------|---------|
| Entrypoint   | 0x0000  |
| Data Size    | 1 bytes |
| Instructions | 1       |

```
      00 01 02 03 04 05 06 07  08 09 0A 0B 0C 0D 0E 0F
      -- -- -- -- -- -- -- --  -- -- -- -- -- -- -- --
0000: 00                                                .               
```

#### Opcodes

```
  0: 0x0000 [0x00] END_REQSTACK()
```

### Event 2059

#### Metadata

| Field        | Value   |
|--------------|---------|
| Entrypoint   | 0x0001  |
| Data Size    | 1 bytes |
| Instructions | 1       |

```
      00 01 02 03 04 05 06 07  08 09 0A 0B 0C 0D 0E 0F
      -- -- -- -- -- -- -- --  -- -- -- -- -- -- -- --
0000:    00                                              .              
```

#### Opcodes

```
  0: 0x0001 [0x00] END_REQSTACK()
```

### Event 65535.1

#### Metadata

| Field        | Value    |
|--------------|----------|
| Entrypoint   | 0x0002   |
| Data Size    | 32 bytes |
| Instructions | 8        |

```
      00 01 02 03 04 05 06 07  08 09 0A 0B 0C 0D 0E 0F
      -- -- -- -- -- -- -- --  -- -- -- -- -- -- -- --
0000:       32 00 80 1F 00 01  80 02 80 03 80 1F 01 1C    2.............
0010: 04 80 4A F8 FF FF 7F 5B  80 11 01 6F 76 F8 FF FF  ..J....[...ov...
0020: 7F 00                                             ..              
```

#### Opcodes

```
  0: 0x0002 [0x32] ExtData[1]->MainSpeed = 40* * 0.1
  1: 0x0005 [0x1F] MOVE_ENTITY: EventEntity moves to X=-1.593*, Z=-4.520*, Y=0.399*
  2: 0x000D [0x1F] MOVE_ENTITY: Update entity position (mode=1)
  3: 0x000F [0x1C] WAIT(10* ticks)
  4: 0x0012 [0x4A] EventEntity looks at Chacharoon (ID: 17924187/0x0111805B)
  5: 0x001B [0x6F] WAIT_FRAME_DELAY: Yield until WaitTime reaches zero
  6: 0x001C [0x76] CHECK_ENTITY_RENDER_FLAGS: Wait until EventEntity Render.Flags0 and Render.Flags3 conditions are met
  7: 0x0021 [0x00] END_REQSTACK()
```

### Event 65535.2

#### Metadata

| Field        | Value    |
|--------------|----------|
| Entrypoint   | 0x0022   |
| Data Size    | 12 bytes |
| Instructions | 3        |

```
      00 01 02 03 04 05 06 07  08 09 0A 0B 0C 0D 0E 0F
      -- -- -- -- -- -- -- --  -- -- -- -- -- -- -- --
0020:       33 01 37 05 80 06  80 07 80 08 80 00          3.7.........  
```

#### Opcodes

```
  0: 0x0022 [0x33] EventEntity->Render.Flags0 |= 0x200000 // Bit 21 (flag=0x01)
  1: 0x0024 [0x37] UPDATE_EVENT_POSITION_AND_DIR: x=11.982*, z=-13.375*, y=0.117*, direction=184.7*
  2: 0x002D [0x00] END_REQSTACK()
```

### Event 65535.3

#### Metadata

| Field        | Value    |
|--------------|----------|
| Entrypoint   | 0x002E   |
| Data Size    | 14 bytes |
| Instructions | 4        |

```
      00 01 02 03 04 05 06 07  08 09 0A 0B 0C 0D 0E 0F
      -- -- -- -- -- -- -- --  -- -- -- -- -- -- -- --
0020:                                            32 09                2.
0030: 80 1F 00 0A 80 0B 80 0C  80 1F 01 00              ............    
```

#### Opcodes

```
  0: 0x002E [0x32] ExtData[1]->MainSpeed = 13* * 0.1
  1: 0x0031 [0x1F] MOVE_ENTITY: EventEntity moves to X=10.234*, Z=-10.206*, Y=0.552*
  2: 0x0039 [0x1F] MOVE_ENTITY: Update entity position (mode=1)
  3: 0x003B [0x00] END_REQSTACK()
```

### Event 2060

#### Metadata

| Field        | Value    |
|--------------|----------|
| Entrypoint   | 0x003C   |
| Data Size    | 54 bytes |
| Instructions | 13       |

```
      00 01 02 03 04 05 06 07  08 09 0A 0B 0C 0D 0E 0F
      -- -- -- -- -- -- -- --  -- -- -- -- -- -- -- --
0030:                                      1E F0 FF FF              ....
0040: 7F 6F 70 03 03 10 0D 80  5B 0E 80 F8 FF FF 7F F8  .op.....[.......
0050: FF FF 7F 74 68 62 30 1D  0F 80 23 5B 0E 80 F8 FF  ...thb0...#[....
0060: FF 7F F8 FF FF 7F 74 68  62 31 1D 10 80 23 20 00  ......thb1...# .
0070: 21 00                                             !.              
```

#### Opcodes

```
  0: 0x003C [0x1E] EventEntity looks at LocalPlayer and starts talking
  1: 0x0041 [0x6F] WAIT_FRAME_DELAY: Yield until WaitTime reaches zero
  2: 0x0042 [0x70] WAIT_ENTITY_RENDER_FLAG: Wait while EventEntity->Render.Flags3 bit 2 is set (cancel turn if not)
  3: 0x0043 [0x03] Work_Zone[3] = 748*
  4: 0x0048 [0x5B] LOAD_EXT_SCHEDULER: Load scheduler "thb0" with entities [EventEntity, EventEntity], work=2647*
  5: 0x0057 [0x1D] PRINT_EVENT_MESSAGE(message_id=8271*)
     "Give one $1 to Chacharoon and holler that you need help harvesting such a hearty haul, kupo."
  6: 0x005A [0x23] WAIT_FOR_DIALOG_INTERACTION
  7: 0x005B [0x5B] LOAD_EXT_SCHEDULER: Load scheduler "thb1" with entities [EventEntity, EventEntity], work=2647*
  8: 0x006A [0x1D] PRINT_EVENT_MESSAGE(message_id=8272*)
     "Additionally, I'll let you know that Chacharoon favors friends that are awe-inspiring adventurers at the apex of their accomplishments."
  9: 0x006D [0x23] WAIT_FOR_DIALOG_INTERACTION
 10: 0x006E [0x20] SET_CLI_EVENT_UC_FLAG: Unlock player control
 11: 0x0070 [0x21] END_EVENT
 12: 0x0071 [0x00] END_REQSTACK()
```

### Event 2061

#### Metadata

| Field        | Value   |
|--------------|---------|
| Entrypoint   | 0x0072  |
| Data Size    | 1 bytes |
| Instructions | 1       |

```
      00 01 02 03 04 05 06 07  08 09 0A 0B 0C 0D 0E 0F
      -- -- -- -- -- -- -- --  -- -- -- -- -- -- -- --
0070:       00                                            .             
```

#### Opcodes

```
  0: 0x0072 [0x00] END_REQSTACK()
```

### Event 65535.4

#### Metadata

| Field        | Value    |
|--------------|----------|
| Entrypoint   | 0x0073   |
| Data Size    | 10 bytes |
| Instructions | 2        |

```
      00 01 02 03 04 05 06 07  08 09 0A 0B 0C 0D 0E 0F
      -- -- -- -- -- -- -- --  -- -- -- -- -- -- -- --
0070:          37 11 80 12 80  13 80 14 80 00              7.........   
```

#### Opcodes

```
  0: 0x0073 [0x37] UPDATE_EVENT_POSITION_AND_DIR: x=-4.989*, z=8.586*, y=0.334*, direction=212.9*
  1: 0x007C [0x00] END_REQSTACK()
```

### Event 65535.5

#### Metadata

| Field        | Value    |
|--------------|----------|
| Entrypoint   | 0x007D   |
| Data Size    | 14 bytes |
| Instructions | 4        |

```
      00 01 02 03 04 05 06 07  08 09 0A 0B 0C 0D 0E 0F
      -- -- -- -- -- -- -- --  -- -- -- -- -- -- -- --
0070:                                         32 09 80               2..
0080: 1F 00 15 80 16 80 17 80  1F 01 00                 ...........     
```

#### Opcodes

```
  0: 0x007D [0x32] ExtData[1]->MainSpeed = 13* * 0.1
  1: 0x0080 [0x1F] MOVE_ENTITY: EventEntity moves to X=-5.671*, Z=8.542*, Y=0.366*
  2: 0x0088 [0x1F] MOVE_ENTITY: Update entity position (mode=1)
  3: 0x008A [0x00] END_REQSTACK()
```

### Event 2062

#### Metadata

| Field        | Value   |
|--------------|---------|
| Entrypoint   | 0x008B  |
| Data Size    | 1 bytes |
| Instructions | 1       |

```
      00 01 02 03 04 05 06 07  08 09 0A 0B 0C 0D 0E 0F
      -- -- -- -- -- -- -- --  -- -- -- -- -- -- -- --
0080:                                   00                         .    
```

#### Opcodes

```
  0: 0x008B [0x00] END_REQSTACK()
```

### Event 65535.6

#### Metadata

| Field        | Value    |
|--------------|----------|
| Entrypoint   | 0x008C   |
| Data Size    | 10 bytes |
| Instructions | 2        |

```
      00 01 02 03 04 05 06 07  08 09 0A 0B 0C 0D 0E 0F
      -- -- -- -- -- -- -- --  -- -- -- -- -- -- -- --
0080:                                      37 18 80 19              7...
0090: 80 1A 80 1B 80 00                                 ......          
```

#### Opcodes

```
  0: 0x008C [0x37] UPDATE_EVENT_POSITION_AND_DIR: x=-4.665*, z=-7.420*, y=0.519*, direction=33.4*
  1: 0x0095 [0x00] END_REQSTACK()
```

### Event 65535.7

#### Metadata

| Field        | Value    |
|--------------|----------|
| Entrypoint   | 0x0096   |
| Data Size    | 14 bytes |
| Instructions | 4        |

```
      00 01 02 03 04 05 06 07  08 09 0A 0B 0C 0D 0E 0F
      -- -- -- -- -- -- -- --  -- -- -- -- -- -- -- --
0090:                   32 09  80 1F 00 1C 80 1D 80 1E        2.........
00A0: 80 1F 01 00                                       ....            
```

#### Opcodes

```
  0: 0x0096 [0x32] ExtData[1]->MainSpeed = 13* * 0.1
  1: 0x0099 [0x1F] MOVE_ENTITY: EventEntity moves to X=-4.694*, Z=-8.482*, Y=0.712*
  2: 0x00A1 [0x1F] MOVE_ENTITY: Update entity position (mode=1)
  3: 0x00A3 [0x00] END_REQSTACK()
```

### Event 2063

#### Metadata

| Field        | Value    |
|--------------|----------|
| Entrypoint   | 0x00A4   |
| Data Size    | 49 bytes |
| Instructions | 12       |

```
      00 01 02 03 04 05 06 07  08 09 0A 0B 0C 0D 0E 0F
      -- -- -- -- -- -- -- --  -- -- -- -- -- -- -- --
00A0:             1E F0 FF FF  7F 6F 70 5B 0E 80 F8 FF      .....op[....
00B0: FF 7F F8 FF FF 7F 74 68  62 30 1D 1F 80 23 5B 0E  ......thb0...#[.
00C0: 80 F8 FF FF 7F F8 FF FF  7F 74 68 62 31 1D 20 80  .........thb1. .
00D0: 23 20 00 21 00                                    # .!.           
```

#### Opcodes

```
  0: 0x00A4 [0x1E] EventEntity looks at LocalPlayer and starts talking
  1: 0x00A9 [0x6F] WAIT_FRAME_DELAY: Yield until WaitTime reaches zero
  2: 0x00AA [0x70] WAIT_ENTITY_RENDER_FLAG: Wait while EventEntity->Render.Flags3 bit 2 is set (cancel turn if not)
  3: 0x00AB [0x5B] LOAD_EXT_SCHEDULER: Load scheduler "thb0" with entities [EventEntity, EventEntity], work=2647*
  4: 0x00BA [0x1D] PRINT_EVENT_MESSAGE(message_id=8324*)
     "Before consoling Chacharoon, I insist you set sail for your home nation."
  5: 0x00BD [0x23] WAIT_FOR_DIALOG_INTERACTION
  6: 0x00BE [0x5B] LOAD_EXT_SCHEDULER: Load scheduler "thb1" with entities [EventEntity, EventEntity], work=2647*
  7: 0x00CD [0x1D] PRINT_EVENT_MESSAGE(message_id=8325*)
     "Once there, tap into the tenets of Trust. Only then will you be able to truly tackle the trepidations that terrorize Susuroon."
  8: 0x00D0 [0x23] WAIT_FOR_DIALOG_INTERACTION
  9: 0x00D1 [0x20] SET_CLI_EVENT_UC_FLAG: Unlock player control
 10: 0x00D3 [0x21] END_EVENT
 11: 0x00D4 [0x00] END_REQSTACK()
```

### Event 2064

#### Metadata

| Field        | Value    |
|--------------|----------|
| Entrypoint   | 0x00D5   |
| Data Size    | 49 bytes |
| Instructions | 12       |

```
      00 01 02 03 04 05 06 07  08 09 0A 0B 0C 0D 0E 0F
      -- -- -- -- -- -- -- --  -- -- -- -- -- -- -- --
00D0:                1E F0 FF  FF 7F 6F 70 5B 0E 80 F8       .....op[...
00E0: FF FF 7F F8 FF FF 7F 74  68 62 30 1D 21 80 23 5B  .......thb0.!.#[
00F0: 0E 80 F8 FF FF 7F F8 FF  FF 7F 74 68 62 31 1D 22  ..........thb1."
0100: 80 23 20 00 21 00                                 .# .!.          
```

#### Opcodes

```
  0: 0x00D5 [0x1E] EventEntity looks at LocalPlayer and starts talking
  1: 0x00DA [0x6F] WAIT_FRAME_DELAY: Yield until WaitTime reaches zero
  2: 0x00DB [0x70] WAIT_ENTITY_RENDER_FLAG: Wait while EventEntity->Render.Flags3 bit 2 is set (cancel turn if not)
  3: 0x00DC [0x5B] LOAD_EXT_SCHEDULER: Load scheduler "thb0" with entities [EventEntity, EventEntity], work=2647*
  4: 0x00EB [0x1D] PRINT_EVENT_MESSAGE(message_id=8326*)
     "Head for the hills and console Chacharoon!"
  5: 0x00EE [0x23] WAIT_FOR_DIALOG_INTERACTION
  6: 0x00EF [0x5B] LOAD_EXT_SCHEDULER: Load scheduler "thb1" with entities [EventEntity, EventEntity], work=2647*
  7: 0x00FE [0x1D] PRINT_EVENT_MESSAGE(message_id=8327*)
     "Bring your butt to the boat and take the tiny trail to the top. Stare in stupefied silence at the ravishing refurbishment of the range!"
  8: 0x0101 [0x23] WAIT_FOR_DIALOG_INTERACTION
  9: 0x0102 [0x20] SET_CLI_EVENT_UC_FLAG: Unlock player control
 10: 0x0104 [0x21] END_EVENT
 11: 0x0105 [0x00] END_REQSTACK()
```

### Event 2065

#### Metadata

| Field        | Value   |
|--------------|---------|
| Entrypoint   | 0x0106  |
| Data Size    | 1 bytes |
| Instructions | 1       |

```
      00 01 02 03 04 05 06 07  08 09 0A 0B 0C 0D 0E 0F
      -- -- -- -- -- -- -- --  -- -- -- -- -- -- -- --
0100:                   00                                    .         
```

#### Opcodes

```
  0: 0x0106 [0x00] END_REQSTACK()
```

### Event 65535.8

#### Metadata

| Field        | Value    |
|--------------|----------|
| Entrypoint   | 0x0107   |
| Data Size    | 10 bytes |
| Instructions | 2        |

```
      00 01 02 03 04 05 06 07  08 09 0A 0B 0C 0D 0E 0F
      -- -- -- -- -- -- -- --  -- -- -- -- -- -- -- --
0100:                      37  23 80 24 80 25 80 26 80         7#.$.%.&.
0110: 00                                                .               
```

#### Opcodes

```
  0: 0x0107 [0x37] UPDATE_EVENT_POSITION_AND_DIR: x=356.167*, z=-554.001*, y=-3.309*, direction=181.4*
  1: 0x0110 [0x00] END_REQSTACK()
```

### Event 65535.9

#### Metadata

| Field        | Value    |
|--------------|----------|
| Entrypoint   | 0x0111   |
| Data Size    | 14 bytes |
| Instructions | 4        |

```
      00 01 02 03 04 05 06 07  08 09 0A 0B 0C 0D 0E 0F
      -- -- -- -- -- -- -- --  -- -- -- -- -- -- -- --
0110:    32 00 80 1F 00 27 80  28 80 29 80 1F 01 00      2....'.(.).... 
```

#### Opcodes

```
  0: 0x0111 [0x32] ExtData[1]->MainSpeed = 40* * 0.1
  1: 0x0114 [0x1F] MOVE_ENTITY: EventEntity moves to X=356.108*, Z=-551.749*, Y=-3.187*
  2: 0x011C [0x1F] MOVE_ENTITY: Update entity position (mode=1)
  3: 0x011E [0x00] END_REQSTACK()
```

### Event 2068

#### Metadata

| Field        | Value   |
|--------------|---------|
| Entrypoint   | 0x011F  |
| Data Size    | 1 bytes |
| Instructions | 1       |

```
      00 01 02 03 04 05 06 07  08 09 0A 0B 0C 0D 0E 0F
      -- -- -- -- -- -- -- --  -- -- -- -- -- -- -- --
0110:                                               00                 .
```

#### Opcodes

```
  0: 0x011F [0x00] END_REQSTACK()
```

### Event 65535.10

#### Metadata

| Field        | Value    |
|--------------|----------|
| Entrypoint   | 0x0120   |
| Data Size    | 10 bytes |
| Instructions | 2        |

```
      00 01 02 03 04 05 06 07  08 09 0A 0B 0C 0D 0E 0F
      -- -- -- -- -- -- -- --  -- -- -- -- -- -- -- --
0120: 37 2A 80 2B 80 2C 80 2D  80 00                    7*.+.,.-..      
```

#### Opcodes

```
  0: 0x0120 [0x37] UPDATE_EVENT_POSITION_AND_DIR: x=11.973*, z=-19.684*, y=1.499*, direction=13.8*
  1: 0x0129 [0x00] END_REQSTACK()
```

### Event 65535.11

#### Metadata

| Field        | Value    |
|--------------|----------|
| Entrypoint   | 0x012A   |
| Data Size    | 10 bytes |
| Instructions | 2        |

```
      00 01 02 03 04 05 06 07  08 09 0A 0B 0C 0D 0E 0F
      -- -- -- -- -- -- -- --  -- -- -- -- -- -- -- --
0120:                                37 2E 80 2F 80 2C            7../.,
0130: 80 30 80 00                                       .0..            
```

#### Opcodes

```
  0: 0x012A [0x37] UPDATE_EVENT_POSITION_AND_DIR: x=11.397*, z=-19.632*, y=1.499*, direction=46.8*
  1: 0x0133 [0x00] END_REQSTACK()
```

### Event 2069

#### Metadata

| Field        | Value    |
|--------------|----------|
| Entrypoint   | 0x0134   |
| Data Size    | 54 bytes |
| Instructions | 13       |

```
      00 01 02 03 04 05 06 07  08 09 0A 0B 0C 0D 0E 0F
      -- -- -- -- -- -- -- --  -- -- -- -- -- -- -- --
0130:             1E F0 FF FF  7F 6F 70 5B 0E 80 F8 FF      .....op[....
0140: FF 7F F8 FF FF 7F 74 68  62 30 1D 31 80 23 5B 0E  ......thb0.1.#[.
0150: 80 F8 FF FF 7F F8 FF FF  7F 74 68 62 31 03 03 10  .........thb1...
0160: 32 80 1D 33 80 23 20 00  21 00                    2..3.# .!.      
```

#### Opcodes

```
  0: 0x0134 [0x1E] EventEntity looks at LocalPlayer and starts talking
  1: 0x0139 [0x6F] WAIT_FRAME_DELAY: Yield until WaitTime reaches zero
  2: 0x013A [0x70] WAIT_ENTITY_RENDER_FLAG: Wait while EventEntity->Render.Flags3 bit 2 is set (cancel turn if not)
  3: 0x013B [0x5B] LOAD_EXT_SCHEDULER: Load scheduler "thb0" with entities [EventEntity, EventEntity], work=2647*
  4: 0x014A [0x1D] PRINT_EVENT_MESSAGE(message_id=8417*)
     "I will prepare an appropriate moogle soup to aid this afflicted adamantoise, kupo."
  5: 0x014D [0x23] WAIT_FOR_DIALOG_INTERACTION
  6: 0x014E [0x5B] LOAD_EXT_SCHEDULER: Load scheduler "thb1" with entities [EventEntity, EventEntity], work=2647*
  7: 0x015D [0x03] Work_Zone[3] = 4472*
  8: 0x0162 [0x1D] PRINT_EVENT_MESSAGE(message_id=8418*)
     "Bring me twelve $1 so that I can brew the best bisque to tend to our tepid tortoise."
  9: 0x0165 [0x23] WAIT_FOR_DIALOG_INTERACTION
 10: 0x0166 [0x20] SET_CLI_EVENT_UC_FLAG: Unlock player control
 11: 0x0168 [0x21] END_EVENT
 12: 0x0169 [0x00] END_REQSTACK()
```

### Event 2070

#### Metadata

| Field        | Value   |
|--------------|---------|
| Entrypoint   | 0x016A  |
| Data Size    | 1 bytes |
| Instructions | 1       |

```
      00 01 02 03 04 05 06 07  08 09 0A 0B 0C 0D 0E 0F
      -- -- -- -- -- -- -- --  -- -- -- -- -- -- -- --
0160:                                00                           .     
```

#### Opcodes

```
  0: 0x016A [0x00] END_REQSTACK()
```

### Event 65535.12

#### Metadata

| Field        | Value    |
|--------------|----------|
| Entrypoint   | 0x016B   |
| Data Size    | 10 bytes |
| Instructions | 2        |

```
      00 01 02 03 04 05 06 07  08 09 0A 0B 0C 0D 0E 0F
      -- -- -- -- -- -- -- --  -- -- -- -- -- -- -- --
0160:                                   37 04 80 34 80             7..4.
0170: 04 80 35 80 00                                    ..5..           
```

#### Opcodes

```
  0: 0x016B [0x37] UPDATE_EVENT_POSITION_AND_DIR: x=0.010*, z=0.000*, y=0.010*, direction=90.0*
  1: 0x0174 [0x00] END_REQSTACK()
```

### Event 65535.13

#### Metadata

| Field        | Value    |
|--------------|----------|
| Entrypoint   | 0x0175   |
| Data Size    | 14 bytes |
| Instructions | 4        |

```
      00 01 02 03 04 05 06 07  08 09 0A 0B 0C 0D 0E 0F
      -- -- -- -- -- -- -- --  -- -- -- -- -- -- -- --
0170:                32 09 80  1F 00 36 80 37 80 38 80       2....6.7.8.
0180: 1F 01 00                                          ...             
```

#### Opcodes

```
  0: 0x0175 [0x32] ExtData[1]->MainSpeed = 13* * 0.1
  1: 0x0178 [0x1F] MOVE_ENTITY: EventEntity moves to X=11.678*, Z=-18.078*, Y=1.389*
  2: 0x0180 [0x1F] MOVE_ENTITY: Update entity position (mode=1)
  3: 0x0182 [0x00] END_REQSTACK()
```

### Event 65535.14

#### Metadata

| Field        | Value    |
|--------------|----------|
| Entrypoint   | 0x0183   |
| Data Size    | 23 bytes |
| Instructions | 5        |

```
      00 01 02 03 04 05 06 07  08 09 0A 0B 0C 0D 0E 0F
      -- -- -- -- -- -- -- --  -- -- -- -- -- -- -- --
0180:          37 39 80 3A 80  3B 80 3C 80 32 09 80 1F     79.:.;.<.2...
0190: 00 3D 80 3E 80 3F 80 1F  01 00                    .=.>.?....      
```

#### Opcodes

```
  0: 0x0183 [0x37] UPDATE_EVENT_POSITION_AND_DIR: x=14.823*, z=-15.951*, y=1.081*, direction=187.8*
  1: 0x018C [0x32] ExtData[1]->MainSpeed = 13* * 0.1
  2: 0x018F [0x1F] MOVE_ENTITY: EventEntity moves to X=12.941*, Z=-17.164*, Y=1.202*
  3: 0x0197 [0x1F] MOVE_ENTITY: Update entity position (mode=1)
  4: 0x0199 [0x00] END_REQSTACK()
```

### Event 65535.15

#### Metadata

| Field        | Value    |
|--------------|----------|
| Entrypoint   | 0x019A   |
| Data Size    | 12 bytes |
| Instructions | 3        |

```
      00 01 02 03 04 05 06 07  08 09 0A 0B 0C 0D 0E 0F
      -- -- -- -- -- -- -- --  -- -- -- -- -- -- -- --
0190:                                33 01 37 40 80 41            3.7@.A
01A0: 80 42 80 43 80 00                                 .B.C..          
```

#### Opcodes

```
  0: 0x019A [0x33] EventEntity->Render.Flags0 |= 0x200000 // Bit 21 (flag=0x01)
  1: 0x019C [0x37] UPDATE_EVENT_POSITION_AND_DIR: x=10.146*, z=-16.853*, y=1.300*, direction=311.5*
  2: 0x01A5 [0x00] END_REQSTACK()
```

### Event 65535.16

#### Metadata

| Field        | Value    |
|--------------|----------|
| Entrypoint   | 0x01A6   |
| Data Size    | 32 bytes |
| Instructions | 8        |

```
      00 01 02 03 04 05 06 07  08 09 0A 0B 0C 0D 0E 0F
      -- -- -- -- -- -- -- --  -- -- -- -- -- -- -- --
01A0:                   32 00  80 1F 00 44 80 45 80 46        2....D.E.F
01B0: 80 1F 01 1C 04 80 4A F8  FF FF 7F 52 80 11 01 6F  ......J....R...o
01C0: 76 F8 FF FF 7F 00                                 v.....          
```

#### Opcodes

```
  0: 0x01A6 [0x32] ExtData[1]->MainSpeed = 40* * 0.1
  1: 0x01A9 [0x1F] MOVE_ENTITY: EventEntity moves to X=10.019*, Z=-15.238*, Y=1.011*
  2: 0x01B1 [0x1F] MOVE_ENTITY: Update entity position (mode=1)
  3: 0x01B3 [0x1C] WAIT(10* ticks)
  4: 0x01B6 [0x4A] EventEntity looks at KANI01 (ID: 17924178/0x01118052)
  5: 0x01BF [0x6F] WAIT_FRAME_DELAY: Yield until WaitTime reaches zero
  6: 0x01C0 [0x76] CHECK_ENTITY_RENDER_FLAGS: Wait until EventEntity Render.Flags0 and Render.Flags3 conditions are met
  7: 0x01C5 [0x00] END_REQSTACK()
```

### Event 2071

#### Metadata

| Field        | Value   |
|--------------|---------|
| Entrypoint   | 0x01C6  |
| Data Size    | 1 bytes |
| Instructions | 1       |

```
      00 01 02 03 04 05 06 07  08 09 0A 0B 0C 0D 0E 0F
      -- -- -- -- -- -- -- --  -- -- -- -- -- -- -- --
01C0:                   00                                    .         
```

#### Opcodes

```
  0: 0x01C6 [0x00] END_REQSTACK()
```

### Event 65535.17

#### Metadata

| Field        | Value    |
|--------------|----------|
| Entrypoint   | 0x01C7   |
| Data Size    | 10 bytes |
| Instructions | 2        |

```
      00 01 02 03 04 05 06 07  08 09 0A 0B 0C 0D 0E 0F
      -- -- -- -- -- -- -- --  -- -- -- -- -- -- -- --
01C0:                      37  18 80 19 80 1A 80 1B 80         7........
01D0: 00                                                .               
```

#### Opcodes

```
  0: 0x01C7 [0x37] UPDATE_EVENT_POSITION_AND_DIR: x=-4.665*, z=-7.420*, y=0.519*, direction=33.4*
  1: 0x01D0 [0x00] END_REQSTACK()
```

### Event 65535.18

#### Metadata

| Field        | Value    |
|--------------|----------|
| Entrypoint   | 0x01D1   |
| Data Size    | 10 bytes |
| Instructions | 2        |

```
      00 01 02 03 04 05 06 07  08 09 0A 0B 0C 0D 0E 0F
      -- -- -- -- -- -- -- --  -- -- -- -- -- -- -- --
01D0:    37 47 80 48 80 49 80  4A 80 00                  7G.H.I.J..     
```

#### Opcodes

```
  0: 0x01D1 [0x37] UPDATE_EVENT_POSITION_AND_DIR: x=8.207*, z=-13.166*, y=0.861*, direction=298.5*
  1: 0x01DA [0x00] END_REQSTACK()
```

### Event 2072

#### Metadata

| Field        | Value    |
|--------------|----------|
| Entrypoint   | 0x01DB   |
| Data Size    | 53 bytes |
| Instructions | 14       |

```
      00 01 02 03 04 05 06 07  08 09 0A 0B 0C 0D 0E 0F
      -- -- -- -- -- -- -- --  -- -- -- -- -- -- -- --
01D0:                                   1E F0 FF FF 7F             .....
01E0: 6F 70 5B 0E 80 F8 FF FF  7F F8 FF FF 7F 74 68 62  op[..........thb
01F0: 30 1D 4B 80 23 1D 4C 80  23 5B 0E 80 F8 FF FF 7F  0.K.#.L.#[......
0200: F8 FF FF 7F 74 68 62 31  1D 4D 80 23 20 00 21 00  ....thb1.M.# .!.
```

#### Opcodes

```
  0: 0x01DB [0x1E] EventEntity looks at LocalPlayer and starts talking
  1: 0x01E0 [0x6F] WAIT_FRAME_DELAY: Yield until WaitTime reaches zero
  2: 0x01E1 [0x70] WAIT_ENTITY_RENDER_FLAG: Wait while EventEntity->Render.Flags3 bit 2 is set (cancel turn if not)
  3: 0x01E2 [0x5B] LOAD_EXT_SCHEDULER: Load scheduler "thb0" with entities [EventEntity, EventEntity], work=2647*
  4: 0x01F1 [0x1D] PRINT_EVENT_MESSAGE(message_id=8495*)
     "Getting a fourth creature into our rearing grounds is bound to be a fearsome feat."
  5: 0x01F4 [0x23] WAIT_FOR_DIALOG_INTERACTION
  6: 0x01F5 [0x1D] PRINT_EVENT_MESSAGE(message_id=8496*)
     "Could you please help poor Chacharoon keep up with inventory before he gets buried under a mound of monster manure?"
  7: 0x01F8 [0x23] WAIT_FOR_DIALOG_INTERACTION
  8: 0x01F9 [0x5B] LOAD_EXT_SCHEDULER: Load scheduler "thb1" with entities [EventEntity, EventEntity], work=2647*
  9: 0x0208 [0x1D] PRINT_EVENT_MESSAGE(message_id=8497*)
     "Head to the Goblins' shop in Lower Jeuno for supplies. We're counting on you, kupo!"
 10: 0x020B [0x23] WAIT_FOR_DIALOG_INTERACTION
 11: 0x020C [0x20] SET_CLI_EVENT_UC_FLAG: Unlock player control
 12: 0x020E [0x21] END_EVENT
 13: 0x020F [0x00] END_REQSTACK()
```

### Event 2073

#### Metadata

| Field        | Value    |
|--------------|----------|
| Entrypoint   | 0x0210   |
| Data Size    | 45 bytes |
| Instructions | 10       |

```
      00 01 02 03 04 05 06 07  08 09 0A 0B 0C 0D 0E 0F
      -- -- -- -- -- -- -- --  -- -- -- -- -- -- -- --
0210: 1E F0 FF FF 7F 6F 70 5B  0E 80 F8 FF FF 7F F8 FF  .....op[........
0220: FF 7F 74 68 62 30 1D 4E  80 23 5B 0E 80 F8 FF FF  ..thb0.N.#[.....
0230: 7F F8 FF FF 7F 74 68 62  31 20 00 21 00           .....thb1 .!.   
```

#### Opcodes

```
  0: 0x0210 [0x1E] EventEntity looks at LocalPlayer and starts talking
  1: 0x0215 [0x6F] WAIT_FRAME_DELAY: Yield until WaitTime reaches zero
  2: 0x0216 [0x70] WAIT_ENTITY_RENDER_FLAG: Wait while EventEntity->Render.Flags3 bit 2 is set (cancel turn if not)
  3: 0x0217 [0x5B] LOAD_EXT_SCHEDULER: Load scheduler "thb0" with entities [EventEntity, EventEntity], work=2647*
  4: 0x0226 [0x1D] PRINT_EVENT_MESSAGE(message_id=8498*)
     "Superb! You've returned with the supplies! Just drop them off in the rearing grounds out back, kupo."
  5: 0x0229 [0x23] WAIT_FOR_DIALOG_INTERACTION
  6: 0x022A [0x5B] LOAD_EXT_SCHEDULER: Load scheduler "thb1" with entities [EventEntity, EventEntity], work=2647*
  7: 0x0239 [0x20] SET_CLI_EVENT_UC_FLAG: Unlock player control
  8: 0x023B [0x21] END_EVENT
  9: 0x023C [0x00] END_REQSTACK()
```

### Event 2075

#### Metadata

| Field        | Value   |
|--------------|---------|
| Entrypoint   | 0x023D  |
| Data Size    | 1 bytes |
| Instructions | 1       |

```
      00 01 02 03 04 05 06 07  08 09 0A 0B 0C 0D 0E 0F
      -- -- -- -- -- -- -- --  -- -- -- -- -- -- -- --
0230:                                         00                     .  
```

#### Opcodes

```
  0: 0x023D [0x00] END_REQSTACK()
```

### Event 65535.19

#### Metadata

| Field        | Value    |
|--------------|----------|
| Entrypoint   | 0x023E   |
| Data Size    | 10 bytes |
| Instructions | 2        |

```
      00 01 02 03 04 05 06 07  08 09 0A 0B 0C 0D 0E 0F
      -- -- -- -- -- -- -- --  -- -- -- -- -- -- -- --
0230:                                            37 4F                7O
0240: 80 50 80 51 80 52 80 00                           .P.Q.R..        
```

#### Opcodes

```
  0: 0x023E [0x37] UPDATE_EVENT_POSITION_AND_DIR: x=359.349*, z=-553.217*, y=-3.260*, direction=49.0*
  1: 0x0247 [0x00] END_REQSTACK()
```

### Event 65535.20

#### Metadata

| Field        | Value    |
|--------------|----------|
| Entrypoint   | 0x0248   |
| Data Size    | 21 bytes |
| Instructions | 7        |

```
      00 01 02 03 04 05 06 07  08 09 0A 0B 0C 0D 0E 0F
      -- -- -- -- -- -- -- --  -- -- -- -- -- -- -- --
0240:                          32 09 80 1F 00 53 80 54          2....S.T
0250: 80 55 80 1F 01 1E F0 FF  FF 7F 6F 70 00           .U........op.   
```

#### Opcodes

```
  0: 0x0248 [0x32] ExtData[1]->MainSpeed = 13* * 0.1
  1: 0x024B [0x1F] MOVE_ENTITY: EventEntity moves to X=356.468*, Z=-552.364*, Y=-3.218*
  2: 0x0253 [0x1F] MOVE_ENTITY: Update entity position (mode=1)
  3: 0x0255 [0x1E] EventEntity looks at LocalPlayer and starts talking
  4: 0x025A [0x6F] WAIT_FRAME_DELAY: Yield until WaitTime reaches zero
  5: 0x025B [0x70] WAIT_ENTITY_RENDER_FLAG: Wait while EventEntity->Render.Flags3 bit 2 is set (cancel turn if not)
  6: 0x025C [0x00] END_REQSTACK()
```

### Event 65535.21

#### Metadata

| Field        | Value    |
|--------------|----------|
| Entrypoint   | 0x025D   |
| Data Size    | 14 bytes |
| Instructions | 4        |

```
      00 01 02 03 04 05 06 07  08 09 0A 0B 0C 0D 0E 0F
      -- -- -- -- -- -- -- --  -- -- -- -- -- -- -- --
0250:                                         32 09 80               2..
0260: 1F 00 56 80 57 80 58 80  1F 01 00                 ..V.W.X....     
```

#### Opcodes

```
  0: 0x025D [0x32] ExtData[1]->MainSpeed = 13* * 0.1
  1: 0x0260 [0x1F] MOVE_ENTITY: EventEntity moves to X=354.691*, Z=-551.779*, Y=-3.227*
  2: 0x0268 [0x1F] MOVE_ENTITY: Update entity position (mode=1)
  3: 0x026A [0x00] END_REQSTACK()
```

### Event 65535.22

#### Metadata

| Field        | Value    |
|--------------|----------|
| Entrypoint   | 0x026B   |
| Data Size    | 14 bytes |
| Instructions | 4        |

```
      00 01 02 03 04 05 06 07  08 09 0A 0B 0C 0D 0E 0F
      -- -- -- -- -- -- -- --  -- -- -- -- -- -- -- --
0260:                                   32 09 80 1F 00             2....
0270: 59 80 5A 80 5B 80 1F 01  00                       Y.Z.[....       
```

#### Opcodes

```
  0: 0x026B [0x32] ExtData[1]->MainSpeed = 13* * 0.1
  1: 0x026E [0x1F] MOVE_ENTITY: EventEntity moves to X=2.631*, Z=6.084*, Y=0.074*
  2: 0x0276 [0x1F] MOVE_ENTITY: Update entity position (mode=1)
  3: 0x0278 [0x00] END_REQSTACK()
```

### Event 65535.23

#### Metadata

| Field        | Value    |
|--------------|----------|
| Entrypoint   | 0x0279   |
| Data Size    | 23 bytes |
| Instructions | 5        |

```
      00 01 02 03 04 05 06 07  08 09 0A 0B 0C 0D 0E 0F
      -- -- -- -- -- -- -- --  -- -- -- -- -- -- -- --
0270:                             37 5C 80 5D 80 5E 80           7\.].^.
0280: 5F 80 32 00 80 1F 00 04  80 34 80 04 80 1F 01 00  _.2......4......
```

#### Opcodes

```
  0: 0x0279 [0x37] UPDATE_EVENT_POSITION_AND_DIR: x=4.742*, z=1.348*, y=-0.139*, direction=308.3*
  1: 0x0282 [0x32] ExtData[1]->MainSpeed = 40* * 0.1
  2: 0x0285 [0x1F] MOVE_ENTITY: EventEntity moves to X=0.010*, Z=0.000*, Y=0.010*
  3: 0x028D [0x1F] MOVE_ENTITY: Update entity position (mode=1)
  4: 0x028F [0x00] END_REQSTACK()
```

### Event 65535.24

#### Metadata

| Field        | Value    |
|--------------|----------|
| Entrypoint   | 0x0290   |
| Data Size    | 10 bytes |
| Instructions | 2        |

```
      00 01 02 03 04 05 06 07  08 09 0A 0B 0C 0D 0E 0F
      -- -- -- -- -- -- -- --  -- -- -- -- -- -- -- --
0290: 37 60 80 61 80 62 80 63  80 00                    7`.a.b.c..      
```

#### Opcodes

```
  0: 0x0290 [0x37] UPDATE_EVENT_POSITION_AND_DIR: x=6.446*, z=8.387*, y=0.039*, direction=122.7*
  1: 0x0299 [0x00] END_REQSTACK()
```

### Event 65535.25

#### Metadata

| Field        | Value    |
|--------------|----------|
| Entrypoint   | 0x029A   |
| Data Size    | 32 bytes |
| Instructions | 8        |

```
      00 01 02 03 04 05 06 07  08 09 0A 0B 0C 0D 0E 0F
      -- -- -- -- -- -- -- --  -- -- -- -- -- -- -- --
0290:                                32 00 80 1F 00 64            2....d
02A0: 80 65 80 66 80 1F 01 1C  67 80 4A F8 FF FF 7F 51  .e.f....g.J....Q
02B0: 80 11 01 6F 76 F8 FF FF  7F 00                    ...ov.....      
```

#### Opcodes

```
  0: 0x029A [0x32] ExtData[1]->MainSpeed = 40* * 0.1
  1: 0x029D [0x1F] MOVE_ENTITY: EventEntity moves to X=2.973*, Z=7.746*, Y=0.081*
  2: 0x02A5 [0x1F] MOVE_ENTITY: Update entity position (mode=1)
  3: 0x02A7 [0x1C] WAIT(1* ticks)
  4: 0x02AA [0x4A] EventEntity looks at Unnamed NPC (ID: 17924177/0x01118051)
  5: 0x02B3 [0x6F] WAIT_FRAME_DELAY: Yield until WaitTime reaches zero
  6: 0x02B4 [0x76] CHECK_ENTITY_RENDER_FLAGS: Wait until EventEntity Render.Flags0 and Render.Flags3 conditions are met
  7: 0x02B9 [0x00] END_REQSTACK()
```

### Event 65535.26

#### Metadata

| Field        | Value    |
|--------------|----------|
| Entrypoint   | 0x02BA   |
| Data Size    | 14 bytes |
| Instructions | 4        |

```
      00 01 02 03 04 05 06 07  08 09 0A 0B 0C 0D 0E 0F
      -- -- -- -- -- -- -- --  -- -- -- -- -- -- -- --
02B0:                                32 09 80 1F 00 68            2....h
02C0: 80 69 80 6A 80 1F 01 00                           .i.j....        
```

#### Opcodes

```
  0: 0x02BA [0x32] ExtData[1]->MainSpeed = 13* * 0.1
  1: 0x02BD [0x1F] MOVE_ENTITY: EventEntity moves to X=5.407*, Z=8.646*, Y=-0.003*
  2: 0x02C5 [0x1F] MOVE_ENTITY: Update entity position (mode=1)
  3: 0x02C7 [0x00] END_REQSTACK()
```

### Event 65535.27

#### Metadata

| Field        | Value    |
|--------------|----------|
| Entrypoint   | 0x02C8   |
| Data Size    | 33 bytes |
| Instructions | 3        |

```
      00 01 02 03 04 05 06 07  08 09 0A 0B 0C 0D 0E 0F
      -- -- -- -- -- -- -- --  -- -- -- -- -- -- -- --
02C0:                          45 6B 80 F0 FF FF 7F F0          Ek......
02D0: FF FF 7F 73 30 30 36 34  80 5B 6C 80 F8 FF FF 7F  ...s0064.[l.....
02E0: F8 FF FF 7F 74 6C 6B 30  00                       ....tlk0.       
```

#### Opcodes

```
  0: 0x02C8 [0x45] LOAD_SCHEDULED_TASK: Load scheduler "s006" with entities [LocalPlayer, LocalPlayer], work=[188*, 0*]
  1: 0x02D9 [0x5B] LOAD_EXT_SCHEDULER: Load scheduler "tlk0" with entities [EventEntity, EventEntity], work=2636*
  2: 0x02E8 [0x00] END_REQSTACK()
```

### Event 65535.28

#### Metadata

| Field        | Value    |
|--------------|----------|
| Entrypoint   | 0x02E9   |
| Data Size    | 14 bytes |
| Instructions | 2        |

```
      00 01 02 03 04 05 06 07  08 09 0A 0B 0C 0D 0E 0F
      -- -- -- -- -- -- -- --  -- -- -- -- -- -- -- --
02E0:                             53 F8 FF FF 7F F8 FF           S......
02F0: FF 7F 74 6C 6B 30 00                              ..tlk0.         
```

#### Opcodes

```
  0: 0x02E9 [0x53] WAIT_SCHEDULER_TASK: Wait for scheduler "tlk0" with entities [EventEntity, EventEntity]
  1: 0x02F6 [0x00] END_REQSTACK()
```

### Event 65535.29

#### Metadata

| Field        | Value    |
|--------------|----------|
| Entrypoint   | 0x02F7   |
| Data Size    | 16 bytes |
| Instructions | 2        |

```
      00 01 02 03 04 05 06 07  08 09 0A 0B 0C 0D 0E 0F
      -- -- -- -- -- -- -- --  -- -- -- -- -- -- -- --
02F0:                      5B  6C 80 F8 FF FF 7F F8 FF         [l.......
0300: FF 7F 73 74 64 30 00                              ..std0.         
```

#### Opcodes

```
  0: 0x02F7 [0x5B] LOAD_EXT_SCHEDULER: Load scheduler "std0" with entities [EventEntity, EventEntity], work=2636*
  1: 0x0306 [0x00] END_REQSTACK()
```

### Event 65535.30

#### Metadata

| Field        | Value    |
|--------------|----------|
| Entrypoint   | 0x0307   |
| Data Size    | 14 bytes |
| Instructions | 2        |

```
      00 01 02 03 04 05 06 07  08 09 0A 0B 0C 0D 0E 0F
      -- -- -- -- -- -- -- --  -- -- -- -- -- -- -- --
0300:                      53  F8 FF FF 7F F8 FF FF 7F         S........
0310: 73 74 64 30 00                                    std0.           
```

#### Opcodes

```
  0: 0x0307 [0x53] WAIT_SCHEDULER_TASK: Wait for scheduler "std0" with entities [EventEntity, EventEntity]
  1: 0x0314 [0x00] END_REQSTACK()
```

### Event 65535.31

#### Metadata

| Field        | Value    |
|--------------|----------|
| Entrypoint   | 0x0315   |
| Data Size    | 33 bytes |
| Instructions | 3        |

```
      00 01 02 03 04 05 06 07  08 09 0A 0B 0C 0D 0E 0F
      -- -- -- -- -- -- -- --  -- -- -- -- -- -- -- --
0310:                45 6B 80  F0 FF FF 7F F0 FF FF 7F       Ek.........
0320: 73 30 30 38 34 80 5B 6D  80 F8 FF FF 7F F8 FF FF  s0084.[m........
0330: 7F 67 61 6B 30 00                                 .gak0.          
```

#### Opcodes

```
  0: 0x0315 [0x45] LOAD_SCHEDULED_TASK: Load scheduler "s008" with entities [LocalPlayer, LocalPlayer], work=[188*, 0*]
  1: 0x0326 [0x5B] LOAD_EXT_SCHEDULER: Load scheduler "gak0" with entities [EventEntity, EventEntity], work=2643*
  2: 0x0335 [0x00] END_REQSTACK()
```

### Event 65535.32

#### Metadata

| Field        | Value    |
|--------------|----------|
| Entrypoint   | 0x0336   |
| Data Size    | 14 bytes |
| Instructions | 2        |

```
      00 01 02 03 04 05 06 07  08 09 0A 0B 0C 0D 0E 0F
      -- -- -- -- -- -- -- --  -- -- -- -- -- -- -- --
0330:                   53 F8  FF FF 7F F8 FF FF 7F 67        S........g
0340: 61 6B 30 00                                       ak0.            
```

#### Opcodes

```
  0: 0x0336 [0x53] WAIT_SCHEDULER_TASK: Wait for scheduler "gak0" with entities [EventEntity, EventEntity]
  1: 0x0343 [0x00] END_REQSTACK()
```

### Event 65535.33

#### Metadata

| Field        | Value    |
|--------------|----------|
| Entrypoint   | 0x0344   |
| Data Size    | 16 bytes |
| Instructions | 2        |

```
      00 01 02 03 04 05 06 07  08 09 0A 0B 0C 0D 0E 0F
      -- -- -- -- -- -- -- --  -- -- -- -- -- -- -- --
0340:             5B 6D 80 F8  FF FF 7F F8 FF FF 7F 67      [m.........g
0350: 61 6B 31 00                                       ak1.            
```

#### Opcodes

```
  0: 0x0344 [0x5B] LOAD_EXT_SCHEDULER: Load scheduler "gak1" with entities [EventEntity, EventEntity], work=2643*
  1: 0x0353 [0x00] END_REQSTACK()
```

### Event 65535.34

#### Metadata

| Field        | Value    |
|--------------|----------|
| Entrypoint   | 0x0354   |
| Data Size    | 14 bytes |
| Instructions | 2        |

```
      00 01 02 03 04 05 06 07  08 09 0A 0B 0C 0D 0E 0F
      -- -- -- -- -- -- -- --  -- -- -- -- -- -- -- --
0350:             53 F8 FF FF  7F F8 FF FF 7F 67 61 6B      S........gak
0360: 31 00                                             1.              
```

#### Opcodes

```
  0: 0x0354 [0x53] WAIT_SCHEDULER_TASK: Wait for scheduler "gak1" with entities [EventEntity, EventEntity]
  1: 0x0361 [0x00] END_REQSTACK()
```

### Event 65535.35

#### Metadata

| Field        | Value    |
|--------------|----------|
| Entrypoint   | 0x0362   |
| Data Size    | 33 bytes |
| Instructions | 3        |

```
      00 01 02 03 04 05 06 07  08 09 0A 0B 0C 0D 0E 0F
      -- -- -- -- -- -- -- --  -- -- -- -- -- -- -- --
0360:       45 6B 80 F0 FF FF  7F F0 FF FF 7F 73 30 30    Ek.........s00
0370: 39 34 80 5B 6C 80 F8 FF  FF 7F F8 FF FF 7F 6B 72  94.[l.........kr
0380: 75 30 00                                          u0.             
```

#### Opcodes

```
  0: 0x0362 [0x45] LOAD_SCHEDULED_TASK: Load scheduler "s009" with entities [LocalPlayer, LocalPlayer], work=[188*, 0*]
  1: 0x0373 [0x5B] LOAD_EXT_SCHEDULER: Load scheduler "kru0" with entities [EventEntity, EventEntity], work=2636*
  2: 0x0382 [0x00] END_REQSTACK()
```

### Event 65535.36

#### Metadata

| Field        | Value    |
|--------------|----------|
| Entrypoint   | 0x0383   |
| Data Size    | 14 bytes |
| Instructions | 2        |

```
      00 01 02 03 04 05 06 07  08 09 0A 0B 0C 0D 0E 0F
      -- -- -- -- -- -- -- --  -- -- -- -- -- -- -- --
0380:          53 F8 FF FF 7F  F8 FF FF 7F 6B 72 75 30     S........kru0
0390: 00                                                .               
```

#### Opcodes

```
  0: 0x0383 [0x53] WAIT_SCHEDULER_TASK: Wait for scheduler "kru0" with entities [EventEntity, EventEntity]
  1: 0x0390 [0x00] END_REQSTACK()
```

### Event 65535.37

#### Metadata

| Field        | Value    |
|--------------|----------|
| Entrypoint   | 0x0391   |
| Data Size    | 16 bytes |
| Instructions | 2        |

```
      00 01 02 03 04 05 06 07  08 09 0A 0B 0C 0D 0E 0F
      -- -- -- -- -- -- -- --  -- -- -- -- -- -- -- --
0390:    5B 6C 80 F8 FF FF 7F  F8 FF FF 7F 73 74 64 30   [l.........std0
03A0: 00                                                .               
```

#### Opcodes

```
  0: 0x0391 [0x5B] LOAD_EXT_SCHEDULER: Load scheduler "std0" with entities [EventEntity, EventEntity], work=2636*
  1: 0x03A0 [0x00] END_REQSTACK()
```

### Event 65535.38

#### Metadata

| Field        | Value    |
|--------------|----------|
| Entrypoint   | 0x03A1   |
| Data Size    | 14 bytes |
| Instructions | 2        |

```
      00 01 02 03 04 05 06 07  08 09 0A 0B 0C 0D 0E 0F
      -- -- -- -- -- -- -- --  -- -- -- -- -- -- -- --
03A0:    53 F8 FF FF 7F F8 FF  FF 7F 73 74 64 30 00      S........std0. 
```

#### Opcodes

```
  0: 0x03A1 [0x53] WAIT_SCHEDULER_TASK: Wait for scheduler "std0" with entities [EventEntity, EventEntity]
  1: 0x03AE [0x00] END_REQSTACK()
```

### Event 65535.39

#### Metadata

| Field        | Value    |
|--------------|----------|
| Entrypoint   | 0x03AF   |
| Data Size    | 33 bytes |
| Instructions | 3        |

```
      00 01 02 03 04 05 06 07  08 09 0A 0B 0C 0D 0E 0F
      -- -- -- -- -- -- -- --  -- -- -- -- -- -- -- --
03A0:                                               45                 E
03B0: 6B 80 F0 FF FF 7F F0 FF  FF 7F 73 30 30 35 34 80  k.........s0054.
03C0: 5B 6C 80 F8 FF FF 7F F8  FF FF 7F 68 61 70 30 00  [l.........hap0.
```

#### Opcodes

```
  0: 0x03AF [0x45] LOAD_SCHEDULED_TASK: Load scheduler "s005" with entities [LocalPlayer, LocalPlayer], work=[188*, 0*]
  1: 0x03C0 [0x5B] LOAD_EXT_SCHEDULER: Load scheduler "hap0" with entities [EventEntity, EventEntity], work=2636*
  2: 0x03CF [0x00] END_REQSTACK()
```

### Event 65535.40

#### Metadata

| Field        | Value    |
|--------------|----------|
| Entrypoint   | 0x03D0   |
| Data Size    | 14 bytes |
| Instructions | 2        |

```
      00 01 02 03 04 05 06 07  08 09 0A 0B 0C 0D 0E 0F
      -- -- -- -- -- -- -- --  -- -- -- -- -- -- -- --
03D0: 53 F8 FF FF 7F F8 FF FF  7F 68 61 70 30 00        S........hap0.  
```

#### Opcodes

```
