# 17924140 - Mineral Vein

## Common Data

| Field            | Value                |
|------------------|----------------------|
| Zone             | Mog Garden (ID: 280) |
| Block Size       | 6840 bytes           |
| Total Events     | 5                    |
| References Count | 56                   |

## List of Events

| Event ID              | Entrypoint   |   Size |   Instructions |
|-----------------------|--------------|--------|----------------|
| [65535](#event-65535) | 0x0000       |      1 |              1 |
| [65534](#event-65534) | 0x0001       |      1 |              1 |
| [1042](#event-1042)   | 0x0002       |      3 |              1 |
| [1050](#event-1050)   | 0x0005       |      3 |              1 |
| [1058](#event-1058)   | 0x0008       |   6570 |           1141 |

## DAT References (imed_data)

|   Index | Hex Value   |   Dec Value |
|---------|-------------|-------------|
|       0 | 0x0000      |           0 |
|       1 | 0x1CDB      |        7387 |
|       2 | 0x40000000  |  1073741824 |
|       3 | 0x1CD8      |        7384 |
|       4 | 0x1CD9      |        7385 |
|       5 | 0x1CDA      |        7386 |
|       6 | 0x0001      |           1 |
|       7 | 0x1CD3      |        7379 |
|       8 | 0x1CD4      |        7380 |
|       9 | 0x0002      |           2 |
|      10 | 0x1CD5      |        7381 |
|      11 | 0x0029      |          41 |
|      12 | 0x0004      |           4 |
|      13 | 0x0007      |           7 |
|      14 | 0x1D73      |        7539 |
|      15 | 0x1D72      |        7538 |
|      16 | 0x001A      |          26 |
|      17 | 0x001B      |          27 |
|      18 | 0x001C      |          28 |
|      19 | 0x0003      |           3 |
|      20 | 0x0005      |           5 |
|      21 | 0x0012      |          18 |
|      22 | 0x0013      |          19 |
|      23 | 0x0014      |          20 |
|      24 | 0x0015      |          21 |
|      25 | 0x0006      |           6 |
|      26 | 0x0008      |           8 |
|      27 | 0x0016      |          22 |
|      28 | 0x0017      |          23 |
|      29 | 0x0018      |          24 |
|      30 | 0x0019      |          25 |
|      31 | 0x0009      |           9 |
|      32 | 0x000A      |          10 |
|      33 | 0x000B      |          11 |
|      34 | 0x0011      |          17 |
|      35 | 0x000C      |          12 |
|      36 | 0x000D      |          13 |
|      37 | 0x000E      |          14 |
|      38 | 0x000F      |          15 |
|      39 | 0x0010      |          16 |
|      40 | 0x001D      |          29 |
|      41 | 0x001F      |          31 |
|      42 | 0x0063      |          99 |
|      43 | 0x0032      |          50 |
|      44 | 0x0049      |          73 |
|      45 | 0xFFFFF62B  |  4294964779 |
|      46 | 0xFFFFEC34  |  4294962228 |
|      47 | 0x01C4      |         452 |
|      48 | 0x0CF5      |        3317 |
|      49 | 0x00C8      |         200 |
|      50 | 0x0048      |          72 |
|      51 | 0x582C8     |      361160 |
|      52 | 0xFFF788EE  |  4294412526 |
|      53 | 0xFFFFF2F4  |  4294963956 |
|      54 | 0x064D      |        1613 |
|      55 | 0xFFFFFFFF  |  4294967295 |

## String References

- **7379**: This mineral vein is rank $0. It seems possible to obtain something from it $2 more time[/s].
- **7380**: This vein has $1 poured on it.
- **7381**: What will you do? [Mine it./Multiple excavations./Nothing.]
- **7384**: Using this new serum will overpower the effects of the $0 you already poured.
- **7385**: Use $0? [Yes./No.]
- **7386**: You poured $0 on the vein.
- **7387**: You cannot pour $0 on a mineral vein.
- **7538**: You have successfully performed that action $0 time[/s], and may do so again $3 more time[/s].
- **7539**: You have successfully performed that action $0 time[/s], and may no longer do so again.

## Events

### Event 65535

#### Metadata

| Field        | Value   |
|--------------|---------|
| Entrypoint   | 0x0000  |
| Data Size    | 1 bytes |
| Instructions | 1       |

```
      00 01 02 03 04 05 06 07  08 09 0A 0B 0C 0D 0E 0F
      -- -- -- -- -- -- -- --  -- -- -- -- -- -- -- --
0000: 00                                                .               
```

#### Opcodes

```
  0: 0x0000 [0x00] END_REQSTACK()
```

### Event 65534

#### Metadata

| Field        | Value   |
|--------------|---------|
| Entrypoint   | 0x0001  |
| Data Size    | 1 bytes |
| Instructions | 1       |

```
      00 01 02 03 04 05 06 07  08 09 0A 0B 0C 0D 0E 0F
      -- -- -- -- -- -- -- --  -- -- -- -- -- -- -- --
0000:    00                                              .              
```

#### Opcodes

```
  0: 0x0001 [0x00] END_REQSTACK()
```

### Event 1042

#### Metadata

| Field        | Value   |
|--------------|---------|
| Entrypoint   | 0x0002  |
| Data Size    | 3 bytes |
| Instructions | 1       |

```
      00 01 02 03 04 05 06 07  08 09 0A 0B 0C 0D 0E 0F
      -- -- -- -- -- -- -- --  -- -- -- -- -- -- -- --
0000:       01 7B 00                                      .{.           
```

#### Opcodes

```
  0: 0x0002 [0x01] GOTO 0x007B
```

### Event 1050

#### Metadata

| Field        | Value   |
|--------------|---------|
| Entrypoint   | 0x0005  |
| Data Size    | 3 bytes |
| Instructions | 1       |

```
      00 01 02 03 04 05 06 07  08 09 0A 0B 0C 0D 0E 0F
      -- -- -- -- -- -- -- --  -- -- -- -- -- -- -- --
0000:                01 0B 00                                ...        
```

#### Opcodes

```
  0: 0x0005 [0x01] GOTO 0x000B
```

### Event 1058

#### Metadata

| Field        | Value      |
|--------------|------------|
| Entrypoint   | 0x0008     |
| Data Size    | 6570 bytes |
| Instructions | 56         |

```
      00 01 02 03 04 05 06 07  08 09 0A 0B 0C 0D 0E 0F
      -- -- -- -- -- -- -- --  -- -- -- -- -- -- -- --
0000:                          01 99 01 03 02 00 02 10          ........
0010: 03 06 00 03 10 02 02 10  00 80 00 2E 00 03 02 10  ................
0020: 03 10 48 01 80 23 03 01  10 02 80 01 79 00 02 03  ..H..#......y...
0030: 10 00 80 01 6F 00 03 02  10 06 00 48 03 80 23 03  ....o......H..#.
0040: 02 10 02 00 24 04 80 00  80 00 80 25 02 00 10 00  ....$......%....
0050: 80 00 5C 00 42 48 05 80  23 01 6C 00 02 00 10 06  ..\.BH..#.l.....
0060: 80 00 6C 00 03 01 10 02  80 01 6C 00 01 79 00 42  ..l.......l..y.B
0070: 48 05 80 23 03 01 10 00  80 21 00 03 00 00 02 10  H..#.....!......
0080: 03 02 00 03 10 03 01 00  04 10 03 03 00 09 10 4A  ...............J
0090: F0 FF FF 7F F8 FF FF 7F  48 07 80 23 02 02 00 00  ........H..#....
00A0: 80 02 A8 00 48 08 80 23  02 01 00 06 80 02 BD 00  ....H..#........
00B0: 03 04 00 00 80 03 09 00  06 80 01 C7 00 03 04 00  ................
00C0: 09 80 03 09 00 00 80 24  0A 80 09 00 04 00 25 02  .......$......%.
00D0: 00 10 00 80 00 04 01 42  6E F0 FF FF 7F 0B 80 99  .......Bn.......
00E0: F0 FF FF 7F 03 01 10 06  80 43 00 43 01 02 03 10  .........C.C....
00F0: 06 80 00 FE 00 40 0C 80  0D 80 08 11 02 10 1A E7  .....@..........
0100: 04 01 97 01 02 00 10 06  80 00 87 01 42 06 07 00  ............B...
0110: 06 08 00 6E F0 FF FF 7F  0B 80 99 F0 FF FF 7F 02  ...n............
0120: 07 00 00 80 00 6B 01 03  01 10 06 80 43 00 43 01  .....k......C.C.
0130: 02 06 10 00 80 01 3B 01  05 07 00 02 05 10 00 80  ......;.........
0140: 00 46 01 05 07 00 02 04  10 00 80 01 51 01 05 07  .F..........Q...
0150: 00 02 03 10 06 80 00 65  01 40 0C 80 0D 80 08 11  .......e.@......
0160: 02 10 05 07 00 0B 08 00  01 1F 01 03 02 10 08 00  ................
0170: 02 05 10 00 80 00 7E 01  48 0E 80 01 81 01 48 0F  ......~.H.....H.
0180: 80 1A E7 04 01 97 01 02  00 10 09 80 00 97 01 03  ................
0190: 01 10 02 80 01 97 01 21  00 42 40 0C 80 0D 80 08  .......!.B@.....
01A0: 11 02 10 1A E7 04 21 00  92 00 1D 80 11 01 1A E2  ......!.........
01B0: 09 1A 1F 02 1A E3 02 1A  8D 04 1A BA 06 1A C8 15  ................
01C0: 1A C8 06 1A A4 07 1A DB  07 1A FE 07 1A 2A 08 1A  .............*..
01D0: CA 08 1A 54 09 1A 7D 09  1A C3 09 1A FB 05 AC 02  ...T..}.........
01E0: 35 80 11 01 1B 92 00 1D  80 11 01 1A 1F 02 1A E3  5...............
01F0: 02 1A 8D 04 1A BA 06 1A  C8 15 1A C8 06 1A A4 07  ................
0200: 1A DB 07 1A FE 07 1A 2A  08 1A CA 08 1A 54 09 1A  .......*.....T..
0210: 7D 09 1A C3 09 1A FB 05  AC 02 35 80 11 01 1B AC  }.........5.....
0220: 02 09 80 11 01 3E 00 11  00 80 36 02 27 80 09 80  .....>....6.'...
0230: 11 01 02 01 3D 02 27 80  09 80 11 01 03 AC 02 0A  ....=.'.........
0240: 80 11 01 3E 00 11 06 80  54 02 27 80 0A 80 11 01  ...>....T.'.....
0250: 02 01 5B 02 27 80 0A 80  11 01 03 AC 02 0B 80 11  ..[.'...........
0260: 01 3E 00 11 09 80 72 02  29 80 0B 80 11 01 02 01  .>....r.).......
0270: 79 02 29 80 0B 80 11 01  03 92 01 20 80 11 01 92  y.)........ ....
0280: 01 21 80 11 01 92 01 22  80 11 01 AC 02 20 80 11  .!....."..... ..
0290: 01 3E 00 11 10 80 A1 02  4E 00 20 80 11 01 01 A7  .>......N. .....
02A0: 02 4E 01 20 80 11 01 AC  02 21 80 11 01 3E 00 11  .N. .....!...>..
02B0: 11 80 BD 02 4E 00 21 80  11 01 01 C3 02 4E 01 21  ....N.!......N.!
02C0: 80 11 01 AC 02 22 80 11  01 3E 00 11 12 80 D9 02  ....."...>......
02D0: 4E 00 22 80 11 01 01 DF  02 4E 01 22 80 11 01 1C  N."......N."....
02E0: 06 80 1B AC 02 0F 80 11  01 3E 00 11 13 80 FA 02  .........>......
02F0: 27 80 0F 80 11 01 02 01  01 03 27 80 0F 80 11 01  '.........'.....
0300: 03 AC 02 10 80 11 01 3E  00 11 0C 80 18 03 27 80  .......>......'.
0310: 10 80 11 01 02 01 1F 03  27 80 10 80 11 01 03 AC  ........'.......
0320: 02 11 80 11 01 3E 00 11  14 80 36 03 29 80 11 80  .....>....6.)...
0330: 11 01 02 01 3D 03 29 80  11 80 11 01 03 AC 02 1A  ....=.).........
0340: 80 11 01 3E 01 11 15 80  54 03 27 80 1A 80 11 01  ...>....T.'.....
0350: 02 01 5B 03 27 80 1A 80  11 01 03 AC 02 1B 80 11  ..[.'...........
0360: 01 3E 01 11 16 80 72 03  29 80 1B 80 11 01 02 01  .>....r.).......
0370: 79 03 29 80 1B 80 11 01  03 AC 02 23 80 11 01 AC  y.)........#....
0380: 02 24 80 11 01 3E 00 11  15 80 B1 03 3E 08 11 00  .$...>......>...
0390: 80 A2 03 4E 00 24 80 11  01 4E 01 23 80 11 01 01  ...N.$...N.#....
03A0: AE 03 4E 00 23 80 11 01  4E 01 24 80 11 01 01 BD  ..N.#...N.$.....
03B0: 03 4E 01 23 80 11 01 4E  01 24 80 11 01 AC 02 25  .N.#...N.$.....%
03C0: 80 11 01 AC 02 26 80 11  01 3E 00 11 16 80 F5 03  .....&...>......
03D0: 3E 08 11 06 80 E6 03 4E  00 26 80 11 01 4E 01 25  >......N.&...N.%
03E0: 80 11 01 01 F2 03 4E 00  25 80 11 01 4E 01 26 80  ......N.%...N.&.
03F0: 11 01 01 01 04 4E 01 25  80 11 01 4E 01 26 80 11  .....N.%...N.&..
0400: 01 AC 02 27 80 11 01 AC  02 28 80 11 01 3E 00 11  ...'.....(...>..
0410: 17 80 39 04 3E 08 11 09  80 2A 04 4E 00 28 80 11  ..9.>....*.N.(..
0420: 01 4E 01 27 80 11 01 01  36 04 4E 00 27 80 11 01  .N.'....6.N.'...
0430: 4E 01 28 80 11 01 01 45  04 4E 01 27 80 11 01 4E  N.(....E.N.'...N
0440: 01 28 80 11 01 AC 02 29  80 11 01 AC 02 2A 80 11  .(.....).....*..
0450: 01 3E 00 11 18 80 7D 04  3E 08 11 13 80 6E 04 4E  .>....}.>....n.N
0460: 00 2A 80 11 01 4E 01 29  80 11 01 01 7A 04 4E 00  .*...N.)....z.N.
0470: 29 80 11 01 4E 01 2A 80  11 01 01 89 04 4E 01 29  )...N.*......N.)
0480: 80 11 01 4E 01 2A 80 11  01 1C 06 80 1B AC 02 12  ...N.*..........
0490: 80 11 01 3E 00 11 19 80  A4 04 27 80 12 80 11 01  ...>......'.....
04A0: 02 01 AB 04 27 80 12 80  11 01 03 AC 02 13 80 11  ....'...........
04B0: 01 3E 00 11 0D 80 C2 04  27 80 13 80 11 01 02 01  .>......'.......
04C0: C9 04 27 80 13 80 11 01  03 AC 02 14 80 11 01 3E  ..'............>
04D0: 00 11 1A 80 E0 04 29 80  14 80 11 01 02 01 E7 04  ......).........
04E0: 29 80 14 80 11 01 03 AC  02 2B 80 11 01 AC 02 2C  )........+.....,
04F0: 80 11 01 3E 00 11 1B 80  1F 05 3E 08 11 0C 80 10  ...>......>.....
0500: 05 4E 00 2C 80 11 01 4E  01 2B 80 11 01 01 1C 05  .N.,...N.+......
0510: 4E 00 2B 80 11 01 4E 01  2C 80 11 01 01 2B 05 4E  N.+...N.,....+.N
0520: 01 2B 80 11 01 4E 01 2C  80 11 01 AC 02 2D 80 11  .+...N.,.....-..
0530: 01 AC 02 2E 80 11 01 3E  00 11 1C 80 63 05 3E 08  .......>....c.>.
0540: 11 14 80 54 05 4E 00 2E  80 11 01 4E 01 2D 80 11  ...T.N.....N.-..
0550: 01 01 60 05 4E 00 2D 80  11 01 4E 01 2E 80 11 01  ..`.N.-...N.....
0560: 01 6F 05 4E 01 2D 80 11  01 4E 01 2E 80 11 01 AC  .o.N.-...N......
0570: 02 2F 80 11 01 AC 02 30  80 11 01 3E 00 11 1D 80  ./.....0...>....
0580: A7 05 3E 08 11 19 80 98  05 4E 00 30 80 11 01 4E  ..>......N.0...N
0590: 01 2F 80 11 01 01 A4 05  4E 00 2F 80 11 01 4E 01  ./......N./...N.
05A0: 30 80 11 01 01 B3 05 4E  01 2F 80 11 01 4E 01 30  0......N./...N.0
05B0: 80 11 01 AC 02 31 80 11  01 AC 02 32 80 11 01 3E  .....1.....2...>
05C0: 00 11 1E 80 EB 05 3E 08  11 0D 80 DC 05 4E 00 32  ......>......N.2
05D0: 80 11 01 4E 01 31 80 11  01 01 E8 05 4E 00 31 80  ...N.1......N.1.
05E0: 11 01 4E 01 32 80 11 01  01 F7 05 4E 01 31 80 11  ..N.2......N.1..
05F0: 01 4E 01 32 80 11 01 1C  06 80 1B 92 01 35 80 11  .N.2.........5..
0600: 01 AC 02 15 80 11 01 3E  00 11 1F 80 18 06 27 80  .......>......'.
0610: 15 80 11 01 02 01 1F 06  27 80 15 80 11 01 03 AC  ........'.......
0620: 02 16 80 11 01 3E 00 11  20 80 36 06 27 80 16 80  .....>.. .6.'...
0630: 11 01 02 01 3D 06 27 80  16 80 11 01 03 AC 02 17  ....=.'.........
0640: 80 11 01 3E 00 11 21 80  54 06 27 80 17 80 11 01  ...>..!.T.'.....
0650: 02 01 5B 06 27 80 17 80  11 01 03 AC 02 18 80 11  ..[.'...........
0660: 01 3E 01 11 22 80 72 06  29 80 18 80 11 01 02 01  .>..".r.).......
0670: 79 06 29 80 18 80 11 01  03 3E 01 11 17 80 89 06  y.)......>......
0680: 60 02 69 30 6F 6E 01 89  06 3E 01 11 18 80 99 06  `.i0on...>......
0690: 60 02 69 31 6F 6E 01 99  06 3E 01 11 1B 80 A9 06  `.i1on...>......
06A0: 60 02 69 32 6F 6E 01 A9  06 3E 01 11 1C 80 B9 06  `.i2on...>......
06B0: 60 02 69 33 6F 6E 01 B9  06 1B AC 02 35 80 11 01  `.i3on......5...
06C0: 29 08 35 80 11 01 04 1B  92 00 57 80 11 01 92 00  ).5.......W.....
06D0: 6A 80 11 01 92 00 58 80  11 01 92 00 6B 80 11 01  j.....X.....k...
06E0: 92 00 59 80 11 01 92 00  6C 80 11 01 AC 02 57 80  ..Y.....l.....W.
06F0: 11 01 3E 00 11 23 80 03  07 27 08 57 80 11 01 02  ..>..#...'.W....
0700: 01 0A 07 27 08 57 80 11  01 03 AC 02 6A 80 11 01  ...'.W......j...
0710: 3E 00 11 24 80 21 07 27  08 6A 80 11 01 02 01 28  >..$.!.'.j.....(
0720: 07 27 08 6A 80 11 01 03  AC 02 58 80 11 01 3E 00  .'.j......X...>.
0730: 11 25 80 3F 07 29 08 58  80 11 01 02 01 46 07 29  .%.?.).X.....F.)
0740: 08 58 80 11 01 03 AC 02  6B 80 11 01 3E 00 11 26  .X......k...>..&
0750: 80 5D 07 27 08 6B 80 11  01 02 01 64 07 27 08 6B  .].'.k.....d.'.k
0760: 80 11 01 03 AC 02 59 80  11 01 3E 00 11 27 80 7B  ......Y...>..'.{
0770: 07 27 08 59 80 11 01 02  01 82 07 27 08 59 80 11  .'.Y.......'.Y..
0780: 01 03 AC 02 6C 80 11 01  3E 00 11 22 80 99 07 29  ....l...>.."...)
0790: 08 6C 80 11 01 02 01 A0  07 29 08 6C 80 11 01 03  .l.......).l....
07A0: 1C 06 80 1B AC 02 36 80  11 01 3E 00 11 28 80 C7  ......6...>..(..
07B0: 07 2C 36 80 11 01 36 80  11 01 65 66 6F 6E B6 14  .,6...6...efon..
07C0: 36 80 11 01 01 DA 07 2C  36 80 11 01 36 80 11 01  6......,6...6...
07D0: 65 66 6F 66 B6 15 36 80  11 01 1B 3E 01 11 00 80  efof..6....>....
07E0: F1 07 4E 00 71 80 11 01  AC 03 71 80 11 01 01 FD  ..N.q.....q.....
07F0: 07 AC 02 71 80 11 01 4E  01 71 80 11 01 1B AC 02  ...q...N.q......
0800: 72 80 11 01 3E 01 11 06  80 22 08 3E 01 11 13 80  r...>....".>....
0810: 19 08 29 08 72 80 11 01  04 4E 00 72 80 11 01 01  ..).r....N.r....
0820: 29 08 29 08 72 80 11 01  03 1B AC 02 8E 80 11 01  ).).r...........
0830: 3E 01 11 1E 80 40 08 4E  00 8E 80 11 01 01 46 08  >....@.N......F.
0840: 4E 01 8E 80 11 01 1B AC  02 80 80 11 01 AC 02 81  N...............
0850: 80 11 01 AC 02 82 80 11  01 AC 02 83 80 11 01 AC  ................
0860: 02 84 80 11 01 3E 01 11  10 80 AB 08 4E 00 80 80  .....>......N...
0870: 11 01 AC 03 80 80 11 01  4E 00 81 80 11 01 AC 03  ........N.......
0880: 81 80 11 01 4E 00 82 80  11 01 AC 03 82 80 11 01  ....N...........
0890: 4E 00 83 80 11 01 AC 03  83 80 11 01 4E 00 84 80  N...........N...
08A0: 11 01 AC 03 84 80 11 01  01 C9 08 4E 01 80 80 11  ...........N....
08B0: 01 4E 01 81 80 11 01 4E  01 82 80 11 01 4E 01 83  .N.....N.....N..
08C0: 80 11 01 4E 01 84 80 11  01 1B AC 02 85 80 11 01  ...N............
08D0: AC 02 86 80 11 01 3E 01  11 11 80 47 09 13 0A 00  ......>....G....
08E0: 09 80 02 0A 00 09 80 02  ED 08 06 0A 00 02 0A 00  ................
08F0: 00 80 80 06 09 29 08 85  80 11 01 02 29 08 86 80  .....)......)...
0900: 11 01 02 01 38 09 02 0A  00 06 80 80 1F 09 29 08  ....8.........).
0910: 85 80 11 01 03 29 08 86  80 11 01 03 01 38 09 02  .....).......8..
0920: 0A 00 09 80 80 38 09 29  08 85 80 11 01 04 29 08  .....8.)......).
0930: 86 80 11 01 04 01 38 09  4E 00 85 80 11 01 4E 00  ......8.N.....N.
0940: 86 80 11 01 01 53 09 4E  01 85 80 11 01 4E 01 86  .....S.N.....N..
0950: 80 11 01 1B AC 02 87 80  11 01 3E 01 11 0C 80 70  ..........>....p
0960: 09 4E 00 87 80 11 01 AC  03 87 80 11 01 01 7C 09  .N............|.
0970: AC 02 87 80 11 01 4E 01  87 80 11 01 1B AC 02 89  ......N.........
0980: 80 11 01 29 08 89 80 11  01 04 1B AC 02 8A 80 11  ...)............
0990: 01 29 08 8A 80 11 01 04  1B AC 02 8B 80 11 01 29  .).............)
09A0: 08 8B 80 11 01 04 1B AC  02 8C 80 11 01 29 08 8C  .............)..
09B0: 80 11 01 04 1B AC 02 8D  80 11 01 29 08 8D 80 11  ...........)....
09C0: 01 04 1B AC 02 1C 80 11  01 3E 01 11 1D 80 DA 09  .........>......
09D0: 29 80 1C 80 11 01 02 01  E1 09 29 80 1C 80 11 01  ).........).....
09E0: 03 1B 03 01 10 06 80 43  00 43 01 03 0B 00 02 10  .......C.C......
09F0: 03 08 11 03 10 03 01 11  04 10 03 0A 11 05 10 03  ................
0A00: 0B 11 06 10 03 0C 11 07  10 03 01 10 21 80 43 00  ............!.C.
0A10: 43 01 03 02 11 02 10 03  03 11 03 10 03 04 11 04  C...............
0A20: 10 03 05 11 05 10 03 06  11 06 10 03 07 11 07 10  ................
0A30: 03 09 11 08 10 41 00 80  13 80 0B 00 0A 00 1A 2F  .....A........./
0A40: 0C 41 0C 80 0D 80 0B 00  0A 00 1A 37 0E 41 1A 80  .A.........7.A..
0A50: 21 80 0B 00 0A 00 1A C7  10 41 23 80 26 80 0B 00  !........A#.&...
0A60: 0A 00 1A 15 13 41 17 80  1B 80 0B 00 0A 00 1A 97  .....A..........
0A70: 0A 41 29 80 29 80 0B 00  0A 00 02 0A 00 00 80 00  .A).)...........
0A80: 8C 0A 3D 00 11 28 80 06  80 01 93 0A 3C 00 11 28  ..=..(......<..(
0A90: 80 06 80 1A B1 0A 1B 02  0A 00 13 80 04 A9 0A 3C  ...............<
0AA0: 01 11 1D 80 06 80 01 B0  0A 3D 01 11 1D 80 06 80  .........=......
0AB0: 1B 3E 08 11 1A 80 22 0B  41 1F 80 21 80 08 11 0A  .>....".A..!....
0AC0: 00 02 0A 00 06 80 80 DA  0A 3D 00 11 23 80 06 80  .........=..#...
0AD0: 3C 00 11 24 80 06 80 01  1F 0B 02 0A 00 0C 80 80  <..$............
0AE0: F3 0A 3C 00 11 23 80 06  80 3D 00 11 24 80 06 80  ..<..#...=..$...
0AF0: 01 1F 0B 13 0A 00 2A 80  02 0A 00 2B 80 03 11 0B  ......*....+....
0B00: 3D 00 11 23 80 06 80 3C  00 11 24 80 06 80 01 1F  =..#...<..$.....
0B10: 0B 3C 00 11 23 80 06 80  3D 00 11 24 80 06 80 01  .<..#...=..$....
0B20: 30 0B 3D 00 11 23 80 06  80 3D 00 11 24 80 06 80  0.=..#...=..$...
0B30: 3E 08 11 23 80 A1 0B 41  24 80 26 80 08 11 0A 00  >..#...A$.&.....
0B40: 02 0A 00 06 80 80 59 0B  3C 00 11 25 80 06 80 3D  ......Y.<..%...=
0B50: 00 11 26 80 06 80 01 9E  0B 02 0A 00 14 80 80 72  ..&............r
0B60: 0B 3D 00 11 25 80 06 80  3C 00 11 26 80 06 80 01  .=..%...<..&....
0B70: 9E 0B 13 0A 00 2A 80 02  0A 00 2B 80 03 90 0B 3C  .....*....+....<
0B80: 00 11 25 80 06 80 3D 00  11 26 80 06 80 01 9E 0B  ..%...=..&......
0B90: 3D 00 11 25 80 06 80 3C  00 11 26 80 06 80 01 AF  =..%...<..&.....
0BA0: 0B 3D 00 11 25 80 06 80  3D 00 11 26 80 06 80 3E  .=..%...=..&...>
0BB0: 08 11 27 80 20 0C 41 22  80 16 80 08 11 0A 00 02  ..'. .A"........
0BC0: 0A 00 13 80 80 D8 0B 3C  00 11 27 80 06 80 3D 00  .......<..'...=.
0BD0: 11 22 80 06 80 01 1D 0C  02 0A 00 09 80 80 F1 0B  ."..............
0BE0: 3D 00 11 27 80 06 80 3C  00 11 22 80 06 80 01 1D  =..'...<..".....
0BF0: 0C 13 0A 00 2A 80 02 0A  00 2B 80 03 0F 0C 3C 00  ....*....+....<.
0C00: 11 27 80 06 80 3D 00 11  22 80 06 80 01 1D 0C 3D  .'...=.."......=
0C10: 00 11 27 80 06 80 3C 00  11 22 80 06 80 01 2E 0C  ..'...<.."......
0C20: 3D 00 11 27 80 06 80 3D  00 11 22 80 06 80 1B 02  =..'...=..".....
0C30: 0A 00 00 80 80 64 0C 3D  00 11 00 80 06 80 3C 00  .....d.=......<.
0C40: 11 06 80 06 80 3C 00 11  09 80 06 80 3C 00 11 10  .....<......<...
0C50: 80 06 80 3D 00 11 11 80  06 80 3D 00 11 12 80 06  ...=......=.....
0C60: 80 01 36 0E 02 0A 00 06  80 80 99 0C 3D 00 11 00  ..6.........=...
0C70: 80 06 80 3C 00 11 06 80  06 80 3C 00 11 09 80 06  ...<......<.....
0C80: 80 3C 00 11 10 80 06 80  3D 00 11 11 80 06 80 3D  .<......=......=
0C90: 00 11 12 80 06 80 01 36  0E 02 0A 00 09 80 80 CE  .......6........
0CA0: 0C 3D 00 11 00 80 06 80  3C 00 11 06 80 06 80 3C  .=......<......<
0CB0: 00 11 09 80 06 80 3C 00  11 10 80 06 80 3D 00 11  ......<......=..
0CC0: 11 80 06 80 3D 00 11 12  80 06 80 01 36 0E 02 0A  ....=.......6...
0CD0: 00 13 80 80 03 0D 3D 00  11 00 80 06 80 3D 00 11  ......=......=..
0CE0: 06 80 06 80 3C 00 11 09  80 06 80 3C 00 11 10 80  ....<......<....
0CF0: 06 80 3C 00 11 11 80 06  80 3D 00 11 12 80 06 80  ..<......=......
0D00: 01 36 0E 02 0A 00 0C 80  80 38 0D 3D 00 11 00 80  .6.......8.=....
0D10: 06 80 3D 00 11 06 80 06  80 3C 00 11 09 80 06 80  ..=......<......
0D20: 3C 00 11 10 80 06 80 3C  00 11 11 80 06 80 3D 00  <......<......=.
0D30: 11 12 80 06 80 01 36 0E  02 0A 00 14 80 80 6D 0D  ......6.......m.
0D40: 3D 00 11 00 80 06 80 3D  00 11 06 80 06 80 3D 00  =......=......=.
0D50: 11 09 80 06 80 3C 00 11  10 80 06 80 3C 00 11 11  .....<......<...
0D60: 80 06 80 3C 00 11 12 80  06 80 01 36 0E 02 0A 00  ...<.......6....
0D70: 19 80 80 A2 0D 3D 00 11  00 80 06 80 3D 00 11 06  .....=......=...
0D80: 80 06 80 3D 00 11 09 80  06 80 3C 00 11 10 80 06  ...=......<.....
0D90: 80 3C 00 11 11 80 06 80  3C 00 11 12 80 06 80 01  .<......<.......
0DA0: 36 0E 02 0A 00 0D 80 80  D7 0D 3D 00 11 00 80 06  6.........=.....
0DB0: 80 3D 00 11 06 80 06 80  3D 00 11 09 80 06 80 3C  .=......=......<
0DC0: 00 11 10 80 06 80 3C 00  11 11 80 06 80 3C 00 11  ......<......<..
0DD0: 12 80 06 80 01 36 0E 02  0A 00 1A 80 80 0C 0E 3D  .....6.........=
0DE0: 00 11 00 80 06 80 3D 00  11 06 80 06 80 3D 00 11  ......=......=..
0DF0: 09 80 06 80 3C 00 11 10  80 06 80 3C 00 11 11 80  ....<......<....
0E00: 06 80 3C 00 11 12 80 06  80 01 36 0E 3D 00 11 00  ..<.......6.=...
0E10: 80 06 80 3C 00 11 06 80  06 80 3C 00 11 09 80 06  ...<......<.....
0E20: 80 3C 00 11 10 80 06 80  3D 00 11 11 80 06 80 3D  .<......=......=
0E30: 00 11 12 80 06 80 1B 02  0A 00 00 80 80 81 0E 3C  ...............<
0E40: 00 11 13 80 06 80 3C 00  11 0C 80 06 80 3C 00 11  ......<......<..
0E50: 14 80 06 80 3C 01 11 15  80 06 80 3C 01 11 16 80  ....<......<....
0E60: 06 80 3C 00 11 15 80 06  80 3D 00 11 16 80 06 80  ..<......=......
0E70: 3D 00 11 17 80 06 80 3D  00 11 18 80 06 80 01 C6  =......=........
0E80: 10 02 0A 00 06 80 80 CB  0E 3C 00 11 13 80 06 80  .........<......
0E90: 3C 00 11 0C 80 06 80 3C  00 11 14 80 06 80 3C 01  <......<......<.
0EA0: 11 15 80 06 80 3C 01 11  16 80 06 80 3C 00 11 15  .....<......<...
0EB0: 80 06 80 3D 00 11 16 80  06 80 3D 00 11 17 80 06  ...=......=.....
0EC0: 80 3D 00 11 18 80 06 80  01 C6 10 02 0A 00 09 80  .=..............
0ED0: 80 15 0F 3C 00 11 13 80  06 80 3C 00 11 0C 80 06  ...<......<.....
0EE0: 80 3C 00 11 14 80 06 80  3C 01 11 15 80 06 80 3C  .<......<......<
0EF0: 01 11 16 80 06 80 3C 00  11 15 80 06 80 3D 00 11  ......<......=..
0F00: 16 80 06 80 3D 00 11 17  80 06 80 3D 00 11 18 80  ....=......=....
0F10: 06 80 01 C6 10 02 0A 00  13 80 80 5F 0F 3D 00 11  ..........._.=..
0F20: 13 80 06 80 3C 00 11 0C  80 06 80 3C 00 11 14 80  ....<......<....
0F30: 06 80 3D 01 11 15 80 06  80 3C 01 11 16 80 06 80  ..=......<......
0F40: 3C 00 11 15 80 06 80 3C  00 11 16 80 06 80 3D 00  <......<......=.
0F50: 11 17 80 06 80 3D 00 11  18 80 06 80 01 C6 10 02  .....=..........
0F60: 0A 00 0C 80 80 A9 0F 3D  00 11 13 80 06 80 3C 00  .......=......<.
0F70: 11 0C 80 06 80 3C 00 11  14 80 06 80 3D 01 11 15  .....<......=...
0F80: 80 06 80 3C 01 11 16 80  06 80 3C 00 11 15 80 06  ...<......<.....
0F90: 80 3C 00 11 16 80 06 80  3D 00 11 17 80 06 80 3D  .<......=......=
0FA0: 00 11 18 80 06 80 01 C6  10 02 0A 00 14 80 80 F3  ................
0FB0: 0F 3D 00 11 13 80 06 80  3D 00 11 0C 80 06 80 3C  .=......=......<
0FC0: 00 11 14 80 06 80 3D 01  11 15 80 06 80 3D 01 11  ......=......=..
0FD0: 16 80 06 80 3C 00 11 15  80 06 80 3C 00 11 16 80  ....<......<....
0FE0: 06 80 3C 00 11 17 80 06  80 3D 00 11 18 80 06 80  ..<......=......
0FF0: 01 C6 10 02 0A 00 19 80  80 3D 10 3D 00 11 13 80  .........=.=....
1000: 06 80 3D 00 11 0C 80 06  80 3C 00 11 14 80 06 80  ..=......<......
1010: 3D 01 11 15 80 06 80 3D  01 11 16 80 06 80 3C 00  =......=......<.
1020: 11 15 80 06 80 3C 00 11  16 80 06 80 3C 00 11 17  .....<......<...
1030: 80 06 80 3D 00 11 18 80  06 80 01 C6 10 02 0A 00  ...=............
1040: 0D 80 80 87 10 3D 00 11  13 80 06 80 3D 00 11 0C  .....=......=...
1050: 80 06 80 3D 00 11 14 80  06 80 3D 01 11 15 80 06  ...=......=.....
1060: 80 3D 01 11 16 80 06 80  3C 00 11 15 80 06 80 3C  .=......<......<
1070: 00 11 16 80 06 80 3C 00  11 17 80 06 80 3C 00 11  ......<......<..
1080: 18 80 06 80 01 C6 10 3C  00 11 13 80 06 80 3C 00  .......<......<.
1090: 11 0C 80 06 80 3C 00 11  14 80 06 80 3C 01 11 15  .....<......<...
10A0: 80 06 80 3C 01 11 16 80  06 80 3C 00 11 15 80 06  ...<......<.....
10B0: 80 3D 00 11 16 80 06 80  3D 00 11 17 80 06 80 3D  .=......=......=
10C0: 00 11 18 80 06 80 1B 02  0A 00 00 80 80 03 11 3D  ...............=
10D0: 00 11 19 80 06 80 3D 00  11 0D 80 06 80 3D 00 11  ......=......=..
10E0: 1A 80 06 80 3C 00 11 1B  80 06 80 3D 00 11 1C 80  ....<......=....
10F0: 06 80 3D 00 11 1D 80 06  80 3D 00 11 1E 80 06 80  ..=......=......
1100: 01 14 13 02 0A 00 06 80  80 3F 11 3D 00 11 19 80  .........?.=....
1110: 06 80 3D 00 11 0D 80 06  80 3D 00 11 1A 80 06 80  ..=......=......
1120: 3C 00 11 1B 80 06 80 3D  00 11 1C 80 06 80 3D 00  <......=......=.
1130: 11 1D 80 06 80 3D 00 11  1E 80 06 80 01 14 13 02  .....=..........
1140: 0A 00 09 80 80 7B 11 3D  00 11 19 80 06 80 3D 00  .....{.=......=.
1150: 11 0D 80 06 80 3D 00 11  1A 80 06 80 3C 00 11 1B  .....=......<...
1160: 80 06 80 3D 00 11 1C 80  06 80 3D 00 11 1D 80 06  ...=......=.....
1170: 80 3D 00 11 1E 80 06 80  01 14 13 02 0A 00 13 80  .=..............
1180: 80 B7 11 3C 00 11 19 80  06 80 3D 00 11 0D 80 06  ...<......=.....
1190: 80 3D 00 11 1A 80 06 80  3C 00 11 1B 80 06 80 3C  .=......<......<
11A0: 00 11 1C 80 06 80 3D 00  11 1D 80 06 80 3D 00 11  ......=......=..
11B0: 1E 80 06 80 01 14 13 02  0A 00 0C 80 80 F3 11 3C  ...............<
11C0: 00 11 19 80 06 80 3D 00  11 0D 80 06 80 3D 00 11  ......=......=..
11D0: 1A 80 06 80 3C 00 11 1B  80 06 80 3C 00 11 1C 80  ....<......<....
11E0: 06 80 3D 00 11 1D 80 06  80 3D 00 11 1E 80 06 80  ..=......=......
11F0: 01 14 13 02 0A 00 14 80  80 2F 12 3C 00 11 19 80  ........./.<....
1200: 06 80 3C 00 11 0D 80 06  80 3D 00 11 1A 80 06 80  ..<......=......
1210: 3C 00 11 1B 80 06 80 3C  00 11 1C 80 06 80 3C 00  <......<......<.
1220: 11 1D 80 06 80 3D 00 11  1E 80 06 80 01 14 13 02  .....=..........
1230: 0A 00 19 80 80 6B 12 3C  00 11 19 80 06 80 3C 00  .....k.<......<.
1240: 11 0D 80 06 80 3D 00 11  1A 80 06 80 3C 00 11 1B  .....=......<...
1250: 80 06 80 3C 00 11 1C 80  06 80 3C 00 11 1D 80 06  ...<......<.....
1260: 80 3D 00 11 1E 80 06 80  01 14 13 02 0A 00 0D 80  .=..............
1270: 80 A7 12 3C 00 11 19 80  06 80 3C 00 11 0D 80 06  ...<......<.....
1280: 80 3C 00 11 1A 80 06 80  3C 00 11 1B 80 06 80 3C  .<......<......<
1290: 00 11 1C 80 06 80 3C 00  11 1D 80 06 80 3C 00 11  ......<......<..
12A0: 1E 80 06 80 01 14 13 02  0A 00 1A 80 80 E3 12 3C  ...............<
12B0: 00 11 19 80 06 80 3C 00  11 0D 80 06 80 3C 00 11  ......<......<..
12C0: 1A 80 06 80 3C 00 11 1B  80 06 80 3C 00 11 1C 80  ....<......<....
12D0: 06 80 3C 00 11 1D 80 06  80 3C 00 11 1E 80 06 80  ..<......<......
12E0: 01 14 13 3D 00 11 19 80  06 80 3D 00 11 0D 80 06  ...=......=.....
12F0: 80 3D 00 11 1A 80 06 80  3C 00 11 1B 80 06 80 3D  .=......<......=
1300: 00 11 1C 80 06 80 3D 00  11 1D 80 06 80 3D 00 11  ......=......=..
1310: 1E 80 06 80 1B 02 0A 00  00 80 80 58 13 3D 00 11  ...........X.=..
1320: 1F 80 06 80 3D 00 11 20  80 06 80 3D 00 11 21 80  ....=.. ...=..!.
1330: 06 80 3D 01 11 22 80 06  80 3C 01 11 17 80 06 80  ..=.."...<......
1340: 3D 01 11 18 80 06 80 3D  01 11 1B 80 06 80 3D 01  =......=......=.
1350: 11 1C 80 06 80 01 65 15  02 0A 00 06 80 80 9B 13  ......e.........
1360: 3D 00 11 1F 80 06 80 3D  00 11 20 80 06 80 3D 00  =......=.. ...=.
1370: 11 21 80 06 80 3D 01 11  22 80 06 80 3C 01 11 17  .!...=.."...<...
1380: 80 06 80 3D 01 11 18 80  06 80 3D 01 11 1B 80 06  ...=......=.....
1390: 80 3D 01 11 1C 80 06 80  01 65 15 02 0A 00 09 80  .=.......e......
13A0: 80 DE 13 3D 00 11 1F 80  06 80 3D 00 11 20 80 06  ...=......=.. ..
13B0: 80 3D 00 11 21 80 06 80  3D 01 11 22 80 06 80 3C  .=..!...=.."...<
13C0: 01 11 17 80 06 80 3D 01  11 18 80 06 80 3D 01 11  ......=......=..
13D0: 1B 80 06 80 3D 01 11 1C  80 06 80 01 65 15 02 0A  ....=.......e...
13E0: 00 13 80 80 21 14 3C 00  11 1F 80 06 80 3D 00 11  ....!.<......=..
13F0: 20 80 06 80 3D 00 11 21  80 06 80 3D 01 11 22 80   ...=..!...=..".
1400: 06 80 3D 01 11 17 80 06  80 3C 01 11 18 80 06 80  ..=......<......
1410: 3D 01 11 1B 80 06 80 3D  01 11 1C 80 06 80 01 65  =......=.......e
1420: 15 02 0A 00 0C 80 80 64  14 3C 00 11 1F 80 06 80  .......d.<......
1430: 3D 00 11 20 80 06 80 3D  00 11 21 80 06 80 3D 01  =.. ...=..!...=.
1440: 11 22 80 06 80 3D 01 11  17 80 06 80 3C 01 11 18  ."...=......<...
1450: 80 06 80 3D 01 11 1B 80  06 80 3D 01 11 1C 80 06  ...=......=.....
1460: 80 01 65 15 02 0A 00 14  80 80 A7 14 3C 00 11 1F  ..e.........<...
1470: 80 06 80 3C 00 11 20 80  06 80 3D 00 11 21 80 06  ...<.. ...=..!..
1480: 80 3D 01 11 22 80 06 80  3D 01 11 17 80 06 80 3D  .=.."...=......=
1490: 01 11 18 80 06 80 3C 01  11 1B 80 06 80 3D 01 11  ......<......=..
14A0: 1C 80 06 80 01 65 15 02  0A 00 19 80 80 EA 14 3C  .....e.........<
14B0: 00 11 1F 80 06 80 3C 00  11 20 80 06 80 3D 00 11  ......<.. ...=..
14C0: 21 80 06 80 3D 01 11 22  80 06 80 3D 01 11 17 80  !...=.."...=....
14D0: 06 80 3D 01 11 18 80 06  80 3C 01 11 1B 80 06 80  ..=......<......
14E0: 3D 01 11 1C 80 06 80 01  65 15 02 0A 00 0D 80 80  =.......e.......
14F0: 2D 15 3C 00 11 1F 80 06  80 3C 00 11 20 80 06 80  -.<......<.. ...
1500: 3C 00 11 21 80 06 80 3C  01 11 22 80 06 80 3D 01  <..!...<.."...=.
1510: 11 17 80 06 80 3D 01 11  18 80 06 80 3D 01 11 1B  .....=......=...
1520: 80 06 80 3C 01 11 1C 80  06 80 01 65 15 3D 00 11  ...<.......e.=..
1530: 1F 80 06 80 3D 00 11 20  80 06 80 3D 00 11 21 80  ....=.. ...=..!.
1540: 06 80 3D 01 11 22 80 06  80 3C 01 11 17 80 06 80  ..=.."...<......
1550: 3D 01 11 18 80 06 80 3D  01 11 1B 80 06 80 3D 01  =......=......=.
1560: 11 1C 80 06 80 1B 03 01  10 21 80 43 00 43 01 03  .........!.C.C..
1570: 02 11 02 10 03 03 11 03  10 03 04 11 04 10 03 05  ................
1580: 11 05 10 03 06 11 06 10  03 07 11 07 10 03 09 11  ................
1590: 08 10 1B 03 01 10 2C 80  47 00 2D 80 2E 80 2F 80  ......,.G.-.../.
15A0: 30 80 47 01 03 02 11 02  10 03 03 11 03 10 03 04  0.G.............
15B0: 11 04 10 03 05 11 05 10  03 06 11 06 10 03 07 11  ................
15C0: 07 10 03 09 11 08 10 1B  2F 00 37 80 11 01 2F 00  ......../.7.../.
15D0: 38 80 11 01 2F 00 39 80  11 01 2F 00 3A 80 11 01  8.../.9.../.:...
15E0: 2F 00 3B 80 11 01 2F 00  3C 80 11 01 2F 00 3D 80  /.;.../.<.../.=.
15F0: 11 01 2F 00 3E 80 11 01  2F 00 3F 80 11 01 2F 00  ../.>.../.?.../.
1600: 40 80 11 01 2F 00 41 80  11 01 2F 00 42 80 11 01  @.../.A.../.B...
1610: 2F 00 43 80 11 01 2F 00  44 80 11 01 2F 00 45 80  /.C.../.D.../.E.
1620: 11 01 2F 00 46 80 11 01  2F 00 47 80 11 01 2F 00  ../.F.../.G.../.
1630: 48 80 11 01 2F 00 49 80  11 01 2F 00 4A 80 11 01  H.../.I.../.J...
1640: 2F 00 4B 80 11 01 2F 00  4C 80 11 01 2F 00 4D 80  /.K.../.L.../.M.
1650: 11 01 2F 00 4E 80 11 01  AC 02 37 80 11 01 AC 02  ../.N.....7.....
1660: 38 80 11 01 AC 02 39 80  11 01 AC 02 3A 80 11 01  8.....9.....:...
1670: AC 02 3B 80 11 01 AC 02  3C 80 11 01 AC 02 3D 80  ..;.....<.....=.
1680: 11 01 AC 02 3E 80 11 01  AC 02 3F 80 11 01 AC 02  ....>.....?.....
1690: 40 80 11 01 AC 02 41 80  11 01 AC 02 42 80 11 01  @.....A.....B...
16A0: AC 02 43 80 11 01 AC 02  44 80 11 01 AC 02 45 80  ..C.....D.....E.
16B0: 11 01 AC 02 46 80 11 01  AC 02 47 80 11 01 AC 02  ....F.....G.....
16C0: 48 80 11 01 AC 02 49 80  11 01 AC 02 4A 80 11 01  H.....I.....J...
16D0: AC 02 4B 80 11 01 AC 02  4C 80 11 01 AC 02 4D 80  ..K.....L.....M.
16E0: 11 01 AC 02 4E 80 11 01  AC 02 0C 80 11 01 AC 02  ....N...........
16F0: 0D 80 11 01 AC 02 0E 80  11 01 41 00 80 06 80 02  ..........A.....
1700: 11 02 10 02 02 10 06 80  00 15 17 29 80 0C 80 11  ...........)....
1710: 01 03 01 1C 17 29 80 0C  80 11 01 02 41 00 80 06  .....)......A...
1720: 80 03 11 02 10 02 02 10  06 80 00 37 17 29 80 0D  ...........7.)..
1730: 80 11 01 03 01 3E 17 29  80 0D 80 11 01 02 41 00  .....>.)......A.
1740: 80 06 80 04 11 02 10 02  02 10 06 80 00 59 17 29  .............Y.)
1750: 80 0E 80 11 01 03 01 60  17 29 80 0E 80 11 01 02  .......`.)......
1760: 27 80 37 80 11 01 02 27  80 38 80 11 01 02 27 80  '.7....'.8....'.
1770: 39 80 11 01 02 29 80 3A  80 11 01 02 27 80 3B 80  9....).:....'.;.
1780: 11 01 02 27 80 3C 80 11  01 02 27 80 3D 80 11 01  ...'.<....'.=...
1790: 02 29 80 3E 80 11 01 02  27 80 3F 80 11 01 02 27  .).>....'.?....'
17A0: 80 40 80 11 01 02 27 80  41 80 11 01 02 29 80 42  .@....'.A....).B
17B0: 80 11 01 02 27 80 43 80  11 01 02 27 80 44 80 11  ....'.C....'.D..
17C0: 01 02 27 80 45 80 11 01  02 29 80 46 80 11 01 02  ..'.E....).F....
17D0: 27 80 47 80 11 01 02 27  80 48 80 11 01 02 27 80  '.G....'.H....'.
17E0: 49 80 11 01 02 29 80 4A  80 11 01 02 27 80 4B 80  I....).J....'.K.
17F0: 11 01 02 27 80 4C 80 11  01 02 27 80 4D 80 11 01  ...'.L....'.M...
1800: 02 29 80 4E 80 11 01 02  1B 42 45 31 80 F0 FF FF  .).N.....BE1....
1810: 7F F0 FF FF 7F 66 64 6F  30 00 80 55 31 80 F0 FF  .....fdo0..U1...
1820: FF 7F F0 FF FF 7F 66 64  6F 30 1A 93 15 1A A8 01  ......fdo0......
1830: 45 31 80 F0 FF FF 7F F0  FF FF 7F 66 64 69 30 00  E1.........fdi0.
1840: 80 55 31 80 F0 FF FF 7F  F0 FF FF 7F 66 64 69 30  .U1.........fdi0
1850: 1B 42 45 31 80 F0 FF FF  7F F0 FF FF 7F 66 64 6F  .BE1.........fdo
1860: 30 00 80 55 31 80 F0 FF  FF 7F F0 FF FF 7F 66 64  0..U1.........fd
1870: 6F 30 03 01 10 32 80 47  00 33 80 34 80 35 80 36  o0...2.G.3.4.5.6
1880: 80 47 01 02 02 10 00 80  00 A0 18 1A E2 09 1A 8B  .G..............
1890: 09 1A 99 09 1A A7 09 1A  B5 09 1A 47 08 01 A0 18  ...........G....
18A0: 45 31 80 F0 FF FF 7F F0  FF FF 7F 66 64 69 30 00  E1.........fdi0.
18B0: 80 55 31 80 F0 FF FF 7F  F0 FF FF 7F 66 64 69 30  .U1.........fdi0
18C0: 1B 1A 2A 19 02 0A 00 00  80 01 CD 18 1B 3C 00 11  ..*..........<..
18D0: 02 10 06 80 1A A8 01 1B  1A 2A 19 02 0A 00 00 80  .........*......
18E0: 01 E4 18 1B 3D 00 11 02  10 06 80 1A A8 01 1B 03  ....=...........
18F0: 0A 00 02 10 03 01 10 09  80 40 1A 80 29 80 01 10  .........@..)...
1900: 02 10 02 0B 00 00 80 00  14 19 3C 01 10 29 80 06  ..........<..)..
1910: 80 01 1B 19 3D 01 10 29  80 06 80 43 00 43 01 03  ....=..)...C.C..
1920: 00 11 02 10 03 0A 00 00  80 1B 02 02 10 00 80 03  ................
1930: 3B 19 03 0A 00 37 80 1B  01 51 19 02 02 10 29 80  ;....7...Q....).
1940: 02 4C 19 03 0A 00 37 80  1B 01 51 19 03 0A 00 00  .L....7...Q.....
1950: 80 1B 02 10 03 10 04 10  05 10 06 10 07 10 08 10  ................
1960: 09 10 00 17 01 17 02 17  03 17 04 17 05 17 06 17  ................
1970: 07 17 08 17 09 17 0A 17  0B 17 0C 17 0D 17 0E 17  ................
1980: 0F 17 10 17 11 17 12 17  13 17 14 17 15 17 16 17  ................
1990: 17 17 18 17 19 17 1A 17  1B 17 1C 17 1D 17 1E 17  ................
19A0: 1F 17 00 80 00 80 00 80  00 80 00 80 00 80 00 80  ................
19B0: 00 80                                             ..              
```

#### Opcodes

```
  0: 0x0008 [0x01] GOTO 0x0199

SUBROUTINE_0199:
  1: 0x0199 [0x42] SET_CLI_EVENT_CANCEL_DATA()
  2: 0x019A [0x40] SET_BIT_WORK_RANGE(start_bit=4*, end_bit=7*, target=Work_Zone_Memorize[8], source=Work_Zone[2])
  3: 0x01A3 [0x1A] CALL_SUBROUTINE(address=0x04E7)
  4: 0x01A6 [0x21] END_EVENT
  5: 0x01A7 [0x00] END_REQSTACK()

SUBROUTINE_04E7:
  6: 0x04E7 [0xAC] Mineral Vein (ID: 17924139/0x0111802B)->Render.Flags6 |= 0x02 // Set bit 1
  7: 0x04ED [0xAC] Mineral Vein (ID: 17924140/0x0111802C)->Render.Flags6 |= 0x02 // Set bit 1
  8: 0x04F3 [0x3E] IF !(Work_Zone_Memorize[0] bit 22*) GOTO 0x051F
  9: 0x04FA [0x3E] IF !(Work_Zone_Memorize[8] bit 4*) GOTO 0x0510
 10: 0x0501 [0x4E] SET_ENTITY_HIDE_FLAG: Show Mineral Vein (ID: 17924140/0x0111802C)
 11: 0x0507 [0x4E] SET_ENTITY_HIDE_FLAG: Hide Mineral Vein (ID: 17924139/0x0111802B)
 12: 0x050D [0x01] GOTO 0x051C
 13: 0x0510 [0x4E] SET_ENTITY_HIDE_FLAG: Show Mineral Vein (ID: 17924139/0x0111802B)
 14: 0x0516 [0x4E] SET_ENTITY_HIDE_FLAG: Hide Mineral Vein (ID: 17924140/0x0111802C)

SUBROUTINE_051C:
 15: 0x051C [0x01] GOTO 0x052B
 16: 0x051F [0x4E] SET_ENTITY_HIDE_FLAG: Hide Mineral Vein (ID: 17924139/0x0111802B)
 17: 0x0525 [0x4E] SET_ENTITY_HIDE_FLAG: Hide Mineral Vein (ID: 17924140/0x0111802C)

SUBROUTINE_052B:
 18: 0x052B [0xAC] Mineral Vein #2 (ID: 17924141/0x0111802D)->Render.Flags6 |= 0x02 // Set bit 1
 19: 0x0531 [0xAC] Mineral Vein #2 (ID: 17924142/0x0111802E)->Render.Flags6 |= 0x02 // Set bit 1
 20: 0x0537 [0x3E] IF !(Work_Zone_Memorize[0] bit 23*) GOTO 0x0563
 21: 0x053E [0x3E] IF !(Work_Zone_Memorize[8] bit 5*) GOTO 0x0554
 22: 0x0545 [0x4E] SET_ENTITY_HIDE_FLAG: Show Mineral Vein #2 (ID: 17924142/0x0111802E)
 23: 0x054B [0x4E] SET_ENTITY_HIDE_FLAG: Hide Mineral Vein #2 (ID: 17924141/0x0111802D)
 24: 0x0551 [0x01] GOTO 0x0560
 25: 0x0554 [0x4E] SET_ENTITY_HIDE_FLAG: Show Mineral Vein #2 (ID: 17924141/0x0111802D)
 26: 0x055A [0x4E] SET_ENTITY_HIDE_FLAG: Hide Mineral Vein #2 (ID: 17924142/0x0111802E)

SUBROUTINE_0560:
 27: 0x0560 [0x01] GOTO 0x056F
 28: 0x0563 [0x4E] SET_ENTITY_HIDE_FLAG: Hide Mineral Vein #2 (ID: 17924141/0x0111802D)
 29: 0x0569 [0x4E] SET_ENTITY_HIDE_FLAG: Hide Mineral Vein #2 (ID: 17924142/0x0111802E)

SUBROUTINE_056F:
 30: 0x056F [0xAC] Mineral Vein #3 (ID: 17924143/0x0111802F)->Render.Flags6 |= 0x02 // Set bit 1
 31: 0x0575 [0xAC] Mineral Vein #3 (ID: 17924144/0x01118030)->Render.Flags6 |= 0x02 // Set bit 1
 32: 0x057B [0x3E] IF !(Work_Zone_Memorize[0] bit 24*) GOTO 0x05A7
 33: 0x0582 [0x3E] IF !(Work_Zone_Memorize[8] bit 6*) GOTO 0x0598
 34: 0x0589 [0x4E] SET_ENTITY_HIDE_FLAG: Show Mineral Vein #3 (ID: 17924144/0x01118030)
 35: 0x058F [0x4E] SET_ENTITY_HIDE_FLAG: Hide Mineral Vein #3 (ID: 17924143/0x0111802F)
 36: 0x0595 [0x01] GOTO 0x05A4
 37: 0x0598 [0x4E] SET_ENTITY_HIDE_FLAG: Show Mineral Vein #3 (ID: 17924143/0x0111802F)
 38: 0x059E [0x4E] SET_ENTITY_HIDE_FLAG: Hide Mineral Vein #3 (ID: 17924144/0x01118030)

SUBROUTINE_05A4:
 39: 0x05A4 [0x01] GOTO 0x05B3
 40: 0x05A7 [0x4E] SET_ENTITY_HIDE_FLAG: Hide Mineral Vein #3 (ID: 17924143/0x0111802F)
 41: 0x05AD [0x4E] SET_ENTITY_HIDE_FLAG: Hide Mineral Vein #3 (ID: 17924144/0x01118030)

SUBROUTINE_05B3:
 42: 0x05B3 [0xAC] Mineral Vein #4 (ID: 17924145/0x01118031)->Render.Flags6 |= 0x02 // Set bit 1
 43: 0x05B9 [0xAC] Mineral Vein #4 (ID: 17924146/0x01118032)->Render.Flags6 |= 0x02 // Set bit 1
 44: 0x05BF [0x3E] IF !(Work_Zone_Memorize[0] bit 25*) GOTO 0x05EB
 45: 0x05C6 [0x3E] IF !(Work_Zone_Memorize[8] bit 7*) GOTO 0x05DC
 46: 0x05CD [0x4E] SET_ENTITY_HIDE_FLAG: Show Mineral Vein #4 (ID: 17924146/0x01118032)
 47: 0x05D3 [0x4E] SET_ENTITY_HIDE_FLAG: Hide Mineral Vein #4 (ID: 17924145/0x01118031)
 48: 0x05D9 [0x01] GOTO 0x05E8
 49: 0x05DC [0x4E] SET_ENTITY_HIDE_FLAG: Show Mineral Vein #4 (ID: 17924145/0x01118031)
 50: 0x05E2 [0x4E] SET_ENTITY_HIDE_FLAG: Hide Mineral Vein #4 (ID: 17924146/0x01118032)

SUBROUTINE_05E8:
 51: 0x05E8 [0x01] GOTO 0x05F7
 52: 0x05EB [0x4E] SET_ENTITY_HIDE_FLAG: Hide Mineral Vein #4 (ID: 17924145/0x01118031)
 53: 0x05F1 [0x4E] SET_ENTITY_HIDE_FLAG: Hide Mineral Vein #4 (ID: 17924146/0x01118032)

SUBROUTINE_05F7:
 54: 0x05F7 [0x1C] WAIT(1* ticks)
 55: 0x05FA [0x1B] RETURN
```

#### Data or dead code:

```
# Dead code (unreachable instructions):
     0x000B [0x03] ExtData[1]->WorkLocal[2] = Work_Zone[2]
     0x0010 [0x03] ExtData[1]->WorkLocal[6] = Work_Zone[3]
     0x0015 [0x02] IF !(Work_Zone[2] == 0*) GOTO 0x002E
     0x001D [0x03] Work_Zone[2] = Work_Zone[3]
     0x0022 [0x48] [System] [7387*]:
    → "You cannot pour $0 on a mineral vein."
     0x0025 [0x23] WAIT_FOR_DIALOG_INTERACTION
     0x0026 [0x03] Work_Zone[1] = 1073741824*
     0x002B [0x01] GOTO 0x0079
     0x002E [0x02] IF !(Work_Zone[3] == 0*) GOTO 0x006F
     0x0036 [0x03] Work_Zone[2] = ExtData[1]->WorkLocal[6]
     0x003B [0x48] [System] [7384*]:
    → "Using this new serum will overpower the effects of the $0 you already poured."
     0x003E [0x23] WAIT_FOR_DIALOG_INTERACTION
     0x003F [0x03] Work_Zone[2] = ExtData[1]->WorkLocal[2]
     0x0044 [0x24] CREATE_DIALOG(message_id=7385*, default_option=0*, option_flags=0*)
    → "Use $0? [Yes./No.]"
     0x004B [0x25] WAIT_DIALOG_SELECT()
     0x004C [0x02] IF !(Work_Zone[0] == 0*) GOTO 0x005C
     0x0054 [0x42] SET_CLI_EVENT_CANCEL_DATA()
     0x0055 [0x48] [System] [7386*]:
    → "You poured $0 on the vein."
     0x0058 [0x23] WAIT_FOR_DIALOG_INTERACTION
     0x0059 [0x01] GOTO 0x006C
     0x005C [0x02] IF !(Work_Zone[0] == 1*) GOTO 0x006C
     0x0064 [0x03] Work_Zone[1] = 1073741824*
     0x0069 [0x01] GOTO 0x006C
     0x006C [0x01] GOTO 0x0079
     0x006F [0x42] SET_CLI_EVENT_CANCEL_DATA()
     0x0070 [0x48] [System] [7386*]:
    → "You poured $0 on the vein."
     0x0073 [0x23] WAIT_FOR_DIALOG_INTERACTION
     0x0074 [0x03] Work_Zone[1] = 0*
     0x0079 [0x21] END_EVENT
     0x007A [0x00] END_REQSTACK()
     0x007B [0x03] ExtData[1]->WorkLocal[0] = Work_Zone[2]
     0x0080 [0x03] ExtData[1]->WorkLocal[2] = Work_Zone[3]
     0x0085 [0x03] ExtData[1]->WorkLocal[1] = Work_Zone[4]
     0x008A [0x03] ExtData[1]->WorkLocal[3] = Work_Zone[9]
     0x008F [0x4A] LocalPlayer looks at EventEntity
     0x0098 [0x48] [System] [7379*]:
    → "This mineral vein is rank $0. It seems possible to obtain something from it $2 more time[/s]."
     0x009B [0x23] WAIT_FOR_DIALOG_INTERACTION
     0x009C [0x02] IF !(ExtData[1]->WorkLocal[2] <= 0*) GOTO 0x00A8
     0x00A4 [0x48] [System] [7380*]:
    → "This vein has $1 poured on it."
     0x00A7 [0x23] WAIT_FOR_DIALOG_INTERACTION
     0x00A8 [0x02] IF !(ExtData[1]->WorkLocal[1] <= 1*) GOTO 0x00BD
     0x00B0 [0x03] ExtData[1]->WorkLocal[4] = 0*
     0x00B5 [0x03] ExtData[1]->WorkLocal[9] = 1*
     0x00BA [0x01] GOTO 0x00C7
     0x00BD [0x03] ExtData[1]->WorkLocal[4] = 2*
     0x00C2 [0x03] ExtData[1]->WorkLocal[9] = 0*
     0x00C7 [0x24] CREATE_DIALOG(message_id=7381*, default_option=ExtData[1]->WorkLocal[9], option_flags=ExtData[1]->WorkLocal[4])
    → "What will you do? [Mine it./Multiple excavations./Nothing.]"
     0x00CE [0x25] WAIT_DIALOG_SELECT()
     0x00CF [0x02] IF !(Work_Zone[0] == 0*) GOTO 0x0104
     0x00D7 [0x42] SET_CLI_EVENT_CANCEL_DATA()
     0x00D8 [0x6E] LocalPlayer uses emote 41*
     0x00DF [0x99] Wait for LocalPlayer animation to complete
     0x00E4 [0x03] Work_Zone[1] = 1*
     0x00E9 [0x43] SEND_EVENT_UPDATE: Send pending tag to server (packet 0x005B)
     0x00EB [0x43] SEND_EVENT_UPDATE: Check pending flag (skip if not pending)
     0x00ED [0x02] IF !(Work_Zone[3] == 1*) GOTO 0x00FE
     0x00F5 [0x40] SET_BIT_WORK_RANGE(start_bit=4*, end_bit=7*, target=Work_Zone_Memorize[8], source=Work_Zone[2])
     0x00FE [0x1A] CALL_SUBROUTINE(address=0x04E7)
     0x0101 [0x01] GOTO 0x0197
     0x0104 [0x02] IF !(Work_Zone[0] == 1*) GOTO 0x0187
     0x010C [0x42] SET_CLI_EVENT_CANCEL_DATA()
     0x010D [0x06] ExtData[1]->WorkLocal[7] = 0
     0x0110 [0x06] ExtData[1]->WorkLocal[8] = 0
     0x0113 [0x6E] LocalPlayer uses emote 41*
     0x011A [0x99] Wait for LocalPlayer animation to complete
     0x011F [0x02] IF !(ExtData[1]->WorkLocal[7] == 0*) GOTO 0x016B
     0x0127 [0x03] Work_Zone[1] = 1*
     0x012C [0x43] SEND_EVENT_UPDATE: Send pending tag to server (packet 0x005B)
     0x012E [0x43] SEND_EVENT_UPDATE: Check pending flag (skip if not pending)
     0x0130 [0x02] IF !(Work_Zone[6] == 0*) GOTO 0x013B
     0x0138 [0x05] ExtData[1]->WorkLocal[7] = 1
     0x013B [0x02] IF !(Work_Zone[5] == 0*) GOTO 0x0146
     0x0143 [0x05] ExtData[1]->WorkLocal[7] = 1
     0x0146 [0x02] IF !(Work_Zone[4] == 0*) GOTO 0x0151
     0x014E [0x05] ExtData[1]->WorkLocal[7] = 1
     0x0151 [0x02] IF !(Work_Zone[3] == 1*) GOTO 0x0165
     0x0159 [0x40] SET_BIT_WORK_RANGE(start_bit=4*, end_bit=7*, target=Work_Zone_Memorize[8], source=Work_Zone[2])
     0x0162 [0x05] ExtData[1]->WorkLocal[7] = 1
     0x0165 [0x0B] ExtData[1]->WorkLocal[8]++
     0x0168 [0x01] GOTO 0x011F
     0x016B [0x03] Work_Zone[2] = ExtData[1]->WorkLocal[8]
     0x0170 [0x02] IF !(Work_Zone[5] == 0*) GOTO 0x017E
     0x0178 [0x48] [System] [7539*]:
    → "You have successfully performed that action $0 time[/s], and may no longer do so again."
     0x017B [0x01] GOTO 0x0181
     0x017E [0x48] [System] [7538*]:
    → "You have successfully performed that action $0 time[/s], and may do so again $3 more time[/s]."
     0x0181 [0x1A] CALL_SUBROUTINE(address=0x04E7)
     0x0184 [0x01] GOTO 0x0197
     0x0187 [0x02] IF !(Work_Zone[0] == 2*) GOTO 0x0197
     0x018F [0x03] Work_Zone[1] = 1073741824*
     0x0194 [0x01] GOTO 0x0197
     0x0197 [0x21] END_EVENT
     0x0198 [0x00] END_REQSTACK()
# Dead code (unreachable instructions):
     0x01A8 [0x92] Green Thumb Moogle (ID: 17924125/0x0111801D)->Render.Flags3 = Flags3  // No change (flag=0)
     0x01AE [0x1A] CALL_SUBROUTINE(address=0x09E2)
     0x01B1 [0x1A] CALL_SUBROUTINE(address=0x021F)
     0x01B4 [0x1A] CALL_SUBROUTINE(address=0x02E3)
     0x01B7 [0x1A] CALL_SUBROUTINE(address=0x048D)
     0x01BA [0x1A] CALL_SUBROUTINE(address=0x06BA)
     0x01BD [0x1A] CALL_SUBROUTINE(address=0x15C8)
     0x01C0 [0x1A] CALL_SUBROUTINE(address=0x06C8)
     0x01C3 [0x1A] CALL_SUBROUTINE(address=0x07A4)
     0x01C6 [0x1A] CALL_SUBROUTINE(address=0x07DB)
     0x01C9 [0x1A] CALL_SUBROUTINE(address=0x07FE)
     0x01CC [0x1A] CALL_SUBROUTINE(address=0x082A)
     0x01CF [0x1A] CALL_SUBROUTINE(address=0x08CA)
     0x01D2 [0x1A] CALL_SUBROUTINE(address=0x0954)
     0x01D5 [0x1A] CALL_SUBROUTINE(address=0x097D)
     0x01D8 [0x1A] CALL_SUBROUTINE(address=0x09C3)
     0x01DB [0x1A] CALL_SUBROUTINE(address=0x05FB)
     0x01DE [0xAC] Coastal Fishing Net (ID: 17924149/0x01118035)->Render.Flags6 |= 0x02 // Set bit 1
     0x01E4 [0x1B] RETURN
     0x01E5 [0x92] Green Thumb Moogle (ID: 17924125/0x0111801D)->Render.Flags3 = Flags3  // No change (flag=0)
     0x01EB [0x1A] CALL_SUBROUTINE(address=0x021F)
     0x01EE [0x1A] CALL_SUBROUTINE(address=0x02E3)
     0x01F1 [0x1A] CALL_SUBROUTINE(address=0x048D)
     0x01F4 [0x1A] CALL_SUBROUTINE(address=0x06BA)
     0x01F7 [0x1A] CALL_SUBROUTINE(address=0x15C8)
     0x01FA [0x1A] CALL_SUBROUTINE(address=0x06C8)
     0x01FD [0x1A] CALL_SUBROUTINE(address=0x07A4)
     0x0200 [0x1A] CALL_SUBROUTINE(address=0x07DB)
     0x0203 [0x1A] CALL_SUBROUTINE(address=0x07FE)
     0x0206 [0x1A] CALL_SUBROUTINE(address=0x082A)
     0x0209 [0x1A] CALL_SUBROUTINE(address=0x08CA)
     0x020C [0x1A] CALL_SUBROUTINE(address=0x0954)
     0x020F [0x1A] CALL_SUBROUTINE(address=0x097D)
     0x0212 [0x1A] CALL_SUBROUTINE(address=0x09C3)
     0x0215 [0x1A] CALL_SUBROUTINE(address=0x05FB)
     0x0218 [0xAC] Coastal Fishing Net (ID: 17924149/0x01118035)->Render.Flags6 |= 0x02 // Set bit 1
     0x021E [0x1B] RETURN
     0x021F [0xAC] Unknown NPC (ID: 17924105/0x01118009)->Render.Flags6 |= 0x02 // Set bit 1
     0x0225 [0x3E] IF !(Work_Zone_Memorize[0] bit 0*) GOTO 0x0236
     0x022C [0x27] REQ_SET(priority=0x80, entity_id=Unknown NPC (ID: 17924105/0x01118009), tag_num=0x02)
     0x0233 [0x01] GOTO 0x023D
     0x0236 [0x27] REQ_SET(priority=0x80, entity_id=Unknown NPC (ID: 17924105/0x01118009), tag_num=0x03)
     0x023D [0xAC] Unknown NPC (ID: 17924106/0x0111800A)->Render.Flags6 |= 0x02 // Set bit 1
     0x0243 [0x3E] IF !(Work_Zone_Memorize[0] bit 1*) GOTO 0x0254
     0x024A [0x27] REQ_SET(priority=0x80, entity_id=Unknown NPC (ID: 17924106/0x0111800A), tag_num=0x02)
     0x0251 [0x01] GOTO 0x025B
     0x0254 [0x27] REQ_SET(priority=0x80, entity_id=Unknown NPC (ID: 17924106/0x0111800A), tag_num=0x03)
     0x025B [0xAC] Unknown NPC (ID: 17924107/0x0111800B)->Render.Flags6 |= 0x02 // Set bit 1
     0x0261 [0x3E] IF !(Work_Zone_Memorize[0] bit 2*) GOTO 0x0272
     0x0268 [0x29] REQ_SET_WAIT(priority=0x80, entity_id=Unknown NPC (ID: 17924107/0x0111800B), tag_num=0x02)
     0x026F [0x01] GOTO 0x0279
     0x0272 [0x29] REQ_SET_WAIT(priority=0x80, entity_id=Unknown NPC (ID: 17924107/0x0111800B), tag_num=0x03)
     0x0279 [0x92] Garden Furrow (ID: 17924128/0x01118020)->Render.Flags3 ^= 0x01
     0x027F [0x92] Garden Furrow #2 (ID: 17924129/0x01118021)->Render.Flags3 ^= 0x01
     0x0285 [0x92] Garden Furrow #3 (ID: 17924130/0x01118022)->Render.Flags3 ^= 0x01
     0x028B [0xAC] Garden Furrow (ID: 17924128/0x01118020)->Render.Flags6 |= 0x02 // Set bit 1
     0x0291 [0x3E] IF !(Work_Zone_Memorize[0] bit 26*) GOTO 0x02A1
     0x0298 [0x4E] SET_ENTITY_HIDE_FLAG: Show Garden Furrow (ID: 17924128/0x01118020)
     0x029E [0x01] GOTO 0x02A7
     0x02A1 [0x4E] SET_ENTITY_HIDE_FLAG: Hide Garden Furrow (ID: 17924128/0x01118020)
     0x02A7 [0xAC] Garden Furrow #2 (ID: 17924129/0x01118021)->Render.Flags6 |= 0x02 // Set bit 1
     0x02AD [0x3E] IF !(Work_Zone_Memorize[0] bit 27*) GOTO 0x02BD
     0x02B4 [0x4E] SET_ENTITY_HIDE_FLAG: Show Garden Furrow #2 (ID: 17924129/0x01118021)
     0x02BA [0x01] GOTO 0x02C3
     0x02BD [0x4E] SET_ENTITY_HIDE_FLAG: Hide Garden Furrow #2 (ID: 17924129/0x01118021)
     0x02C3 [0xAC] Garden Furrow #3 (ID: 17924130/0x01118022)->Render.Flags6 |= 0x02 // Set bit 1
     0x02C9 [0x3E] IF !(Work_Zone_Memorize[0] bit 28*) GOTO 0x02D9
     0x02D0 [0x4E] SET_ENTITY_HIDE_FLAG: Show Garden Furrow #3 (ID: 17924130/0x01118022)
     0x02D6 [0x01] GOTO 0x02DF
     0x02D9 [0x4E] SET_ENTITY_HIDE_FLAG: Hide Garden Furrow #3 (ID: 17924130/0x01118022)
     0x02DF [0x1C] WAIT(1* ticks)
     0x02E2 [0x1B] RETURN
     0x02E3 [0xAC] Unknown NPC (ID: 17924111/0x0111800F)->Render.Flags6 |= 0x02 // Set bit 1
     0x02E9 [0x3E] IF !(Work_Zone_Memorize[0] bit 3*) GOTO 0x02FA
     0x02F0 [0x27] REQ_SET(priority=0x80, entity_id=Unknown NPC (ID: 17924111/0x0111800F), tag_num=0x02)
     0x02F7 [0x01] GOTO 0x0301
     0x02FA [0x27] REQ_SET(priority=0x80, entity_id=Unknown NPC (ID: 17924111/0x0111800F), tag_num=0x03)
     0x0301 [0xAC] Unknown NPC (ID: 17924112/0x01118010)->Render.Flags6 |= 0x02 // Set bit 1
     0x0307 [0x3E] IF !(Work_Zone_Memorize[0] bit 4*) GOTO 0x0318
     0x030E [0x27] REQ_SET(priority=0x80, entity_id=Unknown NPC (ID: 17924112/0x01118010), tag_num=0x02)
     0x0315 [0x01] GOTO 0x031F
     0x0318 [0x27] REQ_SET(priority=0x80, entity_id=Unknown NPC (ID: 17924112/0x01118010), tag_num=0x03)
     0x031F [0xAC] Unknown NPC (ID: 17924113/0x01118011)->Render.Flags6 |= 0x02 // Set bit 1
     0x0325 [0x3E] IF !(Work_Zone_Memorize[0] bit 5*) GOTO 0x0336
     0x032C [0x29] REQ_SET_WAIT(priority=0x80, entity_id=Unknown NPC (ID: 17924113/0x01118011), tag_num=0x02)
     0x0333 [0x01] GOTO 0x033D
     0x0336 [0x29] REQ_SET_WAIT(priority=0x80, entity_id=Unknown NPC (ID: 17924113/0x01118011), tag_num=0x03)
     0x033D [0xAC] Unknown NPC (ID: 17924122/0x0111801A)->Render.Flags6 |= 0x02 // Set bit 1
     0x0343 [0x3E] IF !(Work_Zone_Memorize[1] bit 18*) GOTO 0x0354
     0x034A [0x27] REQ_SET(priority=0x80, entity_id=Unknown NPC (ID: 17924122/0x0111801A), tag_num=0x02)
     0x0351 [0x01] GOTO 0x035B
     0x0354 [0x27] REQ_SET(priority=0x80, entity_id=Unknown NPC (ID: 17924122/0x0111801A), tag_num=0x03)
     0x035B [0xAC] Unknown NPC (ID: 17924123/0x0111801B)->Render.Flags6 |= 0x02 // Set bit 1
     0x0361 [0x3E] IF !(Work_Zone_Memorize[1] bit 19*) GOTO 0x0372
     0x0368 [0x29] REQ_SET_WAIT(priority=0x80, entity_id=Unknown NPC (ID: 17924123/0x0111801B), tag_num=0x02)
     0x036F [0x01] GOTO 0x0379
     0x0372 [0x29] REQ_SET_WAIT(priority=0x80, entity_id=Unknown NPC (ID: 17924123/0x0111801B), tag_num=0x03)
     0x0379 [0xAC] Arboreal Grove (ID: 17924131/0x01118023)->Render.Flags6 |= 0x02 // Set bit 1
     0x037F [0xAC] Arboreal Grove (ID: 17924132/0x01118024)->Render.Flags6 |= 0x02 // Set bit 1
     0x0385 [0x3E] IF !(Work_Zone_Memorize[0] bit 18*) GOTO 0x03B1
     0x038C [0x3E] IF !(Work_Zone_Memorize[8] bit 0*) GOTO 0x03A2
     0x0393 [0x4E] SET_ENTITY_HIDE_FLAG: Show Arboreal Grove (ID: 17924132/0x01118024)
     0x0399 [0x4E] SET_ENTITY_HIDE_FLAG: Hide Arboreal Grove (ID: 17924131/0x01118023)
     0x039F [0x01] GOTO 0x03AE
     0x03A2 [0x4E] SET_ENTITY_HIDE_FLAG: Show Arboreal Grove (ID: 17924131/0x01118023)
     0x03A8 [0x4E] SET_ENTITY_HIDE_FLAG: Hide Arboreal Grove (ID: 17924132/0x01118024)
     0x03AE [0x01] GOTO 0x03BD
     0x03B1 [0x4E] SET_ENTITY_HIDE_FLAG: Hide Arboreal Grove (ID: 17924131/0x01118023)
     0x03B7 [0x4E] SET_ENTITY_HIDE_FLAG: Hide Arboreal Grove (ID: 17924132/0x01118024)
     0x03BD [0xAC] Arboreal Grove #2 (ID: 17924133/0x01118025)->Render.Flags6 |= 0x02 // Set bit 1
     0x03C3 [0xAC] Arboreal Grove #2 (ID: 17924134/0x01118026)->Render.Flags6 |= 0x02 // Set bit 1
     0x03C9 [0x3E] IF !(Work_Zone_Memorize[0] bit 19*) GOTO 0x03F5
     0x03D0 [0x3E] IF !(Work_Zone_Memorize[8] bit 1*) GOTO 0x03E6
     0x03D7 [0x4E] SET_ENTITY_HIDE_FLAG: Show Arboreal Grove #2 (ID: 17924134/0x01118026)
     0x03DD [0x4E] SET_ENTITY_HIDE_FLAG: Hide Arboreal Grove #2 (ID: 17924133/0x01118025)
     0x03E3 [0x01] GOTO 0x03F2
     0x03E6 [0x4E] SET_ENTITY_HIDE_FLAG: Show Arboreal Grove #2 (ID: 17924133/0x01118025)
     0x03EC [0x4E] SET_ENTITY_HIDE_FLAG: Hide Arboreal Grove #2 (ID: 17924134/0x01118026)
     0x03F2 [0x01] GOTO 0x0401
     0x03F5 [0x4E] SET_ENTITY_HIDE_FLAG: Hide Arboreal Grove #2 (ID: 17924133/0x01118025)
     0x03FB [0x4E] SET_ENTITY_HIDE_FLAG: Hide Arboreal Grove #2 (ID: 17924134/0x01118026)
     0x0401 [0xAC] Arboreal Grove #3 (ID: 17924135/0x01118027)->Render.Flags6 |= 0x02 // Set bit 1
     0x0407 [0xAC] Arboreal Grove #3 (ID: 17924136/0x01118028)->Render.Flags6 |= 0x02 // Set bit 1
     0x040D [0x3E] IF !(Work_Zone_Memorize[0] bit 20*) GOTO 0x0439
     0x0414 [0x3E] IF !(Work_Zone_Memorize[8] bit 2*) GOTO 0x042A
     0x041B [0x4E] SET_ENTITY_HIDE_FLAG: Show Arboreal Grove #3 (ID: 17924136/0x01118028)
     0x0421 [0x4E] SET_ENTITY_HIDE_FLAG: Hide Arboreal Grove #3 (ID: 17924135/0x01118027)
     0x0427 [0x01] GOTO 0x0436
     0x042A [0x4E] SET_ENTITY_HIDE_FLAG: Show Arboreal Grove #3 (ID: 17924135/0x01118027)
     0x0430 [0x4E] SET_ENTITY_HIDE_FLAG: Hide Arboreal Grove #3 (ID: 17924136/0x01118028)
     0x0436 [0x01] GOTO 0x0445
     0x0439 [0x4E] SET_ENTITY_HIDE_FLAG: Hide Arboreal Grove #3 (ID: 17924135/0x01118027)
     0x043F [0x4E] SET_ENTITY_HIDE_FLAG: Hide Arboreal Grove #3 (ID: 17924136/0x01118028)
     0x0445 [0xAC] Arboreal Grove #4 (ID: 17924137/0x01118029)->Render.Flags6 |= 0x02 // Set bit 1
     0x044B [0xAC] Arboreal Grove #4 (ID: 17924138/0x0111802A)->Render.Flags6 |= 0x02 // Set bit 1
     0x0451 [0x3E] IF !(Work_Zone_Memorize[0] bit 21*) GOTO 0x047D
     0x0458 [0x3E] IF !(Work_Zone_Memorize[8] bit 3*) GOTO 0x046E
     0x045F [0x4E] SET_ENTITY_HIDE_FLAG: Show Arboreal Grove #4 (ID: 17924138/0x0111802A)
     0x0465 [0x4E] SET_ENTITY_HIDE_FLAG: Hide Arboreal Grove #4 (ID: 17924137/0x01118029)
     0x046B [0x01] GOTO 0x047A
     0x046E [0x4E] SET_ENTITY_HIDE_FLAG: Show Arboreal Grove #4 (ID: 17924137/0x01118029)
     0x0474 [0x4E] SET_ENTITY_HIDE_FLAG: Hide Arboreal Grove #4 (ID: 17924138/0x0111802A)
     0x047A [0x01] GOTO 0x0489
     0x047D [0x4E] SET_ENTITY_HIDE_FLAG: Hide Arboreal Grove #4 (ID: 17924137/0x01118029)
     0x0483 [0x4E] SET_ENTITY_HIDE_FLAG: Hide Arboreal Grove #4 (ID: 17924138/0x0111802A)
     0x0489 [0x1C] WAIT(1* ticks)
     0x048C [0x1B] RETURN
     0x048D [0xAC] Unknown NPC (ID: 17924114/0x01118012)->Render.Flags6 |= 0x02 // Set bit 1
     0x0493 [0x3E] IF !(Work_Zone_Memorize[0] bit 6*) GOTO 0x04A4
     0x049A [0x27] REQ_SET(priority=0x80, entity_id=Unknown NPC (ID: 17924114/0x01118012), tag_num=0x02)
     0x04A1 [0x01] GOTO 0x04AB
     0x04A4 [0x27] REQ_SET(priority=0x80, entity_id=Unknown NPC (ID: 17924114/0x01118012), tag_num=0x03)
     0x04AB [0xAC] Unknown NPC (ID: 17924115/0x01118013)->Render.Flags6 |= 0x02 // Set bit 1
     0x04B1 [0x3E] IF !(Work_Zone_Memorize[0] bit 7*) GOTO 0x04C2
     0x04B8 [0x27] REQ_SET(priority=0x80, entity_id=Unknown NPC (ID: 17924115/0x01118013), tag_num=0x02)
     0x04BF [0x01] GOTO 0x04C9
     0x04C2 [0x27] REQ_SET(priority=0x80, entity_id=Unknown NPC (ID: 17924115/0x01118013), tag_num=0x03)
     0x04C9 [0xAC] Unknown NPC (ID: 17924116/0x01118014)->Render.Flags6 |= 0x02 // Set bit 1
     0x04CF [0x3E] IF !(Work_Zone_Memorize[0] bit 8*) GOTO 0x04E0
     0x04D6 [0x29] REQ_SET_WAIT(priority=0x80, entity_id=Unknown NPC (ID: 17924116/0x01118014), tag_num=0x02)
     0x04DD [0x01] GOTO 0x04E7
     0x04E0 [0x29] REQ_SET_WAIT(priority=0x80, entity_id=Unknown NPC (ID: 17924116/0x01118014), tag_num=0x03)
# Dead code (unreachable instructions):
     0x05FB [0x92] Coastal Fishing Net (ID: 17924149/0x01118035)->Render.Flags3 ^= 0x01
     0x0601 [0xAC] Unknown NPC (ID: 17924117/0x01118015)->Render.Flags6 |= 0x02 // Set bit 1
     0x0607 [0x3E] IF !(Work_Zone_Memorize[0] bit 9*) GOTO 0x0618
     0x060E [0x27] REQ_SET(priority=0x80, entity_id=Unknown NPC (ID: 17924117/0x01118015), tag_num=0x02)
     0x0615 [0x01] GOTO 0x061F
     0x0618 [0x27] REQ_SET(priority=0x80, entity_id=Unknown NPC (ID: 17924117/0x01118015), tag_num=0x03)
     0x061F [0xAC] Unknown NPC (ID: 17924118/0x01118016)->Render.Flags6 |= 0x02 // Set bit 1
     0x0625 [0x3E] IF !(Work_Zone_Memorize[0] bit 10*) GOTO 0x0636
     0x062C [0x27] REQ_SET(priority=0x80, entity_id=Unknown NPC (ID: 17924118/0x01118016), tag_num=0x02)
     0x0633 [0x01] GOTO 0x063D
     0x0636 [0x27] REQ_SET(priority=0x80, entity_id=Unknown NPC (ID: 17924118/0x01118016), tag_num=0x03)
     0x063D [0xAC] Unknown NPC (ID: 17924119/0x01118017)->Render.Flags6 |= 0x02 // Set bit 1
     0x0643 [0x3E] IF !(Work_Zone_Memorize[0] bit 11*) GOTO 0x0654
     0x064A [0x27] REQ_SET(priority=0x80, entity_id=Unknown NPC (ID: 17924119/0x01118017), tag_num=0x02)
     0x0651 [0x01] GOTO 0x065B
     0x0654 [0x27] REQ_SET(priority=0x80, entity_id=Unknown NPC (ID: 17924119/0x01118017), tag_num=0x03)
     0x065B [0xAC] Unknown NPC (ID: 17924120/0x01118018)->Render.Flags6 |= 0x02 // Set bit 1
     0x0661 [0x3E] IF !(Work_Zone_Memorize[1] bit 17*) GOTO 0x0672
     0x0668 [0x29] REQ_SET_WAIT(priority=0x80, entity_id=Unknown NPC (ID: 17924120/0x01118018), tag_num=0x02)
     0x066F [0x01] GOTO 0x0679
     0x0672 [0x29] REQ_SET_WAIT(priority=0x80, entity_id=Unknown NPC (ID: 17924120/0x01118018), tag_num=0x03)
     0x0679 [0x3E] IF !(Work_Zone_Memorize[1] bit 20*) GOTO 0x0689
     0x0680 [0x60] ZONE_SET_ACTION: Set zone action with param 0x6E6F3069
     0x0686 [0x01] GOTO 0x0689
     0x0689 [0x3E] IF !(Work_Zone_Memorize[1] bit 21*) GOTO 0x0699
     0x0690 [0x60] ZONE_SET_ACTION: Set zone action with param 0x6E6F3169
     0x0696 [0x01] GOTO 0x0699
     0x0699 [0x3E] IF !(Work_Zone_Memorize[1] bit 22*) GOTO 0x06A9
     0x06A0 [0x60] ZONE_SET_ACTION: Set zone action with param 0x6E6F3269
     0x06A6 [0x01] GOTO 0x06A9
     0x06A9 [0x3E] IF !(Work_Zone_Memorize[1] bit 23*) GOTO 0x06B9
     0x06B0 [0x60] ZONE_SET_ACTION: Set zone action with param 0x6E6F3369
     0x06B6 [0x01] GOTO 0x06B9
     0x06B9 [0x1B] RETURN
     0x06BA [0xAC] Coastal Fishing Net (ID: 17924149/0x01118035)->Render.Flags6 |= 0x02 // Set bit 1
     0x06C0 [0x29] REQ_SET_WAIT(priority=0x08, entity_id=Coastal Fishing Net (ID: 17924149/0x01118035), tag_num=0x04)
     0x06C7 [0x1B] RETURN
     0x06C8 [0x92] Kuyin Hathdenna (ID: 17924183/0x01118057)->Render.Flags3 = Flags3  // No change (flag=0)
     0x06CE [0x92] Kuyin Hathdenna (ID: 17924202/0x0111806A)->Render.Flags3 = Flags3  // No change (flag=0)
     0x06D4 [0x92] Susuroon (ID: 17924184/0x01118058)->Render.Flags3 = Flags3  // No change (flag=0)
     0x06DA [0x92] Susuroon (ID: 17924203/0x0111806B)->Render.Flags3 = Flags3  // No change (flag=0)
     0x06E0 [0x92] Yeestog (ID: 17924185/0x01118059)->Render.Flags3 = Flags3  // No change (flag=0)
     0x06E6 [0x92] Yeestog (ID: 17924204/0x0111806C)->Render.Flags3 = Flags3  // No change (flag=0)
     0x06EC [0xAC] Kuyin Hathdenna (ID: 17924183/0x01118057)->Render.Flags6 |= 0x02 // Set bit 1
     0x06F2 [0x3E] IF !(Work_Zone_Memorize[0] bit 12*) GOTO 0x0703
     0x06F9 [0x27] REQ_SET(priority=0x08, entity_id=Kuyin Hathdenna (ID: 17924183/0x01118057), tag_num=0x02)
     0x0700 [0x01] GOTO 0x070A
     0x0703 [0x27] REQ_SET(priority=0x08, entity_id=Kuyin Hathdenna (ID: 17924183/0x01118057), tag_num=0x03)
     0x070A [0xAC] Kuyin Hathdenna (ID: 17924202/0x0111806A)->Render.Flags6 |= 0x02 // Set bit 1
     0x0710 [0x3E] IF !(Work_Zone_Memorize[0] bit 13*) GOTO 0x0721
     0x0717 [0x27] REQ_SET(priority=0x08, entity_id=Kuyin Hathdenna (ID: 17924202/0x0111806A), tag_num=0x02)
     0x071E [0x01] GOTO 0x0728
     0x0721 [0x27] REQ_SET(priority=0x08, entity_id=Kuyin Hathdenna (ID: 17924202/0x0111806A), tag_num=0x03)
     0x0728 [0xAC] Susuroon (ID: 17924184/0x01118058)->Render.Flags6 |= 0x02 // Set bit 1
     0x072E [0x3E] IF !(Work_Zone_Memorize[0] bit 14*) GOTO 0x073F
     0x0735 [0x29] REQ_SET_WAIT(priority=0x08, entity_id=Susuroon (ID: 17924184/0x01118058), tag_num=0x02)
     0x073C [0x01] GOTO 0x0746
     0x073F [0x29] REQ_SET_WAIT(priority=0x08, entity_id=Susuroon (ID: 17924184/0x01118058), tag_num=0x03)
     0x0746 [0xAC] Susuroon (ID: 17924203/0x0111806B)->Render.Flags6 |= 0x02 // Set bit 1
     0x074C [0x3E] IF !(Work_Zone_Memorize[0] bit 15*) GOTO 0x075D
     0x0753 [0x27] REQ_SET(priority=0x08, entity_id=Susuroon (ID: 17924203/0x0111806B), tag_num=0x02)
     0x075A [0x01] GOTO 0x0764
     0x075D [0x27] REQ_SET(priority=0x08, entity_id=Susuroon (ID: 17924203/0x0111806B), tag_num=0x03)
     0x0764 [0xAC] Yeestog (ID: 17924185/0x01118059)->Render.Flags6 |= 0x02 // Set bit 1
     0x076A [0x3E] IF !(Work_Zone_Memorize[0] bit 16*) GOTO 0x077B
     0x0771 [0x27] REQ_SET(priority=0x08, entity_id=Yeestog (ID: 17924185/0x01118059), tag_num=0x02)
     0x0778 [0x01] GOTO 0x0782
     0x077B [0x27] REQ_SET(priority=0x08, entity_id=Yeestog (ID: 17924185/0x01118059), tag_num=0x03)
     0x0782 [0xAC] Yeestog (ID: 17924204/0x0111806C)->Render.Flags6 |= 0x02 // Set bit 1
     0x0788 [0x3E] IF !(Work_Zone_Memorize[0] bit 17*) GOTO 0x0799
     0x078F [0x29] REQ_SET_WAIT(priority=0x08, entity_id=Yeestog (ID: 17924204/0x0111806C), tag_num=0x02)
     0x0796 [0x01] GOTO 0x07A0
     0x0799 [0x29] REQ_SET_WAIT(priority=0x08, entity_id=Yeestog (ID: 17924204/0x0111806C), tag_num=0x03)
     0x07A0 [0x1C] WAIT(1* ticks)
     0x07A3 [0x1B] RETURN
     0x07A4 [0xAC] Flotsam (ID: 17924150/0x01118036)->Render.Flags6 |= 0x02 // Set bit 1
     0x07AA [0x3E] IF !(Work_Zone_Memorize[0] bit 29*) GOTO 0x07C7
     0x07B1 [0x2C] CREATE_SCHEDULER_TASK: Create scheduler "efon" with entities [Flotsam (ID: 17924150/0x01118036), Flotsam (ID: 17924150/0x01118036)]
     0x07BE [0xB6] ENTITY_APPEARANCE_HANDLER(case=Render.Flags2)
     0x07C0 [0x36] SET_ENTITY_EVENT_POSITION(pos_x=0x1180, pos_z=0x0101, pos_y=0x07DA)
     0x07C7 [0x2C] CREATE_SCHEDULER_TASK: Create scheduler "efof" with entities [Flotsam (ID: 17924150/0x01118036), Flotsam (ID: 17924150/0x01118036)]
     0x07D4 [0xB6] ENTITY_APPEARANCE_HANDLER(case=Render.Flags2)
     0x07D6 [0x36] SET_ENTITY_EVENT_POSITION(pos_x=0x1180, pos_z=0x1B01, pos_y=0x013E)
     0x07DD [0x11] 0* >>= 0x07F1
     0x07E2 [0x4E] SET_ENTITY_HIDE_FLAG: Show Crabauble (ID: 17924209/0x01118071)
     0x07E8 [0xAC] Crabauble (ID: 17924209/0x01118071)->Render.Flags6 |= 0x02 // Set bit 1
     0x07EE [0x01] GOTO 0x07FD
     0x07F1 [0xAC] Crabauble (ID: 17924209/0x01118071)->Render.Flags6 |= 0x02 // Set bit 1
     0x07F7 [0x4E] SET_ENTITY_HIDE_FLAG: Hide Crabauble (ID: 17924209/0x01118071)
     0x07FD [0x1B] RETURN
     0x07FE [0xAC] Garden Strongbox (ID: 17924210/0x01118072)->Render.Flags6 |= 0x02 // Set bit 1
     0x0804 [0x3E] IF !(Work_Zone_Memorize[1] bit 1*) GOTO 0x0822
     0x080B [0x3E] IF !(Work_Zone_Memorize[1] bit 3*) GOTO 0x0819
     0x0812 [0x29] REQ_SET_WAIT(priority=0x08, entity_id=Garden Strongbox (ID: 17924210/0x01118072), tag_num=0x04)
     0x0819 [0x4E] SET_ENTITY_HIDE_FLAG: Show Garden Strongbox (ID: 17924210/0x01118072)
     0x081F [0x01] GOTO 0x0829
     0x0822 [0x29] REQ_SET_WAIT(priority=0x08, entity_id=Garden Strongbox (ID: 17924210/0x01118072), tag_num=0x03)
     0x0829 [0x1B] RETURN
     0x082A [0xAC] Ephemeral Moogle (ID: 17924238/0x0111808E)->Render.Flags6 |= 0x02 // Set bit 1
     0x0830 [0x3E] IF !(Work_Zone_Memorize[1] bit 25*) GOTO 0x0840
     0x0837 [0x4E] SET_ENTITY_HIDE_FLAG: Show Ephemeral Moogle (ID: 17924238/0x0111808E)
     0x083D [0x01] GOTO 0x0846
     0x0840 [0x4E] SET_ENTITY_HIDE_FLAG: Hide Ephemeral Moogle (ID: 17924238/0x0111808E)
     0x0846 [0x1B] RETURN
     0x0847 [0xAC] Unnamed NPC (ID: 17924224/0x01118080)->Render.Flags6 |= 0x02 // Set bit 1
     0x084D [0xAC] Unnamed NPC (ID: 17924225/0x01118081)->Render.Flags6 |= 0x02 // Set bit 1
     0x0853 [0xAC] Unnamed NPC (ID: 17924226/0x01118082)->Render.Flags6 |= 0x02 // Set bit 1
     0x0859 [0xAC] Unnamed NPC (ID: 17924227/0x01118083)->Render.Flags6 |= 0x02 // Set bit 1
     0x085F [0xAC] Unnamed NPC (ID: 17924228/0x01118084)->Render.Flags6 |= 0x02 // Set bit 1
     0x0865 [0x3E] IF !(Work_Zone_Memorize[1] bit 26*) GOTO 0x08AB
     0x086C [0x4E] SET_ENTITY_HIDE_FLAG: Show Unnamed NPC (ID: 17924224/0x01118080)
     0x0872 [0xAC] Unnamed NPC (ID: 17924224/0x01118080)->Render.Flags6 |= 0x02 // Set bit 1
     0x0878 [0x4E] SET_ENTITY_HIDE_FLAG: Show Unnamed NPC (ID: 17924225/0x01118081)
     0x087E [0xAC] Unnamed NPC (ID: 17924225/0x01118081)->Render.Flags6 |= 0x02 // Set bit 1
     0x0884 [0x4E] SET_ENTITY_HIDE_FLAG: Show Unnamed NPC (ID: 17924226/0x01118082)
     0x088A [0xAC] Unnamed NPC (ID: 17924226/0x01118082)->Render.Flags6 |= 0x02 // Set bit 1
     0x0890 [0x4E] SET_ENTITY_HIDE_FLAG: Show Unnamed NPC (ID: 17924227/0x01118083)
     0x0896 [0xAC] Unnamed NPC (ID: 17924227/0x01118083)->Render.Flags6 |= 0x02 // Set bit 1
     0x089C [0x4E] SET_ENTITY_HIDE_FLAG: Show Unnamed NPC (ID: 17924228/0x01118084)
     0x08A2 [0xAC] Unnamed NPC (ID: 17924228/0x01118084)->Render.Flags6 |= 0x02 // Set bit 1
     0x08A8 [0x01] GOTO 0x08C9
     0x08AB [0x4E] SET_ENTITY_HIDE_FLAG: Hide Unnamed NPC (ID: 17924224/0x01118080)
     0x08B1 [0x4E] SET_ENTITY_HIDE_FLAG: Hide Unnamed NPC (ID: 17924225/0x01118081)
     0x08B7 [0x4E] SET_ENTITY_HIDE_FLAG: Hide Unnamed NPC (ID: 17924226/0x01118082)
     0x08BD [0x4E] SET_ENTITY_HIDE_FLAG: Hide Unnamed NPC (ID: 17924227/0x01118083)
     0x08C3 [0x4E] SET_ENTITY_HIDE_FLAG: Hide Unnamed NPC (ID: 17924228/0x01118084)
     0x08C9 [0x1B] RETURN
     0x08CA [0xAC] ??? (ID: 17924229/0x01118085)->Render.Flags6 |= 0x02 // Set bit 1
     0x08D0 [0xAC] ??? (ID: 17924230/0x01118086)->Render.Flags6 |= 0x02 // Set bit 1
     0x08D6 [0x3E] IF !(Work_Zone_Memorize[1] bit 27*) GOTO 0x0947
     0x08DD [0x13] ExtData[1]->WorkLocal[10] = rand() % 2*
     0x08E2 [0x02] IF !(ExtData[1]->WorkLocal[10] <= 2*) GOTO 0x08ED
     0x08EA [0x06] ExtData[1]->WorkLocal[10] = 0
     0x08ED [0x02] IF !(ExtData[1]->WorkLocal[10] == 0*) GOTO 0x0906
     0x08F5 [0x29] REQ_SET_WAIT(priority=0x08, entity_id=??? (ID: 17924229/0x01118085), tag_num=0x02)
     0x08FC [0x29] REQ_SET_WAIT(priority=0x08, entity_id=??? (ID: 17924230/0x01118086), tag_num=0x02)
     0x0903 [0x01] GOTO 0x0938
     0x0906 [0x02] IF !(ExtData[1]->WorkLocal[10] == 1*) GOTO 0x091F
     0x090E [0x29] REQ_SET_WAIT(priority=0x08, entity_id=??? (ID: 17924229/0x01118085), tag_num=0x03)
     0x0915 [0x29] REQ_SET_WAIT(priority=0x08, entity_id=??? (ID: 17924230/0x01118086), tag_num=0x03)
     0x091C [0x01] GOTO 0x0938
     0x091F [0x02] IF !(ExtData[1]->WorkLocal[10] == 2*) GOTO 0x0938
     0x0927 [0x29] REQ_SET_WAIT(priority=0x08, entity_id=??? (ID: 17924229/0x01118085), tag_num=0x04)
     0x092E [0x29] REQ_SET_WAIT(priority=0x08, entity_id=??? (ID: 17924230/0x01118086), tag_num=0x04)
     0x0935 [0x01] GOTO 0x0938
     0x0938 [0x4E] SET_ENTITY_HIDE_FLAG: Show ??? (ID: 17924229/0x01118085)
     0x093E [0x4E] SET_ENTITY_HIDE_FLAG: Show ??? (ID: 17924230/0x01118086)
     0x0944 [0x01] GOTO 0x0953
     0x0947 [0x4E] SET_ENTITY_HIDE_FLAG: Hide ??? (ID: 17924229/0x01118085)
     0x094D [0x4E] SET_ENTITY_HIDE_FLAG: Hide ??? (ID: 17924230/0x01118086)
     0x0953 [0x1B] RETURN
     0x0954 [0xAC] Chacharoon (ID: 17924231/0x01118087)->Render.Flags6 |= 0x02 // Set bit 1
     0x095A [0x3E] IF !(Work_Zone_Memorize[1] bit 4*) GOTO 0x0970
     0x0961 [0x4E] SET_ENTITY_HIDE_FLAG: Show Chacharoon (ID: 17924231/0x01118087)
     0x0967 [0xAC] Chacharoon (ID: 17924231/0x01118087)->Render.Flags6 |= 0x02 // Set bit 1
     0x096D [0x01] GOTO 0x097C
     0x0970 [0xAC] Chacharoon (ID: 17924231/0x01118087)->Render.Flags6 |= 0x02 // Set bit 1
     0x0976 [0x4E] SET_ENTITY_HIDE_FLAG: Hide Chacharoon (ID: 17924231/0x01118087)
     0x097C [0x1B] RETURN
     0x097D [0xAC] Breeding Monster (ID: 17924233/0x01118089)->Render.Flags6 |= 0x02 // Set bit 1
     0x0983 [0x29] REQ_SET_WAIT(priority=0x08, entity_id=Breeding Monster (ID: 17924233/0x01118089), tag_num=0x04)
     0x098A [0x1B] RETURN
     0x098B [0xAC] Breeding Monster01 (ID: 17924234/0x0111808A)->Render.Flags6 |= 0x02 // Set bit 1
     0x0991 [0x29] REQ_SET_WAIT(priority=0x08, entity_id=Breeding Monster01 (ID: 17924234/0x0111808A), tag_num=0x04)
     0x0998 [0x1B] RETURN
     0x0999 [0xAC] Breeding Monster02 (ID: 17924235/0x0111808B)->Render.Flags6 |= 0x02 // Set bit 1
     0x099F [0x29] REQ_SET_WAIT(priority=0x08, entity_id=Breeding Monster02 (ID: 17924235/0x0111808B), tag_num=0x04)
     0x09A6 [0x1B] RETURN
     0x09A7 [0xAC] Breeding Monster03 (ID: 17924236/0x0111808C)->Render.Flags6 |= 0x02 // Set bit 1
     0x09AD [0x29] REQ_SET_WAIT(priority=0x08, entity_id=Breeding Monster03 (ID: 17924236/0x0111808C), tag_num=0x04)
     0x09B4 [0x1B] RETURN
     0x09B5 [0xAC] Breeding Monster00 (ID: 17924237/0x0111808D)->Render.Flags6 |= 0x02 // Set bit 1
     0x09BB [0x29] REQ_SET_WAIT(priority=0x08, entity_id=Breeding Monster00 (ID: 17924237/0x0111808D), tag_num=0x04)
     0x09C2 [0x1B] RETURN
     0x09C3 [0xAC] Unnamed NPC (ID: 17924124/0x0111801C)->Render.Flags6 |= 0x02 // Set bit 1
     0x09C9 [0x3E] IF !(Work_Zone_Memorize[1] bit 24*) GOTO 0x09DA
     0x09D0 [0x29] REQ_SET_WAIT(priority=0x80, entity_id=Unnamed NPC (ID: 17924124/0x0111801C), tag_num=0x02)
     0x09D7 [0x01] GOTO 0x09E1
     0x09DA [0x29] REQ_SET_WAIT(priority=0x80, entity_id=Unnamed NPC (ID: 17924124/0x0111801C), tag_num=0x03)
     0x09E1 [0x1B] RETURN
     0x09E2 [0x03] Work_Zone[1] = 1*
     0x09E7 [0x43] SEND_EVENT_UPDATE: Send pending tag to server (packet 0x005B)
     0x09E9 [0x43] SEND_EVENT_UPDATE: Check pending flag (skip if not pending)
     0x09EB [0x03] ExtData[1]->WorkLocal[11] = Work_Zone[2]
     0x09F0 [0x03] Work_Zone_Memorize[8] = Work_Zone[3]
     0x09F5 [0x03] Work_Zone_Memorize[1] = Work_Zone[4]
     0x09FA [0x03] Work_Zone_Memorize[10] = Work_Zone[5]
     0x09FF [0x03] Work_Zone_Memorize[11] = Work_Zone[6]
     0x0A04 [0x03] Work_Zone_Memorize[12] = Work_Zone[7]
     0x0A09 [0x03] Work_Zone[1] = 11*
     0x0A0E [0x43] SEND_EVENT_UPDATE: Send pending tag to server (packet 0x005B)
     0x0A10 [0x43] SEND_EVENT_UPDATE: Check pending flag (skip if not pending)
     0x0A12 [0x03] Work_Zone_Memorize[2] = Work_Zone[2]
     0x0A17 [0x03] Work_Zone_Memorize[3] = Work_Zone[3]
     0x0A1C [0x03] Work_Zone_Memorize[4] = Work_Zone[4]
     0x0A21 [0x03] Work_Zone_Memorize[5] = Work_Zone[5]
     0x0A26 [0x03] Work_Zone_Memorize[6] = Work_Zone[6]
     0x0A2B [0x03] Work_Zone_Memorize[7] = Work_Zone[7]
     0x0A30 [0x03] Work_Zone_Memorize[9] = Work_Zone[8]
     0x0A35 [0x41] ExtData[1]->WorkLocal[10] = ExtData[1]->WorkLocal[11] (bits 0*-3*)
     0x0A3E [0x1A] CALL_SUBROUTINE(address=0x0C2F)
     0x0A41 [0x41] ExtData[1]->WorkLocal[10] = ExtData[1]->WorkLocal[11] (bits 4*-7*)
     0x0A4A [0x1A] CALL_SUBROUTINE(address=0x0E37)
     0x0A4D [0x41] ExtData[1]->WorkLocal[10] = ExtData[1]->WorkLocal[11] (bits 8*-11*)
     0x0A56 [0x1A] CALL_SUBROUTINE(address=0x10C7)
     0x0A59 [0x41] ExtData[1]->WorkLocal[10] = ExtData[1]->WorkLocal[11] (bits 12*-15*)
     0x0A62 [0x1A] CALL_SUBROUTINE(address=0x1315)
     0x0A65 [0x41] ExtData[1]->WorkLocal[10] = ExtData[1]->WorkLocal[11] (bits 20*-22*)
     0x0A6E [0x1A] CALL_SUBROUTINE(address=0x0A97)
     0x0A71 [0x41] ExtData[1]->WorkLocal[10] = ExtData[1]->WorkLocal[11] (bits 31*-31*)
     0x0A7A [0x02] IF !(ExtData[1]->WorkLocal[10] == 0*) GOTO 0x0A8C
     0x0A82 [0x3D] CLEAR_BIT_FLAG_CONDITIONAL(target_work_offset=Work_Zone_Memorize[0], bit_index_work_offset=29*, condition_work_offset=1*)
     0x0A89 [0x01] GOTO 0x0A93
     0x0A8C [0x3C] SET_BIT_FLAG_CONDITIONAL(target_work_offset=Work_Zone_Memorize[0], bit_index_work_offset=29*, condition_work_offset=1*)
     0x0A93 [0x1A] CALL_SUBROUTINE(address=0x0AB1)
     0x0A96 [0x1B] RETURN
     0x0A97 [0x02] IF !(ExtData[1]->WorkLocal[10] < 3*) GOTO 0x0AA9
     0x0A9F [0x3C] SET_BIT_FLAG_CONDITIONAL(target_work_offset=Work_Zone_Memorize[1], bit_index_work_offset=24*, condition_work_offset=1*)
     0x0AA6 [0x01] GOTO 0x0AB0
     0x0AA9 [0x3D] CLEAR_BIT_FLAG_CONDITIONAL(target_work_offset=Work_Zone_Memorize[1], bit_index_work_offset=24*, condition_work_offset=1*)
     0x0AB0 [0x1B] RETURN
     0x0AB1 [0x3E] IF !(Work_Zone_Memorize[8] bit 8*) GOTO 0x0B22
     0x0AB8 [0x41] ExtData[1]->WorkLocal[10] = Work_Zone_Memorize[8] (bits 9*-11*)
     0x0AC1 [0x02] IF !(ExtData[1]->WorkLocal[10] == 1*) GOTO 0x0ADA
     0x0AC9 [0x3D] CLEAR_BIT_FLAG_CONDITIONAL(target_work_offset=Work_Zone_Memorize[0], bit_index_work_offset=12*, condition_work_offset=1*)
     0x0AD0 [0x3C] SET_BIT_FLAG_CONDITIONAL(target_work_offset=Work_Zone_Memorize[0], bit_index_work_offset=13*, condition_work_offset=1*)
     0x0AD7 [0x01] GOTO 0x0B1F
     0x0ADA [0x02] IF !(ExtData[1]->WorkLocal[10] == 4*) GOTO 0x0AF3
     0x0AE2 [0x3C] SET_BIT_FLAG_CONDITIONAL(target_work_offset=Work_Zone_Memorize[0], bit_index_work_offset=12*, condition_work_offset=1*)
     0x0AE9 [0x3D] CLEAR_BIT_FLAG_CONDITIONAL(target_work_offset=Work_Zone_Memorize[0], bit_index_work_offset=13*, condition_work_offset=1*)
     0x0AF0 [0x01] GOTO 0x0B1F
     0x0AF3 [0x13] ExtData[1]->WorkLocal[10] = rand() % 99*
     0x0AF8 [0x02] IF !(ExtData[1]->WorkLocal[10] >= 50*) GOTO 0x0B11
     0x0B00 [0x3D] CLEAR_BIT_FLAG_CONDITIONAL(target_work_offset=Work_Zone_Memorize[0], bit_index_work_offset=12*, condition_work_offset=1*)
     0x0B07 [0x3C] SET_BIT_FLAG_CONDITIONAL(target_work_offset=Work_Zone_Memorize[0], bit_index_work_offset=13*, condition_work_offset=1*)
     0x0B0E [0x01] GOTO 0x0B1F
     0x0B11 [0x3C] SET_BIT_FLAG_CONDITIONAL(target_work_offset=Work_Zone_Memorize[0], bit_index_work_offset=12*, condition_work_offset=1*)
     0x0B18 [0x3D] CLEAR_BIT_FLAG_CONDITIONAL(target_work_offset=Work_Zone_Memorize[0], bit_index_work_offset=13*, condition_work_offset=1*)
     0x0B1F [0x01] GOTO 0x0B30
     0x0B22 [0x3D] CLEAR_BIT_FLAG_CONDITIONAL(target_work_offset=Work_Zone_Memorize[0], bit_index_work_offset=12*, condition_work_offset=1*)
     0x0B29 [0x3D] CLEAR_BIT_FLAG_CONDITIONAL(target_work_offset=Work_Zone_Memorize[0], bit_index_work_offset=13*, condition_work_offset=1*)
     0x0B30 [0x3E] IF !(Work_Zone_Memorize[8] bit 12*) GOTO 0x0BA1
     0x0B37 [0x41] ExtData[1]->WorkLocal[10] = Work_Zone_Memorize[8] (bits 13*-15*)
     0x0B40 [0x02] IF !(ExtData[1]->WorkLocal[10] == 1*) GOTO 0x0B59
     0x0B48 [0x3C] SET_BIT_FLAG_CONDITIONAL(target_work_offset=Work_Zone_Memorize[0], bit_index_work_offset=14*, condition_work_offset=1*)
     0x0B4F [0x3D] CLEAR_BIT_FLAG_CONDITIONAL(target_work_offset=Work_Zone_Memorize[0], bit_index_work_offset=15*, condition_work_offset=1*)
     0x0B56 [0x01] GOTO 0x0B9E
     0x0B59 [0x02] IF !(ExtData[1]->WorkLocal[10] == 5*) GOTO 0x0B72
     0x0B61 [0x3D] CLEAR_BIT_FLAG_CONDITIONAL(target_work_offset=Work_Zone_Memorize[0], bit_index_work_offset=14*, condition_work_offset=1*)
     0x0B68 [0x3C] SET_BIT_FLAG_CONDITIONAL(target_work_offset=Work_Zone_Memorize[0], bit_index_work_offset=15*, condition_work_offset=1*)
     0x0B6F [0x01] GOTO 0x0B9E
     0x0B72 [0x13] ExtData[1]->WorkLocal[10] = rand() % 99*
     0x0B77 [0x02] IF !(ExtData[1]->WorkLocal[10] >= 50*) GOTO 0x0B90
     0x0B7F [0x3C] SET_BIT_FLAG_CONDITIONAL(target_work_offset=Work_Zone_Memorize[0], bit_index_work_offset=14*, condition_work_offset=1*)
     0x0B86 [0x3D] CLEAR_BIT_FLAG_CONDITIONAL(target_work_offset=Work_Zone_Memorize[0], bit_index_work_offset=15*, condition_work_offset=1*)
     0x0B8D [0x01] GOTO 0x0B9E
     0x0B90 [0x3D] CLEAR_BIT_FLAG_CONDITIONAL(target_work_offset=Work_Zone_Memorize[0], bit_index_work_offset=14*, condition_work_offset=1*)
     0x0B97 [0x3C] SET_BIT_FLAG_CONDITIONAL(target_work_offset=Work_Zone_Memorize[0], bit_index_work_offset=15*, condition_work_offset=1*)
     0x0B9E [0x01] GOTO 0x0BAF
     0x0BA1 [0x3D] CLEAR_BIT_FLAG_CONDITIONAL(target_work_offset=Work_Zone_Memorize[0], bit_index_work_offset=14*, condition_work_offset=1*)
     0x0BA8 [0x3D] CLEAR_BIT_FLAG_CONDITIONAL(target_work_offset=Work_Zone_Memorize[0], bit_index_work_offset=15*, condition_work_offset=1*)
     0x0BAF [0x3E] IF !(Work_Zone_Memorize[8] bit 16*) GOTO 0x0C20
     0x0BB6 [0x41] ExtData[1]->WorkLocal[10] = Work_Zone_Memorize[8] (bits 17*-19*)
     0x0BBF [0x02] IF !(ExtData[1]->WorkLocal[10] == 3*) GOTO 0x0BD8
     0x0BC7 [0x3C] SET_BIT_FLAG_CONDITIONAL(target_work_offset=Work_Zone_Memorize[0], bit_index_work_offset=16*, condition_work_offset=1*)
     0x0BCE [0x3D] CLEAR_BIT_FLAG_CONDITIONAL(target_work_offset=Work_Zone_Memorize[0], bit_index_work_offset=17*, condition_work_offset=1*)
     0x0BD5 [0x01] GOTO 0x0C1D
     0x0BD8 [0x02] IF !(ExtData[1]->WorkLocal[10] == 2*) GOTO 0x0BF1
     0x0BE0 [0x3D] CLEAR_BIT_FLAG_CONDITIONAL(target_work_offset=Work_Zone_Memorize[0], bit_index_work_offset=16*, condition_work_offset=1*)
     0x0BE7 [0x3C] SET_BIT_FLAG_CONDITIONAL(target_work_offset=Work_Zone_Memorize[0], bit_index_work_offset=17*, condition_work_offset=1*)
     0x0BEE [0x01] GOTO 0x0C1D
     0x0BF1 [0x13] ExtData[1]->WorkLocal[10] = rand() % 99*
     0x0BF6 [0x02] IF !(ExtData[1]->WorkLocal[10] >= 50*) GOTO 0x0C0F
     0x0BFE [0x3C] SET_BIT_FLAG_CONDITIONAL(target_work_offset=Work_Zone_Memorize[0], bit_index_work_offset=16*, condition_work_offset=1*)
     0x0C05 [0x3D] CLEAR_BIT_FLAG_CONDITIONAL(target_work_offset=Work_Zone_Memorize[0], bit_index_work_offset=17*, condition_work_offset=1*)
     0x0C0C [0x01] GOTO 0x0C1D
     0x0C0F [0x3D] CLEAR_BIT_FLAG_CONDITIONAL(target_work_offset=Work_Zone_Memorize[0], bit_index_work_offset=16*, condition_work_offset=1*)
     0x0C16 [0x3C] SET_BIT_FLAG_CONDITIONAL(target_work_offset=Work_Zone_Memorize[0], bit_index_work_offset=17*, condition_work_offset=1*)
     0x0C1D [0x01] GOTO 0x0C2E
     0x0C20 [0x3D] CLEAR_BIT_FLAG_CONDITIONAL(target_work_offset=Work_Zone_Memorize[0], bit_index_work_offset=16*, condition_work_offset=1*)
     0x0C27 [0x3D] CLEAR_BIT_FLAG_CONDITIONAL(target_work_offset=Work_Zone_Memorize[0], bit_index_work_offset=17*, condition_work_offset=1*)
     0x0C2E [0x1B] RETURN
     0x0C2F [0x02] IF !(ExtData[1]->WorkLocal[10] == 0*) GOTO 0x0C64
     0x0C37 [0x3D] CLEAR_BIT_FLAG_CONDITIONAL(target_work_offset=Work_Zone_Memorize[0], bit_index_work_offset=0*, condition_work_offset=1*)
     0x0C3E [0x3C] SET_BIT_FLAG_CONDITIONAL(target_work_offset=Work_Zone_Memorize[0], bit_index_work_offset=1*, condition_work_offset=1*)
     0x0C45 [0x3C] SET_BIT_FLAG_CONDITIONAL(target_work_offset=Work_Zone_Memorize[0], bit_index_work_offset=2*, condition_work_offset=1*)
     0x0C4C [0x3C] SET_BIT_FLAG_CONDITIONAL(target_work_offset=Work_Zone_Memorize[0], bit_index_work_offset=26*, condition_work_offset=1*)
     0x0C53 [0x3D] CLEAR_BIT_FLAG_CONDITIONAL(target_work_offset=Work_Zone_Memorize[0], bit_index_work_offset=27*, condition_work_offset=1*)
     0x0C5A [0x3D] CLEAR_BIT_FLAG_CONDITIONAL(target_work_offset=Work_Zone_Memorize[0], bit_index_work_offset=28*, condition_work_offset=1*)
     0x0C61 [0x01] GOTO 0x0E36
     0x0C64 [0x02] IF !(ExtData[1]->WorkLocal[10] == 1*) GOTO 0x0C99
     0x0C6C [0x3D] CLEAR_BIT_FLAG_CONDITIONAL(target_work_offset=Work_Zone_Memorize[0], bit_index_work_offset=0*, condition_work_offset=1*)
     0x0C73 [0x3C] SET_BIT_FLAG_CONDITIONAL(target_work_offset=Work_Zone_Memorize[0], bit_index_work_offset=1*, condition_work_offset=1*)
     0x0C7A [0x3C] SET_BIT_FLAG_CONDITIONAL(target_work_offset=Work_Zone_Memorize[0], bit_index_work_offset=2*, condition_work_offset=1*)
     0x0C81 [0x3C] SET_BIT_FLAG_CONDITIONAL(target_work_offset=Work_Zone_Memorize[0], bit_index_work_offset=26*, condition_work_offset=1*)
     0x0C88 [0x3D] CLEAR_BIT_FLAG_CONDITIONAL(target_work_offset=Work_Zone_Memorize[0], bit_index_work_offset=27*, condition_work_offset=1*)
     0x0C8F [0x3D] CLEAR_BIT_FLAG_CONDITIONAL(target_work_offset=Work_Zone_Memorize[0], bit_index_work_offset=28*, condition_work_offset=1*)
     0x0C96 [0x01] GOTO 0x0E36
     0x0C99 [0x02] IF !(ExtData[1]->WorkLocal[10] == 2*) GOTO 0x0CCE
     0x0CA1 [0x3D] CLEAR_BIT_FLAG_CONDITIONAL(target_work_offset=Work_Zone_Memorize[0], bit_index_work_offset=0*, condition_work_offset=1*)
     0x0CA8 [0x3C] SET_BIT_FLAG_CONDITIONAL(target_work_offset=Work_Zone_Memorize[0], bit_index_work_offset=1*, condition_work_offset=1*)
     0x0CAF [0x3C] SET_BIT_FLAG_CONDITIONAL(target_work_offset=Work_Zone_Memorize[0], bit_index_work_offset=2*, condition_work_offset=1*)
     0x0CB6 [0x3C] SET_BIT_FLAG_CONDITIONAL(target_work_offset=Work_Zone_Memorize[0], bit_index_work_offset=26*, condition_work_offset=1*)
     0x0CBD [0x3D] CLEAR_BIT_FLAG_CONDITIONAL(target_work_offset=Work_Zone_Memorize[0], bit_index_work_offset=27*, condition_work_offset=1*)
     0x0CC4 [0x3D] CLEAR_BIT_FLAG_CONDITIONAL(target_work_offset=Work_Zone_Memorize[0], bit_index_work_offset=28*, condition_work_offset=1*)
     0x0CCB [0x01] GOTO 0x0E36
     0x0CCE [0x02] IF !(ExtData[1]->WorkLocal[10] == 3*) GOTO 0x0D03
     0x0CD6 [0x3D] CLEAR_BIT_FLAG_CONDITIONAL(target_work_offset=Work_Zone_Memorize[0], bit_index_work_offset=0*, condition_work_offset=1*)
     0x0CDD [0x3D] CLEAR_BIT_FLAG_CONDITIONAL(target_work_offset=Work_Zone_Memorize[0], bit_index_work_offset=1*, condition_work_offset=1*)
     0x0CE4 [0x3C] SET_BIT_FLAG_CONDITIONAL(target_work_offset=Work_Zone_Memorize[0], bit_index_work_offset=2*, condition_work_offset=1*)
     0x0CEB [0x3C] SET_BIT_FLAG_CONDITIONAL(target_work_offset=Work_Zone_Memorize[0], bit_index_work_offset=26*, condition_work_offset=1*)
     0x0CF2 [0x3C] SET_BIT_FLAG_CONDITIONAL(target_work_offset=Work_Zone_Memorize[0], bit_index_work_offset=27*, condition_work_offset=1*)
     0x0CF9 [0x3D] CLEAR_BIT_FLAG_CONDITIONAL(target_work_offset=Work_Zone_Memorize[0], bit_index_work_offset=28*, condition_work_offset=1*)
     0x0D00 [0x01] GOTO 0x0E36
     0x0D03 [0x02] IF !(ExtData[1]->WorkLocal[10] == 4*) GOTO 0x0D38
     0x0D0B [0x3D] CLEAR_BIT_FLAG_CONDITIONAL(target_work_offset=Work_Zone_Memorize[0], bit_index_work_offset=0*, condition_work_offset=1*)
     0x0D12 [0x3D] CLEAR_BIT_FLAG_CONDITIONAL(target_work_offset=Work_Zone_Memorize[0], bit_index_work_offset=1*, condition_work_offset=1*)
     0x0D19 [0x3C] SET_BIT_FLAG_CONDITIONAL(target_work_offset=Work_Zone_Memorize[0], bit_index_work_offset=2*, condition_work_offset=1*)
     0x0D20 [0x3C] SET_BIT_FLAG_CONDITIONAL(target_work_offset=Work_Zone_Memorize[0], bit_index_work_offset=26*, condition_work_offset=1*)
     0x0D27 [0x3C] SET_BIT_FLAG_CONDITIONAL(target_work_offset=Work_Zone_Memorize[0], bit_index_work_offset=27*, condition_work_offset=1*)
     0x0D2E [0x3D] CLEAR_BIT_FLAG_CONDITIONAL(target_work_offset=Work_Zone_Memorize[0], bit_index_work_offset=28*, condition_work_offset=1*)
     0x0D35 [0x01] GOTO 0x0E36
     0x0D38 [0x02] IF !(ExtData[1]->WorkLocal[10] == 5*) GOTO 0x0D6D
     0x0D40 [0x3D] CLEAR_BIT_FLAG_CONDITIONAL(target_work_offset=Work_Zone_Memorize[0], bit_index_work_offset=0*, condition_work_offset=1*)
     0x0D47 [0x3D] CLEAR_BIT_FLAG_CONDITIONAL(target_work_offset=Work_Zone_Memorize[0], bit_index_work_offset=1*, condition_work_offset=1*)
     0x0D4E [0x3D] CLEAR_BIT_FLAG_CONDITIONAL(target_work_offset=Work_Zone_Memorize[0], bit_index_work_offset=2*, condition_work_offset=1*)
     0x0D55 [0x3C] SET_BIT_FLAG_CONDITIONAL(target_work_offset=Work_Zone_Memorize[0], bit_index_work_offset=26*, condition_work_offset=1*)
     0x0D5C [0x3C] SET_BIT_FLAG_CONDITIONAL(target_work_offset=Work_Zone_Memorize[0], bit_index_work_offset=27*, condition_work_offset=1*)
     0x0D63 [0x3C] SET_BIT_FLAG_CONDITIONAL(target_work_offset=Work_Zone_Memorize[0], bit_index_work_offset=28*, condition_work_offset=1*)
     0x0D6A [0x01] GOTO 0x0E36
     0x0D6D [0x02] IF !(ExtData[1]->WorkLocal[10] == 6*) GOTO 0x0DA2
     0x0D75 [0x3D] CLEAR_BIT_FLAG_CONDITIONAL(target_work_offset=Work_Zone_Memorize[0], bit_index_work_offset=0*, condition_work_offset=1*)
     0x0D7C [0x3D] CLEAR_BIT_FLAG_CONDITIONAL(target_work_offset=Work_Zone_Memorize[0], bit_index_work_offset=1*, condition_work_offset=1*)
     0x0D83 [0x3D] CLEAR_BIT_FLAG_CONDITIONAL(target_work_offset=Work_Zone_Memorize[0], bit_index_work_offset=2*, condition_work_offset=1*)
     0x0D8A [0x3C] SET_BIT_FLAG_CONDITIONAL(target_work_offset=Work_Zone_Memorize[0], bit_index_work_offset=26*, condition_work_offset=1*)
     0x0D91 [0x3C] SET_BIT_FLAG_CONDITIONAL(target_work_offset=Work_Zone_Memorize[0], bit_index_work_offset=27*, condition_work_offset=1*)
     0x0D98 [0x3C] SET_BIT_FLAG_CONDITIONAL(target_work_offset=Work_Zone_Memorize[0], bit_index_work_offset=28*, condition_work_offset=1*)
     0x0D9F [0x01] GOTO 0x0E36
     0x0DA2 [0x02] IF !(ExtData[1]->WorkLocal[10] == 7*) GOTO 0x0DD7
     0x0DAA [0x3D] CLEAR_BIT_FLAG_CONDITIONAL(target_work_offset=Work_Zone_Memorize[0], bit_index_work_offset=0*, condition_work_offset=1*)
     0x0DB1 [0x3D] CLEAR_BIT_FLAG_CONDITIONAL(target_work_offset=Work_Zone_Memorize[0], bit_index_work_offset=1*, condition_work_offset=1*)
     0x0DB8 [0x3D] CLEAR_BIT_FLAG_CONDITIONAL(target_work_offset=Work_Zone_Memorize[0], bit_index_work_offset=2*, condition_work_offset=1*)
     0x0DBF [0x3C] SET_BIT_FLAG_CONDITIONAL(target_work_offset=Work_Zone_Memorize[0], bit_index_work_offset=26*, condition_work_offset=1*)
     0x0DC6 [0x3C] SET_BIT_FLAG_CONDITIONAL(target_work_offset=Work_Zone_Memorize[0], bit_index_work_offset=27*, condition_work_offset=1*)
     0x0DCD [0x3C] SET_BIT_FLAG_CONDITIONAL(target_work_offset=Work_Zone_Memorize[0], bit_index_work_offset=28*, condition_work_offset=1*)
     0x0DD4 [0x01] GOTO 0x0E36
     0x0DD7 [0x02] IF !(ExtData[1]->WorkLocal[10] == 8*) GOTO 0x0E0C
     0x0DDF [0x3D] CLEAR_BIT_FLAG_CONDITIONAL(target_work_offset=Work_Zone_Memorize[0], bit_index_work_offset=0*, condition_work_offset=1*)
     0x0DE6 [0x3D] CLEAR_BIT_FLAG_CONDITIONAL(target_work_offset=Work_Zone_Memorize[0], bit_index_work_offset=1*, condition_work_offset=1*)
     0x0DED [0x3D] CLEAR_BIT_FLAG_CONDITIONAL(target_work_offset=Work_Zone_Memorize[0], bit_index_work_offset=2*, condition_work_offset=1*)
     0x0DF4 [0x3C] SET_BIT_FLAG_CONDITIONAL(target_work_offset=Work_Zone_Memorize[0], bit_index_work_offset=26*, condition_work_offset=1*)
     0x0DFB [0x3C] SET_BIT_FLAG_CONDITIONAL(target_work_offset=Work_Zone_Memorize[0], bit_index_work_offset=27*, condition_work_offset=1*)
     0x0E02 [0x3C] SET_BIT_FLAG_CONDITIONAL(target_work_offset=Work_Zone_Memorize[0], bit_index_work_offset=28*, condition_work_offset=1*)
     0x0E09 [0x01] GOTO 0x0E36
     0x0E0C [0x3D] CLEAR_BIT_FLAG_CONDITIONAL(target_work_offset=Work_Zone_Memorize[0], bit_index_work_offset=0*, condition_work_offset=1*)
     0x0E13 [0x3C] SET_BIT_FLAG_CONDITIONAL(target_work_offset=Work_Zone_Memorize[0], bit_index_work_offset=1*, condition_work_offset=1*)
     0x0E1A [0x3C] SET_BIT_FLAG_CONDITIONAL(target_work_offset=Work_Zone_Memorize[0], bit_index_work_offset=2*, condition_work_offset=1*)
     0x0E21 [0x3C] SET_BIT_FLAG_CONDITIONAL(target_work_offset=Work_Zone_Memorize[0], bit_index_work_offset=26*, condition_work_offset=1*)
     0x0E28 [0x3D] CLEAR_BIT_FLAG_CONDITIONAL(target_work_offset=Work_Zone_Memorize[0], bit_index_work_offset=27*, condition_work_offset=1*)
     0x0E2F [0x3D] CLEAR_BIT_FLAG_CONDITIONAL(target_work_offset=Work_Zone_Memorize[0], bit_index_work_offset=28*, condition_work_offset=1*)
     0x0E36 [0x1B] RETURN
     0x0E37 [0x02] IF !(ExtData[1]->WorkLocal[10] == 0*) GOTO 0x0E81
     0x0E3F [0x3C] SET_BIT_FLAG_CONDITIONAL(target_work_offset=Work_Zone_Memorize[0], bit_index_work_offset=3*, condition_work_offset=1*)
     0x0E46 [0x3C] SET_BIT_FLAG_CONDITIONAL(target_work_offset=Work_Zone_Memorize[0], bit_index_work_offset=4*, condition_work_offset=1*)
     0x0E4D [0x3C] SET_BIT_FLAG_CONDITIONAL(target_work_offset=Work_Zone_Memorize[0], bit_index_work_offset=5*, condition_work_offset=1*)
     0x0E54 [0x3C] SET_BIT_FLAG_CONDITIONAL(target_work_offset=Work_Zone_Memorize[1], bit_index_work_offset=18*, condition_work_offset=1*)
     0x0E5B [0x3C] SET_BIT_FLAG_CONDITIONAL(target_work_offset=Work_Zone_Memorize[1], bit_index_work_offset=19*, condition_work_offset=1*)
     0x0E62 [0x3C] SET_BIT_FLAG_CONDITIONAL(target_work_offset=Work_Zone_Memorize[0], bit_index_work_offset=18*, condition_work_offset=1*)
     0x0E69 [0x3D] CLEAR_BIT_FLAG_CONDITIONAL(target_work_offset=Work_Zone_Memorize[0], bit_index_work_offset=19*, condition_work_offset=1*)
     0x0E70 [0x3D] CLEAR_BIT_FLAG_CONDITIONAL(target_work_offset=Work_Zone_Memorize[0], bit_index_work_offset=20*, condition_work_offset=1*)
     0x0E77 [0x3D] CLEAR_BIT_FLAG_CONDITIONAL(target_work_offset=Work_Zone_Memorize[0], bit_index_work_offset=21*, condition_work_offset=1*)
     0x0E7E [0x01] GOTO 0x10C6
     0x0E81 [0x02] IF !(ExtData[1]->WorkLocal[10] == 1*) GOTO 0x0ECB
     0x0E89 [0x3C] SET_BIT_FLAG_CONDITIONAL(target_work_offset=Work_Zone_Memorize[0], bit_index_work_offset=3*, condition_work_offset=1*)
     0x0E90 [0x3C] SET_BIT_FLAG_CONDITIONAL(target_work_offset=Work_Zone_Memorize[0], bit_index_work_offset=4*, condition_work_offset=1*)
     0x0E97 [0x3C] SET_BIT_FLAG_CONDITIONAL(target_work_offset=Work_Zone_Memorize[0], bit_index_work_offset=5*, condition_work_offset=1*)
     0x0E9E [0x3C] SET_BIT_FLAG_CONDITIONAL(target_work_offset=Work_Zone_Memorize[1], bit_index_work_offset=18*, condition_work_offset=1*)
     0x0EA5 [0x3C] SET_BIT_FLAG_CONDITIONAL(target_work_offset=Work_Zone_Memorize[1], bit_index_work_offset=19*, condition_work_offset=1*)
     0x0EAC [0x3C] SET_BIT_FLAG_CONDITIONAL(target_work_offset=Work_Zone_Memorize[0], bit_index_work_offset=18*, condition_work_offset=1*)
     0x0EB3 [0x3D] CLEAR_BIT_FLAG_CONDITIONAL(target_work_offset=Work_Zone_Memorize[0], bit_index_work_offset=19*, condition_work_offset=1*)
     0x0EBA [0x3D] CLEAR_BIT_FLAG_CONDITIONAL(target_work_offset=Work_Zone_Memorize[0], bit_index_work_offset=20*, condition_work_offset=1*)
     0x0EC1 [0x3D] CLEAR_BIT_FLAG_CONDITIONAL(target_work_offset=Work_Zone_Memorize[0], bit_index_work_offset=21*, condition_work_offset=1*)
     0x0EC8 [0x01] GOTO 0x10C6
     0x0ECB [0x02] IF !(ExtData[1]->WorkLocal[10] == 2*) GOTO 0x0F15
     0x0ED3 [0x3C] SET_BIT_FLAG_CONDITIONAL(target_work_offset=Work_Zone_Memorize[0], bit_index_work_offset=3*, condition_work_offset=1*)
     0x0EDA [0x3C] SET_BIT_FLAG_CONDITIONAL(target_work_offset=Work_Zone_Memorize[0], bit_index_work_offset=4*, condition_work_offset=1*)
     0x0EE1 [0x3C] SET_BIT_FLAG_CONDITIONAL(target_work_offset=Work_Zone_Memorize[0], bit_index_work_offset=5*, condition_work_offset=1*)
     0x0EE8 [0x3C] SET_BIT_FLAG_CONDITIONAL(target_work_offset=Work_Zone_Memorize[1], bit_index_work_offset=18*, condition_work_offset=1*)
     0x0EEF [0x3C] SET_BIT_FLAG_CONDITIONAL(target_work_offset=Work_Zone_Memorize[1], bit_index_work_offset=19*, condition_work_offset=1*)
     0x0EF6 [0x3C] SET_BIT_FLAG_CONDITIONAL(target_work_offset=Work_Zone_Memorize[0], bit_index_work_offset=18*, condition_work_offset=1*)
     0x0EFD [0x3D] CLEAR_BIT_FLAG_CONDITIONAL(target_work_offset=Work_Zone_Memorize[0], bit_index_work_offset=19*, condition_work_offset=1*)
     0x0F04 [0x3D] CLEAR_BIT_FLAG_CONDITIONAL(target_work_offset=Work_Zone_Memorize[0], bit_index_work_offset=20*, condition_work_offset=1*)
     0x0F0B [0x3D] CLEAR_BIT_FLAG_CONDITIONAL(target_work_offset=Work_Zone_Memorize[0], bit_index_work_offset=21*, condition_work_offset=1*)
     0x0F12 [0x01] GOTO 0x10C6
     0x0F15 [0x02] IF !(ExtData[1]->WorkLocal[10] == 3*) GOTO 0x0F5F
     0x0F1D [0x3D] CLEAR_BIT_FLAG_CONDITIONAL(target_work_offset=Work_Zone_Memorize[0], bit_index_work_offset=3*, condition_work_offset=1*)
     0x0F24 [0x3C] SET_BIT_FLAG_CONDITIONAL(target_work_offset=Work_Zone_Memorize[0], bit_index_work_offset=4*, condition_work_offset=1*)
     0x0F2B [0x3C] SET_BIT_FLAG_CONDITIONAL(target_work_offset=Work_Zone_Memorize[0], bit_index_work_offset=5*, condition_work_offset=1*)
     0x0F32 [0x3D] CLEAR_BIT_FLAG_CONDITIONAL(target_work_offset=Work_Zone_Memorize[1], bit_index_work_offset=18*, condition_work_offset=1*)
     0x0F39 [0x3C] SET_BIT_FLAG_CONDITIONAL(target_work_offset=Work_Zone_Memorize[1], bit_index_work_offset=19*, condition_work_offset=1*)
     0x0F40 [0x3C] SET_BIT_FLAG_CONDITIONAL(target_work_offset=Work_Zone_Memorize[0], bit_index_work_offset=18*, condition_work_offset=1*)
     0x0F47 [0x3C] SET_BIT_FLAG_CONDITIONAL(target_work_offset=Work_Zone_Memorize[0], bit_index_work_offset=19*, condition_work_offset=1*)
     0x0F4E [0x3D] CLEAR_BIT_FLAG_CONDITIONAL(target_work_offset=Work_Zone_Memorize[0], bit_index_work_offset=20*, condition_work_offset=1*)
     0x0F55 [0x3D] CLEAR_BIT_FLAG_CONDITIONAL(target_work_offset=Work_Zone_Memorize[0], bit_index_work_offset=21*, condition_work_offset=1*)
     0x0F5C [0x01] GOTO 0x10C6
     0x0F5F [0x02] IF !(ExtData[1]->WorkLocal[10] == 4*) GOTO 0x0FA9
     0x0F67 [0x3D] CLEAR_BIT_FLAG_CONDITIONAL(target_work_offset=Work_Zone_Memorize[0], bit_index_work_offset=3*, condition_work_offset=1*)
     0x0F6E [0x3C] SET_BIT_FLAG_CONDITIONAL(target_work_offset=Work_Zone_Memorize[0], bit_index_work_offset=4*, condition_work_offset=1*)
     0x0F75 [0x3C] SET_BIT_FLAG_CONDITIONAL(target_work_offset=Work_Zone_Memorize[0], bit_index_work_offset=5*, condition_work_offset=1*)
     0x0F7C [0x3D] CLEAR_BIT_FLAG_CONDITIONAL(target_work_offset=Work_Zone_Memorize[1], bit_index_work_offset=18*, condition_work_offset=1*)
     0x0F83 [0x3C] SET_BIT_FLAG_CONDITIONAL(target_work_offset=Work_Zone_Memorize[1], bit_index_work_offset=19*, condition_work_offset=1*)
     0x0F8A [0x3C] SET_BIT_FLAG_CONDITIONAL(target_work_offset=Work_Zone_Memorize[0], bit_index_work_offset=18*, condition_work_offset=1*)
     0x0F91 [0x3C] SET_BIT_FLAG_CONDITIONAL(target_work_offset=Work_Zone_Memorize[0], bit_index_work_offset=19*, condition_work_offset=1*)
     0x0F98 [0x3D] CLEAR_BIT_FLAG_CONDITIONAL(target_work_offset=Work_Zone_Memorize[0], bit_index_work_offset=20*, condition_work_offset=1*)
     0x0F9F [0x3D] CLEAR_BIT_FLAG_CONDITIONAL(target_work_offset=Work_Zone_Memorize[0], bit_index_work_offset=21*, condition_work_offset=1*)
     0x0FA6 [0x01] GOTO 0x10C6
     0x0FA9 [0x02] IF !(ExtData[1]->WorkLocal[10] == 5*) GOTO 0x0FF3
     0x0FB1 [0x3D] CLEAR_BIT_FLAG_CONDITIONAL(target_work_offset=Work_Zone_Memorize[0], bit_index_work_offset=3*, condition_work_offset=1*)
     0x0FB8 [0x3D] CLEAR_BIT_FLAG_CONDITIONAL(target_work_offset=Work_Zone_Memorize[0], bit_index_work_offset=4*, condition_work_offset=1*)
     0x0FBF [0x3C] SET_BIT_FLAG_CONDITIONAL(target_work_offset=Work_Zone_Memorize[0], bit_index_work_offset=5*, condition_work_offset=1*)
     0x0FC6 [0x3D] CLEAR_BIT_FLAG_CONDITIONAL(target_work_offset=Work_Zone_Memorize[1], bit_index_work_offset=18*, condition_work_offset=1*)
     0x0FCD [0x3D] CLEAR_BIT_FLAG_CONDITIONAL(target_work_offset=Work_Zone_Memorize[1], bit_index_work_offset=19*, condition_work_offset=1*)
     0x0FD4 [0x3C] SET_BIT_FLAG_CONDITIONAL(target_work_offset=Work_Zone_Memorize[0], bit_index_work_offset=18*, condition_work_offset=1*)
     0x0FDB [0x3C] SET_BIT_FLAG_CONDITIONAL(target_work_offset=Work_Zone_Memorize[0], bit_index_work_offset=19*, condition_work_offset=1*)
     0x0FE2 [0x3C] SET_BIT_FLAG_CONDITIONAL(target_work_offset=Work_Zone_Memorize[0], bit_index_work_offset=20*, condition_work_offset=1*)
     0x0FE9 [0x3D] CLEAR_BIT_FLAG_CONDITIONAL(target_work_offset=Work_Zone_Memorize[0], bit_index_work_offset=21*, condition_work_offset=1*)
     0x0FF0 [0x01] GOTO 0x10C6
     0x0FF3 [0x02] IF !(ExtData[1]->WorkLocal[10] == 6*) GOTO 0x103D
     0x0FFB [0x3D] CLEAR_BIT_FLAG_CONDITIONAL(target_work_offset=Work_Zone_Memorize[0], bit_index_work_offset=3*, condition_work_offset=1*)
     0x1002 [0x3D] CLEAR_BIT_FLAG_CONDITIONAL(target_work_offset=Work_Zone_Memorize[0], bit_index_work_offset=4*, condition_work_offset=1*)
     0x1009 [0x3C] SET_BIT_FLAG_CONDITIONAL(target_work_offset=Work_Zone_Memorize[0], bit_index_work_offset=5*, condition_work_offset=1*)
     0x1010 [0x3D] CLEAR_BIT_FLAG_CONDITIONAL(target_work_offset=Work_Zone_Memorize[1], bit_index_work_offset=18*, condition_work_offset=1*)
     0x1017 [0x3D] CLEAR_BIT_FLAG_CONDITIONAL(target_work_offset=Work_Zone_Memorize[1], bit_index_work_offset=19*, condition_work_offset=1*)
     0x101E [0x3C] SET_BIT_FLAG_CONDITIONAL(target_work_offset=Work_Zone_Memorize[0], bit_index_work_offset=18*, condition_work_offset=1*)
     0x1025 [0x3C] SET_BIT_FLAG_CONDITIONAL(target_work_offset=Work_Zone_Memorize[0], bit_index_work_offset=19*, condition_work_offset=1*)
     0x102C [0x3C] SET_BIT_FLAG_CONDITIONAL(target_work_offset=Work_Zone_Memorize[0], bit_index_work_offset=20*, condition_work_offset=1*)
     0x1033 [0x3D] CLEAR_BIT_FLAG_CONDITIONAL(target_work_offset=Work_Zone_Memorize[0], bit_index_work_offset=21*, condition_work_offset=1*)
     0x103A [0x01] GOTO 0x10C6
     0x103D [0x02] IF !(ExtData[1]->WorkLocal[10] == 7*) GOTO 0x1087
     0x1045 [0x3D] CLEAR_BIT_FLAG_CONDITIONAL(target_work_offset=Work_Zone_Memorize[0], bit_index_work_offset=3*, condition_work_offset=1*)
     0x104C [0x3D] CLEAR_BIT_FLAG_CONDITIONAL(target_work_offset=Work_Zone_Memorize[0], bit_index_work_offset=4*, condition_work_offset=1*)
     0x1053 [0x3D] CLEAR_BIT_FLAG_CONDITIONAL(target_work_offset=Work_Zone_Memorize[0], bit_index_work_offset=5*, condition_work_offset=1*)
     0x105A [0x3D] CLEAR_BIT_FLAG_CONDITIONAL(target_work_offset=Work_Zone_Memorize[1], bit_index_work_offset=18*, condition_work_offset=1*)
     0x1061 [0x3D] CLEAR_BIT_FLAG_CONDITIONAL(target_work_offset=Work_Zone_Memorize[1], bit_index_work_offset=19*, condition_work_offset=1*)
     0x1068 [0x3C] SET_BIT_FLAG_CONDITIONAL(target_work_offset=Work_Zone_Memorize[0], bit_index_work_offset=18*, condition_work_offset=1*)
     0x106F [0x3C] SET_BIT_FLAG_CONDITIONAL(target_work_offset=Work_Zone_Memorize[0], bit_index_work_offset=19*, condition_work_offset=1*)
     0x1076 [0x3C] SET_BIT_FLAG_CONDITIONAL(target_work_offset=Work_Zone_Memorize[0], bit_index_work_offset=20*, condition_work_offset=1*)
     0x107D [0x3C] SET_BIT_FLAG_CONDITIONAL(target_work_offset=Work_Zone_Memorize[0], bit_index_work_offset=21*, condition_work_offset=1*)
     0x1084 [0x01] GOTO 0x10C6
     0x1087 [0x3C] SET_BIT_FLAG_CONDITIONAL(target_work_offset=Work_Zone_Memorize[0], bit_index_work_offset=3*, condition_work_offset=1*)
