# Event 65535

## Metadata

| Field           | Value    |
|-----------------|----------|
| Event Index     | 24/55    |
| Offset          | 0x02A2   |
| Data Size       | 60 bytes |
| Calculated Size | 60 bytes |
| Instructions    | 13       |

```
      00 01 02 03 04 05 06 07  08 09 0A 0B 0C 0D 0E 0F
      -- -- -- -- -- -- -- --  -- -- -- -- -- -- -- --
02A0:       59 04 F8 FF FF 7F  15 80 1F 00 4F 80 50 80    Y.........O.P.
02B0: 51 80 1F 01 1F 00 52 80  53 80 51 80 1F 01 1F 00  Q.....R.S.Q.....
02C0: 54 80 55 80 51 80 1F 01  1F 00 56 80 57 80 51 80  T.U.Q.....V.W.Q.
02D0: 1F 01 1F 00 58 80 59 80  5A 80 1F 01 6F 00        ....X.Y.Z...o.  
```

## Opcodes

```
  0: 0x02A2 [0x59] UPDATE_ENTITY_DATA: Set EventEntity main speed = 13* * 0.1
  1: 0x02AA [0x1F] MOVE_ENTITY: EventEntity moves to X=-34.913*, Z=97.041*, Y=-5.000*
  2: 0x02B2 [0x1F] MOVE_ENTITY: Update entity position (mode=1)
  3: 0x02B4 [0x1F] MOVE_ENTITY: EventEntity moves to X=-36.843*, Z=100.526*, Y=-5.000*
  4: 0x02BC [0x1F] MOVE_ENTITY: Update entity position (mode=1)
  5: 0x02BE [0x1F] MOVE_ENTITY: EventEntity moves to X=-38.413*, Z=104.758*, Y=-5.000*
  6: 0x02C6 [0x1F] MOVE_ENTITY: Update entity position (mode=1)
  7: 0x02C8 [0x1F] MOVE_ENTITY: EventEntity moves to X=-39.062*, Z=107.483*, Y=-5.000*
  8: 0x02D0 [0x1F] MOVE_ENTITY: Update entity position (mode=1)
  9: 0x02D2 [0x1F] MOVE_ENTITY: EventEntity moves to X=-40.133*, Z=167.579*, Y=-5.023*
 10: 0x02DA [0x1F] MOVE_ENTITY: Update entity position (mode=1)
 11: 0x02DC [0x6F] WAIT_FRAME_DELAY: Yield until WaitTime reaches zero
 12: 0x02DD [0x00] END_REQSTACK()
```
