# Event 65535

## Metadata

| Field           | Value    |
|-----------------|----------|
| Event Index     | 14/55    |
| Offset          | 0x00DF   |
| Data Size       | 59 bytes |
| Calculated Size | 59 bytes |
| Instructions    | 12       |

```
      00 01 02 03 04 05 06 07  08 09 0A 0B 0C 0D 0E 0F
      -- -- -- -- -- -- -- --  -- -- -- -- -- -- -- --
00D0:                                               59                 Y
00E0: 04 F8 FF FF 7F 1C 80 1F  00 1D 80 1E 80 03 80 1F  ................
00F0: 01 1F 00 1F 80 20 80 03  80 1F 01 1F 00 21 80 22  ..... .......!."
0100: 80 03 80 1F 01 1F 00 23  80 24 80 03 80 1F 01 6F  .......#.$.....o
0110: 4A F8 FF FF 7F 00 E3 05  01 00                    J.........      
```

## Opcodes

```
  0: 0x00DF [0x59] UPDATE_ENTITY_DATA: Set EventEntity main speed = 11* * 0.1
  1: 0x00E7 [0x1F] MOVE_ENTITY: EventEntity moves to X=305.946*, Z=39.219*, Y=-3.500*
  2: 0x00EF [0x1F] MOVE_ENTITY: Update entity position (mode=1)
  3: 0x00F1 [0x1F] MOVE_ENTITY: EventEntity moves to X=305.425*, Z=40.893*, Y=-3.500*
  4: 0x00F9 [0x1F] MOVE_ENTITY: Update entity position (mode=1)
  5: 0x00FB [0x1F] MOVE_ENTITY: EventEntity moves to X=306.760*, Z=42.864*, Y=-3.500*
  6: 0x0103 [0x1F] MOVE_ENTITY: Update entity position (mode=1)
  7: 0x0105 [0x1F] MOVE_ENTITY: EventEntity moves to X=306.465*, Z=43.464*, Y=-3.500*
  8: 0x010D [0x1F] MOVE_ENTITY: Update entity position (mode=1)
  9: 0x010F [0x6F] WAIT_FRAME_DELAY: Yield until WaitTime reaches zero
 10: 0x0110 [0x4A] EventEntity looks at 03 (ID: 17163008/0x0105E300)
 11: 0x0119 [0x00] END_REQSTACK()
```
