# Event 106

## Metadata

| Field           | Value    |
|-----------------|----------|
| Event Index     | 3/3      |
| Offset          | 0x000C   |
| Data Size       | 39 bytes |
| Calculated Size | 39 bytes |
| Instructions    | 14       |

```
      00 01 02 03 04 05 06 07  08 09 0A 0B 0C 0D 0E 0F
      -- -- -- -- -- -- -- --  -- -- -- -- -- -- -- --
0000:                                      20 01 1D 00               ...
0010: 80 23 24 01 80 02 80 03  80 25 02 00 10 03 80 00  .#$......%......
0020: 2F 00 43 00 43 01 42 03  01 10 02 80 01 2F 00 20  /.C.C.B....../. 
0030: 00 21 00                                          .!.             
```

## Opcodes

```
  0: 0x000C [0x20] SET_CLI_EVENT_UC_FLAG: Lock player control
  1: 0x000E [0x1D] PRINT_EVENT_MESSAGE(message_id=7553*)
    → "Do you want to give up?\u007F1\u0000\u0007"
  2: 0x0011 [0x23] WAIT_FOR_DIALOG_INTERACTION
  3: 0x0012 [0x24] CREATE_DIALOG(message_id=7554*, default_option=1*, option_flags=0*)
    → "End the mission?\u0007\u000BGive up.\u0007Not yet.\u007F1\u0000\u0007"
  4: 0x0019 [0x25] WAIT_DIALOG_SELECT()
  5: 0x001A [0x02] IF !(Work_Zone[0] == 0*) GOTO 0x002F
  6: 0x0022 [0x43] SEND_EVENT_UPDATE: Send pending tag to server (packet 0x005B)
  7: 0x0024 [0x43] SEND_EVENT_UPDATE: Check pending flag (skip if not pending)
  8: 0x0026 [0x42] SET_CLI_EVENT_CANCEL_DATA()
  9: 0x0027 [0x03] Work_Zone[1] = 1*
 10: 0x002C [0x01] GOTO 0x002F

SUBROUTINE_002F:
 11: 0x002F [0x20] SET_CLI_EVENT_UC_FLAG: Unlock player control
 12: 0x0031 [0x21] END_EVENT
 13: 0x0032 [0x00] END_REQSTACK()
```
