# 17199774

## Common Data

| Field            | Value                   |
|------------------|-------------------------|
| Zone             | Valkurm Dunes (ID: 103) |
| Block Size       | 4236 bytes              |
| Total Events     | 3                       |
| References Count | 112                     |

## List of Events

| Event ID              | Entrypoint   |   Size |   Instructions |
|-----------------------|--------------|--------|----------------|
| [65535](#event-65535) | 0x0000       |      1 |              1 |
| [56](#event-56)       | 0x0001       |   1921 |            245 |
| [57](#event-57)       | 0x0782       |   1836 |            219 |

## DAT References (imed_data)

|   Index | Hex Value   |   Dec Value |
|---------|-------------|-------------|
|       0 | 0x0013      |          19 |
|       1 | 0x58B19     |      363289 |
|       2 | 0xFFFE2DF8  |  4294847992 |
|       3 | 0x0000      |           0 |
|       4 | 0x0041      |          65 |
|       5 | 0x588ED     |      362733 |
|       6 | 0xFFFE09D0  |  4294838736 |
|       7 | 0x016C      |         364 |
|       8 | 0x042C      |        1068 |
|       9 | 0xFFF76C5F  |  4294405215 |
|      10 | 0x9BEBD     |      638653 |
|      11 | 0x01F1      |         497 |
|      12 | 0x58BE1     |      363489 |
|      13 | 0xFFFE38A7  |  4294850727 |
|      14 | 0xFFFF95F0  |  4294940144 |
|      15 | 0x088F      |        2191 |
|      16 | 0x001E      |          30 |
|      17 | 0x01E9      |         489 |
|      18 | 0x0078      |         120 |
|      19 | 0x0034      |          52 |
|      20 | 0x2C9A      |       11418 |
|      21 | 0x000F      |          15 |
|      22 | 0x2C9B      |       11419 |
|      23 | 0x0010      |          16 |
|      24 | 0x04F7      |        1271 |
|      25 | 0x2C9C      |       11420 |
|      26 | 0x0024      |          36 |
|      27 | 0x2C9D      |       11421 |
|      28 | 0x2C9E      |       11422 |
|      29 | 0x0007      |           7 |
|      30 | 0x2C9F      |       11423 |
|      31 | 0x003B      |          59 |
|      32 | 0x2CA0      |       11424 |
|      33 | 0x2CA1      |       11425 |
|      34 | 0x0001      |           1 |
|      35 | 0x0006      |           6 |
|      36 | 0x003C      |          60 |
|      37 | 0x007B      |         123 |
|      38 | 0x2CA2      |       11426 |
|      39 | 0x2CA3      |       11427 |
|      40 | 0x2CA4      |       11428 |
|      41 | 0x2CA5      |       11429 |
|      42 | 0x2CA6      |       11430 |
|      43 | 0x2CA7      |       11431 |
|      44 | 0x2CA8      |       11432 |
|      45 | 0x2CA9      |       11433 |
|      46 | 0x2CAA      |       11434 |
|      47 | 0x0002      |           2 |
|      48 | 0x0003      |           3 |
|      49 | 0x0004      |           4 |
|      50 | 0x0005      |           5 |
|      51 | 0x0008      |           8 |
|      52 | 0x2CAB      |       11435 |
|      53 | 0x0023      |          35 |
|      54 | 0x2CAC      |       11436 |
|      55 | 0x00D5      |         213 |
|      56 | 0x2CAD      |       11437 |
|      57 | 0x2CAE      |       11438 |
|      58 | 0x0081      |         129 |
|      59 | 0x2CAF      |       11439 |
|      60 | 0x00FF      |         255 |
|      61 | 0x2CB0      |       11440 |
|      62 | 0x2CB1      |       11441 |
|      63 | 0x2CB2      |       11442 |
|      64 | 0x005A      |          90 |
|      65 | 0x2CB3      |       11443 |
|      66 | 0x2CB4      |       11444 |
|      67 | 0x012C      |         300 |
|      68 | 0x004F      |          79 |
|      69 | 0x00D2      |         210 |
|      70 | 0x00C8      |         200 |
|      71 | 0x58BCB     |      363467 |
|      72 | 0xFFFE2C58  |  4294847576 |
|      73 | 0x081E      |        2078 |
|      74 | 0x5A47B     |      369787 |
|      75 | 0xFFFE1B70  |  4294843248 |
|      76 | 0xFFFFFD5D  |  4294966621 |
|      77 | 0x098E      |        2446 |
|      78 | 0xFFF76224  |  4294402596 |
|      79 | 0x9D1F8     |      643576 |
|      80 | 0x0021      |          33 |
|      81 | 0x019A      |         410 |
|      82 | 0x0050      |          80 |
|      83 | 0x2CB5      |       11445 |
|      84 | 0x2CB6      |       11446 |
|      85 | 0x001A      |          26 |
|      86 | 0x2CB7      |       11447 |
|      87 | 0x0096      |         150 |
|      88 | 0x2CB8      |       11448 |
|      89 | 0x000A      |          10 |
|      90 | 0x2CB9      |       11449 |
|      91 | 0x2CBA      |       11450 |
|      92 | 0x2CBB      |       11451 |
|      93 | 0x2CBC      |       11452 |
|      94 | 0x2CBD      |       11453 |
|      95 | 0x2CBE      |       11454 |
|      96 | 0x2CBF      |       11455 |
|      97 | 0x2CC0      |       11456 |
|      98 | 0x0079      |         121 |
|      99 | 0x2CC1      |       11457 |
|     100 | 0x000B      |          11 |
|     101 | 0x2CC2      |       11458 |
|     102 | 0x0C00      |        3072 |
|     103 | 0x002D      |          45 |
|     104 | 0x2CC3      |       11459 |
|     105 | 0x006A      |         106 |
|     106 | 0x2CC4      |       11460 |
|     107 | 0x0069      |         105 |
|     108 | 0x2CC5      |       11461 |
|     109 | 0x2CC6      |       11462 |
|     110 | 0x00C9      |         201 |
|     111 | 0x00D7      |         215 |

## String References

- **11425**: Lend Kuchi your ears? [Certainly./Um, I really must be go--]

## Events

### Event 65535

#### Metadata

| Field        | Value   |
|--------------|---------|
| Entrypoint   | 0x0000  |
| Data Size    | 1 bytes |
| Instructions | 1       |

```
      00 01 02 03 04 05 06 07  08 09 0A 0B 0C 0D 0E 0F
      -- -- -- -- -- -- -- --  -- -- -- -- -- -- -- --
0000: 00                                                .               
```

#### Opcodes

```
  0: 0x0000 [0x00] END_REQSTACK()
```

### Event 56

#### Metadata

| Field        | Value      |
|--------------|------------|
| Entrypoint   | 0x0001     |
| Data Size    | 1921 bytes |
| Instructions | 245        |

```
      00 01 02 03 04 05 06 07  08 09 0A 0B 0C 0D 0E 0F
      -- -- -- -- -- -- -- --  -- -- -- -- -- -- -- --
0000:    42 1A 80 0C 46 01 38  00 80 27 10 9F 72 06 01   B...F.8..'..r..
0010: 04 27 10 A0 72 06 01 04  4E 00 A2 72 06 01 4E 00  .'..r...N..r..N.
0020: A1 72 06 01 92 01 9F 72  06 01 94 01 F0 FF FF 7F  .r.....r........
0030: 94 01 9F 72 06 01 94 01  9C 72 06 01 94 01 A2 72  ...r.....r.....r
0040: 06 01 94 01 A1 72 06 01  94 01 A0 72 06 01 BA F0  .....r.....r....
0050: FF FF 7F 01 80 02 80 03  80 04 80 BA 9F 72 06 01  .............r..
0060: 05 80 06 80 07 80 08 80  BA A2 72 06 01 09 80 0A  ..........r.....
0070: 80 03 80 0B 80 59 05 A1  72 06 01 01 BA A1 72 06  .....Y..r.....r.
0080: 01 0C 80 0D 80 0E 80 0F  80 59 05 A0 72 06 01 01  .........Y..r...
0090: BA A0 72 06 01 0C 80 0D  80 0E 80 0F 80 29 10 A0  ..r..........)..
00A0: 72 06 01 09 29 10 9F 72  06 01 0A 80 F0 FF FF 7F  r...)..r........
00B0: 80 9F 72 06 01 80 9C 72  06 01 80 A0 72 06 01 1C  ..r....r....r...
00C0: 10 80 45 11 80 F0 FF FF  7F F0 FF FF 7F 37 33 30  ..E..........730
00D0: 30 03 80 1A 5F 0C 1C 12  80 52 11 80 F0 FF FF 7F  0..._....R......
00E0: F0 FF FF 7F 37 33 30 30  45 11 80 F0 FF FF 7F F0  ....7300E.......
00F0: FF FF 7F 37 33 30 31 03  80 1C 10 80 79 00 F0 FF  ...7301.....y...
0100: FF 7F 9C 72 06 01 1C 12  80 5C 00 13 80 5C 01 13  ...r.....\...\..
0110: 80 9A 27 10 9F 72 06 01  0E 52 11 80 F0 FF FF 7F  ..'..r...R......
0120: F0 FF FF 7F 37 33 30 31  45 11 80 F0 FF FF 7F F0  ....7301E.......
0130: FF FF 7F 37 33 30 32 03  80 2B 9F 72 06 01 14 80  ...7302..+.r....
0140: 1C 15 80 4A F0 FF FF 7F  9F 72 06 01 23 2A 10 9F  ...J.....r..#*..
0150: 72 06 01 52 11 80 F0 FF  FF 7F F0 FF FF 7F 37 33  r..R..........73
0160: 30 32 45 11 80 F0 FF FF  7F F0 FF FF 7F 37 33 30  02E..........730
0170: 33 03 80 1C 12 80 27 10  9F 72 06 01 0F 1C 10 80  3.....'..r......
0180: 52 11 80 F0 FF FF 7F F0  FF FF 7F 37 33 30 33 45  R..........7303E
0190: 11 80 F0 FF FF 7F F0 FF  FF 7F 37 33 30 34 03 80  ..........7304..
01A0: 1C 10 80 2B 9F 72 06 01  16 80 23 2A 10 9F 72 06  ...+.r....#*..r.
01B0: 01 5D 03 80 12 80 6E 9F  72 06 01 17 80 99 9F 72  .]....n.r......r
01C0: 06 01 03 02 10 18 80 2B  9F 72 06 01 19 80 1C 12  .......+.r......
01D0: 80 23 52 11 80 F0 FF FF  7F F0 FF FF 7F 37 33 30  .#R..........730
01E0: 34 45 11 80 F0 FF FF 7F  F0 FF FF 7F 37 33 30 35  4E..........7305
01F0: 03 80 6E 9F 72 06 01 1A  80 99 9F 72 06 01 2B 9F  ..n.r......r..+.
0200: 72 06 01 1B 80 1C 12 80  23 52 11 80 F0 FF FF 7F  r.......#R......
0210: F0 FF FF 7F 37 33 30 35  45 11 80 F0 FF FF 7F F0  ....7305E.......
0220: FF FF 7F 37 33 30 36 03  80 29 10 F0 FF FF 7F 22  ...7306..)....."
0230: 2B 9F 72 06 01 1C 80 23  29 10 9F 72 06 01 0B 6E  +.r....#)..r...n
0240: 9F 72 06 01 1D 80 99 9F  72 06 01 2B 9F 72 06 01  .r......r..+.r..
0250: 1E 80 23 52 11 80 F0 FF  FF 7F F0 FF FF 7F 37 33  ..#R..........73
0260: 30 36 45 11 80 F0 FF FF  7F F0 FF FF 7F 37 33 30  06E..........730
0270: 37 03 80 66 1F 80 9F 72  06 01 9F 72 06 01 74 6C  7..f...r...r..tl
0280: 6B 30 2B 9F 72 06 01 20  80 23 66 1F 80 9F 72 06  k0+.r.. .#f...r.
0290: 01 9F 72 06 01 74 6C 6B  31 24 21 80 03 80 03 80  ..r..tlk1$!.....
02A0: 25 02 00 10 03 80 00 B8  02 6E F0 FF FF 7F 1D 80  %........n......
02B0: 99 F0 FF FF 7F 01 CF 02  02 00 10 22 80 00 CF 02  ..........."....
02C0: 6E F0 FF FF 7F 23 80 99  F0 FF FF 7F 01 CF 02 1C  n....#..........
02D0: 24 80 5C 00 25 80 5C 01  25 80 9A 52 11 80 F0 FF  $.\.%.\.%..R....
02E0: FF 7F F0 FF FF 7F 37 33  30 37 45 11 80 F0 FF FF  ......7307E.....
02F0: 7F F0 FF FF 7F 37 33 30  38 03 80 79 00 9F 72 06  .....7308..y..r.
0300: 01 9C 72 06 01 1C 10 80  4A F0 FF FF 7F 9F 72 06  ..r.....J.....r.
0310: 01 2B 9F 72 06 01 26 80  23 2B 9F 72 06 01 27 80  .+.r..&.#+.r..'.
0320: 23 52 11 80 F0 FF FF 7F  F0 FF FF 7F 37 33 30 38  #R..........7308
0330: 45 11 80 F0 FF FF 7F F0  FF FF 7F 37 33 30 39 03  E..........7309.
0340: 80 7B 9F 72 06 01 66 1F  80 9F 72 06 01 9F 72 06  .{.r..f...r...r.
0350: 01 74 6C 6B 30 2B 9F 72  06 01 28 80 23 2B 9F 72  .tlk0+.r..(.#+.r
0360: 06 01 29 80 23 52 11 80  F0 FF FF 7F F0 FF FF 7F  ..).#R..........
0370: 37 33 30 39 45 11 80 F0  FF FF 7F F0 FF FF 7F 37  7309E..........7
0380: 33 31 30 03 80 66 1F 80  9F 72 06 01 9F 72 06 01  310..f...r...r..
0390: 74 6C 6B 31 2B 9F 72 06  01 2A 80 23 53 9F 72 06  tlk1+.r..*.#S.r.
03A0: 01 9F 72 06 01 74 6C 6B  31 7B 9F 72 06 01 66 1F  ..r..tlk1{.r..f.
03B0: 80 9F 72 06 01 9F 72 06  01 74 68 6B 31 2B 9F 72  ..r...r..thk1+.r
03C0: 06 01 2B 80 23 52 11 80  F0 FF FF 7F F0 FF FF 7F  ..+.#R..........
03D0: 37 33 31 30 45 11 80 F0  FF FF 7F F0 FF FF 7F 37  7310E..........7
03E0: 33 31 31 03 80 2B 9F 72  06 01 2C 80 23 2B 9F 72  311..+.r..,.#+.r
03F0: 06 01 2D 80 23 52 11 80  F0 FF FF 7F F0 FF FF 7F  ..-.#R..........
0400: 37 33 31 31 45 11 80 F0  FF FF 7F F0 FF FF 7F 37  7311E..........7
0410: 33 31 32 03 80 66 1F 80  9F 72 06 01 9F 72 06 01  312..f...r...r..
0420: 74 68 6B 32 2B 9F 72 06  01 2E 80 23 7B F0 FF FF  thk2+.r....#{...
0430: 7F 52 11 80 F0 FF FF 7F  F0 FF FF 7F 37 33 31 32  .R..........7312
0440: 29 10 F0 FF FF 7F 25 02  02 10 22 80 80 63 04 45  ).....%..."..c.E
0450: 11 80 F0 FF FF 7F F0 FF  FF 7F 37 33 68 6D 03 80  ..........73hm..
0460: 01 27 05 02 02 10 2F 80  80 7F 04 45 11 80 F0 FF  .'..../....E....
0470: FF 7F F0 FF FF 7F 37 33  68 66 03 80 01 27 05 02  ......73hf...'..
0480: 02 10 30 80 80 9B 04 45  11 80 F0 FF FF 7F F0 FF  ..0....E........
0490: FF 7F 37 33 65 6D 03 80  01 27 05 02 02 10 31 80  ..73em...'....1.
04A0: 80 B7 04 45 11 80 F0 FF  FF 7F F0 FF FF 7F 37 33  ...E..........73
04B0: 65 66 03 80 01 27 05 02  02 10 32 80 80 D3 04 45  ef...'....2....E
04C0: 11 80 F0 FF FF 7F F0 FF  FF 7F 37 33 74 72 03 80  ..........73tr..
04D0: 01 27 05 02 02 10 23 80  80 EF 04 45 11 80 F0 FF  .'....#....E....
04E0: FF 7F F0 FF FF 7F 37 33  74 72 03 80 01 27 05 02  ......73tr...'..
04F0: 02 10 1D 80 80 0B 05 45  11 80 F0 FF FF 7F F0 FF  .......E........
0500: FF 7F 37 33 6D 74 03 80  01 27 05 02 02 10 33 80  ..73mt...'....3.
0510: 80 27 05 45 11 80 F0 FF  FF 7F F0 FF FF 7F 37 33  .'.E..........73
0520: 67 6C 03 80 01 27 05 1C  12 80 52 11 80 F0 FF FF  gl...'....R.....
0530: 7F F0 FF FF 7F 37 33 68  6D 52 11 80 F0 FF FF 7F  .....73hmR......
0540: F0 FF FF 7F 37 33 68 66  52 11 80 F0 FF FF 7F F0  ....73hfR.......
0550: FF FF 7F 37 33 65 6D 52  11 80 F0 FF FF 7F F0 FF  ...73emR........
0560: FF 7F 37 33 65 66 52 11  80 F0 FF FF 7F F0 FF FF  ..73efR.........
0570: 7F 37 33 74 72 52 11 80  F0 FF FF 7F F0 FF FF 7F  .73trR..........
0580: 37 33 6D 74 52 11 80 F0  FF FF 7F F0 FF FF 7F 37  73mtR..........7
0590: 33 67 6C 45 11 80 F0 FF  FF 7F F0 FF FF 7F 37 33  3glE..........73
05A0: 31 33 03 80 5D 03 80 12  80 2B 9F 72 06 01 34 80  13..]....+.r..4.
05B0: 23 6E 9F 72 06 01 35 80  99 9F 72 06 01 2B 9F 72  #n.r..5...r..+.r
05C0: 06 01 36 80 1C 12 80 23  52 11 80 F0 FF FF 7F F0  ..6....#R.......
05D0: FF FF 7F 37 33 31 33 45  11 80 F0 FF FF 7F F0 FF  ...7313E........
05E0: FF 7F 37 33 31 34 03 80  C5 37 80 A1 72 06 01 A1  ..7314...7..r...
05F0: 72 06 01 73 30 30 30 03  80 66 1F 80 9F 72 06 01  r..s000..f...r..
0600: 9F 72 06 01 74 6C 6B 30  2B 9F 72 06 01 38 80 23  .r..tlk0+.r..8.#
0610: 2B 9F 72 06 01 39 80 23  5C 00 3A 80 5C 01 3A 80  +.r..9.#\.:.\.:.
0620: 9A 66 1F 80 9F 72 06 01  9F 72 06 01 74 6C 6B 31  .f...r...r..tlk1
0630: 2B 9F 72 06 01 3B 80 23  52 11 80 F0 FF FF 7F F0  +.r..;.#R.......
0640: FF FF 7F 37 33 31 34 45  11 80 F0 FF FF 7F F0 FF  ...7314E........
0650: FF 7F 37 33 31 35 03 80  77 3C 80 22 80 AB 09 1C  ..7315..w<."....
0660: 24 80 2B 9F 72 06 01 3D  80 23 52 11 80 F0 FF FF  $.+.r..=.#R.....
0670: 7F F0 FF FF 7F 37 33 31  35 45 11 80 F0 FF FF 7F  .....7315E......
0680: F0 FF FF 7F 37 33 31 36  03 80 1C 24 80 2B 9F 72  ....7316...$.+.r
0690: 06 01 3E 80 23 52 11 80  F0 FF FF 7F F0 FF FF 7F  ..>.#R..........
06A0: 37 33 31 36 45 11 80 F0  FF FF 7F F0 FF FF 7F 37  7316E..........7
06B0: 33 31 37 03 80 AB 0A 78  1C 24 80 C5 37 80 A1 72  317....x.$..7..r
06C0: 06 01 A1 72 06 01 6B 69  6C 30 03 80 4E 01 A0 72  ...r..kil0..N..r
06D0: 06 01 6E 9F 72 06 01 03  80 99 9F 72 06 01 2B 9F  ..n.r......r..+.
06E0: 72 06 01 3F 80 1C 40 80  23 2B 9F 72 06 01 41 80  r..?..@.#+.r..A.
06F0: 23 52 11 80 F0 FF FF 7F  F0 FF FF 7F 37 33 31 37  #R..........7317
0700: 45 11 80 F0 FF FF 7F F0  FF FF 7F 37 33 31 38 03  E..........7318.
0710: 80 2B 9F 72 06 01 42 80  23 5D 03 80 43 80 6E 9F  .+.r..B.#]..C.n.
0720: 72 06 01 33 80 99 9F 72  06 01 CD 44 80 9F 72 06  r..3...r...D..r.
0730: 01 9F 72 06 01 6D 61 69  6E 03 80 1C 45 80 1A 80  ..r..main...E...
0740: 0C 1C 10 80 52 11 80 F0  FF FF 7F F0 FF FF 7F 37  ....R..........7
0750: 33 31 38 45 11 80 F0 FF  FF 7F F0 FF FF 7F 30 62  318E..........0b
0760: 6C 66 03 80 5C 00 03 80  5C 01 03 80 9A 46 00 45  lf..\...\....F.E
0770: 46 80 F0 FF FF 7F F0 FF  FF 7F 66 64 69 32 03 80  F.........fdi2..
0780: 21 00                                             !.              
```

#### Opcodes

```
  0: 0x0001 [0x42] SET_CLI_EVENT_CANCEL_DATA()
  1: 0x0002 [0x1A] CALL_SUBROUTINE(address=0x0C80)
  2: 0x0005 [0x46] CAMERA_CONTROL: Disable user control
  3: 0x0007 [0x38] SET_CLIENT_EVENT_MODE(mode=19*)
  4: 0x000A [0x27] REQ_SET(priority=0x10, entity_id=Kuchi Eyjhann (ID: 17199775/0x0106729F), tag_num=0x04)
  5: 0x0011 [0x27] REQ_SET(priority=0x10, entity_id=Unnamed NPC (ID: 17199776/0x010672A0), tag_num=0x04)
  6: 0x0018 [0x4E] SET_ENTITY_HIDE_FLAG: Show Unnamed NPC (ID: 17199778/0x010672A2)
  7: 0x001E [0x4E] SET_ENTITY_HIDE_FLAG: Show ??? (ID: 17199777/0x010672A1)
  8: 0x0024 [0x92] Kuchi Eyjhann (ID: 17199775/0x0106729F)->Render.Flags3 ^= 0x01
  9: 0x002A [0x94] LocalPlayer->Render.Flags3 ^= 0x01
 10: 0x0030 [0x94] Kuchi Eyjhann (ID: 17199775/0x0106729F)->Render.Flags3 ^= 0x01
 11: 0x0036 [0x94] Cavernous Maw (ID: 17199772/0x0106729C)->Render.Flags3 ^= 0x01
 12: 0x003C [0x94] Unnamed NPC (ID: 17199778/0x010672A2)->Render.Flags3 ^= 0x01
 13: 0x0042 [0x94] ??? (ID: 17199777/0x010672A1)->Render.Flags3 ^= 0x01
 14: 0x0048 [0x94] Unnamed NPC (ID: 17199776/0x010672A0)->Render.Flags3 ^= 0x01
 15: 0x004E [0xBA] SET_ENTITY_POSITION(entity_id=LocalPlayer, pos_x=363.289*, pos_z=-119.304*, pos_y=0.000*, direction=5.7°*)
 16: 0x005B [0xBA] SET_ENTITY_POSITION(entity_id=Kuchi Eyjhann (ID: 17199775/0x0106729F), pos_x=362.733*, pos_z=-128.560*, pos_y=0.364*, direction=93.9°*)
 17: 0x0068 [0xBA] SET_ENTITY_POSITION(entity_id=Unnamed NPC (ID: 17199778/0x010672A2), pos_x=-562.081*, pos_z=638.653*, pos_y=0.000*, direction=43.7°*)
 18: 0x0075 [0x59] UPDATE_ENTITY_DATA: ??? (ID: 17199777/0x010672A1)->Render.Flags0 |= 0x200000
 19: 0x007C [0xBA] SET_ENTITY_POSITION(entity_id=??? (ID: 17199777/0x010672A1), pos_x=363.489*, pos_z=-116.569*, pos_y=-27.152*, direction=192.6°*)
 20: 0x0089 [0x59] UPDATE_ENTITY_DATA: Unnamed NPC (ID: 17199776/0x010672A0)->Render.Flags0 |= 0x200000
 21: 0x0090 [0xBA] SET_ENTITY_POSITION(entity_id=Unnamed NPC (ID: 17199776/0x010672A0), pos_x=363.489*, pos_z=-116.569*, pos_y=-27.152*, direction=192.6°*)
 22: 0x009D [0x29] REQ_SET_WAIT(priority=0x10, entity_id=Unnamed NPC (ID: 17199776/0x010672A0), tag_num=0x09)
 23: 0x00A4 [0x29] REQ_SET_WAIT(priority=0x10, entity_id=Kuchi Eyjhann (ID: 17199775/0x0106729F), tag_num=0x0A)
 24: 0x00AB [0x80] LOAD_WAIT(entity=LocalPlayer)
 25: 0x00B0 [0x80] LOAD_WAIT(entity=Kuchi Eyjhann (ID: 17199775/0x0106729F))
 26: 0x00B5 [0x80] LOAD_WAIT(entity=Cavernous Maw (ID: 17199772/0x0106729C))
 27: 0x00BA [0x80] LOAD_WAIT(entity=Unnamed NPC (ID: 17199776/0x010672A0))
 28: 0x00BF [0x1C] WAIT(30* ticks)
 29: 0x00C2 [0x45] LOAD_SCHEDULED_TASK: Load scheduler "7300" with entities [LocalPlayer, LocalPlayer], work=[489*, 0*]
 30: 0x00D3 [0x1A] CALL_SUBROUTINE(address=0x0C5F)
 31: 0x00D6 [0x1C] WAIT(120* ticks)
 32: 0x00D9 [0x52] END_LOAD_SCHEDULER: End scheduler "7300" with entities [LocalPlayer, LocalPlayer], work=489*
 33: 0x00E8 [0x45] LOAD_SCHEDULED_TASK: Load scheduler "7301" with entities [LocalPlayer, LocalPlayer], work=[489*, 0*]
 34: 0x00F9 [0x1C] WAIT(30* ticks)
 35: 0x00FC [0x79] LocalPlayer looks at Cavernous Maw (ID: 17199772/0x0106729C) (Basic look)
 36: 0x0106 [0x1C] WAIT(120* ticks)
 37: 0x0109 [0x5C] MUSIC_CONTROL: Set Idle (Day) music to song 52*
 38: 0x010D [0x5C] MUSIC_CONTROL: Set Idle (Night) music to song 52*
 39: 0x0111 [0x9A] WAIT_MUSIC_SERVER()
 40: 0x0112 [0x27] REQ_SET(priority=0x10, entity_id=Kuchi Eyjhann (ID: 17199775/0x0106729F), tag_num=0x0E)
 41: 0x0119 [0x52] END_LOAD_SCHEDULER: End scheduler "7301" with entities [LocalPlayer, LocalPlayer], work=489*
 42: 0x0128 [0x45] LOAD_SCHEDULED_TASK: Load scheduler "7302" with entities [LocalPlayer, LocalPlayer], work=[489*, 0*]
 43: 0x0139 [0x2B] Kuchi Eyjhann (ID: 17199775/0x0106729F) [11418*]:
    → "Hey, you! Step away from there!"
 44: 0x0140 [0x1C] WAIT(15* ticks)
 45: 0x0143 [0x4A] LocalPlayer looks at Kuchi Eyjhann (ID: 17199775/0x0106729F)
 46: 0x014C [0x23] WAIT_FOR_DIALOG_INTERACTION
 47: 0x014D [0x2A] GET_REQ_LEVEL(level=16, entity_id=Kuchi Eyjhann (ID: 17199775/0x0106729F))
 48: 0x0153 [0x52] END_LOAD_SCHEDULER: End scheduler "7302" with entities [LocalPlayer, LocalPlayer], work=489*
 49: 0x0162 [0x45] LOAD_SCHEDULED_TASK: Load scheduler "7303" with entities [LocalPlayer, LocalPlayer], work=[489*, 0*]
 50: 0x0173 [0x1C] WAIT(120* ticks)
 51: 0x0176 [0x27] REQ_SET(priority=0x10, entity_id=Kuchi Eyjhann (ID: 17199775/0x0106729F), tag_num=0x0F)
 52: 0x017D [0x1C] WAIT(30* ticks)
 53: 0x0180 [0x52] END_LOAD_SCHEDULER: End scheduler "7303" with entities [LocalPlayer, LocalPlayer], work=489*
 54: 0x018F [0x45] LOAD_SCHEDULED_TASK: Load scheduler "7304" with entities [LocalPlayer, LocalPlayer], work=[489*, 0*]
 55: 0x01A0 [0x1C] WAIT(30* ticks)
 56: 0x01A3 [0x2B] Kuchi Eyjhann (ID: 17199775/0x0106729F) [11419*]:
    → "Sorry I shouted at you, strangerrr, but it was for your own safety. Another ilm towards that gaping maw, and you might've been--"
 57: 0x01AA [0x23] WAIT_FOR_DIALOG_INTERACTION
 58: 0x01AB [0x2A] GET_REQ_LEVEL(level=16, entity_id=Kuchi Eyjhann (ID: 17199775/0x0106729F))
 59: 0x01B1 [0x5D] SET_MUSIC_VOLUME(volume=0*, fade_time=120*)
 60: 0x01B6 [0x6E] Kuchi Eyjhann (ID: 17199775/0x0106729F) uses emote 16*
 61: 0x01BD [0x99] Wait for Kuchi Eyjhann (ID: 17199775/0x0106729F) animation to complete
 62: 0x01C2 [0x03] Work_Zone[2] = 1271*
 63: 0x01C7 [0x2B] Kuchi Eyjhann (ID: 17199775/0x0106729F) [11420*]:
    → "Hold on a second... Is that $6 in your pocket...or just something strrrikingly similar in shape and size?"
 64: 0x01CE [0x1C] WAIT(120* ticks)
 65: 0x01D1 [0x23] WAIT_FOR_DIALOG_INTERACTION
 66: 0x01D2 [0x52] END_LOAD_SCHEDULER: End scheduler "7304" with entities [LocalPlayer, LocalPlayer], work=489*
 67: 0x01E1 [0x45] LOAD_SCHEDULED_TASK: Load scheduler "7305" with entities [LocalPlayer, LocalPlayer], work=[489*, 0*]
 68: 0x01F2 [0x6E] Kuchi Eyjhann (ID: 17199775/0x0106729F) uses emote 36*
 69: 0x01F9 [0x99] Wait for Kuchi Eyjhann (ID: 17199775/0x0106729F) animation to complete
 70: 0x01FE [0x2B] Kuchi Eyjhann (ID: 17199775/0x0106729F) [11421*]:
    → "It is!? Well, then, that clearrrs up everything. Nice and tidy, like."
 71: 0x0205 [0x1C] WAIT(120* ticks)
 72: 0x0208 [0x23] WAIT_FOR_DIALOG_INTERACTION
 73: 0x0209 [0x52] END_LOAD_SCHEDULER: End scheduler "7305" with entities [LocalPlayer, LocalPlayer], work=489*
 74: 0x0218 [0x45] LOAD_SCHEDULED_TASK: Load scheduler "7306" with entities [LocalPlayer, LocalPlayer], work=[489*, 0*]
 75: 0x0229 [0x29] REQ_SET_WAIT(priority=0x10, entity_id=LocalPlayer, tag_num=0x22)
 76: 0x0230 [0x2B] Kuchi Eyjhann (ID: 17199775/0x0106729F) [11422*]:
    → "Who am I, you ask? Awww, c'mon! As if you hadn't already figurrred out that I'm a friend of old Joachim's!"
 77: 0x0237 [0x23] WAIT_FOR_DIALOG_INTERACTION
 78: 0x0238 [0x29] REQ_SET_WAIT(priority=0x10, entity_id=Kuchi Eyjhann (ID: 17199775/0x0106729F), tag_num=0x0B)
 79: 0x023F [0x6E] Kuchi Eyjhann (ID: 17199775/0x0106729F) uses emote 7*
 80: 0x0246 [0x99] Wait for Kuchi Eyjhann (ID: 17199775/0x0106729F) animation to complete
 81: 0x024B [0x2B] Kuchi Eyjhann (ID: 17199775/0x0106729F) [11423*]:
    → "My name's Kuchi Eyjhann, and I hail from Abyssea. It's a pleasurrre to finally meet you, <Player>."
 82: 0x0252 [0x23] WAIT_FOR_DIALOG_INTERACTION
 83: 0x0253 [0x52] END_LOAD_SCHEDULER: End scheduler "7306" with entities [LocalPlayer, LocalPlayer], work=489*
 84: 0x0262 [0x45] LOAD_SCHEDULED_TASK: Load scheduler "7307" with entities [LocalPlayer, LocalPlayer], work=[489*, 0*]
 85: 0x0273 [0x66] LOAD_EXT_SCHEDULER_MAIN: Load scheduler "tlk0" with entities [Kuchi Eyjhann (ID: 17199775/0x0106729F), Kuchi Eyjhann (ID: 17199775/0x0106729F)], work=59*
 86: 0x0282 [0x2B] Kuchi Eyjhann (ID: 17199775/0x0106729F) [11424*]:
    → "I understand you've already made the jourrrney to my home world a time or three. Anyway, we've gotta talk, you and I. Lend me your ears for a bit."
 87: 0x0289 [0x23] WAIT_FOR_DIALOG_INTERACTION
 88: 0x028A [0x66] LOAD_EXT_SCHEDULER_MAIN: Load scheduler "tlk1" with entities [Kuchi Eyjhann (ID: 17199775/0x0106729F), Kuchi Eyjhann (ID: 17199775/0x0106729F)], work=59*
 89: 0x0299 [0x24] CREATE_DIALOG(message_id=11425*, default_option=0*, option_flags=0*)
    → "Lend Kuchi your ears? [Certainly./Um, I really must be go--]"
 90: 0x02A0 [0x25] WAIT_DIALOG_SELECT()
 91: 0x02A1 [0x02] IF !(Work_Zone[0] == 0*) GOTO 0x02B8
 92: 0x02A9 [0x6E] LocalPlayer uses emote 7*
 93: 0x02B0 [0x99] Wait for LocalPlayer animation to complete
 94: 0x02B5 [0x01] GOTO 0x02CF
 95: 0x02B8 [0x02] IF !(Work_Zone[0] == 1*) GOTO 0x02CF
 96: 0x02C0 [0x6E] LocalPlayer uses emote 6*
 97: 0x02C7 [0x99] Wait for LocalPlayer animation to complete
 98: 0x02CC [0x01] GOTO 0x02CF

SUBROUTINE_02CF:
 99: 0x02CF [0x1C] WAIT(60* ticks)
100: 0x02D2 [0x5C] MUSIC_CONTROL: Set Idle (Day) music to song 123*
101: 0x02D6 [0x5C] MUSIC_CONTROL: Set Idle (Night) music to song 123*
102: 0x02DA [0x9A] WAIT_MUSIC_SERVER()
103: 0x02DB [0x52] END_LOAD_SCHEDULER: End scheduler "7307" with entities [LocalPlayer, LocalPlayer], work=489*
104: 0x02EA [0x45] LOAD_SCHEDULED_TASK: Load scheduler "7308" with entities [LocalPlayer, LocalPlayer], work=[489*, 0*]
105: 0x02FB [0x79] Kuchi Eyjhann (ID: 17199775/0x0106729F) looks at Cavernous Maw (ID: 17199772/0x0106729C) (Basic look)
106: 0x0305 [0x1C] WAIT(30* ticks)
107: 0x0308 [0x4A] LocalPlayer looks at Kuchi Eyjhann (ID: 17199775/0x0106729F)
108: 0x0311 [0x2B] Kuchi Eyjhann (ID: 17199775/0x0106729F) [11426*]:
    → "Grrreat! First of all, you should know that the maw here won't take you to the corresponding location in Abyssea."
109: 0x0318 [0x23] WAIT_FOR_DIALOG_INTERACTION
110: 0x0319 [0x2B] Kuchi Eyjhann (ID: 17199775/0x0106729F) [11427*]:
    → "But rather, you'll find yourself all the way over in the Misareaux Coast. Strrrange, don'tcha think?"
111: 0x0320 [0x23] WAIT_FOR_DIALOG_INTERACTION
112: 0x0321 [0x52] END_LOAD_SCHEDULER: End scheduler "7308" with entities [LocalPlayer, LocalPlayer], work=489*
113: 0x0330 [0x45] LOAD_SCHEDULED_TASK: Load scheduler "7309" with entities [LocalPlayer, LocalPlayer], work=[489*, 0*]
114: 0x0341 [0x7B] Kuchi Eyjhann (ID: 17199775/0x0106729F) stops talking
115: 0x0346 [0x66] LOAD_EXT_SCHEDULER_MAIN: Load scheduler "tlk0" with entities [Kuchi Eyjhann (ID: 17199775/0x0106729F), Kuchi Eyjhann (ID: 17199775/0x0106729F)], work=59*
116: 0x0355 [0x2B] Kuchi Eyjhann (ID: 17199775/0x0106729F) [11428*]:
    → "Anyway, once you get there, don't be surprised if you find yourself feeling disorrriented. That's just the natural reaction we all get when suddenly whisked away to a fresh, new locale."
117: 0x035C [0x23] WAIT_FOR_DIALOG_INTERACTION
118: 0x035D [0x2B] Kuchi Eyjhann (ID: 17199775/0x0106729F) [11429*]:
    → "But moving on to more exciting stuff: the latest and most rrrivetting news, fresh from the Misareaux front!"
119: 0x0364 [0x23] WAIT_FOR_DIALOG_INTERACTION
120: 0x0365 [0x52] END_LOAD_SCHEDULER: End scheduler "7309" with entities [LocalPlayer, LocalPlayer], work=489*
121: 0x0374 [0x45] LOAD_SCHEDULED_TASK: Load scheduler "7310" with entities [LocalPlayer, LocalPlayer], work=[489*, 0*]
122: 0x0385 [0x66] LOAD_EXT_SCHEDULER_MAIN: Load scheduler "tlk1" with entities [Kuchi Eyjhann (ID: 17199775/0x0106729F), Kuchi Eyjhann (ID: 17199775/0x0106729F)], work=59*
123: 0x0394 [0x2B] Kuchi Eyjhann (ID: 17199775/0x0106729F) [11430*]:
    → "Seeing how you've already been to other parts of Abyssea, you'd know about encampments and the searing wards that prrrotect them."
124: 0x039B [0x23] WAIT_FOR_DIALOG_INTERACTION
125: 0x039C [0x53] WAIT_SCHEDULER_TASK: Wait for scheduler "tlk1" with entities [Kuchi Eyjhann (ID: 17199775/0x0106729F), Kuchi Eyjhann (ID: 17199775/0x0106729F)]
126: 0x03A9 [0x7B] Kuchi Eyjhann (ID: 17199775/0x0106729F) stops talking
127: 0x03AE [0x66] LOAD_EXT_SCHEDULER_MAIN: Load scheduler "thk1" with entities [Kuchi Eyjhann (ID: 17199775/0x0106729F), Kuchi Eyjhann (ID: 17199775/0x0106729F)], work=59*
128: 0x03BD [0x2B] Kuchi Eyjhann (ID: 17199775/0x0106729F) [11431*]:
    → "In Misareaux, though, you'll also find a military outpost which has been set up for top secret reasons. That is, it's the command center for those marrrtello thingamabobs!"
129: 0x03C4 [0x23] WAIT_FOR_DIALOG_INTERACTION
130: 0x03C5 [0x52] END_LOAD_SCHEDULER: End scheduler "7310" with entities [LocalPlayer, LocalPlayer], work=489*
131: 0x03D4 [0x45] LOAD_SCHEDULED_TASK: Load scheduler "7311" with entities [LocalPlayer, LocalPlayer], work=[489*, 0*]
132: 0x03E5 [0x2B] Kuchi Eyjhann (ID: 17199775/0x0106729F) [11432*]:
    → "Now, you're probably wonderrring why such a place is needed there, but not in certain other parts of Abyssea. To answer that unvoiced doubt, it's because we have only earrrly model martellos deployed on the coast."
133: 0x03EC [0x23] WAIT_FOR_DIALOG_INTERACTION
134: 0x03ED [0x2B] Kuchi Eyjhann (ID: 17199775/0x0106729F) [11433*]:
    → "Being rusty, primitive things, they lack for a bit of oomph. And so we've had to augment their functions through a motherrr unit called the pulse martello, or "mothello," as some fondly call it. Anyway, that's why the outpost was built--to handle the rrrunning of the pulse martello."
135: 0x03F4 [0x23] WAIT_FOR_DIALOG_INTERACTION
136: 0x03F5 [0x52] END_LOAD_SCHEDULER: End scheduler "7311" with entities [LocalPlayer, LocalPlayer], work=489*
137: 0x0404 [0x45] LOAD_SCHEDULED_TASK: Load scheduler "7312" with entities [LocalPlayer, LocalPlayer], work=[489*, 0*]
138: 0x0415 [0x66] LOAD_EXT_SCHEDULER_MAIN: Load scheduler "thk2" with entities [Kuchi Eyjhann (ID: 17199775/0x0106729F), Kuchi Eyjhann (ID: 17199775/0x0106729F)], work=59*
139: 0x0424 [0x2B] Kuchi Eyjhann (ID: 17199775/0x0106729F) [11434*]:
    → "Things were just fine and dandy for a while, but then the Abyssean horrrdes caught wind of the outpost's significance. They've been attacking the outpost in floods, and I don't know how long we can fend them off. We urgently need strrrong folk to assist in the defense...folk like you, <Player>."
140: 0x042B [0x23] WAIT_FOR_DIALOG_INTERACTION
141: 0x042C [0x7B] LocalPlayer stops talking
142: 0x0431 [0x52] END_LOAD_SCHEDULER: End scheduler "7312" with entities [LocalPlayer, LocalPlayer], work=489*
143: 0x0440 [0x29] REQ_SET_WAIT(priority=0x10, entity_id=LocalPlayer, tag_num=0x25)
144: 0x0447 [0x02] IF !(Work_Zone[2] == 1*) GOTO 0x0463
145: 0x044F [0x45] LOAD_SCHEDULED_TASK: Load scheduler "73hm" with entities [LocalPlayer, LocalPlayer], work=[489*, 0*]
146: 0x0460 [0x01] GOTO 0x0527
147: 0x0463 [0x02] IF !(Work_Zone[2] == 2*) GOTO 0x047F
148: 0x046B [0x45] LOAD_SCHEDULED_TASK: Load scheduler "73hf" with entities [LocalPlayer, LocalPlayer], work=[489*, 0*]
149: 0x047C [0x01] GOTO 0x0527
150: 0x047F [0x02] IF !(Work_Zone[2] == 3*) GOTO 0x049B
151: 0x0487 [0x45] LOAD_SCHEDULED_TASK: Load scheduler "73em" with entities [LocalPlayer, LocalPlayer], work=[489*, 0*]
152: 0x0498 [0x01] GOTO 0x0527
153: 0x049B [0x02] IF !(Work_Zone[2] == 4*) GOTO 0x04B7
154: 0x04A3 [0x45] LOAD_SCHEDULED_TASK: Load scheduler "73ef" with entities [LocalPlayer, LocalPlayer], work=[489*, 0*]
155: 0x04B4 [0x01] GOTO 0x0527
156: 0x04B7 [0x02] IF !(Work_Zone[2] == 5*) GOTO 0x04D3
157: 0x04BF [0x45] LOAD_SCHEDULED_TASK: Load scheduler "73tr" with entities [LocalPlayer, LocalPlayer], work=[489*, 0*]
158: 0x04D0 [0x01] GOTO 0x0527
159: 0x04D3 [0x02] IF !(Work_Zone[2] == 6*) GOTO 0x04EF
160: 0x04DB [0x45] LOAD_SCHEDULED_TASK: Load scheduler "73tr" with entities [LocalPlayer, LocalPlayer], work=[489*, 0*]
161: 0x04EC [0x01] GOTO 0x0527
162: 0x04EF [0x02] IF !(Work_Zone[2] == 7*) GOTO 0x050B
163: 0x04F7 [0x45] LOAD_SCHEDULED_TASK: Load scheduler "73mt" with entities [LocalPlayer, LocalPlayer], work=[489*, 0*]
164: 0x0508 [0x01] GOTO 0x0527
165: 0x050B [0x02] IF !(Work_Zone[2] == 8*) GOTO 0x0527
166: 0x0513 [0x45] LOAD_SCHEDULED_TASK: Load scheduler "73gl" with entities [LocalPlayer, LocalPlayer], work=[489*, 0*]
167: 0x0524 [0x01] GOTO 0x0527

SUBROUTINE_0527:
168: 0x0527 [0x1C] WAIT(120* ticks)
169: 0x052A [0x52] END_LOAD_SCHEDULER: End scheduler "73hm" with entities [LocalPlayer, LocalPlayer], work=489*
170: 0x0539 [0x52] END_LOAD_SCHEDULER: End scheduler "73hf" with entities [LocalPlayer, LocalPlayer], work=489*
171: 0x0548 [0x52] END_LOAD_SCHEDULER: End scheduler "73em" with entities [LocalPlayer, LocalPlayer], work=489*
172: 0x0557 [0x52] END_LOAD_SCHEDULER: End scheduler "73ef" with entities [LocalPlayer, LocalPlayer], work=489*
173: 0x0566 [0x52] END_LOAD_SCHEDULER: End scheduler "73tr" with entities [LocalPlayer, LocalPlayer], work=489*
174: 0x0575 [0x52] END_LOAD_SCHEDULER: End scheduler "73mt" with entities [LocalPlayer, LocalPlayer], work=489*
175: 0x0584 [0x52] END_LOAD_SCHEDULER: End scheduler "73gl" with entities [LocalPlayer, LocalPlayer], work=489*
176: 0x0593 [0x45] LOAD_SCHEDULED_TASK: Load scheduler "7313" with entities [LocalPlayer, LocalPlayer], work=[489*, 0*]
177: 0x05A4 [0x5D] SET_MUSIC_VOLUME(volume=0*, fade_time=120*)
178: 0x05A9 [0x2B] Kuchi Eyjhann (ID: 17199775/0x0106729F) [11435*]:
    → "Hehehe, the way your eyes sparrrkle with confidence...that's what the survivors have been lacking."
179: 0x05B0 [0x23] WAIT_FOR_DIALOG_INTERACTION
180: 0x05B1 [0x6E] Kuchi Eyjhann (ID: 17199775/0x0106729F) uses emote 35*
181: 0x05B8 [0x99] Wait for Kuchi Eyjhann (ID: 17199775/0x0106729F) animation to complete
182: 0x05BD [0x2B] Kuchi Eyjhann (ID: 17199775/0x0106729F) [11436*]:
    → "With brave adventurers like you around to instill courage, though, I think we'll start seeing eyes sparrrkling once more."
183: 0x05C4 [0x1C] WAIT(120* ticks)
184: 0x05C7 [0x23] WAIT_FOR_DIALOG_INTERACTION
185: 0x05C8 [0x52] END_LOAD_SCHEDULER: End scheduler "7313" with entities [LocalPlayer, LocalPlayer], work=489*
186: 0x05D7 [0x45] LOAD_SCHEDULED_TASK: Load scheduler "7314" with entities [LocalPlayer, LocalPlayer], work=[489*, 0*]
187: 0x05E8 [0xC5] LOAD_SCHEDULED_TASK_ALT3: Load scheduler 0x80033030 for entities [??? (ID: 17199777/0x010672A1), ??? (ID: 17199777/0x010672A1)], work=213*, param=12403
188: 0x05F9 [0x66] LOAD_EXT_SCHEDULER_MAIN: Load scheduler "tlk0" with entities [Kuchi Eyjhann (ID: 17199775/0x0106729F), Kuchi Eyjhann (ID: 17199775/0x0106729F)], work=59*
189: 0x0608 [0x2B] Kuchi Eyjhann (ID: 17199775/0x0106729F) [11437*]:
    → "Ah, it almost slipped my mind. There's one verrry important detail you'll want to know."
190: 0x060F [0x23] WAIT_FOR_DIALOG_INTERACTION
191: 0x0610 [0x2B] Kuchi Eyjhann (ID: 17199775/0x0106729F) [11438*]:
    → "There's a right fearsome creature that's been a scourrrge to the folk of Misareaux."
192: 0x0617 [0x23] WAIT_FOR_DIALOG_INTERACTION
193: 0x0618 [0x5C] MUSIC_CONTROL: Set Idle (Day) music to song 129*
194: 0x061C [0x5C] MUSIC_CONTROL: Set Idle (Night) music to song 129*
195: 0x0620 [0x9A] WAIT_MUSIC_SERVER()
196: 0x0621 [0x66] LOAD_EXT_SCHEDULER_MAIN: Load scheduler "tlk1" with entities [Kuchi Eyjhann (ID: 17199775/0x0106729F), Kuchi Eyjhann (ID: 17199775/0x0106729F)], work=59*
197: 0x0630 [0x2B] Kuchi Eyjhann (ID: 17199775/0x0106729F) [11439*]:
    → "Have you ever come across orobons before? Big, terrible fish, they are...and--<slurp>--tasty to boot!"
198: 0x0637 [0x23] WAIT_FOR_DIALOG_INTERACTION
199: 0x0638 [0x52] END_LOAD_SCHEDULER: End scheduler "7314" with entities [LocalPlayer, LocalPlayer], work=489*
200: 0x0647 [0x45] LOAD_SCHEDULED_TASK: Load scheduler "7315" with entities [LocalPlayer, LocalPlayer], work=[489*, 0*]
201: 0x0658 [0x77] SET_EVENT_TIME_WEATHER(hour=255*, weather=1*)
202: 0x065D [0xAB] EventEntity->UnknownFlag = 1 // Enable unknown flag
203: 0x065F [0x1C] WAIT(60* ticks)
204: 0x0662 [0x2B] Kuchi Eyjhann (ID: 17199775/0x0106729F) [11440*]:
    → "Uh...but above all, big and terrible, yeah. They're supposed to be native to Near Eastern seas, but for rrreasons unknown, one has appeared much closer to home."
205: 0x0669 [0x23] WAIT_FOR_DIALOG_INTERACTION
206: 0x066A [0x52] END_LOAD_SCHEDULER: End scheduler "7315" with entities [LocalPlayer, LocalPlayer], work=489*
207: 0x0679 [0x45] LOAD_SCHEDULED_TASK: Load scheduler "7316" with entities [LocalPlayer, LocalPlayer], work=[489*, 0*]
208: 0x068A [0x1C] WAIT(60* ticks)
209: 0x068D [0x2B] Kuchi Eyjhann (ID: 17199775/0x0106729F) [11441*]:
    → "The eerie lantern hanging from its head is a sure-firrre way to identify it, but its hulking size alone should be clue enough. It's huge, I tell you! So massive, in fact, I'll bet its--<slurp>--sweet, succulent flesh could feed an entire litterrr of growing Mithra for weeks!"
210: 0x0694 [0x23] WAIT_FOR_DIALOG_INTERACTION
211: 0x0695 [0x52] END_LOAD_SCHEDULER: End scheduler "7316" with entities [LocalPlayer, LocalPlayer], work=489*
212: 0x06A4 [0x45] LOAD_SCHEDULED_TASK: Load scheduler "7317" with entities [LocalPlayer, LocalPlayer], work=[489*, 0*]
213: 0x06B5 [0xAB] EventEntity->UnknownFlag = 0 // Disable unknown flag
214: 0x06B7 [0x78] ENABLE_GAME_TIMER_RESET_WEATHER()
215: 0x06B8 [0x1C] WAIT(60* ticks)
216: 0x06BB [0xC5] LOAD_SCHEDULED_TASK_ALT3: Load scheduler 0x8003306C for entities [??? (ID: 17199777/0x010672A1), ??? (ID: 17199777/0x010672A1)], work=213*, param=26987
217: 0x06CC [0x4E] SET_ENTITY_HIDE_FLAG: Hide Unnamed NPC (ID: 17199776/0x010672A0)
218: 0x06D2 [0x6E] Kuchi Eyjhann (ID: 17199775/0x0106729F) uses emote 0*
219: 0x06D9 [0x99] Wait for Kuchi Eyjhann (ID: 17199775/0x0106729F) animation to complete
220: 0x06DE [0x2B] Kuchi Eyjhann (ID: 17199775/0x0106729F) [11442*]:
    → "Well, if anyone could slay it, that is. Many've tried, but all have ended up becoming its supperrr instead. Watch yourself when dealing with that thing, you hear?"
221: 0x06E5 [0x1C] WAIT(90* ticks)
222: 0x06E8 [0x23] WAIT_FOR_DIALOG_INTERACTION
223: 0x06E9 [0x2B] Kuchi Eyjhann (ID: 17199775/0x0106729F) [11443*]:
    → "Yikes, my stone's about run out of charrrge! Looks like it's time for this little kitten to take her leave."
224: 0x06F0 [0x23] WAIT_FOR_DIALOG_INTERACTION
225: 0x06F1 [0x52] END_LOAD_SCHEDULER: End scheduler "7317" with entities [LocalPlayer, LocalPlayer], work=489*
226: 0x0700 [0x45] LOAD_SCHEDULED_TASK: Load scheduler "7318" with entities [LocalPlayer, LocalPlayer], work=[489*, 0*]
227: 0x0711 [0x2B] Kuchi Eyjhann (ID: 17199775/0x0106729F) [11444*]:
    → "Be seeing you!"
228: 0x0718 [0x23] WAIT_FOR_DIALOG_INTERACTION
229: 0x0719 [0x5D] SET_MUSIC_VOLUME(volume=0*, fade_time=300*)
230: 0x071E [0x6E] Kuchi Eyjhann (ID: 17199775/0x0106729F) uses emote 8*
231: 0x0725 [0x99] Wait for Kuchi Eyjhann (ID: 17199775/0x0106729F) animation to complete
232: 0x072A [0xCD] LOAD_SCHEDULED_TASK_ALT4: Load scheduler "main" with entities [Kuchi Eyjhann (ID: 17199775/0x0106729F), Kuchi Eyjhann (ID: 17199775/0x0106729F)], work=[79*, 0*]
233: 0x073B [0x1C] WAIT(210* ticks)
234: 0x073E [0x1A] CALL_SUBROUTINE(address=0x0C80)
235: 0x0741 [0x1C] WAIT(30* ticks)
236: 0x0744 [0x52] END_LOAD_SCHEDULER: End scheduler "7318" with entities [LocalPlayer, LocalPlayer], work=489*
237: 0x0753 [0x45] LOAD_SCHEDULED_TASK: Load scheduler "0blf" with entities [LocalPlayer, LocalPlayer], work=[489*, 0*]
238: 0x0764 [0x5C] MUSIC_CONTROL: Set Idle (Day) music to song 0*
239: 0x0768 [0x5C] MUSIC_CONTROL: Set Idle (Night) music to song 0*
240: 0x076C [0x9A] WAIT_MUSIC_SERVER()
241: 0x076D [0x46] CAMERA_CONTROL: Restore default settings
242: 0x076F [0x45] LOAD_SCHEDULED_TASK: Load scheduler "fdi2" with entities [LocalPlayer, LocalPlayer], work=[200*, 0*]
243: 0x0780 [0x21] END_EVENT
244: 0x0781 [0x00] END_REQSTACK()
```

### Event 57

#### Metadata

| Field        | Value      |
|--------------|------------|
| Entrypoint   | 0x0782     |
| Data Size    | 1836 bytes |
| Instructions | 164        |

```
      00 01 02 03 04 05 06 07  08 09 0A 0B 0C 0D 0E 0F
      -- -- -- -- -- -- -- --  -- -- -- -- -- -- -- --
0780:       42 1A 80 0C 46 01  38 00 80 4E 00 F0 FF FF    B...F.8..N....
0790: 7F 27 10 9F 72 06 01 04  4E 00 A2 72 06 01 92 01  .'..r...N..r....
07A0: 9F 72 06 01 94 01 F0 FF  FF 7F 94 01 9F 72 06 01  .r...........r..
07B0: 94 01 9C 72 06 01 94 01  A2 72 06 01 BA F0 FF FF  ...r.....r......
07C0: 7F 47 80 48 80 03 80 49  80 BA 9F 72 06 01 4A 80  .G.H...I...r..J.
07D0: 4B 80 4C 80 4D 80 BA A2  72 06 01 4E 80 4F 80 50  K.L.M...r..N.O.P
07E0: 80 51 80 80 F0 FF FF 7F  80 9F 72 06 01 80 9C 72  .Q........r....r
07F0: 06 01 1C 10 80 79 00 F0  FF FF 7F A2 72 06 01 29  .....y......r..)
0800: 10 F0 FF FF 7F 1C 29 10  9F 72 06 01 10 6C F0 FF  ......)..r...l..
0810: FF 7F 03 80 22 80 92 01  F0 FF FF 7F CD 52 80 F0  ...."........R..
0820: FF FF 7F F0 FF FF 7F 6D  61 69 6E 03 80 45 11 80  .......main..E..
0830: F0 FF FF 7F F0 FF FF 7F  37 33 33 30 03 80 1A 5F  ........7330..._
0840: 0C 1C 12 80 92 00 F0 FF  FF 7F 29 10 F0 FF FF 7F  ..........).....
0850: 1D 52 11 80 F0 FF FF 7F  F0 FF FF 7F 37 33 33 30  .R..........7330
0860: 45 11 80 F0 FF FF 7F F0  FF FF 7F 37 33 33 31 03  E..........7331.
0870: 80 2B 9F 72 06 01 53 80  1C 15 80 4A F0 FF FF 7F  .+.r..S....J....
0880: 9F 72 06 01 6F 76 F0 FF  FF 7F 1C 10 80 23 5C 00  .r..ov.......#\.
0890: 12 80 5C 01 12 80 9A 52  11 80 F0 FF FF 7F F0 FF  ..\....R........
08A0: FF 7F 37 33 33 31 45 11  80 F0 FF FF 7F F0 FF FF  ..7331E.........
08B0: 7F 37 33 33 32 03 80 27  10 9F 72 06 01 11 1C 24  .7332..'..r....$
08C0: 80 2B 9F 72 06 01 54 80  23 2A 10 9F 72 06 01 52  .+.r..T.#*..r..R
08D0: 11 80 F0 FF FF 7F F0 FF  FF 7F 37 33 33 32 45 11  ..........7332E.
08E0: 80 F0 FF FF 7F F0 FF FF  7F 37 33 33 33 03 80 6E  .........7333..n
08F0: 9F 72 06 01 55 80 99 9F  72 06 01 2B 9F 72 06 01  .r..U...r..+.r..
0900: 56 80 1C 57 80 23 2B 9F  72 06 01 58 80 23 27 10  V..W.#+.r..X.#'.
0910: 9F 72 06 01 12 1C 59 80  52 11 80 F0 FF FF 7F F0  .r....Y.R.......
0920: FF FF 7F 37 33 33 33 45  11 80 F0 FF FF 7F F0 FF  ...7333E........
0930: FF 7F 37 33 33 34 03 80  2A 10 9F 72 06 01 2B 9F  ..7334..*..r..+.
0940: 72 06 01 5A 80 23 7B 9F  72 06 01 66 1F 80 9F 72  r..Z.#{.r..f...r
0950: 06 01 9F 72 06 01 74 68  6B 31 2B 9F 72 06 01 5B  ...r..thk1+.r..[
0960: 80 23 52 11 80 F0 FF FF  7F F0 FF FF 7F 37 33 33  .#R..........733
0970: 34 45 11 80 F0 FF FF 7F  F0 FF FF 7F 37 33 33 36  4E..........7336
0980: 03 80 2B 9F 72 06 01 5C  80 23 2B 9F 72 06 01 5D  ..+.r..\.#+.r..]
0990: 80 23 52 11 80 F0 FF FF  7F F0 FF FF 7F 37 33 33  .#R..........733
09A0: 36 45 11 80 F0 FF FF 7F  F0 FF FF 7F 37 33 33 37  6E..........7337
09B0: 03 80 66 1F 80 9F 72 06  01 9F 72 06 01 74 68 6B  ..f...r...r..thk
09C0: 32 1C 10 80 2B 9F 72 06  01 5E 80 23 53 9F 72 06  2...+.r..^.#S.r.
09D0: 01 9F 72 06 01 74 68 6B  32 66 1F 80 9F 72 06 01  ..r..thk2f...r..
09E0: 9F 72 06 01 74 6C 6B 30  2B 9F 72 06 01 5F 80 23  .r..tlk0+.r.._.#
09F0: 52 11 80 F0 FF FF 7F F0  FF FF 7F 37 33 33 37 45  R..........7337E
0A00: 11 80 F0 FF FF 7F F0 FF  FF 7F 37 33 33 38 03 80  ..........7338..
0A10: 2B 9F 72 06 01 60 80 23  66 1F 80 9F 72 06 01 9F  +.r..`.#f...r...
0A20: 72 06 01 74 6C 6B 31 2B  9F 72 06 01 61 80 23 53  r..tlk1+.r..a.#S
0A30: 9F 72 06 01 9F 72 06 01  74 6C 6B 31 52 11 80 F0  .r...r..tlk1R...
0A40: FF FF 7F F0 FF FF 7F 37  33 33 38 45 11 80 F0 FF  .......7338E....
0A50: FF 7F F0 FF FF 7F 37 33  33 39 03 80 5D 03 80 12  ......7339..]...
0A60: 80 66 62 80 9F 72 06 01  9F 72 06 01 70 61 73 30  .fb..r...r..pas0
0A70: 53 9F 72 06 01 9F 72 06  01 70 61 73 30 03 01 10  S.r...r..pas0...
0A80: 22 80 43 00 43 01 2B 9F  72 06 01 63 80 23 6E 9F  ".C.C.+.r..c.#n.
0A90: 72 06 01 64 80 99 9F 72  06 01 2B 9F 72 06 01 65  r..d...r..+.r..e
0AA0: 80 1C 12 80 23 52 11 80  F0 FF FF 7F F0 FF FF 7F  ....#R..........
0AB0: 37 33 33 39 45 11 80 F0  FF FF 7F F0 FF FF 7F 37  7339E..........7
0AC0: 33 34 30 03 80 4B 9F 72  06 01 66 80 1C 67 80 2B  340..K.r..f..g.+
0AD0: 9F 72 06 01 68 80 79 00  9F 72 06 01 9C 72 06 01  .r..h.y..r...r..
0AE0: 4A F0 FF FF 7F 9C 72 06  01 6F 76 F0 FF FF 7F 1C  J.....r..ov.....
0AF0: 24 80 23 5C 00 69 80 5C  01 69 80 9A 52 11 80 F0  $.#\.i.\.i..R...
0B00: FF FF 7F F0 FF FF 7F 37  33 34 30 45 11 80 F0 FF  .......7340E....
0B10: FF 7F F0 FF FF 7F 37 33  34 31 03 80 79 00 9F 72  ......7341..y..r
0B20: 06 01 F0 FF FF 7F 6E 9F  72 06 01 17 80 99 9F 72  ......n.r......r
0B30: 06 01 2B 9F 72 06 01 6A  80 1C 15 80 79 00 F0 FF  ..+.r..j....y...
0B40: FF 7F 9F 72 06 01 1C 6B  80 23 52 11 80 F0 FF FF  ...r...k.#R.....
0B50: 7F F0 FF FF 7F 37 33 34  31 45 11 80 F0 FF FF 7F  .....7341E......
0B60: F0 FF FF 7F 37 33 34 32  03 80 2B 9F 72 06 01 6C  ....7342..+.r..l
0B70: 80 23 2B 9F 72 06 01 6D  80 23 4A F0 FF FF 7F 9F  .#+.r..m.#J.....
0B80: 72 06 01 52 11 80 F0 FF  FF 7F F0 FF FF 7F 37 33  r..R..........73
0B90: 34 32 45 11 80 F0 FF FF  7F F0 FF FF 7F 37 33 34  42E..........734
0BA0: 33 03 80 5D 03 80 43 80  6E 9F 72 06 01 33 80 99  3..]..C.n.r..3..
0BB0: 9F 72 06 01 CD 44 80 9F  72 06 01 9F 72 06 01 6D  .r...D..r...r..m
0BC0: 61 69 6E 03 80 1C 45 80  1A 80 0C 1C 10 80 52 11  ain...E.......R.
0BD0: 80 F0 FF FF 7F F0 FF FF  7F 37 33 34 33 45 11 80  .........7343E..
0BE0: F0 FF FF 7F F0 FF FF 7F  30 62 6C 66 03 80 5C 00  ........0blf..\.
0BF0: 03 80 5C 01 03 80 9A 46  00 45 6E 80 F8 FF FF 7F  ..\....F.En.....
0C00: F8 FF FF 7F 71 73 74 63  03 80 45 46 80 F0 FF FF  ....qstc..EF....
0C10: 7F F0 FF FF 7F 66 64 69  32 03 80 21 00 45 46 80  .....fdi2..!.EF.
0C20: F0 FF FF 7F F0 FF FF 7F  66 64 69 30 03 80 55 46  ........fdi0..UF
0C30: 80 F0 FF FF 7F F0 FF FF  7F 66 64 69 30 1B 45 46  .........fdi0.EF
0C40: 80 F0 FF FF 7F F0 FF FF  7F 66 64 6F 30 03 80 55  .........fdo0..U
0C50: 46 80 F0 FF FF 7F F0 FF  FF 7F 66 64 6F 30 1B 45  F.........fdo0.E
0C60: 46 80 F0 FF FF 7F F0 FF  FF 7F 66 64 69 31 03 80  F.........fdi1..
0C70: 55 46 80 F0 FF FF 7F F0  FF FF 7F 66 64 69 31 1B  UF.........fdi1.
0C80: 45 46 80 F0 FF FF 7F F0  FF FF 7F 66 64 6F 31 03  EF.........fdo1.
0C90: 80 55 46 80 F0 FF FF 7F  F0 FF FF 7F 66 64 6F 31  .UF.........fdo1
0CA0: 1B 45 6E 80 F0 FF FF 7F  F0 FF FF 7F 77 68 69 31  .En.........whi1
0CB0: 03 80 55 6E 80 F0 FF FF  7F F0 FF FF 7F 77 68 69  ..Un.........whi
0CC0: 31 1B 45 6E 80 F0 FF FF  7F F0 FF FF 7F 77 68 6F  1.En.........who
0CD0: 31 03 80 55 6E 80 F0 FF  FF 7F F0 FF FF 7F 77 68  1..Un.........wh
0CE0: 6F 31 1B 45 6E 80 F0 FF  FF 7F F0 FF FF 7F 77 68  o1.En.........wh
0CF0: 6F 32 03 80 55 6E 80 F0  FF FF 7F F0 FF FF 7F 77  o2..Un.........w
0D00: 68 6F 32 1B 45 6E 80 F0  FF FF 7F F0 FF FF 7F 77  ho2.En.........w
0D10: 68 6F 33 03 80 55 6E 80  F0 FF FF 7F F0 FF FF 7F  ho3..Un.........
0D20: 77 68 6F 33 1B 62 22 80  F0 FF FF 7F F0 FF FF 7F  who3.b".........
0D30: 6D 61 69 6E 03 80 1C 67  80 45 46 80 F0 FF FF 7F  main...g.EF.....
0D40: F0 FF FF 7F 66 64 6F 31  03 80 55 46 80 F0 FF FF  ....fdo1..UF....
0D50: 7F F0 FF FF 7F 66 64 6F  31 1B 45 46 80 F0 FF FF  .....fdo1.EF....
0D60: 7F F0 FF FF 7F 66 64 69  31 03 80 62 2F 80 F0 FF  .....fdi1..b/...
0D70: FF 7F F0 FF FF 7F 6D 61  69 6E 03 80 1C 10 80 55  ......main.....U
0D80: 46 80 F0 FF FF 7F F0 FF  FF 7F 66 64 69 31 1B 45  F.........fdi1.E
0D90: 46 80 F0 FF FF 7F F0 FF  FF 7F 62 6C 6F 6E 03 80  F.........blon..
0DA0: 45 6E 80 F0 FF FF 7F F0  FF FF 7F 62 6C 6F 6E 03  En.........blon.
0DB0: 80 1B 45 6E 80 F0 FF FF  7F F0 FF FF 7F 77 68 69  ..En.........whi
0DC0: 30 03 80 55 6E 80 F0 FF  FF 7F F0 FF FF 7F 77 68  0..Un.........wh
0DD0: 69 30 1B 45 6E 80 F0 FF  FF 7F F0 FF FF 7F 77 68  i0.En.........wh
0DE0: 6F 30 03 80 55 6E 80 F0  FF FF 7F F0 FF FF 7F 77  o0..Un.........w
0DF0: 68 6F 30 1B 45 6F 80 F0  FF FF 7F F0 FF FF 7F 65  ho0.Eo.........e
0E00: 66 6F 6E 03 80 55 6F 80  F0 FF FF 7F F0 FF FF 7F  fon..Uo.........
0E10: 65 66 6F 6E 1B 45 46 80  F0 FF FF 7F F0 FF FF 7F  efon.EF.........
0E20: 66 64 69 73 03 80 1B 45  46 80 F0 FF FF 7F F0 FF  fdis...EF.......
0E30: FF 7F 66 64 6F 73 03 80  55 46 80 F0 FF FF 7F F0  ..fdos..UF......
0E40: FF FF 7F 66 64 6F 73 1B  45 46 80 F0 FF FF 7F F0  ...fdos.EF......
0E50: FF FF 7F 66 64 69 66 03  80 1B 45 46 80 F0 FF FF  ...fdif...EF....
0E60: 7F F0 FF FF 7F 66 64 6F  66 03 80 55 46 80 F0 FF  .....fdof..UF...
0E70: FF 7F F0 FF FF 7F 66 64  6F 66 1B 45 46 80 F0 FF  ......fdof.EF...
0E80: FF 7F F0 FF FF 7F 66 64  69 70 03 80 1B 45 46 80  ......fdip...EF.
0E90: F0 FF FF 7F F0 FF FF 7F  66 64 6F 70 03 80 55 46  ........fdop..UF
0EA0: 80 F0 FF FF 7F F0 FF FF  7F 66 64 6F 70 1B        .........fdop.  
```

#### Opcodes

```
  0: 0x0782 [0x42] SET_CLI_EVENT_CANCEL_DATA()
  1: 0x0783 [0x1A] CALL_SUBROUTINE(address=0x0C80)
  2: 0x0786 [0x46] CAMERA_CONTROL: Disable user control
  3: 0x0788 [0x38] SET_CLIENT_EVENT_MODE(mode=19*)
  4: 0x078B [0x4E] SET_ENTITY_HIDE_FLAG: Show LocalPlayer
  5: 0x0791 [0x27] REQ_SET(priority=0x10, entity_id=Kuchi Eyjhann (ID: 17199775/0x0106729F), tag_num=0x04)
  6: 0x0798 [0x4E] SET_ENTITY_HIDE_FLAG: Show Unnamed NPC (ID: 17199778/0x010672A2)
  7: 0x079E [0x92] Kuchi Eyjhann (ID: 17199775/0x0106729F)->Render.Flags3 ^= 0x01
  8: 0x07A4 [0x94] LocalPlayer->Render.Flags3 ^= 0x01
  9: 0x07AA [0x94] Kuchi Eyjhann (ID: 17199775/0x0106729F)->Render.Flags3 ^= 0x01
 10: 0x07B0 [0x94] Cavernous Maw (ID: 17199772/0x0106729C)->Render.Flags3 ^= 0x01
 11: 0x07B6 [0x94] Unnamed NPC (ID: 17199778/0x010672A2)->Render.Flags3 ^= 0x01
 12: 0x07BC [0xBA] SET_ENTITY_POSITION(entity_id=LocalPlayer, pos_x=363.467*, pos_z=-119.720*, pos_y=0.000*, direction=182.6°*)
 13: 0x07C9 [0xBA] SET_ENTITY_POSITION(entity_id=Kuchi Eyjhann (ID: 17199775/0x0106729F), pos_x=369.787*, pos_z=-124.048*, pos_y=-0.675*, direction=215.0°*)
 14: 0x07D6 [0xBA] SET_ENTITY_POSITION(entity_id=Unnamed NPC (ID: 17199778/0x010672A2), pos_x=-564.700*, pos_z=643.576*, pos_y=0.033*, direction=36.0°*)
 15: 0x07E3 [0x80] LOAD_WAIT(entity=LocalPlayer)
 16: 0x07E8 [0x80] LOAD_WAIT(entity=Kuchi Eyjhann (ID: 17199775/0x0106729F))
 17: 0x07ED [0x80] LOAD_WAIT(entity=Cavernous Maw (ID: 17199772/0x0106729C))
 18: 0x07F2 [0x1C] WAIT(30* ticks)
 19: 0x07F5 [0x79] LocalPlayer looks at Unnamed NPC (ID: 17199778/0x010672A2) (Basic look)
 20: 0x07FF [0x29] REQ_SET_WAIT(priority=0x10, entity_id=LocalPlayer, tag_num=0x1C)
 21: 0x0806 [0x29] REQ_SET_WAIT(priority=0x10, entity_id=Kuchi Eyjhann (ID: 17199775/0x0106729F), tag_num=0x10)
 22: 0x080D [0x6C] FADE_ENTITY_COLOR(entity_id=LocalPlayer, end_alpha=0*, fade_time=1*)
 23: 0x0816 [0x92] LocalPlayer->Render.Flags3 ^= 0x01
 24: 0x081C [0xCD] LOAD_SCHEDULED_TASK_ALT4: Load scheduler "main" with entities [LocalPlayer, LocalPlayer], work=[80*, 0*]
 25: 0x082D [0x45] LOAD_SCHEDULED_TASK: Load scheduler "7330" with entities [LocalPlayer, LocalPlayer], work=[489*, 0*]
 26: 0x083E [0x1A] CALL_SUBROUTINE(address=0x0C5F)
 27: 0x0841 [0x1C] WAIT(120* ticks)
 28: 0x0844 [0x92] LocalPlayer->Render.Flags3 = Flags3  // No change (flag=0)
 29: 0x084A [0x29] REQ_SET_WAIT(priority=0x10, entity_id=LocalPlayer, tag_num=0x1D)
 30: 0x0851 [0x52] END_LOAD_SCHEDULER: End scheduler "7330" with entities [LocalPlayer, LocalPlayer], work=489*
 31: 0x0860 [0x45] LOAD_SCHEDULED_TASK: Load scheduler "7331" with entities [LocalPlayer, LocalPlayer], work=[489*, 0*]
 32: 0x0871 [0x2B] Kuchi Eyjhann (ID: 17199775/0x0106729F) [11445*]:
    → "Long time no see, <Player>! From what I've heard, you've been making quite a name for yourself of late."
 33: 0x0878 [0x1C] WAIT(15* ticks)
 34: 0x087B [0x4A] LocalPlayer looks at Kuchi Eyjhann (ID: 17199775/0x0106729F)
 35: 0x0884 [0x6F] WAIT_FRAME_DELAY: Yield until WaitTime reaches zero
 36: 0x0885 [0x76] CHECK_ENTITY_RENDER_FLAGS: Wait until LocalPlayer Render.Flags0 and Render.Flags3 conditions are met
 37: 0x088A [0x1C] WAIT(30* ticks)
 38: 0x088D [0x23] WAIT_FOR_DIALOG_INTERACTION
 39: 0x088E [0x5C] MUSIC_CONTROL: Set Idle (Day) music to song 120*
 40: 0x0892 [0x5C] MUSIC_CONTROL: Set Idle (Night) music to song 120*
 41: 0x0896 [0x9A] WAIT_MUSIC_SERVER()
 42: 0x0897 [0x52] END_LOAD_SCHEDULER: End scheduler "7331" with entities [LocalPlayer, LocalPlayer], work=489*
 43: 0x08A6 [0x45] LOAD_SCHEDULED_TASK: Load scheduler "7332" with entities [LocalPlayer, LocalPlayer], work=[489*, 0*]
 44: 0x08B7 [0x27] REQ_SET(priority=0x10, entity_id=Kuchi Eyjhann (ID: 17199775/0x0106729F), tag_num=0x11)
 45: 0x08BE [0x1C] WAIT(60* ticks)
 46: 0x08C1 [0x2B] Kuchi Eyjhann (ID: 17199775/0x0106729F) [11446*]:
    → "To think that you'd be the one to make that beastly fish go belly up! I can barrrely hide my surprise and jubilation!"
 47: 0x08C8 [0x23] WAIT_FOR_DIALOG_INTERACTION
 48: 0x08C9 [0x2A] GET_REQ_LEVEL(level=16, entity_id=Kuchi Eyjhann (ID: 17199775/0x0106729F))
 49: 0x08CF [0x52] END_LOAD_SCHEDULER: End scheduler "7332" with entities [LocalPlayer, LocalPlayer], work=489*
 50: 0x08DE [0x45] LOAD_SCHEDULED_TASK: Load scheduler "7333" with entities [LocalPlayer, LocalPlayer], work=[489*, 0*]
 51: 0x08EF [0x6E] Kuchi Eyjhann (ID: 17199775/0x0106729F) uses emote 26*
 52: 0x08F6 [0x99] Wait for Kuchi Eyjhann (ID: 17199775/0x0106729F) animation to complete
 53: 0x08FB [0x2B] Kuchi Eyjhann (ID: 17199775/0x0106729F) [11447*]:
    → "Aaah, how I wish I had been there to--<slurp>--bear witness to the moment of triumph..."
 54: 0x0902 [0x1C] WAIT(150* ticks)
 55: 0x0905 [0x23] WAIT_FOR_DIALOG_INTERACTION
 56: 0x0906 [0x2B] Kuchi Eyjhann (ID: 17199775/0x0106729F) [11448*]:
    → "Oh, well. Perrrhaps next time."
 57: 0x090D [0x23] WAIT_FOR_DIALOG_INTERACTION
 58: 0x090E [0x27] REQ_SET(priority=0x10, entity_id=Kuchi Eyjhann (ID: 17199775/0x0106729F), tag_num=0x12)
 59: 0x0915 [0x1C] WAIT(10* ticks)
 60: 0x0918 [0x52] END_LOAD_SCHEDULER: End scheduler "7333" with entities [LocalPlayer, LocalPlayer], work=489*
 61: 0x0927 [0x45] LOAD_SCHEDULED_TASK: Load scheduler "7334" with entities [LocalPlayer, LocalPlayer], work=[489*, 0*]
 62: 0x0938 [0x2A] GET_REQ_LEVEL(level=16, entity_id=Kuchi Eyjhann (ID: 17199775/0x0106729F))
 63: 0x093E [0x2B] Kuchi Eyjhann (ID: 17199775/0x0106729F) [11449*]:
    → "You probably get told this all the time, but you adventurers are truly an amazing bunch, what with your herrroic antics and all."
 64: 0x0945 [0x23] WAIT_FOR_DIALOG_INTERACTION
 65: 0x0946 [0x7B] Kuchi Eyjhann (ID: 17199775/0x0106729F) stops talking
 66: 0x094B [0x66] LOAD_EXT_SCHEDULER_MAIN: Load scheduler "thk1" with entities [Kuchi Eyjhann (ID: 17199775/0x0106729F), Kuchi Eyjhann (ID: 17199775/0x0106729F)], work=59*
 67: 0x095A [0x2B] Kuchi Eyjhann (ID: 17199775/0x0106729F) [11450*]:
    → "Puts in me mind of another lot that used to be seen all over Abyssea beforrre the skies turned red."
 68: 0x0961 [0x23] WAIT_FOR_DIALOG_INTERACTION
 69: 0x0962 [0x52] END_LOAD_SCHEDULER: End scheduler "7334" with entities [LocalPlayer, LocalPlayer], work=489*
 70: 0x0971 [0x45] LOAD_SCHEDULED_TASK: Load scheduler "7336" with entities [LocalPlayer, LocalPlayer], work=[489*, 0*]
 71: 0x0982 [0x2B] Kuchi Eyjhann (ID: 17199775/0x0106729F) [11451*]:
    → "They seemed to've been fighting against something as well, though few of us were paying attention. Then one day, someone looked up and noticed that they had all vanished without a trrrace."
 72: 0x0989 [0x23] WAIT_FOR_DIALOG_INTERACTION
 73: 0x098A [0x2B] Kuchi Eyjhann (ID: 17199775/0x0106729F) [11452*]:
    → "Now, this might just be my Mithran instincts...but could their disappearrrance be in any way connected to the cataclysm?"
 74: 0x0991 [0x23] WAIT_FOR_DIALOG_INTERACTION
 75: 0x0992 [0x52] END_LOAD_SCHEDULER: End scheduler "7336" with entities [LocalPlayer, LocalPlayer], work=489*
 76: 0x09A1 [0x45] LOAD_SCHEDULED_TASK: Load scheduler "7337" with entities [LocalPlayer, LocalPlayer], work=[489*, 0*]
 77: 0x09B2 [0x66] LOAD_EXT_SCHEDULER_MAIN: Load scheduler "thk2" with entities [Kuchi Eyjhann (ID: 17199775/0x0106729F), Kuchi Eyjhann (ID: 17199775/0x0106729F)], work=59*
 78: 0x09C1 [0x1C] WAIT(30* ticks)
 79: 0x09C4 [0x2B] Kuchi Eyjhann (ID: 17199775/0x0106729F) [11453*]:
    → "I've been sensing a lot of things lately, and one of them happens to concerrrn you, <Player>."
 80: 0x09CB [0x23] WAIT_FOR_DIALOG_INTERACTION
 81: 0x09CC [0x53] WAIT_SCHEDULER_TASK: Wait for scheduler "thk2" with entities [Kuchi Eyjhann (ID: 17199775/0x0106729F), Kuchi Eyjhann (ID: 17199775/0x0106729F)]
 82: 0x09D9 [0x66] LOAD_EXT_SCHEDULER_MAIN: Load scheduler "tlk0" with entities [Kuchi Eyjhann (ID: 17199775/0x0106729F), Kuchi Eyjhann (ID: 17199775/0x0106729F)], work=59*
 83: 0x09E8 [0x2B] Kuchi Eyjhann (ID: 17199775/0x0106729F) [11454*]:
    → "I've a gut feeling it may be you who uncoverrrs the truth behind what's happening to my world."
 84: 0x09EF [0x23] WAIT_FOR_DIALOG_INTERACTION
 85: 0x09F0 [0x52] END_LOAD_SCHEDULER: End scheduler "7337" with entities [LocalPlayer, LocalPlayer], work=489*
 86: 0x09FF [0x45] LOAD_SCHEDULED_TASK: Load scheduler "7338" with entities [LocalPlayer, LocalPlayer], work=[489*, 0*]
 87: 0x0A10 [0x2B] Kuchi Eyjhann (ID: 17199775/0x0106729F) [11455*]:
    → "But, errr, like I said, it's only a gut feeling. No need to feel pressurrred, all right? You just keep on doing what you can for Abyssea, and we'll be just as grateful."
 88: 0x0A17 [0x23] WAIT_FOR_DIALOG_INTERACTION
 89: 0x0A18 [0x66] LOAD_EXT_SCHEDULER_MAIN: Load scheduler "tlk1" with entities [Kuchi Eyjhann (ID: 17199775/0x0106729F), Kuchi Eyjhann (ID: 17199775/0x0106729F)], work=59*
 90: 0x0A27 [0x2B] Kuchi Eyjhann (ID: 17199775/0x0106729F) [11456*]:
    → "Oh, and before I forget, I've got a little prrresent for you."
 91: 0x0A2E [0x23] WAIT_FOR_DIALOG_INTERACTION
 92: 0x0A2F [0x53] WAIT_SCHEDULER_TASK: Wait for scheduler "tlk1" with entities [Kuchi Eyjhann (ID: 17199775/0x0106729F), Kuchi Eyjhann (ID: 17199775/0x0106729F)]
 93: 0x0A3C [0x52] END_LOAD_SCHEDULER: End scheduler "7338" with entities [LocalPlayer, LocalPlayer], work=489*
 94: 0x0A4B [0x45] LOAD_SCHEDULED_TASK: Load scheduler "7339" with entities [LocalPlayer, LocalPlayer], work=[489*, 0*]
 95: 0x0A5C [0x5D] SET_MUSIC_VOLUME(volume=0*, fade_time=120*)
 96: 0x0A61 [0x66] LOAD_EXT_SCHEDULER_MAIN: Load scheduler "pas0" with entities [Kuchi Eyjhann (ID: 17199775/0x0106729F), Kuchi Eyjhann (ID: 17199775/0x0106729F)], work=121*
 97: 0x0A70 [0x53] WAIT_SCHEDULER_TASK: Wait for scheduler "pas0" with entities [Kuchi Eyjhann (ID: 17199775/0x0106729F), Kuchi Eyjhann (ID: 17199775/0x0106729F)]
 98: 0x0A7D [0x03] Work_Zone[1] = 1*
 99: 0x0A82 [0x43] SEND_EVENT_UPDATE: Send pending tag to server (packet 0x005B)
100: 0x0A84 [0x43] SEND_EVENT_UPDATE: Check pending flag (skip if not pending)
101: 0x0A86 [0x2B] Kuchi Eyjhann (ID: 17199775/0x0106729F) [11457*]:
    → "It's $6."
102: 0x0A8D [0x23] WAIT_FOR_DIALOG_INTERACTION
103: 0x0A8E [0x6E] Kuchi Eyjhann (ID: 17199775/0x0106729F) uses emote 11*
104: 0x0A95 [0x99] Wait for Kuchi Eyjhann (ID: 17199775/0x0106729F) animation to complete
105: 0x0A9A [0x2B] Kuchi Eyjhann (ID: 17199775/0x0106729F) [11458*]:
    → "It supposedly works best for folk of your world, so I thought you should have it. It's not easy to come by, though, so take good carrre of it, eh?"
106: 0x0AA1 [0x1C] WAIT(120* ticks)
107: 0x0AA4 [0x23] WAIT_FOR_DIALOG_INTERACTION
108: 0x0AA5 [0x52] END_LOAD_SCHEDULER: End scheduler "7339" with entities [LocalPlayer, LocalPlayer], work=489*
109: 0x0AB4 [0x45] LOAD_SCHEDULED_TASK: Load scheduler "7340" with entities [LocalPlayer, LocalPlayer], work=[489*, 0*]
110: 0x0AC5 [0x4B] UPDATE_ENTITY_YAW(entity=Kuchi Eyjhann (ID: 17199775/0x0106729F), yaw=16.9°*)
111: 0x0ACC [0x1C] WAIT(45* ticks)
112: 0x0ACF [0x2B] Kuchi Eyjhann (ID: 17199775/0x0106729F) [11459*]:
    → "Yikes, would you look at the time? I have to hurry back to rrrelieve my comrade of sentry duty."
113: 0x0AD6 [0x79] Kuchi Eyjhann (ID: 17199775/0x0106729F) looks at Cavernous Maw (ID: 17199772/0x0106729C) (Basic look)
114: 0x0AE0 [0x4A] LocalPlayer looks at Cavernous Maw (ID: 17199772/0x0106729C)
115: 0x0AE9 [0x6F] WAIT_FRAME_DELAY: Yield until WaitTime reaches zero
116: 0x0AEA [0x76] CHECK_ENTITY_RENDER_FLAGS: Wait until LocalPlayer Render.Flags0 and Render.Flags3 conditions are met
117: 0x0AEF [0x1C] WAIT(60* ticks)
118: 0x0AF2 [0x23] WAIT_FOR_DIALOG_INTERACTION
119: 0x0AF3 [0x5C] MUSIC_CONTROL: Set Idle (Day) music to song 106*
120: 0x0AF7 [0x5C] MUSIC_CONTROL: Set Idle (Night) music to song 106*
121: 0x0AFB [0x9A] WAIT_MUSIC_SERVER()
122: 0x0AFC [0x52] END_LOAD_SCHEDULER: End scheduler "7340" with entities [LocalPlayer, LocalPlayer], work=489*
123: 0x0B0B [0x45] LOAD_SCHEDULED_TASK: Load scheduler "7341" with entities [LocalPlayer, LocalPlayer], work=[489*, 0*]
124: 0x0B1C [0x79] Kuchi Eyjhann (ID: 17199775/0x0106729F) looks at LocalPlayer (Basic look)
125: 0x0B26 [0x6E] Kuchi Eyjhann (ID: 17199775/0x0106729F) uses emote 16*
126: 0x0B2D [0x99] Wait for Kuchi Eyjhann (ID: 17199775/0x0106729F) animation to complete
127: 0x0B32 [0x2B] Kuchi Eyjhann (ID: 17199775/0x0106729F) [11460*]:
    → "It's been a pleasure talking with you today. I'm looking forrrward to the next time we get to chit-chat again, so you better stick around. In other words, don't go getting yourself killed!"
128: 0x0B39 [0x1C] WAIT(15* ticks)
129: 0x0B3C [0x79] LocalPlayer looks at Kuchi Eyjhann (ID: 17199775/0x0106729F) (Basic look)
130: 0x0B46 [0x1C] WAIT(105* ticks)
131: 0x0B49 [0x23] WAIT_FOR_DIALOG_INTERACTION
132: 0x0B4A [0x52] END_LOAD_SCHEDULER: End scheduler "7341" with entities [LocalPlayer, LocalPlayer], work=489*
133: 0x0B59 [0x45] LOAD_SCHEDULED_TASK: Load scheduler "7342" with entities [LocalPlayer, LocalPlayer], work=[489*, 0*]
134: 0x0B6A [0x2B] Kuchi Eyjhann (ID: 17199775/0x0106729F) [11461*]:
    → "Never stop being our rrray of hope, <Player>!"
135: 0x0B71 [0x23] WAIT_FOR_DIALOG_INTERACTION
136: 0x0B72 [0x2B] Kuchi Eyjhann (ID: 17199775/0x0106729F) [11462*]:
    → "Be seeing you!"
137: 0x0B79 [0x23] WAIT_FOR_DIALOG_INTERACTION
138: 0x0B7A [0x4A] LocalPlayer looks at Kuchi Eyjhann (ID: 17199775/0x0106729F)
139: 0x0B83 [0x52] END_LOAD_SCHEDULER: End scheduler "7342" with entities [LocalPlayer, LocalPlayer], work=489*
140: 0x0B92 [0x45] LOAD_SCHEDULED_TASK: Load scheduler "7343" with entities [LocalPlayer, LocalPlayer], work=[489*, 0*]
141: 0x0BA3 [0x5D] SET_MUSIC_VOLUME(volume=0*, fade_time=300*)
142: 0x0BA8 [0x6E] Kuchi Eyjhann (ID: 17199775/0x0106729F) uses emote 8*
143: 0x0BAF [0x99] Wait for Kuchi Eyjhann (ID: 17199775/0x0106729F) animation to complete
144: 0x0BB4 [0xCD] LOAD_SCHEDULED_TASK_ALT4: Load scheduler "main" with entities [Kuchi Eyjhann (ID: 17199775/0x0106729F), Kuchi Eyjhann (ID: 17199775/0x0106729F)], work=[79*, 0*]
145: 0x0BC5 [0x1C] WAIT(210* ticks)
146: 0x0BC8 [0x1A] CALL_SUBROUTINE(address=0x0C80)
147: 0x0BCB [0x1C] WAIT(30* ticks)
148: 0x0BCE [0x52] END_LOAD_SCHEDULER: End scheduler "7343" with entities [LocalPlayer, LocalPlayer], work=489*
149: 0x0BDD [0x45] LOAD_SCHEDULED_TASK: Load scheduler "0blf" with entities [LocalPlayer, LocalPlayer], work=[489*, 0*]
150: 0x0BEE [0x5C] MUSIC_CONTROL: Set Idle (Day) music to song 0*
151: 0x0BF2 [0x5C] MUSIC_CONTROL: Set Idle (Night) music to song 0*
152: 0x0BF6 [0x9A] WAIT_MUSIC_SERVER()
153: 0x0BF7 [0x46] CAMERA_CONTROL: Restore default settings
154: 0x0BF9 [0x45] LOAD_SCHEDULED_TASK: Load scheduler "qstc" with entities [EventEntity, EventEntity], work=[201*, 0*]
155: 0x0C0A [0x45] LOAD_SCHEDULED_TASK: Load scheduler "fdi2" with entities [LocalPlayer, LocalPlayer], work=[200*, 0*]
156: 0x0C1B [0x21] END_EVENT
157: 0x0C1C [0x00] END_REQSTACK()

SUBROUTINE_0C5F:
158: 0x0C5F [0x45] LOAD_SCHEDULED_TASK: Load scheduler "fdi1" with entities [LocalPlayer, LocalPlayer], work=[200*, 0*]
159: 0x0C70 [0x55] WAIT_LOAD_SCHEDULER: Wait for scheduler "fdi1" with entities [LocalPlayer, LocalPlayer], work=200*
160: 0x0C7F [0x1B] RETURN

SUBROUTINE_0C80:
161: 0x0C80 [0x45] LOAD_SCHEDULED_TASK: Load scheduler "fdo1" with entities [LocalPlayer, LocalPlayer], work=[200*, 0*]
162: 0x0C91 [0x55] WAIT_LOAD_SCHEDULER: Wait for scheduler "fdo1" with entities [LocalPlayer, LocalPlayer], work=200*
163: 0x0CA0 [0x1B] RETURN
```

#### Data or dead code:

```
# Dead code (unreachable instructions):
     0x0C1D [0x45] LOAD_SCHEDULED_TASK: Load scheduler "fdi0" with entities [LocalPlayer, LocalPlayer], work=[200*, 0*]
     0x0C2E [0x55] WAIT_LOAD_SCHEDULER: Wait for scheduler "fdi0" with entities [LocalPlayer, LocalPlayer], work=200*
     0x0C3D [0x1B] RETURN
     0x0C3E [0x45] LOAD_SCHEDULED_TASK: Load scheduler "fdo0" with entities [LocalPlayer, LocalPlayer], work=[200*, 0*]
     0x0C4F [0x55] WAIT_LOAD_SCHEDULER: Wait for scheduler "fdo0" with entities [LocalPlayer, LocalPlayer], work=200*
     0x0C5E [0x1B] RETURN
# Dead code (unreachable instructions):
     0x0CA1 [0x45] LOAD_SCHEDULED_TASK: Load scheduler "whi1" with entities [LocalPlayer, LocalPlayer], work=[201*, 0*]
     0x0CB2 [0x55] WAIT_LOAD_SCHEDULER: Wait for scheduler "whi1" with entities [LocalPlayer, LocalPlayer], work=201*
     0x0CC1 [0x1B] RETURN
     0x0CC2 [0x45] LOAD_SCHEDULED_TASK: Load scheduler "who1" with entities [LocalPlayer, LocalPlayer], work=[201*, 0*]
     0x0CD3 [0x55] WAIT_LOAD_SCHEDULER: Wait for scheduler "who1" with entities [LocalPlayer, LocalPlayer], work=201*
     0x0CE2 [0x1B] RETURN
     0x0CE3 [0x45] LOAD_SCHEDULED_TASK: Load scheduler "who2" with entities [LocalPlayer, LocalPlayer], work=[201*, 0*]
     0x0CF4 [0x55] WAIT_LOAD_SCHEDULER: Wait for scheduler "who2" with entities [LocalPlayer, LocalPlayer], work=201*
     0x0D03 [0x1B] RETURN
     0x0D04 [0x45] LOAD_SCHEDULED_TASK: Load scheduler "who3" with entities [LocalPlayer, LocalPlayer], work=[201*, 0*]
     0x0D15 [0x55] WAIT_LOAD_SCHEDULER: Wait for scheduler "who3" with entities [LocalPlayer, LocalPlayer], work=201*
     0x0D24 [0x1B] RETURN
     0x0D25 [0x62] LOAD_EVENT_SCHEDULER: Load scheduler "main" with entities [LocalPlayer, LocalPlayer], work=[1*, 0*]
     0x0D36 [0x1C] WAIT(45* ticks)
     0x0D39 [0x45] LOAD_SCHEDULED_TASK: Load scheduler "fdo1" with entities [LocalPlayer, LocalPlayer], work=[200*, 0*]
     0x0D4A [0x55] WAIT_LOAD_SCHEDULER: Wait for scheduler "fdo1" with entities [LocalPlayer, LocalPlayer], work=200*
     0x0D59 [0x1B] RETURN
     0x0D5A [0x45] LOAD_SCHEDULED_TASK: Load scheduler "fdi1" with entities [LocalPlayer, LocalPlayer], work=[200*, 0*]
     0x0D6B [0x62] LOAD_EVENT_SCHEDULER: Load scheduler "main" with entities [LocalPlayer, LocalPlayer], work=[2*, 0*]
     0x0D7C [0x1C] WAIT(30* ticks)
     0x0D7F [0x55] WAIT_LOAD_SCHEDULER: Wait for scheduler "fdi1" with entities [LocalPlayer, LocalPlayer], work=200*
     0x0D8E [0x1B] RETURN
     0x0D8F [0x45] LOAD_SCHEDULED_TASK: Load scheduler "blon" with entities [LocalPlayer, LocalPlayer], work=[200*, 0*]
     0x0DA0 [0x45] LOAD_SCHEDULED_TASK: Load scheduler "blon" with entities [LocalPlayer, LocalPlayer], work=[201*, 0*]
     0x0DB1 [0x1B] RETURN
     0x0DB2 [0x45] LOAD_SCHEDULED_TASK: Load scheduler "whi0" with entities [LocalPlayer, LocalPlayer], work=[201*, 0*]
     0x0DC3 [0x55] WAIT_LOAD_SCHEDULER: Wait for scheduler "whi0" with entities [LocalPlayer, LocalPlayer], work=201*
     0x0DD2 [0x1B] RETURN
     0x0DD3 [0x45] LOAD_SCHEDULED_TASK: Load scheduler "who0" with entities [LocalPlayer, LocalPlayer], work=[201*, 0*]
     0x0DE4 [0x55] WAIT_LOAD_SCHEDULER: Wait for scheduler "who0" with entities [LocalPlayer, LocalPlayer], work=201*
     0x0DF3 [0x1B] RETURN
     0x0DF4 [0x45] LOAD_SCHEDULED_TASK: Load scheduler "efon" with entities [LocalPlayer, LocalPlayer], work=[215*, 0*]
     0x0E05 [0x55] WAIT_LOAD_SCHEDULER: Wait for scheduler "efon" with entities [LocalPlayer, LocalPlayer], work=215*
     0x0E14 [0x1B] RETURN
     0x0E15 [0x45] LOAD_SCHEDULED_TASK: Load scheduler "fdis" with entities [LocalPlayer, LocalPlayer], work=[200*, 0*]
     0x0E26 [0x1B] RETURN
     0x0E27 [0x45] LOAD_SCHEDULED_TASK: Load scheduler "fdos" with entities [LocalPlayer, LocalPlayer], work=[200*, 0*]
     0x0E38 [0x55] WAIT_LOAD_SCHEDULER: Wait for scheduler "fdos" with entities [LocalPlayer, LocalPlayer], work=200*
     0x0E47 [0x1B] RETURN
     0x0E48 [0x45] LOAD_SCHEDULED_TASK: Load scheduler "fdif" with entities [LocalPlayer, LocalPlayer], work=[200*, 0*]
     0x0E59 [0x1B] RETURN
     0x0E5A [0x45] LOAD_SCHEDULED_TASK: Load scheduler "fdof" with entities [LocalPlayer, LocalPlayer], work=[200*, 0*]
     0x0E6B [0x55] WAIT_LOAD_SCHEDULER: Wait for scheduler "fdof" with entities [LocalPlayer, LocalPlayer], work=200*
     0x0E7A [0x1B] RETURN
     0x0E7B [0x45] LOAD_SCHEDULED_TASK: Load scheduler "fdip" with entities [LocalPlayer, LocalPlayer], work=[200*, 0*]
     0x0E8C [0x1B] RETURN
     0x0E8D [0x45] LOAD_SCHEDULED_TASK: Load scheduler "fdop" with entities [LocalPlayer, LocalPlayer], work=[200*, 0*]
     0x0E9E [0x55] WAIT_LOAD_SCHEDULER: Wait for scheduler "fdop" with entities [LocalPlayer, LocalPlayer], work=200*
     0x0EAD [0x1B] RETURN
```
