# 0x7FFFFFF0 - Zone Events

## Common Data

| Field            | Value                   |
|------------------|-------------------------|
| Zone             | Valkurm Dunes (ID: 103) |
| Block Size       | 3028 bytes              |
| Total Events     | 40                      |
| References Count | 145                     |

## List of Events

| Event ID                   | Entrypoint   |   Size |   Instructions |
|----------------------------|--------------|--------|----------------|
| [65535](#event-65535)      | 0x0000       |      1 |              1 |
| [65534](#event-65534)      | 0x0001       |      1 |              1 |
| [65535.1](#event-655351)   | 0x0002       |      2 |              2 |
| [0](#event-0)              | 0x0004       |      5 |              3 |
| [2](#event-2)              | 0x0009       |    900 |            139 |
| [13](#event-13)            | 0x038D       |    549 |             75 |
| [65535.2](#event-655352)   | 0x05B2       |     10 |              2 |
| [65535.3](#event-655353)   | 0x05BC       |     10 |              2 |
| [65535.4](#event-655354)   | 0x05C6       |     10 |              2 |
| [65535.5](#event-655355)   | 0x05D0       |     10 |              2 |
| [65535.6](#event-655356)   | 0x05DA       |     10 |              2 |
| [65535.7](#event-655357)   | 0x05E4       |     10 |              2 |
| [65535.8](#event-655358)   | 0x05EE       |     10 |              2 |
| [65535.9](#event-655359)   | 0x05F8       |     10 |              2 |
| [65535.10](#event-6553510) | 0x0602       |     10 |              2 |
| [65535.11](#event-6553511) | 0x060C       |     10 |              2 |
| [65535.12](#event-6553512) | 0x0616       |     10 |              2 |
| [65535.13](#event-6553513) | 0x0620       |     10 |              2 |
| [65535.14](#event-6553514) | 0x062A       |     10 |              2 |
| [65535.15](#event-6553515) | 0x0634       |     10 |              2 |
| [65535.16](#event-6553516) | 0x063E       |     10 |              2 |
| [65535.17](#event-6553517) | 0x0648       |     10 |              2 |
| [65535.18](#event-6553518) | 0x0652       |     10 |              2 |
| [65535.19](#event-6553519) | 0x065C       |     10 |              2 |
| [65535.20](#event-6553520) | 0x0666       |     10 |              2 |
| [65535.21](#event-6553521) | 0x0670       |     10 |              2 |
| [65535.22](#event-6553522) | 0x067A       |     12 |              3 |
| [65535.23](#event-6553523) | 0x0686       |     10 |              2 |
| [65535.24](#event-6553524) | 0x0690       |     37 |              5 |
| [65535.25](#event-6553525) | 0x06B5       |    185 |             37 |
| [65535.26](#event-6553526) | 0x076E       |     24 |              4 |
| [65535.27](#event-6553527) | 0x0786       |     24 |              4 |
| [65535.28](#event-6553528) | 0x079E       |     37 |              5 |
| [65535.29](#event-6553529) | 0x07C3       |     37 |              5 |
| [65535.30](#event-6553530) | 0x07E8       |     42 |              6 |
| [65535.31](#event-6553531) | 0x0812       |     16 |              3 |
| [65535.32](#event-6553532) | 0x0822       |     41 |              5 |
| [65535.33](#event-6553533) | 0x084B       |      6 |              2 |
| [65535.34](#event-6553534) | 0x0851       |      6 |              2 |
| [44](#event-44)            | 0x0857       |    135 |             31 |

## DAT References (imed_data)

|   Index | Hex Value   |   Dec Value |
|---------|-------------|-------------|
|       0 | 0x00C8      |         200 |
|       1 | 0x0000      |           0 |
|       2 | 0x0013      |          19 |
|       3 | 0xFFF50421  |  4294247457 |
|       4 | 0x1924F     |      102991 |
|       5 | 0xFFFFE3F8  |  4294960120 |
|       6 | 0x0FCA      |        4042 |
|       7 | 0x0092      |         146 |
|       8 | 0x007A      |         122 |
|       9 | 0x1CB6      |        7350 |
|      10 | 0x00F0      |         240 |
|      11 | 0x001E      |          30 |
|      12 | 0x1CB7      |        7351 |
|      13 | 0x1CB8      |        7352 |
|      14 | 0x000A      |          10 |
|      15 | 0x003C      |          60 |
|      16 | 0x1CB9      |        7353 |
|      17 | 0x1CBA      |        7354 |
|      18 | 0x1CBB      |        7355 |
|      19 | 0x1CBC      |        7356 |
|      20 | 0x0A66      |        2662 |
|      21 | 0x1CBD      |        7357 |
|      22 | 0x1CBE      |        7358 |
|      23 | 0x1CBF      |        7359 |
|      24 | 0x0F89      |        3977 |
|      25 | 0x1CC0      |        7360 |
|      26 | 0x1CC1      |        7361 |
|      27 | 0x09B4      |        2484 |
|      28 | 0x1CC2      |        7362 |
|      29 | 0x1CC3      |        7363 |
|      30 | 0x1CC4      |        7364 |
|      31 | 0x1CC5      |        7365 |
|      32 | 0x1CC6      |        7366 |
|      33 | 0x1CC7      |        7367 |
|      34 | 0x1CC8      |        7368 |
|      35 | 0x1CC9      |        7369 |
|      36 | 0x00C9      |         201 |
|      37 | 0x0090      |         144 |
|      38 | 0xFFF41775  |  4294186869 |
|      39 | 0x58BC      |       22716 |
|      40 | 0xFFFFE264  |  4294959716 |
|      41 | 0x0AB3      |        2739 |
|      42 | 0x0005      |           5 |
|      43 | 0x1E84      |        7812 |
|      44 | 0x1E85      |        7813 |
|      45 | 0x1E86      |        7814 |
|      46 | 0x1E8A      |        7818 |
|      47 | 0x1E87      |        7815 |
|      48 | 0x21D4A     |      138570 |
|      49 | 0x1DC79     |      121977 |
|      50 | 0xFFFFF830  |  4294965296 |
|      51 | 0x086F      |        2159 |
|      52 | 0x1807D     |       98429 |
|      53 | 0xFFFEFF25  |  4294901541 |
|      54 | 0x03E4      |         996 |
|      55 | 0x04E3      |        1251 |
|      56 | 0xFFFCB26E  |  4294750830 |
|      57 | 0xFFFE9627  |  4294874663 |
|      58 | 0xFFFFFF0B  |  4294967051 |
|      59 | 0x09F7      |        2551 |
|      60 | 0x8B2F      |       35631 |
|      61 | 0xFFFF3AAD  |  4294916781 |
|      62 | 0x2329      |        9001 |
|      63 | 0x09EC      |        2540 |
|      64 | 0x27692     |      161426 |
|      65 | 0x274F7     |      161015 |
|      66 | 0x05F8      |        1528 |
|      67 | 0x1C843     |      116803 |
|      68 | 0xFFFEE69B  |  4294895259 |
|      69 | 0x07F9      |        2041 |
|      70 | 0xFFFC8339  |  4294738745 |
|      71 | 0xFFFE2B86  |  4294847366 |
|      72 | 0xFFFFFF07  |  4294967047 |
|      73 | 0x0FFD      |        4093 |
|      74 | 0xBF7E      |       49022 |
|      75 | 0xFFFEE2B4  |  4294894260 |
|      76 | 0x2712      |       10002 |
|      77 | 0x0C0F      |        3087 |
|      78 | 0x185ED     |       99821 |
|      79 | 0xFFFEFF9F  |  4294901663 |
|      80 | 0x0312      |         786 |
|      81 | 0x21BAA     |      138154 |
|      82 | 0x1D514     |      120084 |
|      83 | 0x0E96      |        3734 |
|      84 | 0xFFFCB3AF  |  4294751151 |
|      85 | 0xFFFE90C0  |  4294873280 |
|      86 | 0xFFFFFF72  |  4294967154 |
|      87 | 0x084B      |        2123 |
|      88 | 0x8B65      |       35685 |
|      89 | 0xFFFF3C2F  |  4294917167 |
|      90 | 0x065B      |        1627 |
|      91 | 0xFFFBBF41  |  4294688577 |
|      92 | 0xFFF9A232  |  4294550066 |
|      93 | 0xFFFF641B  |  4294927387 |
|      94 | 0x0AA6      |        2726 |
|      95 | 0x8B7BE     |      571326 |
|      96 | 0xFFFBD923  |  4294695203 |
|      97 | 0xFFFFFEA3  |  4294966947 |
|      98 | 0x01A6      |         422 |
|      99 | 0xFFFBB61F  |  4294686239 |
|     100 | 0xFFF9928F  |  4294546063 |
|     101 | 0xFFFF648E  |  4294927502 |
|     102 | 0x0704      |        1796 |
|     103 | 0x88F90     |      561040 |
|     104 | 0xFFFBC607  |  4294690311 |
|     105 | 0x06C5      |        1733 |
|     106 | 0xFFFA88AC  |  4294609068 |
|     107 | 0x4DDD      |       19933 |
|     108 | 0xFFFF7744  |  4294932292 |
|     109 | 0x0831      |        2097 |
|     110 | 0x1DA71     |      121457 |
|     111 | 0x1C391     |      115601 |
|     112 | 0xFFFFE0D3  |  4294959315 |
|     113 | 0x0DA9      |        3497 |
|     114 | 0x25BC9     |      154569 |
|     115 | 0xFFFD5734  |  4294793012 |
|     116 | 0x0227      |         551 |
|     117 | 0x091C      |        2332 |
|     118 | 0xFFFFC3F3  |  4294951923 |
|     119 | 0x19656     |      104022 |
|     120 | 0xFFFFBC6C  |  4294949996 |
|     121 | 0x0379      |         889 |
|     122 | 0x0286      |         646 |
|     123 | 0xFFFF97B9  |  4294940601 |
|     124 | 0xFFFFE43B  |  4294960187 |
|     125 | 0x0689      |        1673 |
|     126 | 0xFFFFFFD1  |  4294967249 |
|     127 | 0xFFFF80F7  |  4294934775 |
|     128 | 0xFFFFA435  |  4294943797 |
|     129 | 0x03FD      |        1021 |
|     130 | 0x0001      |           1 |
|     131 | 0x0002      |           2 |
|     132 | 0x0009      |           9 |
|     133 | 0x0046      |          70 |
|     134 | 0x008C      |         140 |
|     135 | 0x00D2      |         210 |
|     136 | 0x58B19     |      363289 |
|     137 | 0xFFFE2DF8  |  4294847992 |
|     138 | 0x0041      |          65 |
|     139 | 0x0094      |         148 |
|     140 | 0x000F      |          15 |
|     141 | 0x1F8B      |        8075 |
|     142 | 0x1F97      |        8087 |
|     143 | 0x0063      |          99 |
|     144 | 0x1F98      |        8088 |

## String References

- **8075**: There is treasure somewhere in the vicinity of this marker...
- **8087**: Your chocobo seems especially sharp today!
- **8088**: Your chocobo seems especially energetic today!

## Events

### Event 65535

#### Metadata

| Field        | Value   |
|--------------|---------|
| Entrypoint   | 0x0000  |
| Data Size    | 1 bytes |
| Instructions | 1       |

```
      00 01 02 03 04 05 06 07  08 09 0A 0B 0C 0D 0E 0F
      -- -- -- -- -- -- -- --  -- -- -- -- -- -- -- --
0000: 00                                                .               
```

#### Opcodes

```
  0: 0x0000 [0x00] END_REQSTACK()
```

### Event 65534

#### Metadata

| Field        | Value   |
|--------------|---------|
| Entrypoint   | 0x0001  |
| Data Size    | 1 bytes |
| Instructions | 1       |

```
      00 01 02 03 04 05 06 07  08 09 0A 0B 0C 0D 0E 0F
      -- -- -- -- -- -- -- --  -- -- -- -- -- -- -- --
0000:    00                                              .              
```

#### Opcodes

```
  0: 0x0001 [0x00] END_REQSTACK()
```

### Event 65535.1

#### Metadata

| Field        | Value   |
|--------------|---------|
| Entrypoint   | 0x0002  |
| Data Size    | 2 bytes |
| Instructions | 2       |

```
      00 01 02 03 04 05 06 07  08 09 0A 0B 0C 0D 0E 0F
      -- -- -- -- -- -- -- --  -- -- -- -- -- -- -- --
0000:       21 00                                         !.            
```

#### Opcodes

```
  0: 0x0002 [0x21] END_EVENT
  1: 0x0003 [0x00] END_REQSTACK()
```

### Event 0

#### Metadata

| Field        | Value   |
|--------------|---------|
| Entrypoint   | 0x0004  |
| Data Size    | 5 bytes |
| Instructions | 3       |

```
      00 01 02 03 04 05 06 07  08 09 0A 0B 0C 0D 0E 0F
      -- -- -- -- -- -- -- --  -- -- -- -- -- -- -- --
0000:             20 01 20 00  00                            . ..       
```

#### Opcodes

```
  0: 0x0004 [0x20] SET_CLI_EVENT_UC_FLAG: Lock player control
  1: 0x0006 [0x20] SET_CLI_EVENT_UC_FLAG: Unlock player control
  2: 0x0008 [0x00] END_REQSTACK()
```

### Event 2

#### Metadata

| Field        | Value     |
|--------------|-----------|
| Entrypoint   | 0x0009    |
| Data Size    | 900 bytes |
| Instructions | 139       |

```
      00 01 02 03 04 05 06 07  08 09 0A 0B 0C 0D 0E 0F
      -- -- -- -- -- -- -- --  -- -- -- -- -- -- -- --
0000:                             20 01 46 01 42 45 00            .F.BE.
0010: 80 F0 FF FF 7F F0 FF FF  7F 66 64 6F 31 01 80 55  .........fdo1..U
0020: 00 80 F0 FF FF 7F F0 FF  FF 7F 66 64 6F 31 38 02  ..........fdo18.
0030: 80 37 03 80 04 80 05 80  06 80 4E 00 50 72 06 01  .7........N.Pr..
0040: 4E 00 51 72 06 01 45 07  80 F8 FF FF 7F F8 FF FF  N.Qr..E.........
0050: 7F 63 6D 32 30 01 80 55  07 80 F8 FF FF 7F F8 FF  .cm20..U........
0060: FF 7F 63 6D 32 30 5C 00  08 80 5C 01 08 80 45 00  ..cm20\...\...E.
0070: 80 F0 FF FF 7F F0 FF FF  7F 66 64 69 31 01 80 55  .........fdi1..U
0080: 00 80 F0 FF FF 7F F0 FF  FF 7F 66 64 69 31 2B 51  ..........fdi1+Q
0090: 72 06 01 09 80 23 4A F0  FF FF 7F 51 72 06 01 27  r....#J....Qr..'
00A0: 03 51 72 06 01 02 1C 0A  80 4A F0 FF FF 7F 51 72  .Qr......J....Qr
00B0: 06 01 1C 0B 80 4A F0 FF  FF 7F 51 72 06 01 1C 0B  .....J....Qr....
00C0: 80 29 04 51 72 06 01 0D  4A F0 FF FF 7F 51 72 06  .).Qr...J....Qr.
00D0: 01 2B 51 72 06 01 0C 80  23 2B 50 72 06 01 0D 80  .+Qr....#+Pr....
00E0: 23 4A 51 72 06 01 50 72  06 01 1C 0E 80 4A F0 FF  #JQr..Pr.....J..
00F0: FF 7F 50 72 06 01 45 07  80 F8 FF FF 7F F8 FF FF  ..Pr..E.........
0100: 7F 63 6D 32 31 01 80 27  03 50 72 06 01 02 1C 0F  .cm21..'.Pr.....
0110: 80 4A 51 72 06 01 50 72  06 01 1C 0E 80 4A F0 FF  .JQr..Pr.....J..
0120: FF 7F 50 72 06 01 1C 0F  80 4A 51 72 06 01 50 72  ..Pr.....JQr..Pr
0130: 06 01 1C 0E 80 4A F0 FF  FF 7F 50 72 06 01 29 04  .....J....Pr..).
0140: 50 72 06 01 0B 4A 51 72  06 01 50 72 06 01 1C 0E  Pr...JQr..Pr....
0150: 80 4A F0 FF FF 7F 50 72  06 01 55 07 80 F8 FF FF  .J....Pr..U.....
0160: 7F F8 FF FF 7F 63 6D 32  31 29 03 51 72 06 01 03  .....cm21).Qr...
0170: 4A 51 72 06 01 50 72 06  01 2B 51 72 06 01 10 80  JQr..Pr..+Qr....
0180: 23 4A 50 72 06 01 51 72  06 01 6F 76 50 72 06 01  #JPr..Qr..ovPr..
0190: 45 07 80 F8 FF FF 7F F8  FF FF 7F 63 6D 32 63 01  E..........cm2c.
01A0: 80 55 07 80 F8 FF FF 7F  F8 FF FF 7F 63 6D 32 63  .U..........cm2c
01B0: 1C 0E 80 27 03 50 72 06  01 09 2B 50 72 06 01 11  ...'.Pr...+Pr...
01C0: 80 23 27 03 51 72 06 01  04 2B 51 72 06 01 12 80  .#'.Qr...+Qr....
01D0: 23 29 04 51 72 06 01 05  27 03 51 72 06 01 0A 2B  #).Qr...'.Qr...+
01E0: 51 72 06 01 13 80 23 29  04 51 72 06 01 0B 7B 50  Qr....#).Qr...{P
01F0: 72 06 01 4B 50 72 06 01  14 80 6F 76 50 72 06 01  r..KPr....ovPr..
0200: 45 07 80 F8 FF FF 7F F8  FF FF 7F 63 6D 32 62 01  E..........cm2b.
0210: 80 27 03 50 72 06 01 05  2B 50 72 06 01 15 80 23  .'.Pr...+Pr....#
0220: 2B 51 72 06 01 16 80 23  29 04 50 72 06 01 06 27  +Qr....#).Pr...'
0230: 03 50 72 06 01 07 2B 50  72 06 01 17 80 23 29 04  .Pr...+Pr....#).
0240: 50 72 06 01 08 1C 0F 80  7B 50 72 06 01 4B 50 72  Pr......{Pr..KPr
0250: 06 01 18 80 6F 76 50 72  06 01 45 07 80 F8 FF FF  ....ovPr..E.....
0260: 7F F8 FF FF 7F 63 6D 32  32 01 80 55 07 80 F8 FF  .....cm22..U....
0270: FF 7F F8 FF FF 7F 63 6D  32 32 2B 50 72 06 01 19  ......cm22+Pr...
0280: 80 23 2B 50 72 06 01 1A  80 23 4B 50 72 06 01 1B  .#+Pr....#KPr...
0290: 80 6F 76 50 72 06 01 2B  50 72 06 01 1C 80 23 4A  .ovPr..+Pr....#J
02A0: 50 72 06 01 51 72 06 01  6F 76 50 72 06 01 27 03  Pr..Qr..ovPr..'.
02B0: 50 72 06 01 03 2B 50 72  06 01 1D 80 23 2B 50 72  Pr...+Pr....#+Pr
02C0: 06 01 1E 80 23 2B 50 72  06 01 1F 80 23 29 04 50  ....#+Pr....#).P
02D0: 72 06 01 04 2B 51 72 06  01 20 80 23 27 03 50 72  r...+Qr.. .#'.Pr
02E0: 06 01 05 2B 50 72 06 01  21 80 23 2B 51 72 06 01  ...+Pr..!.#+Qr..
02F0: 22 80 23 29 04 50 72 06  01 06 1C 0E 80 4A 50 72  ".#).Pr......JPr
0300: 06 01 F0 FF FF 7F 6F 76  50 72 06 01 45 07 80 F8  ......ovPr..E...
0310: FF FF 7F F8 FF FF 7F 63  6D 32 61 01 80 27 03 50  .......cm2a..'.P
0320: 72 06 01 03 2B 50 72 06  01 23 80 23 29 04 50 72  r...+Pr..#.#).Pr
0330: 06 01 04 45 24 80 F0 FF  FF 7F F0 FF FF 7F 71 73  ...E$.........qs
0340: 74 63 01 80 45 00 80 F0  FF FF 7F F0 FF FF 7F 66  tc..E..........f
0350: 64 6F 32 01 80 55 00 80  F0 FF FF 7F F0 FF FF 7F  do2..U..........
0360: 66 64 6F 32 4E 01 50 72  06 01 4E 01 51 72 06 01  fdo2N.Pr..N.Qr..
0370: 46 00 5C 00 01 80 5C 01  01 80 45 00 80 F0 FF FF  F.\...\...E.....
0380: 7F F0 FF FF 7F 66 64 69  32 01 80 21 00           .....fdi2..!.   
```

#### Opcodes

```
  0: 0x0009 [0x20] SET_CLI_EVENT_UC_FLAG: Lock player control
  1: 0x000B [0x46] CAMERA_CONTROL: Disable user control
  2: 0x000D [0x42] SET_CLI_EVENT_CANCEL_DATA()
  3: 0x000E [0x45] LOAD_SCHEDULED_TASK: Load scheduler "fdo1" with entities [LocalPlayer, LocalPlayer], work=[200*, 0*]
  4: 0x001F [0x55] WAIT_LOAD_SCHEDULER: Wait for scheduler "fdo1" with entities [LocalPlayer, LocalPlayer], work=200*
  5: 0x002E [0x38] SET_CLIENT_EVENT_MODE(mode=19*)
  6: 0x0031 [0x37] UPDATE_EVENT_POSITION_AND_DIR: x=-719.839*, z=102.991*, y=-7.176*, direction=355.2°*
  7: 0x003A [0x4E] SET_ENTITY_HIDE_FLAG: Show Lewenhart (ID: 17199696/0x01067250)
  8: 0x0040 [0x4E] SET_ENTITY_HIDE_FLAG: Show Mertaire (ID: 17199697/0x01067251)
  9: 0x0046 [0x45] LOAD_SCHEDULED_TASK: Load scheduler "cm20" with entities [EventEntity, EventEntity], work=[146*, 0*]
 10: 0x0057 [0x55] WAIT_LOAD_SCHEDULER: Wait for scheduler "cm20" with entities [EventEntity, EventEntity], work=146*
 11: 0x0066 [0x5C] MUSIC_CONTROL: Set Idle (Day) music to song 122*
 12: 0x006A [0x5C] MUSIC_CONTROL: Set Idle (Night) music to song 122*
 13: 0x006E [0x45] LOAD_SCHEDULED_TASK: Load scheduler "fdi1" with entities [LocalPlayer, LocalPlayer], work=[200*, 0*]
 14: 0x007F [0x55] WAIT_LOAD_SCHEDULER: Wait for scheduler "fdi1" with entities [LocalPlayer, LocalPlayer], work=200*
 15: 0x008E [0x2B] Mertaire (ID: 17199697/0x01067251) [7350*]:
    → "So this is the other one!"
 16: 0x0095 [0x23] WAIT_FOR_DIALOG_INTERACTION
 17: 0x0096 [0x4A] LocalPlayer looks at Mertaire (ID: 17199697/0x01067251)
 18: 0x009F [0x27] REQ_SET(priority=0x03, entity_id=Mertaire (ID: 17199697/0x01067251), tag_num=0x02)
 19: 0x00A6 [0x1C] WAIT(240* ticks)
 20: 0x00A9 [0x4A] LocalPlayer looks at Mertaire (ID: 17199697/0x01067251)
 21: 0x00B2 [0x1C] WAIT(30* ticks)
 22: 0x00B5 [0x4A] LocalPlayer looks at Mertaire (ID: 17199697/0x01067251)
 23: 0x00BE [0x1C] WAIT(30* ticks)
 24: 0x00C1 [0x29] REQ_SET_WAIT(priority=0x04, entity_id=Mertaire (ID: 17199697/0x01067251), tag_num=0x0D)
 25: 0x00C8 [0x4A] LocalPlayer looks at Mertaire (ID: 17199697/0x01067251)
 26: 0x00D1 [0x2B] Mertaire (ID: 17199697/0x01067251) [7351*]:
    → "I wanted to know more about the story I heard in the tavern, so I came out here searching. I have a feeling I know who he is."
 27: 0x00D8 [0x23] WAIT_FOR_DIALOG_INTERACTION
 28: 0x00D9 [0x2B] Lewenhart (ID: 17199696/0x01067250) [7352*]:
    → "I was waiting, Mertaire, for you to find this place."
 29: 0x00E0 [0x23] WAIT_FOR_DIALOG_INTERACTION
 30: 0x00E1 [0x4A] Mertaire (ID: 17199697/0x01067251) looks at Lewenhart (ID: 17199696/0x01067250)
 31: 0x00EA [0x1C] WAIT(10* ticks)
 32: 0x00ED [0x4A] LocalPlayer looks at Lewenhart (ID: 17199696/0x01067250)
 33: 0x00F6 [0x45] LOAD_SCHEDULED_TASK: Load scheduler "cm21" with entities [EventEntity, EventEntity], work=[146*, 0*]
 34: 0x0107 [0x27] REQ_SET(priority=0x03, entity_id=Lewenhart (ID: 17199696/0x01067250), tag_num=0x02)
 35: 0x010E [0x1C] WAIT(60* ticks)
 36: 0x0111 [0x4A] Mertaire (ID: 17199697/0x01067251) looks at Lewenhart (ID: 17199696/0x01067250)
 37: 0x011A [0x1C] WAIT(10* ticks)
 38: 0x011D [0x4A] LocalPlayer looks at Lewenhart (ID: 17199696/0x01067250)
 39: 0x0126 [0x1C] WAIT(60* ticks)
 40: 0x0129 [0x4A] Mertaire (ID: 17199697/0x01067251) looks at Lewenhart (ID: 17199696/0x01067250)
 41: 0x0132 [0x1C] WAIT(10* ticks)
 42: 0x0135 [0x4A] LocalPlayer looks at Lewenhart (ID: 17199696/0x01067250)
 43: 0x013E [0x29] REQ_SET_WAIT(priority=0x04, entity_id=Lewenhart (ID: 17199696/0x01067250), tag_num=0x0B)
 44: 0x0145 [0x4A] Mertaire (ID: 17199697/0x01067251) looks at Lewenhart (ID: 17199696/0x01067250)
 45: 0x014E [0x1C] WAIT(10* ticks)
 46: 0x0151 [0x4A] LocalPlayer looks at Lewenhart (ID: 17199696/0x01067250)
 47: 0x015A [0x55] WAIT_LOAD_SCHEDULER: Wait for scheduler "cm21" with entities [EventEntity, EventEntity], work=146*
 48: 0x0169 [0x29] REQ_SET_WAIT(priority=0x03, entity_id=Mertaire (ID: 17199697/0x01067251), tag_num=0x03)
 49: 0x0170 [0x4A] Mertaire (ID: 17199697/0x01067251) looks at Lewenhart (ID: 17199696/0x01067250)
 50: 0x0179 [0x2B] Mertaire (ID: 17199697/0x01067251) [7353*]:
    → "Why, hello! You're Master Lewenhart, aren't you. You're practically a legend among us bards!"
 51: 0x0180 [0x23] WAIT_FOR_DIALOG_INTERACTION
 52: 0x0181 [0x4A] Lewenhart (ID: 17199696/0x01067250) looks at Mertaire (ID: 17199697/0x01067251)
 53: 0x018A [0x6F] WAIT_FRAME_DELAY: Yield until WaitTime reaches zero
 54: 0x018B [0x76] CHECK_ENTITY_RENDER_FLAGS: Wait until Lewenhart (ID: 17199696/0x01067250) Render.Flags0 and Render.Flags3 conditions are met
 55: 0x0190 [0x45] LOAD_SCHEDULED_TASK: Load scheduler "cm2c" with entities [EventEntity, EventEntity], work=[146*, 0*]
 56: 0x01A1 [0x55] WAIT_LOAD_SCHEDULER: Wait for scheduler "cm2c" with entities [EventEntity, EventEntity], work=146*
 57: 0x01B0 [0x1C] WAIT(10* ticks)
 58: 0x01B3 [0x27] REQ_SET(priority=0x03, entity_id=Lewenhart (ID: 17199696/0x01067250), tag_num=0x09)
 59: 0x01BA [0x2B] Lewenhart (ID: 17199696/0x01067250) [7354*]:
    → "Now, now. Let's not get carried away. I am just another minstrel, like any other."
 60: 0x01C1 [0x23] WAIT_FOR_DIALOG_INTERACTION
 61: 0x01C2 [0x27] REQ_SET(priority=0x03, entity_id=Mertaire (ID: 17199697/0x01067251), tag_num=0x04)
 62: 0x01C9 [0x2B] Mertaire (ID: 17199697/0x01067251) [7355*]:
    → "Master Lewenhart, I first heard your music on the street when I was a lad mired in poverty. I hadn't dreamt that anything could move me so! That moment I vowed to become a bard."
 63: 0x01D0 [0x23] WAIT_FOR_DIALOG_INTERACTION
 64: 0x01D1 [0x29] REQ_SET_WAIT(priority=0x04, entity_id=Mertaire (ID: 17199697/0x01067251), tag_num=0x05)
 65: 0x01D8 [0x27] REQ_SET(priority=0x03, entity_id=Mertaire (ID: 17199697/0x01067251), tag_num=0x0A)
 66: 0x01DF [0x2B] Mertaire (ID: 17199697/0x01067251) [7356*]:
    → "But, alas! Look at me! My voice is shrill and my lyrics lack emotion. I am but a worm in your shadow!"
 67: 0x01E6 [0x23] WAIT_FOR_DIALOG_INTERACTION
 68: 0x01E7 [0x29] REQ_SET_WAIT(priority=0x04, entity_id=Mertaire (ID: 17199697/0x01067251), tag_num=0x0B)
 69: 0x01EE [0x7B] Lewenhart (ID: 17199696/0x01067250) stops talking
 70: 0x01F3 [0x4B] UPDATE_ENTITY_YAW(entity=Lewenhart (ID: 17199696/0x01067250), yaw=14.6°*)
 71: 0x01FA [0x6F] WAIT_FRAME_DELAY: Yield until WaitTime reaches zero
 72: 0x01FB [0x76] CHECK_ENTITY_RENDER_FLAGS: Wait until Lewenhart (ID: 17199696/0x01067250) Render.Flags0 and Render.Flags3 conditions are met
 73: 0x0200 [0x45] LOAD_SCHEDULED_TASK: Load scheduler "cm2b" with entities [EventEntity, EventEntity], work=[146*, 0*]
 74: 0x0211 [0x27] REQ_SET(priority=0x03, entity_id=Lewenhart (ID: 17199696/0x01067250), tag_num=0x05)
 75: 0x0218 [0x2B] Lewenhart (ID: 17199696/0x01067250) [7357*]:
    → "Hmph. You hold me in too high regard. I have such days, too."
 76: 0x021F [0x23] WAIT_FOR_DIALOG_INTERACTION
 77: 0x0220 [0x2B] Mertaire (ID: 17199697/0x01067251) [7358*]:
    → "Even you, Master Lewenhart?"
 78: 0x0227 [0x23] WAIT_FOR_DIALOG_INTERACTION
 79: 0x0228 [0x29] REQ_SET_WAIT(priority=0x04, entity_id=Lewenhart (ID: 17199696/0x01067250), tag_num=0x06)
 80: 0x022F [0x27] REQ_SET(priority=0x03, entity_id=Lewenhart (ID: 17199696/0x01067250), tag_num=0x07)
 81: 0x0236 [0x2B] Lewenhart (ID: 17199696/0x01067250) [7359*]:
    → "Of course, my friend. Often I ask the stars above for whom and for what purpose I sing. But ever they are silent."
 82: 0x023D [0x23] WAIT_FOR_DIALOG_INTERACTION
 83: 0x023E [0x29] REQ_SET_WAIT(priority=0x04, entity_id=Lewenhart (ID: 17199696/0x01067250), tag_num=0x08)
 84: 0x0245 [0x1C] WAIT(60* ticks)
 85: 0x0248 [0x7B] Lewenhart (ID: 17199696/0x01067250) stops talking
 86: 0x024D [0x4B] UPDATE_ENTITY_YAW(entity=Lewenhart (ID: 17199696/0x01067250), yaw=21.8°*)
 87: 0x0254 [0x6F] WAIT_FRAME_DELAY: Yield until WaitTime reaches zero
 88: 0x0255 [0x76] CHECK_ENTITY_RENDER_FLAGS: Wait until Lewenhart (ID: 17199696/0x01067250) Render.Flags0 and Render.Flags3 conditions are met
 89: 0x025A [0x45] LOAD_SCHEDULED_TASK: Load scheduler "cm22" with entities [EventEntity, EventEntity], work=[146*, 0*]
 90: 0x026B [0x55] WAIT_LOAD_SCHEDULER: Wait for scheduler "cm22" with entities [EventEntity, EventEntity], work=146*
 91: 0x027A [0x2B] Lewenhart (ID: 17199696/0x01067250) [7360*]:
    → "But in such times I find myself standing before this stone. In my heart I try to sing of their feelings as they did."
 92: 0x0281 [0x23] WAIT_FOR_DIALOG_INTERACTION
 93: 0x0282 [0x2B] Lewenhart (ID: 17199696/0x01067250) [7361*]:
    → "Then I remember how such is all that is needed from us bards."
 94: 0x0289 [0x23] WAIT_FOR_DIALOG_INTERACTION
 95: 0x028A [0x4B] UPDATE_ENTITY_YAW(entity=Lewenhart (ID: 17199696/0x01067250), yaw=13.6°*)
 96: 0x0291 [0x6F] WAIT_FRAME_DELAY: Yield until WaitTime reaches zero
 97: 0x0292 [0x76] CHECK_ENTITY_RENDER_FLAGS: Wait until Lewenhart (ID: 17199696/0x01067250) Render.Flags0 and Render.Flags3 conditions are met
 98: 0x0297 [0x2B] Lewenhart (ID: 17199696/0x01067250) [7362*]:
    → "Both felt so dearly of the other that they tried to convey their love through the breeze and over the waves of the ocean."
 99: 0x029E [0x23] WAIT_FOR_DIALOG_INTERACTION
100: 0x029F [0x4A] Lewenhart (ID: 17199696/0x01067250) looks at Mertaire (ID: 17199697/0x01067251)
101: 0x02A8 [0x6F] WAIT_FRAME_DELAY: Yield until WaitTime reaches zero
102: 0x02A9 [0x76] CHECK_ENTITY_RENDER_FLAGS: Wait until Lewenhart (ID: 17199696/0x01067250) Render.Flags0 and Render.Flags3 conditions are met
103: 0x02AE [0x27] REQ_SET(priority=0x03, entity_id=Lewenhart (ID: 17199696/0x01067250), tag_num=0x03)
104: 0x02B5 [0x2B] Lewenhart (ID: 17199696/0x01067250) [7363*]:
    → "Can you not feel the yearning in your heart? Before you can move the hearts of others, first you must believe in yourself."
105: 0x02BC [0x23] WAIT_FOR_DIALOG_INTERACTION
106: 0x02BD [0x2B] Lewenhart (ID: 17199696/0x01067250) [7364*]:
    → "Music comes from within. That truth we must never forget."
107: 0x02C4 [0x23] WAIT_FOR_DIALOG_INTERACTION
108: 0x02C5 [0x2B] Lewenhart (ID: 17199696/0x01067250) [7365*]:
    → "You must have endured a terrible ordeal, my friend. Know your feelings, and be honest with yourself about them. I believe that from such synergy beautiful music will flow."
109: 0x02CC [0x23] WAIT_FOR_DIALOG_INTERACTION
110: 0x02CD [0x29] REQ_SET_WAIT(priority=0x04, entity_id=Lewenhart (ID: 17199696/0x01067250), tag_num=0x04)
111: 0x02D4 [0x2B] Mertaire (ID: 17199697/0x01067251) [7366*]:
    → "So I must be honest with myself?"
112: 0x02DB [0x23] WAIT_FOR_DIALOG_INTERACTION
113: 0x02DC [0x27] REQ_SET(priority=0x03, entity_id=Lewenhart (ID: 17199696/0x01067250), tag_num=0x05)
114: 0x02E3 [0x2B] Lewenhart (ID: 17199696/0x01067250) [7367*]:
    → "That is right. I know we will meet again someday. When that time comes, will you play for me?"
115: 0x02EA [0x23] WAIT_FOR_DIALOG_INTERACTION
116: 0x02EB [0x2B] Mertaire (ID: 17199697/0x01067251) [7368*]:
    → "Yes, of course!"
117: 0x02F2 [0x23] WAIT_FOR_DIALOG_INTERACTION
118: 0x02F3 [0x29] REQ_SET_WAIT(priority=0x04, entity_id=Lewenhart (ID: 17199696/0x01067250), tag_num=0x06)
119: 0x02FA [0x1C] WAIT(10* ticks)
120: 0x02FD [0x4A] Lewenhart (ID: 17199696/0x01067250) looks at LocalPlayer
121: 0x0306 [0x6F] WAIT_FRAME_DELAY: Yield until WaitTime reaches zero
122: 0x0307 [0x76] CHECK_ENTITY_RENDER_FLAGS: Wait until Lewenhart (ID: 17199696/0x01067250) Render.Flags0 and Render.Flags3 conditions are met
123: 0x030C [0x45] LOAD_SCHEDULED_TASK: Load scheduler "cm2a" with entities [EventEntity, EventEntity], work=[146*, 0*]
124: 0x031D [0x27] REQ_SET(priority=0x03, entity_id=Lewenhart (ID: 17199696/0x01067250), tag_num=0x03)
125: 0x0324 [0x2B] Lewenhart (ID: 17199696/0x01067250) [7369*]:
    → "Thanks for all you've done. Now you know upon what path a bard walks. You are always welcome to join us in harmony!"
126: 0x032B [0x23] WAIT_FOR_DIALOG_INTERACTION
127: 0x032C [0x29] REQ_SET_WAIT(priority=0x04, entity_id=Lewenhart (ID: 17199696/0x01067250), tag_num=0x04)
128: 0x0333 [0x45] LOAD_SCHEDULED_TASK: Load scheduler "qstc" with entities [LocalPlayer, LocalPlayer], work=[201*, 0*]
129: 0x0344 [0x45] LOAD_SCHEDULED_TASK: Load scheduler "fdo2" with entities [LocalPlayer, LocalPlayer], work=[200*, 0*]
130: 0x0355 [0x55] WAIT_LOAD_SCHEDULER: Wait for scheduler "fdo2" with entities [LocalPlayer, LocalPlayer], work=200*
131: 0x0364 [0x4E] SET_ENTITY_HIDE_FLAG: Hide Lewenhart (ID: 17199696/0x01067250)
132: 0x036A [0x4E] SET_ENTITY_HIDE_FLAG: Hide Mertaire (ID: 17199697/0x01067251)
133: 0x0370 [0x46] CAMERA_CONTROL: Restore default settings
134: 0x0372 [0x5C] MUSIC_CONTROL: Set Idle (Day) music to song 0*
135: 0x0376 [0x5C] MUSIC_CONTROL: Set Idle (Night) music to song 0*
136: 0x037A [0x45] LOAD_SCHEDULED_TASK: Load scheduler "fdi2" with entities [LocalPlayer, LocalPlayer], work=[200*, 0*]
137: 0x038B [0x21] END_EVENT
138: 0x038C [0x00] END_REQSTACK()
```

### Event 13

#### Metadata

| Field        | Value     |
|--------------|-----------|
| Entrypoint   | 0x038D    |
| Data Size    | 549 bytes |
| Instructions | 44        |

```
      00 01 02 03 04 05 06 07  08 09 0A 0B 0C 0D 0E 0F
      -- -- -- -- -- -- -- --  -- -- -- -- -- -- -- --
0380:                                         42 46 01               BF.
0390: 03 00 00 05 10 45 00 80  F8 FF FF 7F F8 FF FF 7F  .....E..........
03A0: 66 64 6F 30 01 80 55 00  80 F8 FF FF 7F F8 FF FF  fdo0..U.........
03B0: 7F 66 64 6F 30 4E 00 7A  72 06 01 4E 00 7B 72 06  .fdo0N.zr..N.{r.
03C0: 01 38 02 80 79 00 F0 FF  FF 7F 7A 72 06 01 03 05  .8..y.....zr....
03D0: 10 02 10 03 06 10 02 10  03 07 10 02 10 15 05 10  ................
03E0: 25 80 15 06 10 0F 80 3F  07 10 07 10 0F 80 37 26  %......?......7&
03F0: 80 27 80 28 80 29 80 4A  7A 72 06 01 F0 FF FF 7F  .'.(.).Jzr......
0400: 45 2A 80 F8 FF FF 7F F8  FF FF 7F 73 31 30 33 01  E*.........s103.
0410: 80 45 00 80 F8 FF FF 7F  F8 FF FF 7F 66 64 69 31  .E..........fdi1
0420: 01 80 2B 7A 72 06 01 2B  80 23 2B 7A 72 06 01 2C  ..+zr..+.#+zr..,
0430: 80 23 02 04 10 01 80 01  75 04 03 05 10 04 10 03  .#......u.......
0440: 06 10 04 10 03 07 10 04  10 15 05 10 25 80 15 06  ............%...
0450: 10 0F 80 3F 07 10 07 10  0F 80 02 00 00 01 80 00  ...?............
0460: 6D 04 2B 7A 72 06 01 2D  80 23 01 75 04 2B 7A 72  m.+zr..-.#.u.+zr
0470: 06 01 2E 80 23 52 2A 80  F8 FF FF 7F F8 FF FF 7F  ....#R*.........
0480: 73 31 30 33 45 00 80 F8  FF FF 7F F8 FF FF 7F 66  s103E..........f
0490: 64 6F 31 01 80 55 00 80  F8 FF FF 7F F8 FF FF 7F  do1..U..........
04A0: 66 64 6F 31 46 00 45 24  80 F0 FF FF 7F F0 FF FF  fdo1F.E$........
04B0: 7F 71 73 74 63 01 80 45  00 80 F8 FF FF 7F F8 FF  .qstc..E........
04C0: FF 7F 66 64 69 32 01 80  21 00 4A 7A 72 06 01 F0  ..fdi2..!.Jzr...
04D0: FF FF 7F 45 00 80 F8 FF  FF 7F F8 FF FF 7F 66 64  ...E..........fd
04E0: 69 31 01 80 2B 7A 72 06  01 2B 80 23 66 0B 80 7A  i1..+zr..+.#f..z
04F0: 72 06 01 7A 72 06 01 74  6C 6B 30 2B 7A 72 06 01  r..zr..tlk0+zr..
0500: 2C 80 23 02 04 10 01 80  01 55 05 66 0B 80 7A 72  ,.#......U.f..zr
0510: 06 01 7A 72 06 01 74 6C  6B 31 03 05 10 04 10 03  ..zr..tlk1......
0520: 06 10 04 10 03 07 10 04  10 15 05 10 25 80 15 06  ............%...
0530: 10 0F 80 3F 07 10 07 10  0F 80 02 00 00 01 80 00  ...?............
0540: 4D 05 2B 7A 72 06 01 2D  80 23 01 55 05 2B 7A 72  M.+zr..-.#.U.+zr
0550: 06 01 2E 80 23 66 0B 80  7A 72 06 01 7A 72 06 01  ....#f..zr..zr..
0560: 70 61 73 30 2B 7A 72 06  01 2F 80 23 45 00 80 F8  pas0+zr../.#E...
0570: FF FF 7F F8 FF FF 7F 66  64 6F 31 01 80 55 00 80  .......fdo1..U..
0580: F8 FF FF 7F F8 FF FF 7F  66 64 6F 31 46 00 45 24  ........fdo1F.E$
0590: 80 F0 FF FF 7F F0 FF FF  7F 71 73 74 63 01 80 45  .........qstc..E
05A0: 00 80 F8 FF FF 7F F8 FF  FF 7F 66 64 69 32 01 80  ..........fdi2..
05B0: 21 00                                             !.              
```

#### Opcodes

```
  0: 0x038D [0x42] SET_CLI_EVENT_CANCEL_DATA()
  1: 0x038E [0x46] CAMERA_CONTROL: Disable user control
  2: 0x0390 [0x03] ExtData[1]->WorkLocal[0] = Work_Zone[5]
  3: 0x0395 [0x45] LOAD_SCHEDULED_TASK: Load scheduler "fdo0" with entities [EventEntity, EventEntity], work=[200*, 0*]
  4: 0x03A6 [0x55] WAIT_LOAD_SCHEDULER: Wait for scheduler "fdo0" with entities [EventEntity, EventEntity], work=200*
  5: 0x03B5 [0x4E] SET_ENTITY_HIDE_FLAG: Show Kiteh Nanjyea (ID: 17199738/0x0106727A)
  6: 0x03BB [0x4E] SET_ENTITY_HIDE_FLAG: Show Unnamed NPC (ID: 17199739/0x0106727B)
  7: 0x03C1 [0x38] SET_CLIENT_EVENT_MODE(mode=19*)
  8: 0x03C4 [0x79] LocalPlayer looks at Kiteh Nanjyea (ID: 17199738/0x0106727A) (Basic look)
  9: 0x03CE [0x03] Work_Zone[5] = Work_Zone[2]
 10: 0x03D3 [0x03] Work_Zone[6] = Work_Zone[2]
 11: 0x03D8 [0x03] Work_Zone[7] = Work_Zone[2]
 12: 0x03DD [0x15] Work_Zone[5] /= 144*
 13: 0x03E2 [0x15] Work_Zone[6] /= 60*
 14: 0x03E7 [0x3F] Work_Zone[7] = Work_Zone[7] % 60*
 15: 0x03EE [0x37] UPDATE_EVENT_POSITION_AND_DIR: x=-780.427*, z=22.716*, y=-7.580*, direction=240.7°*
 16: 0x03F7 [0x4A] Kiteh Nanjyea (ID: 17199738/0x0106727A) looks at LocalPlayer
 17: 0x0400 [0x45] LOAD_SCHEDULED_TASK: Load scheduler "s103" with entities [EventEntity, EventEntity], work=[5*, 0*]
 18: 0x0411 [0x45] LOAD_SCHEDULED_TASK: Load scheduler "fdi1" with entities [EventEntity, EventEntity], work=[200*, 0*]
 19: 0x0422 [0x2B] Kiteh Nanjyea (ID: 17199738/0x0106727A) [7812*]:
    → "You've helped our poor girl find her way home! I don't know how to thank you!"
 20: 0x0429 [0x23] WAIT_FOR_DIALOG_INTERACTION
 21: 0x042A [0x2B] Kiteh Nanjyea (ID: 17199738/0x0106727A) [7813*]:
    → "And to think you made it here in a mere $3 [hour/hours] ($4 [minute/minutes] and $5 [second/seconds] Earth time)!"
 22: 0x0431 [0x23] WAIT_FOR_DIALOG_INTERACTION
 23: 0x0432 [0x02] IF !(Work_Zone[4] == 0*) GOTO 0x0475
 24: 0x043A [0x03] Work_Zone[5] = Work_Zone[4]
 25: 0x043F [0x03] Work_Zone[6] = Work_Zone[4]
 26: 0x0444 [0x03] Work_Zone[7] = Work_Zone[4]
 27: 0x0449 [0x15] Work_Zone[5] /= 144*
 28: 0x044E [0x15] Work_Zone[6] /= 60*
 29: 0x0453 [0x3F] Work_Zone[7] = Work_Zone[7] % 60*
 30: 0x045A [0x02] IF !(ExtData[1]->WorkLocal[0] == 0*) GOTO 0x046D
 31: 0x0462 [0x2B] Kiteh Nanjyea (ID: 17199738/0x0106727A) [7814*]:
    → "Oh, and by the way, the fastest adventurer to date has been %0. That talented rider traversed the same course as you in $3 [hour/hours] ($4 [minute/minutes] and $5 [second/seconds] Earth time)!"
 32: 0x0469 [0x23] WAIT_FOR_DIALOG_INTERACTION
 33: 0x046A [0x01] GOTO 0x0475
 34: 0x046D [0x2B] Kiteh Nanjyea (ID: 17199738/0x0106727A) [7818*]:
    → "Oh, and by the way, the fastest adventurer to date has been...you! Your remarkable record of $3 [hour/hours] ($4 [minute/minutes] and $5 [second/seconds] Earth time) still stands strong!"
 35: 0x0474 [0x23] WAIT_FOR_DIALOG_INTERACTION

SUBROUTINE_0475:
 36: 0x0475 [0x52] END_LOAD_SCHEDULER: End scheduler "s103" with entities [EventEntity, EventEntity], work=5*
 37: 0x0484 [0x45] LOAD_SCHEDULED_TASK: Load scheduler "fdo1" with entities [EventEntity, EventEntity], work=[200*, 0*]
 38: 0x0495 [0x55] WAIT_LOAD_SCHEDULER: Wait for scheduler "fdo1" with entities [EventEntity, EventEntity], work=200*
 39: 0x04A4 [0x46] CAMERA_CONTROL: Restore default settings
 40: 0x04A6 [0x45] LOAD_SCHEDULED_TASK: Load scheduler "qstc" with entities [LocalPlayer, LocalPlayer], work=[201*, 0*]
 41: 0x04B7 [0x45] LOAD_SCHEDULED_TASK: Load scheduler "fdi2" with entities [EventEntity, EventEntity], work=[200*, 0*]
 42: 0x04C8 [0x21] END_EVENT
 43: 0x04C9 [0x00] END_REQSTACK()
```

#### Data or dead code:

```
# Dead code (unreachable instructions):
     0x04CA [0x4A] Kiteh Nanjyea (ID: 17199738/0x0106727A) looks at LocalPlayer
     0x04D3 [0x45] LOAD_SCHEDULED_TASK: Load scheduler "fdi1" with entities [EventEntity, EventEntity], work=[200*, 0*]
     0x04E4 [0x2B] Kiteh Nanjyea (ID: 17199738/0x0106727A) [7812*]:
    → "You've helped our poor girl find her way home! I don't know how to thank you!"
     0x04EB [0x23] WAIT_FOR_DIALOG_INTERACTION
     0x04EC [0x66] LOAD_EXT_SCHEDULER_MAIN: Load scheduler "tlk0" with entities [Kiteh Nanjyea (ID: 17199738/0x0106727A), Kiteh Nanjyea (ID: 17199738/0x0106727A)], work=30*
     0x04FB [0x2B] Kiteh Nanjyea (ID: 17199738/0x0106727A) [7813*]:
    → "And to think you made it here in a mere $3 [hour/hours] ($4 [minute/minutes] and $5 [second/seconds] Earth time)!"
     0x0502 [0x23] WAIT_FOR_DIALOG_INTERACTION
     0x0503 [0x02] IF !(Work_Zone[4] == 0*) GOTO 0x0555
     0x050B [0x66] LOAD_EXT_SCHEDULER_MAIN: Load scheduler "tlk1" with entities [Kiteh Nanjyea (ID: 17199738/0x0106727A), Kiteh Nanjyea (ID: 17199738/0x0106727A)], work=30*
     0x051A [0x03] Work_Zone[5] = Work_Zone[4]
     0x051F [0x03] Work_Zone[6] = Work_Zone[4]
     0x0524 [0x03] Work_Zone[7] = Work_Zone[4]
     0x0529 [0x15] Work_Zone[5] /= 144*
     0x052E [0x15] Work_Zone[6] /= 60*
     0x0533 [0x3F] Work_Zone[7] = Work_Zone[7] % 60*
     0x053A [0x02] IF !(ExtData[1]->WorkLocal[0] == 0*) GOTO 0x054D
     0x0542 [0x2B] Kiteh Nanjyea (ID: 17199738/0x0106727A) [7814*]:
    → "Oh, and by the way, the fastest adventurer to date has been %0. That talented rider traversed the same course as you in $3 [hour/hours] ($4 [minute/minutes] and $5 [second/seconds] Earth time)!"
     0x0549 [0x23] WAIT_FOR_DIALOG_INTERACTION
     0x054A [0x01] GOTO 0x0555
     0x054D [0x2B] Kiteh Nanjyea (ID: 17199738/0x0106727A) [7818*]:
    → "Oh, and by the way, the fastest adventurer to date has been...you! Your remarkable record of $3 [hour/hours] ($4 [minute/minutes] and $5 [second/seconds] Earth time) still stands strong!"
     0x0554 [0x23] WAIT_FOR_DIALOG_INTERACTION
     0x0555 [0x66] LOAD_EXT_SCHEDULER_MAIN: Load scheduler "pas0" with entities [Kiteh Nanjyea (ID: 17199738/0x0106727A), Kiteh Nanjyea (ID: 17199738/0x0106727A)], work=30*
     0x0564 [0x2B] Kiteh Nanjyea (ID: 17199738/0x0106727A) [7815*]:
    → "Anyway, please take this as a token of our appreciation. And stop by again sometime. We may have more work for you!"
     0x056B [0x23] WAIT_FOR_DIALOG_INTERACTION
     0x056C [0x45] LOAD_SCHEDULED_TASK: Load scheduler "fdo1" with entities [EventEntity, EventEntity], work=[200*, 0*]
     0x057D [0x55] WAIT_LOAD_SCHEDULER: Wait for scheduler "fdo1" with entities [EventEntity, EventEntity], work=200*
     0x058C [0x46] CAMERA_CONTROL: Restore default settings
     0x058E [0x45] LOAD_SCHEDULED_TASK: Load scheduler "qstc" with entities [LocalPlayer, LocalPlayer], work=[201*, 0*]
     0x059F [0x45] LOAD_SCHEDULED_TASK: Load scheduler "fdi2" with entities [EventEntity, EventEntity], work=[200*, 0*]
     0x05B0 [0x21] END_EVENT
     0x05B1 [0x00] END_REQSTACK()
```

### Event 65535.2

#### Metadata

| Field        | Value    |
|--------------|----------|
| Entrypoint   | 0x05B2   |
| Data Size    | 10 bytes |
| Instructions | 2        |

```
      00 01 02 03 04 05 06 07  08 09 0A 0B 0C 0D 0E 0F
      -- -- -- -- -- -- -- --  -- -- -- -- -- -- -- --
05B0:       37 30 80 31 80 32  80 33 80 00                70.1.2.3..    
```

#### Opcodes

```
  0: 0x05B2 [0x37] UPDATE_EVENT_POSITION_AND_DIR: x=138.570*, z=121.977*, y=-2.000*, direction=189.8°*
  1: 0x05BB [0x00] END_REQSTACK()
```

### Event 65535.3

#### Metadata

| Field        | Value    |
|--------------|----------|
| Entrypoint   | 0x05BC   |
| Data Size    | 10 bytes |
| Instructions | 2        |

```
      00 01 02 03 04 05 06 07  08 09 0A 0B 0C 0D 0E 0F
      -- -- -- -- -- -- -- --  -- -- -- -- -- -- -- --
05B0:                                      37 34 80 35              74.5
05C0: 80 36 80 37 80 00                                 .6.7..          
```

#### Opcodes

```
  0: 0x05BC [0x37] UPDATE_EVENT_POSITION_AND_DIR: x=98.429*, z=-65.755*, y=0.996*, direction=109.9°*
  1: 0x05C5 [0x00] END_REQSTACK()
```

### Event 65535.4

#### Metadata

| Field        | Value    |
|--------------|----------|
| Entrypoint   | 0x05C6   |
| Data Size    | 10 bytes |
| Instructions | 2        |

```
      00 01 02 03 04 05 06 07  08 09 0A 0B 0C 0D 0E 0F
      -- -- -- -- -- -- -- --  -- -- -- -- -- -- -- --
05C0:                   37 38  80 39 80 3A 80 3B 80 00        78.9.:.;..
```

#### Opcodes

```
  0: 0x05C6 [0x37] UPDATE_EVENT_POSITION_AND_DIR: x=-216.466*, z=-92.633*, y=-0.245*, direction=224.2°*
  1: 0x05CF [0x00] END_REQSTACK()
```

### Event 65535.5

#### Metadata

| Field        | Value    |
|--------------|----------|
| Entrypoint   | 0x05D0   |
| Data Size    | 10 bytes |
| Instructions | 2        |

```
      00 01 02 03 04 05 06 07  08 09 0A 0B 0C 0D 0E 0F
      -- -- -- -- -- -- -- --  -- -- -- -- -- -- -- --
05D0: 37 3C 80 3D 80 3E 80 3F  80 00                    7<.=.>.?..      
```

#### Opcodes

```
  0: 0x05D0 [0x37] UPDATE_EVENT_POSITION_AND_DIR: x=35.631*, z=-50.515*, y=9.001*, direction=223.2°*
  1: 0x05D9 [0x00] END_REQSTACK()
```

### Event 65535.6

#### Metadata

| Field        | Value    |
|--------------|----------|
| Entrypoint   | 0x05DA   |
| Data Size    | 10 bytes |
| Instructions | 2        |

```
      00 01 02 03 04 05 06 07  08 09 0A 0B 0C 0D 0E 0F
      -- -- -- -- -- -- -- --  -- -- -- -- -- -- -- --
05D0:                                37 40 80 41 80 32            7@.A.2
05E0: 80 42 80 00                                       .B..            
```

#### Opcodes

```
  0: 0x05DA [0x37] UPDATE_EVENT_POSITION_AND_DIR: x=161.426*, z=161.015*, y=-2.000*, direction=134.3°*
  1: 0x05E3 [0x00] END_REQSTACK()
```

### Event 65535.7

#### Metadata

| Field        | Value    |
|--------------|----------|
| Entrypoint   | 0x05E4   |
| Data Size    | 10 bytes |
| Instructions | 2        |

```
      00 01 02 03 04 05 06 07  08 09 0A 0B 0C 0D 0E 0F
      -- -- -- -- -- -- -- --  -- -- -- -- -- -- -- --
05E0:             37 43 80 44  80 36 80 45 80 00            7C.D.6.E..  
```

#### Opcodes

```
  0: 0x05E4 [0x37] UPDATE_EVENT_POSITION_AND_DIR: x=116.803*, z=-72.037*, y=0.996*, direction=179.4°*
  1: 0x05ED [0x00] END_REQSTACK()
```

### Event 65535.8

#### Metadata

| Field        | Value    |
|--------------|----------|
| Entrypoint   | 0x05EE   |
| Data Size    | 10 bytes |
| Instructions | 2        |

```
      00 01 02 03 04 05 06 07  08 09 0A 0B 0C 0D 0E 0F
      -- -- -- -- -- -- -- --  -- -- -- -- -- -- -- --
05E0:                                            37 46                7F
05F0: 80 47 80 48 80 49 80 00                           .G.H.I..        
```

#### Opcodes

```
  0: 0x05EE [0x37] UPDATE_EVENT_POSITION_AND_DIR: x=-228.551*, z=-119.930*, y=-0.249*, direction=359.7°*
  1: 0x05F7 [0x00] END_REQSTACK()
```

### Event 65535.9

#### Metadata

| Field        | Value    |
|--------------|----------|
| Entrypoint   | 0x05F8   |
| Data Size    | 10 bytes |
| Instructions | 2        |

```
      00 01 02 03 04 05 06 07  08 09 0A 0B 0C 0D 0E 0F
      -- -- -- -- -- -- -- --  -- -- -- -- -- -- -- --
05F0:                          37 4A 80 4B 80 4C 80 4D          7J.K.L.M
0600: 80 00                                             ..              
```

#### Opcodes

```
  0: 0x05F8 [0x37] UPDATE_EVENT_POSITION_AND_DIR: x=49.022*, z=-73.036*, y=10.002*, direction=271.3°*
  1: 0x0601 [0x00] END_REQSTACK()
```

### Event 65535.10

#### Metadata

| Field        | Value    |
|--------------|----------|
| Entrypoint   | 0x0602   |
| Data Size    | 10 bytes |
| Instructions | 2        |

```
      00 01 02 03 04 05 06 07  08 09 0A 0B 0C 0D 0E 0F
      -- -- -- -- -- -- -- --  -- -- -- -- -- -- -- --
0600:       37 4E 80 4F 80 36  80 50 80 00                7N.O.6.P..    
```

#### Opcodes

```
  0: 0x0602 [0x37] UPDATE_EVENT_POSITION_AND_DIR: x=99.821*, z=-65.633*, y=0.996*, direction=69.1°*
  1: 0x060B [0x00] END_REQSTACK()
```

### Event 65535.11

#### Metadata

| Field        | Value    |
|--------------|----------|
| Entrypoint   | 0x060C   |
| Data Size    | 10 bytes |
| Instructions | 2        |

```
      00 01 02 03 04 05 06 07  08 09 0A 0B 0C 0D 0E 0F
      -- -- -- -- -- -- -- --  -- -- -- -- -- -- -- --
0600:                                      37 51 80 52              7Q.R
0610: 80 32 80 53 80 00                                 .2.S..          
```

#### Opcodes

```
  0: 0x060C [0x37] UPDATE_EVENT_POSITION_AND_DIR: x=138.154*, z=120.084*, y=-2.000*, direction=328.2°*
  1: 0x0615 [0x00] END_REQSTACK()
```

### Event 65535.12

#### Metadata

| Field        | Value    |
|--------------|----------|
| Entrypoint   | 0x0616   |
| Data Size    | 10 bytes |
| Instructions | 2        |

```
      00 01 02 03 04 05 06 07  08 09 0A 0B 0C 0D 0E 0F
      -- -- -- -- -- -- -- --  -- -- -- -- -- -- -- --
0610:                   37 54  80 55 80 56 80 57 80 00        7T.U.V.W..
```

#### Opcodes

```
  0: 0x0616 [0x37] UPDATE_EVENT_POSITION_AND_DIR: x=-216.145*, z=-94.016*, y=-0.142*, direction=186.6°*
  1: 0x061F [0x00] END_REQSTACK()
```

### Event 65535.13

#### Metadata

| Field        | Value    |
|--------------|----------|
| Entrypoint   | 0x0620   |
| Data Size    | 10 bytes |
| Instructions | 2        |

```
      00 01 02 03 04 05 06 07  08 09 0A 0B 0C 0D 0E 0F
      -- -- -- -- -- -- -- --  -- -- -- -- -- -- -- --
0620: 37 58 80 59 80 3E 80 5A  80 00                    7X.Y.>.Z..      
```

#### Opcodes

```
  0: 0x0620 [0x37] UPDATE_EVENT_POSITION_AND_DIR: x=35.685*, z=-50.129*, y=9.001*, direction=143.0°*
  1: 0x0629 [0x00] END_REQSTACK()
```

### Event 65535.14

#### Metadata

| Field        | Value    |
|--------------|----------|
| Entrypoint   | 0x062A   |
| Data Size    | 10 bytes |
| Instructions | 2        |

```
      00 01 02 03 04 05 06 07  08 09 0A 0B 0C 0D 0E 0F
      -- -- -- -- -- -- -- --  -- -- -- -- -- -- -- --
0620:                                37 5B 80 5C 80 5D            7[.\.]
0630: 80 5E 80 00                                       .^..            
```

#### Opcodes

```
  0: 0x062A [0x37] UPDATE_EVENT_POSITION_AND_DIR: x=-278.719*, z=-417.230*, y=-39.909*, direction=239.6°*
  1: 0x0633 [0x00] END_REQSTACK()
```

### Event 65535.15

#### Metadata

| Field        | Value    |
|--------------|----------|
| Entrypoint   | 0x0634   |
| Data Size    | 10 bytes |
| Instructions | 2        |

```
      00 01 02 03 04 05 06 07  08 09 0A 0B 0C 0D 0E 0F
      -- -- -- -- -- -- -- --  -- -- -- -- -- -- -- --
0630:             37 5F 80 60  80 61 80 62 80 00            7_.`.a.b..  
```

#### Opcodes

```
  0: 0x0634 [0x37] UPDATE_EVENT_POSITION_AND_DIR: x=571.326*, z=-272.093*, y=-0.349*, direction=37.1°*
  1: 0x063D [0x00] END_REQSTACK()
```

### Event 65535.16

#### Metadata

| Field        | Value    |
|--------------|----------|
| Entrypoint   | 0x063E   |
| Data Size    | 10 bytes |
| Instructions | 2        |

```
      00 01 02 03 04 05 06 07  08 09 0A 0B 0C 0D 0E 0F
      -- -- -- -- -- -- -- --  -- -- -- -- -- -- -- --
0630:                                            37 63                7c
0640: 80 64 80 65 80 66 80 00                           .d.e.f..        
```

#### Opcodes

```
  0: 0x063E [0x37] UPDATE_EVENT_POSITION_AND_DIR: x=-281.057*, z=-421.233*, y=-39.794*, direction=157.8°*
  1: 0x0647 [0x00] END_REQSTACK()
```

### Event 65535.17

#### Metadata

| Field        | Value    |
|--------------|----------|
| Entrypoint   | 0x0648   |
| Data Size    | 10 bytes |
| Instructions | 2        |

```
      00 01 02 03 04 05 06 07  08 09 0A 0B 0C 0D 0E 0F
      -- -- -- -- -- -- -- --  -- -- -- -- -- -- -- --
0640:                          37 67 80 68 80 01 80 69          7g.h...i
0650: 80 00                                             ..              
```

#### Opcodes

```
  0: 0x0648 [0x37] UPDATE_EVENT_POSITION_AND_DIR: x=561.040*, z=-276.985*, y=0.000*, direction=152.3°*
  1: 0x0651 [0x00] END_REQSTACK()
```

### Event 65535.18

#### Metadata

| Field        | Value    |
|--------------|----------|
| Entrypoint   | 0x0652   |
| Data Size    | 10 bytes |
| Instructions | 2        |

```
      00 01 02 03 04 05 06 07  08 09 0A 0B 0C 0D 0E 0F
      -- -- -- -- -- -- -- --  -- -- -- -- -- -- -- --
0650:       37 6A 80 6B 80 6C  80 6D 80 00                7j.k.l.m..    
```

#### Opcodes

```
  0: 0x0652 [0x37] UPDATE_EVENT_POSITION_AND_DIR: x=-358.228*, z=19.933*, y=-35.004*, direction=184.3°*
  1: 0x065B [0x00] END_REQSTACK()
```

### Event 65535.19

#### Metadata

| Field        | Value    |
|--------------|----------|
| Entrypoint   | 0x065C   |
| Data Size    | 10 bytes |
| Instructions | 2        |

```
      00 01 02 03 04 05 06 07  08 09 0A 0B 0C 0D 0E 0F
      -- -- -- -- -- -- -- --  -- -- -- -- -- -- -- --
0650:                                      37 6E 80 6F              7n.o
0660: 80 70 80 71 80 00                                 .p.q..          
```

#### Opcodes

```
  0: 0x065C [0x37] UPDATE_EVENT_POSITION_AND_DIR: x=121.457*, z=115.601*, y=-7.981*, direction=307.3°*
  1: 0x0665 [0x00] END_REQSTACK()
```

### Event 65535.20

#### Metadata

| Field        | Value    |
|--------------|----------|
| Entrypoint   | 0x0666   |
| Data Size    | 10 bytes |
| Instructions | 2        |

```
      00 01 02 03 04 05 06 07  08 09 0A 0B 0C 0D 0E 0F
      -- -- -- -- -- -- -- --  -- -- -- -- -- -- -- --
0660:                   37 72  80 73 80 74 80 75 80 00        7r.s.t.u..
```

#### Opcodes

```
  0: 0x0666 [0x37] UPDATE_EVENT_POSITION_AND_DIR: x=154.569*, z=-174.284*, y=0.551*, direction=205.0°*
  1: 0x066F [0x00] END_REQSTACK()
```

### Event 65535.21

#### Metadata

| Field        | Value    |
|--------------|----------|
| Entrypoint   | 0x0670   |
| Data Size    | 10 bytes |
| Instructions | 2        |

```
      00 01 02 03 04 05 06 07  08 09 0A 0B 0C 0D 0E 0F
      -- -- -- -- -- -- -- --  -- -- -- -- -- -- -- --
0670: 37 76 80 77 80 78 80 79  80 00                    7v.w.x.y..      
```

#### Opcodes

```
  0: 0x0670 [0x37] UPDATE_EVENT_POSITION_AND_DIR: x=-15.373*, z=104.022*, y=-17.300*, direction=78.1°*
  1: 0x0679 [0x00] END_REQSTACK()
```

### Event 65535.22

#### Metadata

| Field        | Value    |
|--------------|----------|
| Entrypoint   | 0x067A   |
| Data Size    | 12 bytes |
| Instructions | 3        |

```
      00 01 02 03 04 05 06 07  08 09 0A 0B 0C 0D 0E 0F
      -- -- -- -- -- -- -- --  -- -- -- -- -- -- -- --
0670:                                33 01 37 7A 80 7B            3.7z.{
0680: 80 7C 80 7D 80 00                                 .|.}..          
```

#### Opcodes

```
  0: 0x067A [0x33] EventEntity->Render.Flags0 |= 0x200000 // Bit 21 (flag=0x01)
  1: 0x067C [0x37] UPDATE_EVENT_POSITION_AND_DIR: x=0.646*, z=-26.695*, y=-7.109*, direction=147.0°*
  2: 0x0685 [0x00] END_REQSTACK()
```

### Event 65535.23

#### Metadata

| Field        | Value    |
|--------------|----------|
| Entrypoint   | 0x0686   |
| Data Size    | 10 bytes |
| Instructions | 2        |

```
      00 01 02 03 04 05 06 07  08 09 0A 0B 0C 0D 0E 0F
      -- -- -- -- -- -- -- --  -- -- -- -- -- -- -- --
0680:                   37 7E  80 7F 80 80 80 81 80 00        7~........
```

#### Opcodes

```
  0: 0x0686 [0x37] UPDATE_EVENT_POSITION_AND_DIR: x=-0.047*, z=-32.521*, y=-23.499*, direction=89.7°*
  1: 0x068F [0x00] END_REQSTACK()
```

### Event 65535.24

#### Metadata

| Field        | Value    |
|--------------|----------|
| Entrypoint   | 0x0690   |
| Data Size    | 37 bytes |
| Instructions | 5        |

```
      00 01 02 03 04 05 06 07  08 09 0A 0B 0C 0D 0E 0F
      -- -- -- -- -- -- -- --  -- -- -- -- -- -- -- --
0690: 03 01 00 07 7F 1A DA 06  66 02 00 F8 FF FF 7F F8  ........f.......
06A0: FF FF 7F 73 68 61 30 53  F8 FF FF 7F F8 FF FF 7F  ...sha0S........
06B0: 73 68 61 30 00                                    sha0.           
```

#### Opcodes

```
  0: 0x0690 [0x03] ExtData[1]->WorkLocal[1] = Entity->Race
  1: 0x0695 [0x1A] CALL_SUBROUTINE(address=0x06DA)
  2: 0x0698 [0x66] LOAD_EXT_SCHEDULER_MAIN: Load scheduler "sha0" with entities [EventEntity, EventEntity], work=ExtData[1]->WorkLocal[2]
  3: 0x06A7 [0x53] WAIT_SCHEDULER_TASK: Wait for scheduler "sha0" with entities [EventEntity, EventEntity]
  4: 0x06B4 [0x00] END_REQSTACK()
```

### Event 65535.25

#### Metadata

| Field        | Value     |
|--------------|-----------|
| Entrypoint   | 0x06B5    |
| Data Size    | 185 bytes |
| Instructions | 13        |

```
      00 01 02 03 04 05 06 07  08 09 0A 0B 0C 0D 0E 0F
      -- -- -- -- -- -- -- --  -- -- -- -- -- -- -- --
06B0:                03 01 00  07 7F 1A DA 06 66 02 00       ........f..
06C0: F8 FF FF 7F F8 FF FF 7F  73 68 61 31 53 F8 FF FF  ........sha1S...
06D0: 7F F8 FF FF 7F 73 68 61  31 00 03 02 00 01 00 02  .....sha1.......
06E0: 02 00 2A 80 05 EF 06 08  02 00 82 80 01 F4 06 08  ..*.............
06F0: 02 00 83 80 14 02 00 0E  80 07 02 00 84 80 1B 03  ................
0700: 02 00 01 00 02 02 00 2A  80 05 14 07 08 02 00 82  .......*........
0710: 80 01 19 07 08 02 00 83  80 14 02 00 0E 80 07 02  ................
0720: 00 85 80 1B 03 02 00 01  00 02 02 00 2A 80 05 39  ............*..9
0730: 07 08 02 00 82 80 01 3E  07 08 02 00 83 80 14 02  .......>........
0740: 00 0E 80 07 02 00 86 80  1B 03 02 00 01 00 02 02  ................
0750: 00 2A 80 05 5E 07 08 02  00 82 80 01 63 07 08 02  .*..^.......c...
0760: 00 83 80 14 02 00 0E 80  07 02 00 87 80 1B        ..............  
```

#### Opcodes

```
  0: 0x06B5 [0x03] ExtData[1]->WorkLocal[1] = Entity->Race
  1: 0x06BA [0x1A] CALL_SUBROUTINE(address=0x06DA)
  2: 0x06BD [0x66] LOAD_EXT_SCHEDULER_MAIN: Load scheduler "sha1" with entities [EventEntity, EventEntity], work=ExtData[1]->WorkLocal[2]
  3: 0x06CC [0x53] WAIT_SCHEDULER_TASK: Wait for scheduler "sha1" with entities [EventEntity, EventEntity]
  4: 0x06D9 [0x00] END_REQSTACK()

SUBROUTINE_06DA:
  5: 0x06DA [0x03] ExtData[1]->WorkLocal[2] = ExtData[1]->WorkLocal[1]
  6: 0x06DF [0x02] IF !(ExtData[1]->WorkLocal[2] > 5*) GOTO 0x06EF
  7: 0x06E7 [0x08] ExtData[1]->WorkLocal[2] -= 1*
  8: 0x06EC [0x01] GOTO 0x06F4
  9: 0x06EF [0x08] ExtData[1]->WorkLocal[2] -= 2*

SUBROUTINE_06F4:
 10: 0x06F4 [0x14] ExtData[1]->WorkLocal[2] *= 10*
 11: 0x06F9 [0x07] ExtData[1]->WorkLocal[2] += 9*
 12: 0x06FE [0x1B] RETURN
```

#### Data or dead code:

```
# Dead code (unreachable instructions):
     0x06FF [0x03] ExtData[1]->WorkLocal[2] = ExtData[1]->WorkLocal[1]
     0x0704 [0x02] IF !(ExtData[1]->WorkLocal[2] > 5*) GOTO 0x0714
     0x070C [0x08] ExtData[1]->WorkLocal[2] -= 1*
     0x0711 [0x01] GOTO 0x0719
     0x0714 [0x08] ExtData[1]->WorkLocal[2] -= 2*
     0x0719 [0x14] ExtData[1]->WorkLocal[2] *= 10*
     0x071E [0x07] ExtData[1]->WorkLocal[2] += 70*
     0x0723 [0x1B] RETURN
     0x0724 [0x03] ExtData[1]->WorkLocal[2] = ExtData[1]->WorkLocal[1]
     0x0729 [0x02] IF !(ExtData[1]->WorkLocal[2] > 5*) GOTO 0x0739
     0x0731 [0x08] ExtData[1]->WorkLocal[2] -= 1*
     0x0736 [0x01] GOTO 0x073E
     0x0739 [0x08] ExtData[1]->WorkLocal[2] -= 2*
     0x073E [0x14] ExtData[1]->WorkLocal[2] *= 10*
     0x0743 [0x07] ExtData[1]->WorkLocal[2] += 140*
     0x0748 [0x1B] RETURN
     0x0749 [0x03] ExtData[1]->WorkLocal[2] = ExtData[1]->WorkLocal[1]
     0x074E [0x02] IF !(ExtData[1]->WorkLocal[2] > 5*) GOTO 0x075E
     0x0756 [0x08] ExtData[1]->WorkLocal[2] -= 1*
     0x075B [0x01] GOTO 0x0763
     0x075E [0x08] ExtData[1]->WorkLocal[2] -= 2*
     0x0763 [0x14] ExtData[1]->WorkLocal[2] *= 10*
     0x0768 [0x07] ExtData[1]->WorkLocal[2] += 210*
     0x076D [0x1B] RETURN
```

### Event 65535.26

#### Metadata

| Field        | Value    |
|--------------|----------|
| Entrypoint   | 0x076E   |
| Data Size    | 24 bytes |
| Instructions | 4        |

```
      00 01 02 03 04 05 06 07  08 09 0A 0B 0C 0D 0E 0F
      -- -- -- -- -- -- -- --  -- -- -- -- -- -- -- --
0760:                                            03 01                ..
0770: 00 07 7F 1A DA 06 66 02  00 F8 FF FF 7F F8 FF FF  ......f.........
0780: 7F 74 6C 6B 30 00                                 .tlk0.          
```

#### Opcodes

```
  0: 0x076E [0x03] ExtData[1]->WorkLocal[1] = Entity->Race
  1: 0x0773 [0x1A] CALL_SUBROUTINE(address=0x06DA)
  2: 0x0776 [0x66] LOAD_EXT_SCHEDULER_MAIN: Load scheduler "tlk0" with entities [EventEntity, EventEntity], work=ExtData[1]->WorkLocal[2]
  3: 0x0785 [0x00] END_REQSTACK()
```

### Event 65535.27

#### Metadata

| Field        | Value    |
|--------------|----------|
| Entrypoint   | 0x0786   |
| Data Size    | 24 bytes |
| Instructions | 4        |

```
      00 01 02 03 04 05 06 07  08 09 0A 0B 0C 0D 0E 0F
      -- -- -- -- -- -- -- --  -- -- -- -- -- -- -- --
0780:                   03 01  00 07 7F 1A DA 06 66 02        ........f.
0790: 00 F8 FF FF 7F F8 FF FF  7F 74 6C 6B 31 00        .........tlk1.  
```

#### Opcodes

```
  0: 0x0786 [0x03] ExtData[1]->WorkLocal[1] = Entity->Race
  1: 0x078B [0x1A] CALL_SUBROUTINE(address=0x06DA)
  2: 0x078E [0x66] LOAD_EXT_SCHEDULER_MAIN: Load scheduler "tlk1" with entities [EventEntity, EventEntity], work=ExtData[1]->WorkLocal[2]
  3: 0x079D [0x00] END_REQSTACK()
```

### Event 65535.28

#### Metadata

| Field        | Value    |
|--------------|----------|
| Entrypoint   | 0x079E   |
| Data Size    | 37 bytes |
| Instructions | 5        |

```
      00 01 02 03 04 05 06 07  08 09 0A 0B 0C 0D 0E 0F
      -- -- -- -- -- -- -- --  -- -- -- -- -- -- -- --
0790:                                            03 01                ..
07A0: 00 07 7F 1A DA 06 66 02  00 F8 FF FF 7F F8 FF FF  ......f.........
07B0: 7F 73 69 74 30 53 F8 FF  FF 7F F8 FF FF 7F 73 69  .sit0S........si
07C0: 74 30 00                                          t0.             
```

#### Opcodes

```
  0: 0x079E [0x03] ExtData[1]->WorkLocal[1] = Entity->Race
  1: 0x07A3 [0x1A] CALL_SUBROUTINE(address=0x06DA)
  2: 0x07A6 [0x66] LOAD_EXT_SCHEDULER_MAIN: Load scheduler "sit0" with entities [EventEntity, EventEntity], work=ExtData[1]->WorkLocal[2]
  3: 0x07B5 [0x53] WAIT_SCHEDULER_TASK: Wait for scheduler "sit0" with entities [EventEntity, EventEntity]
  4: 0x07C2 [0x00] END_REQSTACK()
```

### Event 65535.29

#### Metadata

| Field        | Value    |
|--------------|----------|
| Entrypoint   | 0x07C3   |
| Data Size    | 37 bytes |
| Instructions | 5        |

```
      00 01 02 03 04 05 06 07  08 09 0A 0B 0C 0D 0E 0F
      -- -- -- -- -- -- -- --  -- -- -- -- -- -- -- --
07C0:          03 01 00 07 7F  1A DA 06 66 02 00 F8 FF     ........f....
07D0: FF 7F F8 FF FF 7F 73 69  74 31 53 F8 FF FF 7F F8  ......sit1S.....
07E0: FF FF 7F 73 69 74 31 00                           ...sit1.        
```

#### Opcodes

```
  0: 0x07C3 [0x03] ExtData[1]->WorkLocal[1] = Entity->Race
  1: 0x07C8 [0x1A] CALL_SUBROUTINE(address=0x06DA)
  2: 0x07CB [0x66] LOAD_EXT_SCHEDULER_MAIN: Load scheduler "sit1" with entities [EventEntity, EventEntity], work=ExtData[1]->WorkLocal[2]
  3: 0x07DA [0x53] WAIT_SCHEDULER_TASK: Wait for scheduler "sit1" with entities [EventEntity, EventEntity]
  4: 0x07E7 [0x00] END_REQSTACK()
```

### Event 65535.30

#### Metadata

| Field        | Value    |
|--------------|----------|
| Entrypoint   | 0x07E8   |
| Data Size    | 42 bytes |
| Instructions | 6        |

```
      00 01 02 03 04 05 06 07  08 09 0A 0B 0C 0D 0E 0F
      -- -- -- -- -- -- -- --  -- -- -- -- -- -- -- --
07E0:                          03 01 00 07 7F 1A DA 06          ........
07F0: 66 02 00 F8 FF FF 7F F8  FF FF 7F 74 6C 6B 30 1C  f..........tlk0.
0800: 0F 80 66 02 00 F8 FF FF  7F F8 FF FF 7F 74 6C 6B  ..f..........tlk
0810: 31 00                                             1.              
```

#### Opcodes

```
  0: 0x07E8 [0x03] ExtData[1]->WorkLocal[1] = Entity->Race
  1: 0x07ED [0x1A] CALL_SUBROUTINE(address=0x06DA)
  2: 0x07F0 [0x66] LOAD_EXT_SCHEDULER_MAIN: Load scheduler "tlk0" with entities [EventEntity, EventEntity], work=ExtData[1]->WorkLocal[2]
  3: 0x07FF [0x1C] WAIT(60* ticks)
  4: 0x0802 [0x66] LOAD_EXT_SCHEDULER_MAIN: Load scheduler "tlk1" with entities [EventEntity, EventEntity], work=ExtData[1]->WorkLocal[2]
  5: 0x0811 [0x00] END_REQSTACK()
```

### Event 65535.31

#### Metadata

| Field        | Value    |
|--------------|----------|
| Entrypoint   | 0x0812   |
| Data Size    | 16 bytes |
| Instructions | 3        |

```
      00 01 02 03 04 05 06 07  08 09 0A 0B 0C 0D 0E 0F
      -- -- -- -- -- -- -- --  -- -- -- -- -- -- -- --
0810:       92 01 F0 FF FF 7F  37 88 80 89 80 01 80 8A    ......7.......
0820: 80 00                                             ..              
```

#### Opcodes

```
  0: 0x0812 [0x92] LocalPlayer->Render.Flags3 ^= 0x01
  1: 0x0818 [0x37] UPDATE_EVENT_POSITION_AND_DIR: x=363.289*, z=-119.304*, y=0.000*, direction=5.7°*
  2: 0x0821 [0x00] END_REQSTACK()
```

### Event 65535.32

#### Metadata

| Field        | Value    |
|--------------|----------|
| Entrypoint   | 0x0822   |
| Data Size    | 41 bytes |
| Instructions | 5        |

```
      00 01 02 03 04 05 06 07  08 09 0A 0B 0C 0D 0E 0F
      -- -- -- -- -- -- -- --  -- -- -- -- -- -- -- --
0820:       BB 8B 80 F0 FF FF  7F 9C 72 06 01 6D 61 69    ........r..mai
0830: 6E 01 80 1C 0A 80 45 00  80 F0 FF FF 7F F0 FF FF  n.....E.........
0840: 7F 66 64 6F 31 01 80 1C  0F 80 00                 .fdo1......     
```

#### Opcodes

```
  0: 0x0822 [0xBB] LOAD_EVENT_SCHEDULER_ALT: Load scheduler "main" with entities [LocalPlayer, Cavernous Maw (ID: 17199772/0x0106729C)], work=[148*, 0*]
  1: 0x0833 [0x1C] WAIT(240* ticks)
  2: 0x0836 [0x45] LOAD_SCHEDULED_TASK: Load scheduler "fdo1" with entities [LocalPlayer, LocalPlayer], work=[200*, 0*]
  3: 0x0847 [0x1C] WAIT(60* ticks)
  4: 0x084A [0x00] END_REQSTACK()
```

### Event 65535.33

#### Metadata

| Field        | Value   |
|--------------|---------|
| Entrypoint   | 0x084B  |
| Data Size    | 6 bytes |
| Instructions | 2       |

```
      00 01 02 03 04 05 06 07  08 09 0A 0B 0C 0D 0E 0F
      -- -- -- -- -- -- -- --  -- -- -- -- -- -- -- --
0840:                                   03 02 10 07 7F             .....
0850: 00                                                .               
```

#### Opcodes

```
  0: 0x084B [0x03] Work_Zone[2] = Entity->Race
  1: 0x0850 [0x00] END_REQSTACK()
```

### Event 65535.34

#### Metadata

| Field        | Value   |
|--------------|---------|
| Entrypoint   | 0x0851  |
| Data Size    | 6 bytes |
| Instructions | 2       |

```
      00 01 02 03 04 05 06 07  08 09 0A 0B 0C 0D 0E 0F
      -- -- -- -- -- -- -- --  -- -- -- -- -- -- -- --
0850:    03 02 10 0B 7F 00                               ......         
```

#### Opcodes

```
  0: 0x0851 [0x03] Work_Zone[2] = (Entity->Render.Flags01 >> 25) & 1
  1: 0x0856 [0x00] END_REQSTACK()
```

### Event 44

#### Metadata

| Field        | Value     |
|--------------|-----------|
| Entrypoint   | 0x0857    |
| Data Size    | 135 bytes |
| Instructions | 9         |

```
      00 01 02 03 04 05 06 07  08 09 0A 0B 0C 0D 0E 0F
      -- -- -- -- -- -- -- --  -- -- -- -- -- -- -- --
0850:                      42  5D 01 80 0F 80 02 05 10         B].......
0860: 01 80 00 6E 08 A8 00 04  10 82 80 1C 8C 80 89 04  ...n............
0870: 10 8B 04 10 05 10 02 10  03 10 3F 3F 3F 00 00 00  ..........???...
0880: 00 00 00 00 00 00 00 00  00 00 45 24 80 F8 FF FF  ..........E$....
0890: 7F F8 FF FF 7F 63 68 63  6F 01 80 48 8D 80 23 02  .....chco..H..#.
08A0: 06 10 82 80 00 BC 08 45  25 80 F8 FF FF 7F F8 FF  .......E%.......
08B0: FF 7F 6E 61 6B 31 01 80  48 8E 80 23 02 07 10 8F  ..nak1..H..#....
08C0: 80 00 D9 08 45 25 80 F8  FF FF 7F F8 FF FF 7F 6E  ....E%.........n
08D0: 61 6B 32 01 80 48 90 80  23 1C 82 80 21 00        ak2..H..#...!.  
```

#### Opcodes

```
  0: 0x0857 [0x42] SET_CLI_EVENT_CANCEL_DATA()
  1: 0x0858 [0x5D] SET_MUSIC_VOLUME(volume=0*, fade_time=60*)
  2: 0x085D [0x02] IF !(Work_Zone[5] == 0*) GOTO 0x086E
  3: 0x0865 [0xA8] MAP_MARKER_CONTROL: Reset/unlock markers (no map display), zone=Work_Zone[4], marker=1*
  4: 0x086B [0x1C] WAIT(15* ticks)
  5: 0x086E [0x89] OPEN_MAP(map_id=0x00001004)
  6: 0x0871 [0x8B] SET_EVENT_MARK: Add/update map marker on map Work_Zone[4] at (Work_Zone[2], Work_Zone[3]), index=Work_Zone[5], name=(no name)
  7: 0x087A [0x3F] 0x3F3F = ExtData[1]->WorkLocal[0] % ExtData[1]->WorkLocal[0]
  8: 0x0881 [0x00] END_REQSTACK()
```

#### Data or dead code:

```
# Dead code (unreachable instructions):
     0x0882 [0x00] END_REQSTACK()
     0x0883 [0x00] END_REQSTACK()
     0x0884 [0x00] END_REQSTACK()
     0x0885 [0x00] END_REQSTACK()
     0x0886 [0x00] END_REQSTACK()
     0x0887 [0x00] END_REQSTACK()
     0x0888 [0x00] END_REQSTACK()
     0x0889 [0x00] END_REQSTACK()
     0x088A [0x45] LOAD_SCHEDULED_TASK: Load scheduler "chco" with entities [EventEntity, EventEntity], work=[201*, 0*]
     0x089B [0x48] [System] [8075*]:
    → "There is treasure somewhere in the vicinity of this marker..."
     0x089E [0x23] WAIT_FOR_DIALOG_INTERACTION
     0x089F [0x02] IF !(Work_Zone[6] == 1*) GOTO 0x08BC
     0x08A7 [0x45] LOAD_SCHEDULED_TASK: Load scheduler "nak1" with entities [EventEntity, EventEntity], work=[144*, 0*]
     0x08B8 [0x48] [System] [8087*]:
    → "Your chocobo seems especially sharp today!"
     0x08BB [0x23] WAIT_FOR_DIALOG_INTERACTION
     0x08BC [0x02] IF !(Work_Zone[7] == 99*) GOTO 0x08D9
     0x08C4 [0x45] LOAD_SCHEDULED_TASK: Load scheduler "nak2" with entities [EventEntity, EventEntity], work=[144*, 0*]
     0x08D5 [0x48] [System] [8088*]:
    → "Your chocobo seems especially energetic today!"
     0x08D8 [0x23] WAIT_FOR_DIALOG_INTERACTION
     0x08D9 [0x1C] WAIT(1* ticks)
     0x08DC [0x21] END_EVENT
     0x08DD [0x00] END_REQSTACK()
```
