# 16953361 - Item_box

## Common Data

| Field            | Value                             |
|------------------|-----------------------------------|
| Zone             | Diorama Abdhaljs-Ghelsba (ID: 43) |
| Block Size       | 288 bytes                         |
| Total Events     | 2                                 |
| References Count | 19                                |

## List of Events

| Event ID              | Entrypoint   |   Size |   Instructions |
|-----------------------|--------------|--------|----------------|
| [65535](#event-65535) | 0x0000       |      1 |              1 |
| [10](#event-10)       | 0x0001       |    186 |             36 |

## DAT References (imed_data)

|   Index | Hex Value   |   Dec Value |
|---------|-------------|-------------|
|       0 | 0x14B4      |        5300 |
|       1 | 0x14B5      |        5301 |
|       2 | 0x14B6      |        5302 |
|       3 | 0x14B7      |        5303 |
|       4 | 0x0468      |        1128 |
|       5 | 0x0469      |        1129 |
|       6 | 0x1E64      |        7780 |
|       7 | 0x0000      |           0 |
|       8 | 0x0001      |           1 |
|       9 | 0x0002      |           2 |
|      10 | 0x0003      |           3 |
|      11 | 0x0004      |           4 |
|      12 | 0x0005      |           5 |
|      13 | 0x0010      |          16 |
|      14 | 0x001F      |          31 |
|      15 | 0x1E65      |        7781 |
|      16 | 0x0007      |           7 |
|      17 | 0x40000000  |  1073741824 |
|      18 | 0x000F      |          15 |

## String References

- **7780**: Which will it be? [$0/$1/$2/$3/$4/$5/No thanks.]
- **7781**: $3x$3 [$P10'@M$3473992/60/50/40"0"0/10/b_D(-]

## Events

### Event 65535

#### Metadata

| Field        | Value   |
|--------------|---------|
| Entrypoint   | 0x0000  |
| Data Size    | 1 bytes |
| Instructions | 1       |

```
      00 01 02 03 04 05 06 07  08 09 0A 0B 0C 0D 0E 0F
      -- -- -- -- -- -- -- --  -- -- -- -- -- -- -- --
0000: 00                                                .               
```

#### Opcodes

```
  0: 0x0000 [0x00] END_REQSTACK()
```

### Event 10

#### Metadata

| Field        | Value     |
|--------------|-----------|
| Entrypoint   | 0x0001    |
| Data Size    | 186 bytes |
| Instructions | 36        |

```
      00 01 02 03 04 05 06 07  08 09 0A 0B 0C 0D 0E 0F
      -- -- -- -- -- -- -- --  -- -- -- -- -- -- -- --
0000:    03 02 10 00 80 03 03  10 01 80 03 04 10 02 80   ...............
0010: 03 05 10 03 80 03 06 10  04 80 03 07 10 05 80 24  ...............$
0020: 06 80 07 80 07 80 25 02  00 10 07 80 00 37 00 03  ......%......7..
0030: 00 00 00 80 01 87 00 02  00 10 08 80 00 47 00 03  .............G..
0040: 00 00 01 80 01 87 00 02  00 10 09 80 00 57 00 03  .............W..
0050: 00 00 02 80 01 87 00 02  00 10 0A 80 00 67 00 03  .............g..
0060: 00 00 03 80 01 87 00 02  00 10 0B 80 00 77 00 03  .............w..
0070: 00 00 04 80 01 87 00 02  00 10 0C 80 00 87 00 03  ................
0080: 00 00 05 80 01 87 00 02  00 00 07 80 01 B9 00 40  ...............@
0090: 0D 80 0E 80 01 10 00 00  24 0F 80 07 80 07 80 25  ........$......%
00A0: 02 00 10 10 80 00 B0 00  03 01 10 11 80 01 B9 00  ................
00B0: 40 07 80 12 80 01 10 00  10 21 00                 @........!.     
```

#### Opcodes

```
  0: 0x0001 [0x03] Work_Zone[2] = 5300*
  1: 0x0006 [0x03] Work_Zone[3] = 5301*
  2: 0x000B [0x03] Work_Zone[4] = 5302*
  3: 0x0010 [0x03] Work_Zone[5] = 5303*
  4: 0x0015 [0x03] Work_Zone[6] = 1128*
  5: 0x001A [0x03] Work_Zone[7] = 1129*
  6: 0x001F [0x24] CREATE_DIALOG(message_id=7780*, default_option=0*, option_flags=0*)
    → "Which will it be? [$0/$1/$2/$3/$4/$5/No thanks.]"
  7: 0x0026 [0x25] WAIT_DIALOG_SELECT()
  8: 0x0027 [0x02] IF !(Work_Zone[0] == 0*) GOTO 0x0037
  9: 0x002F [0x03] ExtData[1]->WorkLocal[0] = 5300*
 10: 0x0034 [0x01] GOTO 0x0087
 11: 0x0037 [0x02] IF !(Work_Zone[0] == 1*) GOTO 0x0047
 12: 0x003F [0x03] ExtData[1]->WorkLocal[0] = 5301*
 13: 0x0044 [0x01] GOTO 0x0087
 14: 0x0047 [0x02] IF !(Work_Zone[0] == 2*) GOTO 0x0057
 15: 0x004F [0x03] ExtData[1]->WorkLocal[0] = 5302*
 16: 0x0054 [0x01] GOTO 0x0087
 17: 0x0057 [0x02] IF !(Work_Zone[0] == 3*) GOTO 0x0067
 18: 0x005F [0x03] ExtData[1]->WorkLocal[0] = 5303*
 19: 0x0064 [0x01] GOTO 0x0087
 20: 0x0067 [0x02] IF !(Work_Zone[0] == 4*) GOTO 0x0077
 21: 0x006F [0x03] ExtData[1]->WorkLocal[0] = 1128*
 22: 0x0074 [0x01] GOTO 0x0087
 23: 0x0077 [0x02] IF !(Work_Zone[0] == 5*) GOTO 0x0087
 24: 0x007F [0x03] ExtData[1]->WorkLocal[0] = 1129*
 25: 0x0084 [0x01] GOTO 0x0087

SUBROUTINE_0087:
 26: 0x0087 [0x02] IF !(ExtData[1]->WorkLocal[0] == 0*) GOTO 0x00B9
 27: 0x008F [0x40] SET_BIT_WORK_RANGE(start_bit=16*, end_bit=31*, target=Work_Zone[1], source=ExtData[1]->WorkLocal[0])
 28: 0x0098 [0x24] CREATE_DIALOG(message_id=7781*, default_option=0*, option_flags=0*)
    → "$3x$3 [$P10'@M$3473992/60/50/40"0"0/10/b_D(-]"
 29: 0x009F [0x25] WAIT_DIALOG_SELECT()
 30: 0x00A0 [0x02] IF !(Work_Zone[0] == 7*) GOTO 0x00B0
 31: 0x00A8 [0x03] Work_Zone[1] = 1073741824*
 32: 0x00AD [0x01] GOTO 0x00B9
 33: 0x00B0 [0x40] SET_BIT_WORK_RANGE(start_bit=0*, end_bit=15*, target=Work_Zone[1], source=Work_Zone[0])

SUBROUTINE_00B9:
 34: 0x00B9 [0x21] END_EVENT
 35: 0x00BA [0x00] END_REQSTACK()
```
