# 16953367 - Tillecoe

## Common Data

| Field            | Value                             |
|------------------|-----------------------------------|
| Zone             | Diorama Abdhaljs-Ghelsba (ID: 43) |
| Block Size       | 168 bytes                         |
| Total Events     | 2                                 |
| References Count | 12                                |

## List of Events

| Event ID              | Entrypoint   |   Size |   Instructions |
|-----------------------|--------------|--------|----------------|
| [65535](#event-65535) | 0x0000       |      1 |              1 |
| [9](#event-9)         | 0x0001       |     93 |             20 |

## DAT References (imed_data)

|   Index | Hex Value   |   Dec Value |
|---------|-------------|-------------|
|       0 | 0x0468      |        1128 |
|       1 | 0x0469      |        1129 |
|       2 | 0x1E64      |        7780 |
|       3 | 0x0000      |           0 |
|       4 | 0x000F      |          15 |
|       5 | 0x0004      |           4 |
|       6 | 0x0005      |           5 |
|       7 | 0x0006      |           6 |
|       8 | 0x40000000  |  1073741824 |
|       9 | 0x0010      |          16 |
|      10 | 0x001F      |          31 |
|      11 | 0x0001      |           1 |

## String References

- **7780**: Which will it be? [$0/$1/$2/$3/$4/$5/No thanks.]

## Events

### Event 65535

#### Metadata

| Field        | Value   |
|--------------|---------|
| Entrypoint   | 0x0000  |
| Data Size    | 1 bytes |
| Instructions | 1       |

```
      00 01 02 03 04 05 06 07  08 09 0A 0B 0C 0D 0E 0F
      -- -- -- -- -- -- -- --  -- -- -- -- -- -- -- --
0000: 00                                                .               
```

#### Opcodes

```
  0: 0x0000 [0x00] END_REQSTACK()
```

### Event 9

#### Metadata

| Field        | Value    |
|--------------|----------|
| Entrypoint   | 0x0001   |
| Data Size    | 93 bytes |
| Instructions | 20       |

```
      00 01 02 03 04 05 06 07  08 09 0A 0B 0C 0D 0E 0F
      -- -- -- -- -- -- -- --  -- -- -- -- -- -- -- --
0000:    1E F0 FF FF 7F 6F 70  03 06 10 00 80 03 07 10   .....op........
0010: 01 80 24 02 80 03 80 04  80 25 02 00 10 05 80 00  ..$......%......
0020: 2A 00 03 00 00 00 80 01  3A 00 02 00 10 06 80 00  *.......:.......
0030: 3A 00 03 00 00 01 80 01  3A 00 02 00 10 07 80 00  :.......:.......
0040: 4A 00 03 01 10 08 80 01  5C 00 40 09 80 0A 80 01  J.......\.@.....
0050: 10 00 00 40 03 80 04 80  01 10 0B 80 21 00        ...@........!.  
```

#### Opcodes

```
  0: 0x0001 [0x1E] EventEntity looks at LocalPlayer and starts talking
  1: 0x0006 [0x6F] WAIT_FRAME_DELAY: Yield until WaitTime reaches zero
  2: 0x0007 [0x70] WAIT_ENTITY_RENDER_FLAG: Wait while EventEntity->Render.Flags3 bit 2 is set (cancel turn if not)
  3: 0x0008 [0x03] Work_Zone[6] = 1128*
  4: 0x000D [0x03] Work_Zone[7] = 1129*
  5: 0x0012 [0x24] CREATE_DIALOG(message_id=7780*, default_option=0*, option_flags=15*)
    → "Which will it be? [$0/$1/$2/$3/$4/$5/No thanks.]"
  6: 0x0019 [0x25] WAIT_DIALOG_SELECT()
  7: 0x001A [0x02] IF !(Work_Zone[0] == 4*) GOTO 0x002A
  8: 0x0022 [0x03] ExtData[1]->WorkLocal[0] = 1128*
  9: 0x0027 [0x01] GOTO 0x003A
 10: 0x002A [0x02] IF !(Work_Zone[0] == 5*) GOTO 0x003A
 11: 0x0032 [0x03] ExtData[1]->WorkLocal[0] = 1129*
 12: 0x0037 [0x01] GOTO 0x003A

SUBROUTINE_003A:
 13: 0x003A [0x02] IF !(Work_Zone[0] == 6*) GOTO 0x004A
 14: 0x0042 [0x03] Work_Zone[1] = 1073741824*
 15: 0x0047 [0x01] GOTO 0x005C
 16: 0x004A [0x40] SET_BIT_WORK_RANGE(start_bit=16*, end_bit=31*, target=Work_Zone[1], source=ExtData[1]->WorkLocal[0])
 17: 0x0053 [0x40] SET_BIT_WORK_RANGE(start_bit=0*, end_bit=15*, target=Work_Zone[1], source=1*)

SUBROUTINE_005C:
 18: 0x005C [0x21] END_EVENT
 19: 0x005D [0x00] END_REQSTACK()
```
