# 17739790 - Reinberta

## Common Data

| Field            | Value                    |
|------------------|--------------------------|
| Zone             | Bastok Markets (ID: 235) |
| Block Size       | 7432 bytes               |
| Total Events     | 31                       |
| References Count | 224                      |

## List of Events

| Event ID                 | Entrypoint   |   Size |   Instructions |
|--------------------------|--------------|--------|----------------|
| [65535](#event-65535)    | 0x0000       |      1 |              1 |
| [300](#event-300)        | 0x0001       |   1972 |            474 |
| [301](#event-301)        | 0x07B5       |    277 |             70 |
| [625](#event-625)        | 0x08CA       |    131 |             24 |
| [632](#event-632)        | 0x094D       |    134 |             24 |
| [626](#event-626)        | 0x09D3       |    124 |             33 |
| [627](#event-627)        | 0x0A4F       |    229 |             60 |
| [634](#event-634)        | 0x0B34       |    227 |             51 |
| [643](#event-643)        | 0x0C17       |    272 |             59 |
| [652](#event-652)        | 0x0D27       |    122 |             30 |
| [649](#event-649)        | 0x0DA1       |    176 |             39 |
| [648](#event-648)        | 0x0E51       |    235 |             52 |
| [650](#event-650)        | 0x0F3C       |     78 |             16 |
| [628](#event-628)        | 0x0F8A       |    174 |             35 |
| [635](#event-635)        | 0x1038       |    138 |             30 |
| [644](#event-644)        | 0x10C2       |    142 |             32 |
| [653](#event-653)        | 0x1150       |    134 |             28 |
| [629](#event-629)        | 0x11D6       |    119 |             25 |
| [654](#event-654)        | 0x124D       |     61 |             13 |
| [639](#event-639)        | 0x128A       |     75 |             17 |
| [631](#event-631)        | 0x12D5       |    171 |             34 |
| [638](#event-638)        | 0x1380       |    127 |             25 |
| [647](#event-647)        | 0x13FF       |    184 |             35 |
| [656](#event-656)        | 0x14B7       |    102 |             20 |
| [657](#event-657)        | 0x151D       |    129 |             25 |
| [630](#event-630)        | 0x159E       |    786 |            146 |
| [402](#event-402)        | 0x18B0       |      1 |              1 |
| [65535.1](#event-655351) | 0x18B1       |     27 |              7 |
| [65535.2](#event-655352) | 0x18CC       |     10 |              2 |
| [65535.3](#event-655353) | 0x18D6       |     23 |              5 |
| [65535.4](#event-655354) | 0x18ED       |     14 |              4 |

## DAT References (imed_data)

|   Index | Hex Value   |   Dec Value |
|---------|-------------|-------------|
|       0 | 0x0009      |           9 |
|       1 | 0x000A      |          10 |
|       2 | 0x0003      |           3 |
|       3 | 0x0000      |           0 |
|       4 | 0x0010      |          16 |
|       5 | 0x0002      |           2 |
|       6 | 0x1C46      |        7238 |
|       7 | 0x1C47      |        7239 |
|       8 | 0x1C48      |        7240 |
|       9 | 0x1C49      |        7241 |
|      10 | 0x1BF9      |        7161 |
|      11 | 0x0001      |           1 |
|      12 | 0x0031      |          49 |
|      13 | 0x0032      |          50 |
|      14 | 0x0033      |          51 |
|      15 | 0x1C4A      |        7242 |
|      16 | 0x1C4B      |        7243 |
|      17 | 0x0004      |           4 |
|      18 | 0x0034      |          52 |
|      19 | 0x0005      |           5 |
|      20 | 0x0035      |          53 |
|      21 | 0x0006      |           6 |
|      22 | 0x0036      |          54 |
|      23 | 0x0007      |           7 |
|      24 | 0x0037      |          55 |
|      25 | 0x0008      |           8 |
|      26 | 0x0038      |          56 |
|      27 | 0x1BFA      |        7162 |
|      28 | 0x1BFB      |        7163 |
|      29 | 0x006E      |         110 |
|      30 | 0x1C04      |        7172 |
|      31 | 0x0046      |          70 |
|      32 | 0x1C41      |        7233 |
|      33 | 0x1C42      |        7234 |
|      34 | 0x1C43      |        7235 |
|      35 | 0x1C44      |        7236 |
|      36 | 0x0064      |         100 |
|      37 | 0x2B34      |       11060 |
|      38 | 0x1C3D      |        7229 |
|      39 | 0x1C3C      |        7228 |
|      40 | 0x07D3      |        2003 |
|      41 | 0x1C3A      |        7226 |
|      42 | 0x1C3B      |        7227 |
|      43 | 0x1C39      |        7225 |
|      44 | 0x1C37      |        7223 |
|      45 | 0x1C34      |        7220 |
|      46 | 0x1C35      |        7221 |
|      47 | 0x1C36      |        7222 |
|      48 | 0x1C38      |        7224 |
|      49 | 0x000B      |          11 |
|      50 | 0x000C      |          12 |
|      51 | 0x0078      |         120 |
|      52 | 0x000D      |          13 |
|      53 | 0x0082      |         130 |
|      54 | 0x1C06      |        7174 |
|      55 | 0x1C07      |        7175 |
|      56 | 0x1C05      |        7173 |
|      57 | 0x1BFD      |        7165 |
|      58 | 0x1BC5      |        7109 |
|      59 | 0x1BFF      |        7167 |
|      60 | 0x1C00      |        7168 |
|      61 | 0x1C01      |        7169 |
|      62 | 0x1C02      |        7170 |
|      63 | 0x1C03      |        7171 |
|      64 | 0x1BFE      |        7166 |
|      65 | 0x000E      |          14 |
|      66 | 0x000F      |          15 |
|      67 | 0x008E      |         142 |
|      68 | 0x1BCB      |        7115 |
|      69 | 0x1BF1      |        7153 |
|      70 | 0x1BCF      |        7119 |
|      71 | 0x1BCE      |        7118 |
|      72 | 0x1BCD      |        7117 |
|      73 | 0x1BCC      |        7116 |
|      74 | 0x1C08      |        7176 |
|      75 | 0x1C09      |        7177 |
|      76 | 0x1C25      |        7205 |
|      77 | 0x1C0A      |        7178 |
|      78 | 0x1C45      |        7237 |
|      79 | 0x1C0B      |        7179 |
|      80 | 0x1C0C      |        7180 |
|      81 | 0x1C3E      |        7230 |
|      82 | 0x1C3F      |        7231 |
|      83 | 0x1C40      |        7232 |
|      84 | 0x00C9      |         201 |
|      85 | 0x1BC8      |        7112 |
|      86 | 0x3AA6      |       15014 |
|      87 | 0x3AA7      |       15015 |
|      88 | 0x3AB6      |       15030 |
|      89 | 0x3AB7      |       15031 |
|      90 | 0x3A93      |       14995 |
|      91 | 0x3A94      |       14996 |
|      92 | 0x3A95      |       14997 |
|      93 | 0x3A96      |       14998 |
|      94 | 0x3A97      |       14999 |
|      95 | 0x3A98      |       15000 |
|      96 | 0x3A99      |       15001 |
|      97 | 0x3A9A      |       15002 |
|      98 | 0x3A9B      |       15003 |
|      99 | 0x3A9C      |       15004 |
|     100 | 0x3A9D      |       15005 |
|     101 | 0x3A9E      |       15006 |
|     102 | 0x3A9F      |       15007 |
|     103 | 0x3AA0      |       15008 |
|     104 | 0x3AA1      |       15009 |
|     105 | 0x3AA2      |       15010 |
|     106 | 0x3AA3      |       15011 |
|     107 | 0x3AA4      |       15012 |
|     108 | 0x3AA5      |       15013 |
|     109 | 0x3AB8      |       15032 |
|     110 | 0x3AB9      |       15033 |
|     111 | 0x3ABA      |       15034 |
|     112 | 0x3ABB      |       15035 |
|     113 | 0x3ABC      |       15036 |
|     114 | 0x3ABD      |       15037 |
|     115 | 0x3ABE      |       15038 |
|     116 | 0x3ABF      |       15039 |
|     117 | 0x3AC0      |       15040 |
|     118 | 0x3AC1      |       15041 |
|     119 | 0x3AC2      |       15042 |
|     120 | 0x3ACD      |       15053 |
|     121 | 0x3ACE      |       15054 |
|     122 | 0x3ACF      |       15055 |
|     123 | 0x3AD0      |       15056 |
|     124 | 0x3AD1      |       15057 |
|     125 | 0x3AD2      |       15058 |
|     126 | 0x3AD3      |       15059 |
|     127 | 0x3AD4      |       15060 |
|     128 | 0x3AD5      |       15061 |
|     129 | 0x3AD6      |       15062 |
|     130 | 0x3AD7      |       15063 |
|     131 | 0x3AD8      |       15064 |
|     132 | 0x3ADE      |       15070 |
|     133 | 0x3AF1      |       15089 |
|     134 | 0x3AF2      |       15090 |
|     135 | 0x3AF3      |       15091 |
|     136 | 0x3AF4      |       15092 |
|     137 | 0x3AF5      |       15093 |
|     138 | 0x3AF6      |       15094 |
|     139 | 0xFFFFFFFF  |  4294967295 |
|     140 | 0x3AE7      |       15079 |
|     141 | 0x3AE8      |       15080 |
|     142 | 0x3ADF      |       15071 |
|     143 | 0x3AE0      |       15072 |
|     144 | 0x3AE1      |       15073 |
|     145 | 0x3AE2      |       15074 |
|     146 | 0x40000000  |  1073741824 |
|     147 | 0x3AE3      |       15075 |
|     148 | 0x3AE4      |       15076 |
|     149 | 0x3AE5      |       15077 |
|     150 | 0x3AE6      |       15078 |
|     151 | 0x3AE9      |       15081 |
|     152 | 0x3AEA      |       15082 |
|     153 | 0x3AEB      |       15083 |
|     154 | 0x3AA8      |       15016 |
|     155 | 0x003C      |          60 |
|     156 | 0x001E      |          30 |
|     157 | 0x3AA9      |       15017 |
|     158 | 0x3AAA      |       15018 |
|     159 | 0x3AAB      |       15019 |
|     160 | 0x3AAC      |       15020 |
|     161 | 0x3AAD      |       15021 |
|     162 | 0x3AC3      |       15043 |
|     163 | 0x3AC4      |       15044 |
|     164 | 0x3AC5      |       15045 |
|     165 | 0x3AC6      |       15046 |
|     166 | 0x3AC7      |       15047 |
|     167 | 0x3AEC      |       15084 |
|     168 | 0x3AF7      |       15095 |
|     169 | 0x3AAE      |       15022 |
|     170 | 0x3AAF      |       15023 |
|     171 | 0x3AB0      |       15024 |
|     172 | 0x3AFC      |       15100 |
|     173 | 0x3AFD      |       15101 |
|     174 | 0x3ACC      |       15052 |
|     175 | 0x3AB1      |       15025 |
|     176 | 0x3AB2      |       15026 |
|     177 | 0x3AB3      |       15027 |
|     178 | 0x3AB4      |       15028 |
|     179 | 0x3AB5      |       15029 |
|     180 | 0x3AC8      |       15048 |
|     181 | 0x3AC9      |       15049 |
|     182 | 0x3ACA      |       15050 |
|     183 | 0x3ACB      |       15051 |
|     184 | 0x3AED      |       15085 |
|     185 | 0x3AEE      |       15086 |
|     186 | 0x3AEF      |       15087 |
|     187 | 0x3AF0      |       15088 |
|     188 | 0x3AF8      |       15096 |
|     189 | 0x3AF9      |       15097 |
|     190 | 0x3AFA      |       15098 |
|     191 | 0x3AFB      |       15099 |
|     192 | 0x3AFE      |       15102 |
|     193 | 0x3AFF      |       15103 |
|     194 | 0x3B00      |       15104 |
|     195 | 0x3B01      |       15105 |
|     196 | 0x3B02      |       15106 |
|     197 | 0x3AD9      |       15065 |
|     198 | 0x3ADA      |       15066 |
|     199 | 0x3ADB      |       15067 |
|     200 | 0x3ADC      |       15068 |
|     201 | 0x3ADD      |       15069 |
|     202 | 0x00C8      |         200 |
|     203 | 0x0013      |          19 |
|     204 | 0x001D      |          29 |
|     205 | 0x0027      |          39 |
|     206 | 0x003B      |          59 |
|     207 | 0x0045      |          69 |
|     208 | 0xFFFD1341  |  4294775617 |
|     209 | 0xFFFF2487  |  4294911111 |
|     210 | 0xFFFFE558  |  4294960472 |
|     211 | 0xFFFD0952  |  4294773074 |
|     212 | 0xFFFF27D1  |  4294911953 |
|     213 | 0xFFFD0280  |  4294771328 |
|     214 | 0xFFFF293D  |  4294912317 |
|     215 | 0x0C59      |        3161 |
|     216 | 0xFFFD172D  |  4294776621 |
|     217 | 0xFFFF1EAF  |  4294909615 |
|     218 | 0xFFFFE562  |  4294960482 |
|     219 | 0x05D9      |        1497 |
|     220 | 0xFFFD1681  |  4294776449 |
|     221 | 0xFFFF1B64  |  4294908772 |
|     222 | 0xFFFD0BBB  |  4294773691 |
|     223 | 0xFFFF123E  |  4294906430 |

## String References

- **7109**: Join the [Fishermen's/Carpenters'/Blacksmiths'/Goldsmiths'/Weavers'/Tanners'/Boneworkers'/Alchemists'/Culinarians'] Guild? [Sign up./That's not why you're here.]
- **7112**: You are now recognized as [an amateur/a recruit/an initiate/a novice/an apprentice/a journeyman/a craftsman/an artisan/an adept/a veteran/an expert/an authority/a luminary/a master/a grandmaster/a legend] of the [Fishermen's/Carpenters'/Blacksmiths'/Goldsmiths'/Weavers'/Tanners'/Boneworkers'/Alchemists'/Culinarians'] Guild.
- **7115**: Necessary skills: [Fishing/Woodworking/Smithing/Goldsmithing/Clothcraft/Leatherworking/Bonecraft/Alchemy/Cooking][ /, Woodworking/, Smithing/, Goldsmithing/, Clothcraft/, Leatherworking/, Bonecraft/, Alchemy/, Cooking][ /, Woodworking/, Smithing/, Goldsmithing/, Clothcraft/, Leatherworking/, Bonecraft/, Alchemy/, Cooking][ /, & Woodworking/, & Smithing/, & Goldsmithing/, & Clothcraft/, & Leatherworking/, & Bonecraft/, & Alchemy/, & Cooking] Necessary crystal: $4 Necessary items:
- **7116**: $4 x $0 $5 x $0$0 $6 x $0 $7 x $0$3
- **7117**: $4 x $0 $5 x $0$0 $6 x $0
- **7118**: $4 x $0 $5 x $0$0
- **7119**: $4 x $0
- **7153**: Necessary skills: [Fishing/Woodworking/Smithing/Goldsmithing/Clothcraft/Leatherworking/Bonecraft/Alchemy/Cooking][ /, Woodworking/, Smithing/, Goldsmithing/, Clothcraft/, Leatherworking/, Bonecraft/, Alchemy/, Cooking][ /, Woodworking/, Smithing/, Goldsmithing/, Clothcraft/, Leatherworking/, Bonecraft/, Alchemy/, Cooking][ /, & Woodworking/, & Smithing/, & Goldsmithing/, & Clothcraft/, & Leatherworking/, & Bonecraft/, & Alchemy/, & Cooking] Necessary crystal: $4 Necessary key item: $3 Necessary items:
- **7161**: Renounce your rank at which guild? [None./Carpenters'./Blacksmiths'./Goldsmiths'./Weavers'./Tanners'./Boneworkers'./Alchemists'./Culinarians'.]
- **7162**: If you proceed, your rank in the [Carpenters'/Blacksmiths'/Goldsmiths'/Weavers'/Tanners'/Boneworkers'/Alchemists'/Culinarians'] Guild will return to that of [craftsman/artisan/adept], and your skill value will revert to the maximum for that level. This procedure cannot be undone, so please consider your decision carefully.
- **7163**: Renounce your rank as a [Carpenter/Blacksmith/Goldsmith/Weaver/Tanner/Boneworker/Alchemist/Culinarian]? [No, retain./Yes, renounce.]
- **7165**: Ah, welcome, young [man/lady], to the Goldsmiths' Guild. This is a special association for those who work with silver, gold, gems, and all precious materials.
- **7166**: If you have no interest in joining our selected few, then off with you. There are no guided tours here.
- **7167**: Wonderful... You are one of those...what do they call them...adventurers, are you not? I think we shall start you off with crystal synthesis.
- **7168**: I'm sure you already know, but crystals are a form of condensed energy. Using crystal synthesis draws the energy from the crystals, and uses that energy to convert matter into different forms.
- **7169**: It sounds simple, but true works of art can only be made by forming an image of the item when you synthesize. The better the image, the better chances you have of getting a product worth keeping.
- **7170**: That's why professional goldsmiths such as myself can produce superior goods...but don't take it personally.
- **7171**: Our guild does not prefer crystal synthesis to traditional methods, but if you ask the others here, I'm sure they will give you some good advice. They are all top-class artisans.
- **7172**: The long history of goldsmithing tells the never-ending tale of man's pursuit for beauty. That history will continue as long as gold glitters. So, take your time, and start slowly.
- **7173**: Do you remember your first accessory? Do you remember the person who wore it? No matter how skilled a goldsmith you become, you must never forget how you felt at that moment.
- **7174**: It looks as if you are ready to take the next step in your goldsmithing career. Try your hand at $0.
- **7175**: Succeed, and I shall grace you with another gem of knowledge.
- **7176**: Ah, this is a fair example of craftsmanship. [Amateur/Recruit/Initiate/Novice/Apprentice] is the title you may wear. And remember...take your time. There is no need to rush things.
- **7177**: Ah, this is a fine example of craftsmanship.
- **7178**: Ah, this is an excellent example of craftsmanship.
- **7179**: This... This is a fabulous example of craftsmanship... No, a fabulous work of art! You have more than earned the title of adept. There is little more I can teach you.
- **7180**: This is so beautiful! I think I will be asking you to make all of my jewelry from now on!
- **7205**: Such ingenuity, such inventiveness! I commend you on your efforts and hereby grant you the title of craftsman. Continue to polish your skills and your bracelets and bijoux will shine even brighter!
- **7220**: Well, if it isn't our very own [veteran/expert/authority/luminary/master]. Quite some time has passed since you achieved your current rank. Are you perhaps ready to strive for greater heights?
- **7221**: Strive for greater heights? [Certainly!/Maybe later...]
- **7222**: Excellent! That's just the answer I was hoping to hear from our rising star. First, you'll want to speak to Ellard and obtain yourself $6.
- **7223**: Some guild points will be required for the transaction, but that should prove no obstacle for your considerable talents and devotion.
- **7224**: A shame that you would allow your potential to go to waste. But I will hold no grudges. Should you ever have a change of heart, simply say the word.
- **7225**: First, you'll want to speak to Ellard and obtain a copy of $6.
- **7226**: Ah, you've returned. And that look of confidence on your face tells me you've already grasped the contents of $6.
- **7227**: Very well, then. Your task is to craft $2. Now I'll only say this once, so I encourage you to take notes. The ingredients you will need are...
- **7228**: Finally, you'll want to remember to sign your masterwork. This is not merely a guild regulation, but also speaks to the pride that a goldsmith takes in [his/her] work.
- **7229**: <Sigh>... I thought I told you to take notes. I am loath to repeat myself, but will make an exception this once. The ingredients for $2 are...
- **7230**: Splendid! Marvelous! Spectacular! I am blinded with the brilliance of your craftsmanship. I hereby bestow upon you the rank of expert. Wear it with pride!
- **7231**: An admirable attempt, yet it lacks a certain...something. Ah, a signature! Do you so lack confidence in your work that you are unwilling to put your name to it?
- **7232**: Needless to say, this won't do at all. Back to the studio with you, and do try to follow instructions this time.
- **7233**: I see you have matured into a fine goldsmith. Perhaps it is time you entered the leagues of the greats. Try your hand at $0.
- **7234**: If you are able to complete this task, you will be worthy of the title of [artisan/adept/veteran].
- **7235**: However, you must realize that with the title of [artisan/adept/veteran] come certain responsibilities. More will be asked of you.
- **7236**: I do not mind you becoming [an artisan/an adept/a veteran] in another guild, but remember that your status among other goldsmiths may fall...
- **7237**: While I cannot prevent you from striving for [artisan/adept/veteran] status in another guild, bear in mind that you may find it difficult to maintain your high level of goldsmithing proficiency if you do.
- **7238**: <Player>. Is it true that you've been recognized as [an artisan/an adept/a veteran] at a guild other than our own?
- **7239**: I must say, I struggle to understand this decision. To put it bluntly, you do both yourself and those who would appreciate your work a disservice by not devoting your efforts to your one true calling.
- **7240**: Fortunately, it is not too late to reconsider. What would you say to giving up your [artisan/adept/veteran] status elsewhere?
- **7241**: It is a simple enough process--I can even inform other guildmasters of your decision to save you the trouble.
- **7242**: <Player>. I see that you are still spreading your talents thin. Do you not remember the conversation we had about focusing on your one true calling?
- **7243**: <Sigh>... But I have said enough. Dabble in lesser crafts as you see fit--it is of no concern to me!
- **14995**: Oh, hello again. What is that shield you're carrying?
- **14996**: I see... You must've met with her already.
- **14997**: Yes, I heard her story about a shield that can increase one's crafting ability. I must say, I'm a bit skeptical about the whole thing.
- **14998**: Although, if it's for real, it could change everything.
- **14999**: I know just how skilled you are, and if she selected you for this task, then I suppose you've got what it takes to make this shield.
- **15000**: Now then, let's get down to it. First, you're going to need the recipe, so try not to forget it.
- **15001**: First of all, you're going to need $1 to get started...
- **15002**: This particular item is used to get the Craftsmanship of the $0 up to its maximum value.
- **15003**: I have some notes here about Craftsmanship that you should hear. Allow me to read them to you.
- **15004**: You can increase Craftsmanship by crafting items that match up with your skill while you have the $0 equipped.
- **15005**: Craftsmanship will increase greatly when you fulfill certain conditions, but crafting the same item over and over again will reduce your gains, so try synthesizing something different if you run into trouble.
- **15006**: In its default state, the shield has the unfortunate tendency to lower the success rate of your crafting, but as its Craftsmanship rises, it mitigates that effect.
- **15007**: You can tell the Craftsmanship rating as well as the crafting success rate by looking at the shield. Good luck to you. Mwahaha...
- **15008**: That's all it says.
- **15009**: Come show me what you've got when the Craftsmanship is high enough and I'll make you the $1.
- **15010**: Your next step will be to obtain $2 and $3, which you can get from Puyutete.
- **15011**: You've made deliveries to people before, right? That's basically what you'll need to do here.
- **15012**: Simply talk to Puyutete if you need more information.
- **15013**: That's it for the ingredients. Once you've upgraded the shield, come show it to me. I'd like to see how it turned out.
- **15014**: What? You forgot the recipe? Okay, here are the ingredients again. Someone of your skill level really should remember these things.
- **15015**: You have a good eye for detail. If anybody can make this shield, I know you can.
- **15016**: Hmm... This really is something. I should be able to use this to make the $0 now.
- **15017**: So this is the $0...
- **15018**: This act of a craftsman pouring his very spirit into the shield to form a crystal... It could be used for all kinds of other applications, especially jewelry.
- **15019**: Oh, my. It seems that creating the $0 caused a reduction in the Craftsmanship of the $1.
- **15020**: That's not a problem to upgrade the $1, but if you need to make another $0, you'd have to increase the Craftsmanship again of course.
- **15021**: Although, I really doubt you'd ever lose such a valuable item and need to make another one.
- **15022**: Impossible. You're telling me you lost the $0?
- **15023**: I guess these things happen. Okay, let me see the shield. I'll make you another $0.
- **15024**: You're a top quality craftsman. You really should take better care of your ingredients.
- **15025**: I see you made the upgrade. Now, let me see what you've got there.
- **15026**: Hmm... The design has changed, and I can feel its power somewhat. Of course, it's nowhere near complete yet.
- **15027**: It's said that you can only bring out the shield's true potential by crafting with it multiple times.
- **15028**: Oh, that's right. I'm supposed to place some kind of mark on the shield once it's done. Give me just a moment.
- **15029**: That should do it.
- **15030**: Just show this shield to Mewk Chorosap in Jeuno.
- **15031**: Oh, keep in mind that I'm constantly making deliveries to Puyutete. I hope you'll continue helping me out to educate the newer members of the guild.
- **15032**: Welcome. I suppose you're here to upgrade your shield.
- **15033**: Yes, she told me all about it. Here, let me get you the necessary recipe.
- **15034**: That's it.
- **15035**: Now, let's go over how to obtain the ingredients. First up is the $1.
- **15036**: Last time, you equipped the aspis while crafting in order to boost its Craftsmanship rating.
- **15037**: This time, you'll craft the items while equipping the $0 in order to increase its Craftsmanship.
- **15038**: Come bring it to me once it reaches 100% and I'll make the $1 for you.
- **15039**: Next up is the $2 and $3. I have given both of them to Puyutete, so you'll need to speak with her to get them.
- **15040**: The last ingredient is the $4. With the help of the A.M.A.N., I have prepared some Records of Eminence objectives for you.
- **15041**: Check the Records of Eminence menu for more details on the objectives. You'll receive the $4 once you've completed all of them.
- **15042**: That's it for the explanation about the ingredients. I look forward to seeing what this shield can become. Good luck to you.
- **15043**: Ahh, it looks like you've sufficiently raised the shield's Craftsmanship.
- **15044**: Now, wait just a moment while I prepare the $0 for you.
- **15045**: There we go. It really does have a nice shine to it, don't you think?
- **15046**: Oh, I thought this might happen. It seems creating the $0 causes the shield's Craftsmanship to drop.
- **15047**: If you lose this thing, you'll need to boost the shield's Craftsmanship all over again. Make sure you keep it in a safe place until you're ready to craft with it.
- **15048**: This is quite impressive. Even though it's not a piece of jewelry, it sure shines like one.
- **15049**: Yes, I can feel the immense power coming from this shield. I can't wait to see just how powerful it can become.
- **15050**: Here, let me mark the shield for when you show it to her.
- **15051**: That ought to do it. Show the shield to Mewk Chorosap when you get a chance.
- **15052**: Well, these things happen from time to time. I'll arrange for you to attempt the final objective one more time.
- **15053**: How are you doing? I suppose you're here to upgrade your shield? In that case, let me get you that recipe...
- **15054**: Huh? You already know the recipe? You just need to know about some of the ingredients?
- **15055**: Okay, for the remaining two ingredients, we have $4 and $5.
- **15056**: If you agree to help the guild deliver some orders, I'll be happy to give them to you.
- **15057**: Although, there's more to it than just making the delivery. You have to craft the items near the customer. They have a real eye for quality and want to see the work done in person.
- **15058**: There are some exceptions, such as items used for repairs, but most of them will need to be crafted in the presence of the customer.
- **15059**: You'll need to gather the materials needed to craft the items by yourself. You're free to use whatever method you like.
- **15060**: Oh yes. Did you know that we recently reached an agreement with the other guilds to sell some of their products?
- **15061**: They're not always cheap, but you can purchase them by speaking to each guild's crafting set vendor.
- **15062**: Of course, there's no guarantee that they'll sell you what you're looking for, so be sure to keep that in mind.
- **15063**: Once you've finished all of the deliveries, I'll give you the $4 and $5.
- **15064**: Okay, this is the [first/next/final] request.
- **15065**: Deliver $1 $0 to the merchant Honoi-Gomoi in $7.
- **15066**: Deliver $1 $0 to the merchant Honoi-Gomoi in $7.
- **15067**: Deliver $1 $0 to Naji the Mythril Musketeer in $7.
- **15068**: Deliver $1 $0 to Matoaka at the Gems by Kshama shop in $7.
- **15069**: You don't need to make this particular item near the customer.
- **15070**: Please report back to me once you've completed the request.
- **15071**: Let's see... The current task assigned to you is...
- **15072**: So, how is the delivery going?
- **15073**: Everything okay? [Everything's great!/It could be better...]
- **15074**: That's a relief. Please keep up the good work.
- **15075**: What's that? You want to abandon this task?
- **15076**: Will you see this through? [I'll do my best./I've had enough.]
- **15077**: That's unfortunate. Although, it's for the best if you can't give it your all. I guess I'll have to find another craftsman to help me with this customer.
- **15078**: Please try to get some rest. There'll be more work for you when you come back.
- **15079**: Ahh, it's good to see you're feeling better. I've already got another job lined up for you.
- **15080**: Ahh, it seems you have made the delivery to the customer.
- **15081**: That is the last of the deliveries. I'm really grateful for your help.
- **15082**: Okay, here are the $0 and $1 I promised you.
- **15083**: If, and I do mean if, you happen to lose one of them, you can always visit Puyutete and exchange guild points for another one.
- **15084**: Once this shield is finished, are you planning on making crystals instead? Haha... I'm just joking.
- **15085**: So this is what the shield looks like this time around, hm?
- **15086**: It's so bright... Your talent really is indisputable. I'm thinking our guild should start carrying your shields. They'd be one of our biggest sellers.
- **15087**: Our mutual friend has mentioned that the next upgrade should unlock the shield's true power. I'm excited to see just how powerful it can become.
- **15088**: Oh yes, that reminds me... I think you are skilled enough to use this new crafting technique I've developed. Please give it a try when you get a chance.
- **15089**: Welcome. It looks like we've reached the final step in this process. It's going to take every last bit of your knowledge.
- **15090**: You've heard which materials you need, right? If so, I'll explain how to get them.
- **15091**: First, the $2 and the $3...
- **15092**: You can trade crafter points for them. Go visit Puyutete when you have enough points.
- **15093**: Next, the procedure for the $1 is the same as it's always been. Just boost your shield's Craftsmanship to 100% and then come show it to me.
- **15094**: That concludes the explanation. Try building up the Craftsmanship first. Good luck to you.
- **15095**: You've probably already heard, but Mewk Chorosap wants this. Please deliver it to her for me.
- **15096**: Oh, hello. What can I do for you?
- **15097**: Ah, so that's why you're here. You're looking for the item that Tarutaru from Adoulin requested.
- **15098**: Unfortunately, I already sent it to Jeuno as per her request.
- **15099**: It should've arrived by now. You should check with Mewk Chorosap in Port Jeuno.
- **15100**: The strangest thing happened. That emblem you were looking for was just sitting on the counter here in the guild.
- **15101**: It doesn't seem as if it was returned. Oh, that's right. You need it for something, don't you. Here, consider it yours.
- **15102**: Oh! That must be it...
- **15103**: That's the finished shield. It truly is a work of art. I can feel it giving off a powerful aura.
- **15104**: Also, just you equipping this shield will be an excellent way to spread the word about our guild. This emblem will tell them all they need to know!
- **15105**: You have proven yourself to be quite talented. I think it's time I taught you this new technique.
- **15106**: Let us continue to create works of art that people will be proud to wear on their bodies.

## Events

### Event 65535

#### Metadata

| Field        | Value   |
|--------------|---------|
| Entrypoint   | 0x0000  |
| Data Size    | 1 bytes |
| Instructions | 1       |

```
      00 01 02 03 04 05 06 07  08 09 0A 0B 0C 0D 0E 0F
      -- -- -- -- -- -- -- --  -- -- -- -- -- -- -- --
0000: 00                                                .               
```

#### Opcodes

```
  0: 0x0000 [0x00] END_REQSTACK()
```

### Event 300

#### Metadata

| Field        | Value      |
|--------------|------------|
| Entrypoint   | 0x0001     |
| Data Size    | 1972 bytes |
| Instructions | 351        |

```
      00 01 02 03 04 05 06 07  08 09 0A 0B 0C 0D 0E 0F
      -- -- -- -- -- -- -- --  -- -- -- -- -- -- -- --
0000:    1E F0 FF FF 7F 41 00  80 00 80 06 10 00 00 41   .....A........A
0010: 01 80 01 80 06 10 01 00  41 02 80 02 80 06 10 02  ........A.......
0020: 00 03 03 00 02 80 03 07  00 03 80 03 08 00 04 80  ................
0030: 03 09 00 07 10 03 0A 00  08 10 03 0B 00 09 10 02  ................
0040: 0A 00 05 80 04 EE 01 06  03 10 66 01 80 F8 FF FF  ..........f.....
0050: 7F F0 FF FF 7F 74 6C 6B  30 1D 06 80 23 1D 07 80  .....tlk0...#...
0060: 23 1D 08 80 23 1D 09 80  23 66 01 80 F8 FF FF 7F  #...#...#f......
0070: F0 FF FF 7F 74 6C 6B 31  24 0A 80 03 80 0B 00 25  ....tlk1$......%
0080: 02 00 10 03 80 00 8D 00  21 00 01 AF 01 02 00 10  ........!.......
0090: 0B 80 00 A9 00 03 0C 00  0C 80 03 03 10 03 80 3C  ...............<
00A0: 0B 00 0B 80 0B 80 01 AF  01 02 00 10 05 80 00 C5  ................
00B0: 00 03 0C 00 0D 80 03 03  10 0B 80 3C 0B 00 05 80  ...........<....
00C0: 0B 80 01 AF 01 02 00 10  02 80 00 23 01 03 0C 00  ...........#....
00D0: 0E 80 03 03 10 05 80 3C  0B 00 02 80 0B 80 66 01  .......<......f.
00E0: 80 F8 FF FF 7F F0 FF FF  7F 74 6C 6B 30 1D 0F 80  .........tlk0...
00F0: 23 66 01 80 F8 FF FF 7F  F0 FF FF 7F 74 6C 6B 31  #f..........tlk1
0100: 66 01 80 F8 FF FF 7F F0  FF FF 7F 64 69 73 30 1D  f..........dis0.
0110: 10 80 23 53 F8 FF FF 7F  F0 FF FF 7F 64 69 73 30  ..#S........dis0
0120: 01 AF 01 02 00 10 11 80  00 3F 01 03 0C 00 12 80  .........?......
0130: 03 03 10 02 80 3C 0B 00  11 80 0B 80 01 AF 01 02  .....<..........
0140: 00 10 13 80 00 5B 01 03  0C 00 14 80 03 03 10 11  .....[..........
0150: 80 3C 0B 00 13 80 0B 80  01 AF 01 02 00 10 15 80  .<..............
0160: 00 77 01 03 0C 00 16 80  03 03 10 13 80 3C 0B 00  .w...........<..
0170: 15 80 0B 80 01 AF 01 02  00 10 17 80 00 93 01 03  ................
0180: 0C 00 18 80 03 03 10 15  80 3C 0B 00 17 80 0B 80  .........<......
0190: 01 AF 01 02 00 10 19 80  00 AF 01 03 0C 00 1A 80  ................
01A0: 03 03 10 17 80 3C 0B 00  19 80 0B 80 01 AF 01 48  .....<.........H
01B0: 1B 80 23 24 1C 80 03 80  03 80 25 02 00 10 03 80  ..#$......%.....
01C0: 00 C8 01 21 00 01 E1 01  02 00 10 0B 80 00 E1 01  ...!............
01D0: 42 03 01 10 0C 00 43 00  43 01 0C 0A 00 2E 01 E1  B.....C.C.......
01E0: 01 02 0A 00 05 80 04 EC  01 01 78 00 21 00 3E 05  ..........x.!.>.
01F0: 10 02 80 05 05 02 04 10  1D 80 03 F8 04 07 03 10  ................
0200: 05 80 02 03 10 04 10 03  17 02 1A 92 08 1D 1E 80  ................
0210: 23 1A A4 08 01 F5 04 03  0D 00 09 00 14 0D 00 01  #...............
0220: 80 07 0D 00 1F 80 02 04  10 0D 00 00 47 02 1D 20  ............G.. 
0230: 80 23 1A 92 08 1D 21 80  23 1D 22 80 23 1A A4 08  .#....!.#.".#...
0240: 1D 23 80 23 01 F5 04 02  04 10 24 80 00 3D 03 02  .#.#......$..=..
0250: 00 00 0B 80 00 E9 02 02  02 00 0B 80 00 D3 02 02  ................
0260: 01 00 0B 80 00 95 02 03  04 10 25 80 1A 92 08 1D  ..........%.....
0270: 26 80 23 1A A4 08 03 04  00 24 80 03 05 00 00 80  &.#......$......
0280: 03 06 00 25 80 1A 5D 05  1A 92 08 1D 27 80 23 1A  ...%..].....'.#.
0290: A4 08 01 D0 02 42 03 03  10 28 80 1A 92 08 1D 29  .....B...(.....)
02A0: 80 23 03 04 10 25 80 1D  2A 80 23 1A A4 08 03 04  .#...%..*.#.....
02B0: 00 24 80 03 05 00 00 80  03 06 00 25 80 1A 5D 05  .$.........%..].
02C0: 1A 92 08 1D 27 80 23 1A  A4 08 03 01 10 02 80 2E  ....'.#.........
02D0: 01 E6 02 03 03 10 28 80  1A 92 08 1D 2B 80 23 1D  ......(.....+.#.
02E0: 2C 80 23 1A A4 08 01 3A  03 03 02 10 03 80 1A 92  ,.#....:........
02F0: 08 1D 2D 80 23 1A A4 08  24 2E 80 03 80 03 80 25  ..-.#...$......%
0300: 02 00 10 03 80 00 25 03  42 03 03 10 28 80 1A 92  ......%.B...(...
0310: 08 1D 2F 80 23 1D 2C 80  23 1A A4 08 03 01 10 05  ../.#.,.#.......
0320: 80 2E 01 3A 03 02 00 10  0B 80 00 3A 03 1A 92 08  ...:.......:....
0330: 1D 30 80 23 1A A4 08 01  3A 03 01 F5 04 02 04 10  .0.#....:.......
0340: 24 80 02 E7 04 02 00 00  0B 80 00 03 04 02 02 00  $...............
0350: 0B 80 00 00 04 02 01 00  0B 80 00 FD 03 03 02 10  ................
0360: 04 10 08 02 10 24 80 15  02 10 01 80 02 02 10 0B  .....$..........
0370: 80 80 98 03 03 04 10 31  80 1A 92 08 1D 26 80 23  .......1.....&.#
0380: 1A A4 08 03 04 00 1D 80  03 05 00 01 80 03 06 00  ................
0390: 31 80 1A 5D 05 01 F0 03  02 02 10 05 80 80 C4 03  1..]............
03A0: 03 04 10 32 80 1A 92 08  1D 26 80 23 1A A4 08 03  ...2.....&.#....
03B0: 04 00 33 80 03 05 00 31  80 03 06 00 32 80 1A 5D  ..3....1....2..]
03C0: 05 01 F0 03 02 02 10 02  80 80 F0 03 03 04 10 34  ...............4
03D0: 80 1A 92 08 1D 26 80 23  1A A4 08 03 04 00 35 80  .....&.#......5.
03E0: 03 05 00 32 80 03 06 00  34 80 1A 5D 05 01 F0 03  ...2....4..]....
03F0: 1A 92 08 1D 27 80 23 1A  A4 08 01 FD 03 01 00 04  ....'.#.........
0400: 01 E4 04 02 02 00 0B 80  00 E4 04 03 02 10 04 10  ................
0410: 08 02 10 24 80 15 02 10  01 80 1A 92 08 1D 2D 80  ...$..........-.
0420: 23 1A A4 08 24 2E 80 03  80 03 80 25 02 00 10 03  #...$......%....
0430: 80 00 CC 04 42 02 02 10  0B 80 80 61 04 03 04 10  ....B......a....
0440: 31 80 1A 92 08 1D 2A 80  23 1A A4 08 03 04 00 1D  1.....*.#.......
0450: 80 03 05 00 01 80 03 06  00 31 80 1A 5D 05 01 B9  .........1..]...
0460: 04 02 02 10 05 80 80 8D  04 03 04 10 32 80 1A 92  ............2...
0470: 08 1D 2A 80 23 1A A4 08  03 04 00 33 80 03 05 00  ..*.#......3....
0480: 31 80 03 06 00 32 80 1A  5D 05 01 B9 04 02 02 10  1....2..].......
0490: 02 80 80 B9 04 03 04 10  34 80 1A 92 08 1D 2A 80  ........4.....*.
04A0: 23 1A A4 08 03 04 00 35  80 03 05 00 32 80 03 06  #......5....2...
04B0: 00 34 80 1A 5D 05 01 B9  04 1A 92 08 1D 27 80 23  .4..]........'.#
04C0: 1A A4 08 03 01 10 11 80  2E 01 E1 04 02 00 10 0B  ................
04D0: 80 00 E1 04 1A 92 08 1D  30 80 23 1A A4 08 01 E1  ........0.#.....
04E0: 04 01 E4 04 01 F5 04 1A  92 08 1D 36 80 23 1D 37  ...........6.#.7
04F0: 80 23 1A A4 08 01 02 05  1A 92 08 1D 38 80 23 1A  .#..........8.#.
0500: A4 08 01 5B 05 03 08 10  02 80 1D 39 80 23 24 3A  ...[.......9.#$:
0510: 80 03 80 03 80 25 02 00  10 03 80 00 46 05 1A AA  .....%......F...
0520: 08 1D 3B 80 23 1D 3C 80  23 1A BC 08 1A 92 08 1D  ..;.#.<.#.......
0530: 3D 80 23 1D 3E 80 23 1A  A4 08 1D 3F 80 23 03 01  =.#.>.#....?.#..
0540: 10 0B 80 01 5B 05 02 00  10 0B 80 00 5B 05 1A 92  ....[.......[...
0550: 08 1D 40 80 23 1A A4 08  01 5B 05 21 00 8C 02 03  ..@.#....[.!....
0560: 00 04 00 05 00 07 00 08  00 8C 01 02 06 00 02 10  ................
0570: C0 7E 05 03 06 00 03 80  01 B0 06 01 B0 06 02 06  .~..............
0580: 00 03 10 C0 91 05 03 06  00 0B 80 01 B0 06 01 B0  ................
0590: 06 02 06 00 04 10 C0 A4  05 03 06 00 05 80 01 B0  ................
05A0: 06 01 B0 06 02 06 00 05  10 C0 B7 05 03 06 00 02  ................
05B0: 80 01 B0 06 01 B0 06 02  06 00 06 10 C0 CA 05 03  ................
05C0: 06 00 11 80 01 B0 06 01  B0 06 02 06 00 07 10 C0  ................
05D0: DD 05 03 06 00 13 80 01  B0 06 01 B0 06 02 06 00  ................
05E0: 08 10 C0 F0 05 03 06 00  15 80 01 B0 06 01 B0 06  ................
05F0: 02 06 00 09 10 C0 03 06  03 06 00 17 80 01 B0 06  ................
0600: 01 B0 06 02 06 00 00 17  C0 16 06 03 06 00 19 80  ................
0610: 01 B0 06 01 B0 06 02 06  00 01 17 C0 29 06 03 06  ............)...
0620: 00 00 80 01 B0 06 01 B0  06 02 06 00 02 17 C0 3C  ...............<
0630: 06 03 06 00 01 80 01 B0  06 01 B0 06 02 06 00 03  ................
0640: 17 C0 4F 06 03 06 00 31  80 01 B0 06 01 B0 06 02  ..O....1........
0650: 06 00 04 17 C0 62 06 03  06 00 32 80 01 B0 06 01  .....b....2.....
0660: B0 06 02 06 00 05 17 C0  75 06 03 06 00 34 80 01  ........u....4..
0670: B0 06 01 B0 06 02 06 00  06 17 C0 88 06 03 06 00  ................
0680: 41 80 01 B0 06 01 B0 06  02 06 00 07 17 C0 9B 06  A...............
0690: 03 06 00 42 80 01 B0 06  01 B0 06 02 08 17 03 80  ...B............
06A0: 01 B0 06 07 07 00 04 80  07 08 00 04 80 01 5D 05  ..............].
06B0: 07 06 00 07 00 8C 03 03  00 04 00 05 00 06 00 8C  ................
06C0: 01 07 44 10 43 80 03 08  10 03 00 03 03 10 41 10  ..D.C.........A.
06D0: 03 04 10 42 10 03 05 10  43 10 03 06 10 44 10 03  ...B....C....D..
06E0: 07 10 55 10 02 07 10 03  80 00 F3 06 48 44 80 23  ..U.........HD.#
06F0: 01 F7 06 48 45 80 23 03  02 10 45 10 03 03 10 46  ...HE.#...E....F
0700: 10 03 04 10 47 10 03 05  10 48 10 03 06 10 4D 10  ....G....H....M.
0710: 03 07 10 4E 10 03 08 10  4F 10 03 09 10 50 10 02  ...N....O....P..
0720: 07 10 03 80 00 2E 07 48  46 80 23 01 B4 07 02 08  .......HF.#.....
0730: 10 03 80 00 3D 07 48 47  80 23 01 B4 07 02 09 10  ....=.HG.#......
0740: 03 80 00 4C 07 48 48 80  23 01 B4 07 48 49 80 23  ...L.HH.#...HI.#
0750: 03 02 10 49 10 03 03 10  4A 10 03 04 10 4B 10 03  ...I....J....K..
0760: 05 10 4C 10 03 06 10 51  10 03 07 10 52 10 03 08  ..L....Q....R...
0770: 10 53 10 03 09 10 54 10  02 06 10 03 80 00 83 07  .S....T.........
0780: 01 B4 07 02 07 10 03 80  00 92 07 48 46 80 23 01  ...........HF.#.
0790: B4 07 02 08 10 03 80 00  A1 07 48 47 80 23 01 B4  ..........HG.#..
07A0: 07 02 09 10 03 80 00 B0  07 48 48 80 23 01 B4 07  .........HH.#...
07B0: 48 49 80 23 1B                                    HI.#.           
```

#### Opcodes

```
  0: 0x0001 [0x1E] EventEntity looks at LocalPlayer and starts talking
  1: 0x0006 [0x41] ExtData[1]->WorkLocal[0] = Work_Zone[6] (bits 9*-9*)
  2: 0x000F [0x41] ExtData[1]->WorkLocal[1] = Work_Zone[6] (bits 10*-10*)
  3: 0x0018 [0x41] ExtData[1]->WorkLocal[2] = Work_Zone[6] (bits 3*-3*)
  4: 0x0021 [0x03] ExtData[1]->WorkLocal[3] = 3*
  5: 0x0026 [0x03] ExtData[1]->WorkLocal[7] = 0*
  6: 0x002B [0x03] ExtData[1]->WorkLocal[8] = 16*
  7: 0x0030 [0x03] ExtData[1]->WorkLocal[9] = Work_Zone[7]
  8: 0x0035 [0x03] ExtData[1]->WorkLocal[10] = Work_Zone[8]
  9: 0x003A [0x03] ExtData[1]->WorkLocal[11] = Work_Zone[9]
 10: 0x003F [0x02] IF !(ExtData[1]->WorkLocal[10] < 2*) GOTO 0x01EE
 11: 0x0047 [0x06] Work_Zone[3] = 0
 12: 0x004A [0x66] LOAD_EXT_SCHEDULER_MAIN: Load scheduler "tlk0" with entities [EventEntity, LocalPlayer], work=10*
 13: 0x0059 [0x1D] PRINT_EVENT_MESSAGE(message_id=7238*)
    → "<Player>. Is it true that you've been recognized as [an artisan/an adept/a veteran] at a guild other than our own?"
 14: 0x005C [0x23] WAIT_FOR_DIALOG_INTERACTION
 15: 0x005D [0x1D] PRINT_EVENT_MESSAGE(message_id=7239*)
    → "I must say, I struggle to understand this decision. To put it bluntly, you do both yourself and those who would appreciate your work a disservice by not devoting your efforts to your one true calling."
 16: 0x0060 [0x23] WAIT_FOR_DIALOG_INTERACTION
 17: 0x0061 [0x1D] PRINT_EVENT_MESSAGE(message_id=7240*)
    → "Fortunately, it is not too late to reconsider. What would you say to giving up your [artisan/adept/veteran] status elsewhere?"
 18: 0x0064 [0x23] WAIT_FOR_DIALOG_INTERACTION
 19: 0x0065 [0x1D] PRINT_EVENT_MESSAGE(message_id=7241*)
    → "It is a simple enough process--I can even inform other guildmasters of your decision to save you the trouble."
 20: 0x0068 [0x23] WAIT_FOR_DIALOG_INTERACTION
 21: 0x0069 [0x66] LOAD_EXT_SCHEDULER_MAIN: Load scheduler "tlk1" with entities [EventEntity, LocalPlayer], work=10*
 22: 0x0078 [0x24] CREATE_DIALOG(message_id=7161*, default_option=0*, option_flags=ExtData[1]->WorkLocal[11])
    → "Renounce your rank at which guild? [None./Carpenters'./Blacksmiths'./Goldsmiths'./Weavers'./Tanners'./Boneworkers'./Alchemists'./Culinarians'.]"
 23: 0x007F [0x25] WAIT_DIALOG_SELECT()
 24: 0x0080 [0x02] IF !(Work_Zone[0] == 0*) GOTO 0x008D
 25: 0x0088 [0x21] END_EVENT
 26: 0x0089 [0x00] END_REQSTACK()

SUBROUTINE_01AF:
 27: 0x01AF [0x48] [System] [7162*]:
    → "If you proceed, your rank in the [Carpenters'/Blacksmiths'/Goldsmiths'/Weavers'/Tanners'/Boneworkers'/Alchemists'/Culinarians'] Guild will return to that of [craftsman/artisan/adept], and your skill value will revert to the maximum for that level. This procedure cannot be undone, so please consider your decision carefully."
 28: 0x01B2 [0x23] WAIT_FOR_DIALOG_INTERACTION
 29: 0x01B3 [0x24] CREATE_DIALOG(message_id=7163*, default_option=0*, option_flags=0*)
    → "Renounce your rank as a [Carpenter/Blacksmith/Goldsmith/Weaver/Tanner/Boneworker/Alchemist/Culinarian]? [No, retain./Yes, renounce.]"
 30: 0x01BA [0x25] WAIT_DIALOG_SELECT()
 31: 0x01BB [0x02] IF !(Work_Zone[0] == 0*) GOTO 0x01C8
 32: 0x01C3 [0x21] END_EVENT
 33: 0x01C4 [0x00] END_REQSTACK()

SUBROUTINE_01E1:
 34: 0x01E1 [0x02] IF !(ExtData[1]->WorkLocal[10] < 2*) GOTO 0x01EC
 35: 0x01E9 [0x01] GOTO 0x0078
 36: 0x01EC [0x21] END_EVENT
 37: 0x01ED [0x00] END_REQSTACK()
 38: 0x01EE [0x3E] IF !(Work_Zone[5] bit 3*) GOTO 0x0505
 39: 0x01F5 [0x02] IF !(Work_Zone[4] >= 110*) GOTO 0x04F8
 40: 0x01FD [0x07] Work_Zone[3] += 2*
 41: 0x0202 [0x02] IF !(Work_Zone[3] >= Work_Zone[4]) GOTO 0x0217
 42: 0x020A [0x1A] CALL_SUBROUTINE(address=0x0892)
 43: 0x020D [0x1D] PRINT_EVENT_MESSAGE(message_id=7172*)
    → "The long history of goldsmithing tells the never-ending tale of man's pursuit for beauty. That history will continue as long as gold glitters. So, take your time, and start slowly."
 44: 0x0210 [0x23] WAIT_FOR_DIALOG_INTERACTION
 45: 0x0211 [0x1A] CALL_SUBROUTINE(address=0x08A4)
 46: 0x0214 [0x01] GOTO 0x04F5
 47: 0x0217 [0x03] ExtData[1]->WorkLocal[13] = ExtData[1]->WorkLocal[9]
 48: 0x021C [0x14] ExtData[1]->WorkLocal[13] *= 10*
 49: 0x0221 [0x07] ExtData[1]->WorkLocal[13] += 70*
 50: 0x0226 [0x02] IF !(Work_Zone[4] == ExtData[1]->WorkLocal[13]) GOTO 0x0247
 51: 0x022E [0x1D] PRINT_EVENT_MESSAGE(message_id=7233*)
    → "I see you have matured into a fine goldsmith. Perhaps it is time you entered the leagues of the greats. Try your hand at $0."
 52: 0x0231 [0x23] WAIT_FOR_DIALOG_INTERACTION
 53: 0x0232 [0x1A] CALL_SUBROUTINE(address=0x0892)
 54: 0x0235 [0x1D] PRINT_EVENT_MESSAGE(message_id=7234*)
    → "If you are able to complete this task, you will be worthy of the title of [artisan/adept/veteran]."
 55: 0x0238 [0x23] WAIT_FOR_DIALOG_INTERACTION
 56: 0x0239 [0x1D] PRINT_EVENT_MESSAGE(message_id=7235*)
    → "However, you must realize that with the title of [artisan/adept/veteran] come certain responsibilities. More will be asked of you."
 57: 0x023C [0x23] WAIT_FOR_DIALOG_INTERACTION
 58: 0x023D [0x1A] CALL_SUBROUTINE(address=0x08A4)
 59: 0x0240 [0x1D] PRINT_EVENT_MESSAGE(message_id=7236*)
    → "I do not mind you becoming [an artisan/an adept/a veteran] in another guild, but remember that your status among other goldsmiths may fall..."
 60: 0x0243 [0x23] WAIT_FOR_DIALOG_INTERACTION
 61: 0x0244 [0x01] GOTO 0x04F5
 62: 0x0247 [0x02] IF !(Work_Zone[4] == 100*) GOTO 0x033D
 63: 0x024F [0x02] IF !(ExtData[1]->WorkLocal[0] == 1*) GOTO 0x02E9
 64: 0x0257 [0x02] IF !(ExtData[1]->WorkLocal[2] == 1*) GOTO 0x02D3
 65: 0x025F [0x02] IF !(ExtData[1]->WorkLocal[1] == 1*) GOTO 0x0295
 66: 0x0267 [0x03] Work_Zone[4] = 11060*
 67: 0x026C [0x1A] CALL_SUBROUTINE(address=0x0892)
 68: 0x026F [0x1D] PRINT_EVENT_MESSAGE(message_id=7229*)
    → "<Sigh>... I thought I told you to take notes. I am loath to repeat myself, but will make an exception this once. The ingredients for $2 are..."
 69: 0x0272 [0x23] WAIT_FOR_DIALOG_INTERACTION
 70: 0x0273 [0x1A] CALL_SUBROUTINE(address=0x08A4)
 71: 0x0276 [0x03] ExtData[1]->WorkLocal[4] = 100*
 72: 0x027B [0x03] ExtData[1]->WorkLocal[5] = 9*
 73: 0x0280 [0x03] ExtData[1]->WorkLocal[6] = 11060*
 74: 0x0285 [0x1A] CALL_SUBROUTINE(address=0x055D)
 75: 0x0288 [0x1A] CALL_SUBROUTINE(address=0x0892)
 76: 0x028B [0x1D] PRINT_EVENT_MESSAGE(message_id=7228*)
    → "Finally, you'll want to remember to sign your masterwork. This is not merely a guild regulation, but also speaks to the pride that a goldsmith takes in [his/her] work."
 77: 0x028E [0x23] WAIT_FOR_DIALOG_INTERACTION
 78: 0x028F [0x1A] CALL_SUBROUTINE(address=0x08A4)
 79: 0x0292 [0x01] GOTO 0x02D0
 80: 0x0295 [0x42] SET_CLI_EVENT_CANCEL_DATA()
 81: 0x0296 [0x03] Work_Zone[3] = 2003*
 82: 0x029B [0x1A] CALL_SUBROUTINE(address=0x0892)
 83: 0x029E [0x1D] PRINT_EVENT_MESSAGE(message_id=7226*)
    → "Ah, you've returned. And that look of confidence on your face tells me you've already grasped the contents of $6."
 84: 0x02A1 [0x23] WAIT_FOR_DIALOG_INTERACTION
 85: 0x02A2 [0x03] Work_Zone[4] = 11060*
 86: 0x02A7 [0x1D] PRINT_EVENT_MESSAGE(message_id=7227*)
    → "Very well, then. Your task is to craft $2. Now I'll only say this once, so I encourage you to take notes. The ingredients you will need are..."
 87: 0x02AA [0x23] WAIT_FOR_DIALOG_INTERACTION
 88: 0x02AB [0x1A] CALL_SUBROUTINE(address=0x08A4)
 89: 0x02AE [0x03] ExtData[1]->WorkLocal[4] = 100*
 90: 0x02B3 [0x03] ExtData[1]->WorkLocal[5] = 9*
 91: 0x02B8 [0x03] ExtData[1]->WorkLocal[6] = 11060*
 92: 0x02BD [0x1A] CALL_SUBROUTINE(address=0x055D)
 93: 0x02C0 [0x1A] CALL_SUBROUTINE(address=0x0892)
 94: 0x02C3 [0x1D] PRINT_EVENT_MESSAGE(message_id=7228*)
    → "Finally, you'll want to remember to sign your masterwork. This is not merely a guild regulation, but also speaks to the pride that a goldsmith takes in [his/her] work."
 95: 0x02C6 [0x23] WAIT_FOR_DIALOG_INTERACTION
 96: 0x02C7 [0x1A] CALL_SUBROUTINE(address=0x08A4)
 97: 0x02CA [0x03] Work_Zone[1] = 3*
 98: 0x02CF [0x2E] SET_CLI_EVENT_CANCEL_FLAGS()

SUBROUTINE_02D0:
 99: 0x02D0 [0x01] GOTO 0x02E6
100: 0x02D3 [0x03] Work_Zone[3] = 2003*
101: 0x02D8 [0x1A] CALL_SUBROUTINE(address=0x0892)
102: 0x02DB [0x1D] PRINT_EVENT_MESSAGE(message_id=7225*)
    → "First, you'll want to speak to Ellard and obtain a copy of $6."
103: 0x02DE [0x23] WAIT_FOR_DIALOG_INTERACTION
104: 0x02DF [0x1D] PRINT_EVENT_MESSAGE(message_id=7223*)
    → "Some guild points will be required for the transaction, but that should prove no obstacle for your considerable talents and devotion."
105: 0x02E2 [0x23] WAIT_FOR_DIALOG_INTERACTION
106: 0x02E3 [0x1A] CALL_SUBROUTINE(address=0x08A4)

SUBROUTINE_02E6:
107: 0x02E6 [0x01] GOTO 0x033A
108: 0x02E9 [0x03] Work_Zone[2] = 0*
109: 0x02EE [0x1A] CALL_SUBROUTINE(address=0x0892)
110: 0x02F1 [0x1D] PRINT_EVENT_MESSAGE(message_id=7220*)
    → "Well, if it isn't our very own [veteran/expert/authority/luminary/master]. Quite some time has passed since you achieved your current rank. Are you perhaps ready to strive for greater heights?"
111: 0x02F4 [0x23] WAIT_FOR_DIALOG_INTERACTION
112: 0x02F5 [0x1A] CALL_SUBROUTINE(address=0x08A4)
113: 0x02F8 [0x24] CREATE_DIALOG(message_id=7221*, default_option=0*, option_flags=0*)
    → "Strive for greater heights? [Certainly!/Maybe later...]"
114: 0x02FF [0x25] WAIT_DIALOG_SELECT()
115: 0x0300 [0x02] IF !(Work_Zone[0] == 0*) GOTO 0x0325
116: 0x0308 [0x42] SET_CLI_EVENT_CANCEL_DATA()
117: 0x0309 [0x03] Work_Zone[3] = 2003*
118: 0x030E [0x1A] CALL_SUBROUTINE(address=0x0892)
119: 0x0311 [0x1D] PRINT_EVENT_MESSAGE(message_id=7222*)
    → "Excellent! That's just the answer I was hoping to hear from our rising star. First, you'll want to speak to Ellard and obtain yourself $6."
120: 0x0314 [0x23] WAIT_FOR_DIALOG_INTERACTION
121: 0x0315 [0x1D] PRINT_EVENT_MESSAGE(message_id=7223*)
    → "Some guild points will be required for the transaction, but that should prove no obstacle for your considerable talents and devotion."
122: 0x0318 [0x23] WAIT_FOR_DIALOG_INTERACTION
123: 0x0319 [0x1A] CALL_SUBROUTINE(address=0x08A4)
124: 0x031C [0x03] Work_Zone[1] = 2*
125: 0x0321 [0x2E] SET_CLI_EVENT_CANCEL_FLAGS()
126: 0x0322 [0x01] GOTO 0x033A
127: 0x0325 [0x02] IF !(Work_Zone[0] == 1*) GOTO 0x033A
128: 0x032D [0x1A] CALL_SUBROUTINE(address=0x0892)
129: 0x0330 [0x1D] PRINT_EVENT_MESSAGE(message_id=7224*)
    → "A shame that you would allow your potential to go to waste. But I will hold no grudges. Should you ever have a change of heart, simply say the word."
130: 0x0333 [0x23] WAIT_FOR_DIALOG_INTERACTION
131: 0x0334 [0x1A] CALL_SUBROUTINE(address=0x08A4)
132: 0x0337 [0x01] GOTO 0x033A

SUBROUTINE_033A:
133: 0x033A [0x01] GOTO 0x04F5
134: 0x033D [0x02] IF !(Work_Zone[4] <= 100*) GOTO 0x04E7
135: 0x0345 [0x02] IF !(ExtData[1]->WorkLocal[0] == 1*) GOTO 0x0403
136: 0x034D [0x02] IF !(ExtData[1]->WorkLocal[2] == 1*) GOTO 0x0400
137: 0x0355 [0x02] IF !(ExtData[1]->WorkLocal[1] == 1*) GOTO 0x03FD
138: 0x035D [0x03] Work_Zone[2] = Work_Zone[4]
139: 0x0362 [0x08] Work_Zone[2] -= 100*
140: 0x0367 [0x15] Work_Zone[2] /= 10*
141: 0x036C [0x02] IF !(Work_Zone[2] == 1*) GOTO 0x0398
142: 0x0374 [0x03] Work_Zone[4] = 11*
143: 0x0379 [0x1A] CALL_SUBROUTINE(address=0x0892)
144: 0x037C [0x1D] PRINT_EVENT_MESSAGE(message_id=7229*)
    → "<Sigh>... I thought I told you to take notes. I am loath to repeat myself, but will make an exception this once. The ingredients for $2 are..."
145: 0x037F [0x23] WAIT_FOR_DIALOG_INTERACTION
146: 0x0380 [0x1A] CALL_SUBROUTINE(address=0x08A4)
147: 0x0383 [0x03] ExtData[1]->WorkLocal[4] = 110*
148: 0x0388 [0x03] ExtData[1]->WorkLocal[5] = 10*
149: 0x038D [0x03] ExtData[1]->WorkLocal[6] = 11*
150: 0x0392 [0x1A] CALL_SUBROUTINE(address=0x055D)
151: 0x0395 [0x01] GOTO 0x03F0
152: 0x0398 [0x02] IF !(Work_Zone[2] == 2*) GOTO 0x03C4
153: 0x03A0 [0x03] Work_Zone[4] = 12*
154: 0x03A5 [0x1A] CALL_SUBROUTINE(address=0x0892)
155: 0x03A8 [0x1D] PRINT_EVENT_MESSAGE(message_id=7229*)
    → "<Sigh>... I thought I told you to take notes. I am loath to repeat myself, but will make an exception this once. The ingredients for $2 are..."
156: 0x03AB [0x23] WAIT_FOR_DIALOG_INTERACTION
157: 0x03AC [0x1A] CALL_SUBROUTINE(address=0x08A4)
158: 0x03AF [0x03] ExtData[1]->WorkLocal[4] = 120*
159: 0x03B4 [0x03] ExtData[1]->WorkLocal[5] = 11*
160: 0x03B9 [0x03] ExtData[1]->WorkLocal[6] = 12*
161: 0x03BE [0x1A] CALL_SUBROUTINE(address=0x055D)
162: 0x03C1 [0x01] GOTO 0x03F0
163: 0x03C4 [0x02] IF !(Work_Zone[2] == 3*) GOTO 0x03F0
164: 0x03CC [0x03] Work_Zone[4] = 13*
165: 0x03D1 [0x1A] CALL_SUBROUTINE(address=0x0892)
166: 0x03D4 [0x1D] PRINT_EVENT_MESSAGE(message_id=7229*)
    → "<Sigh>... I thought I told you to take notes. I am loath to repeat myself, but will make an exception this once. The ingredients for $2 are..."
167: 0x03D7 [0x23] WAIT_FOR_DIALOG_INTERACTION
168: 0x03D8 [0x1A] CALL_SUBROUTINE(address=0x08A4)
169: 0x03DB [0x03] ExtData[1]->WorkLocal[4] = 130*
170: 0x03E0 [0x03] ExtData[1]->WorkLocal[5] = 12*
171: 0x03E5 [0x03] ExtData[1]->WorkLocal[6] = 13*
172: 0x03EA [0x1A] CALL_SUBROUTINE(address=0x055D)
173: 0x03ED [0x01] GOTO 0x03F0

SUBROUTINE_03F0:
174: 0x03F0 [0x1A] CALL_SUBROUTINE(address=0x0892)
175: 0x03F3 [0x1D] PRINT_EVENT_MESSAGE(message_id=7228*)
    → "Finally, you'll want to remember to sign your masterwork. This is not merely a guild regulation, but also speaks to the pride that a goldsmith takes in [his/her] work."
176: 0x03F6 [0x23] WAIT_FOR_DIALOG_INTERACTION
177: 0x03F7 [0x1A] CALL_SUBROUTINE(address=0x08A4)
178: 0x03FA [0x01] GOTO 0x03FD

SUBROUTINE_03FD:
179: 0x03FD [0x01] GOTO 0x0400

SUBROUTINE_0400:
180: 0x0400 [0x01] GOTO 0x04E4
181: 0x0403 [0x02] IF !(ExtData[1]->WorkLocal[2] == 1*) GOTO 0x04E4
182: 0x040B [0x03] Work_Zone[2] = Work_Zone[4]
183: 0x0410 [0x08] Work_Zone[2] -= 100*
184: 0x0415 [0x15] Work_Zone[2] /= 10*
185: 0x041A [0x1A] CALL_SUBROUTINE(address=0x0892)
186: 0x041D [0x1D] PRINT_EVENT_MESSAGE(message_id=7220*)
    → "Well, if it isn't our very own [veteran/expert/authority/luminary/master]. Quite some time has passed since you achieved your current rank. Are you perhaps ready to strive for greater heights?"
187: 0x0420 [0x23] WAIT_FOR_DIALOG_INTERACTION
188: 0x0421 [0x1A] CALL_SUBROUTINE(address=0x08A4)
189: 0x0424 [0x24] CREATE_DIALOG(message_id=7221*, default_option=0*, option_flags=0*)
    → "Strive for greater heights? [Certainly!/Maybe later...]"
190: 0x042B [0x25] WAIT_DIALOG_SELECT()
191: 0x042C [0x02] IF !(Work_Zone[0] == 0*) GOTO 0x04CC
192: 0x0434 [0x42] SET_CLI_EVENT_CANCEL_DATA()
193: 0x0435 [0x02] IF !(Work_Zone[2] == 1*) GOTO 0x0461
194: 0x043D [0x03] Work_Zone[4] = 11*
195: 0x0442 [0x1A] CALL_SUBROUTINE(address=0x0892)
196: 0x0445 [0x1D] PRINT_EVENT_MESSAGE(message_id=7227*)
    → "Very well, then. Your task is to craft $2. Now I'll only say this once, so I encourage you to take notes. The ingredients you will need are..."
197: 0x0448 [0x23] WAIT_FOR_DIALOG_INTERACTION
198: 0x0449 [0x1A] CALL_SUBROUTINE(address=0x08A4)
199: 0x044C [0x03] ExtData[1]->WorkLocal[4] = 110*
200: 0x0451 [0x03] ExtData[1]->WorkLocal[5] = 10*
201: 0x0456 [0x03] ExtData[1]->WorkLocal[6] = 11*
202: 0x045B [0x1A] CALL_SUBROUTINE(address=0x055D)
203: 0x045E [0x01] GOTO 0x04B9
204: 0x0461 [0x02] IF !(Work_Zone[2] == 2*) GOTO 0x048D
205: 0x0469 [0x03] Work_Zone[4] = 12*
206: 0x046E [0x1A] CALL_SUBROUTINE(address=0x0892)
207: 0x0471 [0x1D] PRINT_EVENT_MESSAGE(message_id=7227*)
    → "Very well, then. Your task is to craft $2. Now I'll only say this once, so I encourage you to take notes. The ingredients you will need are..."
208: 0x0474 [0x23] WAIT_FOR_DIALOG_INTERACTION
209: 0x0475 [0x1A] CALL_SUBROUTINE(address=0x08A4)
210: 0x0478 [0x03] ExtData[1]->WorkLocal[4] = 120*
211: 0x047D [0x03] ExtData[1]->WorkLocal[5] = 11*
212: 0x0482 [0x03] ExtData[1]->WorkLocal[6] = 12*
213: 0x0487 [0x1A] CALL_SUBROUTINE(address=0x055D)
214: 0x048A [0x01] GOTO 0x04B9
215: 0x048D [0x02] IF !(Work_Zone[2] == 3*) GOTO 0x04B9
216: 0x0495 [0x03] Work_Zone[4] = 13*
217: 0x049A [0x1A] CALL_SUBROUTINE(address=0x0892)
218: 0x049D [0x1D] PRINT_EVENT_MESSAGE(message_id=7227*)
    → "Very well, then. Your task is to craft $2. Now I'll only say this once, so I encourage you to take notes. The ingredients you will need are..."
219: 0x04A0 [0x23] WAIT_FOR_DIALOG_INTERACTION
220: 0x04A1 [0x1A] CALL_SUBROUTINE(address=0x08A4)
221: 0x04A4 [0x03] ExtData[1]->WorkLocal[4] = 130*
222: 0x04A9 [0x03] ExtData[1]->WorkLocal[5] = 12*
223: 0x04AE [0x03] ExtData[1]->WorkLocal[6] = 13*
224: 0x04B3 [0x1A] CALL_SUBROUTINE(address=0x055D)
225: 0x04B6 [0x01] GOTO 0x04B9

SUBROUTINE_04B9:
226: 0x04B9 [0x1A] CALL_SUBROUTINE(address=0x0892)
227: 0x04BC [0x1D] PRINT_EVENT_MESSAGE(message_id=7228*)
    → "Finally, you'll want to remember to sign your masterwork. This is not merely a guild regulation, but also speaks to the pride that a goldsmith takes in [his/her] work."
228: 0x04BF [0x23] WAIT_FOR_DIALOG_INTERACTION
229: 0x04C0 [0x1A] CALL_SUBROUTINE(address=0x08A4)
230: 0x04C3 [0x03] Work_Zone[1] = 4*
231: 0x04C8 [0x2E] SET_CLI_EVENT_CANCEL_FLAGS()
232: 0x04C9 [0x01] GOTO 0x04E1
233: 0x04CC [0x02] IF !(Work_Zone[0] == 1*) GOTO 0x04E1
234: 0x04D4 [0x1A] CALL_SUBROUTINE(address=0x0892)
235: 0x04D7 [0x1D] PRINT_EVENT_MESSAGE(message_id=7224*)
    → "A shame that you would allow your potential to go to waste. But I will hold no grudges. Should you ever have a change of heart, simply say the word."
236: 0x04DA [0x23] WAIT_FOR_DIALOG_INTERACTION
237: 0x04DB [0x1A] CALL_SUBROUTINE(address=0x08A4)
238: 0x04DE [0x01] GOTO 0x04E1

SUBROUTINE_04E1:
239: 0x04E1 [0x01] GOTO 0x04E4

SUBROUTINE_04E4:
240: 0x04E4 [0x01] GOTO 0x04F5
241: 0x04E7 [0x1A] CALL_SUBROUTINE(address=0x0892)
242: 0x04EA [0x1D] PRINT_EVENT_MESSAGE(message_id=7174*)
    → "It looks as if you are ready to take the next step in your goldsmithing career. Try your hand at $0."
243: 0x04ED [0x23] WAIT_FOR_DIALOG_INTERACTION
244: 0x04EE [0x1D] PRINT_EVENT_MESSAGE(message_id=7175*)
    → "Succeed, and I shall grace you with another gem of knowledge."
245: 0x04F1 [0x23] WAIT_FOR_DIALOG_INTERACTION
246: 0x04F2 [0x1A] CALL_SUBROUTINE(address=0x08A4)

SUBROUTINE_04F5:
247: 0x04F5 [0x01] GOTO 0x0502
248: 0x04F8 [0x1A] CALL_SUBROUTINE(address=0x0892)
249: 0x04FB [0x1D] PRINT_EVENT_MESSAGE(message_id=7173*)
    → "Do you remember your first accessory? Do you remember the person who wore it? No matter how skilled a goldsmith you become, you must never forget how you felt at that moment."
250: 0x04FE [0x23] WAIT_FOR_DIALOG_INTERACTION
251: 0x04FF [0x1A] CALL_SUBROUTINE(address=0x08A4)

SUBROUTINE_0502:
252: 0x0502 [0x01] GOTO 0x055B
253: 0x0505 [0x03] Work_Zone[8] = 3*
254: 0x050A [0x1D] PRINT_EVENT_MESSAGE(message_id=7165*)
    → "Ah, welcome, young [man/lady], to the Goldsmiths' Guild. This is a special association for those who work with silver, gold, gems, and all precious materials."
255: 0x050D [0x23] WAIT_FOR_DIALOG_INTERACTION
256: 0x050E [0x24] CREATE_DIALOG(message_id=7109*, default_option=0*, option_flags=0*)
    → "Join the [Fishermen's/Carpenters'/Blacksmiths'/Goldsmiths'/Weavers'/Tanners'/Boneworkers'/Alchemists'/Culinarians'] Guild? [Sign up./That's not why you're here.]"
257: 0x0515 [0x25] WAIT_DIALOG_SELECT()
258: 0x0516 [0x02] IF !(Work_Zone[0] == 0*) GOTO 0x0546
259: 0x051E [0x1A] CALL_SUBROUTINE(address=0x08AA)
260: 0x0521 [0x1D] PRINT_EVENT_MESSAGE(message_id=7167*)
    → "Wonderful... You are one of those...what do they call them...adventurers, are you not? I think we shall start you off with crystal synthesis."
261: 0x0524 [0x23] WAIT_FOR_DIALOG_INTERACTION
262: 0x0525 [0x1D] PRINT_EVENT_MESSAGE(message_id=7168*)
    → "I'm sure you already know, but crystals are a form of condensed energy. Using crystal synthesis draws the energy from the crystals, and uses that energy to convert matter into different forms."
263: 0x0528 [0x23] WAIT_FOR_DIALOG_INTERACTION
264: 0x0529 [0x1A] CALL_SUBROUTINE(address=0x08BC)
265: 0x052C [0x1A] CALL_SUBROUTINE(address=0x0892)
266: 0x052F [0x1D] PRINT_EVENT_MESSAGE(message_id=7169*)
    → "It sounds simple, but true works of art can only be made by forming an image of the item when you synthesize. The better the image, the better chances you have of getting a product worth keeping."
267: 0x0532 [0x23] WAIT_FOR_DIALOG_INTERACTION
268: 0x0533 [0x1D] PRINT_EVENT_MESSAGE(message_id=7170*)
    → "That's why professional goldsmiths such as myself can produce superior goods...but don't take it personally."
269: 0x0536 [0x23] WAIT_FOR_DIALOG_INTERACTION
270: 0x0537 [0x1A] CALL_SUBROUTINE(address=0x08A4)
271: 0x053A [0x1D] PRINT_EVENT_MESSAGE(message_id=7171*)
    → "Our guild does not prefer crystal synthesis to traditional methods, but if you ask the others here, I'm sure they will give you some good advice. They are all top-class artisans."
272: 0x053D [0x23] WAIT_FOR_DIALOG_INTERACTION
273: 0x053E [0x03] Work_Zone[1] = 1*
274: 0x0543 [0x01] GOTO 0x055B
275: 0x0546 [0x02] IF !(Work_Zone[0] == 1*) GOTO 0x055B
276: 0x054E [0x1A] CALL_SUBROUTINE(address=0x0892)
277: 0x0551 [0x1D] PRINT_EVENT_MESSAGE(message_id=7166*)
    → "If you have no interest in joining our selected few, then off with you. There are no guided tours here."
278: 0x0554 [0x23] WAIT_FOR_DIALOG_INTERACTION
279: 0x0555 [0x1A] CALL_SUBROUTINE(address=0x08A4)
280: 0x0558 [0x01] GOTO 0x055B

SUBROUTINE_055B:
281: 0x055B [0x21] END_EVENT
282: 0x055C [0x00] END_REQSTACK()

SUBROUTINE_055D:
283: 0x055D [0x8C] CRAFTING_HANDLER(mode=0x02) // Set recipe data
284: 0x0569 [0x8C] CRAFTING_HANDLER(mode=0x01) // End crafting session
285: 0x056B [0x02] IF !(ExtData[1]->WorkLocal[6] == Work_Zone[2]) GOTO 0x057E
286: 0x0573 [0x03] ExtData[1]->WorkLocal[6] = 0*
287: 0x0578 [0x01] GOTO 0x06B0

SUBROUTINE_06B0:
288: 0x06B0 [0x07] ExtData[1]->WorkLocal[6] += ExtData[1]->WorkLocal[7]
289: 0x06B5 [0x8C] CRAFTING_HANDLER(mode=0x03) // Get synthesis recipe
290: 0x06BF [0x8C] CRAFTING_HANDLER(mode=0x01) // End crafting session
291: 0x06C1 [0x07] Work_Zone[68] += 142*
292: 0x06C6 [0x03] Work_Zone[8] = ExtData[1]->WorkLocal[3]
293: 0x06CB [0x03] Work_Zone[3] = Work_Zone[65]
294: 0x06D0 [0x03] Work_Zone[4] = Work_Zone[66]
295: 0x06D5 [0x03] Work_Zone[5] = Work_Zone[67]
296: 0x06DA [0x03] Work_Zone[6] = Work_Zone[68]
297: 0x06DF [0x03] Work_Zone[7] = Work_Zone[85]
298: 0x06E4 [0x02] IF !(Work_Zone[7] == 0*) GOTO 0x06F3
299: 0x06EC [0x48] [System] [7115*]:
    → "Necessary skills: [Fishing/Woodworking/Smithing/Goldsmithing/Clothcraft/Leatherworking/Bonecraft/Alchemy/Cooking][ /, Woodworking/, Smithing/, Goldsmithing/, Clothcraft/, Leatherworking/, Bonecraft/, Alchemy/, Cooking][ /, Woodworking/, Smithing/, Goldsmithing/, Clothcraft/, Leatherworking/, Bonecraft/, Alchemy/, Cooking][ /, & Woodworking/, & Smithing/, & Goldsmithing/, & Clothcraft/, & Leatherworking/, & Bonecraft/, & Alchemy/, & Cooking] Necessary crystal: $4 Necessary items:"
300: 0x06EF [0x23] WAIT_FOR_DIALOG_INTERACTION
301: 0x06F0 [0x01] GOTO 0x06F7
302: 0x06F3 [0x48] [System] [7153*]:
    → "Necessary skills: [Fishing/Woodworking/Smithing/Goldsmithing/Clothcraft/Leatherworking/Bonecraft/Alchemy/Cooking][ /, Woodworking/, Smithing/, Goldsmithing/, Clothcraft/, Leatherworking/, Bonecraft/, Alchemy/, Cooking][ /, Woodworking/, Smithing/, Goldsmithing/, Clothcraft/, Leatherworking/, Bonecraft/, Alchemy/, Cooking][ /, & Woodworking/, & Smithing/, & Goldsmithing/, & Clothcraft/, & Leatherworking/, & Bonecraft/, & Alchemy/, & Cooking] Necessary crystal: $4 Necessary key item: $3 Necessary items:"
303: 0x06F6 [0x23] WAIT_FOR_DIALOG_INTERACTION

SUBROUTINE_06F7:
304: 0x06F7 [0x03] Work_Zone[2] = Work_Zone[69]
305: 0x06FC [0x03] Work_Zone[3] = Work_Zone[70]
306: 0x0701 [0x03] Work_Zone[4] = Work_Zone[71]
307: 0x0706 [0x03] Work_Zone[5] = Work_Zone[72]
308: 0x070B [0x03] Work_Zone[6] = Work_Zone[77]
309: 0x0710 [0x03] Work_Zone[7] = Work_Zone[78]
310: 0x0715 [0x03] Work_Zone[8] = Work_Zone[79]
311: 0x071A [0x03] Work_Zone[9] = Work_Zone[80]
312: 0x071F [0x02] IF !(Work_Zone[7] == 0*) GOTO 0x072E
313: 0x0727 [0x48] [System] [7119*]:
    → "$4 x $0"
314: 0x072A [0x23] WAIT_FOR_DIALOG_INTERACTION
315: 0x072B [0x01] GOTO 0x07B4
316: 0x072E [0x02] IF !(Work_Zone[8] == 0*) GOTO 0x073D
317: 0x0736 [0x48] [System] [7118*]:
    → "$4 x $0 $5 x $0$0"
318: 0x0739 [0x23] WAIT_FOR_DIALOG_INTERACTION
319: 0x073A [0x01] GOTO 0x07B4
320: 0x073D [0x02] IF !(Work_Zone[9] == 0*) GOTO 0x074C
321: 0x0745 [0x48] [System] [7117*]:
    → "$4 x $0 $5 x $0$0 $6 x $0"
322: 0x0748 [0x23] WAIT_FOR_DIALOG_INTERACTION
323: 0x0749 [0x01] GOTO 0x07B4
324: 0x074C [0x48] [System] [7116*]:
    → "$4 x $0 $5 x $0$0 $6 x $0 $7 x $0$3"
325: 0x074F [0x23] WAIT_FOR_DIALOG_INTERACTION
326: 0x0750 [0x03] Work_Zone[2] = Work_Zone[73]
327: 0x0755 [0x03] Work_Zone[3] = Work_Zone[74]
328: 0x075A [0x03] Work_Zone[4] = Work_Zone[75]
329: 0x075F [0x03] Work_Zone[5] = Work_Zone[76]
330: 0x0764 [0x03] Work_Zone[6] = Work_Zone[81]
331: 0x0769 [0x03] Work_Zone[7] = Work_Zone[82]
332: 0x076E [0x03] Work_Zone[8] = Work_Zone[83]
333: 0x0773 [0x03] Work_Zone[9] = Work_Zone[84]
334: 0x0778 [0x02] IF !(Work_Zone[6] == 0*) GOTO 0x0783
335: 0x0780 [0x01] GOTO 0x07B4
336: 0x0783 [0x02] IF !(Work_Zone[7] == 0*) GOTO 0x0792
337: 0x078B [0x48] [System] [7119*]:
    → "$4 x $0"
338: 0x078E [0x23] WAIT_FOR_DIALOG_INTERACTION
339: 0x078F [0x01] GOTO 0x07B4
340: 0x0792 [0x02] IF !(Work_Zone[8] == 0*) GOTO 0x07A1
341: 0x079A [0x48] [System] [7118*]:
    → "$4 x $0 $5 x $0$0"
342: 0x079D [0x23] WAIT_FOR_DIALOG_INTERACTION
343: 0x079E [0x01] GOTO 0x07B4
344: 0x07A1 [0x02] IF !(Work_Zone[9] == 0*) GOTO 0x07B0
345: 0x07A9 [0x48] [System] [7117*]:
    → "$4 x $0 $5 x $0$0 $6 x $0"
346: 0x07AC [0x23] WAIT_FOR_DIALOG_INTERACTION
347: 0x07AD [0x01] GOTO 0x07B4
348: 0x07B0 [0x48] [System] [7116*]:
    → "$4 x $0 $5 x $0$0 $6 x $0 $7 x $0$3"
349: 0x07B3 [0x23] WAIT_FOR_DIALOG_INTERACTION

SUBROUTINE_07B4:
350: 0x07B4 [0x1B] RETURN
```

#### Data or dead code:

```
# Dead code (unreachable instructions):
     0x008A [0x01] GOTO 0x01AF
# Dead code (unreachable instructions):
     0x01C5 [0x01] GOTO 0x01E1
# Dead code (unreachable instructions):
     0x057B [0x01] GOTO 0x06B0
     0x058E [0x01] GOTO 0x06B0
     0x05A1 [0x01] GOTO 0x06B0
     0x05B4 [0x01] GOTO 0x06B0
     0x05C7 [0x01] GOTO 0x06B0
     0x05DA [0x01] GOTO 0x06B0
     0x05ED [0x01] GOTO 0x06B0
     0x0600 [0x01] GOTO 0x06B0
     0x0613 [0x01] GOTO 0x06B0
     0x0626 [0x01] GOTO 0x06B0
     0x0639 [0x01] GOTO 0x06B0
     0x064C [0x01] GOTO 0x06B0
     0x065F [0x01] GOTO 0x06B0
     0x0672 [0x01] GOTO 0x06B0
     0x0685 [0x01] GOTO 0x06B0
     0x0698 [0x01] GOTO 0x06B0
```

### Event 301

#### Metadata

| Field        | Value     |
|--------------|-----------|
| Entrypoint   | 0x07B5    |
| Data Size    | 277 bytes |
| Instructions | 64        |

```
      00 01 02 03 04 05 06 07  08 09 0A 0B 0C 0D 0E 0F
      -- -- -- -- -- -- -- --  -- -- -- -- -- -- -- --
07B0:                20 01 42  1E F0 FF FF 7F 1A 92 08        .B........
07C0: 02 06 10 03 80 03 CD 07  03 06 10 03 80 03 09 10  ................
07D0: 06 10 02 09 10 11 80 05  E1 07 1D 4A 80 23 01 74  ...........J.#.t
07E0: 08 02 09 10 13 80 80 F0  07 1D 4B 80 23 01 74 08  ..........K.#.t.
07F0: 02 09 10 15 80 80 FF 07  1D 4C 80 23 01 74 08 02  .........L.#.t..
0800: 09 10 17 80 80 1A 08 1D  4D 80 23 02 05 10 03 80  ........M.#.....
0810: 00 17 08 1D 4E 80 23 01  74 08 02 09 10 19 80 80  ....N.#.t.......
0820: 35 08 1D 4F 80 23 02 05  10 0B 80 00 32 08 1D 4E  5..O.#......2..N
0830: 80 23 01 74 08 02 09 10  00 80 80 50 08 1D 50 80  .#.t.......P..P.
0840: 23 02 05 10 05 80 00 4D  08 1D 4E 80 23 01 74 08  #......M..N.#.t.
0850: 02 09 10 01 80 80 74 08  02 07 10 0B 80 00 67 08  ......t.......g.
0860: 1D 51 80 23 01 71 08 1D  52 80 23 1D 53 80 23 21  .Q.#.q..R.#.S.#!
0870: 00 01 74 08 1A A4 08 03  08 10 02 80 45 54 80 F0  ..t.........ET..
0880: FF FF 7F F0 FF FF 7F 71  73 74 63 03 80 48 55 80  .......qstc..HU.
0890: 21 00 6F 70 66 01 80 F8  FF FF 7F F8 FF FF 7F 74  !.opf..........t
08A0: 6C 6B 30 1B 5E 69 64 6C  30 1B 6F 70 66 01 80 F8  lk0.^idl0.opf...
08B0: FF FF 7F F8 FF FF 7F 70  61 73 30 1B 53 F8 FF FF  .......pas0.S...
08C0: 7F F8 FF FF 7F 70 61 73  30 1B                    .....pas0.      
```

#### Opcodes

```
  0: 0x07B5 [0x20] SET_CLI_EVENT_UC_FLAG: Lock player control
  1: 0x07B7 [0x42] SET_CLI_EVENT_CANCEL_DATA()
  2: 0x07B8 [0x1E] EventEntity looks at LocalPlayer and starts talking
  3: 0x07BD [0x1A] CALL_SUBROUTINE(address=0x0892)
  4: 0x07C0 [0x02] IF !(Work_Zone[6] >= 0*) GOTO 0x07CD
  5: 0x07C8 [0x03] Work_Zone[6] = 0*
  6: 0x07CD [0x03] Work_Zone[9] = Work_Zone[6]
  7: 0x07D2 [0x02] IF !(Work_Zone[9] > 4*) GOTO 0x07E1
  8: 0x07DA [0x1D] PRINT_EVENT_MESSAGE(message_id=7176*)
    → "Ah, this is a fair example of craftsmanship. [Amateur/Recruit/Initiate/Novice/Apprentice] is the title you may wear. And remember...take your time. There is no need to rush things."
  9: 0x07DD [0x23] WAIT_FOR_DIALOG_INTERACTION
 10: 0x07DE [0x01] GOTO 0x0874
 11: 0x07E1 [0x02] IF !(Work_Zone[9] == 5*) GOTO 0x07F0
 12: 0x07E9 [0x1D] PRINT_EVENT_MESSAGE(message_id=7177*)
    → "Ah, this is a fine example of craftsmanship."
 13: 0x07EC [0x23] WAIT_FOR_DIALOG_INTERACTION
 14: 0x07ED [0x01] GOTO 0x0874
 15: 0x07F0 [0x02] IF !(Work_Zone[9] == 6*) GOTO 0x07FF
 16: 0x07F8 [0x1D] PRINT_EVENT_MESSAGE(message_id=7205*)
    → "Such ingenuity, such inventiveness! I commend you on your efforts and hereby grant you the title of craftsman. Continue to polish your skills and your bracelets and bijoux will shine even brighter!"
 17: 0x07FB [0x23] WAIT_FOR_DIALOG_INTERACTION
 18: 0x07FC [0x01] GOTO 0x0874
 19: 0x07FF [0x02] IF !(Work_Zone[9] == 7*) GOTO 0x081A
 20: 0x0807 [0x1D] PRINT_EVENT_MESSAGE(message_id=7178*)
    → "Ah, this is an excellent example of craftsmanship."
 21: 0x080A [0x23] WAIT_FOR_DIALOG_INTERACTION
 22: 0x080B [0x02] IF !(Work_Zone[5] == 0*) GOTO 0x0817
 23: 0x0813 [0x1D] PRINT_EVENT_MESSAGE(message_id=7237*)
    → "While I cannot prevent you from striving for [artisan/adept/veteran] status in another guild, bear in mind that you may find it difficult to maintain your high level of goldsmithing proficiency if you do."
 24: 0x0816 [0x23] WAIT_FOR_DIALOG_INTERACTION
 25: 0x0817 [0x01] GOTO 0x0874
 26: 0x081A [0x02] IF !(Work_Zone[9] == 8*) GOTO 0x0835
 27: 0x0822 [0x1D] PRINT_EVENT_MESSAGE(message_id=7179*)
    → "This... This is a fabulous example of craftsmanship... No, a fabulous work of art! You have more than earned the title of adept. There is little more I can teach you."
 28: 0x0825 [0x23] WAIT_FOR_DIALOG_INTERACTION
 29: 0x0826 [0x02] IF !(Work_Zone[5] == 1*) GOTO 0x0832
 30: 0x082E [0x1D] PRINT_EVENT_MESSAGE(message_id=7237*)
    → "While I cannot prevent you from striving for [artisan/adept/veteran] status in another guild, bear in mind that you may find it difficult to maintain your high level of goldsmithing proficiency if you do."
 31: 0x0831 [0x23] WAIT_FOR_DIALOG_INTERACTION
 32: 0x0832 [0x01] GOTO 0x0874
 33: 0x0835 [0x02] IF !(Work_Zone[9] == 9*) GOTO 0x0850
 34: 0x083D [0x1D] PRINT_EVENT_MESSAGE(message_id=7180*)
    → "This is so beautiful! I think I will be asking you to make all of my jewelry from now on!"
 35: 0x0840 [0x23] WAIT_FOR_DIALOG_INTERACTION
 36: 0x0841 [0x02] IF !(Work_Zone[5] == 2*) GOTO 0x084D
 37: 0x0849 [0x1D] PRINT_EVENT_MESSAGE(message_id=7237*)
    → "While I cannot prevent you from striving for [artisan/adept/veteran] status in another guild, bear in mind that you may find it difficult to maintain your high level of goldsmithing proficiency if you do."
 38: 0x084C [0x23] WAIT_FOR_DIALOG_INTERACTION
 39: 0x084D [0x01] GOTO 0x0874
 40: 0x0850 [0x02] IF !(Work_Zone[9] == 10*) GOTO 0x0874
 41: 0x0858 [0x02] IF !(Work_Zone[7] == 1*) GOTO 0x0867
 42: 0x0860 [0x1D] PRINT_EVENT_MESSAGE(message_id=7230*)
    → "Splendid! Marvelous! Spectacular! I am blinded with the brilliance of your craftsmanship. I hereby bestow upon you the rank of expert. Wear it with pride!"
 43: 0x0863 [0x23] WAIT_FOR_DIALOG_INTERACTION
 44: 0x0864 [0x01] GOTO 0x0871
 45: 0x0867 [0x1D] PRINT_EVENT_MESSAGE(message_id=7231*)
    → "An admirable attempt, yet it lacks a certain...something. Ah, a signature! Do you so lack confidence in your work that you are unwilling to put your name to it?"
 46: 0x086A [0x23] WAIT_FOR_DIALOG_INTERACTION
 47: 0x086B [0x1D] PRINT_EVENT_MESSAGE(message_id=7232*)
    → "Needless to say, this won't do at all. Back to the studio with you, and do try to follow instructions this time."
 48: 0x086E [0x23] WAIT_FOR_DIALOG_INTERACTION
 49: 0x086F [0x21] END_EVENT
 50: 0x0870 [0x00] END_REQSTACK()

SUBROUTINE_0871:
 51: 0x0871 [0x01] GOTO 0x0874

SUBROUTINE_0874:
 52: 0x0874 [0x1A] CALL_SUBROUTINE(address=0x08A4)
 53: 0x0877 [0x03] Work_Zone[8] = 3*
 54: 0x087C [0x45] LOAD_SCHEDULED_TASK: Load scheduler "qstc" with entities [LocalPlayer, LocalPlayer], work=[201*, 0*]
 55: 0x088D [0x48] [System] [7112*]:
    → "You are now recognized as [an amateur/a recruit/an initiate/a novice/an apprentice/a journeyman/a craftsman/an artisan/an adept/a veteran/an expert/an authority/a luminary/a master/a grandmaster/a legend] of the [Fishermen's/Carpenters'/Blacksmiths'/Goldsmiths'/Weavers'/Tanners'/Boneworkers'/Alchemists'/Culinarians'] Guild."
 56: 0x0890 [0x21] END_EVENT
 57: 0x0891 [0x00] END_REQSTACK()

SUBROUTINE_0892:
 58: 0x0892 [0x6F] WAIT_FRAME_DELAY: Yield until WaitTime reaches zero
 59: 0x0893 [0x70] WAIT_ENTITY_RENDER_FLAG: Wait while EventEntity->Render.Flags3 bit 2 is set (cancel turn if not)
 60: 0x0894 [0x66] LOAD_EXT_SCHEDULER_MAIN: Load scheduler "tlk0" with entities [EventEntity, EventEntity], work=10*
 61: 0x08A3 [0x1B] RETURN

SUBROUTINE_08A4:
 62: 0x08A4 [0x5E] EventEntity goes idle (kills current action) (animation: "idl0")
 63: 0x08A9 [0x1B] RETURN
```

#### Data or dead code:

```
# Dead code (unreachable instructions):
     0x08AA [0x6F] WAIT_FRAME_DELAY: Yield until WaitTime reaches zero
     0x08AB [0x70] WAIT_ENTITY_RENDER_FLAG: Wait while EventEntity->Render.Flags3 bit 2 is set (cancel turn if not)
     0x08AC [0x66] LOAD_EXT_SCHEDULER_MAIN: Load scheduler "pas0" with entities [EventEntity, EventEntity], work=10*
     0x08BB [0x1B] RETURN
     0x08BC [0x53] WAIT_SCHEDULER_TASK: Wait for scheduler "pas0" with entities [EventEntity, EventEntity]
     0x08C9 [0x1B] RETURN
```

### Event 625

#### Metadata

| Field        | Value     |
|--------------|-----------|
| Entrypoint   | 0x08CA    |
| Data Size    | 131 bytes |
| Instructions | 24        |

```
      00 01 02 03 04 05 06 07  08 09 0A 0B 0C 0D 0E 0F
      -- -- -- -- -- -- -- --  -- -- -- -- -- -- -- --
08C0:                                03 0E 00 07 10 03            ......
08D0: 1A 00 08 10 02 0E 00 0B  80 80 4B 09 03 11 00 02  ..........K.....
08E0: 10 03 13 00 03 10 03 14  00 04 10 03 15 00 05 10  ................
08F0: 03 12 00 06 10 42 4A F8  FF FF 7F F0 FF FF 7F 6F  .....BJ........o
0900: 70 66 01 80 F8 FF FF 7F  F8 FF FF 7F 74 6C 6B 30  pf..........tlk0
0910: 1D 56 80 23 66 01 80 F8  FF FF 7F F8 FF FF 7F 74  .V.#f..........t
0920: 6C 6B 31 1A A0 15 66 01  80 F8 FF FF 7F F8 FF FF  lk1...f.........
0930: 7F 74 6C 6B 30 1D 57 80  23 66 01 80 F8 FF FF 7F  .tlk0.W.#f......
0940: F8 FF FF 7F 74 6C 6B 31  01 4B 09 21 00           ....tlk1.K.!.   
```

#### Opcodes

```
  0: 0x08CA [0x03] ExtData[1]->WorkLocal[14] = Work_Zone[7]
  1: 0x08CF [0x03] ExtData[1]->WorkLocal[26] = Work_Zone[8]
  2: 0x08D4 [0x02] IF !(ExtData[1]->WorkLocal[14] == 1*) GOTO 0x094B
  3: 0x08DC [0x03] ExtData[1]->WorkLocal[17] = Work_Zone[2]
  4: 0x08E1 [0x03] ExtData[1]->WorkLocal[19] = Work_Zone[3]
  5: 0x08E6 [0x03] ExtData[1]->WorkLocal[20] = Work_Zone[4]
  6: 0x08EB [0x03] ExtData[1]->WorkLocal[21] = Work_Zone[5]
  7: 0x08F0 [0x03] ExtData[1]->WorkLocal[18] = Work_Zone[6]
  8: 0x08F5 [0x42] SET_CLI_EVENT_CANCEL_DATA()
  9: 0x08F6 [0x4A] EventEntity looks at LocalPlayer
 10: 0x08FF [0x6F] WAIT_FRAME_DELAY: Yield until WaitTime reaches zero
 11: 0x0900 [0x70] WAIT_ENTITY_RENDER_FLAG: Wait while EventEntity->Render.Flags3 bit 2 is set (cancel turn if not)
 12: 0x0901 [0x66] LOAD_EXT_SCHEDULER_MAIN: Load scheduler "tlk0" with entities [EventEntity, EventEntity], work=10*
 13: 0x0910 [0x1D] PRINT_EVENT_MESSAGE(message_id=15014*)
    → "What? You forgot the recipe? Okay, here are the ingredients again. Someone of your skill level really should remember these things."
 14: 0x0913 [0x23] WAIT_FOR_DIALOG_INTERACTION
 15: 0x0914 [0x66] LOAD_EXT_SCHEDULER_MAIN: Load scheduler "tlk1" with entities [EventEntity, EventEntity], work=10*
 16: 0x0923 [0x1A] CALL_SUBROUTINE(address=0x15A0)
 17: 0x0926 [0x66] LOAD_EXT_SCHEDULER_MAIN: Load scheduler "tlk0" with entities [EventEntity, EventEntity], work=10*
 18: 0x0935 [0x1D] PRINT_EVENT_MESSAGE(message_id=15015*)
    → "You have a good eye for detail. If anybody can make this shield, I know you can."
 19: 0x0938 [0x23] WAIT_FOR_DIALOG_INTERACTION
 20: 0x0939 [0x66] LOAD_EXT_SCHEDULER_MAIN: Load scheduler "tlk1" with entities [EventEntity, EventEntity], work=10*
 21: 0x0948 [0x01] GOTO 0x094B

SUBROUTINE_094B:
 22: 0x094B [0x21] END_EVENT
 23: 0x094C [0x00] END_REQSTACK()
```

### Event 632

#### Metadata

| Field        | Value     |
|--------------|-----------|
| Entrypoint   | 0x094D    |
| Data Size    | 134 bytes |
| Instructions | 24        |

```
      00 01 02 03 04 05 06 07  08 09 0A 0B 0C 0D 0E 0F
      -- -- -- -- -- -- -- --  -- -- -- -- -- -- -- --
0940:                                         03 11 00               ...
0950: 02 10 03 13 00 03 10 03  14 00 04 10 03 15 00 05  ................
0960: 10 03 16 00 06 10 03 12  00 07 10 03 0E 00 08 10  ................
0970: 03 1A 00 09 10 42 4A F8  FF FF 7F F0 FF FF 7F 4A  .....BJ........J
0980: F0 FF FF 7F F8 FF FF 7F  6F 70 66 01 80 F8 FF FF  ........opf.....
0990: 7F F8 FF FF 7F 74 6C 6B  30 1D 56 80 23 66 01 80  .....tlk0.V.#f..
09A0: F8 FF FF 7F F8 FF FF 7F  74 6C 6B 31 1A EF 15 66  ........tlk1...f
09B0: 01 80 F8 FF FF 7F F8 FF  FF 7F 74 6C 6B 30 1D 57  ..........tlk0.W
09C0: 80 23 66 01 80 F8 FF FF  7F F8 FF FF 7F 74 6C 6B  .#f..........tlk
09D0: 31 21 00                                          1!.             
```

#### Opcodes

```
  0: 0x094D [0x03] ExtData[1]->WorkLocal[17] = Work_Zone[2]
  1: 0x0952 [0x03] ExtData[1]->WorkLocal[19] = Work_Zone[3]
  2: 0x0957 [0x03] ExtData[1]->WorkLocal[20] = Work_Zone[4]
  3: 0x095C [0x03] ExtData[1]->WorkLocal[21] = Work_Zone[5]
  4: 0x0961 [0x03] ExtData[1]->WorkLocal[22] = Work_Zone[6]
  5: 0x0966 [0x03] ExtData[1]->WorkLocal[18] = Work_Zone[7]
  6: 0x096B [0x03] ExtData[1]->WorkLocal[14] = Work_Zone[8]
  7: 0x0970 [0x03] ExtData[1]->WorkLocal[26] = Work_Zone[9]
  8: 0x0975 [0x42] SET_CLI_EVENT_CANCEL_DATA()
  9: 0x0976 [0x4A] EventEntity looks at LocalPlayer
 10: 0x097F [0x4A] LocalPlayer looks at EventEntity
 11: 0x0988 [0x6F] WAIT_FRAME_DELAY: Yield until WaitTime reaches zero
 12: 0x0989 [0x70] WAIT_ENTITY_RENDER_FLAG: Wait while EventEntity->Render.Flags3 bit 2 is set (cancel turn if not)
 13: 0x098A [0x66] LOAD_EXT_SCHEDULER_MAIN: Load scheduler "tlk0" with entities [EventEntity, EventEntity], work=10*
 14: 0x0999 [0x1D] PRINT_EVENT_MESSAGE(message_id=15014*)
    → "What? You forgot the recipe? Okay, here are the ingredients again. Someone of your skill level really should remember these things."
 15: 0x099C [0x23] WAIT_FOR_DIALOG_INTERACTION
 16: 0x099D [0x66] LOAD_EXT_SCHEDULER_MAIN: Load scheduler "tlk1" with entities [EventEntity, EventEntity], work=10*
 17: 0x09AC [0x1A] CALL_SUBROUTINE(address=0x15EF)
 18: 0x09AF [0x66] LOAD_EXT_SCHEDULER_MAIN: Load scheduler "tlk0" with entities [EventEntity, EventEntity], work=10*
 19: 0x09BE [0x1D] PRINT_EVENT_MESSAGE(message_id=15015*)
    → "You have a good eye for detail. If anybody can make this shield, I know you can."
 20: 0x09C1 [0x23] WAIT_FOR_DIALOG_INTERACTION
 21: 0x09C2 [0x66] LOAD_EXT_SCHEDULER_MAIN: Load scheduler "tlk1" with entities [EventEntity, EventEntity], work=10*
 22: 0x09D1 [0x21] END_EVENT
 23: 0x09D2 [0x00] END_REQSTACK()
```

### Event 626

#### Metadata

| Field        | Value     |
|--------------|-----------|
| Entrypoint   | 0x09D3    |
| Data Size    | 124 bytes |
| Instructions | 33        |

```
      00 01 02 03 04 05 06 07  08 09 0A 0B 0C 0D 0E 0F
      -- -- -- -- -- -- -- --  -- -- -- -- -- -- -- --
09D0:          03 0E 00 02 10  02 0E 00 0B 80 80 FF 09     .............
09E0: 4A F8 FF FF 7F F0 FF FF  7F 4A F0 FF FF 7F F8 FF  J........J......
09F0: FF 7F 6F 70 1D 58 80 23  1D 59 80 23 01 4D 0A 02  ..op.X.#.Y.#.M..
0A00: 0E 00 05 80 80 26 0A 4A  F8 FF FF 7F F0 FF FF 7F  .....&.J........
0A10: 4A F0 FF FF 7F F8 FF FF  7F 6F 70 1D 58 80 23 1D  J........op.X.#.
0A20: 59 80 23 01 4D 0A 02 0E  00 02 80 80 4D 0A 4A F8  Y.#.M.......M.J.
0A30: FF FF 7F F0 FF FF 7F 4A  F0 FF FF 7F F8 FF FF 7F  .......J........
0A40: 6F 70 1D 58 80 23 1D 59  80 23 01 4D 0A 21 00     op.X.#.Y.#.M.!. 
```

#### Opcodes

```
  0: 0x09D3 [0x03] ExtData[1]->WorkLocal[14] = Work_Zone[2]
  1: 0x09D8 [0x02] IF !(ExtData[1]->WorkLocal[14] == 1*) GOTO 0x09FF
  2: 0x09E0 [0x4A] EventEntity looks at LocalPlayer
  3: 0x09E9 [0x4A] LocalPlayer looks at EventEntity
  4: 0x09F2 [0x6F] WAIT_FRAME_DELAY: Yield until WaitTime reaches zero
  5: 0x09F3 [0x70] WAIT_ENTITY_RENDER_FLAG: Wait while EventEntity->Render.Flags3 bit 2 is set (cancel turn if not)
  6: 0x09F4 [0x1D] PRINT_EVENT_MESSAGE(message_id=15030*)
    → "Just show this shield to Mewk Chorosap in Jeuno."
  7: 0x09F7 [0x23] WAIT_FOR_DIALOG_INTERACTION
  8: 0x09F8 [0x1D] PRINT_EVENT_MESSAGE(message_id=15031*)
    → "Oh, keep in mind that I'm constantly making deliveries to Puyutete. I hope you'll continue helping me out to educate the newer members of the guild."
  9: 0x09FB [0x23] WAIT_FOR_DIALOG_INTERACTION
 10: 0x09FC [0x01] GOTO 0x0A4D
 11: 0x09FF [0x02] IF !(ExtData[1]->WorkLocal[14] == 2*) GOTO 0x0A26
 12: 0x0A07 [0x4A] EventEntity looks at LocalPlayer
 13: 0x0A10 [0x4A] LocalPlayer looks at EventEntity
 14: 0x0A19 [0x6F] WAIT_FRAME_DELAY: Yield until WaitTime reaches zero
 15: 0x0A1A [0x70] WAIT_ENTITY_RENDER_FLAG: Wait while EventEntity->Render.Flags3 bit 2 is set (cancel turn if not)
 16: 0x0A1B [0x1D] PRINT_EVENT_MESSAGE(message_id=15030*)
    → "Just show this shield to Mewk Chorosap in Jeuno."
 17: 0x0A1E [0x23] WAIT_FOR_DIALOG_INTERACTION
 18: 0x0A1F [0x1D] PRINT_EVENT_MESSAGE(message_id=15031*)
    → "Oh, keep in mind that I'm constantly making deliveries to Puyutete. I hope you'll continue helping me out to educate the newer members of the guild."
 19: 0x0A22 [0x23] WAIT_FOR_DIALOG_INTERACTION
 20: 0x0A23 [0x01] GOTO 0x0A4D
 21: 0x0A26 [0x02] IF !(ExtData[1]->WorkLocal[14] == 3*) GOTO 0x0A4D
 22: 0x0A2E [0x4A] EventEntity looks at LocalPlayer
 23: 0x0A37 [0x4A] LocalPlayer looks at EventEntity
 24: 0x0A40 [0x6F] WAIT_FRAME_DELAY: Yield until WaitTime reaches zero
 25: 0x0A41 [0x70] WAIT_ENTITY_RENDER_FLAG: Wait while EventEntity->Render.Flags3 bit 2 is set (cancel turn if not)
 26: 0x0A42 [0x1D] PRINT_EVENT_MESSAGE(message_id=15030*)
    → "Just show this shield to Mewk Chorosap in Jeuno."
 27: 0x0A45 [0x23] WAIT_FOR_DIALOG_INTERACTION
 28: 0x0A46 [0x1D] PRINT_EVENT_MESSAGE(message_id=15031*)
    → "Oh, keep in mind that I'm constantly making deliveries to Puyutete. I hope you'll continue helping me out to educate the newer members of the guild."
 29: 0x0A49 [0x23] WAIT_FOR_DIALOG_INTERACTION
 30: 0x0A4A [0x01] GOTO 0x0A4D

SUBROUTINE_0A4D:
 31: 0x0A4D [0x21] END_EVENT
 32: 0x0A4E [0x00] END_REQSTACK()
```

### Event 627

#### Metadata

| Field        | Value     |
|--------------|-----------|
| Entrypoint   | 0x0A4F    |
| Data Size    | 229 bytes |
| Instructions | 60        |

```
      00 01 02 03 04 05 06 07  08 09 0A 0B 0C 0D 0E 0F
      -- -- -- -- -- -- -- --  -- -- -- -- -- -- -- --
0A40:                                               03                 .
0A50: 11 00 02 10 03 13 00 03  10 03 14 00 04 10 03 15  ................
0A60: 00 05 10 03 12 00 06 10  03 0E 00 07 10 03 1A 00  ................
0A70: 08 10 02 0E 00 0B 80 80  32 0B 42 4A F8 FF FF 7F  ........2.BJ....
0A80: F0 FF FF 7F 6F 70 1D 5A  80 23 1D 5B 80 23 66 01  ....op.Z.#.[.#f.
0A90: 80 F8 FF FF 7F F8 FF FF  7F 74 6C 6B 30 1D 5C 80  .........tlk0.\.
0AA0: 23 1D 5D 80 23 1D 5E 80  23 1D 5F 80 23 66 01 80  #.].#.^.#._.#f..
0AB0: F8 FF FF 7F F8 FF FF 7F  74 6C 6B 31 1A A0 15 66  ........tlk1...f
0AC0: 01 80 F8 FF FF 7F F8 FF  FF 7F 74 6C 6B 30 1D 60  ..........tlk0.`
0AD0: 80 23 1D 61 80 23 1D 62  80 23 66 01 80 F8 FF FF  .#.a.#.b.#f.....
0AE0: 7F F8 FF FF 7F 74 6C 6B  31 48 63 80 23 48 64 80  .....tlk1Hc.#Hd.
0AF0: 23 48 65 80 23 48 66 80  23 66 01 80 F8 FF FF 7F  #He.#Hf.#f......
0B00: F8 FF FF 7F 74 6C 6B 30  1D 67 80 23 1D 68 80 23  ....tlk0.g.#.h.#
0B10: 1D 69 80 23 1D 6A 80 23  1D 6B 80 23 1D 6C 80 23  .i.#.j.#.k.#.l.#
0B20: 66 01 80 F8 FF FF 7F F8  FF FF 7F 74 6C 6B 31 01  f..........tlk1.
0B30: 32 0B 21 00                                       2.!.            
```

#### Opcodes

```
  0: 0x0A4F [0x03] ExtData[1]->WorkLocal[17] = Work_Zone[2]
  1: 0x0A54 [0x03] ExtData[1]->WorkLocal[19] = Work_Zone[3]
  2: 0x0A59 [0x03] ExtData[1]->WorkLocal[20] = Work_Zone[4]
  3: 0x0A5E [0x03] ExtData[1]->WorkLocal[21] = Work_Zone[5]
  4: 0x0A63 [0x03] ExtData[1]->WorkLocal[18] = Work_Zone[6]
  5: 0x0A68 [0x03] ExtData[1]->WorkLocal[14] = Work_Zone[7]
  6: 0x0A6D [0x03] ExtData[1]->WorkLocal[26] = Work_Zone[8]
  7: 0x0A72 [0x02] IF !(ExtData[1]->WorkLocal[14] == 1*) GOTO 0x0B32
  8: 0x0A7A [0x42] SET_CLI_EVENT_CANCEL_DATA()
  9: 0x0A7B [0x4A] EventEntity looks at LocalPlayer
 10: 0x0A84 [0x6F] WAIT_FRAME_DELAY: Yield until WaitTime reaches zero
 11: 0x0A85 [0x70] WAIT_ENTITY_RENDER_FLAG: Wait while EventEntity->Render.Flags3 bit 2 is set (cancel turn if not)
 12: 0x0A86 [0x1D] PRINT_EVENT_MESSAGE(message_id=14995*)
    → "Oh, hello again. What is that shield you're carrying?"
 13: 0x0A89 [0x23] WAIT_FOR_DIALOG_INTERACTION
 14: 0x0A8A [0x1D] PRINT_EVENT_MESSAGE(message_id=14996*)
    → "I see... You must've met with her already."
 15: 0x0A8D [0x23] WAIT_FOR_DIALOG_INTERACTION
 16: 0x0A8E [0x66] LOAD_EXT_SCHEDULER_MAIN: Load scheduler "tlk0" with entities [EventEntity, EventEntity], work=10*
 17: 0x0A9D [0x1D] PRINT_EVENT_MESSAGE(message_id=14997*)
    → "Yes, I heard her story about a shield that can increase one's crafting ability. I must say, I'm a bit skeptical about the whole thing."
 18: 0x0AA0 [0x23] WAIT_FOR_DIALOG_INTERACTION
 19: 0x0AA1 [0x1D] PRINT_EVENT_MESSAGE(message_id=14998*)
    → "Although, if it's for real, it could change everything."
 20: 0x0AA4 [0x23] WAIT_FOR_DIALOG_INTERACTION
 21: 0x0AA5 [0x1D] PRINT_EVENT_MESSAGE(message_id=14999*)
    → "I know just how skilled you are, and if she selected you for this task, then I suppose you've got what it takes to make this shield."
 22: 0x0AA8 [0x23] WAIT_FOR_DIALOG_INTERACTION
 23: 0x0AA9 [0x1D] PRINT_EVENT_MESSAGE(message_id=15000*)
    → "Now then, let's get down to it. First, you're going to need the recipe, so try not to forget it."
 24: 0x0AAC [0x23] WAIT_FOR_DIALOG_INTERACTION
 25: 0x0AAD [0x66] LOAD_EXT_SCHEDULER_MAIN: Load scheduler "tlk1" with entities [EventEntity, EventEntity], work=10*
 26: 0x0ABC [0x1A] CALL_SUBROUTINE(address=0x15A0)
 27: 0x0ABF [0x66] LOAD_EXT_SCHEDULER_MAIN: Load scheduler "tlk0" with entities [EventEntity, EventEntity], work=10*
 28: 0x0ACE [0x1D] PRINT_EVENT_MESSAGE(message_id=15001*)
    → "First of all, you're going to need $1 to get started..."
 29: 0x0AD1 [0x23] WAIT_FOR_DIALOG_INTERACTION
 30: 0x0AD2 [0x1D] PRINT_EVENT_MESSAGE(message_id=15002*)
    → "This particular item is used to get the Craftsmanship of the $0 up to its maximum value."
 31: 0x0AD5 [0x23] WAIT_FOR_DIALOG_INTERACTION
 32: 0x0AD6 [0x1D] PRINT_EVENT_MESSAGE(message_id=15003*)
    → "I have some notes here about Craftsmanship that you should hear. Allow me to read them to you."
 33: 0x0AD9 [0x23] WAIT_FOR_DIALOG_INTERACTION
 34: 0x0ADA [0x66] LOAD_EXT_SCHEDULER_MAIN: Load scheduler "tlk1" with entities [EventEntity, EventEntity], work=10*
 35: 0x0AE9 [0x48] [System] [15004*]:
    → "You can increase Craftsmanship by crafting items that match up with your skill while you have the $0 equipped."
 36: 0x0AEC [0x23] WAIT_FOR_DIALOG_INTERACTION
 37: 0x0AED [0x48] [System] [15005*]:
    → "Craftsmanship will increase greatly when you fulfill certain conditions, but crafting the same item over and over again will reduce your gains, so try synthesizing something different if you run into trouble."
 38: 0x0AF0 [0x23] WAIT_FOR_DIALOG_INTERACTION
 39: 0x0AF1 [0x48] [System] [15006*]:
    → "In its default state, the shield has the unfortunate tendency to lower the success rate of your crafting, but as its Craftsmanship rises, it mitigates that effect."
 40: 0x0AF4 [0x23] WAIT_FOR_DIALOG_INTERACTION
 41: 0x0AF5 [0x48] [System] [15007*]:
    → "You can tell the Craftsmanship rating as well as the crafting success rate by looking at the shield. Good luck to you. Mwahaha..."
 42: 0x0AF8 [0x23] WAIT_FOR_DIALOG_INTERACTION
 43: 0x0AF9 [0x66] LOAD_EXT_SCHEDULER_MAIN: Load scheduler "tlk0" with entities [EventEntity, EventEntity], work=10*
 44: 0x0B08 [0x1D] PRINT_EVENT_MESSAGE(message_id=15008*)
    → "That's all it says."
 45: 0x0B0B [0x23] WAIT_FOR_DIALOG_INTERACTION
 46: 0x0B0C [0x1D] PRINT_EVENT_MESSAGE(message_id=15009*)
    → "Come show me what you've got when the Craftsmanship is high enough and I'll make you the $1."
 47: 0x0B0F [0x23] WAIT_FOR_DIALOG_INTERACTION
 48: 0x0B10 [0x1D] PRINT_EVENT_MESSAGE(message_id=15010*)
    → "Your next step will be to obtain $2 and $3, which you can get from Puyutete."
 49: 0x0B13 [0x23] WAIT_FOR_DIALOG_INTERACTION
 50: 0x0B14 [0x1D] PRINT_EVENT_MESSAGE(message_id=15011*)
    → "You've made deliveries to people before, right? That's basically what you'll need to do here."
 51: 0x0B17 [0x23] WAIT_FOR_DIALOG_INTERACTION
 52: 0x0B18 [0x1D] PRINT_EVENT_MESSAGE(message_id=15012*)
    → "Simply talk to Puyutete if you need more information."
 53: 0x0B1B [0x23] WAIT_FOR_DIALOG_INTERACTION
 54: 0x0B1C [0x1D] PRINT_EVENT_MESSAGE(message_id=15013*)
    → "That's it for the ingredients. Once you've upgraded the shield, come show it to me. I'd like to see how it turned out."
 55: 0x0B1F [0x23] WAIT_FOR_DIALOG_INTERACTION
 56: 0x0B20 [0x66] LOAD_EXT_SCHEDULER_MAIN: Load scheduler "tlk1" with entities [EventEntity, EventEntity], work=10*
 57: 0x0B2F [0x01] GOTO 0x0B32

SUBROUTINE_0B32:
 58: 0x0B32 [0x21] END_EVENT
 59: 0x0B33 [0x00] END_REQSTACK()
```

### Event 634

#### Metadata

| Field        | Value     |
|--------------|-----------|
| Entrypoint   | 0x0B34    |
| Data Size    | 227 bytes |
| Instructions | 51        |

```
      00 01 02 03 04 05 06 07  08 09 0A 0B 0C 0D 0E 0F
      -- -- -- -- -- -- -- --  -- -- -- -- -- -- -- --
0B30:             03 11 00 02  10 03 13 00 03 10 03 14      ............
0B40: 00 04 10 03 15 00 05 10  03 16 00 06 10 03 12 00  ................
0B50: 07 10 03 0E 00 08 10 03  1A 00 09 10 42 4A F8 FF  ............BJ..
0B60: FF 7F F0 FF FF 7F 4A F0  FF FF 7F F8 FF FF 7F 6F  ......J........o
0B70: 70 1D 6D 80 23 6F 70 66  01 80 F8 FF FF 7F F8 FF  p.m.#opf........
0B80: FF 7F 74 6C 6B 30 1D 6E  80 23 66 01 80 F8 FF FF  ..tlk0.n.#f.....
0B90: 7F F8 FF FF 7F 74 6C 6B  31 1A EF 15 03 02 10 11  .....tlk1.......
0BA0: 00 03 03 10 13 00 03 04  10 14 00 03 05 10 15 00  ................
0BB0: 03 06 10 16 00 1D 6F 80  23 66 01 80 F8 FF FF 7F  ......o.#f......
0BC0: F8 FF FF 7F 74 6C 6B 30  1D 70 80 23 1D 71 80 23  ....tlk0.p.#.q.#
0BD0: 1D 72 80 23 1D 73 80 23  1D 74 80 23 66 01 80 F8  .r.#.s.#.t.#f...
0BE0: FF FF 7F F8 FF FF 7F 74  6C 6B 31 1D 75 80 23 66  .......tlk1.u.#f
0BF0: 01 80 F8 FF FF 7F F8 FF  FF 7F 74 6C 6B 30 1D 76  ..........tlk0.v
0C00: 80 23 1D 77 80 23 66 01  80 F8 FF FF 7F F8 FF FF  .#.w.#f.........
0C10: 7F 74 6C 6B 31 21 00                              .tlk1!.         
```

#### Opcodes

```
  0: 0x0B34 [0x03] ExtData[1]->WorkLocal[17] = Work_Zone[2]
  1: 0x0B39 [0x03] ExtData[1]->WorkLocal[19] = Work_Zone[3]
  2: 0x0B3E [0x03] ExtData[1]->WorkLocal[20] = Work_Zone[4]
  3: 0x0B43 [0x03] ExtData[1]->WorkLocal[21] = Work_Zone[5]
  4: 0x0B48 [0x03] ExtData[1]->WorkLocal[22] = Work_Zone[6]
  5: 0x0B4D [0x03] ExtData[1]->WorkLocal[18] = Work_Zone[7]
  6: 0x0B52 [0x03] ExtData[1]->WorkLocal[14] = Work_Zone[8]
  7: 0x0B57 [0x03] ExtData[1]->WorkLocal[26] = Work_Zone[9]
  8: 0x0B5C [0x42] SET_CLI_EVENT_CANCEL_DATA()
  9: 0x0B5D [0x4A] EventEntity looks at LocalPlayer
 10: 0x0B66 [0x4A] LocalPlayer looks at EventEntity
 11: 0x0B6F [0x6F] WAIT_FRAME_DELAY: Yield until WaitTime reaches zero
 12: 0x0B70 [0x70] WAIT_ENTITY_RENDER_FLAG: Wait while EventEntity->Render.Flags3 bit 2 is set (cancel turn if not)
 13: 0x0B71 [0x1D] PRINT_EVENT_MESSAGE(message_id=15032*)
    → "Welcome. I suppose you're here to upgrade your shield."
 14: 0x0B74 [0x23] WAIT_FOR_DIALOG_INTERACTION
 15: 0x0B75 [0x6F] WAIT_FRAME_DELAY: Yield until WaitTime reaches zero
 16: 0x0B76 [0x70] WAIT_ENTITY_RENDER_FLAG: Wait while EventEntity->Render.Flags3 bit 2 is set (cancel turn if not)
 17: 0x0B77 [0x66] LOAD_EXT_SCHEDULER_MAIN: Load scheduler "tlk0" with entities [EventEntity, EventEntity], work=10*
 18: 0x0B86 [0x1D] PRINT_EVENT_MESSAGE(message_id=15033*)
    → "Yes, she told me all about it. Here, let me get you the necessary recipe."
 19: 0x0B89 [0x23] WAIT_FOR_DIALOG_INTERACTION
 20: 0x0B8A [0x66] LOAD_EXT_SCHEDULER_MAIN: Load scheduler "tlk1" with entities [EventEntity, EventEntity], work=10*
 21: 0x0B99 [0x1A] CALL_SUBROUTINE(address=0x15EF)
 22: 0x0B9C [0x03] Work_Zone[2] = ExtData[1]->WorkLocal[17]
 23: 0x0BA1 [0x03] Work_Zone[3] = ExtData[1]->WorkLocal[19]
 24: 0x0BA6 [0x03] Work_Zone[4] = ExtData[1]->WorkLocal[20]
 25: 0x0BAB [0x03] Work_Zone[5] = ExtData[1]->WorkLocal[21]
 26: 0x0BB0 [0x03] Work_Zone[6] = ExtData[1]->WorkLocal[22]
 27: 0x0BB5 [0x1D] PRINT_EVENT_MESSAGE(message_id=15034*)
    → "That's it."
 28: 0x0BB8 [0x23] WAIT_FOR_DIALOG_INTERACTION
 29: 0x0BB9 [0x66] LOAD_EXT_SCHEDULER_MAIN: Load scheduler "tlk0" with entities [EventEntity, EventEntity], work=10*
 30: 0x0BC8 [0x1D] PRINT_EVENT_MESSAGE(message_id=15035*)
    → "Now, let's go over how to obtain the ingredients. First up is the $1."
 31: 0x0BCB [0x23] WAIT_FOR_DIALOG_INTERACTION
 32: 0x0BCC [0x1D] PRINT_EVENT_MESSAGE(message_id=15036*)
    → "Last time, you equipped the aspis while crafting in order to boost its Craftsmanship rating."
 33: 0x0BCF [0x23] WAIT_FOR_DIALOG_INTERACTION
 34: 0x0BD0 [0x1D] PRINT_EVENT_MESSAGE(message_id=15037*)
    → "This time, you'll craft the items while equipping the $0 in order to increase its Craftsmanship."
 35: 0x0BD3 [0x23] WAIT_FOR_DIALOG_INTERACTION
 36: 0x0BD4 [0x1D] PRINT_EVENT_MESSAGE(message_id=15038*)
    → "Come bring it to me once it reaches 100% and I'll make the $1 for you."
 37: 0x0BD7 [0x23] WAIT_FOR_DIALOG_INTERACTION
 38: 0x0BD8 [0x1D] PRINT_EVENT_MESSAGE(message_id=15039*)
    → "Next up is the $2 and $3. I have given both of them to Puyutete, so you'll need to speak with her to get them."
 39: 0x0BDB [0x23] WAIT_FOR_DIALOG_INTERACTION
 40: 0x0BDC [0x66] LOAD_EXT_SCHEDULER_MAIN: Load scheduler "tlk1" with entities [EventEntity, EventEntity], work=10*
 41: 0x0BEB [0x1D] PRINT_EVENT_MESSAGE(message_id=15040*)
    → "The last ingredient is the $4. With the help of the A.M.A.N., I have prepared some Records of Eminence objectives for you."
 42: 0x0BEE [0x23] WAIT_FOR_DIALOG_INTERACTION
 43: 0x0BEF [0x66] LOAD_EXT_SCHEDULER_MAIN: Load scheduler "tlk0" with entities [EventEntity, EventEntity], work=10*
 44: 0x0BFE [0x1D] PRINT_EVENT_MESSAGE(message_id=15041*)
    → "Check the Records of Eminence menu for more details on the objectives. You'll receive the $4 once you've completed all of them."
 45: 0x0C01 [0x23] WAIT_FOR_DIALOG_INTERACTION
 46: 0x0C02 [0x1D] PRINT_EVENT_MESSAGE(message_id=15042*)
    → "That's it for the explanation about the ingredients. I look forward to seeing what this shield can become. Good luck to you."
 47: 0x0C05 [0x23] WAIT_FOR_DIALOG_INTERACTION
 48: 0x0C06 [0x66] LOAD_EXT_SCHEDULER_MAIN: Load scheduler "tlk1" with entities [EventEntity, EventEntity], work=10*
 49: 0x0C15 [0x21] END_EVENT
 50: 0x0C16 [0x00] END_REQSTACK()
```

### Event 643

#### Metadata

| Field        | Value     |
|--------------|-----------|
| Entrypoint   | 0x0C17    |
| Data Size    | 272 bytes |
| Instructions | 59        |

```
      00 01 02 03 04 05 06 07  08 09 0A 0B 0C 0D 0E 0F
      -- -- -- -- -- -- -- --  -- -- -- -- -- -- -- --
0C10:                      03  11 00 02 10 03 13 00 06         .........
0C20: 10 03 14 00 07 10 03 0E  00 08 10 03 1A 00 09 10  ................
0C30: 42 4A F8 FF FF 7F F0 FF  FF 7F 4A F0 FF FF 7F F8  BJ........J.....
0C40: FF FF 7F 6F 70 66 01 80  F8 FF FF 7F F8 FF FF 7F  ...opf..........
0C50: 74 6C 6B 30 1D 78 80 23  66 01 80 F8 FF FF 7F F8  tlk0.x.#f.......
0C60: FF FF 7F 74 6C 6B 31 1D  79 80 23 03 06 10 13 00  ...tlk1.y.#.....
0C70: 03 07 10 14 00 66 01 80  F8 FF FF 7F F8 FF FF 7F  .....f..........
0C80: 74 68 6B 31 1D 7A 80 23  66 01 80 F8 FF FF 7F F8  thk1.z.#f.......
0C90: FF FF 7F 74 68 6B 32 66  01 80 F8 FF FF 7F F8 FF  ...thk2f........
0CA0: FF 7F 74 6C 6B 30 1D 7B  80 23 1D 7C 80 23 1D 7D  ..tlk0.{.#.|.#.}
0CB0: 80 23 1D 7E 80 23 1D 7F  80 23 1D 80 80 23 1D 81  .#.~.#...#...#..
0CC0: 80 23 1D 82 80 23 66 01  80 F8 FF FF 7F F8 FF FF  .#...#f.........
0CD0: 7F 74 6C 6B 31 03 02 10  03 80 1D 83 80 23 03 01  .tlk1........#..
0CE0: 10 0B 80 43 00 43 01 02  09 10 03 80 03 F1 0C 21  ...C.C.........!
0CF0: 00 03 13 00 02 10 03 14  00 03 10 03 1B 00 04 10  ................
0D00: 1A 4C 16 66 01 80 F8 FF  FF 7F F8 FF FF 7F 74 6C  .L.f..........tl
0D10: 6B 30 1D 84 80 23 66 01  80 F8 FF FF 7F F8 FF FF  k0...#f.........
0D20: 7F 74 6C 6B 31 21 00                              .tlk1!.         
```

#### Opcodes

```
  0: 0x0C17 [0x03] ExtData[1]->WorkLocal[17] = Work_Zone[2]
  1: 0x0C1C [0x03] ExtData[1]->WorkLocal[19] = Work_Zone[6]
  2: 0x0C21 [0x03] ExtData[1]->WorkLocal[20] = Work_Zone[7]
  3: 0x0C26 [0x03] ExtData[1]->WorkLocal[14] = Work_Zone[8]
  4: 0x0C2B [0x03] ExtData[1]->WorkLocal[26] = Work_Zone[9]
  5: 0x0C30 [0x42] SET_CLI_EVENT_CANCEL_DATA()
  6: 0x0C31 [0x4A] EventEntity looks at LocalPlayer
  7: 0x0C3A [0x4A] LocalPlayer looks at EventEntity
  8: 0x0C43 [0x6F] WAIT_FRAME_DELAY: Yield until WaitTime reaches zero
  9: 0x0C44 [0x70] WAIT_ENTITY_RENDER_FLAG: Wait while EventEntity->Render.Flags3 bit 2 is set (cancel turn if not)
