# 17739841 - Zon-Fobun

## Common Data

| Field            | Value                    |
|------------------|--------------------------|
| Zone             | Bastok Markets (ID: 235) |
| Block Size       | 288 bytes                |
| Total Events     | 5                        |
| References Count | 14                       |

## List of Events

| Event ID              | Entrypoint   |   Size |   Instructions |
|-----------------------|--------------|--------|----------------|
| [65535](#event-65535) | 0x0000       |      1 |              1 |
| [250](#event-250)     | 0x0001       |     39 |              7 |
| [251](#event-251)     | 0x0028       |     67 |             17 |
| [252](#event-252)     | 0x006B       |     66 |             12 |
| [253](#event-253)     | 0x00AD       |     21 |              5 |

## DAT References (imed_data)

|   Index | Hex Value   |   Dec Value |
|---------|-------------|-------------|
|       0 | 0x0028      |          40 |
|       1 | 0x1DE1      |        7649 |
|       2 | 0x003C      |          60 |
|       3 | 0x008B      |         139 |
|       4 | 0x1DE2      |        7650 |
|       5 | 0x1DE3      |        7651 |
|       6 | 0x1DE4      |        7652 |
|       7 | 0x1DE5      |        7653 |
|       8 | 0x1DE6      |        7654 |
|       9 | 0x1DE7      |        7655 |
|      10 | 0x1DE8      |        7656 |
|      11 | 0x00C9      |         201 |
|      12 | 0x0000      |           0 |
|      13 | 0x1DE9      |        7657 |

## String References

- **7649**: What is one to do, I wonder-blunder.
- **7650**: You! You're an adventurer, yes-yes? And you've got umption in your gumption, by the looks of it! Then you can help me!
- **7651**: I'm compiling a tome on magic spells. It's almost complete--I just need a page on curses!
- **7652**: But curses are scary-wary! They're not for socially upstanding folk like myself! That's where you come in!
- **7653**: I need you to carry-harry this $3 to the Quadav stronghold in Beadeaux, and be cursed by both types of statues--the Mutes and the Afflictors!
- **7654**: When that's done, the $3 will have captured their secrets! Bring it back quick-slick, and my tome will be complete!
- **7655**: Good! The $3 is full! I can finally finish my research! Heh-heh-heh...
- **7656**: Oh yes, your reward! Here, they're yours, they're yours!
- **7657**: My research is nearing completion! Heh-heh-heh...

## Events

### Event 65535

#### Metadata

| Field        | Value   |
|--------------|---------|
| Entrypoint   | 0x0000  |
| Data Size    | 1 bytes |
| Instructions | 1       |

```
      00 01 02 03 04 05 06 07  08 09 0A 0B 0C 0D 0E 0F
      -- -- -- -- -- -- -- --  -- -- -- -- -- -- -- --
0000: 00                                                .               
```

#### Opcodes

```
  0: 0x0000 [0x00] END_REQSTACK()
```

### Event 250

#### Metadata

| Field        | Value    |
|--------------|----------|
| Entrypoint   | 0x0001   |
| Data Size    | 39 bytes |
| Instructions | 7        |

```
      00 01 02 03 04 05 06 07  08 09 0A 0B 0C 0D 0E 0F
      -- -- -- -- -- -- -- --  -- -- -- -- -- -- -- --
0000:    66 00 80 F8 FF FF 7F  F8 FF FF 7F 74 68 6B 31   f..........thk1
0010: 1D 01 80 23 66 00 80 F8  FF FF 7F F8 FF FF 7F 74  ...#f..........t
0020: 68 6B 32 1C 02 80 21 00                           hk2...!.        
```

#### Opcodes

```
  0: 0x0001 [0x66] LOAD_EXT_SCHEDULER_MAIN: Load scheduler "thk1" with entities [EventEntity, EventEntity], work=40*
  1: 0x0010 [0x1D] PRINT_EVENT_MESSAGE(message_id=7649*)
    → "What is one to do, I wonder-blunder."
  2: 0x0013 [0x23] WAIT_FOR_DIALOG_INTERACTION
  3: 0x0014 [0x66] LOAD_EXT_SCHEDULER_MAIN: Load scheduler "thk2" with entities [EventEntity, EventEntity], work=40*
  4: 0x0023 [0x1C] WAIT(60* ticks)
  5: 0x0026 [0x21] END_EVENT
  6: 0x0027 [0x00] END_REQSTACK()
```

### Event 251

#### Metadata

| Field        | Value    |
|--------------|----------|
| Entrypoint   | 0x0028   |
| Data Size    | 67 bytes |
| Instructions | 17       |

```
      00 01 02 03 04 05 06 07  08 09 0A 0B 0C 0D 0E 0F
      -- -- -- -- -- -- -- --  -- -- -- -- -- -- -- --
0020:                          03 09 10 03 80 1E F0 FF          ........
0030: FF 7F 1D 04 80 23 66 00  80 F8 FF FF 7F F8 FF FF  .....#f.........
0040: 7F 74 6C 6B 30 1D 05 80  23 5E 69 64 6C 30 1D 06  .tlk0...#^idl0..
0050: 80 23 66 00 80 F8 FF FF  7F F8 FF FF 7F 70 61 73  .#f..........pas
0060: 30 1D 07 80 23 1D 08 80  23 21 00                 0...#...#!.     
```

#### Opcodes

```
  0: 0x0028 [0x03] Work_Zone[9] = 139*
  1: 0x002D [0x1E] EventEntity looks at LocalPlayer and starts talking
  2: 0x0032 [0x1D] PRINT_EVENT_MESSAGE(message_id=7650*)
    → "You! You're an adventurer, yes-yes? And you've got umption in your gumption, by the looks of it! Then you can help me!"
  3: 0x0035 [0x23] WAIT_FOR_DIALOG_INTERACTION
  4: 0x0036 [0x66] LOAD_EXT_SCHEDULER_MAIN: Load scheduler "tlk0" with entities [EventEntity, EventEntity], work=40*
  5: 0x0045 [0x1D] PRINT_EVENT_MESSAGE(message_id=7651*)
    → "I'm compiling a tome on magic spells. It's almost complete--I just need a page on curses!"
  6: 0x0048 [0x23] WAIT_FOR_DIALOG_INTERACTION
  7: 0x0049 [0x5E] EventEntity goes idle (kills current action) (animation: "idl0")
  8: 0x004E [0x1D] PRINT_EVENT_MESSAGE(message_id=7652*)
    → "But curses are scary-wary! They're not for socially upstanding folk like myself! That's where you come in!"
  9: 0x0051 [0x23] WAIT_FOR_DIALOG_INTERACTION
 10: 0x0052 [0x66] LOAD_EXT_SCHEDULER_MAIN: Load scheduler "pas0" with entities [EventEntity, EventEntity], work=40*
 11: 0x0061 [0x1D] PRINT_EVENT_MESSAGE(message_id=7653*)
    → "I need you to carry-harry this $3 to the Quadav stronghold in Beadeaux, and be cursed by both types of statues--the Mutes and the Afflictors!"
 12: 0x0064 [0x23] WAIT_FOR_DIALOG_INTERACTION
 13: 0x0065 [0x1D] PRINT_EVENT_MESSAGE(message_id=7654*)
    → "When that's done, the $3 will have captured their secrets! Bring it back quick-slick, and my tome will be complete!"
 14: 0x0068 [0x23] WAIT_FOR_DIALOG_INTERACTION
 15: 0x0069 [0x21] END_EVENT
 16: 0x006A [0x00] END_REQSTACK()
```

### Event 252

#### Metadata

| Field        | Value    |
|--------------|----------|
| Entrypoint   | 0x006B   |
| Data Size    | 66 bytes |
| Instructions | 12       |

```
      00 01 02 03 04 05 06 07  08 09 0A 0B 0C 0D 0E 0F
      -- -- -- -- -- -- -- --  -- -- -- -- -- -- -- --
0060:                                   42 03 09 10 03             B....
0070: 80 1E F0 FF FF 7F 1D 09  80 23 66 00 80 F8 FF FF  .........#f.....
0080: 7F F8 FF FF 7F 70 61 73  30 1D 0A 80 23 53 F8 FF  .....pas0...#S..
0090: FF 7F F8 FF FF 7F 70 61  73 30 45 0B 80 F0 FF FF  ......pas0E.....
00A0: 7F F0 FF FF 7F 71 73 74  63 0C 80 21 00           .....qstc..!.   
```

#### Opcodes

```
  0: 0x006B [0x42] SET_CLI_EVENT_CANCEL_DATA()
  1: 0x006C [0x03] Work_Zone[9] = 139*
  2: 0x0071 [0x1E] EventEntity looks at LocalPlayer and starts talking
  3: 0x0076 [0x1D] PRINT_EVENT_MESSAGE(message_id=7655*)
    → "Good! The $3 is full! I can finally finish my research! Heh-heh-heh..."
  4: 0x0079 [0x23] WAIT_FOR_DIALOG_INTERACTION
  5: 0x007A [0x66] LOAD_EXT_SCHEDULER_MAIN: Load scheduler "pas0" with entities [EventEntity, EventEntity], work=40*
  6: 0x0089 [0x1D] PRINT_EVENT_MESSAGE(message_id=7656*)
    → "Oh yes, your reward! Here, they're yours, they're yours!"
  7: 0x008C [0x23] WAIT_FOR_DIALOG_INTERACTION
  8: 0x008D [0x53] WAIT_SCHEDULER_TASK: Wait for scheduler "pas0" with entities [EventEntity, EventEntity]
  9: 0x009A [0x45] LOAD_SCHEDULED_TASK: Load scheduler "qstc" with entities [LocalPlayer, LocalPlayer], work=[201*, 0*]
 10: 0x00AB [0x21] END_EVENT
 11: 0x00AC [0x00] END_REQSTACK()
```

### Event 253

#### Metadata

| Field        | Value    |
|--------------|----------|
| Entrypoint   | 0x00AD   |
| Data Size    | 21 bytes |
| Instructions | 5        |

```
      00 01 02 03 04 05 06 07  08 09 0A 0B 0C 0D 0E 0F
      -- -- -- -- -- -- -- --  -- -- -- -- -- -- -- --
00A0:                                         66 00 80               f..
00B0: F8 FF FF 7F F8 FF FF 7F  74 6C 6B 30 1D 0D 80 23  ........tlk0...#
00C0: 21 00                                             !.              
```

#### Opcodes

```
  0: 0x00AD [0x66] LOAD_EXT_SCHEDULER_MAIN: Load scheduler "tlk0" with entities [EventEntity, EventEntity], work=40*
  1: 0x00BC [0x1D] PRINT_EVENT_MESSAGE(message_id=7657*)
    → "My research is nearing completion! Heh-heh-heh..."
  2: 0x00BF [0x23] WAIT_FOR_DIALOG_INTERACTION
  3: 0x00C0 [0x21] END_EVENT
  4: 0x00C1 [0x00] END_REQSTACK()
```
