# 17739786 - Dalzakk

## Common Data

| Field            | Value                    |
|------------------|--------------------------|
| Zone             | Bastok Markets (ID: 235) |
| Block Size       | 552 bytes                |
| Total Events     | 15                       |
| References Count | 48                       |

## List of Events

| Event ID                   | Entrypoint   |   Size |   Instructions |
|----------------------------|--------------|--------|----------------|
| [65535](#event-65535)      | 0x0000       |      1 |              1 |
| [7](#event-7)              | 0x0001       |     12 |              3 |
| [65535.1](#event-655351)   | 0x000D       |     29 |              7 |
| [65535.2](#event-655352)   | 0x002A       |      6 |              2 |
| [65535.3](#event-655353)   | 0x0030       |     22 |              6 |
| [65535.4](#event-655354)   | 0x0046       |     14 |              4 |
| [65535.5](#event-655355)   | 0x0054       |     17 |              5 |
| [243](#event-243)          | 0x0065       |     10 |              2 |
| [65535.6](#event-655356)   | 0x006F       |     55 |             11 |
| [65535.7](#event-655357)   | 0x00A6       |     19 |              5 |
| [65535.8](#event-655358)   | 0x00B9       |     32 |              8 |
| [65535.9](#event-655359)   | 0x00D9       |     27 |              8 |
| [1008](#event-1008)        | 0x00F4       |      1 |              1 |
| [1009](#event-1009)        | 0x00F5       |      1 |              1 |
| [65535.10](#event-6553510) | 0x00F6       |     36 |              8 |

## DAT References (imed_data)

|   Index | Hex Value   |   Dec Value |
|---------|-------------|-------------|
|       0 | 0xFFFBD450  |  4294693968 |
|       1 | 0xFFFE9A4E  |  4294875726 |
|       2 | 0xFFFFD098  |  4294955160 |
|       3 | 0x0735      |        1845 |
|       4 | 0x003C      |          60 |
|       5 | 0x000D      |          13 |
|       6 | 0xFFFBCB29  |  4294691625 |
|       7 | 0xFFFE9E88  |  4294876808 |
|       8 | 0x001E      |          30 |
|       9 | 0xFFFBC688  |  4294690440 |
|      10 | 0xFFFE9EE6  |  4294876902 |
|      11 | 0xFFFBC2A2  |  4294689442 |
|      12 | 0xFFFE9DC1  |  4294876609 |
|      13 | 0xFFFBBA7A  |  4294687354 |
|      14 | 0xFFFE8184  |  4294869380 |
|      15 | 0xFFFFD121  |  4294955297 |
|      16 | 0xFFFB344D  |  4294653005 |
|      17 | 0xFFFD8C6B  |  4294806635 |
|      18 | 0xFFFFC450  |  4294952016 |
|      19 | 0x0149      |         329 |
|      20 | 0xFFFB3A05  |  4294654469 |
|      21 | 0xFFFD8403  |  4294804483 |
|      22 | 0xFFFFC215  |  4294951445 |
|      23 | 0x02DD      |         733 |
|      24 | 0xFFFB39F0  |  4294654448 |
|      25 | 0xFFFD75C9  |  4294800841 |
|      26 | 0xFFFB2FA2  |  4294651810 |
|      27 | 0xFFFD6DC6  |  4294798790 |
|      28 | 0xFFFFC1B4  |  4294951348 |
|      29 | 0xFFFB2A7E  |  4294650494 |
|      30 | 0xFFFD68A8  |  4294797480 |
|      31 | 0xFFFB1A31  |  4294646321 |
|      32 | 0xFFFD5FE5  |  4294795237 |
|      33 | 0xFFFB21BD  |  4294648253 |
|      34 | 0xFFFD6C85  |  4294798469 |
|      35 | 0xFFFB2422  |  4294648866 |
|      36 | 0xFFFD6DA3  |  4294798755 |
|      37 | 0xFFFB2D72  |  4294651250 |
|      38 | 0xFFFD6A11  |  4294797841 |
|      39 | 0xFFFB3FB3  |  4294655923 |
|      40 | 0xFFFD7A45  |  4294801989 |
|      41 | 0xFFFA801E  |  4294606878 |
|      42 | 0xFFFD5B5B  |  4294794075 |
|      43 | 0xFFFFD8EE  |  4294957294 |
|      44 | 0x0B49      |        2889 |
|      45 | 0xFFFA7F98  |  4294606744 |
|      46 | 0xFFFD6781  |  4294797185 |
|      47 | 0xFFFFD8E5  |  4294957285 |

## Events

### Event 65535

#### Metadata

| Field        | Value   |
|--------------|---------|
| Entrypoint   | 0x0000  |
| Data Size    | 1 bytes |
| Instructions | 1       |

```
      00 01 02 03 04 05 06 07  08 09 0A 0B 0C 0D 0E 0F
      -- -- -- -- -- -- -- --  -- -- -- -- -- -- -- --
0000: 00                                                .               
```

#### Opcodes

```
  0: 0x0000 [0x00] END_REQSTACK()
```

### Event 7

#### Metadata

| Field        | Value    |
|--------------|----------|
| Entrypoint   | 0x0001   |
| Data Size    | 12 bytes |
| Instructions | 3        |

```
      00 01 02 03 04 05 06 07  08 09 0A 0B 0C 0D 0E 0F
      -- -- -- -- -- -- -- --  -- -- -- -- -- -- -- --
0000:    37 00 80 01 80 02 80  03 80 22 01 00            7........"..   
```

#### Opcodes

```
  0: 0x0001 [0x37] UPDATE_EVENT_POSITION_AND_DIR: x=-273.328*, z=-91.570*, y=-12.136*, direction=162.2째*
  1: 0x000A [0x22] ENTITY_HIDE_FLAG(enabled=0x01)
  2: 0x000C [0x00] END_REQSTACK()
```

### Event 65535.1

#### Metadata

| Field        | Value    |
|--------------|----------|
| Entrypoint   | 0x000D   |
| Data Size    | 29 bytes |
| Instructions | 7        |

```
      00 01 02 03 04 05 06 07  08 09 0A 0B 0C 0D 0E 0F
      -- -- -- -- -- -- -- --  -- -- -- -- -- -- -- --
0000:                                         1C 04 80               ...
0010: 22 00 32 05 80 1F 00 06  80 07 80 02 80 1F 01 79  ".2............y
0020: 00 F8 FF FF 7F 05 B0 0E  01 00                    ..........      
```

#### Opcodes

```
  0: 0x000D [0x1C] WAIT(60* ticks)
  1: 0x0010 [0x22] ENTITY_HIDE_FLAG(enabled=0x00)
  2: 0x0012 [0x32] ExtData[1]->MainSpeed = 13* * 0.1
  3: 0x0015 [0x1F] MOVE_ENTITY: EventEntity moves to X=-275.671*, Z=-90.488*, Y=-12.136*
  4: 0x001D [0x1F] MOVE_ENTITY: Update entity position (mode=1)
  5: 0x001F [0x79] EventEntity looks at Gwill (ID: 17739781/0x010EB005) (Basic look)
  6: 0x0029 [0x00] END_REQSTACK()
```

### Event 65535.2

#### Metadata

| Field        | Value   |
|--------------|---------|
| Entrypoint   | 0x002A  |
| Data Size    | 6 bytes |
| Instructions | 2       |

```
      00 01 02 03 04 05 06 07  08 09 0A 0B 0C 0D 0E 0F
      -- -- -- -- -- -- -- --  -- -- -- -- -- -- -- --
0020:                                5E 69 64 6C 65 00            ^idle.
```

#### Opcodes

```
  0: 0x002A [0x5E] EventEntity goes idle (kills current action) (animation: "idle")
  1: 0x002F [0x00] END_REQSTACK()
```

### Event 65535.3

#### Metadata

| Field        | Value    |
|--------------|----------|
| Entrypoint   | 0x0030   |
| Data Size    | 22 bytes |
| Instructions | 6        |

```
      00 01 02 03 04 05 06 07  08 09 0A 0B 0C 0D 0E 0F
      -- -- -- -- -- -- -- --  -- -- -- -- -- -- -- --
0030: 32 05 80 1C 08 80 1F 00  09 80 0A 80 02 80 1F 01  2...............
0040: 1E F0 FF FF 7F 00                                 ......          
```

#### Opcodes

```
  0: 0x0030 [0x32] ExtData[1]->MainSpeed = 13* * 0.1
  1: 0x0033 [0x1C] WAIT(30* ticks)
  2: 0x0036 [0x1F] MOVE_ENTITY: EventEntity moves to X=-276.856*, Z=-90.394*, Y=-12.136*
  3: 0x003E [0x1F] MOVE_ENTITY: Update entity position (mode=1)
  4: 0x0040 [0x1E] EventEntity looks at LocalPlayer and starts talking
  5: 0x0045 [0x00] END_REQSTACK()
```

### Event 65535.4

#### Metadata

| Field        | Value    |
|--------------|----------|
| Entrypoint   | 0x0046   |
| Data Size    | 14 bytes |
| Instructions | 4        |

```
      00 01 02 03 04 05 06 07  08 09 0A 0B 0C 0D 0E 0F
      -- -- -- -- -- -- -- --  -- -- -- -- -- -- -- --
0040:                   32 05  80 1F 00 0B 80 0C 80 02        2.........
0050: 80 1F 01 00                                       ....            
```

#### Opcodes

```
  0: 0x0046 [0x32] ExtData[1]->MainSpeed = 13* * 0.1
  1: 0x0049 [0x1F] MOVE_ENTITY: EventEntity moves to X=-277.854*, Z=-90.687*, Y=-12.136*
  2: 0x0051 [0x1F] MOVE_ENTITY: Update entity position (mode=1)
  3: 0x0053 [0x00] END_REQSTACK()
```

### Event 65535.5

#### Metadata

| Field        | Value    |
|--------------|----------|
| Entrypoint   | 0x0054   |
| Data Size    | 17 bytes |
| Instructions | 5        |

```
      00 01 02 03 04 05 06 07  08 09 0A 0B 0C 0D 0E 0F
      -- -- -- -- -- -- -- --  -- -- -- -- -- -- -- --
0050:             32 05 80 1C  04 80 1F 00 0D 80 0E 80      2...........
0060: 0F 80 1F 01 00                                    .....           
```

#### Opcodes

```
  0: 0x0054 [0x32] ExtData[1]->MainSpeed = 13* * 0.1
  1: 0x0057 [0x1C] WAIT(60* ticks)
  2: 0x005A [0x1F] MOVE_ENTITY: EventEntity moves to X=-279.942*, Z=-97.916*, Y=-11.999*
  3: 0x0062 [0x1F] MOVE_ENTITY: Update entity position (mode=1)
  4: 0x0064 [0x00] END_REQSTACK()
```

### Event 243

#### Metadata

| Field        | Value    |
|--------------|----------|
| Entrypoint   | 0x0065   |
| Data Size    | 10 bytes |
| Instructions | 2        |

```
      00 01 02 03 04 05 06 07  08 09 0A 0B 0C 0D 0E 0F
      -- -- -- -- -- -- -- --  -- -- -- -- -- -- -- --
0060:                37 10 80  11 80 12 80 13 80 00          7......... 
```

#### Opcodes

```
  0: 0x0065 [0x37] UPDATE_EVENT_POSITION_AND_DIR: x=-314.291*, z=-160.661*, y=-15.280*, direction=28.9째*
  1: 0x006E [0x00] END_REQSTACK()
```

### Event 65535.6

#### Metadata

| Field        | Value    |
|--------------|----------|
| Entrypoint   | 0x006F   |
| Data Size    | 55 bytes |
| Instructions | 11       |

```
      00 01 02 03 04 05 06 07  08 09 0A 0B 0C 0D 0E 0F
      -- -- -- -- -- -- -- --  -- -- -- -- -- -- -- --
0060:                                               22                 "
0070: 00 32 05 80 37 14 80 15  80 16 80 17 80 1F 00 18  .2..7...........
0080: 80 19 80 16 80 1F 01 1F  00 1A 80 1B 80 1C 80 1F  ................
0090: 01 79 00 F8 FF FF 7F 2C  B0 0E 01 1F 00 1D 80 1E  .y.....,........
00A0: 80 1C 80 1F 01 00                                 ......          
```

#### Opcodes

```
  0: 0x006F [0x22] ENTITY_HIDE_FLAG(enabled=0x00)
  1: 0x0071 [0x32] ExtData[1]->MainSpeed = 13* * 0.1
  2: 0x0074 [0x37] UPDATE_EVENT_POSITION_AND_DIR: x=-312.827*, z=-162.813*, y=-15.851*, direction=64.4째*
  3: 0x007D [0x1F] MOVE_ENTITY: EventEntity moves to X=-312.848*, Z=-166.455*, Y=-15.851*
  4: 0x0085 [0x1F] MOVE_ENTITY: Update entity position (mode=1)
  5: 0x0087 [0x1F] MOVE_ENTITY: EventEntity moves to X=-315.486*, Z=-168.506*, Y=-15.948*
  6: 0x008F [0x1F] MOVE_ENTITY: Update entity position (mode=1)
  7: 0x0091 [0x79] EventEntity looks at Michea (ID: 17739820/0x010EB02C) (Basic look)
  8: 0x009B [0x1F] MOVE_ENTITY: EventEntity moves to X=-316.802*, Z=-169.816*, Y=-15.948*
  9: 0x00A3 [0x1F] MOVE_ENTITY: Update entity position (mode=1)
 10: 0x00A5 [0x00] END_REQSTACK()
```

### Event 65535.7

#### Metadata

| Field        | Value    |
|--------------|----------|
| Entrypoint   | 0x00A6   |
| Data Size    | 19 bytes |
| Instructions | 5        |

```
      00 01 02 03 04 05 06 07  08 09 0A 0B 0C 0D 0E 0F
      -- -- -- -- -- -- -- --  -- -- -- -- -- -- -- --
00A0:                   32 05  80 7B F8 FF FF 7F 1F 00        2..{......
00B0: 1F 80 20 80 1C 80 1F 01  00                       .. ......       
```

#### Opcodes

```
  0: 0x00A6 [0x32] ExtData[1]->MainSpeed = 13* * 0.1
  1: 0x00A9 [0x7B] EventEntity stops talking
  2: 0x00AE [0x1F] MOVE_ENTITY: EventEntity moves to X=-320.975*, Z=-172.059*, Y=-15.948*
  3: 0x00B6 [0x1F] MOVE_ENTITY: Update entity position (mode=1)
  4: 0x00B8 [0x00] END_REQSTACK()
```

### Event 65535.8

#### Metadata

| Field        | Value    |
|--------------|----------|
| Entrypoint   | 0x00B9   |
| Data Size    | 32 bytes |
| Instructions | 8        |

```
      00 01 02 03 04 05 06 07  08 09 0A 0B 0C 0D 0E 0F
      -- -- -- -- -- -- -- --  -- -- -- -- -- -- -- --
00B0:                             32 05 80 5E 69 64 6C           2..^idl
00C0: 30 1C 08 80 1F 00 21 80  22 80 1C 80 1F 01 1F 00  0.....!.".......
00D0: 23 80 24 80 1C 80 1F 01  00                       #.$......       
```

#### Opcodes

```
  0: 0x00B9 [0x32] ExtData[1]->MainSpeed = 13* * 0.1
  1: 0x00BC [0x5E] EventEntity goes idle (kills current action) (animation: "idl0")
  2: 0x00C1 [0x1C] WAIT(30* ticks)
  3: 0x00C4 [0x1F] MOVE_ENTITY: EventEntity moves to X=-319.043*, Z=-168.827*, Y=-15.948*
  4: 0x00CC [0x1F] MOVE_ENTITY: Update entity position (mode=1)
  5: 0x00CE [0x1F] MOVE_ENTITY: EventEntity moves to X=-318.430*, Z=-168.541*, Y=-15.948*
  6: 0x00D6 [0x1F] MOVE_ENTITY: Update entity position (mode=1)
  7: 0x00D8 [0x00] END_REQSTACK()
```

### Event 65535.9

#### Metadata

| Field        | Value    |
|--------------|----------|
| Entrypoint   | 0x00D9   |
| Data Size    | 27 bytes |
| Instructions | 8        |

```
      00 01 02 03 04 05 06 07  08 09 0A 0B 0C 0D 0E 0F
      -- -- -- -- -- -- -- --  -- -- -- -- -- -- -- --
00D0:                             32 05 80 1F 00 25 80           2....%.
00E0: 26 80 1C 80 1F 01 1F 00  27 80 28 80 16 80 1F 01  &.......'.(.....
00F0: 6F 22 01 00                                       o"..            
```

#### Opcodes

```
  0: 0x00D9 [0x32] ExtData[1]->MainSpeed = 13* * 0.1
  1: 0x00DC [0x1F] MOVE_ENTITY: EventEntity moves to X=-316.046*, Z=-169.455*, Y=-15.948*
  2: 0x00E4 [0x1F] MOVE_ENTITY: Update entity position (mode=1)
  3: 0x00E6 [0x1F] MOVE_ENTITY: EventEntity moves to X=-311.373*, Z=-165.307*, Y=-15.851*
  4: 0x00EE [0x1F] MOVE_ENTITY: Update entity position (mode=1)
  5: 0x00F0 [0x6F] WAIT_FRAME_DELAY: Yield until WaitTime reaches zero
  6: 0x00F1 [0x22] ENTITY_HIDE_FLAG(enabled=0x01)
  7: 0x00F3 [0x00] END_REQSTACK()
```

### Event 1008

#### Metadata

| Field        | Value   |
|--------------|---------|
| Entrypoint   | 0x00F4  |
| Data Size    | 1 bytes |
| Instructions | 1       |

```
      00 01 02 03 04 05 06 07  08 09 0A 0B 0C 0D 0E 0F
      -- -- -- -- -- -- -- --  -- -- -- -- -- -- -- --
00F0:             00                                        .           
```

#### Opcodes

```
  0: 0x00F4 [0x00] END_REQSTACK()
```

### Event 1009

#### Metadata

| Field        | Value   |
|--------------|---------|
| Entrypoint   | 0x00F5  |
| Data Size    | 1 bytes |
| Instructions | 1       |

```
      00 01 02 03 04 05 06 07  08 09 0A 0B 0C 0D 0E 0F
      -- -- -- -- -- -- -- --  -- -- -- -- -- -- -- --
00F0:                00                                      .          
```

#### Opcodes

```
  0: 0x00F5 [0x00] END_REQSTACK()
```

### Event 65535.10

#### Metadata

| Field        | Value    |
|--------------|----------|
| Entrypoint   | 0x00F6   |
| Data Size    | 36 bytes |
| Instructions | 8        |

```
      00 01 02 03 04 05 06 07  08 09 0A 0B 0C 0D 0E 0F
      -- -- -- -- -- -- -- --  -- -- -- -- -- -- -- --
00F0:                   22 00  32 05 80 37 29 80 2A 80        ".2..7).*.
0100: 2B 80 2C 80 79 00 F8 FF  FF 7F 33 B0 0E 01 1F 00  +.,.y.....3.....
0110: 2D 80 2E 80 2F 80 1F 01  6F 00                    -.../...o.      
```

#### Opcodes

```
  0: 0x00F6 [0x22] ENTITY_HIDE_FLAG(enabled=0x00)
  1: 0x00F8 [0x32] ExtData[1]->MainSpeed = 13* * 0.1
  2: 0x00FB [0x37] UPDATE_EVENT_POSITION_AND_DIR: x=-360.418*, z=-173.221*, y=-10.002*, direction=253.9째*
  3: 0x0104 [0x79] EventEntity looks at Cleades (ID: 17739827/0x010EB033) (Basic look)
  4: 0x010E [0x1F] MOVE_ENTITY: EventEntity moves to X=-360.552*, Z=-170.111*, Y=-10.011*
  5: 0x0116 [0x1F] MOVE_ENTITY: Update entity position (mode=1)
  6: 0x0118 [0x6F] WAIT_FRAME_DELAY: Yield until WaitTime reaches zero
  7: 0x0119 [0x00] END_REQSTACK()
```
