# 17739816 - Rothais

## Common Data

| Field            | Value                    |
|------------------|--------------------------|
| Zone             | Bastok Markets (ID: 235) |
| Block Size       | 124 bytes                |
| Total Events     | 5                        |
| References Count | 7                        |

## List of Events

| Event ID              | Entrypoint   |   Size |   Instructions |
|-----------------------|--------------|--------|----------------|
| [65535](#event-65535) | 0x0000       |      1 |              1 |
| [204](#event-204)     | 0x0001       |     16 |              6 |
| [205](#event-205)     | 0x0011       |     16 |              6 |
| [206](#event-206)     | 0x0021       |     16 |              6 |
| [122](#event-122)     | 0x0031       |     11 |              5 |

## DAT References (imed_data)

|   Index | Hex Value   |   Dec Value |
|---------|-------------|-------------|
|       0 | 0x1116      |        4374 |
|       1 | 0x1D71      |        7537 |
|       2 | 0x03B9      |         953 |
|       3 | 0x1D72      |        7538 |
|       4 | 0x1123      |        4387 |
|       5 | 0x1D73      |        7539 |
|       6 | 0x1D74      |        7540 |

## String References

- **7537**: Breakfast, breakfast, I wonder what's for breakfast?t Maybe, maybe, just maybe, a salad with $7?t
- **7538**: Lunch, lunch, lunch, lunch, I wonder what's for lunch?t Maybe, maybe, just maybe, a stew with $7?t
- **7539**: Dinner, dinner, I wonder what's for dinner?t Maybe, maybe, just maybe, delicious, saut<Player>ied $7?t
- **7540**: Mom is cooking, la, la, la.t But I'm just looking, la, la, la.t

## Events

### Event 65535

#### Metadata

| Field        | Value   |
|--------------|---------|
| Entrypoint   | 0x0000  |
| Data Size    | 1 bytes |
| Instructions | 1       |

```
      00 01 02 03 04 05 06 07  08 09 0A 0B 0C 0D 0E 0F
      -- -- -- -- -- -- -- --  -- -- -- -- -- -- -- --
0000: 00                                                .               
```

#### Opcodes

```
  0: 0x0000 [0x00] END_REQSTACK()
```

### Event 204

#### Metadata

| Field        | Value    |
|--------------|----------|
| Entrypoint   | 0x0001   |
| Data Size    | 16 bytes |
| Instructions | 6        |

```
      00 01 02 03 04 05 06 07  08 09 0A 0B 0C 0D 0E 0F
      -- -- -- -- -- -- -- --  -- -- -- -- -- -- -- --
0000:    1E F0 FF FF 7F 03 09  10 00 80 1D 01 80 23 21   .............#!
0010: 00                                                .               
```

#### Opcodes

```
  0: 0x0001 [0x1E] EventEntity looks at LocalPlayer and starts talking
  1: 0x0006 [0x03] Work_Zone[9] = 4374*
  2: 0x000B [0x1D] PRINT_EVENT_MESSAGE(message_id=7537*)
    → "Breakfast, breakfast, I wonder what's for breakfast?t Maybe, maybe, just maybe, a salad with $7?t"
  3: 0x000E [0x23] WAIT_FOR_DIALOG_INTERACTION
  4: 0x000F [0x21] END_EVENT
  5: 0x0010 [0x00] END_REQSTACK()
```

### Event 205

#### Metadata

| Field        | Value    |
|--------------|----------|
| Entrypoint   | 0x0011   |
| Data Size    | 16 bytes |
| Instructions | 6        |

```
      00 01 02 03 04 05 06 07  08 09 0A 0B 0C 0D 0E 0F
      -- -- -- -- -- -- -- --  -- -- -- -- -- -- -- --
0010:    1E F0 FF FF 7F 03 09  10 02 80 1D 03 80 23 21   .............#!
0020: 00                                                .               
```

#### Opcodes

```
  0: 0x0011 [0x1E] EventEntity looks at LocalPlayer and starts talking
  1: 0x0016 [0x03] Work_Zone[9] = 953*
  2: 0x001B [0x1D] PRINT_EVENT_MESSAGE(message_id=7538*)
    → "Lunch, lunch, lunch, lunch, I wonder what's for lunch?t Maybe, maybe, just maybe, a stew with $7?t"
  3: 0x001E [0x23] WAIT_FOR_DIALOG_INTERACTION
  4: 0x001F [0x21] END_EVENT
  5: 0x0020 [0x00] END_REQSTACK()
```

### Event 206

#### Metadata

| Field        | Value    |
|--------------|----------|
| Entrypoint   | 0x0021   |
| Data Size    | 16 bytes |
| Instructions | 6        |

```
      00 01 02 03 04 05 06 07  08 09 0A 0B 0C 0D 0E 0F
      -- -- -- -- -- -- -- --  -- -- -- -- -- -- -- --
0020:    1E F0 FF FF 7F 03 09  10 04 80 1D 05 80 23 21   .............#!
0030: 00                                                .               
```

#### Opcodes

```
  0: 0x0021 [0x1E] EventEntity looks at LocalPlayer and starts talking
  1: 0x0026 [0x03] Work_Zone[9] = 4387*
  2: 0x002B [0x1D] PRINT_EVENT_MESSAGE(message_id=7539*)
    → "Dinner, dinner, I wonder what's for dinner?t Maybe, maybe, just maybe, delicious, saut<Player>ied $7?t"
  3: 0x002E [0x23] WAIT_FOR_DIALOG_INTERACTION
  4: 0x002F [0x21] END_EVENT
  5: 0x0030 [0x00] END_REQSTACK()
```

### Event 122

#### Metadata

| Field        | Value    |
|--------------|----------|
| Entrypoint   | 0x0031   |
| Data Size    | 11 bytes |
| Instructions | 5        |

```
      00 01 02 03 04 05 06 07  08 09 0A 0B 0C 0D 0E 0F
      -- -- -- -- -- -- -- --  -- -- -- -- -- -- -- --
0030:    1E F0 FF FF 7F 1D 06  80 23 21 00               ........#!.    
```

#### Opcodes

```
  0: 0x0031 [0x1E] EventEntity looks at LocalPlayer and starts talking
  1: 0x0036 [0x1D] PRINT_EVENT_MESSAGE(message_id=7540*)
    → "Mom is cooking, la, la, la.t But I'm just looking, la, la, la.t"
  2: 0x0039 [0x23] WAIT_FOR_DIALOG_INTERACTION
  3: 0x003A [0x21] END_EVENT
  4: 0x003B [0x00] END_REQSTACK()
```
