# 17739893 - Ken

## Common Data

| Field            | Value                    |
|------------------|--------------------------|
| Zone             | Bastok Markets (ID: 235) |
| Block Size       | 376 bytes                |
| Total Events     | 14                       |
| References Count | 12                       |

## List of Events

| Event ID              | Entrypoint   |   Size |   Instructions |
|-----------------------|--------------|--------|----------------|
| [65535](#event-65535) | 0x0000       |      1 |              1 |
| [361](#event-361)     | 0x0001       |      1 |              1 |
| [362](#event-362)     | 0x0002       |      1 |              1 |
| [363](#event-363)     | 0x0003       |      1 |              1 |
| [367](#event-367)     | 0x0004       |     31 |              9 |
| [370](#event-370)     | 0x0023       |     31 |              9 |
| [368](#event-368)     | 0x0042       |     24 |              6 |
| [369](#event-369)     | 0x005A       |     31 |              9 |
| [371](#event-371)     | 0x0079       |     66 |             10 |
| [432](#event-432)     | 0x00BB       |     65 |             15 |
| [24](#event-24)       | 0x00FC       |      1 |              1 |
| [586](#event-586)     | 0x00FD       |      1 |              1 |
| [587](#event-587)     | 0x00FE       |      1 |              1 |
| [595](#event-595)     | 0x00FF       |      1 |              1 |

## DAT References (imed_data)

|   Index | Hex Value   |   Dec Value |
|---------|-------------|-------------|
|       0 | 0x0009      |           9 |
|       1 | 0x2118      |        8472 |
|       2 | 0x2127      |        8487 |
|       3 | 0x2120      |        8480 |
|       4 | 0x2121      |        8481 |
|       5 | 0x2129      |        8489 |
|       6 | 0x23F6      |        9206 |
|       7 | 0x001E      |          30 |
|       8 | 0x2401      |        9217 |
|       9 | 0x000B      |          11 |
|      10 | 0x2402      |        9218 |
|      11 | 0x2403      |        9219 |

## String References

- **8472**: Hmph... You can tag along if you like--just don't get in my way!
- **8480**: Sis, would you stop worrying!?
- **8481**: Cheat!? Who's a cheat!? I didn't cheat! Where's their proof!?
- **8487**: That test was a piece of cake! If that's all the Republican Army has to offer, I'll be a seven-star admiral in no time!
- **8489**: Don't worry, Sis. I'll get in the academy for sure!
- **9206**: <Player>'s badge flashes brightly.
- **9217**: Maybe being a mercenary is more up my alley than the military academy...
- **9219**: Oh, come on! I can take care of myself! You're too much, Sis!

## Events

### Event 65535

#### Metadata

| Field        | Value   |
|--------------|---------|
| Entrypoint   | 0x0000  |
| Data Size    | 1 bytes |
| Instructions | 1       |

```
      00 01 02 03 04 05 06 07  08 09 0A 0B 0C 0D 0E 0F
      -- -- -- -- -- -- -- --  -- -- -- -- -- -- -- --
0000: 00                                                .               
```

#### Opcodes

```
  0: 0x0000 [0x00] END_REQSTACK()
```

### Event 361

#### Metadata

| Field        | Value   |
|--------------|---------|
| Entrypoint   | 0x0001  |
| Data Size    | 1 bytes |
| Instructions | 1       |

```
      00 01 02 03 04 05 06 07  08 09 0A 0B 0C 0D 0E 0F
      -- -- -- -- -- -- -- --  -- -- -- -- -- -- -- --
0000:    00                                              .              
```

#### Opcodes

```
  0: 0x0001 [0x00] END_REQSTACK()
```

### Event 362

#### Metadata

| Field        | Value   |
|--------------|---------|
| Entrypoint   | 0x0002  |
| Data Size    | 1 bytes |
| Instructions | 1       |

```
      00 01 02 03 04 05 06 07  08 09 0A 0B 0C 0D 0E 0F
      -- -- -- -- -- -- -- --  -- -- -- -- -- -- -- --
0000:       00                                            .             
```

#### Opcodes

```
  0: 0x0002 [0x00] END_REQSTACK()
```

### Event 363

#### Metadata

| Field        | Value   |
|--------------|---------|
| Entrypoint   | 0x0003  |
| Data Size    | 1 bytes |
| Instructions | 1       |

```
      00 01 02 03 04 05 06 07  08 09 0A 0B 0C 0D 0E 0F
      -- -- -- -- -- -- -- --  -- -- -- -- -- -- -- --
0000:          00                                          .            
```

#### Opcodes

```
  0: 0x0003 [0x00] END_REQSTACK()
```

### Event 367

#### Metadata

| Field        | Value    |
|--------------|----------|
| Entrypoint   | 0x0004   |
| Data Size    | 31 bytes |
| Instructions | 9        |

```
      00 01 02 03 04 05 06 07  08 09 0A 0B 0C 0D 0E 0F
      -- -- -- -- -- -- -- --  -- -- -- -- -- -- -- --
0000:             1E F0 FF FF  7F 6F 70 66 00 80 F8 FF      .....opf....
0010: FF 7F F8 FF FF 7F 74 6C  6B 30 1D 01 80 23 1A 91  ......tlk0...#..
0020: 00 21 00                                          .!.             
```

#### Opcodes

```
  0: 0x0004 [0x1E] EventEntity looks at LocalPlayer and starts talking
  1: 0x0009 [0x6F] WAIT_FRAME_DELAY: Yield until WaitTime reaches zero
  2: 0x000A [0x70] WAIT_ENTITY_RENDER_FLAG: Wait while EventEntity->Render.Flags3 bit 2 is set (cancel turn if not)
  3: 0x000B [0x66] LOAD_EXT_SCHEDULER_MAIN: Load scheduler "tlk0" with entities [EventEntity, EventEntity], work=9*
  4: 0x001A [0x1D] PRINT_EVENT_MESSAGE(message_id=8472*)
    → "Hmph... You can tag along if you like--just don't get in my way!"
  5: 0x001D [0x23] WAIT_FOR_DIALOG_INTERACTION
  6: 0x001E [0x1A] CALL_SUBROUTINE(address=0x0091)
  7: 0x0021 [0x21] END_EVENT
  8: 0x0022 [0x00] END_REQSTACK()
```

### Event 370

#### Metadata

| Field        | Value    |
|--------------|----------|
| Entrypoint   | 0x0023   |
| Data Size    | 31 bytes |
| Instructions | 9        |

```
      00 01 02 03 04 05 06 07  08 09 0A 0B 0C 0D 0E 0F
      -- -- -- -- -- -- -- --  -- -- -- -- -- -- -- --
0020:          1E F0 FF FF 7F  6F 70 66 00 80 F8 FF FF     .....opf.....
0030: 7F F8 FF FF 7F 74 6C 6B  30 1D 02 80 23 1A 91 00  .....tlk0...#...
0040: 21 00                                             !.              
```

#### Opcodes

```
  0: 0x0023 [0x1E] EventEntity looks at LocalPlayer and starts talking
  1: 0x0028 [0x6F] WAIT_FRAME_DELAY: Yield until WaitTime reaches zero
  2: 0x0029 [0x70] WAIT_ENTITY_RENDER_FLAG: Wait while EventEntity->Render.Flags3 bit 2 is set (cancel turn if not)
  3: 0x002A [0x66] LOAD_EXT_SCHEDULER_MAIN: Load scheduler "tlk0" with entities [EventEntity, EventEntity], work=9*
  4: 0x0039 [0x1D] PRINT_EVENT_MESSAGE(message_id=8487*)
    → "That test was a piece of cake! If that's all the Republican Army has to offer, I'll be a seven-star admiral in no time!"
  5: 0x003C [0x23] WAIT_FOR_DIALOG_INTERACTION
  6: 0x003D [0x1A] CALL_SUBROUTINE(address=0x0091)
  7: 0x0040 [0x21] END_EVENT
  8: 0x0041 [0x00] END_REQSTACK()
```

### Event 368

#### Metadata

| Field        | Value    |
|--------------|----------|
| Entrypoint   | 0x0042   |
| Data Size    | 24 bytes |
| Instructions | 6        |

```
      00 01 02 03 04 05 06 07  08 09 0A 0B 0C 0D 0E 0F
      -- -- -- -- -- -- -- --  -- -- -- -- -- -- -- --
0040:       66 00 80 F8 FF FF  7F F8 FF FF 7F 74 6C 6B    f..........tlk
0050: 30 1D 03 80 23 1A 91 00  21 00                    0...#...!.      
```

#### Opcodes

```
  0: 0x0042 [0x66] LOAD_EXT_SCHEDULER_MAIN: Load scheduler "tlk0" with entities [EventEntity, EventEntity], work=9*
  1: 0x0051 [0x1D] PRINT_EVENT_MESSAGE(message_id=8480*)
    → "Sis, would you stop worrying!?"
  2: 0x0054 [0x23] WAIT_FOR_DIALOG_INTERACTION
  3: 0x0055 [0x1A] CALL_SUBROUTINE(address=0x0091)
  4: 0x0058 [0x21] END_EVENT
  5: 0x0059 [0x00] END_REQSTACK()
```

### Event 369

#### Metadata

| Field        | Value    |
|--------------|----------|
| Entrypoint   | 0x005A   |
| Data Size    | 31 bytes |
| Instructions | 9        |

```
      00 01 02 03 04 05 06 07  08 09 0A 0B 0C 0D 0E 0F
      -- -- -- -- -- -- -- --  -- -- -- -- -- -- -- --
0050:                                1E F0 FF FF 7F 6F            .....o
0060: 70 66 00 80 F8 FF FF 7F  F8 FF FF 7F 74 6C 6B 30  pf..........tlk0
0070: 1D 04 80 23 1A 91 00 21  00                       ...#...!.       
```

#### Opcodes

```
  0: 0x005A [0x1E] EventEntity looks at LocalPlayer and starts talking
  1: 0x005F [0x6F] WAIT_FRAME_DELAY: Yield until WaitTime reaches zero
  2: 0x0060 [0x70] WAIT_ENTITY_RENDER_FLAG: Wait while EventEntity->Render.Flags3 bit 2 is set (cancel turn if not)
  3: 0x0061 [0x66] LOAD_EXT_SCHEDULER_MAIN: Load scheduler "tlk0" with entities [EventEntity, EventEntity], work=9*
  4: 0x0070 [0x1D] PRINT_EVENT_MESSAGE(message_id=8481*)
    → "Cheat!? Who's a cheat!? I didn't cheat! Where's their proof!?"
  5: 0x0073 [0x23] WAIT_FOR_DIALOG_INTERACTION
  6: 0x0074 [0x1A] CALL_SUBROUTINE(address=0x0091)
  7: 0x0077 [0x21] END_EVENT
  8: 0x0078 [0x00] END_REQSTACK()
```

### Event 371

#### Metadata

| Field        | Value    |
|--------------|----------|
| Entrypoint   | 0x0079   |
| Data Size    | 66 bytes |
| Instructions | 10       |

```
      00 01 02 03 04 05 06 07  08 09 0A 0B 0C 0D 0E 0F
      -- -- -- -- -- -- -- --  -- -- -- -- -- -- -- --
0070:                             66 00 80 F8 FF FF 7F           f......
0080: F8 FF FF 7F 74 6C 6B 30  1D 05 80 23 1A 91 00 21  ....tlk0...#...!
0090: 00 53 F8 FF FF 7F F8 FF  FF 7F 74 6C 6B 30 66 00  .S........tlk0f.
00A0: 80 F8 FF FF 7F F8 FF FF  7F 74 6C 6B 31 53 F8 FF  .........tlk1S..
00B0: FF 7F F8 FF FF 7F 74 6C  6B 31 1B                 ......tlk1.     
```

#### Opcodes

```
  0: 0x0079 [0x66] LOAD_EXT_SCHEDULER_MAIN: Load scheduler "tlk0" with entities [EventEntity, EventEntity], work=9*
  1: 0x0088 [0x1D] PRINT_EVENT_MESSAGE(message_id=8489*)
    → "Don't worry, Sis. I'll get in the academy for sure!"
  2: 0x008B [0x23] WAIT_FOR_DIALOG_INTERACTION
  3: 0x008C [0x1A] CALL_SUBROUTINE(address=0x0091)
  4: 0x008F [0x21] END_EVENT
  5: 0x0090 [0x00] END_REQSTACK()

SUBROUTINE_0091:
  6: 0x0091 [0x53] WAIT_SCHEDULER_TASK: Wait for scheduler "tlk0" with entities [EventEntity, EventEntity]
  7: 0x009E [0x66] LOAD_EXT_SCHEDULER_MAIN: Load scheduler "tlk1" with entities [EventEntity, EventEntity], work=9*
  8: 0x00AD [0x53] WAIT_SCHEDULER_TASK: Wait for scheduler "tlk1" with entities [EventEntity, EventEntity]
  9: 0x00BA [0x1B] RETURN
```

### Event 432

#### Metadata

| Field        | Value    |
|--------------|----------|
| Entrypoint   | 0x00BB   |
| Data Size    | 65 bytes |
| Instructions | 15       |

```
      00 01 02 03 04 05 06 07  08 09 0A 0B 0C 0D 0E 0F
      -- -- -- -- -- -- -- --  -- -- -- -- -- -- -- --
00B0:                                   42 48 06 80 1E             BH...
00C0: F0 FF FF 7F 1C 07 80 1D  08 80 23 66 09 80 74 B0  ..........#f..t.
00D0: 0E 01 74 B0 0E 01 61 69  67 30 2B 74 B0 0E 01 0A  ..t...aig0+t....
00E0: 80 23 66 09 80 74 B0 0E  01 74 B0 0E 01 61 69 67  .#f..t...t...aig
00F0: 31 1E 74 B0 0E 01 1D 0B  80 23 21 00              1.t......#!.    
```

#### Opcodes

```
  0: 0x00BB [0x42] SET_CLI_EVENT_CANCEL_DATA()
  1: 0x00BC [0x48] [System] [9206*]:
    → "<Player>'s badge flashes brightly."
  2: 0x00BF [0x1E] EventEntity looks at LocalPlayer and starts talking
  3: 0x00C4 [0x1C] WAIT(30* ticks)
  4: 0x00C7 [0x1D] PRINT_EVENT_MESSAGE(message_id=9217*)
    → "Maybe being a mercenary is more up my alley than the military academy..."
  5: 0x00CA [0x23] WAIT_FOR_DIALOG_INTERACTION
  6: 0x00CB [0x66] LOAD_EXT_SCHEDULER_MAIN: Load scheduler "aig0" with entities [Marin (ID: 17739892/0x010EB074), Marin (ID: 17739892/0x010EB074)], work=11*
  7: 0x00DA [0x2B] Marin (ID: 17739892/0x010EB074) [9218*]:
    → "Wipe that thought from your mind this instant! It gives me goosebumps just thinking about the kind of dangerous places those types venture into! Don't you even try to tell me you'd trade your life in for a bit of gil!"
  8: 0x00E1 [0x23] WAIT_FOR_DIALOG_INTERACTION
  9: 0x00E2 [0x66] LOAD_EXT_SCHEDULER_MAIN: Load scheduler "aig1" with entities [Marin (ID: 17739892/0x010EB074), Marin (ID: 17739892/0x010EB074)], work=11*
 10: 0x00F1 [0x1E] EventEntity looks at Marin (ID: 17739892/0x010EB074) and starts talking
 11: 0x00F6 [0x1D] PRINT_EVENT_MESSAGE(message_id=9219*)
    → "Oh, come on! I can take care of myself! You're too much, Sis!"
 12: 0x00F9 [0x23] WAIT_FOR_DIALOG_INTERACTION
 13: 0x00FA [0x21] END_EVENT
 14: 0x00FB [0x00] END_REQSTACK()
```

### Event 24

#### Metadata

| Field        | Value   |
|--------------|---------|
| Entrypoint   | 0x00FC  |
| Data Size    | 1 bytes |
| Instructions | 1       |

```
      00 01 02 03 04 05 06 07  08 09 0A 0B 0C 0D 0E 0F
      -- -- -- -- -- -- -- --  -- -- -- -- -- -- -- --
00F0:                                      00                       .   
```

#### Opcodes

```
  0: 0x00FC [0x00] END_REQSTACK()
```

### Event 586

#### Metadata

| Field        | Value   |
|--------------|---------|
| Entrypoint   | 0x00FD  |
| Data Size    | 1 bytes |
| Instructions | 1       |

```
      00 01 02 03 04 05 06 07  08 09 0A 0B 0C 0D 0E 0F
      -- -- -- -- -- -- -- --  -- -- -- -- -- -- -- --
00F0:                                         00                     .  
```

#### Opcodes

```
  0: 0x00FD [0x00] END_REQSTACK()
```

### Event 587

#### Metadata

| Field        | Value   |
|--------------|---------|
| Entrypoint   | 0x00FE  |
| Data Size    | 1 bytes |
| Instructions | 1       |

```
      00 01 02 03 04 05 06 07  08 09 0A 0B 0C 0D 0E 0F
      -- -- -- -- -- -- -- --  -- -- -- -- -- -- -- --
00F0:                                            00                   . 
```

#### Opcodes

```
  0: 0x00FE [0x00] END_REQSTACK()
```

### Event 595

#### Metadata

| Field        | Value   |
|--------------|---------|
| Entrypoint   | 0x00FF  |
| Data Size    | 1 bytes |
| Instructions | 1       |

```
      00 01 02 03 04 05 06 07  08 09 0A 0B 0C 0D 0E 0F
      -- -- -- -- -- -- -- --  -- -- -- -- -- -- -- --
00F0:                                               00                 .
```

#### Opcodes

```
  0: 0x00FF [0x00] END_REQSTACK()
```
