# 17739782 - Arawn

## Common Data

| Field            | Value                    |
|------------------|--------------------------|
| Zone             | Bastok Markets (ID: 235) |
| Block Size       | 648 bytes                |
| Total Events     | 19                       |
| References Count | 37                       |

## List of Events

| Event ID                 | Entrypoint   |   Size |   Instructions |
|--------------------------|--------------|--------|----------------|
| [65535](#event-65535)    | 0x0000       |      1 |              1 |
| [0](#event-0)            | 0x0001       |     25 |              3 |
| [7](#event-7)            | 0x001A       |     25 |              3 |
| [65535.1](#event-655351) | 0x0033       |     25 |              7 |
| [65535.2](#event-655352) | 0x004C       |     10 |              2 |
| [65535.3](#event-655353) | 0x0056       |     14 |              4 |
| [65535.4](#event-655354) | 0x0064       |      6 |              2 |
| [65535.5](#event-655355) | 0x006A       |     25 |              7 |
| [65535.6](#event-655356) | 0x0083       |     16 |              5 |
| [114](#event-114)        | 0x0093       |     11 |              5 |
| [225](#event-225)        | 0x009E       |     65 |             13 |
| [226](#event-226)        | 0x00DF       |     60 |             10 |
| [429](#event-429)        | 0x011B       |     85 |             15 |
| [586](#event-586)        | 0x0170       |      1 |              1 |
| [65535.7](#event-655357) | 0x0171       |     11 |              3 |
| [65535.8](#event-655358) | 0x017C       |      4 |              2 |
| [675](#event-675)        | 0x0180       |      7 |              2 |
| [676](#event-676)        | 0x0187       |      7 |              2 |
| [678](#event-678)        | 0x018E       |      7 |              2 |

## DAT References (imed_data)

|   Index | Hex Value   |   Dec Value |
|---------|-------------|-------------|
|       0 | 0xFFFB30D2  |  4294652114 |
|       1 | 0xFFFDF50D  |  4294833421 |
|       2 | 0xFFFFD8ED  |  4294957293 |
|       3 | 0x04A5      |        1189 |
|       4 | 0x004B      |          75 |
|       5 | 0x010E      |         270 |
|       6 | 0x003C      |          60 |
|       7 | 0x0028      |          40 |
|       8 | 0xFFFB67A2  |  4294666146 |
|       9 | 0xFFFE291F  |  4294846751 |
|      10 | 0xFFFBBD35  |  4294688053 |
|      11 | 0xFFFEA2FE  |  4294877950 |
|      12 | 0xFFFFD098  |  4294955160 |
|      13 | 0x000C      |          12 |
|      14 | 0x000D      |          13 |
|      15 | 0xFFFBBEF2  |  4294688498 |
|      16 | 0xFFFEA2FC  |  4294877948 |
|      17 | 0xFFFBC328  |  4294689576 |
|      18 | 0xFFFE9BD0  |  4294876112 |
|      19 | 0x0014      |          20 |
|      20 | 0xFFFBC398  |  4294689688 |
|      21 | 0xFFFE90EE  |  4294873326 |
|      22 | 0xFFFFD120  |  4294955296 |
|      23 | 0x1D58      |        7512 |
|      24 | 0x0066      |         102 |
|      25 | 0x1D59      |        7513 |
|      26 | 0x1D5A      |        7514 |
|      27 | 0x1D5B      |        7515 |
|      28 | 0x000A      |          10 |
|      29 | 0x1D5E      |        7518 |
|      30 | 0x00C9      |         201 |
|      31 | 0x0000      |           0 |
|      32 | 0x23F6      |        9206 |
|      33 | 0x23F9      |        9209 |
|      34 | 0x23FA      |        9210 |
|      35 | 0x23FB      |        9211 |
|      36 | 0x23FC      |        9212 |

## String References

- **7512**: My dad says that in this city, you can do anything as long as you have the money to pay for it!
- **7513**: Emrys is bragging how he's already finished collecting all his stamps! I haven't even started the stamp hunt yet!
- **7515**: Say, can you go do it in my place? I can give you a reward. My family's rich, you know? Here, take my $3.
- **7518**: Thanks! Here you go!
- **9206**: <Player>'s badge flashes brightly.
- **9209**: My dad says that you can do anything as long as you have the money to pay for it!
- **9211**: My family's rich, so I don't have to worry about it, but I bet you could make some as a mercenary! Check it out!
- **9212**: Arawn's badge flashes brightly.

## Events

### Event 65535

#### Metadata

| Field        | Value   |
|--------------|---------|
| Entrypoint   | 0x0000  |
| Data Size    | 1 bytes |
| Instructions | 1       |

```
      00 01 02 03 04 05 06 07  08 09 0A 0B 0C 0D 0E 0F
      -- -- -- -- -- -- -- --  -- -- -- -- -- -- -- --
0000: 00                                                .               
```

#### Opcodes

```
  0: 0x0000 [0x00] END_REQSTACK()
```

### Event 0

#### Metadata

| Field        | Value    |
|--------------|----------|
| Entrypoint   | 0x0001   |
| Data Size    | 25 bytes |
| Instructions | 3        |

```
      00 01 02 03 04 05 06 07  08 09 0A 0B 0C 0D 0E 0F
      -- -- -- -- -- -- -- --  -- -- -- -- -- -- -- --
0000:    37 00 80 01 80 02 80  03 80 5B 04 80 F8 FF FF   7........[.....
0010: 7F F8 FF FF 7F 74 6C 6B  30 00                    .....tlk0.      
```

#### Opcodes

```
  0: 0x0001 [0x37] UPDATE_EVENT_POSITION_AND_DIR: x=-315.182*, z=-133.875*, y=-10.003*, direction=104.5°*
  1: 0x000A [0x5B] LOAD_EXT_SCHEDULER: Load scheduler "tlk0" with entities [EventEntity, EventEntity], work=75*
  2: 0x0019 [0x00] END_REQSTACK()
```

### Event 7

#### Metadata

| Field        | Value    |
|--------------|----------|
| Entrypoint   | 0x001A   |
| Data Size    | 25 bytes |
| Instructions | 3        |

```
      00 01 02 03 04 05 06 07  08 09 0A 0B 0C 0D 0E 0F
      -- -- -- -- -- -- -- --  -- -- -- -- -- -- -- --
0010:                                37 00 80 01 80 02            7.....
0020: 80 03 80 5B 04 80 F8 FF  FF 7F F8 FF FF 7F 74 6C  ...[..........tl
0030: 6B 30 00                                          k0.             
```

#### Opcodes

```
  0: 0x001A [0x37] UPDATE_EVENT_POSITION_AND_DIR: x=-315.182*, z=-133.875*, y=-10.003*, direction=104.5°*
  1: 0x0023 [0x5B] LOAD_EXT_SCHEDULER: Load scheduler "tlk0" with entities [EventEntity, EventEntity], work=75*
  2: 0x0032 [0x00] END_REQSTACK()
```

### Event 65535.1

#### Metadata

| Field        | Value    |
|--------------|----------|
| Entrypoint   | 0x0033   |
| Data Size    | 25 bytes |
| Instructions | 7        |

```
      00 01 02 03 04 05 06 07  08 09 0A 0B 0C 0D 0E 0F
      -- -- -- -- -- -- -- --  -- -- -- -- -- -- -- --
0030:          1C 05 80 5E 69  64 6C 30 1C 06 80 32 07     ...^idl0...2.
0040: 80 1F 00 08 80 09 80 02  80 1F 01 00              ............    
```

#### Opcodes

```
  0: 0x0033 [0x1C] WAIT(270* ticks)
  1: 0x0036 [0x5E] EventEntity goes idle (kills current action) (animation: "idl0")
  2: 0x003B [0x1C] WAIT(60* ticks)
  3: 0x003E [0x32] ExtData[1]->MainSpeed = 40* * 0.1
  4: 0x0041 [0x1F] MOVE_ENTITY: EventEntity moves to X=-301.150*, Z=-120.545*, Y=-10.003*
  5: 0x0049 [0x1F] MOVE_ENTITY: Update entity position (mode=1)
  6: 0x004B [0x00] END_REQSTACK()
```

### Event 65535.2

#### Metadata

| Field        | Value    |
|--------------|----------|
| Entrypoint   | 0x004C   |
| Data Size    | 10 bytes |
| Instructions | 2        |

```
      00 01 02 03 04 05 06 07  08 09 0A 0B 0C 0D 0E 0F
      -- -- -- -- -- -- -- --  -- -- -- -- -- -- -- --
0040:                                      37 0A 80 0B              7...
0050: 80 0C 80 0D 80 00                                 ......          
```

#### Opcodes

```
  0: 0x004C [0x37] UPDATE_EVENT_POSITION_AND_DIR: x=-279.243*, z=-89.346*, y=-12.136*, direction=1.1°*
  1: 0x0055 [0x00] END_REQSTACK()
```

### Event 65535.3

#### Metadata

| Field        | Value    |
|--------------|----------|
| Entrypoint   | 0x0056   |
| Data Size    | 14 bytes |
| Instructions | 4        |

```
      00 01 02 03 04 05 06 07  08 09 0A 0B 0C 0D 0E 0F
      -- -- -- -- -- -- -- --  -- -- -- -- -- -- -- --
0050:                   32 0E  80 1F 00 0F 80 10 80 0C        2.........
0060: 80 1F 01 00                                       ....            
```

#### Opcodes

```
  0: 0x0056 [0x32] ExtData[1]->MainSpeed = 13* * 0.1
  1: 0x0059 [0x1F] MOVE_ENTITY: EventEntity moves to X=-278.798*, Z=-89.348*, Y=-12.136*
  2: 0x0061 [0x1F] MOVE_ENTITY: Update entity position (mode=1)
  3: 0x0063 [0x00] END_REQSTACK()
```

### Event 65535.4

#### Metadata

| Field        | Value   |
|--------------|---------|
| Entrypoint   | 0x0064  |
| Data Size    | 6 bytes |
| Instructions | 2       |

```
      00 01 02 03 04 05 06 07  08 09 0A 0B 0C 0D 0E 0F
      -- -- -- -- -- -- -- --  -- -- -- -- -- -- -- --
0060:             5E 69 64 6C  30 00                        ^idl0.      
```

#### Opcodes

```
  0: 0x0064 [0x5E] EventEntity goes idle (kills current action) (animation: "idl0")
  1: 0x0069 [0x00] END_REQSTACK()
```

### Event 65535.5

#### Metadata

| Field        | Value    |
|--------------|----------|
| Entrypoint   | 0x006A   |
| Data Size    | 25 bytes |
| Instructions | 7        |

```
      00 01 02 03 04 05 06 07  08 09 0A 0B 0C 0D 0E 0F
      -- -- -- -- -- -- -- --  -- -- -- -- -- -- -- --
0060:                                32 07 80 1F 00 11            2.....
0070: 80 12 80 0C 80 1F 01 1C  13 80 1E 07 B0 0E 01 1C  ................
0080: 13 80 00                                          ...             
```

#### Opcodes

```
  0: 0x006A [0x32] ExtData[1]->MainSpeed = 40* * 0.1
  1: 0x006D [0x1F] MOVE_ENTITY: EventEntity moves to X=-277.720*, Z=-91.184*, Y=-12.136*
  2: 0x0075 [0x1F] MOVE_ENTITY: Update entity position (mode=1)
  3: 0x0077 [0x1C] WAIT(20* ticks)
  4: 0x007A [0x1E] EventEntity looks at Emrys (ID: 17739783/0x010EB007) and starts talking
  5: 0x007F [0x1C] WAIT(20* ticks)
  6: 0x0082 [0x00] END_REQSTACK()
```

### Event 65535.6

#### Metadata

| Field        | Value    |
|--------------|----------|
| Entrypoint   | 0x0083   |
| Data Size    | 16 bytes |
| Instructions | 5        |

```
      00 01 02 03 04 05 06 07  08 09 0A 0B 0C 0D 0E 0F
      -- -- -- -- -- -- -- --  -- -- -- -- -- -- -- --
0080:          32 07 80 1F 00  14 80 15 80 16 80 1F 01     2............
0090: 22 01 00                                          "..             
```

#### Opcodes

```
  0: 0x0083 [0x32] ExtData[1]->MainSpeed = 40* * 0.1
  1: 0x0086 [0x1F] MOVE_ENTITY: EventEntity moves to X=-277.608*, Z=-93.970*, Y=-12.000*
  2: 0x008E [0x1F] MOVE_ENTITY: Update entity position (mode=1)
  3: 0x0090 [0x22] ENTITY_HIDE_FLAG(enabled=0x01)
  4: 0x0092 [0x00] END_REQSTACK()
```

### Event 114

#### Metadata

| Field        | Value    |
|--------------|----------|
| Entrypoint   | 0x0093   |
| Data Size    | 11 bytes |
| Instructions | 5        |

```
      00 01 02 03 04 05 06 07  08 09 0A 0B 0C 0D 0E 0F
      -- -- -- -- -- -- -- --  -- -- -- -- -- -- -- --
0090:          1E F0 FF FF 7F  1D 17 80 23 21 00           ........#!.  
```

#### Opcodes

```
  0: 0x0093 [0x1E] EventEntity looks at LocalPlayer and starts talking
  1: 0x0098 [0x1D] PRINT_EVENT_MESSAGE(message_id=7512*)
    → "My dad says that in this city, you can do anything as long as you have the money to pay for it!"
  2: 0x009B [0x23] WAIT_FOR_DIALOG_INTERACTION
  3: 0x009C [0x21] END_EVENT
  4: 0x009D [0x00] END_REQSTACK()
```

### Event 225

#### Metadata

| Field        | Value    |
|--------------|----------|
| Entrypoint   | 0x009E   |
| Data Size    | 65 bytes |
| Instructions | 13       |

```
      00 01 02 03 04 05 06 07  08 09 0A 0B 0C 0D 0E 0F
      -- -- -- -- -- -- -- --  -- -- -- -- -- -- -- --
0090:                                            03 09                ..
00A0: 10 18 80 1E F0 FF FF 7F  1D 19 80 23 5B 04 80 07  ...........#[...
00B0: B0 0E 01 07 B0 0E 01 74  6C 6B 30 2B 07 B0 0E 01  .......tlk0+....
00C0: 1A 80 23 27 0A 07 B0 0E  01 06 5B 04 80 F8 FF FF  ..#'......[.....
00D0: 7F F8 FF FF 7F 74 6C 6B  30 1D 1B 80 23 21 00     .....tlk0...#!. 
```

#### Opcodes

```
  0: 0x009E [0x03] Work_Zone[9] = 102*
  1: 0x00A3 [0x1E] EventEntity looks at LocalPlayer and starts talking
  2: 0x00A8 [0x1D] PRINT_EVENT_MESSAGE(message_id=7513*)
    → "Emrys is bragging how he's already finished collecting all his stamps! I haven't even started the stamp hunt yet!"
  3: 0x00AB [0x23] WAIT_FOR_DIALOG_INTERACTION
  4: 0x00AC [0x5B] LOAD_EXT_SCHEDULER: Load scheduler "tlk0" with entities [Emrys (ID: 17739783/0x010EB007), Emrys (ID: 17739783/0x010EB007)], work=75*
  5: 0x00BB [0x2B] Emrys (ID: 17739783/0x010EB007) [7514*]:
    → "I wasn't bragging!"
  6: 0x00C2 [0x23] WAIT_FOR_DIALOG_INTERACTION
  7: 0x00C3 [0x27] REQ_SET(priority=0x0A, entity_id=Emrys (ID: 17739783/0x010EB007), tag_num=0x06)
  8: 0x00CA [0x5B] LOAD_EXT_SCHEDULER: Load scheduler "tlk0" with entities [EventEntity, EventEntity], work=75*
  9: 0x00D9 [0x1D] PRINT_EVENT_MESSAGE(message_id=7515*)
    → "Say, can you go do it in my place? I can give you a reward. My family's rich, you know? Here, take my $3."
 10: 0x00DC [0x23] WAIT_FOR_DIALOG_INTERACTION
 11: 0x00DD [0x21] END_EVENT
 12: 0x00DE [0x00] END_REQSTACK()
```

### Event 226

#### Metadata

| Field        | Value    |
|--------------|----------|
| Entrypoint   | 0x00DF   |
| Data Size    | 60 bytes |
| Instructions | 10       |

```
      00 01 02 03 04 05 06 07  08 09 0A 0B 0C 0D 0E 0F
      -- -- -- -- -- -- -- --  -- -- -- -- -- -- -- --
00D0:                                               42                 B
00E0: 1E F0 FF FF 7F 1C 1C 80  5B 04 80 F8 FF FF 7F F8  ........[.......
00F0: FF FF 7F 70 61 73 30 1D  1D 80 23 53 F8 FF FF 7F  ...pas0...#S....
0100: F8 FF FF 7F 70 61 73 30  45 1E 80 F0 FF FF 7F F0  ....pas0E.......
0110: FF FF 7F 71 73 74 63 1F  80 21 00                 ...qstc..!.     
```

#### Opcodes

```
  0: 0x00DF [0x42] SET_CLI_EVENT_CANCEL_DATA()
  1: 0x00E0 [0x1E] EventEntity looks at LocalPlayer and starts talking
  2: 0x00E5 [0x1C] WAIT(10* ticks)
  3: 0x00E8 [0x5B] LOAD_EXT_SCHEDULER: Load scheduler "pas0" with entities [EventEntity, EventEntity], work=75*
  4: 0x00F7 [0x1D] PRINT_EVENT_MESSAGE(message_id=7518*)
    → "Thanks! Here you go!"
  5: 0x00FA [0x23] WAIT_FOR_DIALOG_INTERACTION
  6: 0x00FB [0x53] WAIT_SCHEDULER_TASK: Wait for scheduler "pas0" with entities [EventEntity, EventEntity]
  7: 0x0108 [0x45] LOAD_SCHEDULED_TASK: Load scheduler "qstc" with entities [LocalPlayer, LocalPlayer], work=[201*, 0*]
  8: 0x0119 [0x21] END_EVENT
  9: 0x011A [0x00] END_REQSTACK()
```

### Event 429

#### Metadata

| Field        | Value    |
|--------------|----------|
| Entrypoint   | 0x011B   |
| Data Size    | 85 bytes |
| Instructions | 15       |

```
      00 01 02 03 04 05 06 07  08 09 0A 0B 0C 0D 0E 0F
      -- -- -- -- -- -- -- --  -- -- -- -- -- -- -- --
0110:                                   42 48 20 80 5B             BH .[
0120: 04 80 F8 FF FF 7F F8 FF  FF 7F 74 6C 6B 30 1D 21  ..........tlk0.!
0130: 80 23 5B 04 80 F8 FF FF  7F F8 FF FF 7F 74 6C 6B  .#[..........tlk
0140: 31 5B 04 80 07 B0 0E 01  07 B0 0E 01 74 68 6B 30  1[..........thk0
0150: 2B 07 B0 0E 01 22 80 23  5B 04 80 F8 FF FF 7F F8  +....".#[.......
0160: FF FF 7F 74 6C 6B 30 1D  23 80 23 48 24 80 21 00  ...tlk0.#.#H$.!.
```

#### Opcodes

```
  0: 0x011B [0x42] SET_CLI_EVENT_CANCEL_DATA()
  1: 0x011C [0x48] [System] [9206*]:
    → "<Player>'s badge flashes brightly."
  2: 0x011F [0x5B] LOAD_EXT_SCHEDULER: Load scheduler "tlk0" with entities [EventEntity, EventEntity], work=75*
  3: 0x012E [0x1D] PRINT_EVENT_MESSAGE(message_id=9209*)
    → "My dad says that you can do anything as long as you have the money to pay for it!"
  4: 0x0131 [0x23] WAIT_FOR_DIALOG_INTERACTION
  5: 0x0132 [0x5B] LOAD_EXT_SCHEDULER: Load scheduler "tlk1" with entities [EventEntity, EventEntity], work=75*
  6: 0x0141 [0x5B] LOAD_EXT_SCHEDULER: Load scheduler "thk0" with entities [Emrys (ID: 17739783/0x010EB007), Emrys (ID: 17739783/0x010EB007)], work=75*
  7: 0x0150 [0x2B] Emrys (ID: 17739783/0x010EB007) [9210*]:
    → "But I don't know how to get any money..."
  8: 0x0157 [0x23] WAIT_FOR_DIALOG_INTERACTION
  9: 0x0158 [0x5B] LOAD_EXT_SCHEDULER: Load scheduler "tlk0" with entities [EventEntity, EventEntity], work=75*
 10: 0x0167 [0x1D] PRINT_EVENT_MESSAGE(message_id=9211*)
    → "My family's rich, so I don't have to worry about it, but I bet you could make some as a mercenary! Check it out!"
 11: 0x016A [0x23] WAIT_FOR_DIALOG_INTERACTION
 12: 0x016B [0x48] [System] [9212*]:
    → "Arawn's badge flashes brightly."
 13: 0x016E [0x21] END_EVENT
 14: 0x016F [0x00] END_REQSTACK()
```

### Event 586

#### Metadata

| Field        | Value   |
|--------------|---------|
| Entrypoint   | 0x0170  |
| Data Size    | 1 bytes |
| Instructions | 1       |

```
      00 01 02 03 04 05 06 07  08 09 0A 0B 0C 0D 0E 0F
      -- -- -- -- -- -- -- --  -- -- -- -- -- -- -- --
0170: 00                                                .               
```

#### Opcodes

```
  0: 0x0170 [0x00] END_REQSTACK()
```

### Event 65535.7

#### Metadata

| Field        | Value    |
|--------------|----------|
| Entrypoint   | 0x0171   |
| Data Size    | 11 bytes |
| Instructions | 3        |

```
      00 01 02 03 04 05 06 07  08 09 0A 0B 0C 0D 0E 0F
      -- -- -- -- -- -- -- --  -- -- -- -- -- -- -- --
0170:    1F 00 04 17 05 17 06  17 1F 01 00               ...........    
```

#### Opcodes

```
  0: 0x0171 [0x1F] MOVE_ENTITY: EventEntity moves to X=Work_Zone_1700[4], Z=Work_Zone_1700[5], Y=Work_Zone_1700[6]
  1: 0x0179 [0x1F] MOVE_ENTITY: Update entity position (mode=1)
  2: 0x017B [0x00] END_REQSTACK()
```

### Event 65535.8

#### Metadata

| Field        | Value   |
|--------------|---------|
| Entrypoint   | 0x017C  |
| Data Size    | 4 bytes |
| Instructions | 2       |

```
      00 01 02 03 04 05 06 07  08 09 0A 0B 0C 0D 0E 0F
      -- -- -- -- -- -- -- --  -- -- -- -- -- -- -- --
0170:                                      39 07 17 00              9...
```

#### Opcodes

```
  0: 0x017C [0x39] SET_ENTITY_DIRECTION(direction=Work_Zone_1700[7])
  1: 0x017F [0x00] END_REQSTACK()
```

### Event 675

#### Metadata

| Field        | Value   |
|--------------|---------|
| Entrypoint   | 0x0180  |
| Data Size    | 7 bytes |
| Instructions | 2       |

```
      00 01 02 03 04 05 06 07  08 09 0A 0B 0C 0D 0E 0F
      -- -- -- -- -- -- -- --  -- -- -- -- -- -- -- --
0180: 92 01 F8 FF FF 7F 00                              .......         
```

#### Opcodes

```
  0: 0x0180 [0x92] EventEntity->Render.Flags3 ^= 0x01
  1: 0x0186 [0x00] END_REQSTACK()
```

### Event 676

#### Metadata

| Field        | Value   |
|--------------|---------|
| Entrypoint   | 0x0187  |
| Data Size    | 7 bytes |
| Instructions | 2       |

```
      00 01 02 03 04 05 06 07  08 09 0A 0B 0C 0D 0E 0F
      -- -- -- -- -- -- -- --  -- -- -- -- -- -- -- --
0180:                      92  01 F8 FF FF 7F 00               .......  
```

#### Opcodes

```
  0: 0x0187 [0x92] EventEntity->Render.Flags3 ^= 0x01
  1: 0x018D [0x00] END_REQSTACK()
```

### Event 678

#### Metadata

| Field        | Value   |
|--------------|---------|
| Entrypoint   | 0x018E  |
| Data Size    | 7 bytes |
| Instructions | 2       |

```
      00 01 02 03 04 05 06 07  08 09 0A 0B 0C 0D 0E 0F
      -- -- -- -- -- -- -- --  -- -- -- -- -- -- -- --
0180:                                            92 01                ..
0190: F8 FF FF 7F 00                                    .....           
```

#### Opcodes

```
  0: 0x018E [0x92] EventEntity->Render.Flags3 ^= 0x01
  1: 0x0194 [0x00] END_REQSTACK()
```
