# 17739834 - Loulia

## Common Data

| Field            | Value                    |
|------------------|--------------------------|
| Zone             | Bastok Markets (ID: 235) |
| Block Size       | 776 bytes                |
| Total Events     | 6                        |
| References Count | 30                       |

## List of Events

| Event ID              | Entrypoint   |   Size |   Instructions |
|-----------------------|--------------|--------|----------------|
| [65535](#event-65535) | 0x0000       |      1 |              1 |
| [2](#event-2)         | 0x0001       |    188 |             55 |
| [487](#event-487)     | 0x00BD       |    208 |             50 |
| [488](#event-488)     | 0x018D       |    205 |             50 |
| [591](#event-591)     | 0x025A       |      7 |              2 |
| [611](#event-611)     | 0x0261       |      7 |              2 |

## DAT References (imed_data)

|   Index | Hex Value   |   Dec Value |
|---------|-------------|-------------|
|       0 | 0x0000      |           0 |
|       1 | 0x0001      |           1 |
|       2 | 0x19AD      |        6573 |
|       3 | 0x19AE      |        6574 |
|       4 | 0x19AF      |        6575 |
|       5 | 0x19B0      |        6576 |
|       6 | 0x19B1      |        6577 |
|       7 | 0x19B2      |        6578 |
|       8 | 0x19B3      |        6579 |
|       9 | 0x19B4      |        6580 |
|      10 | 0x19B5      |        6581 |
|      11 | 0x19B6      |        6582 |
|      12 | 0x0002      |           2 |
|      13 | 0x19B7      |        6583 |
|      14 | 0x19B8      |        6584 |
|      15 | 0x19B9      |        6585 |
|      16 | 0x19BA      |        6586 |
|      17 | 0x19BB      |        6587 |
|      18 | 0x0006      |           6 |
|      19 | 0x19BC      |        6588 |
|      20 | 0x19BD      |        6589 |
|      21 | 0x19C5      |        6597 |
|      22 | 0x19C1      |        6593 |
|      23 | 0x19BE      |        6590 |
|      24 | 0x19BF      |        6591 |
|      25 | 0x19C0      |        6592 |
|      26 | 0x001F      |          31 |
|      27 | 0xFFFFFFFF  |  4294967295 |
|      28 | 0x19C6      |        6598 |
|      29 | 0x19C4      |        6596 |

## String References

- **6573**: The residential area is up ahead. You will find your Mog House there.
- **6574**: I'm sure you already know by now, but would you like me to tell you about Mog Houses?
- **6575**: I haven't told you about Mog Houses, have I? Do you have time now?
- **6576**: Listen to Mog House explanation? [Yes./No.]
- **6577**: A Mog House is your very own room in the residential area. You can do such things as store items and recover HP and MP there.
- **6578**: Your Mog House is also the only place where you can change jobs.
- **6579**: Since you are a citizen of Bastok, you already have a Mog House assigned to you in the residential area ahead. Feel free to use it at anytime.
- **6580**: You have a Rent-a-Room in [San d'Oria/Bastok/Windurst/Jeuno/Kazham/Rabao/Norg/Al Zahbi]. You must check out if you wish to return the items stored there to your room in Bastok.
- **6581**: Check out of Rent-a-Room? [Yes./No.]
- **6582**: ...Done. The items you had stored in the room in [San d'Oria/Bastok/Windurst/Jeuno/Kazham/Rabao/Norg/Al Zahbi] have been moved to your Mog House in Bastok.
- **6583**: This is the residential area of Bastok. Since you have a Rent-a-Room here, you are allowed to pass.
- **6584**: This is the residential area of Bastok. Non-citizens are required to rent a Rent-a-Room in order to enter this area.
- **6585**: If you get a Rent-a-Room, your stored items will be moved to Bastok and you will be able to use your new room like the Mog House in your home country.
- **6586**: Lease a Rent-a-Room? [Yes./No.]
- **6587**: ...Done. You now have a room in Bastok's residential area.
- **6588**: The residential area is up ahead. You will find your Mog House there.
- **6589**: The residential area is up ahead. You will find your Rent-a-Room there.
- **6590**: A Mog House is your very own room in the residential area. You can do such things as store items and recover HP and MP there.
- **6591**: Your Mog House is also the only place where you can change jobs.
- **6592**: You have a Mog House assigned to you in the residential area ahead. Feel free to use it at anytime.
- **6593**: Please don't hesitate to ask if you require my assistance.
- **6596**: This way, [sir/madame].
- **6597**: What do you wish to do? [Nothing in particular./Ask for an explanation of Mog Houses./Visit the Mog House of a party member.]
- **6598**: Whose Mog House will you visit? [Never mind./%1/%2/%3/%4/%5/%6/%7/%8/%9/%10/%11/%12/%13/%14/%15/%16/%17]

## Events

### Event 65535

#### Metadata

| Field        | Value   |
|--------------|---------|
| Entrypoint   | 0x0000  |
| Data Size    | 1 bytes |
| Instructions | 1       |

```
      00 01 02 03 04 05 06 07  08 09 0A 0B 0C 0D 0E 0F
      -- -- -- -- -- -- -- --  -- -- -- -- -- -- -- --
0000: 00                                                .               
```

#### Opcodes

```
  0: 0x0000 [0x00] END_REQSTACK()
```

### Event 2

#### Metadata

| Field        | Value     |
|--------------|-----------|
| Entrypoint   | 0x0001    |
| Data Size    | 188 bytes |
| Instructions | 55        |

```
      00 01 02 03 04 05 06 07  08 09 0A 0B 0C 0D 0E 0F
      -- -- -- -- -- -- -- --  -- -- -- -- -- -- -- --
0000:    1E F0 FF FF 7F 03 01  10 00 80 02 02 10 01 80   ...............
0010: 00 87 00 02 03 10 01 80  00 63 00 1D 02 80 23 02  .........c....#.
0020: 04 10 01 80 00 33 00 1D  03 80 23 03 00 00 01 80  .....3....#.....
0030: 01 3C 00 1D 04 80 23 03  00 00 00 80 24 05 80 00  .<....#.....$...
0040: 00 00 80 25 02 00 10 00  80 00 60 00 1D 06 80 23  ...%......`....#
0050: 1D 07 80 23 1D 08 80 23  03 01 10 01 80 01 60 00  ...#...#......`.
0060: 01 84 00 1D 09 80 23 24  0A 80 00 80 00 80 25 02  ......#$......%.
0070: 00 10 00 80 00 84 00 42  1D 0B 80 23 03 01 10 0C  .......B...#....
0080: 80 01 84 00 01 BB 00 02  03 10 01 80 00 96 00 1D  ................
0090: 0D 80 23 01 BB 00 1D 0E  80 23 1D 0F 80 23 24 10  ..#......#...#$.
00A0: 80 00 80 00 80 25 02 00  10 00 80 00 BB 00 42 1D  .....%........B.
00B0: 11 80 23 03 01 10 0C 80  01 BB 00 21 00           ..#........!.   
```

#### Opcodes

```
  0: 0x0001 [0x1E] EventEntity looks at LocalPlayer and starts talking
  1: 0x0006 [0x03] Work_Zone[1] = 0*
  2: 0x000B [0x02] IF !(Work_Zone[2] == 1*) GOTO 0x0087
  3: 0x0013 [0x02] IF !(Work_Zone[3] == 1*) GOTO 0x0063
  4: 0x001B [0x1D] PRINT_EVENT_MESSAGE(message_id=6573*)
    → "The residential area is up ahead. You will find your Mog House there."
  5: 0x001E [0x23] WAIT_FOR_DIALOG_INTERACTION
  6: 0x001F [0x02] IF !(Work_Zone[4] == 1*) GOTO 0x0033
  7: 0x0027 [0x1D] PRINT_EVENT_MESSAGE(message_id=6574*)
    → "I'm sure you already know by now, but would you like me to tell you about Mog Houses?"
  8: 0x002A [0x23] WAIT_FOR_DIALOG_INTERACTION
  9: 0x002B [0x03] ExtData[1]->WorkLocal[0] = 1*
 10: 0x0030 [0x01] GOTO 0x003C
 11: 0x0033 [0x1D] PRINT_EVENT_MESSAGE(message_id=6575*)
    → "I haven't told you about Mog Houses, have I? Do you have time now?"
 12: 0x0036 [0x23] WAIT_FOR_DIALOG_INTERACTION
 13: 0x0037 [0x03] ExtData[1]->WorkLocal[0] = 0*

SUBROUTINE_003C:
 14: 0x003C [0x24] CREATE_DIALOG(message_id=6576*, default_option=ExtData[1]->WorkLocal[0], option_flags=0*)
    → "Listen to Mog House explanation? [Yes./No.]"
 15: 0x0043 [0x25] WAIT_DIALOG_SELECT()
 16: 0x0044 [0x02] IF !(Work_Zone[0] == 0*) GOTO 0x0060
 17: 0x004C [0x1D] PRINT_EVENT_MESSAGE(message_id=6577*)
    → "A Mog House is your very own room in the residential area. You can do such things as store items and recover HP and MP there."
 18: 0x004F [0x23] WAIT_FOR_DIALOG_INTERACTION
 19: 0x0050 [0x1D] PRINT_EVENT_MESSAGE(message_id=6578*)
    → "Your Mog House is also the only place where you can change jobs."
 20: 0x0053 [0x23] WAIT_FOR_DIALOG_INTERACTION
 21: 0x0054 [0x1D] PRINT_EVENT_MESSAGE(message_id=6579*)
    → "Since you are a citizen of Bastok, you already have a Mog House assigned to you in the residential area ahead. Feel free to use it at anytime."
 22: 0x0057 [0x23] WAIT_FOR_DIALOG_INTERACTION
 23: 0x0058 [0x03] Work_Zone[1] = 1*
 24: 0x005D [0x01] GOTO 0x0060

SUBROUTINE_0060:
 25: 0x0060 [0x01] GOTO 0x0084
 26: 0x0063 [0x1D] PRINT_EVENT_MESSAGE(message_id=6580*)
    → "You have a Rent-a-Room in [San d'Oria/Bastok/Windurst/Jeuno/Kazham/Rabao/Norg/Al Zahbi]. You must check out if you wish to return the items stored there to your room in Bastok."
 27: 0x0066 [0x23] WAIT_FOR_DIALOG_INTERACTION
 28: 0x0067 [0x24] CREATE_DIALOG(message_id=6581*, default_option=0*, option_flags=0*)
    → "Check out of Rent-a-Room? [Yes./No.]"
 29: 0x006E [0x25] WAIT_DIALOG_SELECT()
 30: 0x006F [0x02] IF !(Work_Zone[0] == 0*) GOTO 0x0084
 31: 0x0077 [0x42] SET_CLI_EVENT_CANCEL_DATA()
 32: 0x0078 [0x1D] PRINT_EVENT_MESSAGE(message_id=6582*)
    → "...Done. The items you had stored in the room in [San d'Oria/Bastok/Windurst/Jeuno/Kazham/Rabao/Norg/Al Zahbi] have been moved to your Mog House in Bastok."
 33: 0x007B [0x23] WAIT_FOR_DIALOG_INTERACTION
 34: 0x007C [0x03] Work_Zone[1] = 2*
 35: 0x0081 [0x01] GOTO 0x0084

SUBROUTINE_0084:
 36: 0x0084 [0x01] GOTO 0x00BB
 37: 0x0087 [0x02] IF !(Work_Zone[3] == 1*) GOTO 0x0096
 38: 0x008F [0x1D] PRINT_EVENT_MESSAGE(message_id=6583*)
    → "This is the residential area of Bastok. Since you have a Rent-a-Room here, you are allowed to pass."
 39: 0x0092 [0x23] WAIT_FOR_DIALOG_INTERACTION
 40: 0x0093 [0x01] GOTO 0x00BB
 41: 0x0096 [0x1D] PRINT_EVENT_MESSAGE(message_id=6584*)
    → "This is the residential area of Bastok. Non-citizens are required to rent a Rent-a-Room in order to enter this area."
 42: 0x0099 [0x23] WAIT_FOR_DIALOG_INTERACTION
 43: 0x009A [0x1D] PRINT_EVENT_MESSAGE(message_id=6585*)
    → "If you get a Rent-a-Room, your stored items will be moved to Bastok and you will be able to use your new room like the Mog House in your home country."
 44: 0x009D [0x23] WAIT_FOR_DIALOG_INTERACTION
 45: 0x009E [0x24] CREATE_DIALOG(message_id=6586*, default_option=0*, option_flags=0*)
    → "Lease a Rent-a-Room? [Yes./No.]"
 46: 0x00A5 [0x25] WAIT_DIALOG_SELECT()
 47: 0x00A6 [0x02] IF !(Work_Zone[0] == 0*) GOTO 0x00BB
 48: 0x00AE [0x42] SET_CLI_EVENT_CANCEL_DATA()
 49: 0x00AF [0x1D] PRINT_EVENT_MESSAGE(message_id=6587*)
    → "...Done. You now have a room in Bastok's residential area."
 50: 0x00B2 [0x23] WAIT_FOR_DIALOG_INTERACTION
 51: 0x00B3 [0x03] Work_Zone[1] = 2*
 52: 0x00B8 [0x01] GOTO 0x00BB

SUBROUTINE_00BB:
 53: 0x00BB [0x21] END_EVENT
 54: 0x00BC [0x00] END_REQSTACK()
```

### Event 487

#### Metadata

| Field        | Value     |
|--------------|-----------|
| Entrypoint   | 0x00BD    |
| Data Size    | 208 bytes |
| Instructions | 50        |

```
      00 01 02 03 04 05 06 07  08 09 0A 0B 0C 0D 0E 0F
      -- -- -- -- -- -- -- --  -- -- -- -- -- -- -- --
00B0:                                         02 01 00               ...
00C0: 00 80 00 8C 01 03 01 10  00 80 03 03 00 12 80 C2  ................
00D0: 01 02 00 02 02 00 00 80  01 E2 00 3D 03 00 0C 80  ...........=....
00E0: 01 80 1E F0 FF FF 7F 02  02 10 01 80 00 FD 00 1D  ................
00F0: 13 80 23 3D 03 00 01 80  01 80 01 01 01 1D 14 80  ..#=............
0100: 23 02 03 00 12 80 01 8B  01 24 15 80 00 80 03 00  #........$......
0110: 25 02 00 10 00 80 00 20  01 1D 16 80 23 01 8B 01  %...... ....#...
0120: 02 00 10 01 80 00 3E 01  1D 17 80 23 1D 18 80 23  ......>....#...#
0130: 1D 19 80 23 3C 01 10 1A  80 01 80 01 8B 01 02 00  ...#<...........
0140: 10 0C 80 00 8B 01 C2 01  02 00 0F 02 00 1B 80 3D  ...............=
0150: 02 00 00 80 01 80 24 1C  80 00 80 02 00 25 02 00  ......$......%..
0160: 10 00 80 00 6D 01 1D 16  80 23 01 6D 01 02 00 10  ....m....#.m....
0170: 00 80 00 7D 01 03 01 10  00 80 01 88 01 42 1D 1D  ...}.........B..
0180: 80 23 C2 02 00 10 01 10  01 8B 01 21 00           .#.........!.   
```

#### Opcodes

```
  0: 0x00BD [0x02] IF !(ExtData[1]->WorkLocal[1] == 0*) GOTO 0x018C
  1: 0x00C5 [0x03] Work_Zone[1] = 0*
  2: 0x00CA [0x03] ExtData[1]->WorkLocal[3] = 6*
  3: 0x00CF [0xC2] PARTY_STATE_CHECK: ExtData[1]->WorkLocal[2] = mask of visitable party members
  4: 0x00D3 [0x02] IF !(ExtData[1]->WorkLocal[2] == 0*) GOTO 0x00E2
  5: 0x00DB [0x3D] CLEAR_BIT_FLAG_CONDITIONAL(target_work_offset=ExtData[1]->WorkLocal[3], bit_index_work_offset=2*, condition_work_offset=1*)
  6: 0x00E2 [0x1E] EventEntity looks at LocalPlayer and starts talking
  7: 0x00E7 [0x02] IF !(Work_Zone[2] == 1*) GOTO 0x00FD
  8: 0x00EF [0x1D] PRINT_EVENT_MESSAGE(message_id=6588*)
    → "The residential area is up ahead. You will find your Mog House there."
  9: 0x00F2 [0x23] WAIT_FOR_DIALOG_INTERACTION
 10: 0x00F3 [0x3D] CLEAR_BIT_FLAG_CONDITIONAL(target_work_offset=ExtData[1]->WorkLocal[3], bit_index_work_offset=1*, condition_work_offset=1*)
 11: 0x00FA [0x01] GOTO 0x0101
 12: 0x00FD [0x1D] PRINT_EVENT_MESSAGE(message_id=6589*)
    → "The residential area is up ahead. You will find your Rent-a-Room there."
 13: 0x0100 [0x23] WAIT_FOR_DIALOG_INTERACTION

SUBROUTINE_0101:
 14: 0x0101 [0x02] IF !(ExtData[1]->WorkLocal[3] == 6*) GOTO 0x018B
 15: 0x0109 [0x24] CREATE_DIALOG(message_id=6597*, default_option=0*, option_flags=ExtData[1]->WorkLocal[3])
    → "What do you wish to do? [Nothing in particular./Ask for an explanation of Mog Houses./Visit the Mog House of a party member.]"
 16: 0x0110 [0x25] WAIT_DIALOG_SELECT()
 17: 0x0111 [0x02] IF !(Work_Zone[0] == 0*) GOTO 0x0120
 18: 0x0119 [0x1D] PRINT_EVENT_MESSAGE(message_id=6593*)
    → "Please don't hesitate to ask if you require my assistance."
 19: 0x011C [0x23] WAIT_FOR_DIALOG_INTERACTION
 20: 0x011D [0x01] GOTO 0x018B
 21: 0x0120 [0x02] IF !(Work_Zone[0] == 1*) GOTO 0x013E
 22: 0x0128 [0x1D] PRINT_EVENT_MESSAGE(message_id=6590*)
    → "A Mog House is your very own room in the residential area. You can do such things as store items and recover HP and MP there."
 23: 0x012B [0x23] WAIT_FOR_DIALOG_INTERACTION
 24: 0x012C [0x1D] PRINT_EVENT_MESSAGE(message_id=6591*)
    → "Your Mog House is also the only place where you can change jobs."
 25: 0x012F [0x23] WAIT_FOR_DIALOG_INTERACTION
 26: 0x0130 [0x1D] PRINT_EVENT_MESSAGE(message_id=6592*)
    → "You have a Mog House assigned to you in the residential area ahead. Feel free to use it at anytime."
 27: 0x0133 [0x23] WAIT_FOR_DIALOG_INTERACTION
 28: 0x0134 [0x3C] SET_BIT_FLAG_CONDITIONAL(target_work_offset=Work_Zone[1], bit_index_work_offset=31*, condition_work_offset=1*)
 29: 0x013B [0x01] GOTO 0x018B
 30: 0x013E [0x02] IF !(Work_Zone[0] == 2*) GOTO 0x018B
 31: 0x0146 [0xC2] PARTY_STATE_CHECK: ExtData[1]->WorkLocal[2] = mask of visitable party members
 32: 0x014A [0x0F] ExtData[1]->WorkLocal[2] ^= 4294967295*
 33: 0x014F [0x3D] CLEAR_BIT_FLAG_CONDITIONAL(target_work_offset=ExtData[1]->WorkLocal[2], bit_index_work_offset=0*, condition_work_offset=1*)
 34: 0x0156 [0x24] CREATE_DIALOG(message_id=6598*, default_option=0*, option_flags=ExtData[1]->WorkLocal[2])
    → "Whose Mog House will you visit? [Never mind./%1/%2/%3/%4/%5/%6/%7/%8/%9/%10/%11/%12/%13/%14/%15/%16/%17]"
 35: 0x015D [0x25] WAIT_DIALOG_SELECT()
 36: 0x015E [0x02] IF !(Work_Zone[0] == 0*) GOTO 0x016D
 37: 0x0166 [0x1D] PRINT_EVENT_MESSAGE(message_id=6593*)
    → "Please don't hesitate to ask if you require my assistance."
 38: 0x0169 [0x23] WAIT_FOR_DIALOG_INTERACTION
 39: 0x016A [0x01] GOTO 0x016D

SUBROUTINE_016D:
 40: 0x016D [0x02] IF !(Work_Zone[0] == 0*) GOTO 0x017D
 41: 0x0175 [0x03] Work_Zone[1] = 0*
 42: 0x017A [0x01] GOTO 0x0188
 43: 0x017D [0x42] SET_CLI_EVENT_CANCEL_DATA()
 44: 0x017E [0x1D] PRINT_EVENT_MESSAGE(message_id=6596*)
    → "This way, [sir/madame]."
 45: 0x0181 [0x23] WAIT_FOR_DIALOG_INTERACTION
 46: 0x0182 [0xC2] PARTY_STATE_CHECK: Work_Zone[1] = check if party member (from Work_Zone[0]) house is open

SUBROUTINE_0188:
 47: 0x0188 [0x01] GOTO 0x018B

SUBROUTINE_018B:
 48: 0x018B [0x21] END_EVENT
 49: 0x018C [0x00] END_REQSTACK()
```

### Event 488

#### Metadata

| Field        | Value     |
|--------------|-----------|
| Entrypoint   | 0x018D    |
| Data Size    | 205 bytes |
| Instructions | 49        |

```
      00 01 02 03 04 05 06 07  08 09 0A 0B 0C 0D 0E 0F
      -- -- -- -- -- -- -- --  -- -- -- -- -- -- -- --
0180:                                         02 01 00               ...
0190: 00 80 01 58 02 03 01 10  00 80 03 03 00 12 80 C2  ...X............
01A0: 01 02 00 02 02 00 00 80  01 BE 01 3D 03 00 0C 80  ...........=....
01B0: 01 80 0F 02 00 1B 80 3D  02 00 00 80 01 80 1E F0  .......=........
01C0: FF FF 7F 02 02 10 01 80  00 D9 01 1D 13 80 23 3D  ..............#=
01D0: 03 00 01 80 01 80 01 DD  01 1D 14 80 23 02 03 00  ............#...
01E0: 12 80 01 57 02 24 15 80  00 80 03 00 25 02 00 10  ...W.$......%...
01F0: 00 80 00 FC 01 1D 16 80  23 01 57 02 02 00 10 01  ........#.W.....
0200: 80 00 1A 02 1D 17 80 23  1D 18 80 23 1D 19 80 23  .......#...#...#
0210: 3C 01 10 1A 80 01 80 01  57 02 02 00 10 0C 80 00  <.......W.......
0220: 57 02 24 1C 80 00 80 02  00 25 02 00 10 00 80 00  W.$......%......
0230: 39 02 1D 16 80 23 01 39  02 02 00 10 00 80 00 49  9....#.9.......I
0240: 02 03 01 10 00 80 01 54  02 42 1D 1D 80 23 C2 02  .......T.B...#..
0250: 00 10 01 10 01 57 02 21  00 00                    .....W.!..      
```

#### Opcodes

```
  0: 0x018D [0x02] IF !(ExtData[1]->WorkLocal[1] == 0*) GOTO 0x0258
  1: 0x0195 [0x03] Work_Zone[1] = 0*
  2: 0x019A [0x03] ExtData[1]->WorkLocal[3] = 6*
  3: 0x019F [0xC2] PARTY_STATE_CHECK: ExtData[1]->WorkLocal[2] = mask of visitable party members
  4: 0x01A3 [0x02] IF !(ExtData[1]->WorkLocal[2] == 0*) GOTO 0x01BE
  5: 0x01AB [0x3D] CLEAR_BIT_FLAG_CONDITIONAL(target_work_offset=ExtData[1]->WorkLocal[3], bit_index_work_offset=2*, condition_work_offset=1*)
  6: 0x01B2 [0x0F] ExtData[1]->WorkLocal[2] ^= 4294967295*
  7: 0x01B7 [0x3D] CLEAR_BIT_FLAG_CONDITIONAL(target_work_offset=ExtData[1]->WorkLocal[2], bit_index_work_offset=0*, condition_work_offset=1*)
  8: 0x01BE [0x1E] EventEntity looks at LocalPlayer and starts talking
  9: 0x01C3 [0x02] IF !(Work_Zone[2] == 1*) GOTO 0x01D9
 10: 0x01CB [0x1D] PRINT_EVENT_MESSAGE(message_id=6588*)
    → "The residential area is up ahead. You will find your Mog House there."
 11: 0x01CE [0x23] WAIT_FOR_DIALOG_INTERACTION
 12: 0x01CF [0x3D] CLEAR_BIT_FLAG_CONDITIONAL(target_work_offset=ExtData[1]->WorkLocal[3], bit_index_work_offset=1*, condition_work_offset=1*)
 13: 0x01D6 [0x01] GOTO 0x01DD
 14: 0x01D9 [0x1D] PRINT_EVENT_MESSAGE(message_id=6589*)
    → "The residential area is up ahead. You will find your Rent-a-Room there."
 15: 0x01DC [0x23] WAIT_FOR_DIALOG_INTERACTION

SUBROUTINE_01DD:
 16: 0x01DD [0x02] IF !(ExtData[1]->WorkLocal[3] == 6*) GOTO 0x0257
 17: 0x01E5 [0x24] CREATE_DIALOG(message_id=6597*, default_option=0*, option_flags=ExtData[1]->WorkLocal[3])
    → "What do you wish to do? [Nothing in particular./Ask for an explanation of Mog Houses./Visit the Mog House of a party member.]"
 18: 0x01EC [0x25] WAIT_DIALOG_SELECT()
 19: 0x01ED [0x02] IF !(Work_Zone[0] == 0*) GOTO 0x01FC
 20: 0x01F5 [0x1D] PRINT_EVENT_MESSAGE(message_id=6593*)
    → "Please don't hesitate to ask if you require my assistance."
 21: 0x01F8 [0x23] WAIT_FOR_DIALOG_INTERACTION
 22: 0x01F9 [0x01] GOTO 0x0257
 23: 0x01FC [0x02] IF !(Work_Zone[0] == 1*) GOTO 0x021A
 24: 0x0204 [0x1D] PRINT_EVENT_MESSAGE(message_id=6590*)
    → "A Mog House is your very own room in the residential area. You can do such things as store items and recover HP and MP there."
 25: 0x0207 [0x23] WAIT_FOR_DIALOG_INTERACTION
 26: 0x0208 [0x1D] PRINT_EVENT_MESSAGE(message_id=6591*)
    → "Your Mog House is also the only place where you can change jobs."
 27: 0x020B [0x23] WAIT_FOR_DIALOG_INTERACTION
 28: 0x020C [0x1D] PRINT_EVENT_MESSAGE(message_id=6592*)
    → "You have a Mog House assigned to you in the residential area ahead. Feel free to use it at anytime."
 29: 0x020F [0x23] WAIT_FOR_DIALOG_INTERACTION
 30: 0x0210 [0x3C] SET_BIT_FLAG_CONDITIONAL(target_work_offset=Work_Zone[1], bit_index_work_offset=31*, condition_work_offset=1*)
 31: 0x0217 [0x01] GOTO 0x0257
 32: 0x021A [0x02] IF !(Work_Zone[0] == 2*) GOTO 0x0257
 33: 0x0222 [0x24] CREATE_DIALOG(message_id=6598*, default_option=0*, option_flags=ExtData[1]->WorkLocal[2])
    → "Whose Mog House will you visit? [Never mind./%1/%2/%3/%4/%5/%6/%7/%8/%9/%10/%11/%12/%13/%14/%15/%16/%17]"
 34: 0x0229 [0x25] WAIT_DIALOG_SELECT()
 35: 0x022A [0x02] IF !(Work_Zone[0] == 0*) GOTO 0x0239
 36: 0x0232 [0x1D] PRINT_EVENT_MESSAGE(message_id=6593*)
    → "Please don't hesitate to ask if you require my assistance."
 37: 0x0235 [0x23] WAIT_FOR_DIALOG_INTERACTION
 38: 0x0236 [0x01] GOTO 0x0239

SUBROUTINE_0239:
 39: 0x0239 [0x02] IF !(Work_Zone[0] == 0*) GOTO 0x0249
 40: 0x0241 [0x03] Work_Zone[1] = 0*
 41: 0x0246 [0x01] GOTO 0x0254
 42: 0x0249 [0x42] SET_CLI_EVENT_CANCEL_DATA()
 43: 0x024A [0x1D] PRINT_EVENT_MESSAGE(message_id=6596*)
    → "This way, [sir/madame]."
 44: 0x024D [0x23] WAIT_FOR_DIALOG_INTERACTION
 45: 0x024E [0xC2] PARTY_STATE_CHECK: Work_Zone[1] = check if party member (from Work_Zone[0]) house is open

SUBROUTINE_0254:
 46: 0x0254 [0x01] GOTO 0x0257

SUBROUTINE_0257:
 47: 0x0257 [0x21] END_EVENT
 48: 0x0258 [0x00] END_REQSTACK()
```

#### Data or dead code:

```
# Dead code (unreachable instructions):
     0x0259 [0x00] END_REQSTACK()
```

### Event 591

#### Metadata

| Field        | Value   |
|--------------|---------|
| Entrypoint   | 0x025A  |
| Data Size    | 7 bytes |
| Instructions | 2       |

```
      00 01 02 03 04 05 06 07  08 09 0A 0B 0C 0D 0E 0F
      -- -- -- -- -- -- -- --  -- -- -- -- -- -- -- --
0250:                                92 01 F8 FF FF 7F            ......
0260: 00                                                .               
```

#### Opcodes

```
  0: 0x025A [0x92] EventEntity->Render.Flags3 ^= 0x01
  1: 0x0260 [0x00] END_REQSTACK()
```

### Event 611

#### Metadata

| Field        | Value   |
|--------------|---------|
| Entrypoint   | 0x0261  |
| Data Size    | 7 bytes |
| Instructions | 2       |

```
      00 01 02 03 04 05 06 07  08 09 0A 0B 0C 0D 0E 0F
      -- -- -- -- -- -- -- --  -- -- -- -- -- -- -- --
0260:    92 01 F8 FF FF 7F 00                            .......        
```

#### Opcodes

```
  0: 0x0261 [0x92] EventEntity->Render.Flags3 ^= 0x01
  1: 0x0267 [0x00] END_REQSTACK()
```
