# 17739835 - Hildith

## Common Data

| Field            | Value                    |
|------------------|--------------------------|
| Zone             | Bastok Markets (ID: 235) |
| Block Size       | 760 bytes                |
| Total Events     | 4                        |
| References Count | 30                       |

## List of Events

| Event ID              | Entrypoint   |   Size |   Instructions |
|-----------------------|--------------|--------|----------------|
| [65535](#event-65535) | 0x0000       |      6 |              2 |
| [487](#event-487)     | 0x0006       |    208 |             50 |
| [488](#event-488)     | 0x00D6       |    204 |             49 |
| [3](#event-3)         | 0x01A2       |    189 |             56 |

## DAT References (imed_data)

|   Index | Hex Value   |   Dec Value |
|---------|-------------|-------------|
|       0 | 0x0001      |           1 |
|       1 | 0x0000      |           0 |
|       2 | 0x0006      |           6 |
|       3 | 0x0002      |           2 |
|       4 | 0x19BC      |        6588 |
|       5 | 0x19BD      |        6589 |
|       6 | 0x19C5      |        6597 |
|       7 | 0x19C1      |        6593 |
|       8 | 0x19BE      |        6590 |
|       9 | 0x19BF      |        6591 |
|      10 | 0x19C0      |        6592 |
|      11 | 0x001F      |          31 |
|      12 | 0xFFFFFFFF  |  4294967295 |
|      13 | 0x19C6      |        6598 |
|      14 | 0x19C4      |        6596 |
|      15 | 0x19AD      |        6573 |
|      16 | 0x19AE      |        6574 |
|      17 | 0x19AF      |        6575 |
|      18 | 0x19B0      |        6576 |
|      19 | 0x19B1      |        6577 |
|      20 | 0x19B2      |        6578 |
|      21 | 0x19B3      |        6579 |
|      22 | 0x19B4      |        6580 |
|      23 | 0x19B5      |        6581 |
|      24 | 0x19B6      |        6582 |
|      25 | 0x19B7      |        6583 |
|      26 | 0x19B8      |        6584 |
|      27 | 0x19B9      |        6585 |
|      28 | 0x19BA      |        6586 |
|      29 | 0x19BB      |        6587 |

## String References

- **6573**: The residential area is up ahead. You will find your Mog House there.
- **6574**: I'm sure you already know by now, but would you like me to tell you about Mog Houses?
- **6575**: I haven't told you about Mog Houses, have I? Do you have time now?
- **6576**: Listen to Mog House explanation? [Yes./No.]
- **6577**: A Mog House is your very own room in the residential area. You can do such things as store items and recover HP and MP there.
- **6578**: Your Mog House is also the only place where you can change jobs.
- **6579**: Since you are a citizen of Bastok, you already have a Mog House assigned to you in the residential area ahead. Feel free to use it at anytime.
- **6580**: You have a Rent-a-Room in [San d'Oria/Bastok/Windurst/Jeuno/Kazham/Rabao/Norg/Al Zahbi]. You must check out if you wish to return the items stored there to your room in Bastok.
- **6581**: Check out of Rent-a-Room? [Yes./No.]
- **6582**: ...Done. The items you had stored in the room in [San d'Oria/Bastok/Windurst/Jeuno/Kazham/Rabao/Norg/Al Zahbi] have been moved to your Mog House in Bastok.
- **6583**: This is the residential area of Bastok. Since you have a Rent-a-Room here, you are allowed to pass.
- **6584**: This is the residential area of Bastok. Non-citizens are required to rent a Rent-a-Room in order to enter this area.
- **6585**: If you get a Rent-a-Room, your stored items will be moved to Bastok and you will be able to use your new room like the Mog House in your home country.
- **6586**: Lease a Rent-a-Room? [Yes./No.]
- **6587**: ...Done. You now have a room in Bastok's residential area.
- **6588**: The residential area is up ahead. You will find your Mog House there.
- **6589**: The residential area is up ahead. You will find your Rent-a-Room there.
- **6590**: A Mog House is your very own room in the residential area. You can do such things as store items and recover HP and MP there.
- **6591**: Your Mog House is also the only place where you can change jobs.
- **6592**: You have a Mog House assigned to you in the residential area ahead. Feel free to use it at anytime.
- **6593**: Please don't hesitate to ask if you require my assistance.
- **6596**: This way, [sir/madame].
- **6597**: What do you wish to do? [Nothing in particular./Ask for an explanation of Mog Houses./Visit the Mog House of a party member.]
- **6598**: Whose Mog House will you visit? [Never mind./%1/%2/%3/%4/%5/%6/%7/%8/%9/%10/%11/%12/%13/%14/%15/%16/%17]

## Events

### Event 65535

#### Metadata

| Field        | Value   |
|--------------|---------|
| Entrypoint   | 0x0000  |
| Data Size    | 6 bytes |
| Instructions | 2       |

```
      00 01 02 03 04 05 06 07  08 09 0A 0B 0C 0D 0E 0F
      -- -- -- -- -- -- -- --  -- -- -- -- -- -- -- --
0000: 03 00 00 00 80 00                                 ......          
```

#### Opcodes

```
  0: 0x0000 [0x03] ExtData[1]->WorkLocal[0] = 1*
  1: 0x0005 [0x00] END_REQSTACK()
```

### Event 487

#### Metadata

| Field        | Value     |
|--------------|-----------|
| Entrypoint   | 0x0006    |
| Data Size    | 208 bytes |
| Instructions | 50        |

```
      00 01 02 03 04 05 06 07  08 09 0A 0B 0C 0D 0E 0F
      -- -- -- -- -- -- -- --  -- -- -- -- -- -- -- --
0000:                   02 00  00 01 80 00 D5 00 03 01        ..........
0010: 10 01 80 03 02 00 02 80  C2 01 01 00 02 01 00 01  ................
0020: 80 01 2B 00 3D 02 00 03  80 00 80 1E F0 FF FF 7F  ..+.=...........
0030: 02 02 10 00 80 00 46 00  1D 04 80 23 3D 02 00 00  ......F....#=...
0040: 80 00 80 01 4A 00 1D 05  80 23 02 02 00 02 80 01  ....J....#......
0050: D4 00 24 06 80 01 80 02  00 25 02 00 10 01 80 00  ..$......%......
0060: 69 00 1D 07 80 23 01 D4  00 02 00 10 00 80 00 87  i....#..........
0070: 00 1D 08 80 23 1D 09 80  23 1D 0A 80 23 3C 01 10  ....#...#...#<..
0080: 0B 80 00 80 01 D4 00 02  00 10 03 80 00 D4 00 C2  ................
0090: 01 01 00 0F 01 00 0C 80  3D 01 00 01 80 00 80 24  ........=......$
00A0: 0D 80 01 80 01 00 25 02  00 10 01 80 00 B6 00 1D  ......%.........
00B0: 07 80 23 01 B6 00 02 00  10 01 80 00 C6 00 03 01  ..#.............
00C0: 10 01 80 01 D1 00 42 1D  0E 80 23 C2 02 00 10 01  ......B...#.....
00D0: 10 01 D4 00 21 00                                 ....!.          
```

#### Opcodes

```
  0: 0x0006 [0x02] IF !(ExtData[1]->WorkLocal[0] == 0*) GOTO 0x00D5
  1: 0x000E [0x03] Work_Zone[1] = 0*
  2: 0x0013 [0x03] ExtData[1]->WorkLocal[2] = 6*
  3: 0x0018 [0xC2] PARTY_STATE_CHECK: ExtData[1]->WorkLocal[1] = mask of visitable party members
  4: 0x001C [0x02] IF !(ExtData[1]->WorkLocal[1] == 0*) GOTO 0x002B
  5: 0x0024 [0x3D] CLEAR_BIT_FLAG_CONDITIONAL(target_work_offset=ExtData[1]->WorkLocal[2], bit_index_work_offset=2*, condition_work_offset=1*)
  6: 0x002B [0x1E] EventEntity looks at LocalPlayer and starts talking
  7: 0x0030 [0x02] IF !(Work_Zone[2] == 1*) GOTO 0x0046
  8: 0x0038 [0x1D] PRINT_EVENT_MESSAGE(message_id=6588*)
    → "The residential area is up ahead. You will find your Mog House there."
  9: 0x003B [0x23] WAIT_FOR_DIALOG_INTERACTION
 10: 0x003C [0x3D] CLEAR_BIT_FLAG_CONDITIONAL(target_work_offset=ExtData[1]->WorkLocal[2], bit_index_work_offset=1*, condition_work_offset=1*)
 11: 0x0043 [0x01] GOTO 0x004A
 12: 0x0046 [0x1D] PRINT_EVENT_MESSAGE(message_id=6589*)
    → "The residential area is up ahead. You will find your Rent-a-Room there."
 13: 0x0049 [0x23] WAIT_FOR_DIALOG_INTERACTION

SUBROUTINE_004A:
 14: 0x004A [0x02] IF !(ExtData[1]->WorkLocal[2] == 6*) GOTO 0x00D4
 15: 0x0052 [0x24] CREATE_DIALOG(message_id=6597*, default_option=0*, option_flags=ExtData[1]->WorkLocal[2])
    → "What do you wish to do? [Nothing in particular./Ask for an explanation of Mog Houses./Visit the Mog House of a party member.]"
 16: 0x0059 [0x25] WAIT_DIALOG_SELECT()
 17: 0x005A [0x02] IF !(Work_Zone[0] == 0*) GOTO 0x0069
 18: 0x0062 [0x1D] PRINT_EVENT_MESSAGE(message_id=6593*)
    → "Please don't hesitate to ask if you require my assistance."
 19: 0x0065 [0x23] WAIT_FOR_DIALOG_INTERACTION
 20: 0x0066 [0x01] GOTO 0x00D4
 21: 0x0069 [0x02] IF !(Work_Zone[0] == 1*) GOTO 0x0087
 22: 0x0071 [0x1D] PRINT_EVENT_MESSAGE(message_id=6590*)
    → "A Mog House is your very own room in the residential area. You can do such things as store items and recover HP and MP there."
 23: 0x0074 [0x23] WAIT_FOR_DIALOG_INTERACTION
 24: 0x0075 [0x1D] PRINT_EVENT_MESSAGE(message_id=6591*)
    → "Your Mog House is also the only place where you can change jobs."
 25: 0x0078 [0x23] WAIT_FOR_DIALOG_INTERACTION
 26: 0x0079 [0x1D] PRINT_EVENT_MESSAGE(message_id=6592*)
    → "You have a Mog House assigned to you in the residential area ahead. Feel free to use it at anytime."
 27: 0x007C [0x23] WAIT_FOR_DIALOG_INTERACTION
 28: 0x007D [0x3C] SET_BIT_FLAG_CONDITIONAL(target_work_offset=Work_Zone[1], bit_index_work_offset=31*, condition_work_offset=1*)
 29: 0x0084 [0x01] GOTO 0x00D4
 30: 0x0087 [0x02] IF !(Work_Zone[0] == 2*) GOTO 0x00D4
 31: 0x008F [0xC2] PARTY_STATE_CHECK: ExtData[1]->WorkLocal[1] = mask of visitable party members
 32: 0x0093 [0x0F] ExtData[1]->WorkLocal[1] ^= 4294967295*
 33: 0x0098 [0x3D] CLEAR_BIT_FLAG_CONDITIONAL(target_work_offset=ExtData[1]->WorkLocal[1], bit_index_work_offset=0*, condition_work_offset=1*)
 34: 0x009F [0x24] CREATE_DIALOG(message_id=6598*, default_option=0*, option_flags=ExtData[1]->WorkLocal[1])
    → "Whose Mog House will you visit? [Never mind./%1/%2/%3/%4/%5/%6/%7/%8/%9/%10/%11/%12/%13/%14/%15/%16/%17]"
 35: 0x00A6 [0x25] WAIT_DIALOG_SELECT()
 36: 0x00A7 [0x02] IF !(Work_Zone[0] == 0*) GOTO 0x00B6
 37: 0x00AF [0x1D] PRINT_EVENT_MESSAGE(message_id=6593*)
    → "Please don't hesitate to ask if you require my assistance."
 38: 0x00B2 [0x23] WAIT_FOR_DIALOG_INTERACTION
 39: 0x00B3 [0x01] GOTO 0x00B6

SUBROUTINE_00B6:
 40: 0x00B6 [0x02] IF !(Work_Zone[0] == 0*) GOTO 0x00C6
 41: 0x00BE [0x03] Work_Zone[1] = 0*
 42: 0x00C3 [0x01] GOTO 0x00D1
 43: 0x00C6 [0x42] SET_CLI_EVENT_CANCEL_DATA()
 44: 0x00C7 [0x1D] PRINT_EVENT_MESSAGE(message_id=6596*)
    → "This way, [sir/madame]."
 45: 0x00CA [0x23] WAIT_FOR_DIALOG_INTERACTION
 46: 0x00CB [0xC2] PARTY_STATE_CHECK: Work_Zone[1] = check if party member (from Work_Zone[0]) house is open

SUBROUTINE_00D1:
 47: 0x00D1 [0x01] GOTO 0x00D4

SUBROUTINE_00D4:
 48: 0x00D4 [0x21] END_EVENT
 49: 0x00D5 [0x00] END_REQSTACK()
```

### Event 488

#### Metadata

| Field        | Value     |
|--------------|-----------|
| Entrypoint   | 0x00D6    |
| Data Size    | 204 bytes |
| Instructions | 49        |

```
      00 01 02 03 04 05 06 07  08 09 0A 0B 0C 0D 0E 0F
      -- -- -- -- -- -- -- --  -- -- -- -- -- -- -- --
00D0:                   02 00  00 01 80 01 A1 01 03 01        ..........
00E0: 10 01 80 03 02 00 02 80  C2 01 01 00 02 01 00 01  ................
00F0: 80 01 07 01 3D 02 00 03  80 00 80 0F 01 00 0C 80  ....=...........
0100: 3D 01 00 01 80 00 80 1E  F0 FF FF 7F 02 02 10 00  =...............
0110: 80 00 22 01 1D 04 80 23  3D 02 00 00 80 00 80 01  .."....#=.......
0120: 26 01 1D 05 80 23 02 02  00 02 80 01 A0 01 24 06  &....#........$.
0130: 80 01 80 02 00 25 02 00  10 01 80 00 45 01 1D 07  .....%......E...
0140: 80 23 01 A0 01 02 00 10  00 80 00 63 01 1D 08 80  .#.........c....
0150: 23 1D 09 80 23 1D 0A 80  23 3C 01 10 0B 80 00 80  #...#...#<......
0160: 01 A0 01 02 00 10 03 80  00 A0 01 24 0D 80 01 80  ...........$....
0170: 01 00 25 02 00 10 01 80  00 82 01 1D 07 80 23 01  ..%...........#.
0180: 82 01 02 00 10 01 80 00  92 01 03 01 10 01 80 01  ................
0190: 9D 01 42 1D 0E 80 23 C2  02 00 10 01 10 01 A0 01  ..B...#.........
01A0: 21 00                                             !.              
```

#### Opcodes

```
  0: 0x00D6 [0x02] IF !(ExtData[1]->WorkLocal[0] == 0*) GOTO 0x01A1
  1: 0x00DE [0x03] Work_Zone[1] = 0*
  2: 0x00E3 [0x03] ExtData[1]->WorkLocal[2] = 6*
  3: 0x00E8 [0xC2] PARTY_STATE_CHECK: ExtData[1]->WorkLocal[1] = mask of visitable party members
  4: 0x00EC [0x02] IF !(ExtData[1]->WorkLocal[1] == 0*) GOTO 0x0107
  5: 0x00F4 [0x3D] CLEAR_BIT_FLAG_CONDITIONAL(target_work_offset=ExtData[1]->WorkLocal[2], bit_index_work_offset=2*, condition_work_offset=1*)
  6: 0x00FB [0x0F] ExtData[1]->WorkLocal[1] ^= 4294967295*
  7: 0x0100 [0x3D] CLEAR_BIT_FLAG_CONDITIONAL(target_work_offset=ExtData[1]->WorkLocal[1], bit_index_work_offset=0*, condition_work_offset=1*)
  8: 0x0107 [0x1E] EventEntity looks at LocalPlayer and starts talking
  9: 0x010C [0x02] IF !(Work_Zone[2] == 1*) GOTO 0x0122
 10: 0x0114 [0x1D] PRINT_EVENT_MESSAGE(message_id=6588*)
    → "The residential area is up ahead. You will find your Mog House there."
 11: 0x0117 [0x23] WAIT_FOR_DIALOG_INTERACTION
 12: 0x0118 [0x3D] CLEAR_BIT_FLAG_CONDITIONAL(target_work_offset=ExtData[1]->WorkLocal[2], bit_index_work_offset=1*, condition_work_offset=1*)
 13: 0x011F [0x01] GOTO 0x0126
 14: 0x0122 [0x1D] PRINT_EVENT_MESSAGE(message_id=6589*)
    → "The residential area is up ahead. You will find your Rent-a-Room there."
 15: 0x0125 [0x23] WAIT_FOR_DIALOG_INTERACTION

SUBROUTINE_0126:
 16: 0x0126 [0x02] IF !(ExtData[1]->WorkLocal[2] == 6*) GOTO 0x01A0
 17: 0x012E [0x24] CREATE_DIALOG(message_id=6597*, default_option=0*, option_flags=ExtData[1]->WorkLocal[2])
    → "What do you wish to do? [Nothing in particular./Ask for an explanation of Mog Houses./Visit the Mog House of a party member.]"
 18: 0x0135 [0x25] WAIT_DIALOG_SELECT()
 19: 0x0136 [0x02] IF !(Work_Zone[0] == 0*) GOTO 0x0145
 20: 0x013E [0x1D] PRINT_EVENT_MESSAGE(message_id=6593*)
    → "Please don't hesitate to ask if you require my assistance."
 21: 0x0141 [0x23] WAIT_FOR_DIALOG_INTERACTION
 22: 0x0142 [0x01] GOTO 0x01A0
 23: 0x0145 [0x02] IF !(Work_Zone[0] == 1*) GOTO 0x0163
 24: 0x014D [0x1D] PRINT_EVENT_MESSAGE(message_id=6590*)
    → "A Mog House is your very own room in the residential area. You can do such things as store items and recover HP and MP there."
 25: 0x0150 [0x23] WAIT_FOR_DIALOG_INTERACTION
 26: 0x0151 [0x1D] PRINT_EVENT_MESSAGE(message_id=6591*)
    → "Your Mog House is also the only place where you can change jobs."
 27: 0x0154 [0x23] WAIT_FOR_DIALOG_INTERACTION
 28: 0x0155 [0x1D] PRINT_EVENT_MESSAGE(message_id=6592*)
    → "You have a Mog House assigned to you in the residential area ahead. Feel free to use it at anytime."
 29: 0x0158 [0x23] WAIT_FOR_DIALOG_INTERACTION
 30: 0x0159 [0x3C] SET_BIT_FLAG_CONDITIONAL(target_work_offset=Work_Zone[1], bit_index_work_offset=31*, condition_work_offset=1*)
 31: 0x0160 [0x01] GOTO 0x01A0
 32: 0x0163 [0x02] IF !(Work_Zone[0] == 2*) GOTO 0x01A0
 33: 0x016B [0x24] CREATE_DIALOG(message_id=6598*, default_option=0*, option_flags=ExtData[1]->WorkLocal[1])
    → "Whose Mog House will you visit? [Never mind./%1/%2/%3/%4/%5/%6/%7/%8/%9/%10/%11/%12/%13/%14/%15/%16/%17]"
 34: 0x0172 [0x25] WAIT_DIALOG_SELECT()
 35: 0x0173 [0x02] IF !(Work_Zone[0] == 0*) GOTO 0x0182
 36: 0x017B [0x1D] PRINT_EVENT_MESSAGE(message_id=6593*)
    → "Please don't hesitate to ask if you require my assistance."
 37: 0x017E [0x23] WAIT_FOR_DIALOG_INTERACTION
 38: 0x017F [0x01] GOTO 0x0182

SUBROUTINE_0182:
 39: 0x0182 [0x02] IF !(Work_Zone[0] == 0*) GOTO 0x0192
 40: 0x018A [0x03] Work_Zone[1] = 0*
 41: 0x018F [0x01] GOTO 0x019D
 42: 0x0192 [0x42] SET_CLI_EVENT_CANCEL_DATA()
 43: 0x0193 [0x1D] PRINT_EVENT_MESSAGE(message_id=6596*)
    → "This way, [sir/madame]."
 44: 0x0196 [0x23] WAIT_FOR_DIALOG_INTERACTION
 45: 0x0197 [0xC2] PARTY_STATE_CHECK: Work_Zone[1] = check if party member (from Work_Zone[0]) house is open

SUBROUTINE_019D:
 46: 0x019D [0x01] GOTO 0x01A0

SUBROUTINE_01A0:
 47: 0x01A0 [0x21] END_EVENT
 48: 0x01A1 [0x00] END_REQSTACK()
```

### Event 3

#### Metadata

| Field        | Value     |
|--------------|-----------|
| Entrypoint   | 0x01A2    |
| Data Size    | 189 bytes |
| Instructions | 55        |

```
      00 01 02 03 04 05 06 07  08 09 0A 0B 0C 0D 0E 0F
      -- -- -- -- -- -- -- --  -- -- -- -- -- -- -- --
01A0:       1E F0 FF FF 7F 03  01 10 01 80 02 02 10 00    ..............
01B0: 80 00 28 02 02 03 10 00  80 00 04 02 1D 0F 80 23  ..(............#
01C0: 02 04 10 00 80 00 D4 01  1D 10 80 23 03 03 00 00  ...........#....
01D0: 80 01 DD 01 1D 11 80 23  03 03 00 01 80 24 12 80  .......#.....$..
01E0: 03 00 01 80 25 02 00 10  01 80 00 01 02 1D 13 80  ....%...........
01F0: 23 1D 14 80 23 1D 15 80  23 03 01 10 00 80 01 01  #...#...#.......
0200: 02 01 25 02 1D 16 80 23  24 17 80 01 80 01 80 25  ..%....#$......%
0210: 02 00 10 01 80 00 25 02  42 1D 18 80 23 03 01 10  ......%.B...#...
0220: 03 80 01 25 02 01 5C 02  02 03 10 00 80 00 37 02  ...%..\.......7.
0230: 1D 19 80 23 01 5C 02 1D  1A 80 23 1D 1B 80 23 24  ...#.\....#...#$
0240: 1C 80 01 80 01 80 25 02  00 10 01 80 00 5C 02 42  ......%......\.B
0250: 1D 1D 80 23 03 01 10 03  80 01 5C 02 21 00 00     ...#......\.!.. 
```

#### Opcodes

```
  0: 0x01A2 [0x1E] EventEntity looks at LocalPlayer and starts talking
  1: 0x01A7 [0x03] Work_Zone[1] = 0*
  2: 0x01AC [0x02] IF !(Work_Zone[2] == 1*) GOTO 0x0228
  3: 0x01B4 [0x02] IF !(Work_Zone[3] == 1*) GOTO 0x0204
  4: 0x01BC [0x1D] PRINT_EVENT_MESSAGE(message_id=6573*)
    → "The residential area is up ahead. You will find your Mog House there."
  5: 0x01BF [0x23] WAIT_FOR_DIALOG_INTERACTION
  6: 0x01C0 [0x02] IF !(Work_Zone[4] == 1*) GOTO 0x01D4
  7: 0x01C8 [0x1D] PRINT_EVENT_MESSAGE(message_id=6574*)
    → "I'm sure you already know by now, but would you like me to tell you about Mog Houses?"
  8: 0x01CB [0x23] WAIT_FOR_DIALOG_INTERACTION
  9: 0x01CC [0x03] ExtData[1]->WorkLocal[3] = 1*
 10: 0x01D1 [0x01] GOTO 0x01DD
 11: 0x01D4 [0x1D] PRINT_EVENT_MESSAGE(message_id=6575*)
    → "I haven't told you about Mog Houses, have I? Do you have time now?"
 12: 0x01D7 [0x23] WAIT_FOR_DIALOG_INTERACTION
 13: 0x01D8 [0x03] ExtData[1]->WorkLocal[3] = 0*

SUBROUTINE_01DD:
 14: 0x01DD [0x24] CREATE_DIALOG(message_id=6576*, default_option=ExtData[1]->WorkLocal[3], option_flags=0*)
    → "Listen to Mog House explanation? [Yes./No.]"
 15: 0x01E4 [0x25] WAIT_DIALOG_SELECT()
 16: 0x01E5 [0x02] IF !(Work_Zone[0] == 0*) GOTO 0x0201
 17: 0x01ED [0x1D] PRINT_EVENT_MESSAGE(message_id=6577*)
    → "A Mog House is your very own room in the residential area. You can do such things as store items and recover HP and MP there."
 18: 0x01F0 [0x23] WAIT_FOR_DIALOG_INTERACTION
 19: 0x01F1 [0x1D] PRINT_EVENT_MESSAGE(message_id=6578*)
    → "Your Mog House is also the only place where you can change jobs."
 20: 0x01F4 [0x23] WAIT_FOR_DIALOG_INTERACTION
 21: 0x01F5 [0x1D] PRINT_EVENT_MESSAGE(message_id=6579*)
    → "Since you are a citizen of Bastok, you already have a Mog House assigned to you in the residential area ahead. Feel free to use it at anytime."
 22: 0x01F8 [0x23] WAIT_FOR_DIALOG_INTERACTION
 23: 0x01F9 [0x03] Work_Zone[1] = 1*
 24: 0x01FE [0x01] GOTO 0x0201

SUBROUTINE_0201:
 25: 0x0201 [0x01] GOTO 0x0225
 26: 0x0204 [0x1D] PRINT_EVENT_MESSAGE(message_id=6580*)
    → "You have a Rent-a-Room in [San d'Oria/Bastok/Windurst/Jeuno/Kazham/Rabao/Norg/Al Zahbi]. You must check out if you wish to return the items stored there to your room in Bastok."
 27: 0x0207 [0x23] WAIT_FOR_DIALOG_INTERACTION
 28: 0x0208 [0x24] CREATE_DIALOG(message_id=6581*, default_option=0*, option_flags=0*)
    → "Check out of Rent-a-Room? [Yes./No.]"
 29: 0x020F [0x25] WAIT_DIALOG_SELECT()
 30: 0x0210 [0x02] IF !(Work_Zone[0] == 0*) GOTO 0x0225
 31: 0x0218 [0x42] SET_CLI_EVENT_CANCEL_DATA()
 32: 0x0219 [0x1D] PRINT_EVENT_MESSAGE(message_id=6582*)
    → "...Done. The items you had stored in the room in [San d'Oria/Bastok/Windurst/Jeuno/Kazham/Rabao/Norg/Al Zahbi] have been moved to your Mog House in Bastok."
 33: 0x021C [0x23] WAIT_FOR_DIALOG_INTERACTION
 34: 0x021D [0x03] Work_Zone[1] = 2*
 35: 0x0222 [0x01] GOTO 0x0225

SUBROUTINE_0225:
 36: 0x0225 [0x01] GOTO 0x025C
 37: 0x0228 [0x02] IF !(Work_Zone[3] == 1*) GOTO 0x0237
 38: 0x0230 [0x1D] PRINT_EVENT_MESSAGE(message_id=6583*)
    → "This is the residential area of Bastok. Since you have a Rent-a-Room here, you are allowed to pass."
 39: 0x0233 [0x23] WAIT_FOR_DIALOG_INTERACTION
 40: 0x0234 [0x01] GOTO 0x025C
 41: 0x0237 [0x1D] PRINT_EVENT_MESSAGE(message_id=6584*)
    → "This is the residential area of Bastok. Non-citizens are required to rent a Rent-a-Room in order to enter this area."
 42: 0x023A [0x23] WAIT_FOR_DIALOG_INTERACTION
 43: 0x023B [0x1D] PRINT_EVENT_MESSAGE(message_id=6585*)
    → "If you get a Rent-a-Room, your stored items will be moved to Bastok and you will be able to use your new room like the Mog House in your home country."
 44: 0x023E [0x23] WAIT_FOR_DIALOG_INTERACTION
 45: 0x023F [0x24] CREATE_DIALOG(message_id=6586*, default_option=0*, option_flags=0*)
    → "Lease a Rent-a-Room? [Yes./No.]"
 46: 0x0246 [0x25] WAIT_DIALOG_SELECT()
 47: 0x0247 [0x02] IF !(Work_Zone[0] == 0*) GOTO 0x025C
 48: 0x024F [0x42] SET_CLI_EVENT_CANCEL_DATA()
 49: 0x0250 [0x1D] PRINT_EVENT_MESSAGE(message_id=6587*)
    → "...Done. You now have a room in Bastok's residential area."
 50: 0x0253 [0x23] WAIT_FOR_DIALOG_INTERACTION
 51: 0x0254 [0x03] Work_Zone[1] = 2*
 52: 0x0259 [0x01] GOTO 0x025C

SUBROUTINE_025C:
 53: 0x025C [0x21] END_EVENT
 54: 0x025D [0x00] END_REQSTACK()
```

#### Data or dead code:

```
# Dead code (unreachable instructions):
     0x025E [0x00] END_REQSTACK()
```
