# 17739794 - Ardea

## Common Data

| Field            | Value                    |
|------------------|--------------------------|
| Zone             | Bastok Markets (ID: 235) |
| Block Size       | 296 bytes                |
| Total Events     | 7                        |
| References Count | 16                       |

## List of Events

| Event ID              | Entrypoint   |   Size |   Instructions |
|-----------------------|--------------|--------|----------------|
| [65535](#event-65535) | 0x0000       |      1 |              1 |
| [260](#event-260)     | 0x0001       |     11 |              5 |
| [261](#event-261)     | 0x000C       |    101 |             20 |
| [262](#event-262)     | 0x0071       |     11 |              5 |
| [263](#event-263)     | 0x007C       |     30 |              8 |
| [264](#event-264)     | 0x009A       |     22 |             11 |
| [265](#event-265)     | 0x00B0       |     11 |              5 |

## DAT References (imed_data)

|   Index | Hex Value   |   Dec Value |
|---------|-------------|-------------|
|       0 | 0x1DF1      |        7665 |
|       1 | 0x007A      |         122 |
|       2 | 0x1DF2      |        7666 |
|       3 | 0x000A      |          10 |
|       4 | 0x1DF3      |        7667 |
|       5 | 0x1DF4      |        7668 |
|       6 | 0x0001      |           1 |
|       7 | 0x0000      |           0 |
|       8 | 0x1DF5      |        7669 |
|       9 | 0x1DF6      |        7670 |
|      10 | 0x1DF7      |        7671 |
|      11 | 0x1DF8      |        7672 |
|      12 | 0x200C      |        8204 |
|      13 | 0x200D      |        8205 |
|      14 | 0x200E      |        8206 |
|      15 | 0x200F      |        8207 |

## String References

- **7665**: This is the Goldsmiths' Guild. Do not enter the premises unless you have business with the guild.
- **7666**: Hmm... This $3 seems to have some traces of mythril in it. Not enough to be worth much, unfortunately.
- **7667**: I'm willing to buy it off you, but I can't offer you more than ten gil for it.
- **7668**: Sell it for 10 gil? [Yes./No.]
- **7669**: Here you go.
- **7670**: Are you going back to Windurst? I'm sorry I could not make your trip here worthwhile.
- **7671**: Yes? The stone you sold me the other day? You mean the one with the traces of mythril?
- **7672**: I'm sorry, but I believe it has already been used by one of our guild members in his work.
- **8204**: You want me to take a look at this earring? Hmmm...
- **8205**: Why, that is strange. I had a customer come in the other day and ask me to make an earring just like this. She said she had lost one of the pair.
- **8206**: I told her that it would be impossible for me to replace the lost earring, so I am sure she would be quite pleased if you returned it to her. I think she said her name was Esca.
- **8207**: Could you please take that earring to Esca? I am sure she would be quite pleased to have it returned.

## Events

### Event 65535

#### Metadata

| Field        | Value   |
|--------------|---------|
| Entrypoint   | 0x0000  |
| Data Size    | 1 bytes |
| Instructions | 1       |

```
      00 01 02 03 04 05 06 07  08 09 0A 0B 0C 0D 0E 0F
      -- -- -- -- -- -- -- --  -- -- -- -- -- -- -- --
0000: 00                                                .               
```

#### Opcodes

```
  0: 0x0000 [0x00] END_REQSTACK()
```

### Event 260

#### Metadata

| Field        | Value    |
|--------------|----------|
| Entrypoint   | 0x0001   |
| Data Size    | 11 bytes |
| Instructions | 5        |

```
      00 01 02 03 04 05 06 07  08 09 0A 0B 0C 0D 0E 0F
      -- -- -- -- -- -- -- --  -- -- -- -- -- -- -- --
0000:    1E F0 FF FF 7F 1D 00  80 23 21 00               ........#!.    
```

#### Opcodes

```
  0: 0x0001 [0x1E] EventEntity looks at LocalPlayer and starts talking
  1: 0x0006 [0x1D] PRINT_EVENT_MESSAGE(message_id=7665*)
    → "This is the Goldsmiths' Guild. Do not enter the premises unless you have business with the guild."
  2: 0x0009 [0x23] WAIT_FOR_DIALOG_INTERACTION
  3: 0x000A [0x21] END_EVENT
  4: 0x000B [0x00] END_REQSTACK()
```

### Event 261

#### Metadata

| Field        | Value     |
|--------------|-----------|
| Entrypoint   | 0x000C    |
| Data Size    | 101 bytes |
| Instructions | 20        |

```
      00 01 02 03 04 05 06 07  08 09 0A 0B 0C 0D 0E 0F
      -- -- -- -- -- -- -- --  -- -- -- -- -- -- -- --
0000:                                      03 09 10 01              ....
0010: 80 1E F0 FF FF 7F 1D 02  80 23 66 03 80 F8 FF FF  .........#f.....
0020: 7F F8 FF FF 7F 74 6C 6B  30 1D 04 80 23 5E 69 64  .....tlk0...#^id
0030: 6C 30 24 05 80 06 80 07  80 25 02 00 10 07 80 00  l0$......%......
0040: 6A 00 66 03 80 F8 FF FF  7F F8 FF FF 7F 70 61 73  j.f..........pas
0050: 30 1D 08 80 23 53 F8 FF  FF 7F F8 FF FF 7F 70 61  0...#S........pa
0060: 73 30 03 01 10 07 80 01  6F 00 03 01 10 06 80 21  s0......o......!
0070: 00                                                .               
```

#### Opcodes

```
  0: 0x000C [0x03] Work_Zone[9] = 122*
  1: 0x0011 [0x1E] EventEntity looks at LocalPlayer and starts talking
  2: 0x0016 [0x1D] PRINT_EVENT_MESSAGE(message_id=7666*)
    → "Hmm... This $3 seems to have some traces of mythril in it. Not enough to be worth much, unfortunately."
  3: 0x0019 [0x23] WAIT_FOR_DIALOG_INTERACTION
  4: 0x001A [0x66] LOAD_EXT_SCHEDULER_MAIN: Load scheduler "tlk0" with entities [EventEntity, EventEntity], work=10*
  5: 0x0029 [0x1D] PRINT_EVENT_MESSAGE(message_id=7667*)
    → "I'm willing to buy it off you, but I can't offer you more than ten gil for it."
  6: 0x002C [0x23] WAIT_FOR_DIALOG_INTERACTION
  7: 0x002D [0x5E] EventEntity goes idle (kills current action) (animation: "idl0")
  8: 0x0032 [0x24] CREATE_DIALOG(message_id=7668*, default_option=1*, option_flags=0*)
    → "Sell it for 10 gil? [Yes./No.]"
  9: 0x0039 [0x25] WAIT_DIALOG_SELECT()
 10: 0x003A [0x02] IF !(Work_Zone[0] == 0*) GOTO 0x006A
 11: 0x0042 [0x66] LOAD_EXT_SCHEDULER_MAIN: Load scheduler "pas0" with entities [EventEntity, EventEntity], work=10*
 12: 0x0051 [0x1D] PRINT_EVENT_MESSAGE(message_id=7669*)
    → "Here you go."
 13: 0x0054 [0x23] WAIT_FOR_DIALOG_INTERACTION
 14: 0x0055 [0x53] WAIT_SCHEDULER_TASK: Wait for scheduler "pas0" with entities [EventEntity, EventEntity]
 15: 0x0062 [0x03] Work_Zone[1] = 0*
 16: 0x0067 [0x01] GOTO 0x006F
 17: 0x006A [0x03] Work_Zone[1] = 1*

SUBROUTINE_006F:
 18: 0x006F [0x21] END_EVENT
 19: 0x0070 [0x00] END_REQSTACK()
```

### Event 262

#### Metadata

| Field        | Value    |
|--------------|----------|
| Entrypoint   | 0x0071   |
| Data Size    | 11 bytes |
| Instructions | 5        |

```
      00 01 02 03 04 05 06 07  08 09 0A 0B 0C 0D 0E 0F
      -- -- -- -- -- -- -- --  -- -- -- -- -- -- -- --
0070:    1E F0 FF FF 7F 1D 09  80 23 21 00               ........#!.    
```

#### Opcodes

```
  0: 0x0071 [0x1E] EventEntity looks at LocalPlayer and starts talking
  1: 0x0076 [0x1D] PRINT_EVENT_MESSAGE(message_id=7670*)
    → "Are you going back to Windurst? I'm sorry I could not make your trip here worthwhile."
  2: 0x0079 [0x23] WAIT_FOR_DIALOG_INTERACTION
  3: 0x007A [0x21] END_EVENT
  4: 0x007B [0x00] END_REQSTACK()
```

### Event 263

#### Metadata

| Field        | Value    |
|--------------|----------|
| Entrypoint   | 0x007C   |
| Data Size    | 30 bytes |
| Instructions | 8        |

```
      00 01 02 03 04 05 06 07  08 09 0A 0B 0C 0D 0E 0F
      -- -- -- -- -- -- -- --  -- -- -- -- -- -- -- --
0070:                                      1E F0 FF FF              ....
0080: 7F 1D 0A 80 23 66 03 80  F8 FF FF 7F F8 FF FF 7F  ....#f..........
0090: 74 6C 6B 30 1D 0B 80 23  21 00                    tlk0...#!.      
```

#### Opcodes

```
  0: 0x007C [0x1E] EventEntity looks at LocalPlayer and starts talking
  1: 0x0081 [0x1D] PRINT_EVENT_MESSAGE(message_id=7671*)
    → "Yes? The stone you sold me the other day? You mean the one with the traces of mythril?"
  2: 0x0084 [0x23] WAIT_FOR_DIALOG_INTERACTION
  3: 0x0085 [0x66] LOAD_EXT_SCHEDULER_MAIN: Load scheduler "tlk0" with entities [EventEntity, EventEntity], work=10*
  4: 0x0094 [0x1D] PRINT_EVENT_MESSAGE(message_id=7672*)
    → "I'm sorry, but I believe it has already been used by one of our guild members in his work."
  5: 0x0097 [0x23] WAIT_FOR_DIALOG_INTERACTION
  6: 0x0098 [0x21] END_EVENT
  7: 0x0099 [0x00] END_REQSTACK()
```

### Event 264

#### Metadata

| Field        | Value    |
|--------------|----------|
| Entrypoint   | 0x009A   |
| Data Size    | 22 bytes |
| Instructions | 11       |

```
      00 01 02 03 04 05 06 07  08 09 0A 0B 0C 0D 0E 0F
      -- -- -- -- -- -- -- --  -- -- -- -- -- -- -- --
0090:                                20 01 42 1E F0 FF             .B...
00A0: FF 7F 1D 0C 80 23 1D 0D  80 23 1D 0E 80 23 21 00  .....#...#...#!.
```

#### Opcodes

```
  0: 0x009A [0x20] SET_CLI_EVENT_UC_FLAG: Lock player control
  1: 0x009C [0x42] SET_CLI_EVENT_CANCEL_DATA()
  2: 0x009D [0x1E] EventEntity looks at LocalPlayer and starts talking
  3: 0x00A2 [0x1D] PRINT_EVENT_MESSAGE(message_id=8204*)
    → "You want me to take a look at this earring? Hmmm..."
  4: 0x00A5 [0x23] WAIT_FOR_DIALOG_INTERACTION
  5: 0x00A6 [0x1D] PRINT_EVENT_MESSAGE(message_id=8205*)
    → "Why, that is strange. I had a customer come in the other day and ask me to make an earring just like this. She said she had lost one of the pair."
  6: 0x00A9 [0x23] WAIT_FOR_DIALOG_INTERACTION
  7: 0x00AA [0x1D] PRINT_EVENT_MESSAGE(message_id=8206*)
    → "I told her that it would be impossible for me to replace the lost earring, so I am sure she would be quite pleased if you returned it to her. I think she said her name was Esca."
  8: 0x00AD [0x23] WAIT_FOR_DIALOG_INTERACTION
  9: 0x00AE [0x21] END_EVENT
 10: 0x00AF [0x00] END_REQSTACK()
```

### Event 265

#### Metadata

| Field        | Value    |
|--------------|----------|
| Entrypoint   | 0x00B0   |
| Data Size    | 11 bytes |
| Instructions | 5        |

```
      00 01 02 03 04 05 06 07  08 09 0A 0B 0C 0D 0E 0F
      -- -- -- -- -- -- -- --  -- -- -- -- -- -- -- --
00B0: 1E F0 FF FF 7F 1D 0F 80  23 21 00                 ........#!.     
```

#### Opcodes

```
  0: 0x00B0 [0x1E] EventEntity looks at LocalPlayer and starts talking
  1: 0x00B5 [0x1D] PRINT_EVENT_MESSAGE(message_id=8207*)
    → "Could you please take that earring to Esca? I am sure she would be quite pleased to have it returned."
  2: 0x00B8 [0x23] WAIT_FOR_DIALOG_INTERACTION
  3: 0x00B9 [0x21] END_EVENT
  4: 0x00BA [0x00] END_REQSTACK()
```
