# 17739892 - Marin

## Common Data

| Field            | Value                    |
|------------------|--------------------------|
| Zone             | Bastok Markets (ID: 235) |
| Block Size       | 1756 bytes               |
| Total Events     | 12                       |
| References Count | 50                       |

## List of Events

| Event ID              | Entrypoint   |   Size |   Instructions |
|-----------------------|--------------|--------|----------------|
| [65535](#event-65535) | 0x0000       |      1 |              1 |
| [361](#event-361)     | 0x0001       |    874 |            148 |
| [362](#event-362)     | 0x036B       |    159 |             37 |
| [363](#event-363)     | 0x040A       |    184 |             38 |
| [364](#event-364)     | 0x04C2       |     51 |             11 |
| [365](#event-365)     | 0x04F5       |    108 |             24 |
| [366](#event-366)     | 0x0561       |    108 |             14 |
| [432](#event-432)     | 0x05CD       |      1 |              1 |
| [24](#event-24)       | 0x05CE       |      1 |              1 |
| [586](#event-586)     | 0x05CF       |      1 |              1 |
| [587](#event-587)     | 0x05D0       |      1 |              1 |
| [595](#event-595)     | 0x05D1       |      1 |              1 |

## DAT References (imed_data)

|   Index | Hex Value   |   Dec Value |
|---------|-------------|-------------|
|       0 | 0x0000      |           0 |
|       1 | 0x0013      |          19 |
|       2 | 0x2103      |        8451 |
|       3 | 0x0009      |           9 |
|       4 | 0x2104      |        8452 |
|       5 | 0x0005      |           5 |
|       6 | 0x2105      |        8453 |
|       7 | 0x005A      |          90 |
|       8 | 0x2106      |        8454 |
|       9 | 0x2107      |        8455 |
|      10 | 0x2108      |        8456 |
|      11 | 0x2109      |        8457 |
|      12 | 0x210A      |        8458 |
|      13 | 0x210B      |        8459 |
|      14 | 0x0001      |           1 |
|      15 | 0x00C8      |         200 |
|      16 | 0x0023      |          35 |
|      17 | 0x210C      |        8460 |
|      18 | 0x210D      |        8461 |
|      19 | 0x0016      |          22 |
|      20 | 0x210E      |        8462 |
|      21 | 0x003C      |          60 |
|      22 | 0x210F      |        8463 |
|      23 | 0x2110      |        8464 |
|      24 | 0x2111      |        8465 |
|      25 | 0x2112      |        8466 |
|      26 | 0x001D      |          29 |
|      27 | 0x2113      |        8467 |
|      28 | 0x2114      |        8468 |
|      29 | 0x0002      |           2 |
|      30 | 0x2115      |        8469 |
|      31 | 0x2116      |        8470 |
|      32 | 0x2117      |        8471 |
|      33 | 0x2118      |        8472 |
|      34 | 0x2119      |        8473 |
|      35 | 0x211A      |        8474 |
|      36 | 0x211B      |        8475 |
|      37 | 0x2122      |        8482 |
|      38 | 0x2123      |        8483 |
|      39 | 0x2124      |        8484 |
|      40 | 0x0020      |          32 |
|      41 | 0x211C      |        8476 |
|      42 | 0x2125      |        8485 |
|      43 | 0x2126      |        8486 |
|      44 | 0x00C9      |         201 |
|      45 | 0x211D      |        8477 |
|      46 | 0x211E      |        8478 |
|      47 | 0x0022      |          34 |
|      48 | 0x211F      |        8479 |
|      49 | 0x2128      |        8488 |

## String References

- **8451**: Are you sure you'll be all right? I could always go for you.
- **8453**: But... I'm so worried. What if one of those terrible Goblins finds you?
- **8454**: Do you have enough potions? What about your map? Remember not to drink any of the water from those dirty springs.
- **8455**: Ah, an adventurer! It is your job to help people, right? Are you interested in becoming a bodyguard for my little brother?
- **8458**: Okay? [Okay./I wasn't talking to you, squirt.]
- **8460**: Oh, thank you so much! Let me explain the job.
- **8461**: My brother has taken it upon himself to apply for the military academy. I tried to stop him, but he simply won't listen to reason. Anyway, he has been given an entrance examination that requires him to travel to the Dangruf Wadi and survey a part of the area.
- **8462**: Dangruf Wadi... Just the name of that place gives me goose bumps! All those lizards and leeches... They're sure to eat Ken alive!
- **8466**: But think of how Mom would suffer if you were brought back from your test in a body bag! She would... I would...
- **8467**: No! I cannot let you go by yourself!
- **8468**: Please, [sir/ma'am]! Protect my brother during his test! I promise I'll find something to reward you with!
- **8469**: Accept the job? [You can count on me!/I don't like kids.]
- **8471**: Oh, thank you thank you thank you thank you! Now I can rest easy knowing that a powerful adventurer will be by Ken's side.
- **8473**: The Wadi is an evil place crawling with ferocious beasts. Don't allow any of them to lay a finger on my brother.
- **8475**: Oh, what am I to do... I don't want to be an only child...
- **8476**: Please, [sir/ma'am]! I ask you again, protect my brother during his test! I promise I'll make it worth your while!
- **8477**: What's wrong? You haven't begun to have second thoughts, have you?
- **8478**: Second thoughts? [And third thoughts./No, everything's fine.]
- **8479**: And after you said you'd help me! If anything happens to my brother, I'll curse you until you die!
- **8482**: My brother was accused of cheating on his military academy entrance examination and has been ordered to take a make-up test...
- **8483**: Please, will you accompany him?
- **8484**: Babysit Marin's brother? [No problem./Not this time.]
- **8485**: Thank you so much for watching over my brother. Now that the test is over, he seems to be in a much better mood.
- **8486**: Here is the reward I promised you.
- **8488**: I do hope that you pass...

## Events

### Event 65535

#### Metadata

| Field        | Value   |
|--------------|---------|
| Entrypoint   | 0x0000  |
| Data Size    | 1 bytes |
| Instructions | 1       |

```
      00 01 02 03 04 05 06 07  08 09 0A 0B 0C 0D 0E 0F
      -- -- -- -- -- -- -- --  -- -- -- -- -- -- -- --
0000: 00                                                .               
```

#### Opcodes

```
  0: 0x0000 [0x00] END_REQSTACK()
```

### Event 361

#### Metadata

| Field        | Value     |
|--------------|-----------|
| Entrypoint   | 0x0001    |
| Data Size    | 874 bytes |
| Instructions | 148       |

```
      00 01 02 03 04 05 06 07  08 09 0A 0B 0C 0D 0E 0F
      -- -- -- -- -- -- -- --  -- -- -- -- -- -- -- --
0000:    02 02 10 00 80 01 0C  00 01 06 01 66 01 80 F8   ...........f...
0010: FF FF 7F F8 FF FF 7F 74  6C 6B 30 1D 02 80 23 66  .......tlk0...#f
0020: 03 80 75 B0 0E 01 75 B0  0E 01 74 6C 6B 30 2B 75  ..u...u...tlk0+u
0030: B0 0E 01 04 80 23 1A 79  05 6E F8 FF FF 7F 05 80  .....#.y.n......
0040: 99 F8 FF FF 7F 1D 06 80  23 1C 07 80 1A A3 05 66  ........#......f
0050: 01 80 F8 FF FF 7F F8 FF  FF 7F 74 6C 6B 30 1D 08  ..........tlk0..
0060: 80 23 1A 79 05 1C 07 80  1E F0 FF FF 7F 6F 70 4A  .#.y.........opJ
0070: 75 B0 0E 01 F0 FF FF 7F  66 01 80 F8 FF FF 7F F8  u.......f.......
0080: FF FF 7F 74 6C 6B 30 1D  09 80 23 6F 76 75 B0 0E  ...tlk0...#ovu..
0090: 01 4A 75 B0 0E 01 F8 FF  FF 7F 6F 76 75 B0 0E 01  .Ju.......ovu...
00A0: 66 03 80 75 B0 0E 01 75  B0 0E 01 74 6C 6B 30 2B  f..u...u...tlk0+
00B0: 75 B0 0E 01 0A 80 23 1A  79 05 1A A3 05 4A 75 B0  u.....#.y....Ju.
00C0: 0E 01 F0 FF FF 7F 6F 76  75 B0 0E 01 66 03 80 75  ......ovu...f..u
00D0: B0 0E 01 75 B0 0E 01 74  6C 6B 30 2B 75 B0 0E 01  ...u...tlk0+u...
00E0: 0B 80 23 24 0C 80 00 80  00 80 25 02 00 10 00 80  ..#$......%.....
00F0: 00 FE 00 2B 75 B0 0E 01  0D 80 23 01 69 03 02 00  ...+u.....#.i...
0100: 10 0E 80 00 69 03 42 46  01 45 0F 80 F8 FF FF 7F  ....i.BF.E......
0110: F8 FF FF 7F 66 64 6F 30  00 80 55 0F 80 F8 FF FF  ....fdo0..U.....
0120: 7F F8 FF FF 7F 66 64 6F  30 38 01 80 29 0A F0 FF  .....fdo08..)...
0130: FF 7F 10 1E F0 FF FF 7F  4A 75 B0 0E 01 F0 FF FF  ........Ju......
0140: 7F 1A A3 05 6F 70 6F 76  75 B0 0E 01 45 10 80 F8  ....opovu...E...
0150: FF FF 7F F8 FF FF 7F 73  74 62 30 00 80 45 0F 80  .......stb0..E..
0160: F8 FF FF 7F F8 FF FF 7F  66 64 69 30 00 80 55 0F  ........fdi0..U.
0170: 80 F8 FF FF 7F F8 FF FF  7F 66 64 69 30 66 01 80  .........fdi0f..
0180: F8 FF FF 7F F8 FF FF 7F  74 6C 6B 30 1D 11 80 23  ........tlk0...#
0190: 1D 12 80 23 1A 79 05 6E  F8 FF FF 7F 13 80 99 F8  ...#.y.n........
01A0: FF FF 7F 1D 14 80 23 1C  15 80 66 01 80 F8 FF FF  ......#...f.....
01B0: 7F F8 FF FF 7F 74 68 6B  31 4A 75 B0 0E 01 F8 FF  .....thk1Ju.....
01C0: FF 7F 6F 76 75 B0 0E 01  66 03 80 75 B0 0E 01 75  ..ovu...f..u...u
01D0: B0 0E 01 74 6C 6B 30 2B  75 B0 0E 01 16 80 23 2B  ...tlk0+u.....#+
01E0: 75 B0 0E 01 17 80 23 2B  75 B0 0E 01 18 80 23 53  u.....#+u.....#S
01F0: F8 FF FF 7F F8 FF FF 7F  74 68 6B 31 66 01 80 F8  ........thk1f...
0200: FF FF 7F F8 FF FF 7F 74  68 6B 32 53 F8 FF FF 7F  .......thk2S....
0210: F8 FF FF 7F 74 68 6B 32  1A A3 05 1E 75 B0 0E 01  ....thk2....u...
0220: 66 01 80 F8 FF FF 7F F8  FF FF 7F 74 6C 6B 30 1D  f..........tlk0.
0230: 19 80 23 1A 79 05 6E F8  FF FF 7F 1A 80 99 F8 FF  ..#.y.n.........
0240: FF 7F 1D 1B 80 23 1C 07  80 1E F0 FF FF 7F 6F 70  .....#........op
0250: 66 01 80 F8 FF FF 7F F8  FF FF 7F 74 6C 6B 30 1D  f..........tlk0.
0260: 1C 80 23 1A 79 05 03 01  10 1D 80 24 1E 80 0E 80  ..#.y......$....
0270: 00 80 25 02 00 10 00 80  00 FE 02 4A 75 B0 0E 01  ..%........Ju...
0280: F0 FF FF 7F 6F 76 75 B0  0E 01 66 03 80 75 B0 0E  ....ovu...f..u..
0290: 01 75 B0 0E 01 74 6C 6B  30 2B 75 B0 0E 01 1F 80  .u...tlk0+u.....
02A0: 23 66 01 80 F8 FF FF 7F  F8 FF FF 7F 74 6C 6B 30  #f..........tlk0
02B0: 1D 20 80 23 2B 75 B0 0E  01 21 80 23 1D 22 80 23  . .#+u...!.#.".#
02C0: 1A 79 05 45 0F 80 F8 FF  FF 7F F8 FF FF 7F 66 64  .y.E..........fd
02D0: 6F 30 00 80 55 0F 80 F8  FF FF 7F F8 FF FF 7F 66  o0..U..........f
02E0: 64 6F 30 46 00 45 0F 80  F8 FF FF 7F F8 FF FF 7F  do0F.E..........
02F0: 66 64 69 31 00 80 03 01  10 0E 80 01 66 03 02 00  fdi1........f...
0300: 10 0E 80 00 66 03 66 03  80 75 B0 0E 01 75 B0 0E  ....f.f..u...u..
0310: 01 74 6C 6B 30 2B 75 B0  0E 01 23 80 23 66 01 80  .tlk0+u...#.#f..
0320: F8 FF FF 7F F8 FF FF 7F  74 6C 6B 30 1D 24 80 23  ........tlk0.$.#
0330: 45 0F 80 F8 FF FF 7F F8  FF FF 7F 66 64 6F 30 00  E..........fdo0.
0340: 80 55 0F 80 F8 FF FF 7F  F8 FF FF 7F 66 64 6F 30  .U..........fdo0
0350: 46 00 45 0F 80 F8 FF FF  7F F8 FF FF 7F 66 64 69  F.E..........fdi
0360: 31 00 80 01 66 03 01 69  03 21 00                 1...f..i.!.     
```

#### Opcodes

```
  0: 0x0001 [0x02] IF !(Work_Zone[2] == 0*) GOTO 0x000C
  1: 0x0009 [0x01] GOTO 0x0106
  2: 0x000C [0x66] LOAD_EXT_SCHEDULER_MAIN: Load scheduler "tlk0" with entities [EventEntity, EventEntity], work=19*
  3: 0x001B [0x1D] PRINT_EVENT_MESSAGE(message_id=8451*)
    → "Are you sure you'll be all right? I could always go for you."
  4: 0x001E [0x23] WAIT_FOR_DIALOG_INTERACTION
  5: 0x001F [0x66] LOAD_EXT_SCHEDULER_MAIN: Load scheduler "tlk0" with entities [Ken (ID: 17739893/0x010EB075), Ken (ID: 17739893/0x010EB075)], work=9*
  6: 0x002E [0x2B] Ken (ID: 17739893/0x010EB075) [8452*]:
    → "Would you just get off my case? If I don't go by myself, I'll never pass the test!"
  7: 0x0035 [0x23] WAIT_FOR_DIALOG_INTERACTION
  8: 0x0036 [0x1A] CALL_SUBROUTINE(address=0x0579)
  9: 0x0039 [0x6E] EventEntity uses emote 5*
 10: 0x0040 [0x99] Wait for EventEntity animation to complete
 11: 0x0045 [0x1D] PRINT_EVENT_MESSAGE(message_id=8453*)
    → "But... I'm so worried. What if one of those terrible Goblins finds you?"
 12: 0x0048 [0x23] WAIT_FOR_DIALOG_INTERACTION
 13: 0x0049 [0x1C] WAIT(90* ticks)
 14: 0x004C [0x1A] CALL_SUBROUTINE(address=0x05A3)
 15: 0x004F [0x66] LOAD_EXT_SCHEDULER_MAIN: Load scheduler "tlk0" with entities [EventEntity, EventEntity], work=19*
 16: 0x005E [0x1D] PRINT_EVENT_MESSAGE(message_id=8454*)
    → "Do you have enough potions? What about your map? Remember not to drink any of the water from those dirty springs."
 17: 0x0061 [0x23] WAIT_FOR_DIALOG_INTERACTION
 18: 0x0062 [0x1A] CALL_SUBROUTINE(address=0x0579)
 19: 0x0065 [0x1C] WAIT(90* ticks)
 20: 0x0068 [0x1E] EventEntity looks at LocalPlayer and starts talking
 21: 0x006D [0x6F] WAIT_FRAME_DELAY: Yield until WaitTime reaches zero
 22: 0x006E [0x70] WAIT_ENTITY_RENDER_FLAG: Wait while EventEntity->Render.Flags3 bit 2 is set (cancel turn if not)
 23: 0x006F [0x4A] Ken (ID: 17739893/0x010EB075) looks at LocalPlayer
 24: 0x0078 [0x66] LOAD_EXT_SCHEDULER_MAIN: Load scheduler "tlk0" with entities [EventEntity, EventEntity], work=19*
 25: 0x0087 [0x1D] PRINT_EVENT_MESSAGE(message_id=8455*)
    → "Ah, an adventurer! It is your job to help people, right? Are you interested in becoming a bodyguard for my little brother?"
 26: 0x008A [0x23] WAIT_FOR_DIALOG_INTERACTION
 27: 0x008B [0x6F] WAIT_FRAME_DELAY: Yield until WaitTime reaches zero
 28: 0x008C [0x76] CHECK_ENTITY_RENDER_FLAGS: Wait until Ken (ID: 17739893/0x010EB075) Render.Flags0 and Render.Flags3 conditions are met
 29: 0x0091 [0x4A] Ken (ID: 17739893/0x010EB075) looks at EventEntity
 30: 0x009A [0x6F] WAIT_FRAME_DELAY: Yield until WaitTime reaches zero
 31: 0x009B [0x76] CHECK_ENTITY_RENDER_FLAGS: Wait until Ken (ID: 17739893/0x010EB075) Render.Flags0 and Render.Flags3 conditions are met
 32: 0x00A0 [0x66] LOAD_EXT_SCHEDULER_MAIN: Load scheduler "tlk0" with entities [Ken (ID: 17739893/0x010EB075), Ken (ID: 17739893/0x010EB075)], work=9*
 33: 0x00AF [0x2B] Ken (ID: 17739893/0x010EB075) [8456*]:
    → "Sis! What do you think you're doing!? I'll be fine on my own!"
 34: 0x00B6 [0x23] WAIT_FOR_DIALOG_INTERACTION
 35: 0x00B7 [0x1A] CALL_SUBROUTINE(address=0x0579)
 36: 0x00BA [0x1A] CALL_SUBROUTINE(address=0x05A3)
 37: 0x00BD [0x4A] Ken (ID: 17739893/0x010EB075) looks at LocalPlayer
 38: 0x00C6 [0x6F] WAIT_FRAME_DELAY: Yield until WaitTime reaches zero
 39: 0x00C7 [0x76] CHECK_ENTITY_RENDER_FLAGS: Wait until Ken (ID: 17739893/0x010EB075) Render.Flags0 and Render.Flags3 conditions are met
 40: 0x00CC [0x66] LOAD_EXT_SCHEDULER_MAIN: Load scheduler "tlk0" with entities [Ken (ID: 17739893/0x010EB075), Ken (ID: 17739893/0x010EB075)], work=9*
 41: 0x00DB [0x2B] Ken (ID: 17739893/0x010EB075) [8457*]:
    → "Hey, no offense or anything, but this is a family problem."
 42: 0x00E2 [0x23] WAIT_FOR_DIALOG_INTERACTION
 43: 0x00E3 [0x24] CREATE_DIALOG(message_id=8458*, default_option=0*, option_flags=0*)
    → "Okay? [Okay./I wasn't talking to you, squirt.]"
 44: 0x00EA [0x25] WAIT_DIALOG_SELECT()
 45: 0x00EB [0x02] IF !(Work_Zone[0] == 0*) GOTO 0x00FE
 46: 0x00F3 [0x2B] Ken (ID: 17739893/0x010EB075) [8459*]:
    → "Good. Now will you go kill some bees or something? This is none of your business."
 47: 0x00FA [0x23] WAIT_FOR_DIALOG_INTERACTION
 48: 0x00FB [0x01] GOTO 0x0369
 49: 0x00FE [0x02] IF !(Work_Zone[0] == 1*) GOTO 0x0369

SUBROUTINE_0106:
 50: 0x0106 [0x42] SET_CLI_EVENT_CANCEL_DATA()
 51: 0x0107 [0x46] CAMERA_CONTROL: Disable user control
 52: 0x0109 [0x45] LOAD_SCHEDULED_TASK: Load scheduler "fdo0" with entities [EventEntity, EventEntity], work=[200*, 0*]
 53: 0x011A [0x55] WAIT_LOAD_SCHEDULER: Wait for scheduler "fdo0" with entities [EventEntity, EventEntity], work=200*
 54: 0x0129 [0x38] SET_CLIENT_EVENT_MODE(mode=19*)
 55: 0x012C [0x29] REQ_SET_WAIT(priority=0x0A, entity_id=LocalPlayer, tag_num=0x10)
 56: 0x0133 [0x1E] EventEntity looks at LocalPlayer and starts talking
 57: 0x0138 [0x4A] Ken (ID: 17739893/0x010EB075) looks at LocalPlayer
 58: 0x0141 [0x1A] CALL_SUBROUTINE(address=0x05A3)
 59: 0x0144 [0x6F] WAIT_FRAME_DELAY: Yield until WaitTime reaches zero
 60: 0x0145 [0x70] WAIT_ENTITY_RENDER_FLAG: Wait while EventEntity->Render.Flags3 bit 2 is set (cancel turn if not)
 61: 0x0146 [0x6F] WAIT_FRAME_DELAY: Yield until WaitTime reaches zero
 62: 0x0147 [0x76] CHECK_ENTITY_RENDER_FLAGS: Wait until Ken (ID: 17739893/0x010EB075) Render.Flags0 and Render.Flags3 conditions are met
 63: 0x014C [0x45] LOAD_SCHEDULED_TASK: Load scheduler "stb0" with entities [EventEntity, EventEntity], work=[35*, 0*]
 64: 0x015D [0x45] LOAD_SCHEDULED_TASK: Load scheduler "fdi0" with entities [EventEntity, EventEntity], work=[200*, 0*]
 65: 0x016E [0x55] WAIT_LOAD_SCHEDULER: Wait for scheduler "fdi0" with entities [EventEntity, EventEntity], work=200*
 66: 0x017D [0x66] LOAD_EXT_SCHEDULER_MAIN: Load scheduler "tlk0" with entities [EventEntity, EventEntity], work=19*
 67: 0x018C [0x1D] PRINT_EVENT_MESSAGE(message_id=8460*)
    → "Oh, thank you so much! Let me explain the job."
 68: 0x018F [0x23] WAIT_FOR_DIALOG_INTERACTION
 69: 0x0190 [0x1D] PRINT_EVENT_MESSAGE(message_id=8461*)
    → "My brother has taken it upon himself to apply for the military academy. I tried to stop him, but he simply won't listen to reason. Anyway, he has been given an entrance examination that requires him to travel to the Dangruf Wadi and survey a part of the area."
 70: 0x0193 [0x23] WAIT_FOR_DIALOG_INTERACTION
 71: 0x0194 [0x1A] CALL_SUBROUTINE(address=0x0579)
 72: 0x0197 [0x6E] EventEntity uses emote 22*
 73: 0x019E [0x99] Wait for EventEntity animation to complete
 74: 0x01A3 [0x1D] PRINT_EVENT_MESSAGE(message_id=8462*)
    → "Dangruf Wadi... Just the name of that place gives me goose bumps! All those lizards and leeches... They're sure to eat Ken alive!"
 75: 0x01A6 [0x23] WAIT_FOR_DIALOG_INTERACTION
 76: 0x01A7 [0x1C] WAIT(60* ticks)
 77: 0x01AA [0x66] LOAD_EXT_SCHEDULER_MAIN: Load scheduler "thk1" with entities [EventEntity, EventEntity], work=19*
 78: 0x01B9 [0x4A] Ken (ID: 17739893/0x010EB075) looks at EventEntity
 79: 0x01C2 [0x6F] WAIT_FRAME_DELAY: Yield until WaitTime reaches zero
 80: 0x01C3 [0x76] CHECK_ENTITY_RENDER_FLAGS: Wait until Ken (ID: 17739893/0x010EB075) Render.Flags0 and Render.Flags3 conditions are met
 81: 0x01C8 [0x66] LOAD_EXT_SCHEDULER_MAIN: Load scheduler "tlk0" with entities [Ken (ID: 17739893/0x010EB075), Ken (ID: 17739893/0x010EB075)], work=9*
 82: 0x01D7 [0x2B] Ken (ID: 17739893/0x010EB075) [8463*]:
    → "Why don't you trust me, Sis? That place is a joke! The test orders don't say I have to go in very deep. As long as I get some interesting data, I'll pass with flying colors."
 83: 0x01DE [0x23] WAIT_FOR_DIALOG_INTERACTION
 84: 0x01DF [0x2B] Ken (ID: 17739893/0x010EB075) [8464*]:
    → "Come on. Just imagine what the other recruits would think if they found out I had a babysitter during the mission. I'd be laughed out of the academy!"
 85: 0x01E6 [0x23] WAIT_FOR_DIALOG_INTERACTION
 86: 0x01E7 [0x2B] Ken (ID: 17739893/0x010EB075) [8465*]:
    → "If I don't become a soldier, our family will never have enough money to do anything! I'm tired of seeing Mom suffer..."
 87: 0x01EE [0x23] WAIT_FOR_DIALOG_INTERACTION
 88: 0x01EF [0x53] WAIT_SCHEDULER_TASK: Wait for scheduler "thk1" with entities [EventEntity, EventEntity]
 89: 0x01FC [0x66] LOAD_EXT_SCHEDULER_MAIN: Load scheduler "thk2" with entities [EventEntity, EventEntity], work=19*
 90: 0x020B [0x53] WAIT_SCHEDULER_TASK: Wait for scheduler "thk2" with entities [EventEntity, EventEntity]
 91: 0x0218 [0x1A] CALL_SUBROUTINE(address=0x05A3)
 92: 0x021B [0x1E] EventEntity looks at Ken (ID: 17739893/0x010EB075) and starts talking
 93: 0x0220 [0x66] LOAD_EXT_SCHEDULER_MAIN: Load scheduler "tlk0" with entities [EventEntity, EventEntity], work=19*
 94: 0x022F [0x1D] PRINT_EVENT_MESSAGE(message_id=8466*)
    → "But think of how Mom would suffer if you were brought back from your test in a body bag! She would... I would..."
 95: 0x0232 [0x23] WAIT_FOR_DIALOG_INTERACTION
 96: 0x0233 [0x1A] CALL_SUBROUTINE(address=0x0579)
 97: 0x0236 [0x6E] EventEntity uses emote 29*
 98: 0x023D [0x99] Wait for EventEntity animation to complete
 99: 0x0242 [0x1D] PRINT_EVENT_MESSAGE(message_id=8467*)
    → "No! I cannot let you go by yourself!"
100: 0x0245 [0x23] WAIT_FOR_DIALOG_INTERACTION
101: 0x0246 [0x1C] WAIT(90* ticks)
102: 0x0249 [0x1E] EventEntity looks at LocalPlayer and starts talking
103: 0x024E [0x6F] WAIT_FRAME_DELAY: Yield until WaitTime reaches zero
104: 0x024F [0x70] WAIT_ENTITY_RENDER_FLAG: Wait while EventEntity->Render.Flags3 bit 2 is set (cancel turn if not)
105: 0x0250 [0x66] LOAD_EXT_SCHEDULER_MAIN: Load scheduler "tlk0" with entities [EventEntity, EventEntity], work=19*
106: 0x025F [0x1D] PRINT_EVENT_MESSAGE(message_id=8468*)
    → "Please, [sir/ma'am]! Protect my brother during his test! I promise I'll find something to reward you with!"
107: 0x0262 [0x23] WAIT_FOR_DIALOG_INTERACTION
108: 0x0263 [0x1A] CALL_SUBROUTINE(address=0x0579)
109: 0x0266 [0x03] Work_Zone[1] = 2*
110: 0x026B [0x24] CREATE_DIALOG(message_id=8469*, default_option=1*, option_flags=0*)
    → "Accept the job? [You can count on me!/I don't like kids.]"
111: 0x0272 [0x25] WAIT_DIALOG_SELECT()
112: 0x0273 [0x02] IF !(Work_Zone[0] == 0*) GOTO 0x02FE
113: 0x027B [0x4A] Ken (ID: 17739893/0x010EB075) looks at LocalPlayer
114: 0x0284 [0x6F] WAIT_FRAME_DELAY: Yield until WaitTime reaches zero
115: 0x0285 [0x76] CHECK_ENTITY_RENDER_FLAGS: Wait until Ken (ID: 17739893/0x010EB075) Render.Flags0 and Render.Flags3 conditions are met
116: 0x028A [0x66] LOAD_EXT_SCHEDULER_MAIN: Load scheduler "tlk0" with entities [Ken (ID: 17739893/0x010EB075), Ken (ID: 17739893/0x010EB075)], work=9*
117: 0x0299 [0x2B] Ken (ID: 17739893/0x010EB075) [8470*]:
    → "Count on you!? But I don't need you! Go on! Don't you have some wild onions to deliver!?"
118: 0x02A0 [0x23] WAIT_FOR_DIALOG_INTERACTION
119: 0x02A1 [0x66] LOAD_EXT_SCHEDULER_MAIN: Load scheduler "tlk0" with entities [EventEntity, EventEntity], work=19*
120: 0x02B0 [0x1D] PRINT_EVENT_MESSAGE(message_id=8471*)
    → "Oh, thank you thank you thank you thank you! Now I can rest easy knowing that a powerful adventurer will be by Ken's side."
121: 0x02B3 [0x23] WAIT_FOR_DIALOG_INTERACTION
122: 0x02B4 [0x2B] Ken (ID: 17739893/0x010EB075) [8472*]:
    → "Hmph... You can tag along if you like--just don't get in my way!"
123: 0x02BB [0x23] WAIT_FOR_DIALOG_INTERACTION
124: 0x02BC [0x1D] PRINT_EVENT_MESSAGE(message_id=8473*)
    → "The Wadi is an evil place crawling with ferocious beasts. Don't allow any of them to lay a finger on my brother."
125: 0x02BF [0x23] WAIT_FOR_DIALOG_INTERACTION
126: 0x02C0 [0x1A] CALL_SUBROUTINE(address=0x0579)
127: 0x02C3 [0x45] LOAD_SCHEDULED_TASK: Load scheduler "fdo0" with entities [EventEntity, EventEntity], work=[200*, 0*]
128: 0x02D4 [0x55] WAIT_LOAD_SCHEDULER: Wait for scheduler "fdo0" with entities [EventEntity, EventEntity], work=200*
129: 0x02E3 [0x46] CAMERA_CONTROL: Restore default settings
130: 0x02E5 [0x45] LOAD_SCHEDULED_TASK: Load scheduler "fdi1" with entities [EventEntity, EventEntity], work=[200*, 0*]
131: 0x02F6 [0x03] Work_Zone[1] = 1*
132: 0x02FB [0x01] GOTO 0x0366
133: 0x02FE [0x02] IF !(Work_Zone[0] == 1*) GOTO 0x0366
134: 0x0306 [0x66] LOAD_EXT_SCHEDULER_MAIN: Load scheduler "tlk0" with entities [Ken (ID: 17739893/0x010EB075), Ken (ID: 17739893/0x010EB075)], work=9*
135: 0x0315 [0x2B] Ken (ID: 17739893/0x010EB075) [8474*]:
    → "See, I told you. Adventurers have better things to do than watch over guys who can handle things on their own."
136: 0x031C [0x23] WAIT_FOR_DIALOG_INTERACTION
137: 0x031D [0x66] LOAD_EXT_SCHEDULER_MAIN: Load scheduler "tlk0" with entities [EventEntity, EventEntity], work=19*
138: 0x032C [0x1D] PRINT_EVENT_MESSAGE(message_id=8475*)
    → "Oh, what am I to do... I don't want to be an only child..."
139: 0x032F [0x23] WAIT_FOR_DIALOG_INTERACTION
140: 0x0330 [0x45] LOAD_SCHEDULED_TASK: Load scheduler "fdo0" with entities [EventEntity, EventEntity], work=[200*, 0*]
141: 0x0341 [0x55] WAIT_LOAD_SCHEDULER: Wait for scheduler "fdo0" with entities [EventEntity, EventEntity], work=200*
142: 0x0350 [0x46] CAMERA_CONTROL: Restore default settings
143: 0x0352 [0x45] LOAD_SCHEDULED_TASK: Load scheduler "fdi1" with entities [EventEntity, EventEntity], work=[200*, 0*]
144: 0x0363 [0x01] GOTO 0x0366

SUBROUTINE_0366:
145: 0x0366 [0x01] GOTO 0x0369

SUBROUTINE_0369:
146: 0x0369 [0x21] END_EVENT
147: 0x036A [0x00] END_REQSTACK()
```

### Event 362

#### Metadata

| Field        | Value     |
|--------------|-----------|
| Entrypoint   | 0x036B    |
| Data Size    | 159 bytes |
| Instructions | 37        |

```
      00 01 02 03 04 05 06 07  08 09 0A 0B 0C 0D 0E 0F
      -- -- -- -- -- -- -- --  -- -- -- -- -- -- -- --
0360:                                   1E F0 FF FF 7F             .....
0370: 6F 70 66 01 80 F8 FF FF  7F F8 FF FF 7F 74 6C 6B  opf..........tlk
0380: 30 1D 25 80 23 1D 26 80  23 1A 79 05 24 27 80 0E  0.%.#.&.#.y.$'..
0390: 80 00 80 25 02 00 10 00  80 00 E8 03 42 4A 75 B0  ...%........BJu.
03A0: 0E 01 F0 FF FF 7F 6F 76  75 B0 0E 01 66 01 80 F8  ......ovu...f...
03B0: FF FF 7F F8 FF FF 7F 74  6C 6B 30 1D 20 80 23 66  .......tlk0. .#f
03C0: 03 80 75 B0 0E 01 75 B0  0E 01 74 6C 6B 30 2B 75  ..u...u...tlk0+u
03D0: B0 0E 01 21 80 23 1A A3  05 1D 22 80 23 1A 79 05  ...!.#....".#.y.
03E0: 03 01 10 0E 80 01 08 04  02 00 10 0E 80 00 08 04  ................
03F0: 6E F8 FF FF 7F 28 80 99  F8 FF FF 7F 1D 24 80 23  n....(.......$.#
0400: 99 F8 FF FF 7F 01 08 04  21 00                    ........!.      
```

#### Opcodes

```
  0: 0x036B [0x1E] EventEntity looks at LocalPlayer and starts talking
  1: 0x0370 [0x6F] WAIT_FRAME_DELAY: Yield until WaitTime reaches zero
  2: 0x0371 [0x70] WAIT_ENTITY_RENDER_FLAG: Wait while EventEntity->Render.Flags3 bit 2 is set (cancel turn if not)
  3: 0x0372 [0x66] LOAD_EXT_SCHEDULER_MAIN: Load scheduler "tlk0" with entities [EventEntity, EventEntity], work=19*
  4: 0x0381 [0x1D] PRINT_EVENT_MESSAGE(message_id=8482*)
    → "My brother was accused of cheating on his military academy entrance examination and has been ordered to take a make-up test..."
  5: 0x0384 [0x23] WAIT_FOR_DIALOG_INTERACTION
  6: 0x0385 [0x1D] PRINT_EVENT_MESSAGE(message_id=8483*)
    → "Please, will you accompany him?"
  7: 0x0388 [0x23] WAIT_FOR_DIALOG_INTERACTION
  8: 0x0389 [0x1A] CALL_SUBROUTINE(address=0x0579)
  9: 0x038C [0x24] CREATE_DIALOG(message_id=8484*, default_option=1*, option_flags=0*)
    → "Babysit Marin's brother? [No problem./Not this time.]"
 10: 0x0393 [0x25] WAIT_DIALOG_SELECT()
 11: 0x0394 [0x02] IF !(Work_Zone[0] == 0*) GOTO 0x03E8
 12: 0x039C [0x42] SET_CLI_EVENT_CANCEL_DATA()
 13: 0x039D [0x4A] Ken (ID: 17739893/0x010EB075) looks at LocalPlayer
 14: 0x03A6 [0x6F] WAIT_FRAME_DELAY: Yield until WaitTime reaches zero
 15: 0x03A7 [0x76] CHECK_ENTITY_RENDER_FLAGS: Wait until Ken (ID: 17739893/0x010EB075) Render.Flags0 and Render.Flags3 conditions are met
 16: 0x03AC [0x66] LOAD_EXT_SCHEDULER_MAIN: Load scheduler "tlk0" with entities [EventEntity, EventEntity], work=19*
 17: 0x03BB [0x1D] PRINT_EVENT_MESSAGE(message_id=8471*)
    → "Oh, thank you thank you thank you thank you! Now I can rest easy knowing that a powerful adventurer will be by Ken's side."
 18: 0x03BE [0x23] WAIT_FOR_DIALOG_INTERACTION
 19: 0x03BF [0x66] LOAD_EXT_SCHEDULER_MAIN: Load scheduler "tlk0" with entities [Ken (ID: 17739893/0x010EB075), Ken (ID: 17739893/0x010EB075)], work=9*
 20: 0x03CE [0x2B] Ken (ID: 17739893/0x010EB075) [8472*]:
    → "Hmph... You can tag along if you like--just don't get in my way!"
 21: 0x03D5 [0x23] WAIT_FOR_DIALOG_INTERACTION
 22: 0x03D6 [0x1A] CALL_SUBROUTINE(address=0x05A3)
 23: 0x03D9 [0x1D] PRINT_EVENT_MESSAGE(message_id=8473*)
    → "The Wadi is an evil place crawling with ferocious beasts. Don't allow any of them to lay a finger on my brother."
 24: 0x03DC [0x23] WAIT_FOR_DIALOG_INTERACTION
 25: 0x03DD [0x1A] CALL_SUBROUTINE(address=0x0579)
 26: 0x03E0 [0x03] Work_Zone[1] = 1*
 27: 0x03E5 [0x01] GOTO 0x0408
 28: 0x03E8 [0x02] IF !(Work_Zone[0] == 1*) GOTO 0x0408
 29: 0x03F0 [0x6E] EventEntity uses emote 32*
 30: 0x03F7 [0x99] Wait for EventEntity animation to complete
 31: 0x03FC [0x1D] PRINT_EVENT_MESSAGE(message_id=8475*)
    → "Oh, what am I to do... I don't want to be an only child..."
 32: 0x03FF [0x23] WAIT_FOR_DIALOG_INTERACTION
 33: 0x0400 [0x99] Wait for EventEntity animation to complete
 34: 0x0405 [0x01] GOTO 0x0408

SUBROUTINE_0408:
 35: 0x0408 [0x21] END_EVENT
 36: 0x0409 [0x00] END_REQSTACK()
```

### Event 363

#### Metadata

| Field        | Value     |
|--------------|-----------|
| Entrypoint   | 0x040A    |
| Data Size    | 184 bytes |
| Instructions | 38        |

```
      00 01 02 03 04 05 06 07  08 09 0A 0B 0C 0D 0E 0F
      -- -- -- -- -- -- -- --  -- -- -- -- -- -- -- --
0400:                                1E F0 FF FF 7F 6F            .....o
0410: 70 66 01 80 F8 FF FF 7F  F8 FF FF 7F 74 6C 6B 30  pf..........tlk0
0420: 1D 29 80 23 1A 79 05 24  27 80 0E 80 00 80 25 02  .).#.y.$'.....%.
0430: 00 10 00 80 00 8B 04 42  4A 75 B0 0E 01 F0 FF FF  .......BJu......
0440: 7F 6F 76 75 B0 0E 01 66  03 80 75 B0 0E 01 75 B0  .ovu...f..u...u.
0450: 0E 01 74 6C 6B 30 2B 75  B0 0E 01 1F 80 23 66 01  ..tlk0+u.....#f.
0460: 80 F8 FF FF 7F F8 FF FF  7F 74 6C 6B 30 1D 20 80  .........tlk0. .
0470: 23 2B 75 B0 0E 01 21 80  23 1A A3 05 1D 22 80 23  #+u...!.#....".#
0480: 1A 79 05 03 01 10 0E 80  01 C0 04 02 00 10 0E 80  .y..............
0490: 00 C0 04 66 03 80 75 B0  0E 01 75 B0 0E 01 74 6C  ...f..u...u...tl
04A0: 6B 30 2B 75 B0 0E 01 23  80 23 66 01 80 F8 FF FF  k0+u...#.#f.....
04B0: 7F F8 FF FF 7F 74 6C 6B  30 1D 24 80 23 01 C0 04  .....tlk0.$.#...
04C0: 21 00                                             !.              
```

#### Opcodes

```
  0: 0x040A [0x1E] EventEntity looks at LocalPlayer and starts talking
  1: 0x040F [0x6F] WAIT_FRAME_DELAY: Yield until WaitTime reaches zero
  2: 0x0410 [0x70] WAIT_ENTITY_RENDER_FLAG: Wait while EventEntity->Render.Flags3 bit 2 is set (cancel turn if not)
  3: 0x0411 [0x66] LOAD_EXT_SCHEDULER_MAIN: Load scheduler "tlk0" with entities [EventEntity, EventEntity], work=19*
  4: 0x0420 [0x1D] PRINT_EVENT_MESSAGE(message_id=8476*)
    → "Please, [sir/ma'am]! I ask you again, protect my brother during his test! I promise I'll make it worth your while!"
  5: 0x0423 [0x23] WAIT_FOR_DIALOG_INTERACTION
  6: 0x0424 [0x1A] CALL_SUBROUTINE(address=0x0579)
  7: 0x0427 [0x24] CREATE_DIALOG(message_id=8484*, default_option=1*, option_flags=0*)
    → "Babysit Marin's brother? [No problem./Not this time.]"
  8: 0x042E [0x25] WAIT_DIALOG_SELECT()
  9: 0x042F [0x02] IF !(Work_Zone[0] == 0*) GOTO 0x048B
 10: 0x0437 [0x42] SET_CLI_EVENT_CANCEL_DATA()
 11: 0x0438 [0x4A] Ken (ID: 17739893/0x010EB075) looks at LocalPlayer
 12: 0x0441 [0x6F] WAIT_FRAME_DELAY: Yield until WaitTime reaches zero
 13: 0x0442 [0x76] CHECK_ENTITY_RENDER_FLAGS: Wait until Ken (ID: 17739893/0x010EB075) Render.Flags0 and Render.Flags3 conditions are met
 14: 0x0447 [0x66] LOAD_EXT_SCHEDULER_MAIN: Load scheduler "tlk0" with entities [Ken (ID: 17739893/0x010EB075), Ken (ID: 17739893/0x010EB075)], work=9*
 15: 0x0456 [0x2B] Ken (ID: 17739893/0x010EB075) [8470*]:
    → "Count on you!? But I don't need you! Go on! Don't you have some wild onions to deliver!?"
 16: 0x045D [0x23] WAIT_FOR_DIALOG_INTERACTION
 17: 0x045E [0x66] LOAD_EXT_SCHEDULER_MAIN: Load scheduler "tlk0" with entities [EventEntity, EventEntity], work=19*
 18: 0x046D [0x1D] PRINT_EVENT_MESSAGE(message_id=8471*)
    → "Oh, thank you thank you thank you thank you! Now I can rest easy knowing that a powerful adventurer will be by Ken's side."
 19: 0x0470 [0x23] WAIT_FOR_DIALOG_INTERACTION
 20: 0x0471 [0x2B] Ken (ID: 17739893/0x010EB075) [8472*]:
    → "Hmph... You can tag along if you like--just don't get in my way!"
 21: 0x0478 [0x23] WAIT_FOR_DIALOG_INTERACTION
 22: 0x0479 [0x1A] CALL_SUBROUTINE(address=0x05A3)
 23: 0x047C [0x1D] PRINT_EVENT_MESSAGE(message_id=8473*)
    → "The Wadi is an evil place crawling with ferocious beasts. Don't allow any of them to lay a finger on my brother."
 24: 0x047F [0x23] WAIT_FOR_DIALOG_INTERACTION
 25: 0x0480 [0x1A] CALL_SUBROUTINE(address=0x0579)
 26: 0x0483 [0x03] Work_Zone[1] = 1*
 27: 0x0488 [0x01] GOTO 0x04C0
 28: 0x048B [0x02] IF !(Work_Zone[0] == 1*) GOTO 0x04C0
 29: 0x0493 [0x66] LOAD_EXT_SCHEDULER_MAIN: Load scheduler "tlk0" with entities [Ken (ID: 17739893/0x010EB075), Ken (ID: 17739893/0x010EB075)], work=9*
 30: 0x04A2 [0x2B] Ken (ID: 17739893/0x010EB075) [8474*]:
    → "See, I told you. Adventurers have better things to do than watch over guys who can handle things on their own."
 31: 0x04A9 [0x23] WAIT_FOR_DIALOG_INTERACTION
 32: 0x04AA [0x66] LOAD_EXT_SCHEDULER_MAIN: Load scheduler "tlk0" with entities [EventEntity, EventEntity], work=19*
 33: 0x04B9 [0x1D] PRINT_EVENT_MESSAGE(message_id=8475*)
    → "Oh, what am I to do... I don't want to be an only child..."
 34: 0x04BC [0x23] WAIT_FOR_DIALOG_INTERACTION
 35: 0x04BD [0x01] GOTO 0x04C0

SUBROUTINE_04C0:
 36: 0x04C0 [0x21] END_EVENT
 37: 0x04C1 [0x00] END_REQSTACK()
```

### Event 364

#### Metadata

| Field        | Value    |
|--------------|----------|
| Entrypoint   | 0x04C2   |
| Data Size    | 51 bytes |
| Instructions | 11       |

```
      00 01 02 03 04 05 06 07  08 09 0A 0B 0C 0D 0E 0F
      -- -- -- -- -- -- -- --  -- -- -- -- -- -- -- --
04C0:       42 1E F0 FF FF 7F  66 01 80 F8 FF FF 7F F8    B.....f.......
04D0: FF FF 7F 74 6C 6B 30 1D  2A 80 23 1D 2B 80 23 1A  ...tlk0.*.#.+.#.
04E0: 79 05 45 2C 80 F8 FF FF  7F F8 FF FF 7F 71 73 74  y.E,.........qst
04F0: 63 00 80 21 00                                    c..!.           
```

#### Opcodes

```
  0: 0x04C2 [0x42] SET_CLI_EVENT_CANCEL_DATA()
  1: 0x04C3 [0x1E] EventEntity looks at LocalPlayer and starts talking
  2: 0x04C8 [0x66] LOAD_EXT_SCHEDULER_MAIN: Load scheduler "tlk0" with entities [EventEntity, EventEntity], work=19*
  3: 0x04D7 [0x1D] PRINT_EVENT_MESSAGE(message_id=8485*)
    → "Thank you so much for watching over my brother. Now that the test is over, he seems to be in a much better mood."
  4: 0x04DA [0x23] WAIT_FOR_DIALOG_INTERACTION
  5: 0x04DB [0x1D] PRINT_EVENT_MESSAGE(message_id=8486*)
    → "Here is the reward I promised you."
  6: 0x04DE [0x23] WAIT_FOR_DIALOG_INTERACTION
  7: 0x04DF [0x1A] CALL_SUBROUTINE(address=0x0579)
  8: 0x04E2 [0x45] LOAD_SCHEDULED_TASK: Load scheduler "qstc" with entities [EventEntity, EventEntity], work=[201*, 0*]
  9: 0x04F3 [0x21] END_EVENT
 10: 0x04F4 [0x00] END_REQSTACK()
```

### Event 365

#### Metadata

| Field        | Value     |
|--------------|-----------|
| Entrypoint   | 0x04F5    |
| Data Size    | 108 bytes |
| Instructions | 24        |

```
      00 01 02 03 04 05 06 07  08 09 0A 0B 0C 0D 0E 0F
      -- -- -- -- -- -- -- --  -- -- -- -- -- -- -- --
04F0:                1E F0 FF  FF 7F 66 01 80 F8 FF FF       .....f.....
0500: 7F F8 FF FF 7F 74 6C 6B  30 1D 2D 80 23 1A 79 05  .....tlk0.-.#.y.
0510: 24 2E 80 0E 80 00 80 25  02 00 10 00 80 00 3E 05  $......%......>.
0520: 42 6E F8 FF FF 7F 2F 80  99 F8 FF FF 7F 1D 30 80  Bn..../.......0.
0530: 23 99 F8 FF FF 7F 03 01  10 0E 80 01 5F 05 02 00  #..........._...
0540: 10 0E 80 00 5F 05 66 01  80 F8 FF FF 7F F8 FF FF  ...._.f.........
0550: 7F 74 6C 6B 30 1D 22 80  23 1A 79 05 01 5F 05 21  .tlk0.".#.y.._.!
0560: 00                                                .               
```

#### Opcodes

```
  0: 0x04F5 [0x1E] EventEntity looks at LocalPlayer and starts talking
  1: 0x04FA [0x66] LOAD_EXT_SCHEDULER_MAIN: Load scheduler "tlk0" with entities [EventEntity, EventEntity], work=19*
  2: 0x0509 [0x1D] PRINT_EVENT_MESSAGE(message_id=8477*)
    → "What's wrong? You haven't begun to have second thoughts, have you?"
  3: 0x050C [0x23] WAIT_FOR_DIALOG_INTERACTION
  4: 0x050D [0x1A] CALL_SUBROUTINE(address=0x0579)
  5: 0x0510 [0x24] CREATE_DIALOG(message_id=8478*, default_option=1*, option_flags=0*)
    → "Second thoughts? [And third thoughts./No, everything's fine.]"
  6: 0x0517 [0x25] WAIT_DIALOG_SELECT()
  7: 0x0518 [0x02] IF !(Work_Zone[0] == 0*) GOTO 0x053E
  8: 0x0520 [0x42] SET_CLI_EVENT_CANCEL_DATA()
  9: 0x0521 [0x6E] EventEntity uses emote 34*
 10: 0x0528 [0x99] Wait for EventEntity animation to complete
 11: 0x052D [0x1D] PRINT_EVENT_MESSAGE(message_id=8479*)
    → "And after you said you'd help me! If anything happens to my brother, I'll curse you until you die!"
 12: 0x0530 [0x23] WAIT_FOR_DIALOG_INTERACTION
 13: 0x0531 [0x99] Wait for EventEntity animation to complete
 14: 0x0536 [0x03] Work_Zone[1] = 1*
 15: 0x053B [0x01] GOTO 0x055F
 16: 0x053E [0x02] IF !(Work_Zone[0] == 1*) GOTO 0x055F
 17: 0x0546 [0x66] LOAD_EXT_SCHEDULER_MAIN: Load scheduler "tlk0" with entities [EventEntity, EventEntity], work=19*
 18: 0x0555 [0x1D] PRINT_EVENT_MESSAGE(message_id=8473*)
    → "The Wadi is an evil place crawling with ferocious beasts. Don't allow any of them to lay a finger on my brother."
 19: 0x0558 [0x23] WAIT_FOR_DIALOG_INTERACTION
 20: 0x0559 [0x1A] CALL_SUBROUTINE(address=0x0579)
 21: 0x055C [0x01] GOTO 0x055F

SUBROUTINE_055F:
 22: 0x055F [0x21] END_EVENT
 23: 0x0560 [0x00] END_REQSTACK()
```

### Event 366

#### Metadata

| Field        | Value     |
|--------------|-----------|
| Entrypoint   | 0x0561    |
| Data Size    | 108 bytes |
| Instructions | 10        |

```
      00 01 02 03 04 05 06 07  08 09 0A 0B 0C 0D 0E 0F
      -- -- -- -- -- -- -- --  -- -- -- -- -- -- -- --
0560:    66 01 80 F8 FF FF 7F  F8 FF FF 7F 74 6C 6B 30   f..........tlk0
0570: 1D 31 80 23 1A 79 05 21  00 53 F8 FF FF 7F F8 FF  .1.#.y.!.S......
0580: FF 7F 74 6C 6B 30 66 01  80 F8 FF FF 7F F8 FF FF  ..tlk0f.........
0590: 7F 74 6C 6B 31 53 F8 FF  FF 7F F8 FF FF 7F 74 6C  .tlk1S........tl
05A0: 6B 31 1B 53 75 B0 0E 01  75 B0 0E 01 74 6C 6B 30  k1.Su...u...tlk0
05B0: 66 03 80 75 B0 0E 01 75  B0 0E 01 74 6C 6B 31 53  f..u...u...tlk1S
05C0: 75 B0 0E 01 75 B0 0E 01  74 6C 6B 31 1B           u...u...tlk1.   
```

#### Opcodes

```
  0: 0x0561 [0x66] LOAD_EXT_SCHEDULER_MAIN: Load scheduler "tlk0" with entities [EventEntity, EventEntity], work=19*
  1: 0x0570 [0x1D] PRINT_EVENT_MESSAGE(message_id=8488*)
    → "I do hope that you pass..."
  2: 0x0573 [0x23] WAIT_FOR_DIALOG_INTERACTION
  3: 0x0574 [0x1A] CALL_SUBROUTINE(address=0x0579)
  4: 0x0577 [0x21] END_EVENT
  5: 0x0578 [0x00] END_REQSTACK()

SUBROUTINE_0579:
  6: 0x0579 [0x53] WAIT_SCHEDULER_TASK: Wait for scheduler "tlk0" with entities [EventEntity, EventEntity]
  7: 0x0586 [0x66] LOAD_EXT_SCHEDULER_MAIN: Load scheduler "tlk1" with entities [EventEntity, EventEntity], work=19*
  8: 0x0595 [0x53] WAIT_SCHEDULER_TASK: Wait for scheduler "tlk1" with entities [EventEntity, EventEntity]
  9: 0x05A2 [0x1B] RETURN
```

#### Data or dead code:

```
# Dead code (unreachable instructions):
     0x05A3 [0x53] WAIT_SCHEDULER_TASK: Wait for scheduler "tlk0" with entities [Ken (ID: 17739893/0x010EB075), Ken (ID: 17739893/0x010EB075)]
     0x05B0 [0x66] LOAD_EXT_SCHEDULER_MAIN: Load scheduler "tlk1" with entities [Ken (ID: 17739893/0x010EB075), Ken (ID: 17739893/0x010EB075)], work=9*
     0x05BF [0x53] WAIT_SCHEDULER_TASK: Wait for scheduler "tlk1" with entities [Ken (ID: 17739893/0x010EB075), Ken (ID: 17739893/0x010EB075)]
     0x05CC [0x1B] RETURN
```

### Event 432

#### Metadata

| Field        | Value   |
|--------------|---------|
| Entrypoint   | 0x05CD  |
| Data Size    | 1 bytes |
| Instructions | 1       |

```
      00 01 02 03 04 05 06 07  08 09 0A 0B 0C 0D 0E 0F
      -- -- -- -- -- -- -- --  -- -- -- -- -- -- -- --
05C0:                                         00                     .  
```

#### Opcodes

```
  0: 0x05CD [0x00] END_REQSTACK()
```

### Event 24

#### Metadata

| Field        | Value   |
|--------------|---------|
| Entrypoint   | 0x05CE  |
| Data Size    | 1 bytes |
| Instructions | 1       |

```
      00 01 02 03 04 05 06 07  08 09 0A 0B 0C 0D 0E 0F
      -- -- -- -- -- -- -- --  -- -- -- -- -- -- -- --
05C0:                                            00                   . 
```

#### Opcodes

```
  0: 0x05CE [0x00] END_REQSTACK()
```

### Event 586

#### Metadata

| Field        | Value   |
|--------------|---------|
| Entrypoint   | 0x05CF  |
| Data Size    | 1 bytes |
| Instructions | 1       |

```
      00 01 02 03 04 05 06 07  08 09 0A 0B 0C 0D 0E 0F
      -- -- -- -- -- -- -- --  -- -- -- -- -- -- -- --
05C0:                                               00                 .
```

#### Opcodes

```
  0: 0x05CF [0x00] END_REQSTACK()
```

### Event 587

#### Metadata

| Field        | Value   |
|--------------|---------|
| Entrypoint   | 0x05D0  |
| Data Size    | 1 bytes |
| Instructions | 1       |

```
      00 01 02 03 04 05 06 07  08 09 0A 0B 0C 0D 0E 0F
      -- -- -- -- -- -- -- --  -- -- -- -- -- -- -- --
05D0: 00                                                .               
```

#### Opcodes

```
  0: 0x05D0 [0x00] END_REQSTACK()
```

### Event 595

#### Metadata

| Field        | Value   |
|--------------|---------|
| Entrypoint   | 0x05D1  |
| Data Size    | 1 bytes |
| Instructions | 1       |

```
      00 01 02 03 04 05 06 07  08 09 0A 0B 0C 0D 0E 0F
      -- -- -- -- -- -- -- --  -- -- -- -- -- -- -- --
05D0:    00                                              .              
```

#### Opcodes

```
  0: 0x05D1 [0x00] END_REQSTACK()
```
