# 17739828 - Rabid Wolf IM

## Common Data

| Field            | Value                    |
|------------------|--------------------------|
| Zone             | Bastok Markets (ID: 235) |
| Block Size       | 15152 bytes              |
| Total Events     | 6                        |
| References Count | 360                      |

## List of Events

| Event ID              | Entrypoint   |   Size |   Instructions |
|-----------------------|--------------|--------|----------------|
| [65535](#event-65535) | 0x0000       |      1 |              1 |
| [0](#event-0)         | 0x0001       |     25 |              3 |
| [32761](#event-32761) | 0x001A       |  13643 |           2754 |
| [586](#event-586)     | 0x3565       |      1 |              1 |
| [587](#event-587)     | 0x3566       |      1 |              1 |
| [595](#event-595)     | 0x3567       |      1 |              1 |

## DAT References (imed_data)

|   Index | Hex Value   |   Dec Value |
|---------|-------------|-------------|
|       0 | 0xFFFD1CA2  |  4294778018 |
|       1 | 0xFFFE5B41  |  4294859585 |
|       2 | 0xFFFFE890  |  4294961296 |
|       3 | 0x028C      |         652 |
|       4 | 0x003C      |          60 |
|       5 | 0x0000      |           0 |
|       6 | 0x0003      |           3 |
|       7 | 0x0004      |           4 |
|       8 | 0x0007      |           7 |
|       9 | 0x0008      |           8 |
|      10 | 0x000F      |          15 |
|      11 | 0x0010      |          16 |
|      12 | 0x0011      |          17 |
|      13 | 0x0012      |          18 |
|      14 | 0x0015      |          21 |
|      15 | 0x0001      |           1 |
|      16 | 0x0002      |           2 |
|      17 | 0x0005      |           5 |
|      18 | 0x0013      |          19 |
|      19 | 0x0014      |          20 |
|      20 | 0x0016      |          22 |
|      21 | 0x0017      |          23 |
|      22 | 0x0006      |           6 |
|      23 | 0x0009      |           9 |
|      24 | 0x000A      |          10 |
|      25 | 0x001E      |          30 |
|      26 | 0x001F      |          31 |
|      27 | 0x1E90      |        7824 |
|      28 | 0x1E91      |        7825 |
|      29 | 0x1E92      |        7826 |
|      30 | 0x1F1B      |        7963 |
|      31 | 0x1EF2      |        7922 |
|      32 | 0x1F09      |        7945 |
|      33 | 0x00C9      |         201 |
|      34 | 0xFFFFFFFF  |  4294967295 |
|      35 | 0x1E93      |        7827 |
|      36 | 0x1F10      |        7952 |
|      37 | 0x1F11      |        7953 |
|      38 | 0x1F12      |        7954 |
|      39 | 0x1F13      |        7955 |
|      40 | 0x1EBC      |        7868 |
|      41 | 0x40000000  |  1073741824 |
|      42 | 0x00A0      |         160 |
|      43 | 0x1ECB      |        7883 |
|      44 | 0x1EF3      |        7923 |
|      45 | 0x3D91      |       15761 |
|      46 | 0x3D98      |       15768 |
|      47 | 0x1ECA      |        7882 |
|      48 | 0x1EC0      |        7872 |
|      49 | 0x1EC1      |        7873 |
|      50 | 0x3D92      |       15762 |
|      51 | 0x1EC2      |        7874 |
|      52 | 0x3D93      |       15763 |
|      53 | 0x1EC3      |        7875 |
|      54 | 0x1EC4      |        7876 |
|      55 | 0x1ECC      |        7884 |
|      56 | 0x1ECD      |        7885 |
|      57 | 0x1ECE      |        7886 |
|      58 | 0x1ED0      |        7888 |
|      59 | 0x1ECF      |        7887 |
|      60 | 0x1ED1      |        7889 |
|      61 | 0x1ED2      |        7890 |
|      62 | 0x1EF4      |        7924 |
|      63 | 0x1EF5      |        7925 |
|      64 | 0x1EF6      |        7926 |
|      65 | 0x1EF7      |        7927 |
|      66 | 0x7FFFFFFF  |  2147483647 |
|      67 | 0x003F      |          63 |
|      68 | 0x1EB4      |        7860 |
|      69 | 0x1EF8      |        7928 |
|      70 | 0x1EF9      |        7929 |
|      71 | 0x1EFA      |        7930 |
|      72 | 0x1EFB      |        7931 |
|      73 | 0x1EFC      |        7932 |
|      74 | 0x1EFD      |        7933 |
|      75 | 0x01F1      |         497 |
|      76 | 0x0104      |         260 |
|      77 | 0x1EFE      |        7934 |
|      78 | 0x1EFF      |        7935 |
|      79 | 0x1F0B      |        7947 |
|      80 | 0x1F0C      |        7948 |
|      81 | 0x007A      |         122 |
|      82 | 0x1F00      |        7936 |
|      83 | 0x1F01      |        7937 |
|      84 | 0x1F02      |        7938 |
|      85 | 0x1F03      |        7939 |
|      86 | 0x1F04      |        7940 |
|      87 | 0x80000000  |  2147483648 |
|      88 | 0x1EB7      |        7863 |
|      89 | 0x1EB0      |        7856 |
|      90 | 0x1EB1      |        7857 |
|      91 | 0x1EB2      |        7858 |
|      92 | 0x1EB5      |        7861 |
|      93 | 0x1E94      |        7828 |
|      94 | 0x1E95      |        7829 |
|      95 | 0x1E96      |        7830 |
|      96 | 0x1E97      |        7831 |
|      97 | 0x1E98      |        7832 |
|      98 | 0x1E99      |        7833 |
|      99 | 0x1E9A      |        7834 |
|     100 | 0x1E9B      |        7835 |
|     101 | 0x1E9C      |        7836 |
|     102 | 0x1E9D      |        7837 |
|     103 | 0x1E9E      |        7838 |
|     104 | 0x1E9F      |        7839 |
|     105 | 0x1EA0      |        7840 |
|     106 | 0x1EA1      |        7841 |
|     107 | 0x1EA2      |        7842 |
|     108 | 0x1EA3      |        7843 |
|     109 | 0x1EA4      |        7844 |
|     110 | 0x1EA5      |        7845 |
|     111 | 0x1EA6      |        7846 |
|     112 | 0x1EA7      |        7847 |
|     113 | 0x1EA8      |        7848 |
|     114 | 0x1EA9      |        7849 |
|     115 | 0x1EAA      |        7850 |
|     116 | 0x1EAB      |        7851 |
|     117 | 0x1EAC      |        7852 |
|     118 | 0x1EAD      |        7853 |
|     119 | 0x1EAE      |        7854 |
|     120 | 0x1EAF      |        7855 |
|     121 | 0x1E86      |        7814 |
|     122 | 0x1E8C      |        7820 |
|     123 | 0x00FF      |         255 |
|     124 | 0x1E8D      |        7821 |
|     125 | 0x1EEA      |        7914 |
|     126 | 0x1F18      |        7960 |
|     127 | 0x1F14      |        7956 |
|     128 | 0x1F15      |        7957 |
|     129 | 0x1F16      |        7958 |
|     130 | 0x1F17      |        7959 |
|     131 | 0x0064      |         100 |
|     132 | 0x00C8      |         200 |
|     133 | 0x0190      |         400 |
|     134 | 0x0320      |         800 |
|     135 | 0x0640      |        1600 |
|     136 | 0x0960      |        2400 |
|     137 | 0x0C80      |        3200 |
|     138 | 0x0FA0      |        4000 |
|     139 | 0x12C0      |        4800 |
|     140 | 0x15E0      |        5600 |
|     141 | 0x1EEB      |        7915 |
|     142 | 0x1E88      |        7816 |
|     143 | 0x1E89      |        7817 |
|     144 | 0x1E8A      |        7818 |
|     145 | 0x1E85      |        7813 |
|     146 | 0x01F8      |         504 |
|     147 | 0x1EEE      |        7918 |
|     148 | 0x0096      |         150 |
|     149 | 0x000B      |          11 |
|     150 | 0x000C      |          12 |
|     151 | 0x000D      |          13 |
|     152 | 0x000E      |          14 |
|     153 | 0x1EB3      |        7859 |
|     154 | 0x1EBD      |        7869 |
|     155 | 0x1EBE      |        7870 |
|     156 | 0x0400      |        1024 |
|     157 | 0x430F      |       17167 |
|     158 | 0x40A0      |       16544 |
|     159 | 0x30DE      |       12510 |
|     160 | 0x31D1      |       12753 |
|     161 | 0x32CC      |       13004 |
|     162 | 0x4133      |       16691 |
|     163 | 0x3596      |       13718 |
|     164 | 0x4031      |       16433 |
|     165 | 0x4347      |       17223 |
|     166 | 0x4108      |       16648 |
|     167 | 0x30DD      |       12509 |
|     168 | 0x31D0      |       12752 |
|     169 | 0x32CB      |       13003 |
|     170 | 0x42E8      |       17128 |
|     171 | 0x418C      |       16780 |
|     172 | 0x4307      |       17159 |
|     173 | 0x4284      |       17028 |
|     174 | 0x403A      |       16442 |
|     175 | 0x3273      |       12915 |
|     176 | 0x42EA      |       17130 |
|     177 | 0x41D4      |       16852 |
|     178 | 0x3156      |       12630 |
|     179 | 0x3252      |       12882 |
|     180 | 0x43D7      |       17367 |
|     181 | 0x32F5      |       13045 |
|     182 | 0x4298      |       17048 |
|     183 | 0x3155      |       12629 |
|     184 | 0x3251      |       12881 |
|     185 | 0x4169      |       16745 |
|     186 | 0x3031      |       12337 |
|     187 | 0x42CF      |       17103 |
|     188 | 0x30C4      |       12484 |
|     189 | 0x316D      |       12653 |
|     190 | 0x31AF      |       12719 |
|     191 | 0x3237      |       12855 |
|     192 | 0x32AF      |       12975 |
|     193 | 0x416A      |       16746 |
|     194 | 0x4222      |       16930 |
|     195 | 0x41CC      |       16844 |
|     196 | 0x3330      |       13104 |
|     197 | 0x308F      |       12431 |
|     198 | 0x318F      |       12687 |
|     199 | 0x328F      |       12943 |
|     200 | 0x4168      |       16744 |
|     201 | 0x42FE      |       17150 |
|     202 | 0x34B7      |       13495 |
|     203 | 0x4148      |       16712 |
|     204 | 0x332A      |       13098 |
|     205 | 0x3096      |       12438 |
|     206 | 0x3116      |       12566 |
|     207 | 0x3196      |       12694 |
|     208 | 0x3216      |       12822 |
|     209 | 0x3296      |       12950 |
|     210 | 0x41A6      |       16806 |
|     211 | 0x3606      |       13830 |
|     212 | 0x34B9      |       13497 |
|     213 | 0x4188      |       16776 |
|     214 | 0x30B6      |       12470 |
|     215 | 0x3136      |       12598 |
|     216 | 0x31B6      |       12726 |
|     217 | 0x3236      |       12854 |
|     218 | 0x32B6      |       12982 |
|     219 | 0x416B      |       16747 |
|     220 | 0x33A5      |       13221 |
|     221 | 0x34B8      |       13496 |
|     222 | 0x0020      |          32 |
|     223 | 0x40D9      |       16601 |
|     224 | 0x310F      |       12559 |
|     225 | 0x320F      |       12815 |
|     226 | 0x3597      |       13719 |
|     227 | 0x3030      |       12336 |
|     228 | 0x4084      |       16516 |
|     229 | 0x3086      |       12422 |
|     230 | 0x3186      |       12678 |
|     231 | 0x3286      |       12934 |
|     232 | 0x3599      |       13721 |
|     233 | 0x4383      |       17283 |
|     234 | 0x404F      |       16463 |
|     235 | 0x4382      |       17282 |
|     236 | 0x332D      |       13101 |
|     237 | 0x3146      |       12614 |
|     238 | 0x31C7      |       12743 |
|     239 | 0x3246      |       12870 |
|     240 | 0x32C6      |       12998 |
|     241 | 0x41A7      |       16807 |
|     242 | 0x411D      |       16669 |
|     243 | 0x0030      |          48 |
|     244 | 0x41D3      |       16851 |
|     245 | 0x40BB      |       16571 |
|     246 | 0x3018      |       12312 |
|     247 | 0x3019      |       12313 |
|     248 | 0x3333      |       13107 |
|     249 | 0x3331      |       13105 |
|     250 | 0x318E      |       12686 |
|     251 | 0x328E      |       12942 |
|     252 | 0x33A4      |       13220 |
|     253 | 0x3598      |       13720 |
|     254 | 0x4091      |       16529 |
|     255 | 0x332B      |       13099 |
|     256 | 0x3106      |       12550 |
|     257 | 0x3206      |       12806 |
|     258 | 0x42E9      |       17129 |
|     259 | 0x4365      |       17253 |
|     260 | 0x42BA      |       17082 |
|     261 | 0x332E      |       13102 |
|     262 | 0x30BE      |       12478 |
|     263 | 0x313E      |       12606 |
|     264 | 0x31BE      |       12734 |
|     265 | 0x323E      |       12862 |
|     266 | 0x32BE      |       12990 |
|     267 | 0x41AA      |       16810 |
|     268 | 0x4136      |       16694 |
|     269 | 0x0040      |          64 |
|     270 | 0x350C      |       13580 |
|     271 | 0x3332      |       13106 |
|     272 | 0x308E      |       12430 |
|     273 | 0x359A      |       13722 |
|     274 | 0x310E      |       12558 |
|     275 | 0x320E      |       12814 |
|     276 | 0x3021      |       12321 |
|     277 | 0x42AB      |       17067 |
|     278 | 0x40D7      |       16599 |
|     279 | 0x41A5      |       16805 |
|     280 | 0x332C      |       13100 |
|     281 | 0x350E      |       13582 |
|     282 | 0x40AD      |       16557 |
|     283 | 0x3010      |       12304 |
|     284 | 0x42FF      |       17151 |
|     285 | 0x3308      |       13064 |
|     286 | 0x332F      |       13103 |
|     287 | 0x350D      |       13581 |
|     288 | 0x42C6      |       17094 |
|     289 | 0x41A8      |       16808 |
|     290 | 0x41A9      |       16809 |
|     291 | 0x0050      |          80 |
|     292 | 0x3E54      |       15956 |
|     293 | 0x41F6      |       16886 |
|     294 | 0x34F5      |       13557 |
|     295 | 0x3E55      |       15957 |
|     296 | 0x458F      |       17807 |
|     297 | 0x34F6      |       13558 |
|     298 | 0x3E56      |       15958 |
|     299 | 0x304B      |       12363 |
|     300 | 0x34F7      |       13559 |
|     301 | 0x0060      |          96 |
|     302 | 0x36BD      |       14013 |
|     303 | 0x36BE      |       14014 |
|     304 | 0x3354      |       13140 |
|     305 | 0x36BF      |       14015 |
|     306 | 0x3638      |       13880 |
|     307 | 0x3355      |       13141 |
|     308 | 0x36C0      |       14016 |
|     309 | 0x36C1      |       14017 |
|     310 | 0x3356      |       13142 |
|     311 | 0x0070      |         112 |
|     312 | 0x4239      |       16953 |
|     313 | 0x460E      |       17934 |
|     314 | 0x4432      |       17458 |
|     315 | 0x41FD      |       16893 |
|     316 | 0x419F      |       16799 |
|     317 | 0x4431      |       17457 |
|     318 | 0x4714      |       18196 |
|     319 | 0x44F7      |       17655 |
|     320 | 0x46E1      |       18145 |
|     321 | 0x447A      |       17530 |
|     322 | 0x4464      |       17508 |
|     323 | 0x44D1      |       17617 |
|     324 | 0x0080      |         128 |
|     325 | 0x385C      |       14428 |
|     326 | 0x385D      |       14429 |
|     327 | 0x385E      |       14430 |
|     328 | 0x0090      |         144 |
|     329 | 0x1EBF      |        7871 |
|     330 | 0x1ED3      |        7891 |
|     331 | 0x1ED4      |        7892 |
|     332 | 0x44AF      |       17583 |
|     333 | 0x44B0      |       17584 |
|     334 | 0x44B1      |       17585 |
|     335 | 0x1388      |        5000 |
|     336 | 0x18E9      |        6377 |
|     337 | 0x18EA      |        6378 |
|     338 | 0x18EB      |        6379 |
|     339 | 0x2710      |       10000 |
|     340 | 0x18EC      |        6380 |
|     341 | 0x4E20      |       20000 |
|     342 | 0x00B5      |         181 |
|     343 | 0x00B6      |         182 |
|     344 | 0x00B7      |         183 |
|     345 | 0x15F90     |       90000 |
|     346 | 0x1056      |        4182 |
|     347 | 0x1055      |        4181 |
|     348 | 0x3CB6      |       15542 |
|     349 | 0x3CB5      |       15541 |
|     350 | 0x6F7C      |       28540 |
|     351 | 0x2782      |       10114 |
|     352 | 0x279B      |       10139 |
|     353 | 0x27A2      |       10146 |
|     354 | 0x27C4      |       10180 |
|     355 | 0x09C4      |        2500 |
|     356 | 0x2328      |        9000 |
|     357 | 0x01F4      |         500 |
|     358 | 0x03E8      |        1000 |
|     359 | 0x07D0      |        2000 |

## String References

- **7813**: Good luck, [citizen/comrade]. I will bestow upon you your nation's Signet.
- **7814**: I cannot help you. You should go find a guard from your own country.
- **7816**: Since we are allied with San d'Oria...
- **7817**: Since we are allied with Bastok...
- **7818**: Since we are allied with Windurst...
- **7820**: Ah, you have brought us supplies. These will help us indeed. I thank you.
- **7821**: Hmm... These supplies you have brought us are too old to be of any use. We will dispose of them promptly. I do commend you for your effort. May you succeed next time.
- **7824**: I am %, a Temple Knight. I am one of the guards charged with overseeing San d'Oria's conquest campaign.
- **7825**: I am %, an Iron Musketeer. I am one of the guards charged with overseeing Bastok's conquest campaign.
- **7826**: I am %, a War Warlock. I am one of the guards charged with overseeing Windurst's conquest campaign.
- **7827**: What is your business? [Would you cast Signet on me?/I want to spend my conquest points./[I want to join the Expeditionary Force./Teleport me to the E.F. area.]/I want to quit the E.F./change my E.F./I want to go on a supplies quest./I have some questions.../Nothing, sorry to bother you.]
- **7828**: What do you wish to know about? [Nothing./Conquests./Conquest results./Donating crystals./Conquest points./The effects of controlling regions./Regions controlled by other nations./Regions under beastman control.]
- **7829**: All three nations are striving daily to put more regions under their control. This is what we call "conquests." You can take part in it and serve your country by defeating enemies while you have Signet cast on you.
- **7830**: Each region comprises several areas, and the nation that rids those areas of the most monsters gains control of the region.
- **7831**: Nations receive goods and resources from regions under their control.
- **7832**: So, the more regions we control, the richer our nation becomes.
- **7833**: Border guards are also placed in outposts within regions under our control. They are there to cast Signet on adventurers like yourself.
- **7834**: Once you have your nation's Signet, you will be able to acquire crystals from enemies you defeat.
- **7835**: Not only that, but you will also receive conquest points. You get more conquest points if you defeat enemies in regions that are not under your nation's control. These points can be used to purchase items from guards like myself.
- **7836**: So you see...conquests benefit nations and adventurers alike. We expect you to do your best to serve your country.
- **7837**: You can see the current state of conquests by selecting "Region Info" from the main menu. Conquest results in all regions are regularly recalculated, so you may want to check them from time to time.
- **7838**: Shops in our city will be selling different items according to our conquest rank. The Troupe Valeriano will also visit the nation that finishes first and bring a little joy to its citizens.
- **7839**: You can donate crystals to your nation once you achieve rank 2. Just trade them to guards like myself, and we will ensure they are sent to the proper place.
- **7840**: We would like you to donate crystals to your nation from now on. Just trade them to guards like myself, and we will ensure they are sent to the proper place.
- **7841**: You can acquire crystals by defeating enemies while you have your nation's Signet. Having Signet cast on you is also the only way of taking part in conquests.
- **7842**: Rank points will be awarded to you for each crystal you donate, and you may be offered new missions as your rank goes up.
- **7843**: You also receive rank points for completing missions. Complete missions and take part in conquests to raise your rank and serve your country.
- **7844**: You are awarded conquest points when you defeat monsters while you are taking part in conquests. Select "Region Info" from the menu to check your current number of conquest points.
- **7845**: You can purchase items from guards like myself with your conquest points, but be warned that the number of points you spend will be subtracted from your current total.
- **7846**: When conquest results are announced, you will be told which country controls the region you are in at that time. Sometimes regions may become neutral, or beastmen may even gain control of regions.
- **7847**: If we gain control of a region, border guards will be placed at its outposts to help adventurers like you.
- **7848**: Merchants will also be placed there, and goods from that region will find their way to the local shops here.
- **7849**: Gaining control of regions is the basic principle behind conquests. We need each of you to do your best, and bring our nation to the top of the ranks.
- **7850**: Of course, sometimes we lose regions to other nations...so we must try to take them back before the next conquest results are announced.
- **7851**: As an incentive, we will award you with more conquest points for defeating monsters in those regions.
- **7852**: But if we are allied with another nation, you will only be awarded the regular rate for defeating monsters in our allies' regions. On the other hand, we will award you with more points for fighting in the top-ranked nation's regions.
- **7853**: Our paramount concern lies in the beastmen gaining control of our regions. If too many of us are defeated in a region, the beastmen will gain control of it.
- **7854**: If this happens, not only is it a great blow to our pride, but you will be unable to acquire any crystals in that region.
- **7855**: The beastmen are a menace to all nations. If they rise to power, we must all unite and drive those vile creatures from that region.
- **7856**: We need you to bring supplies to the outpost border guards who are placed in regions under our control.
- **7857**: There is one outpost in each region. Select "Region Info" from the menu, and look for the areas with a small flag mark on the map. That is where they are.
- **7858**: Here are the supplies. Just give them to the guard at the outpost and your mission will be complete. Now, choose which outpost you want to go to. We give different rewards for each region, so choose carefully.
- **7859**: Where do you wish to take the supplies? [@/@/@/@/@/The Ronfaure Region.[/ (Done)]/The Zulkheim Region.[/ (Done)]/The Norvallen Region.[/ (Done)]/The Gustaberg Region.[/ (Done)]/The Derfland Region.[/ (Done)]/The Sarutabaruta Region.[/ (Done)]/The Kolshushu Region.[/ (Done)]/The Aragoneu Region.[/ (Done)]/The Fauregandi Region.[/ (Done)]/The Valdeaunia Region.[/ (Done)]/Qufim Island.[/ (Done)]/The Li'Telor Region.[/ (Done)]/The Kuzotz Region.[/ (Done)]/The Vollbow Region.[/ (Done)]/The Elshimo Lowlands Region.[/ (Done)]/The Elshimo Uplands Region.[/ (Done)]/Tu'Lia.[/ (Done)]/@/The Tavnazian Archipelago.[/ (Done)]/@/@/@/@/@/@/@/Cancel.]
- **7860**: Which E.F. would you like to join? [././././././The Zulkheim Region (Lv.20\`)./The Norvallen Region (Lv.25\`)././The Derfland Region (Lv.25\`)././The Kolshushu Region (Lv.20\`)./The Aragoneu Region (Lv.25\`)./The Fauregandi Region (Lv.35\`)./The Valdeaunia Region (Lv.40\`)./The Qufim Region (Lv.25\`)./The Li'Telor Region (Lv.35\`)./The Kuzotz Region (Lv.40\`)./The Vollbow Region (Lv.65\`)./The Elshimo Lowlands Region (Lv.35\`)./The Elshimo Uplands Region (Lv.45\`)./././././././././././None.]
- **7861**: So be it. You have until the next conquest results announcement to complete this mission. Good luck.
- **7863**: You can only undertake one supply mission per day. Come back later.
- **7868**: You currently have $0 conquest points. Would you like to use them to purchase items?
- **7869**: Which item do you wish to purchase? [Common items (all ranks)./1000-pt. items (rank 1 required)."000-pt. items (rank 2 required)./4000-pt. items (rank 3 required)./8000-pt. items (rank 4 required)./16000-pt. items (rank 5 required)."4000-pt. items (rank 6 required)."2000-pt. items (rank 7 required)./40000-pt. items (rank 8 required)./48000-pt. items (rank 9 required)./56000-pt. items (rank 10 required)./Cancel.]
- **7870**: Which item do you wish to purchase? [Common items (all ranks)."000-pt. items (rank 1 required)./4000-pt. items (rank 2 required)./8000-pt. items (rank 3 required)./16000-pt. items (rank 4 required)."4000-pt. items (rank 5 required)."2000-pt. items (rank 6 required)./40000-pt. items (rank 7 required)./48000-pt. items (rank 8 required)./56000-pt. items (rank 9 required)././Cancel.]
- **7871**: Currently there are no items available for that rank.
- **7872**: Due to its special nature, you can only purchase or recharge $2 once until the conquest results tally is performed. Also, you cannot purchase this item if a similar item is already in your possession.
- **7873**: It is possible to fully recharge $2 by trading it to one of your nation's guards, including outpost guards. One charge requires 50 conquest points.
- **7874**: It is possible to fully recharge $2 by trading it to one of your nation's guards, including outpost guards. One charge requires 100 conquest points.
- **7875**: It is possible to fully recharge $2 by trading it to one of your nation's guards, including outpost guards. One charge requires 200 conquest points.
- **7876**: During the time of the Great War, it was possible to have this item recharged in exchange for Allied Notes. From my understanding, that practice has recently become commonplace in the Near East. Though you'll be needing Imperial Standing credits if you wish to use the service there.
- **7882**: You do not meet the requirements to purchase the $2.
- **7883**: Your rank is too low to purchase the $2.
- **7884**: You do not have enough conquest points to purchase the $2.
- **7885**: You cannot equip the $2. Do you still wish to proceed?
- **7886**: Your level is too low to equip the $2. Do you still wish to proceed?
- **7887**: You seem to be able to equip the $2. Do you wish to proceed?
- **7888**: Are you sure you want to purchase the $2?
- **7889**: Proceed? [Yes, purchase item./Cancel purchase.]
- **7890**: Proceed? [Yes, even though I can't equip it./Cancel purchase.]
- **7891**: Which item do you wish to purchase? [#./$1./$2./$3./$4./$5./$6./$7./Next page./Previous page./Back.]
- **7892**: Which item do you wish to purchase? [#...$8 pts./$1...$9 pts./$2...$10 pts./$3...$11 pts./$4...$12 pts./$5...$13 pts./$6...$14 pts./$7...$15 pts./Next page./Previous page./Back.]
- **7914**: What do you want? [Would you cast Signet on me?/I'd like to set my home point here./Nothing.]
- **7915**: What do you want? [Pay $7 gil and set my home point here./Nothing.]
- **7918**: I will set your home point here.
- **7922**: Adventurers from nations that are ranked higher than ours in the conquest race may purchase items from us, but at a higher rate.
- **7923**: You cannot currently purchase this item. Please choose another.
- **7924**: Currently our nation is dispatching Expeditionary Forces across Vana'diel, and requests the participation of brave adventurers such as yourself.
- **7925**: Requirements for participating in an E.F. are simple. Your party must consist of $5 members. Each member must be from this country, rank 3 or higher, and have reached a sufficient level.
- **7926**: Once your party is ready, come to me and I will teleport you to the nearest outpost.
- **7927**: There, you will receive an insignia of the Expeditionary Force. When you succeed in taking control of the area, you can exchange the insignia for your reward.
- **7928**: Join the E.F. in [Ronfaure/Zulkheim/Norvallen/Gustaberg/Derfland/Sarutabaruta/Kolshushu/Aragoneu/Fauregandi/Valdeaunia/Qufim/Li'Telor/Kuzotz/Vollbow/The Elshimo Lowlands/The Elshimo Uplands]? [Join the E.F./Not this time.]
- **7929**: Your party doesn't have enough members, or some of the members are not in this area. Gather all those who are participating and return here.
- **7930**: One of your party members is not a citizen of this country. We do not allow any foreign participants in the E.F.
- **7931**: One of your party members has not achieved rank level 3. We cannot reveal any of our tactical strategies to those who have not shown their loyalty to our country.
- **7932**: One of your party members is below level $6. For the safety of the adventurer and those accompanying him or her, we cannot allow anyone below the limit to participate in the E.F.
- **7933**: I see that you are ready. I grant you permission to join the current Expeditionary Force. When you are ready to teleport to the outpost, talk to me once more.
- **7934**: Are you ready to be teleported to [Ronfaure/Zulkheim/Norvallen/Gustaberg/Derfland/Sarutabaruta/Kolshushu/Aragoneu/Fauregandi/Valdeaunia/Qufim/Li'Telor/Kuzotz/Vollbow/The Elshimo Lowlands/The Elshimo Uplands]? Remember that party members who have not been granted permission to attend the E.F. will be left behind.
- **7935**: Teleport to [Ronfaure/Zulkheim/Norvallen/Gustaberg/Derfland/Sarutabaruta/Kolshushu/Aragoneu/Fauregandi/Valdeaunia/Qufim/Li'Telor/Kuzotz/Vollbow/The Elshimo Lowlands/The Elshimo Uplands]? [Ready!/Wait just a minute...]
- **7936**: Cancel your participation in the E.F. to [Ronfaure/Zulkheim/Norvallen/Gustaberg/Derfland/Sarutabaruta/Kolshushu/Aragoneu/Fauregandi/Valdeaunia/Qufim/Li'Telor/Kuzotz/Vollbow/The Elshimo Lowlands/The Elshimo Uplands]?
- **7937**: Quit the E.F.? [Yes./Change locations./No.]
- **7938**: Are you sure?
- **7939**: Really quit the E.F.? [Yes./No.]
- **7940**: I see. If you ever wish to participate in the future, I will be waiting here to take your application.
- **7945**: Welcome back from the expedition. Our nation was successful in its campaign. Let me give you your reward.
- **7947**: When participating in an Expeditionary Force, concentrate your efforts on fighting foes that give you the most experience points. And don't forget to confiscate the contents of any beastman treasure chest you happen to come upon.
- **7948**: I will now hand you your insignia. Be sure to read the inscription on the back before you begin your duties. Once Signet has been bestowed upon you, prepare to be teleported.
- **7952**: Currently we rank first in Vana'diel's conquest, but that must not be taken for granted. We must continue our fight to remain on top.
- **7953**: We had first place in our hands, but we let it slip away. If we want to be ranked first in Vana'diel, each and every one of us must do their part. I look forward to hearing of your achievements.
- **7954**: Our country has fallen to third in the conquest of Vana'diel. We must step up our efforts to improve the situation.
- **7955**: You must fight in battles that gain high levels of experience. This is the only way we can bring areas under our country's control.
- **7956**: Currently, our country is the dominant force in this region. If we can maintain this level, control of this area will be ours.
- **7957**: Currently, our country is a major force in this region. However, we cannot take this for granted. If we let down our guard, we will surely lose control of the area!
- **7958**: Currently, our country has only minor influence in this region. We're counting on you to get us out of this hole we've dug ourselves into.
- **7959**: Currently, our country's influence in this area is minimal. If we do not act quickly, control of this region will certainly be taken by a rival country.
- **7960**: Take care when passing through, as this area is currently overrun with beastmen! Something must be done, or the enemy will have control of the entire region.
- **7963**: I am Jeunoan Ducal Guard, %. My duty is to support the conquest efforts of Windurst, San d'Oria, and Bastok.

## Events

### Event 65535

#### Metadata

| Field        | Value   |
|--------------|---------|
| Entrypoint   | 0x0000  |
| Data Size    | 1 bytes |
| Instructions | 1       |

```
      00 01 02 03 04 05 06 07  08 09 0A 0B 0C 0D 0E 0F
      -- -- -- -- -- -- -- --  -- -- -- -- -- -- -- --
0000: 00                                                .               
```

#### Opcodes

```
  0: 0x0000 [0x00] END_REQSTACK()
```

### Event 0

#### Metadata

| Field        | Value    |
|--------------|----------|
| Entrypoint   | 0x0001   |
| Data Size    | 25 bytes |
| Instructions | 3        |

```
      00 01 02 03 04 05 06 07  08 09 0A 0B 0C 0D 0E 0F
      -- -- -- -- -- -- -- --  -- -- -- -- -- -- -- --
0000:    37 00 80 01 80 02 80  03 80 66 04 80 F8 FF FF   7........f.....
0010: 7F F8 FF FF 7F 74 6C 6B  30 00                    .....tlk0.      
```

#### Opcodes

```
  0: 0x0001 [0x37] UPDATE_EVENT_POSITION_AND_DIR: x=-189.278*, z=-107.711*, y=-6.000*, direction=57.3°*
  1: 0x000A [0x66] LOAD_EXT_SCHEDULER_MAIN: Load scheduler "tlk0" with entities [EventEntity, EventEntity], work=60*
  2: 0x0019 [0x00] END_REQSTACK()
```

### Event 32761

#### Metadata

| Field        | Value       |
|--------------|-------------|
| Entrypoint   | 0x001A      |
| Data Size    | 13643 bytes |
| Instructions | 2641        |

```
      00 01 02 03 04 05 06 07  08 09 0A 0B 0C 0D 0E 0F
      -- -- -- -- -- -- -- --  -- -- -- -- -- -- -- --
0010:                                1A 1E 00 00 20 01            .... .
0020: 1E F0 FF FF 7F 6F 70 41  05 80 06 80 02 10 00 00  .....opA........
0030: 41 07 80 08 80 02 10 01  00 41 09 80 0A 80 02 10  A........A......
0040: 02 00 41 0B 80 0B 80 02  10 2C 00 41 0C 80 0C 80  ..A......,.A....
0050: 02 10 34 00 41 0D 80 0E  80 02 10 36 00 03 14 00  ..4.A......6....
0060: 03 10 41 05 80 0F 80 04  10 0F 00 41 10 80 06 80  ..A........A....
0070: 04 10 10 00 41 07 80 11  80 04 10 11 00 41 0B 80  ....A........A..
0080: 0C 80 04 10 19 00 41 0D  80 12 80 04 10 1A 00 41  ......A........A
0090: 13 80 0E 80 04 10 1B 00  41 14 80 14 80 04 10 1D  ........A.......
00A0: 00 41 15 80 15 80 04 10  1E 00 03 03 00 05 10 02  .A..............
00B0: 00 00 0F 80 00 BF 00 03  35 00 06 10 01 C4 00 03  ........5.......
00C0: 04 00 06 10 41 05 80 07  80 07 10 07 00 41 11 80  ....A........A..
00D0: 16 80 07 10 05 00 03 06  00 08 10 41 11 80 17 80  ...........A....
00E0: 09 10 2D 00 41 18 80 18  80 09 10 18 00 41 19 80  ..-.A........A..
00F0: 19 80 09 10 21 00 41 1A  80 1A 80 09 10 15 00 02  ....!.A.........
0100: 05 00 05 80 80 0F 01 03  1C 00 19 00 01 2F 01 02  ............./..
0110: 05 00 0F 80 80 1F 01 03  1C 00 1A 00 01 2F 01 02  ............./..
0120: 05 00 10 80 80 2F 01 03  1C 00 1B 00 01 2F 01 02  ...../......./..
0130: 00 00 0F 80 00 42 09 06  12 00 06 13 00 02 05 00  .....B..........
0140: 01 00 00 75 01 02 05 00  05 80 80 55 01 03 13 00  ...u.......U....
0150: 0F 00 01 75 01 02 05 00  0F 80 80 65 01 03 13 00  ...u.......e....
0160: 10 00 01 75 01 02 05 00  10 80 80 75 01 03 13 00  ...u.......u....
0170: 11 00 01 75 01 03 12 00  13 00 02 0A 00 05 80 00  ...u............
0180: B2 01 02 01 00 05 80 80  91 01 1D 1B 80 23 01 AF  .............#..
0190: 01 02 01 00 0F 80 80 A0  01 1D 1C 80 23 01 AF 01  ............#...
01A0: 02 01 00 10 80 80 AF 01  1D 1D 80 23 01 AF 01 01  ...........#....
01B0: B6 01 1D 1E 80 23 02 05  00 01 00 01 36 02 06 1F  .....#......6...
01C0: 00 06 20 00 02 01 00 05  80 80 D4 01 03 1F 00 0F  .. .............
01D0: 00 01 F4 01 02 01 00 0F  80 80 E4 01 03 1F 00 10  ................
01E0: 00 01 F4 01 02 01 00 10  80 80 F4 01 03 1F 00 11  ................
01F0: 00 01 F4 01 02 05 00 05  80 80 04 02 03 20 00 0F  ............. ..
0200: 00 01 24 02 02 05 00 0F  80 80 14 02 03 20 00 10  ..$.......... ..
0210: 00 01 24 02 02 05 00 10  80 80 24 02 03 20 00 11  ..$.......$.. ..
0220: 00 01 24 02 02 20 00 1F  00 03 36 02 1D 1F 80 23  ..$.. ....6....#
0230: 1A A1 34 01 15 03 02 01  00 05 00 00 2D 09 02 18  ..4.........-...
0240: 00 0F 80 00 63 02 1D 20  80 23 45 21 80 F0 FF FF  ....c.. .#E!....
0250: 7F F0 FF FF 7F 71 73 74  63 05 80 03 01 10 08 80  .....qstc.......
0260: 01 05 0B 06 08 00 02 14  00 05 80 00 80 02 40 10  ..............@.
0270: 80 10 80 08 00 0F 80 40  06 80 06 80 08 00 0F 80  .......@........
0280: 02 15 00 05 80 00 91 02  40 06 80 06 80 08 00 0F  ........@.......
0290: 80 02 03 00 22 80 00 A2  02 40 07 80 07 80 08 00  ...."....@......
02A0: 0F 80 02 0A 00 0F 80 00  CA 02 03 01 00 05 00 40  ...............@
02B0: 10 80 10 80 08 00 0F 80  40 06 80 06 80 08 00 0F  ........@.......
02C0: 80 40 07 80 07 80 08 00  0F 80 02 0B 00 0F 80 00  .@..............
02D0: F2 02 03 01 00 05 00 40  10 80 10 80 08 00 0F 80  .......@........
02E0: 40 06 80 06 80 08 00 0F  80 40 07 80 07 80 08 00  @........@......
02F0: 0F 80 02 21 00 0F 80 00  15 03 40 10 80 10 80 08  ...!......@.....
0300: 00 0F 80 40 06 80 06 80  08 00 0F 80 40 07 80 07  ...@........@...
0310: 80 08 00 0F 80 03 02 10  15 00 24 23 80 05 80 08  ..........$#....
0320: 00 25 02 00 10 05 80 00  DF 03 02 21 00 05 80 00  .%.........!....
0330: D9 03 02 0A 00 05 80 00  D9 03 02 01 00 05 00 00  ................
0340: D9 03 06 1F 00 06 20 00  02 01 00 05 80 80 58 03  ...... .......X.
0350: 03 1F 00 0F 00 01 78 03  02 01 00 0F 80 80 68 03  ......x.......h.
0360: 03 1F 00 10 00 01 78 03  02 01 00 10 80 80 78 03  ......x.......x.
0370: 03 1F 00 11 00 01 78 03  02 05 00 05 80 80 88 03  ......x.........
0380: 03 20 00 0F 00 01 A8 03  02 05 00 0F 80 80 98 03  . ..............
0390: 03 20 00 10 00 01 A8 03  02 05 00 10 80 80 A8 03  . ..............
03A0: 03 20 00 11 00 01 A8 03  02 20 00 0F 80 80 B7 03  . ....... ......
03B0: 1D 24 80 23 01 D9 03 02  20 00 10 80 80 C6 03 1D  .$.#.... .......
03C0: 25 80 23 01 D9 03 02 20  00 06 80 80 D9 03 1D 26  %.#.... .......&
03D0: 80 23 1D 27 80 23 01 D9  03 1A 07 0B 01 2A 09 02  .#.'.#.......*..
03E0: 00 10 0F 80 00 6F 05 03  02 10 06 00 1D 28 80 23  .....o.......(.#
03F0: 93 05 80 1A BB 0D 02 01  10 29 80 01 2A 04 03 2E  .........)..*...
0400: 00 01 10 3C 01 10 0A 80  0F 80 43 00 43 01 03 22  ...<......C.C.."
0410: 00 02 10 03 23 00 03 10  03 2F 00 04 10 03 33 00  ....#..../....3.
0420: 06 10 03 04 10 2F 00 93  2F 00 03 09 00 07 00 02  ...../../.......
0430: 09 00 05 80 02 3A 04 0C  09 00 14 09 00 0B 80 02  .....:..........
0440: 28 00 2A 80 03 56 04 02  28 00 09 00 02 56 04 1D  (.*..V..(....V..
0450: 2B 80 23 01 F0 03 02 01  10 29 80 01 6C 05 02 28  +.#......)..l..(
0460: 00 2A 80 04 6B 04 03 22  00 10 80 02 04 10 05 80  .*..k.."........
0470: 00 7F 04 1D 2C 80 23 03  01 10 29 80 01 69 05 02  ....,.#...)..i..
0480: 04 10 2D 80 04 DB 04 02  04 10 2E 80 05 DB 04 02  ..-.............
0490: 33 00 0F 80 00 9B 04 1D  2F 80 23 1D 30 80 23 02  3......./.#.0.#.
04A0: 04 10 2D 80 80 AE 04 1D  31 80 23 01 CC 04 02 04  ..-.....1.#.....
04B0: 10 32 80 80 BD 04 1D 33  80 23 01 CC 04 02 04 10  .2.....3.#......
04C0: 34 80 80 CC 04 1D 35 80  23 01 CC 04 1D 36 80 23  4.....5.#....6.#
04D0: 02 33 00 0F 80 00 DB 04  01 F0 03 02 23 00 0F 80  .3..........#...
04E0: 00 ED 04 1D 37 80 23 01  F0 03 01 69 05 02 22 00  ....7.#....i..".
04F0: 05 80 80 FC 04 1D 38 80  23 01 45 05 02 22 00 0F  ......8.#.E.."..
0500: 80 80 0B 05 1D 39 80 23  01 45 05 02 28 00 2A 80  .....9.#.E..(.*.
0510: 04 1A 05 1D 3A 80 23 01  1E 05 1D 3B 80 23 93 05  ....:.#....;.#..
0520: 80 24 3C 80 0F 80 05 80  25 02 00 10 05 80 00 34  .$<.....%......4
0530: 05 01 42 05 02 00 10 0F  80 00 42 05 01 F0 03 01  ..B.......B.....
0540: 42 05 01 69 05 93 05 80  24 3D 80 0F 80 05 80 25  B..i....$=.....%
0550: 02 00 10 05 80 00 5B 05  01 69 05 02 00 10 0F 80  ......[..i......
0560: 00 69 05 01 F0 03 01 69  05 93 05 80 01 2A 09 02  .i.....i.....*..
0570: 00 10 10 80 00 65 07 02  15 00 05 80 00 15 07 06  .....e..........
0580: 1F 00 06 20 00 02 01 00  05 80 80 95 05 03 1F 00  ... ............
0590: 0F 00 01 B5 05 02 01 00  0F 80 80 A5 05 03 1F 00  ................
05A0: 10 00 01 B5 05 02 01 00  10 80 80 B5 05 03 1F 00  ................
05B0: 11 00 01 B5 05 02 05 00  05 80 80 C5 05 03 20 00  .............. .
05C0: 0F 00 01 E5 05 02 05 00  0F 80 80 D5 05 03 20 00  .............. .
05D0: 10 00 01 E5 05 02 05 00  10 80 80 E5 05 03 20 00  .............. .
05E0: 11 00 01 E5 05 02 20 00  0F 80 80 F5 05 03 17 00  ...... .........
05F0: 11 80 01 1A 06 02 20 00  10 80 80 05 06 03 17 00  ...... .........
0600: 07 80 01 1A 06 02 20 00  06 80 80 15 06 03 17 00  ...... .........
0610: 06 80 01 1A 06 03 17 00  11 80 0B 17 00 03 07 10  ................
0620: 17 00 1D 3E 80 23 1D 3F  80 23 1D 40 80 23 1D 41  ...>.#.?.#.@.#.A
0630: 80 23 0F 14 00 42 80 02  2C 00 05 80 00 48 06 40  .#...B..,....H.@
0640: 0B 80 0E 80 14 00 43 80  24 44 80 05 80 14 00 25  ......C.$D.....%
0650: 02 00 10 1A 80 00 60 06  03 01 10 29 80 01 12 07  ......`....)....
0660: 03 2D 00 00 10 03 09 10  2D 00 08 09 10 11 80 24  .-......-......$
0670: 45 80 0F 80 05 80 25 02  00 10 05 80 00 12 07 42  E.....%........B
0680: 03 01 10 2D 00 3C 01 10  0C 80 0F 80 43 00 43 01  ...-.<......C.C.
0690: 03 01 10 29 80 02 02 10  0F 80 80 A4 06 1D 46 80  ...)..........F.
06A0: 23 01 02 07 02 02 10 10  80 80 B3 06 1D 47 80 23  #............G.#
06B0: 01 FF 06 02 02 10 06 80  80 C2 06 1D 48 80 23 01  ............H.#.
06C0: FF 06 02 02 10 07 80 80  D6 06 03 16 00 08 10 1D  ................
06D0: 49 80 23 01 FF 06 02 02  10 11 80 80 FF 06 1D 4A  I.#............J
06E0: 80 23 73 4B 80 F8 FF FF  7F F0 FF FF 7F 1C 4C 80  .#sK..........L.
06F0: 03 01 10 2D 00 3C 01 10  0C 80 0F 80 01 FF 06 01  ...-.<..........
0700: 12 07 02 00 10 0F 80 00  12 07 03 01 10 29 80 01  .............)..
0710: 12 07 01 62 07 03 09 10  2D 00 08 09 10 11 80 1D  ...b....-.......
0720: 4D 80 23 42 24 4E 80 0F  80 05 80 25 02 00 10 05  M.#B$N.....%....
0730: 80 00 52 07 1D 4F 80 23  1D 50 80 23 73 51 80 F8  ..R..O.#.P.#sQ..
0740: FF FF 7F F0 FF FF 7F 1C  4C 80 03 01 10 11 80 01  ........L.......
0750: 62 07 02 00 10 0F 80 00  62 07 03 01 10 29 80 01  b.......b....)..
0760: 62 07 01 2A 09 02 00 10  06 80 00 DF 07 03 09 10  b..*............
0770: 2D 00 08 09 10 11 80 1D  52 80 23 24 53 80 10 80  -.......R.#$S...
0780: 05 80 25 02 00 10 05 80  00 BE 07 1D 54 80 23 24  ..%.........T.#$
0790: 55 80 0F 80 05 80 25 02  00 10 05 80 00 AB 07 1D  U.....%.........
07A0: 56 80 23 03 01 10 09 80  01 BB 07 02 00 10 0F 80  V.#.............
07B0: 00 BB 07 03 01 10 29 80  01 BB 07 01 DC 07 02 00  ......).........
07C0: 10 0F 80 00 CC 07 01 7F  05 01 DC 07 02 00 10 10  ................
07D0: 80 00 DC 07 03 01 10 29  80 01 DC 07 01 2A 09 02  .......).....*..
07E0: 00 10 07 80 00 1B 08 02  03 00 57 80 00 F6 07 1D  ..........W.....
07F0: 58 80 23 01 18 08 1D 59  80 23 1D 5A 80 23 1D 5B  X.#....Y.#.Z.#.[
0800: 80 23 1A 7A 0B 02 01 10  05 80 01 18 08 3C 01 10  .#.z.........<..
0810: 0B 80 0F 80 1D 5C 80 23  01 2A 09 02 00 10 11 80  .....\.#.*......
0820: 00 2A 09 24 5D 80 0C 00  05 80 25 02 00 10 0F 80  .*.$].....%.....
0830: 00 5E 08 1D 5E 80 23 1D  5F 80 23 1D 60 80 23 1D  .^..^.#._.#.`.#.
0840: 61 80 23 1D 62 80 23 1D  63 80 23 1D 64 80 23 1D  a.#.b.#.c.#.d.#.
0850: 65 80 23 03 0C 00 00 10  01 23 08 01 27 09 02 00  e.#......#..'...
0860: 10 10 80 00 79 08 1D 66  80 23 1D 67 80 23 03 0C  ....y..f.#.g.#..
0870: 00 00 10 01 23 08 01 27  09 02 00 10 06 80 00 AB  ....#..'........
0880: 08 02 07 00 0F 80 05 90  08 1D 68 80 23 01 94 08  ..........h.#...
0890: 1D 69 80 23 1D 6A 80 23  1D 6B 80 23 1D 6C 80 23  .i.#.j.#.k.#.l.#
08A0: 03 0C 00 00 10 01 23 08  01 27 09 02 00 10 07 80  ......#..'......
08B0: 00 C6 08 1D 6D 80 23 1D  6E 80 23 03 0C 00 00 10  ....m.#.n.#.....
08C0: 01 23 08 01 27 09 02 00  10 11 80 00 E9 08 1D 6F  .#..'..........o
08D0: 80 23 1D 70 80 23 1D 71  80 23 1D 72 80 23 03 0C  .#.p.#.q.#.r.#..
08E0: 00 00 10 01 23 08 01 27  09 02 00 10 16 80 00 08  ....#..'........
08F0: 09 1D 73 80 23 1D 74 80  23 1D 75 80 23 03 0C 00  ..s.#.t.#.u.#...
0900: 00 10 01 23 08 01 27 09  02 00 10 08 80 00 27 09  ...#..'.......'.
0910: 1D 76 80 23 1D 77 80 23  1D 78 80 23 03 0C 00 00  .v.#.w.#.x.#....
0920: 10 01 23 08 01 27 09 01  2A 09 01 3F 09 02 02 00  ..#..'..*..?....
0930: 08 80 00 3C 09 1D 79 80  23 01 3F 09 1A 07 0B 01  ...<..y.#.?.....
0940: 05 0B 02 04 00 0F 80 80  6C 09 03 01 10 10 80 43  ........l......C
0950: 00 43 01 42 1D 7A 80 23  45 21 80 F0 FF FF 7F F0  .C.B.z.#E!......
0960: FF FF 7F 71 73 74 63 05  80 01 05 0B 02 04 00 7B  ...qstc........{
0970: 80 80 85 09 03 01 10 06  80 43 00 43 01 42 1D 7C  .........C.C.B.|
0980: 80 23 01 05 0B 02 05 00  01 00 00 14 0A 24 7D 80  .#...........$}.
0990: 05 80 05 80 25 02 00 10  05 80 00 FE 09 02 01 00  ....%...........
09A0: 05 00 00 F8 09 02 1D 00  0F 80 00 B4 09 1D 7E 80  ..............~.
09B0: 23 01 F8 09 02 1E 00 05  80 00 F8 09 02 1C 00 06  #...............
09C0: 80 80 CB 09 1D 7F 80 23  01 F8 09 02 1C 00 10 80  .......#........
09D0: 80 DA 09 1D 80 80 23 01  F8 09 02 1C 00 0F 80 80  ......#.........
09E0: E9 09 1D 81 80 23 01 F8  09 02 1C 00 05 80 80 F8  .....#..........
09F0: 09 1D 82 80 23 01 F8 09  1A 07 0B 01 11 0A 02 00  ....#...........
0A00: 10 0F 80 00 11 0A 03 01  10 07 80 1A 66 0B 01 11  ............f...
0A10: 0A 01 05 0B 02 02 00 08  80 01 1F 0A 01 8D 09 02  ................
0A20: 07 00 05 80 80 2F 0A 03  0E 00 83 80 01 D4 0A 02  ...../..........
0A30: 07 00 0F 80 80 3F 0A 03  0E 00 83 80 01 D4 0A 02  .....?..........
0A40: 07 00 10 80 80 4F 0A 03  0E 00 84 80 01 D4 0A 02  .....O..........
0A50: 07 00 06 80 80 5F 0A 03  0E 00 85 80 01 D4 0A 02  ....._..........
0A60: 07 00 07 80 80 6F 0A 03  0E 00 86 80 01 D4 0A 02  .....o..........
0A70: 07 00 11 80 80 7F 0A 03  0E 00 87 80 01 D4 0A 02  ................
0A80: 07 00 16 80 80 8F 0A 03  0E 00 88 80 01 D4 0A 02  ................
0A90: 07 00 08 80 80 9F 0A 03  0E 00 89 80 01 D4 0A 02  ................
0AA0: 07 00 09 80 80 AF 0A 03  0E 00 8A 80 01 D4 0A 02  ................
0AB0: 07 00 17 80 80 BF 0A 03  0E 00 8B 80 01 D4 0A 02  ................
0AC0: 07 00 18 80 80 CF 0A 03  0E 00 8C 80 01 D4 0A 03  ................
0AD0: 0E 00 8C 80 03 09 10 0E  00 24 8D 80 0F 80 05 80  .........$......
0AE0: 25 02 00 10 05 80 00 05  0B 03 01 10 07 80 43 00  %.............C.
0AF0: 43 01 03 0D 00 02 10 02  0D 00 0F 80 00 02 0B 1A  C...............
0B00: 66 0B 01 05 0B 21 1B 42  02 02 00 05 80 80 13 0B  f....!.B........
0B10: 01 40 0B 02 02 00 07 80  80 22 0B 1D 8E 80 23 01  .@......."....#.
0B20: 40 0B 02 02 00 10 80 80  31 0B 1D 8F 80 23 01 40  @.......1....#.@
0B30: 0B 02 02 00 0F 80 80 40  0B 1D 90 80 23 01 40 0B  .......@....#.@.
0B40: 06 02 10 02 05 00 01 00  01 4E 0B 05 02 10 1D 91  .........N......
0B50: 80 23 73 4B 80 F8 FF FF  7F F0 FF FF 7F 1C 4C 80  .#sK..........L.
0B60: 03 01 10 0F 80 1B 42 73  92 80 F8 FF FF 7F F0 FF  ......Bs........
0B70: FF 7F 1D 93 80 23 1C 94  80 1B 3D 03 00 1A 80 0F  .....#....=.....
0B80: 80 3E 35 00 11 80 8E 0B  05 07 10 01 91 0B 06 07  .>5.............
0B90: 10 3E 35 00 16 80 9E 0B  05 08 10 01 A1 0B 06 08  .>5.............
0BA0: 10 3E 35 00 08 80 AE 0B  05 09 10 01 B1 0B 06 09  .>5.............
0BB0: 10 3E 35 00 09 80 BE 0B  05 00 17 01 C1 0B 06 00  .>5.............
0BC0: 17 3E 35 00 17 80 CE 0B  05 01 17 01 D1 0B 06 01  .>5.............
0BD0: 17 3E 35 00 18 80 DE 0B  05 02 17 01 E1 0B 06 02  .>5.............
0BE0: 17 3E 35 00 95 80 EE 0B  05 03 17 01 F1 0B 06 03  .>5.............
0BF0: 17 3E 35 00 96 80 FE 0B  05 04 17 01 01 0C 06 04  .>5.............
0C00: 17 3E 35 00 97 80 0E 0C  05 05 17 01 11 0C 06 05  .>5.............
0C10: 17 3E 35 00 98 80 1E 0C  05 06 17 01 21 0C 06 06  .>5.........!...
0C20: 17 3E 35 00 0A 80 2E 0C  05 07 17 01 31 0C 06 07  .>5.........1...
0C30: 17 3E 35 00 0B 80 3E 0C  05 08 17 01 41 0C 06 08  .>5...>.....A...
0C40: 17 3E 35 00 0C 80 4E 0C  05 09 17 01 51 0C 06 09  .>5...N.....Q...
0C50: 17 3E 35 00 0D 80 5E 0C  05 0A 17 01 61 0C 06 0A  .>5...^.....a...
0C60: 17 3E 35 00 12 80 6E 0C  05 0B 17 01 71 0C 06 0B  .>5...n.....q...
0C70: 17 3E 35 00 13 80 7E 0C  05 0C 17 01 81 0C 06 0C  .>5...~.........
0C80: 17 3E 35 00 0E 80 8E 0C  05 0D 17 01 91 0C 06 0D  .>5.............
0C90: 17 3E 35 00 15 80 9E 0C  05 0F 17 01 A1 0C 06 0F  .>5.............
0CA0: 17 24 99 80 05 80 03 00  25 42 02 00 10 11 80 00  .$......%B......
0CB0: BA 0C 03 01 10 11 80 01  BA 0D 02 00 10 16 80 00  ................
0CC0: CA 0C 03 01 10 16 80 01  BA 0D 02 00 10 08 80 00  ................
0CD0: DA 0C 03 01 10 08 80 01  BA 0D 02 00 10 09 80 00  ................
0CE0: EA 0C 03 01 10 09 80 01  BA 0D 02 00 10 17 80 00  ................
0CF0: FA 0C 03 01 10 17 80 01  BA 0D 02 00 10 18 80 00  ................
0D00: 0A 0D 03 01 10 18 80 01  BA 0D 02 00 10 95 80 00  ................
0D10: 1A 0D 03 01 10 95 80 01  BA 0D 02 00 10 96 80 00  ................
0D20: 2A 0D 03 01 10 96 80 01  BA 0D 02 00 10 97 80 00  *...............
0D30: 3A 0D 03 01 10 97 80 01  BA 0D 02 00 10 98 80 00  :...............
0D40: 4A 0D 03 01 10 98 80 01  BA 0D 02 00 10 0A 80 00  J...............
0D50: 5A 0D 03 01 10 0A 80 01  BA 0D 02 00 10 0B 80 00  Z...............
0D60: 6A 0D 03 01 10 0B 80 01  BA 0D 02 00 10 0C 80 00  j...............
0D70: 7A 0D 03 01 10 0C 80 01  BA 0D 02 00 10 0D 80 00  z...............
0D80: 8A 0D 03 01 10 0D 80 01  BA 0D 02 00 10 12 80 00  ................
0D90: 9A 0D 03 01 10 12 80 01  BA 0D 02 00 10 13 80 00  ................
0DA0: AA 0D 03 01 10 13 80 01  BA 0D 02 00 10 15 80 00  ................
0DB0: BA 0D 03 01 10 15 80 01  BA 0D 1B 06 0C 17 06 0D  ................
0DC0: 17 06 0E 17 06 0F 17 06  10 17 06 11 17 06 12 17  ................
0DD0: 06 13 17 06 14 17 06 15  17 06 16 17 06 17 17 06  ................
0DE0: 18 17 06 19 17 06 1A 17  06 1B 17 06 29 00 02 30  ............)..0
0DF0: 00 05 80 00 38 0E 05 30  00 06 28 00 06 2A 00 06  ....8..0..(..*..
0E00: 32 00 02 05 00 01 00 00  20 0E 24 9A 80 24 00 05  2....... .$..$..
0E10: 80 25 02 00 10 05 80 00  1D 0E 01 1D 0E 01 33 0E  .%............3.
0E20: 24 9B 80 24 00 9C 80 25  02 00 10 05 80 00 33 0E  $..$...%......3.
0E30: 01 33 0E 03 31 00 00 10  02 31 00 05 80 80 46 0E  .3..1....1....F.
0E40: 1A 59 31 01 07 2F 02 31  00 0F 80 80 8C 11 02 01  .Y1../.1........
0E50: 00 05 80 80 5F 0F 02 12  00 0F 80 80 B1 0E 03 0C  ...._...........
0E60: 17 9D 80 03 0D 17 9E 80  03 0E 17 9F 80 03 0F 17  ................
0E70: A0 80 03 10 17 A1 80 03  11 17 A2 80 03 12 17 A3  ................
0E80: 80 03 13 17 05 80 03 14  17 05 80 03 15 17 05 80  ................
0E90: 03 16 17 05 80 03 17 17  05 80 03 18 17 05 80 03  ................
0EA0: 19 17 05 80 03 1A 17 05  80 03 1B 17 05 80 01 5C  ...............\
0EB0: 0F 02 12 00 10 80 80 0C  0F 03 0C 17 9D 80 03 0D  ................
0EC0: 17 9E 80 03 0E 17 9F 80  03 0F 17 A0 80 03 10 17  ................
0ED0: A1 80 03 11 17 A2 80 03  12 17 05 80 03 13 17 05  ................
0EE0: 80 03 14 17 05 80 03 15  17 05 80 03 16 17 05 80  ................
0EF0: 03 17 17 05 80 03 18 17  05 80 03 19 17 05 80 03  ................
0F00: 1A 17 05 80 03 1B 17 05  80 01 5C 0F 03 0C 17 9D  ..........\.....
0F10: 80 03 0D 17 9E 80 03 0E  17 9F 80 03 0F 17 A0 80  ................
0F20: 03 10 17 A1 80 03 11 17  05 80 03 12 17 05 80 03  ................
0F30: 13 17 05 80 03 14 17 05  80 03 15 17 05 80 03 16  ................
0F40: 17 05 80 03 17 17 05 80  03 18 17 05 80 03 19 17  ................
0F50: 05 80 03 1A 17 05 80 03  1B 17 05 80 01 81 11 02  ................
0F60: 01 00 0F 80 80 70 10 02  12 00 0F 80 80 C2 0F 03  .....p..........
0F70: 0C 17 A4 80 03 0D 17 A5  80 03 0E 17 A6 80 03 0F  ................
0F80: 17 A7 80 03 10 17 A8 80  03 11 17 A9 80 03 12 17  ................
0F90: AA 80 03 13 17 AB 80 03  14 17 05 80 03 15 17 05  ................
0FA0: 80 03 16 17 05 80 03 17  17 05 80 03 18 17 05 80  ................
0FB0: 03 19 17 05 80 03 1A 17  05 80 03 1B 17 05 80 01  ................
0FC0: 6D 10 02 12 00 10 80 80  1D 10 03 0C 17 A4 80 03  m...............
0FD0: 0D 17 A5 80 03 0E 17 A6  80 03 0F 17 A7 80 03 10  ................
0FE0: 17 A8 80 03 11 17 A9 80  03 12 17 AA 80 03 13 17  ................
0FF0: 05 80 03 14 17 05 80 03  15 17 05 80 03 16 17 05  ................
1000: 80 03 17 17 05 80 03 18  17 05 80 03 19 17 05 80  ................
1010: 03 1A 17 05 80 03 1B 17  05 80 01 6D 10 03 0C 17  ...........m....
1020: A4 80 03 0D 17 A5 80 03  0E 17 A6 80 03 0F 17 A7  ................
1030: 80 03 10 17 A8 80 03 11  17 A9 80 03 12 17 05 80  ................
1040: 03 13 17 05 80 03 14 17  05 80 03 15 17 05 80 03  ................
1050: 16 17 05 80 03 17 17 05  80 03 18 17 05 80 03 19  ................
1060: 17 05 80 03 1A 17 05 80  03 1B 17 05 80 01 81 11  ................
1070: 02 01 00 10 80 80 81 11  02 12 00 0F 80 80 D3 10  ................
1080: 03 0C 17 AC 80 03 0D 17  AD 80 03 0E 17 AE 80 03  ................
1090: 0F 17 AF 80 03 10 17 B0  80 03 11 17 05 80 03 12  ................
10A0: 17 05 80 03 13 17 05 80  03 14 17 05 80 03 15 17  ................
10B0: 05 80 03 16 17 05 80 03  17 17 05 80 03 18 17 05  ................
10C0: 80 03 19 17 05 80 03 1A  17 05 80 03 1B 17 05 80  ................
10D0: 01 7E 11 02 12 00 10 80  80 2E 11 03 0C 17 AC 80  .~..............
10E0: 03 0D 17 AD 80 03 0E 17  AE 80 03 0F 17 AF 80 03  ................
10F0: 10 17 05 80 03 11 17 05  80 03 12 17 05 80 03 13  ................
1100: 17 05 80 03 14 17 05 80  03 15 17 05 80 03 16 17  ................
1110: 05 80 03 17 17 05 80 03  18 17 05 80 03 19 17 05  ................
1120: 80 03 1A 17 05 80 03 1B  17 05 80 01 7E 11 03 0C  ............~...
1130: 17 AC 80 03 0D 17 AD 80  03 0E 17 AE 80 03 0F 17  ................
1140: 05 80 03 10 17 05 80 03  11 17 05 80 03 12 17 05  ................
1150: 80 03 13 17 05 80 03 14  17 05 80 03 15 17 05 80  ................
1160: 03 16 17 05 80 03 17 17  05 80 03 18 17 05 80 03  ................
1170: 19 17 05 80 03 1A 17 05  80 03 1B 17 05 80 01 81  ................
1180: 11 03 28 00 05 80 1A 13  2F 01 07 2F 02 31 00 10  ..(...../../.1..
1190: 80 80 D2 14 02 01 00 05  80 80 A5 12 02 12 00 0F  ................
11A0: 80 80 F7 11 03 0C 17 B1  80 03 0D 17 B2 80 03 0E  ................
11B0: 17 B3 80 03 0F 17 B4 80  03 10 17 B5 80 03 11 17  ................
11C0: 05 80 03 12 17 05 80 03  13 17 05 80 03 14 17 05  ................
11D0: 80 03 15 17 05 80 03 16  17 05 80 03 17 17 05 80  ................
11E0: 03 18 17 05 80 03 19 17  05 80 03 1A 17 05 80 03  ................
11F0: 1B 17 05 80 01 A2 12 02  12 00 10 80 80 52 12 03  .............R..
1200: 0C 17 B1 80 03 0D 17 B2  80 03 0E 17 B3 80 03 0F  ................
1210: 17 B4 80 03 10 17 05 80  03 11 17 05 80 03 12 17  ................
1220: 05 80 03 13 17 05 80 03  14 17 05 80 03 15 17 05  ................
1230: 80 03 16 17 05 80 03 17  17 05 80 03 18 17 05 80  ................
1240: 03 19 17 05 80 03 1A 17  05 80 03 1B 17 05 80 01  ................
1250: A2 12 03 0C 17 B1 80 03  0D 17 B2 80 03 0E 17 B3  ................
1260: 80 03 0F 17 05 80 03 10  17 05 80 03 11 17 05 80  ................
1270: 03 12 17 05 80 03 13 17  05 80 03 14 17 05 80 03  ................
1280: 15 17 05 80 03 16 17 05  80 03 17 17 05 80 03 18  ................
1290: 17 05 80 03 19 17 05 80  03 1A 17 05 80 03 1B 17  ................
12A0: 05 80 01 C7 14 02 01 00  0F 80 80 B6 13 02 12 00  ................
12B0: 0F 80 80 08 13 03 0C 17  B6 80 03 0D 17 B7 80 03  ................
12C0: 0E 17 B8 80 03 0F 17 B9  80 03 10 17 BA 80 03 11  ................
12D0: 17 05 80 03 12 17 05 80  03 13 17 05 80 03 14 17  ................
12E0: 05 80 03 15 17 05 80 03  16 17 05 80 03 17 17 05  ................
12F0: 80 03 18 17 05 80 03 19  17 05 80 03 1A 17 05 80  ................
1300: 03 1B 17 05 80 01 B3 13  02 12 00 10 80 80 63 13  ..............c.
1310: 03 0C 17 B6 80 03 0D 17  B7 80 03 0E 17 B8 80 03  ................
1320: 0F 17 B9 80 03 10 17 05  80 03 11 17 05 80 03 12  ................
1330: 17 05 80 03 13 17 05 80  03 14 17 05 80 03 15 17  ................
1340: 05 80 03 16 17 05 80 03  17 17 05 80 03 18 17 05  ................
1350: 80 03 19 17 05 80 03 1A  17 05 80 03 1B 17 05 80  ................
1360: 01 B3 13 03 0C 17 B6 80  03 0D 17 B7 80 03 0E 17  ................
1370: B8 80 03 0F 17 05 80 03  10 17 05 80 03 11 17 05  ................
1380: 80 03 12 17 05 80 03 13  17 05 80 03 14 17 05 80  ................
1390: 03 15 17 05 80 03 16 17  05 80 03 17 17 05 80 03  ................
13A0: 18 17 05 80 03 19 17 05  80 03 1A 17 05 80 03 1B  ................
13B0: 17 05 80 01 C7 14 02 01  00 10 80 80 C7 14 02 12  ................
13C0: 00 0F 80 80 19 14 03 0C  17 BB 80 03 0D 17 BC 80  ................
13D0: 03 0E 17 BD 80 03 0F 17  BE 80 03 10 17 BF 80 03  ................
13E0: 11 17 C0 80 03 12 17 C1  80 03 13 17 C2 80 03 14  ................
13F0: 17 05 80 03 15 17 05 80  03 16 17 05 80 03 17 17  ................
1400: 05 80 03 18 17 05 80 03  19 17 05 80 03 1A 17 05  ................
1410: 80 03 1B 17 05 80 01 C4  14 02 12 00 10 80 80 74  ...............t
1420: 14 03 0C 17 BB 80 03 0D  17 BC 80 03 0E 17 BD 80  ................
1430: 03 0F 17 BE 80 03 10 17  BF 80 03 11 17 C0 80 03  ................
1440: 12 17 C1 80 03 13 17 05  80 03 14 17 05 80 03 15  ................
1450: 17 05 80 03 16 17 05 80  03 17 17 05 80 03 18 17  ................
1460: 05 80 03 19 17 05 80 03  1A 17 05 80 03 1B 17 05  ................
1470: 80 01 C4 14 03 0C 17 BB  80 03 0D 17 BC 80 03 0E  ................
1480: 17 BD 80 03 0F 17 BE 80  03 10 17 BF 80 03 11 17  ................
1490: C0 80 03 12 17 05 80 03  13 17 05 80 03 14 17 05  ................
14A0: 80 03 15 17 05 80 03 16  17 05 80 03 17 17 05 80  ................
14B0: 03 18 17 05 80 03 19 17  05 80 03 1A 17 05 80 03  ................
14C0: 1B 17 05 80 01 C7 14 03  28 00 0B 80 1A 13 2F 01  ........(...../.
14D0: 07 2F 02 31 00 06 80 80  18 18 02 01 00 05 80 80  ./.1............
14E0: EB 15 02 12 00 0F 80 80  3D 15 03 0C 17 C3 80 03  ........=.......
14F0: 0D 17 C4 80 03 0E 17 C5  80 03 0F 17 C6 80 03 10  ................
1500: 17 C7 80 03 11 17 C8 80  03 12 17 C9 80 03 13 17  ................
1510: CA 80 03 14 17 05 80 03  15 17 05 80 03 16 17 05  ................
1520: 80 03 17 17 05 80 03 18  17 05 80 03 19 17 05 80  ................
1530: 03 1A 17 05 80 03 1B 17  05 80 01 E8 15 02 12 00  ................
1540: 10 80 80 98 15 03 0C 17  C3 80 03 0D 17 C4 80 03  ................
1550: 0E 17 C5 80 03 0F 17 C6  80 03 10 17 C7 80 03 11  ................
1560: 17 C8 80 03 12 17 05 80  03 13 17 05 80 03 14 17  ................
1570: 05 80 03 15 17 05 80 03  16 17 05 80 03 17 17 05  ................
1580: 80 03 18 17 05 80 03 19  17 05 80 03 1A 17 05 80  ................
1590: 03 1B 17 05 80 01 E8 15  03 0C 17 C3 80 03 0D 17  ................
15A0: C4 80 03 0E 17 C5 80 03  0F 17 C6 80 03 10 17 C7  ................
15B0: 80 03 11 17 05 80 03 12  17 05 80 03 13 17 05 80  ................
15C0: 03 14 17 05 80 03 15 17  05 80 03 16 17 05 80 03  ................
15D0: 17 17 05 80 03 18 17 05  80 03 19 17 05 80 03 1A  ................
15E0: 17 05 80 03 1B 17 05 80  01 0D 18 02 01 00 0F 80  ................
15F0: 80 FC 16 02 12 00 0F 80  80 4E 16 03 0C 17 CB 80  .........N......
1600: 03 0D 17 CC 80 03 0E 17  CD 80 03 0F 17 CE 80 03  ................
1610: 10 17 CF 80 03 11 17 D0  80 03 12 17 D1 80 03 13  ................
1620: 17 D2 80 03 14 17 D3 80  03 15 17 D4 80 03 16 17  ................
1630: 05 80 03 17 17 05 80 03  18 17 05 80 03 19 17 05  ................
1640: 80 03 1A 17 05 80 03 1B  17 05 80 01 F9 16 02 12  ................
1650: 00 10 80 80 A9 16 03 0C  17 CB 80 03 0D 17 CC 80  ................
1660: 03 0E 17 CD 80 03 0F 17  CE 80 03 10 17 CF 80 03  ................
1670: 11 17 D0 80 03 12 17 D1  80 03 13 17 D2 80 03 14  ................
1680: 17 05 80 03 15 17 05 80  03 16 17 05 80 03 17 17  ................
1690: 05 80 03 18 17 05 80 03  19 17 05 80 03 1A 17 05  ................
16A0: 80 03 1B 17 05 80 01 F9  16 03 0C 17 CB 80 03 0D  ................
16B0: 17 CC 80 03 0E 17 CD 80  03 0F 17 CE 80 03 10 17  ................
16C0: CF 80 03 11 17 D0 80 03  12 17 D1 80 03 13 17 05  ................
16D0: 80 03 14 17 05 80 03 15  17 05 80 03 16 17 05 80  ................
16E0: 03 17 17 05 80 03 18 17  05 80 03 19 17 05 80 03  ................
16F0: 1A 17 05 80 03 1B 17 05  80 01 0D 18 02 01 00 10  ................
1700: 80 80 0D 18 02 12 00 0F  80 80 5F 17 03 0C 17 D5  .........._.....
1710: 80 03 0D 17 D6 80 03 0E  17 D7 80 03 0F 17 D8 80  ................
1720: 03 10 17 D9 80 03 11 17  DA 80 03 12 17 DB 80 03  ................
1730: 13 17 DC 80 03 14 17 DD  80 03 15 17 05 80 03 16  ................
1740: 17 05 80 03 17 17 05 80  03 18 17 05 80 03 19 17  ................
1750: 05 80 03 1A 17 05 80 03  1B 17 05 80 01 0A 18 02  ................
1760: 12 00 10 80 80 BA 17 03  0C 17 D5 80 03 0D 17 D6  ................
1770: 80 03 0E 17 D7 80 03 0F  17 D8 80 03 10 17 D9 80  ................
1780: 03 11 17 DA 80 03 12 17  DB 80 03 13 17 05 80 03  ................
1790: 14 17 05 80 03 15 17 05  80 03 16 17 05 80 03 17  ................
17A0: 17 05 80 03 18 17 05 80  03 19 17 05 80 03 1A 17  ................
17B0: 05 80 03 1B 17 05 80 01  0A 18 03 0C 17 D5 80 03  ................
17C0: 0D 17 D6 80 03 0E 17 D7  80 03 0F 17 D8 80 03 10  ................
17D0: 17 D9 80 03 11 17 DA 80  03 12 17 05 80 03 13 17  ................
17E0: 05 80 03 14 17 05 80 03  15 17 05 80 03 16 17 05  ................
17F0: 80 03 17 17 05 80 03 18  17 05 80 03 19 17 05 80  ................
1800: 03 1A 17 05 80 03 1B 17  05 80 01 0D 18 03 28 00  ..............(.
1810: DE 80 1A 13 2F 01 07 2F  02 31 00 07 80 80 5E 1B  ..../../.1....^.
1820: 02 01 00 05 80 80 31 19  02 12 00 0F 80 80 83 18  ......1.........
1830: 03 0C 17 DF 80 03 0D 17  E0 80 03 0E 17 E1 80 03  ................
1840: 0F 17 E2 80 03 10 17 E3  80 03 11 17 05 80 03 12  ................
1850: 17 05 80 03 13 17 05 80  03 14 17 05 80 03 15 17  ................
1860: 05 80 03 16 17 05 80 03  17 17 05 80 03 18 17 05  ................
1870: 80 03 19 17 05 80 03 1A  17 05 80 03 1B 17 05 80  ................
1880: 01 2E 19 02 12 00 10 80  80 DE 18 03 0C 17 DF 80  ................
1890: 03 0D 17 E0 80 03 0E 17  E1 80 03 0F 17 E2 80 03  ................
18A0: 10 17 05 80 03 11 17 05  80 03 12 17 05 80 03 13  ................
18B0: 17 05 80 03 14 17 05 80  03 15 17 05 80 03 16 17  ................
18C0: 05 80 03 17 17 05 80 03  18 17 05 80 03 19 17 05  ................
18D0: 80 03 1A 17 05 80 03 1B  17 05 80 01 2E 19 03 0C  ................
18E0: 17 DF 80 03 0D 17 E0 80  03 0E 17 E1 80 03 0F 17  ................
18F0: 05 80 03 10 17 05 80 03  11 17 05 80 03 12 17 05  ................
1900: 80 03 13 17 05 80 03 14  17 05 80 03 15 17 05 80  ................
1910: 03 16 17 05 80 03 17 17  05 80 03 18 17 05 80 03  ................
1920: 19 17 05 80 03 1A 17 05  80 03 1B 17 05 80 01 53  ...............S
1930: 1B 02 01 00 0F 80 80 42  1A 02 12 00 0F 80 80 94  .......B........
1940: 19 03 0C 17 E4 80 03 0D  17 E5 80 03 0E 17 E6 80  ................
1950: 03 0F 17 E7 80 03 10 17  E8 80 03 11 17 E9 80 03  ................
1960: 12 17 05 80 03 13 17 05  80 03 14 17 05 80 03 15  ................
1970: 17 05 80 03 16 17 05 80  03 17 17 05 80 03 18 17  ................
1980: 05 80 03 19 17 05 80 03  1A 17 05 80 03 1B 17 05  ................
1990: 80 01 3F 1A 02 12 00 10  80 80 EF 19 03 0C 17 E4  ..?.............
19A0: 80 03 0D 17 E5 80 03 0E  17 E6 80 03 0F 17 E7 80  ................
19B0: 03 10 17 E8 80 03 11 17  05 80 03 12 17 05 80 03  ................
19C0: 13 17 05 80 03 14 17 05  80 03 15 17 05 80 03 16  ................
19D0: 17 05 80 03 17 17 05 80  03 18 17 05 80 03 19 17  ................
19E0: 05 80 03 1A 17 05 80 03  1B 17 05 80 01 3F 1A 03  .............?..
19F0: 0C 17 E4 80 03 0D 17 E5  80 03 0E 17 E6 80 03 0F  ................
1A00: 17 E7 80 03 10 17 05 80  03 11 17 05 80 03 12 17  ................
1A10: 05 80 03 13 17 05 80 03  14 17 05 80 03 15 17 05  ................
1A20: 80 03 16 17 05 80 03 17  17 05 80 03 18 17 05 80  ................
1A30: 03 19 17 05 80 03 1A 17  05 80 03 1B 17 05 80 01  ................
1A40: 53 1B 02 01 00 10 80 80  53 1B 02 12 00 0F 80 80  S.......S.......
1A50: A5 1A 03 0C 17 EA 80 03  0D 17 EB 80 03 0E 17 EC  ................
1A60: 80 03 0F 17 ED 80 03 10  17 EE 80 03 11 17 EF 80  ................
1A70: 03 12 17 F0 80 03 13 17  F1 80 03 14 17 F2 80 03  ................
1A80: 15 17 05 80 03 16 17 05  80 03 17 17 05 80 03 18  ................
1A90: 17 05 80 03 19 17 05 80  03 1A 17 05 80 03 1B 17  ................
1AA0: 05 80 01 50 1B 02 12 00  10 80 80 00 1B 03 0C 17  ...P............
1AB0: EA 80 03 0D 17 EB 80 03  0E 17 EC 80 03 0F 17 ED  ................
1AC0: 80 03 10 17 EE 80 03 11  17 EF 80 03 12 17 F0 80  ................
1AD0: 03 13 17 F1 80 03 14 17  05 80 03 15 17 05 80 03  ................
1AE0: 16 17 05 80 03 17 17 05  80 03 18 17 05 80 03 19  ................
1AF0: 17 05 80 03 1A 17 05 80  03 1B 17 05 80 01 50 1B  ..............P.
1B00: 03 0C 17 EA 80 03 0D 17  EB 80 03 0E 17 EC 80 03  ................
1B10: 0F 17 ED 80 03 10 17 EE  80 03 11 17 EF 80 03 12  ................
1B20: 17 F0 80 03 13 17 05 80  03 14 17 05 80 03 15 17  ................
1B30: 05 80 03 16 17 05 80 03  17 17 05 80 03 18 17 05  ................
1B40: 80 03 19 17 05 80 03 1A  17 05 80 03 1B 17 05 80  ................
1B50: 01 53 1B 03 28 00 F3 80  1A 13 2F 01 07 2F 02 31  .S..(...../../.1
1B60: 00 11 80 80 A4 1E 02 01  00 05 80 80 77 1C 02 12  ............w...
1B70: 00 0F 80 80 C9 1B 03 0C  17 F4 80 03 0D 17 F5 80  ................
1B80: 03 0E 17 F6 80 03 0F 17  F7 80 03 10 17 F8 80 03  ................
1B90: 11 17 F9 80 03 12 17 FA  80 03 13 17 FB 80 03 14  ................
1BA0: 17 FC 80 03 15 17 FD 80  03 16 17 05 80 03 17 17  ................
1BB0: 05 80 03 18 17 05 80 03  19 17 05 80 03 1A 17 05  ................
1BC0: 80 03 1B 17 05 80 01 74  1C 02 12 00 10 80 80 24  .......t.......$
1BD0: 1C 03 0C 17 F4 80 03 0D  17 F5 80 03 0E 17 F6 80  ................
1BE0: 03 0F 17 F7 80 03 10 17  F8 80 03 11 17 F9 80 03  ................
1BF0: 12 17 FA 80 03 13 17 FB  80 03 14 17 FC 80 03 15  ................
1C00: 17 05 80 03 16 17 05 80  03 17 17 05 80 03 18 17  ................
1C10: 05 80 03 19 17 05 80 03  1A 17 05 80 03 1B 17 05  ................
1C20: 80 01 74 1C 03 0C 17 F4  80 03 0D 17 F5 80 03 0E  ..t.............
1C30: 17 F6 80 03 0F 17 F7 80  03 10 17 F8 80 03 11 17  ................
1C40: F9 80 03 12 17 FA 80 03  13 17 FB 80 03 14 17 05  ................
1C50: 80 03 15 17 05 80 03 16  17 05 80 03 17 17 05 80  ................
1C60: 03 18 17 05 80 03 19 17  05 80 03 1A 17 05 80 03  ................
1C70: 1B 17 05 80 01 99 1E 02  01 00 0F 80 80 88 1D 02  ................
1C80: 12 00 0F 80 80 DA 1C 03  0C 17 FE 80 03 0D 17 FF  ................
1C90: 80 03 0E 17 00 81 03 0F  17 01 81 03 10 17 02 81  ................
1CA0: 03 11 17 03 81 03 12 17  05 80 03 13 17 05 80 03  ................
1CB0: 14 17 05 80 03 15 17 05  80 03 16 17 05 80 03 17  ................
1CC0: 17 05 80 03 18 17 05 80  03 19 17 05 80 03 1A 17  ................
1CD0: 05 80 03 1B 17 05 80 01  85 1D 02 12 00 10 80 80  ................
1CE0: 35 1D 03 0C 17 FE 80 03  0D 17 FF 80 03 0E 17 00  5...............
1CF0: 81 03 0F 17 01 81 03 10  17 02 81 03 11 17 05 80  ................
1D00: 03 12 17 05 80 03 13 17  05 80 03 14 17 05 80 03  ................
1D10: 15 17 05 80 03 16 17 05  80 03 17 17 05 80 03 18  ................
1D20: 17 05 80 03 19 17 05 80  03 1A 17 05 80 03 1B 17  ................
1D30: 05 80 01 85 1D 03 0C 17  FE 80 03 0D 17 FF 80 03  ................
1D40: 0E 17 00 81 03 0F 17 01  81 03 10 17 05 80 03 11  ................
1D50: 17 05 80 03 12 17 05 80  03 13 17 05 80 03 14 17  ................
1D60: 05 80 03 15 17 05 80 03  16 17 05 80 03 17 17 05  ................
1D70: 80 03 18 17 05 80 03 19  17 05 80 03 1A 17 05 80  ................
1D80: 03 1B 17 05 80 01 99 1E  02 01 00 10 80 80 99 1E  ................
1D90: 02 12 00 0F 80 80 EB 1D  03 0C 17 04 81 03 0D 17  ................
1DA0: 05 81 03 0E 17 06 81 03  0F 17 07 81 03 10 17 08  ................
1DB0: 81 03 11 17 09 81 03 12  17 0A 81 03 13 17 0B 81  ................
1DC0: 03 14 17 0C 81 03 15 17  05 80 03 16 17 05 80 03  ................
1DD0: 17 17 05 80 03 18 17 05  80 03 19 17 05 80 03 1A  ................
1DE0: 17 05 80 03 1B 17 05 80  01 96 1E 02 12 00 10 80  ................
1DF0: 80 46 1E 03 0C 17 04 81  03 0D 17 05 81 03 0E 17  .F..............
1E00: 06 81 03 0F 17 07 81 03  10 17 08 81 03 11 17 09  ................
1E10: 81 03 12 17 0A 81 03 13  17 0B 81 03 14 17 05 80  ................
1E20: 03 15 17 05 80 03 16 17  05 80 03 17 17 05 80 03  ................
1E30: 18 17 05 80 03 19 17 05  80 03 1A 17 05 80 03 1B  ................
1E40: 17 05 80 01 96 1E 03 0C  17 04 81 03 0D 17 05 81  ................
1E50: 03 0E 17 06 81 03 0F 17  07 81 03 10 17 08 81 03  ................
1E60: 11 17 09 81 03 12 17 0A  81 03 13 17 05 80 03 14  ................
1E70: 17 05 80 03 15 17 05 80  03 16 17 05 80 03 17 17  ................
1E80: 05 80 03 18 17 05 80 03  19 17 05 80 03 1A 17 05  ................
1E90: 80 03 1B 17 05 80 01 99  1E 03 28 00 0D 81 1A 13  ..........(.....
1EA0: 2F 01 07 2F 02 31 00 16  80 80 EA 21 02 01 00 05  /../.1.....!....
1EB0: 80 80 BD 1F 02 12 00 0F  80 80 0F 1F 03 0C 17 0E  ................
1EC0: 81 03 0D 17 0F 81 03 0E  17 10 81 03 0F 17 11 81  ................
1ED0: 03 10 17 12 81 03 11 17  13 81 03 12 17 14 81 03  ................
1EE0: 13 17 15 81 03 14 17 16  81 03 15 17 17 81 03 16  ................
1EF0: 17 05 80 03 17 17 05 80  03 18 17 05 80 03 19 17  ................
1F00: 05 80 03 1A 17 05 80 03  1B 17 05 80 01 BA 1F 02  ................
1F10: 12 00 10 80 80 6A 1F 03  0C 17 0E 81 03 0D 17 0F  .....j..........
1F20: 81 03 0E 17 10 81 03 0F  17 11 81 03 10 17 12 81  ................
1F30: 03 11 17 13 81 03 12 17  14 81 03 13 17 05 80 03  ................
1F40: 14 17 05 80 03 15 17 05  80 03 16 17 05 80 03 17  ................
1F50: 17 05 80 03 18 17 05 80  03 19 17 05 80 03 1A 17  ................
1F60: 05 80 03 1B 17 05 80 01  BA 1F 03 0C 17 0E 81 03  ................
1F70: 0D 17 0F 81 03 0E 17 10  81 03 0F 17 11 81 03 10  ................
1F80: 17 05 80 03 11 17 05 80  03 12 17 05 80 03 13 17  ................
1F90: 05 80 03 14 17 05 80 03  15 17 05 80 03 16 17 05  ................
1FA0: 80 03 17 17 05 80 03 18  17 05 80 03 19 17 05 80  ................
1FB0: 03 1A 17 05 80 03 1B 17  05 80 01 DF 21 02 01 00  ............!...
1FC0: 0F 80 80 CE 20 02 12 00  0F 80 80 20 20 03 0C 17  .... ......  ...
1FD0: 18 81 03 0D 17 19 81 03  0E 17 1A 81 03 0F 17 1B  ................
1FE0: 81 03 10 17 1C 81 03 11  17 1D 81 03 12 17 05 80  ................
1FF0: 03 13 17 05 80 03 14 17  05 80 03 15 17 05 80 03  ................
2000: 16 17 05 80 03 17 17 05  80 03 18 17 05 80 03 19  ................
2010: 17 05 80 03 1A 17 05 80  03 1B 17 05 80 01 CB 20  ............... 
2020: 02 12 00 10 80 80 7B 20  03 0C 17 18 81 03 0D 17  ......{ ........
2030: 19 81 03 0E 17 1A 81 03  0F 17 1B 81 03 10 17 05  ................
2040: 80 03 11 17 05 80 03 12  17 05 80 03 13 17 05 80  ................
2050: 03 14 17 05 80 03 15 17  05 80 03 16 17 05 80 03  ................
2060: 17 17 05 80 03 18 17 05  80 03 19 17 05 80 03 1A  ................
2070: 17 05 80 03 1B 17 05 80  01 CB 20 03 0C 17 18 81  .......... .....
2080: 03 0D 17 19 81 03 0E 17  05 80 03 0F 17 05 80 03  ................
2090: 10 17 05 80 03 11 17 05  80 03 12 17 05 80 03 13  ................
20A0: 17 05 80 03 14 17 05 80  03 15 17 05 80 03 16 17  ................
20B0: 05 80 03 17 17 05 80 03  18 17 05 80 03 19 17 05  ................
20C0: 80 03 1A 17 05 80 03 1B  17 05 80 01 DF 21 02 01  .............!..
20D0: 00 10 80 80 DF 21 02 12  00 0F 80 80 31 21 03 0C  .....!......1!..
20E0: 17 1E 81 03 0D 17 1F 81  03 0E 17 20 81 03 0F 17  ........... ....
20F0: 21 81 03 10 17 22 81 03  11 17 05 80 03 12 17 05  !...."..........
2100: 80 03 13 17 05 80 03 14  17 05 80 03 15 17 05 80  ................
2110: 03 16 17 05 80 03 17 17  05 80 03 18 17 05 80 03  ................
2120: 19 17 05 80 03 1A 17 05  80 03 1B 17 05 80 01 DC  ................
2130: 21 02 12 00 10 80 80 8C  21 03 0C 17 1E 81 03 0D  !.......!.......
2140: 17 1F 81 03 0E 17 20 81  03 0F 17 21 81 03 10 17  ...... ....!....
2150: 05 80 03 11 17 05 80 03  12 17 05 80 03 13 17 05  ................
2160: 80 03 14 17 05 80 03 15  17 05 80 03 16 17 05 80  ................
2170: 03 17 17 05 80 03 18 17  05 80 03 19 17 05 80 03  ................
2180: 1A 17 05 80 03 1B 17 05  80 01 DC 21 03 0C 17 1E  ...........!....
2190: 81 03 0D 17 1F 81 03 0E  17 05 80 03 0F 17 05 80  ................
21A0: 03 10 17 05 80 03 11 17  05 80 03 12 17 05 80 03  ................
21B0: 13 17 05 80 03 14 17 05  80 03 15 17 05 80 03 16  ................
21C0: 17 05 80 03 17 17 05 80  03 18 17 05 80 03 19 17  ................
21D0: 05 80 03 1A 17 05 80 03  1B 17 05 80 01 DF 21 03  ..............!.
21E0: 28 00 23 81 1A 13 2F 01  07 2F 02 31 00 08 80 80  (.#.../../.1....
21F0: 30 25 02 01 00 05 80 80  03 23 02 12 00 0F 80 80  0%.......#......
2200: 55 22 03 0C 17 24 81 03  0D 17 25 81 03 0E 17 26  U"...$....%....&
2210: 81 03 0F 17 05 80 03 10  17 05 80 03 11 17 05 80  ................
2220: 03 12 17 05 80 03 13 17  05 80 03 14 17 05 80 03  ................
2230: 15 17 05 80 03 16 17 05  80 03 17 17 05 80 03 18  ................
2240: 17 05 80 03 19 17 05 80  03 1A 17 05 80 03 1B 17  ................
2250: 05 80 01 00 23 02 12 00  10 80 80 B0 22 03 0C 17  ....#......."...
2260: 24 81 03 0D 17 25 81 03  0E 17 05 80 03 0F 17 05  $....%..........
2270: 80 03 10 17 05 80 03 11  17 05 80 03 12 17 05 80  ................
2280: 03 13 17 05 80 03 14 17  05 80 03 15 17 05 80 03  ................
2290: 16 17 05 80 03 17 17 05  80 03 18 17 05 80 03 19  ................
22A0: 17 05 80 03 1A 17 05 80  03 1B 17 05 80 01 00 23  ...............#
22B0: 03 0C 17 24 81 03 0D 17  05 80 03 0E 17 05 80 03  ...$............
22C0: 0F 17 05 80 03 10 17 05  80 03 11 17 05 80 03 12  ................
22D0: 17 05 80 03 13 17 05 80  03 14 17 05 80 03 15 17  ................
22E0: 05 80 03 16 17 05 80 03  17 17 05 80 03 18 17 05  ................
22F0: 80 03 19 17 05 80 03 1A  17 05 80 03 1B 17 05 80  ................
2300: 01 25 25 02 01 00 0F 80  80 14 24 02 12 00 0F 80  .%%.......$.....
2310: 80 66 23 03 0C 17 27 81  03 0D 17 28 81 03 0E 17  .f#...'....(....
2320: 29 81 03 0F 17 05 80 03  10 17 05 80 03 11 17 05  )...............
2330: 80 03 12 17 05 80 03 13  17 05 80 03 14 17 05 80  ................
2340: 03 15 17 05 80 03 16 17  05 80 03 17 17 05 80 03  ................
2350: 18 17 05 80 03 19 17 05  80 03 1A 17 05 80 03 1B  ................
2360: 17 05 80 01 11 24 02 12  00 10 80 80 C1 23 03 0C  .....$.......#..
2370: 17 27 81 03 0D 17 28 81  03 0E 17 05 80 03 0F 17  .'....(.........
2380: 05 80 03 10 17 05 80 03  11 17 05 80 03 12 17 05  ................
2390: 80 03 13 17 05 80 03 14  17 05 80 03 15 17 05 80  ................
23A0: 03 16 17 05 80 03 17 17  05 80 03 18 17 05 80 03  ................
23B0: 19 17 05 80 03 1A 17 05  80 03 1B 17 05 80 01 11  ................
23C0: 24 03 0C 17 27 81 03 0D  17 05 80 03 0E 17 05 80  $...'...........
23D0: 03 0F 17 05 80 03 10 17  05 80 03 11 17 05 80 03  ................
23E0: 12 17 05 80 03 13 17 05  80 03 14 17 05 80 03 15  ................
23F0: 17 05 80 03 16 17 05 80  03 17 17 05 80 03 18 17  ................
2400: 05 80 03 19 17 05 80 03  1A 17 05 80 03 1B 17 05  ................
2410: 80 01 25 25 02 01 00 10  80 80 25 25 02 12 00 0F  ..%%......%%....
2420: 80 80 77 24 03 0C 17 2A  81 03 0D 17 2B 81 03 0E  ..w$...*....+...
2430: 17 2C 81 03 0F 17 05 80  03 10 17 05 80 03 11 17  .,..............
2440: 05 80 03 12 17 05 80 03  13 17 05 80 03 14 17 05  ................
2450: 80 03 15 17 05 80 03 16  17 05 80 03 17 17 05 80  ................
2460: 03 18 17 05 80 03 19 17  05 80 03 1A 17 05 80 03  ................
2470: 1B 17 05 80 01 22 25 02  12 00 10 80 80 D2 24 03  ....."%.......$.
2480: 0C 17 2A 81 03 0D 17 2B  81 03 0E 17 05 80 03 0F  ..*....+........
2490: 17 05 80 03 10 17 05 80  03 11 17 05 80 03 12 17  ................
24A0: 05 80 03 13 17 05 80 03  14 17 05 80 03 15 17 05  ................
24B0: 80 03 16 17 05 80 03 17  17 05 80 03 18 17 05 80  ................
24C0: 03 19 17 05 80 03 1A 17  05 80 03 1B 17 05 80 01  ................
24D0: 22 25 03 0C 17 2A 81 03  0D 17 05 80 03 0E 17 05  "%...*..........
24E0: 80 03 0F 17 05 80 03 10  17 05 80 03 11 17 05 80  ................
24F0: 03 12 17 05 80 03 13 17  05 80 03 14 17 05 80 03  ................
2500: 15 17 05 80 03 16 17 05  80 03 17 17 05 80 03 18  ................
2510: 17 05 80 03 19 17 05 80  03 1A 17 05 80 03 1B 17  ................
2520: 05 80 01 25 25 03 28 00  2D 81 1A 13 2F 01 07 2F  ...%%.(.-.../../
2530: 02 31 00 09 80 80 76 28  02 01 00 05 80 80 49 26  .1....v(......I&
2540: 02 12 00 0F 80 80 9B 25  03 0C 17 2E 81 03 0D 17  .......%........
2550: 2F 81 03 0E 17 30 81 03  0F 17 05 80 03 10 17 05  /....0..........
2560: 80 03 11 17 05 80 03 12  17 05 80 03 13 17 05 80  ................
2570: 03 14 17 05 80 03 15 17  05 80 03 16 17 05 80 03  ................
2580: 17 17 05 80 03 18 17 05  80 03 19 17 05 80 03 1A  ................
2590: 17 05 80 03 1B 17 05 80  01 46 26 02 12 00 10 80  .........F&.....
25A0: 80 F6 25 03 0C 17 2E 81  03 0D 17 2F 81 03 0E 17  ..%......../....
25B0: 05 80 03 0F 17 05 80 03  10 17 05 80 03 11 17 05  ................
25C0: 80 03 12 17 05 80 03 13  17 05 80 03 14 17 05 80  ................
25D0: 03 15 17 05 80 03 16 17  05 80 03 17 17 05 80 03  ................
25E0: 18 17 05 80 03 19 17 05  80 03 1A 17 05 80 03 1B  ................
25F0: 17 05 80 01 46 26 03 0C  17 2E 81 03 0D 17 05 80  ....F&..........
2600: 03 0E 17 05 80 03 0F 17  05 80 03 10 17 05 80 03  ................
2610: 11 17 05 80 03 12 17 05  80 03 13 17 05 80 03 14  ................
2620: 17 05 80 03 15 17 05 80  03 16 17 05 80 03 17 17  ................
2630: 05 80 03 18 17 05 80 03  19 17 05 80 03 1A 17 05  ................
2640: 80 03 1B 17 05 80 01 6B  28 02 01 00 0F 80 80 5A  .......k(......Z
2650: 27 02 12 00 0F 80 80 AC  26 03 0C 17 31 81 03 0D  '.......&...1...
2660: 17 32 81 03 0E 17 33 81  03 0F 17 05 80 03 10 17  .2....3.........
2670: 05 80 03 11 17 05 80 03  12 17 05 80 03 13 17 05  ................
2680: 80 03 14 17 05 80 03 15  17 05 80 03 16 17 05 80  ................
2690: 03 17 17 05 80 03 18 17  05 80 03 19 17 05 80 03  ................
26A0: 1A 17 05 80 03 1B 17 05  80 01 57 27 02 12 00 10  ..........W'....
26B0: 80 80 07 27 03 0C 17 31  81 03 0D 17 32 81 03 0E  ...'...1....2...
26C0: 17 05 80 03 0F 17 05 80  03 10 17 05 80 03 11 17  ................
26D0: 05 80 03 12 17 05 80 03  13 17 05 80 03 14 17 05  ................
26E0: 80 03 15 17 05 80 03 16  17 05 80 03 17 17 05 80  ................
26F0: 03 18 17 05 80 03 19 17  05 80 03 1A 17 05 80 03  ................
2700: 1B 17 05 80 01 57 27 03  0C 17 31 81 03 0D 17 05  .....W'...1.....
2710: 80 03 0E 17 05 80 03 0F  17 05 80 03 10 17 05 80  ................
2720: 03 11 17 05 80 03 12 17  05 80 03 13 17 05 80 03  ................
2730: 14 17 05 80 03 15 17 05  80 03 16 17 05 80 03 17  ................
2740: 17 05 80 03 18 17 05 80  03 19 17 05 80 03 1A 17  ................
2750: 05 80 03 1B 17 05 80 01  6B 28 02 01 00 10 80 80  ........k(......
2760: 6B 28 02 12 00 0F 80 80  BD 27 03 0C 17 34 81 03  k(.......'...4..
2770: 0D 17 35 81 03 0E 17 36  81 03 0F 17 05 80 03 10  ..5....6........
2780: 17 05 80 03 11 17 05 80  03 12 17 05 80 03 13 17  ................
2790: 05 80 03 14 17 05 80 03  15 17 05 80 03 16 17 05  ................
27A0: 80 03 17 17 05 80 03 18  17 05 80 03 19 17 05 80  ................
27B0: 03 1A 17 05 80 03 1B 17  05 80 01 68 28 02 12 00  ...........h(...
27C0: 10 80 80 18 28 03 0C 17  34 81 03 0D 17 35 81 03  ....(...4....5..
27D0: 0E 17 05 80 03 0F 17 05  80 03 10 17 05 80 03 11  ................
27E0: 17 05 80 03 12 17 05 80  03 13 17 05 80 03 14 17  ................
27F0: 05 80 03 15 17 05 80 03  16 17 05 80 03 17 17 05  ................
2800: 80 03 18 17 05 80 03 19  17 05 80 03 1A 17 05 80  ................
2810: 03 1B 17 05 80 01 68 28  03 0C 17 34 81 03 0D 17  ......h(...4....
2820: 05 80 03 0E 17 05 80 03  0F 17 05 80 03 10 17 05  ................
2830: 80 03 11 17 05 80 03 12  17 05 80 03 13 17 05 80  ................
2840: 03 14 17 05 80 03 15 17  05 80 03 16 17 05 80 03  ................
2850: 17 17 05 80 03 18 17 05  80 03 19 17 05 80 03 1A  ................
2860: 17 05 80 03 1B 17 05 80  01 6B 28 03 28 00 37 81  .........k(.(.7.
2870: 1A 13 2F 01 07 2F 02 31  00 17 80 80 BC 2B 02 01  ../../.1.....+..
2880: 00 05 80 80 8F 29 02 12  00 0F 80 80 E1 28 03 0C  .....).......(..
2890: 17 38 81 03 0D 17 39 81  03 0E 17 3A 81 03 0F 17  .8....9....:....
28A0: 3B 81 03 10 17 05 80 03  11 17 05 80 03 12 17 05  ;...............
28B0: 80 03 13 17 05 80 03 14  17 05 80 03 15 17 05 80  ................
28C0: 03 16 17 05 80 03 17 17  05 80 03 18 17 05 80 03  ................
28D0: 19 17 05 80 03 1A 17 05  80 03 1B 17 05 80 01 8C  ................
28E0: 29 02 12 00 10 80 80 3C  29 03 0C 17 38 81 03 0D  )......<)...8...
28F0: 17 39 81 03 0E 17 3A 81  03 0F 17 05 80 03 10 17  .9....:.........
2900: 05 80 03 11 17 05 80 03  12 17 05 80 03 13 17 05  ................
2910: 80 03 14 17 05 80 03 15  17 05 80 03 16 17 05 80  ................
2920: 03 17 17 05 80 03 18 17  05 80 03 19 17 05 80 03  ................
2930: 1A 17 05 80 03 1B 17 05  80 01 8C 29 03 0C 17 38  ...........)...8
2940: 81 03 0D 17 39 81 03 0E  17 05 80 03 0F 17 05 80  ....9...........
2950: 03 10 17 05 80 03 11 17  05 80 03 12 17 05 80 03  ................
2960: 13 17 05 80 03 14 17 05  80 03 15 17 05 80 03 16  ................
2970: 17 05 80 03 17 17 05 80  03 18 17 05 80 03 19 17  ................
2980: 05 80 03 1A 17 05 80 03  1B 17 05 80 01 B1 2B 02  ..............+.
2990: 01 00 0F 80 80 A0 2A 02  12 00 0F 80 80 F2 29 03  ......*.......).
29A0: 0C 17 3C 81 03 0D 17 3D  81 03 0E 17 3E 81 03 0F  ..<....=....>...
29B0: 17 3F 81 03 10 17 05 80  03 11 17 05 80 03 12 17  .?..............
29C0: 05 80 03 13 17 05 80 03  14 17 05 80 03 15 17 05  ................
29D0: 80 03 16 17 05 80 03 17  17 05 80 03 18 17 05 80  ................
29E0: 03 19 17 05 80 03 1A 17  05 80 03 1B 17 05 80 01  ................
29F0: 9D 2A 02 12 00 10 80 80  4D 2A 03 0C 17 3C 81 03  .*......M*...<..
2A00: 0D 17 3D 81 03 0E 17 3E  81 03 0F 17 05 80 03 10  ..=....>........
2A10: 17 05 80 03 11 17 05 80  03 12 17 05 80 03 13 17  ................
2A20: 05 80 03 14 17 05 80 03  15 17 05 80 03 16 17 05  ................
2A30: 80 03 17 17 05 80 03 18  17 05 80 03 19 17 05 80  ................
2A40: 03 1A 17 05 80 03 1B 17  05 80 01 9D 2A 03 0C 17  ............*...
2A50: 3C 81 03 0D 17 3D 81 03  0E 17 05 80 03 0F 17 05  <....=..........
2A60: 80 03 10 17 05 80 03 11  17 05 80 03 12 17 05 80  ................
2A70: 03 13 17 05 80 03 14 17  05 80 03 15 17 05 80 03  ................
2A80: 16 17 05 80 03 17 17 05  80 03 18 17 05 80 03 19  ................
2A90: 17 05 80 03 1A 17 05 80  03 1B 17 05 80 01 B1 2B  ...............+
2AA0: 02 01 00 10 80 80 B1 2B  02 12 00 0F 80 80 03 2B  .......+.......+
2AB0: 03 0C 17 40 81 03 0D 17  41 81 03 0E 17 42 81 03  ...@....A....B..
2AC0: 0F 17 43 81 03 10 17 05  80 03 11 17 05 80 03 12  ..C.............
2AD0: 17 05 80 03 13 17 05 80  03 14 17 05 80 03 15 17  ................
2AE0: 05 80 03 16 17 05 80 03  17 17 05 80 03 18 17 05  ................
2AF0: 80 03 19 17 05 80 03 1A  17 05 80 03 1B 17 05 80  ................
2B00: 01 AE 2B 02 12 00 10 80  80 5E 2B 03 0C 17 40 81  ..+......^+...@.
2B10: 03 0D 17 41 81 03 0E 17  42 81 03 0F 17 05 80 03  ...A....B.......
2B20: 10 17 05 80 03 11 17 05  80 03 12 17 05 80 03 13  ................
2B30: 17 05 80 03 14 17 05 80  03 15 17 05 80 03 16 17  ................
2B40: 05 80 03 17 17 05 80 03  18 17 05 80 03 19 17 05  ................
2B50: 80 03 1A 17 05 80 03 1B  17 05 80 01 AE 2B 03 0C  .............+..
2B60: 17 40 81 03 0D 17 41 81  03 0E 17 05 80 03 0F 17  .@....A.........
2B70: 05 80 03 10 17 05 80 03  11 17 05 80 03 12 17 05  ................
2B80: 80 03 13 17 05 80 03 14  17 05 80 03 15 17 05 80  ................
2B90: 03 16 17 05 80 03 17 17  05 80 03 18 17 05 80 03  ................
2BA0: 19 17 05 80 03 1A 17 05  80 03 1B 17 05 80 01 B1  ................
2BB0: 2B 03 28 00 44 81 1A 13  2F 01 07 2F 02 31 00 18  +.(.D.../../.1..
2BC0: 80 80 02 2F 02 01 00 05  80 80 D5 2C 02 12 00 0F  .../.......,....
2BD0: 80 80 27 2C 03 0C 17 45  81 03 0D 17 05 80 03 0E  ..',...E........
2BE0: 17 05 80 03 0F 17 05 80  03 10 17 05 80 03 11 17  ................
2BF0: 05 80 03 12 17 05 80 03  13 17 05 80 03 14 17 05  ................
2C00: 80 03 15 17 05 80 03 16  17 05 80 03 17 17 05 80  ................
2C10: 03 18 17 05 80 03 19 17  05 80 03 1A 17 05 80 03  ................
2C20: 1B 17 05 80 01 D2 2C 02  12 00 10 80 80 82 2C 03  ......,.......,.
2C30: 0C 17 05 80 03 0D 17 05  80 03 0E 17 05 80 03 0F  ................
2C40: 17 05 80 03 10 17 05 80  03 11 17 05 80 03 12 17  ................
2C50: 05 80 03 13 17 05 80 03  14 17 05 80 03 15 17 05  ................
2C60: 80 03 16 17 05 80 03 17  17 05 80 03 18 17 05 80  ................
2C70: 03 19 17 05 80 03 1A 17  05 80 03 1B 17 05 80 01  ................
2C80: D2 2C 03 0C 17 05 80 03  0D 17 05 80 03 0E 17 05  .,..............
2C90: 80 03 0F 17 05 80 03 10  17 05 80 03 11 17 05 80  ................
2CA0: 03 12 17 05 80 03 13 17  05 80 03 14 17 05 80 03  ................
2CB0: 15 17 05 80 03 16 17 05  80 03 17 17 05 80 03 18  ................
2CC0: 17 05 80 03 19 17 05 80  03 1A 17 05 80 03 1B 17  ................
2CD0: 05 80 01 F7 2E 02 01 00  0F 80 80 E6 2D 02 12 00  ............-...
2CE0: 0F 80 80 38 2D 03 0C 17  46 81 03 0D 17 05 80 03  ...8-...F.......
2CF0: 0E 17 05 80 03 0F 17 05  80 03 10 17 05 80 03 11  ................
2D00: 17 05 80 03 12 17 05 80  03 13 17 05 80 03 14 17  ................
2D10: 05 80 03 15 17 05 80 03  16 17 05 80 03 17 17 05  ................
2D20: 80 03 18 17 05 80 03 19  17 05 80 03 1A 17 05 80  ................
2D30: 03 1B 17 05 80 01 E3 2D  02 12 00 10 80 80 93 2D  .......-.......-
2D40: 03 0C 17 05 80 03 0D 17  05 80 03 0E 17 05 80 03  ................
2D50: 0F 17 05 80 03 10 17 05  80 03 11 17 05 80 03 12  ................
2D60: 17 05 80 03 13 17 05 80  03 14 17 05 80 03 15 17  ................
2D70: 05 80 03 16 17 05 80 03  17 17 05 80 03 18 17 05  ................
2D80: 80 03 19 17 05 80 03 1A  17 05 80 03 1B 17 05 80  ................
2D90: 01 E3 2D 03 0C 17 05 80  03 0D 17 05 80 03 0E 17  ..-.............
2DA0: 05 80 03 0F 17 05 80 03  10 17 05 80 03 11 17 05  ................
2DB0: 80 03 12 17 05 80 03 13  17 05 80 03 14 17 05 80  ................
2DC0: 03 15 17 05 80 03 16 17  05 80 03 17 17 05 80 03  ................
2DD0: 18 17 05 80 03 19 17 05  80 03 1A 17 05 80 03 1B  ................
2DE0: 17 05 80 01 F7 2E 02 01  00 10 80 80 F7 2E 02 12  ................
2DF0: 00 0F 80 80 49 2E 03 0C  17 47 81 03 0D 17 05 80  ....I....G......
2E00: 03 0E 17 05 80 03 0F 17  05 80 03 10 17 05 80 03  ................
2E10: 11 17 05 80 03 12 17 05  80 03 13 17 05 80 03 14  ................
2E20: 17 05 80 03 15 17 05 80  03 16 17 05 80 03 17 17  ................
2E30: 05 80 03 18 17 05 80 03  19 17 05 80 03 1A 17 05  ................
2E40: 80 03 1B 17 05 80 01 F4  2E 02 12 00 10 80 80 A4  ................
2E50: 2E 03 0C 17 05 80 03 0D  17 05 80 03 0E 17 05 80  ................
2E60: 03 0F 17 05 80 03 10 17  05 80 03 11 17 05 80 03  ................
2E70: 12 17 05 80 03 13 17 05  80 03 14 17 05 80 03 15  ................
2E80: 17 05 80 03 16 17 05 80  03 17 17 05 80 03 18 17  ................
2E90: 05 80 03 19 17 05 80 03  1A 17 05 80 03 1B 17 05  ................
2EA0: 80 01 F4 2E 03 0C 17 05  80 03 0D 17 05 80 03 0E  ................
2EB0: 17 05 80 03 0F 17 05 80  03 10 17 05 80 03 11 17  ................
2EC0: 05 80 03 12 17 05 80 03  13 17 05 80 03 14 17 05  ................
2ED0: 80 03 15 17 05 80 03 16  17 05 80 03 17 17 05 80  ................
2EE0: 03 18 17 05 80 03 19 17  05 80 03 1A 17 05 80 03  ................
2EF0: 1B 17 05 80 01 F7 2E 03  28 00 48 81 1A 13 2F 01  ........(.H.../.
2F00: 07 2F 03 01 10 29 80 02  29 00 0F 80 00 12 2F 01  ./...)..)...../.
2F10: BB 0D 1B 02 0C 17 05 80  00 2D 2F 1D 49 81 23 05  .........-/.I.#.
2F20: 29 00 06 30 00 03 01 10  29 80 01 B8 30 02 2A 00  )..0....)...0.*.
2F30: 05 80 00 60 2F 03 02 10  0C 17 03 03 10 0D 17 03  ...`/...........
2F40: 04 10 0E 17 03 05 10 0F  17 03 06 10 10 17 03 07  ................
2F50: 10 11 17 03 08 10 12 17  03 09 10 13 17 01 88 2F  .............../
2F60: 03 02 10 14 17 03 03 10  15 17 03 04 10 16 17 03  ................
2F70: 05 10 17 17 03 06 10 18  17 03 07 10 19 17 03 08  ................
2F80: 10 1A 17 03 09 10 1B 17  02 02 10 05 80 00 98 2F  .............../
2F90: 03 25 00 05 80 01 0D 30  02 03 10 05 80 00 A8 2F  .%.....0......./
2FA0: 03 25 00 0F 80 01 0D 30  02 04 10 05 80 00 B8 2F  .%.....0......./
2FB0: 03 25 00 10 80 01 0D 30  02 05 10 05 80 00 C8 2F  .%.....0......./
2FC0: 03 25 00 06 80 01 0D 30  02 06 10 05 80 00 D8 2F  .%.....0......./
2FD0: 03 25 00 07 80 01 0D 30  02 07 10 05 80 00 E8 2F  .%.....0......./
2FE0: 03 25 00 11 80 01 0D 30  02 08 10 05 80 00 F8 2F  .%.....0......./
2FF0: 03 25 00 16 80 01 0D 30  02 09 10 05 80 00 08 30  .%.....0.......0
3000: 03 25 00 08 80 01 0D 30  03 25 00 09 80 03 26 00  .%.....0.%....&.
3010: 22 80 06 27 00 02 27 00  25 00 03 2D 30 3D 26 00  "..'..'.%..-0=&.
3020: 27 00 0F 80 0B 27 00 1C  0F 80 01 15 30 02 2A 00  '....'......0.*.
3030: 05 80 00 4E 30 3D 26 00  18 80 0F 80 02 14 17 05  ...N0=&.........
3040: 80 01 4B 30 3D 26 00 09  80 0F 80 01 5C 30 3D 26  ..K0=&......\0=&
3050: 00 17 80 0F 80 3C 26 00  18 80 0F 80 24 4A 81 32  .....<&.....$J.2
3060: 00 26 00 25 02 00 10 09  80 00 75 30 05 2A 00 01  .&.%......u0.*..
3070: 13 2F 01 B8 30 02 00 10  17 80 00 86 30 06 2A 00  ./..0.......0.*.
3080: 01 13 2F 01 B8 30 02 00  10 18 80 00 9C 30 05 29  ../..0.......0.)
3090: 00 06 30 00 03 01 10 29  80 01 B8 30 03 32 00 00  ..0....)...0.2..
30A0: 10 03 01 10 00 10 02 2A  00 0F 80 00 B3 30 07 01  .......*.....0..
30B0: 10 09 80 07 01 10 28 00  02 28 00 05 80 80 C8 30  ......(..(.....0
30C0: 03 24 00 0F 80 01 58 31  02 28 00 0B 80 80 D8 30  .$....X1.(.....0
30D0: 03 24 00 10 80 01 58 31  02 28 00 DE 80 80 E8 30  .$....X1.(.....0
30E0: 03 24 00 06 80 01 58 31  02 28 00 F3 80 80 F8 30  .$....X1.(.....0
30F0: 03 24 00 07 80 01 58 31  02 28 00 0D 81 80 08 31  .$....X1.(.....1
3100: 03 24 00 11 80 01 58 31  02 28 00 23 81 80 18 31  .$....X1.(.#...1
3110: 03 24 00 16 80 01 58 31  02 28 00 2D 81 80 28 31  .$....X1.(.-..(1
3120: 03 24 00 08 80 01 58 31  02 28 00 37 81 80 38 31  .$....X1.(.7..81
3130: 03 24 00 09 80 01 58 31  02 28 00 44 81 80 48 31  .$....X1.(.D..H1
3140: 03 24 00 17 80 01 58 31  02 28 00 48 81 80 58 31  .$....X1.(.H..X1
3150: 03 24 00 18 80 01 58 31  1B 1A B7 32 03 28 00 2A  .$....X1...2.(.*
3160: 80 03 02 10 0C 17 03 03  10 0D 17 03 04 10 0E 17  ................
3170: 03 05 10 0F 17 03 06 10  10 17 03 07 10 11 17 03  ................
3180: 08 10 12 17 03 09 10 13  17 03 00 17 14 17 03 01  ................
3190: 17 15 17 03 02 17 16 17  03 03 17 17 17 03 04 17  ................
31A0: 18 17 03 05 17 19 17 03  06 17 1A 17 03 07 17 1B  ................
31B0: 17 03 26 00 22 80 02 02  10 05 80 01 C5 31 3D 26  ..&."........1=&
31C0: 00 05 80 0F 80 02 03 10  05 80 01 D4 31 3D 26 00  ............1=&.
31D0: 0F 80 0F 80 02 04 10 05  80 01 E3 31 3D 26 00 10  ...........1=&..
31E0: 80 0F 80 02 05 10 05 80  01 F2 31 3D 26 00 06 80  ..........1=&...
31F0: 0F 80 02 06 10 05 80 01  01 32 3D 26 00 07 80 0F  .........2=&....
3200: 80 02 07 10 05 80 01 10  32 3D 26 00 11 80 0F 80  ........2=&.....
3210: 02 08 10 05 80 01 1F 32  3D 26 00 16 80 0F 80 02  .......2=&......
3220: 09 10 05 80 01 2E 32 3D  26 00 08 80 0F 80 02 2A  ......2=&......*
3230: 00 05 80 00 47 32 3D 26  00 09 80 0F 80 3D 26 00  ....G2=&.....=&.
3240: 18 80 0F 80 01 55 32 3D  26 00 17 80 0F 80 3C 26  .....U2=&.....<&
3250: 00 18 80 0F 80 24 4B 81  32 00 26 00 25 02 00 10  .....$K.2.&.%...
3260: 09 80 00 6E 32 05 2A 00  01 59 31 01 B1 32 02 00  ...n2.*..Y1..2..
3270: 10 17 80 00 7F 32 06 2A  00 01 59 31 01 B1 32 02  .....2.*..Y1..2.
3280: 00 10 18 80 00 95 32 05  29 00 06 30 00 03 01 10  ......2.)..0....
3290: 29 80 01 B1 32 03 32 00  00 10 03 01 10 00 10 02  )...2.2.........
32A0: 2A 00 0F 80 00 AC 32 07  01 10 09 80 07 01 10 28  *.....2........(
32B0: 00 03 24 00 05 80 1B 1A  87 34 06 37 00 06 38 00  ..$......4.7..8.
32C0: 06 39 00 02 37 00 09 80  03 40 33 03 39 00 2A 00  .9..7....@3.9.*.
32D0: 14 39 00 09 80 07 39 00  37 00 06 3A 00 9D 00 25  .9....9.7..:...%
32E0: 35 38 00 39 00 02 38 00  05 80 02 FD 32 0C 38 00  58.9..8.....2.8.
32F0: 3E 36 00 38 00 FA 32 01  FD 32 05 3A 00 02 3A 00  >6.8..2..2.:..:.
3300: 05 80 00 32 33 9D 00 E5  34 38 00 39 00 9D 05 45  ...23...48.9...E
3310: 35 38 00 37 00 9D 00 05  35 38 00 39 00 03 39 00  58.7....58.9..9.
3320: 09 80 07 39 00 37 00 9D  05 45 35 38 00 39 00 01  ...9.7...E58.9..
3330: 3A 33 9D 05 45 35 05 80  37 00 0B 37 00 01 C3 32  :3..E5..7..7...2
3340: 02 2A 00 05 80 80 C8 33  03 10 17 05 80 02 07 00  .*.....3........
3350: 18 80 00 8D 33 02 01 00  05 00 00 8D 33 02 01 00  ....3.......3...
3360: 05 80 80 6D 33 03 10 17  4C 81 01 8D 33 02 01 00  ...m3...L...3...
3370: 0F 80 80 7D 33 03 10 17  4D 81 01 8D 33 02 01 00  ...}3...M...3...
3380: 10 80 80 8D 33 03 10 17  4E 81 01 8D 33 03 18 17  ....3...N...3...
3390: 4F 81 02 01 00 05 00 01  AE 33 03 11 17 05 80 03  O........3......
33A0: 19 17 05 80 03 12 17 05  80 03 1A 17 05 80 02 34  ...............4
33B0: 00 05 80 01 C5 33 03 19  17 05 80 03 1A 17 05 80  .....3..........
33C0: 03 1B 17 05 80 01 86 34  02 2A 00 0F 80 80 86 34  .......4.*.....4
33D0: 03 10 17 05 80 02 07 00  07 80 04 15 34 02 01 00  ............4...
33E0: 05 00 00 15 34 02 01 00  05 80 80 F5 33 03 10 17  ....4.......3...
33F0: 50 81 01 15 34 02 01 00  0F 80 80 05 34 03 10 17  P...4.......4...
3400: 51 81 01 15 34 02 01 00  10 80 80 15 34 03 10 17  Q...4.......4...
3410: 52 81 01 15 34 03 18 17  53 81 03 11 17 05 80 02  R...4...S.......
3420: 07 00 16 80 04 34 34 02  01 00 05 00 00 34 34 03  .....44......44.
3430: 11 17 54 81 03 19 17 55  81 03 13 17 05 80 02 07  ..T....U........
3440: 00 18 80 04 7E 34 02 01  00 05 00 00 7E 34 02 01  ....~4......~4..
3450: 00 05 80 80 5E 34 03 13  17 56 81 01 7E 34 02 01  ....^4...V..~4..
3460: 00 0F 80 80 6E 34 03 13  17 57 81 01 7E 34 02 01  ....n4...W..~4..
3470: 00 10 80 80 7E 34 03 13  17 58 81 01 7E 34 03 1B  ....~4...X..~4..
3480: 17 59 81 01 86 34 1B 06  37 00 02 37 00 0B 80 03  .Y...4..7..7....
3490: A0 34 9D 05 45 35 05 80  37 00 0B 37 00 01 8A 34  .4..E5..7..7...4
34A0: 1B 06 08 00 02 02 00 08  80 00 B5 34 40 05 80 05  ...........4@...
34B0: 80 08 00 0F 80 40 10 80  10 80 08 00 0F 80 40 06  .....@........@.
34C0: 80 06 80 08 00 0F 80 40  07 80 07 80 08 00 0F 80  .......@........
34D0: 40 11 80 11 80 08 00 0F  80 1B 03 09 10 14 00 08  @...............
34E0: 09 10 11 80 1B 5A 81 5B  81 5C 81 5D 81 05 80 2D  .....Z.[.\.]...-
34F0: 80 32 80 34 80 5E 81 5F  81 60 81 61 81 50 81 54  .2.4.^._.`.a.P.T
3500: 81 62 81 56 81 08 80 18  80 63 81 64 81 05 80 65  .b.V.....c.d...e
3510: 81 66 81 67 81 4F 81 66  81 66 81 66 81 53 81 55  .f.g.O.f.f.f.S.U
3520: 81 66 81 59 81 05 80 05  80 05 80 05 80 05 80 05  .f.Y............
3530: 80 05 80 05 80 05 80 0F  80 10 80 06 80 05 80 05  ................
3540: 80 07 80 05 80 0C 17 0D  17 0E 17 0F 17 10 17 11  ................
3550: 17 12 17 13 17 14 17 15  17 16 17 17 17 18 17 19  ................
3560: 17 1A 17 1B 17                                    .....           
```

#### Opcodes

```
  0: 0x001A [0x1A] CALL_SUBROUTINE(address=0x001E)
  1: 0x001D [0x00] END_REQSTACK()

SUBROUTINE_001E:
  2: 0x001E [0x20] SET_CLI_EVENT_UC_FLAG: Lock player control
  3: 0x0020 [0x1E] EventEntity looks at LocalPlayer and starts talking
  4: 0x0025 [0x6F] WAIT_FRAME_DELAY: Yield until WaitTime reaches zero
  5: 0x0026 [0x70] WAIT_ENTITY_RENDER_FLAG: Wait while EventEntity->Render.Flags3 bit 2 is set (cancel turn if not)
  6: 0x0027 [0x41] ExtData[1]->WorkLocal[0] = Work_Zone[2] (bits 0*-3*)
  7: 0x0030 [0x41] ExtData[1]->WorkLocal[1] = Work_Zone[2] (bits 4*-7*)
  8: 0x0039 [0x41] ExtData[1]->WorkLocal[2] = Work_Zone[2] (bits 8*-15*)
  9: 0x0042 [0x41] ExtData[1]->WorkLocal[44] = Work_Zone[2] (bits 16*-16*)
 10: 0x004B [0x41] ExtData[1]->WorkLocal[52] = Work_Zone[2] (bits 17*-17*)
 11: 0x0054 [0x41] ExtData[1]->WorkLocal[54] = Work_Zone[2] (bits 18*-21*)
 12: 0x005D [0x03] ExtData[1]->WorkLocal[20] = Work_Zone[3]
 13: 0x0062 [0x41] ExtData[1]->WorkLocal[15] = Work_Zone[4] (bits 0*-1*)
 14: 0x006B [0x41] ExtData[1]->WorkLocal[16] = Work_Zone[4] (bits 2*-3*)
 15: 0x0074 [0x41] ExtData[1]->WorkLocal[17] = Work_Zone[4] (bits 4*-5*)
 16: 0x007D [0x41] ExtData[1]->WorkLocal[25] = Work_Zone[4] (bits 16*-17*)
 17: 0x0086 [0x41] ExtData[1]->WorkLocal[26] = Work_Zone[4] (bits 18*-19*)
 18: 0x008F [0x41] ExtData[1]->WorkLocal[27] = Work_Zone[4] (bits 20*-21*)
 19: 0x0098 [0x41] ExtData[1]->WorkLocal[29] = Work_Zone[4] (bits 22*-22*)
 20: 0x00A1 [0x41] ExtData[1]->WorkLocal[30] = Work_Zone[4] (bits 23*-23*)
 21: 0x00AA [0x03] ExtData[1]->WorkLocal[3] = Work_Zone[5]
 22: 0x00AF [0x02] IF !(ExtData[1]->WorkLocal[0] == 1*) GOTO 0x00BF
 23: 0x00B7 [0x03] ExtData[1]->WorkLocal[53] = Work_Zone[6]
 24: 0x00BC [0x01] GOTO 0x00C4
 25: 0x00BF [0x03] ExtData[1]->WorkLocal[4] = Work_Zone[6]

SUBROUTINE_00C4:
 26: 0x00C4 [0x41] ExtData[1]->WorkLocal[7] = Work_Zone[7] (bits 0*-4*)
 27: 0x00CD [0x41] ExtData[1]->WorkLocal[5] = Work_Zone[7] (bits 5*-6*)
 28: 0x00D6 [0x03] ExtData[1]->WorkLocal[6] = Work_Zone[8]
 29: 0x00DB [0x41] ExtData[1]->WorkLocal[45] = Work_Zone[9] (bits 5*-9*)
 30: 0x00E4 [0x41] ExtData[1]->WorkLocal[24] = Work_Zone[9] (bits 10*-10*)
 31: 0x00ED [0x41] ExtData[1]->WorkLocal[33] = Work_Zone[9] (bits 30*-30*)
 32: 0x00F6 [0x41] ExtData[1]->WorkLocal[21] = Work_Zone[9] (bits 31*-31*)
 33: 0x00FF [0x02] IF !(ExtData[1]->WorkLocal[5] == 0*) GOTO 0x010F
 34: 0x0107 [0x03] ExtData[1]->WorkLocal[28] = ExtData[1]->WorkLocal[25]
 35: 0x010C [0x01] GOTO 0x012F
 36: 0x010F [0x02] IF !(ExtData[1]->WorkLocal[5] == 1*) GOTO 0x011F
 37: 0x0117 [0x03] ExtData[1]->WorkLocal[28] = ExtData[1]->WorkLocal[26]
 38: 0x011C [0x01] GOTO 0x012F
 39: 0x011F [0x02] IF !(ExtData[1]->WorkLocal[5] == 2*) GOTO 0x012F
 40: 0x0127 [0x03] ExtData[1]->WorkLocal[28] = ExtData[1]->WorkLocal[27]
 41: 0x012C [0x01] GOTO 0x012F

SUBROUTINE_012F:
 42: 0x012F [0x02] IF !(ExtData[1]->WorkLocal[0] == 1*) GOTO 0x0942
 43: 0x0137 [0x06] ExtData[1]->WorkLocal[18] = 0
 44: 0x013A [0x06] ExtData[1]->WorkLocal[19] = 0
 45: 0x013D [0x02] IF !(ExtData[1]->WorkLocal[5] == ExtData[1]->WorkLocal[1]) GOTO 0x0175
 46: 0x0145 [0x02] IF !(ExtData[1]->WorkLocal[5] == 0*) GOTO 0x0155
 47: 0x014D [0x03] ExtData[1]->WorkLocal[19] = ExtData[1]->WorkLocal[15]
 48: 0x0152 [0x01] GOTO 0x0175
 49: 0x0155 [0x02] IF !(ExtData[1]->WorkLocal[5] == 1*) GOTO 0x0165
 50: 0x015D [0x03] ExtData[1]->WorkLocal[19] = ExtData[1]->WorkLocal[16]
 51: 0x0162 [0x01] GOTO 0x0175
 52: 0x0165 [0x02] IF !(ExtData[1]->WorkLocal[5] == 2*) GOTO 0x0175
 53: 0x016D [0x03] ExtData[1]->WorkLocal[19] = ExtData[1]->WorkLocal[17]
 54: 0x0172 [0x01] GOTO 0x0175

SUBROUTINE_0175:
 55: 0x0175 [0x03] ExtData[1]->WorkLocal[18] = ExtData[1]->WorkLocal[19]
 56: 0x017A [0x02] IF !(ExtData[1]->WorkLocal[10] == 0*) GOTO 0x01B2
 57: 0x0182 [0x02] IF !(ExtData[1]->WorkLocal[1] == 0*) GOTO 0x0191
 58: 0x018A [0x1D] PRINT_EVENT_MESSAGE(message_id=7824*)
    → "I am %, a Temple Knight. I am one of the guards charged with overseeing San d'Oria's conquest campaign."
 59: 0x018D [0x23] WAIT_FOR_DIALOG_INTERACTION
 60: 0x018E [0x01] GOTO 0x01AF
 61: 0x0191 [0x02] IF !(ExtData[1]->WorkLocal[1] == 1*) GOTO 0x01A0
 62: 0x0199 [0x1D] PRINT_EVENT_MESSAGE(message_id=7825*)
    → "I am %, an Iron Musketeer. I am one of the guards charged with overseeing Bastok's conquest campaign."
 63: 0x019C [0x23] WAIT_FOR_DIALOG_INTERACTION
 64: 0x019D [0x01] GOTO 0x01AF
 65: 0x01A0 [0x02] IF !(ExtData[1]->WorkLocal[1] == 2*) GOTO 0x01AF
 66: 0x01A8 [0x1D] PRINT_EVENT_MESSAGE(message_id=7826*)
    → "I am %, a War Warlock. I am one of the guards charged with overseeing Windurst's conquest campaign."
 67: 0x01AB [0x23] WAIT_FOR_DIALOG_INTERACTION
 68: 0x01AC [0x01] GOTO 0x01AF

SUBROUTINE_01AF:
 69: 0x01AF [0x01] GOTO 0x01B6
 70: 0x01B2 [0x1D] PRINT_EVENT_MESSAGE(message_id=7963*)
    → "I am Jeunoan Ducal Guard, %. My duty is to support the conquest efforts of Windurst, San d'Oria, and Bastok."
 71: 0x01B5 [0x23] WAIT_FOR_DIALOG_INTERACTION

SUBROUTINE_01B6:
