# 17739815 - Salimah

## Common Data

| Field            | Value                    |
|------------------|--------------------------|
| Zone             | Bastok Markets (ID: 235) |
| Block Size       | 184 bytes                |
| Total Events     | 6                        |
| References Count | 8                        |

## List of Events

| Event ID              | Entrypoint   |   Size |   Instructions |
|-----------------------|--------------|--------|----------------|
| [65535](#event-65535) | 0x0000       |      1 |              1 |
| [121](#event-121)     | 0x0001       |     11 |              5 |
| [200](#event-200)     | 0x000C       |     39 |             11 |
| [202](#event-202)     | 0x0033       |     29 |              7 |
| [203](#event-203)     | 0x0050       |     29 |              7 |

## DAT References (imed_data)

|   Index | Hex Value   |   Dec Value |
|---------|-------------|-------------|
|       0 | 0x1D77      |        7543 |
|       1 | 0x1D6E      |        7534 |
|       2 | 0x0000      |           0 |
|       3 | 0x1D6F      |        7535 |
|       4 | 0x1D70      |        7536 |
|       5 | 0x1D75      |        7541 |
|       6 | 0x00C9      |         201 |
|       7 | 0x1D76      |        7542 |

## String References

- **7534**: You look surprised. You find it unusual to see a lady of high birth standing in her own kitchen, perhaps?
- **7535**: I believe that cooking is a refined hobby worthy of one such as me. I only use the best ingredients gil can buy, of course.
- **7536**: Well now, what should I make today? Oh, I have not done the groceries yet...do you happen to have anything to spare?
- **7541**: %! Why, that's just what I need to make this dish! Here's something for your trouble.
- **7542**: Oh, $0. I guess this will do. Here, let me pay you.
- **7543**: Thanks to you, I'll make the best dish yet!

## Events

### Event 65535

#### Metadata

| Field        | Value   |
|--------------|---------|
| Entrypoint   | 0x0000  |
| Data Size    | 1 bytes |
| Instructions | 1       |

```
      00 01 02 03 04 05 06 07  08 09 0A 0B 0C 0D 0E 0F
      -- -- -- -- -- -- -- --  -- -- -- -- -- -- -- --
0000: 00                                                .               
```

#### Opcodes

```
  0: 0x0000 [0x00] END_REQSTACK()
```

### Event 121

#### Metadata

| Field        | Value    |
|--------------|----------|
| Entrypoint   | 0x0001   |
| Data Size    | 11 bytes |
| Instructions | 5        |

```
      00 01 02 03 04 05 06 07  08 09 0A 0B 0C 0D 0E 0F
      -- -- -- -- -- -- -- --  -- -- -- -- -- -- -- --
0000:    1E F0 FF FF 7F 1D 00  80 23 21 00               ........#!.    
```

#### Opcodes

```
  0: 0x0001 [0x1E] EventEntity looks at LocalPlayer and starts talking
  1: 0x0006 [0x1D] PRINT_EVENT_MESSAGE(message_id=7543*)
    → "Thanks to you, I'll make the best dish yet!"
  2: 0x0009 [0x23] WAIT_FOR_DIALOG_INTERACTION
  3: 0x000A [0x21] END_EVENT
  4: 0x000B [0x00] END_REQSTACK()
```

### Event 200

#### Metadata

| Field        | Value    |
|--------------|----------|
| Entrypoint   | 0x000C   |
| Data Size    | 39 bytes |
| Instructions | 11       |

```
      00 01 02 03 04 05 06 07  08 09 0A 0B 0C 0D 0E 0F
      -- -- -- -- -- -- -- --  -- -- -- -- -- -- -- --
0000:                                      1E F0 FF FF              ....
0010: 7F 1D 01 80 23 5B 02 80  F8 FF FF 7F F8 FF FF 7F  ....#[..........
0020: 74 6C 6B 30 1D 03 80 23  5E 69 64 6C 30 1D 04 80  tlk0...#^idl0...
0030: 23 21 00                                          #!.             
```

#### Opcodes

```
  0: 0x000C [0x1E] EventEntity looks at LocalPlayer and starts talking
  1: 0x0011 [0x1D] PRINT_EVENT_MESSAGE(message_id=7534*)
    → "You look surprised. You find it unusual to see a lady of high birth standing in her own kitchen, perhaps?"
  2: 0x0014 [0x23] WAIT_FOR_DIALOG_INTERACTION
  3: 0x0015 [0x5B] LOAD_EXT_SCHEDULER: Load scheduler "tlk0" with entities [EventEntity, EventEntity], work=0*
  4: 0x0024 [0x1D] PRINT_EVENT_MESSAGE(message_id=7535*)
    → "I believe that cooking is a refined hobby worthy of one such as me. I only use the best ingredients gil can buy, of course."
  5: 0x0027 [0x23] WAIT_FOR_DIALOG_INTERACTION
  6: 0x0028 [0x5E] EventEntity goes idle (kills current action) (animation: "idl0")
  7: 0x002D [0x1D] PRINT_EVENT_MESSAGE(message_id=7536*)
    → "Well now, what should I make today? Oh, I have not done the groceries yet...do you happen to have anything to spare?"
  8: 0x0030 [0x23] WAIT_FOR_DIALOG_INTERACTION
  9: 0x0031 [0x21] END_EVENT
 10: 0x0032 [0x00] END_REQSTACK()
```

### Event 202

#### Metadata

| Field        | Value    |
|--------------|----------|
| Entrypoint   | 0x0033   |
| Data Size    | 29 bytes |
| Instructions | 7        |

```
      00 01 02 03 04 05 06 07  08 09 0A 0B 0C 0D 0E 0F
      -- -- -- -- -- -- -- --  -- -- -- -- -- -- -- --
0030:          42 1E F0 FF FF  7F 1D 05 80 23 45 06 80     B........#E..
0040: F0 FF FF 7F F0 FF FF 7F  71 73 74 63 02 80 21 00  ........qstc..!.
```

#### Opcodes

```
  0: 0x0033 [0x42] SET_CLI_EVENT_CANCEL_DATA()
  1: 0x0034 [0x1E] EventEntity looks at LocalPlayer and starts talking
  2: 0x0039 [0x1D] PRINT_EVENT_MESSAGE(message_id=7541*)
    → "%! Why, that's just what I need to make this dish! Here's something for your trouble."
  3: 0x003C [0x23] WAIT_FOR_DIALOG_INTERACTION
  4: 0x003D [0x45] LOAD_SCHEDULED_TASK: Load scheduler "qstc" with entities [LocalPlayer, LocalPlayer], work=[201*, 0*]
  5: 0x004E [0x21] END_EVENT
  6: 0x004F [0x00] END_REQSTACK()
```

### Event 203

#### Metadata

| Field        | Value    |
|--------------|----------|
| Entrypoint   | 0x0050   |
| Data Size    | 29 bytes |
| Instructions | 7        |

```
      00 01 02 03 04 05 06 07  08 09 0A 0B 0C 0D 0E 0F
      -- -- -- -- -- -- -- --  -- -- -- -- -- -- -- --
0050: 42 1E F0 FF FF 7F 1D 07  80 23 45 06 80 F0 FF FF  B........#E.....
0060: 7F F0 FF FF 7F 71 73 74  63 02 80 21 00           .....qstc..!.   
```

#### Opcodes

```
  0: 0x0050 [0x42] SET_CLI_EVENT_CANCEL_DATA()
  1: 0x0051 [0x1E] EventEntity looks at LocalPlayer and starts talking
  2: 0x0056 [0x1D] PRINT_EVENT_MESSAGE(message_id=7542*)
    → "Oh, $0. I guess this will do. Here, let me pay you."
  3: 0x0059 [0x23] WAIT_FOR_DIALOG_INTERACTION
  4: 0x005A [0x45] LOAD_SCHEDULED_TASK: Load scheduler "qstc" with entities [LocalPlayer, LocalPlayer], work=[201*, 0*]
  5: 0x006B [0x21] END_EVENT
  6: 0x006C [0x00] END_REQSTACK()
```
