# 17739785 - Domhnall

## Common Data

| Field            | Value                    |
|------------------|--------------------------|
| Zone             | Bastok Markets (ID: 235) |
| Block Size       | 100 bytes                |
| Total Events     | 2                        |
| References Count | 3                        |

## List of Events

| Event ID              | Entrypoint   |   Size |   Instructions |
|-----------------------|--------------|--------|----------------|
| [65535](#event-65535) | 0x0000       |      1 |              1 |
| [117](#event-117)     | 0x0001       |     60 |             12 |

## DAT References (imed_data)

|   Index | Hex Value   |   Dec Value |
|---------|-------------|-------------|
|       0 | 0x003C      |          60 |
|       1 | 0x1D69      |        7529 |
|       2 | 0x1D6A      |        7530 |

## String References

- **7529**: Hmm? Ah, the hot springs in the Dangruf Wadi? Those were great! I felt like a new man after bathing there!
- **7530**: I wish they had been built back when I was a legion praefectus...

## Events

### Event 65535

#### Metadata

| Field        | Value   |
|--------------|---------|
| Entrypoint   | 0x0000  |
| Data Size    | 1 bytes |
| Instructions | 1       |

```
      00 01 02 03 04 05 06 07  08 09 0A 0B 0C 0D 0E 0F
      -- -- -- -- -- -- -- --  -- -- -- -- -- -- -- --
0000: 00                                                .               
```

#### Opcodes

```
  0: 0x0000 [0x00] END_REQSTACK()
```

### Event 117

#### Metadata

| Field        | Value    |
|--------------|----------|
| Entrypoint   | 0x0001   |
| Data Size    | 60 bytes |
| Instructions | 12       |

```
      00 01 02 03 04 05 06 07  08 09 0A 0B 0C 0D 0E 0F
      -- -- -- -- -- -- -- --  -- -- -- -- -- -- -- --
0000:    1E F0 FF FF 7F 6F 70  5B 00 80 F8 FF FF 7F F8   .....op[.......
0010: FF FF 7F 68 61 6E 30 1D  01 80 23 1D 02 80 23 5B  ...han0...#...#[
0020: 00 80 F8 FF FF 7F F8 FF  FF 7F 68 61 6E 31 53 F8  ..........han1S.
0030: FF FF 7F F8 FF FF 7F 68  61 6E 31 21 00           .......han1!.   
```

#### Opcodes

```
  0: 0x0001 [0x1E] EventEntity looks at LocalPlayer and starts talking
  1: 0x0006 [0x6F] WAIT_FRAME_DELAY: Yield until WaitTime reaches zero
  2: 0x0007 [0x70] WAIT_ENTITY_RENDER_FLAG: Wait while EventEntity->Render.Flags3 bit 2 is set (cancel turn if not)
  3: 0x0008 [0x5B] LOAD_EXT_SCHEDULER: Load scheduler "han0" with entities [EventEntity, EventEntity], work=60*
  4: 0x0017 [0x1D] PRINT_EVENT_MESSAGE(message_id=7529*)
    → "Hmm? Ah, the hot springs in the Dangruf Wadi? Those were great! I felt like a new man after bathing there!"
  5: 0x001A [0x23] WAIT_FOR_DIALOG_INTERACTION
  6: 0x001B [0x1D] PRINT_EVENT_MESSAGE(message_id=7530*)
    → "I wish they had been built back when I was a legion praefectus..."
  7: 0x001E [0x23] WAIT_FOR_DIALOG_INTERACTION
  8: 0x001F [0x5B] LOAD_EXT_SCHEDULER: Load scheduler "han1" with entities [EventEntity, EventEntity], work=60*
  9: 0x002E [0x53] WAIT_SCHEDULER_TASK: Wait for scheduler "han1" with entities [EventEntity, EventEntity]
 10: 0x003B [0x21] END_EVENT
 11: 0x003C [0x00] END_REQSTACK()
```
