# 17739813 - Brygid

## Common Data

| Field            | Value                    |
|------------------|--------------------------|
| Zone             | Bastok Markets (ID: 235) |
| Block Size       | 2588 bytes               |
| Total Events     | 19                       |
| References Count | 115                      |

## List of Events

| Event ID                 | Entrypoint   |   Size |   Instructions |
|--------------------------|--------------|--------|----------------|
| [65535](#event-65535)    | 0x0000       |      1 |              1 |
| [0](#event-0)            | 0x0001       |     10 |              2 |
| [65535.1](#event-655351) | 0x000B       |     14 |              4 |
| [119](#event-119)        | 0x0019       |     30 |              8 |
| [310](#event-310)        | 0x0037       |     44 |             12 |
| [311](#event-311)        | 0x0063       |     59 |             11 |
| [380](#event-380)        | 0x009E       |    416 |            109 |
| [381](#event-381)        | 0x023E       |    373 |            103 |
| [382](#event-382)        | 0x03B3       |    927 |            200 |
| [383](#event-383)        | 0x0752       |     96 |             16 |
| [384](#event-384)        | 0x07B2       |     11 |              5 |
| [385](#event-385)        | 0x07BD       |     11 |              5 |
| [675](#event-675)        | 0x07C8       |      7 |              2 |
| [676](#event-676)        | 0x07CF       |      7 |              2 |
| [677](#event-677)        | 0x07D6       |      1 |              1 |
| [678](#event-678)        | 0x07D7       |      7 |              2 |
| [65535.2](#event-655352) | 0x07DE       |     14 |              4 |
| [65535.3](#event-655353) | 0x07EC       |      4 |              2 |
| [65535.4](#event-655354) | 0x07F0       |      4 |              2 |

## DAT References (imed_data)

|   Index | Hex Value   |   Dec Value |
|---------|-------------|-------------|
|       0 | 0xFFFAFFC8  |  4294639560 |
|       1 | 0xFFFDB5FD  |  4294817277 |
|       2 | 0xFFFFD8ED  |  4294957293 |
|       3 | 0x0D49      |        3401 |
|       4 | 0x000D      |          13 |
|       5 | 0xFFFB3819  |  4294653977 |
|       6 | 0xFFFDEF0B  |  4294831883 |
|       7 | 0x1D56      |        7510 |
|       8 | 0x0050      |          80 |
|       9 | 0x1D57      |        7511 |
|      10 | 0x3138      |       12600 |
|      11 | 0x3220      |       12832 |
|      12 | 0x1E14      |        7700 |
|      13 | 0x1E15      |        7701 |
|      14 | 0x1E16      |        7702 |
|      15 | 0x1E17      |        7703 |
|      16 | 0x00C9      |         201 |
|      17 | 0x0000      |           0 |
|      18 | 0x212B      |        8491 |
|      19 | 0x212A      |        8490 |
|      20 | 0x212C      |        8492 |
|      21 | 0x0001      |           1 |
|      22 | 0x212E      |        8494 |
|      23 | 0x0002      |           2 |
|      24 | 0x212F      |        8495 |
|      25 | 0x0003      |           3 |
|      26 | 0x2130      |        8496 |
|      27 | 0x0004      |           4 |
|      28 | 0x2131      |        8497 |
|      29 | 0x0005      |           5 |
|      30 | 0x2132      |        8498 |
|      31 | 0x0006      |           6 |
|      32 | 0x2133      |        8499 |
|      33 | 0x0007      |           7 |
|      34 | 0x2134      |        8500 |
|      35 | 0x0008      |           8 |
|      36 | 0x2135      |        8501 |
|      37 | 0x0009      |           9 |
|      38 | 0x2136      |        8502 |
|      39 | 0x000A      |          10 |
|      40 | 0x2137      |        8503 |
|      41 | 0x000B      |          11 |
|      42 | 0x2138      |        8504 |
|      43 | 0x000C      |          12 |
|      44 | 0x2139      |        8505 |
|      45 | 0x213A      |        8506 |
|      46 | 0x000E      |          14 |
|      47 | 0x213B      |        8507 |
|      48 | 0x000F      |          15 |
|      49 | 0x213C      |        8508 |
|      50 | 0x0010      |          16 |
|      51 | 0x213D      |        8509 |
|      52 | 0x0011      |          17 |
|      53 | 0x213E      |        8510 |
|      54 | 0x0012      |          18 |
|      55 | 0x213F      |        8511 |
|      56 | 0x0013      |          19 |
|      57 | 0x2140      |        8512 |
|      58 | 0x0014      |          20 |
|      59 | 0x2141      |        8513 |
|      60 | 0x0015      |          21 |
|      61 | 0x2142      |        8514 |
|      62 | 0x0016      |          22 |
|      63 | 0x2143      |        8515 |
|      64 | 0x2144      |        8516 |
|      65 | 0x2145      |        8517 |
|      66 | 0x212D      |        8493 |
|      67 | 0x2147      |        8519 |
|      68 | 0x214C      |        8524 |
|      69 | 0x2148      |        8520 |
|      70 | 0x3841      |       14401 |
|      71 | 0x3842      |       14402 |
|      72 | 0x3843      |       14403 |
|      73 | 0x3844      |       14404 |
|      74 | 0x3845      |       14405 |
|      75 | 0x3846      |       14406 |
|      76 | 0x3847      |       14407 |
|      77 | 0x3848      |       14408 |
|      78 | 0x2149      |        8521 |
|      79 | 0x3849      |       14409 |
|      80 | 0x384A      |       14410 |
|      81 | 0x384B      |       14411 |
|      82 | 0x384C      |       14412 |
|      83 | 0x384D      |       14413 |
|      84 | 0x214A      |        8522 |
|      85 | 0x214B      |        8523 |
|      86 | 0x0063      |          99 |
|      87 | 0x214D      |        8525 |
|      88 | 0x3C0F      |       15375 |
|      89 | 0x3C10      |       15376 |
|      90 | 0x3C11      |       15377 |
|      91 | 0x3C12      |       15378 |
|      92 | 0x3C13      |       15379 |
|      93 | 0x3C14      |       15380 |
|      94 | 0x3C15      |       15381 |
|      95 | 0x3C16      |       15382 |
|      96 | 0x3C17      |       15383 |
|      97 | 0x3C18      |       15384 |
|      98 | 0x3C19      |       15385 |
|      99 | 0x3C1A      |       15386 |
|     100 | 0x3C1C      |       15388 |
|     101 | 0x214E      |        8526 |
|     102 | 0x214F      |        8527 |
|     103 | 0x2150      |        8528 |
|     104 | 0x2152      |        8530 |
|     105 | 0x2153      |        8531 |
|     106 | 0x2154      |        8532 |
|     107 | 0x2151      |        8529 |
|     108 | 0x2156      |        8534 |
|     109 | 0x2157      |        8535 |
|     110 | 0x2146      |        8518 |
|     111 | 0x2155      |        8533 |
|     112 | 0xFFFE9EDE  |  4294876894 |
|     113 | 0xFFFE6C39  |  4294863929 |
|     114 | 0xFFFFF060  |  4294963296 |

## String References

- **7510**: Here in the Markets, they sell instruments, jewelry, weapons, armor, goods... Anything anyone could ever want!
- **7511**: The future of this city is as bright as mine!
- **7700**: My, my, what a scruffy-looking adventurer! You can't walk around dressed like that! Not if I, Brygid, stylist extraordinaire, have anything to say about it!
- **7701**: Let me see... For a person of your size and build, $7 and $6 should do the trick! Yes, I can see it now! You'll look fabulous!
- **7702**: Don't worry, I won't charge you this time. Trust me and go shopping!
- **7703**: See, what did I tell you? You look marvelous, darling. And you should put these on, too. Wear them, they're yours!
- **8490**: My, my, if it isn't the scruffy-looking adventurer!
- **8491**: Don't tell me you're still wearing that robe. I mean, it is so last Firesday!
- **8492**: What is that atrocious outfit you're wearing? Artifact armor? I've seen more original garb on a Goblin!
- **8493**: Are you still wearing those artifact rags? When are you going to break out of your shell and show off your true colors?
- **8494**: Do you think you look tough in those scraps of leather and metal? And why do you feel obliged to show off your lint-filled bellybutton?
- **8495**: Whoever designed that thing you have on must have been colorblind or working in a very dark atelier.
- **8496**: White mage equals white robes... Give me a break! My pet Opo-opo could come up with a fresher idea.
- **8497**: Maybe you think that outfit makes you look all intelligent, but it obviously didn't make you intelligent enough to realize you were breaking all fashion laws!
- **8498**: You're not planning to wear that all the way to level 75, are you? When are you going to learn to live a little?
- **8499**: Ugh! That terrible design makes you stick out like a sore thumb at a hitchhikers' convention!
- **8500**: Those hunks of scrap metal give you about as much appeal as a rusty bucket!
- **8501**: What's with all the spikes? What are you trying to do, put someone's eye out?
- **8502**: [Mister/Lady], you're dressed up like a mad sheep... Do I have to say any more?
- **8503**: Don't you have a mirror in your Mog House? You look about as color coordinated as one of those lizards strolling around Valkurm.
- **8504**: What? Are you going for the "I spent all my gil on arrows so I didn't have any left to buy real clothes" look?
- **8505**: Nice outfit... You'd better take that back to the museum before they call the police.
- **8506**: Yes, wearing your pajamas outside around town will catch all the [ladies'/guys'] eyes, but I don't think that's the kind of attention you want.
- **8507**: Don't tell me... You're joining the circus and one of those rejects from the Troupe Valeriano made that gawd-awful thing for you.
- **8508**: You'd think after spending time with all those chic avatars, a shred of their fashion sense would have rubbed off on you...
- **8509**: Oh please, blue is so last season! You are allowed to wear other colors, you know...
- **8510**: So, you walk around like that without getting arrested? The fashion police must be getting soft...
- **8511**: Why, exactly, does what you're wearing have anything to do with puppets? Maybe you should stand behind a screen when you perform...
- **8512**: Is this what dancers wear on stage? I certainly hope you fired the costume designer for your last performance...
- **8513**: As a scholar, I'm assuming you know how to read. Ever tried opening a book about fashion...?
- **8514**: How are you going to harness the power of the lifestream if you can't even grasp the concept of not looking like chocobo excrement? You're a blight upon geomancers everywhere.
- **8515**: Having runes etched into your body doesn't put you above the laws of fashion, you know. Just remember, clothes make the adventurer, and not the other way around!
- **8516**: No, no, no! You can't walk around dressed like that! Not if I, Brygid, stylist extraordinaire, have anything to say about it! Now how can we get you back on track for this year's fashion...?
- **8517**: Let me see... For a person of your size and build, $1 and $2 should do the trick! Yes, I can see it now! You'll look marvelous!
- **8518**: You've already forgotten? <Sigh>... What would you people do without me? You need to find $1 and $2!
- **8519**: Ah, I am a genius! You're beginning to look much better already. But I won't always be there to hold your hand, you know. You'll need to learn to dress yourself.
- **8520**: Let's see if any of my talent has rubbed off. Which of the following items do you think would look the best on you?
- **8521**: The fashion bug is itching... [$0./$1./$2./$3./$4./$5./$6./$7./Next page./I'm not sure...]
- **8522**: The fashion bug is itching... [$0./$1./$2./$3./$4./Previous page./I need some more time...]
- **8523**: Can't make up our minds, can we? Well, I suggest that we try thinking a little harder. We wouldn't want to keep a busy lady waiting now, would we?
- **8524**: Well, are you ready?
- **8525**: Wait a minute... Wearing something you already have is not the sign of a true fashion pioneer. You must have the courage to take chances! Don't tell me they didn't teach you that in adventuring school!
- **8526**: Hmph... Not bad... Not what I would have chosen, but not bad.
- **8527**: Would you like to try one on? If you want, I could give you mine...
- **8528**: What do you say? [Where's the fitting room?/Now that I think about it...]
- **8529**: Changed your mind already? I know exactly how you feel. Becoming a fashion leader doesn't happen on spur-of-the-moment decisions.
- **8530**: I don't think your current job will allow you to equip that garment...
- **8531**: Do you still want to try it on? [I know what I'm doing./I'll choose something else.]
- **8532**: Alright! The piece is yours...after you've brought me $2! What? Don't tell me you've never heard of $2--they're all the rage!
- **8533**: I'll give you my $1 if you bring me a sparkly new $2. But hurry up! Vana'diel's fashion trends change like the wind. I wouldn't want to be left behind!
- **8534**: The color... The shape... The aroma... This is exactly what I was looking for!
- **8535**: Here's the garment I promised you. Wear this, and you'll be the center of attention! I guarantee it!

## Events

### Event 65535

#### Metadata

| Field        | Value   |
|--------------|---------|
| Entrypoint   | 0x0000  |
| Data Size    | 1 bytes |
| Instructions | 1       |

```
      00 01 02 03 04 05 06 07  08 09 0A 0B 0C 0D 0E 0F
      -- -- -- -- -- -- -- --  -- -- -- -- -- -- -- --
0000: 00                                                .               
```

#### Opcodes

```
  0: 0x0000 [0x00] END_REQSTACK()
```

### Event 0

#### Metadata

| Field        | Value    |
|--------------|----------|
| Entrypoint   | 0x0001   |
| Data Size    | 10 bytes |
| Instructions | 2        |

```
      00 01 02 03 04 05 06 07  08 09 0A 0B 0C 0D 0E 0F
      -- -- -- -- -- -- -- --  -- -- -- -- -- -- -- --
0000:    37 00 80 01 80 02 80  03 80 00                  7.........     
```

#### Opcodes

```
  0: 0x0001 [0x37] UPDATE_EVENT_POSITION_AND_DIR: x=-327.736*, z=-150.019*, y=-10.003*, direction=298.9°*
  1: 0x000A [0x00] END_REQSTACK()
```

### Event 65535.1

#### Metadata

| Field        | Value    |
|--------------|----------|
| Entrypoint   | 0x000B   |
| Data Size    | 14 bytes |
| Instructions | 4        |

```
      00 01 02 03 04 05 06 07  08 09 0A 0B 0C 0D 0E 0F
      -- -- -- -- -- -- -- --  -- -- -- -- -- -- -- --
0000:                                   32 04 80 1F 00             2....
0010: 05 80 06 80 02 80 1F 01  00                       .........       
```

#### Opcodes

```
  0: 0x000B [0x32] ExtData[1]->MainSpeed = 13* * 0.1
  1: 0x000E [0x1F] MOVE_ENTITY: EventEntity moves to X=-313.319*, Z=-135.413*, Y=-10.003*
  2: 0x0016 [0x1F] MOVE_ENTITY: Update entity position (mode=1)
  3: 0x0018 [0x00] END_REQSTACK()
```

### Event 119

#### Metadata

| Field        | Value    |
|--------------|----------|
| Entrypoint   | 0x0019   |
| Data Size    | 30 bytes |
| Instructions | 8        |

```
      00 01 02 03 04 05 06 07  08 09 0A 0B 0C 0D 0E 0F
      -- -- -- -- -- -- -- --  -- -- -- -- -- -- -- --
0010:                             1E F0 FF FF 7F 1D 07           .......
0020: 80 23 5B 08 80 F8 FF FF  7F F8 FF FF 7F 74 6C 6B  .#[..........tlk
0030: 30 1D 09 80 23 21 00                              0...#!.         
```

#### Opcodes

```
  0: 0x0019 [0x1E] EventEntity looks at LocalPlayer and starts talking
  1: 0x001E [0x1D] PRINT_EVENT_MESSAGE(message_id=7510*)
    → "Here in the Markets, they sell instruments, jewelry, weapons, armor, goods... Anything anyone could ever want!"
  2: 0x0021 [0x23] WAIT_FOR_DIALOG_INTERACTION
  3: 0x0022 [0x5B] LOAD_EXT_SCHEDULER: Load scheduler "tlk0" with entities [EventEntity, EventEntity], work=80*
  4: 0x0031 [0x1D] PRINT_EVENT_MESSAGE(message_id=7511*)
    → "The future of this city is as bright as mine!"
  5: 0x0034 [0x23] WAIT_FOR_DIALOG_INTERACTION
  6: 0x0035 [0x21] END_EVENT
  7: 0x0036 [0x00] END_REQSTACK()
```

### Event 310

#### Metadata

| Field        | Value    |
|--------------|----------|
| Entrypoint   | 0x0037   |
| Data Size    | 44 bytes |
| Instructions | 12       |

```
      00 01 02 03 04 05 06 07  08 09 0A 0B 0C 0D 0E 0F
      -- -- -- -- -- -- -- --  -- -- -- -- -- -- -- --
0030:                      03  09 10 0A 80 03 08 10 0B         .........
0040: 80 1E F0 FF FF 7F 1D 0C  80 23 5B 08 80 F8 FF FF  .........#[.....
0050: 7F F8 FF FF 7F 74 6C 6B  30 1D 0D 80 23 1D 0E 80  .....tlk0...#...
0060: 23 21 00                                          #!.             
```

#### Opcodes

```
  0: 0x0037 [0x03] Work_Zone[9] = 12600*
  1: 0x003C [0x03] Work_Zone[8] = 12832*
  2: 0x0041 [0x1E] EventEntity looks at LocalPlayer and starts talking
  3: 0x0046 [0x1D] PRINT_EVENT_MESSAGE(message_id=7700*)
    → "My, my, what a scruffy-looking adventurer! You can't walk around dressed like that! Not if I, Brygid, stylist extraordinaire, have anything to say about it!"
  4: 0x0049 [0x23] WAIT_FOR_DIALOG_INTERACTION
  5: 0x004A [0x5B] LOAD_EXT_SCHEDULER: Load scheduler "tlk0" with entities [EventEntity, EventEntity], work=80*
  6: 0x0059 [0x1D] PRINT_EVENT_MESSAGE(message_id=7701*)
    → "Let me see... For a person of your size and build, $7 and $6 should do the trick! Yes, I can see it now! You'll look fabulous!"
  7: 0x005C [0x23] WAIT_FOR_DIALOG_INTERACTION
  8: 0x005D [0x1D] PRINT_EVENT_MESSAGE(message_id=7702*)
    → "Don't worry, I won't charge you this time. Trust me and go shopping!"
  9: 0x0060 [0x23] WAIT_FOR_DIALOG_INTERACTION
 10: 0x0061 [0x21] END_EVENT
 11: 0x0062 [0x00] END_REQSTACK()
```

### Event 311

#### Metadata

| Field        | Value    |
|--------------|----------|
| Entrypoint   | 0x0063   |
| Data Size    | 59 bytes |
| Instructions | 11       |

```
      00 01 02 03 04 05 06 07  08 09 0A 0B 0C 0D 0E 0F
      -- -- -- -- -- -- -- --  -- -- -- -- -- -- -- --
0060:          42 1E F0 FF FF  7F 6F 70 5B 08 80 F8 FF     B.....op[....
0070: FF 7F F8 FF FF 7F 70 61  73 30 1D 0F 80 23 53 F8  ......pas0...#S.
0080: FF FF 7F F8 FF FF 7F 70  61 73 30 45 10 80 F0 FF  .......pas0E....
0090: FF 7F F0 FF FF 7F 71 73  74 63 11 80 21 00        ......qstc..!.  
```

#### Opcodes

```
  0: 0x0063 [0x42] SET_CLI_EVENT_CANCEL_DATA()
  1: 0x0064 [0x1E] EventEntity looks at LocalPlayer and starts talking
  2: 0x0069 [0x6F] WAIT_FRAME_DELAY: Yield until WaitTime reaches zero
  3: 0x006A [0x70] WAIT_ENTITY_RENDER_FLAG: Wait while EventEntity->Render.Flags3 bit 2 is set (cancel turn if not)
  4: 0x006B [0x5B] LOAD_EXT_SCHEDULER: Load scheduler "pas0" with entities [EventEntity, EventEntity], work=80*
  5: 0x007A [0x1D] PRINT_EVENT_MESSAGE(message_id=7703*)
    → "See, what did I tell you? You look marvelous, darling. And you should put these on, too. Wear them, they're yours!"
  6: 0x007D [0x23] WAIT_FOR_DIALOG_INTERACTION
  7: 0x007E [0x53] WAIT_SCHEDULER_TASK: Wait for scheduler "pas0" with entities [EventEntity, EventEntity]
  8: 0x008B [0x45] LOAD_SCHEDULED_TASK: Load scheduler "qstc" with entities [LocalPlayer, LocalPlayer], work=[201*, 0*]
  9: 0x009C [0x21] END_EVENT
 10: 0x009D [0x00] END_REQSTACK()
```

### Event 380

#### Metadata

| Field        | Value     |
|--------------|-----------|
| Entrypoint   | 0x009E    |
| Data Size    | 416 bytes |
| Instructions | 109       |

```
      00 01 02 03 04 05 06 07  08 09 0A 0B 0C 0D 0E 0F
      -- -- -- -- -- -- -- --  -- -- -- -- -- -- -- --
0090:                                            1E F0                ..
00A0: FF FF 7F 02 02 10 11 80  01 CE 00 1D 12 80 23 5B  ..............#[
00B0: 08 80 F8 FF FF 7F F8 FF  FF 7F 74 68 6B 30 53 F8  ..........thk0S.
00C0: FF FF 7F F8 FF FF 7F 74  68 6B 30 01 D2 00 1D 13  .......thk0.....
00D0: 80 23 1D 14 80 23 02 05  10 15 80 80 E5 00 1D 16  .#...#..........
00E0: 80 23 01 20 02 02 05 10  17 80 80 F4 00 1D 18 80  .#. ............
00F0: 23 01 20 02 02 05 10 19  80 80 03 01 1D 1A 80 23  #. ............#
0100: 01 20 02 02 05 10 1B 80  80 12 01 1D 1C 80 23 01  . ............#.
0110: 20 02 02 05 10 1D 80 80  21 01 1D 1E 80 23 01 20   .......!....#. 
0120: 02 02 05 10 1F 80 80 30  01 1D 20 80 23 01 20 02  .......0.. .#. .
0130: 02 05 10 21 80 80 3F 01  1D 22 80 23 01 20 02 02  ...!..?..".#. ..
0140: 05 10 23 80 80 4E 01 1D  24 80 23 01 20 02 02 05  ..#..N..$.#. ...
0150: 10 25 80 80 5D 01 1D 26  80 23 01 20 02 02 05 10  .%..]..&.#. ....
0160: 27 80 80 6C 01 1D 28 80  23 01 20 02 02 05 10 29  '..l..(.#. ....)
0170: 80 80 7B 01 1D 2A 80 23  01 20 02 02 05 10 2B 80  ..{..*.#. ....+.
0180: 80 8A 01 1D 2C 80 23 01  20 02 02 05 10 04 80 80  ....,.#. .......
0190: 99 01 1D 2D 80 23 01 20  02 02 05 10 2E 80 80 A8  ...-.#. ........
01A0: 01 1D 2F 80 23 01 20 02  02 05 10 30 80 80 B7 01  ../.#. ....0....
01B0: 1D 31 80 23 01 20 02 02  05 10 32 80 80 C6 01 1D  .1.#. ....2.....
01C0: 33 80 23 01 20 02 02 05  10 34 80 80 D5 01 1D 35  3.#. ....4.....5
01D0: 80 23 01 20 02 02 05 10  36 80 80 E4 01 1D 37 80  .#. ....6.....7.
01E0: 23 01 20 02 02 05 10 38  80 80 F3 01 1D 39 80 23  #. ....8.....9.#
01F0: 01 20 02 02 05 10 3A 80  80 02 02 1D 3B 80 23 01  . ....:.....;.#.
0200: 20 02 02 05 10 3C 80 80  11 02 1D 3D 80 23 01 20   ....<.....=.#. 
0210: 02 02 05 10 3E 80 80 20  02 1D 3F 80 23 01 20 02  ....>.. ..?.#. .
0220: 1D 40 80 23 5B 08 80 F8  FF FF 7F F8 FF FF 7F 74  .@.#[..........t
0230: 6C 6B 30 42 43 00 43 01  1D 41 80 23 21 00        lk0BC.C..A.#!.  
```

#### Opcodes

```
  0: 0x009E [0x1E] EventEntity looks at LocalPlayer and starts talking
  1: 0x00A3 [0x02] IF !(Work_Zone[2] == 0*) GOTO 0x00CE
  2: 0x00AB [0x1D] PRINT_EVENT_MESSAGE(message_id=8491*)
    → "Don't tell me you're still wearing that robe. I mean, it is so last Firesday!"
  3: 0x00AE [0x23] WAIT_FOR_DIALOG_INTERACTION
  4: 0x00AF [0x5B] LOAD_EXT_SCHEDULER: Load scheduler "thk0" with entities [EventEntity, EventEntity], work=80*
  5: 0x00BE [0x53] WAIT_SCHEDULER_TASK: Wait for scheduler "thk0" with entities [EventEntity, EventEntity]
  6: 0x00CB [0x01] GOTO 0x00D2
  7: 0x00CE [0x1D] PRINT_EVENT_MESSAGE(message_id=8490*)
    → "My, my, if it isn't the scruffy-looking adventurer!"
  8: 0x00D1 [0x23] WAIT_FOR_DIALOG_INTERACTION

SUBROUTINE_00D2:
  9: 0x00D2 [0x1D] PRINT_EVENT_MESSAGE(message_id=8492*)
    → "What is that atrocious outfit you're wearing? Artifact armor? I've seen more original garb on a Goblin!"
 10: 0x00D5 [0x23] WAIT_FOR_DIALOG_INTERACTION
 11: 0x00D6 [0x02] IF !(Work_Zone[5] == 1*) GOTO 0x00E5
 12: 0x00DE [0x1D] PRINT_EVENT_MESSAGE(message_id=8494*)
    → "Do you think you look tough in those scraps of leather and metal? And why do you feel obliged to show off your lint-filled bellybutton?"
 13: 0x00E1 [0x23] WAIT_FOR_DIALOG_INTERACTION
 14: 0x00E2 [0x01] GOTO 0x0220
 15: 0x00E5 [0x02] IF !(Work_Zone[5] == 2*) GOTO 0x00F4
 16: 0x00ED [0x1D] PRINT_EVENT_MESSAGE(message_id=8495*)
    → "Whoever designed that thing you have on must have been colorblind or working in a very dark atelier."
 17: 0x00F0 [0x23] WAIT_FOR_DIALOG_INTERACTION
 18: 0x00F1 [0x01] GOTO 0x0220
 19: 0x00F4 [0x02] IF !(Work_Zone[5] == 3*) GOTO 0x0103
 20: 0x00FC [0x1D] PRINT_EVENT_MESSAGE(message_id=8496*)
    → "White mage equals white robes... Give me a break! My pet Opo-opo could come up with a fresher idea."
 21: 0x00FF [0x23] WAIT_FOR_DIALOG_INTERACTION
 22: 0x0100 [0x01] GOTO 0x0220
 23: 0x0103 [0x02] IF !(Work_Zone[5] == 4*) GOTO 0x0112
 24: 0x010B [0x1D] PRINT_EVENT_MESSAGE(message_id=8497*)
    → "Maybe you think that outfit makes you look all intelligent, but it obviously didn't make you intelligent enough to realize you were breaking all fashion laws!"
 25: 0x010E [0x23] WAIT_FOR_DIALOG_INTERACTION
 26: 0x010F [0x01] GOTO 0x0220
 27: 0x0112 [0x02] IF !(Work_Zone[5] == 5*) GOTO 0x0121
 28: 0x011A [0x1D] PRINT_EVENT_MESSAGE(message_id=8498*)
    → "You're not planning to wear that all the way to level 75, are you? When are you going to learn to live a little?"
 29: 0x011D [0x23] WAIT_FOR_DIALOG_INTERACTION
 30: 0x011E [0x01] GOTO 0x0220
 31: 0x0121 [0x02] IF !(Work_Zone[5] == 6*) GOTO 0x0130
 32: 0x0129 [0x1D] PRINT_EVENT_MESSAGE(message_id=8499*)
    → "Ugh! That terrible design makes you stick out like a sore thumb at a hitchhikers' convention!"
 33: 0x012C [0x23] WAIT_FOR_DIALOG_INTERACTION
 34: 0x012D [0x01] GOTO 0x0220
 35: 0x0130 [0x02] IF !(Work_Zone[5] == 7*) GOTO 0x013F
 36: 0x0138 [0x1D] PRINT_EVENT_MESSAGE(message_id=8500*)
    → "Those hunks of scrap metal give you about as much appeal as a rusty bucket!"
 37: 0x013B [0x23] WAIT_FOR_DIALOG_INTERACTION
 38: 0x013C [0x01] GOTO 0x0220
 39: 0x013F [0x02] IF !(Work_Zone[5] == 8*) GOTO 0x014E
 40: 0x0147 [0x1D] PRINT_EVENT_MESSAGE(message_id=8501*)
    → "What's with all the spikes? What are you trying to do, put someone's eye out?"
 41: 0x014A [0x23] WAIT_FOR_DIALOG_INTERACTION
 42: 0x014B [0x01] GOTO 0x0220
 43: 0x014E [0x02] IF !(Work_Zone[5] == 9*) GOTO 0x015D
 44: 0x0156 [0x1D] PRINT_EVENT_MESSAGE(message_id=8502*)
    → "[Mister/Lady], you're dressed up like a mad sheep... Do I have to say any more?"
 45: 0x0159 [0x23] WAIT_FOR_DIALOG_INTERACTION
 46: 0x015A [0x01] GOTO 0x0220
 47: 0x015D [0x02] IF !(Work_Zone[5] == 10*) GOTO 0x016C
 48: 0x0165 [0x1D] PRINT_EVENT_MESSAGE(message_id=8503*)
    → "Don't you have a mirror in your Mog House? You look about as color coordinated as one of those lizards strolling around Valkurm."
 49: 0x0168 [0x23] WAIT_FOR_DIALOG_INTERACTION
 50: 0x0169 [0x01] GOTO 0x0220
 51: 0x016C [0x02] IF !(Work_Zone[5] == 11*) GOTO 0x017B
 52: 0x0174 [0x1D] PRINT_EVENT_MESSAGE(message_id=8504*)
    → "What? Are you going for the "I spent all my gil on arrows so I didn't have any left to buy real clothes" look?"
 53: 0x0177 [0x23] WAIT_FOR_DIALOG_INTERACTION
 54: 0x0178 [0x01] GOTO 0x0220
 55: 0x017B [0x02] IF !(Work_Zone[5] == 12*) GOTO 0x018A
 56: 0x0183 [0x1D] PRINT_EVENT_MESSAGE(message_id=8505*)
    → "Nice outfit... You'd better take that back to the museum before they call the police."
 57: 0x0186 [0x23] WAIT_FOR_DIALOG_INTERACTION
 58: 0x0187 [0x01] GOTO 0x0220
 59: 0x018A [0x02] IF !(Work_Zone[5] == 13*) GOTO 0x0199
 60: 0x0192 [0x1D] PRINT_EVENT_MESSAGE(message_id=8506*)
    → "Yes, wearing your pajamas outside around town will catch all the [ladies'/guys'] eyes, but I don't think that's the kind of attention you want."
 61: 0x0195 [0x23] WAIT_FOR_DIALOG_INTERACTION
 62: 0x0196 [0x01] GOTO 0x0220
 63: 0x0199 [0x02] IF !(Work_Zone[5] == 14*) GOTO 0x01A8
 64: 0x01A1 [0x1D] PRINT_EVENT_MESSAGE(message_id=8507*)
    → "Don't tell me... You're joining the circus and one of those rejects from the Troupe Valeriano made that gawd-awful thing for you."
 65: 0x01A4 [0x23] WAIT_FOR_DIALOG_INTERACTION
 66: 0x01A5 [0x01] GOTO 0x0220
 67: 0x01A8 [0x02] IF !(Work_Zone[5] == 15*) GOTO 0x01B7
 68: 0x01B0 [0x1D] PRINT_EVENT_MESSAGE(message_id=8508*)
    → "You'd think after spending time with all those chic avatars, a shred of their fashion sense would have rubbed off on you..."
 69: 0x01B3 [0x23] WAIT_FOR_DIALOG_INTERACTION
 70: 0x01B4 [0x01] GOTO 0x0220
 71: 0x01B7 [0x02] IF !(Work_Zone[5] == 16*) GOTO 0x01C6
 72: 0x01BF [0x1D] PRINT_EVENT_MESSAGE(message_id=8509*)
    → "Oh please, blue is so last season! You are allowed to wear other colors, you know..."
 73: 0x01C2 [0x23] WAIT_FOR_DIALOG_INTERACTION
 74: 0x01C3 [0x01] GOTO 0x0220
 75: 0x01C6 [0x02] IF !(Work_Zone[5] == 17*) GOTO 0x01D5
 76: 0x01CE [0x1D] PRINT_EVENT_MESSAGE(message_id=8510*)
    → "So, you walk around like that without getting arrested? The fashion police must be getting soft..."
 77: 0x01D1 [0x23] WAIT_FOR_DIALOG_INTERACTION
 78: 0x01D2 [0x01] GOTO 0x0220
 79: 0x01D5 [0x02] IF !(Work_Zone[5] == 18*) GOTO 0x01E4
 80: 0x01DD [0x1D] PRINT_EVENT_MESSAGE(message_id=8511*)
    → "Why, exactly, does what you're wearing have anything to do with puppets? Maybe you should stand behind a screen when you perform..."
 81: 0x01E0 [0x23] WAIT_FOR_DIALOG_INTERACTION
 82: 0x01E1 [0x01] GOTO 0x0220
 83: 0x01E4 [0x02] IF !(Work_Zone[5] == 19*) GOTO 0x01F3
 84: 0x01EC [0x1D] PRINT_EVENT_MESSAGE(message_id=8512*)
    → "Is this what dancers wear on stage? I certainly hope you fired the costume designer for your last performance..."
 85: 0x01EF [0x23] WAIT_FOR_DIALOG_INTERACTION
 86: 0x01F0 [0x01] GOTO 0x0220
 87: 0x01F3 [0x02] IF !(Work_Zone[5] == 20*) GOTO 0x0202
 88: 0x01FB [0x1D] PRINT_EVENT_MESSAGE(message_id=8513*)
    → "As a scholar, I'm assuming you know how to read. Ever tried opening a book about fashion...?"
 89: 0x01FE [0x23] WAIT_FOR_DIALOG_INTERACTION
 90: 0x01FF [0x01] GOTO 0x0220
 91: 0x0202 [0x02] IF !(Work_Zone[5] == 21*) GOTO 0x0211
 92: 0x020A [0x1D] PRINT_EVENT_MESSAGE(message_id=8514*)
    → "How are you going to harness the power of the lifestream if you can't even grasp the concept of not looking like chocobo excrement? You're a blight upon geomancers everywhere."
 93: 0x020D [0x23] WAIT_FOR_DIALOG_INTERACTION
 94: 0x020E [0x01] GOTO 0x0220
 95: 0x0211 [0x02] IF !(Work_Zone[5] == 22*) GOTO 0x0220
 96: 0x0219 [0x1D] PRINT_EVENT_MESSAGE(message_id=8515*)
    → "Having runes etched into your body doesn't put you above the laws of fashion, you know. Just remember, clothes make the adventurer, and not the other way around!"
 97: 0x021C [0x23] WAIT_FOR_DIALOG_INTERACTION
 98: 0x021D [0x01] GOTO 0x0220

SUBROUTINE_0220:
 99: 0x0220 [0x1D] PRINT_EVENT_MESSAGE(message_id=8516*)
    → "No, no, no! You can't walk around dressed like that! Not if I, Brygid, stylist extraordinaire, have anything to say about it! Now how can we get you back on track for this year's fashion...?"
100: 0x0223 [0x23] WAIT_FOR_DIALOG_INTERACTION
101: 0x0224 [0x5B] LOAD_EXT_SCHEDULER: Load scheduler "tlk0" with entities [EventEntity, EventEntity], work=80*
102: 0x0233 [0x42] SET_CLI_EVENT_CANCEL_DATA()
103: 0x0234 [0x43] SEND_EVENT_UPDATE: Send pending tag to server (packet 0x005B)
104: 0x0236 [0x43] SEND_EVENT_UPDATE: Check pending flag (skip if not pending)
105: 0x0238 [0x1D] PRINT_EVENT_MESSAGE(message_id=8517*)
    → "Let me see... For a person of your size and build, $1 and $2 should do the trick! Yes, I can see it now! You'll look marvelous!"
106: 0x023B [0x23] WAIT_FOR_DIALOG_INTERACTION
107: 0x023C [0x21] END_EVENT
108: 0x023D [0x00] END_REQSTACK()
```

### Event 381

#### Metadata

| Field        | Value     |
|--------------|-----------|
| Entrypoint   | 0x023E    |
| Data Size    | 373 bytes |
| Instructions | 103       |

```
      00 01 02 03 04 05 06 07  08 09 0A 0B 0C 0D 0E 0F
      -- -- -- -- -- -- -- --  -- -- -- -- -- -- -- --
0230:                                            1E F0                ..
0240: FF FF 7F 1D 13 80 23 1D  42 80 23 02 05 10 15 80  ......#.B.#.....
0250: 80 5A 02 1D 16 80 23 01  95 03 02 05 10 17 80 80  .Z....#.........
0260: 69 02 1D 18 80 23 01 95  03 02 05 10 19 80 80 78  i....#.........x
0270: 02 1D 1A 80 23 01 95 03  02 05 10 1B 80 80 87 02  ....#...........
0280: 1D 1C 80 23 01 95 03 02  05 10 1D 80 80 96 02 1D  ...#............
0290: 1E 80 23 01 95 03 02 05  10 1F 80 80 A5 02 1D 20  ..#............ 
02A0: 80 23 01 95 03 02 05 10  21 80 80 B4 02 1D 22 80  .#......!.....".
02B0: 23 01 95 03 02 05 10 23  80 80 C3 02 1D 24 80 23  #......#.....$.#
02C0: 01 95 03 02 05 10 25 80  80 D2 02 1D 26 80 23 01  ......%.....&.#.
02D0: 95 03 02 05 10 27 80 80  E1 02 1D 28 80 23 01 95  .....'.....(.#..
02E0: 03 02 05 10 29 80 80 F0  02 1D 2A 80 23 01 95 03  ....).....*.#...
02F0: 02 05 10 2B 80 80 FF 02  1D 2C 80 23 01 95 03 02  ...+.....,.#....
0300: 05 10 04 80 80 0E 03 1D  2D 80 23 01 95 03 02 05  ........-.#.....
0310: 10 2E 80 80 1D 03 1D 2F  80 23 01 95 03 02 05 10  ......./.#......
0320: 30 80 80 2C 03 1D 31 80  23 01 95 03 02 05 10 32  0..,..1.#......2
0330: 80 80 3B 03 1D 33 80 23  01 95 03 02 05 10 34 80  ..;..3.#......4.
0340: 80 4A 03 1D 35 80 23 01  95 03 02 05 10 36 80 80  .J..5.#......6..
0350: 59 03 1D 37 80 23 01 95  03 02 05 10 38 80 80 68  Y..7.#......8..h
0360: 03 1D 39 80 23 01 95 03  02 05 10 3A 80 80 77 03  ..9.#......:..w.
0370: 1D 3B 80 23 01 95 03 02  05 10 3C 80 80 86 03 1D  .;.#......<.....
0380: 3D 80 23 01 95 03 02 05  10 3E 80 80 95 03 1D 3F  =.#......>.....?
0390: 80 23 01 95 03 1D 40 80  23 5B 08 80 F8 FF FF 7F  .#....@.#[......
03A0: F8 FF FF 7F 74 6C 6B 30  42 43 00 43 01 1D 41 80  ....tlk0BC.C..A.
03B0: 23 21 00                                          #!.             
```

#### Opcodes

```
  0: 0x023E [0x1E] EventEntity looks at LocalPlayer and starts talking
  1: 0x0243 [0x1D] PRINT_EVENT_MESSAGE(message_id=8490*)
    → "My, my, if it isn't the scruffy-looking adventurer!"
  2: 0x0246 [0x23] WAIT_FOR_DIALOG_INTERACTION
  3: 0x0247 [0x1D] PRINT_EVENT_MESSAGE(message_id=8493*)
    → "Are you still wearing those artifact rags? When are you going to break out of your shell and show off your true colors?"
  4: 0x024A [0x23] WAIT_FOR_DIALOG_INTERACTION
  5: 0x024B [0x02] IF !(Work_Zone[5] == 1*) GOTO 0x025A
  6: 0x0253 [0x1D] PRINT_EVENT_MESSAGE(message_id=8494*)
    → "Do you think you look tough in those scraps of leather and metal? And why do you feel obliged to show off your lint-filled bellybutton?"
  7: 0x0256 [0x23] WAIT_FOR_DIALOG_INTERACTION
  8: 0x0257 [0x01] GOTO 0x0395
  9: 0x025A [0x02] IF !(Work_Zone[5] == 2*) GOTO 0x0269
 10: 0x0262 [0x1D] PRINT_EVENT_MESSAGE(message_id=8495*)
    → "Whoever designed that thing you have on must have been colorblind or working in a very dark atelier."
 11: 0x0265 [0x23] WAIT_FOR_DIALOG_INTERACTION
 12: 0x0266 [0x01] GOTO 0x0395
 13: 0x0269 [0x02] IF !(Work_Zone[5] == 3*) GOTO 0x0278
 14: 0x0271 [0x1D] PRINT_EVENT_MESSAGE(message_id=8496*)
    → "White mage equals white robes... Give me a break! My pet Opo-opo could come up with a fresher idea."
 15: 0x0274 [0x23] WAIT_FOR_DIALOG_INTERACTION
 16: 0x0275 [0x01] GOTO 0x0395
 17: 0x0278 [0x02] IF !(Work_Zone[5] == 4*) GOTO 0x0287
 18: 0x0280 [0x1D] PRINT_EVENT_MESSAGE(message_id=8497*)
    → "Maybe you think that outfit makes you look all intelligent, but it obviously didn't make you intelligent enough to realize you were breaking all fashion laws!"
 19: 0x0283 [0x23] WAIT_FOR_DIALOG_INTERACTION
 20: 0x0284 [0x01] GOTO 0x0395
 21: 0x0287 [0x02] IF !(Work_Zone[5] == 5*) GOTO 0x0296
 22: 0x028F [0x1D] PRINT_EVENT_MESSAGE(message_id=8498*)
    → "You're not planning to wear that all the way to level 75, are you? When are you going to learn to live a little?"
 23: 0x0292 [0x23] WAIT_FOR_DIALOG_INTERACTION
 24: 0x0293 [0x01] GOTO 0x0395
 25: 0x0296 [0x02] IF !(Work_Zone[5] == 6*) GOTO 0x02A5
 26: 0x029E [0x1D] PRINT_EVENT_MESSAGE(message_id=8499*)
    → "Ugh! That terrible design makes you stick out like a sore thumb at a hitchhikers' convention!"
 27: 0x02A1 [0x23] WAIT_FOR_DIALOG_INTERACTION
 28: 0x02A2 [0x01] GOTO 0x0395
 29: 0x02A5 [0x02] IF !(Work_Zone[5] == 7*) GOTO 0x02B4
 30: 0x02AD [0x1D] PRINT_EVENT_MESSAGE(message_id=8500*)
    → "Those hunks of scrap metal give you about as much appeal as a rusty bucket!"
 31: 0x02B0 [0x23] WAIT_FOR_DIALOG_INTERACTION
 32: 0x02B1 [0x01] GOTO 0x0395
 33: 0x02B4 [0x02] IF !(Work_Zone[5] == 8*) GOTO 0x02C3
 34: 0x02BC [0x1D] PRINT_EVENT_MESSAGE(message_id=8501*)
    → "What's with all the spikes? What are you trying to do, put someone's eye out?"
 35: 0x02BF [0x23] WAIT_FOR_DIALOG_INTERACTION
 36: 0x02C0 [0x01] GOTO 0x0395
 37: 0x02C3 [0x02] IF !(Work_Zone[5] == 9*) GOTO 0x02D2
 38: 0x02CB [0x1D] PRINT_EVENT_MESSAGE(message_id=8502*)
    → "[Mister/Lady], you're dressed up like a mad sheep... Do I have to say any more?"
 39: 0x02CE [0x23] WAIT_FOR_DIALOG_INTERACTION
 40: 0x02CF [0x01] GOTO 0x0395
 41: 0x02D2 [0x02] IF !(Work_Zone[5] == 10*) GOTO 0x02E1
 42: 0x02DA [0x1D] PRINT_EVENT_MESSAGE(message_id=8503*)
    → "Don't you have a mirror in your Mog House? You look about as color coordinated as one of those lizards strolling around Valkurm."
 43: 0x02DD [0x23] WAIT_FOR_DIALOG_INTERACTION
 44: 0x02DE [0x01] GOTO 0x0395
 45: 0x02E1 [0x02] IF !(Work_Zone[5] == 11*) GOTO 0x02F0
 46: 0x02E9 [0x1D] PRINT_EVENT_MESSAGE(message_id=8504*)
    → "What? Are you going for the "I spent all my gil on arrows so I didn't have any left to buy real clothes" look?"
 47: 0x02EC [0x23] WAIT_FOR_DIALOG_INTERACTION
 48: 0x02ED [0x01] GOTO 0x0395
 49: 0x02F0 [0x02] IF !(Work_Zone[5] == 12*) GOTO 0x02FF
 50: 0x02F8 [0x1D] PRINT_EVENT_MESSAGE(message_id=8505*)
    → "Nice outfit... You'd better take that back to the museum before they call the police."
 51: 0x02FB [0x23] WAIT_FOR_DIALOG_INTERACTION
 52: 0x02FC [0x01] GOTO 0x0395
 53: 0x02FF [0x02] IF !(Work_Zone[5] == 13*) GOTO 0x030E
 54: 0x0307 [0x1D] PRINT_EVENT_MESSAGE(message_id=8506*)
    → "Yes, wearing your pajamas outside around town will catch all the [ladies'/guys'] eyes, but I don't think that's the kind of attention you want."
 55: 0x030A [0x23] WAIT_FOR_DIALOG_INTERACTION
 56: 0x030B [0x01] GOTO 0x0395
 57: 0x030E [0x02] IF !(Work_Zone[5] == 14*) GOTO 0x031D
 58: 0x0316 [0x1D] PRINT_EVENT_MESSAGE(message_id=8507*)
    → "Don't tell me... You're joining the circus and one of those rejects from the Troupe Valeriano made that gawd-awful thing for you."
 59: 0x0319 [0x23] WAIT_FOR_DIALOG_INTERACTION
 60: 0x031A [0x01] GOTO 0x0395
 61: 0x031D [0x02] IF !(Work_Zone[5] == 15*) GOTO 0x032C
 62: 0x0325 [0x1D] PRINT_EVENT_MESSAGE(message_id=8508*)
    → "You'd think after spending time with all those chic avatars, a shred of their fashion sense would have rubbed off on you..."
 63: 0x0328 [0x23] WAIT_FOR_DIALOG_INTERACTION
 64: 0x0329 [0x01] GOTO 0x0395
 65: 0x032C [0x02] IF !(Work_Zone[5] == 16*) GOTO 0x033B
 66: 0x0334 [0x1D] PRINT_EVENT_MESSAGE(message_id=8509*)
    → "Oh please, blue is so last season! You are allowed to wear other colors, you know..."
 67: 0x0337 [0x23] WAIT_FOR_DIALOG_INTERACTION
 68: 0x0338 [0x01] GOTO 0x0395
 69: 0x033B [0x02] IF !(Work_Zone[5] == 17*) GOTO 0x034A
 70: 0x0343 [0x1D] PRINT_EVENT_MESSAGE(message_id=8510*)
    → "So, you walk around like that without getting arrested? The fashion police must be getting soft..."
 71: 0x0346 [0x23] WAIT_FOR_DIALOG_INTERACTION
 72: 0x0347 [0x01] GOTO 0x0395
 73: 0x034A [0x02] IF !(Work_Zone[5] == 18*) GOTO 0x0359
 74: 0x0352 [0x1D] PRINT_EVENT_MESSAGE(message_id=8511*)
    → "Why, exactly, does what you're wearing have anything to do with puppets? Maybe you should stand behind a screen when you perform..."
 75: 0x0355 [0x23] WAIT_FOR_DIALOG_INTERACTION
 76: 0x0356 [0x01] GOTO 0x0395
 77: 0x0359 [0x02] IF !(Work_Zone[5] == 19*) GOTO 0x0368
 78: 0x0361 [0x1D] PRINT_EVENT_MESSAGE(message_id=8512*)
    → "Is this what dancers wear on stage? I certainly hope you fired the costume designer for your last performance..."
 79: 0x0364 [0x23] WAIT_FOR_DIALOG_INTERACTION
 80: 0x0365 [0x01] GOTO 0x0395
 81: 0x0368 [0x02] IF !(Work_Zone[5] == 20*) GOTO 0x0377
 82: 0x0370 [0x1D] PRINT_EVENT_MESSAGE(message_id=8513*)
    → "As a scholar, I'm assuming you know how to read. Ever tried opening a book about fashion...?"
 83: 0x0373 [0x23] WAIT_FOR_DIALOG_INTERACTION
 84: 0x0374 [0x01] GOTO 0x0395
 85: 0x0377 [0x02] IF !(Work_Zone[5] == 21*) GOTO 0x0386
 86: 0x037F [0x1D] PRINT_EVENT_MESSAGE(message_id=8514*)
    → "How are you going to harness the power of the lifestream if you can't even grasp the concept of not looking like chocobo excrement? You're a blight upon geomancers everywhere."
 87: 0x0382 [0x23] WAIT_FOR_DIALOG_INTERACTION
 88: 0x0383 [0x01] GOTO 0x0395
 89: 0x0386 [0x02] IF !(Work_Zone[5] == 22*) GOTO 0x0395
 90: 0x038E [0x1D] PRINT_EVENT_MESSAGE(message_id=8515*)
    → "Having runes etched into your body doesn't put you above the laws of fashion, you know. Just remember, clothes make the adventurer, and not the other way around!"
 91: 0x0391 [0x23] WAIT_FOR_DIALOG_INTERACTION
 92: 0x0392 [0x01] GOTO 0x0395

SUBROUTINE_0395:
 93: 0x0395 [0x1D] PRINT_EVENT_MESSAGE(message_id=8516*)
    → "No, no, no! You can't walk around dressed like that! Not if I, Brygid, stylist extraordinaire, have anything to say about it! Now how can we get you back on track for this year's fashion...?"
 94: 0x0398 [0x23] WAIT_FOR_DIALOG_INTERACTION
 95: 0x0399 [0x5B] LOAD_EXT_SCHEDULER: Load scheduler "tlk0" with entities [EventEntity, EventEntity], work=80*
 96: 0x03A8 [0x42] SET_CLI_EVENT_CANCEL_DATA()
 97: 0x03A9 [0x43] SEND_EVENT_UPDATE: Send pending tag to server (packet 0x005B)
 98: 0x03AB [0x43] SEND_EVENT_UPDATE: Check pending flag (skip if not pending)
 99: 0x03AD [0x1D] PRINT_EVENT_MESSAGE(message_id=8517*)
    → "Let me see... For a person of your size and build, $1 and $2 should do the trick! Yes, I can see it now! You'll look marvelous!"
100: 0x03B0 [0x23] WAIT_FOR_DIALOG_INTERACTION
101: 0x03B1 [0x21] END_EVENT
102: 0x03B2 [0x00] END_REQSTACK()
```

### Event 382

#### Metadata

| Field        | Value     |
|--------------|-----------|
| Entrypoint   | 0x03B3    |
| Data Size    | 927 bytes |
| Instructions | 124       |

```
      00 01 02 03 04 05 06 07  08 09 0A 0B 0C 0D 0E 0F
      -- -- -- -- -- -- -- --  -- -- -- -- -- -- -- --
03B0:          1E F0 FF FF 7F  02 02 10 11 80 00 C7 03     .............
03C0: 1D 43 80 23 01 CB 03 1D  44 80 23 1D 45 80 23 42  .C.#....D.#.E.#B
03D0: 03 02 10 46 80 03 03 10  47 80 03 04 10 48 80 03  ...F....G....H..
03E0: 05 10 49 80 03 06 10 4A  80 03 07 10 4B 80 03 08  ..I....J....K...
03F0: 10 4C 80 03 09 10 4D 80  24 4E 80 11 80 11 80 25  .L....M.$N.....%
0400: 02 00 10 11 80 00 15 04  03 03 10 46 80 03 01 10  ...........F....
0410: 15 80 01 77 05 02 00 10  15 80 00 2A 04 03 03 10  ...w.......*....
0420: 47 80 03 01 10 17 80 01  77 05 02 00 10 17 80 00  G.......w.......
0430: 3F 04 03 03 10 48 80 03  01 10 19 80 01 77 05 02  ?....H.......w..
0440: 00 10 19 80 00 54 04 03  03 10 49 80 03 01 10 1B  .....T....I.....
0450: 80 01 77 05 02 00 10 1B  80 00 69 04 03 03 10 4A  ..w.......i....J
0460: 80 03 01 10 1D 80 01 77  05 02 00 10 1D 80 00 7E  .......w.......~
0470: 04 03 03 10 4B 80 03 01  10 1F 80 01 77 05 02 00  ....K.......w...
0480: 10 1F 80 00 93 04 03 03  10 4C 80 03 01 10 21 80  .........L....!.
0490: 01 77 05 02 00 10 21 80  00 A8 04 03 03 10 4D 80  .w....!.......M.
04A0: 03 01 10 23 80 01 77 05  02 00 10 23 80 00 61 05  ...#..w....#..a.
04B0: 03 02 10 4F 80 03 03 10  50 80 03 04 10 51 80 03  ...O....P....Q..
04C0: 05 10 52 80 03 06 10 53  80 24 54 80 11 80 11 80  ..R....S.$T.....
04D0: 25 02 00 10 11 80 00 E6  04 03 03 10 4F 80 03 01  %...........O...
04E0: 10 25 80 01 5E 05 02 00  10 15 80 00 FB 04 03 03  .%..^...........
04F0: 10 50 80 03 01 10 27 80  01 5E 05 02 00 10 17 80  .P....'..^......
0500: 00 10 05 03 03 10 51 80  03 01 10 29 80 01 5E 05  ......Q....)..^.
0510: 02 00 10 19 80 00 25 05  03 03 10 52 80 03 01 10  ......%....R....
0520: 2B 80 01 5E 05 02 00 10  1B 80 00 3A 05 03 03 10  +..^.......:....
0530: 53 80 03 01 10 04 80 01  5E 05 02 00 10 1D 80 00  S.......^.......
0540: 48 05 01 D0 03 01 5E 05  02 00 10 1F 80 00 5E 05  H.....^.......^.
0550: 1D 55 80 23 03 01 10 56  80 21 00 01 5E 05 01 77  .U.#...V.!..^..w
0560: 05 02 00 10 25 80 00 77  05 1D 55 80 23 03 01 10  ....%..w..U.#...
0570: 56 80 21 00 01 77 05 93  03 10 43 00 43 01 02 02  V.!..w....C.C...
0580: 10 11 80 01 93 05 1D 57  80 23 93 11 80 01 D0 03  .......W.#......
0590: 01 50 07 02 03 10 11 80  80 AD 05 03 03 10 46 80  .P............F.
05A0: 03 04 10 58 80 03 01 10  15 80 01 E0 06 02 03 10  ...X............
05B0: 15 80 80 C7 05 03 03 10  47 80 03 04 10 59 80 03  ........G....Y..
05C0: 01 10 17 80 01 E0 06 02  03 10 17 80 80 E1 05 03  ................
05D0: 03 10 48 80 03 04 10 5A  80 03 01 10 19 80 01 E0  ..H....Z........
05E0: 06 02 03 10 19 80 80 F6  05 03 03 10 49 80 03 04  ............I...
05F0: 10 5B 80 01 E0 06 02 03  10 1B 80 80 10 06 03 03  .[..............
0600: 10 4A 80 03 04 10 5C 80  03 01 10 1D 80 01 E0 06  .J....\.........
0610: 02 03 10 1D 80 80 2A 06  03 03 10 4B 80 03 04 10  ......*....K....
0620: 5D 80 03 01 10 1F 80 01  E0 06 02 03 10 1F 80 80  ]...............
0630: 44 06 03 03 10 4C 80 03  04 10 5E 80 03 01 10 21  D....L....^....!
0640: 80 01 E0 06 02 03 10 21  80 80 5E 06 03 03 10 4D  .......!..^....M
0650: 80 03 04 10 5F 80 03 01  10 23 80 01 E0 06 02 03  ...._....#......
0660: 10 23 80 80 78 06 03 03  10 4F 80 03 04 10 60 80  .#..x....O....`.
0670: 03 01 10 25 80 01 E0 06  02 03 10 25 80 80 92 06  ...%.......%....
0680: 03 03 10 50 80 03 04 10  61 80 03 01 10 27 80 01  ...P....a....'..
0690: E0 06 02 03 10 27 80 80  AC 06 03 03 10 51 80 03  .....'.......Q..
06A0: 04 10 62 80 03 01 10 29  80 01 E0 06 02 03 10 29  ..b....).......)
06B0: 80 80 C6 06 03 03 10 52  80 03 04 10 63 80 03 01  .......R....c...
06C0: 10 2B 80 01 E0 06 02 03  10 2B 80 80 E0 06 03 03  .+.......+......
06D0: 10 53 80 03 04 10 64 80  03 01 10 04 80 01 E0 06  .S....d.........
06E0: 1D 65 80 23 1D 66 80 23  93 11 80 24 67 80 15 80  .e.#.f.#...$g...
06F0: 11 80 25 02 00 10 11 80  00 3E 07 02 05 10 11 80  ..%......>......
0700: 00 28 07 1D 68 80 23 24  69 80 15 80 11 80 25 02  .(..h.#$i.....%.
0710: 00 10 11 80 00 1A 07 01  28 07 02 00 10 15 80 00  ........(.......
0720: 28 07 01 D0 03 01 28 07  5B 08 80 F8 FF FF 7F F8  (.....(.[.......
0730: FF FF 7F 74 6C 6B 30 1D  6A 80 23 01 50 07 02 00  ...tlk0.j.#.P...
0740: 10 15 80 00 50 07 1D 6B  80 23 01 D0 03 01 50 07  ....P..k.#....P.
0750: 21 00                                             !.              
```

#### Opcodes

```
  0: 0x03B3 [0x1E] EventEntity looks at LocalPlayer and starts talking
  1: 0x03B8 [0x02] IF !(Work_Zone[2] == 0*) GOTO 0x03C7
  2: 0x03C0 [0x1D] PRINT_EVENT_MESSAGE(message_id=8519*)
    → "Ah, I am a genius! You're beginning to look much better already. But I won't always be there to hold your hand, you know. You'll need to learn to dress yourself."
  3: 0x03C3 [0x23] WAIT_FOR_DIALOG_INTERACTION
  4: 0x03C4 [0x01] GOTO 0x03CB
  5: 0x03C7 [0x1D] PRINT_EVENT_MESSAGE(message_id=8524*)
    → "Well, are you ready?"
  6: 0x03CA [0x23] WAIT_FOR_DIALOG_INTERACTION

SUBROUTINE_03CB:
  7: 0x03CB [0x1D] PRINT_EVENT_MESSAGE(message_id=8520*)
    → "Let's see if any of my talent has rubbed off. Which of the following items do you think would look the best on you?"
  8: 0x03CE [0x23] WAIT_FOR_DIALOG_INTERACTION
  9: 0x03CF [0x42] SET_CLI_EVENT_CANCEL_DATA()

SUBROUTINE_03D0:
 10: 0x03D0 [0x03] Work_Zone[2] = 14401*
 11: 0x03D5 [0x03] Work_Zone[3] = 14402*
 12: 0x03DA [0x03] Work_Zone[4] = 14403*
 13: 0x03DF [0x03] Work_Zone[5] = 14404*
 14: 0x03E4 [0x03] Work_Zone[6] = 14405*
 15: 0x03E9 [0x03] Work_Zone[7] = 14406*
 16: 0x03EE [0x03] Work_Zone[8] = 14407*
 17: 0x03F3 [0x03] Work_Zone[9] = 14408*
 18: 0x03F8 [0x24] CREATE_DIALOG(message_id=8521*, default_option=0*, option_flags=0*)
    → "The fashion bug is itching... [$0./$1./$2./$3./$4./$5./$6./$7./Next page./I'm not sure...]"
 19: 0x03FF [0x25] WAIT_DIALOG_SELECT()
 20: 0x0400 [0x02] IF !(Work_Zone[0] == 0*) GOTO 0x0415
 21: 0x0408 [0x03] Work_Zone[3] = 14401*
 22: 0x040D [0x03] Work_Zone[1] = 1*
 23: 0x0412 [0x01] GOTO 0x0577
 24: 0x0415 [0x02] IF !(Work_Zone[0] == 1*) GOTO 0x042A
 25: 0x041D [0x03] Work_Zone[3] = 14402*
 26: 0x0422 [0x03] Work_Zone[1] = 2*
 27: 0x0427 [0x01] GOTO 0x0577
 28: 0x042A [0x02] IF !(Work_Zone[0] == 2*) GOTO 0x043F
 29: 0x0432 [0x03] Work_Zone[3] = 14403*
 30: 0x0437 [0x03] Work_Zone[1] = 3*
 31: 0x043C [0x01] GOTO 0x0577
 32: 0x043F [0x02] IF !(Work_Zone[0] == 3*) GOTO 0x0454
 33: 0x0447 [0x03] Work_Zone[3] = 14404*
 34: 0x044C [0x03] Work_Zone[1] = 4*
 35: 0x0451 [0x01] GOTO 0x0577
 36: 0x0454 [0x02] IF !(Work_Zone[0] == 4*) GOTO 0x0469
 37: 0x045C [0x03] Work_Zone[3] = 14405*
 38: 0x0461 [0x03] Work_Zone[1] = 5*
 39: 0x0466 [0x01] GOTO 0x0577
 40: 0x0469 [0x02] IF !(Work_Zone[0] == 5*) GOTO 0x047E
 41: 0x0471 [0x03] Work_Zone[3] = 14406*
 42: 0x0476 [0x03] Work_Zone[1] = 6*
 43: 0x047B [0x01] GOTO 0x0577
 44: 0x047E [0x02] IF !(Work_Zone[0] == 6*) GOTO 0x0493
 45: 0x0486 [0x03] Work_Zone[3] = 14407*
 46: 0x048B [0x03] Work_Zone[1] = 7*
 47: 0x0490 [0x01] GOTO 0x0577
 48: 0x0493 [0x02] IF !(Work_Zone[0] == 7*) GOTO 0x04A8
 49: 0x049B [0x03] Work_Zone[3] = 14408*
 50: 0x04A0 [0x03] Work_Zone[1] = 8*
 51: 0x04A5 [0x01] GOTO 0x0577
 52: 0x04A8 [0x02] IF !(Work_Zone[0] == 8*) GOTO 0x0561
 53: 0x04B0 [0x03] Work_Zone[2] = 14409*
 54: 0x04B5 [0x03] Work_Zone[3] = 14410*
 55: 0x04BA [0x03] Work_Zone[4] = 14411*
 56: 0x04BF [0x03] Work_Zone[5] = 14412*
 57: 0x04C4 [0x03] Work_Zone[6] = 14413*
 58: 0x04C9 [0x24] CREATE_DIALOG(message_id=8522*, default_option=0*, option_flags=0*)
    → "The fashion bug is itching... [$0./$1./$2./$3./$4./Previous page./I need some more time...]"
 59: 0x04D0 [0x25] WAIT_DIALOG_SELECT()
 60: 0x04D1 [0x02] IF !(Work_Zone[0] == 0*) GOTO 0x04E6
 61: 0x04D9 [0x03] Work_Zone[3] = 14409*
 62: 0x04DE [0x03] Work_Zone[1] = 9*
 63: 0x04E3 [0x01] GOTO 0x055E
 64: 0x04E6 [0x02] IF !(Work_Zone[0] == 1*) GOTO 0x04FB
 65: 0x04EE [0x03] Work_Zone[3] = 14410*
 66: 0x04F3 [0x03] Work_Zone[1] = 10*
 67: 0x04F8 [0x01] GOTO 0x055E
 68: 0x04FB [0x02] IF !(Work_Zone[0] == 2*) GOTO 0x0510
 69: 0x0503 [0x03] Work_Zone[3] = 14411*
 70: 0x0508 [0x03] Work_Zone[1] = 11*
 71: 0x050D [0x01] GOTO 0x055E
 72: 0x0510 [0x02] IF !(Work_Zone[0] == 3*) GOTO 0x0525
 73: 0x0518 [0x03] Work_Zone[3] = 14412*
 74: 0x051D [0x03] Work_Zone[1] = 12*
 75: 0x0522 [0x01] GOTO 0x055E
 76: 0x0525 [0x02] IF !(Work_Zone[0] == 4*) GOTO 0x053A
 77: 0x052D [0x03] Work_Zone[3] = 14413*
 78: 0x0532 [0x03] Work_Zone[1] = 13*
 79: 0x0537 [0x01] GOTO 0x055E
 80: 0x053A [0x02] IF !(Work_Zone[0] == 5*) GOTO 0x0548
 81: 0x0542 [0x01] GOTO 0x03D0

SUBROUTINE_055E:
 82: 0x055E [0x01] GOTO 0x0577
 83: 0x0561 [0x02] IF !(Work_Zone[0] == 9*) GOTO 0x0577
 84: 0x0569 [0x1D] PRINT_EVENT_MESSAGE(message_id=8523*)
    → "Can't make up our minds, can we? Well, I suggest that we try thinking a little harder. We wouldn't want to keep a busy lady waiting now, would we?"
 85: 0x056C [0x23] WAIT_FOR_DIALOG_INTERACTION
 86: 0x056D [0x03] Work_Zone[1] = 99*
 87: 0x0572 [0x21] END_EVENT
 88: 0x0573 [0x00] END_REQSTACK()

SUBROUTINE_0577:
 89: 0x0577 [0x93] DISPLAY_ITEM_INFO(item_id=Work_Zone[3])
 90: 0x057A [0x43] SEND_EVENT_UPDATE: Send pending tag to server (packet 0x005B)
 91: 0x057C [0x43] SEND_EVENT_UPDATE: Check pending flag (skip if not pending)
 92: 0x057E [0x02] IF !(Work_Zone[2] == 0*) GOTO 0x0593
 93: 0x0586 [0x1D] PRINT_EVENT_MESSAGE(message_id=8525*)
    → "Wait a minute... Wearing something you already have is not the sign of a true fashion pioneer. You must have the courage to take chances! Don't tell me they didn't teach you that in adventuring school!"
 94: 0x0589 [0x23] WAIT_FOR_DIALOG_INTERACTION
 95: 0x058A [0x93] DISPLAY_ITEM_INFO(item_id=0*)
 96: 0x058D [0x01] GOTO 0x03D0

SUBROUTINE_06E0:
 97: 0x06E0 [0x1D] PRINT_EVENT_MESSAGE(message_id=8526*)
    → "Hmph... Not bad... Not what I would have chosen, but not bad."
 98: 0x06E3 [0x23] WAIT_FOR_DIALOG_INTERACTION
 99: 0x06E4 [0x1D] PRINT_EVENT_MESSAGE(message_id=8527*)
    → "Would you like to try one on? If you want, I could give you mine..."
100: 0x06E7 [0x23] WAIT_FOR_DIALOG_INTERACTION
101: 0x06E8 [0x93] DISPLAY_ITEM_INFO(item_id=0*)
102: 0x06EB [0x24] CREATE_DIALOG(message_id=8528*, default_option=1*, option_flags=0*)
    → "What do you say? [Where's the fitting room?/Now that I think about it...]"
103: 0x06F2 [0x25] WAIT_DIALOG_SELECT()
104: 0x06F3 [0x02] IF !(Work_Zone[0] == 0*) GOTO 0x073E
105: 0x06FB [0x02] IF !(Work_Zone[5] == 0*) GOTO 0x0728
106: 0x0703 [0x1D] PRINT_EVENT_MESSAGE(message_id=8530*)
    → "I don't think your current job will allow you to equip that garment..."
107: 0x0706 [0x23] WAIT_FOR_DIALOG_INTERACTION
108: 0x0707 [0x24] CREATE_DIALOG(message_id=8531*, default_option=1*, option_flags=0*)
    → "Do you still want to try it on? [I know what I'm doing./I'll choose something else.]"
109: 0x070E [0x25] WAIT_DIALOG_SELECT()
110: 0x070F [0x02] IF !(Work_Zone[0] == 0*) GOTO 0x071A
111: 0x0717 [0x01] GOTO 0x0728
112: 0x071A [0x02] IF !(Work_Zone[0] == 1*) GOTO 0x0728
113: 0x0722 [0x01] GOTO 0x03D0

SUBROUTINE_0728:
114: 0x0728 [0x5B] LOAD_EXT_SCHEDULER: Load scheduler "tlk0" with entities [EventEntity, EventEntity], work=80*
115: 0x0737 [0x1D] PRINT_EVENT_MESSAGE(message_id=8532*)
    → "Alright! The piece is yours...after you've brought me $2! What? Don't tell me you've never heard of $2--they're all the rage!"
116: 0x073A [0x23] WAIT_FOR_DIALOG_INTERACTION
117: 0x073B [0x01] GOTO 0x0750
118: 0x073E [0x02] IF !(Work_Zone[0] == 1*) GOTO 0x0750
119: 0x0746 [0x1D] PRINT_EVENT_MESSAGE(message_id=8529*)
    → "Changed your mind already? I know exactly how you feel. Becoming a fashion leader doesn't happen on spur-of-the-moment decisions."
120: 0x0749 [0x23] WAIT_FOR_DIALOG_INTERACTION
121: 0x074A [0x01] GOTO 0x03D0

SUBROUTINE_0750:
122: 0x0750 [0x21] END_EVENT
123: 0x0751 [0x00] END_REQSTACK()
```

#### Data or dead code:

```
# Dead code (unreachable instructions):
     0x0545 [0x01] GOTO 0x055E
     0x055B [0x01] GOTO 0x055E
# Dead code (unreachable instructions):
     0x0574 [0x01] GOTO 0x0577
# Dead code (unreachable instructions):
     0x0590 [0x01] GOTO 0x0750
# Dead code (unreachable instructions):
     0x0725 [0x01] GOTO 0x0728
# Dead code (unreachable instructions):
     0x074D [0x01] GOTO 0x0750
```

### Event 383

#### Metadata

| Field        | Value    |
|--------------|----------|
| Entrypoint   | 0x0752   |
| Data Size    | 96 bytes |
| Instructions | 16       |

```
      00 01 02 03 04 05 06 07  08 09 0A 0B 0C 0D 0E 0F
      -- -- -- -- -- -- -- --  -- -- -- -- -- -- -- --
0750:       42 1E F0 FF FF 7F  6F 70 5B 08 80 F8 FF FF    B.....op[.....
0760: 7F F8 FF FF 7F 74 6C 6B  30 1D 6C 80 23 53 F8 FF  .....tlk0.l.#S..
0770: FF 7F F8 FF FF 7F 74 6C  6B 30 5B 08 80 F8 FF FF  ......tlk0[.....
0780: 7F F8 FF FF 7F 70 61 73  30 1D 6D 80 23 53 F8 FF  .....pas0.m.#S..
0790: FF 7F F8 FF FF 7F 70 61  73 30 45 10 80 F8 FF FF  ......pas0E.....
07A0: 7F F8 FF FF 7F 71 73 74  63 11 80 03 01 10 03 10  .....qstc.......
07B0: 21 00                                             !.              
```

#### Opcodes

```
  0: 0x0752 [0x42] SET_CLI_EVENT_CANCEL_DATA()
  1: 0x0753 [0x1E] EventEntity looks at LocalPlayer and starts talking
  2: 0x0758 [0x6F] WAIT_FRAME_DELAY: Yield until WaitTime reaches zero
  3: 0x0759 [0x70] WAIT_ENTITY_RENDER_FLAG: Wait while EventEntity->Render.Flags3 bit 2 is set (cancel turn if not)
  4: 0x075A [0x5B] LOAD_EXT_SCHEDULER: Load scheduler "tlk0" with entities [EventEntity, EventEntity], work=80*
  5: 0x0769 [0x1D] PRINT_EVENT_MESSAGE(message_id=8534*)
    → "The color... The shape... The aroma... This is exactly what I was looking for!"
  6: 0x076C [0x23] WAIT_FOR_DIALOG_INTERACTION
  7: 0x076D [0x53] WAIT_SCHEDULER_TASK: Wait for scheduler "tlk0" with entities [EventEntity, EventEntity]
  8: 0x077A [0x5B] LOAD_EXT_SCHEDULER: Load scheduler "pas0" with entities [EventEntity, EventEntity], work=80*
  9: 0x0789 [0x1D] PRINT_EVENT_MESSAGE(message_id=8535*)
    → "Here's the garment I promised you. Wear this, and you'll be the center of attention! I guarantee it!"
 10: 0x078C [0x23] WAIT_FOR_DIALOG_INTERACTION
 11: 0x078D [0x53] WAIT_SCHEDULER_TASK: Wait for scheduler "pas0" with entities [EventEntity, EventEntity]
 12: 0x079A [0x45] LOAD_SCHEDULED_TASK: Load scheduler "qstc" with entities [EventEntity, EventEntity], work=[201*, 0*]
 13: 0x07AB [0x03] Work_Zone[1] = Work_Zone[3]
 14: 0x07B0 [0x21] END_EVENT
 15: 0x07B1 [0x00] END_REQSTACK()
```

### Event 384

#### Metadata

| Field        | Value    |
|--------------|----------|
| Entrypoint   | 0x07B2   |
| Data Size    | 11 bytes |
| Instructions | 5        |

```
      00 01 02 03 04 05 06 07  08 09 0A 0B 0C 0D 0E 0F
      -- -- -- -- -- -- -- --  -- -- -- -- -- -- -- --
07B0:       1E F0 FF FF 7F 1D  6E 80 23 21 00             ......n.#!.   
```

#### Opcodes

```
  0: 0x07B2 [0x1E] EventEntity looks at LocalPlayer and starts talking
  1: 0x07B7 [0x1D] PRINT_EVENT_MESSAGE(message_id=8518*)
    → "You've already forgotten? <Sigh>... What would you people do without me? You need to find $1 and $2!"
  2: 0x07BA [0x23] WAIT_FOR_DIALOG_INTERACTION
  3: 0x07BB [0x21] END_EVENT
  4: 0x07BC [0x00] END_REQSTACK()
```

### Event 385

#### Metadata

| Field        | Value    |
|--------------|----------|
| Entrypoint   | 0x07BD   |
| Data Size    | 11 bytes |
| Instructions | 5        |

```
      00 01 02 03 04 05 06 07  08 09 0A 0B 0C 0D 0E 0F
      -- -- -- -- -- -- -- --  -- -- -- -- -- -- -- --
07B0:                                         1E F0 FF               ...
07C0: FF 7F 1D 6F 80 23 21 00                           ...o.#!.        
```

#### Opcodes

```
  0: 0x07BD [0x1E] EventEntity looks at LocalPlayer and starts talking
  1: 0x07C2 [0x1D] PRINT_EVENT_MESSAGE(message_id=8533*)
    → "I'll give you my $1 if you bring me a sparkly new $2. But hurry up! Vana'diel's fashion trends change like the wind. I wouldn't want to be left behind!"
  2: 0x07C5 [0x23] WAIT_FOR_DIALOG_INTERACTION
  3: 0x07C6 [0x21] END_EVENT
  4: 0x07C7 [0x00] END_REQSTACK()
```

### Event 675

#### Metadata

| Field        | Value   |
|--------------|---------|
| Entrypoint   | 0x07C8  |
| Data Size    | 7 bytes |
| Instructions | 2       |

```
      00 01 02 03 04 05 06 07  08 09 0A 0B 0C 0D 0E 0F
      -- -- -- -- -- -- -- --  -- -- -- -- -- -- -- --
07C0:                          92 01 F8 FF FF 7F 00             ....... 
```

#### Opcodes

```
  0: 0x07C8 [0x92] EventEntity->Render.Flags3 ^= 0x01
  1: 0x07CE [0x00] END_REQSTACK()
```

### Event 676

#### Metadata

| Field        | Value   |
|--------------|---------|
| Entrypoint   | 0x07CF  |
| Data Size    | 7 bytes |
| Instructions | 2       |

```
      00 01 02 03 04 05 06 07  08 09 0A 0B 0C 0D 0E 0F
      -- -- -- -- -- -- -- --  -- -- -- -- -- -- -- --
07C0:                                               92                 .
07D0: 01 F8 FF FF 7F 00                                 ......          
```

#### Opcodes

```
  0: 0x07CF [0x92] EventEntity->Render.Flags3 ^= 0x01
  1: 0x07D5 [0x00] END_REQSTACK()
```

### Event 677

#### Metadata

| Field        | Value   |
|--------------|---------|
| Entrypoint   | 0x07D6  |
| Data Size    | 1 bytes |
| Instructions | 1       |

```
      00 01 02 03 04 05 06 07  08 09 0A 0B 0C 0D 0E 0F
      -- -- -- -- -- -- -- --  -- -- -- -- -- -- -- --
07D0:                   00                                    .         
```

#### Opcodes

```
  0: 0x07D6 [0x00] END_REQSTACK()
```

### Event 678

#### Metadata

| Field        | Value   |
|--------------|---------|
| Entrypoint   | 0x07D7  |
| Data Size    | 7 bytes |
| Instructions | 2       |

```
      00 01 02 03 04 05 06 07  08 09 0A 0B 0C 0D 0E 0F
      -- -- -- -- -- -- -- --  -- -- -- -- -- -- -- --
07D0:                      92  01 F8 FF FF 7F 00               .......  
```

#### Opcodes

```
  0: 0x07D7 [0x92] EventEntity->Render.Flags3 ^= 0x01
  1: 0x07DD [0x00] END_REQSTACK()
```

### Event 65535.2

#### Metadata

| Field        | Value    |
|--------------|----------|
| Entrypoint   | 0x07DE   |
| Data Size    | 14 bytes |
| Instructions | 4        |

```
      00 01 02 03 04 05 06 07  08 09 0A 0B 0C 0D 0E 0F
      -- -- -- -- -- -- -- --  -- -- -- -- -- -- -- --
07D0:                                            32 04                2.
07E0: 80 1F 00 70 80 71 80 72  80 1F 01 00              ...p.q.r....    
```

#### Opcodes

```
  0: 0x07DE [0x32] ExtData[1]->MainSpeed = 13* * 0.1
  1: 0x07E1 [0x1F] MOVE_ENTITY: EventEntity moves to X=-90.402*, Z=-103.367*, Y=-4.000*
  2: 0x07E9 [0x1F] MOVE_ENTITY: Update entity position (mode=1)
  3: 0x07EB [0x00] END_REQSTACK()
```

### Event 65535.3

#### Metadata

| Field        | Value   |
|--------------|---------|
| Entrypoint   | 0x07EC  |
| Data Size    | 4 bytes |
| Instructions | 2       |

```
      00 01 02 03 04 05 06 07  08 09 0A 0B 0C 0D 0E 0F
      -- -- -- -- -- -- -- --  -- -- -- -- -- -- -- --
07E0:                                      C0 15 80 00              ....
```

#### Opcodes

```
  0: 0x07EC [0xC0] EventEntity->Render.Flags3 |= 0x1000 // Set bit 12 (from 1*)
  1: 0x07EF [0x00] END_REQSTACK()
```

### Event 65535.4

#### Metadata

| Field        | Value   |
|--------------|---------|
| Entrypoint   | 0x07F0  |
| Data Size    | 4 bytes |
| Instructions | 2       |

```
      00 01 02 03 04 05 06 07  08 09 0A 0B 0C 0D 0E 0F
      -- -- -- -- -- -- -- --  -- -- -- -- -- -- -- --
07F0: C0 11 80 00                                       ....            
```

#### Opcodes

```
  0: 0x07F0 [0xC0] EventEntity->Render.Flags3 &= ~0x1000 // Clear bit 12 (from 0*)
  1: 0x07F3 [0x00] END_REQSTACK()
```
