# 17739953 - Isakoth

## Common Data

| Field            | Value                    |
|------------------|--------------------------|
| Zone             | Bastok Markets (ID: 235) |
| Block Size       | 15404 bytes              |
| Total Events     | 6                        |
| References Count | 915                      |

## List of Events

| Event ID              | Entrypoint   |   Size |   Instructions |
|-----------------------|--------------|--------|----------------|
| [65535](#event-65535) | 0x0000       |      1 |              1 |
| [24](#event-24)       | 0x0001       |   2423 |            324 |
| [25](#event-25)       | 0x0978       |     30 |              8 |
| [26](#event-26)       | 0x0996       |   8499 |           1092 |
| [27](#event-27)       | 0x2AC9       |    750 |             86 |
| [595](#event-595)     | 0x2DB7       |      1 |              1 |

## DAT References (imed_data)

|   Index | Hex Value   |   Dec Value |
|---------|-------------|-------------|
|       0 | 0x0093      |         147 |
|       1 | 0xFFFAB981  |  4294621569 |
|       2 | 0xFFFD672D  |  4294797101 |
|       3 | 0xFFFFD8EE  |  4294957294 |
|       4 | 0x00BA      |         186 |
|       5 | 0xFFFABCE8  |  4294622440 |
|       6 | 0xFFFD6985  |  4294797701 |
|       7 | 0x0187      |         391 |
|       8 | 0x00A3      |         163 |
|       9 | 0x001E      |          30 |
|      10 | 0x0274      |         628 |
|      11 | 0x0000      |           0 |
|      12 | 0x000F      |          15 |
|      13 | 0x0024      |          36 |
|      14 | 0x003C      |          60 |
|      15 | 0x377A      |       14202 |
|      16 | 0x377B      |       14203 |
|      17 | 0x0007      |           7 |
|      18 | 0x377F      |       14207 |
|      19 | 0x0001      |           1 |
|      20 | 0x0004      |           4 |
|      21 | 0x377E      |       14206 |
|      22 | 0x0016      |          22 |
|      23 | 0x377D      |       14205 |
|      24 | 0x0002      |           2 |
|      25 | 0x0010      |          16 |
|      26 | 0x377C      |       14204 |
|      27 | 0x3780      |       14208 |
|      28 | 0x3781      |       14209 |
|      29 | 0x0005      |           5 |
|      30 | 0x0006      |           6 |
|      31 | 0x0015      |          21 |
|      32 | 0x00FC      |         252 |
|      33 | 0x09A2      |        2466 |
|      34 | 0x379D      |       14237 |
|      35 | 0x0078      |         120 |
|      36 | 0x0009      |           9 |
|      37 | 0x3782      |       14210 |
|      38 | 0x3783      |       14211 |
|      39 | 0x3784      |       14212 |
|      40 | 0x3785      |       14213 |
|      41 | 0x3786      |       14214 |
|      42 | 0x0019      |          25 |
|      43 | 0x3787      |       14215 |
|      44 | 0x3788      |       14216 |
|      45 | 0x3789      |       14217 |
|      46 | 0x378A      |       14218 |
|      47 | 0x378B      |       14219 |
|      48 | 0x03BE      |         958 |
|      49 | 0x378C      |       14220 |
|      50 | 0x378D      |       14221 |
|      51 | 0x378E      |       14222 |
|      52 | 0x0268      |         616 |
|      53 | 0x378F      |       14223 |
|      54 | 0x3790      |       14224 |
|      55 | 0x0003      |           3 |
|      56 | 0x0008      |           8 |
|      57 | 0x005A      |          90 |
|      58 | 0x3791      |       14225 |
|      59 | 0x000E      |          14 |
|      60 | 0x3792      |       14226 |
|      61 | 0x000A      |          10 |
|      62 | 0x3793      |       14227 |
|      63 | 0x3794      |       14228 |
|      64 | 0x3795      |       14229 |
|      65 | 0x3796      |       14230 |
|      66 | 0x0028      |          40 |
|      67 | 0x0080      |         128 |
|      68 | 0x0096      |         150 |
|      69 | 0x0098      |         152 |
|      70 | 0x00C9      |         201 |
|      71 | 0x00C8      |         200 |
|      72 | 0x3779      |       14201 |
|      73 | 0x00E6      |         230 |
|      74 | 0x37A0      |       14240 |
|      75 | 0x00EB      |         235 |
|      76 | 0x37A5      |       14245 |
|      77 | 0x00F1      |         241 |
|      78 | 0x37AA      |       14250 |
|      79 | 0x0100      |         256 |
|      80 | 0x37B0      |       14256 |
|      81 | 0x0C00      |        3072 |
|      82 | 0x2C00      |       11264 |
|      83 | 0x0014      |          20 |
|      84 | 0x000B      |          11 |
|      85 | 0x37C1      |       14273 |
|      86 | 0x000C      |          12 |
|      87 | 0x000D      |          13 |
|      88 | 0x0027      |          39 |
|      89 | 0x37A1      |       14241 |
|      90 | 0x37A6      |       14246 |
|      91 | 0x003B      |          59 |
|      92 | 0x37AB      |       14251 |
|      93 | 0x0045      |          69 |
|      94 | 0x37B1      |       14257 |
|      95 | 0x37B5      |       14261 |
|      96 | 0x37B6      |       14262 |
|      97 | 0x37B7      |       14263 |
|      98 | 0x37B8      |       14264 |
|      99 | 0x37B9      |       14265 |
|     100 | 0x37BA      |       14266 |
|     101 | 0x37BB      |       14267 |
|     102 | 0x37A2      |       14242 |
|     103 | 0x37A3      |       14243 |
|     104 | 0x37A7      |       14247 |
|     105 | 0x37A8      |       14248 |
|     106 | 0x37AC      |       14252 |
|     107 | 0x37AD      |       14253 |
|     108 | 0x37AE      |       14254 |
|     109 | 0x37B2      |       14258 |
|     110 | 0x37B3      |       14259 |
|     111 | 0x1055      |        4181 |
|     112 | 0x1056      |        4182 |
|     113 | 0x0FE0      |        4064 |
|     114 | 0x0FE1      |        4065 |
|     115 | 0x0FE2      |        4066 |
|     116 | 0x0FE3      |        4067 |
|     117 | 0x0FE4      |        4068 |
|     118 | 0x0FE5      |        4069 |
|     119 | 0x0FE6      |        4070 |
|     120 | 0x0FE7      |        4071 |
|     121 | 0x0FE8      |        4072 |
|     122 | 0x0FE9      |        4073 |
|     123 | 0x6F82      |       28546 |
|     124 | 0x2331      |        9009 |
|     125 | 0x1D4C      |        7500 |
|     126 | 0x3A98      |       15000 |
|     127 | 0x1388      |        5000 |
|     128 | 0x2710      |       10000 |
|     129 | 0x2795      |       10133 |
|     130 | 0x01F4      |         500 |
|     131 | 0x1803      |        6147 |
|     132 | 0x1804      |        6148 |
|     133 | 0x1805      |        6149 |
|     134 | 0x1806      |        6150 |
|     135 | 0x1807      |        6151 |
|     136 | 0x1808      |        6152 |
|     137 | 0x1809      |        6153 |
|     138 | 0x180A      |        6154 |
|     139 | 0x180B      |        6155 |
|     140 | 0x180C      |        6156 |
|     141 | 0x180D      |        6157 |
|     142 | 0x180E      |        6158 |
|     143 | 0x180F      |        6159 |
|     144 | 0x1810      |        6160 |
|     145 | 0x1811      |        6161 |
|     146 | 0x1812      |        6162 |
|     147 | 0x1813      |        6163 |
|     148 | 0x1814      |        6164 |
|     149 | 0x1815      |        6165 |
|     150 | 0x1816      |        6166 |
|     151 | 0x1817      |        6167 |
|     152 | 0x1818      |        6168 |
|     153 | 0x1819      |        6169 |
|     154 | 0x181A      |        6170 |
|     155 | 0x181B      |        6171 |
|     156 | 0x181C      |        6172 |
|     157 | 0x181D      |        6173 |
|     158 | 0x181E      |        6174 |
|     159 | 0x181F      |        6175 |
|     160 | 0x1820      |        6176 |
|     161 | 0x1821      |        6177 |
|     162 | 0x1822      |        6178 |
|     163 | 0x1823      |        6179 |
|     164 | 0x4001      |       16385 |
|     165 | 0x4006      |       16390 |
|     166 | 0x4007      |       16391 |
|     167 | 0x4040      |       16448 |
|     168 | 0x4051      |       16465 |
|     169 | 0x4046      |       16454 |
|     170 | 0x4057      |       16471 |
|     171 | 0x4041      |       16449 |
|     172 | 0x40D8      |       16600 |
|     173 | 0x4092      |       16530 |
|     174 | 0x4100      |       16640 |
|     175 | 0x4101      |       16641 |
|     176 | 0x4140      |       16704 |
|     177 | 0x4145      |       16709 |
|     178 | 0x4180      |       16768 |
|     179 | 0x41C0      |       16832 |
|     180 | 0x41C1      |       16833 |
|     181 | 0x4200      |       16896 |
|     182 | 0x4204      |       16900 |
|     183 | 0x4246      |       16966 |
|     184 | 0x4280      |       17024 |
|     185 | 0x428A      |       17034 |
|     186 | 0x4292      |       17042 |
|     187 | 0x42A3      |       17059 |
|     188 | 0x429A      |       17050 |
|     189 | 0x42C0      |       17088 |
|     190 | 0x42C7      |       17095 |
|     191 | 0x4300      |       17152 |
|     192 | 0x4308      |       17160 |
|     193 | 0x4301      |       17153 |
|     194 | 0x4340      |       17216 |
|     195 | 0x4B18      |       19224 |
|     196 | 0x43C1      |       17345 |
|     197 | 0x43C0      |       17344 |
|     198 | 0x43C3      |       17347 |
|     199 | 0x43C9      |       17353 |
|     200 | 0x30A0      |       12448 |
|     201 | 0x3120      |       12576 |
|     202 | 0x31A0      |       12704 |
|     203 | 0x3220      |       12832 |
|     204 | 0x32A0      |       12960 |
|     205 | 0x30B8      |       12472 |
|     206 | 0x3138      |       12600 |
|     207 | 0x31B8      |       12728 |
|     208 | 0x3238      |       12856 |
|     209 | 0x32B8      |       12984 |
|     210 | 0x3098      |       12440 |
|     211 | 0x3118      |       12568 |
|     212 | 0x3198      |       12696 |
|     213 | 0x3218      |       12824 |
|     214 | 0x3298      |       12952 |
|     215 | 0x3140      |       12608 |
|     216 | 0x31C0      |       12736 |
|     217 | 0x3240      |       12864 |
|     218 | 0x32C0      |       12992 |
|     219 | 0x30A8      |       12456 |
|     220 | 0x3128      |       12584 |
|     221 | 0x31A8      |       12712 |
|     222 | 0x3228      |       12840 |
|     223 | 0x32A8      |       12968 |
|     224 | 0x3001      |       12289 |
|     225 | 0x307F      |       12415 |
|     226 | 0x3002      |       12290 |
|     227 | 0x300B      |       12299 |
|     228 | 0x0032      |          50 |
|     229 | 0x4017      |       16407 |
|     230 | 0x4042      |       16450 |
|     231 | 0x4052      |       16466 |
|     232 | 0x4047      |       16455 |
|     233 | 0x40BC      |       16572 |
|     234 | 0x4093      |       16531 |
|     235 | 0x4098      |       16536 |
|     236 | 0x40C7      |       16583 |
|     237 | 0x40CC      |       16588 |
|     238 | 0x4102      |       16642 |
|     239 | 0x4109      |       16649 |
|     240 | 0x4141      |       16705 |
|     241 | 0x4181      |       16769 |
|     242 | 0x4186      |       16774 |
|     243 | 0x41C2      |       16834 |
|     244 | 0x469C      |       18076 |
|     245 | 0x4217      |       16919 |
|     246 | 0x420A      |       16906 |
|     247 | 0x4240      |       16960 |
|     248 | 0x4256      |       16982 |
|     249 | 0x4293      |       17043 |
|     250 | 0x42B9      |       17081 |
|     251 | 0x4281      |       17025 |
|     252 | 0x429B      |       17051 |
|     253 | 0x428B      |       17035 |
|     254 | 0x42C1      |       17089 |
|     255 | 0x42C8      |       17096 |
|     256 | 0x4309      |       17161 |
|     257 | 0x4341      |       17217 |
|     258 | 0x4369      |       17257 |
|     259 | 0x4371      |       17265 |
|     260 | 0x43C7      |       17351 |
|     261 | 0x43CA      |       17354 |
|     262 | 0x3090      |       12432 |
|     263 | 0x3110      |       12560 |
|     264 | 0x3190      |       12688 |
|     265 | 0x3210      |       12816 |
|     266 | 0x3290      |       12944 |
|     267 | 0x30B0      |       12464 |
|     268 | 0x3130      |       12592 |
|     269 | 0x31B0      |       12720 |
|     270 | 0x3230      |       12848 |
|     271 | 0x32B0      |       12976 |
|     272 | 0x30A6      |       12454 |
|     273 | 0x3126      |       12582 |
|     274 | 0x31A6      |       12710 |
|     275 | 0x3222      |       12834 |
|     276 | 0x32A6      |       12966 |
|     277 | 0x3099      |       12441 |
|     278 | 0x3119      |       12569 |
|     279 | 0x3199      |       12697 |
|     280 | 0x3219      |       12825 |
|     281 | 0x3299      |       12953 |
|     282 | 0x3003      |       12291 |
|     283 | 0x0050      |          80 |
|     284 | 0x0046      |          70 |
|     285 | 0x0084      |         132 |
|     286 | 0x0062      |          98 |
|     287 | 0x005D      |          93 |
|     288 | 0x005B      |          91 |
|     289 | 0x00B1      |         177 |
|     290 | 0x0059      |          89 |
|     291 | 0x0044      |          68 |
|     292 | 0x0087      |         135 |
|     293 | 0x0051      |          81 |
|     294 | 0x0063      |          99 |
|     295 | 0x00BB      |         187 |
|     296 | 0x0056      |          86 |
|     297 | 0x0041      |          65 |
|     298 | 0x4008      |       16392 |
|     299 | 0x4016      |       16406 |
|     300 | 0x4003      |       16387 |
|     301 | 0x4059      |       16473 |
|     302 | 0x4070      |       16496 |
|     303 | 0x4058      |       16472 |
|     304 | 0x4043      |       16451 |
|     305 | 0x4085      |       16517 |
|     306 | 0x4081      |       16513 |
|     307 | 0x4094      |       16532 |
|     308 | 0x40D1      |       16593 |
|     309 | 0x40D2      |       16594 |
|     310 | 0x4103      |       16643 |
|     311 | 0x4616      |       17942 |
|     312 | 0x4182      |       16770 |
|     313 | 0x41C3      |       16835 |
|     314 | 0x4570      |       17776 |
|     315 | 0x420B      |       16907 |
|     316 | 0x4294      |       17044 |
|     317 | 0x42C2      |       17090 |
|     318 | 0x4410      |       17424 |
|     319 | 0x4302      |       17154 |
|     320 | 0x4360      |       17248 |
|     321 | 0x436B      |       17259 |
|     322 | 0x3B67      |       15207 |
|     323 | 0x386E      |       14446 |
|     324 | 0x36E5      |       14053 |
|     325 | 0x3C2C      |       15404 |
|     326 | 0x3BEF      |       15343 |
|     327 | 0x3088      |       12424 |
|     328 | 0x3108      |       12552 |
|     329 | 0x3188      |       12680 |
|     330 | 0x3208      |       12808 |
|     331 | 0x3288      |       12936 |
|     332 | 0x3B3D      |       15165 |
|     333 | 0x385A      |       14426 |
|     334 | 0x3A0A      |       14858 |
|     335 | 0x37F7      |       14327 |
|     336 | 0x3BD3      |       15315 |
|     337 | 0x3B3F      |       15167 |
|     338 | 0x385F      |       14431 |
|     339 | 0x3A0C      |       14860 |
|     340 | 0x37F9      |       14329 |
|     341 | 0x3BD5      |       15317 |
|     342 | 0x3B3B      |       15163 |
|     343 | 0x3858      |       14424 |
|     344 | 0x3A08      |       14856 |
|     345 | 0x37F5      |       14325 |
|     346 | 0x3BD1      |       15313 |
|     347 | 0x3004      |       12292 |
|     348 | 0x307E      |       12414 |
|     349 | 0x3012      |       12306 |
|     350 | 0x0057      |          87 |
|     351 | 0x0090      |         144 |
|     352 | 0x0067      |         103 |
|     353 | 0x0060      |          96 |
|     354 | 0x007B      |         123 |
|     355 | 0x008F      |         143 |
|     356 | 0x00AA      |         170 |
|     357 | 0x00D7      |         215 |
|     358 | 0x010D      |         269 |
|     359 | 0x015D      |         349 |
|     360 | 0x0088      |         136 |
|     361 | 0x0053      |          83 |
|     362 | 0x00D1      |         209 |
|     363 | 0x0054      |          84 |
|     364 | 0x006D      |         109 |
|     365 | 0x0208      |         520 |
|     366 | 0x01B0      |         432 |
|     367 | 0x0047      |          71 |
|     368 | 0x00AB      |         171 |
|     369 | 0x0108      |         264 |
|     370 | 0x008D      |         141 |
|     371 | 0x00D2      |         210 |
|     372 | 0x0081      |         129 |
|     373 | 0x00C3      |         195 |
|     374 | 0x020D      |         525 |
|     375 | 0x012D      |         301 |
|     376 | 0x0162      |         354 |
|     377 | 0x017B      |         379 |
|     378 | 0x00FA      |         250 |
|     379 | 0x008C      |         140 |
|     380 | 0x0122      |         290 |
|     381 | 0x00EA      |         234 |
|     382 | 0x0061      |          97 |
|     383 | 0x0089      |         137 |
|     384 | 0x009D      |         157 |
|     385 | 0x0099      |         153 |
|     386 | 0x401B      |       16411 |
|     387 | 0x400F      |       16399 |
|     388 | 0x4009      |       16393 |
|     389 | 0x4AA1      |       19105 |
|     390 | 0x405B      |       16475 |
|     391 | 0x4048      |       16456 |
|     392 | 0x40A1      |       16545 |
|     393 | 0x40C0      |       16576 |
|     394 | 0x40C5      |       16581 |
|     395 | 0x40A5      |       16549 |
|     396 | 0x47C7      |       18375 |
|     397 | 0x40C8      |       16584 |
|     398 | 0x4623      |       17955 |
|     399 | 0x4104      |       16644 |
|     400 | 0x4726      |       18214 |
|     401 | 0x4142      |       16706 |
|     402 | 0x41CD      |       16845 |
|     403 | 0x469E      |       18078 |
|     404 | 0x41C4      |       16836 |
|     405 | 0x46CA      |       18122 |
|     406 | 0x4205      |       16901 |
|     407 | 0x424D      |       16973 |
|     408 | 0x4242      |       16962 |
|     409 | 0x424A      |       16970 |
|     410 | 0x4295      |       17045 |
|     411 | 0x429C      |       17052 |
|     412 | 0x42A5      |       17061 |
|     413 | 0x428C      |       17036 |
|     414 | 0x42B8      |       17080 |
|     415 | 0x42C9      |       17097 |
|     416 | 0x42C3      |       17091 |
|     417 | 0x430A      |       17162 |
|     418 | 0x4303      |       17155 |
|     419 | 0x4342      |       17218 |
|     420 | 0x491B      |       18715 |
|     421 | 0x4910      |       18704 |
|     422 | 0x43C4      |       17348 |
|     423 | 0x43CB      |       17355 |
|     424 | 0x3B3C      |       15164 |
|     425 | 0x3859      |       14425 |
|     426 | 0x3A09      |       14857 |
|     427 | 0x37F6      |       14326 |
|     428 | 0x3BD2      |       15314 |
|     429 | 0x3B39      |       15161 |
|     430 | 0x3856      |       14422 |
|     431 | 0x3A06      |       14854 |
|     432 | 0x37F3      |       14323 |
|     433 | 0x3BCF      |       15311 |
|     434 | 0x3142      |       12610 |
|     435 | 0x31C2      |       12738 |
|     436 | 0x3242      |       12866 |
|     437 | 0x32C2      |       12994 |
|     438 | 0x30A2      |       12450 |
|     439 | 0x3122      |       12578 |
|     440 | 0x31A2      |       12706 |
|     441 | 0x3224      |       12836 |
|     442 | 0x32A2      |       12962 |
|     443 | 0x30B2      |       12466 |
|     444 | 0x3132      |       12594 |
|     445 | 0x31B2      |       12722 |
|     446 | 0x3232      |       12850 |
|     447 | 0x32B2      |       12978 |
|     448 | 0x30BB      |       12475 |
|     449 | 0x313B      |       12603 |
|     450 | 0x31BB      |       12731 |
|     451 | 0x323B      |       12859 |
|     452 | 0x32BB      |       12987 |
|     453 | 0x362F      |       13871 |
|     454 | 0x35D7      |       13783 |
|     455 | 0x36B1      |       14001 |
|     456 | 0x3726      |       14118 |
|     457 | 0x300C      |       12300 |
|     458 | 0x3005      |       12293 |
|     459 | 0x304C      |       12364 |
|     460 | 0x00B6      |         182 |
|     461 | 0x00C2      |         194 |
|     462 | 0x013D      |         317 |
|     463 | 0x00F8      |         248 |
|     464 | 0x00C6      |         198 |
|     465 | 0x014E      |         334 |
|     466 | 0x01F1      |         497 |
|     467 | 0x01AE      |         430 |
|     468 | 0x01ED      |         493 |
|     469 | 0x0214      |         532 |
|     470 | 0x021C      |         540 |
|     471 | 0x0129      |         297 |
|     472 | 0x0203      |         515 |
|     473 | 0x009A      |         154 |
|     474 | 0x0082      |         130 |
|     475 | 0x00A8      |         168 |
|     476 | 0x0145      |         325 |
|     477 | 0x0144      |         324 |
|     478 | 0x00E4      |         228 |
|     479 | 0x00E2      |         226 |
|     480 | 0x013F      |         319 |
|     481 | 0x007A      |         122 |
|     482 | 0x0138      |         312 |
|     483 | 0x007D      |         125 |
|     484 | 0x0154      |         340 |
|     485 | 0x00B9      |         185 |
|     486 | 0x0109      |         265 |
|     487 | 0x00BE      |         190 |
|     488 | 0x007C      |         124 |
|     489 | 0x00C0      |         192 |
|     490 | 0x00AE      |         174 |
|     491 | 0x0052      |          82 |
|     492 | 0x00BC      |         188 |
|     493 | 0x006E      |         110 |
|     494 | 0x0055      |          85 |
|     495 | 0x0189      |         393 |
|     496 | 0x00D8      |         216 |
|     497 | 0x013C      |         316 |
|     498 | 0x00C4      |         196 |
|     499 | 0x00AF      |         175 |
|     500 | 0x011D      |         285 |
|     501 | 0x01A9      |         425 |
|     502 | 0x00F0      |         240 |
|     503 | 0x015B      |         347 |
|     504 | 0x0086      |         134 |
|     505 | 0x012E      |         302 |
|     506 | 0x01D0      |         464 |
|     507 | 0x4004      |       16388 |
|     508 | 0x401C      |       16412 |
|     509 | 0x4023      |       16419 |
|     510 | 0x404B      |       16459 |
|     511 | 0x44CA      |       17610 |
|     512 | 0x408A      |       16522 |
|     513 | 0x40AE      |       16558 |
|     514 | 0x40B4      |       16564 |
|     515 | 0x40B7      |       16567 |
|     516 | 0x40CE      |       16590 |
|     517 | 0x423D      |       16957 |
|     518 | 0x4111      |       16657 |
|     519 | 0x410B      |       16651 |
|     520 | 0x471F      |       18207 |
|     521 | 0x4187      |       16775 |
|     522 | 0x419C      |       16796 |
|     523 | 0x4682      |       18050 |
|     524 | 0x41CF      |       16847 |
|     525 | 0x4209      |       16905 |
|     526 | 0x4206      |       16902 |
|     527 | 0x420C      |       16908 |
|     528 | 0x4213      |       16915 |
|     529 | 0x4247      |       16967 |
|     530 | 0x42A6      |       17062 |
|     531 | 0x429D      |       17053 |
|     532 | 0x42CA      |       17098 |
|     533 | 0x4473      |       17523 |
|     534 | 0x430B      |       17163 |
|     535 | 0x4304      |       17156 |
|     536 | 0x430C      |       17164 |
|     537 | 0x4373      |       17267 |
|     538 | 0x4343      |       17219 |
|     539 | 0x4916      |       18710 |
|     540 | 0x43C8      |       17352 |
|     541 | 0x43C6      |       17350 |
|     542 | 0x3080      |       12416 |
|     543 | 0x3100      |       12544 |
|     544 | 0x3180      |       12672 |
|     545 | 0x3200      |       12800 |
|     546 | 0x3280      |       12928 |
|     547 | 0x3B65      |       15205 |
|     548 | 0x386C      |       14444 |
|     549 | 0x36E3      |       14051 |
|     550 | 0x3C2A      |       15402 |
|     551 | 0x3BED      |       15341 |
|     552 | 0x308A      |       12426 |
|     553 | 0x310A      |       12554 |
|     554 | 0x318A      |       12682 |
|     555 | 0x320A      |       12810 |
|     556 | 0x328A      |       12938 |
|     557 | 0x309C      |       12444 |
|     558 | 0x311C      |       12572 |
|     559 | 0x319C      |       12700 |
|     560 | 0x321C      |       12828 |
|     561 | 0x329C      |       12956 |
|     562 | 0x3081      |       12417 |
|     563 | 0x3101      |       12545 |
|     564 | 0x3181      |       12673 |
|     565 | 0x3201      |       12801 |
|     566 | 0x3281      |       12929 |
|     567 | 0x30AC      |       12460 |
|     568 | 0x312C      |       12588 |
|     569 | 0x31AC      |       12716 |
|     570 | 0x322C      |       12844 |
|     571 | 0x32AC      |       12972 |
|     572 | 0x3631      |       13873 |
|     573 | 0x35D9      |       13785 |
|     574 | 0x36B3      |       14003 |
|     575 | 0x3728      |       14120 |
|     576 | 0x3B8A      |       15242 |
|     577 | 0x38A2      |       14498 |
|     578 | 0x3A3B      |       14907 |
|     579 | 0x3CDA      |       15578 |
|     580 | 0x3D2F      |       15663 |
|     581 | 0x3013      |       12307 |
|     582 | 0x300D      |       12301 |
|     583 | 0x3006      |       12294 |
|     584 | 0x0072      |         114 |
|     585 | 0x012A      |         298 |
|     586 | 0x01A0      |         416 |
|     587 | 0x0174      |         372 |
|     588 | 0x01E0      |         480 |
|     589 | 0x02A8      |         680 |
|     590 | 0x0307      |         775 |
|     591 | 0x02A4      |         676 |
|     592 | 0x029D      |         669 |
|     593 | 0x0294      |         660 |
|     594 | 0x02E4      |         740 |
|     595 | 0x01E1      |         481 |
|     596 | 0x02B2      |         690 |
|     597 | 0x02BA      |         698 |
|     598 | 0x03F9      |        1017 |
|     599 | 0x0102      |         258 |
|     600 | 0x00E7      |         231 |
|     601 | 0x00E9      |         233 |
|     602 | 0x0176      |         374 |
|     603 | 0x0070      |         112 |
|     604 | 0x009C      |         156 |
|     605 | 0x0069      |         105 |
|     606 | 0x0168      |         360 |
|     607 | 0x00F7      |         247 |
|     608 | 0x0198      |         408 |
|     609 | 0x04B0      |        1200 |
|     610 | 0x00FF      |         255 |
|     611 | 0x0134      |         308 |
|     612 | 0x019E      |         414 |
|     613 | 0x0222      |         546 |
|     614 | 0x0120      |         288 |
|     615 | 0x00B4      |         180 |
|     616 | 0x02EE      |         750 |
|     617 | 0x0654      |        1620 |
|     618 | 0x028E      |         654 |
|     619 | 0x0216      |         534 |
|     620 | 0x01AB      |         427 |
|     621 | 0x0160      |         352 |
|     622 | 0x0142      |         322 |
|     623 | 0x00E0      |         224 |
|     624 | 0x0150      |         336 |
|     625 | 0x01B5      |         437 |
|     626 | 0x018C      |         396 |
|     627 | 0x016B      |         363 |
|     628 | 0x015A      |         346 |
|     629 | 0x0152      |         338 |
|     630 | 0x01C0      |         448 |
|     631 | 0x02B0      |         688 |
|     632 | 0x0170      |         368 |
|     633 | 0x024A      |         586 |
|     634 | 0x011F      |         287 |
|     635 | 0x0181      |         385 |
|     636 | 0x0137      |         311 |
|     637 | 0x6C5C      |       27740 |
|     638 | 0x6CE9      |       27881 |
|     639 | 0x6D7D      |       28029 |
|     640 | 0x6E08      |       28168 |
|     641 | 0x6E92      |       28306 |
|     642 | 0x6C5D      |       27741 |
|     643 | 0x6CEA      |       27882 |
|     644 | 0x6D7E      |       28030 |
|     645 | 0x6E09      |       28169 |
|     646 | 0x6E93      |       28307 |
|     647 | 0x6C5E      |       27742 |
|     648 | 0x6CEB      |       27883 |
|     649 | 0x6D7F      |       28031 |
|     650 | 0x6E0A      |       28170 |
|     651 | 0x6E94      |       28308 |
|     652 | 0x6C5F      |       27743 |
|     653 | 0x6CEC      |       27884 |
|     654 | 0x6D80      |       28032 |
|     655 | 0x6E0B      |       28171 |
|     656 | 0x6E95      |       28309 |
|     657 | 0x503C      |       20540 |
|     658 | 0x5090      |       20624 |
|     659 | 0x50F6      |       20726 |
|     660 | 0x511E      |       20766 |
|     661 | 0x5151      |       20817 |
|     662 | 0x5181      |       20865 |
|     663 | 0x51AC      |       20908 |
|     664 | 0x51DA      |       20954 |
|     665 | 0x5206      |       20998 |
|     666 | 0x5234      |       21044 |
|     667 | 0x527F      |       21119 |
|     668 | 0x52BE      |       21182 |
|     669 | 0x52BF      |       21183 |
|     670 | 0x52EF      |       21231 |
|     671 | 0x5303      |       21251 |
|     672 | 0x5321      |       21281 |
|     673 | 0x6FF0      |       28656 |
|     674 | 0x53CD      |       21453 |
|     675 | 0x5387      |       21383 |
|     676 | 0x6F85      |       28549 |
|     677 | 0x6F86      |       28550 |
|     678 | 0x6F87      |       28551 |
|     679 | 0x6F88      |       28552 |
|     680 | 0x6F89      |       28553 |
|     681 | 0x6F8A      |       28554 |
|     682 | 0x6F53      |       28499 |
|     683 | 0x6F54      |       28500 |
|     684 | 0x6F55      |       28501 |
|     685 | 0x6F56      |       28502 |
|     686 | 0x6F57      |       28503 |
|     687 | 0x6F58      |       28504 |
|     688 | 0x6F83      |       28547 |
|     689 | 0x53D6      |       21462 |
|     690 | 0x539D      |       21405 |
|     691 | 0x5336      |       21302 |
|     692 | 0x5344      |       21316 |
|     693 | 0x5353      |       21331 |
|     694 | 0x536B      |       21355 |
|     695 | 0x56F4      |       22260 |
|     696 | 0x0BB8      |        3000 |
|     697 | 0x07D0      |        2000 |
|     698 | 0x1B58      |        7000 |
|     699 | 0x515A      |       20826 |
|     700 | 0x51B5      |       20917 |
|     701 | 0x5356      |       21334 |
|     702 | 0x53B4      |       21428 |
|     703 | 0x6C76      |       27766 |
|     704 | 0x6EAB      |       28331 |
|     705 | 0x5188      |       20872 |
|     706 | 0x5285      |       21125 |
|     707 | 0x6C77      |       27767 |
|     708 | 0x6D92      |       28050 |
|     709 | 0x6EF0      |       28400 |
|     710 | 0x6FE0      |       28640 |
|     711 | 0x5154      |       20820 |
|     712 | 0x51DE      |       20958 |
|     713 | 0x6C59      |       27737 |
|     714 | 0x6E07      |       28167 |
|     715 | 0x5096      |       20630 |
|     716 | 0x5237      |       21047 |
|     717 | 0x5305      |       21253 |
|     718 | 0x6C5A      |       27738 |
|     719 | 0x6E91      |       28305 |
|     720 | 0x503F      |       20543 |
|     721 | 0x50FB      |       20731 |
|     722 | 0x6C5B      |       27739 |
|     723 | 0x6D7C      |       28028 |
|     724 | 0x5120      |       20768 |
|     725 | 0x52F1      |       21233 |
|     726 | 0x52C2      |       21186 |
|     727 | 0x6C58      |       27736 |
|     728 | 0x6E06      |       28166 |
|     729 | 0x6F84      |       28548 |
|     730 | 0x53D7      |       21463 |
|     731 | 0x5200      |       20992 |
|     732 | 0x400A      |       16394 |
|     733 | 0x4010      |       16400 |
|     734 | 0x4026      |       16422 |
|     735 | 0x44CC      |       17612 |
|     736 | 0x405D      |       16477 |
|     737 | 0x409A      |       16538 |
|     738 | 0x40AA      |       16554 |
|     739 | 0x4082      |       16514 |
|     740 | 0x409D      |       16541 |
|     741 | 0x40C9      |       16585 |
|     742 | 0x40D4      |       16596 |
|     743 | 0x4105      |       16645 |
|     744 | 0x410D      |       16653 |
|     745 | 0x415A      |       16730 |
|     746 | 0x419A      |       16794 |
|     747 | 0x4195      |       16789 |
|     748 | 0x41F8      |       16888 |
|     749 | 0x41D0      |       16848 |
|     750 | 0x46AD      |       18093 |
|     751 | 0x41CA      |       16842 |
|     752 | 0x4207      |       16903 |
|     753 | 0x420D      |       16909 |
|     754 | 0x4244      |       16964 |
|     755 | 0x424C      |       16972 |
|     756 | 0x429E      |       17054 |
|     757 | 0x42A0      |       17056 |
|     758 | 0x42CC      |       17100 |
|     759 | 0x4354      |       17236 |
|     760 | 0x4344      |       17220 |
|     761 | 0x435A      |       17242 |
|     762 | 0x43D1      |       17361 |
|     763 | 0x45B9      |       17849 |
|     764 | 0x43CF      |       17359 |
|     765 | 0x3023      |       12323 |
|     766 | 0x3017      |       12311 |
|     767 | 0x3F2A      |       16170 |
|     768 | 0x300E      |       12302 |
|     769 | 0x3014      |       12308 |
|     770 | 0x3007      |       12295 |
|     771 | 0x300F      |       12303 |
|     772 | 0x3024      |       12324 |
|     773 | 0x3016      |       12310 |
|     774 | 0x305F      |       12383 |
|     775 | 0x3047      |       12359 |
|     776 | 0x0185      |         389 |
|     777 | 0x01E4      |         484 |
|     778 | 0x016A      |         362 |
|     779 | 0x037B      |         891 |
|     780 | 0x02F0      |         752 |
|     781 | 0x03FA      |        1018 |
|     782 | 0x012F      |         303 |
|     783 | 0x054A      |        1354 |
|     784 | 0x03E5      |         997 |
|     785 | 0x05CD      |        1485 |
|     786 | 0x0401      |        1025 |
|     787 | 0x022C      |         556 |
|     788 | 0x0483      |        1155 |
|     789 | 0x04E5      |        1253 |
|     790 | 0x02DF      |         735 |
|     791 | 0x01E3      |         483 |
|     792 | 0x01E2      |         482 |
|     793 | 0x0192      |         402 |
|     794 | 0x0104      |         260 |
|     795 | 0x0278      |         632 |
|     796 | 0x031B      |         795 |
|     797 | 0x011C      |         284 |
|     798 | 0x01B3      |         435 |
|     799 | 0x026F      |         623 |
|     800 | 0x0205      |         517 |
|     801 | 0x0215      |         533 |
|     802 | 0x02BC      |         700 |
|     803 | 0x01C8      |         456 |
|     804 | 0x0339      |         825 |
|     805 | 0x01D9      |         473 |
|     806 | 0x0119      |         281 |
|     807 | 0x018B      |         395 |
|     808 | 0x0230      |         560 |
|     809 | 0x0618      |        1560 |
|     810 | 0x00CC      |         204 |
|     811 | 0x4027      |       16423 |
|     812 | 0x495E      |       18782 |
|     813 | 0x4056      |       16470 |
|     814 | 0x4065      |       16485 |
|     815 | 0x4AC2      |       19138 |
|     816 | 0x4500      |       17664 |
|     817 | 0x49D5      |       18901 |
|     818 | 0x4ACF      |       19151 |
|     819 | 0x4ADD      |       19165 |
|     820 | 0x4AE2      |       19170 |
|     821 | 0x4114      |       16660 |
|     822 | 0x4869      |       18537 |
|     823 | 0x4143      |       16707 |
|     824 | 0x484F      |       18511 |
|     825 | 0x4855      |       18517 |
|     826 | 0x4189      |       16777 |
|     827 | 0x4A14      |       18964 |
|     828 | 0x487B      |       18555 |
|     829 | 0x41C8      |       16840 |
|     830 | 0x41DD      |       16861 |
|     831 | 0x4B75      |       19317 |
|     832 | 0x47F4      |       18420 |
|     833 | 0x4B55      |       19285 |
|     834 | 0x4B5D      |       19293 |
|     835 | 0x424B      |       16971 |
|     836 | 0x4243      |       16963 |
|     837 | 0x49A0      |       18848 |
|     838 | 0x49BB      |       18875 |
|     839 | 0x49BD      |       18877 |
|     840 | 0x42CE      |       17102 |
|     841 | 0x48BD      |       18621 |
|     842 | 0x4907      |       18695 |
|     843 | 0x4D15      |       19733 |
|     844 | 0x4364      |       17252 |
|     845 | 0x433D      |       17213 |
|     846 | 0x4B41      |       19265 |
|     847 | 0x4B43      |       19267 |
|     848 | 0x4D17      |       19735 |
|     849 | 0x3015      |       12309 |
|     850 | 0x3011      |       12305 |
|     851 | 0x3063      |       12387 |
|     852 | 0x3061      |       12385 |
|     853 | 0x3F3D      |       16189 |
|     854 | 0x0409      |        1033 |
|     855 | 0x012C      |         300 |
|     856 | 0x02AF      |         687 |
|     857 | 0x0354      |         852 |
|     858 | 0x0659      |        1625 |
|     859 | 0x0362      |         866 |
|     860 | 0x02B6      |         694 |
|     861 | 0x02BD      |         701 |
|     862 | 0x0316      |         790 |
|     863 | 0x02A3      |         675 |
|     864 | 0x02FA      |         762 |
|     865 | 0x039E      |         926 |
|     866 | 0x0231      |         561 |
|     867 | 0x02C4      |         708 |
|     868 | 0x0204      |         516 |
|     869 | 0x0169      |         361 |
|     870 | 0x0328      |         808 |
|     871 | 0x028A      |         650 |
|     872 | 0x0290      |         656 |
|     873 | 0x0284      |         644 |
|     874 | 0x08B7      |        2231 |
|     875 | 0x0AC3      |        2755 |
|     876 | 0x37C2      |       14274 |
|     877 | 0x0011      |          17 |
|     878 | 0x37C3      |       14275 |
|     879 | 0x37C4      |       14276 |
|     880 | 0x37C5      |       14277 |
|     881 | 0x001F      |          31 |
|     882 | 0x1FFFF     |      131071 |
|     883 | 0x279A      |       10138 |
|     884 | 0x27A4      |       10148 |
|     885 | 0x27A8      |       10152 |
|     886 | 0x27C5      |       10181 |
|     887 | 0x37C6      |       14278 |
|     888 | 0x03E8      |        1000 |
|     889 | 0x37C7      |       14279 |
|     890 | 0x0012      |          18 |
|     891 | 0x0013      |          19 |
|     892 | 0x7530      |       30000 |
|     893 | 0x37C8      |       14280 |
|     894 | 0x37CA      |       14282 |
|     895 | 0x37CD      |       14285 |
|     896 | 0x0FDB      |        4059 |
|     897 | 0x0FDC      |        4060 |
|     898 | 0x0FDD      |        4061 |
|     899 | 0x37CB      |       14283 |
|     900 | 0x37CC      |       14284 |
|     901 | 0x09B2      |        2482 |
|     902 | 0x09B3      |        2483 |
|     903 | 0x09B4      |        2484 |
|     904 | 0x09B5      |        2485 |
|     905 | 0x09B6      |        2486 |
|     906 | 0x09B7      |        2487 |
|     907 | 0x37CF      |       14287 |
|     908 | 0x37D0      |       14288 |
|     909 | 0x37CE      |       14286 |
|     910 | 0x37A4      |       14244 |
|     911 | 0x37A9      |       14249 |
|     912 | 0x37AF      |       14255 |
|     913 | 0x37B4      |       14260 |
|     914 | 0x002D      |          45 |

## String References

- **14201**: Hey, there! Peer deep within the Quests menu to find the "Objective List" under "Records of Eminence" and slap the objective there into place!
- **14202**: Attention! My name's Isakoth, and for today's lesson we're going to learn about...
- **14203**: Anything to say? [Impart to me your knowledge!/I don't have to listen to you./Nothing. Just walk away.]
- **14204**: Who gave you permission to leave!? A proper disciple listens to [his/her] master's advice at all times!
- **14205**: No one absolutely has to do anything, but I promise I have important and fun stuff to say. Everyone wants to have fun, right?
- **14206**: You're not going to get anywhere in life with that attitude. You need to learn how to cooperate, to go with the flow!
- **14207**: That's the spirit! You're an adventurer in my spitting image...at least when it comes to passion.
- **14208**: Today's lesson is all about "Records of Eminence," so break out your textbook and turn to page five!
- **14209**: What's that? Tsk, tsk, tsk. If you've forgotten your textbook, you'll have to share with the person next to you.
- **14210**: Let's get this show on the road. Records of Eminence is, in a word...
- **14211**: ...fighting spirit!
- **14212**: So what if that's two words!? That illustrates my point all the more. Adventurers need to give it eighty-thousand percent at all times if they want to uphold justice!
- **14213**: Class dismissed! Now go out there and do me proud.
- **14214**: Anything to say? [Yessir!/That's it?]
- **14215**: You can't fool me by just assenting to everything I say. That's not how education works. You'll never walk the path to enlightenment behaving like that!
- **14216**: That curiosity of yours will really take you places, [lad/lass]. It's positively indispensable for any child of the Goddess.
- **14217**: To tell the truth, though, you're already well on your way to prominence!
- **14218**: You even completed your first objective simply by talking to me. Furthermore, my experience tells me you'll be rewarded with some unusual type of compensation.
- **14219**: Now, take the next step on your journey and try setting an objective all by yourself!
- **14220**: No need to break out in a sweat--your eminent teacher will guide you. Just choose an objective under the "Objective List" in the "Records of Eminence" section of the Quests menu.
- **14221**: I hear you can even repeat certain ones. I'll let you figure out which ones they are on your own, though. I wouldn't want you to just regurgitate the answers I give you, now, would I?
- **14222**: Like I hinted at before, you gain "sparks of eminence" that quantify your achievements. Trade them to me and I'll give you back some tokens of gratitude.
- **14223**: Whoa, now. I teach more advanced subjects than you're able to understand at the moment. Try talking to Gulldago to learn the basics first.
- **14224**: By the way, this little bugger here, which we call $6, records all your eminent feats for you.
- **14225**: Hm? Oh. Yes, I too sometimes become unsettled by its constant and intense glaring.
- **14226**: Luckily, all you need to do is to clap your hands together like so and...
- **14227**: ...it vanishes into thin air. See, even this soulless machination possesses a fighting spirit. How else could it disappear instantaneously like that?
- **14228**: Just kidding. I'm only trying to cover up the fact that I don't know how it works. As my mentor always said, "When you don't know the answer to a question, distract the person with a joke."
- **14229**: Well, I've officially taught you all I know. Go out into the world with your trusty $3 and prove how esteemed you truly are!
- **14230**: ...I always get a little teary-eyed when I see my disciples go off to bigger and better things...<sniffle>
- **14237**: The $3 nods in agreement.
- **14240**: You wish to exchange your sparks?
- **14241**: Wait but a moment. Here, follow this command--er, compendium to the letter and you should be able to learn a thing or two.
- **14242**: Ah, this almost slipped my mind. Should you receive any distinct sorts of artifacts for completing an objective, I will be happy to take them off your hands.
- **14243**: Worry not, for I am not out to rob you of your glory. Quite the opposite, in fact. I will provide you with a worthwhile reward for collecting them.
- **14244**: Thanks to your donation, I now have $1 $0 in safekeeping.
- **14245**: Ohohoho... Turning in sparks, I see.
- **14246**: Hold your hoarder hares, [hero/heroine]. I love your enthusiasm, but you're not going to learn a thing without a primer. Ahhh, here it is. Have a look-see.
- **14247**: Oh, crud, that's right. You should trade me any special artifacts you get from completing objectives.
- **14248**: "Why?" What a good question! Because I'll give you a nifty-difty reward at some point, that's why.
- **14249**: Thanks for doing what I asked. Now I have a total of $1 $0 from you.
- **14250**: You want to trrrade in sparks, do you?
- **14251**: Let me wake up from my catnap first... Alright, now rrread this.
- **14252**: Wait, wait, wait! If you happen to get any purrrticularly interesting items from completing objectives, send them my way.
- **14253**: Don't worry, I'm as honest as a cat when the meat's out of reach. I thought of taking them all for myself...
- **14254**: ...but I don't want to make fur fly with the Adventurers' Mutual Aid Network, so I'll do my job like a good little kitty.
- **14255**: Grrreat! Now I have $1 $0 from you. Thanks!
- **14256**: Hm? Oh, spark exchange... Of course.
- **14257**: I'm not completely sure, but this might help set some things straight...I guess.
- **14258**: Let me add one thing. Please find it within your heart of hearts to give me anything of particular interest you get from completing objectives.
- **14259**: I'll make it worth your while...I swear! Just keep at it and I'll be sure to surprise you with a hot, steaming helping of gratitude one day.
- **14260**: Thanks for doing your part in the battle for love and peace! With this latest addition, I'm now keeping track of $1 $0 for you.
- **14261**: "Records of Eminence is a system brought to you by the caring folks at the Adventurers' Mutual Aid Network. Set your own objectives whenever you desire, and fulfill them to receive compensation.
- **14262**: "To set these tasks, select 'Objective List' from the Quests menu, then choose ones that suit your fancy.
- **14263**: "You will be rewarded with gil and sparks of eminence, which serve the same function as points, notes, credits, and other such methods of quantifying one's greatness. As an extra incentive, adventurers will earn three times the amount of sparks for completing an objective the first time.
- **14264**: "Completed objectives will vanish from your quest list unless they are repeatable. In the event that you wish to make room for different objectives, you will need to remove them manually.
- **14265**: "As a corollary regarding rewards, you'll be blessed with special remuneration once you complete several objectives. Bask in the joy of these pleasant surprises when you can.
- **14266**: "Lastly, any and all acts of vandalism directed against your $3 are strictly prohibited.
- **14267**: "Should you be found in violation of this dictum, the heavens will part and wrath incarnate will descend to mete out justice upon you."
- **14273**: Exchange for what? (Sparks: $0) [Items./Skill-increasing tomes./Equ. Lv.1 - 9. (Up to $")/Equ. Lv.10 - 19. (Up to $")/Equ. Lv.20 - 29. (Up to $")/Equ. Lv.30 - 39. (Up to $")/Equ. Lv.40 - 50. (Up to $")/Equ. Lv.51 - 70. (Up to $")/Equ. Lv.71 - 98. (Up to $")/Equ. Lv.99. (Up to $")/10./Trust./Exchange A.M.A.N. currencies./Exchange Seven Treasures./Wise words on Records of Eminence./Nothing.]
- **14275**: Receive how many? ($6 spark[/s]) [One. ($1 spark[/s])/Three. ($2 spark[/s])/Twelve. ($3 spark[/s])/Thirty-six. ($4 spark[/s])/None.]
- **14276**: Are you sure you want to expend $0 spark[/s] of eminence on this?
- **14277**: Make the exchange? [Yes./No.]
- **14278**: Exchange for what? (On hand: $0) [Currencies./Provisions./None for the nonce.]
- **14279**: Exchange for what? (On hand: $0) [Sparks of Eminence: $1./Conquest Points: $2./Imperial Standing: $3./Allied Notes: $4./Bayld: $5./Valor Pts.: $6./Aslt. Pts. (Leujaoam): $7./Aslt. Pts. (T. Grounds): $8./Aslt. Pts. (Lebros): $9./Aslt. Pts. (Periqia): $10./Aslt. Pts. (Ilrusi): $11./Cruor: $12./Kinetic Units: $13./Obs. Fragments: $14./M. Plasm Corpuscles: $15./Ballista Points: $16. (2000 max)/Unity Accolades: $17./Escha Silt: $18./Resistance Credits: $19./Nothing for the nonce.]
- **14280**: Exchange how many points? (On hand: $0) [$1 (One)./$2 (Three)./$3 (Ten)./$4 (Thirty)./None.]
- **14282**: Beware that any amount that exceeds the maximum storage limit will unceremoniously vanish into the aether.
- **14284**: Exchange how many? (On hand: $0) [One ($1)./Three ($2)./Ten ($3)./Thirty ($4)./None.]
- **14285**: Truly exchange $0 ($2)?
- **14286**: Are you quite satisfied with your selection?
- **14287**: You wish to exchange $6, $6, $6, $6, $6, and $6 for equipment?

## Events

### Event 65535

#### Metadata

| Field        | Value   |
|--------------|---------|
| Entrypoint   | 0x0000  |
| Data Size    | 1 bytes |
| Instructions | 1       |

```
      00 01 02 03 04 05 06 07  08 09 0A 0B 0C 0D 0E 0F
      -- -- -- -- -- -- -- --  -- -- -- -- -- -- -- --
0000: 00                                                .               
```

#### Opcodes

```
  0: 0x0000 [0x00] END_REQSTACK()
```

### Event 24

#### Metadata

| Field        | Value      |
|--------------|------------|
| Entrypoint   | 0x0001     |
| Data Size    | 2423 bytes |
| Instructions | 323        |

```
      00 01 02 03 04 05 06 07  08 09 0A 0B 0C 0D 0E 0F
      -- -- -- -- -- -- -- --  -- -- -- -- -- -- -- --
0000:    42 03 00 00 02 10 06  01 10 1A 89 2B 46 01 38   B..........+F.8
0010: 00 80 2F 00 B2 B0 0E 01  92 01 B1 B0 0E 01 92 01  ../.............
0020: B2 B0 0E 01 92 01 A3 B0  0E 01 92 01 74 B0 0E 01  ............t...
0030: 92 01 75 B0 0E 01 92 01  33 B0 0E 01 92 01 AF B0  ..u.....3.......
0040: 0E 01 92 01 B0 B0 0E 01  92 01 AE B0 0E 01 94 01  ................
0050: F0 FF FF 7F 94 01 B1 B0  0E 01 94 01 B2 B0 0E 01  ................
0060: 94 01 A3 B0 0E 01 94 01  74 B0 0E 01 94 01 75 B0  ........t.....u.
0070: 0E 01 94 01 33 B0 0E 01  94 01 AF B0 0E 01 94 01  ....3...........
0080: B0 B0 0E 01 94 01 AE B0  0E 01 BA F0 FF FF 7F 01  ................
0090: 80 02 80 03 80 04 80 BA  B2 B0 0E 01 05 80 06 80  ................
00A0: 03 80 07 80 80 F0 FF FF  7F 80 B1 B0 0E 01 80 A3  ................
00B0: B0 0E 01 80 74 B0 0E 01  80 75 B0 0E 01 80 33 B0  ....t....u....3.
00C0: 0E 01 80 AF B0 0E 01 80  B0 B0 0E 01 80 AE B0 0E  ................
00D0: 01 4A F0 FF FF 7F B1 B0  0E 01 4A B1 B0 0E 01 F0  .J........J.....
00E0: FF FF 7F 5C 00 08 80 5C  01 08 80 9A 1C 09 80 45  ...\...\.......E
00F0: 0A 80 F8 FF FF 7F F8 FF  FF 7F 73 30 30 30 0B 80  ..........s000..
0100: 1C 0C 80 1A 68 2B 6E F8  FF FF 7F 0D 80 99 F8 FF  ....h+n.........
0110: FF 7F 1C 0E 80 53 F8 FF  FF 7F F8 FF FF 7F 70 6F  .....S........po
0120: 73 30 1D 0F 80 23 1C 09  80 6B 69 64 6C 30 F8 FF  s0...#...kidl0..
0130: FF 7F 52 0A 80 F8 FF FF  7F F8 FF FF 7F 73 30 30  ..R..........s00
0140: 30 06 01 00 45 0A 80 F8  FF FF 7F F8 FF FF 7F 73  0...E..........s
0150: 30 30 31 0B 80 24 10 80  0B 80 0B 80 25 02 00 10  001..$......%...
0160: 0B 80 00 98 01 52 0A 80  F8 FF FF 7F F8 FF FF 7F  .....R..........
0170: 73 30 30 31 45 0A 80 F8  FF FF 7F F8 FF FF 7F 73  s001E..........s
0180: 30 30 36 0B 80 6E F8 FF  FF 7F 11 80 99 F8 FF FF  006..n..........
0190: 7F 1D 12 80 23 01 84 02  02 00 10 13 80 00 14 02  ....#...........
01A0: 52 0A 80 F8 FF FF 7F F8  FF FF 7F 73 30 30 31 02  R..........s001.
01B0: 01 00 14 80 04 DB 01 45  0A 80 F8 FF FF 7F F8 FF  .......E........
01C0: FF 7F 73 30 30 35 0B 80  6E F8 FF FF 7F 0D 80 99  ..s005..n.......
01D0: F8 FF FF 7F 1D 15 80 23  01 11 02 45 0A 80 F8 FF  .......#...E....
01E0: FF 7F F8 FF FF 7F 73 30  30 34 0B 80 6E F8 FF FF  ......s004..n...
01F0: 7F 16 80 99 F8 FF FF 7F  0B 01 00 1D 17 80 23 52  ..............#R
0200: 0A 80 F8 FF FF 7F F8 FF  FF 7F 73 30 30 34 01 44  ..........s004.D
0210: 01 01 84 02 02 00 10 18  80 00 84 02 52 0A 80 F8  ............R...
0220: FF FF 7F F8 FF FF 7F 73  30 30 31 45 0A 80 F8 FF  .......s001E....
0230: FF 7F F8 FF FF 7F 73 30  30 32 0B 80 27 05 F0 FF  ......s002..'...
0240: FF 7F 39 1C 0E 80 1E F0  FF FF 7F 1C 09 80 6E F8  ..9...........n.
0250: FF FF 7F 19 80 99 F8 FF  FF 7F 52 0A 80 F8 FF FF  ..........R.....
0260: 7F F8 FF FF 7F 73 30 30  32 45 0A 80 F8 FF FF 7F  .....s002E......
0270: F8 FF FF 7F 73 30 30 33  0B 80 1D 1A 80 23 01 25  ....s003.....#.%
0280: 09 01 84 02 6E F8 FF FF  7F 0B 80 99 F8 FF FF 7F  ....n...........
0290: 1D 1B 80 23 52 0A 80 F8  FF FF 7F F8 FF FF 7F 73  ...#R..........s
02A0: 30 30 35 52 0A 80 F8 FF  FF 7F F8 FF FF 7F 73 30  005R..........s0
02B0: 30 36 45 0A 80 F8 FF FF  7F F8 FF FF 7F 73 30 30  06E..........s00
02C0: 37 0B 80 6E F8 FF FF 7F  16 80 99 F8 FF FF 7F 1D  7..n............
02D0: 1C 80 23 4E 00 B2 B0 0E  01 80 B2 B0 0E 01 52 0A  ..#N..........R.
02E0: 80 F8 FF FF 7F F8 FF FF  7F 73 30 30 37 02 87 7F  .........s007...
02F0: 1D 80 80 09 03 45 0A 80  F8 FF FF 7F F8 FF FF 7F  .....E..........
0300: 73 30 30 39 0B 80 01 36  03 02 87 7F 1E 80 80 25  s009...6.......%
0310: 03 45 0A 80 F8 FF FF 7F  F8 FF FF 7F 73 30 30 39  .E..........s009
0320: 0B 80 01 36 03 45 0A 80  F8 FF FF 7F F8 FF FF 7F  ...6.E..........
0330: 73 30 30 38 0B 80 1C 09  80 4A F0 FF FF 7F B2 B0  s008.....J......
0340: 0E 01 1C 09 80 6E F0 FF  FF 7F 1F 80 99 F0 FF FF  .....n..........
0350: 7F 5B 20 80 B2 B0 0E 01  B2 B0 0E 01 62 72 75 30  .[ .........bru0
0360: 03 02 10 21 80 48 22 80  1C 23 80 6B 69 64 6C 30  ...!.H"..#.kidl0
0370: B2 B0 0E 01 52 0A 80 F8  FF FF 7F F8 FF FF 7F 73  ....R..........s
0380: 30 30 38 52 0A 80 F8 FF  FF 7F F8 FF FF 7F 73 30  008R..........s0
0390: 30 39 45 0A 80 F8 FF FF  7F F8 FF FF 7F 73 30 31  09E..........s01
03A0: 30 0B 80 4A F0 FF FF 7F  F8 FF FF 7F 66 24 80 F8  0..J........f$..
03B0: FF FF 7F F8 FF FF 7F 74  68 6B 31 1D 25 80 23 52  .......thk1.%.#R
03C0: 0A 80 F8 FF FF 7F F8 FF  FF 7F 73 30 31 30 45 0A  ..........s010E.
03D0: 80 F8 FF FF 7F F8 FF FF  7F 73 30 31 31 0B 80 66  .........s011..f
03E0: 24 80 F8 FF FF 7F F8 FF  FF 7F 74 68 6B 32 1D 26  $.........thk2.&
03F0: 80 23 52 0A 80 F8 FF FF  7F F8 FF FF 7F 73 30 31  .#R..........s01
0400: 31 45 0A 80 F8 FF FF 7F  F8 FF FF 7F 73 30 31 32  1E..........s012
0410: 0B 80 6E F8 FF FF 7F 0D  80 99 F8 FF FF 7F 1D 27  ..n............'
0420: 80 23 1D 28 80 23 52 0A  80 F8 FF FF 7F F8 FF FF  .#.(.#R.........
0430: 7F 73 30 31 32 02 87 7F  1D 80 80 51 04 45 0A 80  .s012......Q.E..
0440: F8 FF FF 7F F8 FF FF 7F  73 30 31 34 0B 80 01 7E  ........s014...~
0450: 04 02 87 7F 1E 80 80 6D  04 45 0A 80 F8 FF FF 7F  .......m.E......
0460: F8 FF FF 7F 73 30 31 34  0B 80 01 7E 04 45 0A 80  ....s014...~.E..
0470: F8 FF FF 7F F8 FF FF 7F  73 30 31 33 0B 80 24 29  ........s013..$)
0480: 80 0B 80 0B 80 25 02 00  10 0B 80 00 DF 04 6E F8  .....%........n.
0490: FF FF 7F 2A 80 99 F8 FF  FF 7F 52 0A 80 F8 FF FF  ...*......R.....
04A0: 7F F8 FF FF 7F 73 30 31  33 52 0A 80 F8 FF FF 7F  .....s013R......
04B0: F8 FF FF 7F 73 30 31 34  45 0A 80 F8 FF FF 7F F8  ....s014E.......
04C0: FF FF 7F 73 30 31 35 0B  80 1D 2B 80 23 52 0A 80  ...s015...+.#R..
04D0: F8 FF FF 7F F8 FF FF 7F  73 30 31 35 01 38 05 02  ........s015.8..
04E0: 00 10 13 80 00 38 05 52  0A 80 F8 FF FF 7F F8 FF  .....8.R........
04F0: FF 7F 73 30 31 33 52 0A  80 F8 FF FF 7F F8 FF FF  ..s013R.........
0500: 7F 73 30 31 34 45 0A 80  F8 FF FF 7F F8 FF FF 7F  .s014E..........
0510: 73 30 31 36 0B 80 6E F8  FF FF 7F 11 80 99 F8 FF  s016..n.........
0520: FF 7F 1D 2C 80 23 52 0A  80 F8 FF FF 7F F8 FF FF  ...,.#R.........
0530: 7F 73 30 31 36 01 38 05  45 0A 80 F8 FF FF 7F F8  .s016.8.E.......
0540: FF FF 7F 73 30 31 37 0B  80 66 24 80 F8 FF FF 7F  ...s017..f$.....
0550: F8 FF FF 7F 74 6C 6B 30  1D 2D 80 23 4A A3 B0 0E  ....tlk0.-.#J...
0560: 01 33 B0 0E 01 4A 33 B0  0E 01 A3 B0 0E 01 1D 2E  .3...J3.........
0570: 80 23 66 24 80 F8 FF FF  7F F8 FF FF 7F 74 6C 6B  .#f$.........tlk
0580: 31 1D 2F 80 23 52 0A 80  F8 FF FF 7F F8 FF FF 7F  1./.#R..........
0590: 73 30 31 37 45 0A 80 F8  FF FF 7F F8 FF FF 7F 73  s017E..........s
05A0: 30 31 38 0B 80 6E F8 FF  FF 7F 16 80 99 F8 FF FF  018..n..........
05B0: 7F 5B 30 80 A3 B0 0E 01  A3 B0 0E 01 75 64 65 30  .[0.........ude0
05C0: 1D 31 80 23 1C 09 80 6E  F8 FF FF 7F 11 80 99 F8  .1.#...n........
05D0: FF FF 7F 1D 32 80 23 1C  09 80 66 24 80 33 B0 0E  ....2.#...f$.3..
05E0: 01 33 B0 0E 01 74 6C 6B  30 52 0A 80 F8 FF FF 7F  .3...tlk0R......
05F0: F8 FF FF 7F 73 30 31 38  45 0A 80 F8 FF FF 7F F8  ....s018E.......
0600: FF FF 7F 73 30 31 39 0B  80 66 24 80 F8 FF FF 7F  ...s019..f$.....
0610: F8 FF FF 7F 74 6C 6B 30  1D 33 80 23 66 24 80 F8  ....tlk0.3.#f$..
0620: FF FF 7F F8 FF FF 7F 74  6C 6B 31 53 F8 FF FF 7F  .......tlk1S....
0630: F8 FF FF 7F 74 6C 6B 31  52 0A 80 F8 FF FF 7F F8  ....tlk1R.......
0640: FF FF 7F 73 30 31 39 02  00 00 13 80 00 CF 06 45  ...s019........E
0650: 34 80 F8 FF FF 7F F8 FF  FF 7F 73 30 30 30 0B 80  4.........s000..
0660: 4A F8 FF FF 7F A3 B0 0E  01 6F 76 F8 FF FF 7F 6E  J........ov....n
0670: F8 FF FF 7F 0B 80 99 F8  FF FF 7F 1C 09 80 4A F0  ..............J.
0680: FF FF 7F A3 B0 0E 01 1C  0E 80 52 34 80 F8 FF FF  ..........R4....
0690: 7F F8 FF FF 7F 73 30 30  30 45 0A 80 F8 FF FF 7F  .....s000E......
06A0: F8 FF FF 7F 73 30 32 30  0B 80 1D 35 80 23 1C 09  ....s020...5.#..
06B0: 80 4A F8 FF FF 7F F0 FF  FF 7F 6F 76 F8 FF FF 7F  .J........ov....
06C0: 52 0A 80 F8 FF FF 7F F8  FF FF 7F 73 30 32 30 45  R..........s020E
06D0: 0A 80 F8 FF FF 7F F8 FF  FF 7F 73 30 32 31 0B 80  ..........s021..
06E0: 1C 09 80 4A F0 FF FF 7F  F8 FF FF 7F 6F 76 F0 FF  ...J........ov..
06F0: FF 7F 03 02 10 21 80 1D  36 80 23 27 05 F0 FF FF  .....!..6.#'....
0700: 7F 32 52 0A 80 F8 FF FF  7F F8 FF FF 7F 73 30 32  .2R..........s02
0710: 31 02 87 7F 37 80 80 2D  07 45 34 80 F8 FF FF 7F  1...7..-.E4.....
0720: F8 FF FF 7F 73 30 30 32  0B 80 01 AE 07 02 87 7F  ....s002........
0730: 14 80 80 49 07 45 34 80  F8 FF FF 7F F8 FF FF 7F  ...I.E4.........
0740: 73 30 30 32 0B 80 01 AE  07 02 87 7F 1D 80 80 65  s002...........e
0750: 07 45 34 80 F8 FF FF 7F  F8 FF FF 7F 73 30 30 33  .E4.........s003
0760: 0B 80 01 AE 07 02 87 7F  1E 80 80 81 07 45 34 80  .............E4.
0770: F8 FF FF 7F F8 FF FF 7F  73 30 30 33 0B 80 01 AE  ........s003....
0780: 07 02 87 7F 38 80 80 9D  07 45 34 80 F8 FF FF 7F  ....8....E4.....
0790: F8 FF FF 7F 73 30 30 32  0B 80 01 AE 07 45 34 80  ....s002.....E4.
07A0: F8 FF FF 7F F8 FF FF 7F  73 30 30 31 0B 80 1C 39  ........s001...9
07B0: 80 27 05 F0 FF FF 7F 33  1C 0E 80 52 34 80 F8 FF  .'.....3...R4...
07C0: FF 7F F8 FF FF 7F 73 30  30 31 52 34 80 F8 FF FF  ......s001R4....
07D0: 7F F8 FF FF 7F 73 30 30  32 52 34 80 F8 FF FF 7F  .....s002R4.....
07E0: F8 FF FF 7F 73 30 30 33  45 0A 80 F8 FF FF 7F F8  ....s003E.......
07F0: FF FF 7F 73 30 32 32 0B  80 1D 3A 80 23 6E B1 B0  ...s022...:.#n..
0800: 0E 01 3B 80 99 B1 B0 0E  01 1D 3C 80 23 52 0A 80  ..;.......<.#R..
0810: F8 FF FF 7F F8 FF FF 7F  73 30 32 32 45 0A 80 F8  ........s022E...
0820: FF FF 7F F8 FF FF 7F 73  30 32 33 0B 80 BB 3D 80  .......s023...=.
0830: B2 B0 0E 01 B2 B0 0E 01  74 72 67 30 0B 80 1C 23  ........trg0...#
0840: 80 6E F8 FF FF 7F 16 80  99 F8 FF FF 7F 79 00 F0  .n...........y..
0850: FF FF 7F B2 B0 0E 01 1D  3E 80 23 52 0A 80 F8 FF  ........>.#R....
0860: FF 7F F8 FF FF 7F 73 30  32 33 45 34 80 F8 FF FF  ......s023E4....
0870: 7F F8 FF FF 7F 73 30 31  31 0B 80 79 00 F0 FF FF  .....s011..y....
0880: 7F F8 FF FF 7F 1C 09 80  6E F8 FF FF 7F 14 80 99  ........n.......
0890: F8 FF FF 7F 1D 3F 80 23  99 F8 FF FF 7F 52 34 80  .....?.#.....R4.
08A0: F8 FF FF 7F F8 FF FF 7F  73 30 31 31 45 0A 80 F8  ........s011E...
08B0: FF FF 7F F8 FF FF 7F 73  30 32 35 0B 80 1C 09 80  .......s025.....
08C0: 6E F8 FF FF 7F 11 80 99  F8 FF FF 7F 03 02 10 21  n..............!
08D0: 80 1D 40 80 23 6E F8 FF  FF 7F 3B 80 99 F8 FF FF  ..@.#n....;.....
08E0: 7F 1D 41 80 23 1C 42 80  05 01 10 52 0A 80 F8 FF  ..A.#.B....R....
08F0: FF 7F F8 FF FF 7F 73 30  32 35 45 0A 80 F8 FF FF  ......s025E.....
0900: 7F F8 FF FF 7F 73 31 32  31 0B 80 27 05 F0 FF FF  .....s121..'....
0910: 7F 39 6C B2 B0 0E 01 43  80 0E 80 27 05 B2 B0 0E  .9l....C...'....
0920: 01 02 1C 44 80 1A 89 2B  52 0A 80 F8 FF FF 7F F8  ...D...+R.......
0930: FF FF 7F 73 31 32 31 5C  00 45 80 5C 01 45 80 9A  ...s121\.E.\.E..
0940: 1C 0C 80 AB 11 0B 80 1C  13 80 46 00 02 01 10 13  ..........F.....
0950: 80 00 65 09 45 46 80 F8  FF FF 7F F8 FF FF 7F 71  ..e.EF.........q
0960: 73 74 63 0B 80 45 47 80  F0 FF FF 7F F0 FF FF 7F  stc..EG.........
0970: 66 64 69 32 0B 80 21 00                           fdi2..!.        
```

#### Opcodes

```
  0: 0x0001 [0x42] SET_CLI_EVENT_CANCEL_DATA()
  1: 0x0002 [0x03] ExtData[1]->WorkLocal[0] = Work_Zone[2]
  2: 0x0007 [0x06] Work_Zone[1] = 0
  3: 0x000A [0x1A] CALL_SUBROUTINE(address=0x2B89)
  4: 0x000D [0x46] CAMERA_CONTROL: Disable user control
  5: 0x000F [0x38] SET_CLIENT_EVENT_MODE(mode=147*)
  6: 0x0012 [0x2F] ??? (ID: 17739954/0x010EB0B2)->Render.Flags0 &= ~0x80000 // Bit 19
  7: 0x0018 [0x92] Isakoth (ID: 17739953/0x010EB0B1)->Render.Flags3 ^= 0x01
  8: 0x001E [0x92] ??? (ID: 17739954/0x010EB0B2)->Render.Flags3 ^= 0x01
  9: 0x0024 [0x92] Gulldago (ID: 17739939/0x010EB0A3)->Render.Flags3 ^= 0x01
 10: 0x002A [0x92] Marin (ID: 17739892/0x010EB074)->Render.Flags3 ^= 0x01
 11: 0x0030 [0x92] Ken (ID: 17739893/0x010EB075)->Render.Flags3 ^= 0x01
 12: 0x0036 [0x92] Cleades (ID: 17739827/0x010EB033)->Render.Flags3 ^= 0x01
 13: 0x003C [0x92] Voidwatch Officer (ID: 17739951/0x010EB0AF)->Render.Flags3 ^= 0x01
 14: 0x0042 [0x92] Voidwatch Purveyor (ID: 17739952/0x010EB0B0)->Render.Flags3 ^= 0x01
 15: 0x0048 [0x92] Atmacite Refiner (ID: 17739950/0x010EB0AE)->Render.Flags3 ^= 0x01
 16: 0x004E [0x94] LocalPlayer->Render.Flags3 ^= 0x01
 17: 0x0054 [0x94] Isakoth (ID: 17739953/0x010EB0B1)->Render.Flags3 ^= 0x01
 18: 0x005A [0x94] ??? (ID: 17739954/0x010EB0B2)->Render.Flags3 ^= 0x01
 19: 0x0060 [0x94] Gulldago (ID: 17739939/0x010EB0A3)->Render.Flags3 ^= 0x01
 20: 0x0066 [0x94] Marin (ID: 17739892/0x010EB074)->Render.Flags3 ^= 0x01
 21: 0x006C [0x94] Ken (ID: 17739893/0x010EB075)->Render.Flags3 ^= 0x01
 22: 0x0072 [0x94] Cleades (ID: 17739827/0x010EB033)->Render.Flags3 ^= 0x01
 23: 0x0078 [0x94] Voidwatch Officer (ID: 17739951/0x010EB0AF)->Render.Flags3 ^= 0x01
 24: 0x007E [0x94] Voidwatch Purveyor (ID: 17739952/0x010EB0B0)->Render.Flags3 ^= 0x01
 25: 0x0084 [0x94] Atmacite Refiner (ID: 17739950/0x010EB0AE)->Render.Flags3 ^= 0x01
 26: 0x008A [0xBA] SET_ENTITY_POSITION(entity_id=LocalPlayer, pos_x=-345.727*, pos_z=-170.195*, pos_y=-10.002*, direction=16.3*)
 27: 0x0097 [0xBA] SET_ENTITY_POSITION(entity_id=??? (ID: 17739954/0x010EB0B2), pos_x=-344.856*, pos_z=-169.595*, pos_y=-10.002*, direction=34.4*)
 28: 0x00A4 [0x80] LOAD_WAIT(entity=LocalPlayer)
 29: 0x00A9 [0x80] LOAD_WAIT(entity=Isakoth (ID: 17739953/0x010EB0B1))
 30: 0x00AE [0x80] LOAD_WAIT(entity=Gulldago (ID: 17739939/0x010EB0A3))
 31: 0x00B3 [0x80] LOAD_WAIT(entity=Marin (ID: 17739892/0x010EB074))
 32: 0x00B8 [0x80] LOAD_WAIT(entity=Ken (ID: 17739893/0x010EB075))
 33: 0x00BD [0x80] LOAD_WAIT(entity=Cleades (ID: 17739827/0x010EB033))
 34: 0x00C2 [0x80] LOAD_WAIT(entity=Voidwatch Officer (ID: 17739951/0x010EB0AF))
 35: 0x00C7 [0x80] LOAD_WAIT(entity=Voidwatch Purveyor (ID: 17739952/0x010EB0B0))
 36: 0x00CC [0x80] LOAD_WAIT(entity=Atmacite Refiner (ID: 17739950/0x010EB0AE))
 37: 0x00D1 [0x4A] LocalPlayer looks at Isakoth (ID: 17739953/0x010EB0B1)
 38: 0x00DA [0x4A] Isakoth (ID: 17739953/0x010EB0B1) looks at LocalPlayer
 39: 0x00E3 [0x5C] MUSIC_CONTROL: Set Idle (Day) music to song 163*
 40: 0x00E7 [0x5C] MUSIC_CONTROL: Set Idle (Night) music to song 163*
 41: 0x00EB [0x9A] WAIT_MUSIC_SERVER()
 42: 0x00EC [0x1C] WAIT(30* ticks)
 43: 0x00EF [0x45] LOAD_SCHEDULED_TASK: Load scheduler "s000" with entities [EventEntity, EventEntity], work=[628*, 0*]
 44: 0x0100 [0x1C] WAIT(15* ticks)
 45: 0x0103 [0x1A] CALL_SUBROUTINE(address=0x2B68)
 46: 0x0106 [0x6E] EventEntity uses emote 36*
 47: 0x010D [0x99] Wait for EventEntity animation to complete
 48: 0x0112 [0x1C] WAIT(60* ticks)
 49: 0x0115 [0x53] WAIT_SCHEDULER_TASK: Wait for scheduler "pos0" with entities [EventEntity, EventEntity]
 50: 0x0122 [0x1D] PRINT_EVENT_MESSAGE(message_id=14202*)
     "Attention! My name's Isakoth, and for today's lesson we're going to learn about..."
 51: 0x0125 [0x23] WAIT_FOR_DIALOG_INTERACTION
 52: 0x0126 [0x1C] WAIT(30* ticks)
 53: 0x0129 [0x6B] STOP_AND_IDLE: EventEntity stops current action and resets to idle (animation="idl0")
 54: 0x0132 [0x52] END_LOAD_SCHEDULER: End scheduler "s000" with entities [EventEntity, EventEntity], work=628*
 55: 0x0141 [0x06] ExtData[1]->WorkLocal[1] = 0
 56: 0x0144 [0x45] LOAD_SCHEDULED_TASK: Load scheduler "s001" with entities [EventEntity, EventEntity], work=[628*, 0*]
 57: 0x0155 [0x24] CREATE_DIALOG(message_id=14203*, default_option=0*, option_flags=0*)
     "Anything to say? [Impart to me your knowledge!/I don't have to listen to you./Nothing. Just walk away.]"
 58: 0x015C [0x25] WAIT_DIALOG_SELECT()
 59: 0x015D [0x02] IF !(Work_Zone[0] == 0*) GOTO 0x0198
 60: 0x0165 [0x52] END_LOAD_SCHEDULER: End scheduler "s001" with entities [EventEntity, EventEntity], work=628*
 61: 0x0174 [0x45] LOAD_SCHEDULED_TASK: Load scheduler "s006" with entities [EventEntity, EventEntity], work=[628*, 0*]
 62: 0x0185 [0x6E] EventEntity uses emote 7*
 63: 0x018C [0x99] Wait for EventEntity animation to complete
 64: 0x0191 [0x1D] PRINT_EVENT_MESSAGE(message_id=14207*)
     "That's the spirit! You're an adventurer in my spitting image...at least when it comes to passion."
 65: 0x0194 [0x23] WAIT_FOR_DIALOG_INTERACTION
 66: 0x0195 [0x01] GOTO 0x0284
 67: 0x0198 [0x02] IF !(Work_Zone[0] == 1*) GOTO 0x0214
 68: 0x01A0 [0x52] END_LOAD_SCHEDULER: End scheduler "s001" with entities [EventEntity, EventEntity], work=628*
 69: 0x01AF [0x02] IF !(ExtData[1]->WorkLocal[1] < 4*) GOTO 0x01DB
 70: 0x01B7 [0x45] LOAD_SCHEDULED_TASK: Load scheduler "s005" with entities [EventEntity, EventEntity], work=[628*, 0*]
 71: 0x01C8 [0x6E] EventEntity uses emote 36*
 72: 0x01CF [0x99] Wait for EventEntity animation to complete
 73: 0x01D4 [0x1D] PRINT_EVENT_MESSAGE(message_id=14206*)
     "You're not going to get anywhere in life with that attitude. You need to learn how to cooperate, to go with the flow!"
 74: 0x01D7 [0x23] WAIT_FOR_DIALOG_INTERACTION
 75: 0x01D8 [0x01] GOTO 0x0211
 76: 0x01DB [0x45] LOAD_SCHEDULED_TASK: Load scheduler "s004" with entities [EventEntity, EventEntity], work=[628*, 0*]
 77: 0x01EC [0x6E] EventEntity uses emote 22*
 78: 0x01F3 [0x99] Wait for EventEntity animation to complete
 79: 0x01F8 [0x0B] ExtData[1]->WorkLocal[1]++
 80: 0x01FB [0x1D] PRINT_EVENT_MESSAGE(message_id=14205*)
     "No one absolutely has to do anything, but I promise I have important and fun stuff to say. Everyone wants to have fun, right?"
 81: 0x01FE [0x23] WAIT_FOR_DIALOG_INTERACTION
 82: 0x01FF [0x52] END_LOAD_SCHEDULER: End scheduler "s004" with entities [EventEntity, EventEntity], work=628*
 83: 0x020E [0x01] GOTO 0x0144

SUBROUTINE_0211:
 84: 0x0211 [0x01] GOTO 0x0284
 85: 0x0214 [0x02] IF !(Work_Zone[0] == 2*) GOTO 0x0284
 86: 0x021C [0x52] END_LOAD_SCHEDULER: End scheduler "s001" with entities [EventEntity, EventEntity], work=628*
 87: 0x022B [0x45] LOAD_SCHEDULED_TASK: Load scheduler "s002" with entities [EventEntity, EventEntity], work=[628*, 0*]
 88: 0x023C [0x27] REQ_SET(priority=0x05, entity_id=LocalPlayer, tag_num=0x39)
 89: 0x0243 [0x1C] WAIT(60* ticks)
 90: 0x0246 [0x1E] EventEntity looks at LocalPlayer and starts talking
 91: 0x024B [0x1C] WAIT(30* ticks)
 92: 0x024E [0x6E] EventEntity uses emote 16*
 93: 0x0255 [0x99] Wait for EventEntity animation to complete
 94: 0x025A [0x52] END_LOAD_SCHEDULER: End scheduler "s002" with entities [EventEntity, EventEntity], work=628*
 95: 0x0269 [0x45] LOAD_SCHEDULED_TASK: Load scheduler "s003" with entities [EventEntity, EventEntity], work=[628*, 0*]
 96: 0x027A [0x1D] PRINT_EVENT_MESSAGE(message_id=14204*)
     "Who gave you permission to leave!? A proper disciple listens to [his/her] master's advice at all times!"
 97: 0x027D [0x23] WAIT_FOR_DIALOG_INTERACTION
 98: 0x027E [0x01] GOTO 0x0925

SUBROUTINE_0284:
 99: 0x0284 [0x6E] EventEntity uses emote 0*
100: 0x028B [0x99] Wait for EventEntity animation to complete
101: 0x0290 [0x1D] PRINT_EVENT_MESSAGE(message_id=14208*)
     "Today's lesson is all about "Records of Eminence," so break out your textbook and turn to page five!"
102: 0x0293 [0x23] WAIT_FOR_DIALOG_INTERACTION
103: 0x0294 [0x52] END_LOAD_SCHEDULER: End scheduler "s005" with entities [EventEntity, EventEntity], work=628*
104: 0x02A3 [0x52] END_LOAD_SCHEDULER: End scheduler "s006" with entities [EventEntity, EventEntity], work=628*
105: 0x02B2 [0x45] LOAD_SCHEDULED_TASK: Load scheduler "s007" with entities [EventEntity, EventEntity], work=[628*, 0*]
106: 0x02C3 [0x6E] EventEntity uses emote 22*
107: 0x02CA [0x99] Wait for EventEntity animation to complete
108: 0x02CF [0x1D] PRINT_EVENT_MESSAGE(message_id=14209*)
     "What's that? Tsk, tsk, tsk. If you've forgotten your textbook, you'll have to share with the person next to you."
109: 0x02D2 [0x23] WAIT_FOR_DIALOG_INTERACTION
110: 0x02D3 [0x4E] SET_ENTITY_HIDE_FLAG: Show ??? (ID: 17739954/0x010EB0B2)
111: 0x02D9 [0x80] LOAD_WAIT(entity=??? (ID: 17739954/0x010EB0B2))
112: 0x02DE [0x52] END_LOAD_SCHEDULER: End scheduler "s007" with entities [EventEntity, EventEntity], work=628*
113: 0x02ED [0x02] IF !(LocalPlayer->Race == 5*) GOTO 0x0309
114: 0x02F5 [0x45] LOAD_SCHEDULED_TASK: Load scheduler "s009" with entities [EventEntity, EventEntity], work=[628*, 0*]
115: 0x0306 [0x01] GOTO 0x0336
116: 0x0309 [0x02] IF !(LocalPlayer->Race == 6*) GOTO 0x0325
117: 0x0311 [0x45] LOAD_SCHEDULED_TASK: Load scheduler "s009" with entities [EventEntity, EventEntity], work=[628*, 0*]
118: 0x0322 [0x01] GOTO 0x0336
119: 0x0325 [0x45] LOAD_SCHEDULED_TASK: Load scheduler "s008" with entities [EventEntity, EventEntity], work=[628*, 0*]

SUBROUTINE_0336:
120: 0x0336 [0x1C] WAIT(30* ticks)
121: 0x0339 [0x4A] LocalPlayer looks at ??? (ID: 17739954/0x010EB0B2)
122: 0x0342 [0x1C] WAIT(30* ticks)
123: 0x0345 [0x6E] LocalPlayer uses emote 21*
124: 0x034C [0x99] Wait for LocalPlayer animation to complete
125: 0x0351 [0x5B] LOAD_EXT_SCHEDULER: Load scheduler "bru0" with entities [??? (ID: 17739954/0x010EB0B2), ??? (ID: 17739954/0x010EB0B2)], work=252*
126: 0x0360 [0x03] Work_Zone[2] = 2466*
127: 0x0365 [0x48] [System] [14237*]:
     "The $3 nods in agreement."
128: 0x0368 [0x1C] WAIT(120* ticks)
129: 0x036B [0x6B] STOP_AND_IDLE: ??? (ID: 17739954/0x010EB0B2) stops current action and resets to idle (animation="idl0")
130: 0x0374 [0x52] END_LOAD_SCHEDULER: End scheduler "s008" with entities [EventEntity, EventEntity], work=628*
131: 0x0383 [0x52] END_LOAD_SCHEDULER: End scheduler "s009" with entities [EventEntity, EventEntity], work=628*
132: 0x0392 [0x45] LOAD_SCHEDULED_TASK: Load scheduler "s010" with entities [EventEntity, EventEntity], work=[628*, 0*]
133: 0x03A3 [0x4A] LocalPlayer looks at EventEntity
134: 0x03AC [0x66] LOAD_EXT_SCHEDULER_MAIN: Load scheduler "thk1" with entities [EventEntity, EventEntity], work=9*
135: 0x03BB [0x1D] PRINT_EVENT_MESSAGE(message_id=14210*)
     "Let's get this show on the road. Records of Eminence is, in a word..."
136: 0x03BE [0x23] WAIT_FOR_DIALOG_INTERACTION
137: 0x03BF [0x52] END_LOAD_SCHEDULER: End scheduler "s010" with entities [EventEntity, EventEntity], work=628*
138: 0x03CE [0x45] LOAD_SCHEDULED_TASK: Load scheduler "s011" with entities [EventEntity, EventEntity], work=[628*, 0*]
139: 0x03DF [0x66] LOAD_EXT_SCHEDULER_MAIN: Load scheduler "thk2" with entities [EventEntity, EventEntity], work=9*
140: 0x03EE [0x1D] PRINT_EVENT_MESSAGE(message_id=14211*)
     "...fighting spirit!"
141: 0x03F1 [0x23] WAIT_FOR_DIALOG_INTERACTION
142: 0x03F2 [0x52] END_LOAD_SCHEDULER: End scheduler "s011" with entities [EventEntity, EventEntity], work=628*
143: 0x0401 [0x45] LOAD_SCHEDULED_TASK: Load scheduler "s012" with entities [EventEntity, EventEntity], work=[628*, 0*]
144: 0x0412 [0x6E] EventEntity uses emote 36*
145: 0x0419 [0x99] Wait for EventEntity animation to complete
146: 0x041E [0x1D] PRINT_EVENT_MESSAGE(message_id=14212*)
     "So what if that's two words!? That illustrates my point all the more. Adventurers need to give it eighty-thousand percent at all times if they want to uphold justice!"
147: 0x0421 [0x23] WAIT_FOR_DIALOG_INTERACTION
148: 0x0422 [0x1D] PRINT_EVENT_MESSAGE(message_id=14213*)
     "Class dismissed! Now go out there and do me proud."
149: 0x0425 [0x23] WAIT_FOR_DIALOG_INTERACTION
150: 0x0426 [0x52] END_LOAD_SCHEDULER: End scheduler "s012" with entities [EventEntity, EventEntity], work=628*
151: 0x0435 [0x02] IF !(LocalPlayer->Race == 5*) GOTO 0x0451
152: 0x043D [0x45] LOAD_SCHEDULED_TASK: Load scheduler "s014" with entities [EventEntity, EventEntity], work=[628*, 0*]
153: 0x044E [0x01] GOTO 0x047E
154: 0x0451 [0x02] IF !(LocalPlayer->Race == 6*) GOTO 0x046D
155: 0x0459 [0x45] LOAD_SCHEDULED_TASK: Load scheduler "s014" with entities [EventEntity, EventEntity], work=[628*, 0*]
156: 0x046A [0x01] GOTO 0x047E
157: 0x046D [0x45] LOAD_SCHEDULED_TASK: Load scheduler "s013" with entities [EventEntity, EventEntity], work=[628*, 0*]

SUBROUTINE_047E:
158: 0x047E [0x24] CREATE_DIALOG(message_id=14214*, default_option=0*, option_flags=0*)
     "Anything to say? [Yessir!/That's it?]"
159: 0x0485 [0x25] WAIT_DIALOG_SELECT()
160: 0x0486 [0x02] IF !(Work_Zone[0] == 0*) GOTO 0x04DF
161: 0x048E [0x6E] EventEntity uses emote 25*
162: 0x0495 [0x99] Wait for EventEntity animation to complete
163: 0x049A [0x52] END_LOAD_SCHEDULER: End scheduler "s013" with entities [EventEntity, EventEntity], work=628*
164: 0x04A9 [0x52] END_LOAD_SCHEDULER: End scheduler "s014" with entities [EventEntity, EventEntity], work=628*
165: 0x04B8 [0x45] LOAD_SCHEDULED_TASK: Load scheduler "s015" with entities [EventEntity, EventEntity], work=[628*, 0*]
166: 0x04C9 [0x1D] PRINT_EVENT_MESSAGE(message_id=14215*)
     "You can't fool me by just assenting to everything I say. That's not how education works. You'll never walk the path to enlightenment behaving like that!"
167: 0x04CC [0x23] WAIT_FOR_DIALOG_INTERACTION
168: 0x04CD [0x52] END_LOAD_SCHEDULER: End scheduler "s015" with entities [EventEntity, EventEntity], work=628*
169: 0x04DC [0x01] GOTO 0x0538
170: 0x04DF [0x02] IF !(Work_Zone[0] == 1*) GOTO 0x0538
171: 0x04E7 [0x52] END_LOAD_SCHEDULER: End scheduler "s013" with entities [EventEntity, EventEntity], work=628*
172: 0x04F6 [0x52] END_LOAD_SCHEDULER: End scheduler "s014" with entities [EventEntity, EventEntity], work=628*
173: 0x0505 [0x45] LOAD_SCHEDULED_TASK: Load scheduler "s016" with entities [EventEntity, EventEntity], work=[628*, 0*]
174: 0x0516 [0x6E] EventEntity uses emote 7*
175: 0x051D [0x99] Wait for EventEntity animation to complete
176: 0x0522 [0x1D] PRINT_EVENT_MESSAGE(message_id=14216*)
     "That curiosity of yours will really take you places, [lad/lass]. It's positively indispensable for any child of the Goddess."
177: 0x0525 [0x23] WAIT_FOR_DIALOG_INTERACTION
178: 0x0526 [0x52] END_LOAD_SCHEDULER: End scheduler "s016" with entities [EventEntity, EventEntity], work=628*
179: 0x0535 [0x01] GOTO 0x0538

SUBROUTINE_0538:
180: 0x0538 [0x45] LOAD_SCHEDULED_TASK: Load scheduler "s017" with entities [EventEntity, EventEntity], work=[628*, 0*]
181: 0x0549 [0x66] LOAD_EXT_SCHEDULER_MAIN: Load scheduler "tlk0" with entities [EventEntity, EventEntity], work=9*
182: 0x0558 [0x1D] PRINT_EVENT_MESSAGE(message_id=14217*)
     "To tell the truth, though, you're already well on your way to prominence!"
183: 0x055B [0x23] WAIT_FOR_DIALOG_INTERACTION
184: 0x055C [0x4A] Gulldago (ID: 17739939/0x010EB0A3) looks at Cleades (ID: 17739827/0x010EB033)
185: 0x0565 [0x4A] Cleades (ID: 17739827/0x010EB033) looks at Gulldago (ID: 17739939/0x010EB0A3)
186: 0x056E [0x1D] PRINT_EVENT_MESSAGE(message_id=14218*)
     "You even completed your first objective simply by talking to me. Furthermore, my experience tells me you'll be rewarded with some unusual type of compensation."
187: 0x0571 [0x23] WAIT_FOR_DIALOG_INTERACTION
188: 0x0572 [0x66] LOAD_EXT_SCHEDULER_MAIN: Load scheduler "tlk1" with entities [EventEntity, EventEntity], work=9*
189: 0x0581 [0x1D] PRINT_EVENT_MESSAGE(message_id=14219*)
     "Now, take the next step on your journey and try setting an objective all by yourself!"
190: 0x0584 [0x23] WAIT_FOR_DIALOG_INTERACTION
191: 0x0585 [0x52] END_LOAD_SCHEDULER: End scheduler "s017" with entities [EventEntity, EventEntity], work=628*
192: 0x0594 [0x45] LOAD_SCHEDULED_TASK: Load scheduler "s018" with entities [EventEntity, EventEntity], work=[628*, 0*]
193: 0x05A5 [0x6E] EventEntity uses emote 22*
194: 0x05AC [0x99] Wait for EventEntity animation to complete
195: 0x05B1 [0x5B] LOAD_EXT_SCHEDULER: Load scheduler "ude0" with entities [Gulldago (ID: 17739939/0x010EB0A3), Gulldago (ID: 17739939/0x010EB0A3)], work=958*
196: 0x05C0 [0x1D] PRINT_EVENT_MESSAGE(message_id=14220*)
     "No need to break out in a sweat--your eminent teacher will guide you. Just choose an objective under the "Objective List" in the "Records of Eminence" section of the Quests menu."
197: 0x05C3 [0x23] WAIT_FOR_DIALOG_INTERACTION
198: 0x05C4 [0x1C] WAIT(30* ticks)
199: 0x05C7 [0x6E] EventEntity uses emote 7*
200: 0x05CE [0x99] Wait for EventEntity animation to complete
201: 0x05D3 [0x1D] PRINT_EVENT_MESSAGE(message_id=14221*)
     "I hear you can even repeat certain ones. I'll let you figure out which ones they are on your own, though. I wouldn't want you to just regurgitate the answers I give you, now, would I?"
202: 0x05D6 [0x23] WAIT_FOR_DIALOG_INTERACTION
203: 0x05D7 [0x1C] WAIT(30* ticks)
204: 0x05DA [0x66] LOAD_EXT_SCHEDULER_MAIN: Load scheduler "tlk0" with entities [Cleades (ID: 17739827/0x010EB033), Cleades (ID: 17739827/0x010EB033)], work=9*
205: 0x05E9 [0x52] END_LOAD_SCHEDULER: End scheduler "s018" with entities [EventEntity, EventEntity], work=628*
206: 0x05F8 [0x45] LOAD_SCHEDULED_TASK: Load scheduler "s019" with entities [EventEntity, EventEntity], work=[628*, 0*]
207: 0x0609 [0x66] LOAD_EXT_SCHEDULER_MAIN: Load scheduler "tlk0" with entities [EventEntity, EventEntity], work=9*
208: 0x0618 [0x1D] PRINT_EVENT_MESSAGE(message_id=14222*)
     "Like I hinted at before, you gain "sparks of eminence" that quantify your achievements. Trade them to me and I'll give you back some tokens of gratitude."
209: 0x061B [0x23] WAIT_FOR_DIALOG_INTERACTION
210: 0x061C [0x66] LOAD_EXT_SCHEDULER_MAIN: Load scheduler "tlk1" with entities [EventEntity, EventEntity], work=9*
211: 0x062B [0x53] WAIT_SCHEDULER_TASK: Wait for scheduler "tlk1" with entities [EventEntity, EventEntity]
212: 0x0638 [0x52] END_LOAD_SCHEDULER: End scheduler "s019" with entities [EventEntity, EventEntity], work=628*
213: 0x0647 [0x02] IF !(ExtData[1]->WorkLocal[0] == 1*) GOTO 0x06CF
214: 0x064F [0x45] LOAD_SCHEDULED_TASK: Load scheduler "s000" with entities [EventEntity, EventEntity], work=[616*, 0*]
215: 0x0660 [0x4A] EventEntity looks at Gulldago (ID: 17739939/0x010EB0A3)
216: 0x0669 [0x6F] WAIT_FRAME_DELAY: Yield until WaitTime reaches zero
217: 0x066A [0x76] CHECK_ENTITY_RENDER_FLAGS: Wait until EventEntity Render.Flags0 and Render.Flags3 conditions are met
218: 0x066F [0x6E] EventEntity uses emote 0*
219: 0x0676 [0x99] Wait for EventEntity animation to complete
220: 0x067B [0x1C] WAIT(30* ticks)
221: 0x067E [0x4A] LocalPlayer looks at Gulldago (ID: 17739939/0x010EB0A3)
222: 0x0687 [0x1C] WAIT(60* ticks)
223: 0x068A [0x52] END_LOAD_SCHEDULER: End scheduler "s000" with entities [EventEntity, EventEntity], work=616*
224: 0x0699 [0x45] LOAD_SCHEDULED_TASK: Load scheduler "s020" with entities [EventEntity, EventEntity], work=[628*, 0*]
225: 0x06AA [0x1D] PRINT_EVENT_MESSAGE(message_id=14223*)
     "Whoa, now. I teach more advanced subjects than you're able to understand at the moment. Try talking to Gulldago to learn the basics first."
226: 0x06AD [0x23] WAIT_FOR_DIALOG_INTERACTION
227: 0x06AE [0x1C] WAIT(30* ticks)
228: 0x06B1 [0x4A] EventEntity looks at LocalPlayer
229: 0x06BA [0x6F] WAIT_FRAME_DELAY: Yield until WaitTime reaches zero
230: 0x06BB [0x76] CHECK_ENTITY_RENDER_FLAGS: Wait until EventEntity Render.Flags0 and Render.Flags3 conditions are met
231: 0x06C0 [0x52] END_LOAD_SCHEDULER: End scheduler "s020" with entities [EventEntity, EventEntity], work=628*
232: 0x06CF [0x45] LOAD_SCHEDULED_TASK: Load scheduler "s021" with entities [EventEntity, EventEntity], work=[628*, 0*]
233: 0x06E0 [0x1C] WAIT(30* ticks)
234: 0x06E3 [0x4A] LocalPlayer looks at EventEntity
235: 0x06EC [0x6F] WAIT_FRAME_DELAY: Yield until WaitTime reaches zero
236: 0x06ED [0x76] CHECK_ENTITY_RENDER_FLAGS: Wait until LocalPlayer Render.Flags0 and Render.Flags3 conditions are met
237: 0x06F2 [0x03] Work_Zone[2] = 2466*
238: 0x06F7 [0x1D] PRINT_EVENT_MESSAGE(message_id=14224*)
     "By the way, this little bugger here, which we call $6, records all your eminent feats for you."
239: 0x06FA [0x23] WAIT_FOR_DIALOG_INTERACTION
240: 0x06FB [0x27] REQ_SET(priority=0x05, entity_id=LocalPlayer, tag_num=0x32)
241: 0x0702 [0x52] END_LOAD_SCHEDULER: End scheduler "s021" with entities [EventEntity, EventEntity], work=628*
242: 0x0711 [0x02] IF !(LocalPlayer->Race == 3*) GOTO 0x072D
243: 0x0719 [0x45] LOAD_SCHEDULED_TASK: Load scheduler "s002" with entities [EventEntity, EventEntity], work=[616*, 0*]
244: 0x072A [0x01] GOTO 0x07AE
245: 0x072D [0x02] IF !(LocalPlayer->Race == 4*) GOTO 0x0749
246: 0x0735 [0x45] LOAD_SCHEDULED_TASK: Load scheduler "s002" with entities [EventEntity, EventEntity], work=[616*, 0*]
247: 0x0746 [0x01] GOTO 0x07AE
248: 0x0749 [0x02] IF !(LocalPlayer->Race == 5*) GOTO 0x0765
249: 0x0751 [0x45] LOAD_SCHEDULED_TASK: Load scheduler "s003" with entities [EventEntity, EventEntity], work=[616*, 0*]
250: 0x0762 [0x01] GOTO 0x07AE
251: 0x0765 [0x02] IF !(LocalPlayer->Race == 6*) GOTO 0x0781
252: 0x076D [0x45] LOAD_SCHEDULED_TASK: Load scheduler "s003" with entities [EventEntity, EventEntity], work=[616*, 0*]
253: 0x077E [0x01] GOTO 0x07AE
254: 0x0781 [0x02] IF !(LocalPlayer->Race == 8*) GOTO 0x079D
255: 0x0789 [0x45] LOAD_SCHEDULED_TASK: Load scheduler "s002" with entities [EventEntity, EventEntity], work=[616*, 0*]
256: 0x079A [0x01] GOTO 0x07AE
257: 0x079D [0x45] LOAD_SCHEDULED_TASK: Load scheduler "s001" with entities [EventEntity, EventEntity], work=[616*, 0*]

SUBROUTINE_07AE:
258: 0x07AE [0x1C] WAIT(90* ticks)
259: 0x07B1 [0x27] REQ_SET(priority=0x05, entity_id=LocalPlayer, tag_num=0x33)
260: 0x07B8 [0x1C] WAIT(60* ticks)
261: 0x07BB [0x52] END_LOAD_SCHEDULER: End scheduler "s001" with entities [EventEntity, EventEntity], work=616*
262: 0x07CA [0x52] END_LOAD_SCHEDULER: End scheduler "s002" with entities [EventEntity, EventEntity], work=616*
263: 0x07D9 [0x52] END_LOAD_SCHEDULER: End scheduler "s003" with entities [EventEntity, EventEntity], work=616*
264: 0x07E8 [0x45] LOAD_SCHEDULED_TASK: Load scheduler "s022" with entities [EventEntity, EventEntity], work=[628*, 0*]
265: 0x07F9 [0x1D] PRINT_EVENT_MESSAGE(message_id=14225*)
     "Hm? Oh. Yes, I too sometimes become unsettled by its constant and intense glaring."
266: 0x07FC [0x23] WAIT_FOR_DIALOG_INTERACTION
267: 0x07FD [0x6E] Isakoth (ID: 17739953/0x010EB0B1) uses emote 14*
268: 0x0804 [0x99] Wait for Isakoth (ID: 17739953/0x010EB0B1) animation to complete
269: 0x0809 [0x1D] PRINT_EVENT_MESSAGE(message_id=14226*)
     "Luckily, all you need to do is to clap your hands together like so and..."
270: 0x080C [0x23] WAIT_FOR_DIALOG_INTERACTION
271: 0x080D [0x52] END_LOAD_SCHEDULER: End scheduler "s022" with entities [EventEntity, EventEntity], work=628*
272: 0x081C [0x45] LOAD_SCHEDULED_TASK: Load scheduler "s023" with entities [EventEntity, EventEntity], work=[628*, 0*]
273: 0x082D [0xBB] LOAD_EVENT_SCHEDULER_ALT: Load scheduler "trg0" with entities [??? (ID: 17739954/0x010EB0B2), ??? (ID: 17739954/0x010EB0B2)], work=[10*, 0*]
274: 0x083E [0x1C] WAIT(120* ticks)
275: 0x0841 [0x6E] EventEntity uses emote 22*
276: 0x0848 [0x99] Wait for EventEntity animation to complete
277: 0x084D [0x79] LocalPlayer looks at ??? (ID: 17739954/0x010EB0B2) (Basic look)
278: 0x0857 [0x1D] PRINT_EVENT_MESSAGE(message_id=14227*)
     "...it vanishes into thin air. See, even this soulless machination possesses a fighting spirit. How else could it disappear instantaneously like that?"
279: 0x085A [0x23] WAIT_FOR_DIALOG_INTERACTION
280: 0x085B [0x52] END_LOAD_SCHEDULER: End scheduler "s023" with entities [EventEntity, EventEntity], work=628*
281: 0x086A [0x45] LOAD_SCHEDULED_TASK: Load scheduler "s011" with entities [EventEntity, EventEntity], work=[616*, 0*]
282: 0x087B [0x79] LocalPlayer looks at EventEntity (Basic look)
283: 0x0885 [0x1C] WAIT(30* ticks)
284: 0x0888 [0x6E] EventEntity uses emote 4*
285: 0x088F [0x99] Wait for EventEntity animation to complete
286: 0x0894 [0x1D] PRINT_EVENT_MESSAGE(message_id=14228*)
     "Just kidding. I'm only trying to cover up the fact that I don't know how it works. As my mentor always said, "When you don't know the answer to a question, distract the person with a joke.""
287: 0x0897 [0x23] WAIT_FOR_DIALOG_INTERACTION
288: 0x0898 [0x99] Wait for EventEntity animation to complete
289: 0x089D [0x52] END_LOAD_SCHEDULER: End scheduler "s011" with entities [EventEntity, EventEntity], work=616*
290: 0x08AC [0x45] LOAD_SCHEDULED_TASK: Load scheduler "s025" with entities [EventEntity, EventEntity], work=[628*, 0*]
291: 0x08BD [0x1C] WAIT(30* ticks)
292: 0x08C0 [0x6E] EventEntity uses emote 7*
293: 0x08C7 [0x99] Wait for EventEntity animation to complete
294: 0x08CC [0x03] Work_Zone[2] = 2466*
295: 0x08D1 [0x1D] PRINT_EVENT_MESSAGE(message_id=14229*)
     "Well, I've officially taught you all I know. Go out into the world with your trusty $3 and prove how esteemed you truly are!"
296: 0x08D4 [0x23] WAIT_FOR_DIALOG_INTERACTION
297: 0x08D5 [0x6E] EventEntity uses emote 14*
298: 0x08DC [0x99] Wait for EventEntity animation to complete
299: 0x08E1 [0x1D] PRINT_EVENT_MESSAGE(message_id=14230*)
     "...I always get a little teary-eyed when I see my disciples go off to bigger and better things...<sniffle>"
300: 0x08E4 [0x23] WAIT_FOR_DIALOG_INTERACTION
301: 0x08E5 [0x1C] WAIT(40* ticks)
302: 0x08E8 [0x05] Work_Zone[1] = 1
303: 0x08EB [0x52] END_LOAD_SCHEDULER: End scheduler "s025" with entities [EventEntity, EventEntity], work=628*
304: 0x08FA [0x45] LOAD_SCHEDULED_TASK: Load scheduler "s121" with entities [EventEntity, EventEntity], work=[628*, 0*]
305: 0x090B [0x27] REQ_SET(priority=0x05, entity_id=LocalPlayer, tag_num=0x39)
306: 0x0912 [0x6C] FADE_ENTITY_COLOR(entity_id=??? (ID: 17739954/0x010EB0B2), end_alpha=128*, fade_time=60*)
307: 0x091B [0x27] REQ_SET(priority=0x05, entity_id=??? (ID: 17739954/0x010EB0B2), tag_num=0x02)
308: 0x0922 [0x1C] WAIT(150* ticks)

SUBROUTINE_0925:
309: 0x0925 [0x1A] CALL_SUBROUTINE(address=0x2B89)
310: 0x0928 [0x52] END_LOAD_SCHEDULER: End scheduler "s121" with entities [EventEntity, EventEntity], work=628*
311: 0x0937 [0x5C] MUSIC_CONTROL: Set Idle (Day) music to song 152*
312: 0x093B [0x5C] MUSIC_CONTROL: Set Idle (Night) music to song 152*
313: 0x093F [0x9A] WAIT_MUSIC_SERVER()
314: 0x0940 [0x1C] WAIT(15* ticks)
315: 0x0943 [0xAB] EventEntity->DespawnValue = 0* // Set despawn value
316: 0x0947 [0x1C] WAIT(1* ticks)
317: 0x094A [0x46] CAMERA_CONTROL: Restore default settings
318: 0x094C [0x02] IF !(Work_Zone[1] == 1*) GOTO 0x0965
319: 0x0954 [0x45] LOAD_SCHEDULED_TASK: Load scheduler "qstc" with entities [EventEntity, EventEntity], work=[201*, 0*]
320: 0x0965 [0x45] LOAD_SCHEDULED_TASK: Load scheduler "fdi2" with entities [LocalPlayer, LocalPlayer], work=[200*, 0*]
321: 0x0976 [0x21] END_EVENT
322: 0x0977 [0x00] END_REQSTACK()
```

#### Data or dead code:

```
# Dead code (unreachable instructions):
     0x0281 [0x01] GOTO 0x0284
```

### Event 25

#### Metadata

| Field        | Value    |
|--------------|----------|
| Entrypoint   | 0x0978   |
| Data Size    | 30 bytes |
| Instructions | 8        |

```
      00 01 02 03 04 05 06 07  08 09 0A 0B 0C 0D 0E 0F
      -- -- -- -- -- -- -- --  -- -- -- -- -- -- -- --
0970:                          4A F0 FF FF 7F F8 FF FF          J.......
0980: 7F 4A F8 FF FF 7F F0 FF  FF 7F 6F 76 F8 FF FF 7F  .J........ov....
0990: 1D 48 80 23 21 00                                 .H.#!.          
```

#### Opcodes

```
  0: 0x0978 [0x4A] LocalPlayer looks at EventEntity
  1: 0x0981 [0x4A] EventEntity looks at LocalPlayer
  2: 0x098A [0x6F] WAIT_FRAME_DELAY: Yield until WaitTime reaches zero
  3: 0x098B [0x76] CHECK_ENTITY_RENDER_FLAGS: Wait until EventEntity Render.Flags0 and Render.Flags3 conditions are met
  4: 0x0990 [0x1D] PRINT_EVENT_MESSAGE(message_id=14201*)
     "Hey, there! Peer deep within the Quests menu to find the "Objective List" under "Records of Eminence" and slap the objective there into place!"
  5: 0x0993 [0x23] WAIT_FOR_DIALOG_INTERACTION
  6: 0x0994 [0x21] END_EVENT
  7: 0x0995 [0x00] END_REQSTACK()
```

### Event 26

#### Metadata

| Field        | Value      |
|--------------|------------|
| Entrypoint   | 0x0996     |
| Data Size    | 8499 bytes |
| Instructions | 1082       |

```
      00 01 02 03 04 05 06 07  08 09 0A 0B 0C 0D 0E 0F
      -- -- -- -- -- -- -- --  -- -- -- -- -- -- -- --
0990:                   03 03  00 02 10 03 04 00 03 10        ..........
09A0: 03 05 00 04 10 03 06 00  05 10 03 20 00 06 10 03  ........... ....
09B0: 21 00 07 10 4A F0 FF FF  7F F8 FF FF 7F 4A F8 FF  !...J........J..
09C0: FF 7F F0 FF FF 7F 02 03  00 49 80 80 D4 09 1D 4A  .........I.....J
09D0: 80 01 FE 09 02 03 00 4B  80 80 E2 09 1D 4C 80 01  .......K.....L..
09E0: FE 09 02 03 00 4D 80 80  F0 09 1D 4E 80 01 FE 09  .....M.....N....
09F0: 02 03 00 4F 80 80 FE 09  1D 50 80 01 FE 09 06 1B  ...O.....P......
0A00: 00 03 07 00 13 80 02 07  00 0B 80 02 8A 0D 03 02  ................
0A10: 10 04 00 03 08 00 51 80  02 06 00 0B 80 00 25 0A  ......Q.......%.
0A20: 03 08 00 52 80 3E 20 00  53 80 33 0A 3D 08 00 54  ...R.> .S.3.=..T
0A30: 80 13 80 3E 20 00 1F 80  41 0A 3D 08 00 54 80 13  ...> ...A.=..T..
0A40: 80 3E 20 00 53 80 4F 0A  3D 08 00 54 80 13 80 3E  .> .S.O.=..T...>
0A50: 20 00 1F 80 5D 0A 3D 08  00 54 80 13 80 3E 20 00   ...].=..T...> .
0A60: 1F 80 6B 0A 3D 08 00 54  80 13 80 03 1A 17 21 00  ..k.=..T......!.
0A70: 24 55 80 1B 00 08 00 25  02 00 10 0B 80 00 90 0A  $U.....%........
0A80: 03 1B 00 00 10 03 18 00  0B 80 1A AC 18 01 87 0D  ................
0A90: 02 00 10 13 80 00 A8 0A  03 1B 00 00 10 03 18 00  ................
0AA0: 13 80 1A AC 18 01 87 0D  02 00 10 18 80 00 C0 0A  ................
0AB0: 03 1B 00 00 10 03 18 00  18 80 1A AC 18 01 87 0D  ................
0AC0: 02 00 10 37 80 00 D8 0A  03 1B 00 00 10 03 18 00  ...7............
0AD0: 37 80 1A AC 18 01 87 0D  02 00 10 14 80 00 F0 0A  7...............
0AE0: 03 1B 00 00 10 03 18 00  14 80 1A AC 18 01 87 0D  ................
0AF0: 02 00 10 1D 80 00 08 0B  03 1B 00 00 10 03 18 00  ................
0B00: 1D 80 1A AC 18 01 87 0D  02 00 10 1E 80 00 20 0B  .............. .
0B10: 03 1B 00 00 10 03 18 00  1E 80 1A AC 18 01 87 0D  ................
0B20: 02 00 10 11 80 00 38 0B  03 1B 00 00 10 03 18 00  ......8.........
0B30: 11 80 1A AC 18 01 87 0D  02 00 10 38 80 00 50 0B  ...........8..P.
0B40: 03 1B 00 00 10 03 18 00  38 80 1A AC 18 01 87 0D  ........8.......
0B50: 02 00 10 24 80 00 68 0B  03 1B 00 00 10 03 18 00  ...$..h.........
0B60: 24 80 1A AC 18 01 87 0D  02 00 10 3D 80 00 78 0B  $..........=..x.
0B70: 03 1B 00 00 10 01 87 0D  02 00 10 54 80 00 8B 0B  ...........T....
0B80: 03 1B 00 00 10 1A C1 1E  01 87 0D 02 00 10 56 80  ..............V.
0B90: 00 9E 0B 03 1B 00 00 10  1A 2B 21 01 87 0D 02 00  .........+!.....
0BA0: 10 57 80 00 B1 0B 03 1B  00 00 10 1A 22 29 01 87  .W..........")..
0BB0: 0D 02 00 10 3B 80 00 79  0D 03 1B 00 00 10 02 03  ....;..y........
0BC0: 00 49 80 80 EE 0B 66 58  80 F8 FF FF 7F F8 FF FF  .I....fX........
0BD0: 7F 74 6C 6B 30 1C 09 80  1D 59 80 23 66 58 80 F8  .tlk0....Y.#fX..
0BE0: FF FF 7F F8 FF FF 7F 74  6C 6B 31 01 7E 0C 02 03  .......tlk1.~...
0BF0: 00 4B 80 80 1E 0C 66 24  80 F8 FF FF 7F F8 FF FF  .K....f$........
0C00: 7F 74 6C 6B 30 1C 09 80  1D 5A 80 23 66 24 80 F8  .tlk0....Z.#f$..
0C10: FF FF 7F F8 FF FF 7F 74  6C 6B 31 01 7E 0C 02 03  .......tlk1.~...
0C20: 00 4D 80 80 4E 0C 66 5B  80 F8 FF FF 7F F8 FF FF  .M..N.f[........
0C30: 7F 74 6C 6B 30 1C 09 80  1D 5C 80 23 66 5B 80 F8  .tlk0....\.#f[..
0C40: FF FF 7F F8 FF FF 7F 74  6C 6B 31 01 7E 0C 02 03  .......tlk1.~...
0C50: 00 4F 80 80 7E 0C 66 5D  80 F8 FF FF 7F F8 FF FF  .O..~.f]........
0C60: 7F 74 6C 6B 30 1C 09 80  1D 5E 80 23 66 5D 80 F8  .tlk0....^.#f]..
0C70: FF FF 7F F8 FF FF 7F 74  6C 6B 31 01 7E 0C 1C 09  .......tlk1.~...
0C80: 80 48 5F 80 23 48 60 80  23 48 61 80 23 48 62 80  .H_.#H`.#Ha.#Hb.
0C90: 23 48 63 80 23 03 02 10  21 80 48 64 80 23 48 65  #Hc.#...!.Hd.#He
0CA0: 80 23 02 03 00 49 80 80  D6 0C 66 58 80 F8 FF FF  .#...I....fX....
0CB0: 7F F8 FF FF 7F 74 6C 6B  30 1C 09 80 1D 66 80 23  .....tlk0....f.#
0CC0: 1D 67 80 23 66 58 80 F8  FF FF 7F F8 FF FF 7F 74  .g.#fX.........t
0CD0: 6C 6B 31 01 76 0D 02 03  00 4B 80 80 0A 0D 66 24  lk1.v....K....f$
0CE0: 80 F8 FF FF 7F F8 FF FF  7F 74 6C 6B 30 1C 09 80  .........tlk0...
0CF0: 1D 68 80 23 1D 69 80 23  66 24 80 F8 FF FF 7F F8  .h.#.i.#f$......
0D00: FF FF 7F 74 6C 6B 31 01  76 0D 02 03 00 4D 80 80  ...tlk1.v....M..
0D10: 42 0D 66 5B 80 F8 FF FF  7F F8 FF FF 7F 74 6C 6B  B.f[.........tlk
0D20: 30 1C 09 80 1D 6A 80 23  1D 6B 80 23 1D 6C 80 23  0....j.#.k.#.l.#
0D30: 66 5B 80 F8 FF FF 7F F8  FF FF 7F 74 6C 6B 31 01  f[.........tlk1.
0D40: 76 0D 02 03 00 4F 80 80  76 0D 66 5D 80 F8 FF FF  v....O..v.f]....
0D50: 7F F8 FF FF 7F 74 6C 6B  30 1C 09 80 1D 6D 80 23  .....tlk0....m.#
0D60: 1D 6E 80 23 66 5D 80 F8  FF FF 7F F8 FF FF 7F 74  .n.#f].........t
0D70: 6C 6B 31 01 76 0D 01 87  0D 02 00 10 0C 80 00 87  lk1.v...........
0D80: 0D 0C 07 00 01 87 0D 01  06 0A 21 00 03 10 04 10  ..........!.....
0D90: 05 10 06 10 07 10 08 10  09 10 00 17 01 17 02 17  ................
0DA0: 03 17 04 17 05 17 06 17  07 17 08 17 09 17 0A 17  ................
0DB0: 0B 17 0C 17 0D 17 0E 17  0F 17 10 17 11 17 12 17  ................
0DC0: 13 17 14 17 15 17 16 17  17 17 0B 80 6F 80 70 80  ............o.p.
0DD0: 71 80 72 80 73 80 74 80  75 80 76 80 77 80 78 80  q.r.s.t.u.v.w.x.
0DE0: 79 80 7A 80 7B 80 7C 80  0B 80 0B 80 0B 80 0B 80  y.z.{.|.........
0DF0: 0B 80 0B 80 0B 80 0B 80  0B 80 0B 80 3D 80 3D 80  ............=.=.
0E00: 7D 80 7D 80 7D 80 7D 80  7D 80 7E 80 7E 80 7E 80  }.}.}.}.}.~.~.~.
0E10: 7E 80 7E 80 7F 80 80 80  0B 80 0B 80 0B 80 0B 80  ~.~.............
0E20: 0B 80 0B 80 0B 80 0B 80  0B 80 0B 80 6F 80 70 80  ............o.p.
0E30: 81 80 71 80 72 80 73 80  74 80 75 80 76 80 77 80  ..q.r.s.t.u.v.w.
0E40: 78 80 79 80 7A 80 7B 80  0B 80 0B 80 0B 80 0B 80  x.y.z.{.........
0E50: 0B 80 0B 80 0B 80 0B 80  0B 80 0B 80 3D 80 3D 80  ............=.=.
0E60: 82 80 7D 80 7D 80 7D 80  7D 80 7D 80 7E 80 7E 80  ..}.}.}.}.}.~.~.
0E70: 7E 80 7E 80 7E 80 7F 80  0B 80 0B 80 0B 80 0B 80  ~.~.~...........
0E80: 0B 80 0B 80 0B 80 0B 80  0B 80 0B 80 83 80 84 80  ................
0E90: 85 80 86 80 87 80 88 80  89 80 8A 80 8B 80 8C 80  ................
0EA0: 8D 80 8E 80 8F 80 90 80  91 80 92 80 93 80 94 80  ................
0EB0: 95 80 96 80 97 80 98 80  99 80 9A 80 9B 80 9C 80  ................
0EC0: 9D 80 9E 80 9F 80 A0 80  A1 80 A2 80 A3 80 0B 80  ................
0ED0: 0B 80 0B 80 0B 80 0B 80  0B 80 0B 80 0B 80 0B 80  ................
0EE0: 0B 80 0B 80 0B 80 0B 80  0B 80 0B 80 47 80 47 80  ............G.G.
0EF0: 47 80 47 80 47 80 47 80  47 80 47 80 47 80 47 80  G.G.G.G.G.G.G.G.
0F00: 47 80 47 80 47 80 47 80  47 80 47 80 47 80 47 80  G.G.G.G.G.G.G.G.
0F10: 47 80 47 80 47 80 47 80  47 80 47 80 47 80 47 80  G.G.G.G.G.G.G.G.
0F20: 47 80 47 80 47 80 47 80  47 80 47 80 47 80 0B 80  G.G.G.G.G.G.G...
0F30: 0B 80 0B 80 0B 80 0B 80  0B 80 0B 80 0B 80 0B 80  ................
0F40: 0B 80 0B 80 0B 80 0B 80  0B 80 0B 80 A4 80 A5 80  ................
0F50: A6 80 A7 80 A8 80 A9 80  AA 80 AB 80 AC 80 AD 80  ................
0F60: AE 80 AF 80 B0 80 B1 80  B2 80 B3 80 B4 80 B5 80  ................
0F70: B6 80 B7 80 B8 80 B9 80  BA 80 BB 80 BC 80 BD 80  ................
0F80: BE 80 BF 80 C0 80 C1 80  C2 80 C3 80 C4 80 C5 80  ................
0F90: C6 80 C7 80 C8 80 C9 80  CA 80 CB 80 CC 80 CD 80  ................
0FA0: CE 80 CF 80 D0 80 D1 80  D2 80 D3 80 D4 80 D5 80  ................
0FB0: D6 80 D7 80 D8 80 D9 80  DA 80 DB 80 DC 80 DD 80  ................
0FC0: DE 80 DF 80 E0 80 E1 80  E2 80 E3 80 0B 80 0B 80  ................
0FD0: 0B 80 0B 80 0B 80 0B 80  0B 80 0B 80 0B 80 0B 80  ................
0FE0: 0B 80 0B 80 0B 80 0B 80  0B 80 0B 80 E4 80 E4 80  ................
0FF0: E4 80 E4 80 E4 80 E4 80  E4 80 E4 80 E4 80 E4 80  ................
1000: E4 80 E4 80 E4 80 E4 80  E4 80 E4 80 E4 80 E4 80  ................
1010: E4 80 E4 80 E4 80 E4 80  E4 80 E4 80 E4 80 E4 80  ................
1020: E4 80 E4 80 E4 80 E4 80  E4 80 E4 80 E4 80 E4 80  ................
1030: E4 80 E4 80 E4 80 E4 80  E4 80 E4 80 E4 80 E4 80  ................
1040: E4 80 E4 80 E4 80 E4 80  E4 80 E4 80 E4 80 E4 80  ................
1050: E4 80 E4 80 E4 80 E4 80  E4 80 E4 80 E4 80 E4 80  ................
1060: E4 80 E4 80 E4 80 E4 80  E4 80 E4 80 0B 80 0B 80  ................
1070: 0B 80 0B 80 0B 80 0B 80  0B 80 0B 80 0B 80 0B 80  ................
1080: 0B 80 0B 80 0B 80 0B 80  0B 80 0B 80 E5 80 E6 80  ................
1090: E7 80 E8 80 E9 80 EA 80  EB 80 EC 80 ED 80 EE 80  ................
10A0: EF 80 F0 80 F1 80 F2 80  F3 80 F4 80 F5 80 F6 80  ................
10B0: F7 80 F8 80 F9 80 FA 80  FB 80 FC 80 FD 80 FE 80  ................
10C0: FF 80 00 81 01 81 02 81  03 81 04 81 05 81 06 81  ................
10D0: 07 81 08 81 09 81 0A 81  0B 81 0C 81 0D 81 0E 81  ................
10E0: 0F 81 10 81 11 81 12 81  13 81 14 81 15 81 16 81  ................
10F0: 17 81 18 81 19 81 1A 81  0B 80 0B 80 0B 80 0B 80  ................
1100: 0B 80 0B 80 0B 80 0B 80  0B 80 0B 80 0E 80 0E 80  ................
1110: 0E 80 1B 81 1C 81 1B 81  1D 81 0E 80 1E 81 1F 81  ................
1120: 0E 80 20 81 0E 80 21 81  0E 80 0E 80 1F 81 22 81  .. ...!.......".
1130: 23 81 24 81 0E 80 0E 80  0E 80 0E 80 25 81 0E 80  #.$.........%...
1140: 0E 80 26 81 0E 80 47 80  27 81 28 81 0E 80 0E 80  ..&...G.'.(.....
1150: 0E 80 0E 80 0E 80 0E 80  0E 80 0E 80 0E 80 0E 80  ................
1160: 0E 80 29 81 0E 80 0E 80  0E 80 0E 80 0E 80 0E 80  ..).............
1170: 0E 80 0E 80 0E 80 0E 80  0B 80 0B 80 0B 80 0B 80  ................
1180: 0B 80 0B 80 0B 80 0B 80  0B 80 0B 80 2A 81 2B 81  ............*.+.
1190: 2C 81 2D 81 2E 81 2F 81  30 81 31 81 32 81 33 81  ,.-.../.0.1.2.3.
11A0: 34 81 35 81 36 81 37 81  38 81 39 81 3A 81 3B 81  4.5.6.7.8.9.:.;.
11B0: 3C 81 3D 81 3E 81 3F 81  40 81 41 81 42 81 43 81  <.=.>.?.@.A.B.C.
11C0: 44 81 45 81 46 81 47 81  48 81 49 81 4A 81 4B 81  D.E.F.G.H.I.J.K.
11D0: 4C 81 4D 81 4E 81 4F 81  50 81 51 81 52 81 53 81  L.M.N.O.P.Q.R.S.
11E0: 54 81 55 81 56 81 57 81  58 81 59 81 5A 81 5B 81  T.U.V.W.X.Y.Z.[.
11F0: 5C 81 5D 81 0B 80 0B 80  0B 80 0B 80 0B 80 0B 80  \.].............
1200: 0B 80 0B 80 0B 80 0B 80  0B 80 0B 80 5E 81 5F 81  ............^._.
1210: 26 81 60 81 61 81 62 81  63 81 64 81 65 81 66 81  &.`.a.b.c.d.e.f.
1220: 1C 81 67 81 68 81 69 81  6A 81 6B 81 60 81 23 80  ..g.h.i.j.k.`.#.
1230: 6C 81 1C 81 1C 81 1D 81  6D 81 6E 81 1C 81 6F 81  l.......m.n...o.
1240: 1C 81 1C 81 1C 81 70 81  71 81 72 81 73 81 74 81  ......p.q.r.s.t.
1250: 75 81 76 81 77 81 78 81  79 81 7A 81 7A 81 64 81  u.v.w.x.y.z.z.d.
1260: 7B 81 7C 81 1C 81 7D 81  7E 81 7F 81 80 81 69 81  {.|...}.~.....i.
1270: 1C 81 81 81 0B 80 0B 80  0B 80 0B 80 0B 80 0B 80  ................
1280: 0B 80 0B 80 0B 80 0B 80  0B 80 0B 80 82 81 83 81  ................
1290: 84 81 85 81 86 81 87 81  88 81 89 81 8A 81 8B 81  ................
12A0: 8C 81 8D 81 8E 81 8F 81  90 81 91 81 92 81 93 81  ................
12B0: 94 81 95 81 96 81 97 81  98 81 99 81 9A 81 9B 81  ................
12C0: 9C 81 9D 81 9E 81 9F 81  A0 81 A1 81 A2 81 A3 81  ................
12D0: A4 81 A5 81 A6 81 A7 81  A8 81 A9 81 AA 81 AB 81  ................
12E0: AC 81 AD 81 AE 81 AF 81  B0 81 B1 81 B2 81 B3 81  ................
12F0: B4 81 B5 81 B6 81 B7 81  B8 81 B9 81 BA 81 BB 81  ................
1300: BC 81 BD 81 BE 81 BF 81  C0 81 C1 81 C2 81 C3 81  ................
1310: C4 81 C5 81 C6 81 C7 81  C8 81 C9 81 CA 81 CB 81  ................
1320: 0B 80 0B 80 0B 80 0B 80  0B 80 0B 80 0B 80 0B 80  ................
1330: 0B 80 0B 80 0B 80 0B 80  0B 80 0B 80 CC 81 CD 81  ................
1340: 49 80 CE 81 CF 81 D0 81  D1 81 D2 81 D3 81 D4 81  I...............
1350: D5 81 76 81 1B 81 D6 81  D7 81 D8 81 D9 81 5F 81  ..v..........._.
1360: 24 81 DA 81 DB 81 49 80  DC 81 DD 81 DE 81 1B 81  $.....I.........
1370: 1B 81 DF 81 E0 81 1B 81  E1 81 E2 81 E3 81 70 81  ..............p.
1380: E4 81 E5 81 73 81 7A 81  1B 81 E6 81 6B 81 E7 81  ....s.z.....k...
1390: E8 81 1B 81 D0 81 68 81  24 81 E9 81 EA 81 EB 81  ......h.$.......
13A0: EC 81 ED 81 EE 81 EF 81  F0 81 F1 81 F2 81 E3 81  ................
13B0: 7A 81 1B 81 F3 81 47 80  F4 81 F5 81 F6 81 F7 81  z.....G.........
13C0: F8 81 F9 81 FA 81 CF 81  DF 81 1B 81 75 81 4F 80  ............u.O.
13D0: 0B 80 0B 80 0B 80 0B 80  0B 80 0B 80 0B 80 0B 80  ................
13E0: 0B 80 0B 80 0B 80 0B 80  0B 80 0B 80 FB 81 FC 81  ................
13F0: FD 81 FE 81 FF 81 00 82  01 82 02 82 03 82 04 82  ................
1400: 05 82 06 82 07 82 08 82  09 82 0A 82 0B 82 0C 82  ................
1410: 0D 82 0E 82 0F 82 10 82  11 82 12 82 13 82 14 82  ................
1420: 15 82 16 82 17 82 18 82  19 82 1A 82 1B 82 1C 82  ................
1430: 1D 82 67 80 1E 82 1F 82  20 82 21 82 22 82 23 82  ..g..... .!.".#.
1440: 24 82 25 82 26 82 27 82  28 82 29 82 2A 82 2B 82  $.%.&.'.(.).*.+.
