# 17739921 - Albanus

## Common Data

| Field            | Value                    |
|------------------|--------------------------|
| Zone             | Bastok Markets (ID: 235) |
| Block Size       | 164 bytes                |
| Total Events     | 5                        |
| References Count | 14                       |

## List of Events

| Event ID                 | Entrypoint   |   Size |   Instructions |
|--------------------------|--------------|--------|----------------|
| [65535](#event-65535)    | 0x0000       |      1 |              1 |
| [402](#event-402)        | 0x0001       |      1 |              1 |
| [65535.1](#event-655351) | 0x0002       |     27 |              7 |
| [65535.2](#event-655352) | 0x001D       |     27 |              7 |
| [65535.3](#event-655353) | 0x0038       |     15 |              3 |

## DAT References (imed_data)

|   Index | Hex Value   |   Dec Value |
|---------|-------------|-------------|
|       0 | 0xFFFCF393  |  4294767507 |
|       1 | 0xFFFDD8AA  |  4294826154 |
|       2 | 0x07CF      |        1999 |
|       3 | 0x0BF1      |        3057 |
|       4 | 0x000D      |          13 |
|       5 | 0xFFFCF3E5  |  4294767589 |
|       6 | 0xFFFE2A12  |  4294846994 |
|       7 | 0xFFFFE891  |  4294961297 |
|       8 | 0xFFFCF77C  |  4294768508 |
|       9 | 0xFFFE6DEC  |  4294864364 |
|      10 | 0xFFFFE890  |  4294961296 |
|      11 | 0xFFFD0109  |  4294770953 |
|      12 | 0xFFFE97E5  |  4294875109 |
|      13 | 0x0CBE      |        3262 |

## Events

### Event 65535

#### Metadata

| Field        | Value   |
|--------------|---------|
| Entrypoint   | 0x0000  |
| Data Size    | 1 bytes |
| Instructions | 1       |

```
      00 01 02 03 04 05 06 07  08 09 0A 0B 0C 0D 0E 0F
      -- -- -- -- -- -- -- --  -- -- -- -- -- -- -- --
0000: 00                                                .               
```

#### Opcodes

```
  0: 0x0000 [0x00] END_REQSTACK()
```

### Event 402

#### Metadata

| Field        | Value   |
|--------------|---------|
| Entrypoint   | 0x0001  |
| Data Size    | 1 bytes |
| Instructions | 1       |

```
      00 01 02 03 04 05 06 07  08 09 0A 0B 0C 0D 0E 0F
      -- -- -- -- -- -- -- --  -- -- -- -- -- -- -- --
0000:    00                                              .              
```

#### Opcodes

```
  0: 0x0001 [0x00] END_REQSTACK()
```

### Event 65535.1

#### Metadata

| Field        | Value    |
|--------------|----------|
| Entrypoint   | 0x0002   |
| Data Size    | 27 bytes |
| Instructions | 7        |

```
      00 01 02 03 04 05 06 07  08 09 0A 0B 0C 0D 0E 0F
      -- -- -- -- -- -- -- --  -- -- -- -- -- -- -- --
0000:       33 01 61 00 37 00  80 01 80 02 80 03 80 32    3.a.7........2
0010: 04 80 5A 00 05 80 06 80  07 80 5A 01 00           ..Z.......Z..   
```

#### Opcodes

```
  0: 0x0002 [0x33] EventEntity->Render.Flags0 |= 0x200000 // Bit 21 (flag=0x01)
  1: 0x0004 [0x61] EventEntity->Render.Flags2 &= ~0x00000001
  2: 0x0006 [0x37] UPDATE_EVENT_POSITION_AND_DIR: x=-199.789*, z=-141.142*, y=1.999*, direction=268.7°*
  3: 0x000F [0x32] ExtData[1]->MainSpeed = 13* * 0.1
  4: 0x0012 [0x5A] UPDATE_EVENT_POSITION: Set EventEntity MovePosition to X=-199.707*, Z=-120.302*, Y=-5.999*
  5: 0x001A [0x5A] UPDATE_EVENT_POSITION: Move EventEntity incrementally towards MovePosition
  6: 0x001C [0x00] END_REQSTACK()
```

### Event 65535.2

#### Metadata

| Field        | Value    |
|--------------|----------|
| Entrypoint   | 0x001D   |
| Data Size    | 27 bytes |
| Instructions | 7        |

```
      00 01 02 03 04 05 06 07  08 09 0A 0B 0C 0D 0E 0F
      -- -- -- -- -- -- -- --  -- -- -- -- -- -- -- --
0010:                                         37 05 80               7..
0020: 06 80 07 80 03 80 33 00  61 00 32 04 80 1F 00 08  ......3.a.2.....
0030: 80 09 80 0A 80 1F 01 00                           ........        
```

#### Opcodes

```
  0: 0x001D [0x37] UPDATE_EVENT_POSITION_AND_DIR: x=-199.707*, z=-120.302*, y=-5.999*, direction=268.7°*
  1: 0x0026 [0x33] EventEntity->Render.Flags0 &= ~ 0x200000 // Bit 21 (flag=0x00)
  2: 0x0028 [0x61] EventEntity->Render.Flags2 &= ~0x00000001
  3: 0x002A [0x32] ExtData[1]->MainSpeed = 13* * 0.1
  4: 0x002D [0x1F] MOVE_ENTITY: EventEntity moves to X=-198.788*, Z=-102.932*, Y=-6.000*
  5: 0x0035 [0x1F] MOVE_ENTITY: Update entity position (mode=1)
  6: 0x0037 [0x00] END_REQSTACK()
```

### Event 65535.3

#### Metadata

| Field        | Value    |
|--------------|----------|
| Entrypoint   | 0x0038   |
| Data Size    | 15 bytes |
| Instructions | 3        |

```
      00 01 02 03 04 05 06 07  08 09 0A 0B 0C 0D 0E 0F
      -- -- -- -- -- -- -- --  -- -- -- -- -- -- -- --
0030:                          37 0B 80 0C 80 07 80 0D          7.......
0040: 80 1E 0F B0 0E 01 00                              .......         
```

#### Opcodes

```
  0: 0x0038 [0x37] UPDATE_EVENT_POSITION_AND_DIR: x=-196.343*, z=-92.187*, y=-5.999*, direction=286.7°*
  1: 0x0041 [0x1E] EventEntity looks at Fatimah (ID: 17739791/0x010EB00F) and starts talking
  2: 0x0046 [0x00] END_REQSTACK()
```
