# 17739820 - Michea

## Common Data

| Field            | Value                    |
|------------------|--------------------------|
| Zone             | Bastok Markets (ID: 235) |
| Block Size       | 848 bytes                |
| Total Events     | 21                       |
| References Count | 51                       |

## List of Events

| Event ID                 | Entrypoint   |   Size |   Instructions |
|--------------------------|--------------|--------|----------------|
| [65535](#event-65535)    | 0x0000       |      1 |              1 |
| [65535.1](#event-655351) | 0x0001       |     33 |              6 |
| [65535.2](#event-655352) | 0x0022       |     43 |              7 |
| [65535.3](#event-655353) | 0x004D       |     19 |              5 |
| [125](#event-125)        | 0x0060       |     30 |              8 |
| [215](#event-215)        | 0x007E       |     52 |             16 |
| [216](#event-216)        | 0x00B2       |     61 |             12 |
| [240](#event-240)        | 0x00EF       |     48 |             14 |
| [241](#event-241)        | 0x011F       |     66 |             13 |
| [243](#event-243)        | 0x0161       |      1 |              1 |
| [315](#event-315)        | 0x0162       |     44 |             12 |
| [316](#event-316)        | 0x018E       |     16 |              6 |
| [317](#event-317)        | 0x019E       |     14 |              7 |
| [320](#event-320)        | 0x01AC       |     11 |              5 |
| [318](#event-318)        | 0x01B7       |     11 |              5 |
| [319](#event-319)        | 0x01C2       |     39 |             11 |
| [322](#event-322)        | 0x01E9       |      1 |              1 |
| [65535.4](#event-655354) | 0x01EA       |     14 |              4 |
| [1008](#event-1008)      | 0x01F8       |      1 |              1 |
| [1009](#event-1009)      | 0x01F9       |      1 |              1 |
| [65535.5](#event-655355) | 0x01FA       |     36 |              8 |

## DAT References (imed_data)

|   Index | Hex Value   |   Dec Value |
|---------|-------------|-------------|
|       0 | 0x0028      |          40 |
|       1 | 0xFFFB3470  |  4294653040 |
|       2 | 0xFFFD727C  |  4294799996 |
|       3 | 0xFFFFC1B4  |  4294951348 |
|       4 | 0x068E      |        1678 |
|       5 | 0xFFFB2AAF  |  4294650543 |
|       6 | 0xFFFD63DE  |  4294796254 |
|       7 | 0xFFFFC1A4  |  4294951332 |
|       8 | 0x000D      |          13 |
|       9 | 0xFFFB21CE  |  4294648270 |
|      10 | 0xFFFD634A  |  4294796106 |
|      11 | 0x001E      |          30 |
|      12 | 0xFFFB1548  |  4294645064 |
|      13 | 0xFFFD6EF5  |  4294799093 |
|      14 | 0x1D78      |        7544 |
|      15 | 0x1D79      |        7545 |
|      16 | 0x0288      |         648 |
|      17 | 0x1DA5      |        7589 |
|      18 | 0x1DA6      |        7590 |
|      19 | 0x1DA7      |        7591 |
|      20 | 0x1DA8      |        7592 |
|      21 | 0x1DA9      |        7593 |
|      22 | 0x1DAA      |        7594 |
|      23 | 0x00C9      |         201 |
|      24 | 0x0000      |           0 |
|      25 | 0x02E8      |         744 |
|      26 | 0x1DC0      |        7616 |
|      27 | 0x1DC1      |        7617 |
|      28 | 0x1DC2      |        7618 |
|      29 | 0x1DC3      |        7619 |
|      30 | 0x1DC4      |        7620 |
|      31 | 0x028D      |         653 |
|      32 | 0x1E18      |        7704 |
|      33 | 0x1E19      |        7705 |
|      34 | 0x1E1A      |        7706 |
|      35 | 0x1E1B      |        7707 |
|      36 | 0x1E1C      |        7708 |
|      37 | 0x1E1D      |        7709 |
|      38 | 0x1E1E      |        7710 |
|      39 | 0x1E1F      |        7711 |
|      40 | 0x1E20      |        7712 |
|      41 | 0xFFFB6B4D  |  4294667085 |
|      42 | 0xFFFD9E39  |  4294811193 |
|      43 | 0xFFFFC19D  |  4294951325 |
|      44 | 0xFFFA9EF6  |  4294614774 |
|      45 | 0xFFFD7C86  |  4294802566 |
|      46 | 0xFFFFD8EE  |  4294957294 |
|      47 | 0x0696      |        1686 |
|      48 | 0xFFFA87B3  |  4294608819 |
|      49 | 0xFFFD6F1E  |  4294799134 |
|      50 | 0xFFFFD8E6  |  4294957286 |

## String References

- **7544**: I'm a goldsmith, but I don't work for the guild.
- **7545**: True goldsmiths are artists and artisans. But the goldsmiths in the guild only make the same trinkets over and over again. That's just not right!
- **7589**: What should I do? It's times like these I wish I was a member of the guild...
- **7590**: Oh, hello there. You're an adventurer, are you not? I could really use your help.
- **7591**: I'm a goldsmith...yes, I know that most people think the Elvaan are no good at that kind of craft. Nevertheless, that is what I do.
- **7592**: For my own reasons, I am not a member of the Goldsmiths' Guild. But because of that, I am having trouble collecting the materials I need for my work...
- **7593**: I'd be indebted to you if you could bring me $7.
- **7594**: Thank you! With this, I can finally complete my customer's order. Here, this is for you. Thank you again.
- **7616**: Hello. Do you have time? I need your help. I was thinking of giving Mister Dalzakk next door a present...
- **7617**: You see, when I lost both my parents to the war twenty years ago, Mister Dalzakk took me under his wing, even though I was Elvaan. He is like a father to me, and I love him dearly.
- **7618**: I want to show him that the time and money he spent raising me wasn't a waste. I want to make him a present with what I do best--goldsmithing.
- **7619**: This is what I need your help with. Could you get $7 for me? I will reward you with what I can.
- **7620**: Thank you! It isn't much, but I want you to have this. I must get to work right away!
- **7704**: Yes? You have an order for an Elvaan goldsmith? Why, I'm the only Elvaan goldsmith in this town...
- **7705**: Ah, of course, it's from Aunt Femitte. Only she could be so oblique.
- **7706**: All right, I'll do it. But I'm missing the key material. Do you have $7? I'll need one to make this.
- **7707**: I need $7. Please find one and bring it to me.
- **7708**: Thank you. I'll start working right away. Please come back a while later.
- **7709**: I've finished the item aunt Femitte ordered. Please take it back carefully. And do tell my aunt and Rouva that I said hello.
- **7710**: Rouva said that? Yes...I suppose I can talk about it now. I was, of course, devastated that my relatives would reject me.
- **7711**: But Aunt Femitte told me then that even if everyone else didn't want me back, I would always be welcome in her home. That meant a lot to me.
- **7712**: But I can't leave yet. First, I've got to try to make a name for myself here. Imagine an Elvaan girl becoming famous in Bastok! That is my goal and my dream.

## Events

### Event 65535

#### Metadata

| Field        | Value   |
|--------------|---------|
| Entrypoint   | 0x0000  |
| Data Size    | 1 bytes |
| Instructions | 1       |

```
      00 01 02 03 04 05 06 07  08 09 0A 0B 0C 0D 0E 0F
      -- -- -- -- -- -- -- --  -- -- -- -- -- -- -- --
0000: 00                                                .               
```

#### Opcodes

```
  0: 0x0000 [0x00] END_REQSTACK()
```

### Event 65535.1

#### Metadata

| Field        | Value    |
|--------------|----------|
| Entrypoint   | 0x0001   |
| Data Size    | 33 bytes |
| Instructions | 6        |

```
      00 01 02 03 04 05 06 07  08 09 0A 0B 0C 0D 0E 0F
      -- -- -- -- -- -- -- --  -- -- -- -- -- -- -- --
0000:    32 00 80 37 01 80 02  80 03 80 04 80 1F 00 05   2..7...........
0010: 80 06 80 07 80 1F 01 79  00 F8 FF FF 7F 05 B0 0E  .......y........
0020: 01 00                                             ..              
```

#### Opcodes

```
  0: 0x0001 [0x32] ExtData[1]->MainSpeed = 40* * 0.1
  1: 0x0004 [0x37] UPDATE_EVENT_POSITION_AND_DIR: x=-314.256*, z=-167.300*, y=-15.948*, direction=147.5°*
  2: 0x000D [0x1F] MOVE_ENTITY: EventEntity moves to X=-316.753*, Z=-171.042*, Y=-15.964*
  3: 0x0015 [0x1F] MOVE_ENTITY: Update entity position (mode=1)
  4: 0x0017 [0x79] EventEntity looks at Gwill (ID: 17739781/0x010EB005) (Basic look)
  5: 0x0021 [0x00] END_REQSTACK()
```

### Event 65535.2

#### Metadata

| Field        | Value    |
|--------------|----------|
| Entrypoint   | 0x0022   |
| Data Size    | 43 bytes |
| Instructions | 7        |

```
      00 01 02 03 04 05 06 07  08 09 0A 0B 0C 0D 0E 0F
      -- -- -- -- -- -- -- --  -- -- -- -- -- -- -- --
0020:       32 08 80 1F 00 09  80 0A 80 07 80 1F 01 6F    2............o
0030: 66 0B 80 F8 FF FF 7F F8  FF FF 7F 70 61 73 30 53  f..........pas0S
0040: F8 FF FF 7F F8 FF FF 7F  70 61 73 30 00           ........pas0.   
```

#### Opcodes

```
  0: 0x0022 [0x32] ExtData[1]->MainSpeed = 13* * 0.1
  1: 0x0025 [0x1F] MOVE_ENTITY: EventEntity moves to X=-319.026*, Z=-171.190*, Y=-15.964*
  2: 0x002D [0x1F] MOVE_ENTITY: Update entity position (mode=1)
  3: 0x002F [0x6F] WAIT_FRAME_DELAY: Yield until WaitTime reaches zero
  4: 0x0030 [0x66] LOAD_EXT_SCHEDULER_MAIN: Load scheduler "pas0" with entities [EventEntity, EventEntity], work=30*
  5: 0x003F [0x53] WAIT_SCHEDULER_TASK: Wait for scheduler "pas0" with entities [EventEntity, EventEntity]
  6: 0x004C [0x00] END_REQSTACK()
```

### Event 65535.3

#### Metadata

| Field        | Value    |
|--------------|----------|
| Entrypoint   | 0x004D   |
| Data Size    | 19 bytes |
| Instructions | 5        |

```
      00 01 02 03 04 05 06 07  08 09 0A 0B 0C 0D 0E 0F
      -- -- -- -- -- -- -- --  -- -- -- -- -- -- -- --
0040:                                         7B F8 FF               {..
0050: FF 7F 32 08 80 1F 00 0C  80 0D 80 03 80 1F 01 00  ..2.............
```

#### Opcodes

```
  0: 0x004D [0x7B] EventEntity stops talking
  1: 0x0052 [0x32] ExtData[1]->MainSpeed = 13* * 0.1
  2: 0x0055 [0x1F] MOVE_ENTITY: EventEntity moves to X=-322.232*, Z=-168.203*, Y=-15.948*
  3: 0x005D [0x1F] MOVE_ENTITY: Update entity position (mode=1)
  4: 0x005F [0x00] END_REQSTACK()
```

### Event 125

#### Metadata

| Field        | Value    |
|--------------|----------|
| Entrypoint   | 0x0060   |
| Data Size    | 30 bytes |
| Instructions | 8        |

```
      00 01 02 03 04 05 06 07  08 09 0A 0B 0C 0D 0E 0F
      -- -- -- -- -- -- -- --  -- -- -- -- -- -- -- --
0060: 1E F0 FF FF 7F 1D 0E 80  23 66 0B 80 F8 FF FF 7F  ........#f......
0070: F8 FF FF 7F 74 6C 6B 30  1D 0F 80 23 21 00        ....tlk0...#!.  
```

#### Opcodes

```
  0: 0x0060 [0x1E] EventEntity looks at LocalPlayer and starts talking
  1: 0x0065 [0x1D] PRINT_EVENT_MESSAGE(message_id=7544*)
    → "I'm a goldsmith, but I don't work for the guild."
  2: 0x0068 [0x23] WAIT_FOR_DIALOG_INTERACTION
  3: 0x0069 [0x66] LOAD_EXT_SCHEDULER_MAIN: Load scheduler "tlk0" with entities [EventEntity, EventEntity], work=30*
  4: 0x0078 [0x1D] PRINT_EVENT_MESSAGE(message_id=7545*)
    → "True goldsmiths are artists and artisans. But the goldsmiths in the guild only make the same trinkets over and over again. That's just not right!"
  5: 0x007B [0x23] WAIT_FOR_DIALOG_INTERACTION
  6: 0x007C [0x21] END_EVENT
  7: 0x007D [0x00] END_REQSTACK()
```

### Event 215

#### Metadata

| Field        | Value    |
|--------------|----------|
| Entrypoint   | 0x007E   |
| Data Size    | 52 bytes |
| Instructions | 16       |

```
      00 01 02 03 04 05 06 07  08 09 0A 0B 0C 0D 0E 0F
      -- -- -- -- -- -- -- --  -- -- -- -- -- -- -- --
0070:                                            03 09                ..
0080: 10 10 80 1D 11 80 23 1E  F0 FF FF 7F 1D 12 80 23  ......#........#
0090: 66 0B 80 F8 FF FF 7F F8  FF FF 7F 74 6C 6B 30 1D  f..........tlk0.
00A0: 13 80 23 1D 14 80 23 5E  69 64 6C 30 1D 15 80 23  ..#...#^idl0...#
00B0: 21 00                                             !.              
```

#### Opcodes

```
  0: 0x007E [0x03] Work_Zone[9] = 648*
  1: 0x0083 [0x1D] PRINT_EVENT_MESSAGE(message_id=7589*)
    → "What should I do? It's times like these I wish I was a member of the guild..."
  2: 0x0086 [0x23] WAIT_FOR_DIALOG_INTERACTION
  3: 0x0087 [0x1E] EventEntity looks at LocalPlayer and starts talking
  4: 0x008C [0x1D] PRINT_EVENT_MESSAGE(message_id=7590*)
    → "Oh, hello there. You're an adventurer, are you not? I could really use your help."
  5: 0x008F [0x23] WAIT_FOR_DIALOG_INTERACTION
  6: 0x0090 [0x66] LOAD_EXT_SCHEDULER_MAIN: Load scheduler "tlk0" with entities [EventEntity, EventEntity], work=30*
  7: 0x009F [0x1D] PRINT_EVENT_MESSAGE(message_id=7591*)
    → "I'm a goldsmith...yes, I know that most people think the Elvaan are no good at that kind of craft. Nevertheless, that is what I do."
  8: 0x00A2 [0x23] WAIT_FOR_DIALOG_INTERACTION
  9: 0x00A3 [0x1D] PRINT_EVENT_MESSAGE(message_id=7592*)
    → "For my own reasons, I am not a member of the Goldsmiths' Guild. But because of that, I am having trouble collecting the materials I need for my work..."
 10: 0x00A6 [0x23] WAIT_FOR_DIALOG_INTERACTION
 11: 0x00A7 [0x5E] EventEntity goes idle (kills current action) (animation: "idl0")
 12: 0x00AC [0x1D] PRINT_EVENT_MESSAGE(message_id=7593*)
    → "I'd be indebted to you if you could bring me $7."
 13: 0x00AF [0x23] WAIT_FOR_DIALOG_INTERACTION
 14: 0x00B0 [0x21] END_EVENT
 15: 0x00B1 [0x00] END_REQSTACK()
```

### Event 216

#### Metadata

| Field        | Value    |
|--------------|----------|
| Entrypoint   | 0x00B2   |
| Data Size    | 61 bytes |
| Instructions | 12       |

```
      00 01 02 03 04 05 06 07  08 09 0A 0B 0C 0D 0E 0F
      -- -- -- -- -- -- -- --  -- -- -- -- -- -- -- --
00B0:       42 20 01 1E F0 FF  FF 7F 6F 70 66 0B 80 F8    B ......opf...
00C0: FF FF 7F F8 FF FF 7F 70  61 73 30 1D 16 80 23 53  .......pas0...#S
00D0: F8 FF FF 7F F8 FF FF 7F  70 61 73 30 45 17 80 F0  ........pas0E...
00E0: FF FF 7F F0 FF FF 7F 71  73 74 63 18 80 21 00     .......qstc..!. 
```

#### Opcodes

```
  0: 0x00B2 [0x42] SET_CLI_EVENT_CANCEL_DATA()
  1: 0x00B3 [0x20] SET_CLI_EVENT_UC_FLAG: Lock player control
  2: 0x00B5 [0x1E] EventEntity looks at LocalPlayer and starts talking
  3: 0x00BA [0x6F] WAIT_FRAME_DELAY: Yield until WaitTime reaches zero
  4: 0x00BB [0x70] WAIT_ENTITY_RENDER_FLAG: Wait while EventEntity->Render.Flags3 bit 2 is set (cancel turn if not)
  5: 0x00BC [0x66] LOAD_EXT_SCHEDULER_MAIN: Load scheduler "pas0" with entities [EventEntity, EventEntity], work=30*
  6: 0x00CB [0x1D] PRINT_EVENT_MESSAGE(message_id=7594*)
    → "Thank you! With this, I can finally complete my customer's order. Here, this is for you. Thank you again."
  7: 0x00CE [0x23] WAIT_FOR_DIALOG_INTERACTION
  8: 0x00CF [0x53] WAIT_SCHEDULER_TASK: Wait for scheduler "pas0" with entities [EventEntity, EventEntity]
  9: 0x00DC [0x45] LOAD_SCHEDULED_TASK: Load scheduler "qstc" with entities [LocalPlayer, LocalPlayer], work=[201*, 0*]
 10: 0x00ED [0x21] END_EVENT
 11: 0x00EE [0x00] END_REQSTACK()
```

### Event 240

#### Metadata

| Field        | Value    |
|--------------|----------|
| Entrypoint   | 0x00EF   |
| Data Size    | 48 bytes |
| Instructions | 14       |

```
      00 01 02 03 04 05 06 07  08 09 0A 0B 0C 0D 0E 0F
      -- -- -- -- -- -- -- --  -- -- -- -- -- -- -- --
00E0:                                               1E                 .
00F0: F0 FF FF 7F 03 09 10 19  80 1D 1A 80 23 66 0B 80  ............#f..
0100: F8 FF FF 7F F8 FF FF 7F  74 6C 6B 30 1D 1B 80 23  ........tlk0...#
0110: 1D 1C 80 23 5E 69 64 6C  30 1D 1D 80 23 21 00     ...#^idl0...#!. 
```

#### Opcodes

```
  0: 0x00EF [0x1E] EventEntity looks at LocalPlayer and starts talking
  1: 0x00F4 [0x03] Work_Zone[9] = 744*
  2: 0x00F9 [0x1D] PRINT_EVENT_MESSAGE(message_id=7616*)
    → "Hello. Do you have time? I need your help. I was thinking of giving Mister Dalzakk next door a present..."
  3: 0x00FC [0x23] WAIT_FOR_DIALOG_INTERACTION
  4: 0x00FD [0x66] LOAD_EXT_SCHEDULER_MAIN: Load scheduler "tlk0" with entities [EventEntity, EventEntity], work=30*
  5: 0x010C [0x1D] PRINT_EVENT_MESSAGE(message_id=7617*)
    → "You see, when I lost both my parents to the war twenty years ago, Mister Dalzakk took me under his wing, even though I was Elvaan. He is like a father to me, and I love him dearly."
  6: 0x010F [0x23] WAIT_FOR_DIALOG_INTERACTION
  7: 0x0110 [0x1D] PRINT_EVENT_MESSAGE(message_id=7618*)
    → "I want to show him that the time and money he spent raising me wasn't a waste. I want to make him a present with what I do best--goldsmithing."
  8: 0x0113 [0x23] WAIT_FOR_DIALOG_INTERACTION
  9: 0x0114 [0x5E] EventEntity goes idle (kills current action) (animation: "idl0")
 10: 0x0119 [0x1D] PRINT_EVENT_MESSAGE(message_id=7619*)
    → "This is what I need your help with. Could you get $7 for me? I will reward you with what I can."
 11: 0x011C [0x23] WAIT_FOR_DIALOG_INTERACTION
 12: 0x011D [0x21] END_EVENT
 13: 0x011E [0x00] END_REQSTACK()
```

### Event 241

#### Metadata

| Field        | Value    |
|--------------|----------|
| Entrypoint   | 0x011F   |
| Data Size    | 66 bytes |
| Instructions | 13       |

```
      00 01 02 03 04 05 06 07  08 09 0A 0B 0C 0D 0E 0F
      -- -- -- -- -- -- -- --  -- -- -- -- -- -- -- --
0110:                                               20                  
0120: 01 42 1E F0 FF FF 7F 03  09 10 19 80 6F 70 66 0B  .B..........opf.
0130: 80 F8 FF FF 7F F8 FF FF  7F 70 61 73 30 1D 1E 80  .........pas0...
0140: 23 53 F8 FF FF 7F F8 FF  FF 7F 70 61 73 30 45 17  #S........pas0E.
0150: 80 F0 FF FF 7F F0 FF FF  7F 71 73 74 63 18 80 21  .........qstc..!
0160: 00                                                .               
```

#### Opcodes

```
  0: 0x011F [0x20] SET_CLI_EVENT_UC_FLAG: Lock player control
  1: 0x0121 [0x42] SET_CLI_EVENT_CANCEL_DATA()
  2: 0x0122 [0x1E] EventEntity looks at LocalPlayer and starts talking
  3: 0x0127 [0x03] Work_Zone[9] = 744*
  4: 0x012C [0x6F] WAIT_FRAME_DELAY: Yield until WaitTime reaches zero
  5: 0x012D [0x70] WAIT_ENTITY_RENDER_FLAG: Wait while EventEntity->Render.Flags3 bit 2 is set (cancel turn if not)
  6: 0x012E [0x66] LOAD_EXT_SCHEDULER_MAIN: Load scheduler "pas0" with entities [EventEntity, EventEntity], work=30*
  7: 0x013D [0x1D] PRINT_EVENT_MESSAGE(message_id=7620*)
    → "Thank you! It isn't much, but I want you to have this. I must get to work right away!"
  8: 0x0140 [0x23] WAIT_FOR_DIALOG_INTERACTION
  9: 0x0141 [0x53] WAIT_SCHEDULER_TASK: Wait for scheduler "pas0" with entities [EventEntity, EventEntity]
 10: 0x014E [0x45] LOAD_SCHEDULED_TASK: Load scheduler "qstc" with entities [LocalPlayer, LocalPlayer], work=[201*, 0*]
 11: 0x015F [0x21] END_EVENT
 12: 0x0160 [0x00] END_REQSTACK()
```

### Event 243

#### Metadata

| Field        | Value   |
|--------------|---------|
| Entrypoint   | 0x0161  |
| Data Size    | 1 bytes |
| Instructions | 1       |

```
      00 01 02 03 04 05 06 07  08 09 0A 0B 0C 0D 0E 0F
      -- -- -- -- -- -- -- --  -- -- -- -- -- -- -- --
0160:    00                                              .              
```

#### Opcodes

```
  0: 0x0161 [0x00] END_REQSTACK()
```

### Event 315

#### Metadata

| Field        | Value    |
|--------------|----------|
| Entrypoint   | 0x0162   |
| Data Size    | 44 bytes |
| Instructions | 12       |

```
      00 01 02 03 04 05 06 07  08 09 0A 0B 0C 0D 0E 0F
      -- -- -- -- -- -- -- --  -- -- -- -- -- -- -- --
0160:       1E F0 FF FF 7F 03  09 10 1F 80 1D 20 80 23    ........... .#
0170: 66 0B 80 F8 FF FF 7F F8  FF FF 7F 74 6C 6B 30 1D  f..........tlk0.
0180: 21 80 23 5E 69 64 6C 30  1D 22 80 23 21 00        !.#^idl0.".#!.  
```

#### Opcodes

```
  0: 0x0162 [0x1E] EventEntity looks at LocalPlayer and starts talking
  1: 0x0167 [0x03] Work_Zone[9] = 653*
  2: 0x016C [0x1D] PRINT_EVENT_MESSAGE(message_id=7704*)
    → "Yes? You have an order for an Elvaan goldsmith? Why, I'm the only Elvaan goldsmith in this town..."
  3: 0x016F [0x23] WAIT_FOR_DIALOG_INTERACTION
  4: 0x0170 [0x66] LOAD_EXT_SCHEDULER_MAIN: Load scheduler "tlk0" with entities [EventEntity, EventEntity], work=30*
  5: 0x017F [0x1D] PRINT_EVENT_MESSAGE(message_id=7705*)
    → "Ah, of course, it's from Aunt Femitte. Only she could be so oblique."
  6: 0x0182 [0x23] WAIT_FOR_DIALOG_INTERACTION
  7: 0x0183 [0x5E] EventEntity goes idle (kills current action) (animation: "idl0")
  8: 0x0188 [0x1D] PRINT_EVENT_MESSAGE(message_id=7706*)
    → "All right, I'll do it. But I'm missing the key material. Do you have $7? I'll need one to make this."
  9: 0x018B [0x23] WAIT_FOR_DIALOG_INTERACTION
 10: 0x018C [0x21] END_EVENT
 11: 0x018D [0x00] END_REQSTACK()
```

### Event 316

#### Metadata

| Field        | Value    |
|--------------|----------|
| Entrypoint   | 0x018E   |
| Data Size    | 16 bytes |
| Instructions | 6        |

```
      00 01 02 03 04 05 06 07  08 09 0A 0B 0C 0D 0E 0F
      -- -- -- -- -- -- -- --  -- -- -- -- -- -- -- --
0180:                                            1E F0                ..
0190: FF FF 7F 03 09 10 1F 80  1D 23 80 23 21 00        .........#.#!.  
```

#### Opcodes

```
  0: 0x018E [0x1E] EventEntity looks at LocalPlayer and starts talking
  1: 0x0193 [0x03] Work_Zone[9] = 653*
  2: 0x0198 [0x1D] PRINT_EVENT_MESSAGE(message_id=7707*)
    → "I need $7. Please find one and bring it to me."
  3: 0x019B [0x23] WAIT_FOR_DIALOG_INTERACTION
  4: 0x019C [0x21] END_EVENT
  5: 0x019D [0x00] END_REQSTACK()
```

### Event 317

#### Metadata

| Field        | Value    |
|--------------|----------|
| Entrypoint   | 0x019E   |
| Data Size    | 14 bytes |
| Instructions | 7        |

```
      00 01 02 03 04 05 06 07  08 09 0A 0B 0C 0D 0E 0F
      -- -- -- -- -- -- -- --  -- -- -- -- -- -- -- --
0190:                                            42 20                B 
01A0: 01 1E F0 FF FF 7F 1D 24  80 23 21 00              .......$.#!.    
```

#### Opcodes

```
  0: 0x019E [0x42] SET_CLI_EVENT_CANCEL_DATA()
  1: 0x019F [0x20] SET_CLI_EVENT_UC_FLAG: Lock player control
  2: 0x01A1 [0x1E] EventEntity looks at LocalPlayer and starts talking
  3: 0x01A6 [0x1D] PRINT_EVENT_MESSAGE(message_id=7708*)
    → "Thank you. I'll start working right away. Please come back a while later."
  4: 0x01A9 [0x23] WAIT_FOR_DIALOG_INTERACTION
  5: 0x01AA [0x21] END_EVENT
  6: 0x01AB [0x00] END_REQSTACK()
```

### Event 320

#### Metadata

| Field        | Value    |
|--------------|----------|
| Entrypoint   | 0x01AC   |
| Data Size    | 11 bytes |
| Instructions | 5        |

```
      00 01 02 03 04 05 06 07  08 09 0A 0B 0C 0D 0E 0F
      -- -- -- -- -- -- -- --  -- -- -- -- -- -- -- --
01A0:                                      1E F0 FF FF              ....
01B0: 7F 1D 24 80 23 21 00                              ..$.#!.         
```

#### Opcodes

```
  0: 0x01AC [0x1E] EventEntity looks at LocalPlayer and starts talking
  1: 0x01B1 [0x1D] PRINT_EVENT_MESSAGE(message_id=7708*)
    → "Thank you. I'll start working right away. Please come back a while later."
  2: 0x01B4 [0x23] WAIT_FOR_DIALOG_INTERACTION
  3: 0x01B5 [0x21] END_EVENT
  4: 0x01B6 [0x00] END_REQSTACK()
```

### Event 318

#### Metadata

| Field        | Value    |
|--------------|----------|
| Entrypoint   | 0x01B7   |
| Data Size    | 11 bytes |
| Instructions | 5        |

```
      00 01 02 03 04 05 06 07  08 09 0A 0B 0C 0D 0E 0F
      -- -- -- -- -- -- -- --  -- -- -- -- -- -- -- --
01B0:                      1E  F0 FF FF 7F 1D 25 80 23         ......%.#
01C0: 21 00                                             !.              
```

#### Opcodes

```
  0: 0x01B7 [0x1E] EventEntity looks at LocalPlayer and starts talking
  1: 0x01BC [0x1D] PRINT_EVENT_MESSAGE(message_id=7709*)
    → "I've finished the item aunt Femitte ordered. Please take it back carefully. And do tell my aunt and Rouva that I said hello."
  2: 0x01BF [0x23] WAIT_FOR_DIALOG_INTERACTION
  3: 0x01C0 [0x21] END_EVENT
  4: 0x01C1 [0x00] END_REQSTACK()
```

### Event 319

#### Metadata

| Field        | Value    |
|--------------|----------|
| Entrypoint   | 0x01C2   |
| Data Size    | 39 bytes |
| Instructions | 11       |

```
      00 01 02 03 04 05 06 07  08 09 0A 0B 0C 0D 0E 0F
      -- -- -- -- -- -- -- --  -- -- -- -- -- -- -- --
01C0:       1E F0 FF FF 7F 1D  26 80 23 66 0B 80 F8 FF    ......&.#f....
01D0: FF 7F F8 FF FF 7F 74 6C  6B 30 1D 27 80 23 5E 69  ......tlk0.'.#^i
01E0: 64 6C 30 1D 28 80 23 21  00                       dl0.(.#!.       
```

#### Opcodes

```
  0: 0x01C2 [0x1E] EventEntity looks at LocalPlayer and starts talking
  1: 0x01C7 [0x1D] PRINT_EVENT_MESSAGE(message_id=7710*)
    → "Rouva said that? Yes...I suppose I can talk about it now. I was, of course, devastated that my relatives would reject me."
  2: 0x01CA [0x23] WAIT_FOR_DIALOG_INTERACTION
  3: 0x01CB [0x66] LOAD_EXT_SCHEDULER_MAIN: Load scheduler "tlk0" with entities [EventEntity, EventEntity], work=30*
  4: 0x01DA [0x1D] PRINT_EVENT_MESSAGE(message_id=7711*)
    → "But Aunt Femitte told me then that even if everyone else didn't want me back, I would always be welcome in her home. That meant a lot to me."
  5: 0x01DD [0x23] WAIT_FOR_DIALOG_INTERACTION
  6: 0x01DE [0x5E] EventEntity goes idle (kills current action) (animation: "idl0")
  7: 0x01E3 [0x1D] PRINT_EVENT_MESSAGE(message_id=7712*)
    → "But I can't leave yet. First, I've got to try to make a name for myself here. Imagine an Elvaan girl becoming famous in Bastok! That is my goal and my dream."
  8: 0x01E6 [0x23] WAIT_FOR_DIALOG_INTERACTION
  9: 0x01E7 [0x21] END_EVENT
 10: 0x01E8 [0x00] END_REQSTACK()
```

### Event 322

#### Metadata

| Field        | Value   |
|--------------|---------|
| Entrypoint   | 0x01E9  |
| Data Size    | 1 bytes |
| Instructions | 1       |

```
      00 01 02 03 04 05 06 07  08 09 0A 0B 0C 0D 0E 0F
      -- -- -- -- -- -- -- --  -- -- -- -- -- -- -- --
01E0:                             00                             .      
```

#### Opcodes

```
  0: 0x01E9 [0x00] END_REQSTACK()
```

### Event 65535.4

#### Metadata

| Field        | Value    |
|--------------|----------|
| Entrypoint   | 0x01EA   |
| Data Size    | 14 bytes |
| Instructions | 4        |

```
      00 01 02 03 04 05 06 07  08 09 0A 0B 0C 0D 0E 0F
      -- -- -- -- -- -- -- --  -- -- -- -- -- -- -- --
01E0:                                32 08 80 1F 00 29            2....)
01F0: 80 2A 80 2B 80 1F 01 00                           .*.+....        
```

#### Opcodes

```
  0: 0x01EA [0x32] ExtData[1]->MainSpeed = 13* * 0.1
  1: 0x01ED [0x1F] MOVE_ENTITY: EventEntity moves to X=-300.211*, Z=-156.103*, Y=-15.971*
  2: 0x01F5 [0x1F] MOVE_ENTITY: Update entity position (mode=1)
  3: 0x01F7 [0x00] END_REQSTACK()
```

### Event 1008

#### Metadata

| Field        | Value   |
|--------------|---------|
| Entrypoint   | 0x01F8  |
| Data Size    | 1 bytes |
| Instructions | 1       |

```
      00 01 02 03 04 05 06 07  08 09 0A 0B 0C 0D 0E 0F
      -- -- -- -- -- -- -- --  -- -- -- -- -- -- -- --
01F0:                          00                               .       
```

#### Opcodes

```
  0: 0x01F8 [0x00] END_REQSTACK()
```

### Event 1009

#### Metadata

| Field        | Value   |
|--------------|---------|
| Entrypoint   | 0x01F9  |
| Data Size    | 1 bytes |
| Instructions | 1       |

```
      00 01 02 03 04 05 06 07  08 09 0A 0B 0C 0D 0E 0F
      -- -- -- -- -- -- -- --  -- -- -- -- -- -- -- --
01F0:                             00                             .      
```

#### Opcodes

```
  0: 0x01F9 [0x00] END_REQSTACK()
```

### Event 65535.5

#### Metadata

| Field        | Value    |
|--------------|----------|
| Entrypoint   | 0x01FA   |
| Data Size    | 36 bytes |
| Instructions | 8        |

```
      00 01 02 03 04 05 06 07  08 09 0A 0B 0C 0D 0E 0F
      -- -- -- -- -- -- -- --  -- -- -- -- -- -- -- --
01F0:                                22 00 32 08 80 79            ".2..y
0200: 00 F8 FF FF 7F 0A B0 0E  01 37 2C 80 2D 80 2E 80  .........7,.-...
0210: 2F 80 1F 00 30 80 31 80  32 80 1F 01 6F 00        /...0.1.2...o.  
```

#### Opcodes

```
  0: 0x01FA [0x22] ENTITY_HIDE_FLAG(enabled=0x00)
  1: 0x01FC [0x32] ExtData[1]->MainSpeed = 13* * 0.1
  2: 0x01FF [0x79] EventEntity looks at Dalzakk (ID: 17739786/0x010EB00A) (Basic look)
  3: 0x0209 [0x37] UPDATE_EVENT_POSITION_AND_DIR: x=-352.522*, z=-164.730*, y=-10.002*, direction=148.2°*
  4: 0x0212 [0x1F] MOVE_ENTITY: EventEntity moves to X=-358.477*, Z=-168.162*, Y=-10.010*
  5: 0x021A [0x1F] MOVE_ENTITY: Update entity position (mode=1)
  6: 0x021C [0x6F] WAIT_FRAME_DELAY: Yield until WaitTime reaches zero
  7: 0x021D [0x00] END_REQSTACK()
```
