# 17739843 - Foss

## Common Data

| Field            | Value                    |
|------------------|--------------------------|
| Zone             | Bastok Markets (ID: 235) |
| Block Size       | 292 bytes                |
| Total Events     | 5                        |
| References Count | 15                       |

## List of Events

| Event ID              | Entrypoint   |   Size |   Instructions |
|-----------------------|--------------|--------|----------------|
| [65535](#event-65535) | 0x0000       |      1 |              1 |
| [271](#event-271)     | 0x0001       |    112 |             24 |
| [270](#event-270)     | 0x0071       |     33 |             10 |
| [272](#event-272)     | 0x0092       |     49 |             10 |
| [22](#event-22)       | 0x00C3       |      1 |              1 |

## DAT References (imed_data)

|   Index | Hex Value   |   Dec Value |
|---------|-------------|-------------|
|       0 | 0x1DF9      |        7673 |
|       1 | 0x1DFA      |        7674 |
|       2 | 0x0000      |           0 |
|       3 | 0x005A      |          90 |
|       4 | 0x1DFC      |        7676 |
|       5 | 0x1DFD      |        7677 |
|       6 | 0x1DFE      |        7678 |
|       7 | 0x0001      |           1 |
|       8 | 0x1DFB      |        7675 |
|       9 | 0x40000000  |  1073741824 |
|      10 | 0x1DFF      |        7679 |
|      11 | 0x1E00      |        7680 |
|      12 | 0x0014      |          20 |
|      13 | 0x1E01      |        7681 |
|      14 | 0x00C9      |         201 |

## String References

- **7673**: Yeah? You a fisherman?
- **7674**: Have you ever fished? [Yes./No.]
- **7675**: Then I got no business with you. Get lost.
- **7676**: All right, then you got any $7? Don't take it the wrong way, I'm not sayin' you ain't good at it or anything. Everyone starts by catching those, yeah?
- **7677**: If you got some lyin' around, I'll buy them off you. Five at a time only. Deal?
- **7678**: What do I do with them? Business, ya' know, business. I wipe 'em clean and sell 'em off. Those big shots in the Metalworks buy 'em like crazy.
- **7679**: One piece of advice, if you wanna start a business of your own: buy cheap, sell high. There's another reason why I can make a living sellin' buckets, tho.
- **7680**: People just love spending gil that's not theirs. And no one spends more than those big shots in the Metalworks. Makes my job easy.
- **7681**: Right, that's five of 'em. Good doin' business with ya'. I hope you don't get better at fishing any time soon, heh heh.

## Events

### Event 65535

#### Metadata

| Field        | Value   |
|--------------|---------|
| Entrypoint   | 0x0000  |
| Data Size    | 1 bytes |
| Instructions | 1       |

```
      00 01 02 03 04 05 06 07  08 09 0A 0B 0C 0D 0E 0F
      -- -- -- -- -- -- -- --  -- -- -- -- -- -- -- --
0000: 00                                                .               
```

#### Opcodes

```
  0: 0x0000 [0x00] END_REQSTACK()
```

### Event 271

#### Metadata

| Field        | Value     |
|--------------|-----------|
| Entrypoint   | 0x0001    |
| Data Size    | 112 bytes |
| Instructions | 24        |

```
      00 01 02 03 04 05 06 07  08 09 0A 0B 0C 0D 0E 0F
      -- -- -- -- -- -- -- --  -- -- -- -- -- -- -- --
0000:    1E F0 FF FF 7F 1D 00  80 23 24 01 80 02 80 02   ........#$.....
0010: 80 25 02 00 10 02 80 00  4C 00 03 09 10 03 80 66  .%......L......f
0020: 02 80 F8 FF FF 7F F8 FF  FF 7F 74 6C 6B 31 1D 04  ..........tlk1..
0030: 80 23 1D 05 80 23 66 02  80 F8 FF FF 7F F8 FF FF  .#...#f.........
0040: 7F 74 65 6E 31 1D 06 80  23 01 6F 00 02 00 10 07  .ten1...#.o.....
0050: 80 00 6F 00 66 02 80 F8  FF FF 7F F8 FF FF 7F 74  ..o.f..........t
0060: 6C 6B 32 1D 08 80 23 03  01 10 09 80 01 6F 00 21  lk2...#......o.!
0070: 00                                                .               
```

#### Opcodes

```
  0: 0x0001 [0x1E] EventEntity looks at LocalPlayer and starts talking
  1: 0x0006 [0x1D] PRINT_EVENT_MESSAGE(message_id=7673*)
    → "Yeah? You a fisherman?"
  2: 0x0009 [0x23] WAIT_FOR_DIALOG_INTERACTION
  3: 0x000A [0x24] CREATE_DIALOG(message_id=7674*, default_option=0*, option_flags=0*)
    → "Have you ever fished? [Yes./No.]"
  4: 0x0011 [0x25] WAIT_DIALOG_SELECT()
  5: 0x0012 [0x02] IF !(Work_Zone[0] == 0*) GOTO 0x004C
  6: 0x001A [0x03] Work_Zone[9] = 90*
  7: 0x001F [0x66] LOAD_EXT_SCHEDULER_MAIN: Load scheduler "tlk1" with entities [EventEntity, EventEntity], work=0*
  8: 0x002E [0x1D] PRINT_EVENT_MESSAGE(message_id=7676*)
    → "All right, then you got any $7? Don't take it the wrong way, I'm not sayin' you ain't good at it or anything. Everyone starts by catching those, yeah?"
  9: 0x0031 [0x23] WAIT_FOR_DIALOG_INTERACTION
 10: 0x0032 [0x1D] PRINT_EVENT_MESSAGE(message_id=7677*)
    → "If you got some lyin' around, I'll buy them off you. Five at a time only. Deal?"
 11: 0x0035 [0x23] WAIT_FOR_DIALOG_INTERACTION
 12: 0x0036 [0x66] LOAD_EXT_SCHEDULER_MAIN: Load scheduler "ten1" with entities [EventEntity, EventEntity], work=0*
 13: 0x0045 [0x1D] PRINT_EVENT_MESSAGE(message_id=7678*)
    → "What do I do with them? Business, ya' know, business. I wipe 'em clean and sell 'em off. Those big shots in the Metalworks buy 'em like crazy."
 14: 0x0048 [0x23] WAIT_FOR_DIALOG_INTERACTION
 15: 0x0049 [0x01] GOTO 0x006F
 16: 0x004C [0x02] IF !(Work_Zone[0] == 1*) GOTO 0x006F
 17: 0x0054 [0x66] LOAD_EXT_SCHEDULER_MAIN: Load scheduler "tlk2" with entities [EventEntity, EventEntity], work=0*
 18: 0x0063 [0x1D] PRINT_EVENT_MESSAGE(message_id=7675*)
    → "Then I got no business with you. Get lost."
 19: 0x0066 [0x23] WAIT_FOR_DIALOG_INTERACTION
 20: 0x0067 [0x03] Work_Zone[1] = 1073741824*
 21: 0x006C [0x01] GOTO 0x006F

SUBROUTINE_006F:
 22: 0x006F [0x21] END_EVENT
 23: 0x0070 [0x00] END_REQSTACK()
```

### Event 270

#### Metadata

| Field        | Value    |
|--------------|----------|
| Entrypoint   | 0x0071   |
| Data Size    | 33 bytes |
| Instructions | 10       |

```
      00 01 02 03 04 05 06 07  08 09 0A 0B 0C 0D 0E 0F
      -- -- -- -- -- -- -- --  -- -- -- -- -- -- -- --
0070:    42 20 01 1E F0 FF FF  7F 1D 0A 80 23 66 02 80   B .........#f..
0080: F8 FF FF 7F F8 FF FF 7F  74 6C 6B 30 1D 0B 80 23  ........tlk0...#
0090: 21 00                                             !.              
```

#### Opcodes

```
  0: 0x0071 [0x42] SET_CLI_EVENT_CANCEL_DATA()
  1: 0x0072 [0x20] SET_CLI_EVENT_UC_FLAG: Lock player control
  2: 0x0074 [0x1E] EventEntity looks at LocalPlayer and starts talking
  3: 0x0079 [0x1D] PRINT_EVENT_MESSAGE(message_id=7679*)
    → "One piece of advice, if you wanna start a business of your own: buy cheap, sell high. There's another reason why I can make a living sellin' buckets, tho."
  4: 0x007C [0x23] WAIT_FOR_DIALOG_INTERACTION
  5: 0x007D [0x66] LOAD_EXT_SCHEDULER_MAIN: Load scheduler "tlk0" with entities [EventEntity, EventEntity], work=0*
  6: 0x008C [0x1D] PRINT_EVENT_MESSAGE(message_id=7680*)
    → "People just love spending gil that's not theirs. And no one spends more than those big shots in the Metalworks. Makes my job easy."
  7: 0x008F [0x23] WAIT_FOR_DIALOG_INTERACTION
  8: 0x0090 [0x21] END_EVENT
  9: 0x0091 [0x00] END_REQSTACK()
```

### Event 272

#### Metadata

| Field        | Value    |
|--------------|----------|
| Entrypoint   | 0x0092   |
| Data Size    | 49 bytes |
| Instructions | 10       |

```
      00 01 02 03 04 05 06 07  08 09 0A 0B 0C 0D 0E 0F
      -- -- -- -- -- -- -- --  -- -- -- -- -- -- -- --
0090:       20 01 42 1E F0 FF  FF 7F 1C 0C 80 66 02 80     .B........f..
00A0: F8 FF FF 7F F8 FF FF 7F  70 61 73 30 1D 0D 80 23  ........pas0...#
00B0: 45 0E 80 F0 FF FF 7F F0  FF FF 7F 71 73 74 63 02  E..........qstc.
00C0: 80 21 00                                          .!.             
```

#### Opcodes

```
  0: 0x0092 [0x20] SET_CLI_EVENT_UC_FLAG: Lock player control
  1: 0x0094 [0x42] SET_CLI_EVENT_CANCEL_DATA()
  2: 0x0095 [0x1E] EventEntity looks at LocalPlayer and starts talking
  3: 0x009A [0x1C] WAIT(20* ticks)
  4: 0x009D [0x66] LOAD_EXT_SCHEDULER_MAIN: Load scheduler "pas0" with entities [EventEntity, EventEntity], work=0*
  5: 0x00AC [0x1D] PRINT_EVENT_MESSAGE(message_id=7681*)
    → "Right, that's five of 'em. Good doin' business with ya'. I hope you don't get better at fishing any time soon, heh heh."
  6: 0x00AF [0x23] WAIT_FOR_DIALOG_INTERACTION
  7: 0x00B0 [0x45] LOAD_SCHEDULED_TASK: Load scheduler "qstc" with entities [LocalPlayer, LocalPlayer], work=[201*, 0*]
  8: 0x00C1 [0x21] END_EVENT
  9: 0x00C2 [0x00] END_REQSTACK()
```

### Event 22

#### Metadata

| Field        | Value   |
|--------------|---------|
| Entrypoint   | 0x00C3  |
| Data Size    | 1 bytes |
| Instructions | 1       |

```
      00 01 02 03 04 05 06 07  08 09 0A 0B 0C 0D 0E 0F
      -- -- -- -- -- -- -- --  -- -- -- -- -- -- -- --
00C0:          00                                          .            
```

#### Opcodes

```
  0: 0x00C3 [0x00] END_REQSTACK()
```
