# 17739922 - Umberto

## Common Data

| Field            | Value                    |
|------------------|--------------------------|
| Zone             | Bastok Markets (ID: 235) |
| Block Size       | 664 bytes                |
| Total Events     | 27                       |
| References Count | 43                       |

## List of Events

| Event ID                   | Entrypoint   |   Size |   Instructions |
|----------------------------|--------------|--------|----------------|
| [65535](#event-65535)      | 0x0000       |      1 |              1 |
| [403](#event-403)          | 0x0001       |      1 |              1 |
| [404](#event-404)          | 0x0002       |      1 |              1 |
| [406](#event-406)          | 0x0003       |      1 |              1 |
| [405](#event-405)          | 0x0004       |      1 |              1 |
| [407](#event-407)          | 0x0005       |     14 |              6 |
| [409](#event-409)          | 0x0013       |     23 |              9 |
| [410](#event-410)          | 0x002A       |     19 |              7 |
| [408](#event-408)          | 0x003D       |     18 |              8 |
| [65535.1](#event-655351)   | 0x004F       |     23 |              5 |
| [65535.2](#event-655352)   | 0x0066       |     15 |              5 |
| [65535.3](#event-655353)   | 0x0075       |     14 |              4 |
| [65535.4](#event-655354)   | 0x0083       |     14 |              4 |
| [65535.5](#event-655355)   | 0x0091       |     14 |              4 |
| [65535.6](#event-655356)   | 0x009F       |     14 |              4 |
| [65535.7](#event-655357)   | 0x00AD       |     14 |              4 |
| [65535.8](#event-655358)   | 0x00BB       |     26 |              6 |
| [65535.9](#event-655359)   | 0x00D5       |     13 |              3 |
| [65535.10](#event-6553510) | 0x00E2       |     14 |              4 |
| [65535.11](#event-6553511) | 0x00F0       |     14 |              4 |
| [65535.12](#event-6553512) | 0x00FE       |     14 |              4 |
| [65535.13](#event-6553513) | 0x010C       |     13 |              3 |
| [65535.14](#event-6553514) | 0x0119       |     14 |              4 |
| [411](#event-411)          | 0x0127       |     15 |              5 |
| [412](#event-412)          | 0x0136       |     23 |              7 |
| [473](#event-473)          | 0x014D       |      1 |              1 |
| [474](#event-474)          | 0x014E       |     33 |              9 |

## DAT References (imed_data)

|   Index | Hex Value   |   Dec Value |
|---------|-------------|-------------|
|       0 | 0x001E      |          30 |
|       1 | 0x22FA      |        8954 |
|       2 | 0x072E      |        1838 |
|       3 | 0x2320      |        8992 |
|       4 | 0x2321      |        8993 |
|       5 | 0x233C      |        9020 |
|       6 | 0x2364      |        9060 |
|       7 | 0x2365      |        9061 |
|       8 | 0xFFFF21C0  |  4294910400 |
|       9 | 0xFFFDF385  |  4294833029 |
|      10 | 0xFFFFF060  |  4294963296 |
|      11 | 0x0B0E      |        2830 |
|      12 | 0x000D      |          13 |
|      13 | 0xFFFF2252  |  4294910546 |
|      14 | 0xFFFDF27E  |  4294832766 |
|      15 | 0xFFFF27EC  |  4294911980 |
|      16 | 0xFFFDEAD8  |  4294830808 |
|      17 | 0xFFFFF003  |  4294963203 |
|      18 | 0xFFFF265B  |  4294911579 |
|      19 | 0xFFFDE7C0  |  4294830016 |
|      20 | 0xFFFF2A9E  |  4294912670 |
|      21 | 0xFFFDEB84  |  4294830980 |
|      22 | 0xFFFF20A9  |  4294910121 |
|      23 | 0xFFFDE209  |  4294828553 |
|      24 | 0xFFFF2008  |  4294909960 |
|      25 | 0xFFFDE58F  |  4294829455 |
|      26 | 0xFFFF21E2  |  4294910434 |
|      27 | 0xFFFDF6C5  |  4294833861 |
|      28 | 0xFFFF2140  |  4294910272 |
|      29 | 0xFFFDF529  |  4294833449 |
|      30 | 0xFFFF1E16  |  4294909462 |
|      31 | 0xFFFDDF1E  |  4294827806 |
|      32 | 0xFFFF1E80  |  4294909568 |
|      33 | 0xFFFDE257  |  4294828631 |
|      34 | 0xFFFF1E76  |  4294909558 |
|      35 | 0xFFFDE0ED  |  4294828269 |
|      36 | 0xFFFFF061  |  4294963297 |
|      37 | 0x23A6      |        9126 |
|      38 | 0x23A4      |        9124 |
|      39 | 0x23A5      |        9125 |
|      40 | 0x305B      |       12379 |
|      41 | 0x003C      |          60 |
|      42 | 0x305C      |       12380 |

## String References

- **8954**: What in blazes could he be doing? He shoulda been here by now! No reason to wait! I don't bite!
- **8992**: It was such a shock, losing the $0 that my poor wife kept when she was alive...
- **8993**: Please find it for me, young'un!
- **9020**: Sorry, but could you leave me alone for a while?
- **9060**: My wife has left me with a great many things, tangible and otherwise...
- **9061**: I'll never forget the time we spent together.
- **12379**: Well, I'm glad that little one's friend came along at last.
- **12380**: You know, I seem to recall a time when another little girl used to wait here. I wonder if she ever managed to catch up with her friend...

## Events

### Event 65535

#### Metadata

| Field        | Value   |
|--------------|---------|
| Entrypoint   | 0x0000  |
| Data Size    | 1 bytes |
| Instructions | 1       |

```
      00 01 02 03 04 05 06 07  08 09 0A 0B 0C 0D 0E 0F
      -- -- -- -- -- -- -- --  -- -- -- -- -- -- -- --
0000: 00                                                .               
```

#### Opcodes

```
  0: 0x0000 [0x00] END_REQSTACK()
```

### Event 403

#### Metadata

| Field        | Value   |
|--------------|---------|
| Entrypoint   | 0x0001  |
| Data Size    | 1 bytes |
| Instructions | 1       |

```
      00 01 02 03 04 05 06 07  08 09 0A 0B 0C 0D 0E 0F
      -- -- -- -- -- -- -- --  -- -- -- -- -- -- -- --
0000:    00                                              .              
```

#### Opcodes

```
  0: 0x0001 [0x00] END_REQSTACK()
```

### Event 404

#### Metadata

| Field        | Value   |
|--------------|---------|
| Entrypoint   | 0x0002  |
| Data Size    | 1 bytes |
| Instructions | 1       |

```
      00 01 02 03 04 05 06 07  08 09 0A 0B 0C 0D 0E 0F
      -- -- -- -- -- -- -- --  -- -- -- -- -- -- -- --
0000:       00                                            .             
```

#### Opcodes

```
  0: 0x0002 [0x00] END_REQSTACK()
```

### Event 406

#### Metadata

| Field        | Value   |
|--------------|---------|
| Entrypoint   | 0x0003  |
| Data Size    | 1 bytes |
| Instructions | 1       |

```
      00 01 02 03 04 05 06 07  08 09 0A 0B 0C 0D 0E 0F
      -- -- -- -- -- -- -- --  -- -- -- -- -- -- -- --
0000:          00                                          .            
```

#### Opcodes

```
  0: 0x0003 [0x00] END_REQSTACK()
```

### Event 405

#### Metadata

| Field        | Value   |
|--------------|---------|
| Entrypoint   | 0x0004  |
| Data Size    | 1 bytes |
| Instructions | 1       |

```
      00 01 02 03 04 05 06 07  08 09 0A 0B 0C 0D 0E 0F
      -- -- -- -- -- -- -- --  -- -- -- -- -- -- -- --
0000:             00                                        .           
```

#### Opcodes

```
  0: 0x0004 [0x00] END_REQSTACK()
```

### Event 407

#### Metadata

| Field        | Value    |
|--------------|----------|
| Entrypoint   | 0x0005   |
| Data Size    | 14 bytes |
| Instructions | 6        |

```
      00 01 02 03 04 05 06 07  08 09 0A 0B 0C 0D 0E 0F
      -- -- -- -- -- -- -- --  -- -- -- -- -- -- -- --
0000:                1E F0 FF  FF 7F 1C 00 80 1D 01 80       ...........
0010: 23 21 00                                          #!.             
```

#### Opcodes

```
  0: 0x0005 [0x1E] EventEntity looks at LocalPlayer and starts talking
  1: 0x000A [0x1C] WAIT(30* ticks)
  2: 0x000D [0x1D] PRINT_EVENT_MESSAGE(message_id=8954*)
    → "What in blazes could he be doing? He shoulda been here by now! No reason to wait! I don't bite!"
  3: 0x0010 [0x23] WAIT_FOR_DIALOG_INTERACTION
  4: 0x0011 [0x21] END_EVENT
  5: 0x0012 [0x00] END_REQSTACK()
```

### Event 409

#### Metadata

| Field        | Value    |
|--------------|----------|
| Entrypoint   | 0x0013   |
| Data Size    | 23 bytes |
| Instructions | 9        |

```
      00 01 02 03 04 05 06 07  08 09 0A 0B 0C 0D 0E 0F
      -- -- -- -- -- -- -- --  -- -- -- -- -- -- -- --
0010:          1E F0 FF FF 7F  1C 00 80 03 02 10 02 80     .............
0020: 1D 03 80 23 1D 04 80 23  21 00                    ...#...#!.      
```

#### Opcodes

```
  0: 0x0013 [0x1E] EventEntity looks at LocalPlayer and starts talking
  1: 0x0018 [0x1C] WAIT(30* ticks)
  2: 0x001B [0x03] Work_Zone[2] = 1838*
  3: 0x0020 [0x1D] PRINT_EVENT_MESSAGE(message_id=8992*)
    → "It was such a shock, losing the $0 that my poor wife kept when she was alive..."
  4: 0x0023 [0x23] WAIT_FOR_DIALOG_INTERACTION
  5: 0x0024 [0x1D] PRINT_EVENT_MESSAGE(message_id=8993*)
    → "Please find it for me, young'un!"
  6: 0x0027 [0x23] WAIT_FOR_DIALOG_INTERACTION
  7: 0x0028 [0x21] END_EVENT
  8: 0x0029 [0x00] END_REQSTACK()
```

### Event 410

#### Metadata

| Field        | Value    |
|--------------|----------|
| Entrypoint   | 0x002A   |
| Data Size    | 19 bytes |
| Instructions | 7        |

```
      00 01 02 03 04 05 06 07  08 09 0A 0B 0C 0D 0E 0F
      -- -- -- -- -- -- -- --  -- -- -- -- -- -- -- --
0020:                                1E F0 FF FF 7F 1C            ......
0030: 00 80 03 02 10 02 80 1D  05 80 23 21 00           ..........#!.   
```

#### Opcodes

```
  0: 0x002A [0x1E] EventEntity looks at LocalPlayer and starts talking
  1: 0x002F [0x1C] WAIT(30* ticks)
  2: 0x0032 [0x03] Work_Zone[2] = 1838*
  3: 0x0037 [0x1D] PRINT_EVENT_MESSAGE(message_id=9020*)
    → "Sorry, but could you leave me alone for a while?"
  4: 0x003A [0x23] WAIT_FOR_DIALOG_INTERACTION
  5: 0x003B [0x21] END_EVENT
  6: 0x003C [0x00] END_REQSTACK()
```

### Event 408

#### Metadata

| Field        | Value    |
|--------------|----------|
| Entrypoint   | 0x003D   |
| Data Size    | 18 bytes |
| Instructions | 8        |

```
      00 01 02 03 04 05 06 07  08 09 0A 0B 0C 0D 0E 0F
      -- -- -- -- -- -- -- --  -- -- -- -- -- -- -- --
0030:                                         1E F0 FF               ...
0040: FF 7F 1C 00 80 1D 06 80  23 1D 07 80 23 21 00     ........#...#!. 
```

#### Opcodes

```
  0: 0x003D [0x1E] EventEntity looks at LocalPlayer and starts talking
  1: 0x0042 [0x1C] WAIT(30* ticks)
  2: 0x0045 [0x1D] PRINT_EVENT_MESSAGE(message_id=9060*)
    → "My wife has left me with a great many things, tangible and otherwise..."
  3: 0x0048 [0x23] WAIT_FOR_DIALOG_INTERACTION
  4: 0x0049 [0x1D] PRINT_EVENT_MESSAGE(message_id=9061*)
    → "I'll never forget the time we spent together."
  5: 0x004C [0x23] WAIT_FOR_DIALOG_INTERACTION
  6: 0x004D [0x21] END_EVENT
  7: 0x004E [0x00] END_REQSTACK()
```

### Event 65535.1

#### Metadata

| Field        | Value    |
|--------------|----------|
| Entrypoint   | 0x004F   |
| Data Size    | 23 bytes |
| Instructions | 5        |

```
      00 01 02 03 04 05 06 07  08 09 0A 0B 0C 0D 0E 0F
      -- -- -- -- -- -- -- --  -- -- -- -- -- -- -- --
0040:                                               2F                 /
0050: 00 F8 FF FF 7F 37 08 80  09 80 0A 80 0B 80 22 00  .....7........".
0060: 80 F8 FF FF 7F 00                                 ......          
```

#### Opcodes

```
  0: 0x004F [0x2F] EventEntity->Render.Flags0 &= ~0x80000 // Bit 19
  1: 0x0055 [0x37] UPDATE_EVENT_POSITION_AND_DIR: x=-56.896*, z=-134.267*, y=-4.000*, direction=248.7°*
  2: 0x005E [0x22] ENTITY_HIDE_FLAG(enabled=0x00)
  3: 0x0060 [0x80] LOAD_WAIT(entity=EventEntity)
  4: 0x0065 [0x00] END_REQSTACK()
```

### Event 65535.2

#### Metadata

| Field        | Value    |
|--------------|----------|
| Entrypoint   | 0x0066   |
| Data Size    | 15 bytes |
| Instructions | 5        |

```
      00 01 02 03 04 05 06 07  08 09 0A 0B 0C 0D 0E 0F
      -- -- -- -- -- -- -- --  -- -- -- -- -- -- -- --
0060:                   32 0C  80 1F 00 0D 80 0E 80 0A        2.........
0070: 80 1F 01 6F 00                                    ...o.           
```

#### Opcodes

```
  0: 0x0066 [0x32] ExtData[1]->MainSpeed = 13* * 0.1
  1: 0x0069 [0x1F] MOVE_ENTITY: EventEntity moves to X=-56.750*, Z=-134.530*, Y=-4.000*
  2: 0x0071 [0x1F] MOVE_ENTITY: Update entity position (mode=1)
  3: 0x0073 [0x6F] WAIT_FRAME_DELAY: Yield until WaitTime reaches zero
  4: 0x0074 [0x00] END_REQSTACK()
```

### Event 65535.3

#### Metadata

| Field        | Value    |
|--------------|----------|
| Entrypoint   | 0x0075   |
| Data Size    | 14 bytes |
| Instructions | 4        |

```
      00 01 02 03 04 05 06 07  08 09 0A 0B 0C 0D 0E 0F
      -- -- -- -- -- -- -- --  -- -- -- -- -- -- -- --
0070:                32 0C 80  1F 00 08 80 09 80 0A 80       2..........
0080: 1F 01 00                                          ...             
```

#### Opcodes

```
  0: 0x0075 [0x32] ExtData[1]->MainSpeed = 13* * 0.1
  1: 0x0078 [0x1F] MOVE_ENTITY: EventEntity moves to X=-56.896*, Z=-134.267*, Y=-4.000*
  2: 0x0080 [0x1F] MOVE_ENTITY: Update entity position (mode=1)
  3: 0x0082 [0x00] END_REQSTACK()
```

### Event 65535.4

#### Metadata

| Field        | Value    |
|--------------|----------|
| Entrypoint   | 0x0083   |
| Data Size    | 14 bytes |
| Instructions | 4        |

```
      00 01 02 03 04 05 06 07  08 09 0A 0B 0C 0D 0E 0F
      -- -- -- -- -- -- -- --  -- -- -- -- -- -- -- --
0080:          32 0C 80 1F 00  0F 80 10 80 11 80 1F 01     2............
0090: 00                                                .               
```

#### Opcodes

```
  0: 0x0083 [0x32] ExtData[1]->MainSpeed = 13* * 0.1
  1: 0x0086 [0x1F] MOVE_ENTITY: EventEntity moves to X=-55.316*, Z=-136.488*, Y=-4.093*
  2: 0x008E [0x1F] MOVE_ENTITY: Update entity position (mode=1)
  3: 0x0090 [0x00] END_REQSTACK()
```

### Event 65535.5

#### Metadata

| Field        | Value    |
|--------------|----------|
| Entrypoint   | 0x0091   |
| Data Size    | 14 bytes |
| Instructions | 4        |

```
      00 01 02 03 04 05 06 07  08 09 0A 0B 0C 0D 0E 0F
      -- -- -- -- -- -- -- --  -- -- -- -- -- -- -- --
0090:    32 0C 80 1F 00 0F 80  10 80 11 80 1F 01 00      2............. 
```

#### Opcodes

```
  0: 0x0091 [0x32] ExtData[1]->MainSpeed = 13* * 0.1
  1: 0x0094 [0x1F] MOVE_ENTITY: EventEntity moves to X=-55.316*, Z=-136.488*, Y=-4.093*
  2: 0x009C [0x1F] MOVE_ENTITY: Update entity position (mode=1)
  3: 0x009E [0x00] END_REQSTACK()
```

### Event 65535.6

#### Metadata

| Field        | Value    |
|--------------|----------|
| Entrypoint   | 0x009F   |
| Data Size    | 14 bytes |
| Instructions | 4        |

```
      00 01 02 03 04 05 06 07  08 09 0A 0B 0C 0D 0E 0F
      -- -- -- -- -- -- -- --  -- -- -- -- -- -- -- --
0090:                                               32                 2
00A0: 0C 80 1F 00 12 80 13 80  0A 80 1F 01 00           .............   
```

#### Opcodes

```
  0: 0x009F [0x32] ExtData[1]->MainSpeed = 13* * 0.1
  1: 0x00A2 [0x1F] MOVE_ENTITY: EventEntity moves to X=-55.717*, Z=-137.280*, Y=-4.000*
  2: 0x00AA [0x1F] MOVE_ENTITY: Update entity position (mode=1)
  3: 0x00AC [0x00] END_REQSTACK()
```

### Event 65535.7

#### Metadata

| Field        | Value    |
|--------------|----------|
| Entrypoint   | 0x00AD   |
| Data Size    | 14 bytes |
| Instructions | 4        |

```
      00 01 02 03 04 05 06 07  08 09 0A 0B 0C 0D 0E 0F
      -- -- -- -- -- -- -- --  -- -- -- -- -- -- -- --
00A0:                                         32 0C 80               2..
00B0: 1F 00 14 80 15 80 11 80  1F 01 00                 ...........     
```

#### Opcodes

```
  0: 0x00AD [0x32] ExtData[1]->MainSpeed = 13* * 0.1
  1: 0x00B0 [0x1F] MOVE_ENTITY: EventEntity moves to X=-54.626*, Z=-136.316*, Y=-4.093*
  2: 0x00B8 [0x1F] MOVE_ENTITY: Update entity position (mode=1)
  3: 0x00BA [0x00] END_REQSTACK()
```

### Event 65535.8

#### Metadata

| Field        | Value    |
|--------------|----------|
| Entrypoint   | 0x00BB   |
| Data Size    | 26 bytes |
| Instructions | 6        |

```
      00 01 02 03 04 05 06 07  08 09 0A 0B 0C 0D 0E 0F
      -- -- -- -- -- -- -- --  -- -- -- -- -- -- -- --
00B0:                                   36 16 80 17 80             6....
00C0: 0A 80 80 F8 FF FF 7F 32  0C 80 1F 00 14 80 15 80  .......2........
00D0: 11 80 1F 01 00                                    .....           
```

#### Opcodes

```
  0: 0x00BB [0x36] SET_ENTITY_EVENT_POSITION(pos_x=-57.175*, pos_z=-138.743*, pos_y=-4.000*)
  1: 0x00C2 [0x80] LOAD_WAIT(entity=EventEntity)
  2: 0x00C7 [0x32] ExtData[1]->MainSpeed = 13* * 0.1
  3: 0x00CA [0x1F] MOVE_ENTITY: EventEntity moves to X=-54.626*, Z=-136.316*, Y=-4.093*
  4: 0x00D2 [0x1F] MOVE_ENTITY: Update entity position (mode=1)
  5: 0x00D4 [0x00] END_REQSTACK()
```

### Event 65535.9

#### Metadata

| Field        | Value    |
|--------------|----------|
| Entrypoint   | 0x00D5   |
| Data Size    | 13 bytes |
| Instructions | 3        |

```
      00 01 02 03 04 05 06 07  08 09 0A 0B 0C 0D 0E 0F
      -- -- -- -- -- -- -- --  -- -- -- -- -- -- -- --
00D0:                36 18 80  19 80 0A 80 80 F8 FF FF       6..........
00E0: 7F 00                                             ..              
```

#### Opcodes

```
  0: 0x00D5 [0x36] SET_ENTITY_EVENT_POSITION(pos_x=-57.336*, pos_z=-137.841*, pos_y=-4.000*)
  1: 0x00DC [0x80] LOAD_WAIT(entity=EventEntity)
  2: 0x00E1 [0x00] END_REQSTACK()
```

### Event 65535.10

#### Metadata

| Field        | Value    |
|--------------|----------|
| Entrypoint   | 0x00E2   |
| Data Size    | 14 bytes |
| Instructions | 4        |

```
      00 01 02 03 04 05 06 07  08 09 0A 0B 0C 0D 0E 0F
      -- -- -- -- -- -- -- --  -- -- -- -- -- -- -- --
00E0:       32 0C 80 1F 00 1A  80 1B 80 0A 80 1F 01 00    2.............
```

#### Opcodes

```
  0: 0x00E2 [0x32] ExtData[1]->MainSpeed = 13* * 0.1
  1: 0x00E5 [0x1F] MOVE_ENTITY: EventEntity moves to X=-56.862*, Z=-133.435*, Y=-4.000*
  2: 0x00ED [0x1F] MOVE_ENTITY: Update entity position (mode=1)
  3: 0x00EF [0x00] END_REQSTACK()
```

### Event 65535.11

#### Metadata

| Field        | Value    |
|--------------|----------|
| Entrypoint   | 0x00F0   |
| Data Size    | 14 bytes |
| Instructions | 4        |

```
      00 01 02 03 04 05 06 07  08 09 0A 0B 0C 0D 0E 0F
      -- -- -- -- -- -- -- --  -- -- -- -- -- -- -- --
00F0: 32 0C 80 1F 00 1C 80 1D  80 0A 80 1F 01 00        2.............  
```

#### Opcodes

```
  0: 0x00F0 [0x32] ExtData[1]->MainSpeed = 13* * 0.1
  1: 0x00F3 [0x1F] MOVE_ENTITY: EventEntity moves to X=-57.024*, Z=-133.847*, Y=-4.000*
  2: 0x00FB [0x1F] MOVE_ENTITY: Update entity position (mode=1)
  3: 0x00FD [0x00] END_REQSTACK()
```

### Event 65535.12

#### Metadata

| Field        | Value    |
|--------------|----------|
| Entrypoint   | 0x00FE   |
| Data Size    | 14 bytes |
| Instructions | 4        |

```
      00 01 02 03 04 05 06 07  08 09 0A 0B 0C 0D 0E 0F
      -- -- -- -- -- -- -- --  -- -- -- -- -- -- -- --
00F0:                                            32 0C                2.
0100: 80 1F 00 1E 80 1F 80 0A  80 1F 01 00              ............    
```

#### Opcodes

```
  0: 0x00FE [0x32] ExtData[1]->MainSpeed = 13* * 0.1
  1: 0x0101 [0x1F] MOVE_ENTITY: EventEntity moves to X=-57.834*, Z=-139.490*, Y=-4.000*
  2: 0x0109 [0x1F] MOVE_ENTITY: Update entity position (mode=1)
  3: 0x010B [0x00] END_REQSTACK()
```

### Event 65535.13

#### Metadata

| Field        | Value    |
|--------------|----------|
| Entrypoint   | 0x010C   |
| Data Size    | 13 bytes |
| Instructions | 3        |

```
      00 01 02 03 04 05 06 07  08 09 0A 0B 0C 0D 0E 0F
      -- -- -- -- -- -- -- --  -- -- -- -- -- -- -- --
0100:                                      36 20 80 21              6 .!
0110: 80 0A 80 80 F8 FF FF 7F  00                       .........       
```

#### Opcodes

```
  0: 0x010C [0x36] SET_ENTITY_EVENT_POSITION(pos_x=-57.728*, pos_z=-138.665*, pos_y=-4.000*)
  1: 0x0113 [0x80] LOAD_WAIT(entity=EventEntity)
  2: 0x0118 [0x00] END_REQSTACK()
```

### Event 65535.14

#### Metadata

| Field        | Value    |
|--------------|----------|
| Entrypoint   | 0x0119   |
| Data Size    | 14 bytes |
| Instructions | 4        |

```
      00 01 02 03 04 05 06 07  08 09 0A 0B 0C 0D 0E 0F
      -- -- -- -- -- -- -- --  -- -- -- -- -- -- -- --
0110:                             32 0C 80 1F 00 22 80           2....".
0120: 23 80 24 80 1F 01 00                              #.$....         
```

#### Opcodes

```
  0: 0x0119 [0x32] ExtData[1]->MainSpeed = 13* * 0.1
  1: 0x011C [0x1F] MOVE_ENTITY: EventEntity moves to X=-57.738*, Z=-139.027*, Y=-3.999*
  2: 0x0124 [0x1F] MOVE_ENTITY: Update entity position (mode=1)
  3: 0x0126 [0x00] END_REQSTACK()
```

### Event 411

#### Metadata

| Field        | Value    |
|--------------|----------|
| Entrypoint   | 0x0127   |
| Data Size    | 15 bytes |
| Instructions | 5        |

```
      00 01 02 03 04 05 06 07  08 09 0A 0B 0C 0D 0E 0F
      -- -- -- -- -- -- -- --  -- -- -- -- -- -- -- --
0120:                      1E  F0 FF FF 7F 2B 92 B0 0E         .....+...
0130: 01 25 80 23 21 00                                 .%.#!.          
```

#### Opcodes

```
  0: 0x0127 [0x1E] EventEntity looks at LocalPlayer and starts talking
  1: 0x012C [0x2B] Umberto (ID: 17739922/0x010EB092) [9126*]:
    → "What!? I don't feel like talking, so leave me alone!"
  2: 0x0133 [0x23] WAIT_FOR_DIALOG_INTERACTION
  3: 0x0134 [0x21] END_EVENT
  4: 0x0135 [0x00] END_REQSTACK()
```

### Event 412

#### Metadata

| Field        | Value    |
|--------------|----------|
| Entrypoint   | 0x0136   |
| Data Size    | 23 bytes |
| Instructions | 7        |

```
      00 01 02 03 04 05 06 07  08 09 0A 0B 0C 0D 0E 0F
      -- -- -- -- -- -- -- --  -- -- -- -- -- -- -- --
0130:                   1E F0  FF FF 7F 2B 92 B0 0E 01        .....+....
0140: 26 80 23 2B 92 B0 0E 01  27 80 23 21 00           &.#+....'.#!.   
```

#### Opcodes

```
  0: 0x0136 [0x1E] EventEntity looks at LocalPlayer and starts talking
  1: 0x013B [0x2B] Umberto (ID: 17739922/0x010EB092) [9124*]:
    → "Sometimes it just plain hurts when I realize I'll never be able to talk to my wife again."
  2: 0x0142 [0x23] WAIT_FOR_DIALOG_INTERACTION
  3: 0x0143 [0x2B] Umberto (ID: 17739922/0x010EB092) [9125*]:
    → "You should appreciate your friends' company while they're still around."
  4: 0x014A [0x23] WAIT_FOR_DIALOG_INTERACTION
  5: 0x014B [0x21] END_EVENT
  6: 0x014C [0x00] END_REQSTACK()
```

### Event 473

#### Metadata

| Field        | Value   |
|--------------|---------|
| Entrypoint   | 0x014D  |
| Data Size    | 1 bytes |
| Instructions | 1       |

```
      00 01 02 03 04 05 06 07  08 09 0A 0B 0C 0D 0E 0F
      -- -- -- -- -- -- -- --  -- -- -- -- -- -- -- --
0140:                                         00                     .  
```

#### Opcodes

```
  0: 0x014D [0x00] END_REQSTACK()
```

### Event 474

#### Metadata

| Field        | Value    |
|--------------|----------|
| Entrypoint   | 0x014E   |
| Data Size    | 33 bytes |
| Instructions | 9        |

```
      00 01 02 03 04 05 06 07  08 09 0A 0B 0C 0D 0E 0F
      -- -- -- -- -- -- -- --  -- -- -- -- -- -- -- --
0140:                                            1E F0                ..
0150: FF FF 7F 1C 00 80 1D 28  80 23 5B 29 80 F8 FF FF  .......(.#[)....
0160: 7F F8 FF FF 7F 74 6C 62  30 1D 2A 80 23 21 00     .....tlb0.*.#!. 
```

#### Opcodes

```
  0: 0x014E [0x1E] EventEntity looks at LocalPlayer and starts talking
  1: 0x0153 [0x1C] WAIT(30* ticks)
  2: 0x0156 [0x1D] PRINT_EVENT_MESSAGE(message_id=12379*)
    → "Well, I'm glad that little one's friend came along at last."
  3: 0x0159 [0x23] WAIT_FOR_DIALOG_INTERACTION
  4: 0x015A [0x5B] LOAD_EXT_SCHEDULER: Load scheduler "tlb0" with entities [EventEntity, EventEntity], work=60*
  5: 0x0169 [0x1D] PRINT_EVENT_MESSAGE(message_id=12380*)
    → "You know, I seem to recall a time when another little girl used to wait here. I wonder if she ever managed to catch up with her friend..."
  6: 0x016C [0x23] WAIT_FOR_DIALOG_INTERACTION
  7: 0x016D [0x21] END_EVENT
  8: 0x016E [0x00] END_REQSTACK()
```
