# 17739781 - Gwill

## Common Data

| Field            | Value                    |
|------------------|--------------------------|
| Zone             | Bastok Markets (ID: 235) |
| Block Size       | 672 bytes                |
| Total Events     | 17                       |
| References Count | 50                       |

## List of Events

| Event ID                 | Entrypoint   |   Size |   Instructions |
|--------------------------|--------------|--------|----------------|
| [65535](#event-65535)    | 0x0000       |      1 |              1 |
| [103](#event-103)        | 0x0001       |     39 |             11 |
| [7](#event-7)            | 0x0028       |     10 |              2 |
| [65535.1](#event-655351) | 0x0032       |      6 |              2 |
| [65535.2](#event-655352) | 0x0038       |     22 |              6 |
| [65535.3](#event-655353) | 0x004E       |     16 |              5 |
| [113](#event-113)        | 0x005E       |     53 |             13 |
| [242](#event-242)        | 0x0093       |     35 |              9 |
| [243](#event-243)        | 0x00B6       |      1 |              1 |
| [65535.4](#event-655354) | 0x00B7       |     23 |              5 |
| [65535.5](#event-655355) | 0x00CE       |     14 |              4 |
| [65535.6](#event-655356) | 0x00DC       |     66 |             11 |
| [65535.7](#event-655357) | 0x011E       |     32 |              7 |
| [65535.8](#event-655358) | 0x013E       |     32 |              6 |
| [1008](#event-1008)      | 0x015E       |      1 |              1 |
| [1009](#event-1009)      | 0x015F       |      1 |              1 |
| [65535.9](#event-655359) | 0x0160       |     35 |              7 |

## DAT References (imed_data)

|   Index | Hex Value   |   Dec Value |
|---------|-------------|-------------|
|       0 | 0x11A2      |        4514 |
|       1 | 0x1D3B      |        7483 |
|       2 | 0x005A      |          90 |
|       3 | 0x1D3C      |        7484 |
|       4 | 0x1D3D      |        7485 |
|       5 | 0xFFFBC305  |  4294689541 |
|       6 | 0xFFFEA33E  |  4294878014 |
|       7 | 0xFFFFD098  |  4294955160 |
|       8 | 0x052A      |        1322 |
|       9 | 0x003C      |          60 |
|      10 | 0x000D      |          13 |
|      11 | 0xFFFBC832  |  4294690866 |
|      12 | 0xFFFEA17C  |  4294877564 |
|      13 | 0x0028      |          40 |
|      14 | 0xFFFBC398  |  4294689688 |
|      15 | 0xFFFE90EE  |  4294873326 |
|      16 | 0xFFFFD120  |  4294955296 |
|      17 | 0x1D41      |        7489 |
|      18 | 0x1D42      |        7490 |
|      19 | 0x1D43      |        7491 |
|      20 | 0x1D44      |        7492 |
|      21 | 0x0274      |         628 |
|      22 | 0x1DC5      |        7621 |
|      23 | 0x1DC6      |        7622 |
|      24 | 0xFFFB277B  |  4294649723 |
|      25 | 0xFFFD57C2  |  4294793154 |
|      26 | 0xFFFFC1A4  |  4294951332 |
|      27 | 0x0C17      |        3095 |
|      28 | 0xFFFB2A6D  |  4294650477 |
|      29 | 0xFFFD5F7B  |  4294795131 |
|      30 | 0xFFFB2983  |  4294650243 |
|      31 | 0xFFFD50E2  |  4294791394 |
|      32 | 0xFFFFC1B4  |  4294951348 |
|      33 | 0xFFFB2749  |  4294649673 |
|      34 | 0xFFFD5332  |  4294791986 |
|      35 | 0xFFFB1DEF  |  4294647279 |
|      36 | 0xFFFD5A27  |  4294793767 |
|      37 | 0x000A      |          10 |
|      38 | 0xFFFB1DB4  |  4294647220 |
|      39 | 0xFFFD601D  |  4294795293 |
|      40 | 0xFFFB0FE3  |  4294643683 |
|      41 | 0xFFFD6BAE  |  4294798254 |
|      42 | 0xFFFFC108  |  4294951176 |
|      43 | 0xFFFA9E44  |  4294614596 |
|      44 | 0xFFFD717E  |  4294799742 |
|      45 | 0xFFFFD8EE  |  4294957294 |
|      46 | 0x07E3      |        2019 |
|      47 | 0xFFFA8824  |  4294608932 |
|      48 | 0xFFFD6962  |  4294797666 |
|      49 | 0xFFFFD8EB  |  4294957291 |

## String References

- **7483**: If you're looking for Mister Dalzakk, he's gone adventuring for a while.
- **7484**: The monster in the lighthouse? Yeah, actually, I've heard Mister Dalzakk talk about it before. I think you have to put $7 behind the lighthouse to lure it out.
- **7485**: He said you have to "Trade" with selectable points on the field to use or place items. Does that help?
- **7489**: If you're looking for Mister Dalzakk, he's out adventuring. He lets me stay here and read his books while he's away.
- **7490**: Hm? What's this I'm reading now? It's called "The Chronicles of Prien the Brave." It's the biography of some famous president that ruled during the Crystal War.
- **7491**: I first picked the book up because of the interesting engravings on its binding, but after reading a few pages, I felt a deeper connection to the story.
- **7492**: I wonder if it has something to do with the bronze bullet I found myself clenching upon my rebirth...
- **7621**: Hi! You're the adventurer who helped Michea make her present, aren't you?
- **7622**: I'm making Mister Dalzakk a present, too, and I need your help! I'm missing $7, for the final touch! Do you have any? Could you bring me some?

## Events

### Event 65535

#### Metadata

| Field        | Value   |
|--------------|---------|
| Entrypoint   | 0x0000  |
| Data Size    | 1 bytes |
| Instructions | 1       |

```
      00 01 02 03 04 05 06 07  08 09 0A 0B 0C 0D 0E 0F
      -- -- -- -- -- -- -- --  -- -- -- -- -- -- -- --
0000: 00                                                .               
```

#### Opcodes

```
  0: 0x0000 [0x00] END_REQSTACK()
```

### Event 103

#### Metadata

| Field        | Value    |
|--------------|----------|
| Entrypoint   | 0x0001   |
| Data Size    | 39 bytes |
| Instructions | 11       |

```
      00 01 02 03 04 05 06 07  08 09 0A 0B 0C 0D 0E 0F
      -- -- -- -- -- -- -- --  -- -- -- -- -- -- -- --
0000:    03 09 10 00 80 1E F0  FF FF 7F 1D 01 80 23 5B   .............#[
0010: 02 80 F8 FF FF 7F F8 FF  FF 7F 74 6C 6B 30 1D 03  ..........tlk0..
0020: 80 23 1D 04 80 23 21 00                           .#...#!.        
```

#### Opcodes

```
  0: 0x0001 [0x03] Work_Zone[9] = 4514*
  1: 0x0006 [0x1E] EventEntity looks at LocalPlayer and starts talking
  2: 0x000B [0x1D] PRINT_EVENT_MESSAGE(message_id=7483*)
    → "If you're looking for Mister Dalzakk, he's gone adventuring for a while."
  3: 0x000E [0x23] WAIT_FOR_DIALOG_INTERACTION
  4: 0x000F [0x5B] LOAD_EXT_SCHEDULER: Load scheduler "tlk0" with entities [EventEntity, EventEntity], work=90*
  5: 0x001E [0x1D] PRINT_EVENT_MESSAGE(message_id=7484*)
    → "The monster in the lighthouse? Yeah, actually, I've heard Mister Dalzakk talk about it before. I think you have to put $7 behind the lighthouse to lure it out."
  6: 0x0021 [0x23] WAIT_FOR_DIALOG_INTERACTION
  7: 0x0022 [0x1D] PRINT_EVENT_MESSAGE(message_id=7485*)
    → "He said you have to "Trade" with selectable points on the field to use or place items. Does that help?"
  8: 0x0025 [0x23] WAIT_FOR_DIALOG_INTERACTION
  9: 0x0026 [0x21] END_EVENT
 10: 0x0027 [0x00] END_REQSTACK()
```

### Event 7

#### Metadata

| Field        | Value    |
|--------------|----------|
| Entrypoint   | 0x0028   |
| Data Size    | 10 bytes |
| Instructions | 2        |

```
      00 01 02 03 04 05 06 07  08 09 0A 0B 0C 0D 0E 0F
      -- -- -- -- -- -- -- --  -- -- -- -- -- -- -- --
0020:                          37 05 80 06 80 07 80 08          7.......
0030: 80 00                                             ..              
```

#### Opcodes

```
  0: 0x0028 [0x37] UPDATE_EVENT_POSITION_AND_DIR: x=-277.755*, z=-89.282*, y=-12.136*, direction=116.2°*
  1: 0x0031 [0x00] END_REQSTACK()
```

### Event 65535.1

#### Metadata

| Field        | Value   |
|--------------|---------|
| Entrypoint   | 0x0032  |
| Data Size    | 6 bytes |
| Instructions | 2       |

```
      00 01 02 03 04 05 06 07  08 09 0A 0B 0C 0D 0E 0F
      -- -- -- -- -- -- -- --  -- -- -- -- -- -- -- --
0030:       5E 69 64 6C 30 00                             ^idl0.        
```

#### Opcodes

```
  0: 0x0032 [0x5E] EventEntity goes idle (kills current action) (animation: "idl0")
  1: 0x0037 [0x00] END_REQSTACK()
```

### Event 65535.2

#### Metadata

| Field        | Value    |
|--------------|----------|
| Entrypoint   | 0x0038   |
| Data Size    | 22 bytes |
| Instructions | 6        |

```
      00 01 02 03 04 05 06 07  08 09 0A 0B 0C 0D 0E 0F
      -- -- -- -- -- -- -- --  -- -- -- -- -- -- -- --
0030:                          1E 0A B0 0E 01 1C 09 80          ........
0040: 32 0A 80 1F 00 0B 80 0C  80 07 80 1F 01 00        2.............  
```

#### Opcodes

```
  0: 0x0038 [0x1E] EventEntity looks at Dalzakk (ID: 17739786/0x010EB00A) and starts talking
  1: 0x003D [0x1C] WAIT(60* ticks)
  2: 0x0040 [0x32] ExtData[1]->MainSpeed = 13* * 0.1
  3: 0x0043 [0x1F] MOVE_ENTITY: EventEntity moves to X=-276.430*, Z=-89.732*, Y=-12.136*
  4: 0x004B [0x1F] MOVE_ENTITY: Update entity position (mode=1)
  5: 0x004D [0x00] END_REQSTACK()
```

### Event 65535.3

#### Metadata

| Field        | Value    |
|--------------|----------|
| Entrypoint   | 0x004E   |
| Data Size    | 16 bytes |
| Instructions | 5        |

```
      00 01 02 03 04 05 06 07  08 09 0A 0B 0C 0D 0E 0F
      -- -- -- -- -- -- -- --  -- -- -- -- -- -- -- --
0040:                                            32 0D                2.
0050: 80 1F 00 0E 80 0F 80 10  80 1F 01 22 01 00        ..........."..  
```

#### Opcodes

```
  0: 0x004E [0x32] ExtData[1]->MainSpeed = 40* * 0.1
  1: 0x0051 [0x1F] MOVE_ENTITY: EventEntity moves to X=-277.608*, Z=-93.970*, Y=-12.000*
  2: 0x0059 [0x1F] MOVE_ENTITY: Update entity position (mode=1)
  3: 0x005B [0x22] ENTITY_HIDE_FLAG(enabled=0x01)
  4: 0x005D [0x00] END_REQSTACK()
```

### Event 113

#### Metadata

| Field        | Value    |
|--------------|----------|
| Entrypoint   | 0x005E   |
| Data Size    | 53 bytes |
| Instructions | 13       |

```
      00 01 02 03 04 05 06 07  08 09 0A 0B 0C 0D 0E 0F
      -- -- -- -- -- -- -- --  -- -- -- -- -- -- -- --
0050:                                            1E F0                ..
0060: FF FF 7F 1D 11 80 23 5B  02 80 F8 FF FF 7F F8 FF  ......#[........
0070: FF 7F 74 6C 6B 30 1D 12  80 23 1D 13 80 23 5B 02  ..tlk0...#...#[.
0080: 80 F8 FF FF 7F F8 FF FF  7F 74 6C 6B 31 1D 14 80  .........tlk1...
0090: 23 21 00                                          #!.             
```

#### Opcodes

```
  0: 0x005E [0x1E] EventEntity looks at LocalPlayer and starts talking
  1: 0x0063 [0x1D] PRINT_EVENT_MESSAGE(message_id=7489*)
    → "If you're looking for Mister Dalzakk, he's out adventuring. He lets me stay here and read his books while he's away."
  2: 0x0066 [0x23] WAIT_FOR_DIALOG_INTERACTION
  3: 0x0067 [0x5B] LOAD_EXT_SCHEDULER: Load scheduler "tlk0" with entities [EventEntity, EventEntity], work=90*
  4: 0x0076 [0x1D] PRINT_EVENT_MESSAGE(message_id=7490*)
    → "Hm? What's this I'm reading now? It's called "The Chronicles of Prien the Brave." It's the biography of some famous president that ruled during the Crystal War."
  5: 0x0079 [0x23] WAIT_FOR_DIALOG_INTERACTION
  6: 0x007A [0x1D] PRINT_EVENT_MESSAGE(message_id=7491*)
    → "I first picked the book up because of the interesting engravings on its binding, but after reading a few pages, I felt a deeper connection to the story."
  7: 0x007D [0x23] WAIT_FOR_DIALOG_INTERACTION
  8: 0x007E [0x5B] LOAD_EXT_SCHEDULER: Load scheduler "tlk1" with entities [EventEntity, EventEntity], work=90*
  9: 0x008D [0x1D] PRINT_EVENT_MESSAGE(message_id=7492*)
    → "I wonder if it has something to do with the bronze bullet I found myself clenching upon my rebirth..."
 10: 0x0090 [0x23] WAIT_FOR_DIALOG_INTERACTION
 11: 0x0091 [0x21] END_EVENT
 12: 0x0092 [0x00] END_REQSTACK()
```

### Event 242

#### Metadata

| Field        | Value    |
|--------------|----------|
| Entrypoint   | 0x0093   |
| Data Size    | 35 bytes |
| Instructions | 9        |

```
      00 01 02 03 04 05 06 07  08 09 0A 0B 0C 0D 0E 0F
      -- -- -- -- -- -- -- --  -- -- -- -- -- -- -- --
0090:          1E F0 FF FF 7F  03 09 10 15 80 1D 16 80     .............
00A0: 23 5B 02 80 F8 FF FF 7F  F8 FF FF 7F 74 6C 6B 30  #[..........tlk0
00B0: 1D 17 80 23 21 00                                 ...#!.          
```

#### Opcodes

```
  0: 0x0093 [0x1E] EventEntity looks at LocalPlayer and starts talking
  1: 0x0098 [0x03] Work_Zone[9] = 628*
  2: 0x009D [0x1D] PRINT_EVENT_MESSAGE(message_id=7621*)
    → "Hi! You're the adventurer who helped Michea make her present, aren't you?"
  3: 0x00A0 [0x23] WAIT_FOR_DIALOG_INTERACTION
  4: 0x00A1 [0x5B] LOAD_EXT_SCHEDULER: Load scheduler "tlk0" with entities [EventEntity, EventEntity], work=90*
  5: 0x00B0 [0x1D] PRINT_EVENT_MESSAGE(message_id=7622*)
    → "I'm making Mister Dalzakk a present, too, and I need your help! I'm missing $7, for the final touch! Do you have any? Could you bring me some?"
  6: 0x00B3 [0x23] WAIT_FOR_DIALOG_INTERACTION
  7: 0x00B4 [0x21] END_EVENT
  8: 0x00B5 [0x00] END_REQSTACK()
```

### Event 243

#### Metadata

| Field        | Value   |
|--------------|---------|
| Entrypoint   | 0x00B6  |
| Data Size    | 1 bytes |
| Instructions | 1       |

```
      00 01 02 03 04 05 06 07  08 09 0A 0B 0C 0D 0E 0F
      -- -- -- -- -- -- -- --  -- -- -- -- -- -- -- --
00B0:                   00                                    .         
```

#### Opcodes

```
  0: 0x00B6 [0x00] END_REQSTACK()
```

### Event 65535.4

#### Metadata

| Field        | Value    |
|--------------|----------|
| Entrypoint   | 0x00B7   |
| Data Size    | 23 bytes |
| Instructions | 5        |

```
      00 01 02 03 04 05 06 07  08 09 0A 0B 0C 0D 0E 0F
      -- -- -- -- -- -- -- --  -- -- -- -- -- -- -- --
00B0:                      32  0D 80 37 18 80 19 80 1A         2..7.....
00C0: 80 1B 80 1F 00 1C 80 1D  80 1A 80 1F 01 00        ..............  
```

#### Opcodes

```
  0: 0x00B7 [0x32] ExtData[1]->MainSpeed = 40* * 0.1
  1: 0x00BA [0x37] UPDATE_EVENT_POSITION_AND_DIR: x=-317.573*, z=-174.142*, y=-15.964*, direction=272.0°*
  2: 0x00C3 [0x1F] MOVE_ENTITY: EventEntity moves to X=-316.819*, Z=-172.165*, Y=-15.964*
  3: 0x00CB [0x1F] MOVE_ENTITY: Update entity position (mode=1)
  4: 0x00CD [0x00] END_REQSTACK()
```

### Event 65535.5

#### Metadata

| Field        | Value    |
|--------------|----------|
| Entrypoint   | 0x00CE   |
| Data Size    | 14 bytes |
| Instructions | 4        |

```
      00 01 02 03 04 05 06 07  08 09 0A 0B 0C 0D 0E 0F
      -- -- -- -- -- -- -- --  -- -- -- -- -- -- -- --
00C0:                                            32 0D                2.
00D0: 80 1F 00 1E 80 1F 80 20  80 1F 01 00              ....... ....    
```

#### Opcodes

```
  0: 0x00CE [0x32] ExtData[1]->MainSpeed = 40* * 0.1
  1: 0x00D1 [0x1F] MOVE_ENTITY: EventEntity moves to X=-317.053*, Z=-175.902*, Y=-15.948*
  2: 0x00D9 [0x1F] MOVE_ENTITY: Update entity position (mode=1)
  3: 0x00DB [0x00] END_REQSTACK()
```

### Event 65535.6

#### Metadata

| Field        | Value    |
|--------------|----------|
| Entrypoint   | 0x00DC   |
| Data Size    | 66 bytes |
| Instructions | 11       |

```
      00 01 02 03 04 05 06 07  08 09 0A 0B 0C 0D 0E 0F
      -- -- -- -- -- -- -- --  -- -- -- -- -- -- -- --
00D0:                                      32 0D 80 79              2..y
00E0: 00 F8 FF FF 7F 0A B0 0E  01 1F 00 21 80 22 80 1A  ...........!."..
00F0: 80 1F 01 1F 00 23 80 24  80 1A 80 1F 01 6F 1C 25  .....#.$.....o.%
0100: 80 5B 02 80 05 B0 0E 01  05 B0 0E 01 70 61 73 30  .[..........pas0
0110: 53 05 B0 0E 01 05 B0 0E  01 70 61 73 30 00        S........pas0.  
```

#### Opcodes

```
  0: 0x00DC [0x32] ExtData[1]->MainSpeed = 40* * 0.1
  1: 0x00DF [0x79] EventEntity looks at Dalzakk (ID: 17739786/0x010EB00A) (Basic look)
  2: 0x00E9 [0x1F] MOVE_ENTITY: EventEntity moves to X=-317.623*, Z=-175.310*, Y=-15.964*
  3: 0x00F1 [0x1F] MOVE_ENTITY: Update entity position (mode=1)
  4: 0x00F3 [0x1F] MOVE_ENTITY: EventEntity moves to X=-320.017*, Z=-173.529*, Y=-15.964*
  5: 0x00FB [0x1F] MOVE_ENTITY: Update entity position (mode=1)
  6: 0x00FD [0x6F] WAIT_FRAME_DELAY: Yield until WaitTime reaches zero
  7: 0x00FE [0x1C] WAIT(10* ticks)
  8: 0x0101 [0x5B] LOAD_EXT_SCHEDULER: Load scheduler "pas0" with entities [Gwill (ID: 17739781/0x010EB005), Gwill (ID: 17739781/0x010EB005)], work=90*
  9: 0x0110 [0x53] WAIT_SCHEDULER_TASK: Wait for scheduler "pas0" with entities [Gwill (ID: 17739781/0x010EB005), Gwill (ID: 17739781/0x010EB005)]
 10: 0x011D [0x00] END_REQSTACK()
```

### Event 65535.7

#### Metadata

| Field        | Value    |
|--------------|----------|
| Entrypoint   | 0x011E   |
| Data Size    | 32 bytes |
| Instructions | 7        |

```
      00 01 02 03 04 05 06 07  08 09 0A 0B 0C 0D 0E 0F
      -- -- -- -- -- -- -- --  -- -- -- -- -- -- -- --
0110:                                            32 0A                2.
0120: 80 79 00 F8 FF FF 7F 2C  B0 0E 01 1F 00 26 80 27  .y.....,.....&.'
0130: 80 1A 80 1F 01 1C 25 80  1E 2C B0 0E 01 00        ......%..,....  
```

#### Opcodes

```
  0: 0x011E [0x32] ExtData[1]->MainSpeed = 13* * 0.1
  1: 0x0121 [0x79] EventEntity looks at Michea (ID: 17739820/0x010EB02C) (Basic look)
  2: 0x012B [0x1F] MOVE_ENTITY: EventEntity moves to X=-320.076*, Z=-172.003*, Y=-15.964*
  3: 0x0133 [0x1F] MOVE_ENTITY: Update entity position (mode=1)
  4: 0x0135 [0x1C] WAIT(10* ticks)
  5: 0x0138 [0x1E] EventEntity looks at Michea (ID: 17739820/0x010EB02C) and starts talking
  6: 0x013D [0x00] END_REQSTACK()
```

### Event 65535.8

#### Metadata

| Field        | Value    |
|--------------|----------|
| Entrypoint   | 0x013E   |
| Data Size    | 32 bytes |
| Instructions | 6        |

```
      00 01 02 03 04 05 06 07  08 09 0A 0B 0C 0D 0E 0F
      -- -- -- -- -- -- -- --  -- -- -- -- -- -- -- --
0130:                                            5B 02                [.
0140: 80 05 B0 0E 01 05 B0 0E  01 74 68 6B 32 1C 02 80  .........thk2...
0150: 32 0A 80 1F 00 28 80 29  80 2A 80 1F 01 00        2....(.).*....  
```

#### Opcodes

```
  0: 0x013E [0x5B] LOAD_EXT_SCHEDULER: Load scheduler "thk2" with entities [Gwill (ID: 17739781/0x010EB005), Gwill (ID: 17739781/0x010EB005)], work=90*
  1: 0x014D [0x1C] WAIT(90* ticks)
  2: 0x0150 [0x32] ExtData[1]->MainSpeed = 13* * 0.1
  3: 0x0153 [0x1F] MOVE_ENTITY: EventEntity moves to X=-323.613*, Z=-169.042*, Y=-16.120*
  4: 0x015B [0x1F] MOVE_ENTITY: Update entity position (mode=1)
  5: 0x015D [0x00] END_REQSTACK()
```

### Event 1008

#### Metadata

| Field        | Value   |
|--------------|---------|
| Entrypoint   | 0x015E  |
| Data Size    | 1 bytes |
| Instructions | 1       |

```
      00 01 02 03 04 05 06 07  08 09 0A 0B 0C 0D 0E 0F
      -- -- -- -- -- -- -- --  -- -- -- -- -- -- -- --
0150:                                            00                   . 
```

#### Opcodes

```
  0: 0x015E [0x00] END_REQSTACK()
```

### Event 1009

#### Metadata

| Field        | Value   |
|--------------|---------|
| Entrypoint   | 0x015F  |
| Data Size    | 1 bytes |
| Instructions | 1       |

```
      00 01 02 03 04 05 06 07  08 09 0A 0B 0C 0D 0E 0F
      -- -- -- -- -- -- -- --  -- -- -- -- -- -- -- --
0150:                                               00                 .
```

#### Opcodes

```
  0: 0x015F [0x00] END_REQSTACK()
```

### Event 65535.9

#### Metadata

| Field        | Value    |
|--------------|----------|
| Entrypoint   | 0x0160   |
| Data Size    | 35 bytes |
| Instructions | 7        |

```
      00 01 02 03 04 05 06 07  08 09 0A 0B 0C 0D 0E 0F
      -- -- -- -- -- -- -- --  -- -- -- -- -- -- -- --
0160: 22 00 32 0D 80 79 00 F8  FF FF 7F 0A B0 0E 01 37  ".2..y.........7
0170: 2B 80 2C 80 2D 80 2E 80  1F 00 2F 80 30 80 31 80  +.,.-...../.0.1.
0180: 1F 01 00                                          ...             
```

#### Opcodes

```
  0: 0x0160 [0x22] ENTITY_HIDE_FLAG(enabled=0x00)
  1: 0x0162 [0x32] ExtData[1]->MainSpeed = 40* * 0.1
  2: 0x0165 [0x79] EventEntity looks at Dalzakk (ID: 17739786/0x010EB00A) (Basic look)
  3: 0x016F [0x37] UPDATE_EVENT_POSITION_AND_DIR: x=-352.700*, z=-167.554*, y=-10.002*, direction=177.4°*
  4: 0x0178 [0x1F] MOVE_ENTITY: EventEntity moves to X=-358.364*, Z=-169.630*, Y=-10.005*
  5: 0x0180 [0x1F] MOVE_ENTITY: Update entity position (mode=1)
  6: 0x0182 [0x00] END_REQSTACK()
```
