# 17739938 - Matthias

## Common Data

| Field            | Value                    |
|------------------|--------------------------|
| Zone             | Bastok Markets (ID: 235) |
| Block Size       | 948 bytes                |
| Total Events     | 12                       |
| References Count | 33                       |

## List of Events

| Event ID              | Entrypoint   |   Size |   Instructions |
|-----------------------|--------------|--------|----------------|
| [65535](#event-65535) | 0x0000       |      1 |              1 |
| [499](#event-499)     | 0x0001       |     29 |              7 |
| [492](#event-492)     | 0x001E       |      1 |              1 |
| [493](#event-493)     | 0x001F       |    392 |             76 |
| [494](#event-494)     | 0x01A7       |    122 |             25 |
| [495](#event-495)     | 0x0221       |    127 |             28 |
| [496](#event-496)     | 0x02A0       |     29 |              7 |
| [497](#event-497)     | 0x02BD       |      1 |              1 |
| [498](#event-498)     | 0x02BE       |     29 |              7 |
| [675](#event-675)     | 0x02DB       |      7 |              2 |
| [676](#event-676)     | 0x02E2       |      7 |              2 |
| [678](#event-678)     | 0x02E9       |      7 |              2 |

## DAT References (imed_data)

|   Index | Hex Value   |   Dec Value |
|---------|-------------|-------------|
|       0 | 0x001E      |          30 |
|       1 | 0x0000      |           0 |
|       2 | 0x30A9      |       12457 |
|       3 | 0x0001      |           1 |
|       4 | 0x0002      |           2 |
|       5 | 0x0004      |           4 |
|       6 | 0x30A8      |       12456 |
|       7 | 0x3F0A      |       16138 |
|       8 | 0x3A9A      |       15002 |
|       9 | 0x3D82      |       15746 |
|      10 | 0x3094      |       12436 |
|      11 | 0x0924      |        2340 |
|      12 | 0x07DA      |        2010 |
|      13 | 0x07C7      |        1991 |
|      14 | 0x3F0B      |       16139 |
|      15 | 0x08F0      |        2288 |
|      16 | 0x033E      |         830 |
|      17 | 0x07CC      |        1996 |
|      18 | 0x3A9B      |       15003 |
|      19 | 0x08F1      |        2289 |
|      20 | 0x0664      |        1636 |
|      21 | 0x07CF      |        1999 |
|      22 | 0x0003      |           3 |
|      23 | 0x3D83      |       15747 |
|      24 | 0x3095      |       12437 |
|      25 | 0x3096      |       12438 |
|      26 | 0x3097      |       12439 |
|      27 | 0x3098      |       12440 |
|      28 | 0x3099      |       12441 |
|      29 | 0x309A      |       12442 |
|      30 | 0x309B      |       12443 |
|      31 | 0x309C      |       12444 |
|      32 | 0x30A7      |       12455 |

## String References

- **12436**: Which will you have made? [#./$1./$2./Nothing.]
- **12437**: Not interested? Feel free to come back anytime you need something.
- **12438**: In order to make $0, I need $1, and $2. Oh, and also $3.
- **12439**: Sounds doable? [No problem./No...]
- **12440**: Alright then, bring me the materials and I'll get started.
- **12441**: In order to make $0, I need $1, $2, and $3.
- **12442**: Let's take a look at what you brought me... $0, $1, and $2. Good! They're exactly what I need to make $3.
- **12443**: I'll start working on it right away. This will take time, so please come back later.
- **12444**: I'm working as fast as I can, but it will take a bit more time. "Good things come to those who wait," right?
- **12455**: I'm afraid there's nothing else I can make for you. Please give my regards to Laila!
- **12456**: Would you like to have something made?
- **12457**: I specialize in tailoring for entertainers and dancers. I'm proud of the countless garments I've tailored over the years.

## Events

### Event 65535

#### Metadata

| Field        | Value   |
|--------------|---------|
| Entrypoint   | 0x0000  |
| Data Size    | 1 bytes |
| Instructions | 1       |

```
      00 01 02 03 04 05 06 07  08 09 0A 0B 0C 0D 0E 0F
      -- -- -- -- -- -- -- --  -- -- -- -- -- -- -- --
0000: 00                                                .               
```

#### Opcodes

```
  0: 0x0000 [0x00] END_REQSTACK()
```

### Event 499

#### Metadata

| Field        | Value    |
|--------------|----------|
| Entrypoint   | 0x0001   |
| Data Size    | 29 bytes |
| Instructions | 7        |

```
      00 01 02 03 04 05 06 07  08 09 0A 0B 0C 0D 0E 0F
      -- -- -- -- -- -- -- --  -- -- -- -- -- -- -- --
0000:    1E F0 FF FF 7F 1C 00  80 66 01 80 F8 FF FF 7F   ........f......
0010: F8 FF FF 7F 74 6C 6B 30  1D 02 80 23 21 00        ....tlk0...#!.  
```

#### Opcodes

```
  0: 0x0001 [0x1E] EventEntity looks at LocalPlayer and starts talking
  1: 0x0006 [0x1C] WAIT(30* ticks)
  2: 0x0009 [0x66] LOAD_EXT_SCHEDULER_MAIN: Load scheduler "tlk0" with entities [EventEntity, EventEntity], work=0*
  3: 0x0018 [0x1D] PRINT_EVENT_MESSAGE(message_id=12457*)
    → "I specialize in tailoring for entertainers and dancers. I'm proud of the countless garments I've tailored over the years."
  4: 0x001B [0x23] WAIT_FOR_DIALOG_INTERACTION
  5: 0x001C [0x21] END_EVENT
  6: 0x001D [0x00] END_REQSTACK()
```

### Event 492

#### Metadata

| Field        | Value   |
|--------------|---------|
| Entrypoint   | 0x001E  |
| Data Size    | 1 bytes |
| Instructions | 1       |

```
      00 01 02 03 04 05 06 07  08 09 0A 0B 0C 0D 0E 0F
      -- -- -- -- -- -- -- --  -- -- -- -- -- -- -- --
0010:                                            00                   . 
```

#### Opcodes

```
  0: 0x001E [0x00] END_REQSTACK()
```

### Event 493

#### Metadata

| Field        | Value     |
|--------------|-----------|
| Entrypoint   | 0x001F    |
| Data Size    | 392 bytes |
| Instructions | 74        |

```
      00 01 02 03 04 05 06 07  08 09 0A 0B 0C 0D 0E 0F
      -- -- -- -- -- -- -- --  -- -- -- -- -- -- -- --
0010:                                               42                 B
0020: 03 00 00 01 80 02 02 10  03 80 00 32 00 03 00 00  ...........2....
0030: 03 80 02 03 10 03 80 00  3F 00 0E 00 00 04 80 02  ........?.......
0040: 04 10 03 80 00 4C 00 0E  00 00 05 80 1E F0 FF FF  .....L..........
0050: 7F 1C 00 80 66 01 80 F8  FF FF 7F F8 FF FF 7F 74  ....f..........t
0060: 6C 6B 30 1D 06 80 23 66  01 80 F8 FF FF 7F F8 FF  lk0...#f........
0070: FF 7F 74 65 6E 30 03 02  10 07 80 03 03 10 08 80  ..ten0..........
0080: 03 04 10 09 80 24 0A 80  01 80 00 00 25 02 00 10  .....$......%...
0090: 01 80 00 BD 00 03 03 10  0B 80 03 04 10 0C 80 03  ................
00A0: 05 10 0D 80 03 01 10 03  80 02 8B 7F 03 80 00 B7  ................
00B0: 00 93 07 80 01 BA 00 93  0E 80 01 4C 01 02 00 10  ...........L....
00C0: 03 80 00 F2 00 03 02 10  08 80 03 03 10 0F 80 03  ................
00D0: 04 10 10 80 03 05 10 11  80 03 01 10 04 80 02 8B  ................
00E0: 7F 03 80 00 EC 00 93 08  80 01 EF 00 93 12 80 01  ................
00F0: 4C 01 02 00 10 04 80 00  27 01 03 02 10 09 80 03  L.......'.......
0100: 03 10 13 80 03 04 10 14  80 03 05 10 15 80 03 01  ................
0110: 10 16 80 02 8B 7F 03 80  00 21 01 93 09 80 01 24  .........!.....$
0120: 01 93 17 80 01 4C 01 02  00 10 16 80 00 4C 01 03  .....L.......L..
0130: 01 10 01 80 66 01 80 F8  FF FF 7F F8 FF FF 7F 74  ....f..........t
0140: 6C 6B 30 1D 18 80 23 21  00 01 4C 01 66 01 80 F8  lk0...#!..L.f...
0150: FF FF 7F F8 FF FF 7F 74  6C 6B 30 1D 19 80 23 66  .......tlk0...#f
0160: 01 80 F8 FF FF 7F F8 FF  FF 7F 74 65 6E 30 93 01  ..........ten0..
0170: 80 24 1A 80 03 80 01 80  25 02 00 10 01 80 00 97  .$......%.......
0180: 01 66 01 80 F8 FF FF 7F  F8 FF FF 7F 74 6C 6B 30  .f..........tlk0
0190: 1D 1B 80 23 01 A5 01 02  00 10 03 80 00 A5 01 01  ...#............
01A0: 76 00 01 A5 01 21 00                              v....!.         
```

#### Opcodes

```
  0: 0x001F [0x42] SET_CLI_EVENT_CANCEL_DATA()
  1: 0x0020 [0x03] ExtData[1]->WorkLocal[0] = 0*
  2: 0x0025 [0x02] IF !(Work_Zone[2] == 1*) GOTO 0x0032
  3: 0x002D [0x03] ExtData[1]->WorkLocal[0] = 1*
  4: 0x0032 [0x02] IF !(Work_Zone[3] == 1*) GOTO 0x003F
  5: 0x003A [0x0E] ExtData[1]->WorkLocal[0] |= 2*
  6: 0x003F [0x02] IF !(Work_Zone[4] == 1*) GOTO 0x004C
  7: 0x0047 [0x0E] ExtData[1]->WorkLocal[0] |= 4*
  8: 0x004C [0x1E] EventEntity looks at LocalPlayer and starts talking
  9: 0x0051 [0x1C] WAIT(30* ticks)
 10: 0x0054 [0x66] LOAD_EXT_SCHEDULER_MAIN: Load scheduler "tlk0" with entities [EventEntity, EventEntity], work=0*
 11: 0x0063 [0x1D] PRINT_EVENT_MESSAGE(message_id=12456*)
    → "Would you like to have something made?"
 12: 0x0066 [0x23] WAIT_FOR_DIALOG_INTERACTION
 13: 0x0067 [0x66] LOAD_EXT_SCHEDULER_MAIN: Load scheduler "ten0" with entities [EventEntity, EventEntity], work=0*
 14: 0x0076 [0x03] Work_Zone[2] = 16138*
 15: 0x007B [0x03] Work_Zone[3] = 15002*
 16: 0x0080 [0x03] Work_Zone[4] = 15746*
 17: 0x0085 [0x24] CREATE_DIALOG(message_id=12436*, default_option=0*, option_flags=ExtData[1]->WorkLocal[0])
    → "Which will you have made? [#./$1./$2./Nothing.]"
 18: 0x008C [0x25] WAIT_DIALOG_SELECT()
 19: 0x008D [0x02] IF !(Work_Zone[0] == 0*) GOTO 0x00BD
 20: 0x0095 [0x03] Work_Zone[3] = 2340*
 21: 0x009A [0x03] Work_Zone[4] = 2010*
 22: 0x009F [0x03] Work_Zone[5] = 1991*
 23: 0x00A4 [0x03] Work_Zone[1] = 1*
 24: 0x00A9 [0x02] IF !((LocalPlayer->Render.Flags01 >> 25) & 1 == 1*) GOTO 0x00B7
 25: 0x00B1 [0x93] DISPLAY_ITEM_INFO(item_id=16138*)
 26: 0x00B4 [0x01] GOTO 0x00BA
 27: 0x00B7 [0x93] DISPLAY_ITEM_INFO(item_id=16139*)

SUBROUTINE_00BA:
 28: 0x00BA [0x01] GOTO 0x014C
 29: 0x00BD [0x02] IF !(Work_Zone[0] == 1*) GOTO 0x00F2
 30: 0x00C5 [0x03] Work_Zone[2] = 15002*
 31: 0x00CA [0x03] Work_Zone[3] = 2288*
 32: 0x00CF [0x03] Work_Zone[4] = 830*
 33: 0x00D4 [0x03] Work_Zone[5] = 1996*
 34: 0x00D9 [0x03] Work_Zone[1] = 2*
 35: 0x00DE [0x02] IF !((LocalPlayer->Render.Flags01 >> 25) & 1 == 1*) GOTO 0x00EC
 36: 0x00E6 [0x93] DISPLAY_ITEM_INFO(item_id=15002*)
 37: 0x00E9 [0x01] GOTO 0x00EF
 38: 0x00EC [0x93] DISPLAY_ITEM_INFO(item_id=15003*)

SUBROUTINE_00EF:
 39: 0x00EF [0x01] GOTO 0x014C
 40: 0x00F2 [0x02] IF !(Work_Zone[0] == 2*) GOTO 0x0127
 41: 0x00FA [0x03] Work_Zone[2] = 15746*
 42: 0x00FF [0x03] Work_Zone[3] = 2289*
 43: 0x0104 [0x03] Work_Zone[4] = 1636*
 44: 0x0109 [0x03] Work_Zone[5] = 1999*
 45: 0x010E [0x03] Work_Zone[1] = 3*
 46: 0x0113 [0x02] IF !((LocalPlayer->Render.Flags01 >> 25) & 1 == 1*) GOTO 0x0121
 47: 0x011B [0x93] DISPLAY_ITEM_INFO(item_id=15746*)
 48: 0x011E [0x01] GOTO 0x0124
 49: 0x0121 [0x93] DISPLAY_ITEM_INFO(item_id=15747*)

SUBROUTINE_0124:
 50: 0x0124 [0x01] GOTO 0x014C
 51: 0x0127 [0x02] IF !(Work_Zone[0] == 3*) GOTO 0x014C
 52: 0x012F [0x03] Work_Zone[1] = 0*
 53: 0x0134 [0x66] LOAD_EXT_SCHEDULER_MAIN: Load scheduler "tlk0" with entities [EventEntity, EventEntity], work=0*
 54: 0x0143 [0x1D] PRINT_EVENT_MESSAGE(message_id=12437*)
    → "Not interested? Feel free to come back anytime you need something."
 55: 0x0146 [0x23] WAIT_FOR_DIALOG_INTERACTION
 56: 0x0147 [0x21] END_EVENT
 57: 0x0148 [0x00] END_REQSTACK()

SUBROUTINE_014C:
 58: 0x014C [0x66] LOAD_EXT_SCHEDULER_MAIN: Load scheduler "tlk0" with entities [EventEntity, EventEntity], work=0*
 59: 0x015B [0x1D] PRINT_EVENT_MESSAGE(message_id=12438*)
    → "In order to make $0, I need $1, and $2. Oh, and also $3."
 60: 0x015E [0x23] WAIT_FOR_DIALOG_INTERACTION
 61: 0x015F [0x66] LOAD_EXT_SCHEDULER_MAIN: Load scheduler "ten0" with entities [EventEntity, EventEntity], work=0*
 62: 0x016E [0x93] DISPLAY_ITEM_INFO(item_id=0*)
 63: 0x0171 [0x24] CREATE_DIALOG(message_id=12439*, default_option=1*, option_flags=0*)
    → "Sounds doable? [No problem./No...]"
 64: 0x0178 [0x25] WAIT_DIALOG_SELECT()
 65: 0x0179 [0x02] IF !(Work_Zone[0] == 0*) GOTO 0x0197
 66: 0x0181 [0x66] LOAD_EXT_SCHEDULER_MAIN: Load scheduler "tlk0" with entities [EventEntity, EventEntity], work=0*
 67: 0x0190 [0x1D] PRINT_EVENT_MESSAGE(message_id=12440*)
    → "Alright then, bring me the materials and I'll get started."
 68: 0x0193 [0x23] WAIT_FOR_DIALOG_INTERACTION
 69: 0x0194 [0x01] GOTO 0x01A5
 70: 0x0197 [0x02] IF !(Work_Zone[0] == 1*) GOTO 0x01A5
 71: 0x019F [0x01] GOTO 0x0076

SUBROUTINE_01A5:
 72: 0x01A5 [0x21] END_EVENT
 73: 0x01A6 [0x00] END_REQSTACK()
```

#### Data or dead code:

```
# Dead code (unreachable instructions):
     0x0149 [0x01] GOTO 0x014C
# Dead code (unreachable instructions):
     0x01A2 [0x01] GOTO 0x01A5
```

### Event 494

#### Metadata

| Field        | Value     |
|--------------|-----------|
| Entrypoint   | 0x01A7    |
| Data Size    | 122 bytes |
| Instructions | 25        |

```
      00 01 02 03 04 05 06 07  08 09 0A 0B 0C 0D 0E 0F
      -- -- -- -- -- -- -- --  -- -- -- -- -- -- -- --
01A0:                      02  02 10 01 80 80 C6 01 03         .........
01B0: 02 10 07 80 03 03 10 0B  80 03 04 10 0C 80 03 05  ................
01C0: 10 0D 80 01 04 02 02 02  10 03 80 80 E5 01 03 02  ................
01D0: 10 08 80 03 03 10 0F 80  03 04 10 10 80 03 05 10  ................
01E0: 11 80 01 04 02 02 02 10  04 80 80 04 02 03 02 10  ................
01F0: 09 80 03 03 10 13 80 03  04 10 14 80 03 05 10 15  ................
0200: 80 01 04 02 1E F0 FF FF  7F 1C 00 80 66 01 80 F8  ............f...
0210: FF FF 7F F8 FF FF 7F 74  6C 6B 30 1D 1C 80 23 21  .......tlk0...#!
0220: 00                                                .               
```

#### Opcodes

```
  0: 0x01A7 [0x02] IF !(Work_Zone[2] == 0*) GOTO 0x01C6
  1: 0x01AF [0x03] Work_Zone[2] = 16138*
  2: 0x01B4 [0x03] Work_Zone[3] = 2340*
  3: 0x01B9 [0x03] Work_Zone[4] = 2010*
  4: 0x01BE [0x03] Work_Zone[5] = 1991*
  5: 0x01C3 [0x01] GOTO 0x0204
  6: 0x01C6 [0x02] IF !(Work_Zone[2] == 1*) GOTO 0x01E5
  7: 0x01CE [0x03] Work_Zone[2] = 15002*
  8: 0x01D3 [0x03] Work_Zone[3] = 2288*
  9: 0x01D8 [0x03] Work_Zone[4] = 830*
 10: 0x01DD [0x03] Work_Zone[5] = 1996*
 11: 0x01E2 [0x01] GOTO 0x0204
 12: 0x01E5 [0x02] IF !(Work_Zone[2] == 2*) GOTO 0x0204
 13: 0x01ED [0x03] Work_Zone[2] = 15746*
 14: 0x01F2 [0x03] Work_Zone[3] = 2289*
 15: 0x01F7 [0x03] Work_Zone[4] = 1636*
 16: 0x01FC [0x03] Work_Zone[5] = 1999*
 17: 0x0201 [0x01] GOTO 0x0204

SUBROUTINE_0204:
 18: 0x0204 [0x1E] EventEntity looks at LocalPlayer and starts talking
 19: 0x0209 [0x1C] WAIT(30* ticks)
 20: 0x020C [0x66] LOAD_EXT_SCHEDULER_MAIN: Load scheduler "tlk0" with entities [EventEntity, EventEntity], work=0*
 21: 0x021B [0x1D] PRINT_EVENT_MESSAGE(message_id=12441*)
    → "In order to make $0, I need $1, $2, and $3."
 22: 0x021E [0x23] WAIT_FOR_DIALOG_INTERACTION
 23: 0x021F [0x21] END_EVENT
 24: 0x0220 [0x00] END_REQSTACK()
```

### Event 495

#### Metadata

| Field        | Value     |
|--------------|-----------|
| Entrypoint   | 0x0221    |
| Data Size    | 127 bytes |
| Instructions | 28        |

```
      00 01 02 03 04 05 06 07  08 09 0A 0B 0C 0D 0E 0F
      -- -- -- -- -- -- -- --  -- -- -- -- -- -- -- --
0220:    42 02 02 10 01 80 80  41 02 03 02 10 0B 80 03   B......A.......
0230: 03 10 0C 80 03 04 10 0D  80 03 05 10 07 80 01 7F  ................
0240: 02 02 02 10 03 80 80 60  02 03 02 10 0F 80 03 03  .......`........
0250: 10 10 80 03 04 10 11 80  03 05 10 08 80 01 7F 02  ................
0260: 02 02 10 04 80 80 7F 02  03 02 10 13 80 03 03 10  ................
0270: 14 80 03 04 10 15 80 03  05 10 09 80 01 7F 02 1E  ................
0280: F0 FF FF 7F 1C 00 80 66  01 80 F8 FF FF 7F F8 FF  .......f........
0290: FF 7F 74 6C 6B 30 1D 1D  80 23 1D 1E 80 23 21 00  ..tlk0...#...#!.
```

#### Opcodes

```
  0: 0x0221 [0x42] SET_CLI_EVENT_CANCEL_DATA()
  1: 0x0222 [0x02] IF !(Work_Zone[2] == 0*) GOTO 0x0241
  2: 0x022A [0x03] Work_Zone[2] = 2340*
  3: 0x022F [0x03] Work_Zone[3] = 2010*
  4: 0x0234 [0x03] Work_Zone[4] = 1991*
  5: 0x0239 [0x03] Work_Zone[5] = 16138*
  6: 0x023E [0x01] GOTO 0x027F
  7: 0x0241 [0x02] IF !(Work_Zone[2] == 1*) GOTO 0x0260
  8: 0x0249 [0x03] Work_Zone[2] = 2288*
  9: 0x024E [0x03] Work_Zone[3] = 830*
 10: 0x0253 [0x03] Work_Zone[4] = 1996*
 11: 0x0258 [0x03] Work_Zone[5] = 15002*
 12: 0x025D [0x01] GOTO 0x027F
 13: 0x0260 [0x02] IF !(Work_Zone[2] == 2*) GOTO 0x027F
 14: 0x0268 [0x03] Work_Zone[2] = 2289*
 15: 0x026D [0x03] Work_Zone[3] = 1636*
 16: 0x0272 [0x03] Work_Zone[4] = 1999*
 17: 0x0277 [0x03] Work_Zone[5] = 15746*
 18: 0x027C [0x01] GOTO 0x027F

SUBROUTINE_027F:
 19: 0x027F [0x1E] EventEntity looks at LocalPlayer and starts talking
 20: 0x0284 [0x1C] WAIT(30* ticks)
 21: 0x0287 [0x66] LOAD_EXT_SCHEDULER_MAIN: Load scheduler "tlk0" with entities [EventEntity, EventEntity], work=0*
 22: 0x0296 [0x1D] PRINT_EVENT_MESSAGE(message_id=12442*)
    → "Let's take a look at what you brought me... $0, $1, and $2. Good! They're exactly what I need to make $3."
 23: 0x0299 [0x23] WAIT_FOR_DIALOG_INTERACTION
 24: 0x029A [0x1D] PRINT_EVENT_MESSAGE(message_id=12443*)
    → "I'll start working on it right away. This will take time, so please come back later."
 25: 0x029D [0x23] WAIT_FOR_DIALOG_INTERACTION
 26: 0x029E [0x21] END_EVENT
 27: 0x029F [0x00] END_REQSTACK()
```

### Event 496

#### Metadata

| Field        | Value    |
|--------------|----------|
| Entrypoint   | 0x02A0   |
| Data Size    | 29 bytes |
| Instructions | 7        |

```
      00 01 02 03 04 05 06 07  08 09 0A 0B 0C 0D 0E 0F
      -- -- -- -- -- -- -- --  -- -- -- -- -- -- -- --
02A0: 1E F0 FF FF 7F 1C 00 80  66 01 80 F8 FF FF 7F F8  ........f.......
02B0: FF FF 7F 74 6C 6B 30 1D  1F 80 23 21 00           ...tlk0...#!.   
```

#### Opcodes

```
  0: 0x02A0 [0x1E] EventEntity looks at LocalPlayer and starts talking
  1: 0x02A5 [0x1C] WAIT(30* ticks)
  2: 0x02A8 [0x66] LOAD_EXT_SCHEDULER_MAIN: Load scheduler "tlk0" with entities [EventEntity, EventEntity], work=0*
  3: 0x02B7 [0x1D] PRINT_EVENT_MESSAGE(message_id=12444*)
    → "I'm working as fast as I can, but it will take a bit more time. "Good things come to those who wait," right?"
  4: 0x02BA [0x23] WAIT_FOR_DIALOG_INTERACTION
  5: 0x02BB [0x21] END_EVENT
  6: 0x02BC [0x00] END_REQSTACK()
```

### Event 497

#### Metadata

| Field        | Value   |
|--------------|---------|
| Entrypoint   | 0x02BD  |
| Data Size    | 1 bytes |
| Instructions | 1       |

```
      00 01 02 03 04 05 06 07  08 09 0A 0B 0C 0D 0E 0F
      -- -- -- -- -- -- -- --  -- -- -- -- -- -- -- --
02B0:                                         00                     .  
```

#### Opcodes

```
  0: 0x02BD [0x00] END_REQSTACK()
```

### Event 498

#### Metadata

| Field        | Value    |
|--------------|----------|
| Entrypoint   | 0x02BE   |
| Data Size    | 29 bytes |
| Instructions | 7        |

```
      00 01 02 03 04 05 06 07  08 09 0A 0B 0C 0D 0E 0F
      -- -- -- -- -- -- -- --  -- -- -- -- -- -- -- --
02B0:                                            1E F0                ..
02C0: FF FF 7F 1C 00 80 66 01  80 F8 FF FF 7F F8 FF FF  ......f.........
02D0: 7F 74 6C 6B 30 1D 20 80  23 21 00                 .tlk0. .#!.     
```

#### Opcodes

```
  0: 0x02BE [0x1E] EventEntity looks at LocalPlayer and starts talking
  1: 0x02C3 [0x1C] WAIT(30* ticks)
  2: 0x02C6 [0x66] LOAD_EXT_SCHEDULER_MAIN: Load scheduler "tlk0" with entities [EventEntity, EventEntity], work=0*
  3: 0x02D5 [0x1D] PRINT_EVENT_MESSAGE(message_id=12455*)
    → "I'm afraid there's nothing else I can make for you. Please give my regards to Laila!"
  4: 0x02D8 [0x23] WAIT_FOR_DIALOG_INTERACTION
  5: 0x02D9 [0x21] END_EVENT
  6: 0x02DA [0x00] END_REQSTACK()
```

### Event 675

#### Metadata

| Field        | Value   |
|--------------|---------|
| Entrypoint   | 0x02DB  |
| Data Size    | 7 bytes |
| Instructions | 2       |

```
      00 01 02 03 04 05 06 07  08 09 0A 0B 0C 0D 0E 0F
      -- -- -- -- -- -- -- --  -- -- -- -- -- -- -- --
02D0:                                   92 01 F8 FF FF             .....
02E0: 7F 00                                             ..              
```

#### Opcodes

```
  0: 0x02DB [0x92] EventEntity->Render.Flags3 ^= 0x01
  1: 0x02E1 [0x00] END_REQSTACK()
```

### Event 676

#### Metadata

| Field        | Value   |
|--------------|---------|
| Entrypoint   | 0x02E2  |
| Data Size    | 7 bytes |
| Instructions | 2       |

```
      00 01 02 03 04 05 06 07  08 09 0A 0B 0C 0D 0E 0F
      -- -- -- -- -- -- -- --  -- -- -- -- -- -- -- --
02E0:       92 01 F8 FF FF 7F  00                         .......       
```

#### Opcodes

```
  0: 0x02E2 [0x92] EventEntity->Render.Flags3 ^= 0x01
  1: 0x02E8 [0x00] END_REQSTACK()
```

### Event 678

#### Metadata

| Field        | Value   |
|--------------|---------|
| Entrypoint   | 0x02E9  |
| Data Size    | 7 bytes |
| Instructions | 2       |

```
      00 01 02 03 04 05 06 07  08 09 0A 0B 0C 0D 0E 0F
      -- -- -- -- -- -- -- --  -- -- -- -- -- -- -- --
02E0:                             92 01 F8 FF FF 7F 00           .......
```

#### Opcodes

```
  0: 0x02E9 [0x92] EventEntity->Render.Flags3 ^= 0x01
  1: 0x02EF [0x00] END_REQSTACK()
```
