# 17739926 - Shamarhaan

## Common Data

| Field            | Value                    |
|------------------|--------------------------|
| Zone             | Bastok Markets (ID: 235) |
| Block Size       | 1380 bytes               |
| Total Events     | 15                       |
| References Count | 59                       |

## List of Events

| Event ID                 | Entrypoint   |   Size |   Instructions |
|--------------------------|--------------|--------|----------------|
| [65535](#event-65535)    | 0x0000       |      1 |              1 |
| [433](#event-433)        | 0x0001       |     14 |              6 |
| [434](#event-434)        | 0x000F       |    862 |            113 |
| [435](#event-435)        | 0x036D       |     11 |              5 |
| [436](#event-436)        | 0x0378       |     19 |              7 |
| [65535.1](#event-655351) | 0x038B       |     15 |              3 |
| [65535.2](#event-655352) | 0x039A       |     14 |              4 |
| [437](#event-437)        | 0x03A8       |      1 |              1 |
| [438](#event-438)        | 0x03A9       |     33 |             11 |
| [439](#event-439)        | 0x03CA       |      1 |              1 |
| [440](#event-440)        | 0x03CB       |     18 |              8 |
| [441](#event-441)        | 0x03DD       |      1 |              1 |
| [442](#event-442)        | 0x03DE       |     16 |              6 |
| [443](#event-443)        | 0x03EE       |     50 |             16 |
| [444](#event-444)        | 0x0420       |     11 |              5 |

## DAT References (imed_data)

|   Index | Hex Value   |   Dec Value |
|---------|-------------|-------------|
|       0 | 0x2545      |        9541 |
|       1 | 0x2546      |        9542 |
|       2 | 0x00C8      |         200 |
|       3 | 0x0000      |           0 |
|       4 | 0x0013      |          19 |
|       5 | 0x001E      |          30 |
|       6 | 0x0352      |         850 |
|       7 | 0x0050      |          80 |
|       8 | 0x003C      |          60 |
|       9 | 0x000A      |          10 |
|      10 | 0x010B      |         267 |
|      11 | 0x012C      |         300 |
|      12 | 0x2547      |        9543 |
|      13 | 0x005A      |          90 |
|      14 | 0x0003      |           3 |
|      15 | 0x001D      |          29 |
|      16 | 0x2548      |        9544 |
|      17 | 0x2549      |        9545 |
|      18 | 0x254A      |        9546 |
|      19 | 0x254B      |        9547 |
|      20 | 0x254C      |        9548 |
|      21 | 0x254D      |        9549 |
|      22 | 0x254E      |        9550 |
|      23 | 0x254F      |        9551 |
|      24 | 0x2550      |        9552 |
|      25 | 0x2551      |        9553 |
|      26 | 0x2552      |        9554 |
|      27 | 0x2553      |        9555 |
|      28 | 0x2554      |        9556 |
|      29 | 0x2555      |        9557 |
|      30 | 0x2556      |        9558 |
|      31 | 0x007F      |         127 |
|      32 | 0x2557      |        9559 |
|      33 | 0x2558      |        9560 |
|      34 | 0x2559      |        9561 |
|      35 | 0xFFFB96A8  |  4294678184 |
|      36 | 0xFFFEBE8A  |  4294885002 |
|      37 | 0xFFFFD10B  |  4294955275 |
|      38 | 0x0414      |        1044 |
|      39 | 0x000D      |          13 |
|      40 | 0xFFFBA0EE  |  4294680814 |
|      41 | 0xFFFEB419  |  4294882329 |
|      42 | 0x034B      |         843 |
|      43 | 0x034C      |         844 |
|      44 | 0x2568      |        9576 |
|      45 | 0x2569      |        9577 |
|      46 | 0x2570      |        9584 |
|      47 | 0x25E1      |        9697 |
|      48 | 0x25E2      |        9698 |
|      49 | 0x25E3      |        9699 |
|      50 | 0x091D      |        2333 |
|      51 | 0x25EB      |        9707 |
|      52 | 0x25EC      |        9708 |
|      53 | 0x25ED      |        9709 |
|      54 | 0x25EE      |        9710 |
|      55 | 0x25EF      |        9711 |
|      56 | 0x0001      |           1 |
|      57 | 0x0078      |         120 |
|      58 | 0x25F0      |        9712 |

## String References

- **9541**: ...
- **9544**: Looks like he's taken a liking to you!
- **9545**: This little guy's name is Valkeng. What do you say, Val?
- **9547**: Ha ha, isn't he just the cutest thing?
- **9548**: But to tell the truth, it's only because I made him that way. I'm not sure if you noticed, but I was controlling his every movement!
- **9549**: "Puppets" like him are called automatons. They can do all sorts of things, but it all depends on the handler's skill.
- **9550**: I make my living entertaining people this way.
- **9551**: People who can control and customize automatons are referred to as "puppetmasters" in the Near East.
- **9552**: You say you'd like to give it a try yourself?
- **9553**: Ha ha, I'm afraid you've got to be a puppetmaster for that.
- **9554**: Eh? You want to be a puppetmaster, do you? Quite the hasty one, aren't we?
- **9555**: Well, if I had time, I'd be glad to teach you the ropes, but I can't make a living staying in the same town for months on end, now can I?
- **9556**: Ah, I have the perfect solution! You should meet with my pupil, Iruki-Waraki. I've taught him everything I know.
- **9557**: Not only that, but he's currently the most acclaimed puppeteer in Vana'diel! You should be able to find him entertaining the folk in Aht Urhgan Whitegate with his automaton.
- **9558**: He has grown far better than I. You really must witness his expertise before learning how to control an automaton yourself.
- **9559**: If you really want to become a puppetmaster, I advise speaking to Iruki-Waraki in Aht Urhgan Whitegate.
- **9560**: Puppeteering can be challenging, but don't let that get you down!
- **9576**: If you want to prove that you're worthy, take $3 and go to Talacca Cove on the Arrapago Islands.
- **9577**: Ah, but before that you'll also need a $3. The Trolls used to use them during construction, so you might be able to find one on Mount Zhayolm.
- **9697**: You should go back to Iruki-Waraki now.
- **9698**: Cheer him up for me, will you?
- **9707**: Find $0 and bring it to me. I will determine myself whether or not you can manage such power.
- **9708**: It looks like you are ready.
- **9709**: We will meet where the Trolls punish their prisoners...the Navukgo Execution Chamber. There, you will do battle with me.
- **9710**: When you arrive, use this $0 to enter the battlefield.
- **9711**: You must prepare yourself first. I will go on ahead.
- **9712**: May we both grow in our trade.

## Events

### Event 65535

#### Metadata

| Field        | Value   |
|--------------|---------|
| Entrypoint   | 0x0000  |
| Data Size    | 1 bytes |
| Instructions | 1       |

```
      00 01 02 03 04 05 06 07  08 09 0A 0B 0C 0D 0E 0F
      -- -- -- -- -- -- -- --  -- -- -- -- -- -- -- --
0000: 00                                                .               
```

#### Opcodes

```
  0: 0x0000 [0x00] END_REQSTACK()
```

### Event 433

#### Metadata

| Field        | Value    |
|--------------|----------|
| Entrypoint   | 0x0001   |
| Data Size    | 14 bytes |
| Instructions | 6        |

```
      00 01 02 03 04 05 06 07  08 09 0A 0B 0C 0D 0E 0F
      -- -- -- -- -- -- -- --  -- -- -- -- -- -- -- --
0000:    1D 00 80 23 2B 97 B0  0E 01 01 80 23 21 00      ...#+......#!. 
```

#### Opcodes

```
  0: 0x0001 [0x1D] PRINT_EVENT_MESSAGE(message_id=9541*)
    → "..."
  1: 0x0004 [0x23] WAIT_FOR_DIALOG_INTERACTION
  2: 0x0005 [0x2B] Valkeng (ID: 17739927/0x010EB097) [9542*]:
    → "Dancing now. Please observe."
  3: 0x000C [0x23] WAIT_FOR_DIALOG_INTERACTION
  4: 0x000D [0x21] END_EVENT
  5: 0x000E [0x00] END_REQSTACK()
```

### Event 434

#### Metadata

| Field        | Value     |
|--------------|-----------|
| Entrypoint   | 0x000F    |
| Data Size    | 862 bytes |
| Instructions | 113       |

```
      00 01 02 03 04 05 06 07  08 09 0A 0B 0C 0D 0E 0F
      -- -- -- -- -- -- -- --  -- -- -- -- -- -- -- --
0000:                                               42                 B
0010: 45 02 80 F8 FF FF 7F F8  FF FF 7F 66 64 6F 31 03  E..........fdo1.
0020: 80 55 02 80 F8 FF FF 7F  F8 FF FF 7F 66 64 6F 31  .U..........fdo1
0030: 46 01 38 04 80 92 01 96  B0 0E 01 80 F0 FF FF 7F  F.8.............
0040: 29 0A F0 FF FF 7F 23 4A  F0 FF FF 7F 97 B0 0E 01  ).....#J........
0050: 4A 96 B0 0E 01 F0 FF FF  7F 29 0A 97 B0 0E 01 05  J........)......
0060: 29 0A 97 B0 0E 01 07 1C  05 80 5B 06 80 97 B0 0E  ).........[.....
0070: 01 97 B0 0E 01 64 61 6E  30 53 97 B0 0E 01 97 B0  .....dan0S......
0080: 0E 01 64 61 6E 30 4A 97  B0 0E 01 F0 FF FF 7F 5D  ..dan0J........]
0090: 07 80 08 80 1C 09 80 45  0A 80 F0 FF FF 7F F0 FF  .......E........
00A0: FF 7F 6B 30 30 30 03 80  45 02 80 F8 FF FF 7F F8  ..k000..E.......
00B0: FF FF 7F 66 64 69 31 03  80 1C 0B 80 2B 97 B0 0E  ...fdi1.....+...
00C0: 01 0C 80 23 1C 0D 80 52  0A 80 F0 FF FF 7F F0 FF  ...#...R........
00D0: FF 7F 6B 30 30 30 1C 0E  80 6B 69 64 6C 30 97 B0  ..k000...kidl0..
00E0: 0E 01 45 0A 80 F0 FF FF  7F F0 FF FF 7F 6B 30 30  ..E..........k00
00F0: 32 03 80 7B 96 B0 0E 01  66 0F 80 F8 FF FF 7F F8  2..{....f.......
0100: FF FF 7F 74 6C 6B 30 53  F8 FF FF 7F F8 FF FF 7F  ...tlk0S........
0110: 74 6C 6B 30 1D 10 80 23  1D 11 80 23 66 0F 80 F8  tlk0...#...#f...
0120: FF FF 7F F8 FF FF 7F 74  6C 6B 31 53 F8 FF FF 7F  .......tlk1S....
0130: F8 FF FF 7F 74 6C 6B 31  52 0A 80 F0 FF FF 7F F0  ....tlk1R.......
0140: FF FF 7F 6B 30 30 32 45  0A 80 F0 FF FF 7F F0 FF  ...k002E........
0150: FF 7F 6B 30 30 33 03 80  27 0A 97 B0 0E 01 03 2B  ..k003..'......+
0160: 97 B0 0E 01 12 80 23 1C  08 80 66 0F 80 F8 FF FF  ......#...f.....
0170: 7F F8 FF FF 7F 74 6C 6B  30 1D 13 80 23 53 F8 FF  .....tlk0...#S..
0180: FF 7F F8 FF FF 7F 74 6C  6B 30 52 0A 80 F0 FF FF  ......tlk0R.....
0190: 7F F0 FF FF 7F 6B 30 30  33 45 0A 80 F0 FF FF 7F  .....k003E......
01A0: F0 FF FF 7F 6B 30 30 34  03 80 1C 08 80 1D 14 80  ....k004........
01B0: 23 1C 05 80 4A F0 FF FF  7F 96 B0 0E 01 1D 15 80  #...J...........
01C0: 23 66 0F 80 F8 FF FF 7F  F8 FF FF 7F 74 6C 6B 31  #f..........tlk1
01D0: 45 02 80 F8 FF FF 7F F8  FF FF 7F 6F 76 6C 32 03  E..........ovl2.
01E0: 80 52 0A 80 F0 FF FF 7F  F0 FF FF 7F 6B 30 30 34  .R..........k004
01F0: 45 0A 80 F0 FF FF 7F F0  FF FF 7F 6B 30 30 35 03  E..........k005.
0200: 80 1C 05 80 66 0F 80 F8  FF FF 7F F8 FF FF 7F 74  ....f..........t
0210: 77 61 30 1D 16 80 23 1D  17 80 23 1C 08 80 1D 18  wa0...#...#.....
0220: 80 23 66 0F 80 F8 FF FF  7F F8 FF FF 7F 74 77 61  .#f..........twa
0230: 31 52 0A 80 F0 FF FF 7F  F0 FF FF 7F 6B 30 30 35  1R..........k005
0240: 45 0A 80 F0 FF FF 7F F0  FF FF 7F 6B 30 30 39 03  E..........k009.
0250: 80 66 0F 80 F8 FF FF 7F  F8 FF FF 7F 74 6C 6B 30  .f..........tlk0
0260: 1D 19 80 23 1C 05 80 1D  1A 80 23 66 0F 80 F8 FF  ...#......#f....
0270: FF 7F F8 FF FF 7F 74 6C  6B 31 1C 08 80 66 0F 80  ......tlk1...f..
0280: 96 B0 0E 01 96 B0 0E 01  74 68 6B 31 1D 1B 80 23  ........thk1...#
0290: 1C 08 80 52 0A 80 F0 FF  FF 7F F0 FF FF 7F 6B 30  ...R..........k0
02A0: 30 39 45 0A 80 F0 FF FF  7F F0 FF FF 7F 6B 30 30  09E..........k00
02B0: 36 03 80 1C 08 80 66 0F  80 96 B0 0E 01 96 B0 0E  6.....f.........
02C0: 01 74 68 6B 32 1D 1C 80  23 1D 1D 80 23 52 0A 80  .thk2...#...#R..
02D0: F0 FF FF 7F F0 FF FF 7F  6B 30 30 36 45 0A 80 F0  ........k006E...
02E0: FF FF 7F F0 FF FF 7F 6B  30 30 38 03 80 1C 08 80  .......k008.....
02F0: 27 0A 97 B0 0E 01 03 66  0F 80 F8 FF FF 7F F8 FF  '......f........
0300: FF 7F 74 77 62 30 1D 1E  80 23 1C 05 80 27 0A 97  ..twb0...#...'..
0310: B0 0E 01 03 5D 1F 80 0D  80 1C 08 80 45 02 80 F8  ....].......E...
0320: FF FF 7F F8 FF FF 7F 66  64 6F 31 03 80 55 02 80  .......fdo1..U..
0330: F8 FF FF 7F F8 FF FF 7F  66 64 6F 31 1C 05 80 52  ........fdo1...R
0340: 0A 80 F0 FF FF 7F F0 FF  FF 7F 6B 30 30 38 29 0A  ..........k008).
0350: 97 B0 0E 01 06 1C 09 80  46 00 45 02 80 F8 FF FF  ........F.E.....
0360: 7F F8 FF FF 7F 66 64 69  31 03 80 21 00           .....fdi1..!.   
```

#### Opcodes

```
  0: 0x000F [0x42] SET_CLI_EVENT_CANCEL_DATA()
  1: 0x0010 [0x45] LOAD_SCHEDULED_TASK: Load scheduler "fdo1" with entities [EventEntity, EventEntity], work=[200*, 0*]
  2: 0x0021 [0x55] WAIT_LOAD_SCHEDULER: Wait for scheduler "fdo1" with entities [EventEntity, EventEntity], work=200*
  3: 0x0030 [0x46] CAMERA_CONTROL: Disable user control
  4: 0x0032 [0x38] SET_CLIENT_EVENT_MODE(mode=19*)
  5: 0x0035 [0x92] Shamarhaan (ID: 17739926/0x010EB096)->Render.Flags3 ^= 0x01
  6: 0x003B [0x80] LOAD_WAIT(entity=LocalPlayer)
  7: 0x0040 [0x29] REQ_SET_WAIT(priority=0x0A, entity_id=LocalPlayer, tag_num=0x23)
  8: 0x0047 [0x4A] LocalPlayer looks at Valkeng (ID: 17739927/0x010EB097)
  9: 0x0050 [0x4A] Shamarhaan (ID: 17739926/0x010EB096) looks at LocalPlayer
 10: 0x0059 [0x29] REQ_SET_WAIT(priority=0x0A, entity_id=Valkeng (ID: 17739927/0x010EB097), tag_num=0x05)
 11: 0x0060 [0x29] REQ_SET_WAIT(priority=0x0A, entity_id=Valkeng (ID: 17739927/0x010EB097), tag_num=0x07)
 12: 0x0067 [0x1C] WAIT(30* ticks)
 13: 0x006A [0x5B] LOAD_EXT_SCHEDULER: Load scheduler "dan0" with entities [Valkeng (ID: 17739927/0x010EB097), Valkeng (ID: 17739927/0x010EB097)], work=850*
 14: 0x0079 [0x53] WAIT_SCHEDULER_TASK: Wait for scheduler "dan0" with entities [Valkeng (ID: 17739927/0x010EB097), Valkeng (ID: 17739927/0x010EB097)]
 15: 0x0086 [0x4A] Valkeng (ID: 17739927/0x010EB097) looks at LocalPlayer
 16: 0x008F [0x5D] SET_MUSIC_VOLUME(volume=80*, fade_time=60*)
 17: 0x0094 [0x1C] WAIT(10* ticks)
 18: 0x0097 [0x45] LOAD_SCHEDULED_TASK: Load scheduler "k000" with entities [LocalPlayer, LocalPlayer], work=[267*, 0*]
 19: 0x00A8 [0x45] LOAD_SCHEDULED_TASK: Load scheduler "fdi1" with entities [EventEntity, EventEntity], work=[200*, 0*]
 20: 0x00B9 [0x1C] WAIT(300* ticks)
 21: 0x00BC [0x2B] Valkeng (ID: 17739927/0x010EB097) [9543*]:
    → "Would like to join in dance?"
 22: 0x00C3 [0x23] WAIT_FOR_DIALOG_INTERACTION
 23: 0x00C4 [0x1C] WAIT(90* ticks)
 24: 0x00C7 [0x52] END_LOAD_SCHEDULER: End scheduler "k000" with entities [LocalPlayer, LocalPlayer], work=267*
 25: 0x00D6 [0x1C] WAIT(3* ticks)
 26: 0x00D9 [0x6B] STOP_AND_IDLE: Valkeng (ID: 17739927/0x010EB097) stops current action and resets to idle (animation="idl0")
 27: 0x00E2 [0x45] LOAD_SCHEDULED_TASK: Load scheduler "k002" with entities [LocalPlayer, LocalPlayer], work=[267*, 0*]
 28: 0x00F3 [0x7B] Shamarhaan (ID: 17739926/0x010EB096) stops talking
 29: 0x00F8 [0x66] LOAD_EXT_SCHEDULER_MAIN: Load scheduler "tlk0" with entities [EventEntity, EventEntity], work=29*
 30: 0x0107 [0x53] WAIT_SCHEDULER_TASK: Wait for scheduler "tlk0" with entities [EventEntity, EventEntity]
 31: 0x0114 [0x1D] PRINT_EVENT_MESSAGE(message_id=9544*)
    → "Looks like he's taken a liking to you!"
 32: 0x0117 [0x23] WAIT_FOR_DIALOG_INTERACTION
 33: 0x0118 [0x1D] PRINT_EVENT_MESSAGE(message_id=9545*)
    → "This little guy's name is Valkeng. What do you say, Val?"
 34: 0x011B [0x23] WAIT_FOR_DIALOG_INTERACTION
 35: 0x011C [0x66] LOAD_EXT_SCHEDULER_MAIN: Load scheduler "tlk1" with entities [EventEntity, EventEntity], work=29*
 36: 0x012B [0x53] WAIT_SCHEDULER_TASK: Wait for scheduler "tlk1" with entities [EventEntity, EventEntity]
 37: 0x0138 [0x52] END_LOAD_SCHEDULER: End scheduler "k002" with entities [LocalPlayer, LocalPlayer], work=267*
 38: 0x0147 [0x45] LOAD_SCHEDULED_TASK: Load scheduler "k003" with entities [LocalPlayer, LocalPlayer], work=[267*, 0*]
 39: 0x0158 [0x27] REQ_SET(priority=0x0A, entity_id=Valkeng (ID: 17739927/0x010EB097), tag_num=0x03)
 40: 0x015F [0x2B] Valkeng (ID: 17739927/0x010EB097) [9546*]:
    → "Nice to meet kind [sir/lady]."
 41: 0x0166 [0x23] WAIT_FOR_DIALOG_INTERACTION
 42: 0x0167 [0x1C] WAIT(60* ticks)
 43: 0x016A [0x66] LOAD_EXT_SCHEDULER_MAIN: Load scheduler "tlk0" with entities [EventEntity, EventEntity], work=29*
 44: 0x0179 [0x1D] PRINT_EVENT_MESSAGE(message_id=9547*)
    → "Ha ha, isn't he just the cutest thing?"
 45: 0x017C [0x23] WAIT_FOR_DIALOG_INTERACTION
 46: 0x017D [0x53] WAIT_SCHEDULER_TASK: Wait for scheduler "tlk0" with entities [EventEntity, EventEntity]
 47: 0x018A [0x52] END_LOAD_SCHEDULER: End scheduler "k003" with entities [LocalPlayer, LocalPlayer], work=267*
 48: 0x0199 [0x45] LOAD_SCHEDULED_TASK: Load scheduler "k004" with entities [LocalPlayer, LocalPlayer], work=[267*, 0*]
 49: 0x01AA [0x1C] WAIT(60* ticks)
 50: 0x01AD [0x1D] PRINT_EVENT_MESSAGE(message_id=9548*)
    → "But to tell the truth, it's only because I made him that way. I'm not sure if you noticed, but I was controlling his every movement!"
 51: 0x01B0 [0x23] WAIT_FOR_DIALOG_INTERACTION
 52: 0x01B1 [0x1C] WAIT(30* ticks)
 53: 0x01B4 [0x4A] LocalPlayer looks at Shamarhaan (ID: 17739926/0x010EB096)
 54: 0x01BD [0x1D] PRINT_EVENT_MESSAGE(message_id=9549*)
    → ""Puppets" like him are called automatons. They can do all sorts of things, but it all depends on the handler's skill."
 55: 0x01C0 [0x23] WAIT_FOR_DIALOG_INTERACTION
 56: 0x01C1 [0x66] LOAD_EXT_SCHEDULER_MAIN: Load scheduler "tlk1" with entities [EventEntity, EventEntity], work=29*
 57: 0x01D0 [0x45] LOAD_SCHEDULED_TASK: Load scheduler "ovl2" with entities [EventEntity, EventEntity], work=[200*, 0*]
 58: 0x01E1 [0x52] END_LOAD_SCHEDULER: End scheduler "k004" with entities [LocalPlayer, LocalPlayer], work=267*
 59: 0x01F0 [0x45] LOAD_SCHEDULED_TASK: Load scheduler "k005" with entities [LocalPlayer, LocalPlayer], work=[267*, 0*]
 60: 0x0201 [0x1C] WAIT(30* ticks)
 61: 0x0204 [0x66] LOAD_EXT_SCHEDULER_MAIN: Load scheduler "twa0" with entities [EventEntity, EventEntity], work=29*
 62: 0x0213 [0x1D] PRINT_EVENT_MESSAGE(message_id=9550*)
    → "I make my living entertaining people this way."
 63: 0x0216 [0x23] WAIT_FOR_DIALOG_INTERACTION
 64: 0x0217 [0x1D] PRINT_EVENT_MESSAGE(message_id=9551*)
    → "People who can control and customize automatons are referred to as "puppetmasters" in the Near East."
 65: 0x021A [0x23] WAIT_FOR_DIALOG_INTERACTION
 66: 0x021B [0x1C] WAIT(60* ticks)
 67: 0x021E [0x1D] PRINT_EVENT_MESSAGE(message_id=9552*)
    → "You say you'd like to give it a try yourself?"
 68: 0x0221 [0x23] WAIT_FOR_DIALOG_INTERACTION
 69: 0x0222 [0x66] LOAD_EXT_SCHEDULER_MAIN: Load scheduler "twa1" with entities [EventEntity, EventEntity], work=29*
 70: 0x0231 [0x52] END_LOAD_SCHEDULER: End scheduler "k005" with entities [LocalPlayer, LocalPlayer], work=267*
 71: 0x0240 [0x45] LOAD_SCHEDULED_TASK: Load scheduler "k009" with entities [LocalPlayer, LocalPlayer], work=[267*, 0*]
 72: 0x0251 [0x66] LOAD_EXT_SCHEDULER_MAIN: Load scheduler "tlk0" with entities [EventEntity, EventEntity], work=29*
 73: 0x0260 [0x1D] PRINT_EVENT_MESSAGE(message_id=9553*)
    → "Ha ha, I'm afraid you've got to be a puppetmaster for that."
 74: 0x0263 [0x23] WAIT_FOR_DIALOG_INTERACTION
 75: 0x0264 [0x1C] WAIT(30* ticks)
 76: 0x0267 [0x1D] PRINT_EVENT_MESSAGE(message_id=9554*)
    → "Eh? You want to be a puppetmaster, do you? Quite the hasty one, aren't we?"
 77: 0x026A [0x23] WAIT_FOR_DIALOG_INTERACTION
 78: 0x026B [0x66] LOAD_EXT_SCHEDULER_MAIN: Load scheduler "tlk1" with entities [EventEntity, EventEntity], work=29*
 79: 0x027A [0x1C] WAIT(60* ticks)
 80: 0x027D [0x66] LOAD_EXT_SCHEDULER_MAIN: Load scheduler "thk1" with entities [Shamarhaan (ID: 17739926/0x010EB096), Shamarhaan (ID: 17739926/0x010EB096)], work=29*
 81: 0x028C [0x1D] PRINT_EVENT_MESSAGE(message_id=9555*)
    → "Well, if I had time, I'd be glad to teach you the ropes, but I can't make a living staying in the same town for months on end, now can I?"
 82: 0x028F [0x23] WAIT_FOR_DIALOG_INTERACTION
 83: 0x0290 [0x1C] WAIT(60* ticks)
 84: 0x0293 [0x52] END_LOAD_SCHEDULER: End scheduler "k009" with entities [LocalPlayer, LocalPlayer], work=267*
 85: 0x02A2 [0x45] LOAD_SCHEDULED_TASK: Load scheduler "k006" with entities [LocalPlayer, LocalPlayer], work=[267*, 0*]
 86: 0x02B3 [0x1C] WAIT(60* ticks)
 87: 0x02B6 [0x66] LOAD_EXT_SCHEDULER_MAIN: Load scheduler "thk2" with entities [Shamarhaan (ID: 17739926/0x010EB096), Shamarhaan (ID: 17739926/0x010EB096)], work=29*
 88: 0x02C5 [0x1D] PRINT_EVENT_MESSAGE(message_id=9556*)
    → "Ah, I have the perfect solution! You should meet with my pupil, Iruki-Waraki. I've taught him everything I know."
 89: 0x02C8 [0x23] WAIT_FOR_DIALOG_INTERACTION
 90: 0x02C9 [0x1D] PRINT_EVENT_MESSAGE(message_id=9557*)
    → "Not only that, but he's currently the most acclaimed puppeteer in Vana'diel! You should be able to find him entertaining the folk in Aht Urhgan Whitegate with his automaton."
 91: 0x02CC [0x23] WAIT_FOR_DIALOG_INTERACTION
 92: 0x02CD [0x52] END_LOAD_SCHEDULER: End scheduler "k006" with entities [LocalPlayer, LocalPlayer], work=267*
 93: 0x02DC [0x45] LOAD_SCHEDULED_TASK: Load scheduler "k008" with entities [LocalPlayer, LocalPlayer], work=[267*, 0*]
 94: 0x02ED [0x1C] WAIT(60* ticks)
 95: 0x02F0 [0x27] REQ_SET(priority=0x0A, entity_id=Valkeng (ID: 17739927/0x010EB097), tag_num=0x03)
 96: 0x02F7 [0x66] LOAD_EXT_SCHEDULER_MAIN: Load scheduler "twb0" with entities [EventEntity, EventEntity], work=29*
 97: 0x0306 [0x1D] PRINT_EVENT_MESSAGE(message_id=9558*)
    → "He has grown far better than I. You really must witness his expertise before learning how to control an automaton yourself."
 98: 0x0309 [0x23] WAIT_FOR_DIALOG_INTERACTION
 99: 0x030A [0x1C] WAIT(30* ticks)
100: 0x030D [0x27] REQ_SET(priority=0x0A, entity_id=Valkeng (ID: 17739927/0x010EB097), tag_num=0x03)
101: 0x0314 [0x5D] SET_MUSIC_VOLUME(volume=127*, fade_time=90*)
102: 0x0319 [0x1C] WAIT(60* ticks)
103: 0x031C [0x45] LOAD_SCHEDULED_TASK: Load scheduler "fdo1" with entities [EventEntity, EventEntity], work=[200*, 0*]
104: 0x032D [0x55] WAIT_LOAD_SCHEDULER: Wait for scheduler "fdo1" with entities [EventEntity, EventEntity], work=200*
105: 0x033C [0x1C] WAIT(30* ticks)
106: 0x033F [0x52] END_LOAD_SCHEDULER: End scheduler "k008" with entities [LocalPlayer, LocalPlayer], work=267*
107: 0x034E [0x29] REQ_SET_WAIT(priority=0x0A, entity_id=Valkeng (ID: 17739927/0x010EB097), tag_num=0x06)
108: 0x0355 [0x1C] WAIT(10* ticks)
109: 0x0358 [0x46] CAMERA_CONTROL: Restore default settings
110: 0x035A [0x45] LOAD_SCHEDULED_TASK: Load scheduler "fdi1" with entities [EventEntity, EventEntity], work=[200*, 0*]
111: 0x036B [0x21] END_EVENT
112: 0x036C [0x00] END_REQSTACK()
```

### Event 435

#### Metadata

| Field        | Value    |
|--------------|----------|
| Entrypoint   | 0x036D   |
| Data Size    | 11 bytes |
| Instructions | 5        |

```
      00 01 02 03 04 05 06 07  08 09 0A 0B 0C 0D 0E 0F
      -- -- -- -- -- -- -- --  -- -- -- -- -- -- -- --
0360:                                         1E F0 FF               ...
0370: FF 7F 1D 20 80 23 21 00                           ... .#!.        
```

#### Opcodes

```
  0: 0x036D [0x1E] EventEntity looks at LocalPlayer and starts talking
  1: 0x0372 [0x1D] PRINT_EVENT_MESSAGE(message_id=9559*)
    → "If you really want to become a puppetmaster, I advise speaking to Iruki-Waraki in Aht Urhgan Whitegate."
  2: 0x0375 [0x23] WAIT_FOR_DIALOG_INTERACTION
  3: 0x0376 [0x21] END_EVENT
  4: 0x0377 [0x00] END_REQSTACK()
```

### Event 436

#### Metadata

| Field        | Value    |
|--------------|----------|
| Entrypoint   | 0x0378   |
| Data Size    | 19 bytes |
| Instructions | 7        |

```
      00 01 02 03 04 05 06 07  08 09 0A 0B 0C 0D 0E 0F
      -- -- -- -- -- -- -- --  -- -- -- -- -- -- -- --
0370:                          1E F0 FF FF 7F 1D 21 80          ......!.
0380: 23 2B 97 B0 0E 01 22 80  23 21 00                 #+....".#!.     
```

#### Opcodes

```
  0: 0x0378 [0x1E] EventEntity looks at LocalPlayer and starts talking
  1: 0x037D [0x1D] PRINT_EVENT_MESSAGE(message_id=9560*)
    → "Puppeteering can be challenging, but don't let that get you down!"
  2: 0x0380 [0x23] WAIT_FOR_DIALOG_INTERACTION
  3: 0x0381 [0x2B] Valkeng (ID: 17739927/0x010EB097) [9561*]:
    → "Good luck!"
  4: 0x0388 [0x23] WAIT_FOR_DIALOG_INTERACTION
  5: 0x0389 [0x21] END_EVENT
  6: 0x038A [0x00] END_REQSTACK()
```

### Event 65535.1

#### Metadata

| Field        | Value    |
|--------------|----------|
| Entrypoint   | 0x038B   |
| Data Size    | 15 bytes |
| Instructions | 3        |

```
      00 01 02 03 04 05 06 07  08 09 0A 0B 0C 0D 0E 0F
      -- -- -- -- -- -- -- --  -- -- -- -- -- -- -- --
0380:                                   37 23 80 24 80             7#.$.
0390: 25 80 26 80 1E 97 B0 0E  01 00                    %.&.......      
```

#### Opcodes

```
  0: 0x038B [0x37] UPDATE_EVENT_POSITION_AND_DIR: x=-289.112*, z=-82.294*, y=-12.021*, direction=91.8°*
  1: 0x0394 [0x1E] EventEntity looks at Valkeng (ID: 17739927/0x010EB097) and starts talking
  2: 0x0399 [0x00] END_REQSTACK()
```

### Event 65535.2

#### Metadata

| Field        | Value    |
|--------------|----------|
| Entrypoint   | 0x039A   |
| Data Size    | 14 bytes |
| Instructions | 4        |

```
      00 01 02 03 04 05 06 07  08 09 0A 0B 0C 0D 0E 0F
      -- -- -- -- -- -- -- --  -- -- -- -- -- -- -- --
0390:                                32 27 80 1F 00 28            2'...(
03A0: 80 29 80 25 80 1F 01 00                           .).%....        
```

#### Opcodes

```
  0: 0x039A [0x32] ExtData[1]->MainSpeed = 13* * 0.1
  1: 0x039D [0x1F] MOVE_ENTITY: EventEntity moves to X=-286.482*, Z=-84.967*, Y=-12.021*
  2: 0x03A5 [0x1F] MOVE_ENTITY: Update entity position (mode=1)
  3: 0x03A7 [0x00] END_REQSTACK()
```

### Event 437

#### Metadata

| Field        | Value   |
|--------------|---------|
| Entrypoint   | 0x03A8  |
| Data Size    | 1 bytes |
| Instructions | 1       |

```
      00 01 02 03 04 05 06 07  08 09 0A 0B 0C 0D 0E 0F
      -- -- -- -- -- -- -- --  -- -- -- -- -- -- -- --
03A0:                          00                               .       
```

#### Opcodes

```
  0: 0x03A8 [0x00] END_REQSTACK()
```

### Event 438

#### Metadata

| Field        | Value    |
|--------------|----------|
| Entrypoint   | 0x03A9   |
| Data Size    | 33 bytes |
| Instructions | 11       |

```
      00 01 02 03 04 05 06 07  08 09 0A 0B 0C 0D 0E 0F
      -- -- -- -- -- -- -- --  -- -- -- -- -- -- -- --
03A0:                             1E F0 FF FF 7F 03 02           .......
03B0: 10 2A 80 03 03 10 2B 80  1D 2C 80 23 1D 2D 80 23  .*....+..,.#.-.#
03C0: 2B 97 B0 0E 01 2E 80 23  21 00                    +......#!.      
```

#### Opcodes

```
  0: 0x03A9 [0x1E] EventEntity looks at LocalPlayer and starts talking
  1: 0x03AE [0x03] Work_Zone[2] = 843*
  2: 0x03B3 [0x03] Work_Zone[3] = 844*
  3: 0x03B8 [0x1D] PRINT_EVENT_MESSAGE(message_id=9576*)
    → "If you want to prove that you're worthy, take $3 and go to Talacca Cove on the Arrapago Islands."
  4: 0x03BB [0x23] WAIT_FOR_DIALOG_INTERACTION
  5: 0x03BC [0x1D] PRINT_EVENT_MESSAGE(message_id=9577*)
    → "Ah, but before that you'll also need a $3. The Trolls used to use them during construction, so you might be able to find one on Mount Zhayolm."
  6: 0x03BF [0x23] WAIT_FOR_DIALOG_INTERACTION
  7: 0x03C0 [0x2B] Valkeng (ID: 17739927/0x010EB097) [9584*]:
    → "Good luck!"
  8: 0x03C7 [0x23] WAIT_FOR_DIALOG_INTERACTION
  9: 0x03C8 [0x21] END_EVENT
 10: 0x03C9 [0x00] END_REQSTACK()
```

### Event 439

#### Metadata

| Field        | Value   |
|--------------|---------|
| Entrypoint   | 0x03CA  |
| Data Size    | 1 bytes |
| Instructions | 1       |

```
      00 01 02 03 04 05 06 07  08 09 0A 0B 0C 0D 0E 0F
      -- -- -- -- -- -- -- --  -- -- -- -- -- -- -- --
03C0:                                00                           .     
```

#### Opcodes

```
  0: 0x03CA [0x00] END_REQSTACK()
```

### Event 440

#### Metadata

| Field        | Value    |
|--------------|----------|
| Entrypoint   | 0x03CB   |
| Data Size    | 18 bytes |
| Instructions | 8        |

```
      00 01 02 03 04 05 06 07  08 09 0A 0B 0C 0D 0E 0F
      -- -- -- -- -- -- -- --  -- -- -- -- -- -- -- --
03C0:                                   1D 2F 80 23 1D             ./.#.
03D0: 30 80 23 2B 97 B0 0E 01  31 80 23 21 00           0.#+....1.#!.   
```

#### Opcodes

```
  0: 0x03CB [0x1D] PRINT_EVENT_MESSAGE(message_id=9697*)
    → "You should go back to Iruki-Waraki now."
  1: 0x03CE [0x23] WAIT_FOR_DIALOG_INTERACTION
  2: 0x03CF [0x1D] PRINT_EVENT_MESSAGE(message_id=9698*)
    → "Cheer him up for me, will you?"
  3: 0x03D2 [0x23] WAIT_FOR_DIALOG_INTERACTION
  4: 0x03D3 [0x2B] Valkeng (ID: 17739927/0x010EB097) [9699*]:
    → "Cheer up Iruki!"
  5: 0x03DA [0x23] WAIT_FOR_DIALOG_INTERACTION
  6: 0x03DB [0x21] END_EVENT
  7: 0x03DC [0x00] END_REQSTACK()
```

### Event 441

#### Metadata

| Field        | Value   |
|--------------|---------|
| Entrypoint   | 0x03DD  |
| Data Size    | 1 bytes |
| Instructions | 1       |

```
      00 01 02 03 04 05 06 07  08 09 0A 0B 0C 0D 0E 0F
      -- -- -- -- -- -- -- --  -- -- -- -- -- -- -- --
03D0:                                         00                     .  
```

#### Opcodes

```
  0: 0x03DD [0x00] END_REQSTACK()
```

### Event 442

#### Metadata

| Field        | Value    |
|--------------|----------|
| Entrypoint   | 0x03DE   |
| Data Size    | 16 bytes |
| Instructions | 6        |

```
      00 01 02 03 04 05 06 07  08 09 0A 0B 0C 0D 0E 0F
      -- -- -- -- -- -- -- --  -- -- -- -- -- -- -- --
03D0:                                            1E F0                ..
03E0: FF FF 7F 03 02 10 32 80  1D 33 80 23 21 00        ......2..3.#!.  
```

#### Opcodes

```
  0: 0x03DE [0x1E] EventEntity looks at LocalPlayer and starts talking
  1: 0x03E3 [0x03] Work_Zone[2] = 2333*
  2: 0x03E8 [0x1D] PRINT_EVENT_MESSAGE(message_id=9707*)
    → "Find $0 and bring it to me. I will determine myself whether or not you can manage such power."
  3: 0x03EB [0x23] WAIT_FOR_DIALOG_INTERACTION
  4: 0x03EC [0x21] END_EVENT
  5: 0x03ED [0x00] END_REQSTACK()
```

### Event 443

#### Metadata

| Field        | Value    |
|--------------|----------|
| Entrypoint   | 0x03EE   |
| Data Size    | 50 bytes |
| Instructions | 16       |

```
      00 01 02 03 04 05 06 07  08 09 0A 0B 0C 0D 0E 0F
      -- -- -- -- -- -- -- --  -- -- -- -- -- -- -- --
03E0:                                            42 1E                B.
03F0: F0 FF FF 7F 03 02 10 32  80 1D 34 80 23 1D 35 80  .......2..4.#.5.
0400: 23 1D 36 80 23 1D 37 80  23 62 38 80 F0 FF FF 7F  #.6.#.7.#b8.....
0410: F0 FF FF 7F 6D 61 69 6E  03 80 1C 39 80 30 21 00  ....main...9.0!.
```

#### Opcodes

```
  0: 0x03EE [0x42] SET_CLI_EVENT_CANCEL_DATA()
  1: 0x03EF [0x1E] EventEntity looks at LocalPlayer and starts talking
  2: 0x03F4 [0x03] Work_Zone[2] = 2333*
  3: 0x03F9 [0x1D] PRINT_EVENT_MESSAGE(message_id=9708*)
    → "It looks like you are ready."
  4: 0x03FC [0x23] WAIT_FOR_DIALOG_INTERACTION
  5: 0x03FD [0x1D] PRINT_EVENT_MESSAGE(message_id=9709*)
    → "We will meet where the Trolls punish their prisoners...the Navukgo Execution Chamber. There, you will do battle with me."
  6: 0x0400 [0x23] WAIT_FOR_DIALOG_INTERACTION
  7: 0x0401 [0x1D] PRINT_EVENT_MESSAGE(message_id=9710*)
    → "When you arrive, use this $0 to enter the battlefield."
  8: 0x0404 [0x23] WAIT_FOR_DIALOG_INTERACTION
  9: 0x0405 [0x1D] PRINT_EVENT_MESSAGE(message_id=9711*)
    → "You must prepare yourself first. I will go on ahead."
 10: 0x0408 [0x23] WAIT_FOR_DIALOG_INTERACTION
 11: 0x0409 [0x62] LOAD_EVENT_SCHEDULER: Load scheduler "main" with entities [LocalPlayer, LocalPlayer], work=[1*, 0*]
 12: 0x041A [0x1C] WAIT(120* ticks)
 13: 0x041D [0x30] SET_UCOFF_CONTINUE_ZERO()
 14: 0x041E [0x21] END_EVENT
 15: 0x041F [0x00] END_REQSTACK()
```

### Event 444

#### Metadata

| Field        | Value    |
|--------------|----------|
| Entrypoint   | 0x0420   |
| Data Size    | 11 bytes |
| Instructions | 5        |

```
      00 01 02 03 04 05 06 07  08 09 0A 0B 0C 0D 0E 0F
      -- -- -- -- -- -- -- --  -- -- -- -- -- -- -- --
0420: 1E F0 FF FF 7F 1D 3A 80  23 21 00                 ......:.#!.     
```

#### Opcodes

```
  0: 0x0420 [0x1E] EventEntity looks at LocalPlayer and starts talking
  1: 0x0425 [0x1D] PRINT_EVENT_MESSAGE(message_id=9712*)
    → "May we both grow in our trade."
  2: 0x0428 [0x23] WAIT_FOR_DIALOG_INTERACTION
  3: 0x0429 [0x21] END_EVENT
  4: 0x042A [0x00] END_REQSTACK()
```
