# 17739787 - Valdemar

## Common Data

| Field            | Value                    |
|------------------|--------------------------|
| Zone             | Bastok Markets (ID: 235) |
| Block Size       | 204 bytes                |
| Total Events     | 6                        |
| References Count | 15                       |

## List of Events

| Event ID                 | Entrypoint   |   Size |   Instructions |
|--------------------------|--------------|--------|----------------|
| [65535](#event-65535)    | 0x0000       |      1 |              1 |
| [7](#event-7)            | 0x0001       |     12 |              3 |
| [65535.1](#event-655351) | 0x000D       |     21 |              6 |
| [65535.2](#event-655352) | 0x0022       |      6 |              2 |
| [65535.3](#event-655353) | 0x0028       |     43 |             10 |
| [65535.4](#event-655354) | 0x0053       |     19 |              5 |

## DAT References (imed_data)

|   Index | Hex Value   |   Dec Value |
|---------|-------------|-------------|
|       0 | 0xFFFBD450  |  4294693968 |
|       1 | 0xFFFE9A4E  |  4294875726 |
|       2 | 0xFFFFD098  |  4294955160 |
|       3 | 0x0735      |        1845 |
|       4 | 0x000D      |          13 |
|       5 | 0xFFFBC704  |  4294690564 |
|       6 | 0xFFFE9A20  |  4294875680 |
|       7 | 0x000A      |          10 |
|       8 | 0xFFFBC29E  |  4294689438 |
|       9 | 0xFFFE9A28  |  4294875688 |
|      10 | 0xFFFBC0C3  |  4294688963 |
|      11 | 0xFFFE99AC  |  4294875564 |
|      12 | 0xFFFBBA7A  |  4294687354 |
|      13 | 0xFFFE8184  |  4294869380 |
|      14 | 0xFFFFD121  |  4294955297 |

## Events

### Event 65535

#### Metadata

| Field        | Value   |
|--------------|---------|
| Entrypoint   | 0x0000  |
| Data Size    | 1 bytes |
| Instructions | 1       |

```
      00 01 02 03 04 05 06 07  08 09 0A 0B 0C 0D 0E 0F
      -- -- -- -- -- -- -- --  -- -- -- -- -- -- -- --
0000: 00                                                .               
```

#### Opcodes

```
  0: 0x0000 [0x00] END_REQSTACK()
```

### Event 7

#### Metadata

| Field        | Value    |
|--------------|----------|
| Entrypoint   | 0x0001   |
| Data Size    | 12 bytes |
| Instructions | 3        |

```
      00 01 02 03 04 05 06 07  08 09 0A 0B 0C 0D 0E 0F
      -- -- -- -- -- -- -- --  -- -- -- -- -- -- -- --
0000:    37 00 80 01 80 02 80  03 80 22 01 00            7........"..   
```

#### Opcodes

```
  0: 0x0001 [0x37] UPDATE_EVENT_POSITION_AND_DIR: x=-273.328*, z=-91.570*, y=-12.136*, direction=162.2°*
  1: 0x000A [0x22] ENTITY_HIDE_FLAG(enabled=0x01)
  2: 0x000C [0x00] END_REQSTACK()
```

### Event 65535.1

#### Metadata

| Field        | Value    |
|--------------|----------|
| Entrypoint   | 0x000D   |
| Data Size    | 21 bytes |
| Instructions | 6        |

```
      00 01 02 03 04 05 06 07  08 09 0A 0B 0C 0D 0E 0F
      -- -- -- -- -- -- -- --  -- -- -- -- -- -- -- --
0000:                                         22 00 32               ".2
0010: 04 80 1F 00 05 80 06 80  02 80 1F 01 1E 07 B0 0E  ................
0020: 01 00                                             ..              
```

#### Opcodes

```
  0: 0x000D [0x22] ENTITY_HIDE_FLAG(enabled=0x00)
  1: 0x000F [0x32] ExtData[1]->MainSpeed = 13* * 0.1
  2: 0x0012 [0x1F] MOVE_ENTITY: EventEntity moves to X=-276.732*, Z=-91.616*, Y=-12.136*
  3: 0x001A [0x1F] MOVE_ENTITY: Update entity position (mode=1)
  4: 0x001C [0x1E] EventEntity looks at Emrys (ID: 17739783/0x010EB007) and starts talking
  5: 0x0021 [0x00] END_REQSTACK()
```

### Event 65535.2

#### Metadata

| Field        | Value   |
|--------------|---------|
| Entrypoint   | 0x0022  |
| Data Size    | 6 bytes |
| Instructions | 2       |

```
      00 01 02 03 04 05 06 07  08 09 0A 0B 0C 0D 0E 0F
      -- -- -- -- -- -- -- --  -- -- -- -- -- -- -- --
0020:       5E 69 64 6C 65 00                             ^idle.        
```

#### Opcodes

```
  0: 0x0022 [0x5E] EventEntity goes idle (kills current action) (animation: "idle")
  1: 0x0027 [0x00] END_REQSTACK()
```

### Event 65535.3

#### Metadata

| Field        | Value    |
|--------------|----------|
| Entrypoint   | 0x0028   |
| Data Size    | 43 bytes |
| Instructions | 10       |

```
      00 01 02 03 04 05 06 07  08 09 0A 0B 0C 0D 0E 0F
      -- -- -- -- -- -- -- --  -- -- -- -- -- -- -- --
0020:                          7B F8 FF FF 7F 1C 07 80          {.......
0030: 32 04 80 1F 00 08 80 09  80 02 80 1F 01 79 00 F8  2............y..
0040: FF FF 7F F0 FF FF 7F 1F  00 0A 80 0B 80 02 80 1F  ................
0050: 01 6F 00                                          .o.             
```

#### Opcodes

```
  0: 0x0028 [0x7B] EventEntity stops talking
  1: 0x002D [0x1C] WAIT(10* ticks)
  2: 0x0030 [0x32] ExtData[1]->MainSpeed = 13* * 0.1
  3: 0x0033 [0x1F] MOVE_ENTITY: EventEntity moves to X=-277.858*, Z=-91.608*, Y=-12.136*
  4: 0x003B [0x1F] MOVE_ENTITY: Update entity position (mode=1)
  5: 0x003D [0x79] EventEntity looks at LocalPlayer (Basic look)
  6: 0x0047 [0x1F] MOVE_ENTITY: EventEntity moves to X=-278.333*, Z=-91.732*, Y=-12.136*
  7: 0x004F [0x1F] MOVE_ENTITY: Update entity position (mode=1)
  8: 0x0051 [0x6F] WAIT_FRAME_DELAY: Yield until WaitTime reaches zero
  9: 0x0052 [0x00] END_REQSTACK()
```

### Event 65535.4

#### Metadata

| Field        | Value    |
|--------------|----------|
| Entrypoint   | 0x0053   |
| Data Size    | 19 bytes |
| Instructions | 5        |

```
      00 01 02 03 04 05 06 07  08 09 0A 0B 0C 0D 0E 0F
      -- -- -- -- -- -- -- --  -- -- -- -- -- -- -- --
0050:          7B F8 FF FF 7F  32 04 80 1F 00 0C 80 0D     {....2.......
0060: 80 0E 80 1F 01 00                                 ......          
```

#### Opcodes

```
  0: 0x0053 [0x7B] EventEntity stops talking
  1: 0x0058 [0x32] ExtData[1]->MainSpeed = 13* * 0.1
  2: 0x005B [0x1F] MOVE_ENTITY: EventEntity moves to X=-279.942*, Z=-97.916*, Y=-11.999*
  3: 0x0063 [0x1F] MOVE_ENTITY: Update entity position (mode=1)
  4: 0x0065 [0x00] END_REQSTACK()
```
