# 17739939 - Gulldago

## Common Data

| Field            | Value                    |
|------------------|--------------------------|
| Zone             | Bastok Markets (ID: 235) |
| Block Size       | 3404 bytes               |
| Total Events     | 25                       |
| References Count | 176                      |

## List of Events

| Event ID              | Entrypoint   |   Size |   Instructions |
|-----------------------|--------------|--------|----------------|
| [65535](#event-65535) | 0x0000       |      9 |              3 |
| [536](#event-536)     | 0x0009       |     66 |             16 |
| [517](#event-517)     | 0x004B       |    278 |             36 |
| [518](#event-518)     | 0x0161       |     39 |             15 |
| [519](#event-519)     | 0x0188       |     37 |             13 |
| [520](#event-520)     | 0x01AD       |    257 |             59 |
| [521](#event-521)     | 0x02AE       |     11 |              5 |
| [522](#event-522)     | 0x02B9       |    122 |             36 |
| [523](#event-523)     | 0x0333       |     65 |             19 |
| [524](#event-524)     | 0x0374       |    318 |             82 |
| [525](#event-525)     | 0x04B2       |     15 |              7 |
| [526](#event-526)     | 0x04C1       |    133 |             37 |
| [527](#event-527)     | 0x0546       |    120 |             30 |
| [528](#event-528)     | 0x05BE       |    140 |             42 |
| [529](#event-529)     | 0x064A       |     27 |             13 |
| [530](#event-530)     | 0x0665       |     76 |             26 |
| [531](#event-531)     | 0x06B1       |     15 |              7 |
| [532](#event-532)     | 0x06C0       |    178 |             49 |
| [533](#event-533)     | 0x0772       |     79 |             24 |
| [534](#event-534)     | 0x07C1       |    143 |             37 |
| [535](#event-535)     | 0x0850       |    451 |            107 |
| [24](#event-24)       | 0x0A13       |      1 |              1 |
| [586](#event-586)     | 0x0A14       |      1 |              1 |
| [587](#event-587)     | 0x0A15       |      1 |              1 |
| [595](#event-595)     | 0x0A16       |      1 |              1 |

## DAT References (imed_data)

|   Index | Hex Value   |   Dec Value |
|---------|-------------|-------------|
|       0 | 0x0001      |           1 |
|       1 | 0x30D5      |       12501 |
|       2 | 0x30D7      |       12503 |
|       3 | 0x30D8      |       12504 |
|       4 | 0x30D9      |       12505 |
|       5 | 0x00C8      |         200 |
|       6 | 0x0000      |           0 |
|       7 | 0x0013      |          19 |
|       8 | 0xFFFA95D0  |  4294612432 |
|       9 | 0xFFFD56E6  |  4294792934 |
|      10 | 0xFFFFD8EE  |  4294957294 |
|      11 | 0x05F8      |        1528 |
|      12 | 0xFFFA83B1  |  4294607793 |
|      13 | 0xFFFD73DA  |  4294800346 |
|      14 | 0xFFFFD8DD  |  4294957277 |
|      15 | 0x02D4      |         724 |
|      16 | 0x000D      |          13 |
|      17 | 0x0152      |         338 |
|      18 | 0xFFFA8B6B  |  4294609771 |
|      19 | 0xFFFD6990  |  4294797712 |
|      20 | 0x001E      |          30 |
|      21 | 0x30DA      |       12506 |
|      22 | 0x0252      |         594 |
|      23 | 0x30DC      |       12508 |
|      24 | 0x30DE      |       12510 |
|      25 | 0x30DF      |       12511 |
|      26 | 0x30E0      |       12512 |
|      27 | 0x1118      |        4376 |
|      28 | 0x30E1      |       12513 |
|      29 | 0x30E2      |       12514 |
|      30 | 0x30E3      |       12515 |
|      31 | 0x30E4      |       12516 |
|      32 | 0x30E5      |       12517 |
|      33 | 0x30E6      |       12518 |
|      34 | 0x30E7      |       12519 |
|      35 | 0x0002      |           2 |
|      36 | 0x30E8      |       12520 |
|      37 | 0x30E9      |       12521 |
|      38 | 0x30EA      |       12522 |
|      39 | 0x30EB      |       12523 |
|      40 | 0x30EC      |       12524 |
|      41 | 0x30ED      |       12525 |
|      42 | 0x30EE      |       12526 |
|      43 | 0x30EF      |       12527 |
|      44 | 0x30F0      |       12528 |
|      45 | 0x30F1      |       12529 |
|      46 | 0x30F2      |       12530 |
|      47 | 0x30F3      |       12531 |
|      48 | 0x30F4      |       12532 |
|      49 | 0x30F5      |       12533 |
|      50 | 0x30F6      |       12534 |
|      51 | 0x30F7      |       12535 |
|      52 | 0x30F8      |       12536 |
|      53 | 0x30F9      |       12537 |
|      54 | 0x30FA      |       12538 |
|      55 | 0x0466      |        1126 |
|      56 | 0x30FB      |       12539 |
|      57 | 0x1003      |        4099 |
|      58 | 0x1000      |        4096 |
|      59 | 0x30FC      |       12540 |
|      60 | 0x30FD      |       12541 |
|      61 | 0x30FE      |       12542 |
|      62 | 0x039E      |         926 |
|      63 | 0x1112      |        4370 |
|      64 | 0x30FF      |       12543 |
|      65 | 0x3100      |       12544 |
|      66 | 0x3101      |       12545 |
|      67 | 0x3102      |       12546 |
|      68 | 0x3103      |       12547 |
|      69 | 0x3104      |       12548 |
|      70 | 0x3105      |       12549 |
|      71 | 0x3106      |       12550 |
|      72 | 0x3107      |       12551 |
|      73 | 0x3108      |       12552 |
|      74 | 0x3109      |       12553 |
|      75 | 0x310A      |       12554 |
|      76 | 0x310B      |       12555 |
|      77 | 0x310C      |       12556 |
|      78 | 0x3D91      |       15761 |
|      79 | 0x3D92      |       15762 |
|      80 | 0x3D93      |       15763 |
|      81 | 0x310D      |       12557 |
|      82 | 0x310E      |       12558 |
|      83 | 0x310F      |       12559 |
|      84 | 0x3110      |       12560 |
|      85 | 0x3111      |       12561 |
|      86 | 0x3112      |       12562 |
|      87 | 0x3113      |       12563 |
|      88 | 0x3114      |       12564 |
|      89 | 0x3115      |       12565 |
|      90 | 0x3116      |       12566 |
|      91 | 0x3117      |       12567 |
|      92 | 0x3E83      |       16003 |
|      93 | 0x3118      |       12568 |
|      94 | 0x3119      |       12569 |
|      95 | 0x311A      |       12570 |
|      96 | 0x311B      |       12571 |
|      97 | 0x311C      |       12572 |
|      98 | 0x311D      |       12573 |
|      99 | 0x311E      |       12574 |
|     100 | 0x311F      |       12575 |
|     101 | 0x3120      |       12576 |
|     102 | 0x3121      |       12577 |
|     103 | 0x3122      |       12578 |
|     104 | 0x3123      |       12579 |
|     105 | 0x3124      |       12580 |
|     106 | 0x3125      |       12581 |
|     107 | 0x3126      |       12582 |
|     108 | 0x3127      |       12583 |
|     109 | 0x3128      |       12584 |
|     110 | 0x3129      |       12585 |
|     111 | 0x312A      |       12586 |
|     112 | 0x312B      |       12587 |
|     113 | 0x312C      |       12588 |
|     114 | 0x312D      |       12589 |
|     115 | 0x312E      |       12590 |
|     116 | 0x312F      |       12591 |
|     117 | 0x3130      |       12592 |
|     118 | 0x3131      |       12593 |
|     119 | 0x3132      |       12594 |
|     120 | 0x3133      |       12595 |
|     121 | 0x3134      |       12596 |
|     122 | 0x3135      |       12597 |
|     123 | 0x3136      |       12598 |
|     124 | 0x0160      |         352 |
|     125 | 0x0161      |         353 |
|     126 | 0x0162      |         354 |
|     127 | 0x3137      |       12599 |
|     128 | 0x3138      |       12600 |
|     129 | 0x3139      |       12601 |
|     130 | 0x313A      |       12602 |
|     131 | 0x313B      |       12603 |
|     132 | 0x313C      |       12604 |
|     133 | 0x313D      |       12605 |
|     134 | 0x313E      |       12606 |
|     135 | 0x313F      |       12607 |
|     136 | 0x3140      |       12608 |
|     137 | 0x3141      |       12609 |
|     138 | 0x3142      |       12610 |
|     139 | 0x3143      |       12611 |
|     140 | 0x3144      |       12612 |
|     141 | 0x0008      |           8 |
|     142 | 0x3145      |       12613 |
|     143 | 0x3147      |       12615 |
|     144 | 0x3149      |       12617 |
|     145 | 0x314A      |       12618 |
|     146 | 0x314B      |       12619 |
|     147 | 0x314C      |       12620 |
|     148 | 0x314D      |       12621 |
|     149 | 0x314F      |       12623 |
|     150 | 0x3150      |       12624 |
|     151 | 0x3151      |       12625 |
|     152 | 0x3152      |       12626 |
|     153 | 0x3153      |       12627 |
|     154 | 0x3154      |       12628 |
|     155 | 0x3155      |       12629 |
|     156 | 0x3156      |       12630 |
|     157 | 0x3157      |       12631 |
|     158 | 0x0003      |           3 |
|     159 | 0x3158      |       12632 |
|     160 | 0x3159      |       12633 |
|     161 | 0x315A      |       12634 |
|     162 | 0x315B      |       12635 |
|     163 | 0x315C      |       12636 |
|     164 | 0x315D      |       12637 |
|     165 | 0x0004      |           4 |
|     166 | 0x315E      |       12638 |
|     167 | 0x315F      |       12639 |
|     168 | 0x3160      |       12640 |
|     169 | 0x3161      |       12641 |
|     170 | 0x0005      |           5 |
|     171 | 0x000A      |          10 |
|     172 | 0x0009      |           9 |
|     173 | 0x0046      |          70 |
|     174 | 0x008C      |         140 |
|     175 | 0x00D2      |         210 |

## String References

- **12501**: Greetings and well met! Defender of the Republic, Gulldago, at your most humble service.
- **12503**: My station is to help along those new to the life of an adventurer in Vana'diel. I specialize in the types of fundamental knowledge necessary for success in such endeavors, as well as related methods of pedagogy. With my aid, you can rest assured that your first steps down the adventurer's path will not go astray.
- **12504**: Should you still consider yourself a newcomer, I would highly recommend that you make full use of my services.
- **12505**: This is my permanent post, and I never leave it. Remember it well. Whenever you need a hand with anything, anything at all, don't hesitate to come calling.
- **12506**: So, are you interested in some entry-level duties to put you well on your way to greatness? Not to worry, I've got just the thing for you!
- **12508**: Go talk to the guard Rabid Wolf over yonder and have him cast "Signet" on you. Then come back and see me.
- **12510**: Well, it looks like you were able to get your Signet. Easy enough, yes?
- **12511**: As long as Signet is in effect, there is always a possibility that you will obtain crystals from any enemies that you defeat. There are also other more concrete benefits, such as increased defense and evasion.
- **12512**: Signet even helps you when not engaged in combat with an enemy. For example, it boosts the rate at which healing occurs while at rest. For all of these reasons and more, you should consider it essential to have Signet cast on you at all times.
- **12513**: Very well, then! As a reward for successful completion of your first assignment I would like to present you with these $0.
- **12514**: There is more here than "meats" the eye! That was a joke... Anyway, this is a type of item known amongst adventurers as a "meal." This meal in particular will temporarily enhance your attack power when eaten.
- **12515**: Whenever any type of meal is consumed, you will receive some such temporary status bonus. Naturally, different meals grant different types of bonuses.
- **12516**: For the most part, meat dishes will affect attack power. Conversely, seafood dishes generally enhance defense, and so on and so forth. Take care to select dishes best suited to your purpose.
- **12517**: One thing you should make note of, however, is that you cannot eat a meal while another meal's status bonus is still in effect. Your stomach would simply burst!
- **12518**: Hmmm, that's quite a lot to cover... Are you with me so far?
- **12519**: So far so good? [Explain Signet again./Explain meals again./This is a breeze.]
- **12520**: Great! Well, talking can only prepare you so much. Let's get right down to it. Go ahead and pop one of those $0!
- **12521**: After eating a meal, a status icon designated as "Food" will appear in the upper-left portion of your screen. Come back and talk to me again once you've confirmed that it's there.
- **12522**: Check out the full belly on you! Well done! Signet and meals can both play crucial roles whenever you take on any type of enemy. This is a key lesson that you would do well not to forget!
- **12523**: Next, let's get those pristine hands of yours nice and dirty! No sense in letting that food go to waste now, is there? Let's send you out to fight a monster on a full stomach!
- **12524**: Exiting through that gate over there will lead you into an area with hostile enemies.
- **12525**: Try to target one of the monsters and then select the "Check" option from your menu. This will help you ascertain an enemy's level of difficulty and make sure they are not too strong. A smart adventurer picks [his/her] fights.
- **12526**: Be warned. Engaging any enemy that checks as "very tough" or above will result in your Signet not granting you the defense and evasion bonuses you would otherwise receive.
- **12527**: And that brings us to your next assignment!
- **12528**: It's high time you learned how to use a "weapon skill"!
- **12529**: Perhaps you've already noticed, but sometimes while fighting an enemy, your "skills" will rise little by little.
- **12530**: When your skill with the weapon you are wielding reaches a predetermined value, weapon skills will become available for use.
- **12531**: "Combo" for those adept with hand-to-hand weapons. "Wasp Sting" for those who fight with daggers. "Fast Blade" for those who prefer the sword.
- **12532**: "Shining Strike" for wielders of the club. "Heavy Swing" for those who take up the staff. And on, and on, and on...
- **12533**: Selecting "Status" from the main menu will bring up the "Combat Skl." option. This will display all of the current skill values in all weapon categories.
- **12534**: The first weapon skill for each weapon type can be learned at a skill value of 5. So make that your first goal, and we'll take it from there!
- **12535**: Ohhh! Somebody went and learned a new weapon skill, didn't [he/she]? Very good!
- **12536**: I can see by that twinkle in your eyes that you've already used it on some poor, unfortunate creature, but I'll explain just a bit more. Whenever your "Tactical Points" (TP) reach 1000 or more, selecting "Abilities" and then "Weapon Skl." from the menu will display a list of usable weapon skills.
- **12537**: These are deadly techniques capable of rendering massive damage on enemies. It is well worth an adventurer's time to learn and master them.
- **12538**: Ah, by the way, were you fortunate enough to receive some items from the monsters you fought?
- **12539**: If you were lucky enough to come across any $0, make sure you hang onto them. They may pay dividends later on...
- **12540**: Also, that reminds me. There is another lesson better learned sooner than later. The items you will no doubt come across known as "crystals," such as $1 and $2, are extremely significant.
- **12541**: They are truly versatile items that can be used for a number of purposes. These include trading them to guards for certain rewards, and selling them to earn money, just to name a few.
- **12542**: For now, I'd like to explain more about another of their uses. Namely, the role they play in "synthesis."
- **12543**: But first things first. Your reward for completing your last assignment! Here you are, then. $1, $2, and last but not least, $3.
- **12544**: Now, using $3 will bring up the synthesis interface. Once there, select the $1 and $2 as the ingredients to be added.
- **12545**: All that remains is to select the "OK" option, and the synthesis will commence!
- **12546**: You'll find that the crafting process will never begin, should the ingredients you've selected not form a viable synthesis recipe. Also, even when your materials are correct, there is always a chance that your synthesis will fail, so please be wary.
- **12547**: The majority of items which you create via synthesis, as well as most of those dropped by enemies you defeat, can be placed on the "Auction House" for sale.
- **12548**: The auction house is an ultra-consumer venue where you can attempt to purchase the wares of other players by placing bids, as well as have other players bid on items you have put up for sale.
- **12549**: My words alone can do no justice to the vast cornucopia of goods that is the auction house. One simply must see it with one's own eyes.
- **12550**: Are you still with me? [Explain synthesis again./Explain the auction house again./Sure am.]
- **12551**: Somewhere in this great city lies our nation's auction house. Seek it out, and report back to me when you have found it.
- **12552**: You needn't worry about going through with an actual purchase. Simply examining any of the "Auction Counters" will more than suffice.
- **12553**: So, you were able to locate the auction house! Pretty hard to miss, isn't it?
- **12554**: What do you think? It is as I said, yes? Few organizations in this world exceed the auction house in scale. It will never cease to be of use to you throughout your adventures. It would be wise to become adept at using it.
- **12555**: And now down to brass tacks! Let's see if we can't get you to up some levels!
- **12556**: There are several items in existence which serve to enhance the number of experience points you receive for defeating enemies.
- **12557**: For example, there are $0, $1, and $2, just to name a few.
- **12558**: These are a bit unique in that you must wait a certain amount of time after equipping them before you may use them.
- **12559**: There is also a predetermined amount of time, usually quite long, that must pass before these items can be used again. The total number of times you may use any single item is also limited, so be mindful of that as well.
- **12560**: Many of these items may be obtained from the same guards that provide you with Signet. You need only exchange "Conquest Points" in order to acquire them.
- **12561**: As a matter of fact, for finishing that last assignment, I'm going to give you this $3. With this, you'll be able to obtain $0 without having to use any of your Conquest Points.
- **12562**: Head over to any guard and have a go at exchanging them for something. And after that, see if you can't make it all the way up to level four. I'll be right here waiting for you when you get back.
- **12563**: With an experience bonus in place, it should take you practically no time at all. Good luck, and be careful! It can get quite hairy out there!
- **12564**: Well, well, well! We might make an adventurer out of you just yet! Looks like we've almost washed all that green off of you.
- **12565**: A bit of bad news now, though. Starting from level 31, anytime you are knocked unconscious your experience points will suffer a deduction.
- **12566**: As a general rule, the amount penalized will be about 10% of the total amount required to reach the next level. You have to be more careful than ever from here on out!
- **12567**: However, there are ways to minimize this loss of experience points.
- **12568**: Like this, for example. Go on, take it. Your reward for reaching level four. It's called $0.
- **12569**: Using this will grant you a status known as "Reraise." Whenever you are rendered unconscious while this effect is in place, you will have the option to revive yourself.
- **12570**: Choosing to do so will cause you to be resuscitated in the very spot where you have fallen. In addition, as I stated previously, the amount of experience points you lose will be somewhat lessened.
- **12571**: % and similar items work in the same manner as the $1 and the other experience bonus items I mentioned earlier. That is, once equipped, you must wait a certain period of time before they can be used, and there are both cooldown timers and limited charges as well.
- **12572**: All of these items as a whole are collectively referred to as "enchanted items." There is a vast array of other enchanted items with myriad other effects that will prove useful on your adventures. It may be worth the time and effort to better acquaint yourself with them at some point.
- **12573**: It seems you're starting to get the hang of things. Next, I'd like for you to go and fight some enemies in [La Theine Plateau/the Konschtat Highlands/Tahrongi Canyon].
- **12574**: [La Theine Plateau/The Konschtat Highlands/Tahrongi Canyon] is located beyond the [southern/northern/northern] reaches of [West Ronfaure/North Gustaberg/East Sarutabaruta].
- **12575**: You're sure to encounter some new monsters there that you won't find prowling around the outskirts of the city. It may be a bit daunting, so I'll only require that you slay one such beast, and then head on back.
- **12576**: Just keep in mind, the farther you stray from the city, the more ferocious monsters tend to be. Don't say I didn't warn you.
- **12577**: Make sure to use the "Check" command to determine the strength of your enemy. If you find that you are surrounded by enemies too difficult for you, try heading back to a previous area closer to the city and leveling up a bit more first.
- **12578**: I know those smells... You smell of victory! And of [La Theine Plateau/the Konschtat Highlands/Tahrongi Canyon]! Good on you, <Player>.
- **12579**: But by now you must be getting sick and tired of fighting the same old monsters so close to the city walls, aren't you?
- **12580**: If you are several levels beyond a monster and totally outclass them in every respect, checking them will yield a "too weak to be worthwhile" result.
- **12581**: Killing monsters so far beneath you is borderline cowardice, and will net you no experience points.
- **12582**: If you start to notice more and more of these "too weak" monsters around you, consider moving farther from the city to a more difficult area.
- **12583**: Congratulations on another milestone! Reward tiiime! You've just earned yourself $0 experience points, hotshot.
- **12584**: Let's dive right into your next assignment while that blood is still pumping!
- **12585**: I'm going to up the stakes here a little bit, <Player>. But it's for your own good. I want you to go out and get all the way to level ten.
- **12586**: Considering your current level and the knowledge you have, you shouldn't confine yourself to the immediate vicinity of the city. You're more than capable of besting monsters in [La Theine Plateau/the Konschtat Highlands/Tahrongi Canyon] at this point.
- **12587**: I knew you wouldn't disappoint me. So how's it feel? You're moving on up in the world. Time to put some money in those pockets. A $1-gil reward, just for you. Don't spend it all in one place.
- **12588**: By now you should be relatively familiar with the basics of battle. Am I right or am I right?
- **12589**: But don't go getting too cocky! This world is chock-full of monsters just waiting for the opportune moment to pounce and knock you out cold!
- **12590**: Depending on the type of monster, there are several factors that could cause them to attack you without provocation. I'll enumerate some of the more common types of this blatantly aggressive behavior for you.
- **12591**: For starters, and most obviously, there are monsters which detect by sight. They will attack you whenever you enter their field of vision. This is the most prevalent type. They simply cannot stand the sight of adventurers.
- **12592**: Next, there are those monsters which detect by sound. They can be a bit more dangerous than visually-dependent monsters, in that they will attack the source of any sound within a certain prescribed radius. You may not think it, but there are a great many monsters whose aural senses are far more developed than their sense of sight.
- **12593**: There are also monsters which detect their enemies' spellcasting. Much like the sound-detecting types, these monsters will attack the source of any magic casting within a certain radius of their being. Not surprisingly, many monsters in the arcana family rely heavily on this method of detection, which covers a comparatively larger range than the aforementioned sense of hearing.
- **12594**: And finally, there are opportunistic monsters which prey upon the weak and near-dead, pinpointing their prey by detecting low hit points. The family of undead creatures abound in monsters of this type. Even more distressing, the fewer the hit points you have, the farther the distance from which you can be detected.
- **12595**: Your next assignment will attempt to familiarize you with these detection methods, and train you to become adept at avoiding them.
- **12596**: I want you to travel once again to [La Theine Plateau/the Konschtat Highlands/Tahrongi Canyon], and retrieve an item known as a "Gate Crystal."
- **12597**: Near the center of [La Theine Plateau/the Konschtat Highlands/Tahrongi Canyon], you will find a large, white, almost otherworldly structure. On the area map, it is labeled as the [Crag of Holla/Crag of Dem/Crag of Mea].
- **12598**: There you will find one of an enormous series of crystals known as "Telepoints." Simply examine the telepoint you find there, and bring back your findings.
- **12599**: Only when you present your $3 to me shall your assignment be complete.
- **12600**: Exercise the utmost caution. There are many extremely dangerous monsters in the area you will be visiting. And take extra care not to draw the attention of any beastmen.
- **12601**: This shall be your final assignment. Go now, and may the Goddess watch over you.
- **12602**: Ahhh, the $3, just as I requested. Excellent work, <Player>.
- **12603**: And now for some information regarding this little beauty. As long as you have this $3, you will be able to be transported by the appropriate spell of teleportation directly to the telepoint from which you retrieved it.
- **12604**: I doubt that you will have many opportunities to use it for the time being, but you would do well to remember what I have said.
- **12605**: Several such telepoints exist, scattered throughout Vana'diel. Each has its own specific gate crystal, which you will receive the first time that you examine any of them.
- **12606**: Let me take this time to offer you a most heartfelt congratulations, <Player>! You have successfully completed all of the assignments I have laid before you.
- **12607**: And here I have a most fitting reward for you. A gift of $1 experience points, and $3 $2.
- **12608**: I fear that I have nothing more to teach you. From now on, your lessons will best be learned by giving a mindful ear to others and being ever observant on your travels.
- **12609**: Do remember, though, that the paths open before you will multiply greatly should you cooperate with other adventurers.
- **12610**: Leveling, for example, is an endeavor made immeasurably more efficient and enjoyable in the company of others. It helps to not only guarantee you some modicum of safety in numbers, but also rewards you with considerably more experience points than adventuring alone.
- **12611**: I suppose it does require a good deal of courage to approach an adventurer you do not know, but I strongly encourage you to do so. It may prove to be the beginning of an extremely rewarding and long-lasting friendship.
- **12612**: There may still be some small facets of adventuring that I can continue to offer you advice on. Should you ever have any questions or anxieties, please do not hesitate to come and see me again. I will do my best to be of service and set your heart at ease.
- **12613**: Go now, and go well. The world awaits its next great adventurer, <Player>.
- **12615**: Good day to you! Defender of the Republic, Gulldago, at your most humble service. Is there something in particular I can help you with this day?
- **12617**: What will you ask about? [Nothing just now./Search comments./Skillchains./Magic bursts./Skillchains and elements.]
- **12618**: Just as their name implies, search comments are original messages composed by adventurers which are readily visible to others when using the search function.
- **12619**: There are several different categories of search comments. These include, but are not limited to, "EXP Party," "Items," and "Missions and Quests."
- **12620**: Opening the "Search" function from the Main Menu and then selecting the "Comment" option will allow you to conduct a player search by comment type.
- **12621**: For example, if you would like to search for other players to form a leveling party, you need only select "EXP Party" from the list displayed.
- **12623**: Of course, search comment composition differs from person to person. You might want to conduct a search first to see what type of search comments are considered the norm before writing your own.
- **12624**: Skillchains are devastating elemental phenomena which manifest themselves when weapon skills are carried out in a precise and well-timed order.
- **12625**: The very natures of the skillchains themselves differ widely, being dependent upon the weapon skills used and the order of their execution.
- **12626**: To take a simple and timeless example, using the weapon skill "Red Lotus Blade" immediately after "Fast Blade" will yield a type of skillchain known as "Liquefaction."
- **12627**: Furthermore, adding a "Combo" after the liquefaction effect will produce a more advanced "Fusion" skillchain.
- **12628**: In the taxonomy of skillchains, each type is related to one or more specific elements. Liquefaction is bound to the element of fire, for example, and fusion to both fire and light.
- **12629**: Another crucial point, which I simply cannot emphasize enough, is the importance of timing in the execution of skillchains.
- **12630**: One must not be too overzealous, but too much patience can also be damning. It is most ideal to time the latter weapon skill to begin just a second or two after the preceding one is complete.
- **12631**: The possible weapon skill sequences and the different skillchains they yield are highly variegated. It is said of this time-tested battle art that it "takes a moment to learn, and a lifetime to master."
- **12632**: Magic bursts are another type of supernatural phenomena which occur after carefully selected and impeccably timed spells are cast following a skillchain. Such spells exceed their typical counterparts in that they are enhanced in both power and accuracy. You will commonly see magic bursts abbreviated as "MB."
- **12633**: Magic bursts will not take place if the element of the spell being cast does not match the element of the skillchain preceding it.
- **12634**: To take an example, a detonation skillchain, which has wind as its element, followed by an aero or other like spell, will generate a magic burst.
- **12635**: In the same vein, thunder, or any cognate spell, would result in a magic burst should it follow an impaction skillchain, itself deriving power from that very element.
- **12636**: As I said previously, some skillchains are associated with more than one element. Take fragmentation, for example. It is composed of equal parts wind and thunder. So chasing a fragmentation skillchain with any type of aero or thunder spell would create a magic burst.
- **12637**: The key to mastering magic bursts lies in learning the elemental attributes of both the skillchains you create as well as the magic you wield. The rest is simply a matter of timing.
- **12638**: For your convenience, I will go over the elemental attributes of all skillchain types. Pay close attention.
- **12639**: Level 1 Skillchain (Associated element): Transfixion (Light), Liquefaction (Fire), Detonation (Wind), Impaction (Thunder), Induration (Ice), Reverberation (Water), Scission (Earth), Compression (Darkness).
- **12640**: Level 2 Skillchain (Associated elements): Fusion (Light/Fire), Fragmentation (Wind/Thunder), Distortion (Ice/Water), Gravitation (Earth/Darkness).
- **12641**: Level 3 Skillchain (Associated elements): Light (Light/Fire/Wind/Thunder), Darkness (Ice/Water/Earth/Darkness).

## Events

### Event 65535

#### Metadata

| Field        | Value   |
|--------------|---------|
| Entrypoint   | 0x0000  |
| Data Size    | 9 bytes |
| Instructions | 3       |

```
      00 01 02 03 04 05 06 07  08 09 0A 0B 0C 0D 0E 0F
      -- -- -- -- -- -- -- --  -- -- -- -- -- -- -- --
0000: 03 01 00 07 7F 1A 7F 09  00                       .........       
```

#### Opcodes

```
  0: 0x0000 [0x03] ExtData[1]->WorkLocal[1] = Entity->Race
  1: 0x0005 [0x1A] CALL_SUBROUTINE(address=0x097F)
  2: 0x0008 [0x00] END_REQSTACK()
```

### Event 536

#### Metadata

| Field        | Value    |
|--------------|----------|
| Entrypoint   | 0x0009   |
| Data Size    | 66 bytes |
| Instructions | 16       |

```
      00 01 02 03 04 05 06 07  08 09 0A 0B 0C 0D 0E 0F
      -- -- -- -- -- -- -- --  -- -- -- -- -- -- -- --
0000:                             42 1E F0 FF FF 7F 6E           B.....n
0010: F8 FF FF 7F 00 80 99 F8  FF FF 7F 1D 01 80 23 1D  ..............#.
0020: 02 80 23 66 02 00 F8 FF  FF 7F F8 FF FF 7F 74 6C  ..#f..........tl
0030: 6B 30 1D 03 80 23 66 02  00 F8 FF FF 7F F8 FF FF  k0...#f.........
0040: 7F 74 6C 6B 31 1D 04 80  23 21 00                 .tlk1...#!.     
```

#### Opcodes

```
  0: 0x0009 [0x42] SET_CLI_EVENT_CANCEL_DATA()
  1: 0x000A [0x1E] EventEntity looks at LocalPlayer and starts talking
  2: 0x000F [0x6E] EventEntity uses emote 1*
  3: 0x0016 [0x99] Wait for EventEntity animation to complete
  4: 0x001B [0x1D] PRINT_EVENT_MESSAGE(message_id=12501*)
    → "Greetings and well met! Defender of the Republic, Gulldago, at your most humble service."
  5: 0x001E [0x23] WAIT_FOR_DIALOG_INTERACTION
  6: 0x001F [0x1D] PRINT_EVENT_MESSAGE(message_id=12503*)
    → "My station is to help along those new to the life of an adventurer in Vana'diel. I specialize in the types of fundamental knowledge necessary for success in such endeavors, as well as related methods of pedagogy. With my aid, you can rest assured that your first steps down the adventurer's path will not go astray."
  7: 0x0022 [0x23] WAIT_FOR_DIALOG_INTERACTION
  8: 0x0023 [0x66] LOAD_EXT_SCHEDULER_MAIN: Load scheduler "tlk0" with entities [EventEntity, EventEntity], work=ExtData[1]->WorkLocal[2]
  9: 0x0032 [0x1D] PRINT_EVENT_MESSAGE(message_id=12504*)
    → "Should you still consider yourself a newcomer, I would highly recommend that you make full use of my services."
 10: 0x0035 [0x23] WAIT_FOR_DIALOG_INTERACTION
 11: 0x0036 [0x66] LOAD_EXT_SCHEDULER_MAIN: Load scheduler "tlk1" with entities [EventEntity, EventEntity], work=ExtData[1]->WorkLocal[2]
 12: 0x0045 [0x1D] PRINT_EVENT_MESSAGE(message_id=12505*)
    → "This is my permanent post, and I never leave it. Remember it well. Whenever you need a hand with anything, anything at all, don't hesitate to come calling."
 13: 0x0048 [0x23] WAIT_FOR_DIALOG_INTERACTION
 14: 0x0049 [0x21] END_EVENT
 15: 0x004A [0x00] END_REQSTACK()
```

### Event 517

#### Metadata

| Field        | Value     |
|--------------|-----------|
| Entrypoint   | 0x004B    |
| Data Size    | 278 bytes |
| Instructions | 36        |

```
      00 01 02 03 04 05 06 07  08 09 0A 0B 0C 0D 0E 0F
      -- -- -- -- -- -- -- --  -- -- -- -- -- -- -- --
0040:                                   42 45 05 80 F8             BE...
0050: FF FF 7F F8 FF FF 7F 66  64 6F 31 06 80 55 05 80  .......fdo1..U..
0060: F8 FF FF 7F F8 FF FF 7F  66 64 6F 31 46 01 38 07  ........fdo1F.8.
0070: 80 BA F0 FF FF 7F 08 80  09 80 0A 80 0B 80 37 0C  ..............7.
0080: 80 0D 80 0E 80 0F 80 32  10 80 45 11 80 F8 FF FF  .......2..E.....
0090: 7F F8 FF FF 7F 74 6C 62  30 06 80 45 05 80 F8 FF  .....tlb0..E....
00A0: FF 7F F8 FF FF 7F 66 64  69 31 06 80 1F 00 12 80  ......fdi1......
00B0: 13 80 0A 80 1F 01 6F 4A  F0 FF FF 7F A3 B0 0E 01  ......oJ........
00C0: 6E F8 FF FF 7F 00 80 99  F8 FF FF 7F 1D 01 80 23  n..............#
00D0: 1D 02 80 23 55 11 80 F8  FF FF 7F F8 FF FF 7F 74  ...#U..........t
00E0: 6C 62 30 45 11 80 F8 FF  FF 7F F8 FF FF 7F 74 6C  lb0E..........tl
00F0: 62 31 06 80 66 02 00 F8  FF FF 7F F8 FF FF 7F 74  b1..f..........t
0100: 6C 6B 30 1D 03 80 23 66  02 00 F8 FF FF 7F F8 FF  lk0...#f........
0110: FF 7F 74 6C 6B 31 1D 04  80 23 45 05 80 F8 FF FF  ..tlk1...#E.....
0120: 7F F8 FF FF 7F 66 64 6F  31 06 80 55 05 80 F8 FF  .....fdo1..U....
0130: FF 7F F8 FF FF 7F 66 64  6F 31 52 11 80 F8 FF FF  ......fdo1R.....
0140: 7F F8 FF FF 7F 74 6C 62  31 46 00 1C 14 80 45 05  .....tlb1F....E.
0150: 80 F8 FF FF 7F F8 FF FF  7F 66 64 69 31 06 80 21  .........fdi1..!
0160: 00                                                .               
```

#### Opcodes

```
  0: 0x004B [0x42] SET_CLI_EVENT_CANCEL_DATA()
  1: 0x004C [0x45] LOAD_SCHEDULED_TASK: Load scheduler "fdo1" with entities [EventEntity, EventEntity], work=[200*, 0*]
  2: 0x005D [0x55] WAIT_LOAD_SCHEDULER: Wait for scheduler "fdo1" with entities [EventEntity, EventEntity], work=200*
  3: 0x006C [0x46] CAMERA_CONTROL: Disable user control
  4: 0x006E [0x38] SET_CLIENT_EVENT_MODE(mode=19*)
  5: 0x0071 [0xBA] SET_ENTITY_POSITION(entity_id=LocalPlayer, pos_x=-354.864*, pos_z=-174.362*, pos_y=-10.002*, direction=134.3°*)
  6: 0x007E [0x37] UPDATE_EVENT_POSITION_AND_DIR: x=-359.503*, z=-166.950*, y=-10.019*, direction=63.6°*
  7: 0x0087 [0x32] ExtData[1]->MainSpeed = 13* * 0.1
  8: 0x008A [0x45] LOAD_SCHEDULED_TASK: Load scheduler "tlb0" with entities [EventEntity, EventEntity], work=[338*, 0*]
  9: 0x009B [0x45] LOAD_SCHEDULED_TASK: Load scheduler "fdi1" with entities [EventEntity, EventEntity], work=[200*, 0*]
 10: 0x00AC [0x1F] MOVE_ENTITY: EventEntity moves to X=-357.525*, Z=-169.584*, Y=-10.002*
 11: 0x00B4 [0x1F] MOVE_ENTITY: Update entity position (mode=1)
 12: 0x00B6 [0x6F] WAIT_FRAME_DELAY: Yield until WaitTime reaches zero
 13: 0x00B7 [0x4A] LocalPlayer looks at Gulldago (ID: 17739939/0x010EB0A3)
 14: 0x00C0 [0x6E] EventEntity uses emote 1*
 15: 0x00C7 [0x99] Wait for EventEntity animation to complete
 16: 0x00CC [0x1D] PRINT_EVENT_MESSAGE(message_id=12501*)
    → "Greetings and well met! Defender of the Republic, Gulldago, at your most humble service."
 17: 0x00CF [0x23] WAIT_FOR_DIALOG_INTERACTION
 18: 0x00D0 [0x1D] PRINT_EVENT_MESSAGE(message_id=12503*)
    → "My station is to help along those new to the life of an adventurer in Vana'diel. I specialize in the types of fundamental knowledge necessary for success in such endeavors, as well as related methods of pedagogy. With my aid, you can rest assured that your first steps down the adventurer's path will not go astray."
 19: 0x00D3 [0x23] WAIT_FOR_DIALOG_INTERACTION
 20: 0x00D4 [0x55] WAIT_LOAD_SCHEDULER: Wait for scheduler "tlb0" with entities [EventEntity, EventEntity], work=338*
 21: 0x00E3 [0x45] LOAD_SCHEDULED_TASK: Load scheduler "tlb1" with entities [EventEntity, EventEntity], work=[338*, 0*]
 22: 0x00F4 [0x66] LOAD_EXT_SCHEDULER_MAIN: Load scheduler "tlk0" with entities [EventEntity, EventEntity], work=ExtData[1]->WorkLocal[2]
 23: 0x0103 [0x1D] PRINT_EVENT_MESSAGE(message_id=12504*)
    → "Should you still consider yourself a newcomer, I would highly recommend that you make full use of my services."
 24: 0x0106 [0x23] WAIT_FOR_DIALOG_INTERACTION
 25: 0x0107 [0x66] LOAD_EXT_SCHEDULER_MAIN: Load scheduler "tlk1" with entities [EventEntity, EventEntity], work=ExtData[1]->WorkLocal[2]
 26: 0x0116 [0x1D] PRINT_EVENT_MESSAGE(message_id=12505*)
    → "This is my permanent post, and I never leave it. Remember it well. Whenever you need a hand with anything, anything at all, don't hesitate to come calling."
 27: 0x0119 [0x23] WAIT_FOR_DIALOG_INTERACTION
 28: 0x011A [0x45] LOAD_SCHEDULED_TASK: Load scheduler "fdo1" with entities [EventEntity, EventEntity], work=[200*, 0*]
 29: 0x012B [0x55] WAIT_LOAD_SCHEDULER: Wait for scheduler "fdo1" with entities [EventEntity, EventEntity], work=200*
 30: 0x013A [0x52] END_LOAD_SCHEDULER: End scheduler "tlb1" with entities [EventEntity, EventEntity], work=338*
 31: 0x0149 [0x46] CAMERA_CONTROL: Restore default settings
 32: 0x014B [0x1C] WAIT(30* ticks)
 33: 0x014E [0x45] LOAD_SCHEDULED_TASK: Load scheduler "fdi1" with entities [EventEntity, EventEntity], work=[200*, 0*]
 34: 0x015F [0x21] END_EVENT
 35: 0x0160 [0x00] END_REQSTACK()
```

### Event 518

#### Metadata

| Field        | Value    |
|--------------|----------|
| Entrypoint   | 0x0161   |
| Data Size    | 39 bytes |
| Instructions | 15       |

```
      00 01 02 03 04 05 06 07  08 09 0A 0B 0C 0D 0E 0F
      -- -- -- -- -- -- -- --  -- -- -- -- -- -- -- --
0160:    42 1E F0 FF FF 7F 1D  15 80 23 6F 70 4B F8 FF   B........#opK..
0170: FF 7F 16 80 6F 70 6E F8  FF FF 7F 06 80 99 F8 FF  ....opn.........
0180: FF 7F 1D 17 80 23 21 00                           .....#!.        
```

#### Opcodes

```
  0: 0x0161 [0x42] SET_CLI_EVENT_CANCEL_DATA()
  1: 0x0162 [0x1E] EventEntity looks at LocalPlayer and starts talking
  2: 0x0167 [0x1D] PRINT_EVENT_MESSAGE(message_id=12506*)
    → "So, are you interested in some entry-level duties to put you well on your way to greatness? Not to worry, I've got just the thing for you!"
  3: 0x016A [0x23] WAIT_FOR_DIALOG_INTERACTION
  4: 0x016B [0x6F] WAIT_FRAME_DELAY: Yield until WaitTime reaches zero
  5: 0x016C [0x70] WAIT_ENTITY_RENDER_FLAG: Wait while EventEntity->Render.Flags3 bit 2 is set (cancel turn if not)
  6: 0x016D [0x4B] UPDATE_ENTITY_YAW(entity=EventEntity, yaw=3.3°*)
  7: 0x0174 [0x6F] WAIT_FRAME_DELAY: Yield until WaitTime reaches zero
  8: 0x0175 [0x70] WAIT_ENTITY_RENDER_FLAG: Wait while EventEntity->Render.Flags3 bit 2 is set (cancel turn if not)
  9: 0x0176 [0x6E] EventEntity uses emote 0*
 10: 0x017D [0x99] Wait for EventEntity animation to complete
 11: 0x0182 [0x1D] PRINT_EVENT_MESSAGE(message_id=12508*)
    → "Go talk to the guard Rabid Wolf over yonder and have him cast "Signet" on you. Then come back and see me."
 12: 0x0185 [0x23] WAIT_FOR_DIALOG_INTERACTION
 13: 0x0186 [0x21] END_EVENT
 14: 0x0187 [0x00] END_REQSTACK()
```

### Event 519

#### Metadata

| Field        | Value    |
|--------------|----------|
| Entrypoint   | 0x0188   |
| Data Size    | 37 bytes |
| Instructions | 13       |

```
      00 01 02 03 04 05 06 07  08 09 0A 0B 0C 0D 0E 0F
      -- -- -- -- -- -- -- --  -- -- -- -- -- -- -- --
0180:                          1E F0 FF FF 7F 6F 70 1C          .....op.
0190: 14 80 4B F8 FF FF 7F 16  80 6F 70 6E F8 FF FF 7F  ..K......opn....
01A0: 06 80 99 F8 FF FF 7F 1D  17 80 23 21 00           ..........#!.   
```

#### Opcodes

```
  0: 0x0188 [0x1E] EventEntity looks at LocalPlayer and starts talking
  1: 0x018D [0x6F] WAIT_FRAME_DELAY: Yield until WaitTime reaches zero
  2: 0x018E [0x70] WAIT_ENTITY_RENDER_FLAG: Wait while EventEntity->Render.Flags3 bit 2 is set (cancel turn if not)
  3: 0x018F [0x1C] WAIT(30* ticks)
  4: 0x0192 [0x4B] UPDATE_ENTITY_YAW(entity=EventEntity, yaw=3.3°*)
  5: 0x0199 [0x6F] WAIT_FRAME_DELAY: Yield until WaitTime reaches zero
  6: 0x019A [0x70] WAIT_ENTITY_RENDER_FLAG: Wait while EventEntity->Render.Flags3 bit 2 is set (cancel turn if not)
  7: 0x019B [0x6E] EventEntity uses emote 0*
  8: 0x01A2 [0x99] Wait for EventEntity animation to complete
  9: 0x01A7 [0x1D] PRINT_EVENT_MESSAGE(message_id=12508*)
    → "Go talk to the guard Rabid Wolf over yonder and have him cast "Signet" on you. Then come back and see me."
 10: 0x01AA [0x23] WAIT_FOR_DIALOG_INTERACTION
 11: 0x01AB [0x21] END_EVENT
 12: 0x01AC [0x00] END_REQSTACK()
```

### Event 520

#### Metadata

| Field        | Value     |
|--------------|-----------|
| Entrypoint   | 0x01AD    |
| Data Size    | 257 bytes |
| Instructions | 59        |

```
      00 01 02 03 04 05 06 07  08 09 0A 0B 0C 0D 0E 0F
      -- -- -- -- -- -- -- --  -- -- -- -- -- -- -- --
01A0:                                         42 1E F0               B..
01B0: FF FF 7F 05 00 00 1D 18  80 23 6F 70 66 02 00 F8  .........#opf...
01C0: FF FF 7F F8 FF FF 7F 74  6C 6B 30 1D 19 80 23 1D  .......tlk0...#.
01D0: 1A 80 23 03 02 10 1B 80  1D 1C 80 23 1D 1D 80 23  ..#........#...#
01E0: 1D 1E 80 23 1D 1F 80 23  1D 20 80 23 66 02 00 F8  ...#...#. .#f...
01F0: FF FF 7F F8 FF FF 7F 74  6C 6B 31 1D 21 80 23 02  .......tlk1.!.#.
0200: 00 00 06 80 01 86 02 24  22 80 06 80 06 80 25 02  .......$".....%.
0210: 00 10 06 80 00 40 02 66  02 00 F8 FF FF 7F F8 FF  .....@.f........
0220: FF 7F 74 6C 6B 30 1D 19  80 23 1D 1A 80 23 66 02  ..tlk0...#...#f.
0230: 00 F8 FF FF 7F F8 FF FF  7F 74 6C 6B 31 01 83 02  .........tlk1...
0240: 02 00 10 00 80 00 75 02  66 02 00 F8 FF FF 7F F8  ......u.f.......
0250: FF FF 7F 74 6C 6B 30 1D  1E 80 23 1D 1F 80 23 1D  ...tlk0...#...#.
0260: 20 80 23 66 02 00 F8 FF  FF 7F F8 FF FF 7F 74 6C   .#f..........tl
0270: 6B 31 01 83 02 02 00 10  23 80 00 83 02 06 00 00  k1......#.......
0280: 01 83 02 01 FF 01 66 02  00 F8 FF FF 7F F8 FF FF  ......f.........
0290: 7F 74 6C 6B 30 1D 24 80  23 1D 25 80 23 66 02 00  .tlk0.$.#.%.#f..
02A0: F8 FF FF 7F F8 FF FF 7F  74 6C 6B 31 21 00        ........tlk1!.  
```

#### Opcodes

```
  0: 0x01AD [0x42] SET_CLI_EVENT_CANCEL_DATA()
  1: 0x01AE [0x1E] EventEntity looks at LocalPlayer and starts talking
  2: 0x01B3 [0x05] ExtData[1]->WorkLocal[0] = 1
  3: 0x01B6 [0x1D] PRINT_EVENT_MESSAGE(message_id=12510*)
    → "Well, it looks like you were able to get your Signet. Easy enough, yes?"
  4: 0x01B9 [0x23] WAIT_FOR_DIALOG_INTERACTION
  5: 0x01BA [0x6F] WAIT_FRAME_DELAY: Yield until WaitTime reaches zero
  6: 0x01BB [0x70] WAIT_ENTITY_RENDER_FLAG: Wait while EventEntity->Render.Flags3 bit 2 is set (cancel turn if not)
  7: 0x01BC [0x66] LOAD_EXT_SCHEDULER_MAIN: Load scheduler "tlk0" with entities [EventEntity, EventEntity], work=ExtData[1]->WorkLocal[2]
  8: 0x01CB [0x1D] PRINT_EVENT_MESSAGE(message_id=12511*)
    → "As long as Signet is in effect, there is always a possibility that you will obtain crystals from any enemies that you defeat. There are also other more concrete benefits, such as increased defense and evasion."
  9: 0x01CE [0x23] WAIT_FOR_DIALOG_INTERACTION
 10: 0x01CF [0x1D] PRINT_EVENT_MESSAGE(message_id=12512*)
    → "Signet even helps you when not engaged in combat with an enemy. For example, it boosts the rate at which healing occurs while at rest. For all of these reasons and more, you should consider it essential to have Signet cast on you at all times."
 11: 0x01D2 [0x23] WAIT_FOR_DIALOG_INTERACTION
 12: 0x01D3 [0x03] Work_Zone[2] = 4376*
 13: 0x01D8 [0x1D] PRINT_EVENT_MESSAGE(message_id=12513*)
    → "Very well, then! As a reward for successful completion of your first assignment I would like to present you with these $0."
 14: 0x01DB [0x23] WAIT_FOR_DIALOG_INTERACTION
 15: 0x01DC [0x1D] PRINT_EVENT_MESSAGE(message_id=12514*)
    → "There is more here than "meats" the eye! That was a joke... Anyway, this is a type of item known amongst adventurers as a "meal." This meal in particular will temporarily enhance your attack power when eaten."
 16: 0x01DF [0x23] WAIT_FOR_DIALOG_INTERACTION
 17: 0x01E0 [0x1D] PRINT_EVENT_MESSAGE(message_id=12515*)
    → "Whenever any type of meal is consumed, you will receive some such temporary status bonus. Naturally, different meals grant different types of bonuses."
 18: 0x01E3 [0x23] WAIT_FOR_DIALOG_INTERACTION
 19: 0x01E4 [0x1D] PRINT_EVENT_MESSAGE(message_id=12516*)
    → "For the most part, meat dishes will affect attack power. Conversely, seafood dishes generally enhance defense, and so on and so forth. Take care to select dishes best suited to your purpose."
 20: 0x01E7 [0x23] WAIT_FOR_DIALOG_INTERACTION
 21: 0x01E8 [0x1D] PRINT_EVENT_MESSAGE(message_id=12517*)
    → "One thing you should make note of, however, is that you cannot eat a meal while another meal's status bonus is still in effect. Your stomach would simply burst!"
 22: 0x01EB [0x23] WAIT_FOR_DIALOG_INTERACTION
 23: 0x01EC [0x66] LOAD_EXT_SCHEDULER_MAIN: Load scheduler "tlk1" with entities [EventEntity, EventEntity], work=ExtData[1]->WorkLocal[2]
 24: 0x01FB [0x1D] PRINT_EVENT_MESSAGE(message_id=12518*)
    → "Hmmm, that's quite a lot to cover... Are you with me so far?"
 25: 0x01FE [0x23] WAIT_FOR_DIALOG_INTERACTION
 26: 0x01FF [0x02] IF !(ExtData[1]->WorkLocal[0] == 0*) GOTO 0x0286
 27: 0x0207 [0x24] CREATE_DIALOG(message_id=12519*, default_option=0*, option_flags=0*)
    → "So far so good? [Explain Signet again./Explain meals again./This is a breeze.]"
 28: 0x020E [0x25] WAIT_DIALOG_SELECT()
 29: 0x020F [0x02] IF !(Work_Zone[0] == 0*) GOTO 0x0240
 30: 0x0217 [0x66] LOAD_EXT_SCHEDULER_MAIN: Load scheduler "tlk0" with entities [EventEntity, EventEntity], work=ExtData[1]->WorkLocal[2]
 31: 0x0226 [0x1D] PRINT_EVENT_MESSAGE(message_id=12511*)
    → "As long as Signet is in effect, there is always a possibility that you will obtain crystals from any enemies that you defeat. There are also other more concrete benefits, such as increased defense and evasion."
 32: 0x0229 [0x23] WAIT_FOR_DIALOG_INTERACTION
 33: 0x022A [0x1D] PRINT_EVENT_MESSAGE(message_id=12512*)
    → "Signet even helps you when not engaged in combat with an enemy. For example, it boosts the rate at which healing occurs while at rest. For all of these reasons and more, you should consider it essential to have Signet cast on you at all times."
 34: 0x022D [0x23] WAIT_FOR_DIALOG_INTERACTION
 35: 0x022E [0x66] LOAD_EXT_SCHEDULER_MAIN: Load scheduler "tlk1" with entities [EventEntity, EventEntity], work=ExtData[1]->WorkLocal[2]
 36: 0x023D [0x01] GOTO 0x0283
 37: 0x0240 [0x02] IF !(Work_Zone[0] == 1*) GOTO 0x0275
 38: 0x0248 [0x66] LOAD_EXT_SCHEDULER_MAIN: Load scheduler "tlk0" with entities [EventEntity, EventEntity], work=ExtData[1]->WorkLocal[2]
 39: 0x0257 [0x1D] PRINT_EVENT_MESSAGE(message_id=12515*)
    → "Whenever any type of meal is consumed, you will receive some such temporary status bonus. Naturally, different meals grant different types of bonuses."
 40: 0x025A [0x23] WAIT_FOR_DIALOG_INTERACTION
 41: 0x025B [0x1D] PRINT_EVENT_MESSAGE(message_id=12516*)
    → "For the most part, meat dishes will affect attack power. Conversely, seafood dishes generally enhance defense, and so on and so forth. Take care to select dishes best suited to your purpose."
 42: 0x025E [0x23] WAIT_FOR_DIALOG_INTERACTION
 43: 0x025F [0x1D] PRINT_EVENT_MESSAGE(message_id=12517*)
    → "One thing you should make note of, however, is that you cannot eat a meal while another meal's status bonus is still in effect. Your stomach would simply burst!"
 44: 0x0262 [0x23] WAIT_FOR_DIALOG_INTERACTION
 45: 0x0263 [0x66] LOAD_EXT_SCHEDULER_MAIN: Load scheduler "tlk1" with entities [EventEntity, EventEntity], work=ExtData[1]->WorkLocal[2]
 46: 0x0272 [0x01] GOTO 0x0283
 47: 0x0275 [0x02] IF !(Work_Zone[0] == 2*) GOTO 0x0283
 48: 0x027D [0x06] ExtData[1]->WorkLocal[0] = 0
 49: 0x0280 [0x01] GOTO 0x0283

SUBROUTINE_0283:
 50: 0x0283 [0x01] GOTO 0x01FF
 51: 0x0286 [0x66] LOAD_EXT_SCHEDULER_MAIN: Load scheduler "tlk0" with entities [EventEntity, EventEntity], work=ExtData[1]->WorkLocal[2]
 52: 0x0295 [0x1D] PRINT_EVENT_MESSAGE(message_id=12520*)
    → "Great! Well, talking can only prepare you so much. Let's get right down to it. Go ahead and pop one of those $0!"
 53: 0x0298 [0x23] WAIT_FOR_DIALOG_INTERACTION
 54: 0x0299 [0x1D] PRINT_EVENT_MESSAGE(message_id=12521*)
    → "After eating a meal, a status icon designated as "Food" will appear in the upper-left portion of your screen. Come back and talk to me again once you've confirmed that it's there."
 55: 0x029C [0x23] WAIT_FOR_DIALOG_INTERACTION
 56: 0x029D [0x66] LOAD_EXT_SCHEDULER_MAIN: Load scheduler "tlk1" with entities [EventEntity, EventEntity], work=ExtData[1]->WorkLocal[2]
 57: 0x02AC [0x21] END_EVENT
 58: 0x02AD [0x00] END_REQSTACK()
```

### Event 521

#### Metadata

| Field        | Value    |
|--------------|----------|
| Entrypoint   | 0x02AE   |
| Data Size    | 11 bytes |
| Instructions | 5        |

```
      00 01 02 03 04 05 06 07  08 09 0A 0B 0C 0D 0E 0F
      -- -- -- -- -- -- -- --  -- -- -- -- -- -- -- --
02A0:                                            1E F0                ..
02B0: FF FF 7F 1D 25 80 23 21  00                       ....%.#!.       
```

#### Opcodes

```
  0: 0x02AE [0x1E] EventEntity looks at LocalPlayer and starts talking
  1: 0x02B3 [0x1D] PRINT_EVENT_MESSAGE(message_id=12521*)
    → "After eating a meal, a status icon designated as "Food" will appear in the upper-left portion of your screen. Come back and talk to me again once you've confirmed that it's there."
  2: 0x02B6 [0x23] WAIT_FOR_DIALOG_INTERACTION
  3: 0x02B7 [0x21] END_EVENT
  4: 0x02B8 [0x00] END_REQSTACK()
```

### Event 522

#### Metadata

| Field        | Value     |
|--------------|-----------|
| Entrypoint   | 0x02B9    |
| Data Size    | 122 bytes |
| Instructions | 36        |

```
      00 01 02 03 04 05 06 07  08 09 0A 0B 0C 0D 0E 0F
      -- -- -- -- -- -- -- --  -- -- -- -- -- -- -- --
02B0:                             42 1E F0 FF FF 7F 1D           B......
02C0: 26 80 23 6F 70 66 02 00  F8 FF FF 7F F8 FF FF 7F  &.#opf..........
02D0: 74 6C 6B 30 1D 27 80 23  1D 28 80 23 1D 29 80 23  tlk0.'.#.(.#.).#
02E0: 1D 2A 80 23 66 02 00 F8  FF FF 7F F8 FF FF 7F 74  .*.#f..........t
02F0: 6C 6B 31 1D 2B 80 23 1D  2C 80 23 1D 2D 80 23 1D  lk1.+.#.,.#.-.#.
0300: 2E 80 23 66 02 00 F8 FF  FF 7F F8 FF FF 7F 74 6C  ..#f..........tl
0310: 6B 30 1D 2F 80 23 1D 30  80 23 66 02 00 F8 FF FF  k0./.#.0.#f.....
0320: 7F F8 FF FF 7F 74 6C 6B  31 1D 31 80 23 1D 32 80  .....tlk1.1.#.2.
0330: 23 21 00                                          #!.             
```

#### Opcodes

```
  0: 0x02B9 [0x42] SET_CLI_EVENT_CANCEL_DATA()
  1: 0x02BA [0x1E] EventEntity looks at LocalPlayer and starts talking
  2: 0x02BF [0x1D] PRINT_EVENT_MESSAGE(message_id=12522*)
    → "Check out the full belly on you! Well done! Signet and meals can both play crucial roles whenever you take on any type of enemy. This is a key lesson that you would do well not to forget!"
  3: 0x02C2 [0x23] WAIT_FOR_DIALOG_INTERACTION
  4: 0x02C3 [0x6F] WAIT_FRAME_DELAY: Yield until WaitTime reaches zero
  5: 0x02C4 [0x70] WAIT_ENTITY_RENDER_FLAG: Wait while EventEntity->Render.Flags3 bit 2 is set (cancel turn if not)
  6: 0x02C5 [0x66] LOAD_EXT_SCHEDULER_MAIN: Load scheduler "tlk0" with entities [EventEntity, EventEntity], work=ExtData[1]->WorkLocal[2]
  7: 0x02D4 [0x1D] PRINT_EVENT_MESSAGE(message_id=12523*)
    → "Next, let's get those pristine hands of yours nice and dirty! No sense in letting that food go to waste now, is there? Let's send you out to fight a monster on a full stomach!"
  8: 0x02D7 [0x23] WAIT_FOR_DIALOG_INTERACTION
  9: 0x02D8 [0x1D] PRINT_EVENT_MESSAGE(message_id=12524*)
    → "Exiting through that gate over there will lead you into an area with hostile enemies."
 10: 0x02DB [0x23] WAIT_FOR_DIALOG_INTERACTION
 11: 0x02DC [0x1D] PRINT_EVENT_MESSAGE(message_id=12525*)
    → "Try to target one of the monsters and then select the "Check" option from your menu. This will help you ascertain an enemy's level of difficulty and make sure they are not too strong. A smart adventurer picks [his/her] fights."
 12: 0x02DF [0x23] WAIT_FOR_DIALOG_INTERACTION
 13: 0x02E0 [0x1D] PRINT_EVENT_MESSAGE(message_id=12526*)
    → "Be warned. Engaging any enemy that checks as "very tough" or above will result in your Signet not granting you the defense and evasion bonuses you would otherwise receive."
 14: 0x02E3 [0x23] WAIT_FOR_DIALOG_INTERACTION
 15: 0x02E4 [0x66] LOAD_EXT_SCHEDULER_MAIN: Load scheduler "tlk1" with entities [EventEntity, EventEntity], work=ExtData[1]->WorkLocal[2]
 16: 0x02F3 [0x1D] PRINT_EVENT_MESSAGE(message_id=12527*)
    → "And that brings us to your next assignment!"
 17: 0x02F6 [0x23] WAIT_FOR_DIALOG_INTERACTION
 18: 0x02F7 [0x1D] PRINT_EVENT_MESSAGE(message_id=12528*)
    → "It's high time you learned how to use a "weapon skill"!"
 19: 0x02FA [0x23] WAIT_FOR_DIALOG_INTERACTION
 20: 0x02FB [0x1D] PRINT_EVENT_MESSAGE(message_id=12529*)
    → "Perhaps you've already noticed, but sometimes while fighting an enemy, your "skills" will rise little by little."
 21: 0x02FE [0x23] WAIT_FOR_DIALOG_INTERACTION
 22: 0x02FF [0x1D] PRINT_EVENT_MESSAGE(message_id=12530*)
    → "When your skill with the weapon you are wielding reaches a predetermined value, weapon skills will become available for use."
 23: 0x0302 [0x23] WAIT_FOR_DIALOG_INTERACTION
 24: 0x0303 [0x66] LOAD_EXT_SCHEDULER_MAIN: Load scheduler "tlk0" with entities [EventEntity, EventEntity], work=ExtData[1]->WorkLocal[2]
 25: 0x0312 [0x1D] PRINT_EVENT_MESSAGE(message_id=12531*)
    → ""Combo" for those adept with hand-to-hand weapons. "Wasp Sting" for those who fight with daggers. "Fast Blade" for those who prefer the sword."
 26: 0x0315 [0x23] WAIT_FOR_DIALOG_INTERACTION
 27: 0x0316 [0x1D] PRINT_EVENT_MESSAGE(message_id=12532*)
    → ""Shining Strike" for wielders of the club. "Heavy Swing" for those who take up the staff. And on, and on, and on..."
 28: 0x0319 [0x23] WAIT_FOR_DIALOG_INTERACTION
 29: 0x031A [0x66] LOAD_EXT_SCHEDULER_MAIN: Load scheduler "tlk1" with entities [EventEntity, EventEntity], work=ExtData[1]->WorkLocal[2]
 30: 0x0329 [0x1D] PRINT_EVENT_MESSAGE(message_id=12533*)
    → "Selecting "Status" from the main menu will bring up the "Combat Skl." option. This will display all of the current skill values in all weapon categories."
 31: 0x032C [0x23] WAIT_FOR_DIALOG_INTERACTION
 32: 0x032D [0x1D] PRINT_EVENT_MESSAGE(message_id=12534*)
    → "The first weapon skill for each weapon type can be learned at a skill value of 5. So make that your first goal, and we'll take it from there!"
 33: 0x0330 [0x23] WAIT_FOR_DIALOG_INTERACTION
 34: 0x0331 [0x21] END_EVENT
 35: 0x0332 [0x00] END_REQSTACK()
```

### Event 523

#### Metadata

| Field        | Value    |
|--------------|----------|
| Entrypoint   | 0x0333   |
| Data Size    | 65 bytes |
| Instructions | 19       |

```
      00 01 02 03 04 05 06 07  08 09 0A 0B 0C 0D 0E 0F
      -- -- -- -- -- -- -- --  -- -- -- -- -- -- -- --
0330:          1E F0 FF FF 7F  1D 2C 80 23 1D 2D 80 23     ......,.#.-.#
0340: 1D 2E 80 23 66 02 00 F8  FF FF 7F F8 FF FF 7F 74  ...#f..........t
0350: 6C 6B 30 1D 2F 80 23 1D  30 80 23 66 02 00 F8 FF  lk0./.#.0.#f....
0360: FF 7F F8 FF FF 7F 74 6C  6B 31 1D 31 80 23 1D 32  ......tlk1.1.#.2
0370: 80 23 21 00                                       .#!.            
```

#### Opcodes

```
  0: 0x0333 [0x1E] EventEntity looks at LocalPlayer and starts talking
  1: 0x0338 [0x1D] PRINT_EVENT_MESSAGE(message_id=12528*)
    → "It's high time you learned how to use a "weapon skill"!"
  2: 0x033B [0x23] WAIT_FOR_DIALOG_INTERACTION
  3: 0x033C [0x1D] PRINT_EVENT_MESSAGE(message_id=12529*)
    → "Perhaps you've already noticed, but sometimes while fighting an enemy, your "skills" will rise little by little."
  4: 0x033F [0x23] WAIT_FOR_DIALOG_INTERACTION
  5: 0x0340 [0x1D] PRINT_EVENT_MESSAGE(message_id=12530*)
    → "When your skill with the weapon you are wielding reaches a predetermined value, weapon skills will become available for use."
  6: 0x0343 [0x23] WAIT_FOR_DIALOG_INTERACTION
  7: 0x0344 [0x66] LOAD_EXT_SCHEDULER_MAIN: Load scheduler "tlk0" with entities [EventEntity, EventEntity], work=ExtData[1]->WorkLocal[2]
  8: 0x0353 [0x1D] PRINT_EVENT_MESSAGE(message_id=12531*)
    → ""Combo" for those adept with hand-to-hand weapons. "Wasp Sting" for those who fight with daggers. "Fast Blade" for those who prefer the sword."
  9: 0x0356 [0x23] WAIT_FOR_DIALOG_INTERACTION
 10: 0x0357 [0x1D] PRINT_EVENT_MESSAGE(message_id=12532*)
    → ""Shining Strike" for wielders of the club. "Heavy Swing" for those who take up the staff. And on, and on, and on..."
 11: 0x035A [0x23] WAIT_FOR_DIALOG_INTERACTION
 12: 0x035B [0x66] LOAD_EXT_SCHEDULER_MAIN: Load scheduler "tlk1" with entities [EventEntity, EventEntity], work=ExtData[1]->WorkLocal[2]
 13: 0x036A [0x1D] PRINT_EVENT_MESSAGE(message_id=12533*)
    → "Selecting "Status" from the main menu will bring up the "Combat Skl." option. This will display all of the current skill values in all weapon categories."
 14: 0x036D [0x23] WAIT_FOR_DIALOG_INTERACTION
 15: 0x036E [0x1D] PRINT_EVENT_MESSAGE(message_id=12534*)
    → "The first weapon skill for each weapon type can be learned at a skill value of 5. So make that your first goal, and we'll take it from there!"
 16: 0x0371 [0x23] WAIT_FOR_DIALOG_INTERACTION
 17: 0x0372 [0x21] END_EVENT
 18: 0x0373 [0x00] END_REQSTACK()
```

### Event 524

#### Metadata

| Field        | Value     |
|--------------|-----------|
| Entrypoint   | 0x0374    |
| Data Size    | 318 bytes |
| Instructions | 82        |

```
      00 01 02 03 04 05 06 07  08 09 0A 0B 0C 0D 0E 0F
      -- -- -- -- -- -- -- --  -- -- -- -- -- -- -- --
0370:             42 1E F0 FF  FF 7F 1D 33 80 23 6F 70      B......3.#op
0380: 66 02 00 F8 FF FF 7F F8  FF FF 7F 74 6C 6B 30 1D  f..........tlk0.
0390: 34 80 23 1D 35 80 23 1D  36 80 23 03 02 10 37 80  4.#.5.#.6.#...7.
03A0: 1D 38 80 23 03 03 10 39  80 03 04 10 3A 80 1D 3B  .8.#...9....:..;
03B0: 80 23 1D 3C 80 23 1D 3D  80 23 03 03 10 3E 80 03  .#.<.#.=.#...>..
03C0: 04 10 3F 80 03 05 10 3A  80 1D 40 80 23 1D 41 80  ..?....:..@.#.A.
03D0: 23 1D 42 80 23 1D 43 80  23 1D 44 80 23 1D 45 80  #.B.#.C.#.D.#.E.
03E0: 23 1D 46 80 23 66 02 00  F8 FF FF 7F F8 FF FF 7F  #.F.#f..........
03F0: 74 6C 6B 31 1D 21 80 23  05 00 00 02 00 00 06 80  tlk1.!.#........
0400: 01 86 04 24 47 80 06 80  06 80 25 02 00 10 06 80  ...$G.....%.....
0410: 00 40 04 66 02 00 F8 FF  FF 7F F8 FF FF 7F 74 6C  .@.f..........tl
0420: 6B 30 1D 41 80 23 1D 42  80 23 1D 43 80 23 66 02  k0.A.#.B.#.C.#f.
0430: 00 F8 FF FF 7F F8 FF FF  7F 74 6C 6B 31 01 83 04  .........tlk1...
0440: 02 00 10 00 80 00 75 04  66 02 00 F8 FF FF 7F F8  ......u.f.......
0450: FF FF 7F 74 6C 6B 30 1D  44 80 23 1D 45 80 23 1D  ...tlk0.D.#.E.#.
0460: 46 80 23 66 02 00 F8 FF  FF 7F F8 FF FF 7F 74 6C  F.#f..........tl
0470: 6B 31 01 83 04 02 00 10  23 80 00 83 04 06 00 00  k1......#.......
0480: 01 83 04 01 FB 03 1D 2B  80 23 66 02 00 F8 FF FF  .......+.#f.....
0490: 7F F8 FF FF 7F 74 6C 6B  30 1D 48 80 23 1D 49 80  .....tlk0.H.#.I.
04A0: 23 66 02 00 F8 FF FF 7F  F8 FF FF 7F 74 6C 6B 31  #f..........tlk1
04B0: 21 00                                             !.              
```

#### Opcodes

```
  0: 0x0374 [0x42] SET_CLI_EVENT_CANCEL_DATA()
  1: 0x0375 [0x1E] EventEntity looks at LocalPlayer and starts talking
  2: 0x037A [0x1D] PRINT_EVENT_MESSAGE(message_id=12535*)
    → "Ohhh! Somebody went and learned a new weapon skill, didn't [he/she]? Very good!"
  3: 0x037D [0x23] WAIT_FOR_DIALOG_INTERACTION
  4: 0x037E [0x6F] WAIT_FRAME_DELAY: Yield until WaitTime reaches zero
  5: 0x037F [0x70] WAIT_ENTITY_RENDER_FLAG: Wait while EventEntity->Render.Flags3 bit 2 is set (cancel turn if not)
  6: 0x0380 [0x66] LOAD_EXT_SCHEDULER_MAIN: Load scheduler "tlk0" with entities [EventEntity, EventEntity], work=ExtData[1]->WorkLocal[2]
  7: 0x038F [0x1D] PRINT_EVENT_MESSAGE(message_id=12536*)
    → "I can see by that twinkle in your eyes that you've already used it on some poor, unfortunate creature, but I'll explain just a bit more. Whenever your "Tactical Points" (TP) reach 1000 or more, selecting "Abilities" and then "Weapon Skl." from the menu will display a list of usable weapon skills."
  8: 0x0392 [0x23] WAIT_FOR_DIALOG_INTERACTION
  9: 0x0393 [0x1D] PRINT_EVENT_MESSAGE(message_id=12537*)
    → "These are deadly techniques capable of rendering massive damage on enemies. It is well worth an adventurer's time to learn and master them."
 10: 0x0396 [0x23] WAIT_FOR_DIALOG_INTERACTION
 11: 0x0397 [0x1D] PRINT_EVENT_MESSAGE(message_id=12538*)
    → "Ah, by the way, were you fortunate enough to receive some items from the monsters you fought?"
 12: 0x039A [0x23] WAIT_FOR_DIALOG_INTERACTION
 13: 0x039B [0x03] Work_Zone[2] = 1126*
 14: 0x03A0 [0x1D] PRINT_EVENT_MESSAGE(message_id=12539*)
    → "If you were lucky enough to come across any $0, make sure you hang onto them. They may pay dividends later on..."
 15: 0x03A3 [0x23] WAIT_FOR_DIALOG_INTERACTION
 16: 0x03A4 [0x03] Work_Zone[3] = 4099*
 17: 0x03A9 [0x03] Work_Zone[4] = 4096*
 18: 0x03AE [0x1D] PRINT_EVENT_MESSAGE(message_id=12540*)
    → "Also, that reminds me. There is another lesson better learned sooner than later. The items you will no doubt come across known as "crystals," such as $1 and $2, are extremely significant."
 19: 0x03B1 [0x23] WAIT_FOR_DIALOG_INTERACTION
 20: 0x03B2 [0x1D] PRINT_EVENT_MESSAGE(message_id=12541*)
    → "They are truly versatile items that can be used for a number of purposes. These include trading them to guards for certain rewards, and selling them to earn money, just to name a few."
 21: 0x03B5 [0x23] WAIT_FOR_DIALOG_INTERACTION
 22: 0x03B6 [0x1D] PRINT_EVENT_MESSAGE(message_id=12542*)
    → "For now, I'd like to explain more about another of their uses. Namely, the role they play in "synthesis.""
 23: 0x03B9 [0x23] WAIT_FOR_DIALOG_INTERACTION
 24: 0x03BA [0x03] Work_Zone[3] = 926*
 25: 0x03BF [0x03] Work_Zone[4] = 4370*
 26: 0x03C4 [0x03] Work_Zone[5] = 4096*
 27: 0x03C9 [0x1D] PRINT_EVENT_MESSAGE(message_id=12543*)
    → "But first things first. Your reward for completing your last assignment! Here you are, then. $1, $2, and last but not least, $3."
 28: 0x03CC [0x23] WAIT_FOR_DIALOG_INTERACTION
 29: 0x03CD [0x1D] PRINT_EVENT_MESSAGE(message_id=12544*)
    → "Now, using $3 will bring up the synthesis interface. Once there, select the $1 and $2 as the ingredients to be added."
 30: 0x03D0 [0x23] WAIT_FOR_DIALOG_INTERACTION
 31: 0x03D1 [0x1D] PRINT_EVENT_MESSAGE(message_id=12545*)
    → "All that remains is to select the "OK" option, and the synthesis will commence!"
 32: 0x03D4 [0x23] WAIT_FOR_DIALOG_INTERACTION
 33: 0x03D5 [0x1D] PRINT_EVENT_MESSAGE(message_id=12546*)
    → "You'll find that the crafting process will never begin, should the ingredients you've selected not form a viable synthesis recipe. Also, even when your materials are correct, there is always a chance that your synthesis will fail, so please be wary."
 34: 0x03D8 [0x23] WAIT_FOR_DIALOG_INTERACTION
 35: 0x03D9 [0x1D] PRINT_EVENT_MESSAGE(message_id=12547*)
    → "The majority of items which you create via synthesis, as well as most of those dropped by enemies you defeat, can be placed on the "Auction House" for sale."
 36: 0x03DC [0x23] WAIT_FOR_DIALOG_INTERACTION
 37: 0x03DD [0x1D] PRINT_EVENT_MESSAGE(message_id=12548*)
    → "The auction house is an ultra-consumer venue where you can attempt to purchase the wares of other players by placing bids, as well as have other players bid on items you have put up for sale."
 38: 0x03E0 [0x23] WAIT_FOR_DIALOG_INTERACTION
 39: 0x03E1 [0x1D] PRINT_EVENT_MESSAGE(message_id=12549*)
    → "My words alone can do no justice to the vast cornucopia of goods that is the auction house. One simply must see it with one's own eyes."
 40: 0x03E4 [0x23] WAIT_FOR_DIALOG_INTERACTION
 41: 0x03E5 [0x66] LOAD_EXT_SCHEDULER_MAIN: Load scheduler "tlk1" with entities [EventEntity, EventEntity], work=ExtData[1]->WorkLocal[2]
 42: 0x03F4 [0x1D] PRINT_EVENT_MESSAGE(message_id=12518*)
    → "Hmmm, that's quite a lot to cover... Are you with me so far?"
 43: 0x03F7 [0x23] WAIT_FOR_DIALOG_INTERACTION
 44: 0x03F8 [0x05] ExtData[1]->WorkLocal[0] = 1
 45: 0x03FB [0x02] IF !(ExtData[1]->WorkLocal[0] == 0*) GOTO 0x0486
 46: 0x0403 [0x24] CREATE_DIALOG(message_id=12550*, default_option=0*, option_flags=0*)
    → "Are you still with me? [Explain synthesis again./Explain the auction house again./Sure am.]"
 47: 0x040A [0x25] WAIT_DIALOG_SELECT()
 48: 0x040B [0x02] IF !(Work_Zone[0] == 0*) GOTO 0x0440
 49: 0x0413 [0x66] LOAD_EXT_SCHEDULER_MAIN: Load scheduler "tlk0" with entities [EventEntity, EventEntity], work=ExtData[1]->WorkLocal[2]
 50: 0x0422 [0x1D] PRINT_EVENT_MESSAGE(message_id=12544*)
    → "Now, using $3 will bring up the synthesis interface. Once there, select the $1 and $2 as the ingredients to be added."
 51: 0x0425 [0x23] WAIT_FOR_DIALOG_INTERACTION
 52: 0x0426 [0x1D] PRINT_EVENT_MESSAGE(message_id=12545*)
    → "All that remains is to select the "OK" option, and the synthesis will commence!"
 53: 0x0429 [0x23] WAIT_FOR_DIALOG_INTERACTION
 54: 0x042A [0x1D] PRINT_EVENT_MESSAGE(message_id=12546*)
    → "You'll find that the crafting process will never begin, should the ingredients you've selected not form a viable synthesis recipe. Also, even when your materials are correct, there is always a chance that your synthesis will fail, so please be wary."
 55: 0x042D [0x23] WAIT_FOR_DIALOG_INTERACTION
 56: 0x042E [0x66] LOAD_EXT_SCHEDULER_MAIN: Load scheduler "tlk1" with entities [EventEntity, EventEntity], work=ExtData[1]->WorkLocal[2]
 57: 0x043D [0x01] GOTO 0x0483
 58: 0x0440 [0x02] IF !(Work_Zone[0] == 1*) GOTO 0x0475
 59: 0x0448 [0x66] LOAD_EXT_SCHEDULER_MAIN: Load scheduler "tlk0" with entities [EventEntity, EventEntity], work=ExtData[1]->WorkLocal[2]
 60: 0x0457 [0x1D] PRINT_EVENT_MESSAGE(message_id=12547*)
    → "The majority of items which you create via synthesis, as well as most of those dropped by enemies you defeat, can be placed on the "Auction House" for sale."
 61: 0x045A [0x23] WAIT_FOR_DIALOG_INTERACTION
 62: 0x045B [0x1D] PRINT_EVENT_MESSAGE(message_id=12548*)
    → "The auction house is an ultra-consumer venue where you can attempt to purchase the wares of other players by placing bids, as well as have other players bid on items you have put up for sale."
 63: 0x045E [0x23] WAIT_FOR_DIALOG_INTERACTION
 64: 0x045F [0x1D] PRINT_EVENT_MESSAGE(message_id=12549*)
    → "My words alone can do no justice to the vast cornucopia of goods that is the auction house. One simply must see it with one's own eyes."
 65: 0x0462 [0x23] WAIT_FOR_DIALOG_INTERACTION
 66: 0x0463 [0x66] LOAD_EXT_SCHEDULER_MAIN: Load scheduler "tlk1" with entities [EventEntity, EventEntity], work=ExtData[1]->WorkLocal[2]
 67: 0x0472 [0x01] GOTO 0x0483
 68: 0x0475 [0x02] IF !(Work_Zone[0] == 2*) GOTO 0x0483
 69: 0x047D [0x06] ExtData[1]->WorkLocal[0] = 0
 70: 0x0480 [0x01] GOTO 0x0483

SUBROUTINE_0483:
 71: 0x0483 [0x01] GOTO 0x03FB
 72: 0x0486 [0x1D] PRINT_EVENT_MESSAGE(message_id=12527*)
    → "And that brings us to your next assignment!"
 73: 0x0489 [0x23] WAIT_FOR_DIALOG_INTERACTION
 74: 0x048A [0x66] LOAD_EXT_SCHEDULER_MAIN: Load scheduler "tlk0" with entities [EventEntity, EventEntity], work=ExtData[1]->WorkLocal[2]
 75: 0x0499 [0x1D] PRINT_EVENT_MESSAGE(message_id=12551*)
    → "Somewhere in this great city lies our nation's auction house. Seek it out, and report back to me when you have found it."
 76: 0x049C [0x23] WAIT_FOR_DIALOG_INTERACTION
 77: 0x049D [0x1D] PRINT_EVENT_MESSAGE(message_id=12552*)
    → "You needn't worry about going through with an actual purchase. Simply examining any of the "Auction Counters" will more than suffice."
 78: 0x04A0 [0x23] WAIT_FOR_DIALOG_INTERACTION
 79: 0x04A1 [0x66] LOAD_EXT_SCHEDULER_MAIN: Load scheduler "tlk1" with entities [EventEntity, EventEntity], work=ExtData[1]->WorkLocal[2]
 80: 0x04B0 [0x21] END_EVENT
 81: 0x04B1 [0x00] END_REQSTACK()
```

### Event 525

#### Metadata

| Field        | Value    |
|--------------|----------|
| Entrypoint   | 0x04B2   |
| Data Size    | 15 bytes |
| Instructions | 7        |

```
      00 01 02 03 04 05 06 07  08 09 0A 0B 0C 0D 0E 0F
      -- -- -- -- -- -- -- --  -- -- -- -- -- -- -- --
04B0:       1E F0 FF FF 7F 1D  48 80 23 1D 49 80 23 21    ......H.#.I.#!
04C0: 00                                                .               
```

#### Opcodes

```
  0: 0x04B2 [0x1E] EventEntity looks at LocalPlayer and starts talking
  1: 0x04B7 [0x1D] PRINT_EVENT_MESSAGE(message_id=12551*)
    → "Somewhere in this great city lies our nation's auction house. Seek it out, and report back to me when you have found it."
  2: 0x04BA [0x23] WAIT_FOR_DIALOG_INTERACTION
  3: 0x04BB [0x1D] PRINT_EVENT_MESSAGE(message_id=12552*)
    → "You needn't worry about going through with an actual purchase. Simply examining any of the "Auction Counters" will more than suffice."
  4: 0x04BE [0x23] WAIT_FOR_DIALOG_INTERACTION
  5: 0x04BF [0x21] END_EVENT
  6: 0x04C0 [0x00] END_REQSTACK()
```

### Event 526

#### Metadata

| Field        | Value     |
|--------------|-----------|
| Entrypoint   | 0x04C1    |
| Data Size    | 133 bytes |
| Instructions | 37        |

```
      00 01 02 03 04 05 06 07  08 09 0A 0B 0C 0D 0E 0F
      -- -- -- -- -- -- -- --  -- -- -- -- -- -- -- --
04C0:    42 1E F0 FF FF 7F 1D  4A 80 23 1D 4B 80 23 1D   B......J.#.K.#.
04D0: 4C 80 23 6F 70 66 02 00  F8 FF FF 7F F8 FF FF 7F  L.#opf..........
04E0: 74 6C 6B 30 1D 4D 80 23  03 02 10 4E 80 03 03 10  tlk0.M.#...N....
04F0: 4F 80 03 04 10 50 80 1D  51 80 23 1D 52 80 23 1D  O....P..Q.#.R.#.
0500: 53 80 23 1D 54 80 23 1D  55 80 23 66 02 00 F8 FF  S.#.T.#.U.#f....
0510: FF 7F F8 FF FF 7F 74 6C  6B 31 1D 2B 80 23 66 02  ......tlk1.+.#f.
0520: 00 F8 FF FF 7F F8 FF FF  7F 74 6C 6B 30 1D 56 80  .........tlk0.V.
0530: 23 1D 57 80 23 66 02 00  F8 FF FF 7F F8 FF FF 7F  #.W.#f..........
0540: 74 6C 6B 31 21 00                                 tlk1!.          
```

#### Opcodes

```
  0: 0x04C1 [0x42] SET_CLI_EVENT_CANCEL_DATA()
  1: 0x04C2 [0x1E] EventEntity looks at LocalPlayer and starts talking
  2: 0x04C7 [0x1D] PRINT_EVENT_MESSAGE(message_id=12553*)
    → "So, you were able to locate the auction house! Pretty hard to miss, isn't it?"
  3: 0x04CA [0x23] WAIT_FOR_DIALOG_INTERACTION
  4: 0x04CB [0x1D] PRINT_EVENT_MESSAGE(message_id=12554*)
    → "What do you think? It is as I said, yes? Few organizations in this world exceed the auction house in scale. It will never cease to be of use to you throughout your adventures. It would be wise to become adept at using it."
  5: 0x04CE [0x23] WAIT_FOR_DIALOG_INTERACTION
  6: 0x04CF [0x1D] PRINT_EVENT_MESSAGE(message_id=12555*)
    → "And now down to brass tacks! Let's see if we can't get you to up some levels!"
  7: 0x04D2 [0x23] WAIT_FOR_DIALOG_INTERACTION
  8: 0x04D3 [0x6F] WAIT_FRAME_DELAY: Yield until WaitTime reaches zero
  9: 0x04D4 [0x70] WAIT_ENTITY_RENDER_FLAG: Wait while EventEntity->Render.Flags3 bit 2 is set (cancel turn if not)
 10: 0x04D5 [0x66] LOAD_EXT_SCHEDULER_MAIN: Load scheduler "tlk0" with entities [EventEntity, EventEntity], work=ExtData[1]->WorkLocal[2]
 11: 0x04E4 [0x1D] PRINT_EVENT_MESSAGE(message_id=12556*)
    → "There are several items in existence which serve to enhance the number of experience points you receive for defeating enemies."
 12: 0x04E7 [0x23] WAIT_FOR_DIALOG_INTERACTION
 13: 0x04E8 [0x03] Work_Zone[2] = 15761*
 14: 0x04ED [0x03] Work_Zone[3] = 15762*
 15: 0x04F2 [0x03] Work_Zone[4] = 15763*
 16: 0x04F7 [0x1D] PRINT_EVENT_MESSAGE(message_id=12557*)
    → "For example, there are $0, $1, and $2, just to name a few."
 17: 0x04FA [0x23] WAIT_FOR_DIALOG_INTERACTION
 18: 0x04FB [0x1D] PRINT_EVENT_MESSAGE(message_id=12558*)
    → "These are a bit unique in that you must wait a certain amount of time after equipping them before you may use them."
 19: 0x04FE [0x23] WAIT_FOR_DIALOG_INTERACTION
 20: 0x04FF [0x1D] PRINT_EVENT_MESSAGE(message_id=12559*)
    → "There is also a predetermined amount of time, usually quite long, that must pass before these items can be used again. The total number of times you may use any single item is also limited, so be mindful of that as well."
 21: 0x0502 [0x23] WAIT_FOR_DIALOG_INTERACTION
 22: 0x0503 [0x1D] PRINT_EVENT_MESSAGE(message_id=12560*)
    → "Many of these items may be obtained from the same guards that provide you with Signet. You need only exchange "Conquest Points" in order to acquire them."
 23: 0x0506 [0x23] WAIT_FOR_DIALOG_INTERACTION
 24: 0x0507 [0x1D] PRINT_EVENT_MESSAGE(message_id=12561*)
    → "As a matter of fact, for finishing that last assignment, I'm going to give you this $3. With this, you'll be able to obtain $0 without having to use any of your Conquest Points."
 25: 0x050A [0x23] WAIT_FOR_DIALOG_INTERACTION
 26: 0x050B [0x66] LOAD_EXT_SCHEDULER_MAIN: Load scheduler "tlk1" with entities [EventEntity, EventEntity], work=ExtData[1]->WorkLocal[2]
 27: 0x051A [0x1D] PRINT_EVENT_MESSAGE(message_id=12527*)
    → "And that brings us to your next assignment!"
 28: 0x051D [0x23] WAIT_FOR_DIALOG_INTERACTION
 29: 0x051E [0x66] LOAD_EXT_SCHEDULER_MAIN: Load scheduler "tlk0" with entities [EventEntity, EventEntity], work=ExtData[1]->WorkLocal[2]
 30: 0x052D [0x1D] PRINT_EVENT_MESSAGE(message_id=12562*)
    → "Head over to any guard and have a go at exchanging them for something. And after that, see if you can't make it all the way up to level four. I'll be right here waiting for you when you get back."
 31: 0x0530 [0x23] WAIT_FOR_DIALOG_INTERACTION
 32: 0x0531 [0x1D] PRINT_EVENT_MESSAGE(message_id=12563*)
    → "With an experience bonus in place, it should take you practically no time at all. Good luck, and be careful! It can get quite hairy out there!"
 33: 0x0534 [0x23] WAIT_FOR_DIALOG_INTERACTION
 34: 0x0535 [0x66] LOAD_EXT_SCHEDULER_MAIN: Load scheduler "tlk1" with entities [EventEntity, EventEntity], work=ExtData[1]->WorkLocal[2]
 35: 0x0544 [0x21] END_EVENT
 36: 0x0545 [0x00] END_REQSTACK()
```

### Event 527

#### Metadata

| Field        | Value     |
|--------------|-----------|
| Entrypoint   | 0x0546    |
| Data Size    | 120 bytes |
| Instructions | 30        |

```
      00 01 02 03 04 05 06 07  08 09 0A 0B 0C 0D 0E 0F
      -- -- -- -- -- -- -- --  -- -- -- -- -- -- -- --
0540:                   1E F0  FF FF 7F 1D 4C 80 23 6F        ......L.#o
0550: 70 66 02 00 F8 FF FF 7F  F8 FF FF 7F 74 6C 6B 30  pf..........tlk0
0560: 1D 4D 80 23 03 02 10 4E  80 03 03 10 4F 80 03 04  .M.#...N....O...
0570: 10 50 80 1D 51 80 23 1D  52 80 23 1D 53 80 23 1D  .P..Q.#.R.#.S.#.
0580: 54 80 23 66 02 00 F8 FF  FF 7F F8 FF FF 7F 74 6C  T.#f..........tl
0590: 6B 31 1D 2B 80 23 66 02  00 F8 FF FF 7F F8 FF FF  k1.+.#f.........
05A0: 7F 74 6C 6B 30 1D 56 80  23 1D 57 80 23 66 02 00  .tlk0.V.#.W.#f..
05B0: F8 FF FF 7F F8 FF FF 7F  74 6C 6B 31 21 00        ........tlk1!.  
```

#### Opcodes

```
  0: 0x0546 [0x1E] EventEntity looks at LocalPlayer and starts talking
  1: 0x054B [0x1D] PRINT_EVENT_MESSAGE(message_id=12555*)
    → "And now down to brass tacks! Let's see if we can't get you to up some levels!"
  2: 0x054E [0x23] WAIT_FOR_DIALOG_INTERACTION
  3: 0x054F [0x6F] WAIT_FRAME_DELAY: Yield until WaitTime reaches zero
  4: 0x0550 [0x70] WAIT_ENTITY_RENDER_FLAG: Wait while EventEntity->Render.Flags3 bit 2 is set (cancel turn if not)
  5: 0x0551 [0x66] LOAD_EXT_SCHEDULER_MAIN: Load scheduler "tlk0" with entities [EventEntity, EventEntity], work=ExtData[1]->WorkLocal[2]
  6: 0x0560 [0x1D] PRINT_EVENT_MESSAGE(message_id=12556*)
    → "There are several items in existence which serve to enhance the number of experience points you receive for defeating enemies."
  7: 0x0563 [0x23] WAIT_FOR_DIALOG_INTERACTION
  8: 0x0564 [0x03] Work_Zone[2] = 15761*
  9: 0x0569 [0x03] Work_Zone[3] = 15762*
 10: 0x056E [0x03] Work_Zone[4] = 15763*
 11: 0x0573 [0x1D] PRINT_EVENT_MESSAGE(message_id=12557*)
    → "For example, there are $0, $1, and $2, just to name a few."
 12: 0x0576 [0x23] WAIT_FOR_DIALOG_INTERACTION
 13: 0x0577 [0x1D] PRINT_EVENT_MESSAGE(message_id=12558*)
    → "These are a bit unique in that you must wait a certain amount of time after equipping them before you may use them."
 14: 0x057A [0x23] WAIT_FOR_DIALOG_INTERACTION
 15: 0x057B [0x1D] PRINT_EVENT_MESSAGE(message_id=12559*)
    → "There is also a predetermined amount of time, usually quite long, that must pass before these items can be used again. The total number of times you may use any single item is also limited, so be mindful of that as well."
 16: 0x057E [0x23] WAIT_FOR_DIALOG_INTERACTION
 17: 0x057F [0x1D] PRINT_EVENT_MESSAGE(message_id=12560*)
    → "Many of these items may be obtained from the same guards that provide you with Signet. You need only exchange "Conquest Points" in order to acquire them."
 18: 0x0582 [0x23] WAIT_FOR_DIALOG_INTERACTION
 19: 0x0583 [0x66] LOAD_EXT_SCHEDULER_MAIN: Load scheduler "tlk1" with entities [EventEntity, EventEntity], work=ExtData[1]->WorkLocal[2]
 20: 0x0592 [0x1D] PRINT_EVENT_MESSAGE(message_id=12527*)
    → "And that brings us to your next assignment!"
 21: 0x0595 [0x23] WAIT_FOR_DIALOG_INTERACTION
 22: 0x0596 [0x66] LOAD_EXT_SCHEDULER_MAIN: Load scheduler "tlk0" with entities [EventEntity, EventEntity], work=ExtData[1]->WorkLocal[2]
 23: 0x05A5 [0x1D] PRINT_EVENT_MESSAGE(message_id=12562*)
    → "Head over to any guard and have a go at exchanging them for something. And after that, see if you can't make it all the way up to level four. I'll be right here waiting for you when you get back."
 24: 0x05A8 [0x23] WAIT_FOR_DIALOG_INTERACTION
 25: 0x05A9 [0x1D] PRINT_EVENT_MESSAGE(message_id=12563*)
    → "With an experience bonus in place, it should take you practically no time at all. Good luck, and be careful! It can get quite hairy out there!"
 26: 0x05AC [0x23] WAIT_FOR_DIALOG_INTERACTION
 27: 0x05AD [0x66] LOAD_EXT_SCHEDULER_MAIN: Load scheduler "tlk1" with entities [EventEntity, EventEntity], work=ExtData[1]->WorkLocal[2]
 28: 0x05BC [0x21] END_EVENT
 29: 0x05BD [0x00] END_REQSTACK()
```

### Event 528

#### Metadata

| Field        | Value     |
|--------------|-----------|
| Entrypoint   | 0x05BE    |
| Data Size    | 140 bytes |
| Instructions | 42        |

```
      00 01 02 03 04 05 06 07  08 09 0A 0B 0C 0D 0E 0F
      -- -- -- -- -- -- -- --  -- -- -- -- -- -- -- --
05B0:                                            42 1E                B.
05C0: F0 FF FF 7F 1D 58 80 23  6F 70 66 02 00 F8 FF FF  .....X.#opf.....
05D0: 7F F8 FF FF 7F 74 6C 6B  30 1D 59 80 23 1D 5A 80  .....tlk0.Y.#.Z.
05E0: 23 1D 5B 80 23 03 02 10  5C 80 1D 5D 80 23 1D 5E  #.[.#...\..].#.^
05F0: 80 23 1D 5F 80 23 03 03  10 4E 80 1D 60 80 23 1D  .#._.#...N..`.#.
0600: 61 80 23 66 02 00 F8 FF  FF 7F F8 FF FF 7F 74 6C  a.#f..........tl
0610: 6B 31 1D 2B 80 23 66 02  00 F8 FF FF 7F F8 FF FF  k1.+.#f.........
0620: 7F 74 6C 6B 30 1D 62 80  23 1D 63 80 23 1D 64 80  .tlk0.b.#.c.#.d.
0630: 23 1D 65 80 23 1D 66 80  23 66 02 00 F8 FF FF 7F  #.e.#.f.#f......
0640: F8 FF FF 7F 74 6C 6B 31  21 00                    ....tlk1!.      
```

#### Opcodes

```
  0: 0x05BE [0x42] SET_CLI_EVENT_CANCEL_DATA()
  1: 0x05BF [0x1E] EventEntity looks at LocalPlayer and starts talking
  2: 0x05C4 [0x1D] PRINT_EVENT_MESSAGE(message_id=12564*)
    → "Well, well, well! We might make an adventurer out of you just yet! Looks like we've almost washed all that green off of you."
  3: 0x05C7 [0x23] WAIT_FOR_DIALOG_INTERACTION
  4: 0x05C8 [0x6F] WAIT_FRAME_DELAY: Yield until WaitTime reaches zero
  5: 0x05C9 [0x70] WAIT_ENTITY_RENDER_FLAG: Wait while EventEntity->Render.Flags3 bit 2 is set (cancel turn if not)
  6: 0x05CA [0x66] LOAD_EXT_SCHEDULER_MAIN: Load scheduler "tlk0" with entities [EventEntity, EventEntity], work=ExtData[1]->WorkLocal[2]
  7: 0x05D9 [0x1D] PRINT_EVENT_MESSAGE(message_id=12565*)
    → "A bit of bad news now, though. Starting from level 31, anytime you are knocked unconscious your experience points will suffer a deduction."
  8: 0x05DC [0x23] WAIT_FOR_DIALOG_INTERACTION
  9: 0x05DD [0x1D] PRINT_EVENT_MESSAGE(message_id=12566*)
    → "As a general rule, the amount penalized will be about 10% of the total amount required to reach the next level. You have to be more careful than ever from here on out!"
 10: 0x05E0 [0x23] WAIT_FOR_DIALOG_INTERACTION
 11: 0x05E1 [0x1D] PRINT_EVENT_MESSAGE(message_id=12567*)
    → "However, there are ways to minimize this loss of experience points."
 12: 0x05E4 [0x23] WAIT_FOR_DIALOG_INTERACTION
 13: 0x05E5 [0x03] Work_Zone[2] = 16003*
 14: 0x05EA [0x1D] PRINT_EVENT_MESSAGE(message_id=12568*)
    → "Like this, for example. Go on, take it. Your reward for reaching level four. It's called $0."
 15: 0x05ED [0x23] WAIT_FOR_DIALOG_INTERACTION
 16: 0x05EE [0x1D] PRINT_EVENT_MESSAGE(message_id=12569*)
    → "Using this will grant you a status known as "Reraise." Whenever you are rendered unconscious while this effect is in place, you will have the option to revive yourself."
 17: 0x05F1 [0x23] WAIT_FOR_DIALOG_INTERACTION
 18: 0x05F2 [0x1D] PRINT_EVENT_MESSAGE(message_id=12570*)
    → "Choosing to do so will cause you to be resuscitated in the very spot where you have fallen. In addition, as I stated previously, the amount of experience points you lose will be somewhat lessened."
 19: 0x05F5 [0x23] WAIT_FOR_DIALOG_INTERACTION
 20: 0x05F6 [0x03] Work_Zone[3] = 15761*
 21: 0x05FB [0x1D] PRINT_EVENT_MESSAGE(message_id=12571*)
    → "% and similar items work in the same manner as the $1 and the other experience bonus items I mentioned earlier. That is, once equipped, you must wait a certain period of time before they can be used, and there are both cooldown timers and limited charges as well."
 22: 0x05FE [0x23] WAIT_FOR_DIALOG_INTERACTION
 23: 0x05FF [0x1D] PRINT_EVENT_MESSAGE(message_id=12572*)
    → "All of these items as a whole are collectively referred to as "enchanted items." There is a vast array of other enchanted items with myriad other effects that will prove useful on your adventures. It may be worth the time and effort to better acquaint yourself with them at some point."
 24: 0x0602 [0x23] WAIT_FOR_DIALOG_INTERACTION
 25: 0x0603 [0x66] LOAD_EXT_SCHEDULER_MAIN: Load scheduler "tlk1" with entities [EventEntity, EventEntity], work=ExtData[1]->WorkLocal[2]
 26: 0x0612 [0x1D] PRINT_EVENT_MESSAGE(message_id=12527*)
    → "And that brings us to your next assignment!"
 27: 0x0615 [0x23] WAIT_FOR_DIALOG_INTERACTION
 28: 0x0616 [0x66] LOAD_EXT_SCHEDULER_MAIN: Load scheduler "tlk0" with entities [EventEntity, EventEntity], work=ExtData[1]->WorkLocal[2]
 29: 0x0625 [0x1D] PRINT_EVENT_MESSAGE(message_id=12573*)
    → "It seems you're starting to get the hang of things. Next, I'd like for you to go and fight some enemies in [La Theine Plateau/the Konschtat Highlands/Tahrongi Canyon]."
 30: 0x0628 [0x23] WAIT_FOR_DIALOG_INTERACTION
 31: 0x0629 [0x1D] PRINT_EVENT_MESSAGE(message_id=12574*)
    → "[La Theine Plateau/The Konschtat Highlands/Tahrongi Canyon] is located beyond the [southern/northern/northern] reaches of [West Ronfaure/North Gustaberg/East Sarutabaruta]."
 32: 0x062C [0x23] WAIT_FOR_DIALOG_INTERACTION
 33: 0x062D [0x1D] PRINT_EVENT_MESSAGE(message_id=12575*)
    → "You're sure to encounter some new monsters there that you won't find prowling around the outskirts of the city. It may be a bit daunting, so I'll only require that you slay one such beast, and then head on back."
 34: 0x0630 [0x23] WAIT_FOR_DIALOG_INTERACTION
 35: 0x0631 [0x1D] PRINT_EVENT_MESSAGE(message_id=12576*)
    → "Just keep in mind, the farther you stray from the city, the more ferocious monsters tend to be. Don't say I didn't warn you."
 36: 0x0634 [0x23] WAIT_FOR_DIALOG_INTERACTION
 37: 0x0635 [0x1D] PRINT_EVENT_MESSAGE(message_id=12577*)
    → "Make sure to use the "Check" command to determine the strength of your enemy. If you find that you are surrounded by enemies too difficult for you, try heading back to a previous area closer to the city and leveling up a bit more first."
 38: 0x0638 [0x23] WAIT_FOR_DIALOG_INTERACTION
 39: 0x0639 [0x66] LOAD_EXT_SCHEDULER_MAIN: Load scheduler "tlk1" with entities [EventEntity, EventEntity], work=ExtData[1]->WorkLocal[2]
 40: 0x0648 [0x21] END_EVENT
 41: 0x0649 [0x00] END_REQSTACK()
```

### Event 529

#### Metadata

| Field        | Value    |
|--------------|----------|
| Entrypoint   | 0x064A   |
| Data Size    | 27 bytes |
| Instructions | 13       |

```
      00 01 02 03 04 05 06 07  08 09 0A 0B 0C 0D 0E 0F
      -- -- -- -- -- -- -- --  -- -- -- -- -- -- -- --
0640:                                1E F0 FF FF 7F 1D            ......
0650: 62 80 23 1D 63 80 23 1D  64 80 23 1D 65 80 23 1D  b.#.c.#.d.#.e.#.
0660: 66 80 23 21 00                                    f.#!.           
```

#### Opcodes

```
  0: 0x064A [0x1E] EventEntity looks at LocalPlayer and starts talking
  1: 0x064F [0x1D] PRINT_EVENT_MESSAGE(message_id=12573*)
    → "It seems you're starting to get the hang of things. Next, I'd like for you to go and fight some enemies in [La Theine Plateau/the Konschtat Highlands/Tahrongi Canyon]."
  2: 0x0652 [0x23] WAIT_FOR_DIALOG_INTERACTION
  3: 0x0653 [0x1D] PRINT_EVENT_MESSAGE(message_id=12574*)
    → "[La Theine Plateau/The Konschtat Highlands/Tahrongi Canyon] is located beyond the [southern/northern/northern] reaches of [West Ronfaure/North Gustaberg/East Sarutabaruta]."
  4: 0x0656 [0x23] WAIT_FOR_DIALOG_INTERACTION
  5: 0x0657 [0x1D] PRINT_EVENT_MESSAGE(message_id=12575*)
    → "You're sure to encounter some new monsters there that you won't find prowling around the outskirts of the city. It may be a bit daunting, so I'll only require that you slay one such beast, and then head on back."
  6: 0x065A [0x23] WAIT_FOR_DIALOG_INTERACTION
  7: 0x065B [0x1D] PRINT_EVENT_MESSAGE(message_id=12576*)
    → "Just keep in mind, the farther you stray from the city, the more ferocious monsters tend to be. Don't say I didn't warn you."
  8: 0x065E [0x23] WAIT_FOR_DIALOG_INTERACTION
  9: 0x065F [0x1D] PRINT_EVENT_MESSAGE(message_id=12577*)
    → "Make sure to use the "Check" command to determine the strength of your enemy. If you find that you are surrounded by enemies too difficult for you, try heading back to a previous area closer to the city and leveling up a bit more first."
 10: 0x0662 [0x23] WAIT_FOR_DIALOG_INTERACTION
 11: 0x0663 [0x21] END_EVENT
 12: 0x0664 [0x00] END_REQSTACK()
```

### Event 530

#### Metadata

| Field        | Value    |
|--------------|----------|
| Entrypoint   | 0x0665   |
| Data Size    | 76 bytes |
| Instructions | 26       |

```
      00 01 02 03 04 05 06 07  08 09 0A 0B 0C 0D 0E 0F
      -- -- -- -- -- -- -- --  -- -- -- -- -- -- -- --
0660:                42 1E F0  FF FF 7F 1D 67 80 23 6F       B......g.#o
0670: 70 66 02 00 F8 FF FF 7F  F8 FF FF 7F 74 6C 6B 30  pf..........tlk0
0680: 1D 68 80 23 1D 69 80 23  1D 6A 80 23 1D 6B 80 23  .h.#.i.#.j.#.k.#
0690: 1D 6C 80 23 1D 6D 80 23  1D 6E 80 23 1D 6F 80 23  .l.#.m.#.n.#.o.#
06A0: 66 02 00 F8 FF FF 7F F8  FF FF 7F 74 6C 6B 31 21  f..........tlk1!
06B0: 00                                                .               
```

#### Opcodes

```
  0: 0x0665 [0x42] SET_CLI_EVENT_CANCEL_DATA()
  1: 0x0666 [0x1E] EventEntity looks at LocalPlayer and starts talking
  2: 0x066B [0x1D] PRINT_EVENT_MESSAGE(message_id=12578*)
    → "I know those smells... You smell of victory! And of [La Theine Plateau/the Konschtat Highlands/Tahrongi Canyon]! Good on you, <Player>."
  3: 0x066E [0x23] WAIT_FOR_DIALOG_INTERACTION
  4: 0x066F [0x6F] WAIT_FRAME_DELAY: Yield until WaitTime reaches zero
  5: 0x0670 [0x70] WAIT_ENTITY_RENDER_FLAG: Wait while EventEntity->Render.Flags3 bit 2 is set (cancel turn if not)
  6: 0x0671 [0x66] LOAD_EXT_SCHEDULER_MAIN: Load scheduler "tlk0" with entities [EventEntity, EventEntity], work=ExtData[1]->WorkLocal[2]
  7: 0x0680 [0x1D] PRINT_EVENT_MESSAGE(message_id=12579*)
    → "But by now you must be getting sick and tired of fighting the same old monsters so close to the city walls, aren't you?"
  8: 0x0683 [0x23] WAIT_FOR_DIALOG_INTERACTION
  9: 0x0684 [0x1D] PRINT_EVENT_MESSAGE(message_id=12580*)
    → "If you are several levels beyond a monster and totally outclass them in every respect, checking them will yield a "too weak to be worthwhile" result."
 10: 0x0687 [0x23] WAIT_FOR_DIALOG_INTERACTION
 11: 0x0688 [0x1D] PRINT_EVENT_MESSAGE(message_id=12581*)
    → "Killing monsters so far beneath you is borderline cowardice, and will net you no experience points."
 12: 0x068B [0x23] WAIT_FOR_DIALOG_INTERACTION
 13: 0x068C [0x1D] PRINT_EVENT_MESSAGE(message_id=12582*)
    → "If you start to notice more and more of these "too weak" monsters around you, consider moving farther from the city to a more difficult area."
 14: 0x068F [0x23] WAIT_FOR_DIALOG_INTERACTION
 15: 0x0690 [0x1D] PRINT_EVENT_MESSAGE(message_id=12583*)
    → "Congratulations on another milestone! Reward tiiime! You've just earned yourself $0 experience points, hotshot."
 16: 0x0693 [0x23] WAIT_FOR_DIALOG_INTERACTION
 17: 0x0694 [0x1D] PRINT_EVENT_MESSAGE(message_id=12584*)
    → "Let's dive right into your next assignment while that blood is still pumping!"
 18: 0x0697 [0x23] WAIT_FOR_DIALOG_INTERACTION
 19: 0x0698 [0x1D] PRINT_EVENT_MESSAGE(message_id=12585*)
    → "I'm going to up the stakes here a little bit, <Player>. But it's for your own good. I want you to go out and get all the way to level ten."
 20: 0x069B [0x23] WAIT_FOR_DIALOG_INTERACTION
 21: 0x069C [0x1D] PRINT_EVENT_MESSAGE(message_id=12586*)
    → "Considering your current level and the knowledge you have, you shouldn't confine yourself to the immediate vicinity of the city. You're more than capable of besting monsters in [La Theine Plateau/the Konschtat Highlands/Tahrongi Canyon] at this point."
 22: 0x069F [0x23] WAIT_FOR_DIALOG_INTERACTION
 23: 0x06A0 [0x66] LOAD_EXT_SCHEDULER_MAIN: Load scheduler "tlk1" with entities [EventEntity, EventEntity], work=ExtData[1]->WorkLocal[2]
 24: 0x06AF [0x21] END_EVENT
 25: 0x06B0 [0x00] END_REQSTACK()
```

### Event 531

#### Metadata

| Field        | Value    |
|--------------|----------|
| Entrypoint   | 0x06B1   |
| Data Size    | 15 bytes |
| Instructions | 7        |

```
      00 01 02 03 04 05 06 07  08 09 0A 0B 0C 0D 0E 0F
      -- -- -- -- -- -- -- --  -- -- -- -- -- -- -- --
06B0:    1E F0 FF FF 7F 1D 6E  80 23 1D 6F 80 23 21 00   ......n.#.o.#!.
```

#### Opcodes

```
  0: 0x06B1 [0x1E] EventEntity looks at LocalPlayer and starts talking
  1: 0x06B6 [0x1D] PRINT_EVENT_MESSAGE(message_id=12585*)
    → "I'm going to up the stakes here a little bit, <Player>. But it's for your own good. I want you to go out and get all the way to level ten."
  2: 0x06B9 [0x23] WAIT_FOR_DIALOG_INTERACTION
  3: 0x06BA [0x1D] PRINT_EVENT_MESSAGE(message_id=12586*)
    → "Considering your current level and the knowledge you have, you shouldn't confine yourself to the immediate vicinity of the city. You're more than capable of besting monsters in [La Theine Plateau/the Konschtat Highlands/Tahrongi Canyon] at this point."
  4: 0x06BD [0x23] WAIT_FOR_DIALOG_INTERACTION
  5: 0x06BE [0x21] END_EVENT
  6: 0x06BF [0x00] END_REQSTACK()
```

### Event 532

#### Metadata

| Field        | Value     |
|--------------|-----------|
| Entrypoint   | 0x06C0    |
| Data Size    | 178 bytes |
| Instructions | 49        |

```
      00 01 02 03 04 05 06 07  08 09 0A 0B 0C 0D 0E 0F
      -- -- -- -- -- -- -- --  -- -- -- -- -- -- -- --
06C0: 42 1E F0 FF FF 7F 1D 70  80 23 1D 71 80 23 1D 72  B......p.#.q.#.r
06D0: 80 23 1D 73 80 23 6F 70  66 02 00 F8 FF FF 7F F8  .#.s.#opf.......
06E0: FF FF 7F 74 6C 6B 30 1D  74 80 23 1D 75 80 23 1D  ...tlk0.t.#.u.#.
06F0: 76 80 23 1D 77 80 23 66  02 00 F8 FF FF 7F F8 FF  v.#.w.#f........
0700: FF 7F 74 6C 6B 31 1D 78  80 23 66 02 00 F8 FF FF  ..tlk1.x.#f.....
0710: 7F F8 FF FF 7F 74 6C 6B  30 1D 79 80 23 1D 7A 80  .....tlk0.y.#.z.
0720: 23 1D 7B 80 23 02 04 10  06 80 80 35 07 03 02 10  #.{.#......5....
0730: 7C 80 01 55 07 02 04 10  00 80 80 45 07 03 02 10  |..U.......E....
0740: 7D 80 01 55 07 02 04 10  23 80 80 55 07 03 02 10  }..U....#..U....
0750: 7E 80 01 55 07 1D 7F 80  23 1D 80 80 23 1D 81 80  ~..U....#...#...
0760: 23 66 02 00 F8 FF FF 7F  F8 FF FF 7F 74 6C 6B 31  #f..........tlk1
0770: 21 00                                             !.              
```

#### Opcodes

```
  0: 0x06C0 [0x42] SET_CLI_EVENT_CANCEL_DATA()
  1: 0x06C1 [0x1E] EventEntity looks at LocalPlayer and starts talking
  2: 0x06C6 [0x1D] PRINT_EVENT_MESSAGE(message_id=12587*)
    → "I knew you wouldn't disappoint me. So how's it feel? You're moving on up in the world. Time to put some money in those pockets. A $1-gil reward, just for you. Don't spend it all in one place."
  3: 0x06C9 [0x23] WAIT_FOR_DIALOG_INTERACTION
  4: 0x06CA [0x1D] PRINT_EVENT_MESSAGE(message_id=12588*)
    → "By now you should be relatively familiar with the basics of battle. Am I right or am I right?"
  5: 0x06CD [0x23] WAIT_FOR_DIALOG_INTERACTION
  6: 0x06CE [0x1D] PRINT_EVENT_MESSAGE(message_id=12589*)
    → "But don't go getting too cocky! This world is chock-full of monsters just waiting for the opportune moment to pounce and knock you out cold!"
  7: 0x06D1 [0x23] WAIT_FOR_DIALOG_INTERACTION
  8: 0x06D2 [0x1D] PRINT_EVENT_MESSAGE(message_id=12590*)
    → "Depending on the type of monster, there are several factors that could cause them to attack you without provocation. I'll enumerate some of the more common types of this blatantly aggressive behavior for you."
  9: 0x06D5 [0x23] WAIT_FOR_DIALOG_INTERACTION
 10: 0x06D6 [0x6F] WAIT_FRAME_DELAY: Yield until WaitTime reaches zero
 11: 0x06D7 [0x70] WAIT_ENTITY_RENDER_FLAG: Wait while EventEntity->Render.Flags3 bit 2 is set (cancel turn if not)
 12: 0x06D8 [0x66] LOAD_EXT_SCHEDULER_MAIN: Load scheduler "tlk0" with entities [EventEntity, EventEntity], work=ExtData[1]->WorkLocal[2]
 13: 0x06E7 [0x1D] PRINT_EVENT_MESSAGE(message_id=12591*)
    → "For starters, and most obviously, there are monsters which detect by sight. They will attack you whenever you enter their field of vision. This is the most prevalent type. They simply cannot stand the sight of adventurers."
 14: 0x06EA [0x23] WAIT_FOR_DIALOG_INTERACTION
 15: 0x06EB [0x1D] PRINT_EVENT_MESSAGE(message_id=12592*)
    → "Next, there are those monsters which detect by sound. They can be a bit more dangerous than visually-dependent monsters, in that they will attack the source of any sound within a certain prescribed radius. You may not think it, but there are a great many monsters whose aural senses are far more developed than their sense of sight."
 16: 0x06EE [0x23] WAIT_FOR_DIALOG_INTERACTION
 17: 0x06EF [0x1D] PRINT_EVENT_MESSAGE(message_id=12593*)
    → "There are also monsters which detect their enemies' spellcasting. Much like the sound-detecting types, these monsters will attack the source of any magic casting within a certain radius of their being. Not surprisingly, many monsters in the arcana family rely heavily on this method of detection, which covers a comparatively larger range than the aforementioned sense of hearing."
 18: 0x06F2 [0x23] WAIT_FOR_DIALOG_INTERACTION
 19: 0x06F3 [0x1D] PRINT_EVENT_MESSAGE(message_id=12594*)
    → "And finally, there are opportunistic monsters which prey upon the weak and near-dead, pinpointing their prey by detecting low hit points. The family of undead creatures abound in monsters of this type. Even more distressing, the fewer the hit points you have, the farther the distance from which you can be detected."
 20: 0x06F6 [0x23] WAIT_FOR_DIALOG_INTERACTION
 21: 0x06F7 [0x66] LOAD_EXT_SCHEDULER_MAIN: Load scheduler "tlk1" with entities [EventEntity, EventEntity], work=ExtData[1]->WorkLocal[2]
 22: 0x0706 [0x1D] PRINT_EVENT_MESSAGE(message_id=12595*)
    → "Your next assignment will attempt to familiarize you with these detection methods, and train you to become adept at avoiding them."
 23: 0x0709 [0x23] WAIT_FOR_DIALOG_INTERACTION
 24: 0x070A [0x66] LOAD_EXT_SCHEDULER_MAIN: Load scheduler "tlk0" with entities [EventEntity, EventEntity], work=ExtData[1]->WorkLocal[2]
 25: 0x0719 [0x1D] PRINT_EVENT_MESSAGE(message_id=12596*)
    → "I want you to travel once again to [La Theine Plateau/the Konschtat Highlands/Tahrongi Canyon], and retrieve an item known as a "Gate Crystal.""
 26: 0x071C [0x23] WAIT_FOR_DIALOG_INTERACTION
 27: 0x071D [0x1D] PRINT_EVENT_MESSAGE(message_id=12597*)
