# 17739923 - Diederik

## Common Data

| Field            | Value                    |
|------------------|--------------------------|
| Zone             | Bastok Markets (ID: 235) |
| Block Size       | 648 bytes                |
| Total Events     | 23                       |
| References Count | 48                       |

## List of Events

| Event ID                   | Entrypoint   |   Size |   Instructions |
|----------------------------|--------------|--------|----------------|
| [65535](#event-65535)      | 0x0000       |      1 |              1 |
| [403](#event-403)          | 0x0001       |      1 |              1 |
| [65535.1](#event-655351)   | 0x0002       |     36 |              8 |
| [65535.2](#event-655352)   | 0x0026       |     14 |              4 |
| [65535.3](#event-655353)   | 0x0034       |     14 |              4 |
| [65535.4](#event-655354)   | 0x0042       |     23 |              5 |
| [65535.5](#event-655355)   | 0x0059       |     32 |              7 |
| [65535.6](#event-655356)   | 0x0079       |      8 |              2 |
| [65535.7](#event-655357)   | 0x0081       |     14 |              4 |
| [404](#event-404)          | 0x008F       |      1 |              1 |
| [65535.8](#event-655358)   | 0x0090       |     23 |              5 |
| [65535.9](#event-655359)   | 0x00A7       |     13 |              3 |
| [65535.10](#event-6553510) | 0x00B4       |     13 |              3 |
| [65535.11](#event-6553511) | 0x00C1       |     14 |              4 |
| [406](#event-406)          | 0x00CF       |      1 |              1 |
| [405](#event-405)          | 0x00D0       |      1 |              1 |
| [65535.12](#event-6553512) | 0x00D1       |     36 |              8 |
| [65535.13](#event-6553513) | 0x00F5       |     14 |              4 |
| [65535.14](#event-6553514) | 0x0103       |     15 |              3 |
| [65535.15](#event-6553515) | 0x0112       |     15 |              3 |
| [65535.16](#event-6553516) | 0x0121       |     15 |              5 |
| [65535.17](#event-6553517) | 0x0130       |     37 |              6 |
| [65535.18](#event-6553518) | 0x0155       |      6 |              2 |

## DAT References (imed_data)

|   Index | Hex Value   |   Dec Value |
|---------|-------------|-------------|
|       0 | 0xFFFF1DF3  |  4294909427 |
|       1 | 0xFFFE0729  |  4294838057 |
|       2 | 0xFFFFF060  |  4294963296 |
|       3 | 0x02B6      |         694 |
|       4 | 0x000D      |          13 |
|       5 | 0xFFFF20EB  |  4294910187 |
|       6 | 0xFFFDFD37  |  4294835511 |
|       7 | 0xFFFF2036  |  4294910006 |
|       8 | 0xFFFDF9D1  |  4294834641 |
|       9 | 0xFFFF237D  |  4294910845 |
|      10 | 0xFFFDF359  |  4294832985 |
|      11 | 0xFFFF2466  |  4294911078 |
|      12 | 0xFFFDEFE0  |  4294832096 |
|      13 | 0xFFFEFDAE  |  4294901166 |
|      14 | 0xFFFE2C93  |  4294847635 |
|      15 | 0xFFFEF15F  |  4294898015 |
|      16 | 0xFFFE3EA0  |  4294852256 |
|      17 | 0xFFFEE6F4  |  4294895348 |
|      18 | 0xFFFE3A8C  |  4294851212 |
|      19 | 0xFFFFF061  |  4294963297 |
|      20 | 0xFFFF2151  |  4294910289 |
|      21 | 0xFFFDFAC3  |  4294834883 |
|      22 | 0x0197      |         407 |
|      23 | 0xFFFF2349  |  4294910793 |
|      24 | 0xFFFDF285  |  4294832773 |
|      25 | 0xFFFE911E  |  4294873374 |
|      26 | 0xFFFE3F41  |  4294852417 |
|      27 | 0xFFFE7946  |  4294867270 |
|      28 | 0xFFFE3EEC  |  4294852332 |
|      29 | 0xFFFF1640  |  4294907456 |
|      30 | 0xFFFE0B85  |  4294839173 |
|      31 | 0x063C      |        1596 |
|      32 | 0xFFFF1B05  |  4294908677 |
|      33 | 0xFFFE051E  |  4294837534 |
|      34 | 0xFFFF1EBF  |  4294909631 |
|      35 | 0xFFFDFAE0  |  4294834912 |
|      36 | 0xFFFF1DBB  |  4294909371 |
|      37 | 0xFFFDFEDC  |  4294835932 |
|      38 | 0x06F8      |        1784 |
|      39 | 0xFFFF1E78  |  4294909560 |
|      40 | 0xFFFDF434  |  4294833204 |
|      41 | 0x04D4      |        1236 |
|      42 | 0xFFFF1D9F  |  4294909343 |
|      43 | 0xFFFDEEE8  |  4294831848 |
|      44 | 0x0001      |           1 |
|      45 | 0x00CB      |         203 |
|      46 | 0x0000      |           0 |
|      47 | 0x005A      |          90 |

## Events

### Event 65535

#### Metadata

| Field        | Value   |
|--------------|---------|
| Entrypoint   | 0x0000  |
| Data Size    | 1 bytes |
| Instructions | 1       |

```
      00 01 02 03 04 05 06 07  08 09 0A 0B 0C 0D 0E 0F
      -- -- -- -- -- -- -- --  -- -- -- -- -- -- -- --
0000: 00                                                .               
```

#### Opcodes

```
  0: 0x0000 [0x00] END_REQSTACK()
```

### Event 403

#### Metadata

| Field        | Value   |
|--------------|---------|
| Entrypoint   | 0x0001  |
| Data Size    | 1 bytes |
| Instructions | 1       |

```
      00 01 02 03 04 05 06 07  08 09 0A 0B 0C 0D 0E 0F
      -- -- -- -- -- -- -- --  -- -- -- -- -- -- -- --
0000:    00                                              .              
```

#### Opcodes

```
  0: 0x0001 [0x00] END_REQSTACK()
```

### Event 65535.1

#### Metadata

| Field        | Value    |
|--------------|----------|
| Entrypoint   | 0x0002   |
| Data Size    | 36 bytes |
| Instructions | 8        |

```
      00 01 02 03 04 05 06 07  08 09 0A 0B 0C 0D 0E 0F
      -- -- -- -- -- -- -- --  -- -- -- -- -- -- -- --
0000:       2F 00 F8 FF FF 7F  37 00 80 01 80 02 80 03    /.....7.......
0010: 80 22 00 80 F8 FF FF 7F  32 04 80 1F 00 05 80 06  ."......2.......
0020: 80 02 80 1F 01 00                                 ......          
```

#### Opcodes

```
  0: 0x0002 [0x2F] EventEntity->Render.Flags0 &= ~0x80000 // Bit 19
  1: 0x0008 [0x37] UPDATE_EVENT_POSITION_AND_DIR: x=-57.869*, z=-129.239*, y=-4.000*, direction=61.0°*
  2: 0x0011 [0x22] ENTITY_HIDE_FLAG(enabled=0x00)
  3: 0x0013 [0x80] LOAD_WAIT(entity=EventEntity)
  4: 0x0018 [0x32] ExtData[1]->MainSpeed = 13* * 0.1
  5: 0x001B [0x1F] MOVE_ENTITY: EventEntity moves to X=-57.109*, Z=-131.785*, Y=-4.000*
  6: 0x0023 [0x1F] MOVE_ENTITY: Update entity position (mode=1)
  7: 0x0025 [0x00] END_REQSTACK()
```

### Event 65535.2

#### Metadata

| Field        | Value    |
|--------------|----------|
| Entrypoint   | 0x0026   |
| Data Size    | 14 bytes |
| Instructions | 4        |

```
      00 01 02 03 04 05 06 07  08 09 0A 0B 0C 0D 0E 0F
      -- -- -- -- -- -- -- --  -- -- -- -- -- -- -- --
0020:                   32 04  80 1F 00 07 80 08 80 02        2.........
0030: 80 1F 01 00                                       ....            
```

#### Opcodes

```
  0: 0x0026 [0x32] ExtData[1]->MainSpeed = 13* * 0.1
  1: 0x0029 [0x1F] MOVE_ENTITY: EventEntity moves to X=-57.290*, Z=-132.655*, Y=-4.000*
  2: 0x0031 [0x1F] MOVE_ENTITY: Update entity position (mode=1)
  3: 0x0033 [0x00] END_REQSTACK()
```

### Event 65535.3

#### Metadata

| Field        | Value    |
|--------------|----------|
| Entrypoint   | 0x0034   |
| Data Size    | 14 bytes |
| Instructions | 4        |

```
      00 01 02 03 04 05 06 07  08 09 0A 0B 0C 0D 0E 0F
      -- -- -- -- -- -- -- --  -- -- -- -- -- -- -- --
0030:             32 04 80 1F  00 09 80 0A 80 02 80 1F      2...........
0040: 01 00                                             ..              
```

#### Opcodes

```
  0: 0x0034 [0x32] ExtData[1]->MainSpeed = 13* * 0.1
  1: 0x0037 [0x1F] MOVE_ENTITY: EventEntity moves to X=-56.451*, Z=-134.311*, Y=-4.000*
  2: 0x003F [0x1F] MOVE_ENTITY: Update entity position (mode=1)
  3: 0x0041 [0x00] END_REQSTACK()
```

### Event 65535.4

#### Metadata

| Field        | Value    |
|--------------|----------|
| Entrypoint   | 0x0042   |
| Data Size    | 23 bytes |
| Instructions | 5        |

```
      00 01 02 03 04 05 06 07  08 09 0A 0B 0C 0D 0E 0F
      -- -- -- -- -- -- -- --  -- -- -- -- -- -- -- --
0040:       32 04 80 1F 00 0B  80 0C 80 02 80 1F 01 4A    2............J
0050: 93 B0 0E 01 F0 FF FF 7F  00                       .........       
```

#### Opcodes

```
  0: 0x0042 [0x32] ExtData[1]->MainSpeed = 13* * 0.1
  1: 0x0045 [0x1F] MOVE_ENTITY: EventEntity moves to X=-56.218*, Z=-135.200*, Y=-4.000*
  2: 0x004D [0x1F] MOVE_ENTITY: Update entity position (mode=1)
  3: 0x004F [0x4A] Diederik (ID: 17739923/0x010EB093) looks at LocalPlayer
  4: 0x0058 [0x00] END_REQSTACK()
```

### Event 65535.5

#### Metadata

| Field        | Value    |
|--------------|----------|
| Entrypoint   | 0x0059   |
| Data Size    | 32 bytes |
| Instructions | 7        |

```
      00 01 02 03 04 05 06 07  08 09 0A 0B 0C 0D 0E 0F
      -- -- -- -- -- -- -- --  -- -- -- -- -- -- -- --
0050:                             4E 00 93 B0 0E 01 36           N.....6
0060: 0D 80 0E 80 02 80 80 F8  FF FF 7F 32 04 80 1F 00  ...........2....
0070: 0F 80 10 80 02 80 1F 01  00                       .........       
```

#### Opcodes

```
  0: 0x0059 [0x4E] SET_ENTITY_HIDE_FLAG: Show Diederik (ID: 17739923/0x010EB093)
  1: 0x005F [0x36] SET_ENTITY_EVENT_POSITION(pos_x=-66.130*, pos_z=-119.661*, pos_y=-4.000*)
  2: 0x0066 [0x80] LOAD_WAIT(entity=EventEntity)
  3: 0x006B [0x32] ExtData[1]->MainSpeed = 13* * 0.1
  4: 0x006E [0x1F] MOVE_ENTITY: EventEntity moves to X=-69.281*, Z=-115.040*, Y=-4.000*
  5: 0x0076 [0x1F] MOVE_ENTITY: Update entity position (mode=1)
  6: 0x0078 [0x00] END_REQSTACK()
```

### Event 65535.6

#### Metadata

| Field        | Value   |
|--------------|---------|
| Entrypoint   | 0x0079  |
| Data Size    | 8 bytes |
| Instructions | 2       |

```
      00 01 02 03 04 05 06 07  08 09 0A 0B 0C 0D 0E 0F
      -- -- -- -- -- -- -- --  -- -- -- -- -- -- -- --
0070:                             36 0F 80 10 80 02 80           6......
0080: 00                                                .               
```

#### Opcodes

```
  0: 0x0079 [0x36] SET_ENTITY_EVENT_POSITION(pos_x=-69.281*, pos_z=-115.040*, pos_y=-4.000*)
  1: 0x0080 [0x00] END_REQSTACK()
```

### Event 65535.7

#### Metadata

| Field        | Value    |
|--------------|----------|
| Entrypoint   | 0x0081   |
| Data Size    | 14 bytes |
| Instructions | 4        |

```
      00 01 02 03 04 05 06 07  08 09 0A 0B 0C 0D 0E 0F
      -- -- -- -- -- -- -- --  -- -- -- -- -- -- -- --
0080:    32 04 80 1F 00 11 80  12 80 13 80 1F 01 00      2............. 
```

#### Opcodes

```
  0: 0x0081 [0x32] ExtData[1]->MainSpeed = 13* * 0.1
  1: 0x0084 [0x1F] MOVE_ENTITY: EventEntity moves to X=-71.948*, Z=-116.084*, Y=-3.999*
  2: 0x008C [0x1F] MOVE_ENTITY: Update entity position (mode=1)
  3: 0x008E [0x00] END_REQSTACK()
```

### Event 404

#### Metadata

| Field        | Value   |
|--------------|---------|
| Entrypoint   | 0x008F  |
| Data Size    | 1 bytes |
| Instructions | 1       |

```
      00 01 02 03 04 05 06 07  08 09 0A 0B 0C 0D 0E 0F
      -- -- -- -- -- -- -- --  -- -- -- -- -- -- -- --
0080:                                               00                 .
```

#### Opcodes

```
  0: 0x008F [0x00] END_REQSTACK()
```

### Event 65535.8

#### Metadata

| Field        | Value    |
|--------------|----------|
| Entrypoint   | 0x0090   |
| Data Size    | 23 bytes |
| Instructions | 5        |

```
      00 01 02 03 04 05 06 07  08 09 0A 0B 0C 0D 0E 0F
      -- -- -- -- -- -- -- --  -- -- -- -- -- -- -- --
0090: 2F 00 F8 FF FF 7F 22 00  37 14 80 15 80 02 80 16  /.....".7.......
00A0: 80 80 F8 FF FF 7F 00                              .......         
```

#### Opcodes

```
  0: 0x0090 [0x2F] EventEntity->Render.Flags0 &= ~0x80000 // Bit 19
  1: 0x0096 [0x22] ENTITY_HIDE_FLAG(enabled=0x00)
  2: 0x0098 [0x37] UPDATE_EVENT_POSITION_AND_DIR: x=-57.007*, z=-132.413*, y=-4.000*, direction=35.8°*
  3: 0x00A1 [0x80] LOAD_WAIT(entity=EventEntity)
  4: 0x00A6 [0x00] END_REQSTACK()
```

### Event 65535.9

#### Metadata

| Field        | Value    |
|--------------|----------|
| Entrypoint   | 0x00A7   |
| Data Size    | 13 bytes |
| Instructions | 3        |

```
      00 01 02 03 04 05 06 07  08 09 0A 0B 0C 0D 0E 0F
      -- -- -- -- -- -- -- --  -- -- -- -- -- -- -- --
00A0:                      36  17 80 18 80 02 80 80 F8         6........
00B0: FF FF 7F 00                                       ....            
```

#### Opcodes

```
  0: 0x00A7 [0x36] SET_ENTITY_EVENT_POSITION(pos_x=-56.503*, pos_z=-134.523*, pos_y=-4.000*)
  1: 0x00AE [0x80] LOAD_WAIT(entity=EventEntity)
  2: 0x00B3 [0x00] END_REQSTACK()
```

### Event 65535.10

#### Metadata

| Field        | Value    |
|--------------|----------|
| Entrypoint   | 0x00B4   |
| Data Size    | 13 bytes |
| Instructions | 3        |

```
      00 01 02 03 04 05 06 07  08 09 0A 0B 0C 0D 0E 0F
      -- -- -- -- -- -- -- --  -- -- -- -- -- -- -- --
00B0:             36 19 80 1A  80 02 80 80 F8 FF FF 7F      6...........
00C0: 00                                                .               
```

#### Opcodes

```
  0: 0x00B4 [0x36] SET_ENTITY_EVENT_POSITION(pos_x=-93.922*, pos_z=-114.879*, pos_y=-4.000*)
  1: 0x00BB [0x80] LOAD_WAIT(entity=EventEntity)
  2: 0x00C0 [0x00] END_REQSTACK()
```

### Event 65535.11

#### Metadata

| Field        | Value    |
|--------------|----------|
| Entrypoint   | 0x00C1   |
| Data Size    | 14 bytes |
| Instructions | 4        |

```
      00 01 02 03 04 05 06 07  08 09 0A 0B 0C 0D 0E 0F
      -- -- -- -- -- -- -- --  -- -- -- -- -- -- -- --
00C0:    32 04 80 1F 00 1B 80  1C 80 02 80 1F 01 00      2............. 
```

#### Opcodes

```
  0: 0x00C1 [0x32] ExtData[1]->MainSpeed = 13* * 0.1
  1: 0x00C4 [0x1F] MOVE_ENTITY: EventEntity moves to X=-100.026*, Z=-114.964*, Y=-4.000*
  2: 0x00CC [0x1F] MOVE_ENTITY: Update entity position (mode=1)
  3: 0x00CE [0x00] END_REQSTACK()
```

### Event 406

#### Metadata

| Field        | Value   |
|--------------|---------|
| Entrypoint   | 0x00CF  |
| Data Size    | 1 bytes |
| Instructions | 1       |

```
      00 01 02 03 04 05 06 07  08 09 0A 0B 0C 0D 0E 0F
      -- -- -- -- -- -- -- --  -- -- -- -- -- -- -- --
00C0:                                               00                 .
```

#### Opcodes

```
  0: 0x00CF [0x00] END_REQSTACK()
```

### Event 405

#### Metadata

| Field        | Value   |
|--------------|---------|
| Entrypoint   | 0x00D0  |
| Data Size    | 1 bytes |
| Instructions | 1       |

```
      00 01 02 03 04 05 06 07  08 09 0A 0B 0C 0D 0E 0F
      -- -- -- -- -- -- -- --  -- -- -- -- -- -- -- --
00D0: 00                                                .               
```

#### Opcodes

```
  0: 0x00D0 [0x00] END_REQSTACK()
```

### Event 65535.12

#### Metadata

| Field        | Value    |
|--------------|----------|
| Entrypoint   | 0x00D1   |
| Data Size    | 36 bytes |
| Instructions | 8        |

```
      00 01 02 03 04 05 06 07  08 09 0A 0B 0C 0D 0E 0F
      -- -- -- -- -- -- -- --  -- -- -- -- -- -- -- --
00D0:    2F 00 F8 FF FF 7F 22  00 37 1D 80 1E 80 02 80   /.....".7......
00E0: 1F 80 80 F8 FF FF 7F 32  04 80 1F 00 20 80 21 80  .......2.... .!.
00F0: 02 80 1F 01 00                                    .....           
```

#### Opcodes

```
  0: 0x00D1 [0x2F] EventEntity->Render.Flags0 &= ~0x80000 // Bit 19
  1: 0x00D7 [0x22] ENTITY_HIDE_FLAG(enabled=0x00)
  2: 0x00D9 [0x37] UPDATE_EVENT_POSITION_AND_DIR: x=-59.840*, z=-128.123*, y=-4.000*, direction=140.3°*
  3: 0x00E2 [0x80] LOAD_WAIT(entity=EventEntity)
  4: 0x00E7 [0x32] ExtData[1]->MainSpeed = 13* * 0.1
  5: 0x00EA [0x1F] MOVE_ENTITY: EventEntity moves to X=-58.619*, Z=-129.762*, Y=-4.000*
  6: 0x00F2 [0x1F] MOVE_ENTITY: Update entity position (mode=1)
  7: 0x00F4 [0x00] END_REQSTACK()
```

### Event 65535.13

#### Metadata

| Field        | Value    |
|--------------|----------|
| Entrypoint   | 0x00F5   |
| Data Size    | 14 bytes |
| Instructions | 4        |

```
      00 01 02 03 04 05 06 07  08 09 0A 0B 0C 0D 0E 0F
      -- -- -- -- -- -- -- --  -- -- -- -- -- -- -- --
00F0:                32 04 80  1F 00 22 80 23 80 02 80       2....".#...
0100: 1F 01 00                                          ...             
```

#### Opcodes

```
  0: 0x00F5 [0x32] ExtData[1]->MainSpeed = 13* * 0.1
  1: 0x00F8 [0x1F] MOVE_ENTITY: EventEntity moves to X=-57.665*, Z=-132.384*, Y=-4.000*
  2: 0x0100 [0x1F] MOVE_ENTITY: Update entity position (mode=1)
  3: 0x0102 [0x00] END_REQSTACK()
```

### Event 65535.14

#### Metadata

| Field        | Value    |
|--------------|----------|
| Entrypoint   | 0x0103   |
| Data Size    | 15 bytes |
| Instructions | 3        |

```
      00 01 02 03 04 05 06 07  08 09 0A 0B 0C 0D 0E 0F
      -- -- -- -- -- -- -- --  -- -- -- -- -- -- -- --
0100:          37 24 80 25 80  02 80 26 80 80 F8 FF FF     7$.%...&.....
0110: 7F 00                                             ..              
```

#### Opcodes

```
  0: 0x0103 [0x37] UPDATE_EVENT_POSITION_AND_DIR: x=-57.925*, z=-131.364*, y=-4.000*, direction=156.8°*
  1: 0x010C [0x80] LOAD_WAIT(entity=EventEntity)
  2: 0x0111 [0x00] END_REQSTACK()
```

### Event 65535.15

#### Metadata

| Field        | Value    |
|--------------|----------|
| Entrypoint   | 0x0112   |
| Data Size    | 15 bytes |
| Instructions | 3        |

```
      00 01 02 03 04 05 06 07  08 09 0A 0B 0C 0D 0E 0F
      -- -- -- -- -- -- -- --  -- -- -- -- -- -- -- --
0110:       37 27 80 28 80 02  80 29 80 80 F8 FF FF 7F    7'.(...)......
0120: 00                                                .               
```

#### Opcodes

```
  0: 0x0112 [0x37] UPDATE_EVENT_POSITION_AND_DIR: x=-57.736*, z=-134.092*, y=-4.000*, direction=108.6°*
  1: 0x011B [0x80] LOAD_WAIT(entity=EventEntity)
  2: 0x0120 [0x00] END_REQSTACK()
```

### Event 65535.16

#### Metadata

| Field        | Value    |
|--------------|----------|
| Entrypoint   | 0x0121   |
| Data Size    | 15 bytes |
| Instructions | 5        |

```
      00 01 02 03 04 05 06 07  08 09 0A 0B 0C 0D 0E 0F
      -- -- -- -- -- -- -- --  -- -- -- -- -- -- -- --
0120:    32 04 80 1F 00 2A 80  2B 80 02 80 1F 01 6F 00   2....*.+.....o.
```

#### Opcodes

```
  0: 0x0121 [0x32] ExtData[1]->MainSpeed = 13* * 0.1
  1: 0x0124 [0x1F] MOVE_ENTITY: EventEntity moves to X=-57.953*, Z=-135.448*, Y=-4.000*
  2: 0x012C [0x1F] MOVE_ENTITY: Update entity position (mode=1)
  3: 0x012E [0x6F] WAIT_FRAME_DELAY: Yield until WaitTime reaches zero
  4: 0x012F [0x00] END_REQSTACK()
```

### Event 65535.17

#### Metadata

| Field        | Value    |
|--------------|----------|
| Entrypoint   | 0x0130   |
| Data Size    | 37 bytes |
| Instructions | 6        |

```
      00 01 02 03 04 05 06 07  08 09 0A 0B 0C 0D 0E 0F
      -- -- -- -- -- -- -- --  -- -- -- -- -- -- -- --
0130: 03 00 00 2C 80 02 00 00  2C 80 00 54 01 45 2D 80  ...,....,..T.E-.
0140: F0 FF FF 7F F0 FF FF 7F  6B 69 72 61 2E 80 1C 2F  ........kira.../
0150: 80 01 35 01 00                                    ..5..           
```

#### Opcodes

```
  0: 0x0130 [0x03] ExtData[1]->WorkLocal[0] = 1*
  1: 0x0135 [0x02] IF !(ExtData[1]->WorkLocal[0] == 1*) GOTO 0x0154
  2: 0x013D [0x45] LOAD_SCHEDULED_TASK: Load scheduler "kira" with entities [LocalPlayer, LocalPlayer], work=[203*, 0*]
  3: 0x014E [0x1C] WAIT(90* ticks)
  4: 0x0151 [0x01] GOTO 0x0135
  5: 0x0154 [0x00] END_REQSTACK()
```

### Event 65535.18

#### Metadata

| Field        | Value   |
|--------------|---------|
| Entrypoint   | 0x0155  |
| Data Size    | 6 bytes |
| Instructions | 2       |

```
      00 01 02 03 04 05 06 07  08 09 0A 0B 0C 0D 0E 0F
      -- -- -- -- -- -- -- --  -- -- -- -- -- -- -- --
0150:                03 00 00  2E 80 00                      ......     
```

#### Opcodes

```
  0: 0x0155 [0x03] ExtData[1]->WorkLocal[0] = 0*
  1: 0x015A [0x00] END_REQSTACK()
```
