# 17739778 - Horatius

## Common Data

| Field            | Value                    |
|------------------|--------------------------|
| Zone             | Bastok Markets (ID: 235) |
| Block Size       | 372 bytes                |
| Total Events     | 5                        |
| References Count | 21                       |

## List of Events

| Event ID              | Entrypoint   |   Size |   Instructions |
|-----------------------|--------------|--------|----------------|
| [65535](#event-65535) | 0x0000       |      1 |              1 |
| [100](#event-100)     | 0x0001       |    145 |             31 |
| [101](#event-101)     | 0x0092       |     57 |             14 |
| [110](#event-110)     | 0x00CB       |     11 |              5 |
| [428](#event-428)     | 0x00D6       |     37 |             11 |

## DAT References (imed_data)

|   Index | Hex Value   |   Dec Value |
|---------|-------------|-------------|
|       0 | 0x0229      |         553 |
|       1 | 0x1D2A      |        7466 |
|       2 | 0x1D2B      |        7467 |
|       3 | 0x0000      |           0 |
|       4 | 0x00EE      |         238 |
|       5 | 0x1D2D      |        7469 |
|       6 | 0x1D2E      |        7470 |
|       7 | 0x1D2F      |        7471 |
|       8 | 0x1D30      |        7472 |
|       9 | 0x1D31      |        7473 |
|      10 | 0x0001      |           1 |
|      11 | 0x1D2C      |        7468 |
|      12 | 0x40000000  |  1073741824 |
|      13 | 0x1D32      |        7474 |
|      14 | 0x1D33      |        7475 |
|      15 | 0x00C9      |         201 |
|      16 | 0x1D3F      |        7487 |
|      17 | 0x23F6      |        9206 |
|      18 | 0x001E      |          30 |
|      19 | 0x23F7      |        9207 |
|      20 | 0x23F8      |        9208 |

## String References

- **7466**: I say, are you an adventurer? Looking for some work?
- **7467**: Are you looking for work? [Yes./No.]
- **7468**: Then I have no business with you. Out, I say! Out!
- **7469**: Let me introduce myself. I am Horatius, the foremost gem collector in all of Bastok.
- **7470**: I've collected every single kind of precious gem, but now I want to get my hands on a rare stone of a different kind.
- **7471**: I'd like to get my hands on something called $7.
- **7472**: As you can guess from the name, the Dangruf Wadi is where you'd want to look. What's more, legend says that it can only be found on bright, sunny days.
- **7473**: If you manage to get your hands on $7, bring it to me. You will be greatly rewarded.
- **7474**: Ah! $7! Good work, good work! Here is your reward!
- **7475**: What a strange, wondrous stone... I think I want more of these!
- **7487**: Bastok is a wellspring of rare and precious gems...and I swear on my collector's pride, I will have them all!
- **9206**: <Player>'s badge flashes brightly.
- **9207**: I say! That's a mighty lustrous... Ah, it is not a gem. Pity.
- **9208**: I take great pride in my collection of precious gems, but I suspect that there are types I have never even seen before buried in the lands of the Near East.

## Events

### Event 65535

#### Metadata

| Field        | Value   |
|--------------|---------|
| Entrypoint   | 0x0000  |
| Data Size    | 1 bytes |
| Instructions | 1       |

```
      00 01 02 03 04 05 06 07  08 09 0A 0B 0C 0D 0E 0F
      -- -- -- -- -- -- -- --  -- -- -- -- -- -- -- --
0000: 00                                                .               
```

#### Opcodes

```
  0: 0x0000 [0x00] END_REQSTACK()
```

### Event 100

#### Metadata

| Field        | Value     |
|--------------|-----------|
| Entrypoint   | 0x0001    |
| Data Size    | 145 bytes |
| Instructions | 31        |

```
      00 01 02 03 04 05 06 07  08 09 0A 0B 0C 0D 0E 0F
      -- -- -- -- -- -- -- --  -- -- -- -- -- -- -- --
0000:    03 09 10 00 80 1E F0  FF FF 7F 1D 01 80 23 24   .............#$
0010: 02 80 03 80 03 80 25 02  00 10 03 80 00 6D 00 5B  ......%......m.[
0020: 04 80 F8 FF FF 7F F8 FF  FF 7F 74 6C 6B 30 1D 05  ..........tlk0..
0030: 80 23 5E 69 64 6C 30 1D  06 80 23 5B 04 80 F8 FF  .#^idl0...#[....
0040: FF 7F F8 FF FF 7F 74 68  6B 31 1D 07 80 23 1D 08  ......thk1...#..
0050: 80 23 5B 04 80 F8 FF FF  7F F8 FF FF 7F 74 68 6B  .#[..........thk
0060: 32 1D 09 80 23 03 01 10  03 80 01 90 00 02 00 10  2...#...........
0070: 0A 80 00 90 00 5B 04 80  F8 FF FF 7F F8 FF FF 7F  .....[..........
0080: 68 61 72 30 1D 0B 80 23  03 01 10 0C 80 01 90 00  har0...#........
0090: 21 00                                             !.              
```

#### Opcodes

```
  0: 0x0001 [0x03] Work_Zone[9] = 553*
  1: 0x0006 [0x1E] EventEntity looks at LocalPlayer and starts talking
  2: 0x000B [0x1D] PRINT_EVENT_MESSAGE(message_id=7466*)
    → "I say, are you an adventurer? Looking for some work?"
  3: 0x000E [0x23] WAIT_FOR_DIALOG_INTERACTION
  4: 0x000F [0x24] CREATE_DIALOG(message_id=7467*, default_option=0*, option_flags=0*)
    → "Are you looking for work? [Yes./No.]"
  5: 0x0016 [0x25] WAIT_DIALOG_SELECT()
  6: 0x0017 [0x02] IF !(Work_Zone[0] == 0*) GOTO 0x006D
  7: 0x001F [0x5B] LOAD_EXT_SCHEDULER: Load scheduler "tlk0" with entities [EventEntity, EventEntity], work=238*
  8: 0x002E [0x1D] PRINT_EVENT_MESSAGE(message_id=7469*)
    → "Let me introduce myself. I am Horatius, the foremost gem collector in all of Bastok."
  9: 0x0031 [0x23] WAIT_FOR_DIALOG_INTERACTION
 10: 0x0032 [0x5E] EventEntity goes idle (kills current action) (animation: "idl0")
 11: 0x0037 [0x1D] PRINT_EVENT_MESSAGE(message_id=7470*)
    → "I've collected every single kind of precious gem, but now I want to get my hands on a rare stone of a different kind."
 12: 0x003A [0x23] WAIT_FOR_DIALOG_INTERACTION
 13: 0x003B [0x5B] LOAD_EXT_SCHEDULER: Load scheduler "thk1" with entities [EventEntity, EventEntity], work=238*
 14: 0x004A [0x1D] PRINT_EVENT_MESSAGE(message_id=7471*)
    → "I'd like to get my hands on something called $7."
 15: 0x004D [0x23] WAIT_FOR_DIALOG_INTERACTION
 16: 0x004E [0x1D] PRINT_EVENT_MESSAGE(message_id=7472*)
    → "As you can guess from the name, the Dangruf Wadi is where you'd want to look. What's more, legend says that it can only be found on bright, sunny days."
 17: 0x0051 [0x23] WAIT_FOR_DIALOG_INTERACTION
 18: 0x0052 [0x5B] LOAD_EXT_SCHEDULER: Load scheduler "thk2" with entities [EventEntity, EventEntity], work=238*
 19: 0x0061 [0x1D] PRINT_EVENT_MESSAGE(message_id=7473*)
    → "If you manage to get your hands on $7, bring it to me. You will be greatly rewarded."
 20: 0x0064 [0x23] WAIT_FOR_DIALOG_INTERACTION
 21: 0x0065 [0x03] Work_Zone[1] = 0*
 22: 0x006A [0x01] GOTO 0x0090
 23: 0x006D [0x02] IF !(Work_Zone[0] == 1*) GOTO 0x0090
 24: 0x0075 [0x5B] LOAD_EXT_SCHEDULER: Load scheduler "har0" with entities [EventEntity, EventEntity], work=238*
 25: 0x0084 [0x1D] PRINT_EVENT_MESSAGE(message_id=7468*)
    → "Then I have no business with you. Out, I say! Out!"
 26: 0x0087 [0x23] WAIT_FOR_DIALOG_INTERACTION
 27: 0x0088 [0x03] Work_Zone[1] = 1073741824*
 28: 0x008D [0x01] GOTO 0x0090

SUBROUTINE_0090:
 29: 0x0090 [0x21] END_EVENT
 30: 0x0091 [0x00] END_REQSTACK()
```

### Event 101

#### Metadata

| Field        | Value    |
|--------------|----------|
| Entrypoint   | 0x0092   |
| Data Size    | 57 bytes |
| Instructions | 14       |

```
      00 01 02 03 04 05 06 07  08 09 0A 0B 0C 0D 0E 0F
      -- -- -- -- -- -- -- --  -- -- -- -- -- -- -- --
0090:       20 01 42 03 09 10  00 80 1E F0 FF FF 7F 1D     .B...........
00A0: 0D 80 23 6F 70 5B 04 80  F8 FF FF 7F F8 FF FF 7F  ..#op[..........
00B0: 70 61 73 30 1D 0E 80 23  45 0F 80 F0 FF FF 7F F0  pas0...#E.......
00C0: FF FF 7F 71 73 74 63 03  80 21 00                 ...qstc..!.     
```

#### Opcodes

```
  0: 0x0092 [0x20] SET_CLI_EVENT_UC_FLAG: Lock player control
  1: 0x0094 [0x42] SET_CLI_EVENT_CANCEL_DATA()
  2: 0x0095 [0x03] Work_Zone[9] = 553*
  3: 0x009A [0x1E] EventEntity looks at LocalPlayer and starts talking
  4: 0x009F [0x1D] PRINT_EVENT_MESSAGE(message_id=7474*)
    → "Ah! $7! Good work, good work! Here is your reward!"
  5: 0x00A2 [0x23] WAIT_FOR_DIALOG_INTERACTION
  6: 0x00A3 [0x6F] WAIT_FRAME_DELAY: Yield until WaitTime reaches zero
  7: 0x00A4 [0x70] WAIT_ENTITY_RENDER_FLAG: Wait while EventEntity->Render.Flags3 bit 2 is set (cancel turn if not)
  8: 0x00A5 [0x5B] LOAD_EXT_SCHEDULER: Load scheduler "pas0" with entities [EventEntity, EventEntity], work=238*
  9: 0x00B4 [0x1D] PRINT_EVENT_MESSAGE(message_id=7475*)
    → "What a strange, wondrous stone... I think I want more of these!"
 10: 0x00B7 [0x23] WAIT_FOR_DIALOG_INTERACTION
 11: 0x00B8 [0x45] LOAD_SCHEDULED_TASK: Load scheduler "qstc" with entities [LocalPlayer, LocalPlayer], work=[201*, 0*]
 12: 0x00C9 [0x21] END_EVENT
 13: 0x00CA [0x00] END_REQSTACK()
```

### Event 110

#### Metadata

| Field        | Value    |
|--------------|----------|
| Entrypoint   | 0x00CB   |
| Data Size    | 11 bytes |
| Instructions | 5        |

```
      00 01 02 03 04 05 06 07  08 09 0A 0B 0C 0D 0E 0F
      -- -- -- -- -- -- -- --  -- -- -- -- -- -- -- --
00C0:                                   1E F0 FF FF 7F             .....
00D0: 1D 10 80 23 21 00                                 ...#!.          
```

#### Opcodes

```
  0: 0x00CB [0x1E] EventEntity looks at LocalPlayer and starts talking
  1: 0x00D0 [0x1D] PRINT_EVENT_MESSAGE(message_id=7487*)
    → "Bastok is a wellspring of rare and precious gems...and I swear on my collector's pride, I will have them all!"
  2: 0x00D3 [0x23] WAIT_FOR_DIALOG_INTERACTION
  3: 0x00D4 [0x21] END_EVENT
  4: 0x00D5 [0x00] END_REQSTACK()
```

### Event 428

#### Metadata

| Field        | Value    |
|--------------|----------|
| Entrypoint   | 0x00D6   |
| Data Size    | 37 bytes |
| Instructions | 11       |

```
      00 01 02 03 04 05 06 07  08 09 0A 0B 0C 0D 0E 0F
      -- -- -- -- -- -- -- --  -- -- -- -- -- -- -- --
00D0:                   42 48  11 80 1E F0 FF FF 7F 1C        BH........
00E0: 12 80 1D 13 80 23 5B 04  80 F8 FF FF 7F F8 FF FF  .....#[.........
00F0: 7F 74 6C 6B 30 1D 14 80  23 21 00                 .tlk0...#!.     
```

#### Opcodes

```
  0: 0x00D6 [0x42] SET_CLI_EVENT_CANCEL_DATA()
  1: 0x00D7 [0x48] [System] [9206*]:
    → "<Player>'s badge flashes brightly."
  2: 0x00DA [0x1E] EventEntity looks at LocalPlayer and starts talking
  3: 0x00DF [0x1C] WAIT(30* ticks)
  4: 0x00E2 [0x1D] PRINT_EVENT_MESSAGE(message_id=9207*)
    → "I say! That's a mighty lustrous... Ah, it is not a gem. Pity."
  5: 0x00E5 [0x23] WAIT_FOR_DIALOG_INTERACTION
  6: 0x00E6 [0x5B] LOAD_EXT_SCHEDULER: Load scheduler "tlk0" with entities [EventEntity, EventEntity], work=238*
  7: 0x00F5 [0x1D] PRINT_EVENT_MESSAGE(message_id=9208*)
    → "I take great pride in my collection of precious gems, but I suspect that there are types I have never even seen before buried in the lands of the Near East."
  8: 0x00F8 [0x23] WAIT_FOR_DIALOG_INTERACTION
  9: 0x00F9 [0x21] END_EVENT
 10: 0x00FA [0x00] END_REQSTACK()
```
