# 17739840 - Parnika

## Common Data

| Field            | Value                    |
|------------------|--------------------------|
| Zone             | Bastok Markets (ID: 235) |
| Block Size       | 276 bytes                |
| Total Events     | 6                        |
| References Count | 9                        |

## List of Events

| Event ID              | Entrypoint   |   Size |   Instructions |
|-----------------------|--------------|--------|----------------|
| [65535](#event-65535) | 0x0000       |      1 |              1 |
| [136](#event-136)     | 0x0001       |    128 |             26 |
| [232](#event-232)     | 0x0081       |     49 |              7 |
| [675](#event-675)     | 0x00B2       |      7 |              2 |
| [676](#event-676)     | 0x00B9       |      7 |              2 |
| [678](#event-678)     | 0x00C0       |      7 |              2 |

## DAT References (imed_data)

|   Index | Hex Value   |   Dec Value |
|---------|-------------|-------------|
|       0 | 0x0709      |        1801 |
|       1 | 0x000A      |          10 |
|       2 | 0x1DA2      |        7586 |
|       3 | 0x001E      |          30 |
|       4 | 0x0BFB      |        3067 |
|       5 | 0x1DA3      |        7587 |
|       6 | 0x0899      |        2201 |
|       7 | 0x1DA4      |        7588 |
|       8 | 0x1DB1      |        7601 |

## String References

- **7586**: These stairs leading west are a shortcut to the entrance to the Mines District.
- **7587**: On the other side of that canal are the Goldsmiths' Guild and the jewelry store. On this side, you'll find the music shop and some houses.
- **7588**: Walk west along the canal and up the steps to get to the central square. From there, you can access the Metalworks and the West Gate.
- **7601**: There have been numerous reports of burglaries and pick pocketing in this area lately. Hmm...that Mithra looks mighty suspicious.

## Events

### Event 65535

#### Metadata

| Field        | Value   |
|--------------|---------|
| Entrypoint   | 0x0000  |
| Data Size    | 1 bytes |
| Instructions | 1       |

```
      00 01 02 03 04 05 06 07  08 09 0A 0B 0C 0D 0E 0F
      -- -- -- -- -- -- -- --  -- -- -- -- -- -- -- --
0000: 00                                                .               
```

#### Opcodes

```
  0: 0x0000 [0x00] END_REQSTACK()
```

### Event 136

#### Metadata

| Field        | Value     |
|--------------|-----------|
| Entrypoint   | 0x0001    |
| Data Size    | 128 bytes |
| Instructions | 26        |

```
      00 01 02 03 04 05 06 07  08 09 0A 0B 0C 0D 0E 0F
      -- -- -- -- -- -- -- --  -- -- -- -- -- -- -- --
0000:    39 00 80 6F 70 66 01  80 F8 FF FF 7F F8 FF FF   9..opf.........
0010: 7F 70 6F 69 31 1D 02 80  23 66 01 80 F8 FF FF 7F  .poi1...#f......
0020: F8 FF FF 7F 70 6F 69 32  1C 03 80 39 04 80 6F 70  ....poi2...9..op
0030: 66 01 80 F8 FF FF 7F F8  FF FF 7F 70 6F 69 31 1D  f..........poi1.
0040: 05 80 23 66 01 80 F8 FF  FF 7F F8 FF FF 7F 70 6F  ..#f..........po
0050: 69 32 1C 03 80 39 06 80  6F 70 66 01 80 F8 FF FF  i2...9..opf.....
0060: 7F F8 FF FF 7F 70 6F 69  31 1D 07 80 23 66 01 80  .....poi1...#f..
0070: F8 FF FF 7F F8 FF FF 7F  70 6F 69 32 1C 03 80 21  ........poi2...!
0080: 00                                                .               
```

#### Opcodes

```
  0: 0x0001 [0x39] SET_ENTITY_DIRECTION(direction=9.9°*)
  1: 0x0004 [0x6F] WAIT_FRAME_DELAY: Yield until WaitTime reaches zero
  2: 0x0005 [0x70] WAIT_ENTITY_RENDER_FLAG: Wait while EventEntity->Render.Flags3 bit 2 is set (cancel turn if not)
  3: 0x0006 [0x66] LOAD_EXT_SCHEDULER_MAIN: Load scheduler "poi1" with entities [EventEntity, EventEntity], work=10*
  4: 0x0015 [0x1D] PRINT_EVENT_MESSAGE(message_id=7586*)
    → "These stairs leading west are a shortcut to the entrance to the Mines District."
  5: 0x0018 [0x23] WAIT_FOR_DIALOG_INTERACTION
  6: 0x0019 [0x66] LOAD_EXT_SCHEDULER_MAIN: Load scheduler "poi2" with entities [EventEntity, EventEntity], work=10*
  7: 0x0028 [0x1C] WAIT(30* ticks)
  8: 0x002B [0x39] SET_ENTITY_DIRECTION(direction=16.8°*)
  9: 0x002E [0x6F] WAIT_FRAME_DELAY: Yield until WaitTime reaches zero
 10: 0x002F [0x70] WAIT_ENTITY_RENDER_FLAG: Wait while EventEntity->Render.Flags3 bit 2 is set (cancel turn if not)
 11: 0x0030 [0x66] LOAD_EXT_SCHEDULER_MAIN: Load scheduler "poi1" with entities [EventEntity, EventEntity], work=10*
 12: 0x003F [0x1D] PRINT_EVENT_MESSAGE(message_id=7587*)
    → "On the other side of that canal are the Goldsmiths' Guild and the jewelry store. On this side, you'll find the music shop and some houses."
 13: 0x0042 [0x23] WAIT_FOR_DIALOG_INTERACTION
 14: 0x0043 [0x66] LOAD_EXT_SCHEDULER_MAIN: Load scheduler "poi2" with entities [EventEntity, EventEntity], work=10*
 15: 0x0052 [0x1C] WAIT(30* ticks)
 16: 0x0055 [0x39] SET_ENTITY_DIRECTION(direction=12.1°*)
 17: 0x0058 [0x6F] WAIT_FRAME_DELAY: Yield until WaitTime reaches zero
 18: 0x0059 [0x70] WAIT_ENTITY_RENDER_FLAG: Wait while EventEntity->Render.Flags3 bit 2 is set (cancel turn if not)
 19: 0x005A [0x66] LOAD_EXT_SCHEDULER_MAIN: Load scheduler "poi1" with entities [EventEntity, EventEntity], work=10*
 20: 0x0069 [0x1D] PRINT_EVENT_MESSAGE(message_id=7588*)
    → "Walk west along the canal and up the steps to get to the central square. From there, you can access the Metalworks and the West Gate."
 21: 0x006C [0x23] WAIT_FOR_DIALOG_INTERACTION
 22: 0x006D [0x66] LOAD_EXT_SCHEDULER_MAIN: Load scheduler "poi2" with entities [EventEntity, EventEntity], work=10*
 23: 0x007C [0x1C] WAIT(30* ticks)
 24: 0x007F [0x21] END_EVENT
 25: 0x0080 [0x00] END_REQSTACK()
```

### Event 232

#### Metadata

| Field        | Value    |
|--------------|----------|
| Entrypoint   | 0x0081   |
| Data Size    | 49 bytes |
| Instructions | 7        |

```
      00 01 02 03 04 05 06 07  08 09 0A 0B 0C 0D 0E 0F
      -- -- -- -- -- -- -- --  -- -- -- -- -- -- -- --
0080:    66 01 80 F8 FF FF 7F  F8 FF FF 7F 74 68 6B 31   f..........thk1
0090: 1D 08 80 23 66 01 80 F8  FF FF 7F F8 FF FF 7F 74  ...#f..........t
00A0: 68 6B 32 53 F8 FF FF 7F  F8 FF FF 7F 74 68 6B 32  hk2S........thk2
00B0: 21 00                                             !.              
```

#### Opcodes

```
  0: 0x0081 [0x66] LOAD_EXT_SCHEDULER_MAIN: Load scheduler "thk1" with entities [EventEntity, EventEntity], work=10*
  1: 0x0090 [0x1D] PRINT_EVENT_MESSAGE(message_id=7601*)
    → "There have been numerous reports of burglaries and pick pocketing in this area lately. Hmm...that Mithra looks mighty suspicious."
  2: 0x0093 [0x23] WAIT_FOR_DIALOG_INTERACTION
  3: 0x0094 [0x66] LOAD_EXT_SCHEDULER_MAIN: Load scheduler "thk2" with entities [EventEntity, EventEntity], work=10*
  4: 0x00A3 [0x53] WAIT_SCHEDULER_TASK: Wait for scheduler "thk2" with entities [EventEntity, EventEntity]
  5: 0x00B0 [0x21] END_EVENT
  6: 0x00B1 [0x00] END_REQSTACK()
```

### Event 675

#### Metadata

| Field        | Value   |
|--------------|---------|
| Entrypoint   | 0x00B2  |
| Data Size    | 7 bytes |
| Instructions | 2       |

```
      00 01 02 03 04 05 06 07  08 09 0A 0B 0C 0D 0E 0F
      -- -- -- -- -- -- -- --  -- -- -- -- -- -- -- --
00B0:       92 01 F8 FF FF 7F  00                         .......       
```

#### Opcodes

```
  0: 0x00B2 [0x92] EventEntity->Render.Flags3 ^= 0x01
  1: 0x00B8 [0x00] END_REQSTACK()
```

### Event 676

#### Metadata

| Field        | Value   |
|--------------|---------|
| Entrypoint   | 0x00B9  |
| Data Size    | 7 bytes |
| Instructions | 2       |

```
      00 01 02 03 04 05 06 07  08 09 0A 0B 0C 0D 0E 0F
      -- -- -- -- -- -- -- --  -- -- -- -- -- -- -- --
00B0:                             92 01 F8 FF FF 7F 00           .......
```

#### Opcodes

```
  0: 0x00B9 [0x92] EventEntity->Render.Flags3 ^= 0x01
  1: 0x00BF [0x00] END_REQSTACK()
```

### Event 678

#### Metadata

| Field        | Value   |
|--------------|---------|
| Entrypoint   | 0x00C0  |
| Data Size    | 7 bytes |
| Instructions | 2       |

```
      00 01 02 03 04 05 06 07  08 09 0A 0B 0C 0D 0E 0F
      -- -- -- -- -- -- -- --  -- -- -- -- -- -- -- --
00C0: 92 01 F8 FF FF 7F 00                              .......         
```

#### Opcodes

```
  0: 0x00C0 [0x92] EventEntity->Render.Flags3 ^= 0x01
  1: 0x00C6 [0x00] END_REQSTACK()
```
