# 17739777

## Common Data

| Field            | Value                    |
|------------------|--------------------------|
| Zone             | Bastok Markets (ID: 235) |
| Block Size       | 3920 bytes               |
| Total Events     | 4                        |
| References Count | 119                      |

## List of Events

| Event ID              | Entrypoint   |   Size |   Instructions |
|-----------------------|--------------|--------|----------------|
| [65535](#event-65535) | 0x0000       |      1 |              1 |
| [0](#event-0)         | 0x0001       |    419 |             69 |
| [7](#event-7)         | 0x01A4       |   1892 |            268 |
| [22](#event-22)       | 0x0908       |   1098 |            132 |

## DAT References (imed_data)

|   Index | Hex Value   |   Dec Value |
|---------|-------------|-------------|
|       0 | 0x0050      |          80 |
|       1 | 0x0154      |         340 |
|       2 | 0x0012      |          18 |
|       3 | 0x00C8      |         200 |
|       4 | 0x0000      |           0 |
|       5 | 0x0087      |         135 |
|       6 | 0x000A      |          10 |
|       7 | 0x0010      |          16 |
|       8 | 0x0001      |           1 |
|       9 | 0x0078      |         120 |
|      10 | 0x1CF2      |        7410 |
|      11 | 0x1CF3      |        7411 |
|      12 | 0x001E      |          30 |
|      13 | 0x003C      |          60 |
|      14 | 0x1CF4      |        7412 |
|      15 | 0x1CF5      |        7413 |
|      16 | 0x1CF6      |        7414 |
|      17 | 0x1CF7      |        7415 |
|      18 | 0x1CF8      |        7416 |
|      19 | 0x1CF9      |        7417 |
|      20 | 0x1CFA      |        7418 |
|      21 | 0xFFFBB436  |  4294685750 |
|      22 | 0xFFFE8042  |  4294869058 |
|      23 | 0xFFFFD121  |  4294955297 |
|      24 | 0x0C0E      |        3086 |
|      25 | 0x0014      |          20 |
|      26 | 0x0064      |         100 |
|      27 | 0x004B      |          75 |
|      28 | 0x1CFB      |        7419 |
|      29 | 0x1CFC      |        7420 |
|      30 | 0x005A      |          90 |
|      31 | 0x1CFD      |        7421 |
|      32 | 0x1CFE      |        7422 |
|      33 | 0x1CFF      |        7423 |
|      34 | 0x1D00      |        7424 |
|      35 | 0x1D01      |        7425 |
|      36 | 0x1D02      |        7426 |
|      37 | 0x1D03      |        7427 |
|      38 | 0x000F      |          15 |
|      39 | 0x1D04      |        7428 |
|      40 | 0x1D05      |        7429 |
|      41 | 0x1D06      |        7430 |
|      42 | 0x1D07      |        7431 |
|      43 | 0x1D08      |        7432 |
|      44 | 0x1D09      |        7433 |
|      45 | 0x1D0A      |        7434 |
|      46 | 0x1D0B      |        7435 |
|      47 | 0x1D0C      |        7436 |
|      48 | 0x1D0D      |        7437 |
|      49 | 0x1D0E      |        7438 |
|      50 | 0x1D0F      |        7439 |
|      51 | 0x1D10      |        7440 |
|      52 | 0x0032      |          50 |
|      53 | 0x1D11      |        7441 |
|      54 | 0x1D12      |        7442 |
|      55 | 0x1D13      |        7443 |
|      56 | 0x1D14      |        7444 |
|      57 | 0x1D15      |        7445 |
|      58 | 0x1D16      |        7446 |
|      59 | 0x1D17      |        7447 |
|      60 | 0x1D18      |        7448 |
|      61 | 0x1D19      |        7449 |
|      62 | 0x1D1A      |        7450 |
|      63 | 0x0002      |           2 |
|      64 | 0x1D1B      |        7451 |
|      65 | 0x1D1C      |        7452 |
|      66 | 0x1D1D      |        7453 |
|      67 | 0x1D1E      |        7454 |
|      68 | 0x1D1F      |        7455 |
|      69 | 0x1D20      |        7456 |
|      70 | 0x1D21      |        7457 |
|      71 | 0x1D22      |        7458 |
|      72 | 0x1D24      |        7460 |
|      73 | 0x0218      |         536 |
|      74 | 0x1D25      |        7461 |
|      75 | 0x1D26      |        7462 |
|      76 | 0x00EB      |         235 |
|      77 | 0xFFFC5E6B  |  4294729323 |
|      78 | 0xFFFF5E2D  |  4294925869 |
|      79 | 0x1D27      |        7463 |
|      80 | 0x1BC3      |        7107 |
|      81 | 0x1D28      |        7464 |
|      82 | 0x1D29      |        7465 |
|      83 | 0x001B      |          27 |
|      84 | 0x3BF5      |       15349 |
|      85 | 0x3BF6      |       15350 |
|      86 | 0x0009      |           9 |
|      87 | 0xFFFD565B  |  4294792795 |
|      88 | 0xFFFEEF8E  |  4294897550 |
|      89 | 0x3BF7      |       15351 |
|      90 | 0x00A0      |         160 |
|      91 | 0x3992      |       14738 |
|      92 | 0xFFFB845E  |  4294673502 |
|      93 | 0xFFFF44B5  |  4294919349 |
|      94 | 0x0E5A      |        3674 |
|      95 | 0x0214      |         532 |
|      96 | 0x0082      |         130 |
|      97 | 0x0096      |         150 |
|      98 | 0xFFFBA7DA  |  4294682586 |
|      99 | 0xFFFF62C0  |  4294927040 |
|     100 | 0xFFFFD120  |  4294955296 |
|     101 | 0x0E81      |        3713 |
|     102 | 0x36F6      |       14070 |
|     103 | 0x36F7      |       14071 |
|     104 | 0x0028      |          40 |
|     105 | 0x36F8      |       14072 |
|     106 | 0x36F9      |       14073 |
|     107 | 0x0005      |           5 |
|     108 | 0x36FA      |       14074 |
|     109 | 0x36FB      |       14075 |
|     110 | 0x36FC      |       14076 |
|     111 | 0x36FD      |       14077 |
|     112 | 0x36FE      |       14078 |
|     113 | 0x36FF      |       14079 |
|     114 | 0x3700      |       14080 |
|     115 | 0x3701      |       14081 |
|     116 | 0x3702      |       14082 |
|     117 | 0x3703      |       14083 |
|     118 | 0x3704      |       14084 |

## String References

- **7410**: In the Gustaberg Mountains of Southern Quon lies the industrial nation known as the Republic of Bastok.
- **7411**: Compared to San d'Oria, with its legendary orders of knights, or Windurst, with its ancient institutes of magic, Bastok is still but a newborn nation.
- **7412**: But advanced technology and near limitless underground resources have allowed Bastok to rival the other two nations in power.
- **7413**: Innovative and adaptable Humes make up more than half the population of Bastok.
- **7414**: With their flair for industry, economy, and politics, they were the driving force behind Bastok's rapid growth. Even now, Humes hold key positions in those areas.
- **7415**: The Galka, a race of hulking humanoids, comprise a third of Bastok's population. Originally hailing from Zepwell, they came to this land over six hundred years ago.
- **7416**: Without their incomparable strength, the countless ore mines that drive Bastok's economy would never have been dug.
- **7417**: Adventurers seeking fame and fortune flock to rising nations like Bastok. You are one of them.
- **7418**: Your story begins here, amid the smoke and bustle of the industrial city of Bastok.
- **7446**: For starters, I'd like to... [Fight monsters!/Go shopping./Find some work.]
- **7452**: What do you want to do? [Serve Bastok./Help people./Get rich, quick.]
- **14738**: @@
- **15349**: You are now able to enjoy a new storyline, Seekers of Adoulin.
- **15350**: Start Seekers of Adoulin? [Yes (View cutscene)./Maybe later.]
- **15351**: Examine the Tales' Beginning in Northern San d'Oria, Bastok Markets, or Windurst Woods when you wish to start Seekers of Adoulin.

## Events

### Event 65535

#### Metadata

| Field        | Value   |
|--------------|---------|
| Entrypoint   | 0x0000  |
| Data Size    | 1 bytes |
| Instructions | 1       |

```
      00 01 02 03 04 05 06 07  08 09 0A 0B 0C 0D 0E 0F
      -- -- -- -- -- -- -- --  -- -- -- -- -- -- -- --
0000: 00                                                .               
```

#### Opcodes

```
  0: 0x0000 [0x00] END_REQSTACK()
```

### Event 0

#### Metadata

| Field        | Value     |
|--------------|-----------|
| Entrypoint   | 0x0001    |
| Data Size    | 419 bytes |
| Instructions | 69        |

```
      00 01 02 03 04 05 06 07  08 09 0A 0B 0C 0D 0E 0F
      -- -- -- -- -- -- -- --  -- -- -- -- -- -- -- --
0000:    67 00 80 01 80 42 46  01 38 02 80 45 03 80 F0   g....BF.8..E...
0010: FF FF 7F F0 FF FF 7F 66  64 69 32 04 80 45 05 80  .......fdi2..E..
0020: F0 FF FF 7F F0 FF FF 7F  73 30 30 30 04 80 1C 06  ........s000....
0030: 80 77 07 80 08 80 27 0A  F0 FF FF 7F 03 1C 09 80  .w....'.........
0040: 48 0A 80 23 55 05 80 F0  FF FF 7F F0 FF FF 7F 73  H..#U..........s
0050: 30 30 30 48 0B 80 1C 0C  80 45 03 80 F0 FF FF 7F  000H.....E......
0060: F0 FF FF 7F 6F 76 6C 31  04 80 45 05 80 F0 FF FF  ....ovl1..E.....
0070: 7F F0 FF FF 7F 73 30 30  31 04 80 23 1C 0D 80 48  .....s001..#...H
0080: 0E 80 23 1C 0C 80 45 03  80 F0 FF FF 7F F0 FF FF  ..#...E.........
0090: 7F 6F 76 6C 31 04 80 45  05 80 F0 FF FF 7F F0 FF  .ovl1..E........
00A0: FF 7F 73 30 30 32 04 80  27 0A F0 FF FF 7F 04 27  ..s002..'......'
00B0: 0A 33 B0 0E 01 02 27 0A  25 B0 0E 01 02 27 0A 29  .3....'.%....'.)
00C0: B0 0E 01 02 1C 0D 80 48  0F 80 23 1C 0D 80 27 0A  .......H..#...'.
00D0: 2A B0 0E 01 02 27 0A 06  B0 0E 01 03 27 0A 07 B0  *....'......'...
00E0: 0E 01 03 48 10 80 23 1C  0C 80 45 03 80 F0 FF FF  ...H..#...E.....
00F0: 7F F0 FF FF 7F 6F 76 6C  31 04 80 45 05 80 F0 FF  .....ovl1..E....
0100: FF 7F F0 FF FF 7F 73 30  30 33 04 80 1C 0D 80 27  ......s003.....'
0110: 0A 16 B0 0E 01 02 48 11  80 23 1C 0D 80 48 12 80  ......H..#...H..
0120: 23 1C 0C 80 45 03 80 F0  FF FF 7F F0 FF FF 7F 6F  #...E..........o
0130: 76 6C 31 04 80 27 0A 06  B0 0E 01 04 27 0A 07 B0  vl1..'......'...
0140: 0E 01 04 45 05 80 F0 FF  FF 7F F0 FF FF 7F 73 30  ...E..........s0
0150: 30 34 04 80 27 0A F0 FF  FF 7F 05 1C 0D 80 48 13  04..'.........H.
0160: 80 23 1C 0D 80 48 14 80  23 1C 0C 80 55 05 80 F0  .#...H..#...U...
0170: FF FF 7F F0 FF FF 7F 73  30 30 34 45 03 80 F0 FF  .......s004E....
0180: FF 7F F0 FF FF 7F 66 64  6F 32 04 80 55 03 80 F0  ......fdo2..U...
0190: FF FF 7F F0 FF FF 7F 66  64 6F 32 78 68 46 00 1C  .......fdo2xhF..
01A0: 09 80 21 00                                       ..!.            
```

#### Opcodes

```
  0: 0x0001 [0x67] HIDE_HUD_ELEMENTS(param1=0x8000, param2=0x8001)
  1: 0x0006 [0x42] SET_CLI_EVENT_CANCEL_DATA()
  2: 0x0007 [0x46] CAMERA_CONTROL: Disable user control
  3: 0x0009 [0x38] SET_CLIENT_EVENT_MODE(mode=18*)
  4: 0x000C [0x45] LOAD_SCHEDULED_TASK: Load scheduler "fdi2" with entities [LocalPlayer, LocalPlayer], work=[200*, 0*]
  5: 0x001D [0x45] LOAD_SCHEDULED_TASK: Load scheduler "s000" with entities [LocalPlayer, LocalPlayer], work=[135*, 0*]
  6: 0x002E [0x1C] WAIT(10* ticks)
  7: 0x0031 [0x77] SET_EVENT_TIME_WEATHER(hour=16*, weather=1*)
  8: 0x0036 [0x27] REQ_SET(priority=0x0A, entity_id=LocalPlayer, tag_num=0x03)
  9: 0x003D [0x1C] WAIT(120* ticks)
 10: 0x0040 [0x48] [System] [7410*]:
    → "In the Gustaberg Mountains of Southern Quon lies the industrial nation known as the Republic of Bastok."
 11: 0x0043 [0x23] WAIT_FOR_DIALOG_INTERACTION
 12: 0x0044 [0x55] WAIT_LOAD_SCHEDULER: Wait for scheduler "s000" with entities [LocalPlayer, LocalPlayer], work=135*
 13: 0x0053 [0x48] [System] [7411*]:
    → "Compared to San d'Oria, with its legendary orders of knights, or Windurst, with its ancient institutes of magic, Bastok is still but a newborn nation."
 14: 0x0056 [0x1C] WAIT(30* ticks)
 15: 0x0059 [0x45] LOAD_SCHEDULED_TASK: Load scheduler "ovl1" with entities [LocalPlayer, LocalPlayer], work=[200*, 0*]
 16: 0x006A [0x45] LOAD_SCHEDULED_TASK: Load scheduler "s001" with entities [LocalPlayer, LocalPlayer], work=[135*, 0*]
 17: 0x007B [0x23] WAIT_FOR_DIALOG_INTERACTION
 18: 0x007C [0x1C] WAIT(60* ticks)
 19: 0x007F [0x48] [System] [7412*]:
    → "But advanced technology and near limitless underground resources have allowed Bastok to rival the other two nations in power."
 20: 0x0082 [0x23] WAIT_FOR_DIALOG_INTERACTION
 21: 0x0083 [0x1C] WAIT(30* ticks)
 22: 0x0086 [0x45] LOAD_SCHEDULED_TASK: Load scheduler "ovl1" with entities [LocalPlayer, LocalPlayer], work=[200*, 0*]
 23: 0x0097 [0x45] LOAD_SCHEDULED_TASK: Load scheduler "s002" with entities [LocalPlayer, LocalPlayer], work=[135*, 0*]
 24: 0x00A8 [0x27] REQ_SET(priority=0x0A, entity_id=LocalPlayer, tag_num=0x04)
 25: 0x00AF [0x27] REQ_SET(priority=0x0A, entity_id=Cleades (ID: 17739827/0x010EB033), tag_num=0x02)
 26: 0x00B6 [0x27] REQ_SET(priority=0x0A, entity_id=Brygid (ID: 17739813/0x010EB025), tag_num=0x02)
 27: 0x00BD [0x27] REQ_SET(priority=0x0A, entity_id=Lavinia (ID: 17739817/0x010EB029), tag_num=0x02)
 28: 0x00C4 [0x1C] WAIT(60* ticks)
 29: 0x00C7 [0x48] [System] [7413*]:
    → "Innovative and adaptable Humes make up more than half the population of Bastok."
 30: 0x00CA [0x23] WAIT_FOR_DIALOG_INTERACTION
 31: 0x00CB [0x1C] WAIT(60* ticks)
 32: 0x00CE [0x27] REQ_SET(priority=0x0A, entity_id=Offa (ID: 17739818/0x010EB02A), tag_num=0x02)
 33: 0x00D5 [0x27] REQ_SET(priority=0x0A, entity_id=Arawn (ID: 17739782/0x010EB006), tag_num=0x03)
 34: 0x00DC [0x27] REQ_SET(priority=0x0A, entity_id=Emrys (ID: 17739783/0x010EB007), tag_num=0x03)
 35: 0x00E3 [0x48] [System] [7414*]:
    → "With their flair for industry, economy, and politics, they were the driving force behind Bastok's rapid growth. Even now, Humes hold key positions in those areas."
 36: 0x00E6 [0x23] WAIT_FOR_DIALOG_INTERACTION
 37: 0x00E7 [0x1C] WAIT(30* ticks)
 38: 0x00EA [0x45] LOAD_SCHEDULED_TASK: Load scheduler "ovl1" with entities [LocalPlayer, LocalPlayer], work=[200*, 0*]
 39: 0x00FB [0x45] LOAD_SCHEDULED_TASK: Load scheduler "s003" with entities [LocalPlayer, LocalPlayer], work=[135*, 0*]
 40: 0x010C [0x1C] WAIT(60* ticks)
 41: 0x010F [0x27] REQ_SET(priority=0x0A, entity_id=Zhikkom (ID: 17739798/0x010EB016), tag_num=0x02)
 42: 0x0116 [0x48] [System] [7415*]:
    → "The Galka, a race of hulking humanoids, comprise a third of Bastok's population. Originally hailing from Zepwell, they came to this land over six hundred years ago."
 43: 0x0119 [0x23] WAIT_FOR_DIALOG_INTERACTION
 44: 0x011A [0x1C] WAIT(60* ticks)
 45: 0x011D [0x48] [System] [7416*]:
    → "Without their incomparable strength, the countless ore mines that drive Bastok's economy would never have been dug."
 46: 0x0120 [0x23] WAIT_FOR_DIALOG_INTERACTION
 47: 0x0121 [0x1C] WAIT(30* ticks)
 48: 0x0124 [0x45] LOAD_SCHEDULED_TASK: Load scheduler "ovl1" with entities [LocalPlayer, LocalPlayer], work=[200*, 0*]
 49: 0x0135 [0x27] REQ_SET(priority=0x0A, entity_id=Arawn (ID: 17739782/0x010EB006), tag_num=0x04)
 50: 0x013C [0x27] REQ_SET(priority=0x0A, entity_id=Emrys (ID: 17739783/0x010EB007), tag_num=0x04)
 51: 0x0143 [0x45] LOAD_SCHEDULED_TASK: Load scheduler "s004" with entities [LocalPlayer, LocalPlayer], work=[135*, 0*]
 52: 0x0154 [0x27] REQ_SET(priority=0x0A, entity_id=LocalPlayer, tag_num=0x05)
 53: 0x015B [0x1C] WAIT(60* ticks)
 54: 0x015E [0x48] [System] [7417*]:
    → "Adventurers seeking fame and fortune flock to rising nations like Bastok. You are one of them."
 55: 0x0161 [0x23] WAIT_FOR_DIALOG_INTERACTION
 56: 0x0162 [0x1C] WAIT(60* ticks)
 57: 0x0165 [0x48] [System] [7418*]:
    → "Your story begins here, amid the smoke and bustle of the industrial city of Bastok."
 58: 0x0168 [0x23] WAIT_FOR_DIALOG_INTERACTION
 59: 0x0169 [0x1C] WAIT(30* ticks)
 60: 0x016C [0x55] WAIT_LOAD_SCHEDULER: Wait for scheduler "s004" with entities [LocalPlayer, LocalPlayer], work=135*
 61: 0x017B [0x45] LOAD_SCHEDULED_TASK: Load scheduler "fdo2" with entities [LocalPlayer, LocalPlayer], work=[200*, 0*]
 62: 0x018C [0x55] WAIT_LOAD_SCHEDULER: Wait for scheduler "fdo2" with entities [LocalPlayer, LocalPlayer], work=200*
 63: 0x019B [0x78] ENABLE_GAME_TIMER_RESET_WEATHER()
 64: 0x019C [0x68] SHOW_HUD_ELEMENTS()
 65: 0x019D [0x46] CAMERA_CONTROL: Restore default settings
 66: 0x019F [0x1C] WAIT(120* ticks)
 67: 0x01A2 [0x21] END_EVENT
 68: 0x01A3 [0x00] END_REQSTACK()
```

### Event 7

#### Metadata

| Field        | Value      |
|--------------|------------|
| Entrypoint   | 0x01A4     |
| Data Size    | 1892 bytes |
| Instructions | 235        |

```
      00 01 02 03 04 05 06 07  08 09 0A 0B 0C 0D 0E 0F
      -- -- -- -- -- -- -- --  -- -- -- -- -- -- -- --
01A0:             42 46 01 45  03 80 F0 FF FF 7F F0 FF      BF.E........
01B0: FF 7F 66 64 6F 32 04 80  55 03 80 F0 FF FF 7F F0  ..fdo2..U.......
01C0: FF FF 7F 66 64 6F 32 77  07 80 08 80 38 02 80 68  ...fdo2w....8..h
01D0: 27 0A 06 B0 0E 01 04 27  0A 07 B0 0E 01 04 4E 00  '......'......N.
01E0: F0 FF FF 7F BA F0 FF FF  7F 15 80 16 80 17 80 18  ................
01F0: 80 80 F0 FF FF 7F 45 05  80 F0 FF FF 7F F0 FF FF  ......E.........
0200: 7F 73 30 30 35 04 80 1C  19 80 45 03 80 F0 FF FF  .s005.....E.....
0210: 7F F0 FF FF 7F 66 64 69  32 04 80 1C 1A 80 4A 05  .....fdi2.....J.
0220: B0 0E 01 06 B0 0E 01 5B  1B 80 06 B0 0E 01 06 B0  .......[........
0230: 0E 01 74 6C 6B 30 2B 06  B0 0E 01 1C 80 23 27 0A  ..tlk0+......#'.
0240: 06 B0 0E 01 06 4A 05 B0  0E 01 07 B0 0E 01 5B 1B  .....J........[.
0250: 80 07 B0 0E 01 07 B0 0E  01 74 6C 6B 30 2B 07 B0  .........tlk0+..
0260: 0E 01 1D 80 23 27 0A 07  B0 0E 01 06 1E 05 B0 0E  ....#'..........
0270: 01 1C 0C 80 5B 1E 80 05  B0 0E 01 05 B0 0E 01 74  ....[..........t
0280: 6C 6B 30 2B 05 B0 0E 01  1F 80 23 27 0A 05 B0 0E  lk0+......#'....
0290: 01 03 5B 1B 80 06 B0 0E  01 06 B0 0E 01 74 6C 6B  ..[..........tlk
02A0: 30 2B 06 B0 0E 01 20 80  23 27 0A 06 B0 0E 01 06  0+.... .#'......
02B0: 5B 1E 80 05 B0 0E 01 05  B0 0E 01 74 68 6B 31 2B  [..........thk1+
02C0: 05 B0 0E 01 21 80 23 5B  1B 80 07 B0 0E 01 07 B0  ....!.#[........
02D0: 0E 01 74 68 6B 31 2B 07  B0 0E 01 22 80 23 53 07  ..thk1+....".#S.
02E0: B0 0E 01 07 B0 0E 01 74  68 6B 31 55 05 80 F0 FF  .......thk1U....
02F0: FF 7F F0 FF FF 7F 73 30  30 35 45 05 80 F0 FF FF  ......s005E.....
0300: 7F F0 FF FF 7F 73 30 30  36 04 80 5B 1B 80 07 B0  .....s006..[....
0310: 0E 01 07 B0 0E 01 74 68  6B 32 5B 1B 80 06 B0 0E  ......thk2[.....
0320: 01 06 B0 0E 01 74 6C 6B  30 2B 06 B0 0E 01 23 80  .....tlk0+....#.
0330: 23 27 0A 06 B0 0E 01 06  5B 1E 80 05 B0 0E 01 05  #'......[.......
0340: B0 0E 01 74 68 6B 32 1C  0C 80 4A 05 B0 0E 01 06  ...thk2...J.....
0350: B0 0E 01 2B 05 B0 0E 01  24 80 23 27 0A 07 B0 0E  ...+....$.#'....
0360: 01 05 2B 07 B0 0E 01 25  80 23 4A 05 B0 0E 01 07  ..+....%.#J.....
0370: B0 0E 01 1C 26 80 5B 1E  80 05 B0 0E 01 05 B0 0E  ....&.[.........
0380: 01 74 6C 6B 30 2B 05 B0  0E 01 27 80 23 27 0A 05  .tlk0+....'.#'..
0390: B0 0E 01 03 1C 06 80 27  0A 06 B0 0E 01 05 1C 26  .......'.......&
03A0: 80 4A 05 B0 0E 01 06 B0  0E 01 2A 0A 06 B0 0E 01  .J........*.....
03B0: 5B 1B 80 06 B0 0E 01 06  B0 0E 01 74 6C 6B 30 2B  [..........tlk0+
03C0: 06 B0 0E 01 28 80 23 27  0A 06 B0 0E 01 06 5B 1E  ....(.#'......[.
03D0: 80 05 B0 0E 01 05 B0 0E  01 74 68 6B 31 2B 05 B0  .........thk1+..
03E0: 0E 01 29 80 23 5B 1B 80  07 B0 0E 01 07 B0 0E 01  ..).#[..........
03F0: 74 6C 6B 30 2B 07 B0 0E  01 2A 80 23 27 0A 07 B0  tlk0+....*.#'...
0400: 0E 01 06 5B 1B 80 06 B0  0E 01 06 B0 0E 01 74 6C  ...[..........tl
0410: 6B 30 2B 06 B0 0E 01 2B  80 23 27 0A 06 B0 0E 01  k0+....+.#'.....
0420: 06 55 05 80 F0 FF FF 7F  F0 FF FF 7F 73 30 30 36  .U..........s006
0430: 27 0A 0B B0 0E 01 02 27  0A 0A B0 0E 01 02 45 05  '......'......E.
0440: 80 F0 FF FF 7F F0 FF FF  7F 73 30 30 37 04 80 1C  .........s007...
0450: 0C 80 2B 0B B0 0E 01 2C  80 23 5B 1E 80 05 B0 0E  ..+....,.#[.....
0460: 01 05 B0 0E 01 74 68 6B  32 27 0A 07 B0 0E 01 07  .....thk2'......
0470: 1C 0C 80 27 0A 05 B0 0E  01 04 2B 07 B0 0E 01 2D  ...'......+....-
0480: 80 23 2A 0A 0B B0 0E 01  66 04 80 0B B0 0E 01 0B  .#*.....f.......
0490: B0 0E 01 74 6C 6B 30 2B  0B B0 0E 01 2E 80 23 66  ...tlk0+......#f
04A0: 04 80 0B B0 0E 01 0B B0  0E 01 74 65 6E 30 2B 07  ..........ten0+.
04B0: B0 0E 01 2F 80 23 2A 0A  0A B0 0E 01 5B 1E 80 05  .../.#*.....[...
04C0: B0 0E 01 05 B0 0E 01 74  6C 6B 30 2B 05 B0 0E 01  .......tlk0+....
04D0: 30 80 23 27 0A 05 B0 0E  01 03 66 0D 80 0A B0 0E  0.#'......f.....
04E0: 01 0A B0 0E 01 74 6C 6B  30 2B 0A B0 0E 01 31 80  .....tlk0+....1.
04F0: 23 27 0A 0A B0 0E 01 03  27 0A 06 B0 0E 01 07 2B  #'......'......+
0500: 06 B0 0E 01 32 80 23 2A  0A 06 B0 0E 01 27 0A 06  ....2.#*.....'..
0510: B0 0E 01 08 27 0A 07 B0  0E 01 08 1C 06 80 4A 05  ....'.........J.
0520: B0 0E 01 06 B0 0E 01 1C  06 80 79 00 0B B0 0E 01  ..........y.....
0530: 06 B0 0E 01 79 00 0A B0  0E 01 05 B0 0E 01 2B 05  ....y.........+.
0540: B0 0E 01 33 80 23 2A 0A  06 B0 0E 01 27 0A 05 B0  ...3.#*.....'...
0550: 0E 01 05 1C 0C 80 1C 0C  80 1C 0C 80 2A 0A 05 B0  ............*...
0560: 0E 01 1C 34 80 7B 0B B0  0E 01 7B 0A B0 0E 01 1C  ...4.{....{.....
0570: 06 80 6B 69 64 6C 30 0B  B0 0E 01 27 0A 0B B0 0E  ..kidl0....'....
0580: 01 04 27 0A 0A B0 0E 01  04 1C 26 80 45 05 80 F0  ..'.......&.E...
0590: FF FF 7F F0 FF FF 7F 73  30 30 38 04 80 27 0A F0  .......s008..'..
05A0: FF FF 7F 06 2B 0B B0 0E  01 35 80 23 79 00 0B B0  ....+....5.#y...
05B0: 0E 01 F0 FF FF 7F 79 00  0A B0 0E 01 F0 FF FF 7F  ......y.........
05C0: 1C 0C 80 2A 0A 0B B0 0E  01 1C 0C 80 66 04 80 0B  ...*........f...
05D0: B0 0E 01 0B B0 0E 01 74  6C 6B 30 2B 0B B0 0E 01  .......tlk0+....
05E0: 36 80 23 2B 0B B0 0E 01  37 80 23 66 04 80 0B B0  6.#+....7.#f....
05F0: 0E 01 0B B0 0E 01 74 65  6E 30 27 0A 0A B0 0E 01  ......ten0'.....
0600: 05 2B 0A B0 0E 01 38 80  23 2A 0A 0B B0 0E 01 66  .+....8.#*.....f
0610: 04 80 0B B0 0E 01 0B B0  0E 01 74 6C 6B 31 2B 0B  ..........tlk1+.
0620: B0 0E 01 39 80 23 6B 69  64 31 30 0B B0 0E 01 24  ...9.#kid10....$
0630: 3A 80 04 80 04 80 25 02  00 10 04 80 00 79 06 66  :.....%......y.f
0640: 04 80 0B B0 0E 01 0B B0  0E 01 74 6C 6B 30 2B 0B  ..........tlk0+.
0650: B0 0E 01 3B 80 23 2B 0B  B0 0E 01 3C 80 23 6B 69  ...;.#+....<.#ki
0660: 64 6C 30 0B B0 0E 01 66  04 80 0B B0 0E 01 0B B0  dl0....f........
0670: 0E 01 74 65 6E 30 01 F3  07 02 00 10 08 80 00 BB  ..ten0..........
0680: 06 66 04 80 0B B0 0E 01  0B B0 0E 01 74 6C 6B 30  .f..........tlk0
0690: 2B 0B B0 0E 01 3D 80 23  2B 0B B0 0E 01 3E 80 23  +....=.#+....>.#
06A0: 6B 69 64 6C 30 0B B0 0E  01 66 04 80 0B B0 0E 01  kidl0....f......
06B0: 0B B0 0E 01 74 65 6E 30  01 F3 07 02 00 10 3F 80  ....ten0......?.
06C0: 00 F3 07 66 04 80 0B B0  0E 01 0B B0 0E 01 74 6C  ...f..........tl
06D0: 6B 32 2B 0B B0 0E 01 40  80 23 6B 69 64 6C 30 0B  k2+....@.#kidl0.
06E0: B0 0E 01 66 04 80 0B B0  0E 01 0B B0 0E 01 74 65  ...f..........te
06F0: 6E 32 24 41 80 04 80 04  80 25 02 00 10 04 80 00  n2$A.....%......
0700: 34 07 66 04 80 0B B0 0E  01 0B B0 0E 01 74 6C 6B  4.f..........tlk
0710: 30 2B 0B B0 0E 01 42 80  23 6B 69 64 6C 30 0B B0  0+....B.#kidl0..
0720: 0E 01 66 04 80 0B B0 0E  01 0B B0 0E 01 74 65 6E  ..f..........ten
0730: 30 01 F0 07 02 00 10 08  80 00 B6 07 66 04 80 0B  0...........f...
0740: B0 0E 01 0B B0 0E 01 74  6C 6B 30 2B 0B B0 0E 01  .......tlk0+....
0750: 43 80 23 6B 69 64 6C 30  0B B0 0E 01 66 04 80 0B  C.#kidl0....f...
0760: B0 0E 01 0B B0 0E 01 74  65 6E 30 66 0D 80 0A B0  .......ten0f....
0770: 0E 01 0A B0 0E 01 74 6C  6B 30 2B 0A B0 0E 01 44  ......tlk0+....D
0780: 80 23 2B 0A B0 0E 01 45  80 23 27 0A 0A B0 0E 01  .#+....E.#'.....
0790: 03 4A 0B B0 0E 01 0A B0  0E 01 2B 0B B0 0E 01 46  .J........+....F
07A0: 80 23 2B 0A B0 0E 01 47  80 23 4A 0B B0 0E 01 F0  .#+....G.#J.....
07B0: FF FF 7F 01 F0 07 02 00  10 3F 80 00 F0 07 66 04  .........?....f.
07C0: 80 0B B0 0E 01 0B B0 0E  01 74 6C 6B 30 2B 0B B0  .........tlk0+..
07D0: 0E 01 48 80 23 6B 69 64  6C 30 0B B0 0E 01 66 04  ..H.#kidl0....f.
07E0: 80 0B B0 0E 01 0B B0 0E  01 74 65 6E 30 01 F0 07  .........ten0...
07F0: 01 F3 07 03 09 10 49 80  1C 26 80 66 04 80 0B B0  ......I..&.f....
0800: 0E 01 0B B0 0E 01 70 61  73 30 2B 0B B0 0E 01 4A  ......pas0+....J
0810: 80 23 2B 0B B0 0E 01 4B  80 C8 4C 80 04 80 08 80  .#+....K..L.....
0820: 8B 4C 80 04 80 4D 80 4E  80 52 65 65 74 00 00 00  .L...M.N.Reet...
0830: 00 00 00 00 00 00 00 00  00 1C 1E 80 23 2B 0B B0  ............#+..
0840: 0E 01 4F 80 23 4E 00 3C  B0 0E 01 8A 1C 0D 80 80  ..O.#N.<........
0850: 3C B0 0E 01 45 05 80 F0  FF FF 7F F0 FF FF 7F 73  <...E..........s
0860: 30 32 38 04 80 2B 0B B0  0E 01 50 80 23 52 05 80  028..+....P.#R..
0870: F0 FF FF 7F F0 FF FF 7F  73 30 32 38 45 05 80 F0  ........s028E...
0880: FF FF 7F F0 FF FF 7F 73  30 30 38 04 80 2B 0B B0  .......s008..+..
0890: 0E 01 51 80 23 66 04 80  0B B0 0E 01 0B B0 0E 01  ..Q.#f..........
08A0: 74 6C 6B 31 2B 0B B0 0E  01 52 80 23 66 04 80 0B  tlk1+....R.#f...
08B0: B0 0E 01 0B B0 0E 01 74  65 6E 31 1C 19 80 27 0A  .......ten1...'.
08C0: 0B B0 0E 01 05 27 0A 0A  B0 0E 01 06 1C 0C 80 45  .....'.........E
08D0: 03 80 F0 FF FF 7F F0 FF  FF 7F 66 64 6F 32 04 80  ..........fdo2..
08E0: 1C 0C 80 4A F0 FF FF 7F  0B B0 0E 01 1C 1E 80 78  ...J...........x
08F0: 46 00 1C 09 80 45 03 80  F0 FF FF 7F F0 FF FF 7F  F....E..........
0900: 66 64 69 32 04 80 21 00                           fdi2..!.        
```

#### Opcodes

```
  0: 0x01A4 [0x42] SET_CLI_EVENT_CANCEL_DATA()
  1: 0x01A5 [0x46] CAMERA_CONTROL: Disable user control
  2: 0x01A7 [0x45] LOAD_SCHEDULED_TASK: Load scheduler "fdo2" with entities [LocalPlayer, LocalPlayer], work=[200*, 0*]
  3: 0x01B8 [0x55] WAIT_LOAD_SCHEDULER: Wait for scheduler "fdo2" with entities [LocalPlayer, LocalPlayer], work=200*
  4: 0x01C7 [0x77] SET_EVENT_TIME_WEATHER(hour=16*, weather=1*)
  5: 0x01CC [0x38] SET_CLIENT_EVENT_MODE(mode=18*)
  6: 0x01CF [0x68] SHOW_HUD_ELEMENTS()
  7: 0x01D0 [0x27] REQ_SET(priority=0x0A, entity_id=Arawn (ID: 17739782/0x010EB006), tag_num=0x04)
  8: 0x01D7 [0x27] REQ_SET(priority=0x0A, entity_id=Emrys (ID: 17739783/0x010EB007), tag_num=0x04)
  9: 0x01DE [0x4E] SET_ENTITY_HIDE_FLAG: Show LocalPlayer
 10: 0x01E4 [0xBA] SET_ENTITY_POSITION(entity_id=LocalPlayer, pos_x=-281.546*, pos_z=-98.238*, pos_y=-11.999*, direction=271.2°*)
 11: 0x01F1 [0x80] LOAD_WAIT(entity=LocalPlayer)
 12: 0x01F6 [0x45] LOAD_SCHEDULED_TASK: Load scheduler "s005" with entities [LocalPlayer, LocalPlayer], work=[135*, 0*]
 13: 0x0207 [0x1C] WAIT(20* ticks)
 14: 0x020A [0x45] LOAD_SCHEDULED_TASK: Load scheduler "fdi2" with entities [LocalPlayer, LocalPlayer], work=[200*, 0*]
 15: 0x021B [0x1C] WAIT(100* ticks)
 16: 0x021E [0x4A] Gwill (ID: 17739781/0x010EB005) looks at Arawn (ID: 17739782/0x010EB006)
 17: 0x0227 [0x5B] LOAD_EXT_SCHEDULER: Load scheduler "tlk0" with entities [Arawn (ID: 17739782/0x010EB006), Arawn (ID: 17739782/0x010EB006)], work=75*
 18: 0x0236 [0x2B] Arawn (ID: 17739782/0x010EB006) [7419*]:
    → "Hey, Gwill! Is it true? You really saw Captain Volker!?"
 19: 0x023D [0x23] WAIT_FOR_DIALOG_INTERACTION
 20: 0x023E [0x27] REQ_SET(priority=0x0A, entity_id=Arawn (ID: 17739782/0x010EB006), tag_num=0x06)
 21: 0x0245 [0x4A] Gwill (ID: 17739781/0x010EB005) looks at Emrys (ID: 17739783/0x010EB007)
 22: 0x024E [0x5B] LOAD_EXT_SCHEDULER: Load scheduler "tlk0" with entities [Emrys (ID: 17739783/0x010EB007), Emrys (ID: 17739783/0x010EB007)], work=75*
 23: 0x025D [0x2B] Emrys (ID: 17739783/0x010EB007) [7420*]:
    → "Are you really, really sure? We're talking about the captain of the Mythril Musketeers here!"
 24: 0x0264 [0x23] WAIT_FOR_DIALOG_INTERACTION
 25: 0x0265 [0x27] REQ_SET(priority=0x0A, entity_id=Emrys (ID: 17739783/0x010EB007), tag_num=0x06)
 26: 0x026C [0x1E] EventEntity looks at Gwill (ID: 17739781/0x010EB005) and starts talking
 27: 0x0271 [0x1C] WAIT(30* ticks)
 28: 0x0274 [0x5B] LOAD_EXT_SCHEDULER: Load scheduler "tlk0" with entities [Gwill (ID: 17739781/0x010EB005), Gwill (ID: 17739781/0x010EB005)], work=90*
 29: 0x0283 [0x2B] Gwill (ID: 17739781/0x010EB005) [7421*]:
    → "I'm telling you, I'm sure! I saw him walking toward the Mines District. I bet you he's investigating something!"
 30: 0x028A [0x23] WAIT_FOR_DIALOG_INTERACTION
 31: 0x028B [0x27] REQ_SET(priority=0x0A, entity_id=Gwill (ID: 17739781/0x010EB005), tag_num=0x03)
 32: 0x0292 [0x5B] LOAD_EXT_SCHEDULER: Load scheduler "tlk0" with entities [Arawn (ID: 17739782/0x010EB006), Arawn (ID: 17739782/0x010EB006)], work=75*
 33: 0x02A1 [0x2B] Arawn (ID: 17739782/0x010EB006) [7422*]:
    → "Yeah, right! Like you'd ever know!"
 34: 0x02A8 [0x23] WAIT_FOR_DIALOG_INTERACTION
 35: 0x02A9 [0x27] REQ_SET(priority=0x0A, entity_id=Arawn (ID: 17739782/0x010EB006), tag_num=0x06)
 36: 0x02B0 [0x5B] LOAD_EXT_SCHEDULER: Load scheduler "thk1" with entities [Gwill (ID: 17739781/0x010EB005), Gwill (ID: 17739781/0x010EB005)], work=90*
 37: 0x02BF [0x2B] Gwill (ID: 17739781/0x010EB005) [7423*]:
    → "..."
 38: 0x02C6 [0x23] WAIT_FOR_DIALOG_INTERACTION
 39: 0x02C7 [0x5B] LOAD_EXT_SCHEDULER: Load scheduler "thk1" with entities [Emrys (ID: 17739783/0x010EB007), Emrys (ID: 17739783/0x010EB007)], work=75*
 40: 0x02D6 [0x2B] Emrys (ID: 17739783/0x010EB007) [7424*]:
    → "Hey, didn't you say you wanted to become a Mythril Musketeer someday?"
 41: 0x02DD [0x23] WAIT_FOR_DIALOG_INTERACTION
 42: 0x02DE [0x53] WAIT_SCHEDULER_TASK: Wait for scheduler "thk1" with entities [Emrys (ID: 17739783/0x010EB007), Emrys (ID: 17739783/0x010EB007)]
 43: 0x02EB [0x55] WAIT_LOAD_SCHEDULER: Wait for scheduler "s005" with entities [LocalPlayer, LocalPlayer], work=135*
 44: 0x02FA [0x45] LOAD_SCHEDULED_TASK: Load scheduler "s006" with entities [LocalPlayer, LocalPlayer], work=[135*, 0*]
 45: 0x030B [0x5B] LOAD_EXT_SCHEDULER: Load scheduler "thk2" with entities [Emrys (ID: 17739783/0x010EB007), Emrys (ID: 17739783/0x010EB007)], work=75*
 46: 0x031A [0x5B] LOAD_EXT_SCHEDULER: Load scheduler "tlk0" with entities [Arawn (ID: 17739782/0x010EB006), Arawn (ID: 17739782/0x010EB006)], work=75*
 47: 0x0329 [0x2B] Arawn (ID: 17739782/0x010EB006) [7425*]:
    → "You're too slow. They'd never take you! Besides, Galka can't become Musketeers! Even if they did, they'd never become captains!"
 48: 0x0330 [0x23] WAIT_FOR_DIALOG_INTERACTION
 49: 0x0331 [0x27] REQ_SET(priority=0x0A, entity_id=Arawn (ID: 17739782/0x010EB006), tag_num=0x06)
 50: 0x0338 [0x5B] LOAD_EXT_SCHEDULER: Load scheduler "thk2" with entities [Gwill (ID: 17739781/0x010EB005), Gwill (ID: 17739781/0x010EB005)], work=90*
 51: 0x0347 [0x1C] WAIT(30* ticks)
 52: 0x034A [0x4A] Gwill (ID: 17739781/0x010EB005) looks at Arawn (ID: 17739782/0x010EB006)
 53: 0x0353 [0x2B] Gwill (ID: 17739781/0x010EB005) [7426*]:
    → "That's not true! Two of the five Mythril Musketeers are Galka..."
 54: 0x035A [0x23] WAIT_FOR_DIALOG_INTERACTION
 55: 0x035B [0x27] REQ_SET(priority=0x0A, entity_id=Emrys (ID: 17739783/0x010EB007), tag_num=0x05)
 56: 0x0362 [0x2B] Emrys (ID: 17739783/0x010EB007) [7427*]:
    → "But one of 'em disappeared a long time ago, right? He doesn't count!"
 57: 0x0369 [0x23] WAIT_FOR_DIALOG_INTERACTION
 58: 0x036A [0x4A] Gwill (ID: 17739781/0x010EB005) looks at Emrys (ID: 17739783/0x010EB007)
 59: 0x0373 [0x1C] WAIT(15* ticks)
 60: 0x0376 [0x5B] LOAD_EXT_SCHEDULER: Load scheduler "tlk0" with entities [Gwill (ID: 17739781/0x010EB005), Gwill (ID: 17739781/0x010EB005)], work=90*
 61: 0x0385 [0x2B] Gwill (ID: 17739781/0x010EB005) [7428*]:
    → "And...and...there was even a Galka who was supposed to become a captain, once..."
 62: 0x038C [0x23] WAIT_FOR_DIALOG_INTERACTION
 63: 0x038D [0x27] REQ_SET(priority=0x0A, entity_id=Gwill (ID: 17739781/0x010EB005), tag_num=0x03)
 64: 0x0394 [0x1C] WAIT(10* ticks)
 65: 0x0397 [0x27] REQ_SET(priority=0x0A, entity_id=Arawn (ID: 17739782/0x010EB006), tag_num=0x05)
 66: 0x039E [0x1C] WAIT(15* ticks)
 67: 0x03A1 [0x4A] Gwill (ID: 17739781/0x010EB005) looks at Arawn (ID: 17739782/0x010EB006)
 68: 0x03AA [0x2A] GET_REQ_LEVEL(level=10, entity_id=Arawn (ID: 17739782/0x010EB006))
 69: 0x03B0 [0x5B] LOAD_EXT_SCHEDULER: Load scheduler "tlk0" with entities [Arawn (ID: 17739782/0x010EB006), Arawn (ID: 17739782/0x010EB006)], work=75*
 70: 0x03BF [0x2B] Arawn (ID: 17739782/0x010EB006) [7429*]:
    → "Ha! That's a laugh! Whoever told you that?"
 71: 0x03C6 [0x23] WAIT_FOR_DIALOG_INTERACTION
 72: 0x03C7 [0x27] REQ_SET(priority=0x0A, entity_id=Arawn (ID: 17739782/0x010EB006), tag_num=0x06)
 73: 0x03CE [0x5B] LOAD_EXT_SCHEDULER: Load scheduler "thk1" with entities [Gwill (ID: 17739781/0x010EB005), Gwill (ID: 17739781/0x010EB005)], work=90*
 74: 0x03DD [0x2B] Gwill (ID: 17739781/0x010EB005) [7430*]:
    → "Gumbah, from the Mines District..."
 75: 0x03E4 [0x23] WAIT_FOR_DIALOG_INTERACTION
 76: 0x03E5 [0x5B] LOAD_EXT_SCHEDULER: Load scheduler "tlk0" with entities [Emrys (ID: 17739783/0x010EB007), Emrys (ID: 17739783/0x010EB007)], work=75*
 77: 0x03F4 [0x2B] Emrys (ID: 17739783/0x010EB007) [7431*]:
    → "He's just a kid! What would he know?"
 78: 0x03FB [0x23] WAIT_FOR_DIALOG_INTERACTION
 79: 0x03FC [0x27] REQ_SET(priority=0x0A, entity_id=Emrys (ID: 17739783/0x010EB007), tag_num=0x06)
 80: 0x0403 [0x5B] LOAD_EXT_SCHEDULER: Load scheduler "tlk0" with entities [Arawn (ID: 17739782/0x010EB006), Arawn (ID: 17739782/0x010EB006)], work=75*
 81: 0x0412 [0x2B] Arawn (ID: 17739782/0x010EB006) [7432*]:
    → "And I can't believe you'd hang around that dirty ol' place! Well, we're not playing with grubby Mines people like you!"
 82: 0x0419 [0x23] WAIT_FOR_DIALOG_INTERACTION
 83: 0x041A [0x27] REQ_SET(priority=0x0A, entity_id=Arawn (ID: 17739782/0x010EB006), tag_num=0x06)
 84: 0x0421 [0x55] WAIT_LOAD_SCHEDULER: Wait for scheduler "s006" with entities [LocalPlayer, LocalPlayer], work=135*
 85: 0x0430 [0x27] REQ_SET(priority=0x0A, entity_id=Valdemar (ID: 17739787/0x010EB00B), tag_num=0x02)
 86: 0x0437 [0x27] REQ_SET(priority=0x0A, entity_id=Dalzakk (ID: 17739786/0x010EB00A), tag_num=0x02)
 87: 0x043E [0x45] LOAD_SCHEDULED_TASK: Load scheduler "s007" with entities [LocalPlayer, LocalPlayer], work=[135*, 0*]
 88: 0x044F [0x1C] WAIT(30* ticks)
 89: 0x0452 [0x2B] Valdemar (ID: 17739787/0x010EB00B) [7433*]:
    → "Hey, hey. What's all this bickering about?"
 90: 0x0459 [0x23] WAIT_FOR_DIALOG_INTERACTION
 91: 0x045A [0x5B] LOAD_EXT_SCHEDULER: Load scheduler "thk2" with entities [Gwill (ID: 17739781/0x010EB005), Gwill (ID: 17739781/0x010EB005)], work=90*
 92: 0x0469 [0x27] REQ_SET(priority=0x0A, entity_id=Emrys (ID: 17739783/0x010EB007), tag_num=0x07)
 93: 0x0470 [0x1C] WAIT(30* ticks)
 94: 0x0473 [0x27] REQ_SET(priority=0x0A, entity_id=Gwill (ID: 17739781/0x010EB005), tag_num=0x04)
 95: 0x047A [0x2B] Emrys (ID: 17739783/0x010EB007) [7434*]:
    → "Dad! Are you going adventuring again?"
 96: 0x0481 [0x23] WAIT_FOR_DIALOG_INTERACTION
 97: 0x0482 [0x2A] GET_REQ_LEVEL(level=10, entity_id=Valdemar (ID: 17739787/0x010EB00B))
 98: 0x0488 [0x66] LOAD_EXT_SCHEDULER_MAIN: Load scheduler "tlk0" with entities [Valdemar (ID: 17739787/0x010EB00B), Valdemar (ID: 17739787/0x010EB00B)], work=0*
 99: 0x0497 [0x2B] Valdemar (ID: 17739787/0x010EB00B) [7435*]:
    → "I am. I'll be gone awhile, but if you don't get along with the other kids, I won't bring you any presents..."
100: 0x049E [0x23] WAIT_FOR_DIALOG_INTERACTION
101: 0x049F [0x66] LOAD_EXT_SCHEDULER_MAIN: Load scheduler "ten0" with entities [Valdemar (ID: 17739787/0x010EB00B), Valdemar (ID: 17739787/0x010EB00B)], work=0*
102: 0x04AE [0x2B] Emrys (ID: 17739783/0x010EB007) [7436*]:
    → "Yes, sir!"
103: 0x04B5 [0x23] WAIT_FOR_DIALOG_INTERACTION
104: 0x04B6 [0x2A] GET_REQ_LEVEL(level=10, entity_id=Dalzakk (ID: 17739786/0x010EB00A))
105: 0x04BC [0x5B] LOAD_EXT_SCHEDULER: Load scheduler "tlk0" with entities [Gwill (ID: 17739781/0x010EB005), Gwill (ID: 17739781/0x010EB005)], work=90*
106: 0x04CB [0x2B] Gwill (ID: 17739781/0x010EB005) [7437*]:
    → "You're going too, Mister Dalzakk?"
107: 0x04D2 [0x23] WAIT_FOR_DIALOG_INTERACTION
108: 0x04D3 [0x27] REQ_SET(priority=0x0A, entity_id=Gwill (ID: 17739781/0x010EB005), tag_num=0x03)
109: 0x04DA [0x66] LOAD_EXT_SCHEDULER_MAIN: Load scheduler "tlk0" with entities [Dalzakk (ID: 17739786/0x010EB00A), Dalzakk (ID: 17739786/0x010EB00A)], work=60*
110: 0x04E9 [0x2B] Dalzakk (ID: 17739786/0x010EB00A) [7438*]:
    → "Yes. Be good and look after my place for me, Gwill."
111: 0x04F0 [0x23] WAIT_FOR_DIALOG_INTERACTION
112: 0x04F1 [0x27] REQ_SET(priority=0x0A, entity_id=Dalzakk (ID: 17739786/0x010EB00A), tag_num=0x03)
113: 0x04F8 [0x27] REQ_SET(priority=0x0A, entity_id=Arawn (ID: 17739782/0x010EB006), tag_num=0x07)
114: 0x04FF [0x2B] Arawn (ID: 17739782/0x010EB006) [7439*]:
    → "Hey, let's go play over there!"
115: 0x0506 [0x23] WAIT_FOR_DIALOG_INTERACTION
116: 0x0507 [0x2A] GET_REQ_LEVEL(level=10, entity_id=Arawn (ID: 17739782/0x010EB006))
117: 0x050D [0x27] REQ_SET(priority=0x0A, entity_id=Arawn (ID: 17739782/0x010EB006), tag_num=0x08)
118: 0x0514 [0x27] REQ_SET(priority=0x0A, entity_id=Emrys (ID: 17739783/0x010EB007), tag_num=0x08)
119: 0x051B [0x1C] WAIT(10* ticks)
120: 0x051E [0x4A] Gwill (ID: 17739781/0x010EB005) looks at Arawn (ID: 17739782/0x010EB006)
121: 0x0527 [0x1C] WAIT(10* ticks)
122: 0x052A [0x79] Valdemar (ID: 17739787/0x010EB00B) looks at Arawn (ID: 17739782/0x010EB006) (Basic look)
123: 0x0534 [0x79] Dalzakk (ID: 17739786/0x010EB00A) looks at Gwill (ID: 17739781/0x010EB005) (Basic look)
124: 0x053E [0x2B] Gwill (ID: 17739781/0x010EB005) [7440*]:
    → "H-hey, guys! Wait for me!"
125: 0x0545 [0x23] WAIT_FOR_DIALOG_INTERACTION
126: 0x0546 [0x2A] GET_REQ_LEVEL(level=10, entity_id=Arawn (ID: 17739782/0x010EB006))
127: 0x054C [0x27] REQ_SET(priority=0x0A, entity_id=Gwill (ID: 17739781/0x010EB005), tag_num=0x05)
128: 0x0553 [0x1C] WAIT(30* ticks)
129: 0x0556 [0x1C] WAIT(30* ticks)
130: 0x0559 [0x1C] WAIT(30* ticks)
131: 0x055C [0x2A] GET_REQ_LEVEL(level=10, entity_id=Gwill (ID: 17739781/0x010EB005))
132: 0x0562 [0x1C] WAIT(50* ticks)
133: 0x0565 [0x7B] Valdemar (ID: 17739787/0x010EB00B) stops talking
134: 0x056A [0x7B] Dalzakk (ID: 17739786/0x010EB00A) stops talking
135: 0x056F [0x1C] WAIT(10* ticks)
136: 0x0572 [0x6B] STOP_AND_IDLE: Valdemar (ID: 17739787/0x010EB00B) stops current action and resets to idle (animation="idl0")
137: 0x057B [0x27] REQ_SET(priority=0x0A, entity_id=Valdemar (ID: 17739787/0x010EB00B), tag_num=0x04)
138: 0x0582 [0x27] REQ_SET(priority=0x0A, entity_id=Dalzakk (ID: 17739786/0x010EB00A), tag_num=0x04)
139: 0x0589 [0x1C] WAIT(15* ticks)
140: 0x058C [0x45] LOAD_SCHEDULED_TASK: Load scheduler "s008" with entities [LocalPlayer, LocalPlayer], work=[135*, 0*]
141: 0x059D [0x27] REQ_SET(priority=0x0A, entity_id=LocalPlayer, tag_num=0x06)
142: 0x05A4 [0x2B] Valdemar (ID: 17739787/0x010EB00B) [7441*]:
    → "Well then, let's... Oh?"
143: 0x05AB [0x23] WAIT_FOR_DIALOG_INTERACTION
144: 0x05AC [0x79] Valdemar (ID: 17739787/0x010EB00B) looks at LocalPlayer (Basic look)
145: 0x05B6 [0x79] Dalzakk (ID: 17739786/0x010EB00A) looks at LocalPlayer (Basic look)
146: 0x05C0 [0x1C] WAIT(30* ticks)
147: 0x05C3 [0x2A] GET_REQ_LEVEL(level=10, entity_id=Valdemar (ID: 17739787/0x010EB00B))
148: 0x05C9 [0x1C] WAIT(30* ticks)
149: 0x05CC [0x66] LOAD_EXT_SCHEDULER_MAIN: Load scheduler "tlk0" with entities [Valdemar (ID: 17739787/0x010EB00B), Valdemar (ID: 17739787/0x010EB00B)], work=0*
150: 0x05DB [0x2B] Valdemar (ID: 17739787/0x010EB00B) [7442*]:
    → "You're an adventurer too, I see. Ah, but you're still new, aren't you? I can't ask you to come with us, then."
151: 0x05E2 [0x23] WAIT_FOR_DIALOG_INTERACTION
152: 0x05E3 [0x2B] Valdemar (ID: 17739787/0x010EB00B) [7443*]:
    → "Like Dalzakk and myself have done, you should try to find a party of people who are the same level as you."
153: 0x05EA [0x23] WAIT_FOR_DIALOG_INTERACTION
154: 0x05EB [0x66] LOAD_EXT_SCHEDULER_MAIN: Load scheduler "ten0" with entities [Valdemar (ID: 17739787/0x010EB00B), Valdemar (ID: 17739787/0x010EB00B)], work=0*
155: 0x05FA [0x27] REQ_SET(priority=0x0A, entity_id=Dalzakk (ID: 17739786/0x010EB00A), tag_num=0x05)
156: 0x0601 [0x2B] Dalzakk (ID: 17739786/0x010EB00A) [7444*]:
    → "...We do not always adventure together..."
157: 0x0608 [0x23] WAIT_FOR_DIALOG_INTERACTION
158: 0x0609 [0x2A] GET_REQ_LEVEL(level=10, entity_id=Valdemar (ID: 17739787/0x010EB00B))
159: 0x060F [0x66] LOAD_EXT_SCHEDULER_MAIN: Load scheduler "tlk1" with entities [Valdemar (ID: 17739787/0x010EB00B), Valdemar (ID: 17739787/0x010EB00B)], work=0*
160: 0x061E [0x2B] Valdemar (ID: 17739787/0x010EB00B) [7445*]:
    → "...Right. Is there anything we can help you with? What is it you want to do first?"
161: 0x0625 [0x23] WAIT_FOR_DIALOG_INTERACTION
162: 0x0626 [0x6B] STOP_AND_IDLE: Valdemar (ID: 17739787/0x010EB00B) stops current action and resets to idle (animation="id10")
163: 0x062F [0x24] CREATE_DIALOG(message_id=7446*, default_option=0*, option_flags=0*)
    → "For starters, I'd like to... [Fight monsters!/Go shopping./Find some work.]"
164: 0x0636 [0x25] WAIT_DIALOG_SELECT()
165: 0x0637 [0x02] IF !(Work_Zone[0] == 0*) GOTO 0x0679
166: 0x063F [0x66] LOAD_EXT_SCHEDULER_MAIN: Load scheduler "tlk0" with entities [Valdemar (ID: 17739787/0x010EB00B), Valdemar (ID: 17739787/0x010EB00B)], work=0*
167: 0x064E [0x2B] Valdemar (ID: 17739787/0x010EB00B) [7447*]:
    → "Then you want to be outside the city walls. Head southwest of here and you'll find the West Gate."
168: 0x0655 [0x23] WAIT_FOR_DIALOG_INTERACTION
169: 0x0656 [0x2B] Valdemar (ID: 17739787/0x010EB00B) [7448*]:
    → "Always "check" your target's strength before engaging it and make sure it won't eat you whole."
170: 0x065D [0x23] WAIT_FOR_DIALOG_INTERACTION
171: 0x065E [0x6B] STOP_AND_IDLE: Valdemar (ID: 17739787/0x010EB00B) stops current action and resets to idle (animation="idl0")
172: 0x0667 [0x66] LOAD_EXT_SCHEDULER_MAIN: Load scheduler "ten0" with entities [Valdemar (ID: 17739787/0x010EB00B), Valdemar (ID: 17739787/0x010EB00B)], work=0*
173: 0x0676 [0x01] GOTO 0x07F3
174: 0x0679 [0x02] IF !(Work_Zone[0] == 1*) GOTO 0x06BB
175: 0x0681 [0x66] LOAD_EXT_SCHEDULER_MAIN: Load scheduler "tlk0" with entities [Valdemar (ID: 17739787/0x010EB00B), Valdemar (ID: 17739787/0x010EB00B)], work=0*
176: 0x0690 [0x2B] Valdemar (ID: 17739787/0x010EB00B) [7449*]:
    → "You're standing in the Bastok Markets. You should find everything you need in this district."
177: 0x0697 [0x23] WAIT_FOR_DIALOG_INTERACTION
178: 0x0698 [0x2B] Valdemar (ID: 17739787/0x010EB00B) [7450*]:
    → "On the Kulatz Bridge near the West Gate you'll find the Dragon's Claws weaponry store, Brunhilde's armor shop, and Mjoll's goods shop. Sororo's magic shop and the entrance to the Metalworks are in the northern section."
179: 0x069F [0x23] WAIT_FOR_DIALOG_INTERACTION
180: 0x06A0 [0x6B] STOP_AND_IDLE: Valdemar (ID: 17739787/0x010EB00B) stops current action and resets to idle (animation="idl0")
181: 0x06A9 [0x66] LOAD_EXT_SCHEDULER_MAIN: Load scheduler "ten0" with entities [Valdemar (ID: 17739787/0x010EB00B), Valdemar (ID: 17739787/0x010EB00B)], work=0*
182: 0x06B8 [0x01] GOTO 0x07F3
183: 0x06BB [0x02] IF !(Work_Zone[0] == 2*) GOTO 0x07F3
184: 0x06C3 [0x66] LOAD_EXT_SCHEDULER_MAIN: Load scheduler "tlk2" with entities [Valdemar (ID: 17739787/0x010EB00B), Valdemar (ID: 17739787/0x010EB00B)], work=0*
185: 0x06D2 [0x2B] Valdemar (ID: 17739787/0x010EB00B) [7451*]:
    → "Setting goals for yourself, that's good. What kind of work are you looking for?"
186: 0x06D9 [0x23] WAIT_FOR_DIALOG_INTERACTION
187: 0x06DA [0x6B] STOP_AND_IDLE: Valdemar (ID: 17739787/0x010EB00B) stops current action and resets to idle (animation="idl0")
188: 0x06E3 [0x66] LOAD_EXT_SCHEDULER_MAIN: Load scheduler "ten2" with entities [Valdemar (ID: 17739787/0x010EB00B), Valdemar (ID: 17739787/0x010EB00B)], work=0*
189: 0x06F2 [0x24] CREATE_DIALOG(message_id=7452*, default_option=0*, option_flags=0*)
    → "What do you want to do? [Serve Bastok./Help people./Get rich, quick.]"
190: 0x06F9 [0x25] WAIT_DIALOG_SELECT()
191: 0x06FA [0x02] IF !(Work_Zone[0] == 0*) GOTO 0x0734
192: 0x0702 [0x66] LOAD_EXT_SCHEDULER_MAIN: Load scheduler "tlk0" with entities [Valdemar (ID: 17739787/0x010EB00B), Valdemar (ID: 17739787/0x010EB00B)], work=0*
193: 0x0711 [0x2B] Valdemar (ID: 17739787/0x010EB00B) [7453*]:
    → "Ah, a patriot! You want to talk to a guard in charge of assigning missions. You should be able to find one at the West Gate. That's southwest of here."
194: 0x0718 [0x23] WAIT_FOR_DIALOG_INTERACTION
195: 0x0719 [0x6B] STOP_AND_IDLE: Valdemar (ID: 17739787/0x010EB00B) stops current action and resets to idle (animation="idl0")
196: 0x0722 [0x66] LOAD_EXT_SCHEDULER_MAIN: Load scheduler "ten0" with entities [Valdemar (ID: 17739787/0x010EB00B), Valdemar (ID: 17739787/0x010EB00B)], work=0*
197: 0x0731 [0x01] GOTO 0x07F0
198: 0x0734 [0x02] IF !(Work_Zone[0] == 1*) GOTO 0x07B6
199: 0x073C [0x66] LOAD_EXT_SCHEDULER_MAIN: Load scheduler "tlk0" with entities [Valdemar (ID: 17739787/0x010EB00B), Valdemar (ID: 17739787/0x010EB00B)], work=0*
200: 0x074B [0x2B] Valdemar (ID: 17739787/0x010EB00B) [7454*]:
    → "Hmm... I don't think I know anyone in need of help right now."
201: 0x0752 [0x23] WAIT_FOR_DIALOG_INTERACTION
202: 0x0753 [0x6B] STOP_AND_IDLE: Valdemar (ID: 17739787/0x010EB00B) stops current action and resets to idle (animation="idl0")
203: 0x075C [0x66] LOAD_EXT_SCHEDULER_MAIN: Load scheduler "ten0" with entities [Valdemar (ID: 17739787/0x010EB00B), Valdemar (ID: 17739787/0x010EB00B)], work=0*
204: 0x076B [0x66] LOAD_EXT_SCHEDULER_MAIN: Load scheduler "tlk0" with entities [Dalzakk (ID: 17739786/0x010EB00A), Dalzakk (ID: 17739786/0x010EB00A)], work=60*
205: 0x077A [0x2B] Dalzakk (ID: 17739786/0x010EB00A) [7455*]:
    → "I do. Her name is Michea. She's an Elvaan who lives next door to me. Could you talk to her and see if you can help?"
206: 0x0781 [0x23] WAIT_FOR_DIALOG_INTERACTION
207: 0x0782 [0x2B] Dalzakk (ID: 17739786/0x010EB00A) [7456*]:
    → "Go to the Kulatz Bridge near the West Gate. There you will see three buildings with shops in them. Michea lives on the second floor of the middle building."
208: 0x0789 [0x23] WAIT_FOR_DIALOG_INTERACTION
209: 0x078A [0x27] REQ_SET(priority=0x0A, entity_id=Dalzakk (ID: 17739786/0x010EB00A), tag_num=0x03)
210: 0x0791 [0x4A] Valdemar (ID: 17739787/0x010EB00B) looks at Dalzakk (ID: 17739786/0x010EB00A)
211: 0x079A [0x2B] Valdemar (ID: 17739787/0x010EB00B) [7457*]:
    → "Why don't you help her yourself?"
212: 0x07A1 [0x23] WAIT_FOR_DIALOG_INTERACTION
213: 0x07A2 [0x2B] Dalzakk (ID: 17739786/0x010EB00A) [7458*]:
    → "..."
214: 0x07A9 [0x23] WAIT_FOR_DIALOG_INTERACTION
215: 0x07AA [0x4A] Valdemar (ID: 17739787/0x010EB00B) looks at LocalPlayer
216: 0x07B3 [0x01] GOTO 0x07F0
217: 0x07B6 [0x02] IF !(Work_Zone[0] == 2*) GOTO 0x07F0
218: 0x07BE [0x66] LOAD_EXT_SCHEDULER_MAIN: Load scheduler "tlk0" with entities [Valdemar (ID: 17739787/0x010EB00B), Valdemar (ID: 17739787/0x010EB00B)], work=0*
219: 0x07CD [0x2B] Valdemar (ID: 17739787/0x010EB00B) [7460*]:
    → "Then you should go to Gold Street, where Bastok's rich and famous live. It runs along the canal east of here. You should have no trouble finding some high-paying work there."
220: 0x07D4 [0x23] WAIT_FOR_DIALOG_INTERACTION
221: 0x07D5 [0x6B] STOP_AND_IDLE: Valdemar (ID: 17739787/0x010EB00B) stops current action and resets to idle (animation="idl0")
222: 0x07DE [0x66] LOAD_EXT_SCHEDULER_MAIN: Load scheduler "ten0" with entities [Valdemar (ID: 17739787/0x010EB00B), Valdemar (ID: 17739787/0x010EB00B)], work=0*
223: 0x07ED [0x01] GOTO 0x07F0

SUBROUTINE_07F0:
224: 0x07F0 [0x01] GOTO 0x07F3

SUBROUTINE_07F3:
225: 0x07F3 [0x03] Work_Zone[9] = 536*
226: 0x07F8 [0x1C] WAIT(15* ticks)
227: 0x07FB [0x66] LOAD_EXT_SCHEDULER_MAIN: Load scheduler "pas0" with entities [Valdemar (ID: 17739787/0x010EB00B), Valdemar (ID: 17739787/0x010EB00B)], work=0*
228: 0x080A [0x2B] Valdemar (ID: 17739787/0x010EB00B) [7461*]:
    → "Anyway...here, take this $7. Give it to a guard named Reet, and she'll give you some starting money."
229: 0x0811 [0x23] WAIT_FOR_DIALOG_INTERACTION
230: 0x0812 [0x2B] Valdemar (ID: 17739787/0x010EB00B) [7462*]:
    → "You can find her..."
231: 0x0819 [0xC8] OPEN_MAP_WINDOW(zone=0x804C, submap=0x8004, flag=0x8008)
232: 0x0820 [0x8B] SET_EVENT_MARK: Add/update map marker on map 235* at (-237.973*, -41.427*), index=0*, name=(no name)
233: 0x0829 [0x52] END_LOAD_SCHEDULER: End scheduler 0x00000000 with entities [Unknown NPC (ID: 116/0x00000074), Unknown NPC (ID: 0/0x00000000)], work=0x6565
234: 0x0838 [0x00] END_REQSTACK()
```

#### Data or dead code:

```
# Dead code (unreachable instructions):
     0x0839 [0x1C] WAIT(90* ticks)
     0x083C [0x23] WAIT_FOR_DIALOG_INTERACTION
     0x083D [0x2B] Valdemar (ID: 17739787/0x010EB00B) [7463*]:
    → "Here. Open the "Map" from the main menu on the right if you want to check it again."
     0x0844 [0x23] WAIT_FOR_DIALOG_INTERACTION
     0x0845 [0x4E] SET_ENTITY_HIDE_FLAG: Show Reet (ID: 17739836/0x010EB03C)
     0x084B [0x8A] CLOSE_MAP()
     0x084C [0x1C] WAIT(60* ticks)
     0x084F [0x80] LOAD_WAIT(entity=Reet (ID: 17739836/0x010EB03C))
     0x0854 [0x45] LOAD_SCHEDULED_TASK: Load scheduler "s028" with entities [LocalPlayer, LocalPlayer], work=[135*, 0*]
     0x0865 [0x2B] Valdemar (ID: 17739787/0x010EB00B) [7107*]:
    → "You should be able to find out where Reet is by checking your markers. Open "Map" from the main menu, select "Markers," press the right arrow key, and all should be well."
     0x086C [0x23] WAIT_FOR_DIALOG_INTERACTION
     0x086D [0x52] END_LOAD_SCHEDULER: End scheduler "s028" with entities [LocalPlayer, LocalPlayer], work=135*
     0x087C [0x45] LOAD_SCHEDULED_TASK: Load scheduler "s008" with entities [LocalPlayer, LocalPlayer], work=[135*, 0*]
     0x088D [0x2B] Valdemar (ID: 17739787/0x010EB00B) [7464*]:
    → "Use "Trade" from the main menu to give items to people. Reet will tell you more about that."
     0x0894 [0x23] WAIT_FOR_DIALOG_INTERACTION
     0x0895 [0x66] LOAD_EXT_SCHEDULER_MAIN: Load scheduler "tlk1" with entities [Valdemar (ID: 17739787/0x010EB00B), Valdemar (ID: 17739787/0x010EB00B)], work=0*
     0x08A4 [0x2B] Valdemar (ID: 17739787/0x010EB00B) [7465*]:
    → "Well, we really should be going. Good luck on your travels, adventurer."
     0x08AB [0x23] WAIT_FOR_DIALOG_INTERACTION
     0x08AC [0x66] LOAD_EXT_SCHEDULER_MAIN: Load scheduler "ten1" with entities [Valdemar (ID: 17739787/0x010EB00B), Valdemar (ID: 17739787/0x010EB00B)], work=0*
     0x08BB [0x1C] WAIT(20* ticks)
     0x08BE [0x27] REQ_SET(priority=0x0A, entity_id=Valdemar (ID: 17739787/0x010EB00B), tag_num=0x05)
     0x08C5 [0x27] REQ_SET(priority=0x0A, entity_id=Dalzakk (ID: 17739786/0x010EB00A), tag_num=0x06)
     0x08CC [0x1C] WAIT(30* ticks)
     0x08CF [0x45] LOAD_SCHEDULED_TASK: Load scheduler "fdo2" with entities [LocalPlayer, LocalPlayer], work=[200*, 0*]
     0x08E0 [0x1C] WAIT(30* ticks)
     0x08E3 [0x4A] LocalPlayer looks at Valdemar (ID: 17739787/0x010EB00B)
     0x08EC [0x1C] WAIT(90* ticks)
     0x08EF [0x78] ENABLE_GAME_TIMER_RESET_WEATHER()
     0x08F0 [0x46] CAMERA_CONTROL: Restore default settings
     0x08F2 [0x1C] WAIT(120* ticks)
     0x08F5 [0x45] LOAD_SCHEDULED_TASK: Load scheduler "fdi2" with entities [LocalPlayer, LocalPlayer], work=[200*, 0*]
     0x0906 [0x21] END_EVENT
     0x0907 [0x00] END_REQSTACK()
```

### Event 22

#### Metadata

| Field        | Value      |
|--------------|------------|
| Entrypoint   | 0x0908     |
| Data Size    | 1098 bytes |
| Instructions | 131        |

```
      00 01 02 03 04 05 06 07  08 09 0A 0B 0C 0D 0E 0F
      -- -- -- -- -- -- -- --  -- -- -- -- -- -- -- --
0900:                          42 45 03 80 F8 FF FF 7F          BE......
0910: F8 FF FF 7F 66 64 6F 31  04 80 55 03 80 F8 FF FF  ....fdo1..U.....
0920: 7F F8 FF FF 7F 66 64 6F  31 46 01 38 53 80 4E 00  .....fdo1F.8S.N.
0930: F0 FF FF 7F 03 01 10 04  80 43 00 43 01 03 00 00  .........C.C....
0940: 04 10 02 05 10 04 80 00  B9 09 48 54 80 24 55 80  ..........HT.$U.
0950: 08 80 04 80 25 02 00 10  04 80 00 65 09 03 01 10  ....%......e....
0960: 08 80 01 B9 09 02 00 10  08 80 00 B9 09 03 01 10  ................
0970: 04 80 02 00 00 08 80 00  9D 09 8D 4C 80 08 80 1C  ...........L....
0980: 0C 80 B8 4C 80 04 80 56  80 57 80 58 80 54 61 6C  ...L...V.W.X.Tal
0990: 65 73 27 42 65 67 69 6E  6E 69 6E 67 00 48 59 80  es'Beginning.HY.
09A0: 23 1C 5A 80 02 00 00 08  80 00 AD 09 8A 1C 0C 80  #.Z.............
09B0: 48 5B 80 01 3D 0D 01 B9  09 92 01 43 B0 0E 01 BA  H[..=......C....
09C0: F0 FF FF 7F 5C 80 5D 80  17 80 5E 80 80 43 B0 0E  ....\.]...^..C..
09D0: 01 80 F0 FF FF 7F 45 5F  80 F8 FF FF 7F F8 FF FF  ......E_........
09E0: 7F 73 31 33 30 04 80 1C  26 80 45 03 80 F8 FF FF  .s130...&.E.....
09F0: 7F F8 FF FF 7F 66 64 69  31 04 80 1C 60 80 27 05  .....fdi1...`.'.
0A00: F0 FF FF 7F 34 1C 19 80  52 5F 80 F8 FF FF 7F F8  ....4...R_......
0A10: FF FF 7F 73 31 33 30 45  5F 80 F8 FF FF 7F F8 FF  ...s130E_.......
0A20: FF 7F 73 31 33 31 04 80  66 04 80 43 B0 0E 01 43  ..s131..f..C...C
0A30: B0 0E 01 74 68 6B 31 1C  61 80 52 5F 80 F8 FF FF  ...thk1.a.R_....
0A40: 7F F8 FF FF 7F 73 31 33  31 45 5F 80 F8 FF FF 7F  .....s131E_.....
0A50: F8 FF FF 7F 73 31 33 32  04 80 1C 26 80 7A 00 F0  ....s132...&.z..
0A60: FF FF 7F BA F0 FF FF 7F  62 80 63 80 64 80 65 80  ........b.c.d.e.
0A70: 80 F0 FF FF 7F 4A F0 FF  FF 7F 43 B0 0E 01 2B 43  .....J....C...+C
0A80: B0 0E 01 66 80 23 1C 0C  80 52 5F 80 F8 FF FF 7F  ...f.#...R_.....
0A90: F8 FF FF 7F 73 31 33 32  45 5F 80 F8 FF FF 7F F8  ....s132E_......
0AA0: FF FF 7F 73 31 33 33 04  80 66 04 80 43 B0 0E 01  ...s133..f..C...
0AB0: 43 B0 0E 01 74 68 6B 32  1C 0D 80 4A 43 B0 0E 01  C...thk2...JC...
0AC0: F0 FF FF 7F 1C 0C 80 66  04 80 43 B0 0E 01 43 B0  .......f..C...C.
0AD0: 0E 01 74 6C 6B 30 2B 43  B0 0E 01 67 80 23 66 04  ..tlk0+C...g.#f.
0AE0: 80 43 B0 0E 01 43 B0 0E  01 74 65 6E 30 27 05 F0  .C...C...ten0'..
0AF0: FF FF 7F 32 1C 00 80 27  05 F0 FF FF 7F 33 1C 68  ...2...'.....3.h
0B00: 80 52 5F 80 F8 FF FF 7F  F8 FF FF 7F 73 31 33 33  .R_.........s133
0B10: 45 5F 80 F8 FF FF 7F F8  FF FF 7F 73 31 33 34 04  E_.........s134.
0B20: 80 2B 43 B0 0E 01 69 80  23 66 04 80 43 B0 0E 01  .+C...i.#f..C...
0B30: 43 B0 0E 01 64 69 73 30  2B 43 B0 0E 01 6A 80 23  C...dis0+C...j.#
0B40: 52 5F 80 F8 FF FF 7F F8  FF FF 7F 73 31 33 34 45  R_.........s134E
0B50: 5F 80 F8 FF FF 7F F8 FF  FF 7F 73 31 33 35 04 80  _.........s135..
0B60: 66 6B 80 43 B0 0E 01 43  B0 0E 01 74 6C 62 30 2B  fk.C...C...tlb0+
0B70: 43 B0 0E 01 6C 80 23 2B  43 B0 0E 01 6D 80 23 52  C...l.#+C...m.#R
0B80: 5F 80 F8 FF FF 7F F8 FF  FF 7F 73 31 33 35 45 5F  _.........s135E_
0B90: 80 F8 FF FF 7F F8 FF FF  7F 73 31 33 36 04 80 66  .........s136..f
0BA0: 6B 80 43 B0 0E 01 43 B0  0E 01 74 6C 62 31 2B 43  k.C...C...tlb1+C
0BB0: B0 0E 01 6E 80 23 66 04  80 43 B0 0E 01 43 B0 0E  ...n.#f..C...C..
0BC0: 01 64 69 73 30 2B 43 B0  0E 01 6F 80 23 52 5F 80  .dis0+C...o.#R_.
0BD0: F8 FF FF 7F F8 FF FF 7F  73 31 33 36 45 5F 80 F8  ........s136E_..
0BE0: FF FF 7F F8 FF FF 7F 73  31 33 37 04 80 66 6B 80  .......s137..fk.
0BF0: 43 B0 0E 01 43 B0 0E 01  74 6C 62 30 2B 43 B0 0E  C...C...tlb0+C..
0C00: 01 70 80 23 66 6B 80 43  B0 0E 01 43 B0 0E 01 74  .p.#fk.C...C...t
0C10: 6C 62 31 2B 43 B0 0E 01  71 80 23 52 5F 80 F8 FF  lb1+C...q.#R_...
0C20: FF 7F F8 FF FF 7F 73 31  33 37 45 5F 80 F8 FF FF  ......s137E_....
0C30: 7F F8 FF FF 7F 73 31 33  38 04 80 27 05 F0 FF FF  .....s138..'....
0C40: 7F 35 7B F0 FF FF 7F 1C  0C 80 66 04 80 43 B0 0E  .5{.......f..C..
0C50: 01 43 B0 0E 01 74 6C 6B  30 2B 43 B0 0E 01 72 80  .C...tlk0+C...r.
0C60: 23 52 5F 80 F8 FF FF 7F  F8 FF FF 7F 73 31 33 38  #R_.........s138
0C70: 45 5F 80 F8 FF FF 7F F8  FF FF 7F 73 31 33 39 04  E_.........s139.
0C80: 80 2B 43 B0 0E 01 73 80  23 52 5F 80 F8 FF FF 7F  .+C...s.#R_.....
0C90: F8 FF FF 7F 73 31 33 39  45 5F 80 F8 FF FF 7F F8  ....s139E_......
0CA0: FF FF 7F 73 31 34 30 04  80 66 04 80 43 B0 0E 01  ...s140..f..C...
0CB0: 43 B0 0E 01 74 65 6E 30  2B 43 B0 0E 01 74 80 23  C...ten0+C...t.#
0CC0: 66 04 80 43 B0 0E 01 43  B0 0E 01 64 69 73 30 2B  f..C...C...dis0+
0CD0: 43 B0 0E 01 75 80 23 52  5F 80 F8 FF FF 7F F8 FF  C...u.#R_.......
0CE0: FF 7F 73 31 34 30 45 5F  80 F8 FF FF 7F F8 FF FF  ..s140E_........
0CF0: 7F 73 31 34 31 04 80 66  6B 80 43 B0 0E 01 43 B0  .s141..fk.C...C.
0D00: 0E 01 74 6C 62 30 2B 43  B0 0E 01 76 80 23 45 03  ..tlb0+C...v.#E.
0D10: 80 F8 FF FF 7F F8 FF FF  7F 66 64 6F 31 04 80 55  .........fdo1..U
0D20: 03 80 F8 FF FF 7F F8 FF  FF 7F 66 64 6F 31 52 5F  ..........fdo1R_
0D30: 80 F8 FF FF 7F F8 FF FF  7F 73 31 34 31 46 00 45  .........s141F.E
0D40: 03 80 F8 FF FF 7F F8 FF  FF 7F 66 64 69 32 04 80  ..........fdi2..
0D50: 21 00                                             !.              
```

#### Opcodes

```
  0: 0x0908 [0x42] SET_CLI_EVENT_CANCEL_DATA()
  1: 0x0909 [0x45] LOAD_SCHEDULED_TASK: Load scheduler "fdo1" with entities [EventEntity, EventEntity], work=[200*, 0*]
  2: 0x091A [0x55] WAIT_LOAD_SCHEDULER: Wait for scheduler "fdo1" with entities [EventEntity, EventEntity], work=200*
  3: 0x0929 [0x46] CAMERA_CONTROL: Disable user control
  4: 0x092B [0x38] SET_CLIENT_EVENT_MODE(mode=27*)
  5: 0x092E [0x4E] SET_ENTITY_HIDE_FLAG: Show LocalPlayer
  6: 0x0934 [0x03] Work_Zone[1] = 0*
  7: 0x0939 [0x43] SEND_EVENT_UPDATE: Send pending tag to server (packet 0x005B)
  8: 0x093B [0x43] SEND_EVENT_UPDATE: Check pending flag (skip if not pending)
  9: 0x093D [0x03] ExtData[1]->WorkLocal[0] = Work_Zone[4]
 10: 0x0942 [0x02] IF !(Work_Zone[5] == 0*) GOTO 0x09B9
 11: 0x094A [0x48] [System] [15349*]:
    → "You are now able to enjoy a new storyline, Seekers of Adoulin."
 12: 0x094D [0x24] CREATE_DIALOG(message_id=15350*, default_option=1*, option_flags=0*)
    → "Start Seekers of Adoulin? [Yes (View cutscene)./Maybe later.]"
 13: 0x0954 [0x25] WAIT_DIALOG_SELECT()
 14: 0x0955 [0x02] IF !(Work_Zone[0] == 0*) GOTO 0x0965
 15: 0x095D [0x03] Work_Zone[1] = 1*
 16: 0x0962 [0x01] GOTO 0x09B9
 17: 0x0965 [0x02] IF !(Work_Zone[0] == 1*) GOTO 0x09B9
 18: 0x096D [0x03] Work_Zone[1] = 0*
 19: 0x0972 [0x02] IF !(ExtData[1]->WorkLocal[0] == 1*) GOTO 0x099D
 20: 0x097A [0x8D] OPEN_MAP_WITH_PROPERTIES(map_id=235*, properties=1*)
 21: 0x097F [0x1C] WAIT(30* ticks)
 22: 0x0982 [0xB8] MAP_ADD_MARKER_WITH_NAME(zone=235*, submap=0*, marker_id=9*, x_pos=-174.501*, y_pos=-69.746*, marker_name="Tales'Beginning")
 23: 0x099D [0x48] [System] [15351*]:
    → "Examine the Tales' Beginning in Northern San d'Oria, Bastok Markets, or Windurst Woods when you wish to start Seekers of Adoulin."
 24: 0x09A0 [0x23] WAIT_FOR_DIALOG_INTERACTION
 25: 0x09A1 [0x1C] WAIT(160* ticks)
 26: 0x09A4 [0x02] IF !(ExtData[1]->WorkLocal[0] == 1*) GOTO 0x09AD
 27: 0x09AC [0x8A] CLOSE_MAP()
 28: 0x09AD [0x1C] WAIT(30* ticks)
 29: 0x09B0 [0x48] [System] [14738*]:
    → "@@"
 30: 0x09B3 [0x01] GOTO 0x0D3D

SUBROUTINE_09B9:
 31: 0x09B9 [0x92] Foss (ID: 17739843/0x010EB043)->Render.Flags3 ^= 0x01
 32: 0x09BF [0xBA] SET_ENTITY_POSITION(entity_id=LocalPlayer, pos_x=-293.794*, pos_z=-47.947*, pos_y=-11.999*, direction=322.9°*)
 33: 0x09CC [0x80] LOAD_WAIT(entity=Foss (ID: 17739843/0x010EB043))
 34: 0x09D1 [0x80] LOAD_WAIT(entity=LocalPlayer)
 35: 0x09D6 [0x45] LOAD_SCHEDULED_TASK: Load scheduler "s130" with entities [EventEntity, EventEntity], work=[532*, 0*]
 36: 0x09E7 [0x1C] WAIT(15* ticks)
 37: 0x09EA [0x45] LOAD_SCHEDULED_TASK: Load scheduler "fdi1" with entities [EventEntity, EventEntity], work=[200*, 0*]
 38: 0x09FB [0x1C] WAIT(130* ticks)
 39: 0x09FE [0x27] REQ_SET(priority=0x05, entity_id=LocalPlayer, tag_num=0x34)
 40: 0x0A05 [0x1C] WAIT(20* ticks)
 41: 0x0A08 [0x52] END_LOAD_SCHEDULER: End scheduler "s130" with entities [EventEntity, EventEntity], work=532*
 42: 0x0A17 [0x45] LOAD_SCHEDULED_TASK: Load scheduler "s131" with entities [EventEntity, EventEntity], work=[532*, 0*]
 43: 0x0A28 [0x66] LOAD_EXT_SCHEDULER_MAIN: Load scheduler "thk1" with entities [Foss (ID: 17739843/0x010EB043), Foss (ID: 17739843/0x010EB043)], work=0*
 44: 0x0A37 [0x1C] WAIT(150* ticks)
 45: 0x0A3A [0x52] END_LOAD_SCHEDULER: End scheduler "s131" with entities [EventEntity, EventEntity], work=532*
 46: 0x0A49 [0x45] LOAD_SCHEDULED_TASK: Load scheduler "s132" with entities [EventEntity, EventEntity], work=[532*, 0*]
 47: 0x0A5A [0x1C] WAIT(15* ticks)
 48: 0x0A5D [0x7A] VM_CONTROL: Reset VM for LocalPlayer
 49: 0x0A63 [0xBA] SET_ENTITY_POSITION(entity_id=LocalPlayer, pos_x=-284.710*, pos_z=-40.256*, pos_y=-12.000*, direction=326.3°*)
 50: 0x0A70 [0x80] LOAD_WAIT(entity=LocalPlayer)
 51: 0x0A75 [0x4A] LocalPlayer looks at Foss (ID: 17739843/0x010EB043)
 52: 0x0A7E [0x2B] Foss (ID: 17739843/0x010EB043) [14070*]:
    → "Damn it all to hell! I know I'd be able to make a bucketload of gil if I could help pioneer Adoulin..."
 53: 0x0A85 [0x23] WAIT_FOR_DIALOG_INTERACTION
 54: 0x0A86 [0x1C] WAIT(30* ticks)
 55: 0x0A89 [0x52] END_LOAD_SCHEDULER: End scheduler "s132" with entities [EventEntity, EventEntity], work=532*
 56: 0x0A98 [0x45] LOAD_SCHEDULED_TASK: Load scheduler "s133" with entities [EventEntity, EventEntity], work=[532*, 0*]
 57: 0x0AA9 [0x66] LOAD_EXT_SCHEDULER_MAIN: Load scheduler "thk2" with entities [Foss (ID: 17739843/0x010EB043), Foss (ID: 17739843/0x010EB043)], work=0*
 58: 0x0AB8 [0x1C] WAIT(60* ticks)
 59: 0x0ABB [0x4A] Foss (ID: 17739843/0x010EB043) looks at LocalPlayer
 60: 0x0AC4 [0x1C] WAIT(30* ticks)
 61: 0x0AC7 [0x66] LOAD_EXT_SCHEDULER_MAIN: Load scheduler "tlk0" with entities [Foss (ID: 17739843/0x010EB043), Foss (ID: 17739843/0x010EB043)], work=0*
 62: 0x0AD6 [0x2B] Foss (ID: 17739843/0x010EB043) [14071*]:
    → "Wait...who are ya? Whaddya doin' botherin' me?"
 63: 0x0ADD [0x23] WAIT_FOR_DIALOG_INTERACTION
 64: 0x0ADE [0x66] LOAD_EXT_SCHEDULER_MAIN: Load scheduler "ten0" with entities [Foss (ID: 17739843/0x010EB043), Foss (ID: 17739843/0x010EB043)], work=0*
 65: 0x0AED [0x27] REQ_SET(priority=0x05, entity_id=LocalPlayer, tag_num=0x32)
 66: 0x0AF4 [0x1C] WAIT(80* ticks)
 67: 0x0AF7 [0x27] REQ_SET(priority=0x05, entity_id=LocalPlayer, tag_num=0x33)
 68: 0x0AFE [0x1C] WAIT(40* ticks)
 69: 0x0B01 [0x52] END_LOAD_SCHEDULER: End scheduler "s133" with entities [EventEntity, EventEntity], work=532*
 70: 0x0B10 [0x45] LOAD_SCHEDULED_TASK: Load scheduler "s134" with entities [EventEntity, EventEntity], work=[532*, 0*]
 71: 0x0B21 [0x2B] Foss (ID: 17739843/0x010EB043) [14072*]:
    → "Ya don't even know what pioneerin' is?"
 72: 0x0B28 [0x23] WAIT_FOR_DIALOG_INTERACTION
 73: 0x0B29 [0x66] LOAD_EXT_SCHEDULER_MAIN: Load scheduler "dis0" with entities [Foss (ID: 17739843/0x010EB043), Foss (ID: 17739843/0x010EB043)], work=0*
 74: 0x0B38 [0x2B] Foss (ID: 17739843/0x010EB043) [14073*]:
    → "Hmph. Some adventurer you are! Even my grandma keeps up with the times better'n that!"
 75: 0x0B3F [0x23] WAIT_FOR_DIALOG_INTERACTION
 76: 0x0B40 [0x52] END_LOAD_SCHEDULER: End scheduler "s134" with entities [EventEntity, EventEntity], work=532*
 77: 0x0B4F [0x45] LOAD_SCHEDULED_TASK: Load scheduler "s135" with entities [EventEntity, EventEntity], work=[532*, 0*]
 78: 0x0B60 [0x66] LOAD_EXT_SCHEDULER_MAIN: Load scheduler "tlb0" with entities [Foss (ID: 17739843/0x010EB043), Foss (ID: 17739843/0x010EB043)], work=5*
 79: 0x0B6F [0x2B] Foss (ID: 17739843/0x010EB043) [14074*]:
    → "...Sorry. That was a bit harsh of me. Let me explain it to ya."
 80: 0x0B76 [0x23] WAIT_FOR_DIALOG_INTERACTION
 81: 0x0B77 [0x2B] Foss (ID: 17739843/0x010EB043) [14075*]:
    → "You've heard of Adoulin, right? Th' marine trading city located way to th' west, across the Sea of Zafmlug?"
 82: 0x0B7E [0x23] WAIT_FOR_DIALOG_INTERACTION
 83: 0x0B7F [0x52] END_LOAD_SCHEDULER: End scheduler "s135" with entities [EventEntity, EventEntity], work=532*
 84: 0x0B8E [0x45] LOAD_SCHEDULED_TASK: Load scheduler "s136" with entities [EventEntity, EventEntity], work=[532*, 0*]
 85: 0x0B9F [0x66] LOAD_EXT_SCHEDULER_MAIN: Load scheduler "tlb1" with entities [Foss (ID: 17739843/0x010EB043), Foss (ID: 17739843/0x010EB043)], work=5*
 86: 0x0BAE [0x2B] Foss (ID: 17739843/0x010EB043) [14076*]:
    → "Well, it turns out there's undeveloped land all around there. We're talking malms and malms of jungle. Lately there's been a huge push to reclaim that land and make it worth livin' on."
 87: 0x0BB5 [0x23] WAIT_FOR_DIALOG_INTERACTION
 88: 0x0BB6 [0x66] LOAD_EXT_SCHEDULER_MAIN: Load scheduler "dis0" with entities [Foss (ID: 17739843/0x010EB043), Foss (ID: 17739843/0x010EB043)], work=0*
 89: 0x0BC5 [0x2B] Foss (ID: 17739843/0x010EB043) [14077*]:
    → "Doesn't that jus' beat all? Pristine land still exists, despite all th' progress we've made. Whaddaya think it's like out there?"
 90: 0x0BCC [0x23] WAIT_FOR_DIALOG_INTERACTION
 91: 0x0BCD [0x52] END_LOAD_SCHEDULER: End scheduler "s136" with entities [EventEntity, EventEntity], work=532*
 92: 0x0BDC [0x45] LOAD_SCHEDULED_TASK: Load scheduler "s137" with entities [EventEntity, EventEntity], work=[532*, 0*]
 93: 0x0BED [0x66] LOAD_EXT_SCHEDULER_MAIN: Load scheduler "tlb0" with entities [Foss (ID: 17739843/0x010EB043), Foss (ID: 17739843/0x010EB043)], work=5*
 94: 0x0BFC [0x2B] Foss (ID: 17739843/0x010EB043) [14078*]:
    → "'Course, not e'ryone is fit ta make headway inta th' deep unknown, so they're lookin' for the meanest and leanest adventurers ta open up the land--and fast."
 95: 0x0C03 [0x23] WAIT_FOR_DIALOG_INTERACTION
 96: 0x0C04 [0x66] LOAD_EXT_SCHEDULER_MAIN: Load scheduler "tlb1" with entities [Foss (ID: 17739843/0x010EB043), Foss (ID: 17739843/0x010EB043)], work=5*
 97: 0x0C13 [0x2B] Foss (ID: 17739843/0x010EB043) [14079*]:
    → ""Who's 'they'?" Who else? The Jeuno Chamber of Commerce and Industry. C'mon, how can ya expect to become a pioneer if ya can't figure this out for yourself!?"
 98: 0x0C1A [0x23] WAIT_FOR_DIALOG_INTERACTION
 99: 0x0C1B [0x52] END_LOAD_SCHEDULER: End scheduler "s137" with entities [EventEntity, EventEntity], work=532*
100: 0x0C2A [0x45] LOAD_SCHEDULED_TASK: Load scheduler "s138" with entities [EventEntity, EventEntity], work=[532*, 0*]
101: 0x0C3B [0x27] REQ_SET(priority=0x05, entity_id=LocalPlayer, tag_num=0x35)
102: 0x0C42 [0x7B] LocalPlayer stops talking
103: 0x0C47 [0x1C] WAIT(30* ticks)
104: 0x0C4A [0x66] LOAD_EXT_SCHEDULER_MAIN: Load scheduler "tlk0" with entities [Foss (ID: 17739843/0x010EB043), Foss (ID: 17739843/0x010EB043)], work=0*
105: 0x0C59 [0x2B] Foss (ID: 17739843/0x010EB043) [14080*]:
    → "But don' go rushin' off yet--they don' accept just anyone who can walk through th' front door and say hello. There's some kinda test ya gotta pass."
106: 0x0C60 [0x23] WAIT_FOR_DIALOG_INTERACTION
107: 0x0C61 [0x52] END_LOAD_SCHEDULER: End scheduler "s138" with entities [EventEntity, EventEntity], work=532*
108: 0x0C70 [0x45] LOAD_SCHEDULED_TASK: Load scheduler "s139" with entities [EventEntity, EventEntity], work=[532*, 0*]
109: 0x0C81 [0x2B] Foss (ID: 17739843/0x010EB043) [14081*]:
    → "But ya got that aura of confidence about ya. Maybe yer just what they're lookin' for."
110: 0x0C88 [0x23] WAIT_FOR_DIALOG_INTERACTION
111: 0x0C89 [0x52] END_LOAD_SCHEDULER: End scheduler "s139" with entities [EventEntity, EventEntity], work=532*
112: 0x0C98 [0x45] LOAD_SCHEDULED_TASK: Load scheduler "s140" with entities [EventEntity, EventEntity], work=[532*, 0*]
113: 0x0CA9 [0x66] LOAD_EXT_SCHEDULER_MAIN: Load scheduler "ten0" with entities [Foss (ID: 17739843/0x010EB043), Foss (ID: 17739843/0x010EB043)], work=0*
114: 0x0CB8 [0x2B] Foss (ID: 17739843/0x010EB043) [14082*]:
    → "I'll be straight wit' ya. The "test" ain't no sit-down thing with pen and parchment. It's a bit more...hands-on."
115: 0x0CBF [0x23] WAIT_FOR_DIALOG_INTERACTION
116: 0x0CC0 [0x66] LOAD_EXT_SCHEDULER_MAIN: Load scheduler "dis0" with entities [Foss (ID: 17739843/0x010EB043), Foss (ID: 17739843/0x010EB043)], work=0*
117: 0x0CCF [0x2B] Foss (ID: 17739843/0x010EB043) [14083*]:
    → "'Course, if it was I mighta done better. Gwahaha! Certainly not as easy as sellin' knick-knacks to higher-ups!"
118: 0x0CD6 [0x23] WAIT_FOR_DIALOG_INTERACTION
119: 0x0CD7 [0x52] END_LOAD_SCHEDULER: End scheduler "s140" with entities [EventEntity, EventEntity], work=532*
120: 0x0CE6 [0x45] LOAD_SCHEDULED_TASK: Load scheduler "s141" with entities [EventEntity, EventEntity], work=[532*, 0*]
121: 0x0CF7 [0x66] LOAD_EXT_SCHEDULER_MAIN: Load scheduler "tlb0" with entities [Foss (ID: 17739843/0x010EB043), Foss (ID: 17739843/0x010EB043)], work=5*
122: 0x0D06 [0x2B] Foss (ID: 17739843/0x010EB043) [14084*]:
    → "If ya decide to try your hand, I wish ya the best of luck!"
123: 0x0D0D [0x23] WAIT_FOR_DIALOG_INTERACTION
124: 0x0D0E [0x45] LOAD_SCHEDULED_TASK: Load scheduler "fdo1" with entities [EventEntity, EventEntity], work=[200*, 0*]
125: 0x0D1F [0x55] WAIT_LOAD_SCHEDULER: Wait for scheduler "fdo1" with entities [EventEntity, EventEntity], work=200*
126: 0x0D2E [0x52] END_LOAD_SCHEDULER: End scheduler "s141" with entities [EventEntity, EventEntity], work=532*

SUBROUTINE_0D3D:
127: 0x0D3D [0x46] CAMERA_CONTROL: Restore default settings
128: 0x0D3F [0x45] LOAD_SCHEDULED_TASK: Load scheduler "fdi2" with entities [EventEntity, EventEntity], work=[200*, 0*]
129: 0x0D50 [0x21] END_EVENT
130: 0x0D51 [0x00] END_REQSTACK()
```

#### Data or dead code:

```
# Dead code (unreachable instructions):
     0x09B6 [0x01] GOTO 0x09B9
```
