# 17739874

## Common Data

| Field            | Value                    |
|------------------|--------------------------|
| Zone             | Bastok Markets (ID: 235) |
| Block Size       | 4336 bytes               |
| Total Events     | 5                        |
| References Count | 59                       |

## List of Events

| Event ID              | Entrypoint   |   Size |   Instructions |
|-----------------------|--------------|--------|----------------|
| [65535](#event-65535) | 0x0000       |      1 |              1 |
| [30023](#event-30023) | 0x0001       |    830 |            122 |
| [30024](#event-30024) | 0x033F       |    953 |            138 |
| [30025](#event-30025) | 0x06F8       |    941 |            150 |
| [30026](#event-30026) | 0x0AA5       |   1336 |            188 |

## DAT References (imed_data)

|   Index | Hex Value   |   Dec Value |
|---------|-------------|-------------|
|       0 | 0x0013      |          19 |
|       1 | 0x0000      |           0 |
|       2 | 0xFFFFFC18  |  4294966296 |
|       3 | 0x05DC      |        1500 |
|       4 | 0x2710      |       10000 |
|       5 | 0x0417      |        1047 |
|       6 | 0x000F      |          15 |
|       7 | 0x001E      |          30 |
|       8 | 0x007E      |         126 |
|       9 | 0x01D5      |         469 |
|      10 | 0x014A      |         330 |
|      11 | 0x1B02      |        6914 |
|      12 | 0x002D      |          45 |
|      13 | 0x001C      |          28 |
|      14 | 0x0078      |         120 |
|      15 | 0x1B03      |        6915 |
|      16 | 0x1B04      |        6916 |
|      17 | 0x005A      |          90 |
|      18 | 0x003C      |          60 |
|      19 | 0x1B05      |        6917 |
|      20 | 0x1B06      |        6918 |
|      21 | 0x1B07      |        6919 |
|      22 | 0x0028      |          40 |
|      23 | 0x0014      |          20 |
|      24 | 0x0AC5      |        2757 |
|      25 | 0x0AC6      |        2758 |
|      26 | 0x0AC7      |        2759 |
|      27 | 0x1B08      |        6920 |
|      28 | 0x1B09      |        6921 |
|      29 | 0x1B0A      |        6922 |
|      30 | 0x00C8      |         200 |
|      31 | 0x0708      |        1800 |
|      32 | 0x1B0C      |        6924 |
|      33 | 0x0064      |         100 |
|      34 | 0x1B0D      |        6925 |
|      35 | 0x1B0E      |        6926 |
|      36 | 0x1B0F      |        6927 |
|      37 | 0x1B10      |        6928 |
|      38 | 0x1B11      |        6929 |
|      39 | 0x1B12      |        6930 |
|      40 | 0x0079      |         121 |
|      41 | 0x00FF      |         255 |
|      42 | 0x0001      |           1 |
|      43 | 0x007D      |         125 |
|      44 | 0x0002      |           2 |
|      45 | 0x0003      |           3 |
|      46 | 0x0080      |         128 |
|      47 | 0x0004      |           4 |
|      48 | 0x007F      |         127 |
|      49 | 0x0320      |         800 |
|      50 | 0x0121      |         289 |
|      51 | 0x0122      |         290 |
|      52 | 0x0123      |         291 |
|      53 | 0x000C      |          12 |
|      54 | 0x006B      |         107 |
|      55 | 0x0098      |         152 |
|      56 | 0x0097      |         151 |
|      57 | 0x00C9      |         201 |
|      58 | 0x00D7      |         215 |

## String References

- **6914**: It all began with a raindrop, or so the legend says...
- **6930**: Little did anyone suspect that this would prove to be only the beginning of a harrowing nightmare unheard of in the annals of mooglekind...

## Events

### Event 65535

#### Metadata

| Field        | Value   |
|--------------|---------|
| Entrypoint   | 0x0000  |
| Data Size    | 1 bytes |
| Instructions | 1       |

```
      00 01 02 03 04 05 06 07  08 09 0A 0B 0C 0D 0E 0F
      -- -- -- -- -- -- -- --  -- -- -- -- -- -- -- --
0000: 00                                                .               
```

#### Opcodes

```
  0: 0x0000 [0x00] END_REQSTACK()
```

### Event 30023

#### Metadata

| Field        | Value     |
|--------------|-----------|
| Entrypoint   | 0x0001    |
| Data Size    | 830 bytes |
| Instructions | 122       |

```
      00 01 02 03 04 05 06 07  08 09 0A 0B 0C 0D 0E 0F
      -- -- -- -- -- -- -- --  -- -- -- -- -- -- -- --
0000:    42 1A 17 0F 46 01 38  00 80 92 01 61 B0 0E 01   B...F.8....a...
0010: 4E 01 61 B0 0E 01 42 1A  17 0F 46 01 38 00 80 4E  N.a...B...F.8..N
0020: 00 F0 FF FF 7F 94 01 F0  FF FF 7F 27 10 65 B0 0E  ...........'.e..
0030: 01 01 59 05 63 B0 0E 01  01 59 05 65 B0 0E 01 01  ..Y.c....Y.e....
0040: BA F0 FF FF 7F 01 80 02  80 01 80 01 80 BA 65 B0  ..............e.
0050: 0E 01 01 80 03 80 04 80  05 80 80 F0 FF FF 7F 80  ................
0060: 65 B0 0E 01 6B 69 64 6C  30 65 B0 0E 01 1C 06 80  e...kidl0e......
0070: 4A F0 FF FF 7F 65 B0 0E  01 4A 65 B0 0E 01 F0 FF  J....e...Je.....
0080: FF 7F 6F 76 F0 FF FF 7F  6F 76 65 B0 0E 01 1C 06  ..ov....ove.....
0090: 80 7B 65 B0 0E 01 27 10  65 B0 0E 01 02 1C 07 80  .{e...'.e.......
00A0: 5C 00 08 80 5C 01 08 80  9A 45 09 80 F0 FF FF 7F  \...\....E......
00B0: F0 FF FF 7F 31 31 30 31  01 80 1A F6 0E 27 10 65  ....1101.....'.e
00C0: B0 0E 01 04 1C 0A 80 48  0B 80 23 1A 17 0F 52 09  .......H..#...R.
00D0: 80 F0 FF FF 7F F0 FF FF  7F 31 31 30 31 27 10 65  .........1101'.e
00E0: B0 0E 01 03 59 05 65 B0  0E 01 00 BA 65 B0 0E 01  ....Y.e.....e...
00F0: 01 80 03 80 01 80 05 80  80 65 B0 0E 01 1C 06 80  .........e......
0100: 4A 65 B0 0E 01 F0 FF FF  7F 6F 76 65 B0 0E 01 1C  Je.......ove....
0110: 0C 80 45 09 80 F0 FF FF  7F F0 FF FF 7F 31 30 30  ..E..........100
0120: 31 01 80 1A F6 0E 1C 0D  80 27 10 65 B0 0E 01 1E  1........'.e....
0130: 55 09 80 F0 FF FF 7F F0  FF FF 7F 31 30 30 31 45  U..........1001E
0140: 09 80 F0 FF FF 7F F0 FF  FF 7F 31 32 30 31 01 80  ..........1201..
0150: 1C 0E 80 2B 65 B0 0E 01  0F 80 23 55 09 80 F0 FF  ...+e.....#U....
0160: FF 7F F0 FF FF 7F 31 32  30 31 45 09 80 F0 FF FF  ......1201E.....
0170: 7F F0 FF FF 7F 31 30 30  32 01 80 27 10 65 B0 0E  .....1002..'.e..
0180: 01 0D 2B 65 B0 0E 01 10  80 23 29 10 65 B0 0E 01  ..+e.....#).e...
0190: 0E 52 09 80 F0 FF FF 7F  F0 FF FF 7F 31 30 30 32  .R..........1002
01A0: 45 09 80 F0 FF FF 7F F0  FF FF 7F 31 30 30 33 01  E..........1003.
01B0: 80 29 10 65 B0 0E 01 1F  1A 17 0F 52 09 80 F0 FF  .).e.......R....
01C0: FF 7F F0 FF FF 7F 31 30  30 33 4E 01 65 B0 0E 01  ......1003N.e...
01D0: 1C 11 80 45 09 80 F0 FF  FF 7F F0 FF FF 7F 31 30  ...E..........10
01E0: 30 35 01 80 1A F6 0E 1C  12 80 2B 65 B0 0E 01 13  05........+e....
01F0: 80 23 2B 65 B0 0E 01 14  80 23 52 09 80 F0 FF FF  .#+e.....#R.....
0200: 7F F0 FF FF 7F 31 30 30  35 45 09 80 F0 FF FF 7F  .....1005E......
0210: F0 FF FF 7F 31 30 30 34  01 80 2B 65 B0 0E 01 15  ....1004..+e....
0220: 80 23 1A 17 0F 52 09 80  F0 FF FF 7F F0 FF FF 7F  .#...R..........
0230: 31 30 30 34 4E 00 65 B0  0E 01 4E 00 F0 FF FF 7F  1004N.e...N.....
0240: 1C 16 80 27 10 65 B0 0E  01 20 1C 17 80 45 09 80  ...'.e... ...E..
0250: F0 FF FF 7F F0 FF FF 7F  31 30 30 36 01 80 1A F6  ........1006....
0260: 0E 2A 10 65 B0 0E 01 52  09 80 F0 FF FF 7F F0 FF  .*.e...R........
0270: FF 7F 31 30 30 36 45 09  80 F0 FF FF 7F F0 FF FF  ..1006E.........
0280: 7F 31 30 30 37 01 80 27  10 65 B0 0E 01 1C 03 02  .1007..'.e......
0290: 10 18 80 03 03 10 19 80  03 04 10 1A 80 2B 65 B0  .............+e.
02A0: 0E 01 1B 80 23 52 09 80  F0 FF FF 7F F0 FF FF 7F  ....#R..........
02B0: 31 30 30 37 45 09 80 F0  FF FF 7F F0 FF FF 7F 31  1007E..........1
02C0: 30 30 38 01 80 27 10 65  B0 0E 01 0D 2B 65 B0 0E  008..'.e....+e..
02D0: 01 1C 80 23 27 10 65 B0  0E 01 0E 52 09 80 F0 FF  ...#'.e....R....
02E0: FF 7F F0 FF FF 7F 31 30  30 38 45 09 80 F0 FF FF  ......1008E.....
02F0: 7F F0 FF FF 7F 31 30 30  39 01 80 7B 65 B0 0E 01  .....1009..{e...
0300: 27 10 65 B0 0E 01 11 2B  65 B0 0E 01 1D 80 23 52  '.e....+e.....#R
0310: 09 80 F0 FF FF 7F F0 FF  FF 7F 31 30 30 39 1A 17  ..........1009..
0320: 0F 1C 07 80 4E 00 61 B0  0E 01 46 00 45 1E 80 F0  ....N.a...F.E...
0330: FF FF 7F F0 FF FF 7F 66  64 69 32 01 80 21 00     .......fdi2..!. 
```

#### Opcodes

```
  0: 0x0001 [0x42] SET_CLI_EVENT_CANCEL_DATA()
  1: 0x0002 [0x1A] CALL_SUBROUTINE(address=0x0F17)
  2: 0x0005 [0x46] CAMERA_CONTROL: Disable user control
  3: 0x0007 [0x38] SET_CLIENT_EVENT_MODE(mode=19*)
  4: 0x000A [0x92] Moogle (ID: 17739873/0x010EB061)->Render.Flags3 ^= 0x01
  5: 0x0010 [0x4E] SET_ENTITY_HIDE_FLAG: Hide Moogle (ID: 17739873/0x010EB061)
  6: 0x0016 [0x42] SET_CLI_EVENT_CANCEL_DATA()
  7: 0x0017 [0x1A] CALL_SUBROUTINE(address=0x0F17)
  8: 0x001A [0x46] CAMERA_CONTROL: Disable user control
  9: 0x001C [0x38] SET_CLIENT_EVENT_MODE(mode=19*)
 10: 0x001F [0x4E] SET_ENTITY_HIDE_FLAG: Show LocalPlayer
 11: 0x0025 [0x94] LocalPlayer->Render.Flags3 ^= 0x01
 12: 0x002B [0x27] REQ_SET(priority=0x10, entity_id=Moogle (ID: 17739877/0x010EB065), tag_num=0x01)
 13: 0x0032 [0x59] UPDATE_ENTITY_DATA: ??? (ID: 17739875/0x010EB063)->Render.Flags0 |= 0x200000
 14: 0x0039 [0x59] UPDATE_ENTITY_DATA: Moogle (ID: 17739877/0x010EB065)->Render.Flags0 |= 0x200000
 15: 0x0040 [0xBA] SET_ENTITY_POSITION(entity_id=LocalPlayer, pos_x=0.000*, pos_z=-1.000*, pos_y=0.000*, direction=0.0°*)
 16: 0x004D [0xBA] SET_ENTITY_POSITION(entity_id=Moogle (ID: 17739877/0x010EB065), pos_x=0.000*, pos_z=1.500*, pos_y=10.000*, direction=92.0°*)
 17: 0x005A [0x80] LOAD_WAIT(entity=LocalPlayer)
 18: 0x005F [0x80] LOAD_WAIT(entity=Moogle (ID: 17739877/0x010EB065))
 19: 0x0064 [0x6B] STOP_AND_IDLE: Moogle (ID: 17739877/0x010EB065) stops current action and resets to idle (animation="idl0")
 20: 0x006D [0x1C] WAIT(15* ticks)
 21: 0x0070 [0x4A] LocalPlayer looks at Moogle (ID: 17739877/0x010EB065)
 22: 0x0079 [0x4A] Moogle (ID: 17739877/0x010EB065) looks at LocalPlayer
 23: 0x0082 [0x6F] WAIT_FRAME_DELAY: Yield until WaitTime reaches zero
 24: 0x0083 [0x76] CHECK_ENTITY_RENDER_FLAGS: Wait until LocalPlayer Render.Flags0 and Render.Flags3 conditions are met
 25: 0x0088 [0x6F] WAIT_FRAME_DELAY: Yield until WaitTime reaches zero
 26: 0x0089 [0x76] CHECK_ENTITY_RENDER_FLAGS: Wait until Moogle (ID: 17739877/0x010EB065) Render.Flags0 and Render.Flags3 conditions are met
 27: 0x008E [0x1C] WAIT(15* ticks)
 28: 0x0091 [0x7B] Moogle (ID: 17739877/0x010EB065) stops talking
 29: 0x0096 [0x27] REQ_SET(priority=0x10, entity_id=Moogle (ID: 17739877/0x010EB065), tag_num=0x02)
 30: 0x009D [0x1C] WAIT(30* ticks)
 31: 0x00A0 [0x5C] MUSIC_CONTROL: Set Idle (Day) music to song 126*
 32: 0x00A4 [0x5C] MUSIC_CONTROL: Set Idle (Night) music to song 126*
 33: 0x00A8 [0x9A] WAIT_MUSIC_SERVER()
 34: 0x00A9 [0x45] LOAD_SCHEDULED_TASK: Load scheduler "1101" with entities [LocalPlayer, LocalPlayer], work=[469*, 0*]
 35: 0x00BA [0x1A] CALL_SUBROUTINE(address=0x0EF6)
 36: 0x00BD [0x27] REQ_SET(priority=0x10, entity_id=Moogle (ID: 17739877/0x010EB065), tag_num=0x04)
 37: 0x00C4 [0x1C] WAIT(330* ticks)
 38: 0x00C7 [0x48] [System] [6914*]:
    → "It all began with a raindrop, or so the legend says..."
 39: 0x00CA [0x23] WAIT_FOR_DIALOG_INTERACTION
 40: 0x00CB [0x1A] CALL_SUBROUTINE(address=0x0F17)
 41: 0x00CE [0x52] END_LOAD_SCHEDULER: End scheduler "1101" with entities [LocalPlayer, LocalPlayer], work=469*
 42: 0x00DD [0x27] REQ_SET(priority=0x10, entity_id=Moogle (ID: 17739877/0x010EB065), tag_num=0x03)
 43: 0x00E4 [0x59] UPDATE_ENTITY_DATA: Moogle (ID: 17739877/0x010EB065)->Render.Flags0 &= ~0x200000
 44: 0x00EB [0xBA] SET_ENTITY_POSITION(entity_id=Moogle (ID: 17739877/0x010EB065), pos_x=0.000*, pos_z=1.500*, pos_y=0.000*, direction=92.0°*)
 45: 0x00F8 [0x80] LOAD_WAIT(entity=Moogle (ID: 17739877/0x010EB065))
 46: 0x00FD [0x1C] WAIT(15* ticks)
 47: 0x0100 [0x4A] Moogle (ID: 17739877/0x010EB065) looks at LocalPlayer
 48: 0x0109 [0x6F] WAIT_FRAME_DELAY: Yield until WaitTime reaches zero
 49: 0x010A [0x76] CHECK_ENTITY_RENDER_FLAGS: Wait until Moogle (ID: 17739877/0x010EB065) Render.Flags0 and Render.Flags3 conditions are met
 50: 0x010F [0x1C] WAIT(45* ticks)
 51: 0x0112 [0x45] LOAD_SCHEDULED_TASK: Load scheduler "1001" with entities [LocalPlayer, LocalPlayer], work=[469*, 0*]
 52: 0x0123 [0x1A] CALL_SUBROUTINE(address=0x0EF6)
 53: 0x0126 [0x1C] WAIT(28* ticks)
 54: 0x0129 [0x27] REQ_SET(priority=0x10, entity_id=Moogle (ID: 17739877/0x010EB065), tag_num=0x1E)
 55: 0x0130 [0x55] WAIT_LOAD_SCHEDULER: Wait for scheduler "1001" with entities [LocalPlayer, LocalPlayer], work=469*
 56: 0x013F [0x45] LOAD_SCHEDULED_TASK: Load scheduler "1201" with entities [LocalPlayer, LocalPlayer], work=[469*, 0*]
 57: 0x0150 [0x1C] WAIT(120* ticks)
 58: 0x0153 [0x2B] Moogle (ID: 17739877/0x010EB065) [6915*]:
    → "Master! Oh, master, look! We've sprung a leak, kupo! Just look at it drip, drip, dripping away!"
 59: 0x015A [0x23] WAIT_FOR_DIALOG_INTERACTION
 60: 0x015B [0x55] WAIT_LOAD_SCHEDULER: Wait for scheduler "1201" with entities [LocalPlayer, LocalPlayer], work=469*
 61: 0x016A [0x45] LOAD_SCHEDULED_TASK: Load scheduler "1002" with entities [LocalPlayer, LocalPlayer], work=[469*, 0*]
 62: 0x017B [0x27] REQ_SET(priority=0x10, entity_id=Moogle (ID: 17739877/0x010EB065), tag_num=0x0D)
 63: 0x0182 [0x2B] Moogle (ID: 17739877/0x010EB065) [6916*]:
    → "What a terribly troubling turn of events, kupo! But have no fear! Sit tight and you'll see why I'm the most renowned handymoogle in the three nations!"
 64: 0x0189 [0x23] WAIT_FOR_DIALOG_INTERACTION
 65: 0x018A [0x29] REQ_SET_WAIT(priority=0x10, entity_id=Moogle (ID: 17739877/0x010EB065), tag_num=0x0E)
 66: 0x0191 [0x52] END_LOAD_SCHEDULER: End scheduler "1002" with entities [LocalPlayer, LocalPlayer], work=469*
 67: 0x01A0 [0x45] LOAD_SCHEDULED_TASK: Load scheduler "1003" with entities [LocalPlayer, LocalPlayer], work=[469*, 0*]
 68: 0x01B1 [0x29] REQ_SET_WAIT(priority=0x10, entity_id=Moogle (ID: 17739877/0x010EB065), tag_num=0x1F)
 69: 0x01B8 [0x1A] CALL_SUBROUTINE(address=0x0F17)
 70: 0x01BB [0x52] END_LOAD_SCHEDULER: End scheduler "1003" with entities [LocalPlayer, LocalPlayer], work=469*
 71: 0x01CA [0x4E] SET_ENTITY_HIDE_FLAG: Hide Moogle (ID: 17739877/0x010EB065)
 72: 0x01D0 [0x1C] WAIT(90* ticks)
 73: 0x01D3 [0x45] LOAD_SCHEDULED_TASK: Load scheduler "1005" with entities [LocalPlayer, LocalPlayer], work=[469*, 0*]
 74: 0x01E4 [0x1A] CALL_SUBROUTINE(address=0x0EF6)
 75: 0x01E7 [0x1C] WAIT(60* ticks)
 76: 0x01EA [0x2B] Moogle (ID: 17739877/0x010EB065) [6917*]:
    → "Goddess have mercy on my moogle soul. Look at this mess! Rotting roof boards! Rusted nails, kupo!"
 77: 0x01F1 [0x23] WAIT_FOR_DIALOG_INTERACTION
 78: 0x01F2 [0x2B] Moogle (ID: 17739877/0x010EB065) [6918*]:
    → "Why, it's a miracle this tottering, tumble-down shanty--I mean, this beautiful abode of yours--is still standing, master!"
 79: 0x01F9 [0x23] WAIT_FOR_DIALOG_INTERACTION
 80: 0x01FA [0x52] END_LOAD_SCHEDULER: End scheduler "1005" with entities [LocalPlayer, LocalPlayer], work=469*
 81: 0x0209 [0x45] LOAD_SCHEDULED_TASK: Load scheduler "1004" with entities [LocalPlayer, LocalPlayer], work=[469*, 0*]
 82: 0x021A [0x2B] Moogle (ID: 17739877/0x010EB065) [6919*]:
    → "Anyhow, this simply won't do, kupo. We must make repairs before we have water up to my little wings!"
 83: 0x0221 [0x23] WAIT_FOR_DIALOG_INTERACTION
 84: 0x0222 [0x1A] CALL_SUBROUTINE(address=0x0F17)
 85: 0x0225 [0x52] END_LOAD_SCHEDULER: End scheduler "1004" with entities [LocalPlayer, LocalPlayer], work=469*
 86: 0x0234 [0x4E] SET_ENTITY_HIDE_FLAG: Show Moogle (ID: 17739877/0x010EB065)
 87: 0x023A [0x4E] SET_ENTITY_HIDE_FLAG: Show LocalPlayer
 88: 0x0240 [0x1C] WAIT(40* ticks)
 89: 0x0243 [0x27] REQ_SET(priority=0x10, entity_id=Moogle (ID: 17739877/0x010EB065), tag_num=0x20)
 90: 0x024A [0x1C] WAIT(20* ticks)
 91: 0x024D [0x45] LOAD_SCHEDULED_TASK: Load scheduler "1006" with entities [LocalPlayer, LocalPlayer], work=[469*, 0*]
 92: 0x025E [0x1A] CALL_SUBROUTINE(address=0x0EF6)
 93: 0x0261 [0x2A] GET_REQ_LEVEL(level=16, entity_id=Moogle (ID: 17739877/0x010EB065))
 94: 0x0267 [0x52] END_LOAD_SCHEDULER: End scheduler "1006" with entities [LocalPlayer, LocalPlayer], work=469*
 95: 0x0276 [0x45] LOAD_SCHEDULED_TASK: Load scheduler "1007" with entities [LocalPlayer, LocalPlayer], work=[469*, 0*]
 96: 0x0287 [0x27] REQ_SET(priority=0x10, entity_id=Moogle (ID: 17739877/0x010EB065), tag_num=0x1C)
 97: 0x028E [0x03] Work_Zone[2] = 2757*
 98: 0x0293 [0x03] Work_Zone[3] = 2758*
 99: 0x0298 [0x03] Work_Zone[4] = 2759*
100: 0x029D [0x2B] Moogle (ID: 17739877/0x010EB065) [6920*]:
    → "I figure all I'll need is a good $0, $1, and $2 to have this fixed up good as new, kupo!"
101: 0x02A4 [0x23] WAIT_FOR_DIALOG_INTERACTION
102: 0x02A5 [0x52] END_LOAD_SCHEDULER: End scheduler "1007" with entities [LocalPlayer, LocalPlayer], work=469*
103: 0x02B4 [0x45] LOAD_SCHEDULED_TASK: Load scheduler "1008" with entities [LocalPlayer, LocalPlayer], work=[469*, 0*]
104: 0x02C5 [0x27] REQ_SET(priority=0x10, entity_id=Moogle (ID: 17739877/0x010EB065), tag_num=0x0D)
105: 0x02CC [0x2B] Moogle (ID: 17739877/0x010EB065) [6921*]:
    → "Could I trouble you to track them down? While you're out, I'll patch up the other problem spots."
106: 0x02D3 [0x23] WAIT_FOR_DIALOG_INTERACTION
107: 0x02D4 [0x27] REQ_SET(priority=0x10, entity_id=Moogle (ID: 17739877/0x010EB065), tag_num=0x0E)
108: 0x02DB [0x52] END_LOAD_SCHEDULER: End scheduler "1008" with entities [LocalPlayer, LocalPlayer], work=469*
109: 0x02EA [0x45] LOAD_SCHEDULED_TASK: Load scheduler "1009" with entities [LocalPlayer, LocalPlayer], work=[469*, 0*]
110: 0x02FB [0x7B] Moogle (ID: 17739877/0x010EB065) stops talking
111: 0x0300 [0x27] REQ_SET(priority=0x10, entity_id=Moogle (ID: 17739877/0x010EB065), tag_num=0x11)
112: 0x0307 [0x2B] Moogle (ID: 17739877/0x010EB065) [6922*]:
    → "And do hurry, Master! Lest you return to find your poor moogle friend lying prostrate in a pernicious puddle of rainwater, kupo..."
113: 0x030E [0x23] WAIT_FOR_DIALOG_INTERACTION
114: 0x030F [0x52] END_LOAD_SCHEDULER: End scheduler "1009" with entities [LocalPlayer, LocalPlayer], work=469*
115: 0x031E [0x1A] CALL_SUBROUTINE(address=0x0F17)
116: 0x0321 [0x1C] WAIT(30* ticks)
117: 0x0324 [0x4E] SET_ENTITY_HIDE_FLAG: Show Moogle (ID: 17739873/0x010EB061)
118: 0x032A [0x46] CAMERA_CONTROL: Restore default settings
119: 0x032C [0x45] LOAD_SCHEDULED_TASK: Load scheduler "fdi2" with entities [LocalPlayer, LocalPlayer], work=[200*, 0*]
120: 0x033D [0x21] END_EVENT
121: 0x033E [0x00] END_REQSTACK()
```

### Event 30024

#### Metadata

| Field        | Value     |
|--------------|-----------|
| Entrypoint   | 0x033F    |
| Data Size    | 953 bytes |
| Instructions | 138       |

```
      00 01 02 03 04 05 06 07  08 09 0A 0B 0C 0D 0E 0F
      -- -- -- -- -- -- -- --  -- -- -- -- -- -- -- --
0330:                                               42                 B
0340: 1A 17 0F 46 01 38 00 80  92 01 61 B0 0E 01 4E 01  ...F.8....a...N.
0350: 61 B0 0E 01 42 1A 17 0F  46 01 38 00 80 29 0B F0  a...B...F.8..)..
0360: FF FF 7F 09 4E 00 F0 FF  FF 7F 94 01 F0 FF FF 7F  ....N...........
0370: 27 10 65 B0 0E 01 01 27  10 63 B0 0E 01 01 27 10  '.e....'.c....'.
0380: 64 B0 0E 01 01 BA F0 FF  FF 7F 01 80 02 80 01 80  d...............
0390: 01 80 BA 65 B0 0E 01 01  80 03 80 01 80 05 80 BA  ...e............
03A0: 63 B0 0E 01 01 80 03 80  01 80 01 80 BA 64 B0 0E  c............d..
03B0: 01 01 80 1F 80 01 80 01  80 80 F0 FF FF 7F 80 65  ...............e
03C0: B0 0E 01 80 63 B0 0E 01  80 64 B0 0E 01 1C 06 80  ....c....d......
03D0: 6B 69 64 6C 30 65 B0 0E  01 4A F0 FF FF 7F 65 B0  kidl0e...J....e.
03E0: 0E 01 4A 65 B0 0E 01 F0  FF FF 7F 6F 76 F0 FF FF  ..Je.......ov...
03F0: 7F 6F 76 65 B0 0E 01 1C  06 80 7B 65 B0 0E 01 1C  .ove......{e....
0400: 07 80 5C 00 08 80 5C 01  08 80 9A 45 09 80 F0 FF  ..\...\....E....
0410: FF 7F F0 FF FF 7F 33 30  30 31 01 80 1A F6 0E 45  ......3001.....E
0420: 09 80 65 B0 0E 01 65 B0  0E 01 6D 6F 6B 30 01 80  ..e...e...mok0..
0430: 27 10 65 B0 0E 01 0D 2B  65 B0 0E 01 20 80 23 27  '.e....+e... .#'
0440: 10 65 B0 0E 01 0E 52 09  80 F0 FF FF 7F F0 FF FF  .e....R.........
0450: 7F 33 30 30 31 45 09 80  F0 FF FF 7F F0 FF FF 7F  .3001E..........
0460: 33 30 30 32 01 80 29 10  65 B0 0E 01 1F 1A 17 0F  3002..).e.......
0470: 52 09 80 F0 FF FF 7F F0  FF FF 7F 33 30 30 32 4E  R..........3002N
0480: 01 65 B0 0E 01 1C 12 80  45 09 80 F0 FF FF 7F F0  .e......E.......
0490: FF FF 7F 33 30 30 33 01  80 1A F6 0E 1C 07 80 27  ...3003........'
04A0: 10 63 B0 0E 01 04 1C 21  80 27 10 64 B0 0E 01 04  .c.....!.'.d....
04B0: 29 10 63 B0 0E 01 05 27  10 63 B0 0E 01 04 29 10  ).c....'.c....).
04C0: 64 B0 0E 01 05 29 10 63  B0 0E 01 05 55 09 80 F0  d....).c....U...
04D0: FF FF 7F F0 FF FF 7F 33  30 30 33 45 09 80 F0 FF  .......3003E....
04E0: FF 7F F0 FF FF 7F 33 31  30 33 01 80 2B 65 B0 0E  ......3103..+e..
04F0: 01 22 80 23 1A 17 0F 52  09 80 F0 FF FF 7F F0 FF  .".#...R........
0500: FF 7F 33 31 30 33 4E 00  65 B0 0E 01 1C 12 80 45  ..3103N.e......E
0510: 09 80 F0 FF FF 7F F0 FF  FF 7F 33 30 30 34 01 80  ..........3004..
0520: 1A F6 0E 29 10 65 B0 0E  01 20 52 09 80 F0 FF FF  ...).e... R.....
0530: 7F F0 FF FF 7F 33 30 30  34 45 09 80 F0 FF FF 7F  .....3004E......
0540: F0 FF FF 7F 33 30 30 35  01 80 27 10 65 B0 0E 01  ....3005..'.e...
0550: 1C 2B 65 B0 0E 01 23 80  23 52 09 80 F0 FF FF 7F  .+e...#.#R......
0560: F0 FF FF 7F 33 30 30 35  45 09 80 F0 FF FF 7F F0  ....3005E.......
0570: FF FF 7F 33 30 30 37 01  80 79 00 65 B0 0E 01 F0  ...3007..y.e....
0580: FF FF 7F 27 10 65 B0 0E  01 11 2B 65 B0 0E 01 24  ...'.e....+e...$
0590: 80 23 27 10 65 B0 0E 01  12 27 10 65 B0 0E 01 0D  .#'.e....'.e....
05A0: 2B 65 B0 0E 01 25 80 23  27 10 65 B0 0E 01 0E 52  +e...%.#'.e....R
05B0: 09 80 F0 FF FF 7F F0 FF  FF 7F 33 30 30 37 45 09  ..........3007E.
05C0: 80 F0 FF FF 7F F0 FF FF  7F 33 30 30 38 01 80 7B  .........3008..{
05D0: 65 B0 0E 01 27 10 65 B0  0E 01 07 2B 65 B0 0E 01  e...'.e....+e...
05E0: 26 80 23 1A 17 0F 27 10  65 B0 0E 01 08 52 09 80  &.#...'.e....R..
05F0: F0 FF FF 7F F0 FF FF 7F  33 30 30 38 1C 12 80 45  ........3008...E
0600: 09 80 F0 FF FF 7F F0 FF  FF 7F 33 30 30 39 01 80  ..........3009..
0610: 1A F6 0E 1C 12 80 48 27  80 23 5C 80 28 80 29 80  ......H'.#\.(.).
0620: 5C 81 28 80 29 80 5C 82  28 80 29 80 5C 83 28 80  \.(.).\.(.).\.(.
0630: 29 80 9A 1C 07 80 9C 02  10 02 02 10 2A 80 80 55  )...........*..U
0640: 06 C5 2B 80 F8 FF FF 7F  F8 FF FF 7F 6D 61 69 6E  ..+.........main
0650: 01 80 01 A9 06 02 02 10  2C 80 80 71 06 C5 08 80  ........,..q....
0660: F8 FF FF 7F F8 FF FF 7F  6D 61 69 6E 01 80 01 A9  ........main....
0670: 06 02 02 10 2D 80 80 8D  06 C5 2E 80 F8 FF FF 7F  ....-...........
0680: F8 FF FF 7F 6D 61 69 6E  01 80 01 A9 06 02 02 10  ....main........
0690: 2F 80 80 A9 06 C5 30 80  F8 FF FF 7F F8 FF FF 7F  /.....0.........
06A0: 6D 61 69 6E 01 80 01 A9  06 1C 31 80 1C 07 80 1A  main......1.....
06B0: 17 0F 1C 12 80 52 09 80  F0 FF FF 7F F0 FF FF 7F  .....R..........
06C0: 33 30 30 39 4E 00 61 B0  0E 01 5C 80 08 80 29 80  3009N.a...\...).
06D0: 5C 81 08 80 29 80 5C 82  08 80 29 80 5C 83 08 80  \...).\...).\...
06E0: 29 80 9A 46 00 45 1E 80  F0 FF FF 7F F0 FF FF 7F  )..F.E..........
06F0: 66 64 69 32 01 80 21 00                           fdi2..!.        
```

#### Opcodes

```
  0: 0x033F [0x42] SET_CLI_EVENT_CANCEL_DATA()
  1: 0x0340 [0x1A] CALL_SUBROUTINE(address=0x0F17)
  2: 0x0343 [0x46] CAMERA_CONTROL: Disable user control
  3: 0x0345 [0x38] SET_CLIENT_EVENT_MODE(mode=19*)
  4: 0x0348 [0x92] Moogle (ID: 17739873/0x010EB061)->Render.Flags3 ^= 0x01
  5: 0x034E [0x4E] SET_ENTITY_HIDE_FLAG: Hide Moogle (ID: 17739873/0x010EB061)
  6: 0x0354 [0x42] SET_CLI_EVENT_CANCEL_DATA()
  7: 0x0355 [0x1A] CALL_SUBROUTINE(address=0x0F17)
  8: 0x0358 [0x46] CAMERA_CONTROL: Disable user control
  9: 0x035A [0x38] SET_CLIENT_EVENT_MODE(mode=19*)
 10: 0x035D [0x29] REQ_SET_WAIT(priority=0x0B, entity_id=LocalPlayer, tag_num=0x09)
 11: 0x0364 [0x4E] SET_ENTITY_HIDE_FLAG: Show LocalPlayer
 12: 0x036A [0x94] LocalPlayer->Render.Flags3 ^= 0x01
 13: 0x0370 [0x27] REQ_SET(priority=0x10, entity_id=Moogle (ID: 17739877/0x010EB065), tag_num=0x01)
 14: 0x0377 [0x27] REQ_SET(priority=0x10, entity_id=??? (ID: 17739875/0x010EB063), tag_num=0x01)
 15: 0x037E [0x27] REQ_SET(priority=0x10, entity_id=Unnamed NPC (ID: 17739876/0x010EB064), tag_num=0x01)
 16: 0x0385 [0xBA] SET_ENTITY_POSITION(entity_id=LocalPlayer, pos_x=0.000*, pos_z=-1.000*, pos_y=0.000*, direction=0.0°*)
 17: 0x0392 [0xBA] SET_ENTITY_POSITION(entity_id=Moogle (ID: 17739877/0x010EB065), pos_x=0.000*, pos_z=1.500*, pos_y=0.000*, direction=92.0°*)
 18: 0x039F [0xBA] SET_ENTITY_POSITION(entity_id=??? (ID: 17739875/0x010EB063), pos_x=0.000*, pos_z=1.500*, pos_y=0.000*, direction=0.0°*)
 19: 0x03AC [0xBA] SET_ENTITY_POSITION(entity_id=Unnamed NPC (ID: 17739876/0x010EB064), pos_x=0.000*, pos_z=1.800*, pos_y=0.000*, direction=0.0°*)
 20: 0x03B9 [0x80] LOAD_WAIT(entity=LocalPlayer)
 21: 0x03BE [0x80] LOAD_WAIT(entity=Moogle (ID: 17739877/0x010EB065))
 22: 0x03C3 [0x80] LOAD_WAIT(entity=??? (ID: 17739875/0x010EB063))
 23: 0x03C8 [0x80] LOAD_WAIT(entity=Unnamed NPC (ID: 17739876/0x010EB064))
 24: 0x03CD [0x1C] WAIT(15* ticks)
 25: 0x03D0 [0x6B] STOP_AND_IDLE: Moogle (ID: 17739877/0x010EB065) stops current action and resets to idle (animation="idl0")
 26: 0x03D9 [0x4A] LocalPlayer looks at Moogle (ID: 17739877/0x010EB065)
 27: 0x03E2 [0x4A] Moogle (ID: 17739877/0x010EB065) looks at LocalPlayer
 28: 0x03EB [0x6F] WAIT_FRAME_DELAY: Yield until WaitTime reaches zero
 29: 0x03EC [0x76] CHECK_ENTITY_RENDER_FLAGS: Wait until LocalPlayer Render.Flags0 and Render.Flags3 conditions are met
 30: 0x03F1 [0x6F] WAIT_FRAME_DELAY: Yield until WaitTime reaches zero
 31: 0x03F2 [0x76] CHECK_ENTITY_RENDER_FLAGS: Wait until Moogle (ID: 17739877/0x010EB065) Render.Flags0 and Render.Flags3 conditions are met
 32: 0x03F7 [0x1C] WAIT(15* ticks)
 33: 0x03FA [0x7B] Moogle (ID: 17739877/0x010EB065) stops talking
 34: 0x03FF [0x1C] WAIT(30* ticks)
 35: 0x0402 [0x5C] MUSIC_CONTROL: Set Idle (Day) music to song 126*
 36: 0x0406 [0x5C] MUSIC_CONTROL: Set Idle (Night) music to song 126*
 37: 0x040A [0x9A] WAIT_MUSIC_SERVER()
 38: 0x040B [0x45] LOAD_SCHEDULED_TASK: Load scheduler "3001" with entities [LocalPlayer, LocalPlayer], work=[469*, 0*]
 39: 0x041C [0x1A] CALL_SUBROUTINE(address=0x0EF6)
 40: 0x041F [0x45] LOAD_SCHEDULED_TASK: Load scheduler "mok0" with entities [Moogle (ID: 17739877/0x010EB065), Moogle (ID: 17739877/0x010EB065)], work=[469*, 0*]
 41: 0x0430 [0x27] REQ_SET(priority=0x10, entity_id=Moogle (ID: 17739877/0x010EB065), tag_num=0x0D)
 42: 0x0437 [0x2B] Moogle (ID: 17739877/0x010EB065) [6924*]:
    → "You've found them, kupo! I knew I could count on you. That's what I tell all my moogle buddies. "Why, my master is the boldest, brightest, bestest master of them all!" Now we just take these, and..."
 43: 0x043E [0x23] WAIT_FOR_DIALOG_INTERACTION
 44: 0x043F [0x27] REQ_SET(priority=0x10, entity_id=Moogle (ID: 17739877/0x010EB065), tag_num=0x0E)
 45: 0x0446 [0x52] END_LOAD_SCHEDULER: End scheduler "3001" with entities [LocalPlayer, LocalPlayer], work=469*
 46: 0x0455 [0x45] LOAD_SCHEDULED_TASK: Load scheduler "3002" with entities [LocalPlayer, LocalPlayer], work=[469*, 0*]
 47: 0x0466 [0x29] REQ_SET_WAIT(priority=0x10, entity_id=Moogle (ID: 17739877/0x010EB065), tag_num=0x1F)
 48: 0x046D [0x1A] CALL_SUBROUTINE(address=0x0F17)
 49: 0x0470 [0x52] END_LOAD_SCHEDULER: End scheduler "3002" with entities [LocalPlayer, LocalPlayer], work=469*
 50: 0x047F [0x4E] SET_ENTITY_HIDE_FLAG: Hide Moogle (ID: 17739877/0x010EB065)
 51: 0x0485 [0x1C] WAIT(60* ticks)
 52: 0x0488 [0x45] LOAD_SCHEDULED_TASK: Load scheduler "3003" with entities [LocalPlayer, LocalPlayer], work=[469*, 0*]
 53: 0x0499 [0x1A] CALL_SUBROUTINE(address=0x0EF6)
 54: 0x049C [0x1C] WAIT(30* ticks)
 55: 0x049F [0x27] REQ_SET(priority=0x10, entity_id=??? (ID: 17739875/0x010EB063), tag_num=0x04)
 56: 0x04A6 [0x1C] WAIT(100* ticks)
 57: 0x04A9 [0x27] REQ_SET(priority=0x10, entity_id=Unnamed NPC (ID: 17739876/0x010EB064), tag_num=0x04)
 58: 0x04B0 [0x29] REQ_SET_WAIT(priority=0x10, entity_id=??? (ID: 17739875/0x010EB063), tag_num=0x05)
 59: 0x04B7 [0x27] REQ_SET(priority=0x10, entity_id=??? (ID: 17739875/0x010EB063), tag_num=0x04)
 60: 0x04BE [0x29] REQ_SET_WAIT(priority=0x10, entity_id=Unnamed NPC (ID: 17739876/0x010EB064), tag_num=0x05)
 61: 0x04C5 [0x29] REQ_SET_WAIT(priority=0x10, entity_id=??? (ID: 17739875/0x010EB063), tag_num=0x05)
 62: 0x04CC [0x55] WAIT_LOAD_SCHEDULER: Wait for scheduler "3003" with entities [LocalPlayer, LocalPlayer], work=469*
 63: 0x04DB [0x45] LOAD_SCHEDULED_TASK: Load scheduler "3103" with entities [LocalPlayer, LocalPlayer], work=[469*, 0*]
 64: 0x04EC [0x2B] Moogle (ID: 17739877/0x010EB065) [6925*]:
    → "Kupoooooo`there you have it! Better than new! Why, a bevy of wild buffalo could barge in here this second and it wouldn't budge an ilm, I say!"
 65: 0x04F3 [0x23] WAIT_FOR_DIALOG_INTERACTION
 66: 0x04F4 [0x1A] CALL_SUBROUTINE(address=0x0F17)
 67: 0x04F7 [0x52] END_LOAD_SCHEDULER: End scheduler "3103" with entities [LocalPlayer, LocalPlayer], work=469*
 68: 0x0506 [0x4E] SET_ENTITY_HIDE_FLAG: Show Moogle (ID: 17739877/0x010EB065)
 69: 0x050C [0x1C] WAIT(60* ticks)
 70: 0x050F [0x45] LOAD_SCHEDULED_TASK: Load scheduler "3004" with entities [LocalPlayer, LocalPlayer], work=[469*, 0*]
 71: 0x0520 [0x1A] CALL_SUBROUTINE(address=0x0EF6)
 72: 0x0523 [0x29] REQ_SET_WAIT(priority=0x10, entity_id=Moogle (ID: 17739877/0x010EB065), tag_num=0x20)
 73: 0x052A [0x52] END_LOAD_SCHEDULER: End scheduler "3004" with entities [LocalPlayer, LocalPlayer], work=469*
 74: 0x0539 [0x45] LOAD_SCHEDULED_TASK: Load scheduler "3005" with entities [LocalPlayer, LocalPlayer], work=[469*, 0*]
 75: 0x054A [0x27] REQ_SET(priority=0x10, entity_id=Moogle (ID: 17739877/0x010EB065), tag_num=0x1C)
 76: 0x0551 [0x2B] Moogle (ID: 17739877/0x010EB065) [6926*]:
    → "Which reminds me, I went ahead and relayed the requisite reports to my manager at the MHMU."
 77: 0x0558 [0x23] WAIT_FOR_DIALOG_INTERACTION
 78: 0x0559 [0x52] END_LOAD_SCHEDULER: End scheduler "3005" with entities [LocalPlayer, LocalPlayer], work=469*
 79: 0x0568 [0x45] LOAD_SCHEDULED_TASK: Load scheduler "3007" with entities [LocalPlayer, LocalPlayer], work=[469*, 0*]
 80: 0x0579 [0x79] Moogle (ID: 17739877/0x010EB065) looks at LocalPlayer (Basic look)
 81: 0x0583 [0x27] REQ_SET(priority=0x10, entity_id=Moogle (ID: 17739877/0x010EB065), tag_num=0x11)
 82: 0x058A [0x2B] Moogle (ID: 17739877/0x010EB065) [6927*]:
    → "But wouldn't you know it, kupo? It seems there's been a trifling bit of trouble at one of our Rent-a-Rooms in Jeuno as well!"
 83: 0x0591 [0x23] WAIT_FOR_DIALOG_INTERACTION
 84: 0x0592 [0x27] REQ_SET(priority=0x10, entity_id=Moogle (ID: 17739877/0x010EB065), tag_num=0x12)
 85: 0x0599 [0x27] REQ_SET(priority=0x10, entity_id=Moogle (ID: 17739877/0x010EB065), tag_num=0x0D)
 86: 0x05A0 [0x2B] Moogle (ID: 17739877/0x010EB065) [6928*]:
    → "You know the one, right across from Durable Shields. Whatever could have gone wrong, kupo?"
 87: 0x05A7 [0x23] WAIT_FOR_DIALOG_INTERACTION
 88: 0x05A8 [0x27] REQ_SET(priority=0x10, entity_id=Moogle (ID: 17739877/0x010EB065), tag_num=0x0E)
 89: 0x05AF [0x52] END_LOAD_SCHEDULER: End scheduler "3007" with entities [LocalPlayer, LocalPlayer], work=469*
 90: 0x05BE [0x45] LOAD_SCHEDULED_TASK: Load scheduler "3008" with entities [LocalPlayer, LocalPlayer], work=[469*, 0*]
 91: 0x05CF [0x7B] Moogle (ID: 17739877/0x010EB065) stops talking
 92: 0x05D4 [0x27] REQ_SET(priority=0x10, entity_id=Moogle (ID: 17739877/0x010EB065), tag_num=0x07)
 93: 0x05DB [0x2B] Moogle (ID: 17739877/0x010EB065) [6929*]:
    → "Well, there's nothing to be learned lollygagging around here. Come, Master, we're off to Jeuno!"
 94: 0x05E2 [0x23] WAIT_FOR_DIALOG_INTERACTION
 95: 0x05E3 [0x1A] CALL_SUBROUTINE(address=0x0F17)
 96: 0x05E6 [0x27] REQ_SET(priority=0x10, entity_id=Moogle (ID: 17739877/0x010EB065), tag_num=0x08)
 97: 0x05ED [0x52] END_LOAD_SCHEDULER: End scheduler "3008" with entities [LocalPlayer, LocalPlayer], work=469*
 98: 0x05FC [0x1C] WAIT(60* ticks)
 99: 0x05FF [0x45] LOAD_SCHEDULED_TASK: Load scheduler "3009" with entities [LocalPlayer, LocalPlayer], work=[469*, 0*]
100: 0x0610 [0x1A] CALL_SUBROUTINE(address=0x0EF6)
101: 0x0613 [0x1C] WAIT(60* ticks)
102: 0x0616 [0x48] [System] [6930*]:
    → "Little did anyone suspect that this would prove to be only the beginning of a harrowing nightmare unheard of in the annals of mooglekind..."
103: 0x0619 [0x23] WAIT_FOR_DIALOG_INTERACTION
104: 0x061A [0x5C] MUSIC_CONTROL: Set Idle (Day) music to song 121*, volume=255*
105: 0x0620 [0x5C] MUSIC_CONTROL: Set Idle (Night) music to song 121*, volume=255*
106: 0x0626 [0x5C] MUSIC_CONTROL: Set Combat (Solo) music to song 121*, volume=255*
107: 0x062C [0x5C] MUSIC_CONTROL: Set Combat (Party) music to song 121*, volume=255*
108: 0x0632 [0x9A] WAIT_MUSIC_SERVER()
109: 0x0633 [0x1C] WAIT(30* ticks)
110: 0x0636 [0x9C] STORE_CLIENT_LANGUAGE_ID(result=0x1002)
111: 0x0639 [0x02] IF !(Work_Zone[2] == 1*) GOTO 0x0655
112: 0x0641 [0xC5] LOAD_SCHEDULED_TASK_ALT3: Load scheduler 0x80016E69 for entities [EventEntity, EventEntity], work=125*, param=24941
113: 0x0652 [0x01] GOTO 0x06A9
114: 0x0655 [0x02] IF !(Work_Zone[2] == 2*) GOTO 0x0671
115: 0x065D [0xC5] LOAD_SCHEDULED_TASK_ALT3: Load scheduler 0x80016E69 for entities [EventEntity, EventEntity], work=126*, param=24941
116: 0x066E [0x01] GOTO 0x06A9
117: 0x0671 [0x02] IF !(Work_Zone[2] == 3*) GOTO 0x068D
118: 0x0679 [0xC5] LOAD_SCHEDULED_TASK_ALT3: Load scheduler 0x80016E69 for entities [EventEntity, EventEntity], work=128*, param=24941
119: 0x068A [0x01] GOTO 0x06A9
120: 0x068D [0x02] IF !(Work_Zone[2] == 4*) GOTO 0x06A9
121: 0x0695 [0xC5] LOAD_SCHEDULED_TASK_ALT3: Load scheduler 0x80016E69 for entities [EventEntity, EventEntity], work=127*, param=24941
122: 0x06A6 [0x01] GOTO 0x06A9

SUBROUTINE_06A9:
123: 0x06A9 [0x1C] WAIT(800* ticks)
124: 0x06AC [0x1C] WAIT(30* ticks)
125: 0x06AF [0x1A] CALL_SUBROUTINE(address=0x0F17)
126: 0x06B2 [0x1C] WAIT(60* ticks)
127: 0x06B5 [0x52] END_LOAD_SCHEDULER: End scheduler "3009" with entities [LocalPlayer, LocalPlayer], work=469*
128: 0x06C4 [0x4E] SET_ENTITY_HIDE_FLAG: Show Moogle (ID: 17739873/0x010EB061)
129: 0x06CA [0x5C] MUSIC_CONTROL: Set Idle (Day) music to song 126*, volume=255*
130: 0x06D0 [0x5C] MUSIC_CONTROL: Set Idle (Night) music to song 126*, volume=255*
131: 0x06D6 [0x5C] MUSIC_CONTROL: Set Combat (Solo) music to song 126*, volume=255*
132: 0x06DC [0x5C] MUSIC_CONTROL: Set Combat (Party) music to song 126*, volume=255*
133: 0x06E2 [0x9A] WAIT_MUSIC_SERVER()
134: 0x06E3 [0x46] CAMERA_CONTROL: Restore default settings
135: 0x06E5 [0x45] LOAD_SCHEDULED_TASK: Load scheduler "fdi2" with entities [LocalPlayer, LocalPlayer], work=[200*, 0*]
136: 0x06F6 [0x21] END_EVENT
137: 0x06F7 [0x00] END_REQSTACK()
```

### Event 30025

#### Metadata

| Field        | Value     |
|--------------|-----------|
| Entrypoint   | 0x06F8    |
| Data Size    | 941 bytes |
| Instructions | 150       |

```
      00 01 02 03 04 05 06 07  08 09 0A 0B 0C 0D 0E 0F
      -- -- -- -- -- -- -- --  -- -- -- -- -- -- -- --
06F0:                          42 03 00 00 08 10 03 01          B.......
0700: 00 09 10 1A 17 0F 46 01  38 00 80 02 01 00 01 80  ......F.8.......
0710: 80 19 07 34 32 80 01 35  07 02 01 00 2A 80 80 27  ...42..5....*..'
0720: 07 34 33 80 01 35 07 02  01 00 2C 80 80 35 07 34  .43..5....,..5.4
0730: 34 80 01 35 07 77 35 80  2A 80 1C 06 80 AB 09 42  4..5.w5.*......B
0740: 1A 17 0F 46 01 38 00 80  4E 00 F0 FF FF 7F 94 01  ...F.8..N.......
0750: F0 FF FF 7F 27 10 65 B0  0E 01 01 59 05 63 B0 0E  ....'.e....Y.c..
0760: 01 01 59 05 65 B0 0E 01  01 BA F0 FF FF 7F 01 80  ..Y.e...........
0770: 02 80 01 80 01 80 BA 65  B0 0E 01 01 80 03 80 04  .......e........
0780: 80 05 80 80 F0 FF FF 7F  80 65 B0 0E 01 6B 69 64  .........e...kid
0790: 6C 30 65 B0 0E 01 1C 06  80 4A F0 FF FF 7F 65 B0  l0e......J....e.
07A0: 0E 01 4A 65 B0 0E 01 F0  FF FF 7F 6F 76 F0 FF FF  ..Je.......ov...
07B0: 7F 6F 76 65 B0 0E 01 1C  06 80 7B 65 B0 0E 01 27  .ove......{e...'
07C0: 10 65 B0 0E 01 02 1C 07  80 5C 00 08 80 5C 01 08  .e.......\...\..
07D0: 80 9A 45 09 80 F0 FF FF  7F F0 FF FF 7F 31 31 30  ..E..........110
07E0: 31 01 80 1A F6 0E 27 10  65 B0 0E 01 04 1C 0A 80  1.....'.e.......
07F0: 48 0B 80 23 1A 17 0F 52  09 80 F0 FF FF 7F F0 FF  H..#...R........
0800: FF 7F 31 31 30 31 27 10  65 B0 0E 01 03 59 05 65  ..1101'.e....Y.e
0810: B0 0E 01 00 BA 65 B0 0E  01 01 80 03 80 01 80 05  .....e..........
0820: 80 80 65 B0 0E 01 1C 06  80 4A 65 B0 0E 01 F0 FF  ..e......Je.....
0830: FF 7F 6F 76 65 B0 0E 01  1C 0C 80 45 09 80 F0 FF  ..ove......E....
0840: FF 7F F0 FF FF 7F 31 30  30 31 01 80 1A F6 0E 1C  ......1001......
0850: 0D 80 27 10 65 B0 0E 01  1E 55 09 80 F0 FF FF 7F  ..'.e....U......
0860: F0 FF FF 7F 31 30 30 31  45 09 80 F0 FF FF 7F F0  ....1001E.......
0870: FF FF 7F 31 32 30 31 01  80 1C 0E 80 2B 65 B0 0E  ...1201.....+e..
0880: 01 0F 80 23 55 09 80 F0  FF FF 7F F0 FF FF 7F 31  ...#U..........1
0890: 32 30 31 45 09 80 F0 FF  FF 7F F0 FF FF 7F 31 30  201E..........10
08A0: 30 32 01 80 27 10 65 B0  0E 01 0D 2B 65 B0 0E 01  02..'.e....+e...
08B0: 10 80 23 29 10 65 B0 0E  01 0E 52 09 80 F0 FF FF  ..#).e....R.....
08C0: 7F F0 FF FF 7F 31 30 30  32 45 09 80 F0 FF FF 7F  .....1002E......
08D0: F0 FF FF 7F 31 30 30 33  01 80 29 10 65 B0 0E 01  ....1003..).e...
08E0: 1F 1A 17 0F 52 09 80 F0  FF FF 7F F0 FF FF 7F 31  ....R..........1
08F0: 30 30 33 4E 01 65 B0 0E  01 1C 11 80 45 09 80 F0  003N.e......E...
0900: FF FF 7F F0 FF FF 7F 31  30 30 35 01 80 1A F6 0E  .......1005.....
0910: 1C 12 80 2B 65 B0 0E 01  13 80 23 2B 65 B0 0E 01  ...+e.....#+e...
0920: 14 80 23 52 09 80 F0 FF  FF 7F F0 FF FF 7F 31 30  ..#R..........10
0930: 30 35 45 09 80 F0 FF FF  7F F0 FF FF 7F 31 30 30  05E..........100
0940: 34 01 80 2B 65 B0 0E 01  15 80 23 1A 17 0F 52 09  4..+e.....#...R.
0950: 80 F0 FF FF 7F F0 FF FF  7F 31 30 30 34 4E 00 65  .........1004N.e
0960: B0 0E 01 4E 00 F0 FF FF  7F 1C 16 80 27 10 65 B0  ...N........'.e.
0970: 0E 01 20 1C 17 80 45 09  80 F0 FF FF 7F F0 FF FF  .. ...E.........
0980: 7F 31 30 30 36 01 80 1A  F6 0E 2A 10 65 B0 0E 01  .1006.....*.e...
0990: 52 09 80 F0 FF FF 7F F0  FF FF 7F 31 30 30 36 45  R..........1006E
09A0: 09 80 F0 FF FF 7F F0 FF  FF 7F 31 30 30 37 01 80  ..........1007..
09B0: 27 10 65 B0 0E 01 1C 03  02 10 18 80 03 03 10 19  '.e.............
09C0: 80 03 04 10 1A 80 2B 65  B0 0E 01 1B 80 23 52 09  ......+e.....#R.
09D0: 80 F0 FF FF 7F F0 FF FF  7F 31 30 30 37 45 09 80  .........1007E..
09E0: F0 FF FF 7F F0 FF FF 7F  31 30 30 38 01 80 27 10  ........1008..'.
09F0: 65 B0 0E 01 0D 2B 65 B0  0E 01 1C 80 23 27 10 65  e....+e.....#'.e
0A00: B0 0E 01 0E 52 09 80 F0  FF FF 7F F0 FF FF 7F 31  ....R..........1
0A10: 30 30 38 45 09 80 F0 FF  FF 7F F0 FF FF 7F 31 30  008E..........10
0A20: 30 39 01 80 7B 65 B0 0E  01 27 10 65 B0 0E 01 11  09..{e...'.e....
0A30: 2B 65 B0 0E 01 1D 80 23  52 09 80 F0 FF FF 7F F0  +e.....#R.......
0A40: FF FF 7F 31 30 30 39 1A  17 0F 1C 07 80 35 00 00  ...1009......5..
0A50: 78 1C 2A 80 AB 0A 02 01  00 01 80 80 69 0A 5C 00  x.*.........i.\.
0A60: 36 80 5C 01 36 80 01 8F  0A 02 01 00 2A 80 80 7C  6.\.6.......*..|
0A70: 0A 5C 00 37 80 5C 01 37  80 01 8F 0A 02 01 00 2C  .\.7.\.7.......,
0A80: 80 80 8F 0A 5C 00 38 80  5C 01 38 80 01 8F 0A 9A  ....\.8.\.8.....
0A90: 46 00 45 1E 80 F0 FF FF  7F F0 FF FF 7F 66 64 69  F.E..........fdi
0AA0: 32 01 80 21 00                                    2..!.           
```

#### Opcodes

```
  0: 0x06F8 [0x42] SET_CLI_EVENT_CANCEL_DATA()
  1: 0x06F9 [0x03] ExtData[1]->WorkLocal[0] = Work_Zone[8]
  2: 0x06FE [0x03] ExtData[1]->WorkLocal[1] = Work_Zone[9]
  3: 0x0703 [0x1A] CALL_SUBROUTINE(address=0x0F17)
  4: 0x0706 [0x46] CAMERA_CONTROL: Disable user control
  5: 0x0708 [0x38] SET_CLIENT_EVENT_MODE(mode=19*)
  6: 0x070B [0x02] IF !(ExtData[1]->WorkLocal[1] == 0*) GOTO 0x0719
  7: 0x0713 [0x34] LOAD_UNLOAD_ZONE(zone_id=289*)
  8: 0x0716 [0x01] GOTO 0x0735
  9: 0x0719 [0x02] IF !(ExtData[1]->WorkLocal[1] == 1*) GOTO 0x0727
 10: 0x0721 [0x34] LOAD_UNLOAD_ZONE(zone_id=290*)
 11: 0x0724 [0x01] GOTO 0x0735
 12: 0x0727 [0x02] IF !(ExtData[1]->WorkLocal[1] == 2*) GOTO 0x0735
 13: 0x072F [0x34] LOAD_UNLOAD_ZONE(zone_id=291*)
 14: 0x0732 [0x01] GOTO 0x0735

SUBROUTINE_0735:
 15: 0x0735 [0x77] SET_EVENT_TIME_WEATHER(hour=12*, weather=1*)
 16: 0x073A [0x1C] WAIT(15* ticks)
 17: 0x073D [0xAB] EventEntity->UnknownFlag = 1 // Enable unknown flag
 18: 0x073F [0x42] SET_CLI_EVENT_CANCEL_DATA()
 19: 0x0740 [0x1A] CALL_SUBROUTINE(address=0x0F17)
 20: 0x0743 [0x46] CAMERA_CONTROL: Disable user control
 21: 0x0745 [0x38] SET_CLIENT_EVENT_MODE(mode=19*)
 22: 0x0748 [0x4E] SET_ENTITY_HIDE_FLAG: Show LocalPlayer
 23: 0x074E [0x94] LocalPlayer->Render.Flags3 ^= 0x01
 24: 0x0754 [0x27] REQ_SET(priority=0x10, entity_id=Moogle (ID: 17739877/0x010EB065), tag_num=0x01)
 25: 0x075B [0x59] UPDATE_ENTITY_DATA: ??? (ID: 17739875/0x010EB063)->Render.Flags0 |= 0x200000
 26: 0x0762 [0x59] UPDATE_ENTITY_DATA: Moogle (ID: 17739877/0x010EB065)->Render.Flags0 |= 0x200000
 27: 0x0769 [0xBA] SET_ENTITY_POSITION(entity_id=LocalPlayer, pos_x=0.000*, pos_z=-1.000*, pos_y=0.000*, direction=0.0°*)
 28: 0x0776 [0xBA] SET_ENTITY_POSITION(entity_id=Moogle (ID: 17739877/0x010EB065), pos_x=0.000*, pos_z=1.500*, pos_y=10.000*, direction=92.0°*)
 29: 0x0783 [0x80] LOAD_WAIT(entity=LocalPlayer)
 30: 0x0788 [0x80] LOAD_WAIT(entity=Moogle (ID: 17739877/0x010EB065))
 31: 0x078D [0x6B] STOP_AND_IDLE: Moogle (ID: 17739877/0x010EB065) stops current action and resets to idle (animation="idl0")
 32: 0x0796 [0x1C] WAIT(15* ticks)
 33: 0x0799 [0x4A] LocalPlayer looks at Moogle (ID: 17739877/0x010EB065)
 34: 0x07A2 [0x4A] Moogle (ID: 17739877/0x010EB065) looks at LocalPlayer
 35: 0x07AB [0x6F] WAIT_FRAME_DELAY: Yield until WaitTime reaches zero
 36: 0x07AC [0x76] CHECK_ENTITY_RENDER_FLAGS: Wait until LocalPlayer Render.Flags0 and Render.Flags3 conditions are met
 37: 0x07B1 [0x6F] WAIT_FRAME_DELAY: Yield until WaitTime reaches zero
 38: 0x07B2 [0x76] CHECK_ENTITY_RENDER_FLAGS: Wait until Moogle (ID: 17739877/0x010EB065) Render.Flags0 and Render.Flags3 conditions are met
 39: 0x07B7 [0x1C] WAIT(15* ticks)
 40: 0x07BA [0x7B] Moogle (ID: 17739877/0x010EB065) stops talking
 41: 0x07BF [0x27] REQ_SET(priority=0x10, entity_id=Moogle (ID: 17739877/0x010EB065), tag_num=0x02)
 42: 0x07C6 [0x1C] WAIT(30* ticks)
 43: 0x07C9 [0x5C] MUSIC_CONTROL: Set Idle (Day) music to song 126*
 44: 0x07CD [0x5C] MUSIC_CONTROL: Set Idle (Night) music to song 126*
 45: 0x07D1 [0x9A] WAIT_MUSIC_SERVER()
 46: 0x07D2 [0x45] LOAD_SCHEDULED_TASK: Load scheduler "1101" with entities [LocalPlayer, LocalPlayer], work=[469*, 0*]
 47: 0x07E3 [0x1A] CALL_SUBROUTINE(address=0x0EF6)
 48: 0x07E6 [0x27] REQ_SET(priority=0x10, entity_id=Moogle (ID: 17739877/0x010EB065), tag_num=0x04)
 49: 0x07ED [0x1C] WAIT(330* ticks)
 50: 0x07F0 [0x48] [System] [6914*]:
    → "It all began with a raindrop, or so the legend says..."
 51: 0x07F3 [0x23] WAIT_FOR_DIALOG_INTERACTION
 52: 0x07F4 [0x1A] CALL_SUBROUTINE(address=0x0F17)
 53: 0x07F7 [0x52] END_LOAD_SCHEDULER: End scheduler "1101" with entities [LocalPlayer, LocalPlayer], work=469*
 54: 0x0806 [0x27] REQ_SET(priority=0x10, entity_id=Moogle (ID: 17739877/0x010EB065), tag_num=0x03)
 55: 0x080D [0x59] UPDATE_ENTITY_DATA: Moogle (ID: 17739877/0x010EB065)->Render.Flags0 &= ~0x200000
 56: 0x0814 [0xBA] SET_ENTITY_POSITION(entity_id=Moogle (ID: 17739877/0x010EB065), pos_x=0.000*, pos_z=1.500*, pos_y=0.000*, direction=92.0°*)
 57: 0x0821 [0x80] LOAD_WAIT(entity=Moogle (ID: 17739877/0x010EB065))
 58: 0x0826 [0x1C] WAIT(15* ticks)
 59: 0x0829 [0x4A] Moogle (ID: 17739877/0x010EB065) looks at LocalPlayer
 60: 0x0832 [0x6F] WAIT_FRAME_DELAY: Yield until WaitTime reaches zero
 61: 0x0833 [0x76] CHECK_ENTITY_RENDER_FLAGS: Wait until Moogle (ID: 17739877/0x010EB065) Render.Flags0 and Render.Flags3 conditions are met
 62: 0x0838 [0x1C] WAIT(45* ticks)
 63: 0x083B [0x45] LOAD_SCHEDULED_TASK: Load scheduler "1001" with entities [LocalPlayer, LocalPlayer], work=[469*, 0*]
 64: 0x084C [0x1A] CALL_SUBROUTINE(address=0x0EF6)
 65: 0x084F [0x1C] WAIT(28* ticks)
 66: 0x0852 [0x27] REQ_SET(priority=0x10, entity_id=Moogle (ID: 17739877/0x010EB065), tag_num=0x1E)
 67: 0x0859 [0x55] WAIT_LOAD_SCHEDULER: Wait for scheduler "1001" with entities [LocalPlayer, LocalPlayer], work=469*
 68: 0x0868 [0x45] LOAD_SCHEDULED_TASK: Load scheduler "1201" with entities [LocalPlayer, LocalPlayer], work=[469*, 0*]
 69: 0x0879 [0x1C] WAIT(120* ticks)
 70: 0x087C [0x2B] Moogle (ID: 17739877/0x010EB065) [6915*]:
    → "Master! Oh, master, look! We've sprung a leak, kupo! Just look at it drip, drip, dripping away!"
 71: 0x0883 [0x23] WAIT_FOR_DIALOG_INTERACTION
 72: 0x0884 [0x55] WAIT_LOAD_SCHEDULER: Wait for scheduler "1201" with entities [LocalPlayer, LocalPlayer], work=469*
 73: 0x0893 [0x45] LOAD_SCHEDULED_TASK: Load scheduler "1002" with entities [LocalPlayer, LocalPlayer], work=[469*, 0*]
 74: 0x08A4 [0x27] REQ_SET(priority=0x10, entity_id=Moogle (ID: 17739877/0x010EB065), tag_num=0x0D)
 75: 0x08AB [0x2B] Moogle (ID: 17739877/0x010EB065) [6916*]:
    → "What a terribly troubling turn of events, kupo! But have no fear! Sit tight and you'll see why I'm the most renowned handymoogle in the three nations!"
 76: 0x08B2 [0x23] WAIT_FOR_DIALOG_INTERACTION
 77: 0x08B3 [0x29] REQ_SET_WAIT(priority=0x10, entity_id=Moogle (ID: 17739877/0x010EB065), tag_num=0x0E)
 78: 0x08BA [0x52] END_LOAD_SCHEDULER: End scheduler "1002" with entities [LocalPlayer, LocalPlayer], work=469*
 79: 0x08C9 [0x45] LOAD_SCHEDULED_TASK: Load scheduler "1003" with entities [LocalPlayer, LocalPlayer], work=[469*, 0*]
 80: 0x08DA [0x29] REQ_SET_WAIT(priority=0x10, entity_id=Moogle (ID: 17739877/0x010EB065), tag_num=0x1F)
 81: 0x08E1 [0x1A] CALL_SUBROUTINE(address=0x0F17)
 82: 0x08E4 [0x52] END_LOAD_SCHEDULER: End scheduler "1003" with entities [LocalPlayer, LocalPlayer], work=469*
 83: 0x08F3 [0x4E] SET_ENTITY_HIDE_FLAG: Hide Moogle (ID: 17739877/0x010EB065)
 84: 0x08F9 [0x1C] WAIT(90* ticks)
 85: 0x08FC [0x45] LOAD_SCHEDULED_TASK: Load scheduler "1005" with entities [LocalPlayer, LocalPlayer], work=[469*, 0*]
 86: 0x090D [0x1A] CALL_SUBROUTINE(address=0x0EF6)
 87: 0x0910 [0x1C] WAIT(60* ticks)
 88: 0x0913 [0x2B] Moogle (ID: 17739877/0x010EB065) [6917*]:
    → "Goddess have mercy on my moogle soul. Look at this mess! Rotting roof boards! Rusted nails, kupo!"
 89: 0x091A [0x23] WAIT_FOR_DIALOG_INTERACTION
 90: 0x091B [0x2B] Moogle (ID: 17739877/0x010EB065) [6918*]:
    → "Why, it's a miracle this tottering, tumble-down shanty--I mean, this beautiful abode of yours--is still standing, master!"
 91: 0x0922 [0x23] WAIT_FOR_DIALOG_INTERACTION
 92: 0x0923 [0x52] END_LOAD_SCHEDULER: End scheduler "1005" with entities [LocalPlayer, LocalPlayer], work=469*
 93: 0x0932 [0x45] LOAD_SCHEDULED_TASK: Load scheduler "1004" with entities [LocalPlayer, LocalPlayer], work=[469*, 0*]
 94: 0x0943 [0x2B] Moogle (ID: 17739877/0x010EB065) [6919*]:
    → "Anyhow, this simply won't do, kupo. We must make repairs before we have water up to my little wings!"
 95: 0x094A [0x23] WAIT_FOR_DIALOG_INTERACTION
 96: 0x094B [0x1A] CALL_SUBROUTINE(address=0x0F17)
 97: 0x094E [0x52] END_LOAD_SCHEDULER: End scheduler "1004" with entities [LocalPlayer, LocalPlayer], work=469*
 98: 0x095D [0x4E] SET_ENTITY_HIDE_FLAG: Show Moogle (ID: 17739877/0x010EB065)
 99: 0x0963 [0x4E] SET_ENTITY_HIDE_FLAG: Show LocalPlayer
100: 0x0969 [0x1C] WAIT(40* ticks)
101: 0x096C [0x27] REQ_SET(priority=0x10, entity_id=Moogle (ID: 17739877/0x010EB065), tag_num=0x20)
102: 0x0973 [0x1C] WAIT(20* ticks)
103: 0x0976 [0x45] LOAD_SCHEDULED_TASK: Load scheduler "1006" with entities [LocalPlayer, LocalPlayer], work=[469*, 0*]
104: 0x0987 [0x1A] CALL_SUBROUTINE(address=0x0EF6)
105: 0x098A [0x2A] GET_REQ_LEVEL(level=16, entity_id=Moogle (ID: 17739877/0x010EB065))
106: 0x0990 [0x52] END_LOAD_SCHEDULER: End scheduler "1006" with entities [LocalPlayer, LocalPlayer], work=469*
107: 0x099F [0x45] LOAD_SCHEDULED_TASK: Load scheduler "1007" with entities [LocalPlayer, LocalPlayer], work=[469*, 0*]
108: 0x09B0 [0x27] REQ_SET(priority=0x10, entity_id=Moogle (ID: 17739877/0x010EB065), tag_num=0x1C)
109: 0x09B7 [0x03] Work_Zone[2] = 2757*
110: 0x09BC [0x03] Work_Zone[3] = 2758*
111: 0x09C1 [0x03] Work_Zone[4] = 2759*
112: 0x09C6 [0x2B] Moogle (ID: 17739877/0x010EB065) [6920*]:
    → "I figure all I'll need is a good $0, $1, and $2 to have this fixed up good as new, kupo!"
113: 0x09CD [0x23] WAIT_FOR_DIALOG_INTERACTION
114: 0x09CE [0x52] END_LOAD_SCHEDULER: End scheduler "1007" with entities [LocalPlayer, LocalPlayer], work=469*
115: 0x09DD [0x45] LOAD_SCHEDULED_TASK: Load scheduler "1008" with entities [LocalPlayer, LocalPlayer], work=[469*, 0*]
116: 0x09EE [0x27] REQ_SET(priority=0x10, entity_id=Moogle (ID: 17739877/0x010EB065), tag_num=0x0D)
117: 0x09F5 [0x2B] Moogle (ID: 17739877/0x010EB065) [6921*]:
    → "Could I trouble you to track them down? While you're out, I'll patch up the other problem spots."
118: 0x09FC [0x23] WAIT_FOR_DIALOG_INTERACTION
119: 0x09FD [0x27] REQ_SET(priority=0x10, entity_id=Moogle (ID: 17739877/0x010EB065), tag_num=0x0E)
120: 0x0A04 [0x52] END_LOAD_SCHEDULER: End scheduler "1008" with entities [LocalPlayer, LocalPlayer], work=469*
121: 0x0A13 [0x45] LOAD_SCHEDULED_TASK: Load scheduler "1009" with entities [LocalPlayer, LocalPlayer], work=[469*, 0*]
122: 0x0A24 [0x7B] Moogle (ID: 17739877/0x010EB065) stops talking
123: 0x0A29 [0x27] REQ_SET(priority=0x10, entity_id=Moogle (ID: 17739877/0x010EB065), tag_num=0x11)
124: 0x0A30 [0x2B] Moogle (ID: 17739877/0x010EB065) [6922*]:
    → "And do hurry, Master! Lest you return to find your poor moogle friend lying prostrate in a pernicious puddle of rainwater, kupo..."
125: 0x0A37 [0x23] WAIT_FOR_DIALOG_INTERACTION
126: 0x0A38 [0x52] END_LOAD_SCHEDULER: End scheduler "1009" with entities [LocalPlayer, LocalPlayer], work=469*
127: 0x0A47 [0x1A] CALL_SUBROUTINE(address=0x0F17)
128: 0x0A4A [0x1C] WAIT(30* ticks)
129: 0x0A4D [0x35] LOAD_ZONE_NO_CLOSE(zone_id=ExtData[1]->WorkLocal[0])
130: 0x0A50 [0x78] ENABLE_GAME_TIMER_RESET_WEATHER()
131: 0x0A51 [0x1C] WAIT(1* ticks)
132: 0x0A54 [0xAB] EventEntity->UnknownFlag = 0 // Disable unknown flag
133: 0x0A56 [0x02] IF !(ExtData[1]->WorkLocal[1] == 0*) GOTO 0x0A69
134: 0x0A5E [0x5C] MUSIC_CONTROL: Set Idle (Day) music to song 107*
135: 0x0A62 [0x5C] MUSIC_CONTROL: Set Idle (Night) music to song 107*
136: 0x0A66 [0x01] GOTO 0x0A8F
137: 0x0A69 [0x02] IF !(ExtData[1]->WorkLocal[1] == 1*) GOTO 0x0A7C
138: 0x0A71 [0x5C] MUSIC_CONTROL: Set Idle (Day) music to song 152*
139: 0x0A75 [0x5C] MUSIC_CONTROL: Set Idle (Night) music to song 152*
140: 0x0A79 [0x01] GOTO 0x0A8F
141: 0x0A7C [0x02] IF !(ExtData[1]->WorkLocal[1] == 2*) GOTO 0x0A8F
142: 0x0A84 [0x5C] MUSIC_CONTROL: Set Idle (Day) music to song 151*
143: 0x0A88 [0x5C] MUSIC_CONTROL: Set Idle (Night) music to song 151*
144: 0x0A8C [0x01] GOTO 0x0A8F

SUBROUTINE_0A8F:
145: 0x0A8F [0x9A] WAIT_MUSIC_SERVER()
146: 0x0A90 [0x46] CAMERA_CONTROL: Restore default settings
147: 0x0A92 [0x45] LOAD_SCHEDULED_TASK: Load scheduler "fdi2" with entities [LocalPlayer, LocalPlayer], work=[200*, 0*]
148: 0x0AA3 [0x21] END_EVENT
149: 0x0AA4 [0x00] END_REQSTACK()
```

### Event 30026

#### Metadata

| Field        | Value      |
|--------------|------------|
| Entrypoint   | 0x0AA5     |
| Data Size    | 1336 bytes |
| Instructions | 167        |

```
      00 01 02 03 04 05 06 07  08 09 0A 0B 0C 0D 0E 0F
      -- -- -- -- -- -- -- --  -- -- -- -- -- -- -- --
0AA0:                42 03 00  00 08 10 03 01 00 09 10       B..........
0AB0: 1A 17 0F 46 01 38 00 80  02 01 00 01 80 80 C6 0A  ...F.8..........
0AC0: 34 32 80 01 E2 0A 02 01  00 2A 80 80 D4 0A 34 33  42.......*....43
0AD0: 80 01 E2 0A 02 01 00 2C  80 80 E2 0A 34 34 80 01  .......,....44..
0AE0: E2 0A 77 35 80 2A 80 1C  06 80 AB 09 42 1A 17 0F  ..w5.*......B...
0AF0: 46 01 38 00 80 29 0B F0  FF FF 7F 09 4E 00 F0 FF  F.8..)......N...
0B00: FF 7F 94 01 F0 FF FF 7F  27 10 65 B0 0E 01 01 27  ........'.e....'
0B10: 10 63 B0 0E 01 01 27 10  64 B0 0E 01 01 BA F0 FF  .c....'.d.......
0B20: FF 7F 01 80 02 80 01 80  01 80 BA 65 B0 0E 01 01  ...........e....
0B30: 80 03 80 01 80 05 80 BA  63 B0 0E 01 01 80 03 80  ........c.......
0B40: 01 80 01 80 BA 64 B0 0E  01 01 80 1F 80 01 80 01  .....d..........
0B50: 80 80 F0 FF FF 7F 80 65  B0 0E 01 80 63 B0 0E 01  .......e....c...
0B60: 80 64 B0 0E 01 1C 06 80  6B 69 64 6C 30 65 B0 0E  .d......kidl0e..
0B70: 01 4A F0 FF FF 7F 65 B0  0E 01 4A 65 B0 0E 01 F0  .J....e...Je....
0B80: FF FF 7F 6F 76 F0 FF FF  7F 6F 76 65 B0 0E 01 1C  ...ov....ove....
0B90: 06 80 7B 65 B0 0E 01 1C  07 80 5C 00 08 80 5C 01  ..{e......\...\.
0BA0: 08 80 9A 45 09 80 F0 FF  FF 7F F0 FF FF 7F 33 30  ...E..........30
0BB0: 30 31 01 80 1A F6 0E 45  09 80 65 B0 0E 01 65 B0  01.....E..e...e.
0BC0: 0E 01 6D 6F 6B 30 01 80  27 10 65 B0 0E 01 0D 2B  ..mok0..'.e....+
0BD0: 65 B0 0E 01 20 80 23 27  10 65 B0 0E 01 0E 52 09  e... .#'.e....R.
0BE0: 80 F0 FF FF 7F F0 FF FF  7F 33 30 30 31 45 09 80  .........3001E..
0BF0: F0 FF FF 7F F0 FF FF 7F  33 30 30 32 01 80 29 10  ........3002..).
0C00: 65 B0 0E 01 1F 1A 17 0F  52 09 80 F0 FF FF 7F F0  e.......R.......
0C10: FF FF 7F 33 30 30 32 4E  01 65 B0 0E 01 1C 12 80  ...3002N.e......
0C20: 45 09 80 F0 FF FF 7F F0  FF FF 7F 33 30 30 33 01  E..........3003.
0C30: 80 1A F6 0E 1C 07 80 27  10 63 B0 0E 01 04 1C 21  .......'.c.....!
0C40: 80 27 10 64 B0 0E 01 04  29 10 63 B0 0E 01 05 27  .'.d....).c....'
0C50: 10 63 B0 0E 01 04 29 10  64 B0 0E 01 05 29 10 63  .c....).d....).c
0C60: B0 0E 01 05 55 09 80 F0  FF FF 7F F0 FF FF 7F 33  ....U..........3
0C70: 30 30 33 45 09 80 F0 FF  FF 7F F0 FF FF 7F 33 31  003E..........31
0C80: 30 33 01 80 2B 65 B0 0E  01 22 80 23 1A 17 0F 52  03..+e...".#...R
0C90: 09 80 F0 FF FF 7F F0 FF  FF 7F 33 31 30 33 4E 00  ..........3103N.
0CA0: 65 B0 0E 01 1C 12 80 45  09 80 F0 FF FF 7F F0 FF  e......E........
0CB0: FF 7F 33 30 30 34 01 80  1A F6 0E 29 10 65 B0 0E  ..3004.....).e..
0CC0: 01 20 52 09 80 F0 FF FF  7F F0 FF FF 7F 33 30 30  . R..........300
0CD0: 34 45 09 80 F0 FF FF 7F  F0 FF FF 7F 33 30 30 35  4E..........3005
0CE0: 01 80 27 10 65 B0 0E 01  1C 2B 65 B0 0E 01 23 80  ..'.e....+e...#.
0CF0: 23 52 09 80 F0 FF FF 7F  F0 FF FF 7F 33 30 30 35  #R..........3005
0D00: 45 09 80 F0 FF FF 7F F0  FF FF 7F 33 30 30 37 01  E..........3007.
0D10: 80 79 00 65 B0 0E 01 F0  FF FF 7F 27 10 65 B0 0E  .y.e.......'.e..
0D20: 01 11 2B 65 B0 0E 01 24  80 23 27 10 65 B0 0E 01  ..+e...$.#'.e...
0D30: 12 27 10 65 B0 0E 01 0D  2B 65 B0 0E 01 25 80 23  .'.e....+e...%.#
0D40: 27 10 65 B0 0E 01 0E 52  09 80 F0 FF FF 7F F0 FF  '.e....R........
0D50: FF 7F 33 30 30 37 45 09  80 F0 FF FF 7F F0 FF FF  ..3007E.........
0D60: 7F 33 30 30 38 01 80 7B  65 B0 0E 01 27 10 65 B0  .3008..{e...'.e.
0D70: 0E 01 07 2B 65 B0 0E 01  26 80 23 1A 17 0F 27 10  ...+e...&.#...'.
0D80: 65 B0 0E 01 08 52 09 80  F0 FF FF 7F F0 FF FF 7F  e....R..........
0D90: 33 30 30 38 1C 12 80 45  09 80 F0 FF FF 7F F0 FF  3008...E........
0DA0: FF 7F 33 30 30 39 01 80  1A F6 0E 1C 12 80 48 27  ..3009........H'
0DB0: 80 23 5C 80 28 80 29 80  5C 81 28 80 29 80 5C 82  .#\.(.).\.(.).\.
0DC0: 28 80 29 80 5C 83 28 80  29 80 9A 1C 07 80 9C 02  (.).\.(.).......
0DD0: 10 02 02 10 2A 80 80 ED  0D C5 2B 80 F8 FF FF 7F  ....*.....+.....
0DE0: F8 FF FF 7F 6D 61 69 6E  01 80 01 41 0E 02 02 10  ....main...A....
0DF0: 2C 80 80 09 0E C5 08 80  F8 FF FF 7F F8 FF FF 7F  ,...............
0E00: 6D 61 69 6E 01 80 01 41  0E 02 02 10 2D 80 80 25  main...A....-..%
0E10: 0E C5 2E 80 F8 FF FF 7F  F8 FF FF 7F 6D 61 69 6E  ............main
0E20: 01 80 01 41 0E 02 02 10  2F 80 80 41 0E C5 30 80  ...A..../..A..0.
0E30: F8 FF FF 7F F8 FF FF 7F  6D 61 69 6E 01 80 01 41  ........main...A
0E40: 0E 1C 31 80 1C 07 80 1A  17 0F 1C 12 80 52 09 80  ..1..........R..
0E50: F0 FF FF 7F F0 FF FF 7F  33 30 30 39 35 00 00 78  ........30095..x
0E60: 1C 2A 80 AB 0A 02 01 00  01 80 80 78 0E 5C 00 36  .*.........x.\.6
0E70: 80 5C 01 36 80 01 9E 0E  02 01 00 2A 80 80 8B 0E  .\.6.......*....
0E80: 5C 00 37 80 5C 01 37 80  01 9E 0E 02 01 00 2C 80  \.7.\.7.......,.
0E90: 80 9E 0E 5C 00 38 80 5C  01 38 80 01 9E 0E 9A 46  ...\.8.\.8.....F
0EA0: 00 45 1E 80 F0 FF FF 7F  F0 FF FF 7F 66 64 69 32  .E..........fdi2
0EB0: 01 80 21 00 45 1E 80 F0  FF FF 7F F0 FF FF 7F 66  ..!.E..........f
0EC0: 64 69 30 01 80 55 1E 80  F0 FF FF 7F F0 FF FF 7F  di0..U..........
0ED0: 66 64 69 30 1B 45 1E 80  F0 FF FF 7F F0 FF FF 7F  fdi0.E..........
0EE0: 66 64 6F 30 01 80 55 1E  80 F0 FF FF 7F F0 FF FF  fdo0..U.........
0EF0: 7F 66 64 6F 30 1B 45 1E  80 F0 FF FF 7F F0 FF FF  .fdo0.E.........
0F00: 7F 66 64 69 31 01 80 55  1E 80 F0 FF FF 7F F0 FF  .fdi1..U........
0F10: FF 7F 66 64 69 31 1B 45  1E 80 F0 FF FF 7F F0 FF  ..fdi1.E........
0F20: FF 7F 66 64 6F 31 01 80  55 1E 80 F0 FF FF 7F F0  ..fdo1..U.......
0F30: FF FF 7F 66 64 6F 31 1B  45 39 80 F0 FF FF 7F F0  ...fdo1.E9......
0F40: FF FF 7F 77 68 69 31 01  80 55 39 80 F0 FF FF 7F  ...whi1..U9.....
0F50: F0 FF FF 7F 77 68 69 31  1B 45 39 80 F0 FF FF 7F  ....whi1.E9.....
0F60: F0 FF FF 7F 77 68 6F 31  01 80 55 39 80 F0 FF FF  ....who1..U9....
0F70: 7F F0 FF FF 7F 77 68 6F  31 1B 45 39 80 F0 FF FF  .....who1.E9....
0F80: 7F F0 FF FF 7F 77 68 69  30 01 80 55 39 80 F0 FF  .....whi0..U9...
0F90: FF 7F F0 FF FF 7F 77 68  69 30 1B 45 39 80 F0 FF  ......whi0.E9...
0FA0: FF 7F F0 FF FF 7F 77 68  6F 30 01 80 55 39 80 F0  ......who0..U9..
0FB0: FF FF 7F F0 FF FF 7F 77  68 6F 30 1B 45 3A 80 F0  .......who0.E:..
0FC0: FF FF 7F F0 FF FF 7F 65  66 6F 6E 01 80 55 3A 80  .......efon..U:.
0FD0: F0 FF FF 7F F0 FF FF 7F  65 66 6F 6E 1B           ........efon.   
```

#### Opcodes

```
  0: 0x0AA5 [0x42] SET_CLI_EVENT_CANCEL_DATA()
  1: 0x0AA6 [0x03] ExtData[1]->WorkLocal[0] = Work_Zone[8]
  2: 0x0AAB [0x03] ExtData[1]->WorkLocal[1] = Work_Zone[9]
  3: 0x0AB0 [0x1A] CALL_SUBROUTINE(address=0x0F17)
  4: 0x0AB3 [0x46] CAMERA_CONTROL: Disable user control
  5: 0x0AB5 [0x38] SET_CLIENT_EVENT_MODE(mode=19*)
  6: 0x0AB8 [0x02] IF !(ExtData[1]->WorkLocal[1] == 0*) GOTO 0x0AC6
  7: 0x0AC0 [0x34] LOAD_UNLOAD_ZONE(zone_id=289*)
  8: 0x0AC3 [0x01] GOTO 0x0AE2
  9: 0x0AC6 [0x02] IF !(ExtData[1]->WorkLocal[1] == 1*) GOTO 0x0AD4
 10: 0x0ACE [0x34] LOAD_UNLOAD_ZONE(zone_id=290*)
 11: 0x0AD1 [0x01] GOTO 0x0AE2
 12: 0x0AD4 [0x02] IF !(ExtData[1]->WorkLocal[1] == 2*) GOTO 0x0AE2
 13: 0x0ADC [0x34] LOAD_UNLOAD_ZONE(zone_id=291*)
 14: 0x0ADF [0x01] GOTO 0x0AE2

SUBROUTINE_0AE2:
 15: 0x0AE2 [0x77] SET_EVENT_TIME_WEATHER(hour=12*, weather=1*)
 16: 0x0AE7 [0x1C] WAIT(15* ticks)
 17: 0x0AEA [0xAB] EventEntity->UnknownFlag = 1 // Enable unknown flag
 18: 0x0AEC [0x42] SET_CLI_EVENT_CANCEL_DATA()
 19: 0x0AED [0x1A] CALL_SUBROUTINE(address=0x0F17)
 20: 0x0AF0 [0x46] CAMERA_CONTROL: Disable user control
 21: 0x0AF2 [0x38] SET_CLIENT_EVENT_MODE(mode=19*)
 22: 0x0AF5 [0x29] REQ_SET_WAIT(priority=0x0B, entity_id=LocalPlayer, tag_num=0x09)
 23: 0x0AFC [0x4E] SET_ENTITY_HIDE_FLAG: Show LocalPlayer
 24: 0x0B02 [0x94] LocalPlayer->Render.Flags3 ^= 0x01
 25: 0x0B08 [0x27] REQ_SET(priority=0x10, entity_id=Moogle (ID: 17739877/0x010EB065), tag_num=0x01)
 26: 0x0B0F [0x27] REQ_SET(priority=0x10, entity_id=??? (ID: 17739875/0x010EB063), tag_num=0x01)
 27: 0x0B16 [0x27] REQ_SET(priority=0x10, entity_id=Unnamed NPC (ID: 17739876/0x010EB064), tag_num=0x01)
 28: 0x0B1D [0xBA] SET_ENTITY_POSITION(entity_id=LocalPlayer, pos_x=0.000*, pos_z=-1.000*, pos_y=0.000*, direction=0.0°*)
 29: 0x0B2A [0xBA] SET_ENTITY_POSITION(entity_id=Moogle (ID: 17739877/0x010EB065), pos_x=0.000*, pos_z=1.500*, pos_y=0.000*, direction=92.0°*)
 30: 0x0B37 [0xBA] SET_ENTITY_POSITION(entity_id=??? (ID: 17739875/0x010EB063), pos_x=0.000*, pos_z=1.500*, pos_y=0.000*, direction=0.0°*)
 31: 0x0B44 [0xBA] SET_ENTITY_POSITION(entity_id=Unnamed NPC (ID: 17739876/0x010EB064), pos_x=0.000*, pos_z=1.800*, pos_y=0.000*, direction=0.0°*)
 32: 0x0B51 [0x80] LOAD_WAIT(entity=LocalPlayer)
 33: 0x0B56 [0x80] LOAD_WAIT(entity=Moogle (ID: 17739877/0x010EB065))
 34: 0x0B5B [0x80] LOAD_WAIT(entity=??? (ID: 17739875/0x010EB063))
 35: 0x0B60 [0x80] LOAD_WAIT(entity=Unnamed NPC (ID: 17739876/0x010EB064))
 36: 0x0B65 [0x1C] WAIT(15* ticks)
 37: 0x0B68 [0x6B] STOP_AND_IDLE: Moogle (ID: 17739877/0x010EB065) stops current action and resets to idle (animation="idl0")
 38: 0x0B71 [0x4A] LocalPlayer looks at Moogle (ID: 17739877/0x010EB065)
 39: 0x0B7A [0x4A] Moogle (ID: 17739877/0x010EB065) looks at LocalPlayer
 40: 0x0B83 [0x6F] WAIT_FRAME_DELAY: Yield until WaitTime reaches zero
 41: 0x0B84 [0x76] CHECK_ENTITY_RENDER_FLAGS: Wait until LocalPlayer Render.Flags0 and Render.Flags3 conditions are met
 42: 0x0B89 [0x6F] WAIT_FRAME_DELAY: Yield until WaitTime reaches zero
 43: 0x0B8A [0x76] CHECK_ENTITY_RENDER_FLAGS: Wait until Moogle (ID: 17739877/0x010EB065) Render.Flags0 and Render.Flags3 conditions are met
 44: 0x0B8F [0x1C] WAIT(15* ticks)
 45: 0x0B92 [0x7B] Moogle (ID: 17739877/0x010EB065) stops talking
 46: 0x0B97 [0x1C] WAIT(30* ticks)
 47: 0x0B9A [0x5C] MUSIC_CONTROL: Set Idle (Day) music to song 126*
 48: 0x0B9E [0x5C] MUSIC_CONTROL: Set Idle (Night) music to song 126*
 49: 0x0BA2 [0x9A] WAIT_MUSIC_SERVER()
 50: 0x0BA3 [0x45] LOAD_SCHEDULED_TASK: Load scheduler "3001" with entities [LocalPlayer, LocalPlayer], work=[469*, 0*]
 51: 0x0BB4 [0x1A] CALL_SUBROUTINE(address=0x0EF6)
 52: 0x0BB7 [0x45] LOAD_SCHEDULED_TASK: Load scheduler "mok0" with entities [Moogle (ID: 17739877/0x010EB065), Moogle (ID: 17739877/0x010EB065)], work=[469*, 0*]
 53: 0x0BC8 [0x27] REQ_SET(priority=0x10, entity_id=Moogle (ID: 17739877/0x010EB065), tag_num=0x0D)
 54: 0x0BCF [0x2B] Moogle (ID: 17739877/0x010EB065) [6924*]:
    → "You've found them, kupo! I knew I could count on you. That's what I tell all my moogle buddies. "Why, my master is the boldest, brightest, bestest master of them all!" Now we just take these, and..."
 55: 0x0BD6 [0x23] WAIT_FOR_DIALOG_INTERACTION
 56: 0x0BD7 [0x27] REQ_SET(priority=0x10, entity_id=Moogle (ID: 17739877/0x010EB065), tag_num=0x0E)
 57: 0x0BDE [0x52] END_LOAD_SCHEDULER: End scheduler "3001" with entities [LocalPlayer, LocalPlayer], work=469*
 58: 0x0BED [0x45] LOAD_SCHEDULED_TASK: Load scheduler "3002" with entities [LocalPlayer, LocalPlayer], work=[469*, 0*]
 59: 0x0BFE [0x29] REQ_SET_WAIT(priority=0x10, entity_id=Moogle (ID: 17739877/0x010EB065), tag_num=0x1F)
 60: 0x0C05 [0x1A] CALL_SUBROUTINE(address=0x0F17)
 61: 0x0C08 [0x52] END_LOAD_SCHEDULER: End scheduler "3002" with entities [LocalPlayer, LocalPlayer], work=469*
 62: 0x0C17 [0x4E] SET_ENTITY_HIDE_FLAG: Hide Moogle (ID: 17739877/0x010EB065)
 63: 0x0C1D [0x1C] WAIT(60* ticks)
 64: 0x0C20 [0x45] LOAD_SCHEDULED_TASK: Load scheduler "3003" with entities [LocalPlayer, LocalPlayer], work=[469*, 0*]
 65: 0x0C31 [0x1A] CALL_SUBROUTINE(address=0x0EF6)
 66: 0x0C34 [0x1C] WAIT(30* ticks)
 67: 0x0C37 [0x27] REQ_SET(priority=0x10, entity_id=??? (ID: 17739875/0x010EB063), tag_num=0x04)
 68: 0x0C3E [0x1C] WAIT(100* ticks)
 69: 0x0C41 [0x27] REQ_SET(priority=0x10, entity_id=Unnamed NPC (ID: 17739876/0x010EB064), tag_num=0x04)
 70: 0x0C48 [0x29] REQ_SET_WAIT(priority=0x10, entity_id=??? (ID: 17739875/0x010EB063), tag_num=0x05)
 71: 0x0C4F [0x27] REQ_SET(priority=0x10, entity_id=??? (ID: 17739875/0x010EB063), tag_num=0x04)
 72: 0x0C56 [0x29] REQ_SET_WAIT(priority=0x10, entity_id=Unnamed NPC (ID: 17739876/0x010EB064), tag_num=0x05)
 73: 0x0C5D [0x29] REQ_SET_WAIT(priority=0x10, entity_id=??? (ID: 17739875/0x010EB063), tag_num=0x05)
 74: 0x0C64 [0x55] WAIT_LOAD_SCHEDULER: Wait for scheduler "3003" with entities [LocalPlayer, LocalPlayer], work=469*
 75: 0x0C73 [0x45] LOAD_SCHEDULED_TASK: Load scheduler "3103" with entities [LocalPlayer, LocalPlayer], work=[469*, 0*]
 76: 0x0C84 [0x2B] Moogle (ID: 17739877/0x010EB065) [6925*]:
    → "Kupoooooo`there you have it! Better than new! Why, a bevy of wild buffalo could barge in here this second and it wouldn't budge an ilm, I say!"
 77: 0x0C8B [0x23] WAIT_FOR_DIALOG_INTERACTION
 78: 0x0C8C [0x1A] CALL_SUBROUTINE(address=0x0F17)
 79: 0x0C8F [0x52] END_LOAD_SCHEDULER: End scheduler "3103" with entities [LocalPlayer, LocalPlayer], work=469*
 80: 0x0C9E [0x4E] SET_ENTITY_HIDE_FLAG: Show Moogle (ID: 17739877/0x010EB065)
 81: 0x0CA4 [0x1C] WAIT(60* ticks)
 82: 0x0CA7 [0x45] LOAD_SCHEDULED_TASK: Load scheduler "3004" with entities [LocalPlayer, LocalPlayer], work=[469*, 0*]
 83: 0x0CB8 [0x1A] CALL_SUBROUTINE(address=0x0EF6)
 84: 0x0CBB [0x29] REQ_SET_WAIT(priority=0x10, entity_id=Moogle (ID: 17739877/0x010EB065), tag_num=0x20)
 85: 0x0CC2 [0x52] END_LOAD_SCHEDULER: End scheduler "3004" with entities [LocalPlayer, LocalPlayer], work=469*
 86: 0x0CD1 [0x45] LOAD_SCHEDULED_TASK: Load scheduler "3005" with entities [LocalPlayer, LocalPlayer], work=[469*, 0*]
 87: 0x0CE2 [0x27] REQ_SET(priority=0x10, entity_id=Moogle (ID: 17739877/0x010EB065), tag_num=0x1C)
 88: 0x0CE9 [0x2B] Moogle (ID: 17739877/0x010EB065) [6926*]:
    → "Which reminds me, I went ahead and relayed the requisite reports to my manager at the MHMU."
 89: 0x0CF0 [0x23] WAIT_FOR_DIALOG_INTERACTION
 90: 0x0CF1 [0x52] END_LOAD_SCHEDULER: End scheduler "3005" with entities [LocalPlayer, LocalPlayer], work=469*
 91: 0x0D00 [0x45] LOAD_SCHEDULED_TASK: Load scheduler "3007" with entities [LocalPlayer, LocalPlayer], work=[469*, 0*]
 92: 0x0D11 [0x79] Moogle (ID: 17739877/0x010EB065) looks at LocalPlayer (Basic look)
 93: 0x0D1B [0x27] REQ_SET(priority=0x10, entity_id=Moogle (ID: 17739877/0x010EB065), tag_num=0x11)
 94: 0x0D22 [0x2B] Moogle (ID: 17739877/0x010EB065) [6927*]:
    → "But wouldn't you know it, kupo? It seems there's been a trifling bit of trouble at one of our Rent-a-Rooms in Jeuno as well!"
 95: 0x0D29 [0x23] WAIT_FOR_DIALOG_INTERACTION
 96: 0x0D2A [0x27] REQ_SET(priority=0x10, entity_id=Moogle (ID: 17739877/0x010EB065), tag_num=0x12)
 97: 0x0D31 [0x27] REQ_SET(priority=0x10, entity_id=Moogle (ID: 17739877/0x010EB065), tag_num=0x0D)
 98: 0x0D38 [0x2B] Moogle (ID: 17739877/0x010EB065) [6928*]:
    → "You know the one, right across from Durable Shields. Whatever could have gone wrong, kupo?"
 99: 0x0D3F [0x23] WAIT_FOR_DIALOG_INTERACTION
100: 0x0D40 [0x27] REQ_SET(priority=0x10, entity_id=Moogle (ID: 17739877/0x010EB065), tag_num=0x0E)
101: 0x0D47 [0x52] END_LOAD_SCHEDULER: End scheduler "3007" with entities [LocalPlayer, LocalPlayer], work=469*
102: 0x0D56 [0x45] LOAD_SCHEDULED_TASK: Load scheduler "3008" with entities [LocalPlayer, LocalPlayer], work=[469*, 0*]
103: 0x0D67 [0x7B] Moogle (ID: 17739877/0x010EB065) stops talking
104: 0x0D6C [0x27] REQ_SET(priority=0x10, entity_id=Moogle (ID: 17739877/0x010EB065), tag_num=0x07)
105: 0x0D73 [0x2B] Moogle (ID: 17739877/0x010EB065) [6929*]:
    → "Well, there's nothing to be learned lollygagging around here. Come, Master, we're off to Jeuno!"
106: 0x0D7A [0x23] WAIT_FOR_DIALOG_INTERACTION
107: 0x0D7B [0x1A] CALL_SUBROUTINE(address=0x0F17)
108: 0x0D7E [0x27] REQ_SET(priority=0x10, entity_id=Moogle (ID: 17739877/0x010EB065), tag_num=0x08)
109: 0x0D85 [0x52] END_LOAD_SCHEDULER: End scheduler "3008" with entities [LocalPlayer, LocalPlayer], work=469*
110: 0x0D94 [0x1C] WAIT(60* ticks)
111: 0x0D97 [0x45] LOAD_SCHEDULED_TASK: Load scheduler "3009" with entities [LocalPlayer, LocalPlayer], work=[469*, 0*]
112: 0x0DA8 [0x1A] CALL_SUBROUTINE(address=0x0EF6)
113: 0x0DAB [0x1C] WAIT(60* ticks)
114: 0x0DAE [0x48] [System] [6930*]:
    → "Little did anyone suspect that this would prove to be only the beginning of a harrowing nightmare unheard of in the annals of mooglekind..."
115: 0x0DB1 [0x23] WAIT_FOR_DIALOG_INTERACTION
116: 0x0DB2 [0x5C] MUSIC_CONTROL: Set Idle (Day) music to song 121*, volume=255*
117: 0x0DB8 [0x5C] MUSIC_CONTROL: Set Idle (Night) music to song 121*, volume=255*
118: 0x0DBE [0x5C] MUSIC_CONTROL: Set Combat (Solo) music to song 121*, volume=255*
119: 0x0DC4 [0x5C] MUSIC_CONTROL: Set Combat (Party) music to song 121*, volume=255*
120: 0x0DCA [0x9A] WAIT_MUSIC_SERVER()
121: 0x0DCB [0x1C] WAIT(30* ticks)
122: 0x0DCE [0x9C] STORE_CLIENT_LANGUAGE_ID(result=0x1002)
123: 0x0DD1 [0x02] IF !(Work_Zone[2] == 1*) GOTO 0x0DED
124: 0x0DD9 [0xC5] LOAD_SCHEDULED_TASK_ALT3: Load scheduler 0x80016E69 for entities [EventEntity, EventEntity], work=125*, param=24941
125: 0x0DEA [0x01] GOTO 0x0E41
126: 0x0DED [0x02] IF !(Work_Zone[2] == 2*) GOTO 0x0E09
127: 0x0DF5 [0xC5] LOAD_SCHEDULED_TASK_ALT3: Load scheduler 0x80016E69 for entities [EventEntity, EventEntity], work=126*, param=24941
128: 0x0E06 [0x01] GOTO 0x0E41
129: 0x0E09 [0x02] IF !(Work_Zone[2] == 3*) GOTO 0x0E25
130: 0x0E11 [0xC5] LOAD_SCHEDULED_TASK_ALT3: Load scheduler 0x80016E69 for entities [EventEntity, EventEntity], work=128*, param=24941
131: 0x0E22 [0x01] GOTO 0x0E41
132: 0x0E25 [0x02] IF !(Work_Zone[2] == 4*) GOTO 0x0E41
133: 0x0E2D [0xC5] LOAD_SCHEDULED_TASK_ALT3: Load scheduler 0x80016E69 for entities [EventEntity, EventEntity], work=127*, param=24941
134: 0x0E3E [0x01] GOTO 0x0E41

SUBROUTINE_0E41:
135: 0x0E41 [0x1C] WAIT(800* ticks)
136: 0x0E44 [0x1C] WAIT(30* ticks)
137: 0x0E47 [0x1A] CALL_SUBROUTINE(address=0x0F17)
138: 0x0E4A [0x1C] WAIT(60* ticks)
139: 0x0E4D [0x52] END_LOAD_SCHEDULER: End scheduler "3009" with entities [LocalPlayer, LocalPlayer], work=469*
140: 0x0E5C [0x35] LOAD_ZONE_NO_CLOSE(zone_id=ExtData[1]->WorkLocal[0])
141: 0x0E5F [0x78] ENABLE_GAME_TIMER_RESET_WEATHER()
142: 0x0E60 [0x1C] WAIT(1* ticks)
143: 0x0E63 [0xAB] EventEntity->UnknownFlag = 0 // Disable unknown flag
144: 0x0E65 [0x02] IF !(ExtData[1]->WorkLocal[1] == 0*) GOTO 0x0E78
145: 0x0E6D [0x5C] MUSIC_CONTROL: Set Idle (Day) music to song 107*
146: 0x0E71 [0x5C] MUSIC_CONTROL: Set Idle (Night) music to song 107*
147: 0x0E75 [0x01] GOTO 0x0E9E
148: 0x0E78 [0x02] IF !(ExtData[1]->WorkLocal[1] == 1*) GOTO 0x0E8B
149: 0x0E80 [0x5C] MUSIC_CONTROL: Set Idle (Day) music to song 152*
150: 0x0E84 [0x5C] MUSIC_CONTROL: Set Idle (Night) music to song 152*
151: 0x0E88 [0x01] GOTO 0x0E9E
152: 0x0E8B [0x02] IF !(ExtData[1]->WorkLocal[1] == 2*) GOTO 0x0E9E
153: 0x0E93 [0x5C] MUSIC_CONTROL: Set Idle (Day) music to song 151*
154: 0x0E97 [0x5C] MUSIC_CONTROL: Set Idle (Night) music to song 151*
155: 0x0E9B [0x01] GOTO 0x0E9E

SUBROUTINE_0E9E:
156: 0x0E9E [0x9A] WAIT_MUSIC_SERVER()
157: 0x0E9F [0x46] CAMERA_CONTROL: Restore default settings
158: 0x0EA1 [0x45] LOAD_SCHEDULED_TASK: Load scheduler "fdi2" with entities [LocalPlayer, LocalPlayer], work=[200*, 0*]
159: 0x0EB2 [0x21] END_EVENT
160: 0x0EB3 [0x00] END_REQSTACK()

SUBROUTINE_0EF6:
161: 0x0EF6 [0x45] LOAD_SCHEDULED_TASK: Load scheduler "fdi1" with entities [LocalPlayer, LocalPlayer], work=[200*, 0*]
162: 0x0F07 [0x55] WAIT_LOAD_SCHEDULER: Wait for scheduler "fdi1" with entities [LocalPlayer, LocalPlayer], work=200*
163: 0x0F16 [0x1B] RETURN

SUBROUTINE_0F17:
164: 0x0F17 [0x45] LOAD_SCHEDULED_TASK: Load scheduler "fdo1" with entities [LocalPlayer, LocalPlayer], work=[200*, 0*]
165: 0x0F28 [0x55] WAIT_LOAD_SCHEDULER: Wait for scheduler "fdo1" with entities [LocalPlayer, LocalPlayer], work=200*
166: 0x0F37 [0x1B] RETURN
```

#### Data or dead code:

```
# Dead code (unreachable instructions):
     0x0EB4 [0x45] LOAD_SCHEDULED_TASK: Load scheduler "fdi0" with entities [LocalPlayer, LocalPlayer], work=[200*, 0*]
     0x0EC5 [0x55] WAIT_LOAD_SCHEDULER: Wait for scheduler "fdi0" with entities [LocalPlayer, LocalPlayer], work=200*
     0x0ED4 [0x1B] RETURN
     0x0ED5 [0x45] LOAD_SCHEDULED_TASK: Load scheduler "fdo0" with entities [LocalPlayer, LocalPlayer], work=[200*, 0*]
     0x0EE6 [0x55] WAIT_LOAD_SCHEDULER: Wait for scheduler "fdo0" with entities [LocalPlayer, LocalPlayer], work=200*
     0x0EF5 [0x1B] RETURN
# Dead code (unreachable instructions):
     0x0F38 [0x45] LOAD_SCHEDULED_TASK: Load scheduler "whi1" with entities [LocalPlayer, LocalPlayer], work=[201*, 0*]
     0x0F49 [0x55] WAIT_LOAD_SCHEDULER: Wait for scheduler "whi1" with entities [LocalPlayer, LocalPlayer], work=201*
     0x0F58 [0x1B] RETURN
     0x0F59 [0x45] LOAD_SCHEDULED_TASK: Load scheduler "who1" with entities [LocalPlayer, LocalPlayer], work=[201*, 0*]
     0x0F6A [0x55] WAIT_LOAD_SCHEDULER: Wait for scheduler "who1" with entities [LocalPlayer, LocalPlayer], work=201*
     0x0F79 [0x1B] RETURN
     0x0F7A [0x45] LOAD_SCHEDULED_TASK: Load scheduler "whi0" with entities [LocalPlayer, LocalPlayer], work=[201*, 0*]
     0x0F8B [0x55] WAIT_LOAD_SCHEDULER: Wait for scheduler "whi0" with entities [LocalPlayer, LocalPlayer], work=201*
     0x0F9A [0x1B] RETURN
     0x0F9B [0x45] LOAD_SCHEDULED_TASK: Load scheduler "who0" with entities [LocalPlayer, LocalPlayer], work=[201*, 0*]
     0x0FAC [0x55] WAIT_LOAD_SCHEDULER: Wait for scheduler "who0" with entities [LocalPlayer, LocalPlayer], work=201*
     0x0FBB [0x1B] RETURN
     0x0FBC [0x45] LOAD_SCHEDULED_TASK: Load scheduler "efon" with entities [LocalPlayer, LocalPlayer], work=[215*, 0*]
     0x0FCD [0x55] WAIT_LOAD_SCHEDULER: Wait for scheduler "efon" with entities [LocalPlayer, LocalPlayer], work=215*
     0x0FDC [0x1B] RETURN
```
