# 17739917 - Ellard

## Common Data

| Field            | Value                    |
|------------------|--------------------------|
| Zone             | Bastok Markets (ID: 235) |
| Block Size       | 4672 bytes               |
| Total Events     | 3                        |
| References Count | 210                      |

## List of Events

| Event ID              | Entrypoint   |   Size |   Instructions |
|-----------------------|--------------|--------|----------------|
| [65535](#event-65535) | 0x0000       |      6 |              2 |
| [341](#event-341)     | 0x0006       |     17 |              7 |
| [340](#event-340)     | 0x0017       |   3778 |            797 |

## DAT References (imed_data)

|   Index | Hex Value   |   Dec Value |
|---------|-------------|-------------|
|       0 | 0x0003      |           3 |
|       1 | 0x1BEA      |        7146 |
|       2 | 0x1BD0      |        7120 |
|       3 | 0xFFFFFFFF  |  4294967295 |
|       4 | 0x0028      |          40 |
|       5 | 0x000A      |          10 |
|       6 | 0x1BD1      |        7121 |
|       7 | 0x40000000  |  1073741824 |
|       8 | 0x1BD8      |        7128 |
|       9 | 0x1BD9      |        7129 |
|      10 | 0x1BDA      |        7130 |
|      11 | 0x1BDB      |        7131 |
|      12 | 0x1BDC      |        7132 |
|      13 | 0x1BDD      |        7133 |
|      14 | 0x1BD5      |        7125 |
|      15 | 0x0001      |           1 |
|      16 | 0x0000      |           0 |
|      17 | 0x1BD2      |        7122 |
|      18 | 0x1BD3      |        7123 |
|      19 | 0x1BD4      |        7124 |
|      20 | 0x1BD6      |        7126 |
|      21 | 0x1BE1      |        7137 |
|      22 | 0x1BE0      |        7136 |
|      23 | 0x1BE2      |        7138 |
|      24 | 0x2710      |       10000 |
|      25 | 0x30D40     |      200000 |
|      26 | 0x13880     |       80000 |
|      27 | 0xC350      |       50000 |
|      28 | 0x3A98      |       15000 |
|      29 | 0x0002      |           2 |
|      30 | 0x0009      |           9 |
|      31 | 0x426A      |       17002 |
|      32 | 0x3773      |       14195 |
|      33 | 0x3840      |       14400 |
|      34 | 0x00BF      |         191 |
|      35 | 0x3C5C      |       15452 |
|      36 | 0x0154      |         340 |
|      37 | 0x0E56      |        3670 |
|      38 | 0x0D02      |        3330 |
|      39 | 0x39EE      |       14830 |
|      40 | 0x3838      |       14392 |
|      41 | 0x001C      |          28 |
|      42 | 0x3C54      |       15444 |
|      43 | 0x0155      |         341 |
|      44 | 0x3DCB      |       15819 |
|      45 | 0x0E58      |        3672 |
|      46 | 0x0D03      |        3331 |
|      47 | 0x39EF      |       14831 |
|      48 | 0x3839      |       14393 |
|      49 | 0x0099      |         153 |
|      50 | 0x3C55      |       15445 |
|      51 | 0x014E      |         334 |
|      52 | 0x3DCC      |       15820 |
|      53 | 0x0E4D      |        3661 |
|      54 | 0x0CFC      |        3324 |
|      55 | 0x3679      |       13945 |
|      56 | 0x383A      |       14394 |
|      57 | 0x0097      |         151 |
|      58 | 0x3C56      |       15446 |
|      59 | 0x014F      |         335 |
|      60 | 0x3DCD      |       15821 |
|      61 | 0x0E0B      |        3595 |
|      62 | 0x0CFD      |        3325 |
|      63 | 0x0004      |           4 |
|      64 | 0x367A      |       13946 |
|      65 | 0x383B      |       14395 |
|      66 | 0x00C6      |         198 |
|      67 | 0x3C57      |       15447 |
|      68 | 0x0151      |         337 |
|      69 | 0x3DCE      |       15822 |
|      70 | 0x0E51      |        3665 |
|      71 | 0x0CFF      |        3327 |
|      72 | 0x0005      |           5 |
|      73 | 0x39F0      |       14832 |
|      74 | 0x383C      |       14396 |
|      75 | 0x00CA      |         202 |
|      76 | 0x3C58      |       15448 |
|      77 | 0x0153      |         339 |
|      78 | 0x3DCF      |       15823 |
|      79 | 0x0E54      |        3668 |
|      80 | 0x0D01      |        3329 |
|      81 | 0x0006      |           6 |
|      82 | 0x367B      |       13947 |
|      83 | 0x383D      |       14397 |
|      84 | 0x008E      |         142 |
|      85 | 0x3C59      |       15449 |
|      86 | 0x0150      |         336 |
|      87 | 0x3DD0      |       15824 |
|      88 | 0x0E4F      |        3663 |
|      89 | 0x0CFE      |        3326 |
|      90 | 0x0007      |           7 |
|      91 | 0x42A2      |       17058 |
|      92 | 0x383E      |       14398 |
|      93 | 0x0086      |         134 |
|      94 | 0x3C5A      |       15450 |
|      95 | 0x0156      |         342 |
|      96 | 0x3DD1      |       15825 |
|      97 | 0x0E5A      |        3674 |
|      98 | 0x0D04      |        3332 |
|      99 | 0x0008      |           8 |
|     100 | 0x367C      |       13948 |
|     101 | 0x383F      |       14399 |
|     102 | 0x0089      |         137 |
|     103 | 0x3C5B      |       15451 |
|     104 | 0x0152      |         338 |
|     105 | 0x3DD2      |       15826 |
|     106 | 0x0E53      |        3667 |
|     107 | 0x0D00      |        3328 |
|     108 | 0x000B      |          11 |
|     109 | 0x0032      |          50 |
|     110 | 0x003C      |          60 |
|     111 | 0x0046      |          70 |
|     112 | 0x0050      |          80 |
|     113 | 0x0064      |         100 |
|     114 | 0x006E      |         110 |
|     115 | 0x000C      |          12 |
|     116 | 0x07FC      |        2044 |
|     117 | 0x1BE7      |        7143 |
|     118 | 0x108E      |        4238 |
|     119 | 0x108F      |        4239 |
|     120 | 0x1090      |        4240 |
|     121 | 0x1091      |        4241 |
|     122 | 0x1092      |        4242 |
|     123 | 0x1093      |        4243 |
|     124 | 0x1094      |        4244 |
|     125 | 0x1095      |        4245 |
|     126 | 0x1BE8      |        7144 |
|     127 | 0x00C8      |         200 |
|     128 | 0x196A      |        6506 |
|     129 | 0x196B      |        6507 |
|     130 | 0x196C      |        6508 |
|     131 | 0x196D      |        6509 |
|     132 | 0x196E      |        6510 |
|     133 | 0x196F      |        6511 |
|     134 | 0x1970      |        6512 |
|     135 | 0x1971      |        6513 |
|     136 | 0x1BE9      |        7145 |
|     137 | 0x01C2      |         450 |
|     138 | 0x05DC      |        1500 |
|     139 | 0x11170     |       70000 |
|     140 | 0x186A0     |      100000 |
|     141 | 0x249F0     |      150000 |
|     142 | 0x00FE      |         254 |
|     143 | 0x07B8      |        1976 |
|     144 | 0x7530      |       30000 |
|     145 | 0x07B9      |        1977 |
|     146 | 0x17318     |       95000 |
|     147 | 0x07BA      |        1978 |
|     148 | 0x1C138     |      115000 |
|     149 | 0x07BB      |        1979 |
|     150 | 0x4E20      |       20000 |
|     151 | 0x07C0      |        1984 |
|     152 | 0x9C40      |       40000 |
|     153 | 0x07C1      |        1985 |
|     154 | 0x07C2      |        1986 |
|     155 | 0x07C3      |        1987 |
|     156 | 0x07C4      |        1988 |
|     157 | 0x07C8      |        1992 |
|     158 | 0x07C9      |        1993 |
|     159 | 0x07CA      |        1994 |
|     160 | 0x07CB      |        1995 |
|     161 | 0x07CC      |        1996 |
|     162 | 0x07D0      |        2000 |
|     163 | 0x07D1      |        2001 |
|     164 | 0x07D2      |        2002 |
|     165 | 0x07D3      |        2003 |
|     166 | 0x07D8      |        2008 |
|     167 | 0x07D9      |        2009 |
|     168 | 0x07DA      |        2010 |
|     169 | 0x07DB      |        2011 |
|     170 | 0x07DC      |        2012 |
|     171 | 0x07E0      |        2016 |
|     172 | 0x07E1      |        2017 |
|     173 | 0x07E2      |        2018 |
|     174 | 0x07E3      |        2019 |
|     175 | 0x07E8      |        2024 |
|     176 | 0x07E9      |        2025 |
|     177 | 0x07EA      |        2026 |
|     178 | 0x07EB      |        2027 |
|     179 | 0x07F0      |        2032 |
|     180 | 0x07F1      |        2033 |
|     181 | 0x07F2      |        2034 |
|     182 | 0x07F3      |        2035 |
|     183 | 0x07F4      |        2036 |
|     184 | 0x07F5      |        2037 |
|     185 | 0x07F7      |        2039 |
|     186 | 0x07F8      |        2040 |
|     187 | 0x07F9      |        2041 |
|     188 | 0x07FA      |        2042 |
|     189 | 0x1F40      |        8000 |
|     190 | 0x07FB      |        2043 |
|     191 | 0x1BF2      |        7154 |
|     192 | 0x1BF3      |        7155 |
|     193 | 0x1BF0      |        7152 |
|     194 | 0x0018      |          24 |
|     195 | 0x0D80      |        3456 |
|     196 | 0x0019      |          25 |
|     197 | 0x1BE3      |        7139 |
|     198 | 0x1BE4      |        7140 |
|     199 | 0x001F      |          31 |
|     200 | 0x1BE6      |        7142 |
|     201 | 0x1BE5      |        7141 |
|     202 | 0x1BEE      |        7150 |
|     203 | 0x1BED      |        7149 |
|     204 | 0x1BEF      |        7151 |
|     205 | 0x1C26      |        7206 |
|     206 | 0x1C27      |        7207 |
|     207 | 0x1C2F      |        7215 |
|     208 | 0x1C30      |        7216 |
|     209 | 0x1C31      |        7217 |

## String References

- **7120**: Hello, [sir/ma'am]. I have been appointed by the Guildworkers' Union to manage the trading of manufactured crafts and the exchange of guild points.
- **7121**: However, to assure product quality, I cannot carry out any business with those who rank lower than novice.
- **7122**: I see that you currently have a trading contract with the [Fishermen's/Carpenters'/Blacksmiths'/Goldsmiths'/Weavers'/Tanners'/Boneworkers'/Alchemists'/Culinarians'] Guild. I'm sorry, but I cannot do any business with you.
- **7123**: You do have the option to terminate your contract with the [Fishermen's/Carpenters'/Blacksmiths'/Goldsmiths'/Weavers'/Tanners'/Boneworkers'/Alchemists'/Culinarians'] Guild and form one with us.
- **7124**: After signing a new contract, you will have to wait until the next delivery phase to trade Guildworkers' Union requested items.
- **7125**: Create a new contract with us? [Immediately./Not today.]
- **7126**: Are you certain? [I said, "Immediately."/On second thought...]
- **7128**: Our system works like this. We will ask you to provide us with a certain item depending on your craft skill rank. There is a set time limit (one day, Earth time) in which you may bring as many of the item as you can synthesize.
- **7129**: If you happen to create a high quality version of the requested item, we will be more than delighted to accept that as well.
- **7130**: Trading us these items will earn you "guild points" which can be later exchanged for other specialty goods--some of which are found exclusively at this guild.
- **7131**: The amount of guild points you will receive varies with the item requested, and there is a limit to how many points you can accumulate during the designated time frame. Trading items after you have reached the limit will result in no points gained.
- **7132**: When the time limit has expired, the item requested by the guild will change. It will also change in the event your craft skill rises.
- **7133**: I see that you have not formed a trading contract with any of the other guilds.
- **7136**: The current requested item is $2. You have $0 guild points accumulated.
- **7137**: Currently, no items are being requested by the guild. You have $0 guild points accumulated.
- **7138**: Is there something you need? [I'm just passing through./I would like to use my points./What are the current limits?/How does the trade system work?]
- **7139**: You have $0 more days (Vana'diel time) to provide us with the requested item.
- **7140**: Today (Vana'diel time) is the final day we will accept the requested item.
- **7141**: You can still receive up to $3 guild points by trading us the item before the time limit is up.
- **7142**: You are not eligible to receive guild points at this time.
- **7146**: Yes, this is what we are asking for. Good work, <Player>!
- **7149**: Trade $1 guild points for $0?
- **7150**: How many do you wish to trade for?
- **7151**: Trade $1 guild points for $2 $0 ?
- **7152**: Proceed with the transaction? (GP: $ ) [Yes./No.]
- **7154**: Exchange points for... [None of these./3($1)./$3($3)./$3($5)./$3($7)./$3($9)./$3($11)./$3($13).]
- **7155**: Trade $1 guild points for $3?
- **7206**: 3 is a wonderful new method of goldsmithing that allows you to enchant precious metals with the mysterious energy of black magic and anima.
- **7207**: 3 is a wonderful new method of goldsmithing that allows you to enchant precious metals with the mysterious energy of white magic and anima.
- **7215**: 3 is a wonderful new method of goldsmithing that allows you to shape softened ingots with a mandrel, making it easier to process more chains with one crystal.
- **7216**: 3 is a wonderful new method of goldsmithing that allows you to shape softened ingots on a workshop anvil, making it easier to process more sheets with one crystal.
- **7217**: 3 is a wonderful new method of goldsmithing that allows you to craft mechanical parts based on the same techniques used to build timepieces.

## Events

### Event 65535

#### Metadata

| Field        | Value   |
|--------------|---------|
| Entrypoint   | 0x0000  |
| Data Size    | 6 bytes |
| Instructions | 2       |

```
      00 01 02 03 04 05 06 07  08 09 0A 0B 0C 0D 0E 0F
      -- -- -- -- -- -- -- --  -- -- -- -- -- -- -- --
0000: 03 03 00 00 80 00                                 ......          
```

#### Opcodes

```
  0: 0x0000 [0x03] ExtData[1]->WorkLocal[3] = 3*
  1: 0x0005 [0x00] END_REQSTACK()
```

### Event 341

#### Metadata

| Field        | Value    |
|--------------|----------|
| Entrypoint   | 0x0006   |
| Data Size    | 17 bytes |
| Instructions | 7        |

```
      00 01 02 03 04 05 06 07  08 09 0A 0B 0C 0D 0E 0F
      -- -- -- -- -- -- -- --  -- -- -- -- -- -- -- --
0000:                   42 1E  F0 FF FF 7F 1D 01 80 23        B........#
0010: 03 01 10 02 10 21 00                              .....!.         
```

#### Opcodes

```
  0: 0x0006 [0x42] SET_CLI_EVENT_CANCEL_DATA()
  1: 0x0007 [0x1E] EventEntity looks at LocalPlayer and starts talking
  2: 0x000C [0x1D] PRINT_EVENT_MESSAGE(message_id=7146*)
    → "Yes, this is what we are asking for. Good work, <Player>!"
  3: 0x000F [0x23] WAIT_FOR_DIALOG_INTERACTION
  4: 0x0010 [0x03] Work_Zone[1] = Work_Zone[2]
  5: 0x0015 [0x21] END_EVENT
  6: 0x0016 [0x00] END_REQSTACK()
```

### Event 340

#### Metadata

| Field        | Value      |
|--------------|------------|
| Entrypoint   | 0x0017     |
| Data Size    | 3778 bytes |
| Instructions | 199        |

```
      00 01 02 03 04 05 06 07  08 09 0A 0B 0C 0D 0E 0F
      -- -- -- -- -- -- -- --  -- -- -- -- -- -- -- --
0010:                      03  09 00 02 10 03 0C 00 03         .........
0020: 10 03 0A 00 04 10 03 0D  00 05 10 03 04 00 06 10  ................
0030: 03 0E 00 07 10 03 0F 00  08 10 06 10 00 1E F0 FF  ................
0040: FF 7F 1D 02 80 23 02 0C  00 03 80 00 AF 00 02 04  .....#..........
0050: 00 04 80 03 73 00 03 06  10 04 00 08 06 10 05 80  ....s...........
0060: 15 06 10 05 80 1D 06 80  23 03 01 10 07 80 21 00  ........#.....!.
0070: 01 AC 00 1D 08 80 23 1D  09 80 23 1D 0A 80 23 1D  ......#...#...#.
0080: 0B 80 23 1D 0C 80 23 1D  0D 80 23 24 0E 80 0F 80  ..#...#...#$....
0090: 10 80 25 02 00 10 0F 80  00 A5 00 03 01 10 07 80  ..%.............
00A0: 21 00 01 A5 00 03 01 10  03 80 21 00 01 1D 01 02  !.........!.....
00B0: 03 10 03 00 01 1D 01 02  06 10 04 80 03 D7 00 08  ................
00C0: 06 10 05 80 15 06 10 05  80 1D 06 80 23 03 01 10  ............#...
00D0: 07 80 21 00 01 1D 01 1D  11 80 23 1D 12 80 23 48  ..!.......#...#H
00E0: 13 80 24 0E 80 0F 80 10  80 25 02 00 10 0F 80 00  ..$......%......
00F0: FC 00 03 01 10 07 80 21  00 01 FC 00 24 14 80 0F  .......!....$...
0100: 80 10 80 25 02 00 10 0F  80 00 16 01 03 01 10 07  ...%............
0110: 80 21 00 01 16 01 03 01  10 03 80 21 00 03 02 10  .!.........!....
0120: 09 00 03 04 10 0A 00 02  0A 00 10 80 00 36 01 1D  .............6..
0130: 15 80 23 01 3A 01 1D 16  80 23 03 01 10 07 80 03  ..#.:....#......
0140: 11 00 10 80 03 12 00 10  80 03 13 00 10 80 24 17  ..............$.
0150: 80 11 00 10 80 25 02 00  10 10 80 00 68 01 03 01  .....%......h...
0160: 10 07 80 21 00 01 EC 0D  02 00 10 0F 80 00 5B 0D  ...!..........[.
0170: 03 11 00 0F 80 06 0B 00  06 05 00 03 01 17 18 80  ................
0180: 03 03 17 19 80 03 05 17  1A 80 03 07 17 1B 80 03  ................
0190: 09 17 1C 80 02 03 00 10  80 80 E1 01 3C 05 00 0F  ............<...
01A0: 80 0F 80 3C 05 00 1D 80  0F 80 3C 05 00 1E 80 0F  ...<......<.....
01B0: 80 03 02 10 1F 80 03 03  10 20 80 03 04 10 21 80  ......... ....!.
01C0: 03 05 10 22 80 03 00 17  23 80 03 02 17 24 80 03  ..."....#....$..
01D0: 04 17 10 80 03 06 17 25  80 03 08 17 26 80 01 06  .......%....&...
01E0: 04 02 03 00 0F 80 80 20  02 3C 05 00 00 80 0F 80  ....... .<......
01F0: 03 02 10 10 80 03 03 10  27 80 03 04 10 28 80 03  ........'....(..
0200: 05 10 29 80 03 00 17 2A  80 03 02 17 2B 80 03 04  ..)....*....+...
0210: 17 2C 80 03 06 17 2D 80  03 08 17 2E 80 01 06 04  .,....-.........
0220: 02 03 00 1D 80 80 5F 02  3C 05 00 00 80 0F 80 03  ......_.<.......
0230: 02 10 10 80 03 03 10 2F  80 03 04 10 30 80 03 05  ......./....0...
0240: 10 31 80 03 00 17 32 80  03 02 17 33 80 03 04 17  .1....2....3....
0250: 34 80 03 06 17 35 80 03  08 17 36 80 01 06 04 02  4....5....6.....
0260: 03 00 00 80 80 9E 02 3C  05 00 00 80 0F 80 03 02  .......<........
0270: 10 10 80 03 03 10 37 80  03 04 10 38 80 03 05 10  ......7....8....
0280: 39 80 03 00 17 3A 80 03  02 17 3B 80 03 04 17 3C  9....:....;....<
0290: 80 03 06 17 3D 80 03 08  17 3E 80 01 06 04 02 03  ....=....>......
02A0: 00 3F 80 80 DD 02 3C 05  00 00 80 0F 80 03 02 10  .?....<.........
02B0: 10 80 03 03 10 40 80 03  04 10 41 80 03 05 10 42  .....@....A....B
02C0: 80 03 00 17 43 80 03 02  17 44 80 03 04 17 45 80  ....C....D....E.
02D0: 03 06 17 46 80 03 08 17  47 80 01 06 04 02 03 00  ...F....G.......
02E0: 48 80 80 1C 03 3C 05 00  00 80 0F 80 03 02 10 10  H....<..........
02F0: 80 03 03 10 49 80 03 04  10 4A 80 03 05 10 4B 80  ....I....J....K.
0300: 03 00 17 4C 80 03 02 17  4D 80 03 04 17 4E 80 03  ...L....M....N..
0310: 06 17 4F 80 03 08 17 50  80 01 06 04 02 03 00 51  ..O....P.......Q
0320: 80 80 5B 03 3C 05 00 00  80 0F 80 03 02 10 10 80  ..[.<...........
0330: 03 03 10 52 80 03 04 10  53 80 03 05 10 54 80 03  ...R....S....T..
0340: 00 17 55 80 03 02 17 56  80 03 04 17 57 80 03 06  ..U....V....W...
0350: 17 58 80 03 08 17 59 80  01 06 04 02 03 00 5A 80  .X....Y.......Z.
0360: 80 9A 03 3C 05 00 00 80  0F 80 03 02 10 10 80 03  ...<............
0370: 03 10 5B 80 03 04 10 5C  80 03 05 10 5D 80 03 00  ..[....\....]...
0380: 17 5E 80 03 02 17 5F 80  03 04 17 60 80 03 06 17  .^...._....`....
0390: 61 80 03 08 17 62 80 01  06 04 02 03 00 63 80 80  a....b.......c..
03A0: D9 03 3C 05 00 00 80 0F  80 03 02 10 10 80 03 03  ..<.............
03B0: 10 64 80 03 04 10 65 80  03 05 10 66 80 03 00 17  .d....e....f....
03C0: 67 80 03 02 17 68 80 03  04 17 69 80 03 06 17 6A  g....h....i....j
03D0: 80 03 08 17 6B 80 01 06  04 03 02 10 10 80 03 00  ....k...........
03E0: 17 10 80 03 03 10 10 80  03 04 10 10 80 03 05 10  ................
03F0: 10 80 03 02 17 10 80 03  04 17 10 80 03 06 17 10  ................
0400: 80 03 08 17 10 80 D4 03  00 80 02 10 D4 03 3F 80  ..............?.
0410: 00 17 D4 03 48 80 03 10  D4 03 51 80 04 10 D4 03  ....H.....Q.....
0420: 5A 80 05 10 D4 03 63 80  02 17 D4 03 1E 80 04 17  Z.....c.........
0430: D4 03 05 80 06 17 D4 03  6C 80 08 17 02 04 00 6D  ........l......m
0440: 80 03 4B 04 3C 05 00 3F  80 0F 80 02 04 00 6E 80  ..K.<..?......n.
0450: 03 5A 04 3C 05 00 48 80  0F 80 02 04 00 6F 80 03  .Z.<..H......o..
0460: 69 04 3C 05 00 1E 80 0F  80 02 04 00 70 80 03 7F  i.<.........p...
0470: 04 3C 05 00 51 80 0F 80  3C 05 00 05 80 0F 80 02  .<..Q...<.......
0480: 04 00 71 80 03 9C 04 3C  05 00 5A 80 0F 80 3C 05  ..q....<..Z...<.
0490: 00 63 80 0F 80 3C 05 00  6C 80 0F 80 02 04 00 72  .c...<..l......r
04A0: 80 03 AB 04 3C 05 00 1D  80 0F 80 02 0F 00 10 80  ....<...........
04B0: 00 BA 04 3C 05 00 73 80  0F 80 02 05 00 74 80 00  ...<..s......t..
04C0: C5 04 01 F3 04 D4 02 75  80 12 00 05 00 25 02 00  .......u.....%..
04D0: 10 10 80 00 E1 04 03 12  00 10 80 01 4E 01 01 55  ............N..U
04E0: 0D 02 00 10 0F 80 00 8F  06 03 12 00 0F 80 03 13  ................
04F0: 00 10 80 03 02 10 76 80  03 03 10 77 80 03 04 10  ......v....w....
0500: 78 80 03 05 10 79 80 03  06 10 7A 80 03 07 10 7B  x....y....z....{
0510: 80 03 08 10 7C 80 03 09  10 7D 80 D4 03 0F 80 02  ....|....}......
0520: 10 D4 03 1D 80 03 10 D4  03 00 80 04 10 D4 03 3F  ...............?
0530: 80 05 10 D4 03 48 80 06  10 D4 03 51 80 07 10 D4  .....H.....Q....
0540: 03 5A 80 08 10 D4 03 63  80 09 10 06 0B 00 D4 02  .Z.....c........
0550: 7E 80 13 00 10 80 25 02  00 10 10 80 00 6A 05 03  ~.....%......j..
0560: 13 00 10 80 01 70 01 01  81 06 02 00 10 0F 80 00  .....p..........
0570: 8C 05 03 06 00 02 10 03  08 00 7F 80 03 13 00 00  ................
0580: 10 03 14 00 0F 80 05 0B  00 01 81 06 02 00 10 1D  ................
0590: 80 00 AE 05 03 06 00 03  10 03 08 00 7F 80 03 13  ................
05A0: 00 00 10 03 14 00 0F 80  05 0B 00 01 81 06 02 00  ................
05B0: 10 00 80 00 D0 05 03 06  00 04 10 03 08 00 7F 80  ................
05C0: 03 13 00 00 10 03 14 00  0F 80 05 0B 00 01 81 06  ................
05D0: 02 00 10 3F 80 00 F2 05  03 06 00 05 10 03 08 00  ...?............
05E0: 7F 80 03 13 00 00 10 03  14 00 0F 80 05 0B 00 01  ................
05F0: 81 06 02 00 10 48 80 00  14 06 03 06 00 06 10 03  .....H..........
0600: 08 00 7F 80 03 13 00 00  10 03 14 00 0F 80 05 0B  ................
0610: 00 01 81 06 02 00 10 51  80 00 36 06 03 06 00 07  .......Q..6.....
0620: 10 03 08 00 7F 80 03 13  00 00 10 03 14 00 0F 80  ................
0630: 05 0B 00 01 81 06 02 00  10 5A 80 00 58 06 03 06  .........Z..X...
0640: 00 08 10 03 08 00 7F 80  03 13 00 00 10 03 14 00  ................
0650: 0F 80 05 0B 00 01 81 06  02 00 10 63 80 00 7A 06  ...........c..z.
0660: 03 06 00 09 10 03 08 00  7F 80 03 13 00 00 10 03  ................
0670: 14 00 0F 80 05 0B 00 01  81 06 03 01 10 07 80 21  ...............!
0680: 00 03 15 00 13 00 1A EE  0D 01 F3 04 01 55 0D 02  .............U..
0690: 00 10 1D 80 00 3A 08 03  12 00 1D 80 03 13 00 10  .....:..........
06A0: 80 03 02 10 80 80 03 03  10 81 80 03 04 10 82 80  ................
06B0: 03 05 10 83 80 03 06 10  84 80 03 07 10 85 80 03  ................
06C0: 08 10 86 80 03 09 10 87  80 D4 03 0F 80 02 10 D4  ................
06D0: 03 1D 80 03 10 D4 03 00  80 04 10 D4 03 3F 80 05  .............?..
06E0: 10 D4 03 48 80 06 10 D4  03 51 80 07 10 D4 03 5A  ...H.....Q.....Z
06F0: 80 08 10 D4 03 63 80 09  10 D4 02 88 80 13 00 10  .....c..........
0700: 80 25 02 00 10 10 80 00  15 07 03 13 00 10 80 01  .%..............
0710: 70 01 01 2C 08 02 00 10  0F 80 00 37 07 03 06 00  p..,.......7....
0720: 02 10 03 08 00 89 80 03  14 00 1D 80 03 13 00 00  ................
0730: 10 05 0B 00 01 2C 08 02  00 10 1D 80 00 59 07 03  .....,.......Y..
0740: 06 00 03 10 03 08 00 89  80 03 14 00 1D 80 03 13  ................
0750: 00 00 10 05 0B 00 01 2C  08 02 00 10 00 80 00 7B  .......,.......{
0760: 07 03 06 00 04 10 03 08  00 89 80 03 14 00 1D 80  ................
0770: 03 13 00 00 10 05 0B 00  01 2C 08 02 00 10 3F 80  .........,....?.
0780: 00 9D 07 03 06 00 05 10  03 08 00 89 80 03 14 00  ................
0790: 1D 80 03 13 00 00 10 05  0B 00 01 2C 08 02 00 10  ...........,....
07A0: 48 80 00 BF 07 03 06 00  06 10 03 08 00 89 80 03  H...............
07B0: 14 00 1D 80 03 13 00 00  10 05 0B 00 01 2C 08 02  .............,..
07C0: 00 10 51 80 00 E1 07 03  06 00 07 10 03 08 00 89  ..Q.............
07D0: 80 03 14 00 1D 80 03 13  00 00 10 05 0B 00 01 2C  ...............,
07E0: 08 02 00 10 5A 80 00 03  08 03 06 00 08 10 03 08  ....Z...........
07F0: 00 89 80 03 14 00 1D 80  03 13 00 00 10 05 0B 00  ................
0800: 01 2C 08 02 00 10 63 80  00 25 08 03 06 00 09 10  .,....c..%......
0810: 03 08 00 89 80 03 14 00  1D 80 03 13 00 00 10 05  ................
0820: 0B 00 01 2C 08 03 01 10  07 80 21 00 03 15 00 13  ...,......!.....
0830: 00 1A EE 0D 01 A1 06 01  55 0D 02 00 10 00 80 00  ........U.......
0840: 64 08 03 12 00 00 80 03  14 00 00 80 03 06 00 02  d...............
0850: 10 03 08 00 8A 80 05 0B  00 03 15 00 10 80 1A EE  ................
0860: 0D 01 55 0D 02 00 10 3F  80 00 8B 08 03 12 00 3F  ..U....?.......?
0870: 80 03 14 00 3F 80 03 06  00 00 17 03 08 00 18 80  ....?...........
0880: 03 15 00 10 80 1A EE 0D  01 55 0D 02 00 10 48 80  .........U....H.
0890: 00 B2 08 03 12 00 48 80  03 14 00 48 80 03 06 00  ......H....H....
08A0: 03 10 03 08 00 8B 80 03  15 00 10 80 1A EE 0D 01  ................
08B0: 55 0D 02 00 10 51 80 00  D9 08 03 12 00 51 80 03  U....Q.......Q..
08C0: 14 00 51 80 03 06 00 04  10 03 08 00 8C 80 03 15  ..Q.............
08D0: 00 10 80 1A EE 0D 01 55  0D 02 00 10 5A 80 00 00  .......U....Z...
08E0: 09 03 12 00 5A 80 03 14  00 5A 80 03 06 00 05 10  ....Z....Z......
08F0: 03 08 00 8D 80 03 15 00  10 80 1A EE 0D 01 55 0D  ..............U.
0900: 02 00 10 63 80 00 27 09  03 12 00 63 80 03 14 00  ...c..'....c....
0910: 63 80 03 06 00 02 17 03  08 00 19 80 03 15 00 10  c...............
0920: 80 1A EE 0D 01 55 0D 02  00 10 1E 80 00 4E 09 03  .....U.......N..
0930: 12 00 1E 80 03 14 00 1E  80 03 06 00 04 17 03 08  ................
0940: 00 1A 80 03 15 00 10 80  1A EE 0D 01 55 0D 02 00  ............U...
0950: 10 05 80 00 78 09 03 12  00 05 80 03 14 00 05 80  ....x...........
0960: 03 06 00 06 17 03 08 00  1B 80 05 0B 00 03 15 00  ................
0970: 10 80 1A EE 0D 01 55 0D  02 00 10 6C 80 00 A2 09  ......U....l....
0980: 03 12 00 6C 80 03 14 00  6C 80 03 06 00 08 17 03  ...l....l.......
0990: 08 00 1C 80 05 0B 00 03  15 00 10 80 1A EE 0D 01  ................
09A0: 55 0D 02 00 10 73 80 00  55 0D 03 12 00 73 80 03  U....s..U....s..
09B0: 13 00 10 80 03 14 00 73  80 02 0F 00 10 80 00 C4  .......s........
09C0: 09 01 70 01 03 05 00 8E  80 03 00 00 0F 00 10 00  ..p.............
09D0: 00 0F 80 0F 05 00 00 00  06 02 10 06 03 10 06 04  ................
09E0: 10 06 05 10 06 06 10 06  07 10 06 08 10 06 09 10  ................
09F0: 06 00 17 06 01 17 06 02  17 06 03 17 06 04 17 06  ................
0A00: 05 17 02 03 00 10 80 80  35 0A 03 02 10 8F 80 03  ........5.......
0A10: 03 10 90 80 03 04 10 91  80 03 05 10 92 80 03 06  ................
0A20: 10 93 80 03 07 10 94 80  03 08 10 95 80 03 09 10  ................
0A30: 96 80 01 27 0C 02 03 00  0F 80 80 72 0A 03 02 10  ...'.......r....
0A40: 97 80 03 03 10 98 80 03  04 10 99 80 03 05 10 98  ................
0A50: 80 03 06 10 9A 80 03 07  10 18 80 03 08 10 9B 80  ................
0A60: 03 09 10 18 80 03 00 17  9C 80 03 01 17 96 80 01  ................
0A70: 27 0C 02 03 00 1D 80 80  AF 0A 03 02 10 9D 80 03  '...............
0A80: 03 10 98 80 03 04 10 9E  80 03 05 10 98 80 03 06  ................
0A90: 10 9F 80 03 07 10 18 80  03 08 10 A0 80 03 09 10  ................
0AA0: 18 80 03 00 17 A1 80 03  01 17 96 80 01 27 0C 02  .............'..
0AB0: 03 00 00 80 80 F6 0A 03  02 10 A2 80 03 03 10 98  ................
0AC0: 80 03 04 10 A3 80 03 05  10 98 80 03 06 10 9F 80  ................
0AD0: 03 07 10 18 80 03 08 10  A0 80 03 09 10 18 80 03  ................
0AE0: 00 17 A4 80 03 01 17 18  80 03 02 17 A5 80 03 03  ................
0AF0: 17 96 80 01 27 0C 02 03  00 3F 80 80 33 0B 03 02  ....'....?..3...
0B00: 10 A6 80 03 03 10 98 80  03 04 10 A7 80 03 05 10  ................
0B10: 98 80 03 06 10 A8 80 03  07 10 18 80 03 08 10 A9  ................
0B20: 80 03 09 10 18 80 03 00  17 AA 80 03 01 17 96 80  ................
0B30: 01 27 0C 02 03 00 48 80  80 66 0B 03 02 10 AB 80  .'....H..f......
0B40: 03 03 10 98 80 03 04 10  AC 80 03 05 10 98 80 03  ................
0B50: 06 10 AD 80 03 07 10 18  80 03 08 10 AE 80 03 09  ................
0B60: 10 96 80 01 27 0C 02 03  00 51 80 80 99 0B 03 02  ....'....Q......
0B70: 10 AF 80 03 03 10 98 80  03 04 10 B0 80 03 05 10  ................
0B80: 98 80 03 06 10 B1 80 03  07 10 18 80 03 08 10 B2  ................
0B90: 80 03 09 10 96 80 01 27  0C 02 03 00 5A 80 80 EA  .......'....Z...
0BA0: 0B 03 02 10 B3 80 03 03  10 96 80 03 04 10 B4 80  ................
0BB0: 03 05 10 98 80 03 06 10  B5 80 03 07 10 98 80 03  ................
0BC0: 08 10 B6 80 03 09 10 18  80 03 00 17 B7 80 03 01  ................
0BD0: 17 96 80 03 02 17 B8 80  03 03 17 18 80 03 04 17  ................
0BE0: B9 80 03 05 17 96 80 01  27 0C 02 03 00 63 80 80  ........'....c..
0BF0: 27 0C 03 02 10 BA 80 03  03 10 90 80 03 04 10 BB  '...............
0C00: 80 03 05 10 90 80 03 06  10 BC 80 03 07 10 BD 80  ................
0C10: 03 08 10 BE 80 03 09 10  90 80 03 00 17 74 80 03  .............t..
0C20: 01 17 96 80 01 27 0C 05  10 00 24 BF 80 13 00 05  .....'....$.....
0C30: 00 25 02 00 10 10 80 00  45 0C 03 13 00 10 80 01  .%......E.......
0C40: 70 01 01 FB 0C 02 00 10  0F 80 00 55 0C 03 13 00  p..........U....
0C50: 0F 80 01 FB 0C 02 00 10  1D 80 00 6F 0C 03 13 00  ...........o....
0C60: 1D 80 03 02 10 04 10 03  03 10 05 10 01 FB 0C 02  ................
0C70: 00 10 00 80 00 89 0C 03  13 00 00 80 03 02 10 06  ................
0C80: 10 03 03 10 07 10 01 FB  0C 02 00 10 3F 80 00 A3  ............?...
0C90: 0C 03 13 00 3F 80 03 02  10 08 10 03 03 10 09 10  ....?...........
0CA0: 01 FB 0C 02 00 10 48 80  00 BD 0C 03 13 00 48 80  ......H.......H.
0CB0: 03 02 10 00 17 03 03 10  01 17 01 FB 0C 02 00 10  ................
0CC0: 51 80 00 D7 0C 03 13 00  51 80 03 02 10 02 17 03  Q.......Q.......
0CD0: 03 10 03 17 01 FB 0C 02  00 10 5A 80 00 F1 0C 03  ..........Z.....
0CE0: 13 00 5A 80 03 02 10 04  17 03 03 10 05 17 01 FB  ..Z.............
0CF0: 0C 03 02 10 10 80 03 03  10 10 80 02 02 10 10 80  ................
0D00: 01 4F 0D 1A 8D 0E 03 18  17 09 00 1D C0 80 23 24  .O............#$
0D10: C1 80 0F 80 10 80 25 02  00 10 10 80 00 4F 0D 03  ......%......O..
0D20: 01 10 14 00 40 48 80 63  80 01 10 13 00 40 1E 80  ....@H.c.....@..
0D30: C2 80 01 10 0F 80 43 00  43 01 02 09 10 10 80 01  ......C.C.......
0D40: 4C 0D 03 09 00 02 10 03  0F 00 08 10 01 4F 0D 01  L............O..
0D50: B9 09 01 55 0D 01 70 01  01 EC 0D 02 00 10 1D 80  ...U..p.........
0D60: 00 C5 0D 03 11 00 1D 80  83 00 00 15 00 00 C3 80  ................
0D70: 3F 00 00 00 00 C4 80 03  02 10 C4 80 08 02 10 00  ?...............
0D80: 00 02 02 10 10 80 02 90  0D 1D C5 80 23 01 94 0D  ............#...
0D90: 1D C6 80 23 3E 0E 00 C7  80 A2 0D 1D C8 80 23 01  ...#>.........#.
0DA0: BF 0D 03 05 10 0D 00 08  05 10 0E 00 02 05 10 10  ................
0DB0: 80 02 BB 0D 1D C9 80 23  01 BF 0D 1D C8 80 23 01  .......#......#.
0DC0: 4E 01 01 EC 0D 02 00 10  00 80 00 EC 0D 03 11 00  N...............
0DD0: 00 80 1D 08 80 23 1D 09  80 23 1D 0A 80 23 1D 0B  .....#...#...#..
0DE0: 80 23 1D 0C 80 23 01 4E  01 01 EC 0D 21 00 03 02  .#...#.N....!...
0DF0: 10 06 00 03 03 10 08 00  93 02 10 02 0B 00 10 80  ................
0E00: 01 14 0E 1D CA 80 23 71  12 0F 80 3F 80 71 13 07  ......#q...?.q..
0E10: 00 01 19 0E 03 07 00 0F  80 02 07 00 10 80 02 89  ................
0E20: 0E 14 08 00 07 00 03 03  10 08 00 03 04 10 07 00  ................
0E30: 02 07 00 0F 80 00 3F 0E  1D CB 80 23 01 43 0E 1D  ......?....#.C..
0E40: CC 80 23 93 10 80 03 18  17 09 00 24 C1 80 0F 80  ..#........$....
0E50: 10 80 25 02 00 10 10 80  00 86 0E 03 01 10 14 00  ..%.............
0E60: 40 48 80 63 80 01 10 15  00 40 1E 80 C2 80 01 10  @H.c.....@......
0E70: 07 00 43 00 43 01 02 09  10 10 80 01 83 0E 03 09  ..C.C...........
0E80: 00 02 10 01 86 0E 01 8C  0E 93 10 80 1B 02 02 10  ................
0E90: A3 80 80 9C 0E 1D CD 80  23 01 D8 0E 02 02 10 A2  ........#.......
0EA0: 80 80 AB 0E 1D CE 80 23  01 D8 0E 02 02 10 9F 80  .......#........
0EB0: 80 BA 0E 1D CF 80 23 01  D8 0E 02 02 10 A0 80 80  ......#.........
0EC0: C9 0E 1D D0 80 23 01 D8  0E 02 02 10 A4 80 80 D8  .....#..........
0ED0: 0E 1D D1 80 23 01 D8 0E  1B                       ....#....       
```

#### Opcodes

```
  0: 0x0017 [0x03] ExtData[1]->WorkLocal[9] = Work_Zone[2]
  1: 0x001C [0x03] ExtData[1]->WorkLocal[12] = Work_Zone[3]
  2: 0x0021 [0x03] ExtData[1]->WorkLocal[10] = Work_Zone[4]
  3: 0x0026 [0x03] ExtData[1]->WorkLocal[13] = Work_Zone[5]
  4: 0x002B [0x03] ExtData[1]->WorkLocal[4] = Work_Zone[6]
  5: 0x0030 [0x03] ExtData[1]->WorkLocal[14] = Work_Zone[7]
  6: 0x0035 [0x03] ExtData[1]->WorkLocal[15] = Work_Zone[8]
  7: 0x003A [0x06] ExtData[1]->WorkLocal[16] = 0
  8: 0x003D [0x1E] EventEntity looks at LocalPlayer and starts talking
  9: 0x0042 [0x1D] PRINT_EVENT_MESSAGE(message_id=7120*)
    → "Hello, [sir/ma'am]. I have been appointed by the Guildworkers' Union to manage the trading of manufactured crafts and the exchange of guild points."
 10: 0x0045 [0x23] WAIT_FOR_DIALOG_INTERACTION
 11: 0x0046 [0x02] IF !(ExtData[1]->WorkLocal[12] == 4294967295*) GOTO 0x00AF
 12: 0x004E [0x02] IF !(ExtData[1]->WorkLocal[4] >= 40*) GOTO 0x0073
 13: 0x0056 [0x03] Work_Zone[6] = ExtData[1]->WorkLocal[4]
 14: 0x005B [0x08] Work_Zone[6] -= 10*
 15: 0x0060 [0x15] Work_Zone[6] /= 10*
 16: 0x0065 [0x1D] PRINT_EVENT_MESSAGE(message_id=7121*)
    → "However, to assure product quality, I cannot carry out any business with those who rank lower than novice."
 17: 0x0068 [0x23] WAIT_FOR_DIALOG_INTERACTION
 18: 0x0069 [0x03] Work_Zone[1] = 1073741824*
 19: 0x006E [0x21] END_EVENT
 20: 0x006F [0x00] END_REQSTACK()

SUBROUTINE_00A5:
 21: 0x00A5 [0x03] Work_Zone[1] = 4294967295*
 22: 0x00AA [0x21] END_EVENT
 23: 0x00AB [0x00] END_REQSTACK()

SUBROUTINE_00FC:
 24: 0x00FC [0x24] CREATE_DIALOG(message_id=7126*, default_option=1*, option_flags=0*)
    → "Are you certain? [I said, "Immediately."/On second thought...]"
 25: 0x0103 [0x25] WAIT_DIALOG_SELECT()
 26: 0x0104 [0x02] IF !(Work_Zone[0] == 1*) GOTO 0x0116
 27: 0x010C [0x03] Work_Zone[1] = 1073741824*
 28: 0x0111 [0x21] END_EVENT
 29: 0x0112 [0x00] END_REQSTACK()

SUBROUTINE_0116:
 30: 0x0116 [0x03] Work_Zone[1] = 4294967295*
 31: 0x011B [0x21] END_EVENT
 32: 0x011C [0x00] END_REQSTACK()

SUBROUTINE_011D:
 33: 0x011D [0x03] Work_Zone[2] = ExtData[1]->WorkLocal[9]
 34: 0x0122 [0x03] Work_Zone[4] = ExtData[1]->WorkLocal[10]
 35: 0x0127 [0x02] IF !(ExtData[1]->WorkLocal[10] == 0*) GOTO 0x0136
 36: 0x012F [0x1D] PRINT_EVENT_MESSAGE(message_id=7137*)
    → "Currently, no items are being requested by the guild. You have $0 guild points accumulated."
 37: 0x0132 [0x23] WAIT_FOR_DIALOG_INTERACTION
 38: 0x0133 [0x01] GOTO 0x013A
 39: 0x0136 [0x1D] PRINT_EVENT_MESSAGE(message_id=7136*)
    → "The current requested item is $2. You have $0 guild points accumulated."
 40: 0x0139 [0x23] WAIT_FOR_DIALOG_INTERACTION

SUBROUTINE_013A:
 41: 0x013A [0x03] Work_Zone[1] = 1073741824*
 42: 0x013F [0x03] ExtData[1]->WorkLocal[17] = 0*
 43: 0x0144 [0x03] ExtData[1]->WorkLocal[18] = 0*
 44: 0x0149 [0x03] ExtData[1]->WorkLocal[19] = 0*

SUBROUTINE_014E:
 45: 0x014E [0x24] CREATE_DIALOG(message_id=7138*, default_option=ExtData[1]->WorkLocal[17], option_flags=0*)
    → "Is there something you need? [I'm just passing through./I would like to use my points./What are the current limits?/How does the trade system work?]"
 46: 0x0155 [0x25] WAIT_DIALOG_SELECT()
 47: 0x0156 [0x02] IF !(Work_Zone[0] == 0*) GOTO 0x0168
 48: 0x015E [0x03] Work_Zone[1] = 1073741824*
 49: 0x0163 [0x21] END_EVENT
 50: 0x0164 [0x00] END_REQSTACK()

SUBROUTINE_0170:
 51: 0x0170 [0x03] ExtData[1]->WorkLocal[17] = 1*
 52: 0x0175 [0x06] ExtData[1]->WorkLocal[11] = 0
 53: 0x0178 [0x06] ExtData[1]->WorkLocal[5] = 0
 54: 0x017B [0x03] Work_Zone_1700[1] = 10000*
 55: 0x0180 [0x03] Work_Zone_1700[3] = 200000*
 56: 0x0185 [0x03] Work_Zone_1700[5] = 80000*
 57: 0x018A [0x03] Work_Zone_1700[7] = 50000*
 58: 0x018F [0x03] Work_Zone_1700[9] = 15000*
 59: 0x0194 [0x02] IF !(ExtData[1]->WorkLocal[3] == 0*) GOTO 0x01E1
 60: 0x019C [0x3C] SET_BIT_FLAG_CONDITIONAL(target_work_offset=ExtData[1]->WorkLocal[5], bit_index_work_offset=1*, condition_work_offset=1*)
 61: 0x01A3 [0x3C] SET_BIT_FLAG_CONDITIONAL(target_work_offset=ExtData[1]->WorkLocal[5], bit_index_work_offset=2*, condition_work_offset=1*)
 62: 0x01AA [0x3C] SET_BIT_FLAG_CONDITIONAL(target_work_offset=ExtData[1]->WorkLocal[5], bit_index_work_offset=9*, condition_work_offset=1*)
 63: 0x01B1 [0x03] Work_Zone[2] = 17002*
 64: 0x01B6 [0x03] Work_Zone[3] = 14195*
 65: 0x01BB [0x03] Work_Zone[4] = 14400*
 66: 0x01C0 [0x03] Work_Zone[5] = 191*
 67: 0x01C5 [0x03] Work_Zone_1700[0] = 15452*
 68: 0x01CA [0x03] Work_Zone_1700[2] = 340*
 69: 0x01CF [0x03] Work_Zone_1700[4] = 0*
 70: 0x01D4 [0x03] Work_Zone_1700[6] = 3670*
 71: 0x01D9 [0x03] Work_Zone_1700[8] = 3330*
 72: 0x01DE [0x01] GOTO 0x0406
 73: 0x01E1 [0x02] IF !(ExtData[1]->WorkLocal[3] == 1*) GOTO 0x0220
 74: 0x01E9 [0x3C] SET_BIT_FLAG_CONDITIONAL(target_work_offset=ExtData[1]->WorkLocal[5], bit_index_work_offset=3*, condition_work_offset=1*)
 75: 0x01F0 [0x03] Work_Zone[2] = 0*
 76: 0x01F5 [0x03] Work_Zone[3] = 14830*
 77: 0x01FA [0x03] Work_Zone[4] = 14392*
 78: 0x01FF [0x03] Work_Zone[5] = 28*
 79: 0x0204 [0x03] Work_Zone_1700[0] = 15444*
 80: 0x0209 [0x03] Work_Zone_1700[2] = 341*
 81: 0x020E [0x03] Work_Zone_1700[4] = 15819*
 82: 0x0213 [0x03] Work_Zone_1700[6] = 3672*
 83: 0x0218 [0x03] Work_Zone_1700[8] = 3331*
 84: 0x021D [0x01] GOTO 0x0406
 85: 0x0220 [0x02] IF !(ExtData[1]->WorkLocal[3] == 2*) GOTO 0x025F
 86: 0x0228 [0x3C] SET_BIT_FLAG_CONDITIONAL(target_work_offset=ExtData[1]->WorkLocal[5], bit_index_work_offset=3*, condition_work_offset=1*)
 87: 0x022F [0x03] Work_Zone[2] = 0*
 88: 0x0234 [0x03] Work_Zone[3] = 14831*
 89: 0x0239 [0x03] Work_Zone[4] = 14393*
 90: 0x023E [0x03] Work_Zone[5] = 153*
 91: 0x0243 [0x03] Work_Zone_1700[0] = 15445*
 92: 0x0248 [0x03] Work_Zone_1700[2] = 334*
 93: 0x024D [0x03] Work_Zone_1700[4] = 15820*
 94: 0x0252 [0x03] Work_Zone_1700[6] = 3661*
 95: 0x0257 [0x03] Work_Zone_1700[8] = 3324*
 96: 0x025C [0x01] GOTO 0x0406
 97: 0x025F [0x02] IF !(ExtData[1]->WorkLocal[3] == 3*) GOTO 0x029E
 98: 0x0267 [0x3C] SET_BIT_FLAG_CONDITIONAL(target_work_offset=ExtData[1]->WorkLocal[5], bit_index_work_offset=3*, condition_work_offset=1*)
 99: 0x026E [0x03] Work_Zone[2] = 0*
100: 0x0273 [0x03] Work_Zone[3] = 13945*
101: 0x0278 [0x03] Work_Zone[4] = 14394*
102: 0x027D [0x03] Work_Zone[5] = 151*
103: 0x0282 [0x03] Work_Zone_1700[0] = 15446*
104: 0x0287 [0x03] Work_Zone_1700[2] = 335*
105: 0x028C [0x03] Work_Zone_1700[4] = 15821*
106: 0x0291 [0x03] Work_Zone_1700[6] = 3595*
107: 0x0296 [0x03] Work_Zone_1700[8] = 3325*
108: 0x029B [0x01] GOTO 0x0406
109: 0x029E [0x02] IF !(ExtData[1]->WorkLocal[3] == 4*) GOTO 0x02DD
110: 0x02A6 [0x3C] SET_BIT_FLAG_CONDITIONAL(target_work_offset=ExtData[1]->WorkLocal[5], bit_index_work_offset=3*, condition_work_offset=1*)
111: 0x02AD [0x03] Work_Zone[2] = 0*
112: 0x02B2 [0x03] Work_Zone[3] = 13946*
113: 0x02B7 [0x03] Work_Zone[4] = 14395*
114: 0x02BC [0x03] Work_Zone[5] = 198*
115: 0x02C1 [0x03] Work_Zone_1700[0] = 15447*
116: 0x02C6 [0x03] Work_Zone_1700[2] = 337*
117: 0x02CB [0x03] Work_Zone_1700[4] = 15822*
118: 0x02D0 [0x03] Work_Zone_1700[6] = 3665*
119: 0x02D5 [0x03] Work_Zone_1700[8] = 3327*
120: 0x02DA [0x01] GOTO 0x0406
121: 0x02DD [0x02] IF !(ExtData[1]->WorkLocal[3] == 5*) GOTO 0x031C
122: 0x02E5 [0x3C] SET_BIT_FLAG_CONDITIONAL(target_work_offset=ExtData[1]->WorkLocal[5], bit_index_work_offset=3*, condition_work_offset=1*)
123: 0x02EC [0x03] Work_Zone[2] = 0*
124: 0x02F1 [0x03] Work_Zone[3] = 14832*
125: 0x02F6 [0x03] Work_Zone[4] = 14396*
126: 0x02FB [0x03] Work_Zone[5] = 202*
127: 0x0300 [0x03] Work_Zone_1700[0] = 15448*
128: 0x0305 [0x03] Work_Zone_1700[2] = 339*
129: 0x030A [0x03] Work_Zone_1700[4] = 15823*
130: 0x030F [0x03] Work_Zone_1700[6] = 3668*
131: 0x0314 [0x03] Work_Zone_1700[8] = 3329*
132: 0x0319 [0x01] GOTO 0x0406
133: 0x031C [0x02] IF !(ExtData[1]->WorkLocal[3] == 6*) GOTO 0x035B
134: 0x0324 [0x3C] SET_BIT_FLAG_CONDITIONAL(target_work_offset=ExtData[1]->WorkLocal[5], bit_index_work_offset=3*, condition_work_offset=1*)
135: 0x032B [0x03] Work_Zone[2] = 0*
136: 0x0330 [0x03] Work_Zone[3] = 13947*
137: 0x0335 [0x03] Work_Zone[4] = 14397*
138: 0x033A [0x03] Work_Zone[5] = 142*
139: 0x033F [0x03] Work_Zone_1700[0] = 15449*
140: 0x0344 [0x03] Work_Zone_1700[2] = 336*
141: 0x0349 [0x03] Work_Zone_1700[4] = 15824*
142: 0x034E [0x03] Work_Zone_1700[6] = 3663*
143: 0x0353 [0x03] Work_Zone_1700[8] = 3326*
144: 0x0358 [0x01] GOTO 0x0406
145: 0x035B [0x02] IF !(ExtData[1]->WorkLocal[3] == 7*) GOTO 0x039A
146: 0x0363 [0x3C] SET_BIT_FLAG_CONDITIONAL(target_work_offset=ExtData[1]->WorkLocal[5], bit_index_work_offset=3*, condition_work_offset=1*)
147: 0x036A [0x03] Work_Zone[2] = 0*
148: 0x036F [0x03] Work_Zone[3] = 17058*
149: 0x0374 [0x03] Work_Zone[4] = 14398*
150: 0x0379 [0x03] Work_Zone[5] = 134*
151: 0x037E [0x03] Work_Zone_1700[0] = 15450*
152: 0x0383 [0x03] Work_Zone_1700[2] = 342*
153: 0x0388 [0x03] Work_Zone_1700[4] = 15825*
154: 0x038D [0x03] Work_Zone_1700[6] = 3674*
155: 0x0392 [0x03] Work_Zone_1700[8] = 3332*
156: 0x0397 [0x01] GOTO 0x0406
157: 0x039A [0x02] IF !(ExtData[1]->WorkLocal[3] == 8*) GOTO 0x03D9
158: 0x03A2 [0x3C] SET_BIT_FLAG_CONDITIONAL(target_work_offset=ExtData[1]->WorkLocal[5], bit_index_work_offset=3*, condition_work_offset=1*)
159: 0x03A9 [0x03] Work_Zone[2] = 0*
160: 0x03AE [0x03] Work_Zone[3] = 13948*
161: 0x03B3 [0x03] Work_Zone[4] = 14399*
162: 0x03B8 [0x03] Work_Zone[5] = 137*
163: 0x03BD [0x03] Work_Zone_1700[0] = 15451*
164: 0x03C2 [0x03] Work_Zone_1700[2] = 338*
165: 0x03C7 [0x03] Work_Zone_1700[4] = 15826*
166: 0x03CC [0x03] Work_Zone_1700[6] = 3667*
167: 0x03D1 [0x03] Work_Zone_1700[8] = 3328*
168: 0x03D6 [0x01] GOTO 0x0406
169: 0x03D9 [0x03] Work_Zone[2] = 0*
170: 0x03DE [0x03] Work_Zone_1700[0] = 0*
171: 0x03E3 [0x03] Work_Zone[3] = 0*
172: 0x03E8 [0x03] Work_Zone[4] = 0*
173: 0x03ED [0x03] Work_Zone[5] = 0*
174: 0x03F2 [0x03] Work_Zone_1700[2] = 0*
175: 0x03F7 [0x03] Work_Zone_1700[4] = 0*
176: 0x03FC [0x03] Work_Zone_1700[6] = 0*
177: 0x0401 [0x03] Work_Zone_1700[8] = 0*

SUBROUTINE_0406:
178: 0x0406 [0xD4] MAP_QUERY_WINDOW: Prepare buffer configuration A (buffer=[00 80 02 10 D4 03 3F 80...])
179: 0x0424 [0xD4] MAP_QUERY_WINDOW: Prepare buffer configuration A (buffer=[63 80 02 17 D4 03 1E 80...])
180: 0x0442 [0x4B] UPDATE_ENTITY_YAW(entity=Unknown NPC (ID: 343044/0x00053C04), yaw=0.0°*)
181: 0x0449 [0x0F] 0x0280 ^= ExtData[1]->WorkLocal[4]
182: 0x044E [0x6E] Unknown NPC (ID: 73008000/0x045A0380) uses emote 0x053C
183: 0x0455 [0x00] END_REQSTACK()

SUBROUTINE_0D94:
184: 0x0D94 [0x3E] IF !(ExtData[1]->WorkLocal[14] bit 31*) GOTO 0x0DA2
185: 0x0D9B [0x1D] PRINT_EVENT_MESSAGE(message_id=7142*)
    → "You are not eligible to receive guild points at this time."
186: 0x0D9E [0x23] WAIT_FOR_DIALOG_INTERACTION
187: 0x0D9F [0x01] GOTO 0x0DBF
188: 0x0DA2 [0x03] Work_Zone[5] = ExtData[1]->WorkLocal[13]
189: 0x0DA7 [0x08] Work_Zone[5] -= ExtData[1]->WorkLocal[14]
190: 0x0DAC [0x02] IF !(Work_Zone[5] <= 0*) GOTO 0x0DBB
191: 0x0DB4 [0x1D] PRINT_EVENT_MESSAGE(message_id=7141*)
    → "You can still receive up to $3 guild points by trading us the item before the time limit is up."
192: 0x0DB7 [0x23] WAIT_FOR_DIALOG_INTERACTION
193: 0x0DB8 [0x01] GOTO 0x0DBF
194: 0x0DBB [0x1D] PRINT_EVENT_MESSAGE(message_id=7142*)
    → "You are not eligible to receive guild points at this time."
195: 0x0DBE [0x23] WAIT_FOR_DIALOG_INTERACTION

SUBROUTINE_0DBF:
196: 0x0DBF [0x01] GOTO 0x014E

SUBROUTINE_0DEC:
197: 0x0DEC [0x21] END_EVENT
198: 0x0DED [0x00] END_REQSTACK()
```

#### Data or dead code:

```
# Dead code (unreachable instructions):
     0x0070 [0x01] GOTO 0x00AC
     0x00A2 [0x01] GOTO 0x00A5
# Dead code (unreachable instructions):
     0x00AC [0x01] GOTO 0x011D
     0x00D4 [0x01] GOTO 0x011D
     0x00F9 [0x01] GOTO 0x00FC
# Dead code (unreachable instructions):
     0x0113 [0x01] GOTO 0x0116
# Dead code (unreachable instructions):
     0x0165 [0x01] GOTO 0x0DEC
# Dead code (unreachable instructions):
     0x0456 [0x48] [System] [0x0F80]:
    → "Objective: $0 [monster/monsters] of any family. Equipment: Target item must be equipped."
     0x0459 [0x80] LOAD_WAIT(entity=Unknown NPC (ID: 1862272002/0x6F000402))
     0x045E [0x80] LOAD_WAIT(entity=Unknown NPC (ID: 1006921987/0x3C046903))
     0x0463 [0x05] 0x1E00 = 1
     0x0466 [0x80] LOAD_WAIT(entity=Unknown NPC (ID: 67272719/0x0402800F))
     0x046B [0x00] END_REQSTACK()
     0x046C [0x70] WAIT_ENTITY_RENDER_FLAG: Wait while EventEntity->Render.Flags3 bit 2 is set (cancel turn if not)
     0x046D [0x80] LOAD_WAIT(entity=Unknown NPC (ID: 1006927619/0x3C047F03))
     0x0472 [0x05] 0x5100 = 1
     0x0475 [0x80] LOAD_WAIT(entity=Unknown NPC (ID: 87851023/0x053C800F))
     0x047A [0x00] END_REQSTACK()
     0x047B [0x05] 0x0F80 = 1
     0x047E [0x80] LOAD_WAIT(entity=Unknown NPC (ID: 1895826434/0x71000402))
     0x0483 [0x80] LOAD_WAIT(entity=Unknown NPC (ID: 1006935043/0x3C049C03))
     0x0488 [0x05] 0x5A00 = 1
     0x048B [0x80] LOAD_WAIT(entity=Unknown NPC (ID: 87851023/0x053C800F))
     0x0490 [0x00] END_REQSTACK()
     0x0491 [0x63] PLAY_ANIMATION_WAIT(animation=3968)
     0x0494 [0x80] LOAD_WAIT(entity=Unknown NPC (ID: 1811940668/0x6C00053C))
     0x0499 [0x80] LOAD_WAIT(entity=Unknown NPC (ID: 67272719/0x0402800F))
     0x049E [0x00] END_REQSTACK()
     0x049F [0x72] LOAD_EVENT_WEATHER: Unknown mode 128, weather_id=0xAB03
     0x04A3 [0x04] DEPRECATED_NOP(unused=0x053C)
     0x04A6 [0x00] END_REQSTACK()
     0x04A7 [0x1D] PRINT_EVENT_MESSAGE(message_id=0x0F80)
     0x04AA [0x80] LOAD_WAIT(entity=Unknown NPC (ID: 268439298/0x10000F02))
     0x04AF [0x80] LOAD_WAIT(entity=Unknown NPC (ID: 1006942720/0x3C04BA00))
     0x04B4 [0x05] 0x7300 = 1
     0x04B7 [0x80] LOAD_WAIT(entity=Unknown NPC (ID: 84049935/0x0502800F))
     0x04BC [0x00] END_REQSTACK()
     0x04BD [0x74] EventEntity->Render.Flags1 ^= 0x00
     0x04BF [0x00] END_REQSTACK()
     0x04C0 [0xC5] LOAD_SCHEDULED_TASK_ALT3: Load scheduler 0x10000225 for entities [Unknown NPC (ID: 47449331/0x02D404F3), Unknown NPC (ID: 1212533/0x00128075)], work=0x0104, param=5
     0x04D1 [0x10] 0x80 <<= 0x04E1
     0x04D6 [0x03] ExtData[1]->WorkLocal[18] = 0*
     0x04DB [0x01] GOTO 0x014E
     0x04DE [0x01] GOTO 0x0D55
     0x04E1 [0x02] IF !(Work_Zone[0] == 1*) GOTO 0x068F
     0x04E9 [0x03] ExtData[1]->WorkLocal[18] = 1*
     0x04EE [0x03] ExtData[1]->WorkLocal[19] = 0*
     0x04F3 [0x03] Work_Zone[2] = 4238*
     0x04F8 [0x03] Work_Zone[3] = 4239*
     0x04FD [0x03] Work_Zone[4] = 4240*
     0x0502 [0x03] Work_Zone[5] = 4241*
     0x0507 [0x03] Work_Zone[6] = 4242*
     0x050C [0x03] Work_Zone[7] = 4243*
     0x0511 [0x03] Work_Zone[8] = 4244*
     0x0516 [0x03] Work_Zone[9] = 4245*
     0x051B [0xD4] MAP_QUERY_WINDOW: Prepare buffer configuration A (buffer=[0F 80 02 10 D4 03 1D 80...])
     0x0539 [0xD4] MAP_QUERY_WINDOW: Prepare buffer configuration A (buffer=[51 80 07 10 D4 03 5A 80...])
     0x0557 [0x02] IF !(Work_Zone[0] == 0*) GOTO 0x056A
     0x055F [0x03] ExtData[1]->WorkLocal[19] = 0*
     0x0564 [0x01] GOTO 0x0170
     0x0567 [0x01] GOTO 0x0681
     0x056A [0x02] IF !(Work_Zone[0] == 1*) GOTO 0x058C
     0x0572 [0x03] ExtData[1]->WorkLocal[6] = Work_Zone[2]
     0x0577 [0x03] ExtData[1]->WorkLocal[8] = 200*
     0x057C [0x03] ExtData[1]->WorkLocal[19] = Work_Zone[0]
     0x0581 [0x03] ExtData[1]->WorkLocal[20] = 1*
     0x0586 [0x05] ExtData[1]->WorkLocal[11] = 1
     0x0589 [0x01] GOTO 0x0681
     0x058C [0x02] IF !(Work_Zone[0] == 2*) GOTO 0x05AE
     0x0594 [0x03] ExtData[1]->WorkLocal[6] = Work_Zone[3]
     0x0599 [0x03] ExtData[1]->WorkLocal[8] = 200*
     0x059E [0x03] ExtData[1]->WorkLocal[19] = Work_Zone[0]
     0x05A3 [0x03] ExtData[1]->WorkLocal[20] = 1*
     0x05A8 [0x05] ExtData[1]->WorkLocal[11] = 1
     0x05AB [0x01] GOTO 0x0681
     0x05AE [0x02] IF !(Work_Zone[0] == 3*) GOTO 0x05D0
     0x05B6 [0x03] ExtData[1]->WorkLocal[6] = Work_Zone[4]
     0x05BB [0x03] ExtData[1]->WorkLocal[8] = 200*
     0x05C0 [0x03] ExtData[1]->WorkLocal[19] = Work_Zone[0]
     0x05C5 [0x03] ExtData[1]->WorkLocal[20] = 1*
     0x05CA [0x05] ExtData[1]->WorkLocal[11] = 1
     0x05CD [0x01] GOTO 0x0681
     0x05D0 [0x02] IF !(Work_Zone[0] == 4*) GOTO 0x05F2
     0x05D8 [0x03] ExtData[1]->WorkLocal[6] = Work_Zone[5]
     0x05DD [0x03] ExtData[1]->WorkLocal[8] = 200*
     0x05E2 [0x03] ExtData[1]->WorkLocal[19] = Work_Zone[0]
     0x05E7 [0x03] ExtData[1]->WorkLocal[20] = 1*
     0x05EC [0x05] ExtData[1]->WorkLocal[11] = 1
     0x05EF [0x01] GOTO 0x0681
     0x05F2 [0x02] IF !(Work_Zone[0] == 5*) GOTO 0x0614
     0x05FA [0x03] ExtData[1]->WorkLocal[6] = Work_Zone[6]
     0x05FF [0x03] ExtData[1]->WorkLocal[8] = 200*
     0x0604 [0x03] ExtData[1]->WorkLocal[19] = Work_Zone[0]
     0x0609 [0x03] ExtData[1]->WorkLocal[20] = 1*
     0x060E [0x05] ExtData[1]->WorkLocal[11] = 1
     0x0611 [0x01] GOTO 0x0681
     0x0614 [0x02] IF !(Work_Zone[0] == 6*) GOTO 0x0636
     0x061C [0x03] ExtData[1]->WorkLocal[6] = Work_Zone[7]
     0x0621 [0x03] ExtData[1]->WorkLocal[8] = 200*
     0x0626 [0x03] ExtData[1]->WorkLocal[19] = Work_Zone[0]
     0x062B [0x03] ExtData[1]->WorkLocal[20] = 1*
     0x0630 [0x05] ExtData[1]->WorkLocal[11] = 1
     0x0633 [0x01] GOTO 0x0681
     0x0636 [0x02] IF !(Work_Zone[0] == 7*) GOTO 0x0658
     0x063E [0x03] ExtData[1]->WorkLocal[6] = Work_Zone[8]
     0x0643 [0x03] ExtData[1]->WorkLocal[8] = 200*
     0x0648 [0x03] ExtData[1]->WorkLocal[19] = Work_Zone[0]
     0x064D [0x03] ExtData[1]->WorkLocal[20] = 1*
     0x0652 [0x05] ExtData[1]->WorkLocal[11] = 1
     0x0655 [0x01] GOTO 0x0681
     0x0658 [0x02] IF !(Work_Zone[0] == 8*) GOTO 0x067A
     0x0660 [0x03] ExtData[1]->WorkLocal[6] = Work_Zone[9]
     0x0665 [0x03] ExtData[1]->WorkLocal[8] = 200*
     0x066A [0x03] ExtData[1]->WorkLocal[19] = Work_Zone[0]
     0x066F [0x03] ExtData[1]->WorkLocal[20] = 1*
     0x0674 [0x05] ExtData[1]->WorkLocal[11] = 1
     0x0677 [0x01] GOTO 0x0681
     0x067A [0x03] Work_Zone[1] = 1073741824*
     0x067F [0x21] END_EVENT
     0x0680 [0x00] END_REQSTACK()
     0x0681 [0x03] ExtData[1]->WorkLocal[21] = ExtData[1]->WorkLocal[19]
     0x0686 [0x1A] CALL_SUBROUTINE(address=0x0DEE)
     0x0689 [0x01] GOTO 0x04F3
     0x068C [0x01] GOTO 0x0D55
     0x068F [0x02] IF !(Work_Zone[0] == 2*) GOTO 0x083A
     0x0697 [0x03] ExtData[1]->WorkLocal[18] = 2*
     0x069C [0x03] ExtData[1]->WorkLocal[19] = 0*
     0x06A1 [0x03] Work_Zone[2] = 6506*
     0x06A6 [0x03] Work_Zone[3] = 6507*
     0x06AB [0x03] Work_Zone[4] = 6508*
     0x06B0 [0x03] Work_Zone[5] = 6509*
     0x06B5 [0x03] Work_Zone[6] = 6510*
     0x06BA [0x03] Work_Zone[7] = 6511*
     0x06BF [0x03] Work_Zone[8] = 6512*
     0x06C4 [0x03] Work_Zone[9] = 6513*
     0x06C9 [0xD4] MAP_QUERY_WINDOW: Prepare buffer configuration A (buffer=[0F 80 02 10 D4 03 1D 80...])
     0x06E7 [0xD4] MAP_QUERY_WINDOW: Prepare buffer configuration A (buffer=[51 80 07 10 D4 03 5A 80...])
     0x0705 [0x10] 0x80 <<= 0x0715
     0x070A [0x03] ExtData[1]->WorkLocal[19] = 0*
     0x070F [0x01] GOTO 0x0170
     0x0712 [0x01] GOTO 0x082C
     0x0715 [0x02] IF !(Work_Zone[0] == 1*) GOTO 0x0737
     0x071D [0x03] ExtData[1]->WorkLocal[6] = Work_Zone[2]
     0x0722 [0x03] ExtData[1]->WorkLocal[8] = 450*
     0x0727 [0x03] ExtData[1]->WorkLocal[20] = 2*
     0x072C [0x03] ExtData[1]->WorkLocal[19] = Work_Zone[0]
     0x0731 [0x05] ExtData[1]->WorkLocal[11] = 1
     0x0734 [0x01] GOTO 0x082C
     0x0737 [0x02] IF !(Work_Zone[0] == 2*) GOTO 0x0759
     0x073F [0x03] ExtData[1]->WorkLocal[6] = Work_Zone[3]
     0x0744 [0x03] ExtData[1]->WorkLocal[8] = 450*
     0x0749 [0x03] ExtData[1]->WorkLocal[20] = 2*
     0x074E [0x03] ExtData[1]->WorkLocal[19] = Work_Zone[0]
     0x0753 [0x05] ExtData[1]->WorkLocal[11] = 1
     0x0756 [0x01] GOTO 0x082C
     0x0759 [0x02] IF !(Work_Zone[0] == 3*) GOTO 0x077B
     0x0761 [0x03] ExtData[1]->WorkLocal[6] = Work_Zone[4]
     0x0766 [0x03] ExtData[1]->WorkLocal[8] = 450*
     0x076B [0x03] ExtData[1]->WorkLocal[20] = 2*
     0x0770 [0x03] ExtData[1]->WorkLocal[19] = Work_Zone[0]
     0x0775 [0x05] ExtData[1]->WorkLocal[11] = 1
     0x0778 [0x01] GOTO 0x082C
     0x077B [0x02] IF !(Work_Zone[0] == 4*) GOTO 0x079D
     0x0783 [0x03] ExtData[1]->WorkLocal[6] = Work_Zone[5]
     0x0788 [0x03] ExtData[1]->WorkLocal[8] = 450*
     0x078D [0x03] ExtData[1]->WorkLocal[20] = 2*
     0x0792 [0x03] ExtData[1]->WorkLocal[19] = Work_Zone[0]
     0x0797 [0x05] ExtData[1]->WorkLocal[11] = 1
     0x079A [0x01] GOTO 0x082C
     0x079D [0x02] IF !(Work_Zone[0] == 5*) GOTO 0x07BF
     0x07A5 [0x03] ExtData[1]->WorkLocal[6] = Work_Zone[6]
     0x07AA [0x03] ExtData[1]->WorkLocal[8] = 450*
     0x07AF [0x03] ExtData[1]->WorkLocal[20] = 2*
     0x07B4 [0x03] ExtData[1]->WorkLocal[19] = Work_Zone[0]
     0x07B9 [0x05] ExtData[1]->WorkLocal[11] = 1
     0x07BC [0x01] GOTO 0x082C
     0x07BF [0x02] IF !(Work_Zone[0] == 6*) GOTO 0x07E1
     0x07C7 [0x03] ExtData[1]->WorkLocal[6] = Work_Zone[7]
     0x07CC [0x03] ExtData[1]->WorkLocal[8] = 450*
     0x07D1 [0x03] ExtData[1]->WorkLocal[20] = 2*
     0x07D6 [0x03] ExtData[1]->WorkLocal[19] = Work_Zone[0]
     0x07DB [0x05] ExtData[1]->WorkLocal[11] = 1
     0x07DE [0x01] GOTO 0x082C
     0x07E1 [0x02] IF !(Work_Zone[0] == 7*) GOTO 0x0803
     0x07E9 [0x03] ExtData[1]->WorkLocal[6] = Work_Zone[8]
     0x07EE [0x03] ExtData[1]->WorkLocal[8] = 450*
     0x07F3 [0x03] ExtData[1]->WorkLocal[20] = 2*
     0x07F8 [0x03] ExtData[1]->WorkLocal[19] = Work_Zone[0]
     0x07FD [0x05] ExtData[1]->WorkLocal[11] = 1
     0x0800 [0x01] GOTO 0x082C
     0x0803 [0x02] IF !(Work_Zone[0] == 8*) GOTO 0x0825
     0x080B [0x03] ExtData[1]->WorkLocal[6] = Work_Zone[9]
     0x0810 [0x03] ExtData[1]->WorkLocal[8] = 450*
     0x0815 [0x03] ExtData[1]->WorkLocal[20] = 2*
     0x081A [0x03] ExtData[1]->WorkLocal[19] = Work_Zone[0]
     0x081F [0x05] ExtData[1]->WorkLocal[11] = 1
     0x0822 [0x01] GOTO 0x082C
     0x0825 [0x03] Work_Zone[1] = 1073741824*
     0x082A [0x21] END_EVENT
     0x082B [0x00] END_REQSTACK()
     0x082C [0x03] ExtData[1]->WorkLocal[21] = ExtData[1]->WorkLocal[19]
     0x0831 [0x1A] CALL_SUBROUTINE(address=0x0DEE)
     0x0834 [0x01] GOTO 0x06A1
     0x0837 [0x01] GOTO 0x0D55
     0x083A [0x02] IF !(Work_Zone[0] == 3*) GOTO 0x0864
     0x0842 [0x03] ExtData[1]->WorkLocal[18] = 3*
     0x0847 [0x03] ExtData[1]->WorkLocal[20] = 3*
     0x084C [0x03] ExtData[1]->WorkLocal[6] = Work_Zone[2]
     0x0851 [0x03] ExtData[1]->WorkLocal[8] = 1500*
     0x0856 [0x05] ExtData[1]->WorkLocal[11] = 1
     0x0859 [0x03] ExtData[1]->WorkLocal[21] = 0*
     0x085E [0x1A] CALL_SUBROUTINE(address=0x0DEE)
     0x0861 [0x01] GOTO 0x0D55
     0x0864 [0x02] IF !(Work_Zone[0] == 4*) GOTO 0x088B
     0x086C [0x03] ExtData[1]->WorkLocal[18] = 4*
     0x0871 [0x03] ExtData[1]->WorkLocal[20] = 4*
     0x0876 [0x03] ExtData[1]->WorkLocal[6] = Work_Zone_1700[0]
     0x087B [0x03] ExtData[1]->WorkLocal[8] = 10000*
     0x0880 [0x03] ExtData[1]->WorkLocal[21] = 0*
     0x0885 [0x1A] CALL_SUBROUTINE(address=0x0DEE)
     0x0888 [0x01] GOTO 0x0D55
     0x088B [0x02] IF !(Work_Zone[0] == 5*) GOTO 0x08B2
     0x0893 [0x03] ExtData[1]->WorkLocal[18] = 5*
     0x0898 [0x03] ExtData[1]->WorkLocal[20] = 5*
     0x089D [0x03] ExtData[1]->WorkLocal[6] = Work_Zone[3]
     0x08A2 [0x03] ExtData[1]->WorkLocal[8] = 70000*
     0x08A7 [0x03] ExtData[1]->WorkLocal[21] = 0*
     0x08AC [0x1A] CALL_SUBROUTINE(address=0x0DEE)
     0x08AF [0x01] GOTO 0x0D55
     0x08B2 [0x02] IF !(Work_Zone[0] == 6*) GOTO 0x08D9
     0x08BA [0x03] ExtData[1]->WorkLocal[18] = 6*
     0x08BF [0x03] ExtData[1]->WorkLocal[20] = 6*
     0x08C4 [0x03] ExtData[1]->WorkLocal[6] = Work_Zone[4]
     0x08C9 [0x03] ExtData[1]->WorkLocal[8] = 100000*
     0x08CE [0x03] ExtData[1]->WorkLocal[21] = 0*
     0x08D3 [0x1A] CALL_SUBROUTINE(address=0x0DEE)
     0x08D6 [0x01] GOTO 0x0D55
     0x08D9 [0x02] IF !(Work_Zone[0] == 7*) GOTO 0x0900
     0x08E1 [0x03] ExtData[1]->WorkLocal[18] = 7*
     0x08E6 [0x03] ExtData[1]->WorkLocal[20] = 7*
     0x08EB [0x03] ExtData[1]->WorkLocal[6] = Work_Zone[5]
     0x08F0 [0x03] ExtData[1]->WorkLocal[8] = 150000*
     0x08F5 [0x03] ExtData[1]->WorkLocal[21] = 0*
     0x08FA [0x1A] CALL_SUBROUTINE(address=0x0DEE)
     0x08FD [0x01] GOTO 0x0D55
     0x0900 [0x02] IF !(Work_Zone[0] == 8*) GOTO 0x0927
     0x0908 [0x03] ExtData[1]->WorkLocal[18] = 8*
     0x090D [0x03] ExtData[1]->WorkLocal[20] = 8*
     0x0912 [0x03] ExtData[1]->WorkLocal[6] = Work_Zone_1700[2]
     0x0917 [0x03] ExtData[1]->WorkLocal[8] = 200000*
     0x091C [0x03] ExtData[1]->WorkLocal[21] = 0*
     0x0921 [0x1A] CALL_SUBROUTINE(address=0x0DEE)
     0x0924 [0x01] GOTO 0x0D55
     0x0927 [0x02] IF !(Work_Zone[0] == 9*) GOTO 0x094E
     0x092F [0x03] ExtData[1]->WorkLocal[18] = 9*
     0x0934 [0x03] ExtData[1]->WorkLocal[20] = 9*
     0x0939 [0x03] ExtData[1]->WorkLocal[6] = Work_Zone_1700[4]
     0x093E [0x03] ExtData[1]->WorkLocal[8] = 80000*
     0x0943 [0x03] ExtData[1]->WorkLocal[21] = 0*
     0x0948 [0x1A] CALL_SUBROUTINE(address=0x0DEE)
     0x094B [0x01] GOTO 0x0D55
     0x094E [0x02] IF !(Work_Zone[0] == 10*) GOTO 0x0978
     0x0956 [0x03] ExtData[1]->WorkLocal[18] = 10*
     0x095B [0x03] ExtData[1]->WorkLocal[20] = 10*
     0x0960 [0x03] ExtData[1]->WorkLocal[6] = Work_Zone_1700[6]
     0x0965 [0x03] ExtData[1]->WorkLocal[8] = 50000*
     0x096A [0x05] ExtData[1]->WorkLocal[11] = 1
     0x096D [0x03] ExtData[1]->WorkLocal[21] = 0*
     0x0972 [0x1A] CALL_SUBROUTINE(address=0x0DEE)
     0x0975 [0x01] GOTO 0x0D55
     0x0978 [0x02] IF !(Work_Zone[0] == 11*) GOTO 0x09A2
     0x0980 [0x03] ExtData[1]->WorkLocal[18] = 11*
     0x0985 [0x03] ExtData[1]->WorkLocal[20] = 11*
     0x098A [0x03] ExtData[1]->WorkLocal[6] = Work_Zone_1700[8]
     0x098F [0x03] ExtData[1]->WorkLocal[8] = 15000*
     0x0994 [0x05] ExtData[1]->WorkLocal[11] = 1
     0x0997 [0x03] ExtData[1]->WorkLocal[21] = 0*
     0x099C [0x1A] CALL_SUBROUTINE(address=0x0DEE)
     0x099F [0x01] GOTO 0x0D55
     0x09A2 [0x02] IF !(Work_Zone[0] == 12*) GOTO 0x0D55
     0x09AA [0x03] ExtData[1]->WorkLocal[18] = 12*
     0x09AF [0x03] ExtData[1]->WorkLocal[19] = 0*
     0x09B4 [0x03] ExtData[1]->WorkLocal[20] = 12*
     0x09B9 [0x02] IF !(ExtData[1]->WorkLocal[15] == 0*) GOTO 0x09C4
     0x09C1 [0x01] GOTO 0x0170
     0x09C4 [0x03] ExtData[1]->WorkLocal[5] = 254*
     0x09C9 [0x03] ExtData[1]->WorkLocal[0] = ExtData[1]->WorkLocal[15]
     0x09CE [0x10] ExtData[1]->WorkLocal[0] <<= 1*
     0x09D3 [0x0F] ExtData[1]->WorkLocal[5] ^= ExtData[1]->WorkLocal[0]
     0x09D8 [0x06] Work_Zone[2] = 0
     0x09DB [0x06] Work_Zone[3] = 0
     0x09DE [0x06] Work_Zone[4] = 0
     0x09E1 [0x06] Work_Zone[5] = 0
     0x09E4 [0x06] Work_Zone[6] = 0
     0x09E7 [0x06] Work_Zone[7] = 0
     0x09EA [0x06] Work_Zone[8] = 0
     0x09ED [0x06] Work_Zone[9] = 0
     0x09F0 [0x06] Work_Zone_1700[0] = 0
     0x09F3 [0x06] Work_Zone_1700[1] = 0
     0x09F6 [0x06] Work_Zone_1700[2] = 0
     0x09F9 [0x06] Work_Zone_1700[3] = 0
     0x09FC [0x06] Work_Zone_1700[4] = 0
     0x09FF [0x06] Work_Zone_1700[5] = 0
     0x0A02 [0x02] IF !(ExtData[1]->WorkLocal[3] == 0*) GOTO 0x0A35
     0x0A0A [0x03] Work_Zone[2] = 1976*
     0x0A0F [0x03] Work_Zone[3] = 30000*
     0x0A14 [0x03] Work_Zone[4] = 1977*
     0x0A19 [0x03] Work_Zone[5] = 95000*
     0x0A1E [0x03] Work_Zone[6] = 1978*
     0x0A23 [0x03] Work_Zone[7] = 115000*
     0x0A28 [0x03] Work_Zone[8] = 1979*
     0x0A2D [0x03] Work_Zone[9] = 20000*
     0x0A32 [0x01] GOTO 0x0C27
     0x0A35 [0x02] IF !(ExtData[1]->WorkLocal[3] == 1*) GOTO 0x0A72
     0x0A3D [0x03] Work_Zone[2] = 1984*
     0x0A42 [0x03] Work_Zone[3] = 40000*
     0x0A47 [0x03] Work_Zone[4] = 1985*
     0x0A4C [0x03] Work_Zone[5] = 40000*
     0x0A51 [0x03] Work_Zone[6] = 1986*
     0x0A56 [0x03] Work_Zone[7] = 10000*
     0x0A5B [0x03] Work_Zone[8] = 1987*
     0x0A60 [0x03] Work_Zone[9] = 10000*
     0x0A65 [0x03] Work_Zone_1700[0] = 1988*
     0x0A6A [0x03] Work_Zone_1700[1] = 20000*
     0x0A6F [0x01] GOTO 0x0C27
     0x0A72 [0x02] IF !(ExtData[1]->WorkLocal[3] == 2*) GOTO 0x0AAF
     0x0A7A [0x03] Work_Zone[2] = 1992*
     0x0A7F [0x03] Work_Zone[3] = 40000*
     0x0A84 [0x03] Work_Zone[4] = 1993*
     0x0A89 [0x03] Work_Zone[5] = 40000*
     0x0A8E [0x03] Work_Zone[6] = 1994*
     0x0A93 [0x03] Work_Zone[7] = 10000*
     0x0A98 [0x03] Work_Zone[8] = 1995*
     0x0A9D [0x03] Work_Zone[9] = 10000*
     0x0AA2 [0x03] Work_Zone_1700[0] = 1996*
     0x0AA7 [0x03] Work_Zone_1700[1] = 20000*
     0x0AAC [0x01] GOTO 0x0C27
     0x0AAF [0x02] IF !(ExtData[1]->WorkLocal[3] == 3*) GOTO 0x0AF6
     0x0AB7 [0x03] Work_Zone[2] = 2000*
     0x0ABC [0x03] Work_Zone[3] = 40000*
     0x0AC1 [0x03] Work_Zone[4] = 2001*
     0x0AC6 [0x03] Work_Zone[5] = 40000*
     0x0ACB [0x03] Work_Zone[6] = 1994*
     0x0AD0 [0x03] Work_Zone[7] = 10000*
     0x0AD5 [0x03] Work_Zone[8] = 1995*
     0x0ADA [0x03] Work_Zone[9] = 10000*
     0x0ADF [0x03] Work_Zone_1700[0] = 2002*
     0x0AE4 [0x03] Work_Zone_1700[1] = 10000*
     0x0AE9 [0x03] Work_Zone_1700[2] = 2003*
     0x0AEE [0x03] Work_Zone_1700[3] = 20000*
     0x0AF3 [0x01] GOTO 0x0C27
     0x0AF6 [0x02] IF !(ExtData[1]->WorkLocal[3] == 4*) GOTO 0x0B33
     0x0AFE [0x03] Work_Zone[2] = 2008*
     0x0B03 [0x03] Work_Zone[3] = 40000*
     0x0B08 [0x03] Work_Zone[4] = 2009*
     0x0B0D [0x03] Work_Zone[5] = 40000*
     0x0B12 [0x03] Work_Zone[6] = 2010*
     0x0B17 [0x03] Work_Zone[7] = 10000*
     0x0B1C [0x03] Work_Zone[8] = 2011*
     0x0B21 [0x03] Work_Zone[9] = 10000*
     0x0B26 [0x03] Work_Zone_1700[0] = 2012*
     0x0B2B [0x03] Work_Zone_1700[1] = 20000*
     0x0B30 [0x01] GOTO 0x0C27
     0x0B33 [0x02] IF !(ExtData[1]->WorkLocal[3] == 5*) GOTO 0x0B66
     0x0B3B [0x03] Work_Zone[2] = 2016*
     0x0B40 [0x03] Work_Zone[3] = 40000*
     0x0B45 [0x03] Work_Zone[4] = 2017*
     0x0B4A [0x03] Work_Zone[5] = 40000*
     0x0B4F [0x03] Work_Zone[6] = 2018*
     0x0B54 [0x03] Work_Zone[7] = 10000*
     0x0B59 [0x03] Work_Zone[8] = 2019*
     0x0B5E [0x03] Work_Zone[9] = 20000*
     0x0B63 [0x01] GOTO 0x0C27
     0x0B66 [0x02] IF !(ExtData[1]->WorkLocal[3] == 6*) GOTO 0x0B99
     0x0B6E [0x03] Work_Zone[2] = 2024*
     0x0B73 [0x03] Work_Zone[3] = 40000*
     0x0B78 [0x03] Work_Zone[4] = 2025*
     0x0B7D [0x03] Work_Zone[5] = 40000*
     0x0B82 [0x03] Work_Zone[6] = 2026*
     0x0B87 [0x03] Work_Zone[7] = 10000*
     0x0B8C [0x03] Work_Zone[8] = 2027*
     0x0B91 [0x03] Work_Zone[9] = 20000*
     0x0B96 [0x01] GOTO 0x0C27
     0x0B99 [0x02] IF !(ExtData[1]->WorkLocal[3] == 7*) GOTO 0x0BEA
     0x0BA1 [0x03] Work_Zone[2] = 2032*
     0x0BA6 [0x03] Work_Zone[3] = 20000*
     0x0BAB [0x03] Work_Zone[4] = 2033*
     0x0BB0 [0x03] Work_Zone[5] = 40000*
     0x0BB5 [0x03] Work_Zone[6] = 2034*
     0x0BBA [0x03] Work_Zone[7] = 40000*
     0x0BBF [0x03] Work_Zone[8] = 2035*
     0x0BC4 [0x03] Work_Zone[9] = 10000*
     0x0BC9 [0x03] Work_Zone_1700[0] = 2036*
     0x0BCE [0x03] Work_Zone_1700[1] = 20000*
     0x0BD3 [0x03] Work_Zone_1700[2] = 2037*
     0x0BD8 [0x03] Work_Zone_1700[3] = 10000*
     0x0BDD [0x03] Work_Zone_1700[4] = 2039*
     0x0BE2 [0x03] Work_Zone_1700[5] = 20000*
     0x0BE7 [0x01] GOTO 0x0C27
     0x0BEA [0x02] IF !(ExtData[1]->WorkLocal[3] == 8*) GOTO 0x0C27
     0x0BF2 [0x03] Work_Zone[2] = 2040*
     0x0BF7 [0x03] Work_Zone[3] = 30000*
     0x0BFC [0x03] Work_Zone[4] = 2041*
     0x0C01 [0x03] Work_Zone[5] = 30000*
     0x0C06 [0x03] Work_Zone[6] = 2042*
     0x0C0B [0x03] Work_Zone[7] = 8000*
     0x0C10 [0x03] Work_Zone[8] = 2043*
     0x0C15 [0x03] Work_Zone[9] = 30000*
     0x0C1A [0x03] Work_Zone_1700[0] = 2044*
     0x0C1F [0x03] Work_Zone_1700[1] = 20000*
     0x0C24 [0x01] GOTO 0x0C27
     0x0C27 [0x05] ExtData[1]->WorkLocal[16] = 1
     0x0C2A [0x24] CREATE_DIALOG(message_id=7154*, default_option=ExtData[1]->WorkLocal[19], option_flags=ExtData[1]->WorkLocal[5])
    → "Exchange points for... [None of these./3($1)./$3($3)./$3($5)./$3($7)./$3($9)./$3($11)./$3($13).]"
     0x0C31 [0x25] WAIT_DIALOG_SELECT()
     0x0C32 [0x02] IF !(Work_Zone[0] == 0*) GOTO 0x0C45
     0x0C3A [0x03] ExtData[1]->WorkLocal[19] = 0*
     0x0C3F [0x01] GOTO 0x0170
     0x0C42 [0x01] GOTO 0x0CFB
     0x0C45 [0x02] IF !(Work_Zone[0] == 1*) GOTO 0x0C55
     0x0C4D [0x03] ExtData[1]->WorkLocal[19] = 1*
     0x0C52 [0x01] GOTO 0x0CFB
     0x0C55 [0x02] IF !(Work_Zone[0] == 2*) GOTO 0x0C6F
     0x0C5D [0x03] ExtData[1]->WorkLocal[19] = 2*
     0x0C62 [0x03] Work_Zone[2] = Work_Zone[4]
     0x0C67 [0x03] Work_Zone[3] = Work_Zone[5]
     0x0C6C [0x01] GOTO 0x0CFB
     0x0C6F [0x02] IF !(Work_Zone[0] == 3*) GOTO 0x0C89
     0x0C77 [0x03] ExtData[1]->WorkLocal[19] = 3*
     0x0C7C [0x03] Work_Zone[2] = Work_Zone[6]
     0x0C81 [0x03] Work_Zone[3] = Work_Zone[7]
     0x0C86 [0x01] GOTO 0x0CFB
     0x0C89 [0x02] IF !(Work_Zone[0] == 4*) GOTO 0x0CA3
     0x0C91 [0x03] ExtData[1]->WorkLocal[19] = 4*
     0x0C96 [0x03] Work_Zone[2] = Work_Zone[8]
     0x0C9B [0x03] Work_Zone[3] = Work_Zone[9]
     0x0CA0 [0x01] GOTO 0x0CFB
     0x0CA3 [0x02] IF !(Work_Zone[0] == 5*) GOTO 0x0CBD
     0x0CAB [0x03] ExtData[1]->WorkLocal[19] = 5*
     0x0CB0 [0x03] Work_Zone[2] = Work_Zone_1700[0]
     0x0CB5 [0x03] Work_Zone[3] = Work_Zone_1700[1]
     0x0CBA [0x01] GOTO 0x0CFB
     0x0CBD [0x02] IF !(Work_Zone[0] == 6*) GOTO 0x0CD7
     0x0CC5 [0x03] ExtData[1]->WorkLocal[19] = 6*
     0x0CCA [0x03] Work_Zone[2] = Work_Zone_1700[2]
     0x0CCF [0x03] Work_Zone[3] = Work_Zone_1700[3]
     0x0CD4 [0x01] GOTO 0x0CFB
     0x0CD7 [0x02] IF !(Work_Zone[0] == 7*) GOTO 0x0CF1
     0x0CDF [0x03] ExtData[1]->WorkLocal[19] = 7*
     0x0CE4 [0x03] Work_Zone[2] = Work_Zone_1700[4]
     0x0CE9 [0x03] Work_Zone[3] = Work_Zone_1700[5]
     0x0CEE [0x01] GOTO 0x0CFB
     0x0CF1 [0x03] Work_Zone[2] = 0*
     0x0CF6 [0x03] Work_Zone[3] = 0*
     0x0CFB [0x02] IF !(Work_Zone[2] == 0*) GOTO 0x0D4F
     0x0D03 [0x1A] CALL_SUBROUTINE(address=0x0E8D)
     0x0D06 [0x03] Work_Zone_1700[24] = ExtData[1]->WorkLocal[9]
     0x0D0B [0x1D] PRINT_EVENT_MESSAGE(message_id=7155*)
    → "Trade $1 guild points for $3?"
     0x0D0E [0x23] WAIT_FOR_DIALOG_INTERACTION
     0x0D0F [0x24] CREATE_DIALOG(message_id=7152*, default_option=1*, option_flags=0*)
    → "Proceed with the transaction? (GP: $ ) [Yes./No.]"
     0x0D16 [0x25] WAIT_DIALOG_SELECT()
     0x0D17 [0x02] IF !(Work_Zone[0] == 0*) GOTO 0x0D4F
     0x0D1F [0x03] Work_Zone[1] = ExtData[1]->WorkLocal[20]
     0x0D24 [0x40] SET_BIT_WORK_RANGE(start_bit=5*, end_bit=8*, target=Work_Zone[1], source=ExtData[1]->WorkLocal[19])
     0x0D2D [0x40] SET_BIT_WORK_RANGE(start_bit=9*, end_bit=24*, target=Work_Zone[1], source=1*)
     0x0D36 [0x43] SEND_EVENT_UPDATE: Send pending tag to server (packet 0x005B)
     0x0D38 [0x43] SEND_EVENT_UPDATE: Check pending flag (skip if not pending)
     0x0D3A [0x02] IF !(Work_Zone[9] == 0*) GOTO 0x0D4C
     0x0D42 [0x03] ExtData[1]->WorkLocal[9] = Work_Zone[2]
     0x0D47 [0x03] ExtData[1]->WorkLocal[15] = Work_Zone[8]
     0x0D4C [0x01] GOTO 0x0D4F
     0x0D4F [0x01] GOTO 0x09B9
     0x0D52 [0x01] GOTO 0x0D55
     0x0D55 [0x01] GOTO 0x0170
     0x0D58 [0x01] GOTO 0x0DEC
# Dead code (unreachable instructions):
     0x0DC2 [0x01] GOTO 0x0DEC
     0x0DE9 [0x01] GOTO 0x0DEC
# Dead code (unreachable instructions):
     0x0DEE [0x03] Work_Zone[2] = ExtData[1]->WorkLocal[6]
     0x0DF3 [0x03] Work_Zone[3] = ExtData[1]->WorkLocal[8]
     0x0DF8 [0x93] DISPLAY_ITEM_INFO(item_id=Work_Zone[2])
     0x0DFB [0x02] IF !(ExtData[1]->WorkLocal[11] == 0*) GOTO 0x0E14
     0x0E03 [0x1D] PRINT_EVENT_MESSAGE(message_id=7150*)
    → "How many do you wish to trade for?"
     0x0E06 [0x23] WAIT_FOR_DIALOG_INTERACTION
     0x0E07 [0x71] USER_INPUT_HANDLER: Open numerical input with params (work=[1*, 4*])
     0x0E0D [0x71] USER_INPUT_HANDLER: Process numerical input B (work=ExtData[1]->WorkLocal[7])
     0x0E11 [0x01] GOTO 0x0E19
     0x0E14 [0x03] ExtData[1]->WorkLocal[7] = 1*
     0x0E19 [0x02] IF !(ExtData[1]->WorkLocal[7] <= 0*) GOTO 0x0E89
     0x0E21 [0x14] ExtData[1]->WorkLocal[8] *= ExtData[1]->WorkLocal[7]
     0x0E26 [0x03] Work_Zone[3] = ExtData[1]->WorkLocal[8]
     0x0E2B [0x03] Work_Zone[4] = ExtData[1]->WorkLocal[7]
     0x0E30 [0x02] IF !(ExtData[1]->WorkLocal[7] == 1*) GOTO 0x0E3F
     0x0E38 [0x1D] PRINT_EVENT_MESSAGE(message_id=7149*)
    → "Trade $1 guild points for $0?"
     0x0E3B [0x23] WAIT_FOR_DIALOG_INTERACTION
     0x0E3C [0x01] GOTO 0x0E43
     0x0E3F [0x1D] PRINT_EVENT_MESSAGE(message_id=7151*)
    → "Trade $1 guild points for $2 $0 ?"
     0x0E42 [0x23] WAIT_FOR_DIALOG_INTERACTION
     0x0E43 [0x93] DISPLAY_ITEM_INFO(item_id=0*)
     0x0E46 [0x03] Work_Zone_1700[24] = ExtData[1]->WorkLocal[9]
     0x0E4B [0x24] CREATE_DIALOG(message_id=7152*, default_option=1*, option_flags=0*)
    → "Proceed with the transaction? (GP: $ ) [Yes./No.]"
     0x0E52 [0x25] WAIT_DIALOG_SELECT()
     0x0E53 [0x02] IF !(Work_Zone[0] == 0*) GOTO 0x0E86
     0x0E5B [0x03] Work_Zone[1] = ExtData[1]->WorkLocal[20]
     0x0E60 [0x40] SET_BIT_WORK_RANGE(start_bit=5*, end_bit=8*, target=Work_Zone[1], source=ExtData[1]->WorkLocal[21])
     0x0E69 [0x40] SET_BIT_WORK_RANGE(start_bit=9*, end_bit=24*, target=Work_Zone[1], source=ExtData[1]->WorkLocal[7])
     0x0E72 [0x43] SEND_EVENT_UPDATE: Send pending tag to server (packet 0x005B)
     0x0E74 [0x43] SEND_EVENT_UPDATE: Check pending flag (skip if not pending)
     0x0E76 [0x02] IF !(Work_Zone[9] == 0*) GOTO 0x0E83
     0x0E7E [0x03] ExtData[1]->WorkLocal[9] = Work_Zone[2]
     0x0E83 [0x01] GOTO 0x0E86
     0x0E86 [0x01] GOTO 0x0E8C
     0x0E89 [0x93] DISPLAY_ITEM_INFO(item_id=0*)
     0x0E8C [0x1B] RETURN
     0x0E8D [0x02] IF !(Work_Zone[2] == 2001*) GOTO 0x0E9C
     0x0E95 [0x1D] PRINT_EVENT_MESSAGE(message_id=7206*)
    → "3 is a wonderful new method of goldsmithing that allows you to enchant precious metals with the mysterious energy of black magic and anima."
     0x0E98 [0x23] WAIT_FOR_DIALOG_INTERACTION
     0x0E99 [0x01] GOTO 0x0ED8
     0x0E9C [0x02] IF !(Work_Zone[2] == 2000*) GOTO 0x0EAB
     0x0EA4 [0x1D] PRINT_EVENT_MESSAGE(message_id=7207*)
    → "3 is a wonderful new method of goldsmithing that allows you to enchant precious metals with the mysterious energy of white magic and anima."
     0x0EA7 [0x23] WAIT_FOR_DIALOG_INTERACTION
     0x0EA8 [0x01] GOTO 0x0ED8
     0x0EAB [0x02] IF !(Work_Zone[2] == 1994*) GOTO 0x0EBA
     0x0EB3 [0x1D] PRINT_EVENT_MESSAGE(message_id=7215*)
    → "3 is a wonderful new method of goldsmithing that allows you to shape softened ingots with a mandrel, making it easier to process more chains with one crystal."
     0x0EB6 [0x23] WAIT_FOR_DIALOG_INTERACTION
     0x0EB7 [0x01] GOTO 0x0ED8
     0x0EBA [0x02] IF !(Work_Zone[2] == 1995*) GOTO 0x0EC9
     0x0EC2 [0x1D] PRINT_EVENT_MESSAGE(message_id=7216*)
    → "3 is a wonderful new method of goldsmithing that allows you to shape softened ingots on a workshop anvil, making it easier to process more sheets with one crystal."
     0x0EC5 [0x23] WAIT_FOR_DIALOG_INTERACTION
     0x0EC6 [0x01] GOTO 0x0ED8
     0x0EC9 [0x02] IF !(Work_Zone[2] == 2002*) GOTO 0x0ED8
     0x0ED1 [0x1D] PRINT_EVENT_MESSAGE(message_id=7217*)
    → "3 is a wonderful new method of goldsmithing that allows you to craft mechanical parts based on the same techniques used to build timepieces."
     0x0ED4 [0x23] WAIT_FOR_DIALOG_INTERACTION
     0x0ED5 [0x01] GOTO 0x0ED8
     0x0ED8 [0x1B] RETURN
```
