# 17739925 - Angelica

## Common Data

| Field            | Value                    |
|------------------|--------------------------|
| Zone             | Bastok Markets (ID: 235) |
| Block Size       | 212 bytes                |
| Total Events     | 11                       |
| References Count | 6                        |

## List of Events

| Event ID                 | Entrypoint   |   Size |   Instructions |
|--------------------------|--------------|--------|----------------|
| [65535](#event-65535)    | 0x0000       |      1 |              1 |
| [65535.1](#event-655351) | 0x0001       |     16 |              2 |
| [65535.2](#event-655352) | 0x0011       |     22 |              4 |
| [65535.3](#event-655353) | 0x0027       |     16 |              2 |
| [65535.4](#event-655354) | 0x0037       |     14 |              2 |
| [65535.5](#event-655355) | 0x0045       |      9 |              3 |
| [65535.6](#event-655356) | 0x004E       |     16 |              2 |
| [65535.7](#event-655357) | 0x005E       |     14 |              2 |
| [403](#event-403)        | 0x006C       |      1 |              1 |
| [404](#event-404)        | 0x006D       |      1 |              1 |
| [65535.8](#event-655358) | 0x006E       |     15 |              3 |

## DAT References (imed_data)

|   Index | Hex Value   |   Dec Value |
|---------|-------------|-------------|
|       0 | 0x0117      |         279 |
|       1 | 0x001E      |          30 |
|       2 | 0xFFFF0395  |  4294902677 |
|       3 | 0xFFFFDD6B  |  4294958443 |
|       4 | 0xFFFFDBDE  |  4294958046 |
|       5 | 0x09DC      |        2524 |

## Events

### Event 65535

#### Metadata

| Field        | Value   |
|--------------|---------|
| Entrypoint   | 0x0000  |
| Data Size    | 1 bytes |
| Instructions | 1       |

```
      00 01 02 03 04 05 06 07  08 09 0A 0B 0C 0D 0E 0F
      -- -- -- -- -- -- -- --  -- -- -- -- -- -- -- --
0000: 00                                                .               
```

#### Opcodes

```
  0: 0x0000 [0x00] END_REQSTACK()
```

### Event 65535.1

#### Metadata

| Field        | Value    |
|--------------|----------|
| Entrypoint   | 0x0001   |
| Data Size    | 16 bytes |
| Instructions | 2        |

```
      00 01 02 03 04 05 06 07  08 09 0A 0B 0C 0D 0E 0F
      -- -- -- -- -- -- -- --  -- -- -- -- -- -- -- --
0000:    5B 00 80 F8 FF FF 7F  F8 FF FF 7F 70 72 65 30   [..........pre0
0010: 00                                                .               
```

#### Opcodes

```
  0: 0x0001 [0x5B] LOAD_EXT_SCHEDULER: Load scheduler "pre0" with entities [EventEntity, EventEntity], work=279*
  1: 0x0010 [0x00] END_REQSTACK()
```

### Event 65535.2

#### Metadata

| Field        | Value    |
|--------------|----------|
| Entrypoint   | 0x0011   |
| Data Size    | 22 bytes |
| Instructions | 4        |

```
      00 01 02 03 04 05 06 07  08 09 0A 0B 0C 0D 0E 0F
      -- -- -- -- -- -- -- --  -- -- -- -- -- -- -- --
0010:    53 F8 FF FF 7F F8 FF  FF 7F 70 72 65 30 5E 69   S........pre0^i
0020: 64 6C 30 1C 01 80 00                              dl0....         
```

#### Opcodes

```
  0: 0x0011 [0x53] WAIT_SCHEDULER_TASK: Wait for scheduler "pre0" with entities [EventEntity, EventEntity]
  1: 0x001E [0x5E] EventEntity goes idle (kills current action) (animation: "idl0")
  2: 0x0023 [0x1C] WAIT(30* ticks)
  3: 0x0026 [0x00] END_REQSTACK()
```

### Event 65535.3

#### Metadata

| Field        | Value    |
|--------------|----------|
| Entrypoint   | 0x0027   |
| Data Size    | 16 bytes |
| Instructions | 2        |

```
      00 01 02 03 04 05 06 07  08 09 0A 0B 0C 0D 0E 0F
      -- -- -- -- -- -- -- --  -- -- -- -- -- -- -- --
0020:                      5B  00 80 F8 FF FF 7F F8 FF         [........
0030: FF 7F 70 72 65 31 00                              ..pre1.         
```

#### Opcodes

```
  0: 0x0027 [0x5B] LOAD_EXT_SCHEDULER: Load scheduler "pre1" with entities [EventEntity, EventEntity], work=279*
  1: 0x0036 [0x00] END_REQSTACK()
```

### Event 65535.4

#### Metadata

| Field        | Value    |
|--------------|----------|
| Entrypoint   | 0x0037   |
| Data Size    | 14 bytes |
| Instructions | 2        |

```
      00 01 02 03 04 05 06 07  08 09 0A 0B 0C 0D 0E 0F
      -- -- -- -- -- -- -- --  -- -- -- -- -- -- -- --
0030:                      53  F8 FF FF 7F F8 FF FF 7F         S........
0040: 70 72 65 31 00                                    pre1.           
```

#### Opcodes

```
  0: 0x0037 [0x53] WAIT_SCHEDULER_TASK: Wait for scheduler "pre1" with entities [EventEntity, EventEntity]
  1: 0x0044 [0x00] END_REQSTACK()
```

### Event 65535.5

#### Metadata

| Field        | Value   |
|--------------|---------|
| Entrypoint   | 0x0045  |
| Data Size    | 9 bytes |
| Instructions | 3       |

```
      00 01 02 03 04 05 06 07  08 09 0A 0B 0C 0D 0E 0F
      -- -- -- -- -- -- -- --  -- -- -- -- -- -- -- --
0040:                5E 69 64  6C 30 1C 01 80 00             ^idl0....  
```

#### Opcodes

```
  0: 0x0045 [0x5E] EventEntity goes idle (kills current action) (animation: "idl0")
  1: 0x004A [0x1C] WAIT(30* ticks)
  2: 0x004D [0x00] END_REQSTACK()
```

### Event 65535.6

#### Metadata

| Field        | Value    |
|--------------|----------|
| Entrypoint   | 0x004E   |
| Data Size    | 16 bytes |
| Instructions | 2        |

```
      00 01 02 03 04 05 06 07  08 09 0A 0B 0C 0D 0E 0F
      -- -- -- -- -- -- -- --  -- -- -- -- -- -- -- --
0040:                                            5B 00                [.
0050: 80 F8 FF FF 7F F8 FF FF  7F 70 72 65 30 00        .........pre0.  
```

#### Opcodes

```
  0: 0x004E [0x5B] LOAD_EXT_SCHEDULER: Load scheduler "pre0" with entities [EventEntity, EventEntity], work=279*
  1: 0x005D [0x00] END_REQSTACK()
```

### Event 65535.7

#### Metadata

| Field        | Value    |
|--------------|----------|
| Entrypoint   | 0x005E   |
| Data Size    | 14 bytes |
| Instructions | 2        |

```
      00 01 02 03 04 05 06 07  08 09 0A 0B 0C 0D 0E 0F
      -- -- -- -- -- -- -- --  -- -- -- -- -- -- -- --
0050:                                            53 F8                S.
0060: FF FF 7F F8 FF FF 7F 70  72 65 30 00              .......pre0.    
```

#### Opcodes

```
  0: 0x005E [0x53] WAIT_SCHEDULER_TASK: Wait for scheduler "pre0" with entities [EventEntity, EventEntity]
  1: 0x006B [0x00] END_REQSTACK()
```

### Event 403

#### Metadata

| Field        | Value   |
|--------------|---------|
| Entrypoint   | 0x006C  |
| Data Size    | 1 bytes |
| Instructions | 1       |

```
      00 01 02 03 04 05 06 07  08 09 0A 0B 0C 0D 0E 0F
      -- -- -- -- -- -- -- --  -- -- -- -- -- -- -- --
0060:                                      00                       .   
```

#### Opcodes

```
  0: 0x006C [0x00] END_REQSTACK()
```

### Event 404

#### Metadata

| Field        | Value   |
|--------------|---------|
| Entrypoint   | 0x006D  |
| Data Size    | 1 bytes |
| Instructions | 1       |

```
      00 01 02 03 04 05 06 07  08 09 0A 0B 0C 0D 0E 0F
      -- -- -- -- -- -- -- --  -- -- -- -- -- -- -- --
0060:                                         00                     .  
```

#### Opcodes

```
  0: 0x006D [0x00] END_REQSTACK()
```

### Event 65535.8

#### Metadata

| Field        | Value    |
|--------------|----------|
| Entrypoint   | 0x006E   |
| Data Size    | 15 bytes |
| Instructions | 3        |

```
      00 01 02 03 04 05 06 07  08 09 0A 0B 0C 0D 0E 0F
      -- -- -- -- -- -- -- --  -- -- -- -- -- -- -- --
0060:                                            37 02                7.
0070: 80 03 80 04 80 05 80 80  F8 FF FF 7F 00           .............   
```

#### Opcodes

```
  0: 0x006E [0x37] UPDATE_EVENT_POSITION_AND_DIR: x=-64.619*, z=-8.853*, y=-9.250*, direction=221.8°*
  1: 0x0077 [0x80] LOAD_WAIT(entity=EventEntity)
  2: 0x007C [0x00] END_REQSTACK()
```
