# 17739951 - Voidwatch Officer

## Common Data

| Field            | Value                    |
|------------------|--------------------------|
| Zone             | Bastok Markets (ID: 235) |
| Block Size       | 21596 bytes              |
| Total Events     | 14                       |
| References Count | 324                      |

## List of Events

| Event ID                 | Entrypoint   |   Size |   Instructions |
|--------------------------|--------------|--------|----------------|
| [65535](#event-65535)    | 0x0000       |      1 |              1 |
| [11](#event-11)          | 0x0001       |    631 |             89 |
| [12](#event-12)          | 0x0278       |   1377 |            200 |
| [13](#event-13)          | 0x07D9       |   1377 |            200 |
| [16](#event-16)          | 0x0D3A       |    640 |             84 |
| [17](#event-17)          | 0x0FBA       |    640 |             84 |
| [18](#event-18)          | 0x123A       |    600 |             83 |
| [19](#event-19)          | 0x1492       |    600 |             83 |
| [21](#event-21)          | 0x16EA       |   2034 |            261 |
| [9](#event-9)            | 0x1EDC       |  12089 |           2444 |
| [65535.1](#event-655351) | 0x4E15       |     24 |              4 |
| [65535.2](#event-655352) | 0x4E2D       |     24 |              4 |
| [65535.3](#event-655353) | 0x4E45       |    190 |             38 |
| [24](#event-24)          | 0x4F03       |      1 |              1 |

## DAT References (imed_data)

|   Index | Hex Value   |   Dec Value |
|---------|-------------|-------------|
|       0 | 0x0013      |          19 |
|       1 | 0x0001      |           1 |
|       2 | 0xFFFE61D9  |  4294861273 |
|       3 | 0xFFFFB95C  |  4294949212 |
|       4 | 0x07CF      |        1999 |
|       5 | 0x0C30      |        3120 |
|       6 | 0x0002      |           2 |
|       7 | 0xFFFA992D  |  4294613293 |
|       8 | 0xFFFD80EF  |  4294803695 |
|       9 | 0xFFFFD8E5  |  4294957285 |
|      10 | 0x0DEC      |        3564 |
|      11 | 0x0003      |           3 |
|      12 | 0xFFFF8E82  |  4294938242 |
|      13 | 0x36C6A     |      224362 |
|      14 | 0xFFFFED2F  |  4294962479 |
|      15 | 0x0E65      |        3685 |
|      16 | 0x0004      |           4 |
|      17 | 0x18894     |      100500 |
|      18 | 0xFFFF9B6E  |  4294941550 |
|      19 | 0x0D53      |        3411 |
|      20 | 0x0005      |           5 |
|      21 | 0xFFFC3A4F  |  4294720079 |
|      22 | 0x11F1F     |       73503 |
|      23 | 0x0000      |           0 |
|      24 | 0x081C      |        2076 |
|      25 | 0x0006      |           6 |
|      26 | 0xFFFF8C5C  |  4294937692 |
|      27 | 0x36F87     |      225159 |
|      28 | 0xFFFFED0D  |  4294962445 |
|      29 | 0x0F8E      |        3982 |
|      30 | 0x001E      |          30 |
|      31 | 0x0241      |         577 |
|      32 | 0x3642      |       13890 |
|      33 | 0x3644      |       13892 |
|      34 | 0x000F      |          15 |
|      35 | 0x3647      |       13895 |
|      36 | 0x3645      |       13893 |
|      37 | 0x3646      |       13894 |
|      38 | 0x0007      |           7 |
|      39 | 0x3643      |       13891 |
|      40 | 0x00C8      |         200 |
|      41 | 0x000A      |          10 |
|      42 | 0x6869B     |      427675 |
|      43 | 0xFFFDF1D9  |  4294832601 |
|      44 | 0x2037      |        8247 |
|      45 | 0x01B9      |         441 |
|      46 | 0x000B      |          11 |
|      47 | 0x2E65F     |      190047 |
|      48 | 0x70C0B     |      461835 |
|      49 | 0x6018      |       24600 |
|      50 | 0x0E1B      |        3611 |
|      51 | 0x000C      |          12 |
|      52 | 0xFFF94D9F  |  4294528415 |
|      53 | 0x514F8     |      333048 |
|      54 | 0x01F3      |         499 |
|      55 | 0x0809      |        2057 |
|      56 | 0x000D      |          13 |
|      57 | 0xFFFDF4AC  |  4294833324 |
|      58 | 0x1FEF      |        8175 |
|      59 | 0x01C6      |         454 |
|      60 | 0x000E      |          14 |
|      61 | 0x2E3D0     |      189392 |
|      62 | 0x70483     |      459907 |
|      63 | 0x5FD6      |       24534 |
|      64 | 0x0E04      |        3588 |
|      65 | 0xFFF94CB1  |  4294528177 |
|      66 | 0x514B2     |      332978 |
|      67 | 0x01EC      |         492 |
|      68 | 0x0808      |        2056 |
|      69 | 0x0010      |          16 |
|      70 | 0x23845     |      145477 |
|      71 | 0xFFF9BE2F  |  4294557231 |
|      72 | 0x5276      |       21110 |
|      73 | 0x0826      |        2086 |
|      74 | 0x3648      |       13896 |
|      75 | 0x3649      |       13897 |
|      76 | 0x364A      |       13898 |
|      77 | 0x364B      |       13899 |
|      78 | 0x364C      |       13900 |
|      79 | 0x364D      |       13901 |
|      80 | 0x3666      |       13926 |
|      81 | 0x3667      |       13927 |
|      82 | 0x00C9      |         201 |
|      83 | 0x002D      |          45 |
|      84 | 0x00D7      |         215 |
|      85 | 0x0008      |           8 |
|      86 | 0x0011      |          17 |
|      87 | 0x0012      |          18 |
|      88 | 0x0014      |          20 |
|      89 | 0x0015      |          21 |
|      90 | 0x0017      |          23 |
|      91 | 0x363A      |       13882 |
|      92 | 0x363B      |       13883 |
|      93 | 0x363C      |       13884 |
|      94 | 0x0009      |           9 |
|      95 | 0x363D      |       13885 |
|      96 | 0x363E      |       13886 |
|      97 | 0x363F      |       13887 |
|      98 | 0x3640      |       13888 |
|      99 | 0x3597      |       13719 |
|     100 | 0x004B      |          75 |
|     101 | 0x359E      |       13726 |
|     102 | 0x359F      |       13727 |
|     103 | 0x0028      |          40 |
|     104 | 0x3598      |       13720 |
|     105 | 0x0603      |        1539 |
|     106 | 0x3599      |       13721 |
|     107 | 0x40000000  |  1073741824 |
|     108 | 0x35D0      |       13776 |
|     109 | 0x35D1      |       13777 |
|     110 | 0x35D2      |       13778 |
|     111 | 0x35D3      |       13779 |
|     112 | 0x35D4      |       13780 |
|     113 | 0x35D5      |       13781 |
|     114 | 0x35D6      |       13782 |
|     115 | 0x35D7      |       13783 |
|     116 | 0x35D8      |       13784 |
|     117 | 0x35D9      |       13785 |
|     118 | 0x35DA      |       13786 |
|     119 | 0x35DB      |       13787 |
|     120 | 0x35DC      |       13788 |
|     121 | 0x35DD      |       13789 |
|     122 | 0x35DE      |       13790 |
|     123 | 0x35DF      |       13791 |
|     124 | 0x35E0      |       13792 |
|     125 | 0x35E1      |       13793 |
|     126 | 0x0023      |          35 |
|     127 | 0x35E2      |       13794 |
|     128 | 0x35E3      |       13795 |
|     129 | 0x35E4      |       13796 |
|     130 | 0x35E5      |       13797 |
|     131 | 0x35E6      |       13798 |
|     132 | 0x35E7      |       13799 |
|     133 | 0x35E8      |       13800 |
|     134 | 0x35E9      |       13801 |
|     135 | 0x35EA      |       13802 |
|     136 | 0x35EB      |       13803 |
|     137 | 0x35EC      |       13804 |
|     138 | 0x35ED      |       13805 |
|     139 | 0x35EE      |       13806 |
|     140 | 0x35EF      |       13807 |
|     141 | 0x35F0      |       13808 |
|     142 | 0x35F1      |       13809 |
|     143 | 0x35F2      |       13810 |
|     144 | 0x35F3      |       13811 |
|     145 | 0x35F4      |       13812 |
|     146 | 0x35F5      |       13813 |
|     147 | 0x35F6      |       13814 |
|     148 | 0x35F7      |       13815 |
|     149 | 0x35F8      |       13816 |
|     150 | 0x35F9      |       13817 |
|     151 | 0x35FA      |       13818 |
|     152 | 0x35FB      |       13819 |
|     153 | 0x35FC      |       13820 |
|     154 | 0x35FD      |       13821 |
|     155 | 0x35FE      |       13822 |
|     156 | 0x0D6A      |        3434 |
|     157 | 0x0D6B      |        3435 |
|     158 | 0x35FF      |       13823 |
|     159 | 0x3600      |       13824 |
|     160 | 0x3601      |       13825 |
|     161 | 0x3602      |       13826 |
|     162 | 0x3603      |       13827 |
|     163 | 0x3604      |       13828 |
|     164 | 0x3605      |       13829 |
|     165 | 0x3606      |       13830 |
|     166 | 0x3607      |       13831 |
|     167 | 0x3608      |       13832 |
|     168 | 0x3609      |       13833 |
|     169 | 0x360A      |       13834 |
|     170 | 0x360B      |       13835 |
|     171 | 0x360C      |       13836 |
|     172 | 0x360D      |       13837 |
|     173 | 0x360E      |       13838 |
|     174 | 0x360F      |       13839 |
|     175 | 0x3610      |       13840 |
|     176 | 0x3611      |       13841 |
|     177 | 0x3612      |       13842 |
|     178 | 0x3613      |       13843 |
|     179 | 0x3614      |       13844 |
|     180 | 0x3615      |       13845 |
|     181 | 0x3616      |       13846 |
|     182 | 0x3617      |       13847 |
|     183 | 0x3618      |       13848 |
|     184 | 0x0D7A      |        3450 |
|     185 | 0x3619      |       13849 |
|     186 | 0x361A      |       13850 |
|     187 | 0x361B      |       13851 |
|     188 | 0x361C      |       13852 |
|     189 | 0x35A2      |       13730 |
|     190 | 0x35A3      |       13731 |
|     191 | 0x35A4      |       13732 |
|     192 | 0x35A5      |       13733 |
|     193 | 0x361D      |       13853 |
|     194 | 0x35B3      |       13747 |
|     195 | 0x361E      |       13854 |
|     196 | 0x361F      |       13855 |
|     197 | 0x3620      |       13856 |
|     198 | 0x3621      |       13857 |
|     199 | 0x3622      |       13858 |
|     200 | 0x3623      |       13859 |
|     201 | 0x3624      |       13860 |
|     202 | 0x3625      |       13861 |
|     203 | 0x3626      |       13862 |
|     204 | 0x3627      |       13863 |
|     205 | 0x3628      |       13864 |
|     206 | 0x3629      |       13865 |
|     207 | 0x362A      |       13866 |
|     208 | 0x362B      |       13867 |
|     209 | 0x362C      |       13868 |
|     210 | 0x362D      |       13869 |
|     211 | 0x362E      |       13870 |
|     212 | 0x362F      |       13871 |
|     213 | 0x3630      |       13872 |
|     214 | 0x3631      |       13873 |
|     215 | 0x3632      |       13874 |
|     216 | 0x3633      |       13875 |
|     217 | 0x00FF      |         255 |
|     218 | 0x001F      |          31 |
|     219 | 0x0100      |         256 |
|     220 | 0x359A      |       13722 |
|     221 | 0x359B      |       13723 |
|     222 | 0x359C      |       13724 |
|     223 | 0x359D      |       13725 |
|     224 | 0x0801      |        2049 |
|     225 | 0x364E      |       13902 |
|     226 | 0x364F      |       13903 |
|     227 | 0x3650      |       13904 |
|     228 | 0x0802      |        2050 |
|     229 | 0x35A0      |       13728 |
|     230 | 0x35A1      |       13729 |
|     231 | 0x35A6      |       13734 |
|     232 | 0x35A7      |       13735 |
|     233 | 0x35A8      |       13736 |
|     234 | 0x35A9      |       13737 |
|     235 | 0x35AA      |       13738 |
|     236 | 0x35AB      |       13739 |
|     237 | 0x35AC      |       13740 |
|     238 | 0x35AD      |       13741 |
|     239 | 0x35AE      |       13742 |
|     240 | 0x35AF      |       13743 |
|     241 | 0x35B0      |       13744 |
|     242 | 0x35B1      |       13745 |
|     243 | 0x35B2      |       13746 |
|     244 | 0x35B4      |       13748 |
|     245 | 0x35B5      |       13749 |
|     246 | 0x35B6      |       13750 |
|     247 | 0x35B8      |       13752 |
|     248 | 0x35B7      |       13751 |
|     249 | 0x0064      |         100 |
|     250 | 0x3668      |       13928 |
|     251 | 0x0806      |        2054 |
|     252 | 0x0807      |        2055 |
|     253 | 0x3651      |       13905 |
|     254 | 0x05A4      |        1444 |
|     255 | 0x3652      |       13906 |
|     256 | 0x3653      |       13907 |
|     257 | 0x3654      |       13908 |
|     258 | 0x3656      |       13910 |
|     259 | 0x3657      |       13911 |
|     260 | 0x3658      |       13912 |
|     261 | 0x3659      |       13913 |
|     262 | 0x365A      |       13914 |
|     263 | 0x365C      |       13916 |
|     264 | 0x365D      |       13917 |
|     265 | 0x365E      |       13918 |
|     266 | 0x365F      |       13919 |
|     267 | 0x3661      |       13921 |
|     268 | 0x3662      |       13922 |
|     269 | 0x3663      |       13923 |
|     270 | 0x3665      |       13925 |
|     271 | 0x35B9      |       13753 |
|     272 | 0x35BA      |       13754 |
|     273 | 0x35BB      |       13755 |
|     274 | 0x003C      |          60 |
|     275 | 0x35BC      |       13756 |
|     276 | 0x35BF      |       13759 |
|     277 | 0x0BB8      |        3000 |
|     278 | 0x0D6C      |        3436 |
|     279 | 0x06EE      |        1774 |
|     280 | 0xC350      |       50000 |
|     281 | 0x06F1      |        1777 |
|     282 | 0x249F0     |      150000 |
|     283 | 0x06F2      |        1778 |
|     284 | 0x073E      |        1854 |
|     285 | 0x073F      |        1855 |
|     286 | 0x0614      |        1556 |
|     287 | 0x50910     |      330000 |
|     288 | 0x0615      |        1557 |
|     289 | 0x0616      |        1558 |
|     290 | 0x35C0      |       13760 |
|     291 | 0x35C1      |       13761 |
|     292 | 0x0063      |          99 |
|     293 | 0x3669      |       13929 |
|     294 | 0x366A      |       13930 |
|     295 | 0x35C8      |       13768 |
|     296 | 0x35C9      |       13769 |
|     297 | 0x35CA      |       13770 |
|     298 | 0x35CB      |       13771 |
|     299 | 0x35CC      |       13772 |
|     300 | 0x35CD      |       13773 |
|     301 | 0x35CE      |       13774 |
|     302 | 0x35CF      |       13775 |
|     303 | 0x35C2      |       13762 |
|     304 | 0x35C3      |       13763 |
|     305 | 0x0016      |          22 |
|     306 | 0x35C4      |       13764 |
|     307 | 0x016E      |         366 |
|     308 | 0x016F      |         367 |
|     309 | 0x0170      |         368 |
|     310 | 0x0171      |         369 |
|     311 | 0x0172      |         370 |
|     312 | 0x0173      |         371 |
|     313 | 0x0174      |         372 |
|     314 | 0x0175      |         373 |
|     315 | 0x0176      |         374 |
|     316 | 0x0177      |         375 |
|     317 | 0x0178      |         376 |
|     318 | 0x0179      |         377 |
|     319 | 0x05A5      |        1445 |
|     320 | 0x05A6      |        1446 |
|     321 | 0x0046      |          70 |
|     322 | 0x008C      |         140 |
|     323 | 0x00D2      |         210 |

## String References

- **13721**: What will you do? [Nothing for now./Ask a bunch of questions./Participate in Voidwatch Ops./Request debriefing./Request $3./Check voidstone stock./Request reward issuance.]
- **13727**: You must be at least level $0 to participate in Voidwatch.
- **13753**: How many would you like? [None./Just one./Fill me up!]
- **13760**: Exchange for what? (Cruor: $0) [Nothing right now./$1: $2./$3: $4./$5: $6./$7: $8./$9: $10./$11: $12./$13: $14./$15: $16./$3: $18./$3: $20./$3: $22./$3: $24./$3: $26./$3: $28./$3: $30./$3: $ .]
- **13763**: Proceed? (Required Cruor: $0) [Yes./No.]
- **13768**: This periapt allows the bearer to infuse an additional atmacite for each one possessed.
- **13769**: This periapt grants the bearer heightened insight into Voidwalker weaknesses against weapon skills and abilities.
- **13770**: This periapt grants the bearer heightened insight into Voidwalker weaknesses against magic.
- **13771**: This periapt enhances the effect granted by a periapt of guidance.
- **13772**: This periapt enhances the effect granted by a periapt of percipience.
- **13773**: A bewitching light shines forth from within the crystallized walls of this fragment ripped from a Voidwalker, as if beckoning its bearer to come hither.
- **13774**: A tantalizing light shines forth from within the crystallized walls of this fragment ripped from a Voidwalker, as if appealing to its bearer's most ardent desires.
- **13775**: A crazed light shines forth from within the crystallized walls of this fragment ripped from a Voidwalker, as if seeking to breach the bearer's last bastion of sanity.
- **13776**: What will you ask about? [Nothing./The Voidwalker threat./How I can do my part./The Voidwatch./Voidwatchers./Ascent items./Riftworn pyxides./5./Stratum abyssite./Planar rifts./Cruor./Abyssite./Voidstone consumption.]
- **13873**: Select where voidstones will be consumed from.
- **13874**: Set to which? [Key items./Stock.]
- **13875**: Voidstones will now be taken from [your key items/the stock].
- **13882**: Voidwatch debug menu. [Exit./Alter participation status./Alter jurisdiction./Alter stratum./Alter abyssite receipt level.]
- **13883**: $Q%AI$P15O$X
- **13884**: Jurisdiction menu. [Back to the top./San d'Oria./Bastok./Windurst./Past San d'Oria./Past Bastok./Past Windurst./Batallia Downs./Rolanberry Fields./Sauromugue Champaign./Past Batallia./Past Rolanberry./Past Sauromugue./Qufim.]
- **13885**: Jurisdiction changed to [San d'Oria/Bastok/Windurst/Past San d'Oria/Past Bastok/Past Windurst/Batallia/Rolanberry/Sauromugue/Past Batallia/Past Rolanberry/Past Sauromugue].
- **13886**: Stratum menu. [Back to the top./Stage 1./Stage 2./Stage 3./Stage 4.]
- **13887**: Stratum changed to [Stage 1/Stage 2/Stage 3/Stage 4].
- **13888**: Abyssite receipt level. [Back to the top./1st time./2nd time and onwards/Abyssite evolution./2nd abyssite evolution and onwards.]
- **13907**: What will it be, soldier? [Ready for battle, sir!/I need a briefing, sir!]
- **13928**: You may also undertake this operation at Beaucedine Glacier.
- **13929**: How many? (Cruor: $0)
- **13930**: You may purchase up to $2 at a time.

## Events

### Event 65535

#### Metadata

| Field        | Value   |
|--------------|---------|
| Entrypoint   | 0x0000  |
| Data Size    | 1 bytes |
| Instructions | 1       |

```
      00 01 02 03 04 05 06 07  08 09 0A 0B 0C 0D 0E 0F
      -- -- -- -- -- -- -- --  -- -- -- -- -- -- -- --
0000: 00                                                .               
```

#### Opcodes

```
  0: 0x0000 [0x00] END_REQSTACK()
```

### Event 11

#### Metadata

| Field        | Value     |
|--------------|-----------|
| Entrypoint   | 0x0001    |
| Data Size    | 631 bytes |
| Instructions | 89        |

```
      00 01 02 03 04 05 06 07  08 09 0A 0B 0C 0D 0E 0F
      -- -- -- -- -- -- -- --  -- -- -- -- -- -- -- --
0000:    42 1A AE 1C 03 00 00  02 10 46 01 38 00 80 92   B........F.8...
0010: 01 AF B0 0E 01 94 01 F0  FF FF 7F 94 01 AF B0 0E  ................
0020: 01 02 00 00 01 80 80 39  00 BA F0 FF FF 7F 02 80  .......9........
0030: 03 80 04 80 05 80 01 B1  00 02 00 00 06 80 80 51  ...............Q
0040: 00 BA F0 FF FF 7F 07 80  08 80 09 80 0A 80 01 B1  ................
0050: 00 02 00 00 0B 80 80 69  00 BA F0 FF FF 7F 0C 80  .......i........
0060: 0D 80 0E 80 0F 80 01 B1  00 02 00 00 10 80 80 81  ................
0070: 00 BA F0 FF FF 7F 11 80  12 80 04 80 13 80 01 B1  ................
0080: 00 02 00 00 14 80 80 99  00 BA F0 FF FF 7F 15 80  ................
0090: 16 80 17 80 18 80 01 B1  00 02 00 00 19 80 80 B1  ................
00A0: 00 BA F0 FF FF 7F 1A 80  1B 80 1C 80 1D 80 01 B1  ................
00B0: 00 80 F0 FF FF 7F 80 AF  B0 0E 01 4A F0 FF FF 7F  ...........J....
00C0: AF B0 0E 01 4A AF B0 0E  01 F0 FF FF 7F 6F 76 AF  ....J........ov.
00D0: B0 0E 01 1C 1E 80 02 00  00 01 80 80 F2 00 45 1F  ..............E.
00E0: 80 F0 FF FF 7F F0 FF FF  7F 63 70 30 31 17 80 01  .........cp01...
00F0: 7E 01 02 00 00 06 80 80  0E 01 45 1F 80 F0 FF FF  ~.........E.....
0100: 7F F0 FF FF 7F 63 70 30  32 17 80 01 7E 01 02 00  .....cp02...~...
0110: 00 0B 80 80 2A 01 45 1F  80 F0 FF FF 7F F0 FF FF  ....*.E.........
0120: 7F 63 70 30 33 17 80 01  7E 01 02 00 00 10 80 80  .cp03...~.......
0130: 46 01 45 1F 80 F0 FF FF  7F F0 FF FF 7F 63 70 30  F.E..........cp0
0140: 34 17 80 01 7E 01 02 00  00 14 80 80 62 01 45 1F  4...~.......b.E.
0150: 80 F0 FF FF 7F F0 FF FF  7F 63 70 30 35 17 80 01  .........cp05...
0160: 7E 01 02 00 00 19 80 80  7E 01 45 1F 80 F0 FF FF  ~.......~.E.....
0170: 7F F0 FF FF 7F 63 70 30  36 17 80 01 7E 01 1A 8D  .....cp06...~...
0180: 1C 2B AF B0 0E 01 20 80  23 29 10 AF B0 0E 01 0C  .+.... .#)......
0190: 02 00 00 10 80 04 D4 01  29 10 AF B0 0E 01 0A 2B  ........)......+
01A0: AF B0 0E 01 21 80 23 02  00 00 22 80 00 BA 01 2B  ....!.#..."....+
01B0: AF B0 0E 01 23 80 23 01  C2 01 2B AF B0 0E 01 24  ....#.#...+....$
01C0: 80 23 29 10 AF B0 0E 01  0B 2B AF B0 0E 01 25 80  .#)......+....%.
01D0: 23 01 E8 01 6E AF B0 0E  01 26 80 99 AF B0 0E 01  #...n....&......
01E0: 2B AF B0 0E 01 27 80 23  1A AE 1C 1C 1E 80 52 1F  +....'.#......R.
01F0: 80 F0 FF FF 7F F0 FF FF  7F 63 70 30 31 52 1F 80  .........cp01R..
0200: F0 FF FF 7F F0 FF FF 7F  63 70 30 32 52 1F 80 F0  ........cp02R...
0210: FF FF 7F F0 FF FF 7F 63  70 30 33 52 1F 80 F0 FF  .......cp03R....
0220: FF 7F F0 FF FF 7F 63 70  30 34 52 1F 80 F0 FF FF  ......cp04R.....
0230: 7F F0 FF FF 7F 63 70 30  35 52 1F 80 F0 FF FF 7F  .....cp05R......
0240: F0 FF FF 7F 63 70 30 36  45 1F 80 F0 FF FF 7F F0  ....cp06E.......
0250: FF FF 7F 30 62 6C 66 17  80 1C 22 80 AB 11 17 80  ...0blf...".....
0260: 1C 01 80 46 00 45 28 80  F0 FF FF 7F F0 FF FF 7F  ...F.E(.........
0270: 66 64 69 32 17 80 21 00                           fdi2..!.        
```

#### Opcodes

```
  0: 0x0001 [0x42] SET_CLI_EVENT_CANCEL_DATA()
  1: 0x0002 [0x1A] CALL_SUBROUTINE(address=0x1CAE)
  2: 0x0005 [0x03] ExtData[1]->WorkLocal[0] = Work_Zone[2]
  3: 0x000A [0x46] CAMERA_CONTROL: Disable user control
  4: 0x000C [0x38] SET_CLIENT_EVENT_MODE(mode=19*)
  5: 0x000F [0x92] Voidwatch Officer (ID: 17739951/0x010EB0AF)->Render.Flags3 ^= 0x01
  6: 0x0015 [0x94] LocalPlayer->Render.Flags3 ^= 0x01
  7: 0x001B [0x94] Voidwatch Officer (ID: 17739951/0x010EB0AF)->Render.Flags3 ^= 0x01
  8: 0x0021 [0x02] IF !(ExtData[1]->WorkLocal[0] == 1*) GOTO 0x0039
  9: 0x0029 [0xBA] SET_ENTITY_POSITION(entity_id=LocalPlayer, pos_x=-106.023*, pos_z=-18.084*, pos_y=1.999*, direction=274.2°*)
 10: 0x0036 [0x01] GOTO 0x00B1
 11: 0x0039 [0x02] IF !(ExtData[1]->WorkLocal[0] == 2*) GOTO 0x0051
 12: 0x0041 [0xBA] SET_ENTITY_POSITION(entity_id=LocalPlayer, pos_x=-354.003*, pos_z=-163.601*, pos_y=-10.011*, direction=313.2°*)
 13: 0x004E [0x01] GOTO 0x00B1
 14: 0x0051 [0x02] IF !(ExtData[1]->WorkLocal[0] == 3*) GOTO 0x0069
 15: 0x0059 [0xBA] SET_ENTITY_POSITION(entity_id=LocalPlayer, pos_x=-29.054*, pos_z=224.362*, pos_y=-4.817*, direction=323.9°*)
 16: 0x0066 [0x01] GOTO 0x00B1
 17: 0x0069 [0x02] IF !(ExtData[1]->WorkLocal[0] == 4*) GOTO 0x0081
 18: 0x0071 [0xBA] SET_ENTITY_POSITION(entity_id=LocalPlayer, pos_x=100.500*, pos_z=-25.746*, pos_y=1.999*, direction=299.8°*)
 19: 0x007E [0x01] GOTO 0x00B1
 20: 0x0081 [0x02] IF !(ExtData[1]->WorkLocal[0] == 5*) GOTO 0x0099
 21: 0x0089 [0xBA] SET_ENTITY_POSITION(entity_id=LocalPlayer, pos_x=-247.217*, pos_z=73.503*, pos_y=0.000*, direction=182.5°*)
 22: 0x0096 [0x01] GOTO 0x00B1
 23: 0x0099 [0x02] IF !(ExtData[1]->WorkLocal[0] == 6*) GOTO 0x00B1
 24: 0x00A1 [0xBA] SET_ENTITY_POSITION(entity_id=LocalPlayer, pos_x=-29.604*, pos_z=225.159*, pos_y=-4.851*, direction=350.0°*)
 25: 0x00AE [0x01] GOTO 0x00B1

SUBROUTINE_00B1:
 26: 0x00B1 [0x80] LOAD_WAIT(entity=LocalPlayer)
 27: 0x00B6 [0x80] LOAD_WAIT(entity=Voidwatch Officer (ID: 17739951/0x010EB0AF))
 28: 0x00BB [0x4A] LocalPlayer looks at Voidwatch Officer (ID: 17739951/0x010EB0AF)
 29: 0x00C4 [0x4A] Voidwatch Officer (ID: 17739951/0x010EB0AF) looks at LocalPlayer
 30: 0x00CD [0x6F] WAIT_FRAME_DELAY: Yield until WaitTime reaches zero
 31: 0x00CE [0x76] CHECK_ENTITY_RENDER_FLAGS: Wait until Voidwatch Officer (ID: 17739951/0x010EB0AF) Render.Flags0 and Render.Flags3 conditions are met
 32: 0x00D3 [0x1C] WAIT(30* ticks)
 33: 0x00D6 [0x02] IF !(ExtData[1]->WorkLocal[0] == 1*) GOTO 0x00F2
 34: 0x00DE [0x45] LOAD_SCHEDULED_TASK: Load scheduler "cp01" with entities [LocalPlayer, LocalPlayer], work=[577*, 0*]
 35: 0x00EF [0x01] GOTO 0x017E
 36: 0x00F2 [0x02] IF !(ExtData[1]->WorkLocal[0] == 2*) GOTO 0x010E
 37: 0x00FA [0x45] LOAD_SCHEDULED_TASK: Load scheduler "cp02" with entities [LocalPlayer, LocalPlayer], work=[577*, 0*]
 38: 0x010B [0x01] GOTO 0x017E
 39: 0x010E [0x02] IF !(ExtData[1]->WorkLocal[0] == 3*) GOTO 0x012A
 40: 0x0116 [0x45] LOAD_SCHEDULED_TASK: Load scheduler "cp03" with entities [LocalPlayer, LocalPlayer], work=[577*, 0*]
 41: 0x0127 [0x01] GOTO 0x017E
 42: 0x012A [0x02] IF !(ExtData[1]->WorkLocal[0] == 4*) GOTO 0x0146
 43: 0x0132 [0x45] LOAD_SCHEDULED_TASK: Load scheduler "cp04" with entities [LocalPlayer, LocalPlayer], work=[577*, 0*]
 44: 0x0143 [0x01] GOTO 0x017E
 45: 0x0146 [0x02] IF !(ExtData[1]->WorkLocal[0] == 5*) GOTO 0x0162
 46: 0x014E [0x45] LOAD_SCHEDULED_TASK: Load scheduler "cp05" with entities [LocalPlayer, LocalPlayer], work=[577*, 0*]
 47: 0x015F [0x01] GOTO 0x017E
 48: 0x0162 [0x02] IF !(ExtData[1]->WorkLocal[0] == 6*) GOTO 0x017E
 49: 0x016A [0x45] LOAD_SCHEDULED_TASK: Load scheduler "cp06" with entities [LocalPlayer, LocalPlayer], work=[577*, 0*]
 50: 0x017B [0x01] GOTO 0x017E

SUBROUTINE_017E:
 51: 0x017E [0x1A] CALL_SUBROUTINE(address=0x1C8D)
 52: 0x0181 [0x2B] Voidwatch Officer (ID: 17739951/0x010EB0AF) [13890*]:
    → "At attention, soldier! I've received an urgent alarum calling our best men to arms, and guess whose name is listed front and center? You're to report to Jeuno for further orders immediately."
 53: 0x0188 [0x23] WAIT_FOR_DIALOG_INTERACTION
 54: 0x0189 [0x29] REQ_SET_WAIT(priority=0x10, entity_id=Voidwatch Officer (ID: 17739951/0x010EB0AF), tag_num=0x0C)
 55: 0x0190 [0x02] IF !(ExtData[1]->WorkLocal[0] < 4*) GOTO 0x01D4
 56: 0x0198 [0x29] REQ_SET_WAIT(priority=0x10, entity_id=Voidwatch Officer (ID: 17739951/0x010EB0AF), tag_num=0x0A)
 57: 0x019F [0x2B] Voidwatch Officer (ID: 17739951/0x010EB0AF) [13892*]:
    → "Do we have a misunderstanding here, soldier? I said, "immediately." You'll get your briefing at the palace, not from me."
 58: 0x01A6 [0x23] WAIT_FOR_DIALOG_INTERACTION
 59: 0x01A7 [0x02] IF !(ExtData[1]->WorkLocal[0] == 15*) GOTO 0x01BA
 60: 0x01AF [0x2B] Voidwatch Officer (ID: 17739951/0x010EB0AF) [13895*]:
    → "That said, in these times of war, entry to the Grand Duchy is limited to authorized personnel. Show your alarum at the bulwark gate just over there and one of our men will see you through."
 61: 0x01B6 [0x23] WAIT_FOR_DIALOG_INTERACTION
 62: 0x01B7 [0x01] GOTO 0x01C2
 63: 0x01BA [0x2B] Voidwatch Officer (ID: 17739951/0x010EB0AF) [13893*]:
    → "That said, in these times of war, entry to the Grand Duchy is limited to authorized personnel. Show your alarum at the bulwark gate in Sauromugue and one of our men will see you through."
 64: 0x01C1 [0x23] WAIT_FOR_DIALOG_INTERACTION

SUBROUTINE_01C2:
 65: 0x01C2 [0x29] REQ_SET_WAIT(priority=0x10, entity_id=Voidwatch Officer (ID: 17739951/0x010EB0AF), tag_num=0x0B)
 66: 0x01C9 [0x2B] Voidwatch Officer (ID: 17739951/0x010EB0AF) [13894*]:
    → "Time is short, so pick up those legs and get a move on, soldier!"
 67: 0x01D0 [0x23] WAIT_FOR_DIALOG_INTERACTION
 68: 0x01D1 [0x01] GOTO 0x01E8
 69: 0x01D4 [0x6E] Voidwatch Officer (ID: 17739951/0x010EB0AF) uses emote 7*
 70: 0x01DB [0x99] Wait for Voidwatch Officer (ID: 17739951/0x010EB0AF) animation to complete
 71: 0x01E0 [0x2B] Voidwatch Officer (ID: 17739951/0x010EB0AF) [13891*]:
    → "Do we have a misunderstanding here, soldier? I said, "immediately." You'll get your briefing at the palace, not from me. Pick up those legs and get a move on!"
 72: 0x01E7 [0x23] WAIT_FOR_DIALOG_INTERACTION

SUBROUTINE_01E8:
 73: 0x01E8 [0x1A] CALL_SUBROUTINE(address=0x1CAE)
 74: 0x01EB [0x1C] WAIT(30* ticks)
 75: 0x01EE [0x52] END_LOAD_SCHEDULER: End scheduler "cp01" with entities [LocalPlayer, LocalPlayer], work=577*
 76: 0x01FD [0x52] END_LOAD_SCHEDULER: End scheduler "cp02" with entities [LocalPlayer, LocalPlayer], work=577*
 77: 0x020C [0x52] END_LOAD_SCHEDULER: End scheduler "cp03" with entities [LocalPlayer, LocalPlayer], work=577*
 78: 0x021B [0x52] END_LOAD_SCHEDULER: End scheduler "cp04" with entities [LocalPlayer, LocalPlayer], work=577*
 79: 0x022A [0x52] END_LOAD_SCHEDULER: End scheduler "cp05" with entities [LocalPlayer, LocalPlayer], work=577*
 80: 0x0239 [0x52] END_LOAD_SCHEDULER: End scheduler "cp06" with entities [LocalPlayer, LocalPlayer], work=577*
 81: 0x0248 [0x45] LOAD_SCHEDULED_TASK: Load scheduler "0blf" with entities [LocalPlayer, LocalPlayer], work=[577*, 0*]
 82: 0x0259 [0x1C] WAIT(15* ticks)
 83: 0x025C [0xAB] EventEntity->DespawnValue = 0* // Set despawn value
 84: 0x0260 [0x1C] WAIT(1* ticks)
 85: 0x0263 [0x46] CAMERA_CONTROL: Restore default settings
 86: 0x0265 [0x45] LOAD_SCHEDULED_TASK: Load scheduler "fdi2" with entities [LocalPlayer, LocalPlayer], work=[200*, 0*]
 87: 0x0276 [0x21] END_EVENT
 88: 0x0277 [0x00] END_REQSTACK()
```

### Event 12

#### Metadata

| Field        | Value      |
|--------------|------------|
| Entrypoint   | 0x0278     |
| Data Size    | 1377 bytes |
| Instructions | 200        |

```
      00 01 02 03 04 05 06 07  08 09 0A 0B 0C 0D 0E 0F
      -- -- -- -- -- -- -- --  -- -- -- -- -- -- -- --
0270:                          42 1A AE 1C 03 00 00 02          B.......
0280: 10 46 01 38 00 80 92 01  AF B0 0E 01 94 01 F0 FF  .F.8............
0290: FF 7F 94 01 AF B0 0E 01  02 00 00 01 80 80 B0 02  ................
02A0: BA F0 FF FF 7F 02 80 03  80 04 80 05 80 01 D0 03  ................
02B0: 02 00 00 06 80 80 C8 02  BA F0 FF FF 7F 07 80 08  ................
02C0: 80 09 80 0A 80 01 D0 03  02 00 00 0B 80 80 E0 02  ................
02D0: BA F0 FF FF 7F 0C 80 0D  80 0E 80 0F 80 01 D0 03  ................
02E0: 02 00 00 10 80 80 F8 02  BA F0 FF FF 7F 11 80 12  ................
02F0: 80 04 80 13 80 01 D0 03  02 00 00 14 80 80 10 03  ................
0300: BA F0 FF FF 7F 15 80 16  80 17 80 18 80 01 D0 03  ................
0310: 02 00 00 19 80 80 28 03  BA F0 FF FF 7F 1A 80 1B  ......(.........
0320: 80 1C 80 1D 80 01 D0 03  02 00 00 29 80 80 40 03  ...........)..@.
0330: BA F0 FF FF 7F 2A 80 2B  80 2C 80 2D 80 01 D0 03  .....*.+.,.-....
0340: 02 00 00 2E 80 80 58 03  BA F0 FF FF 7F 2F 80 30  ......X....../.0
0350: 80 31 80 32 80 01 D0 03  02 00 00 33 80 80 70 03  .1.2.......3..p.
0360: BA F0 FF FF 7F 34 80 35  80 36 80 37 80 01 D0 03  .....4.5.6.7....
0370: 02 00 00 38 80 80 88 03  BA F0 FF FF 7F 2A 80 39  ...8.........*.9
0380: 80 3A 80 3B 80 01 D0 03  02 00 00 3C 80 80 A0 03  .:.;.......<....
0390: BA F0 FF FF 7F 3D 80 3E  80 3F 80 40 80 01 D0 03  .....=.>.?.@....
03A0: 02 00 00 22 80 80 B8 03  BA F0 FF FF 7F 41 80 42  ...".........A.B
03B0: 80 43 80 44 80 01 D0 03  02 00 00 45 80 80 D0 03  .C.D.......E....
03C0: BA F0 FF FF 7F 46 80 47  80 48 80 49 80 01 D0 03  .....F.G.H.I....
03D0: 80 F0 FF FF 7F 80 AF B0  0E 01 4A F0 FF FF 7F AF  ..........J.....
03E0: B0 0E 01 4A AF B0 0E 01  F0 FF FF 7F 6F 76 AF B0  ...J........ov..
03F0: 0E 01 1C 1E 80 02 00 00  01 80 80 11 04 45 1F 80  .............E..
0400: F0 FF FF 7F F0 FF FF 7F  63 70 30 31 17 80 01 61  ........cp01...a
0410: 05 02 00 00 06 80 80 2D  04 45 1F 80 F0 FF FF 7F  .......-.E......
0420: F0 FF FF 7F 63 70 30 32  17 80 01 61 05 02 00 00  ....cp02...a....
0430: 0B 80 80 49 04 45 1F 80  F0 FF FF 7F F0 FF FF 7F  ...I.E..........
0440: 63 70 30 33 17 80 01 61  05 02 00 00 10 80 80 65  cp03...a.......e
0450: 04 45 1F 80 F0 FF FF 7F  F0 FF FF 7F 63 70 30 34  .E..........cp04
0460: 17 80 01 61 05 02 00 00  14 80 80 81 04 45 1F 80  ...a.........E..
0470: F0 FF FF 7F F0 FF FF 7F  63 70 30 35 17 80 01 61  ........cp05...a
0480: 05 02 00 00 19 80 80 9D  04 45 1F 80 F0 FF FF 7F  .........E......
0490: F0 FF FF 7F 63 70 30 36  17 80 01 61 05 02 00 00  ....cp06...a....
04A0: 29 80 80 B9 04 45 1F 80  F0 FF FF 7F F0 FF FF 7F  )....E..........
04B0: 63 70 30 37 17 80 01 61  05 02 00 00 2E 80 80 D5  cp07...a........
04C0: 04 45 1F 80 F0 FF FF 7F  F0 FF FF 7F 63 70 30 38  .E..........cp08
04D0: 17 80 01 61 05 02 00 00  33 80 80 F1 04 45 1F 80  ...a....3....E..
04E0: F0 FF FF 7F F0 FF FF 7F  63 70 30 39 17 80 01 61  ........cp09...a
04F0: 05 02 00 00 38 80 80 0D  05 45 1F 80 F0 FF FF 7F  ....8....E......
0500: F0 FF FF 7F 63 70 31 30  17 80 01 61 05 02 00 00  ....cp10...a....
0510: 3C 80 80 29 05 45 1F 80  F0 FF FF 7F F0 FF FF 7F  <..).E..........
0520: 63 70 31 31 17 80 01 61  05 02 00 00 22 80 80 45  cp11...a...."..E
0530: 05 45 1F 80 F0 FF FF 7F  F0 FF FF 7F 63 70 31 32  .E..........cp12
0540: 17 80 01 61 05 02 00 00  45 80 80 61 05 45 1F 80  ...a....E..a.E..
0550: F0 FF FF 7F F0 FF FF 7F  63 70 31 33 17 80 01 61  ........cp13...a
0560: 05 1A 8D 1C 2B AF B0 0E  01 4A 80 23 29 10 AF B0  ....+....J.#)...
0570: 0E 01 0C 29 10 AF B0 0E  01 0A 02 00 00 01 80 80  ...)............
0580: 95 05 2B AF B0 0E 01 4B  80 23 2B AF B0 0E 01 4C  ..+....K.#+....L
0590: 80 23 01 D9 06 02 00 00  06 80 80 B0 05 2B AF B0  .#...........+..
05A0: 0E 01 4B 80 23 2B AF B0  0E 01 4C 80 23 01 D9 06  ..K.#+....L.#...
05B0: 02 00 00 0B 80 80 CB 05  2B AF B0 0E 01 4B 80 23  ........+....K.#
05C0: 2B AF B0 0E 01 4C 80 23  01 D9 06 02 00 00 10 80  +....L.#........
05D0: 80 E6 05 2B AF B0 0E 01  4D 80 23 2B AF B0 0E 01  ...+....M.#+....
05E0: 4E 80 23 01 D9 06 02 00  00 14 80 80 01 06 2B AF  N.#...........+.
05F0: B0 0E 01 4D 80 23 2B AF  B0 0E 01 4E 80 23 01 D9  ...M.#+....N.#..
0600: 06 02 00 00 19 80 80 1C  06 2B AF B0 0E 01 4D 80  .........+....M.
0610: 23 2B AF B0 0E 01 4E 80  23 01 D9 06 02 00 00 29  #+....N.#......)
0620: 80 80 37 06 2B AF B0 0E  01 4B 80 23 2B AF B0 0E  ..7.+....K.#+...
0630: 01 4C 80 23 01 D9 06 02  00 00 2E 80 80 52 06 2B  .L.#.........R.+
0640: AF B0 0E 01 4B 80 23 2B  AF B0 0E 01 4C 80 23 01  ....K.#+....L.#.
0650: D9 06 02 00 00 33 80 80  6D 06 2B AF B0 0E 01 4B  .....3..m.+....K
0660: 80 23 2B AF B0 0E 01 4C  80 23 01 D9 06 02 00 00  .#+....L.#......
0670: 38 80 80 88 06 2B AF B0  0E 01 4D 80 23 2B AF B0  8....+....M.#+..
0680: 0E 01 4E 80 23 01 D9 06  02 00 00 3C 80 80 A3 06  ..N.#......<....
0690: 2B AF B0 0E 01 4D 80 23  2B AF B0 0E 01 4E 80 23  +....M.#+....N.#
06A0: 01 D9 06 02 00 00 22 80  80 BE 06 2B AF B0 0E 01  ......"....+....
06B0: 4F 80 23 2B AF B0 0E 01  4E 80 23 01 D9 06 02 00  O.#+....N.#.....
06C0: 00 45 80 80 D9 06 2B AF  B0 0E 01 4B 80 23 2B AF  .E....+....K.#+.
06D0: B0 0E 01 4C 80 23 01 D9  06 29 10 AF B0 0E 01 0B  ...L.#...)......
06E0: 1A AE 1C 1C 1E 80 52 1F  80 F0 FF FF 7F F0 FF FF  ......R.........
06F0: 7F 63 70 30 31 52 1F 80  F0 FF FF 7F F0 FF FF 7F  .cp01R..........
0700: 63 70 30 32 52 1F 80 F0  FF FF 7F F0 FF FF 7F 63  cp02R..........c
0710: 70 30 33 52 1F 80 F0 FF  FF 7F F0 FF FF 7F 63 70  p03R..........cp
0720: 30 34 52 1F 80 F0 FF FF  7F F0 FF FF 7F 63 70 30  04R..........cp0
0730: 35 52 1F 80 F0 FF FF 7F  F0 FF FF 7F 63 70 30 36  5R..........cp06
0740: 52 1F 80 F0 FF FF 7F F0  FF FF 7F 63 70 30 37 52  R..........cp07R
0750: 1F 80 F0 FF FF 7F F0 FF  FF 7F 63 70 30 38 52 1F  ..........cp08R.
0760: 80 F0 FF FF 7F F0 FF FF  7F 63 70 30 39 52 1F 80  .........cp09R..
0770: F0 FF FF 7F F0 FF FF 7F  63 70 31 30 52 1F 80 F0  ........cp10R...
0780: FF FF 7F F0 FF FF 7F 63  70 31 31 52 1F 80 F0 FF  .......cp11R....
0790: FF 7F F0 FF FF 7F 63 70  31 32 52 1F 80 F0 FF FF  ......cp12R.....
07A0: 7F F0 FF FF 7F 63 70 31  33 45 1F 80 F0 FF FF 7F  .....cp13E......
07B0: F0 FF FF 7F 30 62 6C 66  17 80 1C 22 80 AB 11 17  ....0blf..."....
07C0: 80 1C 01 80 46 00 45 28  80 F0 FF FF 7F F0 FF FF  ....F.E(........
07D0: 7F 66 64 69 32 17 80 21  00                       .fdi2..!.       
```

#### Opcodes

```
  0: 0x0278 [0x42] SET_CLI_EVENT_CANCEL_DATA()
  1: 0x0279 [0x1A] CALL_SUBROUTINE(address=0x1CAE)
  2: 0x027C [0x03] ExtData[1]->WorkLocal[0] = Work_Zone[2]
  3: 0x0281 [0x46] CAMERA_CONTROL: Disable user control
  4: 0x0283 [0x38] SET_CLIENT_EVENT_MODE(mode=19*)
  5: 0x0286 [0x92] Voidwatch Officer (ID: 17739951/0x010EB0AF)->Render.Flags3 ^= 0x01
  6: 0x028C [0x94] LocalPlayer->Render.Flags3 ^= 0x01
  7: 0x0292 [0x94] Voidwatch Officer (ID: 17739951/0x010EB0AF)->Render.Flags3 ^= 0x01
  8: 0x0298 [0x02] IF !(ExtData[1]->WorkLocal[0] == 1*) GOTO 0x02B0
  9: 0x02A0 [0xBA] SET_ENTITY_POSITION(entity_id=LocalPlayer, pos_x=-106.023*, pos_z=-18.084*, pos_y=1.999*, direction=274.2°*)
 10: 0x02AD [0x01] GOTO 0x03D0
 11: 0x02B0 [0x02] IF !(ExtData[1]->WorkLocal[0] == 2*) GOTO 0x02C8
 12: 0x02B8 [0xBA] SET_ENTITY_POSITION(entity_id=LocalPlayer, pos_x=-354.003*, pos_z=-163.601*, pos_y=-10.011*, direction=313.2°*)
 13: 0x02C5 [0x01] GOTO 0x03D0
 14: 0x02C8 [0x02] IF !(ExtData[1]->WorkLocal[0] == 3*) GOTO 0x02E0
 15: 0x02D0 [0xBA] SET_ENTITY_POSITION(entity_id=LocalPlayer, pos_x=-29.054*, pos_z=224.362*, pos_y=-4.817*, direction=323.9°*)
 16: 0x02DD [0x01] GOTO 0x03D0
 17: 0x02E0 [0x02] IF !(ExtData[1]->WorkLocal[0] == 4*) GOTO 0x02F8
 18: 0x02E8 [0xBA] SET_ENTITY_POSITION(entity_id=LocalPlayer, pos_x=100.500*, pos_z=-25.746*, pos_y=1.999*, direction=299.8°*)
 19: 0x02F5 [0x01] GOTO 0x03D0
 20: 0x02F8 [0x02] IF !(ExtData[1]->WorkLocal[0] == 5*) GOTO 0x0310
 21: 0x0300 [0xBA] SET_ENTITY_POSITION(entity_id=LocalPlayer, pos_x=-247.217*, pos_z=73.503*, pos_y=0.000*, direction=182.5°*)
 22: 0x030D [0x01] GOTO 0x03D0
 23: 0x0310 [0x02] IF !(ExtData[1]->WorkLocal[0] == 6*) GOTO 0x0328
 24: 0x0318 [0xBA] SET_ENTITY_POSITION(entity_id=LocalPlayer, pos_x=-29.604*, pos_z=225.159*, pos_y=-4.851*, direction=350.0°*)
 25: 0x0325 [0x01] GOTO 0x03D0
 26: 0x0328 [0x02] IF !(ExtData[1]->WorkLocal[0] == 10*) GOTO 0x0340
 27: 0x0330 [0xBA] SET_ENTITY_POSITION(entity_id=LocalPlayer, pos_x=427.675*, pos_z=-134.695*, pos_y=8.247*, direction=38.8°*)
 28: 0x033D [0x01] GOTO 0x03D0
 29: 0x0340 [0x02] IF !(ExtData[1]->WorkLocal[0] == 11*) GOTO 0x0358
 30: 0x0348 [0xBA] SET_ENTITY_POSITION(entity_id=LocalPlayer, pos_x=190.047*, pos_z=461.835*, pos_y=24.600*, direction=317.4°*)
 31: 0x0355 [0x01] GOTO 0x03D0
 32: 0x0358 [0x02] IF !(ExtData[1]->WorkLocal[0] == 12*) GOTO 0x0370
 33: 0x0360 [0xBA] SET_ENTITY_POSITION(entity_id=LocalPlayer, pos_x=-438.881*, pos_z=333.048*, pos_y=0.499*, direction=180.8°*)
 34: 0x036D [0x01] GOTO 0x03D0
 35: 0x0370 [0x02] IF !(ExtData[1]->WorkLocal[0] == 13*) GOTO 0x0388
 36: 0x0378 [0xBA] SET_ENTITY_POSITION(entity_id=LocalPlayer, pos_x=427.675*, pos_z=-133.972*, pos_y=8.175*, direction=39.9°*)
 37: 0x0385 [0x01] GOTO 0x03D0
 38: 0x0388 [0x02] IF !(ExtData[1]->WorkLocal[0] == 14*) GOTO 0x03A0
 39: 0x0390 [0xBA] SET_ENTITY_POSITION(entity_id=LocalPlayer, pos_x=189.392*, pos_z=459.907*, pos_y=24.534*, direction=315.3°*)
 40: 0x039D [0x01] GOTO 0x03D0
 41: 0x03A0 [0x02] IF !(ExtData[1]->WorkLocal[0] == 15*) GOTO 0x03B8
 42: 0x03A8 [0xBA] SET_ENTITY_POSITION(entity_id=LocalPlayer, pos_x=-439.119*, pos_z=332.978*, pos_y=0.492*, direction=180.7°*)
 43: 0x03B5 [0x01] GOTO 0x03D0
 44: 0x03B8 [0x02] IF !(ExtData[1]->WorkLocal[0] == 16*) GOTO 0x03D0
 45: 0x03C0 [0xBA] SET_ENTITY_POSITION(entity_id=LocalPlayer, pos_x=145.477*, pos_z=-410.065*, pos_y=21.110*, direction=183.3°*)
 46: 0x03CD [0x01] GOTO 0x03D0

SUBROUTINE_03D0:
 47: 0x03D0 [0x80] LOAD_WAIT(entity=LocalPlayer)
 48: 0x03D5 [0x80] LOAD_WAIT(entity=Voidwatch Officer (ID: 17739951/0x010EB0AF))
 49: 0x03DA [0x4A] LocalPlayer looks at Voidwatch Officer (ID: 17739951/0x010EB0AF)
 50: 0x03E3 [0x4A] Voidwatch Officer (ID: 17739951/0x010EB0AF) looks at LocalPlayer
 51: 0x03EC [0x6F] WAIT_FRAME_DELAY: Yield until WaitTime reaches zero
 52: 0x03ED [0x76] CHECK_ENTITY_RENDER_FLAGS: Wait until Voidwatch Officer (ID: 17739951/0x010EB0AF) Render.Flags0 and Render.Flags3 conditions are met
 53: 0x03F2 [0x1C] WAIT(30* ticks)
 54: 0x03F5 [0x02] IF !(ExtData[1]->WorkLocal[0] == 1*) GOTO 0x0411
 55: 0x03FD [0x45] LOAD_SCHEDULED_TASK: Load scheduler "cp01" with entities [LocalPlayer, LocalPlayer], work=[577*, 0*]
 56: 0x040E [0x01] GOTO 0x0561
 57: 0x0411 [0x02] IF !(ExtData[1]->WorkLocal[0] == 2*) GOTO 0x042D
 58: 0x0419 [0x45] LOAD_SCHEDULED_TASK: Load scheduler "cp02" with entities [LocalPlayer, LocalPlayer], work=[577*, 0*]
 59: 0x042A [0x01] GOTO 0x0561
 60: 0x042D [0x02] IF !(ExtData[1]->WorkLocal[0] == 3*) GOTO 0x0449
 61: 0x0435 [0x45] LOAD_SCHEDULED_TASK: Load scheduler "cp03" with entities [LocalPlayer, LocalPlayer], work=[577*, 0*]
 62: 0x0446 [0x01] GOTO 0x0561
 63: 0x0449 [0x02] IF !(ExtData[1]->WorkLocal[0] == 4*) GOTO 0x0465
 64: 0x0451 [0x45] LOAD_SCHEDULED_TASK: Load scheduler "cp04" with entities [LocalPlayer, LocalPlayer], work=[577*, 0*]
 65: 0x0462 [0x01] GOTO 0x0561
 66: 0x0465 [0x02] IF !(ExtData[1]->WorkLocal[0] == 5*) GOTO 0x0481
 67: 0x046D [0x45] LOAD_SCHEDULED_TASK: Load scheduler "cp05" with entities [LocalPlayer, LocalPlayer], work=[577*, 0*]
 68: 0x047E [0x01] GOTO 0x0561
 69: 0x0481 [0x02] IF !(ExtData[1]->WorkLocal[0] == 6*) GOTO 0x049D
 70: 0x0489 [0x45] LOAD_SCHEDULED_TASK: Load scheduler "cp06" with entities [LocalPlayer, LocalPlayer], work=[577*, 0*]
 71: 0x049A [0x01] GOTO 0x0561
 72: 0x049D [0x02] IF !(ExtData[1]->WorkLocal[0] == 10*) GOTO 0x04B9
 73: 0x04A5 [0x45] LOAD_SCHEDULED_TASK: Load scheduler "cp07" with entities [LocalPlayer, LocalPlayer], work=[577*, 0*]
 74: 0x04B6 [0x01] GOTO 0x0561
 75: 0x04B9 [0x02] IF !(ExtData[1]->WorkLocal[0] == 11*) GOTO 0x04D5
 76: 0x04C1 [0x45] LOAD_SCHEDULED_TASK: Load scheduler "cp08" with entities [LocalPlayer, LocalPlayer], work=[577*, 0*]
 77: 0x04D2 [0x01] GOTO 0x0561
 78: 0x04D5 [0x02] IF !(ExtData[1]->WorkLocal[0] == 12*) GOTO 0x04F1
 79: 0x04DD [0x45] LOAD_SCHEDULED_TASK: Load scheduler "cp09" with entities [LocalPlayer, LocalPlayer], work=[577*, 0*]
 80: 0x04EE [0x01] GOTO 0x0561
 81: 0x04F1 [0x02] IF !(ExtData[1]->WorkLocal[0] == 13*) GOTO 0x050D
 82: 0x04F9 [0x45] LOAD_SCHEDULED_TASK: Load scheduler "cp10" with entities [LocalPlayer, LocalPlayer], work=[577*, 0*]
 83: 0x050A [0x01] GOTO 0x0561
 84: 0x050D [0x02] IF !(ExtData[1]->WorkLocal[0] == 14*) GOTO 0x0529
 85: 0x0515 [0x45] LOAD_SCHEDULED_TASK: Load scheduler "cp11" with entities [LocalPlayer, LocalPlayer], work=[577*, 0*]
 86: 0x0526 [0x01] GOTO 0x0561
 87: 0x0529 [0x02] IF !(ExtData[1]->WorkLocal[0] == 15*) GOTO 0x0545
 88: 0x0531 [0x45] LOAD_SCHEDULED_TASK: Load scheduler "cp12" with entities [LocalPlayer, LocalPlayer], work=[577*, 0*]
 89: 0x0542 [0x01] GOTO 0x0561
 90: 0x0545 [0x02] IF !(ExtData[1]->WorkLocal[0] == 16*) GOTO 0x0561
 91: 0x054D [0x45] LOAD_SCHEDULED_TASK: Load scheduler "cp13" with entities [LocalPlayer, LocalPlayer], work=[577*, 0*]
 92: 0x055E [0x01] GOTO 0x0561

SUBROUTINE_0561:
 93: 0x0561 [0x1A] CALL_SUBROUTINE(address=0x1C8D)
 94: 0x0564 [0x2B] Voidwatch Officer (ID: 17739951/0x010EB0AF) [13896*]:
    → "Excellent work, <Player>. You serve the Voidwatch well. Your presence has been requested in the Grand Duchy once more. Make your way there with all speed."
 95: 0x056B [0x23] WAIT_FOR_DIALOG_INTERACTION
 96: 0x056C [0x29] REQ_SET_WAIT(priority=0x10, entity_id=Voidwatch Officer (ID: 17739951/0x010EB0AF), tag_num=0x0C)
 97: 0x0573 [0x29] REQ_SET_WAIT(priority=0x10, entity_id=Voidwatch Officer (ID: 17739951/0x010EB0AF), tag_num=0x0A)
 98: 0x057A [0x02] IF !(ExtData[1]->WorkLocal[0] == 1*) GOTO 0x0595
 99: 0x0582 [0x2B] Voidwatch Officer (ID: 17739951/0x010EB0AF) [13897*]:
    → "As before, a full briefing will be conducted upon your arrival at the palace."
100: 0x0589 [0x23] WAIT_FOR_DIALOG_INTERACTION
101: 0x058A [0x2B] Voidwatch Officer (ID: 17739951/0x010EB0AF) [13898*]:
    → "That is all. You're dismissed, soldier!"
102: 0x0591 [0x23] WAIT_FOR_DIALOG_INTERACTION
103: 0x0592 [0x01] GOTO 0x06D9
104: 0x0595 [0x02] IF !(ExtData[1]->WorkLocal[0] == 2*) GOTO 0x05B0
105: 0x059D [0x2B] Voidwatch Officer (ID: 17739951/0x010EB0AF) [13897*]:
    → "As before, a full briefing will be conducted upon your arrival at the palace."
106: 0x05A4 [0x23] WAIT_FOR_DIALOG_INTERACTION
107: 0x05A5 [0x2B] Voidwatch Officer (ID: 17739951/0x010EB0AF) [13898*]:
    → "That is all. You're dismissed, soldier!"
108: 0x05AC [0x23] WAIT_FOR_DIALOG_INTERACTION
109: 0x05AD [0x01] GOTO 0x06D9
110: 0x05B0 [0x02] IF !(ExtData[1]->WorkLocal[0] == 3*) GOTO 0x05CB
111: 0x05B8 [0x2B] Voidwatch Officer (ID: 17739951/0x010EB0AF) [13897*]:
    → "As before, a full briefing will be conducted upon your arrival at the palace."
112: 0x05BF [0x23] WAIT_FOR_DIALOG_INTERACTION
113: 0x05C0 [0x2B] Voidwatch Officer (ID: 17739951/0x010EB0AF) [13898*]:
    → "That is all. You're dismissed, soldier!"
114: 0x05C7 [0x23] WAIT_FOR_DIALOG_INTERACTION
115: 0x05C8 [0x01] GOTO 0x06D9
116: 0x05CB [0x02] IF !(ExtData[1]->WorkLocal[0] == 4*) GOTO 0x05E6
117: 0x05D3 [0x2B] Voidwatch Officer (ID: 17739951/0x010EB0AF) [13899*]:
    → "As before, a full briefing will be conducted upon your arrival at the palace. Show your alarum at the bulwark gate at Sauromugue and one of our men will see you through the checkpoint."
118: 0x05DA [0x23] WAIT_FOR_DIALOG_INTERACTION
119: 0x05DB [0x2B] Voidwatch Officer (ID: 17739951/0x010EB0AF) [13900*]:
    → "That is all. You're dismissed, soldier!"
120: 0x05E2 [0x23] WAIT_FOR_DIALOG_INTERACTION
121: 0x05E3 [0x01] GOTO 0x06D9
122: 0x05E6 [0x02] IF !(ExtData[1]->WorkLocal[0] == 5*) GOTO 0x0601
123: 0x05EE [0x2B] Voidwatch Officer (ID: 17739951/0x010EB0AF) [13899*]:
    → "As before, a full briefing will be conducted upon your arrival at the palace. Show your alarum at the bulwark gate at Sauromugue and one of our men will see you through the checkpoint."
124: 0x05F5 [0x23] WAIT_FOR_DIALOG_INTERACTION
125: 0x05F6 [0x2B] Voidwatch Officer (ID: 17739951/0x010EB0AF) [13900*]:
    → "That is all. You're dismissed, soldier!"
126: 0x05FD [0x23] WAIT_FOR_DIALOG_INTERACTION
127: 0x05FE [0x01] GOTO 0x06D9
128: 0x0601 [0x02] IF !(ExtData[1]->WorkLocal[0] == 6*) GOTO 0x061C
129: 0x0609 [0x2B] Voidwatch Officer (ID: 17739951/0x010EB0AF) [13899*]:
    → "As before, a full briefing will be conducted upon your arrival at the palace. Show your alarum at the bulwark gate at Sauromugue and one of our men will see you through the checkpoint."
130: 0x0610 [0x23] WAIT_FOR_DIALOG_INTERACTION
131: 0x0611 [0x2B] Voidwatch Officer (ID: 17739951/0x010EB0AF) [13900*]:
    → "That is all. You're dismissed, soldier!"
132: 0x0618 [0x23] WAIT_FOR_DIALOG_INTERACTION
133: 0x0619 [0x01] GOTO 0x06D9
134: 0x061C [0x02] IF !(ExtData[1]->WorkLocal[0] == 10*) GOTO 0x0637
135: 0x0624 [0x2B] Voidwatch Officer (ID: 17739951/0x010EB0AF) [13897*]:
    → "As before, a full briefing will be conducted upon your arrival at the palace."
136: 0x062B [0x23] WAIT_FOR_DIALOG_INTERACTION
137: 0x062C [0x2B] Voidwatch Officer (ID: 17739951/0x010EB0AF) [13898*]:
    → "That is all. You're dismissed, soldier!"
138: 0x0633 [0x23] WAIT_FOR_DIALOG_INTERACTION
139: 0x0634 [0x01] GOTO 0x06D9
140: 0x0637 [0x02] IF !(ExtData[1]->WorkLocal[0] == 11*) GOTO 0x0652
141: 0x063F [0x2B] Voidwatch Officer (ID: 17739951/0x010EB0AF) [13897*]:
    → "As before, a full briefing will be conducted upon your arrival at the palace."
142: 0x0646 [0x23] WAIT_FOR_DIALOG_INTERACTION
143: 0x0647 [0x2B] Voidwatch Officer (ID: 17739951/0x010EB0AF) [13898*]:
    → "That is all. You're dismissed, soldier!"
144: 0x064E [0x23] WAIT_FOR_DIALOG_INTERACTION
145: 0x064F [0x01] GOTO 0x06D9
146: 0x0652 [0x02] IF !(ExtData[1]->WorkLocal[0] == 12*) GOTO 0x066D
147: 0x065A [0x2B] Voidwatch Officer (ID: 17739951/0x010EB0AF) [13897*]:
    → "As before, a full briefing will be conducted upon your arrival at the palace."
148: 0x0661 [0x23] WAIT_FOR_DIALOG_INTERACTION
149: 0x0662 [0x2B] Voidwatch Officer (ID: 17739951/0x010EB0AF) [13898*]:
    → "That is all. You're dismissed, soldier!"
150: 0x0669 [0x23] WAIT_FOR_DIALOG_INTERACTION
151: 0x066A [0x01] GOTO 0x06D9
152: 0x066D [0x02] IF !(ExtData[1]->WorkLocal[0] == 13*) GOTO 0x0688
153: 0x0675 [0x2B] Voidwatch Officer (ID: 17739951/0x010EB0AF) [13899*]:
    → "As before, a full briefing will be conducted upon your arrival at the palace. Show your alarum at the bulwark gate at Sauromugue and one of our men will see you through the checkpoint."
154: 0x067C [0x23] WAIT_FOR_DIALOG_INTERACTION
155: 0x067D [0x2B] Voidwatch Officer (ID: 17739951/0x010EB0AF) [13900*]:
    → "That is all. You're dismissed, soldier!"
156: 0x0684 [0x23] WAIT_FOR_DIALOG_INTERACTION
157: 0x0685 [0x01] GOTO 0x06D9
158: 0x0688 [0x02] IF !(ExtData[1]->WorkLocal[0] == 14*) GOTO 0x06A3
159: 0x0690 [0x2B] Voidwatch Officer (ID: 17739951/0x010EB0AF) [13899*]:
    → "As before, a full briefing will be conducted upon your arrival at the palace. Show your alarum at the bulwark gate at Sauromugue and one of our men will see you through the checkpoint."
160: 0x0697 [0x23] WAIT_FOR_DIALOG_INTERACTION
161: 0x0698 [0x2B] Voidwatch Officer (ID: 17739951/0x010EB0AF) [13900*]:
    → "That is all. You're dismissed, soldier!"
162: 0x069F [0x23] WAIT_FOR_DIALOG_INTERACTION
163: 0x06A0 [0x01] GOTO 0x06D9
164: 0x06A3 [0x02] IF !(ExtData[1]->WorkLocal[0] == 15*) GOTO 0x06BE
165: 0x06AB [0x2B] Voidwatch Officer (ID: 17739951/0x010EB0AF) [13901*]:
    → "As before, a full briefing will be conducted upon your arrival at the palace. Show your alarum at the bulwark gate over there and one of our men will see you through the checkpoint."
166: 0x06B2 [0x23] WAIT_FOR_DIALOG_INTERACTION
167: 0x06B3 [0x2B] Voidwatch Officer (ID: 17739951/0x010EB0AF) [13900*]:
    → "That is all. You're dismissed, soldier!"
168: 0x06BA [0x23] WAIT_FOR_DIALOG_INTERACTION
169: 0x06BB [0x01] GOTO 0x06D9
170: 0x06BE [0x02] IF !(ExtData[1]->WorkLocal[0] == 16*) GOTO 0x06D9
171: 0x06C6 [0x2B] Voidwatch Officer (ID: 17739951/0x010EB0AF) [13897*]:
    → "As before, a full briefing will be conducted upon your arrival at the palace."
172: 0x06CD [0x23] WAIT_FOR_DIALOG_INTERACTION
173: 0x06CE [0x2B] Voidwatch Officer (ID: 17739951/0x010EB0AF) [13898*]:
    → "That is all. You're dismissed, soldier!"
174: 0x06D5 [0x23] WAIT_FOR_DIALOG_INTERACTION
175: 0x06D6 [0x01] GOTO 0x06D9

SUBROUTINE_06D9:
176: 0x06D9 [0x29] REQ_SET_WAIT(priority=0x10, entity_id=Voidwatch Officer (ID: 17739951/0x010EB0AF), tag_num=0x0B)
177: 0x06E0 [0x1A] CALL_SUBROUTINE(address=0x1CAE)
178: 0x06E3 [0x1C] WAIT(30* ticks)
179: 0x06E6 [0x52] END_LOAD_SCHEDULER: End scheduler "cp01" with entities [LocalPlayer, LocalPlayer], work=577*
180: 0x06F5 [0x52] END_LOAD_SCHEDULER: End scheduler "cp02" with entities [LocalPlayer, LocalPlayer], work=577*
181: 0x0704 [0x52] END_LOAD_SCHEDULER: End scheduler "cp03" with entities [LocalPlayer, LocalPlayer], work=577*
182: 0x0713 [0x52] END_LOAD_SCHEDULER: End scheduler "cp04" with entities [LocalPlayer, LocalPlayer], work=577*
183: 0x0722 [0x52] END_LOAD_SCHEDULER: End scheduler "cp05" with entities [LocalPlayer, LocalPlayer], work=577*
184: 0x0731 [0x52] END_LOAD_SCHEDULER: End scheduler "cp06" with entities [LocalPlayer, LocalPlayer], work=577*
185: 0x0740 [0x52] END_LOAD_SCHEDULER: End scheduler "cp07" with entities [LocalPlayer, LocalPlayer], work=577*
186: 0x074F [0x52] END_LOAD_SCHEDULER: End scheduler "cp08" with entities [LocalPlayer, LocalPlayer], work=577*
187: 0x075E [0x52] END_LOAD_SCHEDULER: End scheduler "cp09" with entities [LocalPlayer, LocalPlayer], work=577*
188: 0x076D [0x52] END_LOAD_SCHEDULER: End scheduler "cp10" with entities [LocalPlayer, LocalPlayer], work=577*
189: 0x077C [0x52] END_LOAD_SCHEDULER: End scheduler "cp11" with entities [LocalPlayer, LocalPlayer], work=577*
190: 0x078B [0x52] END_LOAD_SCHEDULER: End scheduler "cp12" with entities [LocalPlayer, LocalPlayer], work=577*
191: 0x079A [0x52] END_LOAD_SCHEDULER: End scheduler "cp13" with entities [LocalPlayer, LocalPlayer], work=577*
192: 0x07A9 [0x45] LOAD_SCHEDULED_TASK: Load scheduler "0blf" with entities [LocalPlayer, LocalPlayer], work=[577*, 0*]
193: 0x07BA [0x1C] WAIT(15* ticks)
194: 0x07BD [0xAB] EventEntity->DespawnValue = 0* // Set despawn value
195: 0x07C1 [0x1C] WAIT(1* ticks)
196: 0x07C4 [0x46] CAMERA_CONTROL: Restore default settings
197: 0x07C6 [0x45] LOAD_SCHEDULED_TASK: Load scheduler "fdi2" with entities [LocalPlayer, LocalPlayer], work=[200*, 0*]
198: 0x07D7 [0x21] END_EVENT
199: 0x07D8 [0x00] END_REQSTACK()
```

### Event 13

#### Metadata

| Field        | Value      |
|--------------|------------|
| Entrypoint   | 0x07D9     |
| Data Size    | 1377 bytes |
| Instructions | 200        |

```
      00 01 02 03 04 05 06 07  08 09 0A 0B 0C 0D 0E 0F
      -- -- -- -- -- -- -- --  -- -- -- -- -- -- -- --
07D0:                             42 1A AE 1C 03 00 00           B......
07E0: 02 10 46 01 38 00 80 92  01 AF B0 0E 01 94 01 F0  ..F.8...........
07F0: FF FF 7F 94 01 AF B0 0E  01 02 00 00 01 80 80 11  ................
0800: 08 BA F0 FF FF 7F 02 80  03 80 04 80 05 80 01 31  ...............1
0810: 09 02 00 00 06 80 80 29  08 BA F0 FF FF 7F 07 80  .......)........
0820: 08 80 09 80 0A 80 01 31  09 02 00 00 0B 80 80 41  .......1.......A
0830: 08 BA F0 FF FF 7F 0C 80  0D 80 0E 80 0F 80 01 31  ...............1
0840: 09 02 00 00 10 80 80 59  08 BA F0 FF FF 7F 11 80  .......Y........
0850: 12 80 04 80 13 80 01 31  09 02 00 00 14 80 80 71  .......1.......q
0860: 08 BA F0 FF FF 7F 15 80  16 80 17 80 18 80 01 31  ...............1
0870: 09 02 00 00 19 80 80 89  08 BA F0 FF FF 7F 1A 80  ................
0880: 1B 80 1C 80 1D 80 01 31  09 02 00 00 29 80 80 A1  .......1....)...
0890: 08 BA F0 FF FF 7F 2A 80  2B 80 2C 80 2D 80 01 31  ......*.+.,.-..1
08A0: 09 02 00 00 2E 80 80 B9  08 BA F0 FF FF 7F 2F 80  ............../.
08B0: 30 80 31 80 32 80 01 31  09 02 00 00 33 80 80 D1  0.1.2..1....3...
08C0: 08 BA F0 FF FF 7F 34 80  35 80 36 80 37 80 01 31  ......4.5.6.7..1
08D0: 09 02 00 00 38 80 80 E9  08 BA F0 FF FF 7F 2A 80  ....8.........*.
08E0: 39 80 3A 80 3B 80 01 31  09 02 00 00 3C 80 80 01  9.:.;..1....<...
08F0: 09 BA F0 FF FF 7F 3D 80  3E 80 3F 80 40 80 01 31  ......=.>.?.@..1
0900: 09 02 00 00 22 80 80 19  09 BA F0 FF FF 7F 41 80  ....".........A.
0910: 42 80 43 80 44 80 01 31  09 02 00 00 45 80 80 31  B.C.D..1....E..1
0920: 09 BA F0 FF FF 7F 46 80  47 80 48 80 49 80 01 31  ......F.G.H.I..1
0930: 09 80 F0 FF FF 7F 80 AF  B0 0E 01 4A F0 FF FF 7F  ...........J....
0940: AF B0 0E 01 4A AF B0 0E  01 F0 FF FF 7F 6F 76 AF  ....J........ov.
0950: B0 0E 01 1C 1E 80 02 00  00 01 80 80 72 09 45 1F  ............r.E.
0960: 80 F0 FF FF 7F F0 FF FF  7F 63 70 30 31 17 80 01  .........cp01...
0970: C2 0A 02 00 00 06 80 80  8E 09 45 1F 80 F0 FF FF  ..........E.....
0980: 7F F0 FF FF 7F 63 70 30  32 17 80 01 C2 0A 02 00  .....cp02.......
0990: 00 0B 80 80 AA 09 45 1F  80 F0 FF FF 7F F0 FF FF  ......E.........
09A0: 7F 63 70 30 33 17 80 01  C2 0A 02 00 00 10 80 80  .cp03...........
09B0: C6 09 45 1F 80 F0 FF FF  7F F0 FF FF 7F 63 70 30  ..E..........cp0
09C0: 34 17 80 01 C2 0A 02 00  00 14 80 80 E2 09 45 1F  4.............E.
09D0: 80 F0 FF FF 7F F0 FF FF  7F 63 70 30 35 17 80 01  .........cp05...
09E0: C2 0A 02 00 00 19 80 80  FE 09 45 1F 80 F0 FF FF  ..........E.....
09F0: 7F F0 FF FF 7F 63 70 30  36 17 80 01 C2 0A 02 00  .....cp06.......
0A00: 00 29 80 80 1A 0A 45 1F  80 F0 FF FF 7F F0 FF FF  .)....E.........
0A10: 7F 63 70 30 37 17 80 01  C2 0A 02 00 00 2E 80 80  .cp07...........
0A20: 36 0A 45 1F 80 F0 FF FF  7F F0 FF FF 7F 63 70 30  6.E..........cp0
0A30: 38 17 80 01 C2 0A 02 00  00 33 80 80 52 0A 45 1F  8........3..R.E.
0A40: 80 F0 FF FF 7F F0 FF FF  7F 63 70 30 39 17 80 01  .........cp09...
0A50: C2 0A 02 00 00 38 80 80  6E 0A 45 1F 80 F0 FF FF  .....8..n.E.....
0A60: 7F F0 FF FF 7F 63 70 31  30 17 80 01 C2 0A 02 00  .....cp10.......
0A70: 00 3C 80 80 8A 0A 45 1F  80 F0 FF FF 7F F0 FF FF  .<....E.........
0A80: 7F 63 70 31 31 17 80 01  C2 0A 02 00 00 22 80 80  .cp11........"..
0A90: A6 0A 45 1F 80 F0 FF FF  7F F0 FF FF 7F 63 70 31  ..E..........cp1
0AA0: 32 17 80 01 C2 0A 02 00  00 45 80 80 C2 0A 45 1F  2........E....E.
0AB0: 80 F0 FF FF 7F F0 FF FF  7F 63 70 31 33 17 80 01  .........cp13...
0AC0: C2 0A 1A 8D 1C 2B AF B0  0E 01 4A 80 23 29 10 AF  .....+....J.#)..
0AD0: B0 0E 01 0C 29 10 AF B0  0E 01 0A 02 00 00 01 80  ....)...........
0AE0: 80 F6 0A 2B AF B0 0E 01  4B 80 23 2B AF B0 0E 01  ...+....K.#+....
0AF0: 4C 80 23 01 3A 0C 02 00  00 06 80 80 11 0B 2B AF  L.#.:.........+.
0B00: B0 0E 01 4B 80 23 2B AF  B0 0E 01 4C 80 23 01 3A  ...K.#+....L.#.:
0B10: 0C 02 00 00 0B 80 80 2C  0B 2B AF B0 0E 01 4B 80  .......,.+....K.
0B20: 23 2B AF B0 0E 01 4C 80  23 01 3A 0C 02 00 00 10  #+....L.#.:.....
0B30: 80 80 47 0B 2B AF B0 0E  01 4D 80 23 2B AF B0 0E  ..G.+....M.#+...
0B40: 01 4E 80 23 01 3A 0C 02  00 00 14 80 80 62 0B 2B  .N.#.:.......b.+
0B50: AF B0 0E 01 4D 80 23 2B  AF B0 0E 01 4E 80 23 01  ....M.#+....N.#.
0B60: 3A 0C 02 00 00 19 80 80  7D 0B 2B AF B0 0E 01 4D  :.......}.+....M
0B70: 80 23 2B AF B0 0E 01 4E  80 23 01 3A 0C 02 00 00  .#+....N.#.:....
0B80: 29 80 80 98 0B 2B AF B0  0E 01 4B 80 23 2B AF B0  )....+....K.#+..
0B90: 0E 01 4C 80 23 01 3A 0C  02 00 00 2E 80 80 B3 0B  ..L.#.:.........
0BA0: 2B AF B0 0E 01 4B 80 23  2B AF B0 0E 01 4C 80 23  +....K.#+....L.#
0BB0: 01 3A 0C 02 00 00 33 80  80 CE 0B 2B AF B0 0E 01  .:....3....+....
0BC0: 4B 80 23 2B AF B0 0E 01  4C 80 23 01 3A 0C 02 00  K.#+....L.#.:...
0BD0: 00 38 80 80 E9 0B 2B AF  B0 0E 01 4D 80 23 2B AF  .8....+....M.#+.
0BE0: B0 0E 01 4E 80 23 01 3A  0C 02 00 00 3C 80 80 04  ...N.#.:....<...
0BF0: 0C 2B AF B0 0E 01 4D 80  23 2B AF B0 0E 01 4E 80  .+....M.#+....N.
0C00: 23 01 3A 0C 02 00 00 22  80 80 1F 0C 2B AF B0 0E  #.:...."....+...
0C10: 01 4F 80 23 2B AF B0 0E  01 4E 80 23 01 3A 0C 02  .O.#+....N.#.:..
0C20: 00 00 45 80 80 3A 0C 2B  AF B0 0E 01 4B 80 23 2B  ..E..:.+....K.#+
0C30: AF B0 0E 01 4C 80 23 01  3A 0C 29 10 AF B0 0E 01  ....L.#.:.).....
0C40: 0B 1A AE 1C 1C 1E 80 52  1F 80 F0 FF FF 7F F0 FF  .......R........
0C50: FF 7F 63 70 30 31 52 1F  80 F0 FF FF 7F F0 FF FF  ..cp01R.........
0C60: 7F 63 70 30 32 52 1F 80  F0 FF FF 7F F0 FF FF 7F  .cp02R..........
0C70: 63 70 30 33 52 1F 80 F0  FF FF 7F F0 FF FF 7F 63  cp03R..........c
0C80: 70 30 34 52 1F 80 F0 FF  FF 7F F0 FF FF 7F 63 70  p04R..........cp
0C90: 30 35 52 1F 80 F0 FF FF  7F F0 FF FF 7F 63 70 30  05R..........cp0
0CA0: 36 52 1F 80 F0 FF FF 7F  F0 FF FF 7F 63 70 30 37  6R..........cp07
0CB0: 52 1F 80 F0 FF FF 7F F0  FF FF 7F 63 70 30 38 52  R..........cp08R
0CC0: 1F 80 F0 FF FF 7F F0 FF  FF 7F 63 70 30 39 52 1F  ..........cp09R.
0CD0: 80 F0 FF FF 7F F0 FF FF  7F 63 70 31 30 52 1F 80  .........cp10R..
0CE0: F0 FF FF 7F F0 FF FF 7F  63 70 31 31 52 1F 80 F0  ........cp11R...
0CF0: FF FF 7F F0 FF FF 7F 63  70 31 32 52 1F 80 F0 FF  .......cp12R....
0D00: FF 7F F0 FF FF 7F 63 70  31 33 45 1F 80 F0 FF FF  ......cp13E.....
0D10: 7F F0 FF FF 7F 30 62 6C  66 17 80 1C 22 80 AB 11  .....0blf..."...
0D20: 17 80 1C 01 80 46 00 45  28 80 F0 FF FF 7F F0 FF  .....F.E(.......
0D30: FF 7F 66 64 69 32 17 80  21 00                    ..fdi2..!.      
```

#### Opcodes

```
  0: 0x07D9 [0x42] SET_CLI_EVENT_CANCEL_DATA()
  1: 0x07DA [0x1A] CALL_SUBROUTINE(address=0x1CAE)
  2: 0x07DD [0x03] ExtData[1]->WorkLocal[0] = Work_Zone[2]
  3: 0x07E2 [0x46] CAMERA_CONTROL: Disable user control
  4: 0x07E4 [0x38] SET_CLIENT_EVENT_MODE(mode=19*)
  5: 0x07E7 [0x92] Voidwatch Officer (ID: 17739951/0x010EB0AF)->Render.Flags3 ^= 0x01
  6: 0x07ED [0x94] LocalPlayer->Render.Flags3 ^= 0x01
  7: 0x07F3 [0x94] Voidwatch Officer (ID: 17739951/0x010EB0AF)->Render.Flags3 ^= 0x01
  8: 0x07F9 [0x02] IF !(ExtData[1]->WorkLocal[0] == 1*) GOTO 0x0811
  9: 0x0801 [0xBA] SET_ENTITY_POSITION(entity_id=LocalPlayer, pos_x=-106.023*, pos_z=-18.084*, pos_y=1.999*, direction=274.2°*)
 10: 0x080E [0x01] GOTO 0x0931
 11: 0x0811 [0x02] IF !(ExtData[1]->WorkLocal[0] == 2*) GOTO 0x0829
 12: 0x0819 [0xBA] SET_ENTITY_POSITION(entity_id=LocalPlayer, pos_x=-354.003*, pos_z=-163.601*, pos_y=-10.011*, direction=313.2°*)
 13: 0x0826 [0x01] GOTO 0x0931
 14: 0x0829 [0x02] IF !(ExtData[1]->WorkLocal[0] == 3*) GOTO 0x0841
 15: 0x0831 [0xBA] SET_ENTITY_POSITION(entity_id=LocalPlayer, pos_x=-29.054*, pos_z=224.362*, pos_y=-4.817*, direction=323.9°*)
 16: 0x083E [0x01] GOTO 0x0931
 17: 0x0841 [0x02] IF !(ExtData[1]->WorkLocal[0] == 4*) GOTO 0x0859
 18: 0x0849 [0xBA] SET_ENTITY_POSITION(entity_id=LocalPlayer, pos_x=100.500*, pos_z=-25.746*, pos_y=1.999*, direction=299.8°*)
 19: 0x0856 [0x01] GOTO 0x0931
 20: 0x0859 [0x02] IF !(ExtData[1]->WorkLocal[0] == 5*) GOTO 0x0871
 21: 0x0861 [0xBA] SET_ENTITY_POSITION(entity_id=LocalPlayer, pos_x=-247.217*, pos_z=73.503*, pos_y=0.000*, direction=182.5°*)
 22: 0x086E [0x01] GOTO 0x0931
 23: 0x0871 [0x02] IF !(ExtData[1]->WorkLocal[0] == 6*) GOTO 0x0889
 24: 0x0879 [0xBA] SET_ENTITY_POSITION(entity_id=LocalPlayer, pos_x=-29.604*, pos_z=225.159*, pos_y=-4.851*, direction=350.0°*)
 25: 0x0886 [0x01] GOTO 0x0931
 26: 0x0889 [0x02] IF !(ExtData[1]->WorkLocal[0] == 10*) GOTO 0x08A1
 27: 0x0891 [0xBA] SET_ENTITY_POSITION(entity_id=LocalPlayer, pos_x=427.675*, pos_z=-134.695*, pos_y=8.247*, direction=38.8°*)
 28: 0x089E [0x01] GOTO 0x0931
 29: 0x08A1 [0x02] IF !(ExtData[1]->WorkLocal[0] == 11*) GOTO 0x08B9
 30: 0x08A9 [0xBA] SET_ENTITY_POSITION(entity_id=LocalPlayer, pos_x=190.047*, pos_z=461.835*, pos_y=24.600*, direction=317.4°*)
 31: 0x08B6 [0x01] GOTO 0x0931
 32: 0x08B9 [0x02] IF !(ExtData[1]->WorkLocal[0] == 12*) GOTO 0x08D1
 33: 0x08C1 [0xBA] SET_ENTITY_POSITION(entity_id=LocalPlayer, pos_x=-438.881*, pos_z=333.048*, pos_y=0.499*, direction=180.8°*)
 34: 0x08CE [0x01] GOTO 0x0931
 35: 0x08D1 [0x02] IF !(ExtData[1]->WorkLocal[0] == 13*) GOTO 0x08E9
 36: 0x08D9 [0xBA] SET_ENTITY_POSITION(entity_id=LocalPlayer, pos_x=427.675*, pos_z=-133.972*, pos_y=8.175*, direction=39.9°*)
 37: 0x08E6 [0x01] GOTO 0x0931
 38: 0x08E9 [0x02] IF !(ExtData[1]->WorkLocal[0] == 14*) GOTO 0x0901
 39: 0x08F1 [0xBA] SET_ENTITY_POSITION(entity_id=LocalPlayer, pos_x=189.392*, pos_z=459.907*, pos_y=24.534*, direction=315.3°*)
 40: 0x08FE [0x01] GOTO 0x0931
 41: 0x0901 [0x02] IF !(ExtData[1]->WorkLocal[0] == 15*) GOTO 0x0919
 42: 0x0909 [0xBA] SET_ENTITY_POSITION(entity_id=LocalPlayer, pos_x=-439.119*, pos_z=332.978*, pos_y=0.492*, direction=180.7°*)
 43: 0x0916 [0x01] GOTO 0x0931
 44: 0x0919 [0x02] IF !(ExtData[1]->WorkLocal[0] == 16*) GOTO 0x0931
 45: 0x0921 [0xBA] SET_ENTITY_POSITION(entity_id=LocalPlayer, pos_x=145.477*, pos_z=-410.065*, pos_y=21.110*, direction=183.3°*)
 46: 0x092E [0x01] GOTO 0x0931

SUBROUTINE_0931:
 47: 0x0931 [0x80] LOAD_WAIT(entity=LocalPlayer)
 48: 0x0936 [0x80] LOAD_WAIT(entity=Voidwatch Officer (ID: 17739951/0x010EB0AF))
 49: 0x093B [0x4A] LocalPlayer looks at Voidwatch Officer (ID: 17739951/0x010EB0AF)
 50: 0x0944 [0x4A] Voidwatch Officer (ID: 17739951/0x010EB0AF) looks at LocalPlayer
 51: 0x094D [0x6F] WAIT_FRAME_DELAY: Yield until WaitTime reaches zero
 52: 0x094E [0x76] CHECK_ENTITY_RENDER_FLAGS: Wait until Voidwatch Officer (ID: 17739951/0x010EB0AF) Render.Flags0 and Render.Flags3 conditions are met
 53: 0x0953 [0x1C] WAIT(30* ticks)
 54: 0x0956 [0x02] IF !(ExtData[1]->WorkLocal[0] == 1*) GOTO 0x0972
 55: 0x095E [0x45] LOAD_SCHEDULED_TASK: Load scheduler "cp01" with entities [LocalPlayer, LocalPlayer], work=[577*, 0*]
 56: 0x096F [0x01] GOTO 0x0AC2
 57: 0x0972 [0x02] IF !(ExtData[1]->WorkLocal[0] == 2*) GOTO 0x098E
 58: 0x097A [0x45] LOAD_SCHEDULED_TASK: Load scheduler "cp02" with entities [LocalPlayer, LocalPlayer], work=[577*, 0*]
 59: 0x098B [0x01] GOTO 0x0AC2
 60: 0x098E [0x02] IF !(ExtData[1]->WorkLocal[0] == 3*) GOTO 0x09AA
 61: 0x0996 [0x45] LOAD_SCHEDULED_TASK: Load scheduler "cp03" with entities [LocalPlayer, LocalPlayer], work=[577*, 0*]
 62: 0x09A7 [0x01] GOTO 0x0AC2
 63: 0x09AA [0x02] IF !(ExtData[1]->WorkLocal[0] == 4*) GOTO 0x09C6
 64: 0x09B2 [0x45] LOAD_SCHEDULED_TASK: Load scheduler "cp04" with entities [LocalPlayer, LocalPlayer], work=[577*, 0*]
 65: 0x09C3 [0x01] GOTO 0x0AC2
 66: 0x09C6 [0x02] IF !(ExtData[1]->WorkLocal[0] == 5*) GOTO 0x09E2
 67: 0x09CE [0x45] LOAD_SCHEDULED_TASK: Load scheduler "cp05" with entities [LocalPlayer, LocalPlayer], work=[577*, 0*]
 68: 0x09DF [0x01] GOTO 0x0AC2
 69: 0x09E2 [0x02] IF !(ExtData[1]->WorkLocal[0] == 6*) GOTO 0x09FE
 70: 0x09EA [0x45] LOAD_SCHEDULED_TASK: Load scheduler "cp06" with entities [LocalPlayer, LocalPlayer], work=[577*, 0*]
 71: 0x09FB [0x01] GOTO 0x0AC2
 72: 0x09FE [0x02] IF !(ExtData[1]->WorkLocal[0] == 10*) GOTO 0x0A1A
 73: 0x0A06 [0x45] LOAD_SCHEDULED_TASK: Load scheduler "cp07" with entities [LocalPlayer, LocalPlayer], work=[577*, 0*]
 74: 0x0A17 [0x01] GOTO 0x0AC2
 75: 0x0A1A [0x02] IF !(ExtData[1]->WorkLocal[0] == 11*) GOTO 0x0A36
 76: 0x0A22 [0x45] LOAD_SCHEDULED_TASK: Load scheduler "cp08" with entities [LocalPlayer, LocalPlayer], work=[577*, 0*]
 77: 0x0A33 [0x01] GOTO 0x0AC2
 78: 0x0A36 [0x02] IF !(ExtData[1]->WorkLocal[0] == 12*) GOTO 0x0A52
 79: 0x0A3E [0x45] LOAD_SCHEDULED_TASK: Load scheduler "cp09" with entities [LocalPlayer, LocalPlayer], work=[577*, 0*]
 80: 0x0A4F [0x01] GOTO 0x0AC2
 81: 0x0A52 [0x02] IF !(ExtData[1]->WorkLocal[0] == 13*) GOTO 0x0A6E
 82: 0x0A5A [0x45] LOAD_SCHEDULED_TASK: Load scheduler "cp10" with entities [LocalPlayer, LocalPlayer], work=[577*, 0*]
 83: 0x0A6B [0x01] GOTO 0x0AC2
 84: 0x0A6E [0x02] IF !(ExtData[1]->WorkLocal[0] == 14*) GOTO 0x0A8A
 85: 0x0A76 [0x45] LOAD_SCHEDULED_TASK: Load scheduler "cp11" with entities [LocalPlayer, LocalPlayer], work=[577*, 0*]
 86: 0x0A87 [0x01] GOTO 0x0AC2
 87: 0x0A8A [0x02] IF !(ExtData[1]->WorkLocal[0] == 15*) GOTO 0x0AA6
 88: 0x0A92 [0x45] LOAD_SCHEDULED_TASK: Load scheduler "cp12" with entities [LocalPlayer, LocalPlayer], work=[577*, 0*]
 89: 0x0AA3 [0x01] GOTO 0x0AC2
 90: 0x0AA6 [0x02] IF !(ExtData[1]->WorkLocal[0] == 16*) GOTO 0x0AC2
 91: 0x0AAE [0x45] LOAD_SCHEDULED_TASK: Load scheduler "cp13" with entities [LocalPlayer, LocalPlayer], work=[577*, 0*]
 92: 0x0ABF [0x01] GOTO 0x0AC2

SUBROUTINE_0AC2:
 93: 0x0AC2 [0x1A] CALL_SUBROUTINE(address=0x1C8D)
 94: 0x0AC5 [0x2B] Voidwatch Officer (ID: 17739951/0x010EB0AF) [13896*]:
    → "Excellent work, <Player>. You serve the Voidwatch well. Your presence has been requested in the Grand Duchy once more. Make your way there with all speed."
 95: 0x0ACC [0x23] WAIT_FOR_DIALOG_INTERACTION
 96: 0x0ACD [0x29] REQ_SET_WAIT(priority=0x10, entity_id=Voidwatch Officer (ID: 17739951/0x010EB0AF), tag_num=0x0C)
 97: 0x0AD4 [0x29] REQ_SET_WAIT(priority=0x10, entity_id=Voidwatch Officer (ID: 17739951/0x010EB0AF), tag_num=0x0A)
 98: 0x0ADB [0x02] IF !(ExtData[1]->WorkLocal[0] == 1*) GOTO 0x0AF6
 99: 0x0AE3 [0x2B] Voidwatch Officer (ID: 17739951/0x010EB0AF) [13897*]:
    → "As before, a full briefing will be conducted upon your arrival at the palace."
100: 0x0AEA [0x23] WAIT_FOR_DIALOG_INTERACTION
101: 0x0AEB [0x2B] Voidwatch Officer (ID: 17739951/0x010EB0AF) [13898*]:
    → "That is all. You're dismissed, soldier!"
102: 0x0AF2 [0x23] WAIT_FOR_DIALOG_INTERACTION
103: 0x0AF3 [0x01] GOTO 0x0C3A
104: 0x0AF6 [0x02] IF !(ExtData[1]->WorkLocal[0] == 2*) GOTO 0x0B11
105: 0x0AFE [0x2B] Voidwatch Officer (ID: 17739951/0x010EB0AF) [13897*]:
    → "As before, a full briefing will be conducted upon your arrival at the palace."
106: 0x0B05 [0x23] WAIT_FOR_DIALOG_INTERACTION
107: 0x0B06 [0x2B] Voidwatch Officer (ID: 17739951/0x010EB0AF) [13898*]:
    → "That is all. You're dismissed, soldier!"
108: 0x0B0D [0x23] WAIT_FOR_DIALOG_INTERACTION
109: 0x0B0E [0x01] GOTO 0x0C3A
110: 0x0B11 [0x02] IF !(ExtData[1]->WorkLocal[0] == 3*) GOTO 0x0B2C
111: 0x0B19 [0x2B] Voidwatch Officer (ID: 17739951/0x010EB0AF) [13897*]:
    → "As before, a full briefing will be conducted upon your arrival at the palace."
112: 0x0B20 [0x23] WAIT_FOR_DIALOG_INTERACTION
113: 0x0B21 [0x2B] Voidwatch Officer (ID: 17739951/0x010EB0AF) [13898*]:
    → "That is all. You're dismissed, soldier!"
114: 0x0B28 [0x23] WAIT_FOR_DIALOG_INTERACTION
115: 0x0B29 [0x01] GOTO 0x0C3A
116: 0x0B2C [0x02] IF !(ExtData[1]->WorkLocal[0] == 4*) GOTO 0x0B47
117: 0x0B34 [0x2B] Voidwatch Officer (ID: 17739951/0x010EB0AF) [13899*]:
    → "As before, a full briefing will be conducted upon your arrival at the palace. Show your alarum at the bulwark gate at Sauromugue and one of our men will see you through the checkpoint."
118: 0x0B3B [0x23] WAIT_FOR_DIALOG_INTERACTION
119: 0x0B3C [0x2B] Voidwatch Officer (ID: 17739951/0x010EB0AF) [13900*]:
    → "That is all. You're dismissed, soldier!"
120: 0x0B43 [0x23] WAIT_FOR_DIALOG_INTERACTION
121: 0x0B44 [0x01] GOTO 0x0C3A
122: 0x0B47 [0x02] IF !(ExtData[1]->WorkLocal[0] == 5*) GOTO 0x0B62
123: 0x0B4F [0x2B] Voidwatch Officer (ID: 17739951/0x010EB0AF) [13899*]:
    → "As before, a full briefing will be conducted upon your arrival at the palace. Show your alarum at the bulwark gate at Sauromugue and one of our men will see you through the checkpoint."
124: 0x0B56 [0x23] WAIT_FOR_DIALOG_INTERACTION
125: 0x0B57 [0x2B] Voidwatch Officer (ID: 17739951/0x010EB0AF) [13900*]:
    → "That is all. You're dismissed, soldier!"
126: 0x0B5E [0x23] WAIT_FOR_DIALOG_INTERACTION
127: 0x0B5F [0x01] GOTO 0x0C3A
128: 0x0B62 [0x02] IF !(ExtData[1]->WorkLocal[0] == 6*) GOTO 0x0B7D
129: 0x0B6A [0x2B] Voidwatch Officer (ID: 17739951/0x010EB0AF) [13899*]:
    → "As before, a full briefing will be conducted upon your arrival at the palace. Show your alarum at the bulwark gate at Sauromugue and one of our men will see you through the checkpoint."
130: 0x0B71 [0x23] WAIT_FOR_DIALOG_INTERACTION
131: 0x0B72 [0x2B] Voidwatch Officer (ID: 17739951/0x010EB0AF) [13900*]:
    → "That is all. You're dismissed, soldier!"
132: 0x0B79 [0x23] WAIT_FOR_DIALOG_INTERACTION
133: 0x0B7A [0x01] GOTO 0x0C3A
134: 0x0B7D [0x02] IF !(ExtData[1]->WorkLocal[0] == 10*) GOTO 0x0B98
135: 0x0B85 [0x2B] Voidwatch Officer (ID: 17739951/0x010EB0AF) [13897*]:
    → "As before, a full briefing will be conducted upon your arrival at the palace."
136: 0x0B8C [0x23] WAIT_FOR_DIALOG_INTERACTION
137: 0x0B8D [0x2B] Voidwatch Officer (ID: 17739951/0x010EB0AF) [13898*]:
    → "That is all. You're dismissed, soldier!"
138: 0x0B94 [0x23] WAIT_FOR_DIALOG_INTERACTION
139: 0x0B95 [0x01] GOTO 0x0C3A
140: 0x0B98 [0x02] IF !(ExtData[1]->WorkLocal[0] == 11*) GOTO 0x0BB3
141: 0x0BA0 [0x2B] Voidwatch Officer (ID: 17739951/0x010EB0AF) [13897*]:
    → "As before, a full briefing will be conducted upon your arrival at the palace."
142: 0x0BA7 [0x23] WAIT_FOR_DIALOG_INTERACTION
143: 0x0BA8 [0x2B] Voidwatch Officer (ID: 17739951/0x010EB0AF) [13898*]:
    → "That is all. You're dismissed, soldier!"
144: 0x0BAF [0x23] WAIT_FOR_DIALOG_INTERACTION
145: 0x0BB0 [0x01] GOTO 0x0C3A
146: 0x0BB3 [0x02] IF !(ExtData[1]->WorkLocal[0] == 12*) GOTO 0x0BCE
147: 0x0BBB [0x2B] Voidwatch Officer (ID: 17739951/0x010EB0AF) [13897*]:
    → "As before, a full briefing will be conducted upon your arrival at the palace."
148: 0x0BC2 [0x23] WAIT_FOR_DIALOG_INTERACTION
149: 0x0BC3 [0x2B] Voidwatch Officer (ID: 17739951/0x010EB0AF) [13898*]:
    → "That is all. You're dismissed, soldier!"
150: 0x0BCA [0x23] WAIT_FOR_DIALOG_INTERACTION
151: 0x0BCB [0x01] GOTO 0x0C3A
152: 0x0BCE [0x02] IF !(ExtData[1]->WorkLocal[0] == 13*) GOTO 0x0BE9
153: 0x0BD6 [0x2B] Voidwatch Officer (ID: 17739951/0x010EB0AF) [13899*]:
    → "As before, a full briefing will be conducted upon your arrival at the palace. Show your alarum at the bulwark gate at Sauromugue and one of our men will see you through the checkpoint."
154: 0x0BDD [0x23] WAIT_FOR_DIALOG_INTERACTION
155: 0x0BDE [0x2B] Voidwatch Officer (ID: 17739951/0x010EB0AF) [13900*]:
    → "That is all. You're dismissed, soldier!"
156: 0x0BE5 [0x23] WAIT_FOR_DIALOG_INTERACTION
157: 0x0BE6 [0x01] GOTO 0x0C3A
158: 0x0BE9 [0x02] IF !(ExtData[1]->WorkLocal[0] == 14*) GOTO 0x0C04
159: 0x0BF1 [0x2B] Voidwatch Officer (ID: 17739951/0x010EB0AF) [13899*]:
    → "As before, a full briefing will be conducted upon your arrival at the palace. Show your alarum at the bulwark gate at Sauromugue and one of our men will see you through the checkpoint."
160: 0x0BF8 [0x23] WAIT_FOR_DIALOG_INTERACTION
161: 0x0BF9 [0x2B] Voidwatch Officer (ID: 17739951/0x010EB0AF) [13900*]:
    → "That is all. You're dismissed, soldier!"
162: 0x0C00 [0x23] WAIT_FOR_DIALOG_INTERACTION
163: 0x0C01 [0x01] GOTO 0x0C3A
164: 0x0C04 [0x02] IF !(ExtData[1]->WorkLocal[0] == 15*) GOTO 0x0C1F
165: 0x0C0C [0x2B] Voidwatch Officer (ID: 17739951/0x010EB0AF) [13901*]:
    → "As before, a full briefing will be conducted upon your arrival at the palace. Show your alarum at the bulwark gate over there and one of our men will see you through the checkpoint."
166: 0x0C13 [0x23] WAIT_FOR_DIALOG_INTERACTION
167: 0x0C14 [0x2B] Voidwatch Officer (ID: 17739951/0x010EB0AF) [13900*]:
    → "That is all. You're dismissed, soldier!"
168: 0x0C1B [0x23] WAIT_FOR_DIALOG_INTERACTION
169: 0x0C1C [0x01] GOTO 0x0C3A
170: 0x0C1F [0x02] IF !(ExtData[1]->WorkLocal[0] == 16*) GOTO 0x0C3A
171: 0x0C27 [0x2B] Voidwatch Officer (ID: 17739951/0x010EB0AF) [13897*]:
    → "As before, a full briefing will be conducted upon your arrival at the palace."
172: 0x0C2E [0x23] WAIT_FOR_DIALOG_INTERACTION
173: 0x0C2F [0x2B] Voidwatch Officer (ID: 17739951/0x010EB0AF) [13898*]:
    → "That is all. You're dismissed, soldier!"
174: 0x0C36 [0x23] WAIT_FOR_DIALOG_INTERACTION
175: 0x0C37 [0x01] GOTO 0x0C3A

SUBROUTINE_0C3A:
176: 0x0C3A [0x29] REQ_SET_WAIT(priority=0x10, entity_id=Voidwatch Officer (ID: 17739951/0x010EB0AF), tag_num=0x0B)
177: 0x0C41 [0x1A] CALL_SUBROUTINE(address=0x1CAE)
178: 0x0C44 [0x1C] WAIT(30* ticks)
179: 0x0C47 [0x52] END_LOAD_SCHEDULER: End scheduler "cp01" with entities [LocalPlayer, LocalPlayer], work=577*
180: 0x0C56 [0x52] END_LOAD_SCHEDULER: End scheduler "cp02" with entities [LocalPlayer, LocalPlayer], work=577*
181: 0x0C65 [0x52] END_LOAD_SCHEDULER: End scheduler "cp03" with entities [LocalPlayer, LocalPlayer], work=577*
182: 0x0C74 [0x52] END_LOAD_SCHEDULER: End scheduler "cp04" with entities [LocalPlayer, LocalPlayer], work=577*
183: 0x0C83 [0x52] END_LOAD_SCHEDULER: End scheduler "cp05" with entities [LocalPlayer, LocalPlayer], work=577*
184: 0x0C92 [0x52] END_LOAD_SCHEDULER: End scheduler "cp06" with entities [LocalPlayer, LocalPlayer], work=577*
185: 0x0CA1 [0x52] END_LOAD_SCHEDULER: End scheduler "cp07" with entities [LocalPlayer, LocalPlayer], work=577*
186: 0x0CB0 [0x52] END_LOAD_SCHEDULER: End scheduler "cp08" with entities [LocalPlayer, LocalPlayer], work=577*
187: 0x0CBF [0x52] END_LOAD_SCHEDULER: End scheduler "cp09" with entities [LocalPlayer, LocalPlayer], work=577*
188: 0x0CCE [0x52] END_LOAD_SCHEDULER: End scheduler "cp10" with entities [LocalPlayer, LocalPlayer], work=577*
189: 0x0CDD [0x52] END_LOAD_SCHEDULER: End scheduler "cp11" with entities [LocalPlayer, LocalPlayer], work=577*
190: 0x0CEC [0x52] END_LOAD_SCHEDULER: End scheduler "cp12" with entities [LocalPlayer, LocalPlayer], work=577*
191: 0x0CFB [0x52] END_LOAD_SCHEDULER: End scheduler "cp13" with entities [LocalPlayer, LocalPlayer], work=577*
192: 0x0D0A [0x45] LOAD_SCHEDULED_TASK: Load scheduler "0blf" with entities [LocalPlayer, LocalPlayer], work=[577*, 0*]
193: 0x0D1B [0x1C] WAIT(15* ticks)
194: 0x0D1E [0xAB] EventEntity->DespawnValue = 0* // Set despawn value
195: 0x0D22 [0x1C] WAIT(1* ticks)
196: 0x0D25 [0x46] CAMERA_CONTROL: Restore default settings
197: 0x0D27 [0x45] LOAD_SCHEDULED_TASK: Load scheduler "fdi2" with entities [LocalPlayer, LocalPlayer], work=[200*, 0*]
198: 0x0D38 [0x21] END_EVENT
199: 0x0D39 [0x00] END_REQSTACK()
```

### Event 16

#### Metadata

| Field        | Value     |
|--------------|-----------|
| Entrypoint   | 0x0D3A    |
| Data Size    | 640 bytes |
| Instructions | 84        |

```
      00 01 02 03 04 05 06 07  08 09 0A 0B 0C 0D 0E 0F
      -- -- -- -- -- -- -- --  -- -- -- -- -- -- -- --
0D30:                                42 1A AE 1C 03 00            B.....
0D40: 00 02 10 46 01 38 00 80  92 01 AF B0 0E 01 94 01  ...F.8..........
0D50: F0 FF FF 7F 94 01 AF B0  0E 01 02 00 00 01 80 80  ................
0D60: 72 0D BA F0 FF FF 7F 02  80 03 80 04 80 05 80 01  r...............
0D70: 02 0E 02 00 00 06 80 80  8A 0D BA F0 FF FF 7F 07  ................
0D80: 80 08 80 09 80 0A 80 01  02 0E 02 00 00 0B 80 80  ................
0D90: A2 0D BA F0 FF FF 7F 0C  80 0D 80 0E 80 0F 80 01  ................
0DA0: 02 0E 02 00 00 29 80 80  BA 0D BA F0 FF FF 7F 2A  .....).........*
0DB0: 80 2B 80 2C 80 2D 80 01  02 0E 02 00 00 2E 80 80  .+.,.-..........
0DC0: D2 0D BA F0 FF FF 7F 2F  80 30 80 31 80 32 80 01  ......./.0.1.2..
0DD0: 02 0E 02 00 00 33 80 80  EA 0D BA F0 FF FF 7F 34  .....3.........4
0DE0: 80 35 80 36 80 37 80 01  02 0E 02 00 00 45 80 80  .5.6.7.......E..
0DF0: 02 0E BA F0 FF FF 7F 46  80 47 80 48 80 49 80 01  .......F.G.H.I..
0E00: 02 0E 80 F0 FF FF 7F 80  AF B0 0E 01 4A F0 FF FF  ............J...
0E10: 7F AF B0 0E 01 4A AF B0  0E 01 F0 FF FF 7F 6F 76  .....J........ov
0E20: AF B0 0E 01 1C 1E 80 02  00 00 01 80 80 43 0E 45  .............C.E
0E30: 1F 80 F0 FF FF 7F F0 FF  FF 7F 63 70 30 31 17 80  ..........cp01..
0E40: 01 EB 0E 02 00 00 06 80  80 5F 0E 45 1F 80 F0 FF  ........._.E....
0E50: FF 7F F0 FF FF 7F 63 70  30 32 17 80 01 EB 0E 02  ......cp02......
0E60: 00 00 0B 80 80 7B 0E 45  1F 80 F0 FF FF 7F F0 FF  .....{.E........
0E70: FF 7F 63 70 30 33 17 80  01 EB 0E 02 00 00 29 80  ..cp03........).
0E80: 80 97 0E 45 1F 80 F0 FF  FF 7F F0 FF FF 7F 63 70  ...E..........cp
0E90: 30 37 17 80 01 EB 0E 02  00 00 2E 80 80 B3 0E 45  07.............E
0EA0: 1F 80 F0 FF FF 7F F0 FF  FF 7F 63 70 30 38 17 80  ..........cp08..
0EB0: 01 EB 0E 02 00 00 33 80  80 CF 0E 45 1F 80 F0 FF  ......3....E....
0EC0: FF 7F F0 FF FF 7F 63 70  30 39 17 80 01 EB 0E 02  ......cp09......
0ED0: 00 00 45 80 80 EB 0E 45  1F 80 F0 FF FF 7F F0 FF  ..E....E........
0EE0: FF 7F 63 70 31 33 17 80  01 EB 0E 1A 8D 1C 2B AF  ..cp13........+.
0EF0: B0 0E 01 50 80 23 29 10  AF B0 0E 01 0C 29 10 AF  ...P.#)......)..
0F00: B0 0E 01 0A 2B AF B0 0E  01 4B 80 23 2B AF B0 0E  ....+....K.#+...
0F10: 01 4C 80 23 29 10 AF B0  0E 01 0B 1A AE 1C 1C 1E  .L.#)...........
0F20: 80 52 1F 80 F0 FF FF 7F  F0 FF FF 7F 63 70 30 31  .R..........cp01
0F30: 52 1F 80 F0 FF FF 7F F0  FF FF 7F 63 70 30 32 52  R..........cp02R
0F40: 1F 80 F0 FF FF 7F F0 FF  FF 7F 63 70 30 33 52 1F  ..........cp03R.
0F50: 80 F0 FF FF 7F F0 FF FF  7F 63 70 30 37 52 1F 80  .........cp07R..
0F60: F0 FF FF 7F F0 FF FF 7F  63 70 30 38 52 1F 80 F0  ........cp08R...
0F70: FF FF 7F F0 FF FF 7F 63  70 30 39 52 1F 80 F0 FF  .......cp09R....
0F80: FF 7F F0 FF FF 7F 63 70  31 33 45 1F 80 F0 FF FF  ......cp13E.....
0F90: 7F F0 FF FF 7F 30 62 6C  66 17 80 1C 22 80 AB 11  .....0blf..."...
0FA0: 17 80 1C 01 80 46 00 45  28 80 F0 FF FF 7F F0 FF  .....F.E(.......
0FB0: FF 7F 66 64 69 32 17 80  21 00                    ..fdi2..!.      
```

#### Opcodes

```
  0: 0x0D3A [0x42] SET_CLI_EVENT_CANCEL_DATA()
  1: 0x0D3B [0x1A] CALL_SUBROUTINE(address=0x1CAE)
  2: 0x0D3E [0x03] ExtData[1]->WorkLocal[0] = Work_Zone[2]
  3: 0x0D43 [0x46] CAMERA_CONTROL: Disable user control
  4: 0x0D45 [0x38] SET_CLIENT_EVENT_MODE(mode=19*)
  5: 0x0D48 [0x92] Voidwatch Officer (ID: 17739951/0x010EB0AF)->Render.Flags3 ^= 0x01
  6: 0x0D4E [0x94] LocalPlayer->Render.Flags3 ^= 0x01
  7: 0x0D54 [0x94] Voidwatch Officer (ID: 17739951/0x010EB0AF)->Render.Flags3 ^= 0x01
  8: 0x0D5A [0x02] IF !(ExtData[1]->WorkLocal[0] == 1*) GOTO 0x0D72
  9: 0x0D62 [0xBA] SET_ENTITY_POSITION(entity_id=LocalPlayer, pos_x=-106.023*, pos_z=-18.084*, pos_y=1.999*, direction=274.2°*)
 10: 0x0D6F [0x01] GOTO 0x0E02
 11: 0x0D72 [0x02] IF !(ExtData[1]->WorkLocal[0] == 2*) GOTO 0x0D8A
 12: 0x0D7A [0xBA] SET_ENTITY_POSITION(entity_id=LocalPlayer, pos_x=-354.003*, pos_z=-163.601*, pos_y=-10.011*, direction=313.2°*)
 13: 0x0D87 [0x01] GOTO 0x0E02
 14: 0x0D8A [0x02] IF !(ExtData[1]->WorkLocal[0] == 3*) GOTO 0x0DA2
 15: 0x0D92 [0xBA] SET_ENTITY_POSITION(entity_id=LocalPlayer, pos_x=-29.054*, pos_z=224.362*, pos_y=-4.817*, direction=323.9°*)
 16: 0x0D9F [0x01] GOTO 0x0E02
 17: 0x0DA2 [0x02] IF !(ExtData[1]->WorkLocal[0] == 10*) GOTO 0x0DBA
 18: 0x0DAA [0xBA] SET_ENTITY_POSITION(entity_id=LocalPlayer, pos_x=427.675*, pos_z=-134.695*, pos_y=8.247*, direction=38.8°*)
 19: 0x0DB7 [0x01] GOTO 0x0E02
 20: 0x0DBA [0x02] IF !(ExtData[1]->WorkLocal[0] == 11*) GOTO 0x0DD2
 21: 0x0DC2 [0xBA] SET_ENTITY_POSITION(entity_id=LocalPlayer, pos_x=190.047*, pos_z=461.835*, pos_y=24.600*, direction=317.4°*)
 22: 0x0DCF [0x01] GOTO 0x0E02
 23: 0x0DD2 [0x02] IF !(ExtData[1]->WorkLocal[0] == 12*) GOTO 0x0DEA
 24: 0x0DDA [0xBA] SET_ENTITY_POSITION(entity_id=LocalPlayer, pos_x=-438.881*, pos_z=333.048*, pos_y=0.499*, direction=180.8°*)
 25: 0x0DE7 [0x01] GOTO 0x0E02
 26: 0x0DEA [0x02] IF !(ExtData[1]->WorkLocal[0] == 16*) GOTO 0x0E02
 27: 0x0DF2 [0xBA] SET_ENTITY_POSITION(entity_id=LocalPlayer, pos_x=145.477*, pos_z=-410.065*, pos_y=21.110*, direction=183.3°*)
 28: 0x0DFF [0x01] GOTO 0x0E02

SUBROUTINE_0E02:
 29: 0x0E02 [0x80] LOAD_WAIT(entity=LocalPlayer)
 30: 0x0E07 [0x80] LOAD_WAIT(entity=Voidwatch Officer (ID: 17739951/0x010EB0AF))
 31: 0x0E0C [0x4A] LocalPlayer looks at Voidwatch Officer (ID: 17739951/0x010EB0AF)
 32: 0x0E15 [0x4A] Voidwatch Officer (ID: 17739951/0x010EB0AF) looks at LocalPlayer
 33: 0x0E1E [0x6F] WAIT_FRAME_DELAY: Yield until WaitTime reaches zero
 34: 0x0E1F [0x76] CHECK_ENTITY_RENDER_FLAGS: Wait until Voidwatch Officer (ID: 17739951/0x010EB0AF) Render.Flags0 and Render.Flags3 conditions are met
 35: 0x0E24 [0x1C] WAIT(30* ticks)
 36: 0x0E27 [0x02] IF !(ExtData[1]->WorkLocal[0] == 1*) GOTO 0x0E43
 37: 0x0E2F [0x45] LOAD_SCHEDULED_TASK: Load scheduler "cp01" with entities [LocalPlayer, LocalPlayer], work=[577*, 0*]
 38: 0x0E40 [0x01] GOTO 0x0EEB
 39: 0x0E43 [0x02] IF !(ExtData[1]->WorkLocal[0] == 2*) GOTO 0x0E5F
 40: 0x0E4B [0x45] LOAD_SCHEDULED_TASK: Load scheduler "cp02" with entities [LocalPlayer, LocalPlayer], work=[577*, 0*]
 41: 0x0E5C [0x01] GOTO 0x0EEB
 42: 0x0E5F [0x02] IF !(ExtData[1]->WorkLocal[0] == 3*) GOTO 0x0E7B
 43: 0x0E67 [0x45] LOAD_SCHEDULED_TASK: Load scheduler "cp03" with entities [LocalPlayer, LocalPlayer], work=[577*, 0*]
 44: 0x0E78 [0x01] GOTO 0x0EEB
 45: 0x0E7B [0x02] IF !(ExtData[1]->WorkLocal[0] == 10*) GOTO 0x0E97
 46: 0x0E83 [0x45] LOAD_SCHEDULED_TASK: Load scheduler "cp07" with entities [LocalPlayer, LocalPlayer], work=[577*, 0*]
 47: 0x0E94 [0x01] GOTO 0x0EEB
 48: 0x0E97 [0x02] IF !(ExtData[1]->WorkLocal[0] == 11*) GOTO 0x0EB3
 49: 0x0E9F [0x45] LOAD_SCHEDULED_TASK: Load scheduler "cp08" with entities [LocalPlayer, LocalPlayer], work=[577*, 0*]
 50: 0x0EB0 [0x01] GOTO 0x0EEB
 51: 0x0EB3 [0x02] IF !(ExtData[1]->WorkLocal[0] == 12*) GOTO 0x0ECF
 52: 0x0EBB [0x45] LOAD_SCHEDULED_TASK: Load scheduler "cp09" with entities [LocalPlayer, LocalPlayer], work=[577*, 0*]
 53: 0x0ECC [0x01] GOTO 0x0EEB
 54: 0x0ECF [0x02] IF !(ExtData[1]->WorkLocal[0] == 16*) GOTO 0x0EEB
 55: 0x0ED7 [0x45] LOAD_SCHEDULED_TASK: Load scheduler "cp13" with entities [LocalPlayer, LocalPlayer], work=[577*, 0*]
 56: 0x0EE8 [0x01] GOTO 0x0EEB

SUBROUTINE_0EEB:
 57: 0x0EEB [0x1A] CALL_SUBROUTINE(address=0x1C8D)
 58: 0x0EEE [0x2B] Voidwatch Officer (ID: 17739951/0x010EB0AF) [13926*]:
    → "Hold it right there, soldier! A summons just came in from the Grand Duchy, and it's got your name on it. The envoy said it's an urgent matter, so I suggest you get moving."
 59: 0x0EF5 [0x23] WAIT_FOR_DIALOG_INTERACTION
 60: 0x0EF6 [0x29] REQ_SET_WAIT(priority=0x10, entity_id=Voidwatch Officer (ID: 17739951/0x010EB0AF), tag_num=0x0C)
 61: 0x0EFD [0x29] REQ_SET_WAIT(priority=0x10, entity_id=Voidwatch Officer (ID: 17739951/0x010EB0AF), tag_num=0x0A)
 62: 0x0F04 [0x2B] Voidwatch Officer (ID: 17739951/0x010EB0AF) [13897*]:
    → "As before, a full briefing will be conducted upon your arrival at the palace."
 63: 0x0F0B [0x23] WAIT_FOR_DIALOG_INTERACTION
 64: 0x0F0C [0x2B] Voidwatch Officer (ID: 17739951/0x010EB0AF) [13898*]:
    → "That is all. You're dismissed, soldier!"
 65: 0x0F13 [0x23] WAIT_FOR_DIALOG_INTERACTION
 66: 0x0F14 [0x29] REQ_SET_WAIT(priority=0x10, entity_id=Voidwatch Officer (ID: 17739951/0x010EB0AF), tag_num=0x0B)
 67: 0x0F1B [0x1A] CALL_SUBROUTINE(address=0x1CAE)
 68: 0x0F1E [0x1C] WAIT(30* ticks)
 69: 0x0F21 [0x52] END_LOAD_SCHEDULER: End scheduler "cp01" with entities [LocalPlayer, LocalPlayer], work=577*
 70: 0x0F30 [0x52] END_LOAD_SCHEDULER: End scheduler "cp02" with entities [LocalPlayer, LocalPlayer], work=577*
 71: 0x0F3F [0x52] END_LOAD_SCHEDULER: End scheduler "cp03" with entities [LocalPlayer, LocalPlayer], work=577*
 72: 0x0F4E [0x52] END_LOAD_SCHEDULER: End scheduler "cp07" with entities [LocalPlayer, LocalPlayer], work=577*
 73: 0x0F5D [0x52] END_LOAD_SCHEDULER: End scheduler "cp08" with entities [LocalPlayer, LocalPlayer], work=577*
 74: 0x0F6C [0x52] END_LOAD_SCHEDULER: End scheduler "cp09" with entities [LocalPlayer, LocalPlayer], work=577*
 75: 0x0F7B [0x52] END_LOAD_SCHEDULER: End scheduler "cp13" with entities [LocalPlayer, LocalPlayer], work=577*
 76: 0x0F8A [0x45] LOAD_SCHEDULED_TASK: Load scheduler "0blf" with entities [LocalPlayer, LocalPlayer], work=[577*, 0*]
 77: 0x0F9B [0x1C] WAIT(15* ticks)
 78: 0x0F9E [0xAB] EventEntity->DespawnValue = 0* // Set despawn value
 79: 0x0FA2 [0x1C] WAIT(1* ticks)
 80: 0x0FA5 [0x46] CAMERA_CONTROL: Restore default settings
 81: 0x0FA7 [0x45] LOAD_SCHEDULED_TASK: Load scheduler "fdi2" with entities [LocalPlayer, LocalPlayer], work=[200*, 0*]
 82: 0x0FB8 [0x21] END_EVENT
 83: 0x0FB9 [0x00] END_REQSTACK()
```

### Event 17

#### Metadata

| Field        | Value     |
|--------------|-----------|
| Entrypoint   | 0x0FBA    |
| Data Size    | 640 bytes |
| Instructions | 84        |

```
      00 01 02 03 04 05 06 07  08 09 0A 0B 0C 0D 0E 0F
      -- -- -- -- -- -- -- --  -- -- -- -- -- -- -- --
0FB0:                                42 1A AE 1C 03 00            B.....
0FC0: 00 02 10 46 01 38 00 80  92 01 AF B0 0E 01 94 01  ...F.8..........
0FD0: F0 FF FF 7F 94 01 AF B0  0E 01 02 00 00 01 80 80  ................
0FE0: F2 0F BA F0 FF FF 7F 02  80 03 80 04 80 05 80 01  ................
0FF0: 82 10 02 00 00 06 80 80  0A 10 BA F0 FF FF 7F 07  ................
1000: 80 08 80 09 80 0A 80 01  82 10 02 00 00 0B 80 80  ................
1010: 22 10 BA F0 FF FF 7F 0C  80 0D 80 0E 80 0F 80 01  "...............
1020: 82 10 02 00 00 29 80 80  3A 10 BA F0 FF FF 7F 2A  .....)..:......*
1030: 80 2B 80 2C 80 2D 80 01  82 10 02 00 00 2E 80 80  .+.,.-..........
1040: 52 10 BA F0 FF FF 7F 2F  80 30 80 31 80 32 80 01  R....../.0.1.2..
1050: 82 10 02 00 00 33 80 80  6A 10 BA F0 FF FF 7F 34  .....3..j......4
1060: 80 35 80 36 80 37 80 01  82 10 02 00 00 45 80 80  .5.6.7.......E..
1070: 82 10 BA F0 FF FF 7F 46  80 47 80 48 80 49 80 01  .......F.G.H.I..
1080: 82 10 80 F0 FF FF 7F 80  AF B0 0E 01 4A F0 FF FF  ............J...
1090: 7F AF B0 0E 01 4A AF B0  0E 01 F0 FF FF 7F 6F 76  .....J........ov
10A0: AF B0 0E 01 1C 1E 80 02  00 00 01 80 80 C3 10 45  ...............E
10B0: 1F 80 F0 FF FF 7F F0 FF  FF 7F 63 70 30 31 17 80  ..........cp01..
10C0: 01 6B 11 02 00 00 06 80  80 DF 10 45 1F 80 F0 FF  .k.........E....
10D0: FF 7F F0 FF FF 7F 63 70  30 32 17 80 01 6B 11 02  ......cp02...k..
10E0: 00 00 0B 80 80 FB 10 45  1F 80 F0 FF FF 7F F0 FF  .......E........
10F0: FF 7F 63 70 30 33 17 80  01 6B 11 02 00 00 29 80  ..cp03...k....).
1100: 80 17 11 45 1F 80 F0 FF  FF 7F F0 FF FF 7F 63 70  ...E..........cp
1110: 30 37 17 80 01 6B 11 02  00 00 2E 80 80 33 11 45  07...k.......3.E
1120: 1F 80 F0 FF FF 7F F0 FF  FF 7F 63 70 30 38 17 80  ..........cp08..
1130: 01 6B 11 02 00 00 33 80  80 4F 11 45 1F 80 F0 FF  .k....3..O.E....
1140: FF 7F F0 FF FF 7F 63 70  30 39 17 80 01 6B 11 02  ......cp09...k..
1150: 00 00 45 80 80 6B 11 45  1F 80 F0 FF FF 7F F0 FF  ..E..k.E........
1160: FF 7F 63 70 31 33 17 80  01 6B 11 1A 8D 1C 2B AF  ..cp13...k....+.
1170: B0 0E 01 4A 80 23 29 10  AF B0 0E 01 0C 29 10 AF  ...J.#)......)..
1180: B0 0E 01 0A 2B AF B0 0E  01 4B 80 23 2B AF B0 0E  ....+....K.#+...
1190: 01 4C 80 23 29 10 AF B0  0E 01 0B 1A AE 1C 1C 1E  .L.#)...........
11A0: 80 52 1F 80 F0 FF FF 7F  F0 FF FF 7F 63 70 30 31  .R..........cp01
11B0: 52 1F 80 F0 FF FF 7F F0  FF FF 7F 63 70 30 32 52  R..........cp02R
11C0: 1F 80 F0 FF FF 7F F0 FF  FF 7F 63 70 30 33 52 1F  ..........cp03R.
11D0: 80 F0 FF FF 7F F0 FF FF  7F 63 70 30 37 52 1F 80  .........cp07R..
11E0: F0 FF FF 7F F0 FF FF 7F  63 70 30 38 52 1F 80 F0  ........cp08R...
11F0: FF FF 7F F0 FF FF 7F 63  70 30 39 52 1F 80 F0 FF  .......cp09R....
1200: FF 7F F0 FF FF 7F 63 70  31 33 45 1F 80 F0 FF FF  ......cp13E.....
1210: 7F F0 FF FF 7F 30 62 6C  66 17 80 1C 22 80 AB 11  .....0blf..."...
1220: 17 80 1C 01 80 46 00 45  28 80 F0 FF FF 7F F0 FF  .....F.E(.......
1230: FF 7F 66 64 69 32 17 80  21 00                    ..fdi2..!.      
```

#### Opcodes

```
  0: 0x0FBA [0x42] SET_CLI_EVENT_CANCEL_DATA()
  1: 0x0FBB [0x1A] CALL_SUBROUTINE(address=0x1CAE)
  2: 0x0FBE [0x03] ExtData[1]->WorkLocal[0] = Work_Zone[2]
  3: 0x0FC3 [0x46] CAMERA_CONTROL: Disable user control
  4: 0x0FC5 [0x38] SET_CLIENT_EVENT_MODE(mode=19*)
  5: 0x0FC8 [0x92] Voidwatch Officer (ID: 17739951/0x010EB0AF)->Render.Flags3 ^= 0x01
  6: 0x0FCE [0x94] LocalPlayer->Render.Flags3 ^= 0x01
  7: 0x0FD4 [0x94] Voidwatch Officer (ID: 17739951/0x010EB0AF)->Render.Flags3 ^= 0x01
  8: 0x0FDA [0x02] IF !(ExtData[1]->WorkLocal[0] == 1*) GOTO 0x0FF2
  9: 0x0FE2 [0xBA] SET_ENTITY_POSITION(entity_id=LocalPlayer, pos_x=-106.023*, pos_z=-18.084*, pos_y=1.999*, direction=274.2°*)
 10: 0x0FEF [0x01] GOTO 0x1082
 11: 0x0FF2 [0x02] IF !(ExtData[1]->WorkLocal[0] == 2*) GOTO 0x100A
 12: 0x0FFA [0xBA] SET_ENTITY_POSITION(entity_id=LocalPlayer, pos_x=-354.003*, pos_z=-163.601*, pos_y=-10.011*, direction=313.2°*)
 13: 0x1007 [0x01] GOTO 0x1082
 14: 0x100A [0x02] IF !(ExtData[1]->WorkLocal[0] == 3*) GOTO 0x1022
 15: 0x1012 [0xBA] SET_ENTITY_POSITION(entity_id=LocalPlayer, pos_x=-29.054*, pos_z=224.362*, pos_y=-4.817*, direction=323.9°*)
 16: 0x101F [0x01] GOTO 0x1082
 17: 0x1022 [0x02] IF !(ExtData[1]->WorkLocal[0] == 10*) GOTO 0x103A
 18: 0x102A [0xBA] SET_ENTITY_POSITION(entity_id=LocalPlayer, pos_x=427.675*, pos_z=-134.695*, pos_y=8.247*, direction=38.8°*)
 19: 0x1037 [0x01] GOTO 0x1082
 20: 0x103A [0x02] IF !(ExtData[1]->WorkLocal[0] == 11*) GOTO 0x1052
 21: 0x1042 [0xBA] SET_ENTITY_POSITION(entity_id=LocalPlayer, pos_x=190.047*, pos_z=461.835*, pos_y=24.600*, direction=317.4°*)
 22: 0x104F [0x01] GOTO 0x1082
 23: 0x1052 [0x02] IF !(ExtData[1]->WorkLocal[0] == 12*) GOTO 0x106A
 24: 0x105A [0xBA] SET_ENTITY_POSITION(entity_id=LocalPlayer, pos_x=-438.881*, pos_z=333.048*, pos_y=0.499*, direction=180.8°*)
 25: 0x1067 [0x01] GOTO 0x1082
 26: 0x106A [0x02] IF !(ExtData[1]->WorkLocal[0] == 16*) GOTO 0x1082
 27: 0x1072 [0xBA] SET_ENTITY_POSITION(entity_id=LocalPlayer, pos_x=145.477*, pos_z=-410.065*, pos_y=21.110*, direction=183.3°*)
 28: 0x107F [0x01] GOTO 0x1082

SUBROUTINE_1082:
 29: 0x1082 [0x80] LOAD_WAIT(entity=LocalPlayer)
 30: 0x1087 [0x80] LOAD_WAIT(entity=Voidwatch Officer (ID: 17739951/0x010EB0AF))
 31: 0x108C [0x4A] LocalPlayer looks at Voidwatch Officer (ID: 17739951/0x010EB0AF)
 32: 0x1095 [0x4A] Voidwatch Officer (ID: 17739951/0x010EB0AF) looks at LocalPlayer
 33: 0x109E [0x6F] WAIT_FRAME_DELAY: Yield until WaitTime reaches zero
 34: 0x109F [0x76] CHECK_ENTITY_RENDER_FLAGS: Wait until Voidwatch Officer (ID: 17739951/0x010EB0AF) Render.Flags0 and Render.Flags3 conditions are met
 35: 0x10A4 [0x1C] WAIT(30* ticks)
 36: 0x10A7 [0x02] IF !(ExtData[1]->WorkLocal[0] == 1*) GOTO 0x10C3
 37: 0x10AF [0x45] LOAD_SCHEDULED_TASK: Load scheduler "cp01" with entities [LocalPlayer, LocalPlayer], work=[577*, 0*]
 38: 0x10C0 [0x01] GOTO 0x116B
 39: 0x10C3 [0x02] IF !(ExtData[1]->WorkLocal[0] == 2*) GOTO 0x10DF
 40: 0x10CB [0x45] LOAD_SCHEDULED_TASK: Load scheduler "cp02" with entities [LocalPlayer, LocalPlayer], work=[577*, 0*]
 41: 0x10DC [0x01] GOTO 0x116B
 42: 0x10DF [0x02] IF !(ExtData[1]->WorkLocal[0] == 3*) GOTO 0x10FB
 43: 0x10E7 [0x45] LOAD_SCHEDULED_TASK: Load scheduler "cp03" with entities [LocalPlayer, LocalPlayer], work=[577*, 0*]
 44: 0x10F8 [0x01] GOTO 0x116B
 45: 0x10FB [0x02] IF !(ExtData[1]->WorkLocal[0] == 10*) GOTO 0x1117
 46: 0x1103 [0x45] LOAD_SCHEDULED_TASK: Load scheduler "cp07" with entities [LocalPlayer, LocalPlayer], work=[577*, 0*]
 47: 0x1114 [0x01] GOTO 0x116B
 48: 0x1117 [0x02] IF !(ExtData[1]->WorkLocal[0] == 11*) GOTO 0x1133
 49: 0x111F [0x45] LOAD_SCHEDULED_TASK: Load scheduler "cp08" with entities [LocalPlayer, LocalPlayer], work=[577*, 0*]
 50: 0x1130 [0x01] GOTO 0x116B
 51: 0x1133 [0x02] IF !(ExtData[1]->WorkLocal[0] == 12*) GOTO 0x114F
 52: 0x113B [0x45] LOAD_SCHEDULED_TASK: Load scheduler "cp09" with entities [LocalPlayer, LocalPlayer], work=[577*, 0*]
 53: 0x114C [0x01] GOTO 0x116B
 54: 0x114F [0x02] IF !(ExtData[1]->WorkLocal[0] == 16*) GOTO 0x116B
 55: 0x1157 [0x45] LOAD_SCHEDULED_TASK: Load scheduler "cp13" with entities [LocalPlayer, LocalPlayer], work=[577*, 0*]
 56: 0x1168 [0x01] GOTO 0x116B

SUBROUTINE_116B:
 57: 0x116B [0x1A] CALL_SUBROUTINE(address=0x1C8D)
 58: 0x116E [0x2B] Voidwatch Officer (ID: 17739951/0x010EB0AF) [13896*]:
    → "Excellent work, <Player>. You serve the Voidwatch well. Your presence has been requested in the Grand Duchy once more. Make your way there with all speed."
 59: 0x1175 [0x23] WAIT_FOR_DIALOG_INTERACTION
 60: 0x1176 [0x29] REQ_SET_WAIT(priority=0x10, entity_id=Voidwatch Officer (ID: 17739951/0x010EB0AF), tag_num=0x0C)
 61: 0x117D [0x29] REQ_SET_WAIT(priority=0x10, entity_id=Voidwatch Officer (ID: 17739951/0x010EB0AF), tag_num=0x0A)
 62: 0x1184 [0x2B] Voidwatch Officer (ID: 17739951/0x010EB0AF) [13897*]:
    → "As before, a full briefing will be conducted upon your arrival at the palace."
 63: 0x118B [0x23] WAIT_FOR_DIALOG_INTERACTION
 64: 0x118C [0x2B] Voidwatch Officer (ID: 17739951/0x010EB0AF) [13898*]:
    → "That is all. You're dismissed, soldier!"
 65: 0x1193 [0x23] WAIT_FOR_DIALOG_INTERACTION
 66: 0x1194 [0x29] REQ_SET_WAIT(priority=0x10, entity_id=Voidwatch Officer (ID: 17739951/0x010EB0AF), tag_num=0x0B)
 67: 0x119B [0x1A] CALL_SUBROUTINE(address=0x1CAE)
 68: 0x119E [0x1C] WAIT(30* ticks)
 69: 0x11A1 [0x52] END_LOAD_SCHEDULER: End scheduler "cp01" with entities [LocalPlayer, LocalPlayer], work=577*
 70: 0x11B0 [0x52] END_LOAD_SCHEDULER: End scheduler "cp02" with entities [LocalPlayer, LocalPlayer], work=577*
 71: 0x11BF [0x52] END_LOAD_SCHEDULER: End scheduler "cp03" with entities [LocalPlayer, LocalPlayer], work=577*
 72: 0x11CE [0x52] END_LOAD_SCHEDULER: End scheduler "cp07" with entities [LocalPlayer, LocalPlayer], work=577*
 73: 0x11DD [0x52] END_LOAD_SCHEDULER: End scheduler "cp08" with entities [LocalPlayer, LocalPlayer], work=577*
 74: 0x11EC [0x52] END_LOAD_SCHEDULER: End scheduler "cp09" with entities [LocalPlayer, LocalPlayer], work=577*
 75: 0x11FB [0x52] END_LOAD_SCHEDULER: End scheduler "cp13" with entities [LocalPlayer, LocalPlayer], work=577*
 76: 0x120A [0x45] LOAD_SCHEDULED_TASK: Load scheduler "0blf" with entities [LocalPlayer, LocalPlayer], work=[577*, 0*]
 77: 0x121B [0x1C] WAIT(15* ticks)
 78: 0x121E [0xAB] EventEntity->DespawnValue = 0* // Set despawn value
 79: 0x1222 [0x1C] WAIT(1* ticks)
 80: 0x1225 [0x46] CAMERA_CONTROL: Restore default settings
 81: 0x1227 [0x45] LOAD_SCHEDULED_TASK: Load scheduler "fdi2" with entities [LocalPlayer, LocalPlayer], work=[200*, 0*]
 82: 0x1238 [0x21] END_EVENT
 83: 0x1239 [0x00] END_REQSTACK()
```

### Event 18

#### Metadata

| Field        | Value     |
|--------------|-----------|
| Entrypoint   | 0x123A    |
| Data Size    | 600 bytes |
| Instructions | 83        |

```
      00 01 02 03 04 05 06 07  08 09 0A 0B 0C 0D 0E 0F
      -- -- -- -- -- -- -- --  -- -- -- -- -- -- -- --
1230:                                42 1A AE 1C 03 00            B.....
1240: 00 02 10 46 01 38 00 80  92 01 AF B0 0E 01 94 01  ...F.8..........
1250: F0 FF FF 7F 94 01 AF B0  0E 01 02 00 00 10 80 80  ................
1260: 72 12 BA F0 FF FF 7F 11  80 12 80 04 80 13 80 01  r...............
1270: EA 12 02 00 00 14 80 80  8A 12 BA F0 FF FF 7F 15  ................
1280: 80 16 80 17 80 18 80 01  EA 12 02 00 00 19 80 80  ................
1290: A2 12 BA F0 FF FF 7F 1A  80 1B 80 1C 80 1D 80 01  ................
12A0: EA 12 02 00 00 38 80 80  BA 12 BA F0 FF FF 7F 2A  .....8.........*
12B0: 80 39 80 3A 80 3B 80 01  EA 12 02 00 00 3C 80 80  .9.:.;.......<..
12C0: D2 12 BA F0 FF FF 7F 3D  80 3E 80 3F 80 40 80 01  .......=.>.?.@..
12D0: EA 12 02 00 00 22 80 80  EA 12 BA F0 FF FF 7F 41  .....".........A
12E0: 80 42 80 43 80 44 80 01  EA 12 80 F0 FF FF 7F 80  .B.C.D..........
12F0: AF B0 0E 01 4A F0 FF FF  7F AF B0 0E 01 4A AF B0  ....J........J..
1300: 0E 01 F0 FF FF 7F 6F 76  AF B0 0E 01 1C 1E 80 02  ......ov........
1310: 00 00 10 80 80 2B 13 45  1F 80 F0 FF FF 7F F0 FF  .....+.E........
1320: FF 7F 63 70 30 34 17 80  01 B7 13 02 00 00 14 80  ..cp04..........
1330: 80 47 13 45 1F 80 F0 FF  FF 7F F0 FF FF 7F 63 70  .G.E..........cp
1340: 30 35 17 80 01 B7 13 02  00 00 19 80 80 63 13 45  05...........c.E
1350: 1F 80 F0 FF FF 7F F0 FF  FF 7F 63 70 30 36 17 80  ..........cp06..
1360: 01 B7 13 02 00 00 38 80  80 7F 13 45 1F 80 F0 FF  ......8....E....
1370: FF 7F F0 FF FF 7F 63 70  31 30 17 80 01 B7 13 02  ......cp10......
1380: 00 00 3C 80 80 9B 13 45  1F 80 F0 FF FF 7F F0 FF  ..<....E........
1390: FF 7F 63 70 31 31 17 80  01 B7 13 02 00 00 22 80  ..cp11........".
13A0: 80 B7 13 45 1F 80 F0 FF  FF 7F F0 FF FF 7F 63 70  ...E..........cp
13B0: 31 32 17 80 01 B7 13 1A  8D 1C 2B AF B0 0E 01 51  12........+....Q
13C0: 80 23 29 10 AF B0 0E 01  0C 29 10 AF B0 0E 01 0A  .#)......)......
13D0: 02 00 00 22 80 80 EB 13  2B AF B0 0E 01 4F 80 23  ..."....+....O.#
13E0: 2B AF B0 0E 01 4E 80 23  01 FB 13 2B AF B0 0E 01  +....N.#...+....
13F0: 4D 80 23 2B AF B0 0E 01  4E 80 23 29 10 AF B0 0E  M.#+....N.#)....
1400: 01 0B 1A AE 1C 1C 1E 80  52 1F 80 F0 FF FF 7F F0  ........R.......
1410: FF FF 7F 63 70 30 34 52  1F 80 F0 FF FF 7F F0 FF  ...cp04R........
1420: FF 7F 63 70 30 35 52 1F  80 F0 FF FF 7F F0 FF FF  ..cp05R.........
1430: 7F 63 70 30 36 52 1F 80  F0 FF FF 7F F0 FF FF 7F  .cp06R..........
1440: 63 70 31 30 52 1F 80 F0  FF FF 7F F0 FF FF 7F 63  cp10R..........c
1450: 70 31 31 52 1F 80 F0 FF  FF 7F F0 FF FF 7F 63 70  p11R..........cp
1460: 31 32 45 1F 80 F0 FF FF  7F F0 FF FF 7F 30 62 6C  12E..........0bl
1470: 66 17 80 1C 22 80 AB 11  17 80 1C 01 80 46 00 45  f..."........F.E
1480: 28 80 F0 FF FF 7F F0 FF  FF 7F 66 64 69 32 17 80  (.........fdi2..
1490: 21 00                                             !.              
```

#### Opcodes

```
  0: 0x123A [0x42] SET_CLI_EVENT_CANCEL_DATA()
  1: 0x123B [0x1A] CALL_SUBROUTINE(address=0x1CAE)
  2: 0x123E [0x03] ExtData[1]->WorkLocal[0] = Work_Zone[2]
  3: 0x1243 [0x46] CAMERA_CONTROL: Disable user control
  4: 0x1245 [0x38] SET_CLIENT_EVENT_MODE(mode=19*)
  5: 0x1248 [0x92] Voidwatch Officer (ID: 17739951/0x010EB0AF)->Render.Flags3 ^= 0x01
  6: 0x124E [0x94] LocalPlayer->Render.Flags3 ^= 0x01
  7: 0x1254 [0x94] Voidwatch Officer (ID: 17739951/0x010EB0AF)->Render.Flags3 ^= 0x01
  8: 0x125A [0x02] IF !(ExtData[1]->WorkLocal[0] == 4*) GOTO 0x1272
  9: 0x1262 [0xBA] SET_ENTITY_POSITION(entity_id=LocalPlayer, pos_x=100.500*, pos_z=-25.746*, pos_y=1.999*, direction=299.8°*)
 10: 0x126F [0x01] GOTO 0x12EA
 11: 0x1272 [0x02] IF !(ExtData[1]->WorkLocal[0] == 5*) GOTO 0x128A
 12: 0x127A [0xBA] SET_ENTITY_POSITION(entity_id=LocalPlayer, pos_x=-247.217*, pos_z=73.503*, pos_y=0.000*, direction=182.5°*)
 13: 0x1287 [0x01] GOTO 0x12EA
 14: 0x128A [0x02] IF !(ExtData[1]->WorkLocal[0] == 6*) GOTO 0x12A2
 15: 0x1292 [0xBA] SET_ENTITY_POSITION(entity_id=LocalPlayer, pos_x=-29.604*, pos_z=225.159*, pos_y=-4.851*, direction=350.0°*)
 16: 0x129F [0x01] GOTO 0x12EA
 17: 0x12A2 [0x02] IF !(ExtData[1]->WorkLocal[0] == 13*) GOTO 0x12BA
 18: 0x12AA [0xBA] SET_ENTITY_POSITION(entity_id=LocalPlayer, pos_x=427.675*, pos_z=-133.972*, pos_y=8.175*, direction=39.9°*)
 19: 0x12B7 [0x01] GOTO 0x12EA
 20: 0x12BA [0x02] IF !(ExtData[1]->WorkLocal[0] == 14*) GOTO 0x12D2
 21: 0x12C2 [0xBA] SET_ENTITY_POSITION(entity_id=LocalPlayer, pos_x=189.392*, pos_z=459.907*, pos_y=24.534*, direction=315.3°*)
 22: 0x12CF [0x01] GOTO 0x12EA
 23: 0x12D2 [0x02] IF !(ExtData[1]->WorkLocal[0] == 15*) GOTO 0x12EA
