# 17739827 - Cleades

## Common Data

| Field            | Value                    |
|------------------|--------------------------|
| Zone             | Bastok Markets (ID: 235) |
| Block Size       | 3212 bytes               |
| Total Events     | 19                       |
| References Count | 134                      |

## List of Events

| Event ID                 | Entrypoint   |   Size |   Instructions |
|--------------------------|--------------|--------|----------------|
| [65535](#event-65535)    | 0x0000       |      1 |              1 |
| [0](#event-0)            | 0x0001       |     10 |              2 |
| [65535.1](#event-655351) | 0x000B       |     14 |              4 |
| [1000](#event-1000)      | 0x0019       |    116 |             26 |
| [1001](#event-1001)      | 0x008D       |   1028 |            194 |
| [1002](#event-1002)      | 0x0491       |     11 |              5 |
| [1003](#event-1003)      | 0x049C       |     11 |              5 |
| [1004](#event-1004)      | 0x04A7       |    122 |             27 |
| [1005](#event-1005)      | 0x0521       |     31 |              8 |
| [1006](#event-1006)      | 0x0540       |     36 |              9 |
| [1007](#event-1007)      | 0x0564       |     11 |              5 |
| [1011](#event-1011)      | 0x056F       |     16 |              6 |
| [1008](#event-1008)      | 0x057F       |    205 |             39 |
| [1009](#event-1009)      | 0x064C       |    476 |             68 |
| [1010](#event-1010)      | 0x0828       |    489 |             68 |
| [24](#event-24)          | 0x0A11       |      1 |              1 |
| [586](#event-586)        | 0x0A12       |      1 |              1 |
| [587](#event-587)        | 0x0A13       |      1 |              1 |
| [595](#event-595)        | 0x0A14       |      1 |              1 |

## DAT References (imed_data)

|   Index | Hex Value   |   Dec Value |
|---------|-------------|-------------|
|       0 | 0xFFFB0E14  |  4294643220 |
|       1 | 0xFFFDD4FE  |  4294825214 |
|       2 | 0xFFFFD8ED  |  4294957293 |
|       3 | 0x0D8C      |        3468 |
|       4 | 0x000D      |          13 |
|       5 | 0xFFFACBBD  |  4294626237 |
|       6 | 0xFFFD928E  |  4294808206 |
|       7 | 0x197C      |        6524 |
|       8 | 0x197D      |        6525 |
|       9 | 0x0000      |           0 |
|      10 | 0x1981      |        6529 |
|      11 | 0x1982      |        6530 |
|      12 | 0x1983      |        6531 |
|      13 | 0x1984      |        6532 |
|      14 | 0x0001      |           1 |
|      15 | 0x1980      |        6528 |
|      16 | 0x197A      |        6522 |
|      17 | 0x197B      |        6523 |
|      18 | 0x001F      |          31 |
|      19 | 0x1985      |        6533 |
|      20 | 0x1986      |        6534 |
|      21 | 0x1987      |        6535 |
|      22 | 0x0002      |           2 |
|      23 | 0x025E      |         606 |
|      24 | 0x025F      |         607 |
|      25 | 0x0260      |         608 |
|      26 | 0x0261      |         609 |
|      27 | 0x1988      |        6536 |
|      28 | 0x1989      |        6537 |
|      29 | 0x198A      |        6538 |
|      30 | 0x0003      |           3 |
|      31 | 0x1993      |        6547 |
|      32 | 0x1994      |        6548 |
|      33 | 0x1995      |        6549 |
|      34 | 0x1996      |        6550 |
|      35 | 0x1997      |        6551 |
|      36 | 0x0004      |           4 |
|      37 | 0x110A      |        4362 |
|      38 | 0x1998      |        6552 |
|      39 | 0x1999      |        6553 |
|      40 | 0x0005      |           5 |
|      41 | 0x199A      |        6554 |
|      42 | 0x199B      |        6555 |
|      43 | 0x000A      |          10 |
|      44 | 0x199C      |        6556 |
|      45 | 0x199D      |        6557 |
|      46 | 0x199E      |        6558 |
|      47 | 0x199F      |        6559 |
|      48 | 0x000B      |          11 |
|      49 | 0x0233      |         563 |
|      50 | 0x19A0      |        6560 |
|      51 | 0x19A1      |        6561 |
|      52 | 0x19A2      |        6562 |
|      53 | 0x19A3      |        6563 |
|      54 | 0x000C      |          12 |
|      55 | 0x19A5      |        6565 |
|      56 | 0x19A6      |        6566 |
|      57 | 0x19A7      |        6567 |
|      58 | 0x000E      |          14 |
|      59 | 0x19A8      |        6568 |
|      60 | 0x19A9      |        6569 |
|      61 | 0x000F      |          15 |
|      62 | 0x19AA      |        6570 |
|      63 | 0x19AB      |        6571 |
|      64 | 0x0010      |          16 |
|      65 | 0x1FF6      |        8182 |
|      66 | 0x1FF7      |        8183 |
|      67 | 0x1FF8      |        8184 |
|      68 | 0x0011      |          17 |
|      69 | 0x1FF9      |        8185 |
|      70 | 0x1FFA      |        8186 |
|      71 | 0x1FFB      |        8187 |
|      72 | 0x0012      |          18 |
|      73 | 0x1FFC      |        8188 |
|      74 | 0x1FFD      |        8189 |
|      75 | 0x0013      |          19 |
|      76 | 0x1FFE      |        8190 |
|      77 | 0x1FFF      |        8191 |
|      78 | 0x0014      |          20 |
|      79 | 0x2001      |        8193 |
|      80 | 0x2002      |        8194 |
|      81 | 0x0015      |          21 |
|      82 | 0x2003      |        8195 |
|      83 | 0x2004      |        8196 |
|      84 | 0x0016      |          22 |
|      85 | 0x2005      |        8197 |
|      86 | 0x2006      |        8198 |
|      87 | 0x2007      |        8199 |
|      88 | 0x0017      |          23 |
|      89 | 0x2008      |        8200 |
|      90 | 0x2009      |        8201 |
|      91 | 0x200A      |        8202 |
|      92 | 0x200B      |        8203 |
|      93 | 0x197E      |        6526 |
|      94 | 0x1979      |        6521 |
|      95 | 0x1978      |        6520 |
|      96 | 0x198B      |        6539 |
|      97 | 0x198C      |        6540 |
|      98 | 0x198D      |        6541 |
|      99 | 0x198E      |        6542 |
|     100 | 0x198F      |        6543 |
|     101 | 0x1990      |        6544 |
|     102 | 0x1991      |        6545 |
|     103 | 0x1992      |        6546 |
|     104 | 0x00C9      |         201 |
|     105 | 0x19A4      |        6564 |
|     106 | 0x19AC      |        6572 |
|     107 | 0x0122      |         290 |
|     108 | 0x2000      |        8192 |
|     109 | 0x00CC      |         204 |
|     110 | 0x00F0      |         240 |
|     111 | 0x001E      |          30 |
|     112 | 0x1FE3      |        8163 |
|     113 | 0x1FE4      |        8164 |
|     114 | 0x003C      |          60 |
|     115 | 0x1FE5      |        8165 |
|     116 | 0x1FE6      |        8166 |
|     117 | 0x1FE7      |        8167 |
|     118 | 0x1FE8      |        8168 |
|     119 | 0x1FE9      |        8169 |
|     120 | 0x1FEA      |        8170 |
|     121 | 0x005A      |          90 |
|     122 | 0x1FEB      |        8171 |
|     123 | 0x1FEC      |        8172 |
|     124 | 0x1FED      |        8173 |
|     125 | 0x1FEE      |        8174 |
|     126 | 0x1FEF      |        8175 |
|     127 | 0x00C8      |         200 |
|     128 | 0x1FF0      |        8176 |
|     129 | 0x1FF1      |        8177 |
|     130 | 0x1FF2      |        8178 |
|     131 | 0x1FF3      |        8179 |
|     132 | 0x1FF4      |        8180 |
|     133 | 0x1FF5      |        8181 |

## String References

- **6520**: I am in charge of assigning missions, but I am only allowed to do so to those whose allegiance is to Bastok.
- **6521**: You cannot undertake two missions at the same time. Finish the one you are on now before asking for a new one.
- **6522**: Missions currently available are as follows:
- **6523**: Which mission will you undertake? [The Zeruhn Report./A Geological Survey./Fetichism./The Crystal Line./Wading Beasts./The Emissary."-3-1A."-3-1B."-3-2A."-3-2B./The Four Musketeers./To the Forsaken Mines./Jeuno./$3_$3~[./Darkness Rising./Xarcabard, Land of Truths./Return of the Talekeeper./The Pirates' Cove./The Final Image./On My Way./The Chains That Bind Us./Enter the Talekeeper./The Salt of the Earth./Where Two Paths Converge./$3_$3~$470607$3_$3~$470608$3_$3~$470609$3_$3~$470610$3_$3~$470611$3_$3~$470612$3_$3~$470613None.]
- **6524**: I am in charge of assigning missions to Bastokers who wish to serve their country. Are you one of them?
- **6525**: Have you come to undertake a mission? [Yes, I have./No, maybe later.]
- **6526**: Will you accept this mission? [Yes./No.]
- **6528**: Then move along.
- **6529**: Good. This is your first time going on a mission, is it not?
- **6530**: Your first assignment is not a difficult one. The details are as follows:
- **6531**: You must go to the Zeruhn Mines in the western section of the Mines District. Once there, you are to collect a report from the overseer.
- **6532**: You can consult the "Mission" section of the main menu to review your objectives. Speed and efficiency are your priorities. Dismissed.
- **6533**: The Chief Engineer is conducting new research, and has asked for someone to assist him. He can be found in the Metalworks, to the east of the administrative section.
- **6534**: The Chief Engineer's laboratory is on the second floor of the Metalworks. You don't know his name!? And you call yourself a Bastoker!
- **6535**: The Chief Engineer's name is Cid. Any Bastoker would know that! Now go and see him. He will give you the details of your mission.
- **6536**: The Palborough Mines, once our main source of mythril, have been under beastman control for some time.
- **6537**: We want you to hunt these beastmen, the Quadav, and bring back $4, $5, $6, and $7 as proof of your accomplishments.
- **6538**: You must present all four items to me or one of my colleagues in order to complete this mission.
- **6539**: Good, you've brought all four parts of the doll.
- **6540**: I am raising your rank to 2 for completing this mission. Congratulations.
- **6541**: If you've been to the Palborough Mines, you must know now the serious nature of the threat these beastmen pose to our civilization.
- **6542**: As a Bastoker, you are expected to take on more missions and go on conquests to preserve Bastok's brilliant future!
- **6543**: But I cannot give you a new mission at this time.
- **6544**: You need to collect rank points before taking on new missions.
- **6545**: You can receive rank points by participating in conquests and donating the crystals you acquire to guards, or by undertaking missions you've previously completed.
- **6546**: Ask the High Guard near the gatehouse if you wish to hear more about conquests.
- **6547**: Have you heard of a strange structure called the Crag of Dem? It is on the Konschtat Highlands, north of the Gustaberg Mountains.
- **6548**: They say that crystals are drained of their power if you take them to a certain section of that structure.
- **6549**: Chief Cid is currently investigating this strange phenomenon, and is asking for someone to bring back a faded crystal.
- **6550**: Go see him for a more detailed explanation of your objectives.
- **6551**: You want a crystal to use for this experiment? Are you not an adventurer? It should be easy for you to procure one.
- **6552**: You are to collect $7 from beasts in the Dangruf Wadi.
- **6553**: Senator Alois is in need of some. Do not ask me why. He can be found in the President's Office.
- **6554**: You've acquired quite a reputation. There is a new mission for you to tackle.
- **6555**: First, speak to Sir Naji of the Mythril Musketeers at the President's Office. This mission is of great import to the welfare of our nation.
- **6556**: I see you've made it back safely from your journey to Windurst and San d'Oria. This new mission should not be hard for an experienced adventurer like you.
- **6557**: The Mythril Musketeers are planning an offensive on the Quadav stronghold.
- **6558**: Adventurers, including yourself, have been asked to join them on this operation.
- **6559**: You are to go meet Iron Eater, one of the Mythril Musketeers, to receive a full briefing.
- **6560**: The Gusgen Mines in the Konschtat Highlands have been dug to the bare rock and abandoned for some time...
- **6561**: But lately, there have been reports that a rare ore can be found in them. No one has claimed this new vein yet.
- **6562**: You are to bring back a sample of the ore to confirm these reports. A Galka adventurer named Davyad should be able to help you. He is said to have acquired a chunk of the ore when he was there last.
- **6563**: The item that Davyad brought back was $7. That is what you should seek as well. Once you have the ore, hand them over to me or one of my colleagues.
- **6564**: You have succeeded in bringing back $7. Good work, adventurer. This discovery may help rejuvenate Bastok's economy!
- **6565**: You have heard of Jeuno, have you not? The Bastokan government is currently looking for someone to send there, and your name is on the list of candidates.
- **6566**: The presidential aide, Sir Lucius himself, recommended you. It is a great honor--you should be proud!
- **6567**: Sir Lucius wishes to see you as soon as possible. Go meet him in his office in the administrative section at the top of the Metalworks.
- **6568**: I have orders for you from the president himself. You must have heard already, but he wants you to go to Fei'Yin.
- **6569**: Go speak to Sir Naji at the President's Office. He will show you in.
- **6570**: So, it has finally come to this... You are to infiltrate the Kindred's main stronghold of Zvahl.
- **6571**: The president will brief you himself in his office. Good luck, adventurer!
- **6572**: Ah, you have returned from Jeuno. Go to the President's Office right away. Sir Naji will show you in.
- **8164**: Oh, if it isn't Dalzakk. I see that you've made it home safely.
- **8166**: It's nothing official, but I did hear from a guard there that...
- **8175**: Captain Volker! You've returned!
- **8177**: Due to the small number of Galka in the Markets, I do not feel that the disappearance of Werei has affected them that much.
- **8182**: There has been some commotion in the Mines District near Ore Street. People are saying that a new Talekeeper has appeared.
- **8183**: It sounds fishy to me, but with the disappearance of their elder, Werei, anything could be possible. And the last thing we want is an uprising by the Galka.
- **8184**: Go to Ore Street and talk to Medicine Eagle. He says he was there when the commotion started.
- **8185**: I assume an adventurer of your caliber has heard of Norg.
- **8186**: Well, the place is a haven for pirates. They even have ties with the Tenshodo. In any case, it's an area that cannot be looked upon lightly.
- **8187**: That is why we want you to travel there as an emissary. Report to Sir Naji in the President's Office for details.
- **8188**: Currently, Chief Engineer Cid is conducting research on the architecture in Ro'Maeve near the Sanctuary of Zi'Tah. Your next mission is to travel there and assist him.
- **8189**: Report to the Chief Engineer in the Metalworks for further details.
- **8190**: We are searching for an adventurer holding vital information dealing with a certain national investigation.
- **8191**: The president himself has expressed great interest in this case. Proceed to the President's Office for the details of this mission.
- **8192**: You've been ordered by the president to deliver that $3. When you have completed that task, you can return here for your next mission.
- **8193**: It looks like Bastok is really going to begin an investigation of the Galka homeland of Altepa.
- **8194**: Your role in this investigation will have you traveling to the Quicksand Caves. Get the details of this mission from Iron Eater in the President's Office.
- **8195**: As a continuation of Bastok's investigation of Altepa, this time you will be traveling to Zepwell Island.
- **8196**: You will be carrying out your part of the investigation in the Kuftal Tunnel, which connects Cape Teriggan to Zepwell Island. Report to Drake Fang in the Zeruhn Mines for details.
- **8197**: Senator Alois has asked for your assistance.
- **8198**: It is something about an expedition to Vollbow...
- **8199**: I just hope he's not asking you to go get lizard eggs again... Wait, you didn't hear me say that.
- **8200**: Recently, an adventurer who was sent to investigate the Northlands has been attacked.
- **8201**: According to her report, the attacker resembled the dark knight Zeid.
- **8202**: The strange thing is that the attacker passed a letter to the adventurer before letting her go. Now, this letter's content is causing quite a commotion in the President's Office.
- **8203**: You have been asked to report directly to President Karst for further details.

## Events

### Event 65535

#### Metadata

| Field        | Value   |
|--------------|---------|
| Entrypoint   | 0x0000  |
| Data Size    | 1 bytes |
| Instructions | 1       |

```
      00 01 02 03 04 05 06 07  08 09 0A 0B 0C 0D 0E 0F
      -- -- -- -- -- -- -- --  -- -- -- -- -- -- -- --
0000: 00                                                .               
```

#### Opcodes

```
  0: 0x0000 [0x00] END_REQSTACK()
```

### Event 0

#### Metadata

| Field        | Value    |
|--------------|----------|
| Entrypoint   | 0x0001   |
| Data Size    | 10 bytes |
| Instructions | 2        |

```
      00 01 02 03 04 05 06 07  08 09 0A 0B 0C 0D 0E 0F
      -- -- -- -- -- -- -- --  -- -- -- -- -- -- -- --
0000:    37 00 80 01 80 02 80  03 80 00                  7.........     
```

#### Opcodes

```
  0: 0x0001 [0x37] UPDATE_EVENT_POSITION_AND_DIR: x=-324.076*, z=-142.082*, y=-10.003*, direction=304.8°*
  1: 0x000A [0x00] END_REQSTACK()
```

### Event 65535.1

#### Metadata

| Field        | Value    |
|--------------|----------|
| Entrypoint   | 0x000B   |
| Data Size    | 14 bytes |
| Instructions | 4        |

```
      00 01 02 03 04 05 06 07  08 09 0A 0B 0C 0D 0E 0F
      -- -- -- -- -- -- -- --  -- -- -- -- -- -- -- --
0000:                                   32 04 80 1F 00             2....
0010: 05 80 06 80 02 80 1F 01  00                       .........       
```

#### Opcodes

```
  0: 0x000B [0x32] ExtData[1]->MainSpeed = 13* * 0.1
  1: 0x000E [0x1F] MOVE_ENTITY: EventEntity moves to X=-341.059*, Z=-159.090*, Y=-10.003*
  2: 0x0016 [0x1F] MOVE_ENTITY: Update entity position (mode=1)
  3: 0x0018 [0x00] END_REQSTACK()
```

### Event 1000

#### Metadata

| Field        | Value     |
|--------------|-----------|
| Entrypoint   | 0x0019    |
| Data Size    | 116 bytes |
| Instructions | 26        |

```
      00 01 02 03 04 05 06 07  08 09 0A 0B 0C 0D 0E 0F
      -- -- -- -- -- -- -- --  -- -- -- -- -- -- -- --
0010:                             1E F0 FF FF 7F 1D 07           .......
0020: 80 23 24 08 80 09 80 09  80 25 02 00 10 09 80 00  .#$......%......
0030: 68 00 66 09 80 F8 FF FF  7F F8 FF FF 7F 74 6C 6B  h.f..........tlk
0040: 30 1D 0A 80 23 1D 0B 80  23 1D 0C 80 23 66 09 80  0...#...#...#f..
0050: F8 FF FF 7F F8 FF FF 7F  74 65 6E 30 1D 0D 80 23  ........ten0...#
0060: 03 01 10 09 80 01 8B 00  02 00 10 0E 80 00 8B 00  ................
0070: 66 09 80 F8 FF FF 7F F8  FF FF 7F 74 6C 6B 30 1D  f..........tlk0.
0080: 0F 80 23 03 01 10 0E 80  01 8B 00 21 00           ..#........!.   
```

#### Opcodes

```
  0: 0x0019 [0x1E] EventEntity looks at LocalPlayer and starts talking
  1: 0x001E [0x1D] PRINT_EVENT_MESSAGE(message_id=6524*)
    → "I am in charge of assigning missions to Bastokers who wish to serve their country. Are you one of them?"
  2: 0x0021 [0x23] WAIT_FOR_DIALOG_INTERACTION
  3: 0x0022 [0x24] CREATE_DIALOG(message_id=6525*, default_option=0*, option_flags=0*)
    → "Have you come to undertake a mission? [Yes, I have./No, maybe later.]"
  4: 0x0029 [0x25] WAIT_DIALOG_SELECT()
  5: 0x002A [0x02] IF !(Work_Zone[0] == 0*) GOTO 0x0068
  6: 0x0032 [0x66] LOAD_EXT_SCHEDULER_MAIN: Load scheduler "tlk0" with entities [EventEntity, EventEntity], work=0*
  7: 0x0041 [0x1D] PRINT_EVENT_MESSAGE(message_id=6529*)
    → "Good. This is your first time going on a mission, is it not?"
  8: 0x0044 [0x23] WAIT_FOR_DIALOG_INTERACTION
  9: 0x0045 [0x1D] PRINT_EVENT_MESSAGE(message_id=6530*)
    → "Your first assignment is not a difficult one. The details are as follows:"
 10: 0x0048 [0x23] WAIT_FOR_DIALOG_INTERACTION
 11: 0x0049 [0x1D] PRINT_EVENT_MESSAGE(message_id=6531*)
    → "You must go to the Zeruhn Mines in the western section of the Mines District. Once there, you are to collect a report from the overseer."
 12: 0x004C [0x23] WAIT_FOR_DIALOG_INTERACTION
 13: 0x004D [0x66] LOAD_EXT_SCHEDULER_MAIN: Load scheduler "ten0" with entities [EventEntity, EventEntity], work=0*
 14: 0x005C [0x1D] PRINT_EVENT_MESSAGE(message_id=6532*)
    → "You can consult the "Mission" section of the main menu to review your objectives. Speed and efficiency are your priorities. Dismissed."
 15: 0x005F [0x23] WAIT_FOR_DIALOG_INTERACTION
 16: 0x0060 [0x03] Work_Zone[1] = 0*
 17: 0x0065 [0x01] GOTO 0x008B
 18: 0x0068 [0x02] IF !(Work_Zone[0] == 1*) GOTO 0x008B
 19: 0x0070 [0x66] LOAD_EXT_SCHEDULER_MAIN: Load scheduler "tlk0" with entities [EventEntity, EventEntity], work=0*
 20: 0x007F [0x1D] PRINT_EVENT_MESSAGE(message_id=6528*)
    → "Then move along."
 21: 0x0082 [0x23] WAIT_FOR_DIALOG_INTERACTION
 22: 0x0083 [0x03] Work_Zone[1] = 1*
 23: 0x0088 [0x01] GOTO 0x008B

SUBROUTINE_008B:
 24: 0x008B [0x21] END_EVENT
 25: 0x008C [0x00] END_REQSTACK()
```

### Event 1001

#### Metadata

| Field        | Value      |
|--------------|------------|
| Entrypoint   | 0x008D     |
| Data Size    | 1028 bytes |
| Instructions | 194        |

```
      00 01 02 03 04 05 06 07  08 09 0A 0B 0C 0D 0E 0F
      -- -- -- -- -- -- -- --  -- -- -- -- -- -- -- --
0080:                                         1E F0 FF               ...
0090: FF 7F 1D 10 80 23 24 11  80 12 80 02 10 25 02 00  .....#$......%..
00A0: 10 0E 80 00 D3 00 66 09  80 F8 FF FF 7F F8 FF FF  ......f.........
00B0: 7F 74 6C 6B 30 1D 13 80  23 1D 14 80 23 66 09 80  .tlk0...#...#f..
00C0: F8 FF FF 7F F8 FF FF 7F  74 65 6E 30 1D 15 80 23  ........ten0...#
00D0: 01 6A 04 02 00 10 16 80  00 1C 01 03 06 10 17 80  .j..............
00E0: 03 07 10 18 80 03 08 10  19 80 03 09 10 1A 80 66  ...............f
00F0: 09 80 F8 FF FF 7F F8 FF  FF 7F 74 6C 6B 30 1D 1B  ..........tlk0..
0100: 80 23 1D 1C 80 23 66 09  80 F8 FF FF 7F F8 FF FF  .#...#f.........
0110: 7F 74 65 6E 30 1D 1D 80  23 01 6A 04 02 00 10 1E  .ten0...#.j.....
0120: 80 00 59 01 66 09 80 F8  FF FF 7F F8 FF FF 7F 74  ..Y.f..........t
0130: 6C 6B 30 1D 1F 80 23 1D  20 80 23 1D 21 80 23 1D  lk0...#. .#.!.#.
0140: 22 80 23 66 09 80 F8 FF  FF 7F F8 FF FF 7F 74 65  ".#f..........te
0150: 6E 30 1D 23 80 23 01 6A  04 02 00 10 24 80 00 8F  n0.#.#.j....$...
0160: 01 03 09 10 25 80 66 09  80 F8 FF FF 7F F8 FF FF  ....%.f.........
0170: 7F 74 6C 6B 30 1D 26 80  23 66 09 80 F8 FF FF 7F  .tlk0.&.#f......
0180: F8 FF FF 7F 74 65 6E 30  1D 27 80 23 01 6A 04 02  ....ten0.'.#.j..
0190: 00 10 28 80 00 C0 01 66  09 80 F8 FF FF 7F F8 FF  ..(....f........
01A0: FF 7F 74 6C 6B 30 1D 29  80 23 66 09 80 F8 FF FF  ..tlk0.).#f.....
01B0: 7F F8 FF FF 7F 74 65 6E  30 1D 2A 80 23 01 6A 04  .....ten0.*.#.j.
01C0: 02 00 10 2B 80 00 F9 01  66 09 80 F8 FF FF 7F F8  ...+....f.......
01D0: FF FF 7F 74 6C 6B 30 1D  2C 80 23 1D 2D 80 23 1D  ...tlk0.,.#.-.#.
01E0: 2E 80 23 66 09 80 F8 FF  FF 7F F8 FF FF 7F 74 65  ..#f..........te
01F0: 6E 30 1D 2F 80 23 01 6A  04 02 00 10 30 80 00 37  n0./.#.j....0..7
0200: 02 03 09 10 31 80 66 09  80 F8 FF FF 7F F8 FF FF  ....1.f.........
0210: 7F 74 6C 6B 30 1D 32 80  23 1D 33 80 23 1D 34 80  .tlk0.2.#.3.#.4.
0220: 23 66 09 80 F8 FF FF 7F  F8 FF FF 7F 74 65 6E 30  #f..........ten0
0230: 1D 35 80 23 01 6A 04 02  00 10 36 80 00 6C 02 66  .5.#.j....6..l.f
0240: 09 80 F8 FF FF 7F F8 FF  FF 7F 74 6C 6B 30 1D 37  ..........tlk0.7
0250: 80 23 1D 38 80 23 66 09  80 F8 FF FF 7F F8 FF FF  .#.8.#f.........
0260: 7F 74 65 6E 30 1D 39 80  23 01 6A 04 02 00 10 3A  .ten0.9.#.j....:
0270: 80 00 9D 02 66 09 80 F8  FF FF 7F F8 FF FF 7F 74  ....f..........t
0280: 6C 6B 30 1D 3B 80 23 66  09 80 F8 FF FF 7F F8 FF  lk0.;.#f........
0290: FF 7F 74 65 6E 30 1D 3C  80 23 01 6A 04 02 00 10  ..ten0.<.#.j....
02A0: 3D 80 00 CE 02 66 09 80  F8 FF FF 7F F8 FF FF 7F  =....f..........
02B0: 74 6C 6B 30 1D 3E 80 23  66 09 80 F8 FF FF 7F F8  tlk0.>.#f.......
02C0: FF FF 7F 74 65 6E 30 1D  3F 80 23 01 6A 04 02 00  ...ten0.?.#.j...
02D0: 10 40 80 00 03 03 66 09  80 F8 FF FF 7F F8 FF FF  .@....f.........
02E0: 7F 74 6C 6B 30 1D 41 80  23 1D 42 80 23 66 09 80  .tlk0.A.#.B.#f..
02F0: F8 FF FF 7F F8 FF FF 7F  74 65 6E 30 1D 43 80 23  ........ten0.C.#
0300: 01 6A 04 02 00 10 44 80  00 38 03 66 09 80 F8 FF  .j....D..8.f....
0310: FF 7F F8 FF FF 7F 74 6C  6B 30 1D 45 80 23 1D 46  ......tlk0.E.#.F
0320: 80 23 66 09 80 F8 FF FF  7F F8 FF FF 7F 74 65 6E  .#f..........ten
0330: 30 1D 47 80 23 01 6A 04  02 00 10 48 80 00 69 03  0.G.#.j....H..i.
0340: 66 09 80 F8 FF FF 7F F8  FF FF 7F 74 6C 6B 30 1D  f..........tlk0.
0350: 49 80 23 66 09 80 F8 FF  FF 7F F8 FF FF 7F 74 65  I.#f..........te
0360: 6E 30 1D 4A 80 23 01 6A  04 02 00 10 4B 80 00 9A  n0.J.#.j....K...
0370: 03 66 09 80 F8 FF FF 7F  F8 FF FF 7F 74 6C 6B 30  .f..........tlk0
0380: 1D 4C 80 23 66 09 80 F8  FF FF 7F F8 FF FF 7F 74  .L.#f..........t
0390: 65 6E 30 1D 4D 80 23 01  6A 04 02 00 10 4E 80 00  en0.M.#.j....N..
03A0: CB 03 66 09 80 F8 FF FF  7F F8 FF FF 7F 74 6C 6B  ..f..........tlk
03B0: 30 1D 4F 80 23 66 09 80  F8 FF FF 7F F8 FF FF 7F  0.O.#f..........
03C0: 74 65 6E 30 1D 50 80 23  01 6A 04 02 00 10 51 80  ten0.P.#.j....Q.
03D0: 00 FC 03 66 09 80 F8 FF  FF 7F F8 FF FF 7F 74 6C  ...f..........tl
03E0: 6B 30 1D 52 80 23 66 09  80 F8 FF FF 7F F8 FF FF  k0.R.#f.........
03F0: 7F 74 65 6E 30 1D 53 80  23 01 6A 04 02 00 10 54  .ten0.S.#.j....T
0400: 80 00 31 04 66 09 80 F8  FF FF 7F F8 FF FF 7F 74  ..1.f..........t
0410: 6C 6B 30 1D 55 80 23 1D  56 80 23 66 09 80 F8 FF  lk0.U.#.V.#f....
0420: FF 7F F8 FF FF 7F 74 65  6E 30 1D 57 80 23 01 6A  ......ten0.W.#.j
0430: 04 02 00 10 58 80 00 6A  04 66 09 80 F8 FF FF 7F  ....X..j.f......
0440: F8 FF FF 7F 74 6C 6B 30  1D 59 80 23 1D 5A 80 23  ....tlk0.Y.#.Z.#
0450: 1D 5B 80 23 66 09 80 F8  FF FF 7F F8 FF FF 7F 74  .[.#f..........t
0460: 65 6E 30 1D 5C 80 23 01  6A 04 03 01 10 00 10 02  en0.\.#.j.......
0470: 01 10 12 80 01 8F 04 24  5D 80 09 80 09 80 25 02  .......$].....%.
0480: 00 10 0E 80 00 8F 04 03  01 10 12 80 01 8F 04 21  ...............!
0490: 00                                                .               
```

#### Opcodes

```
  0: 0x008D [0x1E] EventEntity looks at LocalPlayer and starts talking
  1: 0x0092 [0x1D] PRINT_EVENT_MESSAGE(message_id=6522*)
    → "Missions currently available are as follows:"
  2: 0x0095 [0x23] WAIT_FOR_DIALOG_INTERACTION
  3: 0x0096 [0x24] CREATE_DIALOG(message_id=6523*, default_option=31*, option_flags=Work_Zone[2])
    → "Which mission will you undertake? [The Zeruhn Report./A Geological Survey./Fetichism./The Crystal Line./Wading Beasts./The Emissary."-3-1A."-3-1B."-3-2A."-3-2B./The Four Musketeers./To the Forsaken Mines./Jeuno./$3_$3~[./Darkness Rising./Xarcabard, Land of Truths./Return of the Talekeeper./The Pirates' Cove./The Final Image./On My Way./The Chains That Bind Us./Enter the Talekeeper./The Salt of the Earth./Where Two Paths Converge./$3_$3~$470607$3_$3~$470608$3_$3~$470609$3_$3~$470610$3_$3~$470611$3_$3~$470612$3_$3~$470613None.]"
  4: 0x009D [0x25] WAIT_DIALOG_SELECT()
  5: 0x009E [0x02] IF !(Work_Zone[0] == 1*) GOTO 0x00D3
  6: 0x00A6 [0x66] LOAD_EXT_SCHEDULER_MAIN: Load scheduler "tlk0" with entities [EventEntity, EventEntity], work=0*
  7: 0x00B5 [0x1D] PRINT_EVENT_MESSAGE(message_id=6533*)
    → "The Chief Engineer is conducting new research, and has asked for someone to assist him. He can be found in the Metalworks, to the east of the administrative section."
  8: 0x00B8 [0x23] WAIT_FOR_DIALOG_INTERACTION
  9: 0x00B9 [0x1D] PRINT_EVENT_MESSAGE(message_id=6534*)
    → "The Chief Engineer's laboratory is on the second floor of the Metalworks. You don't know his name!? And you call yourself a Bastoker!"
 10: 0x00BC [0x23] WAIT_FOR_DIALOG_INTERACTION
 11: 0x00BD [0x66] LOAD_EXT_SCHEDULER_MAIN: Load scheduler "ten0" with entities [EventEntity, EventEntity], work=0*
 12: 0x00CC [0x1D] PRINT_EVENT_MESSAGE(message_id=6535*)
    → "The Chief Engineer's name is Cid. Any Bastoker would know that! Now go and see him. He will give you the details of your mission."
 13: 0x00CF [0x23] WAIT_FOR_DIALOG_INTERACTION
 14: 0x00D0 [0x01] GOTO 0x046A
 15: 0x00D3 [0x02] IF !(Work_Zone[0] == 2*) GOTO 0x011C
 16: 0x00DB [0x03] Work_Zone[6] = 606*
 17: 0x00E0 [0x03] Work_Zone[7] = 607*
 18: 0x00E5 [0x03] Work_Zone[8] = 608*
 19: 0x00EA [0x03] Work_Zone[9] = 609*
 20: 0x00EF [0x66] LOAD_EXT_SCHEDULER_MAIN: Load scheduler "tlk0" with entities [EventEntity, EventEntity], work=0*
 21: 0x00FE [0x1D] PRINT_EVENT_MESSAGE(message_id=6536*)
    → "The Palborough Mines, once our main source of mythril, have been under beastman control for some time."
 22: 0x0101 [0x23] WAIT_FOR_DIALOG_INTERACTION
 23: 0x0102 [0x1D] PRINT_EVENT_MESSAGE(message_id=6537*)
    → "We want you to hunt these beastmen, the Quadav, and bring back $4, $5, $6, and $7 as proof of your accomplishments."
 24: 0x0105 [0x23] WAIT_FOR_DIALOG_INTERACTION
 25: 0x0106 [0x66] LOAD_EXT_SCHEDULER_MAIN: Load scheduler "ten0" with entities [EventEntity, EventEntity], work=0*
 26: 0x0115 [0x1D] PRINT_EVENT_MESSAGE(message_id=6538*)
    → "You must present all four items to me or one of my colleagues in order to complete this mission."
 27: 0x0118 [0x23] WAIT_FOR_DIALOG_INTERACTION
 28: 0x0119 [0x01] GOTO 0x046A
 29: 0x011C [0x02] IF !(Work_Zone[0] == 3*) GOTO 0x0159
 30: 0x0124 [0x66] LOAD_EXT_SCHEDULER_MAIN: Load scheduler "tlk0" with entities [EventEntity, EventEntity], work=0*
 31: 0x0133 [0x1D] PRINT_EVENT_MESSAGE(message_id=6547*)
    → "Have you heard of a strange structure called the Crag of Dem? It is on the Konschtat Highlands, north of the Gustaberg Mountains."
 32: 0x0136 [0x23] WAIT_FOR_DIALOG_INTERACTION
 33: 0x0137 [0x1D] PRINT_EVENT_MESSAGE(message_id=6548*)
    → "They say that crystals are drained of their power if you take them to a certain section of that structure."
 34: 0x013A [0x23] WAIT_FOR_DIALOG_INTERACTION
 35: 0x013B [0x1D] PRINT_EVENT_MESSAGE(message_id=6549*)
    → "Chief Cid is currently investigating this strange phenomenon, and is asking for someone to bring back a faded crystal."
 36: 0x013E [0x23] WAIT_FOR_DIALOG_INTERACTION
 37: 0x013F [0x1D] PRINT_EVENT_MESSAGE(message_id=6550*)
    → "Go see him for a more detailed explanation of your objectives."
 38: 0x0142 [0x23] WAIT_FOR_DIALOG_INTERACTION
 39: 0x0143 [0x66] LOAD_EXT_SCHEDULER_MAIN: Load scheduler "ten0" with entities [EventEntity, EventEntity], work=0*
 40: 0x0152 [0x1D] PRINT_EVENT_MESSAGE(message_id=6551*)
    → "You want a crystal to use for this experiment? Are you not an adventurer? It should be easy for you to procure one."
 41: 0x0155 [0x23] WAIT_FOR_DIALOG_INTERACTION
 42: 0x0156 [0x01] GOTO 0x046A
 43: 0x0159 [0x02] IF !(Work_Zone[0] == 4*) GOTO 0x018F
 44: 0x0161 [0x03] Work_Zone[9] = 4362*
 45: 0x0166 [0x66] LOAD_EXT_SCHEDULER_MAIN: Load scheduler "tlk0" with entities [EventEntity, EventEntity], work=0*
 46: 0x0175 [0x1D] PRINT_EVENT_MESSAGE(message_id=6552*)
    → "You are to collect $7 from beasts in the Dangruf Wadi."
 47: 0x0178 [0x23] WAIT_FOR_DIALOG_INTERACTION
 48: 0x0179 [0x66] LOAD_EXT_SCHEDULER_MAIN: Load scheduler "ten0" with entities [EventEntity, EventEntity], work=0*
 49: 0x0188 [0x1D] PRINT_EVENT_MESSAGE(message_id=6553*)
    → "Senator Alois is in need of some. Do not ask me why. He can be found in the President's Office."
 50: 0x018B [0x23] WAIT_FOR_DIALOG_INTERACTION
 51: 0x018C [0x01] GOTO 0x046A
 52: 0x018F [0x02] IF !(Work_Zone[0] == 5*) GOTO 0x01C0
 53: 0x0197 [0x66] LOAD_EXT_SCHEDULER_MAIN: Load scheduler "tlk0" with entities [EventEntity, EventEntity], work=0*
 54: 0x01A6 [0x1D] PRINT_EVENT_MESSAGE(message_id=6554*)
    → "You've acquired quite a reputation. There is a new mission for you to tackle."
 55: 0x01A9 [0x23] WAIT_FOR_DIALOG_INTERACTION
 56: 0x01AA [0x66] LOAD_EXT_SCHEDULER_MAIN: Load scheduler "ten0" with entities [EventEntity, EventEntity], work=0*
 57: 0x01B9 [0x1D] PRINT_EVENT_MESSAGE(message_id=6555*)
    → "First, speak to Sir Naji of the Mythril Musketeers at the President's Office. This mission is of great import to the welfare of our nation."
 58: 0x01BC [0x23] WAIT_FOR_DIALOG_INTERACTION
 59: 0x01BD [0x01] GOTO 0x046A
 60: 0x01C0 [0x02] IF !(Work_Zone[0] == 10*) GOTO 0x01F9
 61: 0x01C8 [0x66] LOAD_EXT_SCHEDULER_MAIN: Load scheduler "tlk0" with entities [EventEntity, EventEntity], work=0*
 62: 0x01D7 [0x1D] PRINT_EVENT_MESSAGE(message_id=6556*)
    → "I see you've made it back safely from your journey to Windurst and San d'Oria. This new mission should not be hard for an experienced adventurer like you."
 63: 0x01DA [0x23] WAIT_FOR_DIALOG_INTERACTION
 64: 0x01DB [0x1D] PRINT_EVENT_MESSAGE(message_id=6557*)
    → "The Mythril Musketeers are planning an offensive on the Quadav stronghold."
 65: 0x01DE [0x23] WAIT_FOR_DIALOG_INTERACTION
 66: 0x01DF [0x1D] PRINT_EVENT_MESSAGE(message_id=6558*)
    → "Adventurers, including yourself, have been asked to join them on this operation."
 67: 0x01E2 [0x23] WAIT_FOR_DIALOG_INTERACTION
 68: 0x01E3 [0x66] LOAD_EXT_SCHEDULER_MAIN: Load scheduler "ten0" with entities [EventEntity, EventEntity], work=0*
 69: 0x01F2 [0x1D] PRINT_EVENT_MESSAGE(message_id=6559*)
    → "You are to go meet Iron Eater, one of the Mythril Musketeers, to receive a full briefing."
 70: 0x01F5 [0x23] WAIT_FOR_DIALOG_INTERACTION
 71: 0x01F6 [0x01] GOTO 0x046A
 72: 0x01F9 [0x02] IF !(Work_Zone[0] == 11*) GOTO 0x0237
 73: 0x0201 [0x03] Work_Zone[9] = 563*
 74: 0x0206 [0x66] LOAD_EXT_SCHEDULER_MAIN: Load scheduler "tlk0" with entities [EventEntity, EventEntity], work=0*
 75: 0x0215 [0x1D] PRINT_EVENT_MESSAGE(message_id=6560*)
    → "The Gusgen Mines in the Konschtat Highlands have been dug to the bare rock and abandoned for some time..."
 76: 0x0218 [0x23] WAIT_FOR_DIALOG_INTERACTION
 77: 0x0219 [0x1D] PRINT_EVENT_MESSAGE(message_id=6561*)
    → "But lately, there have been reports that a rare ore can be found in them. No one has claimed this new vein yet."
 78: 0x021C [0x23] WAIT_FOR_DIALOG_INTERACTION
 79: 0x021D [0x1D] PRINT_EVENT_MESSAGE(message_id=6562*)
    → "You are to bring back a sample of the ore to confirm these reports. A Galka adventurer named Davyad should be able to help you. He is said to have acquired a chunk of the ore when he was there last."
 80: 0x0220 [0x23] WAIT_FOR_DIALOG_INTERACTION
 81: 0x0221 [0x66] LOAD_EXT_SCHEDULER_MAIN: Load scheduler "ten0" with entities [EventEntity, EventEntity], work=0*
 82: 0x0230 [0x1D] PRINT_EVENT_MESSAGE(message_id=6563*)
    → "The item that Davyad brought back was $7. That is what you should seek as well. Once you have the ore, hand them over to me or one of my colleagues."
 83: 0x0233 [0x23] WAIT_FOR_DIALOG_INTERACTION
 84: 0x0234 [0x01] GOTO 0x046A
 85: 0x0237 [0x02] IF !(Work_Zone[0] == 12*) GOTO 0x026C
 86: 0x023F [0x66] LOAD_EXT_SCHEDULER_MAIN: Load scheduler "tlk0" with entities [EventEntity, EventEntity], work=0*
 87: 0x024E [0x1D] PRINT_EVENT_MESSAGE(message_id=6565*)
    → "You have heard of Jeuno, have you not? The Bastokan government is currently looking for someone to send there, and your name is on the list of candidates."
 88: 0x0251 [0x23] WAIT_FOR_DIALOG_INTERACTION
 89: 0x0252 [0x1D] PRINT_EVENT_MESSAGE(message_id=6566*)
    → "The presidential aide, Sir Lucius himself, recommended you. It is a great honor--you should be proud!"
 90: 0x0255 [0x23] WAIT_FOR_DIALOG_INTERACTION
 91: 0x0256 [0x66] LOAD_EXT_SCHEDULER_MAIN: Load scheduler "ten0" with entities [EventEntity, EventEntity], work=0*
 92: 0x0265 [0x1D] PRINT_EVENT_MESSAGE(message_id=6567*)
    → "Sir Lucius wishes to see you as soon as possible. Go meet him in his office in the administrative section at the top of the Metalworks."
 93: 0x0268 [0x23] WAIT_FOR_DIALOG_INTERACTION
 94: 0x0269 [0x01] GOTO 0x046A
 95: 0x026C [0x02] IF !(Work_Zone[0] == 14*) GOTO 0x029D
 96: 0x0274 [0x66] LOAD_EXT_SCHEDULER_MAIN: Load scheduler "tlk0" with entities [EventEntity, EventEntity], work=0*
 97: 0x0283 [0x1D] PRINT_EVENT_MESSAGE(message_id=6568*)
    → "I have orders for you from the president himself. You must have heard already, but he wants you to go to Fei'Yin."
 98: 0x0286 [0x23] WAIT_FOR_DIALOG_INTERACTION
 99: 0x0287 [0x66] LOAD_EXT_SCHEDULER_MAIN: Load scheduler "ten0" with entities [EventEntity, EventEntity], work=0*
100: 0x0296 [0x1D] PRINT_EVENT_MESSAGE(message_id=6569*)
    → "Go speak to Sir Naji at the President's Office. He will show you in."
101: 0x0299 [0x23] WAIT_FOR_DIALOG_INTERACTION
102: 0x029A [0x01] GOTO 0x046A
103: 0x029D [0x02] IF !(Work_Zone[0] == 15*) GOTO 0x02CE
104: 0x02A5 [0x66] LOAD_EXT_SCHEDULER_MAIN: Load scheduler "tlk0" with entities [EventEntity, EventEntity], work=0*
105: 0x02B4 [0x1D] PRINT_EVENT_MESSAGE(message_id=6570*)
    → "So, it has finally come to this... You are to infiltrate the Kindred's main stronghold of Zvahl."
106: 0x02B7 [0x23] WAIT_FOR_DIALOG_INTERACTION
107: 0x02B8 [0x66] LOAD_EXT_SCHEDULER_MAIN: Load scheduler "ten0" with entities [EventEntity, EventEntity], work=0*
108: 0x02C7 [0x1D] PRINT_EVENT_MESSAGE(message_id=6571*)
    → "The president will brief you himself in his office. Good luck, adventurer!"
109: 0x02CA [0x23] WAIT_FOR_DIALOG_INTERACTION
110: 0x02CB [0x01] GOTO 0x046A
111: 0x02CE [0x02] IF !(Work_Zone[0] == 16*) GOTO 0x0303
112: 0x02D6 [0x66] LOAD_EXT_SCHEDULER_MAIN: Load scheduler "tlk0" with entities [EventEntity, EventEntity], work=0*
113: 0x02E5 [0x1D] PRINT_EVENT_MESSAGE(message_id=8182*)
    → "There has been some commotion in the Mines District near Ore Street. People are saying that a new Talekeeper has appeared."
114: 0x02E8 [0x23] WAIT_FOR_DIALOG_INTERACTION
115: 0x02E9 [0x1D] PRINT_EVENT_MESSAGE(message_id=8183*)
    → "It sounds fishy to me, but with the disappearance of their elder, Werei, anything could be possible. And the last thing we want is an uprising by the Galka."
116: 0x02EC [0x23] WAIT_FOR_DIALOG_INTERACTION
117: 0x02ED [0x66] LOAD_EXT_SCHEDULER_MAIN: Load scheduler "ten0" with entities [EventEntity, EventEntity], work=0*
118: 0x02FC [0x1D] PRINT_EVENT_MESSAGE(message_id=8184*)
    → "Go to Ore Street and talk to Medicine Eagle. He says he was there when the commotion started."
119: 0x02FF [0x23] WAIT_FOR_DIALOG_INTERACTION
120: 0x0300 [0x01] GOTO 0x046A
121: 0x0303 [0x02] IF !(Work_Zone[0] == 17*) GOTO 0x0338
122: 0x030B [0x66] LOAD_EXT_SCHEDULER_MAIN: Load scheduler "tlk0" with entities [EventEntity, EventEntity], work=0*
123: 0x031A [0x1D] PRINT_EVENT_MESSAGE(message_id=8185*)
    → "I assume an adventurer of your caliber has heard of Norg."
124: 0x031D [0x23] WAIT_FOR_DIALOG_INTERACTION
125: 0x031E [0x1D] PRINT_EVENT_MESSAGE(message_id=8186*)
    → "Well, the place is a haven for pirates. They even have ties with the Tenshodo. In any case, it's an area that cannot be looked upon lightly."
126: 0x0321 [0x23] WAIT_FOR_DIALOG_INTERACTION
127: 0x0322 [0x66] LOAD_EXT_SCHEDULER_MAIN: Load scheduler "ten0" with entities [EventEntity, EventEntity], work=0*
128: 0x0331 [0x1D] PRINT_EVENT_MESSAGE(message_id=8187*)
    → "That is why we want you to travel there as an emissary. Report to Sir Naji in the President's Office for details."
129: 0x0334 [0x23] WAIT_FOR_DIALOG_INTERACTION
130: 0x0335 [0x01] GOTO 0x046A
131: 0x0338 [0x02] IF !(Work_Zone[0] == 18*) GOTO 0x0369
132: 0x0340 [0x66] LOAD_EXT_SCHEDULER_MAIN: Load scheduler "tlk0" with entities [EventEntity, EventEntity], work=0*
133: 0x034F [0x1D] PRINT_EVENT_MESSAGE(message_id=8188*)
    → "Currently, Chief Engineer Cid is conducting research on the architecture in Ro'Maeve near the Sanctuary of Zi'Tah. Your next mission is to travel there and assist him."
134: 0x0352 [0x23] WAIT_FOR_DIALOG_INTERACTION
135: 0x0353 [0x66] LOAD_EXT_SCHEDULER_MAIN: Load scheduler "ten0" with entities [EventEntity, EventEntity], work=0*
136: 0x0362 [0x1D] PRINT_EVENT_MESSAGE(message_id=8189*)
    → "Report to the Chief Engineer in the Metalworks for further details."
137: 0x0365 [0x23] WAIT_FOR_DIALOG_INTERACTION
138: 0x0366 [0x01] GOTO 0x046A
139: 0x0369 [0x02] IF !(Work_Zone[0] == 19*) GOTO 0x039A
140: 0x0371 [0x66] LOAD_EXT_SCHEDULER_MAIN: Load scheduler "tlk0" with entities [EventEntity, EventEntity], work=0*
141: 0x0380 [0x1D] PRINT_EVENT_MESSAGE(message_id=8190*)
    → "We are searching for an adventurer holding vital information dealing with a certain national investigation."
142: 0x0383 [0x23] WAIT_FOR_DIALOG_INTERACTION
143: 0x0384 [0x66] LOAD_EXT_SCHEDULER_MAIN: Load scheduler "ten0" with entities [EventEntity, EventEntity], work=0*
144: 0x0393 [0x1D] PRINT_EVENT_MESSAGE(message_id=8191*)
    → "The president himself has expressed great interest in this case. Proceed to the President's Office for the details of this mission."
145: 0x0396 [0x23] WAIT_FOR_DIALOG_INTERACTION
146: 0x0397 [0x01] GOTO 0x046A
147: 0x039A [0x02] IF !(Work_Zone[0] == 20*) GOTO 0x03CB
148: 0x03A2 [0x66] LOAD_EXT_SCHEDULER_MAIN: Load scheduler "tlk0" with entities [EventEntity, EventEntity], work=0*
149: 0x03B1 [0x1D] PRINT_EVENT_MESSAGE(message_id=8193*)
    → "It looks like Bastok is really going to begin an investigation of the Galka homeland of Altepa."
150: 0x03B4 [0x23] WAIT_FOR_DIALOG_INTERACTION
151: 0x03B5 [0x66] LOAD_EXT_SCHEDULER_MAIN: Load scheduler "ten0" with entities [EventEntity, EventEntity], work=0*
152: 0x03C4 [0x1D] PRINT_EVENT_MESSAGE(message_id=8194*)
    → "Your role in this investigation will have you traveling to the Quicksand Caves. Get the details of this mission from Iron Eater in the President's Office."
153: 0x03C7 [0x23] WAIT_FOR_DIALOG_INTERACTION
154: 0x03C8 [0x01] GOTO 0x046A
155: 0x03CB [0x02] IF !(Work_Zone[0] == 21*) GOTO 0x03FC
156: 0x03D3 [0x66] LOAD_EXT_SCHEDULER_MAIN: Load scheduler "tlk0" with entities [EventEntity, EventEntity], work=0*
157: 0x03E2 [0x1D] PRINT_EVENT_MESSAGE(message_id=8195*)
    → "As a continuation of Bastok's investigation of Altepa, this time you will be traveling to Zepwell Island."
158: 0x03E5 [0x23] WAIT_FOR_DIALOG_INTERACTION
159: 0x03E6 [0x66] LOAD_EXT_SCHEDULER_MAIN: Load scheduler "ten0" with entities [EventEntity, EventEntity], work=0*
160: 0x03F5 [0x1D] PRINT_EVENT_MESSAGE(message_id=8196*)
    → "You will be carrying out your part of the investigation in the Kuftal Tunnel, which connects Cape Teriggan to Zepwell Island. Report to Drake Fang in the Zeruhn Mines for details."
161: 0x03F8 [0x23] WAIT_FOR_DIALOG_INTERACTION
162: 0x03F9 [0x01] GOTO 0x046A
163: 0x03FC [0x02] IF !(Work_Zone[0] == 22*) GOTO 0x0431
164: 0x0404 [0x66] LOAD_EXT_SCHEDULER_MAIN: Load scheduler "tlk0" with entities [EventEntity, EventEntity], work=0*
165: 0x0413 [0x1D] PRINT_EVENT_MESSAGE(message_id=8197*)
    → "Senator Alois has asked for your assistance."
166: 0x0416 [0x23] WAIT_FOR_DIALOG_INTERACTION
167: 0x0417 [0x1D] PRINT_EVENT_MESSAGE(message_id=8198*)
    → "It is something about an expedition to Vollbow..."
168: 0x041A [0x23] WAIT_FOR_DIALOG_INTERACTION
169: 0x041B [0x66] LOAD_EXT_SCHEDULER_MAIN: Load scheduler "ten0" with entities [EventEntity, EventEntity], work=0*
170: 0x042A [0x1D] PRINT_EVENT_MESSAGE(message_id=8199*)
    → "I just hope he's not asking you to go get lizard eggs again... Wait, you didn't hear me say that."
171: 0x042D [0x23] WAIT_FOR_DIALOG_INTERACTION
172: 0x042E [0x01] GOTO 0x046A
173: 0x0431 [0x02] IF !(Work_Zone[0] == 23*) GOTO 0x046A
174: 0x0439 [0x66] LOAD_EXT_SCHEDULER_MAIN: Load scheduler "tlk0" with entities [EventEntity, EventEntity], work=0*
175: 0x0448 [0x1D] PRINT_EVENT_MESSAGE(message_id=8200*)
    → "Recently, an adventurer who was sent to investigate the Northlands has been attacked."
176: 0x044B [0x23] WAIT_FOR_DIALOG_INTERACTION
177: 0x044C [0x1D] PRINT_EVENT_MESSAGE(message_id=8201*)
    → "According to her report, the attacker resembled the dark knight Zeid."
178: 0x044F [0x23] WAIT_FOR_DIALOG_INTERACTION
179: 0x0450 [0x1D] PRINT_EVENT_MESSAGE(message_id=8202*)
    → "The strange thing is that the attacker passed a letter to the adventurer before letting her go. Now, this letter's content is causing quite a commotion in the President's Office."
180: 0x0453 [0x23] WAIT_FOR_DIALOG_INTERACTION
181: 0x0454 [0x66] LOAD_EXT_SCHEDULER_MAIN: Load scheduler "ten0" with entities [EventEntity, EventEntity], work=0*
182: 0x0463 [0x1D] PRINT_EVENT_MESSAGE(message_id=8203*)
    → "You have been asked to report directly to President Karst for further details."
183: 0x0466 [0x23] WAIT_FOR_DIALOG_INTERACTION
184: 0x0467 [0x01] GOTO 0x046A

SUBROUTINE_046A:
185: 0x046A [0x03] Work_Zone[1] = Work_Zone[0]
186: 0x046F [0x02] IF !(Work_Zone[1] == 31*) GOTO 0x048F
187: 0x0477 [0x24] CREATE_DIALOG(message_id=6526*, default_option=0*, option_flags=0*)
    → "Will you accept this mission? [Yes./No.]"
188: 0x047E [0x25] WAIT_DIALOG_SELECT()
189: 0x047F [0x02] IF !(Work_Zone[0] == 1*) GOTO 0x048F
190: 0x0487 [0x03] Work_Zone[1] = 31*
191: 0x048C [0x01] GOTO 0x048F

SUBROUTINE_048F:
192: 0x048F [0x21] END_EVENT
193: 0x0490 [0x00] END_REQSTACK()
```

### Event 1002

#### Metadata

| Field        | Value    |
|--------------|----------|
| Entrypoint   | 0x0491   |
| Data Size    | 11 bytes |
| Instructions | 5        |

```
      00 01 02 03 04 05 06 07  08 09 0A 0B 0C 0D 0E 0F
      -- -- -- -- -- -- -- --  -- -- -- -- -- -- -- --
0490:    1E F0 FF FF 7F 1D 5E  80 23 21 00               ......^.#!.    
```

#### Opcodes

```
  0: 0x0491 [0x1E] EventEntity looks at LocalPlayer and starts talking
  1: 0x0496 [0x1D] PRINT_EVENT_MESSAGE(message_id=6521*)
    → "You cannot undertake two missions at the same time. Finish the one you are on now before asking for a new one."
  2: 0x0499 [0x23] WAIT_FOR_DIALOG_INTERACTION
  3: 0x049A [0x21] END_EVENT
  4: 0x049B [0x00] END_REQSTACK()
```

### Event 1003

#### Metadata

| Field        | Value    |
|--------------|----------|
| Entrypoint   | 0x049C   |
| Data Size    | 11 bytes |
| Instructions | 5        |

```
      00 01 02 03 04 05 06 07  08 09 0A 0B 0C 0D 0E 0F
      -- -- -- -- -- -- -- --  -- -- -- -- -- -- -- --
0490:                                      1E F0 FF FF              ....
04A0: 7F 1D 5F 80 23 21 00                              .._.#!.         
```

#### Opcodes

```
  0: 0x049C [0x1E] EventEntity looks at LocalPlayer and starts talking
  1: 0x04A1 [0x1D] PRINT_EVENT_MESSAGE(message_id=6520*)
    → "I am in charge of assigning missions, but I am only allowed to do so to those whose allegiance is to Bastok."
  2: 0x04A4 [0x23] WAIT_FOR_DIALOG_INTERACTION
  3: 0x04A5 [0x21] END_EVENT
  4: 0x04A6 [0x00] END_REQSTACK()
```

### Event 1004

#### Metadata

| Field        | Value     |
|--------------|-----------|
| Entrypoint   | 0x04A7    |
| Data Size    | 122 bytes |
| Instructions | 27        |

```
      00 01 02 03 04 05 06 07  08 09 0A 0B 0C 0D 0E 0F
      -- -- -- -- -- -- -- --  -- -- -- -- -- -- -- --
04A0:                      42  20 01 1E F0 FF FF 7F 1D         B .......
04B0: 60 80 23 66 09 80 F8 FF  FF 7F F8 FF FF 7F 74 6C  `.#f..........tl
04C0: 6B 30 1D 61 80 23 1D 62  80 23 66 09 80 F8 FF FF  k0.a.#.b.#f.....
04D0: 7F F8 FF FF 7F 74 65 6E  30 1D 63 80 23 66 09 80  .....ten0.c.#f..
04E0: F8 FF FF 7F F8 FF FF 7F  74 6C 6B 31 1D 64 80 23  ........tlk1.d.#
04F0: 1D 65 80 23 1D 66 80 23  66 09 80 F8 FF FF 7F F8  .e.#.f.#f.......
0500: FF FF 7F 74 65 6E 31 1D  67 80 23 7D 16 80 45 68  ...ten1.g.#}..Eh
0510: 80 F0 FF FF 7F F0 FF FF  7F 71 73 74 63 09 80 21  .........qstc..!
0520: 00                                                .               
```

#### Opcodes

```
  0: 0x04A7 [0x42] SET_CLI_EVENT_CANCEL_DATA()
  1: 0x04A8 [0x20] SET_CLI_EVENT_UC_FLAG: Lock player control
  2: 0x04AA [0x1E] EventEntity looks at LocalPlayer and starts talking
  3: 0x04AF [0x1D] PRINT_EVENT_MESSAGE(message_id=6539*)
    → "Good, you've brought all four parts of the doll."
  4: 0x04B2 [0x23] WAIT_FOR_DIALOG_INTERACTION
  5: 0x04B3 [0x66] LOAD_EXT_SCHEDULER_MAIN: Load scheduler "tlk0" with entities [EventEntity, EventEntity], work=0*
  6: 0x04C2 [0x1D] PRINT_EVENT_MESSAGE(message_id=6540*)
    → "I am raising your rank to 2 for completing this mission. Congratulations."
  7: 0x04C5 [0x23] WAIT_FOR_DIALOG_INTERACTION
  8: 0x04C6 [0x1D] PRINT_EVENT_MESSAGE(message_id=6541*)
    → "If you've been to the Palborough Mines, you must know now the serious nature of the threat these beastmen pose to our civilization."
  9: 0x04C9 [0x23] WAIT_FOR_DIALOG_INTERACTION
 10: 0x04CA [0x66] LOAD_EXT_SCHEDULER_MAIN: Load scheduler "ten0" with entities [EventEntity, EventEntity], work=0*
 11: 0x04D9 [0x1D] PRINT_EVENT_MESSAGE(message_id=6542*)
    → "As a Bastoker, you are expected to take on more missions and go on conquests to preserve Bastok's brilliant future!"
 12: 0x04DC [0x23] WAIT_FOR_DIALOG_INTERACTION
 13: 0x04DD [0x66] LOAD_EXT_SCHEDULER_MAIN: Load scheduler "tlk1" with entities [EventEntity, EventEntity], work=0*
 14: 0x04EC [0x1D] PRINT_EVENT_MESSAGE(message_id=6543*)
    → "But I cannot give you a new mission at this time."
 15: 0x04EF [0x23] WAIT_FOR_DIALOG_INTERACTION
 16: 0x04F0 [0x1D] PRINT_EVENT_MESSAGE(message_id=6544*)
    → "You need to collect rank points before taking on new missions."
 17: 0x04F3 [0x23] WAIT_FOR_DIALOG_INTERACTION
 18: 0x04F4 [0x1D] PRINT_EVENT_MESSAGE(message_id=6545*)
    → "You can receive rank points by participating in conquests and donating the crystals you acquire to guards, or by undertaking missions you've previously completed."
 19: 0x04F7 [0x23] WAIT_FOR_DIALOG_INTERACTION
 20: 0x04F8 [0x66] LOAD_EXT_SCHEDULER_MAIN: Load scheduler "ten1" with entities [EventEntity, EventEntity], work=0*
 21: 0x0507 [0x1D] PRINT_EVENT_MESSAGE(message_id=6546*)
    → "Ask the High Guard near the gatehouse if you wish to hear more about conquests."
 22: 0x050A [0x23] WAIT_FOR_DIALOG_INTERACTION
 23: 0x050B [0x7D] LOAD_START_SCHEDULER_PLAYER: Load scheduler with animation_id 32790
 24: 0x050E [0x45] LOAD_SCHEDULED_TASK: Load scheduler "qstc" with entities [LocalPlayer, LocalPlayer], work=[201*, 0*]
 25: 0x051F [0x21] END_EVENT
 26: 0x0520 [0x00] END_REQSTACK()
```

### Event 1005

#### Metadata

| Field        | Value    |
|--------------|----------|
| Entrypoint   | 0x0521   |
| Data Size    | 31 bytes |
| Instructions | 8        |

```
      00 01 02 03 04 05 06 07  08 09 0A 0B 0C 0D 0E 0F
      -- -- -- -- -- -- -- --  -- -- -- -- -- -- -- --
0520:    42 20 01 1E F0 FF FF  7F 1D 60 80 23 45 68 80   B .......`.#Eh.
0530: F0 FF FF 7F F0 FF FF 7F  71 73 74 63 09 80 21 00  ........qstc..!.
```

#### Opcodes

```
  0: 0x0521 [0x42] SET_CLI_EVENT_CANCEL_DATA()
  1: 0x0522 [0x20] SET_CLI_EVENT_UC_FLAG: Lock player control
  2: 0x0524 [0x1E] EventEntity looks at LocalPlayer and starts talking
  3: 0x0529 [0x1D] PRINT_EVENT_MESSAGE(message_id=6539*)
    → "Good, you've brought all four parts of the doll."
  4: 0x052C [0x23] WAIT_FOR_DIALOG_INTERACTION
  5: 0x052D [0x45] LOAD_SCHEDULED_TASK: Load scheduler "qstc" with entities [LocalPlayer, LocalPlayer], work=[201*, 0*]
  6: 0x053E [0x21] END_EVENT
  7: 0x053F [0x00] END_REQSTACK()
```

### Event 1006

#### Metadata

| Field        | Value    |
|--------------|----------|
| Entrypoint   | 0x0540   |
| Data Size    | 36 bytes |
| Instructions | 9        |

```
      00 01 02 03 04 05 06 07  08 09 0A 0B 0C 0D 0E 0F
      -- -- -- -- -- -- -- --  -- -- -- -- -- -- -- --
0540: 42 20 01 1E F0 FF FF 7F  03 09 10 31 80 1D 69 80  B .........1..i.
0550: 23 45 68 80 F0 FF FF 7F  F0 FF FF 7F 71 73 74 63  #Eh.........qstc
0560: 09 80 21 00                                       ..!.            
```

#### Opcodes

```
  0: 0x0540 [0x42] SET_CLI_EVENT_CANCEL_DATA()
  1: 0x0541 [0x20] SET_CLI_EVENT_UC_FLAG: Lock player control
  2: 0x0543 [0x1E] EventEntity looks at LocalPlayer and starts talking
  3: 0x0548 [0x03] Work_Zone[9] = 563*
  4: 0x054D [0x1D] PRINT_EVENT_MESSAGE(message_id=6564*)
    → "You have succeeded in bringing back $7. Good work, adventurer. This discovery may help rejuvenate Bastok's economy!"
  5: 0x0550 [0x23] WAIT_FOR_DIALOG_INTERACTION
  6: 0x0551 [0x45] LOAD_SCHEDULED_TASK: Load scheduler "qstc" with entities [LocalPlayer, LocalPlayer], work=[201*, 0*]
  7: 0x0562 [0x21] END_EVENT
  8: 0x0563 [0x00] END_REQSTACK()
```

### Event 1007

#### Metadata

| Field        | Value    |
|--------------|----------|
| Entrypoint   | 0x0564   |
| Data Size    | 11 bytes |
| Instructions | 5        |

```
      00 01 02 03 04 05 06 07  08 09 0A 0B 0C 0D 0E 0F
      -- -- -- -- -- -- -- --  -- -- -- -- -- -- -- --
0560:             1E F0 FF FF  7F 1D 6A 80 23 21 00         ......j.#!. 
```

#### Opcodes

```
  0: 0x0564 [0x1E] EventEntity looks at LocalPlayer and starts talking
  1: 0x0569 [0x1D] PRINT_EVENT_MESSAGE(message_id=6572*)
    → "Ah, you have returned from Jeuno. Go to the President's Office right away. Sir Naji will show you in."
  2: 0x056C [0x23] WAIT_FOR_DIALOG_INTERACTION
  3: 0x056D [0x21] END_EVENT
  4: 0x056E [0x00] END_REQSTACK()
```

### Event 1011

#### Metadata

| Field        | Value    |
|--------------|----------|
| Entrypoint   | 0x056F   |
| Data Size    | 16 bytes |
| Instructions | 6        |

```
      00 01 02 03 04 05 06 07  08 09 0A 0B 0C 0D 0E 0F
      -- -- -- -- -- -- -- --  -- -- -- -- -- -- -- --
0560:                                               03                 .
0570: 09 10 6B 80 1E F0 FF FF  7F 1D 6C 80 23 21 00     ..k.......l.#!. 
```

#### Opcodes

```
  0: 0x056F [0x03] Work_Zone[9] = 290*
  1: 0x0574 [0x1E] EventEntity looks at LocalPlayer and starts talking
  2: 0x0579 [0x1D] PRINT_EVENT_MESSAGE(message_id=8192*)
    → "You've been ordered by the president to deliver that $3. When you have completed that task, you can return here for your next mission."
  3: 0x057C [0x23] WAIT_FOR_DIALOG_INTERACTION
  4: 0x057D [0x21] END_EVENT
  5: 0x057E [0x00] END_REQSTACK()
```

### Event 1008

#### Metadata

| Field        | Value     |
|--------------|-----------|
| Entrypoint   | 0x057F    |
| Data Size    | 205 bytes |
| Instructions | 39        |

```
      00 01 02 03 04 05 06 07  08 09 0A 0B 0C 0D 0E 0F
      -- -- -- -- -- -- -- --  -- -- -- -- -- -- -- --
0570:                                               42                 B
0580: 1A DE 09 38 1E 80 46 01  45 6D 80 F8 FF FF 7F F8  ...8..F.Em......
0590: FF FF 7F 73 30 32 36 09  80 29 0A F0 FF FF 7F 0A  ...s026..)......
05A0: 4A 33 B0 0E 01 F0 FF FF  7F 1A FF 09 1D 60 80 23  J3...........`.#
05B0: 66 09 80 F8 FF FF 7F F8  FF FF 7F 74 6C 6B 30 1D  f..........tlk0.
05C0: 61 80 23 1D 62 80 23 66  09 80 F8 FF FF 7F F8 FF  a.#.b.#f........
05D0: FF 7F 74 65 6E 30 1D 63  80 23 45 6D 80 F8 FF FF  ..ten0.c.#Em....
05E0: 7F F8 FF FF 7F 73 30 32  37 09 80 66 09 80 F8 FF  .....s027..f....
05F0: FF 7F F8 FF FF 7F 74 6C  6B 31 1D 64 80 23 1D 65  ......tlk1.d.#.e
0600: 80 23 1D 66 80 23 66 09  80 F8 FF FF 7F F8 FF FF  .#.f.#f.........
0610: 7F 74 65 6E 31 1D 67 80  23 7D 16 80 1C 6E 80 52  .ten1.g.#}...n.R
0620: 6D 80 F8 FF FF 7F F8 FF  FF 7F 73 30 32 37 1A AA  m.........s027..
0630: 06 1A AB 09 46 00 45 68  80 F0 FF FF 7F F0 FF FF  ....F.Eh........
0640: 7F 71 73 74 63 09 80 1A  CC 09 21 00              .qstc.....!.    
```

#### Opcodes

```
  0: 0x057F [0x42] SET_CLI_EVENT_CANCEL_DATA()
  1: 0x0580 [0x1A] CALL_SUBROUTINE(address=0x09DE)
  2: 0x0583 [0x38] SET_CLIENT_EVENT_MODE(mode=3*)
  3: 0x0586 [0x46] CAMERA_CONTROL: Disable user control
  4: 0x0588 [0x45] LOAD_SCHEDULED_TASK: Load scheduler "s026" with entities [EventEntity, EventEntity], work=[204*, 0*]
  5: 0x0599 [0x29] REQ_SET_WAIT(priority=0x0A, entity_id=LocalPlayer, tag_num=0x0A)
  6: 0x05A0 [0x4A] Cleades (ID: 17739827/0x010EB033) looks at LocalPlayer
  7: 0x05A9 [0x1A] CALL_SUBROUTINE(address=0x09FF)
  8: 0x05AC [0x1D] PRINT_EVENT_MESSAGE(message_id=6539*)
    → "Good, you've brought all four parts of the doll."
  9: 0x05AF [0x23] WAIT_FOR_DIALOG_INTERACTION
 10: 0x05B0 [0x66] LOAD_EXT_SCHEDULER_MAIN: Load scheduler "tlk0" with entities [EventEntity, EventEntity], work=0*
 11: 0x05BF [0x1D] PRINT_EVENT_MESSAGE(message_id=6540*)
    → "I am raising your rank to 2 for completing this mission. Congratulations."
 12: 0x05C2 [0x23] WAIT_FOR_DIALOG_INTERACTION
 13: 0x05C3 [0x1D] PRINT_EVENT_MESSAGE(message_id=6541*)
    → "If you've been to the Palborough Mines, you must know now the serious nature of the threat these beastmen pose to our civilization."
 14: 0x05C6 [0x23] WAIT_FOR_DIALOG_INTERACTION
 15: 0x05C7 [0x66] LOAD_EXT_SCHEDULER_MAIN: Load scheduler "ten0" with entities [EventEntity, EventEntity], work=0*
 16: 0x05D6 [0x1D] PRINT_EVENT_MESSAGE(message_id=6542*)
    → "As a Bastoker, you are expected to take on more missions and go on conquests to preserve Bastok's brilliant future!"
 17: 0x05D9 [0x23] WAIT_FOR_DIALOG_INTERACTION
 18: 0x05DA [0x45] LOAD_SCHEDULED_TASK: Load scheduler "s027" with entities [EventEntity, EventEntity], work=[204*, 0*]
 19: 0x05EB [0x66] LOAD_EXT_SCHEDULER_MAIN: Load scheduler "tlk1" with entities [EventEntity, EventEntity], work=0*
 20: 0x05FA [0x1D] PRINT_EVENT_MESSAGE(message_id=6543*)
    → "But I cannot give you a new mission at this time."
 21: 0x05FD [0x23] WAIT_FOR_DIALOG_INTERACTION
 22: 0x05FE [0x1D] PRINT_EVENT_MESSAGE(message_id=6544*)
    → "You need to collect rank points before taking on new missions."
 23: 0x0601 [0x23] WAIT_FOR_DIALOG_INTERACTION
 24: 0x0602 [0x1D] PRINT_EVENT_MESSAGE(message_id=6545*)
    → "You can receive rank points by participating in conquests and donating the crystals you acquire to guards, or by undertaking missions you've previously completed."
 25: 0x0605 [0x23] WAIT_FOR_DIALOG_INTERACTION
 26: 0x0606 [0x66] LOAD_EXT_SCHEDULER_MAIN: Load scheduler "ten1" with entities [EventEntity, EventEntity], work=0*
 27: 0x0615 [0x1D] PRINT_EVENT_MESSAGE(message_id=6546*)
    → "Ask the High Guard near the gatehouse if you wish to hear more about conquests."
 28: 0x0618 [0x23] WAIT_FOR_DIALOG_INTERACTION
 29: 0x0619 [0x7D] LOAD_START_SCHEDULER_PLAYER: Load scheduler with animation_id 32790
 30: 0x061C [0x1C] WAIT(240* ticks)
 31: 0x061F [0x52] END_LOAD_SCHEDULER: End scheduler "s027" with entities [EventEntity, EventEntity], work=204*
 32: 0x062E [0x1A] CALL_SUBROUTINE(address=0x06AA)
 33: 0x0631 [0x1A] CALL_SUBROUTINE(address=0x09AB)
 34: 0x0634 [0x46] CAMERA_CONTROL: Restore default settings
 35: 0x0636 [0x45] LOAD_SCHEDULED_TASK: Load scheduler "qstc" with entities [LocalPlayer, LocalPlayer], work=[201*, 0*]
 36: 0x0647 [0x1A] CALL_SUBROUTINE(address=0x09CC)
 37: 0x064A [0x21] END_EVENT
 38: 0x064B [0x00] END_REQSTACK()
```

### Event 1009

#### Metadata

| Field        | Value     |
|--------------|-----------|
| Entrypoint   | 0x064C    |
| Data Size    | 476 bytes |
| Instructions | 68        |

```
      00 01 02 03 04 05 06 07  08 09 0A 0B 0C 0D 0E 0F
      -- -- -- -- -- -- -- --  -- -- -- -- -- -- -- --
0640:                                      42 1A DE 09              B...
0650: 38 1E 80 46 01 45 6D 80  F8 FF FF 7F F8 FF FF 7F  8..F.Em.........
0660: 73 30 32 36 09 80 29 0A  F0 FF FF 7F 0A 4A 33 B0  s026..)......J3.
0670: 0E 01 F0 FF FF 7F 1A FF  09 1D 60 80 23 1A AA 06  ..........`.#...
0680: 1A AB 09 46 00 52 6D 80  F8 FF FF 7F F8 FF FF 7F  ...F.Rm.........
0690: 73 30 33 30 45 68 80 F0  FF FF 7F F0 FF FF 7F 71  s030Eh.........q
06A0: 73 74 63 09 80 1A CC 09  21 00 45 6D 80 F8 FF FF  stc.....!.Em....
06B0: 7F F8 FF FF 7F 73 30 32  38 09 80 27 0A 0A B0 0E  .....s028..'....
06C0: 01 0E 1C 6F 80 2B 0A B0  0E 01 70 80 23 4A 33 B0  ...o.+....p.#J3.
06D0: 0E 01 0A B0 0E 01 1D 71  80 23 2A 0A 0A B0 0E 01  .......q.#*.....
06E0: 4A F0 FF FF 7F 0A B0 0E  01 66 72 80 0A B0 0E 01  J........fr.....
06F0: 0A B0 0E 01 74 6C 6B 30  2B 0A B0 0E 01 73 80 23  ....tlk0+....s.#
0700: 6B 69 64 6C 30 0A B0 0E  01 66 09 80 F8 FF FF 7F  kidl0....f......
0710: F8 FF FF 7F 74 6C 6B 30  1D 74 80 23 66 09 80 F8  ....tlk0.t.#f...
0720: FF FF 7F F8 FF FF 7F 74  65 6E 30 45 6D 80 F8 FF  .......ten0Em...
0730: FF 7F F8 FF FF 7F 73 30  32 39 09 80 27 0A 05 B0  ......s029..'...
0740: 0E 01 10 27 0A 2C B0 0E  01 14 2B 05 B0 0E 01 75  ...'.,....+....u
0750: 80 23 4A 0A B0 0E 01 05  B0 0E 01 2B 0A B0 0E 01  .#J........+....
0760: 76 80 23 79 00 0A B0 0E  01 2C B0 0E 01 2A 0A 2C  v.#y.....,...*.,
0770: B0 0E 01 66 6F 80 2C B0  0E 01 2C B0 0E 01 74 6C  ...fo.,...,...tl
0780: 6B 30 2B 2C B0 0E 01 77  80 23 6B 69 64 6C 30 2C  k0+,...w.#kidl0,
0790: B0 0E 01 66 72 80 0A B0  0E 01 0A B0 0E 01 74 68  ...fr.........th
07A0: 6B 31 7B 0A B0 0E 01 2B  0A B0 0E 01 78 80 23 5B  k1{....+....x.#[
07B0: 79 80 05 B0 0E 01 05 B0  0E 01 74 68 6B 31 2B 05  y.........thk1+.
07C0: B0 0E 01 7A 80 23 45 6D  80 F8 FF FF 7F F8 FF FF  ...z.#Em........
07D0: 7F 73 30 33 30 09 80 5B  79 80 05 B0 0E 01 05 B0  .s030..[y.......
07E0: 0E 01 74 68 6B 32 66 72  80 0A B0 0E 01 0A B0 0E  ..thk2fr........
07F0: 01 74 68 6B 32 79 00 0A  B0 0E 01 05 B0 0E 01 2B  .thk2y.........+
0800: 0A B0 0E 01 7B 80 23 66  72 80 0A B0 0E 01 0A B0  ....{.#fr.......
0810: 0E 01 74 6C 6B 30 2B 0A  B0 0E 01 7C 80 23 6B 69  ..tlk0+....|.#ki
0820: 64 6C 30 0A B0 0E 01 1B                           dl0.....        
```

#### Opcodes

```
  0: 0x064C [0x42] SET_CLI_EVENT_CANCEL_DATA()
  1: 0x064D [0x1A] CALL_SUBROUTINE(address=0x09DE)
  2: 0x0650 [0x38] SET_CLIENT_EVENT_MODE(mode=3*)
  3: 0x0653 [0x46] CAMERA_CONTROL: Disable user control
  4: 0x0655 [0x45] LOAD_SCHEDULED_TASK: Load scheduler "s026" with entities [EventEntity, EventEntity], work=[204*, 0*]
  5: 0x0666 [0x29] REQ_SET_WAIT(priority=0x0A, entity_id=LocalPlayer, tag_num=0x0A)
  6: 0x066D [0x4A] Cleades (ID: 17739827/0x010EB033) looks at LocalPlayer
  7: 0x0676 [0x1A] CALL_SUBROUTINE(address=0x09FF)
  8: 0x0679 [0x1D] PRINT_EVENT_MESSAGE(message_id=6539*)
    → "Good, you've brought all four parts of the doll."
  9: 0x067C [0x23] WAIT_FOR_DIALOG_INTERACTION
 10: 0x067D [0x1A] CALL_SUBROUTINE(address=0x06AA)
 11: 0x0680 [0x1A] CALL_SUBROUTINE(address=0x09AB)
 12: 0x0683 [0x46] CAMERA_CONTROL: Restore default settings
 13: 0x0685 [0x52] END_LOAD_SCHEDULER: End scheduler "s030" with entities [EventEntity, EventEntity], work=204*
 14: 0x0694 [0x45] LOAD_SCHEDULED_TASK: Load scheduler "qstc" with entities [LocalPlayer, LocalPlayer], work=[201*, 0*]
 15: 0x06A5 [0x1A] CALL_SUBROUTINE(address=0x09CC)
 16: 0x06A8 [0x21] END_EVENT
 17: 0x06A9 [0x00] END_REQSTACK()

SUBROUTINE_06AA:
 18: 0x06AA [0x45] LOAD_SCHEDULED_TASK: Load scheduler "s028" with entities [EventEntity, EventEntity], work=[204*, 0*]
 19: 0x06BB [0x27] REQ_SET(priority=0x0A, entity_id=Dalzakk (ID: 17739786/0x010EB00A), tag_num=0x0E)
 20: 0x06C2 [0x1C] WAIT(30* ticks)
 21: 0x06C5 [0x2B] Dalzakk (ID: 17739786/0x010EB00A) [8163*]:
    → "We have completed our mission as well."
 22: 0x06CC [0x23] WAIT_FOR_DIALOG_INTERACTION
 23: 0x06CD [0x4A] Cleades (ID: 17739827/0x010EB033) looks at Dalzakk (ID: 17739786/0x010EB00A)
 24: 0x06D6 [0x1D] PRINT_EVENT_MESSAGE(message_id=8164*)
    → "Oh, if it isn't Dalzakk. I see that you've made it home safely."
 25: 0x06D9 [0x23] WAIT_FOR_DIALOG_INTERACTION
 26: 0x06DA [0x2A] GET_REQ_LEVEL(level=10, entity_id=Dalzakk (ID: 17739786/0x010EB00A))
 27: 0x06E0 [0x4A] LocalPlayer looks at Dalzakk (ID: 17739786/0x010EB00A)
 28: 0x06E9 [0x66] LOAD_EXT_SCHEDULER_MAIN: Load scheduler "tlk0" with entities [Dalzakk (ID: 17739786/0x010EB00A), Dalzakk (ID: 17739786/0x010EB00A)], work=60*
 29: 0x06F8 [0x2B] Dalzakk (ID: 17739786/0x010EB00A) [8165*]:
    → "Did anything strange happen in the Mines District while I was away? I have a bad feeling about that place."
 30: 0x06FF [0x23] WAIT_FOR_DIALOG_INTERACTION
 31: 0x0700 [0x6B] STOP_AND_IDLE: Dalzakk (ID: 17739786/0x010EB00A) stops current action and resets to idle (animation="idl0")
 32: 0x0709 [0x66] LOAD_EXT_SCHEDULER_MAIN: Load scheduler "tlk0" with entities [EventEntity, EventEntity], work=0*
 33: 0x0718 [0x1D] PRINT_EVENT_MESSAGE(message_id=8166*)
    → "It's nothing official, but I did hear from a guard there that..."
 34: 0x071B [0x23] WAIT_FOR_DIALOG_INTERACTION
 35: 0x071C [0x66] LOAD_EXT_SCHEDULER_MAIN: Load scheduler "ten0" with entities [EventEntity, EventEntity], work=0*
 36: 0x072B [0x45] LOAD_SCHEDULED_TASK: Load scheduler "s029" with entities [EventEntity, EventEntity], work=[204*, 0*]
 37: 0x073C [0x27] REQ_SET(priority=0x0A, entity_id=Gwill (ID: 17739781/0x010EB005), tag_num=0x10)
 38: 0x0743 [0x27] REQ_SET(priority=0x0A, entity_id=Michea (ID: 17739820/0x010EB02C), tag_num=0x14)
 39: 0x074A [0x2B] Gwill (ID: 17739781/0x010EB005) [8167*]:
    → "Mister Dalzakk! Werei has... Werei has..."
 40: 0x0751 [0x23] WAIT_FOR_DIALOG_INTERACTION
 41: 0x0752 [0x4A] Dalzakk (ID: 17739786/0x010EB00A) looks at Gwill (ID: 17739781/0x010EB005)
 42: 0x075B [0x2B] Dalzakk (ID: 17739786/0x010EB00A) [8168*]:
    → "Werei has what, Gwill?"
 43: 0x0762 [0x23] WAIT_FOR_DIALOG_INTERACTION
 44: 0x0763 [0x79] Dalzakk (ID: 17739786/0x010EB00A) looks at Michea (ID: 17739820/0x010EB02C) (Basic look)
 45: 0x076D [0x2A] GET_REQ_LEVEL(level=10, entity_id=Michea (ID: 17739820/0x010EB02C))
 46: 0x0773 [0x66] LOAD_EXT_SCHEDULER_MAIN: Load scheduler "tlk0" with entities [Michea (ID: 17739820/0x010EB02C), Michea (ID: 17739820/0x010EB02C)], work=30*
 47: 0x0782 [0x2B] Michea (ID: 17739820/0x010EB02C) [8169*]:
    → "It seems as if Werei has left on his journey of rebirth."
 48: 0x0789 [0x23] WAIT_FOR_DIALOG_INTERACTION
 49: 0x078A [0x6B] STOP_AND_IDLE: Michea (ID: 17739820/0x010EB02C) stops current action and resets to idle (animation="idl0")
 50: 0x0793 [0x66] LOAD_EXT_SCHEDULER_MAIN: Load scheduler "thk1" with entities [Dalzakk (ID: 17739786/0x010EB00A), Dalzakk (ID: 17739786/0x010EB00A)], work=60*
 51: 0x07A2 [0x7B] Dalzakk (ID: 17739786/0x010EB00A) stops talking
 52: 0x07A7 [0x2B] Dalzakk (ID: 17739786/0x010EB00A) [8170*]:
    → "I see. We all knew this day would come eventually, but the Galka in the Mines District will still be sorrowful..."
 53: 0x07AE [0x23] WAIT_FOR_DIALOG_INTERACTION
 54: 0x07AF [0x5B] LOAD_EXT_SCHEDULER: Load scheduler "thk1" with entities [Gwill (ID: 17739781/0x010EB005), Gwill (ID: 17739781/0x010EB005)], work=90*
 55: 0x07BE [0x2B] Gwill (ID: 17739781/0x010EB005) [8171*]:
    → "What should we do, Mister Dalzakk?"
 56: 0x07C5 [0x23] WAIT_FOR_DIALOG_INTERACTION
 57: 0x07C6 [0x45] LOAD_SCHEDULED_TASK: Load scheduler "s030" with entities [EventEntity, EventEntity], work=[204*, 0*]
 58: 0x07D7 [0x5B] LOAD_EXT_SCHEDULER: Load scheduler "thk2" with entities [Gwill (ID: 17739781/0x010EB005), Gwill (ID: 17739781/0x010EB005)], work=90*
 59: 0x07E6 [0x66] LOAD_EXT_SCHEDULER_MAIN: Load scheduler "thk2" with entities [Dalzakk (ID: 17739786/0x010EB00A), Dalzakk (ID: 17739786/0x010EB00A)], work=60*
 60: 0x07F5 [0x79] Dalzakk (ID: 17739786/0x010EB00A) looks at Gwill (ID: 17739781/0x010EB005) (Basic look)
 61: 0x07FF [0x2B] Dalzakk (ID: 17739786/0x010EB00A) [8172*]:
    → "Keep calm, Gwill. You cannot live your life always depending on others."
 62: 0x0806 [0x23] WAIT_FOR_DIALOG_INTERACTION
 63: 0x0807 [0x66] LOAD_EXT_SCHEDULER_MAIN: Load scheduler "tlk0" with entities [Dalzakk (ID: 17739786/0x010EB00A), Dalzakk (ID: 17739786/0x010EB00A)], work=60*
 64: 0x0816 [0x2B] Dalzakk (ID: 17739786/0x010EB00A) [8173*]:
    → "However, we are all worried. I will make preparations to set out again and investigate Werei's disappearance."
 65: 0x081D [0x23] WAIT_FOR_DIALOG_INTERACTION
 66: 0x081E [0x6B] STOP_AND_IDLE: Dalzakk (ID: 17739786/0x010EB00A) stops current action and resets to idle (animation="idl0")
 67: 0x0827 [0x1B] RETURN
```

### Event 1010

#### Metadata

| Field        | Value     |
|--------------|-----------|
| Entrypoint   | 0x0828    |
| Data Size    | 489 bytes |
| Instructions | 68        |

```
      00 01 02 03 04 05 06 07  08 09 0A 0B 0C 0D 0E 0F
      -- -- -- -- -- -- -- --  -- -- -- -- -- -- -- --
0820:                          42 1A DE 09 46 01 38 4B          B...F.8K
0830: 80 45 6D 80 F8 FF FF 7F  F8 FF FF 7F 73 30 33 31  .Em.........s031
0840: 09 80 29 0A F0 FF FF 7F  0B 4A 33 B0 0E 01 F0 FF  ..)......J3.....
0850: FF 7F 1A FF 09 03 09 10  31 80 1D 69 80 23 27 0A  ........1..i.#'.
0860: 5F B0 0E 01 02 1C 6F 80  2B 5F B0 0E 01 7D 80 23  _.....o.+_...}.#
0870: 4A 33 B0 0E 01 5F B0 0E  01 1D 7E 80 23 45 7F 80  J3..._....~.#E..
0880: F0 FF FF 7F F0 FF FF 7F  6F 76 6C 31 09 80 45 6D  ........ovl1..Em
0890: 80 F8 FF FF 7F F8 FF FF  7F 73 30 33 32 09 80 2A  .........s032..*
08A0: 0A 5F B0 0E 01 5B 7F 80  5F B0 0E 01 5F B0 0E 01  ._...[.._..._...
08B0: 74 6C 62 30 2B 5F B0 0E  01 80 80 23 66 09 80 F8  tlb0+_.....#f...
08C0: FF FF 7F F8 FF FF 7F 74  6C 6B 30 1D 81 80 23 66  .......tlk0...#f
08D0: 09 80 F8 FF FF 7F F8 FF  FF 7F 74 65 6E 30 5B 7F  ..........ten0[.
08E0: 80 5F B0 0E 01 5F B0 0E  01 74 6C 62 31 7B 5F B0  ._..._...tlb1{_.
08F0: 0E 01 2B 5F B0 0E 01 82  80 23 4A 5F B0 0E 01 F0  ..+_.....#J_....
0900: FF FF 7F 2B 5F B0 0E 01  83 80 23 1A AB 09 52 6D  ...+_.....#...Rm
0910: 80 F8 FF FF 7F F8 FF FF  7F 73 30 33 32 1C 6F 80  .........s032.o.
0920: 1A CC 09 45 6D 80 F8 FF  FF 7F F8 FF FF 7F 73 30  ...Em.........s0
0930: 33 33 09 80 1C 4E 80 5B  7F 80 5F B0 0E 01 5F B0  33...N.[.._..._.
0940: 0E 01 74 6C 61 30 2B 5F  B0 0E 01 84 80 23 5B 7F  ..tla0+_.....#[.
0950: 80 5F B0 0E 01 5F B0 0E  01 74 6C 61 31 2B 5F B0  ._..._...tla1+_.
0960: 0E 01 85 80 23 53 5F B0  0E 01 5F B0 0E 01 74 6C  ....#S_..._...tl
0970: 61 31 7B 5F B0 0E 01 27  0A 5F B0 0E 01 03 1C 6F  a1{_...'._.....o
0980: 80 1A AB 09 52 6D 80 F8  FF FF 7F F8 FF FF 7F 73  ....Rm.........s
0990: 30 33 33 45 68 80 F0 FF  FF 7F F0 FF FF 7F 71 73  033Eh.........qs
09A0: 74 63 09 80 46 00 1A CC  09 21 00 45 7F 80 F0 FF  tc..F....!.E....
09B0: FF 7F F0 FF FF 7F 66 64  6F 31 09 80 55 7F 80 F0  ......fdo1..U...
09C0: FF FF 7F F0 FF FF 7F 66  64 6F 31 1B 45 7F 80 F0  .......fdo1.E...
09D0: FF FF 7F F0 FF FF 7F 66  64 69 31 09 80 1B 45 7F  .......fdi1...E.
09E0: 80 F0 FF FF 7F F0 FF FF  7F 66 64 6F 30 09 80 55  .........fdo0..U
09F0: 7F 80 F0 FF FF 7F F0 FF  FF 7F 66 64 6F 30 1B 45  ..........fdo0.E
0A00: 7F 80 F0 FF FF 7F F0 FF  FF 7F 66 64 69 30 09 80  ..........fdi0..
0A10: 1B                                                .               
```

#### Opcodes

```
  0: 0x0828 [0x42] SET_CLI_EVENT_CANCEL_DATA()
  1: 0x0829 [0x1A] CALL_SUBROUTINE(address=0x09DE)
  2: 0x082C [0x46] CAMERA_CONTROL: Disable user control
  3: 0x082E [0x38] SET_CLIENT_EVENT_MODE(mode=19*)
  4: 0x0831 [0x45] LOAD_SCHEDULED_TASK: Load scheduler "s031" with entities [EventEntity, EventEntity], work=[204*, 0*]
  5: 0x0842 [0x29] REQ_SET_WAIT(priority=0x0A, entity_id=LocalPlayer, tag_num=0x0B)
  6: 0x0849 [0x4A] Cleades (ID: 17739827/0x010EB033) looks at LocalPlayer
  7: 0x0852 [0x1A] CALL_SUBROUTINE(address=0x09FF)
  8: 0x0855 [0x03] Work_Zone[9] = 563*
  9: 0x085A [0x1D] PRINT_EVENT_MESSAGE(message_id=6564*)
    → "You have succeeded in bringing back $7. Good work, adventurer. This discovery may help rejuvenate Bastok's economy!"
 10: 0x085D [0x23] WAIT_FOR_DIALOG_INTERACTION
 11: 0x085E [0x27] REQ_SET(priority=0x0A, entity_id=Volker (ID: 17739871/0x010EB05F), tag_num=0x02)
 12: 0x0865 [0x1C] WAIT(30* ticks)
 13: 0x0868 [0x2B] Volker (ID: 17739871/0x010EB05F) [8174*]:
    → "Well? I'd like a report on the activities of the adventurers."
 14: 0x086F [0x23] WAIT_FOR_DIALOG_INTERACTION
 15: 0x0870 [0x4A] Cleades (ID: 17739827/0x010EB033) looks at Volker (ID: 17739871/0x010EB05F)
 16: 0x0879 [0x1D] PRINT_EVENT_MESSAGE(message_id=8175*)
    → "Captain Volker! You've returned!"
 17: 0x087C [0x23] WAIT_FOR_DIALOG_INTERACTION
 18: 0x087D [0x45] LOAD_SCHEDULED_TASK: Load scheduler "ovl1" with entities [LocalPlayer, LocalPlayer], work=[200*, 0*]
 19: 0x088E [0x45] LOAD_SCHEDULED_TASK: Load scheduler "s032" with entities [EventEntity, EventEntity], work=[204*, 0*]
 20: 0x089F [0x2A] GET_REQ_LEVEL(level=10, entity_id=Volker (ID: 17739871/0x010EB05F))
 21: 0x08A5 [0x5B] LOAD_EXT_SCHEDULER: Load scheduler "tlb0" with entities [Volker (ID: 17739871/0x010EB05F), Volker (ID: 17739871/0x010EB05F)], work=200*
 22: 0x08B4 [0x2B] Volker (ID: 17739871/0x010EB05F) [8176*]:
    → "Cleades, has the restlessness of the Galka in the Mines District begun affecting those in the Bastok Markets?"
 23: 0x08BB [0x23] WAIT_FOR_DIALOG_INTERACTION
 24: 0x08BC [0x66] LOAD_EXT_SCHEDULER_MAIN: Load scheduler "tlk0" with entities [EventEntity, EventEntity], work=0*
 25: 0x08CB [0x1D] PRINT_EVENT_MESSAGE(message_id=8177*)
    → "Due to the small number of Galka in the Markets, I do not feel that the disappearance of Werei has affected them that much."
 26: 0x08CE [0x23] WAIT_FOR_DIALOG_INTERACTION
 27: 0x08CF [0x66] LOAD_EXT_SCHEDULER_MAIN: Load scheduler "ten0" with entities [EventEntity, EventEntity], work=0*
 28: 0x08DE [0x5B] LOAD_EXT_SCHEDULER: Load scheduler "tlb1" with entities [Volker (ID: 17739871/0x010EB05F), Volker (ID: 17739871/0x010EB05F)], work=200*
 29: 0x08ED [0x7B] Volker (ID: 17739871/0x010EB05F) stops talking
 30: 0x08F2 [0x2B] Volker (ID: 17739871/0x010EB05F) [8178*]:
    → "Understood. Where could Zeid be at a time like this?"
 31: 0x08F9 [0x23] WAIT_FOR_DIALOG_INTERACTION
 32: 0x08FA [0x4A] Volker (ID: 17739871/0x010EB05F) looks at LocalPlayer
 33: 0x0903 [0x2B] Volker (ID: 17739871/0x010EB05F) [8179*]:
    → "Wait. You've been to the Gusgen Mines. People say that you've even seen Zeid. Is this true?"
 34: 0x090A [0x23] WAIT_FOR_DIALOG_INTERACTION
 35: 0x090B [0x1A] CALL_SUBROUTINE(address=0x09AB)
 36: 0x090E [0x52] END_LOAD_SCHEDULER: End scheduler "s032" with entities [EventEntity, EventEntity], work=204*
 37: 0x091D [0x1C] WAIT(30* ticks)
 38: 0x0920 [0x1A] CALL_SUBROUTINE(address=0x09CC)
 39: 0x0923 [0x45] LOAD_SCHEDULED_TASK: Load scheduler "s033" with entities [EventEntity, EventEntity], work=[204*, 0*]
 40: 0x0934 [0x1C] WAIT(20* ticks)
 41: 0x0937 [0x5B] LOAD_EXT_SCHEDULER: Load scheduler "tla0" with entities [Volker (ID: 17739871/0x010EB05F), Volker (ID: 17739871/0x010EB05F)], work=200*
 42: 0x0946 [0x2B] Volker (ID: 17739871/0x010EB05F) [8180*]:
    → "I see... It is critical for us to get him to come back to Bastok. That may be the only way to ease the restless hearts of the Galka."
 43: 0x094D [0x23] WAIT_FOR_DIALOG_INTERACTION
 44: 0x094E [0x5B] LOAD_EXT_SCHEDULER: Load scheduler "tla1" with entities [Volker (ID: 17739871/0x010EB05F), Volker (ID: 17739871/0x010EB05F)], work=200*
 45: 0x095D [0x2B] Volker (ID: 17739871/0x010EB05F) [8181*]:
    → "I can't tell what Zeid's thinking. I can only hope that he will see things our way. I apologize for holding you up. I wish you success in your further adventures."
 46: 0x0964 [0x23] WAIT_FOR_DIALOG_INTERACTION
 47: 0x0965 [0x53] WAIT_SCHEDULER_TASK: Wait for scheduler "tla1" with entities [Volker (ID: 17739871/0x010EB05F), Volker (ID: 17739871/0x010EB05F)]
 48: 0x0972 [0x7B] Volker (ID: 17739871/0x010EB05F) stops talking
 49: 0x0977 [0x27] REQ_SET(priority=0x0A, entity_id=Volker (ID: 17739871/0x010EB05F), tag_num=0x03)
 50: 0x097E [0x1C] WAIT(30* ticks)
 51: 0x0981 [0x1A] CALL_SUBROUTINE(address=0x09AB)
 52: 0x0984 [0x52] END_LOAD_SCHEDULER: End scheduler "s033" with entities [EventEntity, EventEntity], work=204*
 53: 0x0993 [0x45] LOAD_SCHEDULED_TASK: Load scheduler "qstc" with entities [LocalPlayer, LocalPlayer], work=[201*, 0*]
 54: 0x09A4 [0x46] CAMERA_CONTROL: Restore default settings
 55: 0x09A6 [0x1A] CALL_SUBROUTINE(address=0x09CC)
 56: 0x09A9 [0x21] END_EVENT
 57: 0x09AA [0x00] END_REQSTACK()

SUBROUTINE_09AB:
 58: 0x09AB [0x45] LOAD_SCHEDULED_TASK: Load scheduler "fdo1" with entities [LocalPlayer, LocalPlayer], work=[200*, 0*]
 59: 0x09BC [0x55] WAIT_LOAD_SCHEDULER: Wait for scheduler "fdo1" with entities [LocalPlayer, LocalPlayer], work=200*
 60: 0x09CB [0x1B] RETURN

SUBROUTINE_09CC:
 61: 0x09CC [0x45] LOAD_SCHEDULED_TASK: Load scheduler "fdi1" with entities [LocalPlayer, LocalPlayer], work=[200*, 0*]
 62: 0x09DD [0x1B] RETURN

SUBROUTINE_09DE:
 63: 0x09DE [0x45] LOAD_SCHEDULED_TASK: Load scheduler "fdo0" with entities [LocalPlayer, LocalPlayer], work=[200*, 0*]
 64: 0x09EF [0x55] WAIT_LOAD_SCHEDULER: Wait for scheduler "fdo0" with entities [LocalPlayer, LocalPlayer], work=200*
 65: 0x09FE [0x1B] RETURN

SUBROUTINE_09FF:
 66: 0x09FF [0x45] LOAD_SCHEDULED_TASK: Load scheduler "fdi0" with entities [LocalPlayer, LocalPlayer], work=[200*, 0*]
 67: 0x0A10 [0x1B] RETURN
```

### Event 24

#### Metadata

| Field        | Value   |
|--------------|---------|
| Entrypoint   | 0x0A11  |
| Data Size    | 1 bytes |
| Instructions | 1       |

```
      00 01 02 03 04 05 06 07  08 09 0A 0B 0C 0D 0E 0F
      -- -- -- -- -- -- -- --  -- -- -- -- -- -- -- --
0A10:    00                                              .              
```

#### Opcodes

```
  0: 0x0A11 [0x00] END_REQSTACK()
```

### Event 586

#### Metadata

| Field        | Value   |
|--------------|---------|
| Entrypoint   | 0x0A12  |
| Data Size    | 1 bytes |
| Instructions | 1       |

```
      00 01 02 03 04 05 06 07  08 09 0A 0B 0C 0D 0E 0F
      -- -- -- -- -- -- -- --  -- -- -- -- -- -- -- --
0A10:       00                                            .             
```

#### Opcodes

```
  0: 0x0A12 [0x00] END_REQSTACK()
```

### Event 587

#### Metadata

| Field        | Value   |
|--------------|---------|
| Entrypoint   | 0x0A13  |
| Data Size    | 1 bytes |
| Instructions | 1       |

```
      00 01 02 03 04 05 06 07  08 09 0A 0B 0C 0D 0E 0F
      -- -- -- -- -- -- -- --  -- -- -- -- -- -- -- --
0A10:          00                                          .            
```

#### Opcodes

```
  0: 0x0A13 [0x00] END_REQSTACK()
```

### Event 595

#### Metadata

| Field        | Value   |
|--------------|---------|
| Entrypoint   | 0x0A14  |
| Data Size    | 1 bytes |
| Instructions | 1       |

```
      00 01 02 03 04 05 06 07  08 09 0A 0B 0C 0D 0E 0F
      -- -- -- -- -- -- -- --  -- -- -- -- -- -- -- --
0A10:             00                                        .           
```

#### Opcodes

```
  0: 0x0A14 [0x00] END_REQSTACK()
```
