# 17739818 - Offa

## Common Data

| Field            | Value                    |
|------------------|--------------------------|
| Zone             | Bastok Markets (ID: 235) |
| Block Size       | 612 bytes                |
| Total Events     | 18                       |
| References Count | 39                       |

## List of Events

| Event ID                 | Entrypoint   |   Size |   Instructions |
|--------------------------|--------------|--------|----------------|
| [65535](#event-65535)    | 0x0000       |      1 |              1 |
| [0](#event-0)            | 0x0001       |     10 |              2 |
| [65535.1](#event-655351) | 0x000B       |     26 |              7 |
| [124](#event-124)        | 0x0025       |     63 |             19 |
| [222](#event-222)        | 0x0064       |     57 |             17 |
| [475](#event-475)        | 0x009D       |      1 |              1 |
| [476](#event-476)        | 0x009E       |     29 |              7 |
| [477](#event-477)        | 0x00BB       |      1 |              1 |
| [478](#event-478)        | 0x00BC       |     29 |              7 |
| [479](#event-479)        | 0x00D9       |      1 |              1 |
| [480](#event-480)        | 0x00DA       |     34 |              8 |
| [481](#event-481)        | 0x00FC       |      1 |              1 |
| [482](#event-482)        | 0x00FD       |     29 |              7 |
| [483](#event-483)        | 0x011A       |      1 |              1 |
| [65535.2](#event-655352) | 0x011B       |     14 |              4 |
| [484](#event-484)        | 0x0129       |     29 |              7 |
| [485](#event-485)        | 0x0146       |      1 |              1 |
| [486](#event-486)        | 0x0147       |     38 |             10 |

## DAT References (imed_data)

|   Index | Hex Value   |   Dec Value |
|---------|-------------|-------------|
|       0 | 0xFFFB4AB8  |  4294658744 |
|       1 | 0xFFFDF845  |  4294834245 |
|       2 | 0xFFFFD8ED  |  4294957293 |
|       3 | 0x014F      |         335 |
|       4 | 0x000D      |          13 |
|       5 | 0xFFFB5BDF  |  4294663135 |
|       6 | 0xFFFDEA01  |  4294830593 |
|       7 | 0xFFFFDBA8  |  4294957992 |
|       8 | 0xFFFB7812  |  4294670354 |
|       9 | 0xFFFDCE31  |  4294823473 |
|      10 | 0xFFFFC333  |  4294951731 |
|      11 | 0x1D4A      |        7498 |
|      12 | 0x001E      |          30 |
|      13 | 0x1D4B      |        7499 |
|      14 | 0x0A03      |        2563 |
|      15 | 0x003C      |          60 |
|      16 | 0x1D4C      |        7500 |
|      17 | 0x0005      |           5 |
|      18 | 0x1D4D      |        7501 |
|      19 | 0x1D4E      |        7502 |
|      20 | 0x1114      |        4372 |
|      21 | 0x112B      |        4395 |
|      22 | 0x1D4F      |        7503 |
|      23 | 0x1D50      |        7504 |
|      24 | 0x1D51      |        7505 |
|      25 | 0x1D52      |        7506 |
|      26 | 0x1D53      |        7507 |
|      27 | 0x3068      |       12392 |
|      28 | 0x3069      |       12393 |
|      29 | 0x0384      |         900 |
|      30 | 0x306C      |       12396 |
|      31 | 0x3070      |       12400 |
|      32 | 0xFFFBB7FC  |  4294686716 |
|      33 | 0xFFFDE050  |  4294828112 |
|      34 | 0xFFFFC1B4  |  4294951348 |
|      35 | 0x3079      |       12409 |
|      36 | 0x307E      |       12414 |
|      37 | 0x162B      |        5675 |
|      38 | 0x307F      |       12415 |

## String References

- **7498**: <Yawn> Guess I'll skip work today, too...
- **7499**: Oops...you heard that? I work in the Metalworks, you see, but my work there is pretty boring. Doing the same thing over and over, every day of the week... It really gets to you after a while, you know?
- **7500**: Take Firewater Circle, for instance. I heard that during the Crystal War, there used to be a giant tower right where the fountain is. Now wouldn't that be a sight to see?
- **7501**: <Sigh>... Why can't there be a new war, or something? Then, I could quit this dead-end job and enlist in the Republican Legion!
- **7502**: With my brains, I'd be a commander in no time! Just don't ask me to go to the front lines... I have this thing about dying...
- **7503**: Hungry Wolf told you about $7? Yeah, he's a real gourmand, that one. Much like myself.
- **7504**: It's really hard to make, and takes years of practice to perfect it and all that, but if you get this one special ingredient, even you can make one. Wanna know what that special ingredient is?
- **7505**: It's Goblins. No, not the Goblins themselves, silly. They make this campfire up in the mountains that's got these special properties, see? All you have to do is stick $6 in it for just a little while...
- **7506**: And presto! You get $7! It's as simple as that. Getting up there's not easy, but that shouldn't be a problem for an adventurer like you.
- **7507**: An adventuring friend of mine brought one back to me once, and mmm-mmm! Boy, was it delicious!!!
- **12392**: I was devastated when I found our time capsule. Battered and empty... Those goblins are the scourge of this world!
- **12393**: A while back I went to dig up our letters but realized I had totally forgotten where they were buried. After that I totally lost the will to work...
- **12396**: If only we had put $0 in the capsule as well. Maybe that would have diverted their attention away from the letters...
- **12400**: A false-bottom box... That would have worked. Why do I always think of these things after the fact?
- **12409**: Well, that's all going to change from now on! M-my not changing, that is...
- **12414**: The time capsule? Oh, yes--I already made sure that everyone got their letter.
- **12415**: I wonder where my letter got to... To be honest, I couldn't care less. Who needs dreams when you have $0 as scrumptious as this! Mmm-mmm!

## Events

### Event 65535

#### Metadata

| Field        | Value   |
|--------------|---------|
| Entrypoint   | 0x0000  |
| Data Size    | 1 bytes |
| Instructions | 1       |

```
      00 01 02 03 04 05 06 07  08 09 0A 0B 0C 0D 0E 0F
      -- -- -- -- -- -- -- --  -- -- -- -- -- -- -- --
0000: 00                                                .               
```

#### Opcodes

```
  0: 0x0000 [0x00] END_REQSTACK()
```

### Event 0

#### Metadata

| Field        | Value    |
|--------------|----------|
| Entrypoint   | 0x0001   |
| Data Size    | 10 bytes |
| Instructions | 2        |

```
      00 01 02 03 04 05 06 07  08 09 0A 0B 0C 0D 0E 0F
      -- -- -- -- -- -- -- --  -- -- -- -- -- -- -- --
0000:    37 00 80 01 80 02 80  03 80 00                  7.........     
```

#### Opcodes

```
  0: 0x0001 [0x37] UPDATE_EVENT_POSITION_AND_DIR: x=-308.552*, z=-133.051*, y=-10.003*, direction=29.4°*
  1: 0x000A [0x00] END_REQSTACK()
```

### Event 65535.1

#### Metadata

| Field        | Value    |
|--------------|----------|
| Entrypoint   | 0x000B   |
| Data Size    | 26 bytes |
| Instructions | 7        |

```
      00 01 02 03 04 05 06 07  08 09 0A 0B 0C 0D 0E 0F
      -- -- -- -- -- -- -- --  -- -- -- -- -- -- -- --
0000:                                   32 04 80 1F 00             2....
0010: 05 80 06 80 07 80 1F 01  33 01 5A 00 08 80 09 80  ........3.Z.....
0020: 0A 80 5A 01 00                                    ..Z..           
```

#### Opcodes

```
  0: 0x000B [0x32] ExtData[1]->MainSpeed = 13* * 0.1
  1: 0x000E [0x1F] MOVE_ENTITY: EventEntity moves to X=-304.161*, Z=-136.703*, Y=-9.304*
  2: 0x0016 [0x1F] MOVE_ENTITY: Update entity position (mode=1)
  3: 0x0018 [0x33] EventEntity->Render.Flags0 |= 0x200000 // Bit 21 (flag=0x01)
  4: 0x001A [0x5A] UPDATE_EVENT_POSITION: Set EventEntity MovePosition to X=-296.942*, Z=-143.823*, Y=-15.565*
  5: 0x0022 [0x5A] UPDATE_EVENT_POSITION: Move EventEntity incrementally towards MovePosition
  6: 0x0024 [0x00] END_REQSTACK()
```

### Event 124

#### Metadata

| Field        | Value    |
|--------------|----------|
| Entrypoint   | 0x0025   |
| Data Size    | 63 bytes |
| Instructions | 19       |

```
      00 01 02 03 04 05 06 07  08 09 0A 0B 0C 0D 0E 0F
      -- -- -- -- -- -- -- --  -- -- -- -- -- -- -- --
0020:                1D 0B 80  23 1E F0 FF FF 7F 1C 0C       ...#.......
0030: 80 1D 0D 80 23 4B F8 FF  FF 7F 0E 80 1C 0F 80 1D  ....#K..........
0040: 10 80 23 1E F0 FF FF 7F  1C 0C 80 5B 11 80 F8 FF  ..#........[....
0050: FF 7F F8 FF FF 7F 74 6C  6B 30 1D 12 80 23 1D 13  ......tlk0...#..
0060: 80 23 21 00                                       .#!.            
```

#### Opcodes

```
  0: 0x0025 [0x1D] PRINT_EVENT_MESSAGE(message_id=7498*)
    → "<Yawn> Guess I'll skip work today, too..."
  1: 0x0028 [0x23] WAIT_FOR_DIALOG_INTERACTION
  2: 0x0029 [0x1E] EventEntity looks at LocalPlayer and starts talking
  3: 0x002E [0x1C] WAIT(30* ticks)
  4: 0x0031 [0x1D] PRINT_EVENT_MESSAGE(message_id=7499*)
    → "Oops...you heard that? I work in the Metalworks, you see, but my work there is pretty boring. Doing the same thing over and over, every day of the week... It really gets to you after a while, you know?"
  5: 0x0034 [0x23] WAIT_FOR_DIALOG_INTERACTION
  6: 0x0035 [0x4B] UPDATE_ENTITY_YAW(entity=EventEntity, yaw=14.1°*)
  7: 0x003C [0x1C] WAIT(60* ticks)
  8: 0x003F [0x1D] PRINT_EVENT_MESSAGE(message_id=7500*)
    → "Take Firewater Circle, for instance. I heard that during the Crystal War, there used to be a giant tower right where the fountain is. Now wouldn't that be a sight to see?"
  9: 0x0042 [0x23] WAIT_FOR_DIALOG_INTERACTION
 10: 0x0043 [0x1E] EventEntity looks at LocalPlayer and starts talking
 11: 0x0048 [0x1C] WAIT(30* ticks)
 12: 0x004B [0x5B] LOAD_EXT_SCHEDULER: Load scheduler "tlk0" with entities [EventEntity, EventEntity], work=5*
 13: 0x005A [0x1D] PRINT_EVENT_MESSAGE(message_id=7501*)
    → "<Sigh>... Why can't there be a new war, or something? Then, I could quit this dead-end job and enlist in the Republican Legion!"
 14: 0x005D [0x23] WAIT_FOR_DIALOG_INTERACTION
 15: 0x005E [0x1D] PRINT_EVENT_MESSAGE(message_id=7502*)
    → "With my brains, I'd be a commander in no time! Just don't ask me to go to the front lines... I have this thing about dying..."
 16: 0x0061 [0x23] WAIT_FOR_DIALOG_INTERACTION
 17: 0x0062 [0x21] END_EVENT
 18: 0x0063 [0x00] END_REQSTACK()
```

### Event 222

#### Metadata

| Field        | Value    |
|--------------|----------|
| Entrypoint   | 0x0064   |
| Data Size    | 57 bytes |
| Instructions | 17       |

```
      00 01 02 03 04 05 06 07  08 09 0A 0B 0C 0D 0E 0F
      -- -- -- -- -- -- -- --  -- -- -- -- -- -- -- --
0060:             03 08 10 14  80 03 09 10 15 80 1E F0      ............
0070: FF FF 7F 1D 16 80 23 5B  11 80 F8 FF FF 7F F8 FF  ......#[........
0080: FF 7F 74 6C 6B 30 1D 17  80 23 1D 18 80 23 1D 19  ..tlk0...#...#..
0090: 80 23 5E 69 64 6C 30 1D  1A 80 23 21 00           .#^idl0...#!.   
```

#### Opcodes

```
  0: 0x0064 [0x03] Work_Zone[8] = 4372*
  1: 0x0069 [0x03] Work_Zone[9] = 4395*
  2: 0x006E [0x1E] EventEntity looks at LocalPlayer and starts talking
  3: 0x0073 [0x1D] PRINT_EVENT_MESSAGE(message_id=7503*)
    → "Hungry Wolf told you about $7? Yeah, he's a real gourmand, that one. Much like myself."
  4: 0x0076 [0x23] WAIT_FOR_DIALOG_INTERACTION
  5: 0x0077 [0x5B] LOAD_EXT_SCHEDULER: Load scheduler "tlk0" with entities [EventEntity, EventEntity], work=5*
  6: 0x0086 [0x1D] PRINT_EVENT_MESSAGE(message_id=7504*)
    → "It's really hard to make, and takes years of practice to perfect it and all that, but if you get this one special ingredient, even you can make one. Wanna know what that special ingredient is?"
  7: 0x0089 [0x23] WAIT_FOR_DIALOG_INTERACTION
  8: 0x008A [0x1D] PRINT_EVENT_MESSAGE(message_id=7505*)
    → "It's Goblins. No, not the Goblins themselves, silly. They make this campfire up in the mountains that's got these special properties, see? All you have to do is stick $6 in it for just a little while..."
  9: 0x008D [0x23] WAIT_FOR_DIALOG_INTERACTION
 10: 0x008E [0x1D] PRINT_EVENT_MESSAGE(message_id=7506*)
    → "And presto! You get $7! It's as simple as that. Getting up there's not easy, but that shouldn't be a problem for an adventurer like you."
 11: 0x0091 [0x23] WAIT_FOR_DIALOG_INTERACTION
 12: 0x0092 [0x5E] EventEntity goes idle (kills current action) (animation: "idl0")
 13: 0x0097 [0x1D] PRINT_EVENT_MESSAGE(message_id=7507*)
    → "An adventuring friend of mine brought one back to me once, and mmm-mmm! Boy, was it delicious!!!"
 14: 0x009A [0x23] WAIT_FOR_DIALOG_INTERACTION
 15: 0x009B [0x21] END_EVENT
 16: 0x009C [0x00] END_REQSTACK()
```

### Event 475

#### Metadata

| Field        | Value   |
|--------------|---------|
| Entrypoint   | 0x009D  |
| Data Size    | 1 bytes |
| Instructions | 1       |

```
      00 01 02 03 04 05 06 07  08 09 0A 0B 0C 0D 0E 0F
      -- -- -- -- -- -- -- --  -- -- -- -- -- -- -- --
0090:                                         00                     .  
```

#### Opcodes

```
  0: 0x009D [0x00] END_REQSTACK()
```

### Event 476

#### Metadata

| Field        | Value    |
|--------------|----------|
| Entrypoint   | 0x009E   |
| Data Size    | 29 bytes |
| Instructions | 7        |

```
      00 01 02 03 04 05 06 07  08 09 0A 0B 0C 0D 0E 0F
      -- -- -- -- -- -- -- --  -- -- -- -- -- -- -- --
0090:                                            1E F0                ..
00A0: FF FF 7F 1C 0C 80 5B 11  80 F8 FF FF 7F F8 FF FF  ......[.........
00B0: 7F 74 6C 6B 30 1D 1B 80  23 21 00                 .tlk0...#!.     
```

#### Opcodes

```
  0: 0x009E [0x1E] EventEntity looks at LocalPlayer and starts talking
  1: 0x00A3 [0x1C] WAIT(30* ticks)
  2: 0x00A6 [0x5B] LOAD_EXT_SCHEDULER: Load scheduler "tlk0" with entities [EventEntity, EventEntity], work=5*
  3: 0x00B5 [0x1D] PRINT_EVENT_MESSAGE(message_id=12392*)
    → "I was devastated when I found our time capsule. Battered and empty... Those goblins are the scourge of this world!"
  4: 0x00B8 [0x23] WAIT_FOR_DIALOG_INTERACTION
  5: 0x00B9 [0x21] END_EVENT
  6: 0x00BA [0x00] END_REQSTACK()
```

### Event 477

#### Metadata

| Field        | Value   |
|--------------|---------|
| Entrypoint   | 0x00BB  |
| Data Size    | 1 bytes |
| Instructions | 1       |

```
      00 01 02 03 04 05 06 07  08 09 0A 0B 0C 0D 0E 0F
      -- -- -- -- -- -- -- --  -- -- -- -- -- -- -- --
00B0:                                   00                         .    
```

#### Opcodes

```
  0: 0x00BB [0x00] END_REQSTACK()
```

### Event 478

#### Metadata

| Field        | Value    |
|--------------|----------|
| Entrypoint   | 0x00BC   |
| Data Size    | 29 bytes |
| Instructions | 7        |

```
      00 01 02 03 04 05 06 07  08 09 0A 0B 0C 0D 0E 0F
      -- -- -- -- -- -- -- --  -- -- -- -- -- -- -- --
00B0:                                      1E F0 FF FF              ....
00C0: 7F 1C 0C 80 5B 11 80 F8  FF FF 7F F8 FF FF 7F 74  ....[..........t
00D0: 6C 6B 30 1D 1C 80 23 21  00                       lk0...#!.       
```

#### Opcodes

```
  0: 0x00BC [0x1E] EventEntity looks at LocalPlayer and starts talking
  1: 0x00C1 [0x1C] WAIT(30* ticks)
  2: 0x00C4 [0x5B] LOAD_EXT_SCHEDULER: Load scheduler "tlk0" with entities [EventEntity, EventEntity], work=5*
  3: 0x00D3 [0x1D] PRINT_EVENT_MESSAGE(message_id=12393*)
    → "A while back I went to dig up our letters but realized I had totally forgotten where they were buried. After that I totally lost the will to work..."
  4: 0x00D6 [0x23] WAIT_FOR_DIALOG_INTERACTION
  5: 0x00D7 [0x21] END_EVENT
  6: 0x00D8 [0x00] END_REQSTACK()
```

### Event 479

#### Metadata

| Field        | Value   |
|--------------|---------|
| Entrypoint   | 0x00D9  |
| Data Size    | 1 bytes |
| Instructions | 1       |

```
      00 01 02 03 04 05 06 07  08 09 0A 0B 0C 0D 0E 0F
      -- -- -- -- -- -- -- --  -- -- -- -- -- -- -- --
00D0:                             00                             .      
```

#### Opcodes

```
  0: 0x00D9 [0x00] END_REQSTACK()
```

### Event 480

#### Metadata

| Field        | Value    |
|--------------|----------|
| Entrypoint   | 0x00DA   |
| Data Size    | 34 bytes |
| Instructions | 8        |

```
      00 01 02 03 04 05 06 07  08 09 0A 0B 0C 0D 0E 0F
      -- -- -- -- -- -- -- --  -- -- -- -- -- -- -- --
00D0:                                1E F0 FF FF 7F 1C            ......
00E0: 0C 80 5B 11 80 F8 FF FF  7F F8 FF FF 7F 74 6C 6B  ..[..........tlk
00F0: 30 03 02 10 1D 80 1D 1E  80 23 21 00              0........#!.    
```

#### Opcodes

```
  0: 0x00DA [0x1E] EventEntity looks at LocalPlayer and starts talking
  1: 0x00DF [0x1C] WAIT(30* ticks)
  2: 0x00E2 [0x5B] LOAD_EXT_SCHEDULER: Load scheduler "tlk0" with entities [EventEntity, EventEntity], work=5*
  3: 0x00F1 [0x03] Work_Zone[2] = 900*
  4: 0x00F6 [0x1D] PRINT_EVENT_MESSAGE(message_id=12396*)
    → "If only we had put $0 in the capsule as well. Maybe that would have diverted their attention away from the letters..."
  5: 0x00F9 [0x23] WAIT_FOR_DIALOG_INTERACTION
  6: 0x00FA [0x21] END_EVENT
  7: 0x00FB [0x00] END_REQSTACK()
```

### Event 481

#### Metadata

| Field        | Value   |
|--------------|---------|
| Entrypoint   | 0x00FC  |
| Data Size    | 1 bytes |
| Instructions | 1       |

```
      00 01 02 03 04 05 06 07  08 09 0A 0B 0C 0D 0E 0F
      -- -- -- -- -- -- -- --  -- -- -- -- -- -- -- --
00F0:                                      00                       .   
```

#### Opcodes

```
  0: 0x00FC [0x00] END_REQSTACK()
```

### Event 482

#### Metadata

| Field        | Value    |
|--------------|----------|
| Entrypoint   | 0x00FD   |
| Data Size    | 29 bytes |
| Instructions | 7        |

```
      00 01 02 03 04 05 06 07  08 09 0A 0B 0C 0D 0E 0F
      -- -- -- -- -- -- -- --  -- -- -- -- -- -- -- --
00F0:                                         1E F0 FF               ...
0100: FF 7F 1C 0C 80 5B 11 80  F8 FF FF 7F F8 FF FF 7F  .....[..........
0110: 74 6C 6B 30 1D 1F 80 23  21 00                    tlk0...#!.      
```

#### Opcodes

```
  0: 0x00FD [0x1E] EventEntity looks at LocalPlayer and starts talking
  1: 0x0102 [0x1C] WAIT(30* ticks)
  2: 0x0105 [0x5B] LOAD_EXT_SCHEDULER: Load scheduler "tlk0" with entities [EventEntity, EventEntity], work=5*
  3: 0x0114 [0x1D] PRINT_EVENT_MESSAGE(message_id=12400*)
    → "A false-bottom box... That would have worked. Why do I always think of these things after the fact?"
  4: 0x0117 [0x23] WAIT_FOR_DIALOG_INTERACTION
  5: 0x0118 [0x21] END_EVENT
  6: 0x0119 [0x00] END_REQSTACK()
```

### Event 483

#### Metadata

| Field        | Value   |
|--------------|---------|
| Entrypoint   | 0x011A  |
| Data Size    | 1 bytes |
| Instructions | 1       |

```
      00 01 02 03 04 05 06 07  08 09 0A 0B 0C 0D 0E 0F
      -- -- -- -- -- -- -- --  -- -- -- -- -- -- -- --
0110:                                00                           .     
```

#### Opcodes

```
  0: 0x011A [0x00] END_REQSTACK()
```

### Event 65535.2

#### Metadata

| Field        | Value    |
|--------------|----------|
| Entrypoint   | 0x011B   |
| Data Size    | 14 bytes |
| Instructions | 4        |

```
      00 01 02 03 04 05 06 07  08 09 0A 0B 0C 0D 0E 0F
      -- -- -- -- -- -- -- --  -- -- -- -- -- -- -- --
0110:                                   32 04 80 1F 00             2....
0120: 20 80 21 80 22 80 1F 01  00                        .!."....       
```

#### Opcodes

```
  0: 0x011B [0x32] ExtData[1]->MainSpeed = 13* * 0.1
  1: 0x011E [0x1F] MOVE_ENTITY: EventEntity moves to X=-280.580*, Z=-139.184*, Y=-15.948*
  2: 0x0126 [0x1F] MOVE_ENTITY: Update entity position (mode=1)
  3: 0x0128 [0x00] END_REQSTACK()
```

### Event 484

#### Metadata

| Field        | Value    |
|--------------|----------|
| Entrypoint   | 0x0129   |
| Data Size    | 29 bytes |
| Instructions | 7        |

```
      00 01 02 03 04 05 06 07  08 09 0A 0B 0C 0D 0E 0F
      -- -- -- -- -- -- -- --  -- -- -- -- -- -- -- --
0120:                             1E F0 FF FF 7F 1C 0C           .......
0130: 80 5B 11 80 F8 FF FF 7F  F8 FF FF 7F 74 6C 6B 30  .[..........tlk0
0140: 1D 23 80 23 21 00                                 .#.#!.          
```

#### Opcodes

```
  0: 0x0129 [0x1E] EventEntity looks at LocalPlayer and starts talking
  1: 0x012E [0x1C] WAIT(30* ticks)
  2: 0x0131 [0x5B] LOAD_EXT_SCHEDULER: Load scheduler "tlk0" with entities [EventEntity, EventEntity], work=5*
  3: 0x0140 [0x1D] PRINT_EVENT_MESSAGE(message_id=12409*)
    → "Well, that's all going to change from now on! M-my not changing, that is..."
  4: 0x0143 [0x23] WAIT_FOR_DIALOG_INTERACTION
  5: 0x0144 [0x21] END_EVENT
  6: 0x0145 [0x00] END_REQSTACK()
```

### Event 485

#### Metadata

| Field        | Value   |
|--------------|---------|
| Entrypoint   | 0x0146  |
| Data Size    | 1 bytes |
| Instructions | 1       |

```
      00 01 02 03 04 05 06 07  08 09 0A 0B 0C 0D 0E 0F
      -- -- -- -- -- -- -- --  -- -- -- -- -- -- -- --
0140:                   00                                    .         
```

#### Opcodes

```
  0: 0x0146 [0x00] END_REQSTACK()
```

### Event 486

#### Metadata

| Field        | Value    |
|--------------|----------|
| Entrypoint   | 0x0147   |
| Data Size    | 38 bytes |
| Instructions | 10       |

```
      00 01 02 03 04 05 06 07  08 09 0A 0B 0C 0D 0E 0F
      -- -- -- -- -- -- -- --  -- -- -- -- -- -- -- --
0140:                      1E  F0 FF FF 7F 1C 0C 80 5B         ........[
0150: 11 80 F8 FF FF 7F F8 FF  FF 7F 74 6C 6B 30 1D 24  ..........tlk0.$
0160: 80 23 03 02 10 25 80 1D  26 80 23 21 00           .#...%..&.#!.   
```

#### Opcodes

```
  0: 0x0147 [0x1E] EventEntity looks at LocalPlayer and starts talking
  1: 0x014C [0x1C] WAIT(30* ticks)
  2: 0x014F [0x5B] LOAD_EXT_SCHEDULER: Load scheduler "tlk0" with entities [EventEntity, EventEntity], work=5*
  3: 0x015E [0x1D] PRINT_EVENT_MESSAGE(message_id=12414*)
    → "The time capsule? Oh, yes--I already made sure that everyone got their letter."
  4: 0x0161 [0x23] WAIT_FOR_DIALOG_INTERACTION
  5: 0x0162 [0x03] Work_Zone[2] = 5675*
  6: 0x0167 [0x1D] PRINT_EVENT_MESSAGE(message_id=12415*)
    → "I wonder where my letter got to... To be honest, I couldn't care less. Who needs dreams when you have $0 as scrumptious as this! Mmm-mmm!"
  7: 0x016A [0x23] WAIT_FOR_DIALOG_INTERACTION
  8: 0x016B [0x21] END_EVENT
  9: 0x016C [0x00] END_REQSTACK()
```
