# 17739941 - Synergy Engineer

## Common Data

| Field            | Value                    |
|------------------|--------------------------|
| Zone             | Bastok Markets (ID: 235) |
| Block Size       | 7992 bytes               |
| Total Events     | 3                        |
| References Count | 234                      |

## List of Events

| Event ID              | Entrypoint   |   Size |   Instructions |
|-----------------------|--------------|--------|----------------|
| [65535](#event-65535) | 0x0000       |      1 |              1 |
| [11002](#event-11002) | 0x0001       |   7019 |           1489 |
| [22](#event-22)       | 0x1B6C       |      7 |              2 |

## DAT References (imed_data)

|   Index | Hex Value   |   Dec Value |
|---------|-------------|-------------|
|       0 | 0x0000      |           0 |
|       1 | 0x0001      |           1 |
|       2 | 0x0004      |           4 |
|       3 | 0x3227      |       12839 |
|       4 | 0x04D2      |        1234 |
|       5 | 0x3228      |       12840 |
|       6 | 0x3229      |       12841 |
|       7 | 0x0003      |           3 |
|       8 | 0x322A      |       12842 |
|       9 | 0x322B      |       12843 |
|      10 | 0x322C      |       12844 |
|      11 | 0x322D      |       12845 |
|      12 | 0x322E      |       12846 |
|      13 | 0x322F      |       12847 |
|      14 | 0x3230      |       12848 |
|      15 | 0x3231      |       12849 |
|      16 | 0x3232      |       12850 |
|      17 | 0x3233      |       12851 |
|      18 | 0x3234      |       12852 |
|      19 | 0x0002      |           2 |
|      20 | 0x3235      |       12853 |
|      21 | 0x0064      |         100 |
|      22 | 0x3236      |       12854 |
|      23 | 0x31A2      |       12706 |
|      24 | 0x000C      |          12 |
|      25 | 0x3237      |       12855 |
|      26 | 0x3238      |       12856 |
|      27 | 0x000D      |          13 |
|      28 | 0x31A4      |       12708 |
|      29 | 0x3181      |       12673 |
|      30 | 0x3184      |       12676 |
|      31 | 0x3185      |       12677 |
|      32 | 0x0007      |           7 |
|      33 | 0x0008      |           8 |
|      34 | 0x000B      |          11 |
|      35 | 0x3186      |       12678 |
|      36 | 0x000F      |          15 |
|      37 | 0x0010      |          16 |
|      38 | 0x0017      |          23 |
|      39 | 0x0018      |          24 |
|      40 | 0x001F      |          31 |
|      41 | 0x3187      |       12679 |
|      42 | 0x000A      |          10 |
|      43 | 0x0009      |           9 |
|      44 | 0x3188      |       12680 |
|      45 | 0x3189      |       12681 |
|      46 | 0x318A      |       12682 |
|      47 | 0x318B      |       12683 |
|      48 | 0x318C      |       12684 |
|      49 | 0x001B      |          27 |
|      50 | 0x0006      |           6 |
|      51 | 0x0005      |           5 |
|      52 | 0x318D      |       12685 |
|      53 | 0x318E      |       12686 |
|      54 | 0x318F      |       12687 |
|      55 | 0x3190      |       12688 |
|      56 | 0x3191      |       12689 |
|      57 | 0x3192      |       12690 |
|      58 | 0x3193      |       12691 |
|      59 | 0x3194      |       12692 |
|      60 | 0x3195      |       12693 |
|      61 | 0x3196      |       12694 |
|      62 | 0x3197      |       12695 |
|      63 | 0x3198      |       12696 |
|      64 | 0x3199      |       12697 |
|      65 | 0x319A      |       12698 |
|      66 | 0x319B      |       12699 |
|      67 | 0x000E      |          14 |
|      68 | 0x0014      |          20 |
|      69 | 0x0015      |          21 |
|      70 | 0x319C      |       12700 |
|      71 | 0x0318      |         792 |
|      72 | 0x319D      |       12701 |
|      73 | 0x319E      |       12702 |
|      74 | 0x31A9      |       12713 |
|      75 | 0x319F      |       12703 |
|      76 | 0x31A1      |       12705 |
|      77 | 0x31A5      |       12709 |
|      78 | 0x00C8      |         200 |
|      79 | 0x31A6      |       12710 |
|      80 | 0x31A3      |       12707 |
|      81 | 0x31A0      |       12704 |
|      82 | 0x31AA      |       12714 |
|      83 | 0x0AF3      |        2803 |
|      84 | 0x01F4      |         500 |
|      85 | 0x09C4      |        2500 |
|      86 | 0x1194      |        4500 |
|      87 | 0x31AB      |       12715 |
|      88 | 0x31AC      |       12716 |
|      89 | 0x31C0      |       12736 |
|      90 | 0x31AD      |       12717 |
|      91 | 0x0013      |          19 |
|      92 | 0x31AF      |       12719 |
|      93 | 0x31B0      |       12720 |
|      94 | 0x31B1      |       12721 |
|      95 | 0x31B3      |       12723 |
|      96 | 0x31B4      |       12724 |
|      97 | 0x31B5      |       12725 |
|      98 | 0x31B6      |       12726 |
|      99 | 0x31B7      |       12727 |
|     100 | 0x31B8      |       12728 |
|     101 | 0x31B9      |       12729 |
|     102 | 0x31B2      |       12722 |
|     103 | 0x31AE      |       12718 |
|     104 | 0x31BB      |       12731 |
|     105 | 0x0AF4      |        2804 |
|     106 | 0x0019      |          25 |
|     107 | 0x0AF5      |        2805 |
|     108 | 0x0032      |          50 |
|     109 | 0x0AF6      |        2806 |
|     110 | 0x004B      |          75 |
|     111 | 0x0AF7      |        2807 |
|     112 | 0x0AF0      |        2800 |
|     113 | 0x0AD0      |        2768 |
|     114 | 0x03E8      |        1000 |
|     115 | 0x31BC      |       12732 |
|     116 | 0x012C      |         300 |
|     117 | 0x31BD      |       12733 |
|     118 | 0x31BE      |       12734 |
|     119 | 0x31BF      |       12735 |
|     120 | 0x31C2      |       12738 |
|     121 | 0x31C3      |       12739 |
|     122 | 0x3239      |       12857 |
|     123 | 0x31C5      |       12741 |
|     124 | 0x31C6      |       12742 |
|     125 | 0x31C7      |       12743 |
|     126 | 0x31C8      |       12744 |
|     127 | 0x31C9      |       12745 |
|     128 | 0x31CA      |       12746 |
|     129 | 0x31CB      |       12747 |
|     130 | 0x31CC      |       12748 |
|     131 | 0x31CD      |       12749 |
|     132 | 0x31CE      |       12750 |
|     133 | 0x31CF      |       12751 |
|     134 | 0x31D0      |       12752 |
|     135 | 0x31D1      |       12753 |
|     136 | 0x31D2      |       12754 |
|     137 | 0x31D3      |       12755 |
|     138 | 0x31D4      |       12756 |
|     139 | 0x31D5      |       12757 |
|     140 | 0x0ADF      |        2783 |
|     141 | 0x31D6      |       12758 |
|     142 | 0x31D7      |       12759 |
|     143 | 0x31D8      |       12760 |
|     144 | 0x31D9      |       12761 |
|     145 | 0x31DA      |       12762 |
|     146 | 0x31DB      |       12763 |
|     147 | 0x31DC      |       12764 |
|     148 | 0x31DD      |       12765 |
|     149 | 0x31DE      |       12766 |
|     150 | 0x31DF      |       12767 |
|     151 | 0x31E0      |       12768 |
|     152 | 0x31E1      |       12769 |
|     153 | 0x31E2      |       12770 |
|     154 | 0x31E3      |       12771 |
|     155 | 0x31E4      |       12772 |
|     156 | 0x31E5      |       12773 |
|     157 | 0x31E6      |       12774 |
|     158 | 0x31E7      |       12775 |
|     159 | 0x31E8      |       12776 |
|     160 | 0x31E9      |       12777 |
|     161 | 0x31EA      |       12778 |
|     162 | 0x31EB      |       12779 |
|     163 | 0x31EC      |       12780 |
|     164 | 0x31ED      |       12781 |
|     165 | 0x31EE      |       12782 |
|     166 | 0x31EF      |       12783 |
|     167 | 0x31F0      |       12784 |
|     168 | 0x31F1      |       12785 |
|     169 | 0x31F2      |       12786 |
|     170 | 0x31F3      |       12787 |
|     171 | 0x31F4      |       12788 |
|     172 | 0x31F5      |       12789 |
|     173 | 0x31F6      |       12790 |
|     174 | 0x31F7      |       12791 |
|     175 | 0x31F8      |       12792 |
|     176 | 0x31F9      |       12793 |
|     177 | 0x31FA      |       12794 |
|     178 | 0x31FB      |       12795 |
|     179 | 0x31FC      |       12796 |
|     180 | 0x31FD      |       12797 |
|     181 | 0x31FE      |       12798 |
|     182 | 0x31FF      |       12799 |
|     183 | 0x3200      |       12800 |
|     184 | 0x3201      |       12801 |
|     185 | 0x3202      |       12802 |
|     186 | 0x3203      |       12803 |
|     187 | 0x3204      |       12804 |
|     188 | 0x3205      |       12805 |
|     189 | 0x3206      |       12806 |
|     190 | 0x3207      |       12807 |
|     191 | 0x3208      |       12808 |
|     192 | 0x3209      |       12809 |
|     193 | 0x320A      |       12810 |
|     194 | 0x320B      |       12811 |
|     195 | 0x320C      |       12812 |
|     196 | 0x320D      |       12813 |
|     197 | 0x320E      |       12814 |
|     198 | 0x320F      |       12815 |
|     199 | 0x3210      |       12816 |
|     200 | 0x3211      |       12817 |
|     201 | 0x3212      |       12818 |
|     202 | 0x3213      |       12819 |
|     203 | 0x3214      |       12820 |
|     204 | 0x3215      |       12821 |
|     205 | 0x3216      |       12822 |
|     206 | 0x3217      |       12823 |
|     207 | 0x73F1      |       29681 |
|     208 | 0x73F2      |       29682 |
|     209 | 0x73F3      |       29683 |
|     210 | 0x73F4      |       29684 |
|     211 | 0x73F5      |       29685 |
|     212 | 0x73F6      |       29686 |
|     213 | 0x73F7      |       29687 |
|     214 | 0x73F8      |       29688 |
|     215 | 0x73F9      |       29689 |
|     216 | 0x73FA      |       29690 |
|     217 | 0x73FB      |       29691 |
|     218 | 0x73FC      |       29692 |
|     219 | 0x73FD      |       29693 |
|     220 | 0x73FE      |       29694 |
|     221 | 0x73FF      |       29695 |
|     222 | 0x3218      |       12824 |
|     223 | 0x0011      |          17 |
|     224 | 0x0016      |          22 |
|     225 | 0x001A      |          26 |
|     226 | 0x321D      |       12829 |
|     227 | 0x321E      |       12830 |
|     228 | 0x3220      |       12832 |
|     229 | 0x321F      |       12831 |
|     230 | 0x3219      |       12825 |
|     231 | 0x321A      |       12826 |
|     232 | 0x321B      |       12827 |
|     233 | 0x321C      |       12828 |

## String References

- **12673**: Greetings, friend! I am a synergy engineer, dispatched from the Institute to maintain the furnaces you see beside me. I also have knowledge and services to share with fellow synergists, if that is what you desire.
- **12676**: May I be of service? [Not now./Learn recipes./Check fewell./Replenish fewell./Purchase materials./Receive training./Trade cinder./Get information.]
- **12677**: Recipes, you say? Let's see what we have that's suitable for your level of expertise...
- **12678**: ...I'm sorry. I'm afraid there's nothing I can teach you at the moment.
- **12679**: I've got it! How about $0? Mind you, it'll require a certain level of skill...
- **12680**: Synergy skill: [Amateur/Recruit/Initiate/Novice/Apprentice/Journeyman/Craftsman/Artisan/Adept/Veteran].
- **12681**: [Fishing/Woodworking/Smithing/Goldsmithing/Clothcraft/Leathercraft/Bonecraft/Alchemy/Cooking/Fishing] skill: [Amateur/Recruit/Initiate/Novice/Apprentice/Journeyman/Craftsman/Artisan/Adept/Veteran/Expert].
- **12682**: [Fishing/Woodworking/Smithing/Goldsmithing/Clothcraft/Leathercraft/Bonecraft/Alchemy/Cooking/Fishing] skill: [Amateur/Recruit/Initiate/Novice/Apprentice/Journeyman/Craftsman/Artisan/Adept/Veteran/Expert]. [Fishing/Woodworking/Smithing/Goldsmithing/Clothcraft/Leathercraft/Bonecraft/Alchemy/Cooking/Fishing] skill: [Amateur/Recruit/Initiate/Novice/Apprentice/Journeyman/Craftsman/Artisan/Adept/Veteran/Expert].
- **12683**: [Fishing/Woodworking/Smithing/Goldsmithing/Clothcraft/Leathercraft/Bonecraft/Alchemy/Cooking/Fishing] skill: [Amateur/Recruit/Initiate/Novice/Apprentice/Journeyman/Craftsman/Artisan/Adept/Veteran/Expert]. [Fishing/Woodworking/Smithing/Goldsmithing/Clothcraft/Leathercraft/Bonecraft/Alchemy/Cooking/Fishing] skill: [Amateur/Recruit/Initiate/Novice/Apprentice/Journeyman/Craftsman/Artisan/Adept/Veteran/Expert]. [Fishing/Woodworking/Smithing/Goldsmithing/Clothcraft/Leathercraft/Bonecraft/Alchemy/Cooking/Fishing] skill: [Amateur/Recruit/Initiate/Novice/Apprentice/Journeyman/Craftsman/Artisan/Adept/Veteran/Expert].
- **12684**: [Fishing/Woodworking/Smithing/Goldsmithing/Clothcraft/Leathercraft/Bonecraft/Alchemy/Cooking/Fishing] skill: [Amateur/Recruit/Initiate/Novice/Apprentice/Journeyman/Craftsman/Artisan/Adept/Veteran/Expert]. [Fishing/Woodworking/Smithing/Goldsmithing/Clothcraft/Leathercraft/Bonecraft/Alchemy/Cooking/Fishing] skill: [Amateur/Recruit/Initiate/Novice/Apprentice/Journeyman/Craftsman/Artisan/Adept/Veteran/Expert]. [Fishing/Woodworking/Smithing/Goldsmithing/Clothcraft/Leathercraft/Bonecraft/Alchemy/Cooking/Fishing] skill: [Amateur/Recruit/Initiate/Novice/Apprentice/Journeyman/Craftsman/Artisan/Adept/Veteran/Expert]. [Fishing/Woodworking/Smithing/Goldsmithing/Clothcraft/Leathercraft/Bonecraft/Alchemy/Cooking/Fishing] skill: [Amateur/Recruit/Initiate/Novice/Apprentice/Journeyman/Craftsman/Artisan/Adept/Veteran/Expert].
- **12685**: As for materials, you'll be needing...
- **12686**: $1 $0 .
- **12687**: $1 $0 . $3 $0 .
- **12688**: $1 $0 . $3 $0 . $5 $0$4 .
- **12689**: $1 $0 . $3 $0 . $5 $0$4 . $7 $0$6 .
- **12690**: And the required elemental balance is: [/oo /o!/o"/o#/o$/o%/o&]$1.
- **12691**: And the required elemental balance is: [/oo /o!/o"/o#/o$/o%/o&]$1 [/oo /o!/o"/o#/o$/o%/o&]$3.
- **12692**: And the required elemental balance is: [/oo /o!/o"/o#/o$/o%/o&]$1 [/oo /o!/o"/o#/o$/o%/o&]$3 [/oo /o!/o"/o#/o$/o%/o&]$5.
- **12693**: And the required elemental balance is: [/oo /o!/o"/o#/o$/o%/o&]$1 [/oo /o!/o"/o#/o$/o%/o&]$3 [/oo /o!/o"/o#/o$/o%/o&]$5 [/oo /o!/o"/o#/o$/o%/o&]$7.
- **12694**: And the required elemental balance is: [/oo /o!/o"/o#/o$/o%/o&]$1 [/oo /o!/o"/o#/o$/o%/o&]$3 [/oo /o!/o"/o#/o$/o%/o&]$5 [/oo /o!/o"/o#/o$/o%/o&]$7 [/oo /o!/o"/o#/o$/o%/o&]$9.
- **12695**: And the required elemental balance is: [/oo /o!/o"/o#/o$/o%/o&]$1 [/oo /o!/o"/o#/o$/o%/o&]$3 [/oo /o!/o"/o#/o$/o%/o&]$5 [/oo /o!/o"/o#/o$/o%/o&]$7 [/oo /o!/o"/o#/o$/o%/o&]$9 [/oo /o!/o"/o#/o$/o%/o&]$11.
- **12696**: And the required elemental balance is: [/oo /o!/o"/o#/o$/o%/o&]$1 [/oo /o!/o"/o#/o$/o%/o&]$3 [/oo /o!/o"/o#/o$/o%/o&]$5 [/oo /o!/o"/o#/o$/o%/o&]$7 [/oo /o!/o"/o#/o$/o%/o&]$9 [/oo /o!/o"/o#/o$/o%/o&]$11 [/oo /o!/o"/o#/o$/o%/o&]$13.
- **12697**: And the required elemental balance is: [/oo /o!/o"/o#/o$/o%/o&]$1 [/oo /o!/o"/o#/o$/o%/o&]$3 [/oo /o!/o"/o#/o$/o%/o&]$5 [/oo /o!/o"/o#/o$/o%/o&]$7 [/oo /o!/o"/o#/o$/o%/o&]$9 [/oo /o!/o"/o#/o$/o%/o&]$11 [/oo /o!/o"/o#/o$/o%/o&]$13 [/oo /o!/o"/o#/o$/o%/o&]$15.
- **12698**: There you go. That doesn't sound so hard, now, does it?
- **12699**: But of course! If you'll just allow me to inspect your $3 for a moment...
- **12700**: Your fewell supply would appear to be as follows: o o $1 o!$2 o"$3 o#$4 o$$5 o%$6 o&$7.
- **12701**: Running low? We can fill you up for a nominal fee.
- **12702**: Replenish fewell? [Yes./No.]
- **12703**: Looking for a fewell fill-up, you say? Then you've come to the right place!
- **12704**: ...Hm? Why, your tank is already full to bursting. Come back again if you need a refill.
- **12705**: Now let's see here... According to my calculations, I can fill you up to capacity for $0 gil. How does that sound?
- **12706**: Pay $0 gil? [Deal!/No thanks.]
- **12707**: Understood. Take care to monitor your reserves closely, lest you run out of fewell in the midst of a crucial procedure.
- **12708**: I'm afraid you haven't the requisite gil, friend. Perhaps another time.
- **12709**: Excellent! Now we just pop open your $3 here, and...
- **12710**: There you go. Filled to the brim with a fresh batch of fewell! Can you smell those fumes? Mmm-mmm!
- **12713**: How do you expect me to do that when your $3 is sitting inside a furnace, friend? You'll have to come back after you've finished synergizing.
- **12714**: Materials, you say? But of course! Have a look at our selection.
- **12715**: Purchase something? [Not today./$1 $0 : $2 gil./$3 $0 : $4 gil./$5 $0 : $6 gil.]
- **12716**: For $1 $0 , that comes to $2 gil.
- **12717**: Ah, another dedicated synergist looking to refine [his/her] technique. Excellent! That motivation will serve you well.
- **12718**: ...But I'm afraid you'll need [/ever so slightly more/a bit more/more/a good deal more/considerably more] experience before you're ready to benefit from my training.
- **12719**: And yes, it would seem you're at just the right skill level to receive my training. So, what will it be? Which technique would you like to improve?
- **12720**: Train in which technique? [Cancel./Fewell feeding. (Current Lv.: $0)/Furnace thwacking. (Current Lv.: $1)/Pressure handle. (Current Lv.: $2)/Safety lever. (Current Lv.: $3)/Furnace repair. (Current Lv.: $4)/Fewell recycling. (Current Lv.: $5)]
- **12721**: You wish to improve your [/fewell feeding/furnace thwacking/pressure handle operation/safety lever operation/furnace repair/fewell recycling] technique. Is this correct?
- **12722**: It would seem your [/fewell feeding/furnace thwacking/pressure handle operation/safety lever operation/furnace repair/fewell recycling] technique already exceeds my own. There is no more I can teach you.
- **12723**: Train in this technique? [Yes./No.]
- **12724**: Very well! Now listen up, watch closely, and try to follow along...
- **12725**: ...See, you take this part here, and... Yes, yes...just like that...
- **12726**: ...Now steady here, or you'll be picking exploded furnace shrapnel out of your face for a week! Phew, that was a close one...
- **12727**: ...And by applying Corollary Five of Hildolf's Third Theory of Inverse Transfocal Equilibrium, we find that...
- **12728**: <Clink, clank...clunk> ...Er, let's try that once more...
- **12729**: ...Superb! A quick learner, I see. If only all my students were as attentive as you!
- **12731**: Research into the composition of the cinder produced as a side effect of synergy just might lead to the next breakthrough in our field. Provide us with samples for analysis, and we will gladly reward your contributions.
- **12732**: Trade in your cinder? (Currently: $0 Pz) [Not now./$1: $2 Pz./$3: $4 Pz./$5: $6 Pz./$7: $8 Pz./$9: $10 Pz./$11: $12 Pz./$13: $14 Pz./$15 gil: $16 Pz.]
- **12733**: This is what you want, correct?
- **12734**: Make the exchange? [Yes./No.]
- **12735**: It would appear that you lack the necessary quantity of cinder for that transaction.
- **12736**: Excellent! And this is yours. May it serve you well!
- **12738**: Ask about what? [Nothing./Synergy furnaces./Synergy overview./Synergy procedure./Synergy recipes./Fewell replenishment./Materials for sale./Synergy techniques./Trading cinder.]
- **12739**: The synergy furnaces you see around town are provided as a public service by the Bastokan Institute of Synergy Research, to ensure that no synergist is ever far away from the tools of their trade.
- **12741**: Needless to say, only one party may operate any given furnace at once.
- **12742**: Fortunately, there are multiple furnaces installed throughout town. If the furnace before you is already in use, please seek out an unused one elsewhere, or wait patiently for your turn.
- **12743**: You may think of synergy as an evolved form of synthesis. It is a discipline full of heretofore unimagined possibilities, but one which demands consummate skill from its practitioners.
- **12744**: Like synthesis, synergy involves combining materials according to a prescribed recipe to yield oft-spectacular results. The rub is that each synergy recipe also dictates a certain elemental balance that must be achieved for the procedure to be successful.
- **12745**: This balance is achieved through skillful infusion of combustible elemental crystals that we synergists call "fewell." To begin the synergy process, you'll have to feed the furnace with fewell and get those flames burning!
- **12746**: As a general rule, the more complex the recipe, the more fewell it will require. Take care to check your stock before you fire up the furnace, lest you find its flames guttering out at a crucial moment.
- **12747**: With the belly of the furnace roaring up a storm, it's time to toss in your materials and start synergizing! Keep a close eye on the balance of elements and deploy fewell as necessary. Approach the prescribed elemental balance, and your item will take form, allowing you to remove it from the furnace.
- **12748**: The closer you are to the ideal elemental balance, the higher the quality of your finished product will be. In synergy, it pays to be a perfectionist!
- **12749**: But be forewarned: these furnaces can only sustain the elemental maelstrom swirling and storming inside them for so long.
- **12750**: If the furnace's durability should fail, the synergy process will be interrupted, and you will be forced to start anew.
- **12751**: Take heart, though, as any materials inside your $3 will remain intact. You may retrieve them or attempt the synergy process again as you see fit.
- **12752**: Any fewell consumed in the failed synergy attempt, on the other hand, will be permanently lost.
- **12753**: Synergists must also be wary of debris buildup, an unavoidable side effect of the volatile elemental reactions that take place within the synergy furnace.
- **12754**: Should too much debris be allowed to accumulate, the contents of the furnace will become unstable, potentially leading to unpleasant explosions and eruptions. Such accidents pose considerable risk to the synergy attempt in progress, as well as the physical well-being of the synergist, so be sure to exercise due caution!
- **12755**: You may be asking yourself, "Why, how in the name of Hildolf am I going to oversee all of these complicated procedures and variables by myself?"
- **12756**: Here's the good news: you don't have to! For you see, synergy furnaces are designed for use by multiple operators.
- **12757**: The more complex the recipe, the greater level of skill and hands-on manipulation it will demand. At such times, it would be in your best interest to seek out like-minded synergists and take on the challenge together.
- **12758**: Finally, it would be remiss of me not to make mention of $0, the curious substance whose properties are only now--with the emergence of synergy--becoming known to us.
- **12759**: Though there is much yet to be learned, our research has revealed that $0 may be used to bolster your equipment, if attached in a proper manner.
- **12760**: Mind you, $0 is not easy to come by, and I can offer no clues as to where or how to obtain it. Should you be fortunate enough to come across some in your travels, however, I encourage you to explore its potential.
- **12761**: Synergy is not a discipline for the faint of heart or mind, but with dedication and cooperation, there are great rewards to be reaped. May your career as a synergist prove fruitful!
- **12762**: First, you'll be wanting to check your fewell supply. You may do so by speaking with a synergy engineer such as myself, or by examining a synergy furnace.
- **12763**: You'll be needing at least one unit of fewell for each element dictated by your recipe. Without this, even the most skilled synergist cannot hope to succeed.
- **12764**: Should your fewell supply be in order, it's time to proceed with the synergy. If you are using one of these public synergy furnaces here, you'll need to examine it and lay claim to its use.
- **12765**: You may then deposit your ingredients. Should they correspond to a proper recipe, the synergy furnace will fire up automatically. Note that as a safety precaution, the furnace will not activate if the recipe is beyond your level of synergy skill.
- **12766**: From here, it becomes a race against the clock! Through skilled operation of the synergy furnace, you must achieve the elemental balance prescribed by the recipe before the furnace's durability fails.
- **12767**: Fortunately, synergy furnaces are outfitted with a wide array of features designed to aid the synergist in this demanding task. First, you'll want to confirm the current balance of elements within the furnace and compare it to your desired result.
- **12768**: Next, you can begin to feed fewell into the furnace to gradually raise the level of elemental concentration. Feeding fewell into the furnace until the required elemental balance is achieved is the most fundamental operation of synergy.
- **12769**: However, high concentrations of elemental power can lead to volatile and unpredictable reactions. Simply adding fewell haphazardly without making the necessary adjustments is a recipe for only one thing, and that's disaster.
- **12770**: If you sense that the furnace is on the verge of elemental overload, you'll want to employ the safety lever and pressure handle to prevent an unfortunate accident from occurring.
- **12771**: You'll also want to mind the laws of elemental ascendancy and opposition. Increasing the concentration of a particular element will cause its counterpart to decrease.
- **12772**: The furnace cannot sustain its power indefinitely, and will gradually lose durability as the synergy process continues. You'll need to perform periodic furnace repair should the furnace near its breaking point.
- **12773**: It is also possible to recycle strewn fewell during synergy. While this will not impact the success or failure of the process itself, it will result in a greater amount of salvageable cinder produced as a by-product.
- **12774**: This cinder is of great interest to our researchers back at the institute. As such, we have introduced a reward system through which quality samples can be traded in for an assortment of synergy-related wares.
- **12775**: As marvelous an apparatus as the synergy furnace may be, keep in mind that the technology is still in its infancy, and highly unstable. There may be times when accidents occur despite the best efforts of the synergist.
- **12776**: For your safety, we recommend stepping as far away from the furnace as possible at the first sign of danger. Some synergists claim that giving the furnace a good thwack is also effective in preventing such accidents, but this is pure madness, if you ask me!
- **12777**: You will also find that there are numerous techniques that can be applied to make the synergy procedure go even more smoothly.
- **12778**: In many cases, expertise and knowledge acquired through crafting will serve you in synergy as well. To truly master synergy, one must master crafting as well.
- **12779**: Now let us return to the synergy process itself. As your elemental balance approaches that prescribed by the recipe, the furnace will signal you, and you may retrieve your finished product.
- **12780**: If the furnace is still holding strong at this time, you may choose to keep working to achieve an even closer balance. The closer you come to the ideal balance, the higher the quality of your finished product will be.
- **12781**: Indeed, many synergy masters consider these waning moments after the signal to be the time to really show off their skills! Why, if they manage to achieve an elemental surge...
- **12782**: What's an elemental surge, you ask? Why, it's a miraculous phenomenon that occurs rarely--ever so rarely--upon feeding the furnace fewell.
- **12783**: The elements react just in the right way, creating a miraculous reaction that brings the level of elemental concentration to exactly the desired level. Truly a boon from the Goddess for any synergist, no?
- **12784**: ...And that is the synergy process in a nutshell. There's quite a bit of information to take in, so don't hesitate to return any time for a refresher course.
- **12785**: Much like synthesis, to fashion items through synergy, you will need to follow a recipe. We synergy engineers are always unearthing new recipes, and are happy to share with you those suitable for your level of skill.
- **12786**: Unlike synthesis, however, a synergy recipe is more than just a list of ingredients. There is also a required elemental balance that must be attained to achieve your desired result.
- **12787**: Simple recipes involve only small doses of a limited number of elements, but more complex ones require the synergist to skillfully juggle wide ranges of elements in extremely high concentrations.
- **12788**: The ingredients, you will have to remember on your own. The required elemental balance, however, may be reviewed at any time during the synergy process by observing the readings on the synergy furnace.
- **12789**: In particular, recipes through which the curious substance known as $0 can be attached to equipment are creating quite a buzz among synergistically inclined adventurers these days.
- **12790**: # cannot be attached directly. First, equipment must be prepared by etching an aperture into which an elementally compatible piece of $0 can then be embedded.
- **12791**: The type of aperture that may be etched will depend on the piece of equipment. There are also pieces of equipment that, alas, may not be modified at all.
- **12792**: If you are curious what manner of aperture may be etched into a particular piece of equipment, you need only trade it to me or one of my colleagues.
- **12793**: As a general rule, the higher the level of the item in question, the more difficult the synergy process for creating an aperture will be.
- **12794**: You will find that certain pieces of equipment may be etched with multiple apertures. It is, however, only possible to create one aperture at a time.
- **12795**: Etching requires the use of a corrosive substance we call mordant. Deposit mordant into a synergy furnace along with your equipment, and the process will begin.
- **12796**: My colleagues and I have a stock of mordant available for sale. The best way to learn is to practice, so if you're curious, we encourage you to purchase some and begin experimenting!
- **12797**: The difficulty of the synergy process when embedding evolith is decided by a number of factors.
- **12798**: Such factors include the variety of aperture and evolith, as well as the quantity of evolith you seek to attach. Embedding the first piece is not too difficult a task, but the second and third pieces will not go in so easily.
- **12799**: To begin the embedding process, deposit your evolith into the synergy furnace along with a piece of equipment with a compatible aperture.
- **12800**: When etching or embedding, the required elemental balance may be confirmed at any time during the synergy process, so let this be your guide.
- **12801**: Should you ever wish to remove any apertures and embedded evolith from a piece of equipment entirely, you may do so with an ingredient we call revertant.
- **12802**: Toss the revertant in a synergy furnace along with your equipment, and its potent powers will restore your item to a pure and pristine state! Be warned, however, that embedded evolith will be lost forever in the process.
- **12803**: As you are no doubt already aware, synergy makes use of a highly combustible form of elemental crystals that we call "fewell." The more complex the recipe, the greater the quantity of fewell required.
- **12804**: Veteran synergists know well the hassle of having to constantly monitor their fewell supply and procure crystals to replenish depleted stock.
- **12805**: To free you of such trifling burdens and allow you to focus your mind entirely on your art, we synergy engineers are offering a convenient fewell replenishment service!
- **12806**: For a nominal fee calculated based upon the current state of your fewell reserves, we will instantly refill you to full capacity.
- **12807**: That's right--all elements in one simple transaction, directly to your $3! What could be easier?
- **12808**: Looking to fire up your furnace and enter the world of $0? If so, you've come to the right place!
- **12809**: We're proud to offer a supply of the corrosive agent known as mordant for sale. With this, synergy newcomers can hone their skills and outfit their equipment with evolith-capable apertures in the process.
- **12810**: Mind you, our stock is limited to only the most diluted, readily produced form of the stuff. You'll find that it only has the strength to etch items of relatively low level.
- **12811**: Etching high-powered equipment requires the use of more concentrated and potent forms of mordant. As quantities are limited, we can offer these only in exchange for cinder.
- **12812**: Ah, synergy techniques! Those handy tricks of the trade that can mean the difference between a shiny new item and a major furnace meltdown.
- **12813**: My colleagues and I are always eager to train fellow synergists in a wide range of techniques. We can't do it all, though--you'll need to hone your synergy skill in order to benefit from our instruction.
- **12814**: Bear in mind that certain techniques can only be imparted to students possessing specialized crafting knowledge. For example, only skilled smiths will be able to comprehend the method for more efficient fewell feeding.
- **12815**: Accomplished goldsmiths will be able to observe the inner workings of the furnace and stave off potential accidents. You will find that all crafting skills--even those you may not expect--may be applied in some way to support the synergy process.
- **12816**: Word has it that there are also pieces of equipment that can impart hidden synergy techniques to the wearer. These, too, are said to be only accessible to skilled crafters.
- **12817**: The moral of the story is this: while synergy skill is important, neglect not your other crafting skills. To become a true synergy master, finding the proper balance is key.
- **12818**: Synergy remains a young discipline, and researchers back at the institute are burning the midnight fewell in the hopes of uncovering the next breakthrough in our field.
- **12819**: Research of late is centered around the cinder that is left behind as a by-product of each synergy operation. Their composition, it would seem, has much to teach us of the true nature of the complex elemental reactions that go on within the bellies of these furnaces.
- **12820**: We've even instituted a reward program for adventurers willing to contribute prime samples in the name of science.
- **12821**: It would be no exaggeration to say that, to us, cinder is worth more than its weight in gold! Bring it to me or my colleagues--preferably in large quantities--and you're sure to be pleased at what we can offer you in return.
- **12822**: Wondering if your $0 can be outfitted with evolith, are you? Well, you've come to the right place!
- **12823**: A quick look at its composition should tell us all we need to know. Let's see here...
- **12824**: Congratulations! Your $0 can indeed hold [an/another] evolith aperture. A $2-shaped aperture, to be exact...
- **12825**: ...Suitable for evolith of the following size and elemental affinity: Maximum size: $1 / [/oo /o!/o"/o#/o$/o%/o&].
- **12826**: ...Suitable for evolith of the following sizes and elemental affinities: Maximum size: $1 / Affinity: [/oo /o!/o"/o#/o$/o%/o&]. Maximum size: $3 / Affinity: [/oo /o!/o"/o#/o$/o%/o&].
- **12827**: ...Suitable for evolith of the following sizes and elemental affinities: Maximum size: $1 / Affinity: [/oo /o!/o"/o#/o$/o%/o&]. Maximum size: $3 / Affinity: [/oo /o!/o"/o#/o$/o%/o&]. Maximum size: $5 / Affinity: [/oo /o!/o"/o#/o$/o%/o&].
- **12828**: ...Suitable for evolith of the following sizes and elemental affinities: Maximum size: $1 / Affinity: [/oo /o!/o"/o#/o$/o%/o&]. Maximum size: $3 / Affinity: [/oo /o!/o"/o#/o$/o%/o&]. Maximum size: $5 / Affinity: [/oo /o!/o"/o#/o$/o%/o&]. Maximum size: $7 / Affinity: [/oo /o!/o"/o#/o$/o%/o&].
- **12829**: That is all. Should you wish to have any other pieces of equipment analyzed, you know where to find us.
- **12830**: Hmm... I'm afraid your $0 cannot house any more apertures.
- **12831**: ...Alas. It's a shame, but it appears your $0 cannot be etched.
- **12832**: Hmm, what's this? It would seem that your $0 cannot be etched at this time.
- **12839**: Wait! No, don't tell me. You strike me as a [man/woman] who's looking to learn a thing or two about synergy.
- **12840**: Learn about synergy? [Not today./Teach me!/Just give me $6.]
- **12841**: A life without intellectual curiosity is a life hardly worth living. Should your eyes one day open to this truth, you are free to return.
- **12842**: I thought you'd never ask! Synergy is both an art and a science: an evolution--nay, a revolution--in synthesis.
- **12843**: Using $6 in conjunction with a synergy furnace--the apparatus you see beside me--the synergist wields the power of myriad elements to fabricate a veritable host of potent items.
- **12844**: What we call $6 serves to dispense fewell crystals--the lifeblood of the synergy process--whilst also protecting its contents from the volatile reactions that occur within the bowels of the furnace.
- **12845**: Synergy furnaces have been installed throughout the city for the use of all synergists. The crucible is sufficiently compact and lightweight that you can carry it with you.
- **12846**: Initiating the synergy process is as simple as inserting your $3 into a furnace and commencing the infusion of elemental fewell.
- **12847**: Needless to say, what will happen from there is not quite so simple.
- **12848**: Successful synergy is contingent upon maintaining elemental equilibrium. The prescribed ratio, of course, will vary depending on the artifact you are attempting to create.
- **12849**: You can increase the ratio of a particular element by burning the corresponding variety of fewell.
- **12850**: But herein lies the rub: synergy is a still young science, and the technology we employ remains, shall we say...unstable.
- **12851**: A bit too much fewell here, a wrong lever pulled there, and the percolating pot will explode, spitting scalding elemental guck every which way to Firesday.
- **12852**: That's why smart synergists synergize in numbers. Too many culinarians might spoil the broth, but when it comes to synergy, it's the more the merrier!
- **12853**: An aspiring synergist, I see! If you're looking for $6, you've certainly come to the right place.
- **12854**: I can sell you a splendid entry-level model for $0 gil. A small price to pay to embark on a lifelong journey of scientific discovery, wouldn't you say?
- **12855**: $0 gil, paid in full!
- **12856**: As promised, here's your $3. And because I like your enthusiasm, I've even stocked it to the brim with fewell for you! How's that for a deal?
- **12857**: The synergist must provide his or her own $3, as well as any materials to be used in the synergy process. Synergy furnaces themselves may be used free of charge.

## Events

### Event 65535

#### Metadata

| Field        | Value   |
|--------------|---------|
| Entrypoint   | 0x0000  |
| Data Size    | 1 bytes |
| Instructions | 1       |

```
      00 01 02 03 04 05 06 07  08 09 0A 0B 0C 0D 0E 0F
      -- -- -- -- -- -- -- --  -- -- -- -- -- -- -- --
0000: 00                                                .               
```

#### Opcodes

```
  0: 0x0000 [0x00] END_REQSTACK()
```

### Event 11002

#### Metadata

| Field        | Value      |
|--------------|------------|
| Entrypoint   | 0x0001     |
| Data Size    | 7019 bytes |
| Instructions | 1459       |

```
      00 01 02 03 04 05 06 07  08 09 0A 0B 0C 0D 0E 0F
      -- -- -- -- -- -- -- --  -- -- -- -- -- -- -- --
0000:    42 03 4F 00 00 80 03  01 00 02 10 03 02 00 03   B.O............
0010: 10 02 01 00 00 80 00 09  01 02 02 00 01 80 00 26  ...............&
0020: 00 03 4F 00 02 80 1D 03  80 23 03 02 10 04 80 24  ..O......#.....$
0030: 05 80 00 80 4F 00 25 02  00 10 00 80 00 4F 00 1D  ....O.%......O..
0040: 06 80 23 40 00 80 07 80  01 10 00 80 01 06 01 02  ..#@............
0050: 00 10 01 80 00 8E 00 1D  08 80 23 03 02 10 04 80  ..........#.....
0060: 1D 09 80 23 1D 0A 80 23  1D 0B 80 23 1D 0C 80 23  ...#...#...#...#
0070: 1D 0D 80 23 1D 0E 80 23  1D 0F 80 23 1D 10 80 23  ...#...#...#...#
0080: 1D 11 80 23 1D 12 80 23  01 2A 00 01 06 01 02 00  ...#...#.*......
0090: 10 13 80 00 06 01 03 02  10 04 80 1D 14 80 23 03  ..............#.
00A0: 02 10 15 80 1D 16 80 23  24 17 80 01 80 00 80 25  .......#$......%
00B0: 02 00 10 00 80 00 F5 00  40 00 80 07 80 01 10 18  ........@.......
00C0: 80 43 00 43 01 02 02 10  01 80 00 EB 00 03 02 10  .C.C............
00D0: 15 80 1D 19 80 23 03 02  10 04 80 1D 1A 80 23 40  .....#........#@
00E0: 00 80 07 80 01 10 1B 80  01 F2 00 1D 1C 80 23 01  ..............#.
00F0: 2A 00 01 03 01 02 00 10  01 80 00 03 01 01 2A 00  *.............*.
0100: 01 03 01 01 06 01 01 0C  16 02 02 00 00 80 00 E4  ................
0110: 12 1D 1D 80 23 05 03 00  02 03 00 00 80 02 E1 12  ....#...........
0120: 24 1E 80 00 80 00 80 25  02 00 10 00 80 00 3F 01  $......%......?.
0130: 06 03 00 40 00 80 07 80  01 10 00 80 01 DE 12 02  ...@............
0140: 00 10 01 80 00 22 09 2E  1D 1F 80 23 40 00 80 07  .....".....#@...
0150: 80 01 10 01 80 03 24 00  00 80 03 25 00 00 80 40  ......$....%...@
0160: 02 80 20 80 01 10 24 00  40 21 80 22 80 01 10 25  .. ...$.@!."...%
0170: 00 43 00 43 01 03 26 00  02 10 02 26 00 00 80 00  .C.C..&....&....
0180: 89 01 1D 23 80 23 01 1E  09 03 28 00 03 10 41 00  ...#.#....(...A.
0190: 80 20 80 04 10 2A 00 41  21 80 24 80 04 10 2B 00  . ...*.A!.$...+.
01A0: 41 25 80 26 80 04 10 2C  00 41 27 80 28 80 04 10  A%.&...,.A'.(...
01B0: 2D 00 41 00 80 20 80 05  10 2E 00 41 21 80 24 80  -.A.. .....A!.$.
01C0: 05 10 2F 00 41 25 80 26  80 05 10 30 00 41 27 80  ../.A%.&...0.A'.
01D0: 28 80 05 10 31 00 03 27  00 06 10 03 29 00 07 10  (...1..'....)...
01E0: 03 02 10 28 00 1D 29 80  23 02 2A 00 00 80 01 29  ...(..).#.*....)
01F0: 02 02 2C 00 00 80 01 21  02 02 2E 00 00 80 01 19  ..,....!........
0200: 02 02 30 00 00 80 01 11  02 03 00 00 02 80 01 16  ..0.............
0210: 02 03 00 00 07 80 01 1E  02 03 00 00 13 80 01 26  ...............&
0220: 02 03 00 00 01 80 01 2E  02 03 00 00 00 80 03 02  ................
0230: 10 29 00 15 02 10 2A 80  02 02 10 2B 80 02 45 02  .)....*....+..E.
0240: 03 02 10 2B 80 48 2C 80  23 03 03 10 2A 00 03 04  ...+.H,.#...*...
0250: 10 2B 00 15 04 10 2A 80  02 04 10 2A 80 02 65 02  .+....*....*..e.
0260: 03 04 10 2A 80 03 05 10  2C 00 03 06 10 2D 00 15  ...*....,....-..
0270: 06 10 2A 80 02 06 10 2A  80 02 81 02 03 06 10 2A  ..*....*.......*
0280: 80 03 07 10 2E 00 03 08  10 2F 00 15 08 10 2A 80  ........./....*.
0290: 02 08 10 2A 80 02 9D 02  03 08 10 2A 80 03 09 10  ...*.......*....
02A0: 30 00 03 00 17 31 00 15  00 17 2A 80 02 00 17 2A  0....1....*....*
02B0: 80 02 B9 02 03 00 17 2A  80 02 00 00 00 80 80 C4  .......*........
02C0: 02 01 00 03 02 00 00 01  80 80 D3 02 48 2D 80 23  ............H-.#
02D0: 01 00 03 02 00 00 13 80  80 E2 02 48 2E 80 23 01  ...........H..#.
02E0: 00 03 02 00 00 07 80 80  F1 02 48 2F 80 23 01 00  ..........H/.#..
02F0: 03 02 00 00 02 80 80 00  03 48 30 80 23 01 00 03  .........H0.#...
0300: 40 00 80 07 80 01 10 01  80 03 24 00 01 80 03 25  @.........$....%
0310: 00 00 80 40 02 80 20 80  01 10 24 00 40 21 80 22  ...@.. ...$.@!."
0320: 80 01 10 25 00 40 18 80  31 80 01 10 27 00 43 00  ...%.@..1...'.C.
0330: 43 01 03 32 00 02 10 03  33 00 03 10 03 34 00 04  C..2....3....4..
0340: 10 03 35 00 05 10 03 36  00 06 10 03 37 00 07 10  ..5....6....7...
0350: 03 38 00 08 10 03 39 00  09 10 02 32 00 00 80 01  .8....9....2....
0360: DA 03 02 33 00 00 80 01  D2 03 02 34 00 00 80 01  ...3.......4....
0370: CA 03 02 35 00 00 80 01  C2 03 02 36 00 00 80 01  ...5.......6....
0380: BA 03 02 37 00 00 80 01  B2 03 02 38 00 00 80 01  ...7.......8....
0390: AA 03 02 39 00 00 80 01  A2 03 03 00 00 21 80 01  ...9.........!..
03A0: A7 03 03 00 00 20 80 01  AF 03 03 00 00 32 80 01  ..... .......2..
03B0: B7 03 03 00 00 33 80 01  BF 03 03 00 00 02 80 01  .....3..........
03C0: C7 03 03 00 00 07 80 01  CF 03 03 00 00 13 80 01  ................
03D0: D7 03 03 00 00 01 80 01  DF 03 03 00 00 00 80 1D  ................
03E0: 34 80 23 02 00 00 00 80  80 EE 03 01 FE 06 02 00  4.#.............
03F0: 00 01 80 80 0F 04 41 00  80 24 80 32 00 02 10 41  ......A..$.2...A
0400: 25 80 26 80 32 00 03 10  48 35 80 23 01 FE 06 02  %.&.2...H5.#....
0410: 00 00 13 80 80 42 04 41  00 80 24 80 32 00 02 10  .....B.A..$.2...
0420: 41 25 80 26 80 32 00 03  10 41 00 80 24 80 33 00  A%.&.2...A..$.3.
0430: 04 10 41 25 80 26 80 33  00 05 10 48 36 80 23 01  ..A%.&.3...H6.#.
0440: FE 06 02 00 00 07 80 80  87 04 41 00 80 24 80 32  ..........A..$.2
0450: 00 02 10 41 25 80 26 80  32 00 03 10 41 00 80 24  ...A%.&.2...A..$
0460: 80 33 00 04 10 41 25 80  26 80 33 00 05 10 41 00  .3...A%.&.3...A.
0470: 80 24 80 34 00 06 10 41  25 80 26 80 34 00 07 10  .$.4...A%.&.4...
0480: 48 37 80 23 01 FE 06 02  00 00 02 80 80 DE 04 41  H7.#...........A
0490: 00 80 24 80 32 00 02 10  41 25 80 26 80 32 00 03  ..$.2...A%.&.2..
04A0: 10 41 00 80 24 80 33 00  04 10 41 25 80 26 80 33  .A..$.3...A%.&.3
04B0: 00 05 10 41 00 80 24 80  34 00 06 10 41 25 80 26  ...A..$.4...A%.&
04C0: 80 34 00 07 10 41 00 80  24 80 35 00 08 10 41 25  .4...A..$.5...A%
04D0: 80 26 80 35 00 09 10 48  38 80 23 01 FE 06 02 00  .&.5...H8.#.....
04E0: 00 33 80 80 4B 05 41 00  80 24 80 32 00 02 10 41  .3..K.A..$.2...A
04F0: 25 80 26 80 32 00 03 10  41 00 80 24 80 33 00 04  %.&.2...A..$.3..
0500: 10 41 25 80 26 80 33 00  05 10 41 00 80 24 80 34  .A%.&.3...A..$.4
0510: 00 06 10 41 25 80 26 80  34 00 07 10 41 00 80 24  ...A%.&.4...A..$
0520: 80 35 00 08 10 41 25 80  26 80 35 00 09 10 48 38  .5...A%.&.5...H8
0530: 80 23 41 00 80 24 80 36  00 02 10 41 25 80 26 80  .#A..$.6...A%.&.
0540: 36 00 03 10 48 35 80 23  01 FE 06 02 00 00 32 80  6...H5.#......2.
0550: 80 CA 05 41 00 80 24 80  32 00 02 10 41 25 80 26  ...A..$.2...A%.&
0560: 80 32 00 03 10 41 00 80  24 80 33 00 04 10 41 25  .2...A..$.3...A%
0570: 80 26 80 33 00 05 10 41  00 80 24 80 34 00 06 10  .&.3...A..$.4...
0580: 41 25 80 26 80 34 00 07  10 41 00 80 24 80 35 00  A%.&.4...A..$.5.
0590: 08 10 41 25 80 26 80 35  00 09 10 48 38 80 23 41  ..A%.&.5...H8.#A
05A0: 00 80 24 80 36 00 02 10  41 25 80 26 80 36 00 03  ..$.6...A%.&.6..
05B0: 10 41 00 80 24 80 37 00  04 10 41 25 80 26 80 37  .A..$.7...A%.&.7
05C0: 00 05 10 48 36 80 23 01  FE 06 02 00 00 20 80 80  ...H6.#...... ..
05D0: 5B 06 41 00 80 24 80 32  00 02 10 41 25 80 26 80  [.A..$.2...A%.&.
05E0: 32 00 03 10 41 00 80 24  80 33 00 04 10 41 25 80  2...A..$.3...A%.
05F0: 26 80 33 00 05 10 41 00  80 24 80 34 00 06 10 41  &.3...A..$.4...A
0600: 25 80 26 80 34 00 07 10  41 00 80 24 80 35 00 08  %.&.4...A..$.5..
0610: 10 41 25 80 26 80 35 00  09 10 48 38 80 23 41 00  .A%.&.5...H8.#A.
0620: 80 24 80 36 00 02 10 41  25 80 26 80 36 00 03 10  .$.6...A%.&.6...
0630: 41 00 80 24 80 37 00 04  10 41 25 80 26 80 37 00  A..$.7...A%.&.7.
0640: 05 10 41 00 80 24 80 38  00 06 10 41 25 80 26 80  ..A..$.8...A%.&.
0650: 38 00 07 10 48 37 80 23  01 FE 06 02 00 00 21 80  8...H7.#......!.
0660: 80 FE 06 41 00 80 24 80  32 00 02 10 41 25 80 26  ...A..$.2...A%.&
0670: 80 32 00 03 10 41 00 80  24 80 33 00 04 10 41 25  .2...A..$.3...A%
0680: 80 26 80 33 00 05 10 41  00 80 24 80 34 00 06 10  .&.3...A..$.4...
0690: 41 25 80 26 80 34 00 07  10 41 00 80 24 80 35 00  A%.&.4...A..$.5.
06A0: 08 10 41 25 80 26 80 35  00 09 10 48 38 80 23 41  ..A%.&.5...H8.#A
06B0: 00 80 24 80 36 00 02 10  41 25 80 26 80 36 00 03  ..$.6...A%.&.6..
06C0: 10 41 00 80 24 80 37 00  04 10 41 25 80 26 80 37  .A..$.7...A%.&.7
06D0: 00 05 10 41 00 80 24 80  38 00 06 10 41 25 80 26  ...A..$.8...A%.&
06E0: 80 38 00 07 10 41 00 80  24 80 39 00 08 10 41 25  .8...A..$.9...A%
06F0: 80 26 80 39 00 09 10 48  38 80 23 01 FE 06 40 00  .&.9...H8.#...@.
0700: 80 07 80 01 10 01 80 03  24 00 13 80 03 25 00 00  ........$....%..
0710: 80 40 02 80 20 80 01 10  24 00 40 21 80 22 80 01  .@.. ...$.@!."..
0720: 10 25 00 40 18 80 31 80  01 10 27 00 43 00 43 01  .%.@..1...'.C.C.
0730: 03 00 00 00 80 3E 02 10  00 80 47 07 03 3A 00 01  .....>....G..:..
0740: 80 0B 00 00 01 4C 07 03  3A 00 00 80 3E 02 10 01  .....L..:...>...
0750: 80 5E 07 03 3C 00 13 80  0B 00 00 01 63 07 03 3C  .^..<.......c..<
0760: 00 00 80 3E 02 10 13 80  75 07 03 3E 00 07 80 0B  ...>....u..>....
0770: 00 00 01 7A 07 03 3E 00  00 80 3E 02 10 07 80 8C  ...z..>...>.....
0780: 07 03 40 00 02 80 0B 00  00 01 91 07 03 40 00 00  ..@..........@..
0790: 80 3E 02 10 02 80 A3 07  03 42 00 33 80 0B 00 00  .>.......B.3....
07A0: 01 A8 07 03 42 00 00 80  3E 02 10 33 80 BA 07 03  ....B...>..3....
07B0: 44 00 32 80 0B 00 00 01  BF 07 03 44 00 00 80 3E  D.2........D...>
07C0: 02 10 32 80 D1 07 03 46  00 20 80 0B 00 00 01 D6  ..2....F. ......
07D0: 07 03 46 00 00 80 3E 02  10 20 80 E8 07 03 48 00  ..F...>.. ....H.
07E0: 21 80 0B 00 00 01 ED 07  03 48 00 00 80 03 4A 00  !........H....J.
07F0: 00 00 41 00 80 20 80 03  10 3B 00 41 21 80 24 80  ..A.. ...;.A!.$.
0800: 03 10 3D 00 41 25 80 26  80 03 10 3F 00 41 27 80  ..=.A%.&...?.A'.
0810: 28 80 03 10 41 00 41 00  80 20 80 04 10 43 00 41  (...A.A.. ...C.A
0820: 21 80 24 80 04 10 45 00  41 25 80 26 80 04 10 47  !.$...E.A%.&...G
0830: 00 41 27 80 28 80 04 10  49 00 03 4B 00 3A 00 03  .A'.(...I..K.:..
0840: 4C 00 3B 00 1A 0F 16 03  4B 00 3C 00 03 4C 00 3D  L.;.....K.<..L.=
0850: 00 1A 0F 16 03 4B 00 3E  00 03 4C 00 3F 00 1A 0F  .....K.>..L.?...
0860: 16 03 4B 00 40 00 03 4C  00 41 00 1A 0F 16 03 4B  ..K.@..L.A.....K
0870: 00 42 00 03 4C 00 43 00  1A 0F 16 03 4B 00 44 00  .B..L.C.....K.D.
0880: 03 4C 00 45 00 1A 0F 16  03 4B 00 46 00 03 4C 00  .L.E.....K.F..L.
0890: 47 00 1A 0F 16 03 4B 00  48 00 03 4C 00 49 00 1A  G.....K.H..L.I..
08A0: 0F 16 02 4A 00 01 80 80  B1 08 1D 39 80 23 01 1A  ...J.......9.#..
08B0: 09 02 4A 00 13 80 80 C0  08 1D 3A 80 23 01 1A 09  ..J.......:.#...
08C0: 02 4A 00 07 80 80 CF 08  1D 3B 80 23 01 1A 09 02  .J.......;.#....
08D0: 4A 00 02 80 80 DE 08 1D  3C 80 23 01 1A 09 02 4A  J.......<.#....J
08E0: 00 33 80 80 ED 08 1D 3D  80 23 01 1A 09 02 4A 00  .3.....=.#....J.
08F0: 32 80 80 FC 08 1D 3E 80  23 01 1A 09 02 4A 00 20  2.....>.#....J. 
0900: 80 80 0B 09 1D 3F 80 23  01 1A 09 02 4A 00 21 80  .....?.#....J.!.
0910: 80 1A 09 1D 40 80 23 01  1A 09 1D 41 80 23 42 01  ....@.#....A.#B.
0920: DE 12 02 00 10 13 80 00  23 0A 2E 03 02 10 04 80  ........#.......
0930: 1D 42 80 23 40 00 80 07  80 01 10 13 80 43 00 43  .B.#@........C.C
0940: 01 02 04 10 00 80 00 16  0A 41 00 80 32 80 02 10  .........A..2...
0950: 08 00 41 20 80 1B 80 02  10 09 00 41 43 80 44 80  ..A .......AC.D.
0960: 02 10 0A 00 41 45 80 31  80 02 10 0B 00 41 00 80  ....AE.1.....A..
0970: 32 80 03 10 0C 00 41 20  80 1B 80 03 10 0D 00 41  2.....A .......A
0980: 43 80 44 80 03 10 0E 00  41 45 80 31 80 03 10 0F  C.D.....AE.1....
0990: 00 03 02 10 08 00 03 03  10 09 00 03 04 10 0A 00  ................
09A0: 03 05 10 0B 00 03 06 10  0C 00 03 07 10 0D 00 03  ................
09B0: 08 10 0E 00 03 09 10 0F  00 1D 46 80 23 03 00 00  ..........F.#...
09C0: 08 00 07 00 00 09 00 07  00 00 0A 00 07 00 00 0B  ................
09D0: 00 07 00 00 0C 00 07 00  00 0D 00 07 00 00 0E 00  ................
09E0: 07 00 00 0F 00 02 00 00  47 80 03 13 0A 1D 48 80  ........G.....H.
09F0: 23 24 49 80 01 80 00 80  25 02 00 10 00 80 00 08  #$I.....%.......
0A00: 0A 42 01 2B 0A 01 13 0A  02 00 10 01 80 00 13 0A  .B.+............
0A10: 01 13 0A 01 1F 0A 03 02  10 04 80 1D 4A 80 23 42  ............J.#B
0A20: 01 DE 12 02 00 10 07 80  00 09 0B 03 02 10 04 80  ................
0A30: 1D 4B 80 23 40 00 80 07  80 01 10 07 80 43 00 43  .K.#@........C.C
0A40: 01 03 10 00 02 10 03 11  00 03 10 02 11 00 13 80  ................
0A50: 01 FD 0A 02 10 00 00 80  02 F6 0A 03 02 10 10 00  ................
0A60: 1D 4C 80 23 03 02 10 10  00 24 17 80 01 80 00 80  .L.#.....$......
0A70: 25 02 00 10 00 80 00 E4  0A 02 11 00 01 80 00 DD  %...............
0A80: 0A 03 02 10 04 80 1D 4D  80 23 45 4E 80 F8 FF FF  .......M.#EN....
0A90: 7F F8 FF FF 7F 66 64 6F  31 00 80 55 4E 80 F8 FF  .....fdo1..UN...
0AA0: FF 7F F8 FF FF 7F 66 64  6F 31 45 4E 80 F8 FF FF  ......fdo1EN....
0AB0: 7F F8 FF FF 7F 66 64 69  31 00 80 55 4E 80 F8 FF  .....fdi1..UN...
0AC0: FF 7F F8 FF FF 7F 66 64  69 31 1D 4F 80 23 40 00  ......fdi1.O.#@.
0AD0: 80 07 80 01 10 21 80 06  03 00 01 E1 0A 1D 1C 80  .....!..........
0AE0: 23 01 F3 0A 02 00 10 01  80 00 F3 0A 1D 50 80 23  #............P.#
0AF0: 01 F3 0A 01 FA 0A 1D 51  80 23 01 06 0B 03 02 10  .......Q.#......
0B00: 04 80 1D 4A 80 23 01 DE  12 02 00 10 02 80 00 4F  ...J.#.........O
0B10: 0C 1D 52 80 23 05 04 00  02 04 00 00 80 02 4C 0C  ..R.#.........L.
0B20: 03 02 10 53 80 03 03 10  01 80 03 04 10 54 80 03  ...S.........T..
0B30: 05 10 32 80 03 06 10 55  80 03 07 10 18 80 03 08  ..2....U........
0B40: 10 56 80 03 12 00 00 80  24 57 80 00 80 00 80 25  .V......$W.....%
0B50: 02 00 10 00 80 00 5E 0B  06 04 00 01 AC 0B 02 00  ......^.........
0B60: 10 01 80 00 78 0B 03 12  00 01 80 03 13 00 01 80  ....x...........
0B70: 03 14 00 54 80 01 AC 0B  02 00 10 13 80 00 92 0B  ...T............
0B80: 03 12 00 13 80 03 13 00  32 80 03 14 00 55 80 01  ........2....U..
0B90: AC 0B 02 00 10 07 80 00  AC 0B 03 12 00 07 80 03  ................
0BA0: 13 00 18 80 03 14 00 56  80 01 AC 0B 02 04 00 00  .......V........
0BB0: 80 02 49 0C 02 12 00 01  80 04 49 0C 02 12 00 07  ..I.......I.....
0BC0: 80 05 49 0C 93 53 80 03  02 10 53 80 03 03 10 13  ..I..S....S.....
0BD0: 00 03 04 10 14 00 1D 58  80 23 93 00 80 03 02 10  .......X.#......
0BE0: 14 00 24 17 80 01 80 00  80 25 02 00 10 00 80 00  ..$......%......
0BF0: 3E 0C 40 00 80 07 80 01  10 02 80 40 02 80 20 80  >.@........@.. .
0C00: 01 10 12 00 43 00 43 01  03 15 00 02 10 02 15 00  ....C.C.........
0C10: 01 80 00 34 0C 1D 59 80  23 40 00 80 07 80 01 10  ...4..Y.#@......
0C20: 2B 80 40 02 80 20 80 01  10 12 00 06 04 00 06 03  +.@.. ..........
0C30: 00 01 3B 0C 1D 1C 80 23  06 04 00 01 49 0C 02 00  ..;....#....I...
0C40: 10 01 80 00 49 0C 01 49  0C 01 18 0B 01 DE 12 02  ....I..I........
0C50: 00 10 33 80 00 AE 0E 1D  5A 80 23 40 00 80 07 80  ..3.....Z.#@....
0C60: 01 10 33 80 43 00 43 01  03 16 00 02 10 41 00 80  ..3.C.C......A..
0C70: 07 80 03 10 17 00 41 02  80 20 80 03 10 18 00 41  ......A.. .....A
0C80: 21 80 22 80 03 10 19 00  41 18 80 24 80 03 10 1A  !.".....A..$....
0C90: 00 41 25 80 5B 80 03 10  1B 00 41 44 80 26 80 03  .A%.[.....AD.&..
0CA0: 10 1C 00 02 16 00 00 80  00 A2 0E 1D 5C 80 23 05  ............\.#.
0CB0: 05 00 02 05 00 00 80 02  9F 0E 03 1D 00 00 80 03  ................
0CC0: 02 10 17 00 03 03 10 18  00 03 04 10 19 00 03 05  ................
0CD0: 10 1A 00 03 06 10 1B 00  03 07 10 1C 00 24 5D 80  .............$].
0CE0: 00 80 00 80 25 02 00 10  00 80 00 F3 0C 06 05 00  ....%...........
0CF0: 01 B3 0D 02 00 10 01 80  00 13 0D 02 17 00 33 80  ..............3.
0D00: 03 0B 0D 03 1D 00 01 80  01 10 0D 03 1D 00 00 80  ................
0D10: 01 B3 0D 02 00 10 13 80  00 33 0D 02 18 00 33 80  .........3....3.
0D20: 03 2B 0D 03 1D 00 01 80  01 30 0D 03 1D 00 00 80  .+.......0......
0D30: 01 B3 0D 02 00 10 07 80  00 53 0D 02 19 00 33 80  .........S....3.
0D40: 03 4B 0D 03 1D 00 01 80  01 50 0D 03 1D 00 00 80  .K.......P......
0D50: 01 B3 0D 02 00 10 02 80  00 73 0D 02 1A 00 33 80  .........s....3.
0D60: 03 6B 0D 03 1D 00 01 80  01 70 0D 03 1D 00 00 80  .k.......p......
0D70: 01 B3 0D 02 00 10 33 80  00 93 0D 02 1B 00 33 80  ......3.......3.
0D80: 03 8B 0D 03 1D 00 01 80  01 90 0D 03 1D 00 00 80  ................
0D90: 01 B3 0D 02 00 10 32 80  00 B3 0D 02 1C 00 33 80  ......2.......3.
0DA0: 03 AB 0D 03 1D 00 01 80  01 B0 0D 03 1D 00 00 80  ................
0DB0: 01 B3 0D 02 05 00 00 80  02 9C 0E 02 1D 00 01 80  ................
0DC0: 00 93 0E 03 1E 00 00 10  03 02 10 1E 00 1D 5E 80  ..............^.
0DD0: 23 24 5F 80 01 80 00 80  25 02 00 10 00 80 00 85  #$_.....%.......
0DE0: 0E 1D 60 80 23 45 4E 80  F8 FF FF 7F F8 FF FF 7F  ..`.#EN.........
0DF0: 66 64 6F 31 00 80 55 4E  80 F8 FF FF 7F F8 FF FF  fdo1..UN........
0E00: 7F 66 64 6F 31 13 00 00  07 80 02 00 00 00 80 80  .fdo1...........
0E10: 19 0E 1D 61 80 23 01 46  0E 02 00 00 01 80 80 28  ...a.#.F.......(
0E20: 0E 1D 62 80 23 01 46 0E  02 00 00 13 80 80 37 0E  ..b.#.F.......7.
0E30: 1D 63 80 23 01 46 0E 02  00 00 07 80 80 46 0E 1D  .c.#.F.......F..
0E40: 64 80 23 01 46 0E 45 4E  80 F8 FF FF 7F F8 FF FF  d.#.F.EN........
0E50: 7F 66 64 69 31 00 80 55  4E 80 F8 FF FF 7F F8 FF  .fdi1..UN.......
0E60: FF 7F 66 64 69 31 1D 65  80 23 40 00 80 07 80 01  ..fdi1.e.#@.....
0E70: 10 2A 80 40 02 80 20 80  01 10 1E 00 06 05 00 06  .*.@.. .........
0E80: 03 00 01 90 0E 02 00 10  01 80 00 90 0E 01 90 0E  ................
0E90: 01 9C 0E 03 02 10 00 10  1D 66 80 23 01 B2 0C 01  .........f.#....
0EA0: AB 0E 03 02 10 16 00 1D  67 80 23 01 DE 12 02 00  ........g.#.....
0EB0: 10 32 80 00 91 10 1D 68  80 23 40 00 80 07 80 01  .2.....h.#@.....
0EC0: 10 32 80 43 00 43 01 03  1F 00 02 10 03 20 00 00  .2.C.C....... ..
0ED0: 80 05 06 00 02 06 00 00  80 02 8E 10 03 02 10 1F  ................
0EE0: 00 03 03 10 69 80 03 04  10 6A 80 03 05 10 6B 80  ....i....j....k.
0EF0: 03 06 10 6C 80 03 07 10  6D 80 03 08 10 6E 80 03  ...l....m....n..
0F00: 09 10 6F 80 03 00 17 15  80 03 01 17 70 80 03 02  ..o.........p...
0F10: 17 6A 80 03 03 17 71 80  03 04 17 6C 80 03 05 17  .j....q....l....
0F20: 00 80 03 06 17 00 80 03  07 17 72 80 03 08 17 2A  ..........r....*
0F30: 80 03 00 00 00 80 3C 00  00 20 80 01 80 3C 00 00  ......<.. ...<..
0F40: 21 80 01 80 24 73 80 00  80 00 00 25 02 00 10 00  !...$s.....%....
0F50: 80 00 5A 0F 06 06 00 01  25 10 02 00 10 01 80 00  ..Z.....%.......
0F60: 74 0F 03 21 00 01 80 03  22 00 69 80 03 23 00 6A  t..!....".i..#.j
0F70: 80 01 25 10 02 00 10 13  80 00 8E 0F 03 21 00 13  ..%..........!..
0F80: 80 03 22 00 6B 80 03 23  00 6C 80 01 25 10 02 00  ..".k..#.l..%...
0F90: 10 07 80 00 A8 0F 03 21  00 07 80 03 22 00 6D 80  .......!....".m.
0FA0: 03 23 00 6E 80 01 25 10  02 00 10 02 80 00 C2 0F  .#.n..%.........
0FB0: 03 21 00 02 80 03 22 00  6F 80 03 23 00 15 80 01  .!....".o..#....
0FC0: 25 10 02 00 10 33 80 00  DC 0F 03 21 00 33 80 03  %....3.....!.3..
0FD0: 22 00 70 80 03 23 00 6A  80 01 25 10 02 00 10 32  ".p..#.j..%....2
0FE0: 80 00 F6 0F 03 21 00 32  80 03 22 00 71 80 03 23  .....!.2..".q..#
0FF0: 00 6C 80 01 25 10 02 00  10 20 80 00 10 10 03 21  .l..%.... .....!
1000: 00 20 80 03 22 00 70 80  03 23 00 74 80 01 25 10  . ..".p..#.t..%.
1010: 02 00 10 21 80 00 25 10  03 21 00 21 80 03 23 00  ...!..%..!.!..#.
1020: 2A 80 01 25 10 02 06 00  00 80 02 8B 10 02 21 00  *..%..........!.
1030: 21 80 03 3F 10 93 22 00  1D 75 80 23 93 00 80 24  !..?.."..u.#...$
1040: 76 80 01 80 00 80 25 02  00 10 00 80 00 80 10 02  v.....%.........
1050: 1F 00 23 00 04 76 10 1D  59 80 23 40 00 80 07 80  ..#..v..Y.#@....
1060: 01 10 22 80 40 02 80 20  80 01 10 21 00 06 06 00  ..".@.. ...!....
1070: 06 03 00 01 7D 10 1D 77  80 23 06 06 00 01 8B 10  ....}..w.#......
1080: 02 00 10 01 80 00 8B 10  01 8B 10 01 D4 0E 01 DE  ................
1090: 12 02 00 10 20 80 00 DE  12 05 07 00 02 07 00 00  .... ...........
10A0: 80 02 DB 12 2E 24 78 80  00 80 00 80 25 02 00 10  .....$x.....%...
10B0: 00 80 00 BB 10 06 07 00  01 D7 12 02 00 10 01 80  ................
10C0: 00 DB 10 1D 79 80 23 03  02 10 04 80 1D 7A 80 23  ....y.#......z.#
10D0: 1D 7B 80 23 1D 7C 80 23  01 D7 12 02 00 10 13 80  .{.#.|.#........
10E0: 00 46 11 1D 7D 80 23 1D  7E 80 23 1D 7F 80 23 1D  .F..}.#.~.#...#.
10F0: 80 80 23 1D 81 80 23 1D  82 80 23 1D 83 80 23 1D  ..#...#...#...#.
1100: 84 80 23 03 02 10 04 80  1D 85 80 23 1D 86 80 23  ..#........#...#
1110: 1D 87 80 23 1D 88 80 23  1D 89 80 23 1D 8A 80 23  ...#...#...#...#
1120: 1D 8B 80 23 03 02 10 8C  80 1D 8D 80 23 03 02 10  ...#........#...
1130: 8C 80 1D 8E 80 23 03 02  10 8C 80 1D 8F 80 23 1D  .....#........#.
1140: 90 80 23 01 D7 12 02 00  10 07 80 00 B2 11 03 02  ..#.............
1150: 10 04 80 1D 91 80 23 1D  92 80 23 1D 93 80 23 1D  ......#...#...#.
1160: 94 80 23 1D 95 80 23 1D  96 80 23 1D 97 80 23 1D  ..#...#...#...#.
1170: 98 80 23 1D 99 80 23 1D  9A 80 23 1D 9B 80 23 1D  ..#...#...#...#.
1180: 9C 80 23 1D 9D 80 23 1D  9E 80 23 1D 9F 80 23 1D  ..#...#...#...#.
1190: A0 80 23 1D A1 80 23 1D  A2 80 23 1D A3 80 23 1D  ..#...#...#...#.
11A0: A4 80 23 1D A5 80 23 1D  A6 80 23 1D A7 80 23 01  ..#...#...#...#.
11B0: D7 12 02 00 10 02 80 00  32 12 1D A8 80 23 1D A9  ........2....#..
11C0: 80 23 1D AA 80 23 1D AB  80 23 03 02 10 8C 80 1D  .#...#...#......
11D0: AC 80 23 03 02 10 8C 80  1D AD 80 23 1D AE 80 23  ..#........#...#
11E0: 1D AF 80 23 1D B0 80 23  1D B1 80 23 03 02 10 53  ...#...#...#...S
11F0: 80 1D B2 80 23 03 02 10  53 80 1D B3 80 23 03 02  ....#...S....#..
1200: 10 8C 80 1D B4 80 23 03  02 10 8C 80 1D B5 80 23  ......#........#
1210: 03 02 10 8C 80 1D B6 80  23 1D B7 80 23 03 02 10  ........#...#...
1220: 8C 80 03 03 10 70 80 1D  B8 80 23 1D B9 80 23 01  .....p....#...#.
1230: D7 12 02 00 10 33 80 00  60 12 1D BA 80 23 03 02  .....3..`....#..
1240: 10 04 80 1D BB 80 23 03  02 10 04 80 1D BC 80 23  ......#........#
1250: 1D BD 80 23 03 02 10 04  80 1D BE 80 23 01 D7 12  ...#........#...
1260: 02 00 10 32 80 00 99 12  03 02 10 8C 80 03 03 10  ...2............
1270: 53 80 1D BF 80 23 03 02  10 53 80 1D C0 80 23 03  S....#...S....#.
1280: 02 10 53 80 1D C1 80 23  03 02 10 69 80 03 03 10  ..S....#...i....
1290: 6B 80 1D C2 80 23 01 D7  12 02 00 10 20 80 00 BC  k....#...... ...
12A0: 12 1D C3 80 23 1D C4 80  23 1D C5 80 23 1D C6 80  ....#...#...#...
12B0: 23 1D C7 80 23 1D C8 80  23 01 D7 12 02 00 10 21  #...#...#......!
12C0: 80 00 D7 12 1D C9 80 23  1D CA 80 23 1D CB 80 23  .......#...#...#
12D0: 1D CC 80 23 01 D7 12 42  01 9C 10 01 DE 12 01 18  ...#...B........
12E0: 01 01 0C 16 03 4D 00 07  10 03 4E 00 08 10 03 02  .....M....N.....
12F0: 10 02 00 1D CD 80 23 1D  CE 80 23 03 00 00 04 10  ......#...#.....
1300: 02 00 00 00 80 80 E4 15  02 06 10 00 80 00 D8 15  ................
1310: 03 02 10 02 00 03 00 00  05 10 02 00 00 00 80 02  ................
1320: 27 13 03 00 00 01 80 03  03 10 00 00 41 00 80 07  '...........A...
1330: 80 4D 00 00 00 02 00 00  00 80 80 45 13 03 04 10  .M.........E....
1340: CF 80 01 35 14 02 00 00  01 80 80 55 13 03 04 10  ...5.......U....
1350: CF 80 01 35 14 02 00 00  13 80 80 65 13 03 04 10  ...5.......e....
1360: D0 80 01 35 14 02 00 00  07 80 80 75 13 03 04 10  ...5.......u....
1370: D1 80 01 35 14 02 00 00  02 80 80 85 13 03 04 10  ...5............
1380: D2 80 01 35 14 02 00 00  33 80 80 95 13 03 04 10  ...5....3.......
1390: D3 80 01 35 14 02 00 00  32 80 80 A5 13 03 04 10  ...5....2.......
13A0: D4 80 01 35 14 02 00 00  20 80 80 B5 13 03 04 10  ...5.... .......
13B0: D5 80 01 35 14 02 00 00  21 80 80 C5 13 03 04 10  ...5....!.......
13C0: D6 80 01 35 14 02 00 00  2B 80 80 D5 13 03 04 10  ...5....+.......
13D0: D7 80 01 35 14 02 00 00  2A 80 80 E5 13 03 04 10  ...5....*.......
13E0: D8 80 01 35 14 02 00 00  22 80 80 F5 13 03 04 10  ...5....".......
13F0: D9 80 01 35 14 02 00 00  18 80 80 05 14 03 04 10  ...5............
1400: DA 80 01 35 14 02 00 00  1B 80 80 15 14 03 04 10  ...5............
1410: DB 80 01 35 14 02 00 00  43 80 80 25 14 03 04 10  ...5....C..%....
1420: DC 80 01 35 14 02 00 00  24 80 80 35 14 03 04 10  ...5....$..5....
1430: DD 80 01 35 14 1D DE 80  23 41 02 80 22 80 4D 00  ...5....#A..".M.
1440: 4B 00 03 00 00 00 80 3E  4B 00 00 80 59 14 03 3A  K......>K...Y..:
1450: 00 01 80 0B 00 00 01 5E  14 03 3A 00 00 80 3E 4B  .......^..:...>K
1460: 00 01 80 70 14 03 3C 00  13 80 0B 00 00 01 75 14  ...p..<.......u.
1470: 03 3C 00 00 80 3E 4B 00  13 80 87 14 03 3E 00 07  .<...>K......>..
1480: 80 0B 00 00 01 8C 14 03  3E 00 00 80 3E 4B 00 07  ........>...>K..
1490: 80 9E 14 03 40 00 02 80  0B 00 00 01 A3 14 03 40  ....@..........@
14A0: 00 00 80 3E 4B 00 02 80  B5 14 03 42 00 33 80 0B  ...>K......B.3..
14B0: 00 00 01 BA 14 03 42 00  00 80 3E 4B 00 33 80 CC  ......B...>K.3..
14C0: 14 03 44 00 32 80 0B 00  00 01 D1 14 03 44 00 00  ..D.2........D..
14D0: 80 3E 4B 00 32 80 E3 14  03 46 00 20 80 0B 00 00  .>K.2....F. ....
14E0: 01 E8 14 03 46 00 00 80  3E 4B 00 20 80 FA 14 03  ....F...>K. ....
14F0: 48 00 21 80 0B 00 00 01  FF 14 03 48 00 00 80 03  H.!........H....
1500: 4A 00 00 00 41 18 80 25  80 4D 00 3B 00 41 DF 80  J...A..%.M.;.A..
1510: 45 80 4D 00 3D 00 41 E0  80 E1 80 4D 00 3F 00 41  E.M.=.A....M.?.A
1520: 31 80 28 80 4D 00 41 00  41 00 80 02 80 4E 00 43  1.(.M.A.A....N.C
1530: 00 41 33 80 2B 80 4E 00  45 00 41 2A 80 43 80 4E  .A3.+.N.E.A*.C.N
1540: 00 47 00 41 24 80 5B 80  4E 00 49 00 03 00 00 00  .G.A$.[.N.I.....
1550: 80 03 4B 00 3A 00 03 4C  00 3B 00 0B 4C 00 1A BC  ..K.:..L.;..L...
1560: 19 03 4B 00 3C 00 03 4C  00 3D 00 0B 4C 00 1A BC  ..K.<..L.=..L...
1570: 19 03 4B 00 3E 00 03 4C  00 3F 00 0B 4C 00 1A BC  ..K.>..L.?..L...
1580: 19 03 4B 00 40 00 03 4C  00 41 00 0B 4C 00 1A BC  ..K.@..L.A..L...
1590: 19 03 4B 00 42 00 03 4C  00 43 00 0B 4C 00 1A BC  ..K.B..L.C..L...
15A0: 19 03 4B 00 44 00 03 4C  00 45 00 0B 4C 00 1A BC  ..K.D..L.E..L...
15B0: 19 03 4B 00 46 00 03 4C  00 47 00 0B 4C 00 1A BC  ..K.F..L.G..L...
15C0: 19 03 4B 00 48 00 03 4C  00 49 00 0B 4C 00 1A BC  ..K.H..L.I..L...
15D0: 19 1D E2 80 23 01 E1 15  03 02 10 02 00 1D E3 80  ....#...........
15E0: 23 01 0C 16 02 00 00 01  80 80 F8 15 03 02 10 02  #...............
15F0: 00 1D E4 80 23 01 0C 16  02 00 00 13 80 80 0C 16  ....#...........
1600: 03 02 10 02 00 1D E5 80  23 01 0C 16 2E 21 00 02  ........#....!..
1610: 00 00 00 80 02 BB 19 02  4A 00 01 80 80 42 16 02  ........J....B..
1620: 4B 00 00 80 02 3F 16 02  00 00 01 80 80 3C 16 03  K....?.......<..
1630: 02 10 4B 00 03 03 10 4C  00 01 3C 16 0C 00 00 01  ..K....L..<.....
1640: BB 19 02 4A 00 13 80 80  82 16 02 4B 00 00 80 02  ...J.......K....
1650: 7F 16 02 00 00 01 80 80  67 16 03 04 10 4B 00 03  ........g....K..
1660: 05 10 4C 00 01 7C 16 02  00 00 13 80 80 7C 16 03  ..L..|.......|..
1670: 02 10 4B 00 03 03 10 4C  00 01 7C 16 0C 00 00 01  ..K....L..|.....
1680: BB 19 02 4A 00 07 80 80  D7 16 02 4B 00 00 80 02  ...J.......K....
1690: D4 16 02 00 00 01 80 80  A7 16 03 06 10 4B 00 03  .............K..
16A0: 07 10 4C 00 01 D1 16 02  00 00 13 80 80 BC 16 03  ..L.............
16B0: 04 10 4B 00 03 05 10 4C  00 01 D1 16 02 00 00 07  ..K....L........
16C0: 80 80 D1 16 03 02 10 4B  00 03 03 10 4C 00 01 D1  .......K....L...
16D0: 16 0C 00 00 01 BB 19 02  4A 00 02 80 80 41 17 02  ........J....A..
16E0: 4B 00 00 80 02 3E 17 02  00 00 01 80 80 FC 16 03  K....>..........
16F0: 08 10 4B 00 03 09 10 4C  00 01 3B 17 02 00 00 13  ..K....L..;.....
1700: 80 80 11 17 03 06 10 4B  00 03 07 10 4C 00 01 3B  .......K....L..;
1710: 17 02 00 00 07 80 80 26  17 03 04 10 4B 00 03 05  .......&....K...
1720: 10 4C 00 01 3B 17 02 00  00 02 80 80 3B 17 03 02  .L..;.......;...
1730: 10 4B 00 03 03 10 4C 00  01 3B 17 0C 00 00 01 BB  .K....L..;......
1740: 19 02 4A 00 33 80 80 C0  17 02 4B 00 00 80 02 BD  ..J.3.....K.....
1750: 17 02 00 00 01 80 80 66  17 03 00 17 4B 00 03 01  .......f....K...
1760: 17 4C 00 01 BA 17 02 00  00 13 80 80 7B 17 03 08  .L..........{...
1770: 10 4B 00 03 09 10 4C 00  01 BA 17 02 00 00 07 80  .K....L.........
1780: 80 90 17 03 06 10 4B 00  03 07 10 4C 00 01 BA 17  ......K....L....
1790: 02 00 00 02 80 80 A5 17  03 04 10 4B 00 03 05 10  ...........K....
17A0: 4C 00 01 BA 17 02 00 00  33 80 80 BA 17 03 02 10  L.......3.......
17B0: 4B 00 03 03 10 4C 00 01  BA 17 0C 00 00 01 BB 19  K....L..........
17C0: 02 4A 00 32 80 80 54 18  02 4B 00 00 80 02 51 18  .J.2..T..K....Q.
17D0: 02 00 00 01 80 80 E5 17  03 02 17 4B 00 03 03 17  ...........K....
17E0: 4C 00 01 4E 18 02 00 00  13 80 80 FA 17 03 00 17  L..N............
17F0: 4B 00 03 01 17 4C 00 01  4E 18 02 00 00 07 80 80  K....L..N.......
1800: 0F 18 03 08 10 4B 00 03  09 10 4C 00 01 4E 18 02  .....K....L..N..
1810: 00 00 02 80 80 24 18 03  06 10 4B 00 03 07 10 4C  .....$....K....L
1820: 00 01 4E 18 02 00 00 33  80 80 39 18 03 04 10 4B  ..N....3..9....K
1830: 00 03 05 10 4C 00 01 4E  18 02 00 00 32 80 80 4E  ....L..N....2..N
1840: 18 03 02 10 4B 00 03 03  10 4C 00 01 4E 18 0C 00  ....K....L..N...
1850: 00 01 BB 19 02 4A 00 20  80 80 FD 18 02 4B 00 00  .....J. .....K..
1860: 80 02 FA 18 02 00 00 01  80 80 79 18 03 04 17 4B  ..........y....K
1870: 00 03 05 17 4C 00 01 F7  18 02 00 00 13 80 80 8E  ....L...........
1880: 18 03 02 17 4B 00 03 03  17 4C 00 01 F7 18 02 00  ....K....L......
1890: 00 07 80 80 A3 18 03 00  17 4B 00 03 01 17 4C 00  .........K....L.
18A0: 01 F7 18 02 00 00 02 80  80 B8 18 03 08 10 4B 00  ..............K.
18B0: 03 09 10 4C 00 01 F7 18  02 00 00 33 80 80 CD 18  ...L.......3....
18C0: 03 06 10 4B 00 03 07 10  4C 00 01 F7 18 02 00 00  ...K....L.......
18D0: 32 80 80 E2 18 03 04 10  4B 00 03 05 10 4C 00 01  2.......K....L..
18E0: F7 18 02 00 00 20 80 80  F7 18 03 02 10 4B 00 03  ..... .......K..
18F0: 03 10 4C 00 01 F7 18 0C  00 00 01 BB 19 02 4A 00  ..L...........J.
1900: 21 80 80 BB 19 02 4B 00  00 80 02 B8 19 02 00 00  !.....K.........
1910: 01 80 80 22 19 03 06 17  4B 00 03 07 17 4C 00 01  ..."....K....L..
1920: B5 19 02 00 00 13 80 80  37 19 03 04 17 4B 00 03  ........7....K..
1930: 05 17 4C 00 01 B5 19 02  00 00 07 80 80 4C 19 03  ..L..........L..
1940: 02 17 4B 00 03 03 17 4C  00 01 B5 19 02 00 00 02  ..K....L........
1950: 80 80 61 19 03 00 17 4B  00 03 01 17 4C 00 01 B5  ..a....K....L...
1960: 19 02 00 00 33 80 80 76  19 03 08 10 4B 00 03 09  ....3..v....K...
1970: 10 4C 00 01 B5 19 02 00  00 32 80 80 8B 19 03 06  .L.......2......
1980: 10 4B 00 03 07 10 4C 00  01 B5 19 02 00 00 20 80  .K....L....... .
1990: 80 A0 19 03 04 10 4B 00  03 05 10 4C 00 01 B5 19  ......K....L....
19A0: 02 00 00 21 80 80 B5 19  03 02 10 4B 00 03 03 10  ...!.......K....
19B0: 4C 00 01 B5 19 0C 00 00  01 BB 19 1B 02 4A 00 00  L............J..
19C0: 00 02 6B 1B 02 4B 00 00  80 02 6B 1B 02 00 00 00  ..k..K....k.....
19D0: 80 80 E1 19 03 02 10 4B  00 03 03 10 4C 00 01 74  .......K....L..t
19E0: 1A 02 00 00 01 80 80 F6  19 03 04 10 4B 00 03 05  ............K...
19F0: 10 4C 00 01 74 1A 02 00  00 13 80 80 0B 1A 03 06  .L..t...........
1A00: 10 4B 00 03 07 10 4C 00  01 74 1A 02 00 00 07 80  .K....L..t......
1A10: 80 20 1A 03 08 10 4B 00  03 09 10 4C 00 01 74 1A  . ....K....L..t.
1A20: 02 00 00 02 80 80 35 1A  03 02 10 4B 00 03 03 10  ......5....K....
1A30: 4C 00 01 74 1A 02 00 00  33 80 80 4A 1A 03 04 10  L..t....3..J....
1A40: 4B 00 03 05 10 4C 00 01  74 1A 02 00 00 32 80 80  K....L..t....2..
1A50: 5F 1A 03 06 10 4B 00 03  07 10 4C 00 01 74 1A 02  _....K....L..t..
1A60: 00 00 20 80 80 74 1A 03  08 10 4B 00 03 09 10 4C  .. ..t....K....L
1A70: 00 01 74 1A 0B 00 00 02  4A 00 01 80 80 8E 1A 02  ..t.....J.......
1A80: 00 00 4A 00 04 8B 1A 48  E6 80 23 01 6B 1B 02 4A  ..J....H..#.k..J
1A90: 00 13 80 80 A5 1A 02 00  00 4A 00 04 A2 1A 48 E7  .........J....H.
1AA0: 80 23 01 6B 1B 02 4A 00  07 80 80 BC 1A 02 00 00  .#.k..J.........
1AB0: 4A 00 04 B9 1A 48 E8 80  23 01 6B 1B 02 4A 00 02  J....H..#.k..J..
1AC0: 80 80 D3 1A 02 00 00 4A  00 04 D0 1A 48 E9 80 23  .......J....H..#
1AD0: 01 6B 1B 02 4A 00 33 80  80 F9 1A 02 00 00 4A 00  .k..J.3.......J.
1AE0: 04 EA 1A 48 E6 80 23 01  F6 1A 02 00 00 02 80 00  ...H..#.........
1AF0: F6 1A 48 E9 80 23 01 6B  1B 02 4A 00 32 80 80 1F  ..H..#.k..J.2...
1B00: 1B 02 00 00 4A 00 04 10  1B 48 E7 80 23 01 1C 1B  ....J....H..#...
1B10: 02 00 00 02 80 00 1C 1B  48 E9 80 23 01 6B 1B 02  ........H..#.k..
1B20: 4A 00 20 80 80 45 1B 02  00 00 4A 00 04 36 1B 48  J. ..E....J..6.H
1B30: E8 80 23 01 42 1B 02 00  00 02 80 00 42 1B 48 E9  ..#.B.......B.H.
1B40: 80 23 01 6B 1B 02 4A 00  21 80 80 6B 1B 02 00 00  .#.k..J.!..k....
1B50: 4A 00 04 5C 1B 48 E9 80  23 01 68 1B 02 00 00 02  J..\.H..#.h.....
1B60: 80 00 68 1B 48 E9 80 23  01 6B 1B 1B              ..h.H..#.k..    
```

#### Opcodes

```
  0: 0x0001 [0x42] SET_CLI_EVENT_CANCEL_DATA()
  1: 0x0002 [0x03] ExtData[1]->WorkLocal[79] = 0*
  2: 0x0007 [0x03] ExtData[1]->WorkLocal[1] = Work_Zone[2]
  3: 0x000C [0x03] ExtData[1]->WorkLocal[2] = Work_Zone[3]
  4: 0x0011 [0x02] IF !(ExtData[1]->WorkLocal[1] == 0*) GOTO 0x0109
  5: 0x0019 [0x02] IF !(ExtData[1]->WorkLocal[2] == 1*) GOTO 0x0026
  6: 0x0021 [0x03] ExtData[1]->WorkLocal[79] = 4*
  7: 0x0026 [0x1D] PRINT_EVENT_MESSAGE(message_id=12839*)
     "Wait! No, don't tell me. You strike me as a [man/woman] who's looking to learn a thing or two about synergy."
  8: 0x0029 [0x23] WAIT_FOR_DIALOG_INTERACTION
  9: 0x002A [0x03] Work_Zone[2] = 1234*
 10: 0x002F [0x24] CREATE_DIALOG(message_id=12840*, default_option=0*, option_flags=ExtData[1]->WorkLocal[79])
     "Learn about synergy? [Not today./Teach me!/Just give me $6.]"
 11: 0x0036 [0x25] WAIT_DIALOG_SELECT()
 12: 0x0037 [0x02] IF !(Work_Zone[0] == 0*) GOTO 0x004F
 13: 0x003F [0x1D] PRINT_EVENT_MESSAGE(message_id=12841*)
     "A life without intellectual curiosity is a life hardly worth living. Should your eyes one day open to this truth, you are free to return."
 14: 0x0042 [0x23] WAIT_FOR_DIALOG_INTERACTION
 15: 0x0043 [0x40] SET_BIT_WORK_RANGE(start_bit=0*, end_bit=3*, target=Work_Zone[1], source=0*)
 16: 0x004C [0x01] GOTO 0x0106
 17: 0x004F [0x02] IF !(Work_Zone[0] == 1*) GOTO 0x008E
 18: 0x0057 [0x1D] PRINT_EVENT_MESSAGE(message_id=12842*)
     "I thought you'd never ask! Synergy is both an art and a science: an evolution--nay, a revolution--in synthesis."
 19: 0x005A [0x23] WAIT_FOR_DIALOG_INTERACTION
 20: 0x005B [0x03] Work_Zone[2] = 1234*
 21: 0x0060 [0x1D] PRINT_EVENT_MESSAGE(message_id=12843*)
     "Using $6 in conjunction with a synergy furnace--the apparatus you see beside me--the synergist wields the power of myriad elements to fabricate a veritable host of potent items."
 22: 0x0063 [0x23] WAIT_FOR_DIALOG_INTERACTION
 23: 0x0064 [0x1D] PRINT_EVENT_MESSAGE(message_id=12844*)
     "What we call $6 serves to dispense fewell crystals--the lifeblood of the synergy process--whilst also protecting its contents from the volatile reactions that occur within the bowels of the furnace."
 24: 0x0067 [0x23] WAIT_FOR_DIALOG_INTERACTION
 25: 0x0068 [0x1D] PRINT_EVENT_MESSAGE(message_id=12845*)
     "Synergy furnaces have been installed throughout the city for the use of all synergists. The crucible is sufficiently compact and lightweight that you can carry it with you."
 26: 0x006B [0x23] WAIT_FOR_DIALOG_INTERACTION
 27: 0x006C [0x1D] PRINT_EVENT_MESSAGE(message_id=12846*)
     "Initiating the synergy process is as simple as inserting your $3 into a furnace and commencing the infusion of elemental fewell."
 28: 0x006F [0x23] WAIT_FOR_DIALOG_INTERACTION
 29: 0x0070 [0x1D] PRINT_EVENT_MESSAGE(message_id=12847*)
     "Needless to say, what will happen from there is not quite so simple."
 30: 0x0073 [0x23] WAIT_FOR_DIALOG_INTERACTION
 31: 0x0074 [0x1D] PRINT_EVENT_MESSAGE(message_id=12848*)
     "Successful synergy is contingent upon maintaining elemental equilibrium. The prescribed ratio, of course, will vary depending on the artifact you are attempting to create."
 32: 0x0077 [0x23] WAIT_FOR_DIALOG_INTERACTION
 33: 0x0078 [0x1D] PRINT_EVENT_MESSAGE(message_id=12849*)
     "You can increase the ratio of a particular element by burning the corresponding variety of fewell."
 34: 0x007B [0x23] WAIT_FOR_DIALOG_INTERACTION
 35: 0x007C [0x1D] PRINT_EVENT_MESSAGE(message_id=12850*)
     "But herein lies the rub: synergy is a still young science, and the technology we employ remains, shall we say...unstable."
 36: 0x007F [0x23] WAIT_FOR_DIALOG_INTERACTION
 37: 0x0080 [0x1D] PRINT_EVENT_MESSAGE(message_id=12851*)
     "A bit too much fewell here, a wrong lever pulled there, and the percolating pot will explode, spitting scalding elemental guck every which way to Firesday."
 38: 0x0083 [0x23] WAIT_FOR_DIALOG_INTERACTION
 39: 0x0084 [0x1D] PRINT_EVENT_MESSAGE(message_id=12852*)
     "That's why smart synergists synergize in numbers. Too many culinarians might spoil the broth, but when it comes to synergy, it's the more the merrier!"
 40: 0x0087 [0x23] WAIT_FOR_DIALOG_INTERACTION
 41: 0x0088 [0x01] GOTO 0x002A

SUBROUTINE_00F2:
 42: 0x00F2 [0x01] GOTO 0x0103
 43: 0x00F5 [0x02] IF !(Work_Zone[0] == 1*) GOTO 0x0103
 44: 0x00FD [0x01] GOTO 0x002A

SUBROUTINE_0103:
 45: 0x0103 [0x01] GOTO 0x0106

SUBROUTINE_0106:
 46: 0x0106 [0x01] GOTO 0x160C
 47: 0x0109 [0x02] IF !(ExtData[1]->WorkLocal[2] == 0*) GOTO 0x12E4
 48: 0x0111 [0x1D] PRINT_EVENT_MESSAGE(message_id=12673*)
     "Greetings, friend! I am a synergy engineer, dispatched from the Institute to maintain the furnaces you see beside me. I also have knowledge and services to share with fellow synergists, if that is what you desire."
 49: 0x0114 [0x23] WAIT_FOR_DIALOG_INTERACTION
 50: 0x0115 [0x05] ExtData[1]->WorkLocal[3] = 1

SUBROUTINE_0118:
 51: 0x0118 [0x02] IF !(ExtData[1]->WorkLocal[3] <= 0*) GOTO 0x12E1
 52: 0x0120 [0x24] CREATE_DIALOG(message_id=12676*, default_option=0*, option_flags=0*)
     "May I be of service? [Not now./Learn recipes./Check fewell./Replenish fewell./Purchase materials./Receive training./Trade cinder./Get information.]"
 53: 0x0127 [0x25] WAIT_DIALOG_SELECT()
 54: 0x0128 [0x02] IF !(Work_Zone[0] == 0*) GOTO 0x013F
 55: 0x0130 [0x06] ExtData[1]->WorkLocal[3] = 0
 56: 0x0133 [0x40] SET_BIT_WORK_RANGE(start_bit=0*, end_bit=3*, target=Work_Zone[1], source=0*)
 57: 0x013C [0x01] GOTO 0x12DE
 58: 0x013F [0x02] IF !(Work_Zone[0] == 1*) GOTO 0x0922
 59: 0x0147 [0x2E] SET_CLI_EVENT_CANCEL_FLAGS()
 60: 0x0148 [0x1D] PRINT_EVENT_MESSAGE(message_id=12677*)
     "Recipes, you say? Let's see what we have that's suitable for your level of expertise..."
 61: 0x014B [0x23] WAIT_FOR_DIALOG_INTERACTION
 62: 0x014C [0x40] SET_BIT_WORK_RANGE(start_bit=0*, end_bit=3*, target=Work_Zone[1], source=1*)
 63: 0x0155 [0x03] ExtData[1]->WorkLocal[36] = 0*
 64: 0x015A [0x03] ExtData[1]->WorkLocal[37] = 0*
 65: 0x015F [0x40] SET_BIT_WORK_RANGE(start_bit=4*, end_bit=7*, target=Work_Zone[1], source=ExtData[1]->WorkLocal[36])
 66: 0x0168 [0x40] SET_BIT_WORK_RANGE(start_bit=8*, end_bit=11*, target=Work_Zone[1], source=ExtData[1]->WorkLocal[37])
 67: 0x0171 [0x43] SEND_EVENT_UPDATE: Send pending tag to server (packet 0x005B)
 68: 0x0173 [0x43] SEND_EVENT_UPDATE: Check pending flag (skip if not pending)
 69: 0x0175 [0x03] ExtData[1]->WorkLocal[38] = Work_Zone[2]
 70: 0x017A [0x02] IF !(ExtData[1]->WorkLocal[38] == 0*) GOTO 0x0189
 71: 0x0182 [0x1D] PRINT_EVENT_MESSAGE(message_id=12678*)
     "...I'm sorry. I'm afraid there's nothing I can teach you at the moment."
 72: 0x0185 [0x23] WAIT_FOR_DIALOG_INTERACTION
 73: 0x0186 [0x01] GOTO 0x091E
 74: 0x0189 [0x03] ExtData[1]->WorkLocal[40] = Work_Zone[3]
 75: 0x018E [0x41] ExtData[1]->WorkLocal[42] = Work_Zone[4] (bits 0*-7*)
 76: 0x0197 [0x41] ExtData[1]->WorkLocal[43] = Work_Zone[4] (bits 8*-15*)
 77: 0x01A0 [0x41] ExtData[1]->WorkLocal[44] = Work_Zone[4] (bits 16*-23*)
 78: 0x01A9 [0x41] ExtData[1]->WorkLocal[45] = Work_Zone[4] (bits 24*-31*)
 79: 0x01B2 [0x41] ExtData[1]->WorkLocal[46] = Work_Zone[5] (bits 0*-7*)
 80: 0x01BB [0x41] ExtData[1]->WorkLocal[47] = Work_Zone[5] (bits 8*-15*)
 81: 0x01C4 [0x41] ExtData[1]->WorkLocal[48] = Work_Zone[5] (bits 16*-23*)
 82: 0x01CD [0x41] ExtData[1]->WorkLocal[49] = Work_Zone[5] (bits 24*-31*)
 83: 0x01D6 [0x03] ExtData[1]->WorkLocal[39] = Work_Zone[6]
 84: 0x01DB [0x03] ExtData[1]->WorkLocal[41] = Work_Zone[7]
 85: 0x01E0 [0x03] Work_Zone[2] = ExtData[1]->WorkLocal[40]
 86: 0x01E5 [0x1D] PRINT_EVENT_MESSAGE(message_id=12679*)
     "I've got it! How about $0? Mind you, it'll require a certain level of skill..."
 87: 0x01E8 [0x23] WAIT_FOR_DIALOG_INTERACTION
 88: 0x01E9 [0x02] IF !(ExtData[1]->WorkLocal[42] == 0*) GOTO 0x0229
 89: 0x01F1 [0x02] IF !(ExtData[1]->WorkLocal[44] == 0*) GOTO 0x0221
 90: 0x01F9 [0x02] IF !(ExtData[1]->WorkLocal[46] == 0*) GOTO 0x0219
 91: 0x0201 [0x02] IF !(ExtData[1]->WorkLocal[48] == 0*) GOTO 0x0211
 92: 0x0209 [0x03] ExtData[1]->WorkLocal[0] = 4*
 93: 0x020E [0x01] GOTO 0x0216
 94: 0x0211 [0x03] ExtData[1]->WorkLocal[0] = 3*

SUBROUTINE_0216:
 95: 0x0216 [0x01] GOTO 0x021E
 96: 0x0219 [0x03] ExtData[1]->WorkLocal[0] = 2*

SUBROUTINE_021E:
 97: 0x021E [0x01] GOTO 0x0226
 98: 0x0221 [0x03] ExtData[1]->WorkLocal[0] = 1*

SUBROUTINE_0226:
 99: 0x0226 [0x01] GOTO 0x022E
100: 0x0229 [0x03] ExtData[1]->WorkLocal[0] = 0*

SUBROUTINE_022E:
101: 0x022E [0x03] Work_Zone[2] = ExtData[1]->WorkLocal[41]
102: 0x0233 [0x15] Work_Zone[2] /= 10*
103: 0x0238 [0x02] IF !(Work_Zone[2] <= 9*) GOTO 0x0245
104: 0x0240 [0x03] Work_Zone[2] = 9*
105: 0x0245 [0x48] [System] [12680*]:
     "Synergy skill: [Amateur/Recruit/Initiate/Novice/Apprentice/Journeyman/Craftsman/Artisan/Adept/Veteran]."
106: 0x0248 [0x23] WAIT_FOR_DIALOG_INTERACTION
107: 0x0249 [0x03] Work_Zone[3] = ExtData[1]->WorkLocal[42]
108: 0x024E [0x03] Work_Zone[4] = ExtData[1]->WorkLocal[43]
109: 0x0253 [0x15] Work_Zone[4] /= 10*
110: 0x0258 [0x02] IF !(Work_Zone[4] <= 10*) GOTO 0x0265
111: 0x0260 [0x03] Work_Zone[4] = 10*
112: 0x0265 [0x03] Work_Zone[5] = ExtData[1]->WorkLocal[44]
113: 0x026A [0x03] Work_Zone[6] = ExtData[1]->WorkLocal[45]
114: 0x026F [0x15] Work_Zone[6] /= 10*
115: 0x0274 [0x02] IF !(Work_Zone[6] <= 10*) GOTO 0x0281
116: 0x027C [0x03] Work_Zone[6] = 10*
117: 0x0281 [0x03] Work_Zone[7] = ExtData[1]->WorkLocal[46]
118: 0x0286 [0x03] Work_Zone[8] = ExtData[1]->WorkLocal[47]
119: 0x028B [0x15] Work_Zone[8] /= 10*
120: 0x0290 [0x02] IF !(Work_Zone[8] <= 10*) GOTO 0x029D
121: 0x0298 [0x03] Work_Zone[8] = 10*
122: 0x029D [0x03] Work_Zone[9] = ExtData[1]->WorkLocal[48]
123: 0x02A2 [0x03] Work_Zone_1700[0] = ExtData[1]->WorkLocal[49]
124: 0x02A7 [0x15] Work_Zone_1700[0] /= 10*
125: 0x02AC [0x02] IF !(Work_Zone_1700[0] <= 10*) GOTO 0x02B9
126: 0x02B4 [0x03] Work_Zone_1700[0] = 10*
127: 0x02B9 [0x02] IF !(ExtData[1]->WorkLocal[0] == 0*) GOTO 0x02C4
128: 0x02C1 [0x01] GOTO 0x0300
129: 0x02C4 [0x02] IF !(ExtData[1]->WorkLocal[0] == 1*) GOTO 0x02D3
130: 0x02CC [0x48] [System] [12681*]:
     "[Fishing/Woodworking/Smithing/Goldsmithing/Clothcraft/Leathercraft/Bonecraft/Alchemy/Cooking/Fishing] skill: [Amateur/Recruit/Initiate/Novice/Apprentice/Journeyman/Craftsman/Artisan/Adept/Veteran/Expert]."
131: 0x02CF [0x23] WAIT_FOR_DIALOG_INTERACTION
132: 0x02D0 [0x01] GOTO 0x0300
133: 0x02D3 [0x02] IF !(ExtData[1]->WorkLocal[0] == 2*) GOTO 0x02E2
134: 0x02DB [0x48] [System] [12682*]:
     "[Fishing/Woodworking/Smithing/Goldsmithing/Clothcraft/Leathercraft/Bonecraft/Alchemy/Cooking/Fishing] skill: [Amateur/Recruit/Initiate/Novice/Apprentice/Journeyman/Craftsman/Artisan/Adept/Veteran/Expert]. [Fishing/Woodworking/Smithing/Goldsmithing/Clothcraft/Leathercraft/Bonecraft/Alchemy/Cooking/Fishing] skill: [Amateur/Recruit/Initiate/Novice/Apprentice/Journeyman/Craftsman/Artisan/Adept/Veteran/Expert]."
135: 0x02DE [0x23] WAIT_FOR_DIALOG_INTERACTION
136: 0x02DF [0x01] GOTO 0x0300
137: 0x02E2 [0x02] IF !(ExtData[1]->WorkLocal[0] == 3*) GOTO 0x02F1
138: 0x02EA [0x48] [System] [12683*]:
     "[Fishing/Woodworking/Smithing/Goldsmithing/Clothcraft/Leathercraft/Bonecraft/Alchemy/Cooking/Fishing] skill: [Amateur/Recruit/Initiate/Novice/Apprentice/Journeyman/Craftsman/Artisan/Adept/Veteran/Expert]. [Fishing/Woodworking/Smithing/Goldsmithing/Clothcraft/Leathercraft/Bonecraft/Alchemy/Cooking/Fishing] skill: [Amateur/Recruit/Initiate/Novice/Apprentice/Journeyman/Craftsman/Artisan/Adept/Veteran/Expert]. [Fishing/Woodworking/Smithing/Goldsmithing/Clothcraft/Leathercraft/Bonecraft/Alchemy/Cooking/Fishing] skill: [Amateur/Recruit/Initiate/Novice/Apprentice/Journeyman/Craftsman/Artisan/Adept/Veteran/Expert]."
139: 0x02ED [0x23] WAIT_FOR_DIALOG_INTERACTION
140: 0x02EE [0x01] GOTO 0x0300
141: 0x02F1 [0x02] IF !(ExtData[1]->WorkLocal[0] == 4*) GOTO 0x0300
142: 0x02F9 [0x48] [System] [12684*]:
     "[Fishing/Woodworking/Smithing/Goldsmithing/Clothcraft/Leathercraft/Bonecraft/Alchemy/Cooking/Fishing] skill: [Amateur/Recruit/Initiate/Novice/Apprentice/Journeyman/Craftsman/Artisan/Adept/Veteran/Expert]. [Fishing/Woodworking/Smithing/Goldsmithing/Clothcraft/Leathercraft/Bonecraft/Alchemy/Cooking/Fishing] skill: [Amateur/Recruit/Initiate/Novice/Apprentice/Journeyman/Craftsman/Artisan/Adept/Veteran/Expert]. [Fishing/Woodworking/Smithing/Goldsmithing/Clothcraft/Leathercraft/Bonecraft/Alchemy/Cooking/Fishing] skill: [Amateur/Recruit/Initiate/Novice/Apprentice/Journeyman/Craftsman/Artisan/Adept/Veteran/Expert]. [Fishing/Woodworking/Smithing/Goldsmithing/Clothcraft/Leathercraft/Bonecraft/Alchemy/Cooking/Fishing] skill: [Amateur/Recruit/Initiate/Novice/Apprentice/Journeyman/Craftsman/Artisan/Adept/Veteran/Expert]."
143: 0x02FC [0x23] WAIT_FOR_DIALOG_INTERACTION
144: 0x02FD [0x01] GOTO 0x0300

SUBROUTINE_0300:
145: 0x0300 [0x40] SET_BIT_WORK_RANGE(start_bit=0*, end_bit=3*, target=Work_Zone[1], source=1*)
146: 0x0309 [0x03] ExtData[1]->WorkLocal[36] = 1*
147: 0x030E [0x03] ExtData[1]->WorkLocal[37] = 0*
148: 0x0313 [0x40] SET_BIT_WORK_RANGE(start_bit=4*, end_bit=7*, target=Work_Zone[1], source=ExtData[1]->WorkLocal[36])
149: 0x031C [0x40] SET_BIT_WORK_RANGE(start_bit=8*, end_bit=11*, target=Work_Zone[1], source=ExtData[1]->WorkLocal[37])
150: 0x0325 [0x40] SET_BIT_WORK_RANGE(start_bit=12*, end_bit=27*, target=Work_Zone[1], source=ExtData[1]->WorkLocal[39])
151: 0x032E [0x43] SEND_EVENT_UPDATE: Send pending tag to server (packet 0x005B)
152: 0x0330 [0x43] SEND_EVENT_UPDATE: Check pending flag (skip if not pending)
153: 0x0332 [0x03] ExtData[1]->WorkLocal[50] = Work_Zone[2]
154: 0x0337 [0x03] ExtData[1]->WorkLocal[51] = Work_Zone[3]
155: 0x033C [0x03] ExtData[1]->WorkLocal[52] = Work_Zone[4]
156: 0x0341 [0x03] ExtData[1]->WorkLocal[53] = Work_Zone[5]
157: 0x0346 [0x03] ExtData[1]->WorkLocal[54] = Work_Zone[6]
158: 0x034B [0x03] ExtData[1]->WorkLocal[55] = Work_Zone[7]
159: 0x0350 [0x03] ExtData[1]->WorkLocal[56] = Work_Zone[8]
160: 0x0355 [0x03] ExtData[1]->WorkLocal[57] = Work_Zone[9]
161: 0x035A [0x02] IF !(ExtData[1]->WorkLocal[50] == 0*) GOTO 0x03DA
162: 0x0362 [0x02] IF !(ExtData[1]->WorkLocal[51] == 0*) GOTO 0x03D2
163: 0x036A [0x02] IF !(ExtData[1]->WorkLocal[52] == 0*) GOTO 0x03CA
164: 0x0372 [0x02] IF !(ExtData[1]->WorkLocal[53] == 0*) GOTO 0x03C2
165: 0x037A [0x02] IF !(ExtData[1]->WorkLocal[54] == 0*) GOTO 0x03BA
166: 0x0382 [0x02] IF !(ExtData[1]->WorkLocal[55] == 0*) GOTO 0x03B2
167: 0x038A [0x02] IF !(ExtData[1]->WorkLocal[56] == 0*) GOTO 0x03AA
168: 0x0392 [0x02] IF !(ExtData[1]->WorkLocal[57] == 0*) GOTO 0x03A2
169: 0x039A [0x03] ExtData[1]->WorkLocal[0] = 8*
170: 0x039F [0x01] GOTO 0x03A7
171: 0x03A2 [0x03] ExtData[1]->WorkLocal[0] = 7*

SUBROUTINE_03A7:
172: 0x03A7 [0x01] GOTO 0x03AF
173: 0x03AA [0x03] ExtData[1]->WorkLocal[0] = 6*

SUBROUTINE_03AF:
174: 0x03AF [0x01] GOTO 0x03B7
175: 0x03B2 [0x03] ExtData[1]->WorkLocal[0] = 5*

SUBROUTINE_03B7:
176: 0x03B7 [0x01] GOTO 0x03BF
177: 0x03BA [0x03] ExtData[1]->WorkLocal[0] = 4*

SUBROUTINE_03BF:
178: 0x03BF [0x01] GOTO 0x03C7
179: 0x03C2 [0x03] ExtData[1]->WorkLocal[0] = 3*

SUBROUTINE_03C7:
180: 0x03C7 [0x01] GOTO 0x03CF
181: 0x03CA [0x03] ExtData[1]->WorkLocal[0] = 2*

SUBROUTINE_03CF:
182: 0x03CF [0x01] GOTO 0x03D7
183: 0x03D2 [0x03] ExtData[1]->WorkLocal[0] = 1*

SUBROUTINE_03D7:
184: 0x03D7 [0x01] GOTO 0x03DF
185: 0x03DA [0x03] ExtData[1]->WorkLocal[0] = 0*

SUBROUTINE_03DF:
186: 0x03DF [0x1D] PRINT_EVENT_MESSAGE(message_id=12685*)
     "As for materials, you'll be needing..."
187: 0x03E2 [0x23] WAIT_FOR_DIALOG_INTERACTION
188: 0x03E3 [0x02] IF !(ExtData[1]->WorkLocal[0] == 0*) GOTO 0x03EE
189: 0x03EB [0x01] GOTO 0x06FE
190: 0x03EE [0x02] IF !(ExtData[1]->WorkLocal[0] == 1*) GOTO 0x040F
191: 0x03F6 [0x41] Work_Zone[2] = ExtData[1]->WorkLocal[50] (bits 0*-15*)
192: 0x03FF [0x41] Work_Zone[3] = ExtData[1]->WorkLocal[50] (bits 16*-23*)
193: 0x0408 [0x48] [System] [12686*]:
     "$1 $0 ."
194: 0x040B [0x23] WAIT_FOR_DIALOG_INTERACTION
195: 0x040C [0x01] GOTO 0x06FE
196: 0x040F [0x02] IF !(ExtData[1]->WorkLocal[0] == 2*) GOTO 0x0442
197: 0x0417 [0x41] Work_Zone[2] = ExtData[1]->WorkLocal[50] (bits 0*-15*)
198: 0x0420 [0x41] Work_Zone[3] = ExtData[1]->WorkLocal[50] (bits 16*-23*)
199: 0x0429 [0x41] Work_Zone[4] = ExtData[1]->WorkLocal[51] (bits 0*-15*)
200: 0x0432 [0x41] Work_Zone[5] = ExtData[1]->WorkLocal[51] (bits 16*-23*)
201: 0x043B [0x48] [System] [12687*]:
     "$1 $0 . $3 $0 ."
202: 0x043E [0x23] WAIT_FOR_DIALOG_INTERACTION
203: 0x043F [0x01] GOTO 0x06FE
204: 0x0442 [0x02] IF !(ExtData[1]->WorkLocal[0] == 3*) GOTO 0x0487
205: 0x044A [0x41] Work_Zone[2] = ExtData[1]->WorkLocal[50] (bits 0*-15*)
206: 0x0453 [0x41] Work_Zone[3] = ExtData[1]->WorkLocal[50] (bits 16*-23*)
207: 0x045C [0x41] Work_Zone[4] = ExtData[1]->WorkLocal[51] (bits 0*-15*)
208: 0x0465 [0x41] Work_Zone[5] = ExtData[1]->WorkLocal[51] (bits 16*-23*)
209: 0x046E [0x41] Work_Zone[6] = ExtData[1]->WorkLocal[52] (bits 0*-15*)
210: 0x0477 [0x41] Work_Zone[7] = ExtData[1]->WorkLocal[52] (bits 16*-23*)
211: 0x0480 [0x48] [System] [12688*]:
     "$1 $0 . $3 $0 . $5 $0$4 ."
212: 0x0483 [0x23] WAIT_FOR_DIALOG_INTERACTION
213: 0x0484 [0x01] GOTO 0x06FE
214: 0x0487 [0x02] IF !(ExtData[1]->WorkLocal[0] == 4*) GOTO 0x04DE
215: 0x048F [0x41] Work_Zone[2] = ExtData[1]->WorkLocal[50] (bits 0*-15*)
216: 0x0498 [0x41] Work_Zone[3] = ExtData[1]->WorkLocal[50] (bits 16*-23*)
217: 0x04A1 [0x41] Work_Zone[4] = ExtData[1]->WorkLocal[51] (bits 0*-15*)
218: 0x04AA [0x41] Work_Zone[5] = ExtData[1]->WorkLocal[51] (bits 16*-23*)
219: 0x04B3 [0x41] Work_Zone[6] = ExtData[1]->WorkLocal[52] (bits 0*-15*)
220: 0x04BC [0x41] Work_Zone[7] = ExtData[1]->WorkLocal[52] (bits 16*-23*)
221: 0x04C5 [0x41] Work_Zone[8] = ExtData[1]->WorkLocal[53] (bits 0*-15*)
222: 0x04CE [0x41] Work_Zone[9] = ExtData[1]->WorkLocal[53] (bits 16*-23*)
223: 0x04D7 [0x48] [System] [12689*]:
     "$1 $0 . $3 $0 . $5 $0$4 . $7 $0$6 ."
224: 0x04DA [0x23] WAIT_FOR_DIALOG_INTERACTION
225: 0x04DB [0x01] GOTO 0x06FE
226: 0x04DE [0x02] IF !(ExtData[1]->WorkLocal[0] == 5*) GOTO 0x054B
227: 0x04E6 [0x41] Work_Zone[2] = ExtData[1]->WorkLocal[50] (bits 0*-15*)
228: 0x04EF [0x41] Work_Zone[3] = ExtData[1]->WorkLocal[50] (bits 16*-23*)
229: 0x04F8 [0x41] Work_Zone[4] = ExtData[1]->WorkLocal[51] (bits 0*-15*)
230: 0x0501 [0x41] Work_Zone[5] = ExtData[1]->WorkLocal[51] (bits 16*-23*)
231: 0x050A [0x41] Work_Zone[6] = ExtData[1]->WorkLocal[52] (bits 0*-15*)
232: 0x0513 [0x41] Work_Zone[7] = ExtData[1]->WorkLocal[52] (bits 16*-23*)
233: 0x051C [0x41] Work_Zone[8] = ExtData[1]->WorkLocal[53] (bits 0*-15*)
234: 0x0525 [0x41] Work_Zone[9] = ExtData[1]->WorkLocal[53] (bits 16*-23*)
235: 0x052E [0x48] [System] [12689*]:
     "$1 $0 . $3 $0 . $5 $0$4 . $7 $0$6 ."
236: 0x0531 [0x23] WAIT_FOR_DIALOG_INTERACTION
237: 0x0532 [0x41] Work_Zone[2] = ExtData[1]->WorkLocal[54] (bits 0*-15*)
238: 0x053B [0x41] Work_Zone[3] = ExtData[1]->WorkLocal[54] (bits 16*-23*)
239: 0x0544 [0x48] [System] [12686*]:
     "$1 $0 ."
240: 0x0547 [0x23] WAIT_FOR_DIALOG_INTERACTION
241: 0x0548 [0x01] GOTO 0x06FE
242: 0x054B [0x02] IF !(ExtData[1]->WorkLocal[0] == 6*) GOTO 0x05CA
243: 0x0553 [0x41] Work_Zone[2] = ExtData[1]->WorkLocal[50] (bits 0*-15*)
244: 0x055C [0x41] Work_Zone[3] = ExtData[1]->WorkLocal[50] (bits 16*-23*)
245: 0x0565 [0x41] Work_Zone[4] = ExtData[1]->WorkLocal[51] (bits 0*-15*)
246: 0x056E [0x41] Work_Zone[5] = ExtData[1]->WorkLocal[51] (bits 16*-23*)
247: 0x0577 [0x41] Work_Zone[6] = ExtData[1]->WorkLocal[52] (bits 0*-15*)
248: 0x0580 [0x41] Work_Zone[7] = ExtData[1]->WorkLocal[52] (bits 16*-23*)
249: 0x0589 [0x41] Work_Zone[8] = ExtData[1]->WorkLocal[53] (bits 0*-15*)
250: 0x0592 [0x41] Work_Zone[9] = ExtData[1]->WorkLocal[53] (bits 16*-23*)
251: 0x059B [0x48] [System] [12689*]:
     "$1 $0 . $3 $0 . $5 $0$4 . $7 $0$6 ."
252: 0x059E [0x23] WAIT_FOR_DIALOG_INTERACTION
253: 0x059F [0x41] Work_Zone[2] = ExtData[1]->WorkLocal[54] (bits 0*-15*)
254: 0x05A8 [0x41] Work_Zone[3] = ExtData[1]->WorkLocal[54] (bits 16*-23*)
255: 0x05B1 [0x41] Work_Zone[4] = ExtData[1]->WorkLocal[55] (bits 0*-15*)
256: 0x05BA [0x41] Work_Zone[5] = ExtData[1]->WorkLocal[55] (bits 16*-23*)
257: 0x05C3 [0x48] [System] [12687*]:
     "$1 $0 . $3 $0 ."
258: 0x05C6 [0x23] WAIT_FOR_DIALOG_INTERACTION
259: 0x05C7 [0x01] GOTO 0x06FE
260: 0x05CA [0x02] IF !(ExtData[1]->WorkLocal[0] == 7*) GOTO 0x065B
261: 0x05D2 [0x41] Work_Zone[2] = ExtData[1]->WorkLocal[50] (bits 0*-15*)
262: 0x05DB [0x41] Work_Zone[3] = ExtData[1]->WorkLocal[50] (bits 16*-23*)
263: 0x05E4 [0x41] Work_Zone[4] = ExtData[1]->WorkLocal[51] (bits 0*-15*)
264: 0x05ED [0x41] Work_Zone[5] = ExtData[1]->WorkLocal[51] (bits 16*-23*)
265: 0x05F6 [0x41] Work_Zone[6] = ExtData[1]->WorkLocal[52] (bits 0*-15*)
266: 0x05FF [0x41] Work_Zone[7] = ExtData[1]->WorkLocal[52] (bits 16*-23*)
267: 0x0608 [0x41] Work_Zone[8] = ExtData[1]->WorkLocal[53] (bits 0*-15*)
268: 0x0611 [0x41] Work_Zone[9] = ExtData[1]->WorkLocal[53] (bits 16*-23*)
269: 0x061A [0x48] [System] [12689*]:
     "$1 $0 . $3 $0 . $5 $0$4 . $7 $0$6 ."
270: 0x061D [0x23] WAIT_FOR_DIALOG_INTERACTION
271: 0x061E [0x41] Work_Zone[2] = ExtData[1]->WorkLocal[54] (bits 0*-15*)
272: 0x0627 [0x41] Work_Zone[3] = ExtData[1]->WorkLocal[54] (bits 16*-23*)
273: 0x0630 [0x41] Work_Zone[4] = ExtData[1]->WorkLocal[55] (bits 0*-15*)
274: 0x0639 [0x41] Work_Zone[5] = ExtData[1]->WorkLocal[55] (bits 16*-23*)
275: 0x0642 [0x41] Work_Zone[6] = ExtData[1]->WorkLocal[56] (bits 0*-15*)
276: 0x064B [0x41] Work_Zone[7] = ExtData[1]->WorkLocal[56] (bits 16*-23*)
277: 0x0654 [0x48] [System] [12688*]:
     "$1 $0 . $3 $0 . $5 $0$4 ."
278: 0x0657 [0x23] WAIT_FOR_DIALOG_INTERACTION
279: 0x0658 [0x01] GOTO 0x06FE
280: 0x065B [0x02] IF !(ExtData[1]->WorkLocal[0] == 8*) GOTO 0x06FE
281: 0x0663 [0x41] Work_Zone[2] = ExtData[1]->WorkLocal[50] (bits 0*-15*)
282: 0x066C [0x41] Work_Zone[3] = ExtData[1]->WorkLocal[50] (bits 16*-23*)
283: 0x0675 [0x41] Work_Zone[4] = ExtData[1]->WorkLocal[51] (bits 0*-15*)
284: 0x067E [0x41] Work_Zone[5] = ExtData[1]->WorkLocal[51] (bits 16*-23*)
285: 0x0687 [0x41] Work_Zone[6] = ExtData[1]->WorkLocal[52] (bits 0*-15*)
286: 0x0690 [0x41] Work_Zone[7] = ExtData[1]->WorkLocal[52] (bits 16*-23*)
287: 0x0699 [0x41] Work_Zone[8] = ExtData[1]->WorkLocal[53] (bits 0*-15*)
288: 0x06A2 [0x41] Work_Zone[9] = ExtData[1]->WorkLocal[53] (bits 16*-23*)
289: 0x06AB [0x48] [System] [12689*]:
     "$1 $0 . $3 $0 . $5 $0$4 . $7 $0$6 ."
290: 0x06AE [0x23] WAIT_FOR_DIALOG_INTERACTION
291: 0x06AF [0x41] Work_Zone[2] = ExtData[1]->WorkLocal[54] (bits 0*-15*)
292: 0x06B8 [0x41] Work_Zone[3] = ExtData[1]->WorkLocal[54] (bits 16*-23*)
293: 0x06C1 [0x41] Work_Zone[4] = ExtData[1]->WorkLocal[55] (bits 0*-15*)
294: 0x06CA [0x41] Work_Zone[5] = ExtData[1]->WorkLocal[55] (bits 16*-23*)
295: 0x06D3 [0x41] Work_Zone[6] = ExtData[1]->WorkLocal[56] (bits 0*-15*)
296: 0x06DC [0x41] Work_Zone[7] = ExtData[1]->WorkLocal[56] (bits 16*-23*)
297: 0x06E5 [0x41] Work_Zone[8] = ExtData[1]->WorkLocal[57] (bits 0*-15*)
298: 0x06EE [0x41] Work_Zone[9] = ExtData[1]->WorkLocal[57] (bits 16*-23*)
299: 0x06F7 [0x48] [System] [12689*]:
     "$1 $0 . $3 $0 . $5 $0$4 . $7 $0$6 ."
300: 0x06FA [0x23] WAIT_FOR_DIALOG_INTERACTION
301: 0x06FB [0x01] GOTO 0x06FE

SUBROUTINE_06FE:
302: 0x06FE [0x40] SET_BIT_WORK_RANGE(start_bit=0*, end_bit=3*, target=Work_Zone[1], source=1*)
303: 0x0707 [0x03] ExtData[1]->WorkLocal[36] = 2*
304: 0x070C [0x03] ExtData[1]->WorkLocal[37] = 0*
305: 0x0711 [0x40] SET_BIT_WORK_RANGE(start_bit=4*, end_bit=7*, target=Work_Zone[1], source=ExtData[1]->WorkLocal[36])
306: 0x071A [0x40] SET_BIT_WORK_RANGE(start_bit=8*, end_bit=11*, target=Work_Zone[1], source=ExtData[1]->WorkLocal[37])
307: 0x0723 [0x40] SET_BIT_WORK_RANGE(start_bit=12*, end_bit=27*, target=Work_Zone[1], source=ExtData[1]->WorkLocal[39])
308: 0x072C [0x43] SEND_EVENT_UPDATE: Send pending tag to server (packet 0x005B)
309: 0x072E [0x43] SEND_EVENT_UPDATE: Check pending flag (skip if not pending)
310: 0x0730 [0x03] ExtData[1]->WorkLocal[0] = 0*
311: 0x0735 [0x3E] IF !(Work_Zone[2] bit 0*) GOTO 0x0747
312: 0x073C [0x03] ExtData[1]->WorkLocal[58] = 1*
313: 0x0741 [0x0B] ExtData[1]->WorkLocal[0]++
314: 0x0744 [0x01] GOTO 0x074C
315: 0x0747 [0x03] ExtData[1]->WorkLocal[58] = 0*

SUBROUTINE_074C:
316: 0x074C [0x3E] IF !(Work_Zone[2] bit 1*) GOTO 0x075E
317: 0x0753 [0x03] ExtData[1]->WorkLocal[60] = 2*
318: 0x0758 [0x0B] ExtData[1]->WorkLocal[0]++
319: 0x075B [0x01] GOTO 0x0763
320: 0x075E [0x03] ExtData[1]->WorkLocal[60] = 0*

SUBROUTINE_0763:
321: 0x0763 [0x3E] IF !(Work_Zone[2] bit 2*) GOTO 0x0775
322: 0x076A [0x03] ExtData[1]->WorkLocal[62] = 3*
323: 0x076F [0x0B] ExtData[1]->WorkLocal[0]++
324: 0x0772 [0x01] GOTO 0x077A
325: 0x0775 [0x03] ExtData[1]->WorkLocal[62] = 0*

SUBROUTINE_077A:
326: 0x077A [0x3E] IF !(Work_Zone[2] bit 3*) GOTO 0x078C
327: 0x0781 [0x03] ExtData[1]->WorkLocal[64] = 4*
328: 0x0786 [0x0B] ExtData[1]->WorkLocal[0]++
329: 0x0789 [0x01] GOTO 0x0791
330: 0x078C [0x03] ExtData[1]->WorkLocal[64] = 0*

SUBROUTINE_0791:
331: 0x0791 [0x3E] IF !(Work_Zone[2] bit 4*) GOTO 0x07A3
332: 0x0798 [0x03] ExtData[1]->WorkLocal[66] = 5*
333: 0x079D [0x0B] ExtData[1]->WorkLocal[0]++
334: 0x07A0 [0x01] GOTO 0x07A8
335: 0x07A3 [0x03] ExtData[1]->WorkLocal[66] = 0*

SUBROUTINE_07A8:
336: 0x07A8 [0x3E] IF !(Work_Zone[2] bit 5*) GOTO 0x07BA
337: 0x07AF [0x03] ExtData[1]->WorkLocal[68] = 6*
338: 0x07B4 [0x0B] ExtData[1]->WorkLocal[0]++
339: 0x07B7 [0x01] GOTO 0x07BF
340: 0x07BA [0x03] ExtData[1]->WorkLocal[68] = 0*

SUBROUTINE_07BF:
341: 0x07BF [0x3E] IF !(Work_Zone[2] bit 6*) GOTO 0x07D1
342: 0x07C6 [0x03] ExtData[1]->WorkLocal[70] = 7*
343: 0x07CB [0x0B] ExtData[1]->WorkLocal[0]++
344: 0x07CE [0x01] GOTO 0x07D6
345: 0x07D1 [0x03] ExtData[1]->WorkLocal[70] = 0*

SUBROUTINE_07D6:
346: 0x07D6 [0x3E] IF !(Work_Zone[2] bit 7*) GOTO 0x07E8
347: 0x07DD [0x03] ExtData[1]->WorkLocal[72] = 8*
348: 0x07E2 [0x0B] ExtData[1]->WorkLocal[0]++
349: 0x07E5 [0x01] GOTO 0x07ED
350: 0x07E8 [0x03] ExtData[1]->WorkLocal[72] = 0*

SUBROUTINE_07ED:
351: 0x07ED [0x03] ExtData[1]->WorkLocal[74] = ExtData[1]->WorkLocal[0]
352: 0x07F2 [0x41] ExtData[1]->WorkLocal[59] = Work_Zone[3] (bits 0*-7*)
353: 0x07FB [0x41] ExtData[1]->WorkLocal[61] = Work_Zone[3] (bits 8*-15*)
354: 0x0804 [0x41] ExtData[1]->WorkLocal[63] = Work_Zone[3] (bits 16*-23*)
355: 0x080D [0x41] ExtData[1]->WorkLocal[65] = Work_Zone[3] (bits 24*-31*)
356: 0x0816 [0x41] ExtData[1]->WorkLocal[67] = Work_Zone[4] (bits 0*-7*)
357: 0x081F [0x41] ExtData[1]->WorkLocal[69] = Work_Zone[4] (bits 8*-15*)
358: 0x0828 [0x41] ExtData[1]->WorkLocal[71] = Work_Zone[4] (bits 16*-23*)
359: 0x0831 [0x41] ExtData[1]->WorkLocal[73] = Work_Zone[4] (bits 24*-31*)
360: 0x083A [0x03] ExtData[1]->WorkLocal[75] = ExtData[1]->WorkLocal[58]
361: 0x083F [0x03] ExtData[1]->WorkLocal[76] = ExtData[1]->WorkLocal[59]
362: 0x0844 [0x1A] CALL_SUBROUTINE(address=0x160F)
363: 0x0847 [0x03] ExtData[1]->WorkLocal[75] = ExtData[1]->WorkLocal[60]
364: 0x084C [0x03] ExtData[1]->WorkLocal[76] = ExtData[1]->WorkLocal[61]
365: 0x0851 [0x1A] CALL_SUBROUTINE(address=0x160F)
366: 0x0854 [0x03] ExtData[1]->WorkLocal[75] = ExtData[1]->WorkLocal[62]
367: 0x0859 [0x03] ExtData[1]->WorkLocal[76] = ExtData[1]->WorkLocal[63]
368: 0x085E [0x1A] CALL_SUBROUTINE(address=0x160F)
369: 0x0861 [0x03] ExtData[1]->WorkLocal[75] = ExtData[1]->WorkLocal[64]
370: 0x0866 [0x03] ExtData[1]->WorkLocal[76] = ExtData[1]->WorkLocal[65]
371: 0x086B [0x1A] CALL_SUBROUTINE(address=0x160F)
372: 0x086E [0x03] ExtData[1]->WorkLocal[75] = ExtData[1]->WorkLocal[66]
373: 0x0873 [0x03] ExtData[1]->WorkLocal[76] = ExtData[1]->WorkLocal[67]
374: 0x0878 [0x1A] CALL_SUBROUTINE(address=0x160F)
375: 0x087B [0x03] ExtData[1]->WorkLocal[75] = ExtData[1]->WorkLocal[68]
376: 0x0880 [0x03] ExtData[1]->WorkLocal[76] = ExtData[1]->WorkLocal[69]
377: 0x0885 [0x1A] CALL_SUBROUTINE(address=0x160F)
378: 0x0888 [0x03] ExtData[1]->WorkLocal[75] = ExtData[1]->WorkLocal[70]
379: 0x088D [0x03] ExtData[1]->WorkLocal[76] = ExtData[1]->WorkLocal[71]
380: 0x0892 [0x1A] CALL_SUBROUTINE(address=0x160F)
381: 0x0895 [0x03] ExtData[1]->WorkLocal[75] = ExtData[1]->WorkLocal[72]
382: 0x089A [0x03] ExtData[1]->WorkLocal[76] = ExtData[1]->WorkLocal[73]
383: 0x089F [0x1A] CALL_SUBROUTINE(address=0x160F)
