# 17740187

## Common Data

| Field            | Value                    |
|------------------|--------------------------|
| Zone             | Bastok Markets (ID: 235) |
| Block Size       | 8340 bytes               |
| Total Events     | 3                        |
| References Count | 221                      |

## List of Events

| Event ID              | Entrypoint   |   Size |   Instructions |
|-----------------------|--------------|--------|----------------|
| [65535](#event-65535) | 0x0000       |      1 |              1 |
| [586](#event-586)     | 0x0001       |   3210 |            479 |
| [587](#event-587)     | 0x0C8B       |   4215 |            600 |

## DAT References (imed_data)

|   Index | Hex Value   |   Dec Value |
|---------|-------------|-------------|
|       0 | 0x0001      |           1 |
|       1 | 0x00C8      |         200 |
|       2 | 0x0000      |           0 |
|       3 | 0x0013      |          19 |
|       4 | 0xFFFB625C  |  4294664796 |
|       5 | 0xFFFE19AC  |  4294842796 |
|       6 | 0xFFFFD8F0  |  4294957296 |
|       7 | 0x05FF      |        1535 |
|       8 | 0xFFFB1248  |  4294644296 |
|       9 | 0xFFFDE8D8  |  4294830296 |
|      10 | 0xFFFFFE01  |  4294966785 |
|      11 | 0x03E8      |        1000 |
|      12 | 0x0190      |         400 |
|      13 | 0x0017      |          23 |
|      14 | 0x05DC      |        1500 |
|      15 | 0x07D0      |        2000 |
|      16 | 0x1194      |        4500 |
|      17 | 0x0DAC      |        3500 |
|      18 | 0x0088      |         136 |
|      19 | 0xFFFB337C  |  4294652796 |
|      20 | 0xFFFDECC0  |  4294831296 |
|      21 | 0x00FA      |         250 |
|      22 | 0x000F      |          15 |
|      23 | 0x027D      |         637 |
|      24 | 0x00B4      |         180 |
|      25 | 0xFFFB3188  |  4294652296 |
|      26 | 0xFFFDFE54  |  4294835796 |
|      27 | 0xFFFAFAD8  |  4294638296 |
|      28 | 0xFFFDC7A4  |  4294821796 |
|      29 | 0x001E      |          30 |
|      30 | 0x0078      |         120 |
|      31 | 0x005A      |          90 |
|      32 | 0xFFFB1A18  |  4294646296 |
|      33 | 0xFFFB1824  |  4294645796 |
|      34 | 0xFFFDF29C  |  4294832796 |
|      35 | 0xFFFB1054  |  4294643796 |
|      36 | 0xFFFDF684  |  4294833796 |
|      37 | 0x023F      |         575 |
|      38 | 0x0064      |         100 |
|      39 | 0x0019      |          25 |
|      40 | 0x01FF      |         511 |
|      41 | 0x0005      |           5 |
|      42 | 0x003C      |          60 |
|      43 | 0x0016      |          22 |
|      44 | 0x01F4      |         500 |
|      45 | 0x0320      |         800 |
|      46 | 0x012C      |         300 |
|      47 | 0x0014      |          20 |
|      48 | 0xFFFDEACC  |  4294830796 |
|      49 | 0x3729      |       14121 |
|      50 | 0x372A      |       14122 |
|      51 | 0x3730      |       14128 |
|      52 | 0x0081      |         129 |
|      53 | 0xFFFDF490  |  4294833296 |
|      54 | 0xFFFFD53A  |  4294956346 |
|      55 | 0xFFFFD5AE  |  4294956462 |
|      56 | 0x372B      |       14123 |
|      57 | 0x372C      |       14124 |
|      58 | 0x372D      |       14125 |
|      59 | 0x372E      |       14126 |
|      60 | 0x372F      |       14127 |
|      61 | 0x3731      |       14129 |
|      62 | 0x3732      |       14130 |
|      63 | 0x3733      |       14131 |
|      64 | 0x3734      |       14132 |
|      65 | 0x3735      |       14133 |
|      66 | 0x3736      |       14134 |
|      67 | 0x3737      |       14135 |
|      68 | 0x3738      |       14136 |
|      69 | 0x0006      |           6 |
|      70 | 0x3739      |       14137 |
|      71 | 0x373A      |       14138 |
|      72 | 0x373B      |       14139 |
|      73 | 0x373C      |       14140 |
|      74 | 0xFFFFFB01  |  4294966017 |
|      75 | 0x3740      |       14144 |
|      76 | 0x3741      |       14145 |
|      77 | 0x373D      |       14141 |
|      78 | 0x3742      |       14146 |
|      79 | 0x3743      |       14147 |
|      80 | 0x3744      |       14148 |
|      81 | 0x3745      |       14149 |
|      82 | 0x3746      |       14150 |
|      83 | 0x3747      |       14151 |
|      84 | 0x3748      |       14152 |
|      85 | 0x3749      |       14153 |
|      86 | 0x374A      |       14154 |
|      87 | 0x374B      |       14155 |
|      88 | 0x374C      |       14156 |
|      89 | 0x374D      |       14157 |
|      90 | 0x007A      |         122 |
|      91 | 0x010E      |         270 |
|      92 | 0x374E      |       14158 |
|      93 | 0x0002      |           2 |
|      94 | 0xFFFA77FC  |  4294604796 |
|      95 | 0xFFFD371C  |  4294784796 |
|      96 | 0xFFFFD6FC  |  4294956796 |
|      97 | 0xFFFAA4E8  |  4294616296 |
|      98 | 0xFFFD6408  |  4294796296 |
|      99 | 0x01A4      |         420 |
|     100 | 0x0CFB      |        3323 |
|     101 | 0x112B      |        4395 |
|     102 | 0x374F      |       14159 |
|     103 | 0x3750      |       14160 |
|     104 | 0xFFFACBF8  |  4294626296 |
|     105 | 0xFFFD8B18  |  4294806296 |
|     106 | 0x373E      |       14142 |
|     107 | 0x373F      |       14143 |
|     108 | 0x0098      |         152 |
|     109 | 0x0007      |           7 |
|     110 | 0x0003      |           3 |
|     111 | 0x3778      |       14200 |
|     112 | 0x3751      |       14161 |
|     113 | 0x3752      |       14162 |
|     114 | 0x3753      |       14163 |
|     115 | 0x3754      |       14164 |
|     116 | 0x0004      |           4 |
|     117 | 0x000A      |          10 |
|     118 | 0x000C      |          12 |
|     119 | 0x0010      |          16 |
|     120 | 0x3755      |       14165 |
|     121 | 0x3758      |       14168 |
|     122 | 0x182A      |        6186 |
|     123 | 0x182D      |        6189 |
|     124 | 0x182C      |        6188 |
|     125 | 0x182B      |        6187 |
|     126 | 0x3756      |       14166 |
|     127 | 0x1EF0      |        7920 |
|     128 | 0x3757      |       14167 |
|     129 | 0x0012      |          18 |
|     130 | 0x0011      |          17 |
|     131 | 0x3759      |       14169 |
|     132 | 0xFFFB143C  |  4294644796 |
|     133 | 0xFFFDE1D0  |  4294828496 |
|     134 | 0xFFFAF8E4  |  4294637796 |
|     135 | 0xFFFDB41C  |  4294816796 |
|     136 | 0xFFFB0884  |  4294641796 |
|     137 | 0xFFFDC3BC  |  4294820796 |
|     138 | 0x0096      |         150 |
|     139 | 0x168E      |        5774 |
|     140 | 0x3763      |       14179 |
|     141 | 0x3764      |       14180 |
|     142 | 0x3765      |       14181 |
|     143 | 0xFFFB0F5A  |  4294643546 |
|     144 | 0xFFFDEC0C  |  4294831116 |
|     145 | 0xFFFFFD81  |  4294966657 |
|     146 | 0xFFFB094C  |  4294641996 |
|     147 | 0xFFFDC998  |  4294822296 |
|     148 | 0xFFFB0780  |  4294641536 |
|     149 | 0xFFFDCB8C  |  4294822796 |
|     150 | 0xFFFB0F8C  |  4294643596 |
|     151 | 0xFFFDEEB4  |  4294831796 |
|     152 | 0x0028      |          40 |
|     153 | 0xFFFB1022  |  4294643746 |
|     154 | 0xFFFDF170  |  4294832496 |
|     155 | 0xFFFFFC81  |  4294966401 |
|     156 | 0x00BC      |         188 |
|     157 | 0x3766      |       14182 |
|     158 | 0x3767      |       14183 |
|     159 | 0x3768      |       14184 |
|     160 | 0x3769      |       14185 |
|     161 | 0x376A      |       14186 |
|     162 | 0x376B      |       14187 |
|     163 | 0x376C      |       14188 |
|     164 | 0x376D      |       14189 |
|     165 | 0x376E      |       14190 |
|     166 | 0x376F      |       14191 |
|     167 | 0x3770      |       14192 |
|     168 | 0x3771      |       14193 |
|     169 | 0x3772      |       14194 |
|     170 | 0x05BF      |        1471 |
|     171 | 0x1434      |        5172 |
|     172 | 0x168F      |        5775 |
|     173 | 0x3773      |       14195 |
|     174 | 0xFFFAF6F0  |  4294637296 |
|     175 | 0xFFFDBBEC  |  4294818796 |
|     176 | 0x3774      |       14196 |
|     177 | 0x3775      |       14197 |
|     178 | 0x3776      |       14198 |
|     179 | 0x3777      |       14199 |
|     180 | 0xFFFB50C8  |  4294660296 |
|     181 | 0xFFFE0A0C  |  4294838796 |
|     182 | 0xFFFB3F34  |  4294655796 |
|     183 | 0xFFFDF878  |  4294834296 |
|     184 | 0x1127      |        4391 |
|     185 | 0x375A      |       14170 |
|     186 | 0x168D      |        5773 |
|     187 | 0x375B      |       14171 |
|     188 | 0x375C      |       14172 |
|     189 | 0x375D      |       14173 |
|     190 | 0x375E      |       14174 |
|     191 | 0x375F      |       14175 |
|     192 | 0x3760      |       14176 |
|     193 | 0x3761      |       14177 |
|     194 | 0x3762      |       14178 |
|     195 | 0x1044      |        4164 |
|     196 | 0x2088      |        8328 |
|     197 | 0x0411      |        1041 |
|     198 | 0x0822      |        2082 |
|     199 | 0x0300      |         768 |
|     200 | 0x0008      |           8 |
|     201 | 0x0009      |           9 |
|     202 | 0x000B      |          11 |
|     203 | 0x000D      |          13 |
|     204 | 0x000E      |          14 |
|     205 | 0x7455      |       29781 |
|     206 | 0x0015      |          21 |
|     207 | 0x0018      |          24 |
|     208 | 0x001B      |          27 |
|     209 | 0x6C4F      |       27727 |
|     210 | 0x6C4E      |       27726 |
|     211 | 0x6FEB      |       28651 |
|     212 | 0x6FEA      |       28650 |
|     213 | 0x2237      |        8759 |
|     214 | 0x2236      |        8758 |
|     215 | 0x6F5E      |       28510 |
|     216 | 0x6F5D      |       28509 |
|     217 | 0x6C6C      |       27756 |
|     218 | 0x6FEF      |       28655 |
|     219 | 0x2208      |        8712 |
|     220 | 0x6F5F      |       28511 |

## String References

- **14141**: Help find his friends? [Of course! I love jiggling!/No, thanks. Too much work.]
- **14156**: Be whisked outside town? [On feathered wings!/I'd prefer to stay here.]
- **14162**: Any requests? ($0 coins) [I want to check available items./I want to be warped outside town./Nothing in particular.]
- **14163**: Check which item? (Total: $0 coin[/s]) [???/$1. ($2 coin[/s])/???/$3. ($4 coin[/s])/???/$5. ($6 coin[/s])/???/$7. ($8 coin[/s])/$9. ($10 coin[/s])/$11. ($12 coin[/s])/???/$13. ($14 coin[/s])/???/$15. ($16 coin[/s])/$17. ($18 coin[/s])/[Next page/Previous page].@@/Back.]
- **14168**: Ready for the exchange? ($0 coin[/s]) [Ready, Freddy!/Hang on, Helga.]

## Events

### Event 65535

#### Metadata

| Field        | Value   |
|--------------|---------|
| Entrypoint   | 0x0000  |
| Data Size    | 1 bytes |
| Instructions | 1       |

```
      00 01 02 03 04 05 06 07  08 09 0A 0B 0C 0D 0E 0F
      -- -- -- -- -- -- -- --  -- -- -- -- -- -- -- --
0000: 00                                                .               
```

#### Opcodes

```
  0: 0x0000 [0x00] END_REQSTACK()
```

### Event 586

#### Metadata

| Field        | Value      |
|--------------|------------|
| Entrypoint   | 0x0001     |
| Data Size    | 3210 bytes |
| Instructions | 479        |

```
      00 01 02 03 04 05 06 07  08 09 0A 0B 0C 0D 0E 0F
      -- -- -- -- -- -- -- --  -- -- -- -- -- -- -- --
0000:    03 00 00 02 10 03 01  00 03 10 03 02 00 00 80   ...............
0010: 42 45 01 80 F0 FF FF 7F  F0 FF FF 7F 66 64 6F 31  BE..........fdo1
0020: 02 80 55 01 80 F0 FF FF  7F F0 FF FF 7F 66 64 6F  ..U..........fdo
0030: 31 46 01 38 03 80 92 01  9C B1 0E 01 94 01 9C B1  1F.8............
0040: 0E 01 94 01 F0 FF FF 7F  94 01 9F B1 0E 01 59 05  ..............Y.
0050: 9F B1 0E 01 01 02 00 00  02 80 00 9B 08 BA 9C B1  ................
0060: 0E 01 04 80 05 80 06 80  07 80 BA F0 FF FF 7F 08  ................
0070: 80 09 80 06 80 0A 80 4A  F0 FF FF 7F 9C B1 0E 01  .......J........
0080: 80 9C B1 0E 01 80 F0 FF  FF 7F 2F 00 A1 B1 0E 01  ........../.....
0090: 2F 00 A2 B1 0E 01 2F 00  A3 B1 0E 01 2F 00 9F B1  /...../...../...
00A0: 0E 01 4E 00 9F B1 0E 01  03 03 00 04 80 03 04 00  ..N.............
00B0: 05 80 03 05 00 06 80 07  03 00 0B 80 07 04 00 0B  ................
00C0: 80 07 05 00 0C 80 BA 9F  B1 0E 01 03 00 04 00 05  ................
00D0: 00 07 80 BB 0D 80 9F B1  0E 01 9F B1 0E 01 73 74  ..............st
00E0: 61 74 02 80 80 9F B1 0E  01 92 01 75 B0 0E 01 92  at.........u....
00F0: 01 74 B0 0E 01 92 01 34  B0 0E 01 92 01 35 B0 0E  .t.....4.....5..
0100: 01 92 01 33 B0 0E 01 92  01 A3 B0 0E 01 92 01 06  ...3............
0110: B0 0E 01 92 01 07 B0 0E  01 94 01 06 B0 0E 01 94  ................
0120: 01 07 B0 0E 01 03 03 00  04 80 07 03 00 0E 80 03  ................
0130: 04 00 05 80 07 04 00 0F  80 03 05 00 06 80 03 06  ................
0140: 00 07 80 BA 06 B0 0E 01  03 00 04 00 05 00 06 00  ................
0150: 03 03 00 04 80 07 03 00  10 80 03 04 00 05 80 07  ................
0160: 04 00 11 80 BA 07 B0 0E  01 03 00 04 00 05 00 06  ................
0170: 00 80 06 B0 0E 01 80 07  B0 0E 01 5C 00 12 80 5C  ...........\...\
0180: 01 12 80 9A 59 05 9C B1  0E 01 00 03 00 17 13 80  ....Y...........
0190: 03 01 17 14 80 03 02 17  06 80 27 10 9C B1 0E 01  ..........'.....
01A0: 03 03 1D 17 13 80 03 1E  17 14 80 03 1F 17 06 80  ................
01B0: 07 1D 17 0B 80 07 1E 17  0B 80 07 1F 17 0C 80 27  ...............'
01C0: 10 9F B1 0E 01 03 03 04  17 13 80 03 05 17 14 80  ................
01D0: 08 05 17 15 80 03 06 17  06 80 27 10 06 B0 0E 01  ..........'.....
01E0: 0E 03 08 17 13 80 03 09  17 14 80 07 09 17 15 80  ................
01F0: 03 0A 17 06 80 27 10 07  B0 0E 01 0D 1C 16 80 45  .....'.........E
0200: 17 80 F8 FF FF 7F F8 FF  FF 7F 73 31 30 30 02 80  ..........s100..
0210: 45 01 80 F0 FF FF 7F F0  FF FF 7F 66 64 69 31 02  E..........fdi1.
0220: 80 1C 18 80 45 01 80 F0  FF FF 7F F0 FF FF 7F 66  ....E..........f
0230: 64 6F 31 02 80 55 01 80  F0 FF FF 7F F0 FF FF 7F  do1..U..........
0240: 66 64 6F 31 52 17 80 F8  FF FF 7F F8 FF FF 7F 73  fdo1R..........s
0250: 31 30 30 45 17 80 F8 FF  FF 7F F8 FF FF 7F 62 6F  100E..........bo
0260: 66 66 02 80 55 17 80 F8  FF FF 7F F8 FF FF 7F 62  ff..U..........b
0270: 6F 66 66 45 01 80 F0 FF  FF 7F F0 FF FF 7F 66 64  offE..........fd
0280: 69 31 02 80 45 17 80 F8  FF FF 7F F8 FF FF 7F 73  i1..E..........s
0290: 31 30 31 02 80 7A 00 9C  B1 0E 01 BA 9C B1 0E 01  101..z..........
02A0: 19 80 1A 80 06 80 07 80  BB 0D 80 9F B1 0E 01 9F  ................
02B0: B1 0E 01 73 74 6F 70 02  80 7A 00 06 B0 0E 01 7A  ...stop..z.....z
02C0: 00 07 B0 0E 01 BA 06 B0  0E 01 19 80 1A 80 06 80  ................
02D0: 07 80 BA 07 B0 0E 01 19  80 1A 80 06 80 07 80 03  ................
02E0: 00 17 1B 80 03 01 17 1C  80 03 02 17 06 80 27 10  ..............'.
02F0: 9C B1 0E 01 03 1C 1D 80  03 04 17 1B 80 03 05 17  ................
0300: 1C 80 03 06 17 06 80 27  10 06 B0 0E 01 0E 1C 1D  .......'........
0310: 80 03 08 17 1B 80 03 09  17 1C 80 03 0A 17 06 80  ................
0320: 27 10 07 B0 0E 01 0D 1C  1E 80 4A F0 FF FF 7F 9C  '.........J.....
0330: B1 0E 01 2A 10 9C B1 0E  01 4A 9C B1 0E 01 F0 FF  ...*.....J......
0340: FF 7F 7B 9C B1 0E 01 4A  06 B0 0E 01 F0 FF FF 7F  ..{....J........
0350: 4A 07 B0 0E 01 F0 FF FF  7F 7B 06 B0 0E 01 7B 07  J........{....{.
0360: B0 0E 01 1C 1F 80 03 00  17 20 80 03 01 17 09 80  ......... ......
0370: 03 02 17 06 80 27 10 9C  B1 0E 01 03 1C 1E 80 52  .....'.........R
0380: 17 80 F8 FF FF 7F F8 FF  FF 7F 73 31 30 31 45 17  ..........s101E.
0390: 80 F8 FF FF 7F F8 FF FF  7F 73 31 30 32 02 80 2A  .........s102..*
03A0: 10 9C B1 0E 01 4A F0 FF  FF 7F 9C B1 0E 01 03 00  .....J..........
03B0: 17 21 80 03 01 17 22 80  03 02 17 06 80 27 10 9C  .!...."......'..
03C0: B1 0E 01 03 2A 10 9C B1  0E 01 4A F0 FF FF 7F 9C  ....*.....J.....
03D0: B1 0E 01 03 00 17 23 80  03 01 17 24 80 03 02 17  ......#....$....
03E0: 06 80 27 10 9C B1 0E 01  03 2A 10 9C B1 0E 01 03  ..'......*......
03F0: 03 17 25 80 27 10 9C B1  0E 01 04 4A F0 FF FF 7F  ..%.'......J....
0400: 9C B1 0E 01 2A 10 9C B1  0E 01 4E 00 A1 B1 0E 01  ....*.....N.....
0410: 4E 00 A2 B1 0E 01 4E 00  A3 B1 0E 01 03 03 00 1B  N.....N.........
0420: 80 03 04 00 1C 80 08 03  00 26 80 08 04 00 26 80  .........&....&.
0430: BA A1 B1 0E 01 03 00 04  00 06 80 07 80 07 03 00  ................
0440: 01 80 07 04 00 01 80 BA  A2 B1 0E 01 03 00 04 00  ................
0450: 06 80 07 80 BA A3 B1 0E  01 1B 80 1C 80 06 80 07  ................
0460: 80 03 04 17 20 80 03 05  17 09 80 03 06 17 06 80  .... ...........
0470: 27 10 06 B0 0E 01 0E 2A  10 06 B0 0E 01 03 07 17  '......*........
0480: 0A 80 27 10 06 B0 0E 01  0F 1C 27 80 03 07 17 28  ..'.......'....(
0490: 80 27 10 06 B0 0E 01 0F  1C 29 80 03 07 17 07 80  .'.......)......
04A0: 27 10 06 B0 0E 01 0F 1C  2A 80 59 05 9F B1 0E 01  '.......*.Y.....
04B0: 01 03 03 00 20 80 03 04  00 09 80 03 05 00 06 80  .... ...........
04C0: 07 03 00 0B 80 07 04 00  0B 80 08 05 00 26 80 BA  .............&..
04D0: 9F B1 0E 01 03 00 04 00  05 00 07 80 BB 2B 80 9F  .............+..
04E0: B1 0E 01 9F B1 0E 01 6D  61 69 6E 02 80 03 08 17  .......main.....
04F0: 19 80 03 09 17 1A 80 03  0A 17 06 80 27 10 07 B0  ............'...
0500: 0E 01 0D 2F 00 A0 B1 0E  01 4E 00 A0 B1 0E 01 59  .../.....N.....Y
0510: 05 A0 B1 0E 01 01 03 03  00 1B 80 03 04 00 1C 80  ................
0520: 03 05 00 06 80 08 03 00  0B 80 08 04 00 0B 80 08  ................
0530: 05 00 26 80 BA A0 B1 0E  01 03 00 04 00 05 00 0A  ..&.............
0540: 80 03 1D 17 19 80 03 1E  17 1A 80 03 1F 17 06 80  ................
0550: 07 1D 17 0B 80 07 1E 17  0B 80 08 1F 17 26 80 28  .............&.(
0560: 10 A0 B1 0E 01 03 BB 0D  80 A0 B1 0E 01 A0 B1 0E  ................
0570: 01 73 74 61 74 02 80 1C  1D 80 03 04 17 19 80 03  .stat...........
0580: 05 17 1A 80 03 06 17 06  80 07 04 17 2C 80 08 05  ............,...
0590: 17 2C 80 28 10 A1 B1 0E  01 03 1C 29 80 08 04 17  .,.(.......)....
05A0: 2D 80 07 05 17 2D 80 28  10 A2 B1 0E 01 03 1C 16  -....-.(........
05B0: 80 07 04 17 2E 80 08 05  17 2E 80 28 10 A3 B1 0E  ...........(....
05C0: 01 03 1C 2F 80 59 05 9F  B1 0E 01 00 03 07 17 28  .../.Y.........(
05D0: 80 27 10 06 B0 0E 01 0F  1C 29 80 03 07 17 0A 80  .'.......)......
05E0: 27 10 06 B0 0E 01 0F 1C  27 80 03 04 17 19 80 03  '.......'.......
05F0: 05 17 1A 80 03 06 17 06  80 27 10 06 B0 0E 01 0E  .........'......
0600: 1C 1E 80 BB 0D 80 A0 B1  0E 01 A0 B1 0E 01 73 74  ..............st
0610: 6F 70 02 80 59 05 A0 B1  0E 01 00 1C 1E 80 03 0B  op..Y...........
0620: 17 21 80 03 0C 17 30 80  03 0D 17 06 80 27 10 F0  .!....0......'..
0630: FF FF 7F 37 4A F0 FF FF  7F F0 FF FF 7F 52 17 80  ...7J........R..
0640: F8 FF FF 7F F8 FF FF 7F  73 31 30 32 45 17 80 F8  ........s102E...
0650: FF FF 7F F8 FF FF 7F 73  31 30 33 02 80 4E 01 06  .......s103..N..
0660: B0 0E 01 4E 01 07 B0 0E  01 4E 01 A1 B1 0E 01 4E  ...N.....N.....N
0670: 01 A2 B1 0E 01 4E 01 A3  B1 0E 01 2A 10 F0 FF FF  .....N.....*....
0680: 7F 4A F0 FF FF 7F 9C B1  0E 01 6F 76 F0 FF FF 7F  .J........ov....
0690: 4A 9C B1 0E 01 F0 FF FF  7F 2B 9C B1 0E 01 31 80  J........+....1.
06A0: 23 02 01 00 00 80 00 B4  06 2B 9C B1 0E 01 32 80  #........+....2.
06B0: 23 01 BC 06 2B 9C B1 0E  01 33 80 23 5C 00 34 80  #...+....3.#\.4.
06C0: 5C 01 34 80 59 05 9C B1  0E 01 01 03 00 17 23 80  \.4.Y.........#.
06D0: 03 01 17 35 80 03 02 17  36 80 27 10 9C B1 0E 01  ...5....6.'.....
06E0: 03 2A 10 9C B1 0E 01 BA  9C B1 0E 01 23 80 22 80  .*..........#.".
06F0: 37 80 28 80 52 17 80 F8  FF FF 7F F8 FF FF 7F 73  7.(.R..........s
0700: 31 30 33 45 17 80 F8 FF  FF 7F F8 FF FF 7F 73 31  103E..........s1
0710: 30 34 02 80 4E 01 F0 FF  FF 7F 2A 10 9C B1 0E 01  04..N.....*.....
0720: 4A 9C B1 0E 01 F0 FF FF  7F 02 01 00 00 80 00 61  J..............a
0730: 07 03 02 10 02 00 2B 9C  B1 0E 01 38 80 23 2B 9C  ......+....8.#+.
0740: B1 0E 01 39 80 23 2B 9C  B1 0E 01 3A 80 23 2B 9C  ...9.#+....:.#+.
0750: B1 0E 01 3B 80 23 2B 9C  B1 0E 01 3C 80 23 01 8E  ...;.#+....<.#..
0760: 07 03 02 10 02 00 2B 9C  B1 0E 01 3D 80 23 2B 9C  ......+....=.#+.
0770: B1 0E 01 3E 80 23 2B 9C  B1 0E 01 3F 80 23 2B 9C  ...>.#+....?.#+.
0780: B1 0E 01 40 80 23 2B 9C  B1 0E 01 41 80 23 4E 00  ...@.#+....A.#N.
0790: F0 FF FF 7F 52 17 80 F8  FF FF 7F F8 FF FF 7F 73  ....R..........s
07A0: 31 30 34 45 17 80 F8 FF  FF 7F F8 FF FF 7F 73 31  104E..........s1
07B0: 30 35 02 80 2B 9C B1 0E  01 42 80 23 2B 9C B1 0E  05..+....B.#+...
07C0: 01 43 80 23 2B 9C B1 0E  01 44 80 23 52 17 80 F8  .C.#+....D.#R...
07D0: FF FF 7F F8 FF FF 7F 73  31 30 35 02 87 7F 29 80  .......s105...).
07E0: 80 F7 07 45 17 80 F8 FF  FF 7F F8 FF FF 7F 73 31  ...E..........s1
07F0: 30 37 02 80 01 24 08 02  87 7F 45 80 80 13 08 45  07...$....E....E
0800: 17 80 F8 FF FF 7F F8 FF  FF 7F 73 31 30 37 02 80  ..........s107..
0810: 01 24 08 45 17 80 F8 FF  FF 7F F8 FF FF 7F 73 31  .$.E..........s1
0820: 30 36 02 80 2B 9C B1 0E  01 46 80 23 2B 9C B1 0E  06..+....F.#+...
0830: 01 47 80 23 02 87 7F 29  80 80 4E 08 52 17 80 F8  .G.#...)..N.R...
0840: FF FF 7F F8 FF FF 7F 73  31 30 37 01 77 08 02 87  .......s107.w...
0850: 7F 45 80 80 68 08 52 17  80 F8 FF FF 7F F8 FF FF  .E..h.R.........
0860: 7F 73 31 30 37 01 77 08  52 17 80 F8 FF FF 7F F8  .s107.w.R.......
0870: FF FF 7F 73 31 30 36 45  17 80 F8 FF FF 7F F8 FF  ...s106E........
0880: FF 7F 73 31 30 38 02 80  2B 9C B1 0E 01 48 80 23  ..s108..+....H.#
0890: 2B 9C B1 0E 01 49 80 23  01 AA 09 BA 9C B1 0E 01  +....I.#........
08A0: 23 80 24 80 06 80 25 80  BA F0 FF FF 7F 21 80 30  #.$...%......!.0
08B0: 80 06 80 4A 80 4A 9C B1  0E 01 F0 FF FF 7F 4A F0  ...J.J........J.
08C0: FF FF 7F 9C B1 0E 01 80  9C B1 0E 01 80 F0 FF FF  ................
08D0: 7F 92 01 75 B0 0E 01 92  01 74 B0 0E 01 92 01 34  ...u.....t.....4
08E0: B0 0E 01 92 01 35 B0 0E  01 92 01 33 B0 0E 01 92  .....5.....3....
08F0: 01 A3 B0 0E 01 45 17 80  F8 FF FF 7F F8 FF FF 7F  .....E..........
0900: 73 31 7A 33 02 80 5C 00  34 80 5C 01 34 80 9A 45  s1z3..\.4.\.4..E
0910: 01 80 F0 FF FF 7F F0 FF  FF 7F 66 64 69 31 02 80  ..........fdi1..
0920: 2B 9C B1 0E 01 31 80 23  02 01 00 00 80 00 3B 09  +....1.#......;.
0930: 2B 9C B1 0E 01 32 80 23  01 43 09 2B 9C B1 0E 01  +....2.#.C.+....
0940: 4B 80 23 59 05 9C B1 0E  01 01 03 00 17 23 80 03  K.#Y.........#..
0950: 01 17 35 80 03 02 17 36  80 27 10 9C B1 0E 01 03  ..5....6.'......
0960: 2A 10 9C B1 0E 01 BA 9C  B1 0E 01 23 80 22 80 37  *..........#.".7
0970: 80 28 80 52 17 80 F8 FF  FF 7F F8 FF FF 7F 73 31  .(.R..........s1
0980: 7A 33 45 17 80 F8 FF FF  7F F8 FF FF 7F 73 31 30  z3E..........s10
0990: 38 02 80 2A 10 9C B1 0E  01 4A 9C B1 0E 01 F0 FF  8..*.....J......
09A0: FF 7F 2B 9C B1 0E 01 4C  80 23 24 4D 80 02 80 02  ..+....L.#$M....
09B0: 80 25 02 00 10 02 80 00  F0 0B 2B 9C B1 0E 01 4E  .%........+....N
09C0: 80 23 52 17 80 F8 FF FF  7F F8 FF FF 7F 73 31 30  .#R..........s10
09D0: 38 45 17 80 F8 FF FF 7F  F8 FF FF 7F 73 31 30 39  8E..........s109
09E0: 02 80 03 02 10 02 00 2B  9C B1 0E 01 4F 80 23 2B  .......+....O.#+
09F0: 9C B1 0E 01 50 80 23 2B  9C B1 0E 01 51 80 23 2B  ....P.#+....Q.#+
0A00: 9C B1 0E 01 52 80 23 52  17 80 F8 FF FF 7F F8 FF  ....R.#R........
0A10: FF 7F 73 31 30 39 45 17  80 F8 FF FF 7F F8 FF FF  ..s109E.........
0A20: 7F 73 31 31 30 02 80 2B  9C B1 0E 01 53 80 23 2B  .s110..+....S.#+
0A30: 9C B1 0E 01 54 80 23 2B  9C B1 0E 01 55 80 23 2B  ....T.#+....U.#+
0A40: 9C B1 0E 01 56 80 23 2B  9C B1 0E 01 57 80 23 24  ....V.#+....W.#$
0A50: 58 80 02 80 02 80 25 02  00 10 02 80 00 7E 0A 2B  X.....%......~.+
0A60: 9C B1 0E 01 59 80 23 03  01 10 00 80 73 5A 80 9C  ....Y.#.....sZ..
0A70: B1 0E 01 F0 FF FF 7F 1C  5B 80 30 01 96 0A 02 00  ........[.0.....
0A80: 10 00 80 00 96 0A 2B 9C  B1 0E 01 5C 80 23 03 01  ......+....\.#..
0A90: 10 5D 80 01 96 0A 45 01  80 F0 FF FF 7F F0 FF FF  .]....E.........
0AA0: 7F 66 64 6F 31 02 80 55  01 80 F0 FF FF 7F F0 FF  .fdo1..U........
0AB0: FF 7F 66 64 6F 31 4E 01  F0 FF FF 7F 52 17 80 F8  ..fdo1N.....R...
0AC0: FF FF 7F F8 FF FF 7F 73  31 31 30 2F 00 9E B1 0E  .......s110/....
0AD0: 01 4E 00 9E B1 0E 01 BA  9E B1 0E 01 5E 80 5F 80  .N..........^._.
0AE0: 60 80 0A 80 80 9E B1 0E  01 5C 00 1E 80 5C 01 1E  `........\...\..
0AF0: 80 9A 45 17 80 F8 FF FF  7F F8 FF FF 7F 73 31 31  ..E..........s11
0B00: 31 02 80 03 19 17 61 80  03 1A 17 62 80 03 1B 17  1.....a....b....
0B10: 06 80 27 10 9E B1 0E 01  03 45 01 80 F0 FF FF 7F  ..'......E......
0B20: F0 FF FF 7F 66 64 69 31  02 80 1C 63 80 52 17 80  ....fdi1...c.R..
0B30: F8 FF FF 7F F8 FF FF 7F  73 31 31 31 45 17 80 F8  ........s111E...
0B40: FF FF 7F F8 FF FF 7F 73  31 31 32 02 80 2A 10 9E  .......s112..*..
0B50: B1 0E 01 1C 2A 80 52 17  80 F8 FF FF 7F F8 FF FF  ....*.R.........
0B60: 7F 73 31 31 32 45 17 80  F8 FF FF 7F F8 FF FF 7F  .s112E..........
0B70: 73 31 31 33 02 80 1C 1F  80 5B 64 80 9E B1 0E 01  s113.....[d.....
0B80: 9E B1 0E 01 74 6C 6B 30  03 02 10 02 00 03 03 10  ....tlk0........
0B90: 65 80 2B 9E B1 0E 01 66  80 23 2B 9E B1 0E 01 67  e.+....f.#+....g
0BA0: 80 23 5B 64 80 9E B1 0E  01 9E B1 0E 01 74 6C 6B  .#[d.........tlk
0BB0: 31 03 19 17 68 80 03 1A  17 69 80 03 1B 17 06 80  1...h....i......
0BC0: 27 10 9E B1 0E 01 03 1C  1D 80 52 17 80 F8 FF FF  '.........R.....
0BD0: 7F F8 FF FF 7F 73 31 31  33 45 17 80 F8 FF FF 7F  .....s113E......
0BE0: F8 FF FF 7F 73 31 31 34  02 80 1C 1E 80 01 25 0C  ....s114......%.
0BF0: 02 00 10 00 80 00 25 0C  02 00 00 02 80 00 08 0C  ......%.........
0C00: 03 02 10 00 80 01 0D 0C  03 02 10 02 80 2B 9C B1  .............+..
0C10: 0E 01 6A 80 23 2B 9C B1  0E 01 6B 80 23 03 01 10  ..j.#+....k.#...
0C20: 02 80 01 25 0C 45 01 80  F0 FF FF 7F F0 FF FF 7F  ...%.E..........
0C30: 66 64 6F 31 02 80 55 01  80 F0 FF FF 7F F0 FF FF  fdo1..U.........
0C40: 7F 66 64 6F 31 02 01 10  00 80 01 7A 0C 5C 00 6C  .fdo1......z.\.l
0C50: 80 5C 01 6C 80 52 17 80  F8 FF FF 7F F8 FF FF 7F  .\.l.R..........
0C60: 73 31 31 34 46 00 45 01  80 F0 FF FF 7F F0 FF FF  s114F.E.........
0C70: 7F 66 64 69 31 02 80 01  89 0C 52 17 80 F8 FF FF  .fdi1.....R.....
0C80: 7F F8 FF FF 7F 73 31 30  38 21 00                 .....s108!.     
```

#### Opcodes

```
  0: 0x0001 [0x03] ExtData[1]->WorkLocal[0] = Work_Zone[2]
  1: 0x0006 [0x03] ExtData[1]->WorkLocal[1] = Work_Zone[3]
  2: 0x000B [0x03] ExtData[1]->WorkLocal[2] = 1*
  3: 0x0010 [0x42] SET_CLI_EVENT_CANCEL_DATA()
  4: 0x0011 [0x45] LOAD_SCHEDULED_TASK: Load scheduler "fdo1" with entities [LocalPlayer, LocalPlayer], work=[200*, 0*]
  5: 0x0022 [0x55] WAIT_LOAD_SCHEDULER: Wait for scheduler "fdo1" with entities [LocalPlayer, LocalPlayer], work=200*
  6: 0x0031 [0x46] CAMERA_CONTROL: Disable user control
  7: 0x0033 [0x38] SET_CLIENT_EVENT_MODE(mode=19*)
  8: 0x0036 [0x92] Sludge (ID: 17740188/0x010EB19C)->Render.Flags3 ^= 0x01
  9: 0x003C [0x94] Sludge (ID: 17740188/0x010EB19C)->Render.Flags3 ^= 0x01
 10: 0x0042 [0x94] LocalPlayer->Render.Flags3 ^= 0x01
 11: 0x0048 [0x94] Unnamed NPC (ID: 17740191/0x010EB19F)->Render.Flags3 ^= 0x01
 12: 0x004E [0x59] UPDATE_ENTITY_DATA: Unnamed NPC (ID: 17740191/0x010EB19F)->Render.Flags0 |= 0x200000
 13: 0x0055 [0x02] IF !(ExtData[1]->WorkLocal[0] == 0*) GOTO 0x089B
 14: 0x005D [0xBA] SET_ENTITY_POSITION(entity_id=Sludge (ID: 17740188/0x010EB19C), pos_x=-302.500*, pos_z=-124.500*, pos_y=-10.000*, direction=134.9°*)
 15: 0x006A [0xBA] SET_ENTITY_POSITION(entity_id=LocalPlayer, pos_x=-323.000*, pos_z=-137.000*, pos_y=-10.000*, direction=377476174.3°*)
 16: 0x0077 [0x4A] LocalPlayer looks at Sludge (ID: 17740188/0x010EB19C)
 17: 0x0080 [0x80] LOAD_WAIT(entity=Sludge (ID: 17740188/0x010EB19C))
 18: 0x0085 [0x80] LOAD_WAIT(entity=LocalPlayer)
 19: 0x008A [0x2F] Unnamed NPC (ID: 17740193/0x010EB1A1)->Render.Flags0 &= ~0x80000 // Bit 19
 20: 0x0090 [0x2F] Unnamed NPC (ID: 17740194/0x010EB1A2)->Render.Flags0 &= ~0x80000 // Bit 19
 21: 0x0096 [0x2F] Unnamed NPC (ID: 17740195/0x010EB1A3)->Render.Flags0 &= ~0x80000 // Bit 19
 22: 0x009C [0x2F] Unnamed NPC (ID: 17740191/0x010EB19F)->Render.Flags0 &= ~0x80000 // Bit 19
 23: 0x00A2 [0x4E] SET_ENTITY_HIDE_FLAG: Show Unnamed NPC (ID: 17740191/0x010EB19F)
 24: 0x00A8 [0x03] ExtData[1]->WorkLocal[3] = 4294664796*
 25: 0x00AD [0x03] ExtData[1]->WorkLocal[4] = 4294842796*
 26: 0x00B2 [0x03] ExtData[1]->WorkLocal[5] = 4294957296*
 27: 0x00B7 [0x07] ExtData[1]->WorkLocal[3] += 1000*
 28: 0x00BC [0x07] ExtData[1]->WorkLocal[4] += 1000*
 29: 0x00C1 [0x07] ExtData[1]->WorkLocal[5] += 400*
 30: 0x00C6 [0xBA] SET_ENTITY_POSITION(entity_id=Unnamed NPC (ID: 17740191/0x010EB19F), pos_x=ExtData[1]->WorkLocal[3], pos_z=ExtData[1]->WorkLocal[4], pos_y=ExtData[1]->WorkLocal[5], direction=134.9°*)
 31: 0x00D3 [0xBB] LOAD_EVENT_SCHEDULER_ALT: Load scheduler "stat" with entities [Unnamed NPC (ID: 17740191/0x010EB19F), Unnamed NPC (ID: 17740191/0x010EB19F)], work=[23*, 0*]
 32: 0x00E4 [0x80] LOAD_WAIT(entity=Unnamed NPC (ID: 17740191/0x010EB19F))
 33: 0x00E9 [0x92] Ken (ID: 17739893/0x010EB075)->Render.Flags3 ^= 0x01
 34: 0x00EF [0x92] Marin (ID: 17739892/0x010EB074)->Render.Flags3 ^= 0x01
 35: 0x00F5 [0x92] Rabid Wolf, I.M. (ID: 17739828/0x010EB034)->Render.Flags3 ^= 0x01
 36: 0x00FB [0x92] Pavel (ID: 17739829/0x010EB035)->Render.Flags3 ^= 0x01
 37: 0x0101 [0x92] Cleades (ID: 17739827/0x010EB033)->Render.Flags3 ^= 0x01
 38: 0x0107 [0x92] Gulldago (ID: 17739939/0x010EB0A3)->Render.Flags3 ^= 0x01
 39: 0x010D [0x92] Arawn (ID: 17739782/0x010EB006)->Render.Flags3 ^= 0x01
 40: 0x0113 [0x92] Emrys (ID: 17739783/0x010EB007)->Render.Flags3 ^= 0x01
 41: 0x0119 [0x94] Arawn (ID: 17739782/0x010EB006)->Render.Flags3 ^= 0x01
 42: 0x011F [0x94] Emrys (ID: 17739783/0x010EB007)->Render.Flags3 ^= 0x01
 43: 0x0125 [0x03] ExtData[1]->WorkLocal[3] = 4294664796*
 44: 0x012A [0x07] ExtData[1]->WorkLocal[3] += 1500*
 45: 0x012F [0x03] ExtData[1]->WorkLocal[4] = 4294842796*
 46: 0x0134 [0x07] ExtData[1]->WorkLocal[4] += 2000*
 47: 0x0139 [0x03] ExtData[1]->WorkLocal[5] = 4294957296*
 48: 0x013E [0x03] ExtData[1]->WorkLocal[6] = 1535*
 49: 0x0143 [0xBA] SET_ENTITY_POSITION(entity_id=Arawn (ID: 17739782/0x010EB006), pos_x=ExtData[1]->WorkLocal[3], pos_z=ExtData[1]->WorkLocal[4], pos_y=ExtData[1]->WorkLocal[5], direction=ExtData[1]->WorkLocal[6])
 50: 0x0150 [0x03] ExtData[1]->WorkLocal[3] = 4294664796*
 51: 0x0155 [0x07] ExtData[1]->WorkLocal[3] += 4500*
 52: 0x015A [0x03] ExtData[1]->WorkLocal[4] = 4294842796*
 53: 0x015F [0x07] ExtData[1]->WorkLocal[4] += 3500*
 54: 0x0164 [0xBA] SET_ENTITY_POSITION(entity_id=Emrys (ID: 17739783/0x010EB007), pos_x=ExtData[1]->WorkLocal[3], pos_z=ExtData[1]->WorkLocal[4], pos_y=ExtData[1]->WorkLocal[5], direction=ExtData[1]->WorkLocal[6])
 55: 0x0171 [0x80] LOAD_WAIT(entity=Arawn (ID: 17739782/0x010EB006))
 56: 0x0176 [0x80] LOAD_WAIT(entity=Emrys (ID: 17739783/0x010EB007))
 57: 0x017B [0x5C] MUSIC_CONTROL: Set Idle (Day) music to song 136*
 58: 0x017F [0x5C] MUSIC_CONTROL: Set Idle (Night) music to song 136*
 59: 0x0183 [0x9A] WAIT_MUSIC_SERVER()
 60: 0x0184 [0x59] UPDATE_ENTITY_DATA: Sludge (ID: 17740188/0x010EB19C)->Render.Flags0 &= ~0x200000
 61: 0x018B [0x03] Work_Zone_1700[0] = 4294652796*
 62: 0x0190 [0x03] Work_Zone_1700[1] = 4294831296*
 63: 0x0195 [0x03] Work_Zone_1700[2] = 4294957296*
 64: 0x019A [0x27] REQ_SET(priority=0x10, entity_id=Sludge (ID: 17740188/0x010EB19C), tag_num=0x03)
 65: 0x01A1 [0x03] Work_Zone_1700[29] = 4294652796*
 66: 0x01A6 [0x03] Work_Zone_1700[30] = 4294831296*
 67: 0x01AB [0x03] Work_Zone_1700[31] = 4294957296*
 68: 0x01B0 [0x07] Work_Zone_1700[29] += 1000*
 69: 0x01B5 [0x07] Work_Zone_1700[30] += 1000*
 70: 0x01BA [0x07] Work_Zone_1700[31] += 400*
 71: 0x01BF [0x27] REQ_SET(priority=0x10, entity_id=Unnamed NPC (ID: 17740191/0x010EB19F), tag_num=0x03)
 72: 0x01C6 [0x03] Work_Zone_1700[4] = 4294652796*
 73: 0x01CB [0x03] Work_Zone_1700[5] = 4294831296*
 74: 0x01D0 [0x08] Work_Zone_1700[5] -= 250*
 75: 0x01D5 [0x03] Work_Zone_1700[6] = 4294957296*
 76: 0x01DA [0x27] REQ_SET(priority=0x10, entity_id=Arawn (ID: 17739782/0x010EB006), tag_num=0x0E)
 77: 0x01E1 [0x03] Work_Zone_1700[8] = 4294652796*
 78: 0x01E6 [0x03] Work_Zone_1700[9] = 4294831296*
 79: 0x01EB [0x07] Work_Zone_1700[9] += 250*
 80: 0x01F0 [0x03] Work_Zone_1700[10] = 4294957296*
 81: 0x01F5 [0x27] REQ_SET(priority=0x10, entity_id=Emrys (ID: 17739783/0x010EB007), tag_num=0x0D)
 82: 0x01FC [0x1C] WAIT(15* ticks)
 83: 0x01FF [0x45] LOAD_SCHEDULED_TASK: Load scheduler "s100" with entities [EventEntity, EventEntity], work=[637*, 0*]
 84: 0x0210 [0x45] LOAD_SCHEDULED_TASK: Load scheduler "fdi1" with entities [LocalPlayer, LocalPlayer], work=[200*, 0*]
 85: 0x0221 [0x1C] WAIT(180* ticks)
 86: 0x0224 [0x45] LOAD_SCHEDULED_TASK: Load scheduler "fdo1" with entities [LocalPlayer, LocalPlayer], work=[200*, 0*]
 87: 0x0235 [0x55] WAIT_LOAD_SCHEDULER: Wait for scheduler "fdo1" with entities [LocalPlayer, LocalPlayer], work=200*
 88: 0x0244 [0x52] END_LOAD_SCHEDULER: End scheduler "s100" with entities [EventEntity, EventEntity], work=637*
 89: 0x0253 [0x45] LOAD_SCHEDULED_TASK: Load scheduler "boff" with entities [EventEntity, EventEntity], work=[637*, 0*]
 90: 0x0264 [0x55] WAIT_LOAD_SCHEDULER: Wait for scheduler "boff" with entities [EventEntity, EventEntity], work=637*
 91: 0x0273 [0x45] LOAD_SCHEDULED_TASK: Load scheduler "fdi1" with entities [LocalPlayer, LocalPlayer], work=[200*, 0*]
 92: 0x0284 [0x45] LOAD_SCHEDULED_TASK: Load scheduler "s101" with entities [EventEntity, EventEntity], work=[637*, 0*]
 93: 0x0295 [0x7A] VM_CONTROL: Reset VM for Sludge (ID: 17740188/0x010EB19C)
 94: 0x029B [0xBA] SET_ENTITY_POSITION(entity_id=Sludge (ID: 17740188/0x010EB19C), pos_x=-315.000*, pos_z=-131.500*, pos_y=-10.000*, direction=134.9°*)
 95: 0x02A8 [0xBB] LOAD_EVENT_SCHEDULER_ALT: Load scheduler "stop" with entities [Unnamed NPC (ID: 17740191/0x010EB19F), Unnamed NPC (ID: 17740191/0x010EB19F)], work=[23*, 0*]
 96: 0x02B9 [0x7A] VM_CONTROL: Reset VM for Arawn (ID: 17739782/0x010EB006)
 97: 0x02BF [0x7A] VM_CONTROL: Reset VM for Emrys (ID: 17739783/0x010EB007)
 98: 0x02C5 [0xBA] SET_ENTITY_POSITION(entity_id=Arawn (ID: 17739782/0x010EB006), pos_x=-315.000*, pos_z=-131.500*, pos_y=-10.000*, direction=134.9°*)
 99: 0x02D2 [0xBA] SET_ENTITY_POSITION(entity_id=Emrys (ID: 17739783/0x010EB007), pos_x=-315.000*, pos_z=-131.500*, pos_y=-10.000*, direction=134.9°*)
100: 0x02DF [0x03] Work_Zone_1700[0] = 4294638296*
101: 0x02E4 [0x03] Work_Zone_1700[1] = 4294821796*
102: 0x02E9 [0x03] Work_Zone_1700[2] = 4294957296*
103: 0x02EE [0x27] REQ_SET(priority=0x10, entity_id=Sludge (ID: 17740188/0x010EB19C), tag_num=0x03)
104: 0x02F5 [0x1C] WAIT(30* ticks)
105: 0x02F8 [0x03] Work_Zone_1700[4] = 4294638296*
106: 0x02FD [0x03] Work_Zone_1700[5] = 4294821796*
107: 0x0302 [0x03] Work_Zone_1700[6] = 4294957296*
108: 0x0307 [0x27] REQ_SET(priority=0x10, entity_id=Arawn (ID: 17739782/0x010EB006), tag_num=0x0E)
109: 0x030E [0x1C] WAIT(30* ticks)
110: 0x0311 [0x03] Work_Zone_1700[8] = 4294638296*
111: 0x0316 [0x03] Work_Zone_1700[9] = 4294821796*
112: 0x031B [0x03] Work_Zone_1700[10] = 4294957296*
113: 0x0320 [0x27] REQ_SET(priority=0x10, entity_id=Emrys (ID: 17739783/0x010EB007), tag_num=0x0D)
114: 0x0327 [0x1C] WAIT(120* ticks)
115: 0x032A [0x4A] LocalPlayer looks at Sludge (ID: 17740188/0x010EB19C)
116: 0x0333 [0x2A] GET_REQ_LEVEL(level=16, entity_id=Sludge (ID: 17740188/0x010EB19C))
117: 0x0339 [0x4A] Sludge (ID: 17740188/0x010EB19C) looks at LocalPlayer
118: 0x0342 [0x7B] Sludge (ID: 17740188/0x010EB19C) stops talking
119: 0x0347 [0x4A] Arawn (ID: 17739782/0x010EB006) looks at LocalPlayer
120: 0x0350 [0x4A] Emrys (ID: 17739783/0x010EB007) looks at LocalPlayer
121: 0x0359 [0x7B] Arawn (ID: 17739782/0x010EB006) stops talking
122: 0x035E [0x7B] Emrys (ID: 17739783/0x010EB007) stops talking
123: 0x0363 [0x1C] WAIT(90* ticks)
124: 0x0366 [0x03] Work_Zone_1700[0] = 4294646296*
125: 0x036B [0x03] Work_Zone_1700[1] = 4294830296*
126: 0x0370 [0x03] Work_Zone_1700[2] = 4294957296*
127: 0x0375 [0x27] REQ_SET(priority=0x10, entity_id=Sludge (ID: 17740188/0x010EB19C), tag_num=0x03)
128: 0x037C [0x1C] WAIT(120* ticks)
129: 0x037F [0x52] END_LOAD_SCHEDULER: End scheduler "s101" with entities [EventEntity, EventEntity], work=637*
130: 0x038E [0x45] LOAD_SCHEDULED_TASK: Load scheduler "s102" with entities [EventEntity, EventEntity], work=[637*, 0*]
131: 0x039F [0x2A] GET_REQ_LEVEL(level=16, entity_id=Sludge (ID: 17740188/0x010EB19C))
132: 0x03A5 [0x4A] LocalPlayer looks at Sludge (ID: 17740188/0x010EB19C)
133: 0x03AE [0x03] Work_Zone_1700[0] = 4294645796*
134: 0x03B3 [0x03] Work_Zone_1700[1] = 4294832796*
135: 0x03B8 [0x03] Work_Zone_1700[2] = 4294957296*
136: 0x03BD [0x27] REQ_SET(priority=0x10, entity_id=Sludge (ID: 17740188/0x010EB19C), tag_num=0x03)
137: 0x03C4 [0x2A] GET_REQ_LEVEL(level=16, entity_id=Sludge (ID: 17740188/0x010EB19C))
138: 0x03CA [0x4A] LocalPlayer looks at Sludge (ID: 17740188/0x010EB19C)
139: 0x03D3 [0x03] Work_Zone_1700[0] = 4294643796*
140: 0x03D8 [0x03] Work_Zone_1700[1] = 4294833796*
141: 0x03DD [0x03] Work_Zone_1700[2] = 4294957296*
142: 0x03E2 [0x27] REQ_SET(priority=0x10, entity_id=Sludge (ID: 17740188/0x010EB19C), tag_num=0x03)
143: 0x03E9 [0x2A] GET_REQ_LEVEL(level=16, entity_id=Sludge (ID: 17740188/0x010EB19C))
144: 0x03EF [0x03] Work_Zone_1700[3] = 575*
145: 0x03F4 [0x27] REQ_SET(priority=0x10, entity_id=Sludge (ID: 17740188/0x010EB19C), tag_num=0x04)
146: 0x03FB [0x4A] LocalPlayer looks at Sludge (ID: 17740188/0x010EB19C)
147: 0x0404 [0x2A] GET_REQ_LEVEL(level=16, entity_id=Sludge (ID: 17740188/0x010EB19C))
148: 0x040A [0x4E] SET_ENTITY_HIDE_FLAG: Show Unnamed NPC (ID: 17740193/0x010EB1A1)
149: 0x0410 [0x4E] SET_ENTITY_HIDE_FLAG: Show Unnamed NPC (ID: 17740194/0x010EB1A2)
150: 0x0416 [0x4E] SET_ENTITY_HIDE_FLAG: Show Unnamed NPC (ID: 17740195/0x010EB1A3)
151: 0x041C [0x03] ExtData[1]->WorkLocal[3] = 4294638296*
152: 0x0421 [0x03] ExtData[1]->WorkLocal[4] = 4294821796*
153: 0x0426 [0x08] ExtData[1]->WorkLocal[3] -= 100*
154: 0x042B [0x08] ExtData[1]->WorkLocal[4] -= 100*
155: 0x0430 [0xBA] SET_ENTITY_POSITION(entity_id=Unnamed NPC (ID: 17740193/0x010EB1A1), pos_x=ExtData[1]->WorkLocal[3], pos_z=ExtData[1]->WorkLocal[4], pos_y=-10.000*, direction=134.9°*)
156: 0x043D [0x07] ExtData[1]->WorkLocal[3] += 200*
157: 0x0442 [0x07] ExtData[1]->WorkLocal[4] += 200*
158: 0x0447 [0xBA] SET_ENTITY_POSITION(entity_id=Unnamed NPC (ID: 17740194/0x010EB1A2), pos_x=ExtData[1]->WorkLocal[3], pos_z=ExtData[1]->WorkLocal[4], pos_y=-10.000*, direction=134.9°*)
159: 0x0454 [0xBA] SET_ENTITY_POSITION(entity_id=Unnamed NPC (ID: 17740195/0x010EB1A3), pos_x=-329.000*, pos_z=-145.500*, pos_y=-10.000*, direction=134.9°*)
160: 0x0461 [0x03] Work_Zone_1700[4] = 4294646296*
161: 0x0466 [0x03] Work_Zone_1700[5] = 4294830296*
162: 0x046B [0x03] Work_Zone_1700[6] = 4294957296*
163: 0x0470 [0x27] REQ_SET(priority=0x10, entity_id=Arawn (ID: 17739782/0x010EB006), tag_num=0x0E)
164: 0x0477 [0x2A] GET_REQ_LEVEL(level=16, entity_id=Arawn (ID: 17739782/0x010EB006))
165: 0x047D [0x03] Work_Zone_1700[7] = 4294966785*
166: 0x0482 [0x27] REQ_SET(priority=0x10, entity_id=Arawn (ID: 17739782/0x010EB006), tag_num=0x0F)
167: 0x0489 [0x1C] WAIT(25* ticks)
168: 0x048C [0x03] Work_Zone_1700[7] = 511*
169: 0x0491 [0x27] REQ_SET(priority=0x10, entity_id=Arawn (ID: 17739782/0x010EB006), tag_num=0x0F)
170: 0x0498 [0x1C] WAIT(5* ticks)
171: 0x049B [0x03] Work_Zone_1700[7] = 1535*
172: 0x04A0 [0x27] REQ_SET(priority=0x10, entity_id=Arawn (ID: 17739782/0x010EB006), tag_num=0x0F)
173: 0x04A7 [0x1C] WAIT(60* ticks)
174: 0x04AA [0x59] UPDATE_ENTITY_DATA: Unnamed NPC (ID: 17740191/0x010EB19F)->Render.Flags0 |= 0x200000
175: 0x04B1 [0x03] ExtData[1]->WorkLocal[3] = 4294646296*
176: 0x04B6 [0x03] ExtData[1]->WorkLocal[4] = 4294830296*
177: 0x04BB [0x03] ExtData[1]->WorkLocal[5] = 4294957296*
178: 0x04C0 [0x07] ExtData[1]->WorkLocal[3] += 1000*
179: 0x04C5 [0x07] ExtData[1]->WorkLocal[4] += 1000*
180: 0x04CA [0x08] ExtData[1]->WorkLocal[5] -= 100*
181: 0x04CF [0xBA] SET_ENTITY_POSITION(entity_id=Unnamed NPC (ID: 17740191/0x010EB19F), pos_x=ExtData[1]->WorkLocal[3], pos_z=ExtData[1]->WorkLocal[4], pos_y=ExtData[1]->WorkLocal[5], direction=134.9°*)
182: 0x04DC [0xBB] LOAD_EVENT_SCHEDULER_ALT: Load scheduler "main" with entities [Unnamed NPC (ID: 17740191/0x010EB19F), Unnamed NPC (ID: 17740191/0x010EB19F)], work=[22*, 0*]
183: 0x04ED [0x03] Work_Zone_1700[8] = 4294652296*
184: 0x04F2 [0x03] Work_Zone_1700[9] = 4294835796*
185: 0x04F7 [0x03] Work_Zone_1700[10] = 4294957296*
186: 0x04FC [0x27] REQ_SET(priority=0x10, entity_id=Emrys (ID: 17739783/0x010EB007), tag_num=0x0D)
187: 0x0503 [0x2F] Unnamed NPC (ID: 17740192/0x010EB1A0)->Render.Flags0 &= ~0x80000 // Bit 19
188: 0x0509 [0x4E] SET_ENTITY_HIDE_FLAG: Show Unnamed NPC (ID: 17740192/0x010EB1A0)
189: 0x050F [0x59] UPDATE_ENTITY_DATA: Unnamed NPC (ID: 17740192/0x010EB1A0)->Render.Flags0 |= 0x200000
190: 0x0516 [0x03] ExtData[1]->WorkLocal[3] = 4294638296*
191: 0x051B [0x03] ExtData[1]->WorkLocal[4] = 4294821796*
192: 0x0520 [0x03] ExtData[1]->WorkLocal[5] = 4294957296*
193: 0x0525 [0x08] ExtData[1]->WorkLocal[3] -= 1000*
194: 0x052A [0x08] ExtData[1]->WorkLocal[4] -= 1000*
195: 0x052F [0x08] ExtData[1]->WorkLocal[5] -= 100*
196: 0x0534 [0xBA] SET_ENTITY_POSITION(entity_id=Unnamed NPC (ID: 17740192/0x010EB1A0), pos_x=ExtData[1]->WorkLocal[3], pos_z=ExtData[1]->WorkLocal[4], pos_y=ExtData[1]->WorkLocal[5], direction=377476174.3°*)
197: 0x0541 [0x03] Work_Zone_1700[29] = 4294652296*
198: 0x0546 [0x03] Work_Zone_1700[30] = 4294835796*
199: 0x054B [0x03] Work_Zone_1700[31] = 4294957296*
200: 0x0550 [0x07] Work_Zone_1700[29] += 1000*
201: 0x0555 [0x07] Work_Zone_1700[30] += 1000*
202: 0x055A [0x08] Work_Zone_1700[31] -= 100*
203: 0x055F [0x28] REQ_SET_WITH_CONDITIONS(priority=0x10, target_entity=Unnamed NPC (ID: 17740192/0x010EB1A0), tag_num=0x03)
204: 0x0566 [0xBB] LOAD_EVENT_SCHEDULER_ALT: Load scheduler "stat" with entities [Unnamed NPC (ID: 17740192/0x010EB1A0), Unnamed NPC (ID: 17740192/0x010EB1A0)], work=[23*, 0*]
205: 0x0577 [0x1C] WAIT(30* ticks)
206: 0x057A [0x03] Work_Zone_1700[4] = 4294652296*
207: 0x057F [0x03] Work_Zone_1700[5] = 4294835796*
208: 0x0584 [0x03] Work_Zone_1700[6] = 4294957296*
209: 0x0589 [0x07] Work_Zone_1700[4] += 500*
210: 0x058E [0x08] Work_Zone_1700[5] -= 500*
211: 0x0593 [0x28] REQ_SET_WITH_CONDITIONS(priority=0x10, target_entity=Unnamed NPC (ID: 17740193/0x010EB1A1), tag_num=0x03)
212: 0x059A [0x1C] WAIT(5* ticks)
213: 0x059D [0x08] Work_Zone_1700[4] -= 800*
214: 0x05A2 [0x07] Work_Zone_1700[5] += 800*
215: 0x05A7 [0x28] REQ_SET_WITH_CONDITIONS(priority=0x10, target_entity=Unnamed NPC (ID: 17740194/0x010EB1A2), tag_num=0x03)
216: 0x05AE [0x1C] WAIT(15* ticks)
217: 0x05B1 [0x07] Work_Zone_1700[4] += 300*
218: 0x05B6 [0x08] Work_Zone_1700[5] -= 300*
219: 0x05BB [0x28] REQ_SET_WITH_CONDITIONS(priority=0x10, target_entity=Unnamed NPC (ID: 17740195/0x010EB1A3), tag_num=0x03)
220: 0x05C2 [0x1C] WAIT(20* ticks)
221: 0x05C5 [0x59] UPDATE_ENTITY_DATA: Unnamed NPC (ID: 17740191/0x010EB19F)->Render.Flags0 &= ~0x200000
222: 0x05CC [0x03] Work_Zone_1700[7] = 511*
223: 0x05D1 [0x27] REQ_SET(priority=0x10, entity_id=Arawn (ID: 17739782/0x010EB006), tag_num=0x0F)
224: 0x05D8 [0x1C] WAIT(5* ticks)
225: 0x05DB [0x03] Work_Zone_1700[7] = 4294966785*
226: 0x05E0 [0x27] REQ_SET(priority=0x10, entity_id=Arawn (ID: 17739782/0x010EB006), tag_num=0x0F)
227: 0x05E7 [0x1C] WAIT(25* ticks)
228: 0x05EA [0x03] Work_Zone_1700[4] = 4294652296*
229: 0x05EF [0x03] Work_Zone_1700[5] = 4294835796*
230: 0x05F4 [0x03] Work_Zone_1700[6] = 4294957296*
231: 0x05F9 [0x27] REQ_SET(priority=0x10, entity_id=Arawn (ID: 17739782/0x010EB006), tag_num=0x0E)
232: 0x0600 [0x1C] WAIT(120* ticks)
233: 0x0603 [0xBB] LOAD_EVENT_SCHEDULER_ALT: Load scheduler "stop" with entities [Unnamed NPC (ID: 17740192/0x010EB1A0), Unnamed NPC (ID: 17740192/0x010EB1A0)], work=[23*, 0*]
234: 0x0614 [0x59] UPDATE_ENTITY_DATA: Unnamed NPC (ID: 17740192/0x010EB1A0)->Render.Flags0 &= ~0x200000
235: 0x061B [0x1C] WAIT(120* ticks)
236: 0x061E [0x03] Work_Zone_1700[11] = 4294645796*
237: 0x0623 [0x03] Work_Zone_1700[12] = 4294830796*
238: 0x0628 [0x03] Work_Zone_1700[13] = 4294957296*
239: 0x062D [0x27] REQ_SET(priority=0x10, entity_id=LocalPlayer, tag_num=0x37)
240: 0x0634 [0x4A] LocalPlayer looks at LocalPlayer
241: 0x063D [0x52] END_LOAD_SCHEDULER: End scheduler "s102" with entities [EventEntity, EventEntity], work=637*
242: 0x064C [0x45] LOAD_SCHEDULED_TASK: Load scheduler "s103" with entities [EventEntity, EventEntity], work=[637*, 0*]
243: 0x065D [0x4E] SET_ENTITY_HIDE_FLAG: Hide Arawn (ID: 17739782/0x010EB006)
244: 0x0663 [0x4E] SET_ENTITY_HIDE_FLAG: Hide Emrys (ID: 17739783/0x010EB007)
245: 0x0669 [0x4E] SET_ENTITY_HIDE_FLAG: Hide Unnamed NPC (ID: 17740193/0x010EB1A1)
246: 0x066F [0x4E] SET_ENTITY_HIDE_FLAG: Hide Unnamed NPC (ID: 17740194/0x010EB1A2)
247: 0x0675 [0x4E] SET_ENTITY_HIDE_FLAG: Hide Unnamed NPC (ID: 17740195/0x010EB1A3)
248: 0x067B [0x2A] GET_REQ_LEVEL(level=16, entity_id=LocalPlayer)
249: 0x0681 [0x4A] LocalPlayer looks at Sludge (ID: 17740188/0x010EB19C)
250: 0x068A [0x6F] WAIT_FRAME_DELAY: Yield until WaitTime reaches zero
251: 0x068B [0x76] CHECK_ENTITY_RENDER_FLAGS: Wait until LocalPlayer Render.Flags0 and Render.Flags3 conditions are met
252: 0x0690 [0x4A] Sludge (ID: 17740188/0x010EB19C) looks at LocalPlayer
253: 0x0699 [0x2B] Sludge (ID: 17740188/0x010EB19C) [14121*]:
    → "D-don't hurt me! I'm not a bad slime!"
254: 0x06A0 [0x23] WAIT_FOR_DIALOG_INTERACTION
255: 0x06A1 [0x02] IF !(ExtData[1]->WorkLocal[1] == 1*) GOTO 0x06B4
256: 0x06A9 [0x2B] Sludge (ID: 17740188/0x010EB19C) [14122*]:
    → "Could it be...? It is! Hi, <Player>!"
257: 0x06B0 [0x23] WAIT_FOR_DIALOG_INTERACTION
258: 0x06B1 [0x01] GOTO 0x06BC
259: 0x06B4 [0x2B] Sludge (ID: 17740188/0x010EB19C) [14128*]:
    → "P-promise you won't? Oh, thank goodness <slurp>."
260: 0x06BB [0x23] WAIT_FOR_DIALOG_INTERACTION

SUBROUTINE_06BC:
261: 0x06BC [0x5C] MUSIC_CONTROL: Set Idle (Day) music to song 129*
262: 0x06C0 [0x5C] MUSIC_CONTROL: Set Idle (Night) music to song 129*
263: 0x06C4 [0x59] UPDATE_ENTITY_DATA: Sludge (ID: 17740188/0x010EB19C)->Render.Flags0 |= 0x200000
264: 0x06CB [0x03] Work_Zone_1700[0] = 4294643796*
265: 0x06D0 [0x03] Work_Zone_1700[1] = 4294833296*
266: 0x06D5 [0x03] Work_Zone_1700[2] = 4294956346*
267: 0x06DA [0x27] REQ_SET(priority=0x10, entity_id=Sludge (ID: 17740188/0x010EB19C), tag_num=0x03)
268: 0x06E1 [0x2A] GET_REQ_LEVEL(level=16, entity_id=Sludge (ID: 17740188/0x010EB19C))
269: 0x06E7 [0xBA] SET_ENTITY_POSITION(entity_id=Sludge (ID: 17740188/0x010EB19C), pos_x=-323.500*, pos_z=-134.500*, pos_y=-10.834*, direction=44.9°*)
270: 0x06F4 [0x52] END_LOAD_SCHEDULER: End scheduler "s103" with entities [EventEntity, EventEntity], work=637*
271: 0x0703 [0x45] LOAD_SCHEDULED_TASK: Load scheduler "s104" with entities [EventEntity, EventEntity], work=[637*, 0*]
272: 0x0714 [0x4E] SET_ENTITY_HIDE_FLAG: Hide LocalPlayer
273: 0x071A [0x2A] GET_REQ_LEVEL(level=16, entity_id=Sludge (ID: 17740188/0x010EB19C))
274: 0x0720 [0x4A] Sludge (ID: 17740188/0x010EB19C) looks at LocalPlayer
275: 0x0729 [0x02] IF !(ExtData[1]->WorkLocal[1] == 1*) GOTO 0x0761
276: 0x0731 [0x03] Work_Zone[2] = ExtData[1]->WorkLocal[2]
277: 0x0736 [0x2B] Sludge (ID: 17740188/0x010EB19C) [14123*]:
    → "Do you remember me? [Slarin/Sludge/Ultra Slime]? Of course you do!"
278: 0x073D [0x23] WAIT_FOR_DIALOG_INTERACTION
279: 0x073E [0x2B] Sludge (ID: 17740188/0x010EB19C) [14124*]:
    → "Thanks again for what goo did for us slimes a couple moons back."
280: 0x0745 [0x23] WAIT_FOR_DIALOG_INTERACTION
281: 0x0746 [0x2B] Sludge (ID: 17740188/0x010EB19C) [14125*]:
    → "Why are we here again? Well, you see, Horro wanted to come back for more sweets <slurp>, so..."
282: 0x074D [0x23] WAIT_FOR_DIALOG_INTERACTION
283: 0x074E [0x2B] Sludge (ID: 17740188/0x010EB19C) [14126*]:
    → "Wait! I promise we didn't stow away for a second time! We asked him to let us come back on the Astoltia Ark, and he said yes!"
284: 0x0755 [0x23] WAIT_FOR_DIALOG_INTERACTION
285: 0x0756 [0x2B] Sludge (ID: 17740188/0x010EB19C) [14127*]:
    → "But, boy, we're in a bit of a pickle once more, and I'd be grateful if you could lend me a <slurp> hand."
286: 0x075D [0x23] WAIT_FOR_DIALOG_INTERACTION
287: 0x075E [0x01] GOTO 0x078E
288: 0x0761 [0x03] Work_Zone[2] = ExtData[1]->WorkLocal[2]
289: 0x0766 [0x2B] Sludge (ID: 17740188/0x010EB19C) [14129*]:
    → "My name's [Slarin/Sludge/Ultra Slime]. I really need somegoo's help, but I don't know where to turn."
290: 0x076D [0x23] WAIT_FOR_DIALOG_INTERACTION
291: 0x076E [0x2B] Sludge (ID: 17740188/0x010EB19C) [14130*]:
    → "We came here on this big ship called the Astoltia Ark together with our friend, Horro."
292: 0x0775 [0x23] WAIT_FOR_DIALOG_INTERACTION
293: 0x0776 [0x2B] Sludge (ID: 17740188/0x010EB19C) [14131*]:
    → "It isn't the first time we've been here, though. Last time <slurp> we kind of...stowed away and found ourselves in this world."
294: 0x077D [0x23] WAIT_FOR_DIALOG_INTERACTION
295: 0x077E [0x2B] Sludge (ID: 17740188/0x010EB19C) [14132*]:
    → "We tried to behave, but ended up causing a lot of trouble for Horro and the great adventurgoos of Vana'diel."
296: 0x0785 [0x23] WAIT_FOR_DIALOG_INTERACTION
297: 0x0786 [0x2B] Sludge (ID: 17740188/0x010EB19C) [14133*]:
    → "This time, we made sure to get permission, but things didn't go like we wanted..."
298: 0x078D [0x23] WAIT_FOR_DIALOG_INTERACTION

SUBROUTINE_078E:
299: 0x078E [0x4E] SET_ENTITY_HIDE_FLAG: Show LocalPlayer
300: 0x0794 [0x52] END_LOAD_SCHEDULER: End scheduler "s104" with entities [EventEntity, EventEntity], work=637*
301: 0x07A3 [0x45] LOAD_SCHEDULED_TASK: Load scheduler "s105" with entities [EventEntity, EventEntity], work=[637*, 0*]
302: 0x07B4 [0x2B] Sludge (ID: 17740188/0x010EB19C) [14134*]:
    → "You see, some of our other friends--she-slimes and metal slimes--overheard our plan, and this time they stowed away instead!"
303: 0x07BB [0x23] WAIT_FOR_DIALOG_INTERACTION
304: 0x07BC [0x2B] Sludge (ID: 17740188/0x010EB19C) [14135*]:
    → "So when we arrived in Vana'diel, they went bouncing off to goo-knows-where!"
305: 0x07C3 [0x23] WAIT_FOR_DIALOG_INTERACTION
306: 0x07C4 [0x2B] Sludge (ID: 17740188/0x010EB19C) [14136*]:
    → "And if that wasn't bad enough, some of us more common slimes went off too!"
307: 0x07CB [0x23] WAIT_FOR_DIALOG_INTERACTION
308: 0x07CC [0x52] END_LOAD_SCHEDULER: End scheduler "s105" with entities [EventEntity, EventEntity], work=637*
309: 0x07DB [0x02] IF !(LocalPlayer->Race == 5*) GOTO 0x07F7
310: 0x07E3 [0x45] LOAD_SCHEDULED_TASK: Load scheduler "s107" with entities [EventEntity, EventEntity], work=[637*, 0*]
311: 0x07F4 [0x01] GOTO 0x0824
312: 0x07F7 [0x02] IF !(LocalPlayer->Race == 6*) GOTO 0x0813
313: 0x07FF [0x45] LOAD_SCHEDULED_TASK: Load scheduler "s107" with entities [EventEntity, EventEntity], work=[637*, 0*]
314: 0x0810 [0x01] GOTO 0x0824
315: 0x0813 [0x45] LOAD_SCHEDULED_TASK: Load scheduler "s106" with entities [EventEntity, EventEntity], work=[637*, 0*]

SUBROUTINE_0824:
316: 0x0824 [0x2B] Sludge (ID: 17740188/0x010EB19C) [14137*]:
    → "If I don't bring my friends back, Horro will <slurp> leave them behind!"
317: 0x082B [0x23] WAIT_FOR_DIALOG_INTERACTION
318: 0x082C [0x2B] Sludge (ID: 17740188/0x010EB19C) [14138*]:
    → "So you can guess what's next--I need your help."
319: 0x0833 [0x23] WAIT_FOR_DIALOG_INTERACTION
320: 0x0834 [0x02] IF !(LocalPlayer->Race == 5*) GOTO 0x084E
321: 0x083C [0x52] END_LOAD_SCHEDULER: End scheduler "s107" with entities [EventEntity, EventEntity], work=637*
322: 0x084B [0x01] GOTO 0x0877
323: 0x084E [0x02] IF !(LocalPlayer->Race == 6*) GOTO 0x0868
324: 0x0856 [0x52] END_LOAD_SCHEDULER: End scheduler "s107" with entities [EventEntity, EventEntity], work=637*
325: 0x0865 [0x01] GOTO 0x0877
326: 0x0868 [0x52] END_LOAD_SCHEDULER: End scheduler "s106" with entities [EventEntity, EventEntity], work=637*

SUBROUTINE_0877:
327: 0x0877 [0x45] LOAD_SCHEDULED_TASK: Load scheduler "s108" with entities [EventEntity, EventEntity], work=[637*, 0*]
328: 0x0888 [0x2B] Sludge (ID: 17740188/0x010EB19C) [14139*]:
    → "If you give me a hand I'll... Do a little jiggle for you!"
329: 0x088F [0x23] WAIT_FOR_DIALOG_INTERACTION
330: 0x0890 [0x2B] Sludge (ID: 17740188/0x010EB19C) [14140*]:
    → "If you do really well, I'll even give you a little <slurp> something special! So, will you help?"
331: 0x0897 [0x23] WAIT_FOR_DIALOG_INTERACTION
332: 0x0898 [0x01] GOTO 0x09AA
333: 0x089B [0xBA] SET_ENTITY_POSITION(entity_id=Sludge (ID: 17740188/0x010EB19C), pos_x=-323.500*, pos_z=-133.500*, pos_y=-10.000*, direction=50.5°*)
334: 0x08A8 [0xBA] SET_ENTITY_POSITION(entity_id=LocalPlayer, pos_x=-321.500*, pos_z=-136.500*, pos_y=-10.000*, direction=377476106.8°*)
335: 0x08B5 [0x4A] Sludge (ID: 17740188/0x010EB19C) looks at LocalPlayer
336: 0x08BE [0x4A] LocalPlayer looks at Sludge (ID: 17740188/0x010EB19C)
337: 0x08C7 [0x80] LOAD_WAIT(entity=Sludge (ID: 17740188/0x010EB19C))
338: 0x08CC [0x80] LOAD_WAIT(entity=LocalPlayer)
339: 0x08D1 [0x92] Ken (ID: 17739893/0x010EB075)->Render.Flags3 ^= 0x01
340: 0x08D7 [0x92] Marin (ID: 17739892/0x010EB074)->Render.Flags3 ^= 0x01
341: 0x08DD [0x92] Rabid Wolf, I.M. (ID: 17739828/0x010EB034)->Render.Flags3 ^= 0x01
342: 0x08E3 [0x92] Pavel (ID: 17739829/0x010EB035)->Render.Flags3 ^= 0x01
343: 0x08E9 [0x92] Cleades (ID: 17739827/0x010EB033)->Render.Flags3 ^= 0x01
344: 0x08EF [0x92] Gulldago (ID: 17739939/0x010EB0A3)->Render.Flags3 ^= 0x01
345: 0x08F5 [0x45] LOAD_SCHEDULED_TASK: Load scheduler "s1z3" with entities [EventEntity, EventEntity], work=[637*, 0*]
346: 0x0906 [0x5C] MUSIC_CONTROL: Set Idle (Day) music to song 129*
347: 0x090A [0x5C] MUSIC_CONTROL: Set Idle (Night) music to song 129*
348: 0x090E [0x9A] WAIT_MUSIC_SERVER()
349: 0x090F [0x45] LOAD_SCHEDULED_TASK: Load scheduler "fdi1" with entities [LocalPlayer, LocalPlayer], work=[200*, 0*]
350: 0x0920 [0x2B] Sludge (ID: 17740188/0x010EB19C) [14121*]:
    → "D-don't hurt me! I'm not a bad slime!"
351: 0x0927 [0x23] WAIT_FOR_DIALOG_INTERACTION
352: 0x0928 [0x02] IF !(ExtData[1]->WorkLocal[1] == 1*) GOTO 0x093B
353: 0x0930 [0x2B] Sludge (ID: 17740188/0x010EB19C) [14122*]:
    → "Could it be...? It is! Hi, <Player>!"
354: 0x0937 [0x23] WAIT_FOR_DIALOG_INTERACTION
355: 0x0938 [0x01] GOTO 0x0943
356: 0x093B [0x2B] Sludge (ID: 17740188/0x010EB19C) [14144*]:
    → "Why, you're the [man/woman] from before, aren't you?"
357: 0x0942 [0x23] WAIT_FOR_DIALOG_INTERACTION

SUBROUTINE_0943:
358: 0x0943 [0x59] UPDATE_ENTITY_DATA: Sludge (ID: 17740188/0x010EB19C)->Render.Flags0 |= 0x200000
359: 0x094A [0x03] Work_Zone_1700[0] = 4294643796*
360: 0x094F [0x03] Work_Zone_1700[1] = 4294833296*
361: 0x0954 [0x03] Work_Zone_1700[2] = 4294956346*
362: 0x0959 [0x27] REQ_SET(priority=0x10, entity_id=Sludge (ID: 17740188/0x010EB19C), tag_num=0x03)
363: 0x0960 [0x2A] GET_REQ_LEVEL(level=16, entity_id=Sludge (ID: 17740188/0x010EB19C))
364: 0x0966 [0xBA] SET_ENTITY_POSITION(entity_id=Sludge (ID: 17740188/0x010EB19C), pos_x=-323.500*, pos_z=-134.500*, pos_y=-10.834*, direction=44.9°*)
365: 0x0973 [0x52] END_LOAD_SCHEDULER: End scheduler "s1z3" with entities [EventEntity, EventEntity], work=637*
366: 0x0982 [0x45] LOAD_SCHEDULED_TASK: Load scheduler "s108" with entities [EventEntity, EventEntity], work=[637*, 0*]
367: 0x0993 [0x2A] GET_REQ_LEVEL(level=16, entity_id=Sludge (ID: 17740188/0x010EB19C))
368: 0x0999 [0x4A] Sludge (ID: 17740188/0x010EB19C) looks at LocalPlayer
369: 0x09A2 [0x2B] Sludge (ID: 17740188/0x010EB19C) [14145*]:
    → "Have you come to <slurp> help collect my friends?"
370: 0x09A9 [0x23] WAIT_FOR_DIALOG_INTERACTION

SUBROUTINE_09AA:
371: 0x09AA [0x24] CREATE_DIALOG(message_id=14141*, default_option=0*, option_flags=0*)
    → "Help find his friends? [Of course! I love jiggling!/No, thanks. Too much work.]"
372: 0x09B1 [0x25] WAIT_DIALOG_SELECT()
373: 0x09B2 [0x02] IF !(Work_Zone[0] == 0*) GOTO 0x0BF0
374: 0x09BA [0x2B] Sludge (ID: 17740188/0x010EB19C) [14146*]:
    → "Yay! Thank you so much!"
375: 0x09C1 [0x23] WAIT_FOR_DIALOG_INTERACTION
376: 0x09C2 [0x52] END_LOAD_SCHEDULER: End scheduler "s108" with entities [EventEntity, EventEntity], work=637*
377: 0x09D1 [0x45] LOAD_SCHEDULED_TASK: Load scheduler "s109" with entities [EventEntity, EventEntity], work=[637*, 0*]
378: 0x09E2 [0x03] Work_Zone[2] = ExtData[1]->WorkLocal[2]
379: 0x09E7 [0x2B] Sludge (ID: 17740188/0x010EB19C) [14147*]:
    → "Finding them is really easy! First, you have to go outside town and have [Slabble/Slime Tarou/Sline] cast a gootastic spell on you."
380: 0x09EE [0x23] WAIT_FOR_DIALOG_INTERACTION
381: 0x09EF [0x2B] Sludge (ID: 17740188/0x010EB19C) [14148*]:
    → "The stowaways're probably scared here in this strange land, so they might get angry or <slurp> try to run away."
382: 0x09F6 [0x23] WAIT_FOR_DIALOG_INTERACTION
383: 0x09F7 [0x2B] Sludge (ID: 17740188/0x010EB19C) [14149*]:
    → "Just give them a little thump on the head, and it'll turn 'em into slime coins."
384: 0x09FE [0x23] WAIT_FOR_DIALOG_INTERACTION
385: 0x09FF [0x2B] Sludge (ID: 17740188/0x010EB19C) [14150*]:
    → "I'll make sure to thank you propergoo for helping find them!"
386: 0x0A06 [0x23] WAIT_FOR_DIALOG_INTERACTION
387: 0x0A07 [0x52] END_LOAD_SCHEDULER: End scheduler "s109" with entities [EventEntity, EventEntity], work=637*
388: 0x0A16 [0x45] LOAD_SCHEDULED_TASK: Load scheduler "s110" with entities [EventEntity, EventEntity], work=[637*, 0*]
389: 0x0A27 [0x2B] Sludge (ID: 17740188/0x010EB19C) [14151*]:
    → "Oh, but there's one thing. The spells will make you just as weak as we are, so don't jump in without thinking!"
390: 0x0A2E [0x23] WAIT_FOR_DIALOG_INTERACTION
391: 0x0A2F [0x2B] Sludge (ID: 17740188/0x010EB19C) [14152*]:
    → "And I forgot something else! The she-slimes and metal slimes are a bit tougher <slurp>."
392: 0x0A36 [0x23] WAIT_FOR_DIALOG_INTERACTION
393: 0x0A37 [0x2B] Sludge (ID: 17740188/0x010EB19C) [14153*]:
    → "The metal slimes in particular are really slippery. They could run right in front of you, and if you blinked, you'd never notice!"
394: 0x0A3E [0x23] WAIT_FOR_DIALOG_INTERACTION
395: 0x0A3F [0x2B] Sludge (ID: 17740188/0x010EB19C) [14154*]:
    → "But they'll give you more coins--and slurpier prizes--if you happen to goo 'em!"
396: 0x0A46 [0x23] WAIT_FOR_DIALOG_INTERACTION
397: 0x0A47 [0x2B] Sludge (ID: 17740188/0x010EB19C) [14155*]:
    → "I hope that's a good explanation. If you're ready and raring to go, I can send you to [Slabble/Slime Tarou/Slarin] right away."
398: 0x0A4E [0x23] WAIT_FOR_DIALOG_INTERACTION
399: 0x0A4F [0x24] CREATE_DIALOG(message_id=14156*, default_option=0*, option_flags=0*)
    → "Be whisked outside town? [On feathered wings!/I'd prefer to stay here.]"
400: 0x0A56 [0x25] WAIT_DIALOG_SELECT()
401: 0x0A57 [0x02] IF !(Work_Zone[0] == 0*) GOTO 0x0A7E
402: 0x0A5F [0x2B] Sludge (ID: 17740188/0x010EB19C) [14157*]:
    → "Okay! Happy searching!"
403: 0x0A66 [0x23] WAIT_FOR_DIALOG_INTERACTION
404: 0x0A67 [0x03] Work_Zone[1] = 1*
405: 0x0A6C [0x73] Sludge (ID: 17740188/0x010EB19C) casts magic 122* on LocalPlayer
406: 0x0A77 [0x1C] WAIT(270* ticks)
407: 0x0A7A [0x30] SET_UCOFF_CONTINUE_ZERO()
408: 0x0A7B [0x01] GOTO 0x0A96
409: 0x0A7E [0x02] IF !(Work_Zone[0] == 1*) GOTO 0x0A96
410: 0x0A86 [0x2B] Sludge (ID: 17740188/0x010EB19C) [14158*]:
    → "I'll send you whenever you want, so just let me know!"
411: 0x0A8D [0x23] WAIT_FOR_DIALOG_INTERACTION
412: 0x0A8E [0x03] Work_Zone[1] = 2*
413: 0x0A93 [0x01] GOTO 0x0A96

SUBROUTINE_0A96:
414: 0x0A96 [0x45] LOAD_SCHEDULED_TASK: Load scheduler "fdo1" with entities [LocalPlayer, LocalPlayer], work=[200*, 0*]
415: 0x0AA7 [0x55] WAIT_LOAD_SCHEDULER: Wait for scheduler "fdo1" with entities [LocalPlayer, LocalPlayer], work=200*
416: 0x0AB6 [0x4E] SET_ENTITY_HIDE_FLAG: Hide LocalPlayer
417: 0x0ABC [0x52] END_LOAD_SCHEDULER: End scheduler "s110" with entities [EventEntity, EventEntity], work=637*
418: 0x0ACB [0x2F] Horro (ID: 17740190/0x010EB19E)->Render.Flags0 &= ~0x80000 // Bit 19
419: 0x0AD1 [0x4E] SET_ENTITY_HIDE_FLAG: Show Horro (ID: 17740190/0x010EB19E)
420: 0x0AD7 [0xBA] SET_ENTITY_POSITION(entity_id=Horro (ID: 17740190/0x010EB19E), pos_x=-362.500*, pos_z=-182.500*, pos_y=-10.500*, direction=377476174.3°*)
421: 0x0AE4 [0x80] LOAD_WAIT(entity=Horro (ID: 17740190/0x010EB19E))
422: 0x0AE9 [0x5C] MUSIC_CONTROL: Set Idle (Day) music to song 120*
423: 0x0AED [0x5C] MUSIC_CONTROL: Set Idle (Night) music to song 120*
424: 0x0AF1 [0x9A] WAIT_MUSIC_SERVER()
425: 0x0AF2 [0x45] LOAD_SCHEDULED_TASK: Load scheduler "s111" with entities [EventEntity, EventEntity], work=[637*, 0*]
426: 0x0B03 [0x03] Work_Zone_1700[25] = 4294616296*
427: 0x0B08 [0x03] Work_Zone_1700[26] = 4294796296*
428: 0x0B0D [0x03] Work_Zone_1700[27] = 4294957296*
429: 0x0B12 [0x27] REQ_SET(priority=0x10, entity_id=Horro (ID: 17740190/0x010EB19E), tag_num=0x03)
430: 0x0B19 [0x45] LOAD_SCHEDULED_TASK: Load scheduler "fdi1" with entities [LocalPlayer, LocalPlayer], work=[200*, 0*]
431: 0x0B2A [0x1C] WAIT(420* ticks)
432: 0x0B2D [0x52] END_LOAD_SCHEDULER: End scheduler "s111" with entities [EventEntity, EventEntity], work=637*
433: 0x0B3C [0x45] LOAD_SCHEDULED_TASK: Load scheduler "s112" with entities [EventEntity, EventEntity], work=[637*, 0*]
434: 0x0B4D [0x2A] GET_REQ_LEVEL(level=16, entity_id=Horro (ID: 17740190/0x010EB19E))
435: 0x0B53 [0x1C] WAIT(60* ticks)
436: 0x0B56 [0x52] END_LOAD_SCHEDULER: End scheduler "s112" with entities [EventEntity, EventEntity], work=637*
437: 0x0B65 [0x45] LOAD_SCHEDULED_TASK: Load scheduler "s113" with entities [EventEntity, EventEntity], work=[637*, 0*]
438: 0x0B76 [0x1C] WAIT(90* ticks)
439: 0x0B79 [0x5B] LOAD_EXT_SCHEDULER: Load scheduler "tlk0" with entities [Horro (ID: 17740190/0x010EB19E), Horro (ID: 17740190/0x010EB19E)], work=3323*
440: 0x0B88 [0x03] Work_Zone[2] = ExtData[1]->WorkLocal[2]
441: 0x0B8D [0x03] Work_Zone[3] = 4395*
442: 0x0B92 [0x2B] Horro (ID: 17740190/0x010EB19E) [14159*]:
    → "How wonderful is it to be <sneeze> back in Vana'diel. Let's see what [San d'Oria/Bastok/Windurst] has to offer me this time!"
443: 0x0B99 [0x23] WAIT_FOR_DIALOG_INTERACTION
444: 0x0B9A [0x2B] Horro (ID: 17740190/0x010EB19E) [14160*]:
    → "Thank goodness I have this "Ranpi-Monpi's Vana'dielian Three-Star Cuisine" guide to show me just where to go!"
445: 0x0BA1 [0x23] WAIT_FOR_DIALOG_INTERACTION
446: 0x0BA2 [0x5B] LOAD_EXT_SCHEDULER: Load scheduler "tlk1" with entities [Horro (ID: 17740190/0x010EB19E), Horro (ID: 17740190/0x010EB19E)], work=3323*
447: 0x0BB1 [0x03] Work_Zone_1700[25] = 4294626296*
448: 0x0BB6 [0x03] Work_Zone_1700[26] = 4294806296*
449: 0x0BBB [0x03] Work_Zone_1700[27] = 4294957296*
450: 0x0BC0 [0x27] REQ_SET(priority=0x10, entity_id=Horro (ID: 17740190/0x010EB19E), tag_num=0x03)
451: 0x0BC7 [0x1C] WAIT(30* ticks)
452: 0x0BCA [0x52] END_LOAD_SCHEDULER: End scheduler "s113" with entities [EventEntity, EventEntity], work=637*
453: 0x0BD9 [0x45] LOAD_SCHEDULED_TASK: Load scheduler "s114" with entities [EventEntity, EventEntity], work=[637*, 0*]
454: 0x0BEA [0x1C] WAIT(120* ticks)
455: 0x0BED [0x01] GOTO 0x0C25
456: 0x0BF0 [0x02] IF !(Work_Zone[0] == 1*) GOTO 0x0C25
457: 0x0BF8 [0x02] IF !(ExtData[1]->WorkLocal[0] == 0*) GOTO 0x0C08
458: 0x0C00 [0x03] Work_Zone[2] = 1*
459: 0x0C05 [0x01] GOTO 0x0C0D
460: 0x0C08 [0x03] Work_Zone[2] = 0*

SUBROUTINE_0C0D:
461: 0x0C0D [0x2B] Sludge (ID: 17740188/0x010EB19C) [14142*]:
    → "Aww...[/ Maybe a little jiggle isn't enough...]"
462: 0x0C14 [0x23] WAIT_FOR_DIALOG_INTERACTION
463: 0x0C15 [0x2B] Sludge (ID: 17740188/0x010EB19C) [14143*]:
    → "If you change your mind, I'll be right here waiting!"
464: 0x0C1C [0x23] WAIT_FOR_DIALOG_INTERACTION
465: 0x0C1D [0x03] Work_Zone[1] = 0*
466: 0x0C22 [0x01] GOTO 0x0C25

SUBROUTINE_0C25:
467: 0x0C25 [0x45] LOAD_SCHEDULED_TASK: Load scheduler "fdo1" with entities [LocalPlayer, LocalPlayer], work=[200*, 0*]
468: 0x0C36 [0x55] WAIT_LOAD_SCHEDULER: Wait for scheduler "fdo1" with entities [LocalPlayer, LocalPlayer], work=200*
469: 0x0C45 [0x02] IF !(Work_Zone[1] == 1*) GOTO 0x0C7A
470: 0x0C4D [0x5C] MUSIC_CONTROL: Set Idle (Day) music to song 152*
471: 0x0C51 [0x5C] MUSIC_CONTROL: Set Idle (Night) music to song 152*
472: 0x0C55 [0x52] END_LOAD_SCHEDULER: End scheduler "s114" with entities [EventEntity, EventEntity], work=637*
473: 0x0C64 [0x46] CAMERA_CONTROL: Restore default settings
474: 0x0C66 [0x45] LOAD_SCHEDULED_TASK: Load scheduler "fdi1" with entities [LocalPlayer, LocalPlayer], work=[200*, 0*]
475: 0x0C77 [0x01] GOTO 0x0C89
476: 0x0C7A [0x52] END_LOAD_SCHEDULER: End scheduler "s108" with entities [EventEntity, EventEntity], work=637*

SUBROUTINE_0C89:
477: 0x0C89 [0x21] END_EVENT
478: 0x0C8A [0x00] END_REQSTACK()
```

### Event 587

#### Metadata

| Field        | Value      |
|--------------|------------|
| Entrypoint   | 0x0C8B     |
| Data Size    | 4215 bytes |
| Instructions | 539        |

```
      00 01 02 03 04 05 06 07  08 09 0A 0B 0C 0D 0E 0F
      -- -- -- -- -- -- -- --  -- -- -- -- -- -- -- --
0C80:                                   03 07 00 02 10             .....
0C90: 03 08 00 03 10 03 09 00  04 10 03 0A 00 05 10 03  ................
0CA0: 0B 00 06 10 03 0C 00 07  10 03 0D 00 08 10 03 01  ................
0CB0: 00 09 10 03 02 00 00 80  4A 9C B1 0E 01 F0 FF FF  ........J.......
0CC0: 7F 06 11 00 06 12 00 41  02 80 5D 80 08 00 12 00  .......A..].....
0CD0: 02 12 00 6D 80 00 DF 0C  3C 11 00 02 80 00 80 41  ...m....<......A
0CE0: 6E 80 29 80 08 00 12 00  02 12 00 6D 80 00 F7 0C  n.)........m....
0CF0: 3C 11 00 00 80 00 80 02  11 00 09 00 01 23 0D 42  <............#.B
0D00: 45 01 80 F0 FF FF 7F F0  FF FF 7F 66 64 6F 31 02  E..........fdo1.
0D10: 80 55 01 80 F0 FF FF 7F  F0 FF FF 7F 66 64 6F 31  .U..........fdo1
0D20: 01 F0 0F 02 0B 00 00 80  00 3E 0D 42 2B 9C B1 0E  .........>.B+...
0D30: 01 6F 80 23 40 02 80 00  80 01 10 6E 80 21 03 02  .o.#@......n.!..
0D40: 10 07 00 2B 9C B1 0E 01  70 80 23 06 0E 00 06 0F  ...+....p.#.....
0D50: 00 24 71 80 02 80 02 80  25 02 00 10 02 80 00 CB  .$q.....%.......
0D60: 1A 1A 1E 1B 24 72 80 0E  00 13 00 25 02 00 10 02  ....$r.....%....
0D70: 80 00 87 0D 2B 9C B1 0E  01 73 80 23 03 0E 00 00  ....+....s.#....
0D80: 10 01 61 0D 01 45 0E 02  00 10 5D 80 00 A2 0D 2B  ..a..E....]....+
0D90: 9C B1 0E 01 73 80 23 03  0E 00 00 10 01 61 0D 01  ....s.#......a..
0DA0: 45 0E 02 00 10 74 80 00  BD 0D 2B 9C B1 0E 01 73  E....t....+....s
0DB0: 80 23 03 0E 00 00 10 01  61 0D 01 45 0E 02 00 10  .#......a..E....
0DC0: 45 80 00 D8 0D 2B 9C B1  0E 01 73 80 23 03 0E 00  E....+....s.#...
0DD0: 00 10 01 61 0D 01 45 0E  02 00 10 75 80 00 F3 0D  ...a..E....u....
0DE0: 2B 9C B1 0E 01 73 80 23  03 0E 00 00 10 01 61 0D  +....s.#......a.
0DF0: 01 45 0E 02 00 10 76 80  00 0E 0E 2B 9C B1 0E 01  .E....v....+....
0E00: 73 80 23 03 0E 00 00 10  01 61 0D 01 45 0E 02 00  s.#......a..E...
0E10: 10 16 80 00 34 0E 02 0F  00 02 80 00 26 0E 03 0F  ....4.......&...
0E20: 00 00 80 01 2B 0E 03 0F  00 02 80 06 0E 00 01 61  ....+..........a
0E30: 0D 01 45 0E 02 00 10 77  80 00 45 0E 06 0E 00 01  ..E....w..E.....
0E40: 4B 0D 01 45 0E 03 0E 00  00 10 03 11 00 0E 00 02  K..E............
0E50: 0F 00 00 80 00 5C 0E 07  11 00 77 80 9D 00 82 1C  .....\....w.....
0E60: 0C 17 11 00 9D 00 C2 1C  0D 17 11 00 02 07 00 0D  ................
0E70: 17 04 7A 0E 05 0E 17 01  7D 0E 06 0E 17 93 0C 17  ..z.....}.......
0E80: 2B 9C B1 0E 01 78 80 23  93 02 80 02 0E 17 02 80  +....x.#........
0E90: 80 99 0E 01 61 0D 01 C8  1A 02 0E 17 00 80 80 C8  ....a...........
0EA0: 1A 24 79 80 00 80 02 80  25 02 00 10 02 80 00 B7  .$y.....%.......
0EB0: 1A 06 11 00 02 0C 17 7A  80 80 C2 0E 05 11 00 01  .......z........
0EC0: EC 0E 02 0C 17 7B 80 80  D0 0E 05 11 00 01 EC 0E  .....{..........
0ED0: 02 0C 17 7C 80 80 DE 0E  05 11 00 01 EC 0E 02 0C  ...|............
0EE0: 17 7D 80 80 EC 0E 05 11  00 01 EC 0E 02 11 00 00  .}..............
0EF0: 80 00 60 0F 03 11 00 0D  17 14 11 00 5D 80 02 07  ..`.........]...
0F00: 00 11 00 04 58 0F 03 0F  17 07 00 15 0F 17 0D 17  ....X...........
0F10: 2B 9C B1 0E 01 7E 80 23  71 10 00 80 71 11 10 00  +....~.#q...q...
0F20: 02 10 00 02 80 00 2B 0F  01 61 0D 02 10 00 7F 80  ......+..a......
0F30: 02 38 0F 03 10 00 7F 80  03 11 00 0D 17 14 11 00  .8..............
0F40: 10 00 02 11 00 07 00 02  55 0F 2B 9C B1 0E 01 80  ........U.+.....
0F50: 80 23 01 18 0F 01 5D 0F  03 10 00 00 80 01 65 0F  .#....].......e.
0F60: 03 10 00 00 80 42 40 02  80 00 80 01 10 00 80 03  .....B@.........
0F70: 11 00 0E 00 02 0F 00 00  80 00 81 0F 07 11 00 77  ...............w
0F80: 80 40 81 80 2B 80 01 10  11 00 40 29 80 82 80 01  .@..+.....@)....
0F90: 10 10 00 45 01 80 F0 FF  FF 7F F0 FF FF 7F 66 64  ...E..........fd
0FA0: 6F 31 02 80 55 01 80 F0  FF FF 7F F0 FF FF 7F 66  o1..U..........f
0FB0: 64 6F 31 2B 9C B1 0E 01  83 80 23 43 00 43 01 02  do1+......#C.C..
0FC0: 02 10 02 80 03 E3 0F 45  01 80 F0 FF FF 7F F0 FF  .......E........
0FD0: FF 7F 66 64 69 31 02 80  40 02 80 00 80 01 10 02  ..fdi1..@.......
0FE0: 80 21 00 02 08 00 03 10  01 81 1A 03 08 00 03 10  .!..............
0FF0: 06 11 00 06 12 00 41 02  80 5D 80 08 00 12 00 02  ......A..]......
1000: 12 00 6D 80 00 0E 10 3C  11 00 02 80 00 80 41 6E  ..m....<......An
1010: 80 29 80 08 00 12 00 02  12 00 6D 80 00 26 10 3C  .)........m..&.<
1020: 11 00 00 80 00 80 02 11  00 09 00 01 7B 1A 46 01  ............{.F.
1030: 38 03 80 92 01 9C B1 0E  01 94 01 9C B1 0E 01 94  8...............
1040: 01 F0 FF FF 7F 94 01 9F  B1 0E 01 BA F0 FF FF 7F  ................
1050: 21 80 30 80 06 80 4A 80  4A 9C B1 0E 01 F0 FF FF  !.0...J.J.......
1060: 7F 4A F0 FF FF 7F 9C B1  0E 01 2F 00 9E B1 0E 01  .J......../.....
1070: 4E 00 9E B1 0E 01 1C 2A  80 92 01 75 B0 0E 01 92  N......*...u....
1080: 01 74 B0 0E 01 92 01 34  B0 0E 01 92 01 35 B0 0E  .t.....4.....5..
1090: 01 92 01 33 B0 0E 01 92  01 A3 B0 0E 01 02 11 00  ...3............
10A0: 6E 80 00 1B 17 5C 00 34  80 5C 01 34 80 9A 2F 00  n....\.4.\.4../.
10B0: 9F B1 0E 01 4E 00 9F B1  0E 01 59 05 9F B1 0E 01  ....N.....Y.....
10C0: 01 03 03 00 84 80 03 04  00 85 80 03 05 00 06 80  ................
10D0: 08 05 00 0B 80 BA 9F B1  0E 01 03 00 04 00 05 00  ................
10E0: 02 80 BA 9E B1 0E 01 86  80 87 80 06 80 0A 80 80  ................
10F0: 9E B1 0E 01 03 19 17 88  80 03 1A 17 89 80 03 1B  ................
1100: 17 06 80 27 10 9E B1 0E  01 03 45 17 80 F8 FF FF  ...'......E.....
1110: 7F F8 FF FF 7F 73 31 33  34 02 80 45 01 80 F0 FF  .....s134..E....
1120: FF 7F F0 FF FF 7F 66 64  69 31 02 80 1C 8A 80 52  ......fdi1.....R
1130: 17 80 F8 FF FF 7F F8 FF  FF 7F 73 31 33 34 45 17  ..........s134E.
1140: 80 F8 FF FF 7F F8 FF FF  7F 73 31 33 35 02 80 2A  .........s135..*
1150: 10 9E B1 0E 01 5B 64 80  9E B1 0E 01 9E B1 0E 01  .....[d.........
1160: 74 6C 6B 30 03 02 10 8B  80 2B 9E B1 0E 01 8C 80  tlk0.....+......
1170: 23 5B 64 80 9E B1 0E 01  9E B1 0E 01 74 6C 6B 31  #[d.........tlk1
1180: 5C 00 12 80 5C 01 12 80  52 17 80 F8 FF FF 7F F8  \...\...R.......
1190: FF FF 7F 73 31 33 35 45  17 80 F8 FF FF 7F F8 FF  ...s135E........
11A0: FF 7F 73 31 33 36 02 80  4A 9C B1 0E 01 9E B1 0E  ..s136..J.......
11B0: 01 6F 76 9C B1 0E 01 2B  9C B1 0E 01 8D 80 23 2B  .ov....+......#+
11C0: 9C B1 0E 01 8E 80 23 52  17 80 F8 FF FF 7F F8 FF  ......#R........
11D0: FF 7F 73 31 33 36 45 17  80 F8 FF FF 7F F8 FF FF  ..s136E.........
11E0: 7F 62 6F 66 66 02 80 55  17 80 F8 FF FF 7F F8 FF  .boff..U........
11F0: FF 7F 62 6F 66 66 45 17  80 F8 FF FF 7F F8 FF FF  ..boffE.........
1200: 7F 73 31 33 37 02 80 03  00 17 8F 80 03 01 17 90  .s137...........
1210: 80 03 02 17 37 80 27 10  9C B1 0E 01 03 4A F0 FF  ....7.'......J..
1220: FF 7F 9F B1 0E 01 2A 10  9C B1 0E 01 BA 9C B1 0E  ......*.........
1230: 01 8F 80 90 80 37 80 91  80 59 05 9C B1 0E 01 00  .....7...Y......
1240: 03 00 17 92 80 03 01 17  93 80 03 02 17 06 80 27  ...............'
1250: 10 9C B1 0E 01 03 1C 1D  80 4A F0 FF FF 7F 9F B1  .........J......
1260: 0E 01 2A 10 9C B1 0E 01  4A 9C B1 0E 01 9E B1 0E  ..*.....J.......
1270: 01 1C 1D 80 4A 9E B1 0E  01 9C B1 0E 01 6F 76 9E  ....J........ov.
1280: B1 0E 01 1C 18 80 4A 9E  B1 0E 01 F0 FF FF 7F 6F  ......J........o
1290: 76 9E B1 0E 01 4A 9C B1  0E 01 9E B1 0E 01 03 19  v....J..........
12A0: 17 84 80 03 1A 17 85 80  03 1B 17 06 80 27 10 9E  .............'..
12B0: B1 0E 01 03 03 00 17 94  80 03 01 17 95 80 03 02  ................
12C0: 17 06 80 27 10 9C B1 0E  01 03 2A 10 9C B1 0E 01  ...'......*.....
12D0: 4A 9C B1 0E 01 F0 FF FF  7F 1C 1E 80 03 00 17 96  J...............
12E0: 80 03 01 17 97 80 03 02  17 06 80 27 10 9C B1 0E  ...........'....
12F0: 01 03 52 17 80 F8 FF FF  7F F8 FF FF 7F 73 31 33  ..R..........s13
1300: 37 45 17 80 F8 FF FF 7F  F8 FF FF 7F 73 31 33 38  7E..........s138
1310: 02 80 59 05 9C B1 0E 01  01 2A 10 9C B1 0E 01 1C  ..Y......*......
1320: 98 80 03 00 17 99 80 03  01 17 9A 80 03 02 17 36  ...............6
1330: 80 27 10 9C B1 0E 01 03  2A 10 9C B1 0E 01 BA 9C  .'......*.......
1340: B1 0E 01 23 80 22 80 37  80 9B 80 1C 2F 80 4A 9C  ...#.".7..../.J.
1350: B1 0E 01 9E B1 0E 01 2A  10 9E B1 0E 01 4A 9E B1  .......*.....J..
1360: 0E 01 F0 FF FF 7F 5C 00  9C 80 5C 01 9C 80 03 02  ......\...\.....
1370: 10 02 00 6F 76 9E B1 0E  01 7B 9E B1 0E 01 5B 64  ...ov....{....[d
1380: 80 9E B1 0E 01 9E B1 0E  01 74 6C 6B 30 03 02 10  .........tlk0...
1390: 02 00 2B 9E B1 0E 01 9D  80 23 5B 64 80 9E B1 0E  ..+......#[d....
13A0: 01 9E B1 0E 01 74 6C 6B  31 52 17 80 F8 FF FF 7F  .....tlk1R......
13B0: F8 FF FF 7F 73 31 33 38  45 17 80 F8 FF FF 7F F8  ....s138E.......
13C0: FF FF 7F 73 31 33 39 02  80 2B 9C B1 0E 01 9E 80  ...s139..+......
13D0: 23 52 17 80 F8 FF FF 7F  F8 FF FF 7F 73 31 33 39  #R..........s139
13E0: 45 17 80 F8 FF FF 7F F8  FF FF 7F 73 31 34 30 02  E..........s140.
13F0: 80 5B 64 80 9E B1 0E 01  9E B1 0E 01 74 6C 6B 30  .[d.........tlk0
1400: 02 01 00 00 80 00 1B 14  2B 9E B1 0E 01 9F 80 23  ........+......#
1410: 2B 9E B1 0E 01 A0 80 23  01 23 14 2B 9E B1 0E 01  +......#.#.+....
1420: A1 80 23 2B 9E B1 0E 01  A2 80 23 5B 64 80 9E B1  ..#+......#[d...
1430: 0E 01 9E B1 0E 01 74 6C  6B 31 52 17 80 F8 FF FF  ......tlk1R.....
1440: 7F F8 FF FF 7F 73 31 34  30 45 17 80 F8 FF FF 7F  .....s140E......
1450: F8 FF FF 7F 73 31 34 31  02 80 5B 64 80 9E B1 0E  ....s141..[d....
1460: 01 9E B1 0E 01 74 6C 6B  30 2B 9E B1 0E 01 A3 80  .....tlk0+......
1470: 23 03 02 10 02 00 2B 9E  B1 0E 01 A4 80 23 2B 9E  #.....+......#+.
1480: B1 0E 01 A5 80 23 5B 64  80 9E B1 0E 01 9E B1 0E  .....#[d........
1490: 01 74 6C 6B 31 52 17 80  F8 FF FF 7F F8 FF FF 7F  .tlk1R..........
14A0: 73 31 34 31 45 17 80 F8  FF FF 7F F8 FF FF 7F 73  s141E..........s
14B0: 31 34 32 02 80 2B 9C B1  0E 01 A6 80 23 4A 9E B1  142..+......#J..
14C0: 0E 01 9C B1 0E 01 52 17  80 F8 FF FF 7F F8 FF FF  ......R.........
14D0: 7F 73 31 34 32 45 17 80  F8 FF FF 7F F8 FF FF 7F  .s142E..........
14E0: 73 31 34 33 02 80 6F 76  9E B1 0E 01 5B 64 80 9E  s143..ov....[d..
14F0: B1 0E 01 9E B1 0E 01 74  6C 6B 30 2B 9E B1 0E 01  .......tlk0+....
1500: A7 80 23 5B 64 80 9E B1  0E 01 9E B1 0E 01 74 6C  ..#[d.........tl
1510: 6B 31 5C 00 1E 80 5C 01  1E 80 4A 9E B1 0E 01 F0  k1\...\...J.....
1520: FF FF 7F 52 17 80 F8 FF  FF 7F F8 FF FF 7F 73 31  ...R..........s1
1530: 34 33 02 87 7F 29 80 80  4E 15 45 17 80 F8 FF FF  43...)..N.E.....
1540: 7F F8 FF FF 7F 73 31 34  35 02 80 01 7B 15 02 87  .....s145...{...
1550: 7F 45 80 80 6A 15 45 17  80 F8 FF FF 7F F8 FF FF  .E..j.E.........
1560: 7F 73 31 34 35 02 80 01  7B 15 45 17 80 F8 FF FF  .s145...{.E.....
1570: 7F F8 FF FF 7F 73 31 34  34 02 80 6F 76 9E B1 0E  .....s144..ov...
1580: 01 5B 64 80 9E B1 0E 01  9E B1 0E 01 74 6C 6B 30  .[d.........tlk0
1590: 2B 9E B1 0E 01 A8 80 23  2B 9E B1 0E 01 A9 80 23  +......#+......#
15A0: 5B 64 80 9E B1 0E 01 9E  B1 0E 01 74 6C 6B 31 03  [d.........tlk1.
15B0: 1C 17 AA 80 27 10 9E B1  0E 01 04 02 87 7F 29 80  ....'.........).
15C0: 80 D5 15 52 17 80 F8 FF  FF 7F F8 FF FF 7F 73 31  ...R..........s1
15D0: 34 35 01 FE 15 02 87 7F  45 80 80 EF 15 52 17 80  45......E....R..
15E0: F8 FF FF 7F F8 FF FF 7F  73 31 34 35 01 FE 15 52  ........s145...R
15F0: 17 80 F8 FF FF 7F F8 FF  FF 7F 73 31 34 34 45 17  ..........s144E.
1600: 80 F8 FF FF 7F F8 FF FF  7F 73 31 34 36 02 80 2A  .........s146..*
1610: 10 9E B1 0E 01 5B 64 80  9E B1 0E 01 9E B1 0E 01  .....[d.........
1620: 6B 61 74 30 03 03 10 AB  80 03 04 10 AC 80 2B 9E  kat0..........+.
1630: B1 0E 01 AD 80 23 52 17  80 F8 FF FF 7F F8 FF FF  .....#R.........
1640: 7F 73 31 34 36 45 17 80  F8 FF FF 7F F8 FF FF 7F  .s146E..........
1650: 73 31 34 37 02 80 53 9E  B1 0E 01 9E B1 0E 01 6B  s147..S........k
1660: 61 74 31 03 19 17 AE 80  03 1A 17 AF 80 03 1B 17  at1.............
1670: 06 80 27 10 9E B1 0E 01  03 1C 1E 80 52 17 80 F8  ..'.........R...
1680: FF FF 7F F8 FF FF 7F 73  31 34 37 02 87 7F 29 80  .......s147...).
1690: 80 A7 16 45 17 80 F8 FF  FF 7F F8 FF FF 7F 73 31  ...E..........s1
16A0: 34 39 02 80 01 D4 16 02  87 7F 45 80 80 C3 16 45  49........E....E
16B0: 17 80 F8 FF FF 7F F8 FF  FF 7F 73 31 34 39 02 80  ..........s149..
16C0: 01 D4 16 45 17 80 F8 FF  FF 7F F8 FF FF 7F 73 31  ...E..........s1
16D0: 34 38 02 80 4A 9C B1 0E  01 F0 FF FF 7F 1C 75 80  48..J.........u.
16E0: 4A F0 FF FF 7F 9C B1 0E  01 6F 76 9C B1 0E 01 2B  J........ov....+
16F0: 9C B1 0E 01 B0 80 23 2B  9C B1 0E 01 B1 80 23 2B  ......#+......#+
1700: 9C B1 0E 01 B2 80 23 2B  9C B1 0E 01 B3 80 23 40  ......#+......#@
1710: 02 80 00 80 01 10 6E 80  01 A0 19 5C 00 34 80 5C  ......n....\.4.\
1720: 01 34 80 9A BA 9E B1 0E  01 B4 80 B5 80 06 80 07  .4..............
1730: 80 80 9E B1 0E 01 03 19  17 B6 80 03 1A 17 B7 80  ................
1740: 03 1B 17 06 80 27 10 9E  B1 0E 01 03 02 87 7F 29  .....'.........)
1750: 80 80 68 17 45 17 80 F8  FF FF 7F F8 FF FF 7F 73  ..h.E..........s
1760: 31 32 38 02 80 01 95 17  02 87 7F 45 80 80 84 17  128........E....
1770: 45 17 80 F8 FF FF 7F F8  FF FF 7F 73 31 32 38 02  E..........s128.
1780: 80 01 95 17 45 17 80 F8  FF FF 7F F8 FF FF 7F 73  ....E..........s
1790: 31 32 37 02 80 45 01 80  F0 FF FF 7F F0 FF FF 7F  127..E..........
17A0: 66 64 69 31 02 80 1C 8A  80 02 87 7F 29 80 80 C3  fdi1........)...
17B0: 17 52 17 80 F8 FF FF 7F  F8 FF FF 7F 73 31 32 38  .R..........s128
17C0: 01 EC 17 02 87 7F 45 80  80 DD 17 52 17 80 F8 FF  ......E....R....
17D0: FF 7F F8 FF FF 7F 73 31  32 38 01 EC 17 52 17 80  ......s128...R..
17E0: F8 FF FF 7F F8 FF FF 7F  73 31 32 37 45 17 80 F8  ........s127E...
17F0: FF FF 7F F8 FF FF 7F 73  31 32 39 02 80 2A 10 9E  .......s129..*..
1800: B1 0E 01 5B 64 80 9E B1  0E 01 9E B1 0E 01 74 6C  ...[d.........tl
1810: 6B 30 03 02 10 65 80 03  03 10 B8 80 2B 9E B1 0E  k0...e......+...
1820: 01 B9 80 23 03 04 10 BA  80 2B 9E B1 0E 01 BB 80  ...#.....+......
1830: 23 03 05 10 8B 80 2B 9E  B1 0E 01 BC 80 23 2B 9E  #.....+......#+.
1840: B1 0E 01 BD 80 23 5B 64  80 9E B1 0E 01 9E B1 0E  .....#[d........
1850: 01 74 6C 6B 31 03 1C 17  07 80 27 10 9E B1 0E 01  .tlk1.....'.....
1860: 04 52 17 80 F8 FF FF 7F  F8 FF FF 7F 73 31 32 39  .R..........s129
1870: 45 17 80 F8 FF FF 7F F8  FF FF 7F 73 31 33 30 02  E..........s130.
1880: 80 2A 10 9E B1 0E 01 5B  64 80 9E B1 0E 01 9E B1  .*.....[d.......
1890: 0E 01 74 6C 6B 30 2B 9E  B1 0E 01 BE 80 23 2B 9E  ..tlk0+......#+.
18A0: B1 0E 01 BF 80 23 2B 9E  B1 0E 01 C0 80 23 5B 64  .....#+......#[d
18B0: 80 9E B1 0E 01 9E B1 0E  01 74 6C 6B 31 03 19 17  .........tlk1...
18C0: 08 80 03 1A 17 95 80 03  1B 17 06 80 27 10 9E B1  ............'...
18D0: 0E 01 03 1C 1D 80 52 17  80 F8 FF FF 7F F8 FF FF  ......R.........
18E0: 7F 73 31 33 30 45 17 80  F8 FF FF 7F F8 FF FF 7F  .s130E..........
18F0: 73 31 33 31 02 80 4A 9C  B1 0E 01 9E B1 0E 01 6F  s131..J........o
1900: 76 9C B1 0E 01 1C 16 80  4A F0 FF FF 7F 9E B1 0E  v.......J.......
1910: 01 2B 9C B1 0E 01 C1 80  23 4A 9C B1 0E 01 F0 FF  .+......#J......
1920: FF 7F 1C 16 80 4A F0 FF  FF 7F 9C B1 0E 01 1C 1D  .....J..........
1930: 80 52 17 80 F8 FF FF 7F  F8 FF FF 7F 73 31 33 31  .R..........s131
1940: 02 87 7F 29 80 80 5C 19  45 17 80 F8 FF FF 7F F8  ...)..\.E.......
1950: FF FF 7F 73 31 33 33 02  80 01 89 19 02 87 7F 45  ...s133........E
1960: 80 80 78 19 45 17 80 F8  FF FF 7F F8 FF FF 7F 73  ..x.E..........s
1970: 31 33 33 02 80 01 89 19  45 17 80 F8 FF FF 7F F8  133.....E.......
1980: FF FF 7F 73 31 33 32 02  80 6F 76 F0 FF FF 7F 2B  ...s132..ov....+
1990: 9C B1 0E 01 C2 80 23 40  02 80 00 80 01 10 6E 80  ......#@......n.
19A0: 45 01 80 F0 FF FF 7F F0  FF FF 7F 66 64 6F 31 02  E..........fdo1.
19B0: 80 55 01 80 F0 FF FF 7F  F0 FF FF 7F 66 64 6F 31  .U..........fdo1
19C0: 5C 00 6C 80 5C 01 6C 80  02 87 7F 29 80 80 00 1A  \.l.\.l....)....
19D0: 52 17 80 F8 FF FF 7F F8  FF FF 7F 73 31 32 36 52  R..........s126R
19E0: 17 80 F8 FF FF 7F F8 FF  FF 7F 73 31 33 33 52 17  ..........s133R.
19F0: 80 F8 FF FF 7F F8 FF FF  7F 73 31 34 39 01 65 1A  .........s149.e.
1A00: 02 87 7F 45 80 80 38 1A  52 17 80 F8 FF FF 7F F8  ...E..8.R.......
1A10: FF FF 7F 73 31 32 36 52  17 80 F8 FF FF 7F F8 FF  ...s126R........
1A20: FF 7F 73 31 33 33 52 17  80 F8 FF FF 7F F8 FF FF  ..s133R.........
1A30: 7F 73 31 34 39 01 65 1A  52 17 80 F8 FF FF 7F F8  .s149.e.R.......
1A40: FF FF 7F 73 31 32 35 52  17 80 F8 FF FF 7F F8 FF  ...s125R........
1A50: FF 7F 73 31 33 32 52 17  80 F8 FF FF 7F F8 FF FF  ..s132R.........
1A60: 7F 73 31 34 38 46 00 45  01 80 F0 FF FF 7F F0 FF  .s148F.E........
1A70: FF 7F 66 64 69 31 02 80  01 7E 1A 01 81 1A 01 B4  ..fdi1...~......
1A80: 1A 45 01 80 F0 FF FF 7F  F0 FF FF 7F 66 64 69 31  .E..........fdi1
1A90: 02 80 03 07 00 02 10 02  07 00 02 80 00 AB 1A 40  ...............@
1AA0: 02 80 00 80 01 10 02 80  01 B4 1A 2E 03 02 10 07  ................
1AB0: 00 01 61 0D 01 C5 1A 02  00 10 00 80 00 C5 1A 01  ..a.............
1AC0: 61 0D 01 C5 1A 01 C8 1A  01 1C 1B 02 00 10 00 80  a...............
1AD0: 00 08 1B 42 2B 9C B1 0E  01 59 80 23 40 02 80 00  ...B+....Y.#@...
1AE0: 80 01 10 5D 80 73 5A 80  9C B1 0E 01 F0 FF FF 7F  ...].sZ.........
1AF0: 1C 5B 80 45 01 80 F0 FF  FF 7F F0 FF FF 7F 66 64  .[.E..........fd
1B00: 6F 31 02 80 30 01 1C 1B  02 00 10 5D 80 00 1C 1B  o1..0......]....
1B10: 40 02 80 00 80 01 10 02  80 01 1C 1B 21 00 06 13  @...........!...
1B20: 00 02 0F 00 02 80 00 F3  1B 02 0C 00 00 80 00 39  ...............9
1B30: 1B 0E 13 00 C3 80 01 3E  1B 0E 13 00 C4 80 02 0D  .......>........
1B40: 00 00 80 00 4E 1B 0E 13  00 C5 80 01 53 1B 0E 13  ....N.......S...
1B50: 00 C6 80 02 0A 00 02 80  00 60 1B 0E 13 00 C7 80  .........`......
1B60: 9D 00 82 1C 03 10 00 80  9D 00 C2 1C 04 10 00 80  ................
1B70: 9D 00 82 1C 05 10 6E 80  9D 00 C2 1C 06 10 6E 80  ......n.......n.
1B80: 9D 00 82 1C 07 10 29 80  9D 00 C2 1C 08 10 29 80  ......).......).
1B90: 9D 00 82 1C 09 10 6D 80  9D 00 C2 1C 00 17 6D 80  ......m.......m.
1BA0: 9D 00 82 1C 01 17 C8 80  9D 00 C2 1C 02 17 C8 80  ................
1BB0: 9D 00 82 1C 03 17 C9 80  9D 00 C2 1C 04 17 C9 80  ................
1BC0: 9D 00 82 1C 05 17 CA 80  9D 00 C2 1C 06 17 CA 80  ................
1BD0: 9D 00 82 1C 07 17 CB 80  9D 00 C2 1C 08 17 CB 80  ................
1BE0: 9D 00 82 1C 09 17 CC 80  9D 00 C2 1C 0A 17 CC 80  ................
1BF0: 01 7C 1C 0E 13 00 CD 80  9D 00 82 1C 03 10 82 80  .|..............
1C00: 9D 00 C2 1C 04 10 82 80  9D 00 82 1C 05 10 03 80  ................
1C10: 9D 00 C2 1C 06 10 03 80  9D 00 82 1C 07 10 CE 80  ................
1C20: 9D 00 C2 1C 08 10 CE 80  9D 00 82 1C 09 10 0D 80  ................
1C30: 9D 00 C2 1C 00 17 0D 80  9D 00 82 1C 01 17 CF 80  ................
1C40: 9D 00 C2 1C 02 17 CF 80  9D 00 82 1C 03 17 27 80  ..............'.
1C50: 9D 00 C2 1C 04 17 27 80  9D 00 82 1C 05 17 D0 80  ......'.........
1C60: 9D 00 C2 1C 06 17 D0 80  03 07 17 02 80 03 08 17  ................
1C70: 02 80 03 09 17 02 80 03  0A 17 02 80 03 0B 17 0F  ................
1C80: 00 1B 02 80 D1 80 02 80  D2 80 02 80 D3 80 02 80  ................
1C90: D4 80 D5 80 D6 80 02 80  D7 80 02 80 D8 80 D9 80  ................
1CA0: 02 80 02 80 DA 80 02 80  DB 80 02 80 DC 80 02 80  ................
1CB0: 7A 80 7B 80 7C 80 02 80  7D 80 02 80 02 80 02 80  z.{.|...}.......
1CC0: 02 80 02 80 1D 80 02 80  1D 80 02 80 2F 80 02 80  ............/...
1CD0: 2F 80 2F 80 2F 80 02 80  16 80 02 80 16 80 16 80  /././...........
1CE0: 02 80 02 80 75 80 02 80  75 80 02 80 29 80 02 80  ....u...u...)...
1CF0: 00 80 00 80 00 80 02 80  00 80 02 80 02 80 02 80  ................
1D00: 02 80                                             ..              
```

#### Opcodes

```
  0: 0x0C8B [0x03] ExtData[1]->WorkLocal[7] = Work_Zone[2]
  1: 0x0C90 [0x03] ExtData[1]->WorkLocal[8] = Work_Zone[3]
  2: 0x0C95 [0x03] ExtData[1]->WorkLocal[9] = Work_Zone[4]
  3: 0x0C9A [0x03] ExtData[1]->WorkLocal[10] = Work_Zone[5]
  4: 0x0C9F [0x03] ExtData[1]->WorkLocal[11] = Work_Zone[6]
  5: 0x0CA4 [0x03] ExtData[1]->WorkLocal[12] = Work_Zone[7]
  6: 0x0CA9 [0x03] ExtData[1]->WorkLocal[13] = Work_Zone[8]
  7: 0x0CAE [0x03] ExtData[1]->WorkLocal[1] = Work_Zone[9]
  8: 0x0CB3 [0x03] ExtData[1]->WorkLocal[2] = 1*
  9: 0x0CB8 [0x4A] Sludge (ID: 17740188/0x010EB19C) looks at LocalPlayer
 10: 0x0CC1 [0x06] ExtData[1]->WorkLocal[17] = 0
 11: 0x0CC4 [0x06] ExtData[1]->WorkLocal[18] = 0
 12: 0x0CC7 [0x41] ExtData[1]->WorkLocal[18] = ExtData[1]->WorkLocal[8] (bits 0*-2*)
 13: 0x0CD0 [0x02] IF !(ExtData[1]->WorkLocal[18] == 7*) GOTO 0x0CDF
 14: 0x0CD8 [0x3C] SET_BIT_FLAG_CONDITIONAL(target_work_offset=ExtData[1]->WorkLocal[17], bit_index_work_offset=0*, condition_work_offset=1*)
 15: 0x0CDF [0x41] ExtData[1]->WorkLocal[18] = ExtData[1]->WorkLocal[8] (bits 3*-5*)
 16: 0x0CE8 [0x02] IF !(ExtData[1]->WorkLocal[18] == 7*) GOTO 0x0CF7
 17: 0x0CF0 [0x3C] SET_BIT_FLAG_CONDITIONAL(target_work_offset=ExtData[1]->WorkLocal[17], bit_index_work_offset=1*, condition_work_offset=1*)
 18: 0x0CF7 [0x02] IF !(ExtData[1]->WorkLocal[17] == ExtData[1]->WorkLocal[9]) GOTO 0x0D23
 19: 0x0CFF [0x42] SET_CLI_EVENT_CANCEL_DATA()
 20: 0x0D00 [0x45] LOAD_SCHEDULED_TASK: Load scheduler "fdo1" with entities [LocalPlayer, LocalPlayer], work=[200*, 0*]
 21: 0x0D11 [0x55] WAIT_LOAD_SCHEDULER: Wait for scheduler "fdo1" with entities [LocalPlayer, LocalPlayer], work=200*
 22: 0x0D20 [0x01] GOTO 0x0FF0
 23: 0x0D23 [0x02] IF !(ExtData[1]->WorkLocal[11] == 1*) GOTO 0x0D3E
 24: 0x0D2B [0x42] SET_CLI_EVENT_CANCEL_DATA()
 25: 0x0D2C [0x2B] Sludge (ID: 17740188/0x010EB19C) [14200*]:
    → "Oh! Oh! Horro gave me something special for you! He must be really goorateful!"
 26: 0x0D33 [0x23] WAIT_FOR_DIALOG_INTERACTION
 27: 0x0D34 [0x40] SET_BIT_WORK_RANGE(start_bit=0*, end_bit=1*, target=Work_Zone[1], source=3*)
 28: 0x0D3D [0x21] END_EVENT
 29: 0x0D3E [0x03] Work_Zone[2] = ExtData[1]->WorkLocal[7]
 30: 0x0D43 [0x2B] Sludge (ID: 17740188/0x010EB19C) [14161*]:
    → "Let me see... $0 slime coins? Not bad! Is there anything I can do for you?"
 31: 0x0D4A [0x23] WAIT_FOR_DIALOG_INTERACTION

SUBROUTINE_0D4B:
 32: 0x0D4B [0x06] ExtData[1]->WorkLocal[14] = 0
 33: 0x0D4E [0x06] ExtData[1]->WorkLocal[15] = 0
 34: 0x0D51 [0x24] CREATE_DIALOG(message_id=14162*, default_option=0*, option_flags=0*)
    → "Any requests? ($0 coins) [I want to check available items./I want to be warped outside town./Nothing in particular.]"
 35: 0x0D58 [0x25] WAIT_DIALOG_SELECT()
 36: 0x0D59 [0x02] IF !(Work_Zone[0] == 0*) GOTO 0x1ACB

SUBROUTINE_0D61:
 37: 0x0D61 [0x1A] CALL_SUBROUTINE(address=0x1B1E)
 38: 0x0D64 [0x24] CREATE_DIALOG(message_id=14163*, default_option=ExtData[1]->WorkLocal[14], option_flags=ExtData[1]->WorkLocal[19])
    → "Check which item? (Total: $0 coin[/s]) [???/$1. ($2 coin[/s])/???/$3. ($4 coin[/s])/???/$5. ($6 coin[/s])/???/$7. ($8 coin[/s])/$9. ($10 coin[/s])/$11. ($12 coin[/s])/???/$13. ($14 coin[/s])/???/$15. ($16 coin[/s])/$17. ($18 coin[/s])/[Next page/Previous page].@@/Back.]"
 39: 0x0D6B [0x25] WAIT_DIALOG_SELECT()
 40: 0x0D6C [0x02] IF !(Work_Zone[0] == 0*) GOTO 0x0D87
 41: 0x0D74 [0x2B] Sludge (ID: 17740188/0x010EB19C) [14164*]:
    → "Hee hee! That one's a secret!"
 42: 0x0D7B [0x23] WAIT_FOR_DIALOG_INTERACTION
 43: 0x0D7C [0x03] ExtData[1]->WorkLocal[14] = Work_Zone[0]
 44: 0x0D81 [0x01] GOTO 0x0D61

SUBROUTINE_0E2B:
 45: 0x0E2B [0x06] ExtData[1]->WorkLocal[14] = 0
 46: 0x0E2E [0x01] GOTO 0x0D61

SUBROUTINE_0E45:
 47: 0x0E45 [0x03] ExtData[1]->WorkLocal[14] = Work_Zone[0]
 48: 0x0E4A [0x03] ExtData[1]->WorkLocal[17] = ExtData[1]->WorkLocal[14]
 49: 0x0E4F [0x02] IF !(ExtData[1]->WorkLocal[15] == 1*) GOTO 0x0E5C
 50: 0x0E57 [0x07] ExtData[1]->WorkLocal[17] += 16*
 51: 0x0E5C [0x9D] Work_Zone_1700[12] = 0x1C82[ExtData[1]->WorkLocal[17]] // Read WORD
 52: 0x0E64 [0x9D] Work_Zone_1700[13] = 0x1CC2[ExtData[1]->WorkLocal[17]] // Read WORD
 53: 0x0E6C [0x02] IF !(ExtData[1]->WorkLocal[7] < Work_Zone_1700[13]) GOTO 0x0E7A
 54: 0x0E74 [0x05] Work_Zone_1700[14] = 1
 55: 0x0E77 [0x01] GOTO 0x0E7D
 56: 0x0E7A [0x06] Work_Zone_1700[14] = 0

SUBROUTINE_0E7D:
 57: 0x0E7D [0x93] DISPLAY_ITEM_INFO(item_id=Work_Zone_1700[12])
 58: 0x0E80 [0x2B] Sludge (ID: 17740188/0x010EB19C) [14165*]:
    → "I can give you $20 for <slurp> $21 [coin/coins]. [Regooably, you don't have enough./Goo you want this item?/]"
 59: 0x0E87 [0x23] WAIT_FOR_DIALOG_INTERACTION
 60: 0x0E88 [0x93] DISPLAY_ITEM_INFO(item_id=0*)
 61: 0x0E8B [0x02] IF !(Work_Zone_1700[14] == 0*) GOTO 0x0E99
 62: 0x0E93 [0x01] GOTO 0x0D61

SUBROUTINE_0EEC:
 63: 0x0EEC [0x02] IF !(ExtData[1]->WorkLocal[17] == 1*) GOTO 0x0F60
 64: 0x0EF4 [0x03] ExtData[1]->WorkLocal[17] = Work_Zone_1700[13]
 65: 0x0EF9 [0x14] ExtData[1]->WorkLocal[17] *= 2*
 66: 0x0EFE [0x02] IF !(ExtData[1]->WorkLocal[7] < ExtData[1]->WorkLocal[17]) GOTO 0x0F58
 67: 0x0F06 [0x03] Work_Zone_1700[15] = ExtData[1]->WorkLocal[7]
 68: 0x0F0B [0x15] Work_Zone_1700[15] /= Work_Zone_1700[13]
 69: 0x0F10 [0x2B] Sludge (ID: 17740188/0x010EB19C) [14166*]:
    → "I can sell you between 1 and $23. How many do you desire?"
 70: 0x0F17 [0x23] WAIT_FOR_DIALOG_INTERACTION

SUBROUTINE_0F18:
 71: 0x0F18 [0x71] USER_INPUT_HANDLER: Open numerical input dialog (work=1*)
 72: 0x0F1C [0x71] USER_INPUT_HANDLER: Process numerical input A (work=ExtData[1]->WorkLocal[16])
 73: 0x0F20 [0x02] IF !(ExtData[1]->WorkLocal[16] == 0*) GOTO 0x0F2B
 74: 0x0F28 [0x01] GOTO 0x0D61
 75: 0x0F2B [0x02] IF !(ExtData[1]->WorkLocal[16] <= 7920*) GOTO 0x0F38
 76: 0x0F33 [0x03] ExtData[1]->WorkLocal[16] = 7920*
 77: 0x0F38 [0x03] ExtData[1]->WorkLocal[17] = Work_Zone_1700[13]
 78: 0x0F3D [0x14] ExtData[1]->WorkLocal[17] *= ExtData[1]->WorkLocal[16]
 79: 0x0F42 [0x02] IF !(ExtData[1]->WorkLocal[17] <= ExtData[1]->WorkLocal[7]) GOTO 0x0F55
 80: 0x0F4A [0x2B] Sludge (ID: 17740188/0x010EB19C) [14167*]:
    → "<Slurp> you don't have enough coins for that many! You can only purchase up to $23 total."
 81: 0x0F51 [0x23] WAIT_FOR_DIALOG_INTERACTION
 82: 0x0F52 [0x01] GOTO 0x0F18
 83: 0x0F55 [0x01] GOTO 0x0F5D
 84: 0x0F58 [0x03] ExtData[1]->WorkLocal[16] = 1*

SUBROUTINE_0F5D:
 85: 0x0F5D [0x01] GOTO 0x0F65
 86: 0x0F60 [0x03] ExtData[1]->WorkLocal[16] = 1*

SUBROUTINE_0F65:
 87: 0x0F65 [0x42] SET_CLI_EVENT_CANCEL_DATA()
 88: 0x0F66 [0x40] SET_BIT_WORK_RANGE(start_bit=0*, end_bit=1*, target=Work_Zone[1], source=1*)
 89: 0x0F6F [0x03] ExtData[1]->WorkLocal[17] = ExtData[1]->WorkLocal[14]
 90: 0x0F74 [0x02] IF !(ExtData[1]->WorkLocal[15] == 1*) GOTO 0x0F81
 91: 0x0F7C [0x07] ExtData[1]->WorkLocal[17] += 16*
 92: 0x0F81 [0x40] SET_BIT_WORK_RANGE(start_bit=18*, end_bit=22*, target=Work_Zone[1], source=ExtData[1]->WorkLocal[17])
 93: 0x0F8A [0x40] SET_BIT_WORK_RANGE(start_bit=5*, end_bit=17*, target=Work_Zone[1], source=ExtData[1]->WorkLocal[16])
 94: 0x0F93 [0x45] LOAD_SCHEDULED_TASK: Load scheduler "fdo1" with entities [LocalPlayer, LocalPlayer], work=[200*, 0*]
 95: 0x0FA4 [0x55] WAIT_LOAD_SCHEDULER: Wait for scheduler "fdo1" with entities [LocalPlayer, LocalPlayer], work=200*
 96: 0x0FB3 [0x2B] Sludge (ID: 17740188/0x010EB19C) [14169*]:
    → "<Quiver>... <Shake> <Shake>..."
 97: 0x0FBA [0x23] WAIT_FOR_DIALOG_INTERACTION
 98: 0x0FBB [0x43] SEND_EVENT_UPDATE: Send pending tag to server (packet 0x005B)
 99: 0x0FBD [0x43] SEND_EVENT_UPDATE: Check pending flag (skip if not pending)
100: 0x0FBF [0x02] IF !(Work_Zone[2] >= 0*) GOTO 0x0FE3
101: 0x0FC7 [0x45] LOAD_SCHEDULED_TASK: Load scheduler "fdi1" with entities [LocalPlayer, LocalPlayer], work=[200*, 0*]
102: 0x0FD8 [0x40] SET_BIT_WORK_RANGE(start_bit=0*, end_bit=1*, target=Work_Zone[1], source=0*)
103: 0x0FE1 [0x21] END_EVENT
104: 0x0FE2 [0x00] END_REQSTACK()
105: 0x0FE3 [0x02] IF !(ExtData[1]->WorkLocal[8] == Work_Zone[3]) GOTO 0x1A81
106: 0x0FEB [0x03] ExtData[1]->WorkLocal[8] = Work_Zone[3]

SUBROUTINE_0FF0:
107: 0x0FF0 [0x06] ExtData[1]->WorkLocal[17] = 0
108: 0x0FF3 [0x06] ExtData[1]->WorkLocal[18] = 0
109: 0x0FF6 [0x41] ExtData[1]->WorkLocal[18] = ExtData[1]->WorkLocal[8] (bits 0*-2*)
110: 0x0FFF [0x02] IF !(ExtData[1]->WorkLocal[18] == 7*) GOTO 0x100E
111: 0x1007 [0x3C] SET_BIT_FLAG_CONDITIONAL(target_work_offset=ExtData[1]->WorkLocal[17], bit_index_work_offset=0*, condition_work_offset=1*)
112: 0x100E [0x41] ExtData[1]->WorkLocal[18] = ExtData[1]->WorkLocal[8] (bits 3*-5*)
113: 0x1017 [0x02] IF !(ExtData[1]->WorkLocal[18] == 7*) GOTO 0x1026
114: 0x101F [0x3C] SET_BIT_FLAG_CONDITIONAL(target_work_offset=ExtData[1]->WorkLocal[17], bit_index_work_offset=1*, condition_work_offset=1*)
115: 0x1026 [0x02] IF !(ExtData[1]->WorkLocal[17] == ExtData[1]->WorkLocal[9]) GOTO 0x1A7B
116: 0x102E [0x46] CAMERA_CONTROL: Disable user control
117: 0x1030 [0x38] SET_CLIENT_EVENT_MODE(mode=19*)
118: 0x1033 [0x92] Sludge (ID: 17740188/0x010EB19C)->Render.Flags3 ^= 0x01
119: 0x1039 [0x94] Sludge (ID: 17740188/0x010EB19C)->Render.Flags3 ^= 0x01
120: 0x103F [0x94] LocalPlayer->Render.Flags3 ^= 0x01
121: 0x1045 [0x94] Unnamed NPC (ID: 17740191/0x010EB19F)->Render.Flags3 ^= 0x01
122: 0x104B [0xBA] SET_ENTITY_POSITION(entity_id=LocalPlayer, pos_x=-321.500*, pos_z=-136.500*, pos_y=-10.000*, direction=377476106.8°*)
123: 0x1058 [0x4A] Sludge (ID: 17740188/0x010EB19C) looks at LocalPlayer
124: 0x1061 [0x4A] LocalPlayer looks at Sludge (ID: 17740188/0x010EB19C)
125: 0x106A [0x2F] Horro (ID: 17740190/0x010EB19E)->Render.Flags0 &= ~0x80000 // Bit 19
126: 0x1070 [0x4E] SET_ENTITY_HIDE_FLAG: Show Horro (ID: 17740190/0x010EB19E)
127: 0x1076 [0x1C] WAIT(60* ticks)
128: 0x1079 [0x92] Ken (ID: 17739893/0x010EB075)->Render.Flags3 ^= 0x01
129: 0x107F [0x92] Marin (ID: 17739892/0x010EB074)->Render.Flags3 ^= 0x01
130: 0x1085 [0x92] Rabid Wolf, I.M. (ID: 17739828/0x010EB034)->Render.Flags3 ^= 0x01
131: 0x108B [0x92] Pavel (ID: 17739829/0x010EB035)->Render.Flags3 ^= 0x01
132: 0x1091 [0x92] Cleades (ID: 17739827/0x010EB033)->Render.Flags3 ^= 0x01
133: 0x1097 [0x92] Gulldago (ID: 17739939/0x010EB0A3)->Render.Flags3 ^= 0x01
134: 0x109D [0x02] IF !(ExtData[1]->WorkLocal[17] == 3*) GOTO 0x171B
135: 0x10A5 [0x5C] MUSIC_CONTROL: Set Idle (Day) music to song 129*
136: 0x10A9 [0x5C] MUSIC_CONTROL: Set Idle (Night) music to song 129*
137: 0x10AD [0x9A] WAIT_MUSIC_SERVER()
138: 0x10AE [0x2F] Unnamed NPC (ID: 17740191/0x010EB19F)->Render.Flags0 &= ~0x80000 // Bit 19
139: 0x10B4 [0x4E] SET_ENTITY_HIDE_FLAG: Show Unnamed NPC (ID: 17740191/0x010EB19F)
140: 0x10BA [0x59] UPDATE_ENTITY_DATA: Unnamed NPC (ID: 17740191/0x010EB19F)->Render.Flags0 |= 0x200000
141: 0x10C1 [0x03] ExtData[1]->WorkLocal[3] = 4294644796*
142: 0x10C6 [0x03] ExtData[1]->WorkLocal[4] = 4294828496*
143: 0x10CB [0x03] ExtData[1]->WorkLocal[5] = 4294957296*
144: 0x10D0 [0x08] ExtData[1]->WorkLocal[5] -= 1000*
145: 0x10D5 [0xBA] SET_ENTITY_POSITION(entity_id=Unnamed NPC (ID: 17740191/0x010EB19F), pos_x=ExtData[1]->WorkLocal[3], pos_z=ExtData[1]->WorkLocal[4], pos_y=ExtData[1]->WorkLocal[5], direction=0.0°*)
146: 0x10E2 [0xBA] SET_ENTITY_POSITION(entity_id=Horro (ID: 17740190/0x010EB19E), pos_x=-329.500*, pos_z=-150.500*, pos_y=-10.000*, direction=377476174.3°*)
147: 0x10EF [0x80] LOAD_WAIT(entity=Horro (ID: 17740190/0x010EB19E))
148: 0x10F4 [0x03] Work_Zone_1700[25] = 4294641796*
149: 0x10F9 [0x03] Work_Zone_1700[26] = 4294820796*
150: 0x10FE [0x03] Work_Zone_1700[27] = 4294957296*
151: 0x1103 [0x27] REQ_SET(priority=0x10, entity_id=Horro (ID: 17740190/0x010EB19E), tag_num=0x03)
152: 0x110A [0x45] LOAD_SCHEDULED_TASK: Load scheduler "s134" with entities [EventEntity, EventEntity], work=[637*, 0*]
153: 0x111B [0x45] LOAD_SCHEDULED_TASK: Load scheduler "fdi1" with entities [LocalPlayer, LocalPlayer], work=[200*, 0*]
154: 0x112C [0x1C] WAIT(150* ticks)
155: 0x112F [0x52] END_LOAD_SCHEDULER: End scheduler "s134" with entities [EventEntity, EventEntity], work=637*
156: 0x113E [0x45] LOAD_SCHEDULED_TASK: Load scheduler "s135" with entities [EventEntity, EventEntity], work=[637*, 0*]
157: 0x114F [0x2A] GET_REQ_LEVEL(level=16, entity_id=Horro (ID: 17740190/0x010EB19E))
158: 0x1155 [0x5B] LOAD_EXT_SCHEDULER: Load scheduler "tlk0" with entities [Horro (ID: 17740190/0x010EB19E), Horro (ID: 17740190/0x010EB19E)], work=3323*
159: 0x1164 [0x03] Work_Zone[2] = 5774*
160: 0x1169 [0x2B] Horro (ID: 17740190/0x010EB19E) [14179*]:
    → "Oh my, how lovely! Ranpi-Monpi was right about these $0!"
161: 0x1170 [0x23] WAIT_FOR_DIALOG_INTERACTION
162: 0x1171 [0x5B] LOAD_EXT_SCHEDULER: Load scheduler "tlk1" with entities [Horro (ID: 17740190/0x010EB19E), Horro (ID: 17740190/0x010EB19E)], work=3323*
163: 0x1180 [0x5C] MUSIC_CONTROL: Set Idle (Day) music to song 136*
164: 0x1184 [0x5C] MUSIC_CONTROL: Set Idle (Night) music to song 136*
165: 0x1188 [0x52] END_LOAD_SCHEDULER: End scheduler "s135" with entities [EventEntity, EventEntity], work=637*
166: 0x1197 [0x45] LOAD_SCHEDULED_TASK: Load scheduler "s136" with entities [EventEntity, EventEntity], work=[637*, 0*]
167: 0x11A8 [0x4A] Sludge (ID: 17740188/0x010EB19C) looks at Horro (ID: 17740190/0x010EB19E)
168: 0x11B1 [0x6F] WAIT_FRAME_DELAY: Yield until WaitTime reaches zero
169: 0x11B2 [0x76] CHECK_ENTITY_RENDER_FLAGS: Wait until Sludge (ID: 17740188/0x010EB19C) Render.Flags0 and Render.Flags3 conditions are met
170: 0x11B7 [0x2B] Sludge (ID: 17740188/0x010EB19C) [14180*]:
    → "O-oh no! Horro's done shopping!"
171: 0x11BE [0x23] WAIT_FOR_DIALOG_INTERACTION
172: 0x11BF [0x2B] Sludge (ID: 17740188/0x010EB19C) [14181*]:
    → "I've got to tell him what happened so he'll stay a while longer."
173: 0x11C6 [0x23] WAIT_FOR_DIALOG_INTERACTION
174: 0x11C7 [0x52] END_LOAD_SCHEDULER: End scheduler "s136" with entities [EventEntity, EventEntity], work=637*
175: 0x11D6 [0x45] LOAD_SCHEDULED_TASK: Load scheduler "boff" with entities [EventEntity, EventEntity], work=[637*, 0*]
176: 0x11E7 [0x55] WAIT_LOAD_SCHEDULER: Wait for scheduler "boff" with entities [EventEntity, EventEntity], work=637*
177: 0x11F6 [0x45] LOAD_SCHEDULED_TASK: Load scheduler "s137" with entities [EventEntity, EventEntity], work=[637*, 0*]
178: 0x1207 [0x03] Work_Zone_1700[0] = 4294643546*
179: 0x120C [0x03] Work_Zone_1700[1] = 4294831116*
180: 0x1211 [0x03] Work_Zone_1700[2] = 4294956462*
181: 0x1216 [0x27] REQ_SET(priority=0x10, entity_id=Sludge (ID: 17740188/0x010EB19C), tag_num=0x03)
182: 0x121D [0x4A] LocalPlayer looks at Unnamed NPC (ID: 17740191/0x010EB19F)
183: 0x1226 [0x2A] GET_REQ_LEVEL(level=16, entity_id=Sludge (ID: 17740188/0x010EB19C))
184: 0x122C [0xBA] SET_ENTITY_POSITION(entity_id=Sludge (ID: 17740188/0x010EB19C), pos_x=-323.750*, pos_z=-136.180*, pos_y=-10.834*, direction=377476163.0°*)
185: 0x1239 [0x59] UPDATE_ENTITY_DATA: Sludge (ID: 17740188/0x010EB19C)->Render.Flags0 &= ~0x200000
186: 0x1240 [0x03] Work_Zone_1700[0] = 4294641996*
187: 0x1245 [0x03] Work_Zone_1700[1] = 4294822296*
188: 0x124A [0x03] Work_Zone_1700[2] = 4294957296*
189: 0x124F [0x27] REQ_SET(priority=0x10, entity_id=Sludge (ID: 17740188/0x010EB19C), tag_num=0x03)
190: 0x1256 [0x1C] WAIT(30* ticks)
191: 0x1259 [0x4A] LocalPlayer looks at Unnamed NPC (ID: 17740191/0x010EB19F)
192: 0x1262 [0x2A] GET_REQ_LEVEL(level=16, entity_id=Sludge (ID: 17740188/0x010EB19C))
193: 0x1268 [0x4A] Sludge (ID: 17740188/0x010EB19C) looks at Horro (ID: 17740190/0x010EB19E)
194: 0x1271 [0x1C] WAIT(30* ticks)
195: 0x1274 [0x4A] Horro (ID: 17740190/0x010EB19E) looks at Sludge (ID: 17740188/0x010EB19C)
196: 0x127D [0x6F] WAIT_FRAME_DELAY: Yield until WaitTime reaches zero
197: 0x127E [0x76] CHECK_ENTITY_RENDER_FLAGS: Wait until Horro (ID: 17740190/0x010EB19E) Render.Flags0 and Render.Flags3 conditions are met
198: 0x1283 [0x1C] WAIT(180* ticks)
199: 0x1286 [0x4A] Horro (ID: 17740190/0x010EB19E) looks at LocalPlayer
200: 0x128F [0x6F] WAIT_FRAME_DELAY: Yield until WaitTime reaches zero
