# 17740227

## Common Data

| Field            | Value                    |
|------------------|--------------------------|
| Zone             | Bastok Markets (ID: 235) |
| Block Size       | 13240 bytes              |
| Total Events     | 5                        |
| References Count | 137                      |

## List of Events

| Event ID              | Entrypoint   |   Size |   Instructions |
|-----------------------|--------------|--------|----------------|
| [65535](#event-65535) | 0x0000       |    658 |             62 |
| [675](#event-675)     | 0x0292       |   3947 |            453 |
| [676](#event-676)     | 0x11FD       |   3806 |            468 |
| [677](#event-677)     | 0x20DB       |     39 |              9 |
| [678](#event-678)     | 0x2102       |   4204 |            487 |

## DAT References (imed_data)

|   Index | Hex Value   |   Dec Value |
|---------|-------------|-------------|
|       0 | 0x00C8      |         200 |
|       1 | 0x0000      |           0 |
|       2 | 0x00C9      |         201 |
|       3 | 0x0001      |           1 |
|       4 | 0x002D      |          45 |
|       5 | 0x0002      |           2 |
|       6 | 0x001E      |          30 |
|       7 | 0x00D7      |         215 |
|       8 | 0x0093      |         147 |
|       9 | 0x012C      |         300 |
|      10 | 0xFFFEA498  |  4294878360 |
|      11 | 0xFFFE5A6A  |  4294859370 |
|      12 | 0xFFFFEF18  |  4294962968 |
|      13 | 0x06F7      |        1783 |
|      14 | 0x0019      |          25 |
|      15 | 0x007F      |         127 |
|      16 | 0x0003      |           3 |
|      17 | 0x033F      |         831 |
|      18 | 0x0005      |           5 |
|      19 | 0x0006      |           6 |
|      20 | 0x0008      |           8 |
|      21 | 0x3B55      |       15189 |
|      22 | 0x0050      |          80 |
|      23 | 0x3B56      |       15190 |
|      24 | 0x3B57      |       15191 |
|      25 | 0x0080      |         128 |
|      26 | 0x3B58      |       15192 |
|      27 | 0x3B59      |       15193 |
|      28 | 0x3B5E      |       15198 |
|      29 | 0x3B5A      |       15194 |
|      30 | 0x3B5B      |       15195 |
|      31 | 0x3B5C      |       15196 |
|      32 | 0x3B5D      |       15197 |
|      33 | 0x3B5F      |       15199 |
|      34 | 0x3B60      |       15200 |
|      35 | 0x3B61      |       15201 |
|      36 | 0x3B62      |       15202 |
|      37 | 0x3B63      |       15203 |
|      38 | 0x3B64      |       15204 |
|      39 | 0x3B65      |       15205 |
|      40 | 0x0007      |           7 |
|      41 | 0x3B6A      |       15210 |
|      42 | 0x0052      |          82 |
|      43 | 0x000A      |          10 |
|      44 | 0x3B6B      |       15211 |
|      45 | 0x3B6C      |       15212 |
|      46 | 0x3B6D      |       15213 |
|      47 | 0x3B66      |       15206 |
|      48 | 0x3B67      |       15207 |
|      49 | 0x3B68      |       15208 |
|      50 | 0x3B69      |       15209 |
|      51 | 0x0258      |         600 |
|      52 | 0x3B6E      |       15214 |
|      53 | 0x000F      |          15 |
|      54 | 0x0098      |         152 |
|      55 | 0x007A      |         122 |
|      56 | 0x3B6F      |       15215 |
|      57 | 0x3B70      |       15216 |
|      58 | 0x3B71      |       15217 |
|      59 | 0x3B72      |       15218 |
|      60 | 0x3B73      |       15219 |
|      61 | 0x3B74      |       15220 |
|      62 | 0x3B75      |       15221 |
|      63 | 0x3B76      |       15222 |
|      64 | 0x3B77      |       15223 |
|      65 | 0x3B78      |       15224 |
|      66 | 0x3B79      |       15225 |
|      67 | 0x3B7A      |       15226 |
|      68 | 0x3B7B      |       15227 |
|      69 | 0x3B7C      |       15228 |
|      70 | 0x3B7D      |       15229 |
|      71 | 0x3B7E      |       15230 |
|      72 | 0x3B7F      |       15231 |
|      73 | 0x3B80      |       15232 |
|      74 | 0x3B81      |       15233 |
|      75 | 0x3B82      |       15234 |
|      76 | 0x3B83      |       15235 |
|      77 | 0x3B84      |       15236 |
|      78 | 0x3B85      |       15237 |
|      79 | 0x3B86      |       15238 |
|      80 | 0x3B87      |       15239 |
|      81 | 0x3B88      |       15240 |
|      82 | 0x3B89      |       15241 |
|      83 | 0x3B8A      |       15242 |
|      84 | 0x007C      |         124 |
|      85 | 0x3B8B      |       15243 |
|      86 | 0x3B8C      |       15244 |
|      87 | 0x3B8D      |       15245 |
|      88 | 0x3B8E      |       15246 |
|      89 | 0x3B8F      |       15247 |
|      90 | 0x3B90      |       15248 |
|      91 | 0x3B91      |       15249 |
|      92 | 0x3B92      |       15250 |
|      93 | 0x3B93      |       15251 |
|      94 | 0x3B94      |       15252 |
|      95 | 0x3B95      |       15253 |
|      96 | 0x3B96      |       15254 |
|      97 | 0x3B97      |       15255 |
|      98 | 0x3B98      |       15256 |
|      99 | 0x3B99      |       15257 |
|     100 | 0x3B9B      |       15259 |
|     101 | 0xFFFEA5F2  |  4294878706 |
|     102 | 0xFFFE601A  |  4294860826 |
|     103 | 0xFFFFEF5C  |  4294963036 |
|     104 | 0x0352      |         850 |
|     105 | 0x0078      |         120 |
|     106 | 0x3B9C      |       15260 |
|     107 | 0x3B9D      |       15261 |
|     108 | 0x3B9E      |       15262 |
|     109 | 0x3B9F      |       15263 |
|     110 | 0x3BA0      |       15264 |
|     111 | 0x3BA1      |       15265 |
|     112 | 0x3BA2      |       15266 |
|     113 | 0x3BA3      |       15267 |
|     114 | 0x0014      |          20 |
|     115 | 0x3BA4      |       15268 |
|     116 | 0x3BA5      |       15269 |
|     117 | 0x3BA6      |       15270 |
|     118 | 0x3BA7      |       15271 |
|     119 | 0x3BA8      |       15272 |
|     120 | 0x3BA9      |       15273 |
|     121 | 0x003C      |          60 |
|     122 | 0x3BAA      |       15274 |
|     123 | 0x3BAB      |       15275 |
|     124 | 0x00A3      |         163 |
|     125 | 0x3BAC      |       15276 |
|     126 | 0x3BAD      |       15277 |
|     127 | 0xFFFEA2AD  |  4294877869 |
|     128 | 0xFFFE5FDA  |  4294860762 |
|     129 | 0xFFFFEF5D  |  4294963037 |
|     130 | 0x06E5      |        1765 |
|     131 | 0x3BAE      |       15278 |
|     132 | 0x0032      |          50 |
|     133 | 0x0015      |          21 |
|     134 | 0x3BAF      |       15279 |
|     135 | 0x005A      |          90 |
|     136 | 0x3BB0      |       15280 |

## String References

- **15191**: Participate in her fashion show? [What's this about?/What kind of show?/Who're you?]
- **15205**: Participate in the fashion show? [Sure./I'm not model material...]
- **15217**: Any questions? [What's this costume show about?/Who can I dress as?/I've decided!/Nothing for now.]
- **15237**: Who will you dress as? [Azima./Naji./Black Mud./Michea./Nbu Latteh./I need more time.]
- **15239**: Are you sure? [Yup!/Hold on...]
- **15245**: Any questions? [How can I get first place?/I'd like to switch targets./None.]
- **15253**: Change to whom? [Azima./Naji./Black Mud./Michea./Nbu Latteh./Never mind.]
- **15255**: Are you sure? [Yes./Wait a moment...]

## Events

### Event 65535

#### Metadata

| Field        | Value     |
|--------------|-----------|
| Entrypoint   | 0x0000    |
| Data Size    | 658 bytes |
| Instructions | 1         |

```
      00 01 02 03 04 05 06 07  08 09 0A 0B 0C 0D 0E 0F
      -- -- -- -- -- -- -- --  -- -- -- -- -- -- -- --
0000: 00 45 00 80 F0 FF FF 7F  F0 FF FF 7F 66 64 69 30  .E..........fdi0
0010: 01 80 55 00 80 F0 FF FF  7F F0 FF FF 7F 66 64 69  ..U..........fdi
0020: 30 1B 45 00 80 F0 FF FF  7F F0 FF FF 7F 66 64 6F  0.E..........fdo
0030: 30 01 80 55 00 80 F0 FF  FF 7F F0 FF FF 7F 66 64  0..U..........fd
0040: 6F 30 1B 45 00 80 F0 FF  FF 7F F0 FF FF 7F 66 64  o0.E..........fd
0050: 69 31 01 80 55 00 80 F0  FF FF 7F F0 FF FF 7F 66  i1..U..........f
0060: 64 69 31 1B 45 00 80 F0  FF FF 7F F0 FF FF 7F 66  di1.E..........f
0070: 64 6F 31 01 80 55 00 80  F0 FF FF 7F F0 FF FF 7F  do1..U..........
0080: 66 64 6F 31 1B 45 02 80  F0 FF FF 7F F0 FF FF 7F  fdo1.E..........
0090: 77 68 69 31 01 80 55 02  80 F0 FF FF 7F F0 FF FF  whi1..U.........
00A0: 7F 77 68 69 31 1B 45 02  80 F0 FF FF 7F F0 FF FF  .whi1.E.........
00B0: 7F 77 68 6F 31 01 80 55  02 80 F0 FF FF 7F F0 FF  .who1..U........
00C0: FF 7F 77 68 6F 31 1B 45  02 80 F0 FF FF 7F F0 FF  ..who1.E........
00D0: FF 7F 77 68 6F 32 01 80  55 02 80 F0 FF FF 7F F0  ..who2..U.......
00E0: FF FF 7F 77 68 6F 32 1B  45 02 80 F0 FF FF 7F F0  ...who2.E.......
00F0: FF FF 7F 77 68 6F 33 01  80 55 02 80 F0 FF FF 7F  ...who3..U......
0100: F0 FF FF 7F 77 68 6F 33  1B 62 03 80 F0 FF FF 7F  ....who3.b......
0110: F0 FF FF 7F 6D 61 69 6E  01 80 1C 04 80 45 00 80  ....main.....E..
0120: F0 FF FF 7F F0 FF FF 7F  66 64 6F 31 01 80 55 00  ........fdo1..U.
0130: 80 F0 FF FF 7F F0 FF FF  7F 66 64 6F 31 1B 45 00  .........fdo1.E.
0140: 80 F0 FF FF 7F F0 FF FF  7F 66 64 69 31 01 80 62  .........fdi1..b
0150: 05 80 F0 FF FF 7F F0 FF  FF 7F 6D 61 69 6E 01 80  ..........main..
0160: 1C 06 80 55 00 80 F0 FF  FF 7F F0 FF FF 7F 66 64  ...U..........fd
0170: 69 31 1B 45 00 80 F0 FF  FF 7F F0 FF FF 7F 62 6C  i1.E..........bl
0180: 6F 6E 01 80 45 02 80 F0  FF FF 7F F0 FF FF 7F 62  on..E..........b
0190: 6C 6F 6E 01 80 1B 45 02  80 F0 FF FF 7F F0 FF FF  lon...E.........
01A0: 7F 77 68 69 30 01 80 55  02 80 F0 FF FF 7F F0 FF  .whi0..U........
01B0: FF 7F 77 68 69 30 1B 45  02 80 F0 FF FF 7F F0 FF  ..whi0.E........
01C0: FF 7F 77 68 6F 30 01 80  55 02 80 F0 FF FF 7F F0  ..who0..U.......
01D0: FF FF 7F 77 68 6F 30 1B  45 07 80 F0 FF FF 7F F0  ...who0.E.......
01E0: FF FF 7F 65 66 6F 6E 01  80 55 07 80 F0 FF FF 7F  ...efon..U......
01F0: F0 FF FF 7F 65 66 6F 6E  1B 45 00 80 F0 FF FF 7F  ....efon.E......
0200: F0 FF FF 7F 66 64 69 73  01 80 1B 45 00 80 F0 FF  ....fdis...E....
0210: FF 7F F0 FF FF 7F 66 64  6F 73 01 80 55 00 80 F0  ......fdos..U...
0220: FF FF 7F F0 FF FF 7F 66  64 6F 73 1B 45 00 80 F0  .......fdos.E...
0230: FF FF 7F F0 FF FF 7F 66  64 69 66 01 80 1B 45 00  .......fdif...E.
0240: 80 F0 FF FF 7F F0 FF FF  7F 66 64 6F 66 01 80 55  .........fdof..U
0250: 00 80 F0 FF FF 7F F0 FF  FF 7F 66 64 6F 66 1B 45  ..........fdof.E
0260: 00 80 F0 FF FF 7F F0 FF  FF 7F 66 64 69 70 01 80  ..........fdip..
0270: 1B 45 00 80 F0 FF FF 7F  F0 FF FF 7F 66 64 6F 70  .E..........fdop
0280: 01 80 55 00 80 F0 FF FF  7F F0 FF FF 7F 66 64 6F  ..U..........fdo
0290: 70 1B                                             p.              
```

#### Opcodes

```
  0: 0x0000 [0x00] END_REQSTACK()
```

#### Data or dead code:

```
# Dead code (unreachable instructions):
     0x0001 [0x45] LOAD_SCHEDULED_TASK: Load scheduler "fdi0" with entities [LocalPlayer, LocalPlayer], work=[200*, 0*]
     0x0012 [0x55] WAIT_LOAD_SCHEDULER: Wait for scheduler "fdi0" with entities [LocalPlayer, LocalPlayer], work=200*
     0x0021 [0x1B] RETURN
     0x0022 [0x45] LOAD_SCHEDULED_TASK: Load scheduler "fdo0" with entities [LocalPlayer, LocalPlayer], work=[200*, 0*]
     0x0033 [0x55] WAIT_LOAD_SCHEDULER: Wait for scheduler "fdo0" with entities [LocalPlayer, LocalPlayer], work=200*
     0x0042 [0x1B] RETURN
     0x0043 [0x45] LOAD_SCHEDULED_TASK: Load scheduler "fdi1" with entities [LocalPlayer, LocalPlayer], work=[200*, 0*]
     0x0054 [0x55] WAIT_LOAD_SCHEDULER: Wait for scheduler "fdi1" with entities [LocalPlayer, LocalPlayer], work=200*
     0x0063 [0x1B] RETURN
     0x0064 [0x45] LOAD_SCHEDULED_TASK: Load scheduler "fdo1" with entities [LocalPlayer, LocalPlayer], work=[200*, 0*]
     0x0075 [0x55] WAIT_LOAD_SCHEDULER: Wait for scheduler "fdo1" with entities [LocalPlayer, LocalPlayer], work=200*
     0x0084 [0x1B] RETURN
     0x0085 [0x45] LOAD_SCHEDULED_TASK: Load scheduler "whi1" with entities [LocalPlayer, LocalPlayer], work=[201*, 0*]
     0x0096 [0x55] WAIT_LOAD_SCHEDULER: Wait for scheduler "whi1" with entities [LocalPlayer, LocalPlayer], work=201*
     0x00A5 [0x1B] RETURN
     0x00A6 [0x45] LOAD_SCHEDULED_TASK: Load scheduler "who1" with entities [LocalPlayer, LocalPlayer], work=[201*, 0*]
     0x00B7 [0x55] WAIT_LOAD_SCHEDULER: Wait for scheduler "who1" with entities [LocalPlayer, LocalPlayer], work=201*
     0x00C6 [0x1B] RETURN
     0x00C7 [0x45] LOAD_SCHEDULED_TASK: Load scheduler "who2" with entities [LocalPlayer, LocalPlayer], work=[201*, 0*]
     0x00D8 [0x55] WAIT_LOAD_SCHEDULER: Wait for scheduler "who2" with entities [LocalPlayer, LocalPlayer], work=201*
     0x00E7 [0x1B] RETURN
     0x00E8 [0x45] LOAD_SCHEDULED_TASK: Load scheduler "who3" with entities [LocalPlayer, LocalPlayer], work=[201*, 0*]
     0x00F9 [0x55] WAIT_LOAD_SCHEDULER: Wait for scheduler "who3" with entities [LocalPlayer, LocalPlayer], work=201*
     0x0108 [0x1B] RETURN
     0x0109 [0x62] LOAD_EVENT_SCHEDULER: Load scheduler "main" with entities [LocalPlayer, LocalPlayer], work=[1*, 0*]
     0x011A [0x1C] WAIT(45* ticks)
     0x011D [0x45] LOAD_SCHEDULED_TASK: Load scheduler "fdo1" with entities [LocalPlayer, LocalPlayer], work=[200*, 0*]
     0x012E [0x55] WAIT_LOAD_SCHEDULER: Wait for scheduler "fdo1" with entities [LocalPlayer, LocalPlayer], work=200*
     0x013D [0x1B] RETURN
     0x013E [0x45] LOAD_SCHEDULED_TASK: Load scheduler "fdi1" with entities [LocalPlayer, LocalPlayer], work=[200*, 0*]
     0x014F [0x62] LOAD_EVENT_SCHEDULER: Load scheduler "main" with entities [LocalPlayer, LocalPlayer], work=[2*, 0*]
     0x0160 [0x1C] WAIT(30* ticks)
     0x0163 [0x55] WAIT_LOAD_SCHEDULER: Wait for scheduler "fdi1" with entities [LocalPlayer, LocalPlayer], work=200*
     0x0172 [0x1B] RETURN
     0x0173 [0x45] LOAD_SCHEDULED_TASK: Load scheduler "blon" with entities [LocalPlayer, LocalPlayer], work=[200*, 0*]
     0x0184 [0x45] LOAD_SCHEDULED_TASK: Load scheduler "blon" with entities [LocalPlayer, LocalPlayer], work=[201*, 0*]
     0x0195 [0x1B] RETURN
     0x0196 [0x45] LOAD_SCHEDULED_TASK: Load scheduler "whi0" with entities [LocalPlayer, LocalPlayer], work=[201*, 0*]
     0x01A7 [0x55] WAIT_LOAD_SCHEDULER: Wait for scheduler "whi0" with entities [LocalPlayer, LocalPlayer], work=201*
     0x01B6 [0x1B] RETURN
     0x01B7 [0x45] LOAD_SCHEDULED_TASK: Load scheduler "who0" with entities [LocalPlayer, LocalPlayer], work=[201*, 0*]
     0x01C8 [0x55] WAIT_LOAD_SCHEDULER: Wait for scheduler "who0" with entities [LocalPlayer, LocalPlayer], work=201*
     0x01D7 [0x1B] RETURN
     0x01D8 [0x45] LOAD_SCHEDULED_TASK: Load scheduler "efon" with entities [LocalPlayer, LocalPlayer], work=[215*, 0*]
     0x01E9 [0x55] WAIT_LOAD_SCHEDULER: Wait for scheduler "efon" with entities [LocalPlayer, LocalPlayer], work=215*
     0x01F8 [0x1B] RETURN
     0x01F9 [0x45] LOAD_SCHEDULED_TASK: Load scheduler "fdis" with entities [LocalPlayer, LocalPlayer], work=[200*, 0*]
     0x020A [0x1B] RETURN
     0x020B [0x45] LOAD_SCHEDULED_TASK: Load scheduler "fdos" with entities [LocalPlayer, LocalPlayer], work=[200*, 0*]
     0x021C [0x55] WAIT_LOAD_SCHEDULER: Wait for scheduler "fdos" with entities [LocalPlayer, LocalPlayer], work=200*
     0x022B [0x1B] RETURN
     0x022C [0x45] LOAD_SCHEDULED_TASK: Load scheduler "fdif" with entities [LocalPlayer, LocalPlayer], work=[200*, 0*]
     0x023D [0x1B] RETURN
     0x023E [0x45] LOAD_SCHEDULED_TASK: Load scheduler "fdof" with entities [LocalPlayer, LocalPlayer], work=[200*, 0*]
     0x024F [0x55] WAIT_LOAD_SCHEDULER: Wait for scheduler "fdof" with entities [LocalPlayer, LocalPlayer], work=200*
     0x025E [0x1B] RETURN
     0x025F [0x45] LOAD_SCHEDULED_TASK: Load scheduler "fdip" with entities [LocalPlayer, LocalPlayer], work=[200*, 0*]
     0x0270 [0x1B] RETURN
     0x0271 [0x45] LOAD_SCHEDULED_TASK: Load scheduler "fdop" with entities [LocalPlayer, LocalPlayer], work=[200*, 0*]
     0x0282 [0x55] WAIT_LOAD_SCHEDULER: Wait for scheduler "fdop" with entities [LocalPlayer, LocalPlayer], work=200*
     0x0291 [0x1B] RETURN
```

### Event 675

#### Metadata

| Field        | Value      |
|--------------|------------|
| Entrypoint   | 0x0292     |
| Data Size    | 3947 bytes |
| Instructions | 453        |

```
      00 01 02 03 04 05 06 07  08 09 0A 0B 0C 0D 0E 0F
      -- -- -- -- -- -- -- --  -- -- -- -- -- -- -- --
0290:       42 1A 64 00 46 01  38 08 80 5D 01 80 09 80    B.d.F.8..]....
02A0: 94 01 25 B0 0E 01 94 01  F0 FF FF 7F BA F0 FF FF  ..%.............
02B0: 7F 0A 80 0B 80 0C 80 0D  80 80 25 B0 0E 01 80 F0  ..........%.....
02C0: FF FF 7F 4A F0 FF FF 7F  25 B0 0E 01 4A 25 B0 0E  ...J....%...J%..
02D0: 01 F0 FF FF 7F 6F 76 F0  FF FF 7F 6F 76 25 B0 0E  .....ov....ov%..
02E0: 01 5C 00 0E 80 5C 01 0E  80 9A 5D 0F 80 03 80 29  .\...\....]....)
02F0: 0F F0 FF FF 7F 43 02 09  10 10 80 00 12 03 45 11  .....C........E.
0300: 80 F8 FF FF 7F F8 FF FF  7F 73 30 31 37 01 80 01  .........s017...
0310: 77 03 02 09 10 12 80 00  2E 03 45 11 80 F8 FF FF  w.........E.....
0320: 7F F8 FF FF 7F 73 30 32  34 01 80 01 77 03 02 09  .....s024...w...
0330: 10 13 80 00 4A 03 45 11  80 F8 FF FF 7F F8 FF FF  ....J.E.........
0340: 7F 73 30 32 34 01 80 01  77 03 02 09 10 14 80 00  .s024...w.......
0350: 66 03 45 11 80 F8 FF FF  7F F8 FF FF 7F 73 30 31  f.E..........s01
0360: 37 01 80 01 77 03 45 11  80 F8 FF FF 7F F8 FF FF  7...w.E.........
0370: 7F 73 30 30 31 01 80 1A  43 00 2B 25 B0 0E 01 15  .s001...C.+%....
0380: 80 23 5B 16 80 25 B0 0E  01 25 B0 0E 01 74 6C 6B  .#[..%...%...tlk
0390: 30 02 09 10 10 80 00 AB  03 52 11 80 F8 FF FF 7F  0........R......
03A0: F8 FF FF 7F 73 30 31 37  01 08 04 02 09 10 12 80  ....s017........
03B0: 00 C5 03 52 11 80 F8 FF  FF 7F F8 FF FF 7F 73 30  ...R..........s0
03C0: 32 34 01 08 04 02 09 10  13 80 00 DF 03 52 11 80  24...........R..
03D0: F8 FF FF 7F F8 FF FF 7F  73 30 32 34 01 08 04 02  ........s024....
03E0: 09 10 14 80 00 F9 03 52  11 80 F8 FF FF 7F F8 FF  .......R........
03F0: FF 7F 73 30 31 37 01 08  04 52 11 80 F8 FF FF 7F  ..s017...R......
0400: F8 FF FF 7F 73 30 30 31  45 11 80 F8 FF FF 7F F8  ....s001E.......
0410: FF FF 7F 73 30 30 30 01  80 6C F0 FF FF 7F 01 80  ...s000..l......
0420: 03 80 29 0F 25 B0 0E 01  11 2B 25 B0 0E 01 17 80  ..).%....+%.....
0430: 23 52 11 80 F8 FF FF 7F  F8 FF FF 7F 73 30 30 30  #R..........s000
0440: 24 18 80 01 80 01 80 25  02 00 10 01 80 00 1D 06  $......%........
0450: 6C F0 FF FF 7F 19 80 03  80 29 0F 25 B0 0E 01 12  l........).%....
0460: 02 09 10 10 80 00 7C 04  45 11 80 F8 FF FF 7F F8  ......|.E.......
0470: FF FF 7F 73 30 31 31 01  80 01 E1 04 02 09 10 12  ...s011.........
0480: 80 00 98 04 45 11 80 F8  FF FF 7F F8 FF FF 7F 73  ....E..........s
0490: 30 31 38 01 80 01 E1 04  02 09 10 13 80 00 B4 04  018.............
04A0: 45 11 80 F8 FF FF 7F F8  FF FF 7F 73 30 31 38 01  E..........s018.
04B0: 80 01 E1 04 02 09 10 14  80 00 D0 04 45 11 80 F8  ............E...
04C0: FF FF 7F F8 FF FF 7F 73  30 31 31 01 80 01 E1 04  .......s011.....
04D0: 45 11 80 F8 FF FF 7F F8  FF FF 7F 73 30 30 33 01  E..........s003.
04E0: 80 53 25 B0 0E 01 25 B0  0E 01 74 6C 6B 30 5B 16  .S%...%...tlk0[.
04F0: 80 25 B0 0E 01 25 B0 0E  01 74 6C 6B 31 2B 25 B0  .%...%...tlk1+%.
0500: 0E 01 1A 80 23 53 25 B0  0E 01 25 B0 0E 01 74 6C  ....#S%...%...tl
0510: 6B 31 5B 16 80 25 B0 0E  01 25 B0 0E 01 74 6C 6B  k1[..%...%...tlk
0520: 30 2B 25 B0 0E 01 1B 80  23 02 09 10 10 80 00 43  0+%.....#......C
0530: 05 52 11 80 F8 FF FF 7F  F8 FF FF 7F 73 30 31 31  .R..........s011
0540: 01 A0 05 02 09 10 12 80  00 5D 05 52 11 80 F8 FF  .........].R....
0550: FF 7F F8 FF FF 7F 73 30  31 38 01 A0 05 02 09 10  ......s018......
0560: 13 80 00 77 05 52 11 80  F8 FF FF 7F F8 FF FF 7F  ...w.R..........
0570: 73 30 31 38 01 A0 05 02  09 10 14 80 00 91 05 52  s018...........R
0580: 11 80 F8 FF FF 7F F8 FF  FF 7F 73 30 31 31 01 A0  ..........s011..
0590: 05 52 11 80 F8 FF FF 7F  F8 FF FF 7F 73 30 30 33  .R..........s003
05A0: 02 09 10 12 80 00 BC 05  45 11 80 F8 FF FF 7F F8  ........E.......
05B0: FF FF 7F 73 30 31 39 01  80 01 05 06 02 09 10 13  ...s019.........
05C0: 80 00 D8 05 45 11 80 F8  FF FF 7F F8 FF FF 7F 73  ....E..........s
05D0: 30 31 39 01 80 01 05 06  02 09 10 14 80 00 F4 05  019.............
05E0: 45 11 80 F8 FF FF 7F F8  FF FF 7F 73 30 31 32 01  E..........s012.
05F0: 80 01 05 06 45 11 80 F8  FF FF 7F F8 FF FF 7F 73  ....E..........s
0600: 30 30 34 01 80 2B 25 B0  0E 01 1C 80 23 53 25 B0  004..+%.....#S%.
0610: 0E 01 25 B0 0E 01 74 6C  6B 30 01 8F 09 02 00 10  ..%...tlk0......
0620: 03 80 00 B2 07 6C F0 FF  FF 7F 19 80 03 80 29 0F  .....l........).
0630: 25 B0 0E 01 12 02 09 10  10 80 00 51 06 45 11 80  %..........Q.E..
0640: F8 FF FF 7F F8 FF FF 7F  73 30 31 31 01 80 01 B6  ........s011....
0650: 06 02 09 10 12 80 00 6D  06 45 11 80 F8 FF FF 7F  .......m.E......
0660: F8 FF FF 7F 73 30 31 38  01 80 01 B6 06 02 09 10  ....s018........
0670: 13 80 00 89 06 45 11 80  F8 FF FF 7F F8 FF FF 7F  .....E..........
0680: 73 30 31 38 01 80 01 B6  06 02 09 10 14 80 00 A5  s018............
0690: 06 45 11 80 F8 FF FF 7F  F8 FF FF 7F 73 30 31 31  .E..........s011
06A0: 01 80 01 B6 06 45 11 80  F8 FF FF 7F F8 FF FF 7F  .....E..........
06B0: 73 30 30 33 01 80 2B 25  B0 0E 01 1D 80 23 2B 25  s003..+%.....#+%
06C0: B0 0E 01 1C 80 23 53 25  B0 0E 01 25 B0 0E 01 74  .....#S%...%...t
06D0: 6C 6B 30 02 09 10 10 80  00 ED 06 52 11 80 F8 FF  lk0........R....
06E0: FF 7F F8 FF FF 7F 73 30  31 31 01 4A 07 02 09 10  ......s011.J....
06F0: 12 80 00 07 07 52 11 80  F8 FF FF 7F F8 FF FF 7F  .....R..........
0700: 73 30 31 38 01 4A 07 02  09 10 13 80 00 21 07 52  s018.J.......!.R
0710: 11 80 F8 FF FF 7F F8 FF  FF 7F 73 30 31 38 01 4A  ..........s018.J
0720: 07 02 09 10 14 80 00 3B  07 52 11 80 F8 FF FF 7F  .......;.R......
0730: F8 FF FF 7F 73 30 31 31  01 4A 07 52 11 80 F8 FF  ....s011.J.R....
0740: FF 7F F8 FF FF 7F 73 30  30 33 02 09 10 12 80 00  ......s003......
0750: 66 07 45 11 80 F8 FF FF  7F F8 FF FF 7F 73 30 31  f.E..........s01
0760: 39 01 80 01 AF 07 02 09  10 13 80 00 82 07 45 11  9.............E.
0770: 80 F8 FF FF 7F F8 FF FF  7F 73 30 31 39 01 80 01  .........s019...
0780: AF 07 02 09 10 14 80 00  9E 07 45 11 80 F8 FF FF  ..........E.....
0790: 7F F8 FF FF 7F 73 30 31  32 01 80 01 AF 07 45 11  .....s012.....E.
07A0: 80 F8 FF FF 7F F8 FF FF  7F 73 30 30 34 01 80 01  .........s004...
07B0: 8F 09 02 00 10 05 80 00  8F 09 6C F0 FF FF 7F 19  ..........l.....
07C0: 80 03 80 29 0F 25 B0 0E  01 12 02 09 10 10 80 00  ...).%..........
07D0: E6 07 45 11 80 F8 FF FF  7F F8 FF FF 7F 73 30 31  ..E..........s01
07E0: 31 01 80 01 4B 08 02 09  10 12 80 00 02 08 45 11  1...K.........E.
07F0: 80 F8 FF FF 7F F8 FF FF  7F 73 30 31 38 01 80 01  .........s018...
0800: 4B 08 02 09 10 13 80 00  1E 08 45 11 80 F8 FF FF  K.........E.....
0810: 7F F8 FF FF 7F 73 30 31  38 01 80 01 4B 08 02 09  .....s018...K...
0820: 10 14 80 00 3A 08 45 11  80 F8 FF FF 7F F8 FF FF  ....:.E.........
0830: 7F 73 30 31 31 01 80 01  4B 08 45 11 80 F8 FF FF  .s011...K.E.....
0840: 7F F8 FF FF 7F 73 30 30  33 01 80 53 25 B0 0E 01  .....s003..S%...
0850: 25 B0 0E 01 74 6C 6B 30  5B 16 80 25 B0 0E 01 25  %...tlk0[..%...%
0860: B0 0E 01 74 6C 6B 31 2B  25 B0 0E 01 1E 80 23 53  ...tlk1+%.....#S
0870: 25 B0 0E 01 25 B0 0E 01  74 6C 6B 31 2B 25 B0 0E  %...%...tlk1+%..
0880: 01 1F 80 23 5B 16 80 25  B0 0E 01 25 B0 0E 01 74  ...#[..%...%...t
0890: 6C 6B 30 02 09 10 10 80  00 AD 08 52 11 80 F8 FF  lk0........R....
08A0: FF 7F F8 FF FF 7F 73 30  31 31 01 0A 09 02 09 10  ......s011......
08B0: 12 80 00 C7 08 52 11 80  F8 FF FF 7F F8 FF FF 7F  .....R..........
08C0: 73 30 31 38 01 0A 09 02  09 10 13 80 00 E1 08 52  s018...........R
08D0: 11 80 F8 FF FF 7F F8 FF  FF 7F 73 30 31 38 01 0A  ..........s018..
08E0: 09 02 09 10 14 80 00 FB  08 52 11 80 F8 FF FF 7F  .........R......
08F0: F8 FF FF 7F 73 30 31 31  01 0A 09 52 11 80 F8 FF  ....s011...R....
0900: FF 7F F8 FF FF 7F 73 30  30 33 02 09 10 12 80 00  ......s003......
0910: 26 09 45 11 80 F8 FF FF  7F F8 FF FF 7F 73 30 31  &.E..........s01
0920: 39 01 80 01 6F 09 02 09  10 13 80 00 42 09 45 11  9...o.......B.E.
0930: 80 F8 FF FF 7F F8 FF FF  7F 73 30 31 39 01 80 01  .........s019...
0940: 6F 09 02 09 10 14 80 00  5E 09 45 11 80 F8 FF FF  o.......^.E.....
0950: 7F F8 FF FF 7F 73 30 31  32 01 80 01 6F 09 45 11  .....s012...o.E.
0960: 80 F8 FF FF 7F F8 FF FF  7F 73 30 30 34 01 80 2B  .........s004..+
0970: 25 B0 0E 01 20 80 23 2B  25 B0 0E 01 1C 80 23 53  %... .#+%.....#S
0980: 25 B0 0E 01 25 B0 0E 01  74 6C 6B 30 01 8F 09 5B  %...%...tlk0...[
0990: 16 80 25 B0 0E 01 25 B0  0E 01 74 6C 6B 31 2B 25  ..%...%...tlk1+%
09A0: B0 0E 01 21 80 23 53 25  B0 0E 01 25 B0 0E 01 74  ...!.#S%...%...t
09B0: 6C 6B 31 02 09 10 12 80  00 CD 09 52 11 80 F8 FF  lk1........R....
09C0: FF 7F F8 FF FF 7F 73 30  31 39 01 10 0A 02 09 10  ......s019......
09D0: 13 80 00 E7 09 52 11 80  F8 FF FF 7F F8 FF FF 7F  .....R..........
09E0: 73 30 31 39 01 10 0A 02  09 10 14 80 00 01 0A 52  s019...........R
09F0: 11 80 F8 FF FF 7F F8 FF  FF 7F 73 30 31 32 01 10  ..........s012..
0A00: 0A 52 11 80 F8 FF FF 7F  F8 FF FF 7F 73 30 30 34  .R..........s004
0A10: 02 09 10 10 80 00 2C 0A  45 11 80 F8 FF FF 7F F8  ......,.E.......
0A20: FF FF 7F 73 30 31 33 01  80 01 91 0A 02 09 10 12  ...s013.........
0A30: 80 00 48 0A 45 11 80 F8  FF FF 7F F8 FF FF 7F 73  ..H.E..........s
0A40: 30 32 30 01 80 01 91 0A  02 09 10 13 80 00 64 0A  020...........d.
0A50: 45 11 80 F8 FF FF 7F F8  FF FF 7F 73 30 32 30 01  E..........s020.
0A60: 80 01 91 0A 02 09 10 14  80 00 80 0A 45 11 80 F8  ............E...
0A70: FF FF 7F F8 FF FF 7F 73  30 31 33 01 80 01 91 0A  .......s013.....
0A80: 45 11 80 F8 FF FF 7F F8  FF FF 7F 73 30 30 32 01  E..........s002.
0A90: 80 5B 16 80 25 B0 0E 01  25 B0 0E 01 74 68 6B 31  .[..%...%...thk1
0AA0: 2B 25 B0 0E 01 22 80 23  2B 25 B0 0E 01 23 80 23  +%...".#+%...#.#
0AB0: 53 25 B0 0E 01 25 B0 0E  01 74 68 6B 31 02 09 10  S%...%...thk1...
0AC0: 10 80 00 D7 0A 52 11 80  F8 FF FF 7F F8 FF FF 7F  .....R..........
0AD0: 73 30 31 33 01 34 0B 02  09 10 12 80 00 F1 0A 52  s013.4.........R
0AE0: 11 80 F8 FF FF 7F F8 FF  FF 7F 73 30 32 30 01 34  ..........s020.4
0AF0: 0B 02 09 10 13 80 00 0B  0B 52 11 80 F8 FF FF 7F  .........R......
0B00: F8 FF FF 7F 73 30 32 30  01 34 0B 02 09 10 14 80  ....s020.4......
0B10: 00 25 0B 52 11 80 F8 FF  FF 7F F8 FF FF 7F 73 30  .%.R..........s0
0B20: 31 33 01 34 0B 52 11 80  F8 FF FF 7F F8 FF FF 7F  13.4.R..........
0B30: 73 30 30 32 45 11 80 F8  FF FF 7F F8 FF FF 7F 73  s002E..........s
0B40: 30 30 35 01 80 5B 16 80  25 B0 0E 01 25 B0 0E 01  005..[..%...%...
0B50: 74 68 6B 32 2B 25 B0 0E  01 24 80 23 53 25 B0 0E  thk2+%...$.#S%..
0B60: 01 25 B0 0E 01 74 68 6B  32 2B 25 B0 0E 01 25 80  .%...thk2+%...%.
0B70: 23 52 11 80 F8 FF FF 7F  F8 FF FF 7F 73 30 30 35  #R..........s005
0B80: 02 09 10 10 80 00 9C 0B  45 11 80 F8 FF FF 7F F8  ........E.......
0B90: FF FF 7F 73 30 31 34 01  80 01 01 0C 02 09 10 12  ...s014.........
0BA0: 80 00 B8 0B 45 11 80 F8  FF FF 7F F8 FF FF 7F 73  ....E..........s
0BB0: 30 32 31 01 80 01 01 0C  02 09 10 13 80 00 D4 0B  021.............
0BC0: 45 11 80 F8 FF FF 7F F8  FF FF 7F 73 30 32 31 01  E..........s021.
0BD0: 80 01 01 0C 02 09 10 14  80 00 F0 0B 45 11 80 F8  ............E...
0BE0: FF FF 7F F8 FF FF 7F 73  30 31 34 01 80 01 01 0C  .......s014.....
0BF0: 45 11 80 F8 FF FF 7F F8  FF FF 7F 73 30 30 36 01  E..........s006.
0C00: 80 5B 16 80 25 B0 0E 01  25 B0 0E 01 74 6C 6B 30  .[..%...%...tlk0
0C10: 2B 25 B0 0E 01 26 80 23  53 25 B0 0E 01 25 B0 0E  +%...&.#S%...%..
0C20: 01 74 6C 6B 30 24 27 80  01 80 01 80 25 02 00 10  .tlk0$'.....%...
0C30: 01 80 00 17 0E 6E F0 FF  FF 7F 28 80 99 F0 FF FF  .....n....(.....
0C40: 7F 1C 06 80 5B 16 80 25  B0 0E 01 25 B0 0E 01 74  ....[..%...%...t
0C50: 6C 6B 31 2B 25 B0 0E 01  29 80 23 53 25 B0 0E 01  lk1+%...).#S%...
0C60: 25 B0 0E 01 74 6C 6B 31  5B 2A 80 25 B0 0E 01 25  %...tlk1[*.%...%
0C70: B0 0E 01 69 6B 72 30 1C  2B 80 02 09 10 10 80 00  ...ikr0.+.......
0C80: 94 0C 52 11 80 F8 FF FF  7F F8 FF FF 7F 73 30 31  ..R..........s01
0C90: 34 01 F1 0C 02 09 10 12  80 00 AE 0C 52 11 80 F8  4...........R...
0CA0: FF FF 7F F8 FF FF 7F 73  30 32 31 01 F1 0C 02 09  .......s021.....
0CB0: 10 13 80 00 C8 0C 52 11  80 F8 FF FF 7F F8 FF FF  ......R.........
0CC0: 7F 73 30 32 31 01 F1 0C  02 09 10 14 80 00 E2 0C  .s021...........
0CD0: 52 11 80 F8 FF FF 7F F8  FF FF 7F 73 30 31 34 01  R..........s014.
0CE0: F1 0C 52 11 80 F8 FF FF  7F F8 FF FF 7F 73 30 30  ..R..........s00
0CF0: 36 45 11 80 F8 FF FF 7F  F8 FF FF 7F 73 30 30 37  6E..........s007
0D00: 01 80 2B 25 B0 0E 01 2C  80 23 53 25 B0 0E 01 25  ..+%...,.#S%...%
0D10: B0 0E 01 69 6B 72 30 5B  2A 80 25 B0 0E 01 25 B0  ...ikr0[*.%...%.
0D20: 0E 01 69 6B 72 31 52 11  80 F8 FF FF 7F F8 FF FF  ..ikr1R.........
0D30: 7F 73 30 30 37 02 09 10  12 80 00 51 0D 45 11 80  .s007......Q.E..
0D40: F8 FF FF 7F F8 FF FF 7F  73 30 32 32 01 80 01 9A  ........s022....
0D50: 0D 02 09 10 13 80 00 6D  0D 45 11 80 F8 FF FF 7F  .......m.E......
0D60: F8 FF FF 7F 73 30 32 32  01 80 01 9A 0D 02 09 10  ....s022........
0D70: 14 80 00 89 0D 45 11 80  F8 FF FF 7F F8 FF FF 7F  .....E..........
0D80: 73 30 31 35 01 80 01 9A  0D 45 11 80 F8 FF FF 7F  s015.....E......
0D90: F8 FF FF 7F 73 30 30 38  01 80 2B 25 B0 0E 01 2D  ....s008..+%...-
0DA0: 80 23 53 25 B0 0E 01 25  B0 0E 01 69 6B 72 31 2B  .#S%...%...ikr1+
0DB0: 25 B0 0E 01 2E 80 23 02  09 10 12 80 00 D1 0D 52  %.....#........R
0DC0: 11 80 F8 FF FF 7F F8 FF  FF 7F 73 30 32 32 01 14  ..........s022..
0DD0: 0E 02 09 10 13 80 00 EB  0D 52 11 80 F8 FF FF 7F  .........R......
0DE0: F8 FF FF 7F 73 30 32 32  01 14 0E 02 09 10 14 80  ....s022........
0DF0: 00 05 0E 52 11 80 F8 FF  FF 7F F8 FF FF 7F 73 30  ...R..........s0
0E00: 31 35 01 14 0E 52 11 80  F8 FF FF 7F F8 FF FF 7F  15...R..........
0E10: 73 30 30 38 01 F4 10 02  00 10 03 80 00 F4 10 6E  s008...........n
0E20: F0 FF FF 7F 13 80 99 F0  FF FF 7F 1C 06 80 02 09  ................
0E30: 10 10 80 00 48 0E 52 11  80 F8 FF FF 7F F8 FF FF  ....H.R.........
0E40: 7F 73 30 31 34 01 A5 0E  02 09 10 12 80 00 62 0E  .s014.........b.
0E50: 52 11 80 F8 FF FF 7F F8  FF FF 7F 73 30 32 31 01  R..........s021.
0E60: A5 0E 02 09 10 13 80 00  7C 0E 52 11 80 F8 FF FF  ........|.R.....
0E70: 7F F8 FF FF 7F 73 30 32  31 01 A5 0E 02 09 10 14  .....s021.......
0E80: 80 00 96 0E 52 11 80 F8  FF FF 7F F8 FF FF 7F 73  ....R..........s
0E90: 30 31 34 01 A5 0E 52 11  80 F8 FF FF 7F F8 FF FF  014...R.........
0EA0: 7F 73 30 30 36 02 09 10  12 80 00 C1 0E 45 11 80  .s006........E..
0EB0: F8 FF FF 7F F8 FF FF 7F  73 30 32 32 01 80 01 0A  ........s022....
0EC0: 0F 02 09 10 13 80 00 DD  0E 45 11 80 F8 FF FF 7F  .........E......
0ED0: F8 FF FF 7F 73 30 32 32  01 80 01 0A 0F 02 09 10  ....s022........
0EE0: 14 80 00 F9 0E 45 11 80  F8 FF FF 7F F8 FF FF 7F  .....E..........
0EF0: 73 30 31 35 01 80 01 0A  0F 45 11 80 F8 FF FF 7F  s015.....E......
0F00: F8 FF FF 7F 73 30 30 38  01 80 2B 25 B0 0E 01 2F  ....s008..+%.../
0F10: 80 23 5B 16 80 25 B0 0E  01 25 B0 0E 01 74 6C 6B  .#[..%...%...tlk
0F20: 31 2B 25 B0 0E 01 30 80  23 53 25 B0 0E 01 25 B0  1+%...0.#S%...%.
0F30: 0E 01 74 6C 6B 31 5B 2A  80 25 B0 0E 01 25 B0 0E  ..tlk1[*.%...%..
0F40: 01 69 6B 72 30 1C 12 80  02 09 10 12 80 00 62 0F  .ikr0.........b.
0F50: 52 11 80 F8 FF FF 7F F8  FF FF 7F 73 30 32 32 01  R..........s022.
0F60: A5 0F 02 09 10 13 80 00  7C 0F 52 11 80 F8 FF FF  ........|.R.....
0F70: 7F F8 FF FF 7F 73 30 32  32 01 A5 0F 02 09 10 14  .....s022.......
0F80: 80 00 96 0F 52 11 80 F8  FF FF 7F F8 FF FF 7F 73  ....R..........s
0F90: 30 31 35 01 A5 0F 52 11  80 F8 FF FF 7F F8 FF FF  015...R.........
0FA0: 7F 73 30 30 38 45 11 80  F8 FF FF 7F F8 FF FF 7F  .s008E..........
0FB0: 73 30 30 37 01 80 2B 25  B0 0E 01 31 80 23 53 25  s007..+%...1.#S%
0FC0: B0 0E 01 25 B0 0E 01 69  6B 72 30 5B 2A 80 25 B0  ...%...ikr0[*.%.
0FD0: 0E 01 25 B0 0E 01 69 6B  72 31 52 11 80 F8 FF FF  ..%...ikr1R.....
0FE0: 7F F8 FF FF 7F 73 30 30  37 02 09 10 10 80 00 05  .....s007.......
0FF0: 10 45 11 80 F8 FF FF 7F  F8 FF FF 7F 73 30 31 36  .E..........s016
1000: 01 80 01 6A 10 02 09 10  12 80 00 21 10 45 11 80  ...j.......!.E..
1010: F8 FF FF 7F F8 FF FF 7F  73 30 32 35 01 80 01 6A  ........s025...j
1020: 10 02 09 10 13 80 00 3D  10 45 11 80 F8 FF FF 7F  .......=.E......
1030: F8 FF FF 7F 73 30 32 35  01 80 01 6A 10 02 09 10  ....s025...j....
1040: 14 80 00 59 10 45 11 80  F8 FF FF 7F F8 FF FF 7F  ...Y.E..........
1050: 73 30 31 36 01 80 01 6A  10 45 11 80 F8 FF FF 7F  s016...j.E......
1060: F8 FF FF 7F 73 30 30 39  01 80 2B 25 B0 0E 01 32  ....s009..+%...2
1070: 80 23 2B 25 B0 0E 01 2E  80 23 02 09 10 10 80 00  .#+%.....#......
1080: 94 10 52 11 80 F8 FF FF  7F F8 FF FF 7F 73 30 31  ..R..........s01
1090: 36 01 F1 10 02 09 10 12  80 00 AE 10 52 11 80 F8  6...........R...
10A0: FF FF 7F F8 FF FF 7F 73  30 32 35 01 F1 10 02 09  .......s025.....
10B0: 10 13 80 00 C8 10 52 11  80 F8 FF FF 7F F8 FF FF  ......R.........
10C0: 7F 73 30 32 35 01 F1 10  02 09 10 14 80 00 E2 10  .s025...........
10D0: 52 11 80 F8 FF FF 7F F8  FF FF 7F 73 30 31 36 01  R..........s016.
10E0: F1 10 52 11 80 F8 FF FF  7F F8 FF FF 7F 73 30 30  ..R..........s00
10F0: 39 01 F4 10 02 09 10 12  80 00 10 11 45 11 80 F8  9...........E...
1100: FF FF 7F F8 FF FF 7F 73  30 32 33 01 80 01 3D 11  .......s023...=.
1110: 02 09 10 13 80 00 2C 11  45 11 80 F8 FF FF 7F F8  ......,.E.......
1120: FF FF 7F 73 30 32 33 01  80 01 3D 11 45 11 80 F8  ...s023...=.E...
1130: FF FF 7F F8 FF FF 7F 73  30 31 30 01 80 5D 01 80  .......s010..]..
1140: 33 80 7B 25 B0 0E 01 5B  16 80 25 B0 0E 01 25 B0  3.{%...[..%...%.
1150: 0E 01 74 68 6B 31 2B 25  B0 0E 01 34 80 23 53 25  ..thk1+%...4.#S%
1160: B0 0E 01 25 B0 0E 01 74  68 6B 31 1A 64 00 1C 35  ...%...thk1.d..5
1170: 80 02 09 10 12 80 00 8B  11 52 11 80 F8 FF FF 7F  .........R......
1180: F8 FF FF 7F 73 30 32 33  01 B4 11 02 09 10 13 80  ....s023........
1190: 00 A5 11 52 11 80 F8 FF  FF 7F F8 FF FF 7F 73 30  ...R..........s0
11A0: 32 33 01 B4 11 52 11 80  F8 FF FF 7F F8 FF FF 7F  23...R..........
11B0: 73 30 31 30 5B 16 80 25  B0 0E 01 25 B0 0E 01 74  s010[..%...%...t
11C0: 68 6B 32 53 25 B0 0E 01  25 B0 0E 01 74 68 6B 32  hk2S%...%...thk2
11D0: 5C 00 36 80 5C 01 36 80  9A 5D 0F 80 03 80 1C 06  \.6.\.6..]......
11E0: 80 AB 11 01 80 1C 03 80  46 00 45 00 80 F8 FF FF  ........F.E.....
11F0: 7F F8 FF FF 7F 66 64 69  32 01 80 21 00           .....fdi2..!.   
```

#### Opcodes

```
  0: 0x0292 [0x42] SET_CLI_EVENT_CANCEL_DATA()
  1: 0x0293 [0x1A] CALL_SUBROUTINE(address=0x0064)
  2: 0x0296 [0x46] CAMERA_CONTROL: Disable user control
  3: 0x0298 [0x38] SET_CLIENT_EVENT_MODE(mode=147*)
  4: 0x029B [0x5D] SET_MUSIC_VOLUME(volume=0*, fade_time=300*)
  5: 0x02A0 [0x94] Brygid (ID: 17739813/0x010EB025)->Render.Flags3 ^= 0x01
  6: 0x02A6 [0x94] LocalPlayer->Render.Flags3 ^= 0x01
  7: 0x02AC [0xBA] SET_ENTITY_POSITION(entity_id=LocalPlayer, pos_x=-88.936*, pos_z=-107.926*, pos_y=-4.328*, direction=156.7°*)
  8: 0x02B9 [0x80] LOAD_WAIT(entity=Brygid (ID: 17739813/0x010EB025))
  9: 0x02BE [0x80] LOAD_WAIT(entity=LocalPlayer)
 10: 0x02C3 [0x4A] LocalPlayer looks at Brygid (ID: 17739813/0x010EB025)
 11: 0x02CC [0x4A] Brygid (ID: 17739813/0x010EB025) looks at LocalPlayer
 12: 0x02D5 [0x6F] WAIT_FRAME_DELAY: Yield until WaitTime reaches zero
 13: 0x02D6 [0x76] CHECK_ENTITY_RENDER_FLAGS: Wait until LocalPlayer Render.Flags0 and Render.Flags3 conditions are met
 14: 0x02DB [0x6F] WAIT_FRAME_DELAY: Yield until WaitTime reaches zero
 15: 0x02DC [0x76] CHECK_ENTITY_RENDER_FLAGS: Wait until Brygid (ID: 17739813/0x010EB025) Render.Flags0 and Render.Flags3 conditions are met
 16: 0x02E1 [0x5C] MUSIC_CONTROL: Set Idle (Day) music to song 25*
 17: 0x02E5 [0x5C] MUSIC_CONTROL: Set Idle (Night) music to song 25*
 18: 0x02E9 [0x9A] WAIT_MUSIC_SERVER()
 19: 0x02EA [0x5D] SET_MUSIC_VOLUME(volume=127*, fade_time=1*)
 20: 0x02EF [0x29] REQ_SET_WAIT(priority=0x0F, entity_id=LocalPlayer, tag_num=0x43)
 21: 0x02F6 [0x02] IF !(Work_Zone[9] == 3*) GOTO 0x0312
 22: 0x02FE [0x45] LOAD_SCHEDULED_TASK: Load scheduler "s017" with entities [EventEntity, EventEntity], work=[831*, 0*]
 23: 0x030F [0x01] GOTO 0x0377
 24: 0x0312 [0x02] IF !(Work_Zone[9] == 5*) GOTO 0x032E
 25: 0x031A [0x45] LOAD_SCHEDULED_TASK: Load scheduler "s024" with entities [EventEntity, EventEntity], work=[831*, 0*]
 26: 0x032B [0x01] GOTO 0x0377
 27: 0x032E [0x02] IF !(Work_Zone[9] == 6*) GOTO 0x034A
 28: 0x0336 [0x45] LOAD_SCHEDULED_TASK: Load scheduler "s024" with entities [EventEntity, EventEntity], work=[831*, 0*]
 29: 0x0347 [0x01] GOTO 0x0377
 30: 0x034A [0x02] IF !(Work_Zone[9] == 8*) GOTO 0x0366
 31: 0x0352 [0x45] LOAD_SCHEDULED_TASK: Load scheduler "s017" with entities [EventEntity, EventEntity], work=[831*, 0*]
 32: 0x0363 [0x01] GOTO 0x0377
 33: 0x0366 [0x45] LOAD_SCHEDULED_TASK: Load scheduler "s001" with entities [EventEntity, EventEntity], work=[831*, 0*]

SUBROUTINE_0377:
 34: 0x0377 [0x1A] CALL_SUBROUTINE(address=0x0043)
 35: 0x037A [0x2B] Brygid (ID: 17739813/0x010EB025) [15189*]:
    → "Oh, look! Another adventurer in desperate need of my most accurate fashion advice. Tell me--what can the stylist extraordinaire Brygid recommend for you?"
 36: 0x0381 [0x23] WAIT_FOR_DIALOG_INTERACTION
 37: 0x0382 [0x5B] LOAD_EXT_SCHEDULER: Load scheduler "tlk0" with entities [Brygid (ID: 17739813/0x010EB025), Brygid (ID: 17739813/0x010EB025)], work=80*
 38: 0x0391 [0x02] IF !(Work_Zone[9] == 3*) GOTO 0x03AB
 39: 0x0399 [0x52] END_LOAD_SCHEDULER: End scheduler "s017" with entities [EventEntity, EventEntity], work=831*
 40: 0x03A8 [0x01] GOTO 0x0408
 41: 0x03AB [0x02] IF !(Work_Zone[9] == 5*) GOTO 0x03C5
 42: 0x03B3 [0x52] END_LOAD_SCHEDULER: End scheduler "s024" with entities [EventEntity, EventEntity], work=831*
 43: 0x03C2 [0x01] GOTO 0x0408
 44: 0x03C5 [0x02] IF !(Work_Zone[9] == 6*) GOTO 0x03DF
 45: 0x03CD [0x52] END_LOAD_SCHEDULER: End scheduler "s024" with entities [EventEntity, EventEntity], work=831*
 46: 0x03DC [0x01] GOTO 0x0408
 47: 0x03DF [0x02] IF !(Work_Zone[9] == 8*) GOTO 0x03F9
 48: 0x03E7 [0x52] END_LOAD_SCHEDULER: End scheduler "s017" with entities [EventEntity, EventEntity], work=831*
 49: 0x03F6 [0x01] GOTO 0x0408
 50: 0x03F9 [0x52] END_LOAD_SCHEDULER: End scheduler "s001" with entities [EventEntity, EventEntity], work=831*

SUBROUTINE_0408:
 51: 0x0408 [0x45] LOAD_SCHEDULED_TASK: Load scheduler "s000" with entities [EventEntity, EventEntity], work=[831*, 0*]
 52: 0x0419 [0x6C] FADE_ENTITY_COLOR(entity_id=LocalPlayer, end_alpha=0*, fade_time=1*)
 53: 0x0422 [0x29] REQ_SET_WAIT(priority=0x0F, entity_id=Brygid (ID: 17739813/0x010EB025), tag_num=0x11)
 54: 0x0429 [0x2B] Brygid (ID: 17739813/0x010EB025) [15190*]:
    → "No, don't answer that, for I already know why you've come. My catwalk could use a model just like yourself."
 55: 0x0430 [0x23] WAIT_FOR_DIALOG_INTERACTION
 56: 0x0431 [0x52] END_LOAD_SCHEDULER: End scheduler "s000" with entities [EventEntity, EventEntity], work=831*
 57: 0x0440 [0x24] CREATE_DIALOG(message_id=15191*, default_option=0*, option_flags=0*)
    → "Participate in her fashion show? [What's this about?/What kind of show?/Who're you?]"
 58: 0x0447 [0x25] WAIT_DIALOG_SELECT()
 59: 0x0448 [0x02] IF !(Work_Zone[0] == 0*) GOTO 0x061D
 60: 0x0450 [0x6C] FADE_ENTITY_COLOR(entity_id=LocalPlayer, end_alpha=128*, fade_time=1*)
 61: 0x0459 [0x29] REQ_SET_WAIT(priority=0x0F, entity_id=Brygid (ID: 17739813/0x010EB025), tag_num=0x12)
 62: 0x0460 [0x02] IF !(Work_Zone[9] == 3*) GOTO 0x047C
 63: 0x0468 [0x45] LOAD_SCHEDULED_TASK: Load scheduler "s011" with entities [EventEntity, EventEntity], work=[831*, 0*]
 64: 0x0479 [0x01] GOTO 0x04E1
 65: 0x047C [0x02] IF !(Work_Zone[9] == 5*) GOTO 0x0498
 66: 0x0484 [0x45] LOAD_SCHEDULED_TASK: Load scheduler "s018" with entities [EventEntity, EventEntity], work=[831*, 0*]
 67: 0x0495 [0x01] GOTO 0x04E1
 68: 0x0498 [0x02] IF !(Work_Zone[9] == 6*) GOTO 0x04B4
 69: 0x04A0 [0x45] LOAD_SCHEDULED_TASK: Load scheduler "s018" with entities [EventEntity, EventEntity], work=[831*, 0*]
 70: 0x04B1 [0x01] GOTO 0x04E1
 71: 0x04B4 [0x02] IF !(Work_Zone[9] == 8*) GOTO 0x04D0
 72: 0x04BC [0x45] LOAD_SCHEDULED_TASK: Load scheduler "s011" with entities [EventEntity, EventEntity], work=[831*, 0*]
 73: 0x04CD [0x01] GOTO 0x04E1
 74: 0x04D0 [0x45] LOAD_SCHEDULED_TASK: Load scheduler "s003" with entities [EventEntity, EventEntity], work=[831*, 0*]

SUBROUTINE_04E1:
 75: 0x04E1 [0x53] WAIT_SCHEDULER_TASK: Wait for scheduler "tlk0" with entities [Brygid (ID: 17739813/0x010EB025), Brygid (ID: 17739813/0x010EB025)]
 76: 0x04EE [0x5B] LOAD_EXT_SCHEDULER: Load scheduler "tlk1" with entities [Brygid (ID: 17739813/0x010EB025), Brygid (ID: 17739813/0x010EB025)], work=80*
 77: 0x04FD [0x2B] Brygid (ID: 17739813/0x010EB025) [15192*]:
    → "Ugh, don't tell me your wits are as wanting as your outfit. Didn't Cornelia mention it to you?"
 78: 0x0504 [0x23] WAIT_FOR_DIALOG_INTERACTION
 79: 0x0505 [0x53] WAIT_SCHEDULER_TASK: Wait for scheduler "tlk1" with entities [Brygid (ID: 17739813/0x010EB025), Brygid (ID: 17739813/0x010EB025)]
 80: 0x0512 [0x5B] LOAD_EXT_SCHEDULER: Load scheduler "tlk0" with entities [Brygid (ID: 17739813/0x010EB025), Brygid (ID: 17739813/0x010EB025)], work=80*
 81: 0x0521 [0x2B] Brygid (ID: 17739813/0x010EB025) [15193*]:
    → "I've convinced all the movers and shakers in Bastok to assist me in holding the most amazing fashion show the city--no, all of Vana'diel!--has ever seen!"
 82: 0x0528 [0x23] WAIT_FOR_DIALOG_INTERACTION
 83: 0x0529 [0x02] IF !(Work_Zone[9] == 3*) GOTO 0x0543
 84: 0x0531 [0x52] END_LOAD_SCHEDULER: End scheduler "s011" with entities [EventEntity, EventEntity], work=831*
 85: 0x0540 [0x01] GOTO 0x05A0
 86: 0x0543 [0x02] IF !(Work_Zone[9] == 5*) GOTO 0x055D
 87: 0x054B [0x52] END_LOAD_SCHEDULER: End scheduler "s018" with entities [EventEntity, EventEntity], work=831*
 88: 0x055A [0x01] GOTO 0x05A0
 89: 0x055D [0x02] IF !(Work_Zone[9] == 6*) GOTO 0x0577
 90: 0x0565 [0x52] END_LOAD_SCHEDULER: End scheduler "s018" with entities [EventEntity, EventEntity], work=831*
 91: 0x0574 [0x01] GOTO 0x05A0
 92: 0x0577 [0x02] IF !(Work_Zone[9] == 8*) GOTO 0x0591
 93: 0x057F [0x52] END_LOAD_SCHEDULER: End scheduler "s011" with entities [EventEntity, EventEntity], work=831*
 94: 0x058E [0x01] GOTO 0x05A0
 95: 0x0591 [0x52] END_LOAD_SCHEDULER: End scheduler "s003" with entities [EventEntity, EventEntity], work=831*

SUBROUTINE_05A0:
 96: 0x05A0 [0x02] IF !(Work_Zone[9] == 5*) GOTO 0x05BC
 97: 0x05A8 [0x45] LOAD_SCHEDULED_TASK: Load scheduler "s019" with entities [EventEntity, EventEntity], work=[831*, 0*]
 98: 0x05B9 [0x01] GOTO 0x0605
 99: 0x05BC [0x02] IF !(Work_Zone[9] == 6*) GOTO 0x05D8
100: 0x05C4 [0x45] LOAD_SCHEDULED_TASK: Load scheduler "s019" with entities [EventEntity, EventEntity], work=[831*, 0*]
101: 0x05D5 [0x01] GOTO 0x0605
102: 0x05D8 [0x02] IF !(Work_Zone[9] == 8*) GOTO 0x05F4
103: 0x05E0 [0x45] LOAD_SCHEDULED_TASK: Load scheduler "s012" with entities [EventEntity, EventEntity], work=[831*, 0*]
104: 0x05F1 [0x01] GOTO 0x0605
105: 0x05F4 [0x45] LOAD_SCHEDULED_TASK: Load scheduler "s004" with entities [EventEntity, EventEntity], work=[831*, 0*]

SUBROUTINE_0605:
106: 0x0605 [0x2B] Brygid (ID: 17739813/0x010EB025) [15198*]:
    → "The city is hoping that this initiative will help stimulate the local economy, bringing in people from far and wide to spend, spend, spend!"
107: 0x060C [0x23] WAIT_FOR_DIALOG_INTERACTION
108: 0x060D [0x53] WAIT_SCHEDULER_TASK: Wait for scheduler "tlk0" with entities [Brygid (ID: 17739813/0x010EB025), Brygid (ID: 17739813/0x010EB025)]
109: 0x061A [0x01] GOTO 0x098F
110: 0x061D [0x02] IF !(Work_Zone[0] == 1*) GOTO 0x07B2
111: 0x0625 [0x6C] FADE_ENTITY_COLOR(entity_id=LocalPlayer, end_alpha=128*, fade_time=1*)
112: 0x062E [0x29] REQ_SET_WAIT(priority=0x0F, entity_id=Brygid (ID: 17739813/0x010EB025), tag_num=0x12)
113: 0x0635 [0x02] IF !(Work_Zone[9] == 3*) GOTO 0x0651
114: 0x063D [0x45] LOAD_SCHEDULED_TASK: Load scheduler "s011" with entities [EventEntity, EventEntity], work=[831*, 0*]
115: 0x064E [0x01] GOTO 0x06B6
116: 0x0651 [0x02] IF !(Work_Zone[9] == 5*) GOTO 0x066D
117: 0x0659 [0x45] LOAD_SCHEDULED_TASK: Load scheduler "s018" with entities [EventEntity, EventEntity], work=[831*, 0*]
118: 0x066A [0x01] GOTO 0x06B6
119: 0x066D [0x02] IF !(Work_Zone[9] == 6*) GOTO 0x0689
120: 0x0675 [0x45] LOAD_SCHEDULED_TASK: Load scheduler "s018" with entities [EventEntity, EventEntity], work=[831*, 0*]
121: 0x0686 [0x01] GOTO 0x06B6
122: 0x0689 [0x02] IF !(Work_Zone[9] == 8*) GOTO 0x06A5
123: 0x0691 [0x45] LOAD_SCHEDULED_TASK: Load scheduler "s011" with entities [EventEntity, EventEntity], work=[831*, 0*]
124: 0x06A2 [0x01] GOTO 0x06B6
125: 0x06A5 [0x45] LOAD_SCHEDULED_TASK: Load scheduler "s003" with entities [EventEntity, EventEntity], work=[831*, 0*]

SUBROUTINE_06B6:
126: 0x06B6 [0x2B] Brygid (ID: 17739813/0x010EB025) [15194*]:
    → "I've convinced all the movers and shakers in Bastok to assist me in holding the most amazing fashion show the city--no, all of Vana'diel!--has ever seen!"
127: 0x06BD [0x23] WAIT_FOR_DIALOG_INTERACTION
128: 0x06BE [0x2B] Brygid (ID: 17739813/0x010EB025) [15198*]:
    → "The city is hoping that this initiative will help stimulate the local economy, bringing in people from far and wide to spend, spend, spend!"
129: 0x06C5 [0x23] WAIT_FOR_DIALOG_INTERACTION
130: 0x06C6 [0x53] WAIT_SCHEDULER_TASK: Wait for scheduler "tlk0" with entities [Brygid (ID: 17739813/0x010EB025), Brygid (ID: 17739813/0x010EB025)]
131: 0x06D3 [0x02] IF !(Work_Zone[9] == 3*) GOTO 0x06ED
132: 0x06DB [0x52] END_LOAD_SCHEDULER: End scheduler "s011" with entities [EventEntity, EventEntity], work=831*
133: 0x06EA [0x01] GOTO 0x074A
134: 0x06ED [0x02] IF !(Work_Zone[9] == 5*) GOTO 0x0707
135: 0x06F5 [0x52] END_LOAD_SCHEDULER: End scheduler "s018" with entities [EventEntity, EventEntity], work=831*
136: 0x0704 [0x01] GOTO 0x074A
137: 0x0707 [0x02] IF !(Work_Zone[9] == 6*) GOTO 0x0721
138: 0x070F [0x52] END_LOAD_SCHEDULER: End scheduler "s018" with entities [EventEntity, EventEntity], work=831*
139: 0x071E [0x01] GOTO 0x074A
140: 0x0721 [0x02] IF !(Work_Zone[9] == 8*) GOTO 0x073B
141: 0x0729 [0x52] END_LOAD_SCHEDULER: End scheduler "s011" with entities [EventEntity, EventEntity], work=831*
142: 0x0738 [0x01] GOTO 0x074A
143: 0x073B [0x52] END_LOAD_SCHEDULER: End scheduler "s003" with entities [EventEntity, EventEntity], work=831*

SUBROUTINE_074A:
144: 0x074A [0x02] IF !(Work_Zone[9] == 5*) GOTO 0x0766
145: 0x0752 [0x45] LOAD_SCHEDULED_TASK: Load scheduler "s019" with entities [EventEntity, EventEntity], work=[831*, 0*]
146: 0x0763 [0x01] GOTO 0x07AF
147: 0x0766 [0x02] IF !(Work_Zone[9] == 6*) GOTO 0x0782
148: 0x076E [0x45] LOAD_SCHEDULED_TASK: Load scheduler "s019" with entities [EventEntity, EventEntity], work=[831*, 0*]
149: 0x077F [0x01] GOTO 0x07AF
150: 0x0782 [0x02] IF !(Work_Zone[9] == 8*) GOTO 0x079E
151: 0x078A [0x45] LOAD_SCHEDULED_TASK: Load scheduler "s012" with entities [EventEntity, EventEntity], work=[831*, 0*]
152: 0x079B [0x01] GOTO 0x07AF
153: 0x079E [0x45] LOAD_SCHEDULED_TASK: Load scheduler "s004" with entities [EventEntity, EventEntity], work=[831*, 0*]

SUBROUTINE_07AF:
154: 0x07AF [0x01] GOTO 0x098F
155: 0x07B2 [0x02] IF !(Work_Zone[0] == 2*) GOTO 0x098F
156: 0x07BA [0x6C] FADE_ENTITY_COLOR(entity_id=LocalPlayer, end_alpha=128*, fade_time=1*)
157: 0x07C3 [0x29] REQ_SET_WAIT(priority=0x0F, entity_id=Brygid (ID: 17739813/0x010EB025), tag_num=0x12)
158: 0x07CA [0x02] IF !(Work_Zone[9] == 3*) GOTO 0x07E6
159: 0x07D2 [0x45] LOAD_SCHEDULED_TASK: Load scheduler "s011" with entities [EventEntity, EventEntity], work=[831*, 0*]
160: 0x07E3 [0x01] GOTO 0x084B
161: 0x07E6 [0x02] IF !(Work_Zone[9] == 5*) GOTO 0x0802
162: 0x07EE [0x45] LOAD_SCHEDULED_TASK: Load scheduler "s018" with entities [EventEntity, EventEntity], work=[831*, 0*]
163: 0x07FF [0x01] GOTO 0x084B
164: 0x0802 [0x02] IF !(Work_Zone[9] == 6*) GOTO 0x081E
165: 0x080A [0x45] LOAD_SCHEDULED_TASK: Load scheduler "s018" with entities [EventEntity, EventEntity], work=[831*, 0*]
166: 0x081B [0x01] GOTO 0x084B
167: 0x081E [0x02] IF !(Work_Zone[9] == 8*) GOTO 0x083A
168: 0x0826 [0x45] LOAD_SCHEDULED_TASK: Load scheduler "s011" with entities [EventEntity, EventEntity], work=[831*, 0*]
169: 0x0837 [0x01] GOTO 0x084B
170: 0x083A [0x45] LOAD_SCHEDULED_TASK: Load scheduler "s003" with entities [EventEntity, EventEntity], work=[831*, 0*]

SUBROUTINE_084B:
171: 0x084B [0x53] WAIT_SCHEDULER_TASK: Wait for scheduler "tlk0" with entities [Brygid (ID: 17739813/0x010EB025), Brygid (ID: 17739813/0x010EB025)]
172: 0x0858 [0x5B] LOAD_EXT_SCHEDULER: Load scheduler "tlk1" with entities [Brygid (ID: 17739813/0x010EB025), Brygid (ID: 17739813/0x010EB025)], work=80*
173: 0x0867 [0x2B] Brygid (ID: 17739813/0x010EB025) [15195*]:
    → "Weren't you listening to my monologue? I'm Brygid, stylist extraordinaire."
174: 0x086E [0x23] WAIT_FOR_DIALOG_INTERACTION
175: 0x086F [0x53] WAIT_SCHEDULER_TASK: Wait for scheduler "tlk1" with entities [Brygid (ID: 17739813/0x010EB025), Brygid (ID: 17739813/0x010EB025)]
176: 0x087C [0x2B] Brygid (ID: 17739813/0x010EB025) [15196*]:
    → "You mean Cornelia didn't tell you that her favorite fashion maven was in need of help?"
177: 0x0883 [0x23] WAIT_FOR_DIALOG_INTERACTION
178: 0x0884 [0x5B] LOAD_EXT_SCHEDULER: Load scheduler "tlk0" with entities [Brygid (ID: 17739813/0x010EB025), Brygid (ID: 17739813/0x010EB025)], work=80*
179: 0x0893 [0x02] IF !(Work_Zone[9] == 3*) GOTO 0x08AD
180: 0x089B [0x52] END_LOAD_SCHEDULER: End scheduler "s011" with entities [EventEntity, EventEntity], work=831*
181: 0x08AA [0x01] GOTO 0x090A
182: 0x08AD [0x02] IF !(Work_Zone[9] == 5*) GOTO 0x08C7
183: 0x08B5 [0x52] END_LOAD_SCHEDULER: End scheduler "s018" with entities [EventEntity, EventEntity], work=831*
184: 0x08C4 [0x01] GOTO 0x090A
185: 0x08C7 [0x02] IF !(Work_Zone[9] == 6*) GOTO 0x08E1
186: 0x08CF [0x52] END_LOAD_SCHEDULER: End scheduler "s018" with entities [EventEntity, EventEntity], work=831*
187: 0x08DE [0x01] GOTO 0x090A
188: 0x08E1 [0x02] IF !(Work_Zone[9] == 8*) GOTO 0x08FB
189: 0x08E9 [0x52] END_LOAD_SCHEDULER: End scheduler "s011" with entities [EventEntity, EventEntity], work=831*
190: 0x08F8 [0x01] GOTO 0x090A
191: 0x08FB [0x52] END_LOAD_SCHEDULER: End scheduler "s003" with entities [EventEntity, EventEntity], work=831*

SUBROUTINE_090A:
192: 0x090A [0x02] IF !(Work_Zone[9] == 5*) GOTO 0x0926
193: 0x0912 [0x45] LOAD_SCHEDULED_TASK: Load scheduler "s019" with entities [EventEntity, EventEntity], work=[831*, 0*]
194: 0x0923 [0x01] GOTO 0x096F
195: 0x0926 [0x02] IF !(Work_Zone[9] == 6*) GOTO 0x0942
196: 0x092E [0x45] LOAD_SCHEDULED_TASK: Load scheduler "s019" with entities [EventEntity, EventEntity], work=[831*, 0*]
197: 0x093F [0x01] GOTO 0x096F
198: 0x0942 [0x02] IF !(Work_Zone[9] == 8*) GOTO 0x095E
199: 0x094A [0x45] LOAD_SCHEDULED_TASK: Load scheduler "s012" with entities [EventEntity, EventEntity], work=[831*, 0*]
200: 0x095B [0x01] GOTO 0x096F
201: 0x095E [0x45] LOAD_SCHEDULED_TASK: Load scheduler "s004" with entities [EventEntity, EventEntity], work=[831*, 0*]

SUBROUTINE_096F:
202: 0x096F [0x2B] Brygid (ID: 17739813/0x010EB025) [15197*]:
    → "You see, I've convinced all the movers and shakers in Bastok to assist me in holding the most amazing fashion show the city--no, all of Vana'diel!--has ever seen!"
203: 0x0976 [0x23] WAIT_FOR_DIALOG_INTERACTION
204: 0x0977 [0x2B] Brygid (ID: 17739813/0x010EB025) [15198*]:
    → "The city is hoping that this initiative will help stimulate the local economy, bringing in people from far and wide to spend, spend, spend!"
205: 0x097E [0x23] WAIT_FOR_DIALOG_INTERACTION
206: 0x097F [0x53] WAIT_SCHEDULER_TASK: Wait for scheduler "tlk0" with entities [Brygid (ID: 17739813/0x010EB025), Brygid (ID: 17739813/0x010EB025)]
207: 0x098C [0x01] GOTO 0x098F

SUBROUTINE_098F:
208: 0x098F [0x5B] LOAD_EXT_SCHEDULER: Load scheduler "tlk1" with entities [Brygid (ID: 17739813/0x010EB025), Brygid (ID: 17739813/0x010EB025)], work=80*
209: 0x099E [0x2B] Brygid (ID: 17739813/0x010EB025) [15199*]:
    → "You see, fashion does not discriminate between creed or place of origin--and I firmly believe that there is an outfit for everyone."
210: 0x09A5 [0x23] WAIT_FOR_DIALOG_INTERACTION
211: 0x09A6 [0x53] WAIT_SCHEDULER_TASK: Wait for scheduler "tlk1" with entities [Brygid (ID: 17739813/0x010EB025), Brygid (ID: 17739813/0x010EB025)]
212: 0x09B3 [0x02] IF !(Work_Zone[9] == 5*) GOTO 0x09CD
213: 0x09BB [0x52] END_LOAD_SCHEDULER: End scheduler "s019" with entities [EventEntity, EventEntity], work=831*
214: 0x09CA [0x01] GOTO 0x0A10
215: 0x09CD [0x02] IF !(Work_Zone[9] == 6*) GOTO 0x09E7
216: 0x09D5 [0x52] END_LOAD_SCHEDULER: End scheduler "s019" with entities [EventEntity, EventEntity], work=831*
217: 0x09E4 [0x01] GOTO 0x0A10
218: 0x09E7 [0x02] IF !(Work_Zone[9] == 8*) GOTO 0x0A01
219: 0x09EF [0x52] END_LOAD_SCHEDULER: End scheduler "s012" with entities [EventEntity, EventEntity], work=831*
220: 0x09FE [0x01] GOTO 0x0A10
221: 0x0A01 [0x52] END_LOAD_SCHEDULER: End scheduler "s004" with entities [EventEntity, EventEntity], work=831*

SUBROUTINE_0A10:
222: 0x0A10 [0x02] IF !(Work_Zone[9] == 3*) GOTO 0x0A2C
223: 0x0A18 [0x45] LOAD_SCHEDULED_TASK: Load scheduler "s013" with entities [EventEntity, EventEntity], work=[831*, 0*]
224: 0x0A29 [0x01] GOTO 0x0A91
225: 0x0A2C [0x02] IF !(Work_Zone[9] == 5*) GOTO 0x0A48
226: 0x0A34 [0x45] LOAD_SCHEDULED_TASK: Load scheduler "s020" with entities [EventEntity, EventEntity], work=[831*, 0*]
227: 0x0A45 [0x01] GOTO 0x0A91
228: 0x0A48 [0x02] IF !(Work_Zone[9] == 6*) GOTO 0x0A64
229: 0x0A50 [0x45] LOAD_SCHEDULED_TASK: Load scheduler "s020" with entities [EventEntity, EventEntity], work=[831*, 0*]
230: 0x0A61 [0x01] GOTO 0x0A91
231: 0x0A64 [0x02] IF !(Work_Zone[9] == 8*) GOTO 0x0A80
232: 0x0A6C [0x45] LOAD_SCHEDULED_TASK: Load scheduler "s013" with entities [EventEntity, EventEntity], work=[831*, 0*]
233: 0x0A7D [0x01] GOTO 0x0A91
234: 0x0A80 [0x45] LOAD_SCHEDULED_TASK: Load scheduler "s002" with entities [EventEntity, EventEntity], work=[831*, 0*]

SUBROUTINE_0A91:
235: 0x0A91 [0x5B] LOAD_EXT_SCHEDULER: Load scheduler "thk1" with entities [Brygid (ID: 17739813/0x010EB025), Brygid (ID: 17739813/0x010EB025)], work=80*
236: 0x0AA0 [0x2B] Brygid (ID: 17739813/0x010EB025) [15200*]:
    → "But I'm having trouble finding people to lend themselves to the cause."
237: 0x0AA7 [0x23] WAIT_FOR_DIALOG_INTERACTION
238: 0x0AA8 [0x2B] Brygid (ID: 17739813/0x010EB025) [15201*]:
    → "If I didn't know better, I'd think people were mistaking my honest critiques for cruel barbs hurled by an uncaring judge."
239: 0x0AAF [0x23] WAIT_FOR_DIALOG_INTERACTION
240: 0x0AB0 [0x53] WAIT_SCHEDULER_TASK: Wait for scheduler "thk1" with entities [Brygid (ID: 17739813/0x010EB025), Brygid (ID: 17739813/0x010EB025)]
241: 0x0ABD [0x02] IF !(Work_Zone[9] == 3*) GOTO 0x0AD7
242: 0x0AC5 [0x52] END_LOAD_SCHEDULER: End scheduler "s013" with entities [EventEntity, EventEntity], work=831*
243: 0x0AD4 [0x01] GOTO 0x0B34
244: 0x0AD7 [0x02] IF !(Work_Zone[9] == 5*) GOTO 0x0AF1
245: 0x0ADF [0x52] END_LOAD_SCHEDULER: End scheduler "s020" with entities [EventEntity, EventEntity], work=831*
246: 0x0AEE [0x01] GOTO 0x0B34
247: 0x0AF1 [0x02] IF !(Work_Zone[9] == 6*) GOTO 0x0B0B
248: 0x0AF9 [0x52] END_LOAD_SCHEDULER: End scheduler "s020" with entities [EventEntity, EventEntity], work=831*
249: 0x0B08 [0x01] GOTO 0x0B34
250: 0x0B0B [0x02] IF !(Work_Zone[9] == 8*) GOTO 0x0B25
251: 0x0B13 [0x52] END_LOAD_SCHEDULER: End scheduler "s013" with entities [EventEntity, EventEntity], work=831*
252: 0x0B22 [0x01] GOTO 0x0B34
253: 0x0B25 [0x52] END_LOAD_SCHEDULER: End scheduler "s002" with entities [EventEntity, EventEntity], work=831*

SUBROUTINE_0B34:
254: 0x0B34 [0x45] LOAD_SCHEDULED_TASK: Load scheduler "s005" with entities [EventEntity, EventEntity], work=[831*, 0*]
255: 0x0B45 [0x5B] LOAD_EXT_SCHEDULER: Load scheduler "thk2" with entities [Brygid (ID: 17739813/0x010EB025), Brygid (ID: 17739813/0x010EB025)], work=80*
256: 0x0B54 [0x2B] Brygid (ID: 17739813/0x010EB025) [15202*]:
    → "Yet fashion can at times be uncompromising, and that's where you come in."
257: 0x0B5B [0x23] WAIT_FOR_DIALOG_INTERACTION
258: 0x0B5C [0x53] WAIT_SCHEDULER_TASK: Wait for scheduler "thk2" with entities [Brygid (ID: 17739813/0x010EB025), Brygid (ID: 17739813/0x010EB025)]
259: 0x0B69 [0x2B] Brygid (ID: 17739813/0x010EB025) [15203*]:
    → "Assist me, and I promise that I'll come up with the perfect disguise for your friend Raebrimm."
260: 0x0B70 [0x23] WAIT_FOR_DIALOG_INTERACTION
261: 0x0B71 [0x52] END_LOAD_SCHEDULER: End scheduler "s005" with entities [EventEntity, EventEntity], work=831*
262: 0x0B80 [0x02] IF !(Work_Zone[9] == 3*) GOTO 0x0B9C
263: 0x0B88 [0x45] LOAD_SCHEDULED_TASK: Load scheduler "s014" with entities [EventEntity, EventEntity], work=[831*, 0*]
264: 0x0B99 [0x01] GOTO 0x0C01
265: 0x0B9C [0x02] IF !(Work_Zone[9] == 5*) GOTO 0x0BB8
266: 0x0BA4 [0x45] LOAD_SCHEDULED_TASK: Load scheduler "s021" with entities [EventEntity, EventEntity], work=[831*, 0*]
267: 0x0BB5 [0x01] GOTO 0x0C01
268: 0x0BB8 [0x02] IF !(Work_Zone[9] == 6*) GOTO 0x0BD4
269: 0x0BC0 [0x45] LOAD_SCHEDULED_TASK: Load scheduler "s021" with entities [EventEntity, EventEntity], work=[831*, 0*]
270: 0x0BD1 [0x01] GOTO 0x0C01
271: 0x0BD4 [0x02] IF !(Work_Zone[9] == 8*) GOTO 0x0BF0
272: 0x0BDC [0x45] LOAD_SCHEDULED_TASK: Load scheduler "s014" with entities [EventEntity, EventEntity], work=[831*, 0*]
273: 0x0BED [0x01] GOTO 0x0C01
274: 0x0BF0 [0x45] LOAD_SCHEDULED_TASK: Load scheduler "s006" with entities [EventEntity, EventEntity], work=[831*, 0*]

SUBROUTINE_0C01:
275: 0x0C01 [0x5B] LOAD_EXT_SCHEDULER: Load scheduler "tlk0" with entities [Brygid (ID: 17739813/0x010EB025), Brygid (ID: 17739813/0x010EB025)], work=80*
276: 0x0C10 [0x2B] Brygid (ID: 17739813/0x010EB025) [15204*]:
    → "After all, if I can't help you, then who can?"
277: 0x0C17 [0x23] WAIT_FOR_DIALOG_INTERACTION
278: 0x0C18 [0x53] WAIT_SCHEDULER_TASK: Wait for scheduler "tlk0" with entities [Brygid (ID: 17739813/0x010EB025), Brygid (ID: 17739813/0x010EB025)]
279: 0x0C25 [0x24] CREATE_DIALOG(message_id=15205*, default_option=0*, option_flags=0*)
    → "Participate in the fashion show? [Sure./I'm not model material...]"
280: 0x0C2C [0x25] WAIT_DIALOG_SELECT()
281: 0x0C2D [0x02] IF !(Work_Zone[0] == 0*) GOTO 0x0E17
282: 0x0C35 [0x6E] LocalPlayer uses emote 7*
283: 0x0C3C [0x99] Wait for LocalPlayer animation to complete
284: 0x0C41 [0x1C] WAIT(30* ticks)
285: 0x0C44 [0x5B] LOAD_EXT_SCHEDULER: Load scheduler "tlk1" with entities [Brygid (ID: 17739813/0x010EB025), Brygid (ID: 17739813/0x010EB025)], work=80*
286: 0x0C53 [0x2B] Brygid (ID: 17739813/0x010EB025) [15210*]:
    → "Perfect! Then let's get right down to business. The official name of this show is..."
287: 0x0C5A [0x23] WAIT_FOR_DIALOG_INTERACTION
288: 0x0C5B [0x53] WAIT_SCHEDULER_TASK: Wait for scheduler "tlk1" with entities [Brygid (ID: 17739813/0x010EB025), Brygid (ID: 17739813/0x010EB025)]
289: 0x0C68 [0x5B] LOAD_EXT_SCHEDULER: Load scheduler "ikr0" with entities [Brygid (ID: 17739813/0x010EB025), Brygid (ID: 17739813/0x010EB025)], work=82*
290: 0x0C77 [0x1C] WAIT(10* ticks)
291: 0x0C7A [0x02] IF !(Work_Zone[9] == 3*) GOTO 0x0C94
292: 0x0C82 [0x52] END_LOAD_SCHEDULER: End scheduler "s014" with entities [EventEntity, EventEntity], work=831*
293: 0x0C91 [0x01] GOTO 0x0CF1
294: 0x0C94 [0x02] IF !(Work_Zone[9] == 5*) GOTO 0x0CAE
295: 0x0C9C [0x52] END_LOAD_SCHEDULER: End scheduler "s021" with entities [EventEntity, EventEntity], work=831*
296: 0x0CAB [0x01] GOTO 0x0CF1
297: 0x0CAE [0x02] IF !(Work_Zone[9] == 6*) GOTO 0x0CC8
298: 0x0CB6 [0x52] END_LOAD_SCHEDULER: End scheduler "s021" with entities [EventEntity, EventEntity], work=831*
299: 0x0CC5 [0x01] GOTO 0x0CF1
300: 0x0CC8 [0x02] IF !(Work_Zone[9] == 8*) GOTO 0x0CE2
301: 0x0CD0 [0x52] END_LOAD_SCHEDULER: End scheduler "s014" with entities [EventEntity, EventEntity], work=831*
302: 0x0CDF [0x01] GOTO 0x0CF1
303: 0x0CE2 [0x52] END_LOAD_SCHEDULER: End scheduler "s006" with entities [EventEntity, EventEntity], work=831*

SUBROUTINE_0CF1:
304: 0x0CF1 [0x45] LOAD_SCHEDULED_TASK: Load scheduler "s007" with entities [EventEntity, EventEntity], work=[831*, 0*]
305: 0x0D02 [0x2B] Brygid (ID: 17739813/0x010EB025) [15211*]:
    → ""The First Annual Brygid Cosplay Fiesta"!!!"
306: 0x0D09 [0x23] WAIT_FOR_DIALOG_INTERACTION
307: 0x0D0A [0x53] WAIT_SCHEDULER_TASK: Wait for scheduler "ikr0" with entities [Brygid (ID: 17739813/0x010EB025), Brygid (ID: 17739813/0x010EB025)]
308: 0x0D17 [0x5B] LOAD_EXT_SCHEDULER: Load scheduler "ikr1" with entities [Brygid (ID: 17739813/0x010EB025), Brygid (ID: 17739813/0x010EB025)], work=82*
309: 0x0D26 [0x52] END_LOAD_SCHEDULER: End scheduler "s007" with entities [EventEntity, EventEntity], work=831*
310: 0x0D35 [0x02] IF !(Work_Zone[9] == 5*) GOTO 0x0D51
311: 0x0D3D [0x45] LOAD_SCHEDULED_TASK: Load scheduler "s022" with entities [EventEntity, EventEntity], work=[831*, 0*]
312: 0x0D4E [0x01] GOTO 0x0D9A
313: 0x0D51 [0x02] IF !(Work_Zone[9] == 6*) GOTO 0x0D6D
314: 0x0D59 [0x45] LOAD_SCHEDULED_TASK: Load scheduler "s022" with entities [EventEntity, EventEntity], work=[831*, 0*]
315: 0x0D6A [0x01] GOTO 0x0D9A
316: 0x0D6D [0x02] IF !(Work_Zone[9] == 8*) GOTO 0x0D89
317: 0x0D75 [0x45] LOAD_SCHEDULED_TASK: Load scheduler "s015" with entities [EventEntity, EventEntity], work=[831*, 0*]
318: 0x0D86 [0x01] GOTO 0x0D9A
319: 0x0D89 [0x45] LOAD_SCHEDULED_TASK: Load scheduler "s008" with entities [EventEntity, EventEntity], work=[831*, 0*]

SUBROUTINE_0D9A:
320: 0x0D9A [0x2B] Brygid (ID: 17739813/0x010EB025) [15212*]:
    → "Let me know if you want to hear more."
321: 0x0DA1 [0x23] WAIT_FOR_DIALOG_INTERACTION
322: 0x0DA2 [0x53] WAIT_SCHEDULER_TASK: Wait for scheduler "ikr1" with entities [Brygid (ID: 17739813/0x010EB025), Brygid (ID: 17739813/0x010EB025)]
323: 0x0DAF [0x2B] Brygid (ID: 17739813/0x010EB025) [15213*]:
    → "But here's what I want you to do in the short term: decide on someone after whom you want to model your costume."
324: 0x0DB6 [0x23] WAIT_FOR_DIALOG_INTERACTION
325: 0x0DB7 [0x02] IF !(Work_Zone[9] == 5*) GOTO 0x0DD1
326: 0x0DBF [0x52] END_LOAD_SCHEDULER: End scheduler "s022" with entities [EventEntity, EventEntity], work=831*
327: 0x0DCE [0x01] GOTO 0x0E14
328: 0x0DD1 [0x02] IF !(Work_Zone[9] == 6*) GOTO 0x0DEB
329: 0x0DD9 [0x52] END_LOAD_SCHEDULER: End scheduler "s022" with entities [EventEntity, EventEntity], work=831*
330: 0x0DE8 [0x01] GOTO 0x0E14
331: 0x0DEB [0x02] IF !(Work_Zone[9] == 8*) GOTO 0x0E05
332: 0x0DF3 [0x52] END_LOAD_SCHEDULER: End scheduler "s015" with entities [EventEntity, EventEntity], work=831*
333: 0x0E02 [0x01] GOTO 0x0E14
334: 0x0E05 [0x52] END_LOAD_SCHEDULER: End scheduler "s008" with entities [EventEntity, EventEntity], work=831*

SUBROUTINE_0E14:
335: 0x0E14 [0x01] GOTO 0x10F4
336: 0x0E17 [0x02] IF !(Work_Zone[0] == 1*) GOTO 0x10F4
337: 0x0E1F [0x6E] LocalPlayer uses emote 6*
338: 0x0E26 [0x99] Wait for LocalPlayer animation to complete
339: 0x0E2B [0x1C] WAIT(30* ticks)
340: 0x0E2E [0x02] IF !(Work_Zone[9] == 3*) GOTO 0x0E48
341: 0x0E36 [0x52] END_LOAD_SCHEDULER: End scheduler "s014" with entities [EventEntity, EventEntity], work=831*
342: 0x0E45 [0x01] GOTO 0x0EA5
343: 0x0E48 [0x02] IF !(Work_Zone[9] == 5*) GOTO 0x0E62
344: 0x0E50 [0x52] END_LOAD_SCHEDULER: End scheduler "s021" with entities [EventEntity, EventEntity], work=831*
345: 0x0E5F [0x01] GOTO 0x0EA5
346: 0x0E62 [0x02] IF !(Work_Zone[9] == 6*) GOTO 0x0E7C
347: 0x0E6A [0x52] END_LOAD_SCHEDULER: End scheduler "s021" with entities [EventEntity, EventEntity], work=831*
348: 0x0E79 [0x01] GOTO 0x0EA5
349: 0x0E7C [0x02] IF !(Work_Zone[9] == 8*) GOTO 0x0E96
350: 0x0E84 [0x52] END_LOAD_SCHEDULER: End scheduler "s014" with entities [EventEntity, EventEntity], work=831*
351: 0x0E93 [0x01] GOTO 0x0EA5
352: 0x0E96 [0x52] END_LOAD_SCHEDULER: End scheduler "s006" with entities [EventEntity, EventEntity], work=831*

SUBROUTINE_0EA5:
353: 0x0EA5 [0x02] IF !(Work_Zone[9] == 5*) GOTO 0x0EC1
354: 0x0EAD [0x45] LOAD_SCHEDULED_TASK: Load scheduler "s022" with entities [EventEntity, EventEntity], work=[831*, 0*]
355: 0x0EBE [0x01] GOTO 0x0F0A
356: 0x0EC1 [0x02] IF !(Work_Zone[9] == 6*) GOTO 0x0EDD
357: 0x0EC9 [0x45] LOAD_SCHEDULED_TASK: Load scheduler "s022" with entities [EventEntity, EventEntity], work=[831*, 0*]
358: 0x0EDA [0x01] GOTO 0x0F0A
359: 0x0EDD [0x02] IF !(Work_Zone[9] == 8*) GOTO 0x0EF9
360: 0x0EE5 [0x45] LOAD_SCHEDULED_TASK: Load scheduler "s015" with entities [EventEntity, EventEntity], work=[831*, 0*]
361: 0x0EF6 [0x01] GOTO 0x0F0A
362: 0x0EF9 [0x45] LOAD_SCHEDULED_TASK: Load scheduler "s008" with entities [EventEntity, EventEntity], work=[831*, 0*]

SUBROUTINE_0F0A:
363: 0x0F0A [0x2B] Brygid (ID: 17739813/0x010EB025) [15206*]:
    → "I know you may be a bit worried that your fashion sense is not up to snuff. And maybe it isn't, but that's neither here nor there."
364: 0x0F11 [0x23] WAIT_FOR_DIALOG_INTERACTION
365: 0x0F12 [0x5B] LOAD_EXT_SCHEDULER: Load scheduler "tlk1" with entities [Brygid (ID: 17739813/0x010EB025), Brygid (ID: 17739813/0x010EB025)], work=80*
366: 0x0F21 [0x2B] Brygid (ID: 17739813/0x010EB025) [15207*]:
    → "For this isn't an ordinary fashion show--it's a costume show!"
367: 0x0F28 [0x23] WAIT_FOR_DIALOG_INTERACTION
368: 0x0F29 [0x53] WAIT_SCHEDULER_TASK: Wait for scheduler "tlk1" with entities [Brygid (ID: 17739813/0x010EB025), Brygid (ID: 17739813/0x010EB025)]
369: 0x0F36 [0x5B] LOAD_EXT_SCHEDULER: Load scheduler "ikr0" with entities [Brygid (ID: 17739813/0x010EB025), Brygid (ID: 17739813/0x010EB025)], work=82*
370: 0x0F45 [0x1C] WAIT(5* ticks)
371: 0x0F48 [0x02] IF !(Work_Zone[9] == 5*) GOTO 0x0F62
372: 0x0F50 [0x52] END_LOAD_SCHEDULER: End scheduler "s022" with entities [EventEntity, EventEntity], work=831*
373: 0x0F5F [0x01] GOTO 0x0FA5
374: 0x0F62 [0x02] IF !(Work_Zone[9] == 6*) GOTO 0x0F7C
375: 0x0F6A [0x52] END_LOAD_SCHEDULER: End scheduler "s022" with entities [EventEntity, EventEntity], work=831*
376: 0x0F79 [0x01] GOTO 0x0FA5
377: 0x0F7C [0x02] IF !(Work_Zone[9] == 8*) GOTO 0x0F96
378: 0x0F84 [0x52] END_LOAD_SCHEDULER: End scheduler "s015" with entities [EventEntity, EventEntity], work=831*
379: 0x0F93 [0x01] GOTO 0x0FA5
380: 0x0F96 [0x52] END_LOAD_SCHEDULER: End scheduler "s008" with entities [EventEntity, EventEntity], work=831*

SUBROUTINE_0FA5:
381: 0x0FA5 [0x45] LOAD_SCHEDULED_TASK: Load scheduler "s007" with entities [EventEntity, EventEntity], work=[831*, 0*]
382: 0x0FB6 [0x2B] Brygid (ID: 17739813/0x010EB025) [15208*]:
    → ""The First Annual Brygid Cosplay Fiesta"!!!"
383: 0x0FBD [0x23] WAIT_FOR_DIALOG_INTERACTION
384: 0x0FBE [0x53] WAIT_SCHEDULER_TASK: Wait for scheduler "ikr0" with entities [Brygid (ID: 17739813/0x010EB025), Brygid (ID: 17739813/0x010EB025)]
385: 0x0FCB [0x5B] LOAD_EXT_SCHEDULER: Load scheduler "ikr1" with entities [Brygid (ID: 17739813/0x010EB025), Brygid (ID: 17739813/0x010EB025)], work=82*
386: 0x0FDA [0x52] END_LOAD_SCHEDULER: End scheduler "s007" with entities [EventEntity, EventEntity], work=831*
387: 0x0FE9 [0x02] IF !(Work_Zone[9] == 3*) GOTO 0x1005
388: 0x0FF1 [0x45] LOAD_SCHEDULED_TASK: Load scheduler "s016" with entities [EventEntity, EventEntity], work=[831*, 0*]
389: 0x1002 [0x01] GOTO 0x106A
390: 0x1005 [0x02] IF !(Work_Zone[9] == 5*) GOTO 0x1021
391: 0x100D [0x45] LOAD_SCHEDULED_TASK: Load scheduler "s025" with entities [EventEntity, EventEntity], work=[831*, 0*]
392: 0x101E [0x01] GOTO 0x106A
393: 0x1021 [0x02] IF !(Work_Zone[9] == 6*) GOTO 0x103D
394: 0x1029 [0x45] LOAD_SCHEDULED_TASK: Load scheduler "s025" with entities [EventEntity, EventEntity], work=[831*, 0*]
395: 0x103A [0x01] GOTO 0x106A
396: 0x103D [0x02] IF !(Work_Zone[9] == 8*) GOTO 0x1059
397: 0x1045 [0x45] LOAD_SCHEDULED_TASK: Load scheduler "s016" with entities [EventEntity, EventEntity], work=[831*, 0*]
398: 0x1056 [0x01] GOTO 0x106A
399: 0x1059 [0x45] LOAD_SCHEDULED_TASK: Load scheduler "s009" with entities [EventEntity, EventEntity], work=[831*, 0*]

SUBROUTINE_106A:
400: 0x106A [0x2B] Brygid (ID: 17739813/0x010EB025) [15209*]:
    → "Let me know if you want to hear more."
401: 0x1071 [0x23] WAIT_FOR_DIALOG_INTERACTION
402: 0x1072 [0x2B] Brygid (ID: 17739813/0x010EB025) [15213*]:
    → "But here's what I want you to do in the short term: decide on someone after whom you want to model your costume."
403: 0x1079 [0x23] WAIT_FOR_DIALOG_INTERACTION
404: 0x107A [0x02] IF !(Work_Zone[9] == 3*) GOTO 0x1094
405: 0x1082 [0x52] END_LOAD_SCHEDULER: End scheduler "s016" with entities [EventEntity, EventEntity], work=831*
406: 0x1091 [0x01] GOTO 0x10F1
407: 0x1094 [0x02] IF !(Work_Zone[9] == 5*) GOTO 0x10AE
408: 0x109C [0x52] END_LOAD_SCHEDULER: End scheduler "s025" with entities [EventEntity, EventEntity], work=831*
409: 0x10AB [0x01] GOTO 0x10F1
410: 0x10AE [0x02] IF !(Work_Zone[9] == 6*) GOTO 0x10C8
411: 0x10B6 [0x52] END_LOAD_SCHEDULER: End scheduler "s025" with entities [EventEntity, EventEntity], work=831*
412: 0x10C5 [0x01] GOTO 0x10F1
413: 0x10C8 [0x02] IF !(Work_Zone[9] == 8*) GOTO 0x10E2
414: 0x10D0 [0x52] END_LOAD_SCHEDULER: End scheduler "s016" with entities [EventEntity, EventEntity], work=831*
415: 0x10DF [0x01] GOTO 0x10F1
416: 0x10E2 [0x52] END_LOAD_SCHEDULER: End scheduler "s009" with entities [EventEntity, EventEntity], work=831*

SUBROUTINE_10F1:
417: 0x10F1 [0x01] GOTO 0x10F4

SUBROUTINE_10F4:
418: 0x10F4 [0x02] IF !(Work_Zone[9] == 5*) GOTO 0x1110
419: 0x10FC [0x45] LOAD_SCHEDULED_TASK: Load scheduler "s023" with entities [EventEntity, EventEntity], work=[831*, 0*]
420: 0x110D [0x01] GOTO 0x113D
421: 0x1110 [0x02] IF !(Work_Zone[9] == 6*) GOTO 0x112C
422: 0x1118 [0x45] LOAD_SCHEDULED_TASK: Load scheduler "s023" with entities [EventEntity, EventEntity], work=[831*, 0*]
423: 0x1129 [0x01] GOTO 0x113D
424: 0x112C [0x45] LOAD_SCHEDULED_TASK: Load scheduler "s010" with entities [EventEntity, EventEntity], work=[831*, 0*]

SUBROUTINE_113D:
425: 0x113D [0x5D] SET_MUSIC_VOLUME(volume=0*, fade_time=600*)
426: 0x1142 [0x7B] Brygid (ID: 17739813/0x010EB025) stops talking
427: 0x1147 [0x5B] LOAD_EXT_SCHEDULER: Load scheduler "thk1" with entities [Brygid (ID: 17739813/0x010EB025), Brygid (ID: 17739813/0x010EB025)], work=80*
428: 0x1156 [0x2B] Brygid (ID: 17739813/0x010EB025) [15214*]:
    → "This is going to be the best fashion show ever!"
429: 0x115D [0x23] WAIT_FOR_DIALOG_INTERACTION
430: 0x115E [0x53] WAIT_SCHEDULER_TASK: Wait for scheduler "thk1" with entities [Brygid (ID: 17739813/0x010EB025), Brygid (ID: 17739813/0x010EB025)]
431: 0x116B [0x1A] CALL_SUBROUTINE(address=0x0064)
432: 0x116E [0x1C] WAIT(15* ticks)
433: 0x1171 [0x02] IF !(Work_Zone[9] == 5*) GOTO 0x118B
434: 0x1179 [0x52] END_LOAD_SCHEDULER: End scheduler "s023" with entities [EventEntity, EventEntity], work=831*
435: 0x1188 [0x01] GOTO 0x11B4
436: 0x118B [0x02] IF !(Work_Zone[9] == 6*) GOTO 0x11A5
437: 0x1193 [0x52] END_LOAD_SCHEDULER: End scheduler "s023" with entities [EventEntity, EventEntity], work=831*
438: 0x11A2 [0x01] GOTO 0x11B4
439: 0x11A5 [0x52] END_LOAD_SCHEDULER: End scheduler "s010" with entities [EventEntity, EventEntity], work=831*

SUBROUTINE_11B4:
440: 0x11B4 [0x5B] LOAD_EXT_SCHEDULER: Load scheduler "thk2" with entities [Brygid (ID: 17739813/0x010EB025), Brygid (ID: 17739813/0x010EB025)], work=80*
441: 0x11C3 [0x53] WAIT_SCHEDULER_TASK: Wait for scheduler "thk2" with entities [Brygid (ID: 17739813/0x010EB025), Brygid (ID: 17739813/0x010EB025)]
442: 0x11D0 [0x5C] MUSIC_CONTROL: Set Idle (Day) music to song 152*
443: 0x11D4 [0x5C] MUSIC_CONTROL: Set Idle (Night) music to song 152*
444: 0x11D8 [0x9A] WAIT_MUSIC_SERVER()
445: 0x11D9 [0x5D] SET_MUSIC_VOLUME(volume=127*, fade_time=1*)
446: 0x11DE [0x1C] WAIT(30* ticks)
447: 0x11E1 [0xAB] EventEntity->DespawnValue = 0* // Set despawn value
448: 0x11E5 [0x1C] WAIT(1* ticks)
449: 0x11E8 [0x46] CAMERA_CONTROL: Restore default settings
450: 0x11EA [0x45] LOAD_SCHEDULED_TASK: Load scheduler "fdi2" with entities [EventEntity, EventEntity], work=[200*, 0*]
451: 0x11FB [0x21] END_EVENT
452: 0x11FC [0x00] END_REQSTACK()
```

### Event 676

#### Metadata

| Field        | Value      |
|--------------|------------|
| Entrypoint   | 0x11FD     |
| Data Size    | 3806 bytes |
| Instructions | 414        |

```
      00 01 02 03 04 05 06 07  08 09 0A 0B 0C 0D 0E 0F
      -- -- -- -- -- -- -- --  -- -- -- -- -- -- -- --
11F0:                                         42 1A 64               B.d
1200: 00 46 01 38 08 80 94 01  25 B0 0E 01 94 01 F0 FF  .F.8....%.......
1210: FF 7F BA F0 FF FF 7F 0A  80 0B 80 0C 80 0D 80 80  ................
1220: 25 B0 0E 01 80 F0 FF FF  7F 4A F0 FF FF 7F 25 B0  %........J....%.
1230: 0E 01 4A 25 B0 0E 01 F0  FF FF 7F 6F 76 F0 FF FF  ..J%.......ov...
1240: 7F 6F 76 25 B0 0E 01 29  0F F0 FF FF 7F 43 02 09  .ov%...).....C..
1250: 10 10 80 00 6A 12 45 11  80 F8 FF FF 7F F8 FF FF  ....j.E.........
1260: 7F 73 30 31 37 01 80 01  CF 12 02 09 10 12 80 00  .s017...........
1270: 86 12 45 11 80 F8 FF FF  7F F8 FF FF 7F 73 30 32  ..E..........s02
1280: 34 01 80 01 CF 12 02 09  10 13 80 00 A2 12 45 11  4.............E.
1290: 80 F8 FF FF 7F F8 FF FF  7F 73 30 32 34 01 80 01  .........s024...
12A0: CF 12 02 09 10 14 80 00  BE 12 45 11 80 F8 FF FF  ..........E.....
12B0: 7F F8 FF FF 7F 73 30 31  37 01 80 01 CF 12 45 11  .....s017.....E.
12C0: 80 F8 FF FF 7F F8 FF FF  7F 73 30 30 31 01 80 1A  .........s001...
12D0: 43 00 03 01 10 01 80 02  02 10 37 80 80 06 1C 5B  C.........7....[
12E0: 16 80 25 B0 0E 01 25 B0  0E 01 74 6C 6B 30 2B 25  ..%...%...tlk0+%
12F0: B0 0E 01 38 80 23 2B 25  B0 0E 01 39 80 23 53 25  ...8.#+%...9.#S%
1300: B0 0E 01 25 B0 0E 01 74  6C 6B 30 02 09 10 10 80  ...%...tlk0.....
1310: 00 25 13 52 11 80 F8 FF  FF 7F F8 FF FF 7F 73 30  .%.R..........s0
1320: 31 37 01 82 13 02 09 10  12 80 00 3F 13 52 11 80  17.........?.R..
1330: F8 FF FF 7F F8 FF FF 7F  73 30 32 34 01 82 13 02  ........s024....
1340: 09 10 13 80 00 59 13 52  11 80 F8 FF FF 7F F8 FF  .....Y.R........
1350: FF 7F 73 30 32 34 01 82  13 02 09 10 14 80 00 73  ..s024.........s
1360: 13 52 11 80 F8 FF FF 7F  F8 FF FF 7F 73 30 31 37  .R..........s017
1370: 01 82 13 52 11 80 F8 FF  FF 7F F8 FF FF 7F 73 30  ...R..........s0
1380: 30 31 03 01 00 01 80 24  3A 80 01 00 01 80 25 02  01.....$:.....%.
1390: 00 10 01 80 00 40 16 45  11 80 F8 FF FF 7F F8 FF  .....@.E........
13A0: FF 7F 73 30 30 30 01 80  6C F0 FF FF 7F 01 80 03  ..s000..l.......
13B0: 80 79 00 25 B0 0E 01 F0  FF FF 7F 29 0F 25 B0 0E  .y.%.......).%..
13C0: 01 11 5B 16 80 25 B0 0E  01 25 B0 0E 01 74 6C 6B  ..[..%...%...tlk
13D0: 31 2B 25 B0 0E 01 3B 80  23 2B 25 B0 0E 01 3C 80  1+%...;.#+%...<.
13E0: 23 53 25 B0 0E 01 25 B0  0E 01 74 6C 6B 31 52 11  #S%...%...tlk1R.
13F0: 80 F8 FF FF 7F F8 FF FF  7F 73 30 30 30 6C F0 FF  .........s000l..
1400: FF 7F 19 80 03 80 29 0F  25 B0 0E 01 12 02 09 10  ......).%.......
1410: 10 80 00 29 14 45 11 80  F8 FF FF 7F F8 FF FF 7F  ...).E..........
1420: 73 30 31 34 01 80 01 8E  14 02 09 10 12 80 00 45  s014...........E
1430: 14 45 11 80 F8 FF FF 7F  F8 FF FF 7F 73 30 32 31  .E..........s021
1440: 01 80 01 8E 14 02 09 10  13 80 00 61 14 45 11 80  ...........a.E..
1450: F8 FF FF 7F F8 FF FF 7F  73 30 32 31 01 80 01 8E  ........s021....
1460: 14 02 09 10 14 80 00 7D  14 45 11 80 F8 FF FF 7F  .......}.E......
1470: F8 FF FF 7F 73 30 31 34  01 80 01 8E 14 45 11 80  ....s014.....E..
1480: F8 FF FF 7F F8 FF FF 7F  73 30 30 36 01 80 5B 16  ........s006..[.
1490: 80 25 B0 0E 01 25 B0 0E  01 74 6C 6B 30 2B 25 B0  .%...%...tlk0+%.
14A0: 0E 01 3D 80 23 2B 25 B0  0E 01 3E 80 23 53 25 B0  ..=.#+%...>.#S%.
14B0: 0E 01 25 B0 0E 01 74 6C  6B 30 02 09 10 10 80 00  ..%...tlk0......
14C0: D4 14 52 11 80 F8 FF FF  7F F8 FF FF 7F 73 30 31  ..R..........s01
14D0: 34 01 31 15 02 09 10 12  80 00 EE 14 52 11 80 F8  4.1.........R...
14E0: FF FF 7F F8 FF FF 7F 73  30 32 31 01 31 15 02 09  .......s021.1...
14F0: 10 13 80 00 08 15 52 11  80 F8 FF FF 7F F8 FF FF  ......R.........
1500: 7F 73 30 32 31 01 31 15  02 09 10 14 80 00 22 15  .s021.1.......".
1510: 52 11 80 F8 FF FF 7F F8  FF FF 7F 73 30 31 34 01  R..........s014.
1520: 31 15 52 11 80 F8 FF FF  7F F8 FF FF 7F 73 30 30  1.R..........s00
1530: 36 45 11 80 F8 FF FF 7F  F8 FF FF 7F 73 30 32 36  6E..........s026
1540: 01 80 5B 16 80 25 B0 0E  01 25 B0 0E 01 74 6C 6B  ..[..%...%...tlk
1550: 31 2B 25 B0 0E 01 3F 80  23 2B 25 B0 0E 01 40 80  1+%...?.#+%...@.
1560: 23 53 25 B0 0E 01 25 B0  0E 01 74 6C 6B 31 52 11  #S%...%...tlk1R.
1570: 80 F8 FF FF 7F F8 FF FF  7F 73 30 32 36 02 09 10  .........s026...
1580: 12 80 00 99 15 45 11 80  F8 FF FF 7F F8 FF FF 7F  .....E..........
1590: 73 30 32 33 01 80 01 C6  15 02 09 10 13 80 00 B5  s023............
15A0: 15 45 11 80 F8 FF FF 7F  F8 FF FF 7F 73 30 32 33  .E..........s023
15B0: 01 80 01 C6 15 45 11 80  F8 FF FF 7F F8 FF FF 7F  .....E..........
15C0: 73 30 31 30 01 80 5B 16  80 25 B0 0E 01 25 B0 0E  s010..[..%...%..
15D0: 01 74 6C 6B 30 2B 25 B0  0E 01 41 80 23 2B 25 B0  .tlk0+%...A.#+%.
15E0: 0E 01 42 80 23 53 25 B0  0E 01 25 B0 0E 01 74 6C  ..B.#S%...%...tl
15F0: 6B 30 02 09 10 12 80 00  0C 16 52 11 80 F8 FF FF  k0........R.....
1600: 7F F8 FF FF 7F 73 30 32  33 01 35 16 02 09 10 13  .....s023.5.....
1610: 80 00 26 16 52 11 80 F8  FF FF 7F F8 FF FF 7F 73  ..&.R..........s
1620: 30 32 33 01 35 16 52 11  80 F8 FF FF 7F F8 FF FF  023.5.R.........
1630: 7F 73 30 31 30 03 01 00  00 10 01 87 13 01 03 1C  .s010...........
1640: 02 00 10 03 80 00 A3 19  79 00 25 B0 0E 01 F0 FF  ........y.%.....
1650: FF 7F 02 09 10 10 80 00  6E 16 45 11 80 F8 FF FF  ........n.E.....
1660: 7F F8 FF FF 7F 73 30 31  31 01 80 01 D3 16 02 09  .....s011.......
1670: 10 12 80 00 8A 16 45 11  80 F8 FF FF 7F F8 FF FF  ......E.........
1680: 7F 73 30 31 38 01 80 01  D3 16 02 09 10 13 80 00  .s018...........
1690: A6 16 45 11 80 F8 FF FF  7F F8 FF FF 7F 73 30 31  ..E..........s01
16A0: 38 01 80 01 D3 16 02 09  10 14 80 00 C2 16 45 11  8.............E.
16B0: 80 F8 FF FF 7F F8 FF FF  7F 73 30 31 31 01 80 01  .........s011...
16C0: D3 16 45 11 80 F8 FF FF  7F F8 FF FF 7F 73 30 30  ..E..........s00
16D0: 33 01 80 2B 25 B0 0E 01  43 80 23 2B 25 B0 0E 01  3..+%...C.#+%...
16E0: 44 80 23 02 09 10 10 80  00 FD 16 52 11 80 F8 FF  D.#........R....
16F0: FF 7F F8 FF FF 7F 73 30  31 31 01 5A 17 02 09 10  ......s011.Z....
1700: 12 80 00 17 17 52 11 80  F8 FF FF 7F F8 FF FF 7F  .....R..........
1710: 73 30 31 38 01 5A 17 02  09 10 13 80 00 31 17 52  s018.Z.......1.R
1720: 11 80 F8 FF FF 7F F8 FF  FF 7F 73 30 31 38 01 5A  ..........s018.Z
1730: 17 02 09 10 14 80 00 4B  17 52 11 80 F8 FF FF 7F  .......K.R......
1740: F8 FF FF 7F 73 30 31 31  01 5A 17 52 11 80 F8 FF  ....s011.Z.R....
1750: FF 7F F8 FF FF 7F 73 30  30 33 45 11 80 F8 FF FF  ......s003E.....
1760: 7F F8 FF FF 7F 73 30 32  36 01 80 5B 16 80 25 B0  .....s026..[..%.
1770: 0E 01 25 B0 0E 01 74 6C  6B 31 2B 25 B0 0E 01 45  ..%...tlk1+%...E
1780: 80 23 2B 25 B0 0E 01 46  80 23 53 25 B0 0E 01 25  .#+%...F.#S%...%
1790: B0 0E 01 74 6C 6B 31 52  11 80 F8 FF FF 7F F8 FF  ...tlk1R........
17A0: FF 7F 73 30 32 36 02 09  10 12 80 00 C2 17 45 11  ..s026........E.
17B0: 80 F8 FF FF 7F F8 FF FF  7F 73 30 31 39 01 80 01  .........s019...
17C0: 0B 18 02 09 10 13 80 00  DE 17 45 11 80 F8 FF FF  ..........E.....
17D0: 7F F8 FF FF 7F 73 30 31  39 01 80 01 0B 18 02 09  .....s019.......
17E0: 10 14 80 00 FA 17 45 11  80 F8 FF FF 7F F8 FF FF  ......E.........
17F0: 7F 73 30 31 32 01 80 01  0B 18 45 11 80 F8 FF FF  .s012.....E.....
1800: 7F F8 FF FF 7F 73 30 30  34 01 80 5B 16 80 25 B0  .....s004..[..%.
1810: 0E 01 25 B0 0E 01 74 68  6B 31 2B 25 B0 0E 01 47  ..%...thk1+%...G
1820: 80 23 2B 25 B0 0E 01 48  80 23 53 25 B0 0E 01 25  .#+%...H.#S%...%
1830: B0 0E 01 74 68 6B 31 5B  16 80 25 B0 0E 01 25 B0  ...thk1[..%...%.
1840: 0E 01 74 68 6B 32 2B 25  B0 0E 01 49 80 23 02 09  ..thk2+%...I.#..
1850: 10 12 80 00 68 18 52 11  80 F8 FF FF 7F F8 FF FF  ....h.R.........
1860: 7F 73 30 31 39 01 AB 18  02 09 10 13 80 00 82 18  .s019...........
1870: 52 11 80 F8 FF FF 7F F8  FF FF 7F 73 30 31 39 01  R..........s019.
1880: AB 18 02 09 10 14 80 00  9C 18 52 11 80 F8 FF FF  ..........R.....
1890: 7F F8 FF FF 7F 73 30 31  32 01 AB 18 52 11 80 F8  .....s012...R...
18A0: FF FF 7F F8 FF FF 7F 73  30 30 34 02 09 10 12 80  .......s004.....
18B0: 00 C7 18 45 11 80 F8 FF  FF 7F F8 FF FF 7F 73 30  ...E..........s0
18C0: 32 33 01 80 01 F4 18 02  09 10 13 80 00 E3 18 45  23.............E
18D0: 11 80 F8 FF FF 7F F8 FF  FF 7F 73 30 32 33 01 80  ..........s023..
18E0: 01 F4 18 45 11 80 F8 FF  FF 7F F8 FF FF 7F 73 30  ...E..........s0
18F0: 31 30 01 80 2B 25 B0 0E  01 4A 80 23 53 25 B0 0E  10..+%...J.#S%..
1900: 01 25 B0 0E 01 74 68 6B  32 5B 16 80 25 B0 0E 01  .%...thk2[..%...
1910: 25 B0 0E 01 74 6C 6B 30  2B 25 B0 0E 01 4B 80 23  %...tlk0+%...K.#
1920: 02 09 10 12 80 00 3A 19  52 11 80 F8 FF FF 7F F8  ......:.R.......
1930: FF FF 7F 73 30 32 33 01  63 19 02 09 10 13 80 00  ...s023.c.......
1940: 54 19 52 11 80 F8 FF FF  7F F8 FF FF 7F 73 30 32  T.R..........s02
1950: 33 01 63 19 52 11 80 F8  FF FF 7F F8 FF FF 7F 73  3.c.R..........s
1960: 30 31 30 45 11 80 F8 FF  FF 7F F8 FF FF 7F 73 30  010E..........s0
1970: 32 37 01 80 2B 25 B0 0E  01 4C 80 23 53 25 B0 0E  27..+%...L.#S%..
1980: 01 25 B0 0E 01 74 6C 6B  30 52 11 80 F8 FF FF 7F  .%...tlk0R......
1990: F8 FF FF 7F 73 30 32 37  03 01 00 00 10 01 87 13  ....s027........
19A0: 01 03 1C 02 00 10 05 80  00 FB 1B 79 00 25 B0 0E  ...........y.%..
19B0: 01 F0 FF FF 7F 45 11 80  F8 FF FF 7F F8 FF FF 7F  .....E..........
19C0: 73 30 30 30 01 80 6C F0  FF FF 7F 01 80 03 80 29  s000..l........)
19D0: 0F 25 B0 0E 01 11 5B 16  80 25 B0 0E 01 25 B0 0E  .%....[..%...%..
19E0: 01 74 6C 6B 31 2B 25 B0  0E 01 4D 80 23 53 25 B0  .tlk1+%...M.#S%.
19F0: 0E 01 25 B0 0E 01 74 6C  6B 31 52 11 80 F8 FF FF  ..%...tlk1R.....
1A00: 7F F8 FF FF 7F 73 30 30  30 03 01 00 00 10 03 02  .....s000.......
1A10: 00 01 80 24 4E 80 02 00  01 80 25 02 00 10 12 80  ...$N.....%.....
1A20: 00 2E 1A 03 01 10 01 80  01 B0 20 01 2E 1A 03 02  .......... .....
1A30: 00 00 10 03 02 10 02 00  2B 25 B0 0E 01 4F 80 23  ........+%...O.#
1A40: 24 50 80 03 80 01 80 25  02 00 10 01 80 00 EA 1B  $P.....%........
1A50: 03 02 10 02 00 02 09 10  10 80 00 71 1A 45 11 80  ...........q.E..
1A60: F8 FF FF 7F F8 FF FF 7F  73 30 31 34 01 80 01 D6  ........s014....
1A70: 1A 02 09 10 12 80 00 8D  1A 45 11 80 F8 FF FF 7F  .........E......
1A80: F8 FF FF 7F 73 30 32 31  01 80 01 D6 1A 02 09 10  ....s021........
1A90: 13 80 00 A9 1A 45 11 80  F8 FF FF 7F F8 FF FF 7F  .....E..........
1AA0: 73 30 32 31 01 80 01 D6  1A 02 09 10 14 80 00 C5  s021............
1AB0: 1A 45 11 80 F8 FF FF 7F  F8 FF FF 7F 73 30 31 34  .E..........s014
1AC0: 01 80 01 D6 1A 45 11 80  F8 FF FF 7F F8 FF FF 7F  .....E..........
1AD0: 73 30 30 36 01 80 6C F0  FF FF 7F 19 80 03 80 29  s006..l........)
1AE0: 0F 25 B0 0E 01 12 6E F0  FF FF 7F 28 80 99 F0 FF  .%....n....(....
1AF0: FF 7F 1C 06 80 5B 16 80  25 B0 0E 01 25 B0 0E 01  .....[..%...%...
1B00: 74 6C 6B 30 2B 25 B0 0E  01 51 80 23 2B 25 B0 0E  tlk0+%...Q.#+%..
1B10: 01 52 80 23 53 25 B0 0E  01 25 B0 0E 01 74 6C 6B  .R.#S%...%...tlk
1B20: 30 02 09 10 10 80 00 3B  1B 52 11 80 F8 FF FF 7F  0......;.R......
1B30: F8 FF FF 7F 73 30 31 34  01 98 1B 02 09 10 12 80  ....s014........
1B40: 00 55 1B 52 11 80 F8 FF  FF 7F F8 FF FF 7F 73 30  .U.R..........s0
1B50: 32 31 01 98 1B 02 09 10  13 80 00 6F 1B 52 11 80  21.........o.R..
1B60: F8 FF FF 7F F8 FF FF 7F  73 30 32 31 01 98 1B 02  ........s021....
1B70: 09 10 14 80 00 89 1B 52  11 80 F8 FF FF 7F F8 FF  .......R........
1B80: FF 7F 73 30 31 34 01 98  1B 52 11 80 F8 FF FF 7F  ..s014...R......
1B90: F8 FF FF 7F 73 30 30 36  45 11 80 F8 FF FF 7F F8  ....s006E.......
1BA0: FF FF 7F 73 30 32 36 01  80 5B 16 80 25 B0 0E 01  ...s026..[..%...
1BB0: 25 B0 0E 01 74 6C 6B 31  2B 25 B0 0E 01 53 80 23  %...tlk1+%...S.#
1BC0: 53 25 B0 0E 01 25 B0 0E  01 74 6C 6B 31 52 11 80  S%...%...tlk1R..
1BD0: F8 FF FF 7F F8 FF FF 7F  73 30 32 36 03 01 10 02  ........s026....
1BE0: 00 0B 01 10 01 B0 20 01  F8 1B 02 00 10 03 80 00  ...... .........
1BF0: F8 1B 01 13 1A 01 F8 1B  01 03 1C 03 01 10 01 80  ................
1C00: 01 B0 20 01 B0 20 02 02  10 54 80 80 B0 20 5B 16  .. .. ...T... [.
1C10: 80 25 B0 0E 01 25 B0 0E  01 74 6C 6B 30 2B 25 B0  .%...%...tlk0+%.
1C20: 0E 01 55 80 23 2B 25 B0  0E 01 56 80 23 53 25 B0  ..U.#+%...V.#S%.
1C30: 0E 01 25 B0 0E 01 74 6C  6B 30 02 09 10 10 80 00  ..%...tlk0......
1C40: 54 1C 52 11 80 F8 FF FF  7F F8 FF FF 7F 73 30 31  T.R..........s01
1C50: 37 01 B1 1C 02 09 10 12  80 00 6E 1C 52 11 80 F8  7.........n.R...
1C60: FF FF 7F F8 FF FF 7F 73  30 32 34 01 B1 1C 02 09  .......s024.....
1C70: 10 13 80 00 88 1C 52 11  80 F8 FF FF 7F F8 FF FF  ......R.........
1C80: 7F 73 30 32 34 01 B1 1C  02 09 10 14 80 00 A2 1C  .s024...........
1C90: 52 11 80 F8 FF FF 7F F8  FF FF 7F 73 30 31 37 01  R..........s017.
1CA0: B1 1C 52 11 80 F8 FF FF  7F F8 FF FF 7F 73 30 30  ..R..........s00
1CB0: 31 03 01 00 01 80 24 57  80 01 80 01 80 25 02 00  1.....$W.....%..
1CC0: 10 01 80 00 9B 1E 03 01  00 00 10 45 11 80 F8 FF  ...........E....
1CD0: FF 7F F8 FF FF 7F 73 30  30 30 01 80 6C F0 FF FF  ......s000..l...
1CE0: 7F 01 80 03 80 29 0F 25  B0 0E 01 11 5B 16 80 25  .....).%....[..%
1CF0: B0 0E 01 25 B0 0E 01 74  6C 6B 31 2B 25 B0 0E 01  ...%...tlk1+%...
1D00: 58 80 23 2B 25 B0 0E 01  59 80 23 2B 25 B0 0E 01  X.#+%...Y.#+%...
1D10: 5A 80 23 53 25 B0 0E 01  25 B0 0E 01 74 6C 6B 31  Z.#S%...%...tlk1
1D20: 52 11 80 F8 FF FF 7F F8  FF FF 7F 73 30 30 30 02  R..........s000.
1D30: 09 10 10 80 00 4B 1D 45  11 80 F8 FF FF 7F F8 FF  .....K.E........
1D40: FF 7F 73 30 31 34 01 80  01 B0 1D 02 09 10 12 80  ..s014..........
1D50: 00 67 1D 45 11 80 F8 FF  FF 7F F8 FF FF 7F 73 30  .g.E..........s0
1D60: 32 31 01 80 01 B0 1D 02  09 10 13 80 00 83 1D 45  21.............E
1D70: 11 80 F8 FF FF 7F F8 FF  FF 7F 73 30 32 31 01 80  ..........s021..
1D80: 01 B0 1D 02 09 10 14 80  00 9F 1D 45 11 80 F8 FF  ...........E....
1D90: FF 7F F8 FF FF 7F 73 30  31 34 01 80 01 B0 1D 45  ......s014.....E
1DA0: 11 80 F8 FF FF 7F F8 FF  FF 7F 73 30 30 36 01 80  ..........s006..
1DB0: 6C F0 FF FF 7F 19 80 03  80 29 0F 25 B0 0E 01 12  l........).%....
1DC0: 5B 16 80 25 B0 0E 01 25  B0 0E 01 74 6C 6B 30 2B  [..%...%...tlk0+
1DD0: 25 B0 0E 01 5B 80 23 2B  25 B0 0E 01 5C 80 23 53  %...[.#+%...\.#S
1DE0: 25 B0 0E 01 25 B0 0E 01  74 6C 6B 30 02 09 10 10  %...%...tlk0....
1DF0: 80 00 06 1E 52 11 80 F8  FF FF 7F F8 FF FF 7F 73  ....R..........s
1E00: 30 31 34 01 63 1E 02 09  10 12 80 00 20 1E 52 11  014.c....... .R.
1E10: 80 F8 FF FF 7F F8 FF FF  7F 73 30 32 31 01 63 1E  .........s021.c.
1E20: 02 09 10 13 80 00 3A 1E  52 11 80 F8 FF FF 7F F8  ......:.R.......
1E30: FF FF 7F 73 30 32 31 01  63 1E 02 09 10 14 80 00  ...s021.c.......
1E40: 54 1E 52 11 80 F8 FF FF  7F F8 FF FF 7F 73 30 31  T.R..........s01
1E50: 34 01 63 1E 52 11 80 F8  FF FF 7F F8 FF FF 7F 73  4.c.R..........s
1E60: 30 30 36 45 11 80 F8 FF  FF 7F F8 FF FF 7F 73 30  006E..........s0
1E70: 32 37 01 80 2B 25 B0 0E  01 5D 80 23 52 11 80 F8  27..+%...].#R...
1E80: FF FF 7F F8 FF FF 7F 73  30 32 37 79 00 25 B0 0E  .......s027y.%..
1E90: 01 F0 FF FF 7F 01 B6 1C  01 AD 20 02 00 10 03 80  .......... .....
1EA0: 00 A5 20 03 02 10 03 10  0C 02 10 45 11 80 F8 FF  .. ........E....
1EB0: FF 7F F8 FF FF 7F 73 30  30 30 01 80 6C F0 FF FF  ......s000..l...
1EC0: 7F 01 80 03 80 29 0F 25  B0 0E 01 11 5B 16 80 25  .....).%....[..%
1ED0: B0 0E 01 25 B0 0E 01 74  6C 6B 31 2B 25 B0 0E 01  ...%...tlk1+%...
1EE0: 5E 80 23 53 25 B0 0E 01  25 B0 0E 01 74 6C 6B 31  ^.#S%...%...tlk1
1EF0: 52 11 80 F8 FF FF 7F F8  FF FF 7F 73 30 30 30 03  R..........s000.
1F00: 02 00 01 80 03 03 00 01  80 3C 03 00 02 10 03 80  .........<......
1F10: 24 5F 80 02 00 03 00 25  02 00 10 12 80 00 2B 1F  $_.....%......+.
1F20: 03 01 10 01 80 01 B0 20  01 2B 1F 03 02 00 00 10  ....... .+......
1F30: 03 02 10 02 00 2B 25 B0  0E 01 60 80 23 24 61 80  .....+%...`.#$a.
1F40: 03 80 01 80 25 02 00 10  01 80 00 94 20 03 02 10  ....%....... ...
1F50: 02 00 02 09 10 10 80 00  6E 1F 45 11 80 F8 FF FF  ........n.E.....
1F60: 7F F8 FF FF 7F 73 30 31  34 01 80 01 D3 1F 02 09  .....s014.......
1F70: 10 12 80 00 8A 1F 45 11  80 F8 FF FF 7F F8 FF FF  ......E.........
1F80: 7F 73 30 32 31 01 80 01  D3 1F 02 09 10 13 80 00  .s021...........
1F90: A6 1F 45 11 80 F8 FF FF  7F F8 FF FF 7F 73 30 32  ..E..........s02
1FA0: 31 01 80 01 D3 1F 02 09  10 14 80 00 C2 1F 45 11  1.............E.
1FB0: 80 F8 FF FF 7F F8 FF FF  7F 73 30 31 34 01 80 01  .........s014...
1FC0: D3 1F 45 11 80 F8 FF FF  7F F8 FF FF 7F 73 30 30  ..E..........s00
1FD0: 36 01 80 6C F0 FF FF 7F  19 80 03 80 29 0F 25 B0  6..l........).%.
1FE0: 0E 01 12 5B 16 80 25 B0  0E 01 25 B0 0E 01 74 6C  ...[..%...%...tl
1FF0: 6B 30 2B 25 B0 0E 01 62  80 23 2B 25 B0 0E 01 63  k0+%...b.#+%...c
2000: 80 23 53 25 B0 0E 01 25  B0 0E 01 74 6C 6B 30 02  .#S%...%...tlk0.
2010: 09 10 10 80 00 29 20 52  11 80 F8 FF FF 7F F8 FF  .....) R........
2020: FF 7F 73 30 31 34 01 86  20 02 09 10 12 80 00 43  ..s014.. ......C
2030: 20 52 11 80 F8 FF FF 7F  F8 FF FF 7F 73 30 32 31   R..........s021
2040: 01 86 20 02 09 10 13 80  00 5D 20 52 11 80 F8 FF  .. ......] R....
2050: FF 7F F8 FF FF 7F 73 30  32 31 01 86 20 02 09 10  ......s021.. ...
2060: 14 80 00 77 20 52 11 80  F8 FF FF 7F F8 FF FF 7F  ...w R..........
2070: 73 30 31 34 01 86 20 52  11 80 F8 FF FF 7F F8 FF  s014.. R........
2080: FF 7F 73 30 30 36 03 01  10 02 00 0B 01 10 01 B0  ..s006..........
2090: 20 01 A2 20 02 00 10 03  80 00 A2 20 01 10 1F 01   .. ....... ....
20A0: A2 20 01 AD 20 03 01 10  01 80 01 B0 20 01 B0 20  . .. ....... .. 
20B0: 1A 64 00 1C 35 80 6C F0  FF FF 7F 19 80 03 80 AB  .d..5.l.........
20C0: 11 01 80 1C 03 80 46 00  45 00 80 F8 FF FF 7F F8  ......F.E.......
20D0: FF FF 7F 66 64 69 32 01  80 21 00                 ...fdi2..!.     
```

#### Opcodes

```
  0: 0x11FD [0x42] SET_CLI_EVENT_CANCEL_DATA()
  1: 0x11FE [0x1A] CALL_SUBROUTINE(address=0x0064)
  2: 0x1201 [0x46] CAMERA_CONTROL: Disable user control
  3: 0x1203 [0x38] SET_CLIENT_EVENT_MODE(mode=147*)
  4: 0x1206 [0x94] Brygid (ID: 17739813/0x010EB025)->Render.Flags3 ^= 0x01
  5: 0x120C [0x94] LocalPlayer->Render.Flags3 ^= 0x01
  6: 0x1212 [0xBA] SET_ENTITY_POSITION(entity_id=LocalPlayer, pos_x=-88.936*, pos_z=-107.926*, pos_y=-4.328*, direction=156.7°*)
  7: 0x121F [0x80] LOAD_WAIT(entity=Brygid (ID: 17739813/0x010EB025))
  8: 0x1224 [0x80] LOAD_WAIT(entity=LocalPlayer)
  9: 0x1229 [0x4A] LocalPlayer looks at Brygid (ID: 17739813/0x010EB025)
 10: 0x1232 [0x4A] Brygid (ID: 17739813/0x010EB025) looks at LocalPlayer
 11: 0x123B [0x6F] WAIT_FRAME_DELAY: Yield until WaitTime reaches zero
 12: 0x123C [0x76] CHECK_ENTITY_RENDER_FLAGS: Wait until LocalPlayer Render.Flags0 and Render.Flags3 conditions are met
 13: 0x1241 [0x6F] WAIT_FRAME_DELAY: Yield until WaitTime reaches zero
 14: 0x1242 [0x76] CHECK_ENTITY_RENDER_FLAGS: Wait until Brygid (ID: 17739813/0x010EB025) Render.Flags0 and Render.Flags3 conditions are met
 15: 0x1247 [0x29] REQ_SET_WAIT(priority=0x0F, entity_id=LocalPlayer, tag_num=0x43)
 16: 0x124E [0x02] IF !(Work_Zone[9] == 3*) GOTO 0x126A
 17: 0x1256 [0x45] LOAD_SCHEDULED_TASK: Load scheduler "s017" with entities [EventEntity, EventEntity], work=[831*, 0*]
 18: 0x1267 [0x01] GOTO 0x12CF
 19: 0x126A [0x02] IF !(Work_Zone[9] == 5*) GOTO 0x1286
 20: 0x1272 [0x45] LOAD_SCHEDULED_TASK: Load scheduler "s024" with entities [EventEntity, EventEntity], work=[831*, 0*]
 21: 0x1283 [0x01] GOTO 0x12CF
 22: 0x1286 [0x02] IF !(Work_Zone[9] == 6*) GOTO 0x12A2
 23: 0x128E [0x45] LOAD_SCHEDULED_TASK: Load scheduler "s024" with entities [EventEntity, EventEntity], work=[831*, 0*]
 24: 0x129F [0x01] GOTO 0x12CF
 25: 0x12A2 [0x02] IF !(Work_Zone[9] == 8*) GOTO 0x12BE
 26: 0x12AA [0x45] LOAD_SCHEDULED_TASK: Load scheduler "s017" with entities [EventEntity, EventEntity], work=[831*, 0*]
 27: 0x12BB [0x01] GOTO 0x12CF
 28: 0x12BE [0x45] LOAD_SCHEDULED_TASK: Load scheduler "s001" with entities [EventEntity, EventEntity], work=[831*, 0*]

SUBROUTINE_12CF:
 29: 0x12CF [0x1A] CALL_SUBROUTINE(address=0x0043)
 30: 0x12D2 [0x03] Work_Zone[1] = 0*
 31: 0x12D7 [0x02] IF !(Work_Zone[2] == 122*) GOTO 0x1C06
 32: 0x12DF [0x5B] LOAD_EXT_SCHEDULER: Load scheduler "tlk0" with entities [Brygid (ID: 17739813/0x010EB025), Brygid (ID: 17739813/0x010EB025)], work=80*
 33: 0x12EE [0x2B] Brygid (ID: 17739813/0x010EB025) [15215*]:
    → "This costume show is going to be the talk of the town for months, and here's how it's going to work."
 34: 0x12F5 [0x23] WAIT_FOR_DIALOG_INTERACTION
 35: 0x12F6 [0x2B] Brygid (ID: 17739813/0x010EB025) [15216*]:
    → "If you listen to my explanation well and decide on someone spectacular to dress as, there's no way anything'll go wrong!"
 36: 0x12FD [0x23] WAIT_FOR_DIALOG_INTERACTION
 37: 0x12FE [0x53] WAIT_SCHEDULER_TASK: Wait for scheduler "tlk0" with entities [Brygid (ID: 17739813/0x010EB025), Brygid (ID: 17739813/0x010EB025)]
 38: 0x130B [0x02] IF !(Work_Zone[9] == 3*) GOTO 0x1325
 39: 0x1313 [0x52] END_LOAD_SCHEDULER: End scheduler "s017" with entities [EventEntity, EventEntity], work=831*
 40: 0x1322 [0x01] GOTO 0x1382
 41: 0x1325 [0x02] IF !(Work_Zone[9] == 5*) GOTO 0x133F
 42: 0x132D [0x52] END_LOAD_SCHEDULER: End scheduler "s024" with entities [EventEntity, EventEntity], work=831*
 43: 0x133C [0x01] GOTO 0x1382
 44: 0x133F [0x02] IF !(Work_Zone[9] == 6*) GOTO 0x1359
 45: 0x1347 [0x52] END_LOAD_SCHEDULER: End scheduler "s024" with entities [EventEntity, EventEntity], work=831*
 46: 0x1356 [0x01] GOTO 0x1382
 47: 0x1359 [0x02] IF !(Work_Zone[9] == 8*) GOTO 0x1373
 48: 0x1361 [0x52] END_LOAD_SCHEDULER: End scheduler "s017" with entities [EventEntity, EventEntity], work=831*
 49: 0x1370 [0x01] GOTO 0x1382
 50: 0x1373 [0x52] END_LOAD_SCHEDULER: End scheduler "s001" with entities [EventEntity, EventEntity], work=831*

SUBROUTINE_1382:
 51: 0x1382 [0x03] ExtData[1]->WorkLocal[1] = 0*

SUBROUTINE_1387:
 52: 0x1387 [0x24] CREATE_DIALOG(message_id=15217*, default_option=ExtData[1]->WorkLocal[1], option_flags=0*)
    → "Any questions? [What's this costume show about?/Who can I dress as?/I've decided!/Nothing for now.]"
 53: 0x138E [0x25] WAIT_DIALOG_SELECT()
 54: 0x138F [0x02] IF !(Work_Zone[0] == 0*) GOTO 0x1640
 55: 0x1397 [0x45] LOAD_SCHEDULED_TASK: Load scheduler "s000" with entities [EventEntity, EventEntity], work=[831*, 0*]
 56: 0x13A8 [0x6C] FADE_ENTITY_COLOR(entity_id=LocalPlayer, end_alpha=0*, fade_time=1*)
 57: 0x13B1 [0x79] Brygid (ID: 17739813/0x010EB025) looks at LocalPlayer (Basic look)
 58: 0x13BB [0x29] REQ_SET_WAIT(priority=0x0F, entity_id=Brygid (ID: 17739813/0x010EB025), tag_num=0x11)
 59: 0x13C2 [0x5B] LOAD_EXT_SCHEDULER: Load scheduler "tlk1" with entities [Brygid (ID: 17739813/0x010EB025), Brygid (ID: 17739813/0x010EB025)], work=80*
 60: 0x13D1 [0x2B] Brygid (ID: 17739813/0x010EB025) [15218*]:
    → "In this costume show, you select a person whose appearance you want to mimic and dress up just like them."
 61: 0x13D8 [0x23] WAIT_FOR_DIALOG_INTERACTION
 62: 0x13D9 [0x2B] Brygid (ID: 17739813/0x010EB025) [15219*]:
    → "Since the show takes place in Bastok, it only makes sense for you to pick one of the city's many storied personages."
 63: 0x13E0 [0x23] WAIT_FOR_DIALOG_INTERACTION
 64: 0x13E1 [0x53] WAIT_SCHEDULER_TASK: Wait for scheduler "tlk1" with entities [Brygid (ID: 17739813/0x010EB025), Brygid (ID: 17739813/0x010EB025)]
 65: 0x13EE [0x52] END_LOAD_SCHEDULER: End scheduler "s000" with entities [EventEntity, EventEntity], work=831*
 66: 0x13FD [0x6C] FADE_ENTITY_COLOR(entity_id=LocalPlayer, end_alpha=128*, fade_time=1*)
 67: 0x1406 [0x29] REQ_SET_WAIT(priority=0x0F, entity_id=Brygid (ID: 17739813/0x010EB025), tag_num=0x12)
 68: 0x140D [0x02] IF !(Work_Zone[9] == 3*) GOTO 0x1429
 69: 0x1415 [0x45] LOAD_SCHEDULED_TASK: Load scheduler "s014" with entities [EventEntity, EventEntity], work=[831*, 0*]
 70: 0x1426 [0x01] GOTO 0x148E
 71: 0x1429 [0x02] IF !(Work_Zone[9] == 5*) GOTO 0x1445
 72: 0x1431 [0x45] LOAD_SCHEDULED_TASK: Load scheduler "s021" with entities [EventEntity, EventEntity], work=[831*, 0*]
 73: 0x1442 [0x01] GOTO 0x148E
 74: 0x1445 [0x02] IF !(Work_Zone[9] == 6*) GOTO 0x1461
 75: 0x144D [0x45] LOAD_SCHEDULED_TASK: Load scheduler "s021" with entities [EventEntity, EventEntity], work=[831*, 0*]
 76: 0x145E [0x01] GOTO 0x148E
 77: 0x1461 [0x02] IF !(Work_Zone[9] == 8*) GOTO 0x147D
 78: 0x1469 [0x45] LOAD_SCHEDULED_TASK: Load scheduler "s014" with entities [EventEntity, EventEntity], work=[831*, 0*]
 79: 0x147A [0x01] GOTO 0x148E
 80: 0x147D [0x45] LOAD_SCHEDULED_TASK: Load scheduler "s006" with entities [EventEntity, EventEntity], work=[831*, 0*]

SUBROUTINE_148E:
 81: 0x148E [0x5B] LOAD_EXT_SCHEDULER: Load scheduler "tlk0" with entities [Brygid (ID: 17739813/0x010EB025), Brygid (ID: 17739813/0x010EB025)], work=80*
 82: 0x149D [0x2B] Brygid (ID: 17739813/0x010EB025) [15220*]:
    → "Once you've picked a mark...I mean, a person...you need to look very carefully at what they're wearing and try to come up with an identical outfit."
 83: 0x14A4 [0x23] WAIT_FOR_DIALOG_INTERACTION
 84: 0x14A5 [0x2B] Brygid (ID: 17739813/0x010EB025) [15221*]:
    → "Specifically, take a look at their headgear, chestgear, handgear, leggear, and footwear. You don't have to worry about their weapons or accessories."
 85: 0x14AC [0x23] WAIT_FOR_DIALOG_INTERACTION
 86: 0x14AD [0x53] WAIT_SCHEDULER_TASK: Wait for scheduler "tlk0" with entities [Brygid (ID: 17739813/0x010EB025), Brygid (ID: 17739813/0x010EB025)]
 87: 0x14BA [0x02] IF !(Work_Zone[9] == 3*) GOTO 0x14D4
 88: 0x14C2 [0x52] END_LOAD_SCHEDULER: End scheduler "s014" with entities [EventEntity, EventEntity], work=831*
 89: 0x14D1 [0x01] GOTO 0x1531
 90: 0x14D4 [0x02] IF !(Work_Zone[9] == 5*) GOTO 0x14EE
 91: 0x14DC [0x52] END_LOAD_SCHEDULER: End scheduler "s021" with entities [EventEntity, EventEntity], work=831*
 92: 0x14EB [0x01] GOTO 0x1531
 93: 0x14EE [0x02] IF !(Work_Zone[9] == 6*) GOTO 0x1508
 94: 0x14F6 [0x52] END_LOAD_SCHEDULER: End scheduler "s021" with entities [EventEntity, EventEntity], work=831*
 95: 0x1505 [0x01] GOTO 0x1531
 96: 0x1508 [0x02] IF !(Work_Zone[9] == 8*) GOTO 0x1522
 97: 0x1510 [0x52] END_LOAD_SCHEDULER: End scheduler "s014" with entities [EventEntity, EventEntity], work=831*
 98: 0x151F [0x01] GOTO 0x1531
 99: 0x1522 [0x52] END_LOAD_SCHEDULER: End scheduler "s006" with entities [EventEntity, EventEntity], work=831*

SUBROUTINE_1531:
100: 0x1531 [0x45] LOAD_SCHEDULED_TASK: Load scheduler "s026" with entities [EventEntity, EventEntity], work=[831*, 0*]
101: 0x1542 [0x5B] LOAD_EXT_SCHEDULER: Load scheduler "tlk1" with entities [Brygid (ID: 17739813/0x010EB025), Brygid (ID: 17739813/0x010EB025)], work=80*
102: 0x1551 [0x2B] Brygid (ID: 17739813/0x010EB025) [15222*]:
    → "Once you've got your garb nice and squared away, put it on and head to the Steaming Sheep restaurant."
103: 0x1558 [0x23] WAIT_FOR_DIALOG_INTERACTION
104: 0x1559 [0x2B] Brygid (ID: 17739813/0x010EB025) [15223*]:
    → "That's where my special runway awaits, needing only for you to stand atop it and strike a dashing pose."
105: 0x1560 [0x23] WAIT_FOR_DIALOG_INTERACTION
106: 0x1561 [0x53] WAIT_SCHEDULER_TASK: Wait for scheduler "tlk1" with entities [Brygid (ID: 17739813/0x010EB025), Brygid (ID: 17739813/0x010EB025)]
107: 0x156E [0x52] END_LOAD_SCHEDULER: End scheduler "s026" with entities [EventEntity, EventEntity], work=831*
108: 0x157D [0x02] IF !(Work_Zone[9] == 5*) GOTO 0x1599
109: 0x1585 [0x45] LOAD_SCHEDULED_TASK: Load scheduler "s023" with entities [EventEntity, EventEntity], work=[831*, 0*]
110: 0x1596 [0x01] GOTO 0x15C6
111: 0x1599 [0x02] IF !(Work_Zone[9] == 6*) GOTO 0x15B5
112: 0x15A1 [0x45] LOAD_SCHEDULED_TASK: Load scheduler "s023" with entities [EventEntity, EventEntity], work=[831*, 0*]
113: 0x15B2 [0x01] GOTO 0x15C6
114: 0x15B5 [0x45] LOAD_SCHEDULED_TASK: Load scheduler "s010" with entities [EventEntity, EventEntity], work=[831*, 0*]

SUBROUTINE_15C6:
115: 0x15C6 [0x5B] LOAD_EXT_SCHEDULER: Load scheduler "tlk0" with entities [Brygid (ID: 17739813/0x010EB025), Brygid (ID: 17739813/0x010EB025)], work=80*
116: 0x15D5 [0x2B] Brygid (ID: 17739813/0x010EB025) [15224*]:
