# 17740005 - Moogle

## Common Data

| Field            | Value                    |
|------------------|--------------------------|
| Zone             | Bastok Markets (ID: 235) |
| Block Size       | 164 bytes                |
| Total Events     | 2                        |
| References Count | 9                        |

## List of Events

| Event ID              | Entrypoint   |   Size |   Instructions |
|-----------------------|--------------|--------|----------------|
| [65535](#event-65535) | 0x0000       |      1 |              1 |
| [467](#event-467)     | 0x0001       |    101 |             28 |

## DAT References (imed_data)

|   Index | Hex Value   |   Dec Value |
|---------|-------------|-------------|
|       0 | 0x0000      |           0 |
|       1 | 0x207C      |        8316 |
|       2 | 0x0001      |           1 |
|       3 | 0x2079      |        8313 |
|       4 | 0x0002      |           2 |
|       5 | 0x2088      |        8328 |
|       6 | 0x0003      |           3 |
|       7 | 0x208A      |        8330 |
|       8 | 0x208B      |        8331 |

## String References

- **8313**: It's time for the Egg Hunt Egg-stravaganza, kupo! Here, take this "initial egg." Collect and trade eggs until you have made a "First 3" combination. When you're done, bring the combo back to me for an egg-squisite prize, kupo!
- **8316**: When you've gathered a "First 3" combination, bring the eggs back to me! Also, if you want, I can trade you more initial eggs, but you'll have to make it worth my while, kupo!
- **8328**: Hey, you look new here, kupo! If you need anything, just let me know!
- **8330**: And, because you're [as cool as egg salad/as hot as a fried egg, sunny-side up], I'm going to give you a super-duper present, kupo!
- **8331**: Take any one you want! [An "A" egg./A "B" egg./A "C" egg./A "D" egg./An "E" egg./An "F" egg./A "G" egg./An "H" egg./An "I" egg./A "J" egg./A "K" egg./An "L" egg./An "M" egg./An "N" egg./An "O" egg./A "P" egg./A "Q" egg./An "R" egg./An "S" egg./A "T" egg./A "U" egg./A "V" egg./A "W" egg./An "X" egg./A "Y" egg./A "Z" egg./Forget it.]

## Events

### Event 65535

#### Metadata

| Field        | Value   |
|--------------|---------|
| Entrypoint   | 0x0000  |
| Data Size    | 1 bytes |
| Instructions | 1       |

```
      00 01 02 03 04 05 06 07  08 09 0A 0B 0C 0D 0E 0F
      -- -- -- -- -- -- -- --  -- -- -- -- -- -- -- --
0000: 00                                                .               
```

#### Opcodes

```
  0: 0x0000 [0x00] END_REQSTACK()
```

### Event 467

#### Metadata

| Field        | Value     |
|--------------|-----------|
| Entrypoint   | 0x0001    |
| Data Size    | 101 bytes |
| Instructions | 28        |

```
      00 01 02 03 04 05 06 07  08 09 0A 0B 0C 0D 0E 0F
      -- -- -- -- -- -- -- --  -- -- -- -- -- -- -- --
0000:    42 1E F0 FF FF 7F 02  02 10 00 80 80 16 00 1D   B..............
0010: 01 80 23 01 5F 00 02 02  10 02 80 80 25 00 1D 03  ..#._.......%...
0020: 80 23 01 5F 00 02 02 10  04 80 80 34 00 1D 05 80  .#._.......4....
0030: 23 01 5F 00 02 02 10 06  80 80 5F 00 1D 03 80 23  #._......._....#
0040: 1D 07 80 23 24 08 80 00  80 03 10 25 02 00 10 00  ...#$......%....
0050: 80 00 57 00 01 57 00 07  02 10 00 10 01 5F 00 03  ..W..W......._..
0060: 01 10 02 10 21 00                                 ....!.          
```

#### Opcodes

```
  0: 0x0001 [0x42] SET_CLI_EVENT_CANCEL_DATA()
  1: 0x0002 [0x1E] EventEntity looks at LocalPlayer and starts talking
  2: 0x0007 [0x02] IF !(Work_Zone[2] == 0*) GOTO 0x0016
  3: 0x000F [0x1D] PRINT_EVENT_MESSAGE(message_id=8316*)
    → "When you've gathered a "First 3" combination, bring the eggs back to me! Also, if you want, I can trade you more initial eggs, but you'll have to make it worth my while, kupo!"
  4: 0x0012 [0x23] WAIT_FOR_DIALOG_INTERACTION
  5: 0x0013 [0x01] GOTO 0x005F
  6: 0x0016 [0x02] IF !(Work_Zone[2] == 1*) GOTO 0x0025
  7: 0x001E [0x1D] PRINT_EVENT_MESSAGE(message_id=8313*)
    → "It's time for the Egg Hunt Egg-stravaganza, kupo! Here, take this "initial egg." Collect and trade eggs until you have made a "First 3" combination. When you're done, bring the combo back to me for an egg-squisite prize, kupo!"
  8: 0x0021 [0x23] WAIT_FOR_DIALOG_INTERACTION
  9: 0x0022 [0x01] GOTO 0x005F
 10: 0x0025 [0x02] IF !(Work_Zone[2] == 2*) GOTO 0x0034
 11: 0x002D [0x1D] PRINT_EVENT_MESSAGE(message_id=8328*)
    → "Hey, you look new here, kupo! If you need anything, just let me know!"
 12: 0x0030 [0x23] WAIT_FOR_DIALOG_INTERACTION
 13: 0x0031 [0x01] GOTO 0x005F
 14: 0x0034 [0x02] IF !(Work_Zone[2] == 3*) GOTO 0x005F
 15: 0x003C [0x1D] PRINT_EVENT_MESSAGE(message_id=8313*)
    → "It's time for the Egg Hunt Egg-stravaganza, kupo! Here, take this "initial egg." Collect and trade eggs until you have made a "First 3" combination. When you're done, bring the combo back to me for an egg-squisite prize, kupo!"
 16: 0x003F [0x23] WAIT_FOR_DIALOG_INTERACTION
 17: 0x0040 [0x1D] PRINT_EVENT_MESSAGE(message_id=8330*)
    → "And, because you're [as cool as egg salad/as hot as a fried egg, sunny-side up], I'm going to give you a super-duper present, kupo!"
 18: 0x0043 [0x23] WAIT_FOR_DIALOG_INTERACTION
 19: 0x0044 [0x24] CREATE_DIALOG(message_id=8331*, default_option=0*, option_flags=Work_Zone[3])
    → "Take any one you want! [An "A" egg./A "B" egg./A "C" egg./A "D" egg./An "E" egg./An "F" egg./A "G" egg./An "H" egg./An "I" egg./A "J" egg./A "K" egg./An "L" egg./An "M" egg./An "N" egg./An "O" egg./A "P" egg./A "Q" egg./An "R" egg./An "S" egg./A "T" egg./A "U" egg./A "V" egg./A "W" egg./An "X" egg./A "Y" egg./A "Z" egg./Forget it.]"
 20: 0x004B [0x25] WAIT_DIALOG_SELECT()
 21: 0x004C [0x02] IF !(Work_Zone[0] == 0*) GOTO 0x0057
 22: 0x0054 [0x01] GOTO 0x0057

SUBROUTINE_0057:
 23: 0x0057 [0x07] Work_Zone[2] += Work_Zone[0]
 24: 0x005C [0x01] GOTO 0x005F

SUBROUTINE_005F:
 25: 0x005F [0x03] Work_Zone[1] = Work_Zone[2]
 26: 0x0064 [0x21] END_EVENT
 27: 0x0065 [0x00] END_REQSTACK()
```
