# 17740130 - Moogle

## Common Data

| Field            | Value                    |
|------------------|--------------------------|
| Zone             | Bastok Markets (ID: 235) |
| Block Size       | 5888 bytes               |
| Total Events     | 7                        |
| References Count | 123                      |

## List of Events

| Event ID              | Entrypoint   |   Size |   Instructions |
|-----------------------|--------------|--------|----------------|
| [65535](#event-65535) | 0x0000       |      1 |              1 |
| [513](#event-513)     | 0x0001       |     58 |             24 |
| [516](#event-516)     | 0x003B       |     87 |             29 |
| [514](#event-514)     | 0x0092       |     20 |             10 |
| [30](#event-30)       | 0x00A6       |     32 |             13 |
| [591](#event-591)     | 0x00C6       |   3195 |            397 |
| [611](#event-611)     | 0x0D41       |   1959 |            249 |

## DAT References (imed_data)

|   Index | Hex Value   |   Dec Value |
|---------|-------------|-------------|
|       0 | 0x0000      |           0 |
|       1 | 0x0002      |           2 |
|       2 | 0x30C6      |       12486 |
|       3 | 0x2220      |        8736 |
|       4 | 0x30C0      |       12480 |
|       5 | 0x2222      |        8738 |
|       6 | 0x2223      |        8739 |
|       7 | 0x30C1      |       12481 |
|       8 | 0x30C2      |       12482 |
|       9 | 0x2226      |        8742 |
|      10 | 0x30C3      |       12483 |
|      11 | 0x30C4      |       12484 |
|      12 | 0x30C7      |       12487 |
|      13 | 0x0001      |           1 |
|      14 | 0x30CC      |       12492 |
|      15 | 0x30CD      |       12493 |
|      16 | 0x0C51      |        3153 |
|      17 | 0x30C5      |       12485 |
|      18 | 0x30D0      |       12496 |
|      19 | 0x30D1      |       12497 |
|      20 | 0x30D2      |       12498 |
|      21 | 0x30CE      |       12494 |
|      22 | 0x30CF      |       12495 |
|      23 | 0x00C8      |         200 |
|      24 | 0x0013      |          19 |
|      25 | 0xFFFD1DD5  |  4294778325 |
|      26 | 0xFFFF8B05  |  4294937349 |
|      27 | 0xFFFFE0C0  |  4294959296 |
|      28 | 0xFFFFFC01  |  4294966273 |
|      29 | 0xFFFD125F  |  4294775391 |
|      30 | 0xFFFF743B  |  4294931515 |
|      31 | 0xFFFFFCC1  |  4294966465 |
|      32 | 0xFFFD2102  |  4294779138 |
|      33 | 0xFFFF83FA  |  4294935546 |
|      34 | 0xFFFFFAED  |  4294965997 |
|      35 | 0x001E      |          30 |
|      36 | 0x0280      |         640 |
|      37 | 0x0005      |           5 |
|      38 | 0x0006      |           6 |
|      39 | 0x0007      |           7 |
|      40 | 0x003C      |          60 |
|      41 | 0x229E      |        8862 |
|      42 | 0x005A      |          90 |
|      43 | 0x229F      |        8863 |
|      44 | 0x0078      |         120 |
|      45 | 0x002D      |          45 |
|      46 | 0x22A0      |        8864 |
|      47 | 0x000F      |          15 |
|      48 | 0x0095      |         149 |
|      49 | 0x009F      |         159 |
|      50 | 0x0003      |           3 |
|      51 | 0x00A9      |         169 |
|      52 | 0x0004      |           4 |
|      53 | 0x00B3      |         179 |
|      54 | 0x00BD      |         189 |
|      55 | 0x00C7      |         199 |
|      56 | 0x0008      |           8 |
|      57 | 0x00D1      |         209 |
|      58 | 0x000A      |          10 |
|      59 | 0x22A1      |        8865 |
|      60 | 0x22A2      |        8866 |
|      61 | 0x22A3      |        8867 |
|      62 | 0x22A4      |        8868 |
|      63 | 0x0016      |          22 |
|      64 | 0x22A5      |        8869 |
|      65 | 0x22A6      |        8870 |
|      66 | 0x00AE      |         174 |
|      67 | 0x00B0      |         176 |
|      68 | 0x00C9      |         201 |
|      69 | 0x00A3      |         163 |
|      70 | 0x00B1      |         177 |
|      71 | 0xFFFFDB15  |  4294957845 |
|      72 | 0x0042      |          66 |
|      73 | 0x22A7      |        8871 |
|      74 | 0x00B4      |         180 |
|      75 | 0x00F0      |         240 |
|      76 | 0x0010      |          16 |
|      77 | 0x22A8      |        8872 |
|      78 | 0x0015      |          21 |
|      79 | 0x0096      |         150 |
|      80 | 0x22A9      |        8873 |
|      81 | 0x0043      |          67 |
|      82 | 0x22AA      |        8874 |
|      83 | 0x00D2      |         210 |
|      84 | 0x0024      |          36 |
|      85 | 0x22AB      |        8875 |
|      86 | 0x000B      |          11 |
|      87 | 0x22AC      |        8876 |
|      88 | 0x22AD      |        8877 |
|      89 | 0x22AE      |        8878 |
|      90 | 0x0098      |         152 |
|      91 | 0xFFFD2182  |  4294779266 |
|      92 | 0xFFFF8980  |  4294936960 |
|      93 | 0xFFFD4389  |  4294787977 |
|      94 | 0xFFFF9068  |  4294938728 |
|      95 | 0xFFFFB1E0  |  4294947296 |
|      96 | 0xFFFD1A61  |  4294777441 |
|      97 | 0xFFFF836C  |  4294935404 |
|      98 | 0x0030      |          48 |
|      99 | 0x030B      |         779 |
|     100 | 0x228B      |        8843 |
|     101 | 0x228C      |        8844 |
|     102 | 0x228D      |        8845 |
|     103 | 0x228E      |        8846 |
|     104 | 0x228F      |        8847 |
|     105 | 0x000C      |          12 |
|     106 | 0x2290      |        8848 |
|     107 | 0x0106      |         262 |
|     108 | 0x0107      |         263 |
|     109 | 0x2291      |        8849 |
|     110 | 0x2292      |        8850 |
|     111 | 0x2293      |        8851 |
|     112 | 0x2294      |        8852 |
|     113 | 0x2295      |        8853 |
|     114 | 0x2296      |        8854 |
|     115 | 0x2297      |        8855 |
|     116 | 0x2298      |        8856 |
|     117 | 0x2299      |        8857 |
|     118 | 0x229A      |        8858 |
|     119 | 0x229B      |        8859 |
|     120 | 0x229C      |        8860 |
|     121 | 0x229D      |        8861 |
|     122 | 0x007F      |         127 |

## String References

- **8736**: This year's Sunbreeze Festival has begun! A special show is being held at the town square as we speak, kupo!
- **8738**: You, too, have a positively pivotal part to play in this classic battle between good and evil, kupo! Only with your boisterous backing can Mumor hope to claim victory over her determined opponent!
- **8739**: If all her fanatical fans' hearts were to beat as one, the tide of battle would surely turn in Mumor's favor, kupo!
- **8742**: And don't forget to check out the multifarious fun-filled festival games that've been set up in all three nations! Have fun, kupo!
- **8843**: Kupopo... Mumor's woeful one-woman wail split my skull in six!
- **8845**: M-Mumor! Don't worry! It's...nothing that practice couldn't fix, kupo.
- **8847**: How do you respond? [Different strokes for different folks!/Hey, you've got the looks!]
- **8862**: I've been waiting for you, kupo! Mumor, the shining starlet herself, has slunk her way onto the streets to see you!
- **12480**: In this most fantastic of shows, help the Mighty Maiden Mumor knock Uka Totlihn out of Ullegore's thrall!
- **12481**: When Mumor begins her dance, follow her lead and do the same dance at Uka to help shake her out of her stupor.
- **12482**: We'll be giving away a special prize to anyone who can help our Fantastic Fraulein rescue her dearest friend!
- **12483**: I heard from Mumor that you helped her defeat Ullegore! You have our heartfelt gratitude, kupo!
- **12484**: This is the prize we prepared for you. Come back and participate again anytime you want, kupo!
- **12485**: We've also procured something perfect for you in the form of $6, kupo!
- **12486**: The stage is set at Qu'Bia Arena! Enjoy this new additional event and receive something beyond your wildest dreams!
- **12487**: Wow! Your outstanding assistance makes you today's MVP!
- **12492**: Your tremendous trust and fantastic friendship showed that not even the devious Diva could break the bond between you and Mumor! Here--a ravishing reward for your efforts!
- **12493**: Kupopo? You need to have at least $0 free space[/s] in your inventory to receive your reward! Come back after sorting out your bags.
- **12494**: The magnificent Mumor mentioned your exciting exploits, kupo! Thanks for showing everyone a good time!
- **12495**: As promised, here's your extra-special reward!
- **12496**: Kupopo!? Did you get those three balloons by playing festival games!?
- **12497**: You completely cleared hard mode! That's incredible, kupo!
- **12498**: Your flair for all things festive is a fine example to us all! I bestow upon you this most excellent of exceptional prizes, kupo!

## Events

### Event 65535

#### Metadata

| Field        | Value   |
|--------------|---------|
| Entrypoint   | 0x0000  |
| Data Size    | 1 bytes |
| Instructions | 1       |

```
      00 01 02 03 04 05 06 07  08 09 0A 0B 0C 0D 0E 0F
      -- -- -- -- -- -- -- --  -- -- -- -- -- -- -- --
0000: 00                                                .               
```

#### Opcodes

```
  0: 0x0000 [0x00] END_REQSTACK()
```

### Event 513

#### Metadata

| Field        | Value    |
|--------------|----------|
| Entrypoint   | 0x0001   |
| Data Size    | 58 bytes |
| Instructions | 24       |

```
      00 01 02 03 04 05 06 07  08 09 0A 0B 0C 0D 0E 0F
      -- -- -- -- -- -- -- --  -- -- -- -- -- -- -- --
0000:    02 02 10 00 80 00 0A  00 42 1E F0 FF FF 7F 02   ........B......
0010: 02 10 01 80 00 1D 00 1D  02 80 23 21 00 1D 03 80  ..........#!....
0020: 23 1D 04 80 23 1D 05 80  23 1D 06 80 23 1D 07 80  #...#...#...#...
0030: 23 1D 08 80 23 1D 09 80  23 21 00                 #...#...#!.     
```

#### Opcodes

```
  0: 0x0001 [0x02] IF !(Work_Zone[2] == 0*) GOTO 0x000A
  1: 0x0009 [0x42] SET_CLI_EVENT_CANCEL_DATA()
  2: 0x000A [0x1E] EventEntity looks at LocalPlayer and starts talking
  3: 0x000F [0x02] IF !(Work_Zone[2] == 2*) GOTO 0x001D
  4: 0x0017 [0x1D] PRINT_EVENT_MESSAGE(message_id=12486*)
    → "The stage is set at Qu'Bia Arena! Enjoy this new additional event and receive something beyond your wildest dreams!"
  5: 0x001A [0x23] WAIT_FOR_DIALOG_INTERACTION
  6: 0x001B [0x21] END_EVENT
  7: 0x001C [0x00] END_REQSTACK()
  8: 0x001D [0x1D] PRINT_EVENT_MESSAGE(message_id=8736*)
    → "This year's Sunbreeze Festival has begun! A special show is being held at the town square as we speak, kupo!"
  9: 0x0020 [0x23] WAIT_FOR_DIALOG_INTERACTION
 10: 0x0021 [0x1D] PRINT_EVENT_MESSAGE(message_id=12480*)
    → "In this most fantastic of shows, help the Mighty Maiden Mumor knock Uka Totlihn out of Ullegore's thrall!"
 11: 0x0024 [0x23] WAIT_FOR_DIALOG_INTERACTION
 12: 0x0025 [0x1D] PRINT_EVENT_MESSAGE(message_id=8738*)
    → "You, too, have a positively pivotal part to play in this classic battle between good and evil, kupo! Only with your boisterous backing can Mumor hope to claim victory over her determined opponent!"
 13: 0x0028 [0x23] WAIT_FOR_DIALOG_INTERACTION
 14: 0x0029 [0x1D] PRINT_EVENT_MESSAGE(message_id=8739*)
    → "If all her fanatical fans' hearts were to beat as one, the tide of battle would surely turn in Mumor's favor, kupo!"
 15: 0x002C [0x23] WAIT_FOR_DIALOG_INTERACTION
 16: 0x002D [0x1D] PRINT_EVENT_MESSAGE(message_id=12481*)
    → "When Mumor begins her dance, follow her lead and do the same dance at Uka to help shake her out of her stupor."
 17: 0x0030 [0x23] WAIT_FOR_DIALOG_INTERACTION
 18: 0x0031 [0x1D] PRINT_EVENT_MESSAGE(message_id=12482*)
    → "We'll be giving away a special prize to anyone who can help our Fantastic Fraulein rescue her dearest friend!"
 19: 0x0034 [0x23] WAIT_FOR_DIALOG_INTERACTION
 20: 0x0035 [0x1D] PRINT_EVENT_MESSAGE(message_id=8742*)
    → "And don't forget to check out the multifarious fun-filled festival games that've been set up in all three nations! Have fun, kupo!"
 21: 0x0038 [0x23] WAIT_FOR_DIALOG_INTERACTION
 22: 0x0039 [0x21] END_EVENT
 23: 0x003A [0x00] END_REQSTACK()
```

### Event 516

#### Metadata

| Field        | Value    |
|--------------|----------|
| Entrypoint   | 0x003B   |
| Data Size    | 87 bytes |
| Instructions | 29       |

```
      00 01 02 03 04 05 06 07  08 09 0A 0B 0C 0D 0E 0F
      -- -- -- -- -- -- -- --  -- -- -- -- -- -- -- --
0030:                                   42 1E F0 FF FF             B....
0040: 7F 1D 0A 80 23 02 02 10  00 80 00 54 00 1D 0B 80  ....#......T....
0050: 23 01 6B 00 1D 0C 80 23  02 03 10 0D 80 00 67 00  #.k....#......g.
0060: 1D 0E 80 23 01 6B 00 1D  0B 80 23 43 00 43 01 02  ...#.k....#C.C..
0070: 02 10 00 80 02 7B 00 1D  0F 80 23 02 09 10 0D 80  .....{....#.....
0080: 00 90 00 03 02 10 10 80  1D 11 80 23 1D 02 80 23  ...........#...#
0090: 21 00                                             !.              
```

#### Opcodes

```
  0: 0x003B [0x42] SET_CLI_EVENT_CANCEL_DATA()
  1: 0x003C [0x1E] EventEntity looks at LocalPlayer and starts talking
  2: 0x0041 [0x1D] PRINT_EVENT_MESSAGE(message_id=12483*)
    → "I heard from Mumor that you helped her defeat Ullegore! You have our heartfelt gratitude, kupo!"
  3: 0x0044 [0x23] WAIT_FOR_DIALOG_INTERACTION
  4: 0x0045 [0x02] IF !(Work_Zone[2] == 0*) GOTO 0x0054
  5: 0x004D [0x1D] PRINT_EVENT_MESSAGE(message_id=12484*)
    → "This is the prize we prepared for you. Come back and participate again anytime you want, kupo!"
  6: 0x0050 [0x23] WAIT_FOR_DIALOG_INTERACTION
  7: 0x0051 [0x01] GOTO 0x006B
  8: 0x0054 [0x1D] PRINT_EVENT_MESSAGE(message_id=12487*)
    → "Wow! Your outstanding assistance makes you today's MVP!"
  9: 0x0057 [0x23] WAIT_FOR_DIALOG_INTERACTION
 10: 0x0058 [0x02] IF !(Work_Zone[3] == 1*) GOTO 0x0067
 11: 0x0060 [0x1D] PRINT_EVENT_MESSAGE(message_id=12492*)
    → "Your tremendous trust and fantastic friendship showed that not even the devious Diva could break the bond between you and Mumor! Here--a ravishing reward for your efforts!"
 12: 0x0063 [0x23] WAIT_FOR_DIALOG_INTERACTION
 13: 0x0064 [0x01] GOTO 0x006B
 14: 0x0067 [0x1D] PRINT_EVENT_MESSAGE(message_id=12484*)
    → "This is the prize we prepared for you. Come back and participate again anytime you want, kupo!"
 15: 0x006A [0x23] WAIT_FOR_DIALOG_INTERACTION

SUBROUTINE_006B:
 16: 0x006B [0x43] SEND_EVENT_UPDATE: Send pending tag to server (packet 0x005B)
 17: 0x006D [0x43] SEND_EVENT_UPDATE: Check pending flag (skip if not pending)
 18: 0x006F [0x02] IF !(Work_Zone[2] <= 0*) GOTO 0x007B
 19: 0x0077 [0x1D] PRINT_EVENT_MESSAGE(message_id=12493*)
    → "Kupopo? You need to have at least $0 free space[/s] in your inventory to receive your reward! Come back after sorting out your bags."
 20: 0x007A [0x23] WAIT_FOR_DIALOG_INTERACTION
 21: 0x007B [0x02] IF !(Work_Zone[9] == 1*) GOTO 0x0090
 22: 0x0083 [0x03] Work_Zone[2] = 3153*
 23: 0x0088 [0x1D] PRINT_EVENT_MESSAGE(message_id=12485*)
    → "We've also procured something perfect for you in the form of $6, kupo!"
 24: 0x008B [0x23] WAIT_FOR_DIALOG_INTERACTION
 25: 0x008C [0x1D] PRINT_EVENT_MESSAGE(message_id=12486*)
    → "The stage is set at Qu'Bia Arena! Enjoy this new additional event and receive something beyond your wildest dreams!"
 26: 0x008F [0x23] WAIT_FOR_DIALOG_INTERACTION
 27: 0x0090 [0x21] END_EVENT
 28: 0x0091 [0x00] END_REQSTACK()
```

### Event 514

#### Metadata

| Field        | Value    |
|--------------|----------|
| Entrypoint   | 0x0092   |
| Data Size    | 20 bytes |
| Instructions | 10       |

```
      00 01 02 03 04 05 06 07  08 09 0A 0B 0C 0D 0E 0F
      -- -- -- -- -- -- -- --  -- -- -- -- -- -- -- --
0090:       42 1E F0 FF FF 7F  1D 12 80 23 1D 13 80 23    B........#...#
00A0: 1D 14 80 23 21 00                                 ...#!.          
```

#### Opcodes

```
  0: 0x0092 [0x42] SET_CLI_EVENT_CANCEL_DATA()
  1: 0x0093 [0x1E] EventEntity looks at LocalPlayer and starts talking
  2: 0x0098 [0x1D] PRINT_EVENT_MESSAGE(message_id=12496*)
    → "Kupopo!? Did you get those three balloons by playing festival games!?"
  3: 0x009B [0x23] WAIT_FOR_DIALOG_INTERACTION
  4: 0x009C [0x1D] PRINT_EVENT_MESSAGE(message_id=12497*)
    → "You completely cleared hard mode! That's incredible, kupo!"
  5: 0x009F [0x23] WAIT_FOR_DIALOG_INTERACTION
  6: 0x00A0 [0x1D] PRINT_EVENT_MESSAGE(message_id=12498*)
    → "Your flair for all things festive is a fine example to us all! I bestow upon you this most excellent of exceptional prizes, kupo!"
  7: 0x00A3 [0x23] WAIT_FOR_DIALOG_INTERACTION
  8: 0x00A4 [0x21] END_EVENT
  9: 0x00A5 [0x00] END_REQSTACK()
```

### Event 30

#### Metadata

| Field        | Value    |
|--------------|----------|
| Entrypoint   | 0x00A6   |
| Data Size    | 32 bytes |
| Instructions | 13       |

```
      00 01 02 03 04 05 06 07  08 09 0A 0B 0C 0D 0E 0F
      -- -- -- -- -- -- -- --  -- -- -- -- -- -- -- --
00A0:                   42 1E  F0 FF FF 7F 1D 15 80 23        B........#
00B0: 1D 16 80 23 43 00 43 01  02 02 10 00 80 02 C4 00  ...#C.C.........
00C0: 1D 0F 80 23 21 00                                 ...#!.          
```

#### Opcodes

```
  0: 0x00A6 [0x42] SET_CLI_EVENT_CANCEL_DATA()
  1: 0x00A7 [0x1E] EventEntity looks at LocalPlayer and starts talking
  2: 0x00AC [0x1D] PRINT_EVENT_MESSAGE(message_id=12494*)
    → "The magnificent Mumor mentioned your exciting exploits, kupo! Thanks for showing everyone a good time!"
  3: 0x00AF [0x23] WAIT_FOR_DIALOG_INTERACTION
  4: 0x00B0 [0x1D] PRINT_EVENT_MESSAGE(message_id=12495*)
    → "As promised, here's your extra-special reward!"
  5: 0x00B3 [0x23] WAIT_FOR_DIALOG_INTERACTION
  6: 0x00B4 [0x43] SEND_EVENT_UPDATE: Send pending tag to server (packet 0x005B)
  7: 0x00B6 [0x43] SEND_EVENT_UPDATE: Check pending flag (skip if not pending)
  8: 0x00B8 [0x02] IF !(Work_Zone[2] <= 0*) GOTO 0x00C4
  9: 0x00C0 [0x1D] PRINT_EVENT_MESSAGE(message_id=12493*)
    → "Kupopo? You need to have at least $0 free space[/s] in your inventory to receive your reward! Come back after sorting out your bags."
 10: 0x00C3 [0x23] WAIT_FOR_DIALOG_INTERACTION
 11: 0x00C4 [0x21] END_EVENT
 12: 0x00C5 [0x00] END_REQSTACK()
```

### Event 591

#### Metadata

| Field        | Value      |
|--------------|------------|
| Entrypoint   | 0x00C6     |
| Data Size    | 3195 bytes |
| Instructions | 397        |

```
      00 01 02 03 04 05 06 07  08 09 0A 0B 0C 0D 0E 0F
      -- -- -- -- -- -- -- --  -- -- -- -- -- -- -- --
00C0:                   42 45  17 80 F0 FF FF 7F F0 FF        BE........
00D0: FF 7F 66 64 6F 31 00 80  55 17 80 F0 FF FF 7F F0  ..fdo1..U.......
00E0: FF FF 7F 66 64 6F 31 46  01 38 18 80 22 00 92 01  ...fdo1F.8.."...
00F0: F8 FF FF 7F 1E F0 FF FF  7F 2F 00 70 B1 0E 01 2F  ........./.p.../
0100: 00 71 B1 0E 01 2F 00 72  B1 0E 01 4E 00 70 B1 0E  .q.../.r...N.p..
0110: 01 4E 00 72 B1 0E 01 4E  00 71 B1 0E 01 27 10 70  .N.r...N.q...'.p
0120: B1 0E 01 03 29 10 71 B1  0E 01 03 94 01 70 B1 0E  ....).q......p..
0130: 01 94 01 71 B1 0E 01 94  01 F0 FF FF 7F 59 05 72  ...q.........Y.r
0140: B1 0E 01 00 BA F0 FF FF  7F 19 80 1A 80 1B 80 1C  ................
0150: 80 BA 70 B1 0E 01 1D 80  1E 80 1B 80 1F 80 BA 71  ..p............q
0160: B1 0E 01 20 80 21 80 1B  80 22 80 BA 72 B1 0E 01  ... .!..."..r...
0170: 20 80 21 80 1B 80 22 80  1E F0 FF FF 7F 4A 71 B1   .!..."......Jq.
0180: 0E 01 F0 FF FF 7F 7B 71  B1 0E 01 1C 23 80 6C 71  ......{q....#.lq
0190: B1 0E 01 00 80 0D 80 80  70 B1 0E 01 80 71 B1 0E  ........p....q..
01A0: 01 02 87 7F 01 80 80 BD  01 45 24 80 F8 FF FF 7F  .........E$.....
01B0: F8 FF FF 7F 73 62 31 31  00 80 01 22 02 02 87 7F  ....sb11..."....
01C0: 25 80 80 D9 01 45 24 80  F8 FF FF 7F F8 FF FF 7F  %....E$.........
01D0: 73 62 31 32 00 80 01 22  02 02 87 7F 26 80 80 F5  sb12..."....&...
01E0: 01 45 24 80 F8 FF FF 7F  F8 FF FF 7F 73 62 31 32  .E$.........sb12
01F0: 00 80 01 22 02 02 87 7F  27 80 80 11 02 45 24 80  ..."....'....E$.
0200: F8 FF FF 7F F8 FF FF 7F  73 62 31 33 00 80 01 22  ........sb13..."
0210: 02 45 24 80 F8 FF FF 7F  F8 FF FF 7F 73 62 30 30  .E$.........sb00
0220: 00 80 45 17 80 F0 FF FF  7F F0 FF FF 7F 66 64 69  ..E..........fdi
0230: 31 00 80 1C 28 80 2C F8  FF FF 7F F8 FF FF 7F 68  1...(.,........h
0240: 61 70 30 1D 29 80 23 1C  28 80 2C F8 FF FF 7F F8  ap0.).#.(.,.....
0250: FF FF 7F 68 61 70 31 27  10 70 B1 0E 01 02 1C 2A  ...hap1'.p.....*
0260: 80 2B 70 B1 0E 01 2B 80  1C 2C 80 2A 10 70 B1 0E  .+p...+..,.*.p..
0270: 01 23 4A 70 B1 0E 01 F0  FF FF 7F 1C 2D 80 4A F0  .#Jp........-.J.
0280: FF FF 7F 70 B1 0E 01 1C  23 80 7B 70 B1 0E 01 1C  ...p....#.{p....
0290: 23 80 02 87 7F 01 80 80  AC 02 52 24 80 F8 FF FF  #.........R$....
02A0: 7F F8 FF FF 7F 73 62 31  31 01 09 03 02 87 7F 25  .....sb11......%
02B0: 80 80 C6 02 52 24 80 F8  FF FF 7F F8 FF FF 7F 73  ....R$.........s
02C0: 62 31 32 01 09 03 02 87  7F 26 80 80 E0 02 52 24  b12......&....R$
02D0: 80 F8 FF FF 7F F8 FF FF  7F 73 62 31 32 01 09 03  .........sb12...
02E0: 02 87 7F 27 80 80 FA 02  52 24 80 F8 FF FF 7F F8  ...'....R$......
02F0: FF FF 7F 73 62 31 33 01  09 03 52 24 80 F8 FF FF  ...sb13...R$....
0300: 7F F8 FF FF 7F 73 62 30  30 45 24 80 F8 FF FF 7F  .....sb00E$.....
0310: F8 FF FF 7F 73 62 30 31  00 80 4A F8 FF FF 7F 70  ....sb01..J....p
0320: B1 0E 01 1C 2D 80 81 00  70 B1 0E 01 2B 70 B1 0E  ....-...p...+p..
0330: 01 2E 80 23 1C 2C 80 81  01 70 B1 0E 01 79 00 70  ...#.,...p...y.p
0340: B1 0E 01 F0 FF FF 7F 52  24 80 F8 FF FF 7F F8 FF  .......R$.......
0350: FF 7F 73 62 30 31 02 87  7F 01 80 80 72 03 45 24  ..sb01......r.E$
0360: 80 F8 FF FF 7F F8 FF FF  7F 73 62 31 34 00 80 01  .........sb14...
0370: D7 03 02 87 7F 25 80 80  8E 03 45 24 80 F8 FF FF  .....%....E$....
0380: 7F F8 FF FF 7F 73 62 31  35 00 80 01 D7 03 02 87  .....sb15.......
0390: 7F 26 80 80 AA 03 45 24  80 F8 FF FF 7F F8 FF FF  .&....E$........
03A0: 7F 73 62 31 35 00 80 01  D7 03 02 87 7F 27 80 80  .sb15........'..
03B0: C6 03 45 24 80 F8 FF FF  7F F8 FF FF 7F 73 62 31  ..E$.........sb1
03C0: 36 00 80 01 D7 03 45 24  80 F8 FF FF 7F F8 FF FF  6.....E$........
03D0: 7F 73 62 30 32 00 80 1C  2F 80 02 87 7F 0D 80 80  .sb02.../.......
03E0: 06 04 66 30 80 F0 FF FF  7F F0 FF FF 7F 74 6C 6B  ..f0.........tlk
03F0: 30 1C 2C 80 66 30 80 F0  FF FF 7F F0 FF FF 7F 74  0.,.f0.........t
0400: 6C 6B 31 01 3A 05 02 87  7F 01 80 80 32 04 66 31  lk1.:.......2.f1
0410: 80 F0 FF FF 7F F0 FF FF  7F 74 6C 6B 30 1C 2C 80  .........tlk0.,.
0420: 66 31 80 F0 FF FF 7F F0  FF FF 7F 74 6C 6B 31 01  f1.........tlk1.
0430: 3A 05 02 87 7F 32 80 80  5E 04 66 33 80 F0 FF FF  :....2..^.f3....
0440: 7F F0 FF FF 7F 74 6C 6B  30 1C 2C 80 66 33 80 F0  .....tlk0.,.f3..
0450: FF FF 7F F0 FF FF 7F 74  6C 6B 31 01 3A 05 02 87  .......tlk1.:...
0460: 7F 34 80 80 8A 04 66 35  80 F0 FF FF 7F F0 FF FF  .4....f5........
0470: 7F 74 6C 6B 30 1C 2C 80  66 35 80 F0 FF FF 7F F0  .tlk0.,.f5......
0480: FF FF 7F 74 6C 6B 31 01  3A 05 02 87 7F 25 80 80  ...tlk1.:....%..
0490: B6 04 66 36 80 F0 FF FF  7F F0 FF FF 7F 74 6C 6B  ..f6.........tlk
04A0: 30 1C 2C 80 66 36 80 F0  FF FF 7F F0 FF FF 7F 74  0.,.f6.........t
04B0: 6C 6B 31 01 3A 05 02 87  7F 26 80 80 E2 04 66 36  lk1.:....&....f6
04C0: 80 F0 FF FF 7F F0 FF FF  7F 74 6C 6B 30 1C 2C 80  .........tlk0.,.
04D0: 66 36 80 F0 FF FF 7F F0  FF FF 7F 74 6C 6B 31 01  f6.........tlk1.
04E0: 3A 05 02 87 7F 27 80 80  0E 05 66 37 80 F0 FF FF  :....'....f7....
04F0: 7F F0 FF FF 7F 74 6C 6B  30 1C 2C 80 66 37 80 F0  .....tlk0.,.f7..
0500: FF FF 7F F0 FF FF 7F 74  6C 6B 31 01 3A 05 02 87  .......tlk1.:...
0510: 7F 38 80 80 3A 05 66 39  80 F0 FF FF 7F F0 FF FF  .8..:.f9........
0520: 7F 74 6C 6B 30 1C 2C 80  66 39 80 F0 FF FF 7F F0  .tlk0.,.f9......
0530: FF FF 7F 74 6C 6B 31 01  3A 05 6E 70 B1 0E 01 3A  ...tlk1.:.np...:
0540: 80 99 70 B1 0E 01 2B 70  B1 0E 01 3B 80 1C 2C 80  ..p...+p...;..,.
0550: 23 7B 70 B1 0E 01 81 00  70 B1 0E 01 66 18 80 70  #{p.....p...f..p
0560: B1 0E 01 70 B1 0E 01 74  68 6B 31 1C 23 80 02 87  ...p...thk1.#...
0570: 7F 01 80 80 88 05 52 24  80 F8 FF FF 7F F8 FF FF  ......R$........
0580: 7F 73 62 31 34 01 E5 05  02 87 7F 25 80 80 A2 05  .sb14......%....
0590: 52 24 80 F8 FF FF 7F F8  FF FF 7F 73 62 31 35 01  R$.........sb15.
05A0: E5 05 02 87 7F 26 80 80  BC 05 52 24 80 F8 FF FF  .....&....R$....
05B0: 7F F8 FF FF 7F 73 62 31  35 01 E5 05 02 87 7F 27  .....sb15......'
05C0: 80 80 D6 05 52 24 80 F8  FF FF 7F F8 FF FF 7F 73  ....R$.........s
05D0: 62 31 36 01 E5 05 52 24  80 F8 FF FF 7F F8 FF FF  b16...R$........
05E0: 7F 73 62 30 32 45 24 80  F8 FF FF 7F F8 FF FF 7F  .sb02E$.........
05F0: 73 62 30 33 00 80 2B 70  B1 0E 01 3C 80 23 2B 70  sb03..+p...<.#+p
0600: B1 0E 01 3D 80 23 1C 28  80 66 18 80 70 B1 0E 01  ...=.#.(.f..p...
0610: 70 B1 0E 01 74 68 6B 32  81 01 70 B1 0E 01 1C 2F  p...thk2..p..../
0620: 80 79 00 70 B1 0E 01 F0  FF FF 7F 52 24 80 F8 FF  .y.p.......R$...
0630: FF 7F F8 FF FF 7F 73 62  30 33 02 87 7F 01 80 80  ......sb03......
0640: 56 06 45 24 80 F8 FF FF  7F F8 FF FF 7F 73 62 31  V.E$.........sb1
0650: 37 00 80 01 BB 06 02 87  7F 25 80 80 72 06 45 24  7........%..r.E$
0660: 80 F8 FF FF 7F F8 FF FF  7F 73 62 31 38 00 80 01  .........sb18...
0670: BB 06 02 87 7F 26 80 80  8E 06 45 24 80 F8 FF FF  .....&....E$....
0680: 7F F8 FF FF 7F 73 62 31  38 00 80 01 BB 06 02 87  .....sb18.......
0690: 7F 27 80 80 AA 06 45 24  80 F8 FF FF 7F F8 FF FF  .'....E$........
06A0: 7F 73 62 31 39 00 80 01  BB 06 45 24 80 F8 FF FF  .sb19.....E$....
06B0: 7F F8 FF FF 7F 73 62 30  34 00 80 1C 2F 80 2B 70  .....sb04.../.+p
06C0: B1 0E 01 3E 80 23 6E 70  B1 0E 01 3F 80 99 70 B1  ...>.#np...?..p.
06D0: 0E 01 2B 70 B1 0E 01 40  80 1C 2C 80 23 66 18 80  ..+p...@..,.#f..
06E0: 70 B1 0E 01 70 B1 0E 01  74 6C 6B 30 2B 70 B1 0E  p...p...tlk0+p..
06F0: 01 41 80 23 1C 28 80 66  18 80 70 B1 0E 01 70 B1  .A.#.(.f..p...p.
0700: 0E 01 74 6C 6B 31 7B F0  FF FF 7F 02 87 7F 01 80  ..tlk1{.........
0710: 80 25 07 52 24 80 F8 FF  FF 7F F8 FF FF 7F 73 62  .%.R$.........sb
0720: 31 37 01 82 07 02 87 7F  25 80 80 3F 07 52 24 80  17......%..?.R$.
0730: F8 FF FF 7F F8 FF FF 7F  73 62 31 38 01 82 07 02  ........sb18....
0740: 87 7F 26 80 80 59 07 52  24 80 F8 FF FF 7F F8 FF  ..&..Y.R$.......
0750: FF 7F 73 62 31 38 01 82  07 02 87 7F 27 80 80 73  ..sb18......'..s
0760: 07 52 24 80 F8 FF FF 7F  F8 FF FF 7F 73 62 31 39  .R$.........sb19
0770: 01 82 07 52 24 80 F8 FF  FF 7F F8 FF FF 7F 73 62  ...R$.........sb
0780: 30 34 45 24 80 F8 FF FF  7F F8 FF FF 7F 73 62 30  04E$.........sb0
0790: 35 00 80 1C 23 80 CD 42  80 F0 FF FF 7F F0 FF FF  5...#..B........
07A0: 7F 73 74 61 72 00 80 1C  43 80 CD 42 80 F0 FF FF  .star...C..B....
07B0: 7F F0 FF FF 7F 73 74 6F  70 00 80 1C 2C 80 79 00  .....stop...,.y.
07C0: F0 FF FF 7F 70 B1 0E 01  45 44 80 F0 FF FF 7F F0  ....p...ED......
07D0: FF FF 7F 77 68 6F 31 00  80 55 44 80 F0 FF FF 7F  ...who1..UD.....
07E0: F0 FF FF 7F 77 68 6F 31  5C 00 45 80 5C 01 45 80  ....who1\.E.\.E.
07F0: 9A 1C 28 80 CE 42 80 F0  FF FF 7F F0 FF FF 7F 73  ..(..B.........s
0800: 74 6F 70 1C 23 80 52 24  80 F8 FF FF 7F F8 FF FF  top.#.R$........
0810: 7F 73 62 30 35 02 87 7F  01 80 80 31 08 45 24 80  .sb05......1.E$.
0820: F8 FF FF 7F F8 FF FF 7F  73 62 32 30 00 80 01 96  ........sb20....
0830: 08 02 87 7F 25 80 80 4D  08 45 24 80 F8 FF FF 7F  ....%..M.E$.....
0840: F8 FF FF 7F 73 62 32 31  00 80 01 96 08 02 87 7F  ....sb21........
0850: 26 80 80 69 08 45 24 80  F8 FF FF 7F F8 FF FF 7F  &..i.E$.........
0860: 73 62 32 31 00 80 01 96  08 02 87 7F 27 80 80 85  sb21........'...
0870: 08 45 24 80 F8 FF FF 7F  F8 FF FF 7F 73 62 32 32  .E$.........sb22
0880: 00 80 01 96 08 45 24 80  F8 FF FF 7F F8 FF FF 7F  .....E$.........
0890: 73 62 30 36 00 80 45 44  80 F0 FF FF 7F F0 FF FF  sb06..ED........
08A0: 7F 77 68 69 31 00 80 55  44 80 F0 FF FF 7F F0 FF  .whi1..UD.......
08B0: FF 7F 77 68 69 31 1C 23  80 CD 46 80 71 B1 0E 01  ..whi1.#..F.q...
08C0: 71 B1 0E 01 6D 61 69 6E  00 80 1C 2A 80 1C 23 80  q...main...*..#.
08D0: 59 05 72 B1 0E 01 01 BA  72 B1 0E 01 20 80 21 80  Y.r.....r... .!.
08E0: 47 80 22 80 1E 72 B1 0E  01 4A F0 FF FF 7F 72 B1  G."..r...J....r.
08F0: 0E 01 1C 3A 80 4A 70 B1  0E 01 72 B1 0E 01 1C 2F  ...:.Jp...r..../
0900: 80 6E 71 B1 0E 01 48 80  99 71 B1 0E 01 2B 71 B1  .nq...H..q...+q.
0910: 0E 01 49 80 1C 4A 80 23  79 00 71 B1 0E 01 F0 FF  ..I..J.#y.q.....
0920: FF 7F 1C 4B 80 6E 71 B1  0E 01 4C 80 99 71 B1 0E  ...K.nq...L..q..
0930: 01 2B 71 B1 0E 01 4D 80  1C 2C 80 23 6E F0 FF FF  .+q...M..,.#n...
0940: 7F 4E 80 99 F0 FF FF 7F  1C 4F 80 02 87 7F 01 80  .N.......O......
0950: 80 65 09 52 24 80 F8 FF  FF 7F F8 FF FF 7F 73 62  .e.R$.........sb
0960: 32 30 01 C2 09 02 87 7F  25 80 80 7F 09 52 24 80  20......%....R$.
0970: F8 FF FF 7F F8 FF FF 7F  73 62 32 31 01 C2 09 02  ........sb21....
0980: 87 7F 26 80 80 99 09 52  24 80 F8 FF FF 7F F8 FF  ..&....R$.......
0990: FF 7F 73 62 32 31 01 C2  09 02 87 7F 27 80 80 B3  ..sb21......'...
09A0: 09 52 24 80 F8 FF FF 7F  F8 FF FF 7F 73 62 32 32  .R$.........sb22
09B0: 01 C2 09 52 24 80 F8 FF  FF 7F F8 FF FF 7F 73 62  ...R$.........sb
09C0: 30 36 45 24 80 F8 FF FF  7F F8 FF FF 7F 73 62 30  06E$.........sb0
09D0: 37 00 80 27 10 71 B1 0E  01 02 2B 71 B1 0E 01 50  7..'.q....+q...P
09E0: 80 1C 4B 80 23 66 18 80  71 B1 0E 01 71 B1 0E 01  ..K.#f..q...q...
09F0: 74 68 6B 32 7C 01 71 B1  0E 01 1C 28 80 6E 71 B1  thk2|.q....(.nq.
0A00: 0E 01 27 80 99 71 B1 0E  01 1C 28 80 52 24 80 F8  ..'..q....(.R$..
0A10: FF FF 7F F8 FF FF 7F 73  62 30 37 02 87 7F 01 80  .......sb07.....
0A20: 80 37 0A 45 24 80 F8 FF  FF 7F F8 FF FF 7F 73 62  .7.E$.........sb
0A30: 32 33 00 80 01 9C 0A 02  87 7F 25 80 80 53 0A 45  23........%..S.E
0A40: 24 80 F8 FF FF 7F F8 FF  FF 7F 73 62 32 34 00 80  $.........sb24..
0A50: 01 9C 0A 02 87 7F 26 80  80 6F 0A 45 24 80 F8 FF  ......&..o.E$...
0A60: FF 7F F8 FF FF 7F 73 62  32 34 00 80 01 9C 0A 02  ......sb24......
0A70: 87 7F 27 80 80 8B 0A 45  24 80 F8 FF FF 7F F8 FF  ..'....E$.......
0A80: FF 7F 73 62 32 35 00 80  01 9C 0A 45 24 80 F8 FF  ..sb25.....E$...
0A90: FF 7F F8 FF FF 7F 73 62  30 38 00 80 6E 71 B1 0E  ......sb08..nq..
0AA0: 01 51 80 99 71 B1 0E 01  2B 71 B1 0E 01 52 80 1C  .Q..q...+q...R..
0AB0: 53 80 23 6E 71 B1 0E 01  54 80 99 71 B1 0E 01 2B  S.#nq...T..q...+
0AC0: 71 B1 0E 01 55 80 1C 2C  80 23 02 87 7F 01 80 80  q...U..,.#......
0AD0: E4 0A 52 24 80 F8 FF FF  7F F8 FF FF 7F 73 62 32  ..R$.........sb2
0AE0: 33 01 41 0B 02 87 7F 25  80 80 FE 0A 52 24 80 F8  3.A....%....R$..
0AF0: FF FF 7F F8 FF FF 7F 73  62 32 34 01 41 0B 02 87  .......sb24.A...
0B00: 7F 26 80 80 18 0B 52 24  80 F8 FF FF 7F F8 FF FF  .&....R$........
0B10: 7F 73 62 32 34 01 41 0B  02 87 7F 27 80 80 32 0B  .sb24.A....'..2.
0B20: 52 24 80 F8 FF FF 7F F8  FF FF 7F 73 62 32 35 01  R$.........sb25.
0B30: 41 0B 52 24 80 F8 FF FF  7F F8 FF FF 7F 73 62 30  A.R$.........sb0
0B40: 38 45 24 80 F8 FF FF 7F  F8 FF FF 7F 73 62 30 39  8E$.........sb09
0B50: 00 80 1C 2F 80 6E 70 B1  0E 01 56 80 99 70 B1 0E  .../.np...V..p..
0B60: 01 2B 70 B1 0E 01 57 80  1C 4F 80 23 4A 70 B1 0E  .+p...W..O.#Jp..
0B70: 01 F0 FF FF 7F 52 24 80  F8 FF FF 7F F8 FF FF 7F  .....R$.........
0B80: 73 62 30 39 02 87 7F 01  80 80 A0 0B 45 24 80 F8  sb09........E$..
0B90: FF FF 7F F8 FF FF 7F 73  62 32 36 00 80 01 05 0C  .......sb26.....
0BA0: 02 87 7F 25 80 80 BC 0B  45 24 80 F8 FF FF 7F F8  ...%....E$......
0BB0: FF FF 7F 73 62 32 37 00  80 01 05 0C 02 87 7F 26  ...sb27........&
0BC0: 80 80 D8 0B 45 24 80 F8  FF FF 7F F8 FF FF 7F 73  ....E$.........s
0BD0: 62 32 37 00 80 01 05 0C  02 87 7F 27 80 80 F4 0B  b27........'....
0BE0: 45 24 80 F8 FF FF 7F F8  FF FF 7F 73 62 32 38 00  E$.........sb28.
0BF0: 80 01 05 0C 45 24 80 F8  FF FF 7F F8 FF FF 7F 73  ....E$.........s
0C00: 62 31 30 00 80 1C 2F 80  1E 70 B1 0E 01 4A F0 FF  b10.../..p...J..
0C10: FF 7F 70 B1 0E 01 6F 76  70 B1 0E 01 1C 2F 80 6E  ..p...ovp..../.n
0C20: 70 B1 0E 01 27 80 99 70  B1 0E 01 2B 70 B1 0E 01  p...'..p...+p...
0C30: 58 80 1C 4F 80 23 7B 70  B1 0E 01 02 87 7F 01 80  X..O.#{p........
0C40: 80 55 0C 52 24 80 F8 FF  FF 7F F8 FF FF 7F 73 62  .U.R$.........sb
0C50: 32 36 01 B2 0C 02 87 7F  25 80 80 6F 0C 52 24 80  26......%..o.R$.
0C60: F8 FF FF 7F F8 FF FF 7F  73 62 32 37 01 B2 0C 02  ........sb27....
0C70: 87 7F 26 80 80 89 0C 52  24 80 F8 FF FF 7F F8 FF  ..&....R$.......
0C80: FF 7F 73 62 32 37 01 B2  0C 02 87 7F 27 80 80 A3  ..sb27......'...
0C90: 0C 52 24 80 F8 FF FF 7F  F8 FF FF 7F 73 62 32 38  .R$.........sb28
0CA0: 01 B2 0C 52 24 80 F8 FF  FF 7F F8 FF FF 7F 73 62  ...R$.........sb
0CB0: 31 30 45 24 80 F8 FF FF  7F F8 FF FF 7F 73 62 32  10E$.........sb2
0CC0: 39 00 80 6E 70 B1 0E 01  3A 80 99 70 B1 0E 01 2B  9..np...:..p...+
0CD0: 70 B1 0E 01 59 80 1C 53  80 23 45 17 80 F0 FF FF  p...Y..S.#E.....
0CE0: 7F F0 FF FF 7F 66 64 6F  31 00 80 55 17 80 F0 FF  .....fdo1..U....
0CF0: FF 7F F0 FF FF 7F 66 64  6F 31 52 24 80 F8 FF FF  ......fdo1R$....
0D00: 7F F8 FF FF 7F 73 62 32  39 5C 00 5A 80 5C 01 5A  .....sb29\.Z.\.Z
0D10: 80 1C 2F 80 AB 11 00 80  1C 0D 80 45 44 80 F8 FF  ../........ED...
0D20: FF 7F F8 FF FF 7F 71 73  74 63 00 80 46 00 45 17  ......qstc..F.E.
0D30: 80 F0 FF FF 7F F0 FF FF  7F 66 64 69 31 00 80 21  .........fdi1..!
0D40: 00                                                .               
```

#### Opcodes

```
  0: 0x00C6 [0x42] SET_CLI_EVENT_CANCEL_DATA()
  1: 0x00C7 [0x45] LOAD_SCHEDULED_TASK: Load scheduler "fdo1" with entities [LocalPlayer, LocalPlayer], work=[200*, 0*]
  2: 0x00D8 [0x55] WAIT_LOAD_SCHEDULER: Wait for scheduler "fdo1" with entities [LocalPlayer, LocalPlayer], work=200*
  3: 0x00E7 [0x46] CAMERA_CONTROL: Disable user control
  4: 0x00E9 [0x38] SET_CLIENT_EVENT_MODE(mode=19*)
  5: 0x00EC [0x22] ENTITY_HIDE_FLAG(enabled=0x00)
  6: 0x00EE [0x92] EventEntity->Render.Flags3 ^= 0x01
  7: 0x00F4 [0x1E] EventEntity looks at LocalPlayer and starts talking
  8: 0x00F9 [0x2F] Mumor (ID: 17740144/0x010EB170)->Render.Flags0 &= ~0x80000 // Bit 19
  9: 0x00FF [0x2F] Mumor (ID: 17740145/0x010EB171)->Render.Flags0 &= ~0x80000 // Bit 19
 10: 0x0105 [0x2F] Unnamed NPC (ID: 17740146/0x010EB172)->Render.Flags0 &= ~0x80000 // Bit 19
 11: 0x010B [0x4E] SET_ENTITY_HIDE_FLAG: Show Mumor (ID: 17740144/0x010EB170)
 12: 0x0111 [0x4E] SET_ENTITY_HIDE_FLAG: Show Unnamed NPC (ID: 17740146/0x010EB172)
 13: 0x0117 [0x4E] SET_ENTITY_HIDE_FLAG: Show Mumor (ID: 17740145/0x010EB171)
 14: 0x011D [0x27] REQ_SET(priority=0x10, entity_id=Mumor (ID: 17740144/0x010EB170), tag_num=0x03)
 15: 0x0124 [0x29] REQ_SET_WAIT(priority=0x10, entity_id=Mumor (ID: 17740145/0x010EB171), tag_num=0x03)
 16: 0x012B [0x94] Mumor (ID: 17740144/0x010EB170)->Render.Flags3 ^= 0x01
 17: 0x0131 [0x94] Mumor (ID: 17740145/0x010EB171)->Render.Flags3 ^= 0x01
 18: 0x0137 [0x94] LocalPlayer->Render.Flags3 ^= 0x01
 19: 0x013D [0x59] UPDATE_ENTITY_DATA: Unnamed NPC (ID: 17740146/0x010EB172)->Render.Flags0 &= ~0x200000
 20: 0x0144 [0xBA] SET_ENTITY_POSITION(entity_id=LocalPlayer, pos_x=-188.971*, pos_z=-29.947*, pos_y=-8.000*, direction=377476129.3°*)
 21: 0x0151 [0xBA] SET_ENTITY_POSITION(entity_id=Mumor (ID: 17740144/0x010EB170), pos_x=-191.905*, pos_z=-35.781*, pos_y=-8.000*, direction=377476146.2°*)
 22: 0x015E [0xBA] SET_ENTITY_POSITION(entity_id=Mumor (ID: 17740145/0x010EB171), pos_x=-188.158*, pos_z=-31.750*, pos_y=-8.000*, direction=377476105.0°*)
 23: 0x016B [0xBA] SET_ENTITY_POSITION(entity_id=Unnamed NPC (ID: 17740146/0x010EB172), pos_x=-188.158*, pos_z=-31.750*, pos_y=-8.000*, direction=377476105.0°*)
 24: 0x0178 [0x1E] EventEntity looks at LocalPlayer and starts talking
 25: 0x017D [0x4A] Mumor (ID: 17740145/0x010EB171) looks at LocalPlayer
 26: 0x0186 [0x7B] Mumor (ID: 17740145/0x010EB171) stops talking
 27: 0x018B [0x1C] WAIT(30* ticks)
 28: 0x018E [0x6C] FADE_ENTITY_COLOR(entity_id=Mumor (ID: 17740145/0x010EB171), end_alpha=0*, fade_time=1*)
 29: 0x0197 [0x80] LOAD_WAIT(entity=Mumor (ID: 17740144/0x010EB170))
 30: 0x019C [0x80] LOAD_WAIT(entity=Mumor (ID: 17740145/0x010EB171))
 31: 0x01A1 [0x02] IF !(LocalPlayer->Race == 2*) GOTO 0x01BD
 32: 0x01A9 [0x45] LOAD_SCHEDULED_TASK: Load scheduler "sb11" with entities [EventEntity, EventEntity], work=[640*, 0*]
 33: 0x01BA [0x01] GOTO 0x0222
 34: 0x01BD [0x02] IF !(LocalPlayer->Race == 5*) GOTO 0x01D9
 35: 0x01C5 [0x45] LOAD_SCHEDULED_TASK: Load scheduler "sb12" with entities [EventEntity, EventEntity], work=[640*, 0*]
 36: 0x01D6 [0x01] GOTO 0x0222
 37: 0x01D9 [0x02] IF !(LocalPlayer->Race == 6*) GOTO 0x01F5
 38: 0x01E1 [0x45] LOAD_SCHEDULED_TASK: Load scheduler "sb12" with entities [EventEntity, EventEntity], work=[640*, 0*]
 39: 0x01F2 [0x01] GOTO 0x0222
 40: 0x01F5 [0x02] IF !(LocalPlayer->Race == 7*) GOTO 0x0211
 41: 0x01FD [0x45] LOAD_SCHEDULED_TASK: Load scheduler "sb13" with entities [EventEntity, EventEntity], work=[640*, 0*]
 42: 0x020E [0x01] GOTO 0x0222
 43: 0x0211 [0x45] LOAD_SCHEDULED_TASK: Load scheduler "sb00" with entities [EventEntity, EventEntity], work=[640*, 0*]

SUBROUTINE_0222:
 44: 0x0222 [0x45] LOAD_SCHEDULED_TASK: Load scheduler "fdi1" with entities [LocalPlayer, LocalPlayer], work=[200*, 0*]
 45: 0x0233 [0x1C] WAIT(60* ticks)
 46: 0x0236 [0x2C] CREATE_SCHEDULER_TASK: Create scheduler "hap0" with entities [EventEntity, EventEntity]
 47: 0x0243 [0x1D] PRINT_EVENT_MESSAGE(message_id=8862*)
    → "I've been waiting for you, kupo! Mumor, the shining starlet herself, has slunk her way onto the streets to see you!"
 48: 0x0246 [0x23] WAIT_FOR_DIALOG_INTERACTION
 49: 0x0247 [0x1C] WAIT(60* ticks)
 50: 0x024A [0x2C] CREATE_SCHEDULER_TASK: Create scheduler "hap1" with entities [EventEntity, EventEntity]
 51: 0x0257 [0x27] REQ_SET(priority=0x10, entity_id=Mumor (ID: 17740144/0x010EB170), tag_num=0x02)
 52: 0x025E [0x1C] WAIT(90* ticks)
 53: 0x0261 [0x2B] Mumor (ID: 17740144/0x010EB170) [8863*]:
    → "I'm so glad you're here! With all my singing and battling, I never seem to find the time to meet my wonderful fans!"
 54: 0x0268 [0x1C] WAIT(120* ticks)
 55: 0x026B [0x2A] GET_REQ_LEVEL(level=16, entity_id=Mumor (ID: 17740144/0x010EB170))
 56: 0x0271 [0x23] WAIT_FOR_DIALOG_INTERACTION
 57: 0x0272 [0x4A] Mumor (ID: 17740144/0x010EB170) looks at LocalPlayer
 58: 0x027B [0x1C] WAIT(45* ticks)
 59: 0x027E [0x4A] LocalPlayer looks at Mumor (ID: 17740144/0x010EB170)
 60: 0x0287 [0x1C] WAIT(30* ticks)
 61: 0x028A [0x7B] Mumor (ID: 17740144/0x010EB170) stops talking
 62: 0x028F [0x1C] WAIT(30* ticks)
 63: 0x0292 [0x02] IF !(LocalPlayer->Race == 2*) GOTO 0x02AC
 64: 0x029A [0x52] END_LOAD_SCHEDULER: End scheduler "sb11" with entities [EventEntity, EventEntity], work=640*
 65: 0x02A9 [0x01] GOTO 0x0309
 66: 0x02AC [0x02] IF !(LocalPlayer->Race == 5*) GOTO 0x02C6
 67: 0x02B4 [0x52] END_LOAD_SCHEDULER: End scheduler "sb12" with entities [EventEntity, EventEntity], work=640*
 68: 0x02C3 [0x01] GOTO 0x0309
 69: 0x02C6 [0x02] IF !(LocalPlayer->Race == 6*) GOTO 0x02E0
 70: 0x02CE [0x52] END_LOAD_SCHEDULER: End scheduler "sb12" with entities [EventEntity, EventEntity], work=640*
 71: 0x02DD [0x01] GOTO 0x0309
 72: 0x02E0 [0x02] IF !(LocalPlayer->Race == 7*) GOTO 0x02FA
 73: 0x02E8 [0x52] END_LOAD_SCHEDULER: End scheduler "sb13" with entities [EventEntity, EventEntity], work=640*
 74: 0x02F7 [0x01] GOTO 0x0309
 75: 0x02FA [0x52] END_LOAD_SCHEDULER: End scheduler "sb00" with entities [EventEntity, EventEntity], work=640*

SUBROUTINE_0309:
 76: 0x0309 [0x45] LOAD_SCHEDULED_TASK: Load scheduler "sb01" with entities [EventEntity, EventEntity], work=[640*, 0*]
 77: 0x031A [0x4A] EventEntity looks at Mumor (ID: 17740144/0x010EB170)
 78: 0x0323 [0x1C] WAIT(45* ticks)
 79: 0x0326 [0x81] SET_ENTITY_BLINKING(blink_flag=0x00, entity=Mumor (ID: 17740144/0x010EB170))
 80: 0x032C [0x2B] Mumor (ID: 17740144/0x010EB170) [8864*]:
    → "I was positively tickled to see you in the crowd. Can I ask your name?"
 81: 0x0333 [0x23] WAIT_FOR_DIALOG_INTERACTION
 82: 0x0334 [0x1C] WAIT(120* ticks)
 83: 0x0337 [0x81] SET_ENTITY_BLINKING(blink_flag=0x01, entity=Mumor (ID: 17740144/0x010EB170))
 84: 0x033D [0x79] Mumor (ID: 17740144/0x010EB170) looks at LocalPlayer (Basic look)
 85: 0x0347 [0x52] END_LOAD_SCHEDULER: End scheduler "sb01" with entities [EventEntity, EventEntity], work=640*
 86: 0x0356 [0x02] IF !(LocalPlayer->Race == 2*) GOTO 0x0372
 87: 0x035E [0x45] LOAD_SCHEDULED_TASK: Load scheduler "sb14" with entities [EventEntity, EventEntity], work=[640*, 0*]
 88: 0x036F [0x01] GOTO 0x03D7
 89: 0x0372 [0x02] IF !(LocalPlayer->Race == 5*) GOTO 0x038E
 90: 0x037A [0x45] LOAD_SCHEDULED_TASK: Load scheduler "sb15" with entities [EventEntity, EventEntity], work=[640*, 0*]
 91: 0x038B [0x01] GOTO 0x03D7
 92: 0x038E [0x02] IF !(LocalPlayer->Race == 6*) GOTO 0x03AA
 93: 0x0396 [0x45] LOAD_SCHEDULED_TASK: Load scheduler "sb15" with entities [EventEntity, EventEntity], work=[640*, 0*]
 94: 0x03A7 [0x01] GOTO 0x03D7
 95: 0x03AA [0x02] IF !(LocalPlayer->Race == 7*) GOTO 0x03C6
 96: 0x03B2 [0x45] LOAD_SCHEDULED_TASK: Load scheduler "sb16" with entities [EventEntity, EventEntity], work=[640*, 0*]
 97: 0x03C3 [0x01] GOTO 0x03D7
 98: 0x03C6 [0x45] LOAD_SCHEDULED_TASK: Load scheduler "sb02" with entities [EventEntity, EventEntity], work=[640*, 0*]

SUBROUTINE_03D7:
 99: 0x03D7 [0x1C] WAIT(15* ticks)
100: 0x03DA [0x02] IF !(LocalPlayer->Race == 1*) GOTO 0x0406
101: 0x03E2 [0x66] LOAD_EXT_SCHEDULER_MAIN: Load scheduler "tlk0" with entities [LocalPlayer, LocalPlayer], work=149*
102: 0x03F1 [0x1C] WAIT(120* ticks)
103: 0x03F4 [0x66] LOAD_EXT_SCHEDULER_MAIN: Load scheduler "tlk1" with entities [LocalPlayer, LocalPlayer], work=149*
104: 0x0403 [0x01] GOTO 0x053A
105: 0x0406 [0x02] IF !(LocalPlayer->Race == 2*) GOTO 0x0432
106: 0x040E [0x66] LOAD_EXT_SCHEDULER_MAIN: Load scheduler "tlk0" with entities [LocalPlayer, LocalPlayer], work=159*
107: 0x041D [0x1C] WAIT(120* ticks)
108: 0x0420 [0x66] LOAD_EXT_SCHEDULER_MAIN: Load scheduler "tlk1" with entities [LocalPlayer, LocalPlayer], work=159*
109: 0x042F [0x01] GOTO 0x053A
110: 0x0432 [0x02] IF !(LocalPlayer->Race == 3*) GOTO 0x045E
111: 0x043A [0x66] LOAD_EXT_SCHEDULER_MAIN: Load scheduler "tlk0" with entities [LocalPlayer, LocalPlayer], work=169*
112: 0x0449 [0x1C] WAIT(120* ticks)
113: 0x044C [0x66] LOAD_EXT_SCHEDULER_MAIN: Load scheduler "tlk1" with entities [LocalPlayer, LocalPlayer], work=169*
114: 0x045B [0x01] GOTO 0x053A
115: 0x045E [0x02] IF !(LocalPlayer->Race == 4*) GOTO 0x048A
116: 0x0466 [0x66] LOAD_EXT_SCHEDULER_MAIN: Load scheduler "tlk0" with entities [LocalPlayer, LocalPlayer], work=179*
117: 0x0475 [0x1C] WAIT(120* ticks)
118: 0x0478 [0x66] LOAD_EXT_SCHEDULER_MAIN: Load scheduler "tlk1" with entities [LocalPlayer, LocalPlayer], work=179*
119: 0x0487 [0x01] GOTO 0x053A
120: 0x048A [0x02] IF !(LocalPlayer->Race == 5*) GOTO 0x04B6
121: 0x0492 [0x66] LOAD_EXT_SCHEDULER_MAIN: Load scheduler "tlk0" with entities [LocalPlayer, LocalPlayer], work=189*
122: 0x04A1 [0x1C] WAIT(120* ticks)
123: 0x04A4 [0x66] LOAD_EXT_SCHEDULER_MAIN: Load scheduler "tlk1" with entities [LocalPlayer, LocalPlayer], work=189*
124: 0x04B3 [0x01] GOTO 0x053A
125: 0x04B6 [0x02] IF !(LocalPlayer->Race == 6*) GOTO 0x04E2
126: 0x04BE [0x66] LOAD_EXT_SCHEDULER_MAIN: Load scheduler "tlk0" with entities [LocalPlayer, LocalPlayer], work=189*
127: 0x04CD [0x1C] WAIT(120* ticks)
128: 0x04D0 [0x66] LOAD_EXT_SCHEDULER_MAIN: Load scheduler "tlk1" with entities [LocalPlayer, LocalPlayer], work=189*
129: 0x04DF [0x01] GOTO 0x053A
130: 0x04E2 [0x02] IF !(LocalPlayer->Race == 7*) GOTO 0x050E
131: 0x04EA [0x66] LOAD_EXT_SCHEDULER_MAIN: Load scheduler "tlk0" with entities [LocalPlayer, LocalPlayer], work=199*
132: 0x04F9 [0x1C] WAIT(120* ticks)
133: 0x04FC [0x66] LOAD_EXT_SCHEDULER_MAIN: Load scheduler "tlk1" with entities [LocalPlayer, LocalPlayer], work=199*
134: 0x050B [0x01] GOTO 0x053A
135: 0x050E [0x02] IF !(LocalPlayer->Race == 8*) GOTO 0x053A
136: 0x0516 [0x66] LOAD_EXT_SCHEDULER_MAIN: Load scheduler "tlk0" with entities [LocalPlayer, LocalPlayer], work=209*
137: 0x0525 [0x1C] WAIT(120* ticks)
138: 0x0528 [0x66] LOAD_EXT_SCHEDULER_MAIN: Load scheduler "tlk1" with entities [LocalPlayer, LocalPlayer], work=209*
139: 0x0537 [0x01] GOTO 0x053A

SUBROUTINE_053A:
140: 0x053A [0x6E] Mumor (ID: 17740144/0x010EB170) uses emote 10*
141: 0x0541 [0x99] Wait for Mumor (ID: 17740144/0x010EB170) animation to complete
142: 0x0546 [0x2B] Mumor (ID: 17740144/0x010EB170) [8865*]:
    → "<Player>, your dancing was positively peachy!t"
143: 0x054D [0x1C] WAIT(120* ticks)
144: 0x0550 [0x23] WAIT_FOR_DIALOG_INTERACTION
145: 0x0551 [0x7B] Mumor (ID: 17740144/0x010EB170) stops talking
146: 0x0556 [0x81] SET_ENTITY_BLINKING(blink_flag=0x00, entity=Mumor (ID: 17740144/0x010EB170))
147: 0x055C [0x66] LOAD_EXT_SCHEDULER_MAIN: Load scheduler "thk1" with entities [Mumor (ID: 17740144/0x010EB170), Mumor (ID: 17740144/0x010EB170)], work=19*
148: 0x056B [0x1C] WAIT(30* ticks)
149: 0x056E [0x02] IF !(LocalPlayer->Race == 2*) GOTO 0x0588
150: 0x0576 [0x52] END_LOAD_SCHEDULER: End scheduler "sb14" with entities [EventEntity, EventEntity], work=640*
151: 0x0585 [0x01] GOTO 0x05E5
152: 0x0588 [0x02] IF !(LocalPlayer->Race == 5*) GOTO 0x05A2
153: 0x0590 [0x52] END_LOAD_SCHEDULER: End scheduler "sb15" with entities [EventEntity, EventEntity], work=640*
154: 0x059F [0x01] GOTO 0x05E5
155: 0x05A2 [0x02] IF !(LocalPlayer->Race == 6*) GOTO 0x05BC
156: 0x05AA [0x52] END_LOAD_SCHEDULER: End scheduler "sb15" with entities [EventEntity, EventEntity], work=640*
157: 0x05B9 [0x01] GOTO 0x05E5
158: 0x05BC [0x02] IF !(LocalPlayer->Race == 7*) GOTO 0x05D6
159: 0x05C4 [0x52] END_LOAD_SCHEDULER: End scheduler "sb16" with entities [EventEntity, EventEntity], work=640*
160: 0x05D3 [0x01] GOTO 0x05E5
161: 0x05D6 [0x52] END_LOAD_SCHEDULER: End scheduler "sb02" with entities [EventEntity, EventEntity], work=640*

SUBROUTINE_05E5:
162: 0x05E5 [0x45] LOAD_SCHEDULED_TASK: Load scheduler "sb03" with entities [EventEntity, EventEntity], work=[640*, 0*]
163: 0x05F6 [0x2B] Mumor (ID: 17740144/0x010EB170) [8866*]:
    → "Remember how Diva called forth another me?"
164: 0x05FD [0x23] WAIT_FOR_DIALOG_INTERACTION
165: 0x05FE [0x2B] Mumor (ID: 17740144/0x010EB170) [8867*]:
    → "You can surely do the same thing, too."
166: 0x0605 [0x23] WAIT_FOR_DIALOG_INTERACTION
167: 0x0606 [0x1C] WAIT(60* ticks)
168: 0x0609 [0x66] LOAD_EXT_SCHEDULER_MAIN: Load scheduler "thk2" with entities [Mumor (ID: 17740144/0x010EB170), Mumor (ID: 17740144/0x010EB170)], work=19*
169: 0x0618 [0x81] SET_ENTITY_BLINKING(blink_flag=0x01, entity=Mumor (ID: 17740144/0x010EB170))
170: 0x061E [0x1C] WAIT(15* ticks)
171: 0x0621 [0x79] Mumor (ID: 17740144/0x010EB170) looks at LocalPlayer (Basic look)
172: 0x062B [0x52] END_LOAD_SCHEDULER: End scheduler "sb03" with entities [EventEntity, EventEntity], work=640*
173: 0x063A [0x02] IF !(LocalPlayer->Race == 2*) GOTO 0x0656
174: 0x0642 [0x45] LOAD_SCHEDULED_TASK: Load scheduler "sb17" with entities [EventEntity, EventEntity], work=[640*, 0*]
175: 0x0653 [0x01] GOTO 0x06BB
176: 0x0656 [0x02] IF !(LocalPlayer->Race == 5*) GOTO 0x0672
177: 0x065E [0x45] LOAD_SCHEDULED_TASK: Load scheduler "sb18" with entities [EventEntity, EventEntity], work=[640*, 0*]
178: 0x066F [0x01] GOTO 0x06BB
179: 0x0672 [0x02] IF !(LocalPlayer->Race == 6*) GOTO 0x068E
180: 0x067A [0x45] LOAD_SCHEDULED_TASK: Load scheduler "sb18" with entities [EventEntity, EventEntity], work=[640*, 0*]
181: 0x068B [0x01] GOTO 0x06BB
182: 0x068E [0x02] IF !(LocalPlayer->Race == 7*) GOTO 0x06AA
183: 0x0696 [0x45] LOAD_SCHEDULED_TASK: Load scheduler "sb19" with entities [EventEntity, EventEntity], work=[640*, 0*]
184: 0x06A7 [0x01] GOTO 0x06BB
185: 0x06AA [0x45] LOAD_SCHEDULED_TASK: Load scheduler "sb04" with entities [EventEntity, EventEntity], work=[640*, 0*]

SUBROUTINE_06BB:
186: 0x06BB [0x1C] WAIT(15* ticks)
187: 0x06BE [0x2B] Mumor (ID: 17740144/0x010EB170) [8868*]:
    → "I can feel it in the way you lend Uka and me strength."
188: 0x06C5 [0x23] WAIT_FOR_DIALOG_INTERACTION
189: 0x06C6 [0x6E] Mumor (ID: 17740144/0x010EB170) uses emote 22*
190: 0x06CD [0x99] Wait for Mumor (ID: 17740144/0x010EB170) animation to complete
191: 0x06D2 [0x2B] Mumor (ID: 17740144/0x010EB170) [8869*]:
    → "After all, it must mean we have those three special bonds..."
192: 0x06D9 [0x1C] WAIT(120* ticks)
193: 0x06DC [0x23] WAIT_FOR_DIALOG_INTERACTION
194: 0x06DD [0x66] LOAD_EXT_SCHEDULER_MAIN: Load scheduler "tlk0" with entities [Mumor (ID: 17740144/0x010EB170), Mumor (ID: 17740144/0x010EB170)], work=19*
195: 0x06EC [0x2B] Mumor (ID: 17740144/0x010EB170) [8870*]:
    → "Could you give it a try? Just for me?"
196: 0x06F3 [0x23] WAIT_FOR_DIALOG_INTERACTION
197: 0x06F4 [0x1C] WAIT(60* ticks)
198: 0x06F7 [0x66] LOAD_EXT_SCHEDULER_MAIN: Load scheduler "tlk1" with entities [Mumor (ID: 17740144/0x010EB170), Mumor (ID: 17740144/0x010EB170)], work=19*
199: 0x0706 [0x7B] LocalPlayer stops talking
200: 0x070B [0x02] IF !(LocalPlayer->Race == 2*) GOTO 0x0725
201: 0x0713 [0x52] END_LOAD_SCHEDULER: End scheduler "sb17" with entities [EventEntity, EventEntity], work=640*
202: 0x0722 [0x01] GOTO 0x0782
203: 0x0725 [0x02] IF !(LocalPlayer->Race == 5*) GOTO 0x073F
204: 0x072D [0x52] END_LOAD_SCHEDULER: End scheduler "sb18" with entities [EventEntity, EventEntity], work=640*
205: 0x073C [0x01] GOTO 0x0782
206: 0x073F [0x02] IF !(LocalPlayer->Race == 6*) GOTO 0x0759
207: 0x0747 [0x52] END_LOAD_SCHEDULER: End scheduler "sb18" with entities [EventEntity, EventEntity], work=640*
208: 0x0756 [0x01] GOTO 0x0782
209: 0x0759 [0x02] IF !(LocalPlayer->Race == 7*) GOTO 0x0773
210: 0x0761 [0x52] END_LOAD_SCHEDULER: End scheduler "sb19" with entities [EventEntity, EventEntity], work=640*
211: 0x0770 [0x01] GOTO 0x0782
212: 0x0773 [0x52] END_LOAD_SCHEDULER: End scheduler "sb04" with entities [EventEntity, EventEntity], work=640*

SUBROUTINE_0782:
213: 0x0782 [0x45] LOAD_SCHEDULED_TASK: Load scheduler "sb05" with entities [EventEntity, EventEntity], work=[640*, 0*]
214: 0x0793 [0x1C] WAIT(30* ticks)
215: 0x0796 [0xCD] LOAD_SCHEDULED_TASK_ALT4: Load scheduler "star" with entities [LocalPlayer, LocalPlayer], work=[174*, 0*]
216: 0x07A7 [0x1C] WAIT(176* ticks)
217: 0x07AA [0xCD] LOAD_SCHEDULED_TASK_ALT4: Load scheduler "stop" with entities [LocalPlayer, LocalPlayer], work=[174*, 0*]
218: 0x07BB [0x1C] WAIT(120* ticks)
219: 0x07BE [0x79] LocalPlayer looks at Mumor (ID: 17740144/0x010EB170) (Basic look)
220: 0x07C8 [0x45] LOAD_SCHEDULED_TASK: Load scheduler "who1" with entities [LocalPlayer, LocalPlayer], work=[201*, 0*]
221: 0x07D9 [0x55] WAIT_LOAD_SCHEDULER: Wait for scheduler "who1" with entities [LocalPlayer, LocalPlayer], work=201*
222: 0x07E8 [0x5C] MUSIC_CONTROL: Set Idle (Day) music to song 163*
223: 0x07EC [0x5C] MUSIC_CONTROL: Set Idle (Night) music to song 163*
224: 0x07F0 [0x9A] WAIT_MUSIC_SERVER()
225: 0x07F1 [0x1C] WAIT(60* ticks)
226: 0x07F4 [0xCE] WAIT_LOAD_SCHEDULER_ALT4: Wait for scheduler "stop" with entities [LocalPlayer, LocalPlayer], work=174*
227: 0x0803 [0x1C] WAIT(30* ticks)
228: 0x0806 [0x52] END_LOAD_SCHEDULER: End scheduler "sb05" with entities [EventEntity, EventEntity], work=640*
229: 0x0815 [0x02] IF !(LocalPlayer->Race == 2*) GOTO 0x0831
230: 0x081D [0x45] LOAD_SCHEDULED_TASK: Load scheduler "sb20" with entities [EventEntity, EventEntity], work=[640*, 0*]
231: 0x082E [0x01] GOTO 0x0896
232: 0x0831 [0x02] IF !(LocalPlayer->Race == 5*) GOTO 0x084D
233: 0x0839 [0x45] LOAD_SCHEDULED_TASK: Load scheduler "sb21" with entities [EventEntity, EventEntity], work=[640*, 0*]
234: 0x084A [0x01] GOTO 0x0896
235: 0x084D [0x02] IF !(LocalPlayer->Race == 6*) GOTO 0x0869
236: 0x0855 [0x45] LOAD_SCHEDULED_TASK: Load scheduler "sb21" with entities [EventEntity, EventEntity], work=[640*, 0*]
237: 0x0866 [0x01] GOTO 0x0896
238: 0x0869 [0x02] IF !(LocalPlayer->Race == 7*) GOTO 0x0885
239: 0x0871 [0x45] LOAD_SCHEDULED_TASK: Load scheduler "sb22" with entities [EventEntity, EventEntity], work=[640*, 0*]
240: 0x0882 [0x01] GOTO 0x0896
241: 0x0885 [0x45] LOAD_SCHEDULED_TASK: Load scheduler "sb06" with entities [EventEntity, EventEntity], work=[640*, 0*]

SUBROUTINE_0896:
242: 0x0896 [0x45] LOAD_SCHEDULED_TASK: Load scheduler "whi1" with entities [LocalPlayer, LocalPlayer], work=[201*, 0*]
243: 0x08A7 [0x55] WAIT_LOAD_SCHEDULER: Wait for scheduler "whi1" with entities [LocalPlayer, LocalPlayer], work=201*
244: 0x08B6 [0x1C] WAIT(30* ticks)
245: 0x08B9 [0xCD] LOAD_SCHEDULED_TASK_ALT4: Load scheduler "main" with entities [Mumor (ID: 17740145/0x010EB171), Mumor (ID: 17740145/0x010EB171)], work=[177*, 0*]
246: 0x08CA [0x1C] WAIT(90* ticks)
247: 0x08CD [0x1C] WAIT(30* ticks)
248: 0x08D0 [0x59] UPDATE_ENTITY_DATA: Unnamed NPC (ID: 17740146/0x010EB172)->Render.Flags0 |= 0x200000
249: 0x08D7 [0xBA] SET_ENTITY_POSITION(entity_id=Unnamed NPC (ID: 17740146/0x010EB172), pos_x=-188.158*, pos_z=-31.750*, pos_y=-9.451*, direction=377476105.0°*)
250: 0x08E4 [0x1E] EventEntity looks at Unnamed NPC (ID: 17740146/0x010EB172) and starts talking
251: 0x08E9 [0x4A] LocalPlayer looks at Unnamed NPC (ID: 17740146/0x010EB172)
252: 0x08F2 [0x1C] WAIT(10* ticks)
253: 0x08F5 [0x4A] Mumor (ID: 17740144/0x010EB170) looks at Unnamed NPC (ID: 17740146/0x010EB172)
254: 0x08FE [0x1C] WAIT(15* ticks)
255: 0x0901 [0x6E] Mumor (ID: 17740145/0x010EB171) uses emote 66*
256: 0x0908 [0x99] Wait for Mumor (ID: 17740145/0x010EB171) animation to complete
257: 0x090D [0x2B] Mumor (ID: 17740145/0x010EB171) [8871*]:
    → "To see the inverted rainbow of your smile..."
258: 0x0914 [0x1C] WAIT(180* ticks)
259: 0x0917 [0x23] WAIT_FOR_DIALOG_INTERACTION
260: 0x0918 [0x79] Mumor (ID: 17740145/0x010EB171) looks at LocalPlayer (Basic look)
261: 0x0922 [0x1C] WAIT(240* ticks)
262: 0x0925 [0x6E] Mumor (ID: 17740145/0x010EB171) uses emote 16*
263: 0x092C [0x99] Wait for Mumor (ID: 17740145/0x010EB171) animation to complete
264: 0x0931 [0x2B] Mumor (ID: 17740145/0x010EB171) [8872*]:
    → "Psst! That's your cue!"
265: 0x0938 [0x1C] WAIT(120* ticks)
266: 0x093B [0x23] WAIT_FOR_DIALOG_INTERACTION
267: 0x093C [0x6E] LocalPlayer uses emote 21*
268: 0x0943 [0x99] Wait for LocalPlayer animation to complete
269: 0x0948 [0x1C] WAIT(150* ticks)
270: 0x094B [0x02] IF !(LocalPlayer->Race == 2*) GOTO 0x0965
271: 0x0953 [0x52] END_LOAD_SCHEDULER: End scheduler "sb20" with entities [EventEntity, EventEntity], work=640*
272: 0x0962 [0x01] GOTO 0x09C2
273: 0x0965 [0x02] IF !(LocalPlayer->Race == 5*) GOTO 0x097F
274: 0x096D [0x52] END_LOAD_SCHEDULER: End scheduler "sb21" with entities [EventEntity, EventEntity], work=640*
275: 0x097C [0x01] GOTO 0x09C2
276: 0x097F [0x02] IF !(LocalPlayer->Race == 6*) GOTO 0x0999
277: 0x0987 [0x52] END_LOAD_SCHEDULER: End scheduler "sb21" with entities [EventEntity, EventEntity], work=640*
278: 0x0996 [0x01] GOTO 0x09C2
279: 0x0999 [0x02] IF !(LocalPlayer->Race == 7*) GOTO 0x09B3
280: 0x09A1 [0x52] END_LOAD_SCHEDULER: End scheduler "sb22" with entities [EventEntity, EventEntity], work=640*
281: 0x09B0 [0x01] GOTO 0x09C2
282: 0x09B3 [0x52] END_LOAD_SCHEDULER: End scheduler "sb06" with entities [EventEntity, EventEntity], work=640*

SUBROUTINE_09C2:
283: 0x09C2 [0x45] LOAD_SCHEDULED_TASK: Load scheduler "sb07" with entities [EventEntity, EventEntity], work=[640*, 0*]
284: 0x09D3 [0x27] REQ_SET(priority=0x10, entity_id=Mumor (ID: 17740145/0x010EB171), tag_num=0x02)
285: 0x09DA [0x2B] Mumor (ID: 17740145/0x010EB171) [8873*]:
    → "You mean you don't know how to finish off the catchphrase? Well, Uka's not here, so I'll have to think of a separate one for you..."
286: 0x09E1 [0x1C] WAIT(240* ticks)
287: 0x09E4 [0x23] WAIT_FOR_DIALOG_INTERACTION
288: 0x09E5 [0x66] LOAD_EXT_SCHEDULER_MAIN: Load scheduler "thk2" with entities [Mumor (ID: 17740145/0x010EB171), Mumor (ID: 17740145/0x010EB171)], work=19*
289: 0x09F4 [0x7C] Mumor (ID: 17740145/0x010EB171)->Render.Flags2 |= 0x01
290: 0x09FA [0x1C] WAIT(60* ticks)
291: 0x09FD [0x6E] Mumor (ID: 17740145/0x010EB171) uses emote 7*
292: 0x0A04 [0x99] Wait for Mumor (ID: 17740145/0x010EB171) animation to complete
293: 0x0A09 [0x1C] WAIT(60* ticks)
294: 0x0A0C [0x52] END_LOAD_SCHEDULER: End scheduler "sb07" with entities [EventEntity, EventEntity], work=640*
295: 0x0A1B [0x02] IF !(LocalPlayer->Race == 2*) GOTO 0x0A37
296: 0x0A23 [0x45] LOAD_SCHEDULED_TASK: Load scheduler "sb23" with entities [EventEntity, EventEntity], work=[640*, 0*]
297: 0x0A34 [0x01] GOTO 0x0A9C
298: 0x0A37 [0x02] IF !(LocalPlayer->Race == 5*) GOTO 0x0A53
299: 0x0A3F [0x45] LOAD_SCHEDULED_TASK: Load scheduler "sb24" with entities [EventEntity, EventEntity], work=[640*, 0*]
300: 0x0A50 [0x01] GOTO 0x0A9C
301: 0x0A53 [0x02] IF !(LocalPlayer->Race == 6*) GOTO 0x0A6F
302: 0x0A5B [0x45] LOAD_SCHEDULED_TASK: Load scheduler "sb24" with entities [EventEntity, EventEntity], work=[640*, 0*]
303: 0x0A6C [0x01] GOTO 0x0A9C
304: 0x0A6F [0x02] IF !(LocalPlayer->Race == 7*) GOTO 0x0A8B
305: 0x0A77 [0x45] LOAD_SCHEDULED_TASK: Load scheduler "sb25" with entities [EventEntity, EventEntity], work=[640*, 0*]
306: 0x0A88 [0x01] GOTO 0x0A9C
307: 0x0A8B [0x45] LOAD_SCHEDULED_TASK: Load scheduler "sb08" with entities [EventEntity, EventEntity], work=[640*, 0*]

SUBROUTINE_0A9C:
308: 0x0A9C [0x6E] Mumor (ID: 17740145/0x010EB171) uses emote 67*
309: 0x0AA3 [0x99] Wait for Mumor (ID: 17740145/0x010EB171) animation to complete
310: 0x0AA8 [0x2B] Mumor (ID: 17740145/0x010EB171) [8874*]:
    → "...We'll sing and twist until the sun shines through!"
311: 0x0AAF [0x1C] WAIT(210* ticks)
312: 0x0AB2 [0x23] WAIT_FOR_DIALOG_INTERACTION
313: 0x0AB3 [0x6E] Mumor (ID: 17740145/0x010EB171) uses emote 36*
314: 0x0ABA [0x99] Wait for Mumor (ID: 17740145/0x010EB171) animation to complete
315: 0x0ABF [0x2B] Mumor (ID: 17740145/0x010EB171) [8875*]:
    → "Yes, that's perfect!t"
316: 0x0AC6 [0x1C] WAIT(120* ticks)
317: 0x0AC9 [0x23] WAIT_FOR_DIALOG_INTERACTION
318: 0x0ACA [0x02] IF !(LocalPlayer->Race == 2*) GOTO 0x0AE4
319: 0x0AD2 [0x52] END_LOAD_SCHEDULER: End scheduler "sb23" with entities [EventEntity, EventEntity], work=640*
320: 0x0AE1 [0x01] GOTO 0x0B41
321: 0x0AE4 [0x02] IF !(LocalPlayer->Race == 5*) GOTO 0x0AFE
322: 0x0AEC [0x52] END_LOAD_SCHEDULER: End scheduler "sb24" with entities [EventEntity, EventEntity], work=640*
323: 0x0AFB [0x01] GOTO 0x0B41
324: 0x0AFE [0x02] IF !(LocalPlayer->Race == 6*) GOTO 0x0B18
325: 0x0B06 [0x52] END_LOAD_SCHEDULER: End scheduler "sb24" with entities [EventEntity, EventEntity], work=640*
326: 0x0B15 [0x01] GOTO 0x0B41
327: 0x0B18 [0x02] IF !(LocalPlayer->Race == 7*) GOTO 0x0B32
328: 0x0B20 [0x52] END_LOAD_SCHEDULER: End scheduler "sb25" with entities [EventEntity, EventEntity], work=640*
329: 0x0B2F [0x01] GOTO 0x0B41
330: 0x0B32 [0x52] END_LOAD_SCHEDULER: End scheduler "sb08" with entities [EventEntity, EventEntity], work=640*

SUBROUTINE_0B41:
331: 0x0B41 [0x45] LOAD_SCHEDULED_TASK: Load scheduler "sb09" with entities [EventEntity, EventEntity], work=[640*, 0*]
332: 0x0B52 [0x1C] WAIT(15* ticks)
333: 0x0B55 [0x6E] Mumor (ID: 17740144/0x010EB170) uses emote 11*
334: 0x0B5C [0x99] Wait for Mumor (ID: 17740144/0x010EB170) animation to complete
335: 0x0B61 [0x2B] Mumor (ID: 17740144/0x010EB170) [8876*]:
    → "Wow! It's like I came up with it myself!"
336: 0x0B68 [0x1C] WAIT(150* ticks)
337: 0x0B6B [0x23] WAIT_FOR_DIALOG_INTERACTION
338: 0x0B6C [0x4A] Mumor (ID: 17740144/0x010EB170) looks at LocalPlayer
339: 0x0B75 [0x52] END_LOAD_SCHEDULER: End scheduler "sb09" with entities [EventEntity, EventEntity], work=640*
340: 0x0B84 [0x02] IF !(LocalPlayer->Race == 2*) GOTO 0x0BA0
341: 0x0B8C [0x45] LOAD_SCHEDULED_TASK: Load scheduler "sb26" with entities [EventEntity, EventEntity], work=[640*, 0*]
342: 0x0B9D [0x01] GOTO 0x0C05
343: 0x0BA0 [0x02] IF !(LocalPlayer->Race == 5*) GOTO 0x0BBC
344: 0x0BA8 [0x45] LOAD_SCHEDULED_TASK: Load scheduler "sb27" with entities [EventEntity, EventEntity], work=[640*, 0*]
345: 0x0BB9 [0x01] GOTO 0x0C05
346: 0x0BBC [0x02] IF !(LocalPlayer->Race == 6*) GOTO 0x0BD8
347: 0x0BC4 [0x45] LOAD_SCHEDULED_TASK: Load scheduler "sb27" with entities [EventEntity, EventEntity], work=[640*, 0*]
348: 0x0BD5 [0x01] GOTO 0x0C05
349: 0x0BD8 [0x02] IF !(LocalPlayer->Race == 7*) GOTO 0x0BF4
350: 0x0BE0 [0x45] LOAD_SCHEDULED_TASK: Load scheduler "sb28" with entities [EventEntity, EventEntity], work=[640*, 0*]
351: 0x0BF1 [0x01] GOTO 0x0C05
352: 0x0BF4 [0x45] LOAD_SCHEDULED_TASK: Load scheduler "sb10" with entities [EventEntity, EventEntity], work=[640*, 0*]

SUBROUTINE_0C05:
353: 0x0C05 [0x1C] WAIT(15* ticks)
354: 0x0C08 [0x1E] EventEntity looks at Mumor (ID: 17740144/0x010EB170) and starts talking
355: 0x0C0D [0x4A] LocalPlayer looks at Mumor (ID: 17740144/0x010EB170)
356: 0x0C16 [0x6F] WAIT_FRAME_DELAY: Yield until WaitTime reaches zero
357: 0x0C17 [0x76] CHECK_ENTITY_RENDER_FLAGS: Wait until Mumor (ID: 17740144/0x010EB170) Render.Flags0 and Render.Flags3 conditions are met
358: 0x0C1C [0x1C] WAIT(15* ticks)
359: 0x0C1F [0x6E] Mumor (ID: 17740144/0x010EB170) uses emote 7*
360: 0x0C26 [0x99] Wait for Mumor (ID: 17740144/0x010EB170) animation to complete
361: 0x0C2B [0x2B] Mumor (ID: 17740144/0x010EB170) [8877*]:
    → "Now we can be together all year round, not just at the Sunbreeze Festival!"
362: 0x0C32 [0x1C] WAIT(150* ticks)
363: 0x0C35 [0x23] WAIT_FOR_DIALOG_INTERACTION
364: 0x0C36 [0x7B] Mumor (ID: 17740144/0x010EB170) stops talking
365: 0x0C3B [0x02] IF !(LocalPlayer->Race == 2*) GOTO 0x0C55
366: 0x0C43 [0x52] END_LOAD_SCHEDULER: End scheduler "sb26" with entities [EventEntity, EventEntity], work=640*
367: 0x0C52 [0x01] GOTO 0x0CB2
368: 0x0C55 [0x02] IF !(LocalPlayer->Race == 5*) GOTO 0x0C6F
369: 0x0C5D [0x52] END_LOAD_SCHEDULER: End scheduler "sb27" with entities [EventEntity, EventEntity], work=640*
370: 0x0C6C [0x01] GOTO 0x0CB2
371: 0x0C6F [0x02] IF !(LocalPlayer->Race == 6*) GOTO 0x0C89
372: 0x0C77 [0x52] END_LOAD_SCHEDULER: End scheduler "sb27" with entities [EventEntity, EventEntity], work=640*
373: 0x0C86 [0x01] GOTO 0x0CB2
374: 0x0C89 [0x02] IF !(LocalPlayer->Race == 7*) GOTO 0x0CA3
375: 0x0C91 [0x52] END_LOAD_SCHEDULER: End scheduler "sb28" with entities [EventEntity, EventEntity], work=640*
376: 0x0CA0 [0x01] GOTO 0x0CB2
377: 0x0CA3 [0x52] END_LOAD_SCHEDULER: End scheduler "sb10" with entities [EventEntity, EventEntity], work=640*

SUBROUTINE_0CB2:
378: 0x0CB2 [0x45] LOAD_SCHEDULED_TASK: Load scheduler "sb29" with entities [EventEntity, EventEntity], work=[640*, 0*]
379: 0x0CC3 [0x6E] Mumor (ID: 17740144/0x010EB170) uses emote 10*
380: 0x0CCA [0x99] Wait for Mumor (ID: 17740144/0x010EB170) animation to complete
381: 0x0CCF [0x2B] Mumor (ID: 17740144/0x010EB170) [8878*]:
    → "/%LM$3X$3e$3473989) But as friends, not as performer and fan. I've got to keep my voice pristine for next year!$26"
382: 0x0CD6 [0x1C] WAIT(210* ticks)
383: 0x0CD9 [0x23] WAIT_FOR_DIALOG_INTERACTION
384: 0x0CDA [0x45] LOAD_SCHEDULED_TASK: Load scheduler "fdo1" with entities [LocalPlayer, LocalPlayer], work=[200*, 0*]
385: 0x0CEB [0x55] WAIT_LOAD_SCHEDULER: Wait for scheduler "fdo1" with entities [LocalPlayer, LocalPlayer], work=200*
386: 0x0CFA [0x52] END_LOAD_SCHEDULER: End scheduler "sb29" with entities [EventEntity, EventEntity], work=640*
387: 0x0D09 [0x5C] MUSIC_CONTROL: Set Idle (Day) music to song 152*
388: 0x0D0D [0x5C] MUSIC_CONTROL: Set Idle (Night) music to song 152*
389: 0x0D11 [0x1C] WAIT(15* ticks)
390: 0x0D14 [0xAB] EventEntity->DespawnValue = 0* // Set despawn value
391: 0x0D18 [0x1C] WAIT(1* ticks)
392: 0x0D1B [0x45] LOAD_SCHEDULED_TASK: Load scheduler "qstc" with entities [EventEntity, EventEntity], work=[201*, 0*]
393: 0x0D2C [0x46] CAMERA_CONTROL: Restore default settings
394: 0x0D2E [0x45] LOAD_SCHEDULED_TASK: Load scheduler "fdi1" with entities [LocalPlayer, LocalPlayer], work=[200*, 0*]
395: 0x0D3F [0x21] END_EVENT
396: 0x0D40 [0x00] END_REQSTACK()
```

### Event 611

#### Metadata

| Field        | Value      |
|--------------|------------|
| Entrypoint   | 0x0D41     |
| Data Size    | 1959 bytes |
| Instructions | 249        |

```
      00 01 02 03 04 05 06 07  08 09 0A 0B 0C 0D 0E 0F
      -- -- -- -- -- -- -- --  -- -- -- -- -- -- -- --
0D40:    42 45 17 80 F0 FF FF  7F F0 FF FF 7F 66 64 6F   BE..........fdo
0D50: 31 00 80 55 17 80 F0 FF  FF 7F F0 FF FF 7F 66 64  1..U..........fd
0D60: 6F 31 46 01 38 18 80 22  00 92 01 F8 FF FF 7F 2F  o1F.8.."......./
0D70: 00 70 B1 0E 01 2F 00 71  B1 0E 01 2F 00 72 B1 0E  .p.../.q.../.r..
0D80: 01 4E 00 70 B1 0E 01 4E  00 72 B1 0E 01 27 10 70  .N.p...N.r...'.p
0D90: B1 0E 01 05 29 10 71 B1  0E 01 05 94 01 70 B1 0E  ....).q......p..
0DA0: 01 94 01 71 B1 0E 01 94  01 F0 FF FF 7F 59 05 71  ...q.........Y.q
0DB0: B1 0E 01 01 59 05 72 B1  0E 01 00 BA F0 FF FF 7F  ....Y.r.........
0DC0: 5B 80 5C 80 1B 80 1C 80  BA 70 B1 0E 01 1D 80 1E  [.\......p......
0DD0: 80 1B 80 1F 80 BA 71 B1  0E 01 5D 80 5E 80 5F 80  ......q...].^._.
0DE0: 22 80 BA 72 B1 0E 01 60  80 61 80 1B 80 1F 80 1E  "..r...`.a......
0DF0: F0 FF FF 7F 4A F0 FF FF  7F F8 FF FF 7F 7B F0 FF  ....J........{..
0E00: FF 7F 4A 71 B1 0E 01 70  B1 0E 01 7B 71 B1 0E 01  ..Jq...p...{q...
0E10: 4A 72 B1 0E 01 71 B1 0E  01 6C 71 B1 0E 01 62 80  Jr...q...lq...b.
0E20: 0D 80 80 70 B1 0E 01 5C  00 45 80 5C 01 45 80 9A  ...p...\.E.\.E..
0E30: 02 87 7F 25 80 80 4C 0E  45 63 80 F8 FF FF 7F F8  ...%..L.Ec......
0E40: FF FF 7F 73 62 32 30 00  80 01 95 0E 02 87 7F 26  ...sb20........&
0E50: 80 80 68 0E 45 63 80 F8  FF FF 7F F8 FF FF 7F 73  ..h.Ec.........s
0E60: 62 32 30 00 80 01 95 0E  02 87 7F 38 80 80 84 0E  b20........8....
0E70: 45 63 80 F8 FF FF 7F F8  FF FF 7F 73 62 34 30 00  Ec.........sb40.
0E80: 80 01 95 0E 45 63 80 F8  FF FF 7F F8 FF FF 7F 73  ....Ec.........s
0E90: 62 30 30 00 80 45 17 80  F0 FF FF 7F F0 FF FF 7F  b00..E..........
0EA0: 66 64 69 31 00 80 1C 28  80 2C F8 FF FF 7F F8 FF  fdi1...(.,......
0EB0: FF 7F 67 61 6B 30 1D 64  80 1C 2C 80 23 27 10 70  ..gak0.d..,.#'.p
0EC0: B1 0E 01 02 1C 2A 80 2B  70 B1 0E 01 65 80 1C 28  .....*.+p...e..(
0ED0: 80 2C F8 FF FF 7F F8 FF  FF 7F 67 61 6B 31 1C 28  .,........gak1.(
0EE0: 80 2A 10 70 B1 0E 01 27  10 70 B1 0E 01 07 4A 70  .*.p...'.p....Jp
0EF0: B1 0E 01 F8 FF FF 7F 23  4A F0 FF FF 7F 70 B1 0E  .......#J....p..
0F00: 01 1E 70 B1 0E 01 6F 70  1C 28 80 52 63 80 F8 FF  ..p...op.(.Rc...
0F10: FF 7F F8 FF FF 7F 73 62  30 30 52 63 80 F8 FF FF  ......sb00Rc....
0F20: 7F F8 FF FF 7F 73 62 32  30 52 63 80 F8 FF FF 7F  .....sb20Rc.....
0F30: F8 FF FF 7F 73 62 34 30  45 63 80 F8 FF FF 7F F8  ....sb40Ec......
0F40: FF FF 7F 73 62 30 31 00  80 2C F8 FF FF 7F F8 FF  ...sb01..,......
0F50: FF 7F 68 61 70 30 1D 66  80 1C 4A 80 23 2C F8 FF  ..hap0.f..J.#,..
0F60: FF 7F F8 FF FF 7F 68 61  70 31 52 63 80 F8 FF FF  ......hap1Rc....
0F70: 7F F8 FF FF 7F 73 62 30  31 45 63 80 F8 FF FF 7F  .....sb01Ec.....
0F80: F8 FF FF 7F 73 62 30 32  00 80 6E 70 B1 0E 01 26  ....sb02..np...&
0F90: 80 99 70 B1 0E 01 2B 70  B1 0E 01 67 80 1C 2C 80  ..p...+p...g..,.
0FA0: 23 02 87 7F 25 80 80 CC  0F 52 63 80 F8 FF FF 7F  #...%....Rc.....
0FB0: F8 FF FF 7F 73 62 30 32  45 63 80 F8 FF FF 7F F8  ....sb02Ec......
0FC0: FF FF 7F 73 62 32 33 00  80 01 17 10 02 87 7F 26  ...sb23........&
0FD0: 80 80 F7 0F 52 63 80 F8  FF FF 7F F8 FF FF 7F 73  ....Rc.........s
0FE0: 62 30 32 45 63 80 F8 FF  FF 7F F8 FF FF 7F 73 62  b02Ec.........sb
0FF0: 32 33 00 80 01 17 10 52  63 80 F8 FF FF 7F F8 FF  23.....Rc.......
1000: FF 7F 73 62 30 32 45 63  80 F8 FF FF 7F F8 FF FF  ..sb02Ec........
1010: 7F 73 62 30 33 00 80 24  68 80 00 80 00 80 25 02  .sb03..$h.....%.
1020: 00 10 00 80 00 2A 10 01  35 10 02 00 10 0D 80 00  .....*..5.......
1030: 35 10 01 35 10 6E F0 FF  FF 7F 69 80 99 F0 FF FF  5..5.n....i.....
1040: 7F 1C 23 80 4A 70 B1 0E  01 F0 FF FF 7F 1C 28 80  ..#.Jp........(.
1050: 6E 70 B1 0E 01 27 80 99  70 B1 0E 01 2B 70 B1 0E  np...'..p...+p..
1060: 01 6A 80 1C 2C 80 23 7B  70 B1 0E 01 7B F0 FF FF  .j..,.#{p...{...
1070: 7F 52 63 80 F8 FF FF 7F  F8 FF FF 7F 73 62 30 33  .Rc.........sb03
1080: 52 63 80 F8 FF FF 7F F8  FF FF 7F 73 62 32 33 45  Rc.........sb23E
1090: 63 80 F8 FF FF 7F F8 FF  FF 7F 73 62 30 34 00 80  c.........sb04..
10A0: 73 6B 80 72 B1 0E 01 72  B1 0E 01 1C 4F 80 29 10  sk.r...r....O.).
10B0: 70 B1 0E 01 06 73 6C 80  72 B1 0E 01 72 B1 0E 01  p....sl.r...r...
10C0: 1C 4B 80 52 63 80 F8 FF  FF 7F F8 FF FF 7F 73 62  .K.Rc.........sb
10D0: 30 34 45 63 80 F8 FF FF  7F F8 FF FF 7F 73 62 30  04Ec.........sb0
10E0: 35 00 80 66 18 80 70 B1  0E 01 70 B1 0E 01 74 68  5..f..p...p...th
10F0: 73 31 7C 00 70 B1 0E 01  81 00 70 B1 0E 01 2B 70  s1|.p.....p...+p
1100: B1 0E 01 6D 80 1C 2C 80  23 4E 00 71 B1 0E 01 4A  ...m..,.#N.q...J
1110: 71 B1 0E 01 70 B1 0E 01  2B 71 B1 0E 01 6E 80 1C  q...p...+q...n..
1120: 2C 80 23 27 10 71 B1 0E  01 06 7C 01 70 B1 0E 01  ,.#'.q....|.p...
1130: 66 18 80 70 B1 0E 01 70  B1 0E 01 74 68 73 32 1C  f..p...p...ths2.
1140: 23 80 52 63 80 F8 FF FF  7F F8 FF FF 7F 73 62 30  #.Rc.........sb0
1150: 35 45 63 80 F8 FF FF 7F  F8 FF FF 7F 73 62 30 36  5Ec.........sb06
1160: 00 80 1E 71 B1 0E 01 4A  70 B1 0E 01 71 B1 0E 01  ...q...Jp...q...
1170: 4A F0 FF FF 7F 71 B1 0E  01 2B 70 B1 0E 01 6F 80  J....q...+p...o.
1180: 1C 2C 80 23 81 01 70 B1  0E 01 CD 38 80 71 B1 0E  .,.#..p....8.q..
1190: 01 71 B1 0E 01 73 30 30  31 00 80 52 63 80 F8 FF  .q...s001..Rc...
11A0: FF 7F F8 FF FF 7F 73 62  30 36 45 63 80 F8 FF FF  ......sb06Ec....
11B0: 7F F8 FF FF 7F 73 62 30  37 00 80 2B 71 B1 0E 01  .....sb07..+q...
11C0: 70 80 1C 2C 80 23 52 63  80 F8 FF FF 7F F8 FF FF  p..,.#Rc........
11D0: 7F 73 62 30 37 45 63 80  F8 FF FF 7F F8 FF FF 7F  .sb07Ec.........
11E0: 73 62 30 38 00 80 7B 70  B1 0E 01 1C 28 80 27 10  sb08..{p....(.'.
11F0: 70 B1 0E 01 08 2B 70 B1  0E 01 71 80 1C 2C 80 23  p....+p...q..,.#
1200: 1C 28 80 52 63 80 F8 FF  FF 7F F8 FF FF 7F 73 62  .(.Rc.........sb
1210: 30 38 45 63 80 F8 FF FF  7F F8 FF FF 7F 73 62 30  08Ec.........sb0
1220: 37 00 80 2B 71 B1 0E 01  72 80 23 2B 71 B1 0E 01  7..+q...r.#+q...
1230: 73 80 23 2B 71 B1 0E 01  74 80 1C 2C 80 23 79 00  s.#+q...t..,.#y.
1240: 70 B1 0E 01 71 B1 0E 01  5C 00 2C 80 5C 01 2C 80  p...q...\.,.\.,.
1250: 02 87 7F 25 80 80 7B 12  52 63 80 F8 FF FF 7F F8  ...%..{.Rc......
1260: FF FF 7F 73 62 30 37 45  63 80 F8 FF FF 7F F8 FF  ...sb07Ec.......
1270: FF 7F 73 62 32 39 00 80  01 C6 12 02 87 7F 26 80  ..sb29........&.
1280: 80 A6 12 52 63 80 F8 FF  FF 7F F8 FF FF 7F 73 62  ...Rc.........sb
1290: 30 37 45 63 80 F8 FF FF  7F F8 FF FF 7F 73 62 32  07Ec.........sb2
12A0: 39 00 80 01 C6 12 52 63  80 F8 FF FF 7F F8 FF FF  9.....Rc........
12B0: 7F 73 62 30 37 45 63 80  F8 FF FF 7F F8 FF FF 7F  .sb07Ec.........
12C0: 73 62 30 39 00 80 1C 28  80 2B 70 B1 0E 01 75 80  sb09...(.+p...u.
12D0: 1C 2C 80 23 52 63 80 F8  FF FF 7F F8 FF FF 7F 73  .,.#Rc.........s
12E0: 62 30 39 52 63 80 F8 FF  FF 7F F8 FF FF 7F 73 62  b09Rc.........sb
12F0: 32 39 45 63 80 F8 FF FF  7F F8 FF FF 7F 73 62 31  29Ec.........sb1
1300: 30 00 80 7B 70 B1 0E 01  4A 71 B1 0E 01 F0 FF FF  0..{p...Jq......
1310: 7F 6F 76 71 B1 0E 01 1C  23 80 2B 71 B1 0E 01 76  .ovq....#.+q...v
1320: 80 23 2B 71 B1 0E 01 77  80 1C 2C 80 23 02 87 7F  .#+q...w..,.#...
1330: 25 80 80 58 13 52 63 80  F8 FF FF 7F F8 FF FF 7F  %..X.Rc.........
1340: 73 62 31 30 45 63 80 F8  FF FF 7F F8 FF FF 7F 73  sb10Ec.........s
1350: 62 33 31 00 80 01 CE 13  02 87 7F 26 80 80 83 13  b31........&....
1360: 52 63 80 F8 FF FF 7F F8  FF FF 7F 73 62 31 30 45  Rc.........sb10E
1370: 63 80 F8 FF FF 7F F8 FF  FF 7F 73 62 33 31 00 80  c.........sb31..
1380: 01 CE 13 02 87 7F 38 80  80 AE 13 52 63 80 F8 FF  ......8....Rc...
1390: FF 7F F8 FF FF 7F 73 62  31 30 45 63 80 F8 FF FF  ......sb10Ec....
13A0: 7F F8 FF FF 7F 73 62 35  31 00 80 01 CE 13 52 63  .....sb51.....Rc
13B0: 80 F8 FF FF 7F F8 FF FF  7F 73 62 31 30 45 63 80  .........sb10Ec.
13C0: F8 FF FF 7F F8 FF FF 7F  73 62 31 31 00 80 CD 38  ........sb11...8
13D0: 80 71 B1 0E 01 71 B1 0E  01 73 74 70 30 00 80 1C  .q...q...stp0...
13E0: 23 80 4A 70 B1 0E 01 F0  FF FF 7F 1C 2F 80 4A F0  #.Jp......../.J.
13F0: FF FF 7F 70 B1 0E 01 6F  76 70 B1 0E 01 1C 23 80  ...p...ovp....#.
1400: 6E 70 B1 0E 01 3A 80 99  70 B1 0E 01 2B 70 B1 0E  np...:..p...+p..
1410: 01 78 80 1C 2C 80 23 7B  70 B1 0E 01 52 63 80 F8  .x..,.#{p...Rc..
1420: FF FF 7F F8 FF FF 7F 73  62 31 31 52 63 80 F8 FF  .......sb11Rc...
1430: FF 7F F8 FF FF 7F 73 62  33 31 52 63 80 F8 FF FF  ......sb31Rc....
1440: 7F F8 FF FF 7F 73 62 35  31 45 63 80 F8 FF FF 7F  .....sb51Ec.....
1450: F8 FF FF 7F 73 62 31 32  00 80 6E 70 B1 0E 01 56  ....sb12..np...V
1460: 80 99 70 B1 0E 01 2B 70  B1 0E 01 79 80 1C 2C 80  ..p...+p...y..,.
1470: 23 45 17 80 F0 FF FF 7F  F0 FF FF 7F 66 64 6F 31  #E..........fdo1
1480: 00 80 55 17 80 F0 FF FF  7F F0 FF FF 7F 66 64 6F  ..U..........fdo
1490: 31 52 63 80 F8 FF FF 7F  F8 FF FF 7F 73 62 31 32  1Rc.........sb12
14A0: 5C 00 5A 80 5C 01 5A 80  59 05 71 B1 0E 01 00 6C  \.Z.\.Z.Y.q....l
14B0: 71 B1 0E 01 7A 80 0D 80  1C 2F 80 AB 11 00 80 1C  q...z..../......
14C0: 0D 80 45 44 80 F8 FF FF  7F F8 FF FF 7F 71 73 74  ..ED.........qst
14D0: 63 00 80 46 00 45 17 80  F0 FF FF 7F F0 FF FF 7F  c..F.E..........
14E0: 66 64 69 31 00 80 21 00                           fdi1..!.        
```

#### Opcodes

```
  0: 0x0D41 [0x42] SET_CLI_EVENT_CANCEL_DATA()
  1: 0x0D42 [0x45] LOAD_SCHEDULED_TASK: Load scheduler "fdo1" with entities [LocalPlayer, LocalPlayer], work=[200*, 0*]
  2: 0x0D53 [0x55] WAIT_LOAD_SCHEDULER: Wait for scheduler "fdo1" with entities [LocalPlayer, LocalPlayer], work=200*
  3: 0x0D62 [0x46] CAMERA_CONTROL: Disable user control
  4: 0x0D64 [0x38] SET_CLIENT_EVENT_MODE(mode=19*)
  5: 0x0D67 [0x22] ENTITY_HIDE_FLAG(enabled=0x00)
  6: 0x0D69 [0x92] EventEntity->Render.Flags3 ^= 0x01
  7: 0x0D6F [0x2F] Mumor (ID: 17740144/0x010EB170)->Render.Flags0 &= ~0x80000 // Bit 19
  8: 0x0D75 [0x2F] Mumor (ID: 17740145/0x010EB171)->Render.Flags0 &= ~0x80000 // Bit 19
  9: 0x0D7B [0x2F] Unnamed NPC (ID: 17740146/0x010EB172)->Render.Flags0 &= ~0x80000 // Bit 19
 10: 0x0D81 [0x4E] SET_ENTITY_HIDE_FLAG: Show Mumor (ID: 17740144/0x010EB170)
 11: 0x0D87 [0x4E] SET_ENTITY_HIDE_FLAG: Show Unnamed NPC (ID: 17740146/0x010EB172)
 12: 0x0D8D [0x27] REQ_SET(priority=0x10, entity_id=Mumor (ID: 17740144/0x010EB170), tag_num=0x05)
 13: 0x0D94 [0x29] REQ_SET_WAIT(priority=0x10, entity_id=Mumor (ID: 17740145/0x010EB171), tag_num=0x05)
 14: 0x0D9B [0x94] Mumor (ID: 17740144/0x010EB170)->Render.Flags3 ^= 0x01
 15: 0x0DA1 [0x94] Mumor (ID: 17740145/0x010EB171)->Render.Flags3 ^= 0x01
 16: 0x0DA7 [0x94] LocalPlayer->Render.Flags3 ^= 0x01
 17: 0x0DAD [0x59] UPDATE_ENTITY_DATA: Mumor (ID: 17740145/0x010EB171)->Render.Flags0 |= 0x200000
 18: 0x0DB4 [0x59] UPDATE_ENTITY_DATA: Unnamed NPC (ID: 17740146/0x010EB172)->Render.Flags0 &= ~0x200000
 19: 0x0DBB [0xBA] SET_ENTITY_POSITION(entity_id=LocalPlayer, pos_x=-188.030*, pos_z=-30.336*, pos_y=-8.000*, direction=377476129.3°*)
 20: 0x0DC8 [0xBA] SET_ENTITY_POSITION(entity_id=Mumor (ID: 17740144/0x010EB170), pos_x=-191.905*, pos_z=-35.781*, pos_y=-8.000*, direction=377476146.2°*)
 21: 0x0DD5 [0xBA] SET_ENTITY_POSITION(entity_id=Mumor (ID: 17740145/0x010EB171), pos_x=-179.319*, pos_z=-28.568*, pos_y=-20.000*, direction=377476105.0°*)
 22: 0x0DE2 [0xBA] SET_ENTITY_POSITION(entity_id=Unnamed NPC (ID: 17740146/0x010EB172), pos_x=-189.855*, pos_z=-31.892*, pos_y=-8.000*, direction=377476146.2°*)
 23: 0x0DEF [0x1E] EventEntity looks at LocalPlayer and starts talking
 24: 0x0DF4 [0x4A] LocalPlayer looks at EventEntity
 25: 0x0DFD [0x7B] LocalPlayer stops talking
 26: 0x0E02 [0x4A] Mumor (ID: 17740145/0x010EB171) looks at Mumor (ID: 17740144/0x010EB170)
 27: 0x0E0B [0x7B] Mumor (ID: 17740145/0x010EB171) stops talking
 28: 0x0E10 [0x4A] Unnamed NPC (ID: 17740146/0x010EB172) looks at Mumor (ID: 17740145/0x010EB171)
 29: 0x0E19 [0x6C] FADE_ENTITY_COLOR(entity_id=Mumor (ID: 17740145/0x010EB171), end_alpha=48*, fade_time=1*)
 30: 0x0E22 [0x80] LOAD_WAIT(entity=Mumor (ID: 17740144/0x010EB170))
 31: 0x0E27 [0x5C] MUSIC_CONTROL: Set Idle (Day) music to song 163*
 32: 0x0E2B [0x5C] MUSIC_CONTROL: Set Idle (Night) music to song 163*
 33: 0x0E2F [0x9A] WAIT_MUSIC_SERVER()
 34: 0x0E30 [0x02] IF !(LocalPlayer->Race == 5*) GOTO 0x0E4C
 35: 0x0E38 [0x45] LOAD_SCHEDULED_TASK: Load scheduler "sb20" with entities [EventEntity, EventEntity], work=[779*, 0*]
 36: 0x0E49 [0x01] GOTO 0x0E95
 37: 0x0E4C [0x02] IF !(LocalPlayer->Race == 6*) GOTO 0x0E68
 38: 0x0E54 [0x45] LOAD_SCHEDULED_TASK: Load scheduler "sb20" with entities [EventEntity, EventEntity], work=[779*, 0*]
 39: 0x0E65 [0x01] GOTO 0x0E95
 40: 0x0E68 [0x02] IF !(LocalPlayer->Race == 8*) GOTO 0x0E84
 41: 0x0E70 [0x45] LOAD_SCHEDULED_TASK: Load scheduler "sb40" with entities [EventEntity, EventEntity], work=[779*, 0*]
 42: 0x0E81 [0x01] GOTO 0x0E95
 43: 0x0E84 [0x45] LOAD_SCHEDULED_TASK: Load scheduler "sb00" with entities [EventEntity, EventEntity], work=[779*, 0*]

SUBROUTINE_0E95:
 44: 0x0E95 [0x45] LOAD_SCHEDULED_TASK: Load scheduler "fdi1" with entities [LocalPlayer, LocalPlayer], work=[200*, 0*]
 45: 0x0EA6 [0x1C] WAIT(60* ticks)
 46: 0x0EA9 [0x2C] CREATE_SCHEDULER_TASK: Create scheduler "gak0" with entities [EventEntity, EventEntity]
 47: 0x0EB6 [0x1D] PRINT_EVENT_MESSAGE(message_id=8843*)
    → "Kupopo... Mumor's woeful one-woman wail split my skull in six!"
 48: 0x0EB9 [0x1C] WAIT(120* ticks)
 49: 0x0EBC [0x23] WAIT_FOR_DIALOG_INTERACTION
 50: 0x0EBD [0x27] REQ_SET(priority=0x10, entity_id=Mumor (ID: 17740144/0x010EB170), tag_num=0x02)
 51: 0x0EC4 [0x1C] WAIT(90* ticks)
 52: 0x0EC7 [0x2B] Mumor (ID: 17740144/0x010EB170) [8844*]:
    → "Oh dear. I knew I shouldn't have tried to hit that high note..."
 53: 0x0ECE [0x1C] WAIT(60* ticks)
 54: 0x0ED1 [0x2C] CREATE_SCHEDULER_TASK: Create scheduler "gak1" with entities [EventEntity, EventEntity]
 55: 0x0EDE [0x1C] WAIT(60* ticks)
 56: 0x0EE1 [0x2A] GET_REQ_LEVEL(level=16, entity_id=Mumor (ID: 17740144/0x010EB170))
 57: 0x0EE7 [0x27] REQ_SET(priority=0x10, entity_id=Mumor (ID: 17740144/0x010EB170), tag_num=0x07)
 58: 0x0EEE [0x4A] Mumor (ID: 17740144/0x010EB170) looks at EventEntity
 59: 0x0EF7 [0x23] WAIT_FOR_DIALOG_INTERACTION
 60: 0x0EF8 [0x4A] LocalPlayer looks at Mumor (ID: 17740144/0x010EB170)
 61: 0x0F01 [0x1E] EventEntity looks at Mumor (ID: 17740144/0x010EB170) and starts talking
 62: 0x0F06 [0x6F] WAIT_FRAME_DELAY: Yield until WaitTime reaches zero
 63: 0x0F07 [0x70] WAIT_ENTITY_RENDER_FLAG: Wait while EventEntity->Render.Flags3 bit 2 is set (cancel turn if not)
 64: 0x0F08 [0x1C] WAIT(60* ticks)
 65: 0x0F0B [0x52] END_LOAD_SCHEDULER: End scheduler "sb00" with entities [EventEntity, EventEntity], work=779*
 66: 0x0F1A [0x52] END_LOAD_SCHEDULER: End scheduler "sb20" with entities [EventEntity, EventEntity], work=779*
 67: 0x0F29 [0x52] END_LOAD_SCHEDULER: End scheduler "sb40" with entities [EventEntity, EventEntity], work=779*
 68: 0x0F38 [0x45] LOAD_SCHEDULED_TASK: Load scheduler "sb01" with entities [EventEntity, EventEntity], work=[779*, 0*]
 69: 0x0F49 [0x2C] CREATE_SCHEDULER_TASK: Create scheduler "hap0" with entities [EventEntity, EventEntity]
 70: 0x0F56 [0x1D] PRINT_EVENT_MESSAGE(message_id=8845*)
    → "M-Mumor! Don't worry! It's...nothing that practice couldn't fix, kupo."
 71: 0x0F59 [0x1C] WAIT(180* ticks)
 72: 0x0F5C [0x23] WAIT_FOR_DIALOG_INTERACTION
 73: 0x0F5D [0x2C] CREATE_SCHEDULER_TASK: Create scheduler "hap1" with entities [EventEntity, EventEntity]
 74: 0x0F6A [0x52] END_LOAD_SCHEDULER: End scheduler "sb01" with entities [EventEntity, EventEntity], work=779*
 75: 0x0F79 [0x45] LOAD_SCHEDULED_TASK: Load scheduler "sb02" with entities [EventEntity, EventEntity], work=[779*, 0*]
 76: 0x0F8A [0x6E] Mumor (ID: 17740144/0x010EB170) uses emote 6*
 77: 0x0F91 [0x99] Wait for Mumor (ID: 17740144/0x010EB170) animation to complete
 78: 0x0F96 [0x2B] Mumor (ID: 17740144/0x010EB170) [8846*]:
    → "You don't have to butter me up. I know that my vocal cards aren't cut out for it. But heavens, what good is an idol who can't sing?"
 79: 0x0F9D [0x1C] WAIT(120* ticks)
 80: 0x0FA0 [0x23] WAIT_FOR_DIALOG_INTERACTION
 81: 0x0FA1 [0x02] IF !(LocalPlayer->Race == 5*) GOTO 0x0FCC
 82: 0x0FA9 [0x52] END_LOAD_SCHEDULER: End scheduler "sb02" with entities [EventEntity, EventEntity], work=779*
 83: 0x0FB8 [0x45] LOAD_SCHEDULED_TASK: Load scheduler "sb23" with entities [EventEntity, EventEntity], work=[779*, 0*]
 84: 0x0FC9 [0x01] GOTO 0x1017
 85: 0x0FCC [0x02] IF !(LocalPlayer->Race == 6*) GOTO 0x0FF7
 86: 0x0FD4 [0x52] END_LOAD_SCHEDULER: End scheduler "sb02" with entities [EventEntity, EventEntity], work=779*
 87: 0x0FE3 [0x45] LOAD_SCHEDULED_TASK: Load scheduler "sb23" with entities [EventEntity, EventEntity], work=[779*, 0*]
 88: 0x0FF4 [0x01] GOTO 0x1017
 89: 0x0FF7 [0x52] END_LOAD_SCHEDULER: End scheduler "sb02" with entities [EventEntity, EventEntity], work=779*
 90: 0x1006 [0x45] LOAD_SCHEDULED_TASK: Load scheduler "sb03" with entities [EventEntity, EventEntity], work=[779*, 0*]

SUBROUTINE_1017:
 91: 0x1017 [0x24] CREATE_DIALOG(message_id=8847*, default_option=0*, option_flags=0*)
    → "How do you respond? [Different strokes for different folks!/Hey, you've got the looks!]"
 92: 0x101E [0x25] WAIT_DIALOG_SELECT()
 93: 0x101F [0x02] IF !(Work_Zone[0] == 0*) GOTO 0x102A
 94: 0x1027 [0x01] GOTO 0x1035
 95: 0x102A [0x02] IF !(Work_Zone[0] == 1*) GOTO 0x1035
 96: 0x1032 [0x01] GOTO 0x1035

SUBROUTINE_1035:
 97: 0x1035 [0x6E] LocalPlayer uses emote 12*
 98: 0x103C [0x99] Wait for LocalPlayer animation to complete
 99: 0x1041 [0x1C] WAIT(30* ticks)
100: 0x1044 [0x4A] Mumor (ID: 17740144/0x010EB170) looks at LocalPlayer
101: 0x104D [0x1C] WAIT(60* ticks)
102: 0x1050 [0x6E] Mumor (ID: 17740144/0x010EB170) uses emote 7*
103: 0x1057 [0x99] Wait for Mumor (ID: 17740144/0x010EB170) animation to complete
104: 0x105C [0x2B] Mumor (ID: 17740144/0x010EB170) [8848*]:
    → "That's sweet as sugar of you to say. I promise I'll work really, really hard for next year!"
105: 0x1063 [0x1C] WAIT(120* ticks)
106: 0x1066 [0x23] WAIT_FOR_DIALOG_INTERACTION
107: 0x1067 [0x7B] Mumor (ID: 17740144/0x010EB170) stops talking
108: 0x106C [0x7B] LocalPlayer stops talking
109: 0x1071 [0x52] END_LOAD_SCHEDULER: End scheduler "sb03" with entities [EventEntity, EventEntity], work=779*
110: 0x1080 [0x52] END_LOAD_SCHEDULER: End scheduler "sb23" with entities [EventEntity, EventEntity], work=779*
111: 0x108F [0x45] LOAD_SCHEDULED_TASK: Load scheduler "sb04" with entities [EventEntity, EventEntity], work=[779*, 0*]
112: 0x10A0 [0x73] Unnamed NPC (ID: 17740146/0x010EB172) casts magic 262* on Unnamed NPC (ID: 17740146/0x010EB172)
113: 0x10AB [0x1C] WAIT(150* ticks)
114: 0x10AE [0x29] REQ_SET_WAIT(priority=0x10, entity_id=Mumor (ID: 17740144/0x010EB170), tag_num=0x06)
115: 0x10B5 [0x73] Unnamed NPC (ID: 17740146/0x010EB172) casts magic 263* on Unnamed NPC (ID: 17740146/0x010EB172)
116: 0x10C0 [0x1C] WAIT(240* ticks)
117: 0x10C3 [0x52] END_LOAD_SCHEDULER: End scheduler "sb04" with entities [EventEntity, EventEntity], work=779*
118: 0x10D2 [0x45] LOAD_SCHEDULED_TASK: Load scheduler "sb05" with entities [EventEntity, EventEntity], work=[779*, 0*]
119: 0x10E3 [0x66] LOAD_EXT_SCHEDULER_MAIN: Load scheduler "ths1" with entities [Mumor (ID: 17740144/0x010EB170), Mumor (ID: 17740144/0x010EB170)], work=19*
120: 0x10F2 [0x7C] Mumor (ID: 17740144/0x010EB170)->Render.Flags2 |= 0x00
121: 0x10F8 [0x81] SET_ENTITY_BLINKING(blink_flag=0x00, entity=Mumor (ID: 17740144/0x010EB170))
122: 0x10FE [0x2B] Mumor (ID: 17740144/0x010EB170) [8849*]:
    → "Well, that's another shade of white! I didn't use Daddy's wand, so why...?"
123: 0x1105 [0x1C] WAIT(120* ticks)
124: 0x1108 [0x23] WAIT_FOR_DIALOG_INTERACTION
125: 0x1109 [0x4E] SET_ENTITY_HIDE_FLAG: Show Mumor (ID: 17740145/0x010EB171)
126: 0x110F [0x4A] Mumor (ID: 17740145/0x010EB171) looks at Mumor (ID: 17740144/0x010EB170)
127: 0x1118 [0x2B] Mumor (ID: 17740145/0x010EB171) [8850*]:
    → "Well done, my dear. Well done."
128: 0x111F [0x1C] WAIT(120* ticks)
129: 0x1122 [0x23] WAIT_FOR_DIALOG_INTERACTION
130: 0x1123 [0x27] REQ_SET(priority=0x10, entity_id=Mumor (ID: 17740145/0x010EB171), tag_num=0x06)
131: 0x112A [0x7C] Mumor (ID: 17740144/0x010EB170)->Render.Flags2 |= 0x01
132: 0x1130 [0x66] LOAD_EXT_SCHEDULER_MAIN: Load scheduler "ths2" with entities [Mumor (ID: 17740144/0x010EB170), Mumor (ID: 17740144/0x010EB170)], work=19*
133: 0x113F [0x1C] WAIT(30* ticks)
134: 0x1142 [0x52] END_LOAD_SCHEDULER: End scheduler "sb05" with entities [EventEntity, EventEntity], work=779*
135: 0x1151 [0x45] LOAD_SCHEDULED_TASK: Load scheduler "sb06" with entities [EventEntity, EventEntity], work=[779*, 0*]
136: 0x1162 [0x1E] EventEntity looks at Mumor (ID: 17740145/0x010EB171) and starts talking
137: 0x1167 [0x4A] Mumor (ID: 17740144/0x010EB170) looks at Mumor (ID: 17740145/0x010EB171)
138: 0x1170 [0x4A] LocalPlayer looks at Mumor (ID: 17740145/0x010EB171)
139: 0x1179 [0x2B] Mumor (ID: 17740144/0x010EB170) [8851*]:
    → "Daddy!"
140: 0x1180 [0x1C] WAIT(120* ticks)
141: 0x1183 [0x23] WAIT_FOR_DIALOG_INTERACTION
142: 0x1184 [0x81] SET_ENTITY_BLINKING(blink_flag=0x01, entity=Mumor (ID: 17740144/0x010EB170))
143: 0x118A [0xCD] LOAD_SCHEDULED_TASK_ALT4: Load scheduler "s001" with entities [Mumor (ID: 17740145/0x010EB171), Mumor (ID: 17740145/0x010EB171)], work=[8*, 0*]
144: 0x119B [0x52] END_LOAD_SCHEDULER: End scheduler "sb06" with entities [EventEntity, EventEntity], work=779*
145: 0x11AA [0x45] LOAD_SCHEDULED_TASK: Load scheduler "sb07" with entities [EventEntity, EventEntity], work=[779*, 0*]
146: 0x11BB [0x2B] Mumor (ID: 17740145/0x010EB171) [8852*]:
    → "Your spirit and emotions were dazzling, and your adoring fans were with you every step of the way. If anyone is worthy of being called an idol, it's you."
147: 0x11C2 [0x1C] WAIT(120* ticks)
148: 0x11C5 [0x23] WAIT_FOR_DIALOG_INTERACTION
149: 0x11C6 [0x52] END_LOAD_SCHEDULER: End scheduler "sb07" with entities [EventEntity, EventEntity], work=779*
150: 0x11D5 [0x45] LOAD_SCHEDULED_TASK: Load scheduler "sb08" with entities [EventEntity, EventEntity], work=[779*, 0*]
151: 0x11E6 [0x7B] Mumor (ID: 17740144/0x010EB170) stops talking
152: 0x11EB [0x1C] WAIT(60* ticks)
153: 0x11EE [0x27] REQ_SET(priority=0x10, entity_id=Mumor (ID: 17740144/0x010EB170), tag_num=0x08)
154: 0x11F5 [0x2B] Mumor (ID: 17740144/0x010EB170) [8853*]:
    → "Do you really think I'm worthy? But...my singing..."
155: 0x11FC [0x1C] WAIT(120* ticks)
156: 0x11FF [0x23] WAIT_FOR_DIALOG_INTERACTION
157: 0x1200 [0x1C] WAIT(60* ticks)
158: 0x1203 [0x52] END_LOAD_SCHEDULER: End scheduler "sb08" with entities [EventEntity, EventEntity], work=779*
159: 0x1212 [0x45] LOAD_SCHEDULED_TASK: Load scheduler "sb07" with entities [EventEntity, EventEntity], work=[779*, 0*]
160: 0x1223 [0x2B] Mumor (ID: 17740145/0x010EB171) [8854*]:
    → "Being an idol isn't only about singing and dancing."
161: 0x122A [0x23] WAIT_FOR_DIALOG_INTERACTION
162: 0x122B [0x2B] Mumor (ID: 17740145/0x010EB171) [8855*]:
    → "It's about winning the hearts of your fans and having them support you through thick and thin."
163: 0x1232 [0x23] WAIT_FOR_DIALOG_INTERACTION
164: 0x1233 [0x2B] Mumor (ID: 17740145/0x010EB171) [8856*]:
    → "I raised you to be an idol so that one day you might save the world. A father could be no prouder of his daughter."
165: 0x123A [0x1C] WAIT(120* ticks)
166: 0x123D [0x23] WAIT_FOR_DIALOG_INTERACTION
167: 0x123E [0x79] Mumor (ID: 17740144/0x010EB170) looks at Mumor (ID: 17740145/0x010EB171) (Basic look)
168: 0x1248 [0x5C] MUSIC_CONTROL: Set Idle (Day) music to song 120*
169: 0x124C [0x5C] MUSIC_CONTROL: Set Idle (Night) music to song 120*
170: 0x1250 [0x02] IF !(LocalPlayer->Race == 5*) GOTO 0x127B
171: 0x1258 [0x52] END_LOAD_SCHEDULER: End scheduler "sb07" with entities [EventEntity, EventEntity], work=779*
172: 0x1267 [0x45] LOAD_SCHEDULED_TASK: Load scheduler "sb29" with entities [EventEntity, EventEntity], work=[779*, 0*]
173: 0x1278 [0x01] GOTO 0x12C6
174: 0x127B [0x02] IF !(LocalPlayer->Race == 6*) GOTO 0x12A6
175: 0x1283 [0x52] END_LOAD_SCHEDULER: End scheduler "sb07" with entities [EventEntity, EventEntity], work=779*
176: 0x1292 [0x45] LOAD_SCHEDULED_TASK: Load scheduler "sb29" with entities [EventEntity, EventEntity], work=[779*, 0*]
177: 0x12A3 [0x01] GOTO 0x12C6
178: 0x12A6 [0x52] END_LOAD_SCHEDULER: End scheduler "sb07" with entities [EventEntity, EventEntity], work=779*
179: 0x12B5 [0x45] LOAD_SCHEDULED_TASK: Load scheduler "sb09" with entities [EventEntity, EventEntity], work=[779*, 0*]

SUBROUTINE_12C6:
180: 0x12C6 [0x1C] WAIT(60* ticks)
181: 0x12C9 [0x2B] Mumor (ID: 17740144/0x010EB170) [8857*]:
    → "Oh, Daddy..."
182: 0x12D0 [0x1C] WAIT(120* ticks)
183: 0x12D3 [0x23] WAIT_FOR_DIALOG_INTERACTION
184: 0x12D4 [0x52] END_LOAD_SCHEDULER: End scheduler "sb09" with entities [EventEntity, EventEntity], work=779*
185: 0x12E3 [0x52] END_LOAD_SCHEDULER: End scheduler "sb29" with entities [EventEntity, EventEntity], work=779*
186: 0x12F2 [0x45] LOAD_SCHEDULED_TASK: Load scheduler "sb10" with entities [EventEntity, EventEntity], work=[779*, 0*]
187: 0x1303 [0x7B] Mumor (ID: 17740144/0x010EB170) stops talking
188: 0x1308 [0x4A] Mumor (ID: 17740145/0x010EB171) looks at LocalPlayer
189: 0x1311 [0x6F] WAIT_FRAME_DELAY: Yield until WaitTime reaches zero
190: 0x1312 [0x76] CHECK_ENTITY_RENDER_FLAGS: Wait until Mumor (ID: 17740145/0x010EB171) Render.Flags0 and Render.Flags3 conditions are met
191: 0x1317 [0x1C] WAIT(30* ticks)
192: 0x131A [0x2B] Mumor (ID: 17740145/0x010EB171) [8858*]:
    → "My fine [lad/young woman], your support of Mumor throughout the years has meant the world to me."
193: 0x1321 [0x23] WAIT_FOR_DIALOG_INTERACTION
194: 0x1322 [0x2B] Mumor (ID: 17740145/0x010EB171) [8859*]:
    → "This I promise--as dedicated as her fans are to her, she is twice as dedicated to them."
195: 0x1329 [0x1C] WAIT(120* ticks)
196: 0x132C [0x23] WAIT_FOR_DIALOG_INTERACTION
197: 0x132D [0x02] IF !(LocalPlayer->Race == 5*) GOTO 0x1358
198: 0x1335 [0x52] END_LOAD_SCHEDULER: End scheduler "sb10" with entities [EventEntity, EventEntity], work=779*
199: 0x1344 [0x45] LOAD_SCHEDULED_TASK: Load scheduler "sb31" with entities [EventEntity, EventEntity], work=[779*, 0*]
200: 0x1355 [0x01] GOTO 0x13CE
201: 0x1358 [0x02] IF !(LocalPlayer->Race == 6*) GOTO 0x1383
202: 0x1360 [0x52] END_LOAD_SCHEDULER: End scheduler "sb10" with entities [EventEntity, EventEntity], work=779*
203: 0x136F [0x45] LOAD_SCHEDULED_TASK: Load scheduler "sb31" with entities [EventEntity, EventEntity], work=[779*, 0*]
204: 0x1380 [0x01] GOTO 0x13CE
205: 0x1383 [0x02] IF !(LocalPlayer->Race == 8*) GOTO 0x13AE
206: 0x138B [0x52] END_LOAD_SCHEDULER: End scheduler "sb10" with entities [EventEntity, EventEntity], work=779*
207: 0x139A [0x45] LOAD_SCHEDULED_TASK: Load scheduler "sb51" with entities [EventEntity, EventEntity], work=[779*, 0*]
208: 0x13AB [0x01] GOTO 0x13CE
209: 0x13AE [0x52] END_LOAD_SCHEDULER: End scheduler "sb10" with entities [EventEntity, EventEntity], work=779*
210: 0x13BD [0x45] LOAD_SCHEDULED_TASK: Load scheduler "sb11" with entities [EventEntity, EventEntity], work=[779*, 0*]

SUBROUTINE_13CE:
211: 0x13CE [0xCD] LOAD_SCHEDULED_TASK_ALT4: Load scheduler "stp0" with entities [Mumor (ID: 17740145/0x010EB171), Mumor (ID: 17740145/0x010EB171)], work=[8*, 0*]
212: 0x13DF [0x1C] WAIT(30* ticks)
213: 0x13E2 [0x4A] Mumor (ID: 17740144/0x010EB170) looks at LocalPlayer
214: 0x13EB [0x1C] WAIT(15* ticks)
215: 0x13EE [0x4A] LocalPlayer looks at Mumor (ID: 17740144/0x010EB170)
216: 0x13F7 [0x6F] WAIT_FRAME_DELAY: Yield until WaitTime reaches zero
217: 0x13F8 [0x76] CHECK_ENTITY_RENDER_FLAGS: Wait until Mumor (ID: 17740144/0x010EB170) Render.Flags0 and Render.Flags3 conditions are met
218: 0x13FD [0x1C] WAIT(30* ticks)
219: 0x1400 [0x6E] Mumor (ID: 17740144/0x010EB170) uses emote 10*
220: 0x1407 [0x99] Wait for Mumor (ID: 17740144/0x010EB170) animation to complete
221: 0x140C [0x2B] Mumor (ID: 17740144/0x010EB170) [8860*]:
    → "And it's thanks to you that I've shaken off the heebie-jeebies and am ready to face a new day!"
222: 0x1413 [0x1C] WAIT(120* ticks)
223: 0x1416 [0x23] WAIT_FOR_DIALOG_INTERACTION
224: 0x1417 [0x7B] Mumor (ID: 17740144/0x010EB170) stops talking
225: 0x141C [0x52] END_LOAD_SCHEDULER: End scheduler "sb11" with entities [EventEntity, EventEntity], work=779*
226: 0x142B [0x52] END_LOAD_SCHEDULER: End scheduler "sb31" with entities [EventEntity, EventEntity], work=779*
227: 0x143A [0x52] END_LOAD_SCHEDULER: End scheduler "sb51" with entities [EventEntity, EventEntity], work=779*
228: 0x1449 [0x45] LOAD_SCHEDULED_TASK: Load scheduler "sb12" with entities [EventEntity, EventEntity], work=[779*, 0*]
229: 0x145A [0x6E] Mumor (ID: 17740144/0x010EB170) uses emote 11*
230: 0x1461 [0x99] Wait for Mumor (ID: 17740144/0x010EB170) animation to complete
231: 0x1466 [0x2B] Mumor (ID: 17740144/0x010EB170) [8861*]:
    → "I have a special place in my heart for each and every one of my fans--but especially you!"
232: 0x146D [0x1C] WAIT(120* ticks)
233: 0x1470 [0x23] WAIT_FOR_DIALOG_INTERACTION
234: 0x1471 [0x45] LOAD_SCHEDULED_TASK: Load scheduler "fdo1" with entities [LocalPlayer, LocalPlayer], work=[200*, 0*]
235: 0x1482 [0x55] WAIT_LOAD_SCHEDULER: Wait for scheduler "fdo1" with entities [LocalPlayer, LocalPlayer], work=200*
236: 0x1491 [0x52] END_LOAD_SCHEDULER: End scheduler "sb12" with entities [EventEntity, EventEntity], work=779*
237: 0x14A0 [0x5C] MUSIC_CONTROL: Set Idle (Day) music to song 152*
238: 0x14A4 [0x5C] MUSIC_CONTROL: Set Idle (Night) music to song 152*
239: 0x14A8 [0x59] UPDATE_ENTITY_DATA: Mumor (ID: 17740145/0x010EB171)->Render.Flags0 &= ~0x200000
240: 0x14AF [0x6C] FADE_ENTITY_COLOR(entity_id=Mumor (ID: 17740145/0x010EB171), end_alpha=127*, fade_time=1*)
241: 0x14B8 [0x1C] WAIT(15* ticks)
242: 0x14BB [0xAB] EventEntity->DespawnValue = 0* // Set despawn value
243: 0x14BF [0x1C] WAIT(1* ticks)
244: 0x14C2 [0x45] LOAD_SCHEDULED_TASK: Load scheduler "qstc" with entities [EventEntity, EventEntity], work=[201*, 0*]
245: 0x14D3 [0x46] CAMERA_CONTROL: Restore default settings
246: 0x14D5 [0x45] LOAD_SCHEDULED_TASK: Load scheduler "fdi1" with entities [LocalPlayer, LocalPlayer], work=[200*, 0*]
247: 0x14E6 [0x21] END_EVENT
248: 0x14E7 [0x00] END_REQSTACK()
```
