# 17740145 - Mumor

## Common Data

| Field            | Value                    |
|------------------|--------------------------|
| Zone             | Bastok Markets (ID: 235) |
| Block Size       | 240 bytes                |
| Total Events     | 7                        |
| References Count | 13                       |

## List of Events

| Event ID                 | Entrypoint   |   Size |   Instructions |
|--------------------------|--------------|--------|----------------|
| [65535](#event-65535)    | 0x0000       |      1 |              1 |
| [591](#event-591)        | 0x0001       |      1 |              1 |
| [65535.1](#event-655351) | 0x0002       |     25 |              4 |
| [65535.2](#event-655352) | 0x001B       |     45 |              4 |
| [611](#event-611)        | 0x0048       |      1 |              1 |
| [65535.3](#event-655353) | 0x0049       |     45 |              4 |
| [65535.4](#event-655354) | 0x0076       |     25 |              3 |

## DAT References (imed_data)

|   Index | Hex Value   |   Dec Value |
|---------|-------------|-------------|
|       0 | 0x003C      |          60 |
|       1 | 0x0013      |          19 |
|       2 | 0x0002      |           2 |
|       3 | 0x000E      |          14 |
|       4 | 0x00D3      |         211 |
|       5 | 0x00E1      |         225 |
|       6 | 0x0175      |         373 |
|       7 | 0x0000      |           0 |
|       8 | 0x0001      |           1 |
|       9 | 0x000C      |          12 |
|      10 | 0x0077      |         119 |
|      11 | 0x0158      |         344 |
|      12 | 0x0017      |          23 |

## Events

### Event 65535

#### Metadata

| Field        | Value   |
|--------------|---------|
| Entrypoint   | 0x0000  |
| Data Size    | 1 bytes |
| Instructions | 1       |

```
      00 01 02 03 04 05 06 07  08 09 0A 0B 0C 0D 0E 0F
      -- -- -- -- -- -- -- --  -- -- -- -- -- -- -- --
0000: 00                                                .               
```

#### Opcodes

```
  0: 0x0000 [0x00] END_REQSTACK()
```

### Event 591

#### Metadata

| Field        | Value   |
|--------------|---------|
| Entrypoint   | 0x0001  |
| Data Size    | 1 bytes |
| Instructions | 1       |

```
      00 01 02 03 04 05 06 07  08 09 0A 0B 0C 0D 0E 0F
      -- -- -- -- -- -- -- --  -- -- -- -- -- -- -- --
0000:    00                                              .              
```

#### Opcodes

```
  0: 0x0001 [0x00] END_REQSTACK()
```

### Event 65535.1

#### Metadata

| Field        | Value    |
|--------------|----------|
| Entrypoint   | 0x0002   |
| Data Size    | 25 bytes |
| Instructions | 4        |

```
      00 01 02 03 04 05 06 07  08 09 0A 0B 0C 0D 0E 0F
      -- -- -- -- -- -- -- --  -- -- -- -- -- -- -- --
0000:       1C 00 80 7C 00 F8  FF FF 7F 66 01 80 F8 FF    ...|.....f....
0010: FF 7F F8 FF FF 7F 74 68  6B 31 00                 ......thk1.     
```

#### Opcodes

```
  0: 0x0002 [0x1C] WAIT(60* ticks)
  1: 0x0005 [0x7C] EventEntity->Render.Flags2 |= 0x00
  2: 0x000B [0x66] LOAD_EXT_SCHEDULER_MAIN: Load scheduler "thk1" with entities [EventEntity, EventEntity], work=19*
  3: 0x001A [0x00] END_REQSTACK()
```

### Event 65535.2

#### Metadata

| Field        | Value    |
|--------------|----------|
| Entrypoint   | 0x001B   |
| Data Size    | 45 bytes |
| Instructions | 4        |

```
      00 01 02 03 04 05 06 07  08 09 0A 0B 0C 0D 0E 0F
      -- -- -- -- -- -- -- --  -- -- -- -- -- -- -- --
0010:                                   B4 00 00 00 4D             ....M
0020: 75 6D 6F 72 00 00 00 00  00 00 00 00 00 00 00 B5  umor............
0030: 00 00 00 B6 0B 02 80 03  80 04 80 05 80 05 80 05  ................
0040: 80 05 80 06 80 07 80 00                           ........        
```

#### Opcodes

```
  0: 0x001B [0xB4] UI_WINDOW_STRING_HANDLER(case=0x00 - Copy string from opcode, work_offset=ExtData[1]->WorkLocal[0], string="Mumor")
  1: 0x002F [0xB5] SET_EVENT_ENTITY_NAME: Change EventEntity name to ExtData[1]->WorkLocal[0]
  2: 0x0033 [0xB6] ENTITY_APPEARANCE_HANDLER(case=Full entity look, race=2*, hair=14*, head=211*, body=225*, hands=225*, legs=225*, feet=225*, main=373*, sub=0*)
  3: 0x0047 [0x00] END_REQSTACK()
```

### Event 611

#### Metadata

| Field        | Value   |
|--------------|---------|
| Entrypoint   | 0x0048  |
| Data Size    | 1 bytes |
| Instructions | 1       |

```
      00 01 02 03 04 05 06 07  08 09 0A 0B 0C 0D 0E 0F
      -- -- -- -- -- -- -- --  -- -- -- -- -- -- -- --
0040:                          00                               .       
```

#### Opcodes

```
  0: 0x0048 [0x00] END_REQSTACK()
```

### Event 65535.3

#### Metadata

| Field        | Value    |
|--------------|----------|
| Entrypoint   | 0x0049   |
| Data Size    | 45 bytes |
| Instructions | 4        |

```
      00 01 02 03 04 05 06 07  08 09 0A 0B 0C 0D 0E 0F
      -- -- -- -- -- -- -- --  -- -- -- -- -- -- -- --
0040:                             B4 00 00 00 3F 3F 3F           ....???
0050: 00 00 00 00 00 00 00 00  00 00 00 00 00 B5 00 00  ................
0060: 00 B6 0B 08 80 09 80 0A  80 0B 80 07 80 0C 80 0C  ................
0070: 80 07 80 07 80 00                                 ......          
```

#### Opcodes

```
  0: 0x0049 [0xB4] UI_WINDOW_STRING_HANDLER(case=0x00 - Copy string from opcode, work_offset=ExtData[1]->WorkLocal[0], string="???")
  1: 0x005D [0xB5] SET_EVENT_ENTITY_NAME: Change EventEntity name to ExtData[1]->WorkLocal[0]
  2: 0x0061 [0xB6] ENTITY_APPEARANCE_HANDLER(case=Full entity look, race=1*, hair=12*, head=119*, body=344*, hands=0*, legs=23*, feet=23*, main=0*, sub=0*)
  3: 0x0075 [0x00] END_REQSTACK()
```

### Event 65535.4

#### Metadata

| Field        | Value    |
|--------------|----------|
| Entrypoint   | 0x0076   |
| Data Size    | 25 bytes |
| Instructions | 3        |

```
      00 01 02 03 04 05 06 07  08 09 0A 0B 0C 0D 0E 0F
      -- -- -- -- -- -- -- --  -- -- -- -- -- -- -- --
0070:                   B4 00  00 00 53 61 72 6D 6F 65        ....Sarmoe
0080: 67 61 00 00 00 00 00 00  00 00 B5 00 00 00 00     ga............. 
```

#### Opcodes

```
  0: 0x0076 [0xB4] UI_WINDOW_STRING_HANDLER(case=0x00 - Copy string from opcode, work_offset=ExtData[1]->WorkLocal[0], string="Sarmoega")
  1: 0x008A [0xB5] SET_EVENT_ENTITY_NAME: Change EventEntity name to ExtData[1]->WorkLocal[0]
  2: 0x008E [0x00] END_REQSTACK()
```
