# 17740150 - Brian

## Common Data

| Field            | Value                    |
|------------------|--------------------------|
| Zone             | Bastok Markets (ID: 235) |
| Block Size       | 572 bytes                |
| Total Events     | 6                        |
| References Count | 30                       |

## List of Events

| Event ID              | Entrypoint   |   Size |   Instructions |
|-----------------------|--------------|--------|----------------|
| [65535](#event-65535) | 0x0000       |      1 |              1 |
| [32728](#event-32728) | 0x0001       |    138 |             48 |
| [32729](#event-32729) | 0x008B       |     67 |             18 |
| [32730](#event-32730) | 0x00CE       |     55 |             15 |
| [32731](#event-32731) | 0x0105       |    138 |             48 |
| [32732](#event-32732) | 0x018F       |     11 |              5 |

## DAT References (imed_data)

|   Index | Hex Value   |   Dec Value |
|---------|-------------|-------------|
|       0 | 0x0000      |           0 |
|       1 | 0x2FCE      |       12238 |
|       2 | 0x2FCF      |       12239 |
|       3 | 0x2FD0      |       12240 |
|       4 | 0x2FD1      |       12241 |
|       5 | 0x2FD2      |       12242 |
|       6 | 0x0001      |           1 |
|       7 | 0x2FD3      |       12243 |
|       8 | 0x2FD4      |       12244 |
|       9 | 0x2FD5      |       12245 |
|      10 | 0x2FD6      |       12246 |
|      11 | 0x2FD7      |       12247 |
|      12 | 0x2FD9      |       12249 |
|      13 | 0x2FDA      |       12250 |
|      14 | 0x2FDB      |       12251 |
|      15 | 0x2FDC      |       12252 |
|      16 | 0x2FDD      |       12253 |
|      17 | 0x2FDE      |       12254 |
|      18 | 0x2FE4      |       12260 |
|      19 | 0x2FDF      |       12255 |
|      20 | 0x2FE0      |       12256 |
|      21 | 0x0009      |           9 |
|      22 | 0x005A      |          90 |
|      23 | 0x2FE1      |       12257 |
|      24 | 0x2FE2      |       12258 |
|      25 | 0x2FE3      |       12259 |
|      26 | 0x2FCB      |       12235 |
|      27 | 0x2FD8      |       12248 |
|      28 | 0x2FE5      |       12261 |
|      29 | 0x2FFC      |       12284 |

## String References

- **12235**: Give up? [I'm done./Not yet.]
- **12238**: Good day! I suppose you've heard of all the people signing up to play ghosts in this year's festival, nay?
- **12239**: Have you heard? [Yes, I've heard./Play ghosts!?]
- **12240**: I wouldn't expect anything less from an adventurer.
- **12241**: I'll get straight to the point, then. We need volunteers to dress up as ghosts, specters, wights, and the like, and walk around the city in honor of the Dark Lilies.
- **12242**: Would you be willing to participate? You will be rewarded nicely!
- **12243**: Well, you adventurers are pretty busy, I guess. Let me give you the short version:
- **12244**: We're putting on a grand parade for this season's Harvest Festival.
- **12245**: We already have enough people to play the witches, but there can never be enough monsters, nay?
- **12246**: That's why we need volunteers like you to make the parade even more exciting. Oh, worry not, adventurer. You will be rewarded nicely!
- **12247**: Will you help? [Of course./Not a ghost of a chance.]
- **12248**: Oh... Well, acting isn't everybody's cup of tea. I'll be here if you change your mind.
- **12249**: Thank you! Now, there is one thing you should know...
- **12250**: The witches lead the procession. If you start getting any delusions of grandeur and work your way in front of the Lilies, you will be required to turn over your costume and forfeit all payment for services up to that point.
- **12251**: But that doesn't mean you can't try again! Just put on another costume and get back in line. I'm sure you'll get the hang of things soon enough.
- **12252**: Oh, and one more thing. There are two witches in this season's parade: Selma and Pretty Heart.
- **12253**: You're to be stationed in Selma's parade, so don't go wandering over to Pretty Heart's, hear me?
- **12254**: Good luck!
- **12255**: Excellent job, <Player>! You've done the witches proud.
- **12256**: Here's the reward I promised.
- **12257**: It's a witch hat. The design matches those worn by the Dark Lilies. Put it on, and go have fun. Forget about ghosts for a while.
- **12258**: Though, if you want to volunteer again, I'll be right here waiting for you!
- **12259**: Giving up the ghost, eh?
- **12260**: Oh... Well, acting isn't everybody's cup of tea. I'll be here if you change your mind.
- **12261**: You're to be stationed in Pretty Heart's parade, so don't go wandering over to Selma's, hear me?
- **12284**: I'll let you know when a spot opens up.

## Events

### Event 65535

#### Metadata

| Field        | Value   |
|--------------|---------|
| Entrypoint   | 0x0000  |
| Data Size    | 1 bytes |
| Instructions | 1       |

```
      00 01 02 03 04 05 06 07  08 09 0A 0B 0C 0D 0E 0F
      -- -- -- -- -- -- -- --  -- -- -- -- -- -- -- --
0000: 00                                                .               
```

#### Opcodes

```
  0: 0x0000 [0x00] END_REQSTACK()
```

### Event 32728

#### Metadata

| Field        | Value     |
|--------------|-----------|
| Entrypoint   | 0x0001    |
| Data Size    | 138 bytes |
| Instructions | 48        |

```
      00 01 02 03 04 05 06 07  08 09 0A 0B 0C 0D 0E 0F
      -- -- -- -- -- -- -- --  -- -- -- -- -- -- -- --
0000:    03 01 10 00 80 1E F0  FF FF 7F 1D 01 80 23 24   .............#$
0010: 02 80 00 80 00 80 25 02  00 10 00 80 00 2E 00 1D  ......%.........
0020: 03 80 23 1D 04 80 23 1D  05 80 23 01 49 00 02 00  ..#...#...#.I...
0030: 10 06 80 00 49 00 1D 07  80 23 1D 08 80 23 1D 09  ....I....#...#..
0040: 80 23 1D 0A 80 23 01 49  00 24 0B 80 00 80 00 80  .#...#.I.$......
0050: 25 02 00 10 00 80 00 7A  00 42 1D 0C 80 23 1D 0D  %......z.B...#..
0060: 80 23 1D 0E 80 23 1D 0F  80 23 1D 10 80 23 1D 11  .#...#...#...#..
0070: 80 23 03 01 10 06 80 01  89 00 02 00 10 06 80 00  .#..............
0080: 89 00 1D 12 80 23 01 89  00 21 00                 .....#...!.     
```

#### Opcodes

```
  0: 0x0001 [0x03] Work_Zone[1] = 0*
  1: 0x0006 [0x1E] EventEntity looks at LocalPlayer and starts talking
  2: 0x000B [0x1D] PRINT_EVENT_MESSAGE(message_id=12238*)
    → "Good day! I suppose you've heard of all the people signing up to play ghosts in this year's festival, nay?"
  3: 0x000E [0x23] WAIT_FOR_DIALOG_INTERACTION
  4: 0x000F [0x24] CREATE_DIALOG(message_id=12239*, default_option=0*, option_flags=0*)
    → "Have you heard? [Yes, I've heard./Play ghosts!?]"
  5: 0x0016 [0x25] WAIT_DIALOG_SELECT()
  6: 0x0017 [0x02] IF !(Work_Zone[0] == 0*) GOTO 0x002E
  7: 0x001F [0x1D] PRINT_EVENT_MESSAGE(message_id=12240*)
    → "I wouldn't expect anything less from an adventurer."
  8: 0x0022 [0x23] WAIT_FOR_DIALOG_INTERACTION
  9: 0x0023 [0x1D] PRINT_EVENT_MESSAGE(message_id=12241*)
    → "I'll get straight to the point, then. We need volunteers to dress up as ghosts, specters, wights, and the like, and walk around the city in honor of the Dark Lilies."
 10: 0x0026 [0x23] WAIT_FOR_DIALOG_INTERACTION
 11: 0x0027 [0x1D] PRINT_EVENT_MESSAGE(message_id=12242*)
    → "Would you be willing to participate? You will be rewarded nicely!"
 12: 0x002A [0x23] WAIT_FOR_DIALOG_INTERACTION
 13: 0x002B [0x01] GOTO 0x0049
 14: 0x002E [0x02] IF !(Work_Zone[0] == 1*) GOTO 0x0049
 15: 0x0036 [0x1D] PRINT_EVENT_MESSAGE(message_id=12243*)
    → "Well, you adventurers are pretty busy, I guess. Let me give you the short version:"
 16: 0x0039 [0x23] WAIT_FOR_DIALOG_INTERACTION
 17: 0x003A [0x1D] PRINT_EVENT_MESSAGE(message_id=12244*)
    → "We're putting on a grand parade for this season's Harvest Festival."
 18: 0x003D [0x23] WAIT_FOR_DIALOG_INTERACTION
 19: 0x003E [0x1D] PRINT_EVENT_MESSAGE(message_id=12245*)
    → "We already have enough people to play the witches, but there can never be enough monsters, nay?"
 20: 0x0041 [0x23] WAIT_FOR_DIALOG_INTERACTION
 21: 0x0042 [0x1D] PRINT_EVENT_MESSAGE(message_id=12246*)
    → "That's why we need volunteers like you to make the parade even more exciting. Oh, worry not, adventurer. You will be rewarded nicely!"
 22: 0x0045 [0x23] WAIT_FOR_DIALOG_INTERACTION
 23: 0x0046 [0x01] GOTO 0x0049

SUBROUTINE_0049:
 24: 0x0049 [0x24] CREATE_DIALOG(message_id=12247*, default_option=0*, option_flags=0*)
    → "Will you help? [Of course./Not a ghost of a chance.]"
 25: 0x0050 [0x25] WAIT_DIALOG_SELECT()
 26: 0x0051 [0x02] IF !(Work_Zone[0] == 0*) GOTO 0x007A
 27: 0x0059 [0x42] SET_CLI_EVENT_CANCEL_DATA()
 28: 0x005A [0x1D] PRINT_EVENT_MESSAGE(message_id=12249*)
    → "Thank you! Now, there is one thing you should know..."
 29: 0x005D [0x23] WAIT_FOR_DIALOG_INTERACTION
 30: 0x005E [0x1D] PRINT_EVENT_MESSAGE(message_id=12250*)
    → "The witches lead the procession. If you start getting any delusions of grandeur and work your way in front of the Lilies, you will be required to turn over your costume and forfeit all payment for services up to that point."
 31: 0x0061 [0x23] WAIT_FOR_DIALOG_INTERACTION
 32: 0x0062 [0x1D] PRINT_EVENT_MESSAGE(message_id=12251*)
    → "But that doesn't mean you can't try again! Just put on another costume and get back in line. I'm sure you'll get the hang of things soon enough."
 33: 0x0065 [0x23] WAIT_FOR_DIALOG_INTERACTION
 34: 0x0066 [0x1D] PRINT_EVENT_MESSAGE(message_id=12252*)
    → "Oh, and one more thing. There are two witches in this season's parade: Selma and Pretty Heart."
 35: 0x0069 [0x23] WAIT_FOR_DIALOG_INTERACTION
 36: 0x006A [0x1D] PRINT_EVENT_MESSAGE(message_id=12253*)
    → "You're to be stationed in Selma's parade, so don't go wandering over to Pretty Heart's, hear me?"
 37: 0x006D [0x23] WAIT_FOR_DIALOG_INTERACTION
 38: 0x006E [0x1D] PRINT_EVENT_MESSAGE(message_id=12254*)
    → "Good luck!"
 39: 0x0071 [0x23] WAIT_FOR_DIALOG_INTERACTION
 40: 0x0072 [0x03] Work_Zone[1] = 1*
 41: 0x0077 [0x01] GOTO 0x0089
 42: 0x007A [0x02] IF !(Work_Zone[0] == 1*) GOTO 0x0089
 43: 0x0082 [0x1D] PRINT_EVENT_MESSAGE(message_id=12260*)
    → "Oh... Well, acting isn't everybody's cup of tea. I'll be here if you change your mind."
 44: 0x0085 [0x23] WAIT_FOR_DIALOG_INTERACTION
 45: 0x0086 [0x01] GOTO 0x0089

SUBROUTINE_0089:
 46: 0x0089 [0x21] END_EVENT
 47: 0x008A [0x00] END_REQSTACK()
```

### Event 32729

#### Metadata

| Field        | Value    |
|--------------|----------|
| Entrypoint   | 0x008B   |
| Data Size    | 67 bytes |
| Instructions | 18       |

```
      00 01 02 03 04 05 06 07  08 09 0A 0B 0C 0D 0E 0F
      -- -- -- -- -- -- -- --  -- -- -- -- -- -- -- --
0080:                                   42 1E F0 FF FF             B....
0090: 7F 6F 70 1D 13 80 23 1D  14 80 23 66 15 80 F8 FF  .op...#...#f....
00A0: FF 7F F8 FF FF 7F 74 6C  6B 30 1C 16 80 66 15 80  ......tlk0...f..
00B0: F8 FF FF 7F F8 FF FF 7F  74 6C 6B 31 02 03 10 00  ........tlk1....
00C0: 80 00 C8 00 1D 17 80 23  1D 18 80 23 21 00        .......#...#!.  
```

#### Opcodes

```
  0: 0x008B [0x42] SET_CLI_EVENT_CANCEL_DATA()
  1: 0x008C [0x1E] EventEntity looks at LocalPlayer and starts talking
  2: 0x0091 [0x6F] WAIT_FRAME_DELAY: Yield until WaitTime reaches zero
  3: 0x0092 [0x70] WAIT_ENTITY_RENDER_FLAG: Wait while EventEntity->Render.Flags3 bit 2 is set (cancel turn if not)
  4: 0x0093 [0x1D] PRINT_EVENT_MESSAGE(message_id=12255*)
    → "Excellent job, <Player>! You've done the witches proud."
  5: 0x0096 [0x23] WAIT_FOR_DIALOG_INTERACTION
  6: 0x0097 [0x1D] PRINT_EVENT_MESSAGE(message_id=12256*)
    → "Here's the reward I promised."
  7: 0x009A [0x23] WAIT_FOR_DIALOG_INTERACTION
  8: 0x009B [0x66] LOAD_EXT_SCHEDULER_MAIN: Load scheduler "tlk0" with entities [EventEntity, EventEntity], work=9*
  9: 0x00AA [0x1C] WAIT(90* ticks)
 10: 0x00AD [0x66] LOAD_EXT_SCHEDULER_MAIN: Load scheduler "tlk1" with entities [EventEntity, EventEntity], work=9*
 11: 0x00BC [0x02] IF !(Work_Zone[3] == 0*) GOTO 0x00C8
 12: 0x00C4 [0x1D] PRINT_EVENT_MESSAGE(message_id=12257*)
    → "It's a witch hat. The design matches those worn by the Dark Lilies. Put it on, and go have fun. Forget about ghosts for a while."
 13: 0x00C7 [0x23] WAIT_FOR_DIALOG_INTERACTION
 14: 0x00C8 [0x1D] PRINT_EVENT_MESSAGE(message_id=12258*)
    → "Though, if you want to volunteer again, I'll be right here waiting for you!"
 15: 0x00CB [0x23] WAIT_FOR_DIALOG_INTERACTION
 16: 0x00CC [0x21] END_EVENT
 17: 0x00CD [0x00] END_REQSTACK()
```

### Event 32730

#### Metadata

| Field        | Value    |
|--------------|----------|
| Entrypoint   | 0x00CE   |
| Data Size    | 55 bytes |
| Instructions | 15       |

```
      00 01 02 03 04 05 06 07  08 09 0A 0B 0C 0D 0E 0F
      -- -- -- -- -- -- -- --  -- -- -- -- -- -- -- --
00C0:                                            03 01                ..
00D0: 10 00 80 1E F0 FF FF 7F  1D 19 80 23 24 1A 80 06  ...........#$...
00E0: 80 00 80 25 02 00 10 00  80 00 F8 00 1D 1B 80 23  ...%...........#
00F0: 03 01 10 06 80 01 03 01  02 00 10 06 80 00 03 01  ................
0100: 01 03 01 21 00                                    ...!.           
```

#### Opcodes

```
  0: 0x00CE [0x03] Work_Zone[1] = 0*
  1: 0x00D3 [0x1E] EventEntity looks at LocalPlayer and starts talking
  2: 0x00D8 [0x1D] PRINT_EVENT_MESSAGE(message_id=12259*)
    → "Giving up the ghost, eh?"
  3: 0x00DB [0x23] WAIT_FOR_DIALOG_INTERACTION
  4: 0x00DC [0x24] CREATE_DIALOG(message_id=12235*, default_option=1*, option_flags=0*)
    → "Give up? [I'm done./Not yet.]"
  5: 0x00E3 [0x25] WAIT_DIALOG_SELECT()
  6: 0x00E4 [0x02] IF !(Work_Zone[0] == 0*) GOTO 0x00F8
  7: 0x00EC [0x1D] PRINT_EVENT_MESSAGE(message_id=12248*)
    → "Oh... Well, acting isn't everybody's cup of tea. I'll be here if you change your mind."
  8: 0x00EF [0x23] WAIT_FOR_DIALOG_INTERACTION
  9: 0x00F0 [0x03] Work_Zone[1] = 1*
 10: 0x00F5 [0x01] GOTO 0x0103
 11: 0x00F8 [0x02] IF !(Work_Zone[0] == 1*) GOTO 0x0103
 12: 0x0100 [0x01] GOTO 0x0103

SUBROUTINE_0103:
 13: 0x0103 [0x21] END_EVENT
 14: 0x0104 [0x00] END_REQSTACK()
```

### Event 32731

#### Metadata

| Field        | Value     |
|--------------|-----------|
| Entrypoint   | 0x0105    |
| Data Size    | 138 bytes |
| Instructions | 48        |

```
      00 01 02 03 04 05 06 07  08 09 0A 0B 0C 0D 0E 0F
      -- -- -- -- -- -- -- --  -- -- -- -- -- -- -- --
0100:                03 01 10  00 80 1E F0 FF FF 7F 1D       ...........
0110: 01 80 23 24 02 80 00 80  00 80 25 02 00 10 00 80  ..#$......%.....
0120: 00 32 01 1D 03 80 23 1D  04 80 23 1D 05 80 23 01  .2....#...#...#.
0130: 4D 01 02 00 10 06 80 00  4D 01 1D 07 80 23 1D 08  M.......M....#..
0140: 80 23 1D 09 80 23 1D 0A  80 23 01 4D 01 24 0B 80  .#...#...#.M.$..
0150: 00 80 00 80 25 02 00 10  00 80 00 7E 01 42 1D 0C  ....%......~.B..
0160: 80 23 1D 0D 80 23 1D 0E  80 23 1D 0F 80 23 1D 1C  .#...#...#...#..
0170: 80 23 1D 11 80 23 03 01  10 06 80 01 8D 01 02 00  .#...#..........
0180: 10 06 80 00 8D 01 1D 1B  80 23 01 8D 01 21 00     .........#...!. 
```

#### Opcodes

```
  0: 0x0105 [0x03] Work_Zone[1] = 0*
  1: 0x010A [0x1E] EventEntity looks at LocalPlayer and starts talking
  2: 0x010F [0x1D] PRINT_EVENT_MESSAGE(message_id=12238*)
    → "Good day! I suppose you've heard of all the people signing up to play ghosts in this year's festival, nay?"
  3: 0x0112 [0x23] WAIT_FOR_DIALOG_INTERACTION
  4: 0x0113 [0x24] CREATE_DIALOG(message_id=12239*, default_option=0*, option_flags=0*)
    → "Have you heard? [Yes, I've heard./Play ghosts!?]"
  5: 0x011A [0x25] WAIT_DIALOG_SELECT()
  6: 0x011B [0x02] IF !(Work_Zone[0] == 0*) GOTO 0x0132
  7: 0x0123 [0x1D] PRINT_EVENT_MESSAGE(message_id=12240*)
    → "I wouldn't expect anything less from an adventurer."
  8: 0x0126 [0x23] WAIT_FOR_DIALOG_INTERACTION
  9: 0x0127 [0x1D] PRINT_EVENT_MESSAGE(message_id=12241*)
    → "I'll get straight to the point, then. We need volunteers to dress up as ghosts, specters, wights, and the like, and walk around the city in honor of the Dark Lilies."
 10: 0x012A [0x23] WAIT_FOR_DIALOG_INTERACTION
 11: 0x012B [0x1D] PRINT_EVENT_MESSAGE(message_id=12242*)
    → "Would you be willing to participate? You will be rewarded nicely!"
 12: 0x012E [0x23] WAIT_FOR_DIALOG_INTERACTION
 13: 0x012F [0x01] GOTO 0x014D
 14: 0x0132 [0x02] IF !(Work_Zone[0] == 1*) GOTO 0x014D
 15: 0x013A [0x1D] PRINT_EVENT_MESSAGE(message_id=12243*)
    → "Well, you adventurers are pretty busy, I guess. Let me give you the short version:"
 16: 0x013D [0x23] WAIT_FOR_DIALOG_INTERACTION
 17: 0x013E [0x1D] PRINT_EVENT_MESSAGE(message_id=12244*)
    → "We're putting on a grand parade for this season's Harvest Festival."
 18: 0x0141 [0x23] WAIT_FOR_DIALOG_INTERACTION
 19: 0x0142 [0x1D] PRINT_EVENT_MESSAGE(message_id=12245*)
    → "We already have enough people to play the witches, but there can never be enough monsters, nay?"
 20: 0x0145 [0x23] WAIT_FOR_DIALOG_INTERACTION
 21: 0x0146 [0x1D] PRINT_EVENT_MESSAGE(message_id=12246*)
    → "That's why we need volunteers like you to make the parade even more exciting. Oh, worry not, adventurer. You will be rewarded nicely!"
 22: 0x0149 [0x23] WAIT_FOR_DIALOG_INTERACTION
 23: 0x014A [0x01] GOTO 0x014D

SUBROUTINE_014D:
 24: 0x014D [0x24] CREATE_DIALOG(message_id=12247*, default_option=0*, option_flags=0*)
    → "Will you help? [Of course./Not a ghost of a chance.]"
 25: 0x0154 [0x25] WAIT_DIALOG_SELECT()
 26: 0x0155 [0x02] IF !(Work_Zone[0] == 0*) GOTO 0x017E
 27: 0x015D [0x42] SET_CLI_EVENT_CANCEL_DATA()
 28: 0x015E [0x1D] PRINT_EVENT_MESSAGE(message_id=12249*)
    → "Thank you! Now, there is one thing you should know..."
 29: 0x0161 [0x23] WAIT_FOR_DIALOG_INTERACTION
 30: 0x0162 [0x1D] PRINT_EVENT_MESSAGE(message_id=12250*)
    → "The witches lead the procession. If you start getting any delusions of grandeur and work your way in front of the Lilies, you will be required to turn over your costume and forfeit all payment for services up to that point."
 31: 0x0165 [0x23] WAIT_FOR_DIALOG_INTERACTION
 32: 0x0166 [0x1D] PRINT_EVENT_MESSAGE(message_id=12251*)
    → "But that doesn't mean you can't try again! Just put on another costume and get back in line. I'm sure you'll get the hang of things soon enough."
 33: 0x0169 [0x23] WAIT_FOR_DIALOG_INTERACTION
 34: 0x016A [0x1D] PRINT_EVENT_MESSAGE(message_id=12252*)
    → "Oh, and one more thing. There are two witches in this season's parade: Selma and Pretty Heart."
 35: 0x016D [0x23] WAIT_FOR_DIALOG_INTERACTION
 36: 0x016E [0x1D] PRINT_EVENT_MESSAGE(message_id=12261*)
    → "You're to be stationed in Pretty Heart's parade, so don't go wandering over to Selma's, hear me?"
 37: 0x0171 [0x23] WAIT_FOR_DIALOG_INTERACTION
 38: 0x0172 [0x1D] PRINT_EVENT_MESSAGE(message_id=12254*)
    → "Good luck!"
 39: 0x0175 [0x23] WAIT_FOR_DIALOG_INTERACTION
 40: 0x0176 [0x03] Work_Zone[1] = 1*
 41: 0x017B [0x01] GOTO 0x018D
 42: 0x017E [0x02] IF !(Work_Zone[0] == 1*) GOTO 0x018D
 43: 0x0186 [0x1D] PRINT_EVENT_MESSAGE(message_id=12248*)
    → "Oh... Well, acting isn't everybody's cup of tea. I'll be here if you change your mind."
 44: 0x0189 [0x23] WAIT_FOR_DIALOG_INTERACTION
 45: 0x018A [0x01] GOTO 0x018D

SUBROUTINE_018D:
 46: 0x018D [0x21] END_EVENT
 47: 0x018E [0x00] END_REQSTACK()
```

### Event 32732

#### Metadata

| Field        | Value    |
|--------------|----------|
| Entrypoint   | 0x018F   |
| Data Size    | 11 bytes |
| Instructions | 5        |

```
      00 01 02 03 04 05 06 07  08 09 0A 0B 0C 0D 0E 0F
      -- -- -- -- -- -- -- --  -- -- -- -- -- -- -- --
0180:                                               1E                 .
0190: F0 FF FF 7F 1D 1D 80 23  21 00                    .......#!.      
```

#### Opcodes

```
  0: 0x018F [0x1E] EventEntity looks at LocalPlayer and starts talking
  1: 0x0194 [0x1D] PRINT_EVENT_MESSAGE(message_id=12284*)
    → "I'll let you know when a spot opens up."
  2: 0x0197 [0x23] WAIT_FOR_DIALOG_INTERACTION
  3: 0x0198 [0x21] END_EVENT
  4: 0x0199 [0x00] END_REQSTACK()
```
