# 17740144 - Mumor

## Common Data

| Field            | Value                    |
|------------------|--------------------------|
| Zone             | Bastok Markets (ID: 235) |
| Block Size       | 300 bytes                |
| Total Events     | 9                        |
| References Count | 19                       |

## List of Events

| Event ID                 | Entrypoint   |   Size |   Instructions |
|--------------------------|--------------|--------|----------------|
| [65535](#event-65535)    | 0x0000       |      1 |              1 |
| [591](#event-591)        | 0x0001       |      1 |              1 |
| [65535.1](#event-655351) | 0x0002       |     14 |              4 |
| [65535.2](#event-655352) | 0x0010       |     45 |              4 |
| [611](#event-611)        | 0x003D       |      1 |              1 |
| [65535.3](#event-655353) | 0x003E       |     45 |              4 |
| [65535.4](#event-655354) | 0x006B       |     21 |              2 |
| [65535.5](#event-655355) | 0x0080       |     25 |              3 |
| [65535.6](#event-655356) | 0x0099       |     16 |              4 |

## DAT References (imed_data)

|   Index | Hex Value   |   Dec Value |
|---------|-------------|-------------|
|       0 | 0x000D      |          13 |
|       1 | 0xFFFD1B7C  |  4294777724 |
|       2 | 0xFFFF83FA  |  4294935546 |
|       3 | 0xFFFFE0C0  |  4294959296 |
|       4 | 0x0002      |           2 |
|       5 | 0x000E      |          14 |
|       6 | 0x0131      |         305 |
|       7 | 0x0171      |         369 |
|       8 | 0x0000      |           0 |
|       9 | 0x0020      |          32 |
|      10 | 0x0130      |         304 |
|      11 | 0x02C4      |         708 |
|      12 | 0x00D3      |         211 |
|      13 | 0x00E1      |         225 |
|      14 | 0x0175      |         373 |
|      15 | 0x0198      |         408 |
|      16 | 0x02F3      |         755 |
|      17 | 0x003C      |          60 |
|      18 | 0x0006      |           6 |

## Events

### Event 65535

#### Metadata

| Field        | Value   |
|--------------|---------|
| Entrypoint   | 0x0000  |
| Data Size    | 1 bytes |
| Instructions | 1       |

```
      00 01 02 03 04 05 06 07  08 09 0A 0B 0C 0D 0E 0F
      -- -- -- -- -- -- -- --  -- -- -- -- -- -- -- --
0000: 00                                                .               
```

#### Opcodes

```
  0: 0x0000 [0x00] END_REQSTACK()
```

### Event 591

#### Metadata

| Field        | Value   |
|--------------|---------|
| Entrypoint   | 0x0001  |
| Data Size    | 1 bytes |
| Instructions | 1       |

```
      00 01 02 03 04 05 06 07  08 09 0A 0B 0C 0D 0E 0F
      -- -- -- -- -- -- -- --  -- -- -- -- -- -- -- --
0000:    00                                              .              
```

#### Opcodes

```
  0: 0x0001 [0x00] END_REQSTACK()
```

### Event 65535.1

#### Metadata

| Field        | Value    |
|--------------|----------|
| Entrypoint   | 0x0002   |
| Data Size    | 14 bytes |
| Instructions | 4        |

```
      00 01 02 03 04 05 06 07  08 09 0A 0B 0C 0D 0E 0F
      -- -- -- -- -- -- -- --  -- -- -- -- -- -- -- --
0000:       32 00 80 1F 00 01  80 02 80 03 80 1F 01 00    2.............
```

#### Opcodes

```
  0: 0x0002 [0x32] ExtData[1]->MainSpeed = 13* * 0.1
  1: 0x0005 [0x1F] MOVE_ENTITY: EventEntity moves to X=-189.572*, Z=-31.750*, Y=-8.000*
  2: 0x000D [0x1F] MOVE_ENTITY: Update entity position (mode=1)
  3: 0x000F [0x00] END_REQSTACK()
```

### Event 65535.2

#### Metadata

| Field        | Value    |
|--------------|----------|
| Entrypoint   | 0x0010   |
| Data Size    | 45 bytes |
| Instructions | 4        |

```
      00 01 02 03 04 05 06 07  08 09 0A 0B 0C 0D 0E 0F
      -- -- -- -- -- -- -- --  -- -- -- -- -- -- -- --
0010: B4 00 00 00 4D 75 6D 6F  72 00 00 00 00 00 00 00  ....Mumor.......
0020: 00 00 00 00 B5 00 00 00  B6 0B 04 80 05 80 06 80  ................
0030: 07 80 08 80 09 80 0A 80  0B 80 08 80 00           .............   
```

#### Opcodes

```
  0: 0x0010 [0xB4] UI_WINDOW_STRING_HANDLER(case=0x00 - Copy string from opcode, work_offset=ExtData[1]->WorkLocal[0], string="Mumor")
  1: 0x0024 [0xB5] SET_EVENT_ENTITY_NAME: Change EventEntity name to ExtData[1]->WorkLocal[0]
  2: 0x0028 [0xB6] ENTITY_APPEARANCE_HANDLER(case=Full entity look, race=2*, hair=14*, head=305*, body=369*, hands=0*, legs=32*, feet=304*, main=708*, sub=0*)
  3: 0x003C [0x00] END_REQSTACK()
```

### Event 611

#### Metadata

| Field        | Value   |
|--------------|---------|
| Entrypoint   | 0x003D  |
| Data Size    | 1 bytes |
| Instructions | 1       |

```
      00 01 02 03 04 05 06 07  08 09 0A 0B 0C 0D 0E 0F
      -- -- -- -- -- -- -- --  -- -- -- -- -- -- -- --
0030:                                         00                     .  
```

#### Opcodes

```
  0: 0x003D [0x00] END_REQSTACK()
```

### Event 65535.3

#### Metadata

| Field        | Value    |
|--------------|----------|
| Entrypoint   | 0x003E   |
| Data Size    | 45 bytes |
| Instructions | 4        |

```
      00 01 02 03 04 05 06 07  08 09 0A 0B 0C 0D 0E 0F
      -- -- -- -- -- -- -- --  -- -- -- -- -- -- -- --
0030:                                            B6 0B                ..
0040: 04 80 05 80 0C 80 0D 80  0D 80 0D 80 0D 80 0E 80  ................
0050: 08 80 B4 00 00 00 3F 3F  3F 00 00 00 00 00 00 00  ......???.......
0060: 00 00 00 00 00 00 B5 00  00 00 00                 ...........     
```

#### Opcodes

```
  0: 0x003E [0xB6] ENTITY_APPEARANCE_HANDLER(case=Full entity look, race=2*, hair=14*, head=211*, body=225*, hands=225*, legs=225*, feet=225*, main=373*, sub=0*)
  1: 0x0052 [0xB4] UI_WINDOW_STRING_HANDLER(case=0x00 - Copy string from opcode, work_offset=ExtData[1]->WorkLocal[0], string="???")
  2: 0x0066 [0xB5] SET_EVENT_ENTITY_NAME: Change EventEntity name to ExtData[1]->WorkLocal[0]
  3: 0x006A [0x00] END_REQSTACK()
```

### Event 65535.4

#### Metadata

| Field        | Value    |
|--------------|----------|
| Entrypoint   | 0x006B   |
| Data Size    | 21 bytes |
| Instructions | 2        |

```
      00 01 02 03 04 05 06 07  08 09 0A 0B 0C 0D 0E 0F
      -- -- -- -- -- -- -- --  -- -- -- -- -- -- -- --
0060:                                   B6 0B 04 80 05             .....
0070: 80 0F 80 0F 80 0F 80 0F  80 0F 80 10 80 10 80 00  ................
```

#### Opcodes

```
  0: 0x006B [0xB6] ENTITY_APPEARANCE_HANDLER(case=Full entity look, race=2*, hair=14*, head=408*, body=408*, hands=408*, legs=408*, feet=408*, main=755*, sub=755*)
  1: 0x007F [0x00] END_REQSTACK()
```

### Event 65535.5

#### Metadata

| Field        | Value    |
|--------------|----------|
| Entrypoint   | 0x0080   |
| Data Size    | 25 bytes |
| Instructions | 3        |

```
      00 01 02 03 04 05 06 07  08 09 0A 0B 0C 0D 0E 0F
      -- -- -- -- -- -- -- --  -- -- -- -- -- -- -- --
0080: B4 00 00 00 4D 75 6D 6F  72 00 00 00 00 00 00 00  ....Mumor.......
0090: 00 00 00 00 B5 00 00 00  00                       .........       
```

#### Opcodes

```
  0: 0x0080 [0xB4] UI_WINDOW_STRING_HANDLER(case=0x00 - Copy string from opcode, work_offset=ExtData[1]->WorkLocal[0], string="Mumor")
  1: 0x0094 [0xB5] SET_EVENT_ENTITY_NAME: Change EventEntity name to ExtData[1]->WorkLocal[0]
  2: 0x0098 [0x00] END_REQSTACK()
```

### Event 65535.6

#### Metadata

| Field        | Value    |
|--------------|----------|
| Entrypoint   | 0x0099   |
| Data Size    | 16 bytes |
| Instructions | 4        |

```
      00 01 02 03 04 05 06 07  08 09 0A 0B 0C 0D 0E 0F
      -- -- -- -- -- -- -- --  -- -- -- -- -- -- -- --
0090:                             1C 11 80 6E F8 FF FF           ...n...
00A0: 7F 12 80 99 F8 FF FF 7F  00                       .........       
```

#### Opcodes

```
  0: 0x0099 [0x1C] WAIT(60* ticks)
  1: 0x009C [0x6E] EventEntity uses emote 6*
  2: 0x00A3 [0x99] Wait for EventEntity animation to complete
  3: 0x00A8 [0x00] END_REQSTACK()
```
