# 17740027

## Common Data

| Field            | Value                    |
|------------------|--------------------------|
| Zone             | Bastok Markets (ID: 235) |
| Block Size       | 80 bytes                 |
| Total Events     | 3                        |
| References Count | 3                        |

## List of Events

| Event ID                 | Entrypoint   |   Size |   Instructions |
|--------------------------|--------------|--------|----------------|
| [65535](#event-65535)    | 0x0000       |      1 |              1 |
| [692](#event-692)        | 0x0001       |      1 |              1 |
| [65535.1](#event-655351) | 0x0002       |     38 |              4 |

## DAT References (imed_data)

|   Index | Hex Value   |   Dec Value |
|---------|-------------|-------------|
|       0 | 0x00ED      |         237 |
|       1 | 0x0000      |           0 |
|       2 | 0x00B4      |         180 |

## Events

### Event 65535

#### Metadata

| Field        | Value   |
|--------------|---------|
| Entrypoint   | 0x0000  |
| Data Size    | 1 bytes |
| Instructions | 1       |

```
      00 01 02 03 04 05 06 07  08 09 0A 0B 0C 0D 0E 0F
      -- -- -- -- -- -- -- --  -- -- -- -- -- -- -- --
0000: 00                                                .               
```

#### Opcodes

```
  0: 0x0000 [0x00] END_REQSTACK()
```

### Event 692

#### Metadata

| Field        | Value   |
|--------------|---------|
| Entrypoint   | 0x0001  |
| Data Size    | 1 bytes |
| Instructions | 1       |

```
      00 01 02 03 04 05 06 07  08 09 0A 0B 0C 0D 0E 0F
      -- -- -- -- -- -- -- --  -- -- -- -- -- -- -- --
0000:    00                                              .              
```

#### Opcodes

```
  0: 0x0001 [0x00] END_REQSTACK()
```

### Event 65535.1

#### Metadata

| Field        | Value    |
|--------------|----------|
| Entrypoint   | 0x0002   |
| Data Size    | 38 bytes |
| Instructions | 4        |

```
      00 01 02 03 04 05 06 07  08 09 0A 0B 0C 0D 0E 0F
      -- -- -- -- -- -- -- --  -- -- -- -- -- -- -- --
0000:       CD 00 80 F8 FF FF  7F F8 FF FF 7F 6F 6E 6D    ...........onm
0010: 79 01 80 1C 02 80 CD 00  80 F8 FF FF 7F F8 FF FF  y...............
0020: 7F 6F 66 6D 79 01 80 00                           .ofmy...        
```

#### Opcodes

```
  0: 0x0002 [0xCD] LOAD_SCHEDULED_TASK_ALT4: Load scheduler "onmy" with entities [EventEntity, EventEntity], work=[237*, 0*]
  1: 0x0013 [0x1C] WAIT(180* ticks)
  2: 0x0016 [0xCD] LOAD_SCHEDULED_TASK_ALT4: Load scheduler "ofmy" with entities [EventEntity, EventEntity], work=[237*, 0*]
  3: 0x0027 [0x00] END_REQSTACK()
```
