# 0x7FFFFFF0 - Zone Events

## Common Data

| Field            | Value                    |
|------------------|--------------------------|
| Zone             | Bastok Markets (ID: 235) |
| Block Size       | 54920 bytes              |
| Total Events     | 75                       |
| References Count | 1009                     |

## List of Events

| Event ID                   | Entrypoint   |   Size |   Instructions |
|----------------------------|--------------|--------|----------------|
| [65535](#event-65535)      | 0x0000       |      1 |              1 |
| [0](#event-0)              | 0x0001       |     12 |              3 |
| [65534](#event-65534)      | 0x000D       |      1 |              1 |
| [65535.1](#event-655351)   | 0x000E       |     14 |              4 |
| [65535.2](#event-655352)   | 0x001C       |     23 |              5 |
| [65535.3](#event-655353)   | 0x0033       |     23 |              5 |
| [65535.4](#event-655354)   | 0x004A       |     15 |              3 |
| [243](#event-243)          | 0x0059       |   1005 |            148 |
| [322](#event-322)          | 0x0446       |    483 |             64 |
| [65535.5](#event-655355)   | 0x0629       |     10 |              2 |
| [65535.6](#event-655356)   | 0x0633       |     20 |              3 |
| [65535.7](#event-655357)   | 0x0647       |     20 |              3 |
| [329](#event-329)          | 0x065B       |    302 |             50 |
| [332](#event-332)          | 0x0789       |    278 |             48 |
| [334](#event-334)          | 0x089F       |   1510 |            221 |
| [342](#event-342)          | 0x0E85       |    430 |             65 |
| [372](#event-372)          | 0x1033       |     10 |              2 |
| [402](#event-402)          | 0x103D       |   1550 |            188 |
| [403](#event-403)          | 0x164B       |   3289 |            408 |
| [404](#event-404)          | 0x2324       |   1582 |            237 |
| [406](#event-406)          | 0x2952       |   2336 |            363 |
| [405](#event-405)          | 0x3272       |   2374 |            370 |
| [65535.8](#event-655358)   | 0x3BB8       |     15 |              3 |
| [65535.9](#event-655359)   | 0x3BC7       |     15 |              3 |
| [65535.10](#event-6553510) | 0x3BD6       |     15 |              3 |
| [65535.11](#event-6553511) | 0x3BE5       |     15 |              3 |
| [65535.12](#event-6553512) | 0x3BF4       |     15 |              3 |
| [65535.13](#event-6553513) | 0x3C03       |     16 |              5 |
| [65535.14](#event-6553514) | 0x3C13       |     15 |              3 |
| [65535.15](#event-6553515) | 0x3C22       |     15 |              3 |
| [65535.16](#event-6553516) | 0x3C31       |     15 |              3 |
| [65535.17](#event-6553517) | 0x3C40       |     26 |              6 |
| [65535.18](#event-6553518) | 0x3C5A       |     26 |              6 |
| [65535.19](#event-6553519) | 0x3C74       |     15 |              3 |
| [65535.20](#event-6553520) | 0x3C83       |   1276 |            166 |
| [65535.21](#event-6553521) | 0x417F       |  18615 |           3193 |
| [437](#event-437)          | 0x8A36       |   1243 |            155 |
| [439](#event-439)          | 0x8F11       |   4973 |            626 |
| [441](#event-441)          | 0xA27E       |    407 |             55 |
| [473](#event-473)          | 0xA415       |   1283 |            155 |
| [65535.22](#event-6553522) | 0xA918       |     22 |              6 |
| [475](#event-475)          | 0xA92E       |    544 |             61 |
| [477](#event-477)          | 0xAB4E       |    240 |             29 |
| [479](#event-479)          | 0xAC3E       |    370 |             41 |
| [481](#event-481)          | 0xADB0       |    369 |             44 |
| [483](#event-483)          | 0xAF21       |    710 |             82 |
| [485](#event-485)          | 0xB1E7       |    437 |             54 |
| [490](#event-490)          | 0xB39C       |    896 |            100 |
| [492](#event-492)          | 0xB71C       |   1183 |            144 |
| [497](#event-497)          | 0xBBBB       |    807 |            105 |
| [65535.23](#event-6553523) | 0xBEE2       |     24 |              4 |
| [65535.24](#event-6553524) | 0xBEFA       |    172 |             36 |
| [65535.25](#event-6553525) | 0xBFA6       |     14 |              4 |
| [65535.26](#event-6553526) | 0xBFB4       |     20 |              6 |
| [65535.27](#event-6553527) | 0xBFC8       |    353 |             41 |
| [65535.28](#event-6553528) | 0xC129       |     14 |              4 |
| [65535.29](#event-6553529) | 0xC137       |      4 |              2 |
| [65535.30](#event-6553530) | 0xC13B       |     14 |              4 |
| [65535.31](#event-6553531) | 0xC149       |     42 |              6 |
| [65535.32](#event-6553532) | 0xC173       |     27 |              3 |
| [65535.33](#event-6553533) | 0xC18E       |     27 |              3 |
| [65535.34](#event-6553534) | 0xC1A9       |     19 |              5 |
| [65535.35](#event-6553535) | 0xC1BC       |     39 |             11 |
| [65535.36](#event-6553536) | 0xC1E3       |      7 |              3 |
| [65535.37](#event-6553537) | 0xC1EA       |      7 |              3 |
| [65535.38](#event-6553538) | 0xC1F1       |     37 |              5 |
| [65535.39](#event-6553539) | 0xC216       |     37 |              5 |
| [65535.40](#event-6553540) | 0xC23B       |      6 |              2 |
| [65535.41](#event-6553541) | 0xC241       |    353 |             41 |
| [65535.42](#event-6553542) | 0xC3A2       |     15 |              5 |
| [65535.43](#event-6553543) | 0xC3B1       |     41 |              9 |
| [65535.44](#event-6553544) | 0xC3DA       |     29 |              5 |
| [65535.45](#event-6553545) | 0xC3F7       |     24 |              4 |
| [65535.46](#event-6553546) | 0xC40F       |     24 |              4 |
| [65535.47](#event-6553547) | 0xC427       |    353 |             41 |

## DAT References (imed_data)

|   Index | Hex Value   |   Dec Value |
|---------|-------------|-------------|
|       0 | 0xFFFA6D3E  |  4294602046 |
|       1 | 0xFFFD2DE6  |  4294782438 |
|       2 | 0xFFFFD6FB  |  4294956795 |
|       3 | 0x0E00      |        3584 |
|       4 | 0x000D      |          13 |
|       5 | 0xFFFA8E96  |  4294610582 |
|       6 | 0xFFFD4F0C  |  4294790924 |
|       7 | 0xFFFFD8EE  |  4294957294 |
|       8 | 0xFFFADF45  |  4294631237 |
|       9 | 0xFFFD9E46  |  4294811206 |
|      10 | 0xFFFFD8ED  |  4294957293 |
|      11 | 0x0DBC      |        3516 |
|      12 | 0xFFFB219C  |  4294648220 |
|      13 | 0xFFFDE0B6  |  4294828214 |
|      14 | 0xFFFBA315  |  4294681365 |
|      15 | 0xFFFE538C  |  4294857612 |
|      16 | 0xFFFFD8F0  |  4294957296 |
|      17 | 0x08AF      |        2223 |
|      18 | 0xFFFBB436  |  4294685750 |
|      19 | 0xFFFE8042  |  4294869058 |
|      20 | 0xFFFFD121  |  4294955297 |
|      21 | 0xFFFBBAF8  |  4294687480 |
|      22 | 0xFFFE98AB  |  4294875307 |
|      23 | 0xFFFFD098  |  4294955160 |
|      24 | 0x00F5      |         245 |
|      25 | 0x011F      |         287 |
|      26 | 0x0087      |         135 |
|      27 | 0x0000      |           0 |
|      28 | 0x0003      |           3 |
|      29 | 0xFFFB2035  |  4294647861 |
|      30 | 0xFFFD5182  |  4294791554 |
|      31 | 0xFFFFC1A4  |  4294951332 |
|      32 | 0x0101      |         257 |
|      33 | 0x1DC7      |        7623 |
|      34 | 0x001E      |          30 |
|      35 | 0x007C      |         124 |
|      36 | 0x1DC8      |        7624 |
|      37 | 0x1DC9      |        7625 |
|      38 | 0x1DCA      |        7626 |
|      39 | 0x092E      |        2350 |
|      40 | 0x0005      |           5 |
|      41 | 0x073C      |        1852 |
|      42 | 0xFFFB20B3  |  4294647987 |
|      43 | 0xFFFD52EC  |  4294791916 |
|      44 | 0x0A96      |        2710 |
|      45 | 0x005A      |          90 |
|      46 | 0x1DCB      |        7627 |
|      47 | 0x000A      |          10 |
|      48 | 0x1DCC      |        7628 |
|      49 | 0x012C      |         300 |
|      50 | 0x1DCD      |        7629 |
|      51 | 0x1DCE      |        7630 |
|      52 | 0x1DCF      |        7631 |
|      53 | 0x1DD0      |        7632 |
|      54 | 0x1DD1      |        7633 |
|      55 | 0x003C      |          60 |
|      56 | 0x1DD2      |        7634 |
|      57 | 0x1DD3      |        7635 |
|      58 | 0x1DD4      |        7636 |
|      59 | 0x1DD5      |        7637 |
|      60 | 0x1DD6      |        7638 |
|      61 | 0x1DD7      |        7639 |
|      62 | 0x1DD8      |        7640 |
|      63 | 0x1DD9      |        7641 |
|      64 | 0x1DDA      |        7642 |
|      65 | 0x1DDB      |        7643 |
|      66 | 0x1DDC      |        7644 |
|      67 | 0x1DDD      |        7645 |
|      68 | 0x00C8      |         200 |
|      69 | 0x1DDE      |        7646 |
|      70 | 0x1DDF      |        7647 |
|      71 | 0x1DE0      |        7648 |
|      72 | 0x00C9      |         201 |
|      73 | 0x0098      |         152 |
|      74 | 0x011E      |         286 |
|      75 | 0xFFFB6E6D  |  4294667885 |
|      76 | 0xFFFD99AA  |  4294810026 |
|      77 | 0xFFFFC19D  |  4294951325 |
|      78 | 0x0FB0      |        4016 |
|      79 | 0x1FDB      |        8155 |
|      80 | 0x1FDC      |        8156 |
|      81 | 0x1FDD      |        8157 |
|      82 | 0x1FDE      |        8158 |
|      83 | 0x1FDF      |        8159 |
|      84 | 0x1FE0      |        8160 |
|      85 | 0x1FE1      |        8161 |
|      86 | 0x1FE2      |        8162 |
|      87 | 0x009A      |         154 |
|      88 | 0xFFFFF98B  |  4294965643 |
|      89 | 0x0B83      |        2947 |
|      90 | 0xFFFA7CAF  |  4294605999 |
|      91 | 0xFFFD73D8  |  4294800344 |
|      92 | 0xFFFFD8D7  |  4294957271 |
|      93 | 0x0481      |        1153 |
|      94 | 0xFFFA804B  |  4294606923 |
|      95 | 0xFFFD72B7  |  4294800055 |
|      96 | 0xFFFFD8DB  |  4294957275 |
|      97 | 0x055A      |        1370 |
|      98 | 0xFFFC117C  |  4294709628 |
|      99 | 0xFFFEA653  |  4294878803 |
|     100 | 0x03DE      |         990 |
|     101 | 0x00F0      |         240 |
|     102 | 0x0046      |          70 |
|     103 | 0x201A      |        8218 |
|     104 | 0x0028      |          40 |
|     105 | 0x201B      |        8219 |
|     106 | 0x201C      |        8220 |
|     107 | 0x201D      |        8221 |
|     108 | 0x201E      |        8222 |
|     109 | 0x0032      |          50 |
|     110 | 0x201F      |        8223 |
|     111 | 0x2020      |        8224 |
|     112 | 0x2021      |        8225 |
|     113 | 0x04A8      |        1192 |
|     114 | 0xFFFC2228  |  4294713896 |
|     115 | 0xFFFE9C42  |  4294876226 |
|     116 | 0xFFFFD0C3  |  4294955203 |
|     117 | 0x0600      |        1536 |
|     118 | 0x202D      |        8237 |
|     119 | 0x0050      |          80 |
|     120 | 0x202E      |        8238 |
|     121 | 0x202F      |        8239 |
|     122 | 0x2030      |        8240 |
|     123 | 0x2031      |        8241 |
|     124 | 0x2032      |        8242 |
|     125 | 0x2033      |        8243 |
|     126 | 0x2034      |        8244 |
|     127 | 0x0052      |          82 |
|     128 | 0x2035      |        8245 |
|     129 | 0x2036      |        8246 |
|     130 | 0x2037      |        8247 |
|     131 | 0x2039      |        8249 |
|     132 | 0x203A      |        8250 |
|     133 | 0x203B      |        8251 |
|     134 | 0x006E      |         110 |
|     135 | 0x203C      |        8252 |
|     136 | 0x203D      |        8253 |
|     137 | 0x203E      |        8254 |
|     138 | 0x2022      |        8226 |
|     139 | 0x0096      |         150 |
|     140 | 0x203F      |        8255 |
|     141 | 0x2040      |        8256 |
|     142 | 0x2041      |        8257 |
|     143 | 0x2042      |        8258 |
|     144 | 0x009F      |         159 |
|     145 | 0x2043      |        8259 |
|     146 | 0x2044      |        8260 |
|     147 | 0x2045      |        8261 |
|     148 | 0x2046      |        8262 |
|     149 | 0x2047      |        8263 |
|     150 | 0x2048      |        8264 |
|     151 | 0x2049      |        8265 |
|     152 | 0x204A      |        8266 |
|     153 | 0x204B      |        8267 |
|     154 | 0x204C      |        8268 |
|     155 | 0x204D      |        8269 |
|     156 | 0x204E      |        8270 |
|     157 | 0x204F      |        8271 |
|     158 | 0x0078      |         120 |
|     159 | 0x2050      |        8272 |
|     160 | 0x2051      |        8273 |
|     161 | 0x2052      |        8274 |
|     162 | 0x0009      |           9 |
|     163 | 0x2053      |        8275 |
|     164 | 0x2054      |        8276 |
|     165 | 0x2055      |        8277 |
|     166 | 0x2056      |        8278 |
|     167 | 0x2057      |        8279 |
|     168 | 0x2058      |        8280 |
|     169 | 0x2059      |        8281 |
|     170 | 0x205A      |        8282 |
|     171 | 0x205B      |        8283 |
|     172 | 0x205C      |        8284 |
|     173 | 0x205D      |        8285 |
|     174 | 0x205E      |        8286 |
|     175 | 0x205F      |        8287 |
|     176 | 0x2060      |        8288 |
|     177 | 0x2061      |        8289 |
|     178 | 0x2062      |        8290 |
|     179 | 0x2063      |        8291 |
|     180 | 0x2064      |        8292 |
|     181 | 0x2065      |        8293 |
|     182 | 0x05F7      |        1527 |
|     183 | 0x3382      |       13186 |
|     184 | 0xFFFD5C38  |  4294794296 |
|     185 | 0xFFFDF0A8  |  4294832296 |
|     186 | 0x07D0      |        2000 |
|     187 | 0x0001      |           1 |
|     188 | 0x2067      |        8295 |
|     189 | 0x2068      |        8296 |
|     190 | 0x000F      |          15 |
|     191 | 0x2069      |        8297 |
|     192 | 0x206A      |        8298 |
|     193 | 0x206B      |        8299 |
|     194 | 0x206C      |        8300 |
|     195 | 0x206D      |        8301 |
|     196 | 0x206E      |        8302 |
|     197 | 0x206F      |        8303 |
|     198 | 0x2070      |        8304 |
|     199 | 0x2071      |        8305 |
|     200 | 0x2072      |        8306 |
|     201 | 0xFFFAD321  |  4294628129 |
|     202 | 0xFFFDB6E8  |  4294817512 |
|     203 | 0x09E4      |        2532 |
|     204 | 0x0112      |         274 |
|     205 | 0x0013      |          19 |
|     206 | 0xFFFD0C84  |  4294773892 |
|     207 | 0xFFFF0C7E  |  4294904958 |
|     208 | 0xFFFFE562  |  4294960482 |
|     209 | 0x0E05      |        3589 |
|     210 | 0x007E      |         126 |
|     211 | 0x0021      |          33 |
|     212 | 0xFFFD1498  |  4294775960 |
|     213 | 0xFFFF12F8  |  4294906616 |
|     214 | 0x22BC      |        8892 |
|     215 | 0x22BD      |        8893 |
|     216 | 0x22BE      |        8894 |
|     217 | 0x0022      |          34 |
|     218 | 0x000B      |          11 |
|     219 | 0x00B4      |         180 |
|     220 | 0xFFFD1530  |  4294776112 |
|     221 | 0xFFFF15FA  |  4294907386 |
|     222 | 0x22BF      |        8895 |
|     223 | 0x22C0      |        8896 |
|     224 | 0x22C1      |        8897 |
|     225 | 0x22C2      |        8898 |
|     226 | 0x22C3      |        8899 |
|     227 | 0x22C4      |        8900 |
|     228 | 0x22C5      |        8901 |
|     229 | 0x22C6      |        8902 |
|     230 | 0x22C7      |        8903 |
|     231 | 0x22C8      |        8904 |
|     232 | 0x22C9      |        8905 |
|     233 | 0x22CA      |        8906 |
|     234 | 0x22CB      |        8907 |
|     235 | 0x22CC      |        8908 |
|     236 | 0x22CD      |        8909 |
|     237 | 0x22CE      |        8910 |
|     238 | 0x22CF      |        8911 |
|     239 | 0x22D0      |        8912 |
|     240 | 0x22D1      |        8913 |
|     241 | 0x0183      |         387 |
|     242 | 0x001B      |          27 |
|     243 | 0xFFFF2623  |  4294911523 |
|     244 | 0xFFFDF569  |  4294833513 |
|     245 | 0xFFFFF060  |  4294963296 |
|     246 | 0x0B79      |        2937 |
|     247 | 0x007B      |         123 |
|     248 | 0x22FB      |        8955 |
|     249 | 0x22FC      |        8956 |
|     250 | 0x22FD      |        8957 |
|     251 | 0x22FE      |        8958 |
|     252 | 0x22FF      |        8959 |
|     253 | 0x0041      |          65 |
|     254 | 0x2300      |        8960 |
|     255 | 0x2301      |        8961 |
|     256 | 0xFFFF27BB  |  4294911931 |
|     257 | 0xFFFDF5FC  |  4294833660 |
|     258 | 0x00EE      |         238 |
|     259 | 0x2302      |        8962 |
|     260 | 0xFFFF2339  |  4294910777 |
|     261 | 0xFFFDF861  |  4294834273 |
|     262 | 0x06F6      |        1782 |
|     263 | 0x2303      |        8963 |
|     264 | 0x2304      |        8964 |
|     265 | 0x0024      |          36 |
|     266 | 0x0004      |           4 |
|     267 | 0x0006      |           6 |
|     268 | 0x0008      |           8 |
|     269 | 0x2305      |        8965 |
|     270 | 0x2306      |        8966 |
|     271 | 0x2307      |        8967 |
|     272 | 0x2308      |        8968 |
|     273 | 0x0007      |           7 |
|     274 | 0x2309      |        8969 |
|     275 | 0x230A      |        8970 |
|     276 | 0x230B      |        8971 |
|     277 | 0x230C      |        8972 |
|     278 | 0x072E      |        1838 |
|     279 | 0x230D      |        8973 |
|     280 | 0x230E      |        8974 |
|     281 | 0xFFFF2365  |  4294910821 |
|     282 | 0xFFFDFA7C  |  4294834812 |
|     283 | 0x0463      |        1123 |
|     284 | 0x230F      |        8975 |
|     285 | 0xFFFF2896  |  4294912150 |
|     286 | 0xFFFDF55A  |  4294833498 |
|     287 | 0xFFFF27CC  |  4294911948 |
|     288 | 0xFFFDF99A  |  4294834586 |
|     289 | 0x2310      |        8976 |
|     290 | 0x2311      |        8977 |
|     291 | 0x2312      |        8978 |
|     292 | 0x2313      |        8979 |
|     293 | 0xFFFEFD47  |  4294901063 |
|     294 | 0xFFFE2535  |  4294845749 |
|     295 | 0x2314      |        8980 |
|     296 | 0x2315      |        8981 |
|     297 | 0x2316      |        8982 |
|     298 | 0x0020      |          32 |
|     299 | 0x0097      |         151 |
|     300 | 0x00EB      |         235 |
|     301 | 0xFFFEF352  |  4294898514 |
|     302 | 0xFFFE394B  |  4294850891 |
|     303 | 0x2317      |        8983 |
|     304 | 0x2318      |        8984 |
|     305 | 0x2319      |        8985 |
|     306 | 0x231A      |        8986 |
|     307 | 0x231B      |        8987 |
|     308 | 0x231C      |        8988 |
|     309 | 0x231D      |        8989 |
|     310 | 0x231E      |        8990 |
|     311 | 0x231F      |        8991 |
|     312 | 0xFFFF249F  |  4294911135 |
|     313 | 0xFFFDF92E  |  4294834478 |
|     314 | 0x050C      |        1292 |
|     315 | 0x2322      |        8994 |
|     316 | 0x2323      |        8995 |
|     317 | 0x2324      |        8996 |
|     318 | 0x2325      |        8997 |
|     319 | 0x2326      |        8998 |
|     320 | 0x2327      |        8999 |
|     321 | 0x2328      |        9000 |
|     322 | 0x2329      |        9001 |
|     323 | 0x232A      |        9002 |
|     324 | 0xFFFF24EF  |  4294911215 |
|     325 | 0xFFFDEDEA  |  4294831594 |
|     326 | 0x03BF      |         959 |
|     327 | 0xFFFF2731  |  4294911793 |
|     328 | 0xFFFDF2B0  |  4294832816 |
|     329 | 0x232B      |        9003 |
|     330 | 0x232C      |        9004 |
|     331 | 0x232D      |        9005 |
|     332 | 0x232E      |        9006 |
|     333 | 0x232F      |        9007 |
|     334 | 0x2330      |        9008 |
|     335 | 0x2331      |        9009 |
|     336 | 0x2332      |        9010 |
|     337 | 0x2333      |        9011 |
|     338 | 0xFFFF25C6  |  4294911430 |
|     339 | 0xFFFDEFFC  |  4294832124 |
|     340 | 0x03BE      |         958 |
|     341 | 0xFFFF2A5C  |  4294912604 |
|     342 | 0xFFFDF61A  |  4294833690 |
|     343 | 0x2334      |        9012 |
|     344 | 0x2335      |        9013 |
|     345 | 0xFFFE94D0  |  4294874320 |
|     346 | 0xFFFE3AF3  |  4294851315 |
|     347 | 0x2336      |        9014 |
|     348 | 0xFFFE7C01  |  4294867969 |
|     349 | 0xFFFE396D  |  4294850925 |
|     350 | 0xFFFE7FD1  |  4294868945 |
|     351 | 0xFFFE3B3B  |  4294851387 |
|     352 | 0x2337      |        9015 |
|     353 | 0x2338      |        9016 |
|     354 | 0x2339      |        9017 |
|     355 | 0x233A      |        9018 |
|     356 | 0x233B      |        9019 |
|     357 | 0xFFFF27ED  |  4294911981 |
|     358 | 0xFFFDF7CB  |  4294834123 |
|     359 | 0x063C      |        1596 |
|     360 | 0x233D      |        9021 |
|     361 | 0x007A      |         122 |
|     362 | 0x233E      |        9022 |
|     363 | 0x233F      |        9023 |
|     364 | 0x2340      |        9024 |
|     365 | 0xFFFF2557  |  4294911319 |
|     366 | 0xFFFDF66A  |  4294833770 |
|     367 | 0x2341      |        9025 |
|     368 | 0x2342      |        9026 |
|     369 | 0x2343      |        9027 |
|     370 | 0x2344      |        9028 |
|     371 | 0x2345      |        9029 |
|     372 | 0x2346      |        9030 |
|     373 | 0x2347      |        9031 |
|     374 | 0x2348      |        9032 |
|     375 | 0x2349      |        9033 |
|     376 | 0x234A      |        9034 |
|     377 | 0x234B      |        9035 |
|     378 | 0x234C      |        9036 |
|     379 | 0x234D      |        9037 |
|     380 | 0xFFFF23DC  |  4294910940 |
|     381 | 0xFFFDF29E  |  4294832798 |
|     382 | 0xFFFF2193  |  4294910355 |
|     383 | 0xFFFDE537  |  4294829367 |
|     384 | 0x234E      |        9038 |
|     385 | 0x234F      |        9039 |
|     386 | 0x2350      |        9040 |
|     387 | 0x2351      |        9041 |
|     388 | 0x0002      |           2 |
|     389 | 0x2352      |        9042 |
|     390 | 0x2353      |        9043 |
|     391 | 0x2354      |        9044 |
|     392 | 0x2357      |        9047 |
|     393 | 0x2358      |        9048 |
|     394 | 0x2359      |        9049 |
|     395 | 0x235A      |        9050 |
|     396 | 0x235B      |        9051 |
|     397 | 0x2355      |        9045 |
|     398 | 0x2356      |        9046 |
|     399 | 0x000C      |          12 |
|     400 | 0x235C      |        9052 |
|     401 | 0x235D      |        9053 |
|     402 | 0xFFFF24AC  |  4294911148 |
|     403 | 0xFFFDE4DF  |  4294829279 |
|     404 | 0x04D4      |        1236 |
|     405 | 0x235E      |        9054 |
|     406 | 0x235F      |        9055 |
|     407 | 0x2360      |        9056 |
|     408 | 0x2361      |        9057 |
|     409 | 0x2362      |        9058 |
|     410 | 0x2363      |        9059 |
|     411 | 0x00C4      |         196 |
|     412 | 0x238C      |        9100 |
|     413 | 0x2398      |        9112 |
|     414 | 0x238D      |        9101 |
|     415 | 0x2399      |        9113 |
|     416 | 0x238E      |        9102 |
|     417 | 0x239A      |        9114 |
|     418 | 0x238F      |        9103 |
|     419 | 0x239B      |        9115 |
|     420 | 0x2392      |        9106 |
|     421 | 0x239E      |        9118 |
|     422 | 0x2393      |        9107 |
|     423 | 0x239F      |        9119 |
|     424 | 0x2394      |        9108 |
|     425 | 0x23A0      |        9120 |
|     426 | 0x2395      |        9109 |
|     427 | 0x23A1      |        9121 |
|     428 | 0x2396      |        9110 |
|     429 | 0x23A2      |        9122 |
|     430 | 0x2390      |        9104 |
|     431 | 0x239C      |        9116 |
|     432 | 0x2391      |        9105 |
|     433 | 0x239D      |        9117 |
|     434 | 0x2397      |        9111 |
|     435 | 0x23A3      |        9123 |
|     436 | 0x238B      |        9099 |
|     437 | 0xFFFF255A  |  4294911322 |
|     438 | 0xFFFDFE03  |  4294835715 |
|     439 | 0x0487      |        1159 |
|     440 | 0xFFFF2634  |  4294911540 |
|     441 | 0xFFFDFBFE  |  4294835198 |
|     442 | 0xFFFDF44A  |  4294833226 |
|     443 | 0x0ACF      |        2767 |
|     444 | 0xFFFF2297  |  4294910615 |
|     445 | 0xFFFDEA02  |  4294830594 |
|     446 | 0x2366      |        9062 |
|     447 | 0x2367      |        9063 |
|     448 | 0x2368      |        9064 |
|     449 | 0x2369      |        9065 |
|     450 | 0x236A      |        9066 |
|     451 | 0x236B      |        9067 |
|     452 | 0x236C      |        9068 |
|     453 | 0x236D      |        9069 |
|     454 | 0x236E      |        9070 |
|     455 | 0x236F      |        9071 |
|     456 | 0x2370      |        9072 |
|     457 | 0x2371      |        9073 |
|     458 | 0x2372      |        9074 |
|     459 | 0x2373      |        9075 |
|     460 | 0x2374      |        9076 |
|     461 | 0x2375      |        9077 |
|     462 | 0x2376      |        9078 |
|     463 | 0x2377      |        9079 |
|     464 | 0x2378      |        9080 |
|     465 | 0x2379      |        9081 |
|     466 | 0x237A      |        9082 |
|     467 | 0x237B      |        9083 |
|     468 | 0x237C      |        9084 |
|     469 | 0x237D      |        9085 |
|     470 | 0x237E      |        9086 |
|     471 | 0x237F      |        9087 |
|     472 | 0x2380      |        9088 |
|     473 | 0x2381      |        9089 |
|     474 | 0x2382      |        9090 |
|     475 | 0x2383      |        9091 |
|     476 | 0x2384      |        9092 |
|     477 | 0x2385      |        9093 |
|     478 | 0x2386      |        9094 |
|     479 | 0x2387      |        9095 |
|     480 | 0x2388      |        9096 |
|     481 | 0x02DD      |         733 |
|     482 | 0x2389      |        9097 |
|     483 | 0x238A      |        9098 |
|     484 | 0xFFFB8A2B  |  4294674987 |
|     485 | 0xFFFEA599  |  4294878617 |
|     486 | 0xFFFFD120  |  4294955296 |
|     487 | 0x0DFB      |        3579 |
|     488 | 0xFFFB9CFA  |  4294679802 |
|     489 | 0xFFFEAFAE  |  4294881198 |
|     490 | 0xFFFFD10B  |  4294955275 |
|     491 | 0x005F      |          95 |
|     492 | 0x0064      |         100 |
|     493 | 0x0069      |         105 |
|     494 | 0x0057      |          87 |
|     495 | 0x005C      |          92 |
|     496 | 0x0059      |          89 |
|     497 | 0x005D      |          93 |
|     498 | 0x0061      |          97 |
|     499 | 0x0060      |          96 |
|     500 | 0x0012      |          18 |
|     501 | 0x0014      |          20 |
|     502 | 0x0017      |          23 |
|     503 | 0x000E      |          14 |
|     504 | 0x0018      |          24 |
|     505 | 0x001F      |          31 |
|     506 | 0x0010      |          16 |
|     507 | 0x0015      |          21 |
|     508 | 0x018D      |         397 |
|     509 | 0x0175      |         373 |
|     510 | 0x0170      |         368 |
|     511 | 0x0171      |         369 |
|     512 | 0x014C      |         332 |
|     513 | 0x01C1      |         449 |
|     514 | 0x027C      |         636 |
|     515 | 0x027B      |         635 |
|     516 | 0x027D      |         637 |
|     517 | 0x02D3      |         723 |
|     518 | 0x0321      |         801 |
|     519 | 0x0326      |         806 |
|     520 | 0x01E1      |         481 |
|     521 | 0x0343      |         835 |
|     522 | 0x0386      |         902 |
|     523 | 0x0388      |         904 |
|     524 | 0x0361      |         865 |
|     525 | 0x0387      |         903 |
|     526 | 0x038A      |         906 |
|     527 | 0x003F      |          63 |
|     528 | 0x0282      |         642 |
|     529 | 0x0283      |         643 |
|     530 | 0x0288      |         648 |
|     531 | 0x0289      |         649 |
|     532 | 0x028A      |         650 |
|     533 | 0x028B      |         651 |
|     534 | 0x029E      |         670 |
|     535 | 0x0019      |          25 |
|     536 | 0x00C6      |         198 |
|     537 | 0x00B5      |         181 |
|     538 | 0x008C      |         140 |
|     539 | 0x008E      |         142 |
|     540 | 0x014B      |         331 |
|     541 | 0x0148      |         328 |
|     542 | 0x0166      |         358 |
|     543 | 0x017A      |         378 |
|     544 | 0x0182      |         386 |
|     545 | 0x0192      |         402 |
|     546 | 0x01DF      |         479 |
|     547 | 0x01E9      |         489 |
|     548 | 0x001C      |          28 |
|     549 | 0x00E6      |         230 |
|     550 | 0x007F      |         127 |
|     551 | 0x00F3      |         243 |
|     552 | 0x00F4      |         244 |
|     553 | 0x00E0      |         224 |
|     554 | 0x00E9      |         233 |
|     555 | 0x009E      |         158 |
|     556 | 0x009D      |         157 |
|     557 | 0x00E2      |         226 |
|     558 | 0x00E1      |         225 |
|     559 | 0x014F      |         335 |
|     560 | 0x014E      |         334 |
|     561 | 0x0167      |         359 |
|     562 | 0x00E5      |         229 |
|     563 | 0x0169      |         361 |
|     564 | 0x016A      |         362 |
|     565 | 0x0168      |         360 |
|     566 | 0x0133      |         307 |
|     567 | 0x0174      |         372 |
|     568 | 0x018C      |         396 |
|     569 | 0x0194      |         404 |
|     570 | 0x0195      |         405 |
|     571 | 0x0178      |         376 |
|     572 | 0x0240      |         576 |
|     573 | 0x0197      |         407 |
|     574 | 0x0198      |         408 |
|     575 | 0x01A3      |         419 |
|     576 | 0x019E      |         414 |
|     577 | 0x0246      |         582 |
|     578 | 0x0247      |         583 |
|     579 | 0x0248      |         584 |
|     580 | 0x024B      |         587 |
|     581 | 0x024A      |         586 |
|     582 | 0x0011      |          17 |
|     583 | 0x024F      |         591 |
|     584 | 0x01C3      |         451 |
|     585 | 0x01C4      |         452 |
|     586 | 0x01EF      |         495 |
|     587 | 0x01F0      |         496 |
|     588 | 0x001A      |          26 |
|     589 | 0x0095      |         149 |
|     590 | 0x001D      |          29 |
|     591 | 0x0073      |         115 |
|     592 | 0x0034      |          52 |
|     593 | 0x005E      |          94 |
|     594 | 0x0072      |         114 |
|     595 | 0x0031      |          49 |
|     596 | 0x006C      |         108 |
|     597 | 0x003A      |          58 |
|     598 | 0x0016      |          22 |
|     599 | 0x0035      |          53 |
|     600 | 0x0085      |         133 |
|     601 | 0x0081      |         129 |
|     602 | 0x0023      |          35 |
|     603 | 0x0033      |          51 |
|     604 | 0x0082      |         130 |
|     605 | 0x0039      |          57 |
|     606 | 0x0038      |          56 |
|     607 | 0x0036      |          54 |
|     608 | 0x0083      |         131 |
|     609 | 0x00A2      |         162 |
|     610 | 0x0065      |         101 |
|     611 | 0x0086      |         134 |
|     612 | 0x0062      |          98 |
|     613 | 0x008D      |         141 |
|     614 | 0x0037      |          55 |
|     615 | 0x008A      |         138 |
|     616 | 0x008B      |         139 |
|     617 | 0x002B      |          43 |
|     618 | 0x0067      |         103 |
|     619 | 0x0030      |          48 |
|     620 | 0x002D      |          45 |
|     621 | 0x00A1      |         161 |
|     622 | 0x0066      |         102 |
|     623 | 0x0075      |         117 |
|     624 | 0x0068      |         104 |
|     625 | 0x0077      |         119 |
|     626 | 0x01FE      |         510 |
|     627 | 0x00A4      |         164 |
|     628 | 0x00A9      |         169 |
|     629 | 0x00AC      |         172 |
|     630 | 0x00B2      |         178 |
|     631 | 0x00B0      |         176 |
|     632 | 0x013D      |         317 |
|     633 | 0x0108      |         264 |
|     634 | 0x010C      |         268 |
|     635 | 0x0100      |         256 |
|     636 | 0x00FB      |         251 |
|     637 | 0x00B8      |         184 |
|     638 | 0x011C      |         284 |
|     639 | 0x0042      |          66 |
|     640 | 0x0047      |          71 |
|     641 | 0x0160      |         352 |
|     642 | 0x0043      |          67 |
|     643 | 0x0048      |          72 |
|     644 | 0x004B      |          75 |
|     645 | 0x004C      |          76 |
|     646 | 0x004D      |          77 |
|     647 | 0x005B      |          91 |
|     648 | 0x0058      |          88 |
|     649 | 0x0053      |          83 |
|     650 | 0x0054      |          84 |
|     651 | 0x0161      |         353 |
|     652 | 0x015C      |         348 |
|     653 | 0x016D      |         365 |
|     654 | 0x00C5      |         197 |
|     655 | 0x00C3      |         195 |
|     656 | 0x00C7      |         199 |
|     657 | 0x015E      |         350 |
|     658 | 0x016E      |         366 |
|     659 | 0x00D0      |         208 |
|     660 | 0x00CD      |         205 |
|     661 | 0x00CA      |         202 |
|     662 | 0x00D2      |         210 |
|     663 | 0x00D8      |         216 |
|     664 | 0x00D5      |         213 |
|     665 | 0x00D6      |         214 |
|     666 | 0x013B      |         315 |
|     667 | 0x0136      |         310 |
|     668 | 0x013A      |         314 |
|     669 | 0x0137      |         311 |
|     670 | 0x016F      |         367 |
|     671 | 0x0138      |         312 |
|     672 | 0x0139      |         313 |
|     673 | 0x0091      |         145 |
|     674 | 0x009B      |         155 |
|     675 | 0x0099      |         153 |
|     676 | 0x0093      |         147 |
|     677 | 0x0092      |         146 |
|     678 | 0x0071      |         113 |
|     679 | 0x00E8      |         232 |
|     680 | 0x00DD      |         221 |
|     681 | 0x00F8      |         248 |
|     682 | 0x00F1      |         241 |
|     683 | 0x0124      |         292 |
|     684 | 0x012E      |         302 |
|     685 | 0x0129      |         297 |
|     686 | 0x0122      |         290 |
|     687 | 0x0132      |         306 |
|     688 | 0x0126      |         294 |
|     689 | 0x0155      |         341 |
|     690 | 0x0025      |          37 |
|     691 | 0x0029      |          41 |
|     692 | 0x007D      |         125 |
|     693 | 0x0079      |         121 |
|     694 | 0x0074      |         116 |
|     695 | 0x00EC      |         236 |
|     696 | 0x019C      |         412 |
|     697 | 0x0193      |         403 |
|     698 | 0x01C6      |         454 |
|     699 | 0x01C7      |         455 |
|     700 | 0x0109      |         265 |
|     701 | 0x255A      |        9562 |
|     702 | 0x255B      |        9563 |
|     703 | 0x255C      |        9564 |
|     704 | 0x255D      |        9565 |
|     705 | 0x255E      |        9566 |
|     706 | 0x255F      |        9567 |
|     707 | 0x2560      |        9568 |
|     708 | 0x2561      |        9569 |
|     709 | 0x2562      |        9570 |
|     710 | 0x2563      |        9571 |
|     711 | 0x2564      |        9572 |
|     712 | 0x2565      |        9573 |
|     713 | 0x2566      |        9574 |
|     714 | 0x2567      |        9575 |
|     715 | 0x034B      |         843 |
|     716 | 0x034C      |         844 |
|     717 | 0x2568      |        9576 |
|     718 | 0x2569      |        9577 |
|     719 | 0x256A      |        9578 |
|     720 | 0x256B      |        9579 |
|     721 | 0x256C      |        9580 |
|     722 | 0x256D      |        9581 |
|     723 | 0x256E      |        9582 |
|     724 | 0x256F      |        9583 |
|     725 | 0x2571      |        9585 |
|     726 | 0x2572      |        9586 |
|     727 | 0x2570      |        9584 |
|     728 | 0x2573      |        9587 |
|     729 | 0x2574      |        9588 |
|     730 | 0x2575      |        9589 |
|     731 | 0x2576      |        9590 |
|     732 | 0x2577      |        9591 |
|     733 | 0x2578      |        9592 |
|     734 | 0x2579      |        9593 |
|     735 | 0x257A      |        9594 |
|     736 | 0x257B      |        9595 |
|     737 | 0x257C      |        9596 |
|     738 | 0x257D      |        9597 |
|     739 | 0x257E      |        9598 |
|     740 | 0x257F      |        9599 |
|     741 | 0x2580      |        9600 |
|     742 | 0x2581      |        9601 |
|     743 | 0x2582      |        9602 |
|     744 | 0x2583      |        9603 |
|     745 | 0x2584      |        9604 |
|     746 | 0x2585      |        9605 |
|     747 | 0x2586      |        9606 |
|     748 | 0x0353      |         851 |
|     749 | 0x2587      |        9607 |
|     750 | 0x2588      |        9608 |
|     751 | 0x2589      |        9609 |
|     752 | 0x258A      |        9610 |
|     753 | 0x258B      |        9611 |
|     754 | 0xFFFE2984  |  4294846852 |
|     755 | 0xFFFFD44B  |  4294956107 |
|     756 | 0x0BF4      |        3060 |
|     757 | 0x258C      |        9612 |
|     758 | 0x258D      |        9613 |
|     759 | 0x258E      |        9614 |
|     760 | 0x258F      |        9615 |
|     761 | 0x0055      |          85 |
|     762 | 0x2590      |        9616 |
|     763 | 0x2591      |        9617 |
|     764 | 0x2592      |        9618 |
|     765 | 0x2593      |        9619 |
|     766 | 0x2594      |        9620 |
|     767 | 0x2595      |        9621 |
|     768 | 0x2596      |        9622 |
|     769 | 0x2597      |        9623 |
|     770 | 0x2598      |        9624 |
|     771 | 0x2599      |        9625 |
|     772 | 0x259A      |        9626 |
|     773 | 0x259B      |        9627 |
|     774 | 0x259C      |        9628 |
|     775 | 0x259D      |        9629 |
|     776 | 0x0352      |         850 |
|     777 | 0x259E      |        9630 |
|     778 | 0x259F      |        9631 |
|     779 | 0x25A0      |        9632 |
|     780 | 0x25A1      |        9633 |
|     781 | 0x25A2      |        9634 |
|     782 | 0x25A3      |        9635 |
|     783 | 0x25A4      |        9636 |
|     784 | 0x25A5      |        9637 |
|     785 | 0x25A6      |        9638 |
|     786 | 0x25A7      |        9639 |
|     787 | 0x25A8      |        9640 |
|     788 | 0x25A9      |        9641 |
|     789 | 0x25AA      |        9642 |
|     790 | 0x25AB      |        9643 |
|     791 | 0x25AC      |        9644 |
|     792 | 0x25AD      |        9645 |
|     793 | 0x25AE      |        9646 |
|     794 | 0x25AF      |        9647 |
|     795 | 0x25B0      |        9648 |
|     796 | 0x25B1      |        9649 |
|     797 | 0x25B2      |        9650 |
|     798 | 0x25B3      |        9651 |
|     799 | 0x25B4      |        9652 |
|     800 | 0x0051      |          81 |
|     801 | 0x25B5      |        9653 |
|     802 | 0x25B6      |        9654 |
|     803 | 0x25B7      |        9655 |
|     804 | 0x25B8      |        9656 |
|     805 | 0x25B9      |        9657 |
|     806 | 0x25BA      |        9658 |
|     807 | 0x25BB      |        9659 |
|     808 | 0x25BC      |        9660 |
|     809 | 0x25BD      |        9661 |
|     810 | 0x25BE      |        9662 |
|     811 | 0x25BF      |        9663 |
|     812 | 0x25C0      |        9664 |
|     813 | 0x25C1      |        9665 |
|     814 | 0x25C2      |        9666 |
|     815 | 0x25C3      |        9667 |
|     816 | 0x25C4      |        9668 |
|     817 | 0x25C5      |        9669 |
|     818 | 0x25C6      |        9670 |
|     819 | 0x25C7      |        9671 |
|     820 | 0x25C8      |        9672 |
|     821 | 0x25C9      |        9673 |
|     822 | 0x25CA      |        9674 |
|     823 | 0x25CB      |        9675 |
|     824 | 0x25CC      |        9676 |
|     825 | 0x25CD      |        9677 |
|     826 | 0x25CE      |        9678 |
|     827 | 0x25CF      |        9679 |
|     828 | 0x25D0      |        9680 |
|     829 | 0x25D1      |        9681 |
|     830 | 0x25D2      |        9682 |
|     831 | 0x25D3      |        9683 |
|     832 | 0x25D4      |        9684 |
|     833 | 0x25D5      |        9685 |
|     834 | 0x25D6      |        9686 |
|     835 | 0x25D7      |        9687 |
|     836 | 0x25D8      |        9688 |
|     837 | 0x25D9      |        9689 |
|     838 | 0x25DA      |        9690 |
|     839 | 0x25DB      |        9691 |
|     840 | 0x25DC      |        9692 |
|     841 | 0x25DD      |        9693 |
|     842 | 0x25DE      |        9694 |
|     843 | 0x25DF      |        9695 |
|     844 | 0x25E0      |        9696 |
|     845 | 0x25E1      |        9697 |
|     846 | 0x25E2      |        9698 |
|     847 | 0x25E3      |        9699 |
|     848 | 0x25E4      |        9700 |
|     849 | 0x25E5      |        9701 |
|     850 | 0x25E6      |        9702 |
|     851 | 0x25E7      |        9703 |
|     852 | 0x00AA      |         170 |
|     853 | 0x25E8      |        9704 |
|     854 | 0x010B      |         267 |
|     855 | 0x091D      |        2333 |
|     856 | 0x25E9      |        9705 |
|     857 | 0x25EA      |        9706 |
|     858 | 0xFFFF219D  |  4294910365 |
|     859 | 0xFFFDFC93  |  4294835347 |
|     860 | 0x03EA      |        1002 |
|     861 | 0x3048      |       12360 |
|     862 | 0x3049      |       12361 |
|     863 | 0x304A      |       12362 |
|     864 | 0x304B      |       12363 |
|     865 | 0x304C      |       12364 |
|     866 | 0x304D      |       12365 |
|     867 | 0x304E      |       12366 |
|     868 | 0x304F      |       12367 |
|     869 | 0x3050      |       12368 |
|     870 | 0xFFFF31DB  |  4294914523 |
|     871 | 0xFFFE0286  |  4294836870 |
|     872 | 0x03F6      |        1014 |
|     873 | 0x3051      |       12369 |
|     874 | 0x3052      |       12370 |
|     875 | 0x3053      |       12371 |
|     876 | 0x3054      |       12372 |
|     877 | 0x3055      |       12373 |
|     878 | 0xFFFF2A77  |  4294912631 |
|     879 | 0xFFFDF4EA  |  4294833386 |
|     880 | 0x02A5      |         677 |
|     881 | 0x3056      |       12374 |
|     882 | 0x3057      |       12375 |
|     883 | 0x3058      |       12376 |
|     884 | 0x3059      |       12377 |
|     885 | 0x305A      |       12378 |
|     886 | 0xFFFF343A  |  4294915130 |
|     887 | 0xFFFDF68B  |  4294833803 |
|     888 | 0x011D      |         285 |
|     889 | 0xFFFBABA7  |  4294683559 |
|     890 | 0xFFFDDD01  |  4294827265 |
|     891 | 0x305D      |       12381 |
|     892 | 0x305E      |       12382 |
|     893 | 0x305F      |       12383 |
|     894 | 0x3060      |       12384 |
|     895 | 0x3061      |       12385 |
|     896 | 0x3062      |       12386 |
|     897 | 0x3063      |       12387 |
|     898 | 0x3064      |       12388 |
|     899 | 0x3066      |       12390 |
|     900 | 0x3067      |       12391 |
|     901 | 0x3068      |       12392 |
|     902 | 0x0384      |         900 |
|     903 | 0x3069      |       12393 |
|     904 | 0x306A      |       12394 |
|     905 | 0x306B      |       12395 |
|     906 | 0x306C      |       12396 |
|     907 | 0x306D      |       12397 |
|     908 | 0x306E      |       12398 |
|     909 | 0x306F      |       12399 |
|     910 | 0x3070      |       12400 |
|     911 | 0x3071      |       12401 |
|     912 | 0x3072      |       12402 |
|     913 | 0x3073      |       12403 |
|     914 | 0x3074      |       12404 |
|     915 | 0x3075      |       12405 |
|     916 | 0x3076      |       12406 |
|     917 | 0x3077      |       12407 |
|     918 | 0x00A3      |         163 |
|     919 | 0x110D      |        4365 |
|     920 | 0x3078      |       12408 |
|     921 | 0x3079      |       12409 |
|     922 | 0x307A      |       12410 |
|     923 | 0x0116      |         278 |
|     924 | 0xFFFEC4D4  |  4294886612 |
|     925 | 0xFFFE0E35  |  4294839861 |
|     926 | 0xFFFFEEB7  |  4294962871 |
|     927 | 0x0412      |        1042 |
|     928 | 0xFFFECA5B  |  4294888027 |
|     929 | 0xFFFDFB0E  |  4294834958 |
|     930 | 0xFFFFED0F  |  4294962447 |
|     931 | 0x0553      |        1363 |
|     932 | 0x0150      |         336 |
|     933 | 0x307F      |       12415 |
|     934 | 0x3080      |       12416 |
|     935 | 0x3081      |       12417 |
|     936 | 0x3082      |       12418 |
|     937 | 0x3083      |       12419 |
|     938 | 0xFFFECD5D  |  4294888797 |
|     939 | 0xFFFDFA4C  |  4294834764 |
|     940 | 0x0A43      |        2627 |
|     941 | 0x3084      |       12420 |
|     942 | 0x3085      |       12421 |
|     943 | 0x3086      |       12422 |
|     944 | 0x3087      |       12423 |
|     945 | 0xFFFE4B0B  |  4294855435 |
|     946 | 0xFFFE5F37  |  4294860599 |
|     947 | 0xFFFFEF56  |  4294963030 |
|     948 | 0x0725      |        1829 |
|     949 | 0x3089      |       12425 |
|     950 | 0x308A      |       12426 |
|     951 | 0x308B      |       12427 |
|     952 | 0x308C      |       12428 |
|     953 | 0x308D      |       12429 |
|     954 | 0x308E      |       12430 |
|     955 | 0x308F      |       12431 |
|     956 | 0x3F0A      |       16138 |
|     957 | 0x3A9A      |       15002 |
|     958 | 0x3D82      |       15746 |
|     959 | 0x3090      |       12432 |
|     960 | 0x3091      |       12433 |
|     961 | 0x0924      |        2340 |
|     962 | 0x07DA      |        2010 |
|     963 | 0x07C7      |        1991 |
|     964 | 0x3F0B      |       16139 |
|     965 | 0x08F0      |        2288 |
|     966 | 0x033E      |         830 |
|     967 | 0x07CC      |        1996 |
|     968 | 0x3A9B      |       15003 |
|     969 | 0x08F1      |        2289 |
|     970 | 0x0664      |        1636 |
|     971 | 0x07CF      |        1999 |
|     972 | 0x3D83      |       15747 |
|     973 | 0x3092      |       12434 |
|     974 | 0x3093      |       12435 |
|     975 | 0x3094      |       12436 |
|     976 | 0x3095      |       12437 |
|     977 | 0x309A      |       12442 |
|     978 | 0x309B      |       12443 |
|     979 | 0x309C      |       12444 |
|     980 | 0x309D      |       12445 |
|     981 | 0x309E      |       12446 |
|     982 | 0x309F      |       12447 |
|     983 | 0x30A0      |       12448 |
|     984 | 0x30A1      |       12449 |
|     985 | 0x30A2      |       12450 |
|     986 | 0x30A3      |       12451 |
|     987 | 0xFFFBA1C8  |  4294681032 |
|     988 | 0xFFFF5787  |  4294924167 |
|     989 | 0xFFFBAD2B  |  4294683947 |
|     990 | 0xFFFF62ED  |  4294927085 |
|     991 | 0x0027      |          39 |
|     992 | 0x003B      |          59 |
|     993 | 0x0045      |          69 |
|     994 | 0xFFFAA54D  |  4294616397 |
|     995 | 0xFFFD5814  |  4294793236 |
|     996 | 0xFFFACBBB  |  4294626235 |
|     997 | 0xFFFD4FB4  |  4294791092 |
|     998 | 0xFFFACB81  |  4294626177 |
|     999 | 0xFFFD4B58  |  4294789976 |
|    1000 | 0x00B3      |         179 |
|    1001 | 0x00BD      |         189 |
|    1002 | 0x00D1      |         209 |
|    1003 | 0x2814C     |      164172 |
|    1004 | 0x5118B     |      332171 |
|    1005 | 0xFFFEA992  |  4294879634 |
|    1006 | 0x27951     |      162129 |
|    1007 | 0x510CC     |      331980 |
|    1008 | 0xFFFEA9CB  |  4294879691 |

## String References

- **9099**: Your adventuring fellow's level limit is now 55.
- **9581**: Help Iruki-Waraki? [Rain or shine!/Volcanoes? No thanks...]
- **9591**: Why were you victorious? [It was one-on-one./Shamarhaan wasn't there./My automaton is stronger.]
- **12433**: Which will you have made? [#./$1./$2./Nothing.]
- **12436**: Sounds doable? [No problem./No...]

## Events

### Event 65535

#### Metadata

| Field        | Value   |
|--------------|---------|
| Entrypoint   | 0x0000  |
| Data Size    | 1 bytes |
| Instructions | 1       |

```
      00 01 02 03 04 05 06 07  08 09 0A 0B 0C 0D 0E 0F
      -- -- -- -- -- -- -- --  -- -- -- -- -- -- -- --
0000: 00                                                .               
```

#### Opcodes

```
  0: 0x0000 [0x00] END_REQSTACK()
```

### Event 0

#### Metadata

| Field        | Value    |
|--------------|----------|
| Entrypoint   | 0x0001   |
| Data Size    | 12 bytes |
| Instructions | 3        |

```
      00 01 02 03 04 05 06 07  08 09 0A 0B 0C 0D 0E 0F
      -- -- -- -- -- -- -- --  -- -- -- -- -- -- -- --
0000:    22 00 37 00 80 01 80  02 80 03 80 00            ".7.........   
```

#### Opcodes

```
  0: 0x0001 [0x22] ENTITY_HIDE_FLAG(enabled=0x00)
  1: 0x0003 [0x37] UPDATE_EVENT_POSITION_AND_DIR: x=-365.250*, z=-184.858*, y=-10.501*, direction=315.0°*
  2: 0x000C [0x00] END_REQSTACK()
```

### Event 65534

#### Metadata

| Field        | Value   |
|--------------|---------|
| Entrypoint   | 0x000D  |
| Data Size    | 1 bytes |
| Instructions | 1       |

```
      00 01 02 03 04 05 06 07  08 09 0A 0B 0C 0D 0E 0F
      -- -- -- -- -- -- -- --  -- -- -- -- -- -- -- --
0000:                                         00                     .  
```

#### Opcodes

```
  0: 0x000D [0x00] END_REQSTACK()
```

### Event 65535.1

#### Metadata

| Field        | Value    |
|--------------|----------|
| Entrypoint   | 0x000E   |
| Data Size    | 14 bytes |
| Instructions | 4        |

```
      00 01 02 03 04 05 06 07  08 09 0A 0B 0C 0D 0E 0F
      -- -- -- -- -- -- -- --  -- -- -- -- -- -- -- --
0000:                                            32 04                2.
0010: 80 1F 00 05 80 06 80 07  80 1F 01 00              ............    
```

#### Opcodes

```
  0: 0x000E [0x32] ExtData[1]->MainSpeed = 13* * 0.1
  1: 0x0011 [0x1F] MOVE_ENTITY: EventEntity moves to X=-356.714*, Z=-176.372*, Y=-10.002*
  2: 0x0019 [0x1F] MOVE_ENTITY: Update entity position (mode=1)
  3: 0x001B [0x00] END_REQSTACK()
```

### Event 65535.2

#### Metadata

| Field        | Value    |
|--------------|----------|
| Entrypoint   | 0x001C   |
| Data Size    | 23 bytes |
| Instructions | 5        |

```
      00 01 02 03 04 05 06 07  08 09 0A 0B 0C 0D 0E 0F
      -- -- -- -- -- -- -- --  -- -- -- -- -- -- -- --
0010:                                      32 04 80 37              2..7
0020: 08 80 09 80 0A 80 0B 80  1F 00 0C 80 0D 80 0A 80  ................
0030: 1F 01 00                                          ...             
```

#### Opcodes

```
  0: 0x001C [0x32] ExtData[1]->MainSpeed = 13* * 0.1
  1: 0x001F [0x37] UPDATE_EVENT_POSITION_AND_DIR: x=-336.059*, z=-156.090*, y=-10.003*, direction=309.0°*
  2: 0x0028 [0x1F] MOVE_ENTITY: EventEntity moves to X=-319.076*, Z=-139.082*, Y=-10.003*
  3: 0x0030 [0x1F] MOVE_ENTITY: Update entity position (mode=1)
  4: 0x0032 [0x00] END_REQSTACK()
```

### Event 65535.3

#### Metadata

| Field        | Value    |
|--------------|----------|
| Entrypoint   | 0x0033   |
| Data Size    | 23 bytes |
| Instructions | 5        |

```
      00 01 02 03 04 05 06 07  08 09 0A 0B 0C 0D 0E 0F
      -- -- -- -- -- -- -- --  -- -- -- -- -- -- -- --
0030:          32 04 80 37 0E  80 0F 80 10 80 11 80 1F     2..7.........
0040: 00 12 80 13 80 14 80 1F  01 00                    ..........      
```

#### Opcodes

```
  0: 0x0033 [0x32] ExtData[1]->MainSpeed = 13* * 0.1
  1: 0x0036 [0x37] UPDATE_EVENT_POSITION_AND_DIR: x=-285.931*, z=-109.684*, y=-10.000*, direction=195.4°*
  2: 0x003F [0x1F] MOVE_ENTITY: EventEntity moves to X=-281.546*, Z=-98.238*, Y=-11.999*
  3: 0x0047 [0x1F] MOVE_ENTITY: Update entity position (mode=1)
  4: 0x0049 [0x00] END_REQSTACK()
```

### Event 65535.4

#### Metadata

| Field        | Value    |
|--------------|----------|
| Entrypoint   | 0x004A   |
| Data Size    | 15 bytes |
| Instructions | 3        |

```
      00 01 02 03 04 05 06 07  08 09 0A 0B 0C 0D 0E 0F
      -- -- -- -- -- -- -- --  -- -- -- -- -- -- -- --
0040:                                37 15 80 16 80 17            7.....
0050: 80 18 80 1E 0B B0 0E 01  00                       .........       
```

#### Opcodes

```
  0: 0x004A [0x37] UPDATE_EVENT_POSITION_AND_DIR: x=-279.816*, z=-91.989*, y=-12.136*, direction=21.5°*
  1: 0x0053 [0x1E] EventEntity looks at Valdemar (ID: 17739787/0x010EB00B) and starts talking
  2: 0x0058 [0x00] END_REQSTACK()
```

### Event 243

#### Metadata

| Field        | Value      |
|--------------|------------|
| Entrypoint   | 0x0059     |
| Data Size    | 1005 bytes |
| Instructions | 148        |

```
      00 01 02 03 04 05 06 07  08 09 0A 0B 0C 0D 0E 0F
      -- -- -- -- -- -- -- --  -- -- -- -- -- -- -- --
0050:                             20 01 42 75 00 19 80            .Bu...
0060: 75 01 1A 6F 05 46 01 45  1A 80 F8 FF FF 7F F8 FF  u..o.F.E........
0070: FF 7F 73 30 32 37 1B 80  38 1C 80 37 1D 80 1E 80  ..s027..8..7....
0080: 1F 80 20 80 1A B1 05 4A  05 B0 0E 01 F0 FF FF 7F  .. ....J........
0090: 2B 05 B0 0E 01 21 80 23  27 0A 53 B0 0E 01 02 1A  +....!.#'.S.....
00A0: 6F 05 52 1A 80 F8 FF FF  7F F8 FF FF 7F 73 30 32  o.R..........s02
00B0: 37 45 1A 80 F8 FF FF 7F  F8 FF FF 7F 73 30 31 38  7E..........s018
00C0: 1B 80 5D 1B 80 22 80 1A  B1 05 5C 00 23 80 5C 01  ..].."....\.#.\.
00D0: 23 80 27 0A 2C B0 0E 01  01 2B 2C B0 0E 01 24 80  #.'.,....+,...$.
00E0: 23 27 0A 05 B0 0E 01 09  27 0A 0A B0 0E 01 08 2B  #'......'......+
00F0: 05 B0 0E 01 25 80 23 2B  0A B0 0E 01 26 80 23 2A  ....%.#+....&.#*
0100: 0A 0A B0 0E 01 55 1A 80  F8 FF FF 7F F8 FF FF 7F  .....U..........
0110: 73 30 31 38 27 0A 0A B0  0E 01 09 4B 05 B0 0E 01  s018'......K....
0120: 27 80 1C 28 80 4B 2C B0  0E 01 29 80 79 00 05 B0  '..(.K,...).y...
0130: 0E 01 0A B0 0E 01 79 00  F8 FF FF 7F 0A B0 0E 01  ......y.........
0140: 37 2A 80 2B 80 1F 80 2C  80 45 1A 80 F8 FF FF 7F  7*.+...,.E......
0150: F8 FF FF 7F 73 30 31 39  1B 80 6F 76 05 B0 0E 01  ....s019..ov....
0160: 5B 2D 80 05 B0 0E 01 05  B0 0E 01 74 6C 6B 30 2B  [-.........tlk0+
0170: 05 B0 0E 01 2E 80 23 6B  69 64 6C 30 05 B0 0E 01  ......#kidl0....
0180: 1C 2F 80 27 0A 05 B0 0E  01 0A 1C 22 80 27 0A 2C  ./.'.......".'.,
0190: B0 0E 01 02 79 00 F0 FF  FF 7F 0A B0 0E 01 2B 2C  ....y.........+,
01A0: B0 0E 01 30 80 23 2A 0A  0A B0 0E 01 55 1A 80 F8  ...0.#*.....U...
01B0: FF FF 7F F8 FF FF 7F 73  30 31 39 45 1A 80 F8 FF  .......s019E....
01C0: FF 7F F8 FF FF 7F 73 30  32 30 1B 80 79 00 0A B0  ......s020..y...
01D0: 0E 01 2C B0 0E 01 4B 0A  B0 0E 01 31 80 2B 0A B0  ..,...K....1.+..
01E0: 0E 01 32 80 23 2A 0A 2C  B0 0E 01 66 22 80 2C B0  ..2.#*.,...f".,.
01F0: 0E 01 2C B0 0E 01 74 6C  6B 30 2B 2C B0 0E 01 33  ..,...tlk0+,...3
0200: 80 23 6B 69 64 6C 30 2C  B0 0E 01 27 0A 05 B0 0E  .#kidl0,...'....
0210: 01 0B 1C 22 80 2B 05 B0  0E 01 34 80 23 79 00 0A  ...".+....4.#y..
0220: B0 0E 01 05 B0 0E 01 2B  0A B0 0E 01 35 80 23 5B  .......+....5.#[
0230: 2D 80 05 B0 0E 01 05 B0  0E 01 74 68 6B 31 2A 0A  -.........thk1*.
0240: 05 B0 0E 01 2B 05 B0 0E  01 36 80 23 66 37 80 0A  ....+....6.#f7..
0250: B0 0E 01 0A B0 0E 01 74  6C 6B 30 2B 0A B0 0E 01  .......tlk0+....
0260: 38 80 23 5B 2D 80 05 B0  0E 01 05 B0 0E 01 74 68  8.#[-.........th
0270: 6B 32 79 00 0A B0 0E 01  2C B0 0E 01 2B 0A B0 0E  k2y.....,...+...
0280: 01 39 80 23 27 0A 0A B0  0E 01 0A 45 1A 80 F8 FF  .9.#'......E....
0290: FF 7F F8 FF FF 7F 73 30  32 31 1B 80 1C 2F 80 2B  ......s021.../.+
02A0: 2C B0 0E 01 3A 80 23 2A  0A 0A B0 0E 01 27 0A 0A  ,...:.#*.....'..
02B0: B0 0E 01 0B 27 0A 53 B0  0E 01 04 2B 0A B0 0E 01  ....'.S....+....
02C0: 3B 80 23 1A 6F 05 52 1A  80 F8 FF FF 7F F8 FF FF  ;.#.o.R.........
02D0: 7F 73 30 32 31 45 1A 80  F8 FF FF 7F F8 FF FF 7F  .s021E..........
02E0: 73 30 32 32 1B 80 27 0A  05 B0 0E 01 0C 4A 2C B0  s022..'......J,.
02F0: 0E 01 05 B0 0E 01 1A B1  05 2B 05 B0 0E 01 3C 80  .........+....<.
0300: 23 66 22 80 2C B0 0E 01  2C B0 0E 01 74 6C 6B 30  #f".,...,...tlk0
0310: 2B 2C B0 0E 01 3D 80 23  2B 2C B0 0E 01 3E 80 23  +,...=.#+,...>.#
0320: 6B 69 64 6C 30 2C B0 0E  01 5B 2D 80 05 B0 0E 01  kidl0,...[-.....
0330: 05 B0 0E 01 74 68 6B 31  2B 05 B0 0E 01 3F 80 23  ....thk1+....?.#
0340: 5B 2D 80 05 B0 0E 01 05  B0 0E 01 74 68 6B 32 79  [-.........thk2y
0350: 00 05 B0 0E 01 2C B0 0E  01 7B 2C B0 0E 01 2B 2C  .....,...{,...+,
0360: B0 0E 01 40 80 23 5B 2D  80 05 B0 0E 01 05 B0 0E  ...@.#[-........
0370: 01 74 6C 6B 30 2B 05 B0  0E 01 41 80 23 6B 69 64  .tlk0+....A.#kid
0380: 6C 30 05 B0 0E 01 2A 0A  2C B0 0E 01 79 00 2C B0  l0....*.,...y.,.
0390: 0E 01 05 B0 0E 01 2B 2C  B0 0E 01 42 80 23 5B 2D  ......+,...B.#[-
03A0: 80 05 B0 0E 01 05 B0 0E  01 74 68 6B 31 2B 05 B0  .........thk1+..
03B0: 0E 01 43 80 23 52 1A 80  F8 FF FF 7F F8 FF FF 7F  ..C.#R..........
03C0: 73 30 32 32 45 44 80 F0  FF FF 7F F0 FF FF 7F 6F  s022ED.........o
03D0: 76 6C 32 1B 80 45 1A 80  F8 FF FF 7F F8 FF FF 7F  vl2..E..........
03E0: 73 30 32 33 1B 80 1C 22  80 27 0A 2C B0 0E 01 03  s023...".'.,....
03F0: 27 0A 05 B0 0E 01 0D 2B  2C B0 0E 01 45 80 23 2B  '......+,...E.#+
0400: 05 B0 0E 01 46 80 23 2B  2C B0 0E 01 47 80 23 1A  ....F.#+,...G.#.
0410: C3 05 52 1A 80 F8 FF FF  7F F8 FF FF 7F 73 30 32  ..R..........s02
0420: 33 46 00 5D 1B 80 37 80  45 48 80 F0 FF FF 7F F0  3F.]..7.EH......
0430: FF FF 7F 71 73 74 63 1B  80 1A E4 05 5C 00 49 80  ...qstc.....\.I.
0440: 5C 01 49 80 21 00                                 \.I.!.          
```

#### Opcodes

```
  0: 0x0059 [0x20] SET_CLI_EVENT_UC_FLAG: Lock player control
  1: 0x005B [0x42] SET_CLI_EVENT_CANCEL_DATA()
  2: 0x005C [0x75] LOAD_ROOM(Load indoor room, room=287*)
  3: 0x0060 [0x75] LOAD_ROOM(No action)
  4: 0x0062 [0x1A] CALL_SUBROUTINE(address=0x056F)
  5: 0x0065 [0x46] CAMERA_CONTROL: Disable user control
  6: 0x0067 [0x45] LOAD_SCHEDULED_TASK: Load scheduler "s027" with entities [EventEntity, EventEntity], work=[135*, 0*]
  7: 0x0078 [0x38] SET_CLIENT_EVENT_MODE(mode=3*)
  8: 0x007B [0x37] UPDATE_EVENT_POSITION_AND_DIR: x=-319.435*, z=-175.742*, y=-15.964*, direction=22.6°*
  9: 0x0084 [0x1A] CALL_SUBROUTINE(address=0x05B1)
 10: 0x0087 [0x4A] Gwill (ID: 17739781/0x010EB005) looks at LocalPlayer
 11: 0x0090 [0x2B] Gwill (ID: 17739781/0x010EB005) [7623*]:
    → "Thanks! Now I can finish my present!"
 12: 0x0097 [0x23] WAIT_FOR_DIALOG_INTERACTION
 13: 0x0098 [0x27] REQ_SET(priority=0x0A, entity_id=Door:House (ID: 17739859/0x010EB053), tag_num=0x02)
 14: 0x009F [0x1A] CALL_SUBROUTINE(address=0x056F)
 15: 0x00A2 [0x52] END_LOAD_SCHEDULER: End scheduler "s027" with entities [EventEntity, EventEntity], work=135*
 16: 0x00B1 [0x45] LOAD_SCHEDULED_TASK: Load scheduler "s018" with entities [EventEntity, EventEntity], work=[135*, 0*]
 17: 0x00C2 [0x5D] SET_MUSIC_VOLUME(volume=0*, fade_time=30*)
 18: 0x00C7 [0x1A] CALL_SUBROUTINE(address=0x05B1)
 19: 0x00CA [0x5C] MUSIC_CONTROL: Set Idle (Day) music to song 124*
 20: 0x00CE [0x5C] MUSIC_CONTROL: Set Idle (Night) music to song 124*
 21: 0x00D2 [0x27] REQ_SET(priority=0x0A, entity_id=Michea (ID: 17739820/0x010EB02C), tag_num=0x01)
 22: 0x00D9 [0x2B] Michea (ID: 17739820/0x010EB02C) [7624*]:
    → "Gwill! Mister Dalzakk's back!"
 23: 0x00E0 [0x23] WAIT_FOR_DIALOG_INTERACTION
 24: 0x00E1 [0x27] REQ_SET(priority=0x0A, entity_id=Gwill (ID: 17739781/0x010EB005), tag_num=0x09)
 25: 0x00E8 [0x27] REQ_SET(priority=0x0A, entity_id=Dalzakk (ID: 17739786/0x010EB00A), tag_num=0x08)
 26: 0x00EF [0x2B] Gwill (ID: 17739781/0x010EB005) [7625*]:
    → "Oh, no! So soon!?"
 27: 0x00F6 [0x23] WAIT_FOR_DIALOG_INTERACTION
 28: 0x00F7 [0x2B] Dalzakk (ID: 17739786/0x010EB00A) [7626*]:
    → "Hmm? What is all this racket?"
 29: 0x00FE [0x23] WAIT_FOR_DIALOG_INTERACTION
 30: 0x00FF [0x2A] GET_REQ_LEVEL(level=10, entity_id=Dalzakk (ID: 17739786/0x010EB00A))
 31: 0x0105 [0x55] WAIT_LOAD_SCHEDULER: Wait for scheduler "s018" with entities [EventEntity, EventEntity], work=135*
 32: 0x0114 [0x27] REQ_SET(priority=0x0A, entity_id=Dalzakk (ID: 17739786/0x010EB00A), tag_num=0x09)
 33: 0x011B [0x4B] UPDATE_ENTITY_YAW(entity=Gwill (ID: 17739781/0x010EB005), yaw=12.9°*)
 34: 0x0122 [0x1C] WAIT(5* ticks)
 35: 0x0125 [0x4B] UPDATE_ENTITY_YAW(entity=Michea (ID: 17739820/0x010EB02C), yaw=10.2°*)
 36: 0x012C [0x79] Gwill (ID: 17739781/0x010EB005) looks at Dalzakk (ID: 17739786/0x010EB00A) (Basic look)
 37: 0x0136 [0x79] EventEntity looks at Dalzakk (ID: 17739786/0x010EB00A) (Basic look)
 38: 0x0140 [0x37] UPDATE_EVENT_POSITION_AND_DIR: x=-319.309*, z=-175.380*, y=-15.964*, direction=238.2°*
 39: 0x0149 [0x45] LOAD_SCHEDULED_TASK: Load scheduler "s019" with entities [EventEntity, EventEntity], work=[135*, 0*]
 40: 0x015A [0x6F] WAIT_FRAME_DELAY: Yield until WaitTime reaches zero
 41: 0x015B [0x76] CHECK_ENTITY_RENDER_FLAGS: Wait until Gwill (ID: 17739781/0x010EB005) Render.Flags0 and Render.Flags3 conditions are met
 42: 0x0160 [0x5B] LOAD_EXT_SCHEDULER: Load scheduler "tlk0" with entities [Gwill (ID: 17739781/0x010EB005), Gwill (ID: 17739781/0x010EB005)], work=90*
 43: 0x016F [0x2B] Gwill (ID: 17739781/0x010EB005) [7627*]:
    → "Welcome back, Mister Dalzakk! Uh... Michea, you first!"
 44: 0x0176 [0x23] WAIT_FOR_DIALOG_INTERACTION
 45: 0x0177 [0x6B] STOP_AND_IDLE: Gwill (ID: 17739781/0x010EB005) stops current action and resets to idle (animation="idl0")
 46: 0x0180 [0x1C] WAIT(10* ticks)
 47: 0x0183 [0x27] REQ_SET(priority=0x0A, entity_id=Gwill (ID: 17739781/0x010EB005), tag_num=0x0A)
 48: 0x018A [0x1C] WAIT(30* ticks)
 49: 0x018D [0x27] REQ_SET(priority=0x0A, entity_id=Michea (ID: 17739820/0x010EB02C), tag_num=0x02)
 50: 0x0194 [0x79] LocalPlayer looks at Dalzakk (ID: 17739786/0x010EB00A) (Basic look)
 51: 0x019E [0x2B] Michea (ID: 17739820/0x010EB02C) [7628*]:
    → "Mister Dalzakk...I made this for you. It's a good luck charm to protect you on your travels. See? Don't you agree I have nothing to learn from that guild?"
 52: 0x01A5 [0x23] WAIT_FOR_DIALOG_INTERACTION
 53: 0x01A6 [0x2A] GET_REQ_LEVEL(level=10, entity_id=Dalzakk (ID: 17739786/0x010EB00A))
 54: 0x01AC [0x55] WAIT_LOAD_SCHEDULER: Wait for scheduler "s019" with entities [EventEntity, EventEntity], work=135*
 55: 0x01BB [0x45] LOAD_SCHEDULED_TASK: Load scheduler "s020" with entities [EventEntity, EventEntity], work=[135*, 0*]
 56: 0x01CC [0x79] Dalzakk (ID: 17739786/0x010EB00A) looks at Michea (ID: 17739820/0x010EB02C) (Basic look)
 57: 0x01D6 [0x4B] UPDATE_ENTITY_YAW(entity=Dalzakk (ID: 17739786/0x010EB00A), yaw=1.6°*)
 58: 0x01DD [0x2B] Dalzakk (ID: 17739786/0x010EB00A) [7629*]:
    → "Yes, I must say you've become quite an artisan. But artisans should never work for free, Michea."
 59: 0x01E4 [0x23] WAIT_FOR_DIALOG_INTERACTION
 60: 0x01E5 [0x2A] GET_REQ_LEVEL(level=10, entity_id=Michea (ID: 17739820/0x010EB02C))
 61: 0x01EB [0x66] LOAD_EXT_SCHEDULER_MAIN: Load scheduler "tlk0" with entities [Michea (ID: 17739820/0x010EB02C), Michea (ID: 17739820/0x010EB02C)], work=30*
 62: 0x01FA [0x2B] Michea (ID: 17739820/0x010EB02C) [7630*]:
    → "I knew you'd say that. Just think of it as a payment from me to you, for all the years you've taken care of me... Thank you for everything, Mister Dalzakk."
 63: 0x0201 [0x23] WAIT_FOR_DIALOG_INTERACTION
 64: 0x0202 [0x6B] STOP_AND_IDLE: Michea (ID: 17739820/0x010EB02C) stops current action and resets to idle (animation="idl0")
 65: 0x020B [0x27] REQ_SET(priority=0x0A, entity_id=Gwill (ID: 17739781/0x010EB005), tag_num=0x0B)
 66: 0x0212 [0x1C] WAIT(30* ticks)
 67: 0x0215 [0x2B] Gwill (ID: 17739781/0x010EB005) [7631*]:
    → "I...I made you a present, too. It's for letting me stay here and read your books."
 68: 0x021C [0x23] WAIT_FOR_DIALOG_INTERACTION
 69: 0x021D [0x79] Dalzakk (ID: 17739786/0x010EB00A) looks at Gwill (ID: 17739781/0x010EB005) (Basic look)
 70: 0x0227 [0x2B] Dalzakk (ID: 17739786/0x010EB00A) [7632*]:
    → "You have been practicing with your sword as well, I hope? Remember what I've told you: though studying is important, no scholar has ever become a Musketeer nor an adventurer."
 71: 0x022E [0x23] WAIT_FOR_DIALOG_INTERACTION
 72: 0x022F [0x5B] LOAD_EXT_SCHEDULER: Load scheduler "thk1" with entities [Gwill (ID: 17739781/0x010EB005), Gwill (ID: 17739781/0x010EB005)], work=90*
 73: 0x023E [0x2A] GET_REQ_LEVEL(level=10, entity_id=Gwill (ID: 17739781/0x010EB005))
 74: 0x0244 [0x2B] Gwill (ID: 17739781/0x010EB005) [7633*]:
    → "Augh... No, I haven't forgotten, Mister Dalzakk..."
 75: 0x024B [0x23] WAIT_FOR_DIALOG_INTERACTION
 76: 0x024C [0x66] LOAD_EXT_SCHEDULER_MAIN: Load scheduler "tlk0" with entities [Dalzakk (ID: 17739786/0x010EB00A), Dalzakk (ID: 17739786/0x010EB00A)], work=60*
 77: 0x025B [0x2B] Dalzakk (ID: 17739786/0x010EB00A) [7634*]:
    → "I am sorry, Gwill. I did not mean to sound critical. Thank you for your gifts. They mean a lot to me. Alas, I must be off again. Gwill, would you take care of the house for me?"
 78: 0x0262 [0x23] WAIT_FOR_DIALOG_INTERACTION
 79: 0x0263 [0x5B] LOAD_EXT_SCHEDULER: Load scheduler "thk2" with entities [Gwill (ID: 17739781/0x010EB005), Gwill (ID: 17739781/0x010EB005)], work=90*
 80: 0x0272 [0x79] Dalzakk (ID: 17739786/0x010EB00A) looks at Michea (ID: 17739820/0x010EB02C) (Basic look)
 81: 0x027C [0x2B] Dalzakk (ID: 17739786/0x010EB00A) [7635*]:
    → "And Michea, do you now have an answer to my riddle about the true value of the red rose?"
 82: 0x0283 [0x23] WAIT_FOR_DIALOG_INTERACTION
 83: 0x0284 [0x27] REQ_SET(priority=0x0A, entity_id=Dalzakk (ID: 17739786/0x010EB00A), tag_num=0x0A)
 84: 0x028B [0x45] LOAD_SCHEDULED_TASK: Load scheduler "s021" with entities [EventEntity, EventEntity], work=[135*, 0*]
 85: 0x029C [0x1C] WAIT(10* ticks)
 86: 0x029F [0x2B] Michea (ID: 17739820/0x010EB02C) [7636*]:
    → "Yes. Each person might see a different shade of red, but the fact that we can all agree on its beauty--that is a miracle."
 87: 0x02A6 [0x23] WAIT_FOR_DIALOG_INTERACTION
 88: 0x02A7 [0x2A] GET_REQ_LEVEL(level=10, entity_id=Dalzakk (ID: 17739786/0x010EB00A))
 89: 0x02AD [0x27] REQ_SET(priority=0x0A, entity_id=Dalzakk (ID: 17739786/0x010EB00A), tag_num=0x0B)
 90: 0x02B4 [0x27] REQ_SET(priority=0x0A, entity_id=Door:House (ID: 17739859/0x010EB053), tag_num=0x04)
 91: 0x02BB [0x2B] Dalzakk (ID: 17739786/0x010EB00A) [7637*]:
    → "A wise answer. The day I will have to call you "Master Artisan Michea" is nearer than I thought."
 92: 0x02C2 [0x23] WAIT_FOR_DIALOG_INTERACTION
 93: 0x02C3 [0x1A] CALL_SUBROUTINE(address=0x056F)
 94: 0x02C6 [0x52] END_LOAD_SCHEDULER: End scheduler "s021" with entities [EventEntity, EventEntity], work=135*
 95: 0x02D5 [0x45] LOAD_SCHEDULED_TASK: Load scheduler "s022" with entities [EventEntity, EventEntity], work=[135*, 0*]
 96: 0x02E6 [0x27] REQ_SET(priority=0x0A, entity_id=Gwill (ID: 17739781/0x010EB005), tag_num=0x0C)
 97: 0x02ED [0x4A] Michea (ID: 17739820/0x010EB02C) looks at Gwill (ID: 17739781/0x010EB005)
 98: 0x02F6 [0x1A] CALL_SUBROUTINE(address=0x05B1)
 99: 0x02F9 [0x2B] Gwill (ID: 17739781/0x010EB005) [7638*]:
    → "Huh? What? What red rose?"
100: 0x0300 [0x23] WAIT_FOR_DIALOG_INTERACTION
101: 0x0301 [0x66] LOAD_EXT_SCHEDULER_MAIN: Load scheduler "tlk0" with entities [Michea (ID: 17739820/0x010EB02C), Michea (ID: 17739820/0x010EB02C)], work=30*
102: 0x0310 [0x2B] Michea (ID: 17739820/0x010EB02C) [7639*]:
    → "Gwill, have you ever wondered if everyone sees the same color when they look at a rose?"
103: 0x0317 [0x23] WAIT_FOR_DIALOG_INTERACTION
104: 0x0318 [0x2B] Michea (ID: 17739820/0x010EB02C) [7640*]:
    → "What if, when people say "red," they don't mean the same hue as you or I?"
105: 0x031F [0x23] WAIT_FOR_DIALOG_INTERACTION
106: 0x0320 [0x6B] STOP_AND_IDLE: Michea (ID: 17739820/0x010EB02C) stops current action and resets to idle (animation="idl0")
107: 0x0329 [0x5B] LOAD_EXT_SCHEDULER: Load scheduler "thk1" with entities [Gwill (ID: 17739781/0x010EB005), Gwill (ID: 17739781/0x010EB005)], work=90*
108: 0x0338 [0x2B] Gwill (ID: 17739781/0x010EB005) [7641*]:
    → "You mean...just because everyone says fires and sunsets are "red," they're not actually seeing the same color?"
109: 0x033F [0x23] WAIT_FOR_DIALOG_INTERACTION
110: 0x0340 [0x5B] LOAD_EXT_SCHEDULER: Load scheduler "thk2" with entities [Gwill (ID: 17739781/0x010EB005), Gwill (ID: 17739781/0x010EB005)], work=90*
111: 0x034F [0x79] Gwill (ID: 17739781/0x010EB005) looks at Michea (ID: 17739820/0x010EB02C) (Basic look)
112: 0x0359 [0x7B] Michea (ID: 17739820/0x010EB02C) stops talking
113: 0x035E [0x2B] Michea (ID: 17739820/0x010EB02C) [7642*]:
    → "Yes. And if so, is the red rose truly beautiful, as it is said to be?"
114: 0x0365 [0x23] WAIT_FOR_DIALOG_INTERACTION
115: 0x0366 [0x5B] LOAD_EXT_SCHEDULER: Load scheduler "tlk0" with entities [Gwill (ID: 17739781/0x010EB005), Gwill (ID: 17739781/0x010EB005)], work=90*
116: 0x0375 [0x2B] Gwill (ID: 17739781/0x010EB005) [7643*]:
    → "Oh! And so your answer was: even if everyone doesn't see the same thing the same way, it's wonderful that they can all agree on a thing of beauty--like a red rose!"
117: 0x037C [0x23] WAIT_FOR_DIALOG_INTERACTION
118: 0x037D [0x6B] STOP_AND_IDLE: Gwill (ID: 17739781/0x010EB005) stops current action and resets to idle (animation="idl0")
119: 0x0386 [0x2A] GET_REQ_LEVEL(level=10, entity_id=Michea (ID: 17739820/0x010EB02C))
120: 0x038C [0x79] Michea (ID: 17739820/0x010EB02C) looks at Gwill (ID: 17739781/0x010EB005) (Basic look)
121: 0x0396 [0x2B] Michea (ID: 17739820/0x010EB02C) [7644*]:
    → "That is the answer, Gwill. I see you've studied Mister Dalzakk's books well."
122: 0x039D [0x23] WAIT_FOR_DIALOG_INTERACTION
123: 0x039E [0x5B] LOAD_EXT_SCHEDULER: Load scheduler "thk1" with entities [Gwill (ID: 17739781/0x010EB005), Gwill (ID: 17739781/0x010EB005)], work=90*
124: 0x03AD [0x2B] Gwill (ID: 17739781/0x010EB005) [7645*]:
    → "Heh-heh!"
125: 0x03B4 [0x23] WAIT_FOR_DIALOG_INTERACTION
126: 0x03B5 [0x52] END_LOAD_SCHEDULER: End scheduler "s022" with entities [EventEntity, EventEntity], work=135*
127: 0x03C4 [0x45] LOAD_SCHEDULED_TASK: Load scheduler "ovl2" with entities [LocalPlayer, LocalPlayer], work=[200*, 0*]
128: 0x03D5 [0x45] LOAD_SCHEDULED_TASK: Load scheduler "s023" with entities [EventEntity, EventEntity], work=[135*, 0*]
129: 0x03E6 [0x1C] WAIT(30* ticks)
130: 0x03E9 [0x27] REQ_SET(priority=0x0A, entity_id=Michea (ID: 17739820/0x010EB02C), tag_num=0x03)
131: 0x03F0 [0x27] REQ_SET(priority=0x0A, entity_id=Gwill (ID: 17739781/0x010EB005), tag_num=0x0D)
132: 0x03F7 [0x2B] Michea (ID: 17739820/0x010EB02C) [7646*]:
    → "I think sometimes life works the same way, too. Like us, for example. We might be of different races and ages, but here, today, in this small room above the Kulatz Bridge, we were able to share the same few moments of joy and wonderment."
133: 0x03FE [0x23] WAIT_FOR_DIALOG_INTERACTION
134: 0x03FF [0x2B] Gwill (ID: 17739781/0x010EB005) [7647*]:
    → "And that's...a miracle, right?"
135: 0x0406 [0x23] WAIT_FOR_DIALOG_INTERACTION
136: 0x0407 [0x2B] Michea (ID: 17739820/0x010EB02C) [7648*]:
    → "Yes, our own little miracle, Gwill."
137: 0x040E [0x23] WAIT_FOR_DIALOG_INTERACTION
138: 0x040F [0x1A] CALL_SUBROUTINE(address=0x05C3)
139: 0x0412 [0x52] END_LOAD_SCHEDULER: End scheduler "s023" with entities [EventEntity, EventEntity], work=135*
140: 0x0421 [0x46] CAMERA_CONTROL: Restore default settings
141: 0x0423 [0x5D] SET_MUSIC_VOLUME(volume=0*, fade_time=60*)
142: 0x0428 [0x45] LOAD_SCHEDULED_TASK: Load scheduler "qstc" with entities [LocalPlayer, LocalPlayer], work=[201*, 0*]
143: 0x0439 [0x1A] CALL_SUBROUTINE(address=0x05E4)
144: 0x043C [0x5C] MUSIC_CONTROL: Set Idle (Day) music to song 152*
145: 0x0440 [0x5C] MUSIC_CONTROL: Set Idle (Night) music to song 152*
146: 0x0444 [0x21] END_EVENT
147: 0x0445 [0x00] END_REQSTACK()
```

### Event 322

#### Metadata

| Field        | Value     |
|--------------|-----------|
| Entrypoint   | 0x0446    |
| Data Size    | 483 bytes |
| Instructions | 61        |

```
      00 01 02 03 04 05 06 07  08 09 0A 0B 0C 0D 0E 0F
      -- -- -- -- -- -- -- --  -- -- -- -- -- -- -- --
0440:                   42 75  00 4A 80 75 01 1A 6F 05        Bu.J.u..o.
0450: 38 1C 80 46 01 37 4B 80  4C 80 4D 80 4E 80 45 1A  8..F.7K.L.M.N.E.
0460: 80 F8 FF FF 7F F8 FF FF  7F 73 31 30 30 1B 80 4E  .........s100..N
0470: 00 45 B0 0E 01 45 1A 80  F8 FF FF 7F F8 FF FF 7F  .E...E..........
0480: 73 30 32 34 1B 80 1A B1  05 4A 2C B0 0E 01 F0 FF  s024.....J,.....
0490: FF 7F 2B 2C B0 0E 01 4F  80 23 66 22 80 2C B0 0E  ..+,...O.#f".,..
04A0: 01 2C B0 0E 01 74 6C 6B  30 2B 2C B0 0E 01 50 80  .,...tlk0+,...P.
04B0: 23 6B 69 64 6C 30 2C B0  0E 01 52 1A 80 F8 FF FF  #kidl0,...R.....
04C0: 7F F8 FF FF 7F 73 30 32  34 45 1A 80 F8 FF FF 7F  .....s024E......
04D0: F8 FF FF 7F 73 30 32 35  1B 80 27 0A 2C B0 0E 01  ....s025..'.,...
04E0: 11 2B 2C B0 0E 01 51 80  23 4A F0 FF FF 7F 2C B0  .+,...Q.#J....,.
04F0: 0E 01 2B 2C B0 0E 01 52  80 23 66 22 80 2C B0 0E  ..+,...R.#f".,..
0500: 01 2C B0 0E 01 74 68 6B  31 2B 2C B0 0E 01 53 80  .,...thk1+,...S.
0510: 23 1A C3 05 52 1A 80 F8  FF FF 7F F8 FF FF 7F 73  #...R..........s
0520: 30 32 35 45 1A 80 F8 FF  FF 7F F8 FF FF 7F 73 30  025E..........s0
0530: 32 36 1B 80 1A E4 05 2B  2C B0 0E 01 54 80 23 2B  26.....+,...T.#+
0540: 2C B0 0E 01 55 80 23 27  0A 45 B0 0E 01 02 1A F6  ,...U.#'.E......
0550: 05 2B 2C B0 0E 01 56 80  23 52 1A 80 F8 FF FF 7F  .+,...V.#R......
0560: F8 FF FF 7F 73 30 32 36  46 00 1A 17 06 21 00 45  ....s026F....!.E
0570: 44 80 F0 FF FF 7F F0 FF  FF 7F 66 64 6F 30 1B 80  D.........fdo0..
0580: 55 44 80 F0 FF FF 7F F0  FF FF 7F 66 64 6F 30 1B  UD.........fdo0.
0590: 45 44 80 F0 FF FF 7F F0  FF FF 7F 66 64 6F 30 1B  ED.........fdo0.
05A0: 80 55 44 80 F0 FF FF 7F  F0 FF FF 7F 66 64 6F 30  .UD.........fdo0
05B0: 1B 45 44 80 F0 FF FF 7F  F0 FF FF 7F 66 64 69 30  .ED.........fdi0
05C0: 1B 80 1B 45 44 80 F0 FF  FF 7F F0 FF FF 7F 66 64  ...ED.........fd
05D0: 6F 31 1B 80 55 44 80 F0  FF FF 7F F0 FF FF 7F 66  o1..UD.........f
05E0: 64 6F 31 1B 45 44 80 F0  FF FF 7F F0 FF FF 7F 66  do1.ED.........f
05F0: 64 69 31 1B 80 1B 45 44  80 F0 FF FF 7F F0 FF FF  di1...ED........
0600: 7F 66 64 6F 32 1B 80 55  44 80 F0 FF FF 7F F0 FF  .fdo2..UD.......
0610: FF 7F 66 64 6F 32 1B 45  44 80 F0 FF FF 7F F0 FF  ..fdo2.ED.......
0620: FF 7F 66 64 69 32 1B 80  1B                       ..fdi2...       
```

#### Opcodes

```
  0: 0x0446 [0x42] SET_CLI_EVENT_CANCEL_DATA()
  1: 0x0447 [0x75] LOAD_ROOM(Load indoor room, room=286*)
  2: 0x044B [0x75] LOAD_ROOM(No action)
  3: 0x044D [0x1A] CALL_SUBROUTINE(address=0x056F)
  4: 0x0450 [0x38] SET_CLIENT_EVENT_MODE(mode=3*)
  5: 0x0453 [0x46] CAMERA_CONTROL: Disable user control
  6: 0x0455 [0x37] UPDATE_EVENT_POSITION_AND_DIR: x=-299.411*, z=-157.270*, y=-15.971*, direction=353.0°*
  7: 0x045E [0x45] LOAD_SCHEDULED_TASK: Load scheduler "s100" with entities [EventEntity, EventEntity], work=[135*, 0*]
  8: 0x046F [0x4E] SET_ENTITY_HIDE_FLAG: Show Cornelia (ID: 17739845/0x010EB045)
  9: 0x0475 [0x45] LOAD_SCHEDULED_TASK: Load scheduler "s024" with entities [EventEntity, EventEntity], work=[135*, 0*]
 10: 0x0486 [0x1A] CALL_SUBROUTINE(address=0x05B1)
 11: 0x0489 [0x4A] Michea (ID: 17739820/0x010EB02C) looks at LocalPlayer
 12: 0x0492 [0x2B] Michea (ID: 17739820/0x010EB02C) [8155*]:
    → "Thank you very much. Gwill was so happy that you talked to Dalzakk."
 13: 0x0499 [0x23] WAIT_FOR_DIALOG_INTERACTION
 14: 0x049A [0x66] LOAD_EXT_SCHEDULER_MAIN: Load scheduler "tlk0" with entities [Michea (ID: 17739820/0x010EB02C), Michea (ID: 17739820/0x010EB02C)], work=30*
 15: 0x04A9 [0x2B] Michea (ID: 17739820/0x010EB02C) [8156*]:
    → "To tell you the truth, someone saw you heading to Oggbi's and told me that I should go with you."
 16: 0x04B0 [0x23] WAIT_FOR_DIALOG_INTERACTION
 17: 0x04B1 [0x6B] STOP_AND_IDLE: Michea (ID: 17739820/0x010EB02C) stops current action and resets to idle (animation="idl0")
 18: 0x04BA [0x52] END_LOAD_SCHEDULER: End scheduler "s024" with entities [EventEntity, EventEntity], work=135*
 19: 0x04C9 [0x45] LOAD_SCHEDULED_TASK: Load scheduler "s025" with entities [EventEntity, EventEntity], work=[135*, 0*]
 20: 0x04DA [0x27] REQ_SET(priority=0x0A, entity_id=Michea (ID: 17739820/0x010EB02C), tag_num=0x11)
 21: 0x04E1 [0x2B] Michea (ID: 17739820/0x010EB02C) [8157*]:
    → "She told me that if I couldn't solve the problem myself, I should ask the help of an adventurer. Only a pampered girl like her would think of such a plan."
 22: 0x04E8 [0x23] WAIT_FOR_DIALOG_INTERACTION
 23: 0x04E9 [0x4A] LocalPlayer looks at Michea (ID: 17739820/0x010EB02C)
 24: 0x04F2 [0x2B] Michea (ID: 17739820/0x010EB02C) [8158*]:
    → "Before, I hated the way she acted...doing nothing on her own, always reaching for the hands of others..."
 25: 0x04F9 [0x23] WAIT_FOR_DIALOG_INTERACTION
 26: 0x04FA [0x66] LOAD_EXT_SCHEDULER_MAIN: Load scheduler "thk1" with entities [Michea (ID: 17739820/0x010EB02C), Michea (ID: 17739820/0x010EB02C)], work=30*
 27: 0x0509 [0x2B] Michea (ID: 17739820/0x010EB02C) [8159*]:
    → "But now I've begun to realize how she feels. We are in the same situation here in Bastok--looked down upon just because we are a little different."
 28: 0x0510 [0x23] WAIT_FOR_DIALOG_INTERACTION
 29: 0x0511 [0x1A] CALL_SUBROUTINE(address=0x05C3)
 30: 0x0514 [0x52] END_LOAD_SCHEDULER: End scheduler "s025" with entities [EventEntity, EventEntity], work=135*
 31: 0x0523 [0x45] LOAD_SCHEDULED_TASK: Load scheduler "s026" with entities [EventEntity, EventEntity], work=[135*, 0*]
 32: 0x0534 [0x1A] CALL_SUBROUTINE(address=0x05E4)
 33: 0x0537 [0x2B] Michea (ID: 17739820/0x010EB02C) [8160*]:
    → "And the only way to make people understand us is by proving our worth. She has taught me this through her own experiences. Now I can say that she is a true friend."
 34: 0x053E [0x23] WAIT_FOR_DIALOG_INTERACTION
 35: 0x053F [0x2B] Michea (ID: 17739820/0x010EB02C) [8161*]:
    → "It's funny, isn't it? Who would have thought that a mere Elvaan goldsmith and a girl from a well-to-do family could be best of friends?"
 36: 0x0546 [0x23] WAIT_FOR_DIALOG_INTERACTION
 37: 0x0547 [0x27] REQ_SET(priority=0x0A, entity_id=Cornelia (ID: 17739845/0x010EB045), tag_num=0x02)
 38: 0x054E [0x1A] CALL_SUBROUTINE(address=0x05F6)
 39: 0x0551 [0x2B] Michea (ID: 17739820/0x010EB02C) [8162*]:
    → "Hm? Who am I talking about? Why, Cornelia, of course. You've met before, haven't you?"
 40: 0x0558 [0x23] WAIT_FOR_DIALOG_INTERACTION
 41: 0x0559 [0x52] END_LOAD_SCHEDULER: End scheduler "s026" with entities [EventEntity, EventEntity], work=135*
 42: 0x0568 [0x46] CAMERA_CONTROL: Restore default settings
 43: 0x056A [0x1A] CALL_SUBROUTINE(address=0x0617)
 44: 0x056D [0x21] END_EVENT
 45: 0x056E [0x00] END_REQSTACK()

SUBROUTINE_056F:
 46: 0x056F [0x45] LOAD_SCHEDULED_TASK: Load scheduler "fdo0" with entities [LocalPlayer, LocalPlayer], work=[200*, 0*]
 47: 0x0580 [0x55] WAIT_LOAD_SCHEDULER: Wait for scheduler "fdo0" with entities [LocalPlayer, LocalPlayer], work=200*
 48: 0x058F [0x1B] RETURN

SUBROUTINE_05B1:
 49: 0x05B1 [0x45] LOAD_SCHEDULED_TASK: Load scheduler "fdi0" with entities [LocalPlayer, LocalPlayer], work=[200*, 0*]
 50: 0x05C2 [0x1B] RETURN

SUBROUTINE_05C3:
 51: 0x05C3 [0x45] LOAD_SCHEDULED_TASK: Load scheduler "fdo1" with entities [LocalPlayer, LocalPlayer], work=[200*, 0*]
 52: 0x05D4 [0x55] WAIT_LOAD_SCHEDULER: Wait for scheduler "fdo1" with entities [LocalPlayer, LocalPlayer], work=200*
 53: 0x05E3 [0x1B] RETURN

SUBROUTINE_05E4:
 54: 0x05E4 [0x45] LOAD_SCHEDULED_TASK: Load scheduler "fdi1" with entities [LocalPlayer, LocalPlayer], work=[200*, 0*]
 55: 0x05F5 [0x1B] RETURN

SUBROUTINE_05F6:
 56: 0x05F6 [0x45] LOAD_SCHEDULED_TASK: Load scheduler "fdo2" with entities [LocalPlayer, LocalPlayer], work=[200*, 0*]
 57: 0x0607 [0x55] WAIT_LOAD_SCHEDULER: Wait for scheduler "fdo2" with entities [LocalPlayer, LocalPlayer], work=200*
 58: 0x0616 [0x1B] RETURN

SUBROUTINE_0617:
 59: 0x0617 [0x45] LOAD_SCHEDULED_TASK: Load scheduler "fdi2" with entities [LocalPlayer, LocalPlayer], work=[200*, 0*]
 60: 0x0628 [0x1B] RETURN
```

#### Data or dead code:

```
# Dead code (unreachable instructions):
     0x0590 [0x45] LOAD_SCHEDULED_TASK: Load scheduler "fdo0" with entities [LocalPlayer, LocalPlayer], work=[200*, 0*]
     0x05A1 [0x55] WAIT_LOAD_SCHEDULER: Wait for scheduler "fdo0" with entities [LocalPlayer, LocalPlayer], work=200*
     0x05B0 [0x1B] RETURN
```

### Event 65535.5

#### Metadata

| Field        | Value    |
|--------------|----------|
| Entrypoint   | 0x0629   |
| Data Size    | 10 bytes |
| Instructions | 2        |

```
      00 01 02 03 04 05 06 07  08 09 0A 0B 0C 0D 0E 0F
      -- -- -- -- -- -- -- --  -- -- -- -- -- -- -- --
0620:                             37 57 80 58 80 1B 80           7W.X...
0630: 59 80 00                                          Y..             
```

#### Opcodes

```
  0: 0x0629 [0x37] UPDATE_EVENT_POSITION_AND_DIR: x=0.154*, z=-1.653*, y=0.000*, direction=259.0°*
  1: 0x0632 [0x00] END_REQSTACK()
```

### Event 65535.6

#### Metadata

| Field        | Value    |
|--------------|----------|
| Entrypoint   | 0x0633   |
| Data Size    | 20 bytes |
| Instructions | 3        |

```
      00 01 02 03 04 05 06 07  08 09 0A 0B 0C 0D 0E 0F
      -- -- -- -- -- -- -- --  -- -- -- -- -- -- -- --
0630:          79 00 F0 FF FF  7F 33 B0 0E 01 37 5A 80     y.....3...7Z.
0640: 5B 80 5C 80 5D 80 00                              [.\.]..         
```

#### Opcodes

```
  0: 0x0633 [0x79] LocalPlayer looks at Cleades (ID: 17739827/0x010EB033) (Basic look)
  1: 0x063D [0x37] UPDATE_EVENT_POSITION_AND_DIR: x=-361.297*, z=-166.952*, y=-10.025*, direction=101.3°*
  2: 0x0646 [0x00] END_REQSTACK()
```

### Event 65535.7

#### Metadata

| Field        | Value    |
|--------------|----------|
| Entrypoint   | 0x0647   |
| Data Size    | 20 bytes |
| Instructions | 3        |

```
      00 01 02 03 04 05 06 07  08 09 0A 0B 0C 0D 0E 0F
      -- -- -- -- -- -- -- --  -- -- -- -- -- -- -- --
0640:                      79  00 F0 FF FF 7F 33 B0 0E         y.....3..
0650: 01 37 5E 80 5F 80 60 80  61 80 00                 .7^._.`.a..     
```

#### Opcodes

```
  0: 0x0647 [0x79] LocalPlayer looks at Cleades (ID: 17739827/0x010EB033) (Basic look)
  1: 0x0651 [0x37] UPDATE_EVENT_POSITION_AND_DIR: x=-360.373*, z=-167.241*, y=-10.021*, direction=120.4°*
  2: 0x065A [0x00] END_REQSTACK()
```

### Event 329

#### Metadata

| Field        | Value     |
|--------------|-----------|
| Entrypoint   | 0x065B    |
| Data Size    | 302 bytes |
| Instructions | 50        |

```
      00 01 02 03 04 05 06 07  08 09 0A 0B 0C 0D 0E 0F
      -- -- -- -- -- -- -- --  -- -- -- -- -- -- -- --
0650:                                   42 1A 90 05 46             B...F
0660: 01 38 1C 80 37 62 80 63  80 14 80 64 80 45 65 80  .8..7b.c...d.Ee.
0670: F0 FF FF 7F F0 FF FF 7F  73 30 34 32 1B 80 1A E4  ........s042....
0680: 05 27 0A 71 B0 0E 01 03  2A 0A 71 B0 0E 01 1C 66  .'.q....*.q....f
0690: 80 52 65 80 F0 FF FF 7F  F0 FF FF 7F 73 30 34 32  .Re.........s042
06A0: 45 65 80 F0 FF FF 7F F0  FF FF 7F 73 30 34 33 1B  Ee.........s043.
06B0: 80 66 1C 80 71 B0 0E 01  71 B0 0E 01 73 64 6F 30  .f..q...q...sdo0
06C0: 2B 71 B0 0E 01 67 80 23  1C 68 80 66 1C 80 71 B0  +q...g.#.h.f..q.
06D0: 0E 01 71 B0 0E 01 73 64  6F 31 27 0A 71 B0 0E 01  ..q...sdo1'.q...
06E0: 04 2A 0A 71 B0 0E 01 1C  66 80 2B 71 B0 0E 01 69  .*.q....f.+q...i
06F0: 80 23 1C 68 80 2B 71 B0  0E 01 6A 80 23 1C 68 80  .#.h.+q...j.#.h.
0700: 66 1C 80 71 B0 0E 01 71  B0 0E 01 73 64 6F 30 2B  f..q...q...sdo0+
0710: 71 B0 0E 01 6B 80 23 2B  71 B0 0E 01 6C 80 23 1C  q...k.#+q...l.#.
0720: 6D 80 66 1C 80 71 B0 0E  01 71 B0 0E 01 73 64 6F  m.f..q...q...sdo
0730: 31 1C 6D 80 2B 71 B0 0E  01 6E 80 23 1C 6D 80 66  1.m.+q...n.#.m.f
0740: 1B 80 71 B0 0E 01 71 B0  0E 01 74 6C 6B 30 1C 68  ..q...q...tlk0.h
0750: 80 2B 71 B0 0E 01 6F 80  23 2B 71 B0 0E 01 70 80  .+q...o.#+q...p.
0760: 23 66 1B 80 71 B0 0E 01  71 B0 0E 01 74 65 6E 30  #f..q...q...ten0
0770: 1A 90 05 52 65 80 F0 FF  FF 7F F0 FF FF 7F 73 30  ...Re.........s0
0780: 34 33 46 00 1A E4 05 21  00                       43F....!.       
```

#### Opcodes

```
  0: 0x065B [0x42] SET_CLI_EVENT_CANCEL_DATA()
  1: 0x065C [0x1A] CALL_SUBROUTINE(address=0x0590)
  2: 0x065F [0x46] CAMERA_CONTROL: Disable user control
  3: 0x0661 [0x38] SET_CLIENT_EVENT_MODE(mode=3*)
  4: 0x0664 [0x37] UPDATE_EVENT_POSITION_AND_DIR: x=-257.668*, z=-88.493*, y=-11.999*, direction=87.0°*
  5: 0x066D [0x45] LOAD_SCHEDULED_TASK: Load scheduler "s042" with entities [LocalPlayer, LocalPlayer], work=[240*, 0*]
  6: 0x067E [0x1A] CALL_SUBROUTINE(address=0x05E4)
  7: 0x0681 [0x27] REQ_SET(priority=0x0A, entity_id=Zacc (ID: 17739889/0x010EB071), tag_num=0x03)
  8: 0x0688 [0x2A] GET_REQ_LEVEL(level=10, entity_id=Zacc (ID: 17739889/0x010EB071))
  9: 0x068E [0x1C] WAIT(70* ticks)
 10: 0x0691 [0x52] END_LOAD_SCHEDULER: End scheduler "s042" with entities [LocalPlayer, LocalPlayer], work=240*
 11: 0x06A0 [0x45] LOAD_SCHEDULED_TASK: Load scheduler "s043" with entities [LocalPlayer, LocalPlayer], work=[240*, 0*]
 12: 0x06B1 [0x66] LOAD_EXT_SCHEDULER_MAIN: Load scheduler "sdo0" with entities [Zacc (ID: 17739889/0x010EB071), Zacc (ID: 17739889/0x010EB071)], work=3*
 13: 0x06C0 [0x2B] Zacc (ID: 17739889/0x010EB071) [8218*]:
    → "Where could she be? We were supposed to meet here hours ago..."
 14: 0x06C7 [0x23] WAIT_FOR_DIALOG_INTERACTION
 15: 0x06C8 [0x1C] WAIT(40* ticks)
 16: 0x06CB [0x66] LOAD_EXT_SCHEDULER_MAIN: Load scheduler "sdo1" with entities [Zacc (ID: 17739889/0x010EB071), Zacc (ID: 17739889/0x010EB071)], work=3*
 17: 0x06DA [0x27] REQ_SET(priority=0x0A, entity_id=Zacc (ID: 17739889/0x010EB071), tag_num=0x04)
 18: 0x06E1 [0x2A] GET_REQ_LEVEL(level=10, entity_id=Zacc (ID: 17739889/0x010EB071))
 19: 0x06E7 [0x1C] WAIT(70* ticks)
 20: 0x06EA [0x2B] Zacc (ID: 17739889/0x010EB071) [8219*]:
    → "Oh, you're an adventurer, right? You wouldn't have happened to see my wife, now would you?"
 21: 0x06F1 [0x23] WAIT_FOR_DIALOG_INTERACTION
 22: 0x06F2 [0x1C] WAIT(40* ticks)
 23: 0x06F5 [0x2B] Zacc (ID: 17739889/0x010EB071) [8220*]:
    → "She said she was going to go out shopping for groceries, but she's still not back."
 24: 0x06FC [0x23] WAIT_FOR_DIALOG_INTERACTION
 25: 0x06FD [0x1C] WAIT(40* ticks)
 26: 0x0700 [0x66] LOAD_EXT_SCHEDULER_MAIN: Load scheduler "sdo0" with entities [Zacc (ID: 17739889/0x010EB071), Zacc (ID: 17739889/0x010EB071)], work=3*
 27: 0x070F [0x2B] Zacc (ID: 17739889/0x010EB071) [8221*]:
    → "Does that woman think I like waiting here?"
 28: 0x0716 [0x23] WAIT_FOR_DIALOG_INTERACTION
 29: 0x0717 [0x2B] Zacc (ID: 17739889/0x010EB071) [8222*]:
    → "I bet she's just stopped somewhere to gossip with the local ladies."
 30: 0x071E [0x23] WAIT_FOR_DIALOG_INTERACTION
 31: 0x071F [0x1C] WAIT(50* ticks)
 32: 0x0722 [0x66] LOAD_EXT_SCHEDULER_MAIN: Load scheduler "sdo1" with entities [Zacc (ID: 17739889/0x010EB071), Zacc (ID: 17739889/0x010EB071)], work=3*
 33: 0x0731 [0x1C] WAIT(50* ticks)
 34: 0x0734 [0x2B] Zacc (ID: 17739889/0x010EB071) [8223*]:
    → "If you're not busy..."
 35: 0x073B [0x23] WAIT_FOR_DIALOG_INTERACTION
 36: 0x073C [0x1C] WAIT(50* ticks)
 37: 0x073F [0x66] LOAD_EXT_SCHEDULER_MAIN: Load scheduler "tlk0" with entities [Zacc (ID: 17739889/0x010EB071), Zacc (ID: 17739889/0x010EB071)], work=0*
 38: 0x074E [0x1C] WAIT(40* ticks)
 39: 0x0751 [0x2B] Zacc (ID: 17739889/0x010EB071) [8224*]:
    → "Do you think you could help me search for my wife?"
 40: 0x0758 [0x23] WAIT_FOR_DIALOG_INTERACTION
 41: 0x0759 [0x2B] Zacc (ID: 17739889/0x010EB071) [8225*]:
    → "Her name's Alisa. She's got short, blond hair, and beautiful snow-white skin. She's quite a looker, if you ask me!"
 42: 0x0760 [0x23] WAIT_FOR_DIALOG_INTERACTION
 43: 0x0761 [0x66] LOAD_EXT_SCHEDULER_MAIN: Load scheduler "ten0" with entities [Zacc (ID: 17739889/0x010EB071), Zacc (ID: 17739889/0x010EB071)], work=0*
 44: 0x0770 [0x1A] CALL_SUBROUTINE(address=0x0590)
 45: 0x0773 [0x52] END_LOAD_SCHEDULER: End scheduler "s043" with entities [LocalPlayer, LocalPlayer], work=240*
 46: 0x0782 [0x46] CAMERA_CONTROL: Restore default settings
 47: 0x0784 [0x1A] CALL_SUBROUTINE(address=0x05E4)
 48: 0x0787 [0x21] END_EVENT
 49: 0x0788 [0x00] END_REQSTACK()
```

### Event 332

#### Metadata

| Field        | Value     |
|--------------|-----------|
| Entrypoint   | 0x0789    |
| Data Size    | 278 bytes |
| Instructions | 48        |

```
      00 01 02 03 04 05 06 07  08 09 0A 0B 0C 0D 0E 0F
      -- -- -- -- -- -- -- --  -- -- -- -- -- -- -- --
0780:                             03 09 10 71 80 42 1A           ...q.B.
0790: 90 05 46 01 38 1C 80 37  72 80 73 80 74 80 75 80  ..F.8..7r.s.t.u.
07A0: 45 65 80 F0 FF FF 7F F0  FF FF 7F 73 30 34 36 1B  Ee.........s046.
07B0: 80 1A E4 05 1C 66 80 2B  72 B0 0E 01 76 80 23 5B  .....f.+r...v.#[
07C0: 77 80 72 B0 0E 01 72 B0  0E 01 74 68 6B 31 2B 72  w.r...r...thk1+r
07D0: B0 0E 01 78 80 23 2B 72  B0 0E 01 79 80 23 1C 66  ...x.#+r...y.#.f
07E0: 80 5B 77 80 72 B0 0E 01  72 B0 0E 01 74 68 6B 32  .[w.r...r...thk2
07F0: 52 65 80 F0 FF FF 7F F0  FF FF 7F 73 30 34 36 45  Re.........s046E
0800: 65 80 F0 FF FF 7F F0 FF  FF 7F 73 30 34 35 1B 80  e.........s045..
0810: 1C 68 80 5B 77 80 72 B0  0E 01 72 B0 0E 01 74 6C  .h.[w.r...r...tl
0820: 6B 30 2B 72 B0 0E 01 7A  80 23 2B 72 B0 0E 01 7B  k0+r...z.#+r...{
0830: 80 23 2B 72 B0 0E 01 7C  80 23 2B 72 B0 0E 01 7D  .#+r...|.#+r...}
0840: 80 23 2B 72 B0 0E 01 7E  80 23 5B 7F 80 72 B0 0E  .#+r...~.#[..r..
0850: 01 72 B0 0E 01 69 6B 72  30 1C 68 80 2B 72 B0 0E  .r...ikr0.h.+r..
0860: 01 80 80 23 2B 72 B0 0E  01 81 80 23 1C 68 80 5B  ...#+r.....#.h.[
0870: 7F 80 72 B0 0E 01 72 B0  0E 01 69 6B 72 31 2B 72  ..r...r...ikr1+r
0880: B0 0E 01 82 80 23 1A 90  05 52 65 80 F0 FF FF 7F  .....#...Re.....
0890: F0 FF FF 7F 73 30 34 35  46 00 1A E4 05 21 00     ....s045F....!. 
```

#### Opcodes

```
  0: 0x0789 [0x03] Work_Zone[9] = 1192*
  1: 0x078E [0x42] SET_CLI_EVENT_CANCEL_DATA()
  2: 0x078F [0x1A] CALL_SUBROUTINE(address=0x0590)
  3: 0x0792 [0x46] CAMERA_CONTROL: Disable user control
  4: 0x0794 [0x38] SET_CLIENT_EVENT_MODE(mode=3*)
  5: 0x0797 [0x37] UPDATE_EVENT_POSITION_AND_DIR: x=-253.400*, z=-91.070*, y=-12.093*, direction=135.0°*
  6: 0x07A0 [0x45] LOAD_SCHEDULED_TASK: Load scheduler "s046" with entities [LocalPlayer, LocalPlayer], work=[240*, 0*]
  7: 0x07B1 [0x1A] CALL_SUBROUTINE(address=0x05E4)
  8: 0x07B4 [0x1C] WAIT(70* ticks)
  9: 0x07B7 [0x2B] Enu (ID: 17739890/0x010EB072) [8237*]:
    → "Talk to him all you want--he won't listen."
 10: 0x07BE [0x23] WAIT_FOR_DIALOG_INTERACTION
 11: 0x07BF [0x5B] LOAD_EXT_SCHEDULER: Load scheduler "thk1" with entities [Enu (ID: 17739890/0x010EB072), Enu (ID: 17739890/0x010EB072)], work=80*
 12: 0x07CE [0x2B] Enu (ID: 17739890/0x010EB072) [8238*]:
    → "Ever since Mommy died, Daddy's heart's been broken."
 13: 0x07D5 [0x23] WAIT_FOR_DIALOG_INTERACTION
 14: 0x07D6 [0x2B] Enu (ID: 17739890/0x010EB072) [8239*]:
    → "Daddy loved Mommy a whole bunch."
 15: 0x07DD [0x23] WAIT_FOR_DIALOG_INTERACTION
 16: 0x07DE [0x1C] WAIT(70* ticks)
 17: 0x07E1 [0x5B] LOAD_EXT_SCHEDULER: Load scheduler "thk2" with entities [Enu (ID: 17739890/0x010EB072), Enu (ID: 17739890/0x010EB072)], work=80*
 18: 0x07F0 [0x52] END_LOAD_SCHEDULER: End scheduler "s046" with entities [LocalPlayer, LocalPlayer], work=240*
 19: 0x07FF [0x45] LOAD_SCHEDULED_TASK: Load scheduler "s045" with entities [LocalPlayer, LocalPlayer], work=[240*, 0*]
 20: 0x0810 [0x1C] WAIT(40* ticks)
 21: 0x0813 [0x5B] LOAD_EXT_SCHEDULER: Load scheduler "tlk0" with entities [Enu (ID: 17739890/0x010EB072), Enu (ID: 17739890/0x010EB072)], work=80*
 22: 0x0822 [0x2B] Enu (ID: 17739890/0x010EB072) [8240*]:
    → "Hey, would you help my daddy?"
 23: 0x0829 [0x23] WAIT_FOR_DIALOG_INTERACTION
 24: 0x082A [0x2B] Enu (ID: 17739890/0x010EB072) [8241*]:
    → "I wanna make him happy again, like when Mommy was alive. That's why I need $7."
 25: 0x0831 [0x23] WAIT_FOR_DIALOG_INTERACTION
 26: 0x0832 [0x2B] Enu (ID: 17739890/0x010EB072) [8242*]:
    → "$7 is a super-special secret treasure."
 27: 0x0839 [0x23] WAIT_FOR_DIALOG_INTERACTION
 28: 0x083A [0x2B] Enu (ID: 17739890/0x010EB072) [8243*]:
    → "If you hold $7 up to the sky on a starry night..."
 29: 0x0841 [0x23] WAIT_FOR_DIALOG_INTERACTION
 30: 0x0842 [0x2B] Enu (ID: 17739890/0x010EB072) [8244*]:
    → "...any wish you make will come true...but only for that night."
 31: 0x0849 [0x23] WAIT_FOR_DIALOG_INTERACTION
 32: 0x084A [0x5B] LOAD_EXT_SCHEDULER: Load scheduler "ikr0" with entities [Enu (ID: 17739890/0x010EB072), Enu (ID: 17739890/0x010EB072)], work=82*
 33: 0x0859 [0x1C] WAIT(40* ticks)
 34: 0x085C [0x2B] Enu (ID: 17739890/0x010EB072) [8245*]:
    → "You don't believe me? It's true! I read it in a book and everything!"
 35: 0x0863 [0x23] WAIT_FOR_DIALOG_INTERACTION
 36: 0x0864 [0x2B] Enu (ID: 17739890/0x010EB072) [8246*]:
    → "Please, [Mister/Miss] Adventurer, you've gotta find $7 for my daddy!"
 37: 0x086B [0x23] WAIT_FOR_DIALOG_INTERACTION
 38: 0x086C [0x1C] WAIT(40* ticks)
 39: 0x086F [0x5B] LOAD_EXT_SCHEDULER: Load scheduler "ikr1" with entities [Enu (ID: 17739890/0x010EB072), Enu (ID: 17739890/0x010EB072)], work=82*
 40: 0x087E [0x2B] Enu (ID: 17739890/0x010EB072) [8247*]:
    → "Remember, $7 is a super-special secret stone. It can only be found inside a huge tree in a jungle far south of here."
 41: 0x0885 [0x23] WAIT_FOR_DIALOG_INTERACTION
 42: 0x0886 [0x1A] CALL_SUBROUTINE(address=0x0590)
 43: 0x0889 [0x52] END_LOAD_SCHEDULER: End scheduler "s045" with entities [LocalPlayer, LocalPlayer], work=240*
 44: 0x0898 [0x46] CAMERA_CONTROL: Restore default settings
 45: 0x089A [0x1A] CALL_SUBROUTINE(address=0x05E4)
 46: 0x089D [0x21] END_EVENT
 47: 0x089E [0x00] END_REQSTACK()
```

### Event 334

#### Metadata

| Field        | Value      |
|--------------|------------|
| Entrypoint   | 0x089F     |
| Data Size    | 1510 bytes |
| Instructions | 221        |

```
      00 01 02 03 04 05 06 07  08 09 0A 0B 0C 0D 0E 0F
      -- -- -- -- -- -- -- --  -- -- -- -- -- -- -- --
0890:                                               03                 .
08A0: 09 10 71 80 42 1A 90 05  46 01 38 1C 80 37 72 80  ..q.B...F.8..7r.
08B0: 73 80 74 80 75 80 45 65  80 F0 FF FF 7F F0 FF FF  s.t.u.Ee........
08C0: 7F 73 30 34 37 1B 80 4A  72 B0 0E 01 F0 FF FF 7F  .s047..Jr.......
08D0: 1A E4 05 1C 66 80 2B 72  B0 0E 01 83 80 23 5B 7F  ....f.+r.....#[.
08E0: 80 72 B0 0E 01 72 B0 0E  01 69 6B 72 30 2B 72 B0  .r...r...ikr0+r.
08F0: 0E 01 84 80 23 1C 68 80  5B 7F 80 72 B0 0E 01 72  ....#.h.[..r...r
0900: B0 0E 01 69 6B 72 31 2B  72 B0 0E 01 85 80 23 1C  ...ikr1+r.....#.
0910: 66 80 52 65 80 F0 FF FF  7F F0 FF FF 7F 73 30 34  f.Re.........s04
0920: 37 45 65 80 F0 FF FF 7F  F0 FF FF 7F 73 30 34 35  7Ee.........s045
0930: 1B 80 27 0A 72 B0 0E 01  06 2A 0A 72 B0 0E 01 5D  ..'.r....*.r...]
0940: 1B 80 86 80 1C 86 80 5B  77 80 72 B0 0E 01 72 B0  .......[w.r...r.
0950: 0E 01 74 68 6B 32 2B 72  B0 0E 01 87 80 23 2B 72  ..thk2+r.....#+r
0960: B0 0E 01 88 80 23 5B 77  80 72 B0 0E 01 72 B0 0E  .....#[w.r...r..
0970: 01 74 6C 6B 30 1C 37 80  2B 72 B0 0E 01 89 80 23  .tlk0.7.+r.....#
0980: 1C 77 80 2B 72 B0 0E 01  8A 80 23 1C 77 80 2B 72  .w.+r.....#.w.+r
0990: B0 0E 01 8A 80 23 1C 8B  80 2B 72 B0 0E 01 8C 80  .....#...+r.....
09A0: 23 27 0A 71 B0 0E 01 07  2A 0A 71 B0 0E 01 2B 71  #'.q....*.q...+q
09B0: B0 0E 01 8D 80 23 1C 68  80 4A 72 B0 0E 01 71 B0  .....#.h.Jr...q.
09C0: 0E 01 1E 71 B0 0E 01 5B  77 80 72 B0 0E 01 72 B0  ...q...[w.r...r.
09D0: 0E 01 74 68 6B 32 2B 72  B0 0E 01 8E 80 23 2B 72  ..thk2+r.....#+r
09E0: B0 0E 01 8F 80 23 5C 00  90 80 5C 01 90 80 5B 77  .....#\...\...[w
09F0: 80 72 B0 0E 01 72 B0 0E  01 74 6C 6B 30 2B 72 B0  .r...r...tlk0+r.
0A00: 0E 01 91 80 23 1C 77 80  45 65 80 F0 FF FF 7F F0  ....#.w.Ee......
0A10: FF FF 7F 73 30 34 38 1B  80 2B 71 B0 0E 01 92 80  ...s048..+q.....
0A20: 23 1C 37 80 2B 71 B0 0E  01 93 80 23 66 1B 80 71  #.7.+q.....#f..q
0A30: B0 0E 01 71 B0 0E 01 74  68 6B 31 2B 71 B0 0E 01  ...q...thk1+q...
0A40: 94 80 23 2B 71 B0 0E 01  95 80 23 66 1B 80 71 B0  ..#+q.....#f..q.
0A50: 0E 01 71 B0 0E 01 74 68  6B 32 2B 71 B0 0E 01 96  ..q...thk2+q....
0A60: 80 23 1C 77 80 2B 71 B0  0E 01 97 80 23 45 48 80  .#.w.+q.....#EH.
0A70: F0 FF FF 7F F0 FF FF 7F  77 68 6F 30 1B 80 1C 22  ........who0..."
0A80: 80 45 65 80 F0 FF FF 7F  F0 FF FF 7F 73 30 35 30  .Ee.........s050
0A90: 1B 80 45 48 80 F0 FF FF  7F F0 FF FF 7F 77 68 69  ..EH.........whi
0AA0: 30 1B 80 2B 71 B0 0E 01  98 80 23 1C 37 80 2B 72  0..+q.....#.7.+r
0AB0: B0 0E 01 99 80 23 1C 22  80 45 48 80 F0 FF FF 7F  .....#.".EH.....
0AC0: F0 FF FF 7F 77 68 6F 30  1B 80 1C 22 80 52 65 80  ....who0...".Re.
0AD0: F0 FF FF 7F F0 FF FF 7F  73 30 35 30 45 65 80 F0  ........s050Ee..
0AE0: FF FF 7F F0 FF FF 7F 73  30 35 31 1B 80 45 48 80  .......s051..EH.
0AF0: F0 FF FF 7F F0 FF FF 7F  77 68 69 30 1B 80 27 0A  ........whi0..'.
0B00: 71 B0 0E 01 08 2A 0A 71  B0 0E 01 2B 71 B0 0E 01  q....*.q...+q...
0B10: 9A 80 23 1C 37 80 2B 71  B0 0E 01 9B 80 23 1C 37  ..#.7.+q.....#.7
0B20: 80 2B 71 B0 0E 01 9C 80  23 66 1C 80 71 B0 0E 01  .+q.....#f..q...
0B30: 71 B0 0E 01 73 64 6F 30  2B 71 B0 0E 01 9D 80 23  q...sdo0+q.....#
0B40: 45 48 80 F0 FF FF 7F F0  FF FF 7F 77 68 6F 31 1B  EH.........who1.
0B50: 80 1C 2D 80 52 65 80 F0  FF FF 7F F0 FF FF 7F 73  ..-.Re.........s
0B60: 30 35 31 45 65 80 F0 FF  FF 7F F0 FF FF 7F 73 30  051Ee.........s0
0B70: 35 32 1B 80 45 48 80 F0  FF FF 7F F0 FF FF 7F 77  52..EH.........w
0B80: 68 69 31 1B 80 1C 9E 80  2B 71 B0 0E 01 9F 80 23  hi1.....+q.....#
0B90: 1C 66 80 66 1C 80 71 B0  0E 01 71 B0 0E 01 73 64  .f.f..q...q...sd
0BA0: 6F 31 2B 71 B0 0E 01 A0  80 23 2B 71 B0 0E 01 A1  o1+q.....#+q....
0BB0: 80 23 66 A2 80 71 B0 0E  01 71 B0 0E 01 74 68 6B  .#f..q...q...thk
0BC0: 31 2B 71 B0 0E 01 A3 80  23 2B 71 B0 0E 01 9D 80  1+q.....#+q.....
0BD0: 23 66 A2 80 71 B0 0E 01  71 B0 0E 01 74 68 6B 32  #f..q...q...thk2
0BE0: 45 65 80 F0 FF FF 7F F0  FF FF 7F 73 30 35 34 1B  Ee.........s054.
0BF0: 80 2B 71 B0 0E 01 A4 80  23 1C 68 80 2B 71 B0 0E  .+q.....#.h.+q..
0C00: 01 A5 80 23 1C 37 80 66  1C 80 71 B0 0E 01 71 B0  ...#.7.f..q...q.
0C10: 0E 01 73 64 6F 30 2B 71  B0 0E 01 A6 80 23 2B 71  ..sdo0+q.....#+q
0C20: B0 0E 01 A7 80 23 1C 37  80 66 1C 80 71 B0 0E 01  .....#.7.f..q...
0C30: 71 B0 0E 01 73 64 6F 31  52 65 80 F0 FF FF 7F F0  q...sdo1Re......
0C40: FF FF 7F 73 30 35 34 45  65 80 F0 FF FF 7F F0 FF  ...s054Ee.......
0C50: FF 7F 73 30 35 35 1B 80  1C 37 80 2B 72 B0 0E 01  ..s055...7.+r...
0C60: A8 80 23 1C 37 80 52 65  80 F0 FF FF 7F F0 FF FF  ..#.7.Re........
0C70: 7F 73 30 35 35 45 65 80  F0 FF FF 7F F0 FF FF 7F  .s055Ee.........
0C80: 73 30 35 36 1B 80 27 0A  71 B0 0E 01 07 2A 0A 71  s056..'.q....*.q
0C90: B0 0E 01 1C 37 80 66 1B  80 71 B0 0E 01 71 B0 0E  ....7.f..q...q..
0CA0: 01 74 6C 6B 30 2B 71 B0  0E 01 A9 80 23 2B 71 B0  .tlk0+q.....#+q.
0CB0: 0E 01 AA 80 23 66 1B 80  71 B0 0E 01 71 B0 0E 01  ....#f..q...q...
0CC0: 74 65 6E 30 5B 77 80 72  B0 0E 01 72 B0 0E 01 74  ten0[w.r...r...t
0CD0: 68 6B 30 2B 72 B0 0E 01  AB 80 23 66 1B 80 71 B0  hk0+r.....#f..q.
0CE0: 0E 01 71 B0 0E 01 74 6C  6B 31 4A 71 B0 0E 01 72  ..q...tlk1Jq...r
0CF0: B0 0E 01 1C 68 80 2B 71  B0 0E 01 AC 80 23 2B 71  ....h.+q.....#+q
0D00: B0 0E 01 AD 80 23 5B 77  80 72 B0 0E 01 72 B0 0E  .....#[w.r...r..
0D10: 01 74 68 6B 31 2B 72 B0  0E 01 AE 80 23 1C 66 80  .thk1+r.....#.f.
0D20: 66 1B 80 71 B0 0E 01 71  B0 0E 01 74 68 6B 32 2B  f..q...q...thk2+
0D30: 71 B0 0E 01 AF 80 23 5B  7F 80 72 B0 0E 01 72 B0  q.....#[..r...r.
0D40: 0E 01 69 6B 72 30 2B 72  B0 0E 01 B0 80 23 2B 72  ..ikr0+r.....#+r
0D50: B0 0E 01 B1 80 23 1C 77  80 5B 7F 80 72 B0 0E 01  .....#.w.[..r...
0D60: 72 B0 0E 01 69 6B 72 31  1C 68 80 52 65 80 F0 FF  r...ikr1.h.Re...
0D70: FF 7F F0 FF FF 7F 73 30  35 36 1C 77 80 27 0A 73  ......s056.w.'.s
0D80: B0 0E 01 02 2A 0A 73 B0  0E 01 45 65 80 F0 FF FF  ....*.s...Ee....
0D90: 7F F0 FF FF 7F 73 30 35  39 1B 80 55 65 80 F0 FF  .....s059..Ue...
0DA0: FF 7F F0 FF FF 7F 73 30  35 39 45 65 80 F0 FF FF  ......s059Ee....
0DB0: 7F F0 FF FF 7F 73 30 36  31 1B 80 55 65 80 F0 FF  .....s061..Ue...
0DC0: FF 7F F0 FF FF 7F 73 30  36 31 1C 22 80 6C 73 B0  ......s061.".ls.
0DD0: 0E 01 1B 80 9E 80 1C 68  80 52 65 80 F0 FF FF 7F  .......h.Re.....
0DE0: F0 FF FF 7F 73 30 35 38  45 65 80 F0 FF FF 7F F0  ....s058Ee......
0DF0: FF FF 7F 73 30 35 37 1B  80 27 0A 71 B0 0E 01 09  ...s057..'.q....
0E00: 4A F0 FF FF 7F 71 B0 0E  01 2A 0A 71 B0 0E 01 2B  J....q...*.q...+
0E10: 71 B0 0E 01 B2 80 23 2B  71 B0 0E 01 B3 80 23 66  q.....#+q.....#f
0E20: 1B 80 71 B0 0E 01 71 B0  0E 01 70 61 73 30 1C 77  ..q...q...pas0.w
0E30: 80 2B 71 B0 0E 01 B4 80  23 2B 71 B0 0E 01 B5 80  .+q.....#+q.....
0E40: 23 27 0A 73 B0 0E 01 03  2A 0A 73 B0 0E 01 5D 1B  #'.s....*.s...].
0E50: 80 22 80 1A 90 05 52 65  80 F0 FF FF 7F F0 FF FF  ."....Re........
0E60: 7F 73 30 35 37 46 00 45  48 80 F0 FF FF 7F F0 FF  .s057F.EH.......
0E70: FF 7F 71 73 74 63 1B 80  5C 00 49 80 5C 01 49 80  ..qstc..\.I.\.I.
0E80: 1A E4 05 21 00                                    ...!.           
```

#### Opcodes

```
  0: 0x089F [0x03] Work_Zone[9] = 1192*
  1: 0x08A4 [0x42] SET_CLI_EVENT_CANCEL_DATA()
  2: 0x08A5 [0x1A] CALL_SUBROUTINE(address=0x0590)
