# Event 65535

## Metadata

| Field           | Value    |
|-----------------|----------|
| Event Index     | 21/21    |
| Offset          | 0x00C3   |
| Data Size       | 64 bytes |
| Calculated Size | 64 bytes |
| Instructions    | 14       |

```
      00 01 02 03 04 05 06 07  08 09 0A 0B 0C 0D 0E 0F
      -- -- -- -- -- -- -- --  -- -- -- -- -- -- -- --
00C0:          32 03 80 1F 00  13 80 14 80 15 80 1F 01     2............
00D0: 1F 00 10 80 11 80 12 80  1F 01 1F 00 0D 80 0E 80  ................
00E0: 0F 80 1F 01 1F 00 0A 80  0B 80 0C 80 1F 01 1F 00  ................
00F0: 07 80 08 80 09 80 1F 01  1F 00 04 80 05 80 06 80  ................
0100: 1F 01 00                                          ...             
```

## Opcodes

```
  0: 0x00C3 [0x32] ExtData[1]->MainSpeed = 40* * 0.1
  1: 0x00C6 [0x1F] MOVE_ENTITY: EventEntity moves to X=-142.162*, Z=561.096*, Y=-7.057*
  2: 0x00CE [0x1F] MOVE_ENTITY: Update entity position (mode=1)
  3: 0x00D0 [0x1F] MOVE_ENTITY: EventEntity moves to X=-142.519*, Z=559.745*, Y=-7.249*
  4: 0x00D8 [0x1F] MOVE_ENTITY: Update entity position (mode=1)
  5: 0x00DA [0x1F] MOVE_ENTITY: EventEntity moves to X=-143.061*, Z=557.492*, Y=-8.008*
  6: 0x00E2 [0x1F] MOVE_ENTITY: Update entity position (mode=1)
  7: 0x00E4 [0x1F] MOVE_ENTITY: EventEntity moves to X=-143.504*, Z=555.375*, Y=-9.100*
  8: 0x00EC [0x1F] MOVE_ENTITY: Update entity position (mode=1)
  9: 0x00EE [0x1F] MOVE_ENTITY: EventEntity moves to X=-143.879*, Z=554.079*, Y=-10.146*
 10: 0x00F6 [0x1F] MOVE_ENTITY: Update entity position (mode=1)
 11: 0x00F8 [0x1F] MOVE_ENTITY: EventEntity moves to X=-144.398*, Z=552.161*, Y=-11.617*
 12: 0x0100 [0x1F] MOVE_ENTITY: Update entity position (mode=1)
 13: 0x0102 [0x00] END_REQSTACK()
```
