# Event 65535

## Metadata

| Field           | Value    |
|-----------------|----------|
| Event Index     | 14/19    |
| Offset          | 0x0049   |
| Data Size       | 55 bytes |
| Calculated Size | 55 bytes |
| Instructions    | 7        |

```
      00 01 02 03 04 05 06 07  08 09 0A 0B 0C 0D 0E 0F
      -- -- -- -- -- -- -- --  -- -- -- -- -- -- -- --
0040:                             6C C8 F3 05 01 02 80           l......
0050: 01 80 6C C9 F3 05 01 02  80 01 80 6C 9E F3 05 01  ..l........l....
0060: 02 80 01 80 6C A5 F3 05  01 02 80 01 80 6C 84 F3  ....l........l..
0070: 05 01 02 80 01 80 6C 98  F3 05 01 02 80 01 80 00  ......l.........
```

## Opcodes

```
  0: 0x0049 [0x6C] FADE_ENTITY_COLOR(entity_id=D10 (ID: 17167304/0x0105F3C8), end_alpha=128*, fade_time=1*)
  1: 0x0052 [0x6C] FADE_ENTITY_COLOR(entity_id=D11 (ID: 17167305/0x0105F3C9), end_alpha=128*, fade_time=1*)
  2: 0x005B [0x6C] FADE_ENTITY_COLOR(entity_id=Star Sibyl (ID: 17167262/0x0105F39E), end_alpha=128*, fade_time=1*)
  3: 0x0064 [0x6C] FADE_ENTITY_COLOR(entity_id=kakashi1 (ID: 17167269/0x0105F3A5), end_alpha=128*, fade_time=1*)
  4: 0x006D [0x6C] FADE_ENTITY_COLOR(entity_id=taru1 (ID: 17167236/0x0105F384), end_alpha=128*, fade_time=1*)
  5: 0x0076 [0x6C] FADE_ENTITY_COLOR(entity_id=Perih Vashai (ID: 17167256/0x0105F398), end_alpha=128*, fade_time=1*)
  6: 0x007F [0x00] END_REQSTACK()
```
