# Event 65535

## Metadata

| Field           | Value    |
|-----------------|----------|
| Event Index     | 6/15     |
| Offset          | 0x0056   |
| Data Size       | 50 bytes |
| Calculated Size | 50 bytes |
| Instructions    | 7        |

```
      00 01 02 03 04 05 06 07  08 09 0A 0B 0C 0D 0E 0F
      -- -- -- -- -- -- -- --  -- -- -- -- -- -- -- --
0050:                   6E 5C  21 03 01 03 80 99 5C 21        n\!.....\!
0060: 03 01 59 06 5C 21 03 01  1C 01 80 66 04 80 5C 21  ..Y.\!.....f..\!
0070: 03 01 5C 21 03 01 77 61  69 30 53 AC 21 03 01 AC  ..\!..wai0S.!...
0080: 21 03 01 8B FF FF FF 00                           !.......        
```

## Opcodes

```
  0: 0x0056 [0x6E] Fari-Wari (ID: 16982364/0x0103215C) uses emote 32*
  1: 0x005D [0x99] Wait for Fari-Wari (ID: 16982364/0x0103215C) animation to complete
  2: 0x0062 [0x59] UPDATE_ENTITY_DATA: Check if Fari-Wari (ID: 16982364/0x0103215C) is performing moving action
  3: 0x0068 [0x1C] WAIT(160* ticks)
  4: 0x006B [0x66] LOAD_EXT_SCHEDULER_MAIN: Load scheduler "wai0" with entities [Fari-Wari (ID: 16982364/0x0103215C), Fari-Wari (ID: 16982364/0x0103215C)], work=40*
  5: 0x007A [0x53] WAIT_SCHEDULER_TASK: Wait for scheduler 0xFFFFFF8B with entities [Shayadar (ID: 16982444/0x010321AC), Shayadar (ID: 16982444/0x010321AC)]
  6: 0x0087 [0x00] END_REQSTACK()
```
