# Event 65535

## Metadata

| Field           | Value    |
|-----------------|----------|
| Event Index     | 15/15    |
| Offset          | 0x01E7   |
| Data Size       | 52 bytes |
| Calculated Size | 52 bytes |
| Instructions    | 8        |

```
      00 01 02 03 04 05 06 07  08 09 0A 0B 0C 0D 0E 0F
      -- -- -- -- -- -- -- --  -- -- -- -- -- -- -- --
01E0:                      6E  60 21 03 01 10 80 99 60         n`!.....`
01F0: 21 03 01 99 60 21 03 01  1C 11 80 66 06 80 60 21  !...`!.....f..`!
0200: 03 01 60 21 03 01 74 77  62 30 53 60 21 03 01 60  ..`!..twb0S`!..`
0210: 21 03 01 74 77 62 30 1C  0D 80 00                 !..twb0....     
```

## Opcodes

```
  0: 0x01E7 [0x6E] Gadalar (ID: 16982368/0x01032160) uses emote 4*
  1: 0x01EE [0x99] Wait for Gadalar (ID: 16982368/0x01032160) animation to complete
  2: 0x01F3 [0x99] Wait for Gadalar (ID: 16982368/0x01032160) animation to complete
  3: 0x01F8 [0x1C] WAIT(150* ticks)
  4: 0x01FB [0x66] LOAD_EXT_SCHEDULER_MAIN(work_offset=9*, entity1=Gadalar (ID: 16982368/0x01032160), entity2=Gadalar (ID: 16982368/0x01032160), action="twb0")
  5: 0x020A [0x53] WAIT_SCHEDULER_TASK(entity1=Gadalar (ID: 16982368/0x01032160), entity2=Gadalar (ID: 16982368/0x01032160), action_id="twb0")
  6: 0x0217 [0x1C] WAIT(30* ticks)
  7: 0x021A [0x00] END_REQSTACK()
```
