# Event 65535

## Metadata

| Field           | Value    |
|-----------------|----------|
| Event Index     | 11/15    |
| Offset          | 0x0120   |
| Data Size       | 28 bytes |
| Calculated Size | 28 bytes |
| Instructions    | 6        |

```
      00 01 02 03 04 05 06 07  08 09 0A 0B 0C 0D 0E 0F
      -- -- -- -- -- -- -- --  -- -- -- -- -- -- -- --
0120: 29 10 2F 22 03 01 02 4A  2F 22 03 01 2C 22 03 01  )./"...J/"..,"..
0130: 7B 2F 22 03 01 6F 76 2F  22 03 01 00              {/"..ov/"...    
```

## Opcodes

```
  0: 0x0120 [0x29] REQ_SET_WAIT(priority=0x10, entity_id=Kalidaaf (ID: 16982575/0x0103222F), tag_num=0x02)
  1: 0x0127 [0x4A] Kalidaaf (ID: 16982575/0x0103222F) looks at Wajran (ID: 16982572/0x0103222C)
  2: 0x0130 [0x7B] Kalidaaf (ID: 16982575/0x0103222F) stops talking
  3: 0x0135 [0x6F] WAIT_FRAME_DELAY: Yield until WaitTime reaches zero
  4: 0x0136 [0x76] CHECK_ENTITY_RENDER_FLAGS: Wait until Kalidaaf (ID: 16982575/0x0103222F) Render.Flags0 and Render.Flags3 conditions are met
  5: 0x013B [0x00] END_REQSTACK()
```
