# Event 227

## Metadata

| Field           | Value    |
|-----------------|----------|
| Event Index     | 16/23    |
| Offset          | 0x0151   |
| Data Size       | 25 bytes |
| Calculated Size | 25 bytes |
| Instructions    | 8        |

```
      00 01 02 03 04 05 06 07  08 09 0A 0B 0C 0D 0E 0F
      -- -- -- -- -- -- -- --  -- -- -- -- -- -- -- --
0150:    1E F0 FF FF 7F 6F 70  29 0B 6A 10 0F 01 10 29   .....op).j....)
0160: 0B 6A 10 0F 01 11 20 00  21 00                    .j.... .!.      
```

## Opcodes

```
  0: 0x0151 [0x1E] EventEntity looks at LocalPlayer and starts talking
  1: 0x0156 [0x6F] WAIT_FRAME_DELAY: Yield until WaitTime reaches zero
  2: 0x0157 [0x70] WAIT_ENTITY_RENDER_FLAG: Wait while EventEntity->Render.Flags3 bit 2 is set (cancel turn if not)
  3: 0x0158 [0x29] REQ_SET_WAIT(priority=0x0B, entity_id=Tapoh Lihzeh (ID: 17764458/0x010F106A), tag_num=0x10)
  4: 0x015F [0x29] REQ_SET_WAIT(priority=0x0B, entity_id=Tapoh Lihzeh (ID: 17764458/0x010F106A), tag_num=0x11)
  5: 0x0166 [0x20] SET_CLI_EVENT_UC_FLAG: Unlock player control
  6: 0x0168 [0x21] END_EVENT
  7: 0x0169 [0x00] END_REQSTACK()
```
