# Event 65535

## Metadata

| Field           | Value    |
|-----------------|----------|
| Event Index     | 29/45    |
| Offset          | 0x0317   |
| Data Size       | 45 bytes |
| Calculated Size | 45 bytes |
| Instructions    | 12       |

```
      00 01 02 03 04 05 06 07  08 09 0A 0B 0C 0D 0E 0F
      -- -- -- -- -- -- -- --  -- -- -- -- -- -- -- --
0310:                      32  0C 80 1F 00 31 80 32 80         2....1.2.
0320: 02 80 1F 01 1C 19 80 39  33 80 1C 34 80 1F 00 35  .......93..4...5
0330: 80 36 80 02 80 1F 01 1C  19 80 39 37 80 1C 34 80  .6........97..4.
0340: 01 17 03 00                                       ....            
```

## Opcodes

```
  0: 0x0317 [0x32] ExtData[1]->MainSpeed = 13* * 0.1
  1: 0x031A [0x1F] MOVE_ENTITY: EventEntity moves to X=-96.584*, Z=-8.519*, Y=0.000*
  2: 0x0322 [0x1F] MOVE_ENTITY: Update entity position (mode=1)
  3: 0x0324 [0x1C] WAIT(30* ticks)
  4: 0x0327 [0x39] SET_ENTITY_DIRECTION(direction=19.7°*)
  5: 0x032A [0x1C] WAIT(360* ticks)
  6: 0x032D [0x1F] MOVE_ENTITY: EventEntity moves to X=-96.241*, Z=8.872*, Y=0.000*
  7: 0x0335 [0x1F] MOVE_ENTITY: Update entity position (mode=1)
  8: 0x0337 [0x1C] WAIT(30* ticks)
  9: 0x033A [0x39] SET_ENTITY_DIRECTION(direction=2.8°*)
 10: 0x033D [0x1C] WAIT(360* ticks)
 11: 0x0340 [0x01] GOTO 0x0317
```

## Data or dead code:

```
# Dead code (unreachable instructions):
     0x0343 [0x00] END_REQSTACK()
```