# Event 65535

## Metadata

| Field           | Value    |
|-----------------|----------|
| Event Index     | 44/45    |
| Offset          | 0x050E   |
| Data Size       | 51 bytes |
| Calculated Size | 51 bytes |
| Instructions    | 13       |

```
      00 01 02 03 04 05 06 07  08 09 0A 0B 0C 0D 0E 0F
      -- -- -- -- -- -- -- --  -- -- -- -- -- -- -- --
0500:                                            1C 11                ..
0510: 80 66 07 80 F8 FF FF 7F  F8 FF FF 7F 64 69 73 30  .f..........dis0
0520: 1C 57 80 7B F8 FF FF 7F  39 02 80 6F 70 32 0C 80  .W.{....9..op2..
0530: 1F 00 58 80 59 80 02 80  1F 01 1C 27 80 39 5A 80  ..X.Y......'.9Z.
0540: 00                                                .               
```

## Opcodes

```
  0: 0x050E [0x1C] WAIT(120* ticks)
  1: 0x0511 [0x66] LOAD_EXT_SCHEDULER_MAIN: Load scheduler "dis0" with entities [EventEntity, EventEntity], work=60*
  2: 0x0520 [0x1C] WAIT(180* ticks)
  3: 0x0523 [0x7B] EventEntity stops talking
  4: 0x0528 [0x39] SET_ENTITY_DIRECTION(direction=0.0°*)
  5: 0x052B [0x6F] WAIT_FRAME_DELAY: Yield until WaitTime reaches zero
  6: 0x052C [0x70] WAIT_ENTITY_RENDER_FLAG: Wait while EventEntity->Render.Flags3 bit 2 is set (cancel turn if not)
  7: 0x052D [0x32] ExtData[1]->MainSpeed = 13* * 0.1
  8: 0x0530 [0x1F] MOVE_ENTITY: EventEntity moves to X=-77.582*, Z=-8.466*, Y=0.000*
  9: 0x0538 [0x1F] MOVE_ENTITY: Update entity position (mode=1)
 10: 0x053A [0x1C] WAIT(10* ticks)
 11: 0x053D [0x39] SET_ENTITY_DIRECTION(direction=16.8°*)
 12: 0x0540 [0x00] END_REQSTACK()
```
