# 17404382 - Mandragora Warden

## Common Data

| Field            | Value                      |
|------------------|----------------------------|
| Zone             | The Boyahda Tree (ID: 153) |
| Block Size       | 6592 bytes                 |
| Total Events     | 36                         |
| References Count | 109                        |

## List of Events

| Event ID                   | Entrypoint   |   Size |   Instructions |
|----------------------------|--------------|--------|----------------|
| [65535](#event-65535)      | 0x0000       |      1 |              1 |
| [10](#event-10)            | 0x0001       |     11 |              5 |
| [13](#event-13)            | 0x000C       |   5543 |            674 |
| [27](#event-27)            | 0x15B3       |      1 |              1 |
| [28](#event-28)            | 0x15B4       |      1 |              1 |
| [65535.1](#event-655351)   | 0x15B5       |     22 |              8 |
| [65535.2](#event-655352)   | 0x15CB       |     26 |              8 |
| [29](#event-29)            | 0x15E5       |      1 |              1 |
| [30](#event-30)            | 0x15E6       |      1 |              1 |
| [31](#event-31)            | 0x15E7       |      1 |              1 |
| [65535.3](#event-655353)   | 0x15E8       |     16 |              2 |
| [65535.4](#event-655354)   | 0x15F8       |     14 |              2 |
| [65535.5](#event-655355)   | 0x1606       |     16 |              2 |
| [65535.6](#event-655356)   | 0x1616       |     14 |              2 |
| [65535.7](#event-655357)   | 0x1624       |     16 |              2 |
| [65535.8](#event-655358)   | 0x1634       |     14 |              2 |
| [65535.9](#event-655359)   | 0x1642       |     16 |              2 |
| [65535.10](#event-6553510) | 0x1652       |     14 |              2 |
| [65535.11](#event-6553511) | 0x1660       |     16 |              2 |
| [65535.12](#event-6553512) | 0x1670       |     14 |              2 |
| [65535.13](#event-6553513) | 0x167E       |     16 |              2 |
| [65535.14](#event-6553514) | 0x168E       |     14 |              2 |
| [65535.15](#event-6553515) | 0x169C       |     16 |              2 |
| [65535.16](#event-6553516) | 0x16AC       |     14 |              2 |
| [65535.17](#event-6553517) | 0x16BA       |     14 |              2 |
| [65535.18](#event-6553518) | 0x16C8       |     14 |              2 |
| [65535.19](#event-6553519) | 0x16D6       |     16 |              2 |
| [65535.20](#event-6553520) | 0x16E6       |     14 |              2 |
| [65535.21](#event-6553521) | 0x16F4       |     29 |              3 |
| [65535.22](#event-6553522) | 0x1711       |     29 |              3 |
| [65535.23](#event-6553523) | 0x172E       |      5 |              2 |
| [65535.24](#event-6553524) | 0x1733       |      5 |              2 |
| [32](#event-32)            | 0x1738       |      1 |              1 |
| [33](#event-33)            | 0x1739       |      1 |              1 |
| [65535.25](#event-6553525) | 0x173A       |     26 |              8 |
| [65535.26](#event-6553526) | 0x1754       |     22 |              8 |

## DAT References (imed_data)

|   Index | Hex Value   |   Dec Value |
|---------|-------------|-------------|
|       0 | 0x1C12      |        7186 |
|       1 | 0x1CB7      |        7351 |
|       2 | 0x00C8      |         200 |
|       3 | 0x0000      |           0 |
|       4 | 0x003C      |          60 |
|       5 | 0x0013      |          19 |
|       6 | 0x007B      |         123 |
|       7 | 0x0064      |         100 |
|       8 | 0x00FB      |         251 |
|       9 | 0x0078      |         120 |
|      10 | 0x1CB9      |        7353 |
|      11 | 0x0050      |          80 |
|      12 | 0x0003      |           3 |
|      13 | 0x0008      |           8 |
|      14 | 0x1CBA      |        7354 |
|      15 | 0x1CBB      |        7355 |
|      16 | 0x00C9      |         201 |
|      17 | 0x1CBC      |        7356 |
|      18 | 0x1CBD      |        7357 |
|      19 | 0x1CBE      |        7358 |
|      20 | 0x1CBF      |        7359 |
|      21 | 0x1CC0      |        7360 |
|      22 | 0x1CC1      |        7361 |
|      23 | 0x1CC2      |        7362 |
|      24 | 0x1CC3      |        7363 |
|      25 | 0x0320      |         800 |
|      26 | 0x1CC4      |        7364 |
|      27 | 0x1CC5      |        7365 |
|      28 | 0x1CC6      |        7366 |
|      29 | 0x1CC7      |        7367 |
|      30 | 0x1CC8      |        7368 |
|      31 | 0x00FE      |         254 |
|      32 | 0x1CC9      |        7369 |
|      33 | 0x007F      |         127 |
|      34 | 0x1CCA      |        7370 |
|      35 | 0x1CCB      |        7371 |
|      36 | 0x1CCC      |        7372 |
|      37 | 0x1CCD      |        7373 |
|      38 | 0x1CCE      |        7374 |
|      39 | 0x1CCF      |        7375 |
|      40 | 0x000A      |          10 |
|      41 | 0x0001      |           1 |
|      42 | 0x1CD0      |        7376 |
|      43 | 0x1CD1      |        7377 |
|      44 | 0x00F1      |         241 |
|      45 | 0x000C      |          12 |
|      46 | 0x01A6      |         422 |
|      47 | 0x1CD2      |        7378 |
|      48 | 0x1CD3      |        7379 |
|      49 | 0x1CD4      |        7380 |
|      50 | 0x1CD5      |        7381 |
|      51 | 0x0806      |        2054 |
|      52 | 0x1CD6      |        7382 |
|      53 | 0x0099      |         153 |
|      54 | 0x1CD7      |        7383 |
|      55 | 0x1CD8      |        7384 |
|      56 | 0x1CD9      |        7385 |
|      57 | 0x1CDA      |        7386 |
|      58 | 0x1CDB      |        7387 |
|      59 | 0x0002      |           2 |
|      60 | 0x1CDC      |        7388 |
|      61 | 0x1CDD      |        7389 |
|      62 | 0x1CDE      |        7390 |
|      63 | 0x0082      |         130 |
|      64 | 0x1CDF      |        7391 |
|      65 | 0x1CE0      |        7392 |
|      66 | 0x1CE1      |        7393 |
|      67 | 0x1CE2      |        7394 |
|      68 | 0x1CE3      |        7395 |
|      69 | 0x1CE4      |        7396 |
|      70 | 0x0898      |        2200 |
|      71 | 0x1CE5      |        7397 |
|      72 | 0x1CE6      |        7398 |
|      73 | 0x1CE7      |        7399 |
|      74 | 0x0004      |           4 |
|      75 | 0x1CE8      |        7400 |
|      76 | 0x1CE9      |        7401 |
|      77 | 0x1CEA      |        7402 |
|      78 | 0x1CEB      |        7403 |
|      79 | 0x1CEC      |        7404 |
|      80 | 0x1CED      |        7405 |
|      81 | 0x1CEE      |        7406 |
|      82 | 0x0005      |           5 |
|      83 | 0x1CEF      |        7407 |
|      84 | 0x1CF0      |        7408 |
|      85 | 0x1CF1      |        7409 |
|      86 | 0x0006      |           6 |
|      87 | 0x1CF2      |        7410 |
|      88 | 0x1CF3      |        7411 |
|      89 | 0x000D      |          13 |
|      90 | 0x13EF6     |       81654 |
|      91 | 0x21AE4     |      137956 |
|      92 | 0x20F8      |        8440 |
|      93 | 0x0028      |          40 |
|      94 | 0x138BF     |       80063 |
|      95 | 0x2294C     |      141644 |
|      96 | 0x2253      |        8787 |
|      97 | 0x128C0     |       75968 |
|      98 | 0x22CD7     |      142551 |
|      99 | 0x21AA      |        8618 |
|     100 | 0x0871      |        2161 |
|     101 | 0x0B8F      |        2959 |
|     102 | 0x012C      |         300 |
|     103 | 0x118ED     |       71917 |
|     104 | 0x230AB     |      143531 |
|     105 | 0x2115      |        8469 |
|     106 | 0x194C7     |      103623 |
|     107 | 0x22211     |      139793 |
|     108 | 0x215B      |        8539 |

## String References

- **7186**: Pa!
- **7351**: Pi...!
- **7369**: What do you ask? [Why did the Cardians rise up against you?/What do you know about Joker?/Did you know that Joker is alive...?/What do you mean, "interesting"?/The forbidden ritual of the Manustery...?/Why do your children hate you?/I have no more questions.]

## Events

### Event 65535

#### Metadata

| Field        | Value   |
|--------------|---------|
| Entrypoint   | 0x0000  |
| Data Size    | 1 bytes |
| Instructions | 1       |

```
      00 01 02 03 04 05 06 07  08 09 0A 0B 0C 0D 0E 0F
      -- -- -- -- -- -- -- --  -- -- -- -- -- -- -- --
0000: 00                                                .               
```

#### Opcodes

```
  0: 0x0000 [0x00] END_REQSTACK()
```

### Event 10

#### Metadata

| Field        | Value    |
|--------------|----------|
| Entrypoint   | 0x0001   |
| Data Size    | 11 bytes |
| Instructions | 5        |

```
      00 01 02 03 04 05 06 07  08 09 0A 0B 0C 0D 0E 0F
      -- -- -- -- -- -- -- --  -- -- -- -- -- -- -- --
0000:    1E F0 FF FF 7F 1D 00  80 23 21 00               ........#!.    
```

#### Opcodes

```
  0: 0x0001 [0x1E] EventEntity looks at LocalPlayer and starts talking
  1: 0x0006 [0x1D] PRINT_EVENT_MESSAGE(message_id=7186*)
    → "Pa!"
  2: 0x0009 [0x23] WAIT_FOR_DIALOG_INTERACTION
  3: 0x000A [0x21] END_EVENT
  4: 0x000B [0x00] END_REQSTACK()
```

### Event 13

#### Metadata

| Field        | Value      |
|--------------|------------|
| Entrypoint   | 0x000C     |
| Data Size    | 5543 bytes |
| Instructions | 674        |

```
      00 01 02 03 04 05 06 07  08 09 0A 0B 0C 0D 0E 0F
      -- -- -- -- -- -- -- --  -- -- -- -- -- -- -- --
0000:                                      20 01 42 46               .BF
0010: 01 1D 01 80 23 45 02 80  F8 FF FF 7F F8 FF FF 7F  ....#E..........
0020: 66 64 6F 31 03 80 1C 04  80 38 05 80 29 0B F0 FF  fdo1.....8..)...
0030: FF 7F 09 29 08 F0 FF FF  7F 06 5C 00 06 80 5C 01  ...)......\...\.
0040: 06 80 1C 07 80 4E 00 ED  91 09 01 80 ED 91 09 01  .....N..........
0050: 29 08 ED 91 09 01 10 27  0B F0 FF FF 7F 0A 45 08  )......'......E.
0060: 80 F8 FF FF 7F F8 FF FF  7F 73 30 36 32 03 80 45  .........s062..E
0070: 02 80 F8 FF FF 7F F8 FF  FF 7F 66 64 69 31 03 80  ..........fdi1..
0080: 1C 09 80 52 08 80 F8 FF  FF 7F F8 FF FF 7F 73 30  ...R..........s0
0090: 36 32 45 02 80 F0 FF FF  7F F0 FF FF 7F 6F 76 6C  62E..........ovl
00A0: 31 03 80 45 08 80 F8 FF  FF 7F F8 FF FF 7F 73 30  1..E..........s0
00B0: 36 33 03 80 29 08 ED 91  09 01 11 7C 00 ED 91 09  63..)......|....
00C0: 01 2B ED 91 09 01 0A 80  23 7C 01 ED 91 09 01 79  .+......#|.....y
00D0: 00 ED 91 09 01 F0 FF FF  7F 1C 0B 80 52 08 80 F8  ............R...
00E0: FF FF 7F F8 FF FF 7F 73  30 36 33 45 08 80 F8 FF  .......s063E....
00F0: FF 7F F8 FF FF 7F 73 30  36 34 03 80 27 0B ED 91  ......s064..'...
0100: 09 01 13 1C 09 80 52 08  80 F8 FF FF 7F F8 FF FF  ......R.........
0110: 7F 73 30 36 34 45 02 80  F0 FF FF 7F F0 FF FF 7F  .s064E..........
0120: 6F 76 6C 31 03 80 02 09  10 0C 80 00 42 01 45 08  ovl1........B.E.
0130: 80 F8 FF FF 7F F8 FF FF  7F 73 31 30 32 03 80 01  .........s102...
0140: 6F 01 02 09 10 0D 80 00  5E 01 45 08 80 F8 FF FF  o.......^.E.....
0150: 7F F8 FF FF 7F 73 31 30  32 03 80 01 6F 01 45 08  .....s102...o.E.
0160: 80 F8 FF FF 7F F8 FF FF  7F 73 30 36 35 03 80 2A  .........s065..*
0170: 0B ED 91 09 01 2B ED 91  09 01 0E 80 23 45 02 80  .....+......#E..
0180: F8 FF FF 7F F8 FF FF 7F  66 64 6F 31 03 80 1C 04  ........fdo1....
0190: 80 2A 0B F0 FF FF 7F 02  09 10 0C 80 00 B1 01 52  .*.............R
01A0: 08 80 F8 FF FF 7F F8 FF  FF 7F 73 31 30 32 01 DA  ..........s102..
01B0: 01 02 09 10 0D 80 00 CB  01 52 08 80 F8 FF FF 7F  .........R......
01C0: F8 FF FF 7F 73 31 30 32  01 DA 01 52 08 80 F8 FF  ....s102...R....
01D0: FF 7F F8 FF FF 7F 73 30  36 35 45 08 80 F8 FF FF  ......s065E.....
01E0: 7F F8 FF FF 7F 73 30 36  36 03 80 45 02 80 F8 FF  .....s066..E....
01F0: FF 7F F8 FF FF 7F 66 64  69 31 03 80 4A F0 FF FF  ......fdi1..J...
0200: 7F ED 91 09 01 2B ED 91  09 01 0F 80 23 6F 76 F0  .....+......#ov.
0210: FF FF 7F 52 08 80 F8 FF  FF 7F F8 FF FF 7F 73 30  ...R..........s0
0220: 36 36 45 10 80 F0 FF FF  7F F0 FF FF 7F 62 6C 6F  66E..........blo
0230: 6E 03 80 45 02 80 F0 FF  FF 7F F0 FF FF 7F 6F 76  n..E..........ov
0240: 6C 31 03 80 45 08 80 F8  FF FF 7F F8 FF FF 7F 73  l1..E..........s
0250: 30 36 38 03 80 29 08 ED  91 09 01 03 2B ED 91 09  068..)......+...
0260: 01 11 80 23 29 08 ED 91  09 01 04 29 08 ED 91 09  ...#)......)....
0270: 01 05 2B ED 91 09 01 12  80 23 29 08 ED 91 09 01  ..+......#).....
0280: 06 52 08 80 F8 FF FF 7F  F8 FF FF 7F 73 30 36 38  .R..........s068
0290: 45 08 80 F8 FF FF 7F F8  FF FF 7F 73 30 36 37 03  E..........s067.
02A0: 80 27 0B ED 91 09 01 14  2B ED 91 09 01 13 80 23  .'......+......#
02B0: 2B ED 91 09 01 14 80 23  2A 0B ED 91 09 01 4A ED  +......#*.....J.
02C0: 91 09 01 F0 FF FF 7F 6F  76 ED 91 09 01 2B ED 91  .......ov....+..
02D0: 09 01 15 80 23 52 08 80  F8 FF FF 7F F8 FF FF 7F  ....#R..........
02E0: 73 30 36 37 45 08 80 F8  FF FF 7F F8 FF FF 7F 73  s067E..........s
02F0: 30 38 34 03 80 29 08 ED  91 09 01 07 2B ED 91 09  084..)......+...
0300: 01 16 80 23 45 02 80 F8  FF FF 7F F8 FF FF 7F 66  ...#E..........f
0310: 64 6F 31 03 80 1C 04 80  29 08 ED 91 09 01 08 52  do1.....)......R
0320: 08 80 F8 FF FF 7F F8 FF  FF 7F 73 30 38 34 29 0B  ..........s084).
0330: ED 91 09 01 15 29 08 ED  91 09 01 09 29 08 ED 91  .....)......)...
0340: 09 01 0A 45 08 80 F8 FF  FF 7F F8 FF FF 7F 73 30  ...E..........s0
0350: 37 30 03 80 45 02 80 F8  FF FF 7F F8 FF FF 7F 66  70..E..........f
0360: 64 69 31 03 80 2B ED 91  09 01 17 80 23 52 08 80  di1..+......#R..
0370: F8 FF FF 7F F8 FF FF 7F  73 30 37 30 45 08 80 F8  ........s070E...
0380: FF FF 7F F8 FF FF 7F 73  30 36 39 03 80 29 08 ED  .......s069..)..
0390: 91 09 01 0B 2B ED 91 09  01 18 80 23 29 08 ED 91  ....+......#)...
03A0: 09 01 0C 52 08 80 F8 FF  FF 7F F8 FF FF 7F 73 30  ...R..........s0
03B0: 36 39 45 08 80 F8 FF FF  7F F8 FF FF 7F 73 30 37  69E..........s07
03C0: 34 03 80 4B ED 91 09 01  19 80 6F 76 ED 91 09 01  4..K......ov....
03D0: 2B ED 91 09 01 1A 80 23  29 08 ED 91 09 01 07 2B  +......#)......+
03E0: ED 91 09 01 1B 80 23 29  08 ED 91 09 01 08 52 08  ......#)......R.
03F0: 80 F8 FF FF 7F F8 FF FF  7F 73 30 37 34 27 0B F0  .........s074'..
0400: FF FF 7F 0B 45 08 80 F8  FF FF 7F F8 FF FF 7F 73  ....E..........s
0410: 30 37 31 03 80 29 08 ED  91 09 01 05 2B ED 91 09  071..)......+...
0420: 01 1C 80 23 29 08 ED 91  09 01 06 52 08 80 F8 FF  ...#)......R....
0430: FF 7F F8 FF FF 7F 73 30  37 31 2A 0B F0 FF FF 7F  ......s071*.....
0440: 02 09 10 0C 80 00 5C 04  45 08 80 F8 FF FF 7F F8  ......\.E.......
0450: FF FF 7F 73 31 30 31 03  80 01 89 04 02 09 10 0D  ...s101.........
0460: 80 00 78 04 45 08 80 F8  FF FF 7F F8 FF FF 7F 73  ..x.E..........s
0470: 31 30 31 03 80 01 89 04  45 08 80 F8 FF FF 7F F8  101.....E.......
0480: FF FF 7F 73 30 37 32 03  80 4A ED 91 09 01 F0 FF  ...s072..J......
0490: FF 7F 6F 76 ED 91 09 01  29 08 ED 91 09 01 09 2B  ..ov....)......+
04A0: ED 91 09 01 1D 80 23 29  08 ED 91 09 01 0A 29 08  ......#)......).
04B0: ED 91 09 01 0B 5D 03 80  02 80 29 08 ED 91 09 01  .....]....).....
04C0: 0C 29 08 ED 91 09 01 01  2B ED 91 09 01 1E 80 23  .)......+......#
04D0: 29 08 ED 91 09 01 02 02  09 10 0C 80 00 F1 04 52  )..............R
04E0: 08 80 F8 FF FF 7F F8 FF  FF 7F 73 30 37 32 01 1A  ..........s072..
04F0: 05 02 09 10 0D 80 00 0B  05 52 08 80 F8 FF FF 7F  .........R......
0500: F8 FF FF 7F 73 30 37 32  01 1A 05 52 08 80 F8 FF  ....s072...R....
0510: FF 7F F8 FF FF 7F 73 31  30 31 03 00 00 1F 80 03  ......s101......
0520: 01 00 03 80 03 02 00 03  80 02 02 00 03 80 00 A6  ................
0530: 14 24 20 80 01 00 00 00  25 02 00 10 03 80 00 A1  .$ .....%.......
0540: 07 5C 00 21 80 5C 01 21  80 45 08 80 F8 FF FF 7F  .\.!.\.!.E......
0550: F8 FF FF 7F 73 30 36 37  03 80 27 0B ED 91 09 01  ....s067..'.....
0560: 14 2B ED 91 09 01 22 80  23 2A 0B ED 91 09 01 29  .+....".#*.....)
0570: 08 ED 91 09 01 07 2B ED  91 09 01 23 80 23 29 08  ......+....#.#).
0580: ED 91 09 01 08 52 08 80  F8 FF FF 7F F8 FF FF 7F  .....R..........
0590: 73 30 36 37 45 02 80 F0  FF FF 7F F0 FF FF 7F 6F  s067E..........o
05A0: 76 6C 31 03 80 45 08 80  F8 FF FF 7F F8 FF FF 7F  vl1..E..........
05B0: 73 30 37 33 03 80 29 08  ED 91 09 01 03 2B ED 91  s073..)......+..
05C0: 09 01 24 80 23 29 08 ED  91 09 01 04 29 08 ED 91  ..$.#)......)...
05D0: 09 01 09 2B ED 91 09 01  25 80 23 29 08 ED 91 09  ...+....%.#)....
05E0: 01 0A 52 08 80 F8 FF FF  7F F8 FF FF 7F 73 30 37  ..R..........s07
05F0: 33 02 09 10 0C 80 00 0D  06 45 08 80 F8 FF FF 7F  3........E......
0600: F8 FF FF 7F 73 31 30 32  03 80 01 3A 06 02 09 10  ....s102...:....
0610: 0D 80 00 29 06 45 08 80  F8 FF FF 7F F8 FF FF 7F  ...).E..........
0620: 73 31 30 32 03 80 01 3A  06 45 08 80 F8 FF FF 7F  s102...:.E......
0630: F8 FF FF 7F 73 30 36 35  03 80 29 08 ED 91 09 01  ....s065..).....
0640: 0B 29 08 ED 91 09 01 0C  27 0B ED 91 09 01 16 2B  .)......'......+
0650: ED 91 09 01 26 80 23 2A  0B ED 91 09 01 02 09 10  ....&.#*........
0660: 0C 80 00 77 06 52 08 80  F8 FF FF 7F F8 FF FF 7F  ...w.R..........
0670: 73 31 30 32 01 A0 06 02  09 10 0D 80 00 91 06 52  s102...........R
0680: 08 80 F8 FF FF 7F F8 FF  FF 7F 73 31 30 32 01 A0  ..........s102..
0690: 06 52 08 80 F8 FF FF 7F  F8 FF FF 7F 73 30 36 35  .R..........s065
06A0: 45 08 80 F8 FF FF 7F F8  FF FF 7F 73 30 36 36 03  E..........s066.
06B0: 80 29 08 ED 91 09 01 03  2B ED 91 09 01 27 80 23  .)......+....'.#
06C0: 29 08 ED 91 09 01 04 52  08 80 F8 FF FF 7F F8 FF  )......R........
06D0: FF 7F 73 30 36 36 45 02  80 F8 FF FF 7F F8 FF FF  ..s066E.........
06E0: 7F 66 64 6F 31 03 80 1C  04 80 02 09 10 0C 80 00  .fdo1...........
06F0: 06 07 45 08 80 F8 FF FF  7F F8 FF FF 7F 73 31 30  ..E..........s10
0700: 31 03 80 01 33 07 02 09  10 0D 80 00 22 07 45 08  1...3.......".E.
0710: 80 F8 FF FF 7F F8 FF FF  7F 73 31 30 31 03 80 01  .........s101...
0720: 33 07 45 08 80 F8 FF FF  7F F8 FF FF 7F 73 30 37  3.E..........s07
0730: 32 03 80 1C 28 80 02 09  10 0C 80 00 50 07 52 08  2...(.......P.R.
0740: 80 F8 FF FF 7F F8 FF FF  7F 73 31 30 31 01 79 07  .........s101.y.
0750: 02 09 10 0D 80 00 6A 07  52 08 80 F8 FF FF 7F F8  ......j.R.......
0760: FF FF 7F 73 31 30 31 01  79 07 52 08 80 F8 FF FF  ...s101.y.R.....
0770: 7F F8 FF FF 7F 73 30 37  32 45 02 80 F8 FF FF 7F  .....s072E......
0780: F8 FF FF 7F 66 64 69 31  03 80 3D 00 00 29 80 29  ....fdi1..=..).)
0790: 80 02 01 00 03 80 00 9E  07 03 01 00 29 80 01 A3  ............)...
07A0: 14 02 00 10 29 80 00 87  0C 45 08 80 F8 FF FF 7F  ....)....E......
07B0: F8 FF FF 7F 73 31 30 30  03 80 2B ED 91 09 01 2A  ....s100..+....*
07C0: 80 23 52 08 80 F8 FF FF  7F F8 FF FF 7F 73 31 30  .#R..........s10
07D0: 30 45 02 80 F0 FF FF 7F  F0 FF FF 7F 6F 76 6C 31  0E..........ovl1
07E0: 03 80 45 08 80 F8 FF FF  7F F8 FF FF 7F 73 30 37  ..E..........s07
07F0: 35 03 80 29 08 ED 91 09  01 09 2B ED 91 09 01 2B  5..)......+....+
0800: 80 23 29 08 ED 91 09 01  0A 29 08 ED 91 09 01 0B  .#)......)......
0810: 29 08 ED 91 09 01 0C 45  02 80 F8 FF FF 7F F8 FF  )......E........
0820: FF 7F 66 64 6F 31 03 80  1C 04 80 34 2C 80 77 2D  ..fdo1.....4,.w-
0830: 80 03 80 1C 07 80 75 00  2E 80 75 01 29 08 ED 91  ......u...u.)...
0840: 09 01 17 29 08 EE 91 09  01 02 4E 00 EE 91 09 01  ...)......N.....
0850: 4E 00 F0 91 09 01 4E 00  EF 91 09 01 4E 00 F1 91  N.....N.....N...
0860: 09 01 4E 00 F2 91 09 01  4E 00 F3 91 09 01 80 EE  ..N.....N.......
0870: 91 09 01 80 F0 91 09 01  80 EF 91 09 01 80 F1 91  ................
0880: 09 01 80 F2 91 09 01 80  F3 91 09 01 29 08 EF 91  ............)...
0890: 09 01 02 29 08 F0 91 09  01 02 79 00 EE 91 09 01  ...)......y.....
08A0: ED 91 09 01 27 0B EE 91  09 01 03 79 00 ED 91 09  ....'......y....
08B0: 01 EF 91 09 01 52 08 80  F8 FF FF 7F F8 FF FF 7F  .....R..........
08C0: 73 30 37 35 27 0B F0 FF  FF 7F 0F 45 02 80 F8 FF  s075'......E....
08D0: FF 7F F8 FF FF 7F 66 64  69 31 03 80 2B ED 91 09  ......fdi1..+...
08E0: 01 2F 80 23 2B ED 91 09  01 30 80 23 2A 0B F0 FF  ./.#+....0.#*...
08F0: FF 7F 52 08 80 F0 FF FF  7F F0 FF FF 7F 73 30 38  ..R..........s08
0900: 33 45 02 80 F0 FF FF 7F  F0 FF FF 7F 6F 76 6C 31  3E..........ovl1
0910: 03 80 45 08 80 F0 FF FF  7F F0 FF FF 7F 73 30 37  ..E..........s07
0920: 37 03 80 27 0B ED 91 09  01 18 2B ED 91 09 01 31  7..'......+....1
0930: 80 23 2A 0B ED 91 09 01  2A 0B EE 91 09 01 4A ED  .#*.....*.....J.
0940: 91 09 01 EE 91 09 01 6F  76 ED 91 09 01 27 0B EE  .......ov....'..
0950: 91 09 01 04 29 08 ED 91  09 01 01 2B ED 91 09 01  ....)......+....
0960: 32 80 23 29 08 ED 91 09  01 02 2A 0B EE 91 09 01  2.#)......*.....
0970: 52 08 80 F0 FF FF 7F F0  FF FF 7F 73 30 37 37 45  R..........s077E
0980: 02 80 F0 FF FF 7F F0 FF  FF 7F 6F 76 6C 31 03 80  ..........ovl1..
0990: 27 0B F0 FF FF 7F 0D 79  00 ED 91 09 01 EE 91 09  '......y........
09A0: 01 4B ED 91 09 01 33 80  6F 76 ED 91 09 01 29 08  .K....3.ov....).
09B0: F0 91 09 01 03 29 08 EF  91 09 01 03 29 08 F0 91  .....)......)...
09C0: 09 01 04 29 08 EF 91 09  01 04 2A 0B F0 FF FF 7F  ...)......*.....
09D0: 2B ED 91 09 01 34 80 23  35 35 80 78 1C 07 80 29  +....4.#55.x...)
09E0: 08 ED 91 09 01 15 29 08  F0 FF FF 7F 0C 4A F0 FF  ......)......J..
09F0: FF 7F ED 91 09 01 4A ED  91 09 01 F0 FF FF 7F 6F  ......J........o
0A00: 76 F0 FF FF 7F 6F 76 ED  91 09 01 4E 01 EE 91 09  v....ov....N....
0A10: 01 4E 01 F0 91 09 01 4E  01 EF 91 09 01 4E 01 F1  .N.....N.....N..
0A20: 91 09 01 4E 01 F2 91 09  01 4E 01 F3 91 09 01 29  ...N.....N.....)
0A30: 08 ED 91 09 01 09 29 08  ED 91 09 01 0A 45 08 80  ......)......E..
0A40: F0 FF FF 7F F0 FF FF 7F  73 30 36 39 03 80 45 02  ........s069..E.
0A50: 80 F8 FF FF 7F F8 FF FF  7F 66 64 69 31 03 80 2B  .........fdi1..+
0A60: ED 91 09 01 36 80 23 52  08 80 F0 FF FF 7F F0 FF  ....6.#R........
0A70: FF 7F 73 30 36 39 45 02  80 F0 FF FF 7F F0 FF FF  ..s069E.........
0A80: 7F 6F 76 6C 31 03 80 02  09 10 0C 80 00 A3 0A 45  .ovl1..........E
0A90: 08 80 F8 FF FF 7F F8 FF  FF 7F 73 31 30 32 03 80  ..........s102..
0AA0: 01 D0 0A 02 09 10 0D 80  00 BF 0A 45 08 80 F8 FF  ...........E....
0AB0: FF 7F F8 FF FF 7F 73 31  30 32 03 80 01 D0 0A 45  ......s102.....E
0AC0: 08 80 F8 FF FF 7F F8 FF  FF 7F 73 30 36 35 03 80  ..........s065..
0AD0: 29 08 ED 91 09 01 0B 2B  ED 91 09 01 37 80 23 29  )......+....7.#)
0AE0: 08 ED 91 09 01 0C 29 08  ED 91 09 01 07 2B ED 91  ......)......+..
0AF0: 09 01 38 80 23 29 08 ED  91 09 01 08 02 09 10 0C  ..8.#)..........
0B00: 80 00 16 0B 52 08 80 F8  FF FF 7F F8 FF FF 7F 73  ....R..........s
0B10: 31 30 32 01 3F 0B 02 09  10 0D 80 00 30 0B 52 08  102.?.......0.R.
0B20: 80 F8 FF FF 7F F8 FF FF  7F 73 31 30 32 01 3F 0B  .........s102.?.
0B30: 52 08 80 F8 FF FF 7F F8  FF FF 7F 73 30 36 35 45  R..........s065E
0B40: 08 80 F8 FF FF 7F F8 FF  FF 7F 73 30 37 30 03 80  ..........s070..
0B50: 27 0B ED 91 09 01 16 2B  ED 91 09 01 39 80 23 2A  '......+....9.#*
0B60: 0B ED 91 09 01 52 08 80  F8 FF FF 7F F8 FF FF 7F  .....R..........
0B70: 73 30 37 30 45 02 80 F0  FF FF 7F F0 FF FF 7F 6F  s070E..........o
0B80: 76 6C 31 03 80 45 08 80  F8 FF FF 7F F8 FF FF 7F  vl1..E..........
0B90: 73 30 36 39 03 80 4A ED  91 09 01 F0 FF FF 7F 6F  s069..J........o
0BA0: 76 ED 91 09 01 2B ED 91  09 01 3A 80 23 45 02 80  v....+....:.#E..
0BB0: F8 FF FF 7F F8 FF FF 7F  66 64 6F 31 03 80 1C 04  ........fdo1....
0BC0: 80 52 08 80 F8 FF FF 7F  F8 FF FF 7F 73 30 36 39  .R..........s069
0BD0: 02 09 10 0C 80 00 EC 0B  45 08 80 F8 FF FF 7F F8  ........E.......
0BE0: FF FF 7F 73 31 30 31 03  80 01 19 0C 02 09 10 0D  ...s101.........
0BF0: 80 00 08 0C 45 08 80 F8  FF FF 7F F8 FF FF 7F 73  ....E..........s
0C00: 31 30 31 03 80 01 19 0C  45 08 80 F8 FF FF 7F F8  101.....E.......
0C10: FF FF 7F 73 30 37 32 03  80 1C 28 80 02 09 10 0C  ...s072...(.....
0C20: 80 00 36 0C 52 08 80 F8  FF FF 7F F8 FF FF 7F 73  ..6.R..........s
0C30: 31 30 31 01 5F 0C 02 09  10 0D 80 00 50 0C 52 08  101._.......P.R.
0C40: 80 F8 FF FF 7F F8 FF FF  7F 73 31 30 31 01 5F 0C  .........s101._.
0C50: 52 08 80 F8 FF FF 7F F8  FF FF 7F 73 30 37 32 45  R..........s072E
0C60: 02 80 F8 FF FF 7F F8 FF  FF 7F 66 64 69 31 03 80  ..........fdi1..
0C70: 3D 00 00 3B 80 29 80 02  01 00 29 80 00 84 0C 03  =..;.)....).....
0C80: 01 00 3B 80 01 A3 14 02  00 10 3B 80 00 23 0E 45  ..;.......;..#.E
0C90: 08 80 F8 FF FF 7F F8 FF  FF 7F 73 30 36 36 03 80  ..........s066..
0CA0: 2B ED 91 09 01 3C 80 23  52 08 80 F8 FF FF 7F F8  +....<.#R.......
0CB0: FF FF 7F 73 30 36 36 45  08 80 F8 FF FF 7F F8 FF  ...s066E........
0CC0: FF 7F 73 30 37 39 03 80  29 08 ED 91 09 01 09 2B  ..s079..)......+
0CD0: ED 91 09 01 3D 80 23 29  08 ED 91 09 01 0A 2B ED  ....=.#)......+.
0CE0: 91 09 01 3E 80 23 45 02  80 F8 FF FF 7F F8 FF FF  ...>.#E.........
0CF0: 7F 66 64 6F 31 03 80 1C  3F 80 52 08 80 F8 FF FF  .fdo1...?.R.....
0D00: 7F F8 FF FF 7F 73 30 37  39 2B ED 91 09 01 40 80  .....s079+....@.
0D10: 23 45 08 80 F8 FF FF 7F  F8 FF FF 7F 73 30 37 34  #E..........s074
0D20: 03 80 45 02 80 F8 FF FF  7F F8 FF FF 7F 66 64 69  ..E..........fdi
0D30: 31 03 80 29 08 ED 91 09  01 0B 2B ED 91 09 01 41  1..)......+....A
0D40: 80 23 29 08 ED 91 09 01  0C 52 08 80 F8 FF FF 7F  .#)......R......
0D50: F8 FF FF 7F 73 30 37 34  45 02 80 F8 FF FF 7F F8  ....s074E.......
0D60: FF FF 7F 66 64 6F 31 03  80 1C 04 80 02 09 10 0C  ...fdo1.........
0D70: 80 00 88 0D 45 08 80 F8  FF FF 7F F8 FF FF 7F 73  ....E..........s
0D80: 31 30 31 03 80 01 B5 0D  02 09 10 0D 80 00 A4 0D  101.............
0D90: 45 08 80 F8 FF FF 7F F8  FF FF 7F 73 31 30 31 03  E..........s101.
0DA0: 80 01 B5 0D 45 08 80 F8  FF FF 7F F8 FF FF 7F 73  ....E..........s
0DB0: 30 37 32 03 80 1C 28 80  02 09 10 0C 80 00 D2 0D  072...(.........
0DC0: 52 08 80 F8 FF FF 7F F8  FF FF 7F 73 31 30 31 01  R..........s101.
0DD0: FB 0D 02 09 10 0D 80 00  EC 0D 52 08 80 F8 FF FF  ..........R.....
0DE0: 7F F8 FF FF 7F 73 31 30  31 01 FB 0D 52 08 80 F8  .....s101...R...
0DF0: FF FF 7F F8 FF FF 7F 73  30 37 32 45 02 80 F8 FF  .......s072E....
0E00: FF 7F F8 FF FF 7F 66 64  69 31 03 80 3D 00 00 0C  ......fdi1..=...
0E10: 80 29 80 02 01 00 3B 80  00 20 0E 03 01 00 0C 80  .)....;.. ......
0E20: 01 A3 14 02 00 10 0C 80  00 E7 0F 45 08 80 F8 FF  ...........E....
0E30: FF 7F F8 FF FF 7F 73 30  37 30 03 80 1C 04 80 2B  ......s070.....+
0E40: ED 91 09 01 42 80 23 2B  ED 91 09 01 43 80 23 52  ....B.#+....C.#R
0E50: 08 80 F8 FF FF 7F F8 FF  FF 7F 73 30 37 30 45 08  ..........s070E.
0E60: 80 F8 FF FF 7F F8 FF FF  7F 73 30 36 39 03 80 29  .........s069..)
0E70: 08 ED 91 09 01 03 2B ED  91 09 01 44 80 23 29 08  ......+....D.#).
0E80: ED 91 09 01 04 2B ED 91  09 01 45 80 23 52 08 80  .....+....E.#R..
0E90: F8 FF FF 7F F8 FF FF 7F  73 30 36 39 27 0B F0 FF  ........s069'...
0EA0: FF 7F 0E 4B ED 91 09 01  46 80 6F 76 ED 91 09 01  ...K....F.ov....
0EB0: 2B ED 91 09 01 47 80 23  2A 0B F0 FF FF 7F 52 08  +....G.#*.....R.
0EC0: 80 F8 FF FF 7F F8 FF FF  7F 73 30 38 30 2B ED 91  .........s080+..
0ED0: 09 01 48 80 23 4A ED 91  09 01 F0 FF FF 7F 6F 76  ..H.#J........ov
0EE0: ED 91 09 01 45 08 80 F8  FF FF 7F F8 FF FF 7F 73  ....E..........s
0EF0: 30 36 36 03 80 45 02 80  F8 FF FF 7F F8 FF FF 7F  066..E..........
0F00: 66 64 69 31 03 80 29 08  ED 91 09 01 07 2B ED 91  fdi1..)......+..
0F10: 09 01 49 80 23 45 02 80  F8 FF FF 7F F8 FF FF 7F  ..I.#E..........
0F20: 66 64 6F 31 03 80 1C 04  80 29 08 ED 91 09 01 08  fdo1.....)......
0F30: 02 09 10 0C 80 00 4C 0F  45 08 80 F8 FF FF 7F F8  ......L.E.......
0F40: FF FF 7F 73 31 30 31 03  80 01 79 0F 02 09 10 0D  ...s101...y.....
0F50: 80 00 68 0F 45 08 80 F8  FF FF 7F F8 FF FF 7F 73  ..h.E..........s
0F60: 31 30 31 03 80 01 79 0F  45 08 80 F8 FF FF 7F F8  101...y.E.......
0F70: FF FF 7F 73 30 37 32 03  80 1C 28 80 02 09 10 0C  ...s072...(.....
0F80: 80 00 96 0F 52 08 80 F8  FF FF 7F F8 FF FF 7F 73  ....R..........s
0F90: 31 30 31 01 BF 0F 02 09  10 0D 80 00 B0 0F 52 08  101...........R.
0FA0: 80 F8 FF FF 7F F8 FF FF  7F 73 31 30 31 01 BF 0F  .........s101...
0FB0: 52 08 80 F8 FF FF 7F F8  FF FF 7F 73 30 37 32 45  R..........s072E
0FC0: 02 80 F8 FF FF 7F F8 FF  FF 7F 66 64 69 31 03 80  ..........fdi1..
0FD0: 3D 00 00 4A 80 29 80 02  01 00 0C 80 00 E4 0F 03  =..J.)..........
0FE0: 01 00 4A 80 01 A3 14 02  00 10 4A 80 00 55 12 45  ..J.......J..U.E
0FF0: 08 80 F8 FF FF 7F F8 FF  FF 7F 73 30 36 37 03 80  ..........s067..
1000: 27 0B ED 91 09 01 14 2B  ED 91 09 01 4B 80 23 2A  '......+....K.#*
1010: 0B ED 91 09 01 29 08 ED  91 09 01 07 2B ED 91 09  .....)......+...
1020: 01 4C 80 23 29 08 ED 91  09 01 08 52 08 80 F8 FF  .L.#)......R....
1030: FF 7F F8 FF FF 7F 73 30  36 37 45 08 80 F8 FF FF  ......s067E.....
1040: 7F F8 FF FF 7F 73 30 36  36 03 80 27 0B ED 91 09  .....s066..'....
1050: 01 19 2B ED 91 09 01 4D  80 23 2A 0B ED 91 09 01  ..+....M.#*.....
1060: 29 08 ED 91 09 01 03 2B  ED 91 09 01 4E 80 23 29  )......+....N.#)
1070: 08 ED 91 09 01 04 52 08  80 F8 FF FF 7F F8 FF FF  ......R.........
1080: 7F 73 30 36 36 45 08 80  F8 FF FF 7F F8 FF FF 7F  .s066E..........
1090: 73 30 37 34 03 80 2B ED  91 09 01 4F 80 23 45 02  s074..+....O.#E.
10A0: 80 F8 FF FF 7F F8 FF FF  7F 66 64 6F 31 03 80 1C  .........fdo1...
10B0: 04 80 29 08 ED 91 09 01  09 2B ED 91 09 01 50 80  ..)......+....P.
10C0: 23 29 08 ED 91 09 01 0A  52 08 80 F8 FF FF 7F F8  #)......R.......
10D0: FF FF 7F 73 30 37 34 45  02 80 F8 FF FF 7F F8 FF  ...s074E........
10E0: FF 7F 66 64 69 31 03 80  02 09 10 0C 80 00 04 11  ..fdi1..........
10F0: 45 08 80 F8 FF FF 7F F8  FF FF 7F 73 31 30 32 03  E..........s102.
1100: 80 01 31 11 02 09 10 0D  80 00 20 11 45 08 80 F8  ..1....... .E...
1110: FF FF 7F F8 FF FF 7F 73  31 30 32 03 80 01 31 11  .......s102...1.
1120: 45 08 80 F8 FF FF 7F F8  FF FF 7F 73 30 36 35 03  E..........s065.
1130: 80 29 08 ED 91 09 01 0B  2B ED 91 09 01 51 80 23  .)......+....Q.#
1140: 29 08 ED 91 09 01 0C 45  02 80 F8 FF FF 7F F8 FF  )......E........
1150: FF 7F 66 64 6F 31 03 80  1C 04 80 02 09 10 0C 80  ..fdo1..........
1160: 00 75 11 52 08 80 F8 FF  FF 7F F8 FF FF 7F 73 31  .u.R..........s1
1170: 30 32 01 9E 11 02 09 10  0D 80 00 8F 11 52 08 80  02...........R..
1180: F8 FF FF 7F F8 FF FF 7F  73 31 30 32 01 9E 11 52  ........s102...R
1190: 08 80 F8 FF FF 7F F8 FF  FF 7F 73 30 36 35 02 09  ..........s065..
11A0: 10 0C 80 00 BA 11 45 08  80 F8 FF FF 7F F8 FF FF  ......E.........
11B0: 7F 73 31 30 31 03 80 01  E7 11 02 09 10 0D 80 00  .s101...........
11C0: D6 11 45 08 80 F8 FF FF  7F F8 FF FF 7F 73 31 30  ..E..........s10
11D0: 31 03 80 01 E7 11 45 08  80 F8 FF FF 7F F8 FF FF  1.....E.........
11E0: 7F 73 30 37 32 03 80 1C  28 80 02 09 10 0C 80 00  .s072...(.......
11F0: 04 12 52 08 80 F8 FF FF  7F F8 FF FF 7F 73 31 30  ..R..........s10
1200: 31 01 2D 12 02 09 10 0D  80 00 1E 12 52 08 80 F8  1.-.........R...
1210: FF FF 7F F8 FF FF 7F 73  31 30 31 01 2D 12 52 08  .......s101.-.R.
1220: 80 F8 FF FF 7F F8 FF FF  7F 73 30 37 32 45 02 80  .........s072E..
1230: F8 FF FF 7F F8 FF FF 7F  66 64 69 31 03 80 3D 00  ........fdi1..=.
1240: 00 52 80 29 80 02 01 00  4A 80 00 52 12 03 01 00  .R.)....J..R....
1250: 52 80 01 A3 14 02 00 10  52 80 00 93 14 02 09 10  R.......R.......
1260: 0C 80 00 79 12 45 08 80  F8 FF FF 7F F8 FF FF 7F  ...y.E..........
1270: 73 31 30 34 03 80 01 A6  12 02 09 10 0D 80 00 95  s104............
1280: 12 45 08 80 F8 FF FF 7F  F8 FF FF 7F 73 31 30 34  .E..........s104
1290: 03 80 01 A6 12 45 08 80  F8 FF FF 7F F8 FF FF 7F  .....E..........
12A0: 73 30 38 31 03 80 29 08  ED 91 09 01 07 2B ED 91  s081..)......+..
12B0: 09 01 53 80 23 29 08 ED  91 09 01 07 29 08 ED 91  ..S.#)......)...
12C0: 09 01 03 2B ED 91 09 01  54 80 23 29 08 ED 91 09  ...+....T.#)....
12D0: 01 04 02 09 10 0C 80 00  EC 12 52 08 80 F8 FF FF  ..........R.....
12E0: 7F F8 FF FF 7F 73 31 30  34 01 15 13 02 09 10 0D  .....s104.......
12F0: 80 00 06 13 52 08 80 F8  FF FF 7F F8 FF FF 7F 73  ....R..........s
1300: 31 30 34 01 15 13 52 08  80 F8 FF FF 7F F8 FF FF  104...R.........
1310: 7F 73 30 38 31 45 02 80  F0 FF FF 7F F0 FF FF 7F  .s081E..........
1320: 6F 76 6C 31 03 80 02 09  10 0C 80 00 42 13 45 08  ovl1........B.E.
1330: 80 F8 FF FF 7F F8 FF FF  7F 73 30 36 36 03 80 01  .........s066...
1340: 6F 13 02 09 10 0D 80 00  5E 13 45 08 80 F8 FF FF  o.......^.E.....
1350: 7F F8 FF FF 7F 73 30 36  36 03 80 01 6F 13 45 08  .....s066...o.E.
1360: 80 F8 FF FF 7F F8 FF FF  7F 73 30 38 32 03 80 29  .........s082..)
1370: 08 ED 91 09 01 01 2B ED  91 09 01 55 80 23 29 08  ......+....U.#).
1380: ED 91 09 01 02 45 02 80  F8 FF FF 7F F8 FF FF 7F  .....E..........
1390: 66 64 6F 31 03 80 1C 04  80 02 09 10 0C 80 00 B3  fdo1............
13A0: 13 52 08 80 F8 FF FF 7F  F8 FF FF 7F 73 30 36 36  .R..........s066
13B0: 01 DC 13 02 09 10 0D 80  00 CD 13 52 08 80 F8 FF  ...........R....
13C0: FF 7F F8 FF FF 7F 73 30  36 36 01 DC 13 52 08 80  ......s066...R..
13D0: F8 FF FF 7F F8 FF FF 7F  73 30 38 32 02 09 10 0C  ........s082....
13E0: 80 00 F8 13 45 08 80 F8  FF FF 7F F8 FF FF 7F 73  ....E..........s
13F0: 31 30 31 03 80 01 25 14  02 09 10 0D 80 00 14 14  101...%.........
1400: 45 08 80 F8 FF FF 7F F8  FF FF 7F 73 31 30 31 03  E..........s101.
1410: 80 01 25 14 45 08 80 F8  FF FF 7F F8 FF FF 7F 73  ..%.E..........s
1420: 30 37 32 03 80 1C 28 80  02 09 10 0C 80 00 42 14  072...(.......B.
1430: 52 08 80 F8 FF FF 7F F8  FF FF 7F 73 31 30 31 01  R..........s101.
1440: 6B 14 02 09 10 0D 80 00  5C 14 52 08 80 F8 FF FF  k.......\.R.....
1450: 7F F8 FF FF 7F 73 31 30  31 01 6B 14 52 08 80 F8  .....s101.k.R...
1460: FF FF 7F F8 FF FF 7F 73  30 37 32 45 02 80 F8 FF  .......s072E....
1470: FF 7F F8 FF FF 7F 66 64  69 31 03 80 3D 00 00 56  ......fdi1..=..V
1480: 80 29 80 02 01 00 52 80  00 90 14 03 01 00 56 80  .)....R.......V.
1490: 01 A3 14 02 00 10 56 80  00 A3 14 03 02 00 29 80  ......V.......).
14A0: 01 A3 14 01 29 05 45 08  80 F8 FF FF 7F F8 FF FF  ....).E.........
14B0: 7F 73 30 37 34 03 80 92  01 ED 91 09 01 27 0B ED  .s074........'..
14C0: 91 09 01 1A 2B ED 91 09  01 57 80 23 2A 0B ED 91  ....+....W.#*...
14D0: 09 01 52 08 80 F8 FF FF  7F F8 FF FF 7F 73 30 37  ..R..........s07
14E0: 34 92 00 ED 91 09 01 02  09 10 0C 80 00 03 15 45  4..............E
14F0: 08 80 F8 FF FF 7F F8 FF  FF 7F 73 31 30 32 03 80  ..........s102..
1500: 01 30 15 02 09 10 0D 80  00 1F 15 45 08 80 F8 FF  .0.........E....
1510: FF 7F F8 FF FF 7F 73 31  30 32 03 80 01 30 15 45  ......s102...0.E
1520: 08 80 F8 FF FF 7F F8 FF  FF 7F 73 30 36 35 03 80  ..........s065..
1530: 2B ED 91 09 01 58 80 23  5D 03 80 02 80 45 02 80  +....X.#]....E..
1540: F8 FF FF 7F F8 FF FF 7F  66 64 6F 31 03 80 1C 02  ........fdo1....
1550: 80 5C 00 03 80 5C 01 03  80 02 09 10 0C 80 00 73  .\...\.........s
1560: 15 52 08 80 F8 FF FF 7F  F8 FF FF 7F 73 31 30 32  .R..........s102
1570: 01 9C 15 02 09 10 0D 80  00 8D 15 52 08 80 F8 FF  ...........R....
1580: FF 7F F8 FF FF 7F 73 31  30 32 01 9C 15 52 08 80  ......s102...R..
1590: F8 FF FF 7F F8 FF FF 7F  73 30 36 35 46 00 45 02  ........s065F.E.
15A0: 80 F8 FF FF 7F F8 FF FF  7F 66 64 69 31 03 80 20  .........fdi1.. 
15B0: 00 21 00                                          .!.             
```

#### Opcodes

```
  0: 0x000C [0x20] SET_CLI_EVENT_UC_FLAG: Lock player control
  1: 0x000E [0x42] SET_CLI_EVENT_CANCEL_DATA()
  2: 0x000F [0x46] CAMERA_CONTROL: Disable user control
  3: 0x0011 [0x1D] PRINT_EVENT_MESSAGE(message_id=7351*)
    → "Pi...!"
  4: 0x0014 [0x23] WAIT_FOR_DIALOG_INTERACTION
  5: 0x0015 [0x45] LOAD_SCHEDULED_TASK: Load scheduler "fdo1" with entities [EventEntity, EventEntity], work=[200*, 0*]
  6: 0x0026 [0x1C] WAIT(60* ticks)
  7: 0x0029 [0x38] SET_CLIENT_EVENT_MODE(mode=19*)
  8: 0x002C [0x29] REQ_SET_WAIT(priority=0x0B, entity_id=LocalPlayer, tag_num=0x09)
  9: 0x0033 [0x29] REQ_SET_WAIT(priority=0x08, entity_id=LocalPlayer, tag_num=0x06)
 10: 0x003A [0x5C] MUSIC_CONTROL: Set Idle (Day) music to song 123*
 11: 0x003E [0x5C] MUSIC_CONTROL: Set Idle (Night) music to song 123*
 12: 0x0042 [0x1C] WAIT(100* ticks)
 13: 0x0045 [0x4E] SET_ENTITY_HIDE_FLAG: Show Zonpa-Zippa (ID: 17404397/0x010991ED)
 14: 0x004B [0x80] LOAD_WAIT(entity=Zonpa-Zippa (ID: 17404397/0x010991ED))
 15: 0x0050 [0x29] REQ_SET_WAIT(priority=0x08, entity_id=Zonpa-Zippa (ID: 17404397/0x010991ED), tag_num=0x10)
 16: 0x0057 [0x27] REQ_SET(priority=0x0B, entity_id=LocalPlayer, tag_num=0x0A)
 17: 0x005E [0x45] LOAD_SCHEDULED_TASK: Load scheduler "s062" with entities [EventEntity, EventEntity], work=[251*, 0*]
 18: 0x006F [0x45] LOAD_SCHEDULED_TASK: Load scheduler "fdi1" with entities [EventEntity, EventEntity], work=[200*, 0*]
 19: 0x0080 [0x1C] WAIT(120* ticks)
 20: 0x0083 [0x52] END_LOAD_SCHEDULER: End scheduler "s062" with entities [EventEntity, EventEntity], work=251*
 21: 0x0092 [0x45] LOAD_SCHEDULED_TASK: Load scheduler "ovl1" with entities [LocalPlayer, LocalPlayer], work=[200*, 0*]
 22: 0x00A3 [0x45] LOAD_SCHEDULED_TASK: Load scheduler "s063" with entities [EventEntity, EventEntity], work=[251*, 0*]
 23: 0x00B4 [0x29] REQ_SET_WAIT(priority=0x08, entity_id=Zonpa-Zippa (ID: 17404397/0x010991ED), tag_num=0x11)
 24: 0x00BB [0x7C] Zonpa-Zippa (ID: 17404397/0x010991ED)->Render.Flags2 |= 0x00
 25: 0x00C1 [0x2B] Zonpa-Zippa (ID: 17404397/0x010991ED) [7353*]:
    → "!?"
 26: 0x00C8 [0x23] WAIT_FOR_DIALOG_INTERACTION
 27: 0x00C9 [0x7C] Zonpa-Zippa (ID: 17404397/0x010991ED)->Render.Flags2 |= 0x01
 28: 0x00CF [0x79] Zonpa-Zippa (ID: 17404397/0x010991ED) looks at LocalPlayer (Basic look)
 29: 0x00D9 [0x1C] WAIT(80* ticks)
 30: 0x00DC [0x52] END_LOAD_SCHEDULER: End scheduler "s063" with entities [EventEntity, EventEntity], work=251*
 31: 0x00EB [0x45] LOAD_SCHEDULED_TASK: Load scheduler "s064" with entities [EventEntity, EventEntity], work=[251*, 0*]
 32: 0x00FC [0x27] REQ_SET(priority=0x0B, entity_id=Zonpa-Zippa (ID: 17404397/0x010991ED), tag_num=0x13)
 33: 0x0103 [0x1C] WAIT(120* ticks)
 34: 0x0106 [0x52] END_LOAD_SCHEDULER: End scheduler "s064" with entities [EventEntity, EventEntity], work=251*
 35: 0x0115 [0x45] LOAD_SCHEDULED_TASK: Load scheduler "ovl1" with entities [LocalPlayer, LocalPlayer], work=[200*, 0*]
 36: 0x0126 [0x02] IF !(Work_Zone[9] == 3*) GOTO 0x0142
 37: 0x012E [0x45] LOAD_SCHEDULED_TASK: Load scheduler "s102" with entities [EventEntity, EventEntity], work=[251*, 0*]
 38: 0x013F [0x01] GOTO 0x016F
 39: 0x0142 [0x02] IF !(Work_Zone[9] == 8*) GOTO 0x015E
 40: 0x014A [0x45] LOAD_SCHEDULED_TASK: Load scheduler "s102" with entities [EventEntity, EventEntity], work=[251*, 0*]
 41: 0x015B [0x01] GOTO 0x016F
 42: 0x015E [0x45] LOAD_SCHEDULED_TASK: Load scheduler "s065" with entities [EventEntity, EventEntity], work=[251*, 0*]

SUBROUTINE_016F:
 43: 0x016F [0x2A] GET_REQ_LEVEL(level=11, entity_id=Zonpa-Zippa (ID: 17404397/0x010991ED))
 44: 0x0175 [0x2B] Zonpa-Zippa (ID: 17404397/0x010991ED) [7354*]:
    → "And who might you be?"
 45: 0x017C [0x23] WAIT_FOR_DIALOG_INTERACTION
 46: 0x017D [0x45] LOAD_SCHEDULED_TASK: Load scheduler "fdo1" with entities [EventEntity, EventEntity], work=[200*, 0*]
 47: 0x018E [0x1C] WAIT(60* ticks)
 48: 0x0191 [0x2A] GET_REQ_LEVEL(level=11, entity_id=LocalPlayer)
 49: 0x0197 [0x02] IF !(Work_Zone[9] == 3*) GOTO 0x01B1
 50: 0x019F [0x52] END_LOAD_SCHEDULER: End scheduler "s102" with entities [EventEntity, EventEntity], work=251*
 51: 0x01AE [0x01] GOTO 0x01DA
 52: 0x01B1 [0x02] IF !(Work_Zone[9] == 8*) GOTO 0x01CB
 53: 0x01B9 [0x52] END_LOAD_SCHEDULER: End scheduler "s102" with entities [EventEntity, EventEntity], work=251*
 54: 0x01C8 [0x01] GOTO 0x01DA
 55: 0x01CB [0x52] END_LOAD_SCHEDULER: End scheduler "s065" with entities [EventEntity, EventEntity], work=251*

SUBROUTINE_01DA:
 56: 0x01DA [0x45] LOAD_SCHEDULED_TASK: Load scheduler "s066" with entities [EventEntity, EventEntity], work=[251*, 0*]
 57: 0x01EB [0x45] LOAD_SCHEDULED_TASK: Load scheduler "fdi1" with entities [EventEntity, EventEntity], work=[200*, 0*]
 58: 0x01FC [0x4A] LocalPlayer looks at Zonpa-Zippa (ID: 17404397/0x010991ED)
 59: 0x0205 [0x2B] Zonpa-Zippa (ID: 17404397/0x010991ED) [7355*]:
    → "You were wondering the same thing about me? Well then, allow me to introduce myself."
 60: 0x020C [0x23] WAIT_FOR_DIALOG_INTERACTION
 61: 0x020D [0x6F] WAIT_FRAME_DELAY: Yield until WaitTime reaches zero
 62: 0x020E [0x76] CHECK_ENTITY_RENDER_FLAGS: Wait until LocalPlayer Render.Flags0 and Render.Flags3 conditions are met
 63: 0x0213 [0x52] END_LOAD_SCHEDULER: End scheduler "s066" with entities [EventEntity, EventEntity], work=251*
 64: 0x0222 [0x45] LOAD_SCHEDULED_TASK: Load scheduler "blon" with entities [LocalPlayer, LocalPlayer], work=[201*, 0*]
 65: 0x0233 [0x45] LOAD_SCHEDULED_TASK: Load scheduler "ovl1" with entities [LocalPlayer, LocalPlayer], work=[200*, 0*]
 66: 0x0244 [0x45] LOAD_SCHEDULED_TASK: Load scheduler "s068" with entities [EventEntity, EventEntity], work=[251*, 0*]
 67: 0x0255 [0x29] REQ_SET_WAIT(priority=0x08, entity_id=Zonpa-Zippa (ID: 17404397/0x010991ED), tag_num=0x03)
 68: 0x025C [0x2B] Zonpa-Zippa (ID: 17404397/0x010991ED) [7356*]:
    → "I am the illustrious-wustrious Zonpa-Zippa, marvelous Minister of the Manustery, and respected academic of the magical city of Windurst."
 69: 0x0263 [0x23] WAIT_FOR_DIALOG_INTERACTION
 70: 0x0264 [0x29] REQ_SET_WAIT(priority=0x08, entity_id=Zonpa-Zippa (ID: 17404397/0x010991ED), tag_num=0x04)
 71: 0x026B [0x29] REQ_SET_WAIT(priority=0x08, entity_id=Zonpa-Zippa (ID: 17404397/0x010991ED), tag_num=0x05)
 72: 0x0272 [0x2B] Zonpa-Zippa (ID: 17404397/0x010991ED) [7357*]:
    → "I am the eminentaru, brilliantaru, and might I add, quite dashingly handsome Tarutaru responsible for Windurst's great victory twenty years ago."
 73: 0x0279 [0x23] WAIT_FOR_DIALOG_INTERACTION
 74: 0x027A [0x29] REQ_SET_WAIT(priority=0x08, entity_id=Zonpa-Zippa (ID: 17404397/0x010991ED), tag_num=0x06)
 75: 0x0281 [0x52] END_LOAD_SCHEDULER: End scheduler "s068" with entities [EventEntity, EventEntity], work=251*
 76: 0x0290 [0x45] LOAD_SCHEDULED_TASK: Load scheduler "s067" with entities [EventEntity, EventEntity], work=[251*, 0*]
 77: 0x02A1 [0x27] REQ_SET(priority=0x0B, entity_id=Zonpa-Zippa (ID: 17404397/0x010991ED), tag_num=0x14)
 78: 0x02A8 [0x2B] Zonpa-Zippa (ID: 17404397/0x010991ED) [7358*]:
    → "You mightaru well ask what an unparalleled paragon of perfection such as myself would be doing in a place like this."
 79: 0x02AF [0x23] WAIT_FOR_DIALOG_INTERACTION
 80: 0x02B0 [0x2B] Zonpa-Zippa (ID: 17404397/0x010991ED) [7359*]:
    → "During the confusion of the Great War, I was abductarued by the Cardians, magical constructs of war, and brought to this place. I have been kept prisoner here ever since."
 81: 0x02B7 [0x23] WAIT_FOR_DIALOG_INTERACTION
 82: 0x02B8 [0x2A] GET_REQ_LEVEL(level=11, entity_id=Zonpa-Zippa (ID: 17404397/0x010991ED))
 83: 0x02BE [0x4A] Zonpa-Zippa (ID: 17404397/0x010991ED) looks at LocalPlayer
 84: 0x02C7 [0x6F] WAIT_FRAME_DELAY: Yield until WaitTime reaches zero
 85: 0x02C8 [0x76] CHECK_ENTITY_RENDER_FLAGS: Wait until Zonpa-Zippa (ID: 17404397/0x010991ED) Render.Flags0 and Render.Flags3 conditions are met
 86: 0x02CD [0x2B] Zonpa-Zippa (ID: 17404397/0x010991ED) [7360*]:
    → "Do not make any hasty-wasty assumptions! I have merely been playing the role of detainee in order to take advantage of the situation for research purposes."
 87: 0x02D4 [0x23] WAIT_FOR_DIALOG_INTERACTION
 88: 0x02D5 [0x52] END_LOAD_SCHEDULER: End scheduler "s067" with entities [EventEntity, EventEntity], work=251*
 89: 0x02E4 [0x45] LOAD_SCHEDULED_TASK: Load scheduler "s084" with entities [EventEntity, EventEntity], work=[251*, 0*]
 90: 0x02F5 [0x29] REQ_SET_WAIT(priority=0x08, entity_id=Zonpa-Zippa (ID: 17404397/0x010991ED), tag_num=0x07)
 91: 0x02FC [0x2B] Zonpa-Zippa (ID: 17404397/0x010991ED) [7361*]:
    → "...I do wonder, however, how my poor Windurst fares without her favorite minister. If indeed you have come to rescue me, perhaps there is something I can do to help you...?"
 92: 0x0303 [0x23] WAIT_FOR_DIALOG_INTERACTION
 93: 0x0304 [0x45] LOAD_SCHEDULED_TASK: Load scheduler "fdo1" with entities [EventEntity, EventEntity], work=[200*, 0*]
 94: 0x0315 [0x1C] WAIT(60* ticks)
 95: 0x0318 [0x29] REQ_SET_WAIT(priority=0x08, entity_id=Zonpa-Zippa (ID: 17404397/0x010991ED), tag_num=0x08)
 96: 0x031F [0x52] END_LOAD_SCHEDULER: End scheduler "s084" with entities [EventEntity, EventEntity], work=251*
 97: 0x032E [0x29] REQ_SET_WAIT(priority=0x0B, entity_id=Zonpa-Zippa (ID: 17404397/0x010991ED), tag_num=0x15)
 98: 0x0335 [0x29] REQ_SET_WAIT(priority=0x08, entity_id=Zonpa-Zippa (ID: 17404397/0x010991ED), tag_num=0x09)
 99: 0x033C [0x29] REQ_SET_WAIT(priority=0x08, entity_id=Zonpa-Zippa (ID: 17404397/0x010991ED), tag_num=0x0A)
100: 0x0343 [0x45] LOAD_SCHEDULED_TASK: Load scheduler "s070" with entities [EventEntity, EventEntity], work=[251*, 0*]
101: 0x0354 [0x45] LOAD_SCHEDULED_TASK: Load scheduler "fdi1" with entities [EventEntity, EventEntity], work=[200*, 0*]
102: 0x0365 [0x2B] Zonpa-Zippa (ID: 17404397/0x010991ED) [7362*]:
    → "...Hrmm, is that so? You've come at the behest of my little Apururu, have you? I mustaru say I'm surprised that my daughter has ascended to the head of the Manustery."
103: 0x036C [0x23] WAIT_FOR_DIALOG_INTERACTION
104: 0x036D [0x52] END_LOAD_SCHEDULER: End scheduler "s070" with entities [EventEntity, EventEntity], work=251*
105: 0x037C [0x45] LOAD_SCHEDULED_TASK: Load scheduler "s069" with entities [EventEntity, EventEntity], work=[251*, 0*]
106: 0x038D [0x29] REQ_SET_WAIT(priority=0x08, entity_id=Zonpa-Zippa (ID: 17404397/0x010991ED), tag_num=0x0B)
107: 0x0394 [0x2B] Zonpa-Zippa (ID: 17404397/0x010991ED) [7363*]:
    → "But are the Cardians contentaru to follow her orders? My daughter has a habitaru of instilling too much individuality into them."
108: 0x039B [0x23] WAIT_FOR_DIALOG_INTERACTION
109: 0x039C [0x29] REQ_SET_WAIT(priority=0x08, entity_id=Zonpa-Zippa (ID: 17404397/0x010991ED), tag_num=0x0C)
110: 0x03A3 [0x52] END_LOAD_SCHEDULER: End scheduler "s069" with entities [EventEntity, EventEntity], work=251*
111: 0x03B2 [0x45] LOAD_SCHEDULED_TASK: Load scheduler "s074" with entities [EventEntity, EventEntity], work=[251*, 0*]
112: 0x03C3 [0x4B] UPDATE_ENTITY_YAW(entity=Zonpa-Zippa (ID: 17404397/0x010991ED), yaw=4.4°*)
113: 0x03CA [0x6F] WAIT_FRAME_DELAY: Yield until WaitTime reaches zero
114: 0x03CB [0x76] CHECK_ENTITY_RENDER_FLAGS: Wait until Zonpa-Zippa (ID: 17404397/0x010991ED) Render.Flags0 and Render.Flags3 conditions are met
115: 0x03D0 [0x2B] Zonpa-Zippa (ID: 17404397/0x010991ED) [7364*]:
    → "The Cardians were created to perform tasks that are too physically strenuous or dangerous for Tarutaru."
116: 0x03D7 [0x23] WAIT_FOR_DIALOG_INTERACTION
117: 0x03D8 [0x29] REQ_SET_WAIT(priority=0x08, entity_id=Zonpa-Zippa (ID: 17404397/0x010991ED), tag_num=0x07)
118: 0x03DF [0x2B] Zonpa-Zippa (ID: 17404397/0x010991ED) [7365*]:
    → "If they are given too much knowledge, they become muddle-wuddled and confused. The black and white world of what they should and shouldn't do becomes stained with shades of gray."
119: 0x03E6 [0x23] WAIT_FOR_DIALOG_INTERACTION
120: 0x03E7 [0x29] REQ_SET_WAIT(priority=0x08, entity_id=Zonpa-Zippa (ID: 17404397/0x010991ED), tag_num=0x08)
121: 0x03EE [0x52] END_LOAD_SCHEDULER: End scheduler "s074" with entities [EventEntity, EventEntity], work=251*
122: 0x03FD [0x27] REQ_SET(priority=0x0B, entity_id=LocalPlayer, tag_num=0x0B)
123: 0x0404 [0x45] LOAD_SCHEDULED_TASK: Load scheduler "s071" with entities [EventEntity, EventEntity], work=[251*, 0*]
124: 0x0415 [0x29] REQ_SET_WAIT(priority=0x08, entity_id=Zonpa-Zippa (ID: 17404397/0x010991ED), tag_num=0x05)
125: 0x041C [0x2B] Zonpa-Zippa (ID: 17404397/0x010991ED) [7366*]:
    → "Abducting their creator, me, the great Zonpa-Zippa, and dumping me in this Outlands jail is simply unforgivable!"
126: 0x0423 [0x23] WAIT_FOR_DIALOG_INTERACTION
127: 0x0424 [0x29] REQ_SET_WAIT(priority=0x08, entity_id=Zonpa-Zippa (ID: 17404397/0x010991ED), tag_num=0x06)
128: 0x042B [0x52] END_LOAD_SCHEDULER: End scheduler "s071" with entities [EventEntity, EventEntity], work=251*
129: 0x043A [0x2A] GET_REQ_LEVEL(level=11, entity_id=LocalPlayer)
130: 0x0440 [0x02] IF !(Work_Zone[9] == 3*) GOTO 0x045C
131: 0x0448 [0x45] LOAD_SCHEDULED_TASK: Load scheduler "s101" with entities [EventEntity, EventEntity], work=[251*, 0*]
132: 0x0459 [0x01] GOTO 0x0489
133: 0x045C [0x02] IF !(Work_Zone[9] == 8*) GOTO 0x0478
134: 0x0464 [0x45] LOAD_SCHEDULED_TASK: Load scheduler "s101" with entities [EventEntity, EventEntity], work=[251*, 0*]
135: 0x0475 [0x01] GOTO 0x0489
136: 0x0478 [0x45] LOAD_SCHEDULED_TASK: Load scheduler "s072" with entities [EventEntity, EventEntity], work=[251*, 0*]

SUBROUTINE_0489:
137: 0x0489 [0x4A] Zonpa-Zippa (ID: 17404397/0x010991ED) looks at LocalPlayer
138: 0x0492 [0x6F] WAIT_FRAME_DELAY: Yield until WaitTime reaches zero
139: 0x0493 [0x76] CHECK_ENTITY_RENDER_FLAGS: Wait until Zonpa-Zippa (ID: 17404397/0x010991ED) Render.Flags0 and Render.Flags3 conditions are met
140: 0x0498 [0x29] REQ_SET_WAIT(priority=0x08, entity_id=Zonpa-Zippa (ID: 17404397/0x010991ED), tag_num=0x09)
141: 0x049F [0x2B] Zonpa-Zippa (ID: 17404397/0x010991ED) [7367*]:
    → "...... I seem to have drifted off the pointaru slightly. You said you had some questions for me from Apururu?"
142: 0x04A6 [0x23] WAIT_FOR_DIALOG_INTERACTION
143: 0x04A7 [0x29] REQ_SET_WAIT(priority=0x08, entity_id=Zonpa-Zippa (ID: 17404397/0x010991ED), tag_num=0x0A)
144: 0x04AE [0x29] REQ_SET_WAIT(priority=0x08, entity_id=Zonpa-Zippa (ID: 17404397/0x010991ED), tag_num=0x0B)
145: 0x04B5 [0x5D] SET_MUSIC_VOLUME(volume=0*, fade_time=200*)
146: 0x04BA [0x29] REQ_SET_WAIT(priority=0x08, entity_id=Zonpa-Zippa (ID: 17404397/0x010991ED), tag_num=0x0C)
147: 0x04C1 [0x29] REQ_SET_WAIT(priority=0x08, entity_id=Zonpa-Zippa (ID: 17404397/0x010991ED), tag_num=0x01)
148: 0x04C8 [0x2B] Zonpa-Zippa (ID: 17404397/0x010991ED) [7368*]:
    → "Ask anything you like. Let me remind you that I, the renowned Zonpa-Zippa, am the genius who gave Windurst the awesome-warsome power of the Cardians. The question does not exist that I cannot answer!"
149: 0x04CF [0x23] WAIT_FOR_DIALOG_INTERACTION
150: 0x04D0 [0x29] REQ_SET_WAIT(priority=0x08, entity_id=Zonpa-Zippa (ID: 17404397/0x010991ED), tag_num=0x02)
151: 0x04D7 [0x02] IF !(Work_Zone[9] == 3*) GOTO 0x04F1
152: 0x04DF [0x52] END_LOAD_SCHEDULER: End scheduler "s072" with entities [EventEntity, EventEntity], work=251*
153: 0x04EE [0x01] GOTO 0x051A
154: 0x04F1 [0x02] IF !(Work_Zone[9] == 8*) GOTO 0x050B
155: 0x04F9 [0x52] END_LOAD_SCHEDULER: End scheduler "s072" with entities [EventEntity, EventEntity], work=251*
156: 0x0508 [0x01] GOTO 0x051A
157: 0x050B [0x52] END_LOAD_SCHEDULER: End scheduler "s101" with entities [EventEntity, EventEntity], work=251*

SUBROUTINE_051A:
158: 0x051A [0x03] ExtData[1]->WorkLocal[0] = 254*
159: 0x051F [0x03] ExtData[1]->WorkLocal[1] = 0*
160: 0x0524 [0x03] ExtData[1]->WorkLocal[2] = 0*

SUBROUTINE_0529:
161: 0x0529 [0x02] IF !(ExtData[1]->WorkLocal[2] == 0*) GOTO 0x14A6
162: 0x0531 [0x24] CREATE_DIALOG(message_id=7369*, default_option=ExtData[1]->WorkLocal[1], option_flags=ExtData[1]->WorkLocal[0])
    → "What do you ask? [Why did the Cardians rise up against you?/What do you know about Joker?/Did you know that Joker is alive...?/What do you mean, "interesting"?/The forbidden ritual of the Manustery...?/Why do your children hate you?/I have no more questions.]"
163: 0x0538 [0x25] WAIT_DIALOG_SELECT()
164: 0x0539 [0x02] IF !(Work_Zone[0] == 0*) GOTO 0x07A1
165: 0x0541 [0x5C] MUSIC_CONTROL: Set Idle (Day) music to song 127*
166: 0x0545 [0x5C] MUSIC_CONTROL: Set Idle (Night) music to song 127*
167: 0x0549 [0x45] LOAD_SCHEDULED_TASK: Load scheduler "s067" with entities [EventEntity, EventEntity], work=[251*, 0*]
168: 0x055A [0x27] REQ_SET(priority=0x0B, entity_id=Zonpa-Zippa (ID: 17404397/0x010991ED), tag_num=0x14)
169: 0x0561 [0x2B] Zonpa-Zippa (ID: 17404397/0x010991ED) [7370*]:
    → "That was my one and only grand-slam mistake!"
170: 0x0568 [0x23] WAIT_FOR_DIALOG_INTERACTION
171: 0x0569 [0x2A] GET_REQ_LEVEL(level=11, entity_id=Zonpa-Zippa (ID: 17404397/0x010991ED))
172: 0x056F [0x29] REQ_SET_WAIT(priority=0x08, entity_id=Zonpa-Zippa (ID: 17404397/0x010991ED), tag_num=0x07)
173: 0x0576 [0x2B] Zonpa-Zippa (ID: 17404397/0x010991ED) [7371*]:
    → "Instilled in the Cardians is an absolute sense of duty to their "master." If I had justaru set them to obey only myself as their master, then none of this would have happened."
174: 0x057D [0x23] WAIT_FOR_DIALOG_INTERACTION
175: 0x057E [0x29] REQ_SET_WAIT(priority=0x08, entity_id=Zonpa-Zippa (ID: 17404397/0x010991ED), tag_num=0x08)
176: 0x0585 [0x52] END_LOAD_SCHEDULER: End scheduler "s067" with entities [EventEntity, EventEntity], work=251*
177: 0x0594 [0x45] LOAD_SCHEDULED_TASK: Load scheduler "ovl1" with entities [LocalPlayer, LocalPlayer], work=[200*, 0*]
178: 0x05A5 [0x45] LOAD_SCHEDULED_TASK: Load scheduler "s073" with entities [EventEntity, EventEntity], work=[251*, 0*]
179: 0x05B6 [0x29] REQ_SET_WAIT(priority=0x08, entity_id=Zonpa-Zippa (ID: 17404397/0x010991ED), tag_num=0x03)
180: 0x05BD [0x2B] Zonpa-Zippa (ID: 17404397/0x010991ED) [7372*]:
    → "However, it became necessary for me to create a Cardian army."
181: 0x05C4 [0x23] WAIT_FOR_DIALOG_INTERACTION
182: 0x05C5 [0x29] REQ_SET_WAIT(priority=0x08, entity_id=Zonpa-Zippa (ID: 17404397/0x010991ED), tag_num=0x04)
183: 0x05CC [0x29] REQ_SET_WAIT(priority=0x08, entity_id=Zonpa-Zippa (ID: 17404397/0x010991ED), tag_num=0x09)
184: 0x05D3 [0x2B] Zonpa-Zippa (ID: 17404397/0x010991ED) [7373*]:
    → "Within that army, the lesser Cardians needed to heed the orders of their higher-numbered counterparts."
185: 0x05DA [0x23] WAIT_FOR_DIALOG_INTERACTION
186: 0x05DB [0x29] REQ_SET_WAIT(priority=0x08, entity_id=Zonpa-Zippa (ID: 17404397/0x010991ED), tag_num=0x0A)
187: 0x05E2 [0x52] END_LOAD_SCHEDULER: End scheduler "s073" with entities [EventEntity, EventEntity], work=251*
188: 0x05F1 [0x02] IF !(Work_Zone[9] == 3*) GOTO 0x060D
189: 0x05F9 [0x45] LOAD_SCHEDULED_TASK: Load scheduler "s102" with entities [EventEntity, EventEntity], work=[251*, 0*]
190: 0x060A [0x01] GOTO 0x063A
191: 0x060D [0x02] IF !(Work_Zone[9] == 8*) GOTO 0x0629
192: 0x0615 [0x45] LOAD_SCHEDULED_TASK: Load scheduler "s102" with entities [EventEntity, EventEntity], work=[251*, 0*]
193: 0x0626 [0x01] GOTO 0x063A
194: 0x0629 [0x45] LOAD_SCHEDULED_TASK: Load scheduler "s065" with entities [EventEntity, EventEntity], work=[251*, 0*]

SUBROUTINE_063A:
195: 0x063A [0x29] REQ_SET_WAIT(priority=0x08, entity_id=Zonpa-Zippa (ID: 17404397/0x010991ED), tag_num=0x0B)
196: 0x0641 [0x29] REQ_SET_WAIT(priority=0x08, entity_id=Zonpa-Zippa (ID: 17404397/0x010991ED), tag_num=0x0C)
197: 0x0648 [0x27] REQ_SET(priority=0x0B, entity_id=Zonpa-Zippa (ID: 17404397/0x010991ED), tag_num=0x16)
198: 0x064F [0x2B] Zonpa-Zippa (ID: 17404397/0x010991ED) [7374*]:
    → "And so, with the higher-ranked Cardians acting as "masters" for the rank-and-file, I set myself, the splendiferous Zonpa-Zippa, as commander of the Ace Cardians."
199: 0x0656 [0x23] WAIT_FOR_DIALOG_INTERACTION
200: 0x0657 [0x2A] GET_REQ_LEVEL(level=11, entity_id=Zonpa-Zippa (ID: 17404397/0x010991ED))
201: 0x065D [0x02] IF !(Work_Zone[9] == 3*) GOTO 0x0677
202: 0x0665 [0x52] END_LOAD_SCHEDULER: End scheduler "s102" with entities [EventEntity, EventEntity], work=251*
203: 0x0674 [0x01] GOTO 0x06A0
204: 0x0677 [0x02] IF !(Work_Zone[9] == 8*) GOTO 0x0691
205: 0x067F [0x52] END_LOAD_SCHEDULER: End scheduler "s102" with entities [EventEntity, EventEntity], work=251*
206: 0x068E [0x01] GOTO 0x06A0
207: 0x0691 [0x52] END_LOAD_SCHEDULER: End scheduler "s065" with entities [EventEntity, EventEntity], work=251*

SUBROUTINE_06A0:
208: 0x06A0 [0x45] LOAD_SCHEDULED_TASK: Load scheduler "s066" with entities [EventEntity, EventEntity], work=[251*, 0*]
209: 0x06B1 [0x29] REQ_SET_WAIT(priority=0x08, entity_id=Zonpa-Zippa (ID: 17404397/0x010991ED), tag_num=0x03)
210: 0x06B8 [0x2B] Zonpa-Zippa (ID: 17404397/0x010991ED) [7375*]:
    → "But it was that very system that invited the disaster-waster that occurred."
211: 0x06BF [0x23] WAIT_FOR_DIALOG_INTERACTION
212: 0x06C0 [0x29] REQ_SET_WAIT(priority=0x08, entity_id=Zonpa-Zippa (ID: 17404397/0x010991ED), tag_num=0x04)
213: 0x06C7 [0x52] END_LOAD_SCHEDULER: End scheduler "s066" with entities [EventEntity, EventEntity], work=251*
214: 0x06D6 [0x45] LOAD_SCHEDULED_TASK: Load scheduler "fdo1" with entities [EventEntity, EventEntity], work=[200*, 0*]
215: 0x06E7 [0x1C] WAIT(60* ticks)
216: 0x06EA [0x02] IF !(Work_Zone[9] == 3*) GOTO 0x0706
217: 0x06F2 [0x45] LOAD_SCHEDULED_TASK: Load scheduler "s101" with entities [EventEntity, EventEntity], work=[251*, 0*]
218: 0x0703 [0x01] GOTO 0x0733
219: 0x0706 [0x02] IF !(Work_Zone[9] == 8*) GOTO 0x0722
220: 0x070E [0x45] LOAD_SCHEDULED_TASK: Load scheduler "s101" with entities [EventEntity, EventEntity], work=[251*, 0*]
221: 0x071F [0x01] GOTO 0x0733
222: 0x0722 [0x45] LOAD_SCHEDULED_TASK: Load scheduler "s072" with entities [EventEntity, EventEntity], work=[251*, 0*]

SUBROUTINE_0733:
223: 0x0733 [0x1C] WAIT(10* ticks)
224: 0x0736 [0x02] IF !(Work_Zone[9] == 3*) GOTO 0x0750
225: 0x073E [0x52] END_LOAD_SCHEDULER: End scheduler "s101" with entities [EventEntity, EventEntity], work=251*
226: 0x074D [0x01] GOTO 0x0779
227: 0x0750 [0x02] IF !(Work_Zone[9] == 8*) GOTO 0x076A
228: 0x0758 [0x52] END_LOAD_SCHEDULER: End scheduler "s101" with entities [EventEntity, EventEntity], work=251*
229: 0x0767 [0x01] GOTO 0x0779
230: 0x076A [0x52] END_LOAD_SCHEDULER: End scheduler "s072" with entities [EventEntity, EventEntity], work=251*

SUBROUTINE_0779:
231: 0x0779 [0x45] LOAD_SCHEDULED_TASK: Load scheduler "fdi1" with entities [EventEntity, EventEntity], work=[200*, 0*]
232: 0x078A [0x3D] CLEAR_BIT_FLAG_CONDITIONAL(target_work_offset=ExtData[1]->WorkLocal[0], bit_index_work_offset=1*, condition_work_offset=1*)
233: 0x0791 [0x02] IF !(ExtData[1]->WorkLocal[1] == 0*) GOTO 0x079E
234: 0x0799 [0x03] ExtData[1]->WorkLocal[1] = 1*
235: 0x079E [0x01] GOTO 0x14A3
236: 0x07A1 [0x02] IF !(Work_Zone[0] == 1*) GOTO 0x0C87
237: 0x07A9 [0x45] LOAD_SCHEDULED_TASK: Load scheduler "s100" with entities [EventEntity, EventEntity], work=[251*, 0*]
238: 0x07BA [0x2B] Zonpa-Zippa (ID: 17404397/0x010991ED) [7376*]:
    → "Joker!?"
239: 0x07C1 [0x23] WAIT_FOR_DIALOG_INTERACTION
240: 0x07C2 [0x52] END_LOAD_SCHEDULER: End scheduler "s100" with entities [EventEntity, EventEntity], work=251*
241: 0x07D1 [0x45] LOAD_SCHEDULED_TASK: Load scheduler "ovl1" with entities [LocalPlayer, LocalPlayer], work=[200*, 0*]
242: 0x07E2 [0x45] LOAD_SCHEDULED_TASK: Load scheduler "s075" with entities [EventEntity, EventEntity], work=[251*, 0*]
243: 0x07F3 [0x29] REQ_SET_WAIT(priority=0x08, entity_id=Zonpa-Zippa (ID: 17404397/0x010991ED), tag_num=0x09)
244: 0x07FA [0x2B] Zonpa-Zippa (ID: 17404397/0x010991ED) [7377*]:
    → "Now there's a name I haven'taru heard in a while... It's been what, twenty years? Joker was a creation of the Optistery minister, Karaha-Baruha."
245: 0x0801 [0x23] WAIT_FOR_DIALOG_INTERACTION
246: 0x0802 [0x29] REQ_SET_WAIT(priority=0x08, entity_id=Zonpa-Zippa (ID: 17404397/0x010991ED), tag_num=0x0A)
247: 0x0809 [0x29] REQ_SET_WAIT(priority=0x08, entity_id=Zonpa-Zippa (ID: 17404397/0x010991ED), tag_num=0x0B)
248: 0x0810 [0x29] REQ_SET_WAIT(priority=0x08, entity_id=Zonpa-Zippa (ID: 17404397/0x010991ED), tag_num=0x0C)
249: 0x0817 [0x45] LOAD_SCHEDULED_TASK: Load scheduler "fdo1" with entities [EventEntity, EventEntity], work=[200*, 0*]
250: 0x0828 [0x1C] WAIT(60* ticks)
251: 0x082B [0x34] LOAD_UNLOAD_ZONE(zone_id=241*)
252: 0x082E [0x77] SET_EVENT_TIME_WEATHER(hour=12*, weather=0*)
253: 0x0833 [0x1C] WAIT(100* ticks)
254: 0x0836 [0x75] LOAD_ROOM(Load indoor room, room=422*)
255: 0x083A [0x75] LOAD_ROOM(No action)
256: 0x083C [0x29] REQ_SET_WAIT(priority=0x08, entity_id=Zonpa-Zippa (ID: 17404397/0x010991ED), tag_num=0x17)
257: 0x0843 [0x29] REQ_SET_WAIT(priority=0x08, entity_id=Karaha-Baruha (ID: 17404398/0x010991EE), tag_num=0x02)
258: 0x084A [0x4E] SET_ENTITY_HIDE_FLAG: Show Karaha-Baruha (ID: 17404398/0x010991EE)
259: 0x0850 [0x4E] SET_ENTITY_HIDE_FLAG: Show Spare Two (ID: 17404400/0x010991F0)
260: 0x0856 [0x4E] SET_ENTITY_HIDE_FLAG: Show Spare Zero (ID: 17404399/0x010991EF)
261: 0x085C [0x4E] SET_ENTITY_HIDE_FLAG: Show Unnamed NPC (ID: 17404401/0x010991F1)
262: 0x0862 [0x4E] SET_ENTITY_HIDE_FLAG: Show Unnamed NPC (ID: 17404402/0x010991F2)
263: 0x0868 [0x4E] SET_ENTITY_HIDE_FLAG: Show Unnamed NPC (ID: 17404403/0x010991F3)
264: 0x086E [0x80] LOAD_WAIT(entity=Karaha-Baruha (ID: 17404398/0x010991EE))
265: 0x0873 [0x80] LOAD_WAIT(entity=Spare Two (ID: 17404400/0x010991F0))
266: 0x0878 [0x80] LOAD_WAIT(entity=Spare Zero (ID: 17404399/0x010991EF))
267: 0x087D [0x80] LOAD_WAIT(entity=Unnamed NPC (ID: 17404401/0x010991F1))
268: 0x0882 [0x80] LOAD_WAIT(entity=Unnamed NPC (ID: 17404402/0x010991F2))
269: 0x0887 [0x80] LOAD_WAIT(entity=Unnamed NPC (ID: 17404403/0x010991F3))
270: 0x088C [0x29] REQ_SET_WAIT(priority=0x08, entity_id=Spare Zero (ID: 17404399/0x010991EF), tag_num=0x02)
271: 0x0893 [0x29] REQ_SET_WAIT(priority=0x08, entity_id=Spare Two (ID: 17404400/0x010991F0), tag_num=0x02)
272: 0x089A [0x79] Karaha-Baruha (ID: 17404398/0x010991EE) looks at Zonpa-Zippa (ID: 17404397/0x010991ED) (Basic look)
273: 0x08A4 [0x27] REQ_SET(priority=0x0B, entity_id=Karaha-Baruha (ID: 17404398/0x010991EE), tag_num=0x03)
274: 0x08AB [0x79] Zonpa-Zippa (ID: 17404397/0x010991ED) looks at Spare Zero (ID: 17404399/0x010991EF) (Basic look)
275: 0x08B5 [0x52] END_LOAD_SCHEDULER: End scheduler "s075" with entities [EventEntity, EventEntity], work=251*
276: 0x08C4 [0x27] REQ_SET(priority=0x0B, entity_id=LocalPlayer, tag_num=0x0F)
277: 0x08CB [0x45] LOAD_SCHEDULED_TASK: Load scheduler "fdi1" with entities [EventEntity, EventEntity], work=[200*, 0*]
278: 0x08DC [0x2B] Zonpa-Zippa (ID: 17404397/0x010991ED) [7378*]:
    → "Twenty years ago, Karaha-Baruha was conducting research in the magic towers of the Horutoto Ruins."
279: 0x08E3 [0x23] WAIT_FOR_DIALOG_INTERACTION
280: 0x08E4 [0x2B] Zonpa-Zippa (ID: 17404397/0x010991ED) [7379*]:
    → "One day he came to me, the magnificent Zonpa-Zippa, to request several powerful, intelligent Cardians to aid in the construction of a super-special magical gizmo."
281: 0x08EB [0x23] WAIT_FOR_DIALOG_INTERACTION
282: 0x08EC [0x2A] GET_REQ_LEVEL(level=11, entity_id=LocalPlayer)
283: 0x08F2 [0x52] END_LOAD_SCHEDULER: End scheduler "s083" with entities [LocalPlayer, LocalPlayer], work=251*
284: 0x0901 [0x45] LOAD_SCHEDULED_TASK: Load scheduler "ovl1" with entities [LocalPlayer, LocalPlayer], work=[200*, 0*]
285: 0x0912 [0x45] LOAD_SCHEDULED_TASK: Load scheduler "s077" with entities [LocalPlayer, LocalPlayer], work=[251*, 0*]
286: 0x0923 [0x27] REQ_SET(priority=0x0B, entity_id=Zonpa-Zippa (ID: 17404397/0x010991ED), tag_num=0x18)
287: 0x092A [0x2B] Zonpa-Zippa (ID: 17404397/0x010991ED) [7380*]:
    → "In response to his request, I reprogrammed the Ace Cardians to treat Karaha-Baruha as their master."
288: 0x0931 [0x23] WAIT_FOR_DIALOG_INTERACTION
289: 0x0932 [0x2A] GET_REQ_LEVEL(level=11, entity_id=Zonpa-Zippa (ID: 17404397/0x010991ED))
290: 0x0938 [0x2A] GET_REQ_LEVEL(level=11, entity_id=Karaha-Baruha (ID: 17404398/0x010991EE))
291: 0x093E [0x4A] Zonpa-Zippa (ID: 17404397/0x010991ED) looks at Karaha-Baruha (ID: 17404398/0x010991EE)
292: 0x0947 [0x6F] WAIT_FRAME_DELAY: Yield until WaitTime reaches zero
293: 0x0948 [0x76] CHECK_ENTITY_RENDER_FLAGS: Wait until Zonpa-Zippa (ID: 17404397/0x010991ED) Render.Flags0 and Render.Flags3 conditions are met
294: 0x094D [0x27] REQ_SET(priority=0x0B, entity_id=Karaha-Baruha (ID: 17404398/0x010991EE), tag_num=0x04)
295: 0x0954 [0x29] REQ_SET_WAIT(priority=0x08, entity_id=Zonpa-Zippa (ID: 17404397/0x010991ED), tag_num=0x01)
296: 0x095B [0x2B] Zonpa-Zippa (ID: 17404397/0x010991ED) [7381*]:
    → "Karaha-Baruha then proceeded to build his "Joker," using the Ace Cardians as a template to steal my design."
297: 0x0962 [0x23] WAIT_FOR_DIALOG_INTERACTION
298: 0x0963 [0x29] REQ_SET_WAIT(priority=0x08, entity_id=Zonpa-Zippa (ID: 17404397/0x010991ED), tag_num=0x02)
299: 0x096A [0x2A] GET_REQ_LEVEL(level=11, entity_id=Karaha-Baruha (ID: 17404398/0x010991EE))
300: 0x0970 [0x52] END_LOAD_SCHEDULER: End scheduler "s077" with entities [LocalPlayer, LocalPlayer], work=251*
301: 0x097F [0x45] LOAD_SCHEDULED_TASK: Load scheduler "ovl1" with entities [LocalPlayer, LocalPlayer], work=[200*, 0*]
302: 0x0990 [0x27] REQ_SET(priority=0x0B, entity_id=LocalPlayer, tag_num=0x0D)
303: 0x0997 [0x79] Zonpa-Zippa (ID: 17404397/0x010991ED) looks at Karaha-Baruha (ID: 17404398/0x010991EE) (Basic look)
304: 0x09A1 [0x4B] UPDATE_ENTITY_YAW(entity=Zonpa-Zippa (ID: 17404397/0x010991ED), yaw=11.3°*)
305: 0x09A8 [0x6F] WAIT_FRAME_DELAY: Yield until WaitTime reaches zero
306: 0x09A9 [0x76] CHECK_ENTITY_RENDER_FLAGS: Wait until Zonpa-Zippa (ID: 17404397/0x010991ED) Render.Flags0 and Render.Flags3 conditions are met
307: 0x09AE [0x29] REQ_SET_WAIT(priority=0x08, entity_id=Spare Two (ID: 17404400/0x010991F0), tag_num=0x03)
308: 0x09B5 [0x29] REQ_SET_WAIT(priority=0x08, entity_id=Spare Zero (ID: 17404399/0x010991EF), tag_num=0x03)
309: 0x09BC [0x29] REQ_SET_WAIT(priority=0x08, entity_id=Spare Two (ID: 17404400/0x010991F0), tag_num=0x04)
310: 0x09C3 [0x29] REQ_SET_WAIT(priority=0x08, entity_id=Spare Zero (ID: 17404399/0x010991EF), tag_num=0x04)
311: 0x09CA [0x2A] GET_REQ_LEVEL(level=11, entity_id=LocalPlayer)
312: 0x09D0 [0x2B] Zonpa-Zippa (ID: 17404397/0x010991ED) [7382*]:
    → "Once his work was completarued, he ordered the Ace Cardians to follow his creation as their new master, and set Joker with the task of running the magical gizmos in the towers!"
313: 0x09D7 [0x23] WAIT_FOR_DIALOG_INTERACTION
314: 0x09D8 [0x35] LOAD_ZONE_NO_CLOSE(zone_id=153*)
315: 0x09DB [0x78] ENABLE_GAME_TIMER_RESET_WEATHER()
316: 0x09DC [0x1C] WAIT(100* ticks)
317: 0x09DF [0x29] REQ_SET_WAIT(priority=0x08, entity_id=Zonpa-Zippa (ID: 17404397/0x010991ED), tag_num=0x15)
318: 0x09E6 [0x29] REQ_SET_WAIT(priority=0x08, entity_id=LocalPlayer, tag_num=0x0C)
319: 0x09ED [0x4A] LocalPlayer looks at Zonpa-Zippa (ID: 17404397/0x010991ED)
320: 0x09F6 [0x4A] Zonpa-Zippa (ID: 17404397/0x010991ED) looks at LocalPlayer
321: 0x09FF [0x6F] WAIT_FRAME_DELAY: Yield until WaitTime reaches zero
322: 0x0A00 [0x76] CHECK_ENTITY_RENDER_FLAGS: Wait until LocalPlayer Render.Flags0 and Render.Flags3 conditions are met
323: 0x0A05 [0x6F] WAIT_FRAME_DELAY: Yield until WaitTime reaches zero
324: 0x0A06 [0x76] CHECK_ENTITY_RENDER_FLAGS: Wait until Zonpa-Zippa (ID: 17404397/0x010991ED) Render.Flags0 and Render.Flags3 conditions are met
325: 0x0A0B [0x4E] SET_ENTITY_HIDE_FLAG: Hide Karaha-Baruha (ID: 17404398/0x010991EE)
326: 0x0A11 [0x4E] SET_ENTITY_HIDE_FLAG: Hide Spare Two (ID: 17404400/0x010991F0)
327: 0x0A17 [0x4E] SET_ENTITY_HIDE_FLAG: Hide Spare Zero (ID: 17404399/0x010991EF)
328: 0x0A1D [0x4E] SET_ENTITY_HIDE_FLAG: Hide Unnamed NPC (ID: 17404401/0x010991F1)
329: 0x0A23 [0x4E] SET_ENTITY_HIDE_FLAG: Hide Unnamed NPC (ID: 17404402/0x010991F2)
330: 0x0A29 [0x4E] SET_ENTITY_HIDE_FLAG: Hide Unnamed NPC (ID: 17404403/0x010991F3)
331: 0x0A2F [0x29] REQ_SET_WAIT(priority=0x08, entity_id=Zonpa-Zippa (ID: 17404397/0x010991ED), tag_num=0x09)
332: 0x0A36 [0x29] REQ_SET_WAIT(priority=0x08, entity_id=Zonpa-Zippa (ID: 17404397/0x010991ED), tag_num=0x0A)
333: 0x0A3D [0x45] LOAD_SCHEDULED_TASK: Load scheduler "s069" with entities [LocalPlayer, LocalPlayer], work=[251*, 0*]
334: 0x0A4E [0x45] LOAD_SCHEDULED_TASK: Load scheduler "fdi1" with entities [EventEntity, EventEntity], work=[200*, 0*]
335: 0x0A5F [0x2B] Zonpa-Zippa (ID: 17404397/0x010991ED) [7383*]:
    → "However, the Great War claimed Karaha-Baruha's life... And with the death of its creator, Joker, too, passed into oblivion..."
336: 0x0A66 [0x23] WAIT_FOR_DIALOG_INTERACTION
337: 0x0A67 [0x52] END_LOAD_SCHEDULER: End scheduler "s069" with entities [LocalPlayer, LocalPlayer], work=251*
338: 0x0A76 [0x45] LOAD_SCHEDULED_TASK: Load scheduler "ovl1" with entities [LocalPlayer, LocalPlayer], work=[200*, 0*]
339: 0x0A87 [0x02] IF !(Work_Zone[9] == 3*) GOTO 0x0AA3
340: 0x0A8F [0x45] LOAD_SCHEDULED_TASK: Load scheduler "s102" with entities [EventEntity, EventEntity], work=[251*, 0*]
341: 0x0AA0 [0x01] GOTO 0x0AD0
342: 0x0AA3 [0x02] IF !(Work_Zone[9] == 8*) GOTO 0x0ABF
343: 0x0AAB [0x45] LOAD_SCHEDULED_TASK: Load scheduler "s102" with entities [EventEntity, EventEntity], work=[251*, 0*]
344: 0x0ABC [0x01] GOTO 0x0AD0
345: 0x0ABF [0x45] LOAD_SCHEDULED_TASK: Load scheduler "s065" with entities [EventEntity, EventEntity], work=[251*, 0*]

SUBROUTINE_0AD0:
346: 0x0AD0 [0x29] REQ_SET_WAIT(priority=0x08, entity_id=Zonpa-Zippa (ID: 17404397/0x010991ED), tag_num=0x0B)
347: 0x0AD7 [0x2B] Zonpa-Zippa (ID: 17404397/0x010991ED) [7384*]:
    → "With the passing of a creator, the magic weaved into a doll becomes unraveled, and the Cardian follows its master into death."
348: 0x0ADE [0x23] WAIT_FOR_DIALOG_INTERACTION
349: 0x0ADF [0x29] REQ_SET_WAIT(priority=0x08, entity_id=Zonpa-Zippa (ID: 17404397/0x010991ED), tag_num=0x0C)
350: 0x0AE6 [0x29] REQ_SET_WAIT(priority=0x08, entity_id=Zonpa-Zippa (ID: 17404397/0x010991ED), tag_num=0x07)
351: 0x0AED [0x2B] Zonpa-Zippa (ID: 17404397/0x010991ED) [7385*]:
    → "But for the Ace Cardians, Joker's death presented them with a situation they'd never-ever had to deal with before: existence without a master."
352: 0x0AF4 [0x23] WAIT_FOR_DIALOG_INTERACTION
353: 0x0AF5 [0x29] REQ_SET_WAIT(priority=0x08, entity_id=Zonpa-Zippa (ID: 17404397/0x010991ED), tag_num=0x08)
354: 0x0AFC [0x02] IF !(Work_Zone[9] == 3*) GOTO 0x0B16
355: 0x0B04 [0x52] END_LOAD_SCHEDULER: End scheduler "s102" with entities [EventEntity, EventEntity], work=251*
356: 0x0B13 [0x01] GOTO 0x0B3F
357: 0x0B16 [0x02] IF !(Work_Zone[9] == 8*) GOTO 0x0B30
358: 0x0B1E [0x52] END_LOAD_SCHEDULER: End scheduler "s102" with entities [EventEntity, EventEntity], work=251*
359: 0x0B2D [0x01] GOTO 0x0B3F
360: 0x0B30 [0x52] END_LOAD_SCHEDULER: End scheduler "s065" with entities [EventEntity, EventEntity], work=251*

SUBROUTINE_0B3F:
361: 0x0B3F [0x45] LOAD_SCHEDULED_TASK: Load scheduler "s070" with entities [EventEntity, EventEntity], work=[251*, 0*]
362: 0x0B50 [0x27] REQ_SET(priority=0x0B, entity_id=Zonpa-Zippa (ID: 17404397/0x010991ED), tag_num=0x16)
363: 0x0B57 [0x2B] Zonpa-Zippa (ID: 17404397/0x010991ED) [7386*]:
    → "The Aces eventually decided that if they could somehow bring Joker back to life, then their dilemma would be solved."
364: 0x0B5E [0x23] WAIT_FOR_DIALOG_INTERACTION
365: 0x0B5F [0x2A] GET_REQ_LEVEL(level=11, entity_id=Zonpa-Zippa (ID: 17404397/0x010991ED))
366: 0x0B65 [0x52] END_LOAD_SCHEDULER: End scheduler "s070" with entities [EventEntity, EventEntity], work=251*
367: 0x0B74 [0x45] LOAD_SCHEDULED_TASK: Load scheduler "ovl1" with entities [LocalPlayer, LocalPlayer], work=[200*, 0*]
368: 0x0B85 [0x45] LOAD_SCHEDULED_TASK: Load scheduler "s069" with entities [EventEntity, EventEntity], work=[251*, 0*]
369: 0x0B96 [0x4A] Zonpa-Zippa (ID: 17404397/0x010991ED) looks at LocalPlayer
370: 0x0B9F [0x6F] WAIT_FRAME_DELAY: Yield until WaitTime reaches zero
371: 0x0BA0 [0x76] CHECK_ENTITY_RENDER_FLAGS: Wait until Zonpa-Zippa (ID: 17404397/0x010991ED) Render.Flags0 and Render.Flags3 conditions are met
372: 0x0BA5 [0x2B] Zonpa-Zippa (ID: 17404397/0x010991ED) [7387*]:
    → "Those presumptuous puppets are so convinced their destiny lies in resurrecting Joker, they had the nerve to lock me, the amazing Zonpa-Zippa, in a place like this."
373: 0x0BAC [0x23] WAIT_FOR_DIALOG_INTERACTION
374: 0x0BAD [0x45] LOAD_SCHEDULED_TASK: Load scheduler "fdo1" with entities [EventEntity, EventEntity], work=[200*, 0*]
375: 0x0BBE [0x1C] WAIT(60* ticks)
376: 0x0BC1 [0x52] END_LOAD_SCHEDULER: End scheduler "s069" with entities [EventEntity, EventEntity], work=251*
377: 0x0BD0 [0x02] IF !(Work_Zone[9] == 3*) GOTO 0x0BEC
378: 0x0BD8 [0x45] LOAD_SCHEDULED_TASK: Load scheduler "s101" with entities [EventEntity, EventEntity], work=[251*, 0*]
379: 0x0BE9 [0x01] GOTO 0x0C19
380: 0x0BEC [0x02] IF !(Work_Zone[9] == 8*) GOTO 0x0C08
381: 0x0BF4 [0x45] LOAD_SCHEDULED_TASK: Load scheduler "s101" with entities [EventEntity, EventEntity], work=[251*, 0*]
382: 0x0C05 [0x01] GOTO 0x0C19
383: 0x0C08 [0x45] LOAD_SCHEDULED_TASK: Load scheduler "s072" with entities [EventEntity, EventEntity], work=[251*, 0*]

SUBROUTINE_0C19:
384: 0x0C19 [0x1C] WAIT(10* ticks)
385: 0x0C1C [0x02] IF !(Work_Zone[9] == 3*) GOTO 0x0C36
386: 0x0C24 [0x52] END_LOAD_SCHEDULER: End scheduler "s101" with entities [EventEntity, EventEntity], work=251*
387: 0x0C33 [0x01] GOTO 0x0C5F
388: 0x0C36 [0x02] IF !(Work_Zone[9] == 8*) GOTO 0x0C50
389: 0x0C3E [0x52] END_LOAD_SCHEDULER: End scheduler "s101" with entities [EventEntity, EventEntity], work=251*
390: 0x0C4D [0x01] GOTO 0x0C5F
391: 0x0C50 [0x52] END_LOAD_SCHEDULER: End scheduler "s072" with entities [EventEntity, EventEntity], work=251*

SUBROUTINE_0C5F:
392: 0x0C5F [0x45] LOAD_SCHEDULED_TASK: Load scheduler "fdi1" with entities [EventEntity, EventEntity], work=[200*, 0*]
393: 0x0C70 [0x3D] CLEAR_BIT_FLAG_CONDITIONAL(target_work_offset=ExtData[1]->WorkLocal[0], bit_index_work_offset=2*, condition_work_offset=1*)
394: 0x0C77 [0x02] IF !(ExtData[1]->WorkLocal[1] == 1*) GOTO 0x0C84
395: 0x0C7F [0x03] ExtData[1]->WorkLocal[1] = 2*
396: 0x0C84 [0x01] GOTO 0x14A3
397: 0x0C87 [0x02] IF !(Work_Zone[0] == 2*) GOTO 0x0E23
398: 0x0C8F [0x45] LOAD_SCHEDULED_TASK: Load scheduler "s066" with entities [EventEntity, EventEntity], work=[251*, 0*]
399: 0x0CA0 [0x2B] Zonpa-Zippa (ID: 17404397/0x010991ED) [7388*]:
    → "Great blazing behemoths! Are you telling me the Cardians have already found where Joker lay hidden!?"
400: 0x0CA7 [0x23] WAIT_FOR_DIALOG_INTERACTION
401: 0x0CA8 [0x52] END_LOAD_SCHEDULER: End scheduler "s066" with entities [EventEntity, EventEntity], work=251*
402: 0x0CB7 [0x45] LOAD_SCHEDULED_TASK: Load scheduler "s079" with entities [EventEntity, EventEntity], work=[251*, 0*]
403: 0x0CC8 [0x29] REQ_SET_WAIT(priority=0x08, entity_id=Zonpa-Zippa (ID: 17404397/0x010991ED), tag_num=0x09)
404: 0x0CCF [0x2B] Zonpa-Zippa (ID: 17404397/0x010991ED) [7389*]:
    → "I thoughtaru something was up when they stopped coming by to check on me..."
405: 0x0CD6 [0x23] WAIT_FOR_DIALOG_INTERACTION
406: 0x0CD7 [0x29] REQ_SET_WAIT(priority=0x08, entity_id=Zonpa-Zippa (ID: 17404397/0x010991ED), tag_num=0x0A)
407: 0x0CDE [0x2B] Zonpa-Zippa (ID: 17404397/0x010991ED) [7390*]:
    → "...Wait, wait, wait. Even if they had found Joker, no amountaru of the usual, garden-variety Mana Orbs would have been enough to revive him. Who...? How...?"
408: 0x0CE5 [0x23] WAIT_FOR_DIALOG_INTERACTION
409: 0x0CE6 [0x45] LOAD_SCHEDULED_TASK: Load scheduler "fdo1" with entities [EventEntity, EventEntity], work=[200*, 0*]
410: 0x0CF7 [0x1C] WAIT(130* ticks)
411: 0x0CFA [0x52] END_LOAD_SCHEDULER: End scheduler "s079" with entities [EventEntity, EventEntity], work=251*
412: 0x0D09 [0x2B] Zonpa-Zippa (ID: 17404397/0x010991ED) [7391*]:
    → "(Surely not... When the Yagudo stole...?)"
413: 0x0D10 [0x23] WAIT_FOR_DIALOG_INTERACTION
414: 0x0D11 [0x45] LOAD_SCHEDULED_TASK: Load scheduler "s074" with entities [EventEntity, EventEntity], work=[251*, 0*]
415: 0x0D22 [0x45] LOAD_SCHEDULED_TASK: Load scheduler "fdi1" with entities [EventEntity, EventEntity], work=[200*, 0*]
416: 0x0D33 [0x29] REQ_SET_WAIT(priority=0x08, entity_id=Zonpa-Zippa (ID: 17404397/0x010991ED), tag_num=0x0B)
417: 0x0D3A [0x2B] Zonpa-Zippa (ID: 17404397/0x010991ED) [7392*]:
    → "Ahem. Well, in any event, the revival of a dead Cardian will mean things have become interesting indeed!"
418: 0x0D41 [0x23] WAIT_FOR_DIALOG_INTERACTION
419: 0x0D42 [0x29] REQ_SET_WAIT(priority=0x08, entity_id=Zonpa-Zippa (ID: 17404397/0x010991ED), tag_num=0x0C)
420: 0x0D49 [0x52] END_LOAD_SCHEDULER: End scheduler "s074" with entities [EventEntity, EventEntity], work=251*
421: 0x0D58 [0x45] LOAD_SCHEDULED_TASK: Load scheduler "fdo1" with entities [EventEntity, EventEntity], work=[200*, 0*]
422: 0x0D69 [0x1C] WAIT(60* ticks)
423: 0x0D6C [0x02] IF !(Work_Zone[9] == 3*) GOTO 0x0D88
424: 0x0D74 [0x45] LOAD_SCHEDULED_TASK: Load scheduler "s101" with entities [EventEntity, EventEntity], work=[251*, 0*]
425: 0x0D85 [0x01] GOTO 0x0DB5
426: 0x0D88 [0x02] IF !(Work_Zone[9] == 8*) GOTO 0x0DA4
427: 0x0D90 [0x45] LOAD_SCHEDULED_TASK: Load scheduler "s101" with entities [EventEntity, EventEntity], work=[251*, 0*]
428: 0x0DA1 [0x01] GOTO 0x0DB5
429: 0x0DA4 [0x45] LOAD_SCHEDULED_TASK: Load scheduler "s072" with entities [EventEntity, EventEntity], work=[251*, 0*]

SUBROUTINE_0DB5:
430: 0x0DB5 [0x1C] WAIT(10* ticks)
431: 0x0DB8 [0x02] IF !(Work_Zone[9] == 3*) GOTO 0x0DD2
432: 0x0DC0 [0x52] END_LOAD_SCHEDULER: End scheduler "s101" with entities [EventEntity, EventEntity], work=251*
433: 0x0DCF [0x01] GOTO 0x0DFB
434: 0x0DD2 [0x02] IF !(Work_Zone[9] == 8*) GOTO 0x0DEC
435: 0x0DDA [0x52] END_LOAD_SCHEDULER: End scheduler "s101" with entities [EventEntity, EventEntity], work=251*
436: 0x0DE9 [0x01] GOTO 0x0DFB
437: 0x0DEC [0x52] END_LOAD_SCHEDULER: End scheduler "s072" with entities [EventEntity, EventEntity], work=251*

SUBROUTINE_0DFB:
438: 0x0DFB [0x45] LOAD_SCHEDULED_TASK: Load scheduler "fdi1" with entities [EventEntity, EventEntity], work=[200*, 0*]
439: 0x0E0C [0x3D] CLEAR_BIT_FLAG_CONDITIONAL(target_work_offset=ExtData[1]->WorkLocal[0], bit_index_work_offset=3*, condition_work_offset=1*)
440: 0x0E13 [0x02] IF !(ExtData[1]->WorkLocal[1] == 2*) GOTO 0x0E20
441: 0x0E1B [0x03] ExtData[1]->WorkLocal[1] = 3*
442: 0x0E20 [0x01] GOTO 0x14A3
443: 0x0E23 [0x02] IF !(Work_Zone[0] == 3*) GOTO 0x0FE7
444: 0x0E2B [0x45] LOAD_SCHEDULED_TASK: Load scheduler "s070" with entities [EventEntity, EventEntity], work=[251*, 0*]
445: 0x0E3C [0x1C] WAIT(60* ticks)
446: 0x0E3F [0x2B] Zonpa-Zippa (ID: 17404397/0x010991ED) [7393*]:
    → "......"
447: 0x0E46 [0x23] WAIT_FOR_DIALOG_INTERACTION
448: 0x0E47 [0x2B] Zonpa-Zippa (ID: 17404397/0x010991ED) [7394*]:
    → "Right, then. I'm only going to say this once, so make sure that melon you have on your shoulders is switched on."
449: 0x0E4E [0x23] WAIT_FOR_DIALOG_INTERACTION
450: 0x0E4F [0x52] END_LOAD_SCHEDULER: End scheduler "s070" with entities [EventEntity, EventEntity], work=251*
451: 0x0E5E [0x45] LOAD_SCHEDULED_TASK: Load scheduler "s069" with entities [EventEntity, EventEntity], work=[251*, 0*]
452: 0x0E6F [0x29] REQ_SET_WAIT(priority=0x08, entity_id=Zonpa-Zippa (ID: 17404397/0x010991ED), tag_num=0x03)
453: 0x0E76 [0x2B] Zonpa-Zippa (ID: 17404397/0x010991ED) [7395*]:
    → "There is an unbreakable law that accompanies the art of imbuing an inanimate object with life and will--the death of the creator will result in the loss of the objects' animating force."
454: 0x0E7D [0x23] WAIT_FOR_DIALOG_INTERACTION
455: 0x0E7E [0x29] REQ_SET_WAIT(priority=0x08, entity_id=Zonpa-Zippa (ID: 17404397/0x010991ED), tag_num=0x04)
456: 0x0E85 [0x2B] Zonpa-Zippa (ID: 17404397/0x010991ED) [7396*]:
    → "And in accordance with that law..."
457: 0x0E8C [0x23] WAIT_FOR_DIALOG_INTERACTION
458: 0x0E8D [0x52] END_LOAD_SCHEDULER: End scheduler "s069" with entities [EventEntity, EventEntity], work=251*
459: 0x0E9C [0x27] REQ_SET(priority=0x0B, entity_id=LocalPlayer, tag_num=0x0E)
460: 0x0EA3 [0x4B] UPDATE_ENTITY_YAW(entity=Zonpa-Zippa (ID: 17404397/0x010991ED), yaw=12.1°*)
461: 0x0EAA [0x6F] WAIT_FRAME_DELAY: Yield until WaitTime reaches zero
462: 0x0EAB [0x76] CHECK_ENTITY_RENDER_FLAGS: Wait until Zonpa-Zippa (ID: 17404397/0x010991ED) Render.Flags0 and Render.Flags3 conditions are met
463: 0x0EB0 [0x2B] Zonpa-Zippa (ID: 17404397/0x010991ED) [7397*]:
    → "The deceased object must never be brought back to life. This act will call back the creator from Death's dark hall."
464: 0x0EB7 [0x23] WAIT_FOR_DIALOG_INTERACTION
465: 0x0EB8 [0x2A] GET_REQ_LEVEL(level=11, entity_id=LocalPlayer)
466: 0x0EBE [0x52] END_LOAD_SCHEDULER: End scheduler "s080" with entities [EventEntity, EventEntity], work=251*
467: 0x0ECD [0x2B] Zonpa-Zippa (ID: 17404397/0x010991ED) [7398*]:
    → "The conclusion is obvious, isn't it?"
468: 0x0ED4 [0x23] WAIT_FOR_DIALOG_INTERACTION
469: 0x0ED5 [0x4A] Zonpa-Zippa (ID: 17404397/0x010991ED) looks at LocalPlayer
470: 0x0EDE [0x6F] WAIT_FRAME_DELAY: Yield until WaitTime reaches zero
471: 0x0EDF [0x76] CHECK_ENTITY_RENDER_FLAGS: Wait until Zonpa-Zippa (ID: 17404397/0x010991ED) Render.Flags0 and Render.Flags3 conditions are met
472: 0x0EE4 [0x45] LOAD_SCHEDULED_TASK: Load scheduler "s066" with entities [EventEntity, EventEntity], work=[251*, 0*]
473: 0x0EF5 [0x45] LOAD_SCHEDULED_TASK: Load scheduler "fdi1" with entities [EventEntity, EventEntity], work=[200*, 0*]
474: 0x0F06 [0x29] REQ_SET_WAIT(priority=0x08, entity_id=Zonpa-Zippa (ID: 17404397/0x010991ED), tag_num=0x07)
475: 0x0F0D [0x2B] Zonpa-Zippa (ID: 17404397/0x010991ED) [7399*]:
    → "When Joker was resurrectarued, Karaha-Baruha was also dragged back into the world of the living."
476: 0x0F14 [0x23] WAIT_FOR_DIALOG_INTERACTION
477: 0x0F15 [0x45] LOAD_SCHEDULED_TASK: Load scheduler "fdo1" with entities [EventEntity, EventEntity], work=[200*, 0*]
478: 0x0F26 [0x1C] WAIT(60* ticks)
479: 0x0F29 [0x29] REQ_SET_WAIT(priority=0x08, entity_id=Zonpa-Zippa (ID: 17404397/0x010991ED), tag_num=0x08)
480: 0x0F30 [0x02] IF !(Work_Zone[9] == 3*) GOTO 0x0F4C
481: 0x0F38 [0x45] LOAD_SCHEDULED_TASK: Load scheduler "s101" with entities [EventEntity, EventEntity], work=[251*, 0*]
482: 0x0F49 [0x01] GOTO 0x0F79
483: 0x0F4C [0x02] IF !(Work_Zone[9] == 8*) GOTO 0x0F68
484: 0x0F54 [0x45] LOAD_SCHEDULED_TASK: Load scheduler "s101" with entities [EventEntity, EventEntity], work=[251*, 0*]
485: 0x0F65 [0x01] GOTO 0x0F79
486: 0x0F68 [0x45] LOAD_SCHEDULED_TASK: Load scheduler "s072" with entities [EventEntity, EventEntity], work=[251*, 0*]

SUBROUTINE_0F79:
487: 0x0F79 [0x1C] WAIT(10* ticks)
488: 0x0F7C [0x02] IF !(Work_Zone[9] == 3*) GOTO 0x0F96
489: 0x0F84 [0x52] END_LOAD_SCHEDULER: End scheduler "s101" with entities [EventEntity, EventEntity], work=251*
490: 0x0F93 [0x01] GOTO 0x0FBF
491: 0x0F96 [0x02] IF !(Work_Zone[9] == 8*) GOTO 0x0FB0
492: 0x0F9E [0x52] END_LOAD_SCHEDULER: End scheduler "s101" with entities [EventEntity, EventEntity], work=251*
493: 0x0FAD [0x01] GOTO 0x0FBF
494: 0x0FB0 [0x52] END_LOAD_SCHEDULER: End scheduler "s072" with entities [EventEntity, EventEntity], work=251*

SUBROUTINE_0FBF:
495: 0x0FBF [0x45] LOAD_SCHEDULED_TASK: Load scheduler "fdi1" with entities [EventEntity, EventEntity], work=[200*, 0*]
496: 0x0FD0 [0x3D] CLEAR_BIT_FLAG_CONDITIONAL(target_work_offset=ExtData[1]->WorkLocal[0], bit_index_work_offset=4*, condition_work_offset=1*)
497: 0x0FD7 [0x02] IF !(ExtData[1]->WorkLocal[1] == 3*) GOTO 0x0FE4
498: 0x0FDF [0x03] ExtData[1]->WorkLocal[1] = 4*
499: 0x0FE4 [0x01] GOTO 0x14A3
500: 0x0FE7 [0x02] IF !(Work_Zone[0] == 4*) GOTO 0x1255
501: 0x0FEF [0x45] LOAD_SCHEDULED_TASK: Load scheduler "s067" with entities [EventEntity, EventEntity], work=[251*, 0*]
502: 0x1000 [0x27] REQ_SET(priority=0x0B, entity_id=Zonpa-Zippa (ID: 17404397/0x010991ED), tag_num=0x14)
503: 0x1007 [0x2B] Zonpa-Zippa (ID: 17404397/0x010991ED) [7400*]:
    → "Hrmm. In layman's terms, the forbidden ritual of the Manustery is referred to as the "Legend of the Magic Doll." The long-ago tale of a mage plunging Windurst into catastra-disastrophe by using the ritual is still famous today."
504: 0x100E [0x23] WAIT_FOR_DIALOG_INTERACTION
505: 0x100F [0x2A] GET_REQ_LEVEL(level=11, entity_id=Zonpa-Zippa (ID: 17404397/0x010991ED))
506: 0x1015 [0x29] REQ_SET_WAIT(priority=0x08, entity_id=Zonpa-Zippa (ID: 17404397/0x010991ED), tag_num=0x07)
507: 0x101C [0x2B] Zonpa-Zippa (ID: 17404397/0x010991ED) [7401*]:
    → "However, this now-forbidden practice was a marvelous magic originally inventarued for the protection of Windurst. The tale I just mentioned was simply an example of abusing the power the ritual brings."
508: 0x1023 [0x23] WAIT_FOR_DIALOG_INTERACTION
509: 0x1024 [0x29] REQ_SET_WAIT(priority=0x08, entity_id=Zonpa-Zippa (ID: 17404397/0x010991ED), tag_num=0x08)
510: 0x102B [0x52] END_LOAD_SCHEDULER: End scheduler "s067" with entities [EventEntity, EventEntity], work=251*
511: 0x103A [0x45] LOAD_SCHEDULED_TASK: Load scheduler "s066" with entities [EventEntity, EventEntity], work=[251*, 0*]
512: 0x104B [0x27] REQ_SET(priority=0x0B, entity_id=Zonpa-Zippa (ID: 17404397/0x010991ED), tag_num=0x19)
513: 0x1052 [0x2B] Zonpa-Zippa (ID: 17404397/0x010991ED) [7402*]:
    → "There is still the story of how the original weaver of this art returned from the dead to defend Windurst after his magic doll was resurrected..."
514: 0x1059 [0x23] WAIT_FOR_DIALOG_INTERACTION
515: 0x105A [0x2A] GET_REQ_LEVEL(level=11, entity_id=Zonpa-Zippa (ID: 17404397/0x010991ED))
516: 0x1060 [0x29] REQ_SET_WAIT(priority=0x08, entity_id=Zonpa-Zippa (ID: 17404397/0x010991ED), tag_num=0x03)
517: 0x1067 [0x2B] Zonpa-Zippa (ID: 17404397/0x010991ED) [7403*]:
    → "Of course, this magic is not a recipe for immortality. It relies on the principle of calling on the lifeforce that lies dormantaru in the doll after the creator has died."
518: 0x106E [0x23] WAIT_FOR_DIALOG_INTERACTION
519: 0x106F [0x29] REQ_SET_WAIT(priority=0x08, entity_id=Zonpa-Zippa (ID: 17404397/0x010991ED), tag_num=0x04)
520: 0x1076 [0x52] END_LOAD_SCHEDULER: End scheduler "s066" with entities [EventEntity, EventEntity], work=251*
521: 0x1085 [0x45] LOAD_SCHEDULED_TASK: Load scheduler "s074" with entities [EventEntity, EventEntity], work=[251*, 0*]
522: 0x1096 [0x2B] Zonpa-Zippa (ID: 17404397/0x010991ED) [7404*]:
    → "To sum things up, this ritual requires the mage to store a portion-wortion of his life into the doll while he is still alive... Do you understand?"
523: 0x109D [0x23] WAIT_FOR_DIALOG_INTERACTION
524: 0x109E [0x45] LOAD_SCHEDULED_TASK: Load scheduler "fdo1" with entities [EventEntity, EventEntity], work=[200*, 0*]
525: 0x10AF [0x1C] WAIT(60* ticks)
526: 0x10B2 [0x29] REQ_SET_WAIT(priority=0x08, entity_id=Zonpa-Zippa (ID: 17404397/0x010991ED), tag_num=0x09)
527: 0x10B9 [0x2B] Zonpa-Zippa (ID: 17404397/0x010991ED) [7405*]:
    → "Hmm? And then, you ask...?"
528: 0x10C0 [0x23] WAIT_FOR_DIALOG_INTERACTION
529: 0x10C1 [0x29] REQ_SET_WAIT(priority=0x08, entity_id=Zonpa-Zippa (ID: 17404397/0x010991ED), tag_num=0x0A)
530: 0x10C8 [0x52] END_LOAD_SCHEDULER: End scheduler "s074" with entities [EventEntity, EventEntity], work=251*
531: 0x10D7 [0x45] LOAD_SCHEDULED_TASK: Load scheduler "fdi1" with entities [EventEntity, EventEntity], work=[200*, 0*]
532: 0x10E8 [0x02] IF !(Work_Zone[9] == 3*) GOTO 0x1104
533: 0x10F0 [0x45] LOAD_SCHEDULED_TASK: Load scheduler "s102" with entities [EventEntity, EventEntity], work=[251*, 0*]
534: 0x1101 [0x01] GOTO 0x1131
535: 0x1104 [0x02] IF !(Work_Zone[9] == 8*) GOTO 0x1120
536: 0x110C [0x45] LOAD_SCHEDULED_TASK: Load scheduler "s102" with entities [EventEntity, EventEntity], work=[251*, 0*]
537: 0x111D [0x01] GOTO 0x1131
538: 0x1120 [0x45] LOAD_SCHEDULED_TASK: Load scheduler "s065" with entities [EventEntity, EventEntity], work=[251*, 0*]

SUBROUTINE_1131:
539: 0x1131 [0x29] REQ_SET_WAIT(priority=0x08, entity_id=Zonpa-Zippa (ID: 17404397/0x010991ED), tag_num=0x0B)
540: 0x1138 [0x2B] Zonpa-Zippa (ID: 17404397/0x010991ED) [7406*]:
    → "... This is not a subject for idle-widle adventurers' ears. Apururu should already be well-versed on the practice."
541: 0x113F [0x23] WAIT_FOR_DIALOG_INTERACTION
542: 0x1140 [0x29] REQ_SET_WAIT(priority=0x08, entity_id=Zonpa-Zippa (ID: 17404397/0x010991ED), tag_num=0x0C)
543: 0x1147 [0x45] LOAD_SCHEDULED_TASK: Load scheduler "fdo1" with entities [EventEntity, EventEntity], work=[200*, 0*]
544: 0x1158 [0x1C] WAIT(60* ticks)
545: 0x115B [0x02] IF !(Work_Zone[9] == 3*) GOTO 0x1175
546: 0x1163 [0x52] END_LOAD_SCHEDULER: End scheduler "s102" with entities [EventEntity, EventEntity], work=251*
547: 0x1172 [0x01] GOTO 0x119E
548: 0x1175 [0x02] IF !(Work_Zone[9] == 8*) GOTO 0x118F
549: 0x117D [0x52] END_LOAD_SCHEDULER: End scheduler "s102" with entities [EventEntity, EventEntity], work=251*
550: 0x118C [0x01] GOTO 0x119E
551: 0x118F [0x52] END_LOAD_SCHEDULER: End scheduler "s065" with entities [EventEntity, EventEntity], work=251*

SUBROUTINE_119E:
552: 0x119E [0x02] IF !(Work_Zone[9] == 3*) GOTO 0x11BA
553: 0x11A6 [0x45] LOAD_SCHEDULED_TASK: Load scheduler "s101" with entities [EventEntity, EventEntity], work=[251*, 0*]
554: 0x11B7 [0x01] GOTO 0x11E7
555: 0x11BA [0x02] IF !(Work_Zone[9] == 8*) GOTO 0x11D6
556: 0x11C2 [0x45] LOAD_SCHEDULED_TASK: Load scheduler "s101" with entities [EventEntity, EventEntity], work=[251*, 0*]
557: 0x11D3 [0x01] GOTO 0x11E7
558: 0x11D6 [0x45] LOAD_SCHEDULED_TASK: Load scheduler "s072" with entities [EventEntity, EventEntity], work=[251*, 0*]

SUBROUTINE_11E7:
559: 0x11E7 [0x1C] WAIT(10* ticks)
560: 0x11EA [0x02] IF !(Work_Zone[9] == 3*) GOTO 0x1204
561: 0x11F2 [0x52] END_LOAD_SCHEDULER: End scheduler "s101" with entities [EventEntity, EventEntity], work=251*
562: 0x1201 [0x01] GOTO 0x122D
563: 0x1204 [0x02] IF !(Work_Zone[9] == 8*) GOTO 0x121E
564: 0x120C [0x52] END_LOAD_SCHEDULER: End scheduler "s101" with entities [EventEntity, EventEntity], work=251*
565: 0x121B [0x01] GOTO 0x122D
566: 0x121E [0x52] END_LOAD_SCHEDULER: End scheduler "s072" with entities [EventEntity, EventEntity], work=251*

SUBROUTINE_122D:
567: 0x122D [0x45] LOAD_SCHEDULED_TASK: Load scheduler "fdi1" with entities [EventEntity, EventEntity], work=[200*, 0*]
568: 0x123E [0x3D] CLEAR_BIT_FLAG_CONDITIONAL(target_work_offset=ExtData[1]->WorkLocal[0], bit_index_work_offset=5*, condition_work_offset=1*)
569: 0x1245 [0x02] IF !(ExtData[1]->WorkLocal[1] == 4*) GOTO 0x1252
570: 0x124D [0x03] ExtData[1]->WorkLocal[1] = 5*
571: 0x1252 [0x01] GOTO 0x14A3
572: 0x1255 [0x02] IF !(Work_Zone[0] == 5*) GOTO 0x1493
573: 0x125D [0x02] IF !(Work_Zone[9] == 3*) GOTO 0x1279
574: 0x1265 [0x45] LOAD_SCHEDULED_TASK: Load scheduler "s104" with entities [EventEntity, EventEntity], work=[251*, 0*]
575: 0x1276 [0x01] GOTO 0x12A6
576: 0x1279 [0x02] IF !(Work_Zone[9] == 8*) GOTO 0x1295
577: 0x1281 [0x45] LOAD_SCHEDULED_TASK: Load scheduler "s104" with entities [EventEntity, EventEntity], work=[251*, 0*]
578: 0x1292 [0x01] GOTO 0x12A6
579: 0x1295 [0x45] LOAD_SCHEDULED_TASK: Load scheduler "s081" with entities [EventEntity, EventEntity], work=[251*, 0*]

SUBROUTINE_12A6:
580: 0x12A6 [0x29] REQ_SET_WAIT(priority=0x08, entity_id=Zonpa-Zippa (ID: 17404397/0x010991ED), tag_num=0x07)
581: 0x12AD [0x2B] Zonpa-Zippa (ID: 17404397/0x010991ED) [7407*]:
    → "My children hate me, the celebrated Zonpa-Zippa? What are you talking aboutaru?"
582: 0x12B4 [0x23] WAIT_FOR_DIALOG_INTERACTION
583: 0x12B5 [0x29] REQ_SET_WAIT(priority=0x08, entity_id=Zonpa-Zippa (ID: 17404397/0x010991ED), tag_num=0x07)
584: 0x12BC [0x29] REQ_SET_WAIT(priority=0x08, entity_id=Zonpa-Zippa (ID: 17404397/0x010991ED), tag_num=0x03)
585: 0x12C3 [0x2B] Zonpa-Zippa (ID: 17404397/0x010991ED) [7408*]:
    → "Ajido-Marujido and Apururu have absolutaruly no reason to hate me."
586: 0x12CA [0x23] WAIT_FOR_DIALOG_INTERACTION
587: 0x12CB [0x29] REQ_SET_WAIT(priority=0x08, entity_id=Zonpa-Zippa (ID: 17404397/0x010991ED), tag_num=0x04)
588: 0x12D2 [0x02] IF !(Work_Zone[9] == 3*) GOTO 0x12EC
589: 0x12DA [0x52] END_LOAD_SCHEDULER: End scheduler "s104" with entities [EventEntity, EventEntity], work=251*
590: 0x12E9 [0x01] GOTO 0x1315
591: 0x12EC [0x02] IF !(Work_Zone[9] == 8*) GOTO 0x1306
592: 0x12F4 [0x52] END_LOAD_SCHEDULER: End scheduler "s104" with entities [EventEntity, EventEntity], work=251*
593: 0x1303 [0x01] GOTO 0x1315
594: 0x1306 [0x52] END_LOAD_SCHEDULER: End scheduler "s081" with entities [EventEntity, EventEntity], work=251*

SUBROUTINE_1315:
595: 0x1315 [0x45] LOAD_SCHEDULED_TASK: Load scheduler "ovl1" with entities [LocalPlayer, LocalPlayer], work=[200*, 0*]
596: 0x1326 [0x02] IF !(Work_Zone[9] == 3*) GOTO 0x1342
597: 0x132E [0x45] LOAD_SCHEDULED_TASK: Load scheduler "s066" with entities [EventEntity, EventEntity], work=[251*, 0*]
598: 0x133F [0x01] GOTO 0x136F
599: 0x1342 [0x02] IF !(Work_Zone[9] == 8*) GOTO 0x135E
600: 0x134A [0x45] LOAD_SCHEDULED_TASK: Load scheduler "s066" with entities [EventEntity, EventEntity], work=[251*, 0*]
601: 0x135B [0x01] GOTO 0x136F
602: 0x135E [0x45] LOAD_SCHEDULED_TASK: Load scheduler "s082" with entities [EventEntity, EventEntity], work=[251*, 0*]

SUBROUTINE_136F:
603: 0x136F [0x29] REQ_SET_WAIT(priority=0x08, entity_id=Zonpa-Zippa (ID: 17404397/0x010991ED), tag_num=0x01)
604: 0x1376 [0x2B] Zonpa-Zippa (ID: 17404397/0x010991ED) [7409*]:
    → "How could they possibly despise a brilliantaru father who saved their fair country from disaster? Ahahaha!"
605: 0x137D [0x23] WAIT_FOR_DIALOG_INTERACTION
606: 0x137E [0x29] REQ_SET_WAIT(priority=0x08, entity_id=Zonpa-Zippa (ID: 17404397/0x010991ED), tag_num=0x02)
607: 0x1385 [0x45] LOAD_SCHEDULED_TASK: Load scheduler "fdo1" with entities [EventEntity, EventEntity], work=[200*, 0*]
608: 0x1396 [0x1C] WAIT(60* ticks)
609: 0x1399 [0x02] IF !(Work_Zone[9] == 3*) GOTO 0x13B3
610: 0x13A1 [0x52] END_LOAD_SCHEDULER: End scheduler "s066" with entities [EventEntity, EventEntity], work=251*
611: 0x13B0 [0x01] GOTO 0x13DC
612: 0x13B3 [0x02] IF !(Work_Zone[9] == 8*) GOTO 0x13CD
613: 0x13BB [0x52] END_LOAD_SCHEDULER: End scheduler "s066" with entities [EventEntity, EventEntity], work=251*
614: 0x13CA [0x01] GOTO 0x13DC
615: 0x13CD [0x52] END_LOAD_SCHEDULER: End scheduler "s082" with entities [EventEntity, EventEntity], work=251*

SUBROUTINE_13DC:
616: 0x13DC [0x02] IF !(Work_Zone[9] == 3*) GOTO 0x13F8
617: 0x13E4 [0x45] LOAD_SCHEDULED_TASK: Load scheduler "s101" with entities [EventEntity, EventEntity], work=[251*, 0*]
618: 0x13F5 [0x01] GOTO 0x1425
619: 0x13F8 [0x02] IF !(Work_Zone[9] == 8*) GOTO 0x1414
620: 0x1400 [0x45] LOAD_SCHEDULED_TASK: Load scheduler "s101" with entities [EventEntity, EventEntity], work=[251*, 0*]
621: 0x1411 [0x01] GOTO 0x1425
622: 0x1414 [0x45] LOAD_SCHEDULED_TASK: Load scheduler "s072" with entities [EventEntity, EventEntity], work=[251*, 0*]

SUBROUTINE_1425:
623: 0x1425 [0x1C] WAIT(10* ticks)
624: 0x1428 [0x02] IF !(Work_Zone[9] == 3*) GOTO 0x1442
625: 0x1430 [0x52] END_LOAD_SCHEDULER: End scheduler "s101" with entities [EventEntity, EventEntity], work=251*
626: 0x143F [0x01] GOTO 0x146B
627: 0x1442 [0x02] IF !(Work_Zone[9] == 8*) GOTO 0x145C
628: 0x144A [0x52] END_LOAD_SCHEDULER: End scheduler "s101" with entities [EventEntity, EventEntity], work=251*
629: 0x1459 [0x01] GOTO 0x146B
630: 0x145C [0x52] END_LOAD_SCHEDULER: End scheduler "s072" with entities [EventEntity, EventEntity], work=251*

SUBROUTINE_146B:
631: 0x146B [0x45] LOAD_SCHEDULED_TASK: Load scheduler "fdi1" with entities [EventEntity, EventEntity], work=[200*, 0*]
632: 0x147C [0x3D] CLEAR_BIT_FLAG_CONDITIONAL(target_work_offset=ExtData[1]->WorkLocal[0], bit_index_work_offset=6*, condition_work_offset=1*)
633: 0x1483 [0x02] IF !(ExtData[1]->WorkLocal[1] == 5*) GOTO 0x1490
634: 0x148B [0x03] ExtData[1]->WorkLocal[1] = 6*
635: 0x1490 [0x01] GOTO 0x14A3
636: 0x1493 [0x02] IF !(Work_Zone[0] == 6*) GOTO 0x14A3
637: 0x149B [0x03] ExtData[1]->WorkLocal[2] = 1*
638: 0x14A0 [0x01] GOTO 0x14A3

SUBROUTINE_14A3:
639: 0x14A3 [0x01] GOTO 0x0529
640: 0x14A6 [0x45] LOAD_SCHEDULED_TASK: Load scheduler "s074" with entities [EventEntity, EventEntity], work=[251*, 0*]
641: 0x14B7 [0x92] Zonpa-Zippa (ID: 17404397/0x010991ED)->Render.Flags3 ^= 0x01
642: 0x14BD [0x27] REQ_SET(priority=0x0B, entity_id=Zonpa-Zippa (ID: 17404397/0x010991ED), tag_num=0x1A)
643: 0x14C4 [0x2B] Zonpa-Zippa (ID: 17404397/0x010991ED) [7410*]:
    → "Just a momentaru. This may have been a bit much for you to absorb, so let me write it in a letter for you to give to Apururu."
644: 0x14CB [0x23] WAIT_FOR_DIALOG_INTERACTION
645: 0x14CC [0x2A] GET_REQ_LEVEL(level=11, entity_id=Zonpa-Zippa (ID: 17404397/0x010991ED))
646: 0x14D2 [0x52] END_LOAD_SCHEDULER: End scheduler "s074" with entities [EventEntity, EventEntity], work=251*
647: 0x14E1 [0x92] Zonpa-Zippa (ID: 17404397/0x010991ED)->Render.Flags3 = Flags3  // No change (flag=0)
648: 0x14E7 [0x02] IF !(Work_Zone[9] == 3*) GOTO 0x1503
649: 0x14EF [0x45] LOAD_SCHEDULED_TASK: Load scheduler "s102" with entities [EventEntity, EventEntity], work=[251*, 0*]
650: 0x1500 [0x01] GOTO 0x1530
651: 0x1503 [0x02] IF !(Work_Zone[9] == 8*) GOTO 0x151F
652: 0x150B [0x45] LOAD_SCHEDULED_TASK: Load scheduler "s102" with entities [EventEntity, EventEntity], work=[251*, 0*]
653: 0x151C [0x01] GOTO 0x1530
654: 0x151F [0x45] LOAD_SCHEDULED_TASK: Load scheduler "s065" with entities [EventEntity, EventEntity], work=[251*, 0*]

SUBROUTINE_1530:
655: 0x1530 [0x2B] Zonpa-Zippa (ID: 17404397/0x010991ED) [7411*]:
    → "Give my regards to my children. Tell them this: If there ever comes a time when they need my help, don'taru hesitate to ask."
656: 0x1537 [0x23] WAIT_FOR_DIALOG_INTERACTION
657: 0x1538 [0x5D] SET_MUSIC_VOLUME(volume=0*, fade_time=200*)
658: 0x153D [0x45] LOAD_SCHEDULED_TASK: Load scheduler "fdo1" with entities [EventEntity, EventEntity], work=[200*, 0*]
659: 0x154E [0x1C] WAIT(200* ticks)
660: 0x1551 [0x5C] MUSIC_CONTROL: Set Idle (Day) music to song 0*
661: 0x1555 [0x5C] MUSIC_CONTROL: Set Idle (Night) music to song 0*
662: 0x1559 [0x02] IF !(Work_Zone[9] == 3*) GOTO 0x1573
663: 0x1561 [0x52] END_LOAD_SCHEDULER: End scheduler "s102" with entities [EventEntity, EventEntity], work=251*
664: 0x1570 [0x01] GOTO 0x159C
665: 0x1573 [0x02] IF !(Work_Zone[9] == 8*) GOTO 0x158D
666: 0x157B [0x52] END_LOAD_SCHEDULER: End scheduler "s102" with entities [EventEntity, EventEntity], work=251*
667: 0x158A [0x01] GOTO 0x159C
668: 0x158D [0x52] END_LOAD_SCHEDULER: End scheduler "s065" with entities [EventEntity, EventEntity], work=251*

SUBROUTINE_159C:
669: 0x159C [0x46] CAMERA_CONTROL: Restore default settings
670: 0x159E [0x45] LOAD_SCHEDULED_TASK: Load scheduler "fdi1" with entities [EventEntity, EventEntity], work=[200*, 0*]
671: 0x15AF [0x20] SET_CLI_EVENT_UC_FLAG: Unlock player control
672: 0x15B1 [0x21] END_EVENT
673: 0x15B2 [0x00] END_REQSTACK()
```

### Event 27

#### Metadata

| Field        | Value   |
|--------------|---------|
| Entrypoint   | 0x15B3  |
| Data Size    | 1 bytes |
| Instructions | 1       |

```
      00 01 02 03 04 05 06 07  08 09 0A 0B 0C 0D 0E 0F
      -- -- -- -- -- -- -- --  -- -- -- -- -- -- -- --
15B0:          00                                          .            
```

#### Opcodes

```
  0: 0x15B3 [0x00] END_REQSTACK()
```

### Event 28

#### Metadata

| Field        | Value   |
|--------------|---------|
| Entrypoint   | 0x15B4  |
| Data Size    | 1 bytes |
| Instructions | 1       |

```
      00 01 02 03 04 05 06 07  08 09 0A 0B 0C 0D 0E 0F
      -- -- -- -- -- -- -- --  -- -- -- -- -- -- -- --
15B0:             00                                        .           
```

#### Opcodes

```
  0: 0x15B4 [0x00] END_REQSTACK()
```

### Event 65535.1

#### Metadata

| Field        | Value    |
|--------------|----------|
| Entrypoint   | 0x15B5   |
| Data Size    | 22 bytes |
| Instructions | 8        |

```
      00 01 02 03 04 05 06 07  08 09 0A 0B 0C 0D 0E 0F
      -- -- -- -- -- -- -- --  -- -- -- -- -- -- -- --
15B0:                32 59 80  1F 00 5A 80 5B 80 5C 80       2Y...Z.[.\.
15C0: 1F 01 6F 1E F0 FF FF 7F  6F 70 00                 ..o.....op.     
```

#### Opcodes

```
  0: 0x15B5 [0x32] ExtData[1]->MainSpeed = 13* * 0.1
  1: 0x15B8 [0x1F] MOVE_ENTITY: EventEntity moves to X=81.654*, Z=137.956*, Y=8.440*
  2: 0x15C0 [0x1F] MOVE_ENTITY: Update entity position (mode=1)
  3: 0x15C2 [0x6F] WAIT_FRAME_DELAY: Yield until WaitTime reaches zero
  4: 0x15C3 [0x1E] EventEntity looks at LocalPlayer and starts talking
  5: 0x15C8 [0x6F] WAIT_FRAME_DELAY: Yield until WaitTime reaches zero
  6: 0x15C9 [0x70] WAIT_ENTITY_RENDER_FLAG: Wait while EventEntity->Render.Flags3 bit 2 is set (cancel turn if not)
  7: 0x15CA [0x00] END_REQSTACK()
```

### Event 65535.2

#### Metadata

| Field        | Value    |
|--------------|----------|
| Entrypoint   | 0x15CB   |
| Data Size    | 26 bytes |
| Instructions | 8        |

```
      00 01 02 03 04 05 06 07  08 09 0A 0B 0C 0D 0E 0F
      -- -- -- -- -- -- -- --  -- -- -- -- -- -- -- --
15C0:                                   32 5D 80 1F 00             2]...
