# 17404381

## Common Data

| Field            | Value                      |
|------------------|----------------------------|
| Zone             | The Boyahda Tree (ID: 153) |
| Block Size       | 104 bytes                  |
| Total Events     | 2                          |
| References Count | 6                          |

## List of Events

| Event ID              | Entrypoint   |   Size |   Instructions |
|-----------------------|--------------|--------|----------------|
| [65535](#event-65535) | 0x0000       |      1 |              1 |
| [0](#event-0)         | 0x0001       |     52 |             12 |

## DAT References (imed_data)

|   Index | Hex Value   |   Dec Value |
|---------|-------------|-------------|
|       0 | 0x1C10      |        7184 |
|       1 | 0x0000      |           0 |
|       2 | 0x0079      |         121 |
|       3 | 0x0001      |           1 |
|       4 | 0x0099      |         153 |
|       5 | 0x40000000  |  1073741824 |

## String References

- **7184**: Jump to? [Li'Telor!i121j/Boyadha Tree 2!i154j/Nowhere, man!]

## Events

### Event 65535

#### Metadata

| Field        | Value   |
|--------------|---------|
| Entrypoint   | 0x0000  |
| Data Size    | 1 bytes |
| Instructions | 1       |

```
      00 01 02 03 04 05 06 07  08 09 0A 0B 0C 0D 0E 0F
      -- -- -- -- -- -- -- --  -- -- -- -- -- -- -- --
0000: 00                                                .               
```

#### Opcodes

```
  0: 0x0000 [0x00] END_REQSTACK()
```

### Event 0

#### Metadata

| Field        | Value    |
|--------------|----------|
| Entrypoint   | 0x0001   |
| Data Size    | 52 bytes |
| Instructions | 12       |

```
      00 01 02 03 04 05 06 07  08 09 0A 0B 0C 0D 0E 0F
      -- -- -- -- -- -- -- --  -- -- -- -- -- -- -- --
0000:    1E F0 FF FF 7F 24 00  80 01 80 01 80 25 02 00   .....$......%..
0010: 10 01 80 00 1E 00 03 01  10 02 80 01 33 00 02 00  ............3...
0020: 10 03 80 00 2E 00 03 01  10 04 80 01 33 00 03 01  ............3...
0030: 10 05 80 21 00                                    ...!.           
```

#### Opcodes

```
  0: 0x0001 [0x1E] EventEntity looks at LocalPlayer and starts talking
  1: 0x0006 [0x24] CREATE_DIALOG(message_id=7184*, default_option=0*, option_flags=0*)
    → "Jump to? [Li'Telor!i121j/Boyadha Tree 2!i154j/Nowhere, man!]"
  2: 0x000D [0x25] WAIT_DIALOG_SELECT()
  3: 0x000E [0x02] IF !(Work_Zone[0] == 0*) GOTO 0x001E
  4: 0x0016 [0x03] Work_Zone[1] = 121*
  5: 0x001B [0x01] GOTO 0x0033
  6: 0x001E [0x02] IF !(Work_Zone[0] == 1*) GOTO 0x002E
  7: 0x0026 [0x03] Work_Zone[1] = 153*
  8: 0x002B [0x01] GOTO 0x0033
  9: 0x002E [0x03] Work_Zone[1] = 1073741824*

SUBROUTINE_0033:
 10: 0x0033 [0x21] END_EVENT
 11: 0x0034 [0x00] END_REQSTACK()
```
