# 17404425

## Common Data

| Field            | Value                      |
|------------------|----------------------------|
| Zone             | The Boyahda Tree (ID: 153) |
| Block Size       | 18760 bytes                |
| Total Events     | 8                          |
| References Count | 345                        |

## List of Events

| Event ID              | Entrypoint   |   Size |   Instructions |
|-----------------------|--------------|--------|----------------|
| [65535](#event-65535) | 0x0000       |    658 |             62 |
| [27](#event-27)       | 0x0292       |    159 |             32 |
| [28](#event-28)       | 0x0331       |   2351 |            300 |
| [29](#event-29)       | 0x0C60       |    175 |             35 |
| [30](#event-30)       | 0x0D0F       |   6012 |            842 |
| [31](#event-31)       | 0x248B       |    124 |             24 |
| [32](#event-32)       | 0x2507       |   7653 |           1015 |
| [33](#event-33)       | 0x42EC       |    199 |             36 |

## DAT References (imed_data)

|   Index | Hex Value   |   Dec Value |
|---------|-------------|-------------|
|       0 | 0x00C8      |         200 |
|       1 | 0x0000      |           0 |
|       2 | 0x00C9      |         201 |
|       3 | 0x0001      |           1 |
|       4 | 0x002D      |          45 |
|       5 | 0x0002      |           2 |
|       6 | 0x001E      |          30 |
|       7 | 0x00D7      |         215 |
|       8 | 0x2D0F      |       11535 |
|       9 | 0x2D10      |       11536 |
|      10 | 0x2D11      |       11537 |
|      11 | 0x2D12      |       11538 |
|      12 | 0x2D13      |       11539 |
|      13 | 0x0093      |         147 |
|      14 | 0x1403D     |       81981 |
|      15 | 0x22124     |      139556 |
|      16 | 0x2191      |        8593 |
|      17 | 0x081D      |        2077 |
|      18 | 0x1AC90     |      109712 |
|      19 | 0x22D22     |      142626 |
|      20 | 0x205A      |        8282 |
|      21 | 0x06C3      |        1731 |
|      22 | 0x13870     |       79984 |
|      23 | 0x22230     |      139824 |
|      24 | 0x230B      |        8971 |
|      25 | 0x0072      |         114 |
|      26 | 0x03A4      |         932 |
|      27 | 0x003C      |          60 |
|      28 | 0x2D16      |       11542 |
|      29 | 0x012C      |         300 |
|      30 | 0x0080      |         128 |
|      31 | 0x177F6     |       96246 |
|      32 | 0x221DB     |      139739 |
|      33 | 0x21B0      |        8624 |
|      34 | 0x0FAA      |        4010 |
|      35 | 0x0005      |           5 |
|      36 | 0x0006      |           6 |
|      37 | 0x0030      |          48 |
|      38 | 0x000A      |          10 |
|      39 | 0x0032      |          50 |
|      40 | 0x005A      |          90 |
|      41 | 0x0064      |         100 |
|      42 | 0x0007      |           7 |
|      43 | 0x2D17      |       11543 |
|      44 | 0x000B      |          11 |
|      45 | 0x0078      |         120 |
|      46 | 0x2D18      |       11544 |
|      47 | 0x0010      |          16 |
|      48 | 0x2D19      |       11545 |
|      49 | 0x2D1A      |       11546 |
|      50 | 0x0015      |          21 |
|      51 | 0x001C      |          28 |
|      52 | 0x007F      |         127 |
|      53 | 0x2D1B      |       11547 |
|      54 | 0x0014      |          20 |
|      55 | 0x2D1C      |       11548 |
|      56 | 0x0003      |           3 |
|      57 | 0x0008      |           8 |
|      58 | 0x2D1D      |       11549 |
|      59 | 0x2D1E      |       11550 |
|      60 | 0x2D1F      |       11551 |
|      61 | 0x2D20      |       11552 |
|      62 | 0x2D21      |       11553 |
|      63 | 0x000F      |          15 |
|      64 | 0x2D22      |       11554 |
|      65 | 0x2D23      |       11555 |
|      66 | 0x2D24      |       11556 |
|      67 | 0x2D25      |       11557 |
|      68 | 0x2D26      |       11558 |
|      69 | 0x182FC     |       99068 |
|      70 | 0x1DE92     |      122514 |
|      71 | 0x2164      |        8548 |
|      72 | 0x0476      |        1142 |
|      73 | 0x18E5A     |      101978 |
|      74 | 0x1DC71     |      121969 |
|      75 | 0x20B1      |        8369 |
|      76 | 0x047D      |        1149 |
|      77 | 0x19640     |      104000 |
|      78 | 0x21340     |      136000 |
|      79 | 0x2169      |        8553 |
|      80 | 0x0800      |        2048 |
|      81 | 0x19258     |      103000 |
|      82 | 0x21EF8     |      139000 |
|      83 | 0x21B10     |      138000 |
|      84 | 0x21728     |      137000 |
|      85 | 0x18E70     |      102000 |
|      86 | 0x18A88     |      101000 |
|      87 | 0x2D29      |       11561 |
|      88 | 0x16586     |       91526 |
|      89 | 0x226E2     |      141026 |
|      90 | 0x21CD      |        8653 |
|      91 | 0x0019      |          25 |
|      92 | 0x0028      |          40 |
|      93 | 0x2D2A      |       11562 |
|      94 | 0x2D2B      |       11563 |
|      95 | 0x2D2C      |       11564 |
|      96 | 0x0004      |           4 |
|      97 | 0x03E7      |         999 |
|      98 | 0x0044      |          68 |
|      99 | 0x2D2D      |       11565 |
|     100 | 0x17B31     |       97073 |
|     101 | 0x21648     |      136776 |
|     102 | 0x2180      |        8576 |
|     103 | 0x17AF8     |       97016 |
|     104 | 0x21D12     |      138514 |
|     105 | 0x2161      |        8545 |
|     106 | 0x050F      |        1295 |
|     107 | 0x18E80     |      102016 |
|     108 | 0x20040     |      131136 |
|     109 | 0x2142      |        8514 |
|     110 | 0x03EA      |        1002 |
|     111 | 0x1968D     |      104077 |
|     112 | 0x1F7A4     |      128932 |
|     113 | 0x2151      |        8529 |
|     114 | 0x0A01      |        2561 |
|     115 | 0x195DA     |      103898 |
|     116 | 0x20695     |      132757 |
|     117 | 0x2168      |        8552 |
|     118 | 0x08D1      |        2257 |
|     119 | 0x1A998     |      108952 |
|     120 | 0x213CF     |      136143 |
|     121 | 0x214B      |        8523 |
|     122 | 0x1A74A     |      108362 |
|     123 | 0x22289     |      139913 |
|     124 | 0x21A8      |        8616 |
|     125 | 0x08C3      |        2243 |
|     126 | 0x1A9B4     |      108980 |
|     127 | 0x22803     |      141315 |
|     128 | 0x210C      |        8460 |
|     129 | 0x19ED8     |      106200 |
|     130 | 0x2313A     |      143674 |
|     131 | 0x1F26      |        7974 |
|     132 | 0x0437      |        1079 |
|     133 | 0x19C08     |      105480 |
|     134 | 0x234DD     |      144605 |
|     135 | 0x1F02      |        7938 |
|     136 | 0x19AC9     |      105161 |
|     137 | 0x21AA1     |      137889 |
|     138 | 0x08BC      |        2236 |
|     139 | 0x196F2     |      104178 |
|     140 | 0x21372     |      136050 |
|     141 | 0x2188      |        8584 |
|     142 | 0x0F80      |        3968 |
|     143 | 0x17F12     |       98066 |
|     144 | 0x22F26     |      143142 |
|     145 | 0x216A      |        8554 |
|     146 | 0x03E9      |        1001 |
|     147 | 0x1AA7F     |      109183 |
|     148 | 0x21BFB     |      138235 |
|     149 | 0x21C4      |        8644 |
|     150 | 0x19BDF     |      105439 |
|     151 | 0x22430     |      140336 |
|     152 | 0x214D      |        8525 |
|     153 | 0x00C6      |         198 |
|     154 | 0x19703     |      104195 |
|     155 | 0x21FF3     |      139251 |
|     156 | 0x2166      |        8550 |
|     157 | 0x00AE      |         174 |
|     158 | 0x0258      |         600 |
|     159 | 0x2D2E      |       11566 |
|     160 | 0x2D2F      |       11567 |
|     161 | 0x2D30      |       11568 |
|     162 | 0x2D31      |       11569 |
|     163 | 0x2D32      |       11570 |
|     164 | 0x2D33      |       11571 |
|     165 | 0x2D34      |       11572 |
|     166 | 0x2D35      |       11573 |
|     167 | 0x2D36      |       11574 |
|     168 | 0x033E      |         830 |
|     169 | 0x2D37      |       11575 |
|     170 | 0x2D38      |       11576 |
|     171 | 0x2D39      |       11577 |
|     172 | 0x2D3A      |       11578 |
|     173 | 0x0050      |          80 |
|     174 | 0x2D3B      |       11579 |
|     175 | 0x2D3C      |       11580 |
|     176 | 0x2D3D      |       11581 |
|     177 | 0x2D3E      |       11582 |
|     178 | 0x2D3F      |       11583 |
|     179 | 0x2D40      |       11584 |
|     180 | 0x2D41      |       11585 |
|     181 | 0x2D42      |       11586 |
|     182 | 0x2D43      |       11587 |
|     183 | 0x2D44      |       11588 |
|     184 | 0x07E8      |        2024 |
|     185 | 0x2D45      |       11589 |
|     186 | 0x0234      |         564 |
|     187 | 0x2D14      |       11540 |
|     188 | 0x2D15      |       11541 |
|     189 | 0x023A      |         570 |
|     190 | 0x2D27      |       11559 |
|     191 | 0x2D28      |       11560 |
|     192 | 0x12399     |       74649 |
|     193 | 0x229C4     |      141764 |
|     194 | 0x22A3      |        8867 |
|     195 | 0x00A6      |         166 |
|     196 | 0x2290A     |      141578 |
|     197 | 0x20B7      |        8375 |
|     198 | 0x1807B     |       98427 |
|     199 | 0x2063E     |      132670 |
|     200 | 0x2172      |        8562 |
|     201 | 0x0FCE      |        4046 |
|     202 | 0x17A7E     |       96894 |
|     203 | 0x20CB5     |      134325 |
|     204 | 0x21CA      |        8650 |
|     205 | 0x1920C     |      102924 |
|     206 | 0x20451     |      132177 |
|     207 | 0x211C      |        8476 |
|     208 | 0x0429      |        1065 |
|     209 | 0x03AD      |         941 |
|     210 | 0x2D46      |       11590 |
|     211 | 0x2D47      |       11591 |
|     212 | 0x2D48      |       11592 |
|     213 | 0x2D49      |       11593 |
|     214 | 0x1937D     |      103293 |
|     215 | 0x21957     |      137559 |
|     216 | 0x217C      |        8572 |
|     217 | 0x0BAC      |        2988 |
|     218 | 0x1974E     |      104270 |
|     219 | 0x22601     |      140801 |
|     220 | 0x20FE      |        8446 |
|     221 | 0x0896      |        2198 |
|     222 | 0x187D3     |      100307 |
|     223 | 0x228CB     |      141515 |
|     224 | 0x2154      |        8532 |
|     225 | 0x0066      |         102 |
|     226 | 0x2D7E      |       11646 |
|     227 | 0x009F      |         159 |
|     228 | 0x2D4A      |       11594 |
|     229 | 0x2D4B      |       11595 |
|     230 | 0x2D4C      |       11596 |
|     231 | 0x2D4D      |       11597 |
|     232 | 0x2D4E      |       11598 |
|     233 | 0x2D4F      |       11599 |
|     234 | 0x2D50      |       11600 |
|     235 | 0x2D51      |       11601 |
|     236 | 0x0024      |          36 |
|     237 | 0x2D52      |       11602 |
|     238 | 0x2D53      |       11603 |
|     239 | 0x19690     |      104080 |
|     240 | 0x22A88     |      141960 |
|     241 | 0xFFFE0174  |  4294836596 |
|     242 | 0x22A4C     |      141900 |
|     243 | 0x00A1      |         161 |
|     244 | 0x00D5      |         213 |
|     245 | 0x00AD      |         173 |
|     246 | 0x2D54      |       11604 |
|     247 | 0x2D55      |       11605 |
|     248 | 0x1A174     |      106868 |
|     249 | 0x22775     |      141173 |
|     250 | 0xFFFE00AD  |  4294836397 |
|     251 | 0x0065      |         101 |
|     252 | 0x2D56      |       11606 |
|     253 | 0x2D57      |       11607 |
|     254 | 0x2D58      |       11608 |
|     255 | 0x2D59      |       11609 |
|     256 | 0x2D5A      |       11610 |
|     257 | 0x2D5B      |       11611 |
|     258 | 0x191D5     |      102869 |
|     259 | 0x22857     |      141399 |
|     260 | 0x20F2      |        8434 |
|     261 | 0x18DBF     |      101823 |
|     262 | 0x20D48     |      134472 |
|     263 | 0x20CC      |        8396 |
|     264 | 0x2D5C      |       11612 |
|     265 | 0x2D5D      |       11613 |
|     266 | 0x2D5E      |       11614 |
|     267 | 0x2D5F      |       11615 |
|     268 | 0x2D60      |       11616 |
|     269 | 0x2D61      |       11617 |
|     270 | 0x18B8C     |      101260 |
|     271 | 0x218EE     |      137454 |
|     272 | 0x2162      |        8546 |
|     273 | 0x041C      |        1052 |
|     274 | 0x19A18     |      104984 |
|     275 | 0x213FB     |      136187 |
|     276 | 0x216C      |        8556 |
|     277 | 0x0B8C      |        2956 |
|     278 | 0x18E46     |      101958 |
|     279 | 0x212B9     |      135865 |
|     280 | 0x2192      |        8594 |
|     281 | 0x0C50      |        3152 |
|     282 | 0x2D62      |       11618 |
|     283 | 0x0020      |          32 |
|     284 | 0x2D63      |       11619 |
|     285 | 0x2D64      |       11620 |
|     286 | 0x2D65      |       11621 |
|     287 | 0x2D66      |       11622 |
|     288 | 0x2D67      |       11623 |
|     289 | 0x2D68      |       11624 |
|     290 | 0x2D69      |       11625 |
|     291 | 0x2D6A      |       11626 |
|     292 | 0x2D6B      |       11627 |
|     293 | 0x2D6C      |       11628 |
|     294 | 0x2D6D      |       11629 |
|     295 | 0x2D6E      |       11630 |
|     296 | 0x2D6F      |       11631 |
|     297 | 0x2D70      |       11632 |
|     298 | 0x2D71      |       11633 |
|     299 | 0x2D72      |       11634 |
|     300 | 0x19432     |      103474 |
|     301 | 0x2297C     |      141692 |
|     302 | 0x2070      |        8304 |
|     303 | 0x18E2E     |      101934 |
|     304 | 0x22761     |      141153 |
|     305 | 0x2116      |        8470 |
|     306 | 0x0ECF      |        3791 |
|     307 | 0x19252     |      102994 |
|     308 | 0x1F9CF     |      129487 |
|     309 | 0x21F1      |        8689 |
|     310 | 0x0221      |         545 |
|     311 | 0x19776     |      104310 |
|     312 | 0x201B7     |      131511 |
|     313 | 0x2182      |        8578 |
|     314 | 0x19882     |      104578 |
|     315 | 0x2192C     |      137516 |
|     316 | 0x2177      |        8567 |
|     317 | 0x19B8F     |      105359 |
|     318 | 0x231FA     |      143866 |
|     319 | 0x1F3C      |        7996 |
|     320 | 0x0D4D      |        3405 |
|     321 | 0x19ADC     |      105180 |
|     322 | 0x211BD     |      135613 |
|     323 | 0x215F      |        8543 |
|     324 | 0x0C57      |        3159 |
|     325 | 0x1A49D     |      107677 |
|     326 | 0x21863     |      137315 |
|     327 | 0x216E      |        8558 |
|     328 | 0x0F24      |        3876 |
|     329 | 0x19D88     |      105864 |
|     330 | 0x2165B     |      136795 |
|     331 | 0x2150      |        8528 |
|     332 | 0x076F      |        1903 |
|     333 | 0x0046      |          70 |
|     334 | 0x2D73      |       11635 |
|     335 | 0x2D74      |       11636 |
|     336 | 0x2D75      |       11637 |
|     337 | 0x2D76      |       11638 |
|     338 | 0x2D77      |       11639 |
|     339 | 0x2D78      |       11640 |
|     340 | 0x2D79      |       11641 |
|     341 | 0x2D7A      |       11642 |
|     342 | 0x2D7B      |       11643 |
|     343 | 0x2D7C      |       11644 |
|     344 | 0x2D7D      |       11645 |

## String References

- **11536**: What do you inquire? [Do you know Magh Bihu?/Have you seen an ill-mannered citrullus?/How is Zonpa-Zippa?]
- **11537**: The warden appears to want something from you...
- **11541**: The warden appears to want something from you...
- **11543**: What will you do? [Call to him./Stare at him./Poke him.]
- **11544**: You stare at Magh Bihu.
- **11549**: How do you respond? [It's about Gloom Phantom.../It's about the Destiny Destroyers.../Chaos and the Maelstrom Mage have...]
- **11555**: What do you inquire? [Where did Magh Bihu go?/What does Magh Bihu like?/Magh Bihu was abandoned?]
- **11556**: The warden appears to want something from you... It squirms uncontrollably.
- **11557**: The warden appears to want something from you... It squirms uncontrollably.
- **11560**: The warden appears to want something from you... It squirms uncontrollably.
- **11562**: What will you do? [Call to him./Stare at him./Poke him.]
- **11563**: Which one from the top? [First./Second./Third./Fourth.]
- **11564**: Which one from the left? [First./Second./Third./Fourth.]
- **11565**: That does not appear to be Magh Bihu. Let's leave that one be.
- **11567**: How do you respond? [You're a different color./Your pattern is different./Your complexion is different.]
- **11573**: How do you respond? [You look completely different from them.]
- **11591**: What do you say? [How is Magh Bihu?/...]
- **11599**: How do you respond? [Lonely?/Your spots?/Are you really Magh Bihu?]
- **11631**: Is the kid a good talker? [Yes, it's pretty impressive./You're much better.]
- **11644**: How do you respond? [How's Magh Bihu?/...]
- **11646**: @@

## Events

### Event 65535

#### Metadata

| Field        | Value     |
|--------------|-----------|
| Entrypoint   | 0x0000    |
| Data Size    | 658 bytes |
| Instructions | 1         |

```
      00 01 02 03 04 05 06 07  08 09 0A 0B 0C 0D 0E 0F
      -- -- -- -- -- -- -- --  -- -- -- -- -- -- -- --
0000: 00 45 00 80 F0 FF FF 7F  F0 FF FF 7F 66 64 69 30  .E..........fdi0
0010: 01 80 55 00 80 F0 FF FF  7F F0 FF FF 7F 66 64 69  ..U..........fdi
0020: 30 1B 45 00 80 F0 FF FF  7F F0 FF FF 7F 66 64 6F  0.E..........fdo
0030: 30 01 80 55 00 80 F0 FF  FF 7F F0 FF FF 7F 66 64  0..U..........fd
0040: 6F 30 1B 45 00 80 F0 FF  FF 7F F0 FF FF 7F 66 64  o0.E..........fd
0050: 69 31 01 80 55 00 80 F0  FF FF 7F F0 FF FF 7F 66  i1..U..........f
0060: 64 69 31 1B 45 00 80 F0  FF FF 7F F0 FF FF 7F 66  di1.E..........f
0070: 64 6F 31 01 80 55 00 80  F0 FF FF 7F F0 FF FF 7F  do1..U..........
0080: 66 64 6F 31 1B 45 02 80  F0 FF FF 7F F0 FF FF 7F  fdo1.E..........
0090: 77 68 69 31 01 80 55 02  80 F0 FF FF 7F F0 FF FF  whi1..U.........
00A0: 7F 77 68 69 31 1B 45 02  80 F0 FF FF 7F F0 FF FF  .whi1.E.........
00B0: 7F 77 68 6F 31 01 80 55  02 80 F0 FF FF 7F F0 FF  .who1..U........
00C0: FF 7F 77 68 6F 31 1B 45  02 80 F0 FF FF 7F F0 FF  ..who1.E........
00D0: FF 7F 77 68 6F 32 01 80  55 02 80 F0 FF FF 7F F0  ..who2..U.......
00E0: FF FF 7F 77 68 6F 32 1B  45 02 80 F0 FF FF 7F F0  ...who2.E.......
00F0: FF FF 7F 77 68 6F 33 01  80 55 02 80 F0 FF FF 7F  ...who3..U......
0100: F0 FF FF 7F 77 68 6F 33  1B 62 03 80 F0 FF FF 7F  ....who3.b......
0110: F0 FF FF 7F 6D 61 69 6E  01 80 1C 04 80 45 00 80  ....main.....E..
0120: F0 FF FF 7F F0 FF FF 7F  66 64 6F 31 01 80 55 00  ........fdo1..U.
0130: 80 F0 FF FF 7F F0 FF FF  7F 66 64 6F 31 1B 45 00  .........fdo1.E.
0140: 80 F0 FF FF 7F F0 FF FF  7F 66 64 69 31 01 80 62  .........fdi1..b
0150: 05 80 F0 FF FF 7F F0 FF  FF 7F 6D 61 69 6E 01 80  ..........main..
0160: 1C 06 80 55 00 80 F0 FF  FF 7F F0 FF FF 7F 66 64  ...U..........fd
0170: 69 31 1B 45 00 80 F0 FF  FF 7F F0 FF FF 7F 62 6C  i1.E..........bl
0180: 6F 6E 01 80 45 02 80 F0  FF FF 7F F0 FF FF 7F 62  on..E..........b
0190: 6C 6F 6E 01 80 1B 45 02  80 F0 FF FF 7F F0 FF FF  lon...E.........
01A0: 7F 77 68 69 30 01 80 55  02 80 F0 FF FF 7F F0 FF  .whi0..U........
01B0: FF 7F 77 68 69 30 1B 45  02 80 F0 FF FF 7F F0 FF  ..whi0.E........
01C0: FF 7F 77 68 6F 30 01 80  55 02 80 F0 FF FF 7F F0  ..who0..U.......
01D0: FF FF 7F 77 68 6F 30 1B  45 07 80 F0 FF FF 7F F0  ...who0.E.......
01E0: FF FF 7F 65 66 6F 6E 01  80 55 07 80 F0 FF FF 7F  ...efon..U......
01F0: F0 FF FF 7F 65 66 6F 6E  1B 45 00 80 F0 FF FF 7F  ....efon.E......
0200: F0 FF FF 7F 66 64 69 73  01 80 1B 45 00 80 F0 FF  ....fdis...E....
0210: FF 7F F0 FF FF 7F 66 64  6F 73 01 80 55 00 80 F0  ......fdos..U...
0220: FF FF 7F F0 FF FF 7F 66  64 6F 73 1B 45 00 80 F0  .......fdos.E...
0230: FF FF 7F F0 FF FF 7F 66  64 69 66 01 80 1B 45 00  .......fdif...E.
0240: 80 F0 FF FF 7F F0 FF FF  7F 66 64 6F 66 01 80 55  .........fdof..U
0250: 00 80 F0 FF FF 7F F0 FF  FF 7F 66 64 6F 66 1B 45  ..........fdof.E
0260: 00 80 F0 FF FF 7F F0 FF  FF 7F 66 64 69 70 01 80  ..........fdip..
0270: 1B 45 00 80 F0 FF FF 7F  F0 FF FF 7F 66 64 6F 70  .E..........fdop
0280: 01 80 55 00 80 F0 FF FF  7F F0 FF FF 7F 66 64 6F  ..U..........fdo
0290: 70 1B                                             p.              
```

#### Opcodes

```
  0: 0x0000 [0x00] END_REQSTACK()
```

#### Data or dead code:

```
# Dead code (unreachable instructions):
     0x0001 [0x45] LOAD_SCHEDULED_TASK: Load scheduler "fdi0" with entities [LocalPlayer, LocalPlayer], work=[200*, 0*]
     0x0012 [0x55] WAIT_LOAD_SCHEDULER: Wait for scheduler "fdi0" with entities [LocalPlayer, LocalPlayer], work=200*
     0x0021 [0x1B] RETURN
     0x0022 [0x45] LOAD_SCHEDULED_TASK: Load scheduler "fdo0" with entities [LocalPlayer, LocalPlayer], work=[200*, 0*]
     0x0033 [0x55] WAIT_LOAD_SCHEDULER: Wait for scheduler "fdo0" with entities [LocalPlayer, LocalPlayer], work=200*
     0x0042 [0x1B] RETURN
     0x0043 [0x45] LOAD_SCHEDULED_TASK: Load scheduler "fdi1" with entities [LocalPlayer, LocalPlayer], work=[200*, 0*]
     0x0054 [0x55] WAIT_LOAD_SCHEDULER: Wait for scheduler "fdi1" with entities [LocalPlayer, LocalPlayer], work=200*
     0x0063 [0x1B] RETURN
     0x0064 [0x45] LOAD_SCHEDULED_TASK: Load scheduler "fdo1" with entities [LocalPlayer, LocalPlayer], work=[200*, 0*]
     0x0075 [0x55] WAIT_LOAD_SCHEDULER: Wait for scheduler "fdo1" with entities [LocalPlayer, LocalPlayer], work=200*
     0x0084 [0x1B] RETURN
     0x0085 [0x45] LOAD_SCHEDULED_TASK: Load scheduler "whi1" with entities [LocalPlayer, LocalPlayer], work=[201*, 0*]
     0x0096 [0x55] WAIT_LOAD_SCHEDULER: Wait for scheduler "whi1" with entities [LocalPlayer, LocalPlayer], work=201*
     0x00A5 [0x1B] RETURN
     0x00A6 [0x45] LOAD_SCHEDULED_TASK: Load scheduler "who1" with entities [LocalPlayer, LocalPlayer], work=[201*, 0*]
     0x00B7 [0x55] WAIT_LOAD_SCHEDULER: Wait for scheduler "who1" with entities [LocalPlayer, LocalPlayer], work=201*
     0x00C6 [0x1B] RETURN
     0x00C7 [0x45] LOAD_SCHEDULED_TASK: Load scheduler "who2" with entities [LocalPlayer, LocalPlayer], work=[201*, 0*]
     0x00D8 [0x55] WAIT_LOAD_SCHEDULER: Wait for scheduler "who2" with entities [LocalPlayer, LocalPlayer], work=201*
     0x00E7 [0x1B] RETURN
     0x00E8 [0x45] LOAD_SCHEDULED_TASK: Load scheduler "who3" with entities [LocalPlayer, LocalPlayer], work=[201*, 0*]
     0x00F9 [0x55] WAIT_LOAD_SCHEDULER: Wait for scheduler "who3" with entities [LocalPlayer, LocalPlayer], work=201*
     0x0108 [0x1B] RETURN
     0x0109 [0x62] LOAD_EVENT_SCHEDULER: Load scheduler "main" with entities [LocalPlayer, LocalPlayer], work=[1*, 0*]
     0x011A [0x1C] WAIT(45* ticks)
     0x011D [0x45] LOAD_SCHEDULED_TASK: Load scheduler "fdo1" with entities [LocalPlayer, LocalPlayer], work=[200*, 0*]
     0x012E [0x55] WAIT_LOAD_SCHEDULER: Wait for scheduler "fdo1" with entities [LocalPlayer, LocalPlayer], work=200*
     0x013D [0x1B] RETURN
     0x013E [0x45] LOAD_SCHEDULED_TASK: Load scheduler "fdi1" with entities [LocalPlayer, LocalPlayer], work=[200*, 0*]
     0x014F [0x62] LOAD_EVENT_SCHEDULER: Load scheduler "main" with entities [LocalPlayer, LocalPlayer], work=[2*, 0*]
     0x0160 [0x1C] WAIT(30* ticks)
     0x0163 [0x55] WAIT_LOAD_SCHEDULER: Wait for scheduler "fdi1" with entities [LocalPlayer, LocalPlayer], work=200*
     0x0172 [0x1B] RETURN
     0x0173 [0x45] LOAD_SCHEDULED_TASK: Load scheduler "blon" with entities [LocalPlayer, LocalPlayer], work=[200*, 0*]
     0x0184 [0x45] LOAD_SCHEDULED_TASK: Load scheduler "blon" with entities [LocalPlayer, LocalPlayer], work=[201*, 0*]
     0x0195 [0x1B] RETURN
     0x0196 [0x45] LOAD_SCHEDULED_TASK: Load scheduler "whi0" with entities [LocalPlayer, LocalPlayer], work=[201*, 0*]
     0x01A7 [0x55] WAIT_LOAD_SCHEDULER: Wait for scheduler "whi0" with entities [LocalPlayer, LocalPlayer], work=201*
     0x01B6 [0x1B] RETURN
     0x01B7 [0x45] LOAD_SCHEDULED_TASK: Load scheduler "who0" with entities [LocalPlayer, LocalPlayer], work=[201*, 0*]
     0x01C8 [0x55] WAIT_LOAD_SCHEDULER: Wait for scheduler "who0" with entities [LocalPlayer, LocalPlayer], work=201*
     0x01D7 [0x1B] RETURN
     0x01D8 [0x45] LOAD_SCHEDULED_TASK: Load scheduler "efon" with entities [LocalPlayer, LocalPlayer], work=[215*, 0*]
     0x01E9 [0x55] WAIT_LOAD_SCHEDULER: Wait for scheduler "efon" with entities [LocalPlayer, LocalPlayer], work=215*
     0x01F8 [0x1B] RETURN
     0x01F9 [0x45] LOAD_SCHEDULED_TASK: Load scheduler "fdis" with entities [LocalPlayer, LocalPlayer], work=[200*, 0*]
     0x020A [0x1B] RETURN
     0x020B [0x45] LOAD_SCHEDULED_TASK: Load scheduler "fdos" with entities [LocalPlayer, LocalPlayer], work=[200*, 0*]
     0x021C [0x55] WAIT_LOAD_SCHEDULER: Wait for scheduler "fdos" with entities [LocalPlayer, LocalPlayer], work=200*
     0x022B [0x1B] RETURN
     0x022C [0x45] LOAD_SCHEDULED_TASK: Load scheduler "fdif" with entities [LocalPlayer, LocalPlayer], work=[200*, 0*]
     0x023D [0x1B] RETURN
     0x023E [0x45] LOAD_SCHEDULED_TASK: Load scheduler "fdof" with entities [LocalPlayer, LocalPlayer], work=[200*, 0*]
     0x024F [0x55] WAIT_LOAD_SCHEDULER: Wait for scheduler "fdof" with entities [LocalPlayer, LocalPlayer], work=200*
     0x025E [0x1B] RETURN
     0x025F [0x45] LOAD_SCHEDULED_TASK: Load scheduler "fdip" with entities [LocalPlayer, LocalPlayer], work=[200*, 0*]
     0x0270 [0x1B] RETURN
     0x0271 [0x45] LOAD_SCHEDULED_TASK: Load scheduler "fdop" with entities [LocalPlayer, LocalPlayer], work=[200*, 0*]
     0x0282 [0x55] WAIT_LOAD_SCHEDULER: Wait for scheduler "fdop" with entities [LocalPlayer, LocalPlayer], work=200*
     0x0291 [0x1B] RETURN
```

### Event 27

#### Metadata

| Field        | Value     |
|--------------|-----------|
| Entrypoint   | 0x0292    |
| Data Size    | 159 bytes |
| Instructions | 32        |

```
      00 01 02 03 04 05 06 07  08 09 0A 0B 0C 0D 0E 0F
      -- -- -- -- -- -- -- --  -- -- -- -- -- -- -- --
0290:       4A DE 91 09 01 F0  FF FF 7F 6F 76 DE 91 09    J........ov...
02A0: 01 2B DE 91 09 01 08 80  23 03 01 10 01 80 24 09  .+......#.....$.
02B0: 80 01 80 03 10 25 02 00  10 01 80 00 E6 02 42 03  .....%........B.
02C0: 01 10 03 80 27 10 DE 91  09 01 16 48 0A 80 29 10  ....'......H..).
02D0: DE 91 09 01 17 27 10 DE  91 09 01 0C 29 10 DE 91  .....'......)...
02E0: 09 01 0D 01 2F 03 02 00  10 03 80 00 07 03 27 10  ..../.........'.
02F0: DE 91 09 01 12 2B DE 91  09 01 0B 80 23 29 10 DE  .....+......#)..
0300: 91 09 01 13 01 2F 03 02  00 10 05 80 00 2F 03 27  ...../......./.'
0310: 10 DE 91 09 01 0E 2B DE  91 09 01 0C 80 23 29 10  ......+......#).
0320: DE 91 09 01 0F 27 10 DE  91 09 01 10 01 2F 03 21  .....'......./.!
0330: 00                                                .               
```

#### Opcodes

```
  0: 0x0292 [0x4A] Mandragora Warden (ID: 17404382/0x010991DE) looks at LocalPlayer
  1: 0x029B [0x6F] WAIT_FRAME_DELAY: Yield until WaitTime reaches zero
  2: 0x029C [0x76] CHECK_ENTITY_RENDER_FLAGS: Wait until Mandragora Warden (ID: 17404382/0x010991DE) Render.Flags0 and Render.Flags3 conditions are met
  3: 0x02A1 [0x2B] Mandragora Warden (ID: 17404382/0x010991DE) [11535*]:
    → "Pa!"
  4: 0x02A8 [0x23] WAIT_FOR_DIALOG_INTERACTION
  5: 0x02A9 [0x03] Work_Zone[1] = 0*
  6: 0x02AE [0x24] CREATE_DIALOG(message_id=11536*, default_option=0*, option_flags=Work_Zone[3])
    → "What do you inquire? [Do you know Magh Bihu?/Have you seen an ill-mannered citrullus?/How is Zonpa-Zippa?]"
  7: 0x02B5 [0x25] WAIT_DIALOG_SELECT()
  8: 0x02B6 [0x02] IF !(Work_Zone[0] == 0*) GOTO 0x02E6
  9: 0x02BE [0x42] SET_CLI_EVENT_CANCEL_DATA()
 10: 0x02BF [0x03] Work_Zone[1] = 1*
 11: 0x02C4 [0x27] REQ_SET(priority=0x10, entity_id=Mandragora Warden (ID: 17404382/0x010991DE), tag_num=0x16)
 12: 0x02CB [0x48] [System] [11537*]:
    → "The warden appears to want something from you..."
 13: 0x02CE [0x29] REQ_SET_WAIT(priority=0x10, entity_id=Mandragora Warden (ID: 17404382/0x010991DE), tag_num=0x17)
 14: 0x02D5 [0x27] REQ_SET(priority=0x10, entity_id=Mandragora Warden (ID: 17404382/0x010991DE), tag_num=0x0C)
 15: 0x02DC [0x29] REQ_SET_WAIT(priority=0x10, entity_id=Mandragora Warden (ID: 17404382/0x010991DE), tag_num=0x0D)
 16: 0x02E3 [0x01] GOTO 0x032F
 17: 0x02E6 [0x02] IF !(Work_Zone[0] == 1*) GOTO 0x0307
 18: 0x02EE [0x27] REQ_SET(priority=0x10, entity_id=Mandragora Warden (ID: 17404382/0x010991DE), tag_num=0x12)
 19: 0x02F5 [0x2B] Mandragora Warden (ID: 17404382/0x010991DE) [11538*]:
    → "Pa?"
 20: 0x02FC [0x23] WAIT_FOR_DIALOG_INTERACTION
 21: 0x02FD [0x29] REQ_SET_WAIT(priority=0x10, entity_id=Mandragora Warden (ID: 17404382/0x010991DE), tag_num=0x13)
 22: 0x0304 [0x01] GOTO 0x032F
 23: 0x0307 [0x02] IF !(Work_Zone[0] == 2*) GOTO 0x032F
 24: 0x030F [0x27] REQ_SET(priority=0x10, entity_id=Mandragora Warden (ID: 17404382/0x010991DE), tag_num=0x0E)
 25: 0x0316 [0x2B] Mandragora Warden (ID: 17404382/0x010991DE) [11539*]:
    → "Pakee, pakeee!"
 26: 0x031D [0x23] WAIT_FOR_DIALOG_INTERACTION
 27: 0x031E [0x29] REQ_SET_WAIT(priority=0x10, entity_id=Mandragora Warden (ID: 17404382/0x010991DE), tag_num=0x0F)
 28: 0x0325 [0x27] REQ_SET(priority=0x10, entity_id=Mandragora Warden (ID: 17404382/0x010991DE), tag_num=0x10)
 29: 0x032C [0x01] GOTO 0x032F

SUBROUTINE_032F:
 30: 0x032F [0x21] END_EVENT
 31: 0x0330 [0x00] END_REQSTACK()
```

### Event 28

#### Metadata

| Field        | Value      |
|--------------|------------|
| Entrypoint   | 0x0331     |
| Data Size    | 2351 bytes |
| Instructions | 300        |

```
      00 01 02 03 04 05 06 07  08 09 0A 0B 0C 0D 0E 0F
      -- -- -- -- -- -- -- --  -- -- -- -- -- -- -- --
0330:    42 1A 64 00 46 01 38  0D 80 2F 00 0D 92 09 01   B.d.F.8../.....
0340: 4E 00 0D 92 09 01 92 01  DE 91 09 01 94 01 DE 91  N...............
0350: 09 01 94 01 0D 92 09 01  94 01 F0 FF FF 7F BA DE  ................
0360: 91 09 01 0E 80 0F 80 10  80 11 80 BA 0D 92 09 01  ................
0370: 12 80 13 80 14 80 15 80  BA F0 FF FF 7F 16 80 17  ................
0380: 80 18 80 19 80 80 DE 91  09 01 80 0D 92 09 01 80  ................
0390: F0 FF FF 7F 79 00 DE 91  09 01 F0 FF FF 7F 4A F0  ....y.........J.
03A0: FF FF 7F DE 91 09 01 6F  76 F0 FF FF 7F 29 0F F0  .......ov....)..
03B0: FF FF 7F 06 6C 0D 92 09  01 01 80 03 80 45 1A 80  ....l........E..
03C0: F8 FF FF 7F F8 FF FF 7F  73 30 32 32 01 80 1A 43  ........s022...C
03D0: 00 29 0F F0 FF FF 7F 10  1C 1B 80 1C 1B 80 29 0F  .)............).
03E0: DE 91 09 01 0E 2B DE 91  09 01 1C 80 23 5D 01 80  .....+......#]..
03F0: 1D 80 7B DE 91 09 01 27  0F DE 91 09 01 05 1C 1B  ..{....'........
0400: 80 7B F0 FF FF 7F 27 0F  F0 FF FF 7F 14 1C 06 80  .{....'.........
0410: 1A 64 00 2A 0F DE 91 09  01 2A 0F F0 FF FF 7F 52  .d.*.....*.....R
0420: 1A 80 F8 FF FF 7F F8 FF  FF 7F 73 30 32 32 29 0F  ..........s022).
0430: DE 91 09 01 0F 6C 0D 92  09 01 1E 80 03 80 7B F0  .....l........{.
0440: FF FF 7F BA F0 FF FF 7F  1F 80 20 80 21 80 22 80  .......... .!.".
0450: 1C 03 80 27 0F F0 FF FF  7F 15 1C 03 80 02 09 10  ...'............
0460: 23 80 00 79 04 45 1A 80  F8 FF FF 7F F8 FF FF 7F  #..y.E..........
0470: 73 30 34 32 01 80 01 A6  04 02 09 10 24 80 00 95  s042........$...
0480: 04 45 1A 80 F8 FF FF 7F  F8 FF FF 7F 73 30 34 32  .E..........s042
0490: 01 80 01 A6 04 45 1A 80  F8 FF FF 7F F8 FF FF 7F  .....E..........
04A0: 73 30 32 33 01 80 1A 43  00 C4 02 25 80 0D 92 09  s023...C...%....
04B0: 01 0D 92 09 01 1C 26 80  1C 27 80 1C 06 80 02 09  ......&..'......
04C0: 10 23 80 00 D8 04 52 1A  80 F8 FF FF 7F F8 FF FF  .#....R.........
04D0: 7F 73 30 34 32 01 01 05  02 09 10 24 80 00 F2 04  .s042......$....
04E0: 52 1A 80 F8 FF FF 7F F8  FF FF 7F 73 30 34 32 01  R..........s042.
04F0: 01 05 52 1A 80 F8 FF FF  7F F8 FF FF 7F 73 30 32  ..R..........s02
0500: 33 45 1A 80 F8 FF FF 7F  F8 FF FF 7F 73 30 32 34  3E..........s024
0510: 01 80 79 00 F0 FF FF 7F  0D 92 09 01 1C 28 80 2A  ..y..........(.*
0520: 0F F0 FF FF 7F 27 0F F0  FF FF 7F 16 1C 05 80 52  .....'.........R
0530: 1A 80 F8 FF FF 7F F8 FF  FF 7F 73 30 32 34 45 1A  ..........s024E.
0540: 80 F8 FF FF 7F F8 FF FF  7F 73 30 32 36 01 80 1C  .........s026...
0550: 29 80 52 1A 80 F8 FF FF  7F F8 FF FF 7F 73 30 32  ).R..........s02
0560: 36 45 1A 80 F8 FF FF 7F  F8 FF FF 7F 73 30 32 35  6E..........s025
0570: 01 80 1C 29 80 1C 06 80  29 0F 0D 92 09 01 0D 52  ...)....)......R
0580: 1A 80 F8 FF FF 7F F8 FF  FF 7F 73 30 32 35 45 1A  ..........s025E.
0590: 80 F8 FF FF 7F F8 FF FF  7F 73 30 32 37 01 80 2A  .........s027..*
05A0: 0F F0 FF FF 7F 03 01 00  01 80 02 01 00 2A 80 01  .............*..
05B0: 10 07 24 2B 80 01 80 01  00 25 02 00 10 01 80 00  ..$+.....%......
05C0: 76 06 3C 01 00 01 80 03  80 52 1A 80 F8 FF FF 7F  v.<......R......
05D0: F8 FF FF 7F 73 30 32 37  02 09 10 23 80 00 F4 05  ....s027...#....
05E0: 45 1A 80 F8 FF FF 7F F8  FF FF 7F 73 30 34 33 01  E..........s043.
05F0: 80 01 21 06 02 09 10 24  80 00 10 06 45 1A 80 F8  ..!....$....E...
0600: FF FF 7F F8 FF FF 7F 73  30 34 33 01 80 01 21 06  .......s043...!.
0610: 45 1A 80 F8 FF FF 7F F8  FF FF 7F 73 30 32 39 01  E..........s029.
0620: 80 6E F0 FF FF 7F 2C 80  99 F0 FF FF 7F 1C 2D 80  .n....,.......-.
0630: 02 09 10 23 80 00 4A 06  52 1A 80 F8 FF FF 7F F8  ...#..J.R.......
0640: FF FF 7F 73 30 34 33 01  73 06 02 09 10 24 80 00  ...s043.s....$..
0650: 64 06 52 1A 80 F8 FF FF  7F F8 FF FF 7F 73 30 34  d.R..........s04
0660: 33 01 73 06 52 1A 80 F8  FF FF 7F F8 FF FF 7F 73  3.s.R..........s
0670: 30 32 39 01 0D 07 02 00  10 03 80 00 BD 06 3C 01  029...........<.
0680: 00 03 80 03 80 52 1A 80  F8 FF FF 7F F8 FF FF 7F  .....R..........
0690: 73 30 32 37 45 1A 80 F8  FF FF 7F F8 FF FF 7F 73  s027E..........s
06A0: 30 33 31 01 80 48 2E 80  1C 2D 80 52 1A 80 F8 FF  031..H...-.R....
06B0: FF 7F F8 FF FF 7F 73 30  33 31 01 0D 07 02 00 10  ......s031......
06C0: 05 80 00 0D 07 3C 01 00  05 80 03 80 52 1A 80 F8  .....<......R...
06D0: FF FF 7F F8 FF FF 7F 73  30 32 37 45 1A 80 F8 FF  .......s027E....
06E0: FF 7F F8 FF FF 7F 73 30  33 30 01 80 6E F0 FF FF  ......s030..n...
06F0: 7F 2F 80 99 F0 FF FF 7F  1C 2D 80 52 1A 80 F8 FF  ./.......-.R....
0700: FF 7F F8 FF FF 7F 73 30  33 30 01 0D 07 01 AA 05  ......s030......
0710: 52 1A 80 F8 FF FF 7F F8  FF FF 7F 73 30 32 35 45  R..........s025E
0720: 1A 80 F8 FF FF 7F F8 FF  FF 7F 73 30 33 36 01 80  ..........s036..
0730: 7C 00 0D 92 09 01 2B 0D  92 09 01 30 80 23 7C 01  |.....+....0.#|.
0740: 0D 92 09 01 29 0F 0D 92  09 01 0E 52 1A 80 F8 FF  ....)......R....
0750: FF 7F F8 FF FF 7F 73 30  33 36 45 1A 80 F8 FF FF  ......s036E.....
0760: 7F F8 FF FF 7F 38 32 39  37 01 80 45 1A 80 F8 FF  .....8297..E....
0770: FF 7F F8 FF FF 7F 73 30  32 38 01 80 29 0F 0D 92  ......s028..)...
0780: 09 01 0F 2B 0D 92 09 01  31 80 1C 06 80 6E F0 FF  ...+....1....n..
0790: FF 7F 32 80 99 F0 FF FF  7F 1C 06 80 23 29 0F 0D  ..2.........#)..
07A0: 92 09 01 10 52 1A 80 F8  FF FF 7F F8 FF FF 7F 73  ....R..........s
07B0: 30 32 38 45 1A 80 F8 FF  FF 7F F8 FF FF 7F 62 6C  028E..........bl
07C0: 6F 66 01 80 45 1A 80 F8  FF FF 7F F8 FF FF 7F 73  of..E..........s
07D0: 30 33 32 01 80 7B 0D 92  09 01 27 0F 0D 92 09 01  032..{....'.....
07E0: 19 5C 00 33 80 5C 01 33  80 9A 5D 34 80 03 80 1C  .\.3.\.3..]4....
07F0: 06 80 4A F0 FF FF 7F 0D  92 09 01 6F 76 F0 FF FF  ..J........ov...
0800: 7F 2A 0F 0D 92 09 01 4A  F0 FF FF 7F 0D 92 09 01  .*.....J........
0810: 1C 26 80 4A 0D 92 09 01  F0 FF FF 7F 6F 76 0D 92  .&.J........ov..
0820: 09 01 29 0F 0D 92 09 01  05 2B 0D 92 09 01 35 80  ..)......+....5.
0830: 1C 36 80 45 1A 80 F8 FF  FF 7F F8 FF FF 7F 30 30  .6.E..........00
0840: 31 31 01 80 23 29 0F 0D  92 09 01 06 52 1A 80 F8  11..#)......R...
0850: FF FF 7F F8 FF FF 7F 73  30 33 32 45 1A 80 F8 FF  .......s032E....
0860: FF 7F F8 FF FF 7F 73 30  33 37 01 80 6F 76 F0 FF  ......s037..ov..
0870: FF 7F 29 0F 0D 92 09 01  05 2B 0D 92 09 01 37 80  ..)......+....7.
0880: 1C 36 80 45 1A 80 F8 FF  FF 7F F8 FF FF 7F 30 30  .6.E..........00
0890: 31 31 01 80 23 52 1A 80  F8 FF FF 7F F8 FF FF 7F  11..#R..........
08A0: 73 30 33 37 02 09 10 38  80 00 C0 08 45 1A 80 F8  s037...8....E...
08B0: FF FF 7F F8 FF FF 7F 73  30 33 33 01 80 01 25 09  .......s033...%.
08C0: 02 09 10 23 80 00 DC 08  45 1A 80 F8 FF FF 7F F8  ...#....E.......
08D0: FF FF 7F 73 30 34 34 01  80 01 25 09 02 09 10 24  ...s044...%....$
08E0: 80 00 F8 08 45 1A 80 F8  FF FF 7F F8 FF FF 7F 73  ....E..........s
08F0: 30 34 34 01 80 01 25 09  02 09 10 39 80 00 14 09  044...%....9....
0900: 45 1A 80 F8 FF FF 7F F8  FF FF 7F 73 30 33 33 01  E..........s033.
0910: 80 01 25 09 45 1A 80 F8  FF FF 7F F8 FF FF 7F 73  ..%.E..........s
0920: 30 34 36 01 80 24 3A 80  01 80 01 80 25 02 00 10  046..$:.....%...
0930: 01 80 00 38 09 01 38 09  29 0F 0D 92 09 01 06 29  ...8..8.)......)
0940: 0F F0 FF FF 7F 12 1C 28  80 02 09 10 38 80 00 63  .......(....8..c
0950: 09 52 1A 80 F8 FF FF 7F  F8 FF FF 7F 73 30 33 33  .R..........s033
0960: 01 C0 09 02 09 10 23 80  00 7D 09 52 1A 80 F8 FF  ......#..}.R....
0970: FF 7F F8 FF FF 7F 73 30  34 34 01 C0 09 02 09 10  ......s044......
0980: 24 80 00 97 09 52 1A 80  F8 FF FF 7F F8 FF FF 7F  $....R..........
0990: 73 30 34 34 01 C0 09 02  09 10 39 80 00 B1 09 52  s044......9....R
09A0: 1A 80 F8 FF FF 7F F8 FF  FF 7F 73 30 33 33 01 C0  ..........s033..
09B0: 09 52 1A 80 F8 FF FF 7F  F8 FF FF 7F 73 30 34 36  .R..........s046
09C0: 45 1A 80 F8 FF FF 7F F8  FF FF 7F 38 32 39 37 01  E..........8297.
09D0: 80 45 1A 80 F8 FF FF 7F  F8 FF FF 7F 73 30 33 38  .E..........s038
09E0: 01 80 29 0F F0 FF FF 7F  13 29 0F 0D 92 09 01 0F  ..)......)......
09F0: 2B 0D 92 09 01 3B 80 1C  27 80 6E F0 FF FF 7F 32  +....;..'.n....2
0A00: 80 99 F0 FF FF 7F 1C 06  80 23 29 0F 0D 92 09 01  .........#).....
0A10: 10 52 1A 80 F8 FF FF 7F  F8 FF FF 7F 73 30 33 38  .R..........s038
0A20: 45 1A 80 F8 FF FF 7F F8  FF FF 7F 62 6C 6F 66 01  E..........blof.
0A30: 80 45 1A 80 F8 FF FF 7F  F8 FF FF 7F 73 30 33 35  .E..........s035
0A40: 01 80 7B 0D 92 09 01 29  0F 0D 92 09 01 1A 6B 64  ..{....)......kd
0A50: 66 74 30 0D 92 09 01 4A  F0 FF FF 7F 0D 92 09 01  ft0....J........
0A60: 2B 0D 92 09 01 3C 80 23  6F 76 F0 FF FF 7F 52 1A  +....<.#ov....R.
0A70: 80 F8 FF FF 7F F8 FF FF  7F 73 30 33 35 02 09 10  .........s035...
0A80: 38 80 00 99 0A 45 1A 80  F8 FF FF 7F F8 FF FF 7F  8....E..........
0A90: 73 30 33 39 01 80 01 FE  0A 02 09 10 23 80 00 B5  s039........#...
0AA0: 0A 45 1A 80 F8 FF FF 7F  F8 FF FF 7F 73 30 34 35  .E..........s045
0AB0: 01 80 01 FE 0A 02 09 10  24 80 00 D1 0A 45 1A 80  ........$....E..
0AC0: F8 FF FF 7F F8 FF FF 7F  73 30 34 35 01 80 01 FE  ........s045....
0AD0: 0A 02 09 10 39 80 00 ED  0A 45 1A 80 F8 FF FF 7F  ....9....E......
0AE0: F8 FF FF 7F 73 30 33 39  01 80 01 FE 0A 45 1A 80  ....s039.....E..
0AF0: F8 FF FF 7F F8 FF FF 7F  73 30 34 37 01 80 4A 0D  ........s047..J.
0B00: 92 09 01 F0 FF FF 7F 6F  76 0D 92 09 01 29 0F 0D  .......ov....)..
0B10: 92 09 01 01 2B 0D 92 09  01 3D 80 23 29 0F 0D 92  ....+....=.#)...
0B20: 09 01 02 29 0F 0D 92 09  01 05 5D 01 80 1D 80 2B  ...)......]....+
0B30: 0D 92 09 01 3E 80 1C 36  80 45 1A 80 F8 FF FF 7F  ....>..6.E......
0B40: F8 FF FF 7F 30 30 31 31  01 80 23 29 0F 0D 92 09  ....0011..#)....
0B50: 01 06 02 09 10 38 80 00  6C 0B 52 1A 80 F8 FF FF  .....8..l.R.....
0B60: 7F F8 FF FF 7F 73 30 33  39 01 C9 0B 02 09 10 23  .....s039......#
0B70: 80 00 86 0B 52 1A 80 F8  FF FF 7F F8 FF FF 7F 73  ....R..........s
0B80: 30 34 35 01 C9 0B 02 09  10 24 80 00 A0 0B 52 1A  045......$....R.
0B90: 80 F8 FF FF 7F F8 FF FF  7F 73 30 34 35 01 C9 0B  .........s045...
0BA0: 02 09 10 39 80 00 BA 0B  52 1A 80 F8 FF FF 7F F8  ...9....R.......
0BB0: FF FF 7F 73 30 33 39 01  C9 0B 52 1A 80 F8 FF FF  ...s039...R.....
0BC0: 7F F8 FF FF 7F 73 30 34  37 45 1A 80 F8 FF FF 7F  .....s047E......
0BD0: F8 FF FF 7F 73 30 34 30  01 80 7B 0D 92 09 01 27  ....s040..{....'
0BE0: 0F 0D 92 09 01 1B 1C 2D  80 4A F0 FF FF 7F 0D 92  .......-.J......
0BF0: 09 01 52 1A 80 F8 FF FF  7F F8 FF FF 7F 73 30 34  ..R..........s04
0C00: 30 45 1A 80 F8 FF FF 7F  F8 FF FF 7F 73 30 34 31  0E..........s041
0C10: 01 80 1C 2D 80 6F 76 F0  FF FF 7F 1A 64 00 2A 0F  ...-.ov.....d.*.
0C20: 0D 92 09 01 52 1A 80 F8  FF FF 7F F8 FF FF 7F 73  ....R..........s
0C30: 30 34 31 5C 00 01 80 5C  01 01 80 9A 5D 34 80 03  041\...\....]4..
0C40: 80 1C 3F 80 AB 11 01 80  1C 03 80 46 00 45 00 80  ..?........F.E..
0C50: F8 FF FF 7F F8 FF FF 7F  66 64 69 32 01 80 21 00  ........fdi2..!.
```

#### Opcodes

```
  0: 0x0331 [0x42] SET_CLI_EVENT_CANCEL_DATA()
  1: 0x0332 [0x1A] CALL_SUBROUTINE(address=0x0064)
  2: 0x0335 [0x46] CAMERA_CONTROL: Disable user control
  3: 0x0337 [0x38] SET_CLIENT_EVENT_MODE(mode=147*)
  4: 0x033A [0x2F] Magh Bihu (ID: 17404429/0x0109920D)->Render.Flags0 &= ~0x80000 // Bit 19
  5: 0x0340 [0x4E] SET_ENTITY_HIDE_FLAG: Show Magh Bihu (ID: 17404429/0x0109920D)
  6: 0x0346 [0x92] Mandragora Warden (ID: 17404382/0x010991DE)->Render.Flags3 ^= 0x01
  7: 0x034C [0x94] Mandragora Warden (ID: 17404382/0x010991DE)->Render.Flags3 ^= 0x01
  8: 0x0352 [0x94] Magh Bihu (ID: 17404429/0x0109920D)->Render.Flags3 ^= 0x01
  9: 0x0358 [0x94] LocalPlayer->Render.Flags3 ^= 0x01
 10: 0x035E [0xBA] SET_ENTITY_POSITION(entity_id=Mandragora Warden (ID: 17404382/0x010991DE), pos_x=81.981*, pos_z=139.556*, pos_y=8.593*, direction=182.5°*)
 11: 0x036B [0xBA] SET_ENTITY_POSITION(entity_id=Magh Bihu (ID: 17404429/0x0109920D), pos_x=109.712*, pos_z=142.626*, pos_y=8.282*, direction=152.1°*)
 12: 0x0378 [0xBA] SET_ENTITY_POSITION(entity_id=LocalPlayer, pos_x=79.984*, pos_z=139.824*, pos_y=8.971*, direction=10.0°*)
 13: 0x0385 [0x80] LOAD_WAIT(entity=Mandragora Warden (ID: 17404382/0x010991DE))
 14: 0x038A [0x80] LOAD_WAIT(entity=Magh Bihu (ID: 17404429/0x0109920D))
 15: 0x038F [0x80] LOAD_WAIT(entity=LocalPlayer)
 16: 0x0394 [0x79] Mandragora Warden (ID: 17404382/0x010991DE) looks at LocalPlayer (Basic look)
 17: 0x039E [0x4A] LocalPlayer looks at Mandragora Warden (ID: 17404382/0x010991DE)
 18: 0x03A7 [0x6F] WAIT_FRAME_DELAY: Yield until WaitTime reaches zero
 19: 0x03A8 [0x76] CHECK_ENTITY_RENDER_FLAGS: Wait until LocalPlayer Render.Flags0 and Render.Flags3 conditions are met
 20: 0x03AD [0x29] REQ_SET_WAIT(priority=0x0F, entity_id=LocalPlayer, tag_num=0x06)
 21: 0x03B4 [0x6C] FADE_ENTITY_COLOR(entity_id=Magh Bihu (ID: 17404429/0x0109920D), end_alpha=0*, fade_time=1*)
 22: 0x03BD [0x45] LOAD_SCHEDULED_TASK: Load scheduler "s022" with entities [EventEntity, EventEntity], work=[932*, 0*]
 23: 0x03CE [0x1A] CALL_SUBROUTINE(address=0x0043)
 24: 0x03D1 [0x29] REQ_SET_WAIT(priority=0x0F, entity_id=LocalPlayer, tag_num=0x10)
 25: 0x03D8 [0x1C] WAIT(60* ticks)
 26: 0x03DB [0x1C] WAIT(60* ticks)
 27: 0x03DE [0x29] REQ_SET_WAIT(priority=0x0F, entity_id=Mandragora Warden (ID: 17404382/0x010991DE), tag_num=0x0E)
 28: 0x03E5 [0x2B] Mandragora Warden (ID: 17404382/0x010991DE) [11542*]:
    → "Pa!"
 29: 0x03EC [0x23] WAIT_FOR_DIALOG_INTERACTION
 30: 0x03ED [0x5D] SET_MUSIC_VOLUME(volume=0*, fade_time=300*)
 31: 0x03F2 [0x7B] Mandragora Warden (ID: 17404382/0x010991DE) stops talking
 32: 0x03F7 [0x27] REQ_SET(priority=0x0F, entity_id=Mandragora Warden (ID: 17404382/0x010991DE), tag_num=0x05)
 33: 0x03FE [0x1C] WAIT(60* ticks)
 34: 0x0401 [0x7B] LocalPlayer stops talking
 35: 0x0406 [0x27] REQ_SET(priority=0x0F, entity_id=LocalPlayer, tag_num=0x14)
 36: 0x040D [0x1C] WAIT(30* ticks)
 37: 0x0410 [0x1A] CALL_SUBROUTINE(address=0x0064)
 38: 0x0413 [0x2A] GET_REQ_LEVEL(level=15, entity_id=Mandragora Warden (ID: 17404382/0x010991DE))
 39: 0x0419 [0x2A] GET_REQ_LEVEL(level=15, entity_id=LocalPlayer)
 40: 0x041F [0x52] END_LOAD_SCHEDULER: End scheduler "s022" with entities [EventEntity, EventEntity], work=932*
 41: 0x042E [0x29] REQ_SET_WAIT(priority=0x0F, entity_id=Mandragora Warden (ID: 17404382/0x010991DE), tag_num=0x0F)
 42: 0x0435 [0x6C] FADE_ENTITY_COLOR(entity_id=Magh Bihu (ID: 17404429/0x0109920D), end_alpha=128*, fade_time=1*)
 43: 0x043E [0x7B] LocalPlayer stops talking
 44: 0x0443 [0xBA] SET_ENTITY_POSITION(entity_id=LocalPlayer, pos_x=96.246*, pos_z=139.739*, pos_y=8.624*, direction=352.4°*)
 45: 0x0450 [0x1C] WAIT(1* ticks)
 46: 0x0453 [0x27] REQ_SET(priority=0x0F, entity_id=LocalPlayer, tag_num=0x15)
 47: 0x045A [0x1C] WAIT(1* ticks)
 48: 0x045D [0x02] IF !(Work_Zone[9] == 5*) GOTO 0x0479
 49: 0x0465 [0x45] LOAD_SCHEDULED_TASK: Load scheduler "s042" with entities [EventEntity, EventEntity], work=[932*, 0*]
 50: 0x0476 [0x01] GOTO 0x04A6
 51: 0x0479 [0x02] IF !(Work_Zone[9] == 6*) GOTO 0x0495
 52: 0x0481 [0x45] LOAD_SCHEDULED_TASK: Load scheduler "s042" with entities [EventEntity, EventEntity], work=[932*, 0*]
 53: 0x0492 [0x01] GOTO 0x04A6
 54: 0x0495 [0x45] LOAD_SCHEDULED_TASK: Load scheduler "s023" with entities [EventEntity, EventEntity], work=[932*, 0*]

SUBROUTINE_04A6:
 55: 0x04A6 [0x1A] CALL_SUBROUTINE(address=0x0043)
 56: 0x04A9 [0xC4] SCHEDULE_MAGIC_CASTING_ALT (arg=18): Magh Bihu (ID: 17404429/0x0109920D) casts magic 48* on Magh Bihu (ID: 17404429/0x0109920D)
 57: 0x04B5 [0x1C] WAIT(10* ticks)
 58: 0x04B8 [0x1C] WAIT(50* ticks)
 59: 0x04BB [0x1C] WAIT(30* ticks)
 60: 0x04BE [0x02] IF !(Work_Zone[9] == 5*) GOTO 0x04D8
 61: 0x04C6 [0x52] END_LOAD_SCHEDULER: End scheduler "s042" with entities [EventEntity, EventEntity], work=932*
 62: 0x04D5 [0x01] GOTO 0x0501
 63: 0x04D8 [0x02] IF !(Work_Zone[9] == 6*) GOTO 0x04F2
 64: 0x04E0 [0x52] END_LOAD_SCHEDULER: End scheduler "s042" with entities [EventEntity, EventEntity], work=932*
 65: 0x04EF [0x01] GOTO 0x0501
 66: 0x04F2 [0x52] END_LOAD_SCHEDULER: End scheduler "s023" with entities [EventEntity, EventEntity], work=932*

SUBROUTINE_0501:
 67: 0x0501 [0x45] LOAD_SCHEDULED_TASK: Load scheduler "s024" with entities [EventEntity, EventEntity], work=[932*, 0*]
 68: 0x0512 [0x79] LocalPlayer looks at Magh Bihu (ID: 17404429/0x0109920D) (Basic look)
 69: 0x051C [0x1C] WAIT(90* ticks)
 70: 0x051F [0x2A] GET_REQ_LEVEL(level=15, entity_id=LocalPlayer)
 71: 0x0525 [0x27] REQ_SET(priority=0x0F, entity_id=LocalPlayer, tag_num=0x16)
 72: 0x052C [0x1C] WAIT(2* ticks)
 73: 0x052F [0x52] END_LOAD_SCHEDULER: End scheduler "s024" with entities [EventEntity, EventEntity], work=932*
 74: 0x053E [0x45] LOAD_SCHEDULED_TASK: Load scheduler "s026" with entities [EventEntity, EventEntity], work=[932*, 0*]
 75: 0x054F [0x1C] WAIT(100* ticks)
 76: 0x0552 [0x52] END_LOAD_SCHEDULER: End scheduler "s026" with entities [EventEntity, EventEntity], work=932*
 77: 0x0561 [0x45] LOAD_SCHEDULED_TASK: Load scheduler "s025" with entities [EventEntity, EventEntity], work=[932*, 0*]
 78: 0x0572 [0x1C] WAIT(100* ticks)
 79: 0x0575 [0x1C] WAIT(30* ticks)
 80: 0x0578 [0x29] REQ_SET_WAIT(priority=0x0F, entity_id=Magh Bihu (ID: 17404429/0x0109920D), tag_num=0x0D)
 81: 0x057F [0x52] END_LOAD_SCHEDULER: End scheduler "s025" with entities [EventEntity, EventEntity], work=932*
 82: 0x058E [0x45] LOAD_SCHEDULED_TASK: Load scheduler "s027" with entities [EventEntity, EventEntity], work=[932*, 0*]
 83: 0x059F [0x2A] GET_REQ_LEVEL(level=15, entity_id=LocalPlayer)
 84: 0x05A5 [0x03] ExtData[1]->WorkLocal[1] = 0*

SUBROUTINE_05AA:
 85: 0x05AA [0x02] IF !(ExtData[1]->WorkLocal[1] == 7*) GOTO 0x0710
 86: 0x05B2 [0x24] CREATE_DIALOG(message_id=11543*, default_option=0*, option_flags=ExtData[1]->WorkLocal[1])
    → "What will you do? [Call to him./Stare at him./Poke him.]"
 87: 0x05B9 [0x25] WAIT_DIALOG_SELECT()
 88: 0x05BA [0x02] IF !(Work_Zone[0] == 0*) GOTO 0x0676
 89: 0x05C2 [0x3C] SET_BIT_FLAG_CONDITIONAL(target_work_offset=ExtData[1]->WorkLocal[1], bit_index_work_offset=0*, condition_work_offset=1*)
 90: 0x05C9 [0x52] END_LOAD_SCHEDULER: End scheduler "s027" with entities [EventEntity, EventEntity], work=932*
 91: 0x05D8 [0x02] IF !(Work_Zone[9] == 5*) GOTO 0x05F4
 92: 0x05E0 [0x45] LOAD_SCHEDULED_TASK: Load scheduler "s043" with entities [EventEntity, EventEntity], work=[932*, 0*]
 93: 0x05F1 [0x01] GOTO 0x0621
 94: 0x05F4 [0x02] IF !(Work_Zone[9] == 6*) GOTO 0x0610
 95: 0x05FC [0x45] LOAD_SCHEDULED_TASK: Load scheduler "s043" with entities [EventEntity, EventEntity], work=[932*, 0*]
 96: 0x060D [0x01] GOTO 0x0621
 97: 0x0610 [0x45] LOAD_SCHEDULED_TASK: Load scheduler "s029" with entities [EventEntity, EventEntity], work=[932*, 0*]

SUBROUTINE_0621:
 98: 0x0621 [0x6E] LocalPlayer uses emote 11*
 99: 0x0628 [0x99] Wait for LocalPlayer animation to complete
100: 0x062D [0x1C] WAIT(120* ticks)
101: 0x0630 [0x02] IF !(Work_Zone[9] == 5*) GOTO 0x064A
102: 0x0638 [0x52] END_LOAD_SCHEDULER: End scheduler "s043" with entities [EventEntity, EventEntity], work=932*
103: 0x0647 [0x01] GOTO 0x0673
104: 0x064A [0x02] IF !(Work_Zone[9] == 6*) GOTO 0x0664
105: 0x0652 [0x52] END_LOAD_SCHEDULER: End scheduler "s043" with entities [EventEntity, EventEntity], work=932*
106: 0x0661 [0x01] GOTO 0x0673
107: 0x0664 [0x52] END_LOAD_SCHEDULER: End scheduler "s029" with entities [EventEntity, EventEntity], work=932*

SUBROUTINE_0673:
108: 0x0673 [0x01] GOTO 0x070D
109: 0x0676 [0x02] IF !(Work_Zone[0] == 1*) GOTO 0x06BD
110: 0x067E [0x3C] SET_BIT_FLAG_CONDITIONAL(target_work_offset=ExtData[1]->WorkLocal[1], bit_index_work_offset=1*, condition_work_offset=1*)
111: 0x0685 [0x52] END_LOAD_SCHEDULER: End scheduler "s027" with entities [EventEntity, EventEntity], work=932*
112: 0x0694 [0x45] LOAD_SCHEDULED_TASK: Load scheduler "s031" with entities [EventEntity, EventEntity], work=[932*, 0*]
113: 0x06A5 [0x48] [System] [11544*]:
    → "You stare at Magh Bihu."
114: 0x06A8 [0x1C] WAIT(120* ticks)
115: 0x06AB [0x52] END_LOAD_SCHEDULER: End scheduler "s031" with entities [EventEntity, EventEntity], work=932*
116: 0x06BA [0x01] GOTO 0x070D
117: 0x06BD [0x02] IF !(Work_Zone[0] == 2*) GOTO 0x070D
118: 0x06C5 [0x3C] SET_BIT_FLAG_CONDITIONAL(target_work_offset=ExtData[1]->WorkLocal[1], bit_index_work_offset=2*, condition_work_offset=1*)
119: 0x06CC [0x52] END_LOAD_SCHEDULER: End scheduler "s027" with entities [EventEntity, EventEntity], work=932*
120: 0x06DB [0x45] LOAD_SCHEDULED_TASK: Load scheduler "s030" with entities [EventEntity, EventEntity], work=[932*, 0*]
121: 0x06EC [0x6E] LocalPlayer uses emote 16*
122: 0x06F3 [0x99] Wait for LocalPlayer animation to complete
123: 0x06F8 [0x1C] WAIT(120* ticks)
124: 0x06FB [0x52] END_LOAD_SCHEDULER: End scheduler "s030" with entities [EventEntity, EventEntity], work=932*
125: 0x070A [0x01] GOTO 0x070D

SUBROUTINE_070D:
126: 0x070D [0x01] GOTO 0x05AA
127: 0x0710 [0x52] END_LOAD_SCHEDULER: End scheduler "s025" with entities [EventEntity, EventEntity], work=932*
128: 0x071F [0x45] LOAD_SCHEDULED_TASK: Load scheduler "s036" with entities [EventEntity, EventEntity], work=[932*, 0*]
129: 0x0730 [0x7C] Magh Bihu (ID: 17404429/0x0109920D)->Render.Flags2 |= 0x00
130: 0x0736 [0x2B] Magh Bihu (ID: 17404429/0x0109920D) [11545*]:
    → "..."
131: 0x073D [0x23] WAIT_FOR_DIALOG_INTERACTION
132: 0x073E [0x7C] Magh Bihu (ID: 17404429/0x0109920D)->Render.Flags2 |= 0x01
133: 0x0744 [0x29] REQ_SET_WAIT(priority=0x0F, entity_id=Magh Bihu (ID: 17404429/0x0109920D), tag_num=0x0E)
134: 0x074B [0x52] END_LOAD_SCHEDULER: End scheduler "s036" with entities [EventEntity, EventEntity], work=932*
135: 0x075A [0x45] LOAD_SCHEDULED_TASK: Load scheduler "8297" with entities [EventEntity, EventEntity], work=[932*, 0*]
136: 0x076B [0x45] LOAD_SCHEDULED_TASK: Load scheduler "s028" with entities [EventEntity, EventEntity], work=[932*, 0*]
137: 0x077C [0x29] REQ_SET_WAIT(priority=0x0F, entity_id=Magh Bihu (ID: 17404429/0x0109920D), tag_num=0x0F)
138: 0x0783 [0x2B] Magh Bihu (ID: 17404429/0x0109920D) [11546*]:
    → "Hraaaah!"
139: 0x078A [0x1C] WAIT(30* ticks)
140: 0x078D [0x6E] LocalPlayer uses emote 21*
141: 0x0794 [0x99] Wait for LocalPlayer animation to complete
142: 0x0799 [0x1C] WAIT(30* ticks)
143: 0x079C [0x23] WAIT_FOR_DIALOG_INTERACTION
144: 0x079D [0x29] REQ_SET_WAIT(priority=0x0F, entity_id=Magh Bihu (ID: 17404429/0x0109920D), tag_num=0x10)
145: 0x07A4 [0x52] END_LOAD_SCHEDULER: End scheduler "s028" with entities [EventEntity, EventEntity], work=932*
146: 0x07B3 [0x45] LOAD_SCHEDULED_TASK: Load scheduler "blof" with entities [EventEntity, EventEntity], work=[932*, 0*]
147: 0x07C4 [0x45] LOAD_SCHEDULED_TASK: Load scheduler "s032" with entities [EventEntity, EventEntity], work=[932*, 0*]
148: 0x07D5 [0x7B] Magh Bihu (ID: 17404429/0x0109920D) stops talking
149: 0x07DA [0x27] REQ_SET(priority=0x0F, entity_id=Magh Bihu (ID: 17404429/0x0109920D), tag_num=0x19)
150: 0x07E1 [0x5C] MUSIC_CONTROL: Set Idle (Day) music to song 28*
151: 0x07E5 [0x5C] MUSIC_CONTROL: Set Idle (Night) music to song 28*
152: 0x07E9 [0x9A] WAIT_MUSIC_SERVER()
153: 0x07EA [0x5D] SET_MUSIC_VOLUME(volume=127*, fade_time=1*)
154: 0x07EF [0x1C] WAIT(30* ticks)
155: 0x07F2 [0x4A] LocalPlayer looks at Magh Bihu (ID: 17404429/0x0109920D)
156: 0x07FB [0x6F] WAIT_FRAME_DELAY: Yield until WaitTime reaches zero
157: 0x07FC [0x76] CHECK_ENTITY_RENDER_FLAGS: Wait until LocalPlayer Render.Flags0 and Render.Flags3 conditions are met
158: 0x0801 [0x2A] GET_REQ_LEVEL(level=15, entity_id=Magh Bihu (ID: 17404429/0x0109920D))
159: 0x0807 [0x4A] LocalPlayer looks at Magh Bihu (ID: 17404429/0x0109920D)
160: 0x0810 [0x1C] WAIT(10* ticks)
161: 0x0813 [0x4A] Magh Bihu (ID: 17404429/0x0109920D) looks at LocalPlayer
162: 0x081C [0x6F] WAIT_FRAME_DELAY: Yield until WaitTime reaches zero
163: 0x081D [0x76] CHECK_ENTITY_RENDER_FLAGS: Wait until Magh Bihu (ID: 17404429/0x0109920D) Render.Flags0 and Render.Flags3 conditions are met
164: 0x0822 [0x29] REQ_SET_WAIT(priority=0x0F, entity_id=Magh Bihu (ID: 17404429/0x0109920D), tag_num=0x05)
165: 0x0829 [0x2B] Magh Bihu (ID: 17404429/0x0109920D) [11547*]:
    → "Trouble always seems to follow you!"
166: 0x0830 [0x1C] WAIT(20* ticks)
167: 0x0833 [0x45] LOAD_SCHEDULED_TASK: Load scheduler "0011" with entities [EventEntity, EventEntity], work=[932*, 0*]
168: 0x0844 [0x23] WAIT_FOR_DIALOG_INTERACTION
169: 0x0845 [0x29] REQ_SET_WAIT(priority=0x0F, entity_id=Magh Bihu (ID: 17404429/0x0109920D), tag_num=0x06)
170: 0x084C [0x52] END_LOAD_SCHEDULER: End scheduler "s032" with entities [EventEntity, EventEntity], work=932*
171: 0x085B [0x45] LOAD_SCHEDULED_TASK: Load scheduler "s037" with entities [EventEntity, EventEntity], work=[932*, 0*]
172: 0x086C [0x6F] WAIT_FRAME_DELAY: Yield until WaitTime reaches zero
173: 0x086D [0x76] CHECK_ENTITY_RENDER_FLAGS: Wait until LocalPlayer Render.Flags0 and Render.Flags3 conditions are met
174: 0x0872 [0x29] REQ_SET_WAIT(priority=0x0F, entity_id=Magh Bihu (ID: 17404429/0x0109920D), tag_num=0x05)
175: 0x0879 [0x2B] Magh Bihu (ID: 17404429/0x0109920D) [11548*]:
    → "This is no place for strangers! Leave at once!"
176: 0x0880 [0x1C] WAIT(20* ticks)
177: 0x0883 [0x45] LOAD_SCHEDULED_TASK: Load scheduler "0011" with entities [EventEntity, EventEntity], work=[932*, 0*]
178: 0x0894 [0x23] WAIT_FOR_DIALOG_INTERACTION
179: 0x0895 [0x52] END_LOAD_SCHEDULER: End scheduler "s037" with entities [EventEntity, EventEntity], work=932*
180: 0x08A4 [0x02] IF !(Work_Zone[9] == 3*) GOTO 0x08C0
181: 0x08AC [0x45] LOAD_SCHEDULED_TASK: Load scheduler "s033" with entities [EventEntity, EventEntity], work=[932*, 0*]
182: 0x08BD [0x01] GOTO 0x0925
183: 0x08C0 [0x02] IF !(Work_Zone[9] == 5*) GOTO 0x08DC
184: 0x08C8 [0x45] LOAD_SCHEDULED_TASK: Load scheduler "s044" with entities [EventEntity, EventEntity], work=[932*, 0*]
185: 0x08D9 [0x01] GOTO 0x0925
186: 0x08DC [0x02] IF !(Work_Zone[9] == 6*) GOTO 0x08F8
187: 0x08E4 [0x45] LOAD_SCHEDULED_TASK: Load scheduler "s044" with entities [EventEntity, EventEntity], work=[932*, 0*]
188: 0x08F5 [0x01] GOTO 0x0925
189: 0x08F8 [0x02] IF !(Work_Zone[9] == 8*) GOTO 0x0914
190: 0x0900 [0x45] LOAD_SCHEDULED_TASK: Load scheduler "s033" with entities [EventEntity, EventEntity], work=[932*, 0*]
191: 0x0911 [0x01] GOTO 0x0925
192: 0x0914 [0x45] LOAD_SCHEDULED_TASK: Load scheduler "s046" with entities [EventEntity, EventEntity], work=[932*, 0*]

SUBROUTINE_0925:
193: 0x0925 [0x24] CREATE_DIALOG(message_id=11549*, default_option=0*, option_flags=0*)
    → "How do you respond? [It's about Gloom Phantom.../It's about the Destiny Destroyers.../Chaos and the Maelstrom Mage have...]"
194: 0x092C [0x25] WAIT_DIALOG_SELECT()
195: 0x092D [0x02] IF !(Work_Zone[0] == 0*) GOTO 0x0938
196: 0x0935 [0x01] GOTO 0x0938

SUBROUTINE_0938:
197: 0x0938 [0x29] REQ_SET_WAIT(priority=0x0F, entity_id=Magh Bihu (ID: 17404429/0x0109920D), tag_num=0x06)
198: 0x093F [0x29] REQ_SET_WAIT(priority=0x0F, entity_id=LocalPlayer, tag_num=0x12)
199: 0x0946 [0x1C] WAIT(90* ticks)
200: 0x0949 [0x02] IF !(Work_Zone[9] == 3*) GOTO 0x0963
201: 0x0951 [0x52] END_LOAD_SCHEDULER: End scheduler "s033" with entities [EventEntity, EventEntity], work=932*
202: 0x0960 [0x01] GOTO 0x09C0
203: 0x0963 [0x02] IF !(Work_Zone[9] == 5*) GOTO 0x097D
204: 0x096B [0x52] END_LOAD_SCHEDULER: End scheduler "s044" with entities [EventEntity, EventEntity], work=932*
205: 0x097A [0x01] GOTO 0x09C0
206: 0x097D [0x02] IF !(Work_Zone[9] == 6*) GOTO 0x0997
207: 0x0985 [0x52] END_LOAD_SCHEDULER: End scheduler "s044" with entities [EventEntity, EventEntity], work=932*
208: 0x0994 [0x01] GOTO 0x09C0
209: 0x0997 [0x02] IF !(Work_Zone[9] == 8*) GOTO 0x09B1
210: 0x099F [0x52] END_LOAD_SCHEDULER: End scheduler "s033" with entities [EventEntity, EventEntity], work=932*
211: 0x09AE [0x01] GOTO 0x09C0
212: 0x09B1 [0x52] END_LOAD_SCHEDULER: End scheduler "s046" with entities [EventEntity, EventEntity], work=932*

SUBROUTINE_09C0:
213: 0x09C0 [0x45] LOAD_SCHEDULED_TASK: Load scheduler "8297" with entities [EventEntity, EventEntity], work=[932*, 0*]
214: 0x09D1 [0x45] LOAD_SCHEDULED_TASK: Load scheduler "s038" with entities [EventEntity, EventEntity], work=[932*, 0*]
215: 0x09E2 [0x29] REQ_SET_WAIT(priority=0x0F, entity_id=LocalPlayer, tag_num=0x13)
216: 0x09E9 [0x29] REQ_SET_WAIT(priority=0x0F, entity_id=Magh Bihu (ID: 17404429/0x0109920D), tag_num=0x0F)
217: 0x09F0 [0x2B] Magh Bihu (ID: 17404429/0x0109920D) [11550*]:
    → "Hraaaah!"
218: 0x09F7 [0x1C] WAIT(50* ticks)
219: 0x09FA [0x6E] LocalPlayer uses emote 21*
220: 0x0A01 [0x99] Wait for LocalPlayer animation to complete
221: 0x0A06 [0x1C] WAIT(30* ticks)
222: 0x0A09 [0x23] WAIT_FOR_DIALOG_INTERACTION
223: 0x0A0A [0x29] REQ_SET_WAIT(priority=0x0F, entity_id=Magh Bihu (ID: 17404429/0x0109920D), tag_num=0x10)
224: 0x0A11 [0x52] END_LOAD_SCHEDULER: End scheduler "s038" with entities [EventEntity, EventEntity], work=932*
225: 0x0A20 [0x45] LOAD_SCHEDULED_TASK: Load scheduler "blof" with entities [EventEntity, EventEntity], work=[932*, 0*]
226: 0x0A31 [0x45] LOAD_SCHEDULED_TASK: Load scheduler "s035" with entities [EventEntity, EventEntity], work=[932*, 0*]
227: 0x0A42 [0x7B] Magh Bihu (ID: 17404429/0x0109920D) stops talking
228: 0x0A47 [0x29] REQ_SET_WAIT(priority=0x0F, entity_id=Magh Bihu (ID: 17404429/0x0109920D), tag_num=0x1A)
229: 0x0A4E [0x6B] STOP_AND_IDLE: Magh Bihu (ID: 17404429/0x0109920D) stops current action and resets to idle (animation="dft0")
230: 0x0A57 [0x4A] LocalPlayer looks at Magh Bihu (ID: 17404429/0x0109920D)
231: 0x0A60 [0x2B] Magh Bihu (ID: 17404429/0x0109920D) [11551*]:
    → "We're finished! The Destiny Destroyers have been disbanded!"
232: 0x0A67 [0x23] WAIT_FOR_DIALOG_INTERACTION
233: 0x0A68 [0x6F] WAIT_FRAME_DELAY: Yield until WaitTime reaches zero
234: 0x0A69 [0x76] CHECK_ENTITY_RENDER_FLAGS: Wait until LocalPlayer Render.Flags0 and Render.Flags3 conditions are met
235: 0x0A6E [0x52] END_LOAD_SCHEDULER: End scheduler "s035" with entities [EventEntity, EventEntity], work=932*
236: 0x0A7D [0x02] IF !(Work_Zone[9] == 3*) GOTO 0x0A99
237: 0x0A85 [0x45] LOAD_SCHEDULED_TASK: Load scheduler "s039" with entities [EventEntity, EventEntity], work=[932*, 0*]
238: 0x0A96 [0x01] GOTO 0x0AFE
239: 0x0A99 [0x02] IF !(Work_Zone[9] == 5*) GOTO 0x0AB5
240: 0x0AA1 [0x45] LOAD_SCHEDULED_TASK: Load scheduler "s045" with entities [EventEntity, EventEntity], work=[932*, 0*]
241: 0x0AB2 [0x01] GOTO 0x0AFE
242: 0x0AB5 [0x02] IF !(Work_Zone[9] == 6*) GOTO 0x0AD1
243: 0x0ABD [0x45] LOAD_SCHEDULED_TASK: Load scheduler "s045" with entities [EventEntity, EventEntity], work=[932*, 0*]
244: 0x0ACE [0x01] GOTO 0x0AFE
245: 0x0AD1 [0x02] IF !(Work_Zone[9] == 8*) GOTO 0x0AED
246: 0x0AD9 [0x45] LOAD_SCHEDULED_TASK: Load scheduler "s039" with entities [EventEntity, EventEntity], work=[932*, 0*]
247: 0x0AEA [0x01] GOTO 0x0AFE
248: 0x0AED [0x45] LOAD_SCHEDULED_TASK: Load scheduler "s047" with entities [EventEntity, EventEntity], work=[932*, 0*]

SUBROUTINE_0AFE:
249: 0x0AFE [0x4A] Magh Bihu (ID: 17404429/0x0109920D) looks at LocalPlayer
250: 0x0B07 [0x6F] WAIT_FRAME_DELAY: Yield until WaitTime reaches zero
251: 0x0B08 [0x76] CHECK_ENTITY_RENDER_FLAGS: Wait until Magh Bihu (ID: 17404429/0x0109920D) Render.Flags0 and Render.Flags3 conditions are met
252: 0x0B0D [0x29] REQ_SET_WAIT(priority=0x0F, entity_id=Magh Bihu (ID: 17404429/0x0109920D), tag_num=0x01)
253: 0x0B14 [0x2B] Magh Bihu (ID: 17404429/0x0109920D) [11552*]:
    → "The Prime Weapon has been smashed to bits, so that's the end of it!"
254: 0x0B1B [0x23] WAIT_FOR_DIALOG_INTERACTION
255: 0x0B1C [0x29] REQ_SET_WAIT(priority=0x0F, entity_id=Magh Bihu (ID: 17404429/0x0109920D), tag_num=0x02)
256: 0x0B23 [0x29] REQ_SET_WAIT(priority=0x0F, entity_id=Magh Bihu (ID: 17404429/0x0109920D), tag_num=0x05)
257: 0x0B2A [0x5D] SET_MUSIC_VOLUME(volume=0*, fade_time=300*)
258: 0x0B2F [0x2B] Magh Bihu (ID: 17404429/0x0109920D) [11553*]:
    → "We've basically been abandoned!"
259: 0x0B36 [0x1C] WAIT(20* ticks)
260: 0x0B39 [0x45] LOAD_SCHEDULED_TASK: Load scheduler "0011" with entities [EventEntity, EventEntity], work=[932*, 0*]
261: 0x0B4A [0x23] WAIT_FOR_DIALOG_INTERACTION
262: 0x0B4B [0x29] REQ_SET_WAIT(priority=0x0F, entity_id=Magh Bihu (ID: 17404429/0x0109920D), tag_num=0x06)
263: 0x0B52 [0x02] IF !(Work_Zone[9] == 3*) GOTO 0x0B6C
264: 0x0B5A [0x52] END_LOAD_SCHEDULER: End scheduler "s039" with entities [EventEntity, EventEntity], work=932*
265: 0x0B69 [0x01] GOTO 0x0BC9
266: 0x0B6C [0x02] IF !(Work_Zone[9] == 5*) GOTO 0x0B86
267: 0x0B74 [0x52] END_LOAD_SCHEDULER: End scheduler "s045" with entities [EventEntity, EventEntity], work=932*
268: 0x0B83 [0x01] GOTO 0x0BC9
269: 0x0B86 [0x02] IF !(Work_Zone[9] == 6*) GOTO 0x0BA0
270: 0x0B8E [0x52] END_LOAD_SCHEDULER: End scheduler "s045" with entities [EventEntity, EventEntity], work=932*
271: 0x0B9D [0x01] GOTO 0x0BC9
272: 0x0BA0 [0x02] IF !(Work_Zone[9] == 8*) GOTO 0x0BBA
273: 0x0BA8 [0x52] END_LOAD_SCHEDULER: End scheduler "s039" with entities [EventEntity, EventEntity], work=932*
274: 0x0BB7 [0x01] GOTO 0x0BC9
275: 0x0BBA [0x52] END_LOAD_SCHEDULER: End scheduler "s047" with entities [EventEntity, EventEntity], work=932*

SUBROUTINE_0BC9:
276: 0x0BC9 [0x45] LOAD_SCHEDULED_TASK: Load scheduler "s040" with entities [EventEntity, EventEntity], work=[932*, 0*]
277: 0x0BDA [0x7B] Magh Bihu (ID: 17404429/0x0109920D) stops talking
278: 0x0BDF [0x27] REQ_SET(priority=0x0F, entity_id=Magh Bihu (ID: 17404429/0x0109920D), tag_num=0x1B)
279: 0x0BE6 [0x1C] WAIT(120* ticks)
280: 0x0BE9 [0x4A] LocalPlayer looks at Magh Bihu (ID: 17404429/0x0109920D)
281: 0x0BF2 [0x52] END_LOAD_SCHEDULER: End scheduler "s040" with entities [EventEntity, EventEntity], work=932*
282: 0x0C01 [0x45] LOAD_SCHEDULED_TASK: Load scheduler "s041" with entities [EventEntity, EventEntity], work=[932*, 0*]
283: 0x0C12 [0x1C] WAIT(120* ticks)
284: 0x0C15 [0x6F] WAIT_FRAME_DELAY: Yield until WaitTime reaches zero
285: 0x0C16 [0x76] CHECK_ENTITY_RENDER_FLAGS: Wait until LocalPlayer Render.Flags0 and Render.Flags3 conditions are met
286: 0x0C1B [0x1A] CALL_SUBROUTINE(address=0x0064)
287: 0x0C1E [0x2A] GET_REQ_LEVEL(level=15, entity_id=Magh Bihu (ID: 17404429/0x0109920D))
288: 0x0C24 [0x52] END_LOAD_SCHEDULER: End scheduler "s041" with entities [EventEntity, EventEntity], work=932*
289: 0x0C33 [0x5C] MUSIC_CONTROL: Set Idle (Day) music to song 0*
290: 0x0C37 [0x5C] MUSIC_CONTROL: Set Idle (Night) music to song 0*
291: 0x0C3B [0x9A] WAIT_MUSIC_SERVER()
292: 0x0C3C [0x5D] SET_MUSIC_VOLUME(volume=127*, fade_time=1*)
293: 0x0C41 [0x1C] WAIT(15* ticks)
294: 0x0C44 [0xAB] EventEntity->DespawnValue = 0* // Set despawn value
295: 0x0C48 [0x1C] WAIT(1* ticks)
296: 0x0C4B [0x46] CAMERA_CONTROL: Restore default settings
297: 0x0C4D [0x45] LOAD_SCHEDULED_TASK: Load scheduler "fdi2" with entities [EventEntity, EventEntity], work=[200*, 0*]
298: 0x0C5E [0x21] END_EVENT
299: 0x0C5F [0x00] END_REQSTACK()
```

### Event 29

#### Metadata

| Field        | Value     |
|--------------|-----------|
| Entrypoint   | 0x0C60    |
| Data Size    | 175 bytes |
| Instructions | 35        |

```
      00 01 02 03 04 05 06 07  08 09 0A 0B 0C 0D 0E 0F
      -- -- -- -- -- -- -- --  -- -- -- -- -- -- -- --
0C60: 4A DE 91 09 01 F0 FF FF  7F 6F 76 DE 91 09 01 2B  J........ov....+
0C70: DE 91 09 01 40 80 23 03  00 10 05 80 02 00 10 05  ....@.#.........
0C80: 80 04 0D 0D 24 41 80 01  80 01 80 25 02 00 10 01  ....$A.....%....
0C90: 80 00 B7 0C 42 27 10 DE  91 09 01 16 48 42 80 29  ....B'......HB.)
0CA0: 10 DE 91 09 01 17 27 10  DE 91 09 01 0C 29 10 DE  ......'......)..
0CB0: 91 09 01 0D 01 0A 0D 02  00 10 03 80 00 E2 0C 42  ...............B
0CC0: 27 10 DE 91 09 01 16 48  43 80 29 10 DE 91 09 01  '......HC.).....
0CD0: 17 27 10 DE 91 09 01 0C  29 10 DE 91 09 01 0D 01  .'......).......
0CE0: 0A 0D 02 00 10 05 80 00  0A 0D 27 10 DE 91 09 01  ..........'.....
0CF0: 0E 2B DE 91 09 01 44 80  23 29 10 DE 91 09 01 0F  .+....D.#)......
0D00: 27 10 DE 91 09 01 10 01  0A 0D 01 7C 0C 21 00     '..........|.!. 
```

#### Opcodes

```
  0: 0x0C60 [0x4A] Mandragora Warden (ID: 17404382/0x010991DE) looks at LocalPlayer
  1: 0x0C69 [0x6F] WAIT_FRAME_DELAY: Yield until WaitTime reaches zero
  2: 0x0C6A [0x76] CHECK_ENTITY_RENDER_FLAGS: Wait until Mandragora Warden (ID: 17404382/0x010991DE) Render.Flags0 and Render.Flags3 conditions are met
  3: 0x0C6F [0x2B] Mandragora Warden (ID: 17404382/0x010991DE) [11554*]:
    → "Pa!"
  4: 0x0C76 [0x23] WAIT_FOR_DIALOG_INTERACTION
  5: 0x0C77 [0x03] Work_Zone[0] = 2*
  6: 0x0C7C [0x02] IF !(Work_Zone[0] < 2*) GOTO 0x0D0D
  7: 0x0C84 [0x24] CREATE_DIALOG(message_id=11555*, default_option=0*, option_flags=0*)
    → "What do you inquire? [Where did Magh Bihu go?/What does Magh Bihu like?/Magh Bihu was abandoned?]"
  8: 0x0C8B [0x25] WAIT_DIALOG_SELECT()
  9: 0x0C8C [0x02] IF !(Work_Zone[0] == 0*) GOTO 0x0CB7
 10: 0x0C94 [0x42] SET_CLI_EVENT_CANCEL_DATA()
 11: 0x0C95 [0x27] REQ_SET(priority=0x10, entity_id=Mandragora Warden (ID: 17404382/0x010991DE), tag_num=0x16)
 12: 0x0C9C [0x48] [System] [11556*]:
    → "The warden appears to want something from you... It squirms uncontrollably."
 13: 0x0C9F [0x29] REQ_SET_WAIT(priority=0x10, entity_id=Mandragora Warden (ID: 17404382/0x010991DE), tag_num=0x17)
 14: 0x0CA6 [0x27] REQ_SET(priority=0x10, entity_id=Mandragora Warden (ID: 17404382/0x010991DE), tag_num=0x0C)
 15: 0x0CAD [0x29] REQ_SET_WAIT(priority=0x10, entity_id=Mandragora Warden (ID: 17404382/0x010991DE), tag_num=0x0D)
 16: 0x0CB4 [0x01] GOTO 0x0D0A
 17: 0x0CB7 [0x02] IF !(Work_Zone[0] == 1*) GOTO 0x0CE2
 18: 0x0CBF [0x42] SET_CLI_EVENT_CANCEL_DATA()
 19: 0x0CC0 [0x27] REQ_SET(priority=0x10, entity_id=Mandragora Warden (ID: 17404382/0x010991DE), tag_num=0x16)
 20: 0x0CC7 [0x48] [System] [11557*]:
    → "The warden appears to want something from you... It squirms uncontrollably."
 21: 0x0CCA [0x29] REQ_SET_WAIT(priority=0x10, entity_id=Mandragora Warden (ID: 17404382/0x010991DE), tag_num=0x17)
 22: 0x0CD1 [0x27] REQ_SET(priority=0x10, entity_id=Mandragora Warden (ID: 17404382/0x010991DE), tag_num=0x0C)
 23: 0x0CD8 [0x29] REQ_SET_WAIT(priority=0x10, entity_id=Mandragora Warden (ID: 17404382/0x010991DE), tag_num=0x0D)
 24: 0x0CDF [0x01] GOTO 0x0D0A
 25: 0x0CE2 [0x02] IF !(Work_Zone[0] == 2*) GOTO 0x0D0A
 26: 0x0CEA [0x27] REQ_SET(priority=0x10, entity_id=Mandragora Warden (ID: 17404382/0x010991DE), tag_num=0x0E)
 27: 0x0CF1 [0x2B] Mandragora Warden (ID: 17404382/0x010991DE) [11558*]:
    → "Pakee, pakeee!"
 28: 0x0CF8 [0x23] WAIT_FOR_DIALOG_INTERACTION
 29: 0x0CF9 [0x29] REQ_SET_WAIT(priority=0x10, entity_id=Mandragora Warden (ID: 17404382/0x010991DE), tag_num=0x0F)
 30: 0x0D00 [0x27] REQ_SET(priority=0x10, entity_id=Mandragora Warden (ID: 17404382/0x010991DE), tag_num=0x10)
 31: 0x0D07 [0x01] GOTO 0x0D0A

SUBROUTINE_0D0A:
 32: 0x0D0A [0x01] GOTO 0x0C7C
 33: 0x0D0D [0x21] END_EVENT
 34: 0x0D0E [0x00] END_REQSTACK()
```

### Event 30

#### Metadata

| Field        | Value      |
|--------------|------------|
| Entrypoint   | 0x0D0F     |
| Data Size    | 6012 bytes |
| Instructions | 842        |

```
      00 01 02 03 04 05 06 07  08 09 0A 0B 0C 0D 0E 0F
      -- -- -- -- -- -- -- --  -- -- -- -- -- -- -- --
0D00:                                               03                 .
0D10: 02 00 01 80 42 1A 64 00  46 01 38 0D 80 2F 00 0D  ....B.d.F.8../..
0D20: 92 09 01 2F 00 0E 92 09  01 2F 00 0F 92 09 01 2F  .../...../...../
0D30: 00 10 92 09 01 2F 00 11  92 09 01 2F 00 12 92 09  ...../...../....
0D40: 01 2F 00 13 92 09 01 2F  00 14 92 09 01 2F 00 15  ./...../...../..
0D50: 92 09 01 2F 00 16 92 09  01 2F 00 17 92 09 01 2F  .../...../...../
0D60: 00 18 92 09 01 2F 00 19  92 09 01 92 01 DE 91 09  ...../..........
0D70: 01 92 01 DF 91 09 01 92  01 E0 91 09 01 94 01 DE  ................
0D80: 91 09 01 94 01 DF 91 09  01 94 01 E0 91 09 01 94  ................
0D90: 01 0D 92 09 01 94 01 0E  92 09 01 94 01 0F 92 09  ................
0DA0: 01 94 01 10 92 09 01 94  01 11 92 09 01 94 01 12  ................
0DB0: 92 09 01 94 01 13 92 09  01 94 01 14 92 09 01 94  ................
0DC0: 01 15 92 09 01 94 01 16  92 09 01 94 01 17 92 09  ................
0DD0: 01 94 01 18 92 09 01 94  01 19 92 09 01 94 01 F0  ................
0DE0: FF FF 7F BA DE 91 09 01  0E 80 0F 80 10 80 11 80  ................
0DF0: BA DF 91 09 01 45 80 46  80 47 80 48 80 BA E0 91  .....E.F.G.H....
0E00: 09 01 49 80 4A 80 4B 80  4C 80 BA 0E 92 09 01 4D  ..I.J.K.L......M
0E10: 80 4E 80 4F 80 50 80 BA  0F 92 09 01 51 80 52 80  .N.O.P......Q.R.
0E20: 4F 80 50 80 BA 10 92 09  01 51 80 53 80 4F 80 50  O.P......Q.S.O.P
0E30: 80 BA 11 92 09 01 51 80  54 80 4F 80 50 80 BA 12  ......Q.T.O.P...
0E40: 92 09 01 51 80 4E 80 4F  80 50 80 BA 13 92 09 01  ...Q.N.O.P......
0E50: 55 80 52 80 4F 80 50 80  BA 14 92 09 01 55 80 53  U.R.O.P......U.S
0E60: 80 4F 80 50 80 BA 0D 92  09 01 55 80 54 80 4F 80  .O.P......U.T.O.
0E70: 50 80 BA 15 92 09 01 55  80 4E 80 4F 80 50 80 BA  P......U.N.O.P..
0E80: 16 92 09 01 56 80 52 80  4F 80 50 80 BA 17 92 09  ....V.R.O.P.....
0E90: 01 56 80 53 80 4F 80 50  80 BA 18 92 09 01 56 80  .V.S.O.P......V.
0EA0: 54 80 4F 80 50 80 BA 19  92 09 01 56 80 4E 80 4F  T.O.P......V.N.O
0EB0: 80 50 80 BA F0 FF FF 7F  16 80 17 80 18 80 19 80  .P..............
0EC0: 80 DE 91 09 01 80 DF 91  09 01 80 E0 91 09 01 80  ................
0ED0: 0E 92 09 01 80 0F 92 09  01 80 10 92 09 01 80 11  ................
0EE0: 92 09 01 80 12 92 09 01  80 13 92 09 01 80 14 92  ................
0EF0: 09 01 80 0D 92 09 01 80  15 92 09 01 80 16 92 09  ................
0F00: 01 80 17 92 09 01 80 18  92 09 01 80 19 92 09 01  ................
0F10: 80 F0 FF FF 7F 29 0F F0  FF FF 7F 06 D9 00 45 1A  .....)........E.
0F20: 80 F8 FF FF 7F F8 FF FF  7F 73 30 32 32 01 80 1A  .........s022...
0F30: 43 00 29 0F F0 FF FF 7F  10 1C 1B 80 29 0F DE 91  C.).........)...
0F40: 09 01 0E 2B DE 91 09 01  57 80 23 5D 01 80 1D 80  ...+....W.#]....
0F50: 5D 01 80 1D 80 7B DE 91  09 01 27 0F DE 91 09 01  ]....{....'.....
0F60: 06 1C 1B 80 4A F0 FF FF  7F DE 91 09 01 6F 76 F0  ....J........ov.
0F70: FF FF 7F 1C 26 80 27 0F  F0 FF FF 7F 17 1C 06 80  ....&.'.........
0F80: 1A 64 00 2A 0F DE 91 09  01 2A 0F F0 FF FF 7F 52  .d.*.....*.....R
0F90: 1A 80 F8 FF FF 7F F8 FF  FF 7F 73 30 32 32 BA DE  ..........s022..
0FA0: 91 09 01 4D 80 52 80 4F  80 50 80 BA DF 91 09 01  ...M.R.O.P......
0FB0: 4D 80 53 80 4F 80 50 80  BA E0 91 09 01 4D 80 54  M.S.O.P......M.T
0FC0: 80 4F 80 50 80 4E 00 0E  92 09 01 4E 00 0F 92 09  .O.P.N.....N....
0FD0: 01 4E 00 10 92 09 01 4E  00 11 92 09 01 4E 00 12  .N.....N.....N..
0FE0: 92 09 01 4E 00 13 92 09  01 4E 00 14 92 09 01 4E  ...N.....N.....N
0FF0: 00 0D 92 09 01 4E 00 15  92 09 01 4E 00 16 92 09  .....N.....N....
1000: 01 4E 00 17 92 09 01 4E  00 18 92 09 01 4E 00 19  .N.....N.....N..
1010: 92 09 01 80 DE 91 09 01  80 DF 91 09 01 80 E0 91  ................
1020: 09 01 80 0E 92 09 01 80  0F 92 09 01 80 10 92 09  ................
1030: 01 80 11 92 09 01 80 12  92 09 01 80 13 92 09 01  ................
1040: 80 14 92 09 01 80 0D 92  09 01 80 15 92 09 01 80  ................
1050: 16 92 09 01 80 17 92 09  01 80 18 92 09 01 80 19  ................
1060: 92 09 01 27 10 DE 91 09  01 1C 27 10 DF 91 09 01  ...'......'.....
1070: 15 27 10 E0 91 09 01 15  27 10 0E 92 09 01 18 27  .'......'......'
1080: 10 0F 92 09 01 16 27 10  10 92 09 01 15 27 10 11  ......'......'..
1090: 92 09 01 15 27 10 12 92  09 01 15 27 10 13 92 09  ....'......'....
10A0: 01 15 27 10 14 92 09 01  15 27 10 0D 92 09 01 13  ..'......'......
10B0: 27 10 15 92 09 01 15 27  10 16 92 09 01 15 27 10  '......'......'.
10C0: 17 92 09 01 15 27 10 18  92 09 01 15 27 10 19 92  .....'......'...
10D0: 09 01 15 2A 10 DE 91 09  01 2A 10 DF 91 09 01 2A  ...*.....*.....*
10E0: 10 E0 91 09 01 2A 10 0E  92 09 01 2A 10 0F 92 09  .....*.....*....
10F0: 01 2A 10 10 92 09 01 2A  10 11 92 09 01 2A 10 12  .*.....*.....*..
1100: 92 09 01 2A 10 13 92 09  01 2A 10 14 92 09 01 2A  ...*.....*.....*
1110: 10 0D 92 09 01 2A 10 15  92 09 01 2A 10 16 92 09  .....*.....*....
1120: 01 2A 10 17 92 09 01 2A  10 18 92 09 01 2A 10 19  .*.....*.....*..
1130: 92 09 01 69 01 03 80 1C  03 80 C4 02 25 80 0D 92  ...i........%...
1140: 09 01 0D 92 09 01 C4 02  25 80 DE 91 09 01 DE 91  ........%.......
1150: 09 01 C4 02 25 80 DF 91  09 01 DF 91 09 01 C4 02  ....%...........
1160: 25 80 E0 91 09 01 E0 91  09 01 C4 02 25 80 0E 92  %...........%...
1170: 09 01 0E 92 09 01 C4 02  25 80 0F 92 09 01 0F 92  ........%.......
1180: 09 01 C4 02 25 80 10 92  09 01 10 92 09 01 C4 02  ....%...........
1190: 25 80 11 92 09 01 11 92  09 01 C4 02 25 80 12 92  %...........%...
11A0: 09 01 12 92 09 01 C4 02  25 80 13 92 09 01 13 92  ........%.......
11B0: 09 01 C4 02 25 80 14 92  09 01 14 92 09 01 C4 02  ....%...........
11C0: 25 80 15 92 09 01 15 92  09 01 C4 02 25 80 16 92  %...........%...
11D0: 09 01 16 92 09 01 C4 02  25 80 17 92 09 01 17 92  ........%.......
11E0: 09 01 C4 02 25 80 18 92  09 01 18 92 09 01 C4 02  ....%...........
11F0: 25 80 19 92 09 01 19 92  09 01 02 02 00 01 80 00  %...............
1200: 3E 12 7B F0 FF FF 7F BA  F0 FF FF 7F 58 80 59 80  >.{.........X.Y.
1210: 5A 80 5B 80 1C 03 80 1C  26 80 1C 26 80 1C 5C 80  Z.[.....&..&..\.
1220: 27 0F F0 FF FF 7F 18 1C  03 80 45 1A 80 F8 FF FF  '.........E.....
1230: 7F F8 FF FF 7F 73 30 35  31 01 80 01 52 12 45 1A  .....s051...R.E.
1240: 80 F8 FF FF 7F F8 FF FF  7F 73 30 34 38 01 80 1C  .........s048...
1250: 2D 80 6A 29 80 1B 80 03  80 1A 43 00 1C 26 80 1C  -.j)......C..&..
1260: 27 80 1C 06 80 02 02 00  01 80 00 96 12 52 1A 80  '............R..
1270: F8 FF FF 7F F8 FF FF 7F  73 30 35 31 45 1A 80 F8  ........s051E...
1280: FF FF 7F F8 FF FF 7F 73  30 34 38 01 80 1C 28 80  .......s048...(.
1290: 2A 0F F0 FF FF 7F 03 03  00 01 80 24 5D 80 01 80  *..........$]...
12A0: 01 80 25 02 00 10 01 80  00 AE 12 01 C4 12 02 00  ..%.............
12B0: 10 03 80 00 B9 12 01 C4  12 02 00 10 05 80 00 C4  ................
12C0: 12 01 C4 12 52 1A 80 F8  FF FF 7F F8 FF FF 7F 73  ....R..........s
12D0: 30 34 38 45 1A 80 F8 FF  FF 7F F8 FF FF 7F 73 30  048E..........s0
12E0: 34 39 01 80 24 5E 80 01  80 01 80 25 02 00 10 01  49..$^.....%....
12F0: 80 00 F7 12 01 18 13 02  00 10 03 80 00 02 13 01  ................
1300: 18 13 02 00 10 05 80 00  0D 13 01 18 13 02 00 10  ................
1310: 38 80 00 18 13 01 18 13  3C 03 00 00 10 03 80 3E  8.......<......>
1320: 03 00 01 80 C5 13 27 10  0F 92 09 01 17 27 10 10  ......'......'..
1330: 92 09 01 16 27 10 11 92  09 01 16 27 10 12 92 09  ....'......'....
1340: 01 16 27 10 13 92 09 01  16 27 10 14 92 09 01 16  ..'......'......
1350: 27 10 0D 92 09 01 14 27  10 15 92 09 01 16 27 10  '......'......'.
1360: 16 92 09 01 16 27 10 17  92 09 01 16 27 10 18 92  .....'......'...
1370: 09 01 16 27 10 19 92 09  01 16 2A 10 0F 92 09 01  ...'......*.....
1380: 2A 10 10 92 09 01 2A 10  11 92 09 01 2A 10 12 92  *.....*.....*...
1390: 09 01 2A 10 13 92 09 01  2A 10 14 92 09 01 2A 10  ..*.....*.....*.
13A0: 0D 92 09 01 2A 10 15 92  09 01 2A 10 16 92 09 01  ....*.....*.....
13B0: 2A 10 17 92 09 01 2A 10  18 92 09 01 2A 10 19 92  *.....*.....*...
13C0: 09 01 01 B7 15 3E 03 00  03 80 6B 14 27 10 DE 91  .....>....k.'...
13D0: 09 01 1D 27 10 DF 91 09  01 16 27 10 E0 91 09 01  ...'......'.....
13E0: 16 27 10 0E 92 09 01 19  27 10 13 92 09 01 16 27  .'......'......'
13F0: 10 14 92 09 01 16 27 10  0D 92 09 01 14 27 10 15  ......'......'..
1400: 92 09 01 16 27 10 16 92  09 01 16 27 10 17 92 09  ....'......'....
1410: 01 16 27 10 18 92 09 01  16 27 10 19 92 09 01 16  ..'......'......
1420: 2A 10 DE 91 09 01 2A 10  DF 91 09 01 2A 10 E0 91  *.....*.....*...
1430: 09 01 2A 10 0E 92 09 01  2A 10 13 92 09 01 2A 10  ..*.....*.....*.
1440: 14 92 09 01 2A 10 0D 92  09 01 2A 10 15 92 09 01  ....*.....*.....
1450: 2A 10 16 92 09 01 2A 10  17 92 09 01 2A 10 18 92  *.....*.....*...
1460: 09 01 2A 10 19 92 09 01  01 B7 15 3E 03 00 05 80  ..*........>....
1470: 11 15 27 10 DE 91 09 01  1D 27 10 DF 91 09 01 16  ..'......'......
1480: 27 10 E0 91 09 01 16 27  10 0E 92 09 01 19 27 10  '......'......'.
1490: 0F 92 09 01 17 27 10 10  92 09 01 16 27 10 11 92  .....'......'...
14A0: 09 01 16 27 10 12 92 09  01 16 27 10 16 92 09 01  ...'......'.....
14B0: 16 27 10 17 92 09 01 16  27 10 18 92 09 01 16 27  .'......'......'
14C0: 10 19 92 09 01 16 2A 10  DE 91 09 01 2A 10 DF 91  ......*.....*...
14D0: 09 01 2A 10 E0 91 09 01  2A 10 0E 92 09 01 2A 10  ..*.....*.....*.
14E0: 0F 92 09 01 2A 10 10 92  09 01 2A 10 11 92 09 01  ....*.....*.....
14F0: 2A 10 12 92 09 01 2A 10  16 92 09 01 2A 10 17 92  *.....*.....*...
1500: 09 01 2A 10 18 92 09 01  2A 10 19 92 09 01 01 B7  ..*.....*.......
1510: 15 3E 03 00 38 80 B7 15  27 10 DE 91 09 01 1D 27  .>..8...'......'
1520: 10 DF 91 09 01 16 27 10  E0 91 09 01 16 27 10 0E  ......'......'..
1530: 92 09 01 19 27 10 0F 92  09 01 17 27 10 10 92 09  ....'......'....
1540: 01 16 27 10 11 92 09 01  16 27 10 12 92 09 01 16  ..'......'......
1550: 27 10 13 92 09 01 16 27  10 14 92 09 01 16 27 10  '......'......'.
1560: 0D 92 09 01 14 27 10 15  92 09 01 16 2A 10 DE 91  .....'......*...
1570: 09 01 2A 10 DF 91 09 01  2A 10 E0 91 09 01 2A 10  ..*.....*.....*.
1580: 0E 92 09 01 2A 10 0F 92  09 01 2A 10 10 92 09 01  ....*.....*.....
1590: 2A 10 11 92 09 01 2A 10  12 92 09 01 2A 10 13 92  *.....*.....*...
15A0: 09 01 2A 10 14 92 09 01  2A 10 0D 92 09 01 2A 10  ..*.....*.....*.
15B0: 15 92 09 01 01 B7 15 24  5F 80 01 80 01 80 25 02  .......$_.....%.
15C0: 00 10 01 80 00 CA 15 01  EB 15 02 00 10 03 80 00  ................
15D0: D5 15 01 EB 15 02 00 10  05 80 00 E0 15 01 EB 15  ................
15E0: 02 00 10 38 80 00 EB 15  01 EB 15 07 00 10 60 80  ...8..........`.
15F0: 3C 03 00 00 10 03 80 6A  61 80 03 80 03 80 3E 03  <......ja.....>.
1600: 00 01 80 FC 16 3E 03 00  60 80 42 16 27 10 DF 91  .....>..`.B.'...
1610: 09 01 16 27 10 E0 91 09  01 16 27 10 0E 92 09 01  ...'......'.....
1620: 19 C4 02 25 80 DE 91 09  01 DE 91 09 01 2A 10 DF  ...%.........*..
1630: 91 09 01 2A 10 E0 91 09  01 2A 10 0E 92 09 01 01  ...*.....*......
1640: F9 16 3E 03 00 23 80 7F  16 27 10 DE 91 09 01 1D  ..>..#...'......
1650: 27 10 E0 91 09 01 16 27  10 0E 92 09 01 19 C4 02  '......'........
1660: 25 80 DF 91 09 01 DF 91  09 01 2A 10 DE 91 09 01  %.........*.....
1670: 2A 10 E0 91 09 01 2A 10  0E 92 09 01 01 F9 16 3E  *.....*........>
1680: 03 00 24 80 BC 16 27 10  DE 91 09 01 1D 27 10 DF  ..$...'......'..
1690: 91 09 01 16 27 10 0E 92  09 01 19 C4 02 25 80 E0  ....'........%..
16A0: 91 09 01 E0 91 09 01 2A  10 DE 91 09 01 2A 10 DF  .......*.....*..
16B0: 91 09 01 2A 10 0E 92 09  01 01 F9 16 3E 03 00 2A  ...*........>..*
16C0: 80 F9 16 27 10 DE 91 09  01 1D 27 10 DF 91 09 01  ...'......'.....
16D0: 16 27 10 E0 91 09 01 16  C4 02 25 80 0E 92 09 01  .'........%.....
16E0: 0E 92 09 01 2A 10 DE 91  09 01 2A 10 DF 91 09 01  ....*.....*.....
16F0: 2A 10 E0 91 09 01 01 F9  16 01 F6 19 3E 03 00 03  *...........>...
1700: 80 FA 17 3E 03 00 60 80  40 17 27 10 10 92 09 01  ...>..`.@.'.....
1710: 16 27 10 11 92 09 01 16  27 10 12 92 09 01 16 C4  .'......'.......
1720: 02 25 80 0F 92 09 01 0F  92 09 01 2A 10 10 92 09  .%.........*....
1730: 01 2A 10 11 92 09 01 2A  10 12 92 09 01 01 F7 17  .*.....*........
1740: 3E 03 00 23 80 7D 17 27  10 0F 92 09 01 17 27 10  >..#.}.'......'.
1750: 11 92 09 01 16 27 10 12  92 09 01 16 C4 02 25 80  .....'........%.
1760: 10 92 09 01 10 92 09 01  2A 10 0F 92 09 01 2A 10  ........*.....*.
1770: 11 92 09 01 2A 10 12 92  09 01 01 F7 17 3E 03 00  ....*........>..
1780: 24 80 BA 17 27 10 0F 92  09 01 17 27 10 10 92 09  $...'......'....
1790: 01 16 27 10 12 92 09 01  16 C4 02 25 80 11 92 09  ..'........%....
17A0: 01 11 92 09 01 2A 10 0F  92 09 01 2A 10 10 92 09  .....*.....*....
17B0: 01 2A 10 12 92 09 01 01  F7 17 3E 03 00 2A 80 F7  .*........>..*..
17C0: 17 27 10 0F 92 09 01 17  27 10 10 92 09 01 16 27  .'......'......'
17D0: 10 11 92 09 01 16 C4 02  25 80 12 92 09 01 12 92  ........%.......
17E0: 09 01 2A 10 0F 92 09 01  2A 10 10 92 09 01 2A 10  ..*.....*.....*.
17F0: 11 92 09 01 01 F7 17 01  F6 19 3E 03 00 05 80 F8  ..........>.....
1800: 18 3E 03 00 60 80 3E 18  27 10 14 92 09 01 16 27  .>..`.>.'......'
1810: 10 0D 92 09 01 14 27 10  15 92 09 01 16 C4 02 25  ......'........%
1820: 80 13 92 09 01 13 92 09  01 2A 10 14 92 09 01 2A  .........*.....*
1830: 10 0D 92 09 01 2A 10 15  92 09 01 01 F5 18 3E 03  .....*........>.
1840: 00 23 80 7B 18 27 10 13  92 09 01 16 27 10 0D 92  .#.{.'......'...
1850: 09 01 14 27 10 15 92 09  01 16 C4 02 25 80 14 92  ...'........%...
1860: 09 01 14 92 09 01 2A 10  13 92 09 01 2A 10 0D 92  ......*.....*...
1870: 09 01 2A 10 15 92 09 01  01 F5 18 3E 03 00 24 80  ..*........>..$.
1880: B8 18 27 10 13 92 09 01  16 27 10 14 92 09 01 16  ..'......'......
1890: 27 10 15 92 09 01 16 C4  02 25 80 0D 92 09 01 0D  '........%......
18A0: 92 09 01 2A 10 13 92 09  01 2A 10 14 92 09 01 2A  ...*.....*.....*
18B0: 10 15 92 09 01 01 F5 18  3E 03 00 2A 80 F5 18 27  ........>..*...'
18C0: 10 13 92 09 01 16 27 10  14 92 09 01 16 27 10 0D  ......'......'..
18D0: 92 09 01 14 C4 02 25 80  15 92 09 01 15 92 09 01  ......%.........
18E0: 2A 10 13 92 09 01 2A 10  14 92 09 01 2A 10 0D 92  *.....*.....*...
18F0: 09 01 01 F5 18 01 F6 19  3E 03 00 38 80 F6 19 3E  ........>..8...>
1900: 03 00 60 80 3C 19 27 10  17 92 09 01 16 27 10 18  ..`.<.'......'..
1910: 92 09 01 16 27 10 19 92  09 01 16 C4 02 25 80 16  ....'........%..
1920: 92 09 01 16 92 09 01 2A  10 17 92 09 01 2A 10 18  .......*.....*..
1930: 92 09 01 2A 10 19 92 09  01 01 F3 19 3E 03 00 23  ...*........>..#
1940: 80 79 19 27 10 16 92 09  01 16 27 10 18 92 09 01  .y.'......'.....
1950: 16 27 10 19 92 09 01 16  C4 02 25 80 17 92 09 01  .'........%.....
1960: 17 92 09 01 2A 10 16 92  09 01 2A 10 18 92 09 01  ....*.....*.....
1970: 2A 10 19 92 09 01 01 F3  19 3E 03 00 24 80 B6 19  *........>..$...
1980: 27 10 16 92 09 01 16 27  10 17 92 09 01 16 27 10  '......'......'.
1990: 19 92 09 01 16 C4 02 25  80 18 92 09 01 18 92 09  .......%........
19A0: 01 2A 10 16 92 09 01 2A  10 17 92 09 01 2A 10 19  .*.....*.....*..
19B0: 92 09 01 01 F3 19 3E 03  00 2A 80 F3 19 27 10 16  ......>..*...'..
19C0: 92 09 01 16 27 10 17 92  09 01 16 27 10 18 92 09  ....'......'....
19D0: 01 16 C4 02 25 80 19 92  09 01 19 92 09 01 2A 10  ....%.........*.
19E0: 16 92 09 01 2A 10 17 92  09 01 2A 10 18 92 09 01  ....*.....*.....
19F0: 01 F3 19 01 F6 19 02 03  00 62 80 01 12 1A 1C 1B  .........b......
1A00: 80 48 63 80 1C 28 80 03  02 00 03 80 1A 64 00 01  .Hc..(.......d..
1A10: 63 10 1C 2D 80 1A 64 00  6B 69 64 6C 30 0D 92 09  c..-..d.kidl0...
1A20: 01 BA 0D 92 09 01 64 80  65 80 66 80 5B 80 BA F0  ......d.e.f.[...
1A30: FF FF 7F 67 80 68 80 69  80 6A 80 BA DE 91 09 01  ...g.h.i.j......
1A40: 6B 80 6C 80 6D 80 6E 80  BA DF 91 09 01 6F 80 70  k.l.m.n......o.p
1A50: 80 71 80 72 80 BA E0 91  09 01 73 80 74 80 75 80  .q.r......s.t.u.
1A60: 76 80 BA 0E 92 09 01 77  80 78 80 79 80 6E 80 BA  v......w.x.y.n..
1A70: 0F 92 09 01 7A 80 7B 80  7C 80 7D 80 BA 10 92 09  ....z.{.|.}.....
1A80: 01 7E 80 7F 80 80 80 6E  80 BA 11 92 09 01 81 80  .~.....n........
1A90: 82 80 83 80 84 80 BA 12  92 09 01 85 80 86 80 87  ................
1AA0: 80 6E 80 BA 13 92 09 01  88 80 89 80 4F 80 8A 80  .n..........O...
1AB0: BA 14 92 09 01 8B 80 8C  80 8D 80 8E 80 BA 15 92  ................
1AC0: 09 01 8F 80 90 80 91 80  92 80 BA 16 92 09 01 93  ................
1AD0: 80 94 80 95 80 6E 80 BA  17 92 09 01 96 80 97 80  .....n..........
1AE0: 98 80 99 80 BA 18 92 09  01 9A 80 9B 80 9C 80 9D  ................
1AF0: 80 BA 19 92 09 01 96 80  97 80 98 80 9E 80 5C 00  ..............\.
1B00: 33 80 5C 01 33 80 9A 5D  34 80 03 80 4A F0 FF FF  3.\.3..]4...J...
1B10: 7F 0D 92 09 01 4A 0D 92  09 01 F0 FF FF 7F 6F 76  .....J........ov
1B20: 0D 92 09 01 6F 76 F0 FF  FF 7F 45 1A 80 F8 FF FF  ....ov....E.....
1B30: 7F F8 FF FF 7F 73 30 35  30 01 80 1A 43 00 29 0F  .....s050...C.).
1B40: 0D 92 09 01 0B 2B 0D 92  09 01 9F 80 23 29 0F 0D  .....+......#)..
1B50: 92 09 01 0C 24 A0 80 01  80 01 80 25 02 00 10 01  ....$......%....
1B60: 80 00 67 1B 01 67 1B 29  0F F0 FF FF 7F 12 1C 1B  ..g..g.)........
1B70: 80 29 0F 0D 92 09 01 05  1C 36 80 45 1A 80 F8 FF  .).......6.E....
1B80: FF 7F F8 FF FF 7F 30 30  31 31 01 80 1C 5C 80 52  ......0011...\.R
1B90: 1A 80 F8 FF FF 7F F8 FF  FF 7F 73 30 35 30 45 1A  ..........s050E.
1BA0: 80 F8 FF FF 7F F8 FF FF  7F 73 30 35 32 01 80 29  .........s052..)
1BB0: 0F F0 FF FF 7F 13 29 0F  0D 92 09 01 06 29 0F 0D  ......)......)..
1BC0: 92 09 01 07 2B 0D 92 09  01 A1 80 23 29 0F 0D 92  ....+......#)...
1BD0: 09 01 08 52 1A 80 F8 FF  FF 7F F8 FF FF 7F 73 30  ...R..........s0
1BE0: 35 32 45 1A 80 F8 FF FF  7F F8 FF FF 7F 73 30 35  52E..........s05
1BF0: 33 01 80 4A 0D 92 09 01  E0 91 09 01 6F 76 0D 92  3..J........ov..
1C00: 09 01 2B 0D 92 09 01 A2  80 1C 36 80 4A E0 91 09  ..+.......6.J...
1C10: 01 0D 92 09 01 4A F0 FF  FF 7F E0 91 09 01 6F 76  .....J........ov
1C20: F0 FF FF 7F 6F 76 E0 91  09 01 29 0F E0 91 09 01  ....ov....).....
1C30: 0D 52 1A 80 F8 FF FF 7F  F8 FF FF 7F 73 30 35 33  .R..........s053
1C40: 45 1A 80 F8 FF FF 7F F8  FF FF 7F 73 30 35 34 01  E..........s054.
1C50: 80 1C 1B 80 23 52 1A 80  F8 FF FF 7F F8 FF FF 7F  ....#R..........
1C60: 73 30 35 34 45 1A 80 F8  FF FF 7F F8 FF FF 7F 73  s054E..........s
1C70: 30 35 35 01 80 1C 06 80  4A 0D 92 09 01 18 92 09  055.....J.......
1C80: 01 6F 76 0D 92 09 01 2B  0D 92 09 01 A3 80 1C 06  .ov....+........
1C90: 80 4A F0 FF FF 7F 18 92  09 01 6F 76 F0 FF FF 7F  .J........ov....
1CA0: 29 0F 18 92 09 01 09 23  52 1A 80 F8 FF FF 7F F8  )......#R.......
1CB0: FF FF 7F 73 30 35 35 45  1A 80 F8 FF FF 7F F8 FF  ...s055E........
1CC0: FF 7F 73 30 35 36 01 80  29 0F 0D 92 09 01 0F 2B  ..s056..)......+
1CD0: 0D 92 09 01 A4 80 45 1A  80 F8 FF FF 7F F8 FF FF  ......E.........
1CE0: 7F 30 30 31 34 01 80 1C  5C 80 4A F0 FF FF 7F 0D  .0014...\.J.....
1CF0: 92 09 01 6F 76 F0 FF FF  7F 23 29 0F 0D 92 09 01  ...ov....#).....
1D00: 10 52 1A 80 F8 FF FF 7F  F8 FF FF 7F 73 30 35 36  .R..........s056
1D10: 02 09 10 23 80 00 2C 1D  45 1A 80 F8 FF FF 7F F8  ...#..,.E.......
1D20: FF FF 7F 73 30 37 31 01  80 01 59 1D 02 09 10 24  ...s071...Y....$
1D30: 80 00 48 1D 45 1A 80 F8  FF FF 7F F8 FF FF 7F 73  ..H.E..........s
1D40: 30 37 31 01 80 01 59 1D  45 1A 80 F8 FF FF 7F F8  071...Y.E.......
1D50: FF FF 7F 73 30 35 37 01  80 4A 0D 92 09 01 F0 FF  ...s057..J......
1D60: FF 7F 6F 76 0D 92 09 01  29 0F 0D 92 09 01 05 2B  ..ov....)......+
1D70: 0D 92 09 01 A5 80 1C 36  80 45 1A 80 F8 FF FF 7F  .......6.E......
1D80: F8 FF FF 7F 30 30 31 31  01 80 23 29 0F 0D 92 09  ....0011..#)....
1D90: 01 06 24 A6 80 01 80 01  80 25 02 00 10 01 80 00  ..$......%......
1DA0: AF 1D 29 0F F0 FF FF 7F  12 1C 1B 80 01 AF 1D 29  ..)............)
1DB0: 0F F0 FF FF 7F 13 02 09  10 23 80 00 D0 1D 52 1A  .........#....R.
1DC0: 80 F8 FF FF 7F F8 FF FF  7F 73 30 37 31 01 F9 1D  .........s071...
1DD0: 02 09 10 24 80 00 EA 1D  52 1A 80 F8 FF FF 7F F8  ...$....R.......
1DE0: FF FF 7F 73 30 37 31 01  F9 1D 52 1A 80 F8 FF FF  ...s071...R.....
1DF0: 7F F8 FF FF 7F 73 30 35  37 45 1A 80 F8 FF FF 7F  .....s057E......
1E00: F8 FF FF 7F 73 30 35 32  01 80 29 0F 0D 92 09 01  ....s052..).....
1E10: 0B 7C 00 0D 92 09 01 2B  0D 92 09 01 A7 80 23 7C  .|.....+......#|
1E20: 01 0D 92 09 01 29 0F 0D  92 09 01 0C 52 1A 80 F8  .....)......R...
1E30: FF FF 7F F8 FF FF 7F 73  30 35 32 45 1A 80 F8 FF  .......s052E....
1E40: FF 7F F8 FF FF 7F 73 30  35 38 01 80 4B 0D 92 09  ......s058..K...
1E50: 01 A8 80 6F 76 0D 92 09  01 29 0F 0D 92 09 01 01  ...ov....)......
1E60: 2B 0D 92 09 01 A9 80 23  2B 0D 92 09 01 AA 80 23  +......#+......#
1E70: 29 0F 0D 92 09 01 02 29  0F 0D 92 09 01 03 29 0F  )......)......).
1E80: 0D 92 09 01 04 52 1A 80  F8 FF FF 7F F8 FF FF 7F  .....R..........
1E90: 73 30 35 38 45 1A 80 F8  FF FF 7F F8 FF FF 7F 73  s058E..........s
1EA0: 30 35 39 01 80 4A F0 FF  FF 7F 0D 92 09 01 29 0F  059..J........).
1EB0: 0D 92 09 01 09 2B 0D 92  09 01 AB 80 23 29 0F 0D  .....+......#)..
1EC0: 92 09 01 0A 6F 76 F0 FF  FF 7F 52 1A 80 F8 FF FF  ....ov....R.....
1ED0: 7F F8 FF FF 7F 73 30 35  39 02 09 10 23 80 00 F5  .....s059...#...
1EE0: 1E 45 1A 80 F8 FF FF 7F  F8 FF FF 7F 73 30 37 32  .E..........s072
1EF0: 01 80 01 22 1F 02 09 10  24 80 00 11 1F 45 1A 80  ..."....$....E..
1F00: F8 FF FF 7F F8 FF FF 7F  73 30 37 32 01 80 01 22  ........s072..."
1F10: 1F 45 1A 80 F8 FF FF 7F  F8 FF FF 7F 73 30 36 33  .E..........s063
1F20: 01 80 4A 0D 92 09 01 F0  FF FF 7F 6F 76 0D 92 09  ..J........ov...
1F30: 01 5D 01 80 1D 80 29 0F  0D 92 09 01 05 2B 0D 92  .]....)......+..
1F40: 09 01 AC 80 1C 36 80 45  1A 80 F8 FF FF 7F F8 FF  .....6.E........
1F50: FF 7F 30 30 31 31 01 80  23 29 0F 0D 92 09 01 06  ..0011..#)......
1F60: 29 0F 0D 92 09 01 07 29  0F F0 FF FF 7F 12 1C 1B  )......)........
1F70: 80 1A 64 00 02 09 10 23  80 00 8E 1F 52 1A 80 F8  ..d....#....R...
1F80: FF FF 7F F8 FF FF 7F 73  30 37 32 01 B7 1F 02 09  .......s072.....
1F90: 10 24 80 00 A8 1F 52 1A  80 F8 FF FF 7F F8 FF FF  .$....R.........
1FA0: 7F 73 30 37 32 01 B7 1F  52 1A 80 F8 FF FF 7F F8  .s072...R.......
1FB0: FF FF 7F 73 30 36 33 29  0F 0D 92 09 01 08 29 0F  ...s063)......).
1FC0: F0 FF FF 7F 13 45 1A 80  F8 FF FF 7F F8 FF FF 7F  .....E..........
1FD0: 73 30 36 30 01 80 1A 43  00 29 0F 0D 92 09 01 05  s060...C.)......
1FE0: 1C 36 80 45 1A 80 F8 FF  FF 7F F8 FF FF 7F 30 30  .6.E..........00
1FF0: 31 31 01 80 1C AD 80 29  0F 0D 92 09 01 06 52 1A  11.....)......R.
2000: 80 F8 FF FF 7F F8 FF FF  7F 73 30 36 30 45 1A 80  .........s060E..
2010: F8 FF FF 7F F8 FF FF 7F  73 30 36 32 01 80 45 1A  ........s062..E.
2020: 80 F8 FF FF 7F F8 FF FF  7F 38 31 36 30 01 80 2B  .........8160..+
2030: 0D 92 09 01 AE 80 23 52  1A 80 F8 FF FF 7F F8 FF  ......#R........
2040: FF 7F 73 30 36 32 45 1A  80 F8 FF FF 7F F8 FF FF  ..s062E.........
2050: 7F 62 6C 6F 66 01 80 45  1A 80 F8 FF FF 7F F8 FF  .blof..E........
2060: FF 7F 73 30 36 31 01 80  45 1A 80 F8 FF FF 7F F8  ..s061..E.......
2070: FF FF 7F 38 31 36 30 01  80 2B 0D 92 09 01 AF 80  ...8160..+......
2080: 23 52 1A 80 F8 FF FF 7F  F8 FF FF 7F 73 30 36 31  #R..........s061
2090: 45 1A 80 F8 FF FF 7F F8  FF FF 7F 62 6C 6F 66 01  E..........blof.
20A0: 80 02 09 10 23 80 00 BD  20 45 1A 80 F8 FF FF 7F  ....#... E......
20B0: F8 FF FF 7F 73 30 37 31  01 80 01 EA 20 02 09 10  ....s071.... ...
20C0: 24 80 00 D9 20 45 1A 80  F8 FF FF 7F F8 FF FF 7F  $... E..........
20D0: 73 30 37 31 01 80 01 EA  20 45 1A 80 F8 FF FF 7F  s071.... E......
20E0: F8 FF FF 7F 73 30 35 37  01 80 29 0F 0D 92 09 01  ....s057..).....
20F0: 07 2B 0D 92 09 01 B0 80  23 29 0F 0D 92 09 01 08  .+......#)......
2100: 02 09 10 23 80 00 1A 21  52 1A 80 F8 FF FF 7F F8  ...#...!R.......
2110: FF FF 7F 73 30 37 31 01  43 21 02 09 10 24 80 00  ...s071.C!...$..
2120: 34 21 52 1A 80 F8 FF FF  7F F8 FF FF 7F 73 30 37  4!R..........s07
2130: 31 01 43 21 52 1A 80 F8  FF FF 7F F8 FF FF 7F 73  1.C!R..........s
2140: 30 35 37 45 1A 80 F8 FF  FF 7F F8 FF FF 7F 73 30  057E..........s0
2150: 36 35 01 80 29 0F 0D 92  09 01 01 2B 0D 92 09 01  65..)......+....
2160: B1 80 23 29 0F 0D 92 09  01 02 52 1A 80 F8 FF FF  ..#)......R.....
2170: 7F F8 FF FF 7F 73 30 36  35 45 1A 80 F8 FF FF 7F  .....s065E......
2180: F8 FF FF 7F 73 30 36 36  01 80 1C 03 80 29 0F 0D  ....s066.....)..
2190: 92 09 01 0F 2B 0D 92 09  01 B2 80 1C 5C 80 6B 64  ....+.......\.kd
21A0: 66 74 30 E0 91 09 01 5C  00 33 80 5C 01 33 80 9A  ft0....\.3.\.3..
21B0: 5D 34 80 03 80 6E F0 FF  FF 7F 32 80 99 F0 FF FF  ]4...n....2.....
21C0: 7F 1C 06 80 23 29 0F 0D  92 09 01 10 52 1A 80 F8  ....#)......R...
21D0: FF FF 7F F8 FF FF 7F 73  30 36 36 45 1A 80 F8 FF  .......s066E....
21E0: FF 7F F8 FF FF 7F 73 30  36 34 01 80 7B 0D 92 09  ......s064..{...
21F0: 01 27 0F 0D 92 09 01 1C  1C 1B 80 4A F0 FF FF 7F  .'.........J....
2200: 0D 92 09 01 6F 76 F0 FF  FF 7F 2A 0F 0D 92 09 01  ....ov....*.....
2210: 2B 0D 92 09 01 B3 80 23  52 1A 80 F8 FF FF 7F F8  +......#R.......
2220: FF FF 7F 73 30 36 34 02  09 10 23 80 00 43 22 45  ...s064...#..C"E
2230: 1A 80 F8 FF FF 7F F8 FF  FF 7F 73 30 37 33 01 80  ..........s073..
2240: 01 70 22 02 09 10 24 80  00 5F 22 45 1A 80 F8 FF  .p"...$.._"E....
2250: FF 7F F8 FF FF 7F 73 30  37 33 01 80 01 70 22 45  ......s073...p"E
2260: 1A 80 F8 FF FF 7F F8 FF  FF 7F 73 30 36 37 01 80  ..........s067..
2270: 4A 0D 92 09 01 F0 FF FF  7F 6F 76 0D 92 09 01 29  J........ov....)
2280: 0F 0D 92 09 01 01 2B 0D  92 09 01 B4 80 23 29 0F  ......+......#).
2290: 0D 92 09 01 02 29 0F 0D  92 09 01 03 2B 0D 92 09  .....)......+...
22A0: 01 B5 80 23 29 0F 0D 92  09 01 04 29 0F 0D 92 09  ...#)......)....
22B0: 01 1D 02 09 10 23 80 00  CC 22 52 1A 80 F8 FF FF  .....#..."R.....
22C0: 7F F8 FF FF 7F 73 30 37  33 01 F5 22 02 09 10 24  .....s073.."...$
22D0: 80 00 E6 22 52 1A 80 F8  FF FF 7F F8 FF FF 7F 73  ..."R..........s
22E0: 30 37 33 01 F5 22 52 1A  80 F8 FF FF 7F F8 FF FF  073.."R.........
22F0: 7F 73 30 36 37 02 09 10  23 80 00 11 23 45 1A 80  .s067...#...#E..
2300: F8 FF FF 7F F8 FF FF 7F  73 30 37 34 01 80 01 3E  ........s074...>
2310: 23 02 09 10 24 80 00 2D  23 45 1A 80 F8 FF FF 7F  #...$..-#E......
2320: F8 FF FF 7F 73 30 37 34  01 80 01 3E 23 45 1A 80  ....s074...>#E..
2330: F8 FF FF 7F F8 FF FF 7F  73 30 36 39 01 80 29 0F  ........s069..).
2340: 0D 92 09 01 0D 2B 0D 92  09 01 B6 80 23 29 0F 0D  .....+......#)..
2350: 92 09 01 0E 29 0F 0D 92  09 01 01 2B 0D 92 09 01  ....)......+....
2360: B7 80 23 6E F0 FF FF 7F  2A 80 99 F0 FF FF 7F 1C  ..#n....*.......
2370: 06 80 29 0F 0D 92 09 01  02 29 0F 0D 92 09 01 03  ..)......)......
2380: 29 0F 0D 92 09 01 04 02  09 10 23 80 00 A1 23 52  ).........#...#R
2390: 1A 80 F8 FF FF 7F F8 FF  FF 7F 73 30 37 34 01 CA  ..........s074..
23A0: 23 02 09 10 24 80 00 BB  23 52 1A 80 F8 FF FF 7F  #...$...#R......
23B0: F8 FF FF 7F 73 30 37 34  01 CA 23 52 1A 80 F8 FF  ....s074..#R....
23C0: FF 7F F8 FF FF 7F 73 30  36 39 45 1A 80 F8 FF FF  ......s069E.....
23D0: 7F F8 FF FF 7F 73 30 37  30 01 80 7B 0D 92 09 01  .....s070..{....
23E0: 4B 0D 92 09 01 B8 80 6F  76 0D 92 09 01 5D 01 80  K......ov....]..
23F0: 1D 80 2B 0D 92 09 01 B9  80 23 52 1A 80 F8 FF FF  ..+......#R.....
2400: 7F F8 FF FF 7F 73 30 37  30 45 1A 80 F8 FF FF 7F  .....s070E......
2410: F8 FF FF 7F 73 30 36 38  01 80 1C 06 80 27 0F 0D  ....s068.....'..
2420: 92 09 01 1E 1C 26 80 1A  64 00 52 1A 80 F8 FF FF  .....&..d.R.....
2430: 7F F8 FF FF 7F 73 30 36  38 1C 3F 80 69 00 60 80  .....s068.?.i.`.
2440: 69 00 03 80 6A 61 80 03  80 03 80 D9 01 1C 03 80  i...ja..........
2450: 5C 00 01 80 5C 01 01 80  9A 5D 34 80 03 80 AB 11  \...\....]4.....
2460: 01 80 1C 03 80 46 00 45  00 80 F8 FF FF 7F F8 FF  .....F.E........
2470: FF 7F 66 64 69 32 01 80  45 02 80 F8 FF FF 7F F8  ..fdi2..E.......
2480: FF FF 7F 71 73 74 63 01  80 21 00                 ...qstc..!.     
```

#### Opcodes

```
  0: 0x0D0F [0x03] ExtData[1]->WorkLocal[2] = 0*
  1: 0x0D14 [0x42] SET_CLI_EVENT_CANCEL_DATA()
  2: 0x0D15 [0x1A] CALL_SUBROUTINE(address=0x0064)
  3: 0x0D18 [0x46] CAMERA_CONTROL: Disable user control
  4: 0x0D1A [0x38] SET_CLIENT_EVENT_MODE(mode=147*)
  5: 0x0D1D [0x2F] Magh Bihu (ID: 17404429/0x0109920D)->Render.Flags0 &= ~0x80000 // Bit 19
  6: 0x0D23 [0x2F] Mandragora Warden (ID: 17404430/0x0109920E)->Render.Flags0 &= ~0x80000 // Bit 19
  7: 0x0D29 [0x2F] Mandragora Warden (ID: 17404431/0x0109920F)->Render.Flags0 &= ~0x80000 // Bit 19
  8: 0x0D2F [0x2F] Mandragora Warden (ID: 17404432/0x01099210)->Render.Flags0 &= ~0x80000 // Bit 19
  9: 0x0D35 [0x2F] Mandragora Warden (ID: 17404433/0x01099211)->Render.Flags0 &= ~0x80000 // Bit 19
 10: 0x0D3B [0x2F] Mandragora Warden (ID: 17404434/0x01099212)->Render.Flags0 &= ~0x80000 // Bit 19
 11: 0x0D41 [0x2F] Mandragora Warden (ID: 17404435/0x01099213)->Render.Flags0 &= ~0x80000 // Bit 19
 12: 0x0D47 [0x2F] Mandragora Warden (ID: 17404436/0x01099214)->Render.Flags0 &= ~0x80000 // Bit 19
 13: 0x0D4D [0x2F] Mandragora Warden (ID: 17404437/0x01099215)->Render.Flags0 &= ~0x80000 // Bit 19
 14: 0x0D53 [0x2F] Mandragora Warden (ID: 17404438/0x01099216)->Render.Flags0 &= ~0x80000 // Bit 19
 15: 0x0D59 [0x2F] Mandragora Warden (ID: 17404439/0x01099217)->Render.Flags0 &= ~0x80000 // Bit 19
 16: 0x0D5F [0x2F] Mandragora Warden (ID: 17404440/0x01099218)->Render.Flags0 &= ~0x80000 // Bit 19
 17: 0x0D65 [0x2F] Mandragora Warden (ID: 17404441/0x01099219)->Render.Flags0 &= ~0x80000 // Bit 19
 18: 0x0D6B [0x92] Mandragora Warden (ID: 17404382/0x010991DE)->Render.Flags3 ^= 0x01
 19: 0x0D71 [0x92] Mandragora Warden (ID: 17404383/0x010991DF)->Render.Flags3 ^= 0x01
 20: 0x0D77 [0x92] Mandragora Warden (ID: 17404384/0x010991E0)->Render.Flags3 ^= 0x01
 21: 0x0D7D [0x94] Mandragora Warden (ID: 17404382/0x010991DE)->Render.Flags3 ^= 0x01
 22: 0x0D83 [0x94] Mandragora Warden (ID: 17404383/0x010991DF)->Render.Flags3 ^= 0x01
 23: 0x0D89 [0x94] Mandragora Warden (ID: 17404384/0x010991E0)->Render.Flags3 ^= 0x01
 24: 0x0D8F [0x94] Magh Bihu (ID: 17404429/0x0109920D)->Render.Flags3 ^= 0x01
 25: 0x0D95 [0x94] Mandragora Warden (ID: 17404430/0x0109920E)->Render.Flags3 ^= 0x01
 26: 0x0D9B [0x94] Mandragora Warden (ID: 17404431/0x0109920F)->Render.Flags3 ^= 0x01
 27: 0x0DA1 [0x94] Mandragora Warden (ID: 17404432/0x01099210)->Render.Flags3 ^= 0x01
 28: 0x0DA7 [0x94] Mandragora Warden (ID: 17404433/0x01099211)->Render.Flags3 ^= 0x01
 29: 0x0DAD [0x94] Mandragora Warden (ID: 17404434/0x01099212)->Render.Flags3 ^= 0x01
 30: 0x0DB3 [0x94] Mandragora Warden (ID: 17404435/0x01099213)->Render.Flags3 ^= 0x01
 31: 0x0DB9 [0x94] Mandragora Warden (ID: 17404436/0x01099214)->Render.Flags3 ^= 0x01
 32: 0x0DBF [0x94] Mandragora Warden (ID: 17404437/0x01099215)->Render.Flags3 ^= 0x01
 33: 0x0DC5 [0x94] Mandragora Warden (ID: 17404438/0x01099216)->Render.Flags3 ^= 0x01
 34: 0x0DCB [0x94] Mandragora Warden (ID: 17404439/0x01099217)->Render.Flags3 ^= 0x01
 35: 0x0DD1 [0x94] Mandragora Warden (ID: 17404440/0x01099218)->Render.Flags3 ^= 0x01
 36: 0x0DD7 [0x94] Mandragora Warden (ID: 17404441/0x01099219)->Render.Flags3 ^= 0x01
 37: 0x0DDD [0x94] LocalPlayer->Render.Flags3 ^= 0x01
 38: 0x0DE3 [0xBA] SET_ENTITY_POSITION(entity_id=Mandragora Warden (ID: 17404382/0x010991DE), pos_x=81.981*, pos_z=139.556*, pos_y=8.593*, direction=182.5°*)
 39: 0x0DF0 [0xBA] SET_ENTITY_POSITION(entity_id=Mandragora Warden (ID: 17404383/0x010991DF), pos_x=99.068*, pos_z=122.514*, pos_y=8.548*, direction=100.4°*)
 40: 0x0DFD [0xBA] SET_ENTITY_POSITION(entity_id=Mandragora Warden (ID: 17404384/0x010991E0), pos_x=101.978*, pos_z=121.969*, pos_y=8.369*, direction=101.0°*)
 41: 0x0E0A [0xBA] SET_ENTITY_POSITION(entity_id=Mandragora Warden (ID: 17404430/0x0109920E), pos_x=104.000*, pos_z=136.000*, pos_y=8.553*, direction=180.0°*)
 42: 0x0E17 [0xBA] SET_ENTITY_POSITION(entity_id=Mandragora Warden (ID: 17404431/0x0109920F), pos_x=103.000*, pos_z=139.000*, pos_y=8.553*, direction=180.0°*)
 43: 0x0E24 [0xBA] SET_ENTITY_POSITION(entity_id=Mandragora Warden (ID: 17404432/0x01099210), pos_x=103.000*, pos_z=138.000*, pos_y=8.553*, direction=180.0°*)
