# 0x7FFFFFF0 - Zone Events

## Common Data

| Field            | Value                      |
|------------------|----------------------------|
| Zone             | The Boyahda Tree (ID: 153) |
| Block Size       | 1380 bytes                 |
| Total Events     | 26                         |
| References Count | 54                         |

## List of Events

| Event ID                   | Entrypoint   |   Size |   Instructions |
|----------------------------|--------------|--------|----------------|
| [65535](#event-65535)      | 0x0000       |      1 |              1 |
| [14](#event-14)            | 0x0001       |    313 |             35 |
| [0](#event-0)              | 0x013A       |      1 |              1 |
| [65534](#event-65534)      | 0x013B       |      1 |              1 |
| [65535.1](#event-655351)   | 0x013C       |      6 |              2 |
| [65535.2](#event-655352)   | 0x0142       |      6 |              2 |
| [65535.3](#event-655353)   | 0x0148       |      6 |              2 |
| [65535.4](#event-655354)   | 0x014E       |      6 |              2 |
| [65535.5](#event-655355)   | 0x0154       |      6 |              2 |
| [65535.6](#event-655356)   | 0x015A       |     10 |              2 |
| [65535.7](#event-655357)   | 0x0164       |     14 |              4 |
| [65535.8](#event-655358)   | 0x0172       |     55 |              5 |
| [65535.9](#event-655359)   | 0x01A9       |     10 |              2 |
| [65535.10](#event-6553510) | 0x01B3       |     93 |              9 |
| [65535.11](#event-6553511) | 0x0210       |     56 |              6 |
| [65535.12](#event-6553512) | 0x0248       |    236 |             42 |
| [65535.13](#event-6553513) | 0x0334       |     27 |              5 |
| [65535.14](#event-6553514) | 0x034F       |     42 |              6 |
| [65535.15](#event-6553515) | 0x0379       |     24 |              4 |
| [65535.16](#event-6553516) | 0x0391       |     24 |              4 |
| [65535.17](#event-6553517) | 0x03A9       |     15 |              5 |
| [65535.18](#event-6553518) | 0x03B8       |     15 |              5 |
| [65535.19](#event-6553519) | 0x03C7       |     22 |              8 |
| [65535.20](#event-6553520) | 0x03DD       |     15 |              5 |
| [65535.21](#event-6553521) | 0x03EC       |     15 |              5 |
| [65535.22](#event-6553522) | 0x03FB       |     22 |              8 |

## DAT References (imed_data)

|   Index | Hex Value   |   Dec Value |
|---------|-------------|-------------|
|       0 | 0x00C8      |         200 |
|       1 | 0x0000      |           0 |
|       2 | 0x0013      |          19 |
|       3 | 0x0001      |           1 |
|       4 | 0x0017      |          23 |
|       5 | 0x00FF      |         255 |
|       6 | 0x0006      |           6 |
|       7 | 0x82F6      |       33526 |
|       8 | 0xFFFF0F72  |  4294905714 |
|       9 | 0xFFFFAF5D  |  4294946653 |
|      10 | 0x0895      |        2197 |
|      11 | 0x0007      |           7 |
|      12 | 0x0078      |         120 |
|      13 | 0x00C9      |         201 |
|      14 | 0x1529B     |       86683 |
|      15 | 0x2223A     |      139834 |
|      16 | 0x2140      |        8512 |
|      17 | 0x0FE3      |        4067 |
|      18 | 0x000D      |          13 |
|      19 | 0x18B43     |      101187 |
|      20 | 0x2264F     |      140879 |
|      21 | 0x214F      |        8527 |
|      22 | 0x0028      |          40 |
|      23 | 0x0FC8      |        4040 |
|      24 | 0x00FB      |         251 |
|      25 | 0x003C      |          60 |
|      26 | 0x00B4      |         180 |
|      27 | 0x0082      |         130 |
|      28 | 0x00A0      |         160 |
|      29 | 0x0005      |           5 |
|      30 | 0x0002      |           2 |
|      31 | 0x000A      |          10 |
|      32 | 0x0009      |           9 |
|      33 | 0x0046      |          70 |
|      34 | 0x008C      |         140 |
|      35 | 0x00D2      |         210 |
|      36 | 0x1424F     |       82511 |
|      37 | 0x2216F     |      139631 |
|      38 | 0x21AC      |        8620 |
|      39 | 0x184F9     |       99577 |
|      40 | 0x221D3     |      139731 |
|      41 | 0x216A      |        8554 |
|      42 | 0x1A20D     |      107021 |
|      43 | 0x229BF     |      141759 |
|      44 | 0x20F1      |        8433 |
|      45 | 0x131FE     |       78334 |
|      46 | 0x2235A     |      140122 |
|      47 | 0x22F6      |        8950 |
|      48 | 0x18025     |       98341 |
|      49 | 0x22182     |      139650 |
|      50 | 0x2192      |        8594 |
|      51 | 0x191D5     |      102869 |
|      52 | 0x22857     |      141399 |
|      53 | 0x20F2      |        8434 |

## Events

### Event 65535

#### Metadata

| Field        | Value   |
|--------------|---------|
| Entrypoint   | 0x0000  |
| Data Size    | 1 bytes |
| Instructions | 1       |

```
      00 01 02 03 04 05 06 07  08 09 0A 0B 0C 0D 0E 0F
      -- -- -- -- -- -- -- --  -- -- -- -- -- -- -- --
0000: 00                                                .               
```

#### Opcodes

```
  0: 0x0000 [0x00] END_REQSTACK()
```

### Event 14

#### Metadata

| Field        | Value     |
|--------------|-----------|
| Entrypoint   | 0x0001    |
| Data Size    | 313 bytes |
| Instructions | 35        |

```
      00 01 02 03 04 05 06 07  08 09 0A 0B 0C 0D 0E 0F
      -- -- -- -- -- -- -- --  -- -- -- -- -- -- -- --
0000:    03 00 00 02 10 20 01  46 01 42 45 00 80 F0 FF   ..... .F.BE....
0010: FF 7F F0 FF FF 7F 66 64  6F 31 01 80 55 00 80 F0  ......fdo1..U...
0020: FF FF 7F F0 FF FF 7F 66  64 6F 31 38 02 80 02 00  .......fdo18....
0030: 00 03 80 00 3E 00 77 04  80 05 80 A9 06 80 37 07  ....>.w.......7.
0040: 80 08 80 09 80 0A 80 94  01 E1 91 09 01 94 01 F0  ................
0050: FF FF 7F 97 01 80 03 80  79 00 F0 FF FF 7F E1 91  ........y.......
0060: 09 01 45 0B 80 F0 FF FF  7F F0 FF FF 7F 71 30 30  ..E..........q00
0070: 31 01 80 55 0B 80 F0 FF  FF 7F F0 FF FF 7F 71 30  1..U..........q0
0080: 30 31 45 00 80 F0 FF FF  7F F0 FF FF 7F 66 64 69  01E..........fdi
0090: 31 01 80 55 00 80 F0 FF  FF 7F F0 FF FF 7F 66 64  1..U..........fd
00A0: 69 31 1C 0C 80 45 0B 80  F0 FF FF 7F F0 FF FF 7F  i1...E..........
00B0: 71 30 30 32 01 80 55 0B  80 F0 FF FF 7F F0 FF FF  q002..U.........
00C0: 7F 71 30 30 32 1C 0C 80  45 00 80 E1 91 09 01 E1  .q002...E.......
00D0: 91 09 01 6F 76 6C 31 01  80 45 0B 80 F0 FF FF 7F  ...ovl1..E......
00E0: F0 FF FF 7F 71 30 30 33  01 80 1C 0C 80 45 0D 80  ....q003.....E..
00F0: E1 91 09 01 E1 91 09 01  77 68 6F 31 01 80 55 0B  ........who1..U.
0100: 80 F0 FF FF 7F F0 FF FF  7F 71 30 30 33 55 0D 80  .........q003U..
0110: F0 FF FF 7F F0 FF FF 7F  77 68 6F 31 02 00 00 03  ........who1....
0120: 80 00 25 01 78 46 00 45  0D 80 F0 FF FF 7F F0 FF  ..%.xF.E........
0130: FF 7F 77 68 69 31 01 80  21 00                    ..whi1..!.      
```

#### Opcodes

```
  0: 0x0001 [0x03] ExtData[1]->WorkLocal[0] = Work_Zone[2]
  1: 0x0006 [0x20] SET_CLI_EVENT_UC_FLAG: Lock player control
  2: 0x0008 [0x46] CAMERA_CONTROL: Disable user control
  3: 0x000A [0x42] SET_CLI_EVENT_CANCEL_DATA()
  4: 0x000B [0x45] LOAD_SCHEDULED_TASK: Load scheduler "fdo1" with entities [LocalPlayer, LocalPlayer], work=[200*, 0*]
  5: 0x001C [0x55] WAIT_LOAD_SCHEDULER: Wait for scheduler "fdo1" with entities [LocalPlayer, LocalPlayer], work=200*
  6: 0x002B [0x38] SET_CLIENT_EVENT_MODE(mode=19*)
  7: 0x002E [0x02] IF !(ExtData[1]->WorkLocal[0] == 1*) GOTO 0x003E
  8: 0x0036 [0x77] SET_EVENT_TIME_WEATHER(hour=23*, weather=255*)
  9: 0x003B [0xA9] DISABLE_GAME_TIME_SET_SPECIFIC(time_offset=0x8006)
 10: 0x003E [0x37] UPDATE_EVENT_POSITION_AND_DIR: x=33.526*, z=-61.582*, y=-20.643*, direction=193.1°*
 11: 0x0047 [0x94] ??? (ID: 17404385/0x010991E1)->Render.Flags3 ^= 0x01
 12: 0x004D [0x94] LocalPlayer->Render.Flags3 ^= 0x01
 13: 0x0053 [0x97] SAVE_SET_WIND_VALUES(wind_base=0x8001, wind_width=0x8003)
 14: 0x0058 [0x79] LocalPlayer looks at ??? (ID: 17404385/0x010991E1) (Basic look)
 15: 0x0062 [0x45] LOAD_SCHEDULED_TASK: Load scheduler "q001" with entities [LocalPlayer, LocalPlayer], work=[7*, 0*]
 16: 0x0073 [0x55] WAIT_LOAD_SCHEDULER: Wait for scheduler "q001" with entities [LocalPlayer, LocalPlayer], work=7*
 17: 0x0082 [0x45] LOAD_SCHEDULED_TASK: Load scheduler "fdi1" with entities [LocalPlayer, LocalPlayer], work=[200*, 0*]
 18: 0x0093 [0x55] WAIT_LOAD_SCHEDULER: Wait for scheduler "fdi1" with entities [LocalPlayer, LocalPlayer], work=200*
 19: 0x00A2 [0x1C] WAIT(120* ticks)
 20: 0x00A5 [0x45] LOAD_SCHEDULED_TASK: Load scheduler "q002" with entities [LocalPlayer, LocalPlayer], work=[7*, 0*]
 21: 0x00B6 [0x55] WAIT_LOAD_SCHEDULER: Wait for scheduler "q002" with entities [LocalPlayer, LocalPlayer], work=7*
 22: 0x00C5 [0x1C] WAIT(120* ticks)
 23: 0x00C8 [0x45] LOAD_SCHEDULED_TASK: Load scheduler "ovl1" with entities [??? (ID: 17404385/0x010991E1), ??? (ID: 17404385/0x010991E1)], work=[200*, 0*]
 24: 0x00D9 [0x45] LOAD_SCHEDULED_TASK: Load scheduler "q003" with entities [LocalPlayer, LocalPlayer], work=[7*, 0*]
 25: 0x00EA [0x1C] WAIT(120* ticks)
 26: 0x00ED [0x45] LOAD_SCHEDULED_TASK: Load scheduler "who1" with entities [??? (ID: 17404385/0x010991E1), ??? (ID: 17404385/0x010991E1)], work=[201*, 0*]
 27: 0x00FE [0x55] WAIT_LOAD_SCHEDULER: Wait for scheduler "q003" with entities [LocalPlayer, LocalPlayer], work=7*
 28: 0x010D [0x55] WAIT_LOAD_SCHEDULER: Wait for scheduler "who1" with entities [LocalPlayer, LocalPlayer], work=201*
 29: 0x011C [0x02] IF !(ExtData[1]->WorkLocal[0] == 1*) GOTO 0x0125
 30: 0x0124 [0x78] ENABLE_GAME_TIMER_RESET_WEATHER()
 31: 0x0125 [0x46] CAMERA_CONTROL: Restore default settings
 32: 0x0127 [0x45] LOAD_SCHEDULED_TASK: Load scheduler "whi1" with entities [LocalPlayer, LocalPlayer], work=[201*, 0*]
 33: 0x0138 [0x21] END_EVENT
 34: 0x0139 [0x00] END_REQSTACK()
```

### Event 0

#### Metadata

| Field        | Value   |
|--------------|---------|
| Entrypoint   | 0x013A  |
| Data Size    | 1 bytes |
| Instructions | 1       |

```
      00 01 02 03 04 05 06 07  08 09 0A 0B 0C 0D 0E 0F
      -- -- -- -- -- -- -- --  -- -- -- -- -- -- -- --
0130:                                00                           .     
```

#### Opcodes

```
  0: 0x013A [0x00] END_REQSTACK()
```

### Event 65534

#### Metadata

| Field        | Value   |
|--------------|---------|
| Entrypoint   | 0x013B  |
| Data Size    | 1 bytes |
| Instructions | 1       |

```
      00 01 02 03 04 05 06 07  08 09 0A 0B 0C 0D 0E 0F
      -- -- -- -- -- -- -- --  -- -- -- -- -- -- -- --
0130:                                   00                         .    
```

#### Opcodes

```
  0: 0x013B [0x00] END_REQSTACK()
```

### Event 65535.1

#### Metadata

| Field        | Value   |
|--------------|---------|
| Entrypoint   | 0x013C  |
| Data Size    | 6 bytes |
| Instructions | 2       |

```
      00 01 02 03 04 05 06 07  08 09 0A 0B 0C 0D 0E 0F
      -- -- -- -- -- -- -- --  -- -- -- -- -- -- -- --
0130:                                      03 02 10 0B              ....
0140: 7F 00                                             ..              
```

#### Opcodes

```
  0: 0x013C [0x03] Work_Zone[2] = (Entity->Render.Flags01 >> 25) & 1
  1: 0x0141 [0x00] END_REQSTACK()
```

### Event 65535.2

#### Metadata

| Field        | Value   |
|--------------|---------|
| Entrypoint   | 0x0142  |
| Data Size    | 6 bytes |
| Instructions | 2       |

```
      00 01 02 03 04 05 06 07  08 09 0A 0B 0C 0D 0E 0F
      -- -- -- -- -- -- -- --  -- -- -- -- -- -- -- --
0140:       03 02 10 07 7F 00                             ......        
```

#### Opcodes

```
  0: 0x0142 [0x03] Work_Zone[2] = Entity->Race
  1: 0x0147 [0x00] END_REQSTACK()
```

### Event 65535.3

#### Metadata

| Field        | Value   |
|--------------|---------|
| Entrypoint   | 0x0148  |
| Data Size    | 6 bytes |
| Instructions | 2       |

```
      00 01 02 03 04 05 06 07  08 09 0A 0B 0C 0D 0E 0F
      -- -- -- -- -- -- -- --  -- -- -- -- -- -- -- --
0140:                          03 09 10 07 7F 00                ......  
```

#### Opcodes

```
  0: 0x0148 [0x03] Work_Zone[9] = Entity->Race
  1: 0x014D [0x00] END_REQSTACK()
```

### Event 65535.4

#### Metadata

| Field        | Value   |
|--------------|---------|
| Entrypoint   | 0x014E  |
| Data Size    | 6 bytes |
| Instructions | 2       |

```
      00 01 02 03 04 05 06 07  08 09 0A 0B 0C 0D 0E 0F
      -- -- -- -- -- -- -- --  -- -- -- -- -- -- -- --
0140:                                            03 09                ..
0150: 10 06 7F 00                                       ....            
```

#### Opcodes

```
  0: 0x014E [0x03] Work_Zone[9] = Entity->JobId (if LocalPlayer)
  1: 0x0153 [0x00] END_REQSTACK()
```

### Event 65535.5

#### Metadata

| Field        | Value   |
|--------------|---------|
| Entrypoint   | 0x0154  |
| Data Size    | 6 bytes |
| Instructions | 2       |

```
      00 01 02 03 04 05 06 07  08 09 0A 0B 0C 0D 0E 0F
      -- -- -- -- -- -- -- --  -- -- -- -- -- -- -- --
0150:             03 08 10 06  7F 00                        ......      
```

#### Opcodes

```
  0: 0x0154 [0x03] Work_Zone[8] = Entity->JobId (if LocalPlayer)
  1: 0x0159 [0x00] END_REQSTACK()
```

### Event 65535.6

#### Metadata

| Field        | Value    |
|--------------|----------|
| Entrypoint   | 0x015A   |
| Data Size    | 10 bytes |
| Instructions | 2        |

```
      00 01 02 03 04 05 06 07  08 09 0A 0B 0C 0D 0E 0F
      -- -- -- -- -- -- -- --  -- -- -- -- -- -- -- --
0150:                                37 0E 80 0F 80 10            7.....
0160: 80 11 80 00                                       ....            
```

#### Opcodes

```
  0: 0x015A [0x37] UPDATE_EVENT_POSITION_AND_DIR: x=86.683*, z=139.834*, y=8.512*, direction=357.4°*
  1: 0x0163 [0x00] END_REQSTACK()
```

### Event 65535.7

#### Metadata

| Field        | Value    |
|--------------|----------|
| Entrypoint   | 0x0164   |
| Data Size    | 14 bytes |
| Instructions | 4        |

```
      00 01 02 03 04 05 06 07  08 09 0A 0B 0C 0D 0E 0F
      -- -- -- -- -- -- -- --  -- -- -- -- -- -- -- --
0160:             32 12 80 1F  00 13 80 14 80 15 80 1F      2...........
0170: 01 00                                             ..              
```

#### Opcodes

```
  0: 0x0164 [0x32] ExtData[1]->MainSpeed = 13* * 0.1
  1: 0x0167 [0x1F] MOVE_ENTITY: EventEntity moves to X=101.187*, Z=140.879*, Y=8.527*
  2: 0x016F [0x1F] MOVE_ENTITY: Update entity position (mode=1)
  3: 0x0171 [0x00] END_REQSTACK()
```

### Event 65535.8

#### Metadata

| Field        | Value    |
|--------------|----------|
| Entrypoint   | 0x0172   |
| Data Size    | 55 bytes |
| Instructions | 5        |

```
      00 01 02 03 04 05 06 07  08 09 0A 0B 0C 0D 0E 0F
      -- -- -- -- -- -- -- --  -- -- -- -- -- -- -- --
0170:       45 00 80 F0 FF FF  7F F0 FF FF 7F 62 6C 6F    E..........blo
0180: 6E 01 80 45 0D 80 F0 FF  FF 7F F0 FF FF 7F 62 6C  n..E..........bl
0190: 6F 6E 01 80 1C 16 80 45  00 80 F0 FF FF 7F F0 FF  on.....E........
01A0: FF 7F 62 6C 6F 66 01 80  00                       ..blof...       
```

#### Opcodes

```
  0: 0x0172 [0x45] LOAD_SCHEDULED_TASK: Load scheduler "blon" with entities [LocalPlayer, LocalPlayer], work=[200*, 0*]
  1: 0x0183 [0x45] LOAD_SCHEDULED_TASK: Load scheduler "blon" with entities [LocalPlayer, LocalPlayer], work=[201*, 0*]
  2: 0x0194 [0x1C] WAIT(40* ticks)
  3: 0x0197 [0x45] LOAD_SCHEDULED_TASK: Load scheduler "blof" with entities [LocalPlayer, LocalPlayer], work=[200*, 0*]
  4: 0x01A8 [0x00] END_REQSTACK()
```

### Event 65535.9

#### Metadata

| Field        | Value    |
|--------------|----------|
| Entrypoint   | 0x01A9   |
| Data Size    | 10 bytes |
| Instructions | 2        |

```
      00 01 02 03 04 05 06 07  08 09 0A 0B 0C 0D 0E 0F
      -- -- -- -- -- -- -- --  -- -- -- -- -- -- -- --
01A0:                             37 13 80 14 80 15 80           7......
01B0: 17 80 00                                          ...             
```

#### Opcodes

```
  0: 0x01A9 [0x37] UPDATE_EVENT_POSITION_AND_DIR: x=101.187*, z=140.879*, y=8.527*, direction=355.1°*
  1: 0x01B2 [0x00] END_REQSTACK()
```

### Event 65535.10

#### Metadata

| Field        | Value    |
|--------------|----------|
| Entrypoint   | 0x01B3   |
| Data Size    | 93 bytes |
| Instructions | 9        |

```
      00 01 02 03 04 05 06 07  08 09 0A 0B 0C 0D 0E 0F
      -- -- -- -- -- -- -- --  -- -- -- -- -- -- -- --
01B0:          45 18 80 F0 FF  FF 7F F0 FF FF 7F 73 30     E..........s0
01C0: 37 38 01 80 1C 19 80 62  12 80 F0 91 09 01 F0 91  78.....b........
01D0: 09 01 6D 61 69 31 01 80  62 12 80 EF 91 09 01 EF  ..mai1..b.......
01E0: 91 09 01 6D 61 69 31 01  80 1C 1A 80 45 00 80 F8  ...mai1.....E...
01F0: FF FF 7F F8 FF FF 7F 66  64 6F 31 01 80 1C 19 80  .......fdo1.....
0200: 52 18 80 F0 FF FF 7F F0  FF FF 7F 73 30 37 38 00  R..........s078.
```

#### Opcodes

```
  0: 0x01B3 [0x45] LOAD_SCHEDULED_TASK: Load scheduler "s078" with entities [LocalPlayer, LocalPlayer], work=[251*, 0*]
  1: 0x01C4 [0x1C] WAIT(60* ticks)
  2: 0x01C7 [0x62] LOAD_EVENT_SCHEDULER: Load scheduler "mai1" with entities [Spare Two (ID: 17404400/0x010991F0), Spare Two (ID: 17404400/0x010991F0)], work=[13*, 0*]
  3: 0x01D8 [0x62] LOAD_EVENT_SCHEDULER: Load scheduler "mai1" with entities [Spare Zero (ID: 17404399/0x010991EF), Spare Zero (ID: 17404399/0x010991EF)], work=[13*, 0*]
  4: 0x01E9 [0x1C] WAIT(180* ticks)
  5: 0x01EC [0x45] LOAD_SCHEDULED_TASK: Load scheduler "fdo1" with entities [EventEntity, EventEntity], work=[200*, 0*]
  6: 0x01FD [0x1C] WAIT(60* ticks)
  7: 0x0200 [0x52] END_LOAD_SCHEDULER: End scheduler "s078" with entities [LocalPlayer, LocalPlayer], work=251*
  8: 0x020F [0x00] END_REQSTACK()
```

### Event 65535.11

#### Metadata

| Field        | Value    |
|--------------|----------|
| Entrypoint   | 0x0210   |
| Data Size    | 56 bytes |
| Instructions | 6        |

```
      00 01 02 03 04 05 06 07  08 09 0A 0B 0C 0D 0E 0F
      -- -- -- -- -- -- -- --  -- -- -- -- -- -- -- --
0210: 45 18 80 F8 FF FF 7F F8  FF FF 7F 73 30 38 30 01  E..........s080.
0220: 80 1C 1B 80 45 00 80 F8  FF FF 7F F8 FF FF 7F 66  ....E..........f
0230: 64 6F 31 01 80 1C 19 80  52 18 80 F8 FF FF 7F F8  do1.....R.......
0240: FF FF 7F 73 30 38 30 00                           ...s080.        
```

#### Opcodes

```
  0: 0x0210 [0x45] LOAD_SCHEDULED_TASK: Load scheduler "s080" with entities [EventEntity, EventEntity], work=[251*, 0*]
  1: 0x0221 [0x1C] WAIT(130* ticks)
  2: 0x0224 [0x45] LOAD_SCHEDULED_TASK: Load scheduler "fdo1" with entities [EventEntity, EventEntity], work=[200*, 0*]
  3: 0x0235 [0x1C] WAIT(60* ticks)
  4: 0x0238 [0x52] END_LOAD_SCHEDULER: End scheduler "s080" with entities [EventEntity, EventEntity], work=251*
  5: 0x0247 [0x00] END_REQSTACK()
```

### Event 65535.12

#### Metadata

| Field        | Value     |
|--------------|-----------|
| Entrypoint   | 0x0248    |
| Data Size    | 236 bytes |
| Instructions | 10        |

```
      00 01 02 03 04 05 06 07  08 09 0A 0B 0C 0D 0E 0F
      -- -- -- -- -- -- -- --  -- -- -- -- -- -- -- --
0240:                          45 18 80 F0 FF FF 7F F0          E.......
0250: FF FF 7F 73 30 37 36 01  80 1C 1C 80 52 18 80 F0  ...s076.....R...
0260: FF FF 7F F0 FF FF 7F 73  30 37 36 45 00 80 F0 FF  .......s076E....
0270: FF 7F F0 FF FF 7F 6F 76  6C 31 01 80 45 18 80 F8  ......ovl1..E...
0280: FF FF 7F F8 FF FF 7F 73  30 38 33 01 80 4A ED 91  .......s083..J..
0290: 09 01 EE 91 09 01 6F 76  ED 91 09 01 1C 1B 80 00  ......ov........
02A0: 03 02 00 01 00 02 02 00  1D 80 05 B5 02 08 02 00  ................
02B0: 03 80 01 BA 02 08 02 00  1E 80 14 02 00 1F 80 07  ................
02C0: 02 00 20 80 1B 03 02 00  01 00 02 02 00 1D 80 05  .. .............
02D0: DA 02 08 02 00 03 80 01  DF 02 08 02 00 1E 80 14  ................
02E0: 02 00 1F 80 07 02 00 21  80 1B 03 02 00 01 00 02  .......!........
02F0: 02 00 1D 80 05 FF 02 08  02 00 03 80 01 04 03 08  ................
0300: 02 00 1E 80 14 02 00 1F  80 07 02 00 22 80 1B 03  ............"...
0310: 02 00 01 00 02 02 00 1D  80 05 24 03 08 02 00 03  ..........$.....
0320: 80 01 29 03 08 02 00 1E  80 14 02 00 1F 80 07 02  ..).............
0330: 00 23 80 1B                                       .#..            
```

#### Opcodes

```
  0: 0x0248 [0x45] LOAD_SCHEDULED_TASK: Load scheduler "s076" with entities [LocalPlayer, LocalPlayer], work=[251*, 0*]
  1: 0x0259 [0x1C] WAIT(160* ticks)
  2: 0x025C [0x52] END_LOAD_SCHEDULER: End scheduler "s076" with entities [LocalPlayer, LocalPlayer], work=251*
  3: 0x026B [0x45] LOAD_SCHEDULED_TASK: Load scheduler "ovl1" with entities [LocalPlayer, LocalPlayer], work=[200*, 0*]
  4: 0x027C [0x45] LOAD_SCHEDULED_TASK: Load scheduler "s083" with entities [EventEntity, EventEntity], work=[251*, 0*]
  5: 0x028D [0x4A] Zonpa-Zippa (ID: 17404397/0x010991ED) looks at Karaha-Baruha (ID: 17404398/0x010991EE)
  6: 0x0296 [0x6F] WAIT_FRAME_DELAY: Yield until WaitTime reaches zero
  7: 0x0297 [0x76] CHECK_ENTITY_RENDER_FLAGS: Wait until Zonpa-Zippa (ID: 17404397/0x010991ED) Render.Flags0 and Render.Flags3 conditions are met
  8: 0x029C [0x1C] WAIT(130* ticks)
  9: 0x029F [0x00] END_REQSTACK()
```

#### Data or dead code:

```
# Dead code (unreachable instructions):
     0x02A0 [0x03] ExtData[1]->WorkLocal[2] = ExtData[1]->WorkLocal[1]
     0x02A5 [0x02] IF !(ExtData[1]->WorkLocal[2] > 5*) GOTO 0x02B5
     0x02AD [0x08] ExtData[1]->WorkLocal[2] -= 1*
     0x02B2 [0x01] GOTO 0x02BA
     0x02B5 [0x08] ExtData[1]->WorkLocal[2] -= 2*
     0x02BA [0x14] ExtData[1]->WorkLocal[2] *= 10*
     0x02BF [0x07] ExtData[1]->WorkLocal[2] += 9*
     0x02C4 [0x1B] RETURN
     0x02C5 [0x03] ExtData[1]->WorkLocal[2] = ExtData[1]->WorkLocal[1]
     0x02CA [0x02] IF !(ExtData[1]->WorkLocal[2] > 5*) GOTO 0x02DA
     0x02D2 [0x08] ExtData[1]->WorkLocal[2] -= 1*
     0x02D7 [0x01] GOTO 0x02DF
     0x02DA [0x08] ExtData[1]->WorkLocal[2] -= 2*
     0x02DF [0x14] ExtData[1]->WorkLocal[2] *= 10*
     0x02E4 [0x07] ExtData[1]->WorkLocal[2] += 70*
     0x02E9 [0x1B] RETURN
     0x02EA [0x03] ExtData[1]->WorkLocal[2] = ExtData[1]->WorkLocal[1]
     0x02EF [0x02] IF !(ExtData[1]->WorkLocal[2] > 5*) GOTO 0x02FF
     0x02F7 [0x08] ExtData[1]->WorkLocal[2] -= 1*
     0x02FC [0x01] GOTO 0x0304
     0x02FF [0x08] ExtData[1]->WorkLocal[2] -= 2*
     0x0304 [0x14] ExtData[1]->WorkLocal[2] *= 10*
     0x0309 [0x07] ExtData[1]->WorkLocal[2] += 140*
     0x030E [0x1B] RETURN
     0x030F [0x03] ExtData[1]->WorkLocal[2] = ExtData[1]->WorkLocal[1]
     0x0314 [0x02] IF !(ExtData[1]->WorkLocal[2] > 5*) GOTO 0x0324
     0x031C [0x08] ExtData[1]->WorkLocal[2] -= 1*
     0x0321 [0x01] GOTO 0x0329
     0x0324 [0x08] ExtData[1]->WorkLocal[2] -= 2*
     0x0329 [0x14] ExtData[1]->WorkLocal[2] *= 10*
     0x032E [0x07] ExtData[1]->WorkLocal[2] += 210*
     0x0333 [0x1B] RETURN
```

### Event 65535.13

#### Metadata

| Field        | Value    |
|--------------|----------|
| Entrypoint   | 0x0334   |
| Data Size    | 27 bytes |
| Instructions | 5        |

```
      00 01 02 03 04 05 06 07  08 09 0A 0B 0C 0D 0E 0F
      -- -- -- -- -- -- -- --  -- -- -- -- -- -- -- --
0330:             03 01 00 07  7F 1A C5 02 0B 02 00 66      ...........f
0340: 02 00 F8 FF FF 7F F8 FF  FF 7F 70 61 73 30 00     ..........pas0. 
```

#### Opcodes

```
  0: 0x0334 [0x03] ExtData[1]->WorkLocal[1] = Entity->Race
  1: 0x0339 [0x1A] CALL_SUBROUTINE(address=0x02C5)
  2: 0x033C [0x0B] ExtData[1]->WorkLocal[2]++
  3: 0x033F [0x66] LOAD_EXT_SCHEDULER_MAIN: Load scheduler "pas0" with entities [EventEntity, EventEntity], work=ExtData[1]->WorkLocal[2]
  4: 0x034E [0x00] END_REQSTACK()
```

### Event 65535.14

#### Metadata

| Field        | Value    |
|--------------|----------|
| Entrypoint   | 0x034F   |
| Data Size    | 42 bytes |
| Instructions | 6        |

```
      00 01 02 03 04 05 06 07  08 09 0A 0B 0C 0D 0E 0F
      -- -- -- -- -- -- -- --  -- -- -- -- -- -- -- --
0340:                                               03                 .
0350: 01 00 07 7F 1A A0 02 66  02 00 F8 FF FF 7F F8 FF  .......f........
0360: FF 7F 74 6C 6B 30 1C 19  80 66 02 00 F8 FF FF 7F  ..tlk0...f......
0370: F8 FF FF 7F 74 6C 6B 31  00                       ....tlk1.       
```

#### Opcodes

```
  0: 0x034F [0x03] ExtData[1]->WorkLocal[1] = Entity->Race
  1: 0x0354 [0x1A] CALL_SUBROUTINE(address=0x02A0)
  2: 0x0357 [0x66] LOAD_EXT_SCHEDULER_MAIN: Load scheduler "tlk0" with entities [EventEntity, EventEntity], work=ExtData[1]->WorkLocal[2]
  3: 0x0366 [0x1C] WAIT(60* ticks)
  4: 0x0369 [0x66] LOAD_EXT_SCHEDULER_MAIN: Load scheduler "tlk1" with entities [EventEntity, EventEntity], work=ExtData[1]->WorkLocal[2]
  5: 0x0378 [0x00] END_REQSTACK()
```

### Event 65535.15

#### Metadata

| Field        | Value    |
|--------------|----------|
| Entrypoint   | 0x0379   |
| Data Size    | 24 bytes |
| Instructions | 4        |

```
      00 01 02 03 04 05 06 07  08 09 0A 0B 0C 0D 0E 0F
      -- -- -- -- -- -- -- --  -- -- -- -- -- -- -- --
0370:                             03 01 00 07 7F 1A A0           .......
0380: 02 66 02 00 F8 FF FF 7F  F8 FF FF 7F 74 6C 6B 30  .f..........tlk0
0390: 00                                                .               
```

#### Opcodes

```
  0: 0x0379 [0x03] ExtData[1]->WorkLocal[1] = Entity->Race
  1: 0x037E [0x1A] CALL_SUBROUTINE(address=0x02A0)
  2: 0x0381 [0x66] LOAD_EXT_SCHEDULER_MAIN: Load scheduler "tlk0" with entities [EventEntity, EventEntity], work=ExtData[1]->WorkLocal[2]
  3: 0x0390 [0x00] END_REQSTACK()
```

### Event 65535.16

#### Metadata

| Field        | Value    |
|--------------|----------|
| Entrypoint   | 0x0391   |
| Data Size    | 24 bytes |
| Instructions | 4        |

```
      00 01 02 03 04 05 06 07  08 09 0A 0B 0C 0D 0E 0F
      -- -- -- -- -- -- -- --  -- -- -- -- -- -- -- --
0390:    03 01 00 07 7F 1A A0  02 66 02 00 F8 FF FF 7F   ........f......
03A0: F8 FF FF 7F 74 6C 6B 31  00                       ....tlk1.       
```

#### Opcodes

```
  0: 0x0391 [0x03] ExtData[1]->WorkLocal[1] = Entity->Race
  1: 0x0396 [0x1A] CALL_SUBROUTINE(address=0x02A0)
  2: 0x0399 [0x66] LOAD_EXT_SCHEDULER_MAIN: Load scheduler "tlk1" with entities [EventEntity, EventEntity], work=ExtData[1]->WorkLocal[2]
  3: 0x03A8 [0x00] END_REQSTACK()
```

### Event 65535.17

#### Metadata

| Field        | Value    |
|--------------|----------|
| Entrypoint   | 0x03A9   |
| Data Size    | 15 bytes |
| Instructions | 5        |

```
      00 01 02 03 04 05 06 07  08 09 0A 0B 0C 0D 0E 0F
      -- -- -- -- -- -- -- --  -- -- -- -- -- -- -- --
03A0:                             32 12 80 1F 00 24 80           2....$.
03B0: 25 80 26 80 1F 01 6F 00                           %.&...o.        
```

#### Opcodes

```
  0: 0x03A9 [0x32] ExtData[1]->MainSpeed = 13* * 0.1
  1: 0x03AC [0x1F] MOVE_ENTITY: EventEntity moves to X=82.511*, Z=139.631*, Y=8.620*
  2: 0x03B4 [0x1F] MOVE_ENTITY: Update entity position (mode=1)
  3: 0x03B6 [0x6F] WAIT_FRAME_DELAY: Yield until WaitTime reaches zero
  4: 0x03B7 [0x00] END_REQSTACK()
```

### Event 65535.18

#### Metadata

| Field        | Value    |
|--------------|----------|
| Entrypoint   | 0x03B8   |
| Data Size    | 15 bytes |
| Instructions | 5        |

```
      00 01 02 03 04 05 06 07  08 09 0A 0B 0C 0D 0E 0F
      -- -- -- -- -- -- -- --  -- -- -- -- -- -- -- --
03B0:                          32 12 80 1F 00 27 80 28          2....'.(
03C0: 80 29 80 1F 01 6F 00                              .)...o.         
```

#### Opcodes

```
  0: 0x03B8 [0x32] ExtData[1]->MainSpeed = 13* * 0.1
  1: 0x03BB [0x1F] MOVE_ENTITY: EventEntity moves to X=99.577*, Z=139.731*, Y=8.554*
  2: 0x03C3 [0x1F] MOVE_ENTITY: Update entity position (mode=1)
  3: 0x03C5 [0x6F] WAIT_FRAME_DELAY: Yield until WaitTime reaches zero
  4: 0x03C6 [0x00] END_REQSTACK()
```

### Event 65535.19

#### Metadata

| Field        | Value    |
|--------------|----------|
| Entrypoint   | 0x03C7   |
| Data Size    | 22 bytes |
| Instructions | 8        |

```
      00 01 02 03 04 05 06 07  08 09 0A 0B 0C 0D 0E 0F
      -- -- -- -- -- -- -- --  -- -- -- -- -- -- -- --
03C0:                      32  12 80 1F 00 2A 80 2B 80         2....*.+.
03D0: 2C 80 1F 01 6F 1E 0D 92  09 01 6F 70 00           ,...o.....op.   
```

#### Opcodes

```
  0: 0x03C7 [0x32] ExtData[1]->MainSpeed = 13* * 0.1
  1: 0x03CA [0x1F] MOVE_ENTITY: EventEntity moves to X=107.021*, Z=141.759*, Y=8.433*
  2: 0x03D2 [0x1F] MOVE_ENTITY: Update entity position (mode=1)
  3: 0x03D4 [0x6F] WAIT_FRAME_DELAY: Yield until WaitTime reaches zero
  4: 0x03D5 [0x1E] EventEntity looks at Magh Bihu (ID: 17404429/0x0109920D) and starts talking
  5: 0x03DA [0x6F] WAIT_FRAME_DELAY: Yield until WaitTime reaches zero
  6: 0x03DB [0x70] WAIT_ENTITY_RENDER_FLAG: Wait while EventEntity->Render.Flags3 bit 2 is set (cancel turn if not)
  7: 0x03DC [0x00] END_REQSTACK()
```

### Event 65535.20

#### Metadata

| Field        | Value    |
|--------------|----------|
| Entrypoint   | 0x03DD   |
| Data Size    | 15 bytes |
| Instructions | 5        |

```
      00 01 02 03 04 05 06 07  08 09 0A 0B 0C 0D 0E 0F
      -- -- -- -- -- -- -- --  -- -- -- -- -- -- -- --
03D0:                                         32 12 80               2..
03E0: 1F 00 2D 80 2E 80 2F 80  1F 01 6F 00              ..-.../...o.    
```

#### Opcodes

```
  0: 0x03DD [0x32] ExtData[1]->MainSpeed = 13* * 0.1
  1: 0x03E0 [0x1F] MOVE_ENTITY: EventEntity moves to X=78.334*, Z=140.122*, Y=8.950*
  2: 0x03E8 [0x1F] MOVE_ENTITY: Update entity position (mode=1)
  3: 0x03EA [0x6F] WAIT_FRAME_DELAY: Yield until WaitTime reaches zero
  4: 0x03EB [0x00] END_REQSTACK()
```

### Event 65535.21

#### Metadata

| Field        | Value    |
|--------------|----------|
| Entrypoint   | 0x03EC   |
| Data Size    | 15 bytes |
| Instructions | 5        |

```
      00 01 02 03 04 05 06 07  08 09 0A 0B 0C 0D 0E 0F
      -- -- -- -- -- -- -- --  -- -- -- -- -- -- -- --
03E0:                                      32 12 80 1F              2...
03F0: 00 30 80 31 80 32 80 1F  01 6F 00                 .0.1.2...o.     
```

#### Opcodes

```
  0: 0x03EC [0x32] ExtData[1]->MainSpeed = 13* * 0.1
  1: 0x03EF [0x1F] MOVE_ENTITY: EventEntity moves to X=98.341*, Z=139.650*, Y=8.594*
  2: 0x03F7 [0x1F] MOVE_ENTITY: Update entity position (mode=1)
  3: 0x03F9 [0x6F] WAIT_FRAME_DELAY: Yield until WaitTime reaches zero
  4: 0x03FA [0x00] END_REQSTACK()
```

### Event 65535.22

#### Metadata

| Field        | Value    |
|--------------|----------|
| Entrypoint   | 0x03FB   |
| Data Size    | 22 bytes |
| Instructions | 8        |

```
      00 01 02 03 04 05 06 07  08 09 0A 0B 0C 0D 0E 0F
      -- -- -- -- -- -- -- --  -- -- -- -- -- -- -- --
03F0:                                   32 12 80 1F 00             2....
0400: 33 80 34 80 35 80 1F 01  6F 1E 0D 92 09 01 6F 70  3.4.5...o.....op
0410: 00                                                .               
```

#### Opcodes

```
  0: 0x03FB [0x32] ExtData[1]->MainSpeed = 13* * 0.1
  1: 0x03FE [0x1F] MOVE_ENTITY: EventEntity moves to X=102.869*, Z=141.399*, Y=8.434*
  2: 0x0406 [0x1F] MOVE_ENTITY: Update entity position (mode=1)
  3: 0x0408 [0x6F] WAIT_FRAME_DELAY: Yield until WaitTime reaches zero
  4: 0x0409 [0x1E] EventEntity looks at Magh Bihu (ID: 17404429/0x0109920D) and starts talking
  5: 0x040E [0x6F] WAIT_FRAME_DELAY: Yield until WaitTime reaches zero
  6: 0x040F [0x70] WAIT_ENTITY_RENDER_FLAG: Wait while EventEntity->Render.Flags3 bit 2 is set (cancel turn if not)
  7: 0x0410 [0x00] END_REQSTACK()
```
