# 17416274 - fire_test

## Common Data

| Field            | Value                     |
|------------------|---------------------------|
| Zone             | Throne Room [S] (ID: 156) |
| Block Size       | 192 bytes                 |
| Total Events     | 2                         |
| References Count | 1                         |

## List of Events

| Event ID              | Entrypoint   |   Size |   Instructions |
|-----------------------|--------------|--------|----------------|
| [65535](#event-65535) | 0x0000       |      1 |              1 |
| [11](#event-11)       | 0x0001       |    163 |             28 |

## DAT References (imed_data)

|   Index | Hex Value   |   Dec Value |
|---------|-------------|-------------|
|       0 | 0x18FC      |        6396 |

## String References

- **6396**: You do not have enough gil.

## Events

### Event 65535

#### Metadata

| Field        | Value   |
|--------------|---------|
| Entrypoint   | 0x0000  |
| Data Size    | 1 bytes |
| Instructions | 1       |

```
      00 01 02 03 04 05 06 07  08 09 0A 0B 0C 0D 0E 0F
      -- -- -- -- -- -- -- --  -- -- -- -- -- -- -- --
0000: 00                                                .               
```

#### Opcodes

```
  0: 0x0000 [0x00] END_REQSTACK()
```

### Event 11

#### Metadata

| Field        | Value     |
|--------------|-----------|
| Entrypoint   | 0x0001    |
| Data Size    | 163 bytes |
| Instructions | 28        |

```
      00 01 02 03 04 05 06 07  08 09 0A 0B 0C 0D 0E 0F
      -- -- -- -- -- -- -- --  -- -- -- -- -- -- -- --
0000:    42 20 01 1D 00 80 23  2D F8 FF FF 7F F8 FF FF   B ....#-.......
0010: 7F 70 61 6B 69 1D 00 80  23 2D F8 FF FF 7F F8 FF  .paki...#-......
0020: FF 7F 73 74 61 31 2D F8  FF FF 7F F8 FF FF 7F 73  ..sta1-........s
0030: 74 61 32 1D 00 80 23 2D  F8 FF FF 7F F8 FF FF 7F  ta2...#-........
0040: 73 74 62 31 2D F8 FF FF  7F F8 FF FF 7F 73 74 62  stb1-........stb
0050: 32 1D 00 80 23 2D F8 FF  FF 7F F8 FF FF 7F 73 74  2...#-........st
0060: 63 31 2D F8 FF FF 7F F8  FF FF 7F 73 74 63 32 2D  c1-........stc2-
0070: F8 FF FF 7F F8 FF FF 7F  6C 69 67 31 1D 00 80 23  ........lig1...#
0080: 2D F8 FF FF 7F F8 FF FF  7F 70 61 6B 69 1D 00 80  -........paki...
0090: 23 2D F8 FF FF 7F F8 FF  FF 7F 70 61 74 75 1D 00  #-........patu..
00A0: 80 23 21 00                                       .#!.            
```

#### Opcodes

```
  0: 0x0001 [0x42] SET_CLI_EVENT_CANCEL_DATA()
  1: 0x0002 [0x20] SET_CLI_EVENT_UC_FLAG: Lock player control
  2: 0x0004 [0x1D] PRINT_EVENT_MESSAGE(message_id=6396*)
    → "You do not have enough gil."
  3: 0x0007 [0x23] WAIT_FOR_DIALOG_INTERACTION
  4: 0x0008 [0x2D] CREATE_ZONE_SCHEDULER_TASK: Create scheduler "paki" with entities [EventEntity, EventEntity]
  5: 0x0015 [0x1D] PRINT_EVENT_MESSAGE(message_id=6396*)
    → "You do not have enough gil."
  6: 0x0018 [0x23] WAIT_FOR_DIALOG_INTERACTION
  7: 0x0019 [0x2D] CREATE_ZONE_SCHEDULER_TASK: Create scheduler "sta1" with entities [EventEntity, EventEntity]
  8: 0x0026 [0x2D] CREATE_ZONE_SCHEDULER_TASK: Create scheduler "sta2" with entities [EventEntity, EventEntity]
  9: 0x0033 [0x1D] PRINT_EVENT_MESSAGE(message_id=6396*)
    → "You do not have enough gil."
 10: 0x0036 [0x23] WAIT_FOR_DIALOG_INTERACTION
 11: 0x0037 [0x2D] CREATE_ZONE_SCHEDULER_TASK: Create scheduler "stb1" with entities [EventEntity, EventEntity]
 12: 0x0044 [0x2D] CREATE_ZONE_SCHEDULER_TASK: Create scheduler "stb2" with entities [EventEntity, EventEntity]
 13: 0x0051 [0x1D] PRINT_EVENT_MESSAGE(message_id=6396*)
    → "You do not have enough gil."
 14: 0x0054 [0x23] WAIT_FOR_DIALOG_INTERACTION
 15: 0x0055 [0x2D] CREATE_ZONE_SCHEDULER_TASK: Create scheduler "stc1" with entities [EventEntity, EventEntity]
 16: 0x0062 [0x2D] CREATE_ZONE_SCHEDULER_TASK: Create scheduler "stc2" with entities [EventEntity, EventEntity]
 17: 0x006F [0x2D] CREATE_ZONE_SCHEDULER_TASK: Create scheduler "lig1" with entities [EventEntity, EventEntity]
 18: 0x007C [0x1D] PRINT_EVENT_MESSAGE(message_id=6396*)
    → "You do not have enough gil."
 19: 0x007F [0x23] WAIT_FOR_DIALOG_INTERACTION
 20: 0x0080 [0x2D] CREATE_ZONE_SCHEDULER_TASK: Create scheduler "paki" with entities [EventEntity, EventEntity]
 21: 0x008D [0x1D] PRINT_EVENT_MESSAGE(message_id=6396*)
    → "You do not have enough gil."
 22: 0x0090 [0x23] WAIT_FOR_DIALOG_INTERACTION
 23: 0x0091 [0x2D] CREATE_ZONE_SCHEDULER_TASK: Create scheduler "patu" with entities [EventEntity, EventEntity]
 24: 0x009E [0x1D] PRINT_EVENT_MESSAGE(message_id=6396*)
    → "You do not have enough gil."
 25: 0x00A1 [0x23] WAIT_FOR_DIALOG_INTERACTION
 26: 0x00A2 [0x21] END_EVENT
 27: 0x00A3 [0x00] END_REQSTACK()
```
