# 17416312

## Common Data

| Field            | Value                     |
|------------------|---------------------------|
| Zone             | Throne Room [S] (ID: 156) |
| Block Size       | 712 bytes                 |
| Total Events     | 13                        |
| References Count | 22                        |

## List of Events

| Event ID                   | Entrypoint   |   Size |   Instructions |
|----------------------------|--------------|--------|----------------|
| [65535](#event-65535)      | 0x0000       |      1 |              1 |
| [65535.1](#event-655351)   | 0x0001       |      1 |              1 |
| [65535.2](#event-655352)   | 0x0002       |     18 |              4 |
| [65535.3](#event-655353)   | 0x0014       |     10 |              2 |
| [65535.4](#event-655354)   | 0x001E       |      9 |              3 |
| [65535.5](#event-655355)   | 0x0027       |      9 |              3 |
| [65535.6](#event-655356)   | 0x0030       |     10 |              2 |
| [65535.7](#event-655357)   | 0x003A       |     10 |              2 |
| [10](#event-10)            | 0x0044       |      4 |              2 |
| [65535.8](#event-655358)   | 0x0048       |    256 |             26 |
| [65535.9](#event-655359)   | 0x0148       |    177 |             37 |
| [65535.10](#event-6553510) | 0x01F9       |     48 |              9 |
| [15](#event-15)            | 0x0229       |      1 |              1 |

## DAT References (imed_data)

|   Index | Hex Value   |   Dec Value |
|---------|-------------|-------------|
|       0 | 0x0000      |           0 |
|       1 | 0x0001      |           1 |
|       2 | 0x0080      |         128 |
|       3 | 0x0117      |         279 |
|       4 | 0x00EC      |         236 |
|       5 | 0x0002      |           2 |
|       6 | 0x0003      |           3 |
|       7 | 0x0004      |           4 |
|       8 | 0x0005      |           5 |
|       9 | 0x0006      |           6 |
|      10 | 0x0007      |           7 |
|      11 | 0x0008      |           8 |
|      12 | 0x000A      |          10 |
|      13 | 0x0009      |           9 |
|      14 | 0x0046      |          70 |
|      15 | 0x008C      |         140 |
|      16 | 0x00D2      |         210 |
|      17 | 0xFFFFE700  |  4294960896 |
|      18 | 0x03E8      |        1000 |
|      19 | 0xFFFFEC8F  |  4294962319 |
|      20 | 0x0018      |          24 |
|      21 | 0x003C      |          60 |

## Events

### Event 65535

#### Metadata

| Field        | Value   |
|--------------|---------|
| Entrypoint   | 0x0000  |
| Data Size    | 1 bytes |
| Instructions | 1       |

```
      00 01 02 03 04 05 06 07  08 09 0A 0B 0C 0D 0E 0F
      -- -- -- -- -- -- -- --  -- -- -- -- -- -- -- --
0000: 00                                                .               
```

#### Opcodes

```
  0: 0x0000 [0x00] END_REQSTACK()
```

### Event 65535.1

#### Metadata

| Field        | Value   |
|--------------|---------|
| Entrypoint   | 0x0001  |
| Data Size    | 1 bytes |
| Instructions | 1       |

```
      00 01 02 03 04 05 06 07  08 09 0A 0B 0C 0D 0E 0F
      -- -- -- -- -- -- -- --  -- -- -- -- -- -- -- --
0000:    00                                              .              
```

#### Opcodes

```
  0: 0x0001 [0x00] END_REQSTACK()
```

### Event 65535.2

#### Metadata

| Field        | Value    |
|--------------|----------|
| Entrypoint   | 0x0002   |
| Data Size    | 18 bytes |
| Instructions | 4        |

```
      00 01 02 03 04 05 06 07  08 09 0A 0B 0C 0D 0E 0F
      -- -- -- -- -- -- -- --  -- -- -- -- -- -- -- --
0000:       22 00 2F 00 F8 FF  FF 7F 6C F8 FF FF 7F 00    "./.....l.....
0010: 80 01 80 00                                       ....            
```

#### Opcodes

```
  0: 0x0002 [0x22] ENTITY_HIDE_FLAG(enabled=0x00)
  1: 0x0004 [0x2F] EventEntity->Render.Flags0 &= ~0x80000 // Bit 19
  2: 0x000A [0x6C] FADE_ENTITY_COLOR(entity_id=EventEntity, end_alpha=0*, fade_time=1*)
  3: 0x0013 [0x00] END_REQSTACK()
```

### Event 65535.3

#### Metadata

| Field        | Value    |
|--------------|----------|
| Entrypoint   | 0x0014   |
| Data Size    | 10 bytes |
| Instructions | 2        |

```
      00 01 02 03 04 05 06 07  08 09 0A 0B 0C 0D 0E 0F
      -- -- -- -- -- -- -- --  -- -- -- -- -- -- -- --
0010:             6C F8 FF FF  7F 02 80 01 80 00            l.........  
```

#### Opcodes

```
  0: 0x0014 [0x6C] FADE_ENTITY_COLOR(entity_id=EventEntity, end_alpha=128*, fade_time=1*)
  1: 0x001D [0x00] END_REQSTACK()
```

### Event 65535.4

#### Metadata

| Field        | Value   |
|--------------|---------|
| Entrypoint   | 0x001E  |
| Data Size    | 9 bytes |
| Instructions | 3       |

```
      00 01 02 03 04 05 06 07  08 09 0A 0B 0C 0D 0E 0F
      -- -- -- -- -- -- -- --  -- -- -- -- -- -- -- --
0010:                                            22 00                ".
0020: 2F 00 F8 FF FF 7F 00                              /......         
```

#### Opcodes

```
  0: 0x001E [0x22] ENTITY_HIDE_FLAG(enabled=0x00)
  1: 0x0020 [0x2F] EventEntity->Render.Flags0 &= ~0x80000 // Bit 19
  2: 0x0026 [0x00] END_REQSTACK()
```

### Event 65535.5

#### Metadata

| Field        | Value   |
|--------------|---------|
| Entrypoint   | 0x0027  |
| Data Size    | 9 bytes |
| Instructions | 3       |

```
      00 01 02 03 04 05 06 07  08 09 0A 0B 0C 0D 0E 0F
      -- -- -- -- -- -- -- --  -- -- -- -- -- -- -- --
0020:                      22  01 2F 01 F8 FF FF 7F 00         "./......
```

#### Opcodes

```
  0: 0x0027 [0x22] ENTITY_HIDE_FLAG(enabled=0x01)
  1: 0x0029 [0x2F] EventEntity->Render.Flags0 |= 0x80000 // Bit 19
  2: 0x002F [0x00] END_REQSTACK()
```

### Event 65535.6

#### Metadata

| Field        | Value    |
|--------------|----------|
| Entrypoint   | 0x0030   |
| Data Size    | 10 bytes |
| Instructions | 2        |

```
      00 01 02 03 04 05 06 07  08 09 0A 0B 0C 0D 0E 0F
      -- -- -- -- -- -- -- --  -- -- -- -- -- -- -- --
0030: 6C F8 FF FF 7F 00 80 01  80 00                    l.........      
```

#### Opcodes

```
  0: 0x0030 [0x6C] FADE_ENTITY_COLOR(entity_id=EventEntity, end_alpha=0*, fade_time=1*)
  1: 0x0039 [0x00] END_REQSTACK()
```

### Event 65535.7

#### Metadata

| Field        | Value    |
|--------------|----------|
| Entrypoint   | 0x003A   |
| Data Size    | 10 bytes |
| Instructions | 2        |

```
      00 01 02 03 04 05 06 07  08 09 0A 0B 0C 0D 0E 0F
      -- -- -- -- -- -- -- --  -- -- -- -- -- -- -- --
0030:                                6C F8 FF FF 7F 02            l.....
0040: 80 01 80 00                                       ....            
```

#### Opcodes

```
  0: 0x003A [0x6C] FADE_ENTITY_COLOR(entity_id=EventEntity, end_alpha=128*, fade_time=1*)
  1: 0x0043 [0x00] END_REQSTACK()
```

### Event 10

#### Metadata

| Field        | Value   |
|--------------|---------|
| Entrypoint   | 0x0044  |
| Data Size    | 4 bytes |
| Instructions | 2       |

```
      00 01 02 03 04 05 06 07  08 09 0A 0B 0C 0D 0E 0F
      -- -- -- -- -- -- -- --  -- -- -- -- -- -- -- --
0040:             C0 01 80 00                               ....        
```

#### Opcodes

```
  0: 0x0044 [0xC0] EventEntity->Render.Flags3 |= 0x1000 // Set bit 12 (from 1*)
  1: 0x0047 [0x00] END_REQSTACK()
```

### Event 65535.8

#### Metadata

| Field        | Value     |
|--------------|-----------|
| Entrypoint   | 0x0048    |
| Data Size    | 256 bytes |
| Instructions | 26        |

```
      00 01 02 03 04 05 06 07  08 09 0A 0B 0C 0D 0E 0F
      -- -- -- -- -- -- -- --  -- -- -- -- -- -- -- --
0040:                          29 10 F0 FF FF 7F 04 02          ).......
0050: 02 10 01 80 80 6E 00 B6  0B 01 80 03 10 04 10 05  .....n..........
0060: 10 06 10 03 80 04 80 07  10 08 10 01 47 01 02 02  ............G...
0070: 10 05 80 80 8D 00 B6 0B  05 80 03 10 04 10 05 10  ................
0080: 06 10 03 80 04 80 07 10  08 10 01 47 01 02 02 10  ...........G....
0090: 06 80 80 AC 00 B6 0B 06  80 03 10 04 10 05 10 06  ................
00A0: 10 03 80 04 80 07 10 08  10 01 47 01 02 02 10 07  ..........G.....
00B0: 80 80 CB 00 B6 0B 07 80  03 10 04 10 05 10 06 10  ................
00C0: 03 80 04 80 07 10 08 10  01 47 01 02 02 10 08 80  .........G......
00D0: 80 EA 00 B6 0B 08 80 03  10 04 10 05 10 06 10 03  ................
00E0: 80 04 80 07 10 08 10 01  47 01 02 02 10 09 80 80  ........G.......
00F0: 09 01 B6 0B 09 80 03 10  04 10 05 10 06 10 03 80  ................
0100: 04 80 07 10 08 10 01 47  01 02 02 10 0A 80 80 28  .......G.......(
0110: 01 B6 0B 0A 80 03 10 04  10 05 10 06 10 03 80 04  ................
0120: 80 07 10 08 10 01 47 01  02 02 10 0B 80 80 47 01  ......G.......G.
0130: B6 0B 0B 80 03 10 04 10  05 10 06 10 03 80 04 80  ................
0140: 07 10 08 10 01 47 01 00                           .....G..        
```

#### Opcodes

```
  0: 0x0048 [0x29] REQ_SET_WAIT(priority=0x10, entity_id=LocalPlayer, tag_num=0x04)
  1: 0x004F [0x02] IF !(Work_Zone[2] == 1*) GOTO 0x006E
  2: 0x0057 [0xB6] ENTITY_APPEARANCE_HANDLER(case=Full entity look, race=1*, hair=Work_Zone[3], head=Work_Zone[4], body=Work_Zone[5], hands=Work_Zone[6], legs=279*, feet=236*, main=Work_Zone[7], sub=Work_Zone[8])
  3: 0x006B [0x01] GOTO 0x0147
  4: 0x006E [0x02] IF !(Work_Zone[2] == 2*) GOTO 0x008D
  5: 0x0076 [0xB6] ENTITY_APPEARANCE_HANDLER(case=Full entity look, race=2*, hair=Work_Zone[3], head=Work_Zone[4], body=Work_Zone[5], hands=Work_Zone[6], legs=279*, feet=236*, main=Work_Zone[7], sub=Work_Zone[8])
  6: 0x008A [0x01] GOTO 0x0147
  7: 0x008D [0x02] IF !(Work_Zone[2] == 3*) GOTO 0x00AC
  8: 0x0095 [0xB6] ENTITY_APPEARANCE_HANDLER(case=Full entity look, race=3*, hair=Work_Zone[3], head=Work_Zone[4], body=Work_Zone[5], hands=Work_Zone[6], legs=279*, feet=236*, main=Work_Zone[7], sub=Work_Zone[8])
  9: 0x00A9 [0x01] GOTO 0x0147
 10: 0x00AC [0x02] IF !(Work_Zone[2] == 4*) GOTO 0x00CB
 11: 0x00B4 [0xB6] ENTITY_APPEARANCE_HANDLER(case=Full entity look, race=4*, hair=Work_Zone[3], head=Work_Zone[4], body=Work_Zone[5], hands=Work_Zone[6], legs=279*, feet=236*, main=Work_Zone[7], sub=Work_Zone[8])
 12: 0x00C8 [0x01] GOTO 0x0147
 13: 0x00CB [0x02] IF !(Work_Zone[2] == 5*) GOTO 0x00EA
 14: 0x00D3 [0xB6] ENTITY_APPEARANCE_HANDLER(case=Full entity look, race=5*, hair=Work_Zone[3], head=Work_Zone[4], body=Work_Zone[5], hands=Work_Zone[6], legs=279*, feet=236*, main=Work_Zone[7], sub=Work_Zone[8])
 15: 0x00E7 [0x01] GOTO 0x0147
 16: 0x00EA [0x02] IF !(Work_Zone[2] == 6*) GOTO 0x0109
 17: 0x00F2 [0xB6] ENTITY_APPEARANCE_HANDLER(case=Full entity look, race=6*, hair=Work_Zone[3], head=Work_Zone[4], body=Work_Zone[5], hands=Work_Zone[6], legs=279*, feet=236*, main=Work_Zone[7], sub=Work_Zone[8])
 18: 0x0106 [0x01] GOTO 0x0147
 19: 0x0109 [0x02] IF !(Work_Zone[2] == 7*) GOTO 0x0128
 20: 0x0111 [0xB6] ENTITY_APPEARANCE_HANDLER(case=Full entity look, race=7*, hair=Work_Zone[3], head=Work_Zone[4], body=Work_Zone[5], hands=Work_Zone[6], legs=279*, feet=236*, main=Work_Zone[7], sub=Work_Zone[8])
 21: 0x0125 [0x01] GOTO 0x0147
 22: 0x0128 [0x02] IF !(Work_Zone[2] == 8*) GOTO 0x0147
 23: 0x0130 [0xB6] ENTITY_APPEARANCE_HANDLER(case=Full entity look, race=8*, hair=Work_Zone[3], head=Work_Zone[4], body=Work_Zone[5], hands=Work_Zone[6], legs=279*, feet=236*, main=Work_Zone[7], sub=Work_Zone[8])
 24: 0x0144 [0x01] GOTO 0x0147

SUBROUTINE_0147:
 25: 0x0147 [0x00] END_REQSTACK()
```

### Event 65535.9

#### Metadata

| Field        | Value     |
|--------------|-----------|
| Entrypoint   | 0x0148    |
| Data Size    | 177 bytes |
| Instructions | 13        |

```
      00 01 02 03 04 05 06 07  08 09 0A 0B 0C 0D 0E 0F
      -- -- -- -- -- -- -- --  -- -- -- -- -- -- -- --
0140:                          03 00 00 07 7F 1A 8A 01          ........
0150: 07 01 00 05 80 66 01 00  F8 FF FF 7F F8 FF FF 7F  .....f..........
0160: 6B 61 6B 30 00 03 01 00  00 00 02 01 00 08 80 05  kak0............
0170: 7A 01 08 01 00 01 80 01  7F 01 08 01 00 05 80 14  z...............
0180: 01 00 0C 80 07 01 00 0D  80 1B 03 01 00 00 00 02  ................
0190: 01 00 08 80 05 9F 01 08  01 00 01 80 01 A4 01 08  ................
01A0: 01 00 05 80 14 01 00 0C  80 07 01 00 0E 80 1B 03  ................
01B0: 01 00 00 00 02 01 00 08  80 05 C4 01 08 01 00 01  ................
01C0: 80 01 C9 01 08 01 00 05  80 14 01 00 0C 80 07 01  ................
01D0: 00 0F 80 1B 03 01 00 00  00 02 01 00 08 80 05 E9  ................
01E0: 01 08 01 00 01 80 01 EE  01 08 01 00 05 80 14 01  ................
01F0: 00 0C 80 07 01 00 10 80  1B                       .........       
```

#### Opcodes

```
  0: 0x0148 [0x03] ExtData[1]->WorkLocal[0] = Entity->Race
  1: 0x014D [0x1A] CALL_SUBROUTINE(address=0x018A)
  2: 0x0150 [0x07] ExtData[1]->WorkLocal[1] += 2*
  3: 0x0155 [0x66] LOAD_EXT_SCHEDULER_MAIN: Load scheduler "kak0" with entities [EventEntity, EventEntity], work=ExtData[1]->WorkLocal[1]
  4: 0x0164 [0x00] END_REQSTACK()

SUBROUTINE_018A:
  5: 0x018A [0x03] ExtData[1]->WorkLocal[1] = ExtData[1]->WorkLocal[0]
  6: 0x018F [0x02] IF !(ExtData[1]->WorkLocal[1] > 5*) GOTO 0x019F
  7: 0x0197 [0x08] ExtData[1]->WorkLocal[1] -= 1*
  8: 0x019C [0x01] GOTO 0x01A4
  9: 0x019F [0x08] ExtData[1]->WorkLocal[1] -= 2*

SUBROUTINE_01A4:
 10: 0x01A4 [0x14] ExtData[1]->WorkLocal[1] *= 10*
 11: 0x01A9 [0x07] ExtData[1]->WorkLocal[1] += 70*
 12: 0x01AE [0x1B] RETURN
```

#### Data or dead code:

```
# Dead code (unreachable instructions):
     0x0165 [0x03] ExtData[1]->WorkLocal[1] = ExtData[1]->WorkLocal[0]
     0x016A [0x02] IF !(ExtData[1]->WorkLocal[1] > 5*) GOTO 0x017A
     0x0172 [0x08] ExtData[1]->WorkLocal[1] -= 1*
     0x0177 [0x01] GOTO 0x017F
     0x017A [0x08] ExtData[1]->WorkLocal[1] -= 2*
     0x017F [0x14] ExtData[1]->WorkLocal[1] *= 10*
     0x0184 [0x07] ExtData[1]->WorkLocal[1] += 9*
     0x0189 [0x1B] RETURN
# Dead code (unreachable instructions):
     0x01AF [0x03] ExtData[1]->WorkLocal[1] = ExtData[1]->WorkLocal[0]
     0x01B4 [0x02] IF !(ExtData[1]->WorkLocal[1] > 5*) GOTO 0x01C4
     0x01BC [0x08] ExtData[1]->WorkLocal[1] -= 1*
     0x01C1 [0x01] GOTO 0x01C9
     0x01C4 [0x08] ExtData[1]->WorkLocal[1] -= 2*
     0x01C9 [0x14] ExtData[1]->WorkLocal[1] *= 10*
     0x01CE [0x07] ExtData[1]->WorkLocal[1] += 140*
     0x01D3 [0x1B] RETURN
     0x01D4 [0x03] ExtData[1]->WorkLocal[1] = ExtData[1]->WorkLocal[0]
     0x01D9 [0x02] IF !(ExtData[1]->WorkLocal[1] > 5*) GOTO 0x01E9
     0x01E1 [0x08] ExtData[1]->WorkLocal[1] -= 1*
     0x01E6 [0x01] GOTO 0x01EE
     0x01E9 [0x08] ExtData[1]->WorkLocal[1] -= 2*
     0x01EE [0x14] ExtData[1]->WorkLocal[1] *= 10*
     0x01F3 [0x07] ExtData[1]->WorkLocal[1] += 210*
     0x01F8 [0x1B] RETURN
```

### Event 65535.10

#### Metadata

| Field        | Value    |
|--------------|----------|
| Entrypoint   | 0x01F9   |
| Data Size    | 48 bytes |
| Instructions | 9        |

```
      00 01 02 03 04 05 06 07  08 09 0A 0B 0C 0D 0E 0F
      -- -- -- -- -- -- -- --  -- -- -- -- -- -- -- --
01F0:                             03 03 00 11 80 03 02           .......
0200: 00 12 80 02 02 00 00 80  04 28 02 BA 78 C0 09 01  .........(..x...
0210: 13 80 14 80 03 00 00 80  1C 01 80 08 02 00 0C 80  ................
0220: 07 03 00 15 80 01 03 02  00                       .........       
```

#### Opcodes

```
  0: 0x01F9 [0x03] ExtData[1]->WorkLocal[3] = 4294960896*
  1: 0x01FE [0x03] ExtData[1]->WorkLocal[2] = 1000*
  2: 0x0203 [0x02] IF !(ExtData[1]->WorkLocal[2] < 0*) GOTO 0x0228
  3: 0x020B [0xBA] SET_ENTITY_POSITION(entity_id=Unnamed NPC (ID: 17416312/0x0109C078), pos_x=-4.977*, pos_z=0.024*, pos_y=ExtData[1]->WorkLocal[3], direction=0.0°*)
  4: 0x0218 [0x1C] WAIT(1* ticks)
  5: 0x021B [0x08] ExtData[1]->WorkLocal[2] -= 10*
  6: 0x0220 [0x07] ExtData[1]->WorkLocal[3] += 60*
  7: 0x0225 [0x01] GOTO 0x0203
  8: 0x0228 [0x00] END_REQSTACK()
```

### Event 15

#### Metadata

| Field        | Value   |
|--------------|---------|
| Entrypoint   | 0x0229  |
| Data Size    | 1 bytes |
| Instructions | 1       |

```
      00 01 02 03 04 05 06 07  08 09 0A 0B 0C 0D 0E 0F
      -- -- -- -- -- -- -- --  -- -- -- -- -- -- -- --
0220:                             00                             .      
```

#### Opcodes

```
  0: 0x0229 [0x00] END_REQSTACK()
```
