# 17416315

## Common Data

| Field            | Value                     |
|------------------|---------------------------|
| Zone             | Throne Room [S] (ID: 156) |
| Block Size       | 1248 bytes                |
| Total Events     | 10                        |
| References Count | 27                        |

## List of Events

| Event ID                 | Entrypoint   |   Size |   Instructions |
|--------------------------|--------------|--------|----------------|
| [65535](#event-65535)    | 0x0000       |      1 |              1 |
| [8](#event-8)            | 0x0001       |      1 |              1 |
| [9](#event-9)            | 0x0002       |      1 |              1 |
| [10](#event-10)          | 0x0003       |      1 |              1 |
| [65535.1](#event-655351) | 0x0004       |     43 |              7 |
| [65535.2](#event-655352) | 0x002F       |     44 |             10 |
| [65535.3](#event-655353) | 0x005B       |    122 |             12 |
| [65535.4](#event-655354) | 0x00D5       |    131 |             13 |
| [65535.5](#event-655355) | 0x0158       |     81 |              8 |
| [15](#event-15)          | 0x01A9       |    658 |             62 |

## DAT References (imed_data)

|   Index | Hex Value   |   Dec Value |
|---------|-------------|-------------|
|       0 | 0x000F      |          15 |
|       1 | 0x001E      |          30 |
|       2 | 0x003C      |          60 |
|       3 | 0x00DF      |         223 |
|       4 | 0x0000      |           0 |
|       5 | 0x0096      |         150 |
|       6 | 0xFFFFDDC1  |  4294958529 |
|       7 | 0xFFFFF34E  |  4294964046 |
|       8 | 0x0F72      |        3954 |
|       9 | 0x0890      |        2192 |
|      10 | 0xFFFFE14D  |  4294959437 |
|      11 | 0x0D75      |        3445 |
|      12 | 0x00B5      |         181 |
|      13 | 0x2D0F      |       11535 |
|      14 | 0xFFFFFDC1  |  4294966721 |
|      15 | 0xFFFFFF97  |  4294967191 |
|      16 | 0x0FC2      |        4034 |
|      17 | 0x088B      |        2187 |
|      18 | 0x4915      |       18709 |
|      19 | 0x0483      |        1155 |
|      20 | 0x005A      |          90 |
|      21 | 0x002D      |          45 |
|      22 | 0x00C8      |         200 |
|      23 | 0x00C9      |         201 |
|      24 | 0x0001      |           1 |
|      25 | 0x0002      |           2 |
|      26 | 0x00D7      |         215 |

## Events

### Event 65535

#### Metadata

| Field        | Value   |
|--------------|---------|
| Entrypoint   | 0x0000  |
| Data Size    | 1 bytes |
| Instructions | 1       |

```
      00 01 02 03 04 05 06 07  08 09 0A 0B 0C 0D 0E 0F
      -- -- -- -- -- -- -- --  -- -- -- -- -- -- -- --
0000: 00                                                .               
```

#### Opcodes

```
  0: 0x0000 [0x00] END_REQSTACK()
```

### Event 8

#### Metadata

| Field        | Value   |
|--------------|---------|
| Entrypoint   | 0x0001  |
| Data Size    | 1 bytes |
| Instructions | 1       |

```
      00 01 02 03 04 05 06 07  08 09 0A 0B 0C 0D 0E 0F
      -- -- -- -- -- -- -- --  -- -- -- -- -- -- -- --
0000:    00                                              .              
```

#### Opcodes

```
  0: 0x0001 [0x00] END_REQSTACK()
```

### Event 9

#### Metadata

| Field        | Value   |
|--------------|---------|
| Entrypoint   | 0x0002  |
| Data Size    | 1 bytes |
| Instructions | 1       |

```
      00 01 02 03 04 05 06 07  08 09 0A 0B 0C 0D 0E 0F
      -- -- -- -- -- -- -- --  -- -- -- -- -- -- -- --
0000:       00                                            .             
```

#### Opcodes

```
  0: 0x0002 [0x00] END_REQSTACK()
```

### Event 10

#### Metadata

| Field        | Value   |
|--------------|---------|
| Entrypoint   | 0x0003  |
| Data Size    | 1 bytes |
| Instructions | 1       |

```
      00 01 02 03 04 05 06 07  08 09 0A 0B 0C 0D 0E 0F
      -- -- -- -- -- -- -- --  -- -- -- -- -- -- -- --
0000:          00                                          .            
```

#### Opcodes

```
  0: 0x0003 [0x00] END_REQSTACK()
```

### Event 65535.1

#### Metadata

| Field        | Value    |
|--------------|----------|
| Entrypoint   | 0x0004   |
| Data Size    | 43 bytes |
| Instructions | 7        |

```
      00 01 02 03 04 05 06 07  08 09 0A 0B 0C 0D 0E 0F
      -- -- -- -- -- -- -- --  -- -- -- -- -- -- -- --
0000:             4A 6E C0 09  01 68 C0 09 01 1C 00 80      Jn...h......
0010: 4A 6D C0 09 01 68 C0 09  01 1C 01 80 4A 6F C0 09  Jm...h......Jo..
0020: 01 68 C0 09 01 4A 73 C0  09 01 68 C0 09 01 00     .h...Js...h.... 
```

#### Opcodes

```
  0: 0x0004 [0x4A] Haudrale (ID: 17416302/0x0109C06E) looks at Lilisette (ID: 17416296/0x0109C068)
  1: 0x000D [0x1C] WAIT(15* ticks)
  2: 0x0010 [0x4A] Aquila (ID: 17416301/0x0109C06D) looks at Lilisette (ID: 17416296/0x0109C068)
  3: 0x0019 [0x1C] WAIT(30* ticks)
  4: 0x001C [0x4A] Larzos (ID: 17416303/0x0109C06F) looks at Lilisette (ID: 17416296/0x0109C068)
  5: 0x0025 [0x4A] 4 (ID: 17416307/0x0109C073) looks at Lilisette (ID: 17416296/0x0109C068)
  6: 0x002E [0x00] END_REQSTACK()
```

### Event 65535.2

#### Metadata

| Field        | Value    |
|--------------|----------|
| Entrypoint   | 0x002F   |
| Data Size    | 44 bytes |
| Instructions | 10       |

```
      00 01 02 03 04 05 06 07  08 09 0A 0B 0C 0D 0E 0F
      -- -- -- -- -- -- -- --  -- -- -- -- -- -- -- --
0020:                                               1A                 .
0030: 60 03 27 10 6F C0 09 01  0A 27 10 73 C0 09 01 0D  `.'.o....'.s....
0040: 1A 3F 03 1C 02 80 1A 60  03 27 10 6F C0 09 01 0B  .?.....`.'.o....
0050: 27 10 73 C0 09 01 0C 1A  3F 03 00                 '.s.....?..     
```

#### Opcodes

```
  0: 0x002F [0x1A] CALL_SUBROUTINE(address=0x0360)
  1: 0x0032 [0x27] REQ_SET(priority=0x10, entity_id=Larzos (ID: 17416303/0x0109C06F), tag_num=0x0A)
  2: 0x0039 [0x27] REQ_SET(priority=0x10, entity_id=4 (ID: 17416307/0x0109C073), tag_num=0x0D)
  3: 0x0040 [0x1A] CALL_SUBROUTINE(address=0x033F)
  4: 0x0043 [0x1C] WAIT(60* ticks)
  5: 0x0046 [0x1A] CALL_SUBROUTINE(address=0x0360)
  6: 0x0049 [0x27] REQ_SET(priority=0x10, entity_id=Larzos (ID: 17416303/0x0109C06F), tag_num=0x0B)
  7: 0x0050 [0x27] REQ_SET(priority=0x10, entity_id=4 (ID: 17416307/0x0109C073), tag_num=0x0C)
  8: 0x0057 [0x1A] CALL_SUBROUTINE(address=0x033F)
  9: 0x005A [0x00] END_REQSTACK()
```

### Event 65535.3

#### Metadata

| Field        | Value     |
|--------------|-----------|
| Entrypoint   | 0x005B    |
| Data Size    | 122 bytes |
| Instructions | 12        |

```
      00 01 02 03 04 05 06 07  08 09 0A 0B 0C 0D 0E 0F
      -- -- -- -- -- -- -- --  -- -- -- -- -- -- -- --
0050:                                   BB 03 80 6E C0             ...n.
0060: 09 01 6E C0 09 01 69 6E  30 30 04 80 1C 01 80 BB  ..n...in00......
0070: 03 80 6D C0 09 01 6D C0  09 01 69 6E 30 30 04 80  ..m...m...in00..
0080: 1C 05 80 BA 6E C0 09 01  06 80 07 80 04 80 08 80  ....n...........
0090: 1C 01 80 5B 09 80 6D C0  09 01 6D C0 09 01 73 74  ...[..m...m...st
00A0: 64 30 BA 6D C0 09 01 0A  80 0B 80 04 80 0C 80 BB  d0.m............
00B0: 03 80 6E C0 09 01 6E C0  09 01 6F 75 74 30 04 80  ..n...n...out0..
00C0: 1C 01 80 BB 03 80 6D C0  09 01 6D C0 09 01 6F 75  ......m...m...ou
00D0: 74 30 04 80 00                                    t0...           
```

#### Opcodes

```
  0: 0x005B [0xBB] LOAD_EVENT_SCHEDULER_ALT: Load scheduler "in00" with entities [Haudrale (ID: 17416302/0x0109C06E), Haudrale (ID: 17416302/0x0109C06E)], work=[223*, 0*]
  1: 0x006C [0x1C] WAIT(30* ticks)
  2: 0x006F [0xBB] LOAD_EVENT_SCHEDULER_ALT: Load scheduler "in00" with entities [Aquila (ID: 17416301/0x0109C06D), Aquila (ID: 17416301/0x0109C06D)], work=[223*, 0*]
  3: 0x0080 [0x1C] WAIT(150* ticks)
  4: 0x0083 [0xBA] SET_ENTITY_POSITION(entity_id=Haudrale (ID: 17416302/0x0109C06E), pos_x=-8.767*, pos_z=-3.250*, pos_y=0.000*, direction=347.5째*)
  5: 0x0090 [0x1C] WAIT(30* ticks)
  6: 0x0093 [0x5B] LOAD_EXT_SCHEDULER: Load scheduler "std0" with entities [Aquila (ID: 17416301/0x0109C06D), Aquila (ID: 17416301/0x0109C06D)], work=2192*
  7: 0x00A2 [0xBA] SET_ENTITY_POSITION(entity_id=Aquila (ID: 17416301/0x0109C06D), pos_x=-7.859*, pos_z=3.445*, pos_y=0.000*, direction=15.9째*)
  8: 0x00AF [0xBB] LOAD_EVENT_SCHEDULER_ALT: Load scheduler "out0" with entities [Haudrale (ID: 17416302/0x0109C06E), Haudrale (ID: 17416302/0x0109C06E)], work=[223*, 0*]
  9: 0x00C0 [0x1C] WAIT(30* ticks)
 10: 0x00C3 [0xBB] LOAD_EVENT_SCHEDULER_ALT: Load scheduler "out0" with entities [Aquila (ID: 17416301/0x0109C06D), Aquila (ID: 17416301/0x0109C06D)], work=[223*, 0*]
 11: 0x00D4 [0x00] END_REQSTACK()
```

### Event 65535.4

#### Metadata

| Field        | Value     |
|--------------|-----------|
| Entrypoint   | 0x00D5    |
| Data Size    | 131 bytes |
| Instructions | 13        |

```
      00 01 02 03 04 05 06 07  08 09 0A 0B 0C 0D 0E 0F
      -- -- -- -- -- -- -- --  -- -- -- -- -- -- -- --
00D0:                BB 03 80  6E C0 09 01 6E C0 09 01       ...n...n...
00E0: 69 6E 30 30 04 80 1C 01  80 BB 03 80 6D C0 09 01  in00........m...
00F0: 6D C0 09 01 69 6E 30 30  04 80 1C 02 80 6B 69 64  m...in00.....kid
0100: 6C 30 6E C0 09 01 BA 6E  C0 09 01 0D 80 0E 80 0F  l0n....n........
0110: 80 10 80 1C 01 80 5B 11  80 6D C0 09 01 6D C0 09  ......[..m...m..
0120: 01 63 61 74 30 BA 6D C0  09 01 12 80 13 80 04 80  .cat0.m.........
0130: 14 80 BB 03 80 6E C0 09  01 6E C0 09 01 6F 75 74  .....n...n...out
0140: 30 04 80 1C 01 80 BB 03  80 6D C0 09 01 6D C0 09  0........m...m..
0150: 01 6F 75 74 30 04 80 00                           .out0...        
```

#### Opcodes

```
  0: 0x00D5 [0xBB] LOAD_EVENT_SCHEDULER_ALT: Load scheduler "in00" with entities [Haudrale (ID: 17416302/0x0109C06E), Haudrale (ID: 17416302/0x0109C06E)], work=[223*, 0*]
  1: 0x00E6 [0x1C] WAIT(30* ticks)
  2: 0x00E9 [0xBB] LOAD_EVENT_SCHEDULER_ALT: Load scheduler "in00" with entities [Aquila (ID: 17416301/0x0109C06D), Aquila (ID: 17416301/0x0109C06D)], work=[223*, 0*]
  3: 0x00FA [0x1C] WAIT(60* ticks)
  4: 0x00FD [0x6B] STOP_AND_IDLE: Haudrale (ID: 17416302/0x0109C06E) stops current action and resets to idle (animation="idl0")
  5: 0x0106 [0xBA] SET_ENTITY_POSITION(entity_id=Haudrale (ID: 17416302/0x0109C06E), pos_x=11.535*, pos_z=-0.575*, pos_y=-0.105*, direction=354.5째*)
  6: 0x0113 [0x1C] WAIT(30* ticks)
  7: 0x0116 [0x5B] LOAD_EXT_SCHEDULER: Load scheduler "cat0" with entities [Aquila (ID: 17416301/0x0109C06D), Aquila (ID: 17416301/0x0109C06D)], work=2187*
  8: 0x0125 [0xBA] SET_ENTITY_POSITION(entity_id=Aquila (ID: 17416301/0x0109C06D), pos_x=18.709*, pos_z=1.155*, pos_y=0.000*, direction=7.9째*)
  9: 0x0132 [0xBB] LOAD_EVENT_SCHEDULER_ALT: Load scheduler "out0" with entities [Haudrale (ID: 17416302/0x0109C06E), Haudrale (ID: 17416302/0x0109C06E)], work=[223*, 0*]
 10: 0x0143 [0x1C] WAIT(30* ticks)
 11: 0x0146 [0xBB] LOAD_EVENT_SCHEDULER_ALT: Load scheduler "out0" with entities [Aquila (ID: 17416301/0x0109C06D), Aquila (ID: 17416301/0x0109C06D)], work=[223*, 0*]
 12: 0x0157 [0x00] END_REQSTACK()
```

### Event 65535.5

#### Metadata

| Field        | Value    |
|--------------|----------|
| Entrypoint   | 0x0158   |
| Data Size    | 81 bytes |
| Instructions | 8        |

```
      00 01 02 03 04 05 06 07  08 09 0A 0B 0C 0D 0E 0F
      -- -- -- -- -- -- -- --  -- -- -- -- -- -- -- --
0150:                          BB 03 80 6E C0 09 01 6E          ...n...n
0160: C0 09 01 69 6E 30 30 04  80 BB 03 80 68 C0 09 01  ...in00.....h...
0170: 68 C0 09 01 69 6E 30 30  04 80 1C 15 80 BB 03 80  h...in00........
0180: 6D C0 09 01 6D C0 09 01  69 6E 30 30 04 80 BB 03  m...m...in00....
0190: 80 F0 FF FF 7F F0 FF FF  7F 69 6E 30 30 04 80 1C  .........in00...
01A0: 01 80 92 01 F0 FF FF 7F  00                       .........       
```

#### Opcodes

```
  0: 0x0158 [0xBB] LOAD_EVENT_SCHEDULER_ALT: Load scheduler "in00" with entities [Haudrale (ID: 17416302/0x0109C06E), Haudrale (ID: 17416302/0x0109C06E)], work=[223*, 0*]
  1: 0x0169 [0xBB] LOAD_EVENT_SCHEDULER_ALT: Load scheduler "in00" with entities [Lilisette (ID: 17416296/0x0109C068), Lilisette (ID: 17416296/0x0109C068)], work=[223*, 0*]
  2: 0x017A [0x1C] WAIT(45* ticks)
  3: 0x017D [0xBB] LOAD_EVENT_SCHEDULER_ALT: Load scheduler "in00" with entities [Aquila (ID: 17416301/0x0109C06D), Aquila (ID: 17416301/0x0109C06D)], work=[223*, 0*]
  4: 0x018E [0xBB] LOAD_EVENT_SCHEDULER_ALT: Load scheduler "in00" with entities [LocalPlayer, LocalPlayer], work=[223*, 0*]
  5: 0x019F [0x1C] WAIT(30* ticks)
  6: 0x01A2 [0x92] LocalPlayer->Render.Flags3 ^= 0x01
  7: 0x01A8 [0x00] END_REQSTACK()
```

### Event 15

#### Metadata

| Field        | Value     |
|--------------|-----------|
| Entrypoint   | 0x01A9    |
| Data Size    | 658 bytes |
| Instructions | 1         |

```
      00 01 02 03 04 05 06 07  08 09 0A 0B 0C 0D 0E 0F
      -- -- -- -- -- -- -- --  -- -- -- -- -- -- -- --
01A0:                             00 45 16 80 F0 FF FF           .E.....
01B0: 7F F0 FF FF 7F 66 64 69  30 04 80 55 16 80 F0 FF  .....fdi0..U....
01C0: FF 7F F0 FF FF 7F 66 64  69 30 1B 45 16 80 F0 FF  ......fdi0.E....
01D0: FF 7F F0 FF FF 7F 66 64  6F 30 04 80 55 16 80 F0  ......fdo0..U...
01E0: FF FF 7F F0 FF FF 7F 66  64 6F 30 1B 45 16 80 F0  .......fdo0.E...
01F0: FF FF 7F F0 FF FF 7F 66  64 69 31 04 80 55 16 80  .......fdi1..U..
0200: F0 FF FF 7F F0 FF FF 7F  66 64 69 31 1B 45 16 80  ........fdi1.E..
0210: F0 FF FF 7F F0 FF FF 7F  66 64 6F 31 04 80 55 16  ........fdo1..U.
0220: 80 F0 FF FF 7F F0 FF FF  7F 66 64 6F 31 1B 45 17  .........fdo1.E.
0230: 80 F0 FF FF 7F F0 FF FF  7F 77 68 69 31 04 80 55  .........whi1..U
0240: 17 80 F0 FF FF 7F F0 FF  FF 7F 77 68 69 31 1B 45  ..........whi1.E
0250: 17 80 F0 FF FF 7F F0 FF  FF 7F 77 68 6F 31 04 80  ..........who1..
0260: 55 17 80 F0 FF FF 7F F0  FF FF 7F 77 68 6F 31 1B  U..........who1.
0270: 45 17 80 F0 FF FF 7F F0  FF FF 7F 77 68 6F 32 04  E..........who2.
0280: 80 55 17 80 F0 FF FF 7F  F0 FF FF 7F 77 68 6F 32  .U..........who2
0290: 1B 45 17 80 F0 FF FF 7F  F0 FF FF 7F 77 68 6F 33  .E..........who3
02A0: 04 80 55 17 80 F0 FF FF  7F F0 FF FF 7F 77 68 6F  ..U..........who
02B0: 33 1B 62 18 80 F0 FF FF  7F F0 FF FF 7F 6D 61 69  3.b..........mai
02C0: 6E 04 80 1C 15 80 45 16  80 F0 FF FF 7F F0 FF FF  n.....E.........
02D0: 7F 66 64 6F 31 04 80 55  16 80 F0 FF FF 7F F0 FF  .fdo1..U........
02E0: FF 7F 66 64 6F 31 1B 45  16 80 F0 FF FF 7F F0 FF  ..fdo1.E........
02F0: FF 7F 66 64 69 31 04 80  62 19 80 F0 FF FF 7F F0  ..fdi1..b.......
0300: FF FF 7F 6D 61 69 6E 04  80 1C 01 80 55 16 80 F0  ...main.....U...
0310: FF FF 7F F0 FF FF 7F 66  64 69 31 1B 45 16 80 F0  .......fdi1.E...
0320: FF FF 7F F0 FF FF 7F 62  6C 6F 6E 04 80 45 17 80  .......blon..E..
0330: F0 FF FF 7F F0 FF FF 7F  62 6C 6F 6E 04 80 1B 45  ........blon...E
0340: 17 80 F0 FF FF 7F F0 FF  FF 7F 77 68 69 30 04 80  ..........whi0..
0350: 55 17 80 F0 FF FF 7F F0  FF FF 7F 77 68 69 30 1B  U..........whi0.
0360: 45 17 80 F0 FF FF 7F F0  FF FF 7F 77 68 6F 30 04  E..........who0.
0370: 80 55 17 80 F0 FF FF 7F  F0 FF FF 7F 77 68 6F 30  .U..........who0
0380: 1B 45 1A 80 F0 FF FF 7F  F0 FF FF 7F 65 66 6F 6E  .E..........efon
0390: 04 80 55 1A 80 F0 FF FF  7F F0 FF FF 7F 65 66 6F  ..U..........efo
03A0: 6E 1B 45 16 80 F0 FF FF  7F F0 FF FF 7F 66 64 69  n.E..........fdi
03B0: 73 04 80 1B 45 16 80 F0  FF FF 7F F0 FF FF 7F 66  s...E..........f
03C0: 64 6F 73 04 80 55 16 80  F0 FF FF 7F F0 FF FF 7F  dos..U..........
03D0: 66 64 6F 73 1B 45 16 80  F0 FF FF 7F F0 FF FF 7F  fdos.E..........
03E0: 66 64 69 66 04 80 1B 45  16 80 F0 FF FF 7F F0 FF  fdif...E........
03F0: FF 7F 66 64 6F 66 04 80  55 16 80 F0 FF FF 7F F0  ..fdof..U.......
0400: FF FF 7F 66 64 6F 66 1B  45 16 80 F0 FF FF 7F F0  ...fdof.E.......
0410: FF FF 7F 66 64 69 70 04  80 1B 45 16 80 F0 FF FF  ...fdip...E.....
0420: 7F F0 FF FF 7F 66 64 6F  70 04 80 55 16 80 F0 FF  .....fdop..U....
0430: FF 7F F0 FF FF 7F 66 64  6F 70 1B                 ......fdop.     
```

#### Opcodes

```
  0: 0x01A9 [0x00] END_REQSTACK()
```

#### Data or dead code:

```
# Dead code (unreachable instructions):
     0x01AA [0x45] LOAD_SCHEDULED_TASK: Load scheduler "fdi0" with entities [LocalPlayer, LocalPlayer], work=[200*, 0*]
     0x01BB [0x55] WAIT_LOAD_SCHEDULER: Wait for scheduler "fdi0" with entities [LocalPlayer, LocalPlayer], work=200*
     0x01CA [0x1B] RETURN
     0x01CB [0x45] LOAD_SCHEDULED_TASK: Load scheduler "fdo0" with entities [LocalPlayer, LocalPlayer], work=[200*, 0*]
     0x01DC [0x55] WAIT_LOAD_SCHEDULER: Wait for scheduler "fdo0" with entities [LocalPlayer, LocalPlayer], work=200*
     0x01EB [0x1B] RETURN
     0x01EC [0x45] LOAD_SCHEDULED_TASK: Load scheduler "fdi1" with entities [LocalPlayer, LocalPlayer], work=[200*, 0*]
     0x01FD [0x55] WAIT_LOAD_SCHEDULER: Wait for scheduler "fdi1" with entities [LocalPlayer, LocalPlayer], work=200*
     0x020C [0x1B] RETURN
     0x020D [0x45] LOAD_SCHEDULED_TASK: Load scheduler "fdo1" with entities [LocalPlayer, LocalPlayer], work=[200*, 0*]
     0x021E [0x55] WAIT_LOAD_SCHEDULER: Wait for scheduler "fdo1" with entities [LocalPlayer, LocalPlayer], work=200*
     0x022D [0x1B] RETURN
     0x022E [0x45] LOAD_SCHEDULED_TASK: Load scheduler "whi1" with entities [LocalPlayer, LocalPlayer], work=[201*, 0*]
     0x023F [0x55] WAIT_LOAD_SCHEDULER: Wait for scheduler "whi1" with entities [LocalPlayer, LocalPlayer], work=201*
     0x024E [0x1B] RETURN
     0x024F [0x45] LOAD_SCHEDULED_TASK: Load scheduler "who1" with entities [LocalPlayer, LocalPlayer], work=[201*, 0*]
     0x0260 [0x55] WAIT_LOAD_SCHEDULER: Wait for scheduler "who1" with entities [LocalPlayer, LocalPlayer], work=201*
     0x026F [0x1B] RETURN
     0x0270 [0x45] LOAD_SCHEDULED_TASK: Load scheduler "who2" with entities [LocalPlayer, LocalPlayer], work=[201*, 0*]
     0x0281 [0x55] WAIT_LOAD_SCHEDULER: Wait for scheduler "who2" with entities [LocalPlayer, LocalPlayer], work=201*
     0x0290 [0x1B] RETURN
     0x0291 [0x45] LOAD_SCHEDULED_TASK: Load scheduler "who3" with entities [LocalPlayer, LocalPlayer], work=[201*, 0*]
     0x02A2 [0x55] WAIT_LOAD_SCHEDULER: Wait for scheduler "who3" with entities [LocalPlayer, LocalPlayer], work=201*
     0x02B1 [0x1B] RETURN
     0x02B2 [0x62] LOAD_EVENT_SCHEDULER: Load scheduler "main" with entities [LocalPlayer, LocalPlayer], work=[1*, 0*]
     0x02C3 [0x1C] WAIT(45* ticks)
     0x02C6 [0x45] LOAD_SCHEDULED_TASK: Load scheduler "fdo1" with entities [LocalPlayer, LocalPlayer], work=[200*, 0*]
     0x02D7 [0x55] WAIT_LOAD_SCHEDULER: Wait for scheduler "fdo1" with entities [LocalPlayer, LocalPlayer], work=200*
     0x02E6 [0x1B] RETURN
     0x02E7 [0x45] LOAD_SCHEDULED_TASK: Load scheduler "fdi1" with entities [LocalPlayer, LocalPlayer], work=[200*, 0*]
     0x02F8 [0x62] LOAD_EVENT_SCHEDULER: Load scheduler "main" with entities [LocalPlayer, LocalPlayer], work=[2*, 0*]
     0x0309 [0x1C] WAIT(30* ticks)
     0x030C [0x55] WAIT_LOAD_SCHEDULER: Wait for scheduler "fdi1" with entities [LocalPlayer, LocalPlayer], work=200*
     0x031B [0x1B] RETURN
     0x031C [0x45] LOAD_SCHEDULED_TASK: Load scheduler "blon" with entities [LocalPlayer, LocalPlayer], work=[200*, 0*]
     0x032D [0x45] LOAD_SCHEDULED_TASK: Load scheduler "blon" with entities [LocalPlayer, LocalPlayer], work=[201*, 0*]
     0x033E [0x1B] RETURN
     0x033F [0x45] LOAD_SCHEDULED_TASK: Load scheduler "whi0" with entities [LocalPlayer, LocalPlayer], work=[201*, 0*]
     0x0350 [0x55] WAIT_LOAD_SCHEDULER: Wait for scheduler "whi0" with entities [LocalPlayer, LocalPlayer], work=201*
     0x035F [0x1B] RETURN
     0x0360 [0x45] LOAD_SCHEDULED_TASK: Load scheduler "who0" with entities [LocalPlayer, LocalPlayer], work=[201*, 0*]
     0x0371 [0x55] WAIT_LOAD_SCHEDULER: Wait for scheduler "who0" with entities [LocalPlayer, LocalPlayer], work=201*
     0x0380 [0x1B] RETURN
     0x0381 [0x45] LOAD_SCHEDULED_TASK: Load scheduler "efon" with entities [LocalPlayer, LocalPlayer], work=[215*, 0*]
     0x0392 [0x55] WAIT_LOAD_SCHEDULER: Wait for scheduler "efon" with entities [LocalPlayer, LocalPlayer], work=215*
     0x03A1 [0x1B] RETURN
     0x03A2 [0x45] LOAD_SCHEDULED_TASK: Load scheduler "fdis" with entities [LocalPlayer, LocalPlayer], work=[200*, 0*]
     0x03B3 [0x1B] RETURN
     0x03B4 [0x45] LOAD_SCHEDULED_TASK: Load scheduler "fdos" with entities [LocalPlayer, LocalPlayer], work=[200*, 0*]
     0x03C5 [0x55] WAIT_LOAD_SCHEDULER: Wait for scheduler "fdos" with entities [LocalPlayer, LocalPlayer], work=200*
     0x03D4 [0x1B] RETURN
     0x03D5 [0x45] LOAD_SCHEDULED_TASK: Load scheduler "fdif" with entities [LocalPlayer, LocalPlayer], work=[200*, 0*]
     0x03E6 [0x1B] RETURN
     0x03E7 [0x45] LOAD_SCHEDULED_TASK: Load scheduler "fdof" with entities [LocalPlayer, LocalPlayer], work=[200*, 0*]
     0x03F8 [0x55] WAIT_LOAD_SCHEDULER: Wait for scheduler "fdof" with entities [LocalPlayer, LocalPlayer], work=200*
     0x0407 [0x1B] RETURN
     0x0408 [0x45] LOAD_SCHEDULED_TASK: Load scheduler "fdip" with entities [LocalPlayer, LocalPlayer], work=[200*, 0*]
     0x0419 [0x1B] RETURN
     0x041A [0x45] LOAD_SCHEDULED_TASK: Load scheduler "fdop" with entities [LocalPlayer, LocalPlayer], work=[200*, 0*]
     0x042B [0x55] WAIT_LOAD_SCHEDULER: Wait for scheduler "fdop" with entities [LocalPlayer, LocalPlayer], work=200*
     0x043A [0x1B] RETURN
```
