# 17416320 - Zeid

## Common Data

| Field            | Value                     |
|------------------|---------------------------|
| Zone             | Throne Room [S] (ID: 156) |
| Block Size       | 180 bytes                 |
| Total Events     | 6                         |
| References Count | 4                         |

## List of Events

| Event ID                 | Entrypoint   |   Size |   Instructions |
|--------------------------|--------------|--------|----------------|
| [65535](#event-65535)    | 0x0000       |      1 |              1 |
| [12](#event-12)          | 0x0001       |      7 |              2 |
| [32000](#event-32000)    | 0x0008       |      1 |              1 |
| [32004](#event-32004)    | 0x0009       |     11 |              3 |
| [32001](#event-32001)    | 0x0014       |      7 |              2 |
| [65535.1](#event-655351) | 0x001B       |     94 |             10 |

## DAT References (imed_data)

|   Index | Hex Value   |   Dec Value |
|---------|-------------|-------------|
|       0 | 0x0064      |         100 |
|       1 | 0x0078      |         120 |
|       2 | 0x0211      |         529 |
|       3 | 0x0000      |           0 |

## Events

### Event 65535

#### Metadata

| Field        | Value   |
|--------------|---------|
| Entrypoint   | 0x0000  |
| Data Size    | 1 bytes |
| Instructions | 1       |

```
      00 01 02 03 04 05 06 07  08 09 0A 0B 0C 0D 0E 0F
      -- -- -- -- -- -- -- --  -- -- -- -- -- -- -- --
0000: 00                                                .               
```

#### Opcodes

```
  0: 0x0000 [0x00] END_REQSTACK()
```

### Event 12

#### Metadata

| Field        | Value   |
|--------------|---------|
| Entrypoint   | 0x0001  |
| Data Size    | 7 bytes |
| Instructions | 2       |

```
      00 01 02 03 04 05 06 07  08 09 0A 0B 0C 0D 0E 0F
      -- -- -- -- -- -- -- --  -- -- -- -- -- -- -- --
0000:    92 01 F8 FF FF 7F 00                            .......        
```

#### Opcodes

```
  0: 0x0001 [0x92] EventEntity->Render.Flags3 ^= 0x01
  1: 0x0007 [0x00] END_REQSTACK()
```

### Event 32000

#### Metadata

| Field        | Value   |
|--------------|---------|
| Entrypoint   | 0x0008  |
| Data Size    | 1 bytes |
| Instructions | 1       |

```
      00 01 02 03 04 05 06 07  08 09 0A 0B 0C 0D 0E 0F
      -- -- -- -- -- -- -- --  -- -- -- -- -- -- -- --
0000:                          00                               .       
```

#### Opcodes

```
  0: 0x0008 [0x00] END_REQSTACK()
```

### Event 32004

#### Metadata

| Field        | Value    |
|--------------|----------|
| Entrypoint   | 0x0009   |
| Data Size    | 11 bytes |
| Instructions | 3        |

```
      00 01 02 03 04 05 06 07  08 09 0A 0B 0C 0D 0E 0F
      -- -- -- -- -- -- -- --  -- -- -- -- -- -- -- --
0000:                             92 01 F8 FF FF 7F B6           .......
0010: 0F 00 80 00                                       ....            
```

#### Opcodes

```
  0: 0x0009 [0x92] EventEntity->Render.Flags3 ^= 0x01
  1: 0x000F [0xB6] ENTITY_APPEARANCE_HANDLER(case=Model size, value=100*)
  2: 0x0013 [0x00] END_REQSTACK()
```

### Event 32001

#### Metadata

| Field        | Value   |
|--------------|---------|
| Entrypoint   | 0x0014  |
| Data Size    | 7 bytes |
| Instructions | 2       |

```
      00 01 02 03 04 05 06 07  08 09 0A 0B 0C 0D 0E 0F
      -- -- -- -- -- -- -- --  -- -- -- -- -- -- -- --
0010:             92 01 F8 FF  FF 7F 00                     .......     
```

#### Opcodes

```
  0: 0x0014 [0x92] EventEntity->Render.Flags3 ^= 0x01
  1: 0x001A [0x00] END_REQSTACK()
```

### Event 65535.1

#### Metadata

| Field        | Value    |
|--------------|----------|
| Entrypoint   | 0x001B   |
| Data Size    | 94 bytes |
| Instructions | 10       |

```
      00 01 02 03 04 05 06 07  08 09 0A 0B 0C 0D 0E 0F
      -- -- -- -- -- -- -- --  -- -- -- -- -- -- -- --
0010:                                   1C 01 80 52 02             ...R.
0020: 80 F8 FF FF 7F F8 FF FF  7F 73 31 30 38 45 02 80  .........s108E..
0030: F8 FF FF 7F F8 FF FF 7F  73 31 32 35 03 80 1C 01  ........s125....
0040: 80 52 02 80 F8 FF FF 7F  F8 FF FF 7F 73 31 32 35  .R..........s125
0050: 45 02 80 F8 FF FF 7F F8  FF FF 7F 73 31 32 36 03  E..........s126.
0060: 80 1C 01 80 5D 03 80 01  80 52 02 80 F8 FF FF 7F  ....]....R......
0070: F8 FF FF 7F 73 31 32 36  00                       ....s126.       
```

#### Opcodes

```
  0: 0x001B [0x1C] WAIT(120* ticks)
  1: 0x001E [0x52] END_LOAD_SCHEDULER: End scheduler "s108" with entities [EventEntity, EventEntity], work=529*
  2: 0x002D [0x45] LOAD_SCHEDULED_TASK: Load scheduler "s125" with entities [EventEntity, EventEntity], work=[529*, 0*]
  3: 0x003E [0x1C] WAIT(120* ticks)
  4: 0x0041 [0x52] END_LOAD_SCHEDULER: End scheduler "s125" with entities [EventEntity, EventEntity], work=529*
  5: 0x0050 [0x45] LOAD_SCHEDULED_TASK: Load scheduler "s126" with entities [EventEntity, EventEntity], work=[529*, 0*]
  6: 0x0061 [0x1C] WAIT(120* ticks)
  7: 0x0064 [0x5D] SET_MUSIC_VOLUME(volume=0*, fade_time=120*)
  8: 0x0069 [0x52] END_LOAD_SCHEDULER: End scheduler "s126" with entities [EventEntity, EventEntity], work=529*
  9: 0x0078 [0x00] END_REQSTACK()
```
