# 0x7FFFFFF0 - Zone Events

## Common Data

| Field            | Value                     |
|------------------|---------------------------|
| Zone             | Throne Room [S] (ID: 156) |
| Block Size       | 15084 bytes               |
| Total Events     | 32                        |
| References Count | 366                       |

## List of Events

| Event ID                   | Entrypoint   |   Size |   Instructions |
|----------------------------|--------------|--------|----------------|
| [65535](#event-65535)      | 0x0000       |      1 |              1 |
| [65534](#event-65534)      | 0x0001       |      1 |              1 |
| [65535.1](#event-655351)   | 0x0002       |     37 |              5 |
| [65535.2](#event-655352)   | 0x0027       |    185 |             37 |
| [65535.3](#event-655353)   | 0x00E0       |      6 |              2 |
| [65535.4](#event-655354)   | 0x00E6       |      6 |              2 |
| [65535.5](#event-655355)   | 0x00EC       |      7 |              3 |
| [65535.6](#event-655356)   | 0x00F3       |      7 |              3 |
| [32000](#event-32000)      | 0x00FA       |   2162 |            412 |
| [32002](#event-32002)      | 0x096C       |    494 |             83 |
| [32001](#event-32001)      | 0x0B5A       |    819 |            138 |
| [32003](#event-32003)      | 0x0E8D       |    435 |             77 |
| [32004](#event-32004)      | 0x1040       |     73 |             16 |
| [32005](#event-32005)      | 0x1089       |   5890 |            712 |
| [65535.7](#event-655357)   | 0x278B       |     24 |              4 |
| [65535.8](#event-655358)   | 0x27A3       |     24 |              4 |
| [65535.9](#event-655359)   | 0x27BB       |     38 |              5 |
| [65535.10](#event-6553510) | 0x27E1       |     38 |              5 |
| [65535.11](#event-6553511) | 0x2807       |     38 |              5 |
| [65535.12](#event-6553512) | 0x282D       |     37 |              5 |
| [65535.13](#event-6553513) | 0x2852       |     37 |              5 |
| [65535.14](#event-6553514) | 0x2877       |     42 |              6 |
| [65535.15](#event-6553515) | 0x28A1       |     15 |              5 |
| [65535.16](#event-6553516) | 0x28B0       |     42 |              6 |
| [65535.17](#event-6553517) | 0x28DA       |     29 |              5 |
| [65535.18](#event-6553518) | 0x28F7       |     14 |              4 |
| [65535.19](#event-6553519) | 0x2905       |     22 |              6 |
| [65535.20](#event-6553520) | 0x291B       |   2903 |            294 |
| [65535.21](#event-6553521) | 0x3472       |     14 |              4 |
| [65535.22](#event-6553522) | 0x3480       |     14 |              4 |
| [65535.23](#event-6553523) | 0x348E       |     10 |              2 |
| [65535.24](#event-6553524) | 0x3498       |     10 |              2 |

## DAT References (imed_data)

|   Index | Hex Value   |   Dec Value |
|---------|-------------|-------------|
|       0 | 0x0005      |           5 |
|       1 | 0x0001      |           1 |
|       2 | 0x0002      |           2 |
|       3 | 0x000A      |          10 |
|       4 | 0x0009      |           9 |
|       5 | 0x0046      |          70 |
|       6 | 0x008C      |         140 |
|       7 | 0x00D2      |         210 |
|       8 | 0x0000      |           0 |
|       9 | 0x000F      |          15 |
|      10 | 0x0010      |          16 |
|      11 | 0x001F      |          31 |
|      12 | 0xFFFFFFFF  |  4294967295 |
|      13 | 0x1F1F      |        7967 |
|      14 | 0x1F13      |        7955 |
|      15 | 0x0003      |           3 |
|      16 | 0x0004      |           4 |
|      17 | 0x1DA6      |        7590 |
|      18 | 0x00FF      |         255 |
|      19 | 0x00C8      |         200 |
|      20 | 0x0013      |          19 |
|      21 | 0x0008      |           8 |
|      22 | 0x000B      |          11 |
|      23 | 0xFFF94304  |  4294525700 |
|      24 | 0xFFFC55CA  |  4294727114 |
|      25 | 0xFFFD73A8  |  4294800296 |
|      26 | 0x07B0      |        1968 |
|      27 | 0xFFF46137  |  4294205751 |
|      28 | 0xFFF8AC53  |  4294487123 |
|      29 | 0xFFF9CA28  |  4294560296 |
|      30 | 0x07E0      |        2016 |
|      31 | 0xFFEF7FD9  |  4293885913 |
|      32 | 0xFFF502E2  |  4294247138 |
|      33 | 0xFFF620A8  |  4294320296 |
|      34 | 0x0801      |        2049 |
|      35 | 0x1DB1      |        7601 |
|      36 | 0x1DB2      |        7602 |
|      37 | 0x1DB3      |        7603 |
|      38 | 0x1DB4      |        7604 |
|      39 | 0x1DD8      |        7640 |
|      40 | 0x0006      |           6 |
|      41 | 0x0007      |           7 |
|      42 | 0x000C      |          12 |
|      43 | 0x000D      |          13 |
|      44 | 0x000E      |          14 |
|      45 | 0x0011      |          17 |
|      46 | 0x0012      |          18 |
|      47 | 0x0014      |          20 |
|      48 | 0x0015      |          21 |
|      49 | 0x0016      |          22 |
|      50 | 0x0017      |          23 |
|      51 | 0x0018      |          24 |
|      52 | 0x0019      |          25 |
|      53 | 0x001A      |          26 |
|      54 | 0x001B      |          27 |
|      55 | 0x001C      |          28 |
|      56 | 0x001D      |          29 |
|      57 | 0x001E      |          30 |
|      58 | 0x1F0D      |        7949 |
|      59 | 0x003C      |          60 |
|      60 | 0x0064      |         100 |
|      61 | 0x1EF9      |        7929 |
|      62 | 0x0077      |         119 |
|      63 | 0x1DA9      |        7593 |
|      64 | 0x00C9      |         201 |
|      65 | 0x00B4      |         180 |
|      66 | 0xFFF6C42B  |  4294362155 |
|      67 | 0x752B9     |      479929 |
|      68 | 0xFFFFA767  |  4294944615 |
|      69 | 0x03E0      |         992 |
|      70 | 0xFFFBFE43  |  4294704707 |
|      71 | 0x5C401     |      377857 |
|      72 | 0xFFFDE79F  |  4294829983 |
|      73 | 0x0D92      |        3474 |
|      74 | 0x47AC      |       18348 |
|      75 | 0x76E1C     |      486940 |
|      76 | 0xFFFC93B2  |  4294742962 |
|      77 | 0x00C2      |         194 |
|      78 | 0x388A9     |      231593 |
|      79 | 0x57E9E     |      360094 |
|      80 | 0xFFFD59FC  |  4294793724 |
|      81 | 0x0726      |        1830 |
|      82 | 0x872C0     |      553664 |
|      83 | 0x7FEA3     |      523939 |
|      84 | 0xFFFF6AC3  |  4294929091 |
|      85 | 0x0A65      |        2661 |
|      86 | 0xFFFFFF9B  |  4294967195 |
|      87 | 0xFFF2A593  |  4294092179 |
|      88 | 0xFFFF548C  |  4294923404 |
|      89 | 0xFFFF442C  |  4294919212 |
|      90 | 0x0201      |         513 |
|      91 | 0xFFF478D5  |  4294211797 |
|      92 | 0x89AEB     |      563947 |
|      93 | 0xFFFE4A5D  |  4294855261 |
|      94 | 0x0DEF      |        3567 |
|      95 | 0x1E173     |      123251 |
|      96 | 0xB8221     |      754209 |
|      97 | 0xFFFD5FA4  |  4294795172 |
|      98 | 0x01B8      |         440 |
|      99 | 0xFFF81ECC  |  4294450892 |
|     100 | 0xFFF3BE05  |  4294163973 |
|     101 | 0x5E8E      |       24206 |
|     102 | 0x01B5      |         437 |
|     103 | 0x012C      |         300 |
|     104 | 0x0080      |         128 |
|     105 | 0xFFF690A7  |  4294348967 |
|     106 | 0xFFF62CE4  |  4294323428 |
|     107 | 0xFFFF9B33  |  4294941491 |
|     108 | 0x0EB1      |        3761 |
|     109 | 0xFFFAEE7D  |  4294635133 |
|     110 | 0xFFF941C6  |  4294525382 |
|     111 | 0xFFFE8CB1  |  4294872241 |
|     112 | 0x0EB0      |        3760 |
|     113 | 0xFFFFCF50  |  4294954832 |
|     114 | 0xFFF61B47  |  4294318919 |
|     115 | 0xFFFD07BB  |  4294772667 |
|     116 | 0x0EBA      |        3770 |
|     117 | 0x4EF35     |      323381 |
|     118 | 0xFFF93A6F  |  4294523503 |
|     119 | 0xFFFE5868  |  4294858856 |
|     120 | 0x0EA0      |        3744 |
|     121 | 0x92763     |      599907 |
|     122 | 0xFFF5AB97  |  4294290327 |
|     123 | 0xFFFFA837  |  4294944823 |
|     124 | 0x0EB3      |        3763 |
|     125 | 0x16139     |       90425 |
|     126 | 0x0059      |          89 |
|     127 | 0xFFFFE98B  |  4294961547 |
|     128 | 0x0034      |          52 |
|     129 | 0x00A8      |         168 |
|     130 | 0x30D7B     |      200059 |
|     131 | 0xFFFFAA3A  |  4294945338 |
|     132 | 0xFFFFFF06  |  4294967046 |
|     133 | 0x0411      |        1041 |
|     134 | 0x1EFB      |        7931 |
|     135 | 0x1EFA      |        7930 |
|     136 | 0x1F1B      |        7963 |
|     137 | 0x0078      |         120 |
|     138 | 0xFFF92E18  |  4294520344 |
|     139 | 0xFFFC568A  |  4294727306 |
|     140 | 0xFFFD72E1  |  4294800097 |
|     141 | 0x0803      |        2051 |
|     142 | 0xFFF44C64  |  4294200420 |
|     143 | 0xFFF8ACF2  |  4294487282 |
|     144 | 0xFFF9C961  |  4294560097 |
|     145 | 0x0812      |        2066 |
|     146 | 0xFFEF6AFB  |  4293880571 |
|     147 | 0xFFF50374  |  4294247284 |
|     148 | 0xFFF61FE2  |  4294320098 |
|     149 | 0x07EF      |        2031 |
|     150 | 0x0041      |          65 |
|     151 | 0xFFF90D51  |  4294511953 |
|     152 | 0xFFFC58A3  |  4294727843 |
|     153 | 0x0828      |        2088 |
|     154 | 0xFFF90622  |  4294510114 |
|     155 | 0xFFFC5410  |  4294726672 |
|     156 | 0xFFF8A8D4  |  4294486228 |
|     157 | 0xFFFC59F9  |  4294728185 |
|     158 | 0xFFFD6021  |  4294795297 |
|     159 | 0x0052      |          82 |
|     160 | 0xFFF8A348  |  4294484808 |
|     161 | 0xFFFC56BC  |  4294727356 |
|     162 | 0x0898      |        2200 |
|     163 | 0x088B      |        2187 |
|     164 | 0x0857      |        2135 |
|     165 | 0x0BB5      |        2997 |
|     166 | 0x01E6      |         486 |
|     167 | 0x0096      |         150 |
|     168 | 0x0186      |         390 |
|     169 | 0x00F0      |         240 |
|     170 | 0x1FA9      |        8105 |
|     171 | 0x01C1      |         449 |
|     172 | 0xFFF90500  |  4294509824 |
|     173 | 0xFFFC83C5  |  4294738885 |
|     174 | 0x0506      |        1286 |
|     175 | 0xFFF8F787  |  4294506375 |
|     176 | 0xFFFC606E  |  4294729838 |
|     177 | 0x0D1E      |        3358 |
|     178 | 0xFFF90173  |  4294508915 |
|     179 | 0xFFFC5CE0  |  4294728928 |
|     180 | 0xFFFD7335  |  4294800181 |
|     181 | 0x0BB8      |        3000 |
|     182 | 0xFFF90FD4  |  4294512596 |
|     183 | 0xFFFCA36D  |  4294746989 |
|     184 | 0xFFFD6FEA  |  4294799338 |
|     185 | 0x0422      |        1058 |
|     186 | 0x0A70      |        2672 |
|     187 | 0x00F5      |         245 |
|     188 | 0x0211      |         529 |
|     189 | 0x0AB6      |        2742 |
|     190 | 0x1FF8      |        8184 |
|     191 | 0x0AB8      |        2744 |
|     192 | 0x1FF9      |        8185 |
|     193 | 0x0050      |          80 |
|     194 | 0x017B      |         379 |
|     195 | 0xFFF9095B  |  4294510939 |
|     196 | 0xFFFC5647  |  4294727239 |
|     197 | 0x0DB5      |        3509 |
|     198 | 0xFFF8E4D1  |  4294501585 |
|     199 | 0xFFFC56A0  |  4294727328 |
|     200 | 0xFFFD72D7  |  4294800087 |
|     201 | 0xFFF8F1A7  |  4294504871 |
|     202 | 0xFFFC5615  |  4294727189 |
|     203 | 0x07EB      |        2027 |
|     204 | 0xFFF913A7  |  4294513575 |
|     205 | 0xFFFC97FA  |  4294744058 |
|     206 | 0x0404      |        1028 |
|     207 | 0xFFF920BD  |  4294516925 |
|     208 | 0xFFFC8068  |  4294738024 |
|     209 | 0xFFFD72AC  |  4294800044 |
|     210 | 0x0AAE      |        2734 |
|     211 | 0xFFF91D94  |  4294516116 |
|     212 | 0xFFFC7A97  |  4294736535 |
|     213 | 0xFFFD72B7  |  4294800055 |
|     214 | 0x0A1C      |        2588 |
|     215 | 0xFFF8995F  |  4294482271 |
|     216 | 0xFFFC5665  |  4294727269 |
|     217 | 0xFFFD5E92  |  4294794898 |
|     218 | 0x0FE8      |        4072 |
|     219 | 0x00CA      |         202 |
|     220 | 0x0C0C      |        3084 |
|     221 | 0x0ABB      |        2747 |
|     222 | 0x0C33      |        3123 |
|     223 | 0x0C2B      |        3115 |
|     224 | 0x009D      |         157 |
|     225 | 0x0C3D      |        3133 |
|     226 | 0x2002      |        8194 |
|     227 | 0x005A      |          90 |
|     228 | 0x0037      |          55 |
|     229 | 0x2003      |        8195 |
|     230 | 0x2004      |        8196 |
|     231 | 0x2005      |        8197 |
|     232 | 0x2006      |        8198 |
|     233 | 0x2007      |        8199 |
|     234 | 0x2008      |        8200 |
|     235 | 0x2009      |        8201 |
|     236 | 0x002D      |          45 |
|     237 | 0x200A      |        8202 |
|     238 | 0x200B      |        8203 |
|     239 | 0x200C      |        8204 |
|     240 | 0xFFF913AD  |  4294513581 |
|     241 | 0xFFFC7726  |  4294735654 |
|     242 | 0xFFFD739E  |  4294800286 |
|     243 | 0x0427      |        1063 |
|     244 | 0xFFF90A7F  |  4294511231 |
|     245 | 0xFFFC7841  |  4294735937 |
|     246 | 0xFFFD737F  |  4294800255 |
|     247 | 0xFFF90F83  |  4294512515 |
|     248 | 0xFFFC7E85  |  4294737541 |
|     249 | 0x200D      |        8205 |
|     250 | 0x200E      |        8206 |
|     251 | 0x200F      |        8207 |
|     252 | 0x2010      |        8208 |
|     253 | 0x0C34      |        3124 |
|     254 | 0x0C2C      |        3116 |
|     255 | 0x2011      |        8209 |
|     256 | 0x0073      |         115 |
|     257 | 0xFFF94CC8  |  4294528200 |
|     258 | 0xFFFC52BC  |  4294726332 |
|     259 | 0xFFFD7343  |  4294800195 |
|     260 | 0x0FFA      |        4090 |
|     261 | 0xFFF94BD3  |  4294527955 |
|     262 | 0xFFFC5AD0  |  4294728400 |
|     263 | 0xFFF94853  |  4294527059 |
|     264 | 0xFFFC5719  |  4294727449 |
|     265 | 0xFFFD734E  |  4294800206 |
|     266 | 0xFFF94432  |  4294526002 |
|     267 | 0xFFFC5A86  |  4294728326 |
|     268 | 0xFFFD73A9  |  4294800297 |
|     269 | 0x0FA9      |        4009 |
|     270 | 0xFFF93776  |  4294522742 |
|     271 | 0xFFFC50C4  |  4294725828 |
|     272 | 0x0F9D      |        3997 |
|     273 | 0x2012      |        8210 |
|     274 | 0x2013      |        8211 |
|     275 | 0x2014      |        8212 |
|     276 | 0x2015      |        8213 |
|     277 | 0x2016      |        8214 |
|     278 | 0x1DA7      |        7591 |
|     279 | 0xFFF94CEE  |  4294528238 |
|     280 | 0xFFFC5699  |  4294727321 |
|     281 | 0x0028      |          40 |
|     282 | 0xFFF95FA9  |  4294533033 |
|     283 | 0xFFFC56D7  |  4294727383 |
|     284 | 0xFFF97176  |  4294537590 |
|     285 | 0xFFFC56BE  |  4294727358 |
|     286 | 0x006C      |         108 |
|     287 | 0x00D7      |         215 |
|     288 | 0x0091      |         145 |
|     289 | 0x004F      |          79 |
|     290 | 0x004C      |          76 |
|     291 | 0x0020      |          32 |
|     292 | 0x0030      |          48 |
|     293 | 0x0040      |          64 |
|     294 | 0x27AC      |       10156 |
|     295 | 0x0585      |        1413 |
|     296 | 0xFFF92754  |  4294518612 |
|     297 | 0xFFFC52CC  |  4294726348 |
|     298 | 0xFFF9005A  |  4294508634 |
|     299 | 0xFFFC6614  |  4294731284 |
|     300 | 0xFFF94AF9  |  4294527737 |
|     301 | 0xFFFC5383  |  4294726531 |
|     302 | 0xFFF90709  |  4294510345 |
|     303 | 0xFFFC588B  |  4294727819 |
|     304 | 0x0087      |         135 |
|     305 | 0xFFF91C53  |  4294515795 |
|     306 | 0xFFFC5347  |  4294726471 |
|     307 | 0x08CB      |        2251 |
|     308 | 0xFFF8F9A0  |  4294506912 |
|     309 | 0xFFFC651C  |  4294731036 |
|     310 | 0x0764      |        1892 |
|     311 | 0xFFF91A3F  |  4294515263 |
|     312 | 0xFFFC4F09  |  4294725385 |
|     313 | 0x08CC      |        2252 |
|     314 | 0xFFFBEC41  |  4294700097 |
|     315 | 0x0AB0      |        2736 |
|     316 | 0x0102      |         258 |
|     317 | 0xFFF8EB82  |  4294503298 |
|     318 | 0xFFFC569F  |  4294727327 |
|     319 | 0x0FFE      |        4094 |
|     320 | 0x004B      |          75 |
|     321 | 0xFFF919B6  |  4294515126 |
|     322 | 0xFFFC5A4E  |  4294728270 |
|     323 | 0x0032      |          50 |
|     324 | 0xFFF91432  |  4294513714 |
|     325 | 0xFFFC53E7  |  4294726631 |
|     326 | 0xFFFD7388  |  4294800264 |
|     327 | 0x0B66      |        2918 |
|     328 | 0x0AB3      |        2739 |
|     329 | 0xFFF90C43  |  4294511683 |
|     330 | 0xFFFC55C7  |  4294727111 |
|     331 | 0x07E5      |        2021 |
|     332 | 0xFFF93691  |  4294522513 |
|     333 | 0xFFFC56DA  |  4294727386 |
|     334 | 0x0C2A      |        3114 |
|     335 | 0x0C32      |        3122 |
|     336 | 0x0045      |          69 |
|     337 | 0x1FFA      |        8186 |
|     338 | 0x1FFB      |        8187 |
|     339 | 0x1FFC      |        8188 |
|     340 | 0x1FFD      |        8189 |
|     341 | 0x006E      |         110 |
|     342 | 0x1FF4      |        8180 |
|     343 | 0xFFF90501  |  4294509825 |
|     344 | 0xFFFC6151  |  4294730065 |
|     345 | 0xFFFD7391  |  4294800273 |
|     346 | 0x0023      |          35 |
|     347 | 0x1FFE      |        8190 |
|     348 | 0x0070      |         112 |
|     349 | 0x0038      |          56 |
|     350 | 0xFFF9142A  |  4294513706 |
|     351 | 0xFFFC6941  |  4294732097 |
|     352 | 0x031E      |         798 |
|     353 | 0x0C3C      |        3132 |
|     354 | 0xFFF907DC  |  4294510556 |
|     355 | 0xFFFC5642  |  4294727234 |
|     356 | 0x0FF6      |        4086 |
|     357 | 0x0ADF      |        2783 |
|     358 | 0x1FFF      |        8191 |
|     359 | 0x2000      |        8192 |
|     360 | 0x2001      |        8193 |
|     361 | 0x316C      |       12652 |
|     362 | 0x05CC      |        1484 |
|     363 | 0xFFFFFF97  |  4294967191 |
|     364 | 0x0A00      |        2560 |
|     365 | 0x0413      |        1043 |

## String References

- **7590**: Enter the battlefield? [Enter./Decline.]
- **7591**: Leave the battlefield? [Run away./Stay.]
- **7593**: You cannot enter the battlefield at present. Please wait a little longer.
- **7601**: You are cleared to enter the battlefield, but you cannot while party members are engaged in combat.
- **7602**: You are cleared to enter the battlefield, but you cannot while party members are engaged in combat.
- **7603**: You are cleared to enter the battlefield, but you cannot while party members are engaged in combat.
- **7604**: You are cleared to enter the battlefield, but you cannot while party members are engaged in combat.
- **7640**: You do not meet the requirements to enter the battlefield. Access is denied.
- **7929**: Skip the event? [Yes./No.]
- **7930**: Battlefield clear time: $3 second[/s]!
- **7931**: Battlefield clear time: $3 minute[/s], $2 second[/s]!
- **7949**: Only $3 [member/members] have clearance to enter the battlefield. This room has reached its maximum capacity.
- **7955**: Select difficulty. [Very difficult. (Level: ???)/Difficult. (Level: ???)/Normal. (Level: $18)/Easy. (Level: $17)/Very Easy. (Level: $16)/Leave.]
- **7963**: You have broken the clear time record for "[Fiat Lux/Darkness Descends/Bonds of Mythril/Unafraid of the Dark]"!
- **7967**: Which battlefield will you enter? [None./Fiat Lux./Darkness Descends./Bonds of Mythril./Unafraid of the Dark./@/@/@/@/@/@/@/@/@/@/@/@/@/@/@/@/@/@/@/@/@/@/@/@/@/@/@]

## Events

### Event 65535

#### Metadata

| Field        | Value   |
|--------------|---------|
| Entrypoint   | 0x0000  |
| Data Size    | 1 bytes |
| Instructions | 1       |

```
      00 01 02 03 04 05 06 07  08 09 0A 0B 0C 0D 0E 0F
      -- -- -- -- -- -- -- --  -- -- -- -- -- -- -- --
0000: 00                                                .               
```

#### Opcodes

```
  0: 0x0000 [0x00] END_REQSTACK()
```

### Event 65534

#### Metadata

| Field        | Value   |
|--------------|---------|
| Entrypoint   | 0x0001  |
| Data Size    | 1 bytes |
| Instructions | 1       |

```
      00 01 02 03 04 05 06 07  08 09 0A 0B 0C 0D 0E 0F
      -- -- -- -- -- -- -- --  -- -- -- -- -- -- -- --
0000:    00                                              .              
```

#### Opcodes

```
  0: 0x0001 [0x00] END_REQSTACK()
```

### Event 65535.1

#### Metadata

| Field        | Value    |
|--------------|----------|
| Entrypoint   | 0x0002   |
| Data Size    | 37 bytes |
| Instructions | 5        |

```
      00 01 02 03 04 05 06 07  08 09 0A 0B 0C 0D 0E 0F
      -- -- -- -- -- -- -- --  -- -- -- -- -- -- -- --
0000:       03 00 00 07 7F 1A  4C 00 66 01 00 F8 FF FF    ......L.f.....
0010: 7F F8 FF FF 7F 73 68 61  30 53 F8 FF FF 7F F8 FF  .....sha0S......
0020: FF 7F 73 68 61 30 00                              ..sha0.         
```

#### Opcodes

```
  0: 0x0002 [0x03] ExtData[1]->WorkLocal[0] = Entity->Race
  1: 0x0007 [0x1A] CALL_SUBROUTINE(address=0x004C)
  2: 0x000A [0x66] LOAD_EXT_SCHEDULER_MAIN: Load scheduler "sha0" with entities [EventEntity, EventEntity], work=ExtData[1]->WorkLocal[1]
  3: 0x0019 [0x53] WAIT_SCHEDULER_TASK: Wait for scheduler "sha0" with entities [EventEntity, EventEntity]
  4: 0x0026 [0x00] END_REQSTACK()
```

### Event 65535.2

#### Metadata

| Field        | Value     |
|--------------|-----------|
| Entrypoint   | 0x0027    |
| Data Size    | 185 bytes |
| Instructions | 13        |

```
      00 01 02 03 04 05 06 07  08 09 0A 0B 0C 0D 0E 0F
      -- -- -- -- -- -- -- --  -- -- -- -- -- -- -- --
0020:                      03  00 00 07 7F 1A 4C 00 66         ......L.f
0030: 01 00 F8 FF FF 7F F8 FF  FF 7F 73 68 61 31 53 F8  ..........sha1S.
0040: FF FF 7F F8 FF FF 7F 73  68 61 31 00 03 01 00 00  .......sha1.....
0050: 00 02 01 00 00 80 05 61  00 08 01 00 01 80 01 66  .......a.......f
0060: 00 08 01 00 02 80 14 01  00 03 80 07 01 00 04 80  ................
0070: 1B 03 01 00 00 00 02 01  00 00 80 05 86 00 08 01  ................
0080: 00 01 80 01 8B 00 08 01  00 02 80 14 01 00 03 80  ................
0090: 07 01 00 05 80 1B 03 01  00 00 00 02 01 00 00 80  ................
00A0: 05 AB 00 08 01 00 01 80  01 B0 00 08 01 00 02 80  ................
00B0: 14 01 00 03 80 07 01 00  06 80 1B 03 01 00 00 00  ................
00C0: 02 01 00 00 80 05 D0 00  08 01 00 01 80 01 D5 00  ................
00D0: 08 01 00 02 80 14 01 00  03 80 07 01 00 07 80 1B  ................
```

#### Opcodes

```
  0: 0x0027 [0x03] ExtData[1]->WorkLocal[0] = Entity->Race
  1: 0x002C [0x1A] CALL_SUBROUTINE(address=0x004C)
  2: 0x002F [0x66] LOAD_EXT_SCHEDULER_MAIN: Load scheduler "sha1" with entities [EventEntity, EventEntity], work=ExtData[1]->WorkLocal[1]
  3: 0x003E [0x53] WAIT_SCHEDULER_TASK: Wait for scheduler "sha1" with entities [EventEntity, EventEntity]
  4: 0x004B [0x00] END_REQSTACK()

SUBROUTINE_004C:
  5: 0x004C [0x03] ExtData[1]->WorkLocal[1] = ExtData[1]->WorkLocal[0]
  6: 0x0051 [0x02] IF !(ExtData[1]->WorkLocal[1] > 5*) GOTO 0x0061
  7: 0x0059 [0x08] ExtData[1]->WorkLocal[1] -= 1*
  8: 0x005E [0x01] GOTO 0x0066
  9: 0x0061 [0x08] ExtData[1]->WorkLocal[1] -= 2*

SUBROUTINE_0066:
 10: 0x0066 [0x14] ExtData[1]->WorkLocal[1] *= 10*
 11: 0x006B [0x07] ExtData[1]->WorkLocal[1] += 9*
 12: 0x0070 [0x1B] RETURN
```

#### Data or dead code:

```
# Dead code (unreachable instructions):
     0x0071 [0x03] ExtData[1]->WorkLocal[1] = ExtData[1]->WorkLocal[0]
     0x0076 [0x02] IF !(ExtData[1]->WorkLocal[1] > 5*) GOTO 0x0086
     0x007E [0x08] ExtData[1]->WorkLocal[1] -= 1*
     0x0083 [0x01] GOTO 0x008B
     0x0086 [0x08] ExtData[1]->WorkLocal[1] -= 2*
     0x008B [0x14] ExtData[1]->WorkLocal[1] *= 10*
     0x0090 [0x07] ExtData[1]->WorkLocal[1] += 70*
     0x0095 [0x1B] RETURN
     0x0096 [0x03] ExtData[1]->WorkLocal[1] = ExtData[1]->WorkLocal[0]
     0x009B [0x02] IF !(ExtData[1]->WorkLocal[1] > 5*) GOTO 0x00AB
     0x00A3 [0x08] ExtData[1]->WorkLocal[1] -= 1*
     0x00A8 [0x01] GOTO 0x00B0
     0x00AB [0x08] ExtData[1]->WorkLocal[1] -= 2*
     0x00B0 [0x14] ExtData[1]->WorkLocal[1] *= 10*
     0x00B5 [0x07] ExtData[1]->WorkLocal[1] += 140*
     0x00BA [0x1B] RETURN
     0x00BB [0x03] ExtData[1]->WorkLocal[1] = ExtData[1]->WorkLocal[0]
     0x00C0 [0x02] IF !(ExtData[1]->WorkLocal[1] > 5*) GOTO 0x00D0
     0x00C8 [0x08] ExtData[1]->WorkLocal[1] -= 1*
     0x00CD [0x01] GOTO 0x00D5
     0x00D0 [0x08] ExtData[1]->WorkLocal[1] -= 2*
     0x00D5 [0x14] ExtData[1]->WorkLocal[1] *= 10*
     0x00DA [0x07] ExtData[1]->WorkLocal[1] += 210*
     0x00DF [0x1B] RETURN
```

### Event 65535.3

#### Metadata

| Field        | Value   |
|--------------|---------|
| Entrypoint   | 0x00E0  |
| Data Size    | 6 bytes |
| Instructions | 2       |

```
      00 01 02 03 04 05 06 07  08 09 0A 0B 0C 0D 0E 0F
      -- -- -- -- -- -- -- --  -- -- -- -- -- -- -- --
00E0: 03 02 10 07 7F 00                                 ......          
```

#### Opcodes

```
  0: 0x00E0 [0x03] Work_Zone[2] = Entity->Race
  1: 0x00E5 [0x00] END_REQSTACK()
```

### Event 65535.4

#### Metadata

| Field        | Value   |
|--------------|---------|
| Entrypoint   | 0x00E6  |
| Data Size    | 6 bytes |
| Instructions | 2       |

```
      00 01 02 03 04 05 06 07  08 09 0A 0B 0C 0D 0E 0F
      -- -- -- -- -- -- -- --  -- -- -- -- -- -- -- --
00E0:                   03 02  10 0B 7F 00                    ......    
```

#### Opcodes

```
  0: 0x00E6 [0x03] Work_Zone[2] = (Entity->Render.Flags01 >> 25) & 1
  1: 0x00EB [0x00] END_REQSTACK()
```

### Event 65535.5

#### Metadata

| Field        | Value   |
|--------------|---------|
| Entrypoint   | 0x00EC  |
| Data Size    | 7 bytes |
| Instructions | 3       |

```
      00 01 02 03 04 05 06 07  08 09 0A 0B 0C 0D 0E 0F
      -- -- -- -- -- -- -- --  -- -- -- -- -- -- -- --
00E0:                                      AB 03 AC 01              ....
00F0: 01 80 00                                          ...             
```

#### Opcodes

```
  0: 0x00EC [0xAB] EventEntity->Render.Flags0 ^= 0x20000 // Toggle bit 17
  1: 0x00EE [0xAC] EventEntity->StatusEvent = 1*
  2: 0x00F2 [0x00] END_REQSTACK()
```

### Event 65535.6

#### Metadata

| Field        | Value   |
|--------------|---------|
| Entrypoint   | 0x00F3  |
| Data Size    | 7 bytes |
| Instructions | 3       |

```
      00 01 02 03 04 05 06 07  08 09 0A 0B 0C 0D 0E 0F
      -- -- -- -- -- -- -- --  -- -- -- -- -- -- -- --
00F0:          AC 01 08 80 AB  04 00                       .......      
```

#### Opcodes

```
  0: 0x00F3 [0xAC] EventEntity->StatusEvent = 0*
  1: 0x00F7 [0xAB] EventEntity->Render.Flags0 |= 0x40000 // Set bit 18
  2: 0x00F9 [0x00] END_REQSTACK()
```

### Event 32000

#### Metadata

| Field        | Value      |
|--------------|------------|
| Entrypoint   | 0x00FA     |
| Data Size    | 2162 bytes |
| Instructions | 286        |

```
      00 01 02 03 04 05 06 07  08 09 0A 0B 0C 0D 0E 0F
      -- -- -- -- -- -- -- --  -- -- -- -- -- -- -- --
00F0:                                20 01 79 00 F0 FF             .y...
0100: FF 7F F0 FF FF 7F 03 04  00 02 10 03 05 00 03 10  ................
0110: 03 07 00 04 10 03 08 00  05 10 03 11 00 06 10 03  ................
0120: 12 00 07 10 03 13 00 08  10 41 08 80 09 80 09 10  .........A......
0130: 09 00 41 0A 80 0B 80 09  10 06 10 06 03 00 02 09  ..A.............
0140: 00 08 80 00 3A 02 03 0A  00 0C 80 0F 0A 00 08 00  ....:...........
0150: 10 0A 00 01 80 24 0D 80  08 80 0A 00 25 02 00 10  .....$......%...
0160: 08 80 00 6B 01 01 51 09  01 3A 02 03 05 00 00 10  ...k..Q..:......
0170: 0C 05 00 06 17 00 3E 11  00 05 00 16 02 06 11 00  ......>.........
0180: 06 0A 00 3E 13 00 05 00  8D 01 01 94 01 3C 0A 00  ...>.........<..
0190: 08 80 01 80 3E 12 00 05  00 9E 01 01 A5 01 3C 0A  ....>.........<.
01A0: 00 01 80 01 80 1A 5F 24  24 0E 80 00 80 0A 00 25  ......_$$......%
01B0: 02 00 10 08 80 00 C0 01  03 11 00 01 80 01 13 02  ................
01C0: 02 00 10 01 80 00 D0 01  03 11 00 02 80 01 13 02  ................
01D0: 02 00 10 02 80 00 E0 01  03 11 00 0F 80 01 13 02  ................
01E0: 02 00 10 0F 80 00 F0 01  03 11 00 10 80 01 13 02  ................
01F0: 02 00 10 10 80 00 00 02  03 11 00 00 80 01 13 02  ................
0200: 02 00 10 00 80 00 0E 02  01 51 09 01 13 02 03 11  .........Q......
0210: 00 0F 80 01 3A 02 06 11  00 1A 6B 09 02 17 00 01  ....:.....k.....
0220: 80 00 3A 02 24 11 80 01  80 08 80 25 02 00 10 01  ..:.$......%....
0230: 80 00 3A 02 01 51 09 01  3A 02 42 03 01 10 12 80  ..:..Q..:.B.....
0240: 43 00 43 01 06 01 10 45  13 80 F0 FF FF 7F F0 FF  C.C....E........
0250: FF 7F 66 64 6F 31 08 80  55 13 80 F0 FF FF 7F F0  ..fdo1..U.......
0260: FF FF 7F 66 64 6F 31 3B  F0 FF FF 7F 20 10 21 10  ...fdo1;.... .!.
0270: 22 10 38 14 80 02 09 00  01 80 00 94 02 03 02 00  ".8.............
0280: 01 80 03 06 00 05 00 03  04 00 08 80 03 1D 00 08  ................
0290: 80 01 85 06 03 02 00 01  80 02 02 00 0F 80 05 1A  ................
02A0: 09 02 08 80 01 80 00 AE  02 03 02 00 07 00 40 08  ..............@.
02B0: 80 0F 80 01 10 02 00 40  10 80 15 80 01 10 05 00  .......@........
02C0: 40 04 80 16 80 01 10 11  00 06 02 10 06 03 10 06  @...............
02D0: 04 10 02 02 00 01 80 80  F1 02 03 0B 00 17 80 03  ................
02E0: 0C 00 18 80 03 0D 00 19  80 03 0E 00 1A 80 01 4E  ...............N
02F0: 03 02 02 00 02 80 80 10  03 03 0B 00 1B 80 03 0C  ................
0300: 00 1C 80 03 0D 00 1D 80  03 0E 00 1E 80 01 4E 03  ..............N.
0310: 02 02 00 0F 80 80 2F 03  03 0B 00 1F 80 03 0C 00  ....../.........
0320: 20 80 03 0D 00 21 80 03  0E 00 22 80 01 4E 03 02   ....!...."..N..
0330: 02 00 10 80 80 4E 03 03  0B 00 08 80 03 0C 00 08  .....N..........
0340: 80 03 0D 00 08 80 03 0E  00 08 80 01 4E 03 47 00  ............N.G.
0350: 0B 00 0C 00 0D 00 0E 00  47 01 03 06 00 03 10 03  ........G.......
0360: 04 00 04 10 03 1B 00 05  10 03 0F 00 06 10 03 10  ................
0370: 00 07 10 03 1D 00 09 10  02 02 10 01 80 80 83 03  ................
0380: 01 07 09 02 02 10 10 80  80 CD 03 02 02 00 01 80  ................
0390: 80 9A 03 48 23 80 23 01  C7 03 02 02 00 02 80 80  ...H#.#.........
03A0: A9 03 48 24 80 23 01 C7  03 02 02 00 0F 80 80 B8  ..H$.#..........
03B0: 03 48 25 80 23 01 C7 03  02 02 00 10 80 80 C7 03  .H%.#...........
03C0: 48 26 80 23 01 C7 03 01  1E 09 01 07 09 02 02 10  H&.#............
03D0: 00 80 80 DF 03 48 27 80  23 01 1E 09 01 07 09 02  .....H'.#.......
03E0: 02 10 28 80 80 E1 05 02  06 00 08 80 80 F7 03 03  ..(.............
03F0: 05 10 28 80 01 D7 05 02  06 00 01 80 80 07 04 03  ..(.............
0400: 05 10 28 80 01 D7 05 02  06 00 02 80 80 17 04 03  ..(.............
0410: 05 10 28 80 01 D7 05 02  06 00 0F 80 80 27 04 03  ..(..........'..
0420: 05 10 28 80 01 D7 05 02  06 00 10 80 80 37 04 03  ..(..........7..
0430: 05 10 08 80 01 D7 05 02  06 00 00 80 80 47 04 03  .............G..
0440: 05 10 08 80 01 D7 05 02  06 00 28 80 80 57 04 03  ..........(..W..
0450: 05 10 08 80 01 D7 05 02  06 00 29 80 80 67 04 03  ..........)..g..
0460: 05 10 08 80 01 D7 05 02  06 00 15 80 80 77 04 03  .............w..
0470: 05 10 08 80 01 D7 05 02  06 00 04 80 80 87 04 03  ................
0480: 05 10 08 80 01 D7 05 02  06 00 03 80 80 97 04 03  ................
0490: 05 10 08 80 01 D7 05 02  06 00 16 80 80 A7 04 03  ................
04A0: 05 10 08 80 01 D7 05 02  06 00 2A 80 80 B7 04 03  ..........*.....
04B0: 05 10 08 80 01 D7 05 02  06 00 2B 80 80 C7 04 03  ..........+.....
04C0: 05 10 08 80 01 D7 05 02  06 00 2C 80 80 D7 04 03  ..........,.....
04D0: 05 10 08 80 01 D7 05 02  06 00 09 80 80 E7 04 03  ................
04E0: 05 10 08 80 01 D7 05 02  06 00 0A 80 80 F7 04 03  ................
04F0: 05 10 08 80 01 D7 05 02  06 00 2D 80 80 07 05 03  ..........-.....
0500: 05 10 08 80 01 D7 05 02  06 00 2E 80 80 17 05 03  ................
0510: 05 10 08 80 01 D7 05 02  06 00 14 80 80 27 05 03  .............'..
0520: 05 10 08 80 01 D7 05 02  06 00 2F 80 80 37 05 03  ........../..7..
0530: 05 10 08 80 01 D7 05 02  06 00 30 80 80 47 05 03  ..........0..G..
0540: 05 10 08 80 01 D7 05 02  06 00 31 80 80 57 05 03  ..........1..W..
0550: 05 10 08 80 01 D7 05 02  06 00 32 80 80 67 05 03  ..........2..g..
0560: 05 10 08 80 01 D7 05 02  06 00 33 80 80 77 05 03  ..........3..w..
0570: 05 10 08 80 01 D7 05 02  06 00 34 80 80 87 05 03  ..........4.....
0580: 05 10 08 80 01 D7 05 02  06 00 35 80 80 97 05 03  ..........5.....
0590: 05 10 08 80 01 D7 05 02  06 00 36 80 80 A7 05 03  ..........6.....
05A0: 05 10 08 80 01 D7 05 02  06 00 37 80 80 B7 05 03  ..........7.....
05B0: 05 10 08 80 01 D7 05 02  06 00 38 80 80 C7 05 03  ..........8.....
05C0: 05 10 08 80 01 D7 05 02  06 00 39 80 80 D7 05 03  ..........9.....
05D0: 05 10 08 80 01 D7 05 48  3A 80 23 01 1E 09 01 07  .......H:.#.....
05E0: 09 02 02 10 0F 80 80 EF  05 01 94 02 01 07 09 02  ................
05F0: 02 10 02 80 80 07 09 02  0F 00 08 80 01 3B 06 03  .............;..
0600: 05 10 1B 00 02 1B 00 08  80 02 23 06 02 1B 00 3B  ..........#....;
0610: 80 04 23 06 3F 04 10 05  10 3B 80 15 05 10 3B 80  ..#.?....;....;.
0620: 01 23 06 02 0F 00 01 80  05 2E 06 01 3B 06 03 06  .#..........;...
0630: 10 0F 00 0C 06 10 03 07  10 0F 00 03 05 00 06 00  ................
0640: 03 15 00 3C 80 07 15 00  05 00 02 04 00 15 00 00  ...<............
0650: 5A 06 03 04 00 01 80 01  5F 06 03 04 00 08 80 02  Z......._.......
0660: 04 00 08 80 00 85 06 02  10 00 01 80 00 85 06 24  ...............$
0670: 3D 80 01 80 08 80 25 02  00 10 08 80 00 85 06 05  =.....%.........
0680: 04 00 01 85 06 06 16 00  02 06 00 08 80 80 98 06  ................
0690: 03 16 00 08 80 01 7D 08  02 06 00 01 80 80 A8 06  ......}.........
06A0: 03 16 00 08 80 01 7D 08  02 06 00 02 80 80 B8 06  ......}.........
06B0: 03 16 00 08 80 01 7D 08  02 06 00 0F 80 80 C8 06  ......}.........
06C0: 03 16 00 08 80 01 7D 08  02 06 00 10 80 80 D8 06  ......}.........
06D0: 03 16 00 08 80 01 7D 08  02 06 00 00 80 80 E8 06  ......}.........
06E0: 03 16 00 08 80 01 7D 08  02 06 00 28 80 80 F8 06  ......}....(....
06F0: 03 16 00 08 80 01 7D 08  02 06 00 29 80 80 08 07  ......}....)....
0700: 03 16 00 08 80 01 7D 08  02 06 00 15 80 80 18 07  ......}.........
0710: 03 16 00 08 80 01 7D 08  02 06 00 04 80 80 28 07  ......}.......(.
0720: 03 16 00 08 80 01 7D 08  02 06 00 03 80 80 38 07  ......}.......8.
0730: 03 16 00 08 80 01 7D 08  02 06 00 16 80 80 48 07  ......}.......H.
0740: 03 16 00 08 80 01 7D 08  02 06 00 2A 80 80 58 07  ......}....*..X.
0750: 03 16 00 08 80 01 7D 08  02 06 00 2B 80 80 68 07  ......}....+..h.
0760: 03 16 00 08 80 01 7D 08  02 06 00 2C 80 80 78 07  ......}....,..x.
0770: 03 16 00 08 80 01 7D 08  02 06 00 09 80 80 88 07  ......}.........
0780: 03 16 00 08 80 01 7D 08  02 06 00 0A 80 80 98 07  ......}.........
0790: 03 16 00 08 80 01 7D 08  02 06 00 2D 80 80 A8 07  ......}....-....
07A0: 03 16 00 08 80 01 7D 08  02 06 00 2E 80 80 B8 07  ......}.........
07B0: 03 16 00 08 80 01 7D 08  02 06 00 14 80 80 C8 07  ......}.........
07C0: 03 16 00 08 80 01 7D 08  02 06 00 2F 80 80 D8 07  ......}..../....
07D0: 03 16 00 08 80 01 7D 08  02 06 00 30 80 80 E8 07  ......}....0....
07E0: 03 16 00 08 80 01 7D 08  02 06 00 31 80 80 F8 07  ......}....1....
07F0: 03 16 00 08 80 01 7D 08  02 06 00 32 80 80 08 08  ......}....2....
0800: 03 16 00 08 80 01 7D 08  02 06 00 33 80 80 18 08  ......}....3....
0810: 03 16 00 08 80 01 7D 08  02 06 00 34 80 80 28 08  ......}....4..(.
0820: 03 16 00 08 80 01 7D 08  02 06 00 35 80 80 38 08  ......}....5..8.
0830: 03 16 00 08 80 01 7D 08  02 06 00 36 80 80 48 08  ......}....6..H.
0840: 03 16 00 08 80 01 7D 08  02 06 00 37 80 80 58 08  ......}....7..X.
0850: 03 16 00 08 80 01 7D 08  02 06 00 38 80 80 68 08  ......}....8..h.
0860: 03 16 00 08 80 01 7D 08  02 06 00 39 80 80 78 08  ......}....9..x.
0870: 03 16 00 08 80 01 7D 08  03 16 00 08 80 02 04 00  ......}.........
0880: 01 80 00 98 08 5C 00 3E  80 5C 01 3E 80 5C 02 3E  .....\.>.\.>.\.>
0890: 80 5C 03 3E 80 01 B0 08  02 16 00 08 80 00 B0 08  .\.>............
08A0: 5C 00 3E 80 5C 01 3E 80  5C 02 3E 80 5C 03 3E 80  \.>.\.>.\.>.\.>.
08B0: 02 04 00 08 80 00 BE 08  1A 84 11 01 F7 08 6C F0  ..............l.
08C0: FF FF 7F 08 80 01 80 62  02 80 F0 FF FF 7F F0 FF  .......b........
08D0: FF 7F 6D 61 69 6E 08 80  45 13 80 F0 FF FF 7F F0  ..main..E.......
08E0: FF FF 7F 6F 76 6C 31 08  80 46 02 14 00 02 14 00  ...ovl1..F......
08F0: 08 80 00 F7 08 46 00 03  01 10 3C 80 07 01 10 05  .....F....<.....
0900: 00 01 1E 09 01 07 09 0B  02 00 02 08 80 01 80 00  ................
0910: 17 09 03 02 00 10 80 01  99 02 48 3F 80 23 45 40  ..........H?.#E@
0920: 80 F0 FF FF 7F F0 FF FF  7F 77 68 69 31 08 80 45  .........whi1..E
0930: 13 80 F0 FF FF 7F F0 FF  FF 7F 62 6C 6F 66 08 80  ..........blof..
0940: 45 13 80 F0 FF FF 7F F0  FF FF 7F 66 64 69 30 08  E..........fdi0.
0950: 80 02 09 00 01 80 00 69  09 5C 00 08 80 5C 01 08  .......i.\...\..
0960: 80 5C 02 3E 80 5C 03 3E  80 21 00 1B              .\.>.\.>.!..    
```

#### Opcodes

```
  0: 0x00FA [0x20] SET_CLI_EVENT_UC_FLAG: Lock player control
  1: 0x00FC [0x79] LocalPlayer looks at LocalPlayer (Basic look)
  2: 0x0106 [0x03] ExtData[1]->WorkLocal[4] = Work_Zone[2]
  3: 0x010B [0x03] ExtData[1]->WorkLocal[5] = Work_Zone[3]
  4: 0x0110 [0x03] ExtData[1]->WorkLocal[7] = Work_Zone[4]
  5: 0x0115 [0x03] ExtData[1]->WorkLocal[8] = Work_Zone[5]
  6: 0x011A [0x03] ExtData[1]->WorkLocal[17] = Work_Zone[6]
  7: 0x011F [0x03] ExtData[1]->WorkLocal[18] = Work_Zone[7]
  8: 0x0124 [0x03] ExtData[1]->WorkLocal[19] = Work_Zone[8]
  9: 0x0129 [0x41] ExtData[1]->WorkLocal[9] = Work_Zone[9] (bits 0*-15*)
 10: 0x0132 [0x41] Work_Zone[6] = Work_Zone[9] (bits 16*-31*)
 11: 0x013B [0x06] ExtData[1]->WorkLocal[3] = 0
 12: 0x013E [0x02] IF !(ExtData[1]->WorkLocal[9] == 0*) GOTO 0x023A
 13: 0x0146 [0x03] ExtData[1]->WorkLocal[10] = 4294967295*
 14: 0x014B [0x0F] ExtData[1]->WorkLocal[10] ^= ExtData[1]->WorkLocal[8]
 15: 0x0150 [0x10] ExtData[1]->WorkLocal[10] <<= 1*
 16: 0x0155 [0x24] CREATE_DIALOG(message_id=7967*, default_option=0*, option_flags=ExtData[1]->WorkLocal[10])
    → "Which battlefield will you enter? [None./Fiat Lux./Darkness Descends./Bonds of Mythril./Unafraid of the Dark./@/@/@/@/@/@/@/@/@/@/@/@/@/@/@/@/@/@/@/@/@/@/@/@/@/@/@]"
 17: 0x015C [0x25] WAIT_DIALOG_SELECT()
 18: 0x015D [0x02] IF !(Work_Zone[0] == 0*) GOTO 0x016B
 19: 0x0165 [0x01] GOTO 0x0951

SUBROUTINE_0194:
 20: 0x0194 [0x3E] IF !(ExtData[1]->WorkLocal[18] bit ExtData[1]->WorkLocal[5]) GOTO 0x019E
 21: 0x019B [0x01] GOTO 0x01A5
 22: 0x019E [0x3C] SET_BIT_FLAG_CONDITIONAL(target_work_offset=ExtData[1]->WorkLocal[10], bit_index_work_offset=1*, condition_work_offset=1*)

SUBROUTINE_01A5:
 23: 0x01A5 [0x1A] CALL_SUBROUTINE(address=0x245F)
 24: 0x01A8 [0x24] CREATE_DIALOG(message_id=7955*, default_option=5*, option_flags=ExtData[1]->WorkLocal[10])
    → "Select difficulty. [Very difficult. (Level: ???)/Difficult. (Level: ???)/Normal. (Level: $18)/Easy. (Level: $17)/Very Easy. (Level: $16)/Leave.]"
 25: 0x01AF [0x25] WAIT_DIALOG_SELECT()
 26: 0x01B0 [0x02] IF !(Work_Zone[0] == 0*) GOTO 0x01C0
 27: 0x01B8 [0x03] ExtData[1]->WorkLocal[17] = 1*
 28: 0x01BD [0x01] GOTO 0x0213
 29: 0x01C0 [0x02] IF !(Work_Zone[0] == 1*) GOTO 0x01D0
 30: 0x01C8 [0x03] ExtData[1]->WorkLocal[17] = 2*
 31: 0x01CD [0x01] GOTO 0x0213
 32: 0x01D0 [0x02] IF !(Work_Zone[0] == 2*) GOTO 0x01E0
 33: 0x01D8 [0x03] ExtData[1]->WorkLocal[17] = 3*
 34: 0x01DD [0x01] GOTO 0x0213
 35: 0x01E0 [0x02] IF !(Work_Zone[0] == 3*) GOTO 0x01F0
 36: 0x01E8 [0x03] ExtData[1]->WorkLocal[17] = 4*
 37: 0x01ED [0x01] GOTO 0x0213
 38: 0x01F0 [0x02] IF !(Work_Zone[0] == 4*) GOTO 0x0200
 39: 0x01F8 [0x03] ExtData[1]->WorkLocal[17] = 5*
 40: 0x01FD [0x01] GOTO 0x0213
 41: 0x0200 [0x02] IF !(Work_Zone[0] == 5*) GOTO 0x020E
 42: 0x0208 [0x01] GOTO 0x0951

SUBROUTINE_0213:
 43: 0x0213 [0x01] GOTO 0x023A
 44: 0x0216 [0x06] ExtData[1]->WorkLocal[17] = 0
 45: 0x0219 [0x1A] CALL_SUBROUTINE(address=0x096B)
 46: 0x021C [0x02] IF !(ExtData[1]->WorkLocal[23] == 1*) GOTO 0x023A
 47: 0x0224 [0x24] CREATE_DIALOG(message_id=7590*, default_option=1*, option_flags=0*)
    → "Enter the battlefield? [Enter./Decline.]"
 48: 0x022B [0x25] WAIT_DIALOG_SELECT()
 49: 0x022C [0x02] IF !(Work_Zone[0] == 1*) GOTO 0x023A
 50: 0x0234 [0x01] GOTO 0x0951

SUBROUTINE_023A:
 51: 0x023A [0x42] SET_CLI_EVENT_CANCEL_DATA()
 52: 0x023B [0x03] Work_Zone[1] = 255*
 53: 0x0240 [0x43] SEND_EVENT_UPDATE: Send pending tag to server (packet 0x005B)
 54: 0x0242 [0x43] SEND_EVENT_UPDATE: Check pending flag (skip if not pending)
 55: 0x0244 [0x06] Work_Zone[1] = 0
 56: 0x0247 [0x45] LOAD_SCHEDULED_TASK: Load scheduler "fdo1" with entities [LocalPlayer, LocalPlayer], work=[200*, 0*]
 57: 0x0258 [0x55] WAIT_LOAD_SCHEDULER: Wait for scheduler "fdo1" with entities [LocalPlayer, LocalPlayer], work=200*
 58: 0x0267 [0x3B] GET_ENTITY_POSITION(entity=LocalPlayer, x_destination=Work_Zone[32], y_destination=Work_Zone[33], z_destination=Work_Zone[34])
 59: 0x0272 [0x38] SET_CLIENT_EVENT_MODE(mode=19*)
 60: 0x0275 [0x02] IF !(ExtData[1]->WorkLocal[9] == 1*) GOTO 0x0294
 61: 0x027D [0x03] ExtData[1]->WorkLocal[2] = 1*
 62: 0x0282 [0x03] ExtData[1]->WorkLocal[6] = ExtData[1]->WorkLocal[5]
 63: 0x0287 [0x03] ExtData[1]->WorkLocal[4] = 0*
 64: 0x028C [0x03] ExtData[1]->WorkLocal[29] = 0*
 65: 0x0291 [0x01] GOTO 0x0685

SUBROUTINE_0294:
 66: 0x0294 [0x03] ExtData[1]->WorkLocal[2] = 1*

SUBROUTINE_0299:
 67: 0x0299 [0x02] IF !(ExtData[1]->WorkLocal[2] > 3*) GOTO 0x091A
 68: 0x02A1 [0x02] IF !(0* == 1*) GOTO 0x02AE
 69: 0x02A9 [0x03] ExtData[1]->WorkLocal[2] = ExtData[1]->WorkLocal[7]
 70: 0x02AE [0x40] SET_BIT_WORK_RANGE(start_bit=0*, end_bit=3*, target=Work_Zone[1], source=ExtData[1]->WorkLocal[2])
 71: 0x02B7 [0x40] SET_BIT_WORK_RANGE(start_bit=4*, end_bit=8*, target=Work_Zone[1], source=ExtData[1]->WorkLocal[5])
 72: 0x02C0 [0x40] SET_BIT_WORK_RANGE(start_bit=9*, end_bit=11*, target=Work_Zone[1], source=ExtData[1]->WorkLocal[17])
 73: 0x02C9 [0x06] Work_Zone[2] = 0
 74: 0x02CC [0x06] Work_Zone[3] = 0
 75: 0x02CF [0x06] Work_Zone[4] = 0
 76: 0x02D2 [0x02] IF !(ExtData[1]->WorkLocal[2] == 1*) GOTO 0x02F1
 77: 0x02DA [0x03] ExtData[1]->WorkLocal[11] = 4294525700*
 78: 0x02DF [0x03] ExtData[1]->WorkLocal[12] = 4294727114*
 79: 0x02E4 [0x03] ExtData[1]->WorkLocal[13] = 4294800296*
 80: 0x02E9 [0x03] ExtData[1]->WorkLocal[14] = 1968*
 81: 0x02EE [0x01] GOTO 0x034E
 82: 0x02F1 [0x02] IF !(ExtData[1]->WorkLocal[2] == 2*) GOTO 0x0310
 83: 0x02F9 [0x03] ExtData[1]->WorkLocal[11] = 4294205751*
 84: 0x02FE [0x03] ExtData[1]->WorkLocal[12] = 4294487123*
 85: 0x0303 [0x03] ExtData[1]->WorkLocal[13] = 4294560296*
 86: 0x0308 [0x03] ExtData[1]->WorkLocal[14] = 2016*
 87: 0x030D [0x01] GOTO 0x034E
 88: 0x0310 [0x02] IF !(ExtData[1]->WorkLocal[2] == 3*) GOTO 0x032F
 89: 0x0318 [0x03] ExtData[1]->WorkLocal[11] = 4293885913*
 90: 0x031D [0x03] ExtData[1]->WorkLocal[12] = 4294247138*
 91: 0x0322 [0x03] ExtData[1]->WorkLocal[13] = 4294320296*
 92: 0x0327 [0x03] ExtData[1]->WorkLocal[14] = 2049*
 93: 0x032C [0x01] GOTO 0x034E
 94: 0x032F [0x02] IF !(ExtData[1]->WorkLocal[2] == 4*) GOTO 0x034E
 95: 0x0337 [0x03] ExtData[1]->WorkLocal[11] = 0*
 96: 0x033C [0x03] ExtData[1]->WorkLocal[12] = 0*
 97: 0x0341 [0x03] ExtData[1]->WorkLocal[13] = 0*
 98: 0x0346 [0x03] ExtData[1]->WorkLocal[14] = 0*
 99: 0x034B [0x01] GOTO 0x034E

SUBROUTINE_034E:
100: 0x034E [0x47] UPDATE_PLAYER_POS(ExtData[1]->WorkLocal[11], ExtData[1]->WorkLocal[12], ExtData[1]->WorkLocal[13], yaw=ExtData[1]->WorkLocal[14])
101: 0x0358 [0x47] WAIT_PLAYER_POS_UPDATE
102: 0x035A [0x03] ExtData[1]->WorkLocal[6] = Work_Zone[3]
103: 0x035F [0x03] ExtData[1]->WorkLocal[4] = Work_Zone[4]
104: 0x0364 [0x03] ExtData[1]->WorkLocal[27] = Work_Zone[5]
105: 0x0369 [0x03] ExtData[1]->WorkLocal[15] = Work_Zone[6]
106: 0x036E [0x03] ExtData[1]->WorkLocal[16] = Work_Zone[7]
107: 0x0373 [0x03] ExtData[1]->WorkLocal[29] = Work_Zone[9]
108: 0x0378 [0x02] IF !(Work_Zone[2] == 1*) GOTO 0x0383
109: 0x0380 [0x01] GOTO 0x0907
110: 0x0383 [0x02] IF !(Work_Zone[2] == 4*) GOTO 0x03CD
111: 0x038B [0x02] IF !(ExtData[1]->WorkLocal[2] == 1*) GOTO 0x039A
112: 0x0393 [0x48] [System] [7601*]:
    → "You are cleared to enter the battlefield, but you cannot while party members are engaged in combat."
113: 0x0396 [0x23] WAIT_FOR_DIALOG_INTERACTION
114: 0x0397 [0x01] GOTO 0x03C7
115: 0x039A [0x02] IF !(ExtData[1]->WorkLocal[2] == 2*) GOTO 0x03A9
116: 0x03A2 [0x48] [System] [7602*]:
    → "You are cleared to enter the battlefield, but you cannot while party members are engaged in combat."
117: 0x03A5 [0x23] WAIT_FOR_DIALOG_INTERACTION
118: 0x03A6 [0x01] GOTO 0x03C7
119: 0x03A9 [0x02] IF !(ExtData[1]->WorkLocal[2] == 3*) GOTO 0x03B8
120: 0x03B1 [0x48] [System] [7603*]:
    → "You are cleared to enter the battlefield, but you cannot while party members are engaged in combat."
121: 0x03B4 [0x23] WAIT_FOR_DIALOG_INTERACTION
122: 0x03B5 [0x01] GOTO 0x03C7
123: 0x03B8 [0x02] IF !(ExtData[1]->WorkLocal[2] == 4*) GOTO 0x03C7
124: 0x03C0 [0x48] [System] [7604*]:
    → "You are cleared to enter the battlefield, but you cannot while party members are engaged in combat."
125: 0x03C3 [0x23] WAIT_FOR_DIALOG_INTERACTION
126: 0x03C4 [0x01] GOTO 0x03C7

SUBROUTINE_03C7:
127: 0x03C7 [0x01] GOTO 0x091E

SUBROUTINE_05D7:
128: 0x05D7 [0x48] [System] [7949*]:
    → "Only $3 [member/members] have clearance to enter the battlefield. This room has reached its maximum capacity."
129: 0x05DA [0x23] WAIT_FOR_DIALOG_INTERACTION
130: 0x05DB [0x01] GOTO 0x091E

SUBROUTINE_0623:
131: 0x0623 [0x02] IF !(ExtData[1]->WorkLocal[15] > 1*) GOTO 0x062E
132: 0x062B [0x01] GOTO 0x063B
133: 0x062E [0x03] Work_Zone[6] = ExtData[1]->WorkLocal[15]
134: 0x0633 [0x0C] Work_Zone[6]--
135: 0x0636 [0x03] Work_Zone[7] = ExtData[1]->WorkLocal[15]

SUBROUTINE_063B:
136: 0x063B [0x03] ExtData[1]->WorkLocal[5] = ExtData[1]->WorkLocal[6]
137: 0x0640 [0x03] ExtData[1]->WorkLocal[21] = 100*
138: 0x0645 [0x07] ExtData[1]->WorkLocal[21] += ExtData[1]->WorkLocal[5]
139: 0x064A [0x02] IF !(ExtData[1]->WorkLocal[4] == ExtData[1]->WorkLocal[21]) GOTO 0x065A
140: 0x0652 [0x03] ExtData[1]->WorkLocal[4] = 1*
141: 0x0657 [0x01] GOTO 0x065F
142: 0x065A [0x03] ExtData[1]->WorkLocal[4] = 0*

SUBROUTINE_065F:
143: 0x065F [0x02] IF !(ExtData[1]->WorkLocal[4] == 0*) GOTO 0x0685
144: 0x0667 [0x02] IF !(ExtData[1]->WorkLocal[16] == 1*) GOTO 0x0685
145: 0x066F [0x24] CREATE_DIALOG(message_id=7929*, default_option=1*, option_flags=0*)
    → "Skip the event? [Yes./No.]"
146: 0x0676 [0x25] WAIT_DIALOG_SELECT()
147: 0x0677 [0x02] IF !(Work_Zone[0] == 0*) GOTO 0x0685
148: 0x067F [0x05] ExtData[1]->WorkLocal[4] = 1
149: 0x0682 [0x01] GOTO 0x0685

SUBROUTINE_0685:
150: 0x0685 [0x06] ExtData[1]->WorkLocal[22] = 0
151: 0x0688 [0x02] IF !(ExtData[1]->WorkLocal[6] == 0*) GOTO 0x0698
152: 0x0690 [0x03] ExtData[1]->WorkLocal[22] = 0*
153: 0x0695 [0x01] GOTO 0x087D
154: 0x0698 [0x02] IF !(ExtData[1]->WorkLocal[6] == 1*) GOTO 0x06A8
155: 0x06A0 [0x03] ExtData[1]->WorkLocal[22] = 0*
156: 0x06A5 [0x01] GOTO 0x087D
157: 0x06A8 [0x02] IF !(ExtData[1]->WorkLocal[6] == 2*) GOTO 0x06B8
158: 0x06B0 [0x03] ExtData[1]->WorkLocal[22] = 0*
159: 0x06B5 [0x01] GOTO 0x087D
160: 0x06B8 [0x02] IF !(ExtData[1]->WorkLocal[6] == 3*) GOTO 0x06C8
161: 0x06C0 [0x03] ExtData[1]->WorkLocal[22] = 0*
162: 0x06C5 [0x01] GOTO 0x087D
163: 0x06C8 [0x02] IF !(ExtData[1]->WorkLocal[6] == 4*) GOTO 0x06D8
164: 0x06D0 [0x03] ExtData[1]->WorkLocal[22] = 0*
165: 0x06D5 [0x01] GOTO 0x087D
166: 0x06D8 [0x02] IF !(ExtData[1]->WorkLocal[6] == 5*) GOTO 0x06E8
167: 0x06E0 [0x03] ExtData[1]->WorkLocal[22] = 0*
168: 0x06E5 [0x01] GOTO 0x087D
169: 0x06E8 [0x02] IF !(ExtData[1]->WorkLocal[6] == 6*) GOTO 0x06F8
170: 0x06F0 [0x03] ExtData[1]->WorkLocal[22] = 0*
171: 0x06F5 [0x01] GOTO 0x087D
172: 0x06F8 [0x02] IF !(ExtData[1]->WorkLocal[6] == 7*) GOTO 0x0708
173: 0x0700 [0x03] ExtData[1]->WorkLocal[22] = 0*
174: 0x0705 [0x01] GOTO 0x087D
175: 0x0708 [0x02] IF !(ExtData[1]->WorkLocal[6] == 8*) GOTO 0x0718
176: 0x0710 [0x03] ExtData[1]->WorkLocal[22] = 0*
177: 0x0715 [0x01] GOTO 0x087D
178: 0x0718 [0x02] IF !(ExtData[1]->WorkLocal[6] == 9*) GOTO 0x0728
179: 0x0720 [0x03] ExtData[1]->WorkLocal[22] = 0*
180: 0x0725 [0x01] GOTO 0x087D
181: 0x0728 [0x02] IF !(ExtData[1]->WorkLocal[6] == 10*) GOTO 0x0738
182: 0x0730 [0x03] ExtData[1]->WorkLocal[22] = 0*
183: 0x0735 [0x01] GOTO 0x087D
184: 0x0738 [0x02] IF !(ExtData[1]->WorkLocal[6] == 11*) GOTO 0x0748
185: 0x0740 [0x03] ExtData[1]->WorkLocal[22] = 0*
186: 0x0745 [0x01] GOTO 0x087D
187: 0x0748 [0x02] IF !(ExtData[1]->WorkLocal[6] == 12*) GOTO 0x0758
188: 0x0750 [0x03] ExtData[1]->WorkLocal[22] = 0*
189: 0x0755 [0x01] GOTO 0x087D
190: 0x0758 [0x02] IF !(ExtData[1]->WorkLocal[6] == 13*) GOTO 0x0768
191: 0x0760 [0x03] ExtData[1]->WorkLocal[22] = 0*
192: 0x0765 [0x01] GOTO 0x087D
193: 0x0768 [0x02] IF !(ExtData[1]->WorkLocal[6] == 14*) GOTO 0x0778
194: 0x0770 [0x03] ExtData[1]->WorkLocal[22] = 0*
195: 0x0775 [0x01] GOTO 0x087D
196: 0x0778 [0x02] IF !(ExtData[1]->WorkLocal[6] == 15*) GOTO 0x0788
197: 0x0780 [0x03] ExtData[1]->WorkLocal[22] = 0*
198: 0x0785 [0x01] GOTO 0x087D
199: 0x0788 [0x02] IF !(ExtData[1]->WorkLocal[6] == 16*) GOTO 0x0798
200: 0x0790 [0x03] ExtData[1]->WorkLocal[22] = 0*
201: 0x0795 [0x01] GOTO 0x087D
202: 0x0798 [0x02] IF !(ExtData[1]->WorkLocal[6] == 17*) GOTO 0x07A8
203: 0x07A0 [0x03] ExtData[1]->WorkLocal[22] = 0*
204: 0x07A5 [0x01] GOTO 0x087D
205: 0x07A8 [0x02] IF !(ExtData[1]->WorkLocal[6] == 18*) GOTO 0x07B8
206: 0x07B0 [0x03] ExtData[1]->WorkLocal[22] = 0*
207: 0x07B5 [0x01] GOTO 0x087D
208: 0x07B8 [0x02] IF !(ExtData[1]->WorkLocal[6] == 19*) GOTO 0x07C8
209: 0x07C0 [0x03] ExtData[1]->WorkLocal[22] = 0*
210: 0x07C5 [0x01] GOTO 0x087D
211: 0x07C8 [0x02] IF !(ExtData[1]->WorkLocal[6] == 20*) GOTO 0x07D8
212: 0x07D0 [0x03] ExtData[1]->WorkLocal[22] = 0*
213: 0x07D5 [0x01] GOTO 0x087D
214: 0x07D8 [0x02] IF !(ExtData[1]->WorkLocal[6] == 21*) GOTO 0x07E8
215: 0x07E0 [0x03] ExtData[1]->WorkLocal[22] = 0*
216: 0x07E5 [0x01] GOTO 0x087D
217: 0x07E8 [0x02] IF !(ExtData[1]->WorkLocal[6] == 22*) GOTO 0x07F8
218: 0x07F0 [0x03] ExtData[1]->WorkLocal[22] = 0*
219: 0x07F5 [0x01] GOTO 0x087D
220: 0x07F8 [0x02] IF !(ExtData[1]->WorkLocal[6] == 23*) GOTO 0x0808
221: 0x0800 [0x03] ExtData[1]->WorkLocal[22] = 0*
222: 0x0805 [0x01] GOTO 0x087D
223: 0x0808 [0x02] IF !(ExtData[1]->WorkLocal[6] == 24*) GOTO 0x0818
224: 0x0810 [0x03] ExtData[1]->WorkLocal[22] = 0*
225: 0x0815 [0x01] GOTO 0x087D
226: 0x0818 [0x02] IF !(ExtData[1]->WorkLocal[6] == 25*) GOTO 0x0828
227: 0x0820 [0x03] ExtData[1]->WorkLocal[22] = 0*
228: 0x0825 [0x01] GOTO 0x087D
229: 0x0828 [0x02] IF !(ExtData[1]->WorkLocal[6] == 26*) GOTO 0x0838
230: 0x0830 [0x03] ExtData[1]->WorkLocal[22] = 0*
231: 0x0835 [0x01] GOTO 0x087D
232: 0x0838 [0x02] IF !(ExtData[1]->WorkLocal[6] == 27*) GOTO 0x0848
233: 0x0840 [0x03] ExtData[1]->WorkLocal[22] = 0*
234: 0x0845 [0x01] GOTO 0x087D
235: 0x0848 [0x02] IF !(ExtData[1]->WorkLocal[6] == 28*) GOTO 0x0858
236: 0x0850 [0x03] ExtData[1]->WorkLocal[22] = 0*
237: 0x0855 [0x01] GOTO 0x087D
238: 0x0858 [0x02] IF !(ExtData[1]->WorkLocal[6] == 29*) GOTO 0x0868
239: 0x0860 [0x03] ExtData[1]->WorkLocal[22] = 0*
240: 0x0865 [0x01] GOTO 0x087D
241: 0x0868 [0x02] IF !(ExtData[1]->WorkLocal[6] == 30*) GOTO 0x0878
242: 0x0870 [0x03] ExtData[1]->WorkLocal[22] = 0*
243: 0x0875 [0x01] GOTO 0x087D
244: 0x0878 [0x03] ExtData[1]->WorkLocal[22] = 0*

SUBROUTINE_087D:
245: 0x087D [0x02] IF !(ExtData[1]->WorkLocal[4] == 1*) GOTO 0x0898
246: 0x0885 [0x5C] MUSIC_CONTROL: Set Idle (Day) music to song 119*
247: 0x0889 [0x5C] MUSIC_CONTROL: Set Idle (Night) music to song 119*
248: 0x088D [0x5C] MUSIC_CONTROL: Set Combat (Solo) music to song 119*
249: 0x0891 [0x5C] MUSIC_CONTROL: Set Combat (Party) music to song 119*
250: 0x0895 [0x01] GOTO 0x08B0
251: 0x0898 [0x02] IF !(ExtData[1]->WorkLocal[22] == 0*) GOTO 0x08B0
252: 0x08A0 [0x5C] MUSIC_CONTROL: Set Idle (Day) music to song 119*
253: 0x08A4 [0x5C] MUSIC_CONTROL: Set Idle (Night) music to song 119*
254: 0x08A8 [0x5C] MUSIC_CONTROL: Set Combat (Solo) music to song 119*
255: 0x08AC [0x5C] MUSIC_CONTROL: Set Combat (Party) music to song 119*

SUBROUTINE_08B0:
256: 0x08B0 [0x02] IF !(ExtData[1]->WorkLocal[4] == 0*) GOTO 0x08BE
257: 0x08B8 [0x1A] CALL_SUBROUTINE(address=0x1184)
258: 0x08BB [0x01] GOTO 0x08F7
259: 0x08BE [0x6C] FADE_ENTITY_COLOR(entity_id=LocalPlayer, end_alpha=0*, fade_time=1*)
260: 0x08C7 [0x62] LOAD_EVENT_SCHEDULER: Load scheduler "main" with entities [LocalPlayer, LocalPlayer], work=[2*, 0*]
261: 0x08D8 [0x45] LOAD_SCHEDULED_TASK: Load scheduler "ovl1" with entities [LocalPlayer, LocalPlayer], work=[200*, 0*]
262: 0x08E9 [0x46] CAMERA_CONTROL: Query status
263: 0x08EB [0x14] 0x0200 *= ExtData[1]->WorkLocal[20]
264: 0x08F0 [0x08] 0x80 -= 0x08F7
265: 0x08F5 [0x46] CAMERA_CONTROL: Restore default settings

SUBROUTINE_08F7:
266: 0x08F7 [0x03] Work_Zone[1] = 100*
267: 0x08FC [0x07] Work_Zone[1] += ExtData[1]->WorkLocal[5]
268: 0x0901 [0x01] GOTO 0x091E

SUBROUTINE_0907:
269: 0x0907 [0x0B] ExtData[1]->WorkLocal[2]++
270: 0x090A [0x02] IF !(0* == 1*) GOTO 0x0917
271: 0x0912 [0x03] ExtData[1]->WorkLocal[2] = 4*
272: 0x0917 [0x01] GOTO 0x0299
273: 0x091A [0x48] [System] [7593*]:
    → "You cannot enter the battlefield at present. Please wait a little longer."
274: 0x091D [0x23] WAIT_FOR_DIALOG_INTERACTION

SUBROUTINE_091E:
275: 0x091E [0x45] LOAD_SCHEDULED_TASK: Load scheduler "whi1" with entities [LocalPlayer, LocalPlayer], work=[201*, 0*]
276: 0x092F [0x45] LOAD_SCHEDULED_TASK: Load scheduler "blof" with entities [LocalPlayer, LocalPlayer], work=[200*, 0*]
277: 0x0940 [0x45] LOAD_SCHEDULED_TASK: Load scheduler "fdi0" with entities [LocalPlayer, LocalPlayer], work=[200*, 0*]

SUBROUTINE_0951:
278: 0x0951 [0x02] IF !(ExtData[1]->WorkLocal[9] == 1*) GOTO 0x0969
279: 0x0959 [0x5C] MUSIC_CONTROL: Set Idle (Day) music to song 0*
280: 0x095D [0x5C] MUSIC_CONTROL: Set Idle (Night) music to song 0*
281: 0x0961 [0x5C] MUSIC_CONTROL: Set Combat (Solo) music to song 119*
282: 0x0965 [0x5C] MUSIC_CONTROL: Set Combat (Party) music to song 119*
283: 0x0969 [0x21] END_EVENT
284: 0x096A [0x00] END_REQSTACK()

SUBROUTINE_096B:
285: 0x096B [0x1B] RETURN
```

#### Data or dead code:

```
# Dead code (unreachable instructions):
     0x0168 [0x01] GOTO 0x023A
# Dead code (unreachable instructions):
     0x020B [0x01] GOTO 0x0213
# Dead code (unreachable instructions):
     0x0237 [0x01] GOTO 0x023A
# Dead code (unreachable instructions):
     0x03CA [0x01] GOTO 0x0907
     0x03DC [0x01] GOTO 0x0907
# Dead code (unreachable instructions):
     0x05DE [0x01] GOTO 0x0907
     0x05EC [0x01] GOTO 0x0907
# Dead code (unreachable instructions):
     0x0904 [0x01] GOTO 0x0907
```

### Event 32002

#### Metadata

| Field        | Value     |
|--------------|-----------|
| Entrypoint   | 0x096C    |
| Data Size    | 494 bytes |
| Instructions | 83        |

```
      00 01 02 03 04 05 06 07  08 09 0A 0B 0C 0D 0E 0F
      -- -- -- -- -- -- -- --  -- -- -- -- -- -- -- --
0960:                                      03 07 00 06              ....
0970: 10 03 22 00 07 10 03 21  00 08 10 20 01 42 3B F0  .."....!... .B;.
0980: FF FF 7F 20 10 21 10 22  10 3A F0 FF FF 7F 23 10  ... .!.".:....#.
0990: 45 13 80 F0 FF FF 7F F0  FF FF 7F 66 64 6F 31 08  E..........fdo1.
09A0: 80 55 13 80 F0 FF FF 7F  F0 FF FF 7F 66 64 6F 31  .U..........fdo1
09B0: 02 08 80 01 80 00 17 0A  02 07 00 01 80 80 CF 09  ................
09C0: 47 00 08 80 08 80 08 80  08 80 47 01 01 14 0A 02  G.........G.....
09D0: 07 00 02 80 80 E6 09 47  00 08 80 08 80 08 80 08  .......G........
09E0: 80 47 01 01 14 0A 02 07  00 0F 80 80 FD 09 47 00  .G............G.
09F0: 08 80 08 80 08 80 08 80  47 01 01 14 0A 02 07 00  ........G.......
0A00: 10 80 80 14 0A 47 00 08  80 08 80 08 80 08 80 47  .....G.........G
0A10: 01 01 14 0A 01 20 0B 02  21 00 41 80 80 A1 0A 02  ..... ..!.A.....
0A20: 22 00 08 80 80 36 0A 47  00 42 80 43 80 44 80 45  "....6.G.B.C.D.E
0A30: 80 47 01 01 9E 0A 02 22  00 01 80 80 4D 0A 47 00  .G....."....M.G.
0A40: 46 80 47 80 48 80 49 80  47 01 01 9E 0A 02 22 00  F.G.H.I.G.....".
0A50: 02 80 80 64 0A 47 00 4A  80 4B 80 4C 80 4D 80 47  ...d.G.J.K.L.M.G
0A60: 01 01 9E 0A 02 22 00 0F  80 80 7B 0A 47 00 4E 80  ....."....{.G.N.
0A70: 4F 80 50 80 51 80 47 01  01 9E 0A 02 22 00 10 80  O.P.Q.G....."...
0A80: 80 92 0A 47 00 52 80 53  80 54 80 55 80 47 01 01  ...G.R.S.T.U.G..
0A90: 9E 0A 47 00 08 80 08 80  56 80 08 80 47 01 01 20  ..G.....V...G.. 
0AA0: 0B 02 21 00 28 80 80 14  0B 02 22 00 01 80 80 C0  ..!.(.....".....
0AB0: 0A 47 00 57 80 58 80 59  80 5A 80 47 01 01 11 0B  .G.W.X.Y.Z.G....
0AC0: 02 22 00 02 80 80 D7 0A  47 00 5B 80 5C 80 5D 80  ."......G.[.\.].
0AD0: 5E 80 47 01 01 11 0B 02  22 00 0F 80 80 EE 0A 47  ^.G....."......G
0AE0: 00 5F 80 60 80 61 80 62  80 47 01 01 11 0B 02 22  ._.`.a.b.G....."
0AF0: 00 10 80 80 05 0B 47 00  63 80 64 80 65 80 66 80  ......G.c.d.e.f.
0B00: 47 01 01 11 0B 47 00 08  80 08 80 56 80 08 80 47  G....G.....V...G
0B10: 01 01 20 0B 47 00 08 80  08 80 56 80 08 80 47 01  .. .G.....V...G.
0B20: 38 14 80 1A 30 24 45 40  80 F0 FF FF 7F F0 FF FF  8...0$E@........
0B30: 7F 77 68 69 31 08 80 45  13 80 F0 FF FF 7F F0 FF  .whi1..E........
0B40: FF 7F 62 6C 6F 66 08 80  5C 00 08 80 5C 01 08 80  ..blof..\...\...
0B50: 5C 02 3E 80 5C 03 3E 80  21 00                    \.>.\.>.!.      
```

#### Opcodes

```
  0: 0x096C [0x03] ExtData[1]->WorkLocal[7] = Work_Zone[6]
  1: 0x0971 [0x03] ExtData[1]->WorkLocal[34] = Work_Zone[7]
  2: 0x0976 [0x03] ExtData[1]->WorkLocal[33] = Work_Zone[8]
  3: 0x097B [0x20] SET_CLI_EVENT_UC_FLAG: Lock player control
  4: 0x097D [0x42] SET_CLI_EVENT_CANCEL_DATA()
  5: 0x097E [0x3B] GET_ENTITY_POSITION(entity=LocalPlayer, x_destination=Work_Zone[32], y_destination=Work_Zone[33], z_destination=Work_Zone[34])
  6: 0x0989 [0x3A] CONVERT_YAW_TO_BYTE(entity=LocalPlayer, result_destination=Work_Zone[35])
  7: 0x0990 [0x45] LOAD_SCHEDULED_TASK: Load scheduler "fdo1" with entities [LocalPlayer, LocalPlayer], work=[200*, 0*]
  8: 0x09A1 [0x55] WAIT_LOAD_SCHEDULER: Wait for scheduler "fdo1" with entities [LocalPlayer, LocalPlayer], work=200*
  9: 0x09B0 [0x02] IF !(0* == 1*) GOTO 0x0A17
 10: 0x09B8 [0x02] IF !(ExtData[1]->WorkLocal[7] == 1*) GOTO 0x09CF
 11: 0x09C0 [0x47] UPDATE_PLAYER_POS(0.000*, 0.000*, 0.000*, yaw=0.0°*)
 12: 0x09CA [0x47] WAIT_PLAYER_POS_UPDATE
 13: 0x09CC [0x01] GOTO 0x0A14
 14: 0x09CF [0x02] IF !(ExtData[1]->WorkLocal[7] == 2*) GOTO 0x09E6
 15: 0x09D7 [0x47] UPDATE_PLAYER_POS(0.000*, 0.000*, 0.000*, yaw=0.0°*)
 16: 0x09E1 [0x47] WAIT_PLAYER_POS_UPDATE
 17: 0x09E3 [0x01] GOTO 0x0A14
 18: 0x09E6 [0x02] IF !(ExtData[1]->WorkLocal[7] == 3*) GOTO 0x09FD
 19: 0x09EE [0x47] UPDATE_PLAYER_POS(0.000*, 0.000*, 0.000*, yaw=0.0°*)
 20: 0x09F8 [0x47] WAIT_PLAYER_POS_UPDATE
 21: 0x09FA [0x01] GOTO 0x0A14
 22: 0x09FD [0x02] IF !(ExtData[1]->WorkLocal[7] == 4*) GOTO 0x0A14
 23: 0x0A05 [0x47] UPDATE_PLAYER_POS(0.000*, 0.000*, 0.000*, yaw=0.0°*)
 24: 0x0A0F [0x47] WAIT_PLAYER_POS_UPDATE
 25: 0x0A11 [0x01] GOTO 0x0A14

SUBROUTINE_0A14:
 26: 0x0A14 [0x01] GOTO 0x0B20
 27: 0x0A17 [0x02] IF !(ExtData[1]->WorkLocal[33] == 180*) GOTO 0x0AA1
 28: 0x0A1F [0x02] IF !(ExtData[1]->WorkLocal[34] == 0*) GOTO 0x0A36
 29: 0x0A27 [0x47] UPDATE_PLAYER_POS(-605.141*, 479.929*, -22.681*, yaw=87.2°*)
 30: 0x0A31 [0x47] WAIT_PLAYER_POS_UPDATE
 31: 0x0A33 [0x01] GOTO 0x0A9E
 32: 0x0A36 [0x02] IF !(ExtData[1]->WorkLocal[34] == 1*) GOTO 0x0A4D
 33: 0x0A3E [0x47] UPDATE_PLAYER_POS(-262.589*, 377.857*, -137.313*, yaw=305.3°*)
 34: 0x0A48 [0x47] WAIT_PLAYER_POS_UPDATE
 35: 0x0A4A [0x01] GOTO 0x0A9E
 36: 0x0A4D [0x02] IF !(ExtData[1]->WorkLocal[34] == 2*) GOTO 0x0A64
 37: 0x0A55 [0x47] UPDATE_PLAYER_POS(18.348*, 486.940*, -224.334*, yaw=17.1°*)
 38: 0x0A5F [0x47] WAIT_PLAYER_POS_UPDATE
 39: 0x0A61 [0x01] GOTO 0x0A9E
 40: 0x0A64 [0x02] IF !(ExtData[1]->WorkLocal[34] == 3*) GOTO 0x0A7B
 41: 0x0A6C [0x47] UPDATE_PLAYER_POS(231.593*, 360.094*, -173.572*, yaw=160.8°*)
 42: 0x0A76 [0x47] WAIT_PLAYER_POS_UPDATE
 43: 0x0A78 [0x01] GOTO 0x0A9E
 44: 0x0A7B [0x02] IF !(ExtData[1]->WorkLocal[34] == 4*) GOTO 0x0A92
 45: 0x0A83 [0x47] UPDATE_PLAYER_POS(553.664*, 523.939*, -38.205*, yaw=233.9°*)
 46: 0x0A8D [0x47] WAIT_PLAYER_POS_UPDATE
 47: 0x0A8F [0x01] GOTO 0x0A9E
 48: 0x0A92 [0x47] UPDATE_PLAYER_POS(0.000*, 0.000*, -0.101*, yaw=0.0°*)
 49: 0x0A9C [0x47] WAIT_PLAYER_POS_UPDATE

SUBROUTINE_0A9E:
 50: 0x0A9E [0x01] GOTO 0x0B20
 51: 0x0AA1 [0x02] IF !(ExtData[1]->WorkLocal[33] == 6*) GOTO 0x0B14
 52: 0x0AA9 [0x02] IF !(ExtData[1]->WorkLocal[34] == 1*) GOTO 0x0AC0
 53: 0x0AB1 [0x47] UPDATE_PLAYER_POS(-875.117*, -43.892*, -48.084*, yaw=45.1°*)
 54: 0x0ABB [0x47] WAIT_PLAYER_POS_UPDATE
 55: 0x0ABD [0x01] GOTO 0x0B11
 56: 0x0AC0 [0x02] IF !(ExtData[1]->WorkLocal[34] == 2*) GOTO 0x0AD7
 57: 0x0AC8 [0x47] UPDATE_PLAYER_POS(-755.499*, 563.947*, -112.035*, yaw=313.5°*)
 58: 0x0AD2 [0x47] WAIT_PLAYER_POS_UPDATE
 59: 0x0AD4 [0x01] GOTO 0x0B11
 60: 0x0AD7 [0x02] IF !(ExtData[1]->WorkLocal[34] == 3*) GOTO 0x0AEE
 61: 0x0ADF [0x47] UPDATE_PLAYER_POS(123.251*, 754.209*, -172.124*, yaw=38.7°*)
 62: 0x0AE9 [0x47] WAIT_PLAYER_POS_UPDATE
 63: 0x0AEB [0x01] GOTO 0x0B11
 64: 0x0AEE [0x02] IF !(ExtData[1]->WorkLocal[34] == 4*) GOTO 0x0B05
 65: 0x0AF6 [0x47] UPDATE_PLAYER_POS(-516.404*, -803.323*, 24.206*, yaw=38.4°*)
 66: 0x0B00 [0x47] WAIT_PLAYER_POS_UPDATE
 67: 0x0B02 [0x01] GOTO 0x0B11
 68: 0x0B05 [0x47] UPDATE_PLAYER_POS(0.000*, 0.000*, -0.101*, yaw=0.0°*)
 69: 0x0B0F [0x47] WAIT_PLAYER_POS_UPDATE

SUBROUTINE_0B11:
 70: 0x0B11 [0x01] GOTO 0x0B20
 71: 0x0B14 [0x47] UPDATE_PLAYER_POS(0.000*, 0.000*, -0.101*, yaw=0.0°*)
 72: 0x0B1E [0x47] WAIT_PLAYER_POS_UPDATE

SUBROUTINE_0B20:
 73: 0x0B20 [0x38] SET_CLIENT_EVENT_MODE(mode=19*)
 74: 0x0B23 [0x1A] CALL_SUBROUTINE(address=0x2430)
 75: 0x0B26 [0x45] LOAD_SCHEDULED_TASK: Load scheduler "whi1" with entities [LocalPlayer, LocalPlayer], work=[201*, 0*]
 76: 0x0B37 [0x45] LOAD_SCHEDULED_TASK: Load scheduler "blof" with entities [LocalPlayer, LocalPlayer], work=[200*, 0*]
 77: 0x0B48 [0x5C] MUSIC_CONTROL: Set Idle (Day) music to song 0*
 78: 0x0B4C [0x5C] MUSIC_CONTROL: Set Idle (Night) music to song 0*
 79: 0x0B50 [0x5C] MUSIC_CONTROL: Set Combat (Solo) music to song 119*
 80: 0x0B54 [0x5C] MUSIC_CONTROL: Set Combat (Party) music to song 119*
 81: 0x0B58 [0x21] END_EVENT
 82: 0x0B59 [0x00] END_REQSTACK()
```

### Event 32001

#### Metadata

| Field        | Value     |
|--------------|-----------|
| Entrypoint   | 0x0B5A    |
| Data Size    | 819 bytes |
| Instructions | 137       |

```
      00 01 02 03 04 05 06 07  08 09 0A 0B 0C 0D 0E 0F
      -- -- -- -- -- -- -- --  -- -- -- -- -- -- -- --
0B50:                                79 00 F0 FF FF 7F            y.....
0B60: F0 FF FF 7F 03 22 00 02  10 03 1B 00 03 10 03 1C  ....."..........
0B70: 00 05 10 03 21 00 06 10  03 1A 00 07 10 03 18 00  ....!...........
0B80: 08 10 03 1D 00 09 10 20  01 42 3B F0 FF FF 7F 20  ....... .B;.... 
0B90: 10 21 10 22 10 3A F0 FF  FF 7F 23 10 02 21 00 41  .!.".:....#..!.A
0BA0: 80 01 A7 0B 1C 67 80 45  40 80 F0 FF FF 7F F0 FF  .....g.E@.......
0BB0: FF 7F 77 68 69 31 08 80  45 13 80 F0 FF FF 7F F0  ..whi1..E.......
0BC0: FF FF 7F 62 6C 6F 66 08  80 45 13 80 F0 FF FF 7F  ...blof..E......
0BD0: F0 FF FF 7F 66 64 6F 31  08 80 55 13 80 F0 FF FF  ....fdo1..U.....
0BE0: 7F F0 FF FF 7F 66 64 6F  31 6C F0 FF FF 7F 68 80  .....fdo1l....h.
0BF0: 01 80 06 01 10 02 18 00  08 80 03 00 0C 01 C4 0C  ................
0C00: 02 21 00 41 80 80 8A 0C  02 22 00 08 80 80 1F 0C  .!.A....."......
0C10: 47 00 69 80 6A 80 6B 80  6C 80 47 01 01 87 0C 02  G.i.j.k.l.G.....
0C20: 22 00 01 80 80 36 0C 47  00 6D 80 6E 80 6F 80 70  "....6.G.m.n.o.p
0C30: 80 47 01 01 87 0C 02 22  00 02 80 80 4D 0C 47 00  .G....."....M.G.
0C40: 71 80 72 80 73 80 74 80  47 01 01 87 0C 02 22 00  q.r.s.t.G.....".
0C50: 0F 80 80 64 0C 47 00 75  80 76 80 77 80 78 80 47  ...d.G.u.v.w.x.G
0C60: 01 01 87 0C 02 22 00 10  80 80 7B 0C 47 00 79 80  ....."....{.G.y.
0C70: 7A 80 7B 80 7C 80 47 01  01 87 0C 47 00 7D 80 7E  z.{.|.G....G.}.~
0C80: 80 7F 80 80 80 47 01 01  C4 0C 02 21 00 81 80 80  .....G.....!....
0C90: B8 0C 02 1A 00 08 80 80  A9 0C 47 00 7D 80 7E 80  ..........G.}.~.
0CA0: 7F 80 80 80 47 01 01 B5  0C 47 00 82 80 83 80 84  ....G....G......
0CB0: 80 85 80 47 01 01 C4 0C  47 00 7D 80 7E 80 7F 80  ...G....G.}.~...
0CC0: 80 80 47 01 38 14 80 02  18 00 02 80 00 D2 0C 01  ..G.8...........
0CD0: ED 0C 02 18 00 01 80 00  9D 0D 1C 09 80 24 3D 80  .............$=.
0CE0: 01 80 08 80 25 02 00 10  08 80 00 9D 0D 02 21 00  ....%.........!.
0CF0: 41 80 00 59 0D 02 22 00  08 80 80 07 0D 36 69 80  A..Y.."......6i.
0D00: 6A 80 6B 80 01 56 0D 02  22 00 01 80 80 19 0D 36  j.k..V.."......6
0D10: 6D 80 6E 80 6F 80 01 56  0D 02 22 00 02 80 80 2B  m.n.o..V.."....+
0D20: 0D 36 71 80 72 80 73 80  01 56 0D 02 22 00 0F 80  .6q.r.s..V.."...
0D30: 80 3D 0D 36 75 80 76 80  77 80 01 56 0D 02 22 00  .=.6u.v.w..V..".
0D40: 10 80 80 4F 0D 36 79 80  7A 80 7B 80 01 56 0D 36  ...O.6y.z.{..V.6
0D50: 7D 80 7E 80 7F 80 01 62  0D 37 7D 80 7E 80 7F 80  }.~....b.7}.~...
0D60: 80 80 80 F0 FF FF 7F 62  02 80 F0 FF FF 7F F0 FF  .......b........
0D70: FF 7F 6D 61 69 6E 08 80  45 13 80 F0 FF FF 7F F0  ..main..E.......
0D80: FF FF 7F 66 64 69 32 08  80 46 02 14 00 02 14 00  ...fdi2..F......
0D90: 08 80 00 97 0D 46 00 01  C4 0D 01 9D 0D 02 18 00  .....F..........
0DA0: 0C 80 04 B6 0D 5C 00 3E  80 5C 01 3E 80 5C 02 3E  .....\.>.\.>.\.>
0DB0: 80 5C 03 3E 80 9A 1A CC  17 02 18 00 08 80 03 C4  .\.>............
0DC0: 0D 01 25 0E 03 05 10 1C  00 02 05 10 08 80 02 25  ..%............%
0DD0: 0E 02 05 10 3B 80 04 EC  0D 3F 04 10 05 10 3B 80  ....;....?....;.
0DE0: 15 05 10 3B 80 48 86 80  23 01 F0 0D 48 87 80 23  ...;.H..#...H..#
0DF0: 02 1C 00 1B 00 05 04 0E  03 07 10 1A 00 48 88 80  .............H..
0E00: 23 01 25 0E 02 1B 00 3B  80 04 20 0E 03 05 10 1B  #.%....;.. .....
0E10: 00 3F 04 10 05 10 3B 80  15 05 10 3B 80 01 25 0E  .?....;....;..%.
0E20: 03 05 10 1B 00 02 19 00  08 80 00 3D 0E 5C 00 08  ...........=.\..
0E30: 80 5C 01 08 80 5C 02 3E  80 5C 03 3E 80 02 18 00  .\...\.>.\.>....
0E40: 08 80 03 66 0E 45 13 80  F0 FF FF 7F F0 FF FF 7F  ...f.E..........
0E50: 66 64 69 32 08 80 5C 00  08 80 5C 01 08 80 5C 02  fdi2..\...\...\.
0E60: 3E 80 5C 03 3E 80 06 19  00 45 40 80 F0 FF FF 7F  >.\.>....E@.....
0E70: F0 FF FF 7F 77 68 69 31  08 80 45 13 80 F0 FF FF  ....whi1..E.....
0E80: 7F F0 FF FF 7F 62 6C 6F  66 08 80 21 00           .....blof..!.   
```

#### Opcodes

```
  0: 0x0B5A [0x79] LocalPlayer looks at LocalPlayer (Basic look)
  1: 0x0B64 [0x03] ExtData[1]->WorkLocal[34] = Work_Zone[2]
  2: 0x0B69 [0x03] ExtData[1]->WorkLocal[27] = Work_Zone[3]
  3: 0x0B6E [0x03] ExtData[1]->WorkLocal[28] = Work_Zone[5]
  4: 0x0B73 [0x03] ExtData[1]->WorkLocal[33] = Work_Zone[6]
  5: 0x0B78 [0x03] ExtData[1]->WorkLocal[26] = Work_Zone[7]
  6: 0x0B7D [0x03] ExtData[1]->WorkLocal[24] = Work_Zone[8]
  7: 0x0B82 [0x03] ExtData[1]->WorkLocal[29] = Work_Zone[9]
  8: 0x0B87 [0x20] SET_CLI_EVENT_UC_FLAG: Lock player control
  9: 0x0B89 [0x42] SET_CLI_EVENT_CANCEL_DATA()
 10: 0x0B8A [0x3B] GET_ENTITY_POSITION(entity=LocalPlayer, x_destination=Work_Zone[32], y_destination=Work_Zone[33], z_destination=Work_Zone[34])
 11: 0x0B95 [0x3A] CONVERT_YAW_TO_BYTE(entity=LocalPlayer, result_destination=Work_Zone[35])
 12: 0x0B9C [0x02] IF !(ExtData[1]->WorkLocal[33] == 180*) GOTO 0x0BA7
 13: 0x0BA4 [0x1C] WAIT(300* ticks)
 14: 0x0BA7 [0x45] LOAD_SCHEDULED_TASK: Load scheduler "whi1" with entities [LocalPlayer, LocalPlayer], work=[201*, 0*]
 15: 0x0BB8 [0x45] LOAD_SCHEDULED_TASK: Load scheduler "blof" with entities [LocalPlayer, LocalPlayer], work=[200*, 0*]
 16: 0x0BC9 [0x45] LOAD_SCHEDULED_TASK: Load scheduler "fdo1" with entities [LocalPlayer, LocalPlayer], work=[200*, 0*]
 17: 0x0BDA [0x55] WAIT_LOAD_SCHEDULER: Wait for scheduler "fdo1" with entities [LocalPlayer, LocalPlayer], work=200*
 18: 0x0BE9 [0x6C] FADE_ENTITY_COLOR(entity_id=LocalPlayer, end_alpha=128*, fade_time=1*)
 19: 0x0BF2 [0x06] Work_Zone[1] = 0
 20: 0x0BF5 [0x02] IF !(ExtData[1]->WorkLocal[24] >= 0*) GOTO 0x0C00
 21: 0x0BFD [0x01] GOTO 0x0CC4
 22: 0x0C00 [0x02] IF !(ExtData[1]->WorkLocal[33] == 180*) GOTO 0x0C8A
 23: 0x0C08 [0x02] IF !(ExtData[1]->WorkLocal[34] == 0*) GOTO 0x0C1F
 24: 0x0C10 [0x47] UPDATE_PLAYER_POS(-618.329*, -643.868*, -25.805*, yaw=330.5°*)
 25: 0x0C1A [0x47] WAIT_PLAYER_POS_UPDATE
 26: 0x0C1C [0x01] GOTO 0x0C87
 27: 0x0C1F [0x02] IF !(ExtData[1]->WorkLocal[34] == 1*) GOTO 0x0C36
 28: 0x0C27 [0x47] UPDATE_PLAYER_POS(-332.163*, -441.914*, -95.055*, yaw=330.5°*)
 29: 0x0C31 [0x47] WAIT_PLAYER_POS_UPDATE
 30: 0x0C33 [0x01] GOTO 0x0C87
 31: 0x0C36 [0x02] IF !(ExtData[1]->WorkLocal[34] == 2*) GOTO 0x0C4D
 32: 0x0C3E [0x47] UPDATE_PLAYER_POS(-12.464*, -648.377*, -194.629*, yaw=331.3°*)
 33: 0x0C48 [0x47] WAIT_PLAYER_POS_UPDATE
 34: 0x0C4A [0x01] GOTO 0x0C87
 35: 0x0C4D [0x02] IF !(ExtData[1]->WorkLocal[34] == 3*) GOTO 0x0C64
 36: 0x0C55 [0x47] UPDATE_PLAYER_POS(323.381*, -443.793*, -108.440*, yaw=329.1°*)
 37: 0x0C5F [0x47] WAIT_PLAYER_POS_UPDATE
 38: 0x0C61 [0x01] GOTO 0x0C87
 39: 0x0C64 [0x02] IF !(ExtData[1]->WorkLocal[34] == 4*) GOTO 0x0C7B
 40: 0x0C6C [0x47] UPDATE_PLAYER_POS(599.907*, -676.969*, -22.473*, yaw=330.7°*)
 41: 0x0C76 [0x47] WAIT_PLAYER_POS_UPDATE
 42: 0x0C78 [0x01] GOTO 0x0C87
 43: 0x0C7B [0x47] UPDATE_PLAYER_POS(90.425*, 0.089*, -5.749*, yaw=4.6°*)
 44: 0x0C85 [0x47] WAIT_PLAYER_POS_UPDATE

SUBROUTINE_0C87:
 45: 0x0C87 [0x01] GOTO 0x0CC4
 46: 0x0C8A [0x02] IF !(ExtData[1]->WorkLocal[33] == 168*) GOTO 0x0CB8
 47: 0x0C92 [0x02] IF !(ExtData[1]->WorkLocal[26] == 0*) GOTO 0x0CA9
 48: 0x0C9A [0x47] UPDATE_PLAYER_POS(90.425*, 0.089*, -5.749*, yaw=4.6°*)
 49: 0x0CA4 [0x47] WAIT_PLAYER_POS_UPDATE
 50: 0x0CA6 [0x01] GOTO 0x0CB5
 51: 0x0CA9 [0x47] UPDATE_PLAYER_POS(200.059*, -21.958*, -0.250*, yaw=91.5°*)
 52: 0x0CB3 [0x47] WAIT_PLAYER_POS_UPDATE

SUBROUTINE_0CB5:
 53: 0x0CB5 [0x01] GOTO 0x0CC4
 54: 0x0CB8 [0x47] UPDATE_PLAYER_POS(90.425*, 0.089*, -5.749*, yaw=4.6°*)
 55: 0x0CC2 [0x47] WAIT_PLAYER_POS_UPDATE

SUBROUTINE_0CC4:
 56: 0x0CC4 [0x38] SET_CLIENT_EVENT_MODE(mode=19*)
 57: 0x0CC7 [0x02] IF !(ExtData[1]->WorkLocal[24] == 2*) GOTO 0x0CD2
 58: 0x0CCF [0x01] GOTO 0x0CED
 59: 0x0CD2 [0x02] IF !(ExtData[1]->WorkLocal[24] == 1*) GOTO 0x0D9D
 60: 0x0CDA [0x1C] WAIT(15* ticks)
 61: 0x0CDD [0x24] CREATE_DIALOG(message_id=7929*, default_option=1*, option_flags=0*)
    → "Skip the event? [Yes./No.]"
 62: 0x0CE4 [0x25] WAIT_DIALOG_SELECT()
 63: 0x0CE5 [0x02] IF !(Work_Zone[0] == 0*) GOTO 0x0D9D

SUBROUTINE_0CED:
 64: 0x0CED [0x02] IF !(ExtData[1]->WorkLocal[33] == 180*) GOTO 0x0D59
 65: 0x0CF5 [0x02] IF !(ExtData[1]->WorkLocal[34] == 0*) GOTO 0x0D07
 66: 0x0CFD [0x36] SET_ENTITY_EVENT_POSITION(pos_x=-618.329*, pos_z=-643.868*, pos_y=-25.805*)
 67: 0x0D04 [0x01] GOTO 0x0D56
 68: 0x0D07 [0x02] IF !(ExtData[1]->WorkLocal[34] == 1*) GOTO 0x0D19
 69: 0x0D0F [0x36] SET_ENTITY_EVENT_POSITION(pos_x=-332.163*, pos_z=-441.914*, pos_y=-95.055*)
 70: 0x0D16 [0x01] GOTO 0x0D56
 71: 0x0D19 [0x02] IF !(ExtData[1]->WorkLocal[34] == 2*) GOTO 0x0D2B
 72: 0x0D21 [0x36] SET_ENTITY_EVENT_POSITION(pos_x=-12.464*, pos_z=-648.377*, pos_y=-194.629*)
 73: 0x0D28 [0x01] GOTO 0x0D56
 74: 0x0D2B [0x02] IF !(ExtData[1]->WorkLocal[34] == 3*) GOTO 0x0D3D
 75: 0x0D33 [0x36] SET_ENTITY_EVENT_POSITION(pos_x=323.381*, pos_z=-443.793*, pos_y=-108.440*)
 76: 0x0D3A [0x01] GOTO 0x0D56
 77: 0x0D3D [0x02] IF !(ExtData[1]->WorkLocal[34] == 4*) GOTO 0x0D4F
 78: 0x0D45 [0x36] SET_ENTITY_EVENT_POSITION(pos_x=599.907*, pos_z=-676.969*, pos_y=-22.473*)
 79: 0x0D4C [0x01] GOTO 0x0D56
 80: 0x0D4F [0x36] SET_ENTITY_EVENT_POSITION(pos_x=90.425*, pos_z=0.089*, pos_y=-5.749*)

SUBROUTINE_0D56:
 81: 0x0D56 [0x01] GOTO 0x0D62
 82: 0x0D59 [0x37] UPDATE_EVENT_POSITION_AND_DIR: x=90.425*, z=0.089*, y=-5.749*, direction=4.6°*

SUBROUTINE_0D62:
 83: 0x0D62 [0x80] LOAD_WAIT(entity=LocalPlayer)
 84: 0x0D67 [0x62] LOAD_EVENT_SCHEDULER: Load scheduler "main" with entities [LocalPlayer, LocalPlayer], work=[2*, 0*]
 85: 0x0D78 [0x45] LOAD_SCHEDULED_TASK: Load scheduler "fdi2" with entities [LocalPlayer, LocalPlayer], work=[200*, 0*]
 86: 0x0D89 [0x46] CAMERA_CONTROL: Query status
 87: 0x0D8B [0x14] 0x0200 *= ExtData[1]->WorkLocal[20]
 88: 0x0D90 [0x08] 0x80 -= 0x0D97
 89: 0x0D95 [0x46] CAMERA_CONTROL: Restore default settings
 90: 0x0D97 [0x01] GOTO 0x0DC4

SUBROUTINE_0D9D:
 91: 0x0D9D [0x02] IF !(ExtData[1]->WorkLocal[24] < 4294967295*) GOTO 0x0DB6
 92: 0x0DA5 [0x5C] MUSIC_CONTROL: Set Idle (Day) music to song 119*
 93: 0x0DA9 [0x5C] MUSIC_CONTROL: Set Idle (Night) music to song 119*
 94: 0x0DAD [0x5C] MUSIC_CONTROL: Set Combat (Solo) music to song 119*
 95: 0x0DB1 [0x5C] MUSIC_CONTROL: Set Combat (Party) music to song 119*
 96: 0x0DB5 [0x9A] WAIT_MUSIC_SERVER()
 97: 0x0DB6 [0x1A] CALL_SUBROUTINE(address=0x17CC)
 98: 0x0DB9 [0x02] IF !(ExtData[1]->WorkLocal[24] >= 0*) GOTO 0x0DC4
 99: 0x0DC1 [0x01] GOTO 0x0E25

SUBROUTINE_0DC4:
100: 0x0DC4 [0x03] Work_Zone[5] = ExtData[1]->WorkLocal[28]
101: 0x0DC9 [0x02] IF !(Work_Zone[5] <= 0*) GOTO 0x0E25
102: 0x0DD1 [0x02] IF !(Work_Zone[5] < 60*) GOTO 0x0DEC
103: 0x0DD9 [0x3F] Work_Zone[4] = Work_Zone[5] % 60*
104: 0x0DE0 [0x15] Work_Zone[5] /= 60*
105: 0x0DE5 [0x48] [System] [7931*]:
    → "Battlefield clear time: $3 minute[/s], $2 second[/s]!"
106: 0x0DE8 [0x23] WAIT_FOR_DIALOG_INTERACTION
107: 0x0DE9 [0x01] GOTO 0x0DF0
108: 0x0DEC [0x48] [System] [7930*]:
    → "Battlefield clear time: $3 second[/s]!"
109: 0x0DEF [0x23] WAIT_FOR_DIALOG_INTERACTION

SUBROUTINE_0DF0:
110: 0x0DF0 [0x02] IF !(ExtData[1]->WorkLocal[28] > ExtData[1]->WorkLocal[27]) GOTO 0x0E04
111: 0x0DF8 [0x03] Work_Zone[7] = ExtData[1]->WorkLocal[26]
112: 0x0DFD [0x48] [System] [7963*]:
    → "You have broken the clear time record for "[Fiat Lux/Darkness Descends/Bonds of Mythril/Unafraid of the Dark]"!"
113: 0x0E00 [0x23] WAIT_FOR_DIALOG_INTERACTION
114: 0x0E01 [0x01] GOTO 0x0E25
115: 0x0E04 [0x02] IF !(ExtData[1]->WorkLocal[27] < 60*) GOTO 0x0E20
116: 0x0E0C [0x03] Work_Zone[5] = ExtData[1]->WorkLocal[27]
117: 0x0E11 [0x3F] Work_Zone[4] = Work_Zone[5] % 60*
118: 0x0E18 [0x15] Work_Zone[5] /= 60*
119: 0x0E1D [0x01] GOTO 0x0E25
120: 0x0E20 [0x03] Work_Zone[5] = ExtData[1]->WorkLocal[27]

SUBROUTINE_0E25:
121: 0x0E25 [0x02] IF !(ExtData[1]->WorkLocal[25] == 0*) GOTO 0x0E3D
122: 0x0E2D [0x5C] MUSIC_CONTROL: Set Idle (Day) music to song 0*
123: 0x0E31 [0x5C] MUSIC_CONTROL: Set Idle (Night) music to song 0*
124: 0x0E35 [0x5C] MUSIC_CONTROL: Set Combat (Solo) music to song 119*
125: 0x0E39 [0x5C] MUSIC_CONTROL: Set Combat (Party) music to song 119*
126: 0x0E3D [0x02] IF !(ExtData[1]->WorkLocal[24] >= 0*) GOTO 0x0E66
127: 0x0E45 [0x45] LOAD_SCHEDULED_TASK: Load scheduler "fdi2" with entities [LocalPlayer, LocalPlayer], work=[200*, 0*]
128: 0x0E56 [0x5C] MUSIC_CONTROL: Set Idle (Day) music to song 0*
129: 0x0E5A [0x5C] MUSIC_CONTROL: Set Idle (Night) music to song 0*
130: 0x0E5E [0x5C] MUSIC_CONTROL: Set Combat (Solo) music to song 119*
131: 0x0E62 [0x5C] MUSIC_CONTROL: Set Combat (Party) music to song 119*
132: 0x0E66 [0x06] ExtData[1]->WorkLocal[25] = 0
133: 0x0E69 [0x45] LOAD_SCHEDULED_TASK: Load scheduler "whi1" with entities [LocalPlayer, LocalPlayer], work=[201*, 0*]
134: 0x0E7A [0x45] LOAD_SCHEDULED_TASK: Load scheduler "blof" with entities [LocalPlayer, LocalPlayer], work=[200*, 0*]
135: 0x0E8B [0x21] END_EVENT
136: 0x0E8C [0x00] END_REQSTACK()
```

#### Data or dead code:

```
# Dead code (unreachable instructions):
     0x0D9A [0x01] GOTO 0x0D9D
```

### Event 32003

#### Metadata

| Field        | Value     |
|--------------|-----------|
| Entrypoint   | 0x0E8D    |
| Data Size    | 435 bytes |
| Instructions | 77        |

```
      00 01 02 03 04 05 06 07  08 09 0A 0B 0C 0D 0E 0F
      -- -- -- -- -- -- -- --  -- -- -- -- -- -- -- --
0E80:                                         06 1E 00               ...
0E90: 06 1F 00 03 22 00 06 10  03 21 00 07 10 03 20 00  ...."....!.... .
0EA0: 08 10 06 01 10 1A 8E 23  02 1E 00 01 80 00 3E 10  .......#......>.
0EB0: 42 03 01 10 02 80 43 00  43 01 03 01 10 0F 80 43  B.....C.C......C
0EC0: 00 43 01 1A A5 23 02 1F  00 01 80 00 3E 10 45 13  .C...#......>.E.
0ED0: 80 F0 FF FF 7F F0 FF FF  7F 66 64 6F 31 08 80 55  .........fdo1..U
0EE0: 13 80 F0 FF FF 7F F0 FF  FF 7F 66 64 6F 31 03 01  ..........fdo1..
0EF0: 10 10 80 02 21 00 41 80  80 7D 0F 02 22 00 08 80  ....!.A..}.."...
0F00: 80 12 0F 47 00 42 80 43  80 44 80 45 80 47 01 01  ...G.B.C.D.E.G..
0F10: 7A 0F 02 22 00 01 80 80  29 0F 47 00 46 80 47 80  z.."....).G.F.G.
0F20: 48 80 49 80 47 01 01 7A  0F 02 22 00 02 80 80 40  H.I.G..z.."....@
0F30: 0F 47 00 4A 80 4B 80 4C  80 4D 80 47 01 01 7A 0F  .G.J.K.L.M.G..z.
0F40: 02 22 00 0F 80 80 57 0F  47 00 4E 80 4F 80 50 80  ."....W.G.N.O.P.
0F50: 51 80 47 01 01 7A 0F 02  22 00 10 80 80 6E 0F 47  Q.G..z.."....n.G
0F60: 00 52 80 53 80 54 80 55  80 47 01 01 7A 0F 47 00  .R.S.T.U.G..z.G.
0F70: 08 80 08 80 56 80 08 80  47 01 01 FC 0F 02 21 00  ....V...G.....!.
0F80: 28 80 80 F0 0F 02 20 00  01 80 80 9C 0F 47 00 57  (..... ......G.W
0F90: 80 58 80 59 80 5A 80 47  01 01 ED 0F 02 20 00 02  .X.Y.Z.G..... ..
0FA0: 80 80 B3 0F 47 00 5B 80  5C 80 5D 80 5E 80 47 01  ....G.[.\.].^.G.
0FB0: 01 ED 0F 02 20 00 0F 80  80 CA 0F 47 00 5F 80 60  .... ......G._.`
0FC0: 80 61 80 62 80 47 01 01  ED 0F 02 20 00 10 80 80  .a.b.G..... ....
0FD0: E1 0F 47 00 63 80 64 80  65 80 66 80 47 01 01 ED  ..G.c.d.e.f.G...
0FE0: 0F 47 00 08 80 08 80 56  80 08 80 47 01 01 FC 0F  .G.....V...G....
0FF0: 47 00 08 80 08 80 56 80  08 80 47 01 38 14 80 79  G.....V...G.8..y
1000: 00 F0 FF FF 7F F0 FF FF  7F 1A A9 23 45 40 80 F0  ...........#E@..
1010: FF FF 7F F0 FF FF 7F 77  68 69 31 08 80 45 13 80  .......whi1..E..
1020: F0 FF FF 7F F0 FF FF 7F  62 6C 6F 66 08 80 5C 00  ........blof..\.
1030: 08 80 5C 01 08 80 5C 02  3E 80 5C 03 3E 80 21 00  ..\...\.>.\.>.!.
```

#### Opcodes

```
  0: 0x0E8D [0x06] ExtData[1]->WorkLocal[30] = 0
  1: 0x0E90 [0x06] ExtData[1]->WorkLocal[31] = 0
  2: 0x0E93 [0x03] ExtData[1]->WorkLocal[34] = Work_Zone[6]
  3: 0x0E98 [0x03] ExtData[1]->WorkLocal[33] = Work_Zone[7]
  4: 0x0E9D [0x03] ExtData[1]->WorkLocal[32] = Work_Zone[8]
  5: 0x0EA2 [0x06] Work_Zone[1] = 0
  6: 0x0EA5 [0x1A] CALL_SUBROUTINE(address=0x238E)
  7: 0x0EA8 [0x02] IF !(ExtData[1]->WorkLocal[30] == 1*) GOTO 0x103E
  8: 0x0EB0 [0x42] SET_CLI_EVENT_CANCEL_DATA()
  9: 0x0EB1 [0x03] Work_Zone[1] = 2*
 10: 0x0EB6 [0x43] SEND_EVENT_UPDATE: Send pending tag to server (packet 0x005B)
 11: 0x0EB8 [0x43] SEND_EVENT_UPDATE: Check pending flag (skip if not pending)
 12: 0x0EBA [0x03] Work_Zone[1] = 3*
 13: 0x0EBF [0x43] SEND_EVENT_UPDATE: Send pending tag to server (packet 0x005B)
 14: 0x0EC1 [0x43] SEND_EVENT_UPDATE: Check pending flag (skip if not pending)
 15: 0x0EC3 [0x1A] CALL_SUBROUTINE(address=0x23A5)
 16: 0x0EC6 [0x02] IF !(ExtData[1]->WorkLocal[31] == 1*) GOTO 0x103E
 17: 0x0ECE [0x45] LOAD_SCHEDULED_TASK: Load scheduler "fdo1" with entities [LocalPlayer, LocalPlayer], work=[200*, 0*]
 18: 0x0EDF [0x55] WAIT_LOAD_SCHEDULER: Wait for scheduler "fdo1" with entities [LocalPlayer, LocalPlayer], work=200*
 19: 0x0EEE [0x03] Work_Zone[1] = 4*
 20: 0x0EF3 [0x02] IF !(ExtData[1]->WorkLocal[33] == 180*) GOTO 0x0F7D
 21: 0x0EFB [0x02] IF !(ExtData[1]->WorkLocal[34] == 0*) GOTO 0x0F12
 22: 0x0F03 [0x47] UPDATE_PLAYER_POS(-605.141*, 479.929*, -22.681*, yaw=87.2°*)
 23: 0x0F0D [0x47] WAIT_PLAYER_POS_UPDATE
 24: 0x0F0F [0x01] GOTO 0x0F7A
 25: 0x0F12 [0x02] IF !(ExtData[1]->WorkLocal[34] == 1*) GOTO 0x0F29
 26: 0x0F1A [0x47] UPDATE_PLAYER_POS(-262.589*, 377.857*, -137.313*, yaw=305.3°*)
 27: 0x0F24 [0x47] WAIT_PLAYER_POS_UPDATE
 28: 0x0F26 [0x01] GOTO 0x0F7A
 29: 0x0F29 [0x02] IF !(ExtData[1]->WorkLocal[34] == 2*) GOTO 0x0F40
 30: 0x0F31 [0x47] UPDATE_PLAYER_POS(18.348*, 486.940*, -224.334*, yaw=17.1°*)
 31: 0x0F3B [0x47] WAIT_PLAYER_POS_UPDATE
 32: 0x0F3D [0x01] GOTO 0x0F7A
 33: 0x0F40 [0x02] IF !(ExtData[1]->WorkLocal[34] == 3*) GOTO 0x0F57
 34: 0x0F48 [0x47] UPDATE_PLAYER_POS(231.593*, 360.094*, -173.572*, yaw=160.8°*)
 35: 0x0F52 [0x47] WAIT_PLAYER_POS_UPDATE
 36: 0x0F54 [0x01] GOTO 0x0F7A
 37: 0x0F57 [0x02] IF !(ExtData[1]->WorkLocal[34] == 4*) GOTO 0x0F6E
 38: 0x0F5F [0x47] UPDATE_PLAYER_POS(553.664*, 523.939*, -38.205*, yaw=233.9°*)
 39: 0x0F69 [0x47] WAIT_PLAYER_POS_UPDATE
 40: 0x0F6B [0x01] GOTO 0x0F7A
 41: 0x0F6E [0x47] UPDATE_PLAYER_POS(0.000*, 0.000*, -0.101*, yaw=0.0°*)
 42: 0x0F78 [0x47] WAIT_PLAYER_POS_UPDATE

SUBROUTINE_0F7A:
 43: 0x0F7A [0x01] GOTO 0x0FFC
 44: 0x0F7D [0x02] IF !(ExtData[1]->WorkLocal[33] == 6*) GOTO 0x0FF0
 45: 0x0F85 [0x02] IF !(ExtData[1]->WorkLocal[32] == 1*) GOTO 0x0F9C
 46: 0x0F8D [0x47] UPDATE_PLAYER_POS(-875.117*, -43.892*, -48.084*, yaw=45.1°*)
 47: 0x0F97 [0x47] WAIT_PLAYER_POS_UPDATE
 48: 0x0F99 [0x01] GOTO 0x0FED
 49: 0x0F9C [0x02] IF !(ExtData[1]->WorkLocal[32] == 2*) GOTO 0x0FB3
 50: 0x0FA4 [0x47] UPDATE_PLAYER_POS(-755.499*, 563.947*, -112.035*, yaw=313.5°*)
 51: 0x0FAE [0x47] WAIT_PLAYER_POS_UPDATE
 52: 0x0FB0 [0x01] GOTO 0x0FED
 53: 0x0FB3 [0x02] IF !(ExtData[1]->WorkLocal[32] == 3*) GOTO 0x0FCA
 54: 0x0FBB [0x47] UPDATE_PLAYER_POS(123.251*, 754.209*, -172.124*, yaw=38.7°*)
 55: 0x0FC5 [0x47] WAIT_PLAYER_POS_UPDATE
 56: 0x0FC7 [0x01] GOTO 0x0FED
 57: 0x0FCA [0x02] IF !(ExtData[1]->WorkLocal[32] == 4*) GOTO 0x0FE1
 58: 0x0FD2 [0x47] UPDATE_PLAYER_POS(-516.404*, -803.323*, 24.206*, yaw=38.4°*)
 59: 0x0FDC [0x47] WAIT_PLAYER_POS_UPDATE
 60: 0x0FDE [0x01] GOTO 0x0FED
 61: 0x0FE1 [0x47] UPDATE_PLAYER_POS(0.000*, 0.000*, -0.101*, yaw=0.0°*)
 62: 0x0FEB [0x47] WAIT_PLAYER_POS_UPDATE

SUBROUTINE_0FED:
 63: 0x0FED [0x01] GOTO 0x0FFC
 64: 0x0FF0 [0x47] UPDATE_PLAYER_POS(0.000*, 0.000*, -0.101*, yaw=0.0°*)
 65: 0x0FFA [0x47] WAIT_PLAYER_POS_UPDATE

SUBROUTINE_0FFC:
 66: 0x0FFC [0x38] SET_CLIENT_EVENT_MODE(mode=19*)
 67: 0x0FFF [0x79] LocalPlayer looks at LocalPlayer (Basic look)
 68: 0x1009 [0x1A] CALL_SUBROUTINE(address=0x23A9)
 69: 0x100C [0x45] LOAD_SCHEDULED_TASK: Load scheduler "whi1" with entities [LocalPlayer, LocalPlayer], work=[201*, 0*]
 70: 0x101D [0x45] LOAD_SCHEDULED_TASK: Load scheduler "blof" with entities [LocalPlayer, LocalPlayer], work=[200*, 0*]
 71: 0x102E [0x5C] MUSIC_CONTROL: Set Idle (Day) music to song 0*
 72: 0x1032 [0x5C] MUSIC_CONTROL: Set Idle (Night) music to song 0*
 73: 0x1036 [0x5C] MUSIC_CONTROL: Set Combat (Solo) music to song 119*
 74: 0x103A [0x5C] MUSIC_CONTROL: Set Combat (Party) music to song 119*
 75: 0x103E [0x21] END_EVENT
 76: 0x103F [0x00] END_REQSTACK()
```

### Event 32004

#### Metadata

| Field        | Value    |
|--------------|----------|
| Entrypoint   | 0x1040   |
| Data Size    | 73 bytes |
| Instructions | 16       |

```
      00 01 02 03 04 05 06 07  08 09 0A 0B 0C 0D 0E 0F
      -- -- -- -- -- -- -- --  -- -- -- -- -- -- -- --
1040: 03 23 00 02 10 03 24 00  03 10 03 20 00 04 10 03  .#....$.... ....
1050: 25 00 05 10 42 38 36 80  02 25 00 08 80 00 63 10  %...B86..%....c.
1060: 1C 89 80 02 20 00 02 80  80 74 10 1A 29 29 1A 1F  .... ....t..))..
1070: 11 01 74 10 45 13 80 F0  FF FF 7F F0 FF FF 7F 66  ..t.E..........f
1080: 64 69 32 08 80 46 00 21  00                       di2..F.!.       
```

#### Opcodes

```
  0: 0x1040 [0x03] ExtData[1]->WorkLocal[35] = Work_Zone[2]
  1: 0x1045 [0x03] ExtData[1]->WorkLocal[36] = Work_Zone[3]
  2: 0x104A [0x03] ExtData[1]->WorkLocal[32] = Work_Zone[4]
  3: 0x104F [0x03] ExtData[1]->WorkLocal[37] = Work_Zone[5]
  4: 0x1054 [0x42] SET_CLI_EVENT_CANCEL_DATA()
  5: 0x1055 [0x38] SET_CLIENT_EVENT_MODE(mode=27*)
  6: 0x1058 [0x02] IF !(ExtData[1]->WorkLocal[37] == 0*) GOTO 0x1063
  7: 0x1060 [0x1C] WAIT(120* ticks)
  8: 0x1063 [0x02] IF !(ExtData[1]->WorkLocal[32] == 2*) GOTO 0x1074
  9: 0x106B [0x1A] CALL_SUBROUTINE(address=0x2929)
 10: 0x106E [0x1A] CALL_SUBROUTINE(address=0x111F)
 11: 0x1071 [0x01] GOTO 0x1074

SUBROUTINE_1074:
 12: 0x1074 [0x45] LOAD_SCHEDULED_TASK: Load scheduler "fdi2" with entities [LocalPlayer, LocalPlayer], work=[200*, 0*]
 13: 0x1085 [0x46] CAMERA_CONTROL: Restore default settings
 14: 0x1087 [0x21] END_EVENT
 15: 0x1088 [0x00] END_REQSTACK()
```

### Event 32005

#### Metadata

| Field        | Value      |
|--------------|------------|
| Entrypoint   | 0x1089     |
| Data Size    | 5890 bytes |
| Instructions | 46         |

```
      00 01 02 03 04 05 06 07  08 09 0A 0B 0C 0D 0E 0F
      -- -- -- -- -- -- -- --  -- -- -- -- -- -- -- --
1080:                             83 26 00 03 27 00 06           .&..'..
1090: 10 07 27 00 26 00 42 1A  E0 24 20 01 46 01 06 25  ..'.&.B..$ .F..%
10A0: 00 03 23 00 02 10 03 24  00 03 10 03 20 00 04 10  ..#....$.... ...
10B0: 1A 1F 11 24 3D 80 01 80  08 80 25 02 00 10 08 80  ...$=.....%.....
10C0: 00 16 11 02 27 00 26 00  02 D4 10 1C 3B 80 83 26  ....'.&.....;..&
10D0: 00 01 C3 10 03 01 10 08  80 27 05 F0 FF FF 7F 07  .........'......
10E0: 45 40 80 F0 FF FF 7F F0  FF FF 7F 77 68 69 31 08  E@.........whi1.
10F0: 80 45 13 80 F0 FF FF 7F  F0 FF FF 7F 62 6C 6F 66  .E..........blof
1100: 08 80 45 13 80 F0 FF FF  7F F0 FF FF 7F 66 64 69  ..E..........fdi
1110: 32 08 80 01 1B 11 03 01  10 01 80 46 00 21 00 02  2..........F.!..
1120: 25 00 08 80 00 6C 11 02  23 00 01 80 80 3E 11 47  %....l..#....>.G
1130: 00 8A 80 8B 80 8C 80 8D  80 47 01 01 6C 11 02 23  .........G..l..#
1140: 00 02 80 80 55 11 47 00  8E 80 8F 80 90 80 91 80  ....U.G.........
1150: 47 01 01 6C 11 02 23 00  0F 80 80 6C 11 47 00 92  G..l..#....l.G..
1160: 80 93 80 94 80 95 80 47  01 01 6C 11 1B 24 11 80  .......G..l..$..
1170: 01 80 08 80 25 02 00 10  08 80 00 83 11 05 03 00  ....%...........
1180: 01 83 11 1B 79 00 F0 FF  FF 7F F0 FF FF 7F 42 46  ....y.........BF
1190: 01 02 05 00 01 80 80 9F  11 1A 6A 12 01 AD 11 02  ..........j.....
11A0: 05 00 02 80 80 AD 11 1A  19 16 01 AD 11 78 02 02  .............x..
11B0: 00 01 80 80 E5 11 37 17  80 18 80 19 80 1A 80 45  ......7........E
11C0: 96 80 F0 FF FF 7F F0 FF  FF 7F 73 67 30 61 08 80  ..........sg0a..
11D0: 1A BA 25 55 96 80 F0 FF  FF 7F F0 FF FF 7F 73 67  ..%U..........sg
11E0: 30 61 01 67 12 02 02 00  02 80 80 1C 12 37 1B 80  0a.g.........7..
11F0: 1C 80 1D 80 1E 80 45 96  80 F0 FF FF 7F F0 FF FF  ......E.........
1200: 7F 73 67 30 62 08 80 1A  BA 25 55 96 80 F0 FF FF  .sg0b....%U.....
1210: 7F F0 FF FF 7F 73 67 30  62 01 67 12 02 02 00 0F  .....sg0b.g.....
1220: 80 80 53 12 37 1F 80 20  80 21 80 22 80 45 96 80  ..S.7.. .!.".E..
1230: F0 FF FF 7F F0 FF FF 7F  73 67 30 63 08 80 1A BA  ........sg0c....
1240: 25 55 96 80 F0 FF FF 7F  F0 FF FF 7F 73 67 30 63  %U..........sg0c
1250: 01 67 12 02 02 00 10 80  80 67 12 37 08 80 08 80  .g.......g.7....
1260: 08 80 08 80 01 67 12 46  00 1B 5C 00 3E 80 5C 01  .....g.F..\.>.\.
1270: 3E 80 5C 02 3E 80 5C 03  3E 80 9A 27 10 68 C0 09  >.\.>.\.>..'.h..
1280: 01 04 27 10 6D C0 09 01  04 27 10 6E C0 09 01 04  ..'.m....'.n....
1290: 92 01 68 C0 09 01 92 01  6D C0 09 01 92 01 6E C0  ..h.....m.....n.
12A0: 09 01 94 01 F0 FF FF 7F  94 01 68 C0 09 01 94 01  ..........h.....
12B0: 6D C0 09 01 94 01 6E C0  09 01 59 05 F0 FF FF 7F  m.....n...Y.....
12C0: 01 BA F0 FF FF 7F 97 80  98 80 8C 80 99 80 BA 68  ...............h
12D0: C0 09 01 9A 80 9B 80 8C  80 91 80 BA 6D C0 09 01  ............m...
12E0: 9C 80 9D 80 9E 80 9F 80  BA 6E C0 09 01 A0 80 A1  .........n......
12F0: 80 9E 80 31 80 80 F0 FF  FF 7F 80 68 C0 09 01 80  ...1.......h....
1300: 6D C0 09 01 80 6E C0 09  01 1C 39 80 2C 6E C0 09  m....n....9.,n..
1310: 01 6E C0 09 01 77 70 6F  6E 5B A2 80 6E C0 09 01  .n...wpon[..n...
1320: 6E C0 09 01 62 74 6C 30  5B A3 80 6D C0 09 01 6D  n...btl0[..m...m
1330: C0 09 01 63 61 74 30 81  00 68 C0 09 01 7C 00 68  ...cat0..h...|.h
1340: C0 09 01 5B A4 80 68 C0  09 01 68 C0 09 01 66 69  ...[..h...h...fi
1350: 30 30 5B A5 80 68 C0 09  01 68 C0 09 01 70 72 6C  00[..h...h...prl
1360: 30 03 02 10 07 7F 1C 09  80 45 A6 80 F0 FF FF 7F  0........E......
1370: F0 FF FF 7F 6B 67 30 34  08 80 45 13 80 F0 FF FF  ....kg04..E.....
1380: 7F F0 FF FF 7F 66 64 69  31 08 80 1C 89 80 02 02  .....fdi1.......
1390: 10 01 80 80 B9 13 52 A6  80 F0 FF FF 7F F0 FF FF  ......R.........
13A0: 7F 6B 67 30 34 45 A6 80  F0 FF FF 7F F0 FF FF 7F  .kg04E..........
13B0: 6B 68 6D 30 08 80 01 E6  14 02 02 10 02 80 80 E4  khm0............
13C0: 13 52 A6 80 F0 FF FF 7F  F0 FF FF 7F 6B 67 30 34  .R..........kg04
13D0: 45 A6 80 F0 FF FF 7F F0  FF FF 7F 6B 68 66 30 08  E..........khf0.
13E0: 80 01 E6 14 02 02 10 0F  80 80 0F 14 52 A6 80 F0  ............R...
13F0: FF FF 7F F0 FF FF 7F 6B  67 30 34 45 A6 80 F0 FF  .......kg04E....
1400: FF 7F F0 FF FF 7F 6B 65  6D 30 08 80 01 E6 14 02  ......kem0......
1410: 02 10 10 80 80 3A 14 52  A6 80 F0 FF FF 7F F0 FF  .....:.R........
1420: FF 7F 6B 67 30 34 45 A6  80 F0 FF FF 7F F0 FF FF  ..kg04E.........
1430: 7F 6B 65 66 30 08 80 01  E6 14 02 02 10 00 80 80  .kef0...........
1440: 65 14 52 A6 80 F0 FF FF  7F F0 FF FF 7F 6B 67 30  e.R..........kg0
1450: 34 45 A6 80 F0 FF FF 7F  F0 FF FF 7F 6B 74 72 30  4E..........ktr0
1460: 08 80 01 E6 14 02 02 10  28 80 80 90 14 52 A6 80  ........(....R..
1470: F0 FF FF 7F F0 FF FF 7F  6B 67 30 34 45 A6 80 F0  ........kg04E...
1480: FF FF 7F F0 FF FF 7F 6B  74 72 30 08 80 01 E6 14  .......ktr0.....
1490: 02 02 10 29 80 80 BB 14  52 A6 80 F0 FF FF 7F F0  ...)....R.......
14A0: FF FF 7F 6B 67 30 34 45  A6 80 F0 FF FF 7F F0 FF  ...kg04E........
14B0: FF 7F 6B 6D 74 30 08 80  01 E6 14 02 02 10 15 80  ..kmt0..........
14C0: 80 E6 14 52 A6 80 F0 FF  FF 7F F0 FF FF 7F 6B 67  ...R..........kg
14D0: 30 34 45 A6 80 F0 FF FF  7F F0 FF FF 7F 6B 67 72  04E..........kgr
14E0: 30 08 80 01 E6 14 79 00  F0 FF FF 7F 6E C0 09 01  0.....y.....n...
14F0: 27 10 F0 FF FF 7F 06 1C  A7 80 5B A4 80 68 C0 09  '.........[..h..
1500: 01 68 C0 09 01 66 69 30  31 5B A5 80 68 C0 09 01  .h...fi01[..h...
1510: 68 C0 09 01 70 72 75 31  03 02 10 A8 80 27 10 7A  h...pru1.....'.z
1520: C0 09 01 01 1C 09 80 52  A6 80 F0 FF FF 7F F0 FF  .......R........
1530: FF 7F 6B 68 6D 30 52 A6  80 F0 FF FF 7F F0 FF FF  ..khm0R.........
1540: 7F 6B 68 66 30 52 A6 80  F0 FF FF 7F F0 FF FF 7F  .khf0R..........
1550: 6B 65 6D 30 52 A6 80 F0  FF FF 7F F0 FF FF 7F 6B  kem0R..........k
1560: 65 66 30 52 A6 80 F0 FF  FF 7F F0 FF FF 7F 6B 74  ef0R..........kt
1570: 72 30 52 A6 80 F0 FF FF  7F F0 FF FF 7F 6B 6D 74  r0R..........kmt
1580: 30 52 A6 80 F0 FF FF 7F  F0 FF FF 7F 6B 67 72 30  0R..........kgr0
1590: 45 A6 80 F0 FF FF 7F F0  FF FF 7F 6B 67 30 35 08  E..........kg05.
15A0: 80 1C A9 80 2B 68 C0 09  01 AA 80 2A 10 7A C0 09  ....+h.....*.z..
15B0: 01 1A 33 26 1C 39 80 27  10 F0 FF FF 7F 07 5B A4  ..3&.9.'......[.
15C0: 80 68 C0 09 01 68 C0 09  01 66 69 30 30 2C 6E C0  .h...h...fi00,n.
15D0: 09 01 6E C0 09 01 77 70  6F 66 27 10 68 C0 09 01  ..n...wpof'.h...
15E0: 05 27 10 6E C0 09 01 05  27 10 6D C0 09 01 05 1C  .'.n....'.m.....
15F0: 3B 80 1A E0 24 1A 01 25  52 AB 80 F0 FF FF 7F F0  ;...$..%R.......
1600: FF FF 7F 6B 67 30 35 45  A6 80 F0 FF FF 7F F0 FF  ...kg05E........
1610: FF 7F 30 62 6C 66 08 80  1B 2F 00 83 C0 09 01 2F  ..0blf.../...../
1620: 00 80 C0 09 01 2F 00 7F  C0 09 01 4E 00 83 C0 09  ...../.....N....
1630: 01 4E 00 80 C0 09 01 4E  00 F0 FF FF 7F 4E 00 7F  .N.....N.....N..
1640: C0 09 01 92 01 83 C0 09  01 92 01 80 C0 09 01 92  ................
1650: 01 7F C0 09 01 94 01 83  C0 09 01 BA 83 C0 09 01  ................
1660: AC 80 AD 80 8C 80 AE 80  BA 80 C0 09 01 AF 80 B0  ................
1670: 80 8C 80 B1 80 BA F0 FF  FF 7F B2 80 B3 80 B4 80  ................
1680: B5 80 BA 7F C0 09 01 B6  80 B7 80 B8 80 B9 80 80  ................
1690: 83 C0 09 01 80 80 C0 09  01 80 F0 FF FF 7F 5B BA  ..............[.
16A0: 80 7F C0 09 01 7F C0 09  01 6B 61 62 6C 27 05 F0  .........kabl'..
16B0: FF FF 7F 06 5B BB 80 80  C0 09 01 80 C0 09 01 70  ....[..........p
16C0: 76 30 30 2A 05 F0 FF FF  7F 45 BC 80 F8 FF FF 7F  v00*.....E......
16D0: F8 FF FF 7F 73 30 35 38  08 80 1C 09 80 45 13 80  ....s058.....E..
16E0: F8 FF FF 7F F8 FF FF 7F  66 64 69 31 08 80 5B BD  ........fdi1..[.
16F0: 80 83 C0 09 01 83 C0 09  01 62 61 74 30 2B 83 C0  .........bat0+..
1700: 09 01 BE 80 1C 13 80 52  BC 80 F8 FF FF 7F F8 FF  .......R........
1710: FF 7F 73 30 35 38 45 BC  80 F8 FF FF 7F F8 FF FF  ..s058E.........
1720: 7F 73 30 35 39 08 80 1C  09 80 5B BF 80 83 C0 09  .s059.....[.....
1730: 01 83 C0 09 01 62 61 74  31 2B 80 C0 09 01 C0 80  .....bat1+......
1740: 1C C1 80 52 BC 80 F8 FF  FF 7F F8 FF FF 7F 73 30  ...R..........s0
1750: 35 39 45 BC 80 F8 FF FF  7F F8 FF FF 7F 73 30 39  59E..........s09
1760: 32 08 80 1C 05 80 52 BC  80 F8 FF FF 7F F8 FF FF  2.....R.........
1770: 7F 73 30 39 32 45 BC 80  F8 FF FF 7F F8 FF FF 7F  .s092E..........
1780: 73 30 39 31 08 80 1C 05  80 1A 33 26 1C 39 80 52  s091......3&.9.R
1790: BC 80 F8 FF FF 7F F8 FF  FF 7F 73 30 39 31 45 BC  ..........s091E.
17A0: 80 F8 FF FF 7F F8 FF FF  7F 6B 62 6C 61 08 80 27  .........kbla..'
17B0: 05 F0 FF FF 7F 07 4E 01  83 C0 09 01 4E 01 80 C0  ......N.....N...
17C0: 09 01 1C 3B 80 1A E0 24  1A 01 25 1B 02 1A 00 08  ...;...$..%.....
17D0: 80 80 DA 17 1A 51 18 01  4E 18 02 1A 00 01 80 80  .....Q..N.......
17E0: 15 18 03 01 10 00 80 43  00 43 01 02 02 10 01 80  .......C.C......
17F0: 00 F5 17 30 1B 37 7D 80  7E 80 7F 80 80 80 45 C2  ...0.7}.~.....E.
1800: 80 F0 FF FF 7F F0 FF FF  7F 67 63 32 37 08 80 1A  .........gc27...
1810: 51 18 01 4E 18 02 1A 00  02 80 80 40 18 1A 8E 18  Q..N.......@....
1820: 37 7D 80 7E 80 7F 80 80  80 45 C2 80 F0 FF FF 7F  7}.~.....E......
1830: F0 FF FF 7F 67 63 32 37  08 80 1A 51 18 01 4E 18  ....gc27...Q..N.
1840: 02 1A 00 0F 80 80 4E 18  1A 51 18 01 4E 18 46 00  ......N..Q..N.F.
1850: 1B 45 13 80 F0 FF FF 7F  F0 FF FF 7F 66 64 69 32  .E..........fdi2
1860: 08 80 02 18 00 0C 80 01  7B 18 62 02 80 F0 FF FF  ........{.b.....
1870: 7F F0 FF FF 7F 6D 61 69  6E 08 80 1C 39 80 55 13  .....main...9.U.
1880: 80 F0 FF FF 7F F0 FF FF  7F 66 64 69 32 1B 42 45  .........fdi2.BE
1890: 13 80 F8 FF FF 7F F8 FF  FF 7F 66 64 6F 31 08 80  ..........fdo1..
18A0: 55 13 80 F8 FF FF 7F F8  FF FF 7F 66 64 6F 31 46  U..........fdo1F
18B0: 01 38 36 80 2F 00 80 C0  09 01 2F 00 83 C0 09 01  .86./...../.....
18C0: 2F 00 89 C0 09 01 2F 00  7F C0 09 01 2F 00 81 C0  /...../...../...
18D0: 09 01 2F 00 82 C0 09 01  2F 00 8A C0 09 01 4E 00  ../...../.....N.
18E0: 7F C0 09 01 4E 00 81 C0  09 01 4E 00 82 C0 09 01  ....N.....N.....
18F0: 4E 00 89 C0 09 01 4E 00  F0 FF FF 7F 4E 00 8A C0  N.....N.....N...
1900: 09 01 94 01 83 C0 09 01  94 01 80 C0 09 01 94 01  ................
1910: 89 C0 09 01 94 01 7F C0  09 01 94 01 8A C0 09 01  ................
1920: 94 01 81 C0 09 01 BA 80  C0 09 01 C3 80 C4 80 8C  ................
1930: 80 C5 80 BA 83 C0 09 01  C3 80 C4 80 8C 80 C5 80  ................
1940: BA 89 C0 09 01 C6 80 C7  80 C8 80 02 80 BA F0 FF  ................
1950: FF 7F C9 80 CA 80 8C 80  CB 80 BA 7F C0 09 01 CC  ................
1960: 80 CD 80 19 80 CE 80 BA  81 C0 09 01 CF 80 D0 80  ................
1970: D1 80 D2 80 BA 82 C0 09  01 D3 80 D4 80 D5 80 D6  ................
1980: 80 BA 8A C0 09 01 D7 80  D8 80 D9 80 DA 80 80 F0  ................
1990: FF FF 7F 80 7F C0 09 01  80 81 C0 09 01 80 82 C0  ................
19A0: 09 01 80 89 C0 09 01 80  F0 FF FF 7F 29 05 8A C0  ............)...
19B0: 09 01 02 1C 39 80 27 05  8A C0 09 01 05 81 00 83  ....9.'.........
19C0: C0 09 01 81 00 80 C0 09  01 7C 00 83 C0 09 01 5B  .........|.....[
19D0: DB 80 7F C0 09 01 7F C0  09 01 73 67 6D 30 5B DC  ..........sgm0[.
19E0: 80 8A C0 09 01 8A C0 09  01 73 69 74 30 5B DD 80  .........sit0[..
19F0: 89 C0 09 01 89 C0 09 01  77 70 6F 66 5B DE 80 80  ........wpof[...
1A00: C0 09 01 80 C0 09 01 6B  61 69 30 5B DF 80 83 C0  .......kai0[....
1A10: 09 01 83 C0 09 01 6B 61  69 30 5C 00 E0 80 5C 01  ......kai0\...\.
1A20: E0 80 5C 02 E0 80 5C 03  E0 80 9A 27 05 F0 FF FF  ..\...\....'....
1A30: 7F 06 1C 3B 80 45 BC 80  F8 FF FF 7F F8 FF FF 7F  ...;.E..........
1A40: 73 31 33 30 08 80 1C 09  80 45 13 80 F8 FF FF 7F  s130.....E......
1A50: F8 FF FF 7F 66 64 69 31  08 80 1C 89 80 52 BC 80  ....fdi1.....R..
1A60: F8 FF FF 7F F8 FF FF 7F  73 31 33 30 02 87 7F 00  ........s130....
1A70: 80 80 88 1A 45 BC 80 F8  FF FF 7F F8 FF FF 7F 73  ....E..........s
1A80: 31 33 33 08 80 01 B5 1A  02 87 7F 28 80 80 A4 1A  133........(....
1A90: 45 BC 80 F8 FF FF 7F F8  FF FF 7F 73 31 33 33 08  E..........s133.
1AA0: 80 01 B5 1A 45 BC 80 F8  FF FF 7F F8 FF FF 7F 73  ....E..........s
1AB0: 31 33 31 08 80 1C 89 80  5B E1 80 89 C0 09 01 89  131.....[.......
1AC0: C0 09 01 6B 72 75 30 52  BC 80 F8 FF FF 7F F8 FF  ...kru0R........
1AD0: FF 7F 73 31 33 31 52 BC  80 F8 FF FF 7F F8 FF FF  ..s131R.........
1AE0: 7F 73 31 33 33 45 BC 80  F8 FF FF 7F F8 FF FF 7F  .s133E..........
1AF0: 73 30 39 37 08 80 2B 89  C0 09 01 E2 80 1C E3 80  s097..+.........
1B00: 52 BC 80 F8 FF FF 7F F8  FF FF 7F 73 30 39 37 45  R..........s097E
1B10: BC 80 F8 FF FF 7F F8 FF  FF 7F 73 30 39 35 08 80  ..........s095..
1B20: 4E 00 80 C0 09 01 4E 00  83 C0 09 01 1C C1 80 52  N.....N........R
1B30: BC 80 F8 FF FF 7F F8 FF  FF 7F 73 30 39 35 45 BC  ..........s095E.
1B40: 80 F8 FF FF 7F F8 FF FF  7F 73 31 33 32 08 80 1C  .........s132...
1B50: 89 80 52 BC 80 F8 FF FF  7F F8 FF FF 7F 73 31 33  ..R..........s13
1B60: 32 45 BC 80 F8 FF FF 7F  F8 FF FF 7F 73 30 39 36  2E..........s096
1B70: 08 80 5B E1 80 89 C0 09  01 89 C0 09 01 6B 72 75  ..[..........kru
1B80: 31 CD E4 80 89 C0 09 01  89 C0 09 01 73 30 30 31  1...........s001
1B90: 08 80 45 BC 80 89 C0 09  01 89 C0 09 01 6B 72 75  ..E..........kru
1BA0: 31 08 80 2B 89 C0 09 01  E5 80 1C E3 80 52 BC 80  1..+.........R..
1BB0: F8 FF FF 7F F8 FF FF 7F  73 30 39 36 45 BC 80 F8  ........s096E...
1BC0: FF FF 7F F8 FF FF 7F 73  30 36 30 08 80 1C 07 80  .......s060.....
1BD0: 52 BC 80 F8 FF FF 7F F8  FF FF 7F 73 30 36 30 45  R..........s060E
1BE0: BC 80 F8 FF FF 7F F8 FF  FF 7F 73 30 36 31 08 80  ..........s061..
1BF0: 1C 07 80 5D 08 80 89 80  52 BC 80 F8 FF FF 7F F8  ...]....R.......
1C00: FF FF 7F 73 30 36 31 45  BC 80 F8 FF FF 7F F8 FF  ...s061E........
1C10: FF 7F 73 30 36 32 08 80  27 05 F0 FF FF 7F 07 1C  ..s062..'.......
1C20: 89 80 27 05 81 C0 09 01  05 1C 00 80 27 05 82 C0  ..'.........'...
1C30: 09 01 04 1C 00 80 52 BC  80 F8 FF FF 7F F8 FF FF  ......R.........
1C40: 7F 73 30 36 32 45 BC 80  F8 FF FF 7F F8 FF FF 7F  .s062E..........
1C50: 73 30 36 33 08 80 2B 81  C0 09 01 E6 80 23 5B DB  s063..+......#[.
1C60: 80 7F C0 09 01 7F C0 09  01 73 67 6D 33 52 BC 80  .........sgm3R..
1C70: F8 FF FF 7F F8 FF FF 7F  73 30 36 33 45 BC 80 F8  ........s063E...
1C80: FF FF 7F F8 FF FF 7F 73  30 36 34 08 80 2B 7F C0  .......s064..+..
1C90: 09 01 E7 80 23 2A 05 81  C0 09 01 66 00 80 81 C0  ....#*.....f....
1CA0: 09 01 81 C0 09 01 74 6C  62 30 2B 81 C0 09 01 E8  ......tlb0+.....
1CB0: 80 23 52 BC 80 F8 FF FF  7F F8 FF FF 7F 73 30 36  .#R..........s06
1CC0: 34 45 BC 80 F8 FF FF 7F  F8 FF FF 7F 73 30 36 35  4E..........s065
1CD0: 08 80 2B 81 C0 09 01 E9  80 23 66 00 80 81 C0 09  ..+......#f.....
1CE0: 01 81 C0 09 01 74 6C 62  31 52 BC 80 F8 FF FF 7F  .....tlb1R......
1CF0: F8 FF FF 7F 73 30 36 35  45 BC 80 F8 FF FF 7F F8  ....s065E.......
1D00: FF FF 7F 73 30 36 36 08  80 6E 82 C0 09 01 28 80  ...s066..n....(.
1D10: 99 82 C0 09 01 2B 82 C0  09 01 EA 80 23 52 BC 80  .....+......#R..
1D20: F8 FF FF 7F F8 FF FF 7F  73 30 36 36 45 BC 80 F8  ........s066E...
1D30: FF FF 7F F8 FF FF 7F 73  30 36 37 08 80 2B 7F C0  .......s067..+..
1D40: 09 01 EB 80 23 5C 00 EC  80 5C 01 EC 80 5C 02 EC  ....#\...\...\..
1D50: 80 5C 03 EC 80 9A 45 13  80 F0 FF FF 7F F0 FF FF  .\....E.........
1D60: 7F 6F 76 6C 31 08 80 52  BC 80 F8 FF FF 7F F8 FF  .ovl1..R........
1D70: FF 7F 73 30 36 37 45 BC  80 F8 FF FF 7F F8 FF FF  ..s067E.........
1D80: 7F 73 30 39 38 08 80 1C  A7 80 52 BC 80 F8 FF FF  .s098.....R.....
1D90: 7F F8 FF FF 7F 73 30 39  38 45 BC 80 F8 FF FF 7F  .....s098E......
1DA0: F8 FF FF 7F 73 30 39 39  08 80 2B 80 C0 09 01 ED  ....s099..+.....
1DB0: 80 23 5B DF 80 83 C0 09  01 83 C0 09 01 6B 61 69  .#[..........kai
1DC0: 31 52 BC 80 F8 FF FF 7F  F8 FF FF 7F 73 30 39 39  1R..........s099
1DD0: 45 BC 80 F8 FF FF 7F F8  FF FF 7F 73 31 30 30 08  E..........s100.
1DE0: 80 1C A7 80 7C 01 83 C0  09 01 2B 83 C0 09 01 EE  ....|.....+.....
1DF0: 80 23 53 83 C0 09 01 83  C0 09 01 6B 61 69 31 52  .#S........kai1R
1E00: BC 80 F8 FF FF 7F F8 FF  FF 7F 73 31 30 30 45 BC  ..........s100E.
1E10: 80 F8 FF FF 7F F8 FF FF  7F 73 31 30 31 08 80 2B  .........s101..+
1E20: 80 C0 09 01 EF 80 23 52  BC 80 F8 FF FF 7F F8 FF  ......#R........
1E30: FF 7F 73 31 30 31 45 BC  80 F8 FF FF 7F F8 FF FF  ..s101E.........
