# Event 65535

## Metadata

| Field           | Value    |
|-----------------|----------|
| Event Index     | 69/97    |
| Offset          | 0x0E24   |
| Data Size       | 33 bytes |
| Calculated Size | 33 bytes |
| Instructions    | 7        |

```
      00 01 02 03 04 05 06 07  08 09 0A 0B 0C 0D 0E 0F
      -- -- -- -- -- -- -- --  -- -- -- -- -- -- -- --
0E20:             29 08 8A 70  0E 01 0D 1D 68 80 23 29      )..p....h.#)
0E30: 08 8A 70 0E 01 0E 29 08  8A 70 0E 01 0F 29 08 8A  ..p...)..p...)..
0E40: 70 0E 01 10 00                                    p....           
```

## Opcodes

```
  0: 0x0E24 [0x29] REQ_SET_WAIT(priority=0x08, entity_id=Moogle (ID: 17723530/0x010E708A), tag_num=0x0D)
  1: 0x0E2B [0x1D] PRINT_EVENT_MESSAGE(message_id=12136*)
    → "Thank you, kupo!\u0007I...have one more favor to ask.\u0007It's almost time for the festival in the moogles' hometown, kupo!\u007F1\u0000\u0007"
  2: 0x0E2E [0x23] WAIT_FOR_DIALOG_INTERACTION
  3: 0x0E2F [0x29] REQ_SET_WAIT(priority=0x08, entity_id=Moogle (ID: 17723530/0x010E708A), tag_num=0x0E)
  4: 0x0E36 [0x29] REQ_SET_WAIT(priority=0x08, entity_id=Moogle (ID: 17723530/0x010E708A), tag_num=0x0F)
  5: 0x0E3D [0x29] REQ_SET_WAIT(priority=0x08, entity_id=Moogle (ID: 17723530/0x010E708A), tag_num=0x10)
  6: 0x0E44 [0x00] END_REQSTACK()
```
