# Event 65535

## Metadata

| Field           | Value    |
|-----------------|----------|
| Event Index     | 13/13    |
| Offset          | 0x00CE   |
| Data Size       | 50 bytes |
| Calculated Size | 50 bytes |
| Instructions    | 10       |

```
      00 01 02 03 04 05 06 07  08 09 0A 0B 0C 0D 0E 0F
      -- -- -- -- -- -- -- --  -- -- -- -- -- -- -- --
00C0:                                            32 03                2.
00D0: 80 1F 00 12 80 13 80 14  80 1F 01 6F 4A 1C 42 0A  ...........oJ.B.
00E0: 01 43 42 0A 01 7B 1C 42  0A 01 6F 76 1C 42 0A 01  .CB..{.B..ov.B..
00F0: 5B 15 80 1C 42 0A 01 1C  42 0A 01 6C 62 74 30 00  [...B...B..lbt0.
```

## Opcodes

```
  0: 0x00CE [0x32] ExtData[1]->MainSpeed = 40* * 0.1
  1: 0x00D1 [0x1F] MOVE_ENTITY: EventEntity moves to X=-18.457*, Z=-278.477*, Y=0.462*
  2: 0x00D9 [0x1F] MOVE_ENTITY: Update entity position (mode=1)
  3: 0x00DB [0x6F] WAIT_FRAME_DELAY: Yield until WaitTime reaches zero
  4: 0x00DC [0x4A] Loutille (ID: 17449500/0x010A421C) looks at B (ID: 17449539/0x010A4243)
  5: 0x00E5 [0x7B] Loutille (ID: 17449500/0x010A421C) stops talking
  6: 0x00EA [0x6F] WAIT_FRAME_DELAY: Yield until WaitTime reaches zero
  7: 0x00EB [0x76] CHECK_ENTITY_RENDER_FLAGS: Wait until Loutille (ID: 17449500/0x010A421C) Render.Flags0 and Render.Flags3 conditions are met
  8: 0x00F0 [0x5B] LOAD_EXT_SCHEDULER(work_offset=1302*, entity1=Loutille (ID: 17449500/0x010A421C), entity2=Loutille (ID: 17449500/0x010A421C), action="lbt0")
  9: 0x00FF [0x00] END_REQSTACK()
```
