# 17175353

## Common Data

| Field            | Value                              |
|------------------|------------------------------------|
| Zone             | Meriphataud Mountains [S] (ID: 97) |
| Block Size       | 116 bytes                          |
| Total Events     | 3                                  |
| References Count | 6                                  |

## List of Events

| Event ID                 | Entrypoint   |   Size |   Instructions |
|--------------------------|--------------|--------|----------------|
| [65535](#event-65535)    | 0x0000       |      1 |              1 |
| [105](#event-105)        | 0x0001       |      1 |              1 |
| [65535.1](#event-655351) | 0x0002       |     59 |             10 |

## DAT References (imed_data)

|   Index | Hex Value   |   Dec Value |
|---------|-------------|-------------|
|       0 | 0x10F95     |       69525 |
|       1 | 0xD5D9      |       54745 |
|       2 | 0x147C      |        5244 |
|       3 | 0x1194      |        4500 |
|       4 | 0x0000      |           0 |
|       5 | 0x0001      |           1 |

## Events

### Event 65535

#### Metadata

| Field        | Value   |
|--------------|---------|
| Entrypoint   | 0x0000  |
| Data Size    | 1 bytes |
| Instructions | 1       |

```
      00 01 02 03 04 05 06 07  08 09 0A 0B 0C 0D 0E 0F
      -- -- -- -- -- -- -- --  -- -- -- -- -- -- -- --
0000: 00                                                .               
```

#### Opcodes

```
  0: 0x0000 [0x00] END_REQSTACK()
```

### Event 105

#### Metadata

| Field        | Value   |
|--------------|---------|
| Entrypoint   | 0x0001  |
| Data Size    | 1 bytes |
| Instructions | 1       |

```
      00 01 02 03 04 05 06 07  08 09 0A 0B 0C 0D 0E 0F
      -- -- -- -- -- -- -- --  -- -- -- -- -- -- -- --
0000:    00                                              .              
```

#### Opcodes

```
  0: 0x0001 [0x00] END_REQSTACK()
```

### Event 65535.1

#### Metadata

| Field        | Value    |
|--------------|----------|
| Entrypoint   | 0x0002   |
| Data Size    | 59 bytes |
| Instructions | 10       |

```
      00 01 02 03 04 05 06 07  08 09 0A 0B 0C 0D 0E 0F
      -- -- -- -- -- -- -- --  -- -- -- -- -- -- -- --
0000:       2F 00 F8 FF FF 7F  4E 00 F8 FF FF 7F 94 01    /.....N.......
0010: F8 FF FF 7F 92 01 F8 FF  FF 7F 33 00 BA F8 FF FF  ..........3.....
0020: 7F 00 80 01 80 02 80 03  80 80 F8 FF FF 7F 6C F8  ..............l.
0030: FF FF 7F 04 80 05 80 5E  31 74 6C 30 00           .......^1tl0.   
```

#### Opcodes

```
  0: 0x0002 [0x2F] EventEntity->Render.Flags0 &= ~0x80000 // Bit 19
  1: 0x0008 [0x4E] SET_ENTITY_HIDE_FLAG: Show EventEntity
  2: 0x000E [0x94] EventEntity->Render.Flags3 ^= 0x01
  3: 0x0014 [0x92] EventEntity->Render.Flags3 ^= 0x01
  4: 0x001A [0x33] EventEntity->Render.Flags0 &= ~ 0x200000 // Bit 21 (flag=0x00)
  5: 0x001C [0xBA] SET_ENTITY_POSITION(entity_id=EventEntity, pos_x=69.525*, pos_z=54.745*, pos_y=5.244*, direction=395.5°*)
  6: 0x0029 [0x80] LOAD_WAIT(entity=EventEntity)
  7: 0x002E [0x6C] FADE_ENTITY_COLOR(entity_id=EventEntity, end_alpha=0*, fade_time=1*)
  8: 0x0037 [0x5E] EventEntity goes idle (kills current action) (animation: "1tl0")
  9: 0x003C [0x00] END_REQSTACK()
```
