# 17175393 - Y02

## Common Data

| Field            | Value                              |
|------------------|------------------------------------|
| Zone             | Meriphataud Mountains [S] (ID: 97) |
| Block Size       | 356 bytes                          |
| Total Events     | 15                                 |
| References Count | 21                                 |

## List of Events

| Event ID                   | Entrypoint   |   Size |   Instructions |
|----------------------------|--------------|--------|----------------|
| [65535](#event-65535)      | 0x0000       |      1 |              1 |
| [4](#event-4)              | 0x0001       |      1 |              1 |
| [65535.1](#event-655351)   | 0x0002       |     28 |              8 |
| [65535.2](#event-655352)   | 0x001E       |     33 |              7 |
| [65535.3](#event-655353)   | 0x003F       |     10 |              2 |
| [65535.4](#event-655354)   | 0x0049       |     10 |              2 |
| [65535.5](#event-655355)   | 0x0053       |     14 |              4 |
| [65535.6](#event-655356)   | 0x0061       |     32 |              6 |
| [65535.7](#event-655357)   | 0x0081       |      1 |              1 |
| [65535.8](#event-655358)   | 0x0082       |     18 |              4 |
| [65535.9](#event-655359)   | 0x0094       |     10 |              2 |
| [65535.10](#event-6553510) | 0x009E       |      9 |              3 |
| [65535.11](#event-6553511) | 0x00A7       |      9 |              3 |
| [65535.12](#event-6553512) | 0x00B0       |     10 |              2 |
| [65535.13](#event-6553513) | 0x00BA       |     10 |              2 |

## DAT References (imed_data)

|   Index | Hex Value   |   Dec Value |
|---------|-------------|-------------|
|       0 | 0x0028      |          40 |
|       1 | 0xB011C     |      721180 |
|       2 | 0xFFFF5CB5  |  4294925493 |
|       3 | 0xFFFF8300  |  4294935296 |
|       4 | 0xAE8A0     |      714912 |
|       5 | 0xFFFF5A2A  |  4294924842 |
|       6 | 0xFFFF82F7  |  4294935287 |
|       7 | 0x0001      |           1 |
|       8 | 0xAF1DA     |      717274 |
|       9 | 0xFFFF5AA6  |  4294924966 |
|      10 | 0xFFFF82E5  |  4294935269 |
|      11 | 0x000A      |          10 |
|      12 | 0x05F6      |        1526 |
|      13 | 0x0000      |           0 |
|      14 | 0x0080      |         128 |
|      15 | 0xFFFE78DA  |  4294867162 |
|      16 | 0xFFFF88CA  |  4294936778 |
|      17 | 0xFFFEE7BB  |  4294895547 |
|      18 | 0xAD532     |      709938 |
|      19 | 0xFFFF8A34  |  4294937140 |
|      20 | 0xFFFF81EE  |  4294935022 |

## Events

### Event 65535

#### Metadata

| Field        | Value   |
|--------------|---------|
| Entrypoint   | 0x0000  |
| Data Size    | 1 bytes |
| Instructions | 1       |

```
      00 01 02 03 04 05 06 07  08 09 0A 0B 0C 0D 0E 0F
      -- -- -- -- -- -- -- --  -- -- -- -- -- -- -- --
0000: 00                                                .               
```

#### Opcodes

```
  0: 0x0000 [0x00] END_REQSTACK()
```

### Event 4

#### Metadata

| Field        | Value   |
|--------------|---------|
| Entrypoint   | 0x0001  |
| Data Size    | 1 bytes |
| Instructions | 1       |

```
      00 01 02 03 04 05 06 07  08 09 0A 0B 0C 0D 0E 0F
      -- -- -- -- -- -- -- --  -- -- -- -- -- -- -- --
0000:    00                                              .              
```

#### Opcodes

```
  0: 0x0001 [0x00] END_REQSTACK()
```

### Event 65535.1

#### Metadata

| Field        | Value    |
|--------------|----------|
| Entrypoint   | 0x0002   |
| Data Size    | 28 bytes |
| Instructions | 8        |

```
      00 01 02 03 04 05 06 07  08 09 0A 0B 0C 0D 0E 0F
      -- -- -- -- -- -- -- --  -- -- -- -- -- -- -- --
0000:       32 00 80 1F 00 01  80 02 80 03 80 1F 01 1F    2.............
0010: 00 04 80 05 80 06 80 1F  01 6F 1C 07 80 00        .........o....  
```

#### Opcodes

```
  0: 0x0002 [0x32] ExtData[1]->MainSpeed = 40* * 0.1
  1: 0x0005 [0x1F] MOVE_ENTITY: EventEntity moves to X=721.180*, Z=-41.803*, Y=-32.000*
  2: 0x000D [0x1F] MOVE_ENTITY: Update entity position (mode=1)
  3: 0x000F [0x1F] MOVE_ENTITY: EventEntity moves to X=714.912*, Z=-42.454*, Y=-32.009*
  4: 0x0017 [0x1F] MOVE_ENTITY: Update entity position (mode=1)
  5: 0x0019 [0x6F] WAIT_FRAME_DELAY: Yield until WaitTime reaches zero
  6: 0x001A [0x1C] WAIT(1* ticks)
  7: 0x001D [0x00] END_REQSTACK()
```

### Event 65535.2

#### Metadata

| Field        | Value    |
|--------------|----------|
| Entrypoint   | 0x001E   |
| Data Size    | 33 bytes |
| Instructions | 7        |

```
      00 01 02 03 04 05 06 07  08 09 0A 0B 0C 0D 0E 0F
      -- -- -- -- -- -- -- --  -- -- -- -- -- -- -- --
0010:                                            32 00                2.
0020: 80 1F 00 08 80 09 80 0A  80 1F 01 6F 1C 0B 80 5B  ...........o...[
0030: 0C 80 F8 FF FF 7F F8 FF  FF 7F 72 6F 75 30 00     ..........rou0. 
```

#### Opcodes

```
  0: 0x001E [0x32] ExtData[1]->MainSpeed = 40* * 0.1
  1: 0x0021 [0x1F] MOVE_ENTITY: EventEntity moves to X=717.274*, Z=-42.330*, Y=-32.027*
  2: 0x0029 [0x1F] MOVE_ENTITY: Update entity position (mode=1)
  3: 0x002B [0x6F] WAIT_FRAME_DELAY: Yield until WaitTime reaches zero
  4: 0x002C [0x1C] WAIT(10* ticks)
  5: 0x002F [0x5B] LOAD_EXT_SCHEDULER: Load scheduler "rou0" with entities [EventEntity, EventEntity], work=1526*
  6: 0x003E [0x00] END_REQSTACK()
```

### Event 65535.3

#### Metadata

| Field        | Value    |
|--------------|----------|
| Entrypoint   | 0x003F   |
| Data Size    | 10 bytes |
| Instructions | 2        |

```
      00 01 02 03 04 05 06 07  08 09 0A 0B 0C 0D 0E 0F
      -- -- -- -- -- -- -- --  -- -- -- -- -- -- -- --
0030:                                               6C                 l
0040: F8 FF FF 7F 0D 80 07 80  00                       .........       
```

#### Opcodes

```
  0: 0x003F [0x6C] FADE_ENTITY_COLOR(entity_id=EventEntity, end_alpha=0*, fade_time=1*)
  1: 0x0048 [0x00] END_REQSTACK()
```

### Event 65535.4

#### Metadata

| Field        | Value    |
|--------------|----------|
| Entrypoint   | 0x0049   |
| Data Size    | 10 bytes |
| Instructions | 2        |

```
      00 01 02 03 04 05 06 07  08 09 0A 0B 0C 0D 0E 0F
      -- -- -- -- -- -- -- --  -- -- -- -- -- -- -- --
0040:                             6C F8 FF FF 7F 0E 80           l......
0050: 07 80 00                                          ...             
```

#### Opcodes

```
  0: 0x0049 [0x6C] FADE_ENTITY_COLOR(entity_id=EventEntity, end_alpha=128*, fade_time=1*)
  1: 0x0052 [0x00] END_REQSTACK()
```

### Event 65535.5

#### Metadata

| Field        | Value    |
|--------------|----------|
| Entrypoint   | 0x0053   |
| Data Size    | 14 bytes |
| Instructions | 4        |

```
      00 01 02 03 04 05 06 07  08 09 0A 0B 0C 0D 0E 0F
      -- -- -- -- -- -- -- --  -- -- -- -- -- -- -- --
0050:          32 00 80 1F 00  0F 80 10 80 11 80 1F 01     2............
0060: 00                                                .               
```

#### Opcodes

```
  0: 0x0053 [0x32] ExtData[1]->MainSpeed = 40* * 0.1
  1: 0x0056 [0x1F] MOVE_ENTITY: EventEntity moves to X=-100.134*, Z=-30.518*, Y=-71.749*
  2: 0x005E [0x1F] MOVE_ENTITY: Update entity position (mode=1)
  3: 0x0060 [0x00] END_REQSTACK()
```

### Event 65535.6

#### Metadata

| Field        | Value    |
|--------------|----------|
| Entrypoint   | 0x0061   |
| Data Size    | 32 bytes |
| Instructions | 6        |

```
      00 01 02 03 04 05 06 07  08 09 0A 0B 0C 0D 0E 0F
      -- -- -- -- -- -- -- --  -- -- -- -- -- -- -- --
0060:    32 00 80 1F 00 12 80  13 80 14 80 1F 01 1C 07   2..............
0070: 80 5B 0C 80 63 13 06 01  63 13 06 01 72 6F 75 30  .[..c...c...rou0
0080: 00                                                .               
```

#### Opcodes

```
  0: 0x0061 [0x32] ExtData[1]->MainSpeed = 40* * 0.1
  1: 0x0064 [0x1F] MOVE_ENTITY: EventEntity moves to X=709.938*, Z=-30.156*, Y=-32.274*
  2: 0x006C [0x1F] MOVE_ENTITY: Update entity position (mode=1)
  3: 0x006E [0x1C] WAIT(1* ticks)
  4: 0x0071 [0x5B] LOAD_EXT_SCHEDULER: Load scheduler "rou0" with entities [Y04 (ID: 17175395/0x01061363), Y04 (ID: 17175395/0x01061363)], work=1526*
  5: 0x0080 [0x00] END_REQSTACK()
```

### Event 65535.7

#### Metadata

| Field        | Value   |
|--------------|---------|
| Entrypoint   | 0x0081  |
| Data Size    | 1 bytes |
| Instructions | 1       |

```
      00 01 02 03 04 05 06 07  08 09 0A 0B 0C 0D 0E 0F
      -- -- -- -- -- -- -- --  -- -- -- -- -- -- -- --
0080:    00                                              .              
```

#### Opcodes

```
  0: 0x0081 [0x00] END_REQSTACK()
```

### Event 65535.8

#### Metadata

| Field        | Value    |
|--------------|----------|
| Entrypoint   | 0x0082   |
| Data Size    | 18 bytes |
| Instructions | 4        |

```
      00 01 02 03 04 05 06 07  08 09 0A 0B 0C 0D 0E 0F
      -- -- -- -- -- -- -- --  -- -- -- -- -- -- -- --
0080:       22 00 2F 00 F8 FF  FF 7F 6C F8 FF FF 7F 0D    "./.....l.....
0090: 80 07 80 00                                       ....            
```

#### Opcodes

```
  0: 0x0082 [0x22] ENTITY_HIDE_FLAG(enabled=0x00)
  1: 0x0084 [0x2F] EventEntity->Render.Flags0 &= ~0x80000 // Bit 19
  2: 0x008A [0x6C] FADE_ENTITY_COLOR(entity_id=EventEntity, end_alpha=0*, fade_time=1*)
  3: 0x0093 [0x00] END_REQSTACK()
```

### Event 65535.9

#### Metadata

| Field        | Value    |
|--------------|----------|
| Entrypoint   | 0x0094   |
| Data Size    | 10 bytes |
| Instructions | 2        |

```
      00 01 02 03 04 05 06 07  08 09 0A 0B 0C 0D 0E 0F
      -- -- -- -- -- -- -- --  -- -- -- -- -- -- -- --
0090:             6C F8 FF FF  7F 0E 80 07 80 00            l.........  
```

#### Opcodes

```
  0: 0x0094 [0x6C] FADE_ENTITY_COLOR(entity_id=EventEntity, end_alpha=128*, fade_time=1*)
  1: 0x009D [0x00] END_REQSTACK()
```

### Event 65535.10

#### Metadata

| Field        | Value   |
|--------------|---------|
| Entrypoint   | 0x009E  |
| Data Size    | 9 bytes |
| Instructions | 3       |

```
      00 01 02 03 04 05 06 07  08 09 0A 0B 0C 0D 0E 0F
      -- -- -- -- -- -- -- --  -- -- -- -- -- -- -- --
0090:                                            22 00                ".
00A0: 2F 00 F8 FF FF 7F 00                              /......         
```

#### Opcodes

```
  0: 0x009E [0x22] ENTITY_HIDE_FLAG(enabled=0x00)
  1: 0x00A0 [0x2F] EventEntity->Render.Flags0 &= ~0x80000 // Bit 19
  2: 0x00A6 [0x00] END_REQSTACK()
```

### Event 65535.11

#### Metadata

| Field        | Value   |
|--------------|---------|
| Entrypoint   | 0x00A7  |
| Data Size    | 9 bytes |
| Instructions | 3       |

```
      00 01 02 03 04 05 06 07  08 09 0A 0B 0C 0D 0E 0F
      -- -- -- -- -- -- -- --  -- -- -- -- -- -- -- --
00A0:                      22  01 2F 01 F8 FF FF 7F 00         "./......
```

#### Opcodes

```
  0: 0x00A7 [0x22] ENTITY_HIDE_FLAG(enabled=0x01)
  1: 0x00A9 [0x2F] EventEntity->Render.Flags0 |= 0x80000 // Bit 19
  2: 0x00AF [0x00] END_REQSTACK()
```

### Event 65535.12

#### Metadata

| Field        | Value    |
|--------------|----------|
| Entrypoint   | 0x00B0   |
| Data Size    | 10 bytes |
| Instructions | 2        |

```
      00 01 02 03 04 05 06 07  08 09 0A 0B 0C 0D 0E 0F
      -- -- -- -- -- -- -- --  -- -- -- -- -- -- -- --
00B0: 6C F8 FF FF 7F 0D 80 07  80 00                    l.........      
```

#### Opcodes

```
  0: 0x00B0 [0x6C] FADE_ENTITY_COLOR(entity_id=EventEntity, end_alpha=0*, fade_time=1*)
  1: 0x00B9 [0x00] END_REQSTACK()
```

### Event 65535.13

#### Metadata

| Field        | Value    |
|--------------|----------|
| Entrypoint   | 0x00BA   |
| Data Size    | 10 bytes |
| Instructions | 2        |

```
      00 01 02 03 04 05 06 07  08 09 0A 0B 0C 0D 0E 0F
      -- -- -- -- -- -- -- --  -- -- -- -- -- -- -- --
00B0:                                6C F8 FF FF 7F 0E            l.....
00C0: 80 07 80 00                                       ....            
```

#### Opcodes

```
  0: 0x00BA [0x6C] FADE_ENTITY_COLOR(entity_id=EventEntity, end_alpha=128*, fade_time=1*)
  1: 0x00C3 [0x00] END_REQSTACK()
```
