# 17175365 - Syu Befrathi

## Common Data

| Field            | Value                              |
|------------------|------------------------------------|
| Zone             | Meriphataud Mountains [S] (ID: 97) |
| Block Size       | 720 bytes                          |
| Total Events     | 28                                 |
| References Count | 49                                 |

## List of Events

| Event ID                   | Entrypoint   |   Size |   Instructions |
|----------------------------|--------------|--------|----------------|
| [65535](#event-65535)      | 0x0000       |      1 |              1 |
| [4](#event-4)              | 0x0001       |      1 |              1 |
| [5](#event-5)              | 0x0002       |      1 |              1 |
| [65535.1](#event-655351)   | 0x0003       |     15 |              5 |
| [65535.2](#event-655352)   | 0x0012       |     20 |              6 |
| [65535.3](#event-655353)   | 0x0026       |      3 |              2 |
| [65535.4](#event-655354)   | 0x0029       |     34 |              8 |
| [65535.5](#event-655355)   | 0x004B       |     20 |              6 |
| [65535.6](#event-655356)   | 0x005F       |     27 |              7 |
| [65535.7](#event-655357)   | 0x007A       |     21 |              2 |
| [65535.8](#event-655358)   | 0x008F       |     21 |              2 |
| [65535.9](#event-655359)   | 0x00A4       |     10 |              2 |
| [65535.10](#event-6553510) | 0x00AE       |     10 |              2 |
| [65535.11](#event-6553511) | 0x00B8       |     10 |              2 |
| [65535.12](#event-6553512) | 0x00C2       |     10 |              2 |
| [65535.13](#event-6553513) | 0x00CC       |      1 |              1 |
| [65535.14](#event-6553514) | 0x00CD       |     18 |              4 |
| [65535.15](#event-6553515) | 0x00DF       |     10 |              2 |
| [65535.16](#event-6553516) | 0x00E9       |      9 |              3 |
| [65535.17](#event-6553517) | 0x00F2       |      9 |              3 |
| [65535.18](#event-6553518) | 0x00FB       |     10 |              2 |
| [65535.19](#event-6553519) | 0x0105       |     10 |              2 |
| [65535.20](#event-6553520) | 0x010F       |     10 |              2 |
| [65535.21](#event-6553521) | 0x0119       |     10 |              2 |
| [65535.22](#event-6553522) | 0x0123       |     21 |              5 |
| [65535.23](#event-6553523) | 0x0138       |     71 |             11 |
| [65535.24](#event-6553524) | 0x017F       |      5 |              2 |
| [65535.25](#event-6553525) | 0x0184       |      5 |              2 |

## DAT References (imed_data)

|   Index | Hex Value   |   Dec Value |
|---------|-------------|-------------|
|       0 | 0x000D      |          13 |
|       1 | 0x62650     |      403024 |
|       2 | 0x118A6     |       71846 |
|       3 | 0xFFFFC37B  |  4294951803 |
|       4 | 0x000E      |          14 |
|       5 | 0x618E0     |      399584 |
|       6 | 0x10E40     |       69184 |
|       7 | 0xFFFFC2A6  |  4294951590 |
|       8 | 0x0028      |          40 |
|       9 | 0xFFFEC7FA  |  4294887418 |
|      10 | 0xA36E      |       41838 |
|      11 | 0xFFFF1390  |  4294906768 |
|      12 | 0xFFFEA80F  |  4294879247 |
|      13 | 0xBE64      |       48740 |
|      14 | 0xFFFF0F79  |  4294905721 |
|      15 | 0xFFFE8A80  |  4294871680 |
|      16 | 0xD9F8      |       55800 |
|      17 | 0xFFFF09DF  |  4294904287 |
|      18 | 0xFFFECB77  |  4294888311 |
|      19 | 0xA2AB      |       41643 |
|      20 | 0xFFFF1395  |  4294906773 |
|      21 | 0xFFFE78B6  |  4294867126 |
|      22 | 0x16D3B     |       93499 |
|      23 | 0xFFFF1B6D  |  4294908781 |
|      24 | 0x000F      |          15 |
|      25 | 0xFFFE786E  |  4294867054 |
|      26 | 0x17695     |       95893 |
|      27 | 0xFFFF1C2F  |  4294908975 |
|      28 | 0x0005      |           5 |
|      29 | 0x001A      |          26 |
|      30 | 0x00DC      |         220 |
|      31 | 0x0131      |         305 |
|      32 | 0x0000      |           0 |
|      33 | 0x001D      |          29 |
|      34 | 0x0003      |           3 |
|      35 | 0x0004      |           4 |
|      36 | 0x0001      |           1 |
|      37 | 0x0080      |         128 |
|      38 | 0x000A      |          10 |
|      39 | 0x603DB     |      394203 |
|      40 | 0x108E0     |       67808 |
|      41 | 0xFFFFC09B  |  4294951067 |
|      42 | 0x0DAC      |        3500 |
|      43 | 0x005A      |          90 |
|      44 | 0x0051      |          81 |
|      45 | 0x0096      |         150 |
|      46 | 0x00B4      |         180 |
|      47 | 0x0054      |          84 |
|      48 | 0x0064      |         100 |

## Events

### Event 65535

#### Metadata

| Field        | Value   |
|--------------|---------|
| Entrypoint   | 0x0000  |
| Data Size    | 1 bytes |
| Instructions | 1       |

```
      00 01 02 03 04 05 06 07  08 09 0A 0B 0C 0D 0E 0F
      -- -- -- -- -- -- -- --  -- -- -- -- -- -- -- --
0000: 00                                                .               
```

#### Opcodes

```
  0: 0x0000 [0x00] END_REQSTACK()
```

### Event 4

#### Metadata

| Field        | Value   |
|--------------|---------|
| Entrypoint   | 0x0001  |
| Data Size    | 1 bytes |
| Instructions | 1       |

```
      00 01 02 03 04 05 06 07  08 09 0A 0B 0C 0D 0E 0F
      -- -- -- -- -- -- -- --  -- -- -- -- -- -- -- --
0000:    00                                              .              
```

#### Opcodes

```
  0: 0x0001 [0x00] END_REQSTACK()
```

### Event 5

#### Metadata

| Field        | Value   |
|--------------|---------|
| Entrypoint   | 0x0002  |
| Data Size    | 1 bytes |
| Instructions | 1       |

```
      00 01 02 03 04 05 06 07  08 09 0A 0B 0C 0D 0E 0F
      -- -- -- -- -- -- -- --  -- -- -- -- -- -- -- --
0000:       00                                            .             
```

#### Opcodes

```
  0: 0x0002 [0x00] END_REQSTACK()
```

### Event 65535.1

#### Metadata

| Field        | Value    |
|--------------|----------|
| Entrypoint   | 0x0003   |
| Data Size    | 15 bytes |
| Instructions | 5        |

```
      00 01 02 03 04 05 06 07  08 09 0A 0B 0C 0D 0E 0F
      -- -- -- -- -- -- -- --  -- -- -- -- -- -- -- --
0000:          32 00 80 1F 00  01 80 02 80 03 80 1F 01     2............
0010: 6F 00                                             o.              
```

#### Opcodes

```
  0: 0x0003 [0x32] ExtData[1]->MainSpeed = 13* * 0.1
  1: 0x0006 [0x1F] MOVE_ENTITY: EventEntity moves to X=403.024*, Z=71.846*, Y=-15.493*
  2: 0x000E [0x1F] MOVE_ENTITY: Update entity position (mode=1)
  3: 0x0010 [0x6F] WAIT_FRAME_DELAY: Yield until WaitTime reaches zero
  4: 0x0011 [0x00] END_REQSTACK()
```

### Event 65535.2

#### Metadata

| Field        | Value    |
|--------------|----------|
| Entrypoint   | 0x0012   |
| Data Size    | 20 bytes |
| Instructions | 6        |

```
      00 01 02 03 04 05 06 07  08 09 0A 0B 0C 0D 0E 0F
      -- -- -- -- -- -- -- --  -- -- -- -- -- -- -- --
0010:       32 04 80 1F 00 05  80 06 80 07 80 1F 01 6F    2............o
0020: 1E 49 13 06 01 00                                 .I....          
```

#### Opcodes

```
  0: 0x0012 [0x32] ExtData[1]->MainSpeed = 14* * 0.1
  1: 0x0015 [0x1F] MOVE_ENTITY: EventEntity moves to X=399.584*, Z=69.184*, Y=-15.706*
  2: 0x001D [0x1F] MOVE_ENTITY: Update entity position (mode=1)
  3: 0x001F [0x6F] WAIT_FRAME_DELAY: Yield until WaitTime reaches zero
  4: 0x0020 [0x1E] EventEntity looks at Romaa Mihgo (ID: 17175369/0x01061349) and starts talking
  5: 0x0025 [0x00] END_REQSTACK()
```

### Event 65535.3

#### Metadata

| Field        | Value   |
|--------------|---------|
| Entrypoint   | 0x0026  |
| Data Size    | 3 bytes |
| Instructions | 2       |

```
      00 01 02 03 04 05 06 07  08 09 0A 0B 0C 0D 0E 0F
      -- -- -- -- -- -- -- --  -- -- -- -- -- -- -- --
0020:                   A4 01  00                             ...       
```

#### Opcodes

```
  0: 0x0026 [0xA4] EventEntity->Flags3.unknown_3_2 = 1
  1: 0x0028 [0x00] END_REQSTACK()
```

### Event 65535.4

#### Metadata

| Field        | Value    |
|--------------|----------|
| Entrypoint   | 0x0029   |
| Data Size    | 34 bytes |
| Instructions | 8        |

```
      00 01 02 03 04 05 06 07  08 09 0A 0B 0C 0D 0E 0F
      -- -- -- -- -- -- -- --  -- -- -- -- -- -- -- --
0020:                             32 08 80 1F 00 09 80           2......
0030: 0A 80 0B 80 1F 01 1F 00  0C 80 0D 80 0E 80 1F 01  ................
0040: 1F 00 0F 80 10 80 11 80  1F 01 00                 ...........     
```

#### Opcodes

```
  0: 0x0029 [0x32] ExtData[1]->MainSpeed = 40* * 0.1
  1: 0x002C [0x1F] MOVE_ENTITY: EventEntity moves to X=-79.878*, Z=41.838*, Y=-60.528*
  2: 0x0034 [0x1F] MOVE_ENTITY: Update entity position (mode=1)
  3: 0x0036 [0x1F] MOVE_ENTITY: EventEntity moves to X=-88.049*, Z=48.740*, Y=-61.575*
  4: 0x003E [0x1F] MOVE_ENTITY: Update entity position (mode=1)
  5: 0x0040 [0x1F] MOVE_ENTITY: EventEntity moves to X=-95.616*, Z=55.800*, Y=-63.009*
  6: 0x0048 [0x1F] MOVE_ENTITY: Update entity position (mode=1)
  7: 0x004A [0x00] END_REQSTACK()
```

### Event 65535.5

#### Metadata

| Field        | Value    |
|--------------|----------|
| Entrypoint   | 0x004B   |
| Data Size    | 20 bytes |
| Instructions | 6        |

```
      00 01 02 03 04 05 06 07  08 09 0A 0B 0C 0D 0E 0F
      -- -- -- -- -- -- -- --  -- -- -- -- -- -- -- --
0040:                                   32 00 80 1F 00             2....
0050: 12 80 13 80 14 80 1F 01  6F 1E F0 FF FF 7F 00     ........o...... 
```

#### Opcodes

```
  0: 0x004B [0x32] ExtData[1]->MainSpeed = 13* * 0.1
  1: 0x004E [0x1F] MOVE_ENTITY: EventEntity moves to X=-78.985*, Z=41.643*, Y=-60.523*
  2: 0x0056 [0x1F] MOVE_ENTITY: Update entity position (mode=1)
  3: 0x0058 [0x6F] WAIT_FRAME_DELAY: Yield until WaitTime reaches zero
  4: 0x0059 [0x1E] EventEntity looks at LocalPlayer and starts talking
  5: 0x005E [0x00] END_REQSTACK()
```

### Event 65535.6

#### Metadata

| Field        | Value    |
|--------------|----------|
| Entrypoint   | 0x005F   |
| Data Size    | 27 bytes |
| Instructions | 7        |

```
      00 01 02 03 04 05 06 07  08 09 0A 0B 0C 0D 0E 0F
      -- -- -- -- -- -- -- --  -- -- -- -- -- -- -- --
0050:                                               32                 2
0060: 08 80 5A 00 15 80 16 80  17 80 5A 01 32 18 80 5A  ..Z.......Z.2..Z
0070: 00 19 80 1A 80 1B 80 5A  01 00                    .......Z..      
```

#### Opcodes

```
  0: 0x005F [0x32] ExtData[1]->MainSpeed = 40* * 0.1
  1: 0x0062 [0x5A] UPDATE_EVENT_POSITION: Set EventEntity MovePosition to X=-100.170*, Z=93.499*, Y=-58.515*
  2: 0x006A [0x5A] UPDATE_EVENT_POSITION: Move EventEntity incrementally towards MovePosition
  3: 0x006C [0x32] ExtData[1]->MainSpeed = 15* * 0.1
  4: 0x006F [0x5A] UPDATE_EVENT_POSITION: Set EventEntity MovePosition to X=-100.242*, Z=95.893*, Y=-58.321*
  5: 0x0077 [0x5A] UPDATE_EVENT_POSITION: Move EventEntity incrementally towards MovePosition
  6: 0x0079 [0x00] END_REQSTACK()
```

### Event 65535.7

#### Metadata

| Field        | Value    |
|--------------|----------|
| Entrypoint   | 0x007A   |
| Data Size    | 21 bytes |
| Instructions | 2        |

```
      00 01 02 03 04 05 06 07  08 09 0A 0B 0C 0D 0E 0F
      -- -- -- -- -- -- -- --  -- -- -- -- -- -- -- --
0070:                                B6 0B 1C 80 1D 80            ......
0080: 1E 80 1E 80 1E 80 1E 80  1E 80 1F 80 20 80 00     ............ .. 
```

#### Opcodes

```
  0: 0x007A [0xB6] ENTITY_APPEARANCE_HANDLER(case=Full entity look, race=5*, hair=26*, head=220*, body=220*, hands=220*, legs=220*, feet=220*, main=305*, sub=0*)
  1: 0x008E [0x00] END_REQSTACK()
```

### Event 65535.8

#### Metadata

| Field        | Value    |
|--------------|----------|
| Entrypoint   | 0x008F   |
| Data Size    | 21 bytes |
| Instructions | 2        |

```
      00 01 02 03 04 05 06 07  08 09 0A 0B 0C 0D 0E 0F
      -- -- -- -- -- -- -- --  -- -- -- -- -- -- -- --
0080:                                               B6                 .
0090: 0B 21 80 22 80 20 80 23  80 20 80 20 80 22 80 22  .!.". .#. . ."."
00A0: 80 22 80 00                                       ."..            
```

#### Opcodes

```
  0: 0x008F [0xB6] ENTITY_APPEARANCE_HANDLER(case=Full entity look, race=29*, hair=3*, head=0*, body=4*, hands=0*, legs=0*, feet=3*, main=3*, sub=3*)
  1: 0x00A3 [0x00] END_REQSTACK()
```

### Event 65535.9

#### Metadata

| Field        | Value    |
|--------------|----------|
| Entrypoint   | 0x00A4   |
| Data Size    | 10 bytes |
| Instructions | 2        |

```
      00 01 02 03 04 05 06 07  08 09 0A 0B 0C 0D 0E 0F
      -- -- -- -- -- -- -- --  -- -- -- -- -- -- -- --
00A0:             6C F8 FF FF  7F 20 80 24 80 00            l.... .$..  
```

#### Opcodes

```
  0: 0x00A4 [0x6C] FADE_ENTITY_COLOR(entity_id=EventEntity, end_alpha=0*, fade_time=1*)
  1: 0x00AD [0x00] END_REQSTACK()
```

### Event 65535.10

#### Metadata

| Field        | Value    |
|--------------|----------|
| Entrypoint   | 0x00AE   |
| Data Size    | 10 bytes |
| Instructions | 2        |

```
      00 01 02 03 04 05 06 07  08 09 0A 0B 0C 0D 0E 0F
      -- -- -- -- -- -- -- --  -- -- -- -- -- -- -- --
00A0:                                            6C F8                l.
00B0: FF FF 7F 25 80 24 80 00                           ...%.$..        
```

#### Opcodes

```
  0: 0x00AE [0x6C] FADE_ENTITY_COLOR(entity_id=EventEntity, end_alpha=128*, fade_time=1*)
  1: 0x00B7 [0x00] END_REQSTACK()
```

### Event 65535.11

#### Metadata

| Field        | Value    |
|--------------|----------|
| Entrypoint   | 0x00B8   |
| Data Size    | 10 bytes |
| Instructions | 2        |

```
      00 01 02 03 04 05 06 07  08 09 0A 0B 0C 0D 0E 0F
      -- -- -- -- -- -- -- --  -- -- -- -- -- -- -- --
00B0:                          6C F8 FF FF 7F 20 80 02          l.... ..
00C0: 10 00                                             ..              
```

#### Opcodes

```
  0: 0x00B8 [0x6C] FADE_ENTITY_COLOR(entity_id=EventEntity, end_alpha=0*, fade_time=Work_Zone[2])
  1: 0x00C1 [0x00] END_REQSTACK()
```

### Event 65535.12

#### Metadata

| Field        | Value    |
|--------------|----------|
| Entrypoint   | 0x00C2   |
| Data Size    | 10 bytes |
| Instructions | 2        |

```
      00 01 02 03 04 05 06 07  08 09 0A 0B 0C 0D 0E 0F
      -- -- -- -- -- -- -- --  -- -- -- -- -- -- -- --
00C0:       6C F8 FF FF 7F 25  80 02 10 00                l....%....    
```

#### Opcodes

```
  0: 0x00C2 [0x6C] FADE_ENTITY_COLOR(entity_id=EventEntity, end_alpha=128*, fade_time=Work_Zone[2])
  1: 0x00CB [0x00] END_REQSTACK()
```

### Event 65535.13

#### Metadata

| Field        | Value   |
|--------------|---------|
| Entrypoint   | 0x00CC  |
| Data Size    | 1 bytes |
| Instructions | 1       |

```
      00 01 02 03 04 05 06 07  08 09 0A 0B 0C 0D 0E 0F
      -- -- -- -- -- -- -- --  -- -- -- -- -- -- -- --
00C0:                                      00                       .   
```

#### Opcodes

```
  0: 0x00CC [0x00] END_REQSTACK()
```

### Event 65535.14

#### Metadata

| Field        | Value    |
|--------------|----------|
| Entrypoint   | 0x00CD   |
| Data Size    | 18 bytes |
| Instructions | 4        |

```
      00 01 02 03 04 05 06 07  08 09 0A 0B 0C 0D 0E 0F
      -- -- -- -- -- -- -- --  -- -- -- -- -- -- -- --
00C0:                                         22 00 2F               "./
00D0: 00 F8 FF FF 7F 6C F8 FF  FF 7F 20 80 24 80 00     .....l.... .$.. 
```

#### Opcodes

```
  0: 0x00CD [0x22] ENTITY_HIDE_FLAG(enabled=0x00)
  1: 0x00CF [0x2F] EventEntity->Render.Flags0 &= ~0x80000 // Bit 19
  2: 0x00D5 [0x6C] FADE_ENTITY_COLOR(entity_id=EventEntity, end_alpha=0*, fade_time=1*)
  3: 0x00DE [0x00] END_REQSTACK()
```

### Event 65535.15

#### Metadata

| Field        | Value    |
|--------------|----------|
| Entrypoint   | 0x00DF   |
| Data Size    | 10 bytes |
| Instructions | 2        |

```
      00 01 02 03 04 05 06 07  08 09 0A 0B 0C 0D 0E 0F
      -- -- -- -- -- -- -- --  -- -- -- -- -- -- -- --
00D0:                                               6C                 l
00E0: F8 FF FF 7F 25 80 24 80  00                       ....%.$..       
```

#### Opcodes

```
  0: 0x00DF [0x6C] FADE_ENTITY_COLOR(entity_id=EventEntity, end_alpha=128*, fade_time=1*)
  1: 0x00E8 [0x00] END_REQSTACK()
```

### Event 65535.16

#### Metadata

| Field        | Value   |
|--------------|---------|
| Entrypoint   | 0x00E9  |
| Data Size    | 9 bytes |
| Instructions | 3       |

```
      00 01 02 03 04 05 06 07  08 09 0A 0B 0C 0D 0E 0F
      -- -- -- -- -- -- -- --  -- -- -- -- -- -- -- --
00E0:                             22 00 2F 00 F8 FF FF           "./....
00F0: 7F 00                                             ..              
```

#### Opcodes

```
  0: 0x00E9 [0x22] ENTITY_HIDE_FLAG(enabled=0x00)
  1: 0x00EB [0x2F] EventEntity->Render.Flags0 &= ~0x80000 // Bit 19
  2: 0x00F1 [0x00] END_REQSTACK()
```

### Event 65535.17

#### Metadata

| Field        | Value   |
|--------------|---------|
| Entrypoint   | 0x00F2  |
| Data Size    | 9 bytes |
| Instructions | 3       |

```
      00 01 02 03 04 05 06 07  08 09 0A 0B 0C 0D 0E 0F
      -- -- -- -- -- -- -- --  -- -- -- -- -- -- -- --
00F0:       22 01 2F 01 F8 FF  FF 7F 00                   "./......     
```

#### Opcodes

```
  0: 0x00F2 [0x22] ENTITY_HIDE_FLAG(enabled=0x01)
  1: 0x00F4 [0x2F] EventEntity->Render.Flags0 |= 0x80000 // Bit 19
  2: 0x00FA [0x00] END_REQSTACK()
```

### Event 65535.18

#### Metadata

| Field        | Value    |
|--------------|----------|
| Entrypoint   | 0x00FB   |
| Data Size    | 10 bytes |
| Instructions | 2        |

```
      00 01 02 03 04 05 06 07  08 09 0A 0B 0C 0D 0E 0F
      -- -- -- -- -- -- -- --  -- -- -- -- -- -- -- --
00F0:                                   6C F8 FF FF 7F             l....
0100: 20 80 24 80 00                                     .$..           
```

#### Opcodes

```
  0: 0x00FB [0x6C] FADE_ENTITY_COLOR(entity_id=EventEntity, end_alpha=0*, fade_time=1*)
  1: 0x0104 [0x00] END_REQSTACK()
```

### Event 65535.19

#### Metadata

| Field        | Value    |
|--------------|----------|
| Entrypoint   | 0x0105   |
| Data Size    | 10 bytes |
| Instructions | 2        |

```
      00 01 02 03 04 05 06 07  08 09 0A 0B 0C 0D 0E 0F
      -- -- -- -- -- -- -- --  -- -- -- -- -- -- -- --
0100:                6C F8 FF  FF 7F 25 80 24 80 00          l....%.$.. 
```

#### Opcodes

```
  0: 0x0105 [0x6C] FADE_ENTITY_COLOR(entity_id=EventEntity, end_alpha=128*, fade_time=1*)
  1: 0x010E [0x00] END_REQSTACK()
```

### Event 65535.20

#### Metadata

| Field        | Value    |
|--------------|----------|
| Entrypoint   | 0x010F   |
| Data Size    | 10 bytes |
| Instructions | 2        |

```
      00 01 02 03 04 05 06 07  08 09 0A 0B 0C 0D 0E 0F
      -- -- -- -- -- -- -- --  -- -- -- -- -- -- -- --
0100:                                               6C                 l
0110: 45 13 06 01 20 80 24 80  00                       E... .$..       
```

#### Opcodes

```
  0: 0x010F [0x6C] FADE_ENTITY_COLOR(entity_id=Syu Befrathi (ID: 17175365/0x01061345), end_alpha=0*, fade_time=1*)
  1: 0x0118 [0x00] END_REQSTACK()
```

### Event 65535.21

#### Metadata

| Field        | Value    |
|--------------|----------|
| Entrypoint   | 0x0119   |
| Data Size    | 10 bytes |
| Instructions | 2        |

```
      00 01 02 03 04 05 06 07  08 09 0A 0B 0C 0D 0E 0F
      -- -- -- -- -- -- -- --  -- -- -- -- -- -- -- --
0110:                             6C 45 13 06 01 25 80           lE...%.
0120: 24 80 00                                          $..             
```

#### Opcodes

```
  0: 0x0119 [0x6C] FADE_ENTITY_COLOR(entity_id=Syu Befrathi (ID: 17175365/0x01061345), end_alpha=128*, fade_time=1*)
  1: 0x0122 [0x00] END_REQSTACK()
```

### Event 65535.22

#### Metadata

| Field        | Value    |
|--------------|----------|
| Entrypoint   | 0x0123   |
| Data Size    | 21 bytes |
| Instructions | 5        |

```
      00 01 02 03 04 05 06 07  08 09 0A 0B 0C 0D 0E 0F
      -- -- -- -- -- -- -- --  -- -- -- -- -- -- -- --
0120:          32 26 80 1F 00  27 80 28 80 29 80 1F 01     2&...'.(.)...
0130: 4B 45 13 06 01 2A 80 00                           KE...*..        
```

#### Opcodes

```
  0: 0x0123 [0x32] ExtData[1]->MainSpeed = 10* * 0.1
  1: 0x0126 [0x1F] MOVE_ENTITY: EventEntity moves to X=394.203*, Z=67.808*, Y=-16.229*
  2: 0x012E [0x1F] MOVE_ENTITY: Update entity position (mode=1)
  3: 0x0130 [0x4B] UPDATE_ENTITY_YAW(entity=Syu Befrathi (ID: 17175365/0x01061345), yaw=19.2°*)
  4: 0x0137 [0x00] END_REQSTACK()
```

### Event 65535.23

#### Metadata

| Field        | Value    |
|--------------|----------|
| Entrypoint   | 0x0138   |
| Data Size    | 71 bytes |
| Instructions | 11       |

```
      00 01 02 03 04 05 06 07  08 09 0A 0B 0C 0D 0E 0F
      -- -- -- -- -- -- -- --  -- -- -- -- -- -- -- --
0130:                          1C 2B 80 1E 54 13 06 01          .+..T...
0140: 1C 2B 80 5B 2C 80 45 13  06 01 45 13 06 01 68 61  .+.[,.E...E...ha
0150: 69 30 1C 2D 80 1E 51 13  06 01 1C 2B 80 5B 2C 80  i0.-..Q....+.[,.
0160: 45 13 06 01 45 13 06 01  68 61 69 30 1C 2E 80 5B  E...E...hai0...[
0170: 2F 80 45 13 06 01 45 13  06 01 6B 69 73 69 00     /.E...E...kisi. 
```

#### Opcodes

```
  0: 0x0138 [0x1C] WAIT(90* ticks)
  1: 0x013B [0x1E] EventEntity looks at Etoh Tanghari (ID: 17175380/0x01061354) and starts talking
  2: 0x0140 [0x1C] WAIT(90* ticks)
  3: 0x0143 [0x5B] LOAD_EXT_SCHEDULER: Load scheduler "hai0" with entities [Syu Befrathi (ID: 17175365/0x01061345), Syu Befrathi (ID: 17175365/0x01061345)], work=81*
  4: 0x0152 [0x1C] WAIT(150* ticks)
  5: 0x0155 [0x1E] EventEntity looks at Unnamed NPC (ID: 17175377/0x01061351) and starts talking
  6: 0x015A [0x1C] WAIT(90* ticks)
  7: 0x015D [0x5B] LOAD_EXT_SCHEDULER: Load scheduler "hai0" with entities [Syu Befrathi (ID: 17175365/0x01061345), Syu Befrathi (ID: 17175365/0x01061345)], work=81*
  8: 0x016C [0x1C] WAIT(180* ticks)
  9: 0x016F [0x5B] LOAD_EXT_SCHEDULER: Load scheduler "kisi" with entities [Syu Befrathi (ID: 17175365/0x01061345), Syu Befrathi (ID: 17175365/0x01061345)], work=84*
 10: 0x017E [0x00] END_REQSTACK()
```

### Event 65535.24

#### Metadata

| Field        | Value   |
|--------------|---------|
| Entrypoint   | 0x017F  |
| Data Size    | 5 bytes |
| Instructions | 2       |

```
      00 01 02 03 04 05 06 07  08 09 0A 0B 0C 0D 0E 0F
      -- -- -- -- -- -- -- --  -- -- -- -- -- -- -- --
0170:                                               B6                 .
0180: 0F 2B 80 00                                       .+..            
```

#### Opcodes

```
  0: 0x017F [0xB6] ENTITY_APPEARANCE_HANDLER(case=Model size, value=90*)
  1: 0x0183 [0x00] END_REQSTACK()
```

### Event 65535.25

#### Metadata

| Field        | Value   |
|--------------|---------|
| Entrypoint   | 0x0184  |
| Data Size    | 5 bytes |
| Instructions | 2       |

```
      00 01 02 03 04 05 06 07  08 09 0A 0B 0C 0D 0E 0F
      -- -- -- -- -- -- -- --  -- -- -- -- -- -- -- --
0180:             B6 0F 30 80  00                           ..0..       
```

#### Opcodes

```
  0: 0x0184 [0xB6] ENTITY_APPEARANCE_HANDLER(case=Model size, value=100*)
  1: 0x0188 [0x00] END_REQSTACK()
```
