# 17175352

## Common Data

| Field            | Value                              |
|------------------|------------------------------------|
| Zone             | Meriphataud Mountains [S] (ID: 97) |
| Block Size       | 660 bytes                          |
| Total Events     | 7                                  |
| References Count | 24                                 |

## List of Events

| Event ID                 | Entrypoint   |   Size |   Instructions |
|--------------------------|--------------|--------|----------------|
| [65535](#event-65535)    | 0x0000       |      1 |              1 |
| [105](#event-105)        | 0x0001       |      1 |              1 |
| [65535.1](#event-655351) | 0x0002       |    393 |             52 |
| [65535.2](#event-655352) | 0x018B       |     32 |              9 |
| [65535.3](#event-655353) | 0x01AB       |     30 |              9 |
| [65535.4](#event-655354) | 0x01C9       |     30 |              9 |
| [65535.5](#event-655355) | 0x01E7       |     32 |              4 |

## DAT References (imed_data)

|   Index | Hex Value   |   Dec Value |
|---------|-------------|-------------|
|       0 | 0x0028      |          40 |
|       1 | 0x14B40     |       84800 |
|       2 | 0x64C8      |       25800 |
|       3 | 0x196E      |        6510 |
|       4 | 0x0185      |         389 |
|       5 | 0x0000      |           0 |
|       6 | 0x0014      |          20 |
|       7 | 0x14CC8     |       85192 |
|       8 | 0x6759      |       26457 |
|       9 | 0x001E      |          30 |
|      10 | 0x88B3D     |      559933 |
|      11 | 0x8DD7E     |      580990 |
|      12 | 0xFFFF86B6  |  4294936246 |
|      13 | 0x0025      |          37 |
|      14 | 0x73C75     |      474229 |
|      15 | 0x00D0      |         208 |
|      16 | 0xFFFF62F9  |  4294927097 |
|      17 | 0x07BA      |        1978 |
|      18 | 0x0026      |          38 |
|      19 | 0x754E9     |      480489 |
|      20 | 0x03D7      |         983 |
|      21 | 0x0F6E      |        3950 |
|      22 | 0x003C      |          60 |
|      23 | 0x086B      |        2155 |

## Events

### Event 65535

#### Metadata

| Field        | Value   |
|--------------|---------|
| Entrypoint   | 0x0000  |
| Data Size    | 1 bytes |
| Instructions | 1       |

```
      00 01 02 03 04 05 06 07  08 09 0A 0B 0C 0D 0E 0F
      -- -- -- -- -- -- -- --  -- -- -- -- -- -- -- --
0000: 00                                                .               
```

#### Opcodes

```
  0: 0x0000 [0x00] END_REQSTACK()
```

### Event 105

#### Metadata

| Field        | Value   |
|--------------|---------|
| Entrypoint   | 0x0001  |
| Data Size    | 1 bytes |
| Instructions | 1       |

```
      00 01 02 03 04 05 06 07  08 09 0A 0B 0C 0D 0E 0F
      -- -- -- -- -- -- -- --  -- -- -- -- -- -- -- --
0000:    00                                              .              
```

#### Opcodes

```
  0: 0x0001 [0x00] END_REQSTACK()
```

### Event 65535.1

#### Metadata

| Field        | Value     |
|--------------|-----------|
| Entrypoint   | 0x0002    |
| Data Size    | 393 bytes |
| Instructions | 52        |

```
      00 01 02 03 04 05 06 07  08 09 0A 0B 0C 0D 0E 0F
      -- -- -- -- -- -- -- --  -- -- -- -- -- -- -- --
0000:       61 01 32 00 80 1F  00 01 80 02 80 03 80 1F    a.2...........
0010: 01 45 04 80 38 13 06 01  38 13 06 01 62 73 68 30  .E..8...8...bsh0
0020: 05 80 4A F8 FF FF 7F 33  13 06 01 1C 06 80 1F 00  ..J....3........
0030: 07 80 08 80 03 80 1F 01  45 04 80 38 13 06 01 38  ........E..8...8
0040: 13 06 01 62 73 68 30 05  80 4A F8 FF FF 7F 33 13  ...bsh0..J....3.
0050: 06 01 1C 06 80 1F 00 01  80 02 80 03 80 1F 01 45  ...............E
0060: 04 80 38 13 06 01 38 13  06 01 62 73 68 30 05 80  ..8...8...bsh0..
0070: 4A F8 FF FF 7F 33 13 06  01 1C 06 80 1F 00 07 80  J....3..........
0080: 08 80 03 80 1F 01 45 04  80 38 13 06 01 38 13 06  ......E..8...8..
0090: 01 62 73 68 30 05 80 4A  F8 FF FF 7F 33 13 06 01  .bsh0..J....3...
00A0: 1C 06 80 1F 00 01 80 02  80 03 80 1F 01 45 04 80  .............E..
00B0: 38 13 06 01 38 13 06 01  62 73 68 30 05 80 4A F8  8...8...bsh0..J.
00C0: FF FF 7F 33 13 06 01 1C  06 80 1F 00 07 80 08 80  ...3............
00D0: 03 80 1F 01 45 04 80 38  13 06 01 38 13 06 01 62  ....E..8...8...b
00E0: 73 68 30 05 80 4A F8 FF  FF 7F 33 13 06 01 1C 06  sh0..J....3.....
00F0: 80 1F 00 01 80 02 80 03  80 1F 01 45 04 80 38 13  ...........E..8.
0100: 06 01 38 13 06 01 62 73  68 30 05 80 4A F8 FF FF  ..8...bsh0..J...
0110: 7F 33 13 06 01 1C 06 80  1F 00 07 80 08 80 03 80  .3..............
0120: 1F 01 45 04 80 38 13 06  01 38 13 06 01 62 73 68  ..E..8...8...bsh
0130: 30 05 80 4A F8 FF FF 7F  33 13 06 01 1C 06 80 1F  0..J....3.......
0140: 00 01 80 02 80 03 80 1F  01 45 04 80 38 13 06 01  .........E..8...
0150: 38 13 06 01 62 73 68 30  05 80 4A F8 FF FF 7F 33  8...bsh0..J....3
0160: 13 06 01 1C 06 80 1F 00  07 80 08 80 03 80 1F 01  ................
0170: 45 04 80 38 13 06 01 38  13 06 01 62 73 68 30 05  E..8...8...bsh0.
0180: 80 4A F8 FF FF 7F 33 13  06 01 00                 .J....3....     
```

#### Opcodes

```
  0: 0x0002 [0x61] EventEntity->Render.Flags2 |= 0x00000001
  1: 0x0004 [0x32] ExtData[1]->MainSpeed = 40* * 0.1
  2: 0x0007 [0x1F] MOVE_ENTITY: EventEntity moves to X=84.800*, Z=25.800*, Y=6.510*
  3: 0x000F [0x1F] MOVE_ENTITY: Update entity position (mode=1)
  4: 0x0011 [0x45] LOAD_SCHEDULED_TASK: Load scheduler "bsh0" with entities [Unnamed NPC (ID: 17175352/0x01061338), Unnamed NPC (ID: 17175352/0x01061338)], work=[389*, 0*]
  5: 0x0022 [0x4A] EventEntity looks at Babban Ny Mheillea (ID: 17175347/0x01061333)
  6: 0x002B [0x1C] WAIT(20* ticks)
  7: 0x002E [0x1F] MOVE_ENTITY: EventEntity moves to X=85.192*, Z=26.457*, Y=6.510*
  8: 0x0036 [0x1F] MOVE_ENTITY: Update entity position (mode=1)
  9: 0x0038 [0x45] LOAD_SCHEDULED_TASK: Load scheduler "bsh0" with entities [Unnamed NPC (ID: 17175352/0x01061338), Unnamed NPC (ID: 17175352/0x01061338)], work=[389*, 0*]
 10: 0x0049 [0x4A] EventEntity looks at Babban Ny Mheillea (ID: 17175347/0x01061333)
 11: 0x0052 [0x1C] WAIT(20* ticks)
 12: 0x0055 [0x1F] MOVE_ENTITY: EventEntity moves to X=84.800*, Z=25.800*, Y=6.510*
 13: 0x005D [0x1F] MOVE_ENTITY: Update entity position (mode=1)
 14: 0x005F [0x45] LOAD_SCHEDULED_TASK: Load scheduler "bsh0" with entities [Unnamed NPC (ID: 17175352/0x01061338), Unnamed NPC (ID: 17175352/0x01061338)], work=[389*, 0*]
 15: 0x0070 [0x4A] EventEntity looks at Babban Ny Mheillea (ID: 17175347/0x01061333)
 16: 0x0079 [0x1C] WAIT(20* ticks)
 17: 0x007C [0x1F] MOVE_ENTITY: EventEntity moves to X=85.192*, Z=26.457*, Y=6.510*
 18: 0x0084 [0x1F] MOVE_ENTITY: Update entity position (mode=1)
 19: 0x0086 [0x45] LOAD_SCHEDULED_TASK: Load scheduler "bsh0" with entities [Unnamed NPC (ID: 17175352/0x01061338), Unnamed NPC (ID: 17175352/0x01061338)], work=[389*, 0*]
 20: 0x0097 [0x4A] EventEntity looks at Babban Ny Mheillea (ID: 17175347/0x01061333)
 21: 0x00A0 [0x1C] WAIT(20* ticks)
 22: 0x00A3 [0x1F] MOVE_ENTITY: EventEntity moves to X=84.800*, Z=25.800*, Y=6.510*
 23: 0x00AB [0x1F] MOVE_ENTITY: Update entity position (mode=1)
 24: 0x00AD [0x45] LOAD_SCHEDULED_TASK: Load scheduler "bsh0" with entities [Unnamed NPC (ID: 17175352/0x01061338), Unnamed NPC (ID: 17175352/0x01061338)], work=[389*, 0*]
 25: 0x00BE [0x4A] EventEntity looks at Babban Ny Mheillea (ID: 17175347/0x01061333)
 26: 0x00C7 [0x1C] WAIT(20* ticks)
 27: 0x00CA [0x1F] MOVE_ENTITY: EventEntity moves to X=85.192*, Z=26.457*, Y=6.510*
 28: 0x00D2 [0x1F] MOVE_ENTITY: Update entity position (mode=1)
 29: 0x00D4 [0x45] LOAD_SCHEDULED_TASK: Load scheduler "bsh0" with entities [Unnamed NPC (ID: 17175352/0x01061338), Unnamed NPC (ID: 17175352/0x01061338)], work=[389*, 0*]
 30: 0x00E5 [0x4A] EventEntity looks at Babban Ny Mheillea (ID: 17175347/0x01061333)
 31: 0x00EE [0x1C] WAIT(20* ticks)
 32: 0x00F1 [0x1F] MOVE_ENTITY: EventEntity moves to X=84.800*, Z=25.800*, Y=6.510*
 33: 0x00F9 [0x1F] MOVE_ENTITY: Update entity position (mode=1)
 34: 0x00FB [0x45] LOAD_SCHEDULED_TASK: Load scheduler "bsh0" with entities [Unnamed NPC (ID: 17175352/0x01061338), Unnamed NPC (ID: 17175352/0x01061338)], work=[389*, 0*]
 35: 0x010C [0x4A] EventEntity looks at Babban Ny Mheillea (ID: 17175347/0x01061333)
 36: 0x0115 [0x1C] WAIT(20* ticks)
 37: 0x0118 [0x1F] MOVE_ENTITY: EventEntity moves to X=85.192*, Z=26.457*, Y=6.510*
 38: 0x0120 [0x1F] MOVE_ENTITY: Update entity position (mode=1)
 39: 0x0122 [0x45] LOAD_SCHEDULED_TASK: Load scheduler "bsh0" with entities [Unnamed NPC (ID: 17175352/0x01061338), Unnamed NPC (ID: 17175352/0x01061338)], work=[389*, 0*]
 40: 0x0133 [0x4A] EventEntity looks at Babban Ny Mheillea (ID: 17175347/0x01061333)
 41: 0x013C [0x1C] WAIT(20* ticks)
 42: 0x013F [0x1F] MOVE_ENTITY: EventEntity moves to X=84.800*, Z=25.800*, Y=6.510*
 43: 0x0147 [0x1F] MOVE_ENTITY: Update entity position (mode=1)
 44: 0x0149 [0x45] LOAD_SCHEDULED_TASK: Load scheduler "bsh0" with entities [Unnamed NPC (ID: 17175352/0x01061338), Unnamed NPC (ID: 17175352/0x01061338)], work=[389*, 0*]
 45: 0x015A [0x4A] EventEntity looks at Babban Ny Mheillea (ID: 17175347/0x01061333)
 46: 0x0163 [0x1C] WAIT(20* ticks)
 47: 0x0166 [0x1F] MOVE_ENTITY: EventEntity moves to X=85.192*, Z=26.457*, Y=6.510*
 48: 0x016E [0x1F] MOVE_ENTITY: Update entity position (mode=1)
 49: 0x0170 [0x45] LOAD_SCHEDULED_TASK: Load scheduler "bsh0" with entities [Unnamed NPC (ID: 17175352/0x01061338), Unnamed NPC (ID: 17175352/0x01061338)], work=[389*, 0*]
 50: 0x0181 [0x4A] EventEntity looks at Babban Ny Mheillea (ID: 17175347/0x01061333)
 51: 0x018A [0x00] END_REQSTACK()
```

### Event 65535.2

#### Metadata

| Field        | Value    |
|--------------|----------|
| Entrypoint   | 0x018B   |
| Data Size    | 32 bytes |
| Instructions | 9        |

```
      00 01 02 03 04 05 06 07  08 09 0A 0B 0C 0D 0E 0F
      -- -- -- -- -- -- -- --  -- -- -- -- -- -- -- --
0180:                                   61 00 32 09 80             a.2..
0190: 1F 00 0A 80 0B 80 0C 80  1F 01 6F 4A F8 FF FF 7F  ..........oJ....
01A0: 33 13 06 01 6F 76 F8 FF  FF 7F 00                 3...ov.....     
```

#### Opcodes

```
  0: 0x018B [0x61] EventEntity->Render.Flags2 &= ~0x00000001
  1: 0x018D [0x32] ExtData[1]->MainSpeed = 30* * 0.1
  2: 0x0190 [0x1F] MOVE_ENTITY: EventEntity moves to X=559.933*, Z=580.990*, Y=-31.050*
  3: 0x0198 [0x1F] MOVE_ENTITY: Update entity position (mode=1)
  4: 0x019A [0x6F] WAIT_FRAME_DELAY: Yield until WaitTime reaches zero
  5: 0x019B [0x4A] EventEntity looks at Babban Ny Mheillea (ID: 17175347/0x01061333)
  6: 0x01A4 [0x6F] WAIT_FRAME_DELAY: Yield until WaitTime reaches zero
  7: 0x01A5 [0x76] CHECK_ENTITY_RENDER_FLAGS: Wait until EventEntity Render.Flags0 and Render.Flags3 conditions are met
  8: 0x01AA [0x00] END_REQSTACK()
```

### Event 65535.3

#### Metadata

| Field        | Value    |
|--------------|----------|
| Entrypoint   | 0x01AB   |
| Data Size    | 30 bytes |
| Instructions | 9        |

```
      00 01 02 03 04 05 06 07  08 09 0A 0B 0C 0D 0E 0F
      -- -- -- -- -- -- -- --  -- -- -- -- -- -- -- --
01A0:                                   61 00 32 0D 80             a.2..
01B0: 1F 00 0E 80 0F 80 10 80  1F 01 6F 4B F8 FF FF 7F  ..........oK....
01C0: 11 80 6F 76 F8 FF FF 7F  00                       ..ov.....       
```

#### Opcodes

```
  0: 0x01AB [0x61] EventEntity->Render.Flags2 &= ~0x00000001
  1: 0x01AD [0x32] ExtData[1]->MainSpeed = 37* * 0.1
  2: 0x01B0 [0x1F] MOVE_ENTITY: EventEntity moves to X=474.229*, Z=0.208*, Y=-40.199*
  3: 0x01B8 [0x1F] MOVE_ENTITY: Update entity position (mode=1)
  4: 0x01BA [0x6F] WAIT_FRAME_DELAY: Yield until WaitTime reaches zero
  5: 0x01BB [0x4B] UPDATE_ENTITY_YAW(entity=EventEntity, yaw=10.9°*)
  6: 0x01C2 [0x6F] WAIT_FRAME_DELAY: Yield until WaitTime reaches zero
  7: 0x01C3 [0x76] CHECK_ENTITY_RENDER_FLAGS: Wait until EventEntity Render.Flags0 and Render.Flags3 conditions are met
  8: 0x01C8 [0x00] END_REQSTACK()
```

### Event 65535.4

#### Metadata

| Field        | Value    |
|--------------|----------|
| Entrypoint   | 0x01C9   |
| Data Size    | 30 bytes |
| Instructions | 9        |

```
      00 01 02 03 04 05 06 07  08 09 0A 0B 0C 0D 0E 0F
      -- -- -- -- -- -- -- --  -- -- -- -- -- -- -- --
01C0:                             33 01 32 12 80 1F 00           3.2....
01D0: 13 80 14 80 10 80 1F 01  6F 4B F8 FF FF 7F 15 80  ........oK......
01E0: 6F 76 F8 FF FF 7F 00                              ov.....         
```

#### Opcodes

```
  0: 0x01C9 [0x33] EventEntity->Render.Flags0 |= 0x200000 // Bit 21 (flag=0x01)
  1: 0x01CB [0x32] ExtData[1]->MainSpeed = 38* * 0.1
  2: 0x01CE [0x1F] MOVE_ENTITY: EventEntity moves to X=480.489*, Z=0.983*, Y=-40.199*
  3: 0x01D6 [0x1F] MOVE_ENTITY: Update entity position (mode=1)
  4: 0x01D8 [0x6F] WAIT_FRAME_DELAY: Yield until WaitTime reaches zero
  5: 0x01D9 [0x4B] UPDATE_ENTITY_YAW(entity=EventEntity, yaw=21.7°*)
  6: 0x01E0 [0x6F] WAIT_FRAME_DELAY: Yield until WaitTime reaches zero
  7: 0x01E1 [0x76] CHECK_ENTITY_RENDER_FLAGS: Wait until EventEntity Render.Flags0 and Render.Flags3 conditions are met
  8: 0x01E6 [0x00] END_REQSTACK()
```

### Event 65535.5

#### Metadata

| Field        | Value    |
|--------------|----------|
| Entrypoint   | 0x01E7   |
| Data Size    | 32 bytes |
| Instructions | 4        |

```
      00 01 02 03 04 05 06 07  08 09 0A 0B 0C 0D 0E 0F
      -- -- -- -- -- -- -- --  -- -- -- -- -- -- -- --
01E0:                      1C  16 80 5B 17 80 38 13 06         ...[..8..
01F0: 01 38 13 06 01 6B 6D 69  30 53 38 13 06 01 38 13  .8...kmi0S8...8.
0200: 06 01 6B 6D 69 30 00                              ..kmi0.         
```

#### Opcodes

```
  0: 0x01E7 [0x1C] WAIT(60* ticks)
  1: 0x01EA [0x5B] LOAD_EXT_SCHEDULER: Load scheduler "kmi0" with entities [Unnamed NPC (ID: 17175352/0x01061338), Unnamed NPC (ID: 17175352/0x01061338)], work=2155*
  2: 0x01F9 [0x53] WAIT_SCHEDULER_TASK: Wait for scheduler "kmi0" with entities [Unnamed NPC (ID: 17175352/0x01061338), Unnamed NPC (ID: 17175352/0x01061338)]
  3: 0x0206 [0x00] END_REQSTACK()
```
