# 17175349 - Bryher

## Common Data

| Field            | Value                              |
|------------------|------------------------------------|
| Zone             | Meriphataud Mountains [S] (ID: 97) |
| Block Size       | 208 bytes                          |
| Total Events     | 6                                  |
| References Count | 16                                 |

## List of Events

| Event ID                 | Entrypoint   |   Size |   Instructions |
|--------------------------|--------------|--------|----------------|
| [65535](#event-65535)    | 0x0000       |      1 |              1 |
| [105](#event-105)        | 0x0001       |      1 |              1 |
| [65535.1](#event-655351) | 0x0002       |     21 |              5 |
| [65535.2](#event-655352) | 0x0017       |     17 |              6 |
| [65535.3](#event-655353) | 0x0028       |     32 |              9 |
| [65535.4](#event-655354) | 0x0048       |     32 |              9 |

## DAT References (imed_data)

|   Index | Hex Value   |   Dec Value |
|---------|-------------|-------------|
|       0 | 0x0005      |           5 |
|       1 | 0xFFFD77C3  |  4294801347 |
|       2 | 0x526B2     |      337586 |
|       3 | 0xFFFFFE4B  |  4294966859 |
|       4 | 0x0016      |          22 |
|       5 | 0x001E      |          30 |
|       6 | 0xB01EE     |      721390 |
|       7 | 0x8B4F5     |      570613 |
|       8 | 0xFFFFC2C9  |  4294951625 |
|       9 | 0x000A      |          10 |
|      10 | 0xB03EF     |      721903 |
|      11 | 0x89F55     |      565077 |
|      12 | 0xFFFFC1B5  |  4294951349 |
|      13 | 0x88BF3     |      560115 |
|      14 | 0x8FC39     |      588857 |
|      15 | 0xFFFF8463  |  4294935651 |

## Events

### Event 65535

#### Metadata

| Field        | Value   |
|--------------|---------|
| Entrypoint   | 0x0000  |
| Data Size    | 1 bytes |
| Instructions | 1       |

```
      00 01 02 03 04 05 06 07  08 09 0A 0B 0C 0D 0E 0F
      -- -- -- -- -- -- -- --  -- -- -- -- -- -- -- --
0000: 00                                                .               
```

#### Opcodes

```
  0: 0x0000 [0x00] END_REQSTACK()
```

### Event 105

#### Metadata

| Field        | Value   |
|--------------|---------|
| Entrypoint   | 0x0001  |
| Data Size    | 1 bytes |
| Instructions | 1       |

```
      00 01 02 03 04 05 06 07  08 09 0A 0B 0C 0D 0E 0F
      -- -- -- -- -- -- -- --  -- -- -- -- -- -- -- --
0000:    00                                              .              
```

#### Opcodes

```
  0: 0x0001 [0x00] END_REQSTACK()
```

### Event 65535.1

#### Metadata

| Field        | Value    |
|--------------|----------|
| Entrypoint   | 0x0002   |
| Data Size    | 21 bytes |
| Instructions | 5        |

```
      00 01 02 03 04 05 06 07  08 09 0A 0B 0C 0D 0E 0F
      -- -- -- -- -- -- -- --  -- -- -- -- -- -- -- --
0000:       32 00 80 1F 00 01  80 02 80 03 80 1F 01 4B    2............K
0010: F8 FF FF 7F 04 80 00                              .......         
```

#### Opcodes

```
  0: 0x0002 [0x32] ExtData[1]->MainSpeed = 5* * 0.1
  1: 0x0005 [0x1F] MOVE_ENTITY: EventEntity moves to X=-165.949*, Z=337.586*, Y=-0.437*
  2: 0x000D [0x1F] MOVE_ENTITY: Update entity position (mode=1)
  3: 0x000F [0x4B] UPDATE_ENTITY_YAW(entity=EventEntity, yaw=0.1°*)
  4: 0x0016 [0x00] END_REQSTACK()
```

### Event 65535.2

#### Metadata

| Field        | Value    |
|--------------|----------|
| Entrypoint   | 0x0017   |
| Data Size    | 17 bytes |
| Instructions | 6        |

```
      00 01 02 03 04 05 06 07  08 09 0A 0B 0C 0D 0E 0F
      -- -- -- -- -- -- -- --  -- -- -- -- -- -- -- --
0010:                      61  00 32 05 80 1F 00 06 80         a.2......
0020: 07 80 08 80 1F 01 6F 00                           ......o.        
```

#### Opcodes

```
  0: 0x0017 [0x61] EventEntity->Render.Flags2 &= ~0x00000001
  1: 0x0019 [0x32] ExtData[1]->MainSpeed = 30* * 0.1
  2: 0x001C [0x1F] MOVE_ENTITY: EventEntity moves to X=721.390*, Z=570.613*, Y=-15.671*
  3: 0x0024 [0x1F] MOVE_ENTITY: Update entity position (mode=1)
  4: 0x0026 [0x6F] WAIT_FRAME_DELAY: Yield until WaitTime reaches zero
  5: 0x0027 [0x00] END_REQSTACK()
```

### Event 65535.3

#### Metadata

| Field        | Value    |
|--------------|----------|
| Entrypoint   | 0x0028   |
| Data Size    | 32 bytes |
| Instructions | 9        |

```
      00 01 02 03 04 05 06 07  08 09 0A 0B 0C 0D 0E 0F
      -- -- -- -- -- -- -- --  -- -- -- -- -- -- -- --
0020:                          61 01 32 09 80 1F 00 0A          a.2.....
0030: 80 0B 80 0C 80 1F 01 6F  4A F8 FF FF 7F 34 13 06  .......oJ....4..
0040: 01 6F 76 F8 FF FF 7F 00                           .ov.....        
```

#### Opcodes

```
  0: 0x0028 [0x61] EventEntity->Render.Flags2 |= 0x00000001
  1: 0x002A [0x32] ExtData[1]->MainSpeed = 10* * 0.1
  2: 0x002D [0x1F] MOVE_ENTITY: EventEntity moves to X=721.903*, Z=565.077*, Y=-15.947*
  3: 0x0035 [0x1F] MOVE_ENTITY: Update entity position (mode=1)
  4: 0x0037 [0x6F] WAIT_FRAME_DELAY: Yield until WaitTime reaches zero
  5: 0x0038 [0x4A] EventEntity looks at Abenzio (ID: 17175348/0x01061334)
  6: 0x0041 [0x6F] WAIT_FRAME_DELAY: Yield until WaitTime reaches zero
  7: 0x0042 [0x76] CHECK_ENTITY_RENDER_FLAGS: Wait until EventEntity Render.Flags0 and Render.Flags3 conditions are met
  8: 0x0047 [0x00] END_REQSTACK()
```

### Event 65535.4

#### Metadata

| Field        | Value    |
|--------------|----------|
| Entrypoint   | 0x0048   |
| Data Size    | 32 bytes |
| Instructions | 9        |

```
      00 01 02 03 04 05 06 07  08 09 0A 0B 0C 0D 0E 0F
      -- -- -- -- -- -- -- --  -- -- -- -- -- -- -- --
0040:                          61 00 32 05 80 1F 00 0D          a.2.....
0050: 80 0E 80 0F 80 1F 01 6F  4A F8 FF FF 7F 33 13 06  .......oJ....3..
0060: 01 6F 76 F8 FF FF 7F 00                           .ov.....        
```

#### Opcodes

```
  0: 0x0048 [0x61] EventEntity->Render.Flags2 &= ~0x00000001
  1: 0x004A [0x32] ExtData[1]->MainSpeed = 30* * 0.1
  2: 0x004D [0x1F] MOVE_ENTITY: EventEntity moves to X=560.115*, Z=588.857*, Y=-31.645*
  3: 0x0055 [0x1F] MOVE_ENTITY: Update entity position (mode=1)
  4: 0x0057 [0x6F] WAIT_FRAME_DELAY: Yield until WaitTime reaches zero
  5: 0x0058 [0x4A] EventEntity looks at Babban Ny Mheillea (ID: 17175347/0x01061333)
  6: 0x0061 [0x6F] WAIT_FRAME_DELAY: Yield until WaitTime reaches zero
  7: 0x0062 [0x76] CHECK_ENTITY_RENDER_FLAGS: Wait until EventEntity Render.Flags0 and Render.Flags3 conditions are met
  8: 0x0067 [0x00] END_REQSTACK()
```
