# 17175361

## Common Data

| Field            | Value                              |
|------------------|------------------------------------|
| Zone             | Meriphataud Mountains [S] (ID: 97) |
| Block Size       | 35160 bytes                        |
| Total Events     | 9                                  |
| References Count | 884                                |

## List of Events

| Event ID              | Entrypoint   |   Size |   Instructions |
|-----------------------|--------------|--------|----------------|
| [65535](#event-65535) | 0x0000       |      1 |              1 |
| [3](#event-3)         | 0x0001       |  10766 |           1219 |
| [6](#event-6)         | 0x2A0F       |     33 |              9 |
| [7](#event-7)         | 0x2A30       |     33 |              9 |
| [8](#event-8)         | 0x2A51       |     33 |              9 |
| [9](#event-9)         | 0x2A72       |     33 |              9 |
| [11](#event-11)       | 0x2A93       |     33 |              9 |
| [4](#event-4)         | 0x2AB4       |  14470 |           1572 |
| [5](#event-5)         | 0x633A       |   6167 |            653 |

## DAT References (imed_data)

|   Index | Hex Value   |   Dec Value |
|---------|-------------|-------------|
|       0 | 0x0013      |          19 |
|       1 | 0x5E817     |      387095 |
|       2 | 0xCDA8      |       52648 |
|       3 | 0xFFFFC180  |  4294951296 |
|       4 | 0x0D2B      |        3371 |
|       5 | 0x6085E     |      395358 |
|       6 | 0x10E71     |       69233 |
|       7 | 0xFFFFC12A  |  4294951210 |
|       8 | 0x03B6      |         950 |
|       9 | 0x60FC3     |      397251 |
|      10 | 0x10BAD     |       68525 |
|      11 | 0xFFFFC1DE  |  4294951390 |
|      12 | 0x04D8      |        1240 |
|      13 | 0x606F7     |      394999 |
|      14 | 0xFDF7      |       65015 |
|      15 | 0xFFFFC0FD  |  4294951165 |
|      16 | 0x0BB8      |        3000 |
|      17 | 0x66002     |      417794 |
|      18 | 0x12338     |       74552 |
|      19 | 0xFFFFC48B  |  4294952075 |
|      20 | 0x05AA      |        1450 |
|      21 | 0x60465     |      394341 |
|      22 | 0x11262     |       70242 |
|      23 | 0xFFFFC0A0  |  4294951072 |
|      24 | 0x03E8      |        1000 |
|      25 | 0x5F724     |      390948 |
|      26 | 0x10A75     |       68213 |
|      27 | 0xFFFFBF8C  |  4294950796 |
|      28 | 0x0D00      |        3328 |
|      29 | 0x5FA7B     |      391803 |
|      30 | 0x117BB     |       71611 |
|      31 | 0xFFFFC14B  |  4294951243 |
|      32 | 0x0514      |        1300 |
|      33 | 0x60F40     |      397120 |
|      34 | 0x1051A     |       66842 |
|      35 | 0xFFFFC1ED  |  4294951405 |
|      36 | 0x60EB2     |      396978 |
|      37 | 0x11D9B     |       73115 |
|      38 | 0xFFFFC178  |  4294951288 |
|      39 | 0x0D2A      |        3370 |
|      40 | 0x60723     |      395043 |
|      41 | 0xE079      |       57465 |
|      42 | 0xFFFFC103  |  4294951171 |
|      43 | 0x0064      |         100 |
|      44 | 0x6095D     |      395613 |
|      45 | 0xE658      |       58968 |
|      46 | 0xFFFFC12D  |  4294951213 |
|      47 | 0x012D      |         301 |
|      48 | 0x6067C     |      394876 |
|      49 | 0x11C5A     |       72794 |
|      50 | 0x668FD     |      420093 |
|      51 | 0x13095     |       77973 |
|      52 | 0xFFFFC527  |  4294952231 |
|      53 | 0x0384      |         900 |
|      54 | 0x5F5DD     |      390621 |
|      55 | 0xEBF3      |       60403 |
|      56 | 0x0942      |        2370 |
|      57 | 0x5F034     |      389172 |
|      58 | 0x10851     |       67665 |
|      59 | 0xFFFFBF5E  |  4294950750 |
|      60 | 0x5F4D1     |      390353 |
|      61 | 0x1029F     |       66207 |
|      62 | 0x002A      |          42 |
|      63 | 0x00D0      |         208 |
|      64 | 0x0000      |           0 |
|      65 | 0x099D      |        2461 |
|      66 | 0x003B      |          59 |
|      67 | 0x0001      |           1 |
|      68 | 0x0B99      |        2969 |
|      69 | 0x0826      |        2086 |
|      70 | 0x000A      |          10 |
|      71 | 0x001E      |          30 |
|      72 | 0x020A      |         522 |
|      73 | 0x0014      |          20 |
|      74 | 0x052F      |        1327 |
|      75 | 0x0032      |          50 |
|      76 | 0x0008      |           8 |
|      77 | 0x0080      |         128 |
|      78 | 0x6058F     |      394639 |
|      79 | 0x11221     |       70177 |
|      80 | 0xFFFFC098  |  4294951064 |
|      81 | 0x0367      |         871 |
|      82 | 0x60144     |      393540 |
|      83 | 0x10B54     |       68436 |
|      84 | 0xFFFFC048  |  4294950984 |
|      85 | 0x0410      |        1040 |
|      86 | 0x60B49     |      396105 |
|      87 | 0x114C3     |       70851 |
|      88 | 0xFFFFC185  |  4294951301 |
|      89 | 0x61002     |      397314 |
|      90 | 0x11335     |       70453 |
|      91 | 0xFFFFC1C1  |  4294951361 |
|      92 | 0x5FB10     |      391952 |
|      93 | 0x1105F     |       69727 |
|      94 | 0xFFFFC05F  |  4294951007 |
|      95 | 0x60010     |      393232 |
|      96 | 0x111F2     |       70130 |
|      97 | 0xFFFFC092  |  4294951058 |
|      98 | 0x600ED     |      393453 |
|      99 | 0x11753     |       71507 |
|     100 | 0xFFFFC13E  |  4294951230 |
|     101 | 0x0318      |         792 |
|     102 | 0x005A      |          90 |
|     103 | 0x00A0      |         160 |
|     104 | 0x1F19      |        7961 |
|     105 | 0x1F1A      |        7962 |
|     106 | 0x05A6      |        1446 |
|     107 | 0x0078      |         120 |
|     108 | 0x1F1B      |        7963 |
|     109 | 0x0005      |           5 |
|     110 | 0x60141     |      393537 |
|     111 | 0x11291     |       70289 |
|     112 | 0xFFFFC0A5  |  4294951077 |
|     113 | 0x0019      |          25 |
|     114 | 0x1F1C      |        7964 |
|     115 | 0x1F1D      |        7965 |
|     116 | 0x1F1E      |        7966 |
|     117 | 0x05A2      |        1442 |
|     118 | 0x1F1F      |        7967 |
|     119 | 0x05A3      |        1443 |
|     120 | 0x1F20      |        7968 |
|     121 | 0x1F21      |        7969 |
|     122 | 0x1F22      |        7970 |
|     123 | 0x0007      |           7 |
|     124 | 0x1F23      |        7971 |
|     125 | 0x1F24      |        7972 |
|     126 | 0x6021B     |      393755 |
|     127 | 0x10D97     |       69015 |
|     128 | 0xFFFFC063  |  4294951011 |
|     129 | 0x052E      |        1326 |
|     130 | 0x099C      |        2460 |
|     131 | 0x60070     |      393328 |
|     132 | 0x1196F     |       72047 |
|     133 | 0x1F25      |        7973 |
|     134 | 0x00DC      |         220 |
|     135 | 0x0B97      |        2967 |
|     136 | 0x0082      |         130 |
|     137 | 0x00BE      |         190 |
|     138 | 0x1F26      |        7974 |
|     139 | 0x0046      |          70 |
|     140 | 0x1F27      |        7975 |
|     141 | 0x000F      |          15 |
|     142 | 0x00A5      |         165 |
|     143 | 0x0096      |         150 |
|     144 | 0x6098A     |      395658 |
|     145 | 0x10F14     |       69396 |
|     146 | 0xFFFFC151  |  4294951249 |
|     147 | 0x612D2     |      398034 |
|     148 | 0x10B92     |       68498 |
|     149 | 0xFFFFC22E  |  4294951470 |
|     150 | 0x60B53     |      396115 |
|     151 | 0x10BC1     |       68545 |
|     152 | 0xFFFFC16D  |  4294951277 |
|     153 | 0x612F2     |      398066 |
|     154 | 0x111B5     |       70069 |
|     155 | 0xFFFFC1E3  |  4294951395 |
|     156 | 0x00AA      |         170 |
|     157 | 0x0A96      |        2710 |
|     158 | 0x0050      |          80 |
|     159 | 0x096F      |        2415 |
|     160 | 0xFFFFC563  |  4294952291 |
|     161 | 0x666FC     |      419580 |
|     162 | 0x142C5     |       82629 |
|     163 | 0xFFFFC695  |  4294952597 |
|     164 | 0x042C      |        1068 |
|     165 | 0x66489     |      418953 |
|     166 | 0x13921     |       80161 |
|     167 | 0xFFFFC533  |  4294952243 |
|     168 | 0x65F6D     |      417645 |
|     169 | 0x137CC     |       79820 |
|     170 | 0xFFFFC4D7  |  4294952151 |
|     171 | 0x65E49     |      417353 |
|     172 | 0x1323C     |       78396 |
|     173 | 0xFFFFC4E4  |  4294952164 |
|     174 | 0x66818     |      419864 |
|     175 | 0x13C52     |       80978 |
|     176 | 0xFFFFC5D6  |  4294952406 |
|     177 | 0x66C4B     |      420939 |
|     178 | 0x13A98     |       80536 |
|     179 | 0xFFFFC577  |  4294952311 |
|     180 | 0x0366      |         870 |
|     181 | 0x6616F     |      418159 |
|     182 | 0x13D14     |       81172 |
|     183 | 0xFFFFC599  |  4294952345 |
|     184 | 0x660FC     |      418044 |
|     185 | 0x1431A     |       82714 |
|     186 | 0xFFFFC654  |  4294952532 |
|     187 | 0x65B67     |      416615 |
|     188 | 0x1375E     |       79710 |
|     189 | 0xFFFFC496  |  4294952086 |
|     190 | 0x5F77A     |      391034 |
|     191 | 0x11165     |       69989 |
|     192 | 0xFFFFC07F  |  4294951039 |
|     193 | 0x65D8E     |      417166 |
|     194 | 0x13E38     |       81464 |
|     195 | 0xFFFFC58C  |  4294952332 |
|     196 | 0x0365      |         869 |
|     197 | 0x66FDB     |      421851 |
|     198 | 0x13CC7     |       81095 |
|     199 | 0xFFFFC58F  |  4294952335 |
|     200 | 0x60BD6     |      396246 |
|     201 | 0x10C14     |       68628 |
|     202 | 0xFFFFC176  |  4294951286 |
|     203 | 0x1068      |        4200 |
|     204 | 0x6125B     |      397915 |
|     205 | 0x107E7     |       67559 |
|     206 | 0xFFFFC23C  |  4294951484 |
|     207 | 0x0FA0      |        4000 |
|     208 | 0x60A26     |      395814 |
|     209 | 0x10F5B     |       69467 |
|     210 | 0xFFFFC164  |  4294951268 |
|     211 | 0x5FC11     |      392209 |
|     212 | 0xF9EE      |       63982 |
|     213 | 0x0F3C      |        3900 |
|     214 | 0x0004      |           4 |
|     215 | 0x0827      |        2087 |
|     216 | 0x0B9A      |        2970 |
|     217 | 0x0828      |        2088 |
|     218 | 0x0B9B      |        2971 |
|     219 | 0x0B98      |        2968 |
|     220 | 0x0825      |        2085 |
|     221 | 0x007F      |         127 |
|     222 | 0x1F12      |        7954 |
|     223 | 0x009F      |         159 |
|     224 | 0x00B4      |         180 |
|     225 | 0x1F28      |        7976 |
|     226 | 0x1F29      |        7977 |
|     227 | 0x0028      |          40 |
|     228 | 0x1F2A      |        7978 |
|     229 | 0x1F2B      |        7979 |
|     230 | 0x1F2C      |        7980 |
|     231 | 0x1F2D      |        7981 |
|     232 | 0x1F2E      |        7982 |
|     233 | 0x0A07      |        2567 |
|     234 | 0x1F2F      |        7983 |
|     235 | 0x1F30      |        7984 |
|     236 | 0x1F31      |        7985 |
|     237 | 0x1F32      |        7986 |
|     238 | 0x1F33      |        7987 |
|     239 | 0x1F34      |        7988 |
|     240 | 0x0027      |          39 |
|     241 | 0x1F35      |        7989 |
|     242 | 0x00EB      |         235 |
|     243 | 0x006E      |         110 |
|     244 | 0x1F36      |        7990 |
|     245 | 0x1F37      |        7991 |
|     246 | 0x00FF      |         255 |
|     247 | 0x1F38      |        7992 |
|     248 | 0x00F0      |         240 |
|     249 | 0x003C      |          60 |
|     250 | 0x1F39      |        7993 |
|     251 | 0x004B      |          75 |
|     252 | 0x00FA      |         250 |
|     253 | 0x66A2B     |      420395 |
|     254 | 0x141C5     |       82373 |
|     255 | 0xFFFFC678  |  4294952568 |
|     256 | 0x1F3A      |        7994 |
|     257 | 0x66250     |      418384 |
|     258 | 0x131F2     |       78322 |
|     259 | 0xFFFFC517  |  4294952215 |
|     260 | 0x660A9     |      417961 |
|     261 | 0x12BF4     |       76788 |
|     262 | 0xFFFFC502  |  4294952194 |
|     263 | 0x6575E     |      415582 |
|     264 | 0x1387B     |       79995 |
|     265 | 0xFFFFC432  |  4294951986 |
|     266 | 0x659F3     |      416243 |
|     267 | 0x1319C     |       78236 |
|     268 | 0xFFFFC4AD  |  4294952109 |
|     269 | 0x1F3B      |        7995 |
|     270 | 0x666EC     |      419564 |
|     271 | 0x12DB4     |       77236 |
|     272 | 0xFFFFC552  |  4294952274 |
|     273 | 0x0B36      |        2870 |
|     274 | 0x0996      |        2454 |
|     275 | 0x1F3C      |        7996 |
|     276 | 0x002D      |          45 |
|     277 | 0x1F3D      |        7997 |
|     278 | 0x66703     |      419587 |
|     279 | 0x13249     |       78409 |
|     280 | 0xFFFFC553  |  4294952275 |
|     281 | 0x074C      |        1868 |
|     282 | 0x66966     |      420198 |
|     283 | 0x13632     |       79410 |
|     284 | 0xFFFFC55E  |  4294952286 |
|     285 | 0x0364      |         868 |
|     286 | 0x04FA      |        1274 |
|     287 | 0x00E1      |         225 |
|     288 | 0x1F3E      |        7998 |
|     289 | 0x6533F     |      414527 |
|     290 | 0x13622     |       79394 |
|     291 | 0xFFFFC3BA  |  4294951866 |
|     292 | 0x012C      |         300 |
|     293 | 0x67111     |      422161 |
|     294 | 0x13FCA     |       81866 |
|     295 | 0xFFFFC5E1  |  4294952417 |
|     296 | 0x1F3F      |        7999 |
|     297 | 0x1F40      |        8000 |
|     298 | 0x65658     |      415320 |
|     299 | 0xFFFFC53E  |  4294952254 |
|     300 | 0x659A4     |      416164 |
|     301 | 0x13CB7     |       81079 |
|     302 | 0xFFFFC52A  |  4294952234 |
|     303 | 0x001A      |          26 |
|     304 | 0x1F41      |        8001 |
|     305 | 0x66244     |      418372 |
|     306 | 0x12D9C     |       77212 |
|     307 | 0x66482     |      418946 |
|     308 | 0x14099     |       82073 |
|     309 | 0xFFFFC632  |  4294952498 |
|     310 | 0x04B0      |        1200 |
|     311 | 0x1F42      |        8002 |
|     312 | 0x1F43      |        8003 |
|     313 | 0x0320      |         800 |
|     314 | 0x1F44      |        8004 |
|     315 | 0x1F45      |        8005 |
|     316 | 0x0006      |           6 |
|     317 | 0x1F46      |        8006 |
|     318 | 0x1F47      |        8007 |
|     319 | 0x005E      |          94 |
|     320 | 0x1F48      |        8008 |
|     321 | 0x667AA     |      419754 |
|     322 | 0x13FC2     |       81858 |
|     323 | 0xFFFFC63E  |  4294952510 |
|     324 | 0x03D0      |         976 |
|     325 | 0x661F0     |      418288 |
|     326 | 0x13DF3     |       81395 |
|     327 | 0xFFFFC5BC  |  4294952380 |
|     328 | 0x0091      |         145 |
|     329 | 0x1F49      |        8009 |
|     330 | 0x0016      |          22 |
|     331 | 0x1F4A      |        8010 |
|     332 | 0x0094      |         148 |
|     333 | 0x1F4B      |        8011 |
|     334 | 0x1F4C      |        8012 |
|     335 | 0x1F4D      |        8013 |
|     336 | 0x0824      |        2084 |
|     337 | 0x1F4E      |        8014 |
|     338 | 0x1F4F      |        8015 |
|     339 | 0x1F50      |        8016 |
|     340 | 0x1F51      |        8017 |
|     341 | 0x00C8      |         200 |
|     342 | 0x60147     |      393543 |
|     343 | 0xE8B7      |       59575 |
|     344 | 0x0C5C      |        3164 |
|     345 | 0x605B6     |      394678 |
|     346 | 0xF110      |       61712 |
|     347 | 0xFFFFC0D6  |  4294951126 |
|     348 | 0x04FD      |        1277 |
|     349 | 0x1F13      |        7955 |
|     350 | 0x1F14      |        7956 |
|     351 | 0x60151     |      393553 |
|     352 | 0xE1EA      |       57834 |
|     353 | 0xFFFFC095  |  4294951061 |
|     354 | 0x60428     |      394280 |
|     355 | 0xEBB0      |       60336 |
|     356 | 0xFFFFC0A4  |  4294951076 |
|     357 | 0x0015      |          21 |
|     358 | 0x1F15      |        7957 |
|     359 | 0x0003      |           3 |
|     360 | 0x1F16      |        7958 |
|     361 | 0x1F17      |        7959 |
|     362 | 0x104D      |        4173 |
|     363 | 0x1F18      |        7960 |
|     364 | 0x0063      |          99 |
|     365 | 0xFFFE7ED0  |  4294868688 |
|     366 | 0xDBEC      |       56300 |
|     367 | 0xFFFF099E  |  4294904222 |
|     368 | 0xFFFE7348  |  4294865736 |
|     369 | 0xDC7C      |       56444 |
|     370 | 0xFFFF099C  |  4294904220 |
|     371 | 0xFFFE7927  |  4294867239 |
|     372 | 0xF6A1      |       63137 |
|     373 | 0xFFFF059A  |  4294903194 |
|     374 | 0x03A7      |         935 |
|     375 | 0xFFFF0982  |  4294904194 |
|     376 | 0x009D      |         157 |
|     377 | 0x004D      |          77 |
|     378 | 0x0949      |        2377 |
|     379 | 0x0C4A      |        3146 |
|     380 | 0x0808      |        2056 |
|     381 | 0x0220      |         544 |
|     382 | 0x008C      |         140 |
|     383 | 0x0B76      |        2934 |
|     384 | 0x00E6      |         230 |
|     385 | 0x019A      |         410 |
|     386 | 0x1F52      |        8018 |
|     387 | 0x1F53      |        8019 |
|     388 | 0x0023      |          35 |
|     389 | 0x0061      |          97 |
|     390 | 0x9FCC4     |      654532 |
|     391 | 0xE863      |       59491 |
|     392 | 0xFFFFA0A3  |  4294942883 |
|     393 | 0x5E31D     |      385821 |
|     394 | 0xF684      |       63108 |
|     395 | 0xFFFF8DE1  |  4294938081 |
|     396 | 0xA0234     |      655924 |
|     397 | 0xFC5C      |       64604 |
|     398 | 0xFFFFA04C  |  4294942796 |
|     399 | 0x0578      |        1400 |
|     400 | 0xA078D     |      657293 |
|     401 | 0xF9AD      |       63917 |
|     402 | 0x9FEBD     |      655037 |
|     403 | 0x10034     |       65588 |
|     404 | 0xFFFFA04D  |  4294942797 |
|     405 | 0x04AF      |        1199 |
|     406 | 0xA0210     |      655888 |
|     407 | 0x10459     |       66649 |
|     408 | 0x04CE      |        1230 |
|     409 | 0xA0F22     |      659234 |
|     410 | 0xFD44      |       64836 |
|     411 | 0x0640      |        1600 |
|     412 | 0xA0D7B     |      658811 |
|     413 | 0x10ADD     |       68317 |
|     414 | 0xA07E4     |      657380 |
|     415 | 0x103FB     |       66555 |
|     416 | 0xA0F7A     |      659322 |
|     417 | 0x10534     |       66868 |
|     418 | 0xA15EC     |      660972 |
|     419 | 0x101BC     |       65980 |
|     420 | 0xFFFFA0C0  |  4294942912 |
|     421 | 0xA07C9     |      657353 |
|     422 | 0x10B35     |       68405 |
|     423 | 0xB1B96     |      727958 |
|     424 | 0xFFFF6805  |  4294928389 |
|     425 | 0xFFFF8238  |  4294935096 |
|     426 | 0x06A1      |        1697 |
|     427 | 0xAE864     |      714852 |
|     428 | 0xFFFF4C29  |  4294921257 |
|     429 | 0xFFFF83F6  |  4294935542 |
|     430 | 0x0744      |        1860 |
|     431 | 0xAFEA5     |      720549 |
|     432 | 0xFFFF6194  |  4294926740 |
|     433 | 0xFFFF8300  |  4294935296 |
|     434 | 0xB1359     |      725849 |
|     435 | 0xFFFF82D4  |  4294935252 |
|     436 | 0xFFFF8270  |  4294935152 |
|     437 | 0x0898      |        2200 |
|     438 | 0x05DC      |        1500 |
|     439 | 0x0041      |          65 |
|     440 | 0x0047      |          71 |
|     441 | 0x082B      |        2091 |
|     442 | 0x082A      |        2090 |
|     443 | 0x0B95      |        2965 |
|     444 | 0x0221      |         545 |
|     445 | 0x0168      |         360 |
|     446 | 0x1F54      |        8020 |
|     447 | 0x00FE      |         254 |
|     448 | 0x00D7      |         215 |
|     449 | 0x1F55      |        8021 |
|     450 | 0x0020      |          32 |
|     451 | 0x005F      |          95 |
|     452 | 0xB1366     |      725862 |
|     453 | 0xFFFF75B0  |  4294931888 |
|     454 | 0xFFFF82BF  |  4294935231 |
|     455 | 0x0067      |         103 |
|     456 | 0xB16C4     |      726724 |
|     457 | 0xFFFF3A7F  |  4294916735 |
|     458 | 0xFFFF8158  |  4294934872 |
|     459 | 0x06A0      |        1696 |
|     460 | 0xB27DC     |      731100 |
|     461 | 0xFFFF5220  |  4294922784 |
|     462 | 0xFFFF8197  |  4294934935 |
|     463 | 0xB1862     |      727138 |
|     464 | 0xFFFF9F14  |  4294942484 |
|     465 | 0xFFFF8249  |  4294935113 |
|     466 | 0xAE8A9     |      714921 |
|     467 | 0xFFFF9623  |  4294940195 |
|     468 | 0xFFFF82DF  |  4294935263 |
|     469 | 0xB07C1     |      722881 |
|     470 | 0xFFFF352D  |  4294915373 |
|     471 | 0xFFFF8484  |  4294935684 |
|     472 | 0x0048      |          72 |
|     473 | 0x05F6      |        1526 |
|     474 | 0x05F4      |        1524 |
|     475 | 0xB2BE2     |      732130 |
|     476 | 0xFFFF6D46  |  4294929734 |
|     477 | 0xFFFF829E  |  4294935198 |
|     478 | 0xB3B8C     |      736140 |
|     479 | 0xFFFF5F2F  |  4294926127 |
|     480 | 0xFFFF8304  |  4294935300 |
|     481 | 0xAFE01     |      720385 |
|     482 | 0xFFFF8E26  |  4294938150 |
|     483 | 0xFFFF8455  |  4294935637 |
|     484 | 0x07D0      |        2000 |
|     485 | 0x067C      |        1660 |
|     486 | 0x00EF      |         239 |
|     487 | 0x003E      |          62 |
|     488 | 0x007D      |         125 |
|     489 | 0xB096A     |      723306 |
|     490 | 0xFFFF6051  |  4294926417 |
|     491 | 0x002B      |          43 |
|     492 | 0xAE171     |      713073 |
|     493 | 0xFFFF7D70  |  4294933872 |
|     494 | 0xFFFF818D  |  4294934925 |
|     495 | 0x0910      |        2320 |
|     496 | 0xAFA5D     |      719453 |
|     497 | 0xFFFF75BE  |  4294931902 |
|     498 | 0x069E      |        1694 |
|     499 | 0x00C7      |         199 |
|     500 | 0xB4686     |      738950 |
|     501 | 0xFFFF66CE  |  4294928078 |
|     502 | 0xFFFF834B  |  4294935371 |
|     503 | 0xB15BD     |      726461 |
|     504 | 0xFFFF4B1F  |  4294920991 |
|     505 | 0xFFFF8288  |  4294935176 |
|     506 | 0xB0675     |      722549 |
|     507 | 0xFFFF8889  |  4294936713 |
|     508 | 0xFFFF840D  |  4294935565 |
|     509 | 0xAFE2B     |      720427 |
|     510 | 0xFFFF2FA4  |  4294913956 |
|     511 | 0xFFFF8512  |  4294935826 |
|     512 | 0x0B50      |        2896 |
|     513 | 0xAFD4C     |      720204 |
|     514 | 0xFFFF6D7B  |  4294929787 |
|     515 | 0x0060      |          96 |
|     516 | 0xAF768     |      718696 |
|     517 | 0xFFFF91E1  |  4294939105 |
|     518 | 0xFFFF83FF  |  4294935551 |
|     519 | 0xAF154     |      717140 |
|     520 | 0xFFFFA67A  |  4294944378 |
|     521 | 0xFFFF83D9  |  4294935513 |
|     522 | 0xAD9EC     |      711148 |
|     523 | 0xFFFFB0FE  |  4294947070 |
|     524 | 0xFFFF810D  |  4294934797 |
|     525 | 0x0834      |        2100 |
|     526 | 0xAEB0A     |      715530 |
|     527 | 0xFFFFA31F  |  4294943519 |
|     528 | 0xFFFF82C1  |  4294935233 |
|     529 | 0xB1830     |      727088 |
|     530 | 0xFFFF67FB  |  4294928379 |
|     531 | 0xFFFF8266  |  4294935142 |
|     532 | 0x05F3      |        1523 |
|     533 | 0x1F56      |        8022 |
|     534 | 0x0D48      |        3400 |
|     535 | 0x1F57      |        8023 |
|     536 | 0x096C      |        2412 |
|     537 | 0xA2EF4     |      667380 |
|     538 | 0xC0FC      |       49404 |
|     539 | 0xFFFFA3B5  |  4294943669 |
|     540 | 0x02BC      |         700 |
|     541 | 0xA3166     |      668006 |
|     542 | 0xBB8A      |       48010 |
|     543 | 0xFFFFA423  |  4294943779 |
|     544 | 0xA3764     |      669540 |
|     545 | 0xC23B      |       49723 |
|     546 | 0xFFFFA357  |  4294943575 |
|     547 | 0xA2AF7     |      666359 |
|     548 | 0xC866      |       51302 |
|     549 | 0xFFFFA338  |  4294943544 |
|     550 | 0xA3D1F     |      671007 |
|     551 | 0xBED2      |       48850 |
|     552 | 0xFFFFA3C4  |  4294943684 |
|     553 | 0xA32FE     |      668414 |
|     554 | 0xC7A4      |       51108 |
|     555 | 0xFFFFA2AA  |  4294943402 |
|     556 | 0xA3BE7     |      670695 |
|     557 | 0xC889      |       51337 |
|     558 | 0xFFFFA28D  |  4294943373 |
|     559 | 0xA29C3     |      666051 |
|     560 | 0xC2AE      |       49838 |
|     561 | 0xFFFFA436  |  4294943798 |
|     562 | 0xA39B9     |      670137 |
|     563 | 0xCD26      |       52518 |
|     564 | 0xFFFFA240  |  4294943296 |
|     565 | 0xA314C     |      667980 |
|     566 | 0xD0EA      |       53482 |
|     567 | 0xFFFFA2BA  |  4294943418 |
|     568 | 0x1F58      |        8024 |
|     569 | 0x00C9      |         201 |
|     570 | 0xAD479     |      709753 |
|     571 | 0xFFFF84DE  |  4294935774 |
|     572 | 0xFFFF8142  |  4294934850 |
|     573 | 0x06A2      |        1698 |
|     574 | 0xAE128     |      713000 |
|     575 | 0xFFFF69AA  |  4294928810 |
|     576 | 0xFFFF8349  |  4294935369 |
|     577 | 0xAD44E     |      709710 |
|     578 | 0xFFFF54B2  |  4294923442 |
|     579 | 0xFFFF8293  |  4294935187 |
|     580 | 0xFFFFFE70  |  4294966896 |
|     581 | 0xABF9A     |      704410 |
|     582 | 0xFFFF77CC  |  4294932428 |
|     583 | 0xFFFF82FE  |  4294935294 |
|     584 | 0xACEA8     |      708264 |
|     585 | 0xFFFF7C59  |  4294933593 |
|     586 | 0xFFFF81B6  |  4294934966 |
|     587 | 0xAD7C6     |      710598 |
|     588 | 0xFFFF6C3F  |  4294929471 |
|     589 | 0xFFFF835B  |  4294935387 |
|     590 | 0xADBE5     |      711653 |
|     591 | 0xFFFF5878  |  4294924408 |
|     592 | 0xFFFF82ED  |  4294935277 |
|     593 | 0xAC10A     |      704778 |
|     594 | 0xFFFF6F81  |  4294930305 |
|     595 | 0xFFFF835D  |  4294935389 |
|     596 | 0xAAD6F     |      699759 |
|     597 | 0xFFFF801A  |  4294934554 |
|     598 | 0x04FB      |        1275 |
|     599 | 0x007A      |         122 |
|     600 | 0x0531      |        1329 |
|     601 | 0x0456      |        1110 |
|     602 | 0x0118      |         280 |
|     603 | 0xABCDC     |      703708 |
|     604 | 0xFFFF4485  |  4294919301 |
|     605 | 0xFFFF831B  |  4294935323 |
|     606 | 0x0A89      |        2697 |
|     607 | 0xAAECF     |      700111 |
|     608 | 0xFFFF438C  |  4294919052 |
|     609 | 0xFFFF8560  |  4294935904 |
|     610 | 0x0280      |         640 |
|     611 | 0xAECA9     |      715945 |
|     612 | 0xFFFF748F  |  4294931599 |
|     613 | 0xFFFF82D6  |  4294935254 |
|     614 | 0xFFFF4A18  |  4294920728 |
|     615 | 0xFFFF828F  |  4294935183 |
|     616 | 0x0055      |          85 |
|     617 | 0x00E0      |         224 |
|     618 | 0x00C2      |         194 |
|     619 | 0x1F59      |        8025 |
|     620 | 0x1F5A      |        8026 |
|     621 | 0x000C      |          12 |
|     622 | 0x1F5B      |        8027 |
|     623 | 0xFFFE75E6  |  4294866406 |
|     624 | 0xDBF8      |       56312 |
|     625 | 0xFFFECDC0  |  4294888896 |
|     626 | 0x9E3E      |       40510 |
|     627 | 0xFFFF139B  |  4294906779 |
|     628 | 0xFFFE7B64  |  4294867812 |
|     629 | 0xFFFF6F20  |  4294930208 |
|     630 | 0xFFFEE7BA  |  4294895546 |
|     631 | 0x0BD0      |        3024 |
|     632 | 0xFFFE7A7A  |  4294867578 |
|     633 | 0xFFFF6A8D  |  4294929037 |
|     634 | 0xFFFE7536  |  4294866230 |
|     635 | 0xFFFF6DEE  |  4294929902 |
|     636 | 0xFFFE744C  |  4294865996 |
|     637 | 0xFFFF695B  |  4294928731 |
|     638 | 0x0B77      |        2935 |
|     639 | 0x0B89      |        2953 |
|     640 | 0xFFFEFDCA  |  4294901194 |
|     641 | 0x004E      |          78 |
|     642 | 0x0B8A      |        2954 |
|     643 | 0x017C      |         380 |
|     644 | 0x1F5C      |        8028 |
|     645 | 0x00A2      |         162 |
|     646 | 0x1F5D      |        8029 |
|     647 | 0x01C2      |         450 |
|     648 | 0xFFFF0600  |  4294903296 |
|     649 | 0x1F5E      |        8030 |
|     650 | 0x1F5F      |        8031 |
|     651 | 0x0002      |           2 |
|     652 | 0x1F60      |        8032 |
|     653 | 0x1F61      |        8033 |
|     654 | 0x0820      |        2080 |
|     655 | 0x1F62      |        8034 |
|     656 | 0xFFFE8096  |  4294869142 |
|     657 | 0xE3C9      |       58313 |
|     658 | 0xFFFF096A  |  4294904170 |
|     659 | 0xFFFEC234  |  4294885940 |
|     660 | 0x9431      |       37937 |
|     661 | 0xFFFF136A  |  4294906730 |
|     662 | 0x0190      |         400 |
|     663 | 0xFFFE8129  |  4294869289 |
|     664 | 0xDBFB      |       56315 |
|     665 | 0xFFFF09AA  |  4294904234 |
|     666 | 0x1F63      |        8035 |
|     667 | 0x0C4E      |        3150 |
|     668 | 0xFFFECAF5  |  4294888181 |
|     669 | 0xA217      |       41495 |
|     670 | 0xFFFF13A4  |  4294906788 |
|     671 | 0x1F64      |        8036 |
|     672 | 0x1F65      |        8037 |
|     673 | 0x1F66      |        8038 |
|     674 | 0x0069      |         105 |
|     675 | 0x1F67      |        8039 |
|     676 | 0x1F68      |        8040 |
|     677 | 0xFFFE750A  |  4294866186 |
|     678 | 0x104DF     |       66783 |
|     679 | 0xFFFF09F2  |  4294904306 |
|     680 | 0x0BB9      |        3001 |
|     681 | 0xFFFE7850  |  4294867024 |
|     682 | 0x10CDF     |       68831 |
|     683 | 0xFFFF0A03  |  4294904323 |
|     684 | 0xFFFE7DE2  |  4294868450 |
|     685 | 0x111C1     |       70081 |
|     686 | 0xFFFF095E  |  4294904158 |
|     687 | 0x0104      |         260 |
|     688 | 0xFFFE77EC  |  4294866924 |
|     689 | 0x1456E     |       83310 |
|     690 | 0xFFFF1728  |  4294907688 |
|     691 | 0x043A      |        1082 |
|     692 | 0x1F69      |        8041 |
|     693 | 0xFFFE792A  |  4294867242 |
|     694 | 0x14AA4     |       84644 |
|     695 | 0xFFFF17DD  |  4294907869 |
|     696 | 0x0BF4      |        3060 |
|     697 | 0x1F6A      |        8042 |
|     698 | 0xFFFE7F67  |  4294868839 |
|     699 | 0x1661E     |       91678 |
|     700 | 0xFFFF1ABA  |  4294908602 |
|     701 | 0x0434      |        1076 |
|     702 | 0x001D      |          29 |
|     703 | 0x1F6B      |        8043 |
|     704 | 0x0B78      |        2936 |
|     705 | 0x010C      |         268 |
|     706 | 0x0B79      |        2937 |
|     707 | 0xFFFF11B8  |  4294906296 |
|     708 | 0xE03B      |       57403 |
|     709 | 0xFFFF0CD7  |  4294905047 |
|     710 | 0x0E9C      |        3740 |
|     711 | 0xFFFF18A3  |  4294908067 |
|     712 | 0xE302      |       58114 |
|     713 | 0x06CD      |        1741 |
|     714 | 0x0B75      |        2933 |
|     715 | 0x09AA      |        2474 |
|     716 | 0x1F6C      |        8044 |
|     717 | 0x0033      |          51 |
|     718 | 0x1F6D      |        8045 |
|     719 | 0x007C      |         124 |
|     720 | 0x1F6E      |        8046 |
|     721 | 0x1F6F      |        8047 |
|     722 | 0x1F70      |        8048 |
|     723 | 0x1F71      |        8049 |
|     724 | 0x1F72      |        8050 |
|     725 | 0x1F73      |        8051 |
|     726 | 0x1F74      |        8052 |
|     727 | 0x1F75      |        8053 |
|     728 | 0x1F76      |        8054 |
|     729 | 0x1F77      |        8055 |
|     730 | 0x1F78      |        8056 |
|     731 | 0x1F79      |        8057 |
|     732 | 0x1F7A      |        8058 |
|     733 | 0x1F7B      |        8059 |
|     734 | 0x00D2      |         210 |
|     735 | 0x1F7C      |        8060 |
|     736 | 0x00C0      |         192 |
|     737 | 0x63A3E     |      408126 |
|     738 | 0x11FB2     |       73650 |
|     739 | 0xFFFFC17C  |  4294951292 |
|     740 | 0x06A4      |        1700 |
|     741 | 0x60B78     |      396152 |
|     742 | 0x10367     |       66407 |
|     743 | 0xFFFFC18C  |  4294951308 |
|     744 | 0x5FFC9     |      393161 |
|     745 | 0x1067E     |       67198 |
|     746 | 0xFFFFC018  |  4294950936 |
|     747 | 0x0DAC      |        3500 |
|     748 | 0x6143D     |      398397 |
|     749 | 0x1003F     |       65599 |
|     750 | 0xFFFFC2AF  |  4294951599 |
|     751 | 0x60CC3     |      396483 |
|     752 | 0xFE74      |       65140 |
|     753 | 0xFFFFC1AD  |  4294951341 |
|     754 | 0x60708     |      395016 |
|     755 | 0xFC37      |       64567 |
|     756 | 0xFFFFC100  |  4294951168 |
|     757 | 0x606B7     |      394935 |
|     758 | 0xF2CB      |       62155 |
|     759 | 0xFFFFC0F6  |  4294951158 |
|     760 | 0x0A85      |        2693 |
|     761 | 0x60236     |      393782 |
|     762 | 0x1103A     |       69690 |
|     763 | 0xFFFFC05B  |  4294951003 |
|     764 | 0x06D4      |        1748 |
|     765 | 0x6024B     |      393803 |
|     766 | 0x104CD     |       66765 |
|     767 | 0xFFFFC069  |  4294951017 |
|     768 | 0x5FED9     |      392921 |
|     769 | 0x10F43     |       69443 |
|     770 | 0xFFFFC03B  |  4294950971 |
|     771 | 0x5F8BF     |      391359 |
|     772 | 0x10E70     |       69232 |
|     773 | 0xFFFFC021  |  4294950945 |
|     774 | 0x639E3     |      408035 |
|     775 | 0x124EA     |       74986 |
|     776 | 0xFFFFC144  |  4294951236 |
|     777 | 0x05DB      |        1499 |
|     778 | 0x68842     |      428098 |
|     779 | 0x2443C     |      148540 |
|     780 | 0xFFFFAC9E  |  4294945950 |
|     781 | 0x0761      |        1889 |
|     782 | 0x5F61A     |      390682 |
|     783 | 0x10561     |       66913 |
|     784 | 0xAF729     |      718633 |
|     785 | 0xFFFF8BB2  |  4294937522 |
|     786 | 0xFFFF83A9  |  4294935465 |
|     787 | 0xB5B1D     |      744221 |
|     788 | 0xFFFF0A6A  |  4294904426 |
|     789 | 0xFFFF63EE  |  4294927342 |
|     790 | 0xB3F26     |      737062 |
|     791 | 0xFFFF8AD0  |  4294937296 |
|     792 | 0xFFFF225C  |  4294910556 |
|     793 | 0xB4B17     |      740119 |
|     794 | 0xFFFFABD4  |  4294945748 |
|     795 | 0xFFFF60DA  |  4294926554 |
|     796 | 0xB7DC0     |      753088 |
|     797 | 0xFFFFF43C  |  4294964284 |
|     798 | 0xFFFF4478  |  4294919288 |
|     799 | 0xB54B8     |      742584 |
|     800 | 0xFFFF4F2A  |  4294922026 |
|     801 | 0xFFFF57D0  |  4294924240 |
|     802 | 0xBB3DB     |      766939 |
|     803 | 0xFFFF652D  |  4294927661 |
|     804 | 0xFFFF4354  |  4294918996 |
|     805 | 0xC3C67     |      801895 |
|     806 | 0xFFFF9B5B  |  4294941531 |
|     807 | 0xADAAB     |      711339 |
|     808 | 0xFFFF5B66  |  4294925158 |
|     809 | 0xFFFF8345  |  4294935365 |
|     810 | 0xB0D36     |      724278 |
|     811 | 0xFFFF4A77  |  4294920823 |
|     812 | 0xFFFF836C  |  4294935404 |
|     813 | 0x0BE2      |        3042 |
|     814 | 0x0829      |        2089 |
|     815 | 0x0B6F      |        2927 |
|     816 | 0x01FD      |         509 |
|     817 | 0x1F7D      |        8061 |
|     818 | 0x1F7E      |        8062 |
|     819 | 0x1F7F      |        8063 |
|     820 | 0x1F80      |        8064 |
|     821 | 0x1F81      |        8065 |
|     822 | 0x1F82      |        8066 |
|     823 | 0x1F83      |        8067 |
|     824 | 0x1F84      |        8068 |
|     825 | 0x61162     |      397666 |
|     826 | 0x10ADF     |       68319 |
|     827 | 0xFFFFC212  |  4294951442 |
|     828 | 0x60CA1     |      396449 |
|     829 | 0x10B99     |       68505 |
|     830 | 0xFFFFC190  |  4294951312 |
|     831 | 0x68AD4     |      428756 |
|     832 | 0x240FD     |      147709 |
|     833 | 0xFFFFACB3  |  4294945971 |
|     834 | 0x1F85      |        8069 |
|     835 | 0x081F      |        2079 |
|     836 | 0x1F86      |        8070 |
|     837 | 0x1F87      |        8071 |
|     838 | 0x1F88      |        8072 |
|     839 | 0x1F89      |        8073 |
|     840 | 0x1F8A      |        8074 |
|     841 | 0x1F8B      |        8075 |
|     842 | 0x1F8C      |        8076 |
|     843 | 0x1F8D      |        8077 |
|     844 | 0x6E616     |      452118 |
|     845 | 0x2C503     |      181507 |
|     846 | 0xFFFFA066  |  4294942822 |
|     847 | 0x61E08     |      400904 |
|     848 | 0x1120A     |       70154 |
|     849 | 0xFFFFC2FA  |  4294951674 |
|     850 | 0x61AC8     |      400072 |
|     851 | 0x10D86     |       68998 |
|     852 | 0xFFFFC2E0  |  4294951648 |
|     853 | 0x058D      |        1421 |
|     854 | 0x603DB     |      394203 |
|     855 | 0x108E0     |       67808 |
|     856 | 0xFFFFC09B  |  4294951067 |
|     857 | 0x60A7A     |      395898 |
|     858 | 0x1082B     |       67627 |
|     859 | 0xFFFFC16F  |  4294951279 |
|     860 | 0x60755     |      395093 |
|     861 | 0x10344     |       66372 |
|     862 | 0xFFFFC107  |  4294951175 |
|     863 | 0x602B1     |      393905 |
|     864 | 0x1017C     |       65916 |
|     865 | 0xFFFFC075  |  4294951029 |
|     866 | 0x5FEBB     |      392891 |
|     867 | 0x10C8B     |       68747 |
|     868 | 0xFFFFBFE5  |  4294950885 |
|     869 | 0x605A8     |      394664 |
|     870 | 0xFE32      |       65074 |
|     871 | 0xFFFFC0D4  |  4294951124 |
|     872 | 0x0140      |         320 |
|     873 | 0x1F8E      |        8078 |
|     874 | 0x0087      |         135 |
|     875 | 0x1F8F      |        8079 |
|     876 | 0x1F90      |        8080 |
|     877 | 0x1F91      |        8081 |
|     878 | 0x1F92      |        8082 |
|     879 | 0x1F93      |        8083 |
|     880 | 0x1F94      |        8084 |
|     881 | 0x1F95      |        8085 |
|     882 | 0x07C6      |        1990 |
|     883 | 0x1F96      |        8086 |

## String References

- **7954**: @@

## Events

### Event 65535

#### Metadata

| Field        | Value   |
|--------------|---------|
| Entrypoint   | 0x0000  |
| Data Size    | 1 bytes |
| Instructions | 1       |

```
      00 01 02 03 04 05 06 07  08 09 0A 0B 0C 0D 0E 0F
      -- -- -- -- -- -- -- --  -- -- -- -- -- -- -- --
0000: 00                                                .               
```

#### Opcodes

```
  0: 0x0000 [0x00] END_REQSTACK()
```

### Event 3

#### Metadata

| Field        | Value       |
|--------------|-------------|
| Entrypoint   | 0x0001      |
| Data Size    | 10766 bytes |
| Instructions | 1024        |

```
      00 01 02 03 04 05 06 07  08 09 0A 0B 0C 0D 0E 0F
      -- -- -- -- -- -- -- --  -- -- -- -- -- -- -- --
0000:    42 1A 23 79 46 01 38  00 80 27 10 49 13 06 01   B.#yF.8..'.I...
0010: 0E 27 10 48 13 06 01 0C  27 10 42 13 06 01 1C 27  .'.H....'.B....'
0020: 10 43 13 06 01 17 27 10  4B 13 06 01 0E 27 10 4F  .C....'.K....'.O
0030: 13 06 01 0C 27 10 4D 13  06 01 0B 27 10 4E 13 06  ....'.M....'.N..
0040: 01 0D 27 10 54 13 06 01  0F 27 10 55 13 06 01 0F  ..'.T....'.U....
0050: 27 10 56 13 06 01 0C 27  10 57 13 06 01 0E 27 10  '.V....'.W....'.
0060: 51 13 06 01 0F 27 10 52  13 06 01 0E 27 10 6C 13  Q....'.R....'.l.
0070: 06 01 0E 27 10 6F 13 06  01 12 27 10 70 13 06 01  ...'.o....'.p...
0080: 0B 27 10 44 13 06 01 05  92 01 49 13 06 01 92 01  .'.D......I.....
0090: 48 13 06 01 92 01 42 13  06 01 92 01 43 13 06 01  H.....B.....C...
00A0: 92 01 4B 13 06 01 92 01  4F 13 06 01 92 01 4D 13  ..K.....O.....M.
00B0: 06 01 92 01 4E 13 06 01  92 01 54 13 06 01 92 01  ....N.....T.....
00C0: 55 13 06 01 92 01 56 13  06 01 92 01 57 13 06 01  U.....V.....W...
00D0: 92 01 51 13 06 01 92 01  52 13 06 01 92 01 44 13  ..Q.....R.....D.
00E0: 06 01 92 01 6C 13 06 01  92 01 6F 13 06 01 92 01  ....l.....o.....
00F0: 70 13 06 01 94 01 F0 FF  FF 7F 94 01 49 13 06 01  p...........I...
0100: 94 01 48 13 06 01 94 01  42 13 06 01 94 01 43 13  ..H.....B.....C.
0110: 06 01 94 01 4B 13 06 01  94 01 4F 13 06 01 94 01  ....K.....O.....
0120: 4D 13 06 01 94 01 4E 13  06 01 94 01 54 13 06 01  M.....N.....T...
0130: 94 01 55 13 06 01 94 01  56 13 06 01 94 01 57 13  ..U.....V.....W.
0140: 06 01 94 01 51 13 06 01  94 01 52 13 06 01 94 01  ....Q.....R.....
0150: 44 13 06 01 94 01 6C 13  06 01 94 01 6F 13 06 01  D.....l.....o...
0160: 94 01 70 13 06 01 BA F0  FF FF 7F 01 80 02 80 03  ..p.............
0170: 80 04 80 BA 49 13 06 01  05 80 06 80 07 80 08 80  ....I...........
0180: BA 48 13 06 01 09 80 0A  80 0B 80 0C 80 BA 42 13  .H............B.
0190: 06 01 0D 80 0E 80 0F 80  10 80 BA 43 13 06 01 11  ...........C....
01A0: 80 12 80 13 80 14 80 BA  4B 13 06 01 15 80 16 80  ........K.......
01B0: 17 80 18 80 BA 4F 13 06  01 19 80 1A 80 1B 80 1C  .....O..........
01C0: 80 BA 4D 13 06 01 1D 80  1E 80 1F 80 20 80 BA 4E  ..M......... ..N
01D0: 13 06 01 21 80 22 80 23  80 1C 80 BA 54 13 06 01  ...!.".#....T...
01E0: 24 80 25 80 26 80 27 80  BA 56 13 06 01 28 80 29  $.%.&.'..V...(.)
01F0: 80 2A 80 2B 80 BA 57 13  06 01 2C 80 2D 80 2E 80  .*.+..W...,.-...
0200: 2F 80 BA 51 13 06 01 30  80 31 80 03 80 27 80 59  /..Q...0.1...'.Y
0210: 05 44 13 06 01 01 BA 44  13 06 01 32 80 33 80 34  .D.....D...2.3.4
0220: 80 35 80 BA 6C 13 06 01  36 80 37 80 1B 80 38 80  .5..l...6.7...8.
0230: BA 6F 13 06 01 39 80 3A  80 3B 80 27 80 BA 70 13  .o...9.:.;.'..p.
0240: 06 01 3C 80 3D 80 1B 80  04 80 5C 00 3E 80 5C 01  ..<.=.....\.>.\.
0250: 3E 80 80 F0 FF FF 7F 80  49 13 06 01 80 48 13 06  >.......I....H..
0260: 01 80 42 13 06 01 80 4B  13 06 01 80 4F 13 06 01  ..B....K....O...
0270: 80 4D 13 06 01 80 4E 13  06 01 80 54 13 06 01 80  .M....N....T....
0280: 55 13 06 01 80 56 13 06  01 80 57 13 06 01 80 51  U....V....W....Q
0290: 13 06 01 80 52 13 06 01  80 6C 13 06 01 80 6F 13  ....R....l....o.
02A0: 06 01 80 70 13 06 01 80  44 13 06 01 2C 44 13 06  ...p....D...,D..
02B0: 01 44 13 06 01 77 70 6F  66 4A 4D 13 06 01 4F 13  .D...wpofJM...O.
02C0: 06 01 4A 4E 13 06 01 48  13 06 01 4A 48 13 06 01  ..JN...H...JH...
02D0: 4E 13 06 01 4A 49 13 06  01 4B 13 06 01 4A 4B 13  N...JI...K...JK.
02E0: 06 01 49 13 06 01 4A 54  13 06 01 42 13 06 01 4A  ..I...JT...B...J
02F0: 56 13 06 01 57 13 06 01  4A 57 13 06 01 56 13 06  V...W...JW...V..
0300: 01 C5 3F 80 6F 13 06 01  6F 13 06 01 73 30 30 30  ..?.o...o...s000
0310: 40 80 C5 3F 80 70 13 06  01 70 13 06 01 73 30 30  @..?.p...p...s00
0320: 32 40 80 C5 3F 80 6C 13  06 01 6C 13 06 01 73 30  2@..?.l...l...s0
0330: 30 31 40 80 81 00 43 13  06 01 6F 76 4D 13 06 01  01@...C...ovM...
0340: 5B 41 80 43 13 06 01 43  13 06 01 6E 65 76 30 27  [A.C...C...nev0'
0350: 10 43 13 06 01 07 66 42  80 49 13 06 01 49 13 06  .C....fB.I...I..
0360: 01 74 6C 6B 30 66 42 80  4D 13 06 01 4D 13 06 01  .tlk0fB.M...M...
0370: 74 6C 6B 30 66 42 80 57  13 06 01 57 13 06 01 74  tlk0fB.W...W...t
0380: 6C 6B 30 66 42 80 56 13  06 01 56 13 06 01 74 68  lk0fB.V...V...th
0390: 6B 31 6C 42 13 06 01 40  80 43 80 9A 5B 44 80 44  k1lB...@.C..[D.D
03A0: 13 06 01 44 13 06 01 00  FE FE FE 5B 45 80 48 13  ...D.......[E.H.
03B0: 06 01 48 13 06 01 00 FE  FE FE 1C 46 80 4E 01 43  ..H........F.N.C
03C0: 13 06 01 27 10 F0 FF FF  7F 21 1C 47 80 45 48 80  ...'.....!.G.EH.
03D0: F0 FF FF 7F F0 FF FF 7F  7A 30 30 30 40 80 1A 02  ........z000@...
03E0: 79 1C 2B 80 27 10 51 13  06 01 06 1C 49 80 52 48  y.+.'.Q.....I.RH
03F0: 80 F0 FF FF 7F F0 FF FF  7F 7A 30 30 30 45 48 80  .........z000EH.
0400: F0 FF FF 7F F0 FF FF 7F  7A 30 30 31 40 80 1C 46  ........z001@..F
0410: 80 5B 4A 80 4E 13 06 01  4E 13 06 01 73 74 61 30  .[J.N...N...sta0
0420: 2A 10 F0 FF FF 7F 4A F0  FF FF 7F 4B 13 06 01 6F  *.....J....K...o
0430: 76 F0 FF FF 7F 52 48 80  F0 FF FF 7F F0 FF FF 7F  v....RH.........
0440: 7A 30 30 31 45 48 80 F0  FF FF 7F F0 FF FF 7F 7A  z001EH.........z
0450: 30 30 32 40 80 1C 49 80  4A 4B 13 06 01 F0 FF FF  002@..I.JK......
0460: 7F 66 42 80 49 13 06 01  49 13 06 01 74 6C 6B 31  .fB.I...I...tlk1
0470: 1C 4B 80 6E 4B 13 06 01  4C 80 99 4B 13 06 01 79  .K.nK...L..K...y
0480: 00 F0 FF FF 7F F0 FF FF  7F 53 49 13 06 01 49 13  .........SI...I.
0490: 06 01 74 6C 6B 31 4A 49  13 06 01 F0 FF FF 7F 6F  ..tlk1JI.......o
04A0: 76 49 13 06 01 27 10 F0  FF FF 7F 22 1C 2B 80 1A  vI...'.....".+..
04B0: 23 79 52 48 80 F0 FF FF  7F F0 FF FF 7F 7A 30 30  #yRH.........z00
04C0: 32 45 48 80 F0 FF FF 7F  F0 FF FF 7F 7A 30 30 33  2EH.........z003
04D0: 40 80 6C 42 13 06 01 4D  80 43 80 7A 00 F0 FF FF  @.lB...M.C.z....
04E0: 7F 7A 00 51 13 06 01 1C  43 80 BA 4B 13 06 01 4E  .z.Q....C..K...N
04F0: 80 4F 80 50 80 51 80 BA  4F 13 06 01 52 80 53 80  .O.P.Q..O...R.S.
0500: 54 80 55 80 BA 4D 13 06  01 56 80 57 80 58 80 55  T.U..M...V.W.X.U
0510: 80 BA 4E 13 06 01 59 80  5A 80 5B 80 55 80 BA 51  ..N...Y.Z.[.U..Q
0520: 13 06 01 5C 80 5D 80 5E  80 51 80 BA 52 13 06 01  ...\.].^.Q..R...
0530: 5F 80 60 80 61 80 51 80  BA 55 13 06 01 30 80 31  _.`.a.Q..U...0.1
0540: 80 03 80 27 80 BA F0 FF  FF 7F 62 80 63 80 64 80  ...'......b.c.d.
0550: 65 80 4A 4F 13 06 01 42  13 06 01 4A 4D 13 06 01  e.JO...B...JM...
0560: 42 13 06 01 4A 4E 13 06  01 42 13 06 01 4A 54 13  B...JN...B...JT.
0570: 06 01 42 13 06 01 4A 51  13 06 01 42 13 06 01 4A  ..B...JQ...B...J
0580: 52 13 06 01 42 13 06 01  4A 55 13 06 01 42 13 06  R...B...JU...B..
0590: 01 4A 49 13 06 01 42 13  06 01 4A 42 13 06 01 49  .JI...B...JB...I
05A0: 13 06 01 4A 4B 13 06 01  42 13 06 01 4A 48 13 06  ...JK...B...JH..
05B0: 01 42 13 06 01 6B 69 64  6C 30 56 13 06 01 6B 69  .B...kidl0V...ki
05C0: 64 6C 30 57 13 06 01 4A  56 13 06 01 42 13 06 01  dl0W...JV...B...
05D0: 4A 57 13 06 01 42 13 06  01 7B 42 13 06 01 7B 49  JW...B...{B...{I
05E0: 13 06 01 7B 4B 13 06 01  7B 48 13 06 01 4A F0 FF  ...{K...{H...J..
05F0: FF 7F 42 13 06 01 1C 66  80 6F 76 49 13 06 01 5B  ..B....f.ovI...[
0600: 4A 80 49 13 06 01 49 13  06 01 73 74 62 30 52 48  J.I...I...stb0RH
0610: 80 F0 FF FF 7F F0 FF FF  7F 7A 30 30 33 45 48 80  .........z003EH.
0620: F0 FF FF 7F F0 FF FF 7F  7A 30 30 33 40 80 1A 02  ........z003@...
0630: 79 1C 2B 80 52 48 80 F0  FF FF 7F F0 FF FF 7F 7A  y.+.RH.........z
0640: 30 30 33 45 48 80 F0 FF  FF 7F F0 FF FF 7F 6F 76  003EH.........ov
0650: 36 30 40 80 45 48 80 F0  FF FF 7F F0 FF FF 7F 7A  60@.EH.........z
0660: 30 30 34 40 80 1C 67 80  52 48 80 F0 FF FF 7F F0  004@..g.RH......
0670: FF FF 7F 7A 30 30 34 45  48 80 F0 FF FF 7F F0 FF  ...z004EH.......
0680: FF 7F 6F 76 34 30 40 80  45 48 80 F0 FF FF 7F F0  ..ov40@.EH......
0690: FF FF 7F 7A 30 30 35 40  80 1C 47 80 2B 42 13 06  ...z005@..G.+B..
06A0: 01 68 80 23 52 48 80 F0  FF FF 7F F0 FF FF 7F 7A  .h.#RH.........z
06B0: 30 30 35 45 48 80 F0 FF  FF 7F F0 FF FF 7F 7A 30  005EH.........z0
06C0: 30 36 40 80 5B 4A 80 4F  13 06 01 4F 13 06 01 73  06@.[J.O...O...s
06D0: 74 61 30 2B 4F 13 06 01  69 80 23 52 48 80 F0 FF  ta0+O...i.#RH...
06E0: FF 7F F0 FF FF 7F 7A 30  30 36 45 48 80 F0 FF FF  ......z006EH....
06F0: 7F F0 FF FF 7F 6F 76 34  30 40 80 45 48 80 F0 FF  .....ov40@.EH...
0700: FF 7F F0 FF FF 7F 7A 30  30 37 40 80 5B 6A 80 42  ......z007@.[j.B
0710: 13 06 01 42 13 06 01 74  68 62 30 1C 6B 80 2B 42  ...B...thb0.k.+B
0720: 13 06 01 6C 80 1C 47 80  52 48 80 F0 FF FF 7F F0  ...l..G.RH......
0730: FF FF 7F 7A 30 30 37 45  48 80 F0 FF FF 7F F0 FF  ...z007EH.......
0740: FF 7F 6F 76 36 30 40 80  45 48 80 F0 FF FF 7F F0  ..ov60@.EH......
0750: FF FF 7F 7A 30 30 38 40  80 1C 6D 80 6B 69 64 6C  ...z008@..m.kidl
0760: 30 4F 13 06 01 6B 69 64  6C 30 49 13 06 01 BA 52  0O...kidl0I....R
0770: 13 06 01 6E 80 6F 80 70  80 51 80 1C 6D 80 23 52  ...n.o.p.Q..m.#R
0780: 48 80 F0 FF FF 7F F0 FF  FF 7F 7A 30 30 38 45 48  H.........z008EH
0790: 80 F0 FF FF 7F F0 FF FF  7F 7A 30 30 39 40 80 79  .........z009@.y
07A0: 00 49 13 06 01 4F 13 06  01 6E 4F 13 06 01 71 80  .I...O...nO...q.
07B0: 99 4F 13 06 01 27 10 51  13 06 01 04 27 10 52 13  .O...'.Q....'.R.
07C0: 06 01 04 2B 4F 13 06 01  72 80 23 52 48 80 F0 FF  ...+O...r.#RH...
07D0: FF 7F F0 FF FF 7F 7A 30  30 39 45 48 80 F0 FF FF  ......z009EH....
07E0: 7F F0 FF FF 7F 7A 30 31  30 40 80 79 00 49 13 06  .....z010@.y.I..
07F0: 01 42 13 06 01 5B 6A 80  42 13 06 01 42 13 06 01  .B...[j.B...B...
0800: 74 68 62 31 2B 42 13 06  01 73 80 23 2B 42 13 06  thb1+B...s.#+B..
0810: 01 74 80 23 52 48 80 F0  FF FF 7F F0 FF FF 7F 7A  .t.#RH.........z
0820: 30 31 30 45 48 80 F0 FF  FF 7F F0 FF FF 7F 7A 30  010EH.........z0
0830: 31 31 40 80 79 00 4F 13  06 01 48 13 06 01 1C 43  11@.y.O...H....C
0840: 80 5B 75 80 42 13 06 01  42 13 06 01 66 63 30 30  .[u.B...B...fc00
0850: 2B 48 13 06 01 76 80 23  52 48 80 F0 FF FF 7F F0  +H...v.#RH......
0860: FF FF 7F 7A 30 31 31 45  48 80 F0 FF FF 7F F0 FF  ...z011EH.......
0870: FF 7F 7A 30 31 32 40 80  79 00 4F 13 06 01 42 13  ..z012@.y.O...B.
0880: 06 01 5B 77 80 42 13 06  01 42 13 06 01 74 6C 61  ..[w.B...B...tla
0890: 30 2B 42 13 06 01 78 80  23 5B 77 80 42 13 06 01  0+B...x.#[w.B...
08A0: 42 13 06 01 74 6C 61 31  66 42 80 49 13 06 01 49  B...tla1fB.I...I
08B0: 13 06 01 74 6C 6B 30 2B  49 13 06 01 79 80 23 66  ...tlk0+I...y.#f
08C0: 42 80 49 13 06 01 49 13  06 01 74 6C 6B 31 52 48  B.I...I...tlk1RH
08D0: 80 F0 FF FF 7F F0 FF FF  7F 7A 30 31 32 45 48 80  .........z012EH.
08E0: F0 FF FF 7F F0 FF FF 7F  7A 30 31 33 40 80 5B 75  ........z013@.[u
08F0: 80 42 13 06 01 42 13 06  01 66 63 30 31 2B 42 13  .B...B...fc01+B.
0900: 06 01 7A 80 23 5B 75 80  42 13 06 01 42 13 06 01  ..z.#[u.B...B...
0910: 66 63 30 30 52 48 80 F0  FF FF 7F F0 FF FF 7F 7A  fc00RH.........z
0920: 30 31 33 45 48 80 F0 FF  FF 7F F0 FF FF 7F 7A 30  013EH.........z0
0930: 31 34 40 80 1C 43 80 4E  01 56 13 06 01 4E 01 57  14@..C.N.V...N.W
0940: 13 06 01 27 10 42 13 06  01 03 6E 4F 13 06 01 7B  ...'.B....nO...{
0950: 80 99 4F 13 06 01 2B 4F  13 06 01 7C 80 27 10 51  ..O...+O...|.'.Q
0960: 13 06 01 05 27 10 52 13  06 01 05 1C 46 80 5B 4A  ....'.R.....F.[J
0970: 80 49 13 06 01 49 13 06  01 73 74 61 30 03 03 10  .I...I...sta0...
0980: 6B 80 27 10 6C 13 06 01  09 2A 10 42 13 06 01 80  k.'.l....*.B....
0990: 42 13 06 01 5B 75 80 42  13 06 01 42 13 06 01 66  B...[u.B...B...f
09A0: 63 30 31 2A 10 6C 13 06  01 23 52 48 80 F0 FF FF  c01*.l...#RH....
09B0: 7F F0 FF FF 7F 7A 30 31  34 45 48 80 F0 FF FF 7F  .....z014EH.....
09C0: F0 FF FF 7F 7A 30 31 35  40 80 2B 42 13 06 01 7D  ....z015@.+B...}
09D0: 80 1C 43 80 BA 4F 13 06  01 7E 80 7F 80 80 80 51  ..C..O...~.....Q
09E0: 80 6B 69 64 6C 30 4E 13  06 01 5B 81 80 51 13 06  .kidl0N...[..Q..
09F0: 01 51 13 06 01 6E 79 61  30 5B 81 80 54 13 06 01  .Q...nya0[..T...
0A00: 54 13 06 01 6E 79 61 30  6B 69 64 6C 30 49 13 06  T...nya0kidl0I..
0A10: 01 1C 43 80 23 5B 82 80  42 13 06 01 42 13 06 01  ..C.#[..B...B...
0A20: 73 69 7A 30 52 48 80 F0  FF FF 7F F0 FF FF 7F 7A  siz0RH.........z
0A30: 30 31 35 45 48 80 F0 FF  FF 7F F0 FF FF 7F 7A 30  015EH.........z0
0A40: 31 36 40 80 BA F0 FF FF  7F 83 80 84 80 03 80 51  16@............Q
0A50: 80 27 10 6C 13 06 01 0C  2B 42 13 06 01 85 80 1C  .'.l....+B......
0A60: 66 80 52 48 80 F0 FF FF  7F F0 FF FF 7F 7A 30 31  f.RH.........z01
0A70: 36 45 48 80 F0 FF FF 7F  F0 FF FF 7F 6F 76 34 30  6EH.........ov40
0A80: 40 80 45 48 80 F0 FF FF  7F F0 FF FF 7F 7A 30 31  @.EH.........z01
0A90: 37 40 80 45 48 80 F0 FF  FF 7F F0 FF FF 7F 34 30  7@.EH.........40
0AA0: 32 32 40 80 27 10 F0 FF  FF 7F 24 27 10 4F 13 06  22@.'.....$'.O..
0AB0: 01 04 27 10 51 13 06 01  07 27 10 52 13 06 01 06  ..'.Q....'.R....
0AC0: 27 10 4B 13 06 01 06 27  10 55 13 06 01 04 27 10  '.K....'.U....'.
0AD0: 54 13 06 01 04 27 10 4E  13 06 01 05 27 10 48 13  T....'.N....'.H.
0AE0: 06 01 05 5B 4A 80 49 13  06 01 49 13 06 01 73 74  ...[J.I...I...st
0AF0: 61 30 1C 4B 80 5B 75 80  42 13 06 01 42 13 06 01  a0.K.[u.B...B...
0B00: 66 63 30 30 1C 6B 80 52  48 80 F0 FF FF 7F F0 FF  fc00.k.RH.......
0B10: FF 7F 7A 30 31 37 45 48  80 F0 FF FF 7F F0 FF FF  ..z017EH........
0B20: 7F 30 62 6C 72 40 80 45  48 80 F0 FF FF 7F F0 FF  .0blr@.EH.......
0B30: FF 7F 6F 76 36 30 40 80  45 48 80 F0 FF FF 7F F0  ..ov60@.EH......
0B40: FF FF 7F 7A 31 31 38 40  80 1C 86 80 4E 00 56 13  ...z118@....N.V.
0B50: 06 01 4E 00 57 13 06 01  5B 87 80 44 13 06 01 44  ..N.W...[..D...D
0B60: 13 06 01 68 6F 75 30 27  10 44 13 06 01 02 1C 43  ...hou0'.D.....C
0B70: 80 52 48 80 F0 FF FF 7F  F0 FF FF 7F 7A 31 31 38  .RH.........z118
0B80: 45 48 80 F0 FF FF 7F F0  FF FF 7F 7A 30 31 39 40  EH.........z019@
0B90: 80 1C 43 80 6B 69 64 6C  30 42 13 06 01 27 10 42  ..C.kidl0B...'.B
0BA0: 13 06 01 04 6B 69 64 6C  30 54 13 06 01 6B 69 64  ....kidl0T...kid
0BB0: 6C 30 51 13 06 01 6B 69  64 6C 30 49 13 06 01 6B  l0Q...kidl0I...k
0BC0: 69 64 6C 30 48 13 06 01  1C 88 80 52 48 80 F0 FF  idl0H......RH...
0BD0: FF 7F F0 FF FF 7F 7A 30  31 39 45 48 80 F0 FF FF  ......z019EH....
0BE0: 7F F0 FF FF 7F 7A 30 32  30 40 80 5B 75 80 42 13  .....z020@.[u.B.
0BF0: 06 01 42 13 06 01 66 63  30 30 1C 89 80 52 48 80  ..B...fc00...RH.
0C00: F0 FF FF 7F F0 FF FF 7F  7A 30 32 30 45 48 80 F0  ........z020EH..
0C10: FF FF 7F F0 FF FF 7F 7A  30 32 31 40 80 1C 49 80  .......z021@..I.
0C20: 2B 44 13 06 01 8A 80 1C  8B 80 23 52 48 80 F0 FF  +D........#RH...
0C30: FF 7F F0 FF FF 7F 7A 30  32 31 45 48 80 F0 FF FF  ......z021EH....
0C40: 7F F0 FF FF 7F 30 62 6C  72 40 80 45 48 80 F0 FF  .....0blr@.EH...
0C50: FF 7F F0 FF FF 7F 7A 30  32 32 40 80 4A 42 13 06  ......z022@.JB..
0C60: 01 44 13 06 01 4A 4F 13  06 01 44 13 06 01 4A 4D  .D...JO...D...JM
0C70: 13 06 01 44 13 06 01 4A  4B 13 06 01 44 13 06 01  ...D...JK...D...
0C80: 4A 4E 13 06 01 44 13 06  01 5B 75 80 42 13 06 01  JN...D...[u.B...
0C90: 42 13 06 01 66 63 30 31  2B 42 13 06 01 8C 80 23  B...fc01+B.....#
0CA0: 5B 75 80 42 13 06 01 42  13 06 01 66 63 30 30 52  [u.B...B...fc00R
0CB0: 48 80 F0 FF FF 7F F0 FF  FF 7F 7A 30 32 32 45 48  H.........z022EH
0CC0: 80 F0 FF FF 7F F0 FF FF  7F 7A 30 32 33 40 80 4A  .........z023@.J
0CD0: 48 13 06 01 44 13 06 01  1C 46 80 4A 49 13 06 01  H...D....F.JI...
0CE0: 44 13 06 01 1C 8D 80 1C  8E 80 52 48 80 F0 FF FF  D.........RH....
0CF0: 7F F0 FF FF 7F 7A 30 32  33 45 48 80 F0 FF FF 7F  .....z023EH.....
0D00: F0 FF FF 7F 7A 30 32 34  40 80 81 00 44 13 06 01  ....z024@...D...
0D10: 1C 46 80 5B 87 80 44 13  06 01 44 13 06 01 68 6F  .F.[..D...D...ho
0D20: 75 31 1C 8F 80 52 48 80  F0 FF FF 7F F0 FF FF 7F  u1...RH.........
0D30: 7A 30 32 34 45 48 80 F0  FF FF 7F F0 FF FF 7F 6F  z024EH.........o
0D40: 76 33 30 40 80 45 48 80  F0 FF FF 7F F0 FF FF 7F  v30@.EH.........
0D50: 7A 30 32 35 40 80 1C 6D  80 BA 4B 13 06 01 90 80  z025@..m..K.....
0D60: 91 80 92 80 40 80 BA 42  13 06 01 93 80 94 80 95  ....@..B........
0D70: 80 40 80 BA 49 13 06 01  96 80 97 80 98 80 40 80  .@..I.........@.
0D80: BA 48 13 06 01 99 80 9A  80 9B 80 40 80 4A 48 13  .H.........@.JH.
0D90: 06 01 44 13 06 01 4A 4B  13 06 01 44 13 06 01 4A  ..D...JK...D...J
0DA0: 42 13 06 01 44 13 06 01  4A 49 13 06 01 44 13 06  B...D...JI...D..
0DB0: 01 4A 54 13 06 01 44 13  06 01 4A 55 13 06 01 44  .JT...D...JU...D
0DC0: 13 06 01 4A 51 13 06 01  44 13 06 01 4A 52 13 06  ...JQ...D...JR..
0DD0: 01 44 13 06 01 4A F0 FF  FF 7F 44 13 06 01 1C 9C  .D...J....D.....
0DE0: 80 5B 81 80 49 13 06 01  49 13 06 01 73 74 64 61  .[..I...I...stda
0DF0: 27 10 4E 13 06 01 09 52  48 80 F0 FF FF 7F F0 FF  '.N....RH.......
0E00: FF 7F 7A 30 32 35 45 48  80 F0 FF FF 7F F0 FF FF  ..z025EH........
0E10: 7F 6F 76 34 30 40 80 45  48 80 F0 FF FF 7F F0 FF  .ov40@.EH.......
0E20: FF 7F 7A 30 32 36 40 80  5B 9D 80 4B 13 06 01 4B  ..z026@.[..K...K
0E30: 13 06 01 6D 69 6C 30 1C  9E 80 27 10 42 13 06 01  ...mil0...'.B...
0E40: 10 1C 49 80 27 10 F0 FF  FF 7F 25 1C 46 80 4A 49  ..I.'.....%.F.JI
0E50: 13 06 01 42 13 06 01 27  10 48 13 06 01 08 1C 47  ...B...'.H.....G
0E60: 80 5B 9F 80 49 13 06 01  49 13 06 01 64 6B 69 30  .[..I...I...dki0
0E70: 1A 23 79 1C 47 80 52 48  80 F0 FF FF 7F F0 FF FF  .#y.G.RH........
0E80: 7F 7A 30 32 36 45 48 80  F0 FF FF 7F F0 FF FF 7F  .z026EH.........
0E90: 30 62 6C 72 40 80 27 10  58 13 06 01 07 27 10 59  0blr@.'.X....'.Y
0EA0: 13 06 01 07 27 10 5A 13  06 01 07 27 10 5B 13 06  ....'.Z....'.[..
0EB0: 01 07 92 01 58 13 06 01  92 01 59 13 06 01 92 01  ....X.....Y.....
0EC0: 5A 13 06 01 92 01 5B 13  06 01 94 01 58 13 06 01  Z.....[.....X...
0ED0: 94 01 59 13 06 01 94 01  5A 13 06 01 94 01 5B 13  ..Y.....Z.....[.
0EE0: 06 01 7B 49 13 06 01 7B  F0 FF FF 7F 7B 48 13 06  ..{I...{....{H..
0EF0: 01 7B 42 13 06 01 7B 44  13 06 01 1C 47 80 6B 69  .{B...{D....G.ki
0F00: 64 6C 30 42 13 06 01 6B  69 64 6C 30 48 13 06 01  dl0B...kidl0H...
0F10: 6B 69 64 6C 30 44 13 06  01 6B 69 64 6C 30 49 13  kidl0D...kidl0I.
0F20: 06 01 1C 43 80 59 05 44  13 06 01 00 81 01 44 13  ...C.Y.D......D.
0F30: 06 01 BA 44 13 06 01 32  80 33 80 A0 80 14 80 BA  ...D...2.3......
0F40: 48 13 06 01 32 80 33 80  A0 80 14 80 BA 42 13 06  H...2.3......B..
0F50: 01 32 80 33 80 A0 80 14  80 27 10 44 13 06 01 03  .2.3.....'.D....
0F60: 27 10 48 13 06 01 04 27  10 42 13 06 01 09 BA F0  '.H....'.B......
0F70: FF FF 7F A1 80 A2 80 A3  80 A4 80 BA 49 13 06 01  ............I...
0F80: A5 80 A6 80 A7 80 51 80  BA 4B 13 06 01 A8 80 A9  ......Q..K......
0F90: 80 AA 80 51 80 BA 4F 13  06 01 AB 80 AC 80 AD 80  ...Q..O.........
0FA0: 51 80 BA 4D 13 06 01 AE  80 AF 80 B0 80 51 80 BA  Q..M.........Q..
0FB0: 4E 13 06 01 B1 80 B2 80  B3 80 B4 80 BA 54 13 06  N............T..
0FC0: 01 B5 80 B6 80 B7 80 B4  80 BA 55 13 06 01 B8 80  ..........U.....
0FD0: B9 80 BA 80 B4 80 BA 56  13 06 01 BB 80 BC 80 BD  .......V........
0FE0: 80 B4 80 BA 57 13 06 01  BE 80 BF 80 C0 80 40 80  ....W.........@.
0FF0: BA 51 13 06 01 C1 80 C2  80 C3 80 C4 80 BA 52 13  .Q............R.
1000: 06 01 C5 80 C6 80 C7 80  C4 80 BA 58 13 06 01 C8  ...........X....
1010: 80 C9 80 CA 80 CB 80 BA  59 13 06 01 CC 80 CD 80  ........Y.......
1020: CE 80 CF 80 BA 5A 13 06  01 D0 80 D1 80 D2 80 CB  .....Z..........
1030: 80 BA 5B 13 06 01 D3 80  D4 80 1B 80 D5 80 4A F0  ..[...........J.
1040: FF FF 7F 44 13 06 01 4A  52 13 06 01 44 13 06 01  ...D...JR...D...
1050: 4A 4B 13 06 01 44 13 06  01 4A 55 13 06 01 44 13  JK...D...JU...D.
1060: 06 01 1C D6 80 4A 4F 13  06 01 44 13 06 01 4A 56  .....JO...D...JV
1070: 13 06 01 44 13 06 01 1C  D6 80 4A 4D 13 06 01 44  ...D......JM...D
1080: 13 06 01 1C D6 80 4A 4E  13 06 01 44 13 06 01 4A  ......JN...D...J
1090: 51 13 06 01 44 13 06 01  1C D6 80 4A 49 13 06 01  Q...D......JI...
10A0: 44 13 06 01 1C D6 80 4A  54 13 06 01 44 13 06 01  D......JT...D...
10B0: 81 00 42 13 06 01 81 00  44 13 06 01 5B D7 80 48  ..B.....D...[..H
10C0: 13 06 01 48 13 06 01 00  FE FE FE 5B D8 80 44 13  ...H.......[..D.
10D0: 06 01 44 13 06 01 00 FE  FE FE 5B D9 80 48 13 06  ..D.......[..H..
10E0: 01 48 13 06 01 00 FE FE  FE 5B DA 80 44 13 06 01  .H.......[..D...
10F0: 44 13 06 01 00 FE FE FE  1C 43 80 5B DB 80 44 13  D........C.[..D.
1100: 06 01 44 13 06 01 6E 65  76 30 5B DC 80 48 13 06  ..D...nev0[..H..
1110: 01 48 13 06 01 6E 65 76  30 5B 41 80 42 13 06 01  .H...nev0[A.B...
1120: 42 13 06 01 6E 65 76 6C  5B 9D 80 4B 13 06 01 4B  B...nevl[..K...K
1130: 13 06 01 6D 69 6C 6C 66  DD 80 4E 13 06 01 4E 13  ...millf..N...N.
1140: 06 01 73 69 6E 62 7B 4E  13 06 01 80 58 13 06 01  ..sinb{N....X...
1150: 80 59 13 06 01 80 5A 13  06 01 80 5B 13 06 01 4A  .Y....Z....[...J
1160: 58 13 06 01 5A 13 06 01  4A 5A 13 06 01 58 13 06  X...Z...JZ...X..
1170: 01 6F 76 58 13 06 01 66  42 80 58 13 06 01 58 13  .ovX...fB.X...X.
1180: 06 01 74 6C 6B 30 48 DE  80 23 5C 00 DF 80 5C 01  ..tlk0H..#\...\.
1190: DF 80 9A 1C 6D 80 45 48  80 F0 FF FF 7F F0 FF FF  ....m.EH........
11A0: 7F 7A 30 32 37 40 80 1A  02 79 1C 67 80 52 48 80  .z027@...y.g.RH.
11B0: F0 FF FF 7F F0 FF FF 7F  7A 30 32 37 45 48 80 F0  ........z027EH..
11C0: FF FF 7F F0 FF FF 7F 6F  76 34 30 40 80 45 48 80  .......ov40@.EH.
11D0: F0 FF FF 7F F0 FF FF 7F  7A 30 32 38 40 80 1C E0  ........z028@...
11E0: 80 52 48 80 F0 FF FF 7F  F0 FF FF 7F 7A 30 32 38  .RH.........z028
11F0: 45 48 80 F0 FF FF 7F F0  FF FF 7F 7A 30 32 39 40  EH.........z029@
1200: 80 2B 44 13 06 01 E1 80  23 52 48 80 F0 FF FF 7F  .+D.....#RH.....
1210: F0 FF FF 7F 7A 30 32 39  45 48 80 F0 FF FF 7F F0  ....z029EH......
1220: FF FF 7F 7A 30 33 30 40  80 2B 48 13 06 01 E2 80  ...z030@.+H.....
1230: 23 5B DC 80 48 13 06 01  48 13 06 01 6E 65 76 31  #[..H...H...nev1
1240: 5B DB 80 44 13 06 01 44  13 06 01 6E 65 76 31 1C  [..D...D...nev1.
1250: 47 80 52 48 80 F0 FF FF  7F F0 FF FF 7F 7A 30 33  G.RH.........z03
1260: 30 45 48 80 F0 FF FF 7F  F0 FF FF 7F 7A 30 33 31  0EH.........z031
1270: 40 80 1C E3 80 2B 44 13  06 01 E4 80 23 52 48 80  @....+D.....#RH.
1280: F0 FF FF 7F F0 FF FF 7F  7A 30 33 31 45 48 80 F0  ........z031EH..
1290: FF FF 7F F0 FF FF 7F 6F  76 34 30 40 80 45 48 80  .......ov40@.EH.
12A0: F0 FF FF 7F F0 FF FF 7F  7A 31 33 31 40 80 2B 44  ........z131@.+D
12B0: 13 06 01 E5 80 23 52 48  80 F0 FF FF 7F F0 FF FF  .....#RH........
12C0: 7F 7A 31 33 31 45 48 80  F0 FF FF 7F F0 FF FF 7F  .z131EH.........
12D0: 6F 76 34 30 40 80 45 48  80 F0 FF FF 7F F0 FF FF  ov40@.EH........
12E0: 7F 7A 30 33 32 40 80 2B  44 13 06 01 E6 80 23 7C  .z032@.+D.....#|
12F0: 00 48 13 06 01 2B 48 13  06 01 E7 80 23 7C 01 48  .H...+H.....#|.H
1300: 13 06 01 2B 44 13 06 01  E8 80 23 52 48 80 F0 FF  ...+D.....#RH...
1310: FF 7F F0 FF FF 7F 7A 30  33 32 45 48 80 F0 FF FF  ......z032EH....
1320: 7F F0 FF FF 7F 6F 76 34  30 40 80 45 48 80 F0 FF  .....ov40@.EH...
1330: FF 7F F0 FF FF 7F 7A 30  33 33 40 80 03 02 10 E9  ......z033@.....
1340: 80 2B 44 13 06 01 EA 80  23 52 48 80 F0 FF FF 7F  .+D.....#RH.....
1350: F0 FF FF 7F 7A 30 33 33  45 48 80 F0 FF FF 7F F0  ....z033EH......
1360: FF FF 7F 7A 30 33 34 40  80 2B 44 13 06 01 EB 80  ...z034@.+D.....
1370: 23 52 48 80 F0 FF FF 7F  F0 FF FF 7F 7A 30 33 34  #RH.........z034
1380: 45 48 80 F0 FF FF 7F F0  FF FF 7F 7A 31 33 34 40  EH.........z134@
1390: 80 2B 44 13 06 01 EC 80  23 5B DC 80 48 13 06 01  .+D.....#[..H...
13A0: 48 13 06 01 6E 65 76 32  5B DB 80 44 13 06 01 44  H...nev2[..D...D
13B0: 13 06 01 6E 65 76 32 1C  E3 80 52 48 80 F0 FF FF  ...nev2...RH....
13C0: 7F F0 FF FF 7F 7A 31 33  34 45 48 80 F0 FF FF 7F  .....z134EH.....
13D0: F0 FF FF 7F 7A 30 33 35  40 80 1C E0 80 2B 44 13  ....z035@....+D.
13E0: 06 01 ED 80 1C 6B 80 52  48 80 F0 FF FF 7F F0 FF  .....k.RH.......
13F0: FF 7F 7A 30 33 35 45 48  80 F0 FF FF 7F F0 FF FF  ..z035EH........
1400: 7F 6F 76 34 30 40 80 45  48 80 F0 FF FF 7F F0 FF  .ov40@.EH.......
1410: FF 7F 7A 30 33 36 40 80  1C 6B 80 23 52 48 80 F0  ..z036@..k.#RH..
1420: FF FF 7F F0 FF FF 7F 7A  30 33 36 45 48 80 F0 FF  .......z036EH...
1430: FF 7F F0 FF FF 7F 7A 30  33 37 40 80 2B 44 13 06  ......z037@.+D..
1440: 01 EE 80 23 52 48 80 F0  FF FF 7F F0 FF FF 7F 7A  ...#RH.........z
1450: 30 33 37 45 48 80 F0 FF  FF 7F F0 FF FF 7F 6F 76  037EH.........ov
1460: 34 30 40 80 45 48 80 F0  FF FF 7F F0 FF FF 7F 7A  40@.EH.........z
1470: 30 33 38 40 80 7C 00 42  13 06 01 2B 42 13 06 01  038@.|.B...+B...
1480: EF 80 23 7C 01 42 13 06  01 52 48 80 F0 FF FF 7F  ..#|.B...RH.....
1490: F0 FF FF 7F 7A 30 33 38  45 48 80 F0 FF FF 7F F0  ....z038EH......
14A0: FF FF 7F 7A 30 33 39 40  80 1C 43 80 4E 01 42 13  ...z039@..C.N.B.
14B0: 06 01 1C F0 80 7C 00 48  13 06 01 5B 45 80 48 13  .....|.H...[E.H.
14C0: 06 01 48 13 06 01 6E 65  76 33 5B 44 80 44 13 06  ..H...nev3[D.D..
14D0: 01 44 13 06 01 6E 65 76  33 45 48 80 F0 FF FF 7F  .D...nev3EH.....
14E0: F0 FF FF 7F 73 65 6B 69  40 80 2B 44 13 06 01 F1  ....seki@.+D....
14F0: 80 1C F2 80 4E 00 42 13  06 01 1C F3 80 52 48 80  ....N.B......RH.
1500: F0 FF FF 7F F0 FF FF 7F  7A 30 33 39 45 48 80 F0  ........z039EH..
1510: FF FF 7F F0 FF FF 7F 7A  30 34 30 40 80 1C 46 80  .......z040@..F.
1520: 2B 48 13 06 01 F4 80 1C  2B 80 27 10 5A 13 06 01  +H......+.'.Z...
1530: 03 1C 47 80 27 10 5B 13  06 01 03 1C 49 80 27 10  ..G.'.[.....I.'.
1540: 58 13 06 01 03 1C 49 80  27 10 59 13 06 01 03 4E  X.....I.'.Y....N
1550: 01 42 13 06 01 1C 6B 80  5B 45 80 48 13 06 01 48  .B....k.[E.H...H
1560: 13 06 01 6E 65 76 34 5B  D8 80 44 13 06 01 44 13  ...nev4[..D...D.
1570: 06 01 6E 65 76 34 52 48  80 F0 FF FF 7F F0 FF FF  ..nev4RH........
1580: 7F 7A 30 34 30 45 48 80  F0 FF FF 7F F0 FF FF 7F  .z040EH.........
1590: 30 62 6C 72 40 80 45 48  80 F0 FF FF 7F F0 FF FF  0blr@.EH........
15A0: 7F 7A 30 34 31 40 80 1C  E3 80 2B 44 13 06 01 F5  .z041@....+D....
15B0: 80 1C F6 80 23 55 48 80  F0 FF FF 7F F0 FF FF 7F  ....#UH.........
15C0: 7A 30 34 31 45 48 80 F0  FF FF 7F F0 FF FF 7F 6F  z041EH.........o
15D0: 76 34 30 40 80 45 48 80  F0 FF FF 7F F0 FF FF 7F  v40@.EH.........
15E0: 7A 30 34 32 40 80 1C 47  80 81 00 48 13 06 01 81  z042@..G...H....
15F0: 00 44 13 06 01 5B D7 80  48 13 06 01 48 13 06 01  .D...[..H...H...
1600: 6E 65 76 35 5B D8 80 44  13 06 01 44 13 06 01 6E  nev5[..D...D...n
1610: 65 76 35 1C 47 80 2B 44  13 06 01 F7 80 1C F8 80  ev5.G.+D........
1620: 5D 40 80 F9 80 1C F8 80  23 7C 01 48 13 06 01 5B  ]@......#|.H...[
1630: D9 80 48 13 06 01 48 13  06 01 6E 65 76 36 5B DA  ..H...H...nev6[.
1640: 80 44 13 06 01 44 13 06  01 6E 65 76 36 1C E3 80  .D...D...nev6...
1650: 2B 48 13 06 01 FA 80 1C  9E 80 52 48 80 F0 FF FF  +H........RH....
1660: 7F F0 FF FF 7F 7A 30 34  32 45 48 80 F0 FF FF 7F  .....z042EH.....
1670: F0 FF FF 7F 7A 30 34 33  40 80 1C 71 80 4E 00 42  ....z043@..q.N.B
1680: 13 06 01 1C FB 80 5B 41  80 42 13 06 01 42 13 06  ......[A.B...B..
1690: 01 6E 65 76 30 4E 00 43  13 06 01 1C FC 80 23 52  .nev0N.C......#R
16A0: 48 80 F0 FF FF 7F F0 FF  FF 7F 7A 30 34 33 45 48  H.........z043EH
16B0: 80 F0 FF FF 7F F0 FF FF  7F 6F 76 34 30 40 80 45  .........ov40@.E
16C0: 48 80 F0 FF FF 7F F0 FF  FF 7F 7A 30 34 34 40 80  H.........z044@.
16D0: 1C 46 80 BA F0 FF FF 7F  FD 80 FE 80 FF 80 C4 80  .F..............
16E0: 7C 00 42 13 06 01 2B 42  13 06 01 00 81 23 7C 01  |.B...+B.....#|.
16F0: 42 13 06 01 52 48 80 F0  FF FF 7F F0 FF FF 7F 7A  B...RH.........z
1700: 30 34 34 45 48 80 F0 FF  FF 7F F0 FF FF 7F 6F 76  044EH.........ov
1710: 34 30 40 80 45 48 80 F0  FF FF 7F F0 FF FF 7F 7A  40@.EH.........z
1720: 30 34 35 40 80 6B 69 64  6C 30 58 13 06 01 BA 58  045@.kidl0X....X
1730: 13 06 01 BB 80 BC 80 BD  80 B4 80 BA 59 13 06 01  ............Y...
1740: 01 81 02 81 03 81 40 80  BA 5B 13 06 01 04 81 05  ......@..[......
1750: 81 06 81 B4 80 BA 56 13  06 01 07 81 08 81 09 81  ......V.........
1760: B4 80 BA 4F 13 06 01 0A  81 0B 81 0C 81 C4 80 66  ...O...........f
1770: 42 80 59 13 06 01 59 13  06 01 73 68 61 30 4A 58  B.Y...Y...sha0JX
1780: 13 06 01 44 13 06 01 4A  5B 13 06 01 44 13 06 01  ...D...J[...D...
1790: 4A 56 13 06 01 44 13 06  01 4A 4F 13 06 01 44 13  JV...D...JO...D.
17A0: 06 01 1C 47 80 4E 01 43  13 06 01 7C 00 48 13 06  ...G.N.C...|.H..
17B0: 01 2B 48 13 06 01 0D 81  1C F9 80 23 7C 01 48 13  .+H........#|.H.
17C0: 06 01 52 48 80 F0 FF FF  7F F0 FF FF 7F 7A 30 34  ..RH.........z04
17D0: 35 45 48 80 F0 FF FF 7F  F0 FF FF 7F 7A 30 34 36  5EH.........z046
17E0: 40 80 1C 6D 80 BA 42 13  06 01 0E 81 0F 81 10 81  @..m..B.........
17F0: 11 81 6B 69 64 6C 30 4B  13 06 01 5B 75 80 42 13  ..kidl0K...[u.B.
1800: 06 01 42 13 06 01 66 63  30 30 1C 6D 80 5B 12 81  ..B...fc00.m.[..
1810: 42 13 06 01 42 13 06 01  73 68 61 6C 2B 49 13 06  B...B...shal+I..
1820: 01 13 81 23 5C 00 14 81  5C 01 14 81 9A 5B 12 81  ...#\...\....[..
1830: 42 13 06 01 42 13 06 01  73 68 61 31 52 48 80 F0  B...B...sha1RH..
1840: FF FF 7F F0 FF FF 7F 7A  30 34 36 45 48 80 F0 FF  .......z046EH...
1850: FF 7F F0 FF FF 7F 7A 30  34 37 40 80 81 01 48 13  ......z047@...H.
1860: 06 01 7C 01 48 13 06 01  1C 66 80 1C E3 80 1C 49  ..|.H....f.....I
1870: 80 27 10 42 13 06 01 11  1C E3 80 79 00 49 13 06  .'.B.......y.I..
1880: 01 42 13 06 01 1C 46 80  2B 49 13 06 01 15 81 BA  .B....F.+I......
1890: 44 13 06 01 16 81 17 81  18 81 19 81 BA 48 13 06  D............H..
18A0: 01 1A 81 1B 81 1C 81 1D  81 5B 1E 81 44 13 06 01  .........[..D...
18B0: 44 13 06 01 73 6C 70 30  7A 00 42 13 06 01 BA 42  D...slp0z.B....B
18C0: 13 06 01 0E 81 0F 81 10  81 11 81 6B 69 64 6C 30  ...........kidl0
18D0: 48 13 06 01 6B 69 64 6C  30 4E 13 06 01 4A 48 13  H...kidl0N...JH.
18E0: 06 01 44 13 06 01 23 27  10 42 13 06 01 11 1C 46  ..D...#'.B.....F
18F0: 80 52 48 80 F0 FF FF 7F  F0 FF FF 7F 7A 30 34 37  .RH.........z047
1900: 45 48 80 F0 FF FF 7F F0  FF FF 7F 7A 30 34 38 40  EH.........z048@
1910: 80 4A F0 FF FF 7F 42 13  06 01 4A 4F 13 06 01 42  .J....B...JO...B
1920: 13 06 01 4A 4D 13 06 01  42 13 06 01 4A 4E 13 06  ...JM...B...JN..
1930: 01 42 13 06 01 4A 51 13  06 01 42 13 06 01 4A 52  .B...JQ...B...JR
1940: 13 06 01 42 13 06 01 4A  54 13 06 01 42 13 06 01  ...B...JT...B...
1950: 4A 55 13 06 01 42 13 06  01 4A 56 13 06 01 42 13  JU...B...JV...B.
1960: 06 01 4A 58 13 06 01 42  13 06 01 4A 5B 13 06 01  ..JX...B...J[...
1970: 42 13 06 01 4A 4B 13 06  01 42 13 06 01 1C 1F 81  B...JK...B......
1980: 4A 49 13 06 01 42 13 06  01 4A 5B 13 06 01 42 13  JI...B...J[...B.
1990: 06 01 2A 10 42 13 06 01  79 00 48 13 06 01 42 13  ..*.B...y.H...B.
19A0: 06 01 1C E3 80 5B 75 80  42 13 06 01 42 13 06 01  .....[u.B...B...
19B0: 66 63 30 31 2B 42 13 06  01 20 81 23 5B 75 80 42  fc01+B... .#[u.B
19C0: 13 06 01 42 13 06 01 66  63 30 30 52 48 80 F0 FF  ...B...fc00RH...
19D0: FF 7F F0 FF FF 7F 7A 30  34 38 45 48 80 F0 FF FF  ......z048EH....
19E0: 7F F0 FF FF 7F 7A 30 34  39 40 80 59 01 42 13 06  .....z049@.Y.B..
19F0: 01 8B 80 4B 42 13 06 01  11 81 1C 6D 80 BA 5B 13  ...KB......m..[.
1A00: 06 01 21 81 22 81 23 81  24 81 BA 52 13 06 01 25  ..!.".#.$..R...%
1A10: 81 26 81 27 81 C4 80 4A  48 13 06 01 42 13 06 01  .&.'...JH...B...
1A20: 4A 52 13 06 01 42 13 06  01 BA 5B 13 06 01 21 81  JR...B....[...!.
1A30: 22 81 23 81 24 81 6F 76  42 13 06 01 1C 47 80 5B  ".#.$.ovB....G.[
1A40: 75 80 42 13 06 01 42 13  06 01 66 63 30 31 2B 42  u.B...B...fc01+B
1A50: 13 06 01 28 81 23 5B 75  80 42 13 06 01 42 13 06  ...(.#[u.B...B..
1A60: 01 66 63 30 30 52 48 80  F0 FF FF 7F F0 FF FF 7F  .fc00RH.........
1A70: 7A 30 34 39 45 48 80 F0  FF FF 7F F0 FF FF 7F 7A  z049EH.........z
1A80: 30 35 30 40 80 1C F9 80  6E 49 13 06 01 7B 80 99  050@....nI...{..
1A90: 49 13 06 01 1C F9 80 5D  40 80 F9 80 5C 00 40 80  I......]@...\.@.
1AA0: 5C 01 40 80 1C 47 80 9A  52 48 80 F0 FF FF 7F F0  \.@..G..RH......
1AB0: FF FF 7F 7A 30 35 30 45  48 80 F0 FF FF 7F F0 FF  ...z050EH.......
1AC0: FF 7F 7A 30 35 31 40 80  66 42 80 4F 13 06 01 4F  ..z051@.fB.O...O
1AD0: 13 06 01 74 6C 6B 30 2B  4F 13 06 01 29 81 27 10  ...tlk0+O...).'.
1AE0: 49 13 06 01 09 27 10 F0  FF FF 7F 27 1C 4B 80 79  I....'.....'.K.y
1AF0: 00 48 13 06 01 4F 13 06  01 23 66 42 80 4F 13 06  .H...O...#fB.O..
1B00: 01 4F 13 06 01 74 6C 6B  31 1C F9 80 5C 00 E3 80  .O...tlk1...\...
1B10: 5C 01 E3 80 4A 4F 13 06  01 48 13 06 01 1C 49 80  \...JO...H....I.
1B20: 9A 52 48 80 F0 FF FF 7F  F0 FF FF 7F 7A 30 35 31  .RH.........z051
1B30: 45 48 80 F0 FF FF 7F F0  FF FF 7F 7A 30 35 32 40  EH.........z052@
1B40: 80 1C 6D 80 BA 58 13 06  01 2A 81 26 81 2B 81 C4  ..m..X...*.&.+..
1B50: 80 BA 4B 13 06 01 2C 81  2D 81 2E 81 C4 80 4A 42  ..K...,.-.....JB
1B60: 13 06 01 4F 13 06 01 4A  48 13 06 01 4F 13 06 01  ...O...JH...O...
1B70: 4A 4B 13 06 01 4F 13 06  01 4A 58 13 06 01 4F 13  JK...O...JX...O.
1B80: 06 01 4A 5B 13 06 01 4F  13 06 01 4A 51 13 06 01  ..J[...O...JQ...
1B90: 4F 13 06 01 4A 52 13 06  01 4F 13 06 01 4A 4D 13  O...JR...O...JM.
1BA0: 06 01 4F 13 06 01 4A 4E  13 06 01 4F 13 06 01 4A  ..O...JN...O...J
1BB0: 54 13 06 01 4F 13 06 01  4A 55 13 06 01 4F 13 06  T...O...JU...O..
1BC0: 01 4A 56 13 06 01 4F 13  06 01 7B 42 13 06 01 5B  .JV...O...{B...[
1BD0: 77 80 42 13 06 01 42 13  06 01 74 68 61 30 1C 6D  w.B...B...tha0.m
1BE0: 80 6E 4F 13 06 01 2F 81  99 4F 13 06 01 2B 4F 13  .nO.../..O...+O.
1BF0: 06 01 30 81 BA 59 13 06  01 31 81 32 81 03 81 40  ..0..Y...1.2...@
1C00: 80 BA 54 13 06 01 33 81  34 81 35 81 36 81 6B 69  ..T...3.4.5.6.ki
1C10: 64 6C 30 59 13 06 01 4A  59 13 06 01 4F 13 06 01  dl0Y...JY...O...
1C20: 4A 54 13 06 01 4F 13 06  01 1C 6B 80 23 52 48 80  JT...O....k.#RH.
1C30: F0 FF FF 7F F0 FF FF 7F  7A 30 35 32 45 48 80 F0  ........z052EH..
1C40: FF FF 7F F0 FF FF 7F 7A  30 35 33 40 80 5B 4A 80  .......z053@.[J.
1C50: 4F 13 06 01 4F 13 06 01  73 74 61 30 2B 4F 13 06  O...O...sta0+O..
1C60: 01 37 81 79 00 5B 13 06  01 44 13 06 01 1C 47 80  .7.y.[...D....G.
1C70: 27 10 51 13 06 01 0A 23  7B 4F 13 06 01 2B 4F 13  '.Q....#{O...+O.
1C80: 06 01 38 81 1C E3 80 4A  56 13 06 01 44 13 06 01  ..8....JV...D...
1C90: 7B 49 13 06 01 1C 8B 80  4B 55 13 06 01 39 81 79  {I......KU...9.y
1CA0: 00 55 13 06 01 54 13 06  01 7B 58 13 06 01 66 42  .U...T...{X...fB
1CB0: 80 58 13 06 01 58 13 06  01 74 68 6B 31 1C F9 80  .X...X...thk1...
1CC0: 66 42 80 55 13 06 01 55  13 06 01 74 6C 6B 30 7B  fB.U...U...tlk0{
1CD0: 51 13 06 01 7B 52 13 06  01 1C 47 80 1C E3 80 23  Q...{R....G....#
1CE0: 66 42 80 4E 13 06 01 4E  13 06 01 74 68 6B 31 52  fB.N...N...thk1R
1CF0: 48 80 F0 FF FF 7F F0 FF  FF 7F 7A 30 35 33 45 48  H.........z053EH
1D00: 80 F0 FF FF 7F F0 FF FF  7F 6F 76 33 30 40 80 45  .........ov30@.E
1D10: 48 80 F0 FF FF 7F F0 FF  FF 7F 7A 30 35 35 40 80  H.........z055@.
1D20: 1C 6D 80 66 42 80 55 13  06 01 55 13 06 01 74 6C  .m.fB.U...U...tl
1D30: 6B 31 66 42 80 58 13 06  01 58 13 06 01 74 68 6B  k1fB.X...X...thk
1D40: 32 1C 6D 80 4E 01 59 13  06 01 4E 01 44 13 06 01  2.m.N.Y...N.D...
1D50: 7C 00 48 13 06 01 2B 48  13 06 01 3A 81 23 7C 01  |.H...+H...:.#|.
1D60: 48 13 06 01 1C 46 80 27  10 49 13 06 01 0A 1C 46  H....F.'.I.....F
1D70: 80 79 00 48 13 06 01 49  13 06 01 1C 8D 80 79 00  .y.H...I......y.
1D80: 4D 13 06 01 49 13 06 01  1C 71 80 52 48 80 F0 FF  M...I....q.RH...
1D90: FF 7F F0 FF FF 7F 7A 30  35 35 45 48 80 F0 FF FF  ......z055EH....
1DA0: 7F F0 FF FF 7F 7A 30 35  36 40 80 4A 54 13 06 01  .....z056@.JT...
1DB0: 49 13 06 01 5B 4A 80 4F  13 06 01 4F 13 06 01 73  I...[J.O...O...s
1DC0: 74 61 31 2A 10 49 13 06  01 4A 55 13 06 01 49 13  ta1*.I...JU...I.
1DD0: 06 01 4A 49 13 06 01 4F  13 06 01 6F 76 49 13 06  ..JI...O...ovI..
1DE0: 01 4A 4F 13 06 01 49 13  06 01 1C E3 80 79 00 4B  .JO...I......y.K
1DF0: 13 06 01 49 13 06 01 66  42 80 49 13 06 01 49 13  ...I...fB.I...I.
1E00: 06 01 74 6C 6B 30 2B 49  13 06 01 3B 81 66 42 80  ..tlk0+I...;.fB.
1E10: 4E 13 06 01 4E 13 06 01  74 68 6B 32 79 00 4D 13  N...N...thk2y.M.
1E20: 06 01 4F 13 06 01 1C 4B  80 23 66 42 80 49 13 06  ..O....K.#fB.I..
1E30: 01 49 13 06 01 74 6C 6B  31 52 48 80 F0 FF FF 7F  .I...tlk1RH.....
1E40: F0 FF FF 7F 7A 30 35 36  45 48 80 F0 FF FF 7F F0  ....z056EH......
1E50: FF FF 7F 6F 76 34 30 40  80 45 48 80 F0 FF FF 7F  ...ov40@.EH.....
1E60: F0 FF FF 7F 7A 30 35 37  40 80 6E 4F 13 06 01 3C  ....z057@.nO...<
1E70: 81 99 4F 13 06 01 2B 4F  13 06 01 3D 81 1C 66 80  ..O...+O...=..f.
1E80: 23 52 48 80 F0 FF FF 7F  F0 FF FF 7F 7A 30 35 37  #RH.........z057
1E90: 45 48 80 F0 FF FF 7F F0  FF FF 7F 7A 30 35 38 40  EH.........z058@
1EA0: 80 03 04 10 6B 80 27 10  6F 13 06 01 0C 5B 75 80  ....k.'.o....[u.
1EB0: 42 13 06 01 42 13 06 01  66 63 30 31 2B 42 13 06  B...B...fc01+B..
1EC0: 01 3E 81 1C 47 80 4A 4F  13 06 01 42 13 06 01 1C  .>..G.JO...B....
1ED0: 49 80 4A 49 13 06 01 42  13 06 01 23 5B 75 80 42  I.JI...B...#[u.B
1EE0: 13 06 01 42 13 06 01 66  63 30 30 4A F0 FF FF 7F  ...B...fc00J....
1EF0: 42 13 06 01 4A 48 13 06  01 42 13 06 01 4A 4B 13  B...JH...B...JK.
1F00: 06 01 42 13 06 01 27 10  6F 13 06 01 09 2A 10 6F  ..B...'.o....*.o
1F10: 13 06 01 5B 77 80 42 13  06 01 42 13 06 01 74 68  ...[w.B...B...th
1F20: 61 31 52 48 80 F0 FF FF  7F F0 FF FF 7F 7A 30 35  a1RH.........z05
1F30: 38 45 48 80 F0 FF FF 7F  F0 FF FF 7F 6F 76 33 30  8EH.........ov30
1F40: 40 80 45 48 80 F0 FF FF  7F F0 FF FF 7F 7A 30 35  @.EH.........z05
1F50: 39 40 80 5C 00 E0 80 5C  01 E0 80 1C 3F 81 9A 5B  9@.\...\....?..[
1F60: 75 80 42 13 06 01 42 13  06 01 66 63 30 31 2B 42  u.B...B...fc01+B
1F70: 13 06 01 40 81 BA 4D 13  06 01 41 81 42 81 43 81  ...@..M...A.B.C.
1F80: 44 81 BA F0 FF FF 7F 45  81 46 81 47 81 44 81 4A  D......E.F.G.D.J
1F90: 4D 13 06 01 42 13 06 01  4A F0 FF FF 7F 42 13 06  M...B...J....B..
1FA0: 01 1C 3F 81 23 52 48 80  F0 FF FF 7F F0 FF FF 7F  ..?.#RH.........
1FB0: 7A 30 35 39 45 48 80 F0  FF FF 7F F0 FF FF 7F 6F  z059EH.........o
1FC0: 76 34 30 40 80 45 48 80  F0 FF FF 7F F0 FF FF 7F  v40@.EH.........
1FD0: 7A 31 35 39 40 80 5B 77  80 42 13 06 01 42 13 06  z159@.[w.B...B..
1FE0: 01 74 6C 62 30 03 03 10  48 81 27 10 6C 13 06 01  .tlb0...H.'.l...
1FF0: 09 2B 42 13 06 01 49 81  23 52 48 80 F0 FF FF 7F  .+B...I.#RH.....
2000: F0 FF FF 7F 7A 31 35 39  45 48 80 F0 FF FF 7F F0  ....z159EH......
2010: FF FF 7F 7A 30 36 30 40  80 6E 4F 13 06 01 4A 81  ...z060@.nO...J.
2020: 99 4F 13 06 01 2B 4F 13  06 01 4B 81 2A 10 6C 13  .O...+O...K.*.l.
2030: 06 01 5B 75 80 42 13 06  01 42 13 06 01 66 63 30  ..[u.B...B...fc0
2040: 30 5B 77 80 42 13 06 01  42 13 06 01 74 6C 62 31  0[w.B...B...tlb1
2050: 1C 4C 81 23 52 48 80 F0  FF FF 7F F0 FF FF 7F 7A  .L.#RH.........z
2060: 30 36 30 45 48 80 F0 FF  FF 7F F0 FF FF 7F 6F 76  060EH.........ov
2070: 33 30 40 80 45 48 80 F0  FF FF 7F F0 FF FF 7F 7A  30@.EH.........z
2080: 30 36 31 40 80 1C 4B 80  59 01 42 13 06 01 8B 80  061@..K.Y.B.....
2090: 4A 42 13 06 01 48 13 06  01 1C 2B 80 5B 75 80 42  JB...H....+.[u.B
20A0: 13 06 01 42 13 06 01 66  63 30 31 2B 42 13 06 01  ...B...fc01+B...
20B0: 4D 81 23 6F 76 42 13 06  01 52 48 80 F0 FF FF 7F  M.#ovB...RH.....
20C0: F0 FF FF 7F 7A 30 36 31  45 48 80 F0 FF FF 7F F0  ....z061EH......
20D0: FF FF 7F 7A 30 36 32 40  80 5B 77 80 42 13 06 01  ...z062@.[w.B...
20E0: 42 13 06 01 74 6C 61 30  2B 42 13 06 01 4E 81 29  B...tla0+B...N.)
20F0: 10 F0 FF FF 7F 0A 23 5B  77 80 42 13 06 01 42 13  ......#[w.B...B.
2100: 06 01 74 6C 61 31 02 02  10 6D 80 80 42 21 52 48  ..tla1...m..B!RH
2110: 80 F0 FF FF 7F F0 FF FF  7F 7A 30 36 32 45 48 80  .........z062EH.
2120: F0 FF FF 7F F0 FF FF 7F  6F 76 33 30 40 80 45 48  ........ov30@.EH
2130: 80 F0 FF FF 7F F0 FF FF  7F 7A 74 36 33 40 80 01  .........zt63@..
2140: EB 21 02 02 10 3C 81 80  7E 21 52 48 80 F0 FF FF  .!...<..~!RH....
2150: 7F F0 FF FF 7F 7A 30 36  32 45 48 80 F0 FF FF 7F  .....z062EH.....
2160: F0 FF FF 7F 6F 76 33 30  40 80 45 48 80 F0 FF FF  ....ov30@.EH....
2170: 7F F0 FF FF 7F 7A 74 36  33 40 80 01 EB 21 02 02  .....zt63@...!..
2180: 10 7B 80 80 BA 21 52 48  80 F0 FF FF 7F F0 FF FF  .{...!RH........
2190: 7F 7A 30 36 32 45 48 80  F0 FF FF 7F F0 FF FF 7F  .z062EH.........
21A0: 6F 76 33 30 40 80 45 48  80 F0 FF FF 7F F0 FF FF  ov30@.EH........
21B0: 7F 7A 74 36 33 40 80 01  EB 21 52 48 80 F0 FF FF  .zt63@...!RH....
21C0: 7F F0 FF FF 7F 7A 30 36  32 45 48 80 F0 FF FF 7F  .....z062EH.....
21D0: F0 FF FF 7F 6F 76 33 30  40 80 45 48 80 F0 FF FF  ....ov30@.EH....
21E0: 7F F0 FF FF 7F 7A 30 36  33 40 80 5B 4A 80 49 13  .....z063@.[J.I.
21F0: 06 01 49 13 06 01 73 74  61 30 5B 75 80 42 13 06  ..I...sta0[u.B..
2200: 01 42 13 06 01 66 63 30  30 2B 49 13 06 01 4F 81  .B...fc00+I...O.
2210: 7B 48 13 06 01 5B 50 81  48 13 06 01 48 13 06 01  {H...[P.H...H...
2220: 68 6B 61 30 1C E3 80 27  10 42 13 06 01 12 6E F0  hka0...'.B....n.
2230: FF FF 7F 7B 80 99 F0 FF  FF 7F 23 52 48 80 F0 FF  ...{......#RH...
2240: FF 7F F0 FF FF 7F 7A 30  36 33 52 48 80 F0 FF FF  ......z063RH....
2250: 7F F0 FF FF 7F 7A 74 36  33 45 48 80 F0 FF FF 7F  .....zt63EH.....
2260: F0 FF FF 7F 7A 30 36 34  40 80 59 01 42 13 06 01  ....z064@.Y.B...
2270: F9 80 4A 42 13 06 01 48  13 06 01 6F 76 42 13 06  ..JB...H...ovB..
2280: 01 5B 75 80 42 13 06 01  42 13 06 01 66 63 30 31  .[u.B...B...fc01
2290: 2B 42 13 06 01 51 81 23  5B 75 80 42 13 06 01 42  +B...Q.#[u.B...B
22A0: 13 06 01 66 63 30 30 52  48 80 F0 FF FF 7F F0 FF  ...fc00RH.......
22B0: FF 7F 7A 30 36 34 45 48  80 F0 FF FF 7F F0 FF FF  ..z064EH........
22C0: 7F 7A 30 36 35 40 80 2B  48 13 06 01 52 81 1C 4B  .z065@.+H...R..K
22D0: 80 5B 50 81 48 13 06 01  48 13 06 01 68 6B 61 31  .[P.H...H...hka1
22E0: 1C 67 80 23 52 48 80 F0  FF FF 7F F0 FF FF 7F 7A  .g.#RH.........z
22F0: 30 36 35 45 48 80 F0 FF  FF 7F F0 FF FF 7F 7A 30  065EH.........z0
2300: 36 36 40 80 5B 75 80 42  13 06 01 42 13 06 01 66  66@.[u.B...B...f
2310: 63 30 31 2B 42 13 06 01  53 81 23 5B 75 80 42 13  c01+B...S.#[u.B.
2320: 06 01 42 13 06 01 66 63  30 30 52 48 80 F0 FF FF  ..B...fc00RH....
2330: 7F F0 FF FF 7F 7A 30 36  36 45 48 80 F0 FF FF 7F  .....z066EH.....
2340: F0 FF FF 7F 6F 76 34 30  40 80 45 48 80 F0 FF FF  ....ov40@.EH....
2350: 7F F0 FF FF 7F 7A 30 36  37 40 80 5B 50 81 48 13  .....z067@.[P.H.
2360: 06 01 48 13 06 01 68 6B  61 32 1C 9E 80 2B 48 13  ..H...hka2...+H.
2370: 06 01 54 81 23 1A 23 79  1C 47 80 52 48 80 F0 FF  ..T.#.#y.G.RH...
2380: FF 7F F0 FF FF 7F 7A 30  36 37 45 48 80 F0 FF FF  ......z067EH....
2390: 7F F0 FF FF 7F 30 62 6C  72 40 80 46 00 45 55 81  .....0blr@.F.EU.
23A0: F0 FF FF 7F F0 FF FF 7F  66 64 69 32 40 80 21 00  ........fdi2@.!.
23B0: 27 10 49 13 06 01 0E 27  10 6C 13 06 01 0E 27 10  '.I....'.l....'.
23C0: 6F 13 06 01 12 27 10 70  13 06 01 0B 92 01 49 13  o....'.p......I.
23D0: 06 01 92 01 6C 13 06 01  92 01 6F 13 06 01 92 01  ....l.....o.....
23E0: 70 13 06 01 94 01 F0 FF  FF 7F 94 01 49 13 06 01  p...........I...
23F0: 94 01 6C 13 06 01 94 01  6F 13 06 01 94 01 70 13  ..l.....o.....p.
2400: 06 01 BA F0 FF FF 7F 56  81 57 81 54 80 58 81 BA  .......V.W.T.X..
2410: 49 13 06 01 59 81 5A 81  5B 81 18 80 BA 6C 13 06  I...Y.Z.[....l..
2420: 01 36 80 37 80 1B 80 38  80 BA 6F 13 06 01 39 80  .6.7...8..o...9.
2430: 3A 80 3B 80 27 80 BA 70  13 06 01 3C 80 3D 80 1B  :.;.'..p...<.=..
2440: 80 04 80 80 F0 FF FF 7F  80 49 13 06 01 80 6C 13  .........I....l.
2450: 06 01 80 6F 13 06 01 80  70 13 06 01 C5 3F 80 6F  ...o....p....?.o
2460: 13 06 01 6F 13 06 01 73  30 30 30 40 80 C5 3F 80  ...o...s000@..?.
2470: 70 13 06 01 70 13 06 01  73 30 30 32 40 80 C5 3F  p...p...s002@..?
2480: 80 6C 13 06 01 6C 13 06  01 73 30 30 31 40 80 4A  .l...l...s001@.J
2490: 49 13 06 01 F0 FF FF 7F  4A F0 FF FF 7F 49 13 06  I.......J....I..
24A0: 01 1C 6D 80 6F 76 49 13  06 01 45 48 80 F0 FF FF  ..m.ovI...EH....
24B0: 7F F0 FF FF 7F 79 30 30  30 40 80 1A 02 79 66 42  .....y000@...yfB
24C0: 80 49 13 06 01 49 13 06  01 74 6C 6B 30 03 02 10  .I...I...tlk0...
24D0: 5C 81 2B 49 13 06 01 5D  81 1C 47 80 23 66 42 80  \.+I...]..G.#fB.
24E0: 49 13 06 01 49 13 06 01  74 6C 6B 31 6E F0 FF FF  I...I...tlk1n...
24F0: 7F 7B 80 99 F0 FF FF 7F  1C 66 80 7B 49 13 06 01  .{.......f.{I...
2500: 66 DD 80 49 13 06 01 49  13 06 01 70 61 73 30 52  f..I...I...pas0R
2510: 48 80 F0 FF FF 7F F0 FF  FF 7F 79 30 30 30 45 48  H.........y000EH
2520: 80 F0 FF FF 7F F0 FF FF  7F 79 30 30 31 40 80 2B  .........y001@.+
2530: 49 13 06 01 5E 81 1C 55  81 23 1A 23 79 1C 47 80  I...^..U.#.#y.G.
2540: 52 48 80 F0 FF FF 7F F0  FF FF 7F 79 30 30 31 45  RH.........y001E
2550: 48 80 F0 FF FF 7F F0 FF  FF 7F 30 62 6C 72 40 80  H.........0blr@.
2560: 1B 27 10 4B 13 06 01 0E  27 10 6C 13 06 01 0E 27  .'.K....'.l....'
2570: 10 6F 13 06 01 12 27 10  70 13 06 01 0B 92 01 4B  .o....'.p......K
2580: 13 06 01 92 01 6C 13 06  01 92 01 6F 13 06 01 92  .....l.....o....
2590: 01 70 13 06 01 94 01 F0  FF FF 7F 94 01 4B 13 06  .p...........K..
25A0: 01 94 01 6C 13 06 01 94  01 6F 13 06 01 94 01 70  ...l.....o.....p
25B0: 13 06 01 BA F0 FF FF 7F  5F 81 60 81 61 81 04 80  ........_.`.a...
25C0: BA 4B 13 06 01 62 81 63  81 64 81 18 80 BA 6C 13  .K...b.c.d....l.
25D0: 06 01 36 80 37 80 1B 80  38 80 BA 6F 13 06 01 39  ..6.7...8..o...9
25E0: 80 3A 80 3B 80 27 80 BA  70 13 06 01 3C 80 3D 80  .:.;.'..p...<.=.
25F0: 1B 80 04 80 80 F0 FF FF  7F 80 4B 13 06 01 80 6C  ..........K....l
2600: 13 06 01 80 6F 13 06 01  80 70 13 06 01 C5 3F 80  ....o....p....?.
2610: 6F 13 06 01 6F 13 06 01  73 30 30 30 40 80 C5 3F  o...o...s000@..?
2620: 80 70 13 06 01 70 13 06  01 73 30 30 32 40 80 C5  .p...p...s002@..
2630: 3F 80 6C 13 06 01 6C 13  06 01 73 30 30 31 40 80  ?.l...l...s001@.
2640: 4A 4B 13 06 01 F0 FF FF  7F 4A F0 FF FF 7F 4B 13  JK.......J....K.
2650: 06 01 29 10 F0 FF FF 7F  0A 03 00 00 02 10 7B 4B  ..)...........{K
2660: 13 06 01 6F 76 4B 13 06  01 45 48 80 F0 FF FF 7F  ...ovK...EH.....
2670: F0 FF FF 7F 79 30 30 32  40 80 1A 02 79 6E 4B 13  ....y002@...ynK.
2680: 06 01 65 81 99 4B 13 06  01 03 02 10 5C 81 2B 4B  ..e..K......\.+K
2690: 13 06 01 66 81 1C 6B 80  23 02 00 00 43 80 80 C4  ...f..k.#...C...
26A0: 26 52 48 80 F0 FF FF 7F  F0 FF FF 7F 79 30 30 32  &RH.........y002
26B0: 45 48 80 F0 FF FF 7F F0  FF FF 7F 79 30 30 33 40  EH.........y003@
26C0: 80 01 65 27 02 00 00 67  81 80 EF 26 52 48 80 F0  ..e'...g...&RH..
26D0: FF FF 7F F0 FF FF 7F 79  30 30 32 45 48 80 F0 FF  .......y002EH...
26E0: FF 7F F0 FF FF 7F 79 67  30 33 40 80 01 65 27 02  ......yg03@..e'.
26F0: 00 00 D6 80 80 1A 27 52  48 80 F0 FF FF 7F F0 FF  ......'RH.......
2700: FF 7F 79 30 30 32 45 48  80 F0 FF FF 7F F0 FF FF  ..y002EH........
2710: 7F 79 67 30 33 40 80 01  65 27 02 00 00 4C 80 80  .yg03@..e'...L..
2720: 45 27 52 48 80 F0 FF FF  7F F0 FF FF 7F 79 30 30  E'RH.........y00
2730: 32 45 48 80 F0 FF FF 7F  F0 FF FF 7F 79 67 30 33  2EH.........yg03
2740: 40 80 01 65 27 52 48 80  F0 FF FF 7F F0 FF FF 7F  @..e'RH.........
2750: 79 30 30 32 45 48 80 F0  FF FF 7F F0 FF FF 7F 79  y002EH.........y
2760: 74 30 33 40 80 66 42 80  4B 13 06 01 4B 13 06 01  t03@.fB.K...K...
2770: 74 68 6B 31 2B 4B 13 06  01 68 81 1C 47 80 23 79  thk1+K...h..G.#y
2780: 00 4B 13 06 01 F0 FF FF  7F 66 42 80 4B 13 06 01  .K.......fB.K...
2790: 4B 13 06 01 74 68 6B 32  6E F0 FF FF 7F 7B 80 99  K...thk2n....{..
27A0: F0 FF FF 7F 1C 9E 80 1A  23 79 1C 47 80 52 48 80  ........#y.G.RH.
27B0: F0 FF FF 7F F0 FF FF 7F  79 30 30 33 52 48 80 F0  ........y003RH..
27C0: FF FF 7F F0 FF FF 7F 79  67 30 33 52 48 80 F0 FF  .......yg03RH...
27D0: FF 7F F0 FF FF 7F 79 74  30 33 45 48 80 F0 FF FF  ......yt03EH....
27E0: 7F F0 FF FF 7F 30 62 6C  72 40 80 1B 27 10 57 13  .....0blr@..'.W.
27F0: 06 01 0E 27 10 6C 13 06  01 0E 27 10 6F 13 06 01  ...'.l....'.o...
2800: 12 27 10 70 13 06 01 0B  92 01 57 13 06 01 92 01  .'.p......W.....
2810: 6C 13 06 01 92 01 6F 13  06 01 92 01 70 13 06 01  l.....o.....p...
2820: 94 01 F0 FF FF 7F 94 01  57 13 06 01 94 01 6C 13  ........W.....l.
2830: 06 01 94 01 6F 13 06 01  94 01 70 13 06 01 BA F0  ....o.....p.....
2840: FF FF 7F 5F 81 60 81 61  81 04 80 BA 57 13 06 01  ..._.`.a....W...
2850: 62 81 63 81 64 81 18 80  BA 6C 13 06 01 36 80 37  b.c.d....l...6.7
2860: 80 1B 80 38 80 BA 6F 13  06 01 39 80 3A 80 3B 80  ...8..o...9.:.;.
2870: 27 80 BA 70 13 06 01 3C  80 3D 80 1B 80 04 80 80  '..p...<.=......
2880: F0 FF FF 7F 80 57 13 06  01 80 6C 13 06 01 80 6F  .....W....l....o
2890: 13 06 01 80 70 13 06 01  C5 3F 80 6F 13 06 01 6F  ....p....?.o...o
28A0: 13 06 01 73 30 30 30 40  80 C5 3F 80 70 13 06 01  ...s000@..?.p...
28B0: 70 13 06 01 73 30 30 32  40 80 C5 3F 80 6C 13 06  p...s002@..?.l..
28C0: 01 6C 13 06 01 73 30 30  31 40 80 4A 57 13 06 01  .l...s001@.JW...
28D0: F0 FF FF 7F 4A F0 FF FF  7F 57 13 06 01 29 10 F0  ....J....W...)..
28E0: FF FF 7F 0A 03 00 00 02  10 6F 76 57 13 06 01 02  .........ovW....
28F0: 00 00 43 80 80 0B 29 45  48 80 F0 FF FF 7F F0 FF  ..C...)EH.......
2900: FF 7F 79 30 30 33 40 80  01 70 29 02 00 00 67 81  ..y003@..p)...g.
2910: 80 27 29 45 48 80 F0 FF  FF 7F F0 FF FF 7F 79 67  .')EH.........yg
2920: 30 33 40 80 01 70 29 02  00 00 D6 80 80 43 29 45  03@..p)......C)E
2930: 48 80 F0 FF FF 7F F0 FF  FF 7F 79 67 30 33 40 80  H.........yg03@.
2940: 01 70 29 02 00 00 4C 80  80 5F 29 45 48 80 F0 FF  .p)...L.._)EH...
2950: FF 7F F0 FF FF 7F 79 67  30 33 40 80 01 70 29 45  ......yg03@..p)E
2960: 48 80 F0 FF FF 7F F0 FF  FF 7F 79 74 30 33 40 80  H.........yt03@.
2970: 1A 02 79 66 42 80 57 13  06 01 57 13 06 01 74 6C  ..yfB.W...W...tl
2980: 6B 30 2B 57 13 06 01 69  81 23 66 42 80 57 13 06  k0+W...i.#fB.W..
2990: 01 57 13 06 01 74 6C 6B  31 6E F0 FF FF 7F 7B 80  .W...tlk1n....{.
29A0: 99 F0 FF FF 7F 1C 66 80  66 DD 80 57 13 06 01 57  ......f.f..W...W
29B0: 13 06 01 70 61 73 30 03  02 10 6A 81 2B 57 13 06  ...pas0...j.+W..
29C0: 01 6B 81 1C 86 80 23 1C  9E 80 1A 23 79 1C 47 80  .k....#....#y.G.
29D0: 52 48 80 F0 FF FF 7F F0  FF FF 7F 79 30 30 33 52  RH.........y003R
29E0: 48 80 F0 FF FF 7F F0 FF  FF 7F 79 67 30 33 52 48  H.........yg03RH
29F0: 80 F0 FF FF 7F F0 FF FF  7F 79 74 30 33 45 48 80  .........yt03EH.
2A00: F0 FF FF 7F F0 FF FF 7F  30 62 6C 72 40 80 1B     ........0blr@.. 
```

#### Opcodes

```
  0: 0x0001 [0x42] SET_CLI_EVENT_CANCEL_DATA()
  1: 0x0002 [0x1A] CALL_SUBROUTINE(address=0x7923)
  2: 0x0005 [0x46] CAMERA_CONTROL: Disable user control
  3: 0x0007 [0x38] SET_CLIENT_EVENT_MODE(mode=19*)
  4: 0x000A [0x27] REQ_SET(priority=0x10, entity_id=Romaa Mihgo (ID: 17175369/0x01061349), tag_num=0x0E)
  5: 0x0011 [0x27] REQ_SET(priority=0x10, entity_id=Perih Vashai (ID: 17175368/0x01061348), tag_num=0x0C)
  6: 0x0018 [0x27] REQ_SET(priority=0x10, entity_id=Lehko Habhoka (ID: 17175362/0x01061342), tag_num=0x1C)
  7: 0x001F [0x27] REQ_SET(priority=0x10, entity_id=Lehko Habhoka (ID: 17175363/0x01061343), tag_num=0x17)
  8: 0x0026 [0x27] REQ_SET(priority=0x10, entity_id=Mihl Pakorhma (ID: 17175371/0x0106134B), tag_num=0x0E)
  9: 0x002D [0x27] REQ_SET(priority=0x10, entity_id=Ghyo Molkot (ID: 17175375/0x0106134F), tag_num=0x0C)
 10: 0x0034 [0x27] REQ_SET(priority=0x10, entity_id=Naho Gwanboh (ID: 17175373/0x0106134D), tag_num=0x0B)
 11: 0x003B [0x27] REQ_SET(priority=0x10, entity_id=Nzha Abaleenah (ID: 17175374/0x0106134E), tag_num=0x0D)
 12: 0x0042 [0x27] REQ_SET(priority=0x10, entity_id=Etoh Tanghari (ID: 17175380/0x01061354), tag_num=0x0F)
 13: 0x0049 [0x27] REQ_SET(priority=0x10, entity_id=02 (ID: 17175381/0x01061355), tag_num=0x0F)
 14: 0x0050 [0x27] REQ_SET(priority=0x10, entity_id=03 (ID: 17175382/0x01061356), tag_num=0x0C)
 15: 0x0057 [0x27] REQ_SET(priority=0x10, entity_id=Nri Sarabah (ID: 17175383/0x01061357), tag_num=0x0E)
 16: 0x005E [0x27] REQ_SET(priority=0x10, entity_id=Unnamed NPC (ID: 17175377/0x01061351), tag_num=0x0F)
 17: 0x0065 [0x27] REQ_SET(priority=0x10, entity_id=Unnamed NPC (ID: 17175378/0x01061352), tag_num=0x0E)
 18: 0x006C [0x27] REQ_SET(priority=0x10, entity_id=Unnamed NPC (ID: 17175404/0x0106136C), tag_num=0x0E)
 19: 0x0073 [0x27] REQ_SET(priority=0x10, entity_id=Unnamed NPC (ID: 17175407/0x0106136F), tag_num=0x12)
 20: 0x007A [0x27] REQ_SET(priority=0x10, entity_id=Unnamed NPC (ID: 17175408/0x01061370), tag_num=0x0B)
 21: 0x0081 [0x27] REQ_SET(priority=0x10, entity_id=Nhev Befrathi (ID: 17175364/0x01061344), tag_num=0x05)
 22: 0x0088 [0x92] Romaa Mihgo (ID: 17175369/0x01061349)->Render.Flags3 ^= 0x01
 23: 0x008E [0x92] Perih Vashai (ID: 17175368/0x01061348)->Render.Flags3 ^= 0x01
 24: 0x0094 [0x92] Lehko Habhoka (ID: 17175362/0x01061342)->Render.Flags3 ^= 0x01
 25: 0x009A [0x92] Lehko Habhoka (ID: 17175363/0x01061343)->Render.Flags3 ^= 0x01
 26: 0x00A0 [0x92] Mihl Pakorhma (ID: 17175371/0x0106134B)->Render.Flags3 ^= 0x01
 27: 0x00A6 [0x92] Ghyo Molkot (ID: 17175375/0x0106134F)->Render.Flags3 ^= 0x01
 28: 0x00AC [0x92] Naho Gwanboh (ID: 17175373/0x0106134D)->Render.Flags3 ^= 0x01
 29: 0x00B2 [0x92] Nzha Abaleenah (ID: 17175374/0x0106134E)->Render.Flags3 ^= 0x01
 30: 0x00B8 [0x92] Etoh Tanghari (ID: 17175380/0x01061354)->Render.Flags3 ^= 0x01
 31: 0x00BE [0x92] 02 (ID: 17175381/0x01061355)->Render.Flags3 ^= 0x01
 32: 0x00C4 [0x92] 03 (ID: 17175382/0x01061356)->Render.Flags3 ^= 0x01
 33: 0x00CA [0x92] Nri Sarabah (ID: 17175383/0x01061357)->Render.Flags3 ^= 0x01
 34: 0x00D0 [0x92] Unnamed NPC (ID: 17175377/0x01061351)->Render.Flags3 ^= 0x01
 35: 0x00D6 [0x92] Unnamed NPC (ID: 17175378/0x01061352)->Render.Flags3 ^= 0x01
 36: 0x00DC [0x92] Nhev Befrathi (ID: 17175364/0x01061344)->Render.Flags3 ^= 0x01
 37: 0x00E2 [0x92] Unnamed NPC (ID: 17175404/0x0106136C)->Render.Flags3 ^= 0x01
 38: 0x00E8 [0x92] Unnamed NPC (ID: 17175407/0x0106136F)->Render.Flags3 ^= 0x01
 39: 0x00EE [0x92] Unnamed NPC (ID: 17175408/0x01061370)->Render.Flags3 ^= 0x01
 40: 0x00F4 [0x94] LocalPlayer->Render.Flags3 ^= 0x01
 41: 0x00FA [0x94] Romaa Mihgo (ID: 17175369/0x01061349)->Render.Flags3 ^= 0x01
 42: 0x0100 [0x94] Perih Vashai (ID: 17175368/0x01061348)->Render.Flags3 ^= 0x01
 43: 0x0106 [0x94] Lehko Habhoka (ID: 17175362/0x01061342)->Render.Flags3 ^= 0x01
 44: 0x010C [0x94] Lehko Habhoka (ID: 17175363/0x01061343)->Render.Flags3 ^= 0x01
 45: 0x0112 [0x94] Mihl Pakorhma (ID: 17175371/0x0106134B)->Render.Flags3 ^= 0x01
 46: 0x0118 [0x94] Ghyo Molkot (ID: 17175375/0x0106134F)->Render.Flags3 ^= 0x01
 47: 0x011E [0x94] Naho Gwanboh (ID: 17175373/0x0106134D)->Render.Flags3 ^= 0x01
 48: 0x0124 [0x94] Nzha Abaleenah (ID: 17175374/0x0106134E)->Render.Flags3 ^= 0x01
 49: 0x012A [0x94] Etoh Tanghari (ID: 17175380/0x01061354)->Render.Flags3 ^= 0x01
 50: 0x0130 [0x94] 02 (ID: 17175381/0x01061355)->Render.Flags3 ^= 0x01
 51: 0x0136 [0x94] 03 (ID: 17175382/0x01061356)->Render.Flags3 ^= 0x01
 52: 0x013C [0x94] Nri Sarabah (ID: 17175383/0x01061357)->Render.Flags3 ^= 0x01
 53: 0x0142 [0x94] Unnamed NPC (ID: 17175377/0x01061351)->Render.Flags3 ^= 0x01
 54: 0x0148 [0x94] Unnamed NPC (ID: 17175378/0x01061352)->Render.Flags3 ^= 0x01
 55: 0x014E [0x94] Nhev Befrathi (ID: 17175364/0x01061344)->Render.Flags3 ^= 0x01
 56: 0x0154 [0x94] Unnamed NPC (ID: 17175404/0x0106136C)->Render.Flags3 ^= 0x01
 57: 0x015A [0x94] Unnamed NPC (ID: 17175407/0x0106136F)->Render.Flags3 ^= 0x01
 58: 0x0160 [0x94] Unnamed NPC (ID: 17175408/0x01061370)->Render.Flags3 ^= 0x01
 59: 0x0166 [0xBA] SET_ENTITY_POSITION(entity_id=LocalPlayer, pos_x=387.095*, pos_z=52.648*, pos_y=-16.000*, direction=296.3*)
 60: 0x0173 [0xBA] SET_ENTITY_POSITION(entity_id=Romaa Mihgo (ID: 17175369/0x01061349), pos_x=395.358*, pos_z=69.233*, pos_y=-16.086*, direction=83.5*)
 61: 0x0180 [0xBA] SET_ENTITY_POSITION(entity_id=Perih Vashai (ID: 17175368/0x01061348), pos_x=397.251*, pos_z=68.525*, pos_y=-15.906*, direction=109.0*)
 62: 0x018D [0xBA] SET_ENTITY_POSITION(entity_id=Lehko Habhoka (ID: 17175362/0x01061342), pos_x=394.999*, pos_z=65.015*, pos_y=-16.131*, direction=263.7*)
 63: 0x019A [0xBA] SET_ENTITY_POSITION(entity_id=Lehko Habhoka (ID: 17175363/0x01061343), pos_x=417.794*, pos_z=74.552*, pos_y=-15.221*, direction=127.4*)
 64: 0x01A7 [0xBA] SET_ENTITY_POSITION(entity_id=Mihl Pakorhma (ID: 17175371/0x0106134B), pos_x=394.341*, pos_z=70.242*, pos_y=-16.224*, direction=87.9*)
 65: 0x01B4 [0xBA] SET_ENTITY_POSITION(entity_id=Ghyo Molkot (ID: 17175375/0x0106134F), pos_x=390.948*, pos_z=68.213*, pos_y=-16.500*, direction=292.5*)
 66: 0x01C1 [0xBA] SET_ENTITY_POSITION(entity_id=Naho Gwanboh (ID: 17175373/0x0106134D), pos_x=391.803*, pos_z=71.611*, pos_y=-16.053*, direction=114.3*)
 67: 0x01CE [0xBA] SET_ENTITY_POSITION(entity_id=Nzha Abaleenah (ID: 17175374/0x0106134E), pos_x=397.120*, pos_z=66.842*, pos_y=-15.891*, direction=292.5*)
 68: 0x01DB [0xBA] SET_ENTITY_POSITION(entity_id=Etoh Tanghari (ID: 17175380/0x01061354), pos_x=396.978*, pos_z=73.115*, pos_y=-16.008*, direction=296.2*)
 69: 0x01E8 [0xBA] SET_ENTITY_POSITION(entity_id=03 (ID: 17175382/0x01061356), pos_x=395.043*, pos_z=57.465*, pos_y=-16.125*, direction=8.8*)
 70: 0x01F5 [0xBA] SET_ENTITY_POSITION(entity_id=Nri Sarabah (ID: 17175383/0x01061357), pos_x=395.613*, pos_z=58.968*, pos_y=-16.083*, direction=26.5*)
 71: 0x0202 [0xBA] SET_ENTITY_POSITION(entity_id=Unnamed NPC (ID: 17175377/0x01061351), pos_x=394.876*, pos_z=72.794*, pos_y=-16.000*, direction=296.2*)
 72: 0x020F [0x59] UPDATE_ENTITY_DATA: Nhev Befrathi (ID: 17175364/0x01061344)->Render.Flags0 |= 0x200000
 73: 0x0216 [0xBA] SET_ENTITY_POSITION(entity_id=Nhev Befrathi (ID: 17175364/0x01061344), pos_x=420.093*, pos_z=77.973*, pos_y=-15.065*, direction=79.1*)
 74: 0x0223 [0xBA] SET_ENTITY_POSITION(entity_id=Unnamed NPC (ID: 17175404/0x0106136C), pos_x=390.621*, pos_z=60.403*, pos_y=-16.500*, direction=208.3*)
 75: 0x0230 [0xBA] SET_ENTITY_POSITION(entity_id=Unnamed NPC (ID: 17175407/0x0106136F), pos_x=389.172*, pos_z=67.665*, pos_y=-16.546*, direction=296.2*)
 76: 0x023D [0xBA] SET_ENTITY_POSITION(entity_id=Unnamed NPC (ID: 17175408/0x01061370), pos_x=390.353*, pos_z=66.207*, pos_y=-16.500*, direction=296.3*)
 77: 0x024A [0x5C] MUSIC_CONTROL: Set Idle (Day) music to song 42*
 78: 0x024E [0x5C] MUSIC_CONTROL: Set Idle (Night) music to song 42*
 79: 0x0252 [0x80] LOAD_WAIT(entity=LocalPlayer)
 80: 0x0257 [0x80] LOAD_WAIT(entity=Romaa Mihgo (ID: 17175369/0x01061349))
 81: 0x025C [0x80] LOAD_WAIT(entity=Perih Vashai (ID: 17175368/0x01061348))
 82: 0x0261 [0x80] LOAD_WAIT(entity=Lehko Habhoka (ID: 17175362/0x01061342))
 83: 0x0266 [0x80] LOAD_WAIT(entity=Mihl Pakorhma (ID: 17175371/0x0106134B))
 84: 0x026B [0x80] LOAD_WAIT(entity=Ghyo Molkot (ID: 17175375/0x0106134F))
 85: 0x0270 [0x80] LOAD_WAIT(entity=Naho Gwanboh (ID: 17175373/0x0106134D))
 86: 0x0275 [0x80] LOAD_WAIT(entity=Nzha Abaleenah (ID: 17175374/0x0106134E))
 87: 0x027A [0x80] LOAD_WAIT(entity=Etoh Tanghari (ID: 17175380/0x01061354))
 88: 0x027F [0x80] LOAD_WAIT(entity=02 (ID: 17175381/0x01061355))
 89: 0x0284 [0x80] LOAD_WAIT(entity=03 (ID: 17175382/0x01061356))
 90: 0x0289 [0x80] LOAD_WAIT(entity=Nri Sarabah (ID: 17175383/0x01061357))
 91: 0x028E [0x80] LOAD_WAIT(entity=Unnamed NPC (ID: 17175377/0x01061351))
 92: 0x0293 [0x80] LOAD_WAIT(entity=Unnamed NPC (ID: 17175378/0x01061352))
 93: 0x0298 [0x80] LOAD_WAIT(entity=Unnamed NPC (ID: 17175404/0x0106136C))
 94: 0x029D [0x80] LOAD_WAIT(entity=Unnamed NPC (ID: 17175407/0x0106136F))
 95: 0x02A2 [0x80] LOAD_WAIT(entity=Unnamed NPC (ID: 17175408/0x01061370))
 96: 0x02A7 [0x80] LOAD_WAIT(entity=Nhev Befrathi (ID: 17175364/0x01061344))
 97: 0x02AC [0x2C] CREATE_SCHEDULER_TASK: Create scheduler "wpof" with entities [Nhev Befrathi (ID: 17175364/0x01061344), Nhev Befrathi (ID: 17175364/0x01061344)]
 98: 0x02B9 [0x4A] Naho Gwanboh (ID: 17175373/0x0106134D) looks at Ghyo Molkot (ID: 17175375/0x0106134F)
 99: 0x02C2 [0x4A] Nzha Abaleenah (ID: 17175374/0x0106134E) looks at Perih Vashai (ID: 17175368/0x01061348)
100: 0x02CB [0x4A] Perih Vashai (ID: 17175368/0x01061348) looks at Nzha Abaleenah (ID: 17175374/0x0106134E)
101: 0x02D4 [0x4A] Romaa Mihgo (ID: 17175369/0x01061349) looks at Mihl Pakorhma (ID: 17175371/0x0106134B)
102: 0x02DD [0x4A] Mihl Pakorhma (ID: 17175371/0x0106134B) looks at Romaa Mihgo (ID: 17175369/0x01061349)
103: 0x02E6 [0x4A] Etoh Tanghari (ID: 17175380/0x01061354) looks at Lehko Habhoka (ID: 17175362/0x01061342)
104: 0x02EF [0x4A] 03 (ID: 17175382/0x01061356) looks at Nri Sarabah (ID: 17175383/0x01061357)
105: 0x02F8 [0x4A] Nri Sarabah (ID: 17175383/0x01061357) looks at 03 (ID: 17175382/0x01061356)
106: 0x0301 [0xC5] LOAD_SCHEDULED_TASK_ALT3: Load scheduler 0x80403030 for entities [Unnamed NPC (ID: 17175407/0x0106136F), Unnamed NPC (ID: 17175407/0x0106136F)], work=208*, param=12403
107: 0x0312 [0xC5] LOAD_SCHEDULED_TASK_ALT3: Load scheduler 0x80403230 for entities [Unnamed NPC (ID: 17175408/0x01061370), Unnamed NPC (ID: 17175408/0x01061370)], work=208*, param=12403
108: 0x0323 [0xC5] LOAD_SCHEDULED_TASK_ALT3: Load scheduler 0x80403130 for entities [Unnamed NPC (ID: 17175404/0x0106136C), Unnamed NPC (ID: 17175404/0x0106136C)], work=208*, param=12403
109: 0x0334 [0x81] SET_ENTITY_BLINKING(blink_flag=0x00, entity=Lehko Habhoka (ID: 17175363/0x01061343))
110: 0x033A [0x6F] WAIT_FRAME_DELAY: Yield until WaitTime reaches zero
111: 0x033B [0x76] CHECK_ENTITY_RENDER_FLAGS: Wait until Naho Gwanboh (ID: 17175373/0x0106134D) Render.Flags0 and Render.Flags3 conditions are met
112: 0x0340 [0x5B] LOAD_EXT_SCHEDULER: Load scheduler "nev0" with entities [Lehko Habhoka (ID: 17175363/0x01061343), Lehko Habhoka (ID: 17175363/0x01061343)], work=2461*
113: 0x034F [0x27] REQ_SET(priority=0x10, entity_id=Lehko Habhoka (ID: 17175363/0x01061343), tag_num=0x07)
114: 0x0356 [0x66] LOAD_EXT_SCHEDULER_MAIN: Load scheduler "tlk0" with entities [Romaa Mihgo (ID: 17175369/0x01061349), Romaa Mihgo (ID: 17175369/0x01061349)], work=59*
115: 0x0365 [0x66] LOAD_EXT_SCHEDULER_MAIN: Load scheduler "tlk0" with entities [Naho Gwanboh (ID: 17175373/0x0106134D), Naho Gwanboh (ID: 17175373/0x0106134D)], work=59*
116: 0x0374 [0x66] LOAD_EXT_SCHEDULER_MAIN: Load scheduler "tlk0" with entities [Nri Sarabah (ID: 17175383/0x01061357), Nri Sarabah (ID: 17175383/0x01061357)], work=59*
117: 0x0383 [0x66] LOAD_EXT_SCHEDULER_MAIN: Load scheduler "thk1" with entities [03 (ID: 17175382/0x01061356), 03 (ID: 17175382/0x01061356)], work=59*
118: 0x0392 [0x6C] FADE_ENTITY_COLOR(entity_id=Lehko Habhoka (ID: 17175362/0x01061342), end_alpha=0*, fade_time=1*)
119: 0x039B [0x9A] WAIT_MUSIC_SERVER()
120: 0x039C [0x5B] LOAD_EXT_SCHEDULER: Load scheduler 0xFEFEFE00 with entities [Nhev Befrathi (ID: 17175364/0x01061344), Nhev Befrathi (ID: 17175364/0x01061344)], work=2969*
121: 0x03AB [0x5B] LOAD_EXT_SCHEDULER: Load scheduler 0xFEFEFE00 with entities [Perih Vashai (ID: 17175368/0x01061348), Perih Vashai (ID: 17175368/0x01061348)], work=2086*
122: 0x03BA [0x1C] WAIT(10* ticks)
123: 0x03BD [0x4E] SET_ENTITY_HIDE_FLAG: Hide Lehko Habhoka (ID: 17175363/0x01061343)
124: 0x03C3 [0x27] REQ_SET(priority=0x10, entity_id=LocalPlayer, tag_num=0x21)
125: 0x03CA [0x1C] WAIT(30* ticks)
126: 0x03CD [0x45] LOAD_SCHEDULED_TASK: Load scheduler "z000" with entities [LocalPlayer, LocalPlayer], work=[522*, 0*]
127: 0x03DE [0x1A] CALL_SUBROUTINE(address=0x7902)
128: 0x03E1 [0x1C] WAIT(100* ticks)
129: 0x03E4 [0x27] REQ_SET(priority=0x10, entity_id=Unnamed NPC (ID: 17175377/0x01061351), tag_num=0x06)
130: 0x03EB [0x1C] WAIT(20* ticks)
131: 0x03EE [0x52] END_LOAD_SCHEDULER: End scheduler "z000" with entities [LocalPlayer, LocalPlayer], work=522*
132: 0x03FD [0x45] LOAD_SCHEDULED_TASK: Load scheduler "z001" with entities [LocalPlayer, LocalPlayer], work=[522*, 0*]
133: 0x040E [0x1C] WAIT(10* ticks)
