# 17175345

## Common Data

| Field            | Value                              |
|------------------|------------------------------------|
| Zone             | Meriphataud Mountains [S] (ID: 97) |
| Block Size       | 2588 bytes                         |
| Total Events     | 19                                 |
| References Count | 144                                |

## List of Events

| Event ID                   | Entrypoint   |   Size |   Instructions |
|----------------------------|--------------|--------|----------------|
| [65535](#event-65535)      | 0x0000       |      1 |              1 |
| [105](#event-105)          | 0x0001       |      1 |              1 |
| [65535.1](#event-655351)   | 0x0002       |     18 |              2 |
| [65535.2](#event-655352)   | 0x0014       |     18 |              2 |
| [65535.3](#event-655353)   | 0x0026       |    352 |             54 |
| [65535.4](#event-655354)   | 0x0186       |    151 |             15 |
| [65535.5](#event-655355)   | 0x021D       |    109 |             13 |
| [65535.6](#event-655356)   | 0x028A       |    182 |             30 |
| [65535.7](#event-655357)   | 0x0340       |     18 |              2 |
| [65535.8](#event-655358)   | 0x0352       |     18 |              2 |
| [65535.9](#event-655359)   | 0x0364       |    210 |             26 |
| [65535.10](#event-6553510) | 0x0436       |    128 |             20 |
| [65535.11](#event-6553511) | 0x04B6       |    113 |             17 |
| [65535.12](#event-6553512) | 0x0527       |     76 |             16 |
| [65535.13](#event-6553513) | 0x0573       |     76 |             16 |
| [65535.14](#event-6553514) | 0x05BF       |     76 |             16 |
| [65535.15](#event-6553515) | 0x060B       |     61 |             13 |
| [65535.16](#event-6553516) | 0x0648       |    153 |             17 |
| [65535.17](#event-6553517) | 0x06E1       |    156 |             18 |

## DAT References (imed_data)

|   Index | Hex Value   |   Dec Value |
|---------|-------------|-------------|
|       0 | 0x0185      |         389 |
|       1 | 0x0000      |           0 |
|       2 | 0x00C8      |         200 |
|       3 | 0x0013      |          19 |
|       4 | 0xFFFDC445  |  4294820933 |
|       5 | 0x52401     |      336897 |
|       6 | 0xFFFFF8CB  |  4294965451 |
|       7 | 0x0016      |          22 |
|       8 | 0xFFFD837B  |  4294804347 |
|       9 | 0x51ED9     |      335577 |
|      10 | 0x0245      |         581 |
|      11 | 0x1575C     |       87900 |
|      12 | 0x6E76      |       28278 |
|      13 | 0x16C1      |        5825 |
|      14 | 0xFFFD8D72  |  4294806898 |
|      15 | 0x4FC49     |      326729 |
|      16 | 0x00AA      |         170 |
|      17 | 0xFFFDC533  |  4294821171 |
|      18 | 0x518B2     |      334002 |
|      19 | 0xFFFFF8A5  |  4294965413 |
|      20 | 0x003C      |          60 |
|      21 | 0x0871      |        2161 |
|      22 | 0x086E      |        2158 |
|      23 | 0x14717     |       83735 |
|      24 | 0x8B92      |       35730 |
|      25 | 0x1AB4      |        6836 |
|      26 | 0x0898      |        2200 |
|      27 | 0x166AA     |       91818 |
|      28 | 0x976C      |       38764 |
|      29 | 0x1A90      |        6800 |
|      30 | 0x13E1E     |       81438 |
|      31 | 0x59C5      |       22981 |
|      32 | 0x1A9B      |        6811 |
|      33 | 0x0A28      |        2600 |
|      34 | 0x130AB     |       77995 |
|      35 | 0x8766      |       34662 |
|      36 | 0x1A80      |        6784 |
|      37 | 0x0E10      |        3600 |
|      38 | 0x14CC8     |       85192 |
|      39 | 0x6759      |       26457 |
|      40 | 0x196E      |        6510 |
|      41 | 0x0078      |         120 |
|      42 | 0xAD17A     |      708986 |
|      43 | 0x89BB6     |      564150 |
|      44 | 0xFFFFBAA3  |  4294949539 |
|      45 | 0x0064      |         100 |
|      46 | 0xAE2C5     |      713413 |
|      47 | 0x8A277     |      565879 |
|      48 | 0xFFFFBF07  |  4294950663 |
|      49 | 0xB083B     |      723003 |
|      50 | 0x8A4C2     |      566466 |
|      51 | 0xFFFFC1FA  |  4294951418 |
|      52 | 0x03E8      |        1000 |
|      53 | 0xAE0C7     |      712903 |
|      54 | 0x8A0EE     |      565486 |
|      55 | 0xFFFFBF04  |  4294950660 |
|      56 | 0xAED2E     |      716078 |
|      57 | 0x88A1F     |      559647 |
|      58 | 0xFFFFC145  |  4294951237 |
|      59 | 0xAD2B4     |      709300 |
|      60 | 0x8B7D6     |      571350 |
|      61 | 0xFFFF9CF0  |  4294941936 |
|      62 | 0x0276      |         630 |
|      63 | 0xAFCFD     |      720125 |
|      64 | 0x89508     |      562440 |
|      65 | 0xFFFFC180  |  4294951296 |
|      66 | 0x0CA2      |        3234 |
|      67 | 0xAFDD5     |      720341 |
|      68 | 0x87DDB     |      556507 |
|      69 | 0x012C      |         300 |
|      70 | 0xB0DF2     |      724466 |
|      71 | 0x8B761     |      571233 |
|      72 | 0xFFFFC295  |  4294951573 |
|      73 | 0x0B62      |        2914 |
|      74 | 0x00A3      |         163 |
|      75 | 0x007F      |         127 |
|      76 | 0x888E0     |      559328 |
|      77 | 0x8D560     |      578912 |
|      78 | 0xFFFF86B1  |  4294936241 |
|      79 | 0x04AA      |        1194 |
|      80 | 0x88F60     |      560992 |
|      81 | 0x8D091     |      577681 |
|      82 | 0xFFFF8674  |  4294936180 |
|      83 | 0x87FF7     |      557047 |
|      84 | 0x8D21D     |      578077 |
|      85 | 0xFFFF8688  |  4294936200 |
|      86 | 0x88414     |      558100 |
|      87 | 0x8D413     |      578579 |
|      88 | 0xFFFF86A1  |  4294936225 |
|      89 | 0x0C17      |        3095 |
|      90 | 0x88900     |      559360 |
|      91 | 0x8DFA5     |      581541 |
|      92 | 0xFFFF869B  |  4294936219 |
|      93 | 0x889DD     |      559581 |
|      94 | 0x8D7E6     |      579558 |
|      95 | 0xFFFF8650  |  4294936144 |
|      96 | 0x05DC      |        1500 |
|      97 | 0x086B      |        2155 |
|      98 | 0x899BC     |      563644 |
|      99 | 0x8CDF8     |      577016 |
|     100 | 0xFFFF8653  |  4294936147 |
|     101 | 0x04A8      |        1192 |
|     102 | 0x889C4     |      559556 |
|     103 | 0x8BDC8     |      572872 |
|     104 | 0xFFFF84E3  |  4294935779 |
|     105 | 0x04DD      |        1245 |
|     106 | 0x88C90     |      560272 |
|     107 | 0x8D8DD     |      579805 |
|     108 | 0xFFFF86DE  |  4294936286 |
|     109 | 0x0C9E      |        3230 |
|     110 | 0x89BC4     |      564164 |
|     111 | 0x8E42E     |      582702 |
|     112 | 0xFFFF862E  |  4294936110 |
|     113 | 0x89964     |      563556 |
|     114 | 0x8CD0B     |      576779 |
|     115 | 0xFFFF8647  |  4294936135 |
|     116 | 0x03BA      |         954 |
|     117 | 0x882E6     |      557798 |
|     118 | 0x8E9B9     |      584121 |
|     119 | 0xFFFF8611  |  4294936081 |
|     120 | 0x0403      |        1027 |
|     121 | 0x88CE2     |      560354 |
|     122 | 0x8D570     |      578928 |
|     123 | 0xFFFF86B2  |  4294936242 |
|     124 | 0x0B52      |        2898 |
|     125 | 0xFFFF86D2  |  4294936274 |
|     126 | 0x0C7A      |        3194 |
|     127 | 0x569C6     |      354758 |
|     128 | 0x32B4F     |      207695 |
|     129 | 0x0FFA      |        4090 |
|     130 | 0x0069      |         105 |
|     131 | 0x57658     |      357976 |
|     132 | 0x343C3     |      213955 |
|     133 | 0x0F9F      |        3999 |
|     134 | 0x56F84     |      356228 |
|     135 | 0x32EBA     |      208570 |
|     136 | 0x0F76      |        3958 |
|     137 | 0x56EA7     |      356007 |
|     138 | 0x310E1     |      200929 |
|     139 | 0x0F9D      |        3997 |
|     140 | 0x005A      |          90 |
|     141 | 0x57F15     |      360213 |
|     142 | 0x3246C     |      205932 |
|     143 | 0x0001      |           1 |

## Events

### Event 65535

#### Metadata

| Field        | Value   |
|--------------|---------|
| Entrypoint   | 0x0000  |
| Data Size    | 1 bytes |
| Instructions | 1       |

```
      00 01 02 03 04 05 06 07  08 09 0A 0B 0C 0D 0E 0F
      -- -- -- -- -- -- -- --  -- -- -- -- -- -- -- --
0000: 00                                                .               
```

#### Opcodes

```
  0: 0x0000 [0x00] END_REQSTACK()
```

### Event 105

#### Metadata

| Field        | Value   |
|--------------|---------|
| Entrypoint   | 0x0001  |
| Data Size    | 1 bytes |
| Instructions | 1       |

```
      00 01 02 03 04 05 06 07  08 09 0A 0B 0C 0D 0E 0F
      -- -- -- -- -- -- -- --  -- -- -- -- -- -- -- --
0000:    00                                              .              
```

#### Opcodes

```
  0: 0x0001 [0x00] END_REQSTACK()
```

### Event 65535.1

#### Metadata

| Field        | Value    |
|--------------|----------|
| Entrypoint   | 0x0002   |
| Data Size    | 18 bytes |
| Instructions | 2        |

```
      00 01 02 03 04 05 06 07  08 09 0A 0B 0C 0D 0E 0F
      -- -- -- -- -- -- -- --  -- -- -- -- -- -- -- --
0000:       45 00 80 F0 FF FF  7F F0 FF FF 7F 73 31 33    E..........s13
0010: 35 01 80 00                                       5...            
```

#### Opcodes

```
  0: 0x0002 [0x45] LOAD_SCHEDULED_TASK: Load scheduler "s135" with entities [LocalPlayer, LocalPlayer], work=[389*, 0*]
  1: 0x0013 [0x00] END_REQSTACK()
```

### Event 65535.2

#### Metadata

| Field        | Value    |
|--------------|----------|
| Entrypoint   | 0x0014   |
| Data Size    | 18 bytes |
| Instructions | 2        |

```
      00 01 02 03 04 05 06 07  08 09 0A 0B 0C 0D 0E 0F
      -- -- -- -- -- -- -- --  -- -- -- -- -- -- -- --
0010:             45 02 80 F0  FF FF 7F F0 FF FF 7F 62      E..........b
0020: 6C 6F 66 01 80 00                                 lof...          
```

#### Opcodes

```
  0: 0x0014 [0x45] LOAD_SCHEDULED_TASK: Load scheduler "blof" with entities [LocalPlayer, LocalPlayer], work=[200*, 0*]
  1: 0x0025 [0x00] END_REQSTACK()
```

### Event 65535.3

#### Metadata

| Field        | Value     |
|--------------|-----------|
| Entrypoint   | 0x0026    |
| Data Size    | 352 bytes |
| Instructions | 54        |

```
      00 01 02 03 04 05 06 07  08 09 0A 0B 0C 0D 0E 0F
      -- -- -- -- -- -- -- --  -- -- -- -- -- -- -- --
0020:                   46 01  4E 01 F0 FF FF 7F 92 01        F.N.......
0030: F0 FF FF 7F 94 01 F0 FF  FF 7F 80 F0 FF FF 7F 38  ...............8
0040: 03 80 2F 00 34 13 06 01  2F 00 33 13 06 01 2F 00  ../.4.../.3.../.
0050: 35 13 06 01 2F 00 36 13  06 01 2F 00 37 13 06 01  5.../.6.../.7...
0060: 2F 00 38 13 06 01 4E 00  34 13 06 01 4E 00 33 13  /.8...N.4...N.3.
0070: 06 01 4E 00 35 13 06 01  4E 00 36 13 06 01 4E 00  ..N.5...N.6...N.
0080: 37 13 06 01 4E 00 38 13  06 01 94 01 34 13 06 01  7...N.8.....4...
0090: 94 01 33 13 06 01 94 01  35 13 06 01 94 01 36 13  ..3.....5.....6.
00A0: 06 01 94 01 37 13 06 01  94 01 38 13 06 01 92 01  ....7.....8.....
00B0: 34 13 06 01 92 01 33 13  06 01 92 01 35 13 06 01  4.....3.....5...
00C0: 92 01 36 13 06 01 92 01  37 13 06 01 92 01 38 13  ..6.....7.....8.
00D0: 06 01 BA 34 13 06 01 04  80 05 80 06 80 07 80 BA  ...4............
00E0: 33 13 06 01 04 80 05 80  06 80 07 80 BA 35 13 06  3............5..
00F0: 01 08 80 09 80 0A 80 07  80 BA 36 13 06 01 0B 80  ..........6.....
0100: 0C 80 0D 80 07 80 BA 37  13 06 01 0E 80 0F 80 10  .......7........
0110: 80 07 80 BA 38 13 06 01  11 80 12 80 13 80 07 80  ....8...........
0120: 33 00 33 00 33 00 33 00  33 00 33 00 80 34 13 06  3.3.3.3.3.3..4..
0130: 01 80 33 13 06 01 80 35  13 06 01 80 36 13 06 01  ..3....5....6...
0140: 80 37 13 06 01 80 38 13  06 01 1C 14 80 5B 15 80  .7....8......[..
0150: 33 13 06 01 33 13 06 01  73 61 69 30 53 33 13 06  3...3...sai0S3..
0160: 01 33 13 06 01 73 61 69  30 5B 16 80 34 13 06 01  .3...sai0[..4...
0170: 34 13 06 01 73 61 69 30  53 34 13 06 01 34 13 06  4...sai0S4...4..
0180: 01 73 61 69 30 00                                 .sai0.          
```

#### Opcodes

```
  0: 0x0026 [0x46] CAMERA_CONTROL: Disable user control
  1: 0x0028 [0x4E] SET_ENTITY_HIDE_FLAG: Hide LocalPlayer
  2: 0x002E [0x92] LocalPlayer->Render.Flags3 ^= 0x01
  3: 0x0034 [0x94] LocalPlayer->Render.Flags3 ^= 0x01
  4: 0x003A [0x80] LOAD_WAIT(entity=LocalPlayer)
  5: 0x003F [0x38] SET_CLIENT_EVENT_MODE(mode=19*)
  6: 0x0042 [0x2F] Abenzio (ID: 17175348/0x01061334)->Render.Flags0 &= ~0x80000 // Bit 19
  7: 0x0048 [0x2F] Babban Ny Mheillea (ID: 17175347/0x01061333)->Render.Flags0 &= ~0x80000 // Bit 19
  8: 0x004E [0x2F] Bryher (ID: 17175349/0x01061335)->Render.Flags0 &= ~0x80000 // Bit 19
  9: 0x0054 [0x2F] Camlin (ID: 17175350/0x01061336)->Render.Flags0 &= ~0x80000 // Bit 19
 10: 0x005A [0x2F] Darach (ID: 17175351/0x01061337)->Render.Flags0 &= ~0x80000 // Bit 19
 11: 0x0060 [0x2F] Unnamed NPC (ID: 17175352/0x01061338)->Render.Flags0 &= ~0x80000 // Bit 19
 12: 0x0066 [0x4E] SET_ENTITY_HIDE_FLAG: Show Abenzio (ID: 17175348/0x01061334)
 13: 0x006C [0x4E] SET_ENTITY_HIDE_FLAG: Show Babban Ny Mheillea (ID: 17175347/0x01061333)
 14: 0x0072 [0x4E] SET_ENTITY_HIDE_FLAG: Show Bryher (ID: 17175349/0x01061335)
 15: 0x0078 [0x4E] SET_ENTITY_HIDE_FLAG: Show Camlin (ID: 17175350/0x01061336)
 16: 0x007E [0x4E] SET_ENTITY_HIDE_FLAG: Show Darach (ID: 17175351/0x01061337)
 17: 0x0084 [0x4E] SET_ENTITY_HIDE_FLAG: Show Unnamed NPC (ID: 17175352/0x01061338)
 18: 0x008A [0x94] Abenzio (ID: 17175348/0x01061334)->Render.Flags3 ^= 0x01
 19: 0x0090 [0x94] Babban Ny Mheillea (ID: 17175347/0x01061333)->Render.Flags3 ^= 0x01
 20: 0x0096 [0x94] Bryher (ID: 17175349/0x01061335)->Render.Flags3 ^= 0x01
 21: 0x009C [0x94] Camlin (ID: 17175350/0x01061336)->Render.Flags3 ^= 0x01
 22: 0x00A2 [0x94] Darach (ID: 17175351/0x01061337)->Render.Flags3 ^= 0x01
 23: 0x00A8 [0x94] Unnamed NPC (ID: 17175352/0x01061338)->Render.Flags3 ^= 0x01
 24: 0x00AE [0x92] Abenzio (ID: 17175348/0x01061334)->Render.Flags3 ^= 0x01
 25: 0x00B4 [0x92] Babban Ny Mheillea (ID: 17175347/0x01061333)->Render.Flags3 ^= 0x01
 26: 0x00BA [0x92] Bryher (ID: 17175349/0x01061335)->Render.Flags3 ^= 0x01
 27: 0x00C0 [0x92] Camlin (ID: 17175350/0x01061336)->Render.Flags3 ^= 0x01
 28: 0x00C6 [0x92] Darach (ID: 17175351/0x01061337)->Render.Flags3 ^= 0x01
 29: 0x00CC [0x92] Unnamed NPC (ID: 17175352/0x01061338)->Render.Flags3 ^= 0x01
 30: 0x00D2 [0xBA] SET_ENTITY_POSITION(entity_id=Abenzio (ID: 17175348/0x01061334), pos_x=-146.363*, pos_z=336.897*, pos_y=-1.845*, direction=1.9°*)
 31: 0x00DF [0xBA] SET_ENTITY_POSITION(entity_id=Babban Ny Mheillea (ID: 17175347/0x01061333), pos_x=-146.363*, pos_z=336.897*, pos_y=-1.845*, direction=1.9°*)
 32: 0x00EC [0xBA] SET_ENTITY_POSITION(entity_id=Bryher (ID: 17175349/0x01061335), pos_x=-162.949*, pos_z=335.577*, pos_y=0.581*, direction=1.9°*)
 33: 0x00F9 [0xBA] SET_ENTITY_POSITION(entity_id=Camlin (ID: 17175350/0x01061336), pos_x=87.900*, pos_z=28.278*, pos_y=5.825*, direction=1.9°*)
 34: 0x0106 [0xBA] SET_ENTITY_POSITION(entity_id=Darach (ID: 17175351/0x01061337), pos_x=-160.398*, pos_z=326.729*, pos_y=0.170*, direction=1.9°*)
 35: 0x0113 [0xBA] SET_ENTITY_POSITION(entity_id=Unnamed NPC (ID: 17175352/0x01061338), pos_x=-146.125*, pos_z=334.002*, pos_y=-1.883*, direction=1.9°*)
 36: 0x0120 [0x33] EventEntity->Render.Flags0 &= ~ 0x200000 // Bit 21 (flag=0x00)
 37: 0x0122 [0x33] EventEntity->Render.Flags0 &= ~ 0x200000 // Bit 21 (flag=0x00)
 38: 0x0124 [0x33] EventEntity->Render.Flags0 &= ~ 0x200000 // Bit 21 (flag=0x00)
 39: 0x0126 [0x33] EventEntity->Render.Flags0 &= ~ 0x200000 // Bit 21 (flag=0x00)
 40: 0x0128 [0x33] EventEntity->Render.Flags0 &= ~ 0x200000 // Bit 21 (flag=0x00)
 41: 0x012A [0x33] EventEntity->Render.Flags0 &= ~ 0x200000 // Bit 21 (flag=0x00)
 42: 0x012C [0x80] LOAD_WAIT(entity=Abenzio (ID: 17175348/0x01061334))
 43: 0x0131 [0x80] LOAD_WAIT(entity=Babban Ny Mheillea (ID: 17175347/0x01061333))
 44: 0x0136 [0x80] LOAD_WAIT(entity=Bryher (ID: 17175349/0x01061335))
 45: 0x013B [0x80] LOAD_WAIT(entity=Camlin (ID: 17175350/0x01061336))
 46: 0x0140 [0x80] LOAD_WAIT(entity=Darach (ID: 17175351/0x01061337))
 47: 0x0145 [0x80] LOAD_WAIT(entity=Unnamed NPC (ID: 17175352/0x01061338))
 48: 0x014A [0x1C] WAIT(60* ticks)
 49: 0x014D [0x5B] LOAD_EXT_SCHEDULER: Load scheduler "sai0" with entities [Babban Ny Mheillea (ID: 17175347/0x01061333), Babban Ny Mheillea (ID: 17175347/0x01061333)], work=2161*
 50: 0x015C [0x53] WAIT_SCHEDULER_TASK: Wait for scheduler "sai0" with entities [Babban Ny Mheillea (ID: 17175347/0x01061333), Babban Ny Mheillea (ID: 17175347/0x01061333)]
 51: 0x0169 [0x5B] LOAD_EXT_SCHEDULER: Load scheduler "sai0" with entities [Abenzio (ID: 17175348/0x01061334), Abenzio (ID: 17175348/0x01061334)], work=2158*
 52: 0x0178 [0x53] WAIT_SCHEDULER_TASK: Wait for scheduler "sai0" with entities [Abenzio (ID: 17175348/0x01061334), Abenzio (ID: 17175348/0x01061334)]
 53: 0x0185 [0x00] END_REQSTACK()
```

### Event 65535.4

#### Metadata

| Field        | Value     |
|--------------|-----------|
| Entrypoint   | 0x0186    |
| Data Size    | 151 bytes |
| Instructions | 15        |

```
      00 01 02 03 04 05 06 07  08 09 0A 0B 0C 0D 0E 0F
      -- -- -- -- -- -- -- --  -- -- -- -- -- -- -- --
0180:                   BA 34  13 06 01 17 80 18 80 19        .4........
0190: 80 1A 80 BA 33 13 06 01  17 80 18 80 19 80 1A 80  ....3...........
01A0: BA 35 13 06 01 1B 80 1C  80 1D 80 1A 80 BA 36 13  .5............6.
01B0: 06 01 1E 80 1F 80 20 80  21 80 BA 37 13 06 01 22  ...... .!..7..."
01C0: 80 23 80 24 80 25 80 BA  38 13 06 01 26 80 27 80  .#.$.%..8...&.'.
01D0: 28 80 1A 80 80 33 13 06  01 80 34 13 06 01 1C 29  (....3....4....)
01E0: 80 5B 15 80 33 13 06 01  33 13 06 01 73 61 69 30  .[..3...3...sai0
01F0: 53 33 13 06 01 33 13 06  01 73 61 69 30 5B 16 80  S3...3...sai0[..
0200: 34 13 06 01 34 13 06 01  73 61 69 30 53 34 13 06  4...4...sai0S4..
0210: 01 34 13 06 01 73 61 69  30 1C 29 80 00           .4...sai0.)..   
```

#### Opcodes

```
  0: 0x0186 [0xBA] SET_ENTITY_POSITION(entity_id=Abenzio (ID: 17175348/0x01061334), pos_x=83.735*, pos_z=35.730*, pos_y=6.836*, direction=193.4°*)
  1: 0x0193 [0xBA] SET_ENTITY_POSITION(entity_id=Babban Ny Mheillea (ID: 17175347/0x01061333), pos_x=83.735*, pos_z=35.730*, pos_y=6.836*, direction=193.4°*)
  2: 0x01A0 [0xBA] SET_ENTITY_POSITION(entity_id=Bryher (ID: 17175349/0x01061335), pos_x=91.818*, pos_z=38.764*, pos_y=6.800*, direction=193.4°*)
  3: 0x01AD [0xBA] SET_ENTITY_POSITION(entity_id=Camlin (ID: 17175350/0x01061336), pos_x=81.438*, pos_z=22.981*, pos_y=6.811*, direction=228.5°*)
  4: 0x01BA [0xBA] SET_ENTITY_POSITION(entity_id=Darach (ID: 17175351/0x01061337), pos_x=77.995*, pos_z=34.662*, pos_y=6.784*, direction=316.4°*)
  5: 0x01C7 [0xBA] SET_ENTITY_POSITION(entity_id=Unnamed NPC (ID: 17175352/0x01061338), pos_x=85.192*, pos_z=26.457*, pos_y=6.510*, direction=193.4°*)
  6: 0x01D4 [0x80] LOAD_WAIT(entity=Babban Ny Mheillea (ID: 17175347/0x01061333))
  7: 0x01D9 [0x80] LOAD_WAIT(entity=Abenzio (ID: 17175348/0x01061334))
  8: 0x01DE [0x1C] WAIT(120* ticks)
  9: 0x01E1 [0x5B] LOAD_EXT_SCHEDULER: Load scheduler "sai0" with entities [Babban Ny Mheillea (ID: 17175347/0x01061333), Babban Ny Mheillea (ID: 17175347/0x01061333)], work=2161*
 10: 0x01F0 [0x53] WAIT_SCHEDULER_TASK: Wait for scheduler "sai0" with entities [Babban Ny Mheillea (ID: 17175347/0x01061333), Babban Ny Mheillea (ID: 17175347/0x01061333)]
 11: 0x01FD [0x5B] LOAD_EXT_SCHEDULER: Load scheduler "sai0" with entities [Abenzio (ID: 17175348/0x01061334), Abenzio (ID: 17175348/0x01061334)], work=2158*
 12: 0x020C [0x53] WAIT_SCHEDULER_TASK: Wait for scheduler "sai0" with entities [Abenzio (ID: 17175348/0x01061334), Abenzio (ID: 17175348/0x01061334)]
 13: 0x0219 [0x1C] WAIT(120* ticks)
 14: 0x021C [0x00] END_REQSTACK()
```

### Event 65535.5

#### Metadata

| Field        | Value     |
|--------------|-----------|
| Entrypoint   | 0x021D    |
| Data Size    | 109 bytes |
| Instructions | 13        |

```
      00 01 02 03 04 05 06 07  08 09 0A 0B 0C 0D 0E 0F
      -- -- -- -- -- -- -- --  -- -- -- -- -- -- -- --
0210:                                         BA 34 13               .4.
0220: 06 01 2A 80 2B 80 2C 80  2D 80 BA 33 13 06 01 2E  ..*.+.,.-..3....
0230: 80 2F 80 30 80 01 80 BA  35 13 06 01 31 80 32 80  ./.0....5...1.2.
0240: 33 80 34 80 BA 36 13 06  01 35 80 36 80 37 80 01  3.4..6...5.6.7..
0250: 80 BA 37 13 06 01 38 80  39 80 3A 80 01 80 BA 38  ..7...8.9.:....8
0260: 13 06 01 3B 80 3C 80 3D  80 3E 80 80 38 13 06 01  ...;.<.=.>..8...
0270: 80 33 13 06 01 80 34 13  06 01 80 35 13 06 01 80  .3....4....5....
0280: 36 13 06 01 80 37 13 06  01 00                    6....7....      
```

#### Opcodes

```
  0: 0x021D [0xBA] SET_ENTITY_POSITION(entity_id=Abenzio (ID: 17175348/0x01061334), pos_x=708.986*, pos_z=564.150*, pos_y=-17.757*, direction=8.8°*)
  1: 0x022A [0xBA] SET_ENTITY_POSITION(entity_id=Babban Ny Mheillea (ID: 17175347/0x01061333), pos_x=713.413*, pos_z=565.879*, pos_y=-16.633*, direction=0.0°*)
  2: 0x0237 [0xBA] SET_ENTITY_POSITION(entity_id=Bryher (ID: 17175349/0x01061335), pos_x=723.003*, pos_z=566.466*, pos_y=-15.878*, direction=87.9°*)
  3: 0x0244 [0xBA] SET_ENTITY_POSITION(entity_id=Camlin (ID: 17175350/0x01061336), pos_x=712.903*, pos_z=565.486*, pos_y=-16.636*, direction=0.0°*)
  4: 0x0251 [0xBA] SET_ENTITY_POSITION(entity_id=Darach (ID: 17175351/0x01061337), pos_x=716.078*, pos_z=559.647*, pos_y=-16.059*, direction=0.0°*)
  5: 0x025E [0xBA] SET_ENTITY_POSITION(entity_id=Unnamed NPC (ID: 17175352/0x01061338), pos_x=709.300*, pos_z=571.350*, pos_y=-25.360*, direction=55.4°*)
  6: 0x026B [0x80] LOAD_WAIT(entity=Unnamed NPC (ID: 17175352/0x01061338))
  7: 0x0270 [0x80] LOAD_WAIT(entity=Babban Ny Mheillea (ID: 17175347/0x01061333))
  8: 0x0275 [0x80] LOAD_WAIT(entity=Abenzio (ID: 17175348/0x01061334))
  9: 0x027A [0x80] LOAD_WAIT(entity=Bryher (ID: 17175349/0x01061335))
 10: 0x027F [0x80] LOAD_WAIT(entity=Camlin (ID: 17175350/0x01061336))
 11: 0x0284 [0x80] LOAD_WAIT(entity=Darach (ID: 17175351/0x01061337))
 12: 0x0289 [0x00] END_REQSTACK()
```

### Event 65535.6

#### Metadata

| Field        | Value     |
|--------------|-----------|
| Entrypoint   | 0x028A    |
| Data Size    | 182 bytes |
| Instructions | 30        |

```
      00 01 02 03 04 05 06 07  08 09 0A 0B 0C 0D 0E 0F
      -- -- -- -- -- -- -- --  -- -- -- -- -- -- -- --
0280:                                5B 15 80 33 13 06            [..3..
0290: 01 33 13 06 01 74 6C 6B  30 53 33 13 06 01 33 13  .3...tlk0S3...3.
02A0: 06 01 74 6C 6B 30 BA 35  13 06 01 3F 80 40 80 41  ..tlk0.5...?.@.A
02B0: 80 42 80 BA 37 13 06 01  43 80 44 80 41 80 45 80  .B..7...C.D.A.E.
02C0: BA 34 13 06 01 46 80 47  80 48 80 49 80 80 38 13  .4...F.G.H.I..8.
02D0: 06 01 80 33 13 06 01 80  34 13 06 01 80 35 13 06  ...3....4....5..
02E0: 01 80 36 13 06 01 80 37  13 06 01 4A 34 13 06 01  ..6....7...J4...
02F0: 35 13 06 01 4A 35 13 06  01 34 13 06 01 4A 33 13  5...J5...4...J3.
0300: 06 01 34 13 06 01 4A 36  13 06 01 34 13 06 01 4A  ..4...J6...4...J
0310: 37 13 06 01 34 13 06 01  6F 76 34 13 06 01 6F 76  7...4...ov4...ov
0320: 36 13 06 01 6F 76 33 13  06 01 6F 76 35 13 06 01  6...ov3...ov5...
0330: 6F 76 37 13 06 01 5C 00  4A 80 5C 01 4A 80 9A 00  ov7...\.J.\.J...
```

#### Opcodes

```
  0: 0x028A [0x5B] LOAD_EXT_SCHEDULER: Load scheduler "tlk0" with entities [Babban Ny Mheillea (ID: 17175347/0x01061333), Babban Ny Mheillea (ID: 17175347/0x01061333)], work=2161*
  1: 0x0299 [0x53] WAIT_SCHEDULER_TASK: Wait for scheduler "tlk0" with entities [Babban Ny Mheillea (ID: 17175347/0x01061333), Babban Ny Mheillea (ID: 17175347/0x01061333)]
  2: 0x02A6 [0xBA] SET_ENTITY_POSITION(entity_id=Bryher (ID: 17175349/0x01061335), pos_x=720.125*, pos_z=562.440*, pos_y=-16.000*, direction=284.2°*)
  3: 0x02B3 [0xBA] SET_ENTITY_POSITION(entity_id=Darach (ID: 17175351/0x01061337), pos_x=720.341*, pos_z=556.507*, pos_y=-16.000*, direction=26.4°*)
  4: 0x02C0 [0xBA] SET_ENTITY_POSITION(entity_id=Abenzio (ID: 17175348/0x01061334), pos_x=724.466*, pos_z=571.233*, pos_y=-15.723*, direction=256.1°*)
  5: 0x02CD [0x80] LOAD_WAIT(entity=Unnamed NPC (ID: 17175352/0x01061338))
  6: 0x02D2 [0x80] LOAD_WAIT(entity=Babban Ny Mheillea (ID: 17175347/0x01061333))
  7: 0x02D7 [0x80] LOAD_WAIT(entity=Abenzio (ID: 17175348/0x01061334))
  8: 0x02DC [0x80] LOAD_WAIT(entity=Bryher (ID: 17175349/0x01061335))
  9: 0x02E1 [0x80] LOAD_WAIT(entity=Camlin (ID: 17175350/0x01061336))
 10: 0x02E6 [0x80] LOAD_WAIT(entity=Darach (ID: 17175351/0x01061337))
 11: 0x02EB [0x4A] Abenzio (ID: 17175348/0x01061334) looks at Bryher (ID: 17175349/0x01061335)
 12: 0x02F4 [0x4A] Bryher (ID: 17175349/0x01061335) looks at Abenzio (ID: 17175348/0x01061334)
 13: 0x02FD [0x4A] Babban Ny Mheillea (ID: 17175347/0x01061333) looks at Abenzio (ID: 17175348/0x01061334)
 14: 0x0306 [0x4A] Camlin (ID: 17175350/0x01061336) looks at Abenzio (ID: 17175348/0x01061334)
 15: 0x030F [0x4A] Darach (ID: 17175351/0x01061337) looks at Abenzio (ID: 17175348/0x01061334)
 16: 0x0318 [0x6F] WAIT_FRAME_DELAY: Yield until WaitTime reaches zero
 17: 0x0319 [0x76] CHECK_ENTITY_RENDER_FLAGS: Wait until Abenzio (ID: 17175348/0x01061334) Render.Flags0 and Render.Flags3 conditions are met
 18: 0x031E [0x6F] WAIT_FRAME_DELAY: Yield until WaitTime reaches zero
 19: 0x031F [0x76] CHECK_ENTITY_RENDER_FLAGS: Wait until Camlin (ID: 17175350/0x01061336) Render.Flags0 and Render.Flags3 conditions are met
 20: 0x0324 [0x6F] WAIT_FRAME_DELAY: Yield until WaitTime reaches zero
 21: 0x0325 [0x76] CHECK_ENTITY_RENDER_FLAGS: Wait until Babban Ny Mheillea (ID: 17175347/0x01061333) Render.Flags0 and Render.Flags3 conditions are met
 22: 0x032A [0x6F] WAIT_FRAME_DELAY: Yield until WaitTime reaches zero
 23: 0x032B [0x76] CHECK_ENTITY_RENDER_FLAGS: Wait until Bryher (ID: 17175349/0x01061335) Render.Flags0 and Render.Flags3 conditions are met
 24: 0x0330 [0x6F] WAIT_FRAME_DELAY: Yield until WaitTime reaches zero
 25: 0x0331 [0x76] CHECK_ENTITY_RENDER_FLAGS: Wait until Darach (ID: 17175351/0x01061337) Render.Flags0 and Render.Flags3 conditions are met
 26: 0x0336 [0x5C] MUSIC_CONTROL: Set Idle (Day) music to song 163*
 27: 0x033A [0x5C] MUSIC_CONTROL: Set Idle (Night) music to song 163*
 28: 0x033E [0x9A] WAIT_MUSIC_SERVER()
 29: 0x033F [0x00] END_REQSTACK()
```

### Event 65535.7

#### Metadata

| Field        | Value    |
|--------------|----------|
| Entrypoint   | 0x0340   |
| Data Size    | 18 bytes |
| Instructions | 2        |

```
      00 01 02 03 04 05 06 07  08 09 0A 0B 0C 0D 0E 0F
      -- -- -- -- -- -- -- --  -- -- -- -- -- -- -- --
0340: 9F 4B 80 F8 FF FF 7F F8  FF FF 7F 73 74 72 30 01  .K.........str0.
0350: 80 00                                             ..              
```

#### Opcodes

```
  0: 0x0340 [0x9F] LOAD_SCHEDULED_TASK_ALT: Load scheduler "str0" with entities [EventEntity, EventEntity], work=[127*, 0*]
  1: 0x0351 [0x00] END_REQSTACK()
```

### Event 65535.8

#### Metadata

| Field        | Value    |
|--------------|----------|
| Entrypoint   | 0x0352   |
| Data Size    | 18 bytes |
| Instructions | 2        |

```
      00 01 02 03 04 05 06 07  08 09 0A 0B 0C 0D 0E 0F
      -- -- -- -- -- -- -- --  -- -- -- -- -- -- -- --
0350:       9F 4B 80 F8 FF FF  7F F8 FF FF 7F 6B 69 6C    .K.........kil
0360: 6C 01 80 00                                       l...            
```

#### Opcodes

```
  0: 0x0352 [0x9F] LOAD_SCHEDULED_TASK_ALT: Load scheduler "kill" with entities [EventEntity, EventEntity], work=[127*, 0*]
  1: 0x0363 [0x00] END_REQSTACK()
```

### Event 65535.9

#### Metadata

| Field        | Value     |
|--------------|-----------|
| Entrypoint   | 0x0364    |
| Data Size    | 210 bytes |
| Instructions | 26        |

```
      00 01 02 03 04 05 06 07  08 09 0A 0B 0C 0D 0E 0F
      -- -- -- -- -- -- -- --  -- -- -- -- -- -- -- --
0360:             5B 15 80 33  13 06 01 33 13 06 01 74      [..3...3...t
0370: 6C 6B 31 53 33 13 06 01  33 13 06 01 74 6C 6B 31  lk1S3...3...tlk1
0380: BA 33 13 06 01 4C 80 4D  80 4E 80 4F 80 BA 34 13  .3...L.M.N.O..4.
0390: 06 01 50 80 51 80 52 80  4F 80 BA 35 13 06 01 53  ..P.Q.R.O..5...S
03A0: 80 54 80 55 80 4F 80 BA  36 13 06 01 56 80 57 80  .T.U.O..6...V.W.
03B0: 58 80 59 80 BA 37 13 06  01 5A 80 5B 80 5C 80 4F  X.Y..7...Z.[.\.O
03C0: 80 BA 38 13 06 01 5D 80  5E 80 5F 80 60 80 5B 61  ..8...].^._.`.[a
03D0: 80 38 13 06 01 38 13 06  01 6B 69 7A 30 53 38 13  .8...8...kiz0S8.
03E0: 06 01 38 13 06 01 6B 69  7A 30 4A 33 13 06 01 35  ..8...kiz0J3...5
03F0: 13 06 01 4A 34 13 06 01  38 13 06 01 4A 35 13 06  ...J4...8...J5..
0400: 01 38 13 06 01 4A 36 13  06 01 33 13 06 01 4A 37  .8...J6...3...J7
0410: 13 06 01 38 13 06 01 6F  76 33 13 06 01 6F 76 34  ...8...ov3...ov4
0420: 13 06 01 6F 76 35 13 06  01 6F 76 36 13 06 01 6F  ...ov5...ov6...o
0430: 76 37 13 06 01 00                                 v7....          
```

#### Opcodes

```
  0: 0x0364 [0x5B] LOAD_EXT_SCHEDULER: Load scheduler "tlk1" with entities [Babban Ny Mheillea (ID: 17175347/0x01061333), Babban Ny Mheillea (ID: 17175347/0x01061333)], work=2161*
  1: 0x0373 [0x53] WAIT_SCHEDULER_TASK: Wait for scheduler "tlk1" with entities [Babban Ny Mheillea (ID: 17175347/0x01061333), Babban Ny Mheillea (ID: 17175347/0x01061333)]
  2: 0x0380 [0xBA] SET_ENTITY_POSITION(entity_id=Babban Ny Mheillea (ID: 17175347/0x01061333), pos_x=559.328*, pos_z=578.912*, pos_y=-31.055*, direction=104.9°*)
  3: 0x038D [0xBA] SET_ENTITY_POSITION(entity_id=Abenzio (ID: 17175348/0x01061334), pos_x=560.992*, pos_z=577.681*, pos_y=-31.116*, direction=104.9°*)
  4: 0x039A [0xBA] SET_ENTITY_POSITION(entity_id=Bryher (ID: 17175349/0x01061335), pos_x=557.047*, pos_z=578.077*, pos_y=-31.096*, direction=104.9°*)
  5: 0x03A7 [0xBA] SET_ENTITY_POSITION(entity_id=Camlin (ID: 17175350/0x01061336), pos_x=558.100*, pos_z=578.579*, pos_y=-31.071*, direction=272.0°*)
  6: 0x03B4 [0xBA] SET_ENTITY_POSITION(entity_id=Darach (ID: 17175351/0x01061337), pos_x=559.360*, pos_z=581.541*, pos_y=-31.077*, direction=104.9°*)
  7: 0x03C1 [0xBA] SET_ENTITY_POSITION(entity_id=Unnamed NPC (ID: 17175352/0x01061338), pos_x=559.581*, pos_z=579.558*, pos_y=-31.152*, direction=131.8°*)
  8: 0x03CE [0x5B] LOAD_EXT_SCHEDULER: Load scheduler "kiz0" with entities [Unnamed NPC (ID: 17175352/0x01061338), Unnamed NPC (ID: 17175352/0x01061338)], work=2155*
  9: 0x03DD [0x53] WAIT_SCHEDULER_TASK: Wait for scheduler "kiz0" with entities [Unnamed NPC (ID: 17175352/0x01061338), Unnamed NPC (ID: 17175352/0x01061338)]
 10: 0x03EA [0x4A] Babban Ny Mheillea (ID: 17175347/0x01061333) looks at Bryher (ID: 17175349/0x01061335)
 11: 0x03F3 [0x4A] Abenzio (ID: 17175348/0x01061334) looks at Unnamed NPC (ID: 17175352/0x01061338)
 12: 0x03FC [0x4A] Bryher (ID: 17175349/0x01061335) looks at Unnamed NPC (ID: 17175352/0x01061338)
 13: 0x0405 [0x4A] Camlin (ID: 17175350/0x01061336) looks at Babban Ny Mheillea (ID: 17175347/0x01061333)
 14: 0x040E [0x4A] Darach (ID: 17175351/0x01061337) looks at Unnamed NPC (ID: 17175352/0x01061338)
 15: 0x0417 [0x6F] WAIT_FRAME_DELAY: Yield until WaitTime reaches zero
 16: 0x0418 [0x76] CHECK_ENTITY_RENDER_FLAGS: Wait until Babban Ny Mheillea (ID: 17175347/0x01061333) Render.Flags0 and Render.Flags3 conditions are met
 17: 0x041D [0x6F] WAIT_FRAME_DELAY: Yield until WaitTime reaches zero
 18: 0x041E [0x76] CHECK_ENTITY_RENDER_FLAGS: Wait until Abenzio (ID: 17175348/0x01061334) Render.Flags0 and Render.Flags3 conditions are met
 19: 0x0423 [0x6F] WAIT_FRAME_DELAY: Yield until WaitTime reaches zero
 20: 0x0424 [0x76] CHECK_ENTITY_RENDER_FLAGS: Wait until Bryher (ID: 17175349/0x01061335) Render.Flags0 and Render.Flags3 conditions are met
 21: 0x0429 [0x6F] WAIT_FRAME_DELAY: Yield until WaitTime reaches zero
 22: 0x042A [0x76] CHECK_ENTITY_RENDER_FLAGS: Wait until Camlin (ID: 17175350/0x01061336) Render.Flags0 and Render.Flags3 conditions are met
 23: 0x042F [0x6F] WAIT_FRAME_DELAY: Yield until WaitTime reaches zero
 24: 0x0430 [0x76] CHECK_ENTITY_RENDER_FLAGS: Wait until Darach (ID: 17175351/0x01061337) Render.Flags0 and Render.Flags3 conditions are met
 25: 0x0435 [0x00] END_REQSTACK()
```

### Event 65535.10

#### Metadata

| Field        | Value     |
|--------------|-----------|
| Entrypoint   | 0x0436    |
| Data Size    | 128 bytes |
| Instructions | 20        |

```
      00 01 02 03 04 05 06 07  08 09 0A 0B 0C 0D 0E 0F
      -- -- -- -- -- -- -- --  -- -- -- -- -- -- -- --
0430:                   BA 34  13 06 01 62 80 63 80 64        .4...b.c.d
0440: 80 65 80 BA 35 13 06 01  66 80 67 80 68 80 69 80  .e..5...f.g.h.i.
0450: BA 36 13 06 01 6A 80 6B  80 6C 80 6D 80 BA 37 13  .6...j.k.l.m..7.
0460: 06 01 6E 80 6F 80 70 80  34 80 4A 33 13 06 01 38  ..n.o.p.4.J3...8
0470: 13 06 01 4A 34 13 06 01  38 13 06 01 4A 35 13 06  ...J4...8...J5..
0480: 01 38 13 06 01 4A 36 13  06 01 38 13 06 01 4A 37  .8...J6...8...J7
0490: 13 06 01 38 13 06 01 6F  76 33 13 06 01 6F 76 34  ...8...ov3...ov4
04A0: 13 06 01 6F 76 35 13 06  01 6F 76 36 13 06 01 6F  ...ov5...ov6...o
04B0: 76 37 13 06 01 00                                 v7....          
```

#### Opcodes

```
  0: 0x0436 [0xBA] SET_ENTITY_POSITION(entity_id=Abenzio (ID: 17175348/0x01061334), pos_x=563.644*, pos_z=577.016*, pos_y=-31.149*, direction=104.8°*)
  1: 0x0443 [0xBA] SET_ENTITY_POSITION(entity_id=Bryher (ID: 17175349/0x01061335), pos_x=559.556*, pos_z=572.872*, pos_y=-31.517*, direction=109.4°*)
  2: 0x0450 [0xBA] SET_ENTITY_POSITION(entity_id=Camlin (ID: 17175350/0x01061336), pos_x=560.272*, pos_z=579.805*, pos_y=-31.010*, direction=283.9°*)
  3: 0x045D [0xBA] SET_ENTITY_POSITION(entity_id=Darach (ID: 17175351/0x01061337), pos_x=564.164*, pos_z=582.702*, pos_y=-31.186*, direction=87.9°*)
  4: 0x046A [0x4A] Babban Ny Mheillea (ID: 17175347/0x01061333) looks at Unnamed NPC (ID: 17175352/0x01061338)
  5: 0x0473 [0x4A] Abenzio (ID: 17175348/0x01061334) looks at Unnamed NPC (ID: 17175352/0x01061338)
  6: 0x047C [0x4A] Bryher (ID: 17175349/0x01061335) looks at Unnamed NPC (ID: 17175352/0x01061338)
  7: 0x0485 [0x4A] Camlin (ID: 17175350/0x01061336) looks at Unnamed NPC (ID: 17175352/0x01061338)
  8: 0x048E [0x4A] Darach (ID: 17175351/0x01061337) looks at Unnamed NPC (ID: 17175352/0x01061338)
  9: 0x0497 [0x6F] WAIT_FRAME_DELAY: Yield until WaitTime reaches zero
 10: 0x0498 [0x76] CHECK_ENTITY_RENDER_FLAGS: Wait until Babban Ny Mheillea (ID: 17175347/0x01061333) Render.Flags0 and Render.Flags3 conditions are met
 11: 0x049D [0x6F] WAIT_FRAME_DELAY: Yield until WaitTime reaches zero
 12: 0x049E [0x76] CHECK_ENTITY_RENDER_FLAGS: Wait until Abenzio (ID: 17175348/0x01061334) Render.Flags0 and Render.Flags3 conditions are met
 13: 0x04A3 [0x6F] WAIT_FRAME_DELAY: Yield until WaitTime reaches zero
 14: 0x04A4 [0x76] CHECK_ENTITY_RENDER_FLAGS: Wait until Bryher (ID: 17175349/0x01061335) Render.Flags0 and Render.Flags3 conditions are met
 15: 0x04A9 [0x6F] WAIT_FRAME_DELAY: Yield until WaitTime reaches zero
 16: 0x04AA [0x76] CHECK_ENTITY_RENDER_FLAGS: Wait until Camlin (ID: 17175350/0x01061336) Render.Flags0 and Render.Flags3 conditions are met
 17: 0x04AF [0x6F] WAIT_FRAME_DELAY: Yield until WaitTime reaches zero
 18: 0x04B0 [0x76] CHECK_ENTITY_RENDER_FLAGS: Wait until Darach (ID: 17175351/0x01061337) Render.Flags0 and Render.Flags3 conditions are met
 19: 0x04B5 [0x00] END_REQSTACK()
```

### Event 65535.11

#### Metadata

| Field        | Value     |
|--------------|-----------|
| Entrypoint   | 0x04B6    |
| Data Size    | 113 bytes |
| Instructions | 17        |

```
      00 01 02 03 04 05 06 07  08 09 0A 0B 0C 0D 0E 0F
      -- -- -- -- -- -- -- --  -- -- -- -- -- -- -- --
04B0:                   BA 34  13 06 01 71 80 72 80 73        .4...q.r.s
04C0: 80 74 80 BA 35 13 06 01  75 80 76 80 77 80 78 80  .t..5...u.v.w.x.
04D0: BA 36 13 06 01 79 80 7A  80 7B 80 7C 80 BA 38 13  .6...y.z.{.|..8.
04E0: 06 01 5D 80 5E 80 7D 80  7E 80 4A 34 13 06 01 37  ..].^.}.~.J4...7
04F0: 13 06 01 4A 35 13 06 01  37 13 06 01 4A 36 13 06  ...J5...7...J6..
0500: 01 37 13 06 01 4A 38 13  06 01 37 13 06 01 6F 76  .7...J8...7...ov
0510: 34 13 06 01 6F 76 35 13  06 01 6F 76 36 13 06 01  4...ov5...ov6...
0520: 6F 76 38 13 06 01 00                              ov8....         
```

#### Opcodes

```
  0: 0x04B6 [0xBA] SET_ENTITY_POSITION(entity_id=Abenzio (ID: 17175348/0x01061334), pos_x=563.556*, pos_z=576.779*, pos_y=-31.161*, direction=83.8°*)
  1: 0x04C3 [0xBA] SET_ENTITY_POSITION(entity_id=Bryher (ID: 17175349/0x01061335), pos_x=557.798*, pos_z=584.121*, pos_y=-31.215*, direction=90.3°*)
  2: 0x04D0 [0xBA] SET_ENTITY_POSITION(entity_id=Camlin (ID: 17175350/0x01061336), pos_x=560.354*, pos_z=578.928*, pos_y=-31.054*, direction=254.7°*)
  3: 0x04DD [0xBA] SET_ENTITY_POSITION(entity_id=Unnamed NPC (ID: 17175352/0x01061338), pos_x=559.581*, pos_z=579.558*, pos_y=-31.022*, direction=280.7°*)
  4: 0x04EA [0x4A] Abenzio (ID: 17175348/0x01061334) looks at Darach (ID: 17175351/0x01061337)
  5: 0x04F3 [0x4A] Bryher (ID: 17175349/0x01061335) looks at Darach (ID: 17175351/0x01061337)
  6: 0x04FC [0x4A] Camlin (ID: 17175350/0x01061336) looks at Darach (ID: 17175351/0x01061337)
  7: 0x0505 [0x4A] Unnamed NPC (ID: 17175352/0x01061338) looks at Darach (ID: 17175351/0x01061337)
  8: 0x050E [0x6F] WAIT_FRAME_DELAY: Yield until WaitTime reaches zero
  9: 0x050F [0x76] CHECK_ENTITY_RENDER_FLAGS: Wait until Abenzio (ID: 17175348/0x01061334) Render.Flags0 and Render.Flags3 conditions are met
 10: 0x0514 [0x6F] WAIT_FRAME_DELAY: Yield until WaitTime reaches zero
 11: 0x0515 [0x76] CHECK_ENTITY_RENDER_FLAGS: Wait until Bryher (ID: 17175349/0x01061335) Render.Flags0 and Render.Flags3 conditions are met
 12: 0x051A [0x6F] WAIT_FRAME_DELAY: Yield until WaitTime reaches zero
 13: 0x051B [0x76] CHECK_ENTITY_RENDER_FLAGS: Wait until Camlin (ID: 17175350/0x01061336) Render.Flags0 and Render.Flags3 conditions are met
 14: 0x0520 [0x6F] WAIT_FRAME_DELAY: Yield until WaitTime reaches zero
 15: 0x0521 [0x76] CHECK_ENTITY_RENDER_FLAGS: Wait until Unnamed NPC (ID: 17175352/0x01061338) Render.Flags0 and Render.Flags3 conditions are met
 16: 0x0526 [0x00] END_REQSTACK()
```

### Event 65535.12

#### Metadata

| Field        | Value    |
|--------------|----------|
| Entrypoint   | 0x0527   |
| Data Size    | 76 bytes |
| Instructions | 16       |

```
      00 01 02 03 04 05 06 07  08 09 0A 0B 0C 0D 0E 0F
      -- -- -- -- -- -- -- --  -- -- -- -- -- -- -- --
0520:                      4A  33 13 06 01 38 13 06 01         J3...8...
0530: 4A 34 13 06 01 38 13 06  01 4A 35 13 06 01 38 13  J4...8...J5...8.
0540: 06 01 4A 36 13 06 01 38  13 06 01 4A 37 13 06 01  ..J6...8...J7...
0550: 38 13 06 01 6F 76 33 13  06 01 6F 76 34 13 06 01  8...ov3...ov4...
0560: 6F 76 35 13 06 01 6F 76  36 13 06 01 6F 76 37 13  ov5...ov6...ov7.
0570: 06 01 00                                          ...             
```

#### Opcodes

```
  0: 0x0527 [0x4A] Babban Ny Mheillea (ID: 17175347/0x01061333) looks at Unnamed NPC (ID: 17175352/0x01061338)
  1: 0x0530 [0x4A] Abenzio (ID: 17175348/0x01061334) looks at Unnamed NPC (ID: 17175352/0x01061338)
  2: 0x0539 [0x4A] Bryher (ID: 17175349/0x01061335) looks at Unnamed NPC (ID: 17175352/0x01061338)
  3: 0x0542 [0x4A] Camlin (ID: 17175350/0x01061336) looks at Unnamed NPC (ID: 17175352/0x01061338)
  4: 0x054B [0x4A] Darach (ID: 17175351/0x01061337) looks at Unnamed NPC (ID: 17175352/0x01061338)
  5: 0x0554 [0x6F] WAIT_FRAME_DELAY: Yield until WaitTime reaches zero
  6: 0x0555 [0x76] CHECK_ENTITY_RENDER_FLAGS: Wait until Babban Ny Mheillea (ID: 17175347/0x01061333) Render.Flags0 and Render.Flags3 conditions are met
  7: 0x055A [0x6F] WAIT_FRAME_DELAY: Yield until WaitTime reaches zero
  8: 0x055B [0x76] CHECK_ENTITY_RENDER_FLAGS: Wait until Abenzio (ID: 17175348/0x01061334) Render.Flags0 and Render.Flags3 conditions are met
  9: 0x0560 [0x6F] WAIT_FRAME_DELAY: Yield until WaitTime reaches zero
 10: 0x0561 [0x76] CHECK_ENTITY_RENDER_FLAGS: Wait until Bryher (ID: 17175349/0x01061335) Render.Flags0 and Render.Flags3 conditions are met
 11: 0x0566 [0x6F] WAIT_FRAME_DELAY: Yield until WaitTime reaches zero
 12: 0x0567 [0x76] CHECK_ENTITY_RENDER_FLAGS: Wait until Camlin (ID: 17175350/0x01061336) Render.Flags0 and Render.Flags3 conditions are met
 13: 0x056C [0x6F] WAIT_FRAME_DELAY: Yield until WaitTime reaches zero
 14: 0x056D [0x76] CHECK_ENTITY_RENDER_FLAGS: Wait until Darach (ID: 17175351/0x01061337) Render.Flags0 and Render.Flags3 conditions are met
 15: 0x0572 [0x00] END_REQSTACK()
```

### Event 65535.13

#### Metadata

| Field        | Value    |
|--------------|----------|
| Entrypoint   | 0x0573   |
| Data Size    | 76 bytes |
| Instructions | 16       |

```
      00 01 02 03 04 05 06 07  08 09 0A 0B 0C 0D 0E 0F
      -- -- -- -- -- -- -- --  -- -- -- -- -- -- -- --
0570:          4A 33 13 06 01  38 13 06 01 4A 34 13 06     J3...8...J4..
0580: 01 37 13 06 01 4A 35 13  06 01 37 13 06 01 4A 36  .7...J5...7...J6
0590: 13 06 01 33 13 06 01 4A  37 13 06 01 33 13 06 01  ...3...J7...3...
05A0: 6F 76 33 13 06 01 6F 76  34 13 06 01 6F 76 35 13  ov3...ov4...ov5.
05B0: 06 01 6F 76 36 13 06 01  6F 76 37 13 06 01 00     ..ov6...ov7.... 
```

#### Opcodes

```
  0: 0x0573 [0x4A] Babban Ny Mheillea (ID: 17175347/0x01061333) looks at Unnamed NPC (ID: 17175352/0x01061338)
  1: 0x057C [0x4A] Abenzio (ID: 17175348/0x01061334) looks at Darach (ID: 17175351/0x01061337)
  2: 0x0585 [0x4A] Bryher (ID: 17175349/0x01061335) looks at Darach (ID: 17175351/0x01061337)
  3: 0x058E [0x4A] Camlin (ID: 17175350/0x01061336) looks at Babban Ny Mheillea (ID: 17175347/0x01061333)
  4: 0x0597 [0x4A] Darach (ID: 17175351/0x01061337) looks at Babban Ny Mheillea (ID: 17175347/0x01061333)
  5: 0x05A0 [0x6F] WAIT_FRAME_DELAY: Yield until WaitTime reaches zero
  6: 0x05A1 [0x76] CHECK_ENTITY_RENDER_FLAGS: Wait until Babban Ny Mheillea (ID: 17175347/0x01061333) Render.Flags0 and Render.Flags3 conditions are met
  7: 0x05A6 [0x6F] WAIT_FRAME_DELAY: Yield until WaitTime reaches zero
  8: 0x05A7 [0x76] CHECK_ENTITY_RENDER_FLAGS: Wait until Abenzio (ID: 17175348/0x01061334) Render.Flags0 and Render.Flags3 conditions are met
  9: 0x05AC [0x6F] WAIT_FRAME_DELAY: Yield until WaitTime reaches zero
 10: 0x05AD [0x76] CHECK_ENTITY_RENDER_FLAGS: Wait until Bryher (ID: 17175349/0x01061335) Render.Flags0 and Render.Flags3 conditions are met
 11: 0x05B2 [0x6F] WAIT_FRAME_DELAY: Yield until WaitTime reaches zero
 12: 0x05B3 [0x76] CHECK_ENTITY_RENDER_FLAGS: Wait until Camlin (ID: 17175350/0x01061336) Render.Flags0 and Render.Flags3 conditions are met
 13: 0x05B8 [0x6F] WAIT_FRAME_DELAY: Yield until WaitTime reaches zero
 14: 0x05B9 [0x76] CHECK_ENTITY_RENDER_FLAGS: Wait until Darach (ID: 17175351/0x01061337) Render.Flags0 and Render.Flags3 conditions are met
 15: 0x05BE [0x00] END_REQSTACK()
```

### Event 65535.14

#### Metadata

| Field        | Value    |
|--------------|----------|
| Entrypoint   | 0x05BF   |
| Data Size    | 76 bytes |
| Instructions | 16       |

```
      00 01 02 03 04 05 06 07  08 09 0A 0B 0C 0D 0E 0F
      -- -- -- -- -- -- -- --  -- -- -- -- -- -- -- --
05B0:                                               4A                 J
05C0: 33 13 06 01 37 13 06 01  4A 34 13 06 01 37 13 06  3...7...J4...7..
05D0: 01 4A 35 13 06 01 37 13  06 01 4A 36 13 06 01 37  .J5...7...J6...7
05E0: 13 06 01 4A 38 13 06 01  37 13 06 01 6F 76 33 13  ...J8...7...ov3.
05F0: 06 01 6F 76 34 13 06 01  6F 76 35 13 06 01 6F 76  ..ov4...ov5...ov
0600: 36 13 06 01 6F 76 38 13  06 01 00                 6...ov8....     
```

#### Opcodes

```
  0: 0x05BF [0x4A] Babban Ny Mheillea (ID: 17175347/0x01061333) looks at Darach (ID: 17175351/0x01061337)
  1: 0x05C8 [0x4A] Abenzio (ID: 17175348/0x01061334) looks at Darach (ID: 17175351/0x01061337)
  2: 0x05D1 [0x4A] Bryher (ID: 17175349/0x01061335) looks at Darach (ID: 17175351/0x01061337)
  3: 0x05DA [0x4A] Camlin (ID: 17175350/0x01061336) looks at Darach (ID: 17175351/0x01061337)
  4: 0x05E3 [0x4A] Unnamed NPC (ID: 17175352/0x01061338) looks at Darach (ID: 17175351/0x01061337)
  5: 0x05EC [0x6F] WAIT_FRAME_DELAY: Yield until WaitTime reaches zero
  6: 0x05ED [0x76] CHECK_ENTITY_RENDER_FLAGS: Wait until Babban Ny Mheillea (ID: 17175347/0x01061333) Render.Flags0 and Render.Flags3 conditions are met
  7: 0x05F2 [0x6F] WAIT_FRAME_DELAY: Yield until WaitTime reaches zero
  8: 0x05F3 [0x76] CHECK_ENTITY_RENDER_FLAGS: Wait until Abenzio (ID: 17175348/0x01061334) Render.Flags0 and Render.Flags3 conditions are met
  9: 0x05F8 [0x6F] WAIT_FRAME_DELAY: Yield until WaitTime reaches zero
 10: 0x05F9 [0x76] CHECK_ENTITY_RENDER_FLAGS: Wait until Bryher (ID: 17175349/0x01061335) Render.Flags0 and Render.Flags3 conditions are met
 11: 0x05FE [0x6F] WAIT_FRAME_DELAY: Yield until WaitTime reaches zero
 12: 0x05FF [0x76] CHECK_ENTITY_RENDER_FLAGS: Wait until Camlin (ID: 17175350/0x01061336) Render.Flags0 and Render.Flags3 conditions are met
 13: 0x0604 [0x6F] WAIT_FRAME_DELAY: Yield until WaitTime reaches zero
 14: 0x0605 [0x76] CHECK_ENTITY_RENDER_FLAGS: Wait until Unnamed NPC (ID: 17175352/0x01061338) Render.Flags0 and Render.Flags3 conditions are met
 15: 0x060A [0x00] END_REQSTACK()
```

### Event 65535.15

#### Metadata

| Field        | Value    |
|--------------|----------|
| Entrypoint   | 0x060B   |
| Data Size    | 61 bytes |
| Instructions | 13       |

```
      00 01 02 03 04 05 06 07  08 09 0A 0B 0C 0D 0E 0F
      -- -- -- -- -- -- -- --  -- -- -- -- -- -- -- --
0600:                                   4A 34 13 06 01             J4...
0610: 33 13 06 01 4A 35 13 06  01 33 13 06 01 4A 36 13  3...J5...3...J6.
0620: 06 01 33 13 06 01 4A 37  13 06 01 33 13 06 01 6F  ..3...J7...3...o
0630: 76 34 13 06 01 6F 76 35  13 06 01 6F 76 36 13 06  v4...ov5...ov6..
0640: 01 6F 76 37 13 06 01 00                           .ov7....        
```

#### Opcodes

```
  0: 0x060B [0x4A] Abenzio (ID: 17175348/0x01061334) looks at Babban Ny Mheillea (ID: 17175347/0x01061333)
  1: 0x0614 [0x4A] Bryher (ID: 17175349/0x01061335) looks at Babban Ny Mheillea (ID: 17175347/0x01061333)
  2: 0x061D [0x4A] Camlin (ID: 17175350/0x01061336) looks at Babban Ny Mheillea (ID: 17175347/0x01061333)
  3: 0x0626 [0x4A] Darach (ID: 17175351/0x01061337) looks at Babban Ny Mheillea (ID: 17175347/0x01061333)
  4: 0x062F [0x6F] WAIT_FRAME_DELAY: Yield until WaitTime reaches zero
  5: 0x0630 [0x76] CHECK_ENTITY_RENDER_FLAGS: Wait until Abenzio (ID: 17175348/0x01061334) Render.Flags0 and Render.Flags3 conditions are met
  6: 0x0635 [0x6F] WAIT_FRAME_DELAY: Yield until WaitTime reaches zero
  7: 0x0636 [0x76] CHECK_ENTITY_RENDER_FLAGS: Wait until Bryher (ID: 17175349/0x01061335) Render.Flags0 and Render.Flags3 conditions are met
  8: 0x063B [0x6F] WAIT_FRAME_DELAY: Yield until WaitTime reaches zero
  9: 0x063C [0x76] CHECK_ENTITY_RENDER_FLAGS: Wait until Camlin (ID: 17175350/0x01061336) Render.Flags0 and Render.Flags3 conditions are met
 10: 0x0641 [0x6F] WAIT_FRAME_DELAY: Yield until WaitTime reaches zero
 11: 0x0642 [0x76] CHECK_ENTITY_RENDER_FLAGS: Wait until Darach (ID: 17175351/0x01061337) Render.Flags0 and Render.Flags3 conditions are met
 12: 0x0647 [0x00] END_REQSTACK()
```

### Event 65535.16

#### Metadata

| Field        | Value     |
|--------------|-----------|
| Entrypoint   | 0x0648    |
| Data Size    | 153 bytes |
| Instructions | 17        |

```
      00 01 02 03 04 05 06 07  08 09 0A 0B 0C 0D 0E 0F
      -- -- -- -- -- -- -- --  -- -- -- -- -- -- -- --
0640:                          BA 33 13 06 01 7F 80 80          .3......
0650: 80 81 80 82 80 BA 34 13  06 01 7F 80 80 80 81 80  ......4.........
0660: 82 80 BA 35 13 06 01 83  80 84 80 85 80 82 80 BA  ...5............
0670: 36 13 06 01 86 80 87 80  88 80 82 80 BA 37 13 06  6............7..
0680: 01 89 80 8A 80 8B 80 82  80 80 33 13 06 01 80 34  ..........3....4
0690: 13 06 01 80 35 13 06 01  80 36 13 06 01 80 37 13  ....5....6....7.
06A0: 06 01 1C 8C 80 5B 15 80  33 13 06 01 33 13 06 01  .....[..3...3...
06B0: 73 61 69 30 53 33 13 06  01 33 13 06 01 73 61 69  sai0S3...3...sai
06C0: 30 5B 16 80 34 13 06 01  34 13 06 01 73 61 69 30  0[..4...4...sai0
06D0: 53 34 13 06 01 34 13 06  01 73 61 69 30 1C 8C 80  S4...4...sai0...
06E0: 00                                                .               
```

#### Opcodes

```
  0: 0x0648 [0xBA] SET_ENTITY_POSITION(entity_id=Babban Ny Mheillea (ID: 17175347/0x01061333), pos_x=354.758*, pos_z=207.695*, pos_y=4.090*, direction=9.2°*)
  1: 0x0655 [0xBA] SET_ENTITY_POSITION(entity_id=Abenzio (ID: 17175348/0x01061334), pos_x=354.758*, pos_z=207.695*, pos_y=4.090*, direction=9.2°*)
  2: 0x0662 [0xBA] SET_ENTITY_POSITION(entity_id=Bryher (ID: 17175349/0x01061335), pos_x=357.976*, pos_z=213.955*, pos_y=3.999*, direction=9.2°*)
  3: 0x066F [0xBA] SET_ENTITY_POSITION(entity_id=Camlin (ID: 17175350/0x01061336), pos_x=356.228*, pos_z=208.570*, pos_y=3.958*, direction=9.2°*)
  4: 0x067C [0xBA] SET_ENTITY_POSITION(entity_id=Darach (ID: 17175351/0x01061337), pos_x=356.007*, pos_z=200.929*, pos_y=3.997*, direction=9.2°*)
  5: 0x0689 [0x80] LOAD_WAIT(entity=Babban Ny Mheillea (ID: 17175347/0x01061333))
  6: 0x068E [0x80] LOAD_WAIT(entity=Abenzio (ID: 17175348/0x01061334))
  7: 0x0693 [0x80] LOAD_WAIT(entity=Bryher (ID: 17175349/0x01061335))
  8: 0x0698 [0x80] LOAD_WAIT(entity=Camlin (ID: 17175350/0x01061336))
  9: 0x069D [0x80] LOAD_WAIT(entity=Darach (ID: 17175351/0x01061337))
 10: 0x06A2 [0x1C] WAIT(90* ticks)
 11: 0x06A5 [0x5B] LOAD_EXT_SCHEDULER: Load scheduler "sai0" with entities [Babban Ny Mheillea (ID: 17175347/0x01061333), Babban Ny Mheillea (ID: 17175347/0x01061333)], work=2161*
 12: 0x06B4 [0x53] WAIT_SCHEDULER_TASK: Wait for scheduler "sai0" with entities [Babban Ny Mheillea (ID: 17175347/0x01061333), Babban Ny Mheillea (ID: 17175347/0x01061333)]
 13: 0x06C1 [0x5B] LOAD_EXT_SCHEDULER: Load scheduler "sai0" with entities [Abenzio (ID: 17175348/0x01061334), Abenzio (ID: 17175348/0x01061334)], work=2158*
 14: 0x06D0 [0x53] WAIT_SCHEDULER_TASK: Wait for scheduler "sai0" with entities [Abenzio (ID: 17175348/0x01061334), Abenzio (ID: 17175348/0x01061334)]
 15: 0x06DD [0x1C] WAIT(90* ticks)
 16: 0x06E0 [0x00] END_REQSTACK()
```

### Event 65535.17

#### Metadata

| Field        | Value     |
|--------------|-----------|
| Entrypoint   | 0x06E1    |
| Data Size    | 156 bytes |
| Instructions | 18        |

```
      00 01 02 03 04 05 06 07  08 09 0A 0B 0C 0D 0E 0F
      -- -- -- -- -- -- -- --  -- -- -- -- -- -- -- --
06E0:    BA 33 13 06 01 7F 80  80 80 81 80 82 80 BA 34   .3............4
06F0: 13 06 01 7F 80 80 80 81  80 82 80 BA 35 13 06 01  ............5...
0700: 83 80 84 80 85 80 82 80  BA 36 13 06 01 8D 80 8E  .........6......
0710: 80 85 80 82 80 BA 37 13  06 01 89 80 8A 80 8B 80  ......7.........
0720: 82 80 80 33 13 06 01 80  34 13 06 01 80 35 13 06  ...3....4....5..
0730: 01 80 36 13 06 01 80 37  13 06 01 1C 8C 80 5B 15  ..6....7......[.
0740: 80 33 13 06 01 33 13 06  01 73 61 69 30 53 33 13  .3...3...sai0S3.
0750: 06 01 33 13 06 01 73 61  69 30 1C 8F 80 5B 16 80  ..3...sai0...[..
0760: 34 13 06 01 34 13 06 01  73 61 69 30 53 34 13 06  4...4...sai0S4..
0770: 01 34 13 06 01 73 61 69  30 1C 8C 80 00           .4...sai0....   
```

#### Opcodes

```
  0: 0x06E1 [0xBA] SET_ENTITY_POSITION(entity_id=Babban Ny Mheillea (ID: 17175347/0x01061333), pos_x=354.758*, pos_z=207.695*, pos_y=4.090*, direction=9.2°*)
  1: 0x06EE [0xBA] SET_ENTITY_POSITION(entity_id=Abenzio (ID: 17175348/0x01061334), pos_x=354.758*, pos_z=207.695*, pos_y=4.090*, direction=9.2°*)
  2: 0x06FB [0xBA] SET_ENTITY_POSITION(entity_id=Bryher (ID: 17175349/0x01061335), pos_x=357.976*, pos_z=213.955*, pos_y=3.999*, direction=9.2°*)
  3: 0x0708 [0xBA] SET_ENTITY_POSITION(entity_id=Camlin (ID: 17175350/0x01061336), pos_x=360.213*, pos_z=205.932*, pos_y=3.999*, direction=9.2°*)
  4: 0x0715 [0xBA] SET_ENTITY_POSITION(entity_id=Darach (ID: 17175351/0x01061337), pos_x=356.007*, pos_z=200.929*, pos_y=3.997*, direction=9.2°*)
  5: 0x0722 [0x80] LOAD_WAIT(entity=Babban Ny Mheillea (ID: 17175347/0x01061333))
  6: 0x0727 [0x80] LOAD_WAIT(entity=Abenzio (ID: 17175348/0x01061334))
  7: 0x072C [0x80] LOAD_WAIT(entity=Bryher (ID: 17175349/0x01061335))
  8: 0x0731 [0x80] LOAD_WAIT(entity=Camlin (ID: 17175350/0x01061336))
  9: 0x0736 [0x80] LOAD_WAIT(entity=Darach (ID: 17175351/0x01061337))
 10: 0x073B [0x1C] WAIT(90* ticks)
 11: 0x073E [0x5B] LOAD_EXT_SCHEDULER: Load scheduler "sai0" with entities [Babban Ny Mheillea (ID: 17175347/0x01061333), Babban Ny Mheillea (ID: 17175347/0x01061333)], work=2161*
 12: 0x074D [0x53] WAIT_SCHEDULER_TASK: Wait for scheduler "sai0" with entities [Babban Ny Mheillea (ID: 17175347/0x01061333), Babban Ny Mheillea (ID: 17175347/0x01061333)]
 13: 0x075A [0x1C] WAIT(1* ticks)
 14: 0x075D [0x5B] LOAD_EXT_SCHEDULER: Load scheduler "sai0" with entities [Abenzio (ID: 17175348/0x01061334), Abenzio (ID: 17175348/0x01061334)], work=2158*
 15: 0x076C [0x53] WAIT_SCHEDULER_TASK: Wait for scheduler "sai0" with entities [Abenzio (ID: 17175348/0x01061334), Abenzio (ID: 17175348/0x01061334)]
 16: 0x0779 [0x1C] WAIT(90* ticks)
 17: 0x077C [0x00] END_REQSTACK()
```
