# 17175407

## Common Data

| Field            | Value                              |
|------------------|------------------------------------|
| Zone             | Meriphataud Mountains [S] (ID: 97) |
| Block Size       | 512 bytes                          |
| Total Events     | 24                                 |
| References Count | 11                                 |

## List of Events

| Event ID                   | Entrypoint   |   Size |   Instructions |
|----------------------------|--------------|--------|----------------|
| [65535](#event-65535)      | 0x0000       |      1 |              1 |
| [3](#event-3)              | 0x0001       |      1 |              1 |
| [4](#event-4)              | 0x0002       |      1 |              1 |
| [5](#event-5)              | 0x0003       |      1 |              1 |
| [6](#event-6)              | 0x0004       |      1 |              1 |
| [8](#event-8)              | 0x0005       |      1 |              1 |
| [7](#event-7)              | 0x0006       |      1 |              1 |
| [9](#event-9)              | 0x0007       |      1 |              1 |
| [11](#event-11)            | 0x0008       |      1 |              1 |
| [65535.1](#event-655351)   | 0x0009       |    112 |             18 |
| [65535.2](#event-655352)   | 0x0079       |     10 |              2 |
| [65535.3](#event-655353)   | 0x0083       |     10 |              2 |
| [65535.4](#event-655354)   | 0x008D       |      9 |              3 |
| [65535.5](#event-655355)   | 0x0096       |     41 |              5 |
| [65535.6](#event-655356)   | 0x00BF       |     41 |              5 |
| [65535.7](#event-655357)   | 0x00E8       |     24 |              4 |
| [65535.8](#event-655358)   | 0x0100       |     31 |              7 |
| [65535.9](#event-655359)   | 0x011F       |      1 |              1 |
| [65535.10](#event-6553510) | 0x0120       |     18 |              4 |
| [65535.11](#event-6553511) | 0x0132       |     10 |              2 |
| [65535.12](#event-6553512) | 0x013C       |      9 |              3 |
| [65535.13](#event-6553513) | 0x0145       |      9 |              3 |
| [65535.14](#event-6553514) | 0x014E       |     10 |              2 |
| [65535.15](#event-6553515) | 0x0158       |     10 |              2 |

## DAT References (imed_data)

|   Index | Hex Value   |   Dec Value |
|---------|-------------|-------------|
|       0 | 0x0005      |           5 |
|       1 | 0x0008      |           8 |
|       2 | 0x000A      |          10 |
|       3 | 0x0007      |           7 |
|       4 | 0x0009      |           9 |
|       5 | 0x0000      |           0 |
|       6 | 0x0080      |         128 |
|       7 | 0x0048      |          72 |
|       8 | 0x00FA      |         250 |
|       9 | 0x00D2      |         210 |
|      10 | 0x0001      |           1 |

## Events

### Event 65535

#### Metadata

| Field        | Value   |
|--------------|---------|
| Entrypoint   | 0x0000  |
| Data Size    | 1 bytes |
| Instructions | 1       |

```
      00 01 02 03 04 05 06 07  08 09 0A 0B 0C 0D 0E 0F
      -- -- -- -- -- -- -- --  -- -- -- -- -- -- -- --
0000: 00                                                .               
```

#### Opcodes

```
  0: 0x0000 [0x00] END_REQSTACK()
```

### Event 3

#### Metadata

| Field        | Value   |
|--------------|---------|
| Entrypoint   | 0x0001  |
| Data Size    | 1 bytes |
| Instructions | 1       |

```
      00 01 02 03 04 05 06 07  08 09 0A 0B 0C 0D 0E 0F
      -- -- -- -- -- -- -- --  -- -- -- -- -- -- -- --
0000:    00                                              .              
```

#### Opcodes

```
  0: 0x0001 [0x00] END_REQSTACK()
```

### Event 4

#### Metadata

| Field        | Value   |
|--------------|---------|
| Entrypoint   | 0x0002  |
| Data Size    | 1 bytes |
| Instructions | 1       |

```
      00 01 02 03 04 05 06 07  08 09 0A 0B 0C 0D 0E 0F
      -- -- -- -- -- -- -- --  -- -- -- -- -- -- -- --
0000:       00                                            .             
```

#### Opcodes

```
  0: 0x0002 [0x00] END_REQSTACK()
```

### Event 5

#### Metadata

| Field        | Value   |
|--------------|---------|
| Entrypoint   | 0x0003  |
| Data Size    | 1 bytes |
| Instructions | 1       |

```
      00 01 02 03 04 05 06 07  08 09 0A 0B 0C 0D 0E 0F
      -- -- -- -- -- -- -- --  -- -- -- -- -- -- -- --
0000:          00                                          .            
```

#### Opcodes

```
  0: 0x0003 [0x00] END_REQSTACK()
```

### Event 6

#### Metadata

| Field        | Value   |
|--------------|---------|
| Entrypoint   | 0x0004  |
| Data Size    | 1 bytes |
| Instructions | 1       |

```
      00 01 02 03 04 05 06 07  08 09 0A 0B 0C 0D 0E 0F
      -- -- -- -- -- -- -- --  -- -- -- -- -- -- -- --
0000:             00                                        .           
```

#### Opcodes

```
  0: 0x0004 [0x00] END_REQSTACK()
```

### Event 8

#### Metadata

| Field        | Value   |
|--------------|---------|
| Entrypoint   | 0x0005  |
| Data Size    | 1 bytes |
| Instructions | 1       |

```
      00 01 02 03 04 05 06 07  08 09 0A 0B 0C 0D 0E 0F
      -- -- -- -- -- -- -- --  -- -- -- -- -- -- -- --
0000:                00                                      .          
```

#### Opcodes

```
  0: 0x0005 [0x00] END_REQSTACK()
```

### Event 7

#### Metadata

| Field        | Value   |
|--------------|---------|
| Entrypoint   | 0x0006  |
| Data Size    | 1 bytes |
| Instructions | 1       |

```
      00 01 02 03 04 05 06 07  08 09 0A 0B 0C 0D 0E 0F
      -- -- -- -- -- -- -- --  -- -- -- -- -- -- -- --
0000:                   00                                    .         
```

#### Opcodes

```
  0: 0x0006 [0x00] END_REQSTACK()
```

### Event 9

#### Metadata

| Field        | Value   |
|--------------|---------|
| Entrypoint   | 0x0007  |
| Data Size    | 1 bytes |
| Instructions | 1       |

```
      00 01 02 03 04 05 06 07  08 09 0A 0B 0C 0D 0E 0F
      -- -- -- -- -- -- -- --  -- -- -- -- -- -- -- --
0000:                      00                                  .        
```

#### Opcodes

```
  0: 0x0007 [0x00] END_REQSTACK()
```

### Event 11

#### Metadata

| Field        | Value   |
|--------------|---------|
| Entrypoint   | 0x0008  |
| Data Size    | 1 bytes |
| Instructions | 1       |

```
      00 01 02 03 04 05 06 07  08 09 0A 0B 0C 0D 0E 0F
      -- -- -- -- -- -- -- --  -- -- -- -- -- -- -- --
0000:                          00                               .       
```

#### Opcodes

```
  0: 0x0008 [0x00] END_REQSTACK()
```

### Event 65535.1

#### Metadata

| Field        | Value     |
|--------------|-----------|
| Entrypoint   | 0x0009    |
| Data Size    | 112 bytes |
| Instructions | 18        |

```
      00 01 02 03 04 05 06 07  08 09 0A 0B 0C 0D 0E 0F
      -- -- -- -- -- -- -- --  -- -- -- -- -- -- -- --
0000:                             4A 54 13 06 01 42 13           JT...B.
0010: 06 01 1C 00 80 4A 55 13  06 01 42 13 06 01 1C 01  .....JU...B.....
0020: 80 4A 4E 13 06 01 42 13  06 01 4A 56 13 06 01 42  .JN...B...JV...B
0030: 13 06 01 1C 02 80 4A 57  13 06 01 42 13 06 01 1C  ......JW...B....
0040: 00 80 4A 58 13 06 01 42  13 06 01 1C 03 80 4A 4D  ..JX...B......JM
0050: 13 06 01 42 13 06 01 4A  5B 13 06 01 42 13 06 01  ...B...J[...B...
0060: 1C 00 80 4A 51 13 06 01  42 13 06 01 1C 04 80 4A  ...JQ...B......J
0070: 52 13 06 01 42 13 06 01  00                       R...B....       
```

#### Opcodes

```
  0: 0x0009 [0x4A] Etoh Tanghari (ID: 17175380/0x01061354) looks at Lehko Habhoka (ID: 17175362/0x01061342)
  1: 0x0012 [0x1C] WAIT(5* ticks)
  2: 0x0015 [0x4A] 02 (ID: 17175381/0x01061355) looks at Lehko Habhoka (ID: 17175362/0x01061342)
  3: 0x001E [0x1C] WAIT(8* ticks)
  4: 0x0021 [0x4A] Nzha Abaleenah (ID: 17175374/0x0106134E) looks at Lehko Habhoka (ID: 17175362/0x01061342)
  5: 0x002A [0x4A] 03 (ID: 17175382/0x01061356) looks at Lehko Habhoka (ID: 17175362/0x01061342)
  6: 0x0033 [0x1C] WAIT(10* ticks)
  7: 0x0036 [0x4A] Nri Sarabah (ID: 17175383/0x01061357) looks at Lehko Habhoka (ID: 17175362/0x01061342)
  8: 0x003F [0x1C] WAIT(5* ticks)
  9: 0x0042 [0x4A] 05 (ID: 17175384/0x01061358) looks at Lehko Habhoka (ID: 17175362/0x01061342)
 10: 0x004B [0x1C] WAIT(7* ticks)
 11: 0x004E [0x4A] Naho Gwanboh (ID: 17175373/0x0106134D) looks at Lehko Habhoka (ID: 17175362/0x01061342)
 12: 0x0057 [0x4A] 08 (ID: 17175387/0x0106135B) looks at Lehko Habhoka (ID: 17175362/0x01061342)
 13: 0x0060 [0x1C] WAIT(5* ticks)
 14: 0x0063 [0x4A] Unnamed NPC (ID: 17175377/0x01061351) looks at Lehko Habhoka (ID: 17175362/0x01061342)
 15: 0x006C [0x1C] WAIT(9* ticks)
 16: 0x006F [0x4A] Unnamed NPC (ID: 17175378/0x01061352) looks at Lehko Habhoka (ID: 17175362/0x01061342)
 17: 0x0078 [0x00] END_REQSTACK()
```

### Event 65535.2

#### Metadata

| Field        | Value    |
|--------------|----------|
| Entrypoint   | 0x0079   |
| Data Size    | 10 bytes |
| Instructions | 2        |

```
      00 01 02 03 04 05 06 07  08 09 0A 0B 0C 0D 0E 0F
      -- -- -- -- -- -- -- --  -- -- -- -- -- -- -- --
0070:                             6C 6D 13 06 01 05 80           lm.....
0080: 02 10 00                                          ...             
```

#### Opcodes

```
  0: 0x0079 [0x6C] FADE_ENTITY_COLOR(entity_id=Fenrir (ID: 17175405/0x0106136D), end_alpha=0*, fade_time=Work_Zone[2])
  1: 0x0082 [0x00] END_REQSTACK()
```

### Event 65535.3

#### Metadata

| Field        | Value    |
|--------------|----------|
| Entrypoint   | 0x0083   |
| Data Size    | 10 bytes |
| Instructions | 2        |

```
      00 01 02 03 04 05 06 07  08 09 0A 0B 0C 0D 0E 0F
      -- -- -- -- -- -- -- --  -- -- -- -- -- -- -- --
0080:          6C 6D 13 06 01  06 80 02 10 00              lm........   
```

#### Opcodes

```
  0: 0x0083 [0x6C] FADE_ENTITY_COLOR(entity_id=Fenrir (ID: 17175405/0x0106136D), end_alpha=128*, fade_time=Work_Zone[2])
  1: 0x008C [0x00] END_REQSTACK()
```

### Event 65535.4

#### Metadata

| Field        | Value   |
|--------------|---------|
| Entrypoint   | 0x008D  |
| Data Size    | 9 bytes |
| Instructions | 3       |

```
      00 01 02 03 04 05 06 07  08 09 0A 0B 0C 0D 0E 0F
      -- -- -- -- -- -- -- --  -- -- -- -- -- -- -- --
0080:                                         5D 05 80               ]..
0090: 04 10 1C 04 10 00                                 ......          
```

#### Opcodes

```
  0: 0x008D [0x5D] SET_MUSIC_VOLUME(volume=0*, fade_time=Work_Zone[4])
  1: 0x0092 [0x1C] WAIT(Work_Zone[4] ticks)
  2: 0x0095 [0x00] END_REQSTACK()
```

### Event 65535.5

#### Metadata

| Field        | Value    |
|--------------|----------|
| Entrypoint   | 0x0096   |
| Data Size    | 41 bytes |
| Instructions | 4        |

```
      00 01 02 03 04 05 06 07  08 09 0A 0B 0C 0D 0E 0F
      -- -- -- -- -- -- -- --  -- -- -- -- -- -- -- --
0090:                   CD 07  80 70 13 06 01 70 13 06        ...p...p..
00A0: 01 73 30 30 32 05 80 CD  07 80 70 13 06 01 70 13  .s002.....p...p.
00B0: 06 01 73 65 30 32 05 80  1C 08 80 01 96 00 00     ..se02......... 
```

#### Opcodes

```
  0: 0x0096 [0xCD] LOAD_SCHEDULED_TASK_ALT4: Load scheduler "s002" with entities [Unnamed NPC (ID: 17175408/0x01061370), Unnamed NPC (ID: 17175408/0x01061370)], work=[72*, 0*]
  1: 0x00A7 [0xCD] LOAD_SCHEDULED_TASK_ALT4: Load scheduler "se02" with entities [Unnamed NPC (ID: 17175408/0x01061370), Unnamed NPC (ID: 17175408/0x01061370)], work=[72*, 0*]
  2: 0x00B8 [0x1C] WAIT(250* ticks)
  3: 0x00BB [0x01] GOTO 0x0096
```

#### Data or dead code:

```
# Dead code (unreachable instructions):
     0x00BE [0x00] END_REQSTACK()
```

### Event 65535.6

#### Metadata

| Field        | Value    |
|--------------|----------|
| Entrypoint   | 0x00BF   |
| Data Size    | 41 bytes |
| Instructions | 4        |

```
      00 01 02 03 04 05 06 07  08 09 0A 0B 0C 0D 0E 0F
      -- -- -- -- -- -- -- --  -- -- -- -- -- -- -- --
00B0:                                               CD                 .
00C0: 07 80 49 13 06 01 49 13  06 01 73 30 30 32 05 80  ..I...I...s002..
00D0: CD 07 80 49 13 06 01 49  13 06 01 73 65 30 32 05  ...I...I...se02.
00E0: 80 1C 08 80 01 BF 00 00                           ........        
```

#### Opcodes

```
  0: 0x00BF [0xCD] LOAD_SCHEDULED_TASK_ALT4: Load scheduler "s002" with entities [Romaa Mihgo (ID: 17175369/0x01061349), Romaa Mihgo (ID: 17175369/0x01061349)], work=[72*, 0*]
  1: 0x00D0 [0xCD] LOAD_SCHEDULED_TASK_ALT4: Load scheduler "se02" with entities [Romaa Mihgo (ID: 17175369/0x01061349), Romaa Mihgo (ID: 17175369/0x01061349)], work=[72*, 0*]
  2: 0x00E1 [0x1C] WAIT(250* ticks)
  3: 0x00E4 [0x01] GOTO 0x00BF
```

#### Data or dead code:

```
# Dead code (unreachable instructions):
     0x00E7 [0x00] END_REQSTACK()
```

### Event 65535.7

#### Metadata

| Field        | Value    |
|--------------|----------|
| Entrypoint   | 0x00E8   |
| Data Size    | 24 bytes |
| Instructions | 3        |

```
      00 01 02 03 04 05 06 07  08 09 0A 0B 0C 0D 0E 0F
      -- -- -- -- -- -- -- --  -- -- -- -- -- -- -- --
00E0:                          CD 07 80 60 13 06 01 60          ...`...`
00F0: 13 06 01 73 30 30 31 05  80 1C 09 80 01 E8 00 00  ...s001.........
```

#### Opcodes

```
  0: 0x00E8 [0xCD] LOAD_SCHEDULED_TASK_ALT4: Load scheduler "s001" with entities [Y01 (ID: 17175392/0x01061360), Y01 (ID: 17175392/0x01061360)], work=[72*, 0*]
  1: 0x00F9 [0x1C] WAIT(210* ticks)
  2: 0x00FC [0x01] GOTO 0x00E8
```

#### Data or dead code:

```
# Dead code (unreachable instructions):
     0x00FF [0x00] END_REQSTACK()
```

### Event 65535.8

#### Metadata

| Field        | Value    |
|--------------|----------|
| Entrypoint   | 0x0100   |
| Data Size    | 31 bytes |
| Instructions | 7        |

```
      00 01 02 03 04 05 06 07  08 09 0A 0B 0C 0D 0E 0F
      -- -- -- -- -- -- -- --  -- -- -- -- -- -- -- --
0100: 29 10 42 13 06 01 0B 1C  0A 80 80 42 13 06 01 29  ).B........B...)
0110: 10 42 13 06 01 0C 1C 0A  80 80 42 13 06 01 00     .B........B.... 
```

#### Opcodes

```
  0: 0x0100 [0x29] REQ_SET_WAIT(priority=0x10, entity_id=Lehko Habhoka (ID: 17175362/0x01061342), tag_num=0x0B)
  1: 0x0107 [0x1C] WAIT(1* ticks)
  2: 0x010A [0x80] LOAD_WAIT(entity=Lehko Habhoka (ID: 17175362/0x01061342))
  3: 0x010F [0x29] REQ_SET_WAIT(priority=0x10, entity_id=Lehko Habhoka (ID: 17175362/0x01061342), tag_num=0x0C)
  4: 0x0116 [0x1C] WAIT(1* ticks)
  5: 0x0119 [0x80] LOAD_WAIT(entity=Lehko Habhoka (ID: 17175362/0x01061342))
  6: 0x011E [0x00] END_REQSTACK()
```

### Event 65535.9

#### Metadata

| Field        | Value   |
|--------------|---------|
| Entrypoint   | 0x011F  |
| Data Size    | 1 bytes |
| Instructions | 1       |

```
      00 01 02 03 04 05 06 07  08 09 0A 0B 0C 0D 0E 0F
      -- -- -- -- -- -- -- --  -- -- -- -- -- -- -- --
0110:                                               00                 .
```

#### Opcodes

```
  0: 0x011F [0x00] END_REQSTACK()
```

### Event 65535.10

#### Metadata

| Field        | Value    |
|--------------|----------|
| Entrypoint   | 0x0120   |
| Data Size    | 18 bytes |
| Instructions | 4        |

```
      00 01 02 03 04 05 06 07  08 09 0A 0B 0C 0D 0E 0F
      -- -- -- -- -- -- -- --  -- -- -- -- -- -- -- --
0120: 22 00 2F 00 F8 FF FF 7F  6C F8 FF FF 7F 05 80 0A  "./.....l.......
0130: 80 00                                             ..              
```

#### Opcodes

```
  0: 0x0120 [0x22] ENTITY_HIDE_FLAG(enabled=0x00)
  1: 0x0122 [0x2F] EventEntity->Render.Flags0 &= ~0x80000 // Bit 19
  2: 0x0128 [0x6C] FADE_ENTITY_COLOR(entity_id=EventEntity, end_alpha=0*, fade_time=1*)
  3: 0x0131 [0x00] END_REQSTACK()
```

### Event 65535.11

#### Metadata

| Field        | Value    |
|--------------|----------|
| Entrypoint   | 0x0132   |
| Data Size    | 10 bytes |
| Instructions | 2        |

```
      00 01 02 03 04 05 06 07  08 09 0A 0B 0C 0D 0E 0F
      -- -- -- -- -- -- -- --  -- -- -- -- -- -- -- --
0130:       6C F8 FF FF 7F 06  80 0A 80 00                l.........    
```

#### Opcodes

```
  0: 0x0132 [0x6C] FADE_ENTITY_COLOR(entity_id=EventEntity, end_alpha=128*, fade_time=1*)
  1: 0x013B [0x00] END_REQSTACK()
```

### Event 65535.12

#### Metadata

| Field        | Value   |
|--------------|---------|
| Entrypoint   | 0x013C  |
| Data Size    | 9 bytes |
| Instructions | 3       |

```
      00 01 02 03 04 05 06 07  08 09 0A 0B 0C 0D 0E 0F
      -- -- -- -- -- -- -- --  -- -- -- -- -- -- -- --
0130:                                      22 00 2F 00              "./.
0140: F8 FF FF 7F 00                                    .....           
```

#### Opcodes

```
  0: 0x013C [0x22] ENTITY_HIDE_FLAG(enabled=0x00)
  1: 0x013E [0x2F] EventEntity->Render.Flags0 &= ~0x80000 // Bit 19
  2: 0x0144 [0x00] END_REQSTACK()
```

### Event 65535.13

#### Metadata

| Field        | Value   |
|--------------|---------|
| Entrypoint   | 0x0145  |
| Data Size    | 9 bytes |
| Instructions | 3       |

```
      00 01 02 03 04 05 06 07  08 09 0A 0B 0C 0D 0E 0F
      -- -- -- -- -- -- -- --  -- -- -- -- -- -- -- --
0140:                22 01 2F  01 F8 FF FF 7F 00             "./......  
```

#### Opcodes

```
  0: 0x0145 [0x22] ENTITY_HIDE_FLAG(enabled=0x01)
  1: 0x0147 [0x2F] EventEntity->Render.Flags0 |= 0x80000 // Bit 19
  2: 0x014D [0x00] END_REQSTACK()
```

### Event 65535.14

#### Metadata

| Field        | Value    |
|--------------|----------|
| Entrypoint   | 0x014E   |
| Data Size    | 10 bytes |
| Instructions | 2        |

```
      00 01 02 03 04 05 06 07  08 09 0A 0B 0C 0D 0E 0F
      -- -- -- -- -- -- -- --  -- -- -- -- -- -- -- --
0140:                                            6C F8                l.
0150: FF FF 7F 05 80 0A 80 00                           ........        
```

#### Opcodes

```
  0: 0x014E [0x6C] FADE_ENTITY_COLOR(entity_id=EventEntity, end_alpha=0*, fade_time=1*)
  1: 0x0157 [0x00] END_REQSTACK()
```

### Event 65535.15

#### Metadata

| Field        | Value    |
|--------------|----------|
| Entrypoint   | 0x0158   |
| Data Size    | 10 bytes |
| Instructions | 2        |

```
      00 01 02 03 04 05 06 07  08 09 0A 0B 0C 0D 0E 0F
      -- -- -- -- -- -- -- --  -- -- -- -- -- -- -- --
0150:                          6C F8 FF FF 7F 06 80 0A          l.......
0160: 80 00                                             ..              
```

#### Opcodes

```
  0: 0x0158 [0x6C] FADE_ENTITY_COLOR(entity_id=EventEntity, end_alpha=128*, fade_time=1*)
  1: 0x0161 [0x00] END_REQSTACK()
```
