# 0x7FFFFFF0 - Zone Events

## Common Data

| Field            | Value                              |
|------------------|------------------------------------|
| Zone             | Meriphataud Mountains [S] (ID: 97) |
| Block Size       | 3016 bytes                         |
| Total Events     | 48                                 |
| References Count | 115                                |

## List of Events

| Event ID                   | Entrypoint   |   Size |   Instructions |
|----------------------------|--------------|--------|----------------|
| [65535](#event-65535)      | 0x0000       |      1 |              1 |
| [65534](#event-65534)      | 0x0001       |      1 |              1 |
| [264](#event-264)          | 0x0002       |     29 |              7 |
| [65535.1](#event-655351)   | 0x001F       |     16 |              3 |
| [65535.2](#event-655352)   | 0x002F       |     41 |              5 |
| [65535.3](#event-655353)   | 0x0058       |     13 |              3 |
| [65535.4](#event-655354)   | 0x0065       |     14 |              4 |
| [65535.5](#event-655355)   | 0x0073       |      3 |              2 |
| [65535.6](#event-655356)   | 0x0076       |      3 |              2 |
| [265](#event-265)          | 0x0079       |   1061 |            204 |
| [65535.7](#event-655357)   | 0x049E       |      6 |              2 |
| [65535.8](#event-655358)   | 0x04A4       |      6 |              2 |
| [65535.9](#event-655359)   | 0x04AA       |      7 |              3 |
| [65535.10](#event-6553510) | 0x04B1       |      7 |              3 |
| [65535.11](#event-6553511) | 0x04B8       |     37 |              5 |
| [65535.12](#event-6553512) | 0x04DD       |    185 |             37 |
| [65535.13](#event-6553513) | 0x0596       |     24 |              4 |
| [65535.14](#event-6553514) | 0x05AE       |     24 |              4 |
| [65535.15](#event-6553515) | 0x05C6       |     38 |              5 |
| [65535.16](#event-6553516) | 0x05EC       |     38 |              5 |
| [65535.17](#event-6553517) | 0x0612       |     38 |              5 |
| [65535.18](#event-6553518) | 0x0638       |     37 |              5 |
| [65535.19](#event-6553519) | 0x065D       |     37 |              5 |
| [65535.20](#event-6553520) | 0x0682       |     42 |              6 |
| [65535.21](#event-6553521) | 0x06AC       |     15 |              5 |
| [65535.22](#event-6553522) | 0x06BB       |     42 |              6 |
| [65535.23](#event-6553523) | 0x06E5       |     29 |              5 |
| [65535.24](#event-6553524) | 0x0702       |     38 |              5 |
| [65535.25](#event-6553525) | 0x0728       |     38 |              5 |
| [65535.26](#event-6553526) | 0x074E       |     38 |              5 |
| [65535.27](#event-6553527) | 0x0774       |     10 |              2 |
| [65535.28](#event-6553528) | 0x077E       |     10 |              2 |
| [65535.29](#event-6553529) | 0x0788       |    103 |             17 |
| [65535.30](#event-6553530) | 0x07EF       |     15 |              5 |
| [65535.31](#event-6553531) | 0x07FE       |     24 |              6 |
| [65535.32](#event-6553532) | 0x0816       |     26 |              8 |
| [65535.33](#event-6553533) | 0x0830       |     16 |              4 |
| [65535.34](#event-6553534) | 0x0840       |     13 |              3 |
| [65535.35](#event-6553535) | 0x084D       |     20 |              6 |
| [65535.36](#event-6553536) | 0x0861       |     13 |              3 |
| [65535.37](#event-6553537) | 0x086E       |     15 |              5 |
| [65535.38](#event-6553538) | 0x087D       |     20 |              6 |
| [65535.39](#event-6553539) | 0x0891       |     53 |             13 |
| [65535.40](#event-6553540) | 0x08C6       |     20 |              6 |
| [65535.41](#event-6553541) | 0x08DA       |     24 |              6 |
| [65535.42](#event-6553542) | 0x08F2       |     27 |              7 |
| [65535.43](#event-6553543) | 0x090D       |     15 |              5 |
| [65535.44](#event-6553544) | 0x091C       |     15 |              5 |

## DAT References (imed_data)

|   Index | Hex Value   |   Dec Value |
|---------|-------------|-------------|
|       0 | 0x1EAE      |        7854 |
|       1 | 0x00EA      |         234 |
|       2 | 0x0000      |           0 |
|       3 | 0x003C      |          60 |
|       4 | 0x91F3D     |      597821 |
|       5 | 0x443EC     |      279532 |
|       6 | 0xFFFF8300  |  4294935296 |
|       7 | 0x0DE8      |        3560 |
|       8 | 0x0094      |         148 |
|       9 | 0x00F0      |         240 |
|      10 | 0x00C8      |         200 |
|      11 | 0xB356C     |      734572 |
|      12 | 0xFFFF639E  |  4294927262 |
|      13 | 0xFFFF82DC  |  4294935260 |
|      14 | 0x1000      |        4096 |
|      15 | 0x000D      |          13 |
|      16 | 0xB46FF     |      739071 |
|      17 | 0xFFFF6400  |  4294927360 |
|      18 | 0xFFFF834E  |  4294935374 |
|      19 | 0x0001      |           1 |
|      20 | 0x0002      |           2 |
|      21 | 0x0003      |           3 |
|      22 | 0x0013      |          19 |
|      23 | 0x0090      |         144 |
|      24 | 0x00B4      |         180 |
|      25 | 0x0004      |           4 |
|      26 | 0x1CB5      |        7349 |
|      27 | 0x1CB6      |        7350 |
|      28 | 0x1CB8      |        7352 |
|      29 | 0x1CB9      |        7353 |
|      30 | 0x1CBA      |        7354 |
|      31 | 0x1CBB      |        7355 |
|      32 | 0x0102      |         258 |
|      33 | 0x0202      |         514 |
|      34 | 0x0156      |         342 |
|      35 | 0x0005      |           5 |
|      36 | 0x000A      |          10 |
|      37 | 0x0009      |           9 |
|      38 | 0x0046      |          70 |
|      39 | 0x008C      |         140 |
|      40 | 0x00D2      |         210 |
|      41 | 0x0008      |           8 |
|      42 | 0x0007      |           7 |
|      43 | 0x0091      |         145 |
|      44 | 0x004F      |          79 |
|      45 | 0x004C      |          76 |
|      46 | 0x00C9      |         201 |
|      47 | 0x0018      |          24 |
|      48 | 0x0020      |          32 |
|      49 | 0x0030      |          48 |
|      50 | 0x0040      |          64 |
|      51 | 0x0028      |          40 |
|      52 | 0x27AC      |       10156 |
|      53 | 0x0585      |        1413 |
|      54 | 0x0106      |         262 |
|      55 | 0x0050      |          80 |
|      56 | 0x0060      |          96 |
|      57 | 0x0080      |         128 |
|      58 | 0x5FC04     |      392196 |
|      59 | 0xE37D      |       58237 |
|      60 | 0xFFFFC064  |  4294951012 |
|      61 | 0x5FFA3     |      393123 |
|      62 | 0xF120      |       61728 |
|      63 | 0xFFFFC014  |  4294950932 |
|      64 | 0x5F801     |      391169 |
|      65 | 0x10FB7     |       69559 |
|      66 | 0xFFFFC04A  |  4294950986 |
|      67 | 0x600ED     |      393453 |
|      68 | 0x11753     |       71507 |
|      69 | 0xFFFFC13E  |  4294951230 |
|      70 | 0x0024      |          36 |
|      71 | 0x001D      |          29 |
|      72 | 0x66370     |      418672 |
|      73 | 0x13B60     |       80736 |
|      74 | 0xFFFFC57C  |  4294952316 |
|      75 | 0x005A      |          90 |
|      76 | 0x626B6     |      403126 |
|      77 | 0x11327     |       70439 |
|      78 | 0xFFFFC3DA  |  4294951898 |
|      79 | 0x61D7E     |      400766 |
|      80 | 0x10C7B     |       68731 |
|      81 | 0xFFFFC331  |  4294951729 |
|      82 | 0xFFFE8AC5  |  4294871749 |
|      83 | 0xD93F      |       55615 |
|      84 | 0xFFFF09D5  |  4294904277 |
|      85 | 0xFFFEA8BC  |  4294879420 |
|      86 | 0xB722      |       46882 |
|      87 | 0xFFFF1066  |  4294905958 |
|      88 | 0xFFFEB3C6  |  4294882246 |
|      89 | 0xACBF      |       44223 |
|      90 | 0xFFFF12E0  |  4294906592 |
|      91 | 0x000E      |          14 |
|      92 | 0xFFFEC01B  |  4294885403 |
|      93 | 0xA43A      |       42042 |
|      94 | 0xFFFF1363  |  4294906723 |
|      95 | 0x000F      |          15 |
|      96 | 0xFFFE9D59  |  4294876505 |
|      97 | 0xC11D      |       49437 |
|      98 | 0xFFFF0D4B  |  4294905163 |
|      99 | 0xFFFE891A  |  4294871322 |
|     100 | 0xD2AF      |       53935 |
|     101 | 0xFFFF098B  |  4294904203 |
|     102 | 0xFFFE7C99  |  4294868121 |
|     103 | 0x16D58     |       93528 |
|     104 | 0xFFFF1B63  |  4294908771 |
|     105 | 0x0010      |          16 |
|     106 | 0xFFFE7D1E  |  4294868254 |
|     107 | 0x17611     |       95761 |
|     108 | 0xFFFF1C09  |  4294908937 |
|     109 | 0xFFFE7ABD  |  4294867645 |
|     110 | 0x1587A     |       88186 |
|     111 | 0xFFFF191E  |  4294908190 |
|     112 | 0xFFFE7E1C  |  4294868508 |
|     113 | 0x157CA     |       88010 |
|     114 | 0xFFFF1918  |  4294908184 |

## String References

- **7854**: The sandworm swallows you whole!

## Events

### Event 65535

#### Metadata

| Field        | Value   |
|--------------|---------|
| Entrypoint   | 0x0000  |
| Data Size    | 1 bytes |
| Instructions | 1       |

```
      00 01 02 03 04 05 06 07  08 09 0A 0B 0C 0D 0E 0F
      -- -- -- -- -- -- -- --  -- -- -- -- -- -- -- --
0000: 00                                                .               
```

#### Opcodes

```
  0: 0x0000 [0x00] END_REQSTACK()
```

### Event 65534

#### Metadata

| Field        | Value   |
|--------------|---------|
| Entrypoint   | 0x0001  |
| Data Size    | 1 bytes |
| Instructions | 1       |

```
      00 01 02 03 04 05 06 07  08 09 0A 0B 0C 0D 0E 0F
      -- -- -- -- -- -- -- --  -- -- -- -- -- -- -- --
0000:    00                                              .              
```

#### Opcodes

```
  0: 0x0001 [0x00] END_REQSTACK()
```

### Event 264

#### Metadata

| Field        | Value    |
|--------------|----------|
| Entrypoint   | 0x0002   |
| Data Size    | 29 bytes |
| Instructions | 7        |

```
      00 01 02 03 04 05 06 07  08 09 0A 0B 0C 0D 0E 0F
      -- -- -- -- -- -- -- --  -- -- -- -- -- -- -- --
0000:       42 48 00 80 BB 01  80 F0 FF FF 7F F0 FF FF    BH............
0010: 7F 6D 61 69 6E 02 80 1C  03 80 1C 03 80 21 00     .main........!. 
```

#### Opcodes

```
  0: 0x0002 [0x42] SET_CLI_EVENT_CANCEL_DATA()
  1: 0x0003 [0x48] [System] [7854*]:
    → "The sandworm swallows you whole!"
  2: 0x0006 [0xBB] LOAD_EVENT_SCHEDULER_ALT: Load scheduler "main" with entities [LocalPlayer, LocalPlayer], work=[234*, 0*]
  3: 0x0017 [0x1C] WAIT(60* ticks)
  4: 0x001A [0x1C] WAIT(60* ticks)
  5: 0x001D [0x21] END_EVENT
  6: 0x001E [0x00] END_REQSTACK()
```

### Event 65535.1

#### Metadata

| Field        | Value    |
|--------------|----------|
| Entrypoint   | 0x001F   |
| Data Size    | 16 bytes |
| Instructions | 3        |

```
      00 01 02 03 04 05 06 07  08 09 0A 0B 0C 0D 0E 0F
      -- -- -- -- -- -- -- --  -- -- -- -- -- -- -- --
0010:                                               92                 .
0020: 01 F0 FF FF 7F 37 04 80  05 80 06 80 07 80 00     .....7......... 
```

#### Opcodes

```
  0: 0x001F [0x92] LocalPlayer->Render.Flags3 ^= 0x01
  1: 0x0025 [0x37] UPDATE_EVENT_POSITION_AND_DIR: x=597.821*, z=279.532*, y=-32.000*, direction=312.9°*
  2: 0x002E [0x00] END_REQSTACK()
```

### Event 65535.2

#### Metadata

| Field        | Value    |
|--------------|----------|
| Entrypoint   | 0x002F   |
| Data Size    | 41 bytes |
| Instructions | 5        |

```
      00 01 02 03 04 05 06 07  08 09 0A 0B 0C 0D 0E 0F
      -- -- -- -- -- -- -- --  -- -- -- -- -- -- -- --
0020:                                               BB                 .
0030: 08 80 F0 FF FF 7F 14 13  06 01 6D 61 69 6E 02 80  ..........main..
0040: 1C 09 80 45 0A 80 F0 FF  FF 7F F0 FF FF 7F 66 64  ...E..........fd
0050: 6F 31 02 80 1C 03 80 00                           o1......        
```

#### Opcodes

```
  0: 0x002F [0xBB] LOAD_EVENT_SCHEDULER_ALT: Load scheduler "main" with entities [LocalPlayer, Cavernous Maw (ID: 17175316/0x01061314)], work=[148*, 0*]
  1: 0x0040 [0x1C] WAIT(240* ticks)
  2: 0x0043 [0x45] LOAD_SCHEDULED_TASK: Load scheduler "fdo1" with entities [LocalPlayer, LocalPlayer], work=[200*, 0*]
  3: 0x0054 [0x1C] WAIT(60* ticks)
  4: 0x0057 [0x00] END_REQSTACK()
```

### Event 65535.3

#### Metadata

| Field        | Value    |
|--------------|----------|
| Entrypoint   | 0x0058   |
| Data Size    | 13 bytes |
| Instructions | 3        |

```
      00 01 02 03 04 05 06 07  08 09 0A 0B 0C 0D 0E 0F
      -- -- -- -- -- -- -- --  -- -- -- -- -- -- -- --
0050:                          47 00 0B 80 0C 80 0D 80          G.......
0060: 0E 80 47 01 00                                    ..G..           
```

#### Opcodes

```
  0: 0x0058 [0x47] UPDATE_PLAYER_POS(734.572*, -40.034*, -32.036*, yaw=360.0°*)
  1: 0x0062 [0x47] WAIT_PLAYER_POS_UPDATE
  2: 0x0064 [0x00] END_REQSTACK()
```

### Event 65535.4

#### Metadata

| Field        | Value    |
|--------------|----------|
| Entrypoint   | 0x0065   |
| Data Size    | 14 bytes |
| Instructions | 4        |

```
      00 01 02 03 04 05 06 07  08 09 0A 0B 0C 0D 0E 0F
      -- -- -- -- -- -- -- --  -- -- -- -- -- -- -- --
0060:                32 0F 80  1F 00 10 80 11 80 12 80       2..........
0070: 1F 01 00                                          ...             
```

#### Opcodes

```
  0: 0x0065 [0x32] ExtData[1]->MainSpeed = 13* * 0.1
  1: 0x0068 [0x1F] MOVE_ENTITY: EventEntity moves to X=739.071*, Z=-39.936*, Y=-31.922*
  2: 0x0070 [0x1F] MOVE_ENTITY: Update entity position (mode=1)
  3: 0x0072 [0x00] END_REQSTACK()
```

### Event 65535.5

#### Metadata

| Field        | Value   |
|--------------|---------|
| Entrypoint   | 0x0073  |
| Data Size    | 3 bytes |
| Instructions | 2       |

```
      00 01 02 03 04 05 06 07  08 09 0A 0B 0C 0D 0E 0F
      -- -- -- -- -- -- -- --  -- -- -- -- -- -- -- --
0070:          33 01 00                                    3..          
```

#### Opcodes

```
  0: 0x0073 [0x33] EventEntity->Render.Flags0 |= 0x200000 // Bit 21 (flag=0x01)
  1: 0x0075 [0x00] END_REQSTACK()
```

### Event 65535.6

#### Metadata

| Field        | Value   |
|--------------|---------|
| Entrypoint   | 0x0076  |
| Data Size    | 3 bytes |
| Instructions | 2       |

```
      00 01 02 03 04 05 06 07  08 09 0A 0B 0C 0D 0E 0F
      -- -- -- -- -- -- -- --  -- -- -- -- -- -- -- --
0070:                   33 00  00                             3..       
```

#### Opcodes

```
  0: 0x0076 [0x33] EventEntity->Render.Flags0 &= ~ 0x200000 // Bit 21 (flag=0x00)
  1: 0x0078 [0x00] END_REQSTACK()
```

### Event 265

#### Metadata

| Field        | Value      |
|--------------|------------|
| Entrypoint   | 0x0079     |
| Data Size    | 1061 bytes |
| Instructions | 204        |

```
      00 01 02 03 04 05 06 07  08 09 0A 0B 0C 0D 0E 0F
      -- -- -- -- -- -- -- --  -- -- -- -- -- -- -- --
0070:                             42 46 01 3E 04 10 02           BF.>...
0080: 80 8B 00 03 00 00 13 80  01 90 00 03 00 00 02 80  ................
0090: 3E 04 10 13 80 9F 00 03  01 00 13 80 01 A4 00 03  >...............
00A0: 01 00 02 80 41 14 80 15  80 04 10 02 00 45 0A 80  ....A........E..
00B0: F8 FF FF 7F F8 FF FF 7F  66 64 6F 30 02 80 55 0A  ........fdo0..U.
00C0: 80 F8 FF FF 7F F8 FF FF  7F 66 64 6F 30 BA F0 FF  .........fdo0...
00D0: FF 7F 05 10 06 10 07 10  08 10 1A BA 01 1A 18 02  ................
00E0: 38 16 80 1A 5D 02 03 05  10 02 10 03 06 10 02 10  8...]...........
00F0: 03 07 10 02 10 15 05 10  17 80 15 06 10 03 80 3F  ...............?
0100: 07 10 07 10 03 80 1A 7C  04 1A 9D 02 45 0A 80 F8  .......|....E...
0110: FF FF 7F F8 FF FF 7F 66  64 69 31 02 80 1C 18 80  .......fdi1.....
0120: 1A 36 04 1A DA 02 1C 03  80 1A 14 03 02 01 00 02  .6..............
0130: 80 00 3D 01 1C 03 80 1A  4E 03 01 7F 01 1C 03 80  ..=.....N.......
0140: 1A 88 03 02 03 10 02 80  01 7F 01 03 05 10 03 10  ................
0150: 03 06 10 03 10 03 07 10  03 10 15 05 10 17 80 15  ................
0160: 06 10 03 80 3F 07 10 07  10 03 80 1C 03 80 02 00  ....?...........
0170: 00 02 80 00 7C 01 1A C2  03 01 7F 01 1A FC 03 1C  ....|...........
0180: 03 80 1A 8E 04 45 0A 80  F8 FF FF 7F F8 FF FF 7F  .....E..........
0190: 66 64 6F 31 02 80 55 0A  80 F8 FF FF 7F F8 FF FF  fdo1..U.........
01A0: 7F 66 64 6F 31 46 00 45  0A 80 F8 FF FF 7F F8 FF  .fdo1F.E........
01B0: FF 7F 66 64 69 32 02 80  21 00 02 02 00 13 80 80  ..fdi2..!.......
01C0: D7 01 4E 00 04 13 06 01  92 01 04 13 06 01 4E 00  ..N...........N.
01D0: 07 13 06 01 01 11 02 02  02 00 14 80 80 F4 01 4E  ...............N
01E0: 00 05 13 06 01 92 01 05  13 06 01 4E 00 08 13 06  ...........N....
01F0: 01 01 11 02 02 02 00 15  80 80 11 02 4E 00 06 13  ............N...
0200: 06 01 92 01 06 13 06 01  4E 00 09 13 06 01 01 11  ........N.......
0210: 02 4E 00 20 13 06 01 1B  02 02 00 13 80 80 2D 02  .N. ..........-.
0220: 80 04 13 06 01 80 07 13  06 01 01 57 02 02 02 00  ...........W....
0230: 14 80 80 42 02 80 05 13  06 01 80 08 13 06 01 01  ...B............
0240: 57 02 02 02 00 15 80 80  57 02 80 06 13 06 01 80  W.......W.......
0250: 09 13 06 01 01 57 02 80  20 13 06 01 1B 02 02 00  .....W.. .......
0260: 14 80 80 72 02 79 00 F0  FF FF 7F 04 13 06 01 01  ...r.y..........
0270: 9C 02 02 02 00 15 80 80  87 02 79 00 F0 FF FF 7F  ..........y.....
0280: 05 13 06 01 01 9C 02 02  02 00 19 80 80 9C 02 79  ...............y
0290: 00 F0 FF FF 7F 06 13 06  01 01 9C 02 1B 02 02 00  ................
02A0: 13 80 80 B1 02 4A 04 13  06 01 F0 FF FF 7F 01 D9  .....J..........
02B0: 02 02 02 00 14 80 80 C5  02 4A 05 13 06 01 F0 FF  .........J......
02C0: FF 7F 01 D9 02 02 02 00  15 80 80 D9 02 4A 06 13  .............J..
02D0: 06 01 F0 FF FF 7F 01 D9  02 1B 02 02 00 13 80 80  ................
02E0: ED 02 2B 04 13 06 01 1A  80 23 01 13 03 02 02 00  ..+......#......
02F0: 14 80 80 00 03 2B 05 13  06 01 1A 80 23 01 13 03  .....+......#...
0300: 02 02 00 15 80 80 13 03  2B 06 13 06 01 1A 80 23  ........+......#
0310: 01 13 03 1B 02 02 00 13  80 80 27 03 2B 04 13 06  ..........'.+...
0320: 01 1B 80 23 01 4D 03 02  02 00 14 80 80 3A 03 2B  ...#.M.......:.+
0330: 05 13 06 01 1B 80 23 01  4D 03 02 02 00 15 80 80  ......#.M.......
0340: 4D 03 2B 06 13 06 01 1B  80 23 01 4D 03 1B 02 02  M.+......#.M....
0350: 00 13 80 80 61 03 2B 04  13 06 01 1C 80 23 01 87  ....a.+......#..
0360: 03 02 02 00 14 80 80 74  03 2B 05 13 06 01 1C 80  .......t.+......
0370: 23 01 87 03 02 02 00 15  80 80 87 03 2B 06 13 06  #...........+...
0380: 01 1C 80 23 01 87 03 1B  02 02 00 13 80 80 9B 03  ...#............
0390: 2B 04 13 06 01 1D 80 23  01 C1 03 02 02 00 14 80  +......#........
03A0: 80 AE 03 2B 05 13 06 01  1D 80 23 01 C1 03 02 02  ...+......#.....
03B0: 00 15 80 80 C1 03 2B 06  13 06 01 1D 80 23 01 C1  ......+......#..
03C0: 03 1B 02 02 00 13 80 80  D5 03 2B 04 13 06 01 1E  ..........+.....
03D0: 80 23 01 FB 03 02 02 00  14 80 80 E8 03 2B 05 13  .#...........+..
03E0: 06 01 1E 80 23 01 FB 03  02 02 00 15 80 80 FB 03  ....#...........
03F0: 2B 06 13 06 01 1E 80 23  01 FB 03 1B 02 02 00 13  +......#........
0400: 80 80 0F 04 2B 04 13 06  01 1F 80 23 01 35 04 02  ....+......#.5..
0410: 02 00 14 80 80 22 04 2B  05 13 06 01 1F 80 23 01  .....".+......#.
0420: 35 04 02 02 00 15 80 80  35 04 2B 06 13 06 01 1F  5.......5.+.....
0430: 80 23 01 35 04 1B 02 02  00 13 80 80 4D 04 6E 04  .#.5........M.n.
0440: 13 06 01 14 80 99 04 13  06 01 01 7B 04 02 02 00  ...........{....
0450: 14 80 80 64 04 6E 05 13  06 01 20 80 99 05 13 06  ...d.n.... .....
0460: 01 01 7B 04 02 02 00 15  80 80 7B 04 6E 06 13 06  ..{.......{.n...
0470: 01 21 80 99 06 13 06 01  01 7B 04 1B 45 22 80 F0  .!.......{..E"..
0480: FF FF 7F F0 FF FF 7F 63  30 39 37 02 80 1B 52 22  .......c097...R"
0490: 80 F0 FF FF 7F F0 FF FF  7F 63 30 39 37 1B        .........c097.  
```

#### Opcodes

```
  0: 0x0079 [0x42] SET_CLI_EVENT_CANCEL_DATA()
  1: 0x007A [0x46] CAMERA_CONTROL: Disable user control
  2: 0x007C [0x3E] IF !(Work_Zone[4] bit 0*) GOTO 0x008B
  3: 0x0083 [0x03] ExtData[1]->WorkLocal[0] = 1*
  4: 0x0088 [0x01] GOTO 0x0090
  5: 0x008B [0x03] ExtData[1]->WorkLocal[0] = 0*

SUBROUTINE_0090:
  6: 0x0090 [0x3E] IF !(Work_Zone[4] bit 1*) GOTO 0x009F
  7: 0x0097 [0x03] ExtData[1]->WorkLocal[1] = 1*
  8: 0x009C [0x01] GOTO 0x00A4
  9: 0x009F [0x03] ExtData[1]->WorkLocal[1] = 0*

SUBROUTINE_00A4:
 10: 0x00A4 [0x41] ExtData[1]->WorkLocal[2] = Work_Zone[4] (bits 2*-3*)
 11: 0x00AD [0x45] LOAD_SCHEDULED_TASK: Load scheduler "fdo0" with entities [EventEntity, EventEntity], work=[200*, 0*]
 12: 0x00BE [0x55] WAIT_LOAD_SCHEDULER: Wait for scheduler "fdo0" with entities [EventEntity, EventEntity], work=200*
 13: 0x00CD [0xBA] SET_ENTITY_POSITION(entity_id=LocalPlayer, pos_x=Work_Zone[5], pos_z=Work_Zone[6], pos_y=Work_Zone[7], direction=Work_Zone[8])
 14: 0x00DA [0x1A] CALL_SUBROUTINE(address=0x01BA)
 15: 0x00DD [0x1A] CALL_SUBROUTINE(address=0x0218)
 16: 0x00E0 [0x38] SET_CLIENT_EVENT_MODE(mode=19*)
 17: 0x00E3 [0x1A] CALL_SUBROUTINE(address=0x025D)
 18: 0x00E6 [0x03] Work_Zone[5] = Work_Zone[2]
 19: 0x00EB [0x03] Work_Zone[6] = Work_Zone[2]
 20: 0x00F0 [0x03] Work_Zone[7] = Work_Zone[2]
 21: 0x00F5 [0x15] Work_Zone[5] /= 144*
 22: 0x00FA [0x15] Work_Zone[6] /= 60*
 23: 0x00FF [0x3F] Work_Zone[7] = Work_Zone[7] % 60*
 24: 0x0106 [0x1A] CALL_SUBROUTINE(address=0x047C)
 25: 0x0109 [0x1A] CALL_SUBROUTINE(address=0x029D)
 26: 0x010C [0x45] LOAD_SCHEDULED_TASK: Load scheduler "fdi1" with entities [EventEntity, EventEntity], work=[200*, 0*]
 27: 0x011D [0x1C] WAIT(180* ticks)
 28: 0x0120 [0x1A] CALL_SUBROUTINE(address=0x0436)
 29: 0x0123 [0x1A] CALL_SUBROUTINE(address=0x02DA)
 30: 0x0126 [0x1C] WAIT(60* ticks)
 31: 0x0129 [0x1A] CALL_SUBROUTINE(address=0x0314)
 32: 0x012C [0x02] IF !(ExtData[1]->WorkLocal[1] == 0*) GOTO 0x013D
 33: 0x0134 [0x1C] WAIT(60* ticks)
 34: 0x0137 [0x1A] CALL_SUBROUTINE(address=0x034E)
 35: 0x013A [0x01] GOTO 0x017F
 36: 0x013D [0x1C] WAIT(60* ticks)
 37: 0x0140 [0x1A] CALL_SUBROUTINE(address=0x0388)
 38: 0x0143 [0x02] IF !(Work_Zone[3] == 0*) GOTO 0x017F
 39: 0x014B [0x03] Work_Zone[5] = Work_Zone[3]
 40: 0x0150 [0x03] Work_Zone[6] = Work_Zone[3]
 41: 0x0155 [0x03] Work_Zone[7] = Work_Zone[3]
 42: 0x015A [0x15] Work_Zone[5] /= 144*
 43: 0x015F [0x15] Work_Zone[6] /= 60*
 44: 0x0164 [0x3F] Work_Zone[7] = Work_Zone[7] % 60*
 45: 0x016B [0x1C] WAIT(60* ticks)
 46: 0x016E [0x02] IF !(ExtData[1]->WorkLocal[0] == 0*) GOTO 0x017C
 47: 0x0176 [0x1A] CALL_SUBROUTINE(address=0x03C2)
 48: 0x0179 [0x01] GOTO 0x017F
 49: 0x017C [0x1A] CALL_SUBROUTINE(address=0x03FC)

SUBROUTINE_017F:
 50: 0x017F [0x1C] WAIT(60* ticks)
 51: 0x0182 [0x1A] CALL_SUBROUTINE(address=0x048E)
 52: 0x0185 [0x45] LOAD_SCHEDULED_TASK: Load scheduler "fdo1" with entities [EventEntity, EventEntity], work=[200*, 0*]
 53: 0x0196 [0x55] WAIT_LOAD_SCHEDULER: Wait for scheduler "fdo1" with entities [EventEntity, EventEntity], work=200*
 54: 0x01A5 [0x46] CAMERA_CONTROL: Restore default settings
 55: 0x01A7 [0x45] LOAD_SCHEDULED_TASK: Load scheduler "fdi2" with entities [EventEntity, EventEntity], work=[200*, 0*]
 56: 0x01B8 [0x21] END_EVENT
 57: 0x01B9 [0x00] END_REQSTACK()

SUBROUTINE_01BA:
 58: 0x01BA [0x02] IF !(ExtData[1]->WorkLocal[2] == 1*) GOTO 0x01D7
 59: 0x01C2 [0x4E] SET_ENTITY_HIDE_FLAG: Show Raurart, R.K. (ID: 17175300/0x01061304)
 60: 0x01C8 [0x92] Raurart, R.K. (ID: 17175300/0x01061304)->Render.Flags3 ^= 0x01
 61: 0x01CE [0x4E] SET_ENTITY_HIDE_FLAG: Show Unnamed NPC (ID: 17175303/0x01061307)
 62: 0x01D4 [0x01] GOTO 0x0211
 63: 0x01D7 [0x02] IF !(ExtData[1]->WorkLocal[2] == 2*) GOTO 0x01F4
 64: 0x01DF [0x4E] SET_ENTITY_HIDE_FLAG: Show Pondering Peak, L.C. (ID: 17175301/0x01061305)
 65: 0x01E5 [0x92] Pondering Peak, L.C. (ID: 17175301/0x01061305)->Render.Flags3 ^= 0x01
 66: 0x01EB [0x4E] SET_ENTITY_HIDE_FLAG: Show Unnamed NPC (ID: 17175304/0x01061308)
 67: 0x01F1 [0x01] GOTO 0x0211
 68: 0x01F4 [0x02] IF !(ExtData[1]->WorkLocal[2] == 3*) GOTO 0x0211
 69: 0x01FC [0x4E] SET_ENTITY_HIDE_FLAG: Show Dhen Kwherri, M.C. (ID: 17175302/0x01061306)
 70: 0x0202 [0x92] Dhen Kwherri, M.C. (ID: 17175302/0x01061306)->Render.Flags3 ^= 0x01
 71: 0x0208 [0x4E] SET_ENTITY_HIDE_FLAG: Show Unnamed NPC (ID: 17175305/0x01061309)
 72: 0x020E [0x01] GOTO 0x0211

SUBROUTINE_0211:
 73: 0x0211 [0x4E] SET_ENTITY_HIDE_FLAG: Show Unnamed NPC (ID: 17175328/0x01061320)
 74: 0x0217 [0x1B] RETURN

SUBROUTINE_0218:
 75: 0x0218 [0x02] IF !(ExtData[1]->WorkLocal[2] == 1*) GOTO 0x022D
 76: 0x0220 [0x80] LOAD_WAIT(entity=Raurart, R.K. (ID: 17175300/0x01061304))
 77: 0x0225 [0x80] LOAD_WAIT(entity=Unnamed NPC (ID: 17175303/0x01061307))
 78: 0x022A [0x01] GOTO 0x0257
 79: 0x022D [0x02] IF !(ExtData[1]->WorkLocal[2] == 2*) GOTO 0x0242
 80: 0x0235 [0x80] LOAD_WAIT(entity=Pondering Peak, L.C. (ID: 17175301/0x01061305))
 81: 0x023A [0x80] LOAD_WAIT(entity=Unnamed NPC (ID: 17175304/0x01061308))
 82: 0x023F [0x01] GOTO 0x0257
 83: 0x0242 [0x02] IF !(ExtData[1]->WorkLocal[2] == 3*) GOTO 0x0257
 84: 0x024A [0x80] LOAD_WAIT(entity=Dhen Kwherri, M.C. (ID: 17175302/0x01061306))
 85: 0x024F [0x80] LOAD_WAIT(entity=Unnamed NPC (ID: 17175305/0x01061309))
 86: 0x0254 [0x01] GOTO 0x0257

SUBROUTINE_0257:
 87: 0x0257 [0x80] LOAD_WAIT(entity=Unnamed NPC (ID: 17175328/0x01061320))
 88: 0x025C [0x1B] RETURN

SUBROUTINE_025D:
 89: 0x025D [0x02] IF !(ExtData[1]->WorkLocal[2] == 2*) GOTO 0x0272
 90: 0x0265 [0x79] LocalPlayer looks at Raurart, R.K. (ID: 17175300/0x01061304) (Basic look)
 91: 0x026F [0x01] GOTO 0x029C
 92: 0x0272 [0x02] IF !(ExtData[1]->WorkLocal[2] == 3*) GOTO 0x0287
 93: 0x027A [0x79] LocalPlayer looks at Pondering Peak, L.C. (ID: 17175301/0x01061305) (Basic look)
 94: 0x0284 [0x01] GOTO 0x029C
 95: 0x0287 [0x02] IF !(ExtData[1]->WorkLocal[2] == 4*) GOTO 0x029C
 96: 0x028F [0x79] LocalPlayer looks at Dhen Kwherri, M.C. (ID: 17175302/0x01061306) (Basic look)
 97: 0x0299 [0x01] GOTO 0x029C

SUBROUTINE_029C:
 98: 0x029C [0x1B] RETURN

SUBROUTINE_029D:
 99: 0x029D [0x02] IF !(ExtData[1]->WorkLocal[2] == 1*) GOTO 0x02B1
100: 0x02A5 [0x4A] Raurart, R.K. (ID: 17175300/0x01061304) looks at LocalPlayer
101: 0x02AE [0x01] GOTO 0x02D9
102: 0x02B1 [0x02] IF !(ExtData[1]->WorkLocal[2] == 2*) GOTO 0x02C5
103: 0x02B9 [0x4A] Pondering Peak, L.C. (ID: 17175301/0x01061305) looks at LocalPlayer
104: 0x02C2 [0x01] GOTO 0x02D9
105: 0x02C5 [0x02] IF !(ExtData[1]->WorkLocal[2] == 3*) GOTO 0x02D9
106: 0x02CD [0x4A] Dhen Kwherri, M.C. (ID: 17175302/0x01061306) looks at LocalPlayer
107: 0x02D6 [0x01] GOTO 0x02D9

SUBROUTINE_02D9:
108: 0x02D9 [0x1B] RETURN

SUBROUTINE_02DA:
109: 0x02DA [0x02] IF !(ExtData[1]->WorkLocal[2] == 1*) GOTO 0x02ED
110: 0x02E2 [0x2B] Raurart, R.K. (ID: 17175300/0x01061304) [7349*]:
    → "Ah, you must be <Player>. We've been expecting you."
111: 0x02E9 [0x23] WAIT_FOR_DIALOG_INTERACTION
112: 0x02EA [0x01] GOTO 0x0313
113: 0x02ED [0x02] IF !(ExtData[1]->WorkLocal[2] == 2*) GOTO 0x0300
114: 0x02F5 [0x2B] Pondering Peak, L.C. (ID: 17175301/0x01061305) [7349*]:
    → "Ah, you must be <Player>. We've been expecting you."
115: 0x02FC [0x23] WAIT_FOR_DIALOG_INTERACTION
116: 0x02FD [0x01] GOTO 0x0313
117: 0x0300 [0x02] IF !(ExtData[1]->WorkLocal[2] == 3*) GOTO 0x0313
118: 0x0308 [0x2B] Dhen Kwherri, M.C. (ID: 17175302/0x01061306) [7349*]:
    → "Ah, you must be <Player>. We've been expecting you."
119: 0x030F [0x23] WAIT_FOR_DIALOG_INTERACTION
120: 0x0310 [0x01] GOTO 0x0313

SUBROUTINE_0313:
121: 0x0313 [0x1B] RETURN

SUBROUTINE_0314:
122: 0x0314 [0x02] IF !(ExtData[1]->WorkLocal[2] == 1*) GOTO 0x0327
123: 0x031C [0x2B] Raurart, R.K. (ID: 17175300/0x01061304) [7350*]:
    → "The delivery took you $3 [hour/hours] ($4 [minute/minutes] and $5 [second/seconds] Earth time)."
124: 0x0323 [0x23] WAIT_FOR_DIALOG_INTERACTION
125: 0x0324 [0x01] GOTO 0x034D
126: 0x0327 [0x02] IF !(ExtData[1]->WorkLocal[2] == 2*) GOTO 0x033A
127: 0x032F [0x2B] Pondering Peak, L.C. (ID: 17175301/0x01061305) [7350*]:
    → "The delivery took you $3 [hour/hours] ($4 [minute/minutes] and $5 [second/seconds] Earth time)."
128: 0x0336 [0x23] WAIT_FOR_DIALOG_INTERACTION
129: 0x0337 [0x01] GOTO 0x034D
130: 0x033A [0x02] IF !(ExtData[1]->WorkLocal[2] == 3*) GOTO 0x034D
131: 0x0342 [0x2B] Dhen Kwherri, M.C. (ID: 17175302/0x01061306) [7350*]:
    → "The delivery took you $3 [hour/hours] ($4 [minute/minutes] and $5 [second/seconds] Earth time)."
132: 0x0349 [0x23] WAIT_FOR_DIALOG_INTERACTION
133: 0x034A [0x01] GOTO 0x034D

SUBROUTINE_034D:
134: 0x034D [0x1B] RETURN

SUBROUTINE_034E:
135: 0x034E [0x02] IF !(ExtData[1]->WorkLocal[2] == 1*) GOTO 0x0361
136: 0x0356 [0x2B] Raurart, R.K. (ID: 17175300/0x01061304) [7352*]:
    → "While you were dawdling your way here, a separate shipment of construction materials was delivered to us. We shan't be requiring anymore."
137: 0x035D [0x23] WAIT_FOR_DIALOG_INTERACTION
138: 0x035E [0x01] GOTO 0x0387
139: 0x0361 [0x02] IF !(ExtData[1]->WorkLocal[2] == 2*) GOTO 0x0374
140: 0x0369 [0x2B] Pondering Peak, L.C. (ID: 17175301/0x01061305) [7352*]:
    → "While you were dawdling your way here, a separate shipment of construction materials was delivered to us. We shan't be requiring anymore."
141: 0x0370 [0x23] WAIT_FOR_DIALOG_INTERACTION
142: 0x0371 [0x01] GOTO 0x0387
143: 0x0374 [0x02] IF !(ExtData[1]->WorkLocal[2] == 3*) GOTO 0x0387
144: 0x037C [0x2B] Dhen Kwherri, M.C. (ID: 17175302/0x01061306) [7352*]:
    → "While you were dawdling your way here, a separate shipment of construction materials was delivered to us. We shan't be requiring anymore."
145: 0x0383 [0x23] WAIT_FOR_DIALOG_INTERACTION
146: 0x0384 [0x01] GOTO 0x0387

SUBROUTINE_0387:
147: 0x0387 [0x1B] RETURN

SUBROUTINE_0388:
148: 0x0388 [0x02] IF !(ExtData[1]->WorkLocal[2] == 1*) GOTO 0x039B
149: 0x0390 [0x2B] Raurart, R.K. (ID: 17175300/0x01061304) [7353*]:
    → "I commend you on your expeditiousness. Thanks to you, the construction work on our provision storehouse here can proceed as planned."
150: 0x0397 [0x23] WAIT_FOR_DIALOG_INTERACTION
151: 0x0398 [0x01] GOTO 0x03C1
152: 0x039B [0x02] IF !(ExtData[1]->WorkLocal[2] == 2*) GOTO 0x03AE
153: 0x03A3 [0x2B] Pondering Peak, L.C. (ID: 17175301/0x01061305) [7353*]:
    → "I commend you on your expeditiousness. Thanks to you, the construction work on our provision storehouse here can proceed as planned."
154: 0x03AA [0x23] WAIT_FOR_DIALOG_INTERACTION
155: 0x03AB [0x01] GOTO 0x03C1
156: 0x03AE [0x02] IF !(ExtData[1]->WorkLocal[2] == 3*) GOTO 0x03C1
157: 0x03B6 [0x2B] Dhen Kwherri, M.C. (ID: 17175302/0x01061306) [7353*]:
    → "I commend you on your expeditiousness. Thanks to you, the construction work on our provision storehouse here can proceed as planned."
158: 0x03BD [0x23] WAIT_FOR_DIALOG_INTERACTION
159: 0x03BE [0x01] GOTO 0x03C1

SUBROUTINE_03C1:
160: 0x03C1 [0x1B] RETURN

SUBROUTINE_03C2:
161: 0x03C2 [0x02] IF !(ExtData[1]->WorkLocal[2] == 1*) GOTO 0x03D5
162: 0x03CA [0x2B] Raurart, R.K. (ID: 17175300/0x01061304) [7354*]:
    → "So you have something to aspire to, the quickest delivery thus far was made by %0. That indefatigable soldier traversed the same course as you in just $3 [hour/hours] ($4 [minute/minutes] and $5 [second/seconds] Earth time)."
163: 0x03D1 [0x23] WAIT_FOR_DIALOG_INTERACTION
164: 0x03D2 [0x01] GOTO 0x03FB
165: 0x03D5 [0x02] IF !(ExtData[1]->WorkLocal[2] == 2*) GOTO 0x03E8
166: 0x03DD [0x2B] Pondering Peak, L.C. (ID: 17175301/0x01061305) [7354*]:
    → "So you have something to aspire to, the quickest delivery thus far was made by %0. That indefatigable soldier traversed the same course as you in just $3 [hour/hours] ($4 [minute/minutes] and $5 [second/seconds] Earth time)."
167: 0x03E4 [0x23] WAIT_FOR_DIALOG_INTERACTION
168: 0x03E5 [0x01] GOTO 0x03FB
169: 0x03E8 [0x02] IF !(ExtData[1]->WorkLocal[2] == 3*) GOTO 0x03FB
170: 0x03F0 [0x2B] Dhen Kwherri, M.C. (ID: 17175302/0x01061306) [7354*]:
    → "So you have something to aspire to, the quickest delivery thus far was made by %0. That indefatigable soldier traversed the same course as you in just $3 [hour/hours] ($4 [minute/minutes] and $5 [second/seconds] Earth time)."
171: 0x03F7 [0x23] WAIT_FOR_DIALOG_INTERACTION
172: 0x03F8 [0x01] GOTO 0x03FB

SUBROUTINE_03FB:
173: 0x03FB [0x1B] RETURN

SUBROUTINE_03FC:
174: 0x03FC [0x02] IF !(ExtData[1]->WorkLocal[2] == 1*) GOTO 0x040F
175: 0x0404 [0x2B] Raurart, R.K. (ID: 17175300/0x01061304) [7355*]:
    → "You're the current quickest delivery record holder, with a lightning-fast time of $3 [hour/hours] ($4 [minute/minutes] and $5 [second/seconds] Earth time). But that's no excuse to slack off, you hear?"
176: 0x040B [0x23] WAIT_FOR_DIALOG_INTERACTION
177: 0x040C [0x01] GOTO 0x0435
178: 0x040F [0x02] IF !(ExtData[1]->WorkLocal[2] == 2*) GOTO 0x0422
179: 0x0417 [0x2B] Pondering Peak, L.C. (ID: 17175301/0x01061305) [7355*]:
    → "You're the current quickest delivery record holder, with a lightning-fast time of $3 [hour/hours] ($4 [minute/minutes] and $5 [second/seconds] Earth time). But that's no excuse to slack off, you hear?"
180: 0x041E [0x23] WAIT_FOR_DIALOG_INTERACTION
181: 0x041F [0x01] GOTO 0x0435
182: 0x0422 [0x02] IF !(ExtData[1]->WorkLocal[2] == 3*) GOTO 0x0435
183: 0x042A [0x2B] Dhen Kwherri, M.C. (ID: 17175302/0x01061306) [7355*]:
    → "You're the current quickest delivery record holder, with a lightning-fast time of $3 [hour/hours] ($4 [minute/minutes] and $5 [second/seconds] Earth time). But that's no excuse to slack off, you hear?"
184: 0x0431 [0x23] WAIT_FOR_DIALOG_INTERACTION
185: 0x0432 [0x01] GOTO 0x0435

SUBROUTINE_0435:
186: 0x0435 [0x1B] RETURN

SUBROUTINE_0436:
187: 0x0436 [0x02] IF !(ExtData[1]->WorkLocal[2] == 1*) GOTO 0x044D
188: 0x043E [0x6E] Raurart, R.K. (ID: 17175300/0x01061304) uses emote 2*
189: 0x0445 [0x99] Wait for Raurart, R.K. (ID: 17175300/0x01061304) animation to complete
190: 0x044A [0x01] GOTO 0x047B
191: 0x044D [0x02] IF !(ExtData[1]->WorkLocal[2] == 2*) GOTO 0x0464
192: 0x0455 [0x6E] Pondering Peak, L.C. (ID: 17175301/0x01061305) uses emote 258*
193: 0x045C [0x99] Wait for Pondering Peak, L.C. (ID: 17175301/0x01061305) animation to complete
194: 0x0461 [0x01] GOTO 0x047B
195: 0x0464 [0x02] IF !(ExtData[1]->WorkLocal[2] == 3*) GOTO 0x047B
196: 0x046C [0x6E] Dhen Kwherri, M.C. (ID: 17175302/0x01061306) uses emote 514*
197: 0x0473 [0x99] Wait for Dhen Kwherri, M.C. (ID: 17175302/0x01061306) animation to complete
198: 0x0478 [0x01] GOTO 0x047B

SUBROUTINE_047B:
199: 0x047B [0x1B] RETURN

SUBROUTINE_047C:
200: 0x047C [0x45] LOAD_SCHEDULED_TASK: Load scheduler "c097" with entities [LocalPlayer, LocalPlayer], work=[342*, 0*]
201: 0x048D [0x1B] RETURN

SUBROUTINE_048E:
202: 0x048E [0x52] END_LOAD_SCHEDULER: End scheduler "c097" with entities [LocalPlayer, LocalPlayer], work=342*
203: 0x049D [0x1B] RETURN
```

### Event 65535.7

#### Metadata

| Field        | Value   |
|--------------|---------|
| Entrypoint   | 0x049E  |
| Data Size    | 6 bytes |
| Instructions | 2       |

```
      00 01 02 03 04 05 06 07  08 09 0A 0B 0C 0D 0E 0F
      -- -- -- -- -- -- -- --  -- -- -- -- -- -- -- --
0490:                                            03 02                ..
04A0: 10 07 7F 00                                       ....            
```

#### Opcodes

```
  0: 0x049E [0x03] Work_Zone[2] = Entity->Race
  1: 0x04A3 [0x00] END_REQSTACK()
```

### Event 65535.8

#### Metadata

| Field        | Value   |
|--------------|---------|
| Entrypoint   | 0x04A4  |
| Data Size    | 6 bytes |
| Instructions | 2       |

```
      00 01 02 03 04 05 06 07  08 09 0A 0B 0C 0D 0E 0F
      -- -- -- -- -- -- -- --  -- -- -- -- -- -- -- --
04A0:             03 02 10 0B  7F 00                        ......      
```

#### Opcodes

```
  0: 0x04A4 [0x03] Work_Zone[2] = (Entity->Render.Flags01 >> 25) & 1
  1: 0x04A9 [0x00] END_REQSTACK()
```

### Event 65535.9

#### Metadata

| Field        | Value   |
|--------------|---------|
| Entrypoint   | 0x04AA  |
| Data Size    | 7 bytes |
| Instructions | 3       |

```
      00 01 02 03 04 05 06 07  08 09 0A 0B 0C 0D 0E 0F
      -- -- -- -- -- -- -- --  -- -- -- -- -- -- -- --
04A0:                                AB 03 AC 01 13 80            ......
04B0: 00                                                .               
```

#### Opcodes

```
  0: 0x04AA [0xAB] EventEntity->Render.Flags0 ^= 0x20000 // Toggle bit 17
  1: 0x04AC [0xAC] EventEntity->StatusEvent = 1*
  2: 0x04B0 [0x00] END_REQSTACK()
```

### Event 65535.10

#### Metadata

| Field        | Value   |
|--------------|---------|
| Entrypoint   | 0x04B1  |
| Data Size    | 7 bytes |
| Instructions | 3       |

```
      00 01 02 03 04 05 06 07  08 09 0A 0B 0C 0D 0E 0F
      -- -- -- -- -- -- -- --  -- -- -- -- -- -- -- --
04B0:    AC 01 02 80 AB 04 00                            .......        
```

#### Opcodes

```
  0: 0x04B1 [0xAC] EventEntity->StatusEvent = 0*
  1: 0x04B5 [0xAB] EventEntity->Render.Flags0 |= 0x40000 // Set bit 18
  2: 0x04B7 [0x00] END_REQSTACK()
```

### Event 65535.11

#### Metadata

| Field        | Value    |
|--------------|----------|
| Entrypoint   | 0x04B8   |
| Data Size    | 37 bytes |
| Instructions | 5        |

```
      00 01 02 03 04 05 06 07  08 09 0A 0B 0C 0D 0E 0F
      -- -- -- -- -- -- -- --  -- -- -- -- -- -- -- --
04B0:                          03 03 00 07 7F 1A 02 05          ........
04C0: 66 04 00 F8 FF FF 7F F8  FF FF 7F 73 68 61 30 53  f..........sha0S
04D0: F8 FF FF 7F F8 FF FF 7F  73 68 61 30 00           ........sha0.   
```

#### Opcodes

```
  0: 0x04B8 [0x03] ExtData[1]->WorkLocal[3] = Entity->Race
  1: 0x04BD [0x1A] CALL_SUBROUTINE(address=0x0502)
  2: 0x04C0 [0x66] LOAD_EXT_SCHEDULER_MAIN: Load scheduler "sha0" with entities [EventEntity, EventEntity], work=ExtData[1]->WorkLocal[4]
  3: 0x04CF [0x53] WAIT_SCHEDULER_TASK: Wait for scheduler "sha0" with entities [EventEntity, EventEntity]
  4: 0x04DC [0x00] END_REQSTACK()
```

### Event 65535.12

#### Metadata

| Field        | Value     |
|--------------|-----------|
| Entrypoint   | 0x04DD    |
| Data Size    | 185 bytes |
| Instructions | 13        |

```
      00 01 02 03 04 05 06 07  08 09 0A 0B 0C 0D 0E 0F
      -- -- -- -- -- -- -- --  -- -- -- -- -- -- -- --
04D0:                                         03 03 00               ...
04E0: 07 7F 1A 02 05 66 04 00  F8 FF FF 7F F8 FF FF 7F  .....f..........
04F0: 73 68 61 31 53 F8 FF FF  7F F8 FF FF 7F 73 68 61  sha1S........sha
0500: 31 00 03 04 00 03 00 02  04 00 23 80 05 17 05 08  1.........#.....
0510: 04 00 13 80 01 1C 05 08  04 00 14 80 14 04 00 24  ...............$
0520: 80 07 04 00 25 80 1B 03  04 00 03 00 02 04 00 23  ....%..........#
0530: 80 05 3C 05 08 04 00 13  80 01 41 05 08 04 00 14  ..<.......A.....
0540: 80 14 04 00 24 80 07 04  00 26 80 1B 03 04 00 03  ....$....&......
0550: 00 02 04 00 23 80 05 61  05 08 04 00 13 80 01 66  ....#..a.......f
0560: 05 08 04 00 14 80 14 04  00 24 80 07 04 00 27 80  .........$....'.
0570: 1B 03 04 00 03 00 02 04  00 23 80 05 86 05 08 04  .........#......
0580: 00 13 80 01 8B 05 08 04  00 14 80 14 04 00 24 80  ..............$.
0590: 07 04 00 28 80 1B                                 ...(..          
```

#### Opcodes

```
  0: 0x04DD [0x03] ExtData[1]->WorkLocal[3] = Entity->Race
  1: 0x04E2 [0x1A] CALL_SUBROUTINE(address=0x0502)
  2: 0x04E5 [0x66] LOAD_EXT_SCHEDULER_MAIN: Load scheduler "sha1" with entities [EventEntity, EventEntity], work=ExtData[1]->WorkLocal[4]
  3: 0x04F4 [0x53] WAIT_SCHEDULER_TASK: Wait for scheduler "sha1" with entities [EventEntity, EventEntity]
  4: 0x0501 [0x00] END_REQSTACK()

SUBROUTINE_0502:
  5: 0x0502 [0x03] ExtData[1]->WorkLocal[4] = ExtData[1]->WorkLocal[3]
  6: 0x0507 [0x02] IF !(ExtData[1]->WorkLocal[4] > 5*) GOTO 0x0517
  7: 0x050F [0x08] ExtData[1]->WorkLocal[4] -= 1*
  8: 0x0514 [0x01] GOTO 0x051C
  9: 0x0517 [0x08] ExtData[1]->WorkLocal[4] -= 2*

SUBROUTINE_051C:
 10: 0x051C [0x14] ExtData[1]->WorkLocal[4] *= 10*
 11: 0x0521 [0x07] ExtData[1]->WorkLocal[4] += 9*
 12: 0x0526 [0x1B] RETURN
```

#### Data or dead code:

```
# Dead code (unreachable instructions):
     0x0527 [0x03] ExtData[1]->WorkLocal[4] = ExtData[1]->WorkLocal[3]
     0x052C [0x02] IF !(ExtData[1]->WorkLocal[4] > 5*) GOTO 0x053C
     0x0534 [0x08] ExtData[1]->WorkLocal[4] -= 1*
     0x0539 [0x01] GOTO 0x0541
     0x053C [0x08] ExtData[1]->WorkLocal[4] -= 2*
     0x0541 [0x14] ExtData[1]->WorkLocal[4] *= 10*
     0x0546 [0x07] ExtData[1]->WorkLocal[4] += 70*
     0x054B [0x1B] RETURN
     0x054C [0x03] ExtData[1]->WorkLocal[4] = ExtData[1]->WorkLocal[3]
     0x0551 [0x02] IF !(ExtData[1]->WorkLocal[4] > 5*) GOTO 0x0561
     0x0559 [0x08] ExtData[1]->WorkLocal[4] -= 1*
     0x055E [0x01] GOTO 0x0566
     0x0561 [0x08] ExtData[1]->WorkLocal[4] -= 2*
     0x0566 [0x14] ExtData[1]->WorkLocal[4] *= 10*
     0x056B [0x07] ExtData[1]->WorkLocal[4] += 140*
     0x0570 [0x1B] RETURN
     0x0571 [0x03] ExtData[1]->WorkLocal[4] = ExtData[1]->WorkLocal[3]
     0x0576 [0x02] IF !(ExtData[1]->WorkLocal[4] > 5*) GOTO 0x0586
     0x057E [0x08] ExtData[1]->WorkLocal[4] -= 1*
     0x0583 [0x01] GOTO 0x058B
     0x0586 [0x08] ExtData[1]->WorkLocal[4] -= 2*
     0x058B [0x14] ExtData[1]->WorkLocal[4] *= 10*
     0x0590 [0x07] ExtData[1]->WorkLocal[4] += 210*
     0x0595 [0x1B] RETURN
```

### Event 65535.13

#### Metadata

| Field        | Value    |
|--------------|----------|
| Entrypoint   | 0x0596   |
| Data Size    | 24 bytes |
| Instructions | 4        |

```
      00 01 02 03 04 05 06 07  08 09 0A 0B 0C 0D 0E 0F
      -- -- -- -- -- -- -- --  -- -- -- -- -- -- -- --
0590:                   03 03  00 07 7F 1A 02 05 66 04        ........f.
05A0: 00 F8 FF FF 7F F8 FF FF  7F 74 6C 6B 30 00        .........tlk0.  
```

#### Opcodes

```
  0: 0x0596 [0x03] ExtData[1]->WorkLocal[3] = Entity->Race
  1: 0x059B [0x1A] CALL_SUBROUTINE(address=0x0502)
  2: 0x059E [0x66] LOAD_EXT_SCHEDULER_MAIN: Load scheduler "tlk0" with entities [EventEntity, EventEntity], work=ExtData[1]->WorkLocal[4]
  3: 0x05AD [0x00] END_REQSTACK()
```

### Event 65535.14

#### Metadata

| Field        | Value    |
|--------------|----------|
| Entrypoint   | 0x05AE   |
| Data Size    | 24 bytes |
| Instructions | 4        |

```
      00 01 02 03 04 05 06 07  08 09 0A 0B 0C 0D 0E 0F
      -- -- -- -- -- -- -- --  -- -- -- -- -- -- -- --
05A0:                                            03 03                ..
05B0: 00 07 7F 1A 02 05 66 04  00 F8 FF FF 7F F8 FF FF  ......f.........
05C0: 7F 74 6C 6B 31 00                                 .tlk1.          
```

#### Opcodes

```
  0: 0x05AE [0x03] ExtData[1]->WorkLocal[3] = Entity->Race
  1: 0x05B3 [0x1A] CALL_SUBROUTINE(address=0x0502)
  2: 0x05B6 [0x66] LOAD_EXT_SCHEDULER_MAIN: Load scheduler "tlk1" with entities [EventEntity, EventEntity], work=ExtData[1]->WorkLocal[4]
  3: 0x05C5 [0x00] END_REQSTACK()
```

### Event 65535.15

#### Metadata

| Field        | Value    |
|--------------|----------|
| Entrypoint   | 0x05C6   |
| Data Size    | 38 bytes |
| Instructions | 5        |

```
      00 01 02 03 04 05 06 07  08 09 0A 0B 0C 0D 0E 0F
      -- -- -- -- -- -- -- --  -- -- -- -- -- -- -- --
05C0:                   22 00  2F 00 F8 FF FF 7F B6 0B        "./.......
05D0: 29 80 2A 80 2B 80 2C 80  2D 80 2D 80 2D 80 2E 80  ).*.+.,.-.-.-...
05E0: 2F 80 6C F8 FF FF 7F 30  80 13 80 00              /.l....0....    
```

#### Opcodes

```
  0: 0x05C6 [0x22] ENTITY_HIDE_FLAG(enabled=0x00)
  1: 0x05C8 [0x2F] EventEntity->Render.Flags0 &= ~0x80000 // Bit 19
  2: 0x05CE [0xB6] ENTITY_APPEARANCE_HANDLER(case=Full entity look, race=8*, hair=7*, head=145*, body=79*, hands=76*, legs=76*, feet=76*, main=201*, sub=24*)
  3: 0x05E2 [0x6C] FADE_ENTITY_COLOR(entity_id=EventEntity, end_alpha=32*, fade_time=1*)
  4: 0x05EB [0x00] END_REQSTACK()
```

### Event 65535.16

#### Metadata

| Field        | Value    |
|--------------|----------|
| Entrypoint   | 0x05EC   |
| Data Size    | 38 bytes |
| Instructions | 5        |

```
      00 01 02 03 04 05 06 07  08 09 0A 0B 0C 0D 0E 0F
      -- -- -- -- -- -- -- --  -- -- -- -- -- -- -- --
05E0:                                      22 00 2F 00              "./.
05F0: F8 FF FF 7F B6 0B 2A 80  2A 80 2B 80 2C 80 2D 80  ......*.*.+.,.-.
0600: 2D 80 2D 80 2E 80 2F 80  6C F8 FF FF 7F 31 80 13  -.-.../.l....1..
0610: 80 00                                             ..              
```

#### Opcodes

```
  0: 0x05EC [0x22] ENTITY_HIDE_FLAG(enabled=0x00)
  1: 0x05EE [0x2F] EventEntity->Render.Flags0 &= ~0x80000 // Bit 19
  2: 0x05F4 [0xB6] ENTITY_APPEARANCE_HANDLER(case=Full entity look, race=7*, hair=7*, head=145*, body=79*, hands=76*, legs=76*, feet=76*, main=201*, sub=24*)
  3: 0x0608 [0x6C] FADE_ENTITY_COLOR(entity_id=EventEntity, end_alpha=48*, fade_time=1*)
  4: 0x0611 [0x00] END_REQSTACK()
```

### Event 65535.17

#### Metadata

| Field        | Value    |
|--------------|----------|
| Entrypoint   | 0x0612   |
| Data Size    | 38 bytes |
| Instructions | 5        |

```
      00 01 02 03 04 05 06 07  08 09 0A 0B 0C 0D 0E 0F
      -- -- -- -- -- -- -- --  -- -- -- -- -- -- -- --
0610:       22 00 2F 00 F8 FF  FF 7F B6 0B 23 80 2A 80    "./.......#.*.
0620: 2B 80 2C 80 2D 80 2D 80  2D 80 2E 80 2F 80 6C F8  +.,.-.-.-.../.l.
0630: FF FF 7F 32 80 13 80 00                           ...2....        
```

#### Opcodes

```
  0: 0x0612 [0x22] ENTITY_HIDE_FLAG(enabled=0x00)
  1: 0x0614 [0x2F] EventEntity->Render.Flags0 &= ~0x80000 // Bit 19
  2: 0x061A [0xB6] ENTITY_APPEARANCE_HANDLER(case=Full entity look, race=5*, hair=7*, head=145*, body=79*, hands=76*, legs=76*, feet=76*, main=201*, sub=24*)
  3: 0x062E [0x6C] FADE_ENTITY_COLOR(entity_id=EventEntity, end_alpha=64*, fade_time=1*)
  4: 0x0637 [0x00] END_REQSTACK()
```

### Event 65535.18

#### Metadata

| Field        | Value    |
|--------------|----------|
| Entrypoint   | 0x0638   |
| Data Size    | 37 bytes |
| Instructions | 5        |

```
      00 01 02 03 04 05 06 07  08 09 0A 0B 0C 0D 0E 0F
      -- -- -- -- -- -- -- --  -- -- -- -- -- -- -- --
0630:                          03 03 00 07 7F 1A 02 05          ........
0640: 66 04 00 F8 FF FF 7F F8  FF FF 7F 73 69 74 30 53  f..........sit0S
0650: F8 FF FF 7F F8 FF FF 7F  73 69 74 30 00           ........sit0.   
```

#### Opcodes

```
  0: 0x0638 [0x03] ExtData[1]->WorkLocal[3] = Entity->Race
  1: 0x063D [0x1A] CALL_SUBROUTINE(address=0x0502)
  2: 0x0640 [0x66] LOAD_EXT_SCHEDULER_MAIN: Load scheduler "sit0" with entities [EventEntity, EventEntity], work=ExtData[1]->WorkLocal[4]
  3: 0x064F [0x53] WAIT_SCHEDULER_TASK: Wait for scheduler "sit0" with entities [EventEntity, EventEntity]
  4: 0x065C [0x00] END_REQSTACK()
```

### Event 65535.19

#### Metadata

| Field        | Value    |
|--------------|----------|
| Entrypoint   | 0x065D   |
| Data Size    | 37 bytes |
| Instructions | 5        |

```
      00 01 02 03 04 05 06 07  08 09 0A 0B 0C 0D 0E 0F
      -- -- -- -- -- -- -- --  -- -- -- -- -- -- -- --
0650:                                         03 03 00               ...
0660: 07 7F 1A 02 05 66 04 00  F8 FF FF 7F F8 FF FF 7F  .....f..........
0670: 73 69 74 31 53 F8 FF FF  7F F8 FF FF 7F 73 69 74  sit1S........sit
0680: 31 00                                             1.              
```

#### Opcodes

```
  0: 0x065D [0x03] ExtData[1]->WorkLocal[3] = Entity->Race
  1: 0x0662 [0x1A] CALL_SUBROUTINE(address=0x0502)
  2: 0x0665 [0x66] LOAD_EXT_SCHEDULER_MAIN: Load scheduler "sit1" with entities [EventEntity, EventEntity], work=ExtData[1]->WorkLocal[4]
  3: 0x0674 [0x53] WAIT_SCHEDULER_TASK: Wait for scheduler "sit1" with entities [EventEntity, EventEntity]
  4: 0x0681 [0x00] END_REQSTACK()
```

### Event 65535.20

#### Metadata

| Field        | Value    |
|--------------|----------|
| Entrypoint   | 0x0682   |
| Data Size    | 42 bytes |
| Instructions | 6        |

```
      00 01 02 03 04 05 06 07  08 09 0A 0B 0C 0D 0E 0F
      -- -- -- -- -- -- -- --  -- -- -- -- -- -- -- --
0680:       03 03 00 07 7F 1A  02 05 66 04 00 F8 FF FF    ........f.....
0690: 7F F8 FF FF 7F 74 6C 6B  30 1C 03 80 66 04 00 F8  .....tlk0...f...
06A0: FF FF 7F F8 FF FF 7F 74  6C 6B 31 00              .......tlk1.    
```

#### Opcodes

```
  0: 0x0682 [0x03] ExtData[1]->WorkLocal[3] = Entity->Race
  1: 0x0687 [0x1A] CALL_SUBROUTINE(address=0x0502)
  2: 0x068A [0x66] LOAD_EXT_SCHEDULER_MAIN: Load scheduler "tlk0" with entities [EventEntity, EventEntity], work=ExtData[1]->WorkLocal[4]
  3: 0x0699 [0x1C] WAIT(60* ticks)
  4: 0x069C [0x66] LOAD_EXT_SCHEDULER_MAIN: Load scheduler "tlk1" with entities [EventEntity, EventEntity], work=ExtData[1]->WorkLocal[4]
  5: 0x06AB [0x00] END_REQSTACK()
```

### Event 65535.21

#### Metadata

| Field        | Value    |
|--------------|----------|
| Entrypoint   | 0x06AC   |
| Data Size    | 15 bytes |
| Instructions | 5        |

```
      00 01 02 03 04 05 06 07  08 09 0A 0B 0C 0D 0E 0F
      -- -- -- -- -- -- -- --  -- -- -- -- -- -- -- --
06A0:                                      32 33 80 1F              23..
06B0: 00 34 80 35 80 02 80 1F  01 6F 00                 .4.5.....o.     
```

#### Opcodes

```
  0: 0x06AC [0x32] ExtData[1]->MainSpeed = 40* * 0.1
  1: 0x06AF [0x1F] MOVE_ENTITY: EventEntity moves to X=10.156*, Z=1.413*, Y=0.000*
  2: 0x06B7 [0x1F] MOVE_ENTITY: Update entity position (mode=1)
  3: 0x06B9 [0x6F] WAIT_FRAME_DELAY: Yield until WaitTime reaches zero
  4: 0x06BA [0x00] END_REQSTACK()
```

### Event 65535.22

#### Metadata

| Field        | Value    |
|--------------|----------|
| Entrypoint   | 0x06BB   |
| Data Size    | 42 bytes |
| Instructions | 6        |

```
      00 01 02 03 04 05 06 07  08 09 0A 0B 0C 0D 0E 0F
      -- -- -- -- -- -- -- --  -- -- -- -- -- -- -- --
06B0:                                   03 03 00 07 7F             .....
06C0: 1A 27 05 07 04 00 13 80  66 04 00 F8 FF FF 7F F8  .'......f.......
06D0: FF FF 7F 6C 6C 7A 30 53  F8 FF FF 7F F8 FF FF 7F  ...llz0S........
06E0: 6C 6C 7A 30 00                                    llz0.           
```

#### Opcodes

```
  0: 0x06BB [0x03] ExtData[1]->WorkLocal[3] = Entity->Race
  1: 0x06C0 [0x1A] CALL_SUBROUTINE(address=0x0527)
  2: 0x06C3 [0x07] ExtData[1]->WorkLocal[4] += 1*
  3: 0x06C8 [0x66] LOAD_EXT_SCHEDULER_MAIN: Load scheduler "llz0" with entities [EventEntity, EventEntity], work=ExtData[1]->WorkLocal[4]
  4: 0x06D7 [0x53] WAIT_SCHEDULER_TASK: Wait for scheduler "llz0" with entities [EventEntity, EventEntity]
  5: 0x06E4 [0x00] END_REQSTACK()
```

### Event 65535.23

#### Metadata

| Field        | Value    |
|--------------|----------|
| Entrypoint   | 0x06E5   |
| Data Size    | 29 bytes |
| Instructions | 5        |

```
      00 01 02 03 04 05 06 07  08 09 0A 0B 0C 0D 0E 0F
      -- -- -- -- -- -- -- --  -- -- -- -- -- -- -- --
06E0:                03 03 00  07 7F 1A 27 05 07 04 00       ......'....
06F0: 14 80 66 04 00 F8 FF FF  7F F8 FF FF 7F 6B 61 6B  ..f..........kak
0700: 30 00                                             0.              
```

#### Opcodes

```
  0: 0x06E5 [0x03] ExtData[1]->WorkLocal[3] = Entity->Race
  1: 0x06EA [0x1A] CALL_SUBROUTINE(address=0x0527)
  2: 0x06ED [0x07] ExtData[1]->WorkLocal[4] += 2*
  3: 0x06F2 [0x66] LOAD_EXT_SCHEDULER_MAIN: Load scheduler "kak0" with entities [EventEntity, EventEntity], work=ExtData[1]->WorkLocal[4]
  4: 0x0701 [0x00] END_REQSTACK()
```

### Event 65535.24

#### Metadata

| Field        | Value    |
|--------------|----------|
| Entrypoint   | 0x0702   |
| Data Size    | 38 bytes |
| Instructions | 5        |

```
      00 01 02 03 04 05 06 07  08 09 0A 0B 0C 0D 0E 0F
      -- -- -- -- -- -- -- --  -- -- -- -- -- -- -- --
0700:       22 00 2F 00 F8 FF  FF 7F B6 0B 29 80 02 80    "./.......)...
0710: 2B 80 2C 80 2D 80 2D 80  2D 80 2E 80 36 80 6C F8  +.,.-.-.-...6.l.
0720: FF FF 7F 32 80 13 80 00                           ...2....        
```

#### Opcodes

```
  0: 0x0702 [0x22] ENTITY_HIDE_FLAG(enabled=0x00)
  1: 0x0704 [0x2F] EventEntity->Render.Flags0 &= ~0x80000 // Bit 19
  2: 0x070A [0xB6] ENTITY_APPEARANCE_HANDLER(case=Full entity look, race=8*, hair=0*, head=145*, body=79*, hands=76*, legs=76*, feet=76*, main=201*, sub=262*)
  3: 0x071E [0x6C] FADE_ENTITY_COLOR(entity_id=EventEntity, end_alpha=64*, fade_time=1*)
  4: 0x0727 [0x00] END_REQSTACK()
```

### Event 65535.25

#### Metadata

| Field        | Value    |
|--------------|----------|
| Entrypoint   | 0x0728   |
| Data Size    | 38 bytes |
| Instructions | 5        |

```
      00 01 02 03 04 05 06 07  08 09 0A 0B 0C 0D 0E 0F
      -- -- -- -- -- -- -- --  -- -- -- -- -- -- -- --
0720:                          22 00 2F 00 F8 FF FF 7F          "./.....
0730: B6 0B 19 80 02 80 2B 80  2C 80 2D 80 2D 80 2D 80  ......+.,.-.-.-.
0740: 2E 80 2F 80 6C F8 FF FF  7F 37 80 13 80 00        ../.l....7....  
```

#### Opcodes

```
  0: 0x0728 [0x22] ENTITY_HIDE_FLAG(enabled=0x00)
  1: 0x072A [0x2F] EventEntity->Render.Flags0 &= ~0x80000 // Bit 19
  2: 0x0730 [0xB6] ENTITY_APPEARANCE_HANDLER(case=Full entity look, race=4*, hair=0*, head=145*, body=79*, hands=76*, legs=76*, feet=76*, main=201*, sub=24*)
  3: 0x0744 [0x6C] FADE_ENTITY_COLOR(entity_id=EventEntity, end_alpha=80*, fade_time=1*)
  4: 0x074D [0x00] END_REQSTACK()
```

### Event 65535.26

#### Metadata

| Field        | Value    |
|--------------|----------|
| Entrypoint   | 0x074E   |
| Data Size    | 38 bytes |
| Instructions | 5        |

```
      00 01 02 03 04 05 06 07  08 09 0A 0B 0C 0D 0E 0F
      -- -- -- -- -- -- -- --  -- -- -- -- -- -- -- --
0740:                                            22 00                ".
0750: 2F 00 F8 FF FF 7F B6 0B  23 80 02 80 2B 80 2C 80  /.......#...+.,.
0760: 2D 80 2D 80 2D 80 2E 80  2F 80 6C F8 FF FF 7F 38  -.-.-.../.l....8
0770: 80 13 80 00                                       ....            
```

#### Opcodes

```
  0: 0x074E [0x22] ENTITY_HIDE_FLAG(enabled=0x00)
  1: 0x0750 [0x2F] EventEntity->Render.Flags0 &= ~0x80000 // Bit 19
  2: 0x0756 [0xB6] ENTITY_APPEARANCE_HANDLER(case=Full entity look, race=5*, hair=0*, head=145*, body=79*, hands=76*, legs=76*, feet=76*, main=201*, sub=24*)
  3: 0x076A [0x6C] FADE_ENTITY_COLOR(entity_id=EventEntity, end_alpha=96*, fade_time=1*)
  4: 0x0773 [0x00] END_REQSTACK()
```

### Event 65535.27

#### Metadata

| Field        | Value    |
|--------------|----------|
| Entrypoint   | 0x0774   |
| Data Size    | 10 bytes |
| Instructions | 2        |

```
      00 01 02 03 04 05 06 07  08 09 0A 0B 0C 0D 0E 0F
      -- -- -- -- -- -- -- --  -- -- -- -- -- -- -- --
0770:             6C F0 FF FF  7F 02 80 13 80 00            l.........  
```

#### Opcodes

```
  0: 0x0774 [0x6C] FADE_ENTITY_COLOR(entity_id=LocalPlayer, end_alpha=0*, fade_time=1*)
  1: 0x077D [0x00] END_REQSTACK()
```

### Event 65535.28

#### Metadata

| Field        | Value    |
|--------------|----------|
| Entrypoint   | 0x077E   |
| Data Size    | 10 bytes |
| Instructions | 2        |

```
      00 01 02 03 04 05 06 07  08 09 0A 0B 0C 0D 0E 0F
      -- -- -- -- -- -- -- --  -- -- -- -- -- -- -- --
0770:                                            6C F0                l.
0780: FF FF 7F 39 80 13 80 00                           ...9....        
```

#### Opcodes

```
  0: 0x077E [0x6C] FADE_ENTITY_COLOR(entity_id=LocalPlayer, end_alpha=128*, fade_time=1*)
  1: 0x0787 [0x00] END_REQSTACK()
```

### Event 65535.29

#### Metadata

| Field        | Value     |
|--------------|-----------|
| Entrypoint   | 0x0788    |
| Data Size    | 103 bytes |
| Instructions | 17        |

```
      00 01 02 03 04 05 06 07  08 09 0A 0B 0C 0D 0E 0F
      -- -- -- -- -- -- -- --  -- -- -- -- -- -- -- --
0780:                          1C 03 80 4A 4B 13 06 01          ...JK...
0790: 49 13 06 01 4A 4E 13 06  01 49 13 06 01 1C 24 80  I...JN...I....$.
07A0: 4A 4D 13 06 01 49 13 06  01 1C 23 80 4A 54 13 06  JM...I....#.JT..
07B0: 01 49 13 06 01 4A 51 13  06 01 49 13 06 01 1C 23  .I...JQ...I....#
07C0: 80 1C 23 80 4A 56 13 06  01 49 13 06 01 4A 57 13  ..#.JV...I...JW.
07D0: 06 01 49 13 06 01 1C 23  80 4A 52 13 06 01 49 13  ..I....#.JR...I.
07E0: 06 01 1C 23 80 4A 45 13  06 01 49 13 06 01 00     ...#.JE...I.... 
```

#### Opcodes

```
  0: 0x0788 [0x1C] WAIT(60* ticks)
  1: 0x078B [0x4A] Mihl Pakorhma (ID: 17175371/0x0106134B) looks at Romaa Mihgo (ID: 17175369/0x01061349)
  2: 0x0794 [0x4A] Nzha Abaleenah (ID: 17175374/0x0106134E) looks at Romaa Mihgo (ID: 17175369/0x01061349)
  3: 0x079D [0x1C] WAIT(10* ticks)
  4: 0x07A0 [0x4A] Naho Gwanboh (ID: 17175373/0x0106134D) looks at Romaa Mihgo (ID: 17175369/0x01061349)
  5: 0x07A9 [0x1C] WAIT(5* ticks)
  6: 0x07AC [0x4A] Etoh Tanghari (ID: 17175380/0x01061354) looks at Romaa Mihgo (ID: 17175369/0x01061349)
  7: 0x07B5 [0x4A] Unnamed NPC (ID: 17175377/0x01061351) looks at Romaa Mihgo (ID: 17175369/0x01061349)
  8: 0x07BE [0x1C] WAIT(5* ticks)
  9: 0x07C1 [0x1C] WAIT(5* ticks)
 10: 0x07C4 [0x4A] 03 (ID: 17175382/0x01061356) looks at Romaa Mihgo (ID: 17175369/0x01061349)
 11: 0x07CD [0x4A] Nri Sarabah (ID: 17175383/0x01061357) looks at Romaa Mihgo (ID: 17175369/0x01061349)
 12: 0x07D6 [0x1C] WAIT(5* ticks)
 13: 0x07D9 [0x4A] Unnamed NPC (ID: 17175378/0x01061352) looks at Romaa Mihgo (ID: 17175369/0x01061349)
 14: 0x07E2 [0x1C] WAIT(5* ticks)
 15: 0x07E5 [0x4A] Syu Befrathi (ID: 17175365/0x01061345) looks at Romaa Mihgo (ID: 17175369/0x01061349)
 16: 0x07EE [0x00] END_REQSTACK()
```

### Event 65535.30

#### Metadata

| Field        | Value    |
|--------------|----------|
| Entrypoint   | 0x07EF   |
| Data Size    | 15 bytes |
| Instructions | 5        |

```
      00 01 02 03 04 05 06 07  08 09 0A 0B 0C 0D 0E 0F
      -- -- -- -- -- -- -- --  -- -- -- -- -- -- -- --
07E0:                                               32                 2
07F0: 0F 80 1F 00 3A 80 3B 80  3C 80 1F 01 6F 00        ....:.;.<...o.  
```

#### Opcodes

```
  0: 0x07EF [0x32] ExtData[1]->MainSpeed = 13* * 0.1
  1: 0x07F2 [0x1F] MOVE_ENTITY: EventEntity moves to X=392.196*, Z=58.237*, Y=-16.284*
  2: 0x07FA [0x1F] MOVE_ENTITY: Update entity position (mode=1)
  3: 0x07FC [0x6F] WAIT_FRAME_DELAY: Yield until WaitTime reaches zero
  4: 0x07FD [0x00] END_REQSTACK()
```

### Event 65535.31

#### Metadata

| Field        | Value    |
|--------------|----------|
| Entrypoint   | 0x07FE   |
| Data Size    | 24 bytes |
| Instructions | 6        |

```
      00 01 02 03 04 05 06 07  08 09 0A 0B 0C 0D 0E 0F
      -- -- -- -- -- -- -- --  -- -- -- -- -- -- -- --
07F0:                                            32 0F                2.
0800: 80 1F 00 3D 80 3E 80 3F  80 1F 01 1F 00 40 80 41  ...=.>.?.....@.A
0810: 80 42 80 1F 01 00                                 .B....          
```

#### Opcodes

```
  0: 0x07FE [0x32] ExtData[1]->MainSpeed = 13* * 0.1
  1: 0x0801 [0x1F] MOVE_ENTITY: EventEntity moves to X=393.123*, Z=61.728*, Y=-16.364*
  2: 0x0809 [0x1F] MOVE_ENTITY: Update entity position (mode=1)
  3: 0x080B [0x1F] MOVE_ENTITY: EventEntity moves to X=391.169*, Z=69.559*, Y=-16.310*
  4: 0x0813 [0x1F] MOVE_ENTITY: Update entity position (mode=1)
  5: 0x0815 [0x00] END_REQSTACK()
```

### Event 65535.32

#### Metadata

| Field        | Value    |
|--------------|----------|
| Entrypoint   | 0x0816   |
| Data Size    | 26 bytes |
| Instructions | 8        |

```
      00 01 02 03 04 05 06 07  08 09 0A 0B 0C 0D 0E 0F
      -- -- -- -- -- -- -- --  -- -- -- -- -- -- -- --
0810:                   32 0F  80 1F 00 43 80 44 80 45        2....C.D.E
0820: 80 1F 01 6F 1E 42 13 06  01 6F 76 F8 FF FF 7F 00  ...o.B...ov.....
```

#### Opcodes

```
  0: 0x0816 [0x32] ExtData[1]->MainSpeed = 13* * 0.1
  1: 0x0819 [0x1F] MOVE_ENTITY: EventEntity moves to X=393.453*, Z=71.507*, Y=-16.066*
  2: 0x0821 [0x1F] MOVE_ENTITY: Update entity position (mode=1)
  3: 0x0823 [0x6F] WAIT_FRAME_DELAY: Yield until WaitTime reaches zero
  4: 0x0824 [0x1E] EventEntity looks at Lehko Habhoka (ID: 17175362/0x01061342) and starts talking
  5: 0x0829 [0x6F] WAIT_FRAME_DELAY: Yield until WaitTime reaches zero
  6: 0x082A [0x76] CHECK_ENTITY_RENDER_FLAGS: Wait until EventEntity Render.Flags0 and Render.Flags3 conditions are met
  7: 0x082F [0x00] END_REQSTACK()
```

### Event 65535.33

#### Metadata

| Field        | Value    |
|--------------|----------|
| Entrypoint   | 0x0830   |
| Data Size    | 16 bytes |
| Instructions | 4        |

```
      00 01 02 03 04 05 06 07  08 09 0A 0B 0C 0D 0E 0F
      -- -- -- -- -- -- -- --  -- -- -- -- -- -- -- --
0830: 1C 33 80 6E F8 FF FF 7F  46 80 99 F8 FF FF 7F 00  .3.n....F.......
```

#### Opcodes

```
  0: 0x0830 [0x1C] WAIT(40* ticks)
  1: 0x0833 [0x6E] EventEntity uses emote 36*
  2: 0x083A [0x99] Wait for EventEntity animation to complete
  3: 0x083F [0x00] END_REQSTACK()
```

### Event 65535.34

#### Metadata

| Field        | Value    |
|--------------|----------|
| Entrypoint   | 0x0840   |
| Data Size    | 13 bytes |
| Instructions | 3        |

```
      00 01 02 03 04 05 06 07  08 09 0A 0B 0C 0D 0E 0F
      -- -- -- -- -- -- -- --  -- -- -- -- -- -- -- --
0840: 6E F8 FF FF 7F 47 80 99  F8 FF FF 7F 00           n....G.......   
```

#### Opcodes

```
  0: 0x0840 [0x6E] EventEntity uses emote 29*
  1: 0x0847 [0x99] Wait for EventEntity animation to complete
  2: 0x084C [0x00] END_REQSTACK()
```

### Event 65535.35

#### Metadata

| Field        | Value    |
|--------------|----------|
| Entrypoint   | 0x084D   |
| Data Size    | 20 bytes |
| Instructions | 6        |

```
      00 01 02 03 04 05 06 07  08 09 0A 0B 0C 0D 0E 0F
      -- -- -- -- -- -- -- --  -- -- -- -- -- -- -- --
0840:                                         32 0F 80               2..
0850: 1F 00 48 80 49 80 4A 80  1F 01 6F 1E 42 13 06 01  ..H.I.J...o.B...
0860: 00                                                .               
```

#### Opcodes

```
  0: 0x084D [0x32] ExtData[1]->MainSpeed = 13* * 0.1
  1: 0x0850 [0x1F] MOVE_ENTITY: EventEntity moves to X=418.672*, Z=80.736*, Y=-14.980*
  2: 0x0858 [0x1F] MOVE_ENTITY: Update entity position (mode=1)
  3: 0x085A [0x6F] WAIT_FRAME_DELAY: Yield until WaitTime reaches zero
  4: 0x085B [0x1E] EventEntity looks at Lehko Habhoka (ID: 17175362/0x01061342) and starts talking
  5: 0x0860 [0x00] END_REQSTACK()
```

### Event 65535.36

#### Metadata

| Field        | Value    |
|--------------|----------|
| Entrypoint   | 0x0861   |
| Data Size    | 13 bytes |
| Instructions | 3        |

```
      00 01 02 03 04 05 06 07  08 09 0A 0B 0C 0D 0E 0F
      -- -- -- -- -- -- -- --  -- -- -- -- -- -- -- --
0860:    1C 4B 80 4A F0 FF FF  7F 4F 13 06 01 00         .K.J....O....  
```

#### Opcodes

```
  0: 0x0861 [0x1C] WAIT(90* ticks)
  1: 0x0864 [0x4A] LocalPlayer looks at Ghyo Molkot (ID: 17175375/0x0106134F)
  2: 0x086D [0x00] END_REQSTACK()
```

### Event 65535.37

#### Metadata

| Field        | Value    |
|--------------|----------|
| Entrypoint   | 0x086E   |
| Data Size    | 15 bytes |
| Instructions | 5        |

```
      00 01 02 03 04 05 06 07  08 09 0A 0B 0C 0D 0E 0F
      -- -- -- -- -- -- -- --  -- -- -- -- -- -- -- --
0860:                                            32 0F                2.
0870: 80 1F 00 4C 80 4D 80 4E  80 1F 01 6F 00           ...L.M.N...o.   
```

#### Opcodes

```
  0: 0x086E [0x32] ExtData[1]->MainSpeed = 13* * 0.1
  1: 0x0871 [0x1F] MOVE_ENTITY: EventEntity moves to X=403.126*, Z=70.439*, Y=-15.398*
  2: 0x0879 [0x1F] MOVE_ENTITY: Update entity position (mode=1)
  3: 0x087B [0x6F] WAIT_FRAME_DELAY: Yield until WaitTime reaches zero
  4: 0x087C [0x00] END_REQSTACK()
```

### Event 65535.38

#### Metadata

| Field        | Value    |
|--------------|----------|
| Entrypoint   | 0x087D   |
| Data Size    | 20 bytes |
| Instructions | 6        |

```
      00 01 02 03 04 05 06 07  08 09 0A 0B 0C 0D 0E 0F
      -- -- -- -- -- -- -- --  -- -- -- -- -- -- -- --
0870:                                         32 0F 80               2..
0880: 1F 00 4F 80 50 80 51 80  1F 01 6F 1E 49 13 06 01  ..O.P.Q...o.I...
0890: 00                                                .               
```

#### Opcodes

```
  0: 0x087D [0x32] ExtData[1]->MainSpeed = 13* * 0.1
  1: 0x0880 [0x1F] MOVE_ENTITY: EventEntity moves to X=400.766*, Z=68.731*, Y=-15.567*
  2: 0x0888 [0x1F] MOVE_ENTITY: Update entity position (mode=1)
  3: 0x088A [0x6F] WAIT_FRAME_DELAY: Yield until WaitTime reaches zero
  4: 0x088B [0x1E] EventEntity looks at Romaa Mihgo (ID: 17175369/0x01061349) and starts talking
  5: 0x0890 [0x00] END_REQSTACK()
```

### Event 65535.39

#### Metadata

| Field        | Value    |
|--------------|----------|
| Entrypoint   | 0x0891   |
| Data Size    | 53 bytes |
| Instructions | 13       |

```
      00 01 02 03 04 05 06 07  08 09 0A 0B 0C 0D 0E 0F
      -- -- -- -- -- -- -- --  -- -- -- -- -- -- -- --
0890:    32 33 80 5A 00 52 80  53 80 54 80 5A 01 5A 00   23.Z.R.S.T.Z.Z.
08A0: 55 80 56 80 57 80 5A 01  1F 00 58 80 59 80 5A 80  U.V.W.Z...X.Y.Z.
08B0: 1F 01 32 5B 80 1F 00 5C  80 5D 80 5E 80 1F 01 6F  ..2[...\.].^...o
08C0: 1E 45 13 06 01 00                                 .E....          
```

#### Opcodes

```
  0: 0x0891 [0x32] ExtData[1]->MainSpeed = 40* * 0.1
  1: 0x0894 [0x5A] UPDATE_EVENT_POSITION: Set EventEntity MovePosition to X=-95.547*, Z=55.615*, Y=-63.019*
  2: 0x089C [0x5A] UPDATE_EVENT_POSITION: Move EventEntity incrementally towards MovePosition
  3: 0x089E [0x5A] UPDATE_EVENT_POSITION: Set EventEntity MovePosition to X=-87.876*, Z=46.882*, Y=-61.338*
  4: 0x08A6 [0x5A] UPDATE_EVENT_POSITION: Move EventEntity incrementally towards MovePosition
  5: 0x08A8 [0x1F] MOVE_ENTITY: EventEntity moves to X=-85.050*, Z=44.223*, Y=-60.704*
  6: 0x08B0 [0x1F] MOVE_ENTITY: Update entity position (mode=1)
  7: 0x08B2 [0x32] ExtData[1]->MainSpeed = 14* * 0.1
  8: 0x08B5 [0x1F] MOVE_ENTITY: EventEntity moves to X=-81.893*, Z=42.042*, Y=-60.573*
  9: 0x08BD [0x1F] MOVE_ENTITY: Update entity position (mode=1)
 10: 0x08BF [0x6F] WAIT_FRAME_DELAY: Yield until WaitTime reaches zero
 11: 0x08C0 [0x1E] EventEntity looks at Syu Befrathi (ID: 17175365/0x01061345) and starts talking
 12: 0x08C5 [0x00] END_REQSTACK()
```

### Event 65535.40

#### Metadata

| Field        | Value    |
|--------------|----------|
| Entrypoint   | 0x08C6   |
| Data Size    | 20 bytes |
| Instructions | 6        |

```
      00 01 02 03 04 05 06 07  08 09 0A 0B 0C 0D 0E 0F
      -- -- -- -- -- -- -- --  -- -- -- -- -- -- -- --
08C0:                   32 5F  80 1F 00 5C 80 5D 80 5E        2_...\.].^
08D0: 80 1F 01 6F 1E 45 13 06  01 00                    ...o.E....      
```

#### Opcodes

```
  0: 0x08C6 [0x32] ExtData[1]->MainSpeed = 15* * 0.1
  1: 0x08C9 [0x1F] MOVE_ENTITY: EventEntity moves to X=-81.893*, Z=42.042*, Y=-60.573*
  2: 0x08D1 [0x1F] MOVE_ENTITY: Update entity position (mode=1)
  3: 0x08D3 [0x6F] WAIT_FRAME_DELAY: Yield until WaitTime reaches zero
  4: 0x08D4 [0x1E] EventEntity looks at Syu Befrathi (ID: 17175365/0x01061345) and starts talking
  5: 0x08D9 [0x00] END_REQSTACK()
```

### Event 65535.41

#### Metadata

| Field        | Value    |
|--------------|----------|
| Entrypoint   | 0x08DA   |
| Data Size    | 24 bytes |
| Instructions | 6        |

```
      00 01 02 03 04 05 06 07  08 09 0A 0B 0C 0D 0E 0F
      -- -- -- -- -- -- -- --  -- -- -- -- -- -- -- --
08D0:                                32 33 80 1F 00 60            23...`
08E0: 80 61 80 62 80 1F 01 1F  00 63 80 64 80 65 80 1F  .a.b.....c.d.e..
08F0: 01 00                                             ..              
```

#### Opcodes

```
  0: 0x08DA [0x32] ExtData[1]->MainSpeed = 40* * 0.1
  1: 0x08DD [0x1F] MOVE_ENTITY: EventEntity moves to X=-90.791*, Z=49.437*, Y=-62.133*
  2: 0x08E5 [0x1F] MOVE_ENTITY: Update entity position (mode=1)
  3: 0x08E7 [0x1F] MOVE_ENTITY: EventEntity moves to X=-95.974*, Z=53.935*, Y=-63.093*
  4: 0x08EF [0x1F] MOVE_ENTITY: Update entity position (mode=1)
  5: 0x08F1 [0x00] END_REQSTACK()
```

### Event 65535.42

#### Metadata

| Field        | Value    |
|--------------|----------|
| Entrypoint   | 0x08F2   |
| Data Size    | 27 bytes |
| Instructions | 7        |

```
      00 01 02 03 04 05 06 07  08 09 0A 0B 0C 0D 0E 0F
      -- -- -- -- -- -- -- --  -- -- -- -- -- -- -- --
08F0:       32 33 80 5A 00 66  80 67 80 68 80 5A 01 32    23.Z.f.g.h.Z.2
0900: 69 80 5A 00 6A 80 6B 80  6C 80 5A 01 00           i.Z.j.k.l.Z..   
```

#### Opcodes

```
  0: 0x08F2 [0x32] ExtData[1]->MainSpeed = 40* * 0.1
  1: 0x08F5 [0x5A] UPDATE_EVENT_POSITION: Set EventEntity MovePosition to X=-99.175*, Z=93.528*, Y=-58.525*
  2: 0x08FD [0x5A] UPDATE_EVENT_POSITION: Move EventEntity incrementally towards MovePosition
  3: 0x08FF [0x32] ExtData[1]->MainSpeed = 16* * 0.1
  4: 0x0902 [0x5A] UPDATE_EVENT_POSITION: Set EventEntity MovePosition to X=-99.042*, Z=95.761*, Y=-58.359*
  5: 0x090A [0x5A] UPDATE_EVENT_POSITION: Move EventEntity incrementally towards MovePosition
  6: 0x090C [0x00] END_REQSTACK()
```

### Event 65535.43

#### Metadata

| Field        | Value    |
|--------------|----------|
| Entrypoint   | 0x090D   |
| Data Size    | 15 bytes |
| Instructions | 5        |

```
      00 01 02 03 04 05 06 07  08 09 0A 0B 0C 0D 0E 0F
      -- -- -- -- -- -- -- --  -- -- -- -- -- -- -- --
0900:                                         32 46 80               2F.
0910: 1F 00 6D 80 6E 80 6F 80  1F 01 6F 00              ..m.n.o...o.    
```

#### Opcodes

```
  0: 0x090D [0x32] ExtData[1]->MainSpeed = 36* * 0.1
  1: 0x0910 [0x1F] MOVE_ENTITY: EventEntity moves to X=-99.651*, Z=88.186*, Y=-59.106*
  2: 0x0918 [0x1F] MOVE_ENTITY: Update entity position (mode=1)
  3: 0x091A [0x6F] WAIT_FRAME_DELAY: Yield until WaitTime reaches zero
  4: 0x091B [0x00] END_REQSTACK()
```

### Event 65535.44

#### Metadata

| Field        | Value    |
|--------------|----------|
| Entrypoint   | 0x091C   |
| Data Size    | 15 bytes |
| Instructions | 5        |

```
      00 01 02 03 04 05 06 07  08 09 0A 0B 0C 0D 0E 0F
      -- -- -- -- -- -- -- --  -- -- -- -- -- -- -- --
0910:                                      32 46 80 1F              2F..
0920: 00 70 80 71 80 72 80 1F  01 6F 00                 .p.q.r...o.     
```

#### Opcodes

```
  0: 0x091C [0x32] ExtData[1]->MainSpeed = 36* * 0.1
  1: 0x091F [0x1F] MOVE_ENTITY: EventEntity moves to X=-98.788*, Z=88.010*, Y=-59.112*
  2: 0x0927 [0x1F] MOVE_ENTITY: Update entity position (mode=1)
  3: 0x0929 [0x6F] WAIT_FRAME_DELAY: Yield until WaitTime reaches zero
  4: 0x092A [0x00] END_REQSTACK()
```
