# 17097356

## Common Data

| Field            | Value                            |
|------------------|----------------------------------|
| Zone             | Hazhalm Testing Grounds (ID: 78) |
| Block Size       | 288 bytes                        |
| Total Events     | 17                               |
| References Count | 10                               |

## List of Events

| Event ID                 | Entrypoint   |   Size |   Instructions |
|--------------------------|--------------|--------|----------------|
| [65535](#event-65535)    | 0x0000       |      1 |              1 |
| [6](#event-6)            | 0x0001       |      1 |              1 |
| [7](#event-7)            | 0x0002       |      1 |              1 |
| [65535.1](#event-655351) | 0x0003       |     10 |              2 |
| [65535.2](#event-655352) | 0x000D       |     10 |              2 |
| [65535.3](#event-655353) | 0x0017       |     10 |              2 |
| [65535.4](#event-655354) | 0x0021       |     38 |              4 |
| [65535.5](#event-655355) | 0x0047       |     10 |              2 |
| [65535.6](#event-655356) | 0x0051       |     38 |              8 |
| [65535.7](#event-655357) | 0x0077       |     38 |              4 |
| [9](#event-9)            | 0x009D       |      1 |              1 |
| [10](#event-10)          | 0x009E       |      1 |              1 |
| [11](#event-11)          | 0x009F       |      1 |              1 |
| [12](#event-12)          | 0x00A0       |      1 |              1 |
| [13](#event-13)          | 0x00A1       |      1 |              1 |
| [14](#event-14)          | 0x00A2       |      1 |              1 |
| [16](#event-16)          | 0x00A3       |      1 |              1 |

## DAT References (imed_data)

|   Index | Hex Value   |   Dec Value |
|---------|-------------|-------------|
|       0 | 0x0080      |         128 |
|       1 | 0x000F      |          15 |
|       2 | 0x0000      |           0 |
|       3 | 0x0001      |           1 |
|       4 | 0x007F      |         127 |
|       5 | 0x003C      |          60 |
|       6 | 0x001E      |          30 |
|       7 | 0x00CA      |         202 |
|       8 | 0x0078      |         120 |
|       9 | 0x005F      |          95 |

## Events

### Event 65535

#### Metadata

| Field        | Value   |
|--------------|---------|
| Entrypoint   | 0x0000  |
| Data Size    | 1 bytes |
| Instructions | 1       |

```
      00 01 02 03 04 05 06 07  08 09 0A 0B 0C 0D 0E 0F
      -- -- -- -- -- -- -- --  -- -- -- -- -- -- -- --
0000: 00                                                .               
```

#### Opcodes

```
  0: 0x0000 [0x00] END_REQSTACK()
```

### Event 6

#### Metadata

| Field        | Value   |
|--------------|---------|
| Entrypoint   | 0x0001  |
| Data Size    | 1 bytes |
| Instructions | 1       |

```
      00 01 02 03 04 05 06 07  08 09 0A 0B 0C 0D 0E 0F
      -- -- -- -- -- -- -- --  -- -- -- -- -- -- -- --
0000:    00                                              .              
```

#### Opcodes

```
  0: 0x0001 [0x00] END_REQSTACK()
```

### Event 7

#### Metadata

| Field        | Value   |
|--------------|---------|
| Entrypoint   | 0x0002  |
| Data Size    | 1 bytes |
| Instructions | 1       |

```
      00 01 02 03 04 05 06 07  08 09 0A 0B 0C 0D 0E 0F
      -- -- -- -- -- -- -- --  -- -- -- -- -- -- -- --
0000:       00                                            .             
```

#### Opcodes

```
  0: 0x0002 [0x00] END_REQSTACK()
```

### Event 65535.1

#### Metadata

| Field        | Value    |
|--------------|----------|
| Entrypoint   | 0x0003   |
| Data Size    | 10 bytes |
| Instructions | 2        |

```
      00 01 02 03 04 05 06 07  08 09 0A 0B 0C 0D 0E 0F
      -- -- -- -- -- -- -- --  -- -- -- -- -- -- -- --
0000:          6C 94 E2 04 01  00 80 01 80 00              l.........   
```

#### Opcodes

```
  0: 0x0003 [0x6C] FADE_ENTITY_COLOR(entity_id=Odin (ID: 17097364/0x0104E294), end_alpha=128*, fade_time=15*)
  1: 0x000C [0x00] END_REQSTACK()
```

### Event 65535.2

#### Metadata

| Field        | Value    |
|--------------|----------|
| Entrypoint   | 0x000D   |
| Data Size    | 10 bytes |
| Instructions | 2        |

```
      00 01 02 03 04 05 06 07  08 09 0A 0B 0C 0D 0E 0F
      -- -- -- -- -- -- -- --  -- -- -- -- -- -- -- --
0000:                                         6C 94 E2               l..
0010: 04 01 02 80 01 80 00                              .......         
```

#### Opcodes

```
  0: 0x000D [0x6C] FADE_ENTITY_COLOR(entity_id=Odin (ID: 17097364/0x0104E294), end_alpha=0*, fade_time=15*)
  1: 0x0016 [0x00] END_REQSTACK()
```

### Event 65535.3

#### Metadata

| Field        | Value    |
|--------------|----------|
| Entrypoint   | 0x0017   |
| Data Size    | 10 bytes |
| Instructions | 2        |

```
      00 01 02 03 04 05 06 07  08 09 0A 0B 0C 0D 0E 0F
      -- -- -- -- -- -- -- --  -- -- -- -- -- -- -- --
0010:                      6C  94 E2 04 01 02 80 03 80         l........
0020: 00                                                .               
```

#### Opcodes

```
  0: 0x0017 [0x6C] FADE_ENTITY_COLOR(entity_id=Odin (ID: 17097364/0x0104E294), end_alpha=0*, fade_time=1*)
  1: 0x0020 [0x00] END_REQSTACK()
```

### Event 65535.4

#### Metadata

| Field        | Value    |
|--------------|----------|
| Entrypoint   | 0x0021   |
| Data Size    | 38 bytes |
| Instructions | 4        |

```
      00 01 02 03 04 05 06 07  08 09 0A 0B 0C 0D 0E 0F
      -- -- -- -- -- -- -- --  -- -- -- -- -- -- -- --
0020:    9F 04 80 F8 FF FF 7F  F8 FF FF 7F 73 74 72 30   ...........str0
0030: 02 80 1C 02 10 9F 04 80  F8 FF FF 7F F8 FF FF 7F  ................
0040: 6B 69 6C 6C 02 80 00                              kill...         
```

#### Opcodes

```
  0: 0x0021 [0x9F] LOAD_SCHEDULED_TASK_ALT: Load scheduler "str0" with entities [EventEntity, EventEntity], work=[127*, 0*]
  1: 0x0032 [0x1C] WAIT(Work_Zone[2] ticks)
  2: 0x0035 [0x9F] LOAD_SCHEDULED_TASK_ALT: Load scheduler "kill" with entities [EventEntity, EventEntity], work=[127*, 0*]
  3: 0x0046 [0x00] END_REQSTACK()
```

### Event 65535.5

#### Metadata

| Field        | Value    |
|--------------|----------|
| Entrypoint   | 0x0047   |
| Data Size    | 10 bytes |
| Instructions | 2        |

```
      00 01 02 03 04 05 06 07  08 09 0A 0B 0C 0D 0E 0F
      -- -- -- -- -- -- -- --  -- -- -- -- -- -- -- --
0040:                      6C  96 E2 04 01 00 80 05 80         l........
0050: 00                                                .               
```

#### Opcodes

```
  0: 0x0047 [0x6C] FADE_ENTITY_COLOR(entity_id=Razfahd (ID: 17097366/0x0104E296), end_alpha=128*, fade_time=60*)
  1: 0x0050 [0x00] END_REQSTACK()
```

### Event 65535.6

#### Metadata

| Field        | Value    |
|--------------|----------|
| Entrypoint   | 0x0051   |
| Data Size    | 38 bytes |
| Instructions | 8        |

```
      00 01 02 03 04 05 06 07  08 09 0A 0B 0C 0D 0E 0F
      -- -- -- -- -- -- -- --  -- -- -- -- -- -- -- --
0050:    27 10 9B E2 04 01 09  1C 06 80 27 10 9C E2 04   '.........'....
0060: 01 09 1C 06 80 27 10 9D  E2 04 01 09 1C 06 80 27  .....'.........'
0070: 10 9E E2 04 01 09 00                              .......         
```

#### Opcodes

```
  0: 0x0051 [0x27] REQ_SET(priority=0x10, entity_id=Wharudu (ID: 17097371/0x0104E29B), tag_num=0x09)
  1: 0x0058 [0x1C] WAIT(30* ticks)
  2: 0x005B [0x27] REQ_SET(priority=0x10, entity_id=Kalgahn (ID: 17097372/0x0104E29C), tag_num=0x09)
  3: 0x0062 [0x1C] WAIT(30* ticks)
  4: 0x0065 [0x27] REQ_SET(priority=0x10, entity_id=3 (ID: 17097373/0x0104E29D), tag_num=0x09)
  5: 0x006C [0x1C] WAIT(30* ticks)
  6: 0x006F [0x27] REQ_SET(priority=0x10, entity_id=4 (ID: 17097374/0x0104E29E), tag_num=0x09)
  7: 0x0076 [0x00] END_REQSTACK()
```

### Event 65535.7

#### Metadata

| Field        | Value    |
|--------------|----------|
| Entrypoint   | 0x0077   |
| Data Size    | 38 bytes |
| Instructions | 4        |

```
      00 01 02 03 04 05 06 07  08 09 0A 0B 0C 0D 0E 0F
      -- -- -- -- -- -- -- --  -- -- -- -- -- -- -- --
0070:                      9F  07 80 92 E2 04 01 92 E2         .........
0080: 04 01 6D 61 69 6E 02 80  1C 08 80 9F 09 80 92 E2  ..main..........
0090: 04 01 92 E2 04 01 6B 69  6C 6C 02 80 00           ......kill...   
```

#### Opcodes

```
  0: 0x0077 [0x9F] LOAD_SCHEDULED_TASK_ALT: Load scheduler "main" with entities [Luzaf (ID: 17097362/0x0104E292), Luzaf (ID: 17097362/0x0104E292)], work=[202*, 0*]
  1: 0x0088 [0x1C] WAIT(120* ticks)
  2: 0x008B [0x9F] LOAD_SCHEDULED_TASK_ALT: Load scheduler "kill" with entities [Luzaf (ID: 17097362/0x0104E292), Luzaf (ID: 17097362/0x0104E292)], work=[95*, 0*]
  3: 0x009C [0x00] END_REQSTACK()
```

### Event 9

#### Metadata

| Field        | Value   |
|--------------|---------|
| Entrypoint   | 0x009D  |
| Data Size    | 1 bytes |
| Instructions | 1       |

```
      00 01 02 03 04 05 06 07  08 09 0A 0B 0C 0D 0E 0F
      -- -- -- -- -- -- -- --  -- -- -- -- -- -- -- --
0090:                                         00                     .  
```

#### Opcodes

```
  0: 0x009D [0x00] END_REQSTACK()
```

### Event 10

#### Metadata

| Field        | Value   |
|--------------|---------|
| Entrypoint   | 0x009E  |
| Data Size    | 1 bytes |
| Instructions | 1       |

```
      00 01 02 03 04 05 06 07  08 09 0A 0B 0C 0D 0E 0F
      -- -- -- -- -- -- -- --  -- -- -- -- -- -- -- --
0090:                                            00                   . 
```

#### Opcodes

```
  0: 0x009E [0x00] END_REQSTACK()
```

### Event 11

#### Metadata

| Field        | Value   |
|--------------|---------|
| Entrypoint   | 0x009F  |
| Data Size    | 1 bytes |
| Instructions | 1       |

```
      00 01 02 03 04 05 06 07  08 09 0A 0B 0C 0D 0E 0F
      -- -- -- -- -- -- -- --  -- -- -- -- -- -- -- --
0090:                                               00                 .
```

#### Opcodes

```
  0: 0x009F [0x00] END_REQSTACK()
```

### Event 12

#### Metadata

| Field        | Value   |
|--------------|---------|
| Entrypoint   | 0x00A0  |
| Data Size    | 1 bytes |
| Instructions | 1       |

```
      00 01 02 03 04 05 06 07  08 09 0A 0B 0C 0D 0E 0F
      -- -- -- -- -- -- -- --  -- -- -- -- -- -- -- --
00A0: 00                                                .               
```

#### Opcodes

```
  0: 0x00A0 [0x00] END_REQSTACK()
```

### Event 13

#### Metadata

| Field        | Value   |
|--------------|---------|
| Entrypoint   | 0x00A1  |
| Data Size    | 1 bytes |
| Instructions | 1       |

```
      00 01 02 03 04 05 06 07  08 09 0A 0B 0C 0D 0E 0F
      -- -- -- -- -- -- -- --  -- -- -- -- -- -- -- --
00A0:    00                                              .              
```

#### Opcodes

```
  0: 0x00A1 [0x00] END_REQSTACK()
```

### Event 14

#### Metadata

| Field        | Value   |
|--------------|---------|
| Entrypoint   | 0x00A2  |
| Data Size    | 1 bytes |
| Instructions | 1       |

```
      00 01 02 03 04 05 06 07  08 09 0A 0B 0C 0D 0E 0F
      -- -- -- -- -- -- -- --  -- -- -- -- -- -- -- --
00A0:       00                                            .             
```

#### Opcodes

```
  0: 0x00A2 [0x00] END_REQSTACK()
```

### Event 16

#### Metadata

| Field        | Value   |
|--------------|---------|
| Entrypoint   | 0x00A3  |
| Data Size    | 1 bytes |
| Instructions | 1       |

```
      00 01 02 03 04 05 06 07  08 09 0A 0B 0C 0D 0E 0F
      -- -- -- -- -- -- -- --  -- -- -- -- -- -- -- --
00A0:          00                                          .            
```

#### Opcodes

```
  0: 0x00A3 [0x00] END_REQSTACK()
```
