# 17097358

## Common Data

| Field            | Value                            |
|------------------|----------------------------------|
| Zone             | Hazhalm Testing Grounds (ID: 78) |
| Block Size       | 18088 bytes                      |
| Total Events     | 3                                |
| References Count | 413                              |

## List of Events

| Event ID              | Entrypoint   |   Size |   Instructions |
|-----------------------|--------------|--------|----------------|
| [65535](#event-65535) | 0x0000       |      1 |              1 |
| [6](#event-6)         | 0x0001       |   5454 |            592 |
| [7](#event-7)         | 0x154F       |  10953 |           1188 |

## DAT References (imed_data)

|   Index | Hex Value   |   Dec Value |
|---------|-------------|-------------|
|       0 | 0x0013      |          19 |
|       1 | 0xFFFBB23D  |  4294685245 |
|       2 | 0xFFFF53CB  |  4294923211 |
|       3 | 0x84CE      |       33998 |
|       4 | 0x0DCF      |        3535 |
|       5 | 0xFFFBB273  |  4294685299 |
|       6 | 0xFFFF5740  |  4294924096 |
|       7 | 0x84CF      |       33999 |
|       8 | 0x0DF6      |        3574 |
|       9 | 0xFFFBB4B4  |  4294685876 |
|      10 | 0xFFFF52AA  |  4294922922 |
|      11 | 0x0D66      |        3430 |
|      12 | 0xFFFBB1F7  |  4294685175 |
|      13 | 0xFFFF5B61  |  4294925153 |
|      14 | 0x84CB      |       33995 |
|      15 | 0x0E00      |        3584 |
|      16 | 0xFFFBAA78  |  4294683256 |
|      17 | 0xFFFF5BE7  |  4294925287 |
|      18 | 0x0E82      |        3714 |
|      19 | 0xFFFBC9F8  |  4294691320 |
|      20 | 0xFFFF73BB  |  4294931387 |
|      21 | 0x8496      |       33942 |
|      22 | 0xFFFBB9EE  |  4294687214 |
|      23 | 0xFFFF62BD  |  4294927037 |
|      24 | 0x0D9A      |        3482 |
|      25 | 0x0047      |          71 |
|      26 | 0x0000      |           0 |
|      27 | 0x0077      |         119 |
|      28 | 0x000F      |          15 |
|      29 | 0x013E      |         318 |
|      30 | 0x005A      |          90 |
|      31 | 0x0420      |        1056 |
|      32 | 0x003C      |          60 |
|      33 | 0x00B4      |         180 |
|      34 | 0x1DEB      |        7659 |
|      35 | 0x1DEC      |        7660 |
|      36 | 0x1DED      |        7661 |
|      37 | 0x1DEE      |        7662 |
|      38 | 0x001E      |          30 |
|      39 | 0x1DEF      |        7663 |
|      40 | 0x038F      |         911 |
|      41 | 0x1DF0      |        7664 |
|      42 | 0x03F5      |        1013 |
|      43 | 0x002D      |          45 |
|      44 | 0x0375      |         885 |
|      45 | 0x0069      |         105 |
|      46 | 0x1DF1      |        7665 |
|      47 | 0x1DF2      |        7666 |
|      48 | 0x039E      |         926 |
|      49 | 0x035A      |         858 |
|      50 | 0x044B      |        1099 |
|      51 | 0x00D2      |         210 |
|      52 | 0x0087      |         135 |
|      53 | 0x1DF3      |        7667 |
|      54 | 0x1DF4      |        7668 |
|      55 | 0x1DF5      |        7669 |
|      56 | 0x0040      |          64 |
|      57 | 0x0078      |         120 |
|      58 | 0x0435      |        1077 |
|      59 | 0x1DF6      |        7670 |
|      60 | 0x1DF7      |        7671 |
|      61 | 0x1DF8      |        7672 |
|      62 | 0x1DF9      |        7673 |
|      63 | 0x03A5      |         933 |
|      64 | 0x0014      |          20 |
|      65 | 0x1DFA      |        7674 |
|      66 | 0x1DFB      |        7675 |
|      67 | 0x1DFC      |        7676 |
|      68 | 0x1DFD      |        7677 |
|      69 | 0x1DFE      |        7678 |
|      70 | 0x0053      |          83 |
|      71 | 0x0054      |          84 |
|      72 | 0x0055      |          85 |
|      73 | 0x004A      |          74 |
|      74 | 0x0049      |          73 |
|      75 | 0x041D      |        1053 |
|      76 | 0x03B6      |         950 |
|      77 | 0x00BA      |         186 |
|      78 | 0x1DFF      |        7679 |
|      79 | 0x033E      |         830 |
|      80 | 0x0028      |          40 |
|      81 | 0xFFFBAB00  |  4294683392 |
|      82 | 0xFFFF5ACE  |  4294925006 |
|      83 | 0x84C4      |       33988 |
|      84 | 0x0467      |        1127 |
|      85 | 0x041B      |        1051 |
|      86 | 0x03D8      |         984 |
|      87 | 0x00F0      |         240 |
|      88 | 0x1E01      |        7681 |
|      89 | 0x0451      |        1105 |
|      90 | 0x01CC      |         460 |
|      91 | 0x03F1      |        1009 |
|      92 | 0x00C8      |         200 |
|      93 | 0x1E02      |        7682 |
|      94 | 0x010E      |         270 |
|      95 | 0x1E04      |        7684 |
|      96 | 0x1E05      |        7685 |
|      97 | 0x1E06      |        7686 |
|      98 | 0x0048      |          72 |
|      99 | 0x1E07      |        7687 |
|     100 | 0x1E08      |        7688 |
|     101 | 0x0468      |        1128 |
|     102 | 0x00DE      |         222 |
|     103 | 0x0046      |          70 |
|     104 | 0x040C      |        1036 |
|     105 | 0x0384      |         900 |
|     106 | 0xFFFBAEEB  |  4294684395 |
|     107 | 0xFFFF5108  |  4294922504 |
|     108 | 0x84B7      |       33975 |
|     109 | 0xFFFBB4A0  |  4294685856 |
|     110 | 0xFFFF5A4E  |  4294924878 |
|     111 | 0xFFFBAE5E  |  4294684254 |
|     112 | 0xFFFF4882  |  4294920322 |
|     113 | 0x84B3      |       33971 |
|     114 | 0xFFFBAAE5  |  4294683365 |
|     115 | 0xFFFF5C39  |  4294925369 |
|     116 | 0x0600      |        1536 |
|     117 | 0xFFFBA281  |  4294681217 |
|     118 | 0xFFFF58D8  |  4294924504 |
|     119 | 0x84D0      |       34000 |
|     120 | 0x05F7      |        1527 |
|     121 | 0x044C      |        1100 |
|     122 | 0x1E09      |        7689 |
|     123 | 0x043F      |        1087 |
|     124 | 0x1E0A      |        7690 |
|     125 | 0x006E      |         110 |
|     126 | 0x1E0B      |        7691 |
|     127 | 0x1E0C      |        7692 |
|     128 | 0x1E0D      |        7693 |
|     129 | 0x1E0E      |        7694 |
|     130 | 0x009B      |         155 |
|     131 | 0x1E0F      |        7695 |
|     132 | 0x1E10      |        7696 |
|     133 | 0x1E11      |        7697 |
|     134 | 0x1E12      |        7698 |
|     135 | 0x1E13      |        7699 |
|     136 | 0x1E14      |        7700 |
|     137 | 0x1E15      |        7701 |
|     138 | 0x1E16      |        7702 |
|     139 | 0x1E17      |        7703 |
|     140 | 0x1E18      |        7704 |
|     141 | 0x1E19      |        7705 |
|     142 | 0x1E1A      |        7706 |
|     143 | 0x1E1B      |        7707 |
|     144 | 0x1E1C      |        7708 |
|     145 | 0x1E1D      |        7709 |
|     146 | 0x1E1E      |        7710 |
|     147 | 0x012C      |         300 |
|     148 | 0x1E1F      |        7711 |
|     149 | 0x1E20      |        7712 |
|     150 | 0x1E21      |        7713 |
|     151 | 0x1E22      |        7714 |
|     152 | 0x0079      |         121 |
|     153 | 0x1E23      |        7715 |
|     154 | 0x044D      |        1101 |
|     155 | 0x1E24      |        7716 |
|     156 | 0x1E25      |        7717 |
|     157 | 0x1E26      |        7718 |
|     158 | 0x1E27      |        7719 |
|     159 | 0x1E28      |        7720 |
|     160 | 0x1E29      |        7721 |
|     161 | 0x1E2A      |        7722 |
|     162 | 0x1E2B      |        7723 |
|     163 | 0x043E      |        1086 |
|     164 | 0x1E2C      |        7724 |
|     165 | 0x1E2D      |        7725 |
|     166 | 0x1E2E      |        7726 |
|     167 | 0x1E2F      |        7727 |
|     168 | 0x1E30      |        7728 |
|     169 | 0x0405      |        1029 |
|     170 | 0x000A      |          10 |
|     171 | 0x1E31      |        7729 |
|     172 | 0x008F      |         143 |
|     173 | 0xFFFBE18C  |  4294697356 |
|     174 | 0xFFFF92CC  |  4294939340 |
|     175 | 0x8759      |       34649 |
|     176 | 0x05F8      |        1528 |
|     177 | 0x004B      |          75 |
|     178 | 0x0041      |          65 |
|     179 | 0x0044      |          68 |
|     180 | 0x1E32      |        7730 |
|     181 | 0x0465      |        1125 |
|     182 | 0x1E33      |        7731 |
|     183 | 0x1E34      |        7732 |
|     184 | 0x1E35      |        7733 |
|     185 | 0x044E      |        1102 |
|     186 | 0x1E36      |        7734 |
|     187 | 0x1E37      |        7735 |
|     188 | 0x1E38      |        7736 |
|     189 | 0x007F      |         127 |
|     190 | 0x1E39      |        7737 |
|     191 | 0x1E3A      |        7738 |
|     192 | 0x036D      |         877 |
|     193 | 0x1E3B      |        7739 |
|     194 | 0x1E3C      |        7740 |
|     195 | 0x0404      |        1028 |
|     196 | 0x1E3D      |        7741 |
|     197 | 0x1E3E      |        7742 |
|     198 | 0x1E3F      |        7743 |
|     199 | 0x1E40      |        7744 |
|     200 | 0x1E41      |        7745 |
|     201 | 0x1E42      |        7746 |
|     202 | 0x1E43      |        7747 |
|     203 | 0x0406      |        1030 |
|     204 | 0x1E44      |        7748 |
|     205 | 0x0407      |        1031 |
|     206 | 0x01A4      |         420 |
|     207 | 0x1E45      |        7749 |
|     208 | 0x0422      |        1058 |
|     209 | 0x1E46      |        7750 |
|     210 | 0x00B8      |         184 |
|     211 | 0x1E47      |        7751 |
|     212 | 0x044F      |        1103 |
|     213 | 0x0469      |        1129 |
|     214 | 0x1E48      |        7752 |
|     215 | 0x1E49      |        7753 |
|     216 | 0x1E4A      |        7754 |
|     217 | 0x1E4B      |        7755 |
|     218 | 0x0050      |          80 |
|     219 | 0x0056      |          86 |
|     220 | 0x004C      |          76 |
|     221 | 0x0057      |          87 |
|     222 | 0x0058      |          88 |
|     223 | 0x004D      |          77 |
|     224 | 0x040D      |        1037 |
|     225 | 0x1E4C      |        7756 |
|     226 | 0x1E4D      |        7757 |
|     227 | 0x1E4E      |        7758 |
|     228 | 0x1E4F      |        7759 |
|     229 | 0x1E51      |        7761 |
|     230 | 0x014A      |         330 |
|     231 | 0x1E52      |        7762 |
|     232 | 0x1E53      |        7763 |
|     233 | 0x1E54      |        7764 |
|     234 | 0x1E55      |        7765 |
|     235 | 0x1E56      |        7766 |
|     236 | 0x1E57      |        7767 |
|     237 | 0x1E58      |        7768 |
|     238 | 0x001D      |          29 |
|     239 | 0x1E59      |        7769 |
|     240 | 0x0440      |        1088 |
|     241 | 0x1E5A      |        7770 |
|     242 | 0x1E5B      |        7771 |
|     243 | 0x0258      |         600 |
|     244 | 0x0186      |         390 |
|     245 | 0x1E5C      |        7772 |
|     246 | 0x1E5D      |        7773 |
|     247 | 0xFFFC07E7  |  4294707175 |
|     248 | 0xFFFFBA1B  |  4294949403 |
|     249 | 0x881F      |       34847 |
|     250 | 0x0801      |        2049 |
|     251 | 0xFFFC0131  |  4294705457 |
|     252 | 0xFFFFAA6B  |  4294945387 |
|     253 | 0x8763      |       34659 |
|     254 | 0xFFFC010A  |  4294705418 |
|     255 | 0xFFFFAFEB  |  4294946795 |
|     256 | 0x87B3      |       34739 |
|     257 | 0xFFFC0F24  |  4294709028 |
|     258 | 0xFFFFB3C0  |  4294947776 |
|     259 | 0x87DC      |       34780 |
|     260 | 0xFFFBA12B  |  4294680875 |
|     261 | 0xFFFF61AF  |  4294926767 |
|     262 | 0x0DD1      |        3537 |
|     263 | 0xFFFBAA9B  |  4294683291 |
|     264 | 0xFFFF6B11  |  4294929169 |
|     265 | 0xFFFBB248  |  4294685256 |
|     266 | 0xFFFF441F  |  4294919199 |
|     267 | 0x84D2      |       34002 |
|     268 | 0xFFFBC191  |  4294689169 |
|     269 | 0xFFFF5378  |  4294923128 |
|     270 | 0x0BB0      |        2992 |
|     271 | 0xFFFBABB0  |  4294683568 |
|     272 | 0xFFFF525F  |  4294922847 |
|     273 | 0x8491      |       33937 |
|     274 | 0x05C4      |        1476 |
|     275 | 0xFFFBB31B  |  4294685467 |
|     276 | 0xFFFF5081  |  4294922369 |
|     277 | 0x0660      |        1632 |
|     278 | 0xFFFBBA65  |  4294687333 |
|     279 | 0xFFFF5890  |  4294924432 |
|     280 | 0x0800      |        2048 |
|     281 | 0x0463      |        1123 |
|     282 | 0x0452      |        1106 |
|     283 | 0x003B      |          59 |
|     284 | 0x0052      |          82 |
|     285 | 0x00A0      |         160 |
|     286 | 0x013F      |         319 |
|     287 | 0x1E5E      |        7774 |
|     288 | 0x1E5F      |        7775 |
|     289 | 0x1E60      |        7776 |
|     290 | 0x1E61      |        7777 |
|     291 | 0x1E62      |        7778 |
|     292 | 0x1E63      |        7779 |
|     293 | 0x1E64      |        7780 |
|     294 | 0x1E65      |        7781 |
|     295 | 0x0018      |          24 |
|     296 | 0x0001      |           1 |
|     297 | 0x0002      |           2 |
|     298 | 0x0003      |           3 |
|     299 | 0x0004      |           4 |
|     300 | 0x0005      |           5 |
|     301 | 0x0006      |           6 |
|     302 | 0x0007      |           7 |
|     303 | 0x0008      |           8 |
|     304 | 0x1E66      |        7782 |
|     305 | 0x1E67      |        7783 |
|     306 | 0x0154      |         340 |
|     307 | 0x1E68      |        7784 |
|     308 | 0x1E69      |        7785 |
|     309 | 0x1E6A      |        7786 |
|     310 | 0xFFFBB02B  |  4294684715 |
|     311 | 0xFFFF526C  |  4294922860 |
|     312 | 0x84BF      |       33983 |
|     313 | 0x1E6B      |        7787 |
|     314 | 0x1E6C      |        7788 |
|     315 | 0xFFFBAE75  |  4294684277 |
|     316 | 0xFFFF5EBA  |  4294926010 |
|     317 | 0x1E6D      |        7789 |
|     318 | 0x1E6E      |        7790 |
|     319 | 0x0434      |        1076 |
|     320 | 0x1E6F      |        7791 |
|     321 | 0x1E70      |        7792 |
|     322 | 0x1E71      |        7793 |
|     323 | 0x1E72      |        7794 |
|     324 | 0xFFFBB9D6  |  4294687190 |
|     325 | 0xFFFF53EC  |  4294923244 |
|     326 | 0x1E73      |        7795 |
|     327 | 0x1E74      |        7796 |
|     328 | 0x1E75      |        7797 |
|     329 | 0x1E76      |        7798 |
|     330 | 0x1E77      |        7799 |
|     331 | 0x1E78      |        7800 |
|     332 | 0x00B9      |         185 |
|     333 | 0x042E      |        1070 |
|     334 | 0x1E79      |        7801 |
|     335 | 0xFFFBEFDD  |  4294701021 |
|     336 | 0xFFFF9A11  |  4294941201 |
|     337 | 0x8661      |       34401 |
|     338 | 0xFFFBEDD7  |  4294700503 |
|     339 | 0xFFFF9210  |  4294939152 |
|     340 | 0x86F2      |       34546 |
|     341 | 0xFFFBE910  |  4294699280 |
|     342 | 0xFFFF9A19  |  4294941209 |
|     343 | 0x8715      |       34581 |
|     344 | 0x1E7A      |        7802 |
|     345 | 0x1E7B      |        7803 |
|     346 | 0x046B      |        1131 |
|     347 | 0x1E7C      |        7804 |
|     348 | 0x1E7D      |        7805 |
|     349 | 0x0345      |         837 |
|     350 | 0x1E7E      |        7806 |
|     351 | 0x1E7F      |        7807 |
|     352 | 0x1E80      |        7808 |
|     353 | 0x1E81      |        7809 |
|     354 | 0x1E82      |        7810 |
|     355 | 0x03A7      |         935 |
|     356 | 0x1E83      |        7811 |
|     357 | 0x0347      |         839 |
|     358 | 0x1E84      |        7812 |
|     359 | 0x0433      |        1075 |
|     360 | 0x1E85      |        7813 |
|     361 | 0x035F      |         863 |
|     362 | 0x1E86      |        7814 |
|     363 | 0x1E87      |        7815 |
|     364 | 0x035E      |         862 |
|     365 | 0x0082      |         130 |
|     366 | 0x1E88      |        7816 |
|     367 | 0x1E89      |        7817 |
|     368 | 0x1E8A      |        7818 |
|     369 | 0x1E8B      |        7819 |
|     370 | 0x1E8C      |        7820 |
|     371 | 0x1E8D      |        7821 |
|     372 | 0x0389      |         905 |
|     373 | 0x03F7      |        1015 |
|     374 | 0x038A      |         906 |
|     375 | 0x1E8E      |        7822 |
|     376 | 0x1E8F      |        7823 |
|     377 | 0x1E90      |        7824 |
|     378 | 0x1E91      |        7825 |
|     379 | 0x1E92      |        7826 |
|     380 | 0x1E93      |        7827 |
|     381 | 0x0419      |        1049 |
|     382 | 0x1E94      |        7828 |
|     383 | 0x1E95      |        7829 |
|     384 | 0x1E96      |        7830 |
|     385 | 0x1E97      |        7831 |
|     386 | 0x1E98      |        7832 |
|     387 | 0x1E99      |        7833 |
|     388 | 0x1E9A      |        7834 |
|     389 | 0x1E9B      |        7835 |
|     390 | 0x1E9C      |        7836 |
|     391 | 0x0080      |         128 |
|     392 | 0x1E9D      |        7837 |
|     393 | 0x1E9E      |        7838 |
|     394 | 0x1E9F      |        7839 |
|     395 | 0x1EA0      |        7840 |
|     396 | 0x037D      |         893 |
|     397 | 0x1EA1      |        7841 |
|     398 | 0x007C      |         124 |
|     399 | 0x1EA2      |        7842 |
|     400 | 0x1EA3      |        7843 |
|     401 | 0x0096      |         150 |
|     402 | 0x1EA4      |        7844 |
|     403 | 0x0012      |          18 |
|     404 | 0x038B      |         907 |
|     405 | 0x1EA5      |        7845 |
|     406 | 0x1EA6      |        7846 |
|     407 | 0x1EA7      |        7847 |
|     408 | 0x1EA8      |        7848 |
|     409 | 0x1EA9      |        7849 |
|     410 | 0x0105      |         261 |
|     411 | 0x00C9      |         201 |
|     412 | 0x00D7      |         215 |

## String References

- **7841**: Nashmeira hands <Player> a $3!

## Events

### Event 65535

#### Metadata

| Field        | Value   |
|--------------|---------|
| Entrypoint   | 0x0000  |
| Data Size    | 1 bytes |
| Instructions | 1       |

```
      00 01 02 03 04 05 06 07  08 09 0A 0B 0C 0D 0E 0F
      -- -- -- -- -- -- -- --  -- -- -- -- -- -- -- --
0000: 00                                                .               
```

#### Opcodes

```
  0: 0x0000 [0x00] END_REQSTACK()
```

### Event 6

#### Metadata

| Field        | Value      |
|--------------|------------|
| Entrypoint   | 0x0001     |
| Data Size    | 5454 bytes |
| Instructions | 592        |

```
      00 01 02 03 04 05 06 07  08 09 0A 0B 0C 0D 0E 0F
      -- -- -- -- -- -- -- --  -- -- -- -- -- -- -- --
0000:    42 1A EA 3D 46 01 38  00 80 4E 00 F0 FF FF 7F   B..=F.8..N.....
0010: 27 10 92 E2 04 01 04 27  10 91 E2 04 01 04 27 10  '......'......'.
0020: 8F E2 04 01 04 27 10 90  E2 04 01 04 27 10 93 E2  .....'......'...
0030: 04 01 04 27 10 94 E2 04  01 02 27 10 95 E2 04 01  ...'......'.....
0040: 02 4E 00 8B E2 04 01 4E  00 8C E2 04 01 92 01 F0  .N.....N........
0050: FF FF 7F 92 01 92 E2 04  01 92 01 91 E2 04 01 92  ................
0060: 01 8F E2 04 01 92 01 90  E2 04 01 92 01 93 E2 04  ................
0070: 01 92 01 94 E2 04 01 92  01 95 E2 04 01 94 01 F0  ................
0080: FF FF 7F 94 01 92 E2 04  01 94 01 91 E2 04 01 94  ................
0090: 01 8F E2 04 01 94 01 90  E2 04 01 94 01 93 E2 04  ................
00A0: 01 94 01 94 E2 04 01 94  01 95 E2 04 01 94 01 8B  ................
00B0: E2 04 01 94 01 8C E2 04  01 BA 91 E2 04 01 01 80  ................
00C0: 02 80 03 80 04 80 BA 90  E2 04 01 05 80 06 80 07  ................
00D0: 80 08 80 BA 8F E2 04 01  09 80 0A 80 07 80 0B 80  ................
00E0: BA 92 E2 04 01 0C 80 0D  80 0E 80 0F 80 BA 93 E2  ................
00F0: 04 01 10 80 11 80 07 80  12 80 29 10 94 E2 04 01  ..........).....
0100: 13 29 10 95 E2 04 01 13  BA 8B E2 04 01 13 80 14  .)..............
0110: 80 15 80 0F 80 BA 8C E2  04 01 16 80 17 80 07 80  ................
0120: 18 80 80 F0 FF FF 7F 80  92 E2 04 01 80 91 E2 04  ................
0130: 01 80 8F E2 04 01 80 90  E2 04 01 80 93 E2 04 01  ................
0140: 80 94 E2 04 01 80 95 E2  04 01 BB 19 80 8B E2 04  ................
0150: 01 8B E2 04 01 00 FE FE  FE 1A 80 5C 00 1B 80 5C  ...........\...\
0160: 01 1B 80 9A 1C 1C 80 45  1D 80 F0 FF FF 7F F0 FF  .......E........
0170: FF 7F 6D 65 30 30 1A 80  1A C9 3D 55 1D 80 F0 FF  ..me00....=U....
0180: FF 7F F0 FF FF 7F 6D 65  30 30 45 1D 80 F0 FF FF  ......me00E.....
0190: 7F F0 FF FF 7F 6D 65 30  31 1A 80 1C 1E 80 5B 1F  .....me01.....[.
01A0: 80 92 E2 04 01 92 E2 04  01 74 6C 63 73 55 1D 80  .........tlcsU..
01B0: F0 FF FF 7F F0 FF FF 7F  6D 65 30 31 45 1D 80 F0  ........me01E...
01C0: FF FF 7F F0 FF FF 7F 6D  65 30 32 1A 80 1C 20 80  .......me02... .
01D0: BB 19 80 8B E2 04 01 8B  E2 04 01 73 30 30 30 1A  ...........s000.
01E0: 80 1C 21 80 5B 1F 80 92  E2 04 01 92 E2 04 01 74  ..!.[..........t
01F0: 6C 63 31 55 1D 80 F0 FF  FF 7F F0 FF FF 7F 6D 65  lc1U..........me
0200: 30 32 45 1D 80 F0 FF FF  7F F0 FF FF 7F 68 7A 30  02E..........hz0
0210: 30 1A 80 2B 91 E2 04 01  22 80 23 52 1D 80 F0 FF  0..+....".#R....
0220: FF 7F F0 FF FF 7F 68 7A  30 30 45 1D 80 F0 FF FF  ......hz00E.....
0230: 7F F0 FF FF 7F 68 7A 30  31 1A 80 2B 92 E2 04 01  .....hz01..+....
0240: 23 80 23 2B 92 E2 04 01  24 80 23 52 1D 80 F0 FF  #.#+....$.#R....
0250: FF 7F F0 FF FF 7F 68 7A  30 31 45 1D 80 F0 FF FF  ......hz01E.....
0260: 7F F0 FF FF 7F 68 7A 30  32 1A 80 2B 92 E2 04 01  .....hz02..+....
0270: 25 80 23 27 10 90 E2 04  01 0A 1C 26 80 52 1D 80  %.#'.......&.R..
0280: F0 FF FF 7F F0 FF FF 7F  68 7A 30 32 45 1D 80 F0  ........hz02E...
0290: FF FF 7F F0 FF FF 7F 68  7A 30 33 1A 80 2B 90 E2  .......hz03..+..
02A0: 04 01 27 80 23 2A 10 90  E2 04 01 3A 90 E2 04 01  ..'.#*.....:....
02B0: 00 00 5B 28 80 92 E2 04  01 92 E2 04 01 6D 75 30  ..[(.........mu0
02C0: 30 1C 1C 80 52 1D 80 F0  FF FF 7F F0 FF FF 7F 68  0...R..........h
02D0: 7A 30 33 45 1D 80 F0 FF  FF 7F F0 FF FF 7F 68 7A  z03E..........hz
02E0: 30 34 1A 80 2B 92 E2 04  01 29 80 23 52 1D 80 F0  04..+....).#R...
02F0: FF FF 7F F0 FF FF 7F 68  7A 30 34 45 1D 80 F0 FF  .......hz04E....
0300: FF 7F F0 FF FF 7F 68 7A  30 35 1A 80 5B 2A 80 90  ......hz05..[*..
0310: E2 04 01 90 E2 04 01 62  69 6B 30 1C 2B 80 5B 2C  .......bik0.+.[,
0320: 80 92 E2 04 01 92 E2 04  01 75 64 65 30 03 02 10  .........ude0...
0330: 2D 80 27 10 8B E2 04 01  03 52 1D 80 F0 FF FF 7F  -.'......R......
0340: F0 FF FF 7F 68 7A 30 35  45 1D 80 F0 FF FF 7F F0  ....hz05E.......
0350: FF FF 7F 68 7A 30 36 1A  80 2B 92 E2 04 01 2E 80  ...hz06..+......
0360: 23 6B 69 64 6C 30 90 E2  04 01 2A 10 8B E2 04 01  #kidl0....*.....
0370: 5B 2C 80 92 E2 04 01 92  E2 04 01 75 64 65 32 4A  [,.........ude2J
0380: 90 E2 04 01 92 E2 04 01  2B 92 E2 04 01 2F 80 23  ........+..../.#
0390: 5B 30 80 91 E2 04 01 91  E2 04 01 74 75 6E 30 5B  [0.........tun0[
03A0: 31 80 90 E2 04 01 90 E2  04 01 74 75 6E 30 52 1D  1.........tun0R.
03B0: 80 F0 FF FF 7F F0 FF FF  7F 68 7A 30 36 45 1D 80  .........hz06E..
03C0: F0 FF FF 7F F0 FF FF 7F  68 7A 30 37 1A 80 1C 1E  ........hz07....
03D0: 80 1A EA 3D 1C 26 80 4B  90 E2 04 01 00 00 6B 69  ...=.&.K......ki
03E0: 64 6C 30 92 E2 04 01 6B  69 64 6C 30 90 E2 04 01  dl0....kidl0....
03F0: 6B 69 64 6C 30 91 E2 04  01 4B 91 E2 04 01 04 80  kidl0....K......
0400: 1C 26 80 52 1D 80 F0 FF  FF 7F F0 FF FF 7F 68 7A  .&.R..........hz
0410: 30 37 45 1D 80 F0 FF FF  7F F0 FF FF 7F 6D 65 30  07E..........me0
0420: 33 1A 80 1A C9 3D 5B 32  80 92 E2 04 01 92 E2 04  3....=[2........
0430: 01 63 6F 6D 30 03 02 10  33 80 27 10 8B E2 04 01  .com0...3.'.....
0440: 03 1C 34 80 52 1D 80 F0  FF FF 7F F0 FF FF 7F 6D  ..4.R..........m
0450: 65 30 33 45 1D 80 F0 FF  FF 7F F0 FF FF 7F 6D 65  e03E..........me
0460: 30 34 1A 80 2A 10 8B E2  04 01 52 1D 80 F0 FF FF  04..*.....R.....
0470: 7F F0 FF FF 7F 6D 65 30  34 45 1D 80 F0 FF FF 7F  .....me04E......
0480: F0 FF FF 7F 68 7A 30 38  1A 80 1C 26 80 2B 92 E2  ....hz08...&.+..
0490: 04 01 35 80 23 52 1D 80  F0 FF FF 7F F0 FF FF 7F  ..5.#R..........
04A0: 68 7A 30 38 45 1D 80 F0  FF FF 7F F0 FF FF 7F 68  hz08E..........h
04B0: 7A 30 39 1A 80 2B 92 E2  04 01 36 80 23 52 1D 80  z09..+....6.#R..
04C0: F0 FF FF 7F F0 FF FF 7F  68 7A 30 39 45 1D 80 F0  ........hz09E...
04D0: FF FF 7F F0 FF FF 7F 68  7A 31 30 1A 80 2B 92 E2  .......hz10..+..
04E0: 04 01 37 80 23 5D 38 80  39 80 5B 3A 80 91 E2 04  ..7.#]8.9.[:....
04F0: 01 91 E2 04 01 68 69 73  30 52 1D 80 F0 FF FF 7F  .....his0R......
0500: F0 FF FF 7F 68 7A 31 30  45 1D 80 F0 FF FF 7F F0  ....hz10E.......
0510: FF FF 7F 68 7A 31 31 1A  80 1C 26 80 3A 93 E2 04  ...hz11...&.:...
0520: 01 00 00 2B 91 E2 04 01  3B 80 23 4A 93 E2 04 01  ...+....;.#J....
0530: 91 E2 04 01 52 1D 80 F0  FF FF 7F F0 FF FF 7F 68  ....R..........h
0540: 7A 31 31 45 1D 80 F0 FF  FF 7F F0 FF FF 7F 6D 65  z11E..........me
0550: 30 35 1A 80 2B 93 E2 04  01 3C 80 23 52 1D 80 F0  05..+....<.#R...
0560: FF FF 7F F0 FF FF 7F 6D  65 30 35 45 1D 80 F0 FF  .......me05E....
0570: FF 7F F0 FF FF 7F 68 7A  31 32 1A 80 2B 93 E2 04  ......hz12..+...
0580: 01 3D 80 23 2B 93 E2 04  01 3E 80 23 52 1D 80 F0  .=.#+....>.#R...
0590: FF FF 7F F0 FF FF 7F 68  7A 31 32 45 1D 80 F0 FF  .......hz12E....
05A0: FF 7F F0 FF FF 7F 68 7A  31 33 1A 80 5B 3F 80 8F  ......hz13..[?..
05B0: E2 04 01 8F E2 04 01 75  64 62 73 1C 40 80 2B 8F  .......udbs.@.+.
05C0: E2 04 01 41 80 23 2B 93  E2 04 01 42 80 23 4A 93  ...A.#+....B.#J.
05D0: E2 04 01 92 E2 04 01 52  1D 80 F0 FF FF 7F F0 FF  .......R........
05E0: FF 7F 68 7A 31 33 45 1D  80 F0 FF FF 7F F0 FF FF  ..hz13E.........
05F0: 7F 68 7A 31 34 1A 80 2B  93 E2 04 01 43 80 23 52  .hz14..+....C.#R
0600: 1D 80 F0 FF FF 7F F0 FF  FF 7F 68 7A 31 34 45 1D  ..........hz14E.
0610: 80 F0 FF FF 7F F0 FF FF  7F 6D 65 30 36 1A 80 5D  .........me06..]
0620: 1A 80 39 80 2B 92 E2 04  01 44 80 23 52 1D 80 F0  ..9.+....D.#R...
0630: FF FF 7F F0 FF FF 7F 6D  65 30 36 45 1D 80 F0 FF  .......me06E....
0640: FF 7F F0 FF FF 7F 68 7A  31 35 1A 80 5B 3A 80 91  ......hz15..[:..
0650: E2 04 01 91 E2 04 01 68  69 73 31 1C 40 80 5B 32  .......his1.@.[2
0660: 80 92 E2 04 01 92 E2 04  01 63 6F 6D 31 2B 92 E2  .........com1+..
0670: 04 01 45 80 23 4B 93 E2  04 01 00 00 BB 46 80 90  ..E.#K.......F..
0680: E2 04 01 90 E2 04 01 00  FE FE FE 1A 80 BB 47 80  ..............G.
0690: 8F E2 04 01 8F E2 04 01  00 FE FE FE 1A 80 BB 48  ...............H
06A0: 80 91 E2 04 01 91 E2 04  01 00 FE FE FE 1A 80 BB  ................
06B0: 49 80 95 E2 04 01 95 E2  04 01 00 FE FE FE 1A 80  I...............
06C0: BB 4A 80 94 E2 04 01 94  E2 04 01 00 FE FE FE 1A  .J..............
06D0: 80 52 1D 80 F0 FF FF 7F  F0 FF FF 7F 68 7A 31 35  .R..........hz15
06E0: 45 1D 80 F0 FF FF 7F F0  FF FF 7F 68 7A 31 36 1A  E..........hz16.
06F0: 80 5B 4B 80 91 E2 04 01  91 E2 04 01 70 65 30 32  .[K.........pe02
0700: 5B 4C 80 90 E2 04 01 90  E2 04 01 67 73 30 33 5B  [L.........gs03[
0710: 4C 80 8F E2 04 01 8F E2  04 01 67 73 30 34 1C 39  L.........gs04.9
0720: 80 45 1D 80 F0 FF FF 7F  F0 FF FF 7F 31 64 6F 6B  .E..........1dok
0730: 1A 80 BB 19 80 8B E2 04  01 8B E2 04 01 73 30 30  .............s00
0740: 31 1A 80 5C 00 4D 80 5C  01 4D 80 9A 1C 20 80 55  1..\.M.\.M... .U
0750: 1D 80 F0 FF FF 7F F0 FF  FF 7F 68 7A 31 36 45 1D  ..........hz16E.
0760: 80 F0 FF FF 7F F0 FF FF  7F 68 7A 31 37 1A 80 55  .........hz17..U
0770: 1D 80 F0 FF FF 7F F0 FF  FF 7F 68 7A 31 37 45 1D  ..........hz17E.
0780: 80 F0 FF FF 7F F0 FF FF  7F 68 7A 31 38 1A 80 1C  .........hz18...
0790: 26 80 2B 8F E2 04 01 4E  80 23 52 1D 80 F0 FF FF  &.+....N.#R.....
07A0: 7F F0 FF FF 7F 68 7A 31  38 45 1D 80 F0 FF FF 7F  .....hz18E......
07B0: F0 FF FF 7F 6D 65 30 37  1A 80 55 1D 80 F0 FF FF  ....me07..U.....
07C0: 7F F0 FF FF 7F 6D 65 30  37 45 1D 80 F0 FF FF 7F  .....me07E......
07D0: F0 FF FF 7F 68 7A 31 39  1A 80 5B 4F 80 93 E2 04  ....hz19..[O....
07E0: 01 93 E2 04 01 73 74 64  30 55 1D 80 F0 FF FF 7F  .....std0U......
07F0: F0 FF FF 7F 68 7A 31 39  45 1D 80 F0 FF FF 7F F0  ....hz19E.......
0800: FF FF 7F 68 7A 32 30 1A  80 1C 50 80 4E 01 93 E2  ...hz20...P.N...
0810: 04 01 BA 93 E2 04 01 51  80 52 80 53 80 1A 80 81  .......Q.R.S....
0820: 00 92 E2 04 01 7C 00 92  E2 04 01 5B 54 80 92 E2  .....|.....[T...
0830: 04 01 92 E2 04 01 74 61  65 30 5B 55 80 91 E2 04  ......tae0[U....
0840: 01 91 E2 04 01 6F 64 6E  30 5B 56 80 90 E2 04 01  .....odn0[V.....
0850: 90 E2 04 01 6F 6F 64 30  5B 56 80 8F E2 04 01 8F  ....ood0[V......
0860: E2 04 01 6D 6F 64 30 81  00 91 E2 04 01 BB 19 80  ...mod0.........
0870: 8B E2 04 01 8B E2 04 01  73 30 30 32 1A 80 55 1D  ........s002..U.
0880: 80 F0 FF FF 7F F0 FF FF  7F 68 7A 32 30 45 1D 80  .........hz20E..
0890: F0 FF FF 7F F0 FF FF 7F  6D 65 30 38 1A 80 1C 21  ........me08...!
08A0: 80 52 1D 80 F0 FF FF 7F  F0 FF FF 7F 6D 65 30 38  .R..........me08
08B0: 45 1D 80 F0 FF FF 7F F0  FF FF 7F 6D 65 30 39 1A  E..........me09.
08C0: 80 1C 57 80 52 1D 80 F0  FF FF 7F F0 FF FF 7F 6D  ..W.R..........m
08D0: 65 30 39 45 1D 80 F0 FF  FF 7F F0 FF FF 7F 6D 65  e09E..........me
08E0: 31 30 1A 80 55 1D 80 F0  FF FF 7F F0 FF FF 7F 6D  10..U..........m
08F0: 65 31 30 45 1D 80 F0 FF  FF 7F F0 FF FF 7F 68 7A  e10E..........hz
0900: 32 31 1A 80 2B 91 E2 04  01 58 80 23 52 1D 80 F0  21..+....X.#R...
0910: FF FF 7F F0 FF FF 7F 68  7A 32 31 45 1D 80 F0 FF  .......hz21E....
0920: FF 7F F0 FF FF 7F 6D 65  31 33 1A 80 BB 46 80 90  ......me13...F..
0930: E2 04 01 90 E2 04 01 6D  61 69 6E 1A 80 5B 2A 80  .......main..[*.
0940: 90 E2 04 01 90 E2 04 01  66 6B 69 30 1C 2B 80 81  ........fki0.+..
0950: 00 91 E2 04 01 BB 48 80  91 E2 04 01 91 E2 04 01  ......H.........
0960: 6D 61 69 6E 1A 80 5B 59  80 91 E2 04 01 91 E2 04  main..[Y........
0970: 01 66 6B 69 30 03 02 10  5A 80 27 10 8B E2 04 01  .fki0...Z.'.....
0980: 03 1C 26 80 52 1D 80 F0  FF FF 7F F0 FF FF 7F 6D  ..&.R..........m
0990: 65 31 33 45 1D 80 F0 FF  FF 7F F0 FF FF 7F 68 7A  e13E..........hz
09A0: 32 32 1A 80 1C 50 80 BB  47 80 8F E2 04 01 8F E2  22...P..G.......
09B0: 04 01 6D 61 69 6E 1A 80  5B 5B 80 8F E2 04 01 8F  ..main..[[......
09C0: E2 04 01 66 6B 69 30 1C  5C 80 2B 91 E2 04 01 5D  ...fki0.\.+....]
09D0: 80 2A 10 8B E2 04 01 52  1D 80 F0 FF FF 7F F0 FF  .*.....R........
09E0: FF 7F 68 7A 32 32 45 1D  80 F0 FF FF 7F F0 FF FF  ..hz22E.........
09F0: 7F 68 7A 32 35 1A 80 4E  00 93 E2 04 01 5B 54 80  .hz25..N.....[T.
0A00: 92 E2 04 01 92 E2 04 01  6E 61 73 30 03 02 10 5E  ........nas0...^
0A10: 80 27 10 8B E2 04 01 03  1C 26 80 2B 92 E2 04 01  .'.......&.+....
0A20: 5F 80 1C 1E 80 2B 92 E2  04 01 60 80 23 2A 10 8B  _....+....`.#*..
0A30: E2 04 01 52 1D 80 F0 FF  FF 7F F0 FF FF 7F 68 7A  ...R..........hz
0A40: 32 35 45 1D 80 F0 FF FF  7F F0 FF FF 7F 68 7A 32  25E..........hz2
0A50: 36 1A 80 2B 93 E2 04 01  61 80 23 5B 4F 80 93 E2  6..+....a.#[O...
0A60: 04 01 93 E2 04 01 74 62  75 30 BB 62 80 8C E2 04  ......tbu0.b....
0A70: 01 8C E2 04 01 73 30 30  30 1A 80 1C 1E 80 45 1D  .....s000.....E.
0A80: 80 F0 FF FF 7F F0 FF FF  7F 6B 30 34 35 1A 80 BB  .........k045...
0A90: 19 80 8B E2 04 01 8B E2  04 01 73 30 30 33 1A 80  ..........s003..
0AA0: 52 1D 80 F0 FF FF 7F F0  FF FF 7F 68 7A 32 36 45  R..........hz26E
0AB0: 1D 80 F0 FF FF 7F F0 FF  FF 7F 68 7A 32 37 1A 80  ..........hz27..
0AC0: 2B 93 E2 04 01 63 80 23  5B 54 80 92 E2 04 01 92  +....c.#[T......
0AD0: E2 04 01 66 6C 74 30 03  02 10 21 80 27 10 8B E2  ...flt0...!.'...
0AE0: 04 01 03 2B 92 E2 04 01  64 80 23 2A 10 8B E2 04  ...+....d.#*....
0AF0: 01 52 1D 80 F0 FF FF 7F  F0 FF FF 7F 68 7A 32 37  .R..........hz27
0B00: 45 1D 80 F0 FF FF 7F F0  FF FF 7F 6D 65 31 32 1A  E..........me12.
0B10: 80 55 1D 80 F0 FF FF 7F  F0 FF FF 7F 6D 65 31 32  .U..........me12
0B20: 45 1D 80 F0 FF FF 7F F0  FF FF 7F 6D 65 31 31 1A  E..........me11.
0B30: 80 5B 65 80 92 E2 04 01  92 E2 04 01 6F 64 6E 30  .[e.........odn0
0B40: 1C 20 80 45 1D 80 F0 FF  FF 7F F0 FF FF 7F 6B 30  . .E..........k0
0B50: 34 36 1A 80 52 1D 80 F0  FF FF 7F F0 FF FF 7F 6D  46..R..........m
0B60: 65 31 31 45 1D 80 F0 FF  FF 7F F0 FF FF 7F 68 7A  e11E..........hz
0B70: 32 38 1A 80 BB 4A 80 94  E2 04 01 94 E2 04 01 73  28...J.........s
0B80: 30 30 30 1A 80 03 02 10  66 80 27 10 8B E2 04 01  000.....f.'.....
0B90: 03 1C 67 80 5B 65 80 92  E2 04 01 92 E2 04 01 6F  ..g.[e.........o
0BA0: 64 6E 31 2A 10 8B E2 04  01 BB 4A 80 94 E2 04 01  dn1*......J.....
0BB0: 94 E2 04 01 73 30 30 30  1A 80 03 02 10 5C 80 27  ....s000.....\.'
0BC0: 10 8B E2 04 01 03 1C 67  80 5B 65 80 92 E2 04 01  .......g.[e.....
0BD0: 92 E2 04 01 6F 64 6E 31  2A 10 8B E2 04 01 52 1D  ....odn1*.....R.
0BE0: 80 F0 FF FF 7F F0 FF FF  7F 68 7A 32 38 45 1D 80  .........hz28E..
0BF0: F0 FF FF 7F F0 FF FF 7F  6F 64 30 30 1A 80 27 10  ........od00..'.
0C00: 8D E2 04 01 03 1C 1E 80  BB 49 80 95 E2 04 01 95  .........I......
0C10: E2 04 01 6D 61 69 6E 1A  80 5B 68 80 95 E2 04 01  ...main..[h.....
0C20: 95 E2 04 01 70 6F 70 31  03 02 10 69 80 27 10 8B  ....pop1...i.'..
0C30: E2 04 01 03 52 1D 80 F0  FF FF 7F F0 FF FF 7F 6F  ....R..........o
0C40: 64 30 30 45 1D 80 F0 FF  FF 7F F0 FF FF 7F 68 7A  d00E..........hz
0C50: 33 32 1A 80 1C 1C 80 BA  91 E2 04 01 6A 80 6B 80  32..........j.k.
0C60: 6C 80 0F 80 BA 90 E2 04  01 6D 80 6E 80 07 80 0F  l........m.n....
0C70: 80 BA 8F E2 04 01 6F 80  70 80 71 80 0F 80 BA 92  ......o.p.q.....
0C80: E2 04 01 72 80 73 80 07  80 74 80 BA 93 E2 04 01  ...r.s...t......
0C90: 75 80 76 80 77 80 78 80  81 01 92 E2 04 01 7C 01  u.v.w.x.......|.
0CA0: 92 E2 04 01 5B 79 80 92  E2 04 01 92 E2 04 01 73  ....[y.........s
0CB0: 69 6E 30 5B 59 80 91 E2  04 01 91 E2 04 01 64 77  in0[Y.........dw
0CC0: 6E 30 5B 2A 80 90 E2 04  01 90 E2 04 01 64 77 6E  n0[*.........dwn
0CD0: 30 5B 5B 80 8F E2 04 01  8F E2 04 01 64 77 6E 30  0[[.........dwn0
0CE0: 2A 10 8B E2 04 01 27 10  93 E2 04 01 0A 1C 1C 80  *.....'.........
0CF0: 52 1D 80 F0 FF FF 7F F0  FF FF 7F 68 7A 33 31 52  R..........hz31R
0D00: 1D 80 F0 FF FF 7F F0 FF  FF 7F 68 7A 33 32 45 1D  ..........hz32E.
0D10: 80 F0 FF FF 7F F0 FF FF  7F 68 7A 33 35 1A 80 2A  .........hz35..*
0D20: 10 93 E2 04 01 52 1D 80  F0 FF FF 7F F0 FF FF 7F  .....R..........
0D30: 68 7A 33 35 45 1D 80 F0  FF FF 7F F0 FF FF 7F 68  hz35E..........h
0D40: 7A 33 36 1A 80 2B 93 E2  04 01 7A 80 23 5B 7B 80  z36..+....z.#[{.
0D50: 93 E2 04 01 93 E2 04 01  6B 6E 65 30 2B 93 E2 04  ........kne0+...
0D60: 01 7C 80 23 52 1D 80 F0  FF FF 7F F0 FF FF 7F 68  .|.#R..........h
0D70: 7A 33 36 45 1D 80 F0 FF  FF 7F F0 FF FF 7F 6D 65  z36E..........me
0D80: 31 35 1A 80 1C 26 80 5B  7B 80 93 E2 04 01 93 E2  15...&.[{.......
0D90: 04 01 6B 6E 65 31 03 02  10 7D 80 27 10 8B E2 04  ..kne1...}.'....
0DA0: 01 03 1C 20 80 52 1D 80  F0 FF FF 7F F0 FF FF 7F  ... .R..........
0DB0: 6D 65 31 35 45 1D 80 F0  FF FF 7F F0 FF FF 7F 68  me15E..........h
0DC0: 7A 33 37 1A 80 2A 10 8B  E2 04 01 27 10 93 E2 04  z37..*.....'....
0DD0: 01 0C 7C 00 92 E2 04 01  2B 92 E2 04 01 7E 80 23  ..|.....+....~.#
0DE0: 7C 01 92 E2 04 01 52 1D  80 F0 FF FF 7F F0 FF FF  |.....R.........
0DF0: 7F 68 7A 33 37 45 1D 80  F0 FF FF 7F F0 FF FF 7F  .hz37E..........
0E00: 68 7A 33 38 1A 80 5B 4F  80 93 E2 04 01 93 E2 04  hz38..[O........
0E10: 01 74 6C 6B 30 2B 93 E2  04 01 7F 80 23 5D 1A 80  .tlk0+......#]..
0E20: 39 80 2B 93 E2 04 01 80  80 23 5B 4F 80 93 E2 04  9.+......#[O....
0E30: 01 93 E2 04 01 74 6C 6B  31 52 1D 80 F0 FF FF 7F  .....tlk1R......
0E40: F0 FF FF 7F 68 7A 33 38  45 1D 80 F0 FF FF 7F F0  ....hz38E.......
0E50: FF FF 7F 68 7A 33 39 1A  80 5B 79 80 92 E2 04 01  ...hz39..[y.....
0E60: 92 E2 04 01 73 69 6E 31  1C 20 80 2B 92 E2 04 01  ....sin1. .+....
0E70: 81 80 1C 20 80 1A EA 3D  1C 20 80 53 92 E2 04 01  ... ...=. .S....
0E80: 92 E2 04 01 73 69 6E 31  5C 00 82 80 5C 01 82 80  ....sin1\...\...
0E90: 9A 52 1D 80 F0 FF FF 7F  F0 FF FF 7F 68 7A 33 39  .R..........hz39
0EA0: 45 1D 80 F0 FF FF 7F F0  FF FF 7F 68 7A 34 30 1A  E..........hz40.
0EB0: 80 1A C9 3D 5B 79 80 92  E2 04 01 92 E2 04 01 68  ...=[y.........h
0EC0: 69 7A 30 53 92 E2 04 01  92 E2 04 01 68 69 7A 30  iz0S........hiz0
0ED0: 52 1D 80 F0 FF FF 7F F0  FF FF 7F 68 7A 34 30 45  R..........hz40E
0EE0: 1D 80 F0 FF FF 7F F0 FF  FF 7F 68 7A 34 31 1A 80  ..........hz41..
0EF0: 2B 94 E2 04 01 83 80 23  52 1D 80 F0 FF FF 7F F0  +......#R.......
0F00: FF FF 7F 68 7A 34 31 45  1D 80 F0 FF FF 7F F0 FF  ...hz41E........
0F10: FF 7F 68 7A 34 32 1A 80  2B 92 E2 04 01 84 80 23  ..hz42..+......#
0F20: 52 1D 80 F0 FF FF 7F F0  FF FF 7F 68 7A 34 32 45  R..........hz42E
0F30: 1D 80 F0 FF FF 7F F0 FF  FF 7F 68 7A 34 33 1A 80  ..........hz43..
0F40: 2B 94 E2 04 01 85 80 23  52 1D 80 F0 FF FF 7F F0  +......#R.......
0F50: FF FF 7F 68 7A 34 33 45  1D 80 F0 FF FF 7F F0 FF  ...hz43E........
0F60: FF 7F 68 7A 34 34 1A 80  5B 79 80 92 E2 04 01 92  ..hz44..[y......
0F70: E2 04 01 68 69 7A 31 2B  92 E2 04 01 86 80 23 2B  ...hiz1+......#+
0F80: 92 E2 04 01 87 80 23 52  1D 80 F0 FF FF 7F F0 FF  ......#R........
0F90: FF 7F 68 7A 34 34 45 1D  80 F0 FF FF 7F F0 FF FF  ..hz44E.........
0FA0: 7F 68 7A 35 34 1A 80 1C  20 80 2B 94 E2 04 01 88  .hz54... .+.....
0FB0: 80 23 52 1D 80 F0 FF FF  7F F0 FF FF 7F 68 7A 35  .#R..........hz5
0FC0: 34 45 1D 80 F0 FF FF 7F  F0 FF FF 7F 68 7A 34 35  4E..........hz45
0FD0: 1A 80 5B 7B 80 93 E2 04  01 93 E2 04 01 68 6F 6E  ..[{.........hon
0FE0: 30 1C 20 80 2B 92 E2 04  01 89 80 23 52 1D 80 F0  0. .+......#R...
0FF0: FF FF 7F F0 FF FF 7F 68  7A 34 35 45 1D 80 F0 FF  .......hz45E....
1000: FF 7F F0 FF FF 7F 68 7A  34 36 1A 80 5B 7B 80 93  ......hz46..[{..
1010: E2 04 01 93 E2 04 01 61  6B 75 30 03 02 10 33 80  .......aku0...3.
1020: 27 10 8B E2 04 01 03 2B  93 E2 04 01 8A 80 23 52  '......+......#R
1030: 1D 80 F0 FF FF 7F F0 FF  FF 7F 68 7A 34 36 45 1D  ..........hz46E.
1040: 80 F0 FF FF 7F F0 FF FF  7F 68 7A 34 37 1A 80 2B  .........hz47..+
1050: 93 E2 04 01 8B 80 23 2A  10 8B E2 04 01 52 1D 80  ......#*.....R..
1060: F0 FF FF 7F F0 FF FF 7F  68 7A 34 37 45 1D 80 F0  ........hz47E...
1070: FF FF 7F F0 FF FF 7F 68  7A 34 38 1A 80 2B 92 E2  .......hz48..+..
1080: 04 01 8C 80 23 2B 92 E2  04 01 8D 80 23 52 1D 80  ....#+......#R..
1090: F0 FF FF 7F F0 FF FF 7F  68 7A 34 38 45 1D 80 F0  ........hz48E...
10A0: FF FF 7F F0 FF FF 7F 68  7A 34 39 1A 80 1C 20 80  .......hz49... .
10B0: 2B 94 E2 04 01 88 80 23  7C 00 92 E2 04 01 2B 92  +......#|.....+.
10C0: E2 04 01 8E 80 23 7C 01  92 E2 04 01 52 1D 80 F0  .....#|.....R...
10D0: FF FF 7F F0 FF FF 7F 68  7A 34 39 45 1D 80 F0 FF  .......hz49E....
10E0: FF 7F F0 FF FF 7F 68 7A  35 30 1A 80 2B 92 E2 04  ......hz50..+...
10F0: 01 8F 80 23 2B 92 E2 04  01 90 80 23 5B 79 80 92  ...#+......#[y..
1100: E2 04 01 92 E2 04 01 68  69 7A 32 1C 2B 80 52 1D  .......hiz2.+.R.
1110: 80 F0 FF FF 7F F0 FF FF  7F 68 7A 35 30 45 1D 80  .........hz50E..
1120: F0 FF FF 7F F0 FF FF 7F  68 7A 35 31 1A 80 2B 92  ........hz51..+.
1130: E2 04 01 91 80 23 2B 92  E2 04 01 92 80 23 5D 1A  .....#+......#].
1140: 80 93 80 52 1D 80 F0 FF  FF 7F F0 FF FF 7F 68 7A  ...R..........hz
1150: 35 31 45 1D 80 F0 FF FF  7F F0 FF FF 7F 68 7A 35  51E..........hz5
1160: 32 1A 80 2B 92 E2 04 01  94 80 23 5B 79 80 92 E2  2..+......#[y...
1170: 04 01 92 E2 04 01 68 69  7A 31 2B 92 E2 04 01 95  ......hiz1+.....
1180: 80 23 52 1D 80 F0 FF FF  7F F0 FF FF 7F 68 7A 35  .#R..........hz5
1190: 32 45 1D 80 F0 FF FF 7F  F0 FF FF 7F 68 7A 35 33  2E..........hz53
11A0: 1A 80 5B 7B 80 93 E2 04  01 93 E2 04 01 79 72 65  ..[{.........yre
11B0: 30 03 02 10 5E 80 27 10  8B E2 04 01 03 1C 2B 80  0...^.'.......+.
11C0: 2B 93 E2 04 01 96 80 23  2A 10 8B E2 04 01 52 1D  +......#*.....R.
11D0: 80 F0 FF FF 7F F0 FF FF  7F 68 7A 35 33 45 1D 80  .........hz53E..
11E0: F0 FF FF 7F F0 FF FF 7F  68 7A 35 34 1A 80 1C 20  ........hz54... 
11F0: 80 2B 94 E2 04 01 88 80  23 52 1D 80 F0 FF FF 7F  .+......#R......
1200: F0 FF FF 7F 68 7A 35 34  45 1D 80 F0 FF FF 7F F0  ....hz54E.......
1210: FF FF 7F 68 7A 35 35 1A  80 1C 20 80 2B 92 E2 04  ...hz55... .+...
1220: 01 97 80 23 5C 00 98 80  5C 01 98 80 9A 2B 93 E2  ...#\...\....+..
1230: 04 01 99 80 23 52 1D 80  F0 FF FF 7F F0 FF FF 7F  ....#R..........
1240: 68 7A 35 35 45 1D 80 F0  FF FF 7F F0 FF FF 7F 68  hz55E..........h
1250: 7A 35 36 1A 80 5B 9A 80  92 E2 04 01 92 E2 04 01  z56..[..........
1260: 68 7A 61 30 1C 2B 80 5B  7B 80 93 E2 04 01 93 E2  hza0.+.[{.......
1270: 04 01 61 6B 75 30 2B 93  E2 04 01 9B 80 23 2B 93  ..aku0+......#+.
1280: E2 04 01 9C 80 23 52 1D  80 F0 FF FF 7F F0 FF FF  .....#R.........
1290: 7F 68 7A 35 36 45 1D 80  F0 FF FF 7F F0 FF FF 7F  .hz56E..........
12A0: 68 7A 35 37 1A 80 1C 26  80 7C 00 92 E2 04 01 2B  hz57...&.|.....+
12B0: 92 E2 04 01 7E 80 23 7C  01 92 E2 04 01 52 1D 80  ....~.#|.....R..
12C0: F0 FF FF 7F F0 FF FF 7F  68 7A 35 37 45 1D 80 F0  ........hz57E...
12D0: FF FF 7F F0 FF FF 7F 68  7A 35 38 1A 80 2B 93 E2  .......hz58..+..
12E0: 04 01 9D 80 23 2B 92 E2  04 01 9E 80 23 52 1D 80  ....#+......#R..
12F0: F0 FF FF 7F F0 FF FF 7F  68 7A 35 38 45 1D 80 F0  ........hz58E...
1300: FF FF 7F F0 FF FF 7F 68  7A 35 39 1A 80 2B 93 E2  .......hz59..+..
1310: 04 01 9F 80 23 5B 7B 80  93 E2 04 01 93 E2 04 01  ....#[{.........
1320: 79 72 65 30 2B 93 E2 04  01 A0 80 23 52 1D 80 F0  yre0+......#R...
1330: FF FF 7F F0 FF FF 7F 68  7A 35 39 45 1D 80 F0 FF  .......hz59E....
1340: FF 7F F0 FF FF 7F 68 7A  36 30 1A 80 2B 93 E2 04  ......hz60..+...
1350: 01 A1 80 23 5B 9A 80 92  E2 04 01 92 E2 04 01 68  ...#[..........h
1360: 7A 61 31 1C 20 80 2B 92  E2 04 01 A2 80 23 53 93  za1. .+......#S.
1370: E2 04 01 93 E2 04 01 79  72 65 30 52 1D 80 F0 FF  .......yre0R....
1380: FF 7F F0 FF FF 7F 68 7A  36 30 45 1D 80 F0 FF FF  ......hz60E.....
1390: 7F F0 FF FF 7F 68 7A 36  31 1A 80 5B A3 80 93 E2  .....hz61..[....
13A0: 04 01 93 E2 04 01 73 6F  75 30 2B 93 E2 04 01 A4  ......sou0+.....
13B0: 80 23 2B 93 E2 04 01 A5  80 23 52 1D 80 F0 FF FF  .#+......#R.....
13C0: 7F F0 FF FF 7F 68 7A 36  31 45 1D 80 F0 FF FF 7F  .....hz61E......
13D0: F0 FF FF 7F 68 7A 36 32  1A 80 2B 93 E2 04 01 A6  ....hz62..+.....
13E0: 80 23 5B A3 80 93 E2 04  01 93 E2 04 01 73 6F 75  .#[..........sou
13F0: 31 03 02 10 39 80 27 10  8B E2 04 01 03 2B 93 E2  1...9.'......+..
1400: 04 01 A7 80 23 2A 10 8B  E2 04 01 5B 4F 80 93 E2  ....#*.....[O...
1410: 04 01 93 E2 04 01 74 62  75 30 1C 39 80 52 1D 80  ......tbu0.9.R..
1420: F0 FF FF 7F F0 FF FF 7F  68 7A 36 32 45 1D 80 F0  ........hz62E...
1430: FF FF 7F F0 FF FF 7F 68  7A 36 33 1A 80 4A 93 E2  .......hz63..J..
1440: 04 01 91 E2 04 01 2B 93  E2 04 01 A8 80 23 53 93  ......+......#S.
1450: E2 04 01 93 E2 04 01 74  62 75 30 5B A9 80 93 E2  .......tbu0[....
1460: 04 01 93 E2 04 01 70 6E  74 30 03 02 10 2B 80 27  ......pnt0...+.'
1470: 10 8B E2 04 01 03 1C AA  80 52 1D 80 F0 FF FF 7F  .........R......
1480: F0 FF FF 7F 68 7A 36 33  45 1D 80 F0 FF FF 7F F0  ....hz63E.......
1490: FF FF 7F 68 7A 36 34 1A  80 1C 26 80 2B 93 E2 04  ...hz64...&.+...
14A0: 01 AB 80 23 2A 10 8B E2  04 01 52 1D 80 F0 FF FF  ...#*.....R.....
14B0: 7F F0 FF FF 7F 68 7A 36  34 45 1D 80 F0 FF FF 7F  .....hz64E......
14C0: F0 FF FF 7F 68 7A 36 35  1A 80 1C 2B 80 7C 00 92  ....hz65...+.|..
14D0: E2 04 01 2B 92 E2 04 01  7E 80 23 7C 01 92 E2 04  ...+....~.#|....
14E0: 01 1A EA 3D 1C 26 80 BB  62 80 8C E2 04 01 8C E2  ...=.&..b.......
14F0: 04 01 73 74 6F 70 1A 80  BB 19 80 8B E2 04 01 8B  ..stop..........
1500: E2 04 01 6B 6C 61 6C 1A  80 52 1D 80 F0 FF FF 7F  ...klal..R......
1510: F0 FF FF 7F 68 7A 36 35  45 1D 80 F0 FF FF 7F F0  ....hz65E.......
1520: FF FF 7F 30 62 6C 66 1A  80 5C 00 1A 80 5C 01 1A  ...0blf..\...\..
1530: 80 5C 02 AC 80 5C 03 AC  80 9A 46 00 45 5C 80 F0  .\...\....F.E\..
1540: FF FF 7F F0 FF FF 7F 66  64 69 32 1A 80 21 00     .......fdi2..!. 
```

#### Opcodes

```
  0: 0x0001 [0x42] SET_CLI_EVENT_CANCEL_DATA()
  1: 0x0002 [0x1A] CALL_SUBROUTINE(address=0x3DEA)
  2: 0x0005 [0x46] CAMERA_CONTROL: Disable user control
  3: 0x0007 [0x38] SET_CLIENT_EVENT_MODE(mode=19*)
  4: 0x000A [0x4E] SET_ENTITY_HIDE_FLAG: Show LocalPlayer
  5: 0x0010 [0x27] REQ_SET(priority=0x10, entity_id=Luzaf (ID: 17097362/0x0104E292), tag_num=0x04)
  6: 0x0017 [0x27] REQ_SET(priority=0x10, entity_id=Nashmeira (ID: 17097361/0x0104E291), tag_num=0x04)
  7: 0x001E [0x27] REQ_SET(priority=0x10, entity_id=Mnejing (ID: 17097359/0x0104E28F), tag_num=0x04)
  8: 0x0025 [0x27] REQ_SET(priority=0x10, entity_id=Ovjang (ID: 17097360/0x0104E290), tag_num=0x04)
  9: 0x002C [0x27] REQ_SET(priority=0x10, entity_id=Flit (ID: 17097363/0x0104E293), tag_num=0x04)
 10: 0x0033 [0x27] REQ_SET(priority=0x10, entity_id=Odin (ID: 17097364/0x0104E294), tag_num=0x02)
 11: 0x003A [0x27] REQ_SET(priority=0x10, entity_id=Odin Prime (ID: 17097365/0x0104E295), tag_num=0x02)
 12: 0x0041 [0x4E] SET_ENTITY_HIDE_FLAG: Show ??? (ID: 17097355/0x0104E28B)
 13: 0x0047 [0x4E] SET_ENTITY_HIDE_FLAG: Show Unnamed NPC (ID: 17097356/0x0104E28C)
 14: 0x004D [0x92] LocalPlayer->Render.Flags3 ^= 0x01
 15: 0x0053 [0x92] Luzaf (ID: 17097362/0x0104E292)->Render.Flags3 ^= 0x01
 16: 0x0059 [0x92] Nashmeira (ID: 17097361/0x0104E291)->Render.Flags3 ^= 0x01
 17: 0x005F [0x92] Mnejing (ID: 17097359/0x0104E28F)->Render.Flags3 ^= 0x01
 18: 0x0065 [0x92] Ovjang (ID: 17097360/0x0104E290)->Render.Flags3 ^= 0x01
 19: 0x006B [0x92] Flit (ID: 17097363/0x0104E293)->Render.Flags3 ^= 0x01
 20: 0x0071 [0x92] Odin (ID: 17097364/0x0104E294)->Render.Flags3 ^= 0x01
 21: 0x0077 [0x92] Odin Prime (ID: 17097365/0x0104E295)->Render.Flags3 ^= 0x01
 22: 0x007D [0x94] LocalPlayer->Render.Flags3 ^= 0x01
 23: 0x0083 [0x94] Luzaf (ID: 17097362/0x0104E292)->Render.Flags3 ^= 0x01
 24: 0x0089 [0x94] Nashmeira (ID: 17097361/0x0104E291)->Render.Flags3 ^= 0x01
 25: 0x008F [0x94] Mnejing (ID: 17097359/0x0104E28F)->Render.Flags3 ^= 0x01
 26: 0x0095 [0x94] Ovjang (ID: 17097360/0x0104E290)->Render.Flags3 ^= 0x01
 27: 0x009B [0x94] Flit (ID: 17097363/0x0104E293)->Render.Flags3 ^= 0x01
 28: 0x00A1 [0x94] Odin (ID: 17097364/0x0104E294)->Render.Flags3 ^= 0x01
 29: 0x00A7 [0x94] Odin Prime (ID: 17097365/0x0104E295)->Render.Flags3 ^= 0x01
 30: 0x00AD [0x94] ??? (ID: 17097355/0x0104E28B)->Render.Flags3 ^= 0x01
 31: 0x00B3 [0x94] Unnamed NPC (ID: 17097356/0x0104E28C)->Render.Flags3 ^= 0x01
 32: 0x00B9 [0xBA] SET_ENTITY_POSITION(entity_id=Nashmeira (ID: 17097361/0x0104E291), pos_x=-282.051*, pos_z=-44.085*, pos_y=33.998*, direction=310.7°*)
 33: 0x00C6 [0xBA] SET_ENTITY_POSITION(entity_id=Ovjang (ID: 17097360/0x0104E290), pos_x=-281.997*, pos_z=-43.200*, pos_y=33.999*, direction=314.1°*)
 34: 0x00D3 [0xBA] SET_ENTITY_POSITION(entity_id=Mnejing (ID: 17097359/0x0104E28F), pos_x=-281.420*, pos_z=-44.374*, pos_y=33.999*, direction=301.5°*)
 35: 0x00E0 [0xBA] SET_ENTITY_POSITION(entity_id=Luzaf (ID: 17097362/0x0104E292), pos_x=-282.121*, pos_z=-42.143*, pos_y=33.995*, direction=315.0°*)
 36: 0x00ED [0xBA] SET_ENTITY_POSITION(entity_id=Flit (ID: 17097363/0x0104E293), pos_x=-284.040*, pos_z=-42.009*, pos_y=33.999*, direction=326.4°*)
 37: 0x00FA [0x29] REQ_SET_WAIT(priority=0x10, entity_id=Odin (ID: 17097364/0x0104E294), tag_num=0x13)
 38: 0x0101 [0x29] REQ_SET_WAIT(priority=0x10, entity_id=Odin Prime (ID: 17097365/0x0104E295), tag_num=0x13)
 39: 0x0108 [0xBA] SET_ENTITY_POSITION(entity_id=??? (ID: 17097355/0x0104E28B), pos_x=-275.976*, pos_z=-35.909*, pos_y=33.942*, direction=315.0°*)
 40: 0x0115 [0xBA] SET_ENTITY_POSITION(entity_id=Unnamed NPC (ID: 17097356/0x0104E28C), pos_x=-280.082*, pos_z=-40.259*, pos_y=33.999*, direction=306.0°*)
 41: 0x0122 [0x80] LOAD_WAIT(entity=LocalPlayer)
 42: 0x0127 [0x80] LOAD_WAIT(entity=Luzaf (ID: 17097362/0x0104E292))
 43: 0x012C [0x80] LOAD_WAIT(entity=Nashmeira (ID: 17097361/0x0104E291))
 44: 0x0131 [0x80] LOAD_WAIT(entity=Mnejing (ID: 17097359/0x0104E28F))
 45: 0x0136 [0x80] LOAD_WAIT(entity=Ovjang (ID: 17097360/0x0104E290))
 46: 0x013B [0x80] LOAD_WAIT(entity=Flit (ID: 17097363/0x0104E293))
 47: 0x0140 [0x80] LOAD_WAIT(entity=Odin (ID: 17097364/0x0104E294))
 48: 0x0145 [0x80] LOAD_WAIT(entity=Odin Prime (ID: 17097365/0x0104E295))
 49: 0x014A [0xBB] LOAD_EVENT_SCHEDULER_ALT: Load scheduler 0xFEFEFE00 with entities [??? (ID: 17097355/0x0104E28B), ??? (ID: 17097355/0x0104E28B)], work=[71*, 0*]
 50: 0x015B [0x5C] MUSIC_CONTROL: Set Idle (Day) music to song 119*
 51: 0x015F [0x5C] MUSIC_CONTROL: Set Idle (Night) music to song 119*
 52: 0x0163 [0x9A] WAIT_MUSIC_SERVER()
 53: 0x0164 [0x1C] WAIT(15* ticks)
 54: 0x0167 [0x45] LOAD_SCHEDULED_TASK: Load scheduler "me00" with entities [LocalPlayer, LocalPlayer], work=[318*, 0*]
 55: 0x0178 [0x1A] CALL_SUBROUTINE(address=0x3DC9)
 56: 0x017B [0x55] WAIT_LOAD_SCHEDULER: Wait for scheduler "me00" with entities [LocalPlayer, LocalPlayer], work=318*
 57: 0x018A [0x45] LOAD_SCHEDULED_TASK: Load scheduler "me01" with entities [LocalPlayer, LocalPlayer], work=[318*, 0*]
 58: 0x019B [0x1C] WAIT(90* ticks)
 59: 0x019E [0x5B] LOAD_EXT_SCHEDULER: Load scheduler "tlcs" with entities [Luzaf (ID: 17097362/0x0104E292), Luzaf (ID: 17097362/0x0104E292)], work=1056*
 60: 0x01AD [0x55] WAIT_LOAD_SCHEDULER: Wait for scheduler "me01" with entities [LocalPlayer, LocalPlayer], work=318*
 61: 0x01BC [0x45] LOAD_SCHEDULED_TASK: Load scheduler "me02" with entities [LocalPlayer, LocalPlayer], work=[318*, 0*]
 62: 0x01CD [0x1C] WAIT(60* ticks)
 63: 0x01D0 [0xBB] LOAD_EVENT_SCHEDULER_ALT: Load scheduler "s000" with entities [??? (ID: 17097355/0x0104E28B), ??? (ID: 17097355/0x0104E28B)], work=[71*, 0*]
 64: 0x01E1 [0x1C] WAIT(180* ticks)
 65: 0x01E4 [0x5B] LOAD_EXT_SCHEDULER: Load scheduler "tlc1" with entities [Luzaf (ID: 17097362/0x0104E292), Luzaf (ID: 17097362/0x0104E292)], work=1056*
 66: 0x01F3 [0x55] WAIT_LOAD_SCHEDULER: Wait for scheduler "me02" with entities [LocalPlayer, LocalPlayer], work=318*
 67: 0x0202 [0x45] LOAD_SCHEDULED_TASK: Load scheduler "hz00" with entities [LocalPlayer, LocalPlayer], work=[318*, 0*]
 68: 0x0213 [0x2B] Nashmeira (ID: 17097361/0x0104E291) [7659*]:
    → "How curious... The fire burns fiercely, and yet makes no sound..."
 69: 0x021A [0x23] WAIT_FOR_DIALOG_INTERACTION
 70: 0x021B [0x52] END_LOAD_SCHEDULER: End scheduler "hz00" with entities [LocalPlayer, LocalPlayer], work=318*
 71: 0x022A [0x45] LOAD_SCHEDULED_TASK: Load scheduler "hz01" with entities [LocalPlayer, LocalPlayer], work=[318*, 0*]
 72: 0x023B [0x2B] Luzaf (ID: 17097362/0x0104E292) [7660*]:
    → "This blaze is not of Urhguum."
 73: 0x0242 [0x23] WAIT_FOR_DIALOG_INTERACTION
 74: 0x0243 [0x2B] Luzaf (ID: 17097362/0x0104E292) [7661*]:
    → "If there were no illumination of this world present, this conflagration would completely escape your mortal gaze..."
 75: 0x024A [0x23] WAIT_FOR_DIALOG_INTERACTION
 76: 0x024B [0x52] END_LOAD_SCHEDULER: End scheduler "hz01" with entities [LocalPlayer, LocalPlayer], work=318*
 77: 0x025A [0x45] LOAD_SCHEDULED_TASK: Load scheduler "hz02" with entities [LocalPlayer, LocalPlayer], work=[318*, 0*]
 78: 0x026B [0x2B] Luzaf (ID: 17097362/0x0104E292) [7662*]:
    → "It is a flame of the underworld."
 79: 0x0272 [0x23] WAIT_FOR_DIALOG_INTERACTION
 80: 0x0273 [0x27] REQ_SET(priority=0x10, entity_id=Ovjang (ID: 17097360/0x0104E290), tag_num=0x0A)
 81: 0x027A [0x1C] WAIT(30* ticks)
 82: 0x027D [0x52] END_LOAD_SCHEDULER: End scheduler "hz02" with entities [LocalPlayer, LocalPlayer], work=318*
 83: 0x028C [0x45] LOAD_SCHEDULED_TASK: Load scheduler "hz03" with entities [LocalPlayer, LocalPlayer], work=[318*, 0*]
 84: 0x029D [0x2B] Ovjang (ID: 17097360/0x0104E290) [7663*]:
    → "Oho. Why, it's not even hot..."
 85: 0x02A4 [0x23] WAIT_FOR_DIALOG_INTERACTION
 86: 0x02A5 [0x2A] GET_REQ_LEVEL(level=16, entity_id=Ovjang (ID: 17097360/0x0104E290))
 87: 0x02AB [0x3A] CONVERT_YAW_TO_BYTE(entity=Ovjang (ID: 17097360/0x0104E290), result_destination=ExtData[1]->WorkLocal[0])
 88: 0x02B2 [0x5B] LOAD_EXT_SCHEDULER: Load scheduler "mu00" with entities [Luzaf (ID: 17097362/0x0104E292), Luzaf (ID: 17097362/0x0104E292)], work=911*
 89: 0x02C1 [0x1C] WAIT(15* ticks)
 90: 0x02C4 [0x52] END_LOAD_SCHEDULER: End scheduler "hz03" with entities [LocalPlayer, LocalPlayer], work=318*
 91: 0x02D3 [0x45] LOAD_SCHEDULED_TASK: Load scheduler "hz04" with entities [LocalPlayer, LocalPlayer], work=[318*, 0*]
 92: 0x02E4 [0x2B] Luzaf (ID: 17097362/0x0104E292) [7664*]:
    → "Stay back!"
 93: 0x02EB [0x23] WAIT_FOR_DIALOG_INTERACTION
 94: 0x02EC [0x52] END_LOAD_SCHEDULER: End scheduler "hz04" with entities [LocalPlayer, LocalPlayer], work=318*
 95: 0x02FB [0x45] LOAD_SCHEDULED_TASK: Load scheduler "hz05" with entities [LocalPlayer, LocalPlayer], work=[318*, 0*]
 96: 0x030C [0x5B] LOAD_EXT_SCHEDULER: Load scheduler "bik0" with entities [Ovjang (ID: 17097360/0x0104E290), Ovjang (ID: 17097360/0x0104E290)], work=1013*
 97: 0x031B [0x1C] WAIT(45* ticks)
 98: 0x031E [0x5B] LOAD_EXT_SCHEDULER: Load scheduler "ude0" with entities [Luzaf (ID: 17097362/0x0104E292), Luzaf (ID: 17097362/0x0104E292)], work=885*
 99: 0x032D [0x03] Work_Zone[2] = 105*
100: 0x0332 [0x27] REQ_SET(priority=0x10, entity_id=??? (ID: 17097355/0x0104E28B), tag_num=0x03)
101: 0x0339 [0x52] END_LOAD_SCHEDULER: End scheduler "hz05" with entities [LocalPlayer, LocalPlayer], work=318*
102: 0x0348 [0x45] LOAD_SCHEDULED_TASK: Load scheduler "hz06" with entities [LocalPlayer, LocalPlayer], work=[318*, 0*]
103: 0x0359 [0x2B] Luzaf (ID: 17097362/0x0104E292) [7665*]:
    → "The flame produces no heat, but it will scorch your soul, and consume your flesh..."
104: 0x0360 [0x23] WAIT_FOR_DIALOG_INTERACTION
105: 0x0361 [0x6B] STOP_AND_IDLE: Ovjang (ID: 17097360/0x0104E290) stops current action and resets to idle (animation="idl0")
106: 0x036A [0x2A] GET_REQ_LEVEL(level=16, entity_id=??? (ID: 17097355/0x0104E28B))
107: 0x0370 [0x5B] LOAD_EXT_SCHEDULER: Load scheduler "ude2" with entities [Luzaf (ID: 17097362/0x0104E292), Luzaf (ID: 17097362/0x0104E292)], work=885*
108: 0x037F [0x4A] Ovjang (ID: 17097360/0x0104E290) looks at Luzaf (ID: 17097362/0x0104E292)
109: 0x0388 [0x2B] Luzaf (ID: 17097362/0x0104E292) [7666*]:
    → "Assuming a construct such as you had a soul...or flesh."
110: 0x038F [0x23] WAIT_FOR_DIALOG_INTERACTION
111: 0x0390 [0x5B] LOAD_EXT_SCHEDULER: Load scheduler "tun0" with entities [Nashmeira (ID: 17097361/0x0104E291), Nashmeira (ID: 17097361/0x0104E291)], work=926*
112: 0x039F [0x5B] LOAD_EXT_SCHEDULER: Load scheduler "tun0" with entities [Ovjang (ID: 17097360/0x0104E290), Ovjang (ID: 17097360/0x0104E290)], work=858*
113: 0x03AE [0x52] END_LOAD_SCHEDULER: End scheduler "hz06" with entities [LocalPlayer, LocalPlayer], work=318*
114: 0x03BD [0x45] LOAD_SCHEDULED_TASK: Load scheduler "hz07" with entities [LocalPlayer, LocalPlayer], work=[318*, 0*]
115: 0x03CE [0x1C] WAIT(90* ticks)
116: 0x03D1 [0x1A] CALL_SUBROUTINE(address=0x3DEA)
117: 0x03D4 [0x1C] WAIT(30* ticks)
118: 0x03D7 [0x4B] UPDATE_ENTITY_YAW(entity=Ovjang (ID: 17097360/0x0104E290), yaw=ExtData[1]->WorkLocal[0])
119: 0x03DE [0x6B] STOP_AND_IDLE: Luzaf (ID: 17097362/0x0104E292) stops current action and resets to idle (animation="idl0")
120: 0x03E7 [0x6B] STOP_AND_IDLE: Ovjang (ID: 17097360/0x0104E290) stops current action and resets to idle (animation="idl0")
121: 0x03F0 [0x6B] STOP_AND_IDLE: Nashmeira (ID: 17097361/0x0104E291) stops current action and resets to idle (animation="idl0")
122: 0x03F9 [0x4B] UPDATE_ENTITY_YAW(entity=Nashmeira (ID: 17097361/0x0104E291), yaw=19.4°*)
123: 0x0400 [0x1C] WAIT(30* ticks)
124: 0x0403 [0x52] END_LOAD_SCHEDULER: End scheduler "hz07" with entities [LocalPlayer, LocalPlayer], work=318*
125: 0x0412 [0x45] LOAD_SCHEDULED_TASK: Load scheduler "me03" with entities [LocalPlayer, LocalPlayer], work=[318*, 0*]
126: 0x0423 [0x1A] CALL_SUBROUTINE(address=0x3DC9)
127: 0x0426 [0x5B] LOAD_EXT_SCHEDULER: Load scheduler "com0" with entities [Luzaf (ID: 17097362/0x0104E292), Luzaf (ID: 17097362/0x0104E292)], work=1099*
128: 0x0435 [0x03] Work_Zone[2] = 210*
129: 0x043A [0x27] REQ_SET(priority=0x10, entity_id=??? (ID: 17097355/0x0104E28B), tag_num=0x03)
130: 0x0441 [0x1C] WAIT(135* ticks)
131: 0x0444 [0x52] END_LOAD_SCHEDULER: End scheduler "me03" with entities [LocalPlayer, LocalPlayer], work=318*
132: 0x0453 [0x45] LOAD_SCHEDULED_TASK: Load scheduler "me04" with entities [LocalPlayer, LocalPlayer], work=[318*, 0*]
133: 0x0464 [0x2A] GET_REQ_LEVEL(level=16, entity_id=??? (ID: 17097355/0x0104E28B))
134: 0x046A [0x52] END_LOAD_SCHEDULER: End scheduler "me04" with entities [LocalPlayer, LocalPlayer], work=318*
135: 0x0479 [0x45] LOAD_SCHEDULED_TASK: Load scheduler "hz08" with entities [LocalPlayer, LocalPlayer], work=[318*, 0*]
136: 0x048A [0x1C] WAIT(30* ticks)
137: 0x048D [0x2B] Luzaf (ID: 17097362/0x0104E292) [7667*]:
    → "Great Odin!"
138: 0x0494 [0x23] WAIT_FOR_DIALOG_INTERACTION
139: 0x0495 [0x52] END_LOAD_SCHEDULER: End scheduler "hz08" with entities [LocalPlayer, LocalPlayer], work=318*
140: 0x04A4 [0x45] LOAD_SCHEDULED_TASK: Load scheduler "hz09" with entities [LocalPlayer, LocalPlayer], work=[318*, 0*]
141: 0x04B5 [0x2B] Luzaf (ID: 17097362/0x0104E292) [7668*]:
    → "Sovereign of darkness and battle, lord of the underworld!"
142: 0x04BC [0x23] WAIT_FOR_DIALOG_INTERACTION
143: 0x04BD [0x52] END_LOAD_SCHEDULER: End scheduler "hz09" with entities [LocalPlayer, LocalPlayer], work=318*
144: 0x04CC [0x45] LOAD_SCHEDULED_TASK: Load scheduler "hz10" with entities [LocalPlayer, LocalPlayer], work=[318*, 0*]
145: 0x04DD [0x2B] Luzaf (ID: 17097362/0x0104E292) [7669*]:
    → "Your humble servant Luzaf stands on the threshold of your domain."
146: 0x04E4 [0x23] WAIT_FOR_DIALOG_INTERACTION
147: 0x04E5 [0x5D] SET_MUSIC_VOLUME(volume=64*, fade_time=120*)
148: 0x04EA [0x5B] LOAD_EXT_SCHEDULER: Load scheduler "his0" with entities [Nashmeira (ID: 17097361/0x0104E291), Nashmeira (ID: 17097361/0x0104E291)], work=1077*
149: 0x04F9 [0x52] END_LOAD_SCHEDULER: End scheduler "hz10" with entities [LocalPlayer, LocalPlayer], work=318*
150: 0x0508 [0x45] LOAD_SCHEDULED_TASK: Load scheduler "hz11" with entities [LocalPlayer, LocalPlayer], work=[318*, 0*]
151: 0x0519 [0x1C] WAIT(30* ticks)
152: 0x051C [0x3A] CONVERT_YAW_TO_BYTE(entity=Flit (ID: 17097363/0x0104E293), result_destination=ExtData[1]->WorkLocal[0])
153: 0x0523 [0x2B] Nashmeira (ID: 17097361/0x0104E291) [7670*]:
    → "Ah...didn't the Imperial Army seal off the entrance to the underworld?"
154: 0x052A [0x23] WAIT_FOR_DIALOG_INTERACTION
155: 0x052B [0x4A] Flit (ID: 17097363/0x0104E293) looks at Nashmeira (ID: 17097361/0x0104E291)
156: 0x0534 [0x52] END_LOAD_SCHEDULER: End scheduler "hz11" with entities [LocalPlayer, LocalPlayer], work=318*
157: 0x0543 [0x45] LOAD_SCHEDULED_TASK: Load scheduler "me05" with entities [LocalPlayer, LocalPlayer], work=[318*, 0*]
158: 0x0554 [0x2B] Flit (ID: 17097363/0x0104E293) [7671*]:
    → "The rules of time and space don't apply equally to this world and that, Miss."
159: 0x055B [0x23] WAIT_FOR_DIALOG_INTERACTION
160: 0x055C [0x52] END_LOAD_SCHEDULER: End scheduler "me05" with entities [LocalPlayer, LocalPlayer], work=318*
161: 0x056B [0x45] LOAD_SCHEDULED_TASK: Load scheduler "hz12" with entities [LocalPlayer, LocalPlayer], work=[318*, 0*]
162: 0x057C [0x2B] Flit (ID: 17097363/0x0104E293) [7672*]:
    → "By rights, this rent in the curtain between the two worlds, this...dimensional hiccup...shouldn't even exist."
163: 0x0583 [0x23] WAIT_FOR_DIALOG_INTERACTION
164: 0x0584 [0x2B] Flit (ID: 17097363/0x0104E293) [7673*]:
    → "No being, from either reality, has the art to mend such a fluke of fortune."
165: 0x058B [0x23] WAIT_FOR_DIALOG_INTERACTION
166: 0x058C [0x52] END_LOAD_SCHEDULER: End scheduler "hz12" with entities [LocalPlayer, LocalPlayer], work=318*
167: 0x059B [0x45] LOAD_SCHEDULED_TASK: Load scheduler "hz13" with entities [LocalPlayer, LocalPlayer], work=[318*, 0*]
168: 0x05AC [0x5B] LOAD_EXT_SCHEDULER: Load scheduler "udbs" with entities [Mnejing (ID: 17097359/0x0104E28F), Mnejing (ID: 17097359/0x0104E28F)], work=933*
169: 0x05BB [0x1C] WAIT(20* ticks)
170: 0x05BE [0x2B] Mnejing (ID: 17097359/0x0104E28F) [7674*]:
    → "I...see..."
171: 0x05C5 [0x23] WAIT_FOR_DIALOG_INTERACTION
172: 0x05C6 [0x2B] Flit (ID: 17097363/0x0104E293) [7675*]:
    → "Throwing a bunch of laboratory nasties in the path of potential meddlers was about the best they could do."
173: 0x05CD [0x23] WAIT_FOR_DIALOG_INTERACTION
174: 0x05CE [0x4A] Flit (ID: 17097363/0x0104E293) looks at Luzaf (ID: 17097362/0x0104E292)
175: 0x05D7 [0x52] END_LOAD_SCHEDULER: End scheduler "hz13" with entities [LocalPlayer, LocalPlayer], work=318*
176: 0x05E6 [0x45] LOAD_SCHEDULED_TASK: Load scheduler "hz14" with entities [LocalPlayer, LocalPlayer], work=[318*, 0*]
177: 0x05F7 [0x2B] Flit (ID: 17097363/0x0104E293) [7676*]:
    → "Ain't that right, Boss?"
178: 0x05FE [0x23] WAIT_FOR_DIALOG_INTERACTION
179: 0x05FF [0x52] END_LOAD_SCHEDULER: End scheduler "hz14" with entities [LocalPlayer, LocalPlayer], work=318*
180: 0x060E [0x45] LOAD_SCHEDULED_TASK: Load scheduler "me06" with entities [LocalPlayer, LocalPlayer], work=[318*, 0*]
181: 0x061F [0x5D] SET_MUSIC_VOLUME(volume=0*, fade_time=120*)
182: 0x0624 [0x2B] Luzaf (ID: 17097362/0x0104E292) [7677*]:
    → "Silence."
183: 0x062B [0x23] WAIT_FOR_DIALOG_INTERACTION
184: 0x062C [0x52] END_LOAD_SCHEDULER: End scheduler "me06" with entities [LocalPlayer, LocalPlayer], work=318*
185: 0x063B [0x45] LOAD_SCHEDULED_TASK: Load scheduler "hz15" with entities [LocalPlayer, LocalPlayer], work=[318*, 0*]
186: 0x064C [0x5B] LOAD_EXT_SCHEDULER: Load scheduler "his1" with entities [Nashmeira (ID: 17097361/0x0104E291), Nashmeira (ID: 17097361/0x0104E291)], work=1077*
187: 0x065B [0x1C] WAIT(20* ticks)
188: 0x065E [0x5B] LOAD_EXT_SCHEDULER: Load scheduler "com1" with entities [Luzaf (ID: 17097362/0x0104E292), Luzaf (ID: 17097362/0x0104E292)], work=1099*
189: 0x066D [0x2B] Luzaf (ID: 17097362/0x0104E292) [7678*]:
    → "The manifestation begins..."
190: 0x0674 [0x23] WAIT_FOR_DIALOG_INTERACTION
191: 0x0675 [0x4B] UPDATE_ENTITY_YAW(entity=Flit (ID: 17097363/0x0104E293), yaw=ExtData[1]->WorkLocal[0])
192: 0x067C [0xBB] LOAD_EVENT_SCHEDULER_ALT: Load scheduler 0xFEFEFE00 with entities [Ovjang (ID: 17097360/0x0104E290), Ovjang (ID: 17097360/0x0104E290)], work=[83*, 0*]
193: 0x068D [0xBB] LOAD_EVENT_SCHEDULER_ALT: Load scheduler 0xFEFEFE00 with entities [Mnejing (ID: 17097359/0x0104E28F), Mnejing (ID: 17097359/0x0104E28F)], work=[84*, 0*]
194: 0x069E [0xBB] LOAD_EVENT_SCHEDULER_ALT: Load scheduler 0xFEFEFE00 with entities [Nashmeira (ID: 17097361/0x0104E291), Nashmeira (ID: 17097361/0x0104E291)], work=[85*, 0*]
195: 0x06AF [0xBB] LOAD_EVENT_SCHEDULER_ALT: Load scheduler 0xFEFEFE00 with entities [Odin Prime (ID: 17097365/0x0104E295), Odin Prime (ID: 17097365/0x0104E295)], work=[74*, 0*]
196: 0x06C0 [0xBB] LOAD_EVENT_SCHEDULER_ALT: Load scheduler 0xFEFEFE00 with entities [Odin (ID: 17097364/0x0104E294), Odin (ID: 17097364/0x0104E294)], work=[73*, 0*]
197: 0x06D1 [0x52] END_LOAD_SCHEDULER: End scheduler "hz15" with entities [LocalPlayer, LocalPlayer], work=318*
198: 0x06E0 [0x45] LOAD_SCHEDULED_TASK: Load scheduler "hz16" with entities [LocalPlayer, LocalPlayer], work=[318*, 0*]
199: 0x06F1 [0x5B] LOAD_EXT_SCHEDULER: Load scheduler "pe02" with entities [Nashmeira (ID: 17097361/0x0104E291), Nashmeira (ID: 17097361/0x0104E291)], work=1053*
200: 0x0700 [0x5B] LOAD_EXT_SCHEDULER: Load scheduler "gs03" with entities [Ovjang (ID: 17097360/0x0104E290), Ovjang (ID: 17097360/0x0104E290)], work=950*
201: 0x070F [0x5B] LOAD_EXT_SCHEDULER: Load scheduler "gs04" with entities [Mnejing (ID: 17097359/0x0104E28F), Mnejing (ID: 17097359/0x0104E28F)], work=950*
202: 0x071E [0x1C] WAIT(120* ticks)
203: 0x0721 [0x45] LOAD_SCHEDULED_TASK: Load scheduler "1dok" with entities [LocalPlayer, LocalPlayer], work=[318*, 0*]
204: 0x0732 [0xBB] LOAD_EVENT_SCHEDULER_ALT: Load scheduler "s001" with entities [??? (ID: 17097355/0x0104E28B), ??? (ID: 17097355/0x0104E28B)], work=[71*, 0*]
205: 0x0743 [0x5C] MUSIC_CONTROL: Set Idle (Day) music to song 186*
206: 0x0747 [0x5C] MUSIC_CONTROL: Set Idle (Night) music to song 186*
207: 0x074B [0x9A] WAIT_MUSIC_SERVER()
208: 0x074C [0x1C] WAIT(60* ticks)
209: 0x074F [0x55] WAIT_LOAD_SCHEDULER: Wait for scheduler "hz16" with entities [LocalPlayer, LocalPlayer], work=318*
210: 0x075E [0x45] LOAD_SCHEDULED_TASK: Load scheduler "hz17" with entities [LocalPlayer, LocalPlayer], work=[318*, 0*]
211: 0x076F [0x55] WAIT_LOAD_SCHEDULER: Wait for scheduler "hz17" with entities [LocalPlayer, LocalPlayer], work=318*
212: 0x077E [0x45] LOAD_SCHEDULED_TASK: Load scheduler "hz18" with entities [LocalPlayer, LocalPlayer], work=[318*, 0*]
213: 0x078F [0x1C] WAIT(30* ticks)
214: 0x0792 [0x2B] Mnejing (ID: 17097359/0x0104E28F) [7679*]:
    → "Wh-what...what's happening?"
215: 0x0799 [0x23] WAIT_FOR_DIALOG_INTERACTION
216: 0x079A [0x52] END_LOAD_SCHEDULER: End scheduler "hz18" with entities [LocalPlayer, LocalPlayer], work=318*
217: 0x07A9 [0x45] LOAD_SCHEDULED_TASK: Load scheduler "me07" with entities [LocalPlayer, LocalPlayer], work=[318*, 0*]
218: 0x07BA [0x55] WAIT_LOAD_SCHEDULER: Wait for scheduler "me07" with entities [LocalPlayer, LocalPlayer], work=318*
219: 0x07C9 [0x45] LOAD_SCHEDULED_TASK: Load scheduler "hz19" with entities [LocalPlayer, LocalPlayer], work=[318*, 0*]
220: 0x07DA [0x5B] LOAD_EXT_SCHEDULER: Load scheduler "std0" with entities [Flit (ID: 17097363/0x0104E293), Flit (ID: 17097363/0x0104E293)], work=830*
221: 0x07E9 [0x55] WAIT_LOAD_SCHEDULER: Wait for scheduler "hz19" with entities [LocalPlayer, LocalPlayer], work=318*
222: 0x07F8 [0x45] LOAD_SCHEDULED_TASK: Load scheduler "hz20" with entities [LocalPlayer, LocalPlayer], work=[318*, 0*]
223: 0x0809 [0x1C] WAIT(40* ticks)
224: 0x080C [0x4E] SET_ENTITY_HIDE_FLAG: Hide Flit (ID: 17097363/0x0104E293)
225: 0x0812 [0xBA] SET_ENTITY_POSITION(entity_id=Flit (ID: 17097363/0x0104E293), pos_x=-283.904*, pos_z=-42.290*, pos_y=33.988*, direction=0.0°*)
226: 0x081F [0x81] SET_ENTITY_BLINKING(blink_flag=0x00, entity=Luzaf (ID: 17097362/0x0104E292))
227: 0x0825 [0x7C] Luzaf (ID: 17097362/0x0104E292)->Render.Flags2 |= 0x00
228: 0x082B [0x5B] LOAD_EXT_SCHEDULER: Load scheduler "tae0" with entities [Luzaf (ID: 17097362/0x0104E292), Luzaf (ID: 17097362/0x0104E292)], work=1127*
229: 0x083A [0x5B] LOAD_EXT_SCHEDULER: Load scheduler "odn0" with entities [Nashmeira (ID: 17097361/0x0104E291), Nashmeira (ID: 17097361/0x0104E291)], work=1051*
230: 0x0849 [0x5B] LOAD_EXT_SCHEDULER: Load scheduler "ood0" with entities [Ovjang (ID: 17097360/0x0104E290), Ovjang (ID: 17097360/0x0104E290)], work=984*
231: 0x0858 [0x5B] LOAD_EXT_SCHEDULER: Load scheduler "mod0" with entities [Mnejing (ID: 17097359/0x0104E28F), Mnejing (ID: 17097359/0x0104E28F)], work=984*
232: 0x0867 [0x81] SET_ENTITY_BLINKING(blink_flag=0x00, entity=Nashmeira (ID: 17097361/0x0104E291))
233: 0x086D [0xBB] LOAD_EVENT_SCHEDULER_ALT: Load scheduler "s002" with entities [??? (ID: 17097355/0x0104E28B), ??? (ID: 17097355/0x0104E28B)], work=[71*, 0*]
234: 0x087E [0x55] WAIT_LOAD_SCHEDULER: Wait for scheduler "hz20" with entities [LocalPlayer, LocalPlayer], work=318*
235: 0x088D [0x45] LOAD_SCHEDULED_TASK: Load scheduler "me08" with entities [LocalPlayer, LocalPlayer], work=[318*, 0*]
236: 0x089E [0x1C] WAIT(180* ticks)
237: 0x08A1 [0x52] END_LOAD_SCHEDULER: End scheduler "me08" with entities [LocalPlayer, LocalPlayer], work=318*
238: 0x08B0 [0x45] LOAD_SCHEDULED_TASK: Load scheduler "me09" with entities [LocalPlayer, LocalPlayer], work=[318*, 0*]
239: 0x08C1 [0x1C] WAIT(240* ticks)
240: 0x08C4 [0x52] END_LOAD_SCHEDULER: End scheduler "me09" with entities [LocalPlayer, LocalPlayer], work=318*
241: 0x08D3 [0x45] LOAD_SCHEDULED_TASK: Load scheduler "me10" with entities [LocalPlayer, LocalPlayer], work=[318*, 0*]
242: 0x08E4 [0x55] WAIT_LOAD_SCHEDULER: Wait for scheduler "me10" with entities [LocalPlayer, LocalPlayer], work=318*
243: 0x08F3 [0x45] LOAD_SCHEDULED_TASK: Load scheduler "hz21" with entities [LocalPlayer, LocalPlayer], work=[318*, 0*]
244: 0x0904 [0x2B] Nashmeira (ID: 17097361/0x0104E291) [7681*]:
    → "Ngh...this wind!"
245: 0x090B [0x23] WAIT_FOR_DIALOG_INTERACTION
246: 0x090C [0x52] END_LOAD_SCHEDULER: End scheduler "hz21" with entities [LocalPlayer, LocalPlayer], work=318*
247: 0x091B [0x45] LOAD_SCHEDULED_TASK: Load scheduler "me13" with entities [LocalPlayer, LocalPlayer], work=[318*, 0*]
248: 0x092C [0xBB] LOAD_EVENT_SCHEDULER_ALT: Load scheduler "main" with entities [Ovjang (ID: 17097360/0x0104E290), Ovjang (ID: 17097360/0x0104E290)], work=[83*, 0*]
249: 0x093D [0x5B] LOAD_EXT_SCHEDULER: Load scheduler "fki0" with entities [Ovjang (ID: 17097360/0x0104E290), Ovjang (ID: 17097360/0x0104E290)], work=1013*
250: 0x094C [0x1C] WAIT(45* ticks)
251: 0x094F [0x81] SET_ENTITY_BLINKING(blink_flag=0x00, entity=Nashmeira (ID: 17097361/0x0104E291))
252: 0x0955 [0xBB] LOAD_EVENT_SCHEDULER_ALT: Load scheduler "main" with entities [Nashmeira (ID: 17097361/0x0104E291), Nashmeira (ID: 17097361/0x0104E291)], work=[85*, 0*]
253: 0x0966 [0x5B] LOAD_EXT_SCHEDULER: Load scheduler "fki0" with entities [Nashmeira (ID: 17097361/0x0104E291), Nashmeira (ID: 17097361/0x0104E291)], work=1105*
254: 0x0975 [0x03] Work_Zone[2] = 460*
255: 0x097A [0x27] REQ_SET(priority=0x10, entity_id=??? (ID: 17097355/0x0104E28B), tag_num=0x03)
256: 0x0981 [0x1C] WAIT(30* ticks)
257: 0x0984 [0x52] END_LOAD_SCHEDULER: End scheduler "me13" with entities [LocalPlayer, LocalPlayer], work=318*
258: 0x0993 [0x45] LOAD_SCHEDULED_TASK: Load scheduler "hz22" with entities [LocalPlayer, LocalPlayer], work=[318*, 0*]
259: 0x09A4 [0x1C] WAIT(40* ticks)
260: 0x09A7 [0xBB] LOAD_EVENT_SCHEDULER_ALT: Load scheduler "main" with entities [Mnejing (ID: 17097359/0x0104E28F), Mnejing (ID: 17097359/0x0104E28F)], work=[84*, 0*]
261: 0x09B8 [0x5B] LOAD_EXT_SCHEDULER: Load scheduler "fki0" with entities [Mnejing (ID: 17097359/0x0104E28F), Mnejing (ID: 17097359/0x0104E28F)], work=1009*
262: 0x09C7 [0x1C] WAIT(200* ticks)
263: 0x09CA [0x2B] Nashmeira (ID: 17097361/0x0104E291) [7682*]:
    → "Aaahhh!!!"
264: 0x09D1 [0x2A] GET_REQ_LEVEL(level=16, entity_id=??? (ID: 17097355/0x0104E28B))
265: 0x09D7 [0x52] END_LOAD_SCHEDULER: End scheduler "hz22" with entities [LocalPlayer, LocalPlayer], work=318*
266: 0x09E6 [0x45] LOAD_SCHEDULED_TASK: Load scheduler "hz25" with entities [LocalPlayer, LocalPlayer], work=[318*, 0*]
267: 0x09F7 [0x4E] SET_ENTITY_HIDE_FLAG: Show Flit (ID: 17097363/0x0104E293)
268: 0x09FD [0x5B] LOAD_EXT_SCHEDULER: Load scheduler "nas0" with entities [Luzaf (ID: 17097362/0x0104E292), Luzaf (ID: 17097362/0x0104E292)], work=1127*
269: 0x0A0C [0x03] Work_Zone[2] = 270*
270: 0x0A11 [0x27] REQ_SET(priority=0x10, entity_id=??? (ID: 17097355/0x0104E28B), tag_num=0x03)
271: 0x0A18 [0x1C] WAIT(30* ticks)
272: 0x0A1B [0x2B] Luzaf (ID: 17097362/0x0104E292) [7684*]:
    → "Aphmau!"
273: 0x0A22 [0x1C] WAIT(90* ticks)
274: 0x0A25 [0x2B] Luzaf (ID: 17097362/0x0104E292) [7685*]:
    → "Are you harmed!?"
275: 0x0A2C [0x23] WAIT_FOR_DIALOG_INTERACTION
276: 0x0A2D [0x2A] GET_REQ_LEVEL(level=16, entity_id=??? (ID: 17097355/0x0104E28B))
277: 0x0A33 [0x52] END_LOAD_SCHEDULER: End scheduler "hz25" with entities [LocalPlayer, LocalPlayer], work=318*
278: 0x0A42 [0x45] LOAD_SCHEDULED_TASK: Load scheduler "hz26" with entities [LocalPlayer, LocalPlayer], work=[318*, 0*]
279: 0x0A53 [0x2B] Flit (ID: 17097363/0x0104E293) [7686*]:
    → "Boss!"
280: 0x0A5A [0x23] WAIT_FOR_DIALOG_INTERACTION
281: 0x0A5B [0x5B] LOAD_EXT_SCHEDULER: Load scheduler "tbu0" with entities [Flit (ID: 17097363/0x0104E293), Flit (ID: 17097363/0x0104E293)], work=830*
282: 0x0A6A [0xBB] LOAD_EVENT_SCHEDULER_ALT: Load scheduler "s000" with entities [Unnamed NPC (ID: 17097356/0x0104E28C), Unnamed NPC (ID: 17097356/0x0104E28C)], work=[72*, 0*]
283: 0x0A7B [0x1C] WAIT(90* ticks)
284: 0x0A7E [0x45] LOAD_SCHEDULED_TASK: Load scheduler "k045" with entities [LocalPlayer, LocalPlayer], work=[318*, 0*]
285: 0x0A8F [0xBB] LOAD_EVENT_SCHEDULER_ALT: Load scheduler "s003" with entities [??? (ID: 17097355/0x0104E28B), ??? (ID: 17097355/0x0104E28B)], work=[71*, 0*]
286: 0x0AA0 [0x52] END_LOAD_SCHEDULER: End scheduler "hz26" with entities [LocalPlayer, LocalPlayer], work=318*
287: 0x0AAF [0x45] LOAD_SCHEDULED_TASK: Load scheduler "hz27" with entities [LocalPlayer, LocalPlayer], work=[318*, 0*]
288: 0x0AC0 [0x2B] Flit (ID: 17097363/0x0104E293) [7687*]:
    → "Forget the girl. Do you want Lord Odin to arrive without the warm welcome of his servant?"
289: 0x0AC7 [0x23] WAIT_FOR_DIALOG_INTERACTION
290: 0x0AC8 [0x5B] LOAD_EXT_SCHEDULER: Load scheduler "flt0" with entities [Luzaf (ID: 17097362/0x0104E292), Luzaf (ID: 17097362/0x0104E292)], work=1127*
291: 0x0AD7 [0x03] Work_Zone[2] = 180*
292: 0x0ADC [0x27] REQ_SET(priority=0x10, entity_id=??? (ID: 17097355/0x0104E28B), tag_num=0x03)
293: 0x0AE3 [0x2B] Luzaf (ID: 17097362/0x0104E292) [7688*]:
    → "Flit! You knew this would happen!"
294: 0x0AEA [0x23] WAIT_FOR_DIALOG_INTERACTION
295: 0x0AEB [0x2A] GET_REQ_LEVEL(level=16, entity_id=??? (ID: 17097355/0x0104E28B))
296: 0x0AF1 [0x52] END_LOAD_SCHEDULER: End scheduler "hz27" with entities [LocalPlayer, LocalPlayer], work=318*
297: 0x0B00 [0x45] LOAD_SCHEDULED_TASK: Load scheduler "me12" with entities [LocalPlayer, LocalPlayer], work=[318*, 0*]
298: 0x0B11 [0x55] WAIT_LOAD_SCHEDULER: Wait for scheduler "me12" with entities [LocalPlayer, LocalPlayer], work=318*
299: 0x0B20 [0x45] LOAD_SCHEDULED_TASK: Load scheduler "me11" with entities [LocalPlayer, LocalPlayer], work=[318*, 0*]
300: 0x0B31 [0x5B] LOAD_EXT_SCHEDULER: Load scheduler "odn0" with entities [Luzaf (ID: 17097362/0x0104E292), Luzaf (ID: 17097362/0x0104E292)], work=1128*
301: 0x0B40 [0x1C] WAIT(60* ticks)
302: 0x0B43 [0x45] LOAD_SCHEDULED_TASK: Load scheduler "k046" with entities [LocalPlayer, LocalPlayer], work=[318*, 0*]
303: 0x0B54 [0x52] END_LOAD_SCHEDULER: End scheduler "me11" with entities [LocalPlayer, LocalPlayer], work=318*
304: 0x0B63 [0x45] LOAD_SCHEDULED_TASK: Load scheduler "hz28" with entities [LocalPlayer, LocalPlayer], work=[318*, 0*]
305: 0x0B74 [0xBB] LOAD_EVENT_SCHEDULER_ALT: Load scheduler "s000" with entities [Odin (ID: 17097364/0x0104E294), Odin (ID: 17097364/0x0104E294)], work=[73*, 0*]
306: 0x0B85 [0x03] Work_Zone[2] = 222*
307: 0x0B8A [0x27] REQ_SET(priority=0x10, entity_id=??? (ID: 17097355/0x0104E28B), tag_num=0x03)
308: 0x0B91 [0x1C] WAIT(70* ticks)
309: 0x0B94 [0x5B] LOAD_EXT_SCHEDULER: Load scheduler "odn1" with entities [Luzaf (ID: 17097362/0x0104E292), Luzaf (ID: 17097362/0x0104E292)], work=1128*
310: 0x0BA3 [0x2A] GET_REQ_LEVEL(level=16, entity_id=??? (ID: 17097355/0x0104E28B))
311: 0x0BA9 [0xBB] LOAD_EVENT_SCHEDULER_ALT: Load scheduler "s000" with entities [Odin (ID: 17097364/0x0104E294), Odin (ID: 17097364/0x0104E294)], work=[73*, 0*]
312: 0x0BBA [0x03] Work_Zone[2] = 200*
313: 0x0BBF [0x27] REQ_SET(priority=0x10, entity_id=??? (ID: 17097355/0x0104E28B), tag_num=0x03)
314: 0x0BC6 [0x1C] WAIT(70* ticks)
315: 0x0BC9 [0x5B] LOAD_EXT_SCHEDULER: Load scheduler "odn1" with entities [Luzaf (ID: 17097362/0x0104E292), Luzaf (ID: 17097362/0x0104E292)], work=1128*
316: 0x0BD8 [0x2A] GET_REQ_LEVEL(level=16, entity_id=??? (ID: 17097355/0x0104E28B))
317: 0x0BDE [0x52] END_LOAD_SCHEDULER: End scheduler "hz28" with entities [LocalPlayer, LocalPlayer], work=318*
318: 0x0BED [0x45] LOAD_SCHEDULED_TASK: Load scheduler "od00" with entities [LocalPlayer, LocalPlayer], work=[318*, 0*]
319: 0x0BFE [0x27] REQ_SET(priority=0x10, entity_id=Unnamed NPC (ID: 17097357/0x0104E28D), tag_num=0x03)
320: 0x0C05 [0x1C] WAIT(90* ticks)
321: 0x0C08 [0xBB] LOAD_EVENT_SCHEDULER_ALT: Load scheduler "main" with entities [Odin Prime (ID: 17097365/0x0104E295), Odin Prime (ID: 17097365/0x0104E295)], work=[74*, 0*]
322: 0x0C19 [0x5B] LOAD_EXT_SCHEDULER: Load scheduler "pop1" with entities [Odin Prime (ID: 17097365/0x0104E295), Odin Prime (ID: 17097365/0x0104E295)], work=1036*
323: 0x0C28 [0x03] Work_Zone[2] = 900*
324: 0x0C2D [0x27] REQ_SET(priority=0x10, entity_id=??? (ID: 17097355/0x0104E28B), tag_num=0x03)
325: 0x0C34 [0x52] END_LOAD_SCHEDULER: End scheduler "od00" with entities [LocalPlayer, LocalPlayer], work=318*
326: 0x0C43 [0x45] LOAD_SCHEDULED_TASK: Load scheduler "hz32" with entities [LocalPlayer, LocalPlayer], work=[318*, 0*]
327: 0x0C54 [0x1C] WAIT(15* ticks)
328: 0x0C57 [0xBA] SET_ENTITY_POSITION(entity_id=Nashmeira (ID: 17097361/0x0104E291), pos_x=-282.901*, pos_z=-44.792*, pos_y=33.975*, direction=315.0°*)
329: 0x0C64 [0xBA] SET_ENTITY_POSITION(entity_id=Ovjang (ID: 17097360/0x0104E290), pos_x=-281.440*, pos_z=-42.418*, pos_y=33.999*, direction=315.0°*)
330: 0x0C71 [0xBA] SET_ENTITY_POSITION(entity_id=Mnejing (ID: 17097359/0x0104E28F), pos_x=-283.042*, pos_z=-46.974*, pos_y=33.971*, direction=315.0°*)
331: 0x0C7E [0xBA] SET_ENTITY_POSITION(entity_id=Luzaf (ID: 17097362/0x0104E292), pos_x=-283.931*, pos_z=-41.927*, pos_y=33.999*, direction=135.0°*)
332: 0x0C8B [0xBA] SET_ENTITY_POSITION(entity_id=Flit (ID: 17097363/0x0104E293), pos_x=-286.079*, pos_z=-42.792*, pos_y=34.000*, direction=134.2°*)
333: 0x0C98 [0x81] SET_ENTITY_BLINKING(blink_flag=0x01, entity=Luzaf (ID: 17097362/0x0104E292))
334: 0x0C9E [0x7C] Luzaf (ID: 17097362/0x0104E292)->Render.Flags2 |= 0x01
335: 0x0CA4 [0x5B] LOAD_EXT_SCHEDULER: Load scheduler "sin0" with entities [Luzaf (ID: 17097362/0x0104E292), Luzaf (ID: 17097362/0x0104E292)], work=1100*
336: 0x0CB3 [0x5B] LOAD_EXT_SCHEDULER: Load scheduler "dwn0" with entities [Nashmeira (ID: 17097361/0x0104E291), Nashmeira (ID: 17097361/0x0104E291)], work=1105*
337: 0x0CC2 [0x5B] LOAD_EXT_SCHEDULER: Load scheduler "dwn0" with entities [Ovjang (ID: 17097360/0x0104E290), Ovjang (ID: 17097360/0x0104E290)], work=1013*
338: 0x0CD1 [0x5B] LOAD_EXT_SCHEDULER: Load scheduler "dwn0" with entities [Mnejing (ID: 17097359/0x0104E28F), Mnejing (ID: 17097359/0x0104E28F)], work=1009*
339: 0x0CE0 [0x2A] GET_REQ_LEVEL(level=16, entity_id=??? (ID: 17097355/0x0104E28B))
340: 0x0CE6 [0x27] REQ_SET(priority=0x10, entity_id=Flit (ID: 17097363/0x0104E293), tag_num=0x0A)
341: 0x0CED [0x1C] WAIT(15* ticks)
342: 0x0CF0 [0x52] END_LOAD_SCHEDULER: End scheduler "hz31" with entities [LocalPlayer, LocalPlayer], work=318*
343: 0x0CFF [0x52] END_LOAD_SCHEDULER: End scheduler "hz32" with entities [LocalPlayer, LocalPlayer], work=318*
344: 0x0D0E [0x45] LOAD_SCHEDULED_TASK: Load scheduler "hz35" with entities [LocalPlayer, LocalPlayer], work=[318*, 0*]
345: 0x0D1F [0x2A] GET_REQ_LEVEL(level=16, entity_id=Flit (ID: 17097363/0x0104E293))
346: 0x0D25 [0x52] END_LOAD_SCHEDULER: End scheduler "hz35" with entities [LocalPlayer, LocalPlayer], work=318*
347: 0x0D34 [0x45] LOAD_SCHEDULED_TASK: Load scheduler "hz36" with entities [LocalPlayer, LocalPlayer], work=[318*, 0*]
348: 0x0D45 [0x2B] Flit (ID: 17097363/0x0104E293) [7689*]:
    → "Great Odin, Lord of the Underworld!"
349: 0x0D4C [0x23] WAIT_FOR_DIALOG_INTERACTION
350: 0x0D4D [0x5B] LOAD_EXT_SCHEDULER: Load scheduler "kne0" with entities [Flit (ID: 17097363/0x0104E293), Flit (ID: 17097363/0x0104E293)], work=1087*
351: 0x0D5C [0x2B] Flit (ID: 17097363/0x0104E293) [7690*]:
    → "I trust Your Malevolence is well?"
352: 0x0D63 [0x23] WAIT_FOR_DIALOG_INTERACTION
353: 0x0D64 [0x52] END_LOAD_SCHEDULER: End scheduler "hz36" with entities [LocalPlayer, LocalPlayer], work=318*
354: 0x0D73 [0x45] LOAD_SCHEDULED_TASK: Load scheduler "me15" with entities [LocalPlayer, LocalPlayer], work=[318*, 0*]
355: 0x0D84 [0x1C] WAIT(30* ticks)
356: 0x0D87 [0x5B] LOAD_EXT_SCHEDULER: Load scheduler "kne1" with entities [Flit (ID: 17097363/0x0104E293), Flit (ID: 17097363/0x0104E293)], work=1087*
357: 0x0D96 [0x03] Work_Zone[2] = 110*
358: 0x0D9B [0x27] REQ_SET(priority=0x10, entity_id=??? (ID: 17097355/0x0104E28B), tag_num=0x03)
359: 0x0DA2 [0x1C] WAIT(60* ticks)
360: 0x0DA5 [0x52] END_LOAD_SCHEDULER: End scheduler "me15" with entities [LocalPlayer, LocalPlayer], work=318*
361: 0x0DB4 [0x45] LOAD_SCHEDULED_TASK: Load scheduler "hz37" with entities [LocalPlayer, LocalPlayer], work=[318*, 0*]
362: 0x0DC5 [0x2A] GET_REQ_LEVEL(level=16, entity_id=??? (ID: 17097355/0x0104E28B))
363: 0x0DCB [0x27] REQ_SET(priority=0x10, entity_id=Flit (ID: 17097363/0x0104E293), tag_num=0x0C)
364: 0x0DD2 [0x7C] Luzaf (ID: 17097362/0x0104E292)->Render.Flags2 |= 0x00
365: 0x0DD8 [0x2B] Luzaf (ID: 17097362/0x0104E292) [7691*]:
    → "..."
366: 0x0DDF [0x23] WAIT_FOR_DIALOG_INTERACTION
367: 0x0DE0 [0x7C] Luzaf (ID: 17097362/0x0104E292)->Render.Flags2 |= 0x01
368: 0x0DE6 [0x52] END_LOAD_SCHEDULER: End scheduler "hz37" with entities [LocalPlayer, LocalPlayer], work=318*
369: 0x0DF5 [0x45] LOAD_SCHEDULED_TASK: Load scheduler "hz38" with entities [LocalPlayer, LocalPlayer], work=[318*, 0*]
370: 0x0E06 [0x5B] LOAD_EXT_SCHEDULER: Load scheduler "tlk0" with entities [Flit (ID: 17097363/0x0104E293), Flit (ID: 17097363/0x0104E293)], work=830*
371: 0x0E15 [0x2B] Flit (ID: 17097363/0x0104E293) [7692*]:
    → "Look lively, Boss!"
372: 0x0E1C [0x23] WAIT_FOR_DIALOG_INTERACTION
373: 0x0E1D [0x5D] SET_MUSIC_VOLUME(volume=0*, fade_time=120*)
374: 0x0E22 [0x2B] Flit (ID: 17097363/0x0104E293) [7693*]:
    → "We don't want to offend His Maliciousness, now, do we?"
375: 0x0E29 [0x23] WAIT_FOR_DIALOG_INTERACTION
376: 0x0E2A [0x5B] LOAD_EXT_SCHEDULER: Load scheduler "tlk1" with entities [Flit (ID: 17097363/0x0104E293), Flit (ID: 17097363/0x0104E293)], work=830*
377: 0x0E39 [0x52] END_LOAD_SCHEDULER: End scheduler "hz38" with entities [LocalPlayer, LocalPlayer], work=318*
378: 0x0E48 [0x45] LOAD_SCHEDULED_TASK: Load scheduler "hz39" with entities [LocalPlayer, LocalPlayer], work=[318*, 0*]
379: 0x0E59 [0x5B] LOAD_EXT_SCHEDULER: Load scheduler "sin1" with entities [Luzaf (ID: 17097362/0x0104E292), Luzaf (ID: 17097362/0x0104E292)], work=1100*
380: 0x0E68 [0x1C] WAIT(60* ticks)
381: 0x0E6B [0x2B] Luzaf (ID: 17097362/0x0104E292) [7694*]:
    → "Aphmau...forgive me."
382: 0x0E72 [0x1C] WAIT(60* ticks)
383: 0x0E75 [0x1A] CALL_SUBROUTINE(address=0x3DEA)
384: 0x0E78 [0x1C] WAIT(60* ticks)
385: 0x0E7B [0x53] WAIT_SCHEDULER_TASK: Wait for scheduler "sin1" with entities [Luzaf (ID: 17097362/0x0104E292), Luzaf (ID: 17097362/0x0104E292)]
386: 0x0E88 [0x5C] MUSIC_CONTROL: Set Idle (Day) music to song 155*
387: 0x0E8C [0x5C] MUSIC_CONTROL: Set Idle (Night) music to song 155*
388: 0x0E90 [0x9A] WAIT_MUSIC_SERVER()
389: 0x0E91 [0x52] END_LOAD_SCHEDULER: End scheduler "hz39" with entities [LocalPlayer, LocalPlayer], work=318*
390: 0x0EA0 [0x45] LOAD_SCHEDULED_TASK: Load scheduler "hz40" with entities [LocalPlayer, LocalPlayer], work=[318*, 0*]
391: 0x0EB1 [0x1A] CALL_SUBROUTINE(address=0x3DC9)
392: 0x0EB4 [0x5B] LOAD_EXT_SCHEDULER: Load scheduler "hiz0" with entities [Luzaf (ID: 17097362/0x0104E292), Luzaf (ID: 17097362/0x0104E292)], work=1100*
393: 0x0EC3 [0x53] WAIT_SCHEDULER_TASK: Wait for scheduler "hiz0" with entities [Luzaf (ID: 17097362/0x0104E292), Luzaf (ID: 17097362/0x0104E292)]
394: 0x0ED0 [0x52] END_LOAD_SCHEDULER: End scheduler "hz40" with entities [LocalPlayer, LocalPlayer], work=318*
395: 0x0EDF [0x45] LOAD_SCHEDULED_TASK: Load scheduler "hz41" with entities [LocalPlayer, LocalPlayer], work=[318*, 0*]
396: 0x0EF0 [0x2B] Odin (ID: 17097364/0x0104E294) [7695*]:
    → "Art thou the one who summoned me?"
397: 0x0EF7 [0x23] WAIT_FOR_DIALOG_INTERACTION
398: 0x0EF8 [0x52] END_LOAD_SCHEDULER: End scheduler "hz41" with entities [LocalPlayer, LocalPlayer], work=318*
399: 0x0F07 [0x45] LOAD_SCHEDULED_TASK: Load scheduler "hz42" with entities [LocalPlayer, LocalPlayer], work=[318*, 0*]
400: 0x0F18 [0x2B] Luzaf (ID: 17097362/0x0104E292) [7696*]:
    → "Yes, my lord."
401: 0x0F1F [0x23] WAIT_FOR_DIALOG_INTERACTION
402: 0x0F20 [0x52] END_LOAD_SCHEDULER: End scheduler "hz42" with entities [LocalPlayer, LocalPlayer], work=318*
403: 0x0F2F [0x45] LOAD_SCHEDULED_TASK: Load scheduler "hz43" with entities [LocalPlayer, LocalPlayer], work=[318*, 0*]
404: 0x0F40 [0x2B] Odin (ID: 17097364/0x0104E294) [7697*]:
    → "Speak thy mind."
405: 0x0F47 [0x23] WAIT_FOR_DIALOG_INTERACTION
406: 0x0F48 [0x52] END_LOAD_SCHEDULER: End scheduler "hz43" with entities [LocalPlayer, LocalPlayer], work=318*
407: 0x0F57 [0x45] LOAD_SCHEDULED_TASK: Load scheduler "hz44" with entities [LocalPlayer, LocalPlayer], work=[318*, 0*]
408: 0x0F68 [0x5B] LOAD_EXT_SCHEDULER: Load scheduler "hiz1" with entities [Luzaf (ID: 17097362/0x0104E292), Luzaf (ID: 17097362/0x0104E292)], work=1100*
409: 0x0F77 [0x2B] Luzaf (ID: 17097362/0x0104E292) [7698*]:
    → "Great Odin, Devourer of Light!"
410: 0x0F7E [0x23] WAIT_FOR_DIALOG_INTERACTION
411: 0x0F7F [0x2B] Luzaf (ID: 17097362/0x0104E292) [7699*]:
    → "I wish to know the time that remains to me."
412: 0x0F86 [0x23] WAIT_FOR_DIALOG_INTERACTION
413: 0x0F87 [0x52] END_LOAD_SCHEDULER: End scheduler "hz44" with entities [LocalPlayer, LocalPlayer], work=318*
414: 0x0F96 [0x45] LOAD_SCHEDULED_TASK: Load scheduler "hz54" with entities [LocalPlayer, LocalPlayer], work=[318*, 0*]
415: 0x0FA7 [0x1C] WAIT(60* ticks)
416: 0x0FAA [0x2B] Odin (ID: 17097364/0x0104E294) [7700*]:
    → "Hast thou sated thy rage?"
417: 0x0FB1 [0x23] WAIT_FOR_DIALOG_INTERACTION
418: 0x0FB2 [0x52] END_LOAD_SCHEDULER: End scheduler "hz54" with entities [LocalPlayer, LocalPlayer], work=318*
419: 0x0FC1 [0x45] LOAD_SCHEDULED_TASK: Load scheduler "hz45" with entities [LocalPlayer, LocalPlayer], work=[318*, 0*]
420: 0x0FD2 [0x5B] LOAD_EXT_SCHEDULER: Load scheduler "hon0" with entities [Flit (ID: 17097363/0x0104E293), Flit (ID: 17097363/0x0104E293)], work=1087*
421: 0x0FE1 [0x1C] WAIT(60* ticks)
422: 0x0FE4 [0x2B] Luzaf (ID: 17097362/0x0104E292) [7701*]:
    → "Rage? What rage is this?"
423: 0x0FEB [0x23] WAIT_FOR_DIALOG_INTERACTION
424: 0x0FEC [0x52] END_LOAD_SCHEDULER: End scheduler "hz45" with entities [LocalPlayer, LocalPlayer], work=318*
425: 0x0FFB [0x45] LOAD_SCHEDULED_TASK: Load scheduler "hz46" with entities [LocalPlayer, LocalPlayer], work=[318*, 0*]
426: 0x100C [0x5B] LOAD_EXT_SCHEDULER: Load scheduler "aku0" with entities [Flit (ID: 17097363/0x0104E293), Flit (ID: 17097363/0x0104E293)], work=1087*
427: 0x101B [0x03] Work_Zone[2] = 210*
428: 0x1020 [0x27] REQ_SET(priority=0x10, entity_id=??? (ID: 17097355/0x0104E28B), tag_num=0x03)
429: 0x1027 [0x2B] Flit (ID: 17097363/0x0104E293) [7702*]:
    → "C'mon, Boss! Stick with the program!"
430: 0x102E [0x23] WAIT_FOR_DIALOG_INTERACTION
431: 0x102F [0x52] END_LOAD_SCHEDULER: End scheduler "hz46" with entities [LocalPlayer, LocalPlayer], work=318*
432: 0x103E [0x45] LOAD_SCHEDULED_TASK: Load scheduler "hz47" with entities [LocalPlayer, LocalPlayer], work=[318*, 0*]
433: 0x104F [0x2B] Flit (ID: 17097363/0x0104E293) [7703*]:
    → "Your rage towards the Empire!"
434: 0x1056 [0x23] WAIT_FOR_DIALOG_INTERACTION
435: 0x1057 [0x2A] GET_REQ_LEVEL(level=16, entity_id=??? (ID: 17097355/0x0104E28B))
436: 0x105D [0x52] END_LOAD_SCHEDULER: End scheduler "hz47" with entities [LocalPlayer, LocalPlayer], work=318*
437: 0x106C [0x45] LOAD_SCHEDULED_TASK: Load scheduler "hz48" with entities [LocalPlayer, LocalPlayer], work=[318*, 0*]
438: 0x107D [0x2B] Luzaf (ID: 17097362/0x0104E292) [7704*]:
    → "No, not sated..."
439: 0x1084 [0x23] WAIT_FOR_DIALOG_INTERACTION
440: 0x1085 [0x2B] Luzaf (ID: 17097362/0x0104E292) [7705*]:
    → "My rage... My rage has subsided."
441: 0x108C [0x23] WAIT_FOR_DIALOG_INTERACTION
442: 0x108D [0x52] END_LOAD_SCHEDULER: End scheduler "hz48" with entities [LocalPlayer, LocalPlayer], work=318*
443: 0x109C [0x45] LOAD_SCHEDULED_TASK: Load scheduler "hz49" with entities [LocalPlayer, LocalPlayer], work=[318*, 0*]
444: 0x10AD [0x1C] WAIT(60* ticks)
445: 0x10B0 [0x2B] Odin (ID: 17097364/0x0104E294) [7700*]:
    → "Hast thou sated thy rage?"
446: 0x10B7 [0x23] WAIT_FOR_DIALOG_INTERACTION
447: 0x10B8 [0x7C] Luzaf (ID: 17097362/0x0104E292)->Render.Flags2 |= 0x00
448: 0x10BE [0x2B] Luzaf (ID: 17097362/0x0104E292) [7706*]:
    → "?"
449: 0x10C5 [0x23] WAIT_FOR_DIALOG_INTERACTION
450: 0x10C6 [0x7C] Luzaf (ID: 17097362/0x0104E292)->Render.Flags2 |= 0x01
451: 0x10CC [0x52] END_LOAD_SCHEDULER: End scheduler "hz49" with entities [LocalPlayer, LocalPlayer], work=318*
452: 0x10DB [0x45] LOAD_SCHEDULED_TASK: Load scheduler "hz50" with entities [LocalPlayer, LocalPlayer], work=[318*, 0*]
453: 0x10EC [0x2B] Luzaf (ID: 17097362/0x0104E292) [7707*]:
    → "Great Odin."
454: 0x10F3 [0x23] WAIT_FOR_DIALOG_INTERACTION
455: 0x10F4 [0x2B] Luzaf (ID: 17097362/0x0104E292) [7708*]:
    → "I have uncovered a purpose more deserving than simple revenge."
456: 0x10FB [0x23] WAIT_FOR_DIALOG_INTERACTION
457: 0x10FC [0x5B] LOAD_EXT_SCHEDULER: Load scheduler "hiz2" with entities [Luzaf (ID: 17097362/0x0104E292), Luzaf (ID: 17097362/0x0104E292)], work=1100*
458: 0x110B [0x1C] WAIT(45* ticks)
459: 0x110E [0x52] END_LOAD_SCHEDULER: End scheduler "hz50" with entities [LocalPlayer, LocalPlayer], work=318*
460: 0x111D [0x45] LOAD_SCHEDULED_TASK: Load scheduler "hz51" with entities [LocalPlayer, LocalPlayer], work=[318*, 0*]
461: 0x112E [0x2B] Luzaf (ID: 17097362/0x0104E292) [7709*]:
    → "The descendants of Ephramad."
462: 0x1135 [0x23] WAIT_FOR_DIALOG_INTERACTION
463: 0x1136 [0x2B] Luzaf (ID: 17097362/0x0104E292) [7710*]:
    → "I wish to devote the remainder of my existence to building a kingdom in which they can live without fear of persecution."
464: 0x113D [0x23] WAIT_FOR_DIALOG_INTERACTION
465: 0x113E [0x5D] SET_MUSIC_VOLUME(volume=0*, fade_time=300*)
466: 0x1143 [0x52] END_LOAD_SCHEDULER: End scheduler "hz51" with entities [LocalPlayer, LocalPlayer], work=318*
467: 0x1152 [0x45] LOAD_SCHEDULED_TASK: Load scheduler "hz52" with entities [LocalPlayer, LocalPlayer], work=[318*, 0*]
468: 0x1163 [0x2B] Luzaf (ID: 17097362/0x0104E292) [7711*]:
    → "That is now my driving desire."
469: 0x116A [0x23] WAIT_FOR_DIALOG_INTERACTION
470: 0x116B [0x5B] LOAD_EXT_SCHEDULER: Load scheduler "hiz1" with entities [Luzaf (ID: 17097362/0x0104E292), Luzaf (ID: 17097362/0x0104E292)], work=1100*
471: 0x117A [0x2B] Luzaf (ID: 17097362/0x0104E292) [7712*]:
    → "And so I ask for time...time to act freely."
472: 0x1181 [0x23] WAIT_FOR_DIALOG_INTERACTION
473: 0x1182 [0x52] END_LOAD_SCHEDULER: End scheduler "hz52" with entities [LocalPlayer, LocalPlayer], work=318*
474: 0x1191 [0x45] LOAD_SCHEDULED_TASK: Load scheduler "hz53" with entities [LocalPlayer, LocalPlayer], work=[318*, 0*]
475: 0x11A2 [0x5B] LOAD_EXT_SCHEDULER: Load scheduler "yre0" with entities [Flit (ID: 17097363/0x0104E293), Flit (ID: 17097363/0x0104E293)], work=1087*
476: 0x11B1 [0x03] Work_Zone[2] = 270*
477: 0x11B6 [0x27] REQ_SET(priority=0x10, entity_id=??? (ID: 17097355/0x0104E28B), tag_num=0x03)
478: 0x11BD [0x1C] WAIT(45* ticks)
479: 0x11C0 [0x2B] Flit (ID: 17097363/0x0104E293) [7713*]:
    → "Well ain't that a sweet idea."
480: 0x11C7 [0x23] WAIT_FOR_DIALOG_INTERACTION
481: 0x11C8 [0x2A] GET_REQ_LEVEL(level=16, entity_id=??? (ID: 17097355/0x0104E28B))
482: 0x11CE [0x52] END_LOAD_SCHEDULER: End scheduler "hz53" with entities [LocalPlayer, LocalPlayer], work=318*
483: 0x11DD [0x45] LOAD_SCHEDULED_TASK: Load scheduler "hz54" with entities [LocalPlayer, LocalPlayer], work=[318*, 0*]
484: 0x11EE [0x1C] WAIT(60* ticks)
485: 0x11F1 [0x2B] Odin (ID: 17097364/0x0104E294) [7700*]:
    → "Hast thou sated thy rage?"
486: 0x11F8 [0x23] WAIT_FOR_DIALOG_INTERACTION
487: 0x11F9 [0x52] END_LOAD_SCHEDULER: End scheduler "hz54" with entities [LocalPlayer, LocalPlayer], work=318*
488: 0x1208 [0x45] LOAD_SCHEDULED_TASK: Load scheduler "hz55" with entities [LocalPlayer, LocalPlayer], work=[318*, 0*]
489: 0x1219 [0x1C] WAIT(60* ticks)
490: 0x121C [0x2B] Luzaf (ID: 17097362/0x0104E292) [7714*]:
    → "I...I do not understand."
491: 0x1223 [0x23] WAIT_FOR_DIALOG_INTERACTION
492: 0x1224 [0x5C] MUSIC_CONTROL: Set Idle (Day) music to song 121*
493: 0x1228 [0x5C] MUSIC_CONTROL: Set Idle (Night) music to song 121*
494: 0x122C [0x9A] WAIT_MUSIC_SERVER()
495: 0x122D [0x2B] Flit (ID: 17097363/0x0104E293) [7715*]:
    → "Hee hee, hee hee."
496: 0x1234 [0x23] WAIT_FOR_DIALOG_INTERACTION
497: 0x1235 [0x52] END_LOAD_SCHEDULER: End scheduler "hz55" with entities [LocalPlayer, LocalPlayer], work=318*
498: 0x1244 [0x45] LOAD_SCHEDULED_TASK: Load scheduler "hz56" with entities [LocalPlayer, LocalPlayer], work=[318*, 0*]
499: 0x1255 [0x5B] LOAD_EXT_SCHEDULER: Load scheduler "hza0" with entities [Luzaf (ID: 17097362/0x0104E292), Luzaf (ID: 17097362/0x0104E292)], work=1101*
500: 0x1264 [0x1C] WAIT(45* ticks)
501: 0x1267 [0x5B] LOAD_EXT_SCHEDULER: Load scheduler "aku0" with entities [Flit (ID: 17097363/0x0104E293), Flit (ID: 17097363/0x0104E293)], work=1087*
502: 0x1276 [0x2B] Flit (ID: 17097363/0x0104E293) [7716*]:
    → "Didn't I tell you, Boss?"
503: 0x127D [0x23] WAIT_FOR_DIALOG_INTERACTION
504: 0x127E [0x2B] Flit (ID: 17097363/0x0104E293) [7717*]:
    → "You've already made your pact. The contract is signed and sealed."
505: 0x1285 [0x23] WAIT_FOR_DIALOG_INTERACTION
506: 0x1286 [0x52] END_LOAD_SCHEDULER: End scheduler "hz56" with entities [LocalPlayer, LocalPlayer], work=318*
507: 0x1295 [0x45] LOAD_SCHEDULED_TASK: Load scheduler "hz57" with entities [LocalPlayer, LocalPlayer], work=[318*, 0*]
508: 0x12A6 [0x1C] WAIT(30* ticks)
509: 0x12A9 [0x7C] Luzaf (ID: 17097362/0x0104E292)->Render.Flags2 |= 0x00
510: 0x12AF [0x2B] Luzaf (ID: 17097362/0x0104E292) [7691*]:
    → "..."
511: 0x12B6 [0x23] WAIT_FOR_DIALOG_INTERACTION
512: 0x12B7 [0x7C] Luzaf (ID: 17097362/0x0104E292)->Render.Flags2 |= 0x01
513: 0x12BD [0x52] END_LOAD_SCHEDULER: End scheduler "hz57" with entities [LocalPlayer, LocalPlayer], work=318*
514: 0x12CC [0x45] LOAD_SCHEDULED_TASK: Load scheduler "hz58" with entities [LocalPlayer, LocalPlayer], work=[318*, 0*]
515: 0x12DD [0x2B] Flit (ID: 17097363/0x0104E293) [7718*]:
    → "You will become the next incarnation of the Dark Rider--whether you're ready or not."
516: 0x12E4 [0x23] WAIT_FOR_DIALOG_INTERACTION
517: 0x12E5 [0x2B] Luzaf (ID: 17097362/0x0104E292) [7719*]:
    → "The next incarnation...? The terms of the pact--"
518: 0x12EC [0x23] WAIT_FOR_DIALOG_INTERACTION
519: 0x12ED [0x52] END_LOAD_SCHEDULER: End scheduler "hz58" with entities [LocalPlayer, LocalPlayer], work=318*
520: 0x12FC [0x45] LOAD_SCHEDULED_TASK: Load scheduler "hz59" with entities [LocalPlayer, LocalPlayer], work=[318*, 0*]
521: 0x130D [0x2B] Flit (ID: 17097363/0x0104E293) [7720*]:
    → "Are non-negotiable."
522: 0x1314 [0x23] WAIT_FOR_DIALOG_INTERACTION
523: 0x1315 [0x5B] LOAD_EXT_SCHEDULER: Load scheduler "yre0" with entities [Flit (ID: 17097363/0x0104E293), Flit (ID: 17097363/0x0104E293)], work=1087*
524: 0x1324 [0x2B] Flit (ID: 17097363/0x0104E293) [7721*]:
    → "But I'll let you in on a secret, Boss. Before you are completely consumed by the essence of the rider..."
525: 0x132B [0x23] WAIT_FOR_DIALOG_INTERACTION
526: 0x132C [0x52] END_LOAD_SCHEDULER: End scheduler "hz59" with entities [LocalPlayer, LocalPlayer], work=318*
527: 0x133B [0x45] LOAD_SCHEDULED_TASK: Load scheduler "hz60" with entities [LocalPlayer, LocalPlayer], work=[318*, 0*]
528: 0x134C [0x2B] Flit (ID: 17097363/0x0104E293) [7722*]:
    → "...there is a period when you will retain free will."
529: 0x1353 [0x23] WAIT_FOR_DIALOG_INTERACTION
530: 0x1354 [0x5B] LOAD_EXT_SCHEDULER: Load scheduler "hza1" with entities [Luzaf (ID: 17097362/0x0104E292), Luzaf (ID: 17097362/0x0104E292)], work=1101*
531: 0x1363 [0x1C] WAIT(60* ticks)
532: 0x1366 [0x2B] Luzaf (ID: 17097362/0x0104E292) [7723*]:
    → "And how am I to fulfill this pact?"
533: 0x136D [0x23] WAIT_FOR_DIALOG_INTERACTION
534: 0x136E [0x53] WAIT_SCHEDULER_TASK: Wait for scheduler "yre0" with entities [Flit (ID: 17097363/0x0104E293), Flit (ID: 17097363/0x0104E293)]
535: 0x137B [0x52] END_LOAD_SCHEDULER: End scheduler "hz60" with entities [LocalPlayer, LocalPlayer], work=318*
536: 0x138A [0x45] LOAD_SCHEDULED_TASK: Load scheduler "hz61" with entities [LocalPlayer, LocalPlayer], work=[318*, 0*]
537: 0x139B [0x5B] LOAD_EXT_SCHEDULER: Load scheduler "sou0" with entities [Flit (ID: 17097363/0x0104E293), Flit (ID: 17097363/0x0104E293)], work=1086*
538: 0x13AA [0x2B] Flit (ID: 17097363/0x0104E293) [7724*]:
    → "Well, that's simple."
539: 0x13B1 [0x23] WAIT_FOR_DIALOG_INTERACTION
540: 0x13B2 [0x2B] Flit (ID: 17097363/0x0104E293) [7725*]:
    → "All you gotta do is remember."
541: 0x13B9 [0x23] WAIT_FOR_DIALOG_INTERACTION
542: 0x13BA [0x52] END_LOAD_SCHEDULER: End scheduler "hz61" with entities [LocalPlayer, LocalPlayer], work=318*
543: 0x13C9 [0x45] LOAD_SCHEDULED_TASK: Load scheduler "hz62" with entities [LocalPlayer, LocalPlayer], work=[318*, 0*]
544: 0x13DA [0x2B] Flit (ID: 17097363/0x0104E293) [7726*]:
    → "Remember how your people suffered and perished at the merciless hands of the Empire."
545: 0x13E1 [0x23] WAIT_FOR_DIALOG_INTERACTION
546: 0x13E2 [0x5B] LOAD_EXT_SCHEDULER: Load scheduler "sou1" with entities [Flit (ID: 17097363/0x0104E293), Flit (ID: 17097363/0x0104E293)], work=1086*
547: 0x13F1 [0x03] Work_Zone[2] = 120*
548: 0x13F6 [0x27] REQ_SET(priority=0x10, entity_id=??? (ID: 17097355/0x0104E28B), tag_num=0x03)
549: 0x13FD [0x2B] Flit (ID: 17097363/0x0104E293) [7727*]:
    → "I'm sure the memories are still crystal clear for you."
550: 0x1404 [0x23] WAIT_FOR_DIALOG_INTERACTION
551: 0x1405 [0x2A] GET_REQ_LEVEL(level=16, entity_id=??? (ID: 17097355/0x0104E28B))
552: 0x140B [0x5B] LOAD_EXT_SCHEDULER: Load scheduler "tbu0" with entities [Flit (ID: 17097363/0x0104E293), Flit (ID: 17097363/0x0104E293)], work=830*
553: 0x141A [0x1C] WAIT(120* ticks)
554: 0x141D [0x52] END_LOAD_SCHEDULER: End scheduler "hz62" with entities [LocalPlayer, LocalPlayer], work=318*
555: 0x142C [0x45] LOAD_SCHEDULED_TASK: Load scheduler "hz63" with entities [LocalPlayer, LocalPlayer], work=[318*, 0*]
556: 0x143D [0x4A] Flit (ID: 17097363/0x0104E293) looks at Nashmeira (ID: 17097361/0x0104E291)
557: 0x1446 [0x2B] Flit (ID: 17097363/0x0104E293) [7728*]:
    → "You just gotta hurl that big, venomous ball of rage..."
558: 0x144D [0x23] WAIT_FOR_DIALOG_INTERACTION
559: 0x144E [0x53] WAIT_SCHEDULER_TASK: Wait for scheduler "tbu0" with entities [Flit (ID: 17097363/0x0104E293), Flit (ID: 17097363/0x0104E293)]
560: 0x145B [0x5B] LOAD_EXT_SCHEDULER: Load scheduler "pnt0" with entities [Flit (ID: 17097363/0x0104E293), Flit (ID: 17097363/0x0104E293)], work=1029*
561: 0x146A [0x03] Work_Zone[2] = 45*
562: 0x146F [0x27] REQ_SET(priority=0x10, entity_id=??? (ID: 17097355/0x0104E28B), tag_num=0x03)
563: 0x1476 [0x1C] WAIT(10* ticks)
564: 0x1479 [0x52] END_LOAD_SCHEDULER: End scheduler "hz63" with entities [LocalPlayer, LocalPlayer], work=318*
565: 0x1488 [0x45] LOAD_SCHEDULED_TASK: Load scheduler "hz64" with entities [LocalPlayer, LocalPlayer], work=[318*, 0*]
566: 0x1499 [0x1C] WAIT(30* ticks)
567: 0x149C [0x2B] Flit (ID: 17097363/0x0104E293) [7729*]:
    → "...at her!"
568: 0x14A3 [0x23] WAIT_FOR_DIALOG_INTERACTION
569: 0x14A4 [0x2A] GET_REQ_LEVEL(level=16, entity_id=??? (ID: 17097355/0x0104E28B))
570: 0x14AA [0x52] END_LOAD_SCHEDULER: End scheduler "hz64" with entities [LocalPlayer, LocalPlayer], work=318*
571: 0x14B9 [0x45] LOAD_SCHEDULED_TASK: Load scheduler "hz65" with entities [LocalPlayer, LocalPlayer], work=[318*, 0*]
572: 0x14CA [0x1C] WAIT(45* ticks)
573: 0x14CD [0x7C] Luzaf (ID: 17097362/0x0104E292)->Render.Flags2 |= 0x00
574: 0x14D3 [0x2B] Luzaf (ID: 17097362/0x0104E292) [7691*]:
    → "..."
575: 0x14DA [0x23] WAIT_FOR_DIALOG_INTERACTION
576: 0x14DB [0x7C] Luzaf (ID: 17097362/0x0104E292)->Render.Flags2 |= 0x01
577: 0x14E1 [0x1A] CALL_SUBROUTINE(address=0x3DEA)
578: 0x14E4 [0x1C] WAIT(30* ticks)
579: 0x14E7 [0xBB] LOAD_EVENT_SCHEDULER_ALT: Load scheduler "stop" with entities [Unnamed NPC (ID: 17097356/0x0104E28C), Unnamed NPC (ID: 17097356/0x0104E28C)], work=[72*, 0*]
580: 0x14F8 [0xBB] LOAD_EVENT_SCHEDULER_ALT: Load scheduler "klal" with entities [??? (ID: 17097355/0x0104E28B), ??? (ID: 17097355/0x0104E28B)], work=[71*, 0*]
581: 0x1509 [0x52] END_LOAD_SCHEDULER: End scheduler "hz65" with entities [LocalPlayer, LocalPlayer], work=318*
582: 0x1518 [0x45] LOAD_SCHEDULED_TASK: Load scheduler "0blf" with entities [LocalPlayer, LocalPlayer], work=[318*, 0*]
583: 0x1529 [0x5C] MUSIC_CONTROL: Set Idle (Day) music to song 0*
584: 0x152D [0x5C] MUSIC_CONTROL: Set Idle (Night) music to song 0*
585: 0x1531 [0x5C] MUSIC_CONTROL: Set Combat (Solo) music to song 143*
586: 0x1535 [0x5C] MUSIC_CONTROL: Set Combat (Party) music to song 143*
587: 0x1539 [0x9A] WAIT_MUSIC_SERVER()
588: 0x153A [0x46] CAMERA_CONTROL: Restore default settings
589: 0x153C [0x45] LOAD_SCHEDULED_TASK: Load scheduler "fdi2" with entities [LocalPlayer, LocalPlayer], work=[200*, 0*]
590: 0x154D [0x21] END_EVENT
591: 0x154E [0x00] END_REQSTACK()
```

### Event 7

#### Metadata

| Field        | Value       |
|--------------|-------------|
| Entrypoint   | 0x154F      |
| Data Size    | 10953 bytes |
| Instructions | 1133        |

```
