# 17097375

## Common Data

| Field            | Value                            |
|------------------|----------------------------------|
| Zone             | Hazhalm Testing Grounds (ID: 78) |
| Block Size       | 28036 bytes                      |
| Total Events     | 8                                |
| References Count | 260                              |

## List of Events

| Event ID              | Entrypoint   |   Size |   Instructions |
|-----------------------|--------------|--------|----------------|
| [65535](#event-65535) | 0x0000       |      1 |              1 |
| [9](#event-9)         | 0x0001       |   2875 |            287 |
| [10](#event-10)       | 0x0B3C       |   1404 |            214 |
| [11](#event-11)       | 0x10B8       |   1514 |            164 |
| [12](#event-12)       | 0x16A2       |  16595 |           1861 |
| [16](#event-16)       | 0x5775       |    791 |             98 |
| [13](#event-13)       | 0x5A8C       |   1508 |            162 |
| [14](#event-14)       | 0x6070       |   2258 |            292 |

## DAT References (imed_data)

|   Index | Hex Value   |   Dec Value |
|---------|-------------|-------------|
|       0 | 0x0013      |          19 |
|       1 | 0x0001      |           1 |
|       2 | 0xFFFB9318  |  4294677272 |
|       3 | 0xFFFF3BCA  |  4294917066 |
|       4 | 0x86A4      |       34468 |
|       5 | 0x0DCA      |        3530 |
|       6 | 0xFFFBC9F8  |  4294691320 |
|       7 | 0xFFFF73BB  |  4294931387 |
|       8 | 0x8496      |       33942 |
|       9 | 0x0E00      |        3584 |
|      10 | 0xFFFBB9EE  |  4294687214 |
|      11 | 0xFFFF62BD  |  4294927037 |
|      12 | 0x84CF      |       33999 |
|      13 | 0x0D9A      |        3482 |
|      14 | 0xFFFB87B9  |  4294674361 |
|      15 | 0xFFFF361A  |  4294915610 |
|      16 | 0x798A      |       31114 |
|      17 | 0x0645      |        1605 |
|      18 | 0x009B      |         155 |
|      19 | 0x0047      |          71 |
|      20 | 0x0000      |           0 |
|      21 | 0x004A      |          74 |
|      22 | 0x0049      |          73 |
|      23 | 0x000F      |          15 |
|      24 | 0x0028      |          40 |
|      25 | 0x0209      |         521 |
|      26 | 0x00C8      |         200 |
|      27 | 0x0064      |         100 |
|      28 | 0x013E      |         318 |
|      29 | 0x003C      |          60 |
|      30 | 0x0078      |         120 |
|      31 | 0x0050      |          80 |
|      32 | 0xFFFBA8AE  |  4294682798 |
|      33 | 0xFFFF550E  |  4294923534 |
|      34 | 0x84A6      |       33958 |
|      35 | 0x0DE7      |        3559 |
|      36 | 0xFFFBA877  |  4294682743 |
|      37 | 0xFFFF529A  |  4294922906 |
|      38 | 0x84A8      |       33960 |
|      39 | 0x00B4      |         180 |
|      40 | 0x0048      |          72 |
|      41 | 0x005A      |          90 |
|      42 | 0x0014      |          20 |
|      43 | 0x00DE      |         222 |
|      44 | 0x0046      |          70 |
|      45 | 0x0096      |         150 |
|      46 | 0x05F9      |        1529 |
|      47 | 0x0003      |           3 |
|      48 | 0x0005      |           5 |
|      49 | 0x0006      |           6 |
|      50 | 0x0008      |           8 |
|      51 | 0x040C      |        1036 |
|      52 | 0x0384      |         900 |
|      53 | 0x0002      |           2 |
|      54 | 0x0007      |           7 |
|      55 | 0x1EAC      |        7852 |
|      56 | 0x1EAD      |        7853 |
|      57 | 0x1EAE      |        7854 |
|      58 | 0x1EAF      |        7855 |
|      59 | 0x04BE      |        1214 |
|      60 | 0x000A      |          10 |
|      61 | 0x0032      |          50 |
|      62 | 0x1EB0      |        7856 |
|      63 | 0xFFFBC8A6  |  4294690982 |
|      64 | 0xFFFF7319  |  4294931225 |
|      65 | 0x8492      |       33938 |
|      66 | 0x0514      |        1300 |
|      67 | 0x004C      |          76 |
|      68 | 0x001E      |          30 |
|      69 | 0x0DC9      |        3529 |
|      70 | 0x1EB1      |        7857 |
|      71 | 0x00BA      |         186 |
|      72 | 0x1EB2      |        7858 |
|      73 | 0x0080      |         128 |
|      74 | 0x0057      |          87 |
|      75 | 0x0058      |          88 |
|      76 | 0x1EB3      |        7859 |
|      77 | 0x1EB4      |        7860 |
|      78 | 0x1EB5      |        7861 |
|      79 | 0x1EB6      |        7862 |
|      80 | 0x1EB7      |        7863 |
|      81 | 0x002C      |          44 |
|      82 | 0x1EB8      |        7864 |
|      83 | 0x2D1A      |       11546 |
|      84 | 0x1EB9      |        7865 |
|      85 | 0x1EBA      |        7866 |
|      86 | 0x1EBE      |        7870 |
|      87 | 0x3EB9      |       16057 |
|      88 | 0x2D45      |       11589 |
|      89 | 0x1EBB      |        7867 |
|      90 | 0x0004      |           4 |
|      91 | 0x1EBC      |        7868 |
|      92 | 0x1EBF      |        7871 |
|      93 | 0x1EC1      |        7873 |
|      94 | 0x1EC2      |        7874 |
|      95 | 0x040D      |        1037 |
|      96 | 0x006E      |         110 |
|      97 | 0x1EC3      |        7875 |
|      98 | 0x00D2      |         210 |
|      99 | 0x1EC7      |        7879 |
|     100 | 0x1EC8      |        7880 |
|     101 | 0x1EC9      |        7881 |
|     102 | 0x6DD2      |       28114 |
|     103 | 0x0016      |          22 |
|     104 | 0x0042      |          66 |
|     105 | 0x000B      |          11 |
|     106 | 0x1ECC      |        7884 |
|     107 | 0x0015      |          21 |
|     108 | 0x0017      |          23 |
|     109 | 0x0018      |          24 |
|     110 | 0x0019      |          25 |
|     111 | 0x1EBD      |        7869 |
|     112 | 0x1EC4      |        7876 |
|     113 | 0x1EC5      |        7877 |
|     114 | 0x1EC6      |        7878 |
|     115 | 0x0206      |         518 |
|     116 | 0x0009      |           9 |
|     117 | 0x0037      |          55 |
|     118 | 0x1ECD      |        7885 |
|     119 | 0x1ECE      |        7886 |
|     120 | 0x1ECF      |        7887 |
|     121 | 0x1ED0      |        7888 |
|     122 | 0x1ED1      |        7889 |
|     123 | 0x1ED2      |        7890 |
|     124 | 0x1ED3      |        7891 |
|     125 | 0x1ED4      |        7892 |
|     126 | 0x1ED5      |        7893 |
|     127 | 0x1ED6      |        7894 |
|     128 | 0x1ED7      |        7895 |
|     129 | 0x1ED8      |        7896 |
|     130 | 0x1ED9      |        7897 |
|     131 | 0x1EDA      |        7898 |
|     132 | 0x1EDB      |        7899 |
|     133 | 0x1EDC      |        7900 |
|     134 | 0x1EDD      |        7901 |
|     135 | 0x1EDE      |        7902 |
|     136 | 0x1EDF      |        7903 |
|     137 | 0x1EE0      |        7904 |
|     138 | 0x1EE1      |        7905 |
|     139 | 0x1EE2      |        7906 |
|     140 | 0x1EE3      |        7907 |
|     141 | 0x1EE4      |        7908 |
|     142 | 0x1EE5      |        7909 |
|     143 | 0x1EE6      |        7910 |
|     144 | 0x1EE7      |        7911 |
|     145 | 0x1EE8      |        7912 |
|     146 | 0x1EE9      |        7913 |
|     147 | 0x1EEA      |        7914 |
|     148 | 0x1EEB      |        7915 |
|     149 | 0x1EEC      |        7916 |
|     150 | 0x1EED      |        7917 |
|     151 | 0x1EEE      |        7918 |
|     152 | 0x1EEF      |        7919 |
|     153 | 0x1EF0      |        7920 |
|     154 | 0x1EF1      |        7921 |
|     155 | 0x1EF2      |        7922 |
|     156 | 0x1EF3      |        7923 |
|     157 | 0x1EF4      |        7924 |
|     158 | 0x1EF5      |        7925 |
|     159 | 0x1EF6      |        7926 |
|     160 | 0x1EF7      |        7927 |
|     161 | 0x1EF8      |        7928 |
|     162 | 0x1EF9      |        7929 |
|     163 | 0x1EFA      |        7930 |
|     164 | 0x1EFB      |        7931 |
|     165 | 0x00A0      |         160 |
|     166 | 0xFFFBA959  |  4294682969 |
|     167 | 0xFFFF4E91  |  4294921873 |
|     168 | 0x84A1      |       33953 |
|     169 | 0x05F8      |        1528 |
|     170 | 0x1EFC      |        7932 |
|     171 | 0x1EFD      |        7933 |
|     172 | 0x1EFE      |        7934 |
|     173 | 0x1EFF      |        7935 |
|     174 | 0x1F00      |        7936 |
|     175 | 0x1F01      |        7937 |
|     176 | 0x1F02      |        7938 |
|     177 | 0x1F03      |        7939 |
|     178 | 0x1F04      |        7940 |
|     179 | 0x1F05      |        7941 |
|     180 | 0x1F06      |        7942 |
|     181 | 0x1F07      |        7943 |
|     182 | 0x1F08      |        7944 |
|     183 | 0x1F09      |        7945 |
|     184 | 0x1F0A      |        7946 |
|     185 | 0x1F0B      |        7947 |
|     186 | 0x1F0C      |        7948 |
|     187 | 0x1F0D      |        7949 |
|     188 | 0x1F0E      |        7950 |
|     189 | 0x1F0F      |        7951 |
|     190 | 0x1F10      |        7952 |
|     191 | 0x1F11      |        7953 |
|     192 | 0x1F12      |        7954 |
|     193 | 0x1F13      |        7955 |
|     194 | 0x1F14      |        7956 |
|     195 | 0x1F15      |        7957 |
|     196 | 0x1F16      |        7958 |
|     197 | 0x1F17      |        7959 |
|     198 | 0x1F18      |        7960 |
|     199 | 0x1F19      |        7961 |
|     200 | 0x1F1A      |        7962 |
|     201 | 0x1F1B      |        7963 |
|     202 | 0x1F1C      |        7964 |
|     203 | 0x1F1D      |        7965 |
|     204 | 0x001F      |          31 |
|     205 | 0x1F1E      |        7966 |
|     206 | 0x00DC      |         220 |
|     207 | 0x1F1F      |        7967 |
|     208 | 0x00F6      |         246 |
|     209 | 0x0081      |         129 |
|     210 | 0xFFFBB3C8  |  4294685640 |
|     211 | 0xFFFF51F5  |  4294922741 |
|     212 | 0xFFFBAAE5  |  4294683365 |
|     213 | 0xFFFF5C39  |  4294925369 |
|     214 | 0x0600      |        1536 |
|     215 | 0x008C      |         140 |
|     216 | 0x0826      |        2086 |
|     217 | 0x041F      |        1055 |
|     218 | 0x00F0      |         240 |
|     219 | 0x1F23      |        7971 |
|     220 | 0x007A      |         122 |
|     221 | 0x1F24      |        7972 |
|     222 | 0x1F25      |        7973 |
|     223 | 0x0374      |         884 |
|     224 | 0x1F2E      |        7982 |
|     225 | 0x1F2F      |        7983 |
|     226 | 0x0347      |         839 |
|     227 | 0x00FA      |         250 |
|     228 | 0xFFFBDD96  |  4294696342 |
|     229 | 0xFFFF8C91  |  4294937745 |
|     230 | 0x868E      |       34446 |
|     231 | 0x05F7      |        1527 |
|     232 | 0x044F      |        1103 |
|     233 | 0xFFFBB48F  |  4294685839 |
|     234 | 0xFFFF5154  |  4294922580 |
|     235 | 0x07C2      |        1986 |
|     236 | 0x1F26      |        7974 |
|     237 | 0x1F27      |        7975 |
|     238 | 0x0375      |         885 |
|     239 | 0x1F28      |        7976 |
|     240 | 0x1F29      |        7977 |
|     241 | 0x1F2A      |        7978 |
|     242 | 0xFFFBADE6  |  4294684134 |
|     243 | 0xFFFF729E  |  4294931102 |
|     244 | 0x84AA      |       33962 |
|     245 | 0x1F2B      |        7979 |
|     246 | 0x1F2C      |        7980 |
|     247 | 0x1F2D      |        7981 |
|     248 | 0x1F20      |        7968 |
|     249 | 0x1F21      |        7969 |
|     250 | 0x1F22      |        7970 |
|     251 | 0x1ECA      |        7882 |
|     252 | 0x1ECB      |        7883 |
|     253 | 0x1F30      |        7984 |
|     254 | 0x1F31      |        7985 |
|     255 | 0x1F33      |        7987 |
|     256 | 0x1F32      |        7986 |
|     257 | 0x00C9      |         201 |
|     258 | 0x002D      |          45 |
|     259 | 0x00D7      |         215 |

## String References

- **7864**: Thy desire? [$0./$1./$2./Monetary riches./A pact with Odin./Information about Valhalla.]
- **7866**: Accept $0? [Yes./On second thought...]
- **7867**: Accept a monetary reward? [Yes./On second thought...]
- **7868**: Accept this reward? [Yes./On second thought...]
- **7869**: Ask about Valhalla? [Yes./No.]
- **7884**: Speak thy desire. [The release of thy knight./Absolute prescience./Boundless power./Peerless ingenuity./Consummate passion./Undying glory.]
- **7964**: Become Odin's knight? [Yes...my liege./I'll never serve you!]
- **7965**: Are you certain? [My soul is thine./I cannot...]
- **7973**: Why? [To honor a promise to Her Majesty./I would walk the path of darkness./Because I felt like it.]

## Events

### Event 65535

#### Metadata

| Field        | Value   |
|--------------|---------|
| Entrypoint   | 0x0000  |
| Data Size    | 1 bytes |
| Instructions | 1       |

```
      00 01 02 03 04 05 06 07  08 09 0A 0B 0C 0D 0E 0F
      -- -- -- -- -- -- -- --  -- -- -- -- -- -- -- --
0000: 00                                                .               
```

#### Opcodes

```
  0: 0x0000 [0x00] END_REQSTACK()
```

### Event 9

#### Metadata

| Field        | Value      |
|--------------|------------|
| Entrypoint   | 0x0001     |
| Data Size    | 2875 bytes |
| Instructions | 287        |

```
      00 01 02 03 04 05 06 07  08 09 0A 0B 0C 0D 0E 0F
      -- -- -- -- -- -- -- --  -- -- -- -- -- -- -- --
0000:    42 1A 14 67 46 01 38  00 80 1C 01 80 29 10 F0   B..gF.8.....)..
0010: FF FF 7F 04 03 00 00 02  10 4E 00 F0 FF FF 7F 1C  .........N......
0020: 01 80 4E 00 8B E2 04 01  4E 00 8C E2 04 01 4E 00  ..N.....N.....N.
0030: A0 E2 04 01 27 10 94 E2  04 01 02 27 10 95 E2 04  ....'......'....
0040: 01 02 92 01 A0 E2 04 01  92 01 94 E2 04 01 92 01  ................
0050: 95 E2 04 01 92 01 8B E2  04 01 92 01 8C E2 04 01  ................
0060: 94 01 F0 FF FF 7F 94 01  94 E2 04 01 94 01 95 E2  ................
0070: 04 01 94 01 8B E2 04 01  94 01 8C E2 04 01 94 01  ................
0080: A0 E2 04 01 59 05 A0 E2  04 01 01 29 10 94 E2 04  ....Y......)....
0090: 01 13 29 10 95 E2 04 01  13 BA F0 FF FF 7F 02 80  ..).............
00A0: 03 80 04 80 05 80 BA 8B  E2 04 01 06 80 07 80 08  ................
00B0: 80 09 80 BA 8C E2 04 01  0A 80 0B 80 0C 80 0D 80  ................
00C0: BA A0 E2 04 01 0E 80 0F  80 10 80 11 80 5C 00 12  .............\..
00D0: 80 5C 01 12 80 9A 80 94  E2 04 01 80 95 E2 04 01  .\..............
00E0: 80 F0 FF FF 7F BB 13 80  8B E2 04 01 8B E2 04 01  ................
00F0: 00 FE FE FE 14 80 BB 15  80 95 E2 04 01 95 E2 04  ................
0100: 01 00 FE FE FE 14 80 BB  16 80 94 E2 04 01 94 E2  ................
0110: 04 01 00 FE FE FE 14 80  1C 17 80 27 10 F0 FF FF  ...........'....
0120: 7F 13 1C 18 80 45 19 80  F0 FF FF 7F F0 FF FF 7F  .....E..........
0130: 7A 30 30 30 14 80 1A F3  66 1C 1A 80 52 19 80 F0  z000....f...R...
0140: FF FF 7F F0 FF FF 7F 7A  30 30 30 45 19 80 F0 FF  .......z000E....
0150: FF 7F F0 FF FF 7F 6F 76  36 30 14 80 45 19 80 F0  ......ov60..E...
0160: FF FF 7F F0 FF FF 7F 7A  30 30 33 14 80 2A 10 F0  .......z003..*..
0170: FF FF 7F 1C 1B 80 45 1C  80 F0 FF FF 7F F0 FF FF  ......E.........
0180: 7F 31 64 6F 6B 14 80 1C  1D 80 1C 1E 80 52 19 80  .1dok........R..
0190: F0 FF FF 7F F0 FF FF 7F  7A 30 30 33 45 1C 80 F0  ........z003E...
01A0: FF FF 7F F0 FF FF 7F 6D  65 30 32 14 80 1C 18 80  .......me02.....
01B0: BB 13 80 8B E2 04 01 8B  E2 04 01 73 30 30 30 14  ...........s000.
01C0: 80 BC 13 80 8B E2 04 01  8B E2 04 01 73 30 30 30  ............s000
01D0: 45 19 80 F0 FF FF 7F F0  FF FF 7F 31 64 6F 6B 14  E..........1dok.
01E0: 80 1C 1F 80 52 1C 80 F0  FF FF 7F F0 FF FF 7F 6D  ....R..........m
01F0: 65 30 32 45 19 80 F0 FF  FF 7F F0 FF FF 7F 7A 30  e02E..........z0
0200: 30 31 14 80 1C 1D 80 BA  F0 FF FF 7F 20 80 21 80  01.......... .!.
0210: 22 80 23 80 1C 1F 80 52  19 80 F0 FF FF 7F F0 FF  ".#....R........
0220: FF 7F 7A 30 30 31 45 1C  80 F0 FF FF 7F F0 FF FF  ..z001E.........
0230: 7F 68 7A 32 30 14 80 1C  18 80 BB 13 80 8B E2 04  .hz20...........
0240: 01 8B E2 04 01 73 30 30  32 14 80 1C 1F 80 BA F0  .....s002.......
0250: FF FF 7F 24 80 25 80 26  80 23 80 55 1C 80 F0 FF  ...$.%.&.#.U....
0260: FF 7F F0 FF FF 7F 68 7A  32 30 45 1C 80 F0 FF FF  ......hz20E.....
0270: 7F F0 FF FF 7F 6D 65 30  38 14 80 1C 27 80 52 1C  .....me08...'.R.
0280: 80 F0 FF FF 7F F0 FF FF  7F 6D 65 30 38 45 19 80  .........me08E..
0290: F0 FF FF 7F F0 FF FF 7F  7A 30 30 32 14 80 1C 18  ........z002....
02A0: 80 1C 1B 80 52 19 80 F0  FF FF 7F F0 FF FF 7F 7A  ....R..........z
02B0: 30 30 32 45 1C 80 F0 FF  FF 7F F0 FF FF 7F 68 7A  002E..........hz
02C0: 32 37 14 80 BB 28 80 8C  E2 04 01 8C E2 04 01 73  27...(.........s
02D0: 30 30 30 14 80 1C 29 80  45 1C 80 F0 FF FF 7F F0  000...).E.......
02E0: FF FF 7F 6B 30 34 35 14  80 BB 13 80 8B E2 04 01  ...k045.........
02F0: 8B E2 04 01 73 30 30 33  14 80 BC 13 80 8B E2 04  ....s003........
0300: 01 8B E2 04 01 73 30 30  33 52 1C 80 F0 FF FF 7F  .....s003R......
0310: F0 FF FF 7F 68 7A 32 37  45 19 80 F0 FF FF 7F F0  ....hz27E.......
0320: FF FF 7F 6D 65 31 31 14  80 1C 1D 80 45 1C 80 F0  ...me11.....E...
0330: FF FF 7F F0 FF FF 7F 6B  30 34 36 14 80 1C 2A 80  .......k046...*.
0340: 52 19 80 F0 FF FF 7F F0  FF FF 7F 6D 65 31 31 45  R..........me11E
0350: 1C 80 F0 FF FF 7F F0 FF  FF 7F 68 7A 32 38 14 80  ..........hz28..
0360: BB 16 80 94 E2 04 01 94  E2 04 01 73 30 30 30 14  ...........s000.
0370: 80 03 02 10 2B 80 27 10  8B E2 04 01 03 1C 2C 80  ....+.'.......,.
0380: 2A 10 8B E2 04 01 BB 16  80 94 E2 04 01 94 E2 04  *...............
0390: 01 73 30 30 30 14 80 03  02 10 1A 80 27 10 8B E2  .s000.......'...
03A0: 04 01 03 1C 2D 80 2A 10  8B E2 04 01 4B F0 FF FF  ....-.*.....K...
03B0: 7F 2E 80 02 00 00 2F 80  80 DE 03 52 1C 80 F0 FF  ....../....R....
03C0: FF 7F F0 FF FF 7F 68 7A  32 38 45 19 80 F0 FF FF  ......hz28E.....
03D0: 7F F0 FF FF 7F 7A 67 30  34 14 80 01 7F 04 02 00  .....zg04.......
03E0: 00 30 80 80 09 04 52 1C  80 F0 FF FF 7F F0 FF FF  .0....R.........
03F0: 7F 68 7A 32 38 45 19 80  F0 FF FF 7F F0 FF FF 7F  .hz28E..........
0400: 7A 74 30 34 14 80 01 7F  04 02 00 00 31 80 80 34  zt04........1..4
0410: 04 52 1C 80 F0 FF FF 7F  F0 FF FF 7F 68 7A 32 38  .R..........hz28
0420: 45 19 80 F0 FF FF 7F F0  FF FF 7F 7A 74 30 34 14  E..........zt04.
0430: 80 01 7F 04 02 00 00 32  80 80 5F 04 52 1C 80 F0  .......2.._.R...
0440: FF FF 7F F0 FF FF 7F 68  7A 32 38 45 19 80 F0 FF  .......hz28E....
0450: FF 7F F0 FF FF 7F 7A 67  30 34 14 80 01 7F 04 52  ......zg04.....R
0460: 1C 80 F0 FF FF 7F F0 FF  FF 7F 68 7A 32 38 45 19  ..........hz28E.
0470: 80 F0 FF FF 7F F0 FF FF  7F 7A 30 30 34 14 80 27  .........z004..'
0480: 10 8D E2 04 01 03 1C 29  80 BB 15 80 95 E2 04 01  .......)........
0490: 95 E2 04 01 6D 61 69 6E  14 80 5B 33 80 95 E2 04  ....main..[3....
04A0: 01 95 E2 04 01 70 6F 70  31 03 02 10 34 80 27 10  .....pop1...4.'.
04B0: 8B E2 04 01 03 52 19 80  F0 FF FF 7F F0 FF FF 7F  .....R..........
04C0: 7A 30 30 34 52 19 80 F0  FF FF 7F F0 FF FF 7F 7A  z004R..........z
04D0: 67 30 34 52 19 80 F0 FF  FF 7F F0 FF FF 7F 7A 74  g04R..........zt
04E0: 30 34 45 1C 80 F0 FF FF  7F F0 FF FF 7F 68 7A 33  04E..........hz3
04F0: 32 14 80 1C 17 80 4A F0  FF FF 7F 95 E2 04 01 79  2.....J........y
0500: 00 F0 FF FF 7F A0 E2 04  01 2A 10 8B E2 04 01 1C  .........*......
0510: 1D 80 02 00 00 35 80 80  4E 05 52 1C 80 F0 FF FF  .....5..N.R.....
0520: 7F F0 FF FF 7F 68 7A 33  32 45 19 80 F0 FF FF 7F  .....hz32E......
0530: F0 FF FF 7F 6F 76 34 30  14 80 45 19 80 F0 FF FF  ....ov40..E.....
0540: 7F F0 FF FF 7F 7A 30 30  35 14 80 01 33 06 02 00  .....z005...3...
0550: 00 30 80 80 8A 05 52 1C  80 F0 FF FF 7F F0 FF FF  .0....R.........
0560: 7F 68 7A 33 32 45 19 80  F0 FF FF 7F F0 FF FF 7F  .hz32E..........
0570: 6F 76 34 30 14 80 45 19  80 F0 FF FF 7F F0 FF FF  ov40..E.........
0580: 7F 7A 74 30 35 14 80 01  33 06 02 00 00 31 80 80  .zt05...3....1..
0590: C6 05 52 1C 80 F0 FF FF  7F F0 FF FF 7F 68 7A 33  ..R..........hz3
05A0: 32 45 19 80 F0 FF FF 7F  F0 FF FF 7F 6F 76 34 30  2E..........ov40
05B0: 14 80 45 19 80 F0 FF FF  7F F0 FF FF 7F 7A 74 30  ..E..........zt0
05C0: 35 14 80 01 33 06 02 00  00 36 80 80 02 06 52 1C  5...3....6....R.
05D0: 80 F0 FF FF 7F F0 FF FF  7F 68 7A 33 32 45 19 80  .........hz32E..
05E0: F0 FF FF 7F F0 FF FF 7F  6F 76 34 30 14 80 45 19  ........ov40..E.
05F0: 80 F0 FF FF 7F F0 FF FF  7F 7A 30 30 35 14 80 01  .........z005...
0600: 33 06 52 1C 80 F0 FF FF  7F F0 FF FF 7F 68 7A 33  3.R..........hz3
0610: 32 45 19 80 F0 FF FF 7F  F0 FF FF 7F 6F 76 34 30  2E..........ov40
0620: 14 80 45 19 80 F0 FF FF  7F F0 FF FF 7F 7A 67 30  ..E..........zg0
0630: 35 14 80 1C 18 80 2B 94  E2 04 01 37 80 23 2B 94  5.....+....7.#+.
0640: E2 04 01 38 80 23 52 19  80 F0 FF FF 7F F0 FF FF  ...8.#R.........
0650: 7F 7A 30 30 35 52 19 80  F0 FF FF 7F F0 FF FF 7F  .z005R..........
0660: 7A 67 30 35 52 19 80 F0  FF FF 7F F0 FF FF 7F 7A  zg05R..........z
0670: 74 30 35 45 19 80 F0 FF  FF 7F F0 FF FF 7F 6F 76  t05E..........ov
0680: 34 30 14 80 45 19 80 F0  FF FF 7F F0 FF FF 7F 7A  40..E..........z
0690: 30 30 36 14 80 45 19 80  F0 FF FF 7F F0 FF FF 7F  006..E..........
06A0: 69 62 6B 69 14 80 1C 1D  80 2B 94 E2 04 01 39 80  ibki.....+....9.
06B0: 23 52 19 80 F0 FF FF 7F  F0 FF FF 7F 7A 30 30 36  #R..........z006
06C0: 45 19 80 F0 FF FF 7F F0  FF FF 7F 6F 76 34 30 14  E..........ov40.
06D0: 80 45 19 80 F0 FF FF 7F  F0 FF FF 7F 7A 30 30 37  .E..........z007
06E0: 14 80 2B 94 E2 04 01 3A  80 23 5B 3B 80 95 E2 04  ..+....:.#[;....
06F0: 01 95 E2 04 01 6D 6F 65  30 1C 3C 80 52 19 80 F0  .....moe0.<.R...
0700: FF FF 7F F0 FF FF 7F 7A  30 30 37 45 19 80 F0 FF  .......z007E....
0710: FF 7F F0 FF FF 7F 7A 30  30 39 14 80 45 19 80 F0  ......z009..E...
0720: FF FF 7F F0 FF FF 7F 6F  76 34 30 14 80 1C 3D 80  .......ov40...=.
0730: 2B 94 E2 04 01 3E 80 1C  3D 80 02 00 00 35 80 80  +....>..=....5..
0740: 76 07 52 19 80 F0 FF FF  7F F0 FF FF 7F 7A 30 30  v.R..........z00
0750: 39 45 19 80 F0 FF FF 7F  F0 FF FF 7F 6F 76 33 30  9E..........ov30
0760: 14 80 45 19 80 F0 FF FF  7F F0 FF FF 7F 7A 6D 30  ..E..........zm0
0770: 38 14 80 01 D3 08 02 00  00 2F 80 80 B2 07 52 19  8......../....R.
0780: 80 F0 FF FF 7F F0 FF FF  7F 7A 30 30 39 45 19 80  .........z009E..
0790: F0 FF FF 7F F0 FF FF 7F  6F 76 33 30 14 80 45 19  ........ov30..E.
07A0: 80 F0 FF FF 7F F0 FF FF  7F 7A 67 30 38 14 80 01  .........zg08...
07B0: D3 08 02 00 00 30 80 80  EE 07 52 19 80 F0 FF FF  .....0....R.....
07C0: 7F F0 FF FF 7F 7A 30 30  39 45 19 80 F0 FF FF 7F  .....z009E......
07D0: F0 FF FF 7F 6F 76 33 30  14 80 45 19 80 F0 FF FF  ....ov30..E.....
07E0: 7F F0 FF FF 7F 7A 74 30  38 14 80 01 D3 08 02 00  .....zt08.......
07F0: 00 31 80 80 2A 08 52 19  80 F0 FF FF 7F F0 FF FF  .1..*.R.........
0800: 7F 7A 30 30 39 45 19 80  F0 FF FF 7F F0 FF FF 7F  .z009E..........
0810: 6F 76 33 30 14 80 45 19  80 F0 FF FF 7F F0 FF FF  ov30..E.........
0820: 7F 7A 74 30 38 14 80 01  D3 08 02 00 00 36 80 80  .zt08........6..
0830: 66 08 52 19 80 F0 FF FF  7F F0 FF FF 7F 7A 30 30  f.R..........z00
0840: 39 45 19 80 F0 FF FF 7F  F0 FF FF 7F 6F 76 33 30  9E..........ov30
0850: 14 80 45 19 80 F0 FF FF  7F F0 FF FF 7F 7A 6D 30  ..E..........zm0
0860: 38 14 80 01 D3 08 02 00  00 32 80 80 A2 08 52 19  8........2....R.
0870: 80 F0 FF FF 7F F0 FF FF  7F 7A 30 30 39 45 19 80  .........z009E..
0880: F0 FF FF 7F F0 FF FF 7F  6F 76 33 30 14 80 45 19  ........ov30..E.
0890: 80 F0 FF FF 7F F0 FF FF  7F 7A 67 30 38 14 80 01  .........zg08...
08A0: D3 08 52 19 80 F0 FF FF  7F F0 FF FF 7F 7A 30 30  ..R..........z00
08B0: 39 45 19 80 F0 FF FF 7F  F0 FF FF 7F 6F 76 33 30  9E..........ov30
08C0: 14 80 45 19 80 F0 FF FF  7F F0 FF FF 7F 7A 30 30  ..E..........z00
08D0: 38 14 80 1C 1F 80 52 19  80 F0 FF FF 7F F0 FF FF  8.....R.........
08E0: 7F 7A 30 30 38 52 19 80  F0 FF FF 7F F0 FF FF 7F  .z008R..........
08F0: 7A 6D 30 38 52 19 80 F0  FF FF 7F F0 FF FF 7F 7A  zm08R..........z
0900: 74 30 38 52 19 80 F0 FF  FF 7F F0 FF FF 7F 7A 67  t08R..........zg
0910: 30 38 45 19 80 F0 FF FF  7F F0 FF FF 7F 7A 30 31  08E..........z01
0920: 32 14 80 7B F0 FF FF 7F  BA 94 E2 04 01 3F 80 40  2..{.........?.@
0930: 80 41 80 42 80 79 00 94  E2 04 01 F0 FF FF 7F 1C  .A.B.y..........
0940: 1E 80 52 19 80 F0 FF FF  7F F0 FF FF 7F 7A 30 31  ..R..........z01
0950: 32 45 19 80 F0 FF FF 7F  F0 FF FF 7F 6F 76 34 30  2E..........ov40
0960: 14 80 45 19 80 F0 FF FF  7F F0 FF FF 7F 7A 30 31  ..E..........z01
0970: 33 14 80 27 10 A0 E2 04  01 0A 1C 1B 80 1C 1B 80  3..'............
0980: 02 00 00 32 80 80 BC 09  52 19 80 F0 FF FF 7F F0  ...2....R.......
0990: FF FF 7F 7A 30 31 33 45  19 80 F0 FF FF 7F F0 FF  ...z013E........
09A0: FF 7F 6F 76 34 30 14 80  45 19 80 F0 FF FF 7F F0  ..ov40..E.......
09B0: FF FF 7F 7A 67 31 34 14  80 01 ED 09 52 19 80 F0  ...zg14.....R...
09C0: FF FF 7F F0 FF FF 7F 7A  30 31 33 45 19 80 F0 FF  .......z013E....
09D0: FF 7F F0 FF FF 7F 6F 76  34 30 14 80 45 19 80 F0  ......ov40..E...
09E0: FF FF 7F F0 FF FF 7F 7A  30 31 34 14 80 27 10 A0  .......z014..'..
09F0: E2 04 01 0B BB 43 80 94  E2 04 01 94 E2 04 01 6D  .....C.........m
0A00: 61 69 6E 14 80 45 19 80  F0 FF FF 7F F0 FF FF 7F  ain..E..........
0A10: 69 6E 6E 6B 14 80 1C 44  80 4B F0 FF FF 7F 45 80  innk...D.K....E.
0A20: 6F 76 F0 FF FF 7F 1C 44  80 52 19 80 F0 FF FF 7F  ov.....D.R......
0A30: F0 FF FF 7F 7A 30 31 34  52 19 80 F0 FF FF 7F F0  ....z014R.......
0A40: FF FF 7F 7A 67 31 34 45  19 80 F0 FF FF 7F F0 FF  ...zg14E........
0A50: FF 7F 6F 76 34 30 14 80  45 19 80 F0 FF FF 7F F0  ..ov40..E.......
0A60: FF FF 7F 7A 30 31 37 14  80 1C 27 80 2B 95 E2 04  ...z017...'.+...
0A70: 01 46 80 23 52 19 80 F0  FF FF 7F F0 FF FF 7F 7A  .F.#R..........z
0A80: 30 31 37 45 19 80 F0 FF  FF 7F F0 FF FF 7F 6F 76  017E..........ov
0A90: 34 30 14 80 45 19 80 F0  FF FF 7F F0 FF FF 7F 7A  40..E..........z
0AA0: 30 31 35 14 80 5D 14 80  27 80 1C 27 80 5C 00 47  015..]..'..'.\.G
0AB0: 80 5C 01 47 80 9A 52 19  80 F0 FF FF 7F F0 FF FF  .\.G..R.........
0AC0: 7F 7A 30 31 35 45 19 80  F0 FF FF 7F F0 FF FF 7F  .z015E..........
0AD0: 6F 76 34 30 14 80 45 19  80 F0 FF FF 7F F0 FF FF  ov40..E.........
0AE0: 7F 7A 30 31 36 14 80 1C  44 80 2B 94 E2 04 01 48  .z016...D.+....H
0AF0: 80 23 1A 67 68 1C 44 80  1A 14 67 45 19 80 F0 FF  .#.gh.D...gE....
0B00: FF 7F F0 FF FF 7F 30 62  6C 72 14 80 52 19 80 F0  ......0blr..R...
0B10: FF FF 7F F0 FF FF 7F 7A  30 31 36 1A 35 67 5C 00  .......z016.5g\.
0B20: 14 80 5C 01 14 80 9A 46  00 45 1A 80 F0 FF FF 7F  ..\....F.E......
0B30: F0 FF FF 7F 66 64 69 32  14 80 21 00              ....fdi2..!.    
```

#### Opcodes

```
  0: 0x0001 [0x42] SET_CLI_EVENT_CANCEL_DATA()
  1: 0x0002 [0x1A] CALL_SUBROUTINE(address=0x6714)
  2: 0x0005 [0x46] CAMERA_CONTROL: Disable user control
  3: 0x0007 [0x38] SET_CLIENT_EVENT_MODE(mode=19*)
  4: 0x000A [0x1C] WAIT(1* ticks)
  5: 0x000D [0x29] REQ_SET_WAIT(priority=0x10, entity_id=LocalPlayer, tag_num=0x04)
  6: 0x0014 [0x03] ExtData[1]->WorkLocal[0] = Work_Zone[2]
  7: 0x0019 [0x4E] SET_ENTITY_HIDE_FLAG: Show LocalPlayer
  8: 0x001F [0x1C] WAIT(1* ticks)
  9: 0x0022 [0x4E] SET_ENTITY_HIDE_FLAG: Show ??? (ID: 17097355/0x0104E28B)
 10: 0x0028 [0x4E] SET_ENTITY_HIDE_FLAG: Show Unnamed NPC (ID: 17097356/0x0104E28C)
 11: 0x002E [0x4E] SET_ENTITY_HIDE_FLAG: Show ??? (ID: 17097376/0x0104E2A0)
 12: 0x0034 [0x27] REQ_SET(priority=0x10, entity_id=Odin (ID: 17097364/0x0104E294), tag_num=0x02)
 13: 0x003B [0x27] REQ_SET(priority=0x10, entity_id=Odin Prime (ID: 17097365/0x0104E295), tag_num=0x02)
 14: 0x0042 [0x92] ??? (ID: 17097376/0x0104E2A0)->Render.Flags3 ^= 0x01
 15: 0x0048 [0x92] Odin (ID: 17097364/0x0104E294)->Render.Flags3 ^= 0x01
 16: 0x004E [0x92] Odin Prime (ID: 17097365/0x0104E295)->Render.Flags3 ^= 0x01
 17: 0x0054 [0x92] ??? (ID: 17097355/0x0104E28B)->Render.Flags3 ^= 0x01
 18: 0x005A [0x92] Unnamed NPC (ID: 17097356/0x0104E28C)->Render.Flags3 ^= 0x01
 19: 0x0060 [0x94] LocalPlayer->Render.Flags3 ^= 0x01
 20: 0x0066 [0x94] Odin (ID: 17097364/0x0104E294)->Render.Flags3 ^= 0x01
 21: 0x006C [0x94] Odin Prime (ID: 17097365/0x0104E295)->Render.Flags3 ^= 0x01
 22: 0x0072 [0x94] ??? (ID: 17097355/0x0104E28B)->Render.Flags3 ^= 0x01
 23: 0x0078 [0x94] Unnamed NPC (ID: 17097356/0x0104E28C)->Render.Flags3 ^= 0x01
 24: 0x007E [0x94] ??? (ID: 17097376/0x0104E2A0)->Render.Flags3 ^= 0x01
 25: 0x0084 [0x59] UPDATE_ENTITY_DATA: ??? (ID: 17097376/0x0104E2A0)->Render.Flags0 |= 0x200000
 26: 0x008B [0x29] REQ_SET_WAIT(priority=0x10, entity_id=Odin (ID: 17097364/0x0104E294), tag_num=0x13)
 27: 0x0092 [0x29] REQ_SET_WAIT(priority=0x10, entity_id=Odin Prime (ID: 17097365/0x0104E295), tag_num=0x13)
 28: 0x0099 [0xBA] SET_ENTITY_POSITION(entity_id=LocalPlayer, pos_x=-290.024*, pos_z=-50.230*, pos_y=34.468*, direction=310.2°*)
 29: 0x00A6 [0xBA] SET_ENTITY_POSITION(entity_id=??? (ID: 17097355/0x0104E28B), pos_x=-275.976*, pos_z=-35.909*, pos_y=33.942*, direction=315.0°*)
 30: 0x00B3 [0xBA] SET_ENTITY_POSITION(entity_id=Unnamed NPC (ID: 17097356/0x0104E28C), pos_x=-280.082*, pos_z=-40.259*, pos_y=33.999*, direction=306.0°*)
 31: 0x00C0 [0xBA] SET_ENTITY_POSITION(entity_id=??? (ID: 17097376/0x0104E2A0), pos_x=-292.935*, pos_z=-51.686*, pos_y=31.114*, direction=141.1°*)
 32: 0x00CD [0x5C] MUSIC_CONTROL: Set Idle (Day) music to song 155*
 33: 0x00D1 [0x5C] MUSIC_CONTROL: Set Idle (Night) music to song 155*
 34: 0x00D5 [0x9A] WAIT_MUSIC_SERVER()
 35: 0x00D6 [0x80] LOAD_WAIT(entity=Odin (ID: 17097364/0x0104E294))
 36: 0x00DB [0x80] LOAD_WAIT(entity=Odin Prime (ID: 17097365/0x0104E295))
 37: 0x00E0 [0x80] LOAD_WAIT(entity=LocalPlayer)
 38: 0x00E5 [0xBB] LOAD_EVENT_SCHEDULER_ALT: Load scheduler 0xFEFEFE00 with entities [??? (ID: 17097355/0x0104E28B), ??? (ID: 17097355/0x0104E28B)], work=[71*, 0*]
 39: 0x00F6 [0xBB] LOAD_EVENT_SCHEDULER_ALT: Load scheduler 0xFEFEFE00 with entities [Odin Prime (ID: 17097365/0x0104E295), Odin Prime (ID: 17097365/0x0104E295)], work=[74*, 0*]
 40: 0x0107 [0xBB] LOAD_EVENT_SCHEDULER_ALT: Load scheduler 0xFEFEFE00 with entities [Odin (ID: 17097364/0x0104E294), Odin (ID: 17097364/0x0104E294)], work=[73*, 0*]
 41: 0x0118 [0x1C] WAIT(15* ticks)
 42: 0x011B [0x27] REQ_SET(priority=0x10, entity_id=LocalPlayer, tag_num=0x13)
 43: 0x0122 [0x1C] WAIT(40* ticks)
 44: 0x0125 [0x45] LOAD_SCHEDULED_TASK: Load scheduler "z000" with entities [LocalPlayer, LocalPlayer], work=[521*, 0*]
 45: 0x0136 [0x1A] CALL_SUBROUTINE(address=0x66F3)
 46: 0x0139 [0x1C] WAIT(200* ticks)
 47: 0x013C [0x52] END_LOAD_SCHEDULER: End scheduler "z000" with entities [LocalPlayer, LocalPlayer], work=521*
 48: 0x014B [0x45] LOAD_SCHEDULED_TASK: Load scheduler "ov60" with entities [LocalPlayer, LocalPlayer], work=[521*, 0*]
 49: 0x015C [0x45] LOAD_SCHEDULED_TASK: Load scheduler "z003" with entities [LocalPlayer, LocalPlayer], work=[521*, 0*]
 50: 0x016D [0x2A] GET_REQ_LEVEL(level=16, entity_id=LocalPlayer)
 51: 0x0173 [0x1C] WAIT(100* ticks)
 52: 0x0176 [0x45] LOAD_SCHEDULED_TASK: Load scheduler "1dok" with entities [LocalPlayer, LocalPlayer], work=[318*, 0*]
 53: 0x0187 [0x1C] WAIT(60* ticks)
 54: 0x018A [0x1C] WAIT(120* ticks)
 55: 0x018D [0x52] END_LOAD_SCHEDULER: End scheduler "z003" with entities [LocalPlayer, LocalPlayer], work=521*
 56: 0x019C [0x45] LOAD_SCHEDULED_TASK: Load scheduler "me02" with entities [LocalPlayer, LocalPlayer], work=[318*, 0*]
 57: 0x01AD [0x1C] WAIT(40* ticks)
 58: 0x01B0 [0xBB] LOAD_EVENT_SCHEDULER_ALT: Load scheduler "s000" with entities [??? (ID: 17097355/0x0104E28B), ??? (ID: 17097355/0x0104E28B)], work=[71*, 0*]
 59: 0x01C1 [0xBC] WAIT_LOAD_SCHEDULER_ALT2: Wait for scheduler "s000" with entities [??? (ID: 17097355/0x0104E28B), ??? (ID: 17097355/0x0104E28B)], work=71*
 60: 0x01D0 [0x45] LOAD_SCHEDULED_TASK: Load scheduler "1dok" with entities [LocalPlayer, LocalPlayer], work=[521*, 0*]
 61: 0x01E1 [0x1C] WAIT(80* ticks)
 62: 0x01E4 [0x52] END_LOAD_SCHEDULER: End scheduler "me02" with entities [LocalPlayer, LocalPlayer], work=318*
 63: 0x01F3 [0x45] LOAD_SCHEDULED_TASK: Load scheduler "z001" with entities [LocalPlayer, LocalPlayer], work=[521*, 0*]
 64: 0x0204 [0x1C] WAIT(60* ticks)
 65: 0x0207 [0xBA] SET_ENTITY_POSITION(entity_id=LocalPlayer, pos_x=-284.498*, pos_z=-43.762*, pos_y=33.958*, direction=312.8°*)
 66: 0x0214 [0x1C] WAIT(80* ticks)
 67: 0x0217 [0x52] END_LOAD_SCHEDULER: End scheduler "z001" with entities [LocalPlayer, LocalPlayer], work=521*
 68: 0x0226 [0x45] LOAD_SCHEDULED_TASK: Load scheduler "hz20" with entities [LocalPlayer, LocalPlayer], work=[318*, 0*]
 69: 0x0237 [0x1C] WAIT(40* ticks)
 70: 0x023A [0xBB] LOAD_EVENT_SCHEDULER_ALT: Load scheduler "s002" with entities [??? (ID: 17097355/0x0104E28B), ??? (ID: 17097355/0x0104E28B)], work=[71*, 0*]
 71: 0x024B [0x1C] WAIT(80* ticks)
 72: 0x024E [0xBA] SET_ENTITY_POSITION(entity_id=LocalPlayer, pos_x=-284.553*, pos_z=-44.390*, pos_y=33.960*, direction=312.8°*)
 73: 0x025B [0x55] WAIT_LOAD_SCHEDULER: Wait for scheduler "hz20" with entities [LocalPlayer, LocalPlayer], work=318*
 74: 0x026A [0x45] LOAD_SCHEDULED_TASK: Load scheduler "me08" with entities [LocalPlayer, LocalPlayer], work=[318*, 0*]
 75: 0x027B [0x1C] WAIT(180* ticks)
 76: 0x027E [0x52] END_LOAD_SCHEDULER: End scheduler "me08" with entities [LocalPlayer, LocalPlayer], work=318*
 77: 0x028D [0x45] LOAD_SCHEDULED_TASK: Load scheduler "z002" with entities [LocalPlayer, LocalPlayer], work=[521*, 0*]
 78: 0x029E [0x1C] WAIT(40* ticks)
 79: 0x02A1 [0x1C] WAIT(100* ticks)
 80: 0x02A4 [0x52] END_LOAD_SCHEDULER: End scheduler "z002" with entities [LocalPlayer, LocalPlayer], work=521*
 81: 0x02B3 [0x45] LOAD_SCHEDULED_TASK: Load scheduler "hz27" with entities [LocalPlayer, LocalPlayer], work=[318*, 0*]
 82: 0x02C4 [0xBB] LOAD_EVENT_SCHEDULER_ALT: Load scheduler "s000" with entities [Unnamed NPC (ID: 17097356/0x0104E28C), Unnamed NPC (ID: 17097356/0x0104E28C)], work=[72*, 0*]
 83: 0x02D5 [0x1C] WAIT(90* ticks)
 84: 0x02D8 [0x45] LOAD_SCHEDULED_TASK: Load scheduler "k045" with entities [LocalPlayer, LocalPlayer], work=[318*, 0*]
 85: 0x02E9 [0xBB] LOAD_EVENT_SCHEDULER_ALT: Load scheduler "s003" with entities [??? (ID: 17097355/0x0104E28B), ??? (ID: 17097355/0x0104E28B)], work=[71*, 0*]
 86: 0x02FA [0xBC] WAIT_LOAD_SCHEDULER_ALT2: Wait for scheduler "s003" with entities [??? (ID: 17097355/0x0104E28B), ??? (ID: 17097355/0x0104E28B)], work=71*
 87: 0x0309 [0x52] END_LOAD_SCHEDULER: End scheduler "hz27" with entities [LocalPlayer, LocalPlayer], work=318*
 88: 0x0318 [0x45] LOAD_SCHEDULED_TASK: Load scheduler "me11" with entities [LocalPlayer, LocalPlayer], work=[521*, 0*]
 89: 0x0329 [0x1C] WAIT(60* ticks)
 90: 0x032C [0x45] LOAD_SCHEDULED_TASK: Load scheduler "k046" with entities [LocalPlayer, LocalPlayer], work=[318*, 0*]
 91: 0x033D [0x1C] WAIT(20* ticks)
 92: 0x0340 [0x52] END_LOAD_SCHEDULER: End scheduler "me11" with entities [LocalPlayer, LocalPlayer], work=521*
 93: 0x034F [0x45] LOAD_SCHEDULED_TASK: Load scheduler "hz28" with entities [LocalPlayer, LocalPlayer], work=[318*, 0*]
 94: 0x0360 [0xBB] LOAD_EVENT_SCHEDULER_ALT: Load scheduler "s000" with entities [Odin (ID: 17097364/0x0104E294), Odin (ID: 17097364/0x0104E294)], work=[73*, 0*]
 95: 0x0371 [0x03] Work_Zone[2] = 222*
 96: 0x0376 [0x27] REQ_SET(priority=0x10, entity_id=??? (ID: 17097355/0x0104E28B), tag_num=0x03)
 97: 0x037D [0x1C] WAIT(70* ticks)
 98: 0x0380 [0x2A] GET_REQ_LEVEL(level=16, entity_id=??? (ID: 17097355/0x0104E28B))
 99: 0x0386 [0xBB] LOAD_EVENT_SCHEDULER_ALT: Load scheduler "s000" with entities [Odin (ID: 17097364/0x0104E294), Odin (ID: 17097364/0x0104E294)], work=[73*, 0*]
100: 0x0397 [0x03] Work_Zone[2] = 200*
101: 0x039C [0x27] REQ_SET(priority=0x10, entity_id=??? (ID: 17097355/0x0104E28B), tag_num=0x03)
102: 0x03A3 [0x1C] WAIT(150* ticks)
103: 0x03A6 [0x2A] GET_REQ_LEVEL(level=16, entity_id=??? (ID: 17097355/0x0104E28B))
104: 0x03AC [0x4B] UPDATE_ENTITY_YAW(entity=LocalPlayer, yaw=8.4°*)
105: 0x03B3 [0x02] IF !(ExtData[1]->WorkLocal[0] == 3*) GOTO 0x03DE
106: 0x03BB [0x52] END_LOAD_SCHEDULER: End scheduler "hz28" with entities [LocalPlayer, LocalPlayer], work=318*
107: 0x03CA [0x45] LOAD_SCHEDULED_TASK: Load scheduler "zg04" with entities [LocalPlayer, LocalPlayer], work=[521*, 0*]
108: 0x03DB [0x01] GOTO 0x047F
109: 0x03DE [0x02] IF !(ExtData[1]->WorkLocal[0] == 5*) GOTO 0x0409
110: 0x03E6 [0x52] END_LOAD_SCHEDULER: End scheduler "hz28" with entities [LocalPlayer, LocalPlayer], work=318*
111: 0x03F5 [0x45] LOAD_SCHEDULED_TASK: Load scheduler "zt04" with entities [LocalPlayer, LocalPlayer], work=[521*, 0*]
112: 0x0406 [0x01] GOTO 0x047F
113: 0x0409 [0x02] IF !(ExtData[1]->WorkLocal[0] == 6*) GOTO 0x0434
114: 0x0411 [0x52] END_LOAD_SCHEDULER: End scheduler "hz28" with entities [LocalPlayer, LocalPlayer], work=318*
115: 0x0420 [0x45] LOAD_SCHEDULED_TASK: Load scheduler "zt04" with entities [LocalPlayer, LocalPlayer], work=[521*, 0*]
116: 0x0431 [0x01] GOTO 0x047F
117: 0x0434 [0x02] IF !(ExtData[1]->WorkLocal[0] == 8*) GOTO 0x045F
118: 0x043C [0x52] END_LOAD_SCHEDULER: End scheduler "hz28" with entities [LocalPlayer, LocalPlayer], work=318*
119: 0x044B [0x45] LOAD_SCHEDULED_TASK: Load scheduler "zg04" with entities [LocalPlayer, LocalPlayer], work=[521*, 0*]
120: 0x045C [0x01] GOTO 0x047F
121: 0x045F [0x52] END_LOAD_SCHEDULER: End scheduler "hz28" with entities [LocalPlayer, LocalPlayer], work=318*
122: 0x046E [0x45] LOAD_SCHEDULED_TASK: Load scheduler "z004" with entities [LocalPlayer, LocalPlayer], work=[521*, 0*]

SUBROUTINE_047F:
123: 0x047F [0x27] REQ_SET(priority=0x10, entity_id=Unnamed NPC (ID: 17097357/0x0104E28D), tag_num=0x03)
124: 0x0486 [0x1C] WAIT(90* ticks)
125: 0x0489 [0xBB] LOAD_EVENT_SCHEDULER_ALT: Load scheduler "main" with entities [Odin Prime (ID: 17097365/0x0104E295), Odin Prime (ID: 17097365/0x0104E295)], work=[74*, 0*]
126: 0x049A [0x5B] LOAD_EXT_SCHEDULER: Load scheduler "pop1" with entities [Odin Prime (ID: 17097365/0x0104E295), Odin Prime (ID: 17097365/0x0104E295)], work=1036*
127: 0x04A9 [0x03] Work_Zone[2] = 900*
128: 0x04AE [0x27] REQ_SET(priority=0x10, entity_id=??? (ID: 17097355/0x0104E28B), tag_num=0x03)
129: 0x04B5 [0x52] END_LOAD_SCHEDULER: End scheduler "z004" with entities [LocalPlayer, LocalPlayer], work=521*
130: 0x04C4 [0x52] END_LOAD_SCHEDULER: End scheduler "zg04" with entities [LocalPlayer, LocalPlayer], work=521*
131: 0x04D3 [0x52] END_LOAD_SCHEDULER: End scheduler "zt04" with entities [LocalPlayer, LocalPlayer], work=521*
132: 0x04E2 [0x45] LOAD_SCHEDULED_TASK: Load scheduler "hz32" with entities [LocalPlayer, LocalPlayer], work=[318*, 0*]
133: 0x04F3 [0x1C] WAIT(15* ticks)
134: 0x04F6 [0x4A] LocalPlayer looks at Odin Prime (ID: 17097365/0x0104E295)
135: 0x04FF [0x79] LocalPlayer looks at ??? (ID: 17097376/0x0104E2A0) (Basic look)
136: 0x0509 [0x2A] GET_REQ_LEVEL(level=16, entity_id=??? (ID: 17097355/0x0104E28B))
137: 0x050F [0x1C] WAIT(60* ticks)
138: 0x0512 [0x02] IF !(ExtData[1]->WorkLocal[0] == 2*) GOTO 0x054E
139: 0x051A [0x52] END_LOAD_SCHEDULER: End scheduler "hz32" with entities [LocalPlayer, LocalPlayer], work=318*
140: 0x0529 [0x45] LOAD_SCHEDULED_TASK: Load scheduler "ov40" with entities [LocalPlayer, LocalPlayer], work=[521*, 0*]
141: 0x053A [0x45] LOAD_SCHEDULED_TASK: Load scheduler "z005" with entities [LocalPlayer, LocalPlayer], work=[521*, 0*]
142: 0x054B [0x01] GOTO 0x0633
143: 0x054E [0x02] IF !(ExtData[1]->WorkLocal[0] == 5*) GOTO 0x058A
144: 0x0556 [0x52] END_LOAD_SCHEDULER: End scheduler "hz32" with entities [LocalPlayer, LocalPlayer], work=318*
145: 0x0565 [0x45] LOAD_SCHEDULED_TASK: Load scheduler "ov40" with entities [LocalPlayer, LocalPlayer], work=[521*, 0*]
146: 0x0576 [0x45] LOAD_SCHEDULED_TASK: Load scheduler "zt05" with entities [LocalPlayer, LocalPlayer], work=[521*, 0*]
147: 0x0587 [0x01] GOTO 0x0633
148: 0x058A [0x02] IF !(ExtData[1]->WorkLocal[0] == 6*) GOTO 0x05C6
149: 0x0592 [0x52] END_LOAD_SCHEDULER: End scheduler "hz32" with entities [LocalPlayer, LocalPlayer], work=318*
150: 0x05A1 [0x45] LOAD_SCHEDULED_TASK: Load scheduler "ov40" with entities [LocalPlayer, LocalPlayer], work=[521*, 0*]
151: 0x05B2 [0x45] LOAD_SCHEDULED_TASK: Load scheduler "zt05" with entities [LocalPlayer, LocalPlayer], work=[521*, 0*]
152: 0x05C3 [0x01] GOTO 0x0633
153: 0x05C6 [0x02] IF !(ExtData[1]->WorkLocal[0] == 7*) GOTO 0x0602
154: 0x05CE [0x52] END_LOAD_SCHEDULER: End scheduler "hz32" with entities [LocalPlayer, LocalPlayer], work=318*
155: 0x05DD [0x45] LOAD_SCHEDULED_TASK: Load scheduler "ov40" with entities [LocalPlayer, LocalPlayer], work=[521*, 0*]
156: 0x05EE [0x45] LOAD_SCHEDULED_TASK: Load scheduler "z005" with entities [LocalPlayer, LocalPlayer], work=[521*, 0*]
157: 0x05FF [0x01] GOTO 0x0633
158: 0x0602 [0x52] END_LOAD_SCHEDULER: End scheduler "hz32" with entities [LocalPlayer, LocalPlayer], work=318*
159: 0x0611 [0x45] LOAD_SCHEDULED_TASK: Load scheduler "ov40" with entities [LocalPlayer, LocalPlayer], work=[521*, 0*]
160: 0x0622 [0x45] LOAD_SCHEDULED_TASK: Load scheduler "zg05" with entities [LocalPlayer, LocalPlayer], work=[521*, 0*]

SUBROUTINE_0633:
161: 0x0633 [0x1C] WAIT(40* ticks)
162: 0x0636 [0x2B] Odin (ID: 17097364/0x0104E294) [7852*]:
    → "In ages past, I oft journeyed the boundless aethyr to pay visit this emerald isle."
163: 0x063D [0x23] WAIT_FOR_DIALOG_INTERACTION
164: 0x063E [0x2B] Odin (ID: 17097364/0x0104E294) [7853*]:
    → "Who standeth before me? What doth bestir the soul of my knight from our nether abode?"
165: 0x0645 [0x23] WAIT_FOR_DIALOG_INTERACTION
166: 0x0646 [0x52] END_LOAD_SCHEDULER: End scheduler "z005" with entities [LocalPlayer, LocalPlayer], work=521*
167: 0x0655 [0x52] END_LOAD_SCHEDULER: End scheduler "zg05" with entities [LocalPlayer, LocalPlayer], work=521*
168: 0x0664 [0x52] END_LOAD_SCHEDULER: End scheduler "zt05" with entities [LocalPlayer, LocalPlayer], work=521*
169: 0x0673 [0x45] LOAD_SCHEDULED_TASK: Load scheduler "ov40" with entities [LocalPlayer, LocalPlayer], work=[521*, 0*]
170: 0x0684 [0x45] LOAD_SCHEDULED_TASK: Load scheduler "z006" with entities [LocalPlayer, LocalPlayer], work=[521*, 0*]
171: 0x0695 [0x45] LOAD_SCHEDULED_TASK: Load scheduler "ibki" with entities [LocalPlayer, LocalPlayer], work=[521*, 0*]
172: 0x06A6 [0x1C] WAIT(60* ticks)
173: 0x06A9 [0x2B] Odin (ID: 17097364/0x0104E294) [7854*]:
    → "Why, 'tis a fellow prisoner to the gaoler of fate. Rejoice, for tonight thy light hath guided me hither."
174: 0x06B0 [0x23] WAIT_FOR_DIALOG_INTERACTION
175: 0x06B1 [0x52] END_LOAD_SCHEDULER: End scheduler "z006" with entities [LocalPlayer, LocalPlayer], work=521*
176: 0x06C0 [0x45] LOAD_SCHEDULED_TASK: Load scheduler "ov40" with entities [LocalPlayer, LocalPlayer], work=[521*, 0*]
177: 0x06D1 [0x45] LOAD_SCHEDULED_TASK: Load scheduler "z007" with entities [LocalPlayer, LocalPlayer], work=[521*, 0*]
178: 0x06E2 [0x2B] Odin (ID: 17097364/0x0104E294) [7855*]:
    → "Reveal unto me the wishes of thy base mortal heart. Dost thou seek boundless riches? Eternal glory? Or wouldst thou walk a darker path?"
179: 0x06E9 [0x23] WAIT_FOR_DIALOG_INTERACTION
180: 0x06EA [0x5B] LOAD_EXT_SCHEDULER: Load scheduler "moe0" with entities [Odin Prime (ID: 17097365/0x0104E295), Odin Prime (ID: 17097365/0x0104E295)], work=1214*
181: 0x06F9 [0x1C] WAIT(10* ticks)
182: 0x06FC [0x52] END_LOAD_SCHEDULER: End scheduler "z007" with entities [LocalPlayer, LocalPlayer], work=521*
183: 0x070B [0x45] LOAD_SCHEDULED_TASK: Load scheduler "z009" with entities [LocalPlayer, LocalPlayer], work=[521*, 0*]
184: 0x071C [0x45] LOAD_SCHEDULED_TASK: Load scheduler "ov40" with entities [LocalPlayer, LocalPlayer], work=[521*, 0*]
185: 0x072D [0x1C] WAIT(50* ticks)
186: 0x0730 [0x2B] Odin (ID: 17097364/0x0104E294) [7856*]:
    → "It is the wont of mortals to desire. Those worthy of that which they covet are few."
187: 0x0737 [0x1C] WAIT(50* ticks)
188: 0x073A [0x02] IF !(ExtData[1]->WorkLocal[0] == 2*) GOTO 0x0776
189: 0x0742 [0x52] END_LOAD_SCHEDULER: End scheduler "z009" with entities [LocalPlayer, LocalPlayer], work=521*
190: 0x0751 [0x45] LOAD_SCHEDULED_TASK: Load scheduler "ov30" with entities [LocalPlayer, LocalPlayer], work=[521*, 0*]
191: 0x0762 [0x45] LOAD_SCHEDULED_TASK: Load scheduler "zm08" with entities [LocalPlayer, LocalPlayer], work=[521*, 0*]
192: 0x0773 [0x01] GOTO 0x08D3
193: 0x0776 [0x02] IF !(ExtData[1]->WorkLocal[0] == 3*) GOTO 0x07B2
194: 0x077E [0x52] END_LOAD_SCHEDULER: End scheduler "z009" with entities [LocalPlayer, LocalPlayer], work=521*
195: 0x078D [0x45] LOAD_SCHEDULED_TASK: Load scheduler "ov30" with entities [LocalPlayer, LocalPlayer], work=[521*, 0*]
196: 0x079E [0x45] LOAD_SCHEDULED_TASK: Load scheduler "zg08" with entities [LocalPlayer, LocalPlayer], work=[521*, 0*]
197: 0x07AF [0x01] GOTO 0x08D3
198: 0x07B2 [0x02] IF !(ExtData[1]->WorkLocal[0] == 5*) GOTO 0x07EE
199: 0x07BA [0x52] END_LOAD_SCHEDULER: End scheduler "z009" with entities [LocalPlayer, LocalPlayer], work=521*
200: 0x07C9 [0x45] LOAD_SCHEDULED_TASK: Load scheduler "ov30" with entities [LocalPlayer, LocalPlayer], work=[521*, 0*]
201: 0x07DA [0x45] LOAD_SCHEDULED_TASK: Load scheduler "zt08" with entities [LocalPlayer, LocalPlayer], work=[521*, 0*]
202: 0x07EB [0x01] GOTO 0x08D3
203: 0x07EE [0x02] IF !(ExtData[1]->WorkLocal[0] == 6*) GOTO 0x082A
204: 0x07F6 [0x52] END_LOAD_SCHEDULER: End scheduler "z009" with entities [LocalPlayer, LocalPlayer], work=521*
205: 0x0805 [0x45] LOAD_SCHEDULED_TASK: Load scheduler "ov30" with entities [LocalPlayer, LocalPlayer], work=[521*, 0*]
206: 0x0816 [0x45] LOAD_SCHEDULED_TASK: Load scheduler "zt08" with entities [LocalPlayer, LocalPlayer], work=[521*, 0*]
207: 0x0827 [0x01] GOTO 0x08D3
208: 0x082A [0x02] IF !(ExtData[1]->WorkLocal[0] == 7*) GOTO 0x0866
209: 0x0832 [0x52] END_LOAD_SCHEDULER: End scheduler "z009" with entities [LocalPlayer, LocalPlayer], work=521*
210: 0x0841 [0x45] LOAD_SCHEDULED_TASK: Load scheduler "ov30" with entities [LocalPlayer, LocalPlayer], work=[521*, 0*]
211: 0x0852 [0x45] LOAD_SCHEDULED_TASK: Load scheduler "zm08" with entities [LocalPlayer, LocalPlayer], work=[521*, 0*]
212: 0x0863 [0x01] GOTO 0x08D3
213: 0x0866 [0x02] IF !(ExtData[1]->WorkLocal[0] == 8*) GOTO 0x08A2
214: 0x086E [0x52] END_LOAD_SCHEDULER: End scheduler "z009" with entities [LocalPlayer, LocalPlayer], work=521*
215: 0x087D [0x45] LOAD_SCHEDULED_TASK: Load scheduler "ov30" with entities [LocalPlayer, LocalPlayer], work=[521*, 0*]
216: 0x088E [0x45] LOAD_SCHEDULED_TASK: Load scheduler "zg08" with entities [LocalPlayer, LocalPlayer], work=[521*, 0*]
217: 0x089F [0x01] GOTO 0x08D3
218: 0x08A2 [0x52] END_LOAD_SCHEDULER: End scheduler "z009" with entities [LocalPlayer, LocalPlayer], work=521*
219: 0x08B1 [0x45] LOAD_SCHEDULED_TASK: Load scheduler "ov30" with entities [LocalPlayer, LocalPlayer], work=[521*, 0*]
220: 0x08C2 [0x45] LOAD_SCHEDULED_TASK: Load scheduler "z008" with entities [LocalPlayer, LocalPlayer], work=[521*, 0*]

SUBROUTINE_08D3:
221: 0x08D3 [0x1C] WAIT(80* ticks)
222: 0x08D6 [0x52] END_LOAD_SCHEDULER: End scheduler "z008" with entities [LocalPlayer, LocalPlayer], work=521*
223: 0x08E5 [0x52] END_LOAD_SCHEDULER: End scheduler "zm08" with entities [LocalPlayer, LocalPlayer], work=521*
224: 0x08F4 [0x52] END_LOAD_SCHEDULER: End scheduler "zt08" with entities [LocalPlayer, LocalPlayer], work=521*
225: 0x0903 [0x52] END_LOAD_SCHEDULER: End scheduler "zg08" with entities [LocalPlayer, LocalPlayer], work=521*
226: 0x0912 [0x45] LOAD_SCHEDULED_TASK: Load scheduler "z012" with entities [LocalPlayer, LocalPlayer], work=[521*, 0*]
227: 0x0923 [0x7B] LocalPlayer stops talking
228: 0x0928 [0xBA] SET_ENTITY_POSITION(entity_id=Odin (ID: 17097364/0x0104E294), pos_x=-276.314*, pos_z=-36.071*, pos_y=33.938*, direction=114.3°*)
229: 0x0935 [0x79] Odin (ID: 17097364/0x0104E294) looks at LocalPlayer (Basic look)
230: 0x093F [0x1C] WAIT(120* ticks)
231: 0x0942 [0x52] END_LOAD_SCHEDULER: End scheduler "z012" with entities [LocalPlayer, LocalPlayer], work=521*
232: 0x0951 [0x45] LOAD_SCHEDULED_TASK: Load scheduler "ov40" with entities [LocalPlayer, LocalPlayer], work=[521*, 0*]
233: 0x0962 [0x45] LOAD_SCHEDULED_TASK: Load scheduler "z013" with entities [LocalPlayer, LocalPlayer], work=[521*, 0*]
234: 0x0973 [0x27] REQ_SET(priority=0x10, entity_id=??? (ID: 17097376/0x0104E2A0), tag_num=0x0A)
235: 0x097A [0x1C] WAIT(100* ticks)
236: 0x097D [0x1C] WAIT(100* ticks)
237: 0x0980 [0x02] IF !(ExtData[1]->WorkLocal[0] == 8*) GOTO 0x09BC
238: 0x0988 [0x52] END_LOAD_SCHEDULER: End scheduler "z013" with entities [LocalPlayer, LocalPlayer], work=521*
239: 0x0997 [0x45] LOAD_SCHEDULED_TASK: Load scheduler "ov40" with entities [LocalPlayer, LocalPlayer], work=[521*, 0*]
240: 0x09A8 [0x45] LOAD_SCHEDULED_TASK: Load scheduler "zg14" with entities [LocalPlayer, LocalPlayer], work=[521*, 0*]
241: 0x09B9 [0x01] GOTO 0x09ED
242: 0x09BC [0x52] END_LOAD_SCHEDULER: End scheduler "z013" with entities [LocalPlayer, LocalPlayer], work=521*
243: 0x09CB [0x45] LOAD_SCHEDULED_TASK: Load scheduler "ov40" with entities [LocalPlayer, LocalPlayer], work=[521*, 0*]
244: 0x09DC [0x45] LOAD_SCHEDULED_TASK: Load scheduler "z014" with entities [LocalPlayer, LocalPlayer], work=[521*, 0*]

SUBROUTINE_09ED:
245: 0x09ED [0x27] REQ_SET(priority=0x10, entity_id=??? (ID: 17097376/0x0104E2A0), tag_num=0x0B)
246: 0x09F4 [0xBB] LOAD_EVENT_SCHEDULER_ALT: Load scheduler "main" with entities [Odin (ID: 17097364/0x0104E294), Odin (ID: 17097364/0x0104E294)], work=[76*, 0*]
247: 0x0A05 [0x45] LOAD_SCHEDULED_TASK: Load scheduler "innk" with entities [LocalPlayer, LocalPlayer], work=[521*, 0*]
248: 0x0A16 [0x1C] WAIT(30* ticks)
249: 0x0A19 [0x4B] UPDATE_ENTITY_YAW(entity=LocalPlayer, yaw=19.4°*)
250: 0x0A20 [0x6F] WAIT_FRAME_DELAY: Yield until WaitTime reaches zero
251: 0x0A21 [0x76] CHECK_ENTITY_RENDER_FLAGS: Wait until LocalPlayer Render.Flags0 and Render.Flags3 conditions are met
252: 0x0A26 [0x1C] WAIT(30* ticks)
253: 0x0A29 [0x52] END_LOAD_SCHEDULER: End scheduler "z014" with entities [LocalPlayer, LocalPlayer], work=521*
254: 0x0A38 [0x52] END_LOAD_SCHEDULER: End scheduler "zg14" with entities [LocalPlayer, LocalPlayer], work=521*
255: 0x0A47 [0x45] LOAD_SCHEDULED_TASK: Load scheduler "ov40" with entities [LocalPlayer, LocalPlayer], work=[521*, 0*]
256: 0x0A58 [0x45] LOAD_SCHEDULED_TASK: Load scheduler "z017" with entities [LocalPlayer, LocalPlayer], work=[521*, 0*]
257: 0x0A69 [0x1C] WAIT(180* ticks)
258: 0x0A6C [0x2B] Odin Prime (ID: 17097365/0x0104E295) [7857*]:
    → "..."
259: 0x0A73 [0x23] WAIT_FOR_DIALOG_INTERACTION
260: 0x0A74 [0x52] END_LOAD_SCHEDULER: End scheduler "z017" with entities [LocalPlayer, LocalPlayer], work=521*
261: 0x0A83 [0x45] LOAD_SCHEDULED_TASK: Load scheduler "ov40" with entities [LocalPlayer, LocalPlayer], work=[521*, 0*]
262: 0x0A94 [0x45] LOAD_SCHEDULED_TASK: Load scheduler "z015" with entities [LocalPlayer, LocalPlayer], work=[521*, 0*]
263: 0x0AA5 [0x5D] SET_MUSIC_VOLUME(volume=0*, fade_time=180*)
264: 0x0AAA [0x1C] WAIT(180* ticks)
265: 0x0AAD [0x5C] MUSIC_CONTROL: Set Idle (Day) music to song 186*
266: 0x0AB1 [0x5C] MUSIC_CONTROL: Set Idle (Night) music to song 186*
267: 0x0AB5 [0x9A] WAIT_MUSIC_SERVER()
268: 0x0AB6 [0x52] END_LOAD_SCHEDULER: End scheduler "z015" with entities [LocalPlayer, LocalPlayer], work=521*
269: 0x0AC5 [0x45] LOAD_SCHEDULED_TASK: Load scheduler "ov40" with entities [LocalPlayer, LocalPlayer], work=[521*, 0*]
270: 0x0AD6 [0x45] LOAD_SCHEDULED_TASK: Load scheduler "z016" with entities [LocalPlayer, LocalPlayer], work=[521*, 0*]
271: 0x0AE7 [0x1C] WAIT(30* ticks)
272: 0x0AEA [0x2B] Odin (ID: 17097364/0x0104E294) [7858*]:
    → "Serve bliss unto me with thy blade. If thy strength is true, thy plea shall be heard."
273: 0x0AF1 [0x23] WAIT_FOR_DIALOG_INTERACTION
274: 0x0AF2 [0x1A] CALL_SUBROUTINE(address=0x6867)
275: 0x0AF5 [0x1C] WAIT(30* ticks)
276: 0x0AF8 [0x1A] CALL_SUBROUTINE(address=0x6714)
277: 0x0AFB [0x45] LOAD_SCHEDULED_TASK: Load scheduler "0blr" with entities [LocalPlayer, LocalPlayer], work=[521*, 0*]
278: 0x0B0C [0x52] END_LOAD_SCHEDULER: End scheduler "z016" with entities [LocalPlayer, LocalPlayer], work=521*
279: 0x0B1B [0x1A] CALL_SUBROUTINE(address=0x6735)
280: 0x0B1E [0x5C] MUSIC_CONTROL: Set Idle (Day) music to song 0*
281: 0x0B22 [0x5C] MUSIC_CONTROL: Set Idle (Night) music to song 0*
282: 0x0B26 [0x9A] WAIT_MUSIC_SERVER()
283: 0x0B27 [0x46] CAMERA_CONTROL: Restore default settings
284: 0x0B29 [0x45] LOAD_SCHEDULED_TASK: Load scheduler "fdi2" with entities [LocalPlayer, LocalPlayer], work=[200*, 0*]
285: 0x0B3A [0x21] END_EVENT
286: 0x0B3B [0x00] END_REQSTACK()
```

### Event 10

#### Metadata

| Field        | Value      |
|--------------|------------|
| Entrypoint   | 0x0B3C     |
| Data Size    | 1404 bytes |
| Instructions | 208        |

```
      00 01 02 03 04 05 06 07  08 09 0A 0B 0C 0D 0E 0F
      -- -- -- -- -- -- -- --  -- -- -- -- -- -- -- --
0B30:                                      42 1A 14 67              B..g
0B40: 46 01 5D 14 80 1E 80 38  00 80 1C 01 80 5C 00 12  F.]....8.....\..
0B50: 80 5C 01 12 80 4E 00 F0  FF FF 7F 1C 01 80 4E 00  .\...N........N.
0B60: 8B E2 04 01 4E 00 8C E2  04 01 4E 00 A0 E2 04 01  ....N.....N.....
0B70: 27 10 94 E2 04 01 02 27  10 95 E2 04 01 02 92 01  '......'........
0B80: A0 E2 04 01 92 01 94 E2  04 01 92 01 95 E2 04 01  ................
0B90: 92 01 8B E2 04 01 92 01  8C E2 04 01 94 01 F0 FF  ................
0BA0: FF 7F 94 01 94 E2 04 01  94 01 95 E2 04 01 94 01  ................
0BB0: 8B E2 04 01 94 01 8C E2  04 01 94 01 A0 E2 04 01  ................
0BC0: 59 05 A0 E2 04 01 01 29  10 94 E2 04 01 14 29 10  Y......)......).
0BD0: 95 E2 04 01 13 BA F0 FF  FF 7F 24 80 25 80 26 80  ..........$.%.&.
0BE0: 2E 80 BA 8B E2 04 01 06  80 07 80 08 80 09 80 BA  ................
0BF0: 8C E2 04 01 0A 80 0B 80  0C 80 0D 80 BA A0 E2 04  ................
0C00: 01 0E 80 0F 80 10 80 11  80 80 94 E2 04 01 80 95  ................
0C10: E2 04 01 80 F0 FF FF 7F  6C 95 E2 04 01 49 80 01  ........l....I..
0C20: 80 BB 13 80 8B E2 04 01  8B E2 04 01 00 FE FE FE  ................
0C30: 14 80 BB 4A 80 95 E2 04  01 95 E2 04 01 00 FE FE  ...J............
0C40: FE 14 80 BB 4B 80 94 E2  04 01 94 E2 04 01 00 FE  ....K...........
0C50: FE FE 14 80 1C 3C 80 79  00 F0 FF FF 7F A0 E2 04  .....<.y........
0C60: 01 BB 13 80 8B E2 04 01  8B E2 04 01 73 30 30 35  ............s005
0C70: 14 80 BB 28 80 8C E2 04  01 8C E2 04 01 73 30 30  ...(.........s00
0C80: 30 14 80 5B 33 80 95 E2  04 01 95 E2 04 01 70 6F  0..[3.........po
0C90: 70 6C 03 01 10 31 80 43  00 43 01 03 01 00 08 10  pl...1.C.C......
0CA0: 9A 45 19 80 F0 FF FF 7F  F0 FF FF 7F 79 30 30 30  .E..........y000
0CB0: 14 80 1A F3 66 2B 94 E2  04 01 4C 80 23 2B 94 E2  ....f+....L.#+..
0CC0: 04 01 4D 80 23 29 10 F0  FF FF 7F 14 1C 1D 80 52  ..M.#).........R
0CD0: 19 80 F0 FF FF 7F F0 FF  FF 7F 79 30 30 30 45 19  ..........y000E.
0CE0: 80 F0 FF FF 7F F0 FF FF  7F 6F 76 34 30 14 80 45  .........ov40..E
0CF0: 19 80 F0 FF FF 7F F0 FF  FF 7F 79 30 30 31 14 80  ..........y001..
0D00: 1C 1D 80 2B 94 E2 04 01  4E 80 23 6E F0 FF FF 7F  ...+....N.#n....
0D10: 36 80 99 F0 FF FF 7F 1C  29 80 52 19 80 F0 FF FF  6.......).R.....
0D20: 7F F0 FF FF 7F 79 30 30  31 45 19 80 F0 FF FF 7F  .....y001E......
0D30: F0 FF FF 7F 79 30 30 32  14 80 2B 94 E2 04 01 4F  ....y002..+....O
0D40: 80 1C 1F 80 23 52 19 80  F0 FF FF 7F F0 FF FF 7F  ....#R..........
0D50: 79 30 30 32 45 19 80 F0  FF FF 7F F0 FF FF 7F 6F  y002E..........o
0D60: 76 34 30 14 80 45 19 80  F0 FF FF 7F F0 FF FF 7F  v40..E..........
0D70: 79 30 30 30 14 80 1C 18  80 2B 94 E2 04 01 50 80  y000.....+....P.
0D80: 23 02 01 00 51 80 00 8C  0D 01 2C 0F 03 01 10 3C  #...Q.....,....<
0D90: 80 43 00 43 01 24 52 80  14 80 09 10 25 02 00 10  .C.C.$R.....%...
0DA0: 14 80 00 E9 0D 03 02 10  53 80 93 53 80 2B 94 E2  ........S..S.+..
0DB0: 04 01 54 80 23 93 14 80  24 55 80 01 80 14 80 25  ..T.#...$U.....%
0DC0: 02 00 10 14 80 00 D8 0D  03 01 10 01 80 2B 94 E2  .............+..
0DD0: 04 01 56 80 23 01 E6 0D  02 00 10 01 80 00 E6 0D  ..V.#...........
0DE0: 01 8C 0D 01 E6 0D 01 2C  0F 02 00 10 01 80 00 35  .......,.......5
0DF0: 0E 03 02 10 57 80 93 57  80 2B 94 E2 04 01 54 80  ....W..W.+....T.
0E00: 23 93 14 80 24 55 80 01  80 14 80 25 02 00 10 14  #...$U.....%....
0E10: 80 00 24 0E 03 01 10 35  80 2B 94 E2 04 01 56 80  ..$....5.+....V.
0E20: 23 01 32 0E 02 00 10 01  80 00 32 0E 01 8C 0D 01  #.2.......2.....
0E30: 32 0E 01 2C 0F 02 00 10  35 80 00 81 0E 03 02 10  2..,....5.......
0E40: 58 80 93 58 80 2B 94 E2  04 01 54 80 23 93 14 80  X..X.+....T.#...
0E50: 24 55 80 01 80 14 80 25  02 00 10 14 80 00 70 0E  $U.....%......p.
0E60: 03 01 10 2F 80 2B 94 E2  04 01 56 80 23 01 7E 0E  .../.+....V.#.~.
0E70: 02 00 10 01 80 00 7E 0E  01 8C 0D 01 7E 0E 01 2C  ......~.....~..,
0E80: 0F 02 00 10 2F 80 00 BA  0E 24 59 80 01 80 14 80  ..../....$Y.....
0E90: 25 02 00 10 14 80 00 A9  0E 03 01 10 5A 80 2B 94  %...........Z.+.
0EA0: E2 04 01 56 80 23 01 B7  0E 02 00 10 01 80 00 B7  ...V.#..........
0EB0: 0E 01 8C 0D 01 B7 0E 01  2C 0F 02 00 10 5A 80 00  ........,....Z..
0EC0: F3 0E 24 5B 80 01 80 14  80 25 02 00 10 14 80 00  ..$[.....%......
0ED0: E2 0E 03 01 10 30 80 2B  94 E2 04 01 5C 80 23 01  .....0.+....\.#.
0EE0: F0 0E 02 00 10 01 80 00  F0 0E 01 8C 0D 01 F0 0E  ................
0EF0: 01 2C 0F 02 00 10 30 80  00 2C 0F 24 59 80 01 80  .,....0..,.$Y...
0F00: 14 80 25 02 00 10 14 80  00 1B 0F 03 01 10 5A 80  ..%...........Z.
0F10: 2B 94 E2 04 01 56 80 23  01 29 0F 02 00 10 01 80  +....V.#.)......
0F20: 00 29 0F 01 8C 0D 01 29  0F 01 2C 0F 52 19 80 F0  .).....)..,.R...
0F30: FF FF 7F F0 FF FF 7F 79  30 30 30 45 19 80 F0 FF  .......y000E....
0F40: FF 7F F0 FF FF 7F 6F 76  34 30 14 80 45 19 80 F0  ......ov40..E...
0F50: FF FF 7F F0 FF FF 7F 79  30 30 33 14 80 2B 94 E2  .......y003..+..
0F60: 04 01 5D 80 23 2B 94 E2  04 01 5E 80 23 52 19 80  ..].#+....^.#R..
0F70: F0 FF FF 7F F0 FF FF 7F  79 30 30 33 45 19 80 F0  ........y003E...
0F80: FF FF 7F F0 FF FF 7F 6F  76 34 30 14 80 45 19 80  .......ov40..E..
0F90: F0 FF FF 7F F0 FF FF 7F  6F 6C 30 33 14 80 BB 4A  ........ol03...J
0FA0: 80 95 E2 04 01 95 E2 04  01 6D 61 69 6E 14 80 5B  .........main..[
0FB0: 5F 80 95 E2 04 01 95 E2  04 01 62 63 6B 30 1C 60  _.........bck0.`
0FC0: 80 2B 94 E2 04 01 61 80  1C 1B 80 4B F0 FF FF 7F  .+....a....K....
0FD0: 45 80 27 10 8D E2 04 01  05 BB 4B 80 94 E2 04 01  E.'.......K.....
0FE0: 94 E2 04 01 6D 61 69 6E  14 80 5B 5F 80 94 E2 04  ....main..[_....
0FF0: 01 94 E2 04 01 62 63 6B  31 52 19 80 F0 FF FF 7F  .....bck1R......
1000: F0 FF FF 7F 6F 6C 30 33  45 19 80 F0 FF FF 7F F0  ....ol03E.......
1010: FF FF 7F 6F 6C 30 34 14  80 27 10 8C E2 04 01 03  ...ol04..'......
1020: 1C 62 80 4E 01 94 E2 04  01 BB 13 80 8B E2 04 01  .b.N............
1030: 8B E2 04 01 73 30 30 34  14 80 1C 2D 80 52 19 80  ....s004...-.R..
1040: F0 FF FF 7F F0 FF FF 7F  6F 6C 30 34 45 19 80 F0  ........ol04E...
1050: FF FF 7F F0 FF FF 7F 6F  76 36 30 14 80 45 19 80  .......ov60..E..
1060: F0 FF FF 7F F0 FF FF 7F  79 30 30 34 14 80 1C 2D  ........y004...-
1070: 80 1A 14 67 52 19 80 F0  FF FF 7F F0 FF FF 7F 79  ...gR..........y
1080: 30 30 34 45 19 80 F0 FF  FF 7F F0 FF FF 7F 30 62  004E..........0b
1090: 6C 72 14 80 5C 00 14 80  5C 01 14 80 1C 44 80 9A  lr..\...\....D..
10A0: 1C 30 80 46 00 45 1A 80  F0 FF FF 7F F0 FF FF 7F  .0.F.E..........
10B0: 66 64 69 32 14 80 21 00                           fdi2..!.        
```

#### Opcodes

```
  0: 0x0B3C [0x42] SET_CLI_EVENT_CANCEL_DATA()
  1: 0x0B3D [0x1A] CALL_SUBROUTINE(address=0x6714)
  2: 0x0B40 [0x46] CAMERA_CONTROL: Disable user control
  3: 0x0B42 [0x5D] SET_MUSIC_VOLUME(volume=0*, fade_time=120*)
  4: 0x0B47 [0x38] SET_CLIENT_EVENT_MODE(mode=19*)
  5: 0x0B4A [0x1C] WAIT(1* ticks)
  6: 0x0B4D [0x5C] MUSIC_CONTROL: Set Idle (Day) music to song 155*
  7: 0x0B51 [0x5C] MUSIC_CONTROL: Set Idle (Night) music to song 155*
  8: 0x0B55 [0x4E] SET_ENTITY_HIDE_FLAG: Show LocalPlayer
  9: 0x0B5B [0x1C] WAIT(1* ticks)
 10: 0x0B5E [0x4E] SET_ENTITY_HIDE_FLAG: Show ??? (ID: 17097355/0x0104E28B)
 11: 0x0B64 [0x4E] SET_ENTITY_HIDE_FLAG: Show Unnamed NPC (ID: 17097356/0x0104E28C)
 12: 0x0B6A [0x4E] SET_ENTITY_HIDE_FLAG: Show ??? (ID: 17097376/0x0104E2A0)
 13: 0x0B70 [0x27] REQ_SET(priority=0x10, entity_id=Odin (ID: 17097364/0x0104E294), tag_num=0x02)
 14: 0x0B77 [0x27] REQ_SET(priority=0x10, entity_id=Odin Prime (ID: 17097365/0x0104E295), tag_num=0x02)
 15: 0x0B7E [0x92] ??? (ID: 17097376/0x0104E2A0)->Render.Flags3 ^= 0x01
 16: 0x0B84 [0x92] Odin (ID: 17097364/0x0104E294)->Render.Flags3 ^= 0x01
 17: 0x0B8A [0x92] Odin Prime (ID: 17097365/0x0104E295)->Render.Flags3 ^= 0x01
 18: 0x0B90 [0x92] ??? (ID: 17097355/0x0104E28B)->Render.Flags3 ^= 0x01
 19: 0x0B96 [0x92] Unnamed NPC (ID: 17097356/0x0104E28C)->Render.Flags3 ^= 0x01
 20: 0x0B9C [0x94] LocalPlayer->Render.Flags3 ^= 0x01
 21: 0x0BA2 [0x94] Odin (ID: 17097364/0x0104E294)->Render.Flags3 ^= 0x01
 22: 0x0BA8 [0x94] Odin Prime (ID: 17097365/0x0104E295)->Render.Flags3 ^= 0x01
 23: 0x0BAE [0x94] ??? (ID: 17097355/0x0104E28B)->Render.Flags3 ^= 0x01
 24: 0x0BB4 [0x94] Unnamed NPC (ID: 17097356/0x0104E28C)->Render.Flags3 ^= 0x01
 25: 0x0BBA [0x94] ??? (ID: 17097376/0x0104E2A0)->Render.Flags3 ^= 0x01
 26: 0x0BC0 [0x59] UPDATE_ENTITY_DATA: ??? (ID: 17097376/0x0104E2A0)->Render.Flags0 |= 0x200000
 27: 0x0BC7 [0x29] REQ_SET_WAIT(priority=0x10, entity_id=Odin (ID: 17097364/0x0104E294), tag_num=0x14)
 28: 0x0BCE [0x29] REQ_SET_WAIT(priority=0x10, entity_id=Odin Prime (ID: 17097365/0x0104E295), tag_num=0x13)
 29: 0x0BD5 [0xBA] SET_ENTITY_POSITION(entity_id=LocalPlayer, pos_x=-284.553*, pos_z=-44.390*, pos_y=33.960*, direction=134.4°*)
 30: 0x0BE2 [0xBA] SET_ENTITY_POSITION(entity_id=??? (ID: 17097355/0x0104E28B), pos_x=-275.976*, pos_z=-35.909*, pos_y=33.942*, direction=315.0°*)
 31: 0x0BEF [0xBA] SET_ENTITY_POSITION(entity_id=Unnamed NPC (ID: 17097356/0x0104E28C), pos_x=-280.082*, pos_z=-40.259*, pos_y=33.999*, direction=306.0°*)
 32: 0x0BFC [0xBA] SET_ENTITY_POSITION(entity_id=??? (ID: 17097376/0x0104E2A0), pos_x=-292.935*, pos_z=-51.686*, pos_y=31.114*, direction=141.1°*)
 33: 0x0C09 [0x80] LOAD_WAIT(entity=Odin (ID: 17097364/0x0104E294))
 34: 0x0C0E [0x80] LOAD_WAIT(entity=Odin Prime (ID: 17097365/0x0104E295))
 35: 0x0C13 [0x80] LOAD_WAIT(entity=LocalPlayer)
 36: 0x0C18 [0x6C] FADE_ENTITY_COLOR(entity_id=Odin Prime (ID: 17097365/0x0104E295), end_alpha=128*, fade_time=1*)
 37: 0x0C21 [0xBB] LOAD_EVENT_SCHEDULER_ALT: Load scheduler 0xFEFEFE00 with entities [??? (ID: 17097355/0x0104E28B), ??? (ID: 17097355/0x0104E28B)], work=[71*, 0*]
 38: 0x0C32 [0xBB] LOAD_EVENT_SCHEDULER_ALT: Load scheduler 0xFEFEFE00 with entities [Odin Prime (ID: 17097365/0x0104E295), Odin Prime (ID: 17097365/0x0104E295)], work=[87*, 0*]
 39: 0x0C43 [0xBB] LOAD_EVENT_SCHEDULER_ALT: Load scheduler 0xFEFEFE00 with entities [Odin (ID: 17097364/0x0104E294), Odin (ID: 17097364/0x0104E294)], work=[88*, 0*]
 40: 0x0C54 [0x1C] WAIT(10* ticks)
 41: 0x0C57 [0x79] LocalPlayer looks at ??? (ID: 17097376/0x0104E2A0) (Basic look)
 42: 0x0C61 [0xBB] LOAD_EVENT_SCHEDULER_ALT: Load scheduler "s005" with entities [??? (ID: 17097355/0x0104E28B), ??? (ID: 17097355/0x0104E28B)], work=[71*, 0*]
 43: 0x0C72 [0xBB] LOAD_EVENT_SCHEDULER_ALT: Load scheduler "s000" with entities [Unnamed NPC (ID: 17097356/0x0104E28C), Unnamed NPC (ID: 17097356/0x0104E28C)], work=[72*, 0*]
 44: 0x0C83 [0x5B] LOAD_EXT_SCHEDULER: Load scheduler "popl" with entities [Odin Prime (ID: 17097365/0x0104E295), Odin Prime (ID: 17097365/0x0104E295)], work=1036*
 45: 0x0C92 [0x03] Work_Zone[1] = 6*
 46: 0x0C97 [0x43] SEND_EVENT_UPDATE: Send pending tag to server (packet 0x005B)
 47: 0x0C99 [0x43] SEND_EVENT_UPDATE: Check pending flag (skip if not pending)
 48: 0x0C9B [0x03] ExtData[1]->WorkLocal[1] = Work_Zone[8]
 49: 0x0CA0 [0x9A] WAIT_MUSIC_SERVER()
 50: 0x0CA1 [0x45] LOAD_SCHEDULED_TASK: Load scheduler "y000" with entities [LocalPlayer, LocalPlayer], work=[521*, 0*]
 51: 0x0CB2 [0x1A] CALL_SUBROUTINE(address=0x66F3)
 52: 0x0CB5 [0x2B] Odin (ID: 17097364/0x0104E294) [7859*]:
    → "Excellent! Thou hast done well to entertain me for the nonce."
 53: 0x0CBC [0x23] WAIT_FOR_DIALOG_INTERACTION
 54: 0x0CBD [0x2B] Odin (ID: 17097364/0x0104E294) [7860*]:
    → "Thou hast proven thyself worthy of my boon. Speak unto me thy wish."
 55: 0x0CC4 [0x23] WAIT_FOR_DIALOG_INTERACTION
 56: 0x0CC5 [0x29] REQ_SET_WAIT(priority=0x10, entity_id=LocalPlayer, tag_num=0x14)
 57: 0x0CCC [0x1C] WAIT(60* ticks)
 58: 0x0CCF [0x52] END_LOAD_SCHEDULER: End scheduler "y000" with entities [LocalPlayer, LocalPlayer], work=521*
 59: 0x0CDE [0x45] LOAD_SCHEDULED_TASK: Load scheduler "ov40" with entities [LocalPlayer, LocalPlayer], work=[521*, 0*]
 60: 0x0CEF [0x45] LOAD_SCHEDULED_TASK: Load scheduler "y001" with entities [LocalPlayer, LocalPlayer], work=[521*, 0*]
 61: 0x0D00 [0x1C] WAIT(60* ticks)
 62: 0x0D03 [0x2B] Odin (ID: 17097364/0x0104E294) [7861*]:
    → "Thou wouldst see my knight unfettered?"
 63: 0x0D0A [0x23] WAIT_FOR_DIALOG_INTERACTION
 64: 0x0D0B [0x6E] LocalPlayer uses emote 7*
 65: 0x0D12 [0x99] Wait for LocalPlayer animation to complete
 66: 0x0D17 [0x1C] WAIT(90* ticks)
 67: 0x0D1A [0x52] END_LOAD_SCHEDULER: End scheduler "y001" with entities [LocalPlayer, LocalPlayer], work=521*
 68: 0x0D29 [0x45] LOAD_SCHEDULED_TASK: Load scheduler "y002" with entities [LocalPlayer, LocalPlayer], work=[521*, 0*]
 69: 0x0D3A [0x2B] Odin (ID: 17097364/0x0104E294) [7862*]:
    → "Ahahahahahaha!!! Thou knowest not what folly thou speakest."
 70: 0x0D41 [0x1C] WAIT(80* ticks)
 71: 0x0D44 [0x23] WAIT_FOR_DIALOG_INTERACTION
 72: 0x0D45 [0x52] END_LOAD_SCHEDULER: End scheduler "y002" with entities [LocalPlayer, LocalPlayer], work=521*
 73: 0x0D54 [0x45] LOAD_SCHEDULED_TASK: Load scheduler "ov40" with entities [LocalPlayer, LocalPlayer], work=[521*, 0*]
 74: 0x0D65 [0x45] LOAD_SCHEDULED_TASK: Load scheduler "y000" with entities [LocalPlayer, LocalPlayer], work=[521*, 0*]
 75: 0x0D76 [0x1C] WAIT(40* ticks)
 76: 0x0D79 [0x2B] Odin (ID: 17097364/0x0104E294) [7863*]:
    → "My knight is one with me, to wander the nether plains for all eternity. Thou shalt receive a reward to meet the measure of thy deeds..."
 77: 0x0D80 [0x23] WAIT_FOR_DIALOG_INTERACTION
 78: 0x0D81 [0x02] IF !(ExtData[1]->WorkLocal[1] == 44*) GOTO 0x0D8C
 79: 0x0D89 [0x01] GOTO 0x0F2C

SUBROUTINE_0D8C:
 80: 0x0D8C [0x03] Work_Zone[1] = 10*
 81: 0x0D91 [0x43] SEND_EVENT_UPDATE: Send pending tag to server (packet 0x005B)
 82: 0x0D93 [0x43] SEND_EVENT_UPDATE: Check pending flag (skip if not pending)
 83: 0x0D95 [0x24] CREATE_DIALOG(message_id=7864*, default_option=0*, option_flags=Work_Zone[9])
    → "Thy desire? [$0./$1./$2./Monetary riches./A pact with Odin./Information about Valhalla.]"
 84: 0x0D9C [0x25] WAIT_DIALOG_SELECT()
 85: 0x0D9D [0x02] IF !(Work_Zone[0] == 0*) GOTO 0x0DE9
 86: 0x0DA5 [0x03] Work_Zone[2] = 11546*
 87: 0x0DAA [0x93] DISPLAY_ITEM_INFO(item_id=11546*)
 88: 0x0DAD [0x2B] Odin (ID: 17097364/0x0104E294) [7865*]:
    → "...That is thy true desire?"
 89: 0x0DB4 [0x23] WAIT_FOR_DIALOG_INTERACTION
 90: 0x0DB5 [0x93] DISPLAY_ITEM_INFO(item_id=0*)
 91: 0x0DB8 [0x24] CREATE_DIALOG(message_id=7866*, default_option=1*, option_flags=0*)
    → "Accept $0? [Yes./On second thought...]"
 92: 0x0DBF [0x25] WAIT_DIALOG_SELECT()
 93: 0x0DC0 [0x02] IF !(Work_Zone[0] == 0*) GOTO 0x0DD8
 94: 0x0DC8 [0x03] Work_Zone[1] = 1*
 95: 0x0DCD [0x2B] Odin (ID: 17097364/0x0104E294) [7870*]:
    → "Very well. Rejoice, for I grant unto thee thy desire."
 96: 0x0DD4 [0x23] WAIT_FOR_DIALOG_INTERACTION
 97: 0x0DD5 [0x01] GOTO 0x0DE6
 98: 0x0DD8 [0x02] IF !(Work_Zone[0] == 1*) GOTO 0x0DE6
 99: 0x0DE0 [0x01] GOTO 0x0D8C

SUBROUTINE_0DE6:
100: 0x0DE6 [0x01] GOTO 0x0F2C
101: 0x0DE9 [0x02] IF !(Work_Zone[0] == 1*) GOTO 0x0E35
102: 0x0DF1 [0x03] Work_Zone[2] = 16057*
103: 0x0DF6 [0x93] DISPLAY_ITEM_INFO(item_id=16057*)
104: 0x0DF9 [0x2B] Odin (ID: 17097364/0x0104E294) [7865*]:
    → "...That is thy true desire?"
105: 0x0E00 [0x23] WAIT_FOR_DIALOG_INTERACTION
106: 0x0E01 [0x93] DISPLAY_ITEM_INFO(item_id=0*)
107: 0x0E04 [0x24] CREATE_DIALOG(message_id=7866*, default_option=1*, option_flags=0*)
    → "Accept $0? [Yes./On second thought...]"
108: 0x0E0B [0x25] WAIT_DIALOG_SELECT()
109: 0x0E0C [0x02] IF !(Work_Zone[0] == 0*) GOTO 0x0E24
110: 0x0E14 [0x03] Work_Zone[1] = 2*
111: 0x0E19 [0x2B] Odin (ID: 17097364/0x0104E294) [7870*]:
    → "Very well. Rejoice, for I grant unto thee thy desire."
112: 0x0E20 [0x23] WAIT_FOR_DIALOG_INTERACTION
113: 0x0E21 [0x01] GOTO 0x0E32
114: 0x0E24 [0x02] IF !(Work_Zone[0] == 1*) GOTO 0x0E32
115: 0x0E2C [0x01] GOTO 0x0D8C

SUBROUTINE_0E32:
116: 0x0E32 [0x01] GOTO 0x0F2C
117: 0x0E35 [0x02] IF !(Work_Zone[0] == 2*) GOTO 0x0E81
118: 0x0E3D [0x03] Work_Zone[2] = 11589*
119: 0x0E42 [0x93] DISPLAY_ITEM_INFO(item_id=11589*)
120: 0x0E45 [0x2B] Odin (ID: 17097364/0x0104E294) [7865*]:
    → "...That is thy true desire?"
121: 0x0E4C [0x23] WAIT_FOR_DIALOG_INTERACTION
122: 0x0E4D [0x93] DISPLAY_ITEM_INFO(item_id=0*)
123: 0x0E50 [0x24] CREATE_DIALOG(message_id=7866*, default_option=1*, option_flags=0*)
    → "Accept $0? [Yes./On second thought...]"
124: 0x0E57 [0x25] WAIT_DIALOG_SELECT()
125: 0x0E58 [0x02] IF !(Work_Zone[0] == 0*) GOTO 0x0E70
126: 0x0E60 [0x03] Work_Zone[1] = 3*
127: 0x0E65 [0x2B] Odin (ID: 17097364/0x0104E294) [7870*]:
    → "Very well. Rejoice, for I grant unto thee thy desire."
128: 0x0E6C [0x23] WAIT_FOR_DIALOG_INTERACTION
129: 0x0E6D [0x01] GOTO 0x0E7E
130: 0x0E70 [0x02] IF !(Work_Zone[0] == 1*) GOTO 0x0E7E
131: 0x0E78 [0x01] GOTO 0x0D8C

SUBROUTINE_0E7E:
132: 0x0E7E [0x01] GOTO 0x0F2C
133: 0x0E81 [0x02] IF !(Work_Zone[0] == 3*) GOTO 0x0EBA
134: 0x0E89 [0x24] CREATE_DIALOG(message_id=7867*, default_option=1*, option_flags=0*)
    → "Accept a monetary reward? [Yes./On second thought...]"
135: 0x0E90 [0x25] WAIT_DIALOG_SELECT()
136: 0x0E91 [0x02] IF !(Work_Zone[0] == 0*) GOTO 0x0EA9
137: 0x0E99 [0x03] Work_Zone[1] = 4*
138: 0x0E9E [0x2B] Odin (ID: 17097364/0x0104E294) [7870*]:
    → "Very well. Rejoice, for I grant unto thee thy desire."
139: 0x0EA5 [0x23] WAIT_FOR_DIALOG_INTERACTION
140: 0x0EA6 [0x01] GOTO 0x0EB7
141: 0x0EA9 [0x02] IF !(Work_Zone[0] == 1*) GOTO 0x0EB7
142: 0x0EB1 [0x01] GOTO 0x0D8C

SUBROUTINE_0EB7:
143: 0x0EB7 [0x01] GOTO 0x0F2C
144: 0x0EBA [0x02] IF !(Work_Zone[0] == 4*) GOTO 0x0EF3
145: 0x0EC2 [0x24] CREATE_DIALOG(message_id=7868*, default_option=1*, option_flags=0*)
    → "Accept this reward? [Yes./On second thought...]"
146: 0x0EC9 [0x25] WAIT_DIALOG_SELECT()
147: 0x0ECA [0x02] IF !(Work_Zone[0] == 0*) GOTO 0x0EE2
148: 0x0ED2 [0x03] Work_Zone[1] = 5*
149: 0x0ED7 [0x2B] Odin (ID: 17097364/0x0104E294) [7871*]:
    → "Very well. 'Tis but a gleed in the vast sea of hellfire that is my power, but I grant unto thee my boon."
150: 0x0EDE [0x23] WAIT_FOR_DIALOG_INTERACTION
151: 0x0EDF [0x01] GOTO 0x0EF0
152: 0x0EE2 [0x02] IF !(Work_Zone[0] == 1*) GOTO 0x0EF0
153: 0x0EEA [0x01] GOTO 0x0D8C

SUBROUTINE_0EF0:
154: 0x0EF0 [0x01] GOTO 0x0F2C
155: 0x0EF3 [0x02] IF !(Work_Zone[0] == 5*) GOTO 0x0F2C
156: 0x0EFB [0x24] CREATE_DIALOG(message_id=7867*, default_option=1*, option_flags=0*)
    → "Accept a monetary reward? [Yes./On second thought...]"
157: 0x0F02 [0x25] WAIT_DIALOG_SELECT()
158: 0x0F03 [0x02] IF !(Work_Zone[0] == 0*) GOTO 0x0F1B
159: 0x0F0B [0x03] Work_Zone[1] = 4*
160: 0x0F10 [0x2B] Odin (ID: 17097364/0x0104E294) [7870*]:
    → "Very well. Rejoice, for I grant unto thee thy desire."
161: 0x0F17 [0x23] WAIT_FOR_DIALOG_INTERACTION
162: 0x0F18 [0x01] GOTO 0x0F29
163: 0x0F1B [0x02] IF !(Work_Zone[0] == 1*) GOTO 0x0F29
164: 0x0F23 [0x01] GOTO 0x0D8C

SUBROUTINE_0F29:
165: 0x0F29 [0x01] GOTO 0x0F2C

SUBROUTINE_0F2C:
166: 0x0F2C [0x52] END_LOAD_SCHEDULER: End scheduler "y000" with entities [LocalPlayer, LocalPlayer], work=521*
167: 0x0F3B [0x45] LOAD_SCHEDULED_TASK: Load scheduler "ov40" with entities [LocalPlayer, LocalPlayer], work=[521*, 0*]
168: 0x0F4C [0x45] LOAD_SCHEDULED_TASK: Load scheduler "y003" with entities [LocalPlayer, LocalPlayer], work=[521*, 0*]
169: 0x0F5D [0x2B] Odin (ID: 17097364/0x0104E294) [7873*]:
    → "Is thy heart sated?"
170: 0x0F64 [0x23] WAIT_FOR_DIALOG_INTERACTION
171: 0x0F65 [0x2B] Odin (ID: 17097364/0x0104E294) [7874*]:
    → "Nay, never shall it be, for boundless is the avarice of the sons of man."
172: 0x0F6C [0x23] WAIT_FOR_DIALOG_INTERACTION
173: 0x0F6D [0x52] END_LOAD_SCHEDULER: End scheduler "y003" with entities [LocalPlayer, LocalPlayer], work=521*
174: 0x0F7C [0x45] LOAD_SCHEDULED_TASK: Load scheduler "ov40" with entities [LocalPlayer, LocalPlayer], work=[521*, 0*]
175: 0x0F8D [0x45] LOAD_SCHEDULED_TASK: Load scheduler "ol03" with entities [LocalPlayer, LocalPlayer], work=[521*, 0*]
176: 0x0F9E [0xBB] LOAD_EVENT_SCHEDULER_ALT: Load scheduler "main" with entities [Odin Prime (ID: 17097365/0x0104E295), Odin Prime (ID: 17097365/0x0104E295)], work=[87*, 0*]
177: 0x0FAF [0x5B] LOAD_EXT_SCHEDULER: Load scheduler "bck0" with entities [Odin Prime (ID: 17097365/0x0104E295), Odin Prime (ID: 17097365/0x0104E295)], work=1037*
178: 0x0FBE [0x1C] WAIT(110* ticks)
179: 0x0FC1 [0x2B] Odin (ID: 17097364/0x0104E294) [7875*]:
    → "For as long as thine heart dost harbour base desire, I shall stand here to meet thee. Now go thy ways!"
180: 0x0FC8 [0x1C] WAIT(100* ticks)
181: 0x0FCB [0x4B] UPDATE_ENTITY_YAW(entity=LocalPlayer, yaw=19.4°*)
182: 0x0FD2 [0x27] REQ_SET(priority=0x10, entity_id=Unnamed NPC (ID: 17097357/0x0104E28D), tag_num=0x05)
183: 0x0FD9 [0xBB] LOAD_EVENT_SCHEDULER_ALT: Load scheduler "main" with entities [Odin (ID: 17097364/0x0104E294), Odin (ID: 17097364/0x0104E294)], work=[88*, 0*]
184: 0x0FEA [0x5B] LOAD_EXT_SCHEDULER: Load scheduler "bck1" with entities [Odin (ID: 17097364/0x0104E294), Odin (ID: 17097364/0x0104E294)], work=1037*
185: 0x0FF9 [0x52] END_LOAD_SCHEDULER: End scheduler "ol03" with entities [LocalPlayer, LocalPlayer], work=521*
186: 0x1008 [0x45] LOAD_SCHEDULED_TASK: Load scheduler "ol04" with entities [LocalPlayer, LocalPlayer], work=[521*, 0*]
187: 0x1019 [0x27] REQ_SET(priority=0x10, entity_id=Unnamed NPC (ID: 17097356/0x0104E28C), tag_num=0x03)
188: 0x1020 [0x1C] WAIT(210* ticks)
189: 0x1023 [0x4E] SET_ENTITY_HIDE_FLAG: Hide Odin (ID: 17097364/0x0104E294)
190: 0x1029 [0xBB] LOAD_EVENT_SCHEDULER_ALT: Load scheduler "s004" with entities [??? (ID: 17097355/0x0104E28B), ??? (ID: 17097355/0x0104E28B)], work=[71*, 0*]
191: 0x103A [0x1C] WAIT(150* ticks)
192: 0x103D [0x52] END_LOAD_SCHEDULER: End scheduler "ol04" with entities [LocalPlayer, LocalPlayer], work=521*
193: 0x104C [0x45] LOAD_SCHEDULED_TASK: Load scheduler "ov60" with entities [LocalPlayer, LocalPlayer], work=[521*, 0*]
194: 0x105D [0x45] LOAD_SCHEDULED_TASK: Load scheduler "y004" with entities [LocalPlayer, LocalPlayer], work=[521*, 0*]
195: 0x106E [0x1C] WAIT(150* ticks)
196: 0x1071 [0x1A] CALL_SUBROUTINE(address=0x6714)
197: 0x1074 [0x52] END_LOAD_SCHEDULER: End scheduler "y004" with entities [LocalPlayer, LocalPlayer], work=521*
198: 0x1083 [0x45] LOAD_SCHEDULED_TASK: Load scheduler "0blr" with entities [LocalPlayer, LocalPlayer], work=[521*, 0*]
199: 0x1094 [0x5C] MUSIC_CONTROL: Set Idle (Day) music to song 0*
200: 0x1098 [0x5C] MUSIC_CONTROL: Set Idle (Night) music to song 0*
201: 0x109C [0x1C] WAIT(30* ticks)
202: 0x109F [0x9A] WAIT_MUSIC_SERVER()
203: 0x10A0 [0x1C] WAIT(5* ticks)
204: 0x10A3 [0x46] CAMERA_CONTROL: Restore default settings
205: 0x10A5 [0x45] LOAD_SCHEDULED_TASK: Load scheduler "fdi2" with entities [LocalPlayer, LocalPlayer], work=[200*, 0*]
206: 0x10B6 [0x21] END_EVENT
207: 0x10B7 [0x00] END_REQSTACK()
```

#### Data or dead code:

```
# Dead code (unreachable instructions):
     0x0DE3 [0x01] GOTO 0x0DE6
# Dead code (unreachable instructions):
     0x0E2F [0x01] GOTO 0x0E32
# Dead code (unreachable instructions):
     0x0E7B [0x01] GOTO 0x0E7E
# Dead code (unreachable instructions):
     0x0EB4 [0x01] GOTO 0x0EB7
# Dead code (unreachable instructions):
     0x0EED [0x01] GOTO 0x0EF0
# Dead code (unreachable instructions):
     0x0F26 [0x01] GOTO 0x0F29
```

### Event 11

#### Metadata

| Field        | Value      |
|--------------|------------|
| Entrypoint   | 0x10B8     |
| Data Size    | 1514 bytes |
| Instructions | 164        |

```
      00 01 02 03 04 05 06 07  08 09 0A 0B 0C 0D 0E 0F
      -- -- -- -- -- -- -- --  -- -- -- -- -- -- -- --
10B0:                          42 1A 14 67 46 01 38 00          B..gF.8.
10C0: 80 1C 01 80 5C 00 12 80  5C 01 12 80 4E 00 F0 FF  ....\...\...N...
10D0: FF 7F 1C 01 80 4E 00 8B  E2 04 01 4E 00 8C E2 04  .....N.....N....
10E0: 01 4E 00 A0 E2 04 01 27  10 94 E2 04 01 02 27 10  .N.....'......'.
10F0: 95 E2 04 01 02 92 01 A0  E2 04 01 92 01 94 E2 04  ................
1100: 01 92 01 95 E2 04 01 92  01 8B E2 04 01 92 01 8C  ................
1110: E2 04 01 94 01 F0 FF FF  7F 94 01 94 E2 04 01 94  ................
1120: 01 95 E2 04 01 94 01 8B  E2 04 01 94 01 8C E2 04  ................
1130: 01 94 01 A0 E2 04 01 59  05 A0 E2 04 01 01 29 10  .......Y......).
1140: 94 E2 04 01 13 29 10 95  E2 04 01 13 BA F0 FF FF  .....)..........
1150: 7F 24 80 25 80 26 80 2E  80 BA 8B E2 04 01 06 80  .$.%.&..........
1160: 07 80 08 80 09 80 BA 8C  E2 04 01 0A 80 0B 80 0C  ................
1170: 80 0D 80 BA A0 E2 04 01  0E 80 0F 80 10 80 11 80  ................
1180: 80 94 E2 04 01 80 95 E2  04 01 80 F0 FF FF 7F 6C  ...............l
1190: 95 E2 04 01 49 80 01 80  BB 13 80 8B E2 04 01 8B  ....I...........
11A0: E2 04 01 00 FE FE FE 14  80 BB 4A 80 95 E2 04 01  ..........J.....
11B0: 95 E2 04 01 00 FE FE FE  14 80 BB 4B 80 94 E2 04  ...........K....
11C0: 01 94 E2 04 01 00 FE FE  FE 14 80 1C 3C 80 29 10  ............<.).
11D0: F0 FF FF 7F 04 03 00 00  02 10 BB 13 80 8B E2 04  ................
11E0: 01 8B E2 04 01 73 30 30  35 14 80 BB 28 80 8C E2  .....s005...(...
11F0: 04 01 8C E2 04 01 73 30  30 30 14 80 5B 33 80 95  ......s000..[3..
1200: E2 04 01 95 E2 04 01 70  6F 70 6C 79 00 F0 FF FF  .......poply....
1210: 7F A0 E2 04 01 1C 17 80  9A 45 19 80 F0 FF FF 7F  .........E......
1220: F0 FF FF 7F 79 30 30 30  14 80 1A F3 66 1C 44 80  ....y000....f.D.
1230: 2B 94 E2 04 01 63 80 45  19 80 F0 FF FF 7F F0 FF  +....c.E........
1240: FF 7F 31 64 6F 6B 14 80  1C 1B 80 23 5B 3B 80 95  ..1dok.....#[;..
1250: E2 04 01 95 E2 04 01 6D  6F 65 30 1C 3C 80 52 19  .......moe0.<.R.
1260: 80 F0 FF FF 7F F0 FF FF  7F 79 30 30 30 45 19 80  .........y000E..
1270: F0 FF FF 7F F0 FF FF 7F  7A 30 30 39 14 80 45 19  ........z009..E.
1280: 80 F0 FF FF 7F F0 FF FF  7F 6F 76 34 30 14 80 1C  .........ov40...
1290: 3D 80 1C 3D 80 02 00 00  35 80 80 D1 12 52 19 80  =..=....5....R..
12A0: F0 FF FF 7F F0 FF FF 7F  7A 30 30 39 45 19 80 F0  ........z009E...
12B0: FF FF 7F F0 FF FF 7F 6F  76 33 30 14 80 45 19 80  .......ov30..E..
12C0: F0 FF FF 7F F0 FF FF 7F  7A 6D 30 38 14 80 01 2E  ........zm08....
12D0: 14 02 00 00 2F 80 80 0D  13 52 19 80 F0 FF FF 7F  ..../....R......
12E0: F0 FF FF 7F 7A 30 30 39  45 19 80 F0 FF FF 7F F0  ....z009E.......
12F0: FF FF 7F 6F 76 33 30 14  80 45 19 80 F0 FF FF 7F  ...ov30..E......
1300: F0 FF FF 7F 7A 67 30 38  14 80 01 2E 14 02 00 00  ....zg08........
1310: 30 80 80 49 13 52 19 80  F0 FF FF 7F F0 FF FF 7F  0..I.R..........
1320: 7A 30 30 39 45 19 80 F0  FF FF 7F F0 FF FF 7F 6F  z009E..........o
1330: 76 33 30 14 80 45 19 80  F0 FF FF 7F F0 FF FF 7F  v30..E..........
1340: 7A 74 30 38 14 80 01 2E  14 02 00 00 31 80 80 85  zt08........1...
1350: 13 52 19 80 F0 FF FF 7F  F0 FF FF 7F 7A 30 30 39  .R..........z009
1360: 45 19 80 F0 FF FF 7F F0  FF FF 7F 6F 76 33 30 14  E..........ov30.
1370: 80 45 19 80 F0 FF FF 7F  F0 FF FF 7F 7A 74 30 38  .E..........zt08
1380: 14 80 01 2E 14 02 00 00  36 80 80 C1 13 52 19 80  ........6....R..
1390: F0 FF FF 7F F0 FF FF 7F  7A 30 30 39 45 19 80 F0  ........z009E...
13A0: FF FF 7F F0 FF FF 7F 6F  76 33 30 14 80 45 19 80  .......ov30..E..
13B0: F0 FF FF 7F F0 FF FF 7F  7A 6D 30 38 14 80 01 2E  ........zm08....
13C0: 14 02 00 00 32 80 80 FD  13 52 19 80 F0 FF FF 7F  ....2....R......
13D0: F0 FF FF 7F 7A 30 30 39  45 19 80 F0 FF FF 7F F0  ....z009E.......
13E0: FF FF 7F 6F 76 33 30 14  80 45 19 80 F0 FF FF 7F  ...ov30..E......
13F0: F0 FF FF 7F 7A 67 30 38  14 80 01 2E 14 52 19 80  ....zg08.....R..
1400: F0 FF FF 7F F0 FF FF 7F  7A 30 30 39 45 19 80 F0  ........z009E...
1410: FF FF 7F F0 FF FF 7F 6F  76 33 30 14 80 45 19 80  .......ov30..E..
1420: F0 FF FF 7F F0 FF FF 7F  7A 30 30 38 14 80 1C 1F  ........z008....
1430: 80 52 19 80 F0 FF FF 7F  F0 FF FF 7F 7A 30 30 38  .R..........z008
1440: 52 19 80 F0 FF FF 7F F0  FF FF 7F 7A 6D 30 38 52  R..........zm08R
1450: 19 80 F0 FF FF 7F F0 FF  FF 7F 7A 74 30 38 52 19  ..........zt08R.
1460: 80 F0 FF FF 7F F0 FF FF  7F 7A 67 30 38 45 19 80  .........zg08E..
1470: F0 FF FF 7F F0 FF FF 7F  7A 30 31 32 14 80 7B F0  ........z012..{.
1480: FF FF 7F BA 94 E2 04 01  3F 80 40 80 41 80 42 80  ........?.@.A.B.
1490: 79 00 94 E2 04 01 F0 FF  FF 7F 1C 1E 80 52 19 80  y............R..
14A0: F0 FF FF 7F F0 FF FF 7F  7A 30 31 32 45 19 80 F0  ........z012E...
14B0: FF FF 7F F0 FF FF 7F 6F  76 34 30 14 80 45 19 80  .......ov40..E..
14C0: F0 FF FF 7F F0 FF FF 7F  7A 30 31 33 14 80 27 10  ........z013..'.
14D0: A0 E2 04 01 0A 1C 1B 80  1C 1B 80 02 00 00 32 80  ..............2.
14E0: 80 17 15 52 19 80 F0 FF  FF 7F F0 FF FF 7F 7A 30  ...R..........z0
14F0: 31 33 45 19 80 F0 FF FF  7F F0 FF FF 7F 6F 76 34  13E..........ov4
1500: 30 14 80 45 19 80 F0 FF  FF 7F F0 FF FF 7F 7A 67  0..E..........zg
1510: 31 34 14 80 01 48 15 52  19 80 F0 FF FF 7F F0 FF  14...H.R........
1520: FF 7F 7A 30 31 33 45 19  80 F0 FF FF 7F F0 FF FF  ..z013E.........
1530: 7F 6F 76 34 30 14 80 45  19 80 F0 FF FF 7F F0 FF  .ov40..E........
1540: FF 7F 7A 30 31 34 14 80  27 10 A0 E2 04 01 0B BB  ..z014..'.......
1550: 43 80 94 E2 04 01 94 E2  04 01 6D 61 69 6E 14 80  C.........main..
1560: 45 19 80 F0 FF FF 7F F0  FF FF 7F 69 6E 6E 6B 14  E..........innk.
1570: 80 1C 44 80 4B F0 FF FF  7F 45 80 6F 76 F0 FF FF  ..D.K....E.ov...
1580: 7F 1C 44 80 52 19 80 F0  FF FF 7F F0 FF FF 7F 7A  ..D.R..........z
1590: 30 31 34 52 19 80 F0 FF  FF 7F F0 FF FF 7F 7A 67  014R..........zg
15A0: 31 34 45 19 80 F0 FF FF  7F F0 FF FF 7F 6F 76 34  14E..........ov4
15B0: 30 14 80 45 19 80 F0 FF  FF 7F F0 FF FF 7F 7A 30  0..E..........z0
15C0: 31 37 14 80 1C 27 80 2B  95 E2 04 01 46 80 23 52  17...'.+....F.#R
15D0: 19 80 F0 FF FF 7F F0 FF  FF 7F 7A 30 31 37 45 19  ..........z017E.
15E0: 80 F0 FF FF 7F F0 FF FF  7F 6F 76 34 30 14 80 45  .........ov40..E
15F0: 19 80 F0 FF FF 7F F0 FF  FF 7F 7A 30 31 35 14 80  ..........z015..
1600: 5D 14 80 27 80 2B 94 E2  04 01 64 80 1C 27 80 23  ]..'.+....d..'.#
1610: 5C 00 47 80 5C 01 47 80  9A 52 19 80 F0 FF FF 7F  \.G.\.G..R......
1620: F0 FF FF 7F 7A 30 31 35  45 19 80 F0 FF FF 7F F0  ....z015E.......
1630: FF FF 7F 6F 76 34 30 14  80 45 19 80 F0 FF FF 7F  ...ov40..E......
1640: F0 FF FF 7F 7A 30 31 36  14 80 1C 44 80 2B 94 E2  ....z016...D.+..
1650: 04 01 65 80 23 1A 67 68  1C 44 80 1A 14 67 45 19  ..e.#.gh.D...gE.
1660: 80 F0 FF FF 7F F0 FF FF  7F 30 62 6C 72 14 80 52  .........0blr..R
1670: 19 80 F0 FF FF 7F F0 FF  FF 7F 7A 30 31 36 1A 35  ..........z016.5
1680: 67 1C 30 80 5C 00 14 80  5C 01 14 80 9A 46 00 45  g.0.\...\....F.E
1690: 1A 80 F0 FF FF 7F F0 FF  FF 7F 66 64 69 32 14 80  ..........fdi2..
16A0: 21 00                                             !.              
```

#### Opcodes

```
  0: 0x10B8 [0x42] SET_CLI_EVENT_CANCEL_DATA()
  1: 0x10B9 [0x1A] CALL_SUBROUTINE(address=0x6714)
  2: 0x10BC [0x46] CAMERA_CONTROL: Disable user control
  3: 0x10BE [0x38] SET_CLIENT_EVENT_MODE(mode=19*)
  4: 0x10C1 [0x1C] WAIT(1* ticks)
  5: 0x10C4 [0x5C] MUSIC_CONTROL: Set Idle (Day) music to song 155*
  6: 0x10C8 [0x5C] MUSIC_CONTROL: Set Idle (Night) music to song 155*
  7: 0x10CC [0x4E] SET_ENTITY_HIDE_FLAG: Show LocalPlayer
  8: 0x10D2 [0x1C] WAIT(1* ticks)
  9: 0x10D5 [0x4E] SET_ENTITY_HIDE_FLAG: Show ??? (ID: 17097355/0x0104E28B)
 10: 0x10DB [0x4E] SET_ENTITY_HIDE_FLAG: Show Unnamed NPC (ID: 17097356/0x0104E28C)
 11: 0x10E1 [0x4E] SET_ENTITY_HIDE_FLAG: Show ??? (ID: 17097376/0x0104E2A0)
 12: 0x10E7 [0x27] REQ_SET(priority=0x10, entity_id=Odin (ID: 17097364/0x0104E294), tag_num=0x02)
 13: 0x10EE [0x27] REQ_SET(priority=0x10, entity_id=Odin Prime (ID: 17097365/0x0104E295), tag_num=0x02)
 14: 0x10F5 [0x92] ??? (ID: 17097376/0x0104E2A0)->Render.Flags3 ^= 0x01
 15: 0x10FB [0x92] Odin (ID: 17097364/0x0104E294)->Render.Flags3 ^= 0x01
 16: 0x1101 [0x92] Odin Prime (ID: 17097365/0x0104E295)->Render.Flags3 ^= 0x01
 17: 0x1107 [0x92] ??? (ID: 17097355/0x0104E28B)->Render.Flags3 ^= 0x01
 18: 0x110D [0x92] Unnamed NPC (ID: 17097356/0x0104E28C)->Render.Flags3 ^= 0x01
 19: 0x1113 [0x94] LocalPlayer->Render.Flags3 ^= 0x01
 20: 0x1119 [0x94] Odin (ID: 17097364/0x0104E294)->Render.Flags3 ^= 0x01
 21: 0x111F [0x94] Odin Prime (ID: 17097365/0x0104E295)->Render.Flags3 ^= 0x01
 22: 0x1125 [0x94] ??? (ID: 17097355/0x0104E28B)->Render.Flags3 ^= 0x01
 23: 0x112B [0x94] Unnamed NPC (ID: 17097356/0x0104E28C)->Render.Flags3 ^= 0x01
 24: 0x1131 [0x94] ??? (ID: 17097376/0x0104E2A0)->Render.Flags3 ^= 0x01
 25: 0x1137 [0x59] UPDATE_ENTITY_DATA: ??? (ID: 17097376/0x0104E2A0)->Render.Flags0 |= 0x200000
 26: 0x113E [0x29] REQ_SET_WAIT(priority=0x10, entity_id=Odin (ID: 17097364/0x0104E294), tag_num=0x13)
 27: 0x1145 [0x29] REQ_SET_WAIT(priority=0x10, entity_id=Odin Prime (ID: 17097365/0x0104E295), tag_num=0x13)
 28: 0x114C [0xBA] SET_ENTITY_POSITION(entity_id=LocalPlayer, pos_x=-284.553*, pos_z=-44.390*, pos_y=33.960*, direction=134.4°*)
 29: 0x1159 [0xBA] SET_ENTITY_POSITION(entity_id=??? (ID: 17097355/0x0104E28B), pos_x=-275.976*, pos_z=-35.909*, pos_y=33.942*, direction=315.0°*)
 30: 0x1166 [0xBA] SET_ENTITY_POSITION(entity_id=Unnamed NPC (ID: 17097356/0x0104E28C), pos_x=-280.082*, pos_z=-40.259*, pos_y=33.999*, direction=306.0°*)
 31: 0x1173 [0xBA] SET_ENTITY_POSITION(entity_id=??? (ID: 17097376/0x0104E2A0), pos_x=-292.935*, pos_z=-51.686*, pos_y=31.114*, direction=141.1°*)
 32: 0x1180 [0x80] LOAD_WAIT(entity=Odin (ID: 17097364/0x0104E294))
 33: 0x1185 [0x80] LOAD_WAIT(entity=Odin Prime (ID: 17097365/0x0104E295))
 34: 0x118A [0x80] LOAD_WAIT(entity=LocalPlayer)
 35: 0x118F [0x6C] FADE_ENTITY_COLOR(entity_id=Odin Prime (ID: 17097365/0x0104E295), end_alpha=128*, fade_time=1*)
 36: 0x1198 [0xBB] LOAD_EVENT_SCHEDULER_ALT: Load scheduler 0xFEFEFE00 with entities [??? (ID: 17097355/0x0104E28B), ??? (ID: 17097355/0x0104E28B)], work=[71*, 0*]
 37: 0x11A9 [0xBB] LOAD_EVENT_SCHEDULER_ALT: Load scheduler 0xFEFEFE00 with entities [Odin Prime (ID: 17097365/0x0104E295), Odin Prime (ID: 17097365/0x0104E295)], work=[87*, 0*]
 38: 0x11BA [0xBB] LOAD_EVENT_SCHEDULER_ALT: Load scheduler 0xFEFEFE00 with entities [Odin (ID: 17097364/0x0104E294), Odin (ID: 17097364/0x0104E294)], work=[88*, 0*]
 39: 0x11CB [0x1C] WAIT(10* ticks)
 40: 0x11CE [0x29] REQ_SET_WAIT(priority=0x10, entity_id=LocalPlayer, tag_num=0x04)
 41: 0x11D5 [0x03] ExtData[1]->WorkLocal[0] = Work_Zone[2]
 42: 0x11DA [0xBB] LOAD_EVENT_SCHEDULER_ALT: Load scheduler "s005" with entities [??? (ID: 17097355/0x0104E28B), ??? (ID: 17097355/0x0104E28B)], work=[71*, 0*]
 43: 0x11EB [0xBB] LOAD_EVENT_SCHEDULER_ALT: Load scheduler "s000" with entities [Unnamed NPC (ID: 17097356/0x0104E28C), Unnamed NPC (ID: 17097356/0x0104E28C)], work=[72*, 0*]
 44: 0x11FC [0x5B] LOAD_EXT_SCHEDULER: Load scheduler "popl" with entities [Odin Prime (ID: 17097365/0x0104E295), Odin Prime (ID: 17097365/0x0104E295)], work=1036*
 45: 0x120B [0x79] LocalPlayer looks at ??? (ID: 17097376/0x0104E2A0) (Basic look)
 46: 0x1215 [0x1C] WAIT(15* ticks)
 47: 0x1218 [0x9A] WAIT_MUSIC_SERVER()
 48: 0x1219 [0x45] LOAD_SCHEDULED_TASK: Load scheduler "y000" with entities [LocalPlayer, LocalPlayer], work=[521*, 0*]
 49: 0x122A [0x1A] CALL_SUBROUTINE(address=0x66F3)
 50: 0x122D [0x1C] WAIT(30* ticks)
 51: 0x1230 [0x2B] Odin (ID: 17097364/0x0104E294) [7879*]:
    → "I am come. For as long as thy heart o'erbrims with base desire, I shall stand to meet thee."
 52: 0x1237 [0x45] LOAD_SCHEDULED_TASK: Load scheduler "1dok" with entities [LocalPlayer, LocalPlayer], work=[521*, 0*]
 53: 0x1248 [0x1C] WAIT(100* ticks)
 54: 0x124B [0x23] WAIT_FOR_DIALOG_INTERACTION
 55: 0x124C [0x5B] LOAD_EXT_SCHEDULER: Load scheduler "moe0" with entities [Odin Prime (ID: 17097365/0x0104E295), Odin Prime (ID: 17097365/0x0104E295)], work=1214*
 56: 0x125B [0x1C] WAIT(10* ticks)
 57: 0x125E [0x52] END_LOAD_SCHEDULER: End scheduler "y000" with entities [LocalPlayer, LocalPlayer], work=521*
 58: 0x126D [0x45] LOAD_SCHEDULED_TASK: Load scheduler "z009" with entities [LocalPlayer, LocalPlayer], work=[521*, 0*]
 59: 0x127E [0x45] LOAD_SCHEDULED_TASK: Load scheduler "ov40" with entities [LocalPlayer, LocalPlayer], work=[521*, 0*]
 60: 0x128F [0x1C] WAIT(50* ticks)
 61: 0x1292 [0x1C] WAIT(50* ticks)
 62: 0x1295 [0x02] IF !(ExtData[1]->WorkLocal[0] == 2*) GOTO 0x12D1
 63: 0x129D [0x52] END_LOAD_SCHEDULER: End scheduler "z009" with entities [LocalPlayer, LocalPlayer], work=521*
 64: 0x12AC [0x45] LOAD_SCHEDULED_TASK: Load scheduler "ov30" with entities [LocalPlayer, LocalPlayer], work=[521*, 0*]
 65: 0x12BD [0x45] LOAD_SCHEDULED_TASK: Load scheduler "zm08" with entities [LocalPlayer, LocalPlayer], work=[521*, 0*]
 66: 0x12CE [0x01] GOTO 0x142E
 67: 0x12D1 [0x02] IF !(ExtData[1]->WorkLocal[0] == 3*) GOTO 0x130D
 68: 0x12D9 [0x52] END_LOAD_SCHEDULER: End scheduler "z009" with entities [LocalPlayer, LocalPlayer], work=521*
 69: 0x12E8 [0x45] LOAD_SCHEDULED_TASK: Load scheduler "ov30" with entities [LocalPlayer, LocalPlayer], work=[521*, 0*]
 70: 0x12F9 [0x45] LOAD_SCHEDULED_TASK: Load scheduler "zg08" with entities [LocalPlayer, LocalPlayer], work=[521*, 0*]
 71: 0x130A [0x01] GOTO 0x142E
 72: 0x130D [0x02] IF !(ExtData[1]->WorkLocal[0] == 5*) GOTO 0x1349
 73: 0x1315 [0x52] END_LOAD_SCHEDULER: End scheduler "z009" with entities [LocalPlayer, LocalPlayer], work=521*
 74: 0x1324 [0x45] LOAD_SCHEDULED_TASK: Load scheduler "ov30" with entities [LocalPlayer, LocalPlayer], work=[521*, 0*]
 75: 0x1335 [0x45] LOAD_SCHEDULED_TASK: Load scheduler "zt08" with entities [LocalPlayer, LocalPlayer], work=[521*, 0*]
 76: 0x1346 [0x01] GOTO 0x142E
 77: 0x1349 [0x02] IF !(ExtData[1]->WorkLocal[0] == 6*) GOTO 0x1385
 78: 0x1351 [0x52] END_LOAD_SCHEDULER: End scheduler "z009" with entities [LocalPlayer, LocalPlayer], work=521*
 79: 0x1360 [0x45] LOAD_SCHEDULED_TASK: Load scheduler "ov30" with entities [LocalPlayer, LocalPlayer], work=[521*, 0*]
 80: 0x1371 [0x45] LOAD_SCHEDULED_TASK: Load scheduler "zt08" with entities [LocalPlayer, LocalPlayer], work=[521*, 0*]
 81: 0x1382 [0x01] GOTO 0x142E
 82: 0x1385 [0x02] IF !(ExtData[1]->WorkLocal[0] == 7*) GOTO 0x13C1
 83: 0x138D [0x52] END_LOAD_SCHEDULER: End scheduler "z009" with entities [LocalPlayer, LocalPlayer], work=521*
 84: 0x139C [0x45] LOAD_SCHEDULED_TASK: Load scheduler "ov30" with entities [LocalPlayer, LocalPlayer], work=[521*, 0*]
 85: 0x13AD [0x45] LOAD_SCHEDULED_TASK: Load scheduler "zm08" with entities [LocalPlayer, LocalPlayer], work=[521*, 0*]
 86: 0x13BE [0x01] GOTO 0x142E
 87: 0x13C1 [0x02] IF !(ExtData[1]->WorkLocal[0] == 8*) GOTO 0x13FD
 88: 0x13C9 [0x52] END_LOAD_SCHEDULER: End scheduler "z009" with entities [LocalPlayer, LocalPlayer], work=521*
 89: 0x13D8 [0x45] LOAD_SCHEDULED_TASK: Load scheduler "ov30" with entities [LocalPlayer, LocalPlayer], work=[521*, 0*]
 90: 0x13E9 [0x45] LOAD_SCHEDULED_TASK: Load scheduler "zg08" with entities [LocalPlayer, LocalPlayer], work=[521*, 0*]
 91: 0x13FA [0x01] GOTO 0x142E
 92: 0x13FD [0x52] END_LOAD_SCHEDULER: End scheduler "z009" with entities [LocalPlayer, LocalPlayer], work=521*
 93: 0x140C [0x45] LOAD_SCHEDULED_TASK: Load scheduler "ov30" with entities [LocalPlayer, LocalPlayer], work=[521*, 0*]
 94: 0x141D [0x45] LOAD_SCHEDULED_TASK: Load scheduler "z008" with entities [LocalPlayer, LocalPlayer], work=[521*, 0*]

SUBROUTINE_142E:
 95: 0x142E [0x1C] WAIT(80* ticks)
 96: 0x1431 [0x52] END_LOAD_SCHEDULER: End scheduler "z008" with entities [LocalPlayer, LocalPlayer], work=521*
 97: 0x1440 [0x52] END_LOAD_SCHEDULER: End scheduler "zm08" with entities [LocalPlayer, LocalPlayer], work=521*
 98: 0x144F [0x52] END_LOAD_SCHEDULER: End scheduler "zt08" with entities [LocalPlayer, LocalPlayer], work=521*
 99: 0x145E [0x52] END_LOAD_SCHEDULER: End scheduler "zg08" with entities [LocalPlayer, LocalPlayer], work=521*
100: 0x146D [0x45] LOAD_SCHEDULED_TASK: Load scheduler "z012" with entities [LocalPlayer, LocalPlayer], work=[521*, 0*]
101: 0x147E [0x7B] LocalPlayer stops talking
102: 0x1483 [0xBA] SET_ENTITY_POSITION(entity_id=Odin (ID: 17097364/0x0104E294), pos_x=-276.314*, pos_z=-36.071*, pos_y=33.938*, direction=114.3°*)
103: 0x1490 [0x79] Odin (ID: 17097364/0x0104E294) looks at LocalPlayer (Basic look)
104: 0x149A [0x1C] WAIT(120* ticks)
105: 0x149D [0x52] END_LOAD_SCHEDULER: End scheduler "z012" with entities [LocalPlayer, LocalPlayer], work=521*
106: 0x14AC [0x45] LOAD_SCHEDULED_TASK: Load scheduler "ov40" with entities [LocalPlayer, LocalPlayer], work=[521*, 0*]
107: 0x14BD [0x45] LOAD_SCHEDULED_TASK: Load scheduler "z013" with entities [LocalPlayer, LocalPlayer], work=[521*, 0*]
108: 0x14CE [0x27] REQ_SET(priority=0x10, entity_id=??? (ID: 17097376/0x0104E2A0), tag_num=0x0A)
109: 0x14D5 [0x1C] WAIT(100* ticks)
110: 0x14D8 [0x1C] WAIT(100* ticks)
111: 0x14DB [0x02] IF !(ExtData[1]->WorkLocal[0] == 8*) GOTO 0x1517
112: 0x14E3 [0x52] END_LOAD_SCHEDULER: End scheduler "z013" with entities [LocalPlayer, LocalPlayer], work=521*
113: 0x14F2 [0x45] LOAD_SCHEDULED_TASK: Load scheduler "ov40" with entities [LocalPlayer, LocalPlayer], work=[521*, 0*]
114: 0x1503 [0x45] LOAD_SCHEDULED_TASK: Load scheduler "zg14" with entities [LocalPlayer, LocalPlayer], work=[521*, 0*]
115: 0x1514 [0x01] GOTO 0x1548
116: 0x1517 [0x52] END_LOAD_SCHEDULER: End scheduler "z013" with entities [LocalPlayer, LocalPlayer], work=521*
117: 0x1526 [0x45] LOAD_SCHEDULED_TASK: Load scheduler "ov40" with entities [LocalPlayer, LocalPlayer], work=[521*, 0*]
118: 0x1537 [0x45] LOAD_SCHEDULED_TASK: Load scheduler "z014" with entities [LocalPlayer, LocalPlayer], work=[521*, 0*]

SUBROUTINE_1548:
119: 0x1548 [0x27] REQ_SET(priority=0x10, entity_id=??? (ID: 17097376/0x0104E2A0), tag_num=0x0B)
120: 0x154F [0xBB] LOAD_EVENT_SCHEDULER_ALT: Load scheduler "main" with entities [Odin (ID: 17097364/0x0104E294), Odin (ID: 17097364/0x0104E294)], work=[76*, 0*]
121: 0x1560 [0x45] LOAD_SCHEDULED_TASK: Load scheduler "innk" with entities [LocalPlayer, LocalPlayer], work=[521*, 0*]
122: 0x1571 [0x1C] WAIT(30* ticks)
123: 0x1574 [0x4B] UPDATE_ENTITY_YAW(entity=LocalPlayer, yaw=19.4°*)
124: 0x157B [0x6F] WAIT_FRAME_DELAY: Yield until WaitTime reaches zero
125: 0x157C [0x76] CHECK_ENTITY_RENDER_FLAGS: Wait until LocalPlayer Render.Flags0 and Render.Flags3 conditions are met
126: 0x1581 [0x1C] WAIT(30* ticks)
127: 0x1584 [0x52] END_LOAD_SCHEDULER: End scheduler "z014" with entities [LocalPlayer, LocalPlayer], work=521*
128: 0x1593 [0x52] END_LOAD_SCHEDULER: End scheduler "zg14" with entities [LocalPlayer, LocalPlayer], work=521*
129: 0x15A2 [0x45] LOAD_SCHEDULED_TASK: Load scheduler "ov40" with entities [LocalPlayer, LocalPlayer], work=[521*, 0*]
130: 0x15B3 [0x45] LOAD_SCHEDULED_TASK: Load scheduler "z017" with entities [LocalPlayer, LocalPlayer], work=[521*, 0*]
131: 0x15C4 [0x1C] WAIT(180* ticks)
132: 0x15C7 [0x2B] Odin Prime (ID: 17097365/0x0104E295) [7857*]:
    → "..."
133: 0x15CE [0x23] WAIT_FOR_DIALOG_INTERACTION
134: 0x15CF [0x52] END_LOAD_SCHEDULER: End scheduler "z017" with entities [LocalPlayer, LocalPlayer], work=521*
135: 0x15DE [0x45] LOAD_SCHEDULED_TASK: Load scheduler "ov40" with entities [LocalPlayer, LocalPlayer], work=[521*, 0*]
136: 0x15EF [0x45] LOAD_SCHEDULED_TASK: Load scheduler "z015" with entities [LocalPlayer, LocalPlayer], work=[521*, 0*]
137: 0x1600 [0x5D] SET_MUSIC_VOLUME(volume=0*, fade_time=180*)
138: 0x1605 [0x2B] Odin (ID: 17097364/0x0104E294) [7880*]:
    → "Dost thou not see? Our fates are entwined, now and for all days. Do not resist. Let thy rage seethe forth!"
139: 0x160C [0x1C] WAIT(180* ticks)
140: 0x160F [0x23] WAIT_FOR_DIALOG_INTERACTION
141: 0x1610 [0x5C] MUSIC_CONTROL: Set Idle (Day) music to song 186*
142: 0x1614 [0x5C] MUSIC_CONTROL: Set Idle (Night) music to song 186*
143: 0x1618 [0x9A] WAIT_MUSIC_SERVER()
144: 0x1619 [0x52] END_LOAD_SCHEDULER: End scheduler "z015" with entities [LocalPlayer, LocalPlayer], work=521*
145: 0x1628 [0x45] LOAD_SCHEDULED_TASK: Load scheduler "ov40" with entities [LocalPlayer, LocalPlayer], work=[521*, 0*]
146: 0x1639 [0x45] LOAD_SCHEDULED_TASK: Load scheduler "z016" with entities [LocalPlayer, LocalPlayer], work=[521*, 0*]
147: 0x164A [0x1C] WAIT(30* ticks)
148: 0x164D [0x2B] Odin (ID: 17097364/0x0104E294) [7881*]:
    → "To the victor go the spoils. If thou wouldst claim what thou desirest, stand now and face my blade!"
149: 0x1654 [0x23] WAIT_FOR_DIALOG_INTERACTION
150: 0x1655 [0x1A] CALL_SUBROUTINE(address=0x6867)
151: 0x1658 [0x1C] WAIT(30* ticks)
152: 0x165B [0x1A] CALL_SUBROUTINE(address=0x6714)
153: 0x165E [0x45] LOAD_SCHEDULED_TASK: Load scheduler "0blr" with entities [LocalPlayer, LocalPlayer], work=[521*, 0*]
154: 0x166F [0x52] END_LOAD_SCHEDULER: End scheduler "z016" with entities [LocalPlayer, LocalPlayer], work=521*
155: 0x167E [0x1A] CALL_SUBROUTINE(address=0x6735)
156: 0x1681 [0x1C] WAIT(5* ticks)
157: 0x1684 [0x5C] MUSIC_CONTROL: Set Idle (Day) music to song 0*
158: 0x1688 [0x5C] MUSIC_CONTROL: Set Idle (Night) music to song 0*
159: 0x168C [0x9A] WAIT_MUSIC_SERVER()
160: 0x168D [0x46] CAMERA_CONTROL: Restore default settings
161: 0x168F [0x45] LOAD_SCHEDULED_TASK: Load scheduler "fdi2" with entities [LocalPlayer, LocalPlayer], work=[200*, 0*]
162: 0x16A0 [0x21] END_EVENT
163: 0x16A1 [0x00] END_REQSTACK()
```

### Event 12

#### Metadata

| Field        | Value       |
|--------------|-------------|
| Entrypoint   | 0x16A2      |
| Data Size    | 16595 bytes |
| Instructions | 1713        |

```
      00 01 02 03 04 05 06 07  08 09 0A 0B 0C 0D 0E 0F
      -- -- -- -- -- -- -- --  -- -- -- -- -- -- -- --
16A0:       42 1A 14 67 46 01  5D 14 80 1E 80 38 00 80    B..gF.]....8..
16B0: 1C 01 80 29 10 F0 FF FF  7F 04 03 00 00 02 10 5C  ...)...........\
16C0: 00 12 80 5C 01 12 80 4E  00 F0 FF FF 7F 1C 01 80  ...\...N........
16D0: 4E 00 8B E2 04 01 4E 00  8C E2 04 01 4E 00 A0 E2  N.....N.....N...
16E0: 04 01 27 10 94 E2 04 01  02 27 10 95 E2 04 01 02  ..'......'......
16F0: 92 01 A0 E2 04 01 92 01  94 E2 04 01 92 01 95 E2  ................
1700: 04 01 92 01 8B E2 04 01  92 01 8C E2 04 01 94 01  ................
1710: F0 FF FF 7F 94 01 94 E2  04 01 94 01 95 E2 04 01  ................
1720: 94 01 8B E2 04 01 94 01  8C E2 04 01 94 01 A0 E2  ................
1730: 04 01 59 05 A0 E2 04 01  01 29 10 94 E2 04 01 14  ..Y......)......
1740: 29 10 95 E2 04 01 13 BA  F0 FF FF 7F 24 80 25 80  )...........$.%.
1750: 26 80 2E 80 BA 8B E2 04  01 06 80 07 80 08 80 09  &...............
1760: 80 BA 8C E2 04 01 0A 80  0B 80 0C 80 0D 80 BA A0  ................
1770: E2 04 01 0E 80 0F 80 66  80 11 80 80 94 E2 04 01  .......f........
1780: 80 95 E2 04 01 80 F0 FF  FF 7F 6C 95 E2 04 01 49  ..........l....I
1790: 80 01 80 29 10 F0 FF FF  7F 04 03 00 00 02 10 BB  ...)............
17A0: 13 80 8B E2 04 01 8B E2  04 01 00 FE FE FE 14 80  ................
17B0: BB 4A 80 95 E2 04 01 95  E2 04 01 00 FE FE FE 14  .J..............
17C0: 80 BB 4B 80 94 E2 04 01  94 E2 04 01 00 FE FE FE  ..K.............
17D0: 14 80 1C 3C 80 BB 13 80  8B E2 04 01 8B E2 04 01  ...<............
17E0: 73 30 30 35 14 80 BB 28  80 8C E2 04 01 8C E2 04  s005...(........
17F0: 01 73 30 30 30 14 80 5B  33 80 95 E2 04 01 95 E2  .s000..[3.......
1800: 04 01 70 6F 70 6C 79 00  F0 FF FF 7F A0 E2 04 01  ..poply.........
1810: 03 04 00 14 80 03 01 10  31 80 43 00 43 01 03 01  ........1.C.C...
1820: 00 08 10 1C 01 80 9A 02  01 00 4B 80 00 32 18 01  ..........K..2..
1830: 0A 42 02 01 00 67 80 00  3D 18 01 03 57 02 01 00  .B...g..=...W...
1840: 68 80 00 4A 18 03 04 00  01 80 45 19 80 F0 FF FF  h..J......E.....
1850: 7F F0 FF FF 7F 79 30 30  30 14 80 1A F3 66 2B 94  .....y000....f+.
1860: E2 04 01 4C 80 23 2B 94  E2 04 01 4D 80 23 03 01  ...L.#+....M.#..
1870: 10 69 80 43 00 43 01 24  6A 80 14 80 09 10 25 02  .i.C.C.$j.....%.
1880: 00 10 14 80 00 A0 18 03  01 10 2A 80 43 00 43 01  ..........*.C.C.
1890: 03 03 00 02 10 03 05 00  03 10 01 66 1F 01 2C 19  ...........f..,.
18A0: 02 00 10 01 80 00 BC 18  03 01 10 6B 80 43 00 43  ...........k.C.C
