# 0x7FFFFFF0 - Zone Events

## Common Data

| Field            | Value                            |
|------------------|----------------------------------|
| Zone             | Hazhalm Testing Grounds (ID: 78) |
| Block Size       | 7816 bytes                       |
| Total Events     | 24                               |
| References Count | 211                              |

## List of Events

| Event ID                   | Entrypoint   |   Size |   Instructions |
|----------------------------|--------------|--------|----------------|
| [65535](#event-65535)      | 0x0000       |      1 |              1 |
| [65534](#event-65534)      | 0x0001       |      1 |              1 |
| [3](#event-3)              | 0x0002       |    743 |            158 |
| [4](#event-4)              | 0x02E9       |    137 |             19 |
| [65535.1](#event-655351)   | 0x0372       |      6 |              2 |
| [65535.2](#event-655352)   | 0x0378       |      6 |              2 |
| [65535.3](#event-655353)   | 0x037E       |      7 |              3 |
| [65535.4](#event-655354)   | 0x0385       |      7 |              3 |
| [65535.5](#event-655355)   | 0x038C       |     37 |              5 |
| [65535.6](#event-655356)   | 0x03B1       |     37 |              5 |
| [65535.7](#event-655357)   | 0x03D6       |     24 |              4 |
| [65535.8](#event-655358)   | 0x03EE       |     24 |              4 |
| [65535.9](#event-655359)   | 0x0406       |      6 |              2 |
| [32000](#event-32000)      | 0x040C       |   2189 |            416 |
| [32002](#event-32002)      | 0x0C99       |    494 |             83 |
| [32001](#event-32001)      | 0x0E87       |    819 |            137 |
| [32003](#event-32003)      | 0x11BA       |    435 |             77 |
| [32004](#event-32004)      | 0x136D       |   1239 |            186 |
| [65535.10](#event-6553510) | 0x1844       |     15 |              5 |
| [65535.11](#event-6553511) | 0x1853       |     15 |              5 |
| [65535.12](#event-6553512) | 0x1862       |     42 |              6 |
| [65535.13](#event-6553513) | 0x188C       |     24 |              4 |
| [65535.14](#event-6553514) | 0x18A4       |     24 |              4 |
| [5](#event-5)              | 0x18BC       |    526 |             86 |

## DAT References (imed_data)

|   Index | Hex Value   |   Dec Value |
|---------|-------------|-------------|
|       0 | 0x0000      |           0 |
|       1 | 0x001E      |          30 |
|       2 | 0x1F74      |        8052 |
|       3 | 0x1F75      |        8053 |
|       4 | 0x0001      |           1 |
|       5 | 0x00C8      |         200 |
|       6 | 0x0FA0      |        4000 |
|       7 | 0x07D0      |        2000 |
|       8 | 0x6D600     |      448000 |
|       9 | 0xFFFFE0C0  |  4294959296 |
|      10 | 0xFFFCAEF6  |  4294749942 |
|      11 | 0x0A00      |        2560 |
|      12 | 0x001F      |          31 |
|      13 | 0x32C80     |      208000 |
|      14 | 0x1F40      |        8000 |
|      15 | 0xFFFCFD16  |  4294769942 |
|      16 | 0x0600      |        1536 |
|      17 | 0x0020      |          32 |
|      18 | 0x1F400     |      128000 |
|      19 | 0xFFFC75C0  |  4294735296 |
|      20 | 0xFFFD4B36  |  4294789942 |
|      21 | 0x0021      |          33 |
|      22 | 0xFFFDAE40  |  4294815296 |
|      23 | 0xFFFA04C0  |  4294575296 |
|      24 | 0xFFFDC066  |  4294819942 |
|      25 | 0x0022      |          34 |
|      26 | 0xFFFAFEC0  |  4294639296 |
|      27 | 0xFFFE0E86  |  4294839942 |
|      28 | 0x0023      |          35 |
|      29 | 0xFFF65B40  |  4294335296 |
|      30 | 0xFFFD6FC0  |  4294799296 |
|      31 | 0xFFFE5CA6  |  4294859942 |
|      32 | 0x0024      |          36 |
|      33 | 0xFFF7F180  |  4294439296 |
|      34 | 0x1B580     |      112000 |
|      35 | 0xFFFEF8E6  |  4294899942 |
|      36 | 0x0E00      |        3584 |
|      37 | 0x0025      |          37 |
|      38 | 0xFFF9C640  |  4294559296 |
|      39 | 0x55F00     |      352000 |
|      40 | 0xFFFF4706  |  4294919942 |
|      41 | 0x0026      |          38 |
|      42 | 0xFFFE0C00  |  4294839296 |
|      43 | 0x46500     |      288000 |
|      44 | 0xFFFFE346  |  4294959942 |
|      45 | 0x0200      |         512 |
|      46 | 0x0027      |          39 |
|      47 | 0x836E      |       33646 |
|      48 | 0x0002      |           2 |
|      49 | 0x1F84      |        8068 |
|      50 | 0x0372      |         882 |
|      51 | 0x0373      |         883 |
|      52 | 0x0374      |         884 |
|      53 | 0x0375      |         885 |
|      54 | 0x0376      |         886 |
|      55 | 0x0377      |         887 |
|      56 | 0x0378      |         888 |
|      57 | 0x0379      |         889 |
|      58 | 0x037A      |         890 |
|      59 | 0x1F76      |        8054 |
|      60 | 0x1F80      |        8064 |
|      61 | 0x0003      |           3 |
|      62 | 0x1F8C      |        8076 |
|      63 | 0x1F91      |        8081 |
|      64 | 0x1F92      |        8082 |
|      65 | 0x1F93      |        8083 |
|      66 | 0x1F94      |        8084 |
|      67 | 0x1F96      |        8086 |
|      68 | 0x1F97      |        8087 |
|      69 | 0x1F98      |        8088 |
|      70 | 0x1F99      |        8089 |
|      71 | 0x1F9A      |        8090 |
|      72 | 0x1FA8      |        8104 |
|      73 | 0x1FA9      |        8105 |
|      74 | 0x1FAA      |        8106 |
|      75 | 0x0004      |           4 |
|      76 | 0x1FAB      |        8107 |
|      77 | 0x1FAC      |        8108 |
|      78 | 0x1FAD      |        8109 |
|      79 | 0x1FAE      |        8110 |
|      80 | 0x1FAF      |        8111 |
|      81 | 0x7A120     |      500000 |
|      82 | 0xFFFFB1E0  |  4294947296 |
|      83 | 0xFFFC8B3C  |  4294740796 |
|      84 | 0x000F      |          15 |
|      85 | 0x0010      |          16 |
|      86 | 0xFFFFFFFF  |  4294967295 |
|      87 | 0x1DD9      |        7641 |
|      88 | 0x1DCB      |        7627 |
|      89 | 0x0005      |           5 |
|      90 | 0x1C5E      |        7262 |
|      91 | 0x00FF      |         255 |
|      92 | 0x0013      |          19 |
|      93 | 0x0008      |           8 |
|      94 | 0x0009      |           9 |
|      95 | 0x000B      |          11 |
|      96 | 0x1C69      |        7273 |
|      97 | 0x1C6A      |        7274 |
|      98 | 0x1C6B      |        7275 |
|      99 | 0x1C6C      |        7276 |
|     100 | 0x1C90      |        7312 |
|     101 | 0x0006      |           6 |
|     102 | 0x0007      |           7 |
|     103 | 0x000A      |          10 |
|     104 | 0x000C      |          12 |
|     105 | 0x000D      |          13 |
|     106 | 0x000E      |          14 |
|     107 | 0x0011      |          17 |
|     108 | 0x0012      |          18 |
|     109 | 0x0014      |          20 |
|     110 | 0x0015      |          21 |
|     111 | 0x0016      |          22 |
|     112 | 0x0017      |          23 |
|     113 | 0x0018      |          24 |
|     114 | 0x0019      |          25 |
|     115 | 0x001A      |          26 |
|     116 | 0x001B      |          27 |
|     117 | 0x001C      |          28 |
|     118 | 0x001D      |          29 |
|     119 | 0x1DC5      |        7621 |
|     120 | 0x003C      |          60 |
|     121 | 0x0064      |         100 |
|     122 | 0x1DB1      |        7601 |
|     123 | 0x008F      |         143 |
|     124 | 0x00BA      |         186 |
|     125 | 0x1C61      |        7265 |
|     126 | 0x00C9      |         201 |
|     127 | 0x00B4      |         180 |
|     128 | 0xFFF6C42B  |  4294362155 |
|     129 | 0x752B9     |      479929 |
|     130 | 0xFFFFA767  |  4294944615 |
|     131 | 0x03E0      |         992 |
|     132 | 0xFFFBFE43  |  4294704707 |
|     133 | 0x5C401     |      377857 |
|     134 | 0xFFFDE79F  |  4294829983 |
|     135 | 0x0D92      |        3474 |
|     136 | 0x47AC      |       18348 |
|     137 | 0x76E1C     |      486940 |
|     138 | 0xFFFC93B2  |  4294742962 |
|     139 | 0x00C2      |         194 |
|     140 | 0x388A9     |      231593 |
|     141 | 0x57E9E     |      360094 |
|     142 | 0xFFFD59FC  |  4294793724 |
|     143 | 0x0726      |        1830 |
|     144 | 0x872C0     |      553664 |
|     145 | 0x7FEA3     |      523939 |
|     146 | 0xFFFF6AC3  |  4294929091 |
|     147 | 0x0A65      |        2661 |
|     148 | 0xFFFC8D30  |  4294741296 |
|     149 | 0xFFF2A593  |  4294092179 |
|     150 | 0xFFFF548C  |  4294923404 |
|     151 | 0xFFFF442C  |  4294919212 |
|     152 | 0x0201      |         513 |
|     153 | 0xFFF478D5  |  4294211797 |
|     154 | 0x89AEB     |      563947 |
|     155 | 0xFFFE4A5D  |  4294855261 |
|     156 | 0x0DEF      |        3567 |
|     157 | 0x1E173     |      123251 |
|     158 | 0xB8221     |      754209 |
|     159 | 0xFFFD5FA4  |  4294795172 |
|     160 | 0x01B8      |         440 |
|     161 | 0xFFF81ECC  |  4294450892 |
|     162 | 0xFFF3BE05  |  4294163973 |
|     163 | 0x5E8E      |       24206 |
|     164 | 0x01B5      |         437 |
|     165 | 0x012C      |         300 |
|     166 | 0x0080      |         128 |
|     167 | 0xFFF690A7  |  4294348967 |
|     168 | 0xFFF62CE4  |  4294323428 |
|     169 | 0xFFFF9B33  |  4294941491 |
|     170 | 0x0EB1      |        3761 |
|     171 | 0xFFFAEE7D  |  4294635133 |
|     172 | 0xFFF941C6  |  4294525382 |
|     173 | 0xFFFE8CB1  |  4294872241 |
|     174 | 0x0EB0      |        3760 |
|     175 | 0xFFFFCF50  |  4294954832 |
|     176 | 0xFFF61B47  |  4294318919 |
|     177 | 0xFFFD07BB  |  4294772667 |
|     178 | 0x0EBA      |        3770 |
|     179 | 0x4EF35     |      323381 |
|     180 | 0xFFF93A6F  |  4294523503 |
|     181 | 0xFFFE5868  |  4294858856 |
|     182 | 0x0EA0      |        3744 |
|     183 | 0x92763     |      599907 |
|     184 | 0xFFF5AB97  |  4294290327 |
|     185 | 0xFFFFA837  |  4294944823 |
|     186 | 0x0EB3      |        3763 |
|     187 | 0x00A8      |         168 |
|     188 | 0x30D7B     |      200059 |
|     189 | 0xFFFFAA3A  |  4294945338 |
|     190 | 0xFFFFFF06  |  4294967046 |
|     191 | 0x0411      |        1041 |
|     192 | 0x1DB3      |        7603 |
|     193 | 0x1DB2      |        7602 |
|     194 | 0x1DD3      |        7635 |
|     195 | 0x1C5F      |        7263 |
|     196 | 0x006C      |         108 |
|     197 | 0x002D      |          45 |
|     198 | 0x00D7      |         215 |
|     199 | 0x0046      |          70 |
|     200 | 0x008C      |         140 |
|     201 | 0x00D2      |         210 |
|     202 | 0x0028      |          40 |
|     203 | 0xFFFBDB7B  |  4294695803 |
|     204 | 0xFFFF8B5F  |  4294937439 |
|     205 | 0x8602      |       34306 |
|     206 | 0xFFFBA877  |  4294682743 |
|     207 | 0xFFFF529A  |  4294922906 |
|     208 | 0x84A8      |       33960 |
|     209 | 0x0078      |         120 |
|     210 | 0x1F39      |        7993 |

## String References

- **7262**: Enter the battlefield? [Enter./Decline.]
- **7263**: Leave the battlefield? [Run away./Stay.]
- **7265**: You cannot enter the battlefield at present. Please wait a little longer.
- **7273**: You are cleared to enter the battlefield, but you cannot while party members are engaged in combat.
- **7274**: You are cleared to enter the battlefield, but you cannot while party members are engaged in combat.
- **7275**: You are cleared to enter the battlefield, but you cannot while party members are engaged in combat.
- **7276**: You are cleared to enter the battlefield, but you cannot while party members are engaged in combat.
- **7312**: You do not meet the requirements to enter the battlefield. Access is denied.
- **7601**: Skip the event? [Yes./No.]
- **7602**: Battlefield clear time: $3 second[/s]!
- **7603**: Battlefield clear time: $3 minute[/s], $2 second[/s]!
- **7621**: Only $3 [member/members] have clearance to enter the battlefield. This room has reached its maximum capacity.
- **7627**: Select difficulty. [Very difficult. (Level: ???)/Difficult. (Level: ???)/Normal. (Level: $18)/Easy. (Level: $17)/Very Easy. (Level: $16)/Leave.]
- **7635**: You have broken the clear time record for "[[The Rider Cometh/Unwavering Resolve/A Stygian Pact]/]"!
- **7641**: Which battlefield will you enter? [None./[The Rider Cometh/Unwavering Resolve/A Stygian Pact]./@/@/@/@/@/@/@/@/@/@/@/@/@/@/@/@/@/@/@/@/@/@/@/@/@/@/@/@/@/@]
- **7993**: What do you take? [Nothing./$1 ($2 remaining)/$3 ($4 remaining)/$5 ($6 remaining)/$7 ($8 remaining)/$9 ($10 remaining)/$11 ($12 remaining)/$13 ($14 remaining)/$15 ($16 remaining)]
- **8052**: Preparing teleport to Hazhalm Testing Grounds - [Rossweisse's Chamber/Grimgerde's Chamber/Siegrune's Chamber/Helmwige's Chamber/Schwertleite's Chamber/Waltraute's Chamber/Ortlinde's Chamber/Gerhilde's Chamber/Brunhilde's Chamber/Odin's Chamber/Odin's Chamber].
- **8053**: Proceed to [Rossweisse's Chamber/Grimgerde's Chamber/Siegrune's Chamber/Helmwige's Chamber/Schwertleite's Chamber/Waltraute's Chamber/Ortlinde's Chamber/Gerhilde's Chamber/Brunhilde's Chamber/Odin's Chamber/Odin's Chamber]? [Yes./Not yet./Confirm entry conditions./Confirm re-entry conditions./Confirm battle conditions.]
- **8054**: All of the valkyrie feathers in your possession are consumed!
- **8064**: You do not possess the items required for entry.
- **8068**: There are too many adventurers in the chamber.
- **8076**: Other members currently engaged in battle. Entry denied.
- **8081**: When traded to the Hazhalm Testing Grounds' Entry Gate, $6 will light and become $7.
- **8082**: From that moment, the owner of the $7 will reserve and gain access to one of the facility's many chambers.
- **8083**: By using the $7 it will produce a replica of itself which can be given to another, granting him or her access to the same chamber.
- **8084**: Though an infinite number of lamps can be produced using this method, only a maximum of thirty-six people can venture into the same chamber.
- **8086**: These lamps will also cease to function the instant any adventurer within the chamber engages in battle, regardless of how many people have already passed through the gates.
- **8087**: To teleport to the reserved chamber, one must simply trade their $7 to the Entry Gate.
- **8088**: However, please note that not everyone in possession of a lamp will be allowed into Hazhalm.
- **8089**: As mentioned before, only up to thirty-six people may enter a chamber. Even those with a valid $7 will not be allowed entry if the chamber has reached its maximum capacity.
- **8090**: Also, as a safety precaution, players below level sixty and those with the Battlefield status in effect will be denied entry.
- **8104**: After visiting the testing grounds, one must wait $3 [hour/hours] (Earth time) before he is granted access again.
- **8105**: This not only pertains to the chamber previously visited, but all areas within the testing grounds.
- **8106**: The amount of waiting time remaining before re-entry is permitted can be viewed by checking Hazhalm's Entry Gate.
- **8107**: All monsters dwelling in the testing grounds can be attacked by anyone, regardless of party or alliance.
- **8108**: In addition, any items dropped by a foe can be lotted on by anyone in the chamber.
- **8109**: However, please be aware that any items that have not been lotted on when a chamber's reservation is up will be distributed at random.
- **8110**: At any time, if the number of active adventurers participating in the cleansing of the testing grounds falls below six, the reservation will become void and any remaining members will be teleported from the area in approximately $1 [minute/minutes] (Earth time).
- **8111**: Also, if everyone in a chamber remains KO'd for longer than $2 [minute/minutes], they will all be automatically teleported from the grounds.

## Events

### Event 65535

#### Metadata

| Field        | Value   |
|--------------|---------|
| Entrypoint   | 0x0000  |
| Data Size    | 1 bytes |
| Instructions | 1       |

```
      00 01 02 03 04 05 06 07  08 09 0A 0B 0C 0D 0E 0F
      -- -- -- -- -- -- -- --  -- -- -- -- -- -- -- --
0000: 00                                                .               
```

#### Opcodes

```
  0: 0x0000 [0x00] END_REQSTACK()
```

### Event 65534

#### Metadata

| Field        | Value   |
|--------------|---------|
| Entrypoint   | 0x0001  |
| Data Size    | 1 bytes |
| Instructions | 1       |

```
      00 01 02 03 04 05 06 07  08 09 0A 0B 0C 0D 0E 0F
      -- -- -- -- -- -- -- --  -- -- -- -- -- -- -- --
0000:    00                                              .              
```

#### Opcodes

```
  0: 0x0001 [0x00] END_REQSTACK()
```

### Event 3

#### Metadata

| Field        | Value     |
|--------------|-----------|
| Entrypoint   | 0x0002    |
| Data Size    | 743 bytes |
| Instructions | 158       |

```
      00 01 02 03 04 05 06 07  08 09 0A 0B 0C 0D 0E 0F
      -- -- -- -- -- -- -- --  -- -- -- -- -- -- -- --
0000:       03 01 10 00 80 08  02 10 01 80 48 02 80 23    ..........H..#
0010: 03 00 00 00 80 02 00 00  00 80 00 E7 02 24 03 80  .............$..
0020: 04 80 00 80 25 02 00 10  00 80 00 6F 02 42 62 04  ....%......o.Bb.
0030: 80 F0 FF FF 7F F0 FF FF  7F 6D 61 69 6E 00 80 1C  .........main...
0040: 01 80 45 05 80 F8 FF FF  7F F8 FF FF 7F 66 64 6F  ..E..........fdo
0050: 31 00 80 55 05 80 F8 FF  FF 7F F8 FF FF 7F 66 64  1..U..........fd
0060: 6F 31 03 01 10 04 80 13  01 00 06 80 13 02 00 06  o1..............
0070: 80 08 01 00 07 80 08 02  00 07 80 07 02 10 01 80  ................
0080: 03 03 00 02 10 02 02 10  01 80 80 A6 00 07 01 00  ................
0090: 08 80 07 02 00 09 80 47  00 01 00 02 00 0A 80 0B  .......G........
00A0: 80 47 01 01 CF 01 02 02  10 0C 80 80 C7 00 07 01  .G..............
00B0: 00 0D 80 07 02 00 0E 80  47 00 01 00 02 00 0F 80  ........G.......
00C0: 10 80 47 01 01 CF 01 02  02 10 11 80 80 E8 00 07  ..G.............
00D0: 01 00 12 80 07 02 00 13  80 47 00 01 00 02 00 14  .........G......
00E0: 80 10 80 47 01 01 CF 01  02 02 10 15 80 80 09 01  ...G............
00F0: 07 01 00 16 80 07 02 00  17 80 47 00 01 00 02 00  ..........G.....
0100: 18 80 10 80 47 01 01 CF  01 02 02 10 19 80 80 2A  ....G..........*
0110: 01 07 01 00 17 80 07 02  00 1A 80 47 00 01 00 02  ...........G....
0120: 00 1B 80 0B 80 47 01 01  CF 01 02 02 10 1C 80 80  .....G..........
0130: 4B 01 07 01 00 1D 80 07  02 00 1E 80 47 00 01 00  K...........G...
0140: 02 00 1F 80 0B 80 47 01  01 CF 01 02 02 10 20 80  ......G....... .
0150: 80 6C 01 07 01 00 21 80  07 02 00 22 80 47 00 01  .l....!....".G..
0160: 00 02 00 23 80 24 80 47  01 01 CF 01 02 02 10 25  ...#.$.G.......%
0170: 80 80 8D 01 07 01 00 26  80 07 02 00 27 80 47 00  .......&....'.G.
0180: 01 00 02 00 28 80 24 80  47 01 01 CF 01 02 02 10  ....(.$.G.......
0190: 29 80 80 AE 01 07 01 00  2A 80 07 02 00 2B 80 47  ).......*....+.G
01A0: 00 01 00 02 00 2C 80 2D  80 47 01 01 CF 01 02 02  .....,.-.G......
01B0: 10 2E 80 80 CF 01 07 01  00 13 80 07 02 00 0E 80  ................
01C0: 47 00 01 00 02 00 2F 80  10 80 47 01 01 CF 01 1C  G...../...G.....
01D0: 01 80 45 05 80 F8 FF FF  7F F8 FF FF 7F 66 64 69  ..E..........fdi
01E0: 31 00 80 62 30 80 F0 FF  FF 7F F0 FF FF 7F 6D 61  1..b0.........ma
01F0: 69 6E 00 80 1C 01 80 02  09 10 00 80 80 06 02 48  in.............H
0200: 31 80 23 01 67 02 02 09  10 04 80 80 49 02 02 03  1.#.g.......I...
0210: 00 2E 80 00 46 02 03 02  10 32 80 03 03 10 33 80  ....F....2....3.
0220: 03 04 10 34 80 03 05 10  35 80 03 06 10 36 80 03  ...4....5....6..
0230: 07 10 37 80 03 08 10 38  80 03 09 10 39 80 03 00  ..7....8....9...
0240: 17 3A 80 48 3B 80 01 67  02 02 09 10 30 80 80 58  .:.H;..g....0..X
0250: 02 48 3C 80 23 01 67 02  02 09 10 3D 80 80 67 02  .H<.#.g....=..g.
0260: 48 3E 80 23 01 67 02 03  00 00 04 80 01 E4 02 02  H>.#.g..........
0270: 00 10 04 80 00 7F 02 03  00 00 04 80 01 E4 02 02  ................
0280: 00 10 30 80 00 AE 02 48  3F 80 23 48 40 80 23 48  ..0....H?.#H@.#H
0290: 41 80 23 48 42 80 23 48  43 80 23 48 44 80 23 48  A.#HB.#HC.#HD.#H
02A0: 45 80 23 48 46 80 23 48  47 80 23 01 E4 02 02 00  E.#HF.#HG.#.....
02B0: 10 3D 80 00 C5 02 48 48  80 23 48 49 80 23 48 4A  .=....HH.#HI.#HJ
02C0: 80 23 01 E4 02 02 00 10  4B 80 00 E4 02 48 4C 80  .#......K....HL.
02D0: 23 48 4D 80 23 48 4E 80  23 48 4F 80 23 48 50 80  #HM.#HN.#HO.#HP.
02E0: 23 01 E4 02 01 15 00 21  00                       #......!.       
```

#### Opcodes

```
  0: 0x0002 [0x03] Work_Zone[1] = 0*
  1: 0x0007 [0x08] Work_Zone[2] -= 30*
  2: 0x000C [0x48] [System] [8052*]:
    → "Preparing teleport to Hazhalm Testing Grounds - [Rossweisse's Chamber/Grimgerde's Chamber/Siegrune's Chamber/Helmwige's Chamber/Schwertleite's Chamber/Waltraute's Chamber/Ortlinde's Chamber/Gerhilde's Chamber/Brunhilde's Chamber/Odin's Chamber/Odin's Chamber]."
  3: 0x000F [0x23] WAIT_FOR_DIALOG_INTERACTION
  4: 0x0010 [0x03] ExtData[1]->WorkLocal[0] = 0*
  5: 0x0015 [0x02] IF !(ExtData[1]->WorkLocal[0] == 0*) GOTO 0x02E7
  6: 0x001D [0x24] CREATE_DIALOG(message_id=8053*, default_option=1*, option_flags=0*)
    → "Proceed to [Rossweisse's Chamber/Grimgerde's Chamber/Siegrune's Chamber/Helmwige's Chamber/Schwertleite's Chamber/Waltraute's Chamber/Ortlinde's Chamber/Gerhilde's Chamber/Brunhilde's Chamber/Odin's Chamber/Odin's Chamber]? [Yes./Not yet./Confirm entry conditions./Confirm re-entry conditions./Confirm battle conditions.]"
  7: 0x0024 [0x25] WAIT_DIALOG_SELECT()
  8: 0x0025 [0x02] IF !(Work_Zone[0] == 0*) GOTO 0x026F
  9: 0x002D [0x42] SET_CLI_EVENT_CANCEL_DATA()
 10: 0x002E [0x62] LOAD_EVENT_SCHEDULER: Load scheduler "main" with entities [LocalPlayer, LocalPlayer], work=[1*, 0*]
 11: 0x003F [0x1C] WAIT(30* ticks)
 12: 0x0042 [0x45] LOAD_SCHEDULED_TASK: Load scheduler "fdo1" with entities [EventEntity, EventEntity], work=[200*, 0*]
 13: 0x0053 [0x55] WAIT_LOAD_SCHEDULER: Wait for scheduler "fdo1" with entities [EventEntity, EventEntity], work=200*
 14: 0x0062 [0x03] Work_Zone[1] = 1*
 15: 0x0067 [0x13] ExtData[1]->WorkLocal[1] = rand() % 4000*
 16: 0x006C [0x13] ExtData[1]->WorkLocal[2] = rand() % 4000*
 17: 0x0071 [0x08] ExtData[1]->WorkLocal[1] -= 2000*
 18: 0x0076 [0x08] ExtData[1]->WorkLocal[2] -= 2000*
 19: 0x007B [0x07] Work_Zone[2] += 30*
 20: 0x0080 [0x03] ExtData[1]->WorkLocal[3] = Work_Zone[2]
 21: 0x0085 [0x02] IF !(Work_Zone[2] == 30*) GOTO 0x00A6
 22: 0x008D [0x07] ExtData[1]->WorkLocal[1] += 448000*
 23: 0x0092 [0x07] ExtData[1]->WorkLocal[2] += 4294959296*
 24: 0x0097 [0x47] UPDATE_PLAYER_POS(ExtData[1]->WorkLocal[1], ExtData[1]->WorkLocal[2], -217.354*, yaw=225.0°*)
 25: 0x00A1 [0x47] WAIT_PLAYER_POS_UPDATE
 26: 0x00A3 [0x01] GOTO 0x01CF
 27: 0x00A6 [0x02] IF !(Work_Zone[2] == 31*) GOTO 0x00C7
 28: 0x00AE [0x07] ExtData[1]->WorkLocal[1] += 208000*
 29: 0x00B3 [0x07] ExtData[1]->WorkLocal[2] += 8000*
 30: 0x00B8 [0x47] UPDATE_PLAYER_POS(ExtData[1]->WorkLocal[1], ExtData[1]->WorkLocal[2], -197.354*, yaw=135.0°*)
 31: 0x00C2 [0x47] WAIT_PLAYER_POS_UPDATE
 32: 0x00C4 [0x01] GOTO 0x01CF
 33: 0x00C7 [0x02] IF !(Work_Zone[2] == 32*) GOTO 0x00E8
 34: 0x00CF [0x07] ExtData[1]->WorkLocal[1] += 128000*
 35: 0x00D4 [0x07] ExtData[1]->WorkLocal[2] += 4294735296*
 36: 0x00D9 [0x47] UPDATE_PLAYER_POS(ExtData[1]->WorkLocal[1], ExtData[1]->WorkLocal[2], -177.354*, yaw=135.0°*)
 37: 0x00E3 [0x47] WAIT_PLAYER_POS_UPDATE
 38: 0x00E5 [0x01] GOTO 0x01CF
 39: 0x00E8 [0x02] IF !(Work_Zone[2] == 33*) GOTO 0x0109
 40: 0x00F0 [0x07] ExtData[1]->WorkLocal[1] += 4294815296*
 41: 0x00F5 [0x07] ExtData[1]->WorkLocal[2] += 4294575296*
 42: 0x00FA [0x47] UPDATE_PLAYER_POS(ExtData[1]->WorkLocal[1], ExtData[1]->WorkLocal[2], -147.354*, yaw=135.0°*)
 43: 0x0104 [0x47] WAIT_PLAYER_POS_UPDATE
 44: 0x0106 [0x01] GOTO 0x01CF
 45: 0x0109 [0x02] IF !(Work_Zone[2] == 34*) GOTO 0x012A
 46: 0x0111 [0x07] ExtData[1]->WorkLocal[1] += 4294575296*
 47: 0x0116 [0x07] ExtData[1]->WorkLocal[2] += 4294639296*
 48: 0x011B [0x47] UPDATE_PLAYER_POS(ExtData[1]->WorkLocal[1], ExtData[1]->WorkLocal[2], -127.354*, yaw=225.0°*)
 49: 0x0125 [0x47] WAIT_PLAYER_POS_UPDATE
 50: 0x0127 [0x01] GOTO 0x01CF
 51: 0x012A [0x02] IF !(Work_Zone[2] == 35*) GOTO 0x014B
 52: 0x0132 [0x07] ExtData[1]->WorkLocal[1] += 4294335296*
 53: 0x0137 [0x07] ExtData[1]->WorkLocal[2] += 4294799296*
 54: 0x013C [0x47] UPDATE_PLAYER_POS(ExtData[1]->WorkLocal[1], ExtData[1]->WorkLocal[2], -107.354*, yaw=225.0°*)
 55: 0x0146 [0x47] WAIT_PLAYER_POS_UPDATE
 56: 0x0148 [0x01] GOTO 0x01CF
 57: 0x014B [0x02] IF !(Work_Zone[2] == 36*) GOTO 0x016C
 58: 0x0153 [0x07] ExtData[1]->WorkLocal[1] += 4294439296*
 59: 0x0158 [0x07] ExtData[1]->WorkLocal[2] += 112000*
 60: 0x015D [0x47] UPDATE_PLAYER_POS(ExtData[1]->WorkLocal[1], ExtData[1]->WorkLocal[2], -67.354*, yaw=315.0°*)
 61: 0x0167 [0x47] WAIT_PLAYER_POS_UPDATE
 62: 0x0169 [0x01] GOTO 0x01CF
 63: 0x016C [0x02] IF !(Work_Zone[2] == 37*) GOTO 0x018D
 64: 0x0174 [0x07] ExtData[1]->WorkLocal[1] += 4294559296*
 65: 0x0179 [0x07] ExtData[1]->WorkLocal[2] += 352000*
 66: 0x017E [0x47] UPDATE_PLAYER_POS(ExtData[1]->WorkLocal[1], ExtData[1]->WorkLocal[2], -47.354*, yaw=315.0°*)
 67: 0x0188 [0x47] WAIT_PLAYER_POS_UPDATE
 68: 0x018A [0x01] GOTO 0x01CF
 69: 0x018D [0x02] IF !(Work_Zone[2] == 38*) GOTO 0x01AE
 70: 0x0195 [0x07] ExtData[1]->WorkLocal[1] += 4294839296*
 71: 0x019A [0x07] ExtData[1]->WorkLocal[2] += 288000*
 72: 0x019F [0x47] UPDATE_PLAYER_POS(ExtData[1]->WorkLocal[1], ExtData[1]->WorkLocal[2], -7.354*, yaw=45.0°*)
 73: 0x01A9 [0x47] WAIT_PLAYER_POS_UPDATE
 74: 0x01AB [0x01] GOTO 0x01CF
 75: 0x01AE [0x02] IF !(Work_Zone[2] == 39*) GOTO 0x01CF
 76: 0x01B6 [0x07] ExtData[1]->WorkLocal[1] += 4294735296*
 77: 0x01BB [0x07] ExtData[1]->WorkLocal[2] += 8000*
 78: 0x01C0 [0x47] UPDATE_PLAYER_POS(ExtData[1]->WorkLocal[1], ExtData[1]->WorkLocal[2], 33.646*, yaw=135.0°*)
 79: 0x01CA [0x47] WAIT_PLAYER_POS_UPDATE
 80: 0x01CC [0x01] GOTO 0x01CF

SUBROUTINE_01CF:
 81: 0x01CF [0x1C] WAIT(30* ticks)
 82: 0x01D2 [0x45] LOAD_SCHEDULED_TASK: Load scheduler "fdi1" with entities [EventEntity, EventEntity], work=[200*, 0*]
 83: 0x01E3 [0x62] LOAD_EVENT_SCHEDULER: Load scheduler "main" with entities [LocalPlayer, LocalPlayer], work=[2*, 0*]
 84: 0x01F4 [0x1C] WAIT(30* ticks)
 85: 0x01F7 [0x02] IF !(Work_Zone[9] == 0*) GOTO 0x0206
 86: 0x01FF [0x48] [System] [8068*]:
    → "There are too many adventurers in the chamber."
 87: 0x0202 [0x23] WAIT_FOR_DIALOG_INTERACTION
 88: 0x0203 [0x01] GOTO 0x0267
 89: 0x0206 [0x02] IF !(Work_Zone[9] == 1*) GOTO 0x0249
 90: 0x020E [0x02] IF !(ExtData[1]->WorkLocal[3] == 39*) GOTO 0x0246
 91: 0x0216 [0x03] Work_Zone[2] = 882*
 92: 0x021B [0x03] Work_Zone[3] = 883*
 93: 0x0220 [0x03] Work_Zone[4] = 884*
 94: 0x0225 [0x03] Work_Zone[5] = 885*
 95: 0x022A [0x03] Work_Zone[6] = 886*
 96: 0x022F [0x03] Work_Zone[7] = 887*
 97: 0x0234 [0x03] Work_Zone[8] = 888*
 98: 0x0239 [0x03] Work_Zone[9] = 889*
 99: 0x023E [0x03] Work_Zone_1700[0] = 890*
100: 0x0243 [0x48] [System] [8054*]:
    → "All of the valkyrie feathers in your possession are consumed!"
101: 0x0246 [0x01] GOTO 0x0267
102: 0x0249 [0x02] IF !(Work_Zone[9] == 2*) GOTO 0x0258
103: 0x0251 [0x48] [System] [8064*]:
    → "You do not possess the items required for entry."
104: 0x0254 [0x23] WAIT_FOR_DIALOG_INTERACTION
105: 0x0255 [0x01] GOTO 0x0267
106: 0x0258 [0x02] IF !(Work_Zone[9] == 3*) GOTO 0x0267
107: 0x0260 [0x48] [System] [8076*]:
    → "Other members currently engaged in battle. Entry denied."
108: 0x0263 [0x23] WAIT_FOR_DIALOG_INTERACTION
109: 0x0264 [0x01] GOTO 0x0267

SUBROUTINE_0267:
110: 0x0267 [0x03] ExtData[1]->WorkLocal[0] = 1*
111: 0x026C [0x01] GOTO 0x02E4
112: 0x026F [0x02] IF !(Work_Zone[0] == 1*) GOTO 0x027F
113: 0x0277 [0x03] ExtData[1]->WorkLocal[0] = 1*
114: 0x027C [0x01] GOTO 0x02E4
115: 0x027F [0x02] IF !(Work_Zone[0] == 2*) GOTO 0x02AE
116: 0x0287 [0x48] [System] [8081*]:
    → "When traded to the Hazhalm Testing Grounds' Entry Gate, $6 will light and become $7."
117: 0x028A [0x23] WAIT_FOR_DIALOG_INTERACTION
118: 0x028B [0x48] [System] [8082*]:
    → "From that moment, the owner of the $7 will reserve and gain access to one of the facility's many chambers."
119: 0x028E [0x23] WAIT_FOR_DIALOG_INTERACTION
120: 0x028F [0x48] [System] [8083*]:
    → "By using the $7 it will produce a replica of itself which can be given to another, granting him or her access to the same chamber."
121: 0x0292 [0x23] WAIT_FOR_DIALOG_INTERACTION
122: 0x0293 [0x48] [System] [8084*]:
    → "Though an infinite number of lamps can be produced using this method, only a maximum of thirty-six people can venture into the same chamber."
123: 0x0296 [0x23] WAIT_FOR_DIALOG_INTERACTION
124: 0x0297 [0x48] [System] [8086*]:
    → "These lamps will also cease to function the instant any adventurer within the chamber engages in battle, regardless of how many people have already passed through the gates."
125: 0x029A [0x23] WAIT_FOR_DIALOG_INTERACTION
126: 0x029B [0x48] [System] [8087*]:
    → "To teleport to the reserved chamber, one must simply trade their $7 to the Entry Gate."
127: 0x029E [0x23] WAIT_FOR_DIALOG_INTERACTION
128: 0x029F [0x48] [System] [8088*]:
    → "However, please note that not everyone in possession of a lamp will be allowed into Hazhalm."
129: 0x02A2 [0x23] WAIT_FOR_DIALOG_INTERACTION
130: 0x02A3 [0x48] [System] [8089*]:
    → "As mentioned before, only up to thirty-six people may enter a chamber. Even those with a valid $7 will not be allowed entry if the chamber has reached its maximum capacity."
131: 0x02A6 [0x23] WAIT_FOR_DIALOG_INTERACTION
132: 0x02A7 [0x48] [System] [8090*]:
    → "Also, as a safety precaution, players below level sixty and those with the Battlefield status in effect will be denied entry."
133: 0x02AA [0x23] WAIT_FOR_DIALOG_INTERACTION
134: 0x02AB [0x01] GOTO 0x02E4
135: 0x02AE [0x02] IF !(Work_Zone[0] == 3*) GOTO 0x02C5
136: 0x02B6 [0x48] [System] [8104*]:
    → "After visiting the testing grounds, one must wait $3 [hour/hours] (Earth time) before he is granted access again."
137: 0x02B9 [0x23] WAIT_FOR_DIALOG_INTERACTION
138: 0x02BA [0x48] [System] [8105*]:
    → "This not only pertains to the chamber previously visited, but all areas within the testing grounds."
139: 0x02BD [0x23] WAIT_FOR_DIALOG_INTERACTION
140: 0x02BE [0x48] [System] [8106*]:
    → "The amount of waiting time remaining before re-entry is permitted can be viewed by checking Hazhalm's Entry Gate."
141: 0x02C1 [0x23] WAIT_FOR_DIALOG_INTERACTION
142: 0x02C2 [0x01] GOTO 0x02E4
143: 0x02C5 [0x02] IF !(Work_Zone[0] == 4*) GOTO 0x02E4
144: 0x02CD [0x48] [System] [8107*]:
    → "All monsters dwelling in the testing grounds can be attacked by anyone, regardless of party or alliance."
145: 0x02D0 [0x23] WAIT_FOR_DIALOG_INTERACTION
146: 0x02D1 [0x48] [System] [8108*]:
    → "In addition, any items dropped by a foe can be lotted on by anyone in the chamber."
147: 0x02D4 [0x23] WAIT_FOR_DIALOG_INTERACTION
148: 0x02D5 [0x48] [System] [8109*]:
    → "However, please be aware that any items that have not been lotted on when a chamber's reservation is up will be distributed at random."
149: 0x02D8 [0x23] WAIT_FOR_DIALOG_INTERACTION
150: 0x02D9 [0x48] [System] [8110*]:
    → "At any time, if the number of active adventurers participating in the cleansing of the testing grounds falls below six, the reservation will become void and any remaining members will be teleported from the area in approximately $1 [minute/minutes] (Earth time)."
151: 0x02DC [0x23] WAIT_FOR_DIALOG_INTERACTION
152: 0x02DD [0x48] [System] [8111*]:
    → "Also, if everyone in a chamber remains KO'd for longer than $2 [minute/minutes], they will all be automatically teleported from the grounds."
153: 0x02E0 [0x23] WAIT_FOR_DIALOG_INTERACTION
154: 0x02E1 [0x01] GOTO 0x02E4

SUBROUTINE_02E4:
155: 0x02E4 [0x01] GOTO 0x0015
156: 0x02E7 [0x21] END_EVENT
157: 0x02E8 [0x00] END_REQSTACK()
```

### Event 4

#### Metadata

| Field        | Value     |
|--------------|-----------|
| Entrypoint   | 0x02E9    |
| Data Size    | 137 bytes |
| Instructions | 19        |

```
      00 01 02 03 04 05 06 07  08 09 0A 0B 0C 0D 0E 0F
      -- -- -- -- -- -- -- --  -- -- -- -- -- -- -- --
02E0:                             42 62 04 80 F0 FF FF           Bb.....
02F0: 7F F0 FF FF 7F 6D 61 69  6E 00 80 1C 01 80 45 05  .....main.....E.
0300: 80 F0 FF FF 7F F0 FF FF  7F 66 64 6F 31 00 80 55  .........fdo1..U
0310: 05 80 F0 FF FF 7F F0 FF  FF 7F 66 64 6F 31 13 01  ..........fdo1..
0320: 00 06 80 13 02 00 06 80  08 01 00 07 80 08 02 00  ................
0330: 07 80 07 01 00 51 80 07  02 00 52 80 47 00 01 00  .....Q....R.G...
0340: 02 00 53 80 00 80 47 01  1C 01 80 45 05 80 F0 FF  ..S...G....E....
0350: FF 7F F0 FF FF 7F 66 64  69 31 00 80 62 30 80 F0  ......fdi1..b0..
0360: FF FF 7F F0 FF FF 7F 6D  61 69 6E 00 80 1C 01 80  .......main.....
0370: 21 00                                             !.              
```

#### Opcodes

```
  0: 0x02E9 [0x42] SET_CLI_EVENT_CANCEL_DATA()
  1: 0x02EA [0x62] LOAD_EVENT_SCHEDULER: Load scheduler "main" with entities [LocalPlayer, LocalPlayer], work=[1*, 0*]
  2: 0x02FB [0x1C] WAIT(30* ticks)
  3: 0x02FE [0x45] LOAD_SCHEDULED_TASK: Load scheduler "fdo1" with entities [LocalPlayer, LocalPlayer], work=[200*, 0*]
  4: 0x030F [0x55] WAIT_LOAD_SCHEDULER: Wait for scheduler "fdo1" with entities [LocalPlayer, LocalPlayer], work=200*
  5: 0x031E [0x13] ExtData[1]->WorkLocal[1] = rand() % 4000*
  6: 0x0323 [0x13] ExtData[1]->WorkLocal[2] = rand() % 4000*
  7: 0x0328 [0x08] ExtData[1]->WorkLocal[1] -= 2000*
  8: 0x032D [0x08] ExtData[1]->WorkLocal[2] -= 2000*
  9: 0x0332 [0x07] ExtData[1]->WorkLocal[1] += 500000*
 10: 0x0337 [0x07] ExtData[1]->WorkLocal[2] += 4294947296*
 11: 0x033C [0x47] UPDATE_PLAYER_POS(ExtData[1]->WorkLocal[1], ExtData[1]->WorkLocal[2], -226.500*, yaw=0.0°*)
 12: 0x0346 [0x47] WAIT_PLAYER_POS_UPDATE
 13: 0x0348 [0x1C] WAIT(30* ticks)
 14: 0x034B [0x45] LOAD_SCHEDULED_TASK: Load scheduler "fdi1" with entities [LocalPlayer, LocalPlayer], work=[200*, 0*]
 15: 0x035C [0x62] LOAD_EVENT_SCHEDULER: Load scheduler "main" with entities [LocalPlayer, LocalPlayer], work=[2*, 0*]
 16: 0x036D [0x1C] WAIT(30* ticks)
 17: 0x0370 [0x21] END_EVENT
 18: 0x0371 [0x00] END_REQSTACK()
```

### Event 65535.1

#### Metadata

| Field        | Value   |
|--------------|---------|
| Entrypoint   | 0x0372  |
| Data Size    | 6 bytes |
| Instructions | 2       |

```
      00 01 02 03 04 05 06 07  08 09 0A 0B 0C 0D 0E 0F
      -- -- -- -- -- -- -- --  -- -- -- -- -- -- -- --
0370:       03 02 10 07 7F 00                             ......        
```

#### Opcodes

```
  0: 0x0372 [0x03] Work_Zone[2] = Entity->Race
  1: 0x0377 [0x00] END_REQSTACK()
```

### Event 65535.2

#### Metadata

| Field        | Value   |
|--------------|---------|
| Entrypoint   | 0x0378  |
| Data Size    | 6 bytes |
| Instructions | 2       |

```
      00 01 02 03 04 05 06 07  08 09 0A 0B 0C 0D 0E 0F
      -- -- -- -- -- -- -- --  -- -- -- -- -- -- -- --
0370:                          03 02 10 0B 7F 00                ......  
```

#### Opcodes

```
  0: 0x0378 [0x03] Work_Zone[2] = (Entity->Render.Flags01 >> 25) & 1
  1: 0x037D [0x00] END_REQSTACK()
```

### Event 65535.3

#### Metadata

| Field        | Value   |
|--------------|---------|
| Entrypoint   | 0x037E  |
| Data Size    | 7 bytes |
| Instructions | 3       |

```
      00 01 02 03 04 05 06 07  08 09 0A 0B 0C 0D 0E 0F
      -- -- -- -- -- -- -- --  -- -- -- -- -- -- -- --
0370:                                            AB 01                ..
0380: AC 01 04 80 00                                    .....           
```

#### Opcodes

```
  0: 0x037E [0xAB] EventEntity->Render.Flags0 |= 0x10000 // Set bit 16
  1: 0x0380 [0xAC] EventEntity->StatusEvent = 1*
  2: 0x0384 [0x00] END_REQSTACK()
```

### Event 65535.4

#### Metadata

| Field        | Value   |
|--------------|---------|
| Entrypoint   | 0x0385  |
| Data Size    | 7 bytes |
| Instructions | 3       |

```
      00 01 02 03 04 05 06 07  08 09 0A 0B 0C 0D 0E 0F
      -- -- -- -- -- -- -- --  -- -- -- -- -- -- -- --
0380:                AC 01 00  80 AB 02 00                   .......    
```

#### Opcodes

```
  0: 0x0385 [0xAC] EventEntity->StatusEvent = 0*
  1: 0x0389 [0xAB] EventEntity->Render.Flags0 &= ~0x10000 // Clear bit 16
  2: 0x038B [0x00] END_REQSTACK()
```

### Event 65535.5

#### Metadata

| Field        | Value    |
|--------------|----------|
| Entrypoint   | 0x038C   |
| Data Size    | 37 bytes |
| Instructions | 5        |

```
      00 01 02 03 04 05 06 07  08 09 0A 0B 0C 0D 0E 0F
      -- -- -- -- -- -- -- --  -- -- -- -- -- -- -- --
0380:                                      03 25 00 07              .%..
0390: 7F 1A B0 17 66 26 00 F8  FF FF 7F F8 FF FF 7F 73  ....f&.........s
03A0: 68 61 30 53 F8 FF FF 7F  F8 FF FF 7F 73 68 61 30  ha0S........sha0
03B0: 00                                                .               
```

#### Opcodes

```
  0: 0x038C [0x03] ExtData[1]->WorkLocal[37] = Entity->Race
  1: 0x0391 [0x1A] CALL_SUBROUTINE(address=0x17B0)
  2: 0x0394 [0x66] LOAD_EXT_SCHEDULER_MAIN: Load scheduler "sha0" with entities [EventEntity, EventEntity], work=ExtData[1]->WorkLocal[38]
  3: 0x03A3 [0x53] WAIT_SCHEDULER_TASK: Wait for scheduler "sha0" with entities [EventEntity, EventEntity]
  4: 0x03B0 [0x00] END_REQSTACK()
```

### Event 65535.6

#### Metadata

| Field        | Value    |
|--------------|----------|
| Entrypoint   | 0x03B1   |
| Data Size    | 37 bytes |
| Instructions | 5        |

```
      00 01 02 03 04 05 06 07  08 09 0A 0B 0C 0D 0E 0F
      -- -- -- -- -- -- -- --  -- -- -- -- -- -- -- --
03B0:    03 25 00 07 7F 1A B0  17 66 26 00 F8 FF FF 7F   .%......f&.....
03C0: F8 FF FF 7F 73 68 61 31  53 F8 FF FF 7F F8 FF FF  ....sha1S.......
03D0: 7F 73 68 61 31 00                                 .sha1.          
```

#### Opcodes

```
  0: 0x03B1 [0x03] ExtData[1]->WorkLocal[37] = Entity->Race
  1: 0x03B6 [0x1A] CALL_SUBROUTINE(address=0x17B0)
  2: 0x03B9 [0x66] LOAD_EXT_SCHEDULER_MAIN: Load scheduler "sha1" with entities [EventEntity, EventEntity], work=ExtData[1]->WorkLocal[38]
  3: 0x03C8 [0x53] WAIT_SCHEDULER_TASK: Wait for scheduler "sha1" with entities [EventEntity, EventEntity]
  4: 0x03D5 [0x00] END_REQSTACK()
```

### Event 65535.7

#### Metadata

| Field        | Value    |
|--------------|----------|
| Entrypoint   | 0x03D6   |
| Data Size    | 24 bytes |
| Instructions | 4        |

```
      00 01 02 03 04 05 06 07  08 09 0A 0B 0C 0D 0E 0F
      -- -- -- -- -- -- -- --  -- -- -- -- -- -- -- --
03D0:                   03 25  00 07 7F 1A B0 17 66 26        .%......f&
03E0: 00 F8 FF FF 7F F8 FF FF  7F 74 6C 6B 30 00        .........tlk0.  
```

#### Opcodes

```
  0: 0x03D6 [0x03] ExtData[1]->WorkLocal[37] = Entity->Race
  1: 0x03DB [0x1A] CALL_SUBROUTINE(address=0x17B0)
  2: 0x03DE [0x66] LOAD_EXT_SCHEDULER_MAIN: Load scheduler "tlk0" with entities [EventEntity, EventEntity], work=ExtData[1]->WorkLocal[38]
  3: 0x03ED [0x00] END_REQSTACK()
```

### Event 65535.8

#### Metadata

| Field        | Value    |
|--------------|----------|
| Entrypoint   | 0x03EE   |
| Data Size    | 24 bytes |
| Instructions | 4        |

```
      00 01 02 03 04 05 06 07  08 09 0A 0B 0C 0D 0E 0F
      -- -- -- -- -- -- -- --  -- -- -- -- -- -- -- --
03E0:                                            03 25                .%
03F0: 00 07 7F 1A B0 17 66 26  00 F8 FF FF 7F F8 FF FF  ......f&........
0400: 7F 74 6C 6B 31 00                                 .tlk1.          
```

#### Opcodes

```
  0: 0x03EE [0x03] ExtData[1]->WorkLocal[37] = Entity->Race
  1: 0x03F3 [0x1A] CALL_SUBROUTINE(address=0x17B0)
  2: 0x03F6 [0x66] LOAD_EXT_SCHEDULER_MAIN: Load scheduler "tlk1" with entities [EventEntity, EventEntity], work=ExtData[1]->WorkLocal[38]
  3: 0x0405 [0x00] END_REQSTACK()
```

### Event 65535.9

#### Metadata

| Field        | Value   |
|--------------|---------|
| Entrypoint   | 0x0406  |
| Data Size    | 6 bytes |
| Instructions | 2       |

```
      00 01 02 03 04 05 06 07  08 09 0A 0B 0C 0D 0E 0F
      -- -- -- -- -- -- -- --  -- -- -- -- -- -- -- --
0400:                   03 09  10 07 7F 00                    ......    
```

#### Opcodes

```
  0: 0x0406 [0x03] Work_Zone[9] = Entity->Race
  1: 0x040B [0x00] END_REQSTACK()
```

### Event 32000

#### Metadata

| Field        | Value      |
|--------------|------------|
| Entrypoint   | 0x040C     |
| Data Size    | 2189 bytes |
| Instructions | 288        |

```
      00 01 02 03 04 05 06 07  08 09 0A 0B 0C 0D 0E 0F
      -- -- -- -- -- -- -- --  -- -- -- -- -- -- -- --
0400:                                      20 01 79 00               .y.
0410: F0 FF FF 7F F0 FF FF 7F  03 06 00 02 10 03 07 00  ................
0420: 03 10 03 09 00 04 10 03  0A 00 05 10 03 13 00 06  ................
0430: 10 03 14 00 07 10 03 15  00 08 10 41 00 80 54 80  ...........A..T.
0440: 09 10 0B 00 41 55 80 0C  80 09 10 06 10 06 05 00  ....AU..........
0450: 02 0B 00 00 80 00 4C 05  03 0C 00 56 80 0F 0C 00  ......L....V....
0460: 0A 00 10 0C 00 04 80 24  57 80 00 80 0C 00 25 02  .......$W.....%.
0470: 00 10 00 80 00 7D 04 01  7E 0C 01 4C 05 03 07 00  .....}..~..L....
0480: 00 10 0C 07 00 06 19 00  3E 13 00 07 00 28 05 06  ........>....(..
0490: 13 00 06 0C 00 3E 15 00  07 00 9F 04 01 A6 04 3C  .....>.........<
04A0: 0C 00 00 80 04 80 3E 14  00 07 00 B0 04 01 B7 04  ......>.........
04B0: 3C 0C 00 04 80 04 80 1A  84 14 24 58 80 59 80 0C  <.........$X.Y..
04C0: 00 25 02 00 10 00 80 00  D2 04 03 13 00 04 80 01  .%..............
04D0: 25 05 02 00 10 04 80 00  E2 04 03 13 00 30 80 01  %............0..
04E0: 25 05 02 00 10 30 80 00  F2 04 03 13 00 3D 80 01  %....0.......=..
04F0: 25 05 02 00 10 3D 80 00  02 05 03 13 00 4B 80 01  %....=.......K..
0500: 25 05 02 00 10 4B 80 00  12 05 03 13 00 59 80 01  %....K.......Y..
0510: 25 05 02 00 10 59 80 00  20 05 01 7E 0C 01 25 05  %....Y.. ..~..%.
0520: 03 13 00 3D 80 01 4C 05  06 13 00 1A 98 0C 02 19  ...=..L.........
0530: 00 04 80 00 4C 05 24 5A  80 04 80 00 80 25 02 00  ....L.$Z.....%..
0540: 10 04 80 00 4C 05 01 7E  0C 01 4C 05 42 03 01 10  ....L..~..L.B...
0550: 5B 80 43 00 43 01 06 01  10 45 05 80 F0 FF FF 7F  [.C.C....E......
0560: F0 FF FF 7F 66 64 6F 31  00 80 55 05 80 F0 FF FF  ....fdo1..U.....
0570: 7F F0 FF FF 7F 66 64 6F  31 3B F0 FF FF 7F 20 10  .....fdo1;.... .
0580: 21 10 22 10 38 5C 80 02  0B 00 04 80 00 A6 05 03  !.".8\..........
0590: 04 00 04 80 03 08 00 07  00 03 06 00 00 80 03 1F  ................
05A0: 00 00 80 01 97 09 03 04  00 04 80 02 04 00 04 80  ................
05B0: 05 47 0C 02 00 80 04 80  00 C0 05 03 04 00 09 00  .G..............
05C0: 40 00 80 3D 80 01 10 04  00 40 4B 80 5D 80 01 10  @..=.....@K.]...
05D0: 07 00 40 5E 80 5F 80 01  10 13 00 06 02 10 06 03  ..@^._..........
05E0: 10 06 04 10 02 04 00 04  80 80 03 06 03 0D 00 13  ................
05F0: 80 03 0E 00 0E 80 03 0F  00 2F 80 03 10 00 10 80  ........./......
0600: 01 60 06 02 04 00 30 80  80 22 06 03 0D 00 00 80  .`....0.."......
0610: 03 0E 00 00 80 03 0F 00  00 80 03 10 00 00 80 01  ................
0620: 60 06 02 04 00 3D 80 80  41 06 03 0D 00 00 80 03  `....=..A.......
0630: 0E 00 00 80 03 0F 00 00  80 03 10 00 00 80 01 60  ...............`
0640: 06 02 04 00 4B 80 80 60  06 03 0D 00 00 80 03 0E  ....K..`........
0650: 00 00 80 03 0F 00 00 80  03 10 00 00 80 01 60 06  ..............`.
0660: 47 00 0D 00 0E 00 0F 00  10 00 47 01 03 08 00 03  G.........G.....
0670: 10 03 06 00 04 10 03 1D  00 05 10 03 11 00 06 10  ................
0680: 03 12 00 07 10 03 1F 00  09 10 02 02 10 04 80 80  ................
0690: 95 06 01 34 0C 02 02 10  4B 80 80 DF 06 02 04 00  ...4....K.......
06A0: 04 80 80 AC 06 48 60 80  23 01 D9 06 02 04 00 30  .....H`.#......0
06B0: 80 80 BB 06 48 61 80 23  01 D9 06 02 04 00 3D 80  ....Ha.#......=.
06C0: 80 CA 06 48 62 80 23 01  D9 06 02 04 00 4B 80 80  ...Hb.#......K..
06D0: D9 06 48 63 80 23 01 D9  06 01 4B 0C 01 34 0C 02  ..Hc.#....K..4..
06E0: 02 10 59 80 80 F1 06 48  64 80 23 01 4B 0C 01 34  ..Y....Hd.#.K..4
06F0: 0C 02 02 10 65 80 80 F3  08 02 08 00 00 80 80 09  ....e...........
0700: 07 03 05 10 65 80 01 E9  08 02 08 00 04 80 80 19  ....e...........
0710: 07 03 05 10 00 80 01 E9  08 02 08 00 30 80 80 29  ............0..)
0720: 07 03 05 10 00 80 01 E9  08 02 08 00 3D 80 80 39  ............=..9
0730: 07 03 05 10 00 80 01 E9  08 02 08 00 4B 80 80 49  ............K..I
0740: 07 03 05 10 00 80 01 E9  08 02 08 00 59 80 80 59  ............Y..Y
0750: 07 03 05 10 00 80 01 E9  08 02 08 00 65 80 80 69  ............e..i
0760: 07 03 05 10 00 80 01 E9  08 02 08 00 66 80 80 79  ............f..y
0770: 07 03 05 10 00 80 01 E9  08 02 08 00 5D 80 80 89  ............]...
0780: 07 03 05 10 00 80 01 E9  08 02 08 00 5E 80 80 99  ............^...
0790: 07 03 05 10 00 80 01 E9  08 02 08 00 67 80 80 A9  ............g...
07A0: 07 03 05 10 00 80 01 E9  08 02 08 00 5F 80 80 B9  ............_...
07B0: 07 03 05 10 00 80 01 E9  08 02 08 00 68 80 80 C9  ............h...
07C0: 07 03 05 10 00 80 01 E9  08 02 08 00 69 80 80 D9  ............i...
07D0: 07 03 05 10 00 80 01 E9  08 02 08 00 6A 80 80 E9  ............j...
07E0: 07 03 05 10 00 80 01 E9  08 02 08 00 54 80 80 F9  ............T...
07F0: 07 03 05 10 00 80 01 E9  08 02 08 00 55 80 80 09  ............U...
0800: 08 03 05 10 00 80 01 E9  08 02 08 00 6B 80 80 19  ............k...
0810: 08 03 05 10 00 80 01 E9  08 02 08 00 6C 80 80 29  ............l..)
0820: 08 03 05 10 00 80 01 E9  08 02 08 00 5C 80 80 39  ............\..9
0830: 08 03 05 10 00 80 01 E9  08 02 08 00 6D 80 80 49  ............m..I
0840: 08 03 05 10 00 80 01 E9  08 02 08 00 6E 80 80 59  ............n..Y
0850: 08 03 05 10 00 80 01 E9  08 02 08 00 6F 80 80 69  ............o..i
0860: 08 03 05 10 00 80 01 E9  08 02 08 00 70 80 80 79  ............p..y
0870: 08 03 05 10 00 80 01 E9  08 02 08 00 71 80 80 89  ............q...
0880: 08 03 05 10 00 80 01 E9  08 02 08 00 72 80 80 99  ............r...
0890: 08 03 05 10 00 80 01 E9  08 02 08 00 73 80 80 A9  ............s...
08A0: 08 03 05 10 00 80 01 E9  08 02 08 00 74 80 80 B9  ............t...
08B0: 08 03 05 10 00 80 01 E9  08 02 08 00 75 80 80 C9  ............u...
08C0: 08 03 05 10 00 80 01 E9  08 02 08 00 76 80 80 D9  ............v...
08D0: 08 03 05 10 00 80 01 E9  08 02 08 00 01 80 80 E9  ................
08E0: 08 03 05 10 00 80 01 E9  08 48 77 80 23 01 4B 0C  .........Hw.#.K.
08F0: 01 34 0C 02 02 10 3D 80  80 01 09 01 A6 05 01 34  .4....=........4
0900: 0C 02 02 10 30 80 80 34  0C 02 11 00 00 80 01 4D  ....0..4.......M
0910: 09 03 05 10 1D 00 02 1D  00 00 80 02 35 09 02 1D  ............5...
0920: 00 78 80 04 35 09 3F 04  10 05 10 78 80 15 05 10  .x..5.?....x....
0930: 78 80 01 35 09 02 11 00  04 80 05 40 09 01 4D 09  x..5.......@..M.
0940: 03 06 10 11 00 0C 06 10  03 07 10 11 00 03 07 00  ................
0950: 08 00 03 17 00 79 80 07  17 00 07 00 02 06 00 17  .....y..........
0960: 00 00 6C 09 03 06 00 04  80 01 71 09 03 06 00 00  ..l.......q.....
0970: 80 02 06 00 00 80 00 97  09 02 12 00 04 80 00 97  ................
0980: 09 24 7A 80 04 80 00 80  25 02 00 10 00 80 00 97  .$z.....%.......
0990: 09 05 06 00 01 97 09 06  18 00 02 08 00 00 80 80  ................
09A0: AA 09 03 18 00 00 80 01  8F 0B 02 08 00 04 80 80  ................
09B0: BA 09 03 18 00 00 80 01  8F 0B 02 08 00 30 80 80  .............0..
09C0: CA 09 03 18 00 00 80 01  8F 0B 02 08 00 3D 80 80  .............=..
09D0: DA 09 03 18 00 00 80 01  8F 0B 02 08 00 4B 80 80  .............K..
09E0: EA 09 03 18 00 00 80 01  8F 0B 02 08 00 59 80 80  .............Y..
09F0: FA 09 03 18 00 00 80 01  8F 0B 02 08 00 65 80 80  .............e..
0A00: 0A 0A 03 18 00 00 80 01  8F 0B 02 08 00 66 80 80  .............f..
0A10: 1A 0A 03 18 00 00 80 01  8F 0B 02 08 00 5D 80 80  .............]..
0A20: 2A 0A 03 18 00 00 80 01  8F 0B 02 08 00 5E 80 80  *............^..
0A30: 3A 0A 03 18 00 00 80 01  8F 0B 02 08 00 67 80 80  :............g..
0A40: 4A 0A 03 18 00 00 80 01  8F 0B 02 08 00 5F 80 80  J............_..
0A50: 5A 0A 03 18 00 00 80 01  8F 0B 02 08 00 68 80 80  Z............h..
0A60: 6A 0A 03 18 00 00 80 01  8F 0B 02 08 00 69 80 80  j............i..
0A70: 7A 0A 03 18 00 00 80 01  8F 0B 02 08 00 6A 80 80  z............j..
0A80: 8A 0A 03 18 00 00 80 01  8F 0B 02 08 00 54 80 80  .............T..
0A90: 9A 0A 03 18 00 00 80 01  8F 0B 02 08 00 55 80 80  .............U..
0AA0: AA 0A 03 18 00 00 80 01  8F 0B 02 08 00 6B 80 80  .............k..
0AB0: BA 0A 03 18 00 00 80 01  8F 0B 02 08 00 6C 80 80  .............l..
0AC0: CA 0A 03 18 00 00 80 01  8F 0B 02 08 00 5C 80 80  .............\..
0AD0: DA 0A 03 18 00 00 80 01  8F 0B 02 08 00 6D 80 80  .............m..
0AE0: EA 0A 03 18 00 00 80 01  8F 0B 02 08 00 6E 80 80  .............n..
0AF0: FA 0A 03 18 00 00 80 01  8F 0B 02 08 00 6F 80 80  .............o..
0B00: 0A 0B 03 18 00 00 80 01  8F 0B 02 08 00 70 80 80  .............p..
0B10: 1A 0B 03 18 00 00 80 01  8F 0B 02 08 00 71 80 80  .............q..
0B20: 2A 0B 03 18 00 00 80 01  8F 0B 02 08 00 72 80 80  *............r..
0B30: 3A 0B 03 18 00 00 80 01  8F 0B 02 08 00 73 80 80  :............s..
0B40: 4A 0B 03 18 00 00 80 01  8F 0B 02 08 00 74 80 80  J............t..
0B50: 5A 0B 03 18 00 00 80 01  8F 0B 02 08 00 75 80 80  Z............u..
0B60: 6A 0B 03 18 00 00 80 01  8F 0B 02 08 00 76 80 80  j............v..
0B70: 7A 0B 03 18 00 00 80 01  8F 0B 02 08 00 01 80 80  z...............
0B80: 8A 0B 03 18 00 00 80 01  8F 0B 03 18 00 00 80 02  ................
0B90: 06 00 04 80 00 C5 0B 5C  00 7B 80 5C 01 7B 80 5C  .......\.{.\.{.\
0BA0: 02 7B 80 5C 03 7B 80 02  08 00 00 80 80 C2 0B 5C  .{.\.{.........\
0BB0: 00 7C 80 5C 01 7C 80 5C  02 7C 80 5C 03 7C 80 01  .|.\.|.\.|.\.|..
0BC0: C2 0B 01 DD 0B 02 18 00  00 80 00 DD 0B 5C 00 7C  .............\.|
0BD0: 80 5C 01 7C 80 5C 02 7C  80 5C 03 7C 80 02 06 00  .\.|.\.|.\.|....
0BE0: 00 80 00 EB 0B 1A 86 13  01 24 0C 6C F0 FF FF 7F  .........$.l....
0BF0: 00 80 04 80 62 30 80 F0  FF FF 7F F0 FF FF 7F 6D  ....b0.........m
0C00: 61 69 6E 00 80 45 05 80  F0 FF FF 7F F0 FF FF 7F  ain..E..........
0C10: 6F 76 6C 31 00 80 46 02  16 00 02 16 00 00 80 00  ovl1..F.........
0C20: 24 0C 46 00 03 01 10 79  80 07 01 10 07 00 01 4B  $.F....y.......K
0C30: 0C 01 34 0C 0B 04 00 02  00 80 04 80 00 44 0C 03  ..4..........D..
0C40: 04 00 30 80 01 AB 05 48  7D 80 23 45 7E 80 F0 FF  ..0....H}.#E~...
0C50: FF 7F F0 FF FF 7F 77 68  69 31 00 80 45 05 80 F0  ......whi1..E...
0C60: FF FF 7F F0 FF FF 7F 62  6C 6F 66 00 80 45 05 80  .......blof..E..
0C70: F0 FF FF 7F F0 FF FF 7F  66 64 69 30 00 80 02 0B  ........fdi0....
0C80: 00 04 80 00 96 0C 5C 00  00 80 5C 01 00 80 5C 02  ......\...\...\.
0C90: 7B 80 5C 03 7B 80 21 00  1B                       {.\.{.!..       
```

#### Opcodes

```
  0: 0x040C [0x20] SET_CLI_EVENT_UC_FLAG: Lock player control
  1: 0x040E [0x79] LocalPlayer looks at LocalPlayer (Basic look)
  2: 0x0418 [0x03] ExtData[1]->WorkLocal[6] = Work_Zone[2]
  3: 0x041D [0x03] ExtData[1]->WorkLocal[7] = Work_Zone[3]
  4: 0x0422 [0x03] ExtData[1]->WorkLocal[9] = Work_Zone[4]
  5: 0x0427 [0x03] ExtData[1]->WorkLocal[10] = Work_Zone[5]
  6: 0x042C [0x03] ExtData[1]->WorkLocal[19] = Work_Zone[6]
  7: 0x0431 [0x03] ExtData[1]->WorkLocal[20] = Work_Zone[7]
  8: 0x0436 [0x03] ExtData[1]->WorkLocal[21] = Work_Zone[8]
  9: 0x043B [0x41] ExtData[1]->WorkLocal[11] = Work_Zone[9] (bits 0*-15*)
 10: 0x0444 [0x41] Work_Zone[6] = Work_Zone[9] (bits 16*-31*)
 11: 0x044D [0x06] ExtData[1]->WorkLocal[5] = 0
 12: 0x0450 [0x02] IF !(ExtData[1]->WorkLocal[11] == 0*) GOTO 0x054C
 13: 0x0458 [0x03] ExtData[1]->WorkLocal[12] = 4294967295*
 14: 0x045D [0x0F] ExtData[1]->WorkLocal[12] ^= ExtData[1]->WorkLocal[10]
 15: 0x0462 [0x10] ExtData[1]->WorkLocal[12] <<= 1*
 16: 0x0467 [0x24] CREATE_DIALOG(message_id=7641*, default_option=0*, option_flags=ExtData[1]->WorkLocal[12])
    → "Which battlefield will you enter? [None./[The Rider Cometh/Unwavering Resolve/A Stygian Pact]./@/@/@/@/@/@/@/@/@/@/@/@/@/@/@/@/@/@/@/@/@/@/@/@/@/@/@/@/@/@]"
 17: 0x046E [0x25] WAIT_DIALOG_SELECT()
 18: 0x046F [0x02] IF !(Work_Zone[0] == 0*) GOTO 0x047D
 19: 0x0477 [0x01] GOTO 0x0C7E

SUBROUTINE_04A6:
 20: 0x04A6 [0x3E] IF !(ExtData[1]->WorkLocal[20] bit ExtData[1]->WorkLocal[7]) GOTO 0x04B0
 21: 0x04AD [0x01] GOTO 0x04B7
 22: 0x04B0 [0x3C] SET_BIT_FLAG_CONDITIONAL(target_work_offset=ExtData[1]->WorkLocal[12], bit_index_work_offset=1*, condition_work_offset=1*)

SUBROUTINE_04B7:
 23: 0x04B7 [0x1A] CALL_SUBROUTINE(address=0x1484)
 24: 0x04BA [0x24] CREATE_DIALOG(message_id=7627*, default_option=5*, option_flags=ExtData[1]->WorkLocal[12])
    → "Select difficulty. [Very difficult. (Level: ???)/Difficult. (Level: ???)/Normal. (Level: $18)/Easy. (Level: $17)/Very Easy. (Level: $16)/Leave.]"
 25: 0x04C1 [0x25] WAIT_DIALOG_SELECT()
 26: 0x04C2 [0x02] IF !(Work_Zone[0] == 0*) GOTO 0x04D2
 27: 0x04CA [0x03] ExtData[1]->WorkLocal[19] = 1*
 28: 0x04CF [0x01] GOTO 0x0525
 29: 0x04D2 [0x02] IF !(Work_Zone[0] == 1*) GOTO 0x04E2
 30: 0x04DA [0x03] ExtData[1]->WorkLocal[19] = 2*
 31: 0x04DF [0x01] GOTO 0x0525
 32: 0x04E2 [0x02] IF !(Work_Zone[0] == 2*) GOTO 0x04F2
 33: 0x04EA [0x03] ExtData[1]->WorkLocal[19] = 3*
 34: 0x04EF [0x01] GOTO 0x0525
 35: 0x04F2 [0x02] IF !(Work_Zone[0] == 3*) GOTO 0x0502
 36: 0x04FA [0x03] ExtData[1]->WorkLocal[19] = 4*
 37: 0x04FF [0x01] GOTO 0x0525
 38: 0x0502 [0x02] IF !(Work_Zone[0] == 4*) GOTO 0x0512
 39: 0x050A [0x03] ExtData[1]->WorkLocal[19] = 5*
 40: 0x050F [0x01] GOTO 0x0525
 41: 0x0512 [0x02] IF !(Work_Zone[0] == 5*) GOTO 0x0520
 42: 0x051A [0x01] GOTO 0x0C7E

SUBROUTINE_0525:
 43: 0x0525 [0x01] GOTO 0x054C
 44: 0x0528 [0x06] ExtData[1]->WorkLocal[19] = 0
 45: 0x052B [0x1A] CALL_SUBROUTINE(address=0x0C98)
 46: 0x052E [0x02] IF !(ExtData[1]->WorkLocal[25] == 1*) GOTO 0x054C
 47: 0x0536 [0x24] CREATE_DIALOG(message_id=7262*, default_option=1*, option_flags=0*)
    → "Enter the battlefield? [Enter./Decline.]"
 48: 0x053D [0x25] WAIT_DIALOG_SELECT()
 49: 0x053E [0x02] IF !(Work_Zone[0] == 1*) GOTO 0x054C
 50: 0x0546 [0x01] GOTO 0x0C7E

SUBROUTINE_054C:
 51: 0x054C [0x42] SET_CLI_EVENT_CANCEL_DATA()
 52: 0x054D [0x03] Work_Zone[1] = 255*
 53: 0x0552 [0x43] SEND_EVENT_UPDATE: Send pending tag to server (packet 0x005B)
 54: 0x0554 [0x43] SEND_EVENT_UPDATE: Check pending flag (skip if not pending)
 55: 0x0556 [0x06] Work_Zone[1] = 0
 56: 0x0559 [0x45] LOAD_SCHEDULED_TASK: Load scheduler "fdo1" with entities [LocalPlayer, LocalPlayer], work=[200*, 0*]
 57: 0x056A [0x55] WAIT_LOAD_SCHEDULER: Wait for scheduler "fdo1" with entities [LocalPlayer, LocalPlayer], work=200*
 58: 0x0579 [0x3B] GET_ENTITY_POSITION(entity=LocalPlayer, x_destination=Work_Zone[32], y_destination=Work_Zone[33], z_destination=Work_Zone[34])
 59: 0x0584 [0x38] SET_CLIENT_EVENT_MODE(mode=19*)
 60: 0x0587 [0x02] IF !(ExtData[1]->WorkLocal[11] == 1*) GOTO 0x05A6
 61: 0x058F [0x03] ExtData[1]->WorkLocal[4] = 1*
 62: 0x0594 [0x03] ExtData[1]->WorkLocal[8] = ExtData[1]->WorkLocal[7]
 63: 0x0599 [0x03] ExtData[1]->WorkLocal[6] = 0*
 64: 0x059E [0x03] ExtData[1]->WorkLocal[31] = 0*
 65: 0x05A3 [0x01] GOTO 0x0997

SUBROUTINE_05A6:
 66: 0x05A6 [0x03] ExtData[1]->WorkLocal[4] = 1*

SUBROUTINE_05AB:
 67: 0x05AB [0x02] IF !(ExtData[1]->WorkLocal[4] > 1*) GOTO 0x0C47
 68: 0x05B3 [0x02] IF !(0* == 1*) GOTO 0x05C0
 69: 0x05BB [0x03] ExtData[1]->WorkLocal[4] = ExtData[1]->WorkLocal[9]
 70: 0x05C0 [0x40] SET_BIT_WORK_RANGE(start_bit=0*, end_bit=3*, target=Work_Zone[1], source=ExtData[1]->WorkLocal[4])
 71: 0x05C9 [0x40] SET_BIT_WORK_RANGE(start_bit=4*, end_bit=8*, target=Work_Zone[1], source=ExtData[1]->WorkLocal[7])
 72: 0x05D2 [0x40] SET_BIT_WORK_RANGE(start_bit=9*, end_bit=11*, target=Work_Zone[1], source=ExtData[1]->WorkLocal[19])
 73: 0x05DB [0x06] Work_Zone[2] = 0
 74: 0x05DE [0x06] Work_Zone[3] = 0
 75: 0x05E1 [0x06] Work_Zone[4] = 0
 76: 0x05E4 [0x02] IF !(ExtData[1]->WorkLocal[4] == 1*) GOTO 0x0603
 77: 0x05EC [0x03] ExtData[1]->WorkLocal[13] = 4294735296*
 78: 0x05F1 [0x03] ExtData[1]->WorkLocal[14] = 8000*
 79: 0x05F6 [0x03] ExtData[1]->WorkLocal[15] = 33646*
 80: 0x05FB [0x03] ExtData[1]->WorkLocal[16] = 1536*
 81: 0x0600 [0x01] GOTO 0x0660
 82: 0x0603 [0x02] IF !(ExtData[1]->WorkLocal[4] == 2*) GOTO 0x0622
 83: 0x060B [0x03] ExtData[1]->WorkLocal[13] = 0*
 84: 0x0610 [0x03] ExtData[1]->WorkLocal[14] = 0*
 85: 0x0615 [0x03] ExtData[1]->WorkLocal[15] = 0*
 86: 0x061A [0x03] ExtData[1]->WorkLocal[16] = 0*
 87: 0x061F [0x01] GOTO 0x0660
 88: 0x0622 [0x02] IF !(ExtData[1]->WorkLocal[4] == 3*) GOTO 0x0641
 89: 0x062A [0x03] ExtData[1]->WorkLocal[13] = 0*
 90: 0x062F [0x03] ExtData[1]->WorkLocal[14] = 0*
 91: 0x0634 [0x03] ExtData[1]->WorkLocal[15] = 0*
 92: 0x0639 [0x03] ExtData[1]->WorkLocal[16] = 0*
 93: 0x063E [0x01] GOTO 0x0660
 94: 0x0641 [0x02] IF !(ExtData[1]->WorkLocal[4] == 4*) GOTO 0x0660
 95: 0x0649 [0x03] ExtData[1]->WorkLocal[13] = 0*
 96: 0x064E [0x03] ExtData[1]->WorkLocal[14] = 0*
 97: 0x0653 [0x03] ExtData[1]->WorkLocal[15] = 0*
 98: 0x0658 [0x03] ExtData[1]->WorkLocal[16] = 0*
 99: 0x065D [0x01] GOTO 0x0660

SUBROUTINE_0660:
100: 0x0660 [0x47] UPDATE_PLAYER_POS(ExtData[1]->WorkLocal[13], ExtData[1]->WorkLocal[14], ExtData[1]->WorkLocal[15], yaw=ExtData[1]->WorkLocal[16])
101: 0x066A [0x47] WAIT_PLAYER_POS_UPDATE
102: 0x066C [0x03] ExtData[1]->WorkLocal[8] = Work_Zone[3]
103: 0x0671 [0x03] ExtData[1]->WorkLocal[6] = Work_Zone[4]
104: 0x0676 [0x03] ExtData[1]->WorkLocal[29] = Work_Zone[5]
105: 0x067B [0x03] ExtData[1]->WorkLocal[17] = Work_Zone[6]
106: 0x0680 [0x03] ExtData[1]->WorkLocal[18] = Work_Zone[7]
107: 0x0685 [0x03] ExtData[1]->WorkLocal[31] = Work_Zone[9]
108: 0x068A [0x02] IF !(Work_Zone[2] == 1*) GOTO 0x0695
109: 0x0692 [0x01] GOTO 0x0C34
110: 0x0695 [0x02] IF !(Work_Zone[2] == 4*) GOTO 0x06DF
111: 0x069D [0x02] IF !(ExtData[1]->WorkLocal[4] == 1*) GOTO 0x06AC
112: 0x06A5 [0x48] [System] [7273*]:
    → "You are cleared to enter the battlefield, but you cannot while party members are engaged in combat."
113: 0x06A8 [0x23] WAIT_FOR_DIALOG_INTERACTION
114: 0x06A9 [0x01] GOTO 0x06D9
115: 0x06AC [0x02] IF !(ExtData[1]->WorkLocal[4] == 2*) GOTO 0x06BB
116: 0x06B4 [0x48] [System] [7274*]:
    → "You are cleared to enter the battlefield, but you cannot while party members are engaged in combat."
117: 0x06B7 [0x23] WAIT_FOR_DIALOG_INTERACTION
118: 0x06B8 [0x01] GOTO 0x06D9
119: 0x06BB [0x02] IF !(ExtData[1]->WorkLocal[4] == 3*) GOTO 0x06CA
120: 0x06C3 [0x48] [System] [7275*]:
    → "You are cleared to enter the battlefield, but you cannot while party members are engaged in combat."
121: 0x06C6 [0x23] WAIT_FOR_DIALOG_INTERACTION
122: 0x06C7 [0x01] GOTO 0x06D9
123: 0x06CA [0x02] IF !(ExtData[1]->WorkLocal[4] == 4*) GOTO 0x06D9
124: 0x06D2 [0x48] [System] [7276*]:
    → "You are cleared to enter the battlefield, but you cannot while party members are engaged in combat."
125: 0x06D5 [0x23] WAIT_FOR_DIALOG_INTERACTION
126: 0x06D6 [0x01] GOTO 0x06D9

SUBROUTINE_06D9:
127: 0x06D9 [0x01] GOTO 0x0C4B

SUBROUTINE_08E9:
128: 0x08E9 [0x48] [System] [7621*]:
    → "Only $3 [member/members] have clearance to enter the battlefield. This room has reached its maximum capacity."
129: 0x08EC [0x23] WAIT_FOR_DIALOG_INTERACTION
130: 0x08ED [0x01] GOTO 0x0C4B

SUBROUTINE_0935:
131: 0x0935 [0x02] IF !(ExtData[1]->WorkLocal[17] > 1*) GOTO 0x0940
132: 0x093D [0x01] GOTO 0x094D
133: 0x0940 [0x03] Work_Zone[6] = ExtData[1]->WorkLocal[17]
134: 0x0945 [0x0C] Work_Zone[6]--
135: 0x0948 [0x03] Work_Zone[7] = ExtData[1]->WorkLocal[17]

SUBROUTINE_094D:
136: 0x094D [0x03] ExtData[1]->WorkLocal[7] = ExtData[1]->WorkLocal[8]
137: 0x0952 [0x03] ExtData[1]->WorkLocal[23] = 100*
138: 0x0957 [0x07] ExtData[1]->WorkLocal[23] += ExtData[1]->WorkLocal[7]
139: 0x095C [0x02] IF !(ExtData[1]->WorkLocal[6] == ExtData[1]->WorkLocal[23]) GOTO 0x096C
140: 0x0964 [0x03] ExtData[1]->WorkLocal[6] = 1*
141: 0x0969 [0x01] GOTO 0x0971
142: 0x096C [0x03] ExtData[1]->WorkLocal[6] = 0*

SUBROUTINE_0971:
143: 0x0971 [0x02] IF !(ExtData[1]->WorkLocal[6] == 0*) GOTO 0x0997
144: 0x0979 [0x02] IF !(ExtData[1]->WorkLocal[18] == 1*) GOTO 0x0997
145: 0x0981 [0x24] CREATE_DIALOG(message_id=7601*, default_option=1*, option_flags=0*)
    → "Skip the event? [Yes./No.]"
146: 0x0988 [0x25] WAIT_DIALOG_SELECT()
147: 0x0989 [0x02] IF !(Work_Zone[0] == 0*) GOTO 0x0997
148: 0x0991 [0x05] ExtData[1]->WorkLocal[6] = 1
149: 0x0994 [0x01] GOTO 0x0997

SUBROUTINE_0997:
150: 0x0997 [0x06] ExtData[1]->WorkLocal[24] = 0
151: 0x099A [0x02] IF !(ExtData[1]->WorkLocal[8] == 0*) GOTO 0x09AA
152: 0x09A2 [0x03] ExtData[1]->WorkLocal[24] = 0*
153: 0x09A7 [0x01] GOTO 0x0B8F
154: 0x09AA [0x02] IF !(ExtData[1]->WorkLocal[8] == 1*) GOTO 0x09BA
155: 0x09B2 [0x03] ExtData[1]->WorkLocal[24] = 0*
156: 0x09B7 [0x01] GOTO 0x0B8F
157: 0x09BA [0x02] IF !(ExtData[1]->WorkLocal[8] == 2*) GOTO 0x09CA
158: 0x09C2 [0x03] ExtData[1]->WorkLocal[24] = 0*
159: 0x09C7 [0x01] GOTO 0x0B8F
160: 0x09CA [0x02] IF !(ExtData[1]->WorkLocal[8] == 3*) GOTO 0x09DA
161: 0x09D2 [0x03] ExtData[1]->WorkLocal[24] = 0*
162: 0x09D7 [0x01] GOTO 0x0B8F
163: 0x09DA [0x02] IF !(ExtData[1]->WorkLocal[8] == 4*) GOTO 0x09EA
164: 0x09E2 [0x03] ExtData[1]->WorkLocal[24] = 0*
165: 0x09E7 [0x01] GOTO 0x0B8F
166: 0x09EA [0x02] IF !(ExtData[1]->WorkLocal[8] == 5*) GOTO 0x09FA
167: 0x09F2 [0x03] ExtData[1]->WorkLocal[24] = 0*
168: 0x09F7 [0x01] GOTO 0x0B8F
169: 0x09FA [0x02] IF !(ExtData[1]->WorkLocal[8] == 6*) GOTO 0x0A0A
170: 0x0A02 [0x03] ExtData[1]->WorkLocal[24] = 0*
171: 0x0A07 [0x01] GOTO 0x0B8F
172: 0x0A0A [0x02] IF !(ExtData[1]->WorkLocal[8] == 7*) GOTO 0x0A1A
173: 0x0A12 [0x03] ExtData[1]->WorkLocal[24] = 0*
174: 0x0A17 [0x01] GOTO 0x0B8F
175: 0x0A1A [0x02] IF !(ExtData[1]->WorkLocal[8] == 8*) GOTO 0x0A2A
176: 0x0A22 [0x03] ExtData[1]->WorkLocal[24] = 0*
177: 0x0A27 [0x01] GOTO 0x0B8F
178: 0x0A2A [0x02] IF !(ExtData[1]->WorkLocal[8] == 9*) GOTO 0x0A3A
179: 0x0A32 [0x03] ExtData[1]->WorkLocal[24] = 0*
180: 0x0A37 [0x01] GOTO 0x0B8F
181: 0x0A3A [0x02] IF !(ExtData[1]->WorkLocal[8] == 10*) GOTO 0x0A4A
182: 0x0A42 [0x03] ExtData[1]->WorkLocal[24] = 0*
183: 0x0A47 [0x01] GOTO 0x0B8F
184: 0x0A4A [0x02] IF !(ExtData[1]->WorkLocal[8] == 11*) GOTO 0x0A5A
185: 0x0A52 [0x03] ExtData[1]->WorkLocal[24] = 0*
186: 0x0A57 [0x01] GOTO 0x0B8F
187: 0x0A5A [0x02] IF !(ExtData[1]->WorkLocal[8] == 12*) GOTO 0x0A6A
188: 0x0A62 [0x03] ExtData[1]->WorkLocal[24] = 0*
189: 0x0A67 [0x01] GOTO 0x0B8F
190: 0x0A6A [0x02] IF !(ExtData[1]->WorkLocal[8] == 13*) GOTO 0x0A7A
191: 0x0A72 [0x03] ExtData[1]->WorkLocal[24] = 0*
192: 0x0A77 [0x01] GOTO 0x0B8F
193: 0x0A7A [0x02] IF !(ExtData[1]->WorkLocal[8] == 14*) GOTO 0x0A8A
194: 0x0A82 [0x03] ExtData[1]->WorkLocal[24] = 0*
195: 0x0A87 [0x01] GOTO 0x0B8F
196: 0x0A8A [0x02] IF !(ExtData[1]->WorkLocal[8] == 15*) GOTO 0x0A9A
197: 0x0A92 [0x03] ExtData[1]->WorkLocal[24] = 0*
198: 0x0A97 [0x01] GOTO 0x0B8F
199: 0x0A9A [0x02] IF !(ExtData[1]->WorkLocal[8] == 16*) GOTO 0x0AAA
200: 0x0AA2 [0x03] ExtData[1]->WorkLocal[24] = 0*
201: 0x0AA7 [0x01] GOTO 0x0B8F
202: 0x0AAA [0x02] IF !(ExtData[1]->WorkLocal[8] == 17*) GOTO 0x0ABA
203: 0x0AB2 [0x03] ExtData[1]->WorkLocal[24] = 0*
204: 0x0AB7 [0x01] GOTO 0x0B8F
205: 0x0ABA [0x02] IF !(ExtData[1]->WorkLocal[8] == 18*) GOTO 0x0ACA
206: 0x0AC2 [0x03] ExtData[1]->WorkLocal[24] = 0*
207: 0x0AC7 [0x01] GOTO 0x0B8F
208: 0x0ACA [0x02] IF !(ExtData[1]->WorkLocal[8] == 19*) GOTO 0x0ADA
209: 0x0AD2 [0x03] ExtData[1]->WorkLocal[24] = 0*
210: 0x0AD7 [0x01] GOTO 0x0B8F
211: 0x0ADA [0x02] IF !(ExtData[1]->WorkLocal[8] == 20*) GOTO 0x0AEA
212: 0x0AE2 [0x03] ExtData[1]->WorkLocal[24] = 0*
213: 0x0AE7 [0x01] GOTO 0x0B8F
214: 0x0AEA [0x02] IF !(ExtData[1]->WorkLocal[8] == 21*) GOTO 0x0AFA
215: 0x0AF2 [0x03] ExtData[1]->WorkLocal[24] = 0*
216: 0x0AF7 [0x01] GOTO 0x0B8F
217: 0x0AFA [0x02] IF !(ExtData[1]->WorkLocal[8] == 22*) GOTO 0x0B0A
218: 0x0B02 [0x03] ExtData[1]->WorkLocal[24] = 0*
219: 0x0B07 [0x01] GOTO 0x0B8F
220: 0x0B0A [0x02] IF !(ExtData[1]->WorkLocal[8] == 23*) GOTO 0x0B1A
221: 0x0B12 [0x03] ExtData[1]->WorkLocal[24] = 0*
222: 0x0B17 [0x01] GOTO 0x0B8F
223: 0x0B1A [0x02] IF !(ExtData[1]->WorkLocal[8] == 24*) GOTO 0x0B2A
224: 0x0B22 [0x03] ExtData[1]->WorkLocal[24] = 0*
225: 0x0B27 [0x01] GOTO 0x0B8F
226: 0x0B2A [0x02] IF !(ExtData[1]->WorkLocal[8] == 25*) GOTO 0x0B3A
227: 0x0B32 [0x03] ExtData[1]->WorkLocal[24] = 0*
228: 0x0B37 [0x01] GOTO 0x0B8F
229: 0x0B3A [0x02] IF !(ExtData[1]->WorkLocal[8] == 26*) GOTO 0x0B4A
230: 0x0B42 [0x03] ExtData[1]->WorkLocal[24] = 0*
231: 0x0B47 [0x01] GOTO 0x0B8F
232: 0x0B4A [0x02] IF !(ExtData[1]->WorkLocal[8] == 27*) GOTO 0x0B5A
233: 0x0B52 [0x03] ExtData[1]->WorkLocal[24] = 0*
234: 0x0B57 [0x01] GOTO 0x0B8F
235: 0x0B5A [0x02] IF !(ExtData[1]->WorkLocal[8] == 28*) GOTO 0x0B6A
236: 0x0B62 [0x03] ExtData[1]->WorkLocal[24] = 0*
237: 0x0B67 [0x01] GOTO 0x0B8F
238: 0x0B6A [0x02] IF !(ExtData[1]->WorkLocal[8] == 29*) GOTO 0x0B7A
239: 0x0B72 [0x03] ExtData[1]->WorkLocal[24] = 0*
240: 0x0B77 [0x01] GOTO 0x0B8F
241: 0x0B7A [0x02] IF !(ExtData[1]->WorkLocal[8] == 30*) GOTO 0x0B8A
242: 0x0B82 [0x03] ExtData[1]->WorkLocal[24] = 0*
243: 0x0B87 [0x01] GOTO 0x0B8F
244: 0x0B8A [0x03] ExtData[1]->WorkLocal[24] = 0*

SUBROUTINE_0B8F:
245: 0x0B8F [0x02] IF !(ExtData[1]->WorkLocal[6] == 1*) GOTO 0x0BC5
246: 0x0B97 [0x5C] MUSIC_CONTROL: Set Idle (Day) music to song 143*
247: 0x0B9B [0x5C] MUSIC_CONTROL: Set Idle (Night) music to song 143*
248: 0x0B9F [0x5C] MUSIC_CONTROL: Set Combat (Solo) music to song 143*
249: 0x0BA3 [0x5C] MUSIC_CONTROL: Set Combat (Party) music to song 143*
250: 0x0BA7 [0x02] IF !(ExtData[1]->WorkLocal[8] == 0*) GOTO 0x0BC2
251: 0x0BAF [0x5C] MUSIC_CONTROL: Set Idle (Day) music to song 186*
252: 0x0BB3 [0x5C] MUSIC_CONTROL: Set Idle (Night) music to song 186*
253: 0x0BB7 [0x5C] MUSIC_CONTROL: Set Combat (Solo) music to song 186*
254: 0x0BBB [0x5C] MUSIC_CONTROL: Set Combat (Party) music to song 186*
255: 0x0BBF [0x01] GOTO 0x0BC2

SUBROUTINE_0BC2:
256: 0x0BC2 [0x01] GOTO 0x0BDD
257: 0x0BC5 [0x02] IF !(ExtData[1]->WorkLocal[24] == 0*) GOTO 0x0BDD
258: 0x0BCD [0x5C] MUSIC_CONTROL: Set Idle (Day) music to song 186*
259: 0x0BD1 [0x5C] MUSIC_CONTROL: Set Idle (Night) music to song 186*
260: 0x0BD5 [0x5C] MUSIC_CONTROL: Set Combat (Solo) music to song 186*
261: 0x0BD9 [0x5C] MUSIC_CONTROL: Set Combat (Party) music to song 186*

SUBROUTINE_0BDD:
262: 0x0BDD [0x02] IF !(ExtData[1]->WorkLocal[6] == 0*) GOTO 0x0BEB
263: 0x0BE5 [0x1A] CALL_SUBROUTINE(address=0x1386)
264: 0x0BE8 [0x01] GOTO 0x0C24
265: 0x0BEB [0x6C] FADE_ENTITY_COLOR(entity_id=LocalPlayer, end_alpha=0*, fade_time=1*)
266: 0x0BF4 [0x62] LOAD_EVENT_SCHEDULER: Load scheduler "main" with entities [LocalPlayer, LocalPlayer], work=[2*, 0*]
267: 0x0C05 [0x45] LOAD_SCHEDULED_TASK: Load scheduler "ovl1" with entities [LocalPlayer, LocalPlayer], work=[200*, 0*]
268: 0x0C16 [0x46] CAMERA_CONTROL: Query status
269: 0x0C18 [0x16] 0x0200 = sin(ExtData[1]->WorkLocal[22]) * 0*
270: 0x0C1F [0x00] END_REQSTACK()

SUBROUTINE_0C34:
271: 0x0C34 [0x0B] ExtData[1]->WorkLocal[4]++
272: 0x0C37 [0x02] IF !(0* == 1*) GOTO 0x0C44
273: 0x0C3F [0x03] ExtData[1]->WorkLocal[4] = 2*
274: 0x0C44 [0x01] GOTO 0x05AB
275: 0x0C47 [0x48] [System] [7265*]:
    → "You cannot enter the battlefield at present. Please wait a little longer."
276: 0x0C4A [0x23] WAIT_FOR_DIALOG_INTERACTION

SUBROUTINE_0C4B:
277: 0x0C4B [0x45] LOAD_SCHEDULED_TASK: Load scheduler "whi1" with entities [LocalPlayer, LocalPlayer], work=[201*, 0*]
278: 0x0C5C [0x45] LOAD_SCHEDULED_TASK: Load scheduler "blof" with entities [LocalPlayer, LocalPlayer], work=[200*, 0*]
279: 0x0C6D [0x45] LOAD_SCHEDULED_TASK: Load scheduler "fdi0" with entities [LocalPlayer, LocalPlayer], work=[200*, 0*]

SUBROUTINE_0C7E:
280: 0x0C7E [0x02] IF !(ExtData[1]->WorkLocal[11] == 1*) GOTO 0x0C96
281: 0x0C86 [0x5C] MUSIC_CONTROL: Set Idle (Day) music to song 0*
282: 0x0C8A [0x5C] MUSIC_CONTROL: Set Idle (Night) music to song 0*
283: 0x0C8E [0x5C] MUSIC_CONTROL: Set Combat (Solo) music to song 143*
284: 0x0C92 [0x5C] MUSIC_CONTROL: Set Combat (Party) music to song 143*
285: 0x0C96 [0x21] END_EVENT
286: 0x0C97 [0x00] END_REQSTACK()

SUBROUTINE_0C98:
287: 0x0C98 [0x1B] RETURN
```

#### Data or dead code:

```
# Dead code (unreachable instructions):
     0x047A [0x01] GOTO 0x054C
# Dead code (unreachable instructions):
     0x051D [0x01] GOTO 0x0525
# Dead code (unreachable instructions):
     0x0549 [0x01] GOTO 0x054C
# Dead code (unreachable instructions):
     0x06DC [0x01] GOTO 0x0C34
     0x06EE [0x01] GOTO 0x0C34
# Dead code (unreachable instructions):
     0x08F0 [0x01] GOTO 0x0C34
     0x08FE [0x01] GOTO 0x0C34
# Dead code (unreachable instructions):
     0x0C20 [0x24] CREATE_DIALOG(message_id=0x460C, default_option=0x0300, option_flags=Work_Zone[1])
```

### Event 32002

#### Metadata

| Field        | Value     |
|--------------|-----------|
| Entrypoint   | 0x0C99    |
| Data Size    | 494 bytes |
| Instructions | 83        |

```
      00 01 02 03 04 05 06 07  08 09 0A 0B 0C 0D 0E 0F
      -- -- -- -- -- -- -- --  -- -- -- -- -- -- -- --
0C90:                             03 09 00 06 10 03 24           ......$
0CA0: 00 07 10 03 23 00 08 10  20 01 42 3B F0 FF FF 7F  ....#... .B;....
0CB0: 20 10 21 10 22 10 3A F0  FF FF 7F 23 10 45 05 80   .!.".:....#.E..
0CC0: F0 FF FF 7F F0 FF FF 7F  66 64 6F 31 00 80 55 05  ........fdo1..U.
0CD0: 80 F0 FF FF 7F F0 FF FF  7F 66 64 6F 31 02 00 80  .........fdo1...
0CE0: 04 80 00 44 0D 02 09 00  04 80 80 FC 0C 47 00 00  ...D.........G..
0CF0: 80 00 80 00 80 00 80 47  01 01 41 0D 02 09 00 30  .......G..A....0
0D00: 80 80 13 0D 47 00 00 80  00 80 00 80 00 80 47 01  ....G.........G.
0D10: 01 41 0D 02 09 00 3D 80  80 2A 0D 47 00 00 80 00  .A....=..*.G....
0D20: 80 00 80 00 80 47 01 01  41 0D 02 09 00 4B 80 80  .....G..A....K..
0D30: 41 0D 47 00 00 80 00 80  00 80 00 80 47 01 01 41  A.G.........G..A
0D40: 0D 01 4D 0E 02 23 00 7F  80 80 CE 0D 02 24 00 00  ..M..#.......$..
0D50: 80 80 63 0D 47 00 80 80  81 80 82 80 83 80 47 01  ..c.G.........G.
0D60: 01 CB 0D 02 24 00 04 80  80 7A 0D 47 00 84 80 85  ....$....z.G....
0D70: 80 86 80 87 80 47 01 01  CB 0D 02 24 00 30 80 80  .....G.....$.0..
0D80: 91 0D 47 00 88 80 89 80  8A 80 8B 80 47 01 01 CB  ..G.........G...
0D90: 0D 02 24 00 3D 80 80 A8  0D 47 00 8C 80 8D 80 8E  ..$.=....G......
0DA0: 80 8F 80 47 01 01 CB 0D  02 24 00 4B 80 80 BF 0D  ...G.....$.K....
0DB0: 47 00 90 80 91 80 92 80  93 80 47 01 01 CB 0D 47  G.........G....G
0DC0: 00 51 80 52 80 94 80 00  80 47 01 01 4D 0E 02 23  .Q.R.....G..M..#
0DD0: 00 65 80 80 41 0E 02 24  00 04 80 80 ED 0D 47 00  .e..A..$......G.
0DE0: 95 80 96 80 97 80 98 80  47 01 01 3E 0E 02 24 00  ........G..>..$.
0DF0: 30 80 80 04 0E 47 00 99  80 9A 80 9B 80 9C 80 47  0....G.........G
0E00: 01 01 3E 0E 02 24 00 3D  80 80 1B 0E 47 00 9D 80  ..>..$.=....G...
0E10: 9E 80 9F 80 A0 80 47 01  01 3E 0E 02 24 00 4B 80  ......G..>..$.K.
0E20: 80 32 0E 47 00 A1 80 A2  80 A3 80 A4 80 47 01 01  .2.G.........G..
0E30: 3E 0E 47 00 51 80 52 80  94 80 00 80 47 01 01 4D  >.G.Q.R.....G..M
0E40: 0E 47 00 51 80 52 80 94  80 00 80 47 01 38 5C 80  .G.Q.R.....G.8\.
0E50: 1A 7C 14 45 7E 80 F0 FF  FF 7F F0 FF FF 7F 77 68  .|.E~.........wh
0E60: 69 31 00 80 45 05 80 F0  FF FF 7F F0 FF FF 7F 62  i1..E..........b
0E70: 6C 6F 66 00 80 5C 00 00  80 5C 01 00 80 5C 02 7B  lof..\...\...\.{
0E80: 80 5C 03 7B 80 21 00                              .\.{.!.         
```

#### Opcodes

```
  0: 0x0C99 [0x03] ExtData[1]->WorkLocal[9] = Work_Zone[6]
  1: 0x0C9E [0x03] ExtData[1]->WorkLocal[36] = Work_Zone[7]
  2: 0x0CA3 [0x03] ExtData[1]->WorkLocal[35] = Work_Zone[8]
  3: 0x0CA8 [0x20] SET_CLI_EVENT_UC_FLAG: Lock player control
  4: 0x0CAA [0x42] SET_CLI_EVENT_CANCEL_DATA()
  5: 0x0CAB [0x3B] GET_ENTITY_POSITION(entity=LocalPlayer, x_destination=Work_Zone[32], y_destination=Work_Zone[33], z_destination=Work_Zone[34])
  6: 0x0CB6 [0x3A] CONVERT_YAW_TO_BYTE(entity=LocalPlayer, result_destination=Work_Zone[35])
  7: 0x0CBD [0x45] LOAD_SCHEDULED_TASK: Load scheduler "fdo1" with entities [LocalPlayer, LocalPlayer], work=[200*, 0*]
  8: 0x0CCE [0x55] WAIT_LOAD_SCHEDULER: Wait for scheduler "fdo1" with entities [LocalPlayer, LocalPlayer], work=200*
  9: 0x0CDD [0x02] IF !(0* == 1*) GOTO 0x0D44
 10: 0x0CE5 [0x02] IF !(ExtData[1]->WorkLocal[9] == 1*) GOTO 0x0CFC
 11: 0x0CED [0x47] UPDATE_PLAYER_POS(0.000*, 0.000*, 0.000*, yaw=0.0°*)
 12: 0x0CF7 [0x47] WAIT_PLAYER_POS_UPDATE
 13: 0x0CF9 [0x01] GOTO 0x0D41
 14: 0x0CFC [0x02] IF !(ExtData[1]->WorkLocal[9] == 2*) GOTO 0x0D13
 15: 0x0D04 [0x47] UPDATE_PLAYER_POS(0.000*, 0.000*, 0.000*, yaw=0.0°*)
 16: 0x0D0E [0x47] WAIT_PLAYER_POS_UPDATE
 17: 0x0D10 [0x01] GOTO 0x0D41
 18: 0x0D13 [0x02] IF !(ExtData[1]->WorkLocal[9] == 3*) GOTO 0x0D2A
 19: 0x0D1B [0x47] UPDATE_PLAYER_POS(0.000*, 0.000*, 0.000*, yaw=0.0°*)
 20: 0x0D25 [0x47] WAIT_PLAYER_POS_UPDATE
 21: 0x0D27 [0x01] GOTO 0x0D41
 22: 0x0D2A [0x02] IF !(ExtData[1]->WorkLocal[9] == 4*) GOTO 0x0D41
 23: 0x0D32 [0x47] UPDATE_PLAYER_POS(0.000*, 0.000*, 0.000*, yaw=0.0°*)
 24: 0x0D3C [0x47] WAIT_PLAYER_POS_UPDATE
 25: 0x0D3E [0x01] GOTO 0x0D41

SUBROUTINE_0D41:
 26: 0x0D41 [0x01] GOTO 0x0E4D
 27: 0x0D44 [0x02] IF !(ExtData[1]->WorkLocal[35] == 180*) GOTO 0x0DCE
 28: 0x0D4C [0x02] IF !(ExtData[1]->WorkLocal[36] == 0*) GOTO 0x0D63
 29: 0x0D54 [0x47] UPDATE_PLAYER_POS(-605.141*, 479.929*, -22.681*, yaw=87.2°*)
 30: 0x0D5E [0x47] WAIT_PLAYER_POS_UPDATE
 31: 0x0D60 [0x01] GOTO 0x0DCB
 32: 0x0D63 [0x02] IF !(ExtData[1]->WorkLocal[36] == 1*) GOTO 0x0D7A
 33: 0x0D6B [0x47] UPDATE_PLAYER_POS(-262.589*, 377.857*, -137.313*, yaw=305.3°*)
 34: 0x0D75 [0x47] WAIT_PLAYER_POS_UPDATE
 35: 0x0D77 [0x01] GOTO 0x0DCB
 36: 0x0D7A [0x02] IF !(ExtData[1]->WorkLocal[36] == 2*) GOTO 0x0D91
 37: 0x0D82 [0x47] UPDATE_PLAYER_POS(18.348*, 486.940*, -224.334*, yaw=17.1°*)
 38: 0x0D8C [0x47] WAIT_PLAYER_POS_UPDATE
 39: 0x0D8E [0x01] GOTO 0x0DCB
 40: 0x0D91 [0x02] IF !(ExtData[1]->WorkLocal[36] == 3*) GOTO 0x0DA8
 41: 0x0D99 [0x47] UPDATE_PLAYER_POS(231.593*, 360.094*, -173.572*, yaw=160.8°*)
 42: 0x0DA3 [0x47] WAIT_PLAYER_POS_UPDATE
 43: 0x0DA5 [0x01] GOTO 0x0DCB
 44: 0x0DA8 [0x02] IF !(ExtData[1]->WorkLocal[36] == 4*) GOTO 0x0DBF
 45: 0x0DB0 [0x47] UPDATE_PLAYER_POS(553.664*, 523.939*, -38.205*, yaw=233.9°*)
 46: 0x0DBA [0x47] WAIT_PLAYER_POS_UPDATE
 47: 0x0DBC [0x01] GOTO 0x0DCB
 48: 0x0DBF [0x47] UPDATE_PLAYER_POS(500.000*, -20.000*, -226.000*, yaw=0.0°*)
 49: 0x0DC9 [0x47] WAIT_PLAYER_POS_UPDATE

SUBROUTINE_0DCB:
 50: 0x0DCB [0x01] GOTO 0x0E4D
 51: 0x0DCE [0x02] IF !(ExtData[1]->WorkLocal[35] == 6*) GOTO 0x0E41
 52: 0x0DD6 [0x02] IF !(ExtData[1]->WorkLocal[36] == 1*) GOTO 0x0DED
 53: 0x0DDE [0x47] UPDATE_PLAYER_POS(-875.117*, -43.892*, -48.084*, yaw=45.1°*)
 54: 0x0DE8 [0x47] WAIT_PLAYER_POS_UPDATE
 55: 0x0DEA [0x01] GOTO 0x0E3E
 56: 0x0DED [0x02] IF !(ExtData[1]->WorkLocal[36] == 2*) GOTO 0x0E04
 57: 0x0DF5 [0x47] UPDATE_PLAYER_POS(-755.499*, 563.947*, -112.035*, yaw=313.5°*)
 58: 0x0DFF [0x47] WAIT_PLAYER_POS_UPDATE
 59: 0x0E01 [0x01] GOTO 0x0E3E
 60: 0x0E04 [0x02] IF !(ExtData[1]->WorkLocal[36] == 3*) GOTO 0x0E1B
 61: 0x0E0C [0x47] UPDATE_PLAYER_POS(123.251*, 754.209*, -172.124*, yaw=38.7°*)
 62: 0x0E16 [0x47] WAIT_PLAYER_POS_UPDATE
 63: 0x0E18 [0x01] GOTO 0x0E3E
 64: 0x0E1B [0x02] IF !(ExtData[1]->WorkLocal[36] == 4*) GOTO 0x0E32
 65: 0x0E23 [0x47] UPDATE_PLAYER_POS(-516.404*, -803.323*, 24.206*, yaw=38.4°*)
 66: 0x0E2D [0x47] WAIT_PLAYER_POS_UPDATE
 67: 0x0E2F [0x01] GOTO 0x0E3E
 68: 0x0E32 [0x47] UPDATE_PLAYER_POS(500.000*, -20.000*, -226.000*, yaw=0.0°*)
 69: 0x0E3C [0x47] WAIT_PLAYER_POS_UPDATE

SUBROUTINE_0E3E:
 70: 0x0E3E [0x01] GOTO 0x0E4D
 71: 0x0E41 [0x47] UPDATE_PLAYER_POS(500.000*, -20.000*, -226.000*, yaw=0.0°*)
 72: 0x0E4B [0x47] WAIT_PLAYER_POS_UPDATE

SUBROUTINE_0E4D:
 73: 0x0E4D [0x38] SET_CLIENT_EVENT_MODE(mode=19*)
 74: 0x0E50 [0x1A] CALL_SUBROUTINE(address=0x147C)
 75: 0x0E53 [0x45] LOAD_SCHEDULED_TASK: Load scheduler "whi1" with entities [LocalPlayer, LocalPlayer], work=[201*, 0*]
 76: 0x0E64 [0x45] LOAD_SCHEDULED_TASK: Load scheduler "blof" with entities [LocalPlayer, LocalPlayer], work=[200*, 0*]
 77: 0x0E75 [0x5C] MUSIC_CONTROL: Set Idle (Day) music to song 0*
 78: 0x0E79 [0x5C] MUSIC_CONTROL: Set Idle (Night) music to song 0*
 79: 0x0E7D [0x5C] MUSIC_CONTROL: Set Combat (Solo) music to song 143*
 80: 0x0E81 [0x5C] MUSIC_CONTROL: Set Combat (Party) music to song 143*
 81: 0x0E85 [0x21] END_EVENT
 82: 0x0E86 [0x00] END_REQSTACK()
```

### Event 32001

#### Metadata

| Field        | Value     |
|--------------|-----------|
| Entrypoint   | 0x0E87    |
| Data Size    | 819 bytes |
| Instructions | 116       |

```
      00 01 02 03 04 05 06 07  08 09 0A 0B 0C 0D 0E 0F
      -- -- -- -- -- -- -- --  -- -- -- -- -- -- -- --
0E80:                      79  00 F0 FF FF 7F F0 FF FF         y........
0E90: 7F 03 24 00 02 10 03 1D  00 03 10 03 1E 00 05 10  ..$.............
0EA0: 03 23 00 06 10 03 1C 00  07 10 03 1A 00 08 10 03  .#..............
0EB0: 1F 00 09 10 20 01 42 3B  F0 FF FF 7F 20 10 21 10  .... .B;.... .!.
0EC0: 22 10 3A F0 FF FF 7F 23  10 02 23 00 7F 80 01 D4  ".:....#..#.....
0ED0: 0E 1C A5 80 45 7E 80 F0  FF FF 7F F0 FF FF 7F 77  ....E~.........w
0EE0: 68 69 31 00 80 45 05 80  F0 FF FF 7F F0 FF FF 7F  hi1..E..........
0EF0: 62 6C 6F 66 00 80 45 05  80 F0 FF FF 7F F0 FF FF  blof..E.........
0F00: 7F 66 64 6F 31 00 80 55  05 80 F0 FF FF 7F F0 FF  .fdo1..U........
0F10: FF 7F 66 64 6F 31 6C F0  FF FF 7F A6 80 04 80 06  ..fdo1l.........
0F20: 01 10 02 1A 00 00 80 03  2D 0F 01 F1 0F 02 23 00  ........-.....#.
0F30: 7F 80 80 B7 0F 02 24 00  00 80 80 4C 0F 47 00 A7  ......$....L.G..
0F40: 80 A8 80 A9 80 AA 80 47  01 01 B4 0F 02 24 00 04  .......G.....$..
0F50: 80 80 63 0F 47 00 AB 80  AC 80 AD 80 AE 80 47 01  ..c.G.........G.
0F60: 01 B4 0F 02 24 00 30 80  80 7A 0F 47 00 AF 80 B0  ....$.0..z.G....
0F70: 80 B1 80 B2 80 47 01 01  B4 0F 02 24 00 3D 80 80  .....G.....$.=..
0F80: 91 0F 47 00 B3 80 B4 80  B5 80 B6 80 47 01 01 B4  ..G.........G...
0F90: 0F 02 24 00 4B 80 80 A8  0F 47 00 B7 80 B8 80 B9  ..$.K....G......
0FA0: 80 BA 80 47 01 01 B4 0F  47 00 51 80 52 80 94 80  ...G....G.Q.R...
0FB0: 00 80 47 01 01 F1 0F 02  23 00 BB 80 80 E5 0F 02  ..G.....#.......
0FC0: 1C 00 00 80 80 D6 0F 47  00 51 80 52 80 94 80 00  .......G.Q.R....
0FD0: 80 47 01 01 E2 0F 47 00  BC 80 BD 80 BE 80 BF 80  .G....G.........
0FE0: 47 01 01 F1 0F 47 00 51  80 52 80 94 80 00 80 47  G....G.Q.R.....G
0FF0: 01 38 5C 80 02 1A 00 30  80 00 FF 0F 01 1A 10 02  .8\....0........
1000: 1A 00 04 80 00 CA 10 1C  54 80 24 7A 80 04 80 00  ........T.$z....
1010: 80 25 02 00 10 00 80 00  CA 10 02 23 00 7F 80 00  .%.........#....
1020: 86 10 02 24 00 00 80 80  34 10 36 A7 80 A8 80 A9  ...$....4.6.....
1030: 80 01 83 10 02 24 00 04  80 80 46 10 36 AB 80 AC  .....$....F.6...
1040: 80 AD 80 01 83 10 02 24  00 30 80 80 58 10 36 AF  .......$.0..X.6.
1050: 80 B0 80 B1 80 01 83 10  02 24 00 3D 80 80 6A 10  .........$.=..j.
1060: 36 B3 80 B4 80 B5 80 01  83 10 02 24 00 4B 80 80  6..........$.K..
1070: 7C 10 36 B7 80 B8 80 B9  80 01 83 10 36 51 80 52  |.6.........6Q.R
1080: 80 94 80 01 8F 10 37 51  80 52 80 94 80 00 80 80  ......7Q.R......
1090: F0 FF FF 7F 62 30 80 F0  FF FF 7F F0 FF FF 7F 6D  ....b0.........m
10A0: 61 69 6E 00 80 45 05 80  F0 FF FF 7F F0 FF FF 7F  ain..E..........
10B0: 66 64 69 32 00 80 46 02  16 00 02 16 00 00 80 00  fdi2..F.........
10C0: C4 10 46 00 01 F1 10 01  CA 10 02 1A 00 56 80 04  ..F..........V..
10D0: E3 10 5C 00 7B 80 5C 01  7B 80 5C 02 7B 80 5C 03  ..\.{.\.{.\.{.\.
10E0: 7B 80 9A 1A FB 13 02 1A  00 00 80 03 F1 10 01 52  {..............R
10F0: 11 03 05 10 1E 00 02 05  10 00 80 02 52 11 02 05  ............R...
1100: 10 78 80 04 19 11 3F 04  10 05 10 78 80 15 05 10  .x....?....x....
1110: 78 80 48 C0 80 23 01 1D  11 48 C1 80 23 02 1E 00  x.H..#...H..#...
1120: 1D 00 05 31 11 03 07 10  1C 00 48 C2 80 23 01 52  ...1......H..#.R
1130: 11 02 1D 00 78 80 04 4D  11 03 05 10 1D 00 3F 04  ....x..M......?.
1140: 10 05 10 78 80 15 05 10  78 80 01 52 11 03 05 10  ...x....x..R....
1150: 1D 00 02 1B 00 00 80 00  6A 11 5C 00 00 80 5C 01  ........j.\...\.
1160: 00 80 5C 02 7B 80 5C 03  7B 80 02 1A 00 00 80 03  ..\.{.\.{.......
1170: 93 11 45 05 80 F0 FF FF  7F F0 FF FF 7F 66 64 69  ..E..........fdi
1180: 32 00 80 5C 00 00 80 5C  01 00 80 5C 02 7B 80 5C  2..\...\...\.{.\
1190: 03 7B 80 06 1B 00 45 7E  80 F0 FF FF 7F F0 FF FF  .{....E~........
11A0: 7F 77 68 69 31 00 80 45  05 80 F0 FF FF 7F F0 FF  .whi1..E........
11B0: FF 7F 62 6C 6F 66 00 80  21 00                    ..blof..!.      
```

#### Opcodes

```
  0: 0x0E87 [0x79] LocalPlayer looks at LocalPlayer (Basic look)
  1: 0x0E91 [0x03] ExtData[1]->WorkLocal[36] = Work_Zone[2]
  2: 0x0E96 [0x03] ExtData[1]->WorkLocal[29] = Work_Zone[3]
  3: 0x0E9B [0x03] ExtData[1]->WorkLocal[30] = Work_Zone[5]
  4: 0x0EA0 [0x03] ExtData[1]->WorkLocal[35] = Work_Zone[6]
  5: 0x0EA5 [0x03] ExtData[1]->WorkLocal[28] = Work_Zone[7]
  6: 0x0EAA [0x03] ExtData[1]->WorkLocal[26] = Work_Zone[8]
  7: 0x0EAF [0x03] ExtData[1]->WorkLocal[31] = Work_Zone[9]
  8: 0x0EB4 [0x20] SET_CLI_EVENT_UC_FLAG: Lock player control
  9: 0x0EB6 [0x42] SET_CLI_EVENT_CANCEL_DATA()
 10: 0x0EB7 [0x3B] GET_ENTITY_POSITION(entity=LocalPlayer, x_destination=Work_Zone[32], y_destination=Work_Zone[33], z_destination=Work_Zone[34])
 11: 0x0EC2 [0x3A] CONVERT_YAW_TO_BYTE(entity=LocalPlayer, result_destination=Work_Zone[35])
 12: 0x0EC9 [0x02] IF !(ExtData[1]->WorkLocal[35] == 180*) GOTO 0x0ED4
 13: 0x0ED1 [0x1C] WAIT(300* ticks)
 14: 0x0ED4 [0x45] LOAD_SCHEDULED_TASK: Load scheduler "whi1" with entities [LocalPlayer, LocalPlayer], work=[201*, 0*]
 15: 0x0EE5 [0x45] LOAD_SCHEDULED_TASK: Load scheduler "blof" with entities [LocalPlayer, LocalPlayer], work=[200*, 0*]
 16: 0x0EF6 [0x45] LOAD_SCHEDULED_TASK: Load scheduler "fdo1" with entities [LocalPlayer, LocalPlayer], work=[200*, 0*]
 17: 0x0F07 [0x55] WAIT_LOAD_SCHEDULER: Wait for scheduler "fdo1" with entities [LocalPlayer, LocalPlayer], work=200*
 18: 0x0F16 [0x6C] FADE_ENTITY_COLOR(entity_id=LocalPlayer, end_alpha=128*, fade_time=1*)
 19: 0x0F1F [0x06] Work_Zone[1] = 0
 20: 0x0F22 [0x02] IF !(ExtData[1]->WorkLocal[26] >= 0*) GOTO 0x0F2D
 21: 0x0F2A [0x01] GOTO 0x0FF1
 22: 0x0F2D [0x02] IF !(ExtData[1]->WorkLocal[35] == 180*) GOTO 0x0FB7
 23: 0x0F35 [0x02] IF !(ExtData[1]->WorkLocal[36] == 0*) GOTO 0x0F4C
 24: 0x0F3D [0x47] UPDATE_PLAYER_POS(-618.329*, -643.868*, -25.805*, yaw=330.5°*)
 25: 0x0F47 [0x47] WAIT_PLAYER_POS_UPDATE
 26: 0x0F49 [0x01] GOTO 0x0FB4
 27: 0x0F4C [0x02] IF !(ExtData[1]->WorkLocal[36] == 1*) GOTO 0x0F63
 28: 0x0F54 [0x47] UPDATE_PLAYER_POS(-332.163*, -441.914*, -95.055*, yaw=330.5°*)
 29: 0x0F5E [0x47] WAIT_PLAYER_POS_UPDATE
 30: 0x0F60 [0x01] GOTO 0x0FB4
 31: 0x0F63 [0x02] IF !(ExtData[1]->WorkLocal[36] == 2*) GOTO 0x0F7A
 32: 0x0F6B [0x47] UPDATE_PLAYER_POS(-12.464*, -648.377*, -194.629*, yaw=331.3°*)
 33: 0x0F75 [0x47] WAIT_PLAYER_POS_UPDATE
 34: 0x0F77 [0x01] GOTO 0x0FB4
 35: 0x0F7A [0x02] IF !(ExtData[1]->WorkLocal[36] == 3*) GOTO 0x0F91
 36: 0x0F82 [0x47] UPDATE_PLAYER_POS(323.381*, -443.793*, -108.440*, yaw=329.1°*)
 37: 0x0F8C [0x47] WAIT_PLAYER_POS_UPDATE
 38: 0x0F8E [0x01] GOTO 0x0FB4
 39: 0x0F91 [0x02] IF !(ExtData[1]->WorkLocal[36] == 4*) GOTO 0x0FA8
 40: 0x0F99 [0x47] UPDATE_PLAYER_POS(599.907*, -676.969*, -22.473*, yaw=330.7°*)
 41: 0x0FA3 [0x47] WAIT_PLAYER_POS_UPDATE
 42: 0x0FA5 [0x01] GOTO 0x0FB4
 43: 0x0FA8 [0x47] UPDATE_PLAYER_POS(500.000*, -20.000*, -226.000*, yaw=0.0°*)
 44: 0x0FB2 [0x47] WAIT_PLAYER_POS_UPDATE

SUBROUTINE_0FB4:
 45: 0x0FB4 [0x01] GOTO 0x0FF1
 46: 0x0FB7 [0x02] IF !(ExtData[1]->WorkLocal[35] == 168*) GOTO 0x0FE5
 47: 0x0FBF [0x02] IF !(ExtData[1]->WorkLocal[28] == 0*) GOTO 0x0FD6
 48: 0x0FC7 [0x47] UPDATE_PLAYER_POS(500.000*, -20.000*, -226.000*, yaw=0.0°*)
 49: 0x0FD1 [0x47] WAIT_PLAYER_POS_UPDATE
 50: 0x0FD3 [0x01] GOTO 0x0FE2
 51: 0x0FD6 [0x47] UPDATE_PLAYER_POS(200.059*, -21.958*, -0.250*, yaw=91.5°*)
 52: 0x0FE0 [0x47] WAIT_PLAYER_POS_UPDATE

SUBROUTINE_0FE2:
 53: 0x0FE2 [0x01] GOTO 0x0FF1
 54: 0x0FE5 [0x47] UPDATE_PLAYER_POS(500.000*, -20.000*, -226.000*, yaw=0.0°*)
 55: 0x0FEF [0x47] WAIT_PLAYER_POS_UPDATE

SUBROUTINE_0FF1:
 56: 0x0FF1 [0x38] SET_CLIENT_EVENT_MODE(mode=19*)
 57: 0x0FF4 [0x02] IF !(ExtData[1]->WorkLocal[26] == 2*) GOTO 0x0FFF
 58: 0x0FFC [0x01] GOTO 0x101A
 59: 0x0FFF [0x02] IF !(ExtData[1]->WorkLocal[26] == 1*) GOTO 0x10CA
 60: 0x1007 [0x1C] WAIT(15* ticks)
 61: 0x100A [0x24] CREATE_DIALOG(message_id=7601*, default_option=1*, option_flags=0*)
    → "Skip the event? [Yes./No.]"
 62: 0x1011 [0x25] WAIT_DIALOG_SELECT()
 63: 0x1012 [0x02] IF !(Work_Zone[0] == 0*) GOTO 0x10CA

SUBROUTINE_101A:
 64: 0x101A [0x02] IF !(ExtData[1]->WorkLocal[35] == 180*) GOTO 0x1086
 65: 0x1022 [0x02] IF !(ExtData[1]->WorkLocal[36] == 0*) GOTO 0x1034
 66: 0x102A [0x36] SET_ENTITY_EVENT_POSITION(pos_x=-618.329*, pos_z=-643.868*, pos_y=-25.805*)
 67: 0x1031 [0x01] GOTO 0x1083
 68: 0x1034 [0x02] IF !(ExtData[1]->WorkLocal[36] == 1*) GOTO 0x1046
 69: 0x103C [0x36] SET_ENTITY_EVENT_POSITION(pos_x=-332.163*, pos_z=-441.914*, pos_y=-95.055*)
 70: 0x1043 [0x01] GOTO 0x1083
 71: 0x1046 [0x02] IF !(ExtData[1]->WorkLocal[36] == 2*) GOTO 0x1058
 72: 0x104E [0x36] SET_ENTITY_EVENT_POSITION(pos_x=-12.464*, pos_z=-648.377*, pos_y=-194.629*)
 73: 0x1055 [0x01] GOTO 0x1083
 74: 0x1058 [0x02] IF !(ExtData[1]->WorkLocal[36] == 3*) GOTO 0x106A
 75: 0x1060 [0x36] SET_ENTITY_EVENT_POSITION(pos_x=323.381*, pos_z=-443.793*, pos_y=-108.440*)
 76: 0x1067 [0x01] GOTO 0x1083
 77: 0x106A [0x02] IF !(ExtData[1]->WorkLocal[36] == 4*) GOTO 0x107C
 78: 0x1072 [0x36] SET_ENTITY_EVENT_POSITION(pos_x=599.907*, pos_z=-676.969*, pos_y=-22.473*)
 79: 0x1079 [0x01] GOTO 0x1083
 80: 0x107C [0x36] SET_ENTITY_EVENT_POSITION(pos_x=500.000*, pos_z=-20.000*, pos_y=-226.000*)

SUBROUTINE_1083:
 81: 0x1083 [0x01] GOTO 0x108F
 82: 0x1086 [0x37] UPDATE_EVENT_POSITION_AND_DIR: x=500.000*, z=-20.000*, y=-226.000*, direction=0.0°*

SUBROUTINE_108F:
 83: 0x108F [0x80] LOAD_WAIT(entity=LocalPlayer)
 84: 0x1094 [0x62] LOAD_EVENT_SCHEDULER: Load scheduler "main" with entities [LocalPlayer, LocalPlayer], work=[2*, 0*]
 85: 0x10A5 [0x45] LOAD_SCHEDULED_TASK: Load scheduler "fdi2" with entities [LocalPlayer, LocalPlayer], work=[200*, 0*]
 86: 0x10B6 [0x46] CAMERA_CONTROL: Query status
 87: 0x10B8 [0x16] 0x0200 = sin(ExtData[1]->WorkLocal[22]) * 0*
 88: 0x10BF [0x00] END_REQSTACK()

SUBROUTINE_111D:
 89: 0x111D [0x02] IF !(ExtData[1]->WorkLocal[30] > ExtData[1]->WorkLocal[29]) GOTO 0x1131
 90: 0x1125 [0x03] Work_Zone[7] = ExtData[1]->WorkLocal[28]
 91: 0x112A [0x48] [System] [7635*]:
    → "You have broken the clear time record for "[[The Rider Cometh/Unwavering Resolve/A Stygian Pact]/]"!"
 92: 0x112D [0x23] WAIT_FOR_DIALOG_INTERACTION
 93: 0x112E [0x01] GOTO 0x1152
 94: 0x1131 [0x02] IF !(ExtData[1]->WorkLocal[29] < 60*) GOTO 0x114D
 95: 0x1139 [0x03] Work_Zone[5] = ExtData[1]->WorkLocal[29]
 96: 0x113E [0x3F] Work_Zone[4] = Work_Zone[5] % 60*
 97: 0x1145 [0x15] Work_Zone[5] /= 60*
 98: 0x114A [0x01] GOTO 0x1152
 99: 0x114D [0x03] Work_Zone[5] = ExtData[1]->WorkLocal[29]

SUBROUTINE_1152:
100: 0x1152 [0x02] IF !(ExtData[1]->WorkLocal[27] == 0*) GOTO 0x116A
101: 0x115A [0x5C] MUSIC_CONTROL: Set Idle (Day) music to song 0*
102: 0x115E [0x5C] MUSIC_CONTROL: Set Idle (Night) music to song 0*
103: 0x1162 [0x5C] MUSIC_CONTROL: Set Combat (Solo) music to song 143*
104: 0x1166 [0x5C] MUSIC_CONTROL: Set Combat (Party) music to song 143*
105: 0x116A [0x02] IF !(ExtData[1]->WorkLocal[26] >= 0*) GOTO 0x1193
106: 0x1172 [0x45] LOAD_SCHEDULED_TASK: Load scheduler "fdi2" with entities [LocalPlayer, LocalPlayer], work=[200*, 0*]
107: 0x1183 [0x5C] MUSIC_CONTROL: Set Idle (Day) music to song 0*
108: 0x1187 [0x5C] MUSIC_CONTROL: Set Idle (Night) music to song 0*
109: 0x118B [0x5C] MUSIC_CONTROL: Set Combat (Solo) music to song 143*
110: 0x118F [0x5C] MUSIC_CONTROL: Set Combat (Party) music to song 143*
111: 0x1193 [0x06] ExtData[1]->WorkLocal[27] = 0
112: 0x1196 [0x45] LOAD_SCHEDULED_TASK: Load scheduler "whi1" with entities [LocalPlayer, LocalPlayer], work=[201*, 0*]
113: 0x11A7 [0x45] LOAD_SCHEDULED_TASK: Load scheduler "blof" with entities [LocalPlayer, LocalPlayer], work=[200*, 0*]
114: 0x11B8 [0x21] END_EVENT
115: 0x11B9 [0x00] END_REQSTACK()
```

#### Data or dead code:

```
# Dead code (unreachable instructions):
     0x10C0 [0xC4] SCHEDULE_MAGIC_CASTING_ALT (arg=16): Unknown NPC (ID: 17887489/0x0110F101) casts magic ExtData[1]->WorkLocal[70] on Unknown NPC (ID: 436342986/0x1A0210CA)
```

### Event 32003

#### Metadata

| Field        | Value     |
|--------------|-----------|
| Entrypoint   | 0x11BA    |
| Data Size    | 435 bytes |
| Instructions | 77        |

```
      00 01 02 03 04 05 06 07  08 09 0A 0B 0C 0D 0E 0F
      -- -- -- -- -- -- -- --  -- -- -- -- -- -- -- --
11B0:                                06 20 00 06 21 00            . ..!.
11C0: 03 24 00 06 10 03 23 00  07 10 03 22 00 08 10 06  .$....#...."....
11D0: 01 10 1A 55 14 02 20 00  04 80 00 6B 13 42 03 01  ...U.. ....k.B..
11E0: 10 30 80 43 00 43 01 03  01 10 3D 80 43 00 43 01  .0.C.C....=.C.C.
11F0: 1A 6C 14 02 21 00 04 80  00 6B 13 45 05 80 F0 FF  .l..!....k.E....
1200: FF 7F F0 FF FF 7F 66 64  6F 31 00 80 55 05 80 F0  ......fdo1..U...
1210: FF FF 7F F0 FF FF 7F 66  64 6F 31 03 01 10 4B 80  .......fdo1...K.
1220: 02 23 00 7F 80 80 AA 12  02 24 00 00 80 80 3F 12  .#.......$....?.
1230: 47 00 80 80 81 80 82 80  83 80 47 01 01 A7 12 02  G.........G.....
1240: 24 00 04 80 80 56 12 47  00 84 80 85 80 86 80 87  $....V.G........
1250: 80 47 01 01 A7 12 02 24  00 30 80 80 6D 12 47 00  .G.....$.0..m.G.
1260: 88 80 89 80 8A 80 8B 80  47 01 01 A7 12 02 24 00  ........G.....$.
1270: 3D 80 80 84 12 47 00 8C  80 8D 80 8E 80 8F 80 47  =....G.........G
1280: 01 01 A7 12 02 24 00 4B  80 80 9B 12 47 00 90 80  .....$.K....G...
1290: 91 80 92 80 93 80 47 01  01 A7 12 47 00 51 80 52  ......G....G.Q.R
12A0: 80 94 80 00 80 47 01 01  29 13 02 23 00 65 80 80  .....G..)..#.e..
12B0: 1D 13 02 22 00 04 80 80  C9 12 47 00 95 80 96 80  ..."......G.....
12C0: 97 80 98 80 47 01 01 1A  13 02 22 00 30 80 80 E0  ....G.....".0...
12D0: 12 47 00 99 80 9A 80 9B  80 9C 80 47 01 01 1A 13  .G.........G....
12E0: 02 22 00 3D 80 80 F7 12  47 00 9D 80 9E 80 9F 80  .".=....G.......
12F0: A0 80 47 01 01 1A 13 02  22 00 4B 80 80 0E 13 47  ..G.....".K....G
1300: 00 A1 80 A2 80 A3 80 A4  80 47 01 01 1A 13 47 00  .........G....G.
1310: 51 80 52 80 94 80 00 80  47 01 01 29 13 47 00 51  Q.R.....G..).G.Q
1320: 80 52 80 94 80 00 80 47  01 38 5C 80 79 00 F0 FF  .R.....G.8\.y...
1330: FF 7F F0 FF FF 7F 1A 70  14 45 7E 80 F0 FF FF 7F  .......p.E~.....
1340: F0 FF FF 7F 77 68 69 31  00 80 45 05 80 F0 FF FF  ....whi1..E.....
1350: 7F F0 FF FF 7F 62 6C 6F  66 00 80 5C 00 00 80 5C  .....blof..\...\
1360: 01 00 80 5C 02 7B 80 5C  03 7B 80 21 00           ...\.{.\.{.!.   
```

#### Opcodes

```
  0: 0x11BA [0x06] ExtData[1]->WorkLocal[32] = 0
  1: 0x11BD [0x06] ExtData[1]->WorkLocal[33] = 0
  2: 0x11C0 [0x03] ExtData[1]->WorkLocal[36] = Work_Zone[6]
  3: 0x11C5 [0x03] ExtData[1]->WorkLocal[35] = Work_Zone[7]
  4: 0x11CA [0x03] ExtData[1]->WorkLocal[34] = Work_Zone[8]
  5: 0x11CF [0x06] Work_Zone[1] = 0
  6: 0x11D2 [0x1A] CALL_SUBROUTINE(address=0x1455)
  7: 0x11D5 [0x02] IF !(ExtData[1]->WorkLocal[32] == 1*) GOTO 0x136B
  8: 0x11DD [0x42] SET_CLI_EVENT_CANCEL_DATA()
  9: 0x11DE [0x03] Work_Zone[1] = 2*
 10: 0x11E3 [0x43] SEND_EVENT_UPDATE: Send pending tag to server (packet 0x005B)
 11: 0x11E5 [0x43] SEND_EVENT_UPDATE: Check pending flag (skip if not pending)
 12: 0x11E7 [0x03] Work_Zone[1] = 3*
 13: 0x11EC [0x43] SEND_EVENT_UPDATE: Send pending tag to server (packet 0x005B)
 14: 0x11EE [0x43] SEND_EVENT_UPDATE: Check pending flag (skip if not pending)
 15: 0x11F0 [0x1A] CALL_SUBROUTINE(address=0x146C)
 16: 0x11F3 [0x02] IF !(ExtData[1]->WorkLocal[33] == 1*) GOTO 0x136B
 17: 0x11FB [0x45] LOAD_SCHEDULED_TASK: Load scheduler "fdo1" with entities [LocalPlayer, LocalPlayer], work=[200*, 0*]
 18: 0x120C [0x55] WAIT_LOAD_SCHEDULER: Wait for scheduler "fdo1" with entities [LocalPlayer, LocalPlayer], work=200*
 19: 0x121B [0x03] Work_Zone[1] = 4*
 20: 0x1220 [0x02] IF !(ExtData[1]->WorkLocal[35] == 180*) GOTO 0x12AA
 21: 0x1228 [0x02] IF !(ExtData[1]->WorkLocal[36] == 0*) GOTO 0x123F
 22: 0x1230 [0x47] UPDATE_PLAYER_POS(-605.141*, 479.929*, -22.681*, yaw=87.2°*)
 23: 0x123A [0x47] WAIT_PLAYER_POS_UPDATE
 24: 0x123C [0x01] GOTO 0x12A7
 25: 0x123F [0x02] IF !(ExtData[1]->WorkLocal[36] == 1*) GOTO 0x1256
 26: 0x1247 [0x47] UPDATE_PLAYER_POS(-262.589*, 377.857*, -137.313*, yaw=305.3°*)
 27: 0x1251 [0x47] WAIT_PLAYER_POS_UPDATE
 28: 0x1253 [0x01] GOTO 0x12A7
 29: 0x1256 [0x02] IF !(ExtData[1]->WorkLocal[36] == 2*) GOTO 0x126D
 30: 0x125E [0x47] UPDATE_PLAYER_POS(18.348*, 486.940*, -224.334*, yaw=17.1°*)
 31: 0x1268 [0x47] WAIT_PLAYER_POS_UPDATE
 32: 0x126A [0x01] GOTO 0x12A7
 33: 0x126D [0x02] IF !(ExtData[1]->WorkLocal[36] == 3*) GOTO 0x1284
 34: 0x1275 [0x47] UPDATE_PLAYER_POS(231.593*, 360.094*, -173.572*, yaw=160.8°*)
 35: 0x127F [0x47] WAIT_PLAYER_POS_UPDATE
 36: 0x1281 [0x01] GOTO 0x12A7
 37: 0x1284 [0x02] IF !(ExtData[1]->WorkLocal[36] == 4*) GOTO 0x129B
 38: 0x128C [0x47] UPDATE_PLAYER_POS(553.664*, 523.939*, -38.205*, yaw=233.9°*)
 39: 0x1296 [0x47] WAIT_PLAYER_POS_UPDATE
 40: 0x1298 [0x01] GOTO 0x12A7
 41: 0x129B [0x47] UPDATE_PLAYER_POS(500.000*, -20.000*, -226.000*, yaw=0.0°*)
 42: 0x12A5 [0x47] WAIT_PLAYER_POS_UPDATE

SUBROUTINE_12A7:
 43: 0x12A7 [0x01] GOTO 0x1329
 44: 0x12AA [0x02] IF !(ExtData[1]->WorkLocal[35] == 6*) GOTO 0x131D
 45: 0x12B2 [0x02] IF !(ExtData[1]->WorkLocal[34] == 1*) GOTO 0x12C9
 46: 0x12BA [0x47] UPDATE_PLAYER_POS(-875.117*, -43.892*, -48.084*, yaw=45.1°*)
 47: 0x12C4 [0x47] WAIT_PLAYER_POS_UPDATE
 48: 0x12C6 [0x01] GOTO 0x131A
 49: 0x12C9 [0x02] IF !(ExtData[1]->WorkLocal[34] == 2*) GOTO 0x12E0
 50: 0x12D1 [0x47] UPDATE_PLAYER_POS(-755.499*, 563.947*, -112.035*, yaw=313.5°*)
 51: 0x12DB [0x47] WAIT_PLAYER_POS_UPDATE
 52: 0x12DD [0x01] GOTO 0x131A
 53: 0x12E0 [0x02] IF !(ExtData[1]->WorkLocal[34] == 3*) GOTO 0x12F7
 54: 0x12E8 [0x47] UPDATE_PLAYER_POS(123.251*, 754.209*, -172.124*, yaw=38.7°*)
 55: 0x12F2 [0x47] WAIT_PLAYER_POS_UPDATE
 56: 0x12F4 [0x01] GOTO 0x131A
 57: 0x12F7 [0x02] IF !(ExtData[1]->WorkLocal[34] == 4*) GOTO 0x130E
 58: 0x12FF [0x47] UPDATE_PLAYER_POS(-516.404*, -803.323*, 24.206*, yaw=38.4°*)
 59: 0x1309 [0x47] WAIT_PLAYER_POS_UPDATE
 60: 0x130B [0x01] GOTO 0x131A
 61: 0x130E [0x47] UPDATE_PLAYER_POS(500.000*, -20.000*, -226.000*, yaw=0.0°*)
 62: 0x1318 [0x47] WAIT_PLAYER_POS_UPDATE

SUBROUTINE_131A:
 63: 0x131A [0x01] GOTO 0x1329
 64: 0x131D [0x47] UPDATE_PLAYER_POS(500.000*, -20.000*, -226.000*, yaw=0.0°*)
 65: 0x1327 [0x47] WAIT_PLAYER_POS_UPDATE

SUBROUTINE_1329:
 66: 0x1329 [0x38] SET_CLIENT_EVENT_MODE(mode=19*)
 67: 0x132C [0x79] LocalPlayer looks at LocalPlayer (Basic look)
 68: 0x1336 [0x1A] CALL_SUBROUTINE(address=0x1470)
 69: 0x1339 [0x45] LOAD_SCHEDULED_TASK: Load scheduler "whi1" with entities [LocalPlayer, LocalPlayer], work=[201*, 0*]
 70: 0x134A [0x45] LOAD_SCHEDULED_TASK: Load scheduler "blof" with entities [LocalPlayer, LocalPlayer], work=[200*, 0*]
 71: 0x135B [0x5C] MUSIC_CONTROL: Set Idle (Day) music to song 0*
 72: 0x135F [0x5C] MUSIC_CONTROL: Set Idle (Night) music to song 0*
 73: 0x1363 [0x5C] MUSIC_CONTROL: Set Combat (Solo) music to song 143*
 74: 0x1367 [0x5C] MUSIC_CONTROL: Set Combat (Party) music to song 143*
 75: 0x136B [0x21] END_EVENT
 76: 0x136C [0x00] END_REQSTACK()
```

### Event 32004

#### Metadata

| Field        | Value      |
|--------------|------------|
| Entrypoint   | 0x136D     |
| Data Size    | 1239 bytes |
| Instructions | 2          |

```
      00 01 02 03 04 05 06 07  08 09 0A 0B 0C 0D 0E 0F
      -- -- -- -- -- -- -- --  -- -- -- -- -- -- -- --
1360:                                         21 00 24               !.$
1370: 5A 80 04 80 00 80 25 02  00 10 00 80 00 85 13 05  Z.....%.........
1380: 05 00 01 85 13 1B 79 00  F0 FF FF 7F F0 FF FF 7F  ......y.........
1390: 42 46 01 02 07 00 00 80  80 9E 13 01 9E 13 78 02  BF............x.
13A0: 04 00 04 80 80 B6 13 37  13 80 0E 80 2F 80 10 80  .......7..../...
13B0: 1A DF 15 01 F8 13 02 04  00 30 80 80 CD 13 37 00  .........0....7.
13C0: 80 00 80 00 80 00 80 1A  DF 15 01 F8 13 02 04 00  ................
13D0: 3D 80 80 E4 13 37 00 80  00 80 00 80 00 80 1A DF  =....7..........
13E0: 15 01 F8 13 02 04 00 4B  80 80 F8 13 37 00 80 00  .......K....7...
13F0: 80 00 80 00 80 01 F8 13  46 00 1B 02 1C 00 00 80  ........F.......
1400: 80 07 14 30 01 15 14 02  1C 00 04 80 80 15 14 1A  ...0............
1410: 18 14 01 15 14 46 00 1B  45 05 80 F0 FF FF 7F F0  .....F..E.......
1420: FF FF 7F 66 64 69 32 00  80 02 1A 00 56 80 01 42  ...fdi2.....V..B
1430: 14 62 30 80 F0 FF FF 7F  F0 FF FF 7F 6D 61 69 6E  .b0.........main
1440: 00 80 1C 01 80 55 05 80  F0 FF FF 7F F0 FF FF 7F  .....U..........
1450: 66 64 69 32 1B 24 C3 80  04 80 00 80 25 02 00 10  fdi2.$......%...
1460: 00 80 00 6B 14 05 20 00  01 6B 14 1B 05 21 00 1B  ...k.. ..k...!..
1470: 42 46 01 1A 05 15 1A DF  15 46 00 1B 46 01 1A DF  BF.......F..F...
1480: 15 46 00 1B 02 07 00 00  80 80 8F 14 01 8F 14 1B  .F..............
1490: 45 C4 80 F0 FF FF 7F F0  FF FF 7F 62 61 63 6B 00  E..........back.
14A0: 80 1B 45 05 80 F0 FF FF  7F F0 FF FF 7F 66 64 69  ..E..........fdi
14B0: 30 00 80 55 05 80 F0 FF  FF 7F F0 FF FF 7F 66 64  0..U..........fd
14C0: 69 30 1B 45 05 80 F0 FF  FF 7F F0 FF FF 7F 66 64  i0.E..........fd
14D0: 6F 30 00 80 55 05 80 F0  FF FF 7F F0 FF FF 7F 66  o0..U..........f
14E0: 64 6F 30 1B 45 05 80 F0  FF FF 7F F0 FF FF 7F 66  do0.E..........f
14F0: 64 69 31 00 80 55 05 80  F0 FF FF 7F F0 FF FF 7F  di1..U..........
1500: 66 64 69 31 1B 45 05 80  F0 FF FF 7F F0 FF FF 7F  fdi1.E..........
1510: 66 64 6F 31 00 80 55 05  80 F0 FF FF 7F F0 FF FF  fdo1..U.........
1520: 7F 66 64 6F 31 1B 45 7E  80 F0 FF FF 7F F0 FF FF  .fdo1.E~........
1530: 7F 77 68 69 31 00 80 55  7E 80 F0 FF FF 7F F0 FF  .whi1..U~.......
1540: FF 7F 77 68 69 31 1B 45  7E 80 F0 FF FF 7F F0 FF  ..whi1.E~.......
1550: FF 7F 77 68 6F 31 00 80  55 7E 80 F0 FF FF 7F F0  ..who1..U~......
1560: FF FF 7F 77 68 6F 31 1B  45 7E 80 F0 FF FF 7F F0  ...who1.E~......
1570: FF FF 7F 77 68 6F 32 00  80 55 7E 80 F0 FF FF 7F  ...who2..U~.....
1580: F0 FF FF 7F 77 68 6F 32  1B 45 7E 80 F0 FF FF 7F  ....who2.E~.....
1590: F0 FF FF 7F 77 68 6F 33  00 80 55 7E 80 F0 FF FF  ....who3..U~....
15A0: 7F F0 FF FF 7F 77 68 6F  33 1B 62 04 80 F0 FF FF  .....who3.b.....
15B0: 7F F0 FF FF 7F 6D 61 69  6E 00 80 1C C5 80 45 05  .....main.....E.
15C0: 80 F0 FF FF 7F F0 FF FF  7F 66 64 6F 31 00 80 55  .........fdo1..U
15D0: 05 80 F0 FF FF 7F F0 FF  FF 7F 66 64 6F 31 1B 45  ..........fdo1.E
15E0: 05 80 F0 FF FF 7F F0 FF  FF 7F 66 64 69 31 00 80  ..........fdi1..
15F0: 62 30 80 F0 FF FF 7F F0  FF FF 7F 6D 61 69 6E 00  b0.........main.
1600: 80 1C 01 80 55 05 80 F0  FF FF 7F F0 FF FF 7F 66  ....U..........f
1610: 64 69 31 1B 45 05 80 F0  FF FF 7F F0 FF FF 7F 62  di1.E..........b
1620: 6C 6F 6E 00 80 45 7E 80  F0 FF FF 7F F0 FF FF 7F  lon..E~.........
1630: 62 6C 6F 6E 00 80 1B 45  7E 80 F0 FF FF 7F F0 FF  blon...E~.......
1640: FF 7F 77 68 69 30 00 80  55 7E 80 F0 FF FF 7F F0  ..whi0..U~......
1650: FF FF 7F 77 68 69 30 1B  45 7E 80 F0 FF FF 7F F0  ...whi0.E~......
1660: FF FF 7F 77 68 6F 30 00  80 55 7E 80 F0 FF FF 7F  ...who0..U~.....
1670: F0 FF FF 7F 77 68 6F 30  1B 45 C6 80 F0 FF FF 7F  ....who0.E......
1680: F0 FF FF 7F 65 66 6F 6E  00 80 55 C6 80 F0 FF FF  ....efon..U.....
1690: 7F F0 FF FF 7F 65 66 6F  6E 1B 45 05 80 F0 FF FF  .....efon.E.....
16A0: 7F F0 FF FF 7F 66 64 69  73 00 80 1B 45 05 80 F0  .....fdis...E...
16B0: FF FF 7F F0 FF FF 7F 66  64 6F 73 00 80 55 05 80  .......fdos..U..
16C0: F0 FF FF 7F F0 FF FF 7F  66 64 6F 73 1B 45 05 80  ........fdos.E..
16D0: F0 FF FF 7F F0 FF FF 7F  66 64 69 66 00 80 1B 45  ........fdif...E
16E0: 05 80 F0 FF FF 7F F0 FF  FF 7F 66 64 6F 66 00 80  ..........fdof..
16F0: 55 05 80 F0 FF FF 7F F0  FF FF 7F 66 64 6F 66 1B  U..........fdof.
1700: 45 05 80 F0 FF FF 7F F0  FF FF 7F 66 64 69 70 00  E..........fdip.
1710: 80 1B 45 05 80 F0 FF FF  7F F0 FF FF 7F 66 64 6F  ..E..........fdo
