# Event 597

## Metadata

| Field           | Value    |
|-----------------|----------|
| Event Index     | 6/7      |
| Offset          | 0x028E   |
| Data Size       | 43 bytes |
| Calculated Size | 43 bytes |
| Instructions    | 13       |

```
      00 01 02 03 04 05 06 07  08 09 0A 0B 0C 0D 0E 0F
      -- -- -- -- -- -- -- --  -- -- -- -- -- -- -- --
0280:                                            1E F0                ..
0290: FF FF 7F 6F 70 66 0F 80  F8 FF FF 7F F8 FF FF 7F  ...opf..........
02A0: 74 6C 6B 30 1D 1F 80 23  1C 0F 80 1D 20 80 23 5E  tlk0...#.... .#^
02B0: 69 64 6C 30 1C 0F 80 21  00                       idl0...!.       
```

## Opcodes

```
  0: 0x028E [0x1E] EventEntity looks at LocalPlayer and starts talking
  1: 0x0293 [0x6F] WAIT_FRAME_DELAY: Yield until WaitTime reaches zero
  2: 0x0294 [0x70] WAIT_ENTITY_RENDER_FLAG: Wait while EventEntity->Render.Flags3 bit 2 is set (cancel turn if not)
  3: 0x0295 [0x66] LOAD_EXT_SCHEDULER_MAIN(work_offset=30*, entity1=EventEntity, entity2=EventEntity, action="tlk0")
  4: 0x02A4 [0x1D] PRINT_EVENT_MESSAGE(message_id=179*)
    → "Ahead lies the residential area. Proceed to your Rent-a-Room, foreigner!\u007F1\u0000\u0007"
  5: 0x02A7 [0x23] WAIT_FOR_DIALOG_INTERACTION
  6: 0x02A8 [0x1C] WAIT(30* ticks)
  7: 0x02AB [0x1D] PRINT_EVENT_MESSAGE(message_id=180*)
    → "If you're already renting here, you may come and go as you please, like the Mog House in your homeland.\u007F1\u0000\u0007"
  8: 0x02AE [0x23] WAIT_FOR_DIALOG_INTERACTION
  9: 0x02AF [0x5E] EventEntity goes idle (kills current action) (animation: "idl0")
 10: 0x02B4 [0x1C] WAIT(30* ticks)
 11: 0x02B7 [0x21] END_EVENT
 12: 0x02B8 [0x00] END_REQSTACK()
```
