# Event 206

## Metadata

| Field           | Value    |
|-----------------|----------|
| Event Index     | 6/6      |
| Offset          | 0x18B4   |
| Data Size       | 94 bytes |
| Calculated Size | 94 bytes |
| Instructions    | 8        |

```
      00 01 02 03 04 05 06 07  08 09 0A 0B 0C 0D 0E 0F
      -- -- -- -- -- -- -- --  -- -- -- -- -- -- -- --
18B0:             20 01 42 48  0B 81 23 45 1C 80 F8 FF       .BH..#E....
18C0: FF 7F F8 FF FF 7F 66 64  69 32 1B 80 20 00 21 00  ......fdi2.. .!.
18D0: 45 1C 80 F8 FF FF 7F F8  FF FF 7F 66 64 6F 31 1B  E..........fdo1.
18E0: 80 55 1C 80 F8 FF FF 7F  F8 FF FF 7F 66 64 6F 31  .U..........fdo1
18F0: 1B 45 1C 80 F8 FF FF 7F  F8 FF FF 7F 66 64 69 32  .E..........fdi2
1900: 1B 80 55 1C 80 F8 FF FF  7F F8 FF FF 7F 66 64 69  ..U..........fdi
1910: 32 1B                                             2.              
```

## Opcodes

```
  0: 0x18B4 [0x20] SET_CLI_EVENT_UC_FLAG: Lock player control
  1: 0x18B6 [0x42] SET_CLI_EVENT_CANCEL_DATA()
  2: 0x18B7 [0x48] [System] [7863*]:
    → "Make haste to the Pashhow Marshlands and seek the Knights of the Cardinal Stag.\u007F1\u0000\u0007"
  3: 0x18BA [0x23] WAIT_FOR_DIALOG_INTERACTION
  4: 0x18BB [0x45] LOAD_SCHEDULED_TASK: Load scheduler "fdi2" with entities [EventEntity, EventEntity], work=[200*, 0*]
  5: 0x18CC [0x20] SET_CLI_EVENT_UC_FLAG: Unlock player control
  6: 0x18CE [0x21] END_EVENT
  7: 0x18CF [0x00] END_REQSTACK()
```

## Data or dead code:

```
# Dead code (unreachable instructions):
     0x18D0 [0x45] LOAD_SCHEDULED_TASK: Load scheduler "fdo1" with entities [EventEntity, EventEntity], work=[200*, 0*]
     0x18E1 [0x55] WAIT_LOAD_SCHEDULER: Wait for scheduler "fdo1" with entities [EventEntity, EventEntity], work=200*
     0x18F0 [0x1B] RETURN
     0x18F1 [0x45] LOAD_SCHEDULED_TASK: Load scheduler "fdi2" with entities [EventEntity, EventEntity], work=[200*, 0*]
     0x1902 [0x55] WAIT_LOAD_SCHEDULER: Wait for scheduler "fdi2" with entities [EventEntity, EventEntity], work=200*
     0x1911 [0x1B] RETURN
```