# Event 65535

## Metadata

| Field           | Value    |
|-----------------|----------|
| Event Index     | 4/8      |
| Offset          | 0x0044   |
| Data Size       | 60 bytes |
| Calculated Size | 60 bytes |
| Instructions    | 14       |

```
      00 01 02 03 04 05 06 07  08 09 0A 0B 0C 0D 0E 0F
      -- -- -- -- -- -- -- --  -- -- -- -- -- -- -- --
0040:             24 05 80 01  80 01 80 25 02 00 10 01      $......%....
0050: 80 00 5C 00 03 01 10 06  80 01 7C 00 02 00 10 02  ..\.......|.....
0060: 80 00 6C 00 03 01 10 07  80 01 7C 00 02 00 10 03  ..l.......|.....
0070: 80 00 7C 00 03 01 10 08  80 01 7C 00 20 00 21 00  ..|.......|. .!.
```

## Opcodes

```
  0: 0x0044 [0x24] CREATE_DIALOG(message_id=7400*, default_option=0*, option_flags=0*)
    → "\u0001@\u0002G\u0002L\u0011\u0002V\u0008Z\u0010P\u0001H\u0007\u000B\u0003T\u0003\u0013\u0003h\u0003
\u0003A\u0007\u0003o\u0003X\u0003g\u0003D\u0001[\u0003N\u0007\u0003E\u0003B\u0003\u0013\u0003_\u0003X\u007F1\u0000\u0007"
  1: 0x004B [0x25] WAIT_DIALOG_SELECT()
  2: 0x004C [0x02] IF !(Work_Zone[0] == 0*) GOTO 0x005C
  3: 0x0054 [0x03] Work_Zone[1] = 102*
  4: 0x0059 [0x01] GOTO 0x007C

SUBROUTINE_005C:
  5: 0x005C [0x02] IF !(Work_Zone[0] == 1*) GOTO 0x006C
  6: 0x0064 [0x03] Work_Zone[1] = 103*
  7: 0x0069 [0x01] GOTO 0x007C

SUBROUTINE_006C:
  8: 0x006C [0x02] IF !(Work_Zone[0] == 2*) GOTO 0x007C
  9: 0x0074 [0x03] Work_Zone[1] = 104*
 10: 0x0079 [0x01] GOTO 0x007C

SUBROUTINE_007C:
 11: 0x007C [0x20] SET_CLI_EVENT_UC_FLAG: Unlock player control
 12: 0x007E [0x21] END_EVENT
 13: 0x007F [0x00] END_REQSTACK()
```
