# 17473703 - DIRECTOR

## Common Data

| Field            | Value                        |
|------------------|------------------------------|
| Zone             | Full Moon Fountain (ID: 170) |
| Block Size       | 18928 bytes                  |
| Total Events     | 9                            |
| References Count | 141                          |

## List of Events

| Event ID                 | Entrypoint   |   Size |   Instructions |
|--------------------------|--------------|--------|----------------|
| [65535](#event-65535)    | 0x0000       |      1 |              1 |
| [50](#event-50)          | 0x0001       |   2066 |            231 |
| [61](#event-61)          | 0x0813       |   3276 |            402 |
| [32000](#event-32000)    | 0x14DF       |      1 |              1 |
| [62](#event-62)          | 0x14E0       |   6373 |            764 |
| [32004](#event-32004)    | 0x2DC5       |      1 |              1 |
| [65535.1](#event-655351) | 0x2DC6       |   2448 |            305 |
| [32001](#event-32001)    | 0x3756       |      1 |              1 |
| [65535.2](#event-655352) | 0x3757       |   4143 |            492 |

## DAT References (imed_data)

|   Index | Hex Value   |   Dec Value |
|---------|-------------|-------------|
|       0 | 0x0000      |           0 |
|       1 | 0x00C8      |         200 |
|       2 | 0x0064      |         100 |
|       3 | 0x0013      |          19 |
|       4 | 0x0032      |          50 |
|       5 | 0x0046      |          70 |
|       6 | 0x001E      |          30 |
|       7 | 0x003C      |          60 |
|       8 | 0x1C45      |        7237 |
|       9 | 0x1C46      |        7238 |
|      10 | 0x0096      |         150 |
|      11 | 0x009D      |         157 |
|      12 | 0x007F      |         127 |
|      13 | 0x0001      |           1 |
|      14 | 0x005A      |          90 |
|      15 | 0x00B4      |         180 |
|      16 | 0xFFFED8AD  |  4294891693 |
|      17 | 0x1074D     |       67405 |
|      18 | 0x2ABB      |       10939 |
|      19 | 0x0278      |         632 |
|      20 | 0xFFFF4E2E  |  4294921774 |
|      21 | 0x10632     |       67122 |
|      22 | 0x2BA7      |       11175 |
|      23 | 0x0D85      |        3461 |
|      24 | 0x00C9      |         201 |
|      25 | 0x0078      |         120 |
|      26 | 0x1C3C      |        7228 |
|      27 | 0x0003      |           3 |
|      28 | 0x0008      |           8 |
|      29 | 0x00AA      |         170 |
|      30 | 0x000A      |          10 |
|      31 | 0x1C40      |        7232 |
|      32 | 0x0004      |           4 |
|      33 | 0x0005      |           5 |
|      34 | 0x0006      |           6 |
|      35 | 0x1C43      |        7235 |
|      36 | 0x0014      |          20 |
|      37 | 0x00F0      |         240 |
|      38 | 0x1C47      |        7239 |
|      39 | 0x1C48      |        7240 |
|      40 | 0x1C49      |        7241 |
|      41 | 0x1C4A      |        7242 |
|      42 | 0x1C4B      |        7243 |
|      43 | 0x1C4C      |        7244 |
|      44 | 0x0C27      |        3111 |
|      45 | 0x1C4D      |        7245 |
|      46 | 0x1C4E      |        7246 |
|      47 | 0x1C4F      |        7247 |
|      48 | 0x1C50      |        7248 |
|      49 | 0x1C51      |        7249 |
|      50 | 0x1C52      |        7250 |
|      51 | 0x1C54      |        7252 |
|      52 | 0x1C55      |        7253 |
|      53 | 0x1C56      |        7254 |
|      54 | 0x1C57      |        7255 |
|      55 | 0x1C58      |        7256 |
|      56 | 0x1C59      |        7257 |
|      57 | 0x1C5A      |        7258 |
|      58 | 0x002D      |          45 |
|      59 | 0x1C5B      |        7259 |
|      60 | 0x1C5D      |        7261 |
|      61 | 0x1C5E      |        7262 |
|      62 | 0x1C5F      |        7263 |
|      63 | 0x1C60      |        7264 |
|      64 | 0x1C61      |        7265 |
|      65 | 0x1C62      |        7266 |
|      66 | 0x1C65      |        7269 |
|      67 | 0x1C66      |        7270 |
|      68 | 0x1C67      |        7271 |
|      69 | 0x1C68      |        7272 |
|      70 | 0x1C69      |        7273 |
|      71 | 0x1C6A      |        7274 |
|      72 | 0x1C6B      |        7275 |
|      73 | 0x1C6C      |        7276 |
|      74 | 0x1C6D      |        7277 |
|      75 | 0x1C6E      |        7278 |
|      76 | 0x1C6F      |        7279 |
|      77 | 0x1C70      |        7280 |
|      78 | 0x1C71      |        7281 |
|      79 | 0x00F8      |         248 |
|      80 | 0x1C72      |        7282 |
|      81 | 0x1C73      |        7283 |
|      82 | 0x0028      |          40 |
|      83 | 0x1C74      |        7284 |
|      84 | 0x1C75      |        7285 |
|      85 | 0x1C76      |        7286 |
|      86 | 0x1C77      |        7287 |
|      87 | 0x1C78      |        7288 |
|      88 | 0x1C79      |        7289 |
|      89 | 0x1C7A      |        7290 |
|      90 | 0x0800      |        2048 |
|      91 | 0x00A0      |         160 |
|      92 | 0x0C00      |        3072 |
|      93 | 0x1C7B      |        7291 |
|      94 | 0x1C7C      |        7292 |
|      95 | 0x1C7D      |        7293 |
|      96 | 0x0007      |           7 |
|      97 | 0x1C7E      |        7294 |
|      98 | 0x1C7F      |        7295 |
|      99 | 0x0025      |          37 |
|     100 | 0x00CA      |         202 |
|     101 | 0x012C      |         300 |
|     102 | 0x01F4      |         500 |
|     103 | 0x0190      |         400 |
|     104 | 0x00C1      |         193 |
|     105 | 0x0002      |           2 |
|     106 | 0x1C80      |        7296 |
|     107 | 0x1C81      |        7297 |
|     108 | 0x1C82      |        7298 |
|     109 | 0x0CF9      |        3321 |
|     110 | 0x0DB2      |        3506 |
|     111 | 0x0C43      |        3139 |
|     112 | 0x002C      |          44 |
|     113 | 0x00E2      |         226 |
|     114 | 0x004A      |          74 |
|     115 | 0x1C83      |        7299 |
|     116 | 0x1C84      |        7300 |
|     117 | 0x0050      |          80 |
|     118 | 0x1C85      |        7301 |
|     119 | 0x002E      |          46 |
|     120 | 0x1C86      |        7302 |
|     121 | 0x0027      |          39 |
|     122 | 0x000F      |          15 |
|     123 | 0x0024      |          36 |
|     124 | 0x1C87      |        7303 |
|     125 | 0x1C88      |        7304 |
|     126 | 0x009F      |         159 |
|     127 | 0x1C89      |        7305 |
|     128 | 0x1C8A      |        7306 |
|     129 | 0x1C8B      |        7307 |
|     130 | 0x1C8C      |        7308 |
|     131 | 0x001F      |          31 |
|     132 | 0x1C8D      |        7309 |
|     133 | 0x1C8E      |        7310 |
|     134 | 0x1C8F      |        7311 |
|     135 | 0x1C90      |        7312 |
|     136 | 0x1C91      |        7313 |
|     137 | 0x0258      |         600 |
|     138 | 0x1C92      |        7314 |
|     139 | 0x00FA      |         250 |
|     140 | 0x1C93      |        7315 |

## String References

- **7256**: Yes, that is the kind of determination you need...
- **7300**: Un$26GH...!
- **7315**: ...The people of Vana'diel. They are the force that will shape the future.

## Events

### Event 65535

#### Metadata

| Field        | Value   |
|--------------|---------|
| Entrypoint   | 0x0000  |
| Data Size    | 1 bytes |
| Instructions | 1       |

```
      00 01 02 03 04 05 06 07  08 09 0A 0B 0C 0D 0E 0F
      -- -- -- -- -- -- -- --  -- -- -- -- -- -- -- --
0000: 00                                                .               
```

#### Opcodes

```
  0: 0x0000 [0x00] END_REQSTACK()
```

### Event 50

#### Metadata

| Field        | Value      |
|--------------|------------|
| Entrypoint   | 0x0001     |
| Data Size    | 2066 bytes |
| Instructions | 231        |

```
      00 01 02 03 04 05 06 07  08 09 0A 0B 0C 0D 0E 0F
      -- -- -- -- -- -- -- --  -- -- -- -- -- -- -- --
0000:    20 01 42 46 01 5D 00  80 01 80 1C 02 80 38 03    .BF.].......8.
0010: 80 29 08 F0 FF FF 7F 11  29 0B 9D A0 0A 01 24 29  .)......).....$)
0020: 0B F0 FF FF 7F 0A 4E 00  9D A0 0A 01 4E 00 F0 FF  ......N.....N...
0030: FF 7F 80 9D A0 0A 01 80  F0 FF FF 7F 1C 04 80 45  ...............E
0040: 05 80 F0 FF FF 7F F0 FF  FF 7F 73 30 31 33 00 80  ..........s013..
0050: 45 01 80 F0 FF FF 7F F0  FF FF 7F 66 64 69 31 00  E..........fdi1.
0060: 80 79 00 F0 FF FF 7F 9D  A0 0A 01 1C 06 80 27 0B  .y............'.
0070: F0 FF FF 7F 0D 1C 07 80  4A 9D A0 0A 01 F0 FF FF  ........J.......
0080: 7F 6F 76 9D A0 0A 01 2A  0B F0 FF FF 7F 1C 07 80  .ov....*........
0090: 52 05 80 F0 FF FF 7F F0  FF FF 7F 73 30 31 33 45  R..........s013E
00A0: 01 80 F0 FF FF 7F F0 FF  FF 7F 6F 76 6C 31 00 80  ..........ovl1..
00B0: 45 05 80 F0 FF FF 7F F0  FF FF 7F 73 30 35 33 00  E..........s053.
00C0: 80 27 0B 9D A0 0A 01 26  2B 9D A0 0A 01 08 80 23  .'.....&+......#
00D0: 2A 0B 9D A0 0A 01 2B 9D  A0 0A 01 09 80 23 45 01  *.....+......#E.
00E0: 80 F0 FF FF 7F F0 FF FF  7F 66 64 6F 31 00 80 1C  .........fdo1...
00F0: 0A 80 5C 00 0B 80 5C 01  0B 80 5D 0C 80 0D 80 52  ..\...\...]....R
0100: 05 80 F0 FF FF 7F F0 FF  FF 7F 73 30 35 33 2D F0  ..........s053-.
0110: FF FF 7F F0 FF FF 7F 6B  69 6C 68 2D F0 FF FF 7F  .......kilh-....
0120: F0 FF FF 7F 6B 69 6C 69  2D F0 FF FF 7F F0 FF FF  ....kili-.......
0130: 7F 68 61 65 64 29 08 AC  A0 0A 01 02 29 0B 9D A0  .haed)......)...
0140: 0A 01 21 29 0B F0 FF FF  7F 08 29 0B 9E A0 0A 01  ..!)......).....
0150: 13 27 0B 9D A0 0A 01 22  27 0B F0 FF FF 7F 0B 45  .'....."'......E
0160: 05 80 F0 FF FF 7F F0 FF  FF 7F 73 30 30 30 00 80  ..........s000..
0170: 45 01 80 F0 FF FF 7F F0  FF FF 7F 66 64 69 31 00  E..........fdi1.
0180: 80 1C 02 80 52 05 80 F0  FF FF 7F F0 FF FF 7F 73  ....R..........s
0190: 30 30 30 45 05 80 F0 FF  FF 7F F0 FF FF 7F 73 30  000E..........s0
01A0: 30 31 00 80 1C 0E 80 52  05 80 F0 FF FF 7F F0 FF  01.....R........
01B0: FF 7F 73 30 30 31 45 05  80 F0 FF FF 7F F0 FF FF  ..s001E.........
01C0: 7F 73 30 30 32 00 80 1C  0F 80 45 01 80 F0 FF FF  .s002.....E.....
01D0: 7F F0 FF FF 7F 66 64 6F  31 00 80 1C 07 80 52 05  .....fdo1.....R.
01E0: 80 F0 FF FF 7F F0 FF FF  7F 73 30 30 32 2A 0B F0  .........s002*..
01F0: FF FF 7F 2A 0B 9D A0 0A  01 29 0B F0 FF FF 7F 09  ...*.....)......
0200: 45 05 80 F0 FF FF 7F F0  FF FF 7F 73 30 30 37 00  E..........s007.
0210: 80 45 01 80 F0 FF FF 7F  F0 FF FF 7F 66 64 69 31  .E..........fdi1
0220: 00 80 37 10 80 11 80 12  80 13 80 79 00 9D A0 0A  ..7........y....
0230: 01 A7 A0 0A 01 29 0B 9D  A0 0A 01 27 1C 07 80 37  .....).....'...7
0240: 14 80 15 80 16 80 17 80  79 00 9D A0 0A 01 A7 A0  ........y.......
0250: 0A 01 1C 07 80 7B 9D A0  0A 01 55 05 80 F0 FF FF  .....{....U.....
0260: 7F F0 FF FF 7F 73 30 30  37 45 01 80 F0 FF FF 7F  .....s007E......
0270: F0 FF FF 7F 6F 76 6C 31  00 80 45 01 80 F0 FF FF  ....ovl1..E.....
0280: 7F F0 FF FF 7F 62 6C 6F  6E 00 80 45 18 80 F0 FF  .....blon..E....
0290: FF 7F F0 FF FF 7F 62 6C  6F 6E 00 80 45 05 80 F0  ......blon..E...
02A0: FF FF 7F F0 FF FF 7F 73  30 30 33 00 80 1C 19 80  .......s003.....
02B0: 45 18 80 F0 FF FF 7F F0  FF FF 7F 77 68 6F 31 00  E..........who1.
02C0: 80 1C 02 80 45 01 80 F0  FF FF 7F F0 FF FF 7F 62  ....E..........b
02D0: 6C 6F 66 00 80 45 01 80  F0 FF FF 7F F0 FF FF 7F  lof..E..........
02E0: 66 64 6F 31 00 80 52 05  80 F0 FF FF 7F F0 FF FF  fdo1..R.........
02F0: 7F 73 30 30 33 1C 01 80  45 05 80 F0 FF FF 7F F0  .s003...E.......
0300: FF FF 7F 73 30 30 34 00  80 45 01 80 F0 FF FF 7F  ...s004..E......
0310: F0 FF FF 7F 66 64 69 31  00 80 45 18 80 F0 FF FF  ....fdi1..E.....
0320: 7F F0 FF FF 7F 77 68 69  31 00 80 27 0B F0 FF FF  .....whi1..'....
0330: 7F 0C 27 0B 9D A0 0A 01  23 2B 9D A0 0A 01 1A 80  ..'.....#+......
0340: 23 2A 0B 9D A0 0A 01 29  0B 9D A0 0A 01 28 52 05  #*.....).....(R.
0350: 80 F0 FF FF 7F F0 FF FF  7F 73 30 30 34 45 05 80  .........s004E..
0360: F0 FF FF 7F F0 FF FF 7F  73 30 30 35 00 80 5D 00  ........s005..].
0370: 80 01 80 79 00 F0 FF FF  7F 9D A0 0A 01 29 08 9D  ...y.........)..
0380: A0 0A 01 09 29 0B 9D A0  0A 01 29 29 08 9D A0 0A  ....).....))....
0390: 01 0A 52 05 80 F0 FF FF  7F F0 FF FF 7F 73 30 30  ..R..........s00
03A0: 35 02 09 10 1B 80 00 BD  03 45 05 80 F0 FF FF 7F  5........E......
03B0: F0 FF FF 7F 73 30 34 39  00 80 01 EA 03 02 09 10  ....s049........
03C0: 1C 80 00 D9 03 45 05 80  F0 FF FF 7F F0 FF FF 7F  .....E..........
03D0: 73 30 34 39 00 80 01 EA  03 45 05 80 F0 FF FF 7F  s049.....E......
03E0: F0 FF FF 7F 73 30 31 32  00 80 29 08 9D A0 0A 01  ....s012..).....
03F0: 0B 29 0B 9D A0 0A 01 2A  29 08 9D A0 0A 01 0C 5C  .).....*)......\
0400: 00 1D 80 5C 01 1D 80 5D  0C 80 0D 80 1C 02 80 4E  ...\...].......N
0410: 00 9E A0 0A 01 4E 00 97  A0 0A 01 4E 00 98 A0 0A  .....N.....N....
0420: 01 4E 00 99 A0 0A 01 4E  00 9A A0 0A 01 4E 00 9B  .N.....N.....N..
0430: A0 0A 01 27 0B 9E A0 0A  01 14 27 0B 9B A0 0A 01  ...'......'.....
0440: 1A 27 0B 9A A0 0A 01 1A  27 0B 99 A0 0A 01 1A 27  .'......'......'
0450: 0B 98 A0 0A 01 1A 27 0B  97 A0 0A 01 1A 1C 1E 80  ......'.........
0460: 02 09 10 1B 80 00 7A 04  52 05 80 F0 FF FF 7F F0  ......z.R.......
0470: FF FF 7F 73 30 34 39 01  A3 04 02 09 10 1C 80 00  ...s049.........
0480: 94 04 52 05 80 F0 FF FF  7F F0 FF FF 7F 73 30 34  ..R..........s04
0490: 39 01 A3 04 52 05 80 F0  FF FF 7F F0 FF FF 7F 73  9...R..........s
04A0: 30 31 32 45 05 80 F0 FF  FF 7F F0 FF FF 7F 73 30  012E..........s0
04B0: 30 38 00 80 45 18 80 F0  FF FF 7F F0 FF FF 7F 62  08..E..........b
04C0: 6C 6F 6E 00 80 4A 9D A0  0A 01 9E A0 0A 01 4A F0  lon..J........J.
04D0: FF FF 7F 9E A0 0A 01 2B  9E A0 0A 01 1F 80 23 1C  .......+......#.
04E0: 0E 80 2C 9E A0 0A 01 9E  A0 0A 01 77 6F 6E 34 52  ..,........won4R
04F0: 05 80 F0 FF FF 7F F0 FF  FF 7F 73 30 30 38 45 01  ..........s008E.
0500: 80 F0 FF FF 7F F0 FF FF  7F 6F 76 6C 31 00 80 45  .........ovl1..E
0510: 05 80 F0 FF FF 7F F0 FF  FF 7F 73 30 31 30 00 80  ..........s010..
0520: 29 0B 9E A0 0A 01 16 52  05 80 F0 FF FF 7F F0 FF  )......R........
0530: FF 7F 73 30 31 30 4A F0  FF FF 7F 9D A0 0A 01 45  ..s010J........E
0540: 05 80 F0 FF FF 7F F0 FF  FF 7F 73 30 31 34 00 80  ..........s014..
0550: 29 08 9D A0 0A 01 01 29  0B 9D A0 0A 01 2B 29 08  )......).....+).
0560: 9D A0 0A 01 02 29 08 9D  A0 0A 01 03 29 08 9D A0  .....)......)...
0570: 0A 01 04 52 05 80 F0 FF  FF 7F F0 FF FF 7F 73 30  ...R..........s0
0580: 31 34 02 09 10 1B 80 00  9E 05 45 05 80 F0 FF FF  14........E.....
0590: 7F F0 FF FF 7F 73 30 35  30 00 80 01 1F 06 02 09  .....s050.......
05A0: 10 20 80 00 BA 05 45 05  80 F0 FF FF 7F F0 FF FF  . ....E.........
05B0: 7F 73 30 35 30 00 80 01  1F 06 02 09 10 21 80 00  .s050........!..
05C0: D6 05 45 05 80 F0 FF FF  7F F0 FF FF 7F 73 30 31  ..E..........s01
05D0: 37 00 80 01 1F 06 02 09  10 22 80 00 F2 05 45 05  7........"....E.
05E0: 80 F0 FF FF 7F F0 FF FF  7F 73 30 31 37 00 80 01  .........s017...
05F0: 1F 06 02 09 10 1C 80 00  0E 06 45 05 80 F0 FF FF  ..........E.....
0600: 7F F0 FF FF 7F 73 30 35  30 00 80 01 1F 06 45 05  .....s050.....E.
0610: 80 F0 FF FF 7F F0 FF FF  7F 73 30 31 35 00 80 4A  .........s015..J
0620: 9D A0 0A 01 F0 FF FF 7F  29 08 9E A0 0A 01 0A 2B  ........)......+
0630: 9D A0 0A 01 23 80 23 29  08 9E A0 0A 01 0B 02 09  ....#.#)........
0640: 10 1B 80 00 58 06 52 05  80 F0 FF FF 7F F0 FF FF  ....X.R.........
0650: 7F 73 30 35 30 01 CF 06  02 09 10 20 80 00 72 06  .s050...... ..r.
0660: 52 05 80 F0 FF FF 7F F0  FF FF 7F 73 30 35 30 01  R..........s050.
0670: CF 06 02 09 10 21 80 00  8C 06 52 05 80 F0 FF FF  .....!....R.....
0680: 7F F0 FF FF 7F 73 30 31  37 01 CF 06 02 09 10 22  .....s017......"
0690: 80 00 A6 06 52 05 80 F0  FF FF 7F F0 FF FF 7F 73  ....R..........s
06A0: 30 31 37 01 CF 06 02 09  10 1C 80 00 C0 06 52 05  017...........R.
06B0: 80 F0 FF FF 7F F0 FF FF  7F 73 30 35 30 01 CF 06  .........s050...
06C0: 52 05 80 F0 FF FF 7F F0  FF FF 7F 73 30 31 35 45  R..........s015E
06D0: 01 80 F0 FF FF 7F F0 FF  FF 7F 6F 76 6C 31 00 80  ..........ovl1..
06E0: 45 05 80 F0 FF FF 7F F0  FF FF 7F 73 30 30 39 00  E..........s009.
06F0: 80 2C 9D A0 0A 01 F0 FF  FF 7F 63 61 62 6B 1C 0E  .,........cabk..
0700: 80 52 05 80 F0 FF FF 7F  F0 FF FF 7F 73 30 30 39  .R..........s009
0710: 45 01 80 F0 FF FF 7F F0  FF FF 7F 6F 76 6C 31 00  E..........ovl1.
0720: 80 45 05 80 F0 FF FF 7F  F0 FF FF 7F 73 30 31 31  .E..........s011
0730: 00 80 29 0B 9E A0 0A 01  17 27 0B 97 A0 0A 01 19  ..)......'......
0740: 27 0B 9A A0 0A 01 19 27  0B 9B A0 0A 01 19 27 0B  '......'......'.
0750: 99 A0 0A 01 19 27 0B 98  A0 0A 01 19 1C 24 80 52  .....'.......$.R
0760: 05 80 F0 FF FF 7F F0 FF  FF 7F 73 30 31 31 45 05  ..........s011E.
0770: 80 F0 FF FF 7F F0 FF FF  7F 73 30 31 36 00 80 27  .........s016..'
0780: 0B 9E A0 0A 01 15 1C 07  80 5D 00 80 01 80 45 18  .........]....E.
0790: 80 F0 FF FF 7F F0 FF FF  7F 77 68 6F 31 00 80 1C  .........who1...
07A0: 01 80 52 05 80 F0 FF FF  7F F0 FF FF 7F 73 30 31  ..R..........s01
07B0: 36 5C 00 00 80 5C 01 00  80 5D 0C 80 0D 80 1C 02  6\...\...]......
07C0: 80 2D F0 FF FF 7F F0 FF  FF 7F 6B 69 6C 6B 2D F0  .-........kilk-.
07D0: FF FF 7F F0 FF FF 7F 69  7A 75 6D 2D F0 FF FF 7F  .......izum-....
07E0: F0 FF FF 7F 68 61 73 74  46 00 1C 02 80 45 18 80  ....hastF....E..
07F0: F0 FF FF 7F F0 FF FF 7F  77 68 69 31 00 80 45 18  ........whi1..E.
0800: 80 F0 FF FF 7F F0 FF FF  7F 71 73 74 63 00 80 20  .........qstc.. 
0810: 00 21 00                                          .!.             
```

#### Opcodes

```
  0: 0x0001 [0x20] SET_CLI_EVENT_UC_FLAG: Lock player control
  1: 0x0003 [0x42] SET_CLI_EVENT_CANCEL_DATA()
  2: 0x0004 [0x46] CAMERA_CONTROL: Disable user control
  3: 0x0006 [0x5D] SET_MUSIC_VOLUME(volume=0*, fade_time=200*)
  4: 0x000B [0x1C] WAIT(100* ticks)
  5: 0x000E [0x38] SET_CLIENT_EVENT_MODE(mode=19*)
  6: 0x0011 [0x29] REQ_SET_WAIT(priority=0x08, entity_id=LocalPlayer, tag_num=0x11)
  7: 0x0018 [0x29] REQ_SET_WAIT(priority=0x0B, entity_id=Ajido-Marujido (ID: 17473693/0x010AA09D), tag_num=0x24)
  8: 0x001F [0x29] REQ_SET_WAIT(priority=0x0B, entity_id=LocalPlayer, tag_num=0x0A)
  9: 0x0026 [0x4E] SET_ENTITY_HIDE_FLAG: Show Ajido-Marujido (ID: 17473693/0x010AA09D)
 10: 0x002C [0x4E] SET_ENTITY_HIDE_FLAG: Show LocalPlayer
 11: 0x0032 [0x80] LOAD_WAIT(entity=Ajido-Marujido (ID: 17473693/0x010AA09D))
 12: 0x0037 [0x80] LOAD_WAIT(entity=LocalPlayer)
 13: 0x003C [0x1C] WAIT(50* ticks)
 14: 0x003F [0x45] LOAD_SCHEDULED_TASK: Load scheduler "s013" with entities [LocalPlayer, LocalPlayer], work=[70*, 0*]
 15: 0x0050 [0x45] LOAD_SCHEDULED_TASK: Load scheduler "fdi1" with entities [LocalPlayer, LocalPlayer], work=[200*, 0*]
 16: 0x0061 [0x79] LocalPlayer looks at Ajido-Marujido (ID: 17473693/0x010AA09D) (Basic look)
 17: 0x006B [0x1C] WAIT(30* ticks)
 18: 0x006E [0x27] REQ_SET(priority=0x0B, entity_id=LocalPlayer, tag_num=0x0D)
 19: 0x0075 [0x1C] WAIT(60* ticks)
 20: 0x0078 [0x4A] Ajido-Marujido (ID: 17473693/0x010AA09D) looks at LocalPlayer
 21: 0x0081 [0x6F] WAIT_FRAME_DELAY: Yield until WaitTime reaches zero
 22: 0x0082 [0x76] CHECK_ENTITY_RENDER_FLAGS: Wait until Ajido-Marujido (ID: 17473693/0x010AA09D) Render.Flags0 and Render.Flags3 conditions are met
 23: 0x0087 [0x2A] GET_REQ_LEVEL(level=11, entity_id=LocalPlayer)
 24: 0x008D [0x1C] WAIT(60* ticks)
 25: 0x0090 [0x52] END_LOAD_SCHEDULER: End scheduler "s013" with entities [LocalPlayer, LocalPlayer], work=70*
 26: 0x009F [0x45] LOAD_SCHEDULED_TASK: Load scheduler "ovl1" with entities [LocalPlayer, LocalPlayer], work=[200*, 0*]
 27: 0x00B0 [0x45] LOAD_SCHEDULED_TASK: Load scheduler "s053" with entities [LocalPlayer, LocalPlayer], work=[70*, 0*]
 28: 0x00C1 [0x27] REQ_SET(priority=0x0B, entity_id=Ajido-Marujido (ID: 17473693/0x010AA09D), tag_num=0x26)
 29: 0x00C8 [0x2B] Ajido-Marujido (ID: 17473693/0x010AA09D) [7237*]:
    → "Oh, it's you. Nothing bettaru to do than follow me around?"
 30: 0x00CF [0x23] WAIT_FOR_DIALOG_INTERACTION
 31: 0x00D0 [0x2A] GET_REQ_LEVEL(level=11, entity_id=Ajido-Marujido (ID: 17473693/0x010AA09D))
 32: 0x00D6 [0x2B] Ajido-Marujido (ID: 17473693/0x010AA09D) [7238*]:
    → "...Well, you mightaru as well come with me. Come and behold the truth..."
 33: 0x00DD [0x23] WAIT_FOR_DIALOG_INTERACTION
 34: 0x00DE [0x45] LOAD_SCHEDULED_TASK: Load scheduler "fdo1" with entities [LocalPlayer, LocalPlayer], work=[200*, 0*]
 35: 0x00EF [0x1C] WAIT(150* ticks)
 36: 0x00F2 [0x5C] MUSIC_CONTROL: Set Idle (Day) music to song 157*
 37: 0x00F6 [0x5C] MUSIC_CONTROL: Set Idle (Night) music to song 157*
 38: 0x00FA [0x5D] SET_MUSIC_VOLUME(volume=127*, fade_time=1*)
 39: 0x00FF [0x52] END_LOAD_SCHEDULER: End scheduler "s053" with entities [LocalPlayer, LocalPlayer], work=70*
 40: 0x010E [0x2D] CREATE_ZONE_SCHEDULER_TASK: Create scheduler "kilh" with entities [LocalPlayer, LocalPlayer]
 41: 0x011B [0x2D] CREATE_ZONE_SCHEDULER_TASK: Create scheduler "kili" with entities [LocalPlayer, LocalPlayer]
 42: 0x0128 [0x2D] CREATE_ZONE_SCHEDULER_TASK: Create scheduler "haed" with entities [LocalPlayer, LocalPlayer]
 43: 0x0135 [0x29] REQ_SET_WAIT(priority=0x08, entity_id=IZUMI of MANGETSU (ID: 17473708/0x010AA0AC), tag_num=0x02)
 44: 0x013C [0x29] REQ_SET_WAIT(priority=0x0B, entity_id=Ajido-Marujido (ID: 17473693/0x010AA09D), tag_num=0x21)
 45: 0x0143 [0x29] REQ_SET_WAIT(priority=0x0B, entity_id=LocalPlayer, tag_num=0x08)
 46: 0x014A [0x29] REQ_SET_WAIT(priority=0x0B, entity_id=Semih Lafihna (ID: 17473694/0x010AA09E), tag_num=0x13)
 47: 0x0151 [0x27] REQ_SET(priority=0x0B, entity_id=Ajido-Marujido (ID: 17473693/0x010AA09D), tag_num=0x22)
 48: 0x0158 [0x27] REQ_SET(priority=0x0B, entity_id=LocalPlayer, tag_num=0x0B)
 49: 0x015F [0x45] LOAD_SCHEDULED_TASK: Load scheduler "s000" with entities [LocalPlayer, LocalPlayer], work=[70*, 0*]
 50: 0x0170 [0x45] LOAD_SCHEDULED_TASK: Load scheduler "fdi1" with entities [LocalPlayer, LocalPlayer], work=[200*, 0*]
 51: 0x0181 [0x1C] WAIT(100* ticks)
 52: 0x0184 [0x52] END_LOAD_SCHEDULER: End scheduler "s000" with entities [LocalPlayer, LocalPlayer], work=70*
 53: 0x0193 [0x45] LOAD_SCHEDULED_TASK: Load scheduler "s001" with entities [LocalPlayer, LocalPlayer], work=[70*, 0*]
 54: 0x01A4 [0x1C] WAIT(90* ticks)
 55: 0x01A7 [0x52] END_LOAD_SCHEDULER: End scheduler "s001" with entities [LocalPlayer, LocalPlayer], work=70*
 56: 0x01B6 [0x45] LOAD_SCHEDULED_TASK: Load scheduler "s002" with entities [LocalPlayer, LocalPlayer], work=[70*, 0*]
 57: 0x01C7 [0x1C] WAIT(180* ticks)
 58: 0x01CA [0x45] LOAD_SCHEDULED_TASK: Load scheduler "fdo1" with entities [LocalPlayer, LocalPlayer], work=[200*, 0*]
 59: 0x01DB [0x1C] WAIT(60* ticks)
 60: 0x01DE [0x52] END_LOAD_SCHEDULER: End scheduler "s002" with entities [LocalPlayer, LocalPlayer], work=70*
 61: 0x01ED [0x2A] GET_REQ_LEVEL(level=11, entity_id=LocalPlayer)
 62: 0x01F3 [0x2A] GET_REQ_LEVEL(level=11, entity_id=Ajido-Marujido (ID: 17473693/0x010AA09D))
 63: 0x01F9 [0x29] REQ_SET_WAIT(priority=0x0B, entity_id=LocalPlayer, tag_num=0x09)
 64: 0x0200 [0x45] LOAD_SCHEDULED_TASK: Load scheduler "s007" with entities [LocalPlayer, LocalPlayer], work=[70*, 0*]
 65: 0x0211 [0x45] LOAD_SCHEDULED_TASK: Load scheduler "fdi1" with entities [LocalPlayer, LocalPlayer], work=[200*, 0*]
 66: 0x0222 [0x37] UPDATE_EVENT_POSITION_AND_DIR: x=-75.603*, z=67.405*, y=10.939*, direction=55.5°*
 67: 0x022B [0x79] Ajido-Marujido (ID: 17473693/0x010AA09D) looks at DIRECTOR (ID: 17473703/0x010AA0A7) (Basic look)
 68: 0x0235 [0x29] REQ_SET_WAIT(priority=0x0B, entity_id=Ajido-Marujido (ID: 17473693/0x010AA09D), tag_num=0x27)
 69: 0x023C [0x1C] WAIT(60* ticks)
 70: 0x023F [0x37] UPDATE_EVENT_POSITION_AND_DIR: x=-45.522*, z=67.122*, y=11.175*, direction=304.2°*
 71: 0x0248 [0x79] Ajido-Marujido (ID: 17473693/0x010AA09D) looks at DIRECTOR (ID: 17473703/0x010AA0A7) (Basic look)
 72: 0x0252 [0x1C] WAIT(60* ticks)
 73: 0x0255 [0x7B] Ajido-Marujido (ID: 17473693/0x010AA09D) stops talking
 74: 0x025A [0x55] WAIT_LOAD_SCHEDULER: Wait for scheduler "s007" with entities [LocalPlayer, LocalPlayer], work=70*
 75: 0x0269 [0x45] LOAD_SCHEDULED_TASK: Load scheduler "ovl1" with entities [LocalPlayer, LocalPlayer], work=[200*, 0*]
 76: 0x027A [0x45] LOAD_SCHEDULED_TASK: Load scheduler "blon" with entities [LocalPlayer, LocalPlayer], work=[200*, 0*]
 77: 0x028B [0x45] LOAD_SCHEDULED_TASK: Load scheduler "blon" with entities [LocalPlayer, LocalPlayer], work=[201*, 0*]
 78: 0x029C [0x45] LOAD_SCHEDULED_TASK: Load scheduler "s003" with entities [LocalPlayer, LocalPlayer], work=[70*, 0*]
 79: 0x02AD [0x1C] WAIT(120* ticks)
 80: 0x02B0 [0x45] LOAD_SCHEDULED_TASK: Load scheduler "who1" with entities [LocalPlayer, LocalPlayer], work=[201*, 0*]
 81: 0x02C1 [0x1C] WAIT(100* ticks)
 82: 0x02C4 [0x45] LOAD_SCHEDULED_TASK: Load scheduler "blof" with entities [LocalPlayer, LocalPlayer], work=[200*, 0*]
 83: 0x02D5 [0x45] LOAD_SCHEDULED_TASK: Load scheduler "fdo1" with entities [LocalPlayer, LocalPlayer], work=[200*, 0*]
 84: 0x02E6 [0x52] END_LOAD_SCHEDULER: End scheduler "s003" with entities [LocalPlayer, LocalPlayer], work=70*
 85: 0x02F5 [0x1C] WAIT(200* ticks)
 86: 0x02F8 [0x45] LOAD_SCHEDULED_TASK: Load scheduler "s004" with entities [LocalPlayer, LocalPlayer], work=[70*, 0*]
 87: 0x0309 [0x45] LOAD_SCHEDULED_TASK: Load scheduler "fdi1" with entities [LocalPlayer, LocalPlayer], work=[200*, 0*]
 88: 0x031A [0x45] LOAD_SCHEDULED_TASK: Load scheduler "whi1" with entities [LocalPlayer, LocalPlayer], work=[201*, 0*]
 89: 0x032B [0x27] REQ_SET(priority=0x0B, entity_id=LocalPlayer, tag_num=0x0C)
 90: 0x0332 [0x27] REQ_SET(priority=0x0B, entity_id=Ajido-Marujido (ID: 17473693/0x010AA09D), tag_num=0x23)
 91: 0x0339 [0x2B] Ajido-Marujido (ID: 17473693/0x010AA09D) [7228*]:
    → "Dammitaru! It's just as I feared!"
 92: 0x0340 [0x23] WAIT_FOR_DIALOG_INTERACTION
 93: 0x0341 [0x2A] GET_REQ_LEVEL(level=11, entity_id=Ajido-Marujido (ID: 17473693/0x010AA09D))
 94: 0x0347 [0x29] REQ_SET_WAIT(priority=0x0B, entity_id=Ajido-Marujido (ID: 17473693/0x010AA09D), tag_num=0x28)
 95: 0x034E [0x52] END_LOAD_SCHEDULER: End scheduler "s004" with entities [LocalPlayer, LocalPlayer], work=70*
 96: 0x035D [0x45] LOAD_SCHEDULED_TASK: Load scheduler "s005" with entities [LocalPlayer, LocalPlayer], work=[70*, 0*]
 97: 0x036E [0x5D] SET_MUSIC_VOLUME(volume=0*, fade_time=200*)
 98: 0x0373 [0x79] LocalPlayer looks at Ajido-Marujido (ID: 17473693/0x010AA09D) (Basic look)
 99: 0x037D [0x29] REQ_SET_WAIT(priority=0x08, entity_id=Ajido-Marujido (ID: 17473693/0x010AA09D), tag_num=0x09)
100: 0x0384 [0x29] REQ_SET_WAIT(priority=0x0B, entity_id=Ajido-Marujido (ID: 17473693/0x010AA09D), tag_num=0x29)
101: 0x038B [0x29] REQ_SET_WAIT(priority=0x08, entity_id=Ajido-Marujido (ID: 17473693/0x010AA09D), tag_num=0x0A)
102: 0x0392 [0x52] END_LOAD_SCHEDULER: End scheduler "s005" with entities [LocalPlayer, LocalPlayer], work=70*
103: 0x03A1 [0x02] IF !(Work_Zone[9] == 3*) GOTO 0x03BD
104: 0x03A9 [0x45] LOAD_SCHEDULED_TASK: Load scheduler "s049" with entities [LocalPlayer, LocalPlayer], work=[70*, 0*]
105: 0x03BA [0x01] GOTO 0x03EA
106: 0x03BD [0x02] IF !(Work_Zone[9] == 8*) GOTO 0x03D9
107: 0x03C5 [0x45] LOAD_SCHEDULED_TASK: Load scheduler "s049" with entities [LocalPlayer, LocalPlayer], work=[70*, 0*]
108: 0x03D6 [0x01] GOTO 0x03EA
109: 0x03D9 [0x45] LOAD_SCHEDULED_TASK: Load scheduler "s012" with entities [LocalPlayer, LocalPlayer], work=[70*, 0*]

SUBROUTINE_03EA:
110: 0x03EA [0x29] REQ_SET_WAIT(priority=0x08, entity_id=Ajido-Marujido (ID: 17473693/0x010AA09D), tag_num=0x0B)
111: 0x03F1 [0x29] REQ_SET_WAIT(priority=0x0B, entity_id=Ajido-Marujido (ID: 17473693/0x010AA09D), tag_num=0x2A)
112: 0x03F8 [0x29] REQ_SET_WAIT(priority=0x08, entity_id=Ajido-Marujido (ID: 17473693/0x010AA09D), tag_num=0x0C)
113: 0x03FF [0x5C] MUSIC_CONTROL: Set Idle (Day) music to song 170*
114: 0x0403 [0x5C] MUSIC_CONTROL: Set Idle (Night) music to song 170*
115: 0x0407 [0x5D] SET_MUSIC_VOLUME(volume=127*, fade_time=1*)
116: 0x040C [0x1C] WAIT(100* ticks)
117: 0x040F [0x4E] SET_ENTITY_HIDE_FLAG: Show Semih Lafihna (ID: 17473694/0x010AA09E)
118: 0x0415 [0x4E] SET_ENTITY_HIDE_FLAG: Show Foo Beibo (ID: 17473687/0x010AA097)
119: 0x041B [0x4E] SET_ENTITY_HIDE_FLAG: Show Vahn Paineesha (ID: 17473688/0x010AA098)
120: 0x0421 [0x4E] SET_ENTITY_HIDE_FLAG: Show Shaz Norem (ID: 17473689/0x010AA099)
121: 0x0427 [0x4E] SET_ENTITY_HIDE_FLAG: Show Rhy Epocan (ID: 17473690/0x010AA09A)
122: 0x042D [0x4E] SET_ENTITY_HIDE_FLAG: Show Ufu Koromoa (ID: 17473691/0x010AA09B)
123: 0x0433 [0x27] REQ_SET(priority=0x0B, entity_id=Semih Lafihna (ID: 17473694/0x010AA09E), tag_num=0x14)
124: 0x043A [0x27] REQ_SET(priority=0x0B, entity_id=Ufu Koromoa (ID: 17473691/0x010AA09B), tag_num=0x1A)
125: 0x0441 [0x27] REQ_SET(priority=0x0B, entity_id=Rhy Epocan (ID: 17473690/0x010AA09A), tag_num=0x1A)
126: 0x0448 [0x27] REQ_SET(priority=0x0B, entity_id=Shaz Norem (ID: 17473689/0x010AA099), tag_num=0x1A)
127: 0x044F [0x27] REQ_SET(priority=0x0B, entity_id=Vahn Paineesha (ID: 17473688/0x010AA098), tag_num=0x1A)
128: 0x0456 [0x27] REQ_SET(priority=0x0B, entity_id=Foo Beibo (ID: 17473687/0x010AA097), tag_num=0x1A)
129: 0x045D [0x1C] WAIT(10* ticks)
130: 0x0460 [0x02] IF !(Work_Zone[9] == 3*) GOTO 0x047A
131: 0x0468 [0x52] END_LOAD_SCHEDULER: End scheduler "s049" with entities [LocalPlayer, LocalPlayer], work=70*
132: 0x0477 [0x01] GOTO 0x04A3
133: 0x047A [0x02] IF !(Work_Zone[9] == 8*) GOTO 0x0494
134: 0x0482 [0x52] END_LOAD_SCHEDULER: End scheduler "s049" with entities [LocalPlayer, LocalPlayer], work=70*
135: 0x0491 [0x01] GOTO 0x04A3
136: 0x0494 [0x52] END_LOAD_SCHEDULER: End scheduler "s012" with entities [LocalPlayer, LocalPlayer], work=70*

SUBROUTINE_04A3:
137: 0x04A3 [0x45] LOAD_SCHEDULED_TASK: Load scheduler "s008" with entities [LocalPlayer, LocalPlayer], work=[70*, 0*]
138: 0x04B4 [0x45] LOAD_SCHEDULED_TASK: Load scheduler "blon" with entities [LocalPlayer, LocalPlayer], work=[201*, 0*]
139: 0x04C5 [0x4A] Ajido-Marujido (ID: 17473693/0x010AA09D) looks at Semih Lafihna (ID: 17473694/0x010AA09E)
140: 0x04CE [0x4A] LocalPlayer looks at Semih Lafihna (ID: 17473694/0x010AA09E)
141: 0x04D7 [0x2B] Semih Lafihna (ID: 17473694/0x010AA09E) [7232*]:
    → "Hold it rrright there!"
142: 0x04DE [0x23] WAIT_FOR_DIALOG_INTERACTION
143: 0x04DF [0x1C] WAIT(90* ticks)
144: 0x04E2 [0x2C] CREATE_SCHEDULER_TASK: Create scheduler "won4" with entities [Semih Lafihna (ID: 17473694/0x010AA09E), Semih Lafihna (ID: 17473694/0x010AA09E)]
145: 0x04EF [0x52] END_LOAD_SCHEDULER: End scheduler "s008" with entities [LocalPlayer, LocalPlayer], work=70*
146: 0x04FE [0x45] LOAD_SCHEDULED_TASK: Load scheduler "ovl1" with entities [LocalPlayer, LocalPlayer], work=[200*, 0*]
147: 0x050F [0x45] LOAD_SCHEDULED_TASK: Load scheduler "s010" with entities [LocalPlayer, LocalPlayer], work=[70*, 0*]
148: 0x0520 [0x29] REQ_SET_WAIT(priority=0x0B, entity_id=Semih Lafihna (ID: 17473694/0x010AA09E), tag_num=0x16)
149: 0x0527 [0x52] END_LOAD_SCHEDULER: End scheduler "s010" with entities [LocalPlayer, LocalPlayer], work=70*
150: 0x0536 [0x4A] LocalPlayer looks at Ajido-Marujido (ID: 17473693/0x010AA09D)
151: 0x053F [0x45] LOAD_SCHEDULED_TASK: Load scheduler "s014" with entities [LocalPlayer, LocalPlayer], work=[70*, 0*]
152: 0x0550 [0x29] REQ_SET_WAIT(priority=0x08, entity_id=Ajido-Marujido (ID: 17473693/0x010AA09D), tag_num=0x01)
153: 0x0557 [0x29] REQ_SET_WAIT(priority=0x0B, entity_id=Ajido-Marujido (ID: 17473693/0x010AA09D), tag_num=0x2B)
154: 0x055E [0x29] REQ_SET_WAIT(priority=0x08, entity_id=Ajido-Marujido (ID: 17473693/0x010AA09D), tag_num=0x02)
155: 0x0565 [0x29] REQ_SET_WAIT(priority=0x08, entity_id=Ajido-Marujido (ID: 17473693/0x010AA09D), tag_num=0x03)
156: 0x056C [0x29] REQ_SET_WAIT(priority=0x08, entity_id=Ajido-Marujido (ID: 17473693/0x010AA09D), tag_num=0x04)
157: 0x0573 [0x52] END_LOAD_SCHEDULER: End scheduler "s014" with entities [LocalPlayer, LocalPlayer], work=70*
158: 0x0582 [0x02] IF !(Work_Zone[9] == 3*) GOTO 0x059E
159: 0x058A [0x45] LOAD_SCHEDULED_TASK: Load scheduler "s050" with entities [LocalPlayer, LocalPlayer], work=[70*, 0*]
160: 0x059B [0x01] GOTO 0x061F
161: 0x059E [0x02] IF !(Work_Zone[9] == 4*) GOTO 0x05BA
162: 0x05A6 [0x45] LOAD_SCHEDULED_TASK: Load scheduler "s050" with entities [LocalPlayer, LocalPlayer], work=[70*, 0*]
163: 0x05B7 [0x01] GOTO 0x061F
164: 0x05BA [0x02] IF !(Work_Zone[9] == 5*) GOTO 0x05D6
165: 0x05C2 [0x45] LOAD_SCHEDULED_TASK: Load scheduler "s017" with entities [LocalPlayer, LocalPlayer], work=[70*, 0*]
166: 0x05D3 [0x01] GOTO 0x061F
167: 0x05D6 [0x02] IF !(Work_Zone[9] == 6*) GOTO 0x05F2
168: 0x05DE [0x45] LOAD_SCHEDULED_TASK: Load scheduler "s017" with entities [LocalPlayer, LocalPlayer], work=[70*, 0*]
169: 0x05EF [0x01] GOTO 0x061F
170: 0x05F2 [0x02] IF !(Work_Zone[9] == 8*) GOTO 0x060E
171: 0x05FA [0x45] LOAD_SCHEDULED_TASK: Load scheduler "s050" with entities [LocalPlayer, LocalPlayer], work=[70*, 0*]
172: 0x060B [0x01] GOTO 0x061F
173: 0x060E [0x45] LOAD_SCHEDULED_TASK: Load scheduler "s015" with entities [LocalPlayer, LocalPlayer], work=[70*, 0*]

SUBROUTINE_061F:
174: 0x061F [0x4A] Ajido-Marujido (ID: 17473693/0x010AA09D) looks at LocalPlayer
175: 0x0628 [0x29] REQ_SET_WAIT(priority=0x08, entity_id=Semih Lafihna (ID: 17473694/0x010AA09E), tag_num=0x0A)
176: 0x062F [0x2B] Ajido-Marujido (ID: 17473693/0x010AA09D) [7235*]:
    → "And this time, they look serious. Time for you to leave!"
177: 0x0636 [0x23] WAIT_FOR_DIALOG_INTERACTION
178: 0x0637 [0x29] REQ_SET_WAIT(priority=0x08, entity_id=Semih Lafihna (ID: 17473694/0x010AA09E), tag_num=0x0B)
179: 0x063E [0x02] IF !(Work_Zone[9] == 3*) GOTO 0x0658
180: 0x0646 [0x52] END_LOAD_SCHEDULER: End scheduler "s050" with entities [LocalPlayer, LocalPlayer], work=70*
181: 0x0655 [0x01] GOTO 0x06CF
182: 0x0658 [0x02] IF !(Work_Zone[9] == 4*) GOTO 0x0672
183: 0x0660 [0x52] END_LOAD_SCHEDULER: End scheduler "s050" with entities [LocalPlayer, LocalPlayer], work=70*
184: 0x066F [0x01] GOTO 0x06CF
185: 0x0672 [0x02] IF !(Work_Zone[9] == 5*) GOTO 0x068C
186: 0x067A [0x52] END_LOAD_SCHEDULER: End scheduler "s017" with entities [LocalPlayer, LocalPlayer], work=70*
187: 0x0689 [0x01] GOTO 0x06CF
188: 0x068C [0x02] IF !(Work_Zone[9] == 6*) GOTO 0x06A6
189: 0x0694 [0x52] END_LOAD_SCHEDULER: End scheduler "s017" with entities [LocalPlayer, LocalPlayer], work=70*
190: 0x06A3 [0x01] GOTO 0x06CF
191: 0x06A6 [0x02] IF !(Work_Zone[9] == 8*) GOTO 0x06C0
192: 0x06AE [0x52] END_LOAD_SCHEDULER: End scheduler "s050" with entities [LocalPlayer, LocalPlayer], work=70*
193: 0x06BD [0x01] GOTO 0x06CF
194: 0x06C0 [0x52] END_LOAD_SCHEDULER: End scheduler "s015" with entities [LocalPlayer, LocalPlayer], work=70*

SUBROUTINE_06CF:
195: 0x06CF [0x45] LOAD_SCHEDULED_TASK: Load scheduler "ovl1" with entities [LocalPlayer, LocalPlayer], work=[200*, 0*]
196: 0x06E0 [0x45] LOAD_SCHEDULED_TASK: Load scheduler "s009" with entities [LocalPlayer, LocalPlayer], work=[70*, 0*]
197: 0x06F1 [0x2C] CREATE_SCHEDULER_TASK: Create scheduler "cabk" with entities [Ajido-Marujido (ID: 17473693/0x010AA09D), LocalPlayer]
198: 0x06FE [0x1C] WAIT(90* ticks)
199: 0x0701 [0x52] END_LOAD_SCHEDULER: End scheduler "s009" with entities [LocalPlayer, LocalPlayer], work=70*
200: 0x0710 [0x45] LOAD_SCHEDULED_TASK: Load scheduler "ovl1" with entities [LocalPlayer, LocalPlayer], work=[200*, 0*]
201: 0x0721 [0x45] LOAD_SCHEDULED_TASK: Load scheduler "s011" with entities [LocalPlayer, LocalPlayer], work=[70*, 0*]
202: 0x0732 [0x29] REQ_SET_WAIT(priority=0x0B, entity_id=Semih Lafihna (ID: 17473694/0x010AA09E), tag_num=0x17)
203: 0x0739 [0x27] REQ_SET(priority=0x0B, entity_id=Foo Beibo (ID: 17473687/0x010AA097), tag_num=0x19)
204: 0x0740 [0x27] REQ_SET(priority=0x0B, entity_id=Rhy Epocan (ID: 17473690/0x010AA09A), tag_num=0x19)
205: 0x0747 [0x27] REQ_SET(priority=0x0B, entity_id=Ufu Koromoa (ID: 17473691/0x010AA09B), tag_num=0x19)
206: 0x074E [0x27] REQ_SET(priority=0x0B, entity_id=Shaz Norem (ID: 17473689/0x010AA099), tag_num=0x19)
207: 0x0755 [0x27] REQ_SET(priority=0x0B, entity_id=Vahn Paineesha (ID: 17473688/0x010AA098), tag_num=0x19)
208: 0x075C [0x1C] WAIT(20* ticks)
209: 0x075F [0x52] END_LOAD_SCHEDULER: End scheduler "s011" with entities [LocalPlayer, LocalPlayer], work=70*
210: 0x076E [0x45] LOAD_SCHEDULED_TASK: Load scheduler "s016" with entities [LocalPlayer, LocalPlayer], work=[70*, 0*]
211: 0x077F [0x27] REQ_SET(priority=0x0B, entity_id=Semih Lafihna (ID: 17473694/0x010AA09E), tag_num=0x15)
212: 0x0786 [0x1C] WAIT(60* ticks)
213: 0x0789 [0x5D] SET_MUSIC_VOLUME(volume=0*, fade_time=200*)
214: 0x078E [0x45] LOAD_SCHEDULED_TASK: Load scheduler "who1" with entities [LocalPlayer, LocalPlayer], work=[201*, 0*]
215: 0x079F [0x1C] WAIT(200* ticks)
216: 0x07A2 [0x52] END_LOAD_SCHEDULER: End scheduler "s016" with entities [LocalPlayer, LocalPlayer], work=70*
217: 0x07B1 [0x5C] MUSIC_CONTROL: Set Idle (Day) music to song 0*
218: 0x07B5 [0x5C] MUSIC_CONTROL: Set Idle (Night) music to song 0*
219: 0x07B9 [0x5D] SET_MUSIC_VOLUME(volume=127*, fade_time=1*)
220: 0x07BE [0x1C] WAIT(100* ticks)
221: 0x07C1 [0x2D] CREATE_ZONE_SCHEDULER_TASK: Create scheduler "kilk" with entities [LocalPlayer, LocalPlayer]
222: 0x07CE [0x2D] CREATE_ZONE_SCHEDULER_TASK: Create scheduler "izum" with entities [LocalPlayer, LocalPlayer]
223: 0x07DB [0x2D] CREATE_ZONE_SCHEDULER_TASK: Create scheduler "hast" with entities [LocalPlayer, LocalPlayer]
224: 0x07E8 [0x46] CAMERA_CONTROL: Restore default settings
225: 0x07EA [0x1C] WAIT(100* ticks)
226: 0x07ED [0x45] LOAD_SCHEDULED_TASK: Load scheduler "whi1" with entities [LocalPlayer, LocalPlayer], work=[201*, 0*]
227: 0x07FE [0x45] LOAD_SCHEDULED_TASK: Load scheduler "qstc" with entities [LocalPlayer, LocalPlayer], work=[201*, 0*]
228: 0x080F [0x20] SET_CLI_EVENT_UC_FLAG: Unlock player control
229: 0x0811 [0x21] END_EVENT
230: 0x0812 [0x00] END_REQSTACK()
```

### Event 61

#### Metadata

| Field        | Value      |
|--------------|------------|
| Entrypoint   | 0x0813     |
| Data Size    | 3276 bytes |
| Instructions | 402        |

```
      00 01 02 03 04 05 06 07  08 09 0A 0B 0C 0D 0E 0F
      -- -- -- -- -- -- -- --  -- -- -- -- -- -- -- --
0810:          20 01 42 46 01  5D 00 80 01 80 45 01 80      .BF.]....E..
0820: F0 FF FF 7F F0 FF FF 7F  66 64 6F 31 00 80 1C 02  ........fdo1....
0830: 80 38 03 80 29 08 F0 FF  FF 7F 11 2D F0 FF FF 7F  .8..)......-....
0840: F0 FF FF 7F 6B 69 6C 68  2D F0 FF FF 7F F0 FF FF  ....kilh-.......
0850: 7F 6B 69 6C 69 2D F0 FF  FF 7F F0 FF FF 7F 68 61  .kili-........ha
0860: 65 64 4E 00 9C A0 0A 01  4E 00 9E A0 0A 01 4E 00  edN.....N.....N.
0870: 97 A0 0A 01 4E 00 98 A0  0A 01 4E 00 99 A0 0A 01  ....N.....N.....
0880: 4E 00 9A A0 0A 01 4E 00  9B A0 0A 01 4E 01 F0 FF  N.....N.....N...
0890: FF 7F 5C 00 0C 80 5C 01  0C 80 80 9C A0 0A 01 80  ..\...\.........
08A0: 9E A0 0A 01 29 0B 9C A0  0A 01 19 29 0B 9E A0 0A  ....)......)....
08B0: 01 19 1C 04 80 45 05 80  F0 FF FF 7F F0 FF FF 7F  .....E..........
08C0: 73 30 35 34 00 80 45 01  80 F0 FF FF 7F F0 FF FF  s054..E.........
08D0: 7F 66 64 69 31 00 80 1C  25 80 52 05 80 F0 FF FF  .fdi1...%.R.....
08E0: 7F F0 FF FF 7F 73 30 35  34 45 01 80 F0 FF FF 7F  .....s054E......
08F0: F0 FF FF 7F 6F 76 6C 31  00 80 45 05 80 F0 FF FF  ....ovl1..E.....
0900: 7F F0 FF FF 7F 73 30 35  36 00 80 1C 01 80 2B 9C  .....s056.....+.
0910: A0 0A 01 26 80 23 52 05  80 F0 FF FF 7F F0 FF FF  ...&.#R.........
0920: 7F 73 30 35 36 45 01 80  F0 FF FF 7F F0 FF FF 7F  .s056E..........
0930: 6F 76 6C 31 00 80 45 05  80 F0 FF FF 7F F0 FF FF  ovl1..E.........
0940: 7F 73 30 35 37 00 80 29  08 9C A0 0A 01 05 2B 9C  .s057..)......+.
0950: A0 0A 01 27 80 23 52 05  80 F0 FF FF 7F F0 FF FF  ...'.#R.........
0960: 7F 73 30 35 37 45 01 80  F0 FF FF 7F F0 FF FF 7F  .s057E..........
0970: 6F 76 6C 31 00 80 45 05  80 F0 FF FF 7F F0 FF FF  ovl1..E.........
0980: 7F 73 30 35 35 00 80 29  08 9C A0 0A 01 06 27 0B  .s055..)......'.
0990: 9C A0 0A 01 1A 2B 9C A0  0A 01 28 80 23 2B 9E A0  .....+....(.#+..
09A0: 0A 01 29 80 23 2A 0B 9C  A0 0A 01 52 05 80 F0 FF  ..).#*.....R....
09B0: FF 7F F0 FF FF 7F 73 30  35 35 45 01 80 F0 FF FF  ......s055E.....
09C0: 7F F0 FF FF 7F 6F 76 6C  31 00 80 45 05 80 F0 FF  .....ovl1..E....
09D0: FF 7F F0 FF FF 7F 73 30  35 38 00 80 2B 9C A0 0A  ......s058..+...
09E0: 01 2A 80 23 29 08 9C A0  0A 01 05 52 05 80 F0 FF  .*.#)......R....
09F0: FF 7F F0 FF FF 7F 73 30  35 38 45 01 80 F0 FF FF  ......s058E.....
0A00: 7F F0 FF FF 7F 6F 76 6C  31 00 80 45 05 80 F0 FF  .....ovl1..E....
0A10: FF 7F F0 FF FF 7F 73 30  35 34 00 80 2B 9C A0 0A  ......s054..+...
0A20: 01 2B 80 23 4B 9C A0 0A  01 2C 80 2B 9C A0 0A 01  .+.#K....,.+....
0A30: 2D 80 23 6F 76 9C A0 0A  01 52 05 80 F0 FF FF 7F  -.#ov....R......
0A40: F0 FF FF 7F 73 30 35 34  45 05 80 F0 FF FF 7F F0  ....s054E.......
0A50: FF FF 7F 73 30 35 39 00  80 29 08 9C A0 0A 01 06  ...s059..)......
0A60: 2B 9C A0 0A 01 2E 80 23  45 01 80 F0 FF FF 7F F0  +......#E.......
0A70: FF FF 7F 66 64 6F 31 00  80 1C 07 80 2B 9C A0 0A  ...fdo1.....+...
0A80: 01 2F 80 23 29 08 9E A0  0A 01 1A 52 05 80 F0 FF  ./.#)......R....
0A90: FF 7F F0 FF FF 7F 73 30  35 39 45 05 80 F0 FF FF  ......s059E.....
0AA0: 7F F0 FF FF 7F 73 30 36  30 00 80 45 01 80 F0 FF  .....s060..E....
0AB0: FF 7F F0 FF FF 7F 66 64  69 31 00 80 4A 9C A0 0A  ......fdi1..J...
0AC0: 01 9E A0 0A 01 79 00 9E  A0 0A 01 9C A0 0A 01 27  .....y.........'
0AD0: 0B 9E A0 0A 01 1B 2A 0B  9E A0 0A 01 2B 9E A0 0A  ......*.....+...
0AE0: 01 30 80 23 52 05 80 F0  FF FF 7F F0 FF FF 7F 73  .0.#R..........s
0AF0: 30 36 30 45 01 80 F0 FF  FF 7F F0 FF FF 7F 6F 76  060E..........ov
0B00: 6C 31 00 80 45 05 80 F0  FF FF 7F F0 FF FF 7F 73  l1..E..........s
0B10: 30 36 32 00 80 29 08 9E  A0 0A 01 01 2B 9E A0 0A  062..)......+...
0B20: 01 31 80 23 29 08 9E A0  0A 01 02 29 08 9E A0 0A  .1.#)......)....
0B30: 01 04 2B 9E A0 0A 01 32  80 23 29 08 9E A0 0A 01  ..+....2.#).....
0B40: 05 29 0B 9C A0 0A 01 1F  52 05 80 F0 FF FF 7F F0  .)......R.......
0B50: FF FF 7F 73 30 36 32 45  01 80 F0 FF FF 7F F0 FF  ...s062E........
0B60: FF 7F 6F 76 6C 31 00 80  45 05 80 F0 FF FF 7F F0  ..ovl1..E.......
0B70: FF FF 7F 73 30 36 31 00  80 29 08 9C A0 0A 01 05  ...s061..)......
0B80: 2B 9C A0 0A 01 33 80 23  52 05 80 F0 FF FF 7F F0  +....3.#R.......
0B90: FF FF 7F 73 30 36 31 45  01 80 F0 FF FF 7F F0 FF  ...s061E........
0BA0: FF 7F 6F 76 6C 31 00 80  45 05 80 F0 FF FF 7F F0  ..ovl1..E.......
0BB0: FF FF 7F 73 30 36 33 00  80 29 08 9C A0 0A 01 06  ...s063..)......
0BC0: 27 0B 9C A0 0A 01 1B 2B  9C A0 0A 01 34 80 23 2A  '......+....4.#*
0BD0: 0B 9C A0 0A 01 52 05 80  F0 FF FF 7F F0 FF FF 7F  .....R..........
0BE0: 73 30 36 33 45 01 80 F0  FF FF 7F F0 FF FF 7F 6F  s063E..........o
0BF0: 76 6C 31 00 80 45 05 80  F0 FF FF 7F F0 FF FF 7F  vl1..E..........
0C00: 73 30 36 34 00 80 2B 9C  A0 0A 01 35 80 23 2B 9C  s064..+....5.#+.
0C10: A0 0A 01 36 80 23 5D 00  80 01 80 45 01 80 F0 FF  ...6.#]....E....
0C20: FF 7F F0 FF FF 7F 66 64  6F 31 00 80 4E 00 A9 A0  ......fdo1..N...
0C30: 0A 01 4E 00 C9 A0 0A 01  4E 00 CA A0 0A 01 4E 00  ..N.....N.....N.
0C40: AD A0 0A 01 4E 00 AE A0  0A 01 4E 00 AF A0 0A 01  ....N.....N.....
0C50: 4E 00 B0 A0 0A 01 4E 00  B1 A0 0A 01 4E 00 B2 A0  N.....N.....N...
0C60: 0A 01 4E 00 B3 A0 0A 01  4E 00 B4 A0 0A 01 4E 00  ..N.....N.....N.
0C70: B5 A0 0A 01 4E 00 B6 A0  0A 01 4E 00 B7 A0 0A 01  ....N.....N.....
0C80: 4E 00 B8 A0 0A 01 4E 00  B9 A0 0A 01 4E 00 BA A0  N.....N.....N...
0C90: 0A 01 4E 00 BB A0 0A 01  4E 00 BC A0 0A 01 1C 01  ..N.....N.......
0CA0: 80 5C 00 0B 80 5C 01 0B  80 80 A9 A0 0A 01 80 C9  .\...\..........
0CB0: A0 0A 01 80 CA A0 0A 01  80 AD A0 0A 01 80 AE A0  ................
0CC0: 0A 01 80 AF A0 0A 01 80  B0 A0 0A 01 80 B1 A0 0A  ................
0CD0: 01 80 B2 A0 0A 01 80 B3  A0 0A 01 80 B4 A0 0A 01  ................
0CE0: 80 B5 A0 0A 01 80 B6 A0  0A 01 80 B7 A0 0A 01 80  ................
0CF0: B8 A0 0A 01 80 B9 A0 0A  01 80 BA A0 0A 01 80 BB  ................
0D00: A0 0A 01 80 BC A0 0A 01  48 37 80 23 52 05 80 F0  ........H7.#R...
0D10: FF FF 7F F0 FF FF 7F 73  30 36 34 1C 07 80 45 01  .......s064...E.
0D20: 80 F0 FF FF 7F F0 FF FF  7F 6F 76 6C 31 00 80 45  .........ovl1..E
0D30: 05 80 F0 FF FF 7F F0 FF  FF 7F 73 30 36 39 00 80  ..........s069..
0D40: 45 01 80 F0 FF FF 7F F0  FF FF 7F 66 64 69 31 00  E..........fdi1.
0D50: 80 2B 9C A0 0A 01 38 80  23 29 0B 9E A0 0A 01 19  .+....8.#)......
0D60: 4A 9C A0 0A 01 A9 A0 0A  01 55 05 80 F0 FF FF 7F  J........U......
0D70: F0 FF FF 7F 73 30 36 39  45 01 80 F0 FF FF 7F F0  ....s069E.......
0D80: FF FF 7F 6F 76 6C 31 00  80 45 05 80 F0 FF FF 7F  ...ovl1..E......
0D90: F0 FF FF 7F 73 30 37 31  00 80 4A 9E A0 0A 01 A9  ....s071..J.....
0DA0: A0 0A 01 55 05 80 F0 FF  FF 7F F0 FF FF 7F 73 30  ...U..........s0
0DB0: 37 31 27 0D A9 A0 0A 01  20 27 0D C9 A0 0A 01 08  71'..... '......
0DC0: 27 0D CA A0 0A 01 08 27  0D AD A0 0A 01 14 27 0D  '......'......'.
0DD0: AE A0 0A 01 14 27 0D AF  A0 0A 01 14 27 0D B0 A0  .....'......'...
0DE0: 0A 01 14 27 0D B1 A0 0A  01 15 27 0D B2 A0 0A 01  ...'......'.....
0DF0: 14 27 0D B3 A0 0A 01 08  27 0D B4 A0 0A 01 08 27  .'......'......'
0E00: 0D B5 A0 0A 01 0C 27 0D  B6 A0 0A 01 0C 27 0D B7  ......'......'..
0E10: A0 0A 01 0C 27 0D B8 A0  0A 01 0C 27 0D B9 A0 0A  ....'......'....
0E20: 01 0C 27 0D BA A0 0A 01  0C 27 0D BB A0 0A 01 0C  ..'......'......
0E30: 27 0D BC A0 0A 01 0C 1C  24 80 27 0D F0 FF FF 7F  '.......$.'.....
0E40: 13 27 0B 9E A0 0A 01 0C  6F 76 9C A0 0A 01 6F 76  .'......ov....ov
0E50: 9E A0 0A 01 2A 0D C9 A0  0A 01 2A 0D CA A0 0A 01  ....*.....*.....
0E60: 2A 0D AD A0 0A 01 2A 0D  AE A0 0A 01 2A 0D AF A0  *.....*.....*...
0E70: 0A 01 2A 0D B0 A0 0A 01  2A 0D B1 A0 0A 01 2A 0D  ..*.....*.....*.
0E80: B2 A0 0A 01 2A 0D B3 A0  0A 01 2A 0D B4 A0 0A 01  ....*.....*.....
0E90: 2A 0D A9 A0 0A 01 29 08  9C A0 0A 01 1C 29 08 98  *.....)......)..
0EA0: A0 0A 01 1C 29 08 97 A0  0A 01 1C 2A 0D F0 FF FF  ....)......*....
0EB0: 7F 2B 9E A0 0A 01 39 80  23 2A 0B 9E A0 0A 01 29  .+....9.#*.....)
0EC0: 08 A9 A0 0A 01 1C 62 3A  80 A9 A0 0A 01 9E A0 0A  ......b:........
0ED0: 01 6D 61 69 6E 00 80 62  3A 80 A9 A0 0A 01 97 A0  .main..b:.......
0EE0: 0A 01 6D 61 69 6E 00 80  62 3A 80 A9 A0 0A 01 98  ..main..b:......
0EF0: A0 0A 01 6D 61 69 6E 00  80 1C 07 80 45 05 80 9C  ...main.....E...
0F00: A0 0A 01 9C A0 0A 01 73  30 36 38 00 80 27 0A 97  .......s068..'..
0F10: A0 0A 01 15 27 0A 98 A0  0A 01 15 1C 07 80 2B 9C  ....'.........+.
0F20: A0 0A 01 3B 80 23 29 08  9C A0 0A 01 13 1C 07 80  ...;.#).........
0F30: 2A 0A 97 A0 0A 01 2A 0A  98 A0 0A 01 4E 01 9E A0  *.....*.....N...
0F40: 0A 01 4E 01 97 A0 0A 01  4E 01 98 A0 0A 01 29 08  ..N.....N.....).
0F50: A9 A0 0A 01 1E 55 05 80  9C A0 0A 01 9C A0 0A 01  .....U..........
0F60: 73 30 36 38 45 01 80 F0  FF FF 7F F0 FF FF 7F 6F  s068E..........o
0F70: 76 6C 31 00 80 45 05 80  F0 FF FF 7F F0 FF FF 7F  vl1..E..........
0F80: 73 30 37 30 00 80 29 08  A9 A0 0A 01 1D 1C 02 80  s070..).........
0F90: 29 08 A9 A0 0A 01 01 29  0B A9 A0 0A 01 23 29 08  )......).....#).
0FA0: 9C A0 0A 01 17 52 05 80  F0 FF FF 7F F0 FF FF 7F  .....R..........
0FB0: 73 30 37 30 45 05 80 F0  FF FF 7F F0 FF FF 7F 73  s070E..........s
0FC0: 30 37 32 00 80 27 0B 9C  A0 0A 01 1D 2B 9C A0 0A  072..'......+...
0FD0: 01 3C 80 23 2A 0B 9C A0  0A 01 52 05 80 F0 FF FF  .<.#*.....R.....
0FE0: 7F F0 FF FF 7F 73 30 37  32 45 01 80 F0 FF FF 7F  .....s072E......
0FF0: F0 FF FF 7F 6F 76 6C 31  00 80 45 05 80 F0 FF FF  ....ovl1..E.....
1000: 7F F0 FF FF 7F 73 30 37  33 00 80 27 0D A9 A0 0A  .....s073..'....
1010: 01 20 27 0D C9 A0 0A 01  08 27 0D CA A0 0A 01 08  . '......'......
1020: 27 0D AD A0 0A 01 14 27  0D AE A0 0A 01 14 27 0D  '......'......'.
1030: AF A0 0A 01 14 27 0D B0  A0 0A 01 14 2B A9 A0 0A  .....'......+...
1040: 01 3D 80 23 52 05 80 F0  FF FF 7F F0 FF FF 7F 73  .=.#R..........s
1050: 30 37 33 45 01 80 F0 FF  FF 7F F0 FF FF 7F 6F 76  073E..........ov
1060: 6C 31 00 80 45 05 80 F0  FF FF 7F F0 FF FF 7F 73  l1..E..........s
1070: 30 37 34 00 80 2B A9 A0  0A 01 3E 80 23 2A 0D A9  074..+....>.#*..
1080: A0 0A 01 2A 0D C9 A0 0A  01 2A 0D CA A0 0A 01 2A  ...*.....*.....*
1090: 0D AD A0 0A 01 2A 0D AE  A0 0A 01 2A 0D AF A0 0A  .....*.....*....
10A0: 01 2A 0D B0 A0 0A 01 52  05 80 F0 FF FF 7F F0 FF  .*.....R........
10B0: FF 7F 73 30 37 34 45 05  80 F0 FF FF 7F F0 FF FF  ..s074E.........
10C0: 7F 73 30 37 37 00 80 29  08 A9 A0 0A 01 1A 2B A9  .s077..)......+.
10D0: A0 0A 01 3F 80 23 29 08  A9 A0 0A 01 1B 2B A9 A0  ...?.#)......+..
10E0: 0A 01 40 80 23 52 05 80  F0 FF FF 7F F0 FF FF 7F  ..@.#R..........
10F0: 73 30 37 37 45 01 80 F0  FF FF 7F F0 FF FF 7F 6F  s077E..........o
1100: 76 6C 31 00 80 45 05 80  F0 FF FF 7F F0 FF FF 7F  vl1..E..........
1110: 73 30 37 35 00 80 2B 9C  A0 0A 01 41 80 23 52 05  s075..+....A.#R.
1120: 80 F0 FF FF 7F F0 FF FF  7F 73 30 37 35 45 05 80  .........s075E..
1130: F0 FF FF 7F F0 FF FF 7F  73 30 37 36 00 80 29 08  ........s076..).
1140: A9 A0 0A 01 1C 29 0B A9  A0 0A 01 24 29 08 A9 A0  .....).....$)...
1150: 0A 01 1D 45 01 80 F0 FF  FF 7F F0 FF FF 7F 66 64  ...E..........fd
1160: 6F 31 00 80 1C 07 80 52  05 80 F0 FF FF 7F F0 FF  o1.....R........
1170: FF 7F 73 30 37 36 45 05  80 F0 FF FF 7F F0 FF FF  ..s076E.........
1180: 7F 73 30 37 38 00 80 45  01 80 F0 FF FF 7F F0 FF  .s078..E........
1190: FF 7F 66 64 69 31 00 80  29 08 9C A0 0A 01 11 55  ..fdi1..)......U
11A0: 05 80 F0 FF FF 7F F0 FF  FF 7F 73 30 37 38 2B 9C  ..........s078+.
11B0: A0 0A 01 42 80 23 2B 9C  A0 0A 01 43 80 23 29 08  ...B.#+....C.#).
11C0: 9C A0 0A 01 12 29 08 A9  A0 0A 01 1E 45 05 80 F0  .....)......E...
11D0: FF FF 7F F0 FF FF 7F 73  30 37 39 00 80 29 08 9C  .......s079..)..
11E0: A0 0A 01 17 29 08 9C A0  0A 01 1E 27 0B A9 A0 0A  ....)......'....
11F0: 01 21 2B A9 A0 0A 01 44  80 23 2B A9 A0 0A 01 45  .!+....D.#+....E
1200: 80 23 2A 0B A9 A0 0A 01  52 05 80 F0 FF FF 7F F0  .#*.....R.......
1210: FF FF 7F 73 30 37 39 45  01 80 F0 FF FF 7F F0 FF  ...s079E........
1220: FF 7F 62 6C 6F 6E 00 80  45 18 80 F0 FF FF 7F F0  ..blon..E.......
1230: FF FF 7F 62 6C 6F 6E 00  80 45 05 80 F0 FF FF 7F  ...blon..E......
1240: F0 FF FF 7F 73 30 38 30  00 80 29 08 9C A0 0A 01  ....s080..).....
1250: 13 2B 9C A0 0A 01 46 80  23 29 08 9C A0 0A 01 14  .+....F.#)......
1260: 29 08 A9 A0 0A 01 1E 5D  00 80 01 80 45 18 80 F0  )......]....E...
1270: FF FF 7F F0 FF FF 7F 77  68 6F 31 00 80 1C 02 80  .......who1.....
1280: 29 08 A9 A0 0A 01 0B 29  08 A9 A0 0A 01 0C 45 01  )......)......E.
1290: 80 F0 FF FF 7F F0 FF FF  7F 62 6C 6F 66 00 80 29  .........blof..)
12A0: 08 9C A0 0A 01 1E 52 05  80 F0 FF FF 7F F0 FF FF  ......R.........
12B0: 7F 73 30 38 30 29 0B F0  FF FF 7F 15 29 0B 9D A0  .s080)......)...
12C0: 0A 01 2D 4E 00 F0 FF FF  7F 4E 00 9D A0 0A 01 80  ..-N.....N......
12D0: F0 FF FF 7F 80 9D A0 0A  01 45 05 80 F0 FF FF 7F  .........E......
12E0: F0 FF FF 7F 73 30 38 31  00 80 45 18 80 F0 FF FF  ....s081..E.....
12F0: 7F F0 FF FF 7F 77 68 69  31 00 80 29 08 A9 A0 0A  .....whi1..)....
1300: 01 1A 2B A9 A0 0A 01 47  80 23 29 08 A9 A0 0A 01  ..+....G.#).....
1310: 1B 29 08 A9 A0 0A 01 1C  2B A9 A0 0A 01 48 80 23  .)......+....H.#
1320: 29 08 A9 A0 0A 01 1D 52  05 80 F0 FF FF 7F F0 FF  )......R........
1330: FF 7F 73 30 38 31 45 01  80 F0 FF FF 7F F0 FF FF  ..s081E.........
1340: 7F 6F 76 6C 31 00 80 45  05 80 F0 FF FF 7F F0 FF  .ovl1..E........
1350: FF 7F 73 30 38 32 00 80  2B 9C A0 0A 01 49 80 23  ..s082..+....I.#
1360: 45 01 80 F0 FF FF 7F F0  FF FF 7F 66 64 6F 31 00  E..........fdo1.
1370: 80 1C 07 80 52 05 80 F0  FF FF 7F F0 FF FF 7F 73  ....R..........s
1380: 30 38 32 27 0B 9E A0 0A  01 1C 2B 9D A0 0A 01 4A  082'......+....J
1390: 80 23 2A 0B 9E A0 0A 01  2B 9D A0 0A 01 4B 80 23  .#*.....+....K.#
13A0: 45 01 80 F0 FF FF 7F F0  FF FF 7F 6F 76 6C 31 00  E..........ovl1.
13B0: 80 45 05 80 F0 FF FF 7F  F0 FF FF 7F 73 30 38 36  .E..........s086
13C0: 00 80 27 0B A9 A0 0A 01  22 2B A9 A0 0A 01 4C 80  ..'....."+....L.
13D0: 23 52 05 80 F0 FF FF 7F  F0 FF FF 7F 73 30 38 36  #R..........s086
13E0: 45 01 80 F0 FF FF 7F F0  FF FF 7F 6F 76 6C 31 00  E..........ovl1.
13F0: 80 45 05 80 F0 FF FF 7F  F0 FF FF 7F 73 30 38 35  .E..........s085
1400: 00 80 2B A9 A0 0A 01 4D  80 23 2A 0B A9 A0 0A 01  ..+....M.#*.....
1410: 52 05 80 F0 FF FF 7F F0  FF FF 7F 73 30 38 35 5D  R..........s085]
1420: 00 80 01 80 45 01 80 F0  FF FF 7F F0 FF FF 7F 6F  ....E..........o
1430: 76 6C 31 00 80 45 05 80  F0 FF FF 7F F0 FF FF 7F  vl1..E..........
1440: 73 30 38 38 00 80 29 08  A9 A0 0A 01 1C 2B A9 A0  s088..)......+..
1450: 0A 01 4E 80 23 45 18 80  F0 FF FF 7F F0 FF FF 7F  ..N.#E..........
1460: 77 68 6F 31 00 80 1C 07  80 29 08 A9 A0 0A 01 1D  who1.....)......
1470: 1C 07 80 52 05 80 F0 FF  FF 7F F0 FF FF 7F 73 30  ...R..........s0
1480: 38 38 1C 01 80 2D F0 FF  FF 7F F0 FF FF 7F 6B 69  88...-........ki
1490: 6C 6B 2D F0 FF FF 7F F0  FF FF 7F 68 61 73 74 2D  lk-........hast-
14A0: F0 FF FF 7F F0 FF FF 7F  69 7A 75 6D 46 00 5C 00  ........izumF.\.
14B0: 00 80 5C 01 00 80 1C 02  80 45 18 80 F0 FF FF 7F  ..\......E......
14C0: F0 FF FF 7F 77 68 69 31  00 80 45 18 80 F0 FF FF  ....whi1..E.....
14D0: 7F F0 FF FF 7F 71 73 74  63 00 80 20 00 21 00     .....qstc.. .!. 
```

#### Opcodes

```
  0: 0x0813 [0x20] SET_CLI_EVENT_UC_FLAG: Lock player control
  1: 0x0815 [0x42] SET_CLI_EVENT_CANCEL_DATA()
  2: 0x0816 [0x46] CAMERA_CONTROL: Disable user control
  3: 0x0818 [0x5D] SET_MUSIC_VOLUME(volume=0*, fade_time=200*)
  4: 0x081D [0x45] LOAD_SCHEDULED_TASK: Load scheduler "fdo1" with entities [LocalPlayer, LocalPlayer], work=[200*, 0*]
  5: 0x082E [0x1C] WAIT(100* ticks)
  6: 0x0831 [0x38] SET_CLIENT_EVENT_MODE(mode=19*)
  7: 0x0834 [0x29] REQ_SET_WAIT(priority=0x08, entity_id=LocalPlayer, tag_num=0x11)
  8: 0x083B [0x2D] CREATE_ZONE_SCHEDULER_TASK: Create scheduler "kilh" with entities [LocalPlayer, LocalPlayer]
  9: 0x0848 [0x2D] CREATE_ZONE_SCHEDULER_TASK: Create scheduler "kili" with entities [LocalPlayer, LocalPlayer]
 10: 0x0855 [0x2D] CREATE_ZONE_SCHEDULER_TASK: Create scheduler "haed" with entities [LocalPlayer, LocalPlayer]
 11: 0x0862 [0x4E] SET_ENTITY_HIDE_FLAG: Show Star Sibyl (ID: 17473692/0x010AA09C)
 12: 0x0868 [0x4E] SET_ENTITY_HIDE_FLAG: Show Semih Lafihna (ID: 17473694/0x010AA09E)
 13: 0x086E [0x4E] SET_ENTITY_HIDE_FLAG: Show Foo Beibo (ID: 17473687/0x010AA097)
 14: 0x0874 [0x4E] SET_ENTITY_HIDE_FLAG: Show Vahn Paineesha (ID: 17473688/0x010AA098)
 15: 0x087A [0x4E] SET_ENTITY_HIDE_FLAG: Show Shaz Norem (ID: 17473689/0x010AA099)
 16: 0x0880 [0x4E] SET_ENTITY_HIDE_FLAG: Show Rhy Epocan (ID: 17473690/0x010AA09A)
 17: 0x0886 [0x4E] SET_ENTITY_HIDE_FLAG: Show Ufu Koromoa (ID: 17473691/0x010AA09B)
 18: 0x088C [0x4E] SET_ENTITY_HIDE_FLAG: Hide LocalPlayer
 19: 0x0892 [0x5C] MUSIC_CONTROL: Set Idle (Day) music to song 127*
 20: 0x0896 [0x5C] MUSIC_CONTROL: Set Idle (Night) music to song 127*
 21: 0x089A [0x80] LOAD_WAIT(entity=Star Sibyl (ID: 17473692/0x010AA09C))
 22: 0x089F [0x80] LOAD_WAIT(entity=Semih Lafihna (ID: 17473694/0x010AA09E))
 23: 0x08A4 [0x29] REQ_SET_WAIT(priority=0x0B, entity_id=Star Sibyl (ID: 17473692/0x010AA09C), tag_num=0x19)
 24: 0x08AB [0x29] REQ_SET_WAIT(priority=0x0B, entity_id=Semih Lafihna (ID: 17473694/0x010AA09E), tag_num=0x19)
 25: 0x08B2 [0x1C] WAIT(50* ticks)
 26: 0x08B5 [0x45] LOAD_SCHEDULED_TASK: Load scheduler "s054" with entities [LocalPlayer, LocalPlayer], work=[70*, 0*]
 27: 0x08C6 [0x45] LOAD_SCHEDULED_TASK: Load scheduler "fdi1" with entities [LocalPlayer, LocalPlayer], work=[200*, 0*]
 28: 0x08D7 [0x1C] WAIT(240* ticks)
 29: 0x08DA [0x52] END_LOAD_SCHEDULER: End scheduler "s054" with entities [LocalPlayer, LocalPlayer], work=70*
 30: 0x08E9 [0x45] LOAD_SCHEDULED_TASK: Load scheduler "ovl1" with entities [LocalPlayer, LocalPlayer], work=[200*, 0*]
 31: 0x08FA [0x45] LOAD_SCHEDULED_TASK: Load scheduler "s056" with entities [LocalPlayer, LocalPlayer], work=[70*, 0*]
 32: 0x090B [0x1C] WAIT(200* ticks)
 33: 0x090E [0x2B] Star Sibyl (ID: 17473692/0x010AA09C) [7239*]:
    → "So cold and dark..."
 34: 0x0915 [0x23] WAIT_FOR_DIALOG_INTERACTION
 35: 0x0916 [0x52] END_LOAD_SCHEDULER: End scheduler "s056" with entities [LocalPlayer, LocalPlayer], work=70*
 36: 0x0925 [0x45] LOAD_SCHEDULED_TASK: Load scheduler "ovl1" with entities [LocalPlayer, LocalPlayer], work=[200*, 0*]
 37: 0x0936 [0x45] LOAD_SCHEDULED_TASK: Load scheduler "s057" with entities [LocalPlayer, LocalPlayer], work=[70*, 0*]
 38: 0x0947 [0x29] REQ_SET_WAIT(priority=0x08, entity_id=Star Sibyl (ID: 17473692/0x010AA09C), tag_num=0x05)
 39: 0x094E [0x2B] Star Sibyl (ID: 17473692/0x010AA09C) [7240*]:
    → "I thought that perhaps the Stars and the Moon might have returned to the fountain... Nothing has changed..."
 40: 0x0955 [0x23] WAIT_FOR_DIALOG_INTERACTION
 41: 0x0956 [0x52] END_LOAD_SCHEDULER: End scheduler "s057" with entities [LocalPlayer, LocalPlayer], work=70*
 42: 0x0965 [0x45] LOAD_SCHEDULED_TASK: Load scheduler "ovl1" with entities [LocalPlayer, LocalPlayer], work=[200*, 0*]
 43: 0x0976 [0x45] LOAD_SCHEDULED_TASK: Load scheduler "s055" with entities [LocalPlayer, LocalPlayer], work=[70*, 0*]
 44: 0x0987 [0x29] REQ_SET_WAIT(priority=0x08, entity_id=Star Sibyl (ID: 17473692/0x010AA09C), tag_num=0x06)
 45: 0x098E [0x27] REQ_SET(priority=0x0B, entity_id=Star Sibyl (ID: 17473692/0x010AA09C), tag_num=0x1A)
 46: 0x0995 [0x2B] Star Sibyl (ID: 17473692/0x010AA09C) [7241*]:
    → "Semih Lafihna, I thank you for bringing me here. I never thought I would be able to stand in this place again."
 47: 0x099C [0x23] WAIT_FOR_DIALOG_INTERACTION
 48: 0x099D [0x2B] Semih Lafihna (ID: 17473694/0x010AA09E) [7242*]:
    → "Star Sibyl..."
 49: 0x09A4 [0x23] WAIT_FOR_DIALOG_INTERACTION
 50: 0x09A5 [0x2A] GET_REQ_LEVEL(level=11, entity_id=Star Sibyl (ID: 17473692/0x010AA09C))
 51: 0x09AB [0x52] END_LOAD_SCHEDULER: End scheduler "s055" with entities [LocalPlayer, LocalPlayer], work=70*
 52: 0x09BA [0x45] LOAD_SCHEDULED_TASK: Load scheduler "ovl1" with entities [LocalPlayer, LocalPlayer], work=[200*, 0*]
 53: 0x09CB [0x45] LOAD_SCHEDULED_TASK: Load scheduler "s058" with entities [LocalPlayer, LocalPlayer], work=[70*, 0*]
 54: 0x09DC [0x2B] Star Sibyl (ID: 17473692/0x010AA09C) [7243*]:
    → "That day, twenty years ago... From that day forward, I honestly believed that I would never return to Full Moon Fountain again."
 55: 0x09E3 [0x23] WAIT_FOR_DIALOG_INTERACTION
 56: 0x09E4 [0x29] REQ_SET_WAIT(priority=0x08, entity_id=Star Sibyl (ID: 17473692/0x010AA09C), tag_num=0x05)
 57: 0x09EB [0x52] END_LOAD_SCHEDULER: End scheduler "s058" with entities [LocalPlayer, LocalPlayer], work=70*
 58: 0x09FA [0x45] LOAD_SCHEDULED_TASK: Load scheduler "ovl1" with entities [LocalPlayer, LocalPlayer], work=[200*, 0*]
 59: 0x0A0B [0x45] LOAD_SCHEDULED_TASK: Load scheduler "s054" with entities [LocalPlayer, LocalPlayer], work=[70*, 0*]
 60: 0x0A1C [0x2B] Star Sibyl (ID: 17473692/0x010AA09C) [7244*]:
    → "The place of Karaha-Baruha's death... A place enveloped in frigid darkness."
 61: 0x0A23 [0x23] WAIT_FOR_DIALOG_INTERACTION
 62: 0x0A24 [0x4B] UPDATE_ENTITY_YAW(entity=Star Sibyl (ID: 17473692/0x010AA09C), yaw=17.1°*)
 63: 0x0A2B [0x2B] Star Sibyl (ID: 17473692/0x010AA09C) [7245*]:
    → "I felt that Windurst would share the same fate as this fountain. A bleak future of eternal night..."
 64: 0x0A32 [0x23] WAIT_FOR_DIALOG_INTERACTION
 65: 0x0A33 [0x6F] WAIT_FRAME_DELAY: Yield until WaitTime reaches zero
 66: 0x0A34 [0x76] CHECK_ENTITY_RENDER_FLAGS: Wait until Star Sibyl (ID: 17473692/0x010AA09C) Render.Flags0 and Render.Flags3 conditions are met
 67: 0x0A39 [0x52] END_LOAD_SCHEDULER: End scheduler "s054" with entities [LocalPlayer, LocalPlayer], work=70*
 68: 0x0A48 [0x45] LOAD_SCHEDULED_TASK: Load scheduler "s059" with entities [LocalPlayer, LocalPlayer], work=[70*, 0*]
 69: 0x0A59 [0x29] REQ_SET_WAIT(priority=0x08, entity_id=Star Sibyl (ID: 17473692/0x010AA09C), tag_num=0x06)
 70: 0x0A60 [0x2B] Star Sibyl (ID: 17473692/0x010AA09C) [7246*]:
    → "I turned my eyes from the darkness and pretended it didn't exist... I ceased to look for the future of Windurst, the future of our people."
 71: 0x0A67 [0x23] WAIT_FOR_DIALOG_INTERACTION
 72: 0x0A68 [0x45] LOAD_SCHEDULED_TASK: Load scheduler "fdo1" with entities [LocalPlayer, LocalPlayer], work=[200*, 0*]
 73: 0x0A79 [0x1C] WAIT(60* ticks)
 74: 0x0A7C [0x2B] Star Sibyl (ID: 17473692/0x010AA09C) [7247*]:
    → "In a world without that guiding light, my fear of the darkness froze my feet upon the path..."
 75: 0x0A83 [0x23] WAIT_FOR_DIALOG_INTERACTION
 76: 0x0A84 [0x29] REQ_SET_WAIT(priority=0x08, entity_id=Semih Lafihna (ID: 17473694/0x010AA09E), tag_num=0x1A)
 77: 0x0A8B [0x52] END_LOAD_SCHEDULER: End scheduler "s059" with entities [LocalPlayer, LocalPlayer], work=70*
 78: 0x0A9A [0x45] LOAD_SCHEDULED_TASK: Load scheduler "s060" with entities [LocalPlayer, LocalPlayer], work=[70*, 0*]
 79: 0x0AAB [0x45] LOAD_SCHEDULED_TASK: Load scheduler "fdi1" with entities [LocalPlayer, LocalPlayer], work=[200*, 0*]
 80: 0x0ABC [0x4A] Star Sibyl (ID: 17473692/0x010AA09C) looks at Semih Lafihna (ID: 17473694/0x010AA09E)
 81: 0x0AC5 [0x79] Semih Lafihna (ID: 17473694/0x010AA09E) looks at Star Sibyl (ID: 17473692/0x010AA09C) (Basic look)
 82: 0x0ACF [0x27] REQ_SET(priority=0x0B, entity_id=Semih Lafihna (ID: 17473694/0x010AA09E), tag_num=0x1B)
 83: 0x0AD6 [0x2A] GET_REQ_LEVEL(level=11, entity_id=Semih Lafihna (ID: 17473694/0x010AA09E))
 84: 0x0ADC [0x2B] Semih Lafihna (ID: 17473694/0x010AA09E) [7248*]:
    → "Star Sibyl, you mustn't be so harsh on yourself."
 85: 0x0AE3 [0x23] WAIT_FOR_DIALOG_INTERACTION
 86: 0x0AE4 [0x52] END_LOAD_SCHEDULER: End scheduler "s060" with entities [LocalPlayer, LocalPlayer], work=70*
 87: 0x0AF3 [0x45] LOAD_SCHEDULED_TASK: Load scheduler "ovl1" with entities [LocalPlayer, LocalPlayer], work=[200*, 0*]
 88: 0x0B04 [0x45] LOAD_SCHEDULED_TASK: Load scheduler "s062" with entities [LocalPlayer, LocalPlayer], work=[70*, 0*]
 89: 0x0B15 [0x29] REQ_SET_WAIT(priority=0x08, entity_id=Semih Lafihna (ID: 17473694/0x010AA09E), tag_num=0x01)
 90: 0x0B1C [0x2B] Semih Lafihna (ID: 17473694/0x010AA09E) [7249*]:
    → "Perhaps you have forgotten that your guidance has allowed Windurst to exist in peace these past twenty years."
 91: 0x0B23 [0x23] WAIT_FOR_DIALOG_INTERACTION
 92: 0x0B24 [0x29] REQ_SET_WAIT(priority=0x08, entity_id=Semih Lafihna (ID: 17473694/0x010AA09E), tag_num=0x02)
 93: 0x0B2B [0x29] REQ_SET_WAIT(priority=0x08, entity_id=Semih Lafihna (ID: 17473694/0x010AA09E), tag_num=0x04)
 94: 0x0B32 [0x2B] Semih Lafihna (ID: 17473694/0x010AA09E) [7250*]:
    → "To the citizens of Windurst, you are the light that shines in the darkness. You are their guiding star."
 95: 0x0B39 [0x23] WAIT_FOR_DIALOG_INTERACTION
 96: 0x0B3A [0x29] REQ_SET_WAIT(priority=0x08, entity_id=Semih Lafihna (ID: 17473694/0x010AA09E), tag_num=0x05)
 97: 0x0B41 [0x29] REQ_SET_WAIT(priority=0x0B, entity_id=Star Sibyl (ID: 17473692/0x010AA09C), tag_num=0x1F)
 98: 0x0B48 [0x52] END_LOAD_SCHEDULER: End scheduler "s062" with entities [LocalPlayer, LocalPlayer], work=70*
 99: 0x0B57 [0x45] LOAD_SCHEDULED_TASK: Load scheduler "ovl1" with entities [LocalPlayer, LocalPlayer], work=[200*, 0*]
100: 0x0B68 [0x45] LOAD_SCHEDULED_TASK: Load scheduler "s061" with entities [LocalPlayer, LocalPlayer], work=[70*, 0*]
101: 0x0B79 [0x29] REQ_SET_WAIT(priority=0x08, entity_id=Star Sibyl (ID: 17473692/0x010AA09C), tag_num=0x05)
102: 0x0B80 [0x2B] Star Sibyl (ID: 17473692/0x010AA09C) [7252*]:
    → "...Semih Lafihna. Thank you..."
103: 0x0B87 [0x23] WAIT_FOR_DIALOG_INTERACTION
104: 0x0B88 [0x52] END_LOAD_SCHEDULER: End scheduler "s061" with entities [LocalPlayer, LocalPlayer], work=70*
105: 0x0B97 [0x45] LOAD_SCHEDULED_TASK: Load scheduler "ovl1" with entities [LocalPlayer, LocalPlayer], work=[200*, 0*]
106: 0x0BA8 [0x45] LOAD_SCHEDULED_TASK: Load scheduler "s063" with entities [LocalPlayer, LocalPlayer], work=[70*, 0*]
107: 0x0BB9 [0x29] REQ_SET_WAIT(priority=0x08, entity_id=Star Sibyl (ID: 17473692/0x010AA09C), tag_num=0x06)
108: 0x0BC0 [0x27] REQ_SET(priority=0x0B, entity_id=Star Sibyl (ID: 17473692/0x010AA09C), tag_num=0x1B)
109: 0x0BC7 [0x2B] Star Sibyl (ID: 17473692/0x010AA09C) [7253*]:
    → "The gentle strength of the Sibyl Guards has always been there to hold me steady..."
110: 0x0BCE [0x23] WAIT_FOR_DIALOG_INTERACTION
111: 0x0BCF [0x2A] GET_REQ_LEVEL(level=11, entity_id=Star Sibyl (ID: 17473692/0x010AA09C))
112: 0x0BD5 [0x52] END_LOAD_SCHEDULER: End scheduler "s063" with entities [LocalPlayer, LocalPlayer], work=70*
113: 0x0BE4 [0x45] LOAD_SCHEDULED_TASK: Load scheduler "ovl1" with entities [LocalPlayer, LocalPlayer], work=[200*, 0*]
114: 0x0BF5 [0x45] LOAD_SCHEDULED_TASK: Load scheduler "s064" with entities [LocalPlayer, LocalPlayer], work=[70*, 0*]
115: 0x0C06 [0x2B] Star Sibyl (ID: 17473692/0x010AA09C) [7254*]:
    → "For your sake as well as mine, we must understand our situation."
116: 0x0C0D [0x23] WAIT_FOR_DIALOG_INTERACTION
117: 0x0C0E [0x2B] Star Sibyl (ID: 17473692/0x010AA09C) [7255*]:
    → "We must discover where we stand, and what lies out there before us."
118: 0x0C15 [0x23] WAIT_FOR_DIALOG_INTERACTION
119: 0x0C16 [0x5D] SET_MUSIC_VOLUME(volume=0*, fade_time=200*)
120: 0x0C1B [0x45] LOAD_SCHEDULED_TASK: Load scheduler "fdo1" with entities [LocalPlayer, LocalPlayer], work=[200*, 0*]
121: 0x0C2C [0x4E] SET_ENTITY_HIDE_FLAG: Show Joker (ID: 17473705/0x010AA0A9)
122: 0x0C32 [0x4E] SET_ENTITY_HIDE_FLAG: Show Ace of Wands (ID: 17473737/0x010AA0C9)
123: 0x0C38 [0x4E] SET_ENTITY_HIDE_FLAG: Show Ace of Swords (ID: 17473738/0x010AA0CA)
124: 0x0C3E [0x4E] SET_ENTITY_HIDE_FLAG: Show King of Wands (ID: 17473709/0x010AA0AD)
125: 0x0C44 [0x4E] SET_ENTITY_HIDE_FLAG: Show King of Swords (ID: 17473710/0x010AA0AE)
126: 0x0C4A [0x4E] SET_ENTITY_HIDE_FLAG: Show King of Cups (ID: 17473711/0x010AA0AF)
127: 0x0C50 [0x4E] SET_ENTITY_HIDE_FLAG: Show King of Batons (ID: 17473712/0x010AA0B0)
128: 0x0C56 [0x4E] SET_ENTITY_HIDE_FLAG: Show Queen of Wands (ID: 17473713/0x010AA0B1)
129: 0x0C5C [0x4E] SET_ENTITY_HIDE_FLAG: Show Queen of Swords (ID: 17473714/0x010AA0B2)
130: 0x0C62 [0x4E] SET_ENTITY_HIDE_FLAG: Show Queen of Cups (ID: 17473715/0x010AA0B3)
131: 0x0C68 [0x4E] SET_ENTITY_HIDE_FLAG: Show Queen of Batons (ID: 17473716/0x010AA0B4)
132: 0x0C6E [0x4E] SET_ENTITY_HIDE_FLAG: Show 01 (ID: 17473717/0x010AA0B5)
133: 0x0C74 [0x4E] SET_ENTITY_HIDE_FLAG: Show 02 (ID: 17473718/0x010AA0B6)
134: 0x0C7A [0x4E] SET_ENTITY_HIDE_FLAG: Show 03 (ID: 17473719/0x010AA0B7)
135: 0x0C80 [0x4E] SET_ENTITY_HIDE_FLAG: Show 04 (ID: 17473720/0x010AA0B8)
136: 0x0C86 [0x4E] SET_ENTITY_HIDE_FLAG: Show 05 (ID: 17473721/0x010AA0B9)
137: 0x0C8C [0x4E] SET_ENTITY_HIDE_FLAG: Show 06 (ID: 17473722/0x010AA0BA)
138: 0x0C92 [0x4E] SET_ENTITY_HIDE_FLAG: Show 07 (ID: 17473723/0x010AA0BB)
139: 0x0C98 [0x4E] SET_ENTITY_HIDE_FLAG: Show 08 (ID: 17473724/0x010AA0BC)
140: 0x0C9E [0x1C] WAIT(200* ticks)
141: 0x0CA1 [0x5C] MUSIC_CONTROL: Set Idle (Day) music to song 157*
142: 0x0CA5 [0x5C] MUSIC_CONTROL: Set Idle (Night) music to song 157*
143: 0x0CA9 [0x80] LOAD_WAIT(entity=Joker (ID: 17473705/0x010AA0A9))
144: 0x0CAE [0x80] LOAD_WAIT(entity=Ace of Wands (ID: 17473737/0x010AA0C9))
145: 0x0CB3 [0x80] LOAD_WAIT(entity=Ace of Swords (ID: 17473738/0x010AA0CA))
146: 0x0CB8 [0x80] LOAD_WAIT(entity=King of Wands (ID: 17473709/0x010AA0AD))
147: 0x0CBD [0x80] LOAD_WAIT(entity=King of Swords (ID: 17473710/0x010AA0AE))
148: 0x0CC2 [0x80] LOAD_WAIT(entity=King of Cups (ID: 17473711/0x010AA0AF))
149: 0x0CC7 [0x80] LOAD_WAIT(entity=King of Batons (ID: 17473712/0x010AA0B0))
150: 0x0CCC [0x80] LOAD_WAIT(entity=Queen of Wands (ID: 17473713/0x010AA0B1))
151: 0x0CD1 [0x80] LOAD_WAIT(entity=Queen of Swords (ID: 17473714/0x010AA0B2))
152: 0x0CD6 [0x80] LOAD_WAIT(entity=Queen of Cups (ID: 17473715/0x010AA0B3))
153: 0x0CDB [0x80] LOAD_WAIT(entity=Queen of Batons (ID: 17473716/0x010AA0B4))
154: 0x0CE0 [0x80] LOAD_WAIT(entity=01 (ID: 17473717/0x010AA0B5))
155: 0x0CE5 [0x80] LOAD_WAIT(entity=02 (ID: 17473718/0x010AA0B6))
156: 0x0CEA [0x80] LOAD_WAIT(entity=03 (ID: 17473719/0x010AA0B7))
157: 0x0CEF [0x80] LOAD_WAIT(entity=04 (ID: 17473720/0x010AA0B8))
158: 0x0CF4 [0x80] LOAD_WAIT(entity=05 (ID: 17473721/0x010AA0B9))
159: 0x0CF9 [0x80] LOAD_WAIT(entity=06 (ID: 17473722/0x010AA0BA))
160: 0x0CFE [0x80] LOAD_WAIT(entity=07 (ID: 17473723/0x010AA0BB))
161: 0x0D03 [0x80] LOAD_WAIT(entity=08 (ID: 17473724/0x010AA0BC))
162: 0x0D08 [0x48] [System] [7256*]:
    → "Yes, that is the kind of determination you need..."
163: 0x0D0B [0x23] WAIT_FOR_DIALOG_INTERACTION
164: 0x0D0C [0x52] END_LOAD_SCHEDULER: End scheduler "s064" with entities [LocalPlayer, LocalPlayer], work=70*
165: 0x0D1B [0x1C] WAIT(60* ticks)
166: 0x0D1E [0x45] LOAD_SCHEDULED_TASK: Load scheduler "ovl1" with entities [LocalPlayer, LocalPlayer], work=[200*, 0*]
167: 0x0D2F [0x45] LOAD_SCHEDULED_TASK: Load scheduler "s069" with entities [LocalPlayer, LocalPlayer], work=[70*, 0*]
168: 0x0D40 [0x45] LOAD_SCHEDULED_TASK: Load scheduler "fdi1" with entities [LocalPlayer, LocalPlayer], work=[200*, 0*]
169: 0x0D51 [0x2B] Star Sibyl (ID: 17473692/0x010AA09C) [7257*]:
    → "...!?"
170: 0x0D58 [0x23] WAIT_FOR_DIALOG_INTERACTION
171: 0x0D59 [0x29] REQ_SET_WAIT(priority=0x0B, entity_id=Semih Lafihna (ID: 17473694/0x010AA09E), tag_num=0x19)
172: 0x0D60 [0x4A] Star Sibyl (ID: 17473692/0x010AA09C) looks at Joker (ID: 17473705/0x010AA0A9)
173: 0x0D69 [0x55] WAIT_LOAD_SCHEDULER: Wait for scheduler "s069" with entities [LocalPlayer, LocalPlayer], work=70*
174: 0x0D78 [0x45] LOAD_SCHEDULED_TASK: Load scheduler "ovl1" with entities [LocalPlayer, LocalPlayer], work=[200*, 0*]
175: 0x0D89 [0x45] LOAD_SCHEDULED_TASK: Load scheduler "s071" with entities [LocalPlayer, LocalPlayer], work=[70*, 0*]
176: 0x0D9A [0x4A] Semih Lafihna (ID: 17473694/0x010AA09E) looks at Joker (ID: 17473705/0x010AA0A9)
177: 0x0DA3 [0x55] WAIT_LOAD_SCHEDULER: Wait for scheduler "s071" with entities [LocalPlayer, LocalPlayer], work=70*
178: 0x0DB2 [0x27] REQ_SET(priority=0x0D, entity_id=Joker (ID: 17473705/0x010AA0A9), tag_num=0x20)
179: 0x0DB9 [0x27] REQ_SET(priority=0x0D, entity_id=Ace of Wands (ID: 17473737/0x010AA0C9), tag_num=0x08)
180: 0x0DC0 [0x27] REQ_SET(priority=0x0D, entity_id=Ace of Swords (ID: 17473738/0x010AA0CA), tag_num=0x08)
181: 0x0DC7 [0x27] REQ_SET(priority=0x0D, entity_id=King of Wands (ID: 17473709/0x010AA0AD), tag_num=0x14)
182: 0x0DCE [0x27] REQ_SET(priority=0x0D, entity_id=King of Swords (ID: 17473710/0x010AA0AE), tag_num=0x14)
183: 0x0DD5 [0x27] REQ_SET(priority=0x0D, entity_id=King of Cups (ID: 17473711/0x010AA0AF), tag_num=0x14)
184: 0x0DDC [0x27] REQ_SET(priority=0x0D, entity_id=King of Batons (ID: 17473712/0x010AA0B0), tag_num=0x14)
185: 0x0DE3 [0x27] REQ_SET(priority=0x0D, entity_id=Queen of Wands (ID: 17473713/0x010AA0B1), tag_num=0x15)
186: 0x0DEA [0x27] REQ_SET(priority=0x0D, entity_id=Queen of Swords (ID: 17473714/0x010AA0B2), tag_num=0x14)
187: 0x0DF1 [0x27] REQ_SET(priority=0x0D, entity_id=Queen of Cups (ID: 17473715/0x010AA0B3), tag_num=0x08)
188: 0x0DF8 [0x27] REQ_SET(priority=0x0D, entity_id=Queen of Batons (ID: 17473716/0x010AA0B4), tag_num=0x08)
189: 0x0DFF [0x27] REQ_SET(priority=0x0D, entity_id=01 (ID: 17473717/0x010AA0B5), tag_num=0x0C)
190: 0x0E06 [0x27] REQ_SET(priority=0x0D, entity_id=02 (ID: 17473718/0x010AA0B6), tag_num=0x0C)
191: 0x0E0D [0x27] REQ_SET(priority=0x0D, entity_id=03 (ID: 17473719/0x010AA0B7), tag_num=0x0C)
192: 0x0E14 [0x27] REQ_SET(priority=0x0D, entity_id=04 (ID: 17473720/0x010AA0B8), tag_num=0x0C)
193: 0x0E1B [0x27] REQ_SET(priority=0x0D, entity_id=05 (ID: 17473721/0x010AA0B9), tag_num=0x0C)
194: 0x0E22 [0x27] REQ_SET(priority=0x0D, entity_id=06 (ID: 17473722/0x010AA0BA), tag_num=0x0C)
195: 0x0E29 [0x27] REQ_SET(priority=0x0D, entity_id=07 (ID: 17473723/0x010AA0BB), tag_num=0x0C)
196: 0x0E30 [0x27] REQ_SET(priority=0x0D, entity_id=08 (ID: 17473724/0x010AA0BC), tag_num=0x0C)
197: 0x0E37 [0x1C] WAIT(20* ticks)
198: 0x0E3A [0x27] REQ_SET(priority=0x0D, entity_id=LocalPlayer, tag_num=0x13)
199: 0x0E41 [0x27] REQ_SET(priority=0x0B, entity_id=Semih Lafihna (ID: 17473694/0x010AA09E), tag_num=0x0C)
200: 0x0E48 [0x6F] WAIT_FRAME_DELAY: Yield until WaitTime reaches zero
201: 0x0E49 [0x76] CHECK_ENTITY_RENDER_FLAGS: Wait until Star Sibyl (ID: 17473692/0x010AA09C) Render.Flags0 and Render.Flags3 conditions are met
202: 0x0E4E [0x6F] WAIT_FRAME_DELAY: Yield until WaitTime reaches zero
203: 0x0E4F [0x76] CHECK_ENTITY_RENDER_FLAGS: Wait until Semih Lafihna (ID: 17473694/0x010AA09E) Render.Flags0 and Render.Flags3 conditions are met
204: 0x0E54 [0x2A] GET_REQ_LEVEL(level=13, entity_id=Ace of Wands (ID: 17473737/0x010AA0C9))
205: 0x0E5A [0x2A] GET_REQ_LEVEL(level=13, entity_id=Ace of Swords (ID: 17473738/0x010AA0CA))
206: 0x0E60 [0x2A] GET_REQ_LEVEL(level=13, entity_id=King of Wands (ID: 17473709/0x010AA0AD))
207: 0x0E66 [0x2A] GET_REQ_LEVEL(level=13, entity_id=King of Swords (ID: 17473710/0x010AA0AE))
208: 0x0E6C [0x2A] GET_REQ_LEVEL(level=13, entity_id=King of Cups (ID: 17473711/0x010AA0AF))
209: 0x0E72 [0x2A] GET_REQ_LEVEL(level=13, entity_id=King of Batons (ID: 17473712/0x010AA0B0))
210: 0x0E78 [0x2A] GET_REQ_LEVEL(level=13, entity_id=Queen of Wands (ID: 17473713/0x010AA0B1))
211: 0x0E7E [0x2A] GET_REQ_LEVEL(level=13, entity_id=Queen of Swords (ID: 17473714/0x010AA0B2))
212: 0x0E84 [0x2A] GET_REQ_LEVEL(level=13, entity_id=Queen of Cups (ID: 17473715/0x010AA0B3))
213: 0x0E8A [0x2A] GET_REQ_LEVEL(level=13, entity_id=Queen of Batons (ID: 17473716/0x010AA0B4))
214: 0x0E90 [0x2A] GET_REQ_LEVEL(level=13, entity_id=Joker (ID: 17473705/0x010AA0A9))
215: 0x0E96 [0x29] REQ_SET_WAIT(priority=0x08, entity_id=Star Sibyl (ID: 17473692/0x010AA09C), tag_num=0x1C)
216: 0x0E9D [0x29] REQ_SET_WAIT(priority=0x08, entity_id=Vahn Paineesha (ID: 17473688/0x010AA098), tag_num=0x1C)
217: 0x0EA4 [0x29] REQ_SET_WAIT(priority=0x08, entity_id=Foo Beibo (ID: 17473687/0x010AA097), tag_num=0x1C)
218: 0x0EAB [0x2A] GET_REQ_LEVEL(level=13, entity_id=LocalPlayer)
219: 0x0EB1 [0x2B] Semih Lafihna (ID: 17473694/0x010AA09E) [7258*]:
    → "Joker!?"
220: 0x0EB8 [0x23] WAIT_FOR_DIALOG_INTERACTION
221: 0x0EB9 [0x2A] GET_REQ_LEVEL(level=11, entity_id=Semih Lafihna (ID: 17473694/0x010AA09E))
222: 0x0EBF [0x29] REQ_SET_WAIT(priority=0x08, entity_id=Joker (ID: 17473705/0x010AA0A9), tag_num=0x1C)
223: 0x0EC6 [0x62] LOAD_EVENT_SCHEDULER: Load scheduler "main" with entities [Joker (ID: 17473705/0x010AA0A9), Semih Lafihna (ID: 17473694/0x010AA09E)], work=[45*, 0*]
224: 0x0ED7 [0x62] LOAD_EVENT_SCHEDULER: Load scheduler "main" with entities [Joker (ID: 17473705/0x010AA0A9), Foo Beibo (ID: 17473687/0x010AA097)], work=[45*, 0*]
225: 0x0EE8 [0x62] LOAD_EVENT_SCHEDULER: Load scheduler "main" with entities [Joker (ID: 17473705/0x010AA0A9), Vahn Paineesha (ID: 17473688/0x010AA098)], work=[45*, 0*]
226: 0x0EF9 [0x1C] WAIT(60* ticks)
227: 0x0EFC [0x45] LOAD_SCHEDULED_TASK: Load scheduler "s068" with entities [Star Sibyl (ID: 17473692/0x010AA09C), Star Sibyl (ID: 17473692/0x010AA09C)], work=[70*, 0*]
228: 0x0F0D [0x27] REQ_SET(priority=0x0A, entity_id=Foo Beibo (ID: 17473687/0x010AA097), tag_num=0x15)
229: 0x0F14 [0x27] REQ_SET(priority=0x0A, entity_id=Vahn Paineesha (ID: 17473688/0x010AA098), tag_num=0x15)
230: 0x0F1B [0x1C] WAIT(60* ticks)
231: 0x0F1E [0x2B] Star Sibyl (ID: 17473692/0x010AA09C) [7259*]:
    → "...!!!"
232: 0x0F25 [0x23] WAIT_FOR_DIALOG_INTERACTION
233: 0x0F26 [0x29] REQ_SET_WAIT(priority=0x08, entity_id=Star Sibyl (ID: 17473692/0x010AA09C), tag_num=0x13)
234: 0x0F2D [0x1C] WAIT(60* ticks)
235: 0x0F30 [0x2A] GET_REQ_LEVEL(level=10, entity_id=Foo Beibo (ID: 17473687/0x010AA097))
236: 0x0F36 [0x2A] GET_REQ_LEVEL(level=10, entity_id=Vahn Paineesha (ID: 17473688/0x010AA098))
237: 0x0F3C [0x4E] SET_ENTITY_HIDE_FLAG: Hide Semih Lafihna (ID: 17473694/0x010AA09E)
238: 0x0F42 [0x4E] SET_ENTITY_HIDE_FLAG: Hide Foo Beibo (ID: 17473687/0x010AA097)
239: 0x0F48 [0x4E] SET_ENTITY_HIDE_FLAG: Hide Vahn Paineesha (ID: 17473688/0x010AA098)
240: 0x0F4E [0x29] REQ_SET_WAIT(priority=0x08, entity_id=Joker (ID: 17473705/0x010AA0A9), tag_num=0x1E)
241: 0x0F55 [0x55] WAIT_LOAD_SCHEDULER: Wait for scheduler "s068" with entities [Star Sibyl (ID: 17473692/0x010AA09C), Star Sibyl (ID: 17473692/0x010AA09C)], work=70*
242: 0x0F64 [0x45] LOAD_SCHEDULED_TASK: Load scheduler "ovl1" with entities [LocalPlayer, LocalPlayer], work=[200*, 0*]
243: 0x0F75 [0x45] LOAD_SCHEDULED_TASK: Load scheduler "s070" with entities [LocalPlayer, LocalPlayer], work=[70*, 0*]
244: 0x0F86 [0x29] REQ_SET_WAIT(priority=0x08, entity_id=Joker (ID: 17473705/0x010AA0A9), tag_num=0x1D)
245: 0x0F8D [0x1C] WAIT(100* ticks)
246: 0x0F90 [0x29] REQ_SET_WAIT(priority=0x08, entity_id=Joker (ID: 17473705/0x010AA0A9), tag_num=0x01)
247: 0x0F97 [0x29] REQ_SET_WAIT(priority=0x0B, entity_id=Joker (ID: 17473705/0x010AA0A9), tag_num=0x23)
248: 0x0F9E [0x29] REQ_SET_WAIT(priority=0x08, entity_id=Star Sibyl (ID: 17473692/0x010AA09C), tag_num=0x17)
249: 0x0FA5 [0x52] END_LOAD_SCHEDULER: End scheduler "s070" with entities [LocalPlayer, LocalPlayer], work=70*
250: 0x0FB4 [0x45] LOAD_SCHEDULED_TASK: Load scheduler "s072" with entities [LocalPlayer, LocalPlayer], work=[70*, 0*]
251: 0x0FC5 [0x27] REQ_SET(priority=0x0B, entity_id=Star Sibyl (ID: 17473692/0x010AA09C), tag_num=0x1D)
252: 0x0FCC [0x2B] Star Sibyl (ID: 17473692/0x010AA09C) [7261*]:
    → "You, it can't be...! What do you mean to do...!?"
253: 0x0FD3 [0x23] WAIT_FOR_DIALOG_INTERACTION
254: 0x0FD4 [0x2A] GET_REQ_LEVEL(level=11, entity_id=Star Sibyl (ID: 17473692/0x010AA09C))
255: 0x0FDA [0x52] END_LOAD_SCHEDULER: End scheduler "s072" with entities [LocalPlayer, LocalPlayer], work=70*
256: 0x0FE9 [0x45] LOAD_SCHEDULED_TASK: Load scheduler "ovl1" with entities [LocalPlayer, LocalPlayer], work=[200*, 0*]
257: 0x0FFA [0x45] LOAD_SCHEDULED_TASK: Load scheduler "s073" with entities [LocalPlayer, LocalPlayer], work=[70*, 0*]
258: 0x100B [0x27] REQ_SET(priority=0x0D, entity_id=Joker (ID: 17473705/0x010AA0A9), tag_num=0x20)
259: 0x1012 [0x27] REQ_SET(priority=0x0D, entity_id=Ace of Wands (ID: 17473737/0x010AA0C9), tag_num=0x08)
260: 0x1019 [0x27] REQ_SET(priority=0x0D, entity_id=Ace of Swords (ID: 17473738/0x010AA0CA), tag_num=0x08)
261: 0x1020 [0x27] REQ_SET(priority=0x0D, entity_id=King of Wands (ID: 17473709/0x010AA0AD), tag_num=0x14)
262: 0x1027 [0x27] REQ_SET(priority=0x0D, entity_id=King of Swords (ID: 17473710/0x010AA0AE), tag_num=0x14)
263: 0x102E [0x27] REQ_SET(priority=0x0D, entity_id=King of Cups (ID: 17473711/0x010AA0AF), tag_num=0x14)
264: 0x1035 [0x27] REQ_SET(priority=0x0D, entity_id=King of Batons (ID: 17473712/0x010AA0B0), tag_num=0x14)
265: 0x103C [0x2B] Joker (ID: 17473705/0x010AA0A9) [7262*]:
    → "It seems you still recognize me, though my form has changed."
266: 0x1043 [0x23] WAIT_FOR_DIALOG_INTERACTION
267: 0x1044 [0x52] END_LOAD_SCHEDULER: End scheduler "s073" with entities [LocalPlayer, LocalPlayer], work=70*
268: 0x1053 [0x45] LOAD_SCHEDULED_TASK: Load scheduler "ovl1" with entities [LocalPlayer, LocalPlayer], work=[200*, 0*]
269: 0x1064 [0x45] LOAD_SCHEDULED_TASK: Load scheduler "s074" with entities [LocalPlayer, LocalPlayer], work=[70*, 0*]
270: 0x1075 [0x2B] Joker (ID: 17473705/0x010AA0A9) [7263*]:
    → "However, you have nothing to fear. I have not come to seek vengeance for past wrongs. And do not be concerned for the Mithra; they have not been harmed."
271: 0x107C [0x23] WAIT_FOR_DIALOG_INTERACTION
272: 0x107D [0x2A] GET_REQ_LEVEL(level=13, entity_id=Joker (ID: 17473705/0x010AA0A9))
273: 0x1083 [0x2A] GET_REQ_LEVEL(level=13, entity_id=Ace of Wands (ID: 17473737/0x010AA0C9))
274: 0x1089 [0x2A] GET_REQ_LEVEL(level=13, entity_id=Ace of Swords (ID: 17473738/0x010AA0CA))
275: 0x108F [0x2A] GET_REQ_LEVEL(level=13, entity_id=King of Wands (ID: 17473709/0x010AA0AD))
276: 0x1095 [0x2A] GET_REQ_LEVEL(level=13, entity_id=King of Swords (ID: 17473710/0x010AA0AE))
277: 0x109B [0x2A] GET_REQ_LEVEL(level=13, entity_id=King of Cups (ID: 17473711/0x010AA0AF))
278: 0x10A1 [0x2A] GET_REQ_LEVEL(level=13, entity_id=King of Batons (ID: 17473712/0x010AA0B0))
279: 0x10A7 [0x52] END_LOAD_SCHEDULER: End scheduler "s074" with entities [LocalPlayer, LocalPlayer], work=70*
280: 0x10B6 [0x45] LOAD_SCHEDULED_TASK: Load scheduler "s077" with entities [LocalPlayer, LocalPlayer], work=[70*, 0*]
281: 0x10C7 [0x29] REQ_SET_WAIT(priority=0x08, entity_id=Joker (ID: 17473705/0x010AA0A9), tag_num=0x1A)
282: 0x10CE [0x2B] Joker (ID: 17473705/0x010AA0A9) [7264*]:
    → "I have come to tell you of the star of hope that you have called forth..."
283: 0x10D5 [0x23] WAIT_FOR_DIALOG_INTERACTION
284: 0x10D6 [0x29] REQ_SET_WAIT(priority=0x08, entity_id=Joker (ID: 17473705/0x010AA0A9), tag_num=0x1B)
285: 0x10DD [0x2B] Joker (ID: 17473705/0x010AA0A9) [7265*]:
    → "I must tell you of all that star has set in motion upon Vana'diel."
286: 0x10E4 [0x23] WAIT_FOR_DIALOG_INTERACTION
287: 0x10E5 [0x52] END_LOAD_SCHEDULER: End scheduler "s077" with entities [LocalPlayer, LocalPlayer], work=70*
288: 0x10F4 [0x45] LOAD_SCHEDULED_TASK: Load scheduler "ovl1" with entities [LocalPlayer, LocalPlayer], work=[200*, 0*]
289: 0x1105 [0x45] LOAD_SCHEDULED_TASK: Load scheduler "s075" with entities [LocalPlayer, LocalPlayer], work=[70*, 0*]
290: 0x1116 [0x2B] Star Sibyl (ID: 17473692/0x010AA09C) [7266*]:
    → "Star of hope I called forth...?"
291: 0x111D [0x23] WAIT_FOR_DIALOG_INTERACTION
292: 0x111E [0x52] END_LOAD_SCHEDULER: End scheduler "s075" with entities [LocalPlayer, LocalPlayer], work=70*
293: 0x112D [0x45] LOAD_SCHEDULED_TASK: Load scheduler "s076" with entities [LocalPlayer, LocalPlayer], work=[70*, 0*]
294: 0x113E [0x29] REQ_SET_WAIT(priority=0x08, entity_id=Joker (ID: 17473705/0x010AA0A9), tag_num=0x1C)
295: 0x1145 [0x29] REQ_SET_WAIT(priority=0x0B, entity_id=Joker (ID: 17473705/0x010AA0A9), tag_num=0x24)
296: 0x114C [0x29] REQ_SET_WAIT(priority=0x08, entity_id=Joker (ID: 17473705/0x010AA0A9), tag_num=0x1D)
297: 0x1153 [0x45] LOAD_SCHEDULED_TASK: Load scheduler "fdo1" with entities [LocalPlayer, LocalPlayer], work=[200*, 0*]
298: 0x1164 [0x1C] WAIT(60* ticks)
299: 0x1167 [0x52] END_LOAD_SCHEDULER: End scheduler "s076" with entities [LocalPlayer, LocalPlayer], work=70*
300: 0x1176 [0x45] LOAD_SCHEDULED_TASK: Load scheduler "s078" with entities [LocalPlayer, LocalPlayer], work=[70*, 0*]
301: 0x1187 [0x45] LOAD_SCHEDULED_TASK: Load scheduler "fdi1" with entities [LocalPlayer, LocalPlayer], work=[200*, 0*]
302: 0x1198 [0x29] REQ_SET_WAIT(priority=0x08, entity_id=Star Sibyl (ID: 17473692/0x010AA09C), tag_num=0x11)
303: 0x119F [0x55] WAIT_LOAD_SCHEDULER: Wait for scheduler "s078" with entities [LocalPlayer, LocalPlayer], work=70*
304: 0x11AE [0x2B] Star Sibyl (ID: 17473692/0x010AA09C) [7269*]:
    → "Yes... I remember, I made a wish to the Star Spring..."
305: 0x11B5 [0x23] WAIT_FOR_DIALOG_INTERACTION
306: 0x11B6 [0x2B] Star Sibyl (ID: 17473692/0x010AA09C) [7270*]:
    → "I could stand my grief no longer... I wished for the help of Karaha-Baruha, dead these long years..."
307: 0x11BD [0x23] WAIT_FOR_DIALOG_INTERACTION
308: 0x11BE [0x29] REQ_SET_WAIT(priority=0x08, entity_id=Star Sibyl (ID: 17473692/0x010AA09C), tag_num=0x12)
309: 0x11C5 [0x29] REQ_SET_WAIT(priority=0x08, entity_id=Joker (ID: 17473705/0x010AA0A9), tag_num=0x1E)
310: 0x11CC [0x45] LOAD_SCHEDULED_TASK: Load scheduler "s079" with entities [LocalPlayer, LocalPlayer], work=[70*, 0*]
311: 0x11DD [0x29] REQ_SET_WAIT(priority=0x08, entity_id=Star Sibyl (ID: 17473692/0x010AA09C), tag_num=0x17)
312: 0x11E4 [0x29] REQ_SET_WAIT(priority=0x08, entity_id=Star Sibyl (ID: 17473692/0x010AA09C), tag_num=0x1E)
313: 0x11EB [0x27] REQ_SET(priority=0x0B, entity_id=Joker (ID: 17473705/0x010AA0A9), tag_num=0x21)
314: 0x11F2 [0x2B] Joker (ID: 17473705/0x010AA0A9) [7271*]:
    → "Yes, that wish... That wish reached the faint amount of power that remained of the Stars and the Moon."
315: 0x11F9 [0x23] WAIT_FOR_DIALOG_INTERACTION
316: 0x11FA [0x2B] Joker (ID: 17473705/0x010AA0A9) [7272*]:
    → "And then, with the strands of magic that bind us together, Karaha-Baruha and I returned from Death's dark hall."
317: 0x1201 [0x23] WAIT_FOR_DIALOG_INTERACTION
318: 0x1202 [0x2A] GET_REQ_LEVEL(level=11, entity_id=Joker (ID: 17473705/0x010AA0A9))
319: 0x1208 [0x52] END_LOAD_SCHEDULER: End scheduler "s079" with entities [LocalPlayer, LocalPlayer], work=70*
320: 0x1217 [0x45] LOAD_SCHEDULED_TASK: Load scheduler "blon" with entities [LocalPlayer, LocalPlayer], work=[200*, 0*]
321: 0x1228 [0x45] LOAD_SCHEDULED_TASK: Load scheduler "blon" with entities [LocalPlayer, LocalPlayer], work=[201*, 0*]
322: 0x1239 [0x45] LOAD_SCHEDULED_TASK: Load scheduler "s080" with entities [LocalPlayer, LocalPlayer], work=[70*, 0*]
323: 0x124A [0x29] REQ_SET_WAIT(priority=0x08, entity_id=Star Sibyl (ID: 17473692/0x010AA09C), tag_num=0x13)
324: 0x1251 [0x2B] Star Sibyl (ID: 17473692/0x010AA09C) [7273*]:
    → "...!!!"
325: 0x1258 [0x23] WAIT_FOR_DIALOG_INTERACTION
326: 0x1259 [0x29] REQ_SET_WAIT(priority=0x08, entity_id=Star Sibyl (ID: 17473692/0x010AA09C), tag_num=0x14)
327: 0x1260 [0x29] REQ_SET_WAIT(priority=0x08, entity_id=Joker (ID: 17473705/0x010AA0A9), tag_num=0x1E)
328: 0x1267 [0x5D] SET_MUSIC_VOLUME(volume=0*, fade_time=200*)
329: 0x126C [0x45] LOAD_SCHEDULED_TASK: Load scheduler "who1" with entities [LocalPlayer, LocalPlayer], work=[201*, 0*]
330: 0x127D [0x1C] WAIT(100* ticks)
331: 0x1280 [0x29] REQ_SET_WAIT(priority=0x08, entity_id=Joker (ID: 17473705/0x010AA0A9), tag_num=0x0B)
332: 0x1287 [0x29] REQ_SET_WAIT(priority=0x08, entity_id=Joker (ID: 17473705/0x010AA0A9), tag_num=0x0C)
333: 0x128E [0x45] LOAD_SCHEDULED_TASK: Load scheduler "blof" with entities [LocalPlayer, LocalPlayer], work=[200*, 0*]
334: 0x129F [0x29] REQ_SET_WAIT(priority=0x08, entity_id=Star Sibyl (ID: 17473692/0x010AA09C), tag_num=0x1E)
335: 0x12A6 [0x52] END_LOAD_SCHEDULER: End scheduler "s080" with entities [LocalPlayer, LocalPlayer], work=70*
336: 0x12B5 [0x29] REQ_SET_WAIT(priority=0x0B, entity_id=LocalPlayer, tag_num=0x15)
337: 0x12BC [0x29] REQ_SET_WAIT(priority=0x0B, entity_id=Ajido-Marujido (ID: 17473693/0x010AA09D), tag_num=0x2D)
338: 0x12C3 [0x4E] SET_ENTITY_HIDE_FLAG: Show LocalPlayer
339: 0x12C9 [0x4E] SET_ENTITY_HIDE_FLAG: Show Ajido-Marujido (ID: 17473693/0x010AA09D)
340: 0x12CF [0x80] LOAD_WAIT(entity=LocalPlayer)
341: 0x12D4 [0x80] LOAD_WAIT(entity=Ajido-Marujido (ID: 17473693/0x010AA09D))
342: 0x12D9 [0x45] LOAD_SCHEDULED_TASK: Load scheduler "s081" with entities [LocalPlayer, LocalPlayer], work=[70*, 0*]
343: 0x12EA [0x45] LOAD_SCHEDULED_TASK: Load scheduler "whi1" with entities [LocalPlayer, LocalPlayer], work=[201*, 0*]
344: 0x12FB [0x29] REQ_SET_WAIT(priority=0x08, entity_id=Joker (ID: 17473705/0x010AA0A9), tag_num=0x1A)
345: 0x1302 [0x2B] Joker (ID: 17473705/0x010AA0A9) [7274*]:
    → "You should be surprised, Star Sibyl. Your hope--your wish--will aid in the restoration of the power of the Stars and the Moon...and bring us closer to the moment we have been waiting for."
346: 0x1309 [0x23] WAIT_FOR_DIALOG_INTERACTION
347: 0x130A [0x29] REQ_SET_WAIT(priority=0x08, entity_id=Joker (ID: 17473705/0x010AA0A9), tag_num=0x1B)
348: 0x1311 [0x29] REQ_SET_WAIT(priority=0x08, entity_id=Joker (ID: 17473705/0x010AA0A9), tag_num=0x1C)
349: 0x1318 [0x2B] Joker (ID: 17473705/0x010AA0A9) [7275*]:
    → "However, for things to be set in motion, I need you to wish alongside me."
350: 0x131F [0x23] WAIT_FOR_DIALOG_INTERACTION
351: 0x1320 [0x29] REQ_SET_WAIT(priority=0x08, entity_id=Joker (ID: 17473705/0x010AA0A9), tag_num=0x1D)
352: 0x1327 [0x52] END_LOAD_SCHEDULER: End scheduler "s081" with entities [LocalPlayer, LocalPlayer], work=70*
353: 0x1336 [0x45] LOAD_SCHEDULED_TASK: Load scheduler "ovl1" with entities [LocalPlayer, LocalPlayer], work=[200*, 0*]
354: 0x1347 [0x45] LOAD_SCHEDULED_TASK: Load scheduler "s082" with entities [LocalPlayer, LocalPlayer], work=[70*, 0*]
355: 0x1358 [0x2B] Star Sibyl (ID: 17473692/0x010AA09C) [7276*]:
    → "...!? You mean...!?"
356: 0x135F [0x23] WAIT_FOR_DIALOG_INTERACTION
357: 0x1360 [0x45] LOAD_SCHEDULED_TASK: Load scheduler "fdo1" with entities [LocalPlayer, LocalPlayer], work=[200*, 0*]
358: 0x1371 [0x1C] WAIT(60* ticks)
359: 0x1374 [0x52] END_LOAD_SCHEDULER: End scheduler "s082" with entities [LocalPlayer, LocalPlayer], work=70*
360: 0x1383 [0x27] REQ_SET(priority=0x0B, entity_id=Semih Lafihna (ID: 17473694/0x010AA09E), tag_num=0x1C)
361: 0x138A [0x2B] Ajido-Marujido (ID: 17473693/0x010AA09D) [7277*]:
    → "Star Sibyl!!!"
362: 0x1391 [0x23] WAIT_FOR_DIALOG_INTERACTION
363: 0x1392 [0x2A] GET_REQ_LEVEL(level=11, entity_id=Semih Lafihna (ID: 17473694/0x010AA09E))
364: 0x1398 [0x2B] Ajido-Marujido (ID: 17473693/0x010AA09D) [7278*]:
    → "...You!?"
365: 0x139F [0x23] WAIT_FOR_DIALOG_INTERACTION
366: 0x13A0 [0x45] LOAD_SCHEDULED_TASK: Load scheduler "ovl1" with entities [LocalPlayer, LocalPlayer], work=[200*, 0*]
367: 0x13B1 [0x45] LOAD_SCHEDULED_TASK: Load scheduler "s086" with entities [LocalPlayer, LocalPlayer], work=[70*, 0*]
368: 0x13C2 [0x27] REQ_SET(priority=0x0B, entity_id=Joker (ID: 17473705/0x010AA0A9), tag_num=0x22)
369: 0x13C9 [0x2B] Joker (ID: 17473705/0x010AA0A9) [7279*]:
    → "It seems your star of hope has already arrived. That brilliant incandescence has shown us through several crossroads."
370: 0x13D0 [0x23] WAIT_FOR_DIALOG_INTERACTION
371: 0x13D1 [0x52] END_LOAD_SCHEDULER: End scheduler "s086" with entities [LocalPlayer, LocalPlayer], work=70*
372: 0x13E0 [0x45] LOAD_SCHEDULED_TASK: Load scheduler "ovl1" with entities [LocalPlayer, LocalPlayer], work=[200*, 0*]
373: 0x13F1 [0x45] LOAD_SCHEDULED_TASK: Load scheduler "s085" with entities [LocalPlayer, LocalPlayer], work=[70*, 0*]
374: 0x1402 [0x2B] Joker (ID: 17473705/0x010AA0A9) [7280*]:
    → "I speak to you now, Star of Hope. Here, I will await your final illumination..."
375: 0x1409 [0x23] WAIT_FOR_DIALOG_INTERACTION
376: 0x140A [0x2A] GET_REQ_LEVEL(level=11, entity_id=Joker (ID: 17473705/0x010AA0A9))
377: 0x1410 [0x52] END_LOAD_SCHEDULER: End scheduler "s085" with entities [LocalPlayer, LocalPlayer], work=70*
378: 0x141F [0x5D] SET_MUSIC_VOLUME(volume=0*, fade_time=200*)
379: 0x1424 [0x45] LOAD_SCHEDULED_TASK: Load scheduler "ovl1" with entities [LocalPlayer, LocalPlayer], work=[200*, 0*]
380: 0x1435 [0x45] LOAD_SCHEDULED_TASK: Load scheduler "s088" with entities [LocalPlayer, LocalPlayer], work=[70*, 0*]
381: 0x1446 [0x29] REQ_SET_WAIT(priority=0x08, entity_id=Joker (ID: 17473705/0x010AA0A9), tag_num=0x1C)
382: 0x144D [0x2B] Joker (ID: 17473705/0x010AA0A9) [7281*]:
    → "Lead the darkened soul to this place of the Stars and the Moon once more...! A time for miracles is upon us!"
383: 0x1454 [0x23] WAIT_FOR_DIALOG_INTERACTION
384: 0x1455 [0x45] LOAD_SCHEDULED_TASK: Load scheduler "who1" with entities [LocalPlayer, LocalPlayer], work=[201*, 0*]
385: 0x1466 [0x1C] WAIT(60* ticks)
386: 0x1469 [0x29] REQ_SET_WAIT(priority=0x08, entity_id=Joker (ID: 17473705/0x010AA0A9), tag_num=0x1D)
387: 0x1470 [0x1C] WAIT(60* ticks)
388: 0x1473 [0x52] END_LOAD_SCHEDULER: End scheduler "s088" with entities [LocalPlayer, LocalPlayer], work=70*
389: 0x1482 [0x1C] WAIT(200* ticks)
390: 0x1485 [0x2D] CREATE_ZONE_SCHEDULER_TASK: Create scheduler "kilk" with entities [LocalPlayer, LocalPlayer]
391: 0x1492 [0x2D] CREATE_ZONE_SCHEDULER_TASK: Create scheduler "hast" with entities [LocalPlayer, LocalPlayer]
392: 0x149F [0x2D] CREATE_ZONE_SCHEDULER_TASK: Create scheduler "izum" with entities [LocalPlayer, LocalPlayer]
393: 0x14AC [0x46] CAMERA_CONTROL: Restore default settings
394: 0x14AE [0x5C] MUSIC_CONTROL: Set Idle (Day) music to song 0*
395: 0x14B2 [0x5C] MUSIC_CONTROL: Set Idle (Night) music to song 0*
396: 0x14B6 [0x1C] WAIT(100* ticks)
397: 0x14B9 [0x45] LOAD_SCHEDULED_TASK: Load scheduler "whi1" with entities [LocalPlayer, LocalPlayer], work=[201*, 0*]
398: 0x14CA [0x45] LOAD_SCHEDULED_TASK: Load scheduler "qstc" with entities [LocalPlayer, LocalPlayer], work=[201*, 0*]
399: 0x14DB [0x20] SET_CLI_EVENT_UC_FLAG: Unlock player control
400: 0x14DD [0x21] END_EVENT
401: 0x14DE [0x00] END_REQSTACK()
```

### Event 32000

#### Metadata

| Field        | Value   |
|--------------|---------|
| Entrypoint   | 0x14DF  |
| Data Size    | 1 bytes |
| Instructions | 1       |

```
      00 01 02 03 04 05 06 07  08 09 0A 0B 0C 0D 0E 0F
      -- -- -- -- -- -- -- --  -- -- -- -- -- -- -- --
14D0:                                               00                 .
```

#### Opcodes

```
  0: 0x14DF [0x00] END_REQSTACK()
```

### Event 62

#### Metadata

| Field        | Value      |
|--------------|------------|
| Entrypoint   | 0x14E0     |
| Data Size    | 6373 bytes |
| Instructions | 764        |

```
      00 01 02 03 04 05 06 07  08 09 0A 0B 0C 0D 0E 0F
      -- -- -- -- -- -- -- --  -- -- -- -- -- -- -- --
14E0: 20 01 42 46 01 5D 00 80  01 80 1C 02 80 38 03 80   .BF.].......8..
14F0: 4E 00 F0 FF FF 7F 4E 00  9C A0 0A 01 4E 00 9D A0  N.....N.....N...
1500: 0A 01 4E 00 A1 A0 0A 01  4E 00 9E A0 0A 01 4E 00  ..N.....N.....N.
1510: A9 A0 0A 01 4E 00 CB A0  0A 01 4E 00 C9 A0 0A 01  ....N.....N.....
1520: 4E 00 CA A0 0A 01 4E 00  CC A0 0A 01 4E 00 AD A0  N.....N.....N...
1530: 0A 01 4E 00 AE A0 0A 01  4E 00 AF A0 0A 01 4E 00  ..N.....N.....N.
1540: B0 A0 0A 01 4E 00 B1 A0  0A 01 4E 00 B2 A0 0A 01  ....N.....N.....
1550: 4E 00 B3 A0 0A 01 4E 00  B4 A0 0A 01 4E 00 B5 A0  N.....N.....N...
1560: 0A 01 4E 00 B6 A0 0A 01  4E 00 B7 A0 0A 01 4E 00  ..N.....N.....N.
1570: B8 A0 0A 01 4E 00 B9 A0  0A 01 4E 00 BA A0 0A 01  ....N.....N.....
1580: 4E 00 BB A0 0A 01 4E 00  BC A0 0A 01 4E 00 BD A0  N.....N.....N...
1590: 0A 01 4E 00 BE A0 0A 01  4E 00 BF A0 0A 01 4E 00  ..N.....N.....N.
15A0: C0 A0 0A 01 4E 00 C1 A0  0A 01 4E 00 C2 A0 0A 01  ....N.....N.....
15B0: 4E 00 C3 A0 0A 01 4E 00  C4 A0 0A 01 4E 00 C5 A0  N.....N.....N...
15C0: 0A 01 4E 00 C6 A0 0A 01  4E 00 C7 A0 0A 01 4E 00  ..N.....N.....N.
15D0: C8 A0 0A 01 4E 00 A8 A0  0A 01 4E 01 A4 A0 0A 01  ....N.....N.....
15E0: 80 9C A0 0A 01 80 9D A0  0A 01 80 9E A0 0A 01 80  ................
15F0: A1 A0 0A 01 80 F0 FF FF  7F 80 A9 A0 0A 01 80 CB  ................
1600: A0 0A 01 80 C9 A0 0A 01  80 CA A0 0A 01 80 CC A0  ................
1610: 0A 01 80 AD A0 0A 01 80  AE A0 0A 01 80 AF A0 0A  ................
1620: 01 80 B0 A0 0A 01 80 B1  A0 0A 01 80 B2 A0 0A 01  ................
1630: 80 B3 A0 0A 01 80 B4 A0  0A 01 80 B5 A0 0A 01 80  ................
1640: B6 A0 0A 01 80 B7 A0 0A  01 80 B8 A0 0A 01 80 B9  ................
1650: A0 0A 01 80 BA A0 0A 01  80 BB A0 0A 01 80 BC A0  ................
1660: 0A 01 80 BD A0 0A 01 80  BE A0 0A 01 80 BF A0 0A  ................
1670: 01 80 C0 A0 0A 01 80 C1  A0 0A 01 80 C2 A0 0A 01  ................
1680: 80 C3 A0 0A 01 80 C4 A0  0A 01 80 C5 A0 0A 01 80  ................
1690: C6 A0 0A 01 80 C7 A0 0A  01 80 C8 A0 0A 01 80 A8  ................
16A0: A0 0A 01 29 08 F0 FF FF  7F 11 2D F0 FF FF 7F F0  ...)......-.....
16B0: FF FF 7F 68 61 65 64 2D  F0 FF FF 7F F0 FF FF 7F  ...haed-........
16C0: 6B 69 6C 68 2D F0 FF FF  7F F0 FF FF 7F 6B 69 6C  kilh-........kil
16D0: 69 29 0B CB A0 0A 01 08  29 0B C9 A0 0A 01 0A 29  i)......)......)
16E0: 0B CA A0 0A 01 0A 29 0B  F0 FF FF 7F 17 29 0B 9C  ......)......)..
16F0: A0 0A 01 22 29 0B 9E A0  0A 01 20 29 0B 9D A0 0A  ...")..... )....
1700: 01 31 29 0B A1 A0 0A 01  20 29 0B A9 A0 0A 01 26  .1)..... ).....&
1710: 29 0B A8 A0 0A 01 0D 92  01 F0 FF FF 7F 92 01 9C  )...............
1720: A0 0A 01 92 01 9E A0 0A  01 92 01 9D A0 0A 01 92  ................
1730: 01 A1 A0 0A 01 92 01 CB  A0 0A 01 92 01 C9 A0 0A  ................
1740: 01 92 01 CA A0 0A 01 92  01 CC A0 0A 01 92 01 AD  ................
1750: A0 0A 01 92 01 AE A0 0A  01 92 01 AF A0 0A 01 92  ................
1760: 01 B0 A0 0A 01 92 01 B1  A0 0A 01 92 01 B2 A0 0A  ................
1770: 01 92 01 B3 A0 0A 01 92  01 B4 A0 0A 01 92 01 B5  ................
1780: A0 0A 01 92 01 B6 A0 0A  01 92 01 B7 A0 0A 01 92  ................
1790: 01 B8 A0 0A 01 92 01 B9  A0 0A 01 92 01 BA A0 0A  ................
17A0: 01 92 01 BB A0 0A 01 92  01 BC A0 0A 01 92 01 BD  ................
17B0: A0 0A 01 92 01 BE A0 0A  01 92 01 BF A0 0A 01 92  ................
17C0: 01 C0 A0 0A 01 92 01 C1  A0 0A 01 92 01 C2 A0 0A  ................
17D0: 01 92 01 C3 A0 0A 01 92  01 C4 A0 0A 01 92 01 C5  ................
17E0: A0 0A 01 92 01 C6 A0 0A  01 92 01 C7 A0 0A 01 92  ................
17F0: 01 C8 A0 0A 01 4E 01 A8  A0 0A 01 5C 00 0B 80 5C  .....N.....\...\
1800: 01 0B 80 1C 02 80 27 0B  A1 A0 0A 01 21 27 0B 9E  ......'.....!'..
1810: A0 0A 01 21 27 0B 9D A0  0A 01 32 27 0D F0 FF FF  ...!'.....2'....
1820: 7F 18 1C 04 80 45 4F 80  A9 A0 0A 01 A9 A0 0A 01  .....EO.........
1830: 73 30 31 34 00 80 45 01  80 F8 FF FF 7F F8 FF FF  s014..E.........
1840: 7F 66 64 69 31 00 80 27  0B B5 A0 0A 01 0E 27 0B  .fdi1..'......'.
1850: B6 A0 0A 01 0E 27 0B B7  A0 0A 01 0E 27 0B B8 A0  .....'......'...
1860: 0A 01 0E 27 0B B9 A0 0A  01 0E 27 0B BA A0 0A 01  ...'......'.....
1870: 0E 27 0B BB A0 0A 01 0E  27 0B BC A0 0A 01 0E 27  .'......'......'
1880: 0B BD A0 0A 01 0C 27 0B  BE A0 0A 01 0C 27 0B BF  ......'......'..
1890: A0 0A 01 0C 27 0B C0 A0  0A 01 0C 27 0B C1 A0 0A  ....'......'....
18A0: 01 0C 27 0B C2 A0 0A 01  0C 27 0B C3 A0 0A 01 0C  ..'......'......
18B0: 27 0B C4 A0 0A 01 0C 27  0B C5 A0 0A 01 0C 27 0B  '......'......'.
18C0: C6 A0 0A 01 0B 1C 02 80  2B 9D A0 0A 01 50 80 23  ........+....P.#
18D0: 2B 9E A0 0A 01 51 80 23  52 4F 80 A9 A0 0A 01 A9  +....Q.#RO......
18E0: A0 0A 01 73 30 31 34 45  4F 80 9D A0 0A 01 9D A0  ...s014EO.......
18F0: 0A 01 73 30 31 35 00 80  1C 04 80 52 4F 80 9D A0  ..s015.....RO...
1900: 0A 01 9D A0 0A 01 73 30  31 35 45 4F 80 F0 FF FF  ......s015EO....
1910: 7F F0 FF FF 7F 73 30 31  36 00 80 1C 04 80 52 4F  .....s016.....RO
1920: 80 F0 FF FF 7F F0 FF FF  7F 73 30 31 36 45 4F 80  .........s016EO.
1930: F0 FF FF 7F F0 FF FF 7F  73 30 31 37 00 80 27 0B  ........s017..'.
1940: AD A0 0A 01 16 27 0B AE  A0 0A 01 16 27 0B AF A0  .....'......'...
1950: 0A 01 16 27 0B B0 A0 0A  01 16 27 0B B1 A0 0A 01  ...'......'.....
1960: 17 27 0B B2 A0 0A 01 16  4A A9 A0 0A 01 F0 FF FF  .'......J.......
1970: 7F 6F 76 A9 A0 0A 01 4A  9C A0 0A 01 F0 FF FF 7F  .ov....J........
1980: 1C 24 80 52 4F 80 F0 FF  FF 7F F0 FF FF 7F 73 30  .$.RO.........s0
1990: 31 37 45 4F 80 F0 FF FF  7F F0 FF FF 7F 73 30 31  17EO.........s01
19A0: 38 00 80 4A AE A0 0A 01  F0 FF FF 7F 4A AD A0 0A  8..J........J...
19B0: 01 F0 FF FF 7F 1C 1E 80  4A B0 A0 0A 01 F0 FF FF  ........J.......
19C0: 7F 4A AF A0 0A 01 F0 FF  FF 7F 1C 1E 80 4A B2 A0  .J...........J..
19D0: 0A 01 F0 FF FF 7F 4A B1  A0 0A 01 F0 FF FF 7F 1C  ......J.........
19E0: 52 80 52 4F 80 F0 FF FF  7F F0 FF FF 7F 73 30 31  R.RO.........s01
19F0: 38 45 01 80 F0 FF FF 7F  F0 FF FF 7F 62 6C 6F 6E  8E..........blon
1A00: 00 80 45 18 80 F0 FF FF  7F F0 FF FF 7F 62 6C 6F  ..E..........blo
1A10: 6E 00 80 45 01 80 F0 FF  FF 7F F0 FF FF 7F 6F 76  n..E..........ov
1A20: 6C 31 00 80 45 4F 80 F0  FF FF 7F F0 FF FF 7F 73  l1..EO.........s
1A30: 30 31 39 00 80 2A 0D F0  FF FF 7F 2A 0B A1 A0 0A  019..*.....*....
1A40: 01 2A 0B 9E A0 0A 01 2A  0B 9D A0 0A 01 29 0B 9C  .*.....*.....)..
1A50: A0 0A 01 25 2A 0B B5 A0  0A 01 2A 0B B6 A0 0A 01  ...%*.....*.....
1A60: 2A 0B B7 A0 0A 01 2A 0B  B8 A0 0A 01 2A 0B B9 A0  *.....*.....*...
1A70: 0A 01 2A 0B BA A0 0A 01  2A 0B BB A0 0A 01 2A 0B  ..*.....*.....*.
1A80: BC A0 0A 01 2A 0B BD A0  0A 01 2A 0B BE A0 0A 01  ....*.....*.....
1A90: 2A 0B BF A0 0A 01 2A 0B  C0 A0 0A 01 2A 0B C1 A0  *.....*.....*...
1AA0: 0A 01 2A 0B C2 A0 0A 01  2A 0B C3 A0 0A 01 2A 0B  ..*.....*.....*.
1AB0: C4 A0 0A 01 2A 0B C5 A0  0A 01 2A 0B C6 A0 0A 01  ....*.....*.....
1AC0: 2A 0B AD A0 0A 01 2A 0B  AE A0 0A 01 2A 0B AF A0  *.....*.....*...
1AD0: 0A 01 2A 0B B0 A0 0A 01  2A 0B B1 A0 0A 01 2A 0B  ..*.....*.....*.
1AE0: B2 A0 0A 01 1C 06 80 45  01 80 F0 FF FF 7F F0 FF  .......E........
1AF0: FF 7F 62 6C 6F 66 00 80  2B 9D A0 0A 01 53 80 23  ..blof..+....S.#
1B00: 1C 05 80 55 4F 80 F0 FF  FF 7F F0 FF FF 7F 73 30  ...UO.........s0
1B10: 31 39 45 4F 80 F0 FF FF  7F F0 FF FF 7F 73 30 32  19EO.........s02
1B20: 30 00 80 29 08 9D A0 0A  01 05 2B 9D A0 0A 01 54  0..)......+....T
1B30: 80 23 52 4F 80 F0 FF FF  7F F0 FF FF 7F 73 30 32  .#RO.........s02
