# 17473701

## Common Data

| Field            | Value                        |
|------------------|------------------------------|
| Zone             | Full Moon Fountain (ID: 170) |
| Block Size       | 104 bytes                    |
| Total Events     | 4                            |
| References Count | 8                            |

## List of Events

| Event ID                 | Entrypoint   |   Size |   Instructions |
|--------------------------|--------------|--------|----------------|
| [65535](#event-65535)    | 0x0000       |      1 |              1 |
| [62](#event-62)          | 0x0001       |      1 |              1 |
| [32004](#event-32004)    | 0x0002       |     23 |              5 |
| [65535.1](#event-655351) | 0x0019       |     13 |              3 |

## DAT References (imed_data)

|   Index | Hex Value   |   Dec Value |
|---------|-------------|-------------|
|       0 | 0xFFFEE5E4  |  4294895076 |
|       1 | 0xE32E      |       58158 |
|       2 | 0x1F40      |        8000 |
|       3 | 0x0451      |        1105 |
|       4 | 0x0000      |           0 |
|       5 | 0x0002      |           2 |
|       6 | 0x00C8      |         200 |
|       7 | 0x0064      |         100 |

## Events

### Event 65535

#### Metadata

| Field        | Value   |
|--------------|---------|
| Entrypoint   | 0x0000  |
| Data Size    | 1 bytes |
| Instructions | 1       |

```
      00 01 02 03 04 05 06 07  08 09 0A 0B 0C 0D 0E 0F
      -- -- -- -- -- -- -- --  -- -- -- -- -- -- -- --
0000: 00                                                .               
```

#### Opcodes

```
  0: 0x0000 [0x00] END_REQSTACK()
```

### Event 62

#### Metadata

| Field        | Value   |
|--------------|---------|
| Entrypoint   | 0x0001  |
| Data Size    | 1 bytes |
| Instructions | 1       |

```
      00 01 02 03 04 05 06 07  08 09 0A 0B 0C 0D 0E 0F
      -- -- -- -- -- -- -- --  -- -- -- -- -- -- -- --
0000:    00                                              .              
```

#### Opcodes

```
  0: 0x0001 [0x00] END_REQSTACK()
```

### Event 32004

#### Metadata

| Field        | Value    |
|--------------|----------|
| Entrypoint   | 0x0002   |
| Data Size    | 23 bytes |
| Instructions | 5        |

```
      00 01 02 03 04 05 06 07  08 09 0A 0B 0C 0D 0E 0F
      -- -- -- -- -- -- -- --  -- -- -- -- -- -- -- --
0000:       33 01 37 00 80 01  80 02 80 03 80 33 01 6C    3.7........3.l
0010: F8 FF FF 7F 04 80 05 80  00                       .........       
```

#### Opcodes

```
  0: 0x0002 [0x33] EventEntity->Render.Flags0 |= 0x200000 // Bit 21 (flag=0x01)
  1: 0x0004 [0x37] UPDATE_EVENT_POSITION_AND_DIR: x=-72.220*, z=58.158*, y=8.000*, direction=97.1°*
  2: 0x000D [0x33] EventEntity->Render.Flags0 |= 0x200000 // Bit 21 (flag=0x01)
  3: 0x000F [0x6C] FADE_ENTITY_COLOR(entity_id=EventEntity, end_alpha=0*, fade_time=2*)
  4: 0x0018 [0x00] END_REQSTACK()
```

### Event 65535.1

#### Metadata

| Field        | Value    |
|--------------|----------|
| Entrypoint   | 0x0019   |
| Data Size    | 13 bytes |
| Instructions | 3        |

```
      00 01 02 03 04 05 06 07  08 09 0A 0B 0C 0D 0E 0F
      -- -- -- -- -- -- -- --  -- -- -- -- -- -- -- --
0010:                             1C 05 80 6C F8 FF FF           ...l...
0020: 7F 06 80 07 80 00                                 ......          
```

#### Opcodes

```
  0: 0x0019 [0x1C] WAIT(2* ticks)
  1: 0x001C [0x6C] FADE_ENTITY_COLOR(entity_id=EventEntity, end_alpha=200*, fade_time=100*)
  2: 0x0025 [0x00] END_REQSTACK()
```
