# 17473692 - Star Sibyl

## Common Data

| Field            | Value                        |
|------------------|------------------------------|
| Zone             | Full Moon Fountain (ID: 170) |
| Block Size       | 1048 bytes                   |
| Total Events     | 47                           |
| References Count | 56                           |

## List of Events

| Event ID                   | Entrypoint   |   Size |   Instructions |
|----------------------------|--------------|--------|----------------|
| [65535](#event-65535)      | 0x0000       |      1 |              1 |
| [65535.1](#event-655351)   | 0x0001       |     16 |              2 |
| [65535.2](#event-655352)   | 0x0011       |     42 |              4 |
| [65535.3](#event-655353)   | 0x003B       |     16 |              2 |
| [65535.4](#event-655354)   | 0x004B       |     14 |              2 |
| [65535.5](#event-655355)   | 0x0059       |     16 |              2 |
| [65535.6](#event-655356)   | 0x0069       |     22 |              4 |
| [65535.7](#event-655357)   | 0x007F       |     16 |              2 |
| [65535.8](#event-655358)   | 0x008F       |     22 |              4 |
| [65535.9](#event-655359)   | 0x00A5       |     16 |              2 |
| [65535.10](#event-6553510) | 0x00B5       |     14 |              2 |
| [65535.11](#event-6553511) | 0x00C3       |     16 |              2 |
| [65535.12](#event-6553512) | 0x00D3       |     14 |              2 |
| [65535.13](#event-6553513) | 0x00E1       |     16 |              2 |
| [65535.14](#event-6553514) | 0x00F1       |     14 |              2 |
| [65535.15](#event-6553515) | 0x00FF       |     16 |              2 |
| [65535.16](#event-6553516) | 0x010F       |     14 |              2 |
| [65535.17](#event-6553517) | 0x011D       |     16 |              2 |
| [65535.18](#event-6553518) | 0x012D       |     14 |              2 |
| [65535.19](#event-6553519) | 0x013B       |     16 |              2 |
| [65535.20](#event-6553520) | 0x014B       |     14 |              2 |
| [65535.21](#event-6553521) | 0x0159       |     16 |              2 |
| [65535.22](#event-6553522) | 0x0169       |     14 |              2 |
| [65535.23](#event-6553523) | 0x0177       |      9 |              3 |
| [61](#event-61)            | 0x0180       |      7 |              2 |
| [65535.24](#event-6553524) | 0x0187       |     10 |              2 |
| [65535.25](#event-6553525) | 0x0191       |     14 |              4 |
| [65535.26](#event-6553526) | 0x019F       |     14 |              4 |
| [65535.27](#event-6553527) | 0x01AD       |     10 |              2 |
| [65535.28](#event-6553528) | 0x01B7       |     14 |              4 |
| [65535.29](#event-6553529) | 0x01C5       |     10 |              2 |
| [65535.30](#event-6553530) | 0x01CF       |     17 |              5 |
| [32000](#event-32000)      | 0x01E0       |      1 |              1 |
| [62](#event-62)            | 0x01E1       |      1 |              1 |
| [65535.31](#event-6553531) | 0x01E2       |     10 |              2 |
| [65535.32](#event-6553532) | 0x01EC       |     14 |              4 |
| [65535.33](#event-6553533) | 0x01FA       |     10 |              2 |
| [65535.34](#event-6553534) | 0x0204       |     10 |              2 |
| [65535.35](#event-6553535) | 0x020E       |     10 |              2 |
| [65535.36](#event-6553536) | 0x0218       |     10 |              2 |
| [65535.37](#event-6553537) | 0x0222       |     10 |              2 |
| [65535.38](#event-6553538) | 0x022C       |     14 |              4 |
| [65535.39](#event-6553539) | 0x023A       |     23 |              5 |
| [65535.40](#event-6553540) | 0x0251       |     15 |              5 |
| [32004](#event-32004)      | 0x0260       |      1 |              1 |
| [32001](#event-32001)      | 0x0261       |      1 |              1 |
| [65535.41](#event-6553541) | 0x0262       |     10 |              2 |

## DAT References (imed_data)

|   Index | Hex Value   |   Dec Value |
|---------|-------------|-------------|
|       0 | 0x00AA      |         170 |
|       1 | 0x001E      |          30 |
|       2 | 0x022A      |         554 |
|       3 | 0xFFFF1619  |  4294907417 |
|       4 | 0xF6A5      |       63141 |
|       5 | 0x249B      |        9371 |
|       6 | 0x0C27      |        3111 |
|       7 | 0x0007      |           7 |
|       8 | 0xEA9E      |       60062 |
|       9 | 0x24BC      |        9404 |
|      10 | 0xFFFF13AC  |  4294906796 |
|      11 | 0xEE48      |       61000 |
|      12 | 0x0474      |        1140 |
|      13 | 0xFFFF153C  |  4294907196 |
|      14 | 0xF230      |       62000 |
|      15 | 0x1C53      |        7251 |
|      16 | 0xFFFF14C8  |  4294907080 |
|      17 | 0xF3E2      |       62434 |
|      18 | 0x24B1      |        9393 |
|      19 | 0x03AA      |         938 |
|      20 | 0xEBC9      |       60361 |
|      21 | 0x24B0      |        9392 |
|      22 | 0xFFFF150E  |  4294907150 |
|      23 | 0xE8DC      |       59612 |
|      24 | 0x24C2      |        9410 |
|      25 | 0x03EF      |        1007 |
|      26 | 0x03B6      |         950 |
|      27 | 0xFFFF1B8A  |  4294908810 |
|      28 | 0xE6A6      |       59046 |
|      29 | 0x2541      |        9537 |
|      30 | 0x0A8F      |        2703 |
|      31 | 0xFFFF58B0  |  4294924464 |
|      32 | 0xF180      |       61824 |
|      33 | 0x2649      |        9801 |
|      34 | 0x06CD      |        1741 |
|      35 | 0xFFFF2346  |  4294910790 |
|      36 | 0xE047      |       57415 |
|      37 | 0x2694      |        9876 |
|      38 | 0x0A32      |        2610 |
|      39 | 0xFFFF1948  |  4294908232 |
|      40 | 0xE493      |       58515 |
|      41 | 0x2548      |        9544 |
|      42 | 0xFFFF1ABF  |  4294908607 |
|      43 | 0xDD6F      |       56687 |
|      44 | 0x25D8      |        9688 |
|      45 | 0x0A6A      |        2666 |
|      46 | 0xFFFF156E  |  4294907246 |
|      47 | 0xE51F      |       58655 |
|      48 | 0x2502      |        9474 |
|      49 | 0xFFFF14E3  |  4294907107 |
|      50 | 0xF289      |       62089 |
|      51 | 0x24A4      |        9380 |
|      52 | 0xFFFF1668  |  4294907496 |
|      53 | 0xF2EA      |       62186 |
|      54 | 0x24B9      |        9401 |
|      55 | 0x0BE6      |        3046 |

## String References

- **7251**: ...

## Events

### Event 65535

#### Metadata

| Field        | Value   |
|--------------|---------|
| Entrypoint   | 0x0000  |
| Data Size    | 1 bytes |
| Instructions | 1       |

```
      00 01 02 03 04 05 06 07  08 09 0A 0B 0C 0D 0E 0F
      -- -- -- -- -- -- -- --  -- -- -- -- -- -- -- --
0000: 00                                                .               
```

#### Opcodes

```
  0: 0x0000 [0x00] END_REQSTACK()
```

### Event 65535.1

#### Metadata

| Field        | Value    |
|--------------|----------|
| Entrypoint   | 0x0001   |
| Data Size    | 16 bytes |
| Instructions | 2        |

```
      00 01 02 03 04 05 06 07  08 09 0A 0B 0C 0D 0E 0F
      -- -- -- -- -- -- -- --  -- -- -- -- -- -- -- --
0000:    5B 00 80 F8 FF FF 7F  F8 FF FF 7F 74 6C 61 30   [..........tla0
0010: 00                                                .               
```

#### Opcodes

```
  0: 0x0001 [0x5B] LOAD_EXT_SCHEDULER: Load scheduler "tla0" with entities [EventEntity, EventEntity], work=170*
  1: 0x0010 [0x00] END_REQSTACK()
```

### Event 65535.2

#### Metadata

| Field        | Value    |
|--------------|----------|
| Entrypoint   | 0x0011   |
| Data Size    | 42 bytes |
| Instructions | 4        |

```
      00 01 02 03 04 05 06 07  08 09 0A 0B 0C 0D 0E 0F
      -- -- -- -- -- -- -- --  -- -- -- -- -- -- -- --
0010:    53 F8 FF FF 7F F8 FF  FF 7F 74 6C 61 30 5B 00   S........tla0[.
0020: 80 F8 FF FF 7F F8 FF FF  7F 74 6C 61 31 53 F8 FF  .........tla1S..
0030: FF 7F F8 FF FF 7F 74 6C  61 31 00                 ......tla1.     
```

#### Opcodes

```
  0: 0x0011 [0x53] WAIT_SCHEDULER_TASK: Wait for scheduler "tla0" with entities [EventEntity, EventEntity]
  1: 0x001E [0x5B] LOAD_EXT_SCHEDULER: Load scheduler "tla1" with entities [EventEntity, EventEntity], work=170*
  2: 0x002D [0x53] WAIT_SCHEDULER_TASK: Wait for scheduler "tla1" with entities [EventEntity, EventEntity]
  3: 0x003A [0x00] END_REQSTACK()
```

### Event 65535.3

#### Metadata

| Field        | Value    |
|--------------|----------|
| Entrypoint   | 0x003B   |
| Data Size    | 16 bytes |
| Instructions | 2        |

```
      00 01 02 03 04 05 06 07  08 09 0A 0B 0C 0D 0E 0F
      -- -- -- -- -- -- -- --  -- -- -- -- -- -- -- --
0030:                                   5B 00 80 F8 FF             [....
0040: FF 7F F8 FF FF 7F 74 6C  62 30 00                 ......tlb0.     
```

#### Opcodes

```
  0: 0x003B [0x5B] LOAD_EXT_SCHEDULER: Load scheduler "tlb0" with entities [EventEntity, EventEntity], work=170*
  1: 0x004A [0x00] END_REQSTACK()
```

### Event 65535.4

#### Metadata

| Field        | Value    |
|--------------|----------|
| Entrypoint   | 0x004B   |
| Data Size    | 14 bytes |
| Instructions | 2        |

```
      00 01 02 03 04 05 06 07  08 09 0A 0B 0C 0D 0E 0F
      -- -- -- -- -- -- -- --  -- -- -- -- -- -- -- --
0040:                                   53 F8 FF FF 7F             S....
0050: F8 FF FF 7F 74 6C 62 30  00                       ....tlb0.       
```

#### Opcodes

```
  0: 0x004B [0x53] WAIT_SCHEDULER_TASK: Wait for scheduler "tlb0" with entities [EventEntity, EventEntity]
  1: 0x0058 [0x00] END_REQSTACK()
```

### Event 65535.5

#### Metadata

| Field        | Value    |
|--------------|----------|
| Entrypoint   | 0x0059   |
| Data Size    | 16 bytes |
| Instructions | 2        |

```
      00 01 02 03 04 05 06 07  08 09 0A 0B 0C 0D 0E 0F
      -- -- -- -- -- -- -- --  -- -- -- -- -- -- -- --
0050:                             5B 00 80 F8 FF FF 7F           [......
0060: F8 FF FF 7F 74 6C 63 30  00                       ....tlc0.       
```

#### Opcodes

```
  0: 0x0059 [0x5B] LOAD_EXT_SCHEDULER: Load scheduler "tlc0" with entities [EventEntity, EventEntity], work=170*
  1: 0x0068 [0x00] END_REQSTACK()
```

### Event 65535.6

#### Metadata

| Field        | Value    |
|--------------|----------|
| Entrypoint   | 0x0069   |
| Data Size    | 22 bytes |
| Instructions | 4        |

```
      00 01 02 03 04 05 06 07  08 09 0A 0B 0C 0D 0E 0F
      -- -- -- -- -- -- -- --  -- -- -- -- -- -- -- --
0060:                             53 F8 FF FF 7F F8 FF           S......
0070: FF 7F 74 6C 63 30 5E 69  64 6C 30 1C 01 80 00     ..tlc0^idl0.... 
```

#### Opcodes

```
  0: 0x0069 [0x53] WAIT_SCHEDULER_TASK: Wait for scheduler "tlc0" with entities [EventEntity, EventEntity]
  1: 0x0076 [0x5E] EventEntity goes idle (kills current action) (animation: "idl0")
  2: 0x007B [0x1C] WAIT(30* ticks)
  3: 0x007E [0x00] END_REQSTACK()
```

### Event 65535.7

#### Metadata

| Field        | Value    |
|--------------|----------|
| Entrypoint   | 0x007F   |
| Data Size    | 16 bytes |
| Instructions | 2        |

```
      00 01 02 03 04 05 06 07  08 09 0A 0B 0C 0D 0E 0F
      -- -- -- -- -- -- -- --  -- -- -- -- -- -- -- --
0070:                                               5B                 [
0080: 00 80 F8 FF FF 7F F8 FF  FF 7F 74 6C 64 30 00     ..........tld0. 
```

#### Opcodes

```
  0: 0x007F [0x5B] LOAD_EXT_SCHEDULER: Load scheduler "tld0" with entities [EventEntity, EventEntity], work=170*
  1: 0x008E [0x00] END_REQSTACK()
```

### Event 65535.8

#### Metadata

| Field        | Value    |
|--------------|----------|
| Entrypoint   | 0x008F   |
| Data Size    | 22 bytes |
| Instructions | 4        |

```
      00 01 02 03 04 05 06 07  08 09 0A 0B 0C 0D 0E 0F
      -- -- -- -- -- -- -- --  -- -- -- -- -- -- -- --
0080:                                               53                 S
0090: F8 FF FF 7F F8 FF FF 7F  74 6C 64 30 5E 69 64 6C  ........tld0^idl
00A0: 30 1C 01 80 00                                    0....           
```

#### Opcodes

```
  0: 0x008F [0x53] WAIT_SCHEDULER_TASK: Wait for scheduler "tld0" with entities [EventEntity, EventEntity]
  1: 0x009C [0x5E] EventEntity goes idle (kills current action) (animation: "idl0")
  2: 0x00A1 [0x1C] WAIT(30* ticks)
  3: 0x00A4 [0x00] END_REQSTACK()
```

### Event 65535.9

#### Metadata

| Field        | Value    |
|--------------|----------|
| Entrypoint   | 0x00A5   |
| Data Size    | 16 bytes |
| Instructions | 2        |

```
      00 01 02 03 04 05 06 07  08 09 0A 0B 0C 0D 0E 0F
      -- -- -- -- -- -- -- --  -- -- -- -- -- -- -- --
00A0:                5B 00 80  F8 FF FF 7F F8 FF FF 7F       [..........
00B0: 74 6C 64 31 00                                    tld1.           
```

#### Opcodes

```
  0: 0x00A5 [0x5B] LOAD_EXT_SCHEDULER: Load scheduler "tld1" with entities [EventEntity, EventEntity], work=170*
  1: 0x00B4 [0x00] END_REQSTACK()
```

### Event 65535.10

#### Metadata

| Field        | Value    |
|--------------|----------|
| Entrypoint   | 0x00B5   |
| Data Size    | 14 bytes |
| Instructions | 2        |

```
      00 01 02 03 04 05 06 07  08 09 0A 0B 0C 0D 0E 0F
      -- -- -- -- -- -- -- --  -- -- -- -- -- -- -- --
00B0:                53 F8 FF  FF 7F F8 FF FF 7F 74 6C       S........tl
00C0: 64 31 00                                          d1.             
```

#### Opcodes

```
  0: 0x00B5 [0x53] WAIT_SCHEDULER_TASK: Wait for scheduler "tld1" with entities [EventEntity, EventEntity]
  1: 0x00C2 [0x00] END_REQSTACK()
```

### Event 65535.11

#### Metadata

| Field        | Value    |
|--------------|----------|
| Entrypoint   | 0x00C3   |
| Data Size    | 16 bytes |
| Instructions | 2        |

```
      00 01 02 03 04 05 06 07  08 09 0A 0B 0C 0D 0E 0F
      -- -- -- -- -- -- -- --  -- -- -- -- -- -- -- --
00C0:          5B 00 80 F8 FF  FF 7F F8 FF FF 7F 74 68     [..........th
00D0: 6B 31 00                                          k1.             
```

#### Opcodes

```
  0: 0x00C3 [0x5B] LOAD_EXT_SCHEDULER: Load scheduler "thk1" with entities [EventEntity, EventEntity], work=170*
  1: 0x00D2 [0x00] END_REQSTACK()
```

### Event 65535.12

#### Metadata

| Field        | Value    |
|--------------|----------|
| Entrypoint   | 0x00D3   |
| Data Size    | 14 bytes |
| Instructions | 2        |

```
      00 01 02 03 04 05 06 07  08 09 0A 0B 0C 0D 0E 0F
      -- -- -- -- -- -- -- --  -- -- -- -- -- -- -- --
00D0:          53 F8 FF FF 7F  F8 FF FF 7F 74 68 6B 31     S........thk1
00E0: 00                                                .               
```

#### Opcodes

```
  0: 0x00D3 [0x53] WAIT_SCHEDULER_TASK: Wait for scheduler "thk1" with entities [EventEntity, EventEntity]
  1: 0x00E0 [0x00] END_REQSTACK()
```

### Event 65535.13

#### Metadata

| Field        | Value    |
|--------------|----------|
| Entrypoint   | 0x00E1   |
| Data Size    | 16 bytes |
| Instructions | 2        |

```
      00 01 02 03 04 05 06 07  08 09 0A 0B 0C 0D 0E 0F
      -- -- -- -- -- -- -- --  -- -- -- -- -- -- -- --
00E0:    5B 00 80 F8 FF FF 7F  F8 FF FF 7F 74 68 6B 32   [..........thk2
00F0: 00                                                .               
```

#### Opcodes

```
  0: 0x00E1 [0x5B] LOAD_EXT_SCHEDULER: Load scheduler "thk2" with entities [EventEntity, EventEntity], work=170*
  1: 0x00F0 [0x00] END_REQSTACK()
```

### Event 65535.14

#### Metadata

| Field        | Value    |
|--------------|----------|
| Entrypoint   | 0x00F1   |
| Data Size    | 14 bytes |
| Instructions | 2        |

```
      00 01 02 03 04 05 06 07  08 09 0A 0B 0C 0D 0E 0F
      -- -- -- -- -- -- -- --  -- -- -- -- -- -- -- --
00F0:    53 F8 FF FF 7F F8 FF  FF 7F 74 68 6B 32 00      S........thk2. 
```

#### Opcodes

```
  0: 0x00F1 [0x53] WAIT_SCHEDULER_TASK: Wait for scheduler "thk2" with entities [EventEntity, EventEntity]
  1: 0x00FE [0x00] END_REQSTACK()
```

### Event 65535.15

#### Metadata

| Field        | Value    |
|--------------|----------|
| Entrypoint   | 0x00FF   |
| Data Size    | 16 bytes |
| Instructions | 2        |

```
      00 01 02 03 04 05 06 07  08 09 0A 0B 0C 0D 0E 0F
      -- -- -- -- -- -- -- --  -- -- -- -- -- -- -- --
00F0:                                               5B                 [
0100: 02 80 F8 FF FF 7F F8 FF  FF 7F 74 74 6D 30 00     ..........ttm0. 
```

#### Opcodes

```
  0: 0x00FF [0x5B] LOAD_EXT_SCHEDULER: Load scheduler "ttm0" with entities [EventEntity, EventEntity], work=554*
  1: 0x010E [0x00] END_REQSTACK()
```

### Event 65535.16

#### Metadata

| Field        | Value    |
|--------------|----------|
| Entrypoint   | 0x010F   |
| Data Size    | 14 bytes |
| Instructions | 2        |

```
      00 01 02 03 04 05 06 07  08 09 0A 0B 0C 0D 0E 0F
      -- -- -- -- -- -- -- --  -- -- -- -- -- -- -- --
0100:                                               53                 S
0110: F8 FF FF 7F F8 FF FF 7F  74 74 6D 30 00           ........ttm0.   
```

#### Opcodes

```
  0: 0x010F [0x53] WAIT_SCHEDULER_TASK: Wait for scheduler "ttm0" with entities [EventEntity, EventEntity]
  1: 0x011C [0x00] END_REQSTACK()
```

### Event 65535.17

#### Metadata

| Field        | Value    |
|--------------|----------|
| Entrypoint   | 0x011D   |
| Data Size    | 16 bytes |
| Instructions | 2        |

```
      00 01 02 03 04 05 06 07  08 09 0A 0B 0C 0D 0E 0F
      -- -- -- -- -- -- -- --  -- -- -- -- -- -- -- --
0110:                                         5B 00 80               [..
0120: F8 FF FF 7F F8 FF FF 7F  7A 65 74 30 00           ........zet0.   
```

#### Opcodes

```
  0: 0x011D [0x5B] LOAD_EXT_SCHEDULER: Load scheduler "zet0" with entities [EventEntity, EventEntity], work=170*
  1: 0x012C [0x00] END_REQSTACK()
```

### Event 65535.18

#### Metadata

| Field        | Value    |
|--------------|----------|
| Entrypoint   | 0x012D   |
| Data Size    | 14 bytes |
| Instructions | 2        |

```
      00 01 02 03 04 05 06 07  08 09 0A 0B 0C 0D 0E 0F
      -- -- -- -- -- -- -- --  -- -- -- -- -- -- -- --
0120:                                         53 F8 FF               S..
0130: FF 7F F8 FF FF 7F 7A 65  74 30 00                 ......zet0.     
```

#### Opcodes

```
  0: 0x012D [0x53] WAIT_SCHEDULER_TASK: Wait for scheduler "zet0" with entities [EventEntity, EventEntity]
  1: 0x013A [0x00] END_REQSTACK()
```

### Event 65535.19

#### Metadata

| Field        | Value    |
|--------------|----------|
| Entrypoint   | 0x013B   |
| Data Size    | 16 bytes |
| Instructions | 2        |

```
      00 01 02 03 04 05 06 07  08 09 0A 0B 0C 0D 0E 0F
      -- -- -- -- -- -- -- --  -- -- -- -- -- -- -- --
0130:                                   5B 00 80 F8 FF             [....
0140: FF 7F F8 FF FF 7F 6F 62  69 30 00                 ......obi0.     
```

#### Opcodes

```
  0: 0x013B [0x5B] LOAD_EXT_SCHEDULER: Load scheduler "obi0" with entities [EventEntity, EventEntity], work=170*
  1: 0x014A [0x00] END_REQSTACK()
```

### Event 65535.20

#### Metadata

| Field        | Value    |
|--------------|----------|
| Entrypoint   | 0x014B   |
| Data Size    | 14 bytes |
| Instructions | 2        |

```
      00 01 02 03 04 05 06 07  08 09 0A 0B 0C 0D 0E 0F
      -- -- -- -- -- -- -- --  -- -- -- -- -- -- -- --
0140:                                   53 F8 FF FF 7F             S....
0150: F8 FF FF 7F 6F 62 69 30  00                       ....obi0.       
```

#### Opcodes

```
  0: 0x014B [0x53] WAIT_SCHEDULER_TASK: Wait for scheduler "obi0" with entities [EventEntity, EventEntity]
  1: 0x0158 [0x00] END_REQSTACK()
```

### Event 65535.21

#### Metadata

| Field        | Value    |
|--------------|----------|
| Entrypoint   | 0x0159   |
| Data Size    | 16 bytes |
| Instructions | 2        |

```
      00 01 02 03 04 05 06 07  08 09 0A 0B 0C 0D 0E 0F
      -- -- -- -- -- -- -- --  -- -- -- -- -- -- -- --
0150:                             5B 00 80 F8 FF FF 7F           [......
0160: F8 FF FF 7F 74 61 6D 30  00                       ....tam0.       
```

#### Opcodes

```
  0: 0x0159 [0x5B] LOAD_EXT_SCHEDULER: Load scheduler "tam0" with entities [EventEntity, EventEntity], work=170*
  1: 0x0168 [0x00] END_REQSTACK()
```

### Event 65535.22

#### Metadata

| Field        | Value    |
|--------------|----------|
| Entrypoint   | 0x0169   |
| Data Size    | 14 bytes |
| Instructions | 2        |

```
      00 01 02 03 04 05 06 07  08 09 0A 0B 0C 0D 0E 0F
      -- -- -- -- -- -- -- --  -- -- -- -- -- -- -- --
0160:                             53 F8 FF FF 7F F8 FF           S......
0170: FF 7F 74 61 6D 30 00                              ..tam0.         
```

#### Opcodes

```
  0: 0x0169 [0x53] WAIT_SCHEDULER_TASK: Wait for scheduler "tam0" with entities [EventEntity, EventEntity]
  1: 0x0176 [0x00] END_REQSTACK()
```

### Event 65535.23

#### Metadata

| Field        | Value   |
|--------------|---------|
| Entrypoint   | 0x0177  |
| Data Size    | 9 bytes |
| Instructions | 3       |

```
      00 01 02 03 04 05 06 07  08 09 0A 0B 0C 0D 0E 0F
      -- -- -- -- -- -- -- --  -- -- -- -- -- -- -- --
0170:                      5E  69 64 6C 30 1C 01 80 00         ^idl0....
```

#### Opcodes

```
  0: 0x0177 [0x5E] EventEntity goes idle (kills current action) (animation: "idl0")
  1: 0x017C [0x1C] WAIT(30* ticks)
  2: 0x017F [0x00] END_REQSTACK()
```

### Event 61

#### Metadata

| Field        | Value   |
|--------------|---------|
| Entrypoint   | 0x0180  |
| Data Size    | 7 bytes |
| Instructions | 2       |

```
      00 01 02 03 04 05 06 07  08 09 0A 0B 0C 0D 0E 0F
      -- -- -- -- -- -- -- --  -- -- -- -- -- -- -- --
0180: 92 01 F8 FF FF 7F 00                              .......         
```

#### Opcodes

```
  0: 0x0180 [0x92] EventEntity->Render.Flags3 ^= 0x01
  1: 0x0186 [0x00] END_REQSTACK()
```

### Event 65535.24

#### Metadata

| Field        | Value    |
|--------------|----------|
| Entrypoint   | 0x0187   |
| Data Size    | 10 bytes |
| Instructions | 2        |

```
      00 01 02 03 04 05 06 07  08 09 0A 0B 0C 0D 0E 0F
      -- -- -- -- -- -- -- --  -- -- -- -- -- -- -- --
0180:                      37  03 80 04 80 05 80 06 80         7........
0190: 00                                                .               
```

#### Opcodes

```
  0: 0x0187 [0x37] UPDATE_EVENT_POSITION_AND_DIR: x=-59.879*, z=63.141*, y=9.371*, direction=273.4°*
  1: 0x0190 [0x00] END_REQSTACK()
```

### Event 65535.25

#### Metadata

| Field        | Value    |
|--------------|----------|
| Entrypoint   | 0x0191   |
| Data Size    | 14 bytes |
| Instructions | 4        |

```
      00 01 02 03 04 05 06 07  08 09 0A 0B 0C 0D 0E 0F
      -- -- -- -- -- -- -- --  -- -- -- -- -- -- -- --
0190:    32 07 80 1F 00 03 80  08 80 09 80 1F 01 00      2............. 
```

#### Opcodes

```
  0: 0x0191 [0x32] ExtData[1]->MainSpeed = 7* * 0.1
  1: 0x0194 [0x1F] MOVE_ENTITY: EventEntity moves to X=-59.879*, Z=60.062*, Y=9.404*
  2: 0x019C [0x1F] MOVE_ENTITY: Update entity position (mode=1)
  3: 0x019E [0x00] END_REQSTACK()
```

### Event 65535.26

#### Metadata

| Field        | Value    |
|--------------|----------|
| Entrypoint   | 0x019F   |
| Data Size    | 14 bytes |
| Instructions | 4        |

```
      00 01 02 03 04 05 06 07  08 09 0A 0B 0C 0D 0E 0F
      -- -- -- -- -- -- -- --  -- -- -- -- -- -- -- --
0190:                                               32                 2
01A0: 07 80 1F 00 03 80 04 80  05 80 1F 01 00           .............   
```

#### Opcodes

```
  0: 0x019F [0x32] ExtData[1]->MainSpeed = 7* * 0.1
  1: 0x01A2 [0x1F] MOVE_ENTITY: EventEntity moves to X=-59.879*, Z=63.141*, Y=9.371*
  2: 0x01AA [0x1F] MOVE_ENTITY: Update entity position (mode=1)
  3: 0x01AC [0x00] END_REQSTACK()
```

### Event 65535.27

#### Metadata

| Field        | Value    |
|--------------|----------|
| Entrypoint   | 0x01AD   |
| Data Size    | 10 bytes |
| Instructions | 2        |

```
      00 01 02 03 04 05 06 07  08 09 0A 0B 0C 0D 0E 0F
      -- -- -- -- -- -- -- --  -- -- -- -- -- -- -- --
01A0:                                         37 0A 80               7..
01B0: 0B 80 09 80 0C 80 00                              .......         
```

#### Opcodes

```
  0: 0x01AD [0x37] UPDATE_EVENT_POSITION_AND_DIR: x=-60.500*, z=61.000*, y=9.404*, direction=100.2°*
  1: 0x01B6 [0x00] END_REQSTACK()
```

### Event 65535.28

#### Metadata

| Field        | Value    |
|--------------|----------|
| Entrypoint   | 0x01B7   |
| Data Size    | 14 bytes |
| Instructions | 4        |

```
      00 01 02 03 04 05 06 07  08 09 0A 0B 0C 0D 0E 0F
      -- -- -- -- -- -- -- --  -- -- -- -- -- -- -- --
01B0:                      32  07 80 1F 00 0A 80 08 80         2........
01C0: 09 80 1F 01 00                                    .....           
```

#### Opcodes

```
  0: 0x01B7 [0x32] ExtData[1]->MainSpeed = 7* * 0.1
  1: 0x01BA [0x1F] MOVE_ENTITY: EventEntity moves to X=-60.500*, Z=60.062*, Y=9.404*
  2: 0x01C2 [0x1F] MOVE_ENTITY: Update entity position (mode=1)
  3: 0x01C4 [0x00] END_REQSTACK()
```

### Event 65535.29

#### Metadata

| Field        | Value    |
|--------------|----------|
| Entrypoint   | 0x01C5   |
| Data Size    | 10 bytes |
| Instructions | 2        |

```
      00 01 02 03 04 05 06 07  08 09 0A 0B 0C 0D 0E 0F
      -- -- -- -- -- -- -- --  -- -- -- -- -- -- -- --
01C0:                37 0D 80  0E 80 09 80 0C 80 00          7......... 
```

#### Opcodes

```
  0: 0x01C5 [0x37] UPDATE_EVENT_POSITION_AND_DIR: x=-60.100*, z=62.000*, y=9.404*, direction=100.2°*
  1: 0x01CE [0x00] END_REQSTACK()
```

### Event 65535.30

#### Metadata

| Field        | Value    |
|--------------|----------|
| Entrypoint   | 0x01CF   |
| Data Size    | 17 bytes |
| Instructions | 5        |

```
      00 01 02 03 04 05 06 07  08 09 0A 0B 0C 0D 0E 0F
      -- -- -- -- -- -- -- --  -- -- -- -- -- -- -- --
01C0:                                               7C                 |
01D0: 00 F8 FF FF 7F 1D 0F 80  23 7C 01 F8 FF FF 7F 00  ........#|......
```

#### Opcodes

```
  0: 0x01CF [0x7C] EventEntity->Render.Flags2 |= 0x00
  1: 0x01D5 [0x1D] PRINT_EVENT_MESSAGE(message_id=7251*)
    → "..."
  2: 0x01D8 [0x23] WAIT_FOR_DIALOG_INTERACTION
  3: 0x01D9 [0x7C] EventEntity->Render.Flags2 |= 0x01
  4: 0x01DF [0x00] END_REQSTACK()
```

### Event 32000

#### Metadata

| Field        | Value   |
|--------------|---------|
| Entrypoint   | 0x01E0  |
| Data Size    | 1 bytes |
| Instructions | 1       |

```
      00 01 02 03 04 05 06 07  08 09 0A 0B 0C 0D 0E 0F
      -- -- -- -- -- -- -- --  -- -- -- -- -- -- -- --
01E0: 00                                                .               
```

#### Opcodes

```
  0: 0x01E0 [0x00] END_REQSTACK()
```

### Event 62

#### Metadata

| Field        | Value   |
|--------------|---------|
| Entrypoint   | 0x01E1  |
| Data Size    | 1 bytes |
| Instructions | 1       |

```
      00 01 02 03 04 05 06 07  08 09 0A 0B 0C 0D 0E 0F
      -- -- -- -- -- -- -- --  -- -- -- -- -- -- -- --
01E0:    00                                              .              
```

#### Opcodes

```
  0: 0x01E1 [0x00] END_REQSTACK()
```

### Event 65535.31

#### Metadata

| Field        | Value    |
|--------------|----------|
| Entrypoint   | 0x01E2   |
| Data Size    | 10 bytes |
| Instructions | 2        |

```
      00 01 02 03 04 05 06 07  08 09 0A 0B 0C 0D 0E 0F
      -- -- -- -- -- -- -- --  -- -- -- -- -- -- -- --
01E0:       37 10 80 11 80 12  80 13 80 00                7.........    
```

#### Opcodes

```
  0: 0x01E2 [0x37] UPDATE_EVENT_POSITION_AND_DIR: x=-60.216*, z=62.434*, y=9.393*, direction=82.4°*
  1: 0x01EB [0x00] END_REQSTACK()
```

### Event 65535.32

#### Metadata

| Field        | Value    |
|--------------|----------|
| Entrypoint   | 0x01EC   |
| Data Size    | 14 bytes |
| Instructions | 4        |

```
      00 01 02 03 04 05 06 07  08 09 0A 0B 0C 0D 0E 0F
      -- -- -- -- -- -- -- --  -- -- -- -- -- -- -- --
01E0:                                      32 07 80 1F              2...
01F0: 00 10 80 14 80 15 80 1F  01 00                    ..........      
```

#### Opcodes

```
  0: 0x01EC [0x32] ExtData[1]->MainSpeed = 7* * 0.1
  1: 0x01EF [0x1F] MOVE_ENTITY: EventEntity moves to X=-60.216*, Z=60.361*, Y=9.392*
  2: 0x01F7 [0x1F] MOVE_ENTITY: Update entity position (mode=1)
  3: 0x01F9 [0x00] END_REQSTACK()
```

### Event 65535.33

#### Metadata

| Field        | Value    |
|--------------|----------|
| Entrypoint   | 0x01FA   |
| Data Size    | 10 bytes |
| Instructions | 2        |

```
      00 01 02 03 04 05 06 07  08 09 0A 0B 0C 0D 0E 0F
      -- -- -- -- -- -- -- --  -- -- -- -- -- -- -- --
01F0:                                37 16 80 17 80 18            7.....
0200: 80 19 80 00                                       ....            
```

#### Opcodes

```
  0: 0x01FA [0x37] UPDATE_EVENT_POSITION_AND_DIR: x=-60.146*, z=59.612*, y=9.410*, direction=88.5°*
  1: 0x0203 [0x00] END_REQSTACK()
```

### Event 65535.34

#### Metadata

| Field        | Value    |
|--------------|----------|
| Entrypoint   | 0x0204   |
| Data Size    | 10 bytes |
| Instructions | 2        |

```
      00 01 02 03 04 05 06 07  08 09 0A 0B 0C 0D 0E 0F
      -- -- -- -- -- -- -- --  -- -- -- -- -- -- -- --
0200:             37 10 80 14  80 15 80 1A 80 00            7.........  
```

#### Opcodes

```
  0: 0x0204 [0x37] UPDATE_EVENT_POSITION_AND_DIR: x=-60.216*, z=60.361*, y=9.392*, direction=83.5°*
  1: 0x020D [0x00] END_REQSTACK()
```

### Event 65535.35

#### Metadata

| Field        | Value    |
|--------------|----------|
| Entrypoint   | 0x020E   |
| Data Size    | 10 bytes |
| Instructions | 2        |

```
      00 01 02 03 04 05 06 07  08 09 0A 0B 0C 0D 0E 0F
      -- -- -- -- -- -- -- --  -- -- -- -- -- -- -- --
0200:                                            37 1B                7.
0210: 80 1C 80 1D 80 1E 80 00                           ........        
```

#### Opcodes

```
  0: 0x020E [0x37] UPDATE_EVENT_POSITION_AND_DIR: x=-58.486*, z=59.046*, y=9.537*, direction=237.6°*
  1: 0x0217 [0x00] END_REQSTACK()
```

### Event 65535.36

#### Metadata

| Field        | Value    |
|--------------|----------|
| Entrypoint   | 0x0218   |
| Data Size    | 10 bytes |
| Instructions | 2        |

```
      00 01 02 03 04 05 06 07  08 09 0A 0B 0C 0D 0E 0F
      -- -- -- -- -- -- -- --  -- -- -- -- -- -- -- --
0210:                          37 1F 80 20 80 21 80 22          7.. .!."
0220: 80 00                                             ..              
```

#### Opcodes

```
  0: 0x0218 [0x37] UPDATE_EVENT_POSITION_AND_DIR: x=-42.832*, z=61.824*, y=9.801*, direction=153.0°*
  1: 0x0221 [0x00] END_REQSTACK()
```

### Event 65535.37

#### Metadata

| Field        | Value    |
|--------------|----------|
| Entrypoint   | 0x0222   |
| Data Size    | 10 bytes |
| Instructions | 2        |

```
      00 01 02 03 04 05 06 07  08 09 0A 0B 0C 0D 0E 0F
      -- -- -- -- -- -- -- --  -- -- -- -- -- -- -- --
0220:       37 23 80 24 80 25  80 26 80 00                7#.$.%.&..    
```

#### Opcodes

```
  0: 0x0222 [0x37] UPDATE_EVENT_POSITION_AND_DIR: x=-56.506*, z=57.415*, y=9.876*, direction=229.4°*
  1: 0x022B [0x00] END_REQSTACK()
```

### Event 65535.38

#### Metadata

| Field        | Value    |
|--------------|----------|
| Entrypoint   | 0x022C   |
| Data Size    | 14 bytes |
| Instructions | 4        |

```
      00 01 02 03 04 05 06 07  08 09 0A 0B 0C 0D 0E 0F
      -- -- -- -- -- -- -- --  -- -- -- -- -- -- -- --
0220:                                      32 07 80 1F              2...
0230: 00 27 80 28 80 29 80 1F  01 00                    .'.(.)....      
```

#### Opcodes

```
  0: 0x022C [0x32] ExtData[1]->MainSpeed = 7* * 0.1
  1: 0x022F [0x1F] MOVE_ENTITY: EventEntity moves to X=-59.064*, Z=58.515*, Y=9.544*
  2: 0x0237 [0x1F] MOVE_ENTITY: Update entity position (mode=1)
  3: 0x0239 [0x00] END_REQSTACK()
```

### Event 65535.39

#### Metadata

| Field        | Value    |
|--------------|----------|
| Entrypoint   | 0x023A   |
| Data Size    | 23 bytes |
| Instructions | 5        |

```
      00 01 02 03 04 05 06 07  08 09 0A 0B 0C 0D 0E 0F
      -- -- -- -- -- -- -- --  -- -- -- -- -- -- -- --
0230:                                37 2A 80 2B 80 2C            7*.+.,
0240: 80 2D 80 32 07 80 1F 00  2E 80 2F 80 30 80 1F 01  .-.2....../.0...
0250: 00                                                .               
```

#### Opcodes

```
  0: 0x023A [0x37] UPDATE_EVENT_POSITION_AND_DIR: x=-58.689*, z=56.687*, y=9.688*, direction=234.3°*
  1: 0x0243 [0x32] ExtData[1]->MainSpeed = 7* * 0.1
  2: 0x0246 [0x1F] MOVE_ENTITY: EventEntity moves to X=-60.050*, Z=58.655*, Y=9.474*
  3: 0x024E [0x1F] MOVE_ENTITY: Update entity position (mode=1)
  4: 0x0250 [0x00] END_REQSTACK()
```

### Event 65535.40

#### Metadata

| Field        | Value    |
|--------------|----------|
| Entrypoint   | 0x0251   |
| Data Size    | 15 bytes |
| Instructions | 5        |

```
      00 01 02 03 04 05 06 07  08 09 0A 0B 0C 0D 0E 0F
      -- -- -- -- -- -- -- --  -- -- -- -- -- -- -- --
0250:    32 07 80 1F 00 31 80  32 80 33 80 1F 01 6F 00   2....1.2.3...o.
```

#### Opcodes

```
  0: 0x0251 [0x32] ExtData[1]->MainSpeed = 7* * 0.1
  1: 0x0254 [0x1F] MOVE_ENTITY: EventEntity moves to X=-60.189*, Z=62.089*, Y=9.380*
  2: 0x025C [0x1F] MOVE_ENTITY: Update entity position (mode=1)
  3: 0x025E [0x6F] WAIT_FRAME_DELAY: Yield until WaitTime reaches zero
  4: 0x025F [0x00] END_REQSTACK()
```

### Event 32004

#### Metadata

| Field        | Value   |
|--------------|---------|
| Entrypoint   | 0x0260  |
| Data Size    | 1 bytes |
| Instructions | 1       |

```
      00 01 02 03 04 05 06 07  08 09 0A 0B 0C 0D 0E 0F
      -- -- -- -- -- -- -- --  -- -- -- -- -- -- -- --
0260: 00                                                .               
```

#### Opcodes

```
  0: 0x0260 [0x00] END_REQSTACK()
```

### Event 32001

#### Metadata

| Field        | Value   |
|--------------|---------|
| Entrypoint   | 0x0261  |
| Data Size    | 1 bytes |
| Instructions | 1       |

```
      00 01 02 03 04 05 06 07  08 09 0A 0B 0C 0D 0E 0F
      -- -- -- -- -- -- -- --  -- -- -- -- -- -- -- --
0260:    00                                              .              
```

#### Opcodes

```
  0: 0x0261 [0x00] END_REQSTACK()
```

### Event 65535.41

#### Metadata

| Field        | Value    |
|--------------|----------|
| Entrypoint   | 0x0262   |
| Data Size    | 10 bytes |
| Instructions | 2        |

```
      00 01 02 03 04 05 06 07  08 09 0A 0B 0C 0D 0E 0F
      -- -- -- -- -- -- -- --  -- -- -- -- -- -- -- --
0260:       37 34 80 35 80 36  80 37 80 00                74.5.6.7..    
```

#### Opcodes

```
  0: 0x0262 [0x37] UPDATE_EVENT_POSITION_AND_DIR: x=-59.800*, z=62.186*, y=9.401*, direction=267.7°*
  1: 0x026B [0x00] END_REQSTACK()
```
