# 17473693 - Ajido-Marujido

## Common Data

| Field            | Value                        |
|------------------|------------------------------|
| Zone             | Full Moon Fountain (ID: 170) |
| Block Size       | 1328 bytes                   |
| Total Events     | 61                           |
| References Count | 67                           |

## List of Events

| Event ID                   | Entrypoint   |   Size |   Instructions |
|----------------------------|--------------|--------|----------------|
| [65535](#event-65535)      | 0x0000       |      1 |              1 |
| [65535.1](#event-655351)   | 0x0001       |     16 |              2 |
| [65535.2](#event-655352)   | 0x0011       |     14 |              2 |
| [65535.3](#event-655353)   | 0x001F       |     16 |              2 |
| [65535.4](#event-655354)   | 0x002F       |     14 |              2 |
| [65535.5](#event-655355)   | 0x003D       |     16 |              2 |
| [65535.6](#event-655356)   | 0x004D       |     14 |              2 |
| [65535.7](#event-655357)   | 0x005B       |     16 |              2 |
| [65535.8](#event-655358)   | 0x006B       |     14 |              2 |
| [65535.9](#event-655359)   | 0x0079       |     16 |              2 |
| [65535.10](#event-6553510) | 0x0089       |     14 |              2 |
| [65535.11](#event-6553511) | 0x0097       |     16 |              2 |
| [65535.12](#event-6553512) | 0x00A7       |     14 |              2 |
| [65535.13](#event-6553513) | 0x00B5       |     16 |              2 |
| [65535.14](#event-6553514) | 0x00C5       |     14 |              2 |
| [65535.15](#event-6553515) | 0x00D3       |     16 |              2 |
| [65535.16](#event-6553516) | 0x00E3       |     14 |              2 |
| [65535.17](#event-6553517) | 0x00F1       |     16 |              2 |
| [65535.18](#event-6553518) | 0x0101       |     14 |              2 |
| [65535.19](#event-6553519) | 0x010F       |     16 |              2 |
| [65535.20](#event-6553520) | 0x011F       |     22 |              4 |
| [65535.21](#event-6553521) | 0x0135       |     16 |              2 |
| [65535.22](#event-6553522) | 0x0145       |     14 |              2 |
| [65535.23](#event-6553523) | 0x0153       |      9 |              3 |
| [65535.24](#event-6553524) | 0x015C       |     16 |              2 |
| [65535.25](#event-6553525) | 0x016C       |     14 |              2 |
| [65535.26](#event-6553526) | 0x017A       |     16 |              2 |
| [65535.27](#event-6553527) | 0x018A       |     14 |              2 |
| [65535.28](#event-6553528) | 0x0198       |     16 |              2 |
| [65535.29](#event-6553529) | 0x01A8       |     14 |              2 |
| [65535.30](#event-6553530) | 0x01B6       |     16 |              2 |
| [65535.31](#event-6553531) | 0x01C6       |     14 |              2 |
| [50](#event-50)            | 0x01D4       |      1 |              1 |
| [65535.32](#event-6553532) | 0x01D5       |     10 |              2 |
| [65535.33](#event-6553533) | 0x01DF       |     14 |              4 |
| [65535.34](#event-6553534) | 0x01ED       |     14 |              4 |
| [65535.35](#event-6553535) | 0x01FB       |     10 |              2 |
| [65535.36](#event-6553536) | 0x0205       |     14 |              4 |
| [65535.37](#event-6553537) | 0x0213       |     14 |              4 |
| [65535.38](#event-6553538) | 0x0221       |      5 |              3 |
| [65535.39](#event-6553539) | 0x0226       |      5 |              3 |
| [65535.40](#event-6553540) | 0x022B       |      5 |              3 |
| [65535.41](#event-6553541) | 0x0230       |      5 |              3 |
| [65535.42](#event-6553542) | 0x0235       |      5 |              3 |
| [61](#event-61)            | 0x023A       |      1 |              1 |
| [65535.43](#event-6553543) | 0x023B       |     10 |              2 |
| [65535.44](#event-6553544) | 0x0245       |     22 |              6 |
| [32000](#event-32000)      | 0x025B       |      1 |              1 |
| [62](#event-62)            | 0x025C       |      1 |              1 |
| [65535.45](#event-6553545) | 0x025D       |     10 |              2 |
| [65535.46](#event-6553546) | 0x0267       |     29 |              7 |
| [65535.47](#event-6553547) | 0x0284       |     10 |              2 |
| [65535.48](#event-6553548) | 0x028E       |     10 |              2 |
| [65535.49](#event-6553549) | 0x0298       |     79 |             10 |
| [65535.50](#event-6553550) | 0x02E7       |      6 |              2 |
| [65535.51](#event-6553551) | 0x02ED       |     10 |              2 |
| [65535.52](#event-6553552) | 0x02F7       |     14 |              4 |
| [65535.53](#event-6553553) | 0x0305       |     10 |              2 |
| [65535.54](#event-6553554) | 0x030F       |     14 |              4 |
| [32004](#event-32004)      | 0x031D       |      1 |              1 |
| [32001](#event-32001)      | 0x031E       |      1 |              1 |

## DAT References (imed_data)

|   Index | Hex Value   |   Dec Value |
|---------|-------------|-------------|
|       0 | 0x00A5      |         165 |
|       1 | 0x0151      |         337 |
|       2 | 0x0155      |         341 |
|       3 | 0x001E      |          30 |
|       4 | 0x0153      |         339 |
|       5 | 0x00A7      |         167 |
|       6 | 0xFFFF14C6  |  4294907078 |
|       7 | 0x5FF8      |       24568 |
|       8 | 0x259A      |        9626 |
|       9 | 0x0C1D      |        3101 |
|      10 | 0x0028      |          40 |
|      11 | 0xFFFF1565  |  4294907237 |
|      12 | 0xF063      |       61539 |
|      13 | 0x24AF      |        9391 |
|      14 | 0xFFFF166C  |  4294907500 |
|      15 | 0xF665      |       63077 |
|      16 | 0x249A      |        9370 |
|      17 | 0xFFFC0879  |  4294707321 |
|      18 | 0xFFFB493B  |  4294658363 |
|      19 | 0x13C8      |        5064 |
|      20 | 0x0C11      |        3089 |
|      21 | 0x000D      |          13 |
|      22 | 0xFFFC0676  |  4294706806 |
|      23 | 0xFFFB3CB2  |  4294655154 |
|      24 | 0x11BA      |        4538 |
|      25 | 0x1C3B      |        7227 |
|      26 | 0x1C3D      |        7229 |
|      27 | 0x1C3E      |        7230 |
|      28 | 0x1C3F      |        7231 |
|      29 | 0x1C42      |        7234 |
|      30 | 0xFFFF16F4  |  4294907636 |
|      31 | 0x01FA      |         506 |
|      32 | 0x2E9A      |       11930 |
|      33 | 0x0B32      |        2866 |
|      34 | 0x0032      |          50 |
|      35 | 0x09CA      |        2506 |
|      36 | 0xFFFF1D2D  |  4294909229 |
|      37 | 0x18C3      |        6339 |
|      38 | 0x2DEB      |       11755 |
|      39 | 0x0BD8      |        3032 |
|      40 | 0xFFFF1976  |  4294908278 |
|      41 | 0x892D      |       35117 |
|      42 | 0x249F      |        9375 |
|      43 | 0xFFFF1801  |  4294907905 |
|      44 | 0x85E9      |       34281 |
|      45 | 0x24CB      |        9419 |
|      46 | 0x0BF9      |        3065 |
|      47 | 0xFFFF1B9A  |  4294908826 |
|      48 | 0x8182      |       33154 |
|      49 | 0x250A      |        9482 |
|      50 | 0x0BE6      |        3046 |
|      51 | 0x0000      |           0 |
|      52 | 0x00C8      |         200 |
|      53 | 0x0001      |           1 |
|      54 | 0xFFFF0FC4  |  4294905796 |
|      55 | 0xE79E      |       59294 |
|      56 | 0x250D      |        9485 |
|      57 | 0x0ED1      |        3793 |
|      58 | 0xE595      |       58773 |
|      59 | 0x2525      |        9509 |
|      60 | 0xFFFF073B  |  4294903611 |
|      61 | 0xDD0E      |       56590 |
|      62 | 0x26B8      |        9912 |
|      63 | 0x0E41      |        3649 |
|      64 | 0xFFFF0956  |  4294904150 |
|      65 | 0xE084      |       57476 |
|      66 | 0x2679      |        9849 |

## String References

- **7227**: It can't be...! This is...
- **7229**: Ordinarily, Full Moon Fountain is brimming with celestial radiance, but with the loss of that light...
- **7230**: ...This must be what the Yagudo king was talking aboutaru!
- **7231**: But wait... If that were true... When the summoner tried to call the great avatar twenty years ago...
- **7234**: Blastaru! They've found me!

## Events

### Event 65535

#### Metadata

| Field        | Value   |
|--------------|---------|
| Entrypoint   | 0x0000  |
| Data Size    | 1 bytes |
| Instructions | 1       |

```
      00 01 02 03 04 05 06 07  08 09 0A 0B 0C 0D 0E 0F
      -- -- -- -- -- -- -- --  -- -- -- -- -- -- -- --
0000: 00                                                .               
```

#### Opcodes

```
  0: 0x0000 [0x00] END_REQSTACK()
```

### Event 65535.1

#### Metadata

| Field        | Value    |
|--------------|----------|
| Entrypoint   | 0x0001   |
| Data Size    | 16 bytes |
| Instructions | 2        |

```
      00 01 02 03 04 05 06 07  08 09 0A 0B 0C 0D 0E 0F
      -- -- -- -- -- -- -- --  -- -- -- -- -- -- -- --
0000:    5B 00 80 F8 FF FF 7F  F8 FF FF 7F 74 6C 6B 30   [..........tlk0
0010: 00                                                .               
```

#### Opcodes

```
  0: 0x0001 [0x5B] LOAD_EXT_SCHEDULER: Load scheduler "tlk0" with entities [EventEntity, EventEntity], work=165*
  1: 0x0010 [0x00] END_REQSTACK()
```

### Event 65535.2

#### Metadata

| Field        | Value    |
|--------------|----------|
| Entrypoint   | 0x0011   |
| Data Size    | 14 bytes |
| Instructions | 2        |

```
      00 01 02 03 04 05 06 07  08 09 0A 0B 0C 0D 0E 0F
      -- -- -- -- -- -- -- --  -- -- -- -- -- -- -- --
0010:    53 F8 FF FF 7F F8 FF  FF 7F 74 6C 6B 30 00      S........tlk0. 
```

#### Opcodes

```
  0: 0x0011 [0x53] WAIT_SCHEDULER_TASK: Wait for scheduler "tlk0" with entities [EventEntity, EventEntity]
  1: 0x001E [0x00] END_REQSTACK()
```

### Event 65535.3

#### Metadata

| Field        | Value    |
|--------------|----------|
| Entrypoint   | 0x001F   |
| Data Size    | 16 bytes |
| Instructions | 2        |

```
      00 01 02 03 04 05 06 07  08 09 0A 0B 0C 0D 0E 0F
      -- -- -- -- -- -- -- --  -- -- -- -- -- -- -- --
0010:                                               5B                 [
0020: 00 80 F8 FF FF 7F F8 FF  FF 7F 74 6C 6B 31 00     ..........tlk1. 
```

#### Opcodes

```
  0: 0x001F [0x5B] LOAD_EXT_SCHEDULER: Load scheduler "tlk1" with entities [EventEntity, EventEntity], work=165*
  1: 0x002E [0x00] END_REQSTACK()
```

### Event 65535.4

#### Metadata

| Field        | Value    |
|--------------|----------|
| Entrypoint   | 0x002F   |
| Data Size    | 14 bytes |
| Instructions | 2        |

```
      00 01 02 03 04 05 06 07  08 09 0A 0B 0C 0D 0E 0F
      -- -- -- -- -- -- -- --  -- -- -- -- -- -- -- --
0020:                                               53                 S
0030: F8 FF FF 7F F8 FF FF 7F  74 6C 6B 31 00           ........tlk1.   
```

#### Opcodes

```
  0: 0x002F [0x53] WAIT_SCHEDULER_TASK: Wait for scheduler "tlk1" with entities [EventEntity, EventEntity]
  1: 0x003C [0x00] END_REQSTACK()
```

### Event 65535.5

#### Metadata

| Field        | Value    |
|--------------|----------|
| Entrypoint   | 0x003D   |
| Data Size    | 16 bytes |
| Instructions | 2        |

```
      00 01 02 03 04 05 06 07  08 09 0A 0B 0C 0D 0E 0F
      -- -- -- -- -- -- -- --  -- -- -- -- -- -- -- --
0030:                                         5B 00 80               [..
0040: F8 FF FF 7F F8 FF FF 7F  6B 62 6B 30 00           ........kbk0.   
```

#### Opcodes

```
  0: 0x003D [0x5B] LOAD_EXT_SCHEDULER: Load scheduler "kbk0" with entities [EventEntity, EventEntity], work=165*
  1: 0x004C [0x00] END_REQSTACK()
```

### Event 65535.6

#### Metadata

| Field        | Value    |
|--------------|----------|
| Entrypoint   | 0x004D   |
| Data Size    | 14 bytes |
| Instructions | 2        |

```
      00 01 02 03 04 05 06 07  08 09 0A 0B 0C 0D 0E 0F
      -- -- -- -- -- -- -- --  -- -- -- -- -- -- -- --
0040:                                         53 F8 FF               S..
0050: FF 7F F8 FF FF 7F 6B 62  6B 30 00                 ......kbk0.     
```

#### Opcodes

```
  0: 0x004D [0x53] WAIT_SCHEDULER_TASK: Wait for scheduler "kbk0" with entities [EventEntity, EventEntity]
  1: 0x005A [0x00] END_REQSTACK()
```

### Event 65535.7

#### Metadata

| Field        | Value    |
|--------------|----------|
| Entrypoint   | 0x005B   |
| Data Size    | 16 bytes |
| Instructions | 2        |

```
      00 01 02 03 04 05 06 07  08 09 0A 0B 0C 0D 0E 0F
      -- -- -- -- -- -- -- --  -- -- -- -- -- -- -- --
0050:                                   5B 00 80 F8 FF             [....
0060: FF 7F F8 FF FF 7F 6B 62  6B 31 00                 ......kbk1.     
```

#### Opcodes

```
  0: 0x005B [0x5B] LOAD_EXT_SCHEDULER: Load scheduler "kbk1" with entities [EventEntity, EventEntity], work=165*
  1: 0x006A [0x00] END_REQSTACK()
```

### Event 65535.8

#### Metadata

| Field        | Value    |
|--------------|----------|
| Entrypoint   | 0x006B   |
| Data Size    | 14 bytes |
| Instructions | 2        |

```
      00 01 02 03 04 05 06 07  08 09 0A 0B 0C 0D 0E 0F
      -- -- -- -- -- -- -- --  -- -- -- -- -- -- -- --
0060:                                   53 F8 FF FF 7F             S....
0070: F8 FF FF 7F 6B 62 6B 31  00                       ....kbk1.       
```

#### Opcodes

```
  0: 0x006B [0x53] WAIT_SCHEDULER_TASK: Wait for scheduler "kbk1" with entities [EventEntity, EventEntity]
  1: 0x0078 [0x00] END_REQSTACK()
```

### Event 65535.9

#### Metadata

| Field        | Value    |
|--------------|----------|
| Entrypoint   | 0x0079   |
| Data Size    | 16 bytes |
| Instructions | 2        |

```
      00 01 02 03 04 05 06 07  08 09 0A 0B 0C 0D 0E 0F
      -- -- -- -- -- -- -- --  -- -- -- -- -- -- -- --
0070:                             5B 00 80 F8 FF FF 7F           [......
0080: F8 FF FF 7F 73 70 70 30  00                       ....spp0.       
```

#### Opcodes

```
  0: 0x0079 [0x5B] LOAD_EXT_SCHEDULER: Load scheduler "spp0" with entities [EventEntity, EventEntity], work=165*
  1: 0x0088 [0x00] END_REQSTACK()
```

### Event 65535.10

#### Metadata

| Field        | Value    |
|--------------|----------|
| Entrypoint   | 0x0089   |
| Data Size    | 14 bytes |
| Instructions | 2        |

```
      00 01 02 03 04 05 06 07  08 09 0A 0B 0C 0D 0E 0F
      -- -- -- -- -- -- -- --  -- -- -- -- -- -- -- --
0080:                             53 F8 FF FF 7F F8 FF           S......
0090: FF 7F 73 70 70 30 00                              ..spp0.         
```

#### Opcodes

```
  0: 0x0089 [0x53] WAIT_SCHEDULER_TASK: Wait for scheduler "spp0" with entities [EventEntity, EventEntity]
  1: 0x0096 [0x00] END_REQSTACK()
```

### Event 65535.11

#### Metadata

| Field        | Value    |
|--------------|----------|
| Entrypoint   | 0x0097   |
| Data Size    | 16 bytes |
| Instructions | 2        |

```
      00 01 02 03 04 05 06 07  08 09 0A 0B 0C 0D 0E 0F
      -- -- -- -- -- -- -- --  -- -- -- -- -- -- -- --
0090:                      5B  00 80 F8 FF FF 7F F8 FF         [........
00A0: FF 7F 73 70 70 31 00                              ..spp1.         
```

#### Opcodes

```
  0: 0x0097 [0x5B] LOAD_EXT_SCHEDULER: Load scheduler "spp1" with entities [EventEntity, EventEntity], work=165*
  1: 0x00A6 [0x00] END_REQSTACK()
```

### Event 65535.12

#### Metadata

| Field        | Value    |
|--------------|----------|
| Entrypoint   | 0x00A7   |
| Data Size    | 14 bytes |
| Instructions | 2        |

```
      00 01 02 03 04 05 06 07  08 09 0A 0B 0C 0D 0E 0F
      -- -- -- -- -- -- -- --  -- -- -- -- -- -- -- --
00A0:                      53  F8 FF FF 7F F8 FF FF 7F         S........
00B0: 73 70 70 31 00                                    spp1.           
```

#### Opcodes

```
  0: 0x00A7 [0x53] WAIT_SCHEDULER_TASK: Wait for scheduler "spp1" with entities [EventEntity, EventEntity]
  1: 0x00B4 [0x00] END_REQSTACK()
```

### Event 65535.13

#### Metadata

| Field        | Value    |
|--------------|----------|
| Entrypoint   | 0x00B5   |
| Data Size    | 16 bytes |
| Instructions | 2        |

```
      00 01 02 03 04 05 06 07  08 09 0A 0B 0C 0D 0E 0F
      -- -- -- -- -- -- -- --  -- -- -- -- -- -- -- --
00B0:                5B 01 80  F8 FF FF 7F F8 FF FF 7F       [..........
00C0: 74 68 6B 31 00                                    thk1.           
```

#### Opcodes

```
  0: 0x00B5 [0x5B] LOAD_EXT_SCHEDULER: Load scheduler "thk1" with entities [EventEntity, EventEntity], work=337*
  1: 0x00C4 [0x00] END_REQSTACK()
```

### Event 65535.14

#### Metadata

| Field        | Value    |
|--------------|----------|
| Entrypoint   | 0x00C5   |
| Data Size    | 14 bytes |
| Instructions | 2        |

```
      00 01 02 03 04 05 06 07  08 09 0A 0B 0C 0D 0E 0F
      -- -- -- -- -- -- -- --  -- -- -- -- -- -- -- --
00C0:                53 F8 FF  FF 7F F8 FF FF 7F 74 68       S........th
00D0: 6B 31 00                                          k1.             
```

#### Opcodes

```
  0: 0x00C5 [0x53] WAIT_SCHEDULER_TASK: Wait for scheduler "thk1" with entities [EventEntity, EventEntity]
  1: 0x00D2 [0x00] END_REQSTACK()
```

### Event 65535.15

#### Metadata

| Field        | Value    |
|--------------|----------|
| Entrypoint   | 0x00D3   |
| Data Size    | 16 bytes |
| Instructions | 2        |

```
      00 01 02 03 04 05 06 07  08 09 0A 0B 0C 0D 0E 0F
      -- -- -- -- -- -- -- --  -- -- -- -- -- -- -- --
00D0:          5B 01 80 F8 FF  FF 7F F8 FF FF 7F 74 68     [..........th
00E0: 6B 32 00                                          k2.             
```

#### Opcodes

```
  0: 0x00D3 [0x5B] LOAD_EXT_SCHEDULER: Load scheduler "thk2" with entities [EventEntity, EventEntity], work=337*
  1: 0x00E2 [0x00] END_REQSTACK()
```

### Event 65535.16

#### Metadata

| Field        | Value    |
|--------------|----------|
| Entrypoint   | 0x00E3   |
| Data Size    | 14 bytes |
| Instructions | 2        |

```
      00 01 02 03 04 05 06 07  08 09 0A 0B 0C 0D 0E 0F
      -- -- -- -- -- -- -- --  -- -- -- -- -- -- -- --
00E0:          53 F8 FF FF 7F  F8 FF FF 7F 74 68 6B 32     S........thk2
00F0: 00                                                .               
```

#### Opcodes

```
  0: 0x00E3 [0x53] WAIT_SCHEDULER_TASK: Wait for scheduler "thk2" with entities [EventEntity, EventEntity]
  1: 0x00F0 [0x00] END_REQSTACK()
```

### Event 65535.17

#### Metadata

| Field        | Value    |
|--------------|----------|
| Entrypoint   | 0x00F1   |
| Data Size    | 16 bytes |
| Instructions | 2        |

```
      00 01 02 03 04 05 06 07  08 09 0A 0B 0C 0D 0E 0F
      -- -- -- -- -- -- -- --  -- -- -- -- -- -- -- --
00F0:    5B 01 80 F8 FF FF 7F  F8 FF FF 7F 70 61 73 30   [..........pas0
0100: 00                                                .               
```

#### Opcodes

```
  0: 0x00F1 [0x5B] LOAD_EXT_SCHEDULER: Load scheduler "pas0" with entities [EventEntity, EventEntity], work=337*
  1: 0x0100 [0x00] END_REQSTACK()
```

### Event 65535.18

#### Metadata

| Field        | Value    |
|--------------|----------|
| Entrypoint   | 0x0101   |
| Data Size    | 14 bytes |
| Instructions | 2        |

```
      00 01 02 03 04 05 06 07  08 09 0A 0B 0C 0D 0E 0F
      -- -- -- -- -- -- -- --  -- -- -- -- -- -- -- --
0100:    53 F8 FF FF 7F F8 FF  FF 7F 70 61 73 30 00      S........pas0. 
```

#### Opcodes

```
  0: 0x0101 [0x53] WAIT_SCHEDULER_TASK: Wait for scheduler "pas0" with entities [EventEntity, EventEntity]
  1: 0x010E [0x00] END_REQSTACK()
```

### Event 65535.19

#### Metadata

| Field        | Value    |
|--------------|----------|
| Entrypoint   | 0x010F   |
| Data Size    | 16 bytes |
| Instructions | 2        |

```
      00 01 02 03 04 05 06 07  08 09 0A 0B 0C 0D 0E 0F
      -- -- -- -- -- -- -- --  -- -- -- -- -- -- -- --
0100:                                               5B                 [
0110: 02 80 F8 FF FF 7F F8 FF  FF 7F 62 69 6B 30 00     ..........bik0. 
```

#### Opcodes

```
  0: 0x010F [0x5B] LOAD_EXT_SCHEDULER: Load scheduler "bik0" with entities [EventEntity, EventEntity], work=341*
  1: 0x011E [0x00] END_REQSTACK()
```

### Event 65535.20

#### Metadata

| Field        | Value    |
|--------------|----------|
| Entrypoint   | 0x011F   |
| Data Size    | 22 bytes |
| Instructions | 4        |

```
      00 01 02 03 04 05 06 07  08 09 0A 0B 0C 0D 0E 0F
      -- -- -- -- -- -- -- --  -- -- -- -- -- -- -- --
0110:                                               53                 S
0120: F8 FF FF 7F F8 FF FF 7F  62 69 6B 30 5E 69 64 6C  ........bik0^idl
0130: 30 1C 03 80 00                                    0....           
```

#### Opcodes

```
  0: 0x011F [0x53] WAIT_SCHEDULER_TASK: Wait for scheduler "bik0" with entities [EventEntity, EventEntity]
  1: 0x012C [0x5E] EventEntity goes idle (kills current action) (animation: "idl0")
  2: 0x0131 [0x1C] WAIT(30* ticks)
  3: 0x0134 [0x00] END_REQSTACK()
```

### Event 65535.21

#### Metadata

| Field        | Value    |
|--------------|----------|
| Entrypoint   | 0x0135   |
| Data Size    | 16 bytes |
| Instructions | 2        |

```
      00 01 02 03 04 05 06 07  08 09 0A 0B 0C 0D 0E 0F
      -- -- -- -- -- -- -- --  -- -- -- -- -- -- -- --
0130:                5B 04 80  F8 FF FF 7F F8 FF FF 7F       [..........
0140: 73 68 6B 30 00                                    shk0.           
```

#### Opcodes

```
  0: 0x0135 [0x5B] LOAD_EXT_SCHEDULER: Load scheduler "shk0" with entities [EventEntity, EventEntity], work=339*
  1: 0x0144 [0x00] END_REQSTACK()
```

### Event 65535.22

#### Metadata

| Field        | Value    |
|--------------|----------|
| Entrypoint   | 0x0145   |
| Data Size    | 14 bytes |
| Instructions | 2        |

```
      00 01 02 03 04 05 06 07  08 09 0A 0B 0C 0D 0E 0F
      -- -- -- -- -- -- -- --  -- -- -- -- -- -- -- --
0140:                53 F8 FF  FF 7F F8 FF FF 7F 73 68       S........sh
0150: 6B 30 00                                          k0.             
```

#### Opcodes

```
  0: 0x0145 [0x53] WAIT_SCHEDULER_TASK: Wait for scheduler "shk0" with entities [EventEntity, EventEntity]
  1: 0x0152 [0x00] END_REQSTACK()
```

### Event 65535.23

#### Metadata

| Field        | Value   |
|--------------|---------|
| Entrypoint   | 0x0153  |
| Data Size    | 9 bytes |
| Instructions | 3       |

```
      00 01 02 03 04 05 06 07  08 09 0A 0B 0C 0D 0E 0F
      -- -- -- -- -- -- -- --  -- -- -- -- -- -- -- --
0150:          5E 69 64 6C 30  1C 03 80 00                 ^idl0....    
```

#### Opcodes

```
  0: 0x0153 [0x5E] EventEntity goes idle (kills current action) (animation: "idl0")
  1: 0x0158 [0x1C] WAIT(30* ticks)
  2: 0x015B [0x00] END_REQSTACK()
```

### Event 65535.24

#### Metadata

| Field        | Value    |
|--------------|----------|
| Entrypoint   | 0x015C   |
| Data Size    | 16 bytes |
| Instructions | 2        |

```
      00 01 02 03 04 05 06 07  08 09 0A 0B 0C 0D 0E 0F
      -- -- -- -- -- -- -- --  -- -- -- -- -- -- -- --
0150:                                      5B 00 80 F8              [...
0160: FF FF 7F F8 FF FF 7F 6D  61 68 30 00              .......mah0.    
```

#### Opcodes

```
  0: 0x015C [0x5B] LOAD_EXT_SCHEDULER: Load scheduler "mah0" with entities [EventEntity, EventEntity], work=165*
  1: 0x016B [0x00] END_REQSTACK()
```

### Event 65535.25

#### Metadata

| Field        | Value    |
|--------------|----------|
| Entrypoint   | 0x016C   |
| Data Size    | 14 bytes |
| Instructions | 2        |

```
      00 01 02 03 04 05 06 07  08 09 0A 0B 0C 0D 0E 0F
      -- -- -- -- -- -- -- --  -- -- -- -- -- -- -- --
0160:                                      53 F8 FF FF              S...
0170: 7F F8 FF FF 7F 6D 61 68  30 00                    .....mah0.      
```

#### Opcodes

```
  0: 0x016C [0x53] WAIT_SCHEDULER_TASK: Wait for scheduler "mah0" with entities [EventEntity, EventEntity]
  1: 0x0179 [0x00] END_REQSTACK()
```

### Event 65535.26

#### Metadata

| Field        | Value    |
|--------------|----------|
| Entrypoint   | 0x017A   |
| Data Size    | 16 bytes |
| Instructions | 2        |

```
      00 01 02 03 04 05 06 07  08 09 0A 0B 0C 0D 0E 0F
      -- -- -- -- -- -- -- --  -- -- -- -- -- -- -- --
0170:                                5B 00 80 F8 FF FF            [.....
0180: 7F F8 FF FF 7F 6D 61 68  31 00                    .....mah1.      
```

#### Opcodes

```
  0: 0x017A [0x5B] LOAD_EXT_SCHEDULER: Load scheduler "mah1" with entities [EventEntity, EventEntity], work=165*
  1: 0x0189 [0x00] END_REQSTACK()
```

### Event 65535.27

#### Metadata

| Field        | Value    |
|--------------|----------|
| Entrypoint   | 0x018A   |
| Data Size    | 14 bytes |
| Instructions | 2        |

```
      00 01 02 03 04 05 06 07  08 09 0A 0B 0C 0D 0E 0F
      -- -- -- -- -- -- -- --  -- -- -- -- -- -- -- --
0180:                                53 F8 FF FF 7F F8            S.....
0190: FF FF 7F 6D 61 68 31 00                           ...mah1.        
```

#### Opcodes

```
  0: 0x018A [0x53] WAIT_SCHEDULER_TASK: Wait for scheduler "mah1" with entities [EventEntity, EventEntity]
  1: 0x0197 [0x00] END_REQSTACK()
```

### Event 65535.28

#### Metadata

| Field        | Value    |
|--------------|----------|
| Entrypoint   | 0x0198   |
| Data Size    | 16 bytes |
| Instructions | 2        |

```
      00 01 02 03 04 05 06 07  08 09 0A 0B 0C 0D 0E 0F
      -- -- -- -- -- -- -- --  -- -- -- -- -- -- -- --
0190:                          5B 05 80 F8 FF FF 7F F8          [.......
01A0: FF FF 7F 63 61 62 6B 00                           ...cabk.        
```

#### Opcodes

```
  0: 0x0198 [0x5B] LOAD_EXT_SCHEDULER: Load scheduler "cabk" with entities [EventEntity, EventEntity], work=167*
  1: 0x01A7 [0x00] END_REQSTACK()
```

### Event 65535.29

#### Metadata

| Field        | Value    |
|--------------|----------|
| Entrypoint   | 0x01A8   |
| Data Size    | 14 bytes |
| Instructions | 2        |

```
      00 01 02 03 04 05 06 07  08 09 0A 0B 0C 0D 0E 0F
      -- -- -- -- -- -- -- --  -- -- -- -- -- -- -- --
01A0:                          53 F8 FF FF 7F F8 FF FF          S.......
01B0: 7F 63 61 62 6B 00                                 .cabk.          
```

#### Opcodes

```
  0: 0x01A8 [0x53] WAIT_SCHEDULER_TASK: Wait for scheduler "cabk" with entities [EventEntity, EventEntity]
  1: 0x01B5 [0x00] END_REQSTACK()
```

### Event 65535.30

#### Metadata

| Field        | Value    |
|--------------|----------|
| Entrypoint   | 0x01B6   |
| Data Size    | 16 bytes |
| Instructions | 2        |

```
      00 01 02 03 04 05 06 07  08 09 0A 0B 0C 0D 0E 0F
      -- -- -- -- -- -- -- --  -- -- -- -- -- -- -- --
01B0:                   5B 05  80 F8 FF FF 7F F8 FF FF        [.........
01C0: 7F 73 68 62 6B 00                                 .shbk.          
```

#### Opcodes

```
  0: 0x01B6 [0x5B] LOAD_EXT_SCHEDULER: Load scheduler "shbk" with entities [EventEntity, EventEntity], work=167*
  1: 0x01C5 [0x00] END_REQSTACK()
```

### Event 65535.31

#### Metadata

| Field        | Value    |
|--------------|----------|
| Entrypoint   | 0x01C6   |
| Data Size    | 14 bytes |
| Instructions | 2        |

```
      00 01 02 03 04 05 06 07  08 09 0A 0B 0C 0D 0E 0F
      -- -- -- -- -- -- -- --  -- -- -- -- -- -- -- --
01C0:                   53 F8  FF FF 7F F8 FF FF 7F 73        S........s
01D0: 68 62 6B 00                                       hbk.            
```

#### Opcodes

```
  0: 0x01C6 [0x53] WAIT_SCHEDULER_TASK: Wait for scheduler "shbk" with entities [EventEntity, EventEntity]
  1: 0x01D3 [0x00] END_REQSTACK()
```

### Event 50

#### Metadata

| Field        | Value   |
|--------------|---------|
| Entrypoint   | 0x01D4  |
| Data Size    | 1 bytes |
| Instructions | 1       |

```
      00 01 02 03 04 05 06 07  08 09 0A 0B 0C 0D 0E 0F
      -- -- -- -- -- -- -- --  -- -- -- -- -- -- -- --
01D0:             00                                        .           
```

#### Opcodes

```
  0: 0x01D4 [0x00] END_REQSTACK()
```

### Event 65535.32

#### Metadata

| Field        | Value    |
|--------------|----------|
| Entrypoint   | 0x01D5   |
| Data Size    | 10 bytes |
| Instructions | 2        |

```
      00 01 02 03 04 05 06 07  08 09 0A 0B 0C 0D 0E 0F
      -- -- -- -- -- -- -- --  -- -- -- -- -- -- -- --
01D0:                37 06 80  07 80 08 80 09 80 00          7......... 
```

#### Opcodes

```
  0: 0x01D5 [0x37] UPDATE_EVENT_POSITION_AND_DIR: x=-60.218*, z=24.568*, y=9.626*, direction=272.5°*
  1: 0x01DE [0x00] END_REQSTACK()
```

### Event 65535.33

#### Metadata

| Field        | Value    |
|--------------|----------|
| Entrypoint   | 0x01DF   |
| Data Size    | 14 bytes |
| Instructions | 4        |

```
      00 01 02 03 04 05 06 07  08 09 0A 0B 0C 0D 0E 0F
      -- -- -- -- -- -- -- --  -- -- -- -- -- -- -- --
01D0:                                               32                 2
01E0: 0A 80 1F 00 0B 80 0C 80  0D 80 1F 01 00           .............   
```

#### Opcodes

```
  0: 0x01DF [0x32] ExtData[1]->MainSpeed = 40* * 0.1
  1: 0x01E2 [0x1F] MOVE_ENTITY: EventEntity moves to X=-60.059*, Z=61.539*, Y=9.391*
  2: 0x01EA [0x1F] MOVE_ENTITY: Update entity position (mode=1)
  3: 0x01EC [0x00] END_REQSTACK()
```

### Event 65535.34

#### Metadata

| Field        | Value    |
|--------------|----------|
| Entrypoint   | 0x01ED   |
| Data Size    | 14 bytes |
| Instructions | 4        |

```
      00 01 02 03 04 05 06 07  08 09 0A 0B 0C 0D 0E 0F
      -- -- -- -- -- -- -- --  -- -- -- -- -- -- -- --
01E0:                                         32 0A 80               2..
01F0: 1F 00 0E 80 0F 80 10 80  1F 01 00                 ...........     
```

#### Opcodes

```
  0: 0x01ED [0x32] ExtData[1]->MainSpeed = 40* * 0.1
  1: 0x01F0 [0x1F] MOVE_ENTITY: EventEntity moves to X=-59.796*, Z=63.077*, Y=9.370*
  2: 0x01F8 [0x1F] MOVE_ENTITY: Update entity position (mode=1)
  3: 0x01FA [0x00] END_REQSTACK()
```

### Event 65535.35

#### Metadata

| Field        | Value    |
|--------------|----------|
| Entrypoint   | 0x01FB   |
| Data Size    | 10 bytes |
| Instructions | 2        |

```
      00 01 02 03 04 05 06 07  08 09 0A 0B 0C 0D 0E 0F
      -- -- -- -- -- -- -- --  -- -- -- -- -- -- -- --
01F0:                                   37 11 80 12 80             7....
0200: 13 80 14 80 00                                    .....           
```

#### Opcodes

```
  0: 0x01FB [0x37] UPDATE_EVENT_POSITION_AND_DIR: x=-259.975*, z=-308.933*, y=5.064*, direction=271.5°*
  1: 0x0204 [0x00] END_REQSTACK()
```

### Event 65535.36

#### Metadata

| Field        | Value    |
|--------------|----------|
| Entrypoint   | 0x0205   |
| Data Size    | 14 bytes |
| Instructions | 4        |

```
      00 01 02 03 04 05 06 07  08 09 0A 0B 0C 0D 0E 0F
      -- -- -- -- -- -- -- --  -- -- -- -- -- -- -- --
0200:                32 0A 80  1F 00 11 80 12 80 13 80       2..........
0210: 1F 01 00                                          ...             
```

#### Opcodes

```
  0: 0x0205 [0x32] ExtData[1]->MainSpeed = 40* * 0.1
  1: 0x0208 [0x1F] MOVE_ENTITY: EventEntity moves to X=-259.975*, Z=-308.933*, Y=5.064*
  2: 0x0210 [0x1F] MOVE_ENTITY: Update entity position (mode=1)
  3: 0x0212 [0x00] END_REQSTACK()
```

### Event 65535.37

#### Metadata

| Field        | Value    |
|--------------|----------|
| Entrypoint   | 0x0213   |
| Data Size    | 14 bytes |
| Instructions | 4        |

```
      00 01 02 03 04 05 06 07  08 09 0A 0B 0C 0D 0E 0F
      -- -- -- -- -- -- -- --  -- -- -- -- -- -- -- --
0210:          32 15 80 1F 00  16 80 17 80 18 80 1F 01     2............
0220: 00                                                .               
```

#### Opcodes

```
  0: 0x0213 [0x32] ExtData[1]->MainSpeed = 13* * 0.1
  1: 0x0216 [0x1F] MOVE_ENTITY: EventEntity moves to X=-260.490*, Z=-312.142*, Y=4.538*
  2: 0x021E [0x1F] MOVE_ENTITY: Update entity position (mode=1)
  3: 0x0220 [0x00] END_REQSTACK()
```

### Event 65535.38

#### Metadata

| Field        | Value   |
|--------------|---------|
| Entrypoint   | 0x0221  |
| Data Size    | 5 bytes |
| Instructions | 3       |

```
      00 01 02 03 04 05 06 07  08 09 0A 0B 0C 0D 0E 0F
      -- -- -- -- -- -- -- --  -- -- -- -- -- -- -- --
0220:    1D 19 80 23 00                                  ...#.          
```

#### Opcodes

```
  0: 0x0221 [0x1D] PRINT_EVENT_MESSAGE(message_id=7227*)
    → "It can't be...! This is..."
  1: 0x0224 [0x23] WAIT_FOR_DIALOG_INTERACTION
  2: 0x0225 [0x00] END_REQSTACK()
```

### Event 65535.39

#### Metadata

| Field        | Value   |
|--------------|---------|
| Entrypoint   | 0x0226  |
| Data Size    | 5 bytes |
| Instructions | 3       |

```
      00 01 02 03 04 05 06 07  08 09 0A 0B 0C 0D 0E 0F
      -- -- -- -- -- -- -- --  -- -- -- -- -- -- -- --
0220:                   1D 1A  80 23 00                       ...#.     
```

#### Opcodes

```
  0: 0x0226 [0x1D] PRINT_EVENT_MESSAGE(message_id=7229*)
    → "Ordinarily, Full Moon Fountain is brimming with celestial radiance, but with the loss of that light..."
  1: 0x0229 [0x23] WAIT_FOR_DIALOG_INTERACTION
  2: 0x022A [0x00] END_REQSTACK()
```

### Event 65535.40

#### Metadata

| Field        | Value   |
|--------------|---------|
| Entrypoint   | 0x022B  |
| Data Size    | 5 bytes |
| Instructions | 3       |

```
      00 01 02 03 04 05 06 07  08 09 0A 0B 0C 0D 0E 0F
      -- -- -- -- -- -- -- --  -- -- -- -- -- -- -- --
0220:                                   1D 1B 80 23 00             ...#.
```

#### Opcodes

```
  0: 0x022B [0x1D] PRINT_EVENT_MESSAGE(message_id=7230*)
    → "...This must be what the Yagudo king was talking aboutaru!"
  1: 0x022E [0x23] WAIT_FOR_DIALOG_INTERACTION
  2: 0x022F [0x00] END_REQSTACK()
```

### Event 65535.41

#### Metadata

| Field        | Value   |
|--------------|---------|
| Entrypoint   | 0x0230  |
| Data Size    | 5 bytes |
| Instructions | 3       |

```
      00 01 02 03 04 05 06 07  08 09 0A 0B 0C 0D 0E 0F
      -- -- -- -- -- -- -- --  -- -- -- -- -- -- -- --
0230: 1D 1C 80 23 00                                    ...#.           
```

#### Opcodes

```
  0: 0x0230 [0x1D] PRINT_EVENT_MESSAGE(message_id=7231*)
    → "But wait... If that were true... When the summoner tried to call the great avatar twenty years ago..."
  1: 0x0233 [0x23] WAIT_FOR_DIALOG_INTERACTION
  2: 0x0234 [0x00] END_REQSTACK()
```

### Event 65535.42

#### Metadata

| Field        | Value   |
|--------------|---------|
| Entrypoint   | 0x0235  |
| Data Size    | 5 bytes |
| Instructions | 3       |

```
      00 01 02 03 04 05 06 07  08 09 0A 0B 0C 0D 0E 0F
      -- -- -- -- -- -- -- --  -- -- -- -- -- -- -- --
0230:                1D 1D 80  23 00                         ...#.      
```

#### Opcodes

```
  0: 0x0235 [0x1D] PRINT_EVENT_MESSAGE(message_id=7234*)
    → "Blastaru! They've found me!"
  1: 0x0238 [0x23] WAIT_FOR_DIALOG_INTERACTION
  2: 0x0239 [0x00] END_REQSTACK()
```

### Event 61

#### Metadata

| Field        | Value   |
|--------------|---------|
| Entrypoint   | 0x023A  |
| Data Size    | 1 bytes |
| Instructions | 1       |

```
      00 01 02 03 04 05 06 07  08 09 0A 0B 0C 0D 0E 0F
      -- -- -- -- -- -- -- --  -- -- -- -- -- -- -- --
0230:                                00                           .     
```

#### Opcodes

```
  0: 0x023A [0x00] END_REQSTACK()
```

### Event 65535.43

#### Metadata

| Field        | Value    |
|--------------|----------|
| Entrypoint   | 0x023B   |
| Data Size    | 10 bytes |
| Instructions | 2        |

```
      00 01 02 03 04 05 06 07  08 09 0A 0B 0C 0D 0E 0F
      -- -- -- -- -- -- -- --  -- -- -- -- -- -- -- --
0230:                                   37 1E 80 1F 80             7....
0240: 20 80 21 80 00                                     .!..           
```

#### Opcodes

```
  0: 0x023B [0x37] UPDATE_EVENT_POSITION_AND_DIR: x=-59.660*, z=0.506*, y=11.930*, direction=251.9°*
  1: 0x0244 [0x00] END_REQSTACK()
```

### Event 65535.44

#### Metadata

| Field        | Value    |
|--------------|----------|
| Entrypoint   | 0x0245   |
| Data Size    | 22 bytes |
| Instructions | 6        |

```
      00 01 02 03 04 05 06 07  08 09 0A 0B 0C 0D 0E 0F
      -- -- -- -- -- -- -- --  -- -- -- -- -- -- -- --
0240:                1C 22 80  32 0A 80 1F 00 1E 80 23       .".2......#
0250: 80 20 80 1F 01 1E A9 A0  0A 01 00                 . .........     
```

#### Opcodes

```
  0: 0x0245 [0x1C] WAIT(50* ticks)
  1: 0x0248 [0x32] ExtData[1]->MainSpeed = 40* * 0.1
  2: 0x024B [0x1F] MOVE_ENTITY: EventEntity moves to X=-59.660*, Z=2.506*, Y=11.930*
  3: 0x0253 [0x1F] MOVE_ENTITY: Update entity position (mode=1)
  4: 0x0255 [0x1E] EventEntity looks at Joker (ID: 17473705/0x010AA0A9) and starts talking
  5: 0x025A [0x00] END_REQSTACK()
```

### Event 32000

#### Metadata

| Field        | Value   |
|--------------|---------|
| Entrypoint   | 0x025B  |
| Data Size    | 1 bytes |
| Instructions | 1       |

```
      00 01 02 03 04 05 06 07  08 09 0A 0B 0C 0D 0E 0F
      -- -- -- -- -- -- -- --  -- -- -- -- -- -- -- --
0250:                                   00                         .    
```

#### Opcodes

```
  0: 0x025B [0x00] END_REQSTACK()
```

### Event 62

#### Metadata

| Field        | Value   |
|--------------|---------|
| Entrypoint   | 0x025C  |
| Data Size    | 1 bytes |
| Instructions | 1       |

```
      00 01 02 03 04 05 06 07  08 09 0A 0B 0C 0D 0E 0F
      -- -- -- -- -- -- -- --  -- -- -- -- -- -- -- --
0250:                                      00                       .   
```

#### Opcodes

```
  0: 0x025C [0x00] END_REQSTACK()
```

### Event 65535.45

#### Metadata

| Field        | Value    |
|--------------|----------|
| Entrypoint   | 0x025D   |
| Data Size    | 10 bytes |
| Instructions | 2        |

```
      00 01 02 03 04 05 06 07  08 09 0A 0B 0C 0D 0E 0F
      -- -- -- -- -- -- -- --  -- -- -- -- -- -- -- --
0250:                                         37 24 80               7$.
0260: 25 80 26 80 27 80 00                              %.&.'..         
```

#### Opcodes

```
  0: 0x025D [0x37] UPDATE_EVENT_POSITION_AND_DIR: x=-58.067*, z=6.339*, y=11.755*, direction=266.5°*
  1: 0x0266 [0x00] END_REQSTACK()
```

### Event 65535.46

#### Metadata

| Field        | Value    |
|--------------|----------|
| Entrypoint   | 0x0267   |
| Data Size    | 29 bytes |
| Instructions | 7        |

```
      00 01 02 03 04 05 06 07  08 09 0A 0B 0C 0D 0E 0F
      -- -- -- -- -- -- -- --  -- -- -- -- -- -- -- --
0260:                      32  0A 80 5A 00 28 80 29 80         2..Z.(.).
0270: 2A 80 5A 01 4A 9D A0 0A  01 A9 A0 0A 01 6F 76 9D  *.Z.J........ov.
0280: A0 0A 01 00                                       ....            
```

#### Opcodes

```
  0: 0x0267 [0x32] ExtData[1]->MainSpeed = 40* * 0.1
  1: 0x026A [0x5A] UPDATE_EVENT_POSITION: Set EventEntity MovePosition to X=-59.018*, Z=35.117*, Y=9.375*
  2: 0x0272 [0x5A] UPDATE_EVENT_POSITION: Move EventEntity incrementally towards MovePosition
  3: 0x0274 [0x4A] Ajido-Marujido (ID: 17473693/0x010AA09D) looks at Joker (ID: 17473705/0x010AA0A9)
  4: 0x027D [0x6F] WAIT_FRAME_DELAY: Yield until WaitTime reaches zero
  5: 0x027E [0x76] CHECK_ENTITY_RENDER_FLAGS: Wait until Ajido-Marujido (ID: 17473693/0x010AA09D) Render.Flags0 and Render.Flags3 conditions are met
  6: 0x0283 [0x00] END_REQSTACK()
```

### Event 65535.47

#### Metadata

| Field        | Value    |
|--------------|----------|
| Entrypoint   | 0x0284   |
| Data Size    | 10 bytes |
| Instructions | 2        |

```
      00 01 02 03 04 05 06 07  08 09 0A 0B 0C 0D 0E 0F
      -- -- -- -- -- -- -- --  -- -- -- -- -- -- -- --
0280:             37 2B 80 2C  80 2D 80 2E 80 00            7+.,.-....  
```

#### Opcodes

```
  0: 0x0284 [0x37] UPDATE_EVENT_POSITION_AND_DIR: x=-59.391*, z=34.281*, y=9.419*, direction=269.4°*
  1: 0x028D [0x00] END_REQSTACK()
```

### Event 65535.48

#### Metadata

| Field        | Value    |
|--------------|----------|
| Entrypoint   | 0x028E   |
| Data Size    | 10 bytes |
| Instructions | 2        |

```
      00 01 02 03 04 05 06 07  08 09 0A 0B 0C 0D 0E 0F
      -- -- -- -- -- -- -- --  -- -- -- -- -- -- -- --
0280:                                            37 2F                7/
0290: 80 30 80 31 80 32 80 00                           .0.1.2..        
```

#### Opcodes

```
  0: 0x028E [0x37] UPDATE_EVENT_POSITION_AND_DIR: x=-58.470*, z=33.154*, y=9.482*, direction=267.7°*
  1: 0x0297 [0x00] END_REQSTACK()
```

### Event 65535.49

#### Metadata

| Field        | Value    |
|--------------|----------|
| Entrypoint   | 0x0298   |
| Data Size    | 79 bytes |
| Instructions | 10       |

```
      00 01 02 03 04 05 06 07  08 09 0A 0B 0C 0D 0E 0F
      -- -- -- -- -- -- -- --  -- -- -- -- -- -- -- --
0290:                          03 00 00 33 80 02 00 00          ...3....
02A0: 33 80 00 E6 02 5B 05 80  F8 FF FF 7F B5 A0 0A 01  3....[..........
02B0: 63 61 62 6B 53 F8 FF FF  7F F8 FF FF 7F 63 61 62  cabkS........cab
02C0: 6B 1C 34 80 5B 05 80 F8  FF FF 7F B5 A0 0A 01 73  k.4.[..........s
02D0: 68 62 6B 53 F8 FF FF 7F  F8 FF FF 7F 73 68 62 6B  hbkS........shbk
02E0: 1C 34 80 01 9D 02 00                              .4.....         
```

#### Opcodes

```
  0: 0x0298 [0x03] ExtData[1]->WorkLocal[0] = 0*
  1: 0x029D [0x02] IF !(ExtData[1]->WorkLocal[0] == 0*) GOTO 0x02E6
  2: 0x02A5 [0x5B] LOAD_EXT_SCHEDULER: Load scheduler "cabk" with entities [EventEntity, 01 (ID: 17473717/0x010AA0B5)], work=167*
  3: 0x02B4 [0x53] WAIT_SCHEDULER_TASK: Wait for scheduler "cabk" with entities [EventEntity, EventEntity]
  4: 0x02C1 [0x1C] WAIT(200* ticks)
  5: 0x02C4 [0x5B] LOAD_EXT_SCHEDULER: Load scheduler "shbk" with entities [EventEntity, 01 (ID: 17473717/0x010AA0B5)], work=167*
  6: 0x02D3 [0x53] WAIT_SCHEDULER_TASK: Wait for scheduler "shbk" with entities [EventEntity, EventEntity]
  7: 0x02E0 [0x1C] WAIT(200* ticks)
  8: 0x02E3 [0x01] GOTO 0x029D
  9: 0x02E6 [0x00] END_REQSTACK()
```

### Event 65535.50

#### Metadata

| Field        | Value   |
|--------------|---------|
| Entrypoint   | 0x02E7  |
| Data Size    | 6 bytes |
| Instructions | 2       |

```
      00 01 02 03 04 05 06 07  08 09 0A 0B 0C 0D 0E 0F
      -- -- -- -- -- -- -- --  -- -- -- -- -- -- -- --
02E0:                      03  00 00 35 80 00                  ...5..   
```

#### Opcodes

```
  0: 0x02E7 [0x03] ExtData[1]->WorkLocal[0] = 1*
  1: 0x02EC [0x00] END_REQSTACK()
```

### Event 65535.51

#### Metadata

| Field        | Value    |
|--------------|----------|
| Entrypoint   | 0x02ED   |
| Data Size    | 10 bytes |
| Instructions | 2        |

```
      00 01 02 03 04 05 06 07  08 09 0A 0B 0C 0D 0E 0F
      -- -- -- -- -- -- -- --  -- -- -- -- -- -- -- --
02E0:                                         37 36 80               76.
02F0: 37 80 38 80 39 80 00                              7.8.9..         
```

#### Opcodes

```
  0: 0x02ED [0x37] UPDATE_EVENT_POSITION_AND_DIR: x=-61.500*, z=59.294*, y=9.485*, direction=333.4°*
  1: 0x02F6 [0x00] END_REQSTACK()
```

### Event 65535.52

#### Metadata

| Field        | Value    |
|--------------|----------|
| Entrypoint   | 0x02F7   |
| Data Size    | 14 bytes |
| Instructions | 4        |

```
      00 01 02 03 04 05 06 07  08 09 0A 0B 0C 0D 0E 0F
      -- -- -- -- -- -- -- --  -- -- -- -- -- -- -- --
02F0:                      32  0A 80 1F 00 36 80 3A 80         2....6.:.
0300: 3B 80 1F 01 00                                    ;....           
```

#### Opcodes

```
  0: 0x02F7 [0x32] ExtData[1]->MainSpeed = 40* * 0.1
  1: 0x02FA [0x1F] MOVE_ENTITY: EventEntity moves to X=-61.500*, Z=58.773*, Y=9.509*
  2: 0x0302 [0x1F] MOVE_ENTITY: Update entity position (mode=1)
  3: 0x0304 [0x00] END_REQSTACK()
```

### Event 65535.53

#### Metadata

| Field        | Value    |
|--------------|----------|
| Entrypoint   | 0x0305   |
| Data Size    | 10 bytes |
| Instructions | 2        |

```
      00 01 02 03 04 05 06 07  08 09 0A 0B 0C 0D 0E 0F
      -- -- -- -- -- -- -- --  -- -- -- -- -- -- -- --
0300:                37 3C 80  3D 80 3E 80 3F 80 00          7<.=.>.?.. 
```

#### Opcodes

```
  0: 0x0305 [0x37] UPDATE_EVENT_POSITION_AND_DIR: x=-63.685*, z=56.590*, y=9.912*, direction=320.7°*
  1: 0x030E [0x00] END_REQSTACK()
```

### Event 65535.54

#### Metadata

| Field        | Value    |
|--------------|----------|
| Entrypoint   | 0x030F   |
| Data Size    | 14 bytes |
| Instructions | 4        |

```
      00 01 02 03 04 05 06 07  08 09 0A 0B 0C 0D 0E 0F
      -- -- -- -- -- -- -- --  -- -- -- -- -- -- -- --
0300:                                               32                 2
0310: 0A 80 1F 00 40 80 41 80  42 80 1F 01 00           ....@.A.B....   
```

#### Opcodes

```
  0: 0x030F [0x32] ExtData[1]->MainSpeed = 40* * 0.1
  1: 0x0312 [0x1F] MOVE_ENTITY: EventEntity moves to X=-63.146*, Z=57.476*, Y=9.849*
  2: 0x031A [0x1F] MOVE_ENTITY: Update entity position (mode=1)
  3: 0x031C [0x00] END_REQSTACK()
```

### Event 32004

#### Metadata

| Field        | Value   |
|--------------|---------|
| Entrypoint   | 0x031D  |
| Data Size    | 1 bytes |
| Instructions | 1       |

```
      00 01 02 03 04 05 06 07  08 09 0A 0B 0C 0D 0E 0F
      -- -- -- -- -- -- -- --  -- -- -- -- -- -- -- --
0310:                                         00                     .  
```

#### Opcodes

```
  0: 0x031D [0x00] END_REQSTACK()
```

### Event 32001

#### Metadata

| Field        | Value   |
|--------------|---------|
| Entrypoint   | 0x031E  |
| Data Size    | 1 bytes |
| Instructions | 1       |

```
      00 01 02 03 04 05 06 07  08 09 0A 0B 0C 0D 0E 0F
      -- -- -- -- -- -- -- --  -- -- -- -- -- -- -- --
0310:                                            00                   . 
```

#### Opcodes

```
  0: 0x031E [0x00] END_REQSTACK()
```
