# 17473694 - Semih Lafihna

## Common Data

| Field            | Value                        |
|------------------|------------------------------|
| Zone             | Full Moon Fountain (ID: 170) |
| Block Size       | 1144 bytes                   |
| Total Events     | 37                           |
| References Count | 41                           |

## List of Events

| Event ID                   | Entrypoint   |   Size |   Instructions |
|----------------------------|--------------|--------|----------------|
| [65535](#event-65535)      | 0x0000       |      1 |              1 |
| [65535.1](#event-655351)   | 0x0001       |     16 |              2 |
| [65535.2](#event-655352)   | 0x0011       |     14 |              2 |
| [65535.3](#event-655353)   | 0x001F       |     37 |              5 |
| [65535.4](#event-655354)   | 0x0044       |     16 |              2 |
| [65535.5](#event-655355)   | 0x0054       |     14 |              2 |
| [65535.6](#event-655356)   | 0x0062       |     22 |              3 |
| [65535.7](#event-655357)   | 0x0078       |     20 |              3 |
| [65535.8](#event-655358)   | 0x008C       |     16 |              2 |
| [65535.9](#event-655359)   | 0x009C       |     14 |              2 |
| [65535.10](#event-6553510) | 0x00AA       |     16 |              2 |
| [65535.11](#event-6553511) | 0x00BA       |     14 |              2 |
| [65535.12](#event-6553512) | 0x00C8       |     57 |              5 |
| [65535.13](#event-6553513) | 0x0101       |     29 |              3 |
| [65535.14](#event-6553514) | 0x011E       |     29 |              3 |
| [65535.15](#event-6553515) | 0x013B       |     29 |              3 |
| [65535.16](#event-6553516) | 0x0158       |     29 |              3 |
| [65535.17](#event-6553517) | 0x0175       |      9 |              3 |
| [50](#event-50)            | 0x017E       |      1 |              1 |
| [65535.18](#event-6553518) | 0x017F       |     10 |              2 |
| [65535.19](#event-6553519) | 0x0189       |     14 |              4 |
| [65535.20](#event-6553520) | 0x0197       |     14 |              4 |
| [65535.21](#event-6553521) | 0x01A5       |      5 |              3 |
| [65535.22](#event-6553522) | 0x01AA       |      5 |              3 |
| [61](#event-61)            | 0x01AF       |      7 |              2 |
| [65535.23](#event-6553523) | 0x01B6       |     10 |              2 |
| [65535.24](#event-6553524) | 0x01C0       |     10 |              2 |
| [65535.25](#event-6553525) | 0x01CA       |     14 |              4 |
| [65535.26](#event-6553526) | 0x01D8       |    299 |             33 |
| [65535.27](#event-6553527) | 0x0303       |      4 |              2 |
| [32000](#event-32000)      | 0x0307       |      1 |              1 |
| [62](#event-62)            | 0x0308       |      1 |              1 |
| [65535.28](#event-6553528) | 0x0309       |     10 |              2 |
| [65535.29](#event-6553529) | 0x0313       |     14 |              4 |
| [65535.30](#event-6553530) | 0x0321       |     10 |              2 |
| [32004](#event-32004)      | 0x032B       |      1 |              1 |
| [32001](#event-32001)      | 0x032C       |      1 |              1 |

## DAT References (imed_data)

|   Index | Hex Value   |   Dec Value |
|---------|-------------|-------------|
|       0 | 0x0175      |         373 |
|       1 | 0x001E      |          30 |
|       2 | 0x0039      |          57 |
|       3 | 0x00B3      |         179 |
|       4 | 0x018F      |         399 |
|       5 | 0xFFFF1794  |  4294907796 |
|       6 | 0x55F0      |       22000 |
|       7 | 0x0000      |           0 |
|       8 | 0x0BF8      |        3064 |
|       9 | 0x000D      |          13 |
|      10 | 0x5CD0      |       23760 |
|      11 | 0x0028      |          40 |
|      12 | 0xFFFF12D1  |  4294906577 |
|      13 | 0xC101      |       49409 |
|      14 | 0x2635      |        9781 |
|      15 | 0x1C41      |        7233 |
|      16 | 0x1C44      |        7236 |
|      17 | 0xFFFF1552  |  4294907218 |
|      18 | 0xDEE7      |       57063 |
|      19 | 0x2578      |        9592 |
|      20 | 0x0C04      |        3076 |
|      21 | 0xFFFF15A0  |  4294907296 |
|      22 | 0xE4F7      |       58615 |
|      23 | 0x2508      |        9480 |
|      24 | 0x0046      |          70 |
|      25 | 0x00C8      |         200 |
|      26 | 0x0014      |          20 |
|      27 | 0x00C9      |         201 |
|      28 | 0x0005      |           5 |
|      29 | 0x0064      |         100 |
|      30 | 0xFFFF1214  |  4294906388 |
|      31 | 0x1142      |        4418 |
|      32 | 0x2DBC      |       11708 |
|      33 | 0x0BF7      |        3063 |
|      34 | 0xFFFF1410  |  4294906896 |
|      35 | 0x7E7B      |       32379 |
|      36 | 0x24D2      |        9426 |
|      37 | 0xFFFF15B9  |  4294907321 |
|      38 | 0x78C3      |       30915 |
|      39 | 0x251B      |        9499 |
|      40 | 0x0688      |        1672 |

## String References

- **7233**: You've gone too farrr this time, Ajido-Marujido. The Star Sibyl has given us authorrrization to bring you to justice.
- **7236**: Come quietly or there'll be trrrouble! Ajido-Marujido, I hereby arrest you for crrrimes committed against Heavens Tower!

## Events

### Event 65535

#### Metadata

| Field        | Value   |
|--------------|---------|
| Entrypoint   | 0x0000  |
| Data Size    | 1 bytes |
| Instructions | 1       |

```
      00 01 02 03 04 05 06 07  08 09 0A 0B 0C 0D 0E 0F
      -- -- -- -- -- -- -- --  -- -- -- -- -- -- -- --
0000: 00                                                .               
```

#### Opcodes

```
  0: 0x0000 [0x00] END_REQSTACK()
```

### Event 65535.1

#### Metadata

| Field        | Value    |
|--------------|----------|
| Entrypoint   | 0x0001   |
| Data Size    | 16 bytes |
| Instructions | 2        |

```
      00 01 02 03 04 05 06 07  08 09 0A 0B 0C 0D 0E 0F
      -- -- -- -- -- -- -- --  -- -- -- -- -- -- -- --
0000:    5B 00 80 F8 FF FF 7F  F8 FF FF 7F 74 6C 6B 30   [..........tlk0
0010: 00                                                .               
```

#### Opcodes

```
  0: 0x0001 [0x5B] LOAD_EXT_SCHEDULER: Load scheduler "tlk0" with entities [EventEntity, EventEntity], work=373*
  1: 0x0010 [0x00] END_REQSTACK()
```

### Event 65535.2

#### Metadata

| Field        | Value    |
|--------------|----------|
| Entrypoint   | 0x0011   |
| Data Size    | 14 bytes |
| Instructions | 2        |

```
      00 01 02 03 04 05 06 07  08 09 0A 0B 0C 0D 0E 0F
      -- -- -- -- -- -- -- --  -- -- -- -- -- -- -- --
0010:    53 F8 FF FF 7F F8 FF  FF 7F 74 6C 6B 30 00      S........tlk0. 
```

#### Opcodes

```
  0: 0x0011 [0x53] WAIT_SCHEDULER_TASK: Wait for scheduler "tlk0" with entities [EventEntity, EventEntity]
  1: 0x001E [0x00] END_REQSTACK()
```

### Event 65535.3

#### Metadata

| Field        | Value    |
|--------------|----------|
| Entrypoint   | 0x001F   |
| Data Size    | 37 bytes |
| Instructions | 5        |

```
      00 01 02 03 04 05 06 07  08 09 0A 0B 0C 0D 0E 0F
      -- -- -- -- -- -- -- --  -- -- -- -- -- -- -- --
0010:                                               5B                 [
0020: 00 80 F8 FF FF 7F F8 FF  FF 7F 74 6C 6B 30 53 F8  ..........tlk0S.
0030: FF FF 7F F8 FF FF 7F 74  6C 6B 30 5E 69 64 6C 30  .......tlk0^idl0
0040: 1C 01 80 00                                       ....            
```

#### Opcodes

```
  0: 0x001F [0x5B] LOAD_EXT_SCHEDULER: Load scheduler "tlk0" with entities [EventEntity, EventEntity], work=373*
  1: 0x002E [0x53] WAIT_SCHEDULER_TASK: Wait for scheduler "tlk0" with entities [EventEntity, EventEntity]
  2: 0x003B [0x5E] EventEntity goes idle (kills current action) (animation: "idl0")
  3: 0x0040 [0x1C] WAIT(30* ticks)
  4: 0x0043 [0x00] END_REQSTACK()
```

### Event 65535.4

#### Metadata

| Field        | Value    |
|--------------|----------|
| Entrypoint   | 0x0044   |
| Data Size    | 16 bytes |
| Instructions | 2        |

```
      00 01 02 03 04 05 06 07  08 09 0A 0B 0C 0D 0E 0F
      -- -- -- -- -- -- -- --  -- -- -- -- -- -- -- --
0040:             5B 00 80 F8  FF FF 7F F8 FF FF 7F 74      [..........t
0050: 6C 6B 31 00                                       lk1.            
```

#### Opcodes

```
  0: 0x0044 [0x5B] LOAD_EXT_SCHEDULER: Load scheduler "tlk1" with entities [EventEntity, EventEntity], work=373*
  1: 0x0053 [0x00] END_REQSTACK()
```

### Event 65535.5

#### Metadata

| Field        | Value    |
|--------------|----------|
| Entrypoint   | 0x0054   |
| Data Size    | 14 bytes |
| Instructions | 2        |

```
      00 01 02 03 04 05 06 07  08 09 0A 0B 0C 0D 0E 0F
      -- -- -- -- -- -- -- --  -- -- -- -- -- -- -- --
0050:             53 F8 FF FF  7F F8 FF FF 7F 74 6C 6B      S........tlk
0060: 31 00                                             1.              
```

#### Opcodes

```
  0: 0x0054 [0x53] WAIT_SCHEDULER_TASK: Wait for scheduler "tlk1" with entities [EventEntity, EventEntity]
  1: 0x0061 [0x00] END_REQSTACK()
```

### Event 65535.6

#### Metadata

| Field        | Value    |
|--------------|----------|
| Entrypoint   | 0x0062   |
| Data Size    | 22 bytes |
| Instructions | 3        |

```
      00 01 02 03 04 05 06 07  08 09 0A 0B 0C 0D 0E 0F
      -- -- -- -- -- -- -- --  -- -- -- -- -- -- -- --
0060:       81 00 F8 FF FF 7F  5B 00 80 F8 FF FF 7F F8    ......[.......
0070: FF FF 7F 75 6E 61 30 00                           ...una0.        
```

#### Opcodes

```
  0: 0x0062 [0x81] SET_ENTITY_BLINKING(blink_flag=0x00, entity=EventEntity)
  1: 0x0068 [0x5B] LOAD_EXT_SCHEDULER: Load scheduler "una0" with entities [EventEntity, EventEntity], work=373*
  2: 0x0077 [0x00] END_REQSTACK()
```

### Event 65535.7

#### Metadata

| Field        | Value    |
|--------------|----------|
| Entrypoint   | 0x0078   |
| Data Size    | 20 bytes |
| Instructions | 3        |

```
      00 01 02 03 04 05 06 07  08 09 0A 0B 0C 0D 0E 0F
      -- -- -- -- -- -- -- --  -- -- -- -- -- -- -- --
0070:                          53 F8 FF FF 7F F8 FF FF          S.......
0080: 7F 75 6E 61 30 81 01 F8  FF FF 7F 00              .una0.......    
```

#### Opcodes

```
  0: 0x0078 [0x53] WAIT_SCHEDULER_TASK: Wait for scheduler "una0" with entities [EventEntity, EventEntity]
  1: 0x0085 [0x81] SET_ENTITY_BLINKING(blink_flag=0x01, entity=EventEntity)
  2: 0x008B [0x00] END_REQSTACK()
```

### Event 65535.8

#### Metadata

| Field        | Value    |
|--------------|----------|
| Entrypoint   | 0x008C   |
| Data Size    | 16 bytes |
| Instructions | 2        |

```
      00 01 02 03 04 05 06 07  08 09 0A 0B 0C 0D 0E 0F
      -- -- -- -- -- -- -- --  -- -- -- -- -- -- -- --
0080:                                      66 02 80 F8              f...
0090: FF FF 7F F8 FF FF 7F 6D  68 69 30 00              .......mhi0.    
```

#### Opcodes

```
  0: 0x008C [0x66] LOAD_EXT_SCHEDULER_MAIN: Load scheduler "mhi0" with entities [EventEntity, EventEntity], work=57*
  1: 0x009B [0x00] END_REQSTACK()
```

### Event 65535.9

#### Metadata

| Field        | Value    |
|--------------|----------|
| Entrypoint   | 0x009C   |
| Data Size    | 14 bytes |
| Instructions | 2        |

```
      00 01 02 03 04 05 06 07  08 09 0A 0B 0C 0D 0E 0F
      -- -- -- -- -- -- -- --  -- -- -- -- -- -- -- --
0090:                                      53 F8 FF FF              S...
00A0: 7F F8 FF FF 7F 6D 68 69  30 00                    .....mhi0.      
```

#### Opcodes

```
  0: 0x009C [0x53] WAIT_SCHEDULER_TASK: Wait for scheduler "mhi0" with entities [EventEntity, EventEntity]
  1: 0x00A9 [0x00] END_REQSTACK()
```

### Event 65535.10

#### Metadata

| Field        | Value    |
|--------------|----------|
| Entrypoint   | 0x00AA   |
| Data Size    | 16 bytes |
| Instructions | 2        |

```
      00 01 02 03 04 05 06 07  08 09 0A 0B 0C 0D 0E 0F
      -- -- -- -- -- -- -- --  -- -- -- -- -- -- -- --
00A0:                                5B 03 80 F8 FF FF            [.....
00B0: 7F F8 FF FF 7F 73 68 77  30 00                    .....shw0.      
```

#### Opcodes

```
  0: 0x00AA [0x5B] LOAD_EXT_SCHEDULER: Load scheduler "shw0" with entities [EventEntity, EventEntity], work=179*
  1: 0x00B9 [0x00] END_REQSTACK()
```

### Event 65535.11

#### Metadata

| Field        | Value    |
|--------------|----------|
| Entrypoint   | 0x00BA   |
| Data Size    | 14 bytes |
| Instructions | 2        |

```
      00 01 02 03 04 05 06 07  08 09 0A 0B 0C 0D 0E 0F
      -- -- -- -- -- -- -- --  -- -- -- -- -- -- -- --
00B0:                                53 F8 FF FF 7F F8            S.....
00C0: FF FF 7F 73 68 77 30 00                           ...shw0.        
```

#### Opcodes

```
  0: 0x00BA [0x53] WAIT_SCHEDULER_TASK: Wait for scheduler "shw0" with entities [EventEntity, EventEntity]
  1: 0x00C7 [0x00] END_REQSTACK()
```

### Event 65535.12

#### Metadata

| Field        | Value    |
|--------------|----------|
| Entrypoint   | 0x00C8   |
| Data Size    | 57 bytes |
| Instructions | 5        |

```
      00 01 02 03 04 05 06 07  08 09 0A 0B 0C 0D 0E 0F
      -- -- -- -- -- -- -- --  -- -- -- -- -- -- -- --
00C0:                          5B 00 80 F8 FF FF 7F F8          [.......
00D0: FF FF 7F 65 76 30 31 53  F8 FF FF 7F F8 FF FF 7F  ...ev01S........
00E0: 65 76 30 31 5B 04 80 F8  FF FF 7F F8 FF FF 7F 65  ev01[..........e
00F0: 76 30 32 53 F8 FF FF 7F  F8 FF FF 7F 65 76 30 32  v02S........ev02
0100: 00                                                .               
```

#### Opcodes

```
  0: 0x00C8 [0x5B] LOAD_EXT_SCHEDULER: Load scheduler "ev01" with entities [EventEntity, EventEntity], work=373*
  1: 0x00D7 [0x53] WAIT_SCHEDULER_TASK: Wait for scheduler "ev01" with entities [EventEntity, EventEntity]
  2: 0x00E4 [0x5B] LOAD_EXT_SCHEDULER: Load scheduler "ev02" with entities [EventEntity, EventEntity], work=399*
  3: 0x00F3 [0x53] WAIT_SCHEDULER_TASK: Wait for scheduler "ev02" with entities [EventEntity, EventEntity]
  4: 0x0100 [0x00] END_REQSTACK()
```

### Event 65535.13

#### Metadata

| Field        | Value    |
|--------------|----------|
| Entrypoint   | 0x0101   |
| Data Size    | 29 bytes |
| Instructions | 3        |

```
      00 01 02 03 04 05 06 07  08 09 0A 0B 0C 0D 0E 0F
      -- -- -- -- -- -- -- --  -- -- -- -- -- -- -- --
0100:    5B 04 80 F8 FF FF 7F  F8 FF FF 7F 65 76 30 33   [..........ev03
0110: 53 F8 FF FF 7F F8 FF FF  7F 65 76 30 33 00        S........ev03.  
```

#### Opcodes

```
  0: 0x0101 [0x5B] LOAD_EXT_SCHEDULER: Load scheduler "ev03" with entities [EventEntity, EventEntity], work=399*
  1: 0x0110 [0x53] WAIT_SCHEDULER_TASK: Wait for scheduler "ev03" with entities [EventEntity, EventEntity]
  2: 0x011D [0x00] END_REQSTACK()
```

### Event 65535.14

#### Metadata

| Field        | Value    |
|--------------|----------|
| Entrypoint   | 0x011E   |
| Data Size    | 29 bytes |
| Instructions | 3        |

```
      00 01 02 03 04 05 06 07  08 09 0A 0B 0C 0D 0E 0F
      -- -- -- -- -- -- -- --  -- -- -- -- -- -- -- --
0110:                                            5B 04                [.
0120: 80 F8 FF FF 7F F8 FF FF  7F 65 76 30 32 53 F8 FF  .........ev02S..
0130: FF 7F F8 FF FF 7F 65 76  30 32 00                 ......ev02.     
```

#### Opcodes

```
  0: 0x011E [0x5B] LOAD_EXT_SCHEDULER: Load scheduler "ev02" with entities [EventEntity, EventEntity], work=399*
  1: 0x012D [0x53] WAIT_SCHEDULER_TASK: Wait for scheduler "ev02" with entities [EventEntity, EventEntity]
  2: 0x013A [0x00] END_REQSTACK()
```

### Event 65535.15

#### Metadata

| Field        | Value    |
|--------------|----------|
| Entrypoint   | 0x013B   |
| Data Size    | 29 bytes |
| Instructions | 3        |

```
      00 01 02 03 04 05 06 07  08 09 0A 0B 0C 0D 0E 0F
      -- -- -- -- -- -- -- --  -- -- -- -- -- -- -- --
0130:                                   5B 00 80 F8 FF             [....
0140: FF 7F F8 FF FF 7F 65 76  30 31 53 F8 FF FF 7F F8  ......ev01S.....
0150: FF FF 7F 65 76 30 31 00                           ...ev01.        
```

#### Opcodes

```
  0: 0x013B [0x5B] LOAD_EXT_SCHEDULER: Load scheduler "ev01" with entities [EventEntity, EventEntity], work=373*
  1: 0x014A [0x53] WAIT_SCHEDULER_TASK: Wait for scheduler "ev01" with entities [EventEntity, EventEntity]
  2: 0x0157 [0x00] END_REQSTACK()
```

### Event 65535.16

#### Metadata

| Field        | Value    |
|--------------|----------|
| Entrypoint   | 0x0158   |
| Data Size    | 29 bytes |
| Instructions | 3        |

```
      00 01 02 03 04 05 06 07  08 09 0A 0B 0C 0D 0E 0F
      -- -- -- -- -- -- -- --  -- -- -- -- -- -- -- --
0150:                          5B 04 80 F8 FF FF 7F F8          [.......
0160: FF FF 7F 65 76 30 37 53  F8 FF FF 7F F8 FF FF 7F  ...ev07S........
0170: 65 76 30 37 00                                    ev07.           
```

#### Opcodes

```
  0: 0x0158 [0x5B] LOAD_EXT_SCHEDULER: Load scheduler "ev07" with entities [EventEntity, EventEntity], work=399*
  1: 0x0167 [0x53] WAIT_SCHEDULER_TASK: Wait for scheduler "ev07" with entities [EventEntity, EventEntity]
  2: 0x0174 [0x00] END_REQSTACK()
```

### Event 65535.17

#### Metadata

| Field        | Value   |
|--------------|---------|
| Entrypoint   | 0x0175  |
| Data Size    | 9 bytes |
| Instructions | 3       |

```
      00 01 02 03 04 05 06 07  08 09 0A 0B 0C 0D 0E 0F
      -- -- -- -- -- -- -- --  -- -- -- -- -- -- -- --
0170:                5E 69 64  6C 30 1C 01 80 00             ^idl0....  
```

#### Opcodes

```
  0: 0x0175 [0x5E] EventEntity goes idle (kills current action) (animation: "idl0")
  1: 0x017A [0x1C] WAIT(30* ticks)
  2: 0x017D [0x00] END_REQSTACK()
```

### Event 50

#### Metadata

| Field        | Value   |
|--------------|---------|
| Entrypoint   | 0x017E  |
| Data Size    | 1 bytes |
| Instructions | 1       |

```
      00 01 02 03 04 05 06 07  08 09 0A 0B 0C 0D 0E 0F
      -- -- -- -- -- -- -- --  -- -- -- -- -- -- -- --
0170:                                            00                   . 
```

#### Opcodes

```
  0: 0x017E [0x00] END_REQSTACK()
```

### Event 65535.18

#### Metadata

| Field        | Value    |
|--------------|----------|
| Entrypoint   | 0x017F   |
| Data Size    | 10 bytes |
| Instructions | 2        |

```
      00 01 02 03 04 05 06 07  08 09 0A 0B 0C 0D 0E 0F
      -- -- -- -- -- -- -- --  -- -- -- -- -- -- -- --
0170:                                               37                 7
0180: 05 80 06 80 07 80 08 80  00                       .........       
```

#### Opcodes

```
  0: 0x017F [0x37] UPDATE_EVENT_POSITION_AND_DIR: x=-59.500*, z=22.000*, y=0.000*, direction=269.3°*
  1: 0x0188 [0x00] END_REQSTACK()
```

### Event 65535.19

#### Metadata

| Field        | Value    |
|--------------|----------|
| Entrypoint   | 0x0189   |
| Data Size    | 14 bytes |
| Instructions | 4        |

```
      00 01 02 03 04 05 06 07  08 09 0A 0B 0C 0D 0E 0F
      -- -- -- -- -- -- -- --  -- -- -- -- -- -- -- --
0180:                             32 09 80 1F 00 05 80           2......
0190: 0A 80 07 80 1F 01 00                              .......         
```

#### Opcodes

```
  0: 0x0189 [0x32] ExtData[1]->MainSpeed = 13* * 0.1
  1: 0x018C [0x1F] MOVE_ENTITY: EventEntity moves to X=-59.500*, Z=23.760*, Y=0.000*
  2: 0x0194 [0x1F] MOVE_ENTITY: Update entity position (mode=1)
  3: 0x0196 [0x00] END_REQSTACK()
```

### Event 65535.20

#### Metadata

| Field        | Value    |
|--------------|----------|
| Entrypoint   | 0x0197   |
| Data Size    | 14 bytes |
| Instructions | 4        |

```
      00 01 02 03 04 05 06 07  08 09 0A 0B 0C 0D 0E 0F
      -- -- -- -- -- -- -- --  -- -- -- -- -- -- -- --
0190:                      32  0B 80 1F 00 0C 80 0D 80         2........
01A0: 0E 80 1F 01 00                                    .....           
```

#### Opcodes

```
  0: 0x0197 [0x32] ExtData[1]->MainSpeed = 40* * 0.1
  1: 0x019A [0x1F] MOVE_ENTITY: EventEntity moves to X=-60.719*, Z=49.409*, Y=9.781*
  2: 0x01A2 [0x1F] MOVE_ENTITY: Update entity position (mode=1)
  3: 0x01A4 [0x00] END_REQSTACK()
```

### Event 65535.21

#### Metadata

| Field        | Value   |
|--------------|---------|
| Entrypoint   | 0x01A5  |
| Data Size    | 5 bytes |
| Instructions | 3       |

```
      00 01 02 03 04 05 06 07  08 09 0A 0B 0C 0D 0E 0F
      -- -- -- -- -- -- -- --  -- -- -- -- -- -- -- --
01A0:                1D 0F 80  23 00                         ...#.      
```

#### Opcodes

```
  0: 0x01A5 [0x1D] PRINT_EVENT_MESSAGE(message_id=7233*)
    → "You've gone too farrr this time, Ajido-Marujido. The Star Sibyl has given us authorrrization to bring you to justice."
  1: 0x01A8 [0x23] WAIT_FOR_DIALOG_INTERACTION
  2: 0x01A9 [0x00] END_REQSTACK()
```

### Event 65535.22

#### Metadata

| Field        | Value   |
|--------------|---------|
| Entrypoint   | 0x01AA  |
| Data Size    | 5 bytes |
| Instructions | 3       |

```
      00 01 02 03 04 05 06 07  08 09 0A 0B 0C 0D 0E 0F
      -- -- -- -- -- -- -- --  -- -- -- -- -- -- -- --
01A0:                                1D 10 80 23 00               ...#. 
```

#### Opcodes

```
  0: 0x01AA [0x1D] PRINT_EVENT_MESSAGE(message_id=7236*)
    → "Come quietly or there'll be trrrouble! Ajido-Marujido, I hereby arrest you for crrrimes committed against Heavens Tower!"
  1: 0x01AD [0x23] WAIT_FOR_DIALOG_INTERACTION
  2: 0x01AE [0x00] END_REQSTACK()
```

### Event 61

#### Metadata

| Field        | Value   |
|--------------|---------|
| Entrypoint   | 0x01AF  |
| Data Size    | 7 bytes |
| Instructions | 2       |

```
      00 01 02 03 04 05 06 07  08 09 0A 0B 0C 0D 0E 0F
      -- -- -- -- -- -- -- --  -- -- -- -- -- -- -- --
01A0:                                               92                 .
01B0: 01 F8 FF FF 7F 00                                 ......          
```

#### Opcodes

```
  0: 0x01AF [0x92] EventEntity->Render.Flags3 ^= 0x01
  1: 0x01B5 [0x00] END_REQSTACK()
```

### Event 65535.23

#### Metadata

| Field        | Value    |
|--------------|----------|
| Entrypoint   | 0x01B6   |
| Data Size    | 10 bytes |
| Instructions | 2        |

```
      00 01 02 03 04 05 06 07  08 09 0A 0B 0C 0D 0E 0F
      -- -- -- -- -- -- -- --  -- -- -- -- -- -- -- --
01B0:                   37 11  80 12 80 13 80 14 80 00        7.........
```

#### Opcodes

```
  0: 0x01B6 [0x37] UPDATE_EVENT_POSITION_AND_DIR: x=-60.078*, z=57.063*, y=9.592*, direction=270.3°*
  1: 0x01BF [0x00] END_REQSTACK()
```

### Event 65535.24

#### Metadata

| Field        | Value    |
|--------------|----------|
| Entrypoint   | 0x01C0   |
| Data Size    | 10 bytes |
| Instructions | 2        |

```
      00 01 02 03 04 05 06 07  08 09 0A 0B 0C 0D 0E 0F
      -- -- -- -- -- -- -- --  -- -- -- -- -- -- -- --
01C0: 37 15 80 12 80 13 80 14  80 00                    7.........      
```

#### Opcodes

```
  0: 0x01C0 [0x37] UPDATE_EVENT_POSITION_AND_DIR: x=-60.000*, z=57.063*, y=9.592*, direction=270.3°*
  1: 0x01C9 [0x00] END_REQSTACK()
```

### Event 65535.25

#### Metadata

| Field        | Value    |
|--------------|----------|
| Entrypoint   | 0x01CA   |
| Data Size    | 14 bytes |
| Instructions | 4        |

```
      00 01 02 03 04 05 06 07  08 09 0A 0B 0C 0D 0E 0F
      -- -- -- -- -- -- -- --  -- -- -- -- -- -- -- --
01C0:                                32 09 80 1F 00 15            2.....
01D0: 80 16 80 17 80 1F 01 00                           ........        
```

#### Opcodes

```
  0: 0x01CA [0x32] ExtData[1]->MainSpeed = 13* * 0.1
  1: 0x01CD [0x1F] MOVE_ENTITY: EventEntity moves to X=-60.000*, Z=58.615*, Y=9.480*
  2: 0x01D5 [0x1F] MOVE_ENTITY: Update entity position (mode=1)
  3: 0x01D7 [0x00] END_REQSTACK()
```

### Event 65535.26

#### Metadata

| Field        | Value     |
|--------------|-----------|
| Entrypoint   | 0x01D8    |
| Data Size    | 299 bytes |
| Instructions | 33        |

```
      00 01 02 03 04 05 06 07  08 09 0A 0B 0C 0D 0E 0F
      -- -- -- -- -- -- -- --  -- -- -- -- -- -- -- --
01D0:                          45 18 80 F0 FF FF 7F F0          E.......
01E0: FF FF 7F 73 30 38 34 07  80 45 19 80 F0 FF FF 7F  ...s084..E......
01F0: F0 FF FF 7F 66 64 69 31  07 80 1C 1A 80 4A A9 A0  ....fdi1.....J..
0200: 0A 01 F0 FF FF 7F 6F 76  A9 A0 0A 01 27 0A F0 FF  ......ov....'...
0210: FF 7F 16 27 0A 9D A0 0A  01 2E 1C 1A 80 52 18 80  ...'.........R..
0220: F0 FF FF 7F F0 FF FF 7F  73 30 38 34 45 19 80 F0  ........s084E...
0230: FF FF 7F F0 FF FF 7F 62  6C 6F 6E 07 80 45 1B 80  .......blon..E..
0240: F0 FF FF 7F F0 FF FF 7F  62 6C 6F 6E 07 80 45 19  ........blon..E.
0250: 80 F0 FF FF 7F F0 FF FF  7F 6F 76 6C 31 07 80 45  .........ovl1..E
0260: 18 80 F0 FF FF 7F F0 FF  FF 7F 73 30 38 33 07 80  ..........s083..
0270: 4A C9 A0 0A 01 F0 FF FF  7F 4A CA A0 0A 01 F0 FF  J........J......
0280: FF 7F 1C 1C 80 4A AD A0  0A 01 F0 FF FF 7F 4A AE  .....J........J.
0290: A0 0A 01 F0 FF FF 7F 1C  1C 80 4A AF A0 0A 01 F0  ..........J.....
02A0: FF FF 7F 4A B0 A0 0A 01  F0 FF FF 7F 1C 1C 80 4A  ...J...........J
02B0: B1 A0 0A 01 F0 FF FF 7F  4A B2 A0 0A 01 F0 FF FF  ........J.......
02C0: 7F 1C 1C 80 4A B3 A0 0A  01 F0 FF FF 7F 4A B4 A0  ....J........J..
02D0: 0A 01 F0 FF FF 7F 2A 0A  9D A0 0A 01 2A 0A F0 FF  ......*.....*...
02E0: FF 7F 55 18 80 F0 FF FF  7F F0 FF FF 7F 73 30 38  ..U..........s08
02F0: 33 45 19 80 F0 FF FF 7F  F0 FF FF 7F 62 6C 6F 66  3E..........blof
0300: 07 80 00                                          ...             
```

#### Opcodes

```
  0: 0x01D8 [0x45] LOAD_SCHEDULED_TASK: Load scheduler "s084" with entities [LocalPlayer, LocalPlayer], work=[70*, 0*]
  1: 0x01E9 [0x45] LOAD_SCHEDULED_TASK: Load scheduler "fdi1" with entities [LocalPlayer, LocalPlayer], work=[200*, 0*]
  2: 0x01FA [0x1C] WAIT(20* ticks)
  3: 0x01FD [0x4A] Joker (ID: 17473705/0x010AA0A9) looks at LocalPlayer
  4: 0x0206 [0x6F] WAIT_FRAME_DELAY: Yield until WaitTime reaches zero
  5: 0x0207 [0x76] CHECK_ENTITY_RENDER_FLAGS: Wait until Joker (ID: 17473705/0x010AA0A9) Render.Flags0 and Render.Flags3 conditions are met
  6: 0x020C [0x27] REQ_SET(priority=0x0A, entity_id=LocalPlayer, tag_num=0x16)
  7: 0x0213 [0x27] REQ_SET(priority=0x0A, entity_id=Ajido-Marujido (ID: 17473693/0x010AA09D), tag_num=0x2E)
  8: 0x021A [0x1C] WAIT(20* ticks)
  9: 0x021D [0x52] END_LOAD_SCHEDULER: End scheduler "s084" with entities [LocalPlayer, LocalPlayer], work=70*
 10: 0x022C [0x45] LOAD_SCHEDULED_TASK: Load scheduler "blon" with entities [LocalPlayer, LocalPlayer], work=[200*, 0*]
 11: 0x023D [0x45] LOAD_SCHEDULED_TASK: Load scheduler "blon" with entities [LocalPlayer, LocalPlayer], work=[201*, 0*]
 12: 0x024E [0x45] LOAD_SCHEDULED_TASK: Load scheduler "ovl1" with entities [LocalPlayer, LocalPlayer], work=[200*, 0*]
 13: 0x025F [0x45] LOAD_SCHEDULED_TASK: Load scheduler "s083" with entities [LocalPlayer, LocalPlayer], work=[70*, 0*]
 14: 0x0270 [0x4A] Ace of Wands (ID: 17473737/0x010AA0C9) looks at LocalPlayer
 15: 0x0279 [0x4A] Ace of Swords (ID: 17473738/0x010AA0CA) looks at LocalPlayer
 16: 0x0282 [0x1C] WAIT(5* ticks)
 17: 0x0285 [0x4A] King of Wands (ID: 17473709/0x010AA0AD) looks at LocalPlayer
 18: 0x028E [0x4A] King of Swords (ID: 17473710/0x010AA0AE) looks at LocalPlayer
 19: 0x0297 [0x1C] WAIT(5* ticks)
 20: 0x029A [0x4A] King of Cups (ID: 17473711/0x010AA0AF) looks at LocalPlayer
 21: 0x02A3 [0x4A] King of Batons (ID: 17473712/0x010AA0B0) looks at LocalPlayer
 22: 0x02AC [0x1C] WAIT(5* ticks)
 23: 0x02AF [0x4A] Queen of Wands (ID: 17473713/0x010AA0B1) looks at LocalPlayer
 24: 0x02B8 [0x4A] Queen of Swords (ID: 17473714/0x010AA0B2) looks at LocalPlayer
 25: 0x02C1 [0x1C] WAIT(5* ticks)
 26: 0x02C4 [0x4A] Queen of Cups (ID: 17473715/0x010AA0B3) looks at LocalPlayer
 27: 0x02CD [0x4A] Queen of Batons (ID: 17473716/0x010AA0B4) looks at LocalPlayer
 28: 0x02D6 [0x2A] GET_REQ_LEVEL(level=10, entity_id=Ajido-Marujido (ID: 17473693/0x010AA09D))
 29: 0x02DC [0x2A] GET_REQ_LEVEL(level=10, entity_id=LocalPlayer)
 30: 0x02E2 [0x55] WAIT_LOAD_SCHEDULER: Wait for scheduler "s083" with entities [LocalPlayer, LocalPlayer], work=70*
 31: 0x02F1 [0x45] LOAD_SCHEDULED_TASK: Load scheduler "blof" with entities [LocalPlayer, LocalPlayer], work=[200*, 0*]
 32: 0x0302 [0x00] END_REQSTACK()
```

### Event 65535.27

#### Metadata

| Field        | Value   |
|--------------|---------|
| Entrypoint   | 0x0303  |
| Data Size    | 4 bytes |
| Instructions | 2       |

```
      00 01 02 03 04 05 06 07  08 09 0A 0B 0C 0D 0E 0F
      -- -- -- -- -- -- -- --  -- -- -- -- -- -- -- --
0300:          1C 1D 80 00                                 ....         
```

#### Opcodes

```
  0: 0x0303 [0x1C] WAIT(100* ticks)
  1: 0x0306 [0x00] END_REQSTACK()
```

### Event 32000

#### Metadata

| Field        | Value   |
|--------------|---------|
| Entrypoint   | 0x0307  |
| Data Size    | 1 bytes |
| Instructions | 1       |

```
      00 01 02 03 04 05 06 07  08 09 0A 0B 0C 0D 0E 0F
      -- -- -- -- -- -- -- --  -- -- -- -- -- -- -- --
0300:                      00                                  .        
```

#### Opcodes

```
  0: 0x0307 [0x00] END_REQSTACK()
```

### Event 62

#### Metadata

| Field        | Value   |
|--------------|---------|
| Entrypoint   | 0x0308  |
| Data Size    | 1 bytes |
| Instructions | 1       |

```
      00 01 02 03 04 05 06 07  08 09 0A 0B 0C 0D 0E 0F
      -- -- -- -- -- -- -- --  -- -- -- -- -- -- -- --
0300:                          00                               .       
```

#### Opcodes

```
  0: 0x0308 [0x00] END_REQSTACK()
```

### Event 65535.28

#### Metadata

| Field        | Value    |
|--------------|----------|
| Entrypoint   | 0x0309   |
| Data Size    | 10 bytes |
| Instructions | 2        |

```
      00 01 02 03 04 05 06 07  08 09 0A 0B 0C 0D 0E 0F
      -- -- -- -- -- -- -- --  -- -- -- -- -- -- -- --
0300:                             37 1E 80 1F 80 20 80           7.... .
0310: 21 80 00                                          !..             
```

#### Opcodes

```
  0: 0x0309 [0x37] UPDATE_EVENT_POSITION_AND_DIR: x=-60.908*, z=4.418*, y=11.708*, direction=269.2°*
  1: 0x0312 [0x00] END_REQSTACK()
```

### Event 65535.29

#### Metadata

| Field        | Value    |
|--------------|----------|
| Entrypoint   | 0x0313   |
| Data Size    | 14 bytes |
| Instructions | 4        |

```
      00 01 02 03 04 05 06 07  08 09 0A 0B 0C 0D 0E 0F
      -- -- -- -- -- -- -- --  -- -- -- -- -- -- -- --
0310:          32 0B 80 5A 00  22 80 23 80 24 80 5A 01     2..Z.".#.$.Z.
0320: 00                                                .               
```

#### Opcodes

```
  0: 0x0313 [0x32] ExtData[1]->MainSpeed = 40* * 0.1
  1: 0x0316 [0x5A] UPDATE_EVENT_POSITION: Set EventEntity MovePosition to X=-60.400*, Z=32.379*, Y=9.426*
  2: 0x031E [0x5A] UPDATE_EVENT_POSITION: Move EventEntity incrementally towards MovePosition
  3: 0x0320 [0x00] END_REQSTACK()
```

### Event 65535.30

#### Metadata

| Field        | Value    |
|--------------|----------|
| Entrypoint   | 0x0321   |
| Data Size    | 10 bytes |
| Instructions | 2        |

```
      00 01 02 03 04 05 06 07  08 09 0A 0B 0C 0D 0E 0F
      -- -- -- -- -- -- -- --  -- -- -- -- -- -- -- --
0320:    37 25 80 26 80 27 80  28 80 00                  7%.&.'.(..     
```

#### Opcodes

```
  0: 0x0321 [0x37] UPDATE_EVENT_POSITION_AND_DIR: x=-59.975*, z=30.915*, y=9.499*, direction=146.9°*
  1: 0x032A [0x00] END_REQSTACK()
```

### Event 32004

#### Metadata

| Field        | Value   |
|--------------|---------|
| Entrypoint   | 0x032B  |
| Data Size    | 1 bytes |
| Instructions | 1       |

```
      00 01 02 03 04 05 06 07  08 09 0A 0B 0C 0D 0E 0F
      -- -- -- -- -- -- -- --  -- -- -- -- -- -- -- --
0320:                                   00                         .    
```

#### Opcodes

```
  0: 0x032B [0x00] END_REQSTACK()
```

### Event 32001

#### Metadata

| Field        | Value   |
|--------------|---------|
| Entrypoint   | 0x032C  |
| Data Size    | 1 bytes |
| Instructions | 1       |

```
      00 01 02 03 04 05 06 07  08 09 0A 0B 0C 0D 0E 0F
      -- -- -- -- -- -- -- --  -- -- -- -- -- -- -- --
0320:                                      00                       .   
```

#### Opcodes

```
  0: 0x032C [0x00] END_REQSTACK()
```
