# 17473770 - Aldo

## Common Data

| Field            | Value                        |
|------------------|------------------------------|
| Zone             | Full Moon Fountain (ID: 170) |
| Block Size       | 756 bytes                    |
| Total Events     | 32                           |
| References Count | 31                           |

## List of Events

| Event ID                   | Entrypoint   |   Size |   Instructions |
|----------------------------|--------------|--------|----------------|
| [65535](#event-65535)      | 0x0000       |      1 |              1 |
| [65535.1](#event-655351)   | 0x0001       |     19 |              5 |
| [65535.2](#event-655352)   | 0x0014       |     19 |              3 |
| [65535.3](#event-655353)   | 0x0027       |     29 |              3 |
| [65535.4](#event-655354)   | 0x0044       |     10 |              2 |
| [65535.5](#event-655355)   | 0x004E       |     10 |              2 |
| [65535.6](#event-655356)   | 0x0058       |      2 |              2 |
| [63](#event-63)            | 0x005A       |      1 |              1 |
| [65535.7](#event-655357)   | 0x005B       |     23 |              5 |
| [64](#event-64)            | 0x0072       |      1 |              1 |
| [65535.8](#event-655358)   | 0x0073       |     14 |              4 |
| [65535.9](#event-655359)   | 0x0081       |     14 |              4 |
| [65535.10](#event-6553510) | 0x008F       |     14 |              4 |
| [65535.11](#event-6553511) | 0x009D       |     16 |              2 |
| [65535.12](#event-6553512) | 0x00AD       |     16 |              2 |
| [65535.13](#event-6553513) | 0x00BD       |     19 |              3 |
| [65535.14](#event-6553514) | 0x00D0       |     19 |              3 |
| [65535.15](#event-6553515) | 0x00E3       |     16 |              2 |
| [65535.16](#event-6553516) | 0x00F3       |     16 |              2 |
| [65535.17](#event-6553517) | 0x0103       |     16 |              2 |
| [65535.18](#event-6553518) | 0x0113       |     16 |              2 |
| [65535.19](#event-6553519) | 0x0123       |     16 |              2 |
| [65535.20](#event-6553520) | 0x0133       |     16 |              2 |
| [65535.21](#event-6553521) | 0x0143       |     16 |              2 |
| [65535.22](#event-6553522) | 0x0153       |     16 |              2 |
| [65535.23](#event-6553523) | 0x0163       |     19 |              3 |
| [65535.24](#event-6553524) | 0x0176       |     19 |              3 |
| [65535.25](#event-6553525) | 0x0189       |     19 |              3 |
| [65535.26](#event-6553526) | 0x019C       |     19 |              3 |
| [65535.27](#event-6553527) | 0x01AF       |     19 |              3 |
| [65535.28](#event-6553528) | 0x01C2       |     19 |              3 |
| [65535.29](#event-6553529) | 0x01D5       |     19 |              3 |

## DAT References (imed_data)

|   Index | Hex Value   |   Dec Value |
|---------|-------------|-------------|
|       0 | 0x004E      |          78 |
|       1 | 0x00B9      |         185 |
|       2 | 0x003C      |          60 |
|       3 | 0x0080      |         128 |
|       4 | 0x0000      |           0 |
|       5 | 0x001E      |          30 |
|       6 | 0xFFFF188E  |  4294908046 |
|       7 | 0xC9EA      |       51690 |
|       8 | 0x2610      |        9744 |
|       9 | 0x000E      |          14 |
|      10 | 0xFFFF1942  |  4294908226 |
|      11 | 0xDD47      |       56647 |
|      12 | 0x2551      |        9553 |
|      13 | 0x0032      |          50 |
|      14 | 0xFFFF18FA  |  4294908154 |
|      15 | 0xEE1F      |       60959 |
|      16 | 0x24DC      |        9436 |
|      17 | 0x0028      |          40 |
|      18 | 0xFFFF15A0  |  4294907296 |
|      19 | 0xC350      |       50000 |
|      20 | 0x0A38      |        2616 |
|      21 | 0x0074      |         116 |
|      22 | 0x0234      |         564 |
|      23 | 0x021F      |         543 |
|      24 | 0x021D      |         541 |
|      25 | 0x0AC9      |        2761 |
|      26 | 0x00B4      |         180 |
|      27 | 0x0060      |          96 |
|      28 | 0x0087      |         135 |
|      29 | 0x0118      |         280 |
|      30 | 0x0084      |         132 |

## Events

### Event 65535

#### Metadata

| Field        | Value   |
|--------------|---------|
| Entrypoint   | 0x0000  |
| Data Size    | 1 bytes |
| Instructions | 1       |

```
      00 01 02 03 04 05 06 07  08 09 0A 0B 0C 0D 0E 0F
      -- -- -- -- -- -- -- --  -- -- -- -- -- -- -- --
0000: 00                                                .               
```

#### Opcodes

```
  0: 0x0000 [0x00] END_REQSTACK()
```

### Event 65535.1

#### Metadata

| Field        | Value    |
|--------------|----------|
| Entrypoint   | 0x0001   |
| Data Size    | 19 bytes |
| Instructions | 5        |

```
      00 01 02 03 04 05 06 07  08 09 0A 0B 0C 0D 0E 0F
      -- -- -- -- -- -- -- --  -- -- -- -- -- -- -- --
0000:    B6 00 00 80 22 00 92  01 F8 FF FF 7F 94 01 F8   ...."..........
0010: FF FF 7F 00                                       ....            
```

#### Opcodes

```
  0: 0x0001 [0xB6] ENTITY_APPEARANCE_HANDLER(case=Hair style, value=78*)
  1: 0x0005 [0x22] ENTITY_HIDE_FLAG(enabled=0x00)
  2: 0x0007 [0x92] EventEntity->Render.Flags3 ^= 0x01
  3: 0x000D [0x94] EventEntity->Render.Flags3 ^= 0x01
  4: 0x0013 [0x00] END_REQSTACK()
```

### Event 65535.2

#### Metadata

| Field        | Value    |
|--------------|----------|
| Entrypoint   | 0x0014   |
| Data Size    | 19 bytes |
| Instructions | 3        |

```
      00 01 02 03 04 05 06 07  08 09 0A 0B 0C 0D 0E 0F
      -- -- -- -- -- -- -- --  -- -- -- -- -- -- -- --
0010:             5B 01 80 F8  FF FF 7F F8 FF FF 7F 74      [..........t
0020: 6C 6B 30 1C 02 80 00                              lk0....         
```

#### Opcodes

```
  0: 0x0014 [0x5B] LOAD_EXT_SCHEDULER: Load scheduler "tlk0" with entities [EventEntity, EventEntity], work=185*
  1: 0x0023 [0x1C] WAIT(60* ticks)
  2: 0x0026 [0x00] END_REQSTACK()
```

### Event 65535.3

#### Metadata

| Field        | Value    |
|--------------|----------|
| Entrypoint   | 0x0027   |
| Data Size    | 29 bytes |
| Instructions | 3        |

```
      00 01 02 03 04 05 06 07  08 09 0A 0B 0C 0D 0E 0F
      -- -- -- -- -- -- -- --  -- -- -- -- -- -- -- --
0020:                      5B  01 80 F8 FF FF 7F F8 FF         [........
0030: FF 7F 74 6C 6B 31 53 F8  FF FF 7F F8 FF FF 7F 74  ..tlk1S........t
0040: 6C 6B 31 00                                       lk1.            
```

#### Opcodes

```
  0: 0x0027 [0x5B] LOAD_EXT_SCHEDULER: Load scheduler "tlk1" with entities [EventEntity, EventEntity], work=185*
  1: 0x0036 [0x53] WAIT_SCHEDULER_TASK: Wait for scheduler "tlk1" with entities [EventEntity, EventEntity]
  2: 0x0043 [0x00] END_REQSTACK()
```

### Event 65535.4

#### Metadata

| Field        | Value    |
|--------------|----------|
| Entrypoint   | 0x0044   |
| Data Size    | 10 bytes |
| Instructions | 2        |

```
      00 01 02 03 04 05 06 07  08 09 0A 0B 0C 0D 0E 0F
      -- -- -- -- -- -- -- --  -- -- -- -- -- -- -- --
0040:             6C F8 FF FF  7F 03 80 04 80 00            l.........  
```

#### Opcodes

```
  0: 0x0044 [0x6C] FADE_ENTITY_COLOR(entity_id=EventEntity, end_alpha=128*, fade_time=0*)
  1: 0x004D [0x00] END_REQSTACK()
```

### Event 65535.5

#### Metadata

| Field        | Value    |
|--------------|----------|
| Entrypoint   | 0x004E   |
| Data Size    | 10 bytes |
| Instructions | 2        |

```
      00 01 02 03 04 05 06 07  08 09 0A 0B 0C 0D 0E 0F
      -- -- -- -- -- -- -- --  -- -- -- -- -- -- -- --
0040:                                            6C F8                l.
0050: FF FF 7F 04 80 04 80 00                           ........        
```

#### Opcodes

```
  0: 0x004E [0x6C] FADE_ENTITY_COLOR(entity_id=EventEntity, end_alpha=0*, fade_time=0*)
  1: 0x0057 [0x00] END_REQSTACK()
```

### Event 65535.6

#### Metadata

| Field        | Value   |
|--------------|---------|
| Entrypoint   | 0x0058  |
| Data Size    | 2 bytes |
| Instructions | 2       |

```
      00 01 02 03 04 05 06 07  08 09 0A 0B 0C 0D 0E 0F
      -- -- -- -- -- -- -- --  -- -- -- -- -- -- -- --
0050:                          84 00                            ..      
```

#### Opcodes

```
  0: 0x0058 [0x84] ADJUST_RENDER_FLAGS3_BIT0()
  1: 0x0059 [0x00] END_REQSTACK()
```

### Event 63

#### Metadata

| Field        | Value   |
|--------------|---------|
| Entrypoint   | 0x005A  |
| Data Size    | 1 bytes |
| Instructions | 1       |

```
      00 01 02 03 04 05 06 07  08 09 0A 0B 0C 0D 0E 0F
      -- -- -- -- -- -- -- --  -- -- -- -- -- -- -- --
0050:                                00                           .     
```

#### Opcodes

```
  0: 0x005A [0x00] END_REQSTACK()
```

### Event 65535.7

#### Metadata

| Field        | Value    |
|--------------|----------|
| Entrypoint   | 0x005B   |
| Data Size    | 23 bytes |
| Instructions | 5        |

```
      00 01 02 03 04 05 06 07  08 09 0A 0B 0C 0D 0E 0F
      -- -- -- -- -- -- -- --  -- -- -- -- -- -- -- --
0050:                                   32 05 80 1F 00             2....
0060: 06 80 07 80 08 80 1F 01  4A F8 FF FF 7F E8 A0 0A  ........J.......
0070: 01 00                                             ..              
```

#### Opcodes

```
  0: 0x005B [0x32] ExtData[1]->MainSpeed = 30* * 0.1
  1: 0x005E [0x1F] MOVE_ENTITY: EventEntity moves to X=-59.250*, Z=51.690*, Y=9.744*
  2: 0x0066 [0x1F] MOVE_ENTITY: Update entity position (mode=1)
  3: 0x0068 [0x4A] EventEntity looks at Shantotto (ID: 17473768/0x010AA0E8)
  4: 0x0071 [0x00] END_REQSTACK()
```

### Event 64

#### Metadata

| Field        | Value   |
|--------------|---------|
| Entrypoint   | 0x0072  |
| Data Size    | 1 bytes |
| Instructions | 1       |

```
      00 01 02 03 04 05 06 07  08 09 0A 0B 0C 0D 0E 0F
      -- -- -- -- -- -- -- --  -- -- -- -- -- -- -- --
0070:       00                                            .             
```

#### Opcodes

```
  0: 0x0072 [0x00] END_REQSTACK()
```

### Event 65535.8

#### Metadata

| Field        | Value    |
|--------------|----------|
| Entrypoint   | 0x0073   |
| Data Size    | 14 bytes |
| Instructions | 4        |

```
      00 01 02 03 04 05 06 07  08 09 0A 0B 0C 0D 0E 0F
      -- -- -- -- -- -- -- --  -- -- -- -- -- -- -- --
0070:          32 09 80 1F 00  0A 80 0B 80 0C 80 1F 01     2............
0080: 00                                                .               
```

#### Opcodes

```
  0: 0x0073 [0x32] ExtData[1]->MainSpeed = 14* * 0.1
  1: 0x0076 [0x1F] MOVE_ENTITY: EventEntity moves to X=-59.070*, Z=56.647*, Y=9.553*
  2: 0x007E [0x1F] MOVE_ENTITY: Update entity position (mode=1)
  3: 0x0080 [0x00] END_REQSTACK()
```

### Event 65535.9

#### Metadata

| Field        | Value    |
|--------------|----------|
| Entrypoint   | 0x0081   |
| Data Size    | 14 bytes |
| Instructions | 4        |

```
      00 01 02 03 04 05 06 07  08 09 0A 0B 0C 0D 0E 0F
      -- -- -- -- -- -- -- --  -- -- -- -- -- -- -- --
0080:    32 0D 80 1F 00 0E 80  0F 80 10 80 1F 01 00      2............. 
```

#### Opcodes

```
  0: 0x0081 [0x32] ExtData[1]->MainSpeed = 50* * 0.1
  1: 0x0084 [0x1F] MOVE_ENTITY: EventEntity moves to X=-59.142*, Z=60.959*, Y=9.436*
  2: 0x008C [0x1F] MOVE_ENTITY: Update entity position (mode=1)
  3: 0x008E [0x00] END_REQSTACK()
```

### Event 65535.10

#### Metadata

| Field        | Value    |
|--------------|----------|
| Entrypoint   | 0x008F   |
| Data Size    | 14 bytes |
| Instructions | 4        |

```
      00 01 02 03 04 05 06 07  08 09 0A 0B 0C 0D 0E 0F
      -- -- -- -- -- -- -- --  -- -- -- -- -- -- -- --
0080:                                               32                 2
0090: 11 80 1F 00 12 80 13 80  08 80 1F 01 00           .............   
```

#### Opcodes

```
  0: 0x008F [0x32] ExtData[1]->MainSpeed = 40* * 0.1
  1: 0x0092 [0x1F] MOVE_ENTITY: EventEntity moves to X=-60.000*, Z=50.000*, Y=9.744*
  2: 0x009A [0x1F] MOVE_ENTITY: Update entity position (mode=1)
  3: 0x009C [0x00] END_REQSTACK()
```

### Event 65535.11

#### Metadata

| Field        | Value    |
|--------------|----------|
| Entrypoint   | 0x009D   |
| Data Size    | 16 bytes |
| Instructions | 2        |

```
      00 01 02 03 04 05 06 07  08 09 0A 0B 0C 0D 0E 0F
      -- -- -- -- -- -- -- --  -- -- -- -- -- -- -- --
0090:                                         5B 01 80               [..
00A0: F8 FF FF 7F F8 FF FF 7F  6B 6F 73 30 00           ........kos0.   
```

#### Opcodes

```
  0: 0x009D [0x5B] LOAD_EXT_SCHEDULER: Load scheduler "kos0" with entities [EventEntity, EventEntity], work=185*
  1: 0x00AC [0x00] END_REQSTACK()
```

### Event 65535.12

#### Metadata

| Field        | Value    |
|--------------|----------|
| Entrypoint   | 0x00AD   |
| Data Size    | 16 bytes |
| Instructions | 2        |

```
      00 01 02 03 04 05 06 07  08 09 0A 0B 0C 0D 0E 0F
      -- -- -- -- -- -- -- --  -- -- -- -- -- -- -- --
00A0:                                         5B 01 80               [..
00B0: F8 FF FF 7F F8 FF FF 7F  6B 6F 73 31 00           ........kos1.   
```

#### Opcodes

```
  0: 0x00AD [0x5B] LOAD_EXT_SCHEDULER: Load scheduler "kos1" with entities [EventEntity, EventEntity], work=185*
  1: 0x00BC [0x00] END_REQSTACK()
```

### Event 65535.13

#### Metadata

| Field        | Value    |
|--------------|----------|
| Entrypoint   | 0x00BD   |
| Data Size    | 19 bytes |
| Instructions | 3        |

```
      00 01 02 03 04 05 06 07  08 09 0A 0B 0C 0D 0E 0F
      -- -- -- -- -- -- -- --  -- -- -- -- -- -- -- --
00B0:                                         5B 14 80               [..
00C0: F8 FF FF 7F F8 FF FF 7F  65 6D 65 30 1C 15 80 00  ........eme0....
```

#### Opcodes

```
  0: 0x00BD [0x5B] LOAD_EXT_SCHEDULER: Load scheduler "eme0" with entities [EventEntity, EventEntity], work=2616*
  1: 0x00CC [0x1C] WAIT(116* ticks)
  2: 0x00CF [0x00] END_REQSTACK()
```

### Event 65535.14

#### Metadata

| Field        | Value    |
|--------------|----------|
| Entrypoint   | 0x00D0   |
| Data Size    | 19 bytes |
| Instructions | 3        |

```
      00 01 02 03 04 05 06 07  08 09 0A 0B 0C 0D 0E 0F
      -- -- -- -- -- -- -- --  -- -- -- -- -- -- -- --
00D0: 5B 14 80 F8 FF FF 7F F8  FF FF 7F 65 6D 65 31 1C  [..........eme1.
00E0: 16 80 00                                          ...             
```

#### Opcodes

```
  0: 0x00D0 [0x5B] LOAD_EXT_SCHEDULER: Load scheduler "eme1" with entities [EventEntity, EventEntity], work=2616*
  1: 0x00DF [0x1C] WAIT(564* ticks)
  2: 0x00E2 [0x00] END_REQSTACK()
```

### Event 65535.15

#### Metadata

| Field        | Value    |
|--------------|----------|
| Entrypoint   | 0x00E3   |
| Data Size    | 16 bytes |
| Instructions | 2        |

```
      00 01 02 03 04 05 06 07  08 09 0A 0B 0C 0D 0E 0F
      -- -- -- -- -- -- -- --  -- -- -- -- -- -- -- --
00E0:          5B 17 80 F8 FF  FF 7F F8 FF FF 7F 6A 69     [..........ji
00F0: 6B 30 00                                          k0.             
```

#### Opcodes

```
  0: 0x00E3 [0x5B] LOAD_EXT_SCHEDULER: Load scheduler "jik0" with entities [EventEntity, EventEntity], work=543*
  1: 0x00F2 [0x00] END_REQSTACK()
```

### Event 65535.16

#### Metadata

| Field        | Value    |
|--------------|----------|
| Entrypoint   | 0x00F3   |
| Data Size    | 16 bytes |
| Instructions | 2        |

```
      00 01 02 03 04 05 06 07  08 09 0A 0B 0C 0D 0E 0F
      -- -- -- -- -- -- -- --  -- -- -- -- -- -- -- --
00F0:          5B 17 80 F8 FF  FF 7F F8 FF FF 7F 6A 69     [..........ji
0100: 6B 31 00                                          k1.             
```

#### Opcodes

```
  0: 0x00F3 [0x5B] LOAD_EXT_SCHEDULER: Load scheduler "jik1" with entities [EventEntity, EventEntity], work=543*
  1: 0x0102 [0x00] END_REQSTACK()
```

### Event 65535.17

#### Metadata

| Field        | Value    |
|--------------|----------|
| Entrypoint   | 0x0103   |
| Data Size    | 16 bytes |
| Instructions | 2        |

```
      00 01 02 03 04 05 06 07  08 09 0A 0B 0C 0D 0E 0F
      -- -- -- -- -- -- -- --  -- -- -- -- -- -- -- --
0100:          5B 17 80 F8 FF  FF 7F F8 FF FF 7F 6A 69     [..........ji
0110: 6B 32 00                                          k2.             
```

#### Opcodes

```
  0: 0x0103 [0x5B] LOAD_EXT_SCHEDULER: Load scheduler "jik2" with entities [EventEntity, EventEntity], work=543*
  1: 0x0112 [0x00] END_REQSTACK()
```

### Event 65535.18

#### Metadata

| Field        | Value    |
|--------------|----------|
| Entrypoint   | 0x0113   |
| Data Size    | 16 bytes |
| Instructions | 2        |

```
      00 01 02 03 04 05 06 07  08 09 0A 0B 0C 0D 0E 0F
      -- -- -- -- -- -- -- --  -- -- -- -- -- -- -- --
0110:          5B 17 80 F8 FF  FF 7F F8 FF FF 7F 6A 69     [..........ji
0120: 6B 33 00                                          k3.             
```

#### Opcodes

```
  0: 0x0113 [0x5B] LOAD_EXT_SCHEDULER: Load scheduler "jik3" with entities [EventEntity, EventEntity], work=543*
  1: 0x0122 [0x00] END_REQSTACK()
```

### Event 65535.19

#### Metadata

| Field        | Value    |
|--------------|----------|
| Entrypoint   | 0x0123   |
| Data Size    | 16 bytes |
| Instructions | 2        |

```
      00 01 02 03 04 05 06 07  08 09 0A 0B 0C 0D 0E 0F
      -- -- -- -- -- -- -- --  -- -- -- -- -- -- -- --
0120:          5B 18 80 F8 FF  FF 7F F8 FF FF 7F 64 6C     [..........dl
0130: 30 61 00                                          0a.             
```

#### Opcodes

```
  0: 0x0123 [0x5B] LOAD_EXT_SCHEDULER: Load scheduler "dl0a" with entities [EventEntity, EventEntity], work=541*
  1: 0x0132 [0x00] END_REQSTACK()
```

### Event 65535.20

#### Metadata

| Field        | Value    |
|--------------|----------|
| Entrypoint   | 0x0133   |
| Data Size    | 16 bytes |
| Instructions | 2        |

```
      00 01 02 03 04 05 06 07  08 09 0A 0B 0C 0D 0E 0F
      -- -- -- -- -- -- -- --  -- -- -- -- -- -- -- --
0130:          5B 18 80 F8 FF  FF 7F F8 FF FF 7F 64 6C     [..........dl
0140: 30 31 00                                          01.             
```

#### Opcodes

```
  0: 0x0133 [0x5B] LOAD_EXT_SCHEDULER: Load scheduler "dl01" with entities [EventEntity, EventEntity], work=541*
  1: 0x0142 [0x00] END_REQSTACK()
```

### Event 65535.21

#### Metadata

| Field        | Value    |
|--------------|----------|
| Entrypoint   | 0x0143   |
| Data Size    | 16 bytes |
| Instructions | 2        |

```
      00 01 02 03 04 05 06 07  08 09 0A 0B 0C 0D 0E 0F
      -- -- -- -- -- -- -- --  -- -- -- -- -- -- -- --
0140:          5B 18 80 F8 FF  FF 7F F8 FF FF 7F 64 6C     [..........dl
0150: 30 32 00                                          02.             
```

#### Opcodes

```
  0: 0x0143 [0x5B] LOAD_EXT_SCHEDULER: Load scheduler "dl02" with entities [EventEntity, EventEntity], work=541*
  1: 0x0152 [0x00] END_REQSTACK()
```

### Event 65535.22

#### Metadata

| Field        | Value    |
|--------------|----------|
| Entrypoint   | 0x0153   |
| Data Size    | 16 bytes |
| Instructions | 2        |

```
      00 01 02 03 04 05 06 07  08 09 0A 0B 0C 0D 0E 0F
      -- -- -- -- -- -- -- --  -- -- -- -- -- -- -- --
0150:          5B 18 80 F8 FF  FF 7F F8 FF FF 7F 64 6C     [..........dl
0160: 30 33 00                                          03.             
```

#### Opcodes

```
  0: 0x0153 [0x5B] LOAD_EXT_SCHEDULER: Load scheduler "dl03" with entities [EventEntity, EventEntity], work=541*
  1: 0x0162 [0x00] END_REQSTACK()
```

### Event 65535.23

#### Metadata

| Field        | Value    |
|--------------|----------|
| Entrypoint   | 0x0163   |
| Data Size    | 19 bytes |
| Instructions | 3        |

```
      00 01 02 03 04 05 06 07  08 09 0A 0B 0C 0D 0E 0F
      -- -- -- -- -- -- -- --  -- -- -- -- -- -- -- --
0160:          5B 19 80 F8 FF  FF 7F F8 FF FF 7F 79 65     [..........ye
0170: 73 30 1C 1A 80 00                                 s0....          
```

#### Opcodes

```
  0: 0x0163 [0x5B] LOAD_EXT_SCHEDULER: Load scheduler "yes0" with entities [EventEntity, EventEntity], work=2761*
  1: 0x0172 [0x1C] WAIT(180* ticks)
  2: 0x0175 [0x00] END_REQSTACK()
```

### Event 65535.24

#### Metadata

| Field        | Value    |
|--------------|----------|
| Entrypoint   | 0x0176   |
| Data Size    | 19 bytes |
| Instructions | 3        |

```
      00 01 02 03 04 05 06 07  08 09 0A 0B 0C 0D 0E 0F
      -- -- -- -- -- -- -- --  -- -- -- -- -- -- -- --
0170:                   5B 19  80 F8 FF FF 7F F8 FF FF        [.........
0180: 7F 62 69 6B 30 1C 1B 80  00                       .bik0....       
```

#### Opcodes

```
  0: 0x0176 [0x5B] LOAD_EXT_SCHEDULER: Load scheduler "bik0" with entities [EventEntity, EventEntity], work=2761*
  1: 0x0185 [0x1C] WAIT(96* ticks)
  2: 0x0188 [0x00] END_REQSTACK()
```

### Event 65535.25

#### Metadata

| Field        | Value    |
|--------------|----------|
| Entrypoint   | 0x0189   |
| Data Size    | 19 bytes |
| Instructions | 3        |

```
      00 01 02 03 04 05 06 07  08 09 0A 0B 0C 0D 0E 0F
      -- -- -- -- -- -- -- --  -- -- -- -- -- -- -- --
0180:                             5B 19 80 F8 FF FF 7F           [......
0190: F8 FF FF 7F 62 69 6B 31  1C 1C 80 00              ....bik1....    
```

#### Opcodes

```
  0: 0x0189 [0x5B] LOAD_EXT_SCHEDULER: Load scheduler "bik1" with entities [EventEntity, EventEntity], work=2761*
  1: 0x0198 [0x1C] WAIT(135* ticks)
  2: 0x019B [0x00] END_REQSTACK()
```

### Event 65535.26

#### Metadata

| Field        | Value    |
|--------------|----------|
| Entrypoint   | 0x019C   |
| Data Size    | 19 bytes |
| Instructions | 3        |

```
      00 01 02 03 04 05 06 07  08 09 0A 0B 0C 0D 0E 0F
      -- -- -- -- -- -- -- --  -- -- -- -- -- -- -- --
0190:                                      5B 19 80 F8              [...
01A0: FF FF 7F F8 FF FF 7F 79  72 65 30 1C 1D 80 00     .......yre0.... 
```

#### Opcodes

```
  0: 0x019C [0x5B] LOAD_EXT_SCHEDULER: Load scheduler "yre0" with entities [EventEntity, EventEntity], work=2761*
  1: 0x01AB [0x1C] WAIT(280* ticks)
  2: 0x01AE [0x00] END_REQSTACK()
```

### Event 65535.27

#### Metadata

| Field        | Value    |
|--------------|----------|
| Entrypoint   | 0x01AF   |
| Data Size    | 19 bytes |
| Instructions | 3        |

```
      00 01 02 03 04 05 06 07  08 09 0A 0B 0C 0D 0E 0F
      -- -- -- -- -- -- -- --  -- -- -- -- -- -- -- --
01A0:                                               5B                 [
01B0: 19 80 F8 FF FF 7F F8 FF  FF 7F 6B 61 6E 30 1C 1B  ..........kan0..
01C0: 80 00                                             ..              
```

#### Opcodes

```
  0: 0x01AF [0x5B] LOAD_EXT_SCHEDULER: Load scheduler "kan0" with entities [EventEntity, EventEntity], work=2761*
  1: 0x01BE [0x1C] WAIT(96* ticks)
  2: 0x01C1 [0x00] END_REQSTACK()
```

### Event 65535.28

#### Metadata

| Field        | Value    |
|--------------|----------|
| Entrypoint   | 0x01C2   |
| Data Size    | 19 bytes |
| Instructions | 3        |

```
      00 01 02 03 04 05 06 07  08 09 0A 0B 0C 0D 0E 0F
      -- -- -- -- -- -- -- --  -- -- -- -- -- -- -- --
01C0:       5B 19 80 F8 FF FF  7F F8 FF FF 7F 6B 61 6E    [..........kan
01D0: 31 1C 1E 80 00                                    1....           
```

#### Opcodes

```
  0: 0x01C2 [0x5B] LOAD_EXT_SCHEDULER: Load scheduler "kan1" with entities [EventEntity, EventEntity], work=2761*
  1: 0x01D1 [0x1C] WAIT(132* ticks)
  2: 0x01D4 [0x00] END_REQSTACK()
```

### Event 65535.29

#### Metadata

| Field        | Value    |
|--------------|----------|
| Entrypoint   | 0x01D5   |
| Data Size    | 19 bytes |
| Instructions | 3        |

```
      00 01 02 03 04 05 06 07  08 09 0A 0B 0C 0D 0E 0F
      -- -- -- -- -- -- -- --  -- -- -- -- -- -- -- --
01D0:                5B 19 80  F8 FF FF 7F F8 FF FF 7F       [..........
01E0: 61 6B 69 30 1C 1B 80 00                           aki0....        
```

#### Opcodes

```
  0: 0x01D5 [0x5B] LOAD_EXT_SCHEDULER: Load scheduler "aki0" with entities [EventEntity, EventEntity], work=2761*
  1: 0x01E4 [0x1C] WAIT(96* ticks)
  2: 0x01E7 [0x00] END_REQSTACK()
```
