# 17473752

## Common Data

| Field            | Value                        |
|------------------|------------------------------|
| Zone             | Full Moon Fountain (ID: 170) |
| Block Size       | 44 bytes                     |
| Total Events     | 2                            |
| References Count | 2                            |

## List of Events

| Event ID              | Entrypoint   |   Size |   Instructions |
|-----------------------|--------------|--------|----------------|
| [65535](#event-65535) | 0x0000       |      1 |              1 |
| [65](#event-65)       | 0x0001       |     10 |              6 |

## DAT References (imed_data)

|   Index | Hex Value   |   Dec Value |
|---------|-------------|-------------|
|       0 | 0x1EC5      |        7877 |
|       1 | 0x1EC6      |        7878 |

## String References

- **7877**: You see a yellowing sheet of parchment on the ground. The following words are hastily scrawled onto it:
- **7878**: "Sap crystals from the Great Star Tree not permitted within. Those who disregard this rule shall be made paper-thin!"

## Events

### Event 65535

#### Metadata

| Field        | Value   |
|--------------|---------|
| Entrypoint   | 0x0000  |
| Data Size    | 1 bytes |
| Instructions | 1       |

```
      00 01 02 03 04 05 06 07  08 09 0A 0B 0C 0D 0E 0F
      -- -- -- -- -- -- -- --  -- -- -- -- -- -- -- --
0000: 00                                                .               
```

#### Opcodes

```
  0: 0x0000 [0x00] END_REQSTACK()
```

### Event 65

#### Metadata

| Field        | Value    |
|--------------|----------|
| Entrypoint   | 0x0001   |
| Data Size    | 10 bytes |
| Instructions | 6        |

```
      00 01 02 03 04 05 06 07  08 09 0A 0B 0C 0D 0E 0F
      -- -- -- -- -- -- -- --  -- -- -- -- -- -- -- --
0000:    48 00 80 23 48 01 80  23 21 00                  H..#H..#!.     
```

#### Opcodes

```
  0: 0x0001 [0x48] [System] [7877*]:
    → "You see a yellowing sheet of parchment on the ground. The following words are hastily scrawled onto it:"
  1: 0x0004 [0x23] WAIT_FOR_DIALOG_INTERACTION
  2: 0x0005 [0x48] [System] [7878*]:
    → ""Sap crystals from the Great Star Tree not permitted within. Those who disregard this rule shall be made paper-thin!""
  3: 0x0008 [0x23] WAIT_FOR_DIALOG_INTERACTION
  4: 0x0009 [0x21] END_EVENT
  5: 0x000A [0x00] END_REQSTACK()
```
