# 17895896

## Common Data

| Field            | Value               |
|------------------|---------------------|
| Zone             | Woh Gates (ID: 273) |
| Block Size       | 672 bytes           |
| Total Events     | 13                  |
| References Count | 18                  |

## List of Events

| Event ID                   | Entrypoint   |   Size |   Instructions |
|----------------------------|--------------|--------|----------------|
| [65535](#event-65535)      | 0x0000       |      1 |              1 |
| [8](#event-8)              | 0x0001       |      1 |              1 |
| [65535.1](#event-655351)   | 0x0002       |     32 |              3 |
| [65535.2](#event-655352)   | 0x0022       |     31 |              3 |
| [65535.3](#event-655353)   | 0x0041       |     31 |              3 |
| [65535.4](#event-655354)   | 0x0060       |     31 |              3 |
| [65535.5](#event-655355)   | 0x007F       |    178 |             14 |
| [65535.6](#event-655356)   | 0x0131       |     18 |              2 |
| [65535.7](#event-655357)   | 0x0143       |     38 |              4 |
| [65535.8](#event-655358)   | 0x0169       |     55 |              5 |
| [65535.9](#event-655359)   | 0x01A0       |     38 |              4 |
| [65535.10](#event-6553510) | 0x01C6       |     38 |              4 |
| [65535.11](#event-6553511) | 0x01EC       |     38 |              4 |

## DAT References (imed_data)

|   Index | Hex Value   |   Dec Value |
|---------|-------------|-------------|
|       0 | 0x0D68      |        3432 |
|       1 | 0x0DA1      |        3489 |
|       2 | 0x0D9F      |        3487 |
|       3 | 0x0DAB      |        3499 |
|       4 | 0x0DAC      |        3500 |
|       5 | 0x0DAE      |        3502 |
|       6 | 0x0DB0      |        3504 |
|       7 | 0x00EF      |         239 |
|       8 | 0x0000      |           0 |
|       9 | 0x000A      |          10 |
|      10 | 0x0014      |          20 |
|      11 | 0x00D3      |         211 |
|      12 | 0x0104      |         260 |
|      13 | 0x00D4      |         212 |
|      14 | 0x0034      |          52 |
|      15 | 0x00D5      |         213 |
|      16 | 0x0052      |          82 |
|      17 | 0x0005      |           5 |

## Events

### Event 65535

#### Metadata

| Field        | Value   |
|--------------|---------|
| Entrypoint   | 0x0000  |
| Data Size    | 1 bytes |
| Instructions | 1       |

```
      00 01 02 03 04 05 06 07  08 09 0A 0B 0C 0D 0E 0F
      -- -- -- -- -- -- -- --  -- -- -- -- -- -- -- --
0000: 00                                                .               
```

#### Opcodes

```
  0: 0x0000 [0x00] END_REQSTACK()
```

### Event 8

#### Metadata

| Field        | Value   |
|--------------|---------|
| Entrypoint   | 0x0001  |
| Data Size    | 1 bytes |
| Instructions | 1       |

```
      00 01 02 03 04 05 06 07  08 09 0A 0B 0C 0D 0E 0F
      -- -- -- -- -- -- -- --  -- -- -- -- -- -- -- --
0000:    00                                              .              
```

#### Opcodes

```
  0: 0x0001 [0x00] END_REQSTACK()
```

### Event 65535.1

#### Metadata

| Field        | Value    |
|--------------|----------|
| Entrypoint   | 0x0002   |
| Data Size    | 32 bytes |
| Instructions | 3        |

```
      00 01 02 03 04 05 06 07  08 09 0A 0B 0C 0D 0E 0F
      -- -- -- -- -- -- -- --  -- -- -- -- -- -- -- --
0000:       5F 03 00 80 D5 11  11 01 D5 11 11 01 00 FE    _.............
0010: FE FE 5B 01 80 CD 11 11  01 CD 11 11 01 00 FE FE  ..[.............
0020: FE 00                                             ..              
```

#### Opcodes

```
  0: 0x0002 [0x5F] MULTI_HANDLER_COMPLEX(mode=0x03 - Load ext scheduler (OpCode 0x5B mode 0), ref=3432*, entity1=Unnamed NPC (ID: 17895893/0x011111D5), entity2=Unnamed NPC (ID: 17895893/0x011111D5), string=0xFEFEFE00)
  1: 0x0012 [0x5B] LOAD_EXT_SCHEDULER: Load scheduler 0xFEFEFE00 with entities [Unnamed NPC (ID: 17895885/0x011111CD), Unnamed NPC (ID: 17895885/0x011111CD)], work=3489*
  2: 0x0021 [0x00] END_REQSTACK()
```

### Event 65535.2

#### Metadata

| Field        | Value    |
|--------------|----------|
| Entrypoint   | 0x0022   |
| Data Size    | 31 bytes |
| Instructions | 3        |

```
      00 01 02 03 04 05 06 07  08 09 0A 0B 0C 0D 0E 0F
      -- -- -- -- -- -- -- --  -- -- -- -- -- -- -- --
0020:       5B 00 80 D5 11 11  01 D5 11 11 01 00 FE FE    [.............
0030: FE 5B 02 80 CD 11 11 01  CD 11 11 01 00 FE FE FE  .[..............
0040: 00                                                .               
```

#### Opcodes

```
  0: 0x0022 [0x5B] LOAD_EXT_SCHEDULER: Load scheduler 0xFEFEFE00 with entities [Unnamed NPC (ID: 17895893/0x011111D5), Unnamed NPC (ID: 17895893/0x011111D5)], work=3432*
  1: 0x0031 [0x5B] LOAD_EXT_SCHEDULER: Load scheduler 0xFEFEFE00 with entities [Unnamed NPC (ID: 17895885/0x011111CD), Unnamed NPC (ID: 17895885/0x011111CD)], work=3487*
  2: 0x0040 [0x00] END_REQSTACK()
```

### Event 65535.3

#### Metadata

| Field        | Value    |
|--------------|----------|
| Entrypoint   | 0x0041   |
| Data Size    | 31 bytes |
| Instructions | 3        |

```
      00 01 02 03 04 05 06 07  08 09 0A 0B 0C 0D 0E 0F
      -- -- -- -- -- -- -- --  -- -- -- -- -- -- -- --
0040:    5B 00 80 D5 11 11 01  D5 11 11 01 00 FE FE FE   [..............
0050: 5B 03 80 CC 11 11 01 CC  11 11 01 00 FE FE FE 00  [...............
```

#### Opcodes

```
  0: 0x0041 [0x5B] LOAD_EXT_SCHEDULER: Load scheduler 0xFEFEFE00 with entities [Unnamed NPC (ID: 17895893/0x011111D5), Unnamed NPC (ID: 17895893/0x011111D5)], work=3432*
  1: 0x0050 [0x5B] LOAD_EXT_SCHEDULER: Load scheduler 0xFEFEFE00 with entities [Unnamed NPC (ID: 17895884/0x011111CC), Unnamed NPC (ID: 17895884/0x011111CC)], work=3499*
  2: 0x005F [0x00] END_REQSTACK()
```

### Event 65535.4

#### Metadata

| Field        | Value    |
|--------------|----------|
| Entrypoint   | 0x0060   |
| Data Size    | 31 bytes |
| Instructions | 3        |

```
      00 01 02 03 04 05 06 07  08 09 0A 0B 0C 0D 0E 0F
      -- -- -- -- -- -- -- --  -- -- -- -- -- -- -- --
0060: 5B 00 80 D5 11 11 01 D5  11 11 01 00 FE FE FE 5B  [..............[
0070: 04 80 CC 11 11 01 CC 11  11 01 00 FE FE FE 00     ............... 
```

#### Opcodes

```
  0: 0x0060 [0x5B] LOAD_EXT_SCHEDULER: Load scheduler 0xFEFEFE00 with entities [Unnamed NPC (ID: 17895893/0x011111D5), Unnamed NPC (ID: 17895893/0x011111D5)], work=3432*
  1: 0x006F [0x5B] LOAD_EXT_SCHEDULER: Load scheduler 0xFEFEFE00 with entities [Unnamed NPC (ID: 17895884/0x011111CC), Unnamed NPC (ID: 17895884/0x011111CC)], work=3500*
  2: 0x007E [0x00] END_REQSTACK()
```

### Event 65535.5

#### Metadata

| Field        | Value     |
|--------------|-----------|
| Entrypoint   | 0x007F    |
| Data Size    | 178 bytes |
| Instructions | 14        |

```
      00 01 02 03 04 05 06 07  08 09 0A 0B 0C 0D 0E 0F
      -- -- -- -- -- -- -- --  -- -- -- -- -- -- -- --
0070:                                               5B                 [
0080: 05 80 CD 11 11 01 CD 11  11 01 61 74 6B 30 5B 06  ..........atk0[.
0090: 80 CE 11 11 01 CE 11 11  01 61 74 6B 30 BB 07 80  .........atk0...
00A0: CD 11 11 01 CD 11 11 01  6D 61 69 31 08 80 1C 09  ........mai1....
00B0: 80 5B 05 80 CF 11 11 01  CF 11 11 01 61 74 6B 30  .[..........atk0
00C0: 5B 06 80 D0 11 11 01 D0  11 11 01 61 74 6B 30 BB  [..........atk0.
00D0: 07 80 CF 11 11 01 CF 11  11 01 6D 61 69 31 08 80  ..........mai1..
00E0: 1C 0A 80 5B 05 80 D1 11  11 01 D1 11 11 01 61 74  ...[..........at
00F0: 6B 30 5B 06 80 D2 11 11  01 D2 11 11 01 61 74 6B  k0[..........atk
0100: 30 5B 05 80 D3 11 11 01  D3 11 11 01 61 74 6B 30  0[..........atk0
0110: 5B 06 80 D4 11 11 01 D4  11 11 01 61 74 6B 30 BB  [..........atk0.
0120: 07 80 D2 11 11 01 D2 11  11 01 6D 61 69 31 08 80  ..........mai1..
0130: 00                                                .               
```

#### Opcodes

```
  0: 0x007F [0x5B] LOAD_EXT_SCHEDULER: Load scheduler "atk0" with entities [Unnamed NPC (ID: 17895885/0x011111CD), Unnamed NPC (ID: 17895885/0x011111CD)], work=3502*
  1: 0x008E [0x5B] LOAD_EXT_SCHEDULER: Load scheduler "atk0" with entities [Unnamed NPC (ID: 17895886/0x011111CE), Unnamed NPC (ID: 17895886/0x011111CE)], work=3504*
  2: 0x009D [0xBB] LOAD_EVENT_SCHEDULER_ALT: Load scheduler "mai1" with entities [Unnamed NPC (ID: 17895885/0x011111CD), Unnamed NPC (ID: 17895885/0x011111CD)], work=[239*, 0*]
  3: 0x00AE [0x1C] WAIT(10* ticks)
  4: 0x00B1 [0x5B] LOAD_EXT_SCHEDULER: Load scheduler "atk0" with entities [Unnamed NPC (ID: 17895887/0x011111CF), Unnamed NPC (ID: 17895887/0x011111CF)], work=3502*
  5: 0x00C0 [0x5B] LOAD_EXT_SCHEDULER: Load scheduler "atk0" with entities [Unnamed NPC (ID: 17895888/0x011111D0), Unnamed NPC (ID: 17895888/0x011111D0)], work=3504*
  6: 0x00CF [0xBB] LOAD_EVENT_SCHEDULER_ALT: Load scheduler "mai1" with entities [Unnamed NPC (ID: 17895887/0x011111CF), Unnamed NPC (ID: 17895887/0x011111CF)], work=[239*, 0*]
  7: 0x00E0 [0x1C] WAIT(20* ticks)
  8: 0x00E3 [0x5B] LOAD_EXT_SCHEDULER: Load scheduler "atk0" with entities [Unnamed NPC (ID: 17895889/0x011111D1), Unnamed NPC (ID: 17895889/0x011111D1)], work=3502*
  9: 0x00F2 [0x5B] LOAD_EXT_SCHEDULER: Load scheduler "atk0" with entities [Unnamed NPC (ID: 17895890/0x011111D2), Unnamed NPC (ID: 17895890/0x011111D2)], work=3504*
 10: 0x0101 [0x5B] LOAD_EXT_SCHEDULER: Load scheduler "atk0" with entities [Unnamed NPC (ID: 17895891/0x011111D3), Unnamed NPC (ID: 17895891/0x011111D3)], work=3502*
 11: 0x0110 [0x5B] LOAD_EXT_SCHEDULER: Load scheduler "atk0" with entities [Unnamed NPC (ID: 17895892/0x011111D4), Unnamed NPC (ID: 17895892/0x011111D4)], work=3504*
 12: 0x011F [0xBB] LOAD_EVENT_SCHEDULER_ALT: Load scheduler "mai1" with entities [Unnamed NPC (ID: 17895890/0x011111D2), Unnamed NPC (ID: 17895890/0x011111D2)], work=[239*, 0*]
 13: 0x0130 [0x00] END_REQSTACK()
```

### Event 65535.6

#### Metadata

| Field        | Value    |
|--------------|----------|
| Entrypoint   | 0x0131   |
| Data Size    | 18 bytes |
| Instructions | 2        |

```
      00 01 02 03 04 05 06 07  08 09 0A 0B 0C 0D 0E 0F
      -- -- -- -- -- -- -- --  -- -- -- -- -- -- -- --
0130:    CD 0B 80 CD 11 11 01  CD 11 11 01 73 30 30 32   ...........s002
0140: 08 80 00                                          ...             
```

#### Opcodes

```
  0: 0x0131 [0xCD] LOAD_SCHEDULED_TASK_ALT4: Load scheduler "s002" with entities [Unnamed NPC (ID: 17895885/0x011111CD), Unnamed NPC (ID: 17895885/0x011111CD)], work=[211*, 0*]
  1: 0x0142 [0x00] END_REQSTACK()
```

### Event 65535.7

#### Metadata

| Field        | Value    |
|--------------|----------|
| Entrypoint   | 0x0143   |
| Data Size    | 38 bytes |
| Instructions | 4        |

```
      00 01 02 03 04 05 06 07  08 09 0A 0B 0C 0D 0E 0F
      -- -- -- -- -- -- -- --  -- -- -- -- -- -- -- --
0140:          CD 0B 80 CD 11  11 01 CD 11 11 01 73 30     ...........s0
0150: 30 30 08 80 1C 0C 80 CD  0D 80 CE 11 11 01 CE 11  00..............
0160: 11 01 73 30 30 30 08 80  00                       ..s000...       
```

#### Opcodes

```
  0: 0x0143 [0xCD] LOAD_SCHEDULED_TASK_ALT4: Load scheduler "s000" with entities [Unnamed NPC (ID: 17895885/0x011111CD), Unnamed NPC (ID: 17895885/0x011111CD)], work=[211*, 0*]
  1: 0x0154 [0x1C] WAIT(260* ticks)
  2: 0x0157 [0xCD] LOAD_SCHEDULED_TASK_ALT4: Load scheduler "s000" with entities [Unnamed NPC (ID: 17895886/0x011111CE), Unnamed NPC (ID: 17895886/0x011111CE)], work=[212*, 0*]
  3: 0x0168 [0x00] END_REQSTACK()
```

### Event 65535.8

#### Metadata

| Field        | Value    |
|--------------|----------|
| Entrypoint   | 0x0169   |
| Data Size    | 55 bytes |
| Instructions | 5        |

```
      00 01 02 03 04 05 06 07  08 09 0A 0B 0C 0D 0E 0F
      -- -- -- -- -- -- -- --  -- -- -- -- -- -- -- --
0160:                             1C 09 80 CD 0D 80 CE           .......
0170: 11 11 01 CE 11 11 01 73  30 30 31 08 80 CD 0D 80  .......s001.....
0180: D0 11 11 01 D0 11 11 01  73 30 30 31 08 80 CD 0D  ........s001....
0190: 80 D2 11 11 01 D2 11 11  01 73 30 30 31 08 80 00  .........s001...
```

#### Opcodes

```
  0: 0x0169 [0x1C] WAIT(10* ticks)
  1: 0x016C [0xCD] LOAD_SCHEDULED_TASK_ALT4: Load scheduler "s001" with entities [Unnamed NPC (ID: 17895886/0x011111CE), Unnamed NPC (ID: 17895886/0x011111CE)], work=[212*, 0*]
  2: 0x017D [0xCD] LOAD_SCHEDULED_TASK_ALT4: Load scheduler "s001" with entities [Unnamed NPC (ID: 17895888/0x011111D0), Unnamed NPC (ID: 17895888/0x011111D0)], work=[212*, 0*]
  3: 0x018E [0xCD] LOAD_SCHEDULED_TASK_ALT4: Load scheduler "s001" with entities [Unnamed NPC (ID: 17895890/0x011111D2), Unnamed NPC (ID: 17895890/0x011111D2)], work=[212*, 0*]
  4: 0x019F [0x00] END_REQSTACK()
```

### Event 65535.9

#### Metadata

| Field        | Value    |
|--------------|----------|
| Entrypoint   | 0x01A0   |
| Data Size    | 38 bytes |
| Instructions | 4        |

```
      00 01 02 03 04 05 06 07  08 09 0A 0B 0C 0D 0E 0F
      -- -- -- -- -- -- -- --  -- -- -- -- -- -- -- --
01A0: CD 0B 80 CD 11 11 01 CD  11 11 01 73 30 30 32 08  ...........s002.
01B0: 80 1C 0E 80 CD 0D 80 D0  11 11 01 D0 11 11 01 73  ...............s
01C0: 30 30 32 08 80 00                                 002...          
```

#### Opcodes

```
  0: 0x01A0 [0xCD] LOAD_SCHEDULED_TASK_ALT4: Load scheduler "s002" with entities [Unnamed NPC (ID: 17895885/0x011111CD), Unnamed NPC (ID: 17895885/0x011111CD)], work=[211*, 0*]
  1: 0x01B1 [0x1C] WAIT(52* ticks)
  2: 0x01B4 [0xCD] LOAD_SCHEDULED_TASK_ALT4: Load scheduler "s002" with entities [Unnamed NPC (ID: 17895888/0x011111D0), Unnamed NPC (ID: 17895888/0x011111D0)], work=[212*, 0*]
  3: 0x01C5 [0x00] END_REQSTACK()
```

### Event 65535.10

#### Metadata

| Field        | Value    |
|--------------|----------|
| Entrypoint   | 0x01C6   |
| Data Size    | 38 bytes |
| Instructions | 4        |

```
      00 01 02 03 04 05 06 07  08 09 0A 0B 0C 0D 0E 0F
      -- -- -- -- -- -- -- --  -- -- -- -- -- -- -- --
01C0:                   CD 0F  80 CC 11 11 01 CC 11 11        ..........
01D0: 01 73 30 30 31 08 80 1C  10 80 CD 0D 80 CE 11 11  .s001...........
01E0: 01 CE 11 11 01 73 30 30  33 08 80 00              .....s003...    
```

#### Opcodes

```
  0: 0x01C6 [0xCD] LOAD_SCHEDULED_TASK_ALT4: Load scheduler "s001" with entities [Unnamed NPC (ID: 17895884/0x011111CC), Unnamed NPC (ID: 17895884/0x011111CC)], work=[213*, 0*]
  1: 0x01D7 [0x1C] WAIT(82* ticks)
  2: 0x01DA [0xCD] LOAD_SCHEDULED_TASK_ALT4: Load scheduler "s003" with entities [Unnamed NPC (ID: 17895886/0x011111CE), Unnamed NPC (ID: 17895886/0x011111CE)], work=[212*, 0*]
  3: 0x01EB [0x00] END_REQSTACK()
```

### Event 65535.11

#### Metadata

| Field        | Value    |
|--------------|----------|
| Entrypoint   | 0x01EC   |
| Data Size    | 38 bytes |
| Instructions | 4        |

```
      00 01 02 03 04 05 06 07  08 09 0A 0B 0C 0D 0E 0F
      -- -- -- -- -- -- -- --  -- -- -- -- -- -- -- --
01E0:                                      CD 0F 80 CC              ....
01F0: 11 11 01 CC 11 11 01 73  30 30 32 08 80 1C 11 80  .......s002.....
0200: CD 0D 80 CE 11 11 01 CE  11 11 01 73 30 30 34 08  ...........s004.
0210: 80 00                                             ..              
```

#### Opcodes

```
  0: 0x01EC [0xCD] LOAD_SCHEDULED_TASK_ALT4: Load scheduler "s002" with entities [Unnamed NPC (ID: 17895884/0x011111CC), Unnamed NPC (ID: 17895884/0x011111CC)], work=[213*, 0*]
  1: 0x01FD [0x1C] WAIT(5* ticks)
  2: 0x0200 [0xCD] LOAD_SCHEDULED_TASK_ALT4: Load scheduler "s004" with entities [Unnamed NPC (ID: 17895886/0x011111CE), Unnamed NPC (ID: 17895886/0x011111CE)], work=[212*, 0*]
  3: 0x0211 [0x00] END_REQSTACK()
```
