# 17895901 - Darkened Crevice

## Common Data

| Field            | Value               |
|------------------|---------------------|
| Zone             | Woh Gates (ID: 273) |
| Block Size       | 1464 bytes          |
| Total Events     | 4                   |
| References Count | 63                  |

## List of Events

| Event ID              | Entrypoint   |   Size |   Instructions |
|-----------------------|--------------|--------|----------------|
| [65535](#event-65535) | 0x0000       |      1 |              1 |
| [5512](#event-5512)   | 0x0001       |    170 |             38 |
| [5511](#event-5511)   | 0x00AB       |   1008 |            188 |
| [8](#event-8)         | 0x049B       |      1 |              1 |

## DAT References (imed_data)

|   Index | Hex Value   |   Dec Value |
|---------|-------------|-------------|
|       0 | 0x0003      |           3 |
|       1 | 0x0000      |           0 |
|       2 | 0x000B      |          11 |
|       3 | 0x000C      |          12 |
|       4 | 0x000F      |          15 |
|       5 | 0x0010      |          16 |
|       6 | 0x001D      |          29 |
|       7 | 0x1E5D      |        7773 |
|       8 | 0x1E5E      |        7774 |
|       9 | 0x1E65      |        7781 |
|      10 | 0x0001      |           1 |
|      11 | 0x40000000  |  1073741824 |
|      12 | 0x1E60      |        7776 |
|      13 | 0x001F      |          31 |
|      14 | 0xFFFFFFFF  |  4294967295 |
|      15 | 0x1E71      |        7793 |
|      16 | 0x0002      |           2 |
|      17 | 0x0005      |           5 |
|      18 | 0x1E62      |        7778 |
|      19 | 0x003C      |          60 |
|      20 | 0x0078      |         120 |
|      21 | 0x0004      |           4 |
|      22 | 0x0006      |           6 |
|      23 | 0x0007      |           7 |
|      24 | 0x0008      |           8 |
|      25 | 0x1E5F      |        7775 |
|      26 | 0x005A      |          90 |
|      27 | 0x00C9      |         201 |
|      28 | 0x002D      |          45 |
|      29 | 0x00C8      |         200 |
|      30 | 0x0009      |           9 |
|      31 | 0x000A      |          10 |
|      32 | 0x0348      |         840 |
|      33 | 0x0349      |         841 |
|      34 | 0x034A      |         842 |
|      35 | 0x034B      |         843 |
|      36 | 0x034C      |         844 |
|      37 | 0x034D      |         845 |
|      38 | 0x034E      |         846 |
|      39 | 0x034F      |         847 |
|      40 | 0x0350      |         848 |
|      41 | 0x0351      |         849 |
|      42 | 0x0352      |         850 |
|      43 | 0x0353      |         851 |
|      44 | 0x0354      |         852 |
|      45 | 0x0355      |         853 |
|      46 | 0x0356      |         854 |
|      47 | 0x0357      |         855 |
|      48 | 0x0384      |         900 |
|      49 | 0x0385      |         901 |
|      50 | 0x0103      |         259 |
|      51 | 0x0108      |         264 |
|      52 | 0x010F      |         271 |
|      53 | 0x00E5      |         229 |
|      54 | 0x035F      |         863 |
|      55 | 0x0360      |         864 |
|      56 | 0x0361      |         865 |
|      57 | 0x0362      |         866 |
|      58 | 0x0363      |         867 |
|      59 | 0x0364      |         868 |
|      60 | 0x0365      |         869 |
|      61 | 0x0366      |         870 |
|      62 | 0x0367      |         871 |

## String References

- **7773**: Only party members present with you in this area will be transported to [/this skirmish in ////this alluvion skirmish in /]$8.
- **7774**: Proceed? [Yes./No.]
- **7775**: Now entering [/a skirmish in ////an alluvion skirmish in /]$8.
- **7776**: You have chosen not to enter [/this skirmish in ////this alluvion skirmish in /]$8.
- **7778**: You cannot enter at this time. Please wait a moment and try again.
- **7781**: Your request for entry is being considered...
- **7793**: Enter which battlefield? [None./Endeavoring to Awaken./Endeavoring to Awaken./ /Behind the Sluices./Stonewalled./The Gates./Saved by the Bell./Quiescence./The Charlatan./Yggdrasil Beckons./Yggdrasil Beckons./Watery Grave./Mistress of Ceremonies./A Barrel of Laughs./Sinister Reign./The Ygnas Directive 6./Skirmishes./[Fractures/Obscured Domains]./Alluvion skirmishes./The Silent Forest./Wind of Eternity./Phantasmic Heroes.]

## Events

### Event 65535

#### Metadata

| Field        | Value   |
|--------------|---------|
| Entrypoint   | 0x0000  |
| Data Size    | 1 bytes |
| Instructions | 1       |

```
      00 01 02 03 04 05 06 07  08 09 0A 0B 0C 0D 0E 0F
      -- -- -- -- -- -- -- --  -- -- -- -- -- -- -- --
0000: 00                                                .               
```

#### Opcodes

```
  0: 0x0000 [0x00] END_REQSTACK()
```

### Event 5512

#### Metadata

| Field        | Value     |
|--------------|-----------|
| Entrypoint   | 0x0001    |
| Data Size    | 170 bytes |
| Instructions | 38        |

```
      00 01 02 03 04 05 06 07  08 09 0A 0B 0C 0D 0E 0F
      -- -- -- -- -- -- -- --  -- -- -- -- -- -- -- --
0000:    42 03 0E 00 00 80 03  0D 00 03 10 06 01 10 06   B..............
0010: 10 00 06 05 00 06 06 00  06 0F 00 03 10 00 0D 00  ................
0020: 9D 00 1B 04 05 00 10 00  40 01 80 02 80 01 10 05  ........@.......
0030: 00 40 03 80 04 80 01 10  01 80 40 05 80 06 80 01  .@........@.....
0040: 10 06 00 03 0C 00 01 10  06 03 00 05 07 00 02 03  ................
0050: 00 01 80 00 A9 00 9D 00  4B 04 02 10 10 00 03 03  ........K.......
0060: 10 0E 00 48 07 80 23 24  08 80 07 00 01 80 25 02  ...H..#$......%.
0070: 00 10 01 80 00 83 00 06  07 00 48 09 80 1A 85 01  ..........H.....
0080: 01 A6 00 02 00 10 0A 80  00 A6 00 03 01 10 0B 80  ................
0090: 9D 00 4B 04 02 10 10 00  03 03 10 0E 00 48 0C 80  ..K..........H..
00A0: 05 03 00 01 A6 00 01 4E  00 21 00                 .......N.!.     
```

#### Opcodes

```
  0: 0x0001 [0x42] SET_CLI_EVENT_CANCEL_DATA()
  1: 0x0002 [0x03] ExtData[1]->WorkLocal[14] = 3*
  2: 0x0007 [0x03] ExtData[1]->WorkLocal[13] = Work_Zone[3]
  3: 0x000C [0x06] Work_Zone[1] = 0
  4: 0x000F [0x06] ExtData[1]->WorkLocal[16] = 0
  5: 0x0012 [0x06] ExtData[1]->WorkLocal[5] = 0
  6: 0x0015 [0x06] ExtData[1]->WorkLocal[6] = 0
  7: 0x0018 [0x06] ExtData[1]->WorkLocal[15] = 0
  8: 0x001B [0x03] ExtData[1]->WorkLocal[16] = ExtData[1]->WorkLocal[13]
  9: 0x0020 [0x9D] ExtData[1]->WorkLocal[5] = 0x041B[ExtData[1]->WorkLocal[16]] // Read WORD
 10: 0x0028 [0x40] SET_BIT_WORK_RANGE(start_bit=0*, end_bit=11*, target=Work_Zone[1], source=ExtData[1]->WorkLocal[5])
 11: 0x0031 [0x40] SET_BIT_WORK_RANGE(start_bit=12*, end_bit=15*, target=Work_Zone[1], source=0*)
 12: 0x003A [0x40] SET_BIT_WORK_RANGE(start_bit=16*, end_bit=29*, target=Work_Zone[1], source=ExtData[1]->WorkLocal[6])
 13: 0x0043 [0x03] ExtData[1]->WorkLocal[12] = Work_Zone[1]
 14: 0x0048 [0x06] ExtData[1]->WorkLocal[3] = 0
 15: 0x004B [0x05] ExtData[1]->WorkLocal[7] = 1
 16: 0x004E [0x02] IF !(ExtData[1]->WorkLocal[3] == 0*) GOTO 0x00A9
 17: 0x0056 [0x9D] Work_Zone[2] = 0x044B[ExtData[1]->WorkLocal[16]] // Read WORD
 18: 0x005E [0x03] Work_Zone[3] = ExtData[1]->WorkLocal[14]
 19: 0x0063 [0x48] [System] [7773*]:
    → "Only party members present with you in this area will be transported to [/this skirmish in ////this alluvion skirmish in /]$8."
 20: 0x0066 [0x23] WAIT_FOR_DIALOG_INTERACTION
 21: 0x0067 [0x24] CREATE_DIALOG(message_id=7774*, default_option=ExtData[1]->WorkLocal[7], option_flags=0*)
    → "Proceed? [Yes./No.]"
 22: 0x006E [0x25] WAIT_DIALOG_SELECT()
 23: 0x006F [0x02] IF !(Work_Zone[0] == 0*) GOTO 0x0083
 24: 0x0077 [0x06] ExtData[1]->WorkLocal[7] = 0
 25: 0x007A [0x48] [System] [7781*]:
    → "Your request for entry is being considered..."
 26: 0x007D [0x1A] CALL_SUBROUTINE(address=0x0185)
 27: 0x0080 [0x01] GOTO 0x00A6
 28: 0x0083 [0x02] IF !(Work_Zone[0] == 1*) GOTO 0x00A6
 29: 0x008B [0x03] Work_Zone[1] = 1073741824*
 30: 0x0090 [0x9D] Work_Zone[2] = 0x044B[ExtData[1]->WorkLocal[16]] // Read WORD
 31: 0x0098 [0x03] Work_Zone[3] = ExtData[1]->WorkLocal[14]
 32: 0x009D [0x48] [System] [7776*]:
    → "You have chosen not to enter [/this skirmish in ////this alluvion skirmish in /]$8."
 33: 0x00A0 [0x05] ExtData[1]->WorkLocal[3] = 1
 34: 0x00A3 [0x01] GOTO 0x00A6

SUBROUTINE_00A6:
 35: 0x00A6 [0x01] GOTO 0x004E
 36: 0x00A9 [0x21] END_EVENT
 37: 0x00AA [0x00] END_REQSTACK()
```

### Event 5511

#### Metadata

| Field        | Value      |
|--------------|------------|
| Entrypoint   | 0x00AB     |
| Data Size    | 1008 bytes |
| Instructions | 186        |

```
      00 01 02 03 04 05 06 07  08 09 0A 0B 0C 0D 0E 0F
      -- -- -- -- -- -- -- --  -- -- -- -- -- -- -- --
00A0:                                   42 03 0E 00 00             B....
00B0: 80 03 11 00 03 10 06 01  10 06 10 00 06 05 00 06  ................
00C0: 06 00 06 0F 00 40 01 80  0D 80 0F 00 0E 80 0F 0F  .....@..........
00D0: 00 11 00 10 0F 00 0A 80  24 0F 80 01 80 0F 00 25  ........$......%
00E0: 02 00 10 01 80 00 F2 00  03 01 10 0B 80 21 00 01  .............!..
00F0: F2 00 03 10 00 00 10 0C  10 00 9D 00 1B 04 05 00  ................
0100: 10 00 40 01 80 02 80 01  10 05 00 40 03 80 04 80  ..@........@....
0110: 01 10 01 80 40 05 80 06  80 01 10 06 00 03 0C 00  ....@...........
0120: 01 10 06 03 00 05 07 00  02 03 00 01 80 00 83 01  ................
0130: 9D 00 4B 04 02 10 10 00  03 03 10 0E 00 48 07 80  ..K..........H..
0140: 23 24 08 80 07 00 01 80  25 02 00 10 01 80 00 5D  #$......%......]
0150: 01 06 07 00 48 09 80 1A  85 01 01 80 01 02 00 10  ....H...........
0160: 0A 80 00 80 01 03 01 10  0B 80 9D 00 4B 04 02 10  ............K...
0170: 10 00 03 03 10 0E 00 48  0C 80 05 03 00 01 80 01  .......H........
0180: 01 28 01 21 00 06 08 00  06 0B 00 06 09 00 02 08  .(.!............
0190: 00 01 80 00 B5 01 02 0B  00 01 80 80 A4 01 1A B6  ................
01A0: 01 01 B2 01 02 0B 00 0A  80 80 B2 01 1A 77 02 01  .............w..
01B0: B2 01 01 8E 01 1B 03 01  10 0C 00 40 03 80 04 80  ...........@....
01C0: 01 10 0B 00 43 00 43 01  03 0A 00 09 10 03 01 10  ....C.C.........
01D0: 01 80 02 0A 00 0A 80 80  E2 01 03 0B 00 0A 80 01  ................
01E0: 76 02 02 0A 00 10 80 80  08 02 0B 09 00 02 09 00  v...............
01F0: 11 80 02 02 02 05 08 00  48 12 80 23 1C 13 80 01  ........H..#....
0200: 05 02 1C 14 80 01 76 02  02 0A 00 00 80 80 1E 02  ......v.........
0210: 03 01 10 0B 80 05 08 00  05 03 00 01 76 02 02 0A  ............v...
0220: 00 15 80 80 34 02 03 01  10 0B 80 05 08 00 05 03  ....4...........
0230: 00 01 76 02 02 0A 00 11  80 80 4A 02 03 01 10 0B  ..v.......J.....
0240: 80 05 08 00 05 03 00 01  76 02 02 0A 00 16 80 80  ........v.......
0250: 60 02 03 01 10 0B 80 05  08 00 05 03 00 01 76 02  `.............v.
0260: 02 0A 00 17 80 80 76 02  03 01 10 0B 80 05 08 00  ......v.........
0270: 05 03 00 01 76 02 1B 03  01 10 0C 00 40 03 80 04  ....v.......@...
0280: 80 01 10 0B 00 43 00 43  01 03 01 10 01 80 03 0A  .....C.C........
0290: 00 09 10 02 0A 00 00 80  80 A6 02 03 01 10 0B 80  ................
02A0: 05 08 00 01 1A 04 02 0A  00 15 80 80 BC 02 03 01  ................
02B0: 10 0B 80 05 08 00 05 03  00 01 1A 04 02 0A 00 11  ................
02C0: 80 80 D2 02 03 01 10 0B  80 05 08 00 05 03 00 01  ................
02D0: 1A 04 02 0A 00 16 80 80  E8 02 03 01 10 0B 80 05  ................
02E0: 08 00 05 03 00 01 1A 04  02 0A 00 17 80 80 FE 02  ................
02F0: 03 01 10 0B 80 05 08 00  05 03 00 01 1A 04 02 0A  ................
0300: 00 18 80 80 B9 03 02 0E  00 0A 80 80 1F 03 03 02  ................
0310: 10 04 00 03 03 10 0E 00  48 19 80 23 01 3B 03 02  ........H..#.;..
0320: 0E 00 00 80 80 3B 03 9D  00 4B 04 02 10 10 00 03  .....;...K......
0330: 03 10 0E 00 48 19 80 23  01 3B 03 62 0A 80 F0 FF  ....H..#.;.b....
0340: FF 7F F0 FF FF 7F 6D 61  69 6E 01 80 1C 1A 80 45  ......main.....E
0350: 1B 80 F0 FF FF 7F F0 FF  FF 7F 77 68 6F 31 01 80  ..........who1..
0360: 55 1B 80 F0 FF FF 7F F0  FF FF 7F 77 68 6F 31 1C  U..........who1.
0370: 1C 80 45 1D 80 F0 FF FF  7F F0 FF FF 7F 66 64 6F  ..E..........fdo
0380: 31 01 80 55 1D 80 F0 FF  FF 7F F0 FF FF 7F 66 64  1..U..........fd
0390: 6F 31 45 1B 80 F0 FF FF  7F F0 FF FF 7F 77 68 69  o1E..........whi
03A0: 31 01 80 1C 04 80 30 05  08 00 05 03 00 40 01 80  1.....0......@..
03B0: 17 80 01 10 18 80 01 1A  04 02 0A 00 1E 80 80 CC  ................
03C0: 03 03 01 10 0B 80 05 08  00 01 1A 04 02 0A 00 1F  ................
03D0: 80 80 E2 03 03 01 10 0B  80 05 08 00 05 03 00 01  ................
03E0: 1A 04 02 0A 00 02 80 80  1A 04 0B 09 00 02 09 00  ................
03F0: 04 80 02 14 04 03 01 10  0C 00 40 03 80 04 80 01  ..........@.....
0400: 10 10 80 43 00 43 01 05  08 00 48 12 80 23 1C 13  ...C.C....H..#..
0410: 80 01 17 04 1C 14 80 01  1A 04 1B 20 80 21 80 22  ........... .!."
0420: 80 23 80 24 80 25 80 26  80 27 80 28 80 29 80 2A  .#.$.%.&.'.(.).*
0430: 80 2B 80 2C 80 2D 80 2E  80 2F 80 01 80 01 80 01  .+.,.-.../......
0440: 80 30 80 30 80 31 80 01  80 01 80 32 80 32 80 33  .0.0.1.....2.2.3
0450: 80 32 80 34 80 34 80 33  80 32 80 32 80 33 80 34  .2.4.4.3.2.2.3.4
0460: 80 32 80 33 80 32 80 32  80 33 80 01 80 01 80 01  .2.3.2.2.3......
0470: 80 33 80 33 80 35 80 01  80 01 80 2E 80 36 80 37  .3.3.5.......6.7
0480: 80 38 80 39 80 3A 80 3B  80 3C 80 3D 80 3E 80 01  .8.9.:.;.<.=.>..
0490: 80 01 80 01 80 01 80 01  80 01 80                 ...........     
```

#### Opcodes

```
  0: 0x00AB [0x42] SET_CLI_EVENT_CANCEL_DATA()
  1: 0x00AC [0x03] ExtData[1]->WorkLocal[14] = 3*
  2: 0x00B1 [0x03] ExtData[1]->WorkLocal[17] = Work_Zone[3]
  3: 0x00B6 [0x06] Work_Zone[1] = 0
  4: 0x00B9 [0x06] ExtData[1]->WorkLocal[16] = 0
  5: 0x00BC [0x06] ExtData[1]->WorkLocal[5] = 0
  6: 0x00BF [0x06] ExtData[1]->WorkLocal[6] = 0
  7: 0x00C2 [0x06] ExtData[1]->WorkLocal[15] = 0
  8: 0x00C5 [0x40] SET_BIT_WORK_RANGE(start_bit=0*, end_bit=31*, target=ExtData[1]->WorkLocal[15], source=4294967295*)
  9: 0x00CE [0x0F] ExtData[1]->WorkLocal[15] ^= ExtData[1]->WorkLocal[17]
 10: 0x00D3 [0x10] ExtData[1]->WorkLocal[15] <<= 1*
 11: 0x00D8 [0x24] CREATE_DIALOG(message_id=7793*, default_option=0*, option_flags=ExtData[1]->WorkLocal[15])
    → "Enter which battlefield? [None./Endeavoring to Awaken./Endeavoring to Awaken./ /Behind the Sluices./Stonewalled./The Gates./Saved by the Bell./Quiescence./The Charlatan./Yggdrasil Beckons./Yggdrasil Beckons./Watery Grave./Mistress of Ceremonies./A Barrel of Laughs./Sinister Reign./The Ygnas Directive 6./Skirmishes./[Fractures/Obscured Domains]./Alluvion skirmishes./The Silent Forest./Wind of Eternity./Phantasmic Heroes.]"
 12: 0x00DF [0x25] WAIT_DIALOG_SELECT()
 13: 0x00E0 [0x02] IF !(Work_Zone[0] == 0*) GOTO 0x00F2
 14: 0x00E8 [0x03] Work_Zone[1] = 1073741824*
 15: 0x00ED [0x21] END_EVENT
 16: 0x00EE [0x00] END_REQSTACK()

SUBROUTINE_00F2:
 17: 0x00F2 [0x03] ExtData[1]->WorkLocal[16] = Work_Zone[0]
 18: 0x00F7 [0x0C] ExtData[1]->WorkLocal[16]--
 19: 0x00FA [0x9D] ExtData[1]->WorkLocal[5] = 0x041B[ExtData[1]->WorkLocal[16]] // Read WORD
 20: 0x0102 [0x40] SET_BIT_WORK_RANGE(start_bit=0*, end_bit=11*, target=Work_Zone[1], source=ExtData[1]->WorkLocal[5])
 21: 0x010B [0x40] SET_BIT_WORK_RANGE(start_bit=12*, end_bit=15*, target=Work_Zone[1], source=0*)
 22: 0x0114 [0x40] SET_BIT_WORK_RANGE(start_bit=16*, end_bit=29*, target=Work_Zone[1], source=ExtData[1]->WorkLocal[6])
 23: 0x011D [0x03] ExtData[1]->WorkLocal[12] = Work_Zone[1]
 24: 0x0122 [0x06] ExtData[1]->WorkLocal[3] = 0
 25: 0x0125 [0x05] ExtData[1]->WorkLocal[7] = 1

SUBROUTINE_0128:
 26: 0x0128 [0x02] IF !(ExtData[1]->WorkLocal[3] == 0*) GOTO 0x0183
 27: 0x0130 [0x9D] Work_Zone[2] = 0x044B[ExtData[1]->WorkLocal[16]] // Read WORD
 28: 0x0138 [0x03] Work_Zone[3] = ExtData[1]->WorkLocal[14]
 29: 0x013D [0x48] [System] [7773*]:
    → "Only party members present with you in this area will be transported to [/this skirmish in ////this alluvion skirmish in /]$8."
 30: 0x0140 [0x23] WAIT_FOR_DIALOG_INTERACTION
 31: 0x0141 [0x24] CREATE_DIALOG(message_id=7774*, default_option=ExtData[1]->WorkLocal[7], option_flags=0*)
    → "Proceed? [Yes./No.]"
 32: 0x0148 [0x25] WAIT_DIALOG_SELECT()
 33: 0x0149 [0x02] IF !(Work_Zone[0] == 0*) GOTO 0x015D
 34: 0x0151 [0x06] ExtData[1]->WorkLocal[7] = 0
 35: 0x0154 [0x48] [System] [7781*]:
    → "Your request for entry is being considered..."
 36: 0x0157 [0x1A] CALL_SUBROUTINE(address=0x0185)
 37: 0x015A [0x01] GOTO 0x0180
 38: 0x015D [0x02] IF !(Work_Zone[0] == 1*) GOTO 0x0180
 39: 0x0165 [0x03] Work_Zone[1] = 1073741824*
 40: 0x016A [0x9D] Work_Zone[2] = 0x044B[ExtData[1]->WorkLocal[16]] // Read WORD
 41: 0x0172 [0x03] Work_Zone[3] = ExtData[1]->WorkLocal[14]
 42: 0x0177 [0x48] [System] [7776*]:
    → "You have chosen not to enter [/this skirmish in ////this alluvion skirmish in /]$8."
 43: 0x017A [0x05] ExtData[1]->WorkLocal[3] = 1
 44: 0x017D [0x01] GOTO 0x0180

SUBROUTINE_0180:
 45: 0x0180 [0x01] GOTO 0x0128
 46: 0x0183 [0x21] END_EVENT
 47: 0x0184 [0x00] END_REQSTACK()

SUBROUTINE_0185:
 48: 0x0185 [0x06] ExtData[1]->WorkLocal[8] = 0
 49: 0x0188 [0x06] ExtData[1]->WorkLocal[11] = 0
 50: 0x018B [0x06] ExtData[1]->WorkLocal[9] = 0

SUBROUTINE_018E:
 51: 0x018E [0x02] IF !(ExtData[1]->WorkLocal[8] == 0*) GOTO 0x01B5
 52: 0x0196 [0x02] IF !(ExtData[1]->WorkLocal[11] == 0*) GOTO 0x01A4
 53: 0x019E [0x1A] CALL_SUBROUTINE(address=0x01B6)
 54: 0x01A1 [0x01] GOTO 0x01B2
 55: 0x01A4 [0x02] IF !(ExtData[1]->WorkLocal[11] == 1*) GOTO 0x01B2
 56: 0x01AC [0x1A] CALL_SUBROUTINE(address=0x0277)
 57: 0x01AF [0x01] GOTO 0x01B2

SUBROUTINE_01B2:
 58: 0x01B2 [0x01] GOTO 0x018E
 59: 0x01B5 [0x1B] RETURN

SUBROUTINE_01B6:
 60: 0x01B6 [0x03] Work_Zone[1] = ExtData[1]->WorkLocal[12]
 61: 0x01BB [0x40] SET_BIT_WORK_RANGE(start_bit=12*, end_bit=15*, target=Work_Zone[1], source=ExtData[1]->WorkLocal[11])
 62: 0x01C4 [0x43] SEND_EVENT_UPDATE: Send pending tag to server (packet 0x005B)
 63: 0x01C6 [0x43] SEND_EVENT_UPDATE: Check pending flag (skip if not pending)
 64: 0x01C8 [0x03] ExtData[1]->WorkLocal[10] = Work_Zone[9]
 65: 0x01CD [0x03] Work_Zone[1] = 0*
 66: 0x01D2 [0x02] IF !(ExtData[1]->WorkLocal[10] == 1*) GOTO 0x01E2
 67: 0x01DA [0x03] ExtData[1]->WorkLocal[11] = 1*
 68: 0x01DF [0x01] GOTO 0x0276
 69: 0x01E2 [0x02] IF !(ExtData[1]->WorkLocal[10] == 2*) GOTO 0x0208
 70: 0x01EA [0x0B] ExtData[1]->WorkLocal[9]++
 71: 0x01ED [0x02] IF !(ExtData[1]->WorkLocal[9] <= 5*) GOTO 0x0202
 72: 0x01F5 [0x05] ExtData[1]->WorkLocal[8] = 1
 73: 0x01F8 [0x48] [System] [7778*]:
    → "You cannot enter at this time. Please wait a moment and try again."
 74: 0x01FB [0x23] WAIT_FOR_DIALOG_INTERACTION
 75: 0x01FC [0x1C] WAIT(60* ticks)
 76: 0x01FF [0x01] GOTO 0x0205
 77: 0x0202 [0x1C] WAIT(120* ticks)

SUBROUTINE_0205:
 78: 0x0205 [0x01] GOTO 0x0276
 79: 0x0208 [0x02] IF !(ExtData[1]->WorkLocal[10] == 3*) GOTO 0x021E
 80: 0x0210 [0x03] Work_Zone[1] = 1073741824*
 81: 0x0215 [0x05] ExtData[1]->WorkLocal[8] = 1
 82: 0x0218 [0x05] ExtData[1]->WorkLocal[3] = 1
 83: 0x021B [0x01] GOTO 0x0276
 84: 0x021E [0x02] IF !(ExtData[1]->WorkLocal[10] == 4*) GOTO 0x0234
 85: 0x0226 [0x03] Work_Zone[1] = 1073741824*
 86: 0x022B [0x05] ExtData[1]->WorkLocal[8] = 1
 87: 0x022E [0x05] ExtData[1]->WorkLocal[3] = 1
 88: 0x0231 [0x01] GOTO 0x0276
 89: 0x0234 [0x02] IF !(ExtData[1]->WorkLocal[10] == 5*) GOTO 0x024A
 90: 0x023C [0x03] Work_Zone[1] = 1073741824*
 91: 0x0241 [0x05] ExtData[1]->WorkLocal[8] = 1
 92: 0x0244 [0x05] ExtData[1]->WorkLocal[3] = 1
 93: 0x0247 [0x01] GOTO 0x0276
 94: 0x024A [0x02] IF !(ExtData[1]->WorkLocal[10] == 6*) GOTO 0x0260
 95: 0x0252 [0x03] Work_Zone[1] = 1073741824*
 96: 0x0257 [0x05] ExtData[1]->WorkLocal[8] = 1
 97: 0x025A [0x05] ExtData[1]->WorkLocal[3] = 1
 98: 0x025D [0x01] GOTO 0x0276
 99: 0x0260 [0x02] IF !(ExtData[1]->WorkLocal[10] == 7*) GOTO 0x0276
100: 0x0268 [0x03] Work_Zone[1] = 1073741824*
101: 0x026D [0x05] ExtData[1]->WorkLocal[8] = 1
102: 0x0270 [0x05] ExtData[1]->WorkLocal[3] = 1
103: 0x0273 [0x01] GOTO 0x0276

SUBROUTINE_0276:
104: 0x0276 [0x1B] RETURN

SUBROUTINE_0277:
105: 0x0277 [0x03] Work_Zone[1] = ExtData[1]->WorkLocal[12]
106: 0x027C [0x40] SET_BIT_WORK_RANGE(start_bit=12*, end_bit=15*, target=Work_Zone[1], source=ExtData[1]->WorkLocal[11])
107: 0x0285 [0x43] SEND_EVENT_UPDATE: Send pending tag to server (packet 0x005B)
108: 0x0287 [0x43] SEND_EVENT_UPDATE: Check pending flag (skip if not pending)
109: 0x0289 [0x03] Work_Zone[1] = 0*
110: 0x028E [0x03] ExtData[1]->WorkLocal[10] = Work_Zone[9]
111: 0x0293 [0x02] IF !(ExtData[1]->WorkLocal[10] == 3*) GOTO 0x02A6
112: 0x029B [0x03] Work_Zone[1] = 1073741824*
113: 0x02A0 [0x05] ExtData[1]->WorkLocal[8] = 1
114: 0x02A3 [0x01] GOTO 0x041A
115: 0x02A6 [0x02] IF !(ExtData[1]->WorkLocal[10] == 4*) GOTO 0x02BC
116: 0x02AE [0x03] Work_Zone[1] = 1073741824*
117: 0x02B3 [0x05] ExtData[1]->WorkLocal[8] = 1
118: 0x02B6 [0x05] ExtData[1]->WorkLocal[3] = 1
119: 0x02B9 [0x01] GOTO 0x041A
120: 0x02BC [0x02] IF !(ExtData[1]->WorkLocal[10] == 5*) GOTO 0x02D2
121: 0x02C4 [0x03] Work_Zone[1] = 1073741824*
122: 0x02C9 [0x05] ExtData[1]->WorkLocal[8] = 1
123: 0x02CC [0x05] ExtData[1]->WorkLocal[3] = 1
124: 0x02CF [0x01] GOTO 0x041A
125: 0x02D2 [0x02] IF !(ExtData[1]->WorkLocal[10] == 6*) GOTO 0x02E8
126: 0x02DA [0x03] Work_Zone[1] = 1073741824*
127: 0x02DF [0x05] ExtData[1]->WorkLocal[8] = 1
128: 0x02E2 [0x05] ExtData[1]->WorkLocal[3] = 1
129: 0x02E5 [0x01] GOTO 0x041A
130: 0x02E8 [0x02] IF !(ExtData[1]->WorkLocal[10] == 7*) GOTO 0x02FE
131: 0x02F0 [0x03] Work_Zone[1] = 1073741824*
132: 0x02F5 [0x05] ExtData[1]->WorkLocal[8] = 1
133: 0x02F8 [0x05] ExtData[1]->WorkLocal[3] = 1
134: 0x02FB [0x01] GOTO 0x041A
135: 0x02FE [0x02] IF !(ExtData[1]->WorkLocal[10] == 8*) GOTO 0x03B9
136: 0x0306 [0x02] IF !(ExtData[1]->WorkLocal[14] == 1*) GOTO 0x031F
137: 0x030E [0x03] Work_Zone[2] = ExtData[1]->WorkLocal[4]
138: 0x0313 [0x03] Work_Zone[3] = ExtData[1]->WorkLocal[14]
139: 0x0318 [0x48] [System] [7775*]:
    → "Now entering [/a skirmish in ////an alluvion skirmish in /]$8."
140: 0x031B [0x23] WAIT_FOR_DIALOG_INTERACTION
141: 0x031C [0x01] GOTO 0x033B
142: 0x031F [0x02] IF !(ExtData[1]->WorkLocal[14] == 3*) GOTO 0x033B
143: 0x0327 [0x9D] Work_Zone[2] = 0x044B[ExtData[1]->WorkLocal[16]] // Read WORD
144: 0x032F [0x03] Work_Zone[3] = ExtData[1]->WorkLocal[14]
145: 0x0334 [0x48] [System] [7775*]:
    → "Now entering [/a skirmish in ////an alluvion skirmish in /]$8."
146: 0x0337 [0x23] WAIT_FOR_DIALOG_INTERACTION
147: 0x0338 [0x01] GOTO 0x033B

SUBROUTINE_033B:
148: 0x033B [0x62] LOAD_EVENT_SCHEDULER: Load scheduler "main" with entities [LocalPlayer, LocalPlayer], work=[1*, 0*]
149: 0x034C [0x1C] WAIT(90* ticks)
150: 0x034F [0x45] LOAD_SCHEDULED_TASK: Load scheduler "who1" with entities [LocalPlayer, LocalPlayer], work=[201*, 0*]
151: 0x0360 [0x55] WAIT_LOAD_SCHEDULER: Wait for scheduler "who1" with entities [LocalPlayer, LocalPlayer], work=201*
152: 0x036F [0x1C] WAIT(45* ticks)
153: 0x0372 [0x45] LOAD_SCHEDULED_TASK: Load scheduler "fdo1" with entities [LocalPlayer, LocalPlayer], work=[200*, 0*]
154: 0x0383 [0x55] WAIT_LOAD_SCHEDULER: Wait for scheduler "fdo1" with entities [LocalPlayer, LocalPlayer], work=200*
155: 0x0392 [0x45] LOAD_SCHEDULED_TASK: Load scheduler "whi1" with entities [LocalPlayer, LocalPlayer], work=[201*, 0*]
156: 0x03A3 [0x1C] WAIT(15* ticks)
157: 0x03A6 [0x30] SET_UCOFF_CONTINUE_ZERO()
158: 0x03A7 [0x05] ExtData[1]->WorkLocal[8] = 1
159: 0x03AA [0x05] ExtData[1]->WorkLocal[3] = 1
160: 0x03AD [0x40] SET_BIT_WORK_RANGE(start_bit=0*, end_bit=7*, target=Work_Zone[1], source=8*)
161: 0x03B6 [0x01] GOTO 0x041A
162: 0x03B9 [0x02] IF !(ExtData[1]->WorkLocal[10] == 9*) GOTO 0x03CC
163: 0x03C1 [0x03] Work_Zone[1] = 1073741824*
164: 0x03C6 [0x05] ExtData[1]->WorkLocal[8] = 1
165: 0x03C9 [0x01] GOTO 0x041A
166: 0x03CC [0x02] IF !(ExtData[1]->WorkLocal[10] == 10*) GOTO 0x03E2
167: 0x03D4 [0x03] Work_Zone[1] = 1073741824*
168: 0x03D9 [0x05] ExtData[1]->WorkLocal[8] = 1
169: 0x03DC [0x05] ExtData[1]->WorkLocal[3] = 1
170: 0x03DF [0x01] GOTO 0x041A
171: 0x03E2 [0x02] IF !(ExtData[1]->WorkLocal[10] == 11*) GOTO 0x041A
172: 0x03EA [0x0B] ExtData[1]->WorkLocal[9]++
173: 0x03ED [0x02] IF !(ExtData[1]->WorkLocal[9] <= 15*) GOTO 0x0414
174: 0x03F5 [0x03] Work_Zone[1] = ExtData[1]->WorkLocal[12]
175: 0x03FA [0x40] SET_BIT_WORK_RANGE(start_bit=12*, end_bit=15*, target=Work_Zone[1], source=2*)
176: 0x0403 [0x43] SEND_EVENT_UPDATE: Send pending tag to server (packet 0x005B)
177: 0x0405 [0x43] SEND_EVENT_UPDATE: Check pending flag (skip if not pending)
178: 0x0407 [0x05] ExtData[1]->WorkLocal[8] = 1
179: 0x040A [0x48] [System] [7778*]:
    → "You cannot enter at this time. Please wait a moment and try again."
180: 0x040D [0x23] WAIT_FOR_DIALOG_INTERACTION
181: 0x040E [0x1C] WAIT(60* ticks)
182: 0x0411 [0x01] GOTO 0x0417
183: 0x0414 [0x1C] WAIT(120* ticks)

SUBROUTINE_0417:
184: 0x0417 [0x01] GOTO 0x041A

SUBROUTINE_041A:
185: 0x041A [0x1B] RETURN
```

#### Data or dead code:

```
# Data Section: 0x041B (128 bytes)
     0x041B: 20 80 21 80 22 80 23 80 24 80 25 80 26 80 27 80
     0x042B: 28 80 29 80 2A 80 2B 80 2C 80 2D 80 2E 80 2F 80
     0x043B: 01 80 01 80 01 80 30 80 30 80 31 80 01 80 01 80
     0x044B: 32 80 32 80 33 80 32 80 34 80 34 80 33 80 32 80
     0x045B: 32 80 33 80 34 80 32 80 33 80 32 80 32 80 33 80
     0x046B: 01 80 01 80 01 80 33 80 33 80 35 80 01 80 01 80
     0x047B: 2E 80 36 80 37 80 38 80 39 80 3A 80 3B 80 3C 80
     0x048B: 3D 80 3E 80 01 80 01 80 01 80 01 80 01 80 01 80
# Dead code (unreachable instructions):
     0x00EF [0x01] GOTO 0x00F2
```

### Event 8

#### Metadata

| Field        | Value   |
|--------------|---------|
| Entrypoint   | 0x049B  |
| Data Size    | 1 bytes |
| Instructions | 1       |

```
      00 01 02 03 04 05 06 07  08 09 0A 0B 0C 0D 0E 0F
      -- -- -- -- -- -- -- --  -- -- -- -- -- -- -- --
0490:                                   00                         .    
```

#### Opcodes

```
  0: 0x049B [0x00] END_REQSTACK()
```
