# 17895882 - Dummy

## Common Data

| Field            | Value               |
|------------------|---------------------|
| Zone             | Woh Gates (ID: 273) |
| Block Size       | 9128 bytes          |
| Total Events     | 4                   |
| References Count | 304                 |

## List of Events

| Event ID              | Entrypoint   |   Size |   Instructions |
|-----------------------|--------------|--------|----------------|
| [65535](#event-65535) | 0x0000       |      1 |              1 |
| [7](#event-7)         | 0x0001       |   1214 |            136 |
| [8](#event-8)         | 0x04BF       |   4219 |            465 |
| [9](#event-9)         | 0x153A       |   2443 |            270 |

## DAT References (imed_data)

|   Index | Hex Value   |   Dec Value |
|---------|-------------|-------------|
|       0 | 0x00C8      |         200 |
|       1 | 0x0000      |           0 |
|       2 | 0x0093      |         147 |
|       3 | 0x7066E     |      460398 |
|       4 | 0x271F2     |      160242 |
|       5 | 0x270F      |        9999 |
|       6 | 0x0C08      |        3080 |
|       7 | 0x714F5     |      464117 |
|       8 | 0x2CC9E     |      183454 |
|       9 | 0x28AD      |       10413 |
|      10 | 0x0C79      |        3193 |
|      11 | 0x706BC     |      460476 |
|      12 | 0x29DC0     |      171456 |
|      13 | 0x293C      |       10556 |
|      14 | 0x0C27      |        3111 |
|      15 | 0x0C98      |        3224 |
|      16 | 0x001E      |          30 |
|      17 | 0x027A      |         634 |
|      18 | 0x000F      |          15 |
|      19 | 0x0078      |         120 |
|      20 | 0x0C9B      |        3227 |
|      21 | 0x1E13      |        7699 |
|      22 | 0x00FA      |         250 |
|      23 | 0x1E14      |        7700 |
|      24 | 0x1E15      |        7701 |
|      25 | 0x0007      |           7 |
|      26 | 0x001D      |          29 |
|      27 | 0x0427      |        1063 |
|      28 | 0x0D34      |        3380 |
|      29 | 0x0C90      |        3216 |
|      30 | 0x1E16      |        7702 |
|      31 | 0x0096      |         150 |
|      32 | 0x003C      |          60 |
|      33 | 0x0028      |          40 |
|      34 | 0x0014      |          20 |
|      35 | 0x70222     |      459298 |
|      36 | 0x2946C     |      169068 |
|      37 | 0x298D      |       10637 |
|      38 | 0x0CAC      |        3244 |
|      39 | 0x002D      |          45 |
|      40 | 0x1E17      |        7703 |
|      41 | 0x1E18      |        7704 |
|      42 | 0x0DDF      |        3551 |
|      43 | 0x1E19      |        7705 |
|      44 | 0x012C      |         300 |
|      45 | 0x1E1A      |        7706 |
|      46 | 0x0C9F      |        3231 |
|      47 | 0x1E1B      |        7707 |
|      48 | 0x0001      |           1 |
|      49 | 0xFFFF1B29  |  4294908713 |
|      50 | 0x335DE     |      210398 |
|      51 | 0x76D6      |       30422 |
|      52 | 0x0763      |        1891 |
|      53 | 0xFFFF4DC4  |  4294921668 |
|      54 | 0x34A5F     |      215647 |
|      55 | 0x76D7      |       30423 |
|      56 | 0x0801      |        2049 |
|      57 | 0xFFFEC584  |  4294886788 |
|      58 | 0x32BE7     |      207847 |
|      59 | 0x7460      |       29792 |
|      60 | 0x0D7C      |        3452 |
|      61 | 0xFFFECBA2  |  4294888354 |
|      62 | 0x33313     |      209683 |
|      63 | 0x7592      |       30098 |
|      64 | 0x05EB      |        1515 |
|      65 | 0xFFFED774  |  4294891380 |
|      66 | 0x317E0     |      202720 |
|      67 | 0x760D      |       30221 |
|      68 | 0x0B86      |        2950 |
|      69 | 0xFFFEDAA2  |  4294892194 |
|      70 | 0x31F34     |      204596 |
|      71 | 0x7677      |       30327 |
|      72 | 0x0436      |        1078 |
|      73 | 0xFFFEE2BC  |  4294894268 |
|      74 | 0x33393     |      209811 |
|      75 | 0x764F      |       30287 |
|      76 | 0x0046      |          70 |
|      77 | 0xFFFEEB16  |  4294896406 |
|      78 | 0x331FA     |      209402 |
|      79 | 0x768F      |       30351 |
|      80 | 0x0790      |        1936 |
|      81 | 0xFFFEBBC6  |  4294884294 |
|      82 | 0x32101     |      205057 |
|      83 | 0x76B8      |       30392 |
|      84 | 0x0681      |        1665 |
|      85 | 0xFFFEBBC2  |  4294884290 |
|      86 | 0x318FE     |      203006 |
|      87 | 0x76F2      |       30450 |
|      88 | 0x0BF8      |        3064 |
|      89 | 0xFFFF464D  |  4294919757 |
|      90 | 0x3412A     |      213290 |
|      91 | 0x7723      |       30499 |
|      92 | 0x0675      |        1653 |
|      93 | 0x0039      |          57 |
|      94 | 0x0D66      |        3430 |
|      95 | 0x0D68      |        3432 |
|      96 | 0x0DA9      |        3497 |
|      97 | 0x00D5      |         213 |
|      98 | 0x028E      |         654 |
|      99 | 0x0005      |           5 |
|     100 | 0x07E2      |        2018 |
|     101 | 0x0064      |         100 |
|     102 | 0x1E1C      |        7708 |
|     103 | 0x0C99      |        3225 |
|     104 | 0xFFFEB6FE  |  4294883070 |
|     105 | 0x3327B     |      209531 |
|     106 | 0x7867      |       30823 |
|     107 | 0x0FDE      |        4062 |
|     108 | 0xFFFEC3ED  |  4294886381 |
|     109 | 0x33342     |      209730 |
|     110 | 0x760F      |       30223 |
|     111 | 0x07B7      |        1975 |
|     112 | 0x1E1D      |        7709 |
|     113 | 0x0DAF      |        3503 |
|     114 | 0x0DAE      |        3502 |
|     115 | 0x00D2      |         210 |
|     116 | 0x005A      |          90 |
|     117 | 0x0CF0      |        3312 |
|     118 | 0x0006      |           6 |
|     119 | 0xFFFEDE22  |  4294893090 |
|     120 | 0x36BDB     |      224219 |
|     121 | 0x7692      |       30354 |
|     122 | 0x0B78      |        2936 |
|     123 | 0xFFFEDBF8  |  4294892536 |
|     124 | 0x37C06     |      228358 |
|     125 | 0x7756      |       30550 |
|     126 | 0x039B      |         923 |
|     127 | 0xFFFEF660  |  4294899296 |
|     128 | 0x33450     |      210000 |
|     129 | 0x76EE      |       30446 |
|     130 | 0x0400      |        1024 |
|     131 | 0x0DAA      |        3498 |
|     132 | 0x0DB2      |        3506 |
|     133 | 0x0D9F      |        3487 |
|     134 | 0x00E6      |         230 |
|     135 | 0x0DB3      |        3507 |
|     136 | 0x009C      |         156 |
|     137 | 0x0960      |        2400 |
|     138 | 0x0DA0      |        3488 |
|     139 | 0x00EF      |         239 |
|     140 | 0x1E1E      |        7710 |
|     141 | 0x1E1F      |        7711 |
|     142 | 0xFFFEBAB7  |  4294884023 |
|     143 | 0x36C6B     |      224363 |
|     144 | 0x7D00      |       32000 |
|     145 | 0x0FF9      |        4089 |
|     146 | 0xFFFEE151  |  4294893905 |
|     147 | 0x37F09     |      229129 |
|     148 | 0x82DC      |       33500 |
|     149 | 0x0440      |        1088 |
|     150 | 0xFFFEED4D  |  4294896973 |
|     151 | 0x35BF6     |      220150 |
|     152 | 0x80E8      |       33000 |
|     153 | 0x0AE4      |        2788 |
|     154 | 0x0DA1      |        3489 |
|     155 | 0xFFFEDD24  |  4294892836 |
|     156 | 0x36BA6     |      224166 |
|     157 | 0x7685      |       30341 |
|     158 | 0x0216      |         534 |
|     159 | 0x00D6      |         214 |
|     160 | 0xFFFEF1F4  |  4294898164 |
|     161 | 0x356EC     |      218860 |
|     162 | 0x0A1A      |        2586 |
|     163 | 0xFFFEE10C  |  4294893836 |
|     164 | 0x375D7     |      226775 |
|     165 | 0x04AF      |        1199 |
|     166 | 0xFFFEEE71  |  4294897265 |
|     167 | 0x3664F     |      222799 |
|     168 | 0x7750      |       30544 |
|     169 | 0x08AE      |        2222 |
|     170 | 0x0DB6      |        3510 |
|     171 | 0x00D3      |         211 |
|     172 | 0xFFFED05A  |  4294889562 |
|     173 | 0x364AA     |      222378 |
|     174 | 0x0F0E      |        3854 |
|     175 | 0x0041      |          65 |
|     176 | 0x0DB4      |        3508 |
|     177 | 0x011B      |         283 |
|     178 | 0x0012      |          18 |
|     179 | 0x76B1      |       30385 |
|     180 | 0x0351      |         849 |
|     181 | 0xFFFED605  |  4294891013 |
|     182 | 0x38A0D     |      231949 |
|     183 | 0x76EF      |       30447 |
|     184 | 0x036F      |         879 |
|     185 | 0x1E20      |        7712 |
|     186 | 0x00BE      |         190 |
|     187 | 0xFFFED862  |  4294891618 |
|     188 | 0x33878     |      211064 |
|     189 | 0x5AC0      |       23232 |
|     190 | 0x0DB7      |        3511 |
|     191 | 0x0032      |          50 |
|     192 | 0x1E21      |        7713 |
|     193 | 0xFFFEC3E8  |  4294886376 |
|     194 | 0x36CA2     |      224418 |
|     195 | 0x76EA      |       30442 |
|     196 | 0x0FB4      |        4020 |
|     197 | 0xFFFEEA0D  |  4294896141 |
|     198 | 0x351BF     |      217535 |
|     199 | 0x76AD      |       30381 |
|     200 | 0x0A9A      |        2714 |
|     201 | 0x1E22      |        7714 |
|     202 | 0x0DAB      |        3499 |
|     203 | 0x1E23      |        7715 |
|     204 | 0x0DB1      |        3505 |
|     205 | 0xFFFEE7A7  |  4294895527 |
|     206 | 0x35C34     |      220212 |
|     207 | 0x002C      |          44 |
|     208 | 0x0DB8      |        3512 |
|     209 | 0x000A      |          10 |
|     210 | 0xFFFEB634  |  4294882868 |
|     211 | 0x38473     |      230515 |
|     212 | 0x75FA      |       30202 |
|     213 | 0x0194      |         404 |
|     214 | 0x0DB5      |        3509 |
|     215 | 0x0DAC      |        3500 |
|     216 | 0x0058      |          88 |
|     217 | 0x0DB9      |        3513 |
|     218 | 0xFFFEB489  |  4294882441 |
|     219 | 0x302E4     |      197348 |
|     220 | 0x0D11      |        3345 |
|     221 | 0xFFFEAEE1  |  4294880993 |
|     222 | 0x308D3     |      198867 |
|     223 | 0x0D7B      |        3451 |
|     224 | 0xFFFEFC4D  |  4294900813 |
|     225 | 0x342DA     |      213722 |
|     226 | 0x7598      |       30104 |
|     227 | 0x07E1      |        2017 |
|     228 | 0xFFFEF48A  |  4294898826 |
|     229 | 0x34A23     |      215587 |
|     230 | 0x768A      |       30346 |
|     231 | 0xFFFEBA27  |  4294883879 |
|     232 | 0x33A88     |      211592 |
|     233 | 0x783F      |       30783 |
|     234 | 0x0D5B      |        3419 |
|     235 | 0xFFFF1D1F  |  4294909215 |
|     236 | 0x33097     |      209047 |
|     237 | 0x76A6      |       30374 |
|     238 | 0x0E34      |        3636 |
|     239 | 0x1E24      |        7716 |
|     240 | 0x1E25      |        7717 |
|     241 | 0xFFFF5B61  |  4294925153 |
|     242 | 0x357A1     |      219041 |
|     243 | 0x7602      |       30210 |
|     244 | 0x0F1A      |        3866 |
|     245 | 0xFFFF4DFC  |  4294921724 |
|     246 | 0x34CCD     |      216269 |
|     247 | 0x76C9      |       30409 |
|     248 | 0xFFFF301B  |  4294914075 |
|     249 | 0x33E59     |      212569 |
|     250 | 0x765E      |       30302 |
|     251 | 0x2FFCD     |      196557 |
|     252 | 0x48090     |      295056 |
|     253 | 0x0511      |        1297 |
|     254 | 0x2F2D8     |      193240 |
|     255 | 0x47375     |      291701 |
|     256 | 0x0C54      |        3156 |
|     257 | 0x2FA9B     |      195227 |
|     258 | 0x45E1F     |      286239 |
|     259 | 0x065D      |        1629 |
|     260 | 0x306E9     |      198377 |
|     261 | 0x47C28     |      293928 |
|     262 | 0x0048      |          72 |
|     263 | 0x1E29      |        7721 |
|     264 | 0x0DF1      |        3569 |
|     265 | 0x1E2A      |        7722 |
|     266 | 0x0DE8      |        3560 |
|     267 | 0x1E2B      |        7723 |
|     268 | 0x0D94      |        3476 |
|     269 | 0x1E2C      |        7724 |
|     270 | 0x1E2D      |        7725 |
|     271 | 0x1E2E      |        7726 |
|     272 | 0x0C91      |        3217 |
|     273 | 0x1E2F      |        7727 |
|     274 | 0x1E30      |        7728 |
|     275 | 0x0D96      |        3478 |
|     276 | 0x1E31      |        7729 |
|     277 | 0x1E32      |        7730 |
|     278 | 0x1E33      |        7731 |
|     279 | 0x1E34      |        7732 |
|     280 | 0x1E35      |        7733 |
|     281 | 0x0D95      |        3477 |
|     282 | 0x1E36      |        7734 |
|     283 | 0x1E37      |        7735 |
|     284 | 0x1E38      |        7736 |
|     285 | 0x1E39      |        7737 |
|     286 | 0x0D3D      |        3389 |
|     287 | 0x1E3A      |        7738 |
|     288 | 0x0D9C      |        3484 |
|     289 | 0x1E3B      |        7739 |
|     290 | 0x1E3C      |        7740 |
|     291 | 0x1E3D      |        7741 |
|     292 | 0x1E3E      |        7742 |
|     293 | 0x0D92      |        3474 |
|     294 | 0x1E3F      |        7743 |
|     295 | 0x1E40      |        7744 |
|     296 | 0x1E41      |        7745 |
|     297 | 0x1E43      |        7747 |
|     298 | 0x1E42      |        7746 |
|     299 | 0x1E44      |        7748 |
|     300 | 0x1E45      |        7749 |
|     301 | 0x1E46      |        7750 |
|     302 | 0x0D9D      |        3485 |
|     303 | 0x1E47      |        7751 |

## String References

- **7745**: Any questions? [Convince whom?/What do you mean, "convince"?]

## Events

### Event 65535

#### Metadata

| Field        | Value   |
|--------------|---------|
| Entrypoint   | 0x0000  |
| Data Size    | 1 bytes |
| Instructions | 1       |

```
      00 01 02 03 04 05 06 07  08 09 0A 0B 0C 0D 0E 0F
      -- -- -- -- -- -- -- --  -- -- -- -- -- -- -- --
0000: 00                                                .               
```

#### Opcodes

```
  0: 0x0000 [0x00] END_REQSTACK()
```

### Event 7

#### Metadata

| Field        | Value      |
|--------------|------------|
| Entrypoint   | 0x0001     |
| Data Size    | 1214 bytes |
| Instructions | 136        |

```
      00 01 02 03 04 05 06 07  08 09 0A 0B 0C 0D 0E 0F
      -- -- -- -- -- -- -- --  -- -- -- -- -- -- -- --
0000:    42 45 00 80 F0 FF FF  7F F0 FF FF 7F 66 64 6F   BE..........fdo
0010: 31 01 80 55 00 80 F0 FF  FF 7F F0 FF FF 7F 66 64  1..U..........fd
0020: 6F 31 46 01 38 02 80 2F  00 CC 11 11 01 2F 00 CB  o1F.8../...../..
0030: 11 11 01 4E 00 CB 11 11  01 92 01 CC 11 11 01 92  ...N............
0040: 01 CB 11 11 01 94 01 CC  11 11 01 94 01 F0 FF FF  ................
0050: 7F 94 01 CB 11 11 01 59  05 CC 11 11 01 01 59 05  .......Y......Y.
0060: CB 11 11 01 01 4E 00 F0  FF FF 7F BA F0 FF FF 7F  .....N..........
0070: 03 80 04 80 05 80 06 80  BA CC 11 11 01 07 80 08  ................
0080: 80 09 80 0A 80 BA CB 11  11 01 0B 80 0C 80 0D 80  ................
0090: 0E 80 80 CB 11 11 01 80  F0 FF FF 7F 5B 0F 80 CB  ............[...
00A0: 11 11 01 CB 11 11 01 75  65 6F 33 1C 10 80 27 05  .......ueo3...'.
00B0: F0 FF FF 7F 04 1C 10 80  45 11 80 F8 FF FF 7F F8  ........E.......
00C0: FF FF 7F 73 31 33 37 01  80 1C 12 80 45 00 80 F0  ...s137.....E...
00D0: FF FF 7F F0 FF FF 7F 66  64 69 30 01 80 1C 13 80  .......fdi0.....
00E0: 5B 14 80 CB 11 11 01 CB  11 11 01 66 72 69 30 03  [..........fri0.
00F0: 02 10 13 80 27 10 D7 11  11 01 01 52 11 80 F8 FF  ....'......R....
0100: FF 7F F8 FF FF 7F 73 31  33 37 45 11 80 F8 FF FF  ......s137E.....
0110: 7F F8 FF FF 7F 73 31 33  38 01 80 1C 10 80 2B CB  .....s138.....+.
0120: 11 11 01 15 80 23 2A 10  D7 11 11 01 5B 14 80 CB  .....#*.....[...
0130: 11 11 01 CB 11 11 01 66  72 69 31 03 02 10 16 80  .......fri1.....
0140: 27 10 D7 11 11 01 01 52  11 80 F8 FF FF 7F F8 FF  '......R........
0150: FF 7F 73 31 33 38 45 11  80 F8 FF FF 7F F8 FF FF  ..s138E.........
0160: 7F 73 31 33 39 01 80 2B  CB 11 11 01 17 80 23 2B  .s139..+......#+
0170: CB 11 11 01 18 80 23 2A  10 D7 11 11 01 52 11 80  ......#*.....R..
0180: F8 FF FF 7F F8 FF FF 7F  73 31 33 39 45 11 80 F8  ........s139E...
0190: FF FF 7F F8 FF FF 7F 73  31 34 30 01 80 CD 19 80  .......s140.....
01A0: F8 FF FF 7F F8 FF FF 7F  73 30 30 33 01 80 45 11  ........s003..E.
01B0: 80 CB 11 11 01 CB 11 11  01 6A 69 30 73 01 80 6E  .........ji0s..n
01C0: F0 FF FF 7F 1A 80 99 F0  FF FF 7F 1C 10 80 CD 19  ................
01D0: 80 F8 FF FF 7F F8 FF FF  7F 73 30 30 34 01 80 1C  .........s004...
01E0: 10 80 6B 69 64 6C 30 CB  11 11 01 BA CB 11 11 01  ..kidl0.........
01F0: 0B 80 0C 80 0D 80 1B 80  81 00 CB 11 11 01 7C 00  ..............|.
0200: CB 11 11 01 5B 1C 80 CB  11 11 01 CB 11 11 01 75  ....[..........u
0210: 65 6F 30 1C 10 80 5B 1D  80 CB 11 11 01 CB 11 11  eo0...[.........
0220: 01 66 65 30 31 1C 10 80  52 11 80 F8 FF FF 7F F8  .fe01...R.......
0230: FF FF 7F 73 31 34 30 45  11 80 F8 FF FF 7F F8 FF  ...s140E........
0240: FF 7F 73 31 34 31 01 80  2B CB 11 11 01 1E 80 23  ..s141..+......#
0250: 5B 1D 80 CB 11 11 01 CB  11 11 01 66 65 30 30 52  [..........fe00R
0260: 11 80 F8 FF FF 7F F8 FF  FF 7F 73 31 34 31 45 11  ..........s141E.
0270: 80 F8 FF FF 7F F8 FF FF  7F 73 32 30 30 01 80 1C  .........s200...
0280: 1F 80 52 11 80 F8 FF FF  7F F8 FF FF 7F 73 32 30  ..R..........s20
0290: 30 45 11 80 F8 FF FF 7F  F8 FF FF 7F 73 31 34 32  0E..........s142
02A0: 01 80 1C 20 80 CD 19 80  F8 FF FF 7F F8 FF FF 7F  ... ............
02B0: 73 74 30 33 01 80 45 11  80 CB 11 11 01 CB 11 11  st03..E.........
02C0: 01 6A 69 30 6B 01 80 1C  20 80 CD 19 80 F8 FF FF  .ji0k... .......
02D0: 7F F8 FF FF 7F 73 74 30  34 01 80 1C 21 80 4E 00  .....st04...!.N.
02E0: CC 11 11 01 27 05 CC 11  11 01 02 1C 22 80 52 11  ....'.......".R.
02F0: 80 F8 FF FF 7F F8 FF FF  7F 73 31 34 32 45 11 80  .........s142E..
0300: F8 FF FF 7F F8 FF FF 7F  73 31 34 33 01 80 1C 12  ........s143....
0310: 80 81 01 CB 11 11 01 7C  01 CB 11 11 01 6B 69 64  .......|.....kid
0320: 6C 30 CB 11 11 01 5B 1D  80 CB 11 11 01 CB 11 11  l0....[.........
0330: 01 66 30 30 30 D3 00 CB  11 11 01 BA CB 11 11 01  .f000...........
0340: 23 80 24 80 25 80 26 80  4A CB 11 11 01 CC 11 11  #.$.%.&.J.......
0350: 01 4A F0 FF FF 7F CC 11  11 01 7B CB 11 11 01 7B  .J........{....{
0360: F0 FF FF 7F 1C 27 80 52  11 80 F8 FF FF 7F F8 FF  .....'.R........
0370: FF 7F 73 31 34 33 45 11  80 F8 FF FF 7F F8 FF FF  ..s143E.........
0380: 7F 73 31 34 34 01 80 2A  05 CC 11 11 01 2B CB 11  .s144..*.....+..
0390: 11 01 28 80 23 52 11 80  F8 FF FF 7F F8 FF FF 7F  ..(.#R..........
03A0: 73 31 34 34 45 11 80 F8  FF FF 7F F8 FF FF 7F 73  s144E..........s
03B0: 31 34 35 01 80 2B CC 11  11 01 29 80 23 52 11 80  145..+....).#R..
03C0: F8 FF FF 7F F8 FF FF 7F  73 31 34 35 45 11 80 F8  ........s145E...
03D0: FF FF 7F F8 FF FF 7F 73  31 34 36 01 80 81 00 CC  .......s146.....
03E0: 11 11 01 7C 00 CC 11 11  01 5B 2A 80 CC 11 11 01  ...|.....[*.....
03F0: CC 11 11 01 74 65 6E 30  2B CC 11 11 01 2B 80 1C  ....ten0+....+..
0400: 2C 80 52 11 80 F8 FF FF  7F F8 FF FF 7F 73 31 34  ,.R..........s14
0410: 36 45 11 80 F8 FF FF 7F  F8 FF FF 7F 73 31 34 37  6E..........s147
0420: 01 80 2B CB 11 11 01 2D  80 1C 12 80 79 00 F0 FF  ..+....-....y...
0430: FF 7F CB 11 11 01 1C 27  80 23 52 11 80 F8 FF FF  .......'.#R.....
0440: 7F F8 FF FF 7F 73 31 34  37 45 11 80 F8 FF FF 7F  .....s147E......
0450: F8 FF FF 7F 73 31 34 38  01 80 5B 2E 80 CB 11 11  ....s148..[.....
0460: 01 CB 11 11 01 79 65 73  30 2B CB 11 11 01 2F 80  .....yes0+..../.
0470: 23 45 00 80 F0 FF FF 7F  F0 FF FF 7F 66 64 6F 31  #E..........fdo1
0480: 01 80 55 00 80 F0 FF FF  7F F0 FF FF 7F 66 64 6F  ..U..........fdo
0490: 31 52 11 80 F8 FF FF 7F  F8 FF FF 7F 73 31 34 38  1R..........s148
04A0: 1C 12 80 AB 11 01 80 1C  30 80 46 00 45 00 80 F0  ........0.F.E...
04B0: FF FF 7F F0 FF FF 7F 66  64 69 32 01 80 21 00     .......fdi2..!. 
```

#### Opcodes

```
  0: 0x0001 [0x42] SET_CLI_EVENT_CANCEL_DATA()
  1: 0x0002 [0x45] LOAD_SCHEDULED_TASK: Load scheduler "fdo1" with entities [LocalPlayer, LocalPlayer], work=[200*, 0*]
  2: 0x0013 [0x55] WAIT_LOAD_SCHEDULER: Wait for scheduler "fdo1" with entities [LocalPlayer, LocalPlayer], work=200*
  3: 0x0022 [0x46] CAMERA_CONTROL: Disable user control
  4: 0x0024 [0x38] SET_CLIENT_EVENT_MODE(mode=147*)
  5: 0x0027 [0x2F] Unnamed NPC (ID: 17895884/0x011111CC)->Render.Flags0 &= ~0x80000 // Bit 19
  6: 0x002D [0x2F] Arciela (ID: 17895883/0x011111CB)->Render.Flags0 &= ~0x80000 // Bit 19
  7: 0x0033 [0x4E] SET_ENTITY_HIDE_FLAG: Show Arciela (ID: 17895883/0x011111CB)
  8: 0x0039 [0x92] Unnamed NPC (ID: 17895884/0x011111CC)->Render.Flags3 ^= 0x01
  9: 0x003F [0x92] Arciela (ID: 17895883/0x011111CB)->Render.Flags3 ^= 0x01
 10: 0x0045 [0x94] Unnamed NPC (ID: 17895884/0x011111CC)->Render.Flags3 ^= 0x01
 11: 0x004B [0x94] LocalPlayer->Render.Flags3 ^= 0x01
 12: 0x0051 [0x94] Arciela (ID: 17895883/0x011111CB)->Render.Flags3 ^= 0x01
 13: 0x0057 [0x59] UPDATE_ENTITY_DATA: Unnamed NPC (ID: 17895884/0x011111CC)->Render.Flags0 |= 0x200000
 14: 0x005E [0x59] UPDATE_ENTITY_DATA: Arciela (ID: 17895883/0x011111CB)->Render.Flags0 |= 0x200000
 15: 0x0065 [0x4E] SET_ENTITY_HIDE_FLAG: Show LocalPlayer
 16: 0x006B [0xBA] SET_ENTITY_POSITION(entity_id=LocalPlayer, pos_x=460.398*, pos_z=160.242*, pos_y=9.999*, direction=270.7°*)
 17: 0x0078 [0xBA] SET_ENTITY_POSITION(entity_id=Unnamed NPC (ID: 17895884/0x011111CC), pos_x=464.117*, pos_z=183.454*, pos_y=10.413*, direction=280.6°*)
 18: 0x0085 [0xBA] SET_ENTITY_POSITION(entity_id=Arciela (ID: 17895883/0x011111CB), pos_x=460.476*, pos_z=171.456*, pos_y=10.556*, direction=273.4°*)
 19: 0x0092 [0x80] LOAD_WAIT(entity=Arciela (ID: 17895883/0x011111CB))
 20: 0x0097 [0x80] LOAD_WAIT(entity=LocalPlayer)
 21: 0x009C [0x5B] LOAD_EXT_SCHEDULER: Load scheduler "ueo3" with entities [Arciela (ID: 17895883/0x011111CB), Arciela (ID: 17895883/0x011111CB)], work=3224*
 22: 0x00AB [0x1C] WAIT(30* ticks)
 23: 0x00AE [0x27] REQ_SET(priority=0x05, entity_id=LocalPlayer, tag_num=0x04)
 24: 0x00B5 [0x1C] WAIT(30* ticks)
 25: 0x00B8 [0x45] LOAD_SCHEDULED_TASK: Load scheduler "s137" with entities [EventEntity, EventEntity], work=[634*, 0*]
 26: 0x00C9 [0x1C] WAIT(15* ticks)
 27: 0x00CC [0x45] LOAD_SCHEDULED_TASK: Load scheduler "fdi0" with entities [LocalPlayer, LocalPlayer], work=[200*, 0*]
 28: 0x00DD [0x1C] WAIT(120* ticks)
 29: 0x00E0 [0x5B] LOAD_EXT_SCHEDULER: Load scheduler "fri0" with entities [Arciela (ID: 17895883/0x011111CB), Arciela (ID: 17895883/0x011111CB)], work=3227*
 30: 0x00EF [0x03] Work_Zone[2] = 120*
 31: 0x00F4 [0x27] REQ_SET(priority=0x10, entity_id=??? (ID: 17895895/0x011111D7), tag_num=0x01)
 32: 0x00FB [0x52] END_LOAD_SCHEDULER: End scheduler "s137" with entities [EventEntity, EventEntity], work=634*
 33: 0x010A [0x45] LOAD_SCHEDULED_TASK: Load scheduler "s138" with entities [EventEntity, EventEntity], work=[634*, 0*]
 34: 0x011B [0x1C] WAIT(30* ticks)
 35: 0x011E [0x2B] Arciela (ID: 17895883/0x011111CB) [7699*]:
    → "<Player>... Somehow it doesn't surprise me to find you here."
 36: 0x0125 [0x23] WAIT_FOR_DIALOG_INTERACTION
 37: 0x0126 [0x2A] GET_REQ_LEVEL(level=16, entity_id=??? (ID: 17895895/0x011111D7))
 38: 0x012C [0x5B] LOAD_EXT_SCHEDULER: Load scheduler "fri1" with entities [Arciela (ID: 17895883/0x011111CB), Arciela (ID: 17895883/0x011111CB)], work=3227*
 39: 0x013B [0x03] Work_Zone[2] = 250*
 40: 0x0140 [0x27] REQ_SET(priority=0x10, entity_id=??? (ID: 17895895/0x011111D7), tag_num=0x01)
 41: 0x0147 [0x52] END_LOAD_SCHEDULER: End scheduler "s138" with entities [EventEntity, EventEntity], work=634*
 42: 0x0156 [0x45] LOAD_SCHEDULED_TASK: Load scheduler "s139" with entities [EventEntity, EventEntity], work=[634*, 0*]
 43: 0x0167 [0x2B] Arciela (ID: 17895883/0x011111CB) [7700*]:
    → "The sealed ruins in the Woh Gates must lead to the Serpentine Labyrinth. I can feel it."
 44: 0x016E [0x23] WAIT_FOR_DIALOG_INTERACTION
 45: 0x016F [0x2B] Arciela (ID: 17895883/0x011111CB) [7701*]:
    → "But how can we get inside?"
 46: 0x0176 [0x23] WAIT_FOR_DIALOG_INTERACTION
 47: 0x0177 [0x2A] GET_REQ_LEVEL(level=16, entity_id=??? (ID: 17895895/0x011111D7))
 48: 0x017D [0x52] END_LOAD_SCHEDULER: End scheduler "s139" with entities [EventEntity, EventEntity], work=634*
 49: 0x018C [0x45] LOAD_SCHEDULED_TASK: Load scheduler "s140" with entities [EventEntity, EventEntity], work=[634*, 0*]
 50: 0x019D [0xCD] LOAD_SCHEDULED_TASK_ALT4: Load scheduler "s003" with entities [EventEntity, EventEntity], work=[7*, 0*]
 51: 0x01AE [0x45] LOAD_SCHEDULED_TASK: Load scheduler "ji0s" with entities [Arciela (ID: 17895883/0x011111CB), Arciela (ID: 17895883/0x011111CB)], work=[634*, 0*]
 52: 0x01BF [0x6E] LocalPlayer uses emote 29*
 53: 0x01C6 [0x99] Wait for LocalPlayer animation to complete
 54: 0x01CB [0x1C] WAIT(30* ticks)
 55: 0x01CE [0xCD] LOAD_SCHEDULED_TASK_ALT4: Load scheduler "s004" with entities [EventEntity, EventEntity], work=[7*, 0*]
 56: 0x01DF [0x1C] WAIT(30* ticks)
 57: 0x01E2 [0x6B] STOP_AND_IDLE: Arciela (ID: 17895883/0x011111CB) stops current action and resets to idle (animation="idl0")
 58: 0x01EB [0xBA] SET_ENTITY_POSITION(entity_id=Arciela (ID: 17895883/0x011111CB), pos_x=460.476*, pos_z=171.456*, pos_y=10.556*, direction=93.4°*)
 59: 0x01F8 [0x81] SET_ENTITY_BLINKING(blink_flag=0x00, entity=Arciela (ID: 17895883/0x011111CB))
 60: 0x01FE [0x7C] Arciela (ID: 17895883/0x011111CB)->Render.Flags2 |= 0x00
 61: 0x0204 [0x5B] LOAD_EXT_SCHEDULER: Load scheduler "ueo0" with entities [Arciela (ID: 17895883/0x011111CB), Arciela (ID: 17895883/0x011111CB)], work=3380*
 62: 0x0213 [0x1C] WAIT(30* ticks)
 63: 0x0216 [0x5B] LOAD_EXT_SCHEDULER: Load scheduler "fe01" with entities [Arciela (ID: 17895883/0x011111CB), Arciela (ID: 17895883/0x011111CB)], work=3216*
 64: 0x0225 [0x1C] WAIT(30* ticks)
 65: 0x0228 [0x52] END_LOAD_SCHEDULER: End scheduler "s140" with entities [EventEntity, EventEntity], work=634*
 66: 0x0237 [0x45] LOAD_SCHEDULED_TASK: Load scheduler "s141" with entities [EventEntity, EventEntity], work=[634*, 0*]
 67: 0x0248 [0x2B] Arciela (ID: 17895883/0x011111CB) [7702*]:
    → "Wh-what's that?"
 68: 0x024F [0x23] WAIT_FOR_DIALOG_INTERACTION
 69: 0x0250 [0x5B] LOAD_EXT_SCHEDULER: Load scheduler "fe00" with entities [Arciela (ID: 17895883/0x011111CB), Arciela (ID: 17895883/0x011111CB)], work=3216*
 70: 0x025F [0x52] END_LOAD_SCHEDULER: End scheduler "s141" with entities [EventEntity, EventEntity], work=634*
 71: 0x026E [0x45] LOAD_SCHEDULED_TASK: Load scheduler "s200" with entities [EventEntity, EventEntity], work=[634*, 0*]
 72: 0x027F [0x1C] WAIT(150* ticks)
 73: 0x0282 [0x52] END_LOAD_SCHEDULER: End scheduler "s200" with entities [EventEntity, EventEntity], work=634*
 74: 0x0291 [0x45] LOAD_SCHEDULED_TASK: Load scheduler "s142" with entities [EventEntity, EventEntity], work=[634*, 0*]
 75: 0x02A2 [0x1C] WAIT(60* ticks)
 76: 0x02A5 [0xCD] LOAD_SCHEDULED_TASK_ALT4: Load scheduler "st03" with entities [EventEntity, EventEntity], work=[7*, 0*]
 77: 0x02B6 [0x45] LOAD_SCHEDULED_TASK: Load scheduler "ji0k" with entities [Arciela (ID: 17895883/0x011111CB), Arciela (ID: 17895883/0x011111CB)], work=[634*, 0*]
 78: 0x02C7 [0x1C] WAIT(60* ticks)
 79: 0x02CA [0xCD] LOAD_SCHEDULED_TASK_ALT4: Load scheduler "st04" with entities [EventEntity, EventEntity], work=[7*, 0*]
 80: 0x02DB [0x1C] WAIT(40* ticks)
 81: 0x02DE [0x4E] SET_ENTITY_HIDE_FLAG: Show Unnamed NPC (ID: 17895884/0x011111CC)
 82: 0x02E4 [0x27] REQ_SET(priority=0x05, entity_id=Unnamed NPC (ID: 17895884/0x011111CC), tag_num=0x02)
 83: 0x02EB [0x1C] WAIT(20* ticks)
 84: 0x02EE [0x52] END_LOAD_SCHEDULER: End scheduler "s142" with entities [EventEntity, EventEntity], work=634*
 85: 0x02FD [0x45] LOAD_SCHEDULED_TASK: Load scheduler "s143" with entities [EventEntity, EventEntity], work=[634*, 0*]
 86: 0x030E [0x1C] WAIT(15* ticks)
 87: 0x0311 [0x81] SET_ENTITY_BLINKING(blink_flag=0x01, entity=Arciela (ID: 17895883/0x011111CB))
 88: 0x0317 [0x7C] Arciela (ID: 17895883/0x011111CB)->Render.Flags2 |= 0x01
 89: 0x031D [0x6B] STOP_AND_IDLE: Arciela (ID: 17895883/0x011111CB) stops current action and resets to idle (animation="idl0")
 90: 0x0326 [0x5B] LOAD_EXT_SCHEDULER: Load scheduler "f000" with entities [Arciela (ID: 17895883/0x011111CB), Arciela (ID: 17895883/0x011111CB)], work=3216*
 91: 0x0335 [0xD3] CLEAR_ENTITY_MOTION_QUEUE(condition_flag=0x00, entity_server_id=0x011111CB)
 92: 0x033B [0xBA] SET_ENTITY_POSITION(entity_id=Arciela (ID: 17895883/0x011111CB), pos_x=459.298*, pos_z=169.068*, pos_y=10.637*, direction=285.1°*)
 93: 0x0348 [0x4A] Arciela (ID: 17895883/0x011111CB) looks at Unnamed NPC (ID: 17895884/0x011111CC)
 94: 0x0351 [0x4A] LocalPlayer looks at Unnamed NPC (ID: 17895884/0x011111CC)
 95: 0x035A [0x7B] Arciela (ID: 17895883/0x011111CB) stops talking
 96: 0x035F [0x7B] LocalPlayer stops talking
 97: 0x0364 [0x1C] WAIT(45* ticks)
 98: 0x0367 [0x52] END_LOAD_SCHEDULER: End scheduler "s143" with entities [EventEntity, EventEntity], work=634*
 99: 0x0376 [0x45] LOAD_SCHEDULED_TASK: Load scheduler "s144" with entities [EventEntity, EventEntity], work=[634*, 0*]
100: 0x0387 [0x2A] GET_REQ_LEVEL(level=5, entity_id=Unnamed NPC (ID: 17895884/0x011111CC))
101: 0x038D [0x2B] Arciela (ID: 17895883/0x011111CB) [7703*]:
    → "I...I remember you..."
102: 0x0394 [0x23] WAIT_FOR_DIALOG_INTERACTION
103: 0x0395 [0x52] END_LOAD_SCHEDULER: End scheduler "s144" with entities [EventEntity, EventEntity], work=634*
104: 0x03A4 [0x45] LOAD_SCHEDULED_TASK: Load scheduler "s145" with entities [EventEntity, EventEntity], work=[634*, 0*]
105: 0x03B5 [0x2B] Unnamed NPC (ID: 17895884/0x011111CC) [7704*]:
    → "(It has been a while, <Player>.)"
106: 0x03BC [0x23] WAIT_FOR_DIALOG_INTERACTION
107: 0x03BD [0x52] END_LOAD_SCHEDULER: End scheduler "s145" with entities [EventEntity, EventEntity], work=634*
108: 0x03CC [0x45] LOAD_SCHEDULED_TASK: Load scheduler "s146" with entities [EventEntity, EventEntity], work=[634*, 0*]
109: 0x03DD [0x81] SET_ENTITY_BLINKING(blink_flag=0x00, entity=Unnamed NPC (ID: 17895884/0x011111CC))
110: 0x03E3 [0x7C] Unnamed NPC (ID: 17895884/0x011111CC)->Render.Flags2 |= 0x00
111: 0x03E9 [0x5B] LOAD_EXT_SCHEDULER: Load scheduler "ten0" with entities [Unnamed NPC (ID: 17895884/0x011111CC), Unnamed NPC (ID: 17895884/0x011111CC)], work=3551*
112: 0x03F8 [0x2B] Unnamed NPC (ID: 17895884/0x011111CC) [7705*]:
    → "(Come. If we do not make haste, the gate will open.)"
113: 0x03FF [0x1C] WAIT(300* ticks)
114: 0x0402 [0x52] END_LOAD_SCHEDULER: End scheduler "s146" with entities [EventEntity, EventEntity], work=634*
115: 0x0411 [0x45] LOAD_SCHEDULED_TASK: Load scheduler "s147" with entities [EventEntity, EventEntity], work=[634*, 0*]
116: 0x0422 [0x2B] Arciela (ID: 17895883/0x011111CB) [7706*]:
    → "He's calling to us, <Player>. We've got to hurry!"
117: 0x0429 [0x1C] WAIT(15* ticks)
118: 0x042C [0x79] LocalPlayer looks at Arciela (ID: 17895883/0x011111CB) (Basic look)
119: 0x0436 [0x1C] WAIT(45* ticks)
120: 0x0439 [0x23] WAIT_FOR_DIALOG_INTERACTION
121: 0x043A [0x52] END_LOAD_SCHEDULER: End scheduler "s147" with entities [EventEntity, EventEntity], work=634*
122: 0x0449 [0x45] LOAD_SCHEDULED_TASK: Load scheduler "s148" with entities [EventEntity, EventEntity], work=[634*, 0*]
123: 0x045A [0x5B] LOAD_EXT_SCHEDULER: Load scheduler "yes0" with entities [Arciela (ID: 17895883/0x011111CB), Arciela (ID: 17895883/0x011111CB)], work=3231*
124: 0x0469 [0x2B] Arciela (ID: 17895883/0x011111CB) [7707*]:
    → "Quickly, before we lose him!"
125: 0x0470 [0x23] WAIT_FOR_DIALOG_INTERACTION
126: 0x0471 [0x45] LOAD_SCHEDULED_TASK: Load scheduler "fdo1" with entities [LocalPlayer, LocalPlayer], work=[200*, 0*]
127: 0x0482 [0x55] WAIT_LOAD_SCHEDULER: Wait for scheduler "fdo1" with entities [LocalPlayer, LocalPlayer], work=200*
128: 0x0491 [0x52] END_LOAD_SCHEDULER: End scheduler "s148" with entities [EventEntity, EventEntity], work=634*
129: 0x04A0 [0x1C] WAIT(15* ticks)
130: 0x04A3 [0xAB] EventEntity->DespawnValue = 0* // Set despawn value
131: 0x04A7 [0x1C] WAIT(1* ticks)
132: 0x04AA [0x46] CAMERA_CONTROL: Restore default settings
133: 0x04AC [0x45] LOAD_SCHEDULED_TASK: Load scheduler "fdi2" with entities [LocalPlayer, LocalPlayer], work=[200*, 0*]
134: 0x04BD [0x21] END_EVENT
135: 0x04BE [0x00] END_REQSTACK()
```

### Event 8

#### Metadata

| Field        | Value      |
|--------------|------------|
| Entrypoint   | 0x04BF     |
| Data Size    | 4219 bytes |
| Instructions | 465        |

```
      00 01 02 03 04 05 06 07  08 09 0A 0B 0C 0D 0E 0F
      -- -- -- -- -- -- -- --  -- -- -- -- -- -- -- --
04B0:                                               42                 B
04C0: 5D 01 80 13 80 45 00 80  F0 FF FF 7F F0 FF FF 7F  ]....E..........
04D0: 66 64 6F 31 01 80 55 00  80 F0 FF FF 7F F0 FF FF  fdo1..U.........
04E0: 7F 66 64 6F 31 46 01 38  02 80 2F 00 CC 11 11 01  .fdo1F.8../.....
04F0: 2F 00 CD 11 11 01 2F 00  CE 11 11 01 2F 00 CF 11  /...../...../...
0500: 11 01 2F 00 D0 11 11 01  2F 00 D1 11 11 01 2F 00  ../...../...../.
0510: D2 11 11 01 2F 00 D3 11  11 01 2F 00 D4 11 11 01  ..../...../.....
0520: 2F 00 D5 11 11 01 2F 00  CB 11 11 01 4E 00 CC 11  /...../.....N...
0530: 11 01 4E 00 CD 11 11 01  4E 00 CE 11 11 01 4E 00  ..N.....N.....N.
0540: CF 11 11 01 4E 00 D0 11  11 01 4E 00 D1 11 11 01  ....N.....N.....
0550: 4E 00 D2 11 11 01 4E 00  D3 11 11 01 4E 00 D4 11  N.....N.....N...
0560: 11 01 4E 00 D5 11 11 01  4E 01 F0 FF FF 7F 92 01  ..N.....N.......
0570: CB 11 11 01 92 01 CC 11  11 01 92 01 CD 11 11 01  ................
0580: 94 01 CC 11 11 01 94 01  CD 11 11 01 94 01 CE 11  ................
0590: 11 01 94 01 CF 11 11 01  94 01 D0 11 11 01 94 01  ................
05A0: D1 11 11 01 94 01 D2 11  11 01 94 01 D3 11 11 01  ................
05B0: 94 01 D4 11 11 01 94 01  F0 FF FF 7F 94 01 D5 11  ................
05C0: 11 01 94 01 CB 11 11 01  59 05 CC 11 11 01 01 59  ........Y......Y
05D0: 05 CD 11 11 01 01 59 05  CE 11 11 01 01 59 05 D5  ......Y......Y..
05E0: 11 11 01 01 59 05 CB 11  11 01 01 4E 01 F0 FF FF  ....Y......N....
05F0: 7F BA D5 11 11 01 31 80  32 80 33 80 34 80 BA F0  ......1.2.3.4...
0600: FF FF 7F 35 80 36 80 37  80 38 80 BA CC 11 11 01  ...5.6.7.8......
0610: 31 80 32 80 33 80 34 80  BA CD 11 11 01 39 80 3A  1.2.3.4......9.:
0620: 80 3B 80 3C 80 BA CE 11  11 01 3D 80 3E 80 3F 80  .;.<......=.>.?.
0630: 40 80 BA CF 11 11 01 41  80 42 80 43 80 44 80 BA  @......A.B.C.D..
0640: D0 11 11 01 45 80 46 80  47 80 48 80 BA D1 11 11  ....E.F.G.H.....
0650: 01 49 80 4A 80 4B 80 4C  80 BA D2 11 11 01 4D 80  .I.J.K.L......M.
0660: 4E 80 4F 80 50 80 BA D3  11 11 01 51 80 52 80 53  N.O.P......Q.R.S
0670: 80 54 80 BA D4 11 11 01  55 80 56 80 57 80 58 80  .T......U.V.W.X.
0680: BA CB 11 11 01 59 80 5A  80 5B 80 5C 80 80 CC 11  .....Y.Z.[.\....
0690: 11 01 80 CD 11 11 01 80  CE 11 11 01 80 CF 11 11  ................
06A0: 01 80 D0 11 11 01 80 D1  11 11 01 80 D2 11 11 01  ................
06B0: 80 D3 11 11 01 80 D4 11  11 01 80 D5 11 11 01 79  ...............y
06C0: 00 F0 FF FF 7F F0 FF FF  7F 1C 10 80 5C 00 5D 80  ............\.].
06D0: 5C 01 5D 80 9A 27 10 D8  11 11 01 06 27 10 CC 11  \.]..'......'...
06E0: 11 01 09 5B 5E 80 D5 11  11 01 D5 11 11 01 63 6D  ...[^.........cm
06F0: 6F 6E 5B 5F 80 D5 11 11  01 D5 11 11 01 72 75 6E  on[_.........run
0700: 30 5B 60 80 CC 11 11 01  CC 11 11 01 72 75 6E 30  0[`.........run0
0710: CD 61 80 CC 11 11 01 CC  11 11 01 73 30 30 30 01  .a.........s000.
0720: 80 1C 12 80 45 00 80 F0  FF FF 7F F0 FF FF 7F 66  ....E..........f
0730: 64 69 30 01 80 1C 2C 80  27 10 CC 11 11 01 0A 5B  di0...,.'......[
0740: 5E 80 D5 11 11 01 D5 11  11 01 63 6D 6F 66 5F 02  ^.........cmof_.
0750: D5 11 11 01 45 62 80 F8  FF FF 7F F8 FF FF 7F 73  ....Eb.........s
0760: 31 32 30 01 80 4E 00 CB  11 11 01 4E 00 F0 FF FF  120..N.....N....
0770: 7F 27 05 CB 11 11 01 04  1C 63 80 27 05 F0 FF FF  .'.......c.'....
0780: 7F 05 1C 13 80 52 62 80  F8 FF FF 7F F8 FF FF 7F  .....Rb.........
0790: 73 31 32 30 45 62 80 F8  FF FF 7F F8 FF FF 7F 73  s120Eb.........s
07A0: 31 32 31 01 80 1C 13 80  52 62 80 F8 FF FF 7F F8  121.....Rb......
07B0: FF FF 7F 73 31 32 31 45  62 80 F8 FF FF 7F F8 FF  ...s121Eb.......
07C0: FF 7F 73 31 32 32 01 80  45 62 80 F8 FF FF 7F F8  ..s122..Eb......
07D0: FF FF 7F 72 61 6E 73 01  80 1C 22 80 4B F0 FF FF  ...rans...".K...
07E0: 7F 64 80 1C 65 80 52 62  80 F8 FF FF 7F F8 FF FF  .d..e.Rb........
07F0: 7F 73 31 32 32 45 62 80  F8 FF FF 7F F8 FF FF 7F  .s122Eb.........
0800: 73 31 32 33 01 80 2B CC  11 11 01 66 80 23 81 00  s123..+....f.#..
0810: CB 11 11 01 5B 67 80 CB  11 11 01 CB 11 11 01 62  ....[g.........b
0820: 69 6B 30 52 62 80 F8 FF  FF 7F F8 FF FF 7F 73 31  ik0Rb.........s1
0830: 32 33 45 62 80 F8 FF FF  7F F8 FF FF 7F 73 31 32  23Eb.........s12
0840: 34 01 80 45 62 80 F8 FF  FF 7F F8 FF FF 7F 72 61  4..Eb.........ra
0850: 6E 65 01 80 1C 12 80 6B  69 64 6C 30 CD 11 11 01  ne.....kidl0....
0860: 6B 69 64 6C 30 CE 11 11  01 BA CD 11 11 01 68 80  kidl0.........h.
0870: 69 80 6A 80 6B 80 BA CE  11 11 01 6C 80 6D 80 6E  i.j.k......l.m.n
0880: 80 6F 80 2B CB 11 11 01  70 80 23 27 05 CD 11 11  .o.+....p.#'....
0890: 01 0B 5B 71 80 CE 11 11  01 CE 11 11 01 65 61 74  ..[q.........eat
08A0: 30 5B 72 80 CD 11 11 01  CD 11 11 01 70 79 6F 30  0[r.........pyo0
08B0: CD 73 80 CD 11 11 01 CD  11 11 01 73 30 30 30 01  .s.........s000.
08C0: 80 52 62 80 F8 FF FF 7F  F8 FF FF 7F 73 31 32 34  .Rb.........s124
08D0: 45 62 80 F8 FF FF 7F F8  FF FF 7F 73 31 32 35 01  Eb.........s125.
08E0: 80 1C 20 80 52 62 80 F8  FF FF 7F F8 FF FF 7F 73  .. .Rb.........s
08F0: 31 32 35 45 62 80 F8 FF  FF 7F F8 FF FF 7F 73 31  125Eb.........s1
0900: 32 36 01 80 1C 74 80 52  62 80 F8 FF FF 7F F8 FF  26...t.Rb.......
0910: FF 7F 73 31 32 36 45 62  80 F8 FF FF 7F F8 FF FF  ..s126Eb........
0920: 7F 73 31 32 37 01 80 1C  74 80 52 62 80 F8 FF FF  .s127...t.Rb....
0930: 7F F8 FF FF 7F 73 31 32  37 45 62 80 F8 FF FF 7F  .....s127Eb.....
0940: F8 FF FF 7F 73 31 32 38  01 80 1C 13 80 52 62 80  ....s128.....Rb.
0950: F8 FF FF 7F F8 FF FF 7F  73 31 32 38 45 62 80 F8  ........s128Eb..
0960: FF FF 7F F8 FF FF 7F 73  31 32 39 01 80 1C 13 80  .......s129.....
0970: 5B 75 80 CB 11 11 01 CB  11 11 01 63 72 79 31 1C  [u.........cry1.
0980: 10 80 52 62 80 F8 FF FF  7F F8 FF FF 7F 73 31 32  ..Rb.........s12
0990: 39 45 62 80 F8 FF FF 7F  F8 FF FF 7F 73 31 33 30  9Eb.........s130
09A0: 01 80 6E F0 FF FF 7F 76  80 99 F0 FF FF 7F 1C 22  ..n....v......."
09B0: 80 27 05 CD 11 11 01 0C  6B 69 64 6C 30 CD 11 11  .'......kidl0...
09C0: 01 6B 69 64 6C 30 CE 11  11 01 27 05 CD 11 11 01  .kidl0....'.....
09D0: 02 81 00 CD 11 11 01 7C  00 CD 11 11 01 BA CD 11  .......|........
09E0: 11 01 77 80 78 80 79 80  7A 80 BA CE 11 11 01 7B  ..w.x.y.z......{
09F0: 80 7C 80 7D 80 7E 80 1C  65 80 52 62 80 F8 FF FF  .|.}.~..e.Rb....
0A00: 7F F8 FF FF 7F 73 31 33  30 45 62 80 F8 FF FF 7F  .....s130Eb.....
0A10: F8 FF FF 7F 73 31 33 31  01 80 BA D5 11 11 01 7F  ....s131........
0A20: 80 80 80 81 80 82 80 5B  83 80 CC 11 11 01 CC 11  .......[........
0A30: 11 01 6B 69 7A 30 1C 4C  80 81 00 CD 11 11 01 27  ..kiz0.L.......'
0A40: 10 D8 11 11 01 03 1C 10  80 52 62 80 F8 FF FF 7F  .........Rb.....
0A50: F8 FF FF 7F 73 31 33 31  5B 84 80 CE 11 11 01 CE  ....s131[.......
0A60: 11 11 01 74 69 6B 30 AE  05 D5 11 11 01 CD 11 11  ...tik0.........
0A70: 01 5B 5F 80 D5 11 11 01  D5 11 11 01 61 74 6B 30  .[_.........atk0
0A80: 5B 85 80 CD 11 11 01 CD  11 11 01 61 74 6B 30 27  [..........atk0'
0A90: 10 D8 11 11 01 08 1C 86  80 5B 87 80 CE 11 11 01  .........[......
0AA0: CE 11 11 01 74 69 6B 31  1C 88 80 5B 5E 80 D5 11  ....tik1...[^...
0AB0: 11 01 D5 11 11 01 63 6D  6F 66 5F 02 D5 11 11 01  ......cmof_.....
0AC0: 45 62 80 F8 FF FF 7F F8  FF FF 7F 73 31 33 32 01  Eb.........s132.
0AD0: 80 1C 22 80 AE 06 CD 11  11 01 6B 69 64 6C 30 CC  ..".......kidl0.
0AE0: 11 11 01 4B CC 11 11 01  89 80 1C 65 80 52 62 80  ...K.......e.Rb.
0AF0: F8 FF FF 7F F8 FF FF 7F  73 31 33 32 45 62 80 F8  ........s132Eb..
0B00: FF FF 7F F8 FF FF 7F 73  31 33 33 01 80 5B 8A 80  .......s133..[..
0B10: CD 11 11 01 CD 11 11 01  61 74 6B 31 1C 13 80 52  ........atk1...R
0B20: 62 80 F8 FF FF 7F F8 FF  FF 7F 73 31 33 33 45 62  b.........s133Eb
0B30: 80 F8 FF FF 7F F8 FF FF  7F 73 31 33 34 01 80 BB  .........s134...
0B40: 8B 80 CD 11 11 01 CD 11  11 01 73 74 70 31 01 80  ..........stp1..
0B50: BB 8B 80 CF 11 11 01 CF  11 11 01 73 74 70 31 01  ...........stp1.
0B60: 80 BB 8B 80 D2 11 11 01  D2 11 11 01 73 74 70 31  ............stp1
0B70: 01 80 2B CD 11 11 01 8C  80 1C 13 80 23 52 62 80  ..+.........#Rb.
0B80: F8 FF FF 7F F8 FF FF 7F  73 31 33 34 45 62 80 F8  ........s134Eb..
0B90: FF FF 7F F8 FF FF 7F 73  31 33 35 01 80 1C 20 80  .......s135... .
0BA0: 52 62 80 F8 FF FF 7F F8  FF FF 7F 73 31 33 35 45  Rb.........s135E
0BB0: 62 80 F8 FF FF 7F F8 FF  FF 7F 73 31 33 36 01 80  b.........s136..
0BC0: 1C 12 80 2B CC 11 11 01  8D 80 23 59 05 D0 11 11  ...+......#Y....
0BD0: 01 01 59 05 D2 11 11 01  01 BA D0 11 11 01 8E 80  ..Y.............
0BE0: 8F 80 90 80 91 80 BA CE  11 11 01 92 80 93 80 94  ................
0BF0: 80 95 80 BA D2 11 11 01  96 80 97 80 98 80 99 80  ................
0C00: 27 05 D0 11 11 01 02 52  62 80 F8 FF FF 7F F8 FF  '......Rb.......
0C10: FF 7F 73 31 33 36 45 62  80 F8 FF FF 7F F8 FF FF  ..s136Eb........
0C20: 7F 73 31 33 37 01 80 6B  69 64 6C 30 CE 11 11 01  .s137..kidl0....
0C30: 1C 20 80 45 62 80 F8 FF  FF 7F F8 FF FF 7F 79 72  . .Eb.........yr
0C40: 69 73 01 80 27 10 D8 11  11 01 02 1C 10 80 52 62  is..'.........Rb
0C50: 80 F8 FF FF 7F F8 FF FF  7F 73 31 33 37 AE 05 D5  .........s137...
0C60: 11 11 01 CD 11 11 01 5B  5F 80 D5 11 11 01 D5 11  .......[_.......
0C70: 11 01 6F 6E 6F 31 5B 9A  80 CD 11 11 01 CD 11 11  ..ono1[.........
0C80: 01 6F 6E 6F 31 1C 10 80  BA CD 11 11 01 9B 80 9C  .ono1...........
0C90: 80 9D 80 9E 80 1C 4C 80  27 05 CE 11 11 01 02 1C  ......L.'.......
0CA0: 20 80 27 05 D2 11 11 01  02 1C 9F 80 1C 20 80 AE   .'.......... ..
0CB0: 06 CD 11 11 01 5B 5E 80  D5 11 11 01 D5 11 11 01  .....[^.........
0CC0: 63 6D 6F 66 5F 02 D5 11  11 01 45 62 80 F8 FF FF  cmof_.....Eb....
0CD0: 7F F8 FF FF 7F 73 31 33  38 01 80 1C 12 80 BA D2  .....s138.......
0CE0: 11 11 01 A0 80 A1 80 53  80 A2 80 4E 01 CF 11 11  .......S...N....
0CF0: 01 4E 01 D1 11 11 01 4E  01 D3 11 11 01 BA CC 11  .N.....N........
0D00: 11 01 7F 80 80 80 81 80  82 80 BA D0 11 11 01 A3  ................
0D10: 80 A4 80 7D 80 A5 80 BA  D2 11 11 01 A6 80 A7 80  ...}............
0D20: A8 80 A9 80 1C 12 80 27  05 D0 11 11 01 03 27 05  .......'......'.
0D30: D2 11 11 01 03 5B AA 80  CD 11 11 01 CD 11 11 01  .....[..........
0D40: 6F 6E 6F 32 CD AB 80 CD  11 11 01 CD 11 11 01 73  ono2...........s
0D50: 30 30 31 01 80 45 62 80  F8 FF FF 7F F8 FF FF 7F  001..Eb.........
0D60: 6B 61 69 73 01 80 52 62  80 F8 FF FF 7F F8 FF FF  kais..Rb........
0D70: 7F 73 31 33 38 5B 5E 80  D5 11 11 01 D5 11 11 01  .s138[^.........
0D80: 63 6D 6F 6E 5B 5F 80 D5  11 11 01 D5 11 11 01 6F  cmon[_.........o
0D90: 6E 6F 32 1C 22 80 BA CE  11 11 01 AC 80 AD 80 81  no2."...........
0DA0: 80 AE 80 1C AF 80 5B B0  80 CE 11 11 01 CE 11 11  ......[.........
0DB0: 01 66 75 74 30 5B B0 80  D0 11 11 01 D0 11 11 01  .fut0[..........
0DC0: 66 75 74 30 5B B0 80 D2  11 11 01 D2 11 11 01 66  fut0[..........f
0DD0: 75 74 30 27 10 D8 11 11  01 09 45 62 80 F8 FF FF  ut0'......Eb....
0DE0: 7F F8 FF FF 7F 68 69 74  73 01 80 1C B1 80 81 00  .....hits.......
0DF0: CC 11 11 01 27 10 CC 11  11 01 09 5B 5F 80 D5 11  ....'......[_...
0E00: 11 01 D5 11 11 01 77 6C  6B 30 5B 83 80 CC 11 11  ......wlk0[.....
0E10: 01 CC 11 11 01 77 6C 6B  30 27 10 D7 11 11 01 05  .....wlk0'......
0E20: 27 10 D7 11 11 01 06 27  10 D7 11 11 01 07 1C B2  '......'........
0E30: 80 BA CD 11 11 01 9B 80  9C 80 B3 80 B4 80 BA D2  ................
0E40: 11 11 01 B5 80 B6 80 B7  80 B8 80 5B 9A 80 CD 11  ...........[....
0E50: 11 01 CD 11 11 01 6F 6E  6F 30 2B CC 11 11 01 B9  ......ono0+.....
0E60: 80 1C BA 80 5B 5E 80 D5  11 11 01 D5 11 11 01 63  ....[^.........c
0E70: 6D 6F 66 5F 02 D5 11 11  01 45 62 80 F8 FF FF 7F  mof_.....Eb.....
0E80: F8 FF FF 7F 73 31 33 39  01 80 1C 20 80 23 27 10  ....s139... .#'.
0E90: CC 11 11 01 0A 59 05 D4  11 11 01 01 6B 69 64 6C  .....Y......kidl
0EA0: 30 D2 11 11 01 6B 69 64  6C 30 D4 11 11 01 BA D4  0....kidl0......
0EB0: 11 11 01 BB 80 BC 80 90  80 BD 80 5B BE 80 CD 11  ...........[....
0EC0: 11 01 CD 11 11 01 6F 6E  6F 33 1C BF 80 52 62 80  ......ono3...Rb.
0ED0: F8 FF FF 7F F8 FF FF 7F  73 31 33 39 45 62 80 F8  ........s139Eb..
0EE0: FF FF 7F F8 FF FF 7F 73  31 34 30 01 80 2B CD 11  .......s140..+..
0EF0: 11 01 C0 80 1C 22 80 6B  69 64 6C 30 CE 11 11 01  .....".kidl0....
0F00: 6B 69 64 6C 30 D0 11 11  01 2C CE 11 11 01 CE 11  kidl0....,......
0F10: 11 01 70 6F 70 30 2C D0  11 11 01 D0 11 11 01 70  ..pop0,........p
0F20: 6F 70 30 BA CE 11 11 01  C1 80 C2 80 C3 80 C4 80  op0.............
0F30: BA D0 11 11 01 C5 80 C6  80 C7 80 C8 80 1C 65 80  ..............e.
0F40: 27 10 D7 11 11 01 09 27  10 D7 11 11 01 0A 27 10  '......'......'.
0F50: D7 11 11 01 0B 27 05 D0  11 11 01 04 52 62 80 F8  .....'......Rb..
0F60: FF FF 7F F8 FF FF 7F 73  31 34 30 45 62 80 F8 FF  .......s140Eb...
0F70: FF 7F F8 FF FF 7F 73 31  34 31 01 80 45 62 80 F8  ......s141..Eb..
0F80: FF FF 7F F8 FF FF 7F 79  72 69 73 01 80 1C 10 80  .......yris.....
0F90: 7A 00 D0 11 11 01 1C 20  80 27 05 D4 11 11 01 02  z...... .'......
0FA0: 2B CC 11 11 01 C9 80 1C  74 80 81 00 CC 11 11 01  +.......t.......
0FB0: 7C 00 CC 11 11 01 5B CA  80 CC 11 11 01 CC 11 11  |.....[.........
0FC0: 01 77 6C 6B 31 52 62 80  F8 FF FF 7F F8 FF FF 7F  .wlk1Rb.........
0FD0: 73 31 34 31 45 62 80 F8  FF FF 7F F8 FF FF 7F 73  s141Eb.........s
0FE0: 31 34 32 01 80 2B CD 11  11 01 CB 80 1C 20 80 27  142..+....... .'
0FF0: 10 D8 11 11 01 04 1C 21  80 27 10 CC 11 11 01 09  .......!.'......
1000: 52 62 80 F8 FF FF 7F F8  FF FF 7F 73 31 34 32 5B  Rb.........s142[
1010: 5F 80 D5 11 11 01 D5 11  11 01 6A 6D 70 30 5B CA  _.........jmp0[.
1020: 80 CC 11 11 01 CC 11 11  01 6A 6D 70 30 45 62 80  .........jmp0Eb.
1030: F8 FF FF 7F F8 FF FF 7F  6A 6D 70 73 01 80 27 10  ........jmps..'.
1040: D8 11 11 01 0B 1C 21 80  5B CC 80 CE 11 11 01 CE  ......!.[.......
1050: 11 11 01 64 65 64 30 BA  D0 11 11 01 CD 80 CE 80  ...ded0.........
1060: C3 80 C8 80 1C 13 80 27  05 D0 11 11 01 05 1C 10  .......'........
1070: 80 5B 5E 80 D5 11 11 01  D5 11 11 01 63 6D 6F 66  .[^.........cmof
1080: 5F 02 D5 11 11 01 5B 5F  80 D5 11 11 01 D5 11 11  _.....[_........
1090: 01 68 6C 70 30 45 62 80  F8 FF FF 7F F8 FF FF 7F  .hlp0Eb.........
10A0: 63 75 74 73 01 80 1C CF  80 5B D0 80 CD 11 11 01  cuts.....[......
10B0: CD 11 11 01 6F 6E 6F 34  27 10 D8 11 11 01 0A 27  ....ono4'......'
10C0: 10 CC 11 11 01 0A 27 10  D7 11 11 01 04 1C 10 80  ......'.........
10D0: 7A 00 D0 11 11 01 5B CC  80 D0 11 11 01 D0 11 11  z.....[.........
10E0: 01 64 65 64 30 1C D1 80  1C 10 80 BA CE 11 11 01  .ded0...........
10F0: D2 80 D3 80 D4 80 D5 80  1C D1 80 5B D6 80 CE 11  ...........[....
1100: 11 01 CE 11 11 01 73 69  6E 30 45 62 80 F8 FF FF  ......sin0Eb....
1110: 7F F8 FF FF 7F 73 69 6E  73 01 80 1C 20 80 27 10  .....sins... .'.
1120: D7 11 11 01 0D 1C 20 80  27 10 D7 11 11 01 0E 1C  ...... .'.......
1130: 20 80 1C 10 80 27 10 D7  11 11 01 08 5B D7 80 CC   ....'......[...
1140: 11 11 01 CC 11 11 01 68  6C 70 30 5B D6 80 CE 11  .......hlp0[....
1150: 11 01 CE 11 11 01 79 72  61 30 27 10 D8 11 11 01  ......yra0'.....
1160: 0C 1C D8 80 5B 5E 80 D5  11 11 01 D5 11 11 01 63  ....[^.........c
1170: 6D 6F 66 5F 02 D5 11 11  01 45 62 80 F8 FF FF 7F  mof_.....Eb.....
1180: F8 FF FF 7F 73 31 34 38  01 80 1C 13 80 52 62 80  ....s148.....Rb.
1190: F8 FF FF 7F F8 FF FF 7F  73 31 34 38 45 62 80 F8  ........s148Eb..
11A0: FF FF 7F F8 FF FF 7F 73  31 34 39 01 80 5B D7 80  .......s149..[..
11B0: CC 11 11 01 CC 11 11 01  68 6C 70 31 1C 10 80 5B  ........hlp1...[
11C0: D9 80 CD 11 11 01 CD 11  11 01 6F 6E 6F 35 1C 20  ..........ono5. 
11D0: 80 52 62 80 F8 FF FF 7F  F8 FF FF 7F 73 31 34 39  .Rb.........s149
11E0: 45 62 80 F8 FF FF 7F F8  FF FF 7F 73 31 35 30 01  Eb.........s150.
11F0: 80 1C 13 80 52 62 80 F8  FF FF 7F F8 FF FF 7F 73  ....Rb.........s
1200: 31 35 30 45 62 80 F8 FF  FF 7F F8 FF FF 7F 73 31  150Eb.........s1
1210: 35 31 01 80 1C 65 80 6B  69 64 6C 30 CC 11 11 01  51...e.kidl0....
1220: 6B 69 64 6C 30 CE 11 11  01 6B 69 64 6C 30 D0 11  kidl0....kidl0..
1230: 11 01 6B 69 64 6C 30 D2  11 11 01 6B 69 64 6C 30  ..kidl0....kidl0
1240: D4 11 11 01 27 10 D7 11  11 01 0A 27 10 D7 11 11  ....'......'....
1250: 01 0B BA CE 11 11 01 DA  80 DB 80 94 80 DC 80 BA  ................
1260: D0 11 11 01 DD 80 DE 80  94 80 DF 80 27 10 CD 11  ............'...
1270: 11 01 07 1C 22 80 52 62  80 F8 FF FF 7F F8 FF FF  ....".Rb........
1280: 7F 73 31 35 31 45 62 80  F8 FF FF 7F F8 FF FF 7F  .s151Eb.........
1290: 73 31 35 32 01 80 45 62  80 F8 FF FF 7F F8 FF FF  s152..Eb........
12A0: 7F 79 72 69 73 01 80 27  05 CE 11 11 01 03 27 05  .yris..'......'.
12B0: D0 11 11 01 06 1C 65 80  6B 69 64 6C 30 CC 11 11  ......e.kidl0...
12C0: 01 6B 69 64 6C 30 CB 11  11 01 81 01 CB 11 11 01  .kidl0..........
12D0: 81 01 CC 11 11 01 7C 01  CC 11 11 01 81 01 CD 11  ......|.........
12E0: 11 01 7C 01 CD 11 11 01  BA CD 11 11 01 E0 80 E1  ..|.............
12F0: 80 E2 80 E3 80 BA CC 11  11 01 E4 80 E5 80 E6 80  ................
1300: E3 80 BA D2 11 11 01 E7  80 E8 80 E9 80 EA 80 27  ...............'
1310: 05 D2 11 11 01 04 27 05  D4 11 11 01 03 1C 22 80  ......'.......".
1320: 52 62 80 F8 FF FF 7F F8  FF FF 7F 73 31 35 32 45  Rb.........s152E
1330: 62 80 F8 FF FF 7F F8 FF  FF 7F 73 31 35 33 01 80  b.........s153..
1340: 1C 20 80 BA CB 11 11 01  EB 80 EC 80 ED 80 EE 80  . ..............
1350: 4A F0 FF FF 7F CD 11 11  01 4A CB 11 11 01 CD 11  J........J......
1360: 11 01 1C 20 80 81 00 CD  11 11 01 52 62 80 F8 FF  ... .......Rb...
1370: FF 7F F8 FF FF 7F 73 31  35 33 45 62 80 F8 FF FF  ......s153Eb....
1380: 7F F8 FF FF 7F 73 31 35  34 01 80 1C 12 80 4E 01  .....s154.....N.
1390: CE 11 11 01 4E 01 D0 11  11 01 4E 01 D2 11 11 01  ....N.....N.....
13A0: 4E 01 D4 11 11 01 2B CD  11 11 01 EF 80 23 52 62  N.....+......#Rb
13B0: 80 F8 FF FF 7F F8 FF FF  7F 73 31 35 34 45 62 80  .........s154Eb.
13C0: F8 FF FF 7F F8 FF FF 7F  73 31 35 35 01 80 27 05  ........s155..'.
13D0: CD 11 11 01 03 1C 12 80  27 05 CC 11 11 01 05 2B  ........'......+
13E0: CD 11 11 01 F0 80 1C 74  80 52 62 80 F8 FF FF 7F  .......t.Rb.....
13F0: F8 FF FF 7F 73 31 35 35  45 62 80 F8 FF FF 7F F8  ....s155Eb......
1400: FF FF 7F 73 31 35 36 01  80 1C 13 80 52 62 80 F8  ...s156.....Rb..
1410: FF FF 7F F8 FF FF 7F 73  31 35 36 02 87 7F 63 80  .......s156...c.
1420: 80 37 14 45 62 80 F8 FF  FF 7F F8 FF FF 7F 73 31  .7.Eb.........s1
1430: 35 38 01 80 01 64 14 02  87 7F 76 80 80 53 14 45  58...d....v..S.E
1440: 62 80 F8 FF FF 7F F8 FF  FF 7F 73 31 35 38 01 80  b.........s158..
1450: 01 64 14 45 62 80 F8 FF  FF 7F F8 FF FF 7F 73 31  .d.Eb.........s1
1460: 35 37 01 80 1C 22 80 7A  00 CC 11 11 01 7A 00 CD  57...".z.....z..
1470: 11 11 01 59 05 CB 11 11  01 00 BA CD 11 11 01 F1  ...Y............
1480: 80 F2 80 F3 80 F4 80 BA  CC 11 11 01 F5 80 F6 80  ................
1490: F7 80 F4 80 BA CB 11 11  01 F8 80 F9 80 FA 80 64  ...............d
14A0: 80 1C 21 80 27 05 CD 11  11 01 04 27 05 CC 11 11  ..!.'......'....
14B0: 01 06 27 05 CB 11 11 01  05 27 05 F0 FF FF 7F 06  ..'......'......
14C0: 1C 74 80 5D 01 80 13 80  45 00 80 F0 FF FF 7F F0  .t.]....E.......
14D0: FF FF 7F 66 64 6F 31 01  80 55 00 80 F0 FF FF 7F  ...fdo1..U......
14E0: F0 FF FF 7F 66 64 6F 31  52 62 80 F8 FF FF 7F F8  ....fdo1Rb......
14F0: FF FF 7F 73 31 35 37 52  62 80 F8 FF FF 7F F8 FF  ...s157Rb.......
1500: FF 7F 73 31 35 38 29 10  CD 11 11 01 08 80 CD 11  ..s158).........
1510: 11 01 5C 00 01 80 5C 01  01 80 9A 1C 12 80 AB 11  ..\...\.........
1520: 01 80 1C 30 80 46 00 45  00 80 F0 FF FF 7F F0 FF  ...0.F.E........
1530: FF 7F 66 64 69 32 01 80  21 00                    ..fdi2..!.      
```

#### Opcodes

```
  0: 0x04BF [0x42] SET_CLI_EVENT_CANCEL_DATA()
  1: 0x04C0 [0x5D] SET_MUSIC_VOLUME(volume=0*, fade_time=120*)
  2: 0x04C5 [0x45] LOAD_SCHEDULED_TASK: Load scheduler "fdo1" with entities [LocalPlayer, LocalPlayer], work=[200*, 0*]
  3: 0x04D6 [0x55] WAIT_LOAD_SCHEDULER: Wait for scheduler "fdo1" with entities [LocalPlayer, LocalPlayer], work=200*
  4: 0x04E5 [0x46] CAMERA_CONTROL: Disable user control
  5: 0x04E7 [0x38] SET_CLIENT_EVENT_MODE(mode=147*)
  6: 0x04EA [0x2F] Unnamed NPC (ID: 17895884/0x011111CC)->Render.Flags0 &= ~0x80000 // Bit 19
  7: 0x04F0 [0x2F] Unnamed NPC (ID: 17895885/0x011111CD)->Render.Flags0 &= ~0x80000 // Bit 19
  8: 0x04F6 [0x2F] Unnamed NPC (ID: 17895886/0x011111CE)->Render.Flags0 &= ~0x80000 // Bit 19
  9: 0x04FC [0x2F] Unnamed NPC (ID: 17895887/0x011111CF)->Render.Flags0 &= ~0x80000 // Bit 19
 10: 0x0502 [0x2F] Unnamed NPC (ID: 17895888/0x011111D0)->Render.Flags0 &= ~0x80000 // Bit 19
 11: 0x0508 [0x2F] Unnamed NPC (ID: 17895889/0x011111D1)->Render.Flags0 &= ~0x80000 // Bit 19
 12: 0x050E [0x2F] Unnamed NPC (ID: 17895890/0x011111D2)->Render.Flags0 &= ~0x80000 // Bit 19
 13: 0x0514 [0x2F] Unnamed NPC (ID: 17895891/0x011111D3)->Render.Flags0 &= ~0x80000 // Bit 19
 14: 0x051A [0x2F] Unnamed NPC (ID: 17895892/0x011111D4)->Render.Flags0 &= ~0x80000 // Bit 19
 15: 0x0520 [0x2F] Unnamed NPC (ID: 17895893/0x011111D5)->Render.Flags0 &= ~0x80000 // Bit 19
 16: 0x0526 [0x2F] Arciela (ID: 17895883/0x011111CB)->Render.Flags0 &= ~0x80000 // Bit 19
 17: 0x052C [0x4E] SET_ENTITY_HIDE_FLAG: Show Unnamed NPC (ID: 17895884/0x011111CC)
 18: 0x0532 [0x4E] SET_ENTITY_HIDE_FLAG: Show Unnamed NPC (ID: 17895885/0x011111CD)
 19: 0x0538 [0x4E] SET_ENTITY_HIDE_FLAG: Show Unnamed NPC (ID: 17895886/0x011111CE)
 20: 0x053E [0x4E] SET_ENTITY_HIDE_FLAG: Show Unnamed NPC (ID: 17895887/0x011111CF)
 21: 0x0544 [0x4E] SET_ENTITY_HIDE_FLAG: Show Unnamed NPC (ID: 17895888/0x011111D0)
 22: 0x054A [0x4E] SET_ENTITY_HIDE_FLAG: Show Unnamed NPC (ID: 17895889/0x011111D1)
 23: 0x0550 [0x4E] SET_ENTITY_HIDE_FLAG: Show Unnamed NPC (ID: 17895890/0x011111D2)
 24: 0x0556 [0x4E] SET_ENTITY_HIDE_FLAG: Show Unnamed NPC (ID: 17895891/0x011111D3)
 25: 0x055C [0x4E] SET_ENTITY_HIDE_FLAG: Show Unnamed NPC (ID: 17895892/0x011111D4)
 26: 0x0562 [0x4E] SET_ENTITY_HIDE_FLAG: Show Unnamed NPC (ID: 17895893/0x011111D5)
 27: 0x0568 [0x4E] SET_ENTITY_HIDE_FLAG: Hide LocalPlayer
 28: 0x056E [0x92] Arciela (ID: 17895883/0x011111CB)->Render.Flags3 ^= 0x01
 29: 0x0574 [0x92] Unnamed NPC (ID: 17895884/0x011111CC)->Render.Flags3 ^= 0x01
 30: 0x057A [0x92] Unnamed NPC (ID: 17895885/0x011111CD)->Render.Flags3 ^= 0x01
 31: 0x0580 [0x94] Unnamed NPC (ID: 17895884/0x011111CC)->Render.Flags3 ^= 0x01
 32: 0x0586 [0x94] Unnamed NPC (ID: 17895885/0x011111CD)->Render.Flags3 ^= 0x01
 33: 0x058C [0x94] Unnamed NPC (ID: 17895886/0x011111CE)->Render.Flags3 ^= 0x01
 34: 0x0592 [0x94] Unnamed NPC (ID: 17895887/0x011111CF)->Render.Flags3 ^= 0x01
 35: 0x0598 [0x94] Unnamed NPC (ID: 17895888/0x011111D0)->Render.Flags3 ^= 0x01
 36: 0x059E [0x94] Unnamed NPC (ID: 17895889/0x011111D1)->Render.Flags3 ^= 0x01
 37: 0x05A4 [0x94] Unnamed NPC (ID: 17895890/0x011111D2)->Render.Flags3 ^= 0x01
 38: 0x05AA [0x94] Unnamed NPC (ID: 17895891/0x011111D3)->Render.Flags3 ^= 0x01
 39: 0x05B0 [0x94] Unnamed NPC (ID: 17895892/0x011111D4)->Render.Flags3 ^= 0x01
 40: 0x05B6 [0x94] LocalPlayer->Render.Flags3 ^= 0x01
 41: 0x05BC [0x94] Unnamed NPC (ID: 17895893/0x011111D5)->Render.Flags3 ^= 0x01
 42: 0x05C2 [0x94] Arciela (ID: 17895883/0x011111CB)->Render.Flags3 ^= 0x01
 43: 0x05C8 [0x59] UPDATE_ENTITY_DATA: Unnamed NPC (ID: 17895884/0x011111CC)->Render.Flags0 |= 0x200000
 44: 0x05CF [0x59] UPDATE_ENTITY_DATA: Unnamed NPC (ID: 17895885/0x011111CD)->Render.Flags0 |= 0x200000
 45: 0x05D6 [0x59] UPDATE_ENTITY_DATA: Unnamed NPC (ID: 17895886/0x011111CE)->Render.Flags0 |= 0x200000
 46: 0x05DD [0x59] UPDATE_ENTITY_DATA: Unnamed NPC (ID: 17895893/0x011111D5)->Render.Flags0 |= 0x200000
 47: 0x05E4 [0x59] UPDATE_ENTITY_DATA: Arciela (ID: 17895883/0x011111CB)->Render.Flags0 |= 0x200000
 48: 0x05EB [0x4E] SET_ENTITY_HIDE_FLAG: Hide LocalPlayer
 49: 0x05F1 [0xBA] SET_ENTITY_POSITION(entity_id=Unnamed NPC (ID: 17895893/0x011111D5), pos_x=-58.583*, pos_z=210.398*, pos_y=30.422*, direction=166.2°*)
 50: 0x05FE [0xBA] SET_ENTITY_POSITION(entity_id=LocalPlayer, pos_x=-45.628*, pos_z=215.647*, pos_y=30.423*, direction=180.1°*)
 51: 0x060B [0xBA] SET_ENTITY_POSITION(entity_id=Unnamed NPC (ID: 17895884/0x011111CC), pos_x=-58.583*, pos_z=210.398*, pos_y=30.422*, direction=166.2°*)
 52: 0x0618 [0xBA] SET_ENTITY_POSITION(entity_id=Unnamed NPC (ID: 17895885/0x011111CD), pos_x=-80.508*, pos_z=207.847*, pos_y=29.792*, direction=303.4°*)
 53: 0x0625 [0xBA] SET_ENTITY_POSITION(entity_id=Unnamed NPC (ID: 17895886/0x011111CE), pos_x=-78.942*, pos_z=209.683*, pos_y=30.098*, direction=133.2°*)
 54: 0x0632 [0xBA] SET_ENTITY_POSITION(entity_id=Unnamed NPC (ID: 17895887/0x011111CF), pos_x=-75.916*, pos_z=202.720*, pos_y=30.221*, direction=259.3°*)
 55: 0x063F [0xBA] SET_ENTITY_POSITION(entity_id=Unnamed NPC (ID: 17895888/0x011111D0), pos_x=-75.102*, pos_z=204.596*, pos_y=30.327*, direction=94.7°*)
 56: 0x064C [0xBA] SET_ENTITY_POSITION(entity_id=Unnamed NPC (ID: 17895889/0x011111D1), pos_x=-73.028*, pos_z=209.811*, pos_y=30.287*, direction=6.2°*)
 57: 0x0659 [0xBA] SET_ENTITY_POSITION(entity_id=Unnamed NPC (ID: 17895890/0x011111D2), pos_x=-70.890*, pos_z=209.402*, pos_y=30.351*, direction=170.2°*)
 58: 0x0666 [0xBA] SET_ENTITY_POSITION(entity_id=Unnamed NPC (ID: 17895891/0x011111D3), pos_x=-83.002*, pos_z=205.057*, pos_y=30.392*, direction=146.3°*)
 59: 0x0673 [0xBA] SET_ENTITY_POSITION(entity_id=Unnamed NPC (ID: 17895892/0x011111D4), pos_x=-83.006*, pos_z=203.006*, pos_y=30.450*, direction=269.3°*)
 60: 0x0680 [0xBA] SET_ENTITY_POSITION(entity_id=Arciela (ID: 17895883/0x011111CB), pos_x=-47.539*, pos_z=213.290*, pos_y=30.499*, direction=145.3°*)
 61: 0x068D [0x80] LOAD_WAIT(entity=Unnamed NPC (ID: 17895884/0x011111CC))
 62: 0x0692 [0x80] LOAD_WAIT(entity=Unnamed NPC (ID: 17895885/0x011111CD))
 63: 0x0697 [0x80] LOAD_WAIT(entity=Unnamed NPC (ID: 17895886/0x011111CE))
 64: 0x069C [0x80] LOAD_WAIT(entity=Unnamed NPC (ID: 17895887/0x011111CF))
 65: 0x06A1 [0x80] LOAD_WAIT(entity=Unnamed NPC (ID: 17895888/0x011111D0))
 66: 0x06A6 [0x80] LOAD_WAIT(entity=Unnamed NPC (ID: 17895889/0x011111D1))
 67: 0x06AB [0x80] LOAD_WAIT(entity=Unnamed NPC (ID: 17895890/0x011111D2))
 68: 0x06B0 [0x80] LOAD_WAIT(entity=Unnamed NPC (ID: 17895891/0x011111D3))
 69: 0x06B5 [0x80] LOAD_WAIT(entity=Unnamed NPC (ID: 17895892/0x011111D4))
 70: 0x06BA [0x80] LOAD_WAIT(entity=Unnamed NPC (ID: 17895893/0x011111D5))
 71: 0x06BF [0x79] LocalPlayer looks at LocalPlayer (Basic look)
 72: 0x06C9 [0x1C] WAIT(30* ticks)
 73: 0x06CC [0x5C] MUSIC_CONTROL: Set Idle (Day) music to song 57*
 74: 0x06D0 [0x5C] MUSIC_CONTROL: Set Idle (Night) music to song 57*
 75: 0x06D4 [0x9A] WAIT_MUSIC_SERVER()
 76: 0x06D5 [0x27] REQ_SET(priority=0x10, entity_id=Unnamed NPC (ID: 17895896/0x011111D8), tag_num=0x06)
 77: 0x06DC [0x27] REQ_SET(priority=0x10, entity_id=Unnamed NPC (ID: 17895884/0x011111CC), tag_num=0x09)
 78: 0x06E3 [0x5B] LOAD_EXT_SCHEDULER: Load scheduler "cmon" with entities [Unnamed NPC (ID: 17895893/0x011111D5), Unnamed NPC (ID: 17895893/0x011111D5)], work=3430*
 79: 0x06F2 [0x5B] LOAD_EXT_SCHEDULER: Load scheduler "run0" with entities [Unnamed NPC (ID: 17895893/0x011111D5), Unnamed NPC (ID: 17895893/0x011111D5)], work=3432*
 80: 0x0701 [0x5B] LOAD_EXT_SCHEDULER: Load scheduler "run0" with entities [Unnamed NPC (ID: 17895884/0x011111CC), Unnamed NPC (ID: 17895884/0x011111CC)], work=3497*
 81: 0x0710 [0xCD] LOAD_SCHEDULED_TASK_ALT4: Load scheduler "s000" with entities [Unnamed NPC (ID: 17895884/0x011111CC), Unnamed NPC (ID: 17895884/0x011111CC)], work=[213*, 0*]
 82: 0x0721 [0x1C] WAIT(15* ticks)
 83: 0x0724 [0x45] LOAD_SCHEDULED_TASK: Load scheduler "fdi0" with entities [LocalPlayer, LocalPlayer], work=[200*, 0*]
 84: 0x0735 [0x1C] WAIT(300* ticks)
 85: 0x0738 [0x27] REQ_SET(priority=0x10, entity_id=Unnamed NPC (ID: 17895884/0x011111CC), tag_num=0x0A)
 86: 0x073F [0x5B] LOAD_EXT_SCHEDULER: Load scheduler "cmof" with entities [Unnamed NPC (ID: 17895893/0x011111D5), Unnamed NPC (ID: 17895893/0x011111D5)], work=3430*
 87: 0x074E [0x5F] MULTI_HANDLER_COMPLEX(mode=0x02 - Kill entity action (OpCode 0xC1))
 88: 0x0754 [0x45] LOAD_SCHEDULED_TASK: Load scheduler "s120" with entities [EventEntity, EventEntity], work=[654*, 0*]
 89: 0x0765 [0x4E] SET_ENTITY_HIDE_FLAG: Show Arciela (ID: 17895883/0x011111CB)
 90: 0x076B [0x4E] SET_ENTITY_HIDE_FLAG: Show LocalPlayer
 91: 0x0771 [0x27] REQ_SET(priority=0x05, entity_id=Arciela (ID: 17895883/0x011111CB), tag_num=0x04)
 92: 0x0778 [0x1C] WAIT(5* ticks)
 93: 0x077B [0x27] REQ_SET(priority=0x05, entity_id=LocalPlayer, tag_num=0x05)
 94: 0x0782 [0x1C] WAIT(120* ticks)
 95: 0x0785 [0x52] END_LOAD_SCHEDULER: End scheduler "s120" with entities [EventEntity, EventEntity], work=654*
 96: 0x0794 [0x45] LOAD_SCHEDULED_TASK: Load scheduler "s121" with entities [EventEntity, EventEntity], work=[654*, 0*]
 97: 0x07A5 [0x1C] WAIT(120* ticks)
 98: 0x07A8 [0x52] END_LOAD_SCHEDULER: End scheduler "s121" with entities [EventEntity, EventEntity], work=654*
 99: 0x07B7 [0x45] LOAD_SCHEDULED_TASK: Load scheduler "s122" with entities [EventEntity, EventEntity], work=[654*, 0*]
100: 0x07C8 [0x45] LOAD_SCHEDULED_TASK: Load scheduler "rans" with entities [EventEntity, EventEntity], work=[654*, 0*]
101: 0x07D9 [0x1C] WAIT(20* ticks)
102: 0x07DC [0x4B] UPDATE_ENTITY_YAW(entity=LocalPlayer, yaw=11.1°*)
103: 0x07E3 [0x1C] WAIT(100* ticks)
104: 0x07E6 [0x52] END_LOAD_SCHEDULER: End scheduler "s122" with entities [EventEntity, EventEntity], work=654*
105: 0x07F5 [0x45] LOAD_SCHEDULED_TASK: Load scheduler "s123" with entities [EventEntity, EventEntity], work=[654*, 0*]
106: 0x0806 [0x2B] Unnamed NPC (ID: 17895884/0x011111CC) [7708*]:
    → "(Quite the confused melee we have stumbled into.)"
107: 0x080D [0x23] WAIT_FOR_DIALOG_INTERACTION
108: 0x080E [0x81] SET_ENTITY_BLINKING(blink_flag=0x00, entity=Arciela (ID: 17895883/0x011111CB))
109: 0x0814 [0x5B] LOAD_EXT_SCHEDULER: Load scheduler "bik0" with entities [Arciela (ID: 17895883/0x011111CB), Arciela (ID: 17895883/0x011111CB)], work=3225*
110: 0x0823 [0x52] END_LOAD_SCHEDULER: End scheduler "s123" with entities [EventEntity, EventEntity], work=654*
111: 0x0832 [0x45] LOAD_SCHEDULED_TASK: Load scheduler "s124" with entities [EventEntity, EventEntity], work=[654*, 0*]
112: 0x0843 [0x45] LOAD_SCHEDULED_TASK: Load scheduler "rane" with entities [EventEntity, EventEntity], work=[654*, 0*]
113: 0x0854 [0x1C] WAIT(15* ticks)
114: 0x0857 [0x6B] STOP_AND_IDLE: Unnamed NPC (ID: 17895885/0x011111CD) stops current action and resets to idle (animation="idl0")
115: 0x0860 [0x6B] STOP_AND_IDLE: Unnamed NPC (ID: 17895886/0x011111CE) stops current action and resets to idle (animation="idl0")
116: 0x0869 [0xBA] SET_ENTITY_POSITION(entity_id=Unnamed NPC (ID: 17895885/0x011111CD), pos_x=-84.226*, pos_z=209.531*, pos_y=30.823*, direction=357.0°*)
117: 0x0876 [0xBA] SET_ENTITY_POSITION(entity_id=Unnamed NPC (ID: 17895886/0x011111CE), pos_x=-80.915*, pos_z=209.730*, pos_y=30.223*, direction=173.6°*)
118: 0x0883 [0x2B] Arciela (ID: 17895883/0x011111CB) [7709*]:
    → "Umbrils fighting leafkin!? What on Vana'diel is going on?"
119: 0x088A [0x23] WAIT_FOR_DIALOG_INTERACTION
120: 0x088B [0x27] REQ_SET(priority=0x05, entity_id=Unnamed NPC (ID: 17895885/0x011111CD), tag_num=0x0B)
121: 0x0892 [0x5B] LOAD_EXT_SCHEDULER: Load scheduler "eat0" with entities [Unnamed NPC (ID: 17895886/0x011111CE), Unnamed NPC (ID: 17895886/0x011111CE)], work=3503*
122: 0x08A1 [0x5B] LOAD_EXT_SCHEDULER: Load scheduler "pyo0" with entities [Unnamed NPC (ID: 17895885/0x011111CD), Unnamed NPC (ID: 17895885/0x011111CD)], work=3502*
123: 0x08B0 [0xCD] LOAD_SCHEDULED_TASK_ALT4: Load scheduler "s000" with entities [Unnamed NPC (ID: 17895885/0x011111CD), Unnamed NPC (ID: 17895885/0x011111CD)], work=[210*, 0*]
124: 0x08C1 [0x52] END_LOAD_SCHEDULER: End scheduler "s124" with entities [EventEntity, EventEntity], work=654*
125: 0x08D0 [0x45] LOAD_SCHEDULED_TASK: Load scheduler "s125" with entities [EventEntity, EventEntity], work=[654*, 0*]
126: 0x08E1 [0x1C] WAIT(60* ticks)
127: 0x08E4 [0x52] END_LOAD_SCHEDULER: End scheduler "s125" with entities [EventEntity, EventEntity], work=654*
128: 0x08F3 [0x45] LOAD_SCHEDULED_TASK: Load scheduler "s126" with entities [EventEntity, EventEntity], work=[654*, 0*]
129: 0x0904 [0x1C] WAIT(90* ticks)
130: 0x0907 [0x52] END_LOAD_SCHEDULER: End scheduler "s126" with entities [EventEntity, EventEntity], work=654*
131: 0x0916 [0x45] LOAD_SCHEDULED_TASK: Load scheduler "s127" with entities [EventEntity, EventEntity], work=[654*, 0*]
132: 0x0927 [0x1C] WAIT(90* ticks)
133: 0x092A [0x52] END_LOAD_SCHEDULER: End scheduler "s127" with entities [EventEntity, EventEntity], work=654*
134: 0x0939 [0x45] LOAD_SCHEDULED_TASK: Load scheduler "s128" with entities [EventEntity, EventEntity], work=[654*, 0*]
135: 0x094A [0x1C] WAIT(120* ticks)
136: 0x094D [0x52] END_LOAD_SCHEDULER: End scheduler "s128" with entities [EventEntity, EventEntity], work=654*
137: 0x095C [0x45] LOAD_SCHEDULED_TASK: Load scheduler "s129" with entities [EventEntity, EventEntity], work=[654*, 0*]
138: 0x096D [0x1C] WAIT(120* ticks)
139: 0x0970 [0x5B] LOAD_EXT_SCHEDULER: Load scheduler "cry1" with entities [Arciela (ID: 17895883/0x011111CB), Arciela (ID: 17895883/0x011111CB)], work=3312*
140: 0x097F [0x1C] WAIT(30* ticks)
141: 0x0982 [0x52] END_LOAD_SCHEDULER: End scheduler "s129" with entities [EventEntity, EventEntity], work=654*
142: 0x0991 [0x45] LOAD_SCHEDULED_TASK: Load scheduler "s130" with entities [EventEntity, EventEntity], work=[654*, 0*]
143: 0x09A2 [0x6E] LocalPlayer uses emote 6*
144: 0x09A9 [0x99] Wait for LocalPlayer animation to complete
145: 0x09AE [0x1C] WAIT(20* ticks)
146: 0x09B1 [0x27] REQ_SET(priority=0x05, entity_id=Unnamed NPC (ID: 17895885/0x011111CD), tag_num=0x0C)
147: 0x09B8 [0x6B] STOP_AND_IDLE: Unnamed NPC (ID: 17895885/0x011111CD) stops current action and resets to idle (animation="idl0")
148: 0x09C1 [0x6B] STOP_AND_IDLE: Unnamed NPC (ID: 17895886/0x011111CE) stops current action and resets to idle (animation="idl0")
149: 0x09CA [0x27] REQ_SET(priority=0x05, entity_id=Unnamed NPC (ID: 17895885/0x011111CD), tag_num=0x02)
150: 0x09D1 [0x81] SET_ENTITY_BLINKING(blink_flag=0x00, entity=Unnamed NPC (ID: 17895885/0x011111CD))
151: 0x09D7 [0x7C] Unnamed NPC (ID: 17895885/0x011111CD)->Render.Flags2 |= 0x00
152: 0x09DD [0xBA] SET_ENTITY_POSITION(entity_id=Unnamed NPC (ID: 17895885/0x011111CD), pos_x=-74.206*, pos_z=224.219*, pos_y=30.354*, direction=258.0°*)
153: 0x09EA [0xBA] SET_ENTITY_POSITION(entity_id=Unnamed NPC (ID: 17895886/0x011111CE), pos_x=-74.760*, pos_z=228.358*, pos_y=30.550*, direction=81.1°*)
154: 0x09F7 [0x1C] WAIT(100* ticks)
155: 0x09FA [0x52] END_LOAD_SCHEDULER: End scheduler "s130" with entities [EventEntity, EventEntity], work=654*
156: 0x0A09 [0x45] LOAD_SCHEDULED_TASK: Load scheduler "s131" with entities [EventEntity, EventEntity], work=[654*, 0*]
157: 0x0A1A [0xBA] SET_ENTITY_POSITION(entity_id=Unnamed NPC (ID: 17895893/0x011111D5), pos_x=-68.000*, pos_z=210.000*, pos_y=30.446*, direction=90.0°*)
158: 0x0A27 [0x5B] LOAD_EXT_SCHEDULER: Load scheduler "kiz0" with entities [Unnamed NPC (ID: 17895884/0x011111CC), Unnamed NPC (ID: 17895884/0x011111CC)], work=3498*
159: 0x0A36 [0x1C] WAIT(70* ticks)
160: 0x0A39 [0x81] SET_ENTITY_BLINKING(blink_flag=0x00, entity=Unnamed NPC (ID: 17895885/0x011111CD))
161: 0x0A3F [0x27] REQ_SET(priority=0x10, entity_id=Unnamed NPC (ID: 17895896/0x011111D8), tag_num=0x03)
162: 0x0A46 [0x1C] WAIT(30* ticks)
163: 0x0A49 [0x52] END_LOAD_SCHEDULER: End scheduler "s131" with entities [EventEntity, EventEntity], work=654*
164: 0x0A58 [0x5B] LOAD_EXT_SCHEDULER: Load scheduler "tik0" with entities [Unnamed NPC (ID: 17895886/0x011111CE), Unnamed NPC (ID: 17895886/0x011111CE)], work=3506*
165: 0x0A67 [0xAE] MULTI_PURPOSE_ENTITY_HANDLER(case_type=0x05 - Link ActorPointer, entity1=Unnamed NPC (ID: 17895893/0x011111D5), entity2=Unnamed NPC (ID: 17895885/0x011111CD))
166: 0x0A71 [0x5B] LOAD_EXT_SCHEDULER: Load scheduler "atk0" with entities [Unnamed NPC (ID: 17895893/0x011111D5), Unnamed NPC (ID: 17895893/0x011111D5)], work=3432*
167: 0x0A80 [0x5B] LOAD_EXT_SCHEDULER: Load scheduler "atk0" with entities [Unnamed NPC (ID: 17895885/0x011111CD), Unnamed NPC (ID: 17895885/0x011111CD)], work=3487*
168: 0x0A8F [0x27] REQ_SET(priority=0x10, entity_id=Unnamed NPC (ID: 17895896/0x011111D8), tag_num=0x08)
169: 0x0A96 [0x1C] WAIT(230* ticks)
170: 0x0A99 [0x5B] LOAD_EXT_SCHEDULER: Load scheduler "tik1" with entities [Unnamed NPC (ID: 17895886/0x011111CE), Unnamed NPC (ID: 17895886/0x011111CE)], work=3507*
171: 0x0AA8 [0x1C] WAIT(156* ticks)
172: 0x0AAB [0x5B] LOAD_EXT_SCHEDULER: Load scheduler "cmof" with entities [Unnamed NPC (ID: 17895893/0x011111D5), Unnamed NPC (ID: 17895893/0x011111D5)], work=3430*
173: 0x0ABA [0x5F] MULTI_HANDLER_COMPLEX(mode=0x02 - Kill entity action (OpCode 0xC1))
174: 0x0AC0 [0x45] LOAD_SCHEDULED_TASK: Load scheduler "s132" with entities [EventEntity, EventEntity], work=[654*, 0*]
175: 0x0AD1 [0x1C] WAIT(20* ticks)
176: 0x0AD4 [0xAE] MULTI_PURPOSE_ENTITY_HANDLER(case_type=0x06 - Unset ActorPointer, entity=Unnamed NPC (ID: 17895885/0x011111CD))
177: 0x0ADA [0x6B] STOP_AND_IDLE: Unnamed NPC (ID: 17895884/0x011111CC) stops current action and resets to idle (animation="idl0")
178: 0x0AE3 [0x4B] UPDATE_ENTITY_YAW(entity=Unnamed NPC (ID: 17895884/0x011111CC), yaw=13.2°*)
179: 0x0AEA [0x1C] WAIT(100* ticks)
180: 0x0AED [0x52] END_LOAD_SCHEDULER: End scheduler "s132" with entities [EventEntity, EventEntity], work=654*
181: 0x0AFC [0x45] LOAD_SCHEDULED_TASK: Load scheduler "s133" with entities [EventEntity, EventEntity], work=[654*, 0*]
182: 0x0B0D [0x5B] LOAD_EXT_SCHEDULER: Load scheduler "atk1" with entities [Unnamed NPC (ID: 17895885/0x011111CD), Unnamed NPC (ID: 17895885/0x011111CD)], work=3488*
183: 0x0B1C [0x1C] WAIT(120* ticks)
184: 0x0B1F [0x52] END_LOAD_SCHEDULER: End scheduler "s133" with entities [EventEntity, EventEntity], work=654*
185: 0x0B2E [0x45] LOAD_SCHEDULED_TASK: Load scheduler "s134" with entities [EventEntity, EventEntity], work=[654*, 0*]
186: 0x0B3F [0xBB] LOAD_EVENT_SCHEDULER_ALT: Load scheduler "stp1" with entities [Unnamed NPC (ID: 17895885/0x011111CD), Unnamed NPC (ID: 17895885/0x011111CD)], work=[239*, 0*]
187: 0x0B50 [0xBB] LOAD_EVENT_SCHEDULER_ALT: Load scheduler "stp1" with entities [Unnamed NPC (ID: 17895887/0x011111CF), Unnamed NPC (ID: 17895887/0x011111CF)], work=[239*, 0*]
188: 0x0B61 [0xBB] LOAD_EVENT_SCHEDULER_ALT: Load scheduler "stp1" with entities [Unnamed NPC (ID: 17895890/0x011111D2), Unnamed NPC (ID: 17895890/0x011111D2)], work=[239*, 0*]
189: 0x0B72 [0x2B] Unnamed NPC (ID: 17895885/0x011111CD) [7710*]:
    → "Darrcuiln, what took ya so long?"
190: 0x0B79 [0x1C] WAIT(120* ticks)
191: 0x0B7C [0x23] WAIT_FOR_DIALOG_INTERACTION
192: 0x0B7D [0x52] END_LOAD_SCHEDULER: End scheduler "s134" with entities [EventEntity, EventEntity], work=654*
193: 0x0B8C [0x45] LOAD_SCHEDULED_TASK: Load scheduler "s135" with entities [EventEntity, EventEntity], work=[654*, 0*]
194: 0x0B9D [0x1C] WAIT(60* ticks)
195: 0x0BA0 [0x52] END_LOAD_SCHEDULER: End scheduler "s135" with entities [EventEntity, EventEntity], work=654*
196: 0x0BAF [0x45] LOAD_SCHEDULED_TASK: Load scheduler "s136" with entities [EventEntity, EventEntity], work=[654*, 0*]
197: 0x0BC0 [0x1C] WAIT(15* ticks)
198: 0x0BC3 [0x2B] Unnamed NPC (ID: 17895884/0x011111CC) [7711*]:
    → "(Hmph. Like you would ever lose before I got here.)"
199: 0x0BCA [0x23] WAIT_FOR_DIALOG_INTERACTION
200: 0x0BCB [0x59] UPDATE_ENTITY_DATA: Unnamed NPC (ID: 17895888/0x011111D0)->Render.Flags0 |= 0x200000
201: 0x0BD2 [0x59] UPDATE_ENTITY_DATA: Unnamed NPC (ID: 17895890/0x011111D2)->Render.Flags0 |= 0x200000
202: 0x0BD9 [0xBA] SET_ENTITY_POSITION(entity_id=Unnamed NPC (ID: 17895888/0x011111D0), pos_x=-83.273*, pos_z=224.363*, pos_y=32.000*, direction=359.4°*)
203: 0x0BE6 [0xBA] SET_ENTITY_POSITION(entity_id=Unnamed NPC (ID: 17895886/0x011111CE), pos_x=-73.391*, pos_z=229.129*, pos_y=33.500*, direction=95.6°*)
204: 0x0BF3 [0xBA] SET_ENTITY_POSITION(entity_id=Unnamed NPC (ID: 17895890/0x011111D2), pos_x=-70.323*, pos_z=220.150*, pos_y=33.000*, direction=245.0°*)
205: 0x0C00 [0x27] REQ_SET(priority=0x05, entity_id=Unnamed NPC (ID: 17895888/0x011111D0), tag_num=0x02)
206: 0x0C07 [0x52] END_LOAD_SCHEDULER: End scheduler "s136" with entities [EventEntity, EventEntity], work=654*
207: 0x0C16 [0x45] LOAD_SCHEDULED_TASK: Load scheduler "s137" with entities [EventEntity, EventEntity], work=[654*, 0*]
208: 0x0C27 [0x6B] STOP_AND_IDLE: Unnamed NPC (ID: 17895886/0x011111CE) stops current action and resets to idle (animation="idl0")
209: 0x0C30 [0x1C] WAIT(60* ticks)
210: 0x0C33 [0x45] LOAD_SCHEDULED_TASK: Load scheduler "yris" with entities [EventEntity, EventEntity], work=[654*, 0*]
211: 0x0C44 [0x27] REQ_SET(priority=0x10, entity_id=Unnamed NPC (ID: 17895896/0x011111D8), tag_num=0x02)
212: 0x0C4B [0x1C] WAIT(30* ticks)
213: 0x0C4E [0x52] END_LOAD_SCHEDULER: End scheduler "s137" with entities [EventEntity, EventEntity], work=654*
214: 0x0C5D [0xAE] MULTI_PURPOSE_ENTITY_HANDLER(case_type=0x05 - Link ActorPointer, entity1=Unnamed NPC (ID: 17895893/0x011111D5), entity2=Unnamed NPC (ID: 17895885/0x011111CD))
215: 0x0C67 [0x5B] LOAD_EXT_SCHEDULER: Load scheduler "ono1" with entities [Unnamed NPC (ID: 17895893/0x011111D5), Unnamed NPC (ID: 17895893/0x011111D5)], work=3432*
216: 0x0C76 [0x5B] LOAD_EXT_SCHEDULER: Load scheduler "ono1" with entities [Unnamed NPC (ID: 17895885/0x011111CD), Unnamed NPC (ID: 17895885/0x011111CD)], work=3489*
217: 0x0C85 [0x1C] WAIT(30* ticks)
218: 0x0C88 [0xBA] SET_ENTITY_POSITION(entity_id=Unnamed NPC (ID: 17895885/0x011111CD), pos_x=-74.460*, pos_z=224.166*, pos_y=30.341*, direction=46.9°*)
219: 0x0C95 [0x1C] WAIT(70* ticks)
220: 0x0C98 [0x27] REQ_SET(priority=0x05, entity_id=Unnamed NPC (ID: 17895886/0x011111CE), tag_num=0x02)
221: 0x0C9F [0x1C] WAIT(60* ticks)
222: 0x0CA2 [0x27] REQ_SET(priority=0x05, entity_id=Unnamed NPC (ID: 17895890/0x011111D2), tag_num=0x02)
223: 0x0CA9 [0x1C] WAIT(214* ticks)
224: 0x0CAC [0x1C] WAIT(60* ticks)
225: 0x0CAF [0xAE] MULTI_PURPOSE_ENTITY_HANDLER(case_type=0x06 - Unset ActorPointer, entity=Unnamed NPC (ID: 17895885/0x011111CD))
226: 0x0CB5 [0x5B] LOAD_EXT_SCHEDULER: Load scheduler "cmof" with entities [Unnamed NPC (ID: 17895893/0x011111D5), Unnamed NPC (ID: 17895893/0x011111D5)], work=3430*
227: 0x0CC4 [0x5F] MULTI_HANDLER_COMPLEX(mode=0x02 - Kill entity action (OpCode 0xC1))
228: 0x0CCA [0x45] LOAD_SCHEDULED_TASK: Load scheduler "s138" with entities [EventEntity, EventEntity], work=[654*, 0*]
229: 0x0CDB [0x1C] WAIT(15* ticks)
230: 0x0CDE [0xBA] SET_ENTITY_POSITION(entity_id=Unnamed NPC (ID: 17895890/0x011111D2), pos_x=-69.132*, pos_z=218.860*, pos_y=30.392*, direction=227.3°*)
231: 0x0CEB [0x4E] SET_ENTITY_HIDE_FLAG: Hide Unnamed NPC (ID: 17895887/0x011111CF)
232: 0x0CF1 [0x4E] SET_ENTITY_HIDE_FLAG: Hide Unnamed NPC (ID: 17895889/0x011111D1)
233: 0x0CF7 [0x4E] SET_ENTITY_HIDE_FLAG: Hide Unnamed NPC (ID: 17895891/0x011111D3)
234: 0x0CFD [0xBA] SET_ENTITY_POSITION(entity_id=Unnamed NPC (ID: 17895884/0x011111CC), pos_x=-68.000*, pos_z=210.000*, pos_y=30.446*, direction=90.0°*)
235: 0x0D0A [0xBA] SET_ENTITY_POSITION(entity_id=Unnamed NPC (ID: 17895888/0x011111D0), pos_x=-73.460*, pos_z=226.775*, pos_y=30.550*, direction=105.4°*)
236: 0x0D17 [0xBA] SET_ENTITY_POSITION(entity_id=Unnamed NPC (ID: 17895890/0x011111D2), pos_x=-70.031*, pos_z=222.799*, pos_y=30.544*, direction=195.3°*)
237: 0x0D24 [0x1C] WAIT(15* ticks)
238: 0x0D27 [0x27] REQ_SET(priority=0x05, entity_id=Unnamed NPC (ID: 17895888/0x011111D0), tag_num=0x03)
239: 0x0D2E [0x27] REQ_SET(priority=0x05, entity_id=Unnamed NPC (ID: 17895890/0x011111D2), tag_num=0x03)
240: 0x0D35 [0x5B] LOAD_EXT_SCHEDULER: Load scheduler "ono2" with entities [Unnamed NPC (ID: 17895885/0x011111CD), Unnamed NPC (ID: 17895885/0x011111CD)], work=3510*
241: 0x0D44 [0xCD] LOAD_SCHEDULED_TASK_ALT4: Load scheduler "s001" with entities [Unnamed NPC (ID: 17895885/0x011111CD), Unnamed NPC (ID: 17895885/0x011111CD)], work=[211*, 0*]
242: 0x0D55 [0x45] LOAD_SCHEDULED_TASK: Load scheduler "kais" with entities [EventEntity, EventEntity], work=[654*, 0*]
243: 0x0D66 [0x52] END_LOAD_SCHEDULER: End scheduler "s138" with entities [EventEntity, EventEntity], work=654*
244: 0x0D75 [0x5B] LOAD_EXT_SCHEDULER: Load scheduler "cmon" with entities [Unnamed NPC (ID: 17895893/0x011111D5), Unnamed NPC (ID: 17895893/0x011111D5)], work=3430*
245: 0x0D84 [0x5B] LOAD_EXT_SCHEDULER: Load scheduler "ono2" with entities [Unnamed NPC (ID: 17895893/0x011111D5), Unnamed NPC (ID: 17895893/0x011111D5)], work=3432*
246: 0x0D93 [0x1C] WAIT(20* ticks)
247: 0x0D96 [0xBA] SET_ENTITY_POSITION(entity_id=Unnamed NPC (ID: 17895886/0x011111CE), pos_x=-77.734*, pos_z=222.378*, pos_y=30.446*, direction=338.7°*)
248: 0x0DA3 [0x1C] WAIT(65* ticks)
249: 0x0DA6 [0x5B] LOAD_EXT_SCHEDULER: Load scheduler "fut0" with entities [Unnamed NPC (ID: 17895886/0x011111CE), Unnamed NPC (ID: 17895886/0x011111CE)], work=3508*
250: 0x0DB5 [0x5B] LOAD_EXT_SCHEDULER: Load scheduler "fut0" with entities [Unnamed NPC (ID: 17895888/0x011111D0), Unnamed NPC (ID: 17895888/0x011111D0)], work=3508*
251: 0x0DC4 [0x5B] LOAD_EXT_SCHEDULER: Load scheduler "fut0" with entities [Unnamed NPC (ID: 17895890/0x011111D2), Unnamed NPC (ID: 17895890/0x011111D2)], work=3508*
252: 0x0DD3 [0x27] REQ_SET(priority=0x10, entity_id=Unnamed NPC (ID: 17895896/0x011111D8), tag_num=0x09)
253: 0x0DDA [0x45] LOAD_SCHEDULED_TASK: Load scheduler "hits" with entities [EventEntity, EventEntity], work=[654*, 0*]
254: 0x0DEB [0x1C] WAIT(283* ticks)
255: 0x0DEE [0x81] SET_ENTITY_BLINKING(blink_flag=0x00, entity=Unnamed NPC (ID: 17895884/0x011111CC))
256: 0x0DF4 [0x27] REQ_SET(priority=0x10, entity_id=Unnamed NPC (ID: 17895884/0x011111CC), tag_num=0x09)
257: 0x0DFB [0x5B] LOAD_EXT_SCHEDULER: Load scheduler "wlk0" with entities [Unnamed NPC (ID: 17895893/0x011111D5), Unnamed NPC (ID: 17895893/0x011111D5)], work=3432*
258: 0x0E0A [0x5B] LOAD_EXT_SCHEDULER: Load scheduler "wlk0" with entities [Unnamed NPC (ID: 17895884/0x011111CC), Unnamed NPC (ID: 17895884/0x011111CC)], work=3498*
259: 0x0E19 [0x27] REQ_SET(priority=0x10, entity_id=??? (ID: 17895895/0x011111D7), tag_num=0x05)
260: 0x0E20 [0x27] REQ_SET(priority=0x10, entity_id=??? (ID: 17895895/0x011111D7), tag_num=0x06)
261: 0x0E27 [0x27] REQ_SET(priority=0x10, entity_id=??? (ID: 17895895/0x011111D7), tag_num=0x07)
262: 0x0E2E [0x1C] WAIT(18* ticks)
263: 0x0E31 [0xBA] SET_ENTITY_POSITION(entity_id=Unnamed NPC (ID: 17895885/0x011111CD), pos_x=-74.460*, pos_z=224.166*, pos_y=30.385*, direction=74.6°*)
264: 0x0E3E [0xBA] SET_ENTITY_POSITION(entity_id=Unnamed NPC (ID: 17895890/0x011111D2), pos_x=-76.283*, pos_z=231.949*, pos_y=30.447*, direction=77.3°*)
265: 0x0E4B [0x5B] LOAD_EXT_SCHEDULER: Load scheduler "ono0" with entities [Unnamed NPC (ID: 17895885/0x011111CD), Unnamed NPC (ID: 17895885/0x011111CD)], work=3489*
266: 0x0E5A [0x2B] Unnamed NPC (ID: 17895884/0x011111CC) [7712*]:
    → "(See?)"
267: 0x0E61 [0x1C] WAIT(190* ticks)
268: 0x0E64 [0x5B] LOAD_EXT_SCHEDULER: Load scheduler "cmof" with entities [Unnamed NPC (ID: 17895893/0x011111D5), Unnamed NPC (ID: 17895893/0x011111D5)], work=3430*
269: 0x0E73 [0x5F] MULTI_HANDLER_COMPLEX(mode=0x02 - Kill entity action (OpCode 0xC1))
270: 0x0E79 [0x45] LOAD_SCHEDULED_TASK: Load scheduler "s139" with entities [EventEntity, EventEntity], work=[654*, 0*]
271: 0x0E8A [0x1C] WAIT(60* ticks)
272: 0x0E8D [0x23] WAIT_FOR_DIALOG_INTERACTION
273: 0x0E8E [0x27] REQ_SET(priority=0x10, entity_id=Unnamed NPC (ID: 17895884/0x011111CC), tag_num=0x0A)
274: 0x0E95 [0x59] UPDATE_ENTITY_DATA: Unnamed NPC (ID: 17895892/0x011111D4)->Render.Flags0 |= 0x200000
275: 0x0E9C [0x6B] STOP_AND_IDLE: Unnamed NPC (ID: 17895890/0x011111D2) stops current action and resets to idle (animation="idl0")
276: 0x0EA5 [0x6B] STOP_AND_IDLE: Unnamed NPC (ID: 17895892/0x011111D4) stops current action and resets to idle (animation="idl0")
277: 0x0EAE [0xBA] SET_ENTITY_POSITION(entity_id=Unnamed NPC (ID: 17895892/0x011111D4), pos_x=-75.678*, pos_z=211.064*, pos_y=32.000*, direction=2041.8°*)
278: 0x0EBB [0x5B] LOAD_EXT_SCHEDULER: Load scheduler "ono3" with entities [Unnamed NPC (ID: 17895885/0x011111CD), Unnamed NPC (ID: 17895885/0x011111CD)], work=3511*
279: 0x0ECA [0x1C] WAIT(50* ticks)
280: 0x0ECD [0x52] END_LOAD_SCHEDULER: End scheduler "s139" with entities [EventEntity, EventEntity], work=654*
281: 0x0EDC [0x45] LOAD_SCHEDULED_TASK: Load scheduler "s140" with entities [EventEntity, EventEntity], work=[654*, 0*]
282: 0x0EED [0x2B] Unnamed NPC (ID: 17895885/0x011111CD) [7713*]:
    → "Where's the respect yer supposed to show yer master? Never forget who's the older one here!"
283: 0x0EF4 [0x1C] WAIT(20* ticks)
284: 0x0EF7 [0x6B] STOP_AND_IDLE: Unnamed NPC (ID: 17895886/0x011111CE) stops current action and resets to idle (animation="idl0")
285: 0x0F00 [0x6B] STOP_AND_IDLE: Unnamed NPC (ID: 17895888/0x011111D0) stops current action and resets to idle (animation="idl0")
286: 0x0F09 [0x2C] CREATE_SCHEDULER_TASK: Create scheduler "pop0" with entities [Unnamed NPC (ID: 17895886/0x011111CE), Unnamed NPC (ID: 17895886/0x011111CE)]
287: 0x0F16 [0x2C] CREATE_SCHEDULER_TASK: Create scheduler "pop0" with entities [Unnamed NPC (ID: 17895888/0x011111D0), Unnamed NPC (ID: 17895888/0x011111D0)]
288: 0x0F23 [0xBA] SET_ENTITY_POSITION(entity_id=Unnamed NPC (ID: 17895886/0x011111CE), pos_x=-80.920*, pos_z=224.418*, pos_y=30.442*, direction=353.3°*)
289: 0x0F30 [0xBA] SET_ENTITY_POSITION(entity_id=Unnamed NPC (ID: 17895888/0x011111D0), pos_x=-71.155*, pos_z=217.535*, pos_y=30.381*, direction=238.5°*)
290: 0x0F3D [0x1C] WAIT(100* ticks)
291: 0x0F40 [0x27] REQ_SET(priority=0x10, entity_id=??? (ID: 17895895/0x011111D7), tag_num=0x09)
292: 0x0F47 [0x27] REQ_SET(priority=0x10, entity_id=??? (ID: 17895895/0x011111D7), tag_num=0x0A)
293: 0x0F4E [0x27] REQ_SET(priority=0x10, entity_id=??? (ID: 17895895/0x011111D7), tag_num=0x0B)
294: 0x0F55 [0x27] REQ_SET(priority=0x05, entity_id=Unnamed NPC (ID: 17895888/0x011111D0), tag_num=0x04)
295: 0x0F5C [0x52] END_LOAD_SCHEDULER: End scheduler "s140" with entities [EventEntity, EventEntity], work=654*
296: 0x0F6B [0x45] LOAD_SCHEDULED_TASK: Load scheduler "s141" with entities [EventEntity, EventEntity], work=[654*, 0*]
297: 0x0F7C [0x45] LOAD_SCHEDULED_TASK: Load scheduler "yris" with entities [EventEntity, EventEntity], work=[654*, 0*]
298: 0x0F8D [0x1C] WAIT(30* ticks)
299: 0x0F90 [0x7A] VM_CONTROL: Reset VM for Unnamed NPC (ID: 17895888/0x011111D0)
300: 0x0F96 [0x1C] WAIT(60* ticks)
301: 0x0F99 [0x27] REQ_SET(priority=0x05, entity_id=Unnamed NPC (ID: 17895892/0x011111D4), tag_num=0x02)
302: 0x0FA0 [0x2B] Unnamed NPC (ID: 17895884/0x011111CC) [7714*]:
    → "(Complaints can come after. We have work to do!)"
303: 0x0FA7 [0x1C] WAIT(90* ticks)
304: 0x0FAA [0x81] SET_ENTITY_BLINKING(blink_flag=0x00, entity=Unnamed NPC (ID: 17895884/0x011111CC))
305: 0x0FB0 [0x7C] Unnamed NPC (ID: 17895884/0x011111CC)->Render.Flags2 |= 0x00
306: 0x0FB6 [0x5B] LOAD_EXT_SCHEDULER: Load scheduler "wlk1" with entities [Unnamed NPC (ID: 17895884/0x011111CC), Unnamed NPC (ID: 17895884/0x011111CC)], work=3499*
307: 0x0FC5 [0x52] END_LOAD_SCHEDULER: End scheduler "s141" with entities [EventEntity, EventEntity], work=654*
308: 0x0FD4 [0x45] LOAD_SCHEDULED_TASK: Load scheduler "s142" with entities [EventEntity, EventEntity], work=[654*, 0*]
309: 0x0FE5 [0x2B] Unnamed NPC (ID: 17895885/0x011111CD) [7715*]:
    → "Ya got that right!"
310: 0x0FEC [0x1C] WAIT(60* ticks)
311: 0x0FEF [0x27] REQ_SET(priority=0x10, entity_id=Unnamed NPC (ID: 17895896/0x011111D8), tag_num=0x04)
312: 0x0FF6 [0x1C] WAIT(40* ticks)
313: 0x0FF9 [0x27] REQ_SET(priority=0x10, entity_id=Unnamed NPC (ID: 17895884/0x011111CC), tag_num=0x09)
314: 0x1000 [0x52] END_LOAD_SCHEDULER: End scheduler "s142" with entities [EventEntity, EventEntity], work=654*
315: 0x100F [0x5B] LOAD_EXT_SCHEDULER: Load scheduler "jmp0" with entities [Unnamed NPC (ID: 17895893/0x011111D5), Unnamed NPC (ID: 17895893/0x011111D5)], work=3432*
316: 0x101E [0x5B] LOAD_EXT_SCHEDULER: Load scheduler "jmp0" with entities [Unnamed NPC (ID: 17895884/0x011111CC), Unnamed NPC (ID: 17895884/0x011111CC)], work=3499*
317: 0x102D [0x45] LOAD_SCHEDULED_TASK: Load scheduler "jmps" with entities [EventEntity, EventEntity], work=[654*, 0*]
318: 0x103E [0x27] REQ_SET(priority=0x10, entity_id=Unnamed NPC (ID: 17895896/0x011111D8), tag_num=0x0B)
319: 0x1045 [0x1C] WAIT(40* ticks)
320: 0x1048 [0x5B] LOAD_EXT_SCHEDULER: Load scheduler "ded0" with entities [Unnamed NPC (ID: 17895886/0x011111CE), Unnamed NPC (ID: 17895886/0x011111CE)], work=3505*
321: 0x1057 [0xBA] SET_ENTITY_POSITION(entity_id=Unnamed NPC (ID: 17895888/0x011111D0), pos_x=-71.769*, pos_z=220.212*, pos_y=30.442*, direction=238.5°*)
322: 0x1064 [0x1C] WAIT(120* ticks)
323: 0x1067 [0x27] REQ_SET(priority=0x05, entity_id=Unnamed NPC (ID: 17895888/0x011111D0), tag_num=0x05)
324: 0x106E [0x1C] WAIT(30* ticks)
325: 0x1071 [0x5B] LOAD_EXT_SCHEDULER: Load scheduler "cmof" with entities [Unnamed NPC (ID: 17895893/0x011111D5), Unnamed NPC (ID: 17895893/0x011111D5)], work=3430*
326: 0x1080 [0x5F] MULTI_HANDLER_COMPLEX(mode=0x02 - Kill entity action (OpCode 0xC1))
327: 0x1086 [0x5B] LOAD_EXT_SCHEDULER: Load scheduler "hlp0" with entities [Unnamed NPC (ID: 17895893/0x011111D5), Unnamed NPC (ID: 17895893/0x011111D5)], work=3432*
328: 0x1095 [0x45] LOAD_SCHEDULED_TASK: Load scheduler "cuts" with entities [EventEntity, EventEntity], work=[654*, 0*]
329: 0x10A6 [0x1C] WAIT(44* ticks)
330: 0x10A9 [0x5B] LOAD_EXT_SCHEDULER: Load scheduler "ono4" with entities [Unnamed NPC (ID: 17895885/0x011111CD), Unnamed NPC (ID: 17895885/0x011111CD)], work=3512*
331: 0x10B8 [0x27] REQ_SET(priority=0x10, entity_id=Unnamed NPC (ID: 17895896/0x011111D8), tag_num=0x0A)
332: 0x10BF [0x27] REQ_SET(priority=0x10, entity_id=Unnamed NPC (ID: 17895884/0x011111CC), tag_num=0x0A)
333: 0x10C6 [0x27] REQ_SET(priority=0x10, entity_id=??? (ID: 17895895/0x011111D7), tag_num=0x04)
334: 0x10CD [0x1C] WAIT(30* ticks)
335: 0x10D0 [0x7A] VM_CONTROL: Reset VM for Unnamed NPC (ID: 17895888/0x011111D0)
336: 0x10D6 [0x5B] LOAD_EXT_SCHEDULER: Load scheduler "ded0" with entities [Unnamed NPC (ID: 17895888/0x011111D0), Unnamed NPC (ID: 17895888/0x011111D0)], work=3505*
337: 0x10E5 [0x1C] WAIT(10* ticks)
338: 0x10E8 [0x1C] WAIT(30* ticks)
339: 0x10EB [0xBA] SET_ENTITY_POSITION(entity_id=Unnamed NPC (ID: 17895886/0x011111CE), pos_x=-84.428*, pos_z=230.515*, pos_y=30.202*, direction=35.5°*)
340: 0x10F8 [0x1C] WAIT(10* ticks)
341: 0x10FB [0x5B] LOAD_EXT_SCHEDULER: Load scheduler "sin0" with entities [Unnamed NPC (ID: 17895886/0x011111CE), Unnamed NPC (ID: 17895886/0x011111CE)], work=3509*
342: 0x110A [0x45] LOAD_SCHEDULED_TASK: Load scheduler "sins" with entities [EventEntity, EventEntity], work=[654*, 0*]
343: 0x111B [0x1C] WAIT(60* ticks)
344: 0x111E [0x27] REQ_SET(priority=0x10, entity_id=??? (ID: 17895895/0x011111D7), tag_num=0x0D)
345: 0x1125 [0x1C] WAIT(60* ticks)
346: 0x1128 [0x27] REQ_SET(priority=0x10, entity_id=??? (ID: 17895895/0x011111D7), tag_num=0x0E)
347: 0x112F [0x1C] WAIT(60* ticks)
348: 0x1132 [0x1C] WAIT(30* ticks)
349: 0x1135 [0x27] REQ_SET(priority=0x10, entity_id=??? (ID: 17895895/0x011111D7), tag_num=0x08)
350: 0x113C [0x5B] LOAD_EXT_SCHEDULER: Load scheduler "hlp0" with entities [Unnamed NPC (ID: 17895884/0x011111CC), Unnamed NPC (ID: 17895884/0x011111CC)], work=3500*
351: 0x114B [0x5B] LOAD_EXT_SCHEDULER: Load scheduler "yra0" with entities [Unnamed NPC (ID: 17895886/0x011111CE), Unnamed NPC (ID: 17895886/0x011111CE)], work=3509*
352: 0x115A [0x27] REQ_SET(priority=0x10, entity_id=Unnamed NPC (ID: 17895896/0x011111D8), tag_num=0x0C)
353: 0x1161 [0x1C] WAIT(88* ticks)
354: 0x1164 [0x5B] LOAD_EXT_SCHEDULER: Load scheduler "cmof" with entities [Unnamed NPC (ID: 17895893/0x011111D5), Unnamed NPC (ID: 17895893/0x011111D5)], work=3430*
355: 0x1173 [0x5F] MULTI_HANDLER_COMPLEX(mode=0x02 - Kill entity action (OpCode 0xC1))
356: 0x1179 [0x45] LOAD_SCHEDULED_TASK: Load scheduler "s148" with entities [EventEntity, EventEntity], work=[654*, 0*]
357: 0x118A [0x1C] WAIT(120* ticks)
358: 0x118D [0x52] END_LOAD_SCHEDULER: End scheduler "s148" with entities [EventEntity, EventEntity], work=654*
359: 0x119C [0x45] LOAD_SCHEDULED_TASK: Load scheduler "s149" with entities [EventEntity, EventEntity], work=[654*, 0*]
360: 0x11AD [0x5B] LOAD_EXT_SCHEDULER: Load scheduler "hlp1" with entities [Unnamed NPC (ID: 17895884/0x011111CC), Unnamed NPC (ID: 17895884/0x011111CC)], work=3500*
361: 0x11BC [0x1C] WAIT(30* ticks)
362: 0x11BF [0x5B] LOAD_EXT_SCHEDULER: Load scheduler "ono5" with entities [Unnamed NPC (ID: 17895885/0x011111CD), Unnamed NPC (ID: 17895885/0x011111CD)], work=3513*
363: 0x11CE [0x1C] WAIT(60* ticks)
364: 0x11D1 [0x52] END_LOAD_SCHEDULER: End scheduler "s149" with entities [EventEntity, EventEntity], work=654*
365: 0x11E0 [0x45] LOAD_SCHEDULED_TASK: Load scheduler "s150" with entities [EventEntity, EventEntity], work=[654*, 0*]
366: 0x11F1 [0x1C] WAIT(120* ticks)
367: 0x11F4 [0x52] END_LOAD_SCHEDULER: End scheduler "s150" with entities [EventEntity, EventEntity], work=654*
368: 0x1203 [0x45] LOAD_SCHEDULED_TASK: Load scheduler "s151" with entities [EventEntity, EventEntity], work=[654*, 0*]
369: 0x1214 [0x1C] WAIT(100* ticks)
370: 0x1217 [0x6B] STOP_AND_IDLE: Unnamed NPC (ID: 17895884/0x011111CC) stops current action and resets to idle (animation="idl0")
371: 0x1220 [0x6B] STOP_AND_IDLE: Unnamed NPC (ID: 17895886/0x011111CE) stops current action and resets to idle (animation="idl0")
372: 0x1229 [0x6B] STOP_AND_IDLE: Unnamed NPC (ID: 17895888/0x011111D0) stops current action and resets to idle (animation="idl0")
373: 0x1232 [0x6B] STOP_AND_IDLE: Unnamed NPC (ID: 17895890/0x011111D2) stops current action and resets to idle (animation="idl0")
374: 0x123B [0x6B] STOP_AND_IDLE: Unnamed NPC (ID: 17895892/0x011111D4) stops current action and resets to idle (animation="idl0")
375: 0x1244 [0x27] REQ_SET(priority=0x10, entity_id=??? (ID: 17895895/0x011111D7), tag_num=0x0A)
376: 0x124B [0x27] REQ_SET(priority=0x10, entity_id=??? (ID: 17895895/0x011111D7), tag_num=0x0B)
377: 0x1252 [0xBA] SET_ENTITY_POSITION(entity_id=Unnamed NPC (ID: 17895886/0x011111CE), pos_x=-84.855*, pos_z=197.348*, pos_y=33.500*, direction=294.0°*)
378: 0x125F [0xBA] SET_ENTITY_POSITION(entity_id=Unnamed NPC (ID: 17895888/0x011111D0), pos_x=-86.303*, pos_z=198.867*, pos_y=33.500*, direction=303.3°*)
379: 0x126C [0x27] REQ_SET(priority=0x10, entity_id=Unnamed NPC (ID: 17895885/0x011111CD), tag_num=0x07)
380: 0x1273 [0x1C] WAIT(20* ticks)
381: 0x1276 [0x52] END_LOAD_SCHEDULER: End scheduler "s151" with entities [EventEntity, EventEntity], work=654*
382: 0x1285 [0x45] LOAD_SCHEDULED_TASK: Load scheduler "s152" with entities [EventEntity, EventEntity], work=[654*, 0*]
383: 0x1296 [0x45] LOAD_SCHEDULED_TASK: Load scheduler "yris" with entities [EventEntity, EventEntity], work=[654*, 0*]
384: 0x12A7 [0x27] REQ_SET(priority=0x05, entity_id=Unnamed NPC (ID: 17895886/0x011111CE), tag_num=0x03)
385: 0x12AE [0x27] REQ_SET(priority=0x05, entity_id=Unnamed NPC (ID: 17895888/0x011111D0), tag_num=0x06)
386: 0x12B5 [0x1C] WAIT(100* ticks)
387: 0x12B8 [0x6B] STOP_AND_IDLE: Unnamed NPC (ID: 17895884/0x011111CC) stops current action and resets to idle (animation="idl0")
388: 0x12C1 [0x6B] STOP_AND_IDLE: Arciela (ID: 17895883/0x011111CB) stops current action and resets to idle (animation="idl0")
389: 0x12CA [0x81] SET_ENTITY_BLINKING(blink_flag=0x01, entity=Arciela (ID: 17895883/0x011111CB))
390: 0x12D0 [0x81] SET_ENTITY_BLINKING(blink_flag=0x01, entity=Unnamed NPC (ID: 17895884/0x011111CC))
391: 0x12D6 [0x7C] Unnamed NPC (ID: 17895884/0x011111CC)->Render.Flags2 |= 0x01
392: 0x12DC [0x81] SET_ENTITY_BLINKING(blink_flag=0x01, entity=Unnamed NPC (ID: 17895885/0x011111CD))
393: 0x12E2 [0x7C] Unnamed NPC (ID: 17895885/0x011111CD)->Render.Flags2 |= 0x01
394: 0x12E8 [0xBA] SET_ENTITY_POSITION(entity_id=Unnamed NPC (ID: 17895885/0x011111CD), pos_x=-66.483*, pos_z=213.722*, pos_y=30.104*, direction=177.3°*)
395: 0x12F5 [0xBA] SET_ENTITY_POSITION(entity_id=Unnamed NPC (ID: 17895884/0x011111CC), pos_x=-68.470*, pos_z=215.587*, pos_y=30.346*, direction=177.3°*)
396: 0x1302 [0xBA] SET_ENTITY_POSITION(entity_id=Unnamed NPC (ID: 17895890/0x011111D2), pos_x=-83.417*, pos_z=211.592*, pos_y=30.783*, direction=300.5°*)
397: 0x130F [0x27] REQ_SET(priority=0x05, entity_id=Unnamed NPC (ID: 17895890/0x011111D2), tag_num=0x04)
398: 0x1316 [0x27] REQ_SET(priority=0x05, entity_id=Unnamed NPC (ID: 17895892/0x011111D4), tag_num=0x03)
399: 0x131D [0x1C] WAIT(20* ticks)
400: 0x1320 [0x52] END_LOAD_SCHEDULER: End scheduler "s152" with entities [EventEntity, EventEntity], work=654*
401: 0x132F [0x45] LOAD_SCHEDULED_TASK: Load scheduler "s153" with entities [EventEntity, EventEntity], work=[654*, 0*]
402: 0x1340 [0x1C] WAIT(60* ticks)
403: 0x1343 [0xBA] SET_ENTITY_POSITION(entity_id=Arciela (ID: 17895883/0x011111CB), pos_x=-58.081*, pos_z=209.047*, pos_y=30.374*, direction=319.6°*)
404: 0x1350 [0x4A] LocalPlayer looks at Unnamed NPC (ID: 17895885/0x011111CD)
405: 0x1359 [0x4A] Arciela (ID: 17895883/0x011111CB) looks at Unnamed NPC (ID: 17895885/0x011111CD)
406: 0x1362 [0x1C] WAIT(60* ticks)
407: 0x1365 [0x81] SET_ENTITY_BLINKING(blink_flag=0x00, entity=Unnamed NPC (ID: 17895885/0x011111CD))
408: 0x136B [0x52] END_LOAD_SCHEDULER: End scheduler "s153" with entities [EventEntity, EventEntity], work=654*
409: 0x137A [0x45] LOAD_SCHEDULED_TASK: Load scheduler "s154" with entities [EventEntity, EventEntity], work=[654*, 0*]
410: 0x138B [0x1C] WAIT(15* ticks)
411: 0x138E [0x4E] SET_ENTITY_HIDE_FLAG: Hide Unnamed NPC (ID: 17895886/0x011111CE)
412: 0x1394 [0x4E] SET_ENTITY_HIDE_FLAG: Hide Unnamed NPC (ID: 17895888/0x011111D0)
413: 0x139A [0x4E] SET_ENTITY_HIDE_FLAG: Hide Unnamed NPC (ID: 17895890/0x011111D2)
414: 0x13A0 [0x4E] SET_ENTITY_HIDE_FLAG: Hide Unnamed NPC (ID: 17895892/0x011111D4)
415: 0x13A6 [0x2B] Unnamed NPC (ID: 17895885/0x011111CD) [7716*]:
    → "<Huff>... Numberless horde, indeed! I hack 'n hack but they keep on comin'!"
416: 0x13AD [0x23] WAIT_FOR_DIALOG_INTERACTION
417: 0x13AE [0x52] END_LOAD_SCHEDULER: End scheduler "s154" with entities [EventEntity, EventEntity], work=654*
418: 0x13BD [0x45] LOAD_SCHEDULED_TASK: Load scheduler "s155" with entities [EventEntity, EventEntity], work=[654*, 0*]
419: 0x13CE [0x27] REQ_SET(priority=0x05, entity_id=Unnamed NPC (ID: 17895885/0x011111CD), tag_num=0x03)
420: 0x13D5 [0x1C] WAIT(15* ticks)
421: 0x13D8 [0x27] REQ_SET(priority=0x05, entity_id=Unnamed NPC (ID: 17895884/0x011111CC), tag_num=0x05)
422: 0x13DF [0x2B] Unnamed NPC (ID: 17895885/0x011111CD) [7717*]:
    → "You there! The rug rat! We gotta get outta here--follow me!"
423: 0x13E6 [0x1C] WAIT(90* ticks)
424: 0x13E9 [0x52] END_LOAD_SCHEDULER: End scheduler "s155" with entities [EventEntity, EventEntity], work=654*
425: 0x13F8 [0x45] LOAD_SCHEDULED_TASK: Load scheduler "s156" with entities [EventEntity, EventEntity], work=[654*, 0*]
426: 0x1409 [0x1C] WAIT(120* ticks)
427: 0x140C [0x52] END_LOAD_SCHEDULER: End scheduler "s156" with entities [EventEntity, EventEntity], work=654*
428: 0x141B [0x02] IF !(LocalPlayer->Race == 5*) GOTO 0x1437
429: 0x1423 [0x45] LOAD_SCHEDULED_TASK: Load scheduler "s158" with entities [EventEntity, EventEntity], work=[654*, 0*]
430: 0x1434 [0x01] GOTO 0x1464
431: 0x1437 [0x02] IF !(LocalPlayer->Race == 6*) GOTO 0x1453
432: 0x143F [0x45] LOAD_SCHEDULED_TASK: Load scheduler "s158" with entities [EventEntity, EventEntity], work=[654*, 0*]
433: 0x1450 [0x01] GOTO 0x1464
434: 0x1453 [0x45] LOAD_SCHEDULED_TASK: Load scheduler "s157" with entities [EventEntity, EventEntity], work=[654*, 0*]

SUBROUTINE_1464:
435: 0x1464 [0x1C] WAIT(20* ticks)
436: 0x1467 [0x7A] VM_CONTROL: Reset VM for Unnamed NPC (ID: 17895884/0x011111CC)
437: 0x146D [0x7A] VM_CONTROL: Reset VM for Unnamed NPC (ID: 17895885/0x011111CD)
438: 0x1473 [0x59] UPDATE_ENTITY_DATA: Arciela (ID: 17895883/0x011111CB)->Render.Flags0 &= ~0x200000
439: 0x147A [0xBA] SET_ENTITY_POSITION(entity_id=Unnamed NPC (ID: 17895885/0x011111CD), pos_x=-42.143*, pos_z=219.041*, pos_y=30.210*, direction=339.8°*)
440: 0x1487 [0xBA] SET_ENTITY_POSITION(entity_id=Unnamed NPC (ID: 17895884/0x011111CC), pos_x=-45.572*, pos_z=216.269*, pos_y=30.409*, direction=339.8°*)
441: 0x1494 [0xBA] SET_ENTITY_POSITION(entity_id=Arciela (ID: 17895883/0x011111CB), pos_x=-53.221*, pos_z=212.569*, pos_y=30.302*, direction=177.4°*)
442: 0x14A1 [0x1C] WAIT(40* ticks)
443: 0x14A4 [0x27] REQ_SET(priority=0x05, entity_id=Unnamed NPC (ID: 17895885/0x011111CD), tag_num=0x04)
444: 0x14AB [0x27] REQ_SET(priority=0x05, entity_id=Unnamed NPC (ID: 17895884/0x011111CC), tag_num=0x06)
445: 0x14B2 [0x27] REQ_SET(priority=0x05, entity_id=Arciela (ID: 17895883/0x011111CB), tag_num=0x05)
446: 0x14B9 [0x27] REQ_SET(priority=0x05, entity_id=LocalPlayer, tag_num=0x06)
447: 0x14C0 [0x1C] WAIT(90* ticks)
448: 0x14C3 [0x5D] SET_MUSIC_VOLUME(volume=0*, fade_time=120*)
449: 0x14C8 [0x45] LOAD_SCHEDULED_TASK: Load scheduler "fdo1" with entities [LocalPlayer, LocalPlayer], work=[200*, 0*]
450: 0x14D9 [0x55] WAIT_LOAD_SCHEDULER: Wait for scheduler "fdo1" with entities [LocalPlayer, LocalPlayer], work=200*
451: 0x14E8 [0x52] END_LOAD_SCHEDULER: End scheduler "s157" with entities [EventEntity, EventEntity], work=654*
452: 0x14F7 [0x52] END_LOAD_SCHEDULER: End scheduler "s158" with entities [EventEntity, EventEntity], work=654*
453: 0x1506 [0x29] REQ_SET_WAIT(priority=0x10, entity_id=Unnamed NPC (ID: 17895885/0x011111CD), tag_num=0x08)
454: 0x150D [0x80] LOAD_WAIT(entity=Unnamed NPC (ID: 17895885/0x011111CD))
455: 0x1512 [0x5C] MUSIC_CONTROL: Set Idle (Day) music to song 0*
456: 0x1516 [0x5C] MUSIC_CONTROL: Set Idle (Night) music to song 0*
457: 0x151A [0x9A] WAIT_MUSIC_SERVER()
458: 0x151B [0x1C] WAIT(15* ticks)
459: 0x151E [0xAB] EventEntity->DespawnValue = 0* // Set despawn value
460: 0x1522 [0x1C] WAIT(1* ticks)
461: 0x1525 [0x46] CAMERA_CONTROL: Restore default settings
462: 0x1527 [0x45] LOAD_SCHEDULED_TASK: Load scheduler "fdi2" with entities [LocalPlayer, LocalPlayer], work=[200*, 0*]
463: 0x1538 [0x21] END_EVENT
464: 0x1539 [0x00] END_REQSTACK()
```

### Event 9

#### Metadata

| Field        | Value      |
|--------------|------------|
| Entrypoint   | 0x153A     |
| Data Size    | 2443 bytes |
| Instructions | 270        |

```
      00 01 02 03 04 05 06 07  08 09 0A 0B 0C 0D 0E 0F
      -- -- -- -- -- -- -- --  -- -- -- -- -- -- -- --
1530:                                42 5D 01 80 13 80            B]....
1540: 45 00 80 F0 FF FF 7F F0  FF FF 7F 66 64 6F 31 01  E..........fdo1.
1550: 80 55 00 80 F0 FF FF 7F  F0 FF FF 7F 66 64 6F 31  .U..........fdo1
1560: 46 01 38 02 80 2F 00 CB  11 11 01 2F 00 CC 11 11  F.8../...../....
1570: 01 2F 00 CD 11 11 01 4E  00 CB 11 11 01 4E 00 CC  ./.....N.....N..
1580: 11 11 01 4E 00 CD 11 11  01 4E 00 F0 FF FF 7F 92  ...N.....N......
1590: 01 CB 11 11 01 92 01 CC  11 11 01 92 01 CD 11 11  ................
15A0: 01 94 01 CB 11 11 01 94  01 CC 11 11 01 94 01 CD  ................
15B0: 11 11 01 94 01 F0 FF FF  7F BA CB 11 11 01 FB 80  ................
15C0: FC 80 5B 80 FD 80 BA CC  11 11 01 FE 80 FF 80 5B  ..[............[
15D0: 80 00 81 BA CD 11 11 01  01 81 02 81 5B 80 03 81  ............[...
15E0: BA F0 FF FF 7F 04 81 05  81 5B 80 FD 80 80 CB 11  .........[......
15F0: 11 01 80 CC 11 11 01 80  CD 11 11 01 80 F0 FF FF  ................
1600: 7F 4A CC 11 11 01 F0 FF  FF 7F 4A CB 11 11 01 CD  .J........J.....
1610: 11 11 01 7B CD 11 11 01  1C 10 80 5C 00 06 81 5C  ...{.......\...\
1620: 01 06 81 9A 27 10 CD 11  11 01 0A 45 11 80 F8 FF  ....'......E....
1630: FF 7F F8 FF FF 7F 73 31  31 34 01 80 1C 12 80 45  ......s114.....E
1640: 00 80 F0 FF FF 7F F0 FF  FF 7F 66 64 69 30 01 80  ..........fdi0..
1650: 1C 20 80 4A F0 FF FF 7F  CD 11 11 01 2B CD 11 11  . .J........+...
1660: 01 07 81 23 2A 10 CD 11  11 01 52 11 80 F8 FF FF  ...#*.....R.....
1670: 7F F8 FF FF 7F 73 31 31  34 45 11 80 F8 FF FF 7F  .....s114E......
1680: F8 FF FF 7F 73 31 31 35  01 80 5B 08 81 CD 11 11  ....s115..[.....
