# 17895898

## Common Data

| Field            | Value               |
|------------------|---------------------|
| Zone             | Woh Gates (ID: 273) |
| Block Size       | 80 bytes            |
| Total Events     | 2                   |
| References Count | 3                   |

## List of Events

| Event ID              | Entrypoint   |   Size |   Instructions |
|-----------------------|--------------|--------|----------------|
| [65535](#event-65535) | 0x0000       |      1 |              1 |
| [11](#event-11)       | 0x0001       |     40 |             12 |

## DAT References (imed_data)

|   Index | Hex Value   |   Dec Value |
|---------|-------------|-------------|
|       0 | 0x001E      |          30 |
|       1 | 0x0029      |          41 |
|       2 | 0x1EA5      |        7845 |

## String References

- **7845**: You have excavated a rusty metallic rod from the thick slab of ice.

## Events

### Event 65535

#### Metadata

| Field        | Value   |
|--------------|---------|
| Entrypoint   | 0x0000  |
| Data Size    | 1 bytes |
| Instructions | 1       |

```
      00 01 02 03 04 05 06 07  08 09 0A 0B 0C 0D 0E 0F
      -- -- -- -- -- -- -- --  -- -- -- -- -- -- -- --
0000: 00                                                .               
```

#### Opcodes

```
  0: 0x0000 [0x00] END_REQSTACK()
```

### Event 11

#### Metadata

| Field        | Value    |
|--------------|----------|
| Entrypoint   | 0x0001   |
| Data Size    | 40 bytes |
| Instructions | 12       |

```
      00 01 02 03 04 05 06 07  08 09 0A 0B 0C 0D 0E 0F
      -- -- -- -- -- -- -- --  -- -- -- -- -- -- -- --
0000:    42 4A F0 FF FF 7F F8  FF FF 7F 6F 76 F0 FF FF   BJ........ov...
0010: 7F 1C 00 80 6E F0 FF FF  7F 01 80 99 F0 FF FF 7F  ....n...........
0020: 1C 00 80 48 02 80 23 21  00                       ...H..#!.       
```

#### Opcodes

```
  0: 0x0001 [0x42] SET_CLI_EVENT_CANCEL_DATA()
  1: 0x0002 [0x4A] LocalPlayer looks at EventEntity
  2: 0x000B [0x6F] WAIT_FRAME_DELAY: Yield until WaitTime reaches zero
  3: 0x000C [0x76] CHECK_ENTITY_RENDER_FLAGS: Wait until LocalPlayer Render.Flags0 and Render.Flags3 conditions are met
  4: 0x0011 [0x1C] WAIT(30* ticks)
  5: 0x0014 [0x6E] LocalPlayer uses emote 41*
  6: 0x001B [0x99] Wait for LocalPlayer animation to complete
  7: 0x0020 [0x1C] WAIT(30* ticks)
  8: 0x0023 [0x48] [System] [7845*]:
    → "You have excavated a rusty metallic rod from the thick slab of ice."
  9: 0x0026 [0x23] WAIT_FOR_DIALOG_INTERACTION
 10: 0x0027 [0x21] END_EVENT
 11: 0x0028 [0x00] END_REQSTACK()
```
