# 17895895

## Common Data

| Field            | Value               |
|------------------|---------------------|
| Zone             | Woh Gates (ID: 273) |
| Block Size       | 224 bytes           |
| Total Events     | 16                  |
| References Count | 5                   |

## List of Events

| Event ID                   | Entrypoint   |   Size |   Instructions |
|----------------------------|--------------|--------|----------------|
| [65535](#event-65535)      | 0x0000       |      1 |              1 |
| [65535.1](#event-655351)   | 0x0001       |      4 |              2 |
| [7](#event-7)              | 0x0005       |      1 |              1 |
| [8](#event-8)              | 0x0006       |      1 |              1 |
| [65535.2](#event-655352)   | 0x0007       |     10 |              2 |
| [65535.3](#event-655353)   | 0x0011       |     10 |              2 |
| [65535.4](#event-655354)   | 0x001B       |     10 |              2 |
| [65535.5](#event-655355)   | 0x0025       |     10 |              2 |
| [65535.6](#event-655356)   | 0x002F       |     10 |              2 |
| [65535.7](#event-655357)   | 0x0039       |     10 |              2 |
| [65535.8](#event-655358)   | 0x0043       |     10 |              2 |
| [65535.9](#event-655359)   | 0x004D       |     10 |              2 |
| [65535.10](#event-6553510) | 0x0057       |     10 |              2 |
| [65535.11](#event-6553511) | 0x0061       |     10 |              2 |
| [65535.12](#event-6553512) | 0x006B       |     10 |              2 |
| [65535.13](#event-6553513) | 0x0075       |      5 |              2 |

## DAT References (imed_data)

|   Index | Hex Value   |   Dec Value |
|---------|-------------|-------------|
|       0 | 0x0000      |           0 |
|       1 | 0x0001      |           1 |
|       2 | 0x007F      |         127 |
|       3 | 0x003C      |          60 |
|       4 | 0x020B      |         523 |

## Events

### Event 65535

#### Metadata

| Field        | Value   |
|--------------|---------|
| Entrypoint   | 0x0000  |
| Data Size    | 1 bytes |
| Instructions | 1       |

```
      00 01 02 03 04 05 06 07  08 09 0A 0B 0C 0D 0E 0F
      -- -- -- -- -- -- -- --  -- -- -- -- -- -- -- --
0000: 00                                                .               
```

#### Opcodes

```
  0: 0x0000 [0x00] END_REQSTACK()
```

### Event 65535.1

#### Metadata

| Field        | Value   |
|--------------|---------|
| Entrypoint   | 0x0001  |
| Data Size    | 4 bytes |
| Instructions | 2       |

```
      00 01 02 03 04 05 06 07  08 09 0A 0B 0C 0D 0E 0F
      -- -- -- -- -- -- -- --  -- -- -- -- -- -- -- --
0000:    1C 02 10 00                                     ....           
```

#### Opcodes

```
  0: 0x0001 [0x1C] WAIT(Work_Zone[2] ticks)
  1: 0x0004 [0x00] END_REQSTACK()
```

### Event 7

#### Metadata

| Field        | Value   |
|--------------|---------|
| Entrypoint   | 0x0005  |
| Data Size    | 1 bytes |
| Instructions | 1       |

```
      00 01 02 03 04 05 06 07  08 09 0A 0B 0C 0D 0E 0F
      -- -- -- -- -- -- -- --  -- -- -- -- -- -- -- --
0000:                00                                      .          
```

#### Opcodes

```
  0: 0x0005 [0x00] END_REQSTACK()
```

### Event 8

#### Metadata

| Field        | Value   |
|--------------|---------|
| Entrypoint   | 0x0006  |
| Data Size    | 1 bytes |
| Instructions | 1       |

```
      00 01 02 03 04 05 06 07  08 09 0A 0B 0C 0D 0E 0F
      -- -- -- -- -- -- -- --  -- -- -- -- -- -- -- --
0000:                   00                                    .         
```

#### Opcodes

```
  0: 0x0006 [0x00] END_REQSTACK()
```

### Event 65535.2

#### Metadata

| Field        | Value    |
|--------------|----------|
| Entrypoint   | 0x0007   |
| Data Size    | 10 bytes |
| Instructions | 2        |

```
      00 01 02 03 04 05 06 07  08 09 0A 0B 0C 0D 0E 0F
      -- -- -- -- -- -- -- --  -- -- -- -- -- -- -- --
0000:                      6C  CC 11 11 01 00 80 01 80         l........
0010: 00                                                .               
```

#### Opcodes

```
  0: 0x0007 [0x6C] FADE_ENTITY_COLOR(entity_id=Unnamed NPC (ID: 17895884/0x011111CC), end_alpha=0*, fade_time=1*)
  1: 0x0010 [0x00] END_REQSTACK()
```

### Event 65535.3

#### Metadata

| Field        | Value    |
|--------------|----------|
| Entrypoint   | 0x0011   |
| Data Size    | 10 bytes |
| Instructions | 2        |

```
      00 01 02 03 04 05 06 07  08 09 0A 0B 0C 0D 0E 0F
      -- -- -- -- -- -- -- --  -- -- -- -- -- -- -- --
0010:    6C CE 11 11 01 00 80  01 80 00                  l.........     
```

#### Opcodes

```
  0: 0x0011 [0x6C] FADE_ENTITY_COLOR(entity_id=Unnamed NPC (ID: 17895886/0x011111CE), end_alpha=0*, fade_time=1*)
  1: 0x001A [0x00] END_REQSTACK()
```

### Event 65535.4

#### Metadata

| Field        | Value    |
|--------------|----------|
| Entrypoint   | 0x001B   |
| Data Size    | 10 bytes |
| Instructions | 2        |

```
      00 01 02 03 04 05 06 07  08 09 0A 0B 0C 0D 0E 0F
      -- -- -- -- -- -- -- --  -- -- -- -- -- -- -- --
0010:                                   6C D0 11 11 01             l....
0020: 00 80 01 80 00                                    .....           
```

#### Opcodes

```
  0: 0x001B [0x6C] FADE_ENTITY_COLOR(entity_id=Unnamed NPC (ID: 17895888/0x011111D0), end_alpha=0*, fade_time=1*)
  1: 0x0024 [0x00] END_REQSTACK()
```

### Event 65535.5

#### Metadata

| Field        | Value    |
|--------------|----------|
| Entrypoint   | 0x0025   |
| Data Size    | 10 bytes |
| Instructions | 2        |

```
      00 01 02 03 04 05 06 07  08 09 0A 0B 0C 0D 0E 0F
      -- -- -- -- -- -- -- --  -- -- -- -- -- -- -- --
0020:                6C D2 11  11 01 00 80 01 80 00          l......... 
```

#### Opcodes

```
  0: 0x0025 [0x6C] FADE_ENTITY_COLOR(entity_id=Unnamed NPC (ID: 17895890/0x011111D2), end_alpha=0*, fade_time=1*)
  1: 0x002E [0x00] END_REQSTACK()
```

### Event 65535.6

#### Metadata

| Field        | Value    |
|--------------|----------|
| Entrypoint   | 0x002F   |
| Data Size    | 10 bytes |
| Instructions | 2        |

```
      00 01 02 03 04 05 06 07  08 09 0A 0B 0C 0D 0E 0F
      -- -- -- -- -- -- -- --  -- -- -- -- -- -- -- --
0020:                                               6C                 l
0030: CC 11 11 01 02 80 01 80  00                       .........       
```

#### Opcodes

```
  0: 0x002F [0x6C] FADE_ENTITY_COLOR(entity_id=Unnamed NPC (ID: 17895884/0x011111CC), end_alpha=127*, fade_time=1*)
  1: 0x0038 [0x00] END_REQSTACK()
```

### Event 65535.7

#### Metadata

| Field        | Value    |
|--------------|----------|
| Entrypoint   | 0x0039   |
| Data Size    | 10 bytes |
| Instructions | 2        |

```
      00 01 02 03 04 05 06 07  08 09 0A 0B 0C 0D 0E 0F
      -- -- -- -- -- -- -- --  -- -- -- -- -- -- -- --
0030:                             6C CE 11 11 01 02 80           l......
0040: 01 80 00                                          ...             
```

#### Opcodes

```
  0: 0x0039 [0x6C] FADE_ENTITY_COLOR(entity_id=Unnamed NPC (ID: 17895886/0x011111CE), end_alpha=127*, fade_time=1*)
  1: 0x0042 [0x00] END_REQSTACK()
```

### Event 65535.8

#### Metadata

| Field        | Value    |
|--------------|----------|
| Entrypoint   | 0x0043   |
| Data Size    | 10 bytes |
| Instructions | 2        |

```
      00 01 02 03 04 05 06 07  08 09 0A 0B 0C 0D 0E 0F
      -- -- -- -- -- -- -- --  -- -- -- -- -- -- -- --
0040:          6C D0 11 11 01  02 80 01 80 00              l.........   
```

#### Opcodes

```
  0: 0x0043 [0x6C] FADE_ENTITY_COLOR(entity_id=Unnamed NPC (ID: 17895888/0x011111D0), end_alpha=127*, fade_time=1*)
  1: 0x004C [0x00] END_REQSTACK()
```

### Event 65535.9

#### Metadata

| Field        | Value    |
|--------------|----------|
| Entrypoint   | 0x004D   |
| Data Size    | 10 bytes |
| Instructions | 2        |

```
      00 01 02 03 04 05 06 07  08 09 0A 0B 0C 0D 0E 0F
      -- -- -- -- -- -- -- --  -- -- -- -- -- -- -- --
0040:                                         6C D2 11               l..
0050: 11 01 02 80 01 80 00                              .......         
```

#### Opcodes

```
  0: 0x004D [0x6C] FADE_ENTITY_COLOR(entity_id=Unnamed NPC (ID: 17895890/0x011111D2), end_alpha=127*, fade_time=1*)
  1: 0x0056 [0x00] END_REQSTACK()
```

### Event 65535.10

#### Metadata

| Field        | Value    |
|--------------|----------|
| Entrypoint   | 0x0057   |
| Data Size    | 10 bytes |
| Instructions | 2        |

```
      00 01 02 03 04 05 06 07  08 09 0A 0B 0C 0D 0E 0F
      -- -- -- -- -- -- -- --  -- -- -- -- -- -- -- --
0050:                      6C  CE 11 11 01 00 80 03 80         l........
0060: 00                                                .               
```

#### Opcodes

```
  0: 0x0057 [0x6C] FADE_ENTITY_COLOR(entity_id=Unnamed NPC (ID: 17895886/0x011111CE), end_alpha=0*, fade_time=60*)
  1: 0x0060 [0x00] END_REQSTACK()
```

### Event 65535.11

#### Metadata

| Field        | Value    |
|--------------|----------|
| Entrypoint   | 0x0061   |
| Data Size    | 10 bytes |
| Instructions | 2        |

```
      00 01 02 03 04 05 06 07  08 09 0A 0B 0C 0D 0E 0F
      -- -- -- -- -- -- -- --  -- -- -- -- -- -- -- --
0060:    6C D0 11 11 01 00 80  03 80 00                  l.........     
```

#### Opcodes

```
  0: 0x0061 [0x6C] FADE_ENTITY_COLOR(entity_id=Unnamed NPC (ID: 17895888/0x011111D0), end_alpha=0*, fade_time=60*)
  1: 0x006A [0x00] END_REQSTACK()
```

### Event 65535.12

#### Metadata

| Field        | Value    |
|--------------|----------|
| Entrypoint   | 0x006B   |
| Data Size    | 10 bytes |
| Instructions | 2        |

```
      00 01 02 03 04 05 06 07  08 09 0A 0B 0C 0D 0E 0F
      -- -- -- -- -- -- -- --  -- -- -- -- -- -- -- --
0060:                                   6C D2 11 11 01             l....
0070: 00 80 03 80 00                                    .....           
```

#### Opcodes

```
  0: 0x006B [0x6C] FADE_ENTITY_COLOR(entity_id=Unnamed NPC (ID: 17895890/0x011111D2), end_alpha=0*, fade_time=60*)
  1: 0x0074 [0x00] END_REQSTACK()
```

### Event 65535.13

#### Metadata

| Field        | Value   |
|--------------|---------|
| Entrypoint   | 0x0075  |
| Data Size    | 5 bytes |
| Instructions | 2       |

```
      00 01 02 03 04 05 06 07  08 09 0A 0B 0C 0D 0E 0F
      -- -- -- -- -- -- -- --  -- -- -- -- -- -- -- --
0070:                B6 00 04  80 00                         .....      
```

#### Opcodes

```
  0: 0x0075 [0xB6] ENTITY_APPEARANCE_HANDLER(case=Hair style, value=523*)
  1: 0x0079 [0x00] END_REQSTACK()
```
