# 17895886

## Common Data

| Field            | Value               |
|------------------|---------------------|
| Zone             | Woh Gates (ID: 273) |
| Block Size       | 140 bytes           |
| Total Events     | 5                   |
| References Count | 13                  |

## List of Events

| Event ID                 | Entrypoint   |   Size |   Instructions |
|--------------------------|--------------|--------|----------------|
| [65535](#event-65535)    | 0x0000       |      1 |              1 |
| [8](#event-8)            | 0x0001       |      5 |              2 |
| [65535.1](#event-655351) | 0x0006       |     14 |              4 |
| [65535.2](#event-655352) | 0x0014       |     24 |              6 |
| [65535.3](#event-655353) | 0x002C       |      5 |              2 |

## DAT References (imed_data)

|   Index | Hex Value   |   Dec Value |
|---------|-------------|-------------|
|       0 | 0x0AB7      |        2743 |
|       1 | 0x0028      |          40 |
|       2 | 0xFFFEE10C  |  4294893836 |
|       3 | 0x37B5D     |      228189 |
|       4 | 0x7756      |       30550 |
|       5 | 0x0019      |          25 |
|       6 | 0xFFFEC306  |  4294886150 |
|       7 | 0x31018     |      200728 |
|       8 | 0x733C      |       29500 |
|       9 | 0xFFFEE8EF  |  4294895855 |
|      10 | 0x34189     |      213385 |
|      11 | 0x763E      |       30270 |
|      12 | 0x0034      |          52 |

## Events

### Event 65535

#### Metadata

| Field        | Value   |
|--------------|---------|
| Entrypoint   | 0x0000  |
| Data Size    | 1 bytes |
| Instructions | 1       |

```
      00 01 02 03 04 05 06 07  08 09 0A 0B 0C 0D 0E 0F
      -- -- -- -- -- -- -- --  -- -- -- -- -- -- -- --
0000: 00                                                .               
```

#### Opcodes

```
  0: 0x0000 [0x00] END_REQSTACK()
```

### Event 8

#### Metadata

| Field        | Value   |
|--------------|---------|
| Entrypoint   | 0x0001  |
| Data Size    | 5 bytes |
| Instructions | 2       |

```
      00 01 02 03 04 05 06 07  08 09 0A 0B 0C 0D 0E 0F
      -- -- -- -- -- -- -- --  -- -- -- -- -- -- -- --
0000:    B6 00 00 80 00                                  .....          
```

#### Opcodes

```
  0: 0x0001 [0xB6] ENTITY_APPEARANCE_HANDLER(case=Hair style, value=2743*)
  1: 0x0005 [0x00] END_REQSTACK()
```

### Event 65535.1

#### Metadata

| Field        | Value    |
|--------------|----------|
| Entrypoint   | 0x0006   |
| Data Size    | 14 bytes |
| Instructions | 4        |

```
      00 01 02 03 04 05 06 07  08 09 0A 0B 0C 0D 0E 0F
      -- -- -- -- -- -- -- --  -- -- -- -- -- -- -- --
0000:                   32 01  80 5A 00 02 80 03 80 04        2..Z......
0010: 80 5A 01 00                                       .Z..            
```

#### Opcodes

```
  0: 0x0006 [0x32] ExtData[1]->MainSpeed = 40* * 0.1
  1: 0x0009 [0x5A] UPDATE_EVENT_POSITION: Set EventEntity MovePosition to X=-73.460*, Z=228.189*, Y=30.550*
  2: 0x0011 [0x5A] UPDATE_EVENT_POSITION: Move EventEntity incrementally towards MovePosition
  3: 0x0013 [0x00] END_REQSTACK()
```

### Event 65535.2

#### Metadata

| Field        | Value    |
|--------------|----------|
| Entrypoint   | 0x0014   |
| Data Size    | 24 bytes |
| Instructions | 6        |

```
      00 01 02 03 04 05 06 07  08 09 0A 0B 0C 0D 0E 0F
      -- -- -- -- -- -- -- --  -- -- -- -- -- -- -- --
0010:             32 05 80 5A  00 06 80 07 80 08 80 5A      2..Z.......Z
0020: 01 1F 00 09 80 0A 80 0B  80 1F 01 00              ............    
```

#### Opcodes

```
  0: 0x0014 [0x32] ExtData[1]->MainSpeed = 25* * 0.1
  1: 0x0017 [0x5A] UPDATE_EVENT_POSITION: Set EventEntity MovePosition to X=-81.146*, Z=200.728*, Y=29.500*
  2: 0x001F [0x5A] UPDATE_EVENT_POSITION: Move EventEntity incrementally towards MovePosition
  3: 0x0021 [0x1F] MOVE_ENTITY: EventEntity moves to X=-71.441*, Z=213.385*, Y=30.270*
  4: 0x0029 [0x1F] MOVE_ENTITY: Update entity position (mode=1)
  5: 0x002B [0x00] END_REQSTACK()
```

### Event 65535.3

#### Metadata

| Field        | Value   |
|--------------|---------|
| Entrypoint   | 0x002C  |
| Data Size    | 5 bytes |
| Instructions | 2       |

```
      00 01 02 03 04 05 06 07  08 09 0A 0B 0C 0D 0E 0F
      -- -- -- -- -- -- -- --  -- -- -- -- -- -- -- --
0020:                                      B6 00 0C 80              ....
0030: 00                                                .               
```

#### Opcodes

```
  0: 0x002C [0xB6] ENTITY_APPEARANCE_HANDLER(case=Hair style, value=52*)
  1: 0x0030 [0x00] END_REQSTACK()
```
