# 17895885

## Common Data

| Field            | Value               |
|------------------|---------------------|
| Zone             | Woh Gates (ID: 273) |
| Block Size       | 352 bytes           |
| Total Events     | 13                  |
| References Count | 19                  |

## List of Events

| Event ID                   | Entrypoint   |   Size |   Instructions |
|----------------------------|--------------|--------|----------------|
| [65535](#event-65535)      | 0x0000       |      1 |              1 |
| [8](#event-8)              | 0x0001       |      5 |              2 |
| [65535.1](#event-655351)   | 0x0006       |     29 |              4 |
| [65535.2](#event-655352)   | 0x0023       |     34 |              8 |
| [65535.3](#event-655353)   | 0x0045       |     14 |              4 |
| [9](#event-9)              | 0x0053       |     32 |              5 |
| [65535.4](#event-655354)   | 0x0073       |     29 |              4 |
| [65535.5](#event-655355)   | 0x0090       |      4 |              2 |
| [65535.6](#event-655356)   | 0x0094       |      2 |              2 |
| [65535.7](#event-655357)   | 0x0096       |     25 |              3 |
| [65535.8](#event-655358)   | 0x00AF       |     25 |              7 |
| [65535.9](#event-655359)   | 0x00C8       |      3 |              2 |
| [65535.10](#event-6553510) | 0x00CB       |      3 |              2 |

## DAT References (imed_data)

|   Index | Hex Value   |   Dec Value |
|---------|-------------|-------------|
|       0 | 0x0A92      |        2706 |
|       1 | 0x0AB5      |        2741 |
|       2 | 0x0028      |          40 |
|       3 | 0xFFFF189F  |  4294908063 |
|       4 | 0x3379D     |      210845 |
|       5 | 0x7622      |       30242 |
|       6 | 0xFFFF2D5E  |  4294913374 |
|       7 | 0x33912     |      211218 |
|       8 | 0x7612      |       30226 |
|       9 | 0xFFFF3FC1  |  4294918081 |
|      10 | 0x343D4     |      213972 |
|      11 | 0x7723      |       30499 |
|      12 | 0xFFFF825C  |  4294935132 |
|      13 | 0x35DEB     |      220651 |
|      14 | 0x0002      |           2 |
|      15 | 0x0034      |          52 |
|      16 | 0x000D      |          13 |
|      17 | 0x2FC56     |      195670 |
|      18 | 0x470AA     |      290986 |

## Events

### Event 65535

#### Metadata

| Field        | Value   |
|--------------|---------|
| Entrypoint   | 0x0000  |
| Data Size    | 1 bytes |
| Instructions | 1       |

```
      00 01 02 03 04 05 06 07  08 09 0A 0B 0C 0D 0E 0F
      -- -- -- -- -- -- -- --  -- -- -- -- -- -- -- --
0000: 00                                                .               
```

#### Opcodes

```
  0: 0x0000 [0x00] END_REQSTACK()
```

### Event 8

#### Metadata

| Field        | Value   |
|--------------|---------|
| Entrypoint   | 0x0001  |
| Data Size    | 5 bytes |
| Instructions | 2       |

```
      00 01 02 03 04 05 06 07  08 09 0A 0B 0C 0D 0E 0F
      -- -- -- -- -- -- -- --  -- -- -- -- -- -- -- --
0000:    B6 00 00 80 00                                  .....          
```

#### Opcodes

```
  0: 0x0001 [0xB6] ENTITY_APPEARANCE_HANDLER(case=Hair style, value=2706*)
  1: 0x0005 [0x00] END_REQSTACK()
```

### Event 65535.1

#### Metadata

| Field        | Value    |
|--------------|----------|
| Entrypoint   | 0x0006   |
| Data Size    | 29 bytes |
| Instructions | 4        |

```
      00 01 02 03 04 05 06 07  08 09 0A 0B 0C 0D 0E 0F
      -- -- -- -- -- -- -- --  -- -- -- -- -- -- -- --
0000:                   B4 13  00 00 4E 6F 62 6C 65 40        ....Noble@
0010: 57 61 72 72 69 6F 72 00  00 00 B5 00 00 00 B6 00  Warrior.........
0020: 01 80 00                                          ...             
```

#### Opcodes

```
  0: 0x0006 [0xB4] UI_WINDOW_STRING_HANDLER(case=0x13 - Copy string and replace @ with space, work_offset=ExtData[1]->WorkLocal[0], string="Noble@Warrior")
  1: 0x001A [0xB5] SET_EVENT_ENTITY_NAME: Change EventEntity name to ExtData[1]->WorkLocal[0]
  2: 0x001E [0xB6] ENTITY_APPEARANCE_HANDLER(case=Hair style, value=2741*)
  3: 0x0022 [0x00] END_REQSTACK()
```

### Event 65535.2

#### Metadata

| Field        | Value    |
|--------------|----------|
| Entrypoint   | 0x0023   |
| Data Size    | 34 bytes |
| Instructions | 8        |

```
      00 01 02 03 04 05 06 07  08 09 0A 0B 0C 0D 0E 0F
      -- -- -- -- -- -- -- --  -- -- -- -- -- -- -- --
0020:          32 02 80 1F 00  03 80 04 80 05 80 1F 01     2............
0030: 1F 00 06 80 07 80 08 80  1F 01 1F 00 09 80 0A 80  ................
0040: 0B 80 1F 01 00                                    .....           
```

#### Opcodes

```
  0: 0x0023 [0x32] ExtData[1]->MainSpeed = 40* * 0.1
  1: 0x0026 [0x1F] MOVE_ENTITY: EventEntity moves to X=-59.233*, Z=210.845*, Y=30.242*
  2: 0x002E [0x1F] MOVE_ENTITY: Update entity position (mode=1)
  3: 0x0030 [0x1F] MOVE_ENTITY: EventEntity moves to X=-53.922*, Z=211.218*, Y=30.226*
  4: 0x0038 [0x1F] MOVE_ENTITY: Update entity position (mode=1)
  5: 0x003A [0x1F] MOVE_ENTITY: EventEntity moves to X=-49.215*, Z=213.972*, Y=30.499*
  6: 0x0042 [0x1F] MOVE_ENTITY: Update entity position (mode=1)
  7: 0x0044 [0x00] END_REQSTACK()
```

### Event 65535.3

#### Metadata

| Field        | Value    |
|--------------|----------|
| Entrypoint   | 0x0045   |
| Data Size    | 14 bytes |
| Instructions | 4        |

```
      00 01 02 03 04 05 06 07  08 09 0A 0B 0C 0D 0E 0F
      -- -- -- -- -- -- -- --  -- -- -- -- -- -- -- --
0040:                32 02 80  1F 00 0C 80 0D 80 0B 80       2..........
0050: 1F 01 00                                          ...             
```

#### Opcodes

```
  0: 0x0045 [0x32] ExtData[1]->MainSpeed = 40* * 0.1
  1: 0x0048 [0x1F] MOVE_ENTITY: EventEntity moves to X=-32.164*, Z=220.651*, Y=30.499*
  2: 0x0050 [0x1F] MOVE_ENTITY: Update entity position (mode=1)
  3: 0x0052 [0x00] END_REQSTACK()
```

### Event 9

#### Metadata

| Field        | Value    |
|--------------|----------|
| Entrypoint   | 0x0053   |
| Data Size    | 32 bytes |
| Instructions | 5        |

```
      00 01 02 03 04 05 06 07  08 09 0A 0B 0C 0D 0E 0F
      -- -- -- -- -- -- -- --  -- -- -- -- -- -- -- --
0050:          B4 13 00 00 4E  6F 62 6C 65 40 57 61 72     ....Noble@War
0060: 72 69 6F 72 00 00 00 B5  00 00 00 B6 00 01 80 95  rior............
0070: 0E 80 00                                          ...             
```

#### Opcodes

```
  0: 0x0053 [0xB4] UI_WINDOW_STRING_HANDLER(case=0x13 - Copy string and replace @ with space, work_offset=ExtData[1]->WorkLocal[0], string="Noble@Warrior")
  1: 0x0067 [0xB5] SET_EVENT_ENTITY_NAME: Change EventEntity name to ExtData[1]->WorkLocal[0]
  2: 0x006B [0xB6] ENTITY_APPEARANCE_HANDLER(case=Hair style, value=2741*)
  3: 0x006F [0x95] SETUP_EVENT_NPC: Prepare NPC for event (Render.Flags3 = 2*)
  4: 0x0072 [0x00] END_REQSTACK()
```

### Event 65535.4

#### Metadata

| Field        | Value    |
|--------------|----------|
| Entrypoint   | 0x0073   |
| Data Size    | 29 bytes |
| Instructions | 4        |

```
      00 01 02 03 04 05 06 07  08 09 0A 0B 0C 0D 0E 0F
      -- -- -- -- -- -- -- --  -- -- -- -- -- -- -- --
0070:          B4 00 00 00 00  00 00 00 00 00 00 00 00     .............
0080: 00 00 00 00 00 00 00 B5  00 00 00 B6 00 0F 80 00  ................
```

#### Opcodes

```
  0: 0x0073 [0xB4] UI_WINDOW_STRING_HANDLER(case=0x00 - Copy string from opcode, work_offset=ExtData[1]->WorkLocal[0], string="")
  1: 0x0087 [0xB5] SET_EVENT_ENTITY_NAME: Change EventEntity name to ExtData[1]->WorkLocal[0]
  2: 0x008B [0xB6] ENTITY_APPEARANCE_HANDLER(case=Hair style, value=52*)
  3: 0x008F [0x00] END_REQSTACK()
```

### Event 65535.5

#### Metadata

| Field        | Value   |
|--------------|---------|
| Entrypoint   | 0x0090  |
| Data Size    | 4 bytes |
| Instructions | 2       |

```
      00 01 02 03 04 05 06 07  08 09 0A 0B 0C 0D 0E 0F
      -- -- -- -- -- -- -- --  -- -- -- -- -- -- -- --
0090: 95 0E 80 00                                       ....            
```

#### Opcodes

```
  0: 0x0090 [0x95] SETUP_EVENT_NPC: Prepare NPC for event (Render.Flags3 = 2*)
  1: 0x0093 [0x00] END_REQSTACK()
```

### Event 65535.6

#### Metadata

| Field        | Value   |
|--------------|---------|
| Entrypoint   | 0x0094  |
| Data Size    | 2 bytes |
| Instructions | 2       |

```
      00 01 02 03 04 05 06 07  08 09 0A 0B 0C 0D 0E 0F
      -- -- -- -- -- -- -- --  -- -- -- -- -- -- -- --
0090:             96 00                                     ..          
```

#### Opcodes

```
  0: 0x0094 [0x96] UNSET_EVENT_NPC: Restore NPC after event (removes event NPC status)
  1: 0x0095 [0x00] END_REQSTACK()
```

### Event 65535.7

#### Metadata

| Field        | Value    |
|--------------|----------|
| Entrypoint   | 0x0096   |
| Data Size    | 25 bytes |
| Instructions | 3        |

```
      00 01 02 03 04 05 06 07  08 09 0A 0B 0C 0D 0E 0F
      -- -- -- -- -- -- -- --  -- -- -- -- -- -- -- --
0090:                   B4 00  00 00 4D 6F 72 69 6D 61        ....Morima
00A0: 72 00 00 00 00 00 00 00  00 00 B5 00 00 00 00     r.............. 
```

#### Opcodes

```
  0: 0x0096 [0xB4] UI_WINDOW_STRING_HANDLER(case=0x00 - Copy string from opcode, work_offset=ExtData[1]->WorkLocal[0], string="Morimar")
  1: 0x00AA [0xB5] SET_EVENT_ENTITY_NAME: Change EventEntity name to ExtData[1]->WorkLocal[0]
  2: 0x00AE [0x00] END_REQSTACK()
```

### Event 65535.8

#### Metadata

| Field        | Value    |
|--------------|----------|
| Entrypoint   | 0x00AF   |
| Data Size    | 25 bytes |
| Instructions | 7        |

```
      00 01 02 03 04 05 06 07  08 09 0A 0B 0C 0D 0E 0F
      -- -- -- -- -- -- -- --  -- -- -- -- -- -- -- --
00A0:                                               32                 2
00B0: 10 80 1F 00 11 80 12 80  0B 80 1F 01 6F 1E F0 FF  ............o...
00C0: FF 7F 7B F8 FF FF 7F 00                           ..{.....        
```

#### Opcodes

```
  0: 0x00AF [0x32] ExtData[1]->MainSpeed = 13* * 0.1
  1: 0x00B2 [0x1F] MOVE_ENTITY: EventEntity moves to X=195.670*, Z=290.986*, Y=30.499*
  2: 0x00BA [0x1F] MOVE_ENTITY: Update entity position (mode=1)
  3: 0x00BC [0x6F] WAIT_FRAME_DELAY: Yield until WaitTime reaches zero
  4: 0x00BD [0x1E] EventEntity looks at LocalPlayer and starts talking
  5: 0x00C2 [0x7B] EventEntity stops talking
  6: 0x00C7 [0x00] END_REQSTACK()
```

### Event 65535.9

#### Metadata

| Field        | Value   |
|--------------|---------|
| Entrypoint   | 0x00C8  |
| Data Size    | 3 bytes |
| Instructions | 2       |

```
      00 01 02 03 04 05 06 07  08 09 0A 0B 0C 0D 0E 0F
      -- -- -- -- -- -- -- --  -- -- -- -- -- -- -- --
00C0:                          AB 08 00                         ...     
```

#### Opcodes

```
  0: 0x00C8 [0xAB] EventEntity->Render.Flags2 |= 0x02 // Set bit 1
  1: 0x00CA [0x00] END_REQSTACK()
```

### Event 65535.10

#### Metadata

| Field        | Value   |
|--------------|---------|
| Entrypoint   | 0x00CB  |
| Data Size    | 3 bytes |
| Instructions | 2       |

```
      00 01 02 03 04 05 06 07  08 09 0A 0B 0C 0D 0E 0F
      -- -- -- -- -- -- -- --  -- -- -- -- -- -- -- --
00C0:                                   AB 07 00                   ...  
```

#### Opcodes

```
  0: 0x00CB [0xAB] EventEntity->Render.Flags2 |= 0x01 // Set bit 0
  1: 0x00CD [0x00] END_REQSTACK()
```
