# Event 65535

## Metadata

| Field           | Value    |
|-----------------|----------|
| Event Index     | 26/31    |
| Offset          | 0x0C36   |
| Data Size       | 60 bytes |
| Calculated Size | 60 bytes |
| Instructions    | 14       |

```
      00 01 02 03 04 05 06 07  08 09 0A 0B 0C 0D 0E 0F
      -- -- -- -- -- -- -- --  -- -- -- -- -- -- -- --
0C30:                   24 72  80 01 80 01 80 25 02 00        $r.....%..
0C40: 10 01 80 00 4E 0C 03 01  10 73 80 01 6E 0C 02 00  ....N....s..n...
0C50: 10 02 80 00 5E 0C 03 01  10 74 80 01 6E 0C 02 00  ....^....t..n...
0C60: 10 03 80 00 6E 0C 03 01  10 75 80 01 6E 0C 20 00  ....n....u..n. .
0C70: 21 00                                             !.              
```

## Opcodes

```
  0: 0x0C36 [0x24] CREATE_DIALOG(message_id=6713*, default_option=0*, option_flags=0*)
    → "\u001228\u000Cn\u0007\u000B\u0001@
n\u0016{\u000Cn\u0007\u0003~\u0003b\u0003V\u0003\u0007\u0003\u0013\u000Cn\u0007\u0003]\u0001[\u0003\u0013\u0003t\u0003	\u0003O\u000Cn\u007F1\u0000\u0007"
  1: 0x0C3D [0x25] WAIT_DIALOG_SELECT()
  2: 0x0C3E [0x02] IF !(Work_Zone[0] == 0*) GOTO 0x0C4E
  3: 0x0C46 [0x03] Work_Zone[1] = 96*
  4: 0x0C4B [0x01] GOTO 0x0C6E
  5: 0x0C4E [0x02] IF !(Work_Zone[0] == 1*) GOTO 0x0C5E
  6: 0x0C56 [0x03] Work_Zone[1] = 97*
  7: 0x0C5B [0x01] GOTO 0x0C6E
  8: 0x0C5E [0x02] IF !(Work_Zone[0] == 2*) GOTO 0x0C6E
  9: 0x0C66 [0x03] Work_Zone[1] = 98*
 10: 0x0C6B [0x01] GOTO 0x0C6E

SUBROUTINE_0C6E:
 11: 0x0C6E [0x20] SET_CLI_EVENT_UC_FLAG: Unlock player control
 12: 0x0C70 [0x21] END_EVENT
 13: 0x0C71 [0x00] END_REQSTACK()
```
