# Event 65535

## Metadata

| Field           | Value    |
|-----------------|----------|
| Event Index     | 6/31     |
| Offset          | 0x01FB   |
| Data Size       | 48 bytes |
| Calculated Size | 48 bytes |
| Instructions    | 11       |

```
      00 01 02 03 04 05 06 07  08 09 0A 0B 0C 0D 0E 0F
      -- -- -- -- -- -- -- --  -- -- -- -- -- -- -- --
01F0:                                   24 14 80 01 80             $....
0200: 01 80 25 02 00 10 01 80  00 15 02 29 0A 02 F0 0E  ..%........)....
0210: 01 10 01 27 02 02 00 10  02 80 00 27 02 29 0A 02  ...'.......'.)..
0220: F0 0E 01 11 01 27 02 20  00 21 00                 .....'. .!.     
```

## Opcodes

```
  0: 0x01FB [0x24] CREATE_DIALOG(message_id=7978*, default_option=0*, option_flags=0*)
    → "\u0003	\u0003\u0013\u0003N3\u0007\u000Bh003:\u0003u\u0003\u000B\u0003i\u0003C\u0003g\u0007h006:\u0002 \u0002(\u0002)\u0002Q\u007F1\u0000\u0007"
  1: 0x0202 [0x25] WAIT_DIALOG_SELECT()
  2: 0x0203 [0x02] IF !(Work_Zone[0] == 0*) GOTO 0x0215
  3: 0x020B [0x29] REQ_SET_WAIT(priority=0x0A, entity_id=DIRECTOR (ID: 17756162/0x010EF002), tag_num=0x10)
  4: 0x0212 [0x01] GOTO 0x0227
  5: 0x0215 [0x02] IF !(Work_Zone[0] == 1*) GOTO 0x0227
  6: 0x021D [0x29] REQ_SET_WAIT(priority=0x0A, entity_id=DIRECTOR (ID: 17756162/0x010EF002), tag_num=0x11)
  7: 0x0224 [0x01] GOTO 0x0227

SUBROUTINE_0227:
  8: 0x0227 [0x20] SET_CLI_EVENT_UC_FLAG: Unlock player control
  9: 0x0229 [0x21] END_EVENT
 10: 0x022A [0x00] END_REQSTACK()
```
