# Event 65535

## Metadata

| Field           | Value    |
|-----------------|----------|
| Event Index     | 5/31     |
| Offset          | 0x01C6   |
| Data Size       | 53 bytes |
| Calculated Size | 53 bytes |
| Instructions    | 12       |

```
      00 01 02 03 04 05 06 07  08 09 0A 0B 0C 0D 0E 0F
      -- -- -- -- -- -- -- --  -- -- -- -- -- -- -- --
01C0:                   24 12  80 01 80 01 80 25 02 00        $......%..
01D0: 10 01 80 00 E0 01 29 0A  02 F0 0E 01 18 01 F7 01  ......).........
01E0: 02 00 10 02 80 00 F7 01  29 09 F0 FF FF 7F 1E 03  ........).......
01F0: 01 10 13 80 01 F7 01 20  00 21 00                 ....... .!.     
```

## Opcodes

```
  0: 0x01C6 [0x24] CREATE_DIALOG(message_id=7977*, default_option=0*, option_flags=0*)
    → "Rank\u0002Q\u0007\u000Bo003:\u000E\u0000\u0010_\u0002L\u0002\\u0002H\u00024\u00025\u0007oc004:\u0003X\u0003^\u0001[\u0003I\u0003j\u0003I\u0003\u0013\u0003Y
k\u000B@\u0008j\u0014/\u007F1\u0000\u0007"
  1: 0x01CD [0x25] WAIT_DIALOG_SELECT()
  2: 0x01CE [0x02] IF !(Work_Zone[0] == 0*) GOTO 0x01E0
  3: 0x01D6 [0x29] REQ_SET_WAIT(priority=0x0A, entity_id=DIRECTOR (ID: 17756162/0x010EF002), tag_num=0x18)
  4: 0x01DD [0x01] GOTO 0x01F7

SUBROUTINE_01E0:
  5: 0x01E0 [0x02] IF !(Work_Zone[0] == 1*) GOTO 0x01F7
  6: 0x01E8 [0x29] REQ_SET_WAIT(priority=0x09, entity_id=LocalPlayer, tag_num=0x1E)
  7: 0x01EF [0x03] Work_Zone[1] = 64*
  8: 0x01F4 [0x01] GOTO 0x01F7

SUBROUTINE_01F7:
  9: 0x01F7 [0x20] SET_CLI_EVENT_UC_FLAG: Unlock player control
 10: 0x01F9 [0x21] END_EVENT
 11: 0x01FA [0x00] END_REQSTACK()
```
