# Event 755

## Metadata

| Field           | Value    |
|-----------------|----------|
| Event Index     | 4/12     |
| Offset          | 0x0301   |
| Data Size       | 45 bytes |
| Calculated Size | 45 bytes |
| Instructions    | 13       |

```
      00 01 02 03 04 05 06 07  08 09 0A 0B 0C 0D 0E 0F
      -- -- -- -- -- -- -- --  -- -- -- -- -- -- -- --
0300:    42 03 06 10 09 80 03  07 10 0A 80 2B 85 80 0E   B..........+...
0310: 01 23 80 23 2B 85 80 0E  01 24 80 23 2B 85 80 0E  .#.#+....$.#+...
0320: 01 25 80 23 2B 85 80 0E  01 26 80 23 21 00        .%.#+....&.#!.  
```

## Opcodes

```
  0: 0x0301 [0x42] SET_CLI_EVENT_CANCEL_DATA()
  1: 0x0302 [0x03] Work_Zone[6] = 2187*
  2: 0x0307 [0x03] Work_Zone[7] = 1*
  3: 0x030C [0x2B] Raqtibahl (ID: 17727621/0x010E8085) [8724*]:
    → "Ah, I see you've managed to find all the materials. Good work.\u007F1\u0000\u0007"
  4: 0x0313 [0x23] WAIT_FOR_DIALOG_INTERACTION
  5: 0x0314 [0x2B] Raqtibahl (ID: 17727621/0x010E8085) [8725*]:
    → "All you have to do now is pay the costs of production.\u007F1\u0000\u0007"
  6: 0x031B [0x23] WAIT_FOR_DIALOG_INTERACTION
  7: 0x031C [0x2B] Raqtibahl (ID: 17727621/0x010E8085) [8726*]:
    → "That will be 
\u0005 \u0001	)\u0002\u0005\u0000\u0000\u0002\u0004\u0000\u0000...\u007F1\u0000\u0007"
  8: 0x0323 [0x23] WAIT_FOR_DIALOG_INTERACTION
  9: 0x0324 [0x2B] Raqtibahl (ID: 17727621/0x010E8085) [8727*]:
    → "I am not going anywhere. Just bring the materials whenever you want.\u007F1\u0000\u0007"
 10: 0x032B [0x23] WAIT_FOR_DIALOG_INTERACTION
 11: 0x032C [0x21] END_EVENT
 12: 0x032D [0x00] END_REQSTACK()
```
