# Event 65535

## Metadata

| Field           | Value    |
|-----------------|----------|
| Event Index     | 54/61    |
| Offset          | 0x0298   |
| Data Size       | 79 bytes |
| Calculated Size | 79 bytes |
| Instructions    | 10       |

```
      00 01 02 03 04 05 06 07  08 09 0A 0B 0C 0D 0E 0F
      -- -- -- -- -- -- -- --  -- -- -- -- -- -- -- --
0290:                          03 00 00 33 80 02 00 00          ...3....
02A0: 33 80 00 E6 02 5B 05 80  F8 FF FF 7F B5 A0 0A 01  3....[..........
02B0: 63 61 62 6B 53 F8 FF FF  7F F8 FF FF 7F 63 61 62  cabkS........cab
02C0: 6B 1C 34 80 5B 05 80 F8  FF FF 7F B5 A0 0A 01 73  k.4.[..........s
02D0: 68 62 6B 53 F8 FF FF 7F  F8 FF FF 7F 73 68 62 6B  hbkS........shbk
02E0: 1C 34 80 01 9D 02 00                              .4.....         
```

## Opcodes

```
  0: 0x0298 [0x03] ExtData[1]->WorkLocal[0] = 0*
  1: 0x029D [0x02] IF !(ExtData[1]->WorkLocal[0] == 0*) GOTO 0x02E6
  2: 0x02A5 [0x5B] LOAD_EXT_SCHEDULER(work_offset=167*, entity1=EventEntity, entity2=01 (ID: 17473717/0x010AA0B5), action="cabk")
  3: 0x02B4 [0x53] WAIT_SCHEDULER_TASK(entity1=EventEntity, entity2=EventEntity, action_id="cabk")
  4: 0x02C1 [0x1C] WAIT(200* ticks)
  5: 0x02C4 [0x5B] LOAD_EXT_SCHEDULER(work_offset=167*, entity1=EventEntity, entity2=01 (ID: 17473717/0x010AA0B5), action="shbk")
  6: 0x02D3 [0x53] WAIT_SCHEDULER_TASK(entity1=EventEntity, entity2=EventEntity, action_id="shbk")
  7: 0x02E0 [0x1C] WAIT(200* ticks)
  8: 0x02E3 [0x01] GOTO 0x029D

SUBROUTINE_02E6:
  9: 0x02E6 [0x00] END_REQSTACK()
```
