# Event 940

## Metadata

| Field           | Value    |
|-----------------|----------|
| Event Index     | 12/12    |
| Offset          | 0x00DF   |
| Data Size       | 52 bytes |
| Calculated Size | 52 bytes |
| Instructions    | 12       |

```
      00 01 02 03 04 05 06 07  08 09 0A 0B 0C 0D 0E 0F
      -- -- -- -- -- -- -- --  -- -- -- -- -- -- -- --
00D0:                                               42                 B
00E0: 48 0E 80 1E F0 FF FF 7F  1C 01 80 1D 0F 80 23 66  H.............#f
00F0: 00 80 F8 FF FF 7F F8 FF  FF 7F 74 6C 6B 30 1D 10  ..........tlk0..
0100: 80 23 66 00 80 F8 FF FF  7F F8 FF FF 7F 74 6C 6B  .#f..........tlk
0110: 31 21 00                                          1!.             
```

## Opcodes

```
  0: 0x00DF [0x42] SET_CLI_EVENT_CANCEL_DATA()
  1: 0x00E0 [0x48] [System] [12283*]:
    → "\u001F\u000F\u0008's badge flashes brightly.\u007F1\u0000\u0007"
  2: 0x00E3 [0x1E] EventEntity looks at LocalPlayer and starts talking
  3: 0x00E8 [0x1C] WAIT(30* ticks)
  4: 0x00EB [0x1D] PRINT_EVENT_MESSAGE(message_id=12294*)
    → "Hm. I infer somebody wants to know-know about Aht Urhgan, perhaps?\u0007Then you should look up at this night's night sky.\u007F1\u0000\u0007"
  5: 0x00EE [0x23] WAIT_FOR_DIALOG_INTERACTION
  6: 0x00EF [0x66] LOAD_EXT_SCHEDULER_MAIN: Load scheduler "tlk0" with entities [EventEntity, EventEntity], work=40*
  7: 0x00FE [0x1D] PRINT_EVENT_MESSAGE(message_id=12295*)
    → "Compared to the night sky, this world is small. Perhaps it holds that that you seek.\u007F1\u0000\u0007"
  8: 0x0101 [0x23] WAIT_FOR_DIALOG_INTERACTION
  9: 0x0102 [0x66] LOAD_EXT_SCHEDULER_MAIN: Load scheduler "tlk1" with entities [EventEntity, EventEntity], work=40*
 10: 0x0111 [0x21] END_EVENT
 11: 0x0112 [0x00] END_REQSTACK()
```
