# Event 117

## Metadata

| Field           | Value    |
|-----------------|----------|
| Event Index     | 43/102   |
| Offset          | 0x09E2   |
| Data Size       | 30 bytes |
| Calculated Size | 30 bytes |
| Instructions    | 10       |

```
      00 01 02 03 04 05 06 07  08 09 0A 0B 0C 0D 0E 0F
      -- -- -- -- -- -- -- --  -- -- -- -- -- -- -- --
09E0:       1E F0 FF FF 7F 6F  70 03 02 10 66 80 2B 0C    .....op...f.+.
09F0: 90 0E 01 68 80 23 2B 0C  90 0E 01 69 80 23 21 00  ...h.#+....i.#!.
```

## Opcodes

```
  0: 0x09E2 [0x1E] EventEntity looks at LocalPlayer and starts talking
  1: 0x09E7 [0x6F] WAIT_FRAME_DELAY: Yield until WaitTime reaches zero
  2: 0x09E8 [0x70] WAIT_ENTITY_RENDER_FLAG: Wait while EventEntity->Render.Flags3 bit 2 is set (cancel turn if not)
  3: 0x09E9 [0x03] Work_Zone[2] = 201*
  4: 0x09EE [0x2B] Curilla (ID: 17731596/0x010E900C) [7459*]:
    → "Please, take the greaves to the Crawlers' Nest. They must be buried together with \u0001\u00056\u0002\u0000\u0000\u0000 in the place where light shines.\u007F1\u0000\u0007"
  5: 0x09F5 [0x23] WAIT_FOR_DIALOG_INTERACTION
  6: 0x09F6 [0x2B] Curilla (ID: 17731596/0x010E900C) [7460*]:
    → "And then come back and tell me how you fared. Even a little information could help solve the puzzle of my father's death.\u007F1\u0000\u0007"
  7: 0x09FD [0x23] WAIT_FOR_DIALOG_INTERACTION
  8: 0x09FE [0x21] END_EVENT
  9: 0x09FF [0x00] END_REQSTACK()
```
