# Event 16

## Metadata

| Field           | Value    |
|-----------------|----------|
| Event Index     | 30/102   |
| Offset          | 0x0413   |
| Data Size       | 56 bytes |
| Calculated Size | 56 bytes |
| Instructions    | 10       |

```
      00 01 02 03 04 05 06 07  08 09 0A 0B 0C 0D 0E 0F
      -- -- -- -- -- -- -- --  -- -- -- -- -- -- -- --
0410:          1E F0 FF FF 7F  6F 70 5B 19 80 F8 FF FF     .....op[.....
0420: 7F F8 FF FF 7F 74 6C 6B  30 1D 41 80 23 5B 19 80  .....tlk0.A.#[..
0430: F8 FF FF 7F F8 FF FF 7F  74 6C 6B 31 53 F8 FF FF  ........tlk1S...
0440: 7F F8 FF FF 7F 74 6C 6B  31 21 00                 .....tlk1!.     
```

## Opcodes

```
  0: 0x0413 [0x1E] EventEntity looks at LocalPlayer and starts talking
  1: 0x0418 [0x6F] WAIT_FRAME_DELAY: Yield until WaitTime reaches zero
  2: 0x0419 [0x70] WAIT_ENTITY_RENDER_FLAG: Wait while EventEntity->Render.Flags3 bit 2 is set (cancel turn if not)
  3: 0x041A [0x5B] LOAD_EXT_SCHEDULER: Load scheduler "tlk0" with entities [EventEntity, EventEntity], work=140*
  4: 0x0429 [0x1D] PRINT_EVENT_MESSAGE(message_id=7763*)
    → "I have heard the rumors of the fate of Rochefogne. However, I will not believe he is dead until I have seen the body with my own eyes.\u007F1\u0000\u0007"
  5: 0x042C [0x23] WAIT_FOR_DIALOG_INTERACTION
  6: 0x042D [0x5B] LOAD_EXT_SCHEDULER: Load scheduler "tlk1" with entities [EventEntity, EventEntity], work=140*
  7: 0x043C [0x53] WAIT_SCHEDULER_TASK: Wait for scheduler "tlk1" with entities [EventEntity, EventEntity]
  8: 0x0449 [0x21] END_EVENT
  9: 0x044A [0x00] END_REQSTACK()
```
