# Event 17

## Metadata

| Field           | Value    |
|-----------------|----------|
| Event Index     | 31/102   |
| Offset          | 0x044B   |
| Data Size       | 69 bytes |
| Calculated Size | 69 bytes |
| Instructions    | 11       |

```
      00 01 02 03 04 05 06 07  08 09 0A 0B 0C 0D 0E 0F
      -- -- -- -- -- -- -- --  -- -- -- -- -- -- -- --
0440:                                   1E F0 FF FF 7F             .....
0450: 6F 70 5B 19 80 F8 FF FF  7F F8 FF FF 7F 73 77 6F  op[..........swo
0460: 30 1D 42 80 23 53 F8 FF  FF 7F F8 FF FF 7F 73 77  0.B.#S........sw
0470: 6F 30 5B 19 80 F8 FF FF  7F F8 FF FF 7F 73 77 6F  o0[..........swo
0480: 31 53 F8 FF FF 7F F8 FF  FF 7F 73 77 6F 31 21 00  1S........swo1!.
```

## Opcodes

```
  0: 0x044B [0x1E] EventEntity looks at LocalPlayer and starts talking
  1: 0x0450 [0x6F] WAIT_FRAME_DELAY: Yield until WaitTime reaches zero
  2: 0x0451 [0x70] WAIT_ENTITY_RENDER_FLAG: Wait while EventEntity->Render.Flags3 bit 2 is set (cancel turn if not)
  3: 0x0452 [0x5B] LOAD_EXT_SCHEDULER(work_offset=140*, entity1=EventEntity, entity2=EventEntity, action="swo0")
  4: 0x0461 [0x1D] PRINT_EVENT_MESSAGE(message_id=7765*)
    → "We have increased the guard for the Rites of Succession twofold. We do not wish a repeat of the fiasco caused by Rochefogne at the coming-of-age ceremony.\u007F1\u0000\u0007"
  5: 0x0464 [0x23] WAIT_FOR_DIALOG_INTERACTION
  6: 0x0465 [0x53] WAIT_SCHEDULER_TASK(entity1=EventEntity, entity2=EventEntity, action_id="swo0")
  7: 0x0472 [0x5B] LOAD_EXT_SCHEDULER(work_offset=140*, entity1=EventEntity, entity2=EventEntity, action="swo1")
  8: 0x0481 [0x53] WAIT_SCHEDULER_TASK(entity1=EventEntity, entity2=EventEntity, action_id="swo1")
  9: 0x048E [0x21] END_EVENT
 10: 0x048F [0x00] END_REQSTACK()
```
