# Event 52

## Metadata

| Field           | Value    |
|-----------------|----------|
| Event Index     | 49/102   |
| Offset          | 0x0AB1   |
| Data Size       | 33 bytes |
| Calculated Size | 33 bytes |
| Instructions    | 12       |

```
      00 01 02 03 04 05 06 07  08 09 0A 0B 0C 0D 0E 0F
      -- -- -- -- -- -- -- --  -- -- -- -- -- -- -- --
0AB0:    20 01 42 2B 0C 90 0E  01 73 80 23 1E F0 FF FF    .B+....s.#....
0AC0: 7F 6F 70 5E 64 66 74 30  2B 0C 90 0E 01 74 80 23  .op^dft0+....t.#
0AD0: 21 00                                             !.              
```

## Opcodes

```
  0: 0x0AB1 [0x20] SET_CLI_EVENT_UC_FLAG: Lock player control
  1: 0x0AB3 [0x42] SET_CLI_EVENT_CANCEL_DATA()
  2: 0x0AB4 [0x2B] Curilla (ID: 17731596/0x010E900C) [7470*]:
    → "It matters not how my father died...\u0007Now I know that ever will his memory live on inside me.\u007F1\u0000\u0007"
  3: 0x0ABB [0x23] WAIT_FOR_DIALOG_INTERACTION
  4: 0x0ABC [0x1E] EventEntity looks at LocalPlayer and starts talking
  5: 0x0AC1 [0x6F] WAIT_FRAME_DELAY: Yield until WaitTime reaches zero
  6: 0x0AC2 [0x70] WAIT_ENTITY_RENDER_FLAG: Wait while EventEntity->Render.Flags3 bit 2 is set (cancel turn if not)
  7: 0x0AC3 [0x5E] EventEntity goes idle (kills current action) (animation: "dft0")
  8: 0x0AC8 [0x2B] Curilla (ID: 17731596/0x010E900C) [7471*]:
    → "You went through great lengths to help me. I have never found it easy to express thanks, but know that I will always be grateful.\u007F1\u0000\u0007"
  9: 0x0ACF [0x23] WAIT_FOR_DIALOG_INTERACTION
 10: 0x0AD0 [0x21] END_EVENT
 11: 0x0AD1 [0x00] END_REQSTACK()
```
