# Event 545

## Metadata

| Field           | Value    |
|-----------------|----------|
| Event Index     | 26/102   |
| Offset          | 0x033C   |
| Data Size       | 59 bytes |
| Calculated Size | 59 bytes |
| Instructions    | 11       |

```
      00 01 02 03 04 05 06 07  08 09 0A 0B 0C 0D 0E 0F
      -- -- -- -- -- -- -- --  -- -- -- -- -- -- -- --
0330:                                      1E F0 FF FF              ....
0340: 7F 6F 70 5B 19 80 F8 FF  FF 7F F8 FF FF 7F 74 68  .op[..........th
0350: 6B 31 1D 3B 80 23 5B 19  80 F8 FF FF 7F F8 FF FF  k1.;.#[.........
0360: 7F 74 68 6B 32 53 F8 FF  FF 7F F8 FF FF 7F 74 68  .thk2S........th
0370: 6B 32 1C 05 80 21 00                              k2...!.         
```

## Opcodes

```
  0: 0x033C [0x1E] EventEntity looks at LocalPlayer and starts talking
  1: 0x0341 [0x6F] WAIT_FRAME_DELAY: Yield until WaitTime reaches zero
  2: 0x0342 [0x70] WAIT_ENTITY_RENDER_FLAG: Wait while EventEntity->Render.Flags3 bit 2 is set (cancel turn if not)
  3: 0x0343 [0x5B] LOAD_EXT_SCHEDULER: Load scheduler "thk1" with entities [EventEntity, EventEntity], work=140*
  4: 0x0352 [0x1D] PRINT_EVENT_MESSAGE(message_id=7170*)
    → "Things cannot be allowed to proceed as they are. There must be a way to convince him...\u007F1\u0000\u0007"
  5: 0x0355 [0x23] WAIT_FOR_DIALOG_INTERACTION
  6: 0x0356 [0x5B] LOAD_EXT_SCHEDULER: Load scheduler "thk2" with entities [EventEntity, EventEntity], work=140*
  7: 0x0365 [0x53] WAIT_SCHEDULER_TASK: Wait for scheduler "thk2" with entities [EventEntity, EventEntity]
  8: 0x0372 [0x1C] WAIT(30* ticks)
  9: 0x0375 [0x21] END_EVENT
 10: 0x0376 [0x00] END_REQSTACK()
```
