# Event 56

## Metadata

| Field           | Value    |
|-----------------|----------|
| Event Index     | 27/102   |
| Offset          | 0x0377   |
| Data Size       | 56 bytes |
| Calculated Size | 56 bytes |
| Instructions    | 10       |

```
      00 01 02 03 04 05 06 07  08 09 0A 0B 0C 0D 0E 0F
      -- -- -- -- -- -- -- --  -- -- -- -- -- -- -- --
0370:                      1E  F0 FF FF 7F 6F 70 5B 19         .....op[.
0380: 80 F8 FF FF 7F F8 FF FF  7F 74 68 6B 31 1D 3C 80  .........thk1.<.
0390: 23 5B 19 80 F8 FF FF 7F  F8 FF FF 7F 74 68 6B 32  #[..........thk2
03A0: 53 F8 FF FF 7F F8 FF FF  7F 74 68 6B 32 21 00     S........thk2!. 
```

## Opcodes

```
  0: 0x0377 [0x1E] EventEntity looks at LocalPlayer and starts talking
  1: 0x037C [0x6F] WAIT_FRAME_DELAY: Yield until WaitTime reaches zero
  2: 0x037D [0x70] WAIT_ENTITY_RENDER_FLAG: Wait while EventEntity->Render.Flags3 bit 2 is set (cancel turn if not)
  3: 0x037E [0x5B] LOAD_EXT_SCHEDULER: Load scheduler "thk1" with entities [EventEntity, EventEntity], work=140*
  4: 0x038D [0x1D] PRINT_EVENT_MESSAGE(message_id=7427*)
    → "It seems we avoided the worst, but my heart quickens. I hope it is naught but my imagination.\u007F1\u0000\u0007"
  5: 0x0390 [0x23] WAIT_FOR_DIALOG_INTERACTION
  6: 0x0391 [0x5B] LOAD_EXT_SCHEDULER: Load scheduler "thk2" with entities [EventEntity, EventEntity], work=140*
  7: 0x03A0 [0x53] WAIT_SCHEDULER_TASK: Wait for scheduler "thk2" with entities [EventEntity, EventEntity]
  8: 0x03AD [0x21] END_EVENT
  9: 0x03AE [0x00] END_REQSTACK()
```
