# Event 562

## Metadata

| Field           | Value    |
|-----------------|----------|
| Event Index     | 95/102   |
| Offset          | 0x0D2A   |
| Data Size       | 52 bytes |
| Calculated Size | 52 bytes |
| Instructions    | 12       |

```
      00 01 02 03 04 05 06 07  08 09 0A 0B 0C 0D 0E 0F
      -- -- -- -- -- -- -- --  -- -- -- -- -- -- -- --
0D20:                                42 48 96 80 1E F0            BH....
0D30: FF FF 7F 1C 05 80 5B 19  80 F8 FF FF 7F F8 FF FF  ......[.........
0D40: 7F 74 6C 6B 30 1D 97 80  23 5B 19 80 F8 FF FF 7F  .tlk0...#[......
0D50: F8 FF FF 7F 74 6C 6B 31  1D 98 80 23 21 00        ....tlk1...#!.  
```

## Opcodes

```
  0: 0x0D2A [0x42] SET_CLI_EVENT_CANCEL_DATA()
  1: 0x0D2B [0x48] [System] [8289*]:
    → "\u001F\u000F\u0008's badge flashes brightly.\u007F1\u0000\u0007"
  2: 0x0D2E [0x1E] EventEntity looks at LocalPlayer and starts talking
  3: 0x0D33 [0x1C] WAIT(30* ticks)
  4: 0x0D36 [0x5B] LOAD_EXT_SCHEDULER(work_offset=140*, entity1=EventEntity, entity2=EventEntity, action="tlk0")
  5: 0x0D45 [0x1D] PRINT_EVENT_MESSAGE(message_id=8302*)
    → "Ever since that recruiter from Aht Urhgan arrived, the chateau has been in an uproar.\u0007Especially Prince Tri--\u007F1\u0000\u0007"
  6: 0x0D48 [0x23] WAIT_FOR_DIALOG_INTERACTION
  7: 0x0D49 [0x5B] LOAD_EXT_SCHEDULER(work_offset=140*, entity1=EventEntity, entity2=EventEntity, action="tlk1")
  8: 0x0D58 [0x1D] PRINT_EVENT_MESSAGE(message_id=8303*)
    → "Be on your way, adventurer.\u0007I'll thank you to forget what you have heard here.\u007F1\u0000\u0007"
  9: 0x0D5B [0x23] WAIT_FOR_DIALOG_INTERACTION
 10: 0x0D5C [0x21] END_EVENT
 11: 0x0D5D [0x00] END_REQSTACK()
```
