# Event 65535

## Metadata

| Field           | Value    |
|-----------------|----------|
| Event Index     | 6/102    |
| Offset          | 0x0028   |
| Data Size       | 89 bytes |
| Calculated Size | 89 bytes |
| Instructions    | 7        |

```
      00 01 02 03 04 05 06 07  08 09 0A 0B 0C 0D 0E 0F
      -- -- -- -- -- -- -- --  -- -- -- -- -- -- -- --
0020:                          1C 05 80 32 04 80 31 00          ...2..1.
0030: 06 80 07 80 00 80 08 80  31 01 22 01 00 3B F8 FF  ........1."..;..
0040: FF 7F 01 00 02 00 03 00  3A F8 FF FF 7F 04 00 17  ........:.......
0050: 05 00 04 00 00 00 16 06  00 04 00 00 00 07 01 00  ................
0060: 05 00 07 02 00 06 00 1B  17 05 00 04 00 00 00 16  ................
0070: 06 00 04 00 00 00 07 01  00 05 00 07 02 00 06 00  ................
0080: 1B                                                .               
```

## Opcodes

```
  0: 0x0028 [0x1C] WAIT(30* ticks)
  1: 0x002B [0x32] ExtData[1]->MainSpeed = 13* * 0.1
  2: 0x002E [0x31] UPDATE_ENTITY_POSITION: Set EventEntity goal position to X=8.644*, Z=-3.761*, Y=0.000*, Time=180*
  3: 0x0038 [0x31] UPDATE_ENTITY_POSITION: Move EventEntity towards goal position
  4: 0x003A [0x22] ENTITY_HIDE_FLAG(enabled=0x01)
  5: 0x003C [0x00] END_REQSTACK()
```

## Data or dead code:

```
# Data Section: 0x003D (68 bytes)
     0x003D: 3B F8 FF FF 7F 01 00 02 00 03 00 3A F8 FF FF 7F
     0x004D: 04 00 17 05 00 04 00 00 00 16 06 00 04 00 00 00
     0x005D: 07 01 00 05 00 07 02 00 06 00 1B 17 05 00 04 00
     0x006D: 00 00 16 06 00 04 00 00 00 07 01 00 05 00 07 02
     0x007D: 00 06 00 1B
```