# Event 355

## Metadata

| Field           | Value    |
|-----------------|----------|
| Event Index     | 16/17    |
| Offset          | 0x014C   |
| Data Size       | 33 bytes |
| Calculated Size | 33 bytes |
| Instructions    | 12       |

```
      00 01 02 03 04 05 06 07  08 09 0A 0B 0C 0D 0E 0F
      -- -- -- -- -- -- -- --  -- -- -- -- -- -- -- --
0140:                                      1E F0 FF FF              ....
0150: 7F 6F 70 29 08 2B 20 0F  01 01 1D 0F 80 23 1D 10  .op).+ ......#..
0160: 80 23 29 08 2B 20 0F 01  02 20 00 21 00           .#).+ ... .!.   
```

## Opcodes

```
  0: 0x014C [0x1E] EventEntity looks at LocalPlayer and starts talking
  1: 0x0151 [0x6F] WAIT_FRAME_DELAY: Yield until WaitTime reaches zero
  2: 0x0152 [0x70] WAIT_ENTITY_RENDER_FLAG: Wait while EventEntity->Render.Flags3 bit 2 is set (cancel turn if not)
  3: 0x0153 [0x29] REQ_SET_WAIT(priority=0x08, entity_id=Heruru (ID: 17768491/0x010F202B), tag_num=0x01)
  4: 0x015A [0x1D] PRINT_EVENT_MESSAGE(message_id=8429*)
    → "When the bearer of darkness appeared, all Heruru did was tell the other ladies-in-waiting to calm down without giving any useful direction.\u007F1\u0000\u0007"
  5: 0x015D [0x23] WAIT_FOR_DIALOG_INTERACTION
  6: 0x015E [0x1D] PRINT_EVENT_MESSAGE(message_id=8430*)
    → "Heruru can'taru bear to face Zubaba after taking her tutelage in this area. Heruru should have been the one to calm down first.\u007F1\u0000\u0007"
  7: 0x0161 [0x23] WAIT_FOR_DIALOG_INTERACTION
  8: 0x0162 [0x29] REQ_SET_WAIT(priority=0x08, entity_id=Heruru (ID: 17768491/0x010F202B), tag_num=0x02)
  9: 0x0169 [0x20] SET_CLI_EVENT_UC_FLAG: Unlock player control
 10: 0x016B [0x21] END_EVENT
 11: 0x016C [0x00] END_REQSTACK()
```
