# Event 65535

## Metadata

| Field           | Value    |
|-----------------|----------|
| Event Index     | 21/25    |
| Offset          | 0x0211   |
| Data Size       | 67 bytes |
| Calculated Size | 67 bytes |
| Instructions    | 15       |

```
      00 01 02 03 04 05 06 07  08 09 0A 0B 0C 0D 0E 0F
      -- -- -- -- -- -- -- --  -- -- -- -- -- -- -- --
0210:    32 49 80 1F 00 4A 80  4B 80 4C 80 1F 01 4B 1D   2I...J.K.L...K.
0220: 61 0E 01 4D 80 1C 26 80  1F 00 4E 80 4F 80 50 80  a..M..&...N.O.P.
0230: 1F 01 4B 1D 61 0E 01 51  80 1C 52 80 1F 00 53 80  ..K.a..Q..R...S.
0240: 54 80 55 80 1F 01 1C 42  80 4B 1D 61 0E 01 56 80  T.U....B.K.a..V.
0250: 1C 26 80 00                                       .&..            
```

## Opcodes

```
  0: 0x0211 [0x32] ExtData[1]->MainSpeed = 45* * 0.1
  1: 0x0214 [0x1F] MOVE_ENTITY: EventEntity moves to X=-599.295*, Z=590.678*, Y=0.264*
  2: 0x021C [0x1F] MOVE_ENTITY: Update entity position (mode=1)
  3: 0x021E [0x4B] UPDATE_ENTITY_YAW(entity=Unnamed NPC (ID: 17719581/0x010E611D), yaw=5.3°*)
  4: 0x0225 [0x1C] WAIT(60* ticks)
  5: 0x0228 [0x1F] MOVE_ENTITY: EventEntity moves to X=-604.353*, Z=586.292*, Y=0.138*
  6: 0x0230 [0x1F] MOVE_ENTITY: Update entity position (mode=1)
  7: 0x0232 [0x4B] UPDATE_ENTITY_YAW(entity=Unnamed NPC (ID: 17719581/0x010E611D), yaw=0.2°*)
  8: 0x0239 [0x1C] WAIT(240* ticks)
  9: 0x023C [0x1F] MOVE_ENTITY: EventEntity moves to X=-600.328*, Z=582.410*, Y=0.802*
 10: 0x0244 [0x1F] MOVE_ENTITY: Update entity position (mode=1)
 11: 0x0246 [0x1C] WAIT(30* ticks)
 12: 0x0249 [0x4B] UPDATE_ENTITY_YAW(entity=Unnamed NPC (ID: 17719581/0x010E611D), yaw=16.6°*)
 13: 0x0250 [0x1C] WAIT(60* ticks)
 14: 0x0253 [0x00] END_REQSTACK()
```
