# Event 65535

## Metadata

| Field           | Value    |
|-----------------|----------|
| Event Index     | 23/25    |
| Offset          | 0x0262   |
| Data Size       | 51 bytes |
| Calculated Size | 51 bytes |
| Instructions    | 11       |

```
      00 01 02 03 04 05 06 07  08 09 0A 0B 0C 0D 0E 0F
      -- -- -- -- -- -- -- --  -- -- -- -- -- -- -- --
0260:       32 49 80 1F 00 5A  80 5B 80 5C 80 1F 01 1F    2I...Z.[.\....
0270: 00 5D 80 5E 80 5F 80 1F  01 1F 00 60 80 61 80 62  .].^._.....`.a.b
0280: 80 1F 01 1E 19 61 0E 01  1C 42 80 4A 19 61 0E 01  .....a...B.J.a..
0290: 1D 61 0E 01 00                                    .a...           
```

## Opcodes

```
  0: 0x0262 [0x32] ExtData[1]->MainSpeed = 45* * 0.1
  1: 0x0265 [0x1F] MOVE_ENTITY: EventEntity moves to X=-604.257*, Z=586.573*, Y=0.057*
  2: 0x026D [0x1F] MOVE_ENTITY: Update entity position (mode=1)
  3: 0x026F [0x1F] MOVE_ENTITY: EventEntity moves to X=-603.318*, Z=588.527*, Y=0.196*
  4: 0x0277 [0x1F] MOVE_ENTITY: Update entity position (mode=1)
  5: 0x0279 [0x1F] MOVE_ENTITY: EventEntity moves to X=-601.495*, Z=586.040*, Y=0.496*
  6: 0x0281 [0x1F] MOVE_ENTITY: Update entity position (mode=1)
  7: 0x0283 [0x1E] EventEntity looks at Unnamed NPC (ID: 17719577/0x010E6119) and starts talking
  8: 0x0288 [0x1C] WAIT(30* ticks)
  9: 0x028B [0x4A] Unnamed NPC (ID: 17719577/0x010E6119) looks at Unnamed NPC (ID: 17719581/0x010E611D)
 10: 0x0294 [0x00] END_REQSTACK()
```
