# 16810221

## Common Data

| Field            | Value                  |
|------------------|------------------------|
| Zone             | Boneyard Gully (ID: 8) |
| Block Size       | 332 bytes              |
| Total Events     | 8                      |
| References Count | 18                     |

## List of Events

| Event ID                 | Entrypoint   |   Size |   Instructions |
|--------------------------|--------------|--------|----------------|
| [65535](#event-65535)    | 0x0000       |      1 |              1 |
| [7](#event-7)            | 0x0001       |      1 |              1 |
| [8](#event-8)            | 0x0002       |      1 |              1 |
| [65535.1](#event-655351) | 0x0003       |     24 |              5 |
| [65535.2](#event-655352) | 0x001B       |     17 |              4 |
| [65535.3](#event-655353) | 0x002C       |     72 |             11 |
| [65535.4](#event-655354) | 0x0074       |     78 |             13 |
| [65535.5](#event-655355) | 0x00C2       |     17 |              4 |

## DAT References (imed_data)

|   Index | Hex Value   |   Dec Value |
|---------|-------------|-------------|
|       0 | 0x0000      |           0 |
|       1 | 0x0001      |           1 |
|       2 | 0xFFF79EF8  |  4294418168 |
|       3 | 0xFFF9640A  |  4294534154 |
|       4 | 0xFFFFFD4F  |  4294966607 |
|       5 | 0x0678      |        1656 |
|       6 | 0x03E8      |        1000 |
|       7 | 0x000A      |          10 |
|       8 | 0x00B0      |         176 |
|       9 | 0x028D      |         653 |
|      10 | 0x0014      |          20 |
|      11 | 0x000F      |          15 |
|      12 | 0x028E      |         654 |
|      13 | 0x001E      |          30 |
|      14 | 0xFFF76824  |  4294404132 |
|      15 | 0xFFF94900  |  4294527232 |
|      16 | 0x0CB6      |        3254 |
|      17 | 0x0960      |        2400 |

## Events

### Event 65535

#### Metadata

| Field        | Value   |
|--------------|---------|
| Entrypoint   | 0x0000  |
| Data Size    | 1 bytes |
| Instructions | 1       |

```
      00 01 02 03 04 05 06 07  08 09 0A 0B 0C 0D 0E 0F
      -- -- -- -- -- -- -- --  -- -- -- -- -- -- -- --
0000: 00                                                .               
```

#### Opcodes

```
  0: 0x0000 [0x00] END_REQSTACK()
```

### Event 7

#### Metadata

| Field        | Value   |
|--------------|---------|
| Entrypoint   | 0x0001  |
| Data Size    | 1 bytes |
| Instructions | 1       |

```
      00 01 02 03 04 05 06 07  08 09 0A 0B 0C 0D 0E 0F
      -- -- -- -- -- -- -- --  -- -- -- -- -- -- -- --
0000:    00                                              .              
```

#### Opcodes

```
  0: 0x0001 [0x00] END_REQSTACK()
```

### Event 8

#### Metadata

| Field        | Value   |
|--------------|---------|
| Entrypoint   | 0x0002  |
| Data Size    | 1 bytes |
| Instructions | 1       |

```
      00 01 02 03 04 05 06 07  08 09 0A 0B 0C 0D 0E 0F
      -- -- -- -- -- -- -- --  -- -- -- -- -- -- -- --
0000:       00                                            .             
```

#### Opcodes

```
  0: 0x0002 [0x00] END_REQSTACK()
```

### Event 65535.1

#### Metadata

| Field        | Value    |
|--------------|----------|
| Entrypoint   | 0x0003   |
| Data Size    | 24 bytes |
| Instructions | 5        |

```
      00 01 02 03 04 05 06 07  08 09 0A 0B 0C 0D 0E 0F
      -- -- -- -- -- -- -- --  -- -- -- -- -- -- -- --
0000:          22 00 2F 00 F8  FF FF 7F 6C F8 FF FF 7F     "./.....l....
0010: 00 80 01 80 94 01 F8 FF  FF 7F 00                 ...........     
```

#### Opcodes

```
  0: 0x0003 [0x22] ENTITY_HIDE_FLAG(enabled=0x00)
  1: 0x0005 [0x2F] EventEntity->Render.Flags0 &= ~0x80000 // Bit 19
  2: 0x000B [0x6C] FADE_ENTITY_COLOR(entity_id=EventEntity, end_alpha=0*, fade_time=1*)
  3: 0x0014 [0x94] EventEntity->Render.Flags3 ^= 0x01
  4: 0x001A [0x00] END_REQSTACK()
```

### Event 65535.2

#### Metadata

| Field        | Value    |
|--------------|----------|
| Entrypoint   | 0x001B   |
| Data Size    | 17 bytes |
| Instructions | 4        |

```
      00 01 02 03 04 05 06 07  08 09 0A 0B 0C 0D 0E 0F
      -- -- -- -- -- -- -- --  -- -- -- -- -- -- -- --
0010:                                   5E 31 74 6C 30             ^1tl0
0020: 33 01 37 02 80 03 80 04  80 05 80 00              3.7.........    
```

#### Opcodes

```
  0: 0x001B [0x5E] EventEntity goes idle (kills current action) (animation: "1tl0")
  1: 0x0020 [0x33] EventEntity->Render.Flags0 |= 0x200000 // Bit 21 (flag=0x01)
  2: 0x0022 [0x37] UPDATE_EVENT_POSITION_AND_DIR: x=-549.128*, z=-433.142*, y=-0.689*, direction=145.5°*
  3: 0x002B [0x00] END_REQSTACK()
```

### Event 65535.3

#### Metadata

| Field        | Value    |
|--------------|----------|
| Entrypoint   | 0x002C   |
| Data Size    | 72 bytes |
| Instructions | 11       |

```
      00 01 02 03 04 05 06 07  08 09 0A 0B 0C 0D 0E 0F
      -- -- -- -- -- -- -- --  -- -- -- -- -- -- -- --
0020:                                      3A F8 FF FF              :...
0030: 7F 01 00 03 00 00 00 80  02 00 00 06 80 01 53 00  ..............S.
0040: 07 00 00 07 80 08 01 00  07 80 39 01 00 1C 01 80  ..........9.....
0050: 01 38 00 45 08 80 F0 FF  FF 7F F0 FF FF 7F 68 6F  .8.E..........ho
0060: 75 31 00 80 5B 09 80 ED  80 00 01 ED 80 00 01 68  u1..[..........h
0070: 6F 75 31 00                                       ou1.            
```

#### Opcodes

```
  0: 0x002C [0x3A] CONVERT_YAW_TO_BYTE(entity=EventEntity, result_destination=ExtData[1]->WorkLocal[1])
  1: 0x0033 [0x03] ExtData[1]->WorkLocal[0] = 0*
  2: 0x0038 [0x02] IF !(ExtData[1]->WorkLocal[0] == 1000*) GOTO 0x0053
  3: 0x0040 [0x07] ExtData[1]->WorkLocal[0] += 10*
  4: 0x0045 [0x08] ExtData[1]->WorkLocal[1] -= 10*
  5: 0x004A [0x39] SET_ENTITY_DIRECTION(direction=ExtData[1]->WorkLocal[1])
  6: 0x004D [0x1C] WAIT(1* ticks)
  7: 0x0050 [0x01] GOTO 0x0038
  8: 0x0053 [0x45] LOAD_SCHEDULED_TASK: Load scheduler "hou1" with entities [LocalPlayer, LocalPlayer], work=[176*, 0*]
  9: 0x0064 [0x5B] LOAD_EXT_SCHEDULER: Load scheduler "hou1" with entities [Unnamed NPC (ID: 16810221/0x010080ED), Unnamed NPC (ID: 16810221/0x010080ED)], work=653*
 10: 0x0073 [0x00] END_REQSTACK()
```

### Event 65535.4

#### Metadata

| Field        | Value    |
|--------------|----------|
| Entrypoint   | 0x0074   |
| Data Size    | 78 bytes |
| Instructions | 13       |

```
      00 01 02 03 04 05 06 07  08 09 0A 0B 0C 0D 0E 0F
      -- -- -- -- -- -- -- --  -- -- -- -- -- -- -- --
0070:             3A F8 FF FF  7F 01 00 03 00 00 00 80      :...........
0080: 02 00 00 06 80 01 9B 00  07 00 00 0A 80 07 01 00  ................
0090: 0A 80 39 01 00 1C 01 80  01 80 00 1C 0B 80 5B 0C  ..9...........[.
00A0: 80 ED 80 00 01 ED 80 00  01 73 74 64 30 1C 0D 80  .........std0...
00B0: 45 08 80 F0 FF FF 7F F0  FF FF 7F 68 6F 75 30 00  E..........hou0.
00C0: 80 00                                             ..              
```

#### Opcodes

```
  0: 0x0074 [0x3A] CONVERT_YAW_TO_BYTE(entity=EventEntity, result_destination=ExtData[1]->WorkLocal[1])
  1: 0x007B [0x03] ExtData[1]->WorkLocal[0] = 0*
  2: 0x0080 [0x02] IF !(ExtData[1]->WorkLocal[0] == 1000*) GOTO 0x009B
  3: 0x0088 [0x07] ExtData[1]->WorkLocal[0] += 20*
  4: 0x008D [0x07] ExtData[1]->WorkLocal[1] += 20*
  5: 0x0092 [0x39] SET_ENTITY_DIRECTION(direction=ExtData[1]->WorkLocal[1])
  6: 0x0095 [0x1C] WAIT(1* ticks)
  7: 0x0098 [0x01] GOTO 0x0080
  8: 0x009B [0x1C] WAIT(15* ticks)
  9: 0x009E [0x5B] LOAD_EXT_SCHEDULER: Load scheduler "std0" with entities [Unnamed NPC (ID: 16810221/0x010080ED), Unnamed NPC (ID: 16810221/0x010080ED)], work=654*
 10: 0x00AD [0x1C] WAIT(30* ticks)
 11: 0x00B0 [0x45] LOAD_SCHEDULED_TASK: Load scheduler "hou0" with entities [LocalPlayer, LocalPlayer], work=[176*, 0*]
 12: 0x00C1 [0x00] END_REQSTACK()
```

### Event 65535.5

#### Metadata

| Field        | Value    |
|--------------|----------|
| Entrypoint   | 0x00C2   |
| Data Size    | 17 bytes |
| Instructions | 4        |

```
      00 01 02 03 04 05 06 07  08 09 0A 0B 0C 0D 0E 0F
      -- -- -- -- -- -- -- --  -- -- -- -- -- -- -- --
00C0:       5E 31 74 6C 30 33  01 37 0E 80 0F 80 10 80    ^1tl03.7......
00D0: 11 80 00                                          ...             
```

#### Opcodes

```
  0: 0x00C2 [0x5E] EventEntity goes idle (kills current action) (animation: "1tl0")
  1: 0x00C7 [0x33] EventEntity->Render.Flags0 |= 0x200000 // Bit 21 (flag=0x01)
  2: 0x00C9 [0x37] UPDATE_EVENT_POSITION_AND_DIR: x=-563.164*, z=-440.064*, y=3.254*, direction=210.9°*
  3: 0x00D2 [0x00] END_REQSTACK()
```
