# 16810215

## Common Data

| Field            | Value                  |
|------------------|------------------------|
| Zone             | Boneyard Gully (ID: 8) |
| Block Size       | 8024 bytes             |
| Total Events     | 7                      |
| References Count | 143                    |

## List of Events

| Event ID                 | Entrypoint   |   Size |   Instructions |
|--------------------------|--------------|--------|----------------|
| [65535](#event-65535)    | 0x0000       |      1 |              1 |
| [65535.1](#event-655351) | 0x0001       |   2180 |            290 |
| [65535.2](#event-655352) | 0x0885       |   2035 |            256 |
| [32000](#event-32000)    | 0x1078       |      7 |              2 |
| [32001](#event-32001)    | 0x107F       |      7 |              2 |
| [7](#event-7)            | 0x1086       |   1204 |            168 |
| [8](#event-8)            | 0x153A       |   1971 |            241 |

## DAT References (imed_data)

|   Index | Hex Value   |   Dec Value |
|---------|-------------|-------------|
|       0 | 0x003C      |          60 |
|       1 | 0x00AE      |         174 |
|       2 | 0x0000      |           0 |
|       3 | 0x00C8      |         200 |
|       4 | 0x012C      |         300 |
|       5 | 0x1DCC      |        7628 |
|       6 | 0x1DCD      |        7629 |
|       7 | 0x1DCE      |        7630 |
|       8 | 0x1DCF      |        7631 |
|       9 | 0x1DD0      |        7632 |
|      10 | 0x00DC      |         220 |
|      11 | 0x0005      |           5 |
|      12 | 0x1DD1      |        7633 |
|      13 | 0x1DD2      |        7634 |
|      14 | 0x1DD3      |        7635 |
|      15 | 0x1DD4      |        7636 |
|      16 | 0x1DD5      |        7637 |
|      17 | 0x1DD6      |        7638 |
|      18 | 0x1DD7      |        7639 |
|      19 | 0x1DD8      |        7640 |
|      20 | 0x1DD9      |        7641 |
|      21 | 0x1DDA      |        7642 |
|      22 | 0x1DDB      |        7643 |
|      23 | 0x1DDC      |        7644 |
|      24 | 0x1DDD      |        7645 |
|      25 | 0x1DDE      |        7646 |
|      26 | 0x0400      |        1024 |
|      27 | 0x0014      |          20 |
|      28 | 0x1DDF      |        7647 |
|      29 | 0x1DE0      |        7648 |
|      30 | 0x1DE1      |        7649 |
|      31 | 0x1DE2      |        7650 |
|      32 | 0x0001      |           1 |
|      33 | 0x1DE4      |        7652 |
|      34 | 0x1DE3      |        7651 |
|      35 | 0x1DE5      |        7653 |
|      36 | 0x1DE6      |        7654 |
|      37 | 0x1DE7      |        7655 |
|      38 | 0x1DE8      |        7656 |
|      39 | 0x1DE9      |        7657 |
|      40 | 0x1DEA      |        7658 |
|      41 | 0x1DEB      |        7659 |
|      42 | 0x1DEC      |        7660 |
|      43 | 0x0032      |          50 |
|      44 | 0x1DED      |        7661 |
|      45 | 0x1DEE      |        7662 |
|      46 | 0x1DEF      |        7663 |
|      47 | 0x1DF0      |        7664 |
|      48 | 0x0003      |           3 |
|      49 | 0x0006      |           6 |
|      50 | 0x0008      |           8 |
|      51 | 0x1DF1      |        7665 |
|      52 | 0x1DF3      |        7667 |
|      53 | 0x1DF4      |        7668 |
|      54 | 0x1DF5      |        7669 |
|      55 | 0x1DF6      |        7670 |
|      56 | 0x1DF7      |        7671 |
|      57 | 0x1DF8      |        7672 |
|      58 | 0x1DF9      |        7673 |
|      59 | 0x1DFA      |        7674 |
|      60 | 0x1DFB      |        7675 |
|      61 | 0x1DFC      |        7676 |
|      62 | 0x1DFD      |        7677 |
|      63 | 0x1DFE      |        7678 |
|      64 | 0x1DFF      |        7679 |
|      65 | 0x1E00      |        7680 |
|      66 | 0x1E01      |        7681 |
|      67 | 0x00C9      |         201 |
|      68 | 0x0078      |         120 |
|      69 | 0x00F4      |         244 |
|      70 | 0x003D      |          61 |
|      71 | 0x000C      |          12 |
|      72 | 0x0064      |         100 |
|      73 | 0x0190      |         400 |
|      74 | 0x1E03      |        7683 |
|      75 | 0x1E04      |        7684 |
|      76 | 0xFFF50644  |  4294248004 |
|      77 | 0xFFF945AD  |  4294526381 |
|      78 | 0x1950      |        6480 |
|      79 | 0x09F0      |        2544 |
|      80 | 0x001E      |          30 |
|      81 | 0x001C      |          28 |
|      82 | 0x1E06      |        7686 |
|      83 | 0x1E07      |        7687 |
|      84 | 0x1E08      |        7688 |
|      85 | 0x1E09      |        7689 |
|      86 | 0x0028      |          40 |
|      87 | 0x0063      |          99 |
|      88 | 0x0013      |          19 |
|      89 | 0x000F      |          15 |
|      90 | 0x00B0      |         176 |
|      91 | 0x1E0A      |        7690 |
|      92 | 0x003B      |          59 |
|      93 | 0x1E0B      |        7691 |
|      94 | 0x1E0C      |        7692 |
|      95 | 0x0016      |          22 |
|      96 | 0x1E0D      |        7693 |
|      97 | 0x007F      |         127 |
|      98 | 0x1E0E      |        7694 |
|      99 | 0x0007      |           7 |
|     100 | 0x1E0F      |        7695 |
|     101 | 0x1E10      |        7696 |
|     102 | 0x1E11      |        7697 |
|     103 | 0x1E12      |        7698 |
|     104 | 0x005A      |          90 |
|     105 | 0x0299      |         665 |
|     106 | 0x1E13      |        7699 |
|     107 | 0x1E14      |        7700 |
|     108 | 0x1E15      |        7701 |
|     109 | 0x1E16      |        7702 |
|     110 | 0x00DB      |         219 |
|     111 | 0x1E17      |        7703 |
|     112 | 0x0065      |         101 |
|     113 | 0x1E18      |        7704 |
|     114 | 0x1E1A      |        7706 |
|     115 | 0x002D      |          45 |
|     116 | 0x1E19      |        7705 |
|     117 | 0x028D      |         653 |
|     118 | 0x1E1B      |        7707 |
|     119 | 0x1E1C      |        7708 |
|     120 | 0x1E1D      |        7709 |
|     121 | 0x1E1E      |        7710 |
|     122 | 0x029A      |         666 |
|     123 | 0x1E1F      |        7711 |
|     124 | 0x1E20      |        7712 |
|     125 | 0x0020      |          32 |
|     126 | 0x1E21      |        7713 |
|     127 | 0x1E22      |        7714 |
|     128 | 0x1E23      |        7715 |
|     129 | 0x1E24      |        7716 |
|     130 | 0x1E25      |        7717 |
|     131 | 0x1E26      |        7718 |
|     132 | 0x1E27      |        7719 |
|     133 | 0x1E28      |        7720 |
|     134 | 0x0096      |         150 |
|     135 | 0x0168      |         360 |
|     136 | 0x001D      |          29 |
|     137 | 0x1E29      |        7721 |
|     138 | 0x1E2A      |        7722 |
|     139 | 0x1E2C      |        7724 |
|     140 | 0x1E2B      |        7723 |
|     141 | 0x0002      |           2 |
|     142 | 0x00D7      |         215 |

## Events

### Event 65535

#### Metadata

| Field        | Value   |
|--------------|---------|
| Entrypoint   | 0x0000  |
| Data Size    | 1 bytes |
| Instructions | 1       |

```
      00 01 02 03 04 05 06 07  08 09 0A 0B 0C 0D 0E 0F
      -- -- -- -- -- -- -- --  -- -- -- -- -- -- -- --
0000: 00                                                .               
```

#### Opcodes

```
  0: 0x0000 [0x00] END_REQSTACK()
```

### Event 65535.1

#### Metadata

| Field        | Value      |
|--------------|------------|
| Entrypoint   | 0x0001     |
| Data Size    | 2180 bytes |
| Instructions | 290        |

```
      00 01 02 03 04 05 06 07  08 09 0A 0B 0C 0D 0E 0F
      -- -- -- -- -- -- -- --  -- -- -- -- -- -- -- --
0000:    29 08 F0 FF FF 7F 09  4E 00 EA 80 00 01 4E 00   )......N.....N.
0010: EC 80 00 01 80 EA 80 00  01 80 EC 80 00 01 29 0B  ..............).
0020: EA 80 00 01 34 29 0B F0  FF FF 7F 0C 29 0B EB 80  ....4)......)...
0030: 00 01 3B 29 0B E8 80 00  01 8F 29 0B E9 80 00 01  ..;)......).....
0040: 43 29 0B EC 80 00 01 39  79 00 EC 80 00 01 EA 80  C).....9y.......
0050: 00 01 4E 01 EB 80 00 01  4E 01 E8 80 00 01 4E 01  ..N.....N.....N.
0060: E9 80 00 01 4E 01 F0 FF  FF 7F 1C 00 80 45 01 80  ....N........E..
0070: F8 FF FF 7F F8 FF FF 7F  73 30 31 38 02 80 45 03  ........s018..E.
0080: 80 F8 FF FF 7F F8 FF FF  7F 66 64 69 31 02 80 1C  .........fdi1...
0090: 04 80 52 01 80 F8 FF FF  7F F8 FF FF 7F 73 30 31  ..R..........s01
00A0: 38 45 03 80 F0 FF FF 7F  F0 FF FF 7F 6F 76 6C 31  8E..........ovl1
00B0: 02 80 45 01 80 F8 FF FF  7F F8 FF FF 7F 73 30 31  ..E..........s01
00C0: 39 02 80 1C 03 80 2B EA  80 00 01 05 80 23 52 01  9.....+......#R.
00D0: 80 F8 FF FF 7F F8 FF FF  7F 73 30 31 39 45 03 80  .........s019E..
00E0: F0 FF FF 7F F0 FF FF 7F  6F 76 6C 31 02 80 45 01  ........ovl1..E.
00F0: 80 F8 FF FF 7F F8 FF FF  7F 73 30 32 30 02 80 4E  .........s020..N
0100: 00 EB 80 00 01 4E 00 E8  80 00 01 4E 00 E9 80 00  .....N.....N....
0110: 01 4E 00 F0 FF FF 7F 29  08 EA 80 00 01 09 2B EA  .N.....)......+.
0120: 80 00 01 06 80 23 2B EA  80 00 01 07 80 23 52 01  .....#+......#R.
0130: 80 F8 FF FF 7F F8 FF FF  7F 73 30 32 30 45 01 80  .........s020E..
0140: F8 FF FF 7F F8 FF FF 7F  73 30 37 35 02 80 29 08  ........s075..).
0150: EC 80 00 01 20 2B EC 80  00 01 08 80 23 2B EC 80  .... +......#+..
0160: 00 01 09 80 23 29 08 EC  80 00 01 21 29 08 EA 80  ....#).....!)...
0170: 00 01 0A 29 08 EC 80 00  01 22 80 EB 80 00 01 80  ...)....."......
0180: E8 80 00 01 80 E9 80 00  01 80 F0 FF FF 7F 79 00  ..............y.
0190: EB 80 00 01 EA 80 00 01  79 00 E8 80 00 01 EA 80  ........y.......
01A0: 00 01 79 00 E9 80 00 01  EA 80 00 01 79 00 F0 FF  ..y.........y...
01B0: FF 7F EA 80 00 01 5C 00  0A 80 5C 01 0A 80 27 0B  ......\...\...'.
01C0: EB 80 00 01 3C 1C 0B 80  52 01 80 F8 FF FF 7F F8  ....<...R.......
01D0: FF FF 7F 73 30 37 35 45  01 80 F8 FF FF 7F F8 FF  ...s075E........
01E0: FF 7F 73 30 32 31 02 80  27 0B EA 80 00 01 35 2B  ..s021..'.....5+
01F0: EB 80 00 01 0C 80 23 2A  0B EB 80 00 01 29 08 EC  ......#*.....)..
0200: 80 00 01 23 27 0B EC 80  00 01 3B 2B EC 80 00 01  ...#'.....;+....
0210: 0D 80 23 1C 00 80 27 0B  E8 80 00 01 90 2A 0B EA  ..#...'......*..
0220: 80 00 01 2A 0B E8 80 00  01 2A 0B EC 80 00 01 27  ...*.....*.....'
0230: 0B E9 80 00 01 44 27 0B  EA 80 00 01 36 1C 0B 80  .....D'.....6...
0240: 52 01 80 F8 FF FF 7F F8  FF FF 7F 73 30 32 31 45  R..........s021E
0250: 01 80 F8 FF FF 7F F8 FF  FF 7F 73 30 32 32 02 80  ..........s022..
0260: 2B EA 80 00 01 0E 80 23  2A 0B EA 80 00 01 52 01  +......#*.....R.
0270: 80 F8 FF FF 7F F8 FF FF  7F 73 30 32 32 45 01 80  .........s022E..
0280: F8 FF FF 7F F8 FF FF 7F  73 30 32 33 02 80 29 0B  ........s023..).
0290: EB 80 00 01 3D 4A EB 80  00 01 EA 80 00 01 27 0B  ....=J........'.
02A0: EA 80 00 01 37 2B EA 80  00 01 0F 80 23 2A 0B EA  ....7+......#*..
02B0: 80 00 01 6F 76 EB 80 00  01 52 01 80 F8 FF FF 7F  ...ov....R......
02C0: F8 FF FF 7F 73 30 32 33  45 01 80 F8 FF FF 7F F8  ....s023E.......
02D0: FF FF 7F 73 30 32 34 02  80 79 00 E9 80 00 01 E8  ...s024..y......
02E0: 80 00 01 79 00 EB 80 00  01 E8 80 00 01 27 0B E8  ...y.........'..
02F0: 80 00 01 91 2B E8 80 00  01 10 80 23 29 08 EB 80  ....+......#)...
0300: 00 01 0E 2B EB 80 00 01  11 80 23 29 08 EB 80 00  ...+......#)....
0310: 01 0F 2A 0B E8 80 00 01  52 01 80 F8 FF FF 7F F8  ..*.....R.......
0320: FF FF 7F 73 30 32 34 45  01 80 F8 FF FF 7F F8 FF  ...s024E........
0330: FF 7F 73 30 32 35 02 80  29 08 EB 80 00 01 10 79  ..s025..)......y
0340: 00 EB 80 00 01 EA 80 00  01 29 08 EA 80 00 01 17  .........)......
0350: 2B EA 80 00 01 12 80 23  29 08 EA 80 00 01 18 52  +......#)......R
0360: 01 80 F8 FF FF 7F F8 FF  FF 7F 73 30 32 35 45 01  ..........s025E.
0370: 80 F8 FF FF 7F F8 FF FF  7F 73 30 32 36 02 80 29  .........s026..)
0380: 08 EA 80 00 01 19 2B EA  80 00 01 13 80 23 2B EA  ......+......#+.
0390: 80 00 01 14 80 23 29 08  EB 80 00 01 11 52 01 80  .....#)......R..
03A0: F8 FF FF 7F F8 FF FF 7F  73 30 32 36 45 01 80 F8  ........s026E...
03B0: FF FF 7F F8 FF FF 7F 73  30 37 36 02 80 29 08 E9  .......s076..)..
03C0: 80 00 01 1B 79 00 EB 80  00 01 E8 80 00 01 2B EA  ....y.........+.
03D0: 80 00 01 15 80 23 52 01  80 F8 FF FF 7F F8 FF FF  .....#R.........
03E0: 7F 73 30 37 36 45 03 80  F0 FF FF 7F F0 FF FF 7F  .s076E..........
03F0: 6F 76 6C 31 02 80 45 01  80 F8 FF FF 7F F8 FF FF  ovl1..E.........
0400: 7F 73 30 32 37 02 80 29  0B EC 80 00 01 3C 4A EC  .s027..).....<J.
0410: 80 00 01 E8 80 00 01 2B  EA 80 00 01 16 80 23 29  .......+......#)
0420: 08 EA 80 00 01 1A 6F 76  EC 80 00 01 52 01 80 F8  ......ov....R...
0430: FF FF 7F F8 FF FF 7F 73  30 32 37 45 01 80 F8 FF  .......s027E....
0440: FF 7F F8 FF FF 7F 73 30  32 38 02 80 7B EA 80 00  ......s028..{...
0450: 01 29 08 EA 80 00 01 09  2B EA 80 00 01 17 80 23  .)......+......#
0460: 2B EA 80 00 01 18 80 23  29 08 EA 80 00 01 0A 29  +......#)......)
0470: 08 EA 80 00 01 0B 2B EA  80 00 01 19 80 23 29 08  ......+......#).
0480: EA 80 00 01 0C 52 01 80  F8 FF FF 7F F8 FF FF 7F  .....R..........
0490: 73 30 32 38 45 01 80 F8  FF FF 7F F8 FF FF 7F 73  s028E..........s
04A0: 30 33 30 02 80 4B EA 80  00 01 1A 80 29 0B E8 80  030..K......)...
04B0: 00 01 92 1C 1B 80 2B E8  80 00 01 1C 80 23 29 08  ......+......#).
04C0: E8 80 00 01 17 2B E8 80  00 01 1D 80 23 29 08 E8  .....+......#)..
04D0: 80 00 01 18 29 08 E8 80  00 01 19 2B E8 80 00 01  ....)......+....
04E0: 1E 80 23 29 08 E8 80 00  01 1A 6F 76 EB 80 00 01  ..#)......ov....
04F0: 79 00 EB 80 00 01 EC 80  00 01 52 01 80 F8 FF FF  y.........R.....
0500: 7F F8 FF FF 7F 73 30 33  30 45 01 80 F8 FF FF 7F  .....s030E......
0510: F8 FF FF 7F 73 30 33 31  02 80 4A E8 80 00 01 EC  ....s031..J.....
0520: 80 00 01 4A EA 80 00 01  E8 80 00 01 2B EC 80 00  ...J........+...
0530: 01 1F 80 23 29 08 E9 80  00 01 1C 6F 76 E8 80 00  ...#)......ov...
0540: 01 6F 76 EA 80 00 01 52  01 80 F8 FF FF 7F F8 FF  .ov....R........
0550: FF 7F 73 30 33 31 45 01  80 F8 FF FF 7F F8 FF FF  ..s031E.........
0560: 7F 73 30 33 32 02 80 29  08 E9 80 00 01 1D 79 00  .s032..)......y.
0570: E8 80 00 01 EB 80 00 01  4A E8 80 00 01 EB 80 00  ........J.......
0580: 01 02 03 10 20 80 00 94  05 2B EB 80 00 01 21 80  .... ....+....!.
0590: 23 01 9C 05 2B EB 80 00  01 22 80 23 6F 76 E8 80  #...+....".#ov..
05A0: 00 01 7B E8 80 00 01 29  08 E8 80 00 01 1F 2B E8  ..{....)......+.
05B0: 80 00 01 23 80 23 29 08  E8 80 00 01 20 29 08 E9  ...#.#)..... )..
05C0: 80 00 01 1E 52 01 80 F8  FF FF 7F F8 FF FF 7F 73  ....R..........s
05D0: 30 33 32 45 01 80 F8 FF  FF 7F F8 FF FF 7F 73 30  032E..........s0
05E0: 33 33 02 80 4A E8 80 00  01 EA 80 00 01 79 00 EB  33..J........y..
05F0: 80 00 01 E8 80 00 01 29  08 E8 80 00 01 21 2B EA  .......).....!+.
0600: 80 00 01 24 80 23 29 08  E8 80 00 01 22 29 08 EA  ...$.#).....")..
0610: 80 00 01 05 2B EA 80 00  01 25 80 23 2B EA 80 00  ....+....%.#+...
0620: 01 26 80 23 29 08 EA 80  00 01 06 6F 76 E8 80 00  .&.#)......ov...
0630: 01 52 01 80 F8 FF FF 7F  F8 FF FF 7F 73 30 33 33  .R..........s033
0640: 45 01 80 F8 FF FF 7F F8  FF FF 7F 73 30 33 34 02  E..........s034.
0650: 80 29 08 EA 80 00 01 07  2B EA 80 00 01 27 80 23  .)......+....'.#
0660: 29 08 E8 80 00 01 3D 2B  E8 80 00 01 28 80 23 2B  ).....=+....(.#+
0670: E8 80 00 01 29 80 23 29  08 E8 80 00 01 3E 29 08  ....).#).....>).
0680: EA 80 00 01 08 52 01 80  F8 FF FF 7F F8 FF FF 7F  .....R..........
0690: 73 30 33 34 45 01 80 F8  FF FF 7F F8 FF FF 7F 73  s034E..........s
06A0: 30 33 35 02 80 29 08 E8  80 00 01 3F 27 08 EC 80  035..).....?'...
06B0: 00 01 34 2B EC 80 00 01  2A 80 23 1C 2B 80 27 0B  ..4+....*.#.+.'.
06C0: EA 80 00 01 38 2B EA 80  00 01 2C 80 23 29 08 E8  ....8+....,.#)..
06D0: 80 00 01 40 2A 0B EA 80  00 01 52 01 80 F8 FF FF  ...@*.....R.....
06E0: 7F F8 FF FF 7F 73 30 33  35 45 01 80 F8 FF FF 7F  .....s035E......
06F0: F8 FF FF 7F 73 30 33 36  02 80 2B EA 80 00 01 2D  ....s036..+....-
0700: 80 23 2A 08 EC 80 00 01  52 01 80 F8 FF FF 7F F8  .#*.....R.......
0710: FF FF 7F 73 30 33 36 45  01 80 F8 FF FF 7F F8 FF  ...s036E........
0720: FF 7F 73 65 38 31 02 80  29 08 EC 80 00 01 30 27  ..se81..).....0'
0730: 0B E8 80 00 01 93 4A EB  80 00 01 F0 FF FF 7F 29  ......J........)
0740: 08 E9 80 00 01 1B 2B EC  80 00 01 2E 80 23 6F 76  ......+......#ov
0750: EB 80 00 01 2A 0B E8 80  00 01 52 01 80 E8 80 00  ....*.....R.....
0760: 01 E8 80 00 01 73 30 33  38 27 0B E8 80 00 01 94  .....s038'......
0770: 29 08 E8 80 00 01 85 45  01 80 F8 FF FF 7F F8 FF  )......E........
0780: FF 7F 36 30 37 39 02 80  29 08 EB 80 00 01 1B 2B  ..6079..)......+
0790: EB 80 00 01 2F 80 23 29  08 EB 80 00 01 1C 2A 0B  ..../.#)......*.
07A0: E8 80 00 01 02 09 10 30  80 00 BE 07 52 01 80 E8  .......0....R...
07B0: 80 00 01 E8 80 00 01 73  30 34 34 01 1B 08 02 09  .......s044.....
07C0: 10 0B 80 00 D8 07 52 01  80 E8 80 00 01 E8 80 00  ......R.........
07D0: 01 73 30 34 33 01 1B 08  02 09 10 31 80 00 F2 07  .s043......1....
07E0: 52 01 80 E8 80 00 01 E8  80 00 01 73 30 34 33 01  R..........s043.
07F0: 1B 08 02 09 10 32 80 00  0C 08 52 01 80 E8 80 00  .....2....R.....
0800: 01 E8 80 00 01 73 30 34  34 01 1B 08 52 01 80 E8  .....s044...R...
0810: 80 00 01 E8 80 00 01 73  30 34 30 27 0B E8 80 00  .......s040'....
0820: 01 95 45 01 80 F8 FF FF  7F F8 FF FF 7F 36 30 37  ..E..........607
0830: 39 02 80 29 08 EA 80 00  01 23 2B EA 80 00 01 33  9..).....#+....3
0840: 80 23 29 08 EA 80 00 01  24 29 08 E8 80 00 01 86  .#).....$)......
0850: 45 03 80 F0 FF FF 7F F0  FF FF 7F 66 64 6F 31 02  E..........fdo1.
0860: 80 1C 00 80 2A 0B E8 80  00 01 52 01 80 F8 FF FF  ....*.....R.....
0870: 7F F8 FF FF 7F 73 30 34  32 4E 00 F0 FF FF 7F 80  .....s042N......
0880: F0 FF FF 7F 00                                    .....           
```

#### Opcodes

```
  0: 0x0001 [0x29] REQ_SET_WAIT(priority=0x08, entity_id=LocalPlayer, tag_num=0x09)
  1: 0x0008 [0x4E] SET_ENTITY_HIDE_FLAG: Show Shikaree Z (ID: 16810218/0x010080EA)
  2: 0x000E [0x4E] SET_ENTITY_HIDE_FLAG: Show Shikaree X (ID: 16810220/0x010080EC)
  3: 0x0014 [0x80] LOAD_WAIT(entity=Shikaree Z (ID: 16810218/0x010080EA))
  4: 0x0019 [0x80] LOAD_WAIT(entity=Shikaree X (ID: 16810220/0x010080EC))
  5: 0x001E [0x29] REQ_SET_WAIT(priority=0x0B, entity_id=Shikaree Z (ID: 16810218/0x010080EA), tag_num=0x34)
  6: 0x0025 [0x29] REQ_SET_WAIT(priority=0x0B, entity_id=LocalPlayer, tag_num=0x0C)
  7: 0x002C [0x29] REQ_SET_WAIT(priority=0x0B, entity_id=Shikaree Y (ID: 16810219/0x010080EB), tag_num=0x3B)
  8: 0x0033 [0x29] REQ_SET_WAIT(priority=0x0B, entity_id=Prishe (ID: 16810216/0x010080E8), tag_num=0x8F)
  9: 0x003A [0x29] REQ_SET_WAIT(priority=0x0B, entity_id=Ulmia (ID: 16810217/0x010080E9), tag_num=0x43)
 10: 0x0041 [0x29] REQ_SET_WAIT(priority=0x0B, entity_id=Shikaree X (ID: 16810220/0x010080EC), tag_num=0x39)
 11: 0x0048 [0x79] Shikaree X (ID: 16810220/0x010080EC) looks at Shikaree Z (ID: 16810218/0x010080EA) (Basic look)
 12: 0x0052 [0x4E] SET_ENTITY_HIDE_FLAG: Hide Shikaree Y (ID: 16810219/0x010080EB)
 13: 0x0058 [0x4E] SET_ENTITY_HIDE_FLAG: Hide Prishe (ID: 16810216/0x010080E8)
 14: 0x005E [0x4E] SET_ENTITY_HIDE_FLAG: Hide Ulmia (ID: 16810217/0x010080E9)
 15: 0x0064 [0x4E] SET_ENTITY_HIDE_FLAG: Hide LocalPlayer
 16: 0x006A [0x1C] WAIT(60* ticks)
 17: 0x006D [0x45] LOAD_SCHEDULED_TASK: Load scheduler "s018" with entities [EventEntity, EventEntity], work=[174*, 0*]
 18: 0x007E [0x45] LOAD_SCHEDULED_TASK: Load scheduler "fdi1" with entities [EventEntity, EventEntity], work=[200*, 0*]
 19: 0x008F [0x1C] WAIT(300* ticks)
 20: 0x0092 [0x52] END_LOAD_SCHEDULER: End scheduler "s018" with entities [EventEntity, EventEntity], work=174*
 21: 0x00A1 [0x45] LOAD_SCHEDULED_TASK: Load scheduler "ovl1" with entities [LocalPlayer, LocalPlayer], work=[200*, 0*]
 22: 0x00B2 [0x45] LOAD_SCHEDULED_TASK: Load scheduler "s019" with entities [EventEntity, EventEntity], work=[174*, 0*]
 23: 0x00C3 [0x1C] WAIT(200* ticks)
 24: 0x00C6 [0x2B] Shikaree Z (ID: 16810218/0x010080EA) [7628*]:
    → "So Mildaurion wasn't in the safehold after all."
 25: 0x00CD [0x23] WAIT_FOR_DIALOG_INTERACTION
 26: 0x00CE [0x52] END_LOAD_SCHEDULER: End scheduler "s019" with entities [EventEntity, EventEntity], work=174*
 27: 0x00DD [0x45] LOAD_SCHEDULED_TASK: Load scheduler "ovl1" with entities [LocalPlayer, LocalPlayer], work=[200*, 0*]
 28: 0x00EE [0x45] LOAD_SCHEDULED_TASK: Load scheduler "s020" with entities [EventEntity, EventEntity], work=[174*, 0*]
 29: 0x00FF [0x4E] SET_ENTITY_HIDE_FLAG: Show Shikaree Y (ID: 16810219/0x010080EB)
 30: 0x0105 [0x4E] SET_ENTITY_HIDE_FLAG: Show Prishe (ID: 16810216/0x010080E8)
 31: 0x010B [0x4E] SET_ENTITY_HIDE_FLAG: Show Ulmia (ID: 16810217/0x010080E9)
 32: 0x0111 [0x4E] SET_ENTITY_HIDE_FLAG: Show LocalPlayer
 33: 0x0117 [0x29] REQ_SET_WAIT(priority=0x08, entity_id=Shikaree Z (ID: 16810218/0x010080EA), tag_num=0x09)
 34: 0x011E [0x2B] Shikaree Z (ID: 16810218/0x010080EA) [7629*]:
    → "Her whereabouts may still elude us, but I am certain the cardinal lives."
 35: 0x0125 [0x23] WAIT_FOR_DIALOG_INTERACTION
 36: 0x0126 [0x2B] Shikaree Z (ID: 16810218/0x010080EA) [7630*]:
    → "Mildaurion must be found and punished for her sins before the whole world ends up like this barren land..."
 37: 0x012D [0x23] WAIT_FOR_DIALOG_INTERACTION
 38: 0x012E [0x52] END_LOAD_SCHEDULER: End scheduler "s020" with entities [EventEntity, EventEntity], work=174*
 39: 0x013D [0x45] LOAD_SCHEDULED_TASK: Load scheduler "s075" with entities [EventEntity, EventEntity], work=[174*, 0*]
 40: 0x014E [0x29] REQ_SET_WAIT(priority=0x08, entity_id=Shikaree X (ID: 16810220/0x010080EC), tag_num=0x20)
 41: 0x0155 [0x2B] Shikaree X (ID: 16810220/0x010080EC) [7631*]:
    → "Leave it up to me, sis. Once I track down the theologian, Prishe, she'll be able to tell me where the carrrdinal is hiding."
 42: 0x015C [0x23] WAIT_FOR_DIALOG_INTERACTION
 43: 0x015D [0x2B] Shikaree X (ID: 16810220/0x010080EC) [7632*]:
    → "Prishe's trrrail leads to the Rhinostery in Windurst. I'll head there rrright now!"
 44: 0x0164 [0x23] WAIT_FOR_DIALOG_INTERACTION
 45: 0x0165 [0x29] REQ_SET_WAIT(priority=0x08, entity_id=Shikaree X (ID: 16810220/0x010080EC), tag_num=0x21)
 46: 0x016C [0x29] REQ_SET_WAIT(priority=0x08, entity_id=Shikaree Z (ID: 16810218/0x010080EA), tag_num=0x0A)
 47: 0x0173 [0x29] REQ_SET_WAIT(priority=0x08, entity_id=Shikaree X (ID: 16810220/0x010080EC), tag_num=0x22)
 48: 0x017A [0x80] LOAD_WAIT(entity=Shikaree Y (ID: 16810219/0x010080EB))
 49: 0x017F [0x80] LOAD_WAIT(entity=Prishe (ID: 16810216/0x010080E8))
 50: 0x0184 [0x80] LOAD_WAIT(entity=Ulmia (ID: 16810217/0x010080E9))
 51: 0x0189 [0x80] LOAD_WAIT(entity=LocalPlayer)
 52: 0x018E [0x79] Shikaree Y (ID: 16810219/0x010080EB) looks at Shikaree Z (ID: 16810218/0x010080EA) (Basic look)
 53: 0x0198 [0x79] Prishe (ID: 16810216/0x010080E8) looks at Shikaree Z (ID: 16810218/0x010080EA) (Basic look)
 54: 0x01A2 [0x79] Ulmia (ID: 16810217/0x010080E9) looks at Shikaree Z (ID: 16810218/0x010080EA) (Basic look)
 55: 0x01AC [0x79] LocalPlayer looks at Shikaree Z (ID: 16810218/0x010080EA) (Basic look)
 56: 0x01B6 [0x5C] MUSIC_CONTROL: Set Idle (Day) music to song 220*
 57: 0x01BA [0x5C] MUSIC_CONTROL: Set Idle (Night) music to song 220*
 58: 0x01BE [0x27] REQ_SET(priority=0x0B, entity_id=Shikaree Y (ID: 16810219/0x010080EB), tag_num=0x3C)
 59: 0x01C5 [0x1C] WAIT(5* ticks)
 60: 0x01C8 [0x52] END_LOAD_SCHEDULER: End scheduler "s075" with entities [EventEntity, EventEntity], work=174*
 61: 0x01D7 [0x45] LOAD_SCHEDULED_TASK: Load scheduler "s021" with entities [EventEntity, EventEntity], work=[174*, 0*]
 62: 0x01E8 [0x27] REQ_SET(priority=0x0B, entity_id=Shikaree Z (ID: 16810218/0x010080EA), tag_num=0x35)
 63: 0x01EF [0x2B] Shikaree Y (ID: 16810219/0x010080EB) [7633*]:
    → "Too late, buttercup. You've gotta move faster than that."
 64: 0x01F6 [0x23] WAIT_FOR_DIALOG_INTERACTION
 65: 0x01F7 [0x2A] GET_REQ_LEVEL(level=11, entity_id=Shikaree Y (ID: 16810219/0x010080EB))
 66: 0x01FD [0x29] REQ_SET_WAIT(priority=0x08, entity_id=Shikaree X (ID: 16810220/0x010080EC), tag_num=0x23)
 67: 0x0204 [0x27] REQ_SET(priority=0x0B, entity_id=Shikaree X (ID: 16810220/0x010080EC), tag_num=0x3B)
 68: 0x020B [0x2B] Shikaree X (ID: 16810220/0x010080EC) [7634*]:
    → "How did you...!?"
 69: 0x0212 [0x23] WAIT_FOR_DIALOG_INTERACTION
 70: 0x0213 [0x1C] WAIT(60* ticks)
 71: 0x0216 [0x27] REQ_SET(priority=0x0B, entity_id=Prishe (ID: 16810216/0x010080E8), tag_num=0x90)
 72: 0x021D [0x2A] GET_REQ_LEVEL(level=11, entity_id=Shikaree Z (ID: 16810218/0x010080EA))
 73: 0x0223 [0x2A] GET_REQ_LEVEL(level=11, entity_id=Prishe (ID: 16810216/0x010080E8))
 74: 0x0229 [0x2A] GET_REQ_LEVEL(level=11, entity_id=Shikaree X (ID: 16810220/0x010080EC))
 75: 0x022F [0x27] REQ_SET(priority=0x0B, entity_id=Ulmia (ID: 16810217/0x010080E9), tag_num=0x44)
 76: 0x0236 [0x27] REQ_SET(priority=0x0B, entity_id=Shikaree Z (ID: 16810218/0x010080EA), tag_num=0x36)
 77: 0x023D [0x1C] WAIT(5* ticks)
 78: 0x0240 [0x52] END_LOAD_SCHEDULER: End scheduler "s021" with entities [EventEntity, EventEntity], work=174*
 79: 0x024F [0x45] LOAD_SCHEDULED_TASK: Load scheduler "s022" with entities [EventEntity, EventEntity], work=[174*, 0*]
 80: 0x0260 [0x2B] Shikaree Z (ID: 16810218/0x010080EA) [7635*]:
    → "You...!?"
 81: 0x0267 [0x23] WAIT_FOR_DIALOG_INTERACTION
 82: 0x0268 [0x2A] GET_REQ_LEVEL(level=11, entity_id=Shikaree Z (ID: 16810218/0x010080EA))
 83: 0x026E [0x52] END_LOAD_SCHEDULER: End scheduler "s022" with entities [EventEntity, EventEntity], work=174*
 84: 0x027D [0x45] LOAD_SCHEDULED_TASK: Load scheduler "s023" with entities [EventEntity, EventEntity], work=[174*, 0*]
 85: 0x028E [0x29] REQ_SET_WAIT(priority=0x0B, entity_id=Shikaree Y (ID: 16810219/0x010080EB), tag_num=0x3D)
 86: 0x0295 [0x4A] Shikaree Y (ID: 16810219/0x010080EB) looks at Shikaree Z (ID: 16810218/0x010080EA)
 87: 0x029E [0x27] REQ_SET(priority=0x0B, entity_id=Shikaree Z (ID: 16810218/0x010080EA), tag_num=0x37)
 88: 0x02A5 [0x2B] Shikaree Z (ID: 16810218/0x010080EA) [7636*]:
    → "Prishe!? You haven't changed at all..."
 89: 0x02AC [0x23] WAIT_FOR_DIALOG_INTERACTION
 90: 0x02AD [0x2A] GET_REQ_LEVEL(level=11, entity_id=Shikaree Z (ID: 16810218/0x010080EA))
 91: 0x02B3 [0x6F] WAIT_FRAME_DELAY: Yield until WaitTime reaches zero
 92: 0x02B4 [0x76] CHECK_ENTITY_RENDER_FLAGS: Wait until Shikaree Y (ID: 16810219/0x010080EB) Render.Flags0 and Render.Flags3 conditions are met
 93: 0x02B9 [0x52] END_LOAD_SCHEDULER: End scheduler "s023" with entities [EventEntity, EventEntity], work=174*
 94: 0x02C8 [0x45] LOAD_SCHEDULED_TASK: Load scheduler "s024" with entities [EventEntity, EventEntity], work=[174*, 0*]
 95: 0x02D9 [0x79] Ulmia (ID: 16810217/0x010080E9) looks at Prishe (ID: 16810216/0x010080E8) (Basic look)
 96: 0x02E3 [0x79] Shikaree Y (ID: 16810219/0x010080EB) looks at Prishe (ID: 16810216/0x010080E8) (Basic look)
 97: 0x02ED [0x27] REQ_SET(priority=0x0B, entity_id=Prishe (ID: 16810216/0x010080E8), tag_num=0x91)
 98: 0x02F4 [0x2B] Prishe (ID: 16810216/0x010080E8) [7637*]:
    → "Yeah, I watch my diet. Good to see you're still kicking, too, Miss Tracker. It's been a while."
 99: 0x02FB [0x23] WAIT_FOR_DIALOG_INTERACTION
100: 0x02FC [0x29] REQ_SET_WAIT(priority=0x08, entity_id=Shikaree Y (ID: 16810219/0x010080EB), tag_num=0x0E)
101: 0x0303 [0x2B] Shikaree Y (ID: 16810219/0x010080EB) [7638*]:
    → "A meeting of old friends?"
102: 0x030A [0x23] WAIT_FOR_DIALOG_INTERACTION
103: 0x030B [0x29] REQ_SET_WAIT(priority=0x08, entity_id=Shikaree Y (ID: 16810219/0x010080EB), tag_num=0x0F)
104: 0x0312 [0x2A] GET_REQ_LEVEL(level=11, entity_id=Prishe (ID: 16810216/0x010080E8))
105: 0x0318 [0x52] END_LOAD_SCHEDULER: End scheduler "s024" with entities [EventEntity, EventEntity], work=174*
106: 0x0327 [0x45] LOAD_SCHEDULED_TASK: Load scheduler "s025" with entities [EventEntity, EventEntity], work=[174*, 0*]
107: 0x0338 [0x29] REQ_SET_WAIT(priority=0x08, entity_id=Shikaree Y (ID: 16810219/0x010080EB), tag_num=0x10)
108: 0x033F [0x79] Shikaree Y (ID: 16810219/0x010080EB) looks at Shikaree Z (ID: 16810218/0x010080EA) (Basic look)
109: 0x0349 [0x29] REQ_SET_WAIT(priority=0x08, entity_id=Shikaree Z (ID: 16810218/0x010080EA), tag_num=0x17)
110: 0x0350 [0x2B] Shikaree Z (ID: 16810218/0x010080EA) [7639*]:
    → "This girl is no friend of mine. She is the youth that manipulated the Tavnazian Cathedral alongside Cardinal Mildaurion!"
111: 0x0357 [0x23] WAIT_FOR_DIALOG_INTERACTION
112: 0x0358 [0x29] REQ_SET_WAIT(priority=0x08, entity_id=Shikaree Z (ID: 16810218/0x010080EA), tag_num=0x18)
113: 0x035F [0x52] END_LOAD_SCHEDULER: End scheduler "s025" with entities [EventEntity, EventEntity], work=174*
114: 0x036E [0x45] LOAD_SCHEDULED_TASK: Load scheduler "s026" with entities [EventEntity, EventEntity], work=[174*, 0*]
115: 0x037F [0x29] REQ_SET_WAIT(priority=0x08, entity_id=Shikaree Z (ID: 16810218/0x010080EA), tag_num=0x19)
116: 0x0386 [0x2B] Shikaree Z (ID: 16810218/0x010080EA) [7640*]:
    → "Do not tell me that you've forgotten our warning!"
117: 0x038D [0x23] WAIT_FOR_DIALOG_INTERACTION
118: 0x038E [0x2B] Shikaree Z (ID: 16810218/0x010080EA) [7641*]:
    → "When the Wyrmking returns, a new war will erupt between the dragons and Altana's children..."
119: 0x0395 [0x23] WAIT_FOR_DIALOG_INTERACTION
120: 0x0396 [0x29] REQ_SET_WAIT(priority=0x08, entity_id=Shikaree Y (ID: 16810219/0x010080EB), tag_num=0x11)
121: 0x039D [0x52] END_LOAD_SCHEDULER: End scheduler "s026" with entities [EventEntity, EventEntity], work=174*
122: 0x03AC [0x45] LOAD_SCHEDULED_TASK: Load scheduler "s076" with entities [EventEntity, EventEntity], work=[174*, 0*]
123: 0x03BD [0x29] REQ_SET_WAIT(priority=0x08, entity_id=Ulmia (ID: 16810217/0x010080E9), tag_num=0x1B)
124: 0x03C4 [0x79] Shikaree Y (ID: 16810219/0x010080EB) looks at Prishe (ID: 16810216/0x010080E8) (Basic look)
125: 0x03CE [0x2B] Shikaree Z (ID: 16810218/0x010080EA) [7642*]:
    → "Before that happens, we must wake the sleeping gods with the Lay of the Immortals and beseech their aid!"
126: 0x03D5 [0x23] WAIT_FOR_DIALOG_INTERACTION
127: 0x03D6 [0x52] END_LOAD_SCHEDULER: End scheduler "s076" with entities [EventEntity, EventEntity], work=174*
128: 0x03E5 [0x45] LOAD_SCHEDULED_TASK: Load scheduler "ovl1" with entities [LocalPlayer, LocalPlayer], work=[200*, 0*]
129: 0x03F6 [0x45] LOAD_SCHEDULED_TASK: Load scheduler "s027" with entities [EventEntity, EventEntity], work=[174*, 0*]
130: 0x0407 [0x29] REQ_SET_WAIT(priority=0x0B, entity_id=Shikaree X (ID: 16810220/0x010080EC), tag_num=0x3C)
131: 0x040E [0x4A] Shikaree X (ID: 16810220/0x010080EC) looks at Prishe (ID: 16810216/0x010080E8)
132: 0x0417 [0x2B] Shikaree Z (ID: 16810218/0x010080EA) [7643*]:
    → "Can you not see!? The future that we most feared has come to pass!"
133: 0x041E [0x23] WAIT_FOR_DIALOG_INTERACTION
134: 0x041F [0x29] REQ_SET_WAIT(priority=0x08, entity_id=Shikaree Z (ID: 16810218/0x010080EA), tag_num=0x1A)
135: 0x0426 [0x6F] WAIT_FRAME_DELAY: Yield until WaitTime reaches zero
136: 0x0427 [0x76] CHECK_ENTITY_RENDER_FLAGS: Wait until Shikaree X (ID: 16810220/0x010080EC) Render.Flags0 and Render.Flags3 conditions are met
137: 0x042C [0x52] END_LOAD_SCHEDULER: End scheduler "s027" with entities [EventEntity, EventEntity], work=174*
138: 0x043B [0x45] LOAD_SCHEDULED_TASK: Load scheduler "s028" with entities [EventEntity, EventEntity], work=[174*, 0*]
139: 0x044C [0x7B] Shikaree Z (ID: 16810218/0x010080EA) stops talking
140: 0x0451 [0x29] REQ_SET_WAIT(priority=0x08, entity_id=Shikaree Z (ID: 16810218/0x010080EA), tag_num=0x09)
141: 0x0458 [0x2B] Shikaree Z (ID: 16810218/0x010080EA) [7644*]:
    → "Of course we Mithran Trackers carry heavy sins of our own..."
142: 0x045F [0x23] WAIT_FOR_DIALOG_INTERACTION
143: 0x0460 [0x2B] Shikaree Z (ID: 16810218/0x010080EA) [7645*]:
    → "We failed to see through your honeyed words, even going so far as to aid you in your demented plans..."
144: 0x0467 [0x23] WAIT_FOR_DIALOG_INTERACTION
145: 0x0468 [0x29] REQ_SET_WAIT(priority=0x08, entity_id=Shikaree Z (ID: 16810218/0x010080EA), tag_num=0x0A)
146: 0x046F [0x29] REQ_SET_WAIT(priority=0x08, entity_id=Shikaree Z (ID: 16810218/0x010080EA), tag_num=0x0B)
147: 0x0476 [0x2B] Shikaree Z (ID: 16810218/0x010080EA) [7646*]:
    → "Who ever would have believed those plans involved rrresurrecting the Twilight God with the Lay of the Immortals!"
148: 0x047D [0x23] WAIT_FOR_DIALOG_INTERACTION
149: 0x047E [0x29] REQ_SET_WAIT(priority=0x08, entity_id=Shikaree Z (ID: 16810218/0x010080EA), tag_num=0x0C)
150: 0x0485 [0x52] END_LOAD_SCHEDULER: End scheduler "s028" with entities [EventEntity, EventEntity], work=174*
151: 0x0494 [0x45] LOAD_SCHEDULED_TASK: Load scheduler "s030" with entities [EventEntity, EventEntity], work=[174*, 0*]
152: 0x04A5 [0x4B] UPDATE_ENTITY_YAW(entity=Shikaree Z (ID: 16810218/0x010080EA), yaw=5.6°*)
153: 0x04AC [0x29] REQ_SET_WAIT(priority=0x0B, entity_id=Prishe (ID: 16810216/0x010080E8), tag_num=0x92)
154: 0x04B3 [0x1C] WAIT(20* ticks)
155: 0x04B6 [0x2B] Prishe (ID: 16810216/0x010080E8) [7647*]:
    → "Now hang on there, furball, aren't you getting your facts mixed up?"
156: 0x04BD [0x23] WAIT_FOR_DIALOG_INTERACTION
157: 0x04BE [0x29] REQ_SET_WAIT(priority=0x08, entity_id=Prishe (ID: 16810216/0x010080E8), tag_num=0x17)
158: 0x04C5 [0x2B] Prishe (ID: 16810216/0x010080E8) [7648*]:
    → "It's true that Cardinal Mildaurion never really intended to wake up your fusty old gods..."
159: 0x04CC [0x23] WAIT_FOR_DIALOG_INTERACTION
160: 0x04CD [0x29] REQ_SET_WAIT(priority=0x08, entity_id=Prishe (ID: 16810216/0x010080E8), tag_num=0x18)
161: 0x04D4 [0x29] REQ_SET_WAIT(priority=0x08, entity_id=Prishe (ID: 16810216/0x010080E8), tag_num=0x19)
162: 0x04DB [0x2B] Prishe (ID: 16810216/0x010080E8) [7649*]:
    → "But we never did anything to bring back Promathia!"
163: 0x04E2 [0x23] WAIT_FOR_DIALOG_INTERACTION
164: 0x04E3 [0x29] REQ_SET_WAIT(priority=0x08, entity_id=Prishe (ID: 16810216/0x010080E8), tag_num=0x1A)
165: 0x04EA [0x6F] WAIT_FRAME_DELAY: Yield until WaitTime reaches zero
166: 0x04EB [0x76] CHECK_ENTITY_RENDER_FLAGS: Wait until Shikaree Y (ID: 16810219/0x010080EB) Render.Flags0 and Render.Flags3 conditions are met
167: 0x04F0 [0x79] Shikaree Y (ID: 16810219/0x010080EB) looks at Shikaree X (ID: 16810220/0x010080EC) (Basic look)
168: 0x04FA [0x52] END_LOAD_SCHEDULER: End scheduler "s030" with entities [EventEntity, EventEntity], work=174*
169: 0x0509 [0x45] LOAD_SCHEDULED_TASK: Load scheduler "s031" with entities [EventEntity, EventEntity], work=[174*, 0*]
170: 0x051A [0x4A] Prishe (ID: 16810216/0x010080E8) looks at Shikaree X (ID: 16810220/0x010080EC)
171: 0x0523 [0x4A] Shikaree Z (ID: 16810218/0x010080EA) looks at Prishe (ID: 16810216/0x010080E8)
172: 0x052C [0x2B] Shikaree X (ID: 16810220/0x010080EC) [7650*]:
    → "Then why does that girl behind you sing the Lay of the Immortals?"
173: 0x0533 [0x23] WAIT_FOR_DIALOG_INTERACTION
174: 0x0534 [0x29] REQ_SET_WAIT(priority=0x08, entity_id=Ulmia (ID: 16810217/0x010080E9), tag_num=0x1C)
175: 0x053B [0x6F] WAIT_FRAME_DELAY: Yield until WaitTime reaches zero
176: 0x053C [0x76] CHECK_ENTITY_RENDER_FLAGS: Wait until Prishe (ID: 16810216/0x010080E8) Render.Flags0 and Render.Flags3 conditions are met
177: 0x0541 [0x6F] WAIT_FRAME_DELAY: Yield until WaitTime reaches zero
178: 0x0542 [0x76] CHECK_ENTITY_RENDER_FLAGS: Wait until Shikaree Z (ID: 16810218/0x010080EA) Render.Flags0 and Render.Flags3 conditions are met
179: 0x0547 [0x52] END_LOAD_SCHEDULER: End scheduler "s031" with entities [EventEntity, EventEntity], work=174*
180: 0x0556 [0x45] LOAD_SCHEDULED_TASK: Load scheduler "s032" with entities [EventEntity, EventEntity], work=[174*, 0*]
181: 0x0567 [0x29] REQ_SET_WAIT(priority=0x08, entity_id=Ulmia (ID: 16810217/0x010080E9), tag_num=0x1D)
182: 0x056E [0x79] Prishe (ID: 16810216/0x010080E8) looks at Shikaree Y (ID: 16810219/0x010080EB) (Basic look)
183: 0x0578 [0x4A] Prishe (ID: 16810216/0x010080E8) looks at Shikaree Y (ID: 16810219/0x010080EB)
184: 0x0581 [0x02] IF !(Work_Zone[3] == 1*) GOTO 0x0594
185: 0x0589 [0x2B] Shikaree Y (ID: 16810219/0x010080EB) [7652*]:
    → "And we know why the beastmen are collecting the stones known as "magicite"...the same stone imbedded in your body!"
186: 0x0590 [0x23] WAIT_FOR_DIALOG_INTERACTION
187: 0x0591 [0x01] GOTO 0x059C
188: 0x0594 [0x2B] Shikaree Y (ID: 16810219/0x010080EB) [7651*]:
    → "And the magicite you possess was the same material used by the beastmen to revive the Shadow Lord!"
189: 0x059B [0x23] WAIT_FOR_DIALOG_INTERACTION

SUBROUTINE_059C:
190: 0x059C [0x6F] WAIT_FRAME_DELAY: Yield until WaitTime reaches zero
191: 0x059D [0x76] CHECK_ENTITY_RENDER_FLAGS: Wait until Prishe (ID: 16810216/0x010080E8) Render.Flags0 and Render.Flags3 conditions are met
192: 0x05A2 [0x7B] Prishe (ID: 16810216/0x010080E8) stops talking
193: 0x05A7 [0x29] REQ_SET_WAIT(priority=0x08, entity_id=Prishe (ID: 16810216/0x010080E8), tag_num=0x1F)
194: 0x05AE [0x2B] Prishe (ID: 16810216/0x010080E8) [7653*]:
    → "The Shadow Lord...?"
195: 0x05B5 [0x23] WAIT_FOR_DIALOG_INTERACTION
196: 0x05B6 [0x29] REQ_SET_WAIT(priority=0x08, entity_id=Prishe (ID: 16810216/0x010080E8), tag_num=0x20)
197: 0x05BD [0x29] REQ_SET_WAIT(priority=0x08, entity_id=Ulmia (ID: 16810217/0x010080E9), tag_num=0x1E)
198: 0x05C4 [0x52] END_LOAD_SCHEDULER: End scheduler "s032" with entities [EventEntity, EventEntity], work=174*
199: 0x05D3 [0x45] LOAD_SCHEDULED_TASK: Load scheduler "s033" with entities [EventEntity, EventEntity], work=[174*, 0*]
200: 0x05E4 [0x4A] Prishe (ID: 16810216/0x010080E8) looks at Shikaree Z (ID: 16810218/0x010080EA)
201: 0x05ED [0x79] Shikaree Y (ID: 16810219/0x010080EB) looks at Prishe (ID: 16810216/0x010080E8) (Basic look)
202: 0x05F7 [0x29] REQ_SET_WAIT(priority=0x08, entity_id=Prishe (ID: 16810216/0x010080E8), tag_num=0x21)
203: 0x05FE [0x2B] Shikaree Z (ID: 16810218/0x010080EA) [7654*]:
    → "Don't play coy with us!"
204: 0x0605 [0x23] WAIT_FOR_DIALOG_INTERACTION
205: 0x0606 [0x29] REQ_SET_WAIT(priority=0x08, entity_id=Prishe (ID: 16810216/0x010080E8), tag_num=0x22)
206: 0x060D [0x29] REQ_SET_WAIT(priority=0x08, entity_id=Shikaree Z (ID: 16810218/0x010080EA), tag_num=0x05)
207: 0x0614 [0x2B] Shikaree Z (ID: 16810218/0x010080EA) [7655*]:
    → "If you had no intention of awakening the sleeping gods..."
208: 0x061B [0x23] WAIT_FOR_DIALOG_INTERACTION
209: 0x061C [0x2B] Shikaree Z (ID: 16810218/0x010080EA) [7656*]:
    → "...why would you need to find a singer for the Lay of the Immortals!?"
210: 0x0623 [0x23] WAIT_FOR_DIALOG_INTERACTION
211: 0x0624 [0x29] REQ_SET_WAIT(priority=0x08, entity_id=Shikaree Z (ID: 16810218/0x010080EA), tag_num=0x06)
212: 0x062B [0x6F] WAIT_FRAME_DELAY: Yield until WaitTime reaches zero
213: 0x062C [0x76] CHECK_ENTITY_RENDER_FLAGS: Wait until Prishe (ID: 16810216/0x010080E8) Render.Flags0 and Render.Flags3 conditions are met
214: 0x0631 [0x52] END_LOAD_SCHEDULER: End scheduler "s033" with entities [EventEntity, EventEntity], work=174*
215: 0x0640 [0x45] LOAD_SCHEDULED_TASK: Load scheduler "s034" with entities [EventEntity, EventEntity], work=[174*, 0*]
216: 0x0651 [0x29] REQ_SET_WAIT(priority=0x08, entity_id=Shikaree Z (ID: 16810218/0x010080EA), tag_num=0x07)
217: 0x0658 [0x2B] Shikaree Z (ID: 16810218/0x010080EA) [7657*]:
    → "What have you brought forth from the abyss of death with the power of the magicite!?"
218: 0x065F [0x23] WAIT_FOR_DIALOG_INTERACTION
219: 0x0660 [0x29] REQ_SET_WAIT(priority=0x08, entity_id=Prishe (ID: 16810216/0x010080E8), tag_num=0x3D)
220: 0x0667 [0x2B] Prishe (ID: 16810216/0x010080E8) [7658*]:
    → "I give up. There's no talking to you guys when you get all fanatical like this."
221: 0x066E [0x23] WAIT_FOR_DIALOG_INTERACTION
222: 0x066F [0x2B] Prishe (ID: 16810216/0x010080E8) [7659*]:
    → "That's why we never told you the truth."
223: 0x0676 [0x23] WAIT_FOR_DIALOG_INTERACTION
224: 0x0677 [0x29] REQ_SET_WAIT(priority=0x08, entity_id=Prishe (ID: 16810216/0x010080E8), tag_num=0x3E)
225: 0x067E [0x29] REQ_SET_WAIT(priority=0x08, entity_id=Shikaree Z (ID: 16810218/0x010080EA), tag_num=0x08)
226: 0x0685 [0x52] END_LOAD_SCHEDULER: End scheduler "s034" with entities [EventEntity, EventEntity], work=174*
227: 0x0694 [0x45] LOAD_SCHEDULED_TASK: Load scheduler "s035" with entities [EventEntity, EventEntity], work=[174*, 0*]
228: 0x06A5 [0x29] REQ_SET_WAIT(priority=0x08, entity_id=Prishe (ID: 16810216/0x010080E8), tag_num=0x3F)
229: 0x06AC [0x27] REQ_SET(priority=0x08, entity_id=Shikaree X (ID: 16810220/0x010080EC), tag_num=0x34)
230: 0x06B3 [0x2B] Shikaree X (ID: 16810220/0x010080EC) [7660*]:
    → "Why, you little brrrat!"
231: 0x06BA [0x23] WAIT_FOR_DIALOG_INTERACTION
232: 0x06BB [0x1C] WAIT(50* ticks)
233: 0x06BE [0x27] REQ_SET(priority=0x0B, entity_id=Shikaree Z (ID: 16810218/0x010080EA), tag_num=0x38)
234: 0x06C5 [0x2B] Shikaree Z (ID: 16810218/0x010080EA) [7661*]:
    → "Yes, you're rrright, we are singular in our purpose. If you understand our zeal, then there is nothing left to talk about."
235: 0x06CC [0x23] WAIT_FOR_DIALOG_INTERACTION
236: 0x06CD [0x29] REQ_SET_WAIT(priority=0x08, entity_id=Prishe (ID: 16810216/0x010080E8), tag_num=0x40)
237: 0x06D4 [0x2A] GET_REQ_LEVEL(level=11, entity_id=Shikaree Z (ID: 16810218/0x010080EA))
238: 0x06DA [0x52] END_LOAD_SCHEDULER: End scheduler "s035" with entities [EventEntity, EventEntity], work=174*
239: 0x06E9 [0x45] LOAD_SCHEDULED_TASK: Load scheduler "s036" with entities [EventEntity, EventEntity], work=[174*, 0*]
240: 0x06FA [0x2B] Shikaree Z (ID: 16810218/0x010080EA) [7662*]:
    → "We are not here to probe your other sins. We are here to demand payment for a single crime."
241: 0x0701 [0x23] WAIT_FOR_DIALOG_INTERACTION
242: 0x0702 [0x2A] GET_REQ_LEVEL(level=8, entity_id=Shikaree X (ID: 16810220/0x010080EC))
243: 0x0708 [0x52] END_LOAD_SCHEDULER: End scheduler "s036" with entities [EventEntity, EventEntity], work=174*
244: 0x0717 [0x45] LOAD_SCHEDULED_TASK: Load scheduler "se81" with entities [EventEntity, EventEntity], work=[174*, 0*]
245: 0x0728 [0x29] REQ_SET_WAIT(priority=0x08, entity_id=Shikaree X (ID: 16810220/0x010080EC), tag_num=0x30)
246: 0x072F [0x27] REQ_SET(priority=0x0B, entity_id=Prishe (ID: 16810216/0x010080E8), tag_num=0x93)
247: 0x0736 [0x4A] Shikaree Y (ID: 16810219/0x010080EB) looks at LocalPlayer
248: 0x073F [0x29] REQ_SET_WAIT(priority=0x08, entity_id=Ulmia (ID: 16810217/0x010080E9), tag_num=0x1B)
249: 0x0746 [0x2B] Shikaree X (ID: 16810220/0x010080EC) [7663*]:
    → "The crrrime of singing the Lay of the Immortals!"
250: 0x074D [0x23] WAIT_FOR_DIALOG_INTERACTION
251: 0x074E [0x6F] WAIT_FRAME_DELAY: Yield until WaitTime reaches zero
252: 0x074F [0x76] CHECK_ENTITY_RENDER_FLAGS: Wait until Shikaree Y (ID: 16810219/0x010080EB) Render.Flags0 and Render.Flags3 conditions are met
253: 0x0754 [0x2A] GET_REQ_LEVEL(level=11, entity_id=Prishe (ID: 16810216/0x010080E8))
254: 0x075A [0x52] END_LOAD_SCHEDULER: End scheduler "s038" with entities [Prishe (ID: 16810216/0x010080E8), Prishe (ID: 16810216/0x010080E8)], work=174*
255: 0x0769 [0x27] REQ_SET(priority=0x0B, entity_id=Prishe (ID: 16810216/0x010080E8), tag_num=0x94)
256: 0x0770 [0x29] REQ_SET_WAIT(priority=0x08, entity_id=Prishe (ID: 16810216/0x010080E8), tag_num=0x85)
257: 0x0777 [0x45] LOAD_SCHEDULED_TASK: Load scheduler "6079" with entities [EventEntity, EventEntity], work=[174*, 0*]
258: 0x0788 [0x29] REQ_SET_WAIT(priority=0x08, entity_id=Shikaree Y (ID: 16810219/0x010080EB), tag_num=0x1B)
259: 0x078F [0x2B] Shikaree Y (ID: 16810219/0x010080EB) [7664*]:
    → "You will be held responsible for the sins of Mildaurion!"
260: 0x0796 [0x23] WAIT_FOR_DIALOG_INTERACTION
261: 0x0797 [0x29] REQ_SET_WAIT(priority=0x08, entity_id=Shikaree Y (ID: 16810219/0x010080EB), tag_num=0x1C)
262: 0x079E [0x2A] GET_REQ_LEVEL(level=11, entity_id=Prishe (ID: 16810216/0x010080E8))
263: 0x07A4 [0x02] IF !(Work_Zone[9] == 3*) GOTO 0x07BE
264: 0x07AC [0x52] END_LOAD_SCHEDULER: End scheduler "s044" with entities [Prishe (ID: 16810216/0x010080E8), Prishe (ID: 16810216/0x010080E8)], work=174*
265: 0x07BB [0x01] GOTO 0x081B
266: 0x07BE [0x02] IF !(Work_Zone[9] == 5*) GOTO 0x07D8
267: 0x07C6 [0x52] END_LOAD_SCHEDULER: End scheduler "s043" with entities [Prishe (ID: 16810216/0x010080E8), Prishe (ID: 16810216/0x010080E8)], work=174*
268: 0x07D5 [0x01] GOTO 0x081B
269: 0x07D8 [0x02] IF !(Work_Zone[9] == 6*) GOTO 0x07F2
270: 0x07E0 [0x52] END_LOAD_SCHEDULER: End scheduler "s043" with entities [Prishe (ID: 16810216/0x010080E8), Prishe (ID: 16810216/0x010080E8)], work=174*
271: 0x07EF [0x01] GOTO 0x081B
272: 0x07F2 [0x02] IF !(Work_Zone[9] == 8*) GOTO 0x080C
273: 0x07FA [0x52] END_LOAD_SCHEDULER: End scheduler "s044" with entities [Prishe (ID: 16810216/0x010080E8), Prishe (ID: 16810216/0x010080E8)], work=174*
274: 0x0809 [0x01] GOTO 0x081B
275: 0x080C [0x52] END_LOAD_SCHEDULER: End scheduler "s040" with entities [Prishe (ID: 16810216/0x010080E8), Prishe (ID: 16810216/0x010080E8)], work=174*

SUBROUTINE_081B:
276: 0x081B [0x27] REQ_SET(priority=0x0B, entity_id=Prishe (ID: 16810216/0x010080E8), tag_num=0x95)
277: 0x0822 [0x45] LOAD_SCHEDULED_TASK: Load scheduler "6079" with entities [EventEntity, EventEntity], work=[174*, 0*]
278: 0x0833 [0x29] REQ_SET_WAIT(priority=0x08, entity_id=Shikaree Z (ID: 16810218/0x010080EA), tag_num=0x23)
279: 0x083A [0x2B] Shikaree Z (ID: 16810218/0x010080EA) [7665*]:
    → "There will be no hearing! Prepare to face your judgment!!!"
280: 0x0841 [0x23] WAIT_FOR_DIALOG_INTERACTION
281: 0x0842 [0x29] REQ_SET_WAIT(priority=0x08, entity_id=Shikaree Z (ID: 16810218/0x010080EA), tag_num=0x24)
282: 0x0849 [0x29] REQ_SET_WAIT(priority=0x08, entity_id=Prishe (ID: 16810216/0x010080E8), tag_num=0x86)
283: 0x0850 [0x45] LOAD_SCHEDULED_TASK: Load scheduler "fdo1" with entities [LocalPlayer, LocalPlayer], work=[200*, 0*]
284: 0x0861 [0x1C] WAIT(60* ticks)
285: 0x0864 [0x2A] GET_REQ_LEVEL(level=11, entity_id=Prishe (ID: 16810216/0x010080E8))
286: 0x086A [0x52] END_LOAD_SCHEDULER: End scheduler "s042" with entities [EventEntity, EventEntity], work=174*
287: 0x0879 [0x4E] SET_ENTITY_HIDE_FLAG: Show LocalPlayer
288: 0x087F [0x80] LOAD_WAIT(entity=LocalPlayer)
289: 0x0884 [0x00] END_REQSTACK()
```

### Event 65535.2

#### Metadata

| Field        | Value      |
|--------------|------------|
| Entrypoint   | 0x0885     |
| Data Size    | 2035 bytes |
| Instructions | 256        |

```
      00 01 02 03 04 05 06 07  08 09 0A 0B 0C 0D 0E 0F
      -- -- -- -- -- -- -- --  -- -- -- -- -- -- -- --
0880:                29 08 F0  FF FF 7F 09 29 0B F0 FF       )......)...
0890: FF 7F 0D 29 0B E8 80 00  01 97 29 0B E9 80 00 01  ...)......).....
08A0: 46 29 0B EC 80 00 01 3E  29 0B EB 80 00 01 3F 29  F).....>).....?)
08B0: 0B EA 80 00 01 3A 4E 00  EA 80 00 01 4E 00 EB 80  .....:N.....N...
08C0: 00 01 4E 00 EC 80 00 01  4E 00 E8 80 00 01 4E 00  ..N.....N.....N.
08D0: E9 80 00 01 80 EA 80 00  01 80 EC 80 00 01 80 EB  ................
08E0: 80 00 01 80 E8 80 00 01  80 E9 80 00 01 4A E8 80  .............J..
08F0: 00 01 EA 80 00 01 4A EA  80 00 01 E8 80 00 01 4A  ......J........J
0900: EC 80 00 01 E8 80 00 01  4A EB 80 00 01 E8 80 00  ........J.......
0910: 01 4A F0 FF FF 7F EA 80  00 01 4A E9 80 00 01 EA  .J........J.....
0920: 80 00 01 6F 76 E8 80 00  01 6F 76 EA 80 00 01 6F  ...ov....ov....o
0930: 76 EC 80 00 01 6F 76 EB  80 00 01 6F 76 F0 FF FF  v....ov....ov...
0940: 7F 6F 76 E9 80 00 01 5C  00 0A 80 5C 01 0A 80 29  .ov....\...\...)
0950: 08 EA 80 00 01 23 29 08  EB 80 00 01 1B 29 08 EC  .....#)......)..
0960: 80 00 01 30 29 08 EA 80  00 01 24 29 08 EB 80 00  ...0).....$)....
0970: 01 1C 29 08 EC 80 00 01  31 1C 00 80 45 01 80 F8  ..).....1...E...
0980: FF FF 7F F8 FF FF 7F 73  30 34 35 02 80 45 03 80  .......s045..E..
0990: F8 FF FF 7F F8 FF FF 7F  66 64 69 31 02 80 2B EA  ........fdi1..+.
09A0: 80 00 01 34 80 23 52 01  80 F8 FF FF 7F F8 FF FF  ...4.#R.........
09B0: 7F 73 30 34 35 45 01 80  F8 FF FF 7F F8 FF FF 7F  .s045E..........
09C0: 73 30 34 36 02 80 2B EB  80 00 01 35 80 23 27 0B  s046..+....5.#'.
09D0: E8 80 00 01 98 1C 0B 80  52 01 80 F8 FF FF 7F F8  ........R.......
09E0: FF FF 7F 73 30 34 36 45  01 80 F8 FF FF 7F F8 FF  ...s046E........
09F0: FF 7F 73 30 34 37 02 80  79 00 F0 FF FF 7F E8 80  ..s047..y.......
0A00: 00 01 79 00 E9 80 00 01  E8 80 00 01 2B E8 80 00  ..y.........+...
0A10: 01 36 80 23 2A 0B E8 80  00 01 29 08 E8 80 00 01  .6.#*.....).....
0A20: 0B 2B E8 80 00 01 37 80  23 29 08 E8 80 00 01 0C  .+....7.#)......
0A30: 2B EA 80 00 01 38 80 23  52 01 80 F8 FF FF 7F F8  +....8.#R.......
0A40: FF FF 7F 73 30 34 37 45  01 80 F8 FF FF 7F F8 FF  ...s047E........
0A50: FF 7F 73 30 34 38 02 80  2B E8 80 00 01 39 80 23  ..s048..+....9.#
0A60: 52 01 80 F8 FF FF 7F F8  FF FF 7F 73 30 34 38 45  R..........s048E
0A70: 03 80 F0 FF FF 7F F0 FF  FF 7F 6F 76 6C 31 02 80  ..........ovl1..
0A80: 45 01 80 F8 FF FF 7F F8  FF FF 7F 73 30 34 39 02  E..........s049.
0A90: 80 29 08 E8 80 00 01 0D  2B E8 80 00 01 3A 80 23  .)......+....:.#
0AA0: 29 08 E8 80 00 01 0E 52  01 80 F8 FF FF 7F F8 FF  )......R........
0AB0: FF 7F 73 30 34 39 45 01  80 F8 FF FF 7F F8 FF FF  ..s049E.........
0AC0: 7F 73 30 35 30 02 80 29  08 E8 80 00 01 0F 2B E8  .s050..)......+.
0AD0: 80 00 01 3B 80 23 29 08  E9 80 00 01 1B 2B E9 80  ...;.#)......+..
0AE0: 00 01 3C 80 23 52 01 80  F8 FF FF 7F F8 FF FF 7F  ..<.#R..........
0AF0: 73 30 35 30 45 01 80 F8  FF FF 7F F8 FF FF 7F 73  s050E..........s
0B00: 30 35 31 02 80 29 0B F0  FF FF 7F 0E 29 08 E8 80  051..)......)...
0B10: 00 01 10 29 08 E8 80 00  01 11 2B EA 80 00 01 3D  ...)......+....=
0B20: 80 23 29 08 E8 80 00 01  12 29 08 E9 80 00 01 1C  .#)......)......
0B30: 52 01 80 F8 FF FF 7F F8  FF FF 7F 73 30 35 31 45  R..........s051E
0B40: 01 80 F8 FF FF 7F F8 FF  FF 7F 73 30 35 32 02 80  ..........s052..
0B50: 29 08 E8 80 00 01 66 2B  E8 80 00 01 3E 80 23 29  ).....f+....>.#)
0B60: 08 E8 80 00 01 67 52 01  80 F8 FF FF 7F F8 FF FF  .....gR.........
0B70: 7F 73 30 35 32 45 03 80  F0 FF FF 7F F0 FF FF 7F  .s052E..........
0B80: 6F 76 6C 31 02 80 45 01  80 F8 FF FF 7F F8 FF FF  ovl1..E.........
0B90: 7F 73 30 35 34 02 80 29  08 E8 80 00 01 68 2B E8  .s054..).....h+.
0BA0: 80 00 01 3F 80 23 29 08  E8 80 00 01 69 29 08 E8  ...?.#).....i)..
0BB0: 80 00 01 6C 2B EA 80 00  01 40 80 23 29 08 E8 80  ...l+....@.#)...
0BC0: 00 01 6D 52 01 80 F8 FF  FF 7F F8 FF FF 7F 73 30  ..mR..........s0
0BD0: 35 34 45 03 80 F0 FF FF  7F F0 FF FF 7F 6F 76 6C  54E..........ovl
0BE0: 31 02 80 45 01 80 F8 FF  FF 7F F8 FF FF 7F 73 30  1..E..........s0
0BF0: 35 33 02 80 29 08 E9 80  00 01 1D 2B E8 80 00 01  53..)......+....
0C00: 41 80 23 29 08 E9 80 00  01 1E 2B E8 80 00 01 42  A.#)......+....B
0C10: 80 23 4E 01 F0 FF FF 7F  52 01 80 F8 FF FF 7F F8  .#N.....R.......
0C20: FF FF 7F 73 30 35 33 5D  02 80 00 80 45 01 80 F8  ...s053]....E...
0C30: FF FF 7F F8 FF FF 7F 73  30 35 37 02 80 45 43 80  .......s057..EC.
0C40: F0 FF FF 7F F0 FF FF 7F  62 6C 6F 6E 02 80 1C 00  ........blon....
0C50: 80 52 01 80 F8 FF FF 7F  F8 FF FF 7F 73 30 35 37  .R..........s057
0C60: 45 01 80 F8 FF FF 7F F8  FF FF 7F 73 30 35 38 02  E..........s058.
0C70: 80 45 43 80 F0 FF FF 7F  F0 FF FF 7F 62 6C 6F 6E  .EC.........blon
0C80: 02 80 7B E8 80 00 01 29  08 E8 80 00 01 87 29 08  ..{....)......).
0C90: E8 80 00 01 88 29 08 EA  80 00 01 27 1C 1B 80 52  .....).....'...R
0CA0: 01 80 F8 FF FF 7F F8 FF  FF 7F 73 30 35 38 45 03  ..........s058E.
0CB0: 80 F0 FF FF 7F F0 FF FF  7F 62 6C 6F 6E 02 80 45  .........blon..E
0CC0: 01 80 F8 FF FF 7F F8 FF  FF 7F 73 30 35 35 02 80  ..........s055..
0CD0: 1C 00 80 45 43 80 F0 FF  FF 7F F0 FF FF 7F 77 68  ...EC.........wh
0CE0: 6F 31 02 80 45 03 80 F0  FF FF 7F F0 FF FF 7F 62  o1..E..........b
0CF0: 6C 6F 66 02 80 1C 44 80  5C 00 45 80 5C 01 45 80  lof...D.\.E.\.E.
0D00: 52 01 80 F8 FF FF 7F F8  FF FF 7F 73 30 35 35 9F  R..........s055.
0D10: 46 80 F8 FF FF 7F F8 FF  FF 7F 73 74 72 30 02 80  F.........str0..
0D20: 34 0B 80 77 47 80 20 80  1C 48 80 45 01 80 F8 FF  4..wG. ..H.E....
0D30: FF 7F F8 FF FF 7F 73 30  36 32 02 80 45 43 80 F0  ......s062..EC..
0D40: FF FF 7F F0 FF FF 7F 77  68 69 31 02 80 1C 49 80  .......whi1...I.
0D50: 2B E8 80 00 01 4A 80 23  1C 03 80 52 01 80 F8 FF  +....J.#...R....
0D60: FF 7F F8 FF FF 7F 73 30  36 32 45 03 80 F0 FF FF  ......s062E.....
0D70: 7F F0 FF FF 7F 6F 76 6C  31 02 80 45 01 80 F8 FF  .....ovl1..E....
0D80: FF 7F F8 FF FF 7F 73 30  36 33 02 80 1C 48 80 2B  ......s063...H.+
0D90: E8 80 00 01 4B 80 23 1C  04 80 45 03 80 F8 FF FF  ....K.#...E.....
0DA0: 7F F8 FF FF 7F 66 64 6F  31 02 80 1C 00 80 52 01  .....fdo1.....R.
0DB0: 80 F8 FF FF 7F F8 FF FF  7F 73 30 36 33 34 31 80  .........s06341.
0DC0: 77 47 80 20 80 1C 48 80  33 01 37 4C 80 4D 80 4E  wG. ..H.3.7L.M.N
0DD0: 80 4F 80 4E 00 E7 80 00  01 80 E7 80 00 01 1C 50  .O.N...........P
0DE0: 80 9F 46 80 F8 FF FF 7F  F8 FF FF 7F 6B 69 6C 6C  ..F.........kill
0DF0: 02 80 62 51 80 E7 80 00  01 E7 80 00 01 6D 61 69  ..bQ.........mai
0E00: 6E 02 80 45 01 80 F8 FF  FF 7F F8 FF FF 7F 73 30  n..E..........s0
0E10: 36 31 02 80 45 03 80 F8  FF FF 7F F8 FF FF 7F 66  61..E..........f
0E20: 64 69 31 02 80 1C 49 80  1C 03 80 5D 02 80 48 80  di1...I....]..H.
0E30: 45 43 80 F0 FF FF 7F F0  FF FF 7F 77 68 6F 31 02  EC.........who1.
0E40: 80 1C 00 80 52 01 80 F8  FF FF 7F F8 FF FF 7F 73  ....R..........s
0E50: 30 36 31 35 32 80 78 1C  00 80 29 08 EA 80 00 01  06152.x...).....
0E60: 28 29 08 E8 80 00 01 8D  29 08 EB 80 00 01 09 29  ()......)......)
0E70: 08 EC 80 00 01 12 29 0B  EC 80 00 01 3F 29 0B EB  ......).....?)..
0E80: 80 00 01 40 29 0B E8 80  00 01 99 29 0B E9 80 00  ...@)......)....
0E90: 01 47 29 0B F0 FF FF 7F  0E 29 0B EA 80 00 01 3A  .G)......).....:
0EA0: 29 08 E8 80 00 01 1F 29  08 E8 80 00 01 20 79 00  )......)..... y.
0EB0: EC 80 00 01 E8 80 00 01  4A EA 80 00 01 E8 80 00  ........J.......
0EC0: 01 4A EB 80 00 01 E8 80  00 01 4A E8 80 00 01 EA  .J........J.....
0ED0: 80 00 01 7B E8 80 00 01  4E 00 F0 FF FF 7F 80 F0  ...{....N.......
0EE0: FF FF 7F 6F 76 E8 80 00  01 6F 76 EB 80 00 01 6F  ...ov....ov....o
0EF0: 76 EA 80 00 01 29 08 EA  80 00 01 31 62 51 80 E7  v....).....1bQ..
0F00: 80 00 01 E7 80 00 01 71  68 73 74 02 80 45 01 80  .......qhst..E..
0F10: F8 FF FF 7F F8 FF FF 7F  73 30 36 34 02 80 45 43  ........s064..EC
0F20: 80 F0 FF FF 7F F0 FF FF  7F 77 68 69 31 02 80 55  .........whi1..U
0F30: 01 80 F8 FF FF 7F F8 FF  FF 7F 73 30 36 34 2B E8  ..........s064+.
0F40: 80 00 01 52 80 23 45 03  80 F0 FF FF 7F F0 FF FF  ...R.#E.........
0F50: 7F 6F 76 6C 31 02 80 45  01 80 F8 FF FF 7F F8 FF  .ovl1..E........
0F60: FF 7F 73 30 35 36 02 80  29 08 E8 80 00 01 21 2B  ..s056..).....!+
0F70: E8 80 00 01 53 80 23 29  08 E8 80 00 01 22 52 01  ....S.#)....."R.
0F80: 80 F8 FF FF 7F F8 FF FF  7F 73 30 35 36 45 01 80  .........s056E..
0F90: F8 FF FF 7F F8 FF FF 7F  73 30 35 39 02 80 27 0B  ........s059..'.
0FA0: E8 80 00 01 9A 4A F0 FF  FF 7F E8 80 00 01 4A E9  .....J........J.
0FB0: 80 00 01 E8 80 00 01 6F  76 E9 80 00 01 29 08 E9  .......ov....)..
0FC0: 80 00 01 09 2B E9 80 00  01 54 80 23 1C 50 80 4A  ....+....T.#.P.J
0FD0: F0 FF FF 7F E8 80 00 01  27 0B EB 80 00 01 41 1C  ........'.....A.
0FE0: 2B 80 52 01 80 F8 FF FF  7F F8 FF FF 7F 73 30 35  +.R..........s05
0FF0: 39 45 03 80 F0 FF FF 7F  F0 FF FF 7F 6F 76 6C 31  9E..........ovl1
1000: 02 80 45 01 80 F8 FF FF  7F F8 FF FF 7F 73 30 36  ..E..........s06
1010: 30 02 80 4A F0 FF FF 7F  E8 80 00 01 27 0B EC 80  0..J........'...
1020: 00 01 40 29 08 EA 80 00  01 32 27 0B EA 80 00 01  ..@).....2'.....
1030: 3B 2B EA 80 00 01 55 80  23 1C 56 80 45 03 80 F0  ;+....U.#.V.E...
1040: FF FF 7F F0 FF FF 7F 66  64 6F 31 02 80 1C 00 80  .......fdo1.....
1050: 52 01 80 F8 FF FF 7F F8  FF FF 7F 73 30 36 30 29  R..........s060)
1060: 08 E9 80 00 01 0A 2A 0B  E8 80 00 01 4E 00 F0 FF  ......*.....N...
1070: FF 7F 80 F0 FF FF 7F 00                           ........        
```

#### Opcodes

```
  0: 0x0885 [0x29] REQ_SET_WAIT(priority=0x08, entity_id=LocalPlayer, tag_num=0x09)
  1: 0x088C [0x29] REQ_SET_WAIT(priority=0x0B, entity_id=LocalPlayer, tag_num=0x0D)
  2: 0x0893 [0x29] REQ_SET_WAIT(priority=0x0B, entity_id=Prishe (ID: 16810216/0x010080E8), tag_num=0x97)
  3: 0x089A [0x29] REQ_SET_WAIT(priority=0x0B, entity_id=Ulmia (ID: 16810217/0x010080E9), tag_num=0x46)
  4: 0x08A1 [0x29] REQ_SET_WAIT(priority=0x0B, entity_id=Shikaree X (ID: 16810220/0x010080EC), tag_num=0x3E)
  5: 0x08A8 [0x29] REQ_SET_WAIT(priority=0x0B, entity_id=Shikaree Y (ID: 16810219/0x010080EB), tag_num=0x3F)
  6: 0x08AF [0x29] REQ_SET_WAIT(priority=0x0B, entity_id=Shikaree Z (ID: 16810218/0x010080EA), tag_num=0x3A)
  7: 0x08B6 [0x4E] SET_ENTITY_HIDE_FLAG: Show Shikaree Z (ID: 16810218/0x010080EA)
  8: 0x08BC [0x4E] SET_ENTITY_HIDE_FLAG: Show Shikaree Y (ID: 16810219/0x010080EB)
  9: 0x08C2 [0x4E] SET_ENTITY_HIDE_FLAG: Show Shikaree X (ID: 16810220/0x010080EC)
 10: 0x08C8 [0x4E] SET_ENTITY_HIDE_FLAG: Show Prishe (ID: 16810216/0x010080E8)
 11: 0x08CE [0x4E] SET_ENTITY_HIDE_FLAG: Show Ulmia (ID: 16810217/0x010080E9)
 12: 0x08D4 [0x80] LOAD_WAIT(entity=Shikaree Z (ID: 16810218/0x010080EA))
 13: 0x08D9 [0x80] LOAD_WAIT(entity=Shikaree X (ID: 16810220/0x010080EC))
 14: 0x08DE [0x80] LOAD_WAIT(entity=Shikaree Y (ID: 16810219/0x010080EB))
 15: 0x08E3 [0x80] LOAD_WAIT(entity=Prishe (ID: 16810216/0x010080E8))
 16: 0x08E8 [0x80] LOAD_WAIT(entity=Ulmia (ID: 16810217/0x010080E9))
 17: 0x08ED [0x4A] Prishe (ID: 16810216/0x010080E8) looks at Shikaree Z (ID: 16810218/0x010080EA)
 18: 0x08F6 [0x4A] Shikaree Z (ID: 16810218/0x010080EA) looks at Prishe (ID: 16810216/0x010080E8)
 19: 0x08FF [0x4A] Shikaree X (ID: 16810220/0x010080EC) looks at Prishe (ID: 16810216/0x010080E8)
 20: 0x0908 [0x4A] Shikaree Y (ID: 16810219/0x010080EB) looks at Prishe (ID: 16810216/0x010080E8)
 21: 0x0911 [0x4A] LocalPlayer looks at Shikaree Z (ID: 16810218/0x010080EA)
 22: 0x091A [0x4A] Ulmia (ID: 16810217/0x010080E9) looks at Shikaree Z (ID: 16810218/0x010080EA)
 23: 0x0923 [0x6F] WAIT_FRAME_DELAY: Yield until WaitTime reaches zero
 24: 0x0924 [0x76] CHECK_ENTITY_RENDER_FLAGS: Wait until Prishe (ID: 16810216/0x010080E8) Render.Flags0 and Render.Flags3 conditions are met
 25: 0x0929 [0x6F] WAIT_FRAME_DELAY: Yield until WaitTime reaches zero
 26: 0x092A [0x76] CHECK_ENTITY_RENDER_FLAGS: Wait until Shikaree Z (ID: 16810218/0x010080EA) Render.Flags0 and Render.Flags3 conditions are met
 27: 0x092F [0x6F] WAIT_FRAME_DELAY: Yield until WaitTime reaches zero
 28: 0x0930 [0x76] CHECK_ENTITY_RENDER_FLAGS: Wait until Shikaree X (ID: 16810220/0x010080EC) Render.Flags0 and Render.Flags3 conditions are met
 29: 0x0935 [0x6F] WAIT_FRAME_DELAY: Yield until WaitTime reaches zero
 30: 0x0936 [0x76] CHECK_ENTITY_RENDER_FLAGS: Wait until Shikaree Y (ID: 16810219/0x010080EB) Render.Flags0 and Render.Flags3 conditions are met
 31: 0x093B [0x6F] WAIT_FRAME_DELAY: Yield until WaitTime reaches zero
 32: 0x093C [0x76] CHECK_ENTITY_RENDER_FLAGS: Wait until LocalPlayer Render.Flags0 and Render.Flags3 conditions are met
 33: 0x0941 [0x6F] WAIT_FRAME_DELAY: Yield until WaitTime reaches zero
 34: 0x0942 [0x76] CHECK_ENTITY_RENDER_FLAGS: Wait until Ulmia (ID: 16810217/0x010080E9) Render.Flags0 and Render.Flags3 conditions are met
 35: 0x0947 [0x5C] MUSIC_CONTROL: Set Idle (Day) music to song 220*
 36: 0x094B [0x5C] MUSIC_CONTROL: Set Idle (Night) music to song 220*
 37: 0x094F [0x29] REQ_SET_WAIT(priority=0x08, entity_id=Shikaree Z (ID: 16810218/0x010080EA), tag_num=0x23)
 38: 0x0956 [0x29] REQ_SET_WAIT(priority=0x08, entity_id=Shikaree Y (ID: 16810219/0x010080EB), tag_num=0x1B)
 39: 0x095D [0x29] REQ_SET_WAIT(priority=0x08, entity_id=Shikaree X (ID: 16810220/0x010080EC), tag_num=0x30)
 40: 0x0964 [0x29] REQ_SET_WAIT(priority=0x08, entity_id=Shikaree Z (ID: 16810218/0x010080EA), tag_num=0x24)
 41: 0x096B [0x29] REQ_SET_WAIT(priority=0x08, entity_id=Shikaree Y (ID: 16810219/0x010080EB), tag_num=0x1C)
 42: 0x0972 [0x29] REQ_SET_WAIT(priority=0x08, entity_id=Shikaree X (ID: 16810220/0x010080EC), tag_num=0x31)
 43: 0x0979 [0x1C] WAIT(60* ticks)
 44: 0x097C [0x45] LOAD_SCHEDULED_TASK: Load scheduler "s045" with entities [EventEntity, EventEntity], work=[174*, 0*]
 45: 0x098D [0x45] LOAD_SCHEDULED_TASK: Load scheduler "fdi1" with entities [EventEntity, EventEntity], work=[200*, 0*]
 46: 0x099E [0x2B] Shikaree Z (ID: 16810218/0x010080EA) [7667*]:
    → "Why...? No...strength...left..."
 47: 0x09A5 [0x23] WAIT_FOR_DIALOG_INTERACTION
 48: 0x09A6 [0x52] END_LOAD_SCHEDULER: End scheduler "s045" with entities [EventEntity, EventEntity], work=174*
 49: 0x09B5 [0x45] LOAD_SCHEDULED_TASK: Load scheduler "s046" with entities [EventEntity, EventEntity], work=[174*, 0*]
 50: 0x09C6 [0x2B] Shikaree Y (ID: 16810219/0x010080EB) [7668*]:
    → "Some strange power...at work?"
 51: 0x09CD [0x23] WAIT_FOR_DIALOG_INTERACTION
 52: 0x09CE [0x27] REQ_SET(priority=0x0B, entity_id=Prishe (ID: 16810216/0x010080E8), tag_num=0x98)
 53: 0x09D5 [0x1C] WAIT(5* ticks)
 54: 0x09D8 [0x52] END_LOAD_SCHEDULER: End scheduler "s046" with entities [EventEntity, EventEntity], work=174*
 55: 0x09E7 [0x45] LOAD_SCHEDULED_TASK: Load scheduler "s047" with entities [EventEntity, EventEntity], work=[174*, 0*]
 56: 0x09F8 [0x79] LocalPlayer looks at Prishe (ID: 16810216/0x010080E8) (Basic look)
 57: 0x0A02 [0x79] Ulmia (ID: 16810217/0x010080E9) looks at Prishe (ID: 16810216/0x010080E8) (Basic look)
 58: 0x0A0C [0x2B] Prishe (ID: 16810216/0x010080E8) [7669*]:
    → "You guys can't kill us."
 59: 0x0A13 [0x23] WAIT_FOR_DIALOG_INTERACTION
 60: 0x0A14 [0x2A] GET_REQ_LEVEL(level=11, entity_id=Prishe (ID: 16810216/0x010080E8))
 61: 0x0A1A [0x29] REQ_SET_WAIT(priority=0x08, entity_id=Prishe (ID: 16810216/0x010080E8), tag_num=0x0B)
 62: 0x0A21 [0x2B] Prishe (ID: 16810216/0x010080E8) [7670*]:
    → "We've spent a long time dealing with things that people were never meant to encounter. And we're gonna finish what we set out to do."
 63: 0x0A28 [0x23] WAIT_FOR_DIALOG_INTERACTION
 64: 0x0A29 [0x29] REQ_SET_WAIT(priority=0x08, entity_id=Prishe (ID: 16810216/0x010080E8), tag_num=0x0C)
 65: 0x0A30 [0x2B] Shikaree Z (ID: 16810218/0x010080EA) [7671*]:
    → "What are you...?"
 66: 0x0A37 [0x23] WAIT_FOR_DIALOG_INTERACTION
 67: 0x0A38 [0x52] END_LOAD_SCHEDULER: End scheduler "s047" with entities [EventEntity, EventEntity], work=174*
 68: 0x0A47 [0x45] LOAD_SCHEDULED_TASK: Load scheduler "s048" with entities [EventEntity, EventEntity], work=[174*, 0*]
 69: 0x0A58 [0x2B] Prishe (ID: 16810216/0x010080E8) [7672*]:
    → "I know exactly what you girls are trying to get at."
 70: 0x0A5F [0x23] WAIT_FOR_DIALOG_INTERACTION
 71: 0x0A60 [0x52] END_LOAD_SCHEDULER: End scheduler "s048" with entities [EventEntity, EventEntity], work=174*
 72: 0x0A6F [0x45] LOAD_SCHEDULED_TASK: Load scheduler "ovl1" with entities [LocalPlayer, LocalPlayer], work=[200*, 0*]
 73: 0x0A80 [0x45] LOAD_SCHEDULED_TASK: Load scheduler "s049" with entities [EventEntity, EventEntity], work=[174*, 0*]
 74: 0x0A91 [0x29] REQ_SET_WAIT(priority=0x08, entity_id=Prishe (ID: 16810216/0x010080E8), tag_num=0x0D)
 75: 0x0A98 [0x2B] Prishe (ID: 16810216/0x010080E8) [7673*]:
    → "You want to save everyone--save Vana'diel. I know I'm right 'cos I feel that way, too."
 76: 0x0A9F [0x23] WAIT_FOR_DIALOG_INTERACTION
 77: 0x0AA0 [0x29] REQ_SET_WAIT(priority=0x08, entity_id=Prishe (ID: 16810216/0x010080E8), tag_num=0x0E)
 78: 0x0AA7 [0x52] END_LOAD_SCHEDULER: End scheduler "s049" with entities [EventEntity, EventEntity], work=174*
 79: 0x0AB6 [0x45] LOAD_SCHEDULED_TASK: Load scheduler "s050" with entities [EventEntity, EventEntity], work=[174*, 0*]
 80: 0x0AC7 [0x29] REQ_SET_WAIT(priority=0x08, entity_id=Prishe (ID: 16810216/0x010080E8), tag_num=0x0F)
 81: 0x0ACE [0x2B] Prishe (ID: 16810216/0x010080E8) [7674*]:
    → "We thought bringing back Promathia was the only way."
 82: 0x0AD5 [0x23] WAIT_FOR_DIALOG_INTERACTION
 83: 0x0AD6 [0x29] REQ_SET_WAIT(priority=0x08, entity_id=Ulmia (ID: 16810217/0x010080E9), tag_num=0x1B)
 84: 0x0ADD [0x2B] Ulmia (ID: 16810217/0x010080E9) [7675*]:
    → "Prishe, you never mentioned...!?"
 85: 0x0AE4 [0x23] WAIT_FOR_DIALOG_INTERACTION
 86: 0x0AE5 [0x52] END_LOAD_SCHEDULER: End scheduler "s050" with entities [EventEntity, EventEntity], work=174*
 87: 0x0AF4 [0x45] LOAD_SCHEDULED_TASK: Load scheduler "s051" with entities [EventEntity, EventEntity], work=[174*, 0*]
 88: 0x0B05 [0x29] REQ_SET_WAIT(priority=0x0B, entity_id=LocalPlayer, tag_num=0x0E)
 89: 0x0B0C [0x29] REQ_SET_WAIT(priority=0x08, entity_id=Prishe (ID: 16810216/0x010080E8), tag_num=0x10)
 90: 0x0B13 [0x29] REQ_SET_WAIT(priority=0x08, entity_id=Prishe (ID: 16810216/0x010080E8), tag_num=0x11)
 91: 0x0B1A [0x2B] Shikaree Z (ID: 16810218/0x010080EA) [7676*]:
    → "Mildaurion...! I knew it...!"
 92: 0x0B21 [0x23] WAIT_FOR_DIALOG_INTERACTION
 93: 0x0B22 [0x29] REQ_SET_WAIT(priority=0x08, entity_id=Prishe (ID: 16810216/0x010080E8), tag_num=0x12)
 94: 0x0B29 [0x29] REQ_SET_WAIT(priority=0x08, entity_id=Ulmia (ID: 16810217/0x010080E9), tag_num=0x1C)
 95: 0x0B30 [0x52] END_LOAD_SCHEDULER: End scheduler "s051" with entities [EventEntity, EventEntity], work=174*
 96: 0x0B3F [0x45] LOAD_SCHEDULED_TASK: Load scheduler "s052" with entities [EventEntity, EventEntity], work=[174*, 0*]
 97: 0x0B50 [0x29] REQ_SET_WAIT(priority=0x08, entity_id=Prishe (ID: 16810216/0x010080E8), tag_num=0x66)
 98: 0x0B57 [0x2B] Prishe (ID: 16810216/0x010080E8) [7677*]:
    → "If you want me to pay for that crime, I'm happy to do it. But not for you."
 99: 0x0B5E [0x23] WAIT_FOR_DIALOG_INTERACTION
100: 0x0B5F [0x29] REQ_SET_WAIT(priority=0x08, entity_id=Prishe (ID: 16810216/0x010080E8), tag_num=0x67)
101: 0x0B66 [0x52] END_LOAD_SCHEDULER: End scheduler "s052" with entities [EventEntity, EventEntity], work=174*
102: 0x0B75 [0x45] LOAD_SCHEDULED_TASK: Load scheduler "ovl1" with entities [LocalPlayer, LocalPlayer], work=[200*, 0*]
103: 0x0B86 [0x45] LOAD_SCHEDULED_TASK: Load scheduler "s054" with entities [EventEntity, EventEntity], work=[174*, 0*]
104: 0x0B97 [0x29] REQ_SET_WAIT(priority=0x08, entity_id=Prishe (ID: 16810216/0x010080E8), tag_num=0x68)
105: 0x0B9E [0x2B] Prishe (ID: 16810216/0x010080E8) [7678*]:
    → "Not for the terrestrial avatars, not for the sleeping gods, and definitely not for the beastmen."
106: 0x0BA5 [0x23] WAIT_FOR_DIALOG_INTERACTION
107: 0x0BA6 [0x29] REQ_SET_WAIT(priority=0x08, entity_id=Prishe (ID: 16810216/0x010080E8), tag_num=0x69)
108: 0x0BAD [0x29] REQ_SET_WAIT(priority=0x08, entity_id=Prishe (ID: 16810216/0x010080E8), tag_num=0x6C)
109: 0x0BB4 [0x2B] Shikaree Z (ID: 16810218/0x010080EA) [7679*]:
    → "!?"
110: 0x0BBB [0x23] WAIT_FOR_DIALOG_INTERACTION
111: 0x0BBC [0x29] REQ_SET_WAIT(priority=0x08, entity_id=Prishe (ID: 16810216/0x010080E8), tag_num=0x6D)
112: 0x0BC3 [0x52] END_LOAD_SCHEDULER: End scheduler "s054" with entities [EventEntity, EventEntity], work=174*
113: 0x0BD2 [0x45] LOAD_SCHEDULED_TASK: Load scheduler "ovl1" with entities [LocalPlayer, LocalPlayer], work=[200*, 0*]
114: 0x0BE3 [0x45] LOAD_SCHEDULED_TASK: Load scheduler "s053" with entities [EventEntity, EventEntity], work=[174*, 0*]
115: 0x0BF4 [0x29] REQ_SET_WAIT(priority=0x08, entity_id=Ulmia (ID: 16810217/0x010080E9), tag_num=0x1D)
116: 0x0BFB [0x2B] Prishe (ID: 16810216/0x010080E8) [7680*]:
    → "I'll do it for me. Because my crime was abandoning myself."
117: 0x0C02 [0x23] WAIT_FOR_DIALOG_INTERACTION
118: 0x0C03 [0x29] REQ_SET_WAIT(priority=0x08, entity_id=Ulmia (ID: 16810217/0x010080E9), tag_num=0x1E)
119: 0x0C0A [0x2B] Prishe (ID: 16810216/0x010080E8) [7681*]:
    → "Now, I want some answers. Where can I find the "Star of Tavnazia"?"
120: 0x0C11 [0x23] WAIT_FOR_DIALOG_INTERACTION
121: 0x0C12 [0x4E] SET_ENTITY_HIDE_FLAG: Hide LocalPlayer
122: 0x0C18 [0x52] END_LOAD_SCHEDULER: End scheduler "s053" with entities [EventEntity, EventEntity], work=174*
123: 0x0C27 [0x5D] SET_MUSIC_VOLUME(volume=0*, fade_time=60*)
124: 0x0C2C [0x45] LOAD_SCHEDULED_TASK: Load scheduler "s057" with entities [EventEntity, EventEntity], work=[174*, 0*]
125: 0x0C3D [0x45] LOAD_SCHEDULED_TASK: Load scheduler "blon" with entities [LocalPlayer, LocalPlayer], work=[201*, 0*]
126: 0x0C4E [0x1C] WAIT(60* ticks)
127: 0x0C51 [0x52] END_LOAD_SCHEDULER: End scheduler "s057" with entities [EventEntity, EventEntity], work=174*
128: 0x0C60 [0x45] LOAD_SCHEDULED_TASK: Load scheduler "s058" with entities [EventEntity, EventEntity], work=[174*, 0*]
129: 0x0C71 [0x45] LOAD_SCHEDULED_TASK: Load scheduler "blon" with entities [LocalPlayer, LocalPlayer], work=[201*, 0*]
130: 0x0C82 [0x7B] Prishe (ID: 16810216/0x010080E8) stops talking
131: 0x0C87 [0x29] REQ_SET_WAIT(priority=0x08, entity_id=Prishe (ID: 16810216/0x010080E8), tag_num=0x87)
132: 0x0C8E [0x29] REQ_SET_WAIT(priority=0x08, entity_id=Prishe (ID: 16810216/0x010080E8), tag_num=0x88)
133: 0x0C95 [0x29] REQ_SET_WAIT(priority=0x08, entity_id=Shikaree Z (ID: 16810218/0x010080EA), tag_num=0x27)
134: 0x0C9C [0x1C] WAIT(20* ticks)
135: 0x0C9F [0x52] END_LOAD_SCHEDULER: End scheduler "s058" with entities [EventEntity, EventEntity], work=174*
136: 0x0CAE [0x45] LOAD_SCHEDULED_TASK: Load scheduler "blon" with entities [LocalPlayer, LocalPlayer], work=[200*, 0*]
137: 0x0CBF [0x45] LOAD_SCHEDULED_TASK: Load scheduler "s055" with entities [EventEntity, EventEntity], work=[174*, 0*]
138: 0x0CD0 [0x1C] WAIT(60* ticks)
139: 0x0CD3 [0x45] LOAD_SCHEDULED_TASK: Load scheduler "who1" with entities [LocalPlayer, LocalPlayer], work=[201*, 0*]
140: 0x0CE4 [0x45] LOAD_SCHEDULED_TASK: Load scheduler "blof" with entities [LocalPlayer, LocalPlayer], work=[200*, 0*]
141: 0x0CF5 [0x1C] WAIT(120* ticks)
142: 0x0CF8 [0x5C] MUSIC_CONTROL: Set Idle (Day) music to song 244*
143: 0x0CFC [0x5C] MUSIC_CONTROL: Set Idle (Night) music to song 244*
144: 0x0D00 [0x52] END_LOAD_SCHEDULER: End scheduler "s055" with entities [EventEntity, EventEntity], work=174*
145: 0x0D0F [0x9F] LOAD_SCHEDULED_TASK_ALT: Load scheduler "str0" with entities [EventEntity, EventEntity], work=[61*, 0*]
146: 0x0D20 [0x34] LOAD_UNLOAD_ZONE(zone_id=5*)
147: 0x0D23 [0x77] SET_EVENT_TIME_WEATHER(hour=12*, weather=1*)
148: 0x0D28 [0x1C] WAIT(100* ticks)
149: 0x0D2B [0x45] LOAD_SCHEDULED_TASK: Load scheduler "s062" with entities [EventEntity, EventEntity], work=[174*, 0*]
150: 0x0D3C [0x45] LOAD_SCHEDULED_TASK: Load scheduler "whi1" with entities [LocalPlayer, LocalPlayer], work=[201*, 0*]
151: 0x0D4D [0x1C] WAIT(400* ticks)
152: 0x0D50 [0x2B] Prishe (ID: 16810216/0x010080E8) [7683*]:
    → "Where is this...?"
153: 0x0D57 [0x23] WAIT_FOR_DIALOG_INTERACTION
154: 0x0D58 [0x1C] WAIT(200* ticks)
155: 0x0D5B [0x52] END_LOAD_SCHEDULER: End scheduler "s062" with entities [EventEntity, EventEntity], work=174*
156: 0x0D6A [0x45] LOAD_SCHEDULED_TASK: Load scheduler "ovl1" with entities [LocalPlayer, LocalPlayer], work=[200*, 0*]
157: 0x0D7B [0x45] LOAD_SCHEDULED_TASK: Load scheduler "s063" with entities [EventEntity, EventEntity], work=[174*, 0*]
158: 0x0D8C [0x1C] WAIT(100* ticks)
159: 0x0D8F [0x2B] Prishe (ID: 16810216/0x010080E8) [7684*]:
    → "The Uleguerand Range...?"
160: 0x0D96 [0x23] WAIT_FOR_DIALOG_INTERACTION
161: 0x0D97 [0x1C] WAIT(300* ticks)
162: 0x0D9A [0x45] LOAD_SCHEDULED_TASK: Load scheduler "fdo1" with entities [EventEntity, EventEntity], work=[200*, 0*]
163: 0x0DAB [0x1C] WAIT(60* ticks)
164: 0x0DAE [0x52] END_LOAD_SCHEDULER: End scheduler "s063" with entities [EventEntity, EventEntity], work=174*
165: 0x0DBD [0x34] LOAD_UNLOAD_ZONE(zone_id=6*)
166: 0x0DC0 [0x77] SET_EVENT_TIME_WEATHER(hour=12*, weather=1*)
167: 0x0DC5 [0x1C] WAIT(100* ticks)
168: 0x0DC8 [0x33] EventEntity->Render.Flags0 |= 0x200000 // Bit 21 (flag=0x01)
169: 0x0DCA [0x37] UPDATE_EVENT_POSITION_AND_DIR: x=-719.292*, z=-440.915*, y=6.480*, direction=223.6°*
170: 0x0DD3 [0x4E] SET_ENTITY_HIDE_FLAG: Show ??? (ID: 16810215/0x010080E7)
171: 0x0DD9 [0x80] LOAD_WAIT(entity=??? (ID: 16810215/0x010080E7))
172: 0x0DDE [0x1C] WAIT(30* ticks)
173: 0x0DE1 [0x9F] LOAD_SCHEDULED_TASK_ALT: Load scheduler "kill" with entities [EventEntity, EventEntity], work=[61*, 0*]
174: 0x0DF2 [0x62] LOAD_EVENT_SCHEDULER: Load scheduler "main" with entities [??? (ID: 16810215/0x010080E7), ??? (ID: 16810215/0x010080E7)], work=[28*, 0*]
175: 0x0E03 [0x45] LOAD_SCHEDULED_TASK: Load scheduler "s061" with entities [EventEntity, EventEntity], work=[174*, 0*]
176: 0x0E14 [0x45] LOAD_SCHEDULED_TASK: Load scheduler "fdi1" with entities [EventEntity, EventEntity], work=[200*, 0*]
177: 0x0E25 [0x1C] WAIT(400* ticks)
178: 0x0E28 [0x1C] WAIT(200* ticks)
179: 0x0E2B [0x5D] SET_MUSIC_VOLUME(volume=0*, fade_time=100*)
180: 0x0E30 [0x45] LOAD_SCHEDULED_TASK: Load scheduler "who1" with entities [LocalPlayer, LocalPlayer], work=[201*, 0*]
181: 0x0E41 [0x1C] WAIT(60* ticks)
182: 0x0E44 [0x52] END_LOAD_SCHEDULER: End scheduler "s061" with entities [EventEntity, EventEntity], work=174*
183: 0x0E53 [0x35] LOAD_ZONE_NO_CLOSE(zone_id=8*)
184: 0x0E56 [0x78] ENABLE_GAME_TIMER_RESET_WEATHER()
185: 0x0E57 [0x1C] WAIT(60* ticks)
186: 0x0E5A [0x29] REQ_SET_WAIT(priority=0x08, entity_id=Shikaree Z (ID: 16810218/0x010080EA), tag_num=0x28)
187: 0x0E61 [0x29] REQ_SET_WAIT(priority=0x08, entity_id=Prishe (ID: 16810216/0x010080E8), tag_num=0x8D)
188: 0x0E68 [0x29] REQ_SET_WAIT(priority=0x08, entity_id=Shikaree Y (ID: 16810219/0x010080EB), tag_num=0x09)
189: 0x0E6F [0x29] REQ_SET_WAIT(priority=0x08, entity_id=Shikaree X (ID: 16810220/0x010080EC), tag_num=0x12)
190: 0x0E76 [0x29] REQ_SET_WAIT(priority=0x0B, entity_id=Shikaree X (ID: 16810220/0x010080EC), tag_num=0x3F)
191: 0x0E7D [0x29] REQ_SET_WAIT(priority=0x0B, entity_id=Shikaree Y (ID: 16810219/0x010080EB), tag_num=0x40)
192: 0x0E84 [0x29] REQ_SET_WAIT(priority=0x0B, entity_id=Prishe (ID: 16810216/0x010080E8), tag_num=0x99)
193: 0x0E8B [0x29] REQ_SET_WAIT(priority=0x0B, entity_id=Ulmia (ID: 16810217/0x010080E9), tag_num=0x47)
194: 0x0E92 [0x29] REQ_SET_WAIT(priority=0x0B, entity_id=LocalPlayer, tag_num=0x0E)
195: 0x0E99 [0x29] REQ_SET_WAIT(priority=0x0B, entity_id=Shikaree Z (ID: 16810218/0x010080EA), tag_num=0x3A)
196: 0x0EA0 [0x29] REQ_SET_WAIT(priority=0x08, entity_id=Prishe (ID: 16810216/0x010080E8), tag_num=0x1F)
197: 0x0EA7 [0x29] REQ_SET_WAIT(priority=0x08, entity_id=Prishe (ID: 16810216/0x010080E8), tag_num=0x20)
198: 0x0EAE [0x79] Shikaree X (ID: 16810220/0x010080EC) looks at Prishe (ID: 16810216/0x010080E8) (Basic look)
199: 0x0EB8 [0x4A] Shikaree Z (ID: 16810218/0x010080EA) looks at Prishe (ID: 16810216/0x010080E8)
200: 0x0EC1 [0x4A] Shikaree Y (ID: 16810219/0x010080EB) looks at Prishe (ID: 16810216/0x010080E8)
201: 0x0ECA [0x4A] Prishe (ID: 16810216/0x010080E8) looks at Shikaree Z (ID: 16810218/0x010080EA)
202: 0x0ED3 [0x7B] Prishe (ID: 16810216/0x010080E8) stops talking
203: 0x0ED8 [0x4E] SET_ENTITY_HIDE_FLAG: Show LocalPlayer
204: 0x0EDE [0x80] LOAD_WAIT(entity=LocalPlayer)
205: 0x0EE3 [0x6F] WAIT_FRAME_DELAY: Yield until WaitTime reaches zero
206: 0x0EE4 [0x76] CHECK_ENTITY_RENDER_FLAGS: Wait until Prishe (ID: 16810216/0x010080E8) Render.Flags0 and Render.Flags3 conditions are met
207: 0x0EE9 [0x6F] WAIT_FRAME_DELAY: Yield until WaitTime reaches zero
208: 0x0EEA [0x76] CHECK_ENTITY_RENDER_FLAGS: Wait until Shikaree Y (ID: 16810219/0x010080EB) Render.Flags0 and Render.Flags3 conditions are met
209: 0x0EEF [0x6F] WAIT_FRAME_DELAY: Yield until WaitTime reaches zero
210: 0x0EF0 [0x76] CHECK_ENTITY_RENDER_FLAGS: Wait until Shikaree Z (ID: 16810218/0x010080EA) Render.Flags0 and Render.Flags3 conditions are met
211: 0x0EF5 [0x29] REQ_SET_WAIT(priority=0x08, entity_id=Shikaree Z (ID: 16810218/0x010080EA), tag_num=0x31)
212: 0x0EFC [0x62] LOAD_EVENT_SCHEDULER: Load scheduler "qhst" with entities [??? (ID: 16810215/0x010080E7), ??? (ID: 16810215/0x010080E7)], work=[28*, 0*]
213: 0x0F0D [0x45] LOAD_SCHEDULED_TASK: Load scheduler "s064" with entities [EventEntity, EventEntity], work=[174*, 0*]
214: 0x0F1E [0x45] LOAD_SCHEDULED_TASK: Load scheduler "whi1" with entities [LocalPlayer, LocalPlayer], work=[201*, 0*]
215: 0x0F2F [0x55] WAIT_LOAD_SCHEDULER: Wait for scheduler "s064" with entities [EventEntity, EventEntity], work=174*
216: 0x0F3E [0x2B] Prishe (ID: 16810216/0x010080E8) [7686*]:
    → "Wow, the beastmen carried it pretty far, huh?"
217: 0x0F45 [0x23] WAIT_FOR_DIALOG_INTERACTION
218: 0x0F46 [0x45] LOAD_SCHEDULED_TASK: Load scheduler "ovl1" with entities [LocalPlayer, LocalPlayer], work=[200*, 0*]
219: 0x0F57 [0x45] LOAD_SCHEDULED_TASK: Load scheduler "s056" with entities [EventEntity, EventEntity], work=[174*, 0*]
220: 0x0F68 [0x29] REQ_SET_WAIT(priority=0x08, entity_id=Prishe (ID: 16810216/0x010080E8), tag_num=0x21)
221: 0x0F6F [0x2B] Prishe (ID: 16810216/0x010080E8) [7687*]:
    → "But that's my magicite! I gotta get it back!"
222: 0x0F76 [0x23] WAIT_FOR_DIALOG_INTERACTION
223: 0x0F77 [0x29] REQ_SET_WAIT(priority=0x08, entity_id=Prishe (ID: 16810216/0x010080E8), tag_num=0x22)
224: 0x0F7E [0x52] END_LOAD_SCHEDULER: End scheduler "s056" with entities [EventEntity, EventEntity], work=174*
225: 0x0F8D [0x45] LOAD_SCHEDULED_TASK: Load scheduler "s059" with entities [EventEntity, EventEntity], work=[174*, 0*]
226: 0x0F9E [0x27] REQ_SET(priority=0x0B, entity_id=Prishe (ID: 16810216/0x010080E8), tag_num=0x9A)
227: 0x0FA5 [0x4A] LocalPlayer looks at Prishe (ID: 16810216/0x010080E8)
228: 0x0FAE [0x4A] Ulmia (ID: 16810217/0x010080E9) looks at Prishe (ID: 16810216/0x010080E8)
229: 0x0FB7 [0x6F] WAIT_FRAME_DELAY: Yield until WaitTime reaches zero
230: 0x0FB8 [0x76] CHECK_ENTITY_RENDER_FLAGS: Wait until Ulmia (ID: 16810217/0x010080E9) Render.Flags0 and Render.Flags3 conditions are met
231: 0x0FBD [0x29] REQ_SET_WAIT(priority=0x08, entity_id=Ulmia (ID: 16810217/0x010080E9), tag_num=0x09)
232: 0x0FC4 [0x2B] Ulmia (ID: 16810217/0x010080E9) [7688*]:
    → "Prishe!?"
233: 0x0FCB [0x23] WAIT_FOR_DIALOG_INTERACTION
234: 0x0FCC [0x1C] WAIT(30* ticks)
235: 0x0FCF [0x4A] LocalPlayer looks at Prishe (ID: 16810216/0x010080E8)
236: 0x0FD8 [0x27] REQ_SET(priority=0x0B, entity_id=Shikaree Y (ID: 16810219/0x010080EB), tag_num=0x41)
237: 0x0FDF [0x1C] WAIT(50* ticks)
238: 0x0FE2 [0x52] END_LOAD_SCHEDULER: End scheduler "s059" with entities [EventEntity, EventEntity], work=174*
239: 0x0FF1 [0x45] LOAD_SCHEDULED_TASK: Load scheduler "ovl1" with entities [LocalPlayer, LocalPlayer], work=[200*, 0*]
240: 0x1002 [0x45] LOAD_SCHEDULED_TASK: Load scheduler "s060" with entities [EventEntity, EventEntity], work=[174*, 0*]
241: 0x1013 [0x4A] LocalPlayer looks at Prishe (ID: 16810216/0x010080E8)
242: 0x101C [0x27] REQ_SET(priority=0x0B, entity_id=Shikaree X (ID: 16810220/0x010080EC), tag_num=0x40)
243: 0x1023 [0x29] REQ_SET_WAIT(priority=0x08, entity_id=Shikaree Z (ID: 16810218/0x010080EA), tag_num=0x32)
244: 0x102A [0x27] REQ_SET(priority=0x0B, entity_id=Shikaree Z (ID: 16810218/0x010080EA), tag_num=0x3B)
245: 0x1031 [0x2B] Shikaree Z (ID: 16810218/0x010080EA) [7689*]:
    → "Come back!"
246: 0x1038 [0x23] WAIT_FOR_DIALOG_INTERACTION
247: 0x1039 [0x1C] WAIT(40* ticks)
248: 0x103C [0x45] LOAD_SCHEDULED_TASK: Load scheduler "fdo1" with entities [LocalPlayer, LocalPlayer], work=[200*, 0*]
249: 0x104D [0x1C] WAIT(60* ticks)
250: 0x1050 [0x52] END_LOAD_SCHEDULER: End scheduler "s060" with entities [EventEntity, EventEntity], work=174*
251: 0x105F [0x29] REQ_SET_WAIT(priority=0x08, entity_id=Ulmia (ID: 16810217/0x010080E9), tag_num=0x0A)
252: 0x1066 [0x2A] GET_REQ_LEVEL(level=11, entity_id=Prishe (ID: 16810216/0x010080E8))
253: 0x106C [0x4E] SET_ENTITY_HIDE_FLAG: Show LocalPlayer
254: 0x1072 [0x80] LOAD_WAIT(entity=LocalPlayer)
255: 0x1077 [0x00] END_REQSTACK()
```

### Event 32000

#### Metadata

| Field        | Value   |
|--------------|---------|
| Entrypoint   | 0x1078  |
| Data Size    | 7 bytes |
| Instructions | 2       |

```
      00 01 02 03 04 05 06 07  08 09 0A 0B 0C 0D 0E 0F
      -- -- -- -- -- -- -- --  -- -- -- -- -- -- -- --
1070:                          92 01 F8 FF FF 7F 00             ....... 
```

#### Opcodes

```
  0: 0x1078 [0x92] EventEntity->Render.Flags3 ^= 0x01
  1: 0x107E [0x00] END_REQSTACK()
```

### Event 32001

#### Metadata

| Field        | Value   |
|--------------|---------|
| Entrypoint   | 0x107F  |
| Data Size    | 7 bytes |
| Instructions | 2       |

```
      00 01 02 03 04 05 06 07  08 09 0A 0B 0C 0D 0E 0F
      -- -- -- -- -- -- -- --  -- -- -- -- -- -- -- --
1070:                                               92                 .
1080: 01 F8 FF FF 7F 00                                 ......          
```

#### Opcodes

```
  0: 0x107F [0x92] EventEntity->Render.Flags3 ^= 0x01
  1: 0x1085 [0x00] END_REQSTACK()
```

### Event 7

#### Metadata

| Field        | Value      |
|--------------|------------|
| Entrypoint   | 0x1086     |
| Data Size    | 1204 bytes |
| Instructions | 168        |

```
      00 01 02 03 04 05 06 07  08 09 0A 0B 0C 0D 0E 0F
      -- -- -- -- -- -- -- --  -- -- -- -- -- -- -- --
1080:                   42 03  03 00 04 10 1A BF 1A 03        B.........
1090: 02 00 02 80 02 09 10 57  80 00 AB 10 03 02 00 20  .......W....... 
10A0: 80 03 00 00 02 10 03 01  00 03 10 46 01 38 58 80  ...........F.8X.
10B0: 1C 59 80 4E 00 F0 FF FF  7F 27 10 EA 80 00 01 40  .Y.N.....'.....@
10C0: 27 10 ED 80 00 01 03 92  01 EA 80 00 01 27 10 F0  '............'..
10D0: FF FF 7F 0F 27 10 EA 80  00 01 41 27 10 ED 80 00  ....'.....A'....
10E0: 01 04 80 F0 FF FF 7F 80  EA 80 00 01 80 ED 80 00  ................
10F0: 01 1C 59 80 79 00 F0 FF  FF 7F EA 80 00 01 27 10  ..Y.y.........'.
1100: F0 FF FF 7F 10 45 5A 80  F0 FF FF 7F F0 FF FF 7F  .....EZ.........
1110: 65 31 30 30 02 80 1A 9E  1A 55 5A 80 F0 FF FF 7F  e100.....UZ.....
1120: F0 FF FF 7F 65 31 30 30  45 5A 80 F0 FF FF 7F F0  ....e100EZ......
1130: FF FF 7F 65 31 30 31 02  80 55 5A 80 F0 FF FF 7F  ...e101..UZ.....
1140: F0 FF FF 7F 65 31 30 31  4A EA 80 00 01 F0 FF FF  ....e101J.......
1150: 7F 1C 59 80 45 5A 80 F0  FF FF 7F F0 FF FF 7F 65  ..Y.EZ.........e
1160: 31 30 32 02 80 2B EA 80  00 01 5B 80 23 52 5A 80  102..+....[.#RZ.
1170: F0 FF FF 7F F0 FF FF 7F  65 31 30 32 45 5A 80 F0  ........e102EZ..
1180: FF FF 7F F0 FF FF 7F 65  31 30 33 02 80 7B EA 80  .......e103..{..
1190: 00 01 66 5C 80 EA 80 00  01 EA 80 00 01 74 68 6B  ..f\.........thk
11A0: 31 2B EA 80 00 01 5D 80  23 66 5C 80 EA 80 00 01  1+....].#f\.....
11B0: EA 80 00 01 74 68 6B 32  2B EA 80 00 01 5E 80 23  ....thk2+....^.#
11C0: 52 5A 80 F0 FF FF 7F F0  FF FF 7F 65 31 30 33 45  RZ.........e103E
11D0: 5A 80 F0 FF FF 7F F0 FF  FF 7F 65 31 30 34 02 80  Z.........e104..
11E0: 6E EA 80 00 01 5F 80 99  EA 80 00 01 99 EA 80 00  n...._..........
11F0: 01 2B EA 80 00 01 60 80  23 1A BF 1A 1C 50 80 27  .+....`.#....P.'
1200: 10 F0 FF FF 7F 11 27 10  EA 80 00 01 42 79 00 EA  ......'.....By..
1210: 80 00 01 F0 FF FF 7F 1C  59 80 5C 00 61 80 5C 01  ........Y.\.a.\.
1220: 61 80 5C 02 61 80 5C 03  61 80 9A 52 5A 80 F0 FF  a.\.a.\.a..RZ...
1230: FF 7F F0 FF FF 7F 65 31  30 34 45 5A 80 F0 FF FF  ......e104EZ....
1240: 7F F0 FF FF 7F 65 31 30  35 02 80 1A 9E 1A 2B EA  .....e105.....+.
1250: 80 00 01 62 80 23 6E EA  80 00 01 63 80 99 EA 80  ...b.#n....c....
1260: 00 01 99 EA 80 00 01 2B  EA 80 00 01 64 80 23 52  .......+....d.#R
1270: 5A 80 F0 FF FF 7F F0 FF  FF 7F 65 31 30 35 45 5A  Z.........e105EZ
1280: 80 F0 FF FF 7F F0 FF FF  7F 65 31 30 36 02 80 66  .........e106..f
1290: 5C 80 EA 80 00 01 EA 80  00 01 74 6C 6B 30 02 02  \.........tlk0..
12A0: 00 20 80 00 AE 12 03 03  10 00 00 01 B7 12 03 01  . ..............
12B0: 10 48 80 43 00 43 01 2B  EA 80 00 01 65 80 23 2B  .H.C.C.+....e.#+
12C0: EA 80 00 01 66 80 23 52  5A 80 F0 FF FF 7F F0 FF  ....f.#RZ.......
12D0: FF 7F 65 31 30 36 45 5A  80 F0 FF FF 7F F0 FF FF  ..e106EZ........
12E0: 7F 65 31 30 37 02 80 7B  EA 80 00 01 66 5C 80 EA  .e107..{....f\..
12F0: 80 00 01 EA 80 00 01 74  68 6B 31 2B EA 80 00 01  .......thk1+....
1300: 67 80 23 66 5C 80 EA 80  00 01 EA 80 00 01 74 68  g.#f\.........th
1310: 6B 32 1C 68 80 4A EA 80  00 01 F0 FF FF 7F 6F 76  k2.h.J........ov
1320: EA 80 00 01 1C 31 80 52  5A 80 F0 FF FF 7F F0 FF  .....1.RZ.......
1330: FF 7F 65 31 30 37 45 5A  80 F0 FF FF 7F F0 FF FF  ..e107EZ........
1340: 7F 65 31 30 38 02 80 7B  EA 80 00 01 5B 69 80 EA  .e108..{....[i..
1350: 80 00 01 EA 80 00 01 74  6C 79 30 2B EA 80 00 01  .......tly0+....
1360: 6A 80 23 2B EA 80 00 01  6B 80 23 5B 69 80 EA 80  j.#+....k.#[i...
1370: 00 01 EA 80 00 01 74 6C  79 31 53 EA 80 00 01 EA  ......tly1S.....
1380: 80 00 01 74 6C 79 31 52  5A 80 F0 FF FF 7F F0 FF  ...tly1RZ.......
1390: FF 7F 65 31 30 38 45 5A  80 F0 FF FF 7F F0 FF FF  ..e108EZ........
13A0: 7F 65 31 30 39 02 80 2B  EA 80 00 01 6C 80 23 2B  .e109..+....l.#+
13B0: EA 80 00 01 6D 80 23 45  5A 80 F0 FF FF 7F F0 FF  ....m.#EZ.......
13C0: FF 7F 68 6F 75 30 02 80  5C 00 6E 80 5C 01 6E 80  ..hou0..\.n.\.n.
13D0: 5C 02 6E 80 5C 03 6E 80  9A 9F 68 80 ED 80 00 01  \.n.\.n...h.....
13E0: ED 80 00 01 6D 61 69 6E  02 80 1C 59 80 52 5A 80  ....main...Y.RZ.
13F0: F0 FF FF 7F F0 FF FF 7F  65 31 30 39 45 5A 80 F0  ........e109EZ..
1400: FF FF 7F F0 FF FF 7F 65  31 31 30 02 80 4A EA 80  .......e110..J..
1410: 00 01 ED 80 00 01 7C 00  EA 80 00 01 2B EA 80 00  ......|.....+...
1420: 01 6F 80 7C 01 EA 80 00  01 1C 59 80 4A F0 FF FF  .o.|......Y.J...
1430: 7F ED 80 00 01 6F 76 EA  80 00 01 27 10 ED 80 00  .....ov....'....
1440: 01 05 45 5A 80 F0 FF FF  7F F0 FF FF 7F 36 30 37  ..EZ.........607
1450: 39 02 80 5B 69 80 EA 80  00 01 EA 80 00 01 61 74  9..[i.........at
1460: 73 30 02 02 00 20 80 00  72 14 03 03 10 01 00 01  s0... ..r.......
1470: 7B 14 03 01 10 70 80 43  00 43 01 02 03 00 02 80  {....p.C.C......
1480: 00 8E 14 2B EA 80 00 01  71 80 23 01 96 14 2B EA  ...+....q.#...+.
1490: 80 00 01 72 80 23 27 10  F0 FF FF 7F 12 1C 73 80  ...r.#'.......s.
14A0: 52 5A 80 F0 FF FF 7F F0  FF FF 7F 65 31 31 30 45  RZ.........e110E
14B0: 5A 80 F0 FF FF 7F F0 FF  FF 7F 65 31 31 32 02 80  Z.........e112..
14C0: 1C 00 80 2B EA 80 00 01  74 80 23 45 5A 80 F0 FF  ...+....t.#EZ...
14D0: FF 7F F0 FF FF 7F 68 6F  75 32 02 80 5B 75 80 ED  ......hou2..[u..
14E0: 80 00 01 ED 80 00 01 68  6F 75 32 1C 73 80 1A BF  .......hou2.s...
14F0: 1A 1C 50 80 52 5A 80 F0  FF FF 7F F0 FF FF 7F 65  ..P.RZ.........e
1500: 31 31 32 45 5A 80 F0 FF  FF 7F F0 FF FF 7F 30 62  112EZ.........0b
1510: 6C 66 02 80 5C 00 02 80  5C 01 02 80 5C 02 0A 80  lf..\...\...\...
1520: 5C 03 0A 80 9A 46 00 45  03 80 F0 FF FF 7F F0 FF  \....F.E........
1530: FF 7F 66 64 69 32 02 80  21 00                    ..fdi2..!.      
```

#### Opcodes

```
  0: 0x1086 [0x42] SET_CLI_EVENT_CANCEL_DATA()
  1: 0x1087 [0x03] ExtData[1]->WorkLocal[3] = Work_Zone[4]
  2: 0x108C [0x1A] CALL_SUBROUTINE(address=0x1ABF)
  3: 0x108F [0x03] ExtData[1]->WorkLocal[2] = 0*
  4: 0x1094 [0x02] IF !(Work_Zone[9] == 99*) GOTO 0x10AB
  5: 0x109C [0x03] ExtData[1]->WorkLocal[2] = 1*
  6: 0x10A1 [0x03] ExtData[1]->WorkLocal[0] = Work_Zone[2]
  7: 0x10A6 [0x03] ExtData[1]->WorkLocal[1] = Work_Zone[3]
  8: 0x10AB [0x46] CAMERA_CONTROL: Disable user control
  9: 0x10AD [0x38] SET_CLIENT_EVENT_MODE(mode=19*)
 10: 0x10B0 [0x1C] WAIT(15* ticks)
 11: 0x10B3 [0x4E] SET_ENTITY_HIDE_FLAG: Show LocalPlayer
 12: 0x10B9 [0x27] REQ_SET(priority=0x10, entity_id=Shikaree Z (ID: 16810218/0x010080EA), tag_num=0x40)
 13: 0x10C0 [0x27] REQ_SET(priority=0x10, entity_id=Unnamed NPC (ID: 16810221/0x010080ED), tag_num=0x03)
 14: 0x10C7 [0x92] Shikaree Z (ID: 16810218/0x010080EA)->Render.Flags3 ^= 0x01
 15: 0x10CD [0x27] REQ_SET(priority=0x10, entity_id=LocalPlayer, tag_num=0x0F)
 16: 0x10D4 [0x27] REQ_SET(priority=0x10, entity_id=Shikaree Z (ID: 16810218/0x010080EA), tag_num=0x41)
 17: 0x10DB [0x27] REQ_SET(priority=0x10, entity_id=Unnamed NPC (ID: 16810221/0x010080ED), tag_num=0x04)
 18: 0x10E2 [0x80] LOAD_WAIT(entity=LocalPlayer)
 19: 0x10E7 [0x80] LOAD_WAIT(entity=Shikaree Z (ID: 16810218/0x010080EA))
 20: 0x10EC [0x80] LOAD_WAIT(entity=Unnamed NPC (ID: 16810221/0x010080ED))
 21: 0x10F1 [0x1C] WAIT(15* ticks)
 22: 0x10F4 [0x79] LocalPlayer looks at Shikaree Z (ID: 16810218/0x010080EA) (Basic look)
 23: 0x10FE [0x27] REQ_SET(priority=0x10, entity_id=LocalPlayer, tag_num=0x10)
 24: 0x1105 [0x45] LOAD_SCHEDULED_TASK: Load scheduler "e100" with entities [LocalPlayer, LocalPlayer], work=[176*, 0*]
 25: 0x1116 [0x1A] CALL_SUBROUTINE(address=0x1A9E)
 26: 0x1119 [0x55] WAIT_LOAD_SCHEDULER: Wait for scheduler "e100" with entities [LocalPlayer, LocalPlayer], work=176*
 27: 0x1128 [0x45] LOAD_SCHEDULED_TASK: Load scheduler "e101" with entities [LocalPlayer, LocalPlayer], work=[176*, 0*]
 28: 0x1139 [0x55] WAIT_LOAD_SCHEDULER: Wait for scheduler "e101" with entities [LocalPlayer, LocalPlayer], work=176*
 29: 0x1148 [0x4A] Shikaree Z (ID: 16810218/0x010080EA) looks at LocalPlayer
 30: 0x1151 [0x1C] WAIT(15* ticks)
 31: 0x1154 [0x45] LOAD_SCHEDULED_TASK: Load scheduler "e102" with entities [LocalPlayer, LocalPlayer], work=[176*, 0*]
 32: 0x1165 [0x2B] Shikaree Z (ID: 16810218/0x010080EA) [7690*]:
    → "Have you seen the wyrm Tiamat? Damn, this would have been perfect timing."
 33: 0x116C [0x23] WAIT_FOR_DIALOG_INTERACTION
 34: 0x116D [0x52] END_LOAD_SCHEDULER: End scheduler "e102" with entities [LocalPlayer, LocalPlayer], work=176*
 35: 0x117C [0x45] LOAD_SCHEDULED_TASK: Load scheduler "e103" with entities [LocalPlayer, LocalPlayer], work=[176*, 0*]
 36: 0x118D [0x7B] Shikaree Z (ID: 16810218/0x010080EA) stops talking
 37: 0x1192 [0x66] LOAD_EXT_SCHEDULER_MAIN: Load scheduler "thk1" with entities [Shikaree Z (ID: 16810218/0x010080EA), Shikaree Z (ID: 16810218/0x010080EA)], work=59*
 38: 0x11A1 [0x2B] Shikaree Z (ID: 16810218/0x010080EA) [7691*]:
    → "We could have forced that lizard to fly us to the Wyrmking's side..."
 39: 0x11A8 [0x23] WAIT_FOR_DIALOG_INTERACTION
 40: 0x11A9 [0x66] LOAD_EXT_SCHEDULER_MAIN: Load scheduler "thk2" with entities [Shikaree Z (ID: 16810218/0x010080EA), Shikaree Z (ID: 16810218/0x010080EA)], work=59*
 41: 0x11B8 [0x2B] Shikaree Z (ID: 16810218/0x010080EA) [7692*]:
    → "The conqueror of the skies must pay for stealing Altana's tears from her children!"
 42: 0x11BF [0x23] WAIT_FOR_DIALOG_INTERACTION
 43: 0x11C0 [0x52] END_LOAD_SCHEDULER: End scheduler "e103" with entities [LocalPlayer, LocalPlayer], work=176*
 44: 0x11CF [0x45] LOAD_SCHEDULED_TASK: Load scheduler "e104" with entities [LocalPlayer, LocalPlayer], work=[176*, 0*]
 45: 0x11E0 [0x6E] Shikaree Z (ID: 16810218/0x010080EA) uses emote 22*
 46: 0x11E7 [0x99] Wait for Shikaree Z (ID: 16810218/0x010080EA) animation to complete
 47: 0x11EC [0x99] Wait for Shikaree Z (ID: 16810218/0x010080EA) animation to complete
 48: 0x11F1 [0x2B] Shikaree Z (ID: 16810218/0x010080EA) [7693*]:
    → "Who am I? I could ask you the same question."
 49: 0x11F8 [0x23] WAIT_FOR_DIALOG_INTERACTION
 50: 0x11F9 [0x1A] CALL_SUBROUTINE(address=0x1ABF)
 51: 0x11FC [0x1C] WAIT(30* ticks)
 52: 0x11FF [0x27] REQ_SET(priority=0x10, entity_id=LocalPlayer, tag_num=0x11)
 53: 0x1206 [0x27] REQ_SET(priority=0x10, entity_id=Shikaree Z (ID: 16810218/0x010080EA), tag_num=0x42)
 54: 0x120D [0x79] Shikaree Z (ID: 16810218/0x010080EA) looks at LocalPlayer (Basic look)
 55: 0x1217 [0x1C] WAIT(15* ticks)
 56: 0x121A [0x5C] MUSIC_CONTROL: Set Idle (Day) music to song 127*
 57: 0x121E [0x5C] MUSIC_CONTROL: Set Idle (Night) music to song 127*
 58: 0x1222 [0x5C] MUSIC_CONTROL: Set Combat (Solo) music to song 127*
 59: 0x1226 [0x5C] MUSIC_CONTROL: Set Combat (Party) music to song 127*
 60: 0x122A [0x9A] WAIT_MUSIC_SERVER()
 61: 0x122B [0x52] END_LOAD_SCHEDULER: End scheduler "e104" with entities [LocalPlayer, LocalPlayer], work=176*
 62: 0x123A [0x45] LOAD_SCHEDULED_TASK: Load scheduler "e105" with entities [LocalPlayer, LocalPlayer], work=[176*, 0*]
 63: 0x124B [0x1A] CALL_SUBROUTINE(address=0x1A9E)
 64: 0x124E [0x2B] Shikaree Z (ID: 16810218/0x010080EA) [7694*]:
    → "I see. So the Fishermen's Guild hired you to find me here."
 65: 0x1255 [0x23] WAIT_FOR_DIALOG_INTERACTION
 66: 0x1256 [0x6E] Shikaree Z (ID: 16810218/0x010080EA) uses emote 7*
 67: 0x125D [0x99] Wait for Shikaree Z (ID: 16810218/0x010080EA) animation to complete
 68: 0x1262 [0x99] Wait for Shikaree Z (ID: 16810218/0x010080EA) animation to complete
 69: 0x1267 [0x2B] Shikaree Z (ID: 16810218/0x010080EA) [7695*]:
    → "I am the Mithran Tracker you seek. Shikaree Z."
 70: 0x126E [0x23] WAIT_FOR_DIALOG_INTERACTION
 71: 0x126F [0x52] END_LOAD_SCHEDULER: End scheduler "e105" with entities [LocalPlayer, LocalPlayer], work=176*
 72: 0x127E [0x45] LOAD_SCHEDULED_TASK: Load scheduler "e106" with entities [LocalPlayer, LocalPlayer], work=[176*, 0*]
 73: 0x128F [0x66] LOAD_EXT_SCHEDULER_MAIN: Load scheduler "tlk0" with entities [Shikaree Z (ID: 16810218/0x010080EA), Shikaree Z (ID: 16810218/0x010080EA)], work=59*
 74: 0x129E [0x02] IF !(ExtData[1]->WorkLocal[2] == 1*) GOTO 0x12AE
 75: 0x12A6 [0x03] Work_Zone[3] = ExtData[1]->WorkLocal[0]
 76: 0x12AB [0x01] GOTO 0x12B7
 77: 0x12AE [0x03] Work_Zone[1] = 100*
 78: 0x12B3 [0x43] SEND_EVENT_UPDATE: Send pending tag to server (packet 0x005B)
 79: 0x12B5 [0x43] SEND_EVENT_UPDATE: Check pending flag (skip if not pending)

SUBROUTINE_12B7:
 80: 0x12B7 [0x2B] Shikaree Z (ID: 16810218/0x010080EA) [7696*]:
    → "Let me see the $3. This seal is very familiar. I can tell you that Mithran pirates were responsible for drawing up this document."
 81: 0x12BE [0x23] WAIT_FOR_DIALOG_INTERACTION
 82: 0x12BF [0x2B] Shikaree Z (ID: 16810218/0x010080EA) [7697*]:
    → "It says here that the owner of this deed paid an enormous sum of money to purchase Purgonorgo Isle."
 83: 0x12C6 [0x23] WAIT_FOR_DIALOG_INTERACTION
 84: 0x12C7 [0x52] END_LOAD_SCHEDULER: End scheduler "e106" with entities [LocalPlayer, LocalPlayer], work=176*
 85: 0x12D6 [0x45] LOAD_SCHEDULED_TASK: Load scheduler "e107" with entities [LocalPlayer, LocalPlayer], work=[176*, 0*]
 86: 0x12E7 [0x7B] Shikaree Z (ID: 16810218/0x010080EA) stops talking
 87: 0x12EC [0x66] LOAD_EXT_SCHEDULER_MAIN: Load scheduler "thk1" with entities [Shikaree Z (ID: 16810218/0x010080EA), Shikaree Z (ID: 16810218/0x010080EA)], work=59*
 88: 0x12FB [0x2B] Shikaree Z (ID: 16810218/0x010080EA) [7698*]:
    → "And then there is this scent. It speaks eloquently of the deal that took place, and of the secrets to be kept on both sides."
 89: 0x1302 [0x23] WAIT_FOR_DIALOG_INTERACTION
 90: 0x1303 [0x66] LOAD_EXT_SCHEDULER_MAIN: Load scheduler "thk2" with entities [Shikaree Z (ID: 16810218/0x010080EA), Shikaree Z (ID: 16810218/0x010080EA)], work=59*
 91: 0x1312 [0x1C] WAIT(90* ticks)
 92: 0x1315 [0x4A] Shikaree Z (ID: 16810218/0x010080EA) looks at LocalPlayer
 93: 0x131E [0x6F] WAIT_FRAME_DELAY: Yield until WaitTime reaches zero
 94: 0x131F [0x76] CHECK_ENTITY_RENDER_FLAGS: Wait until Shikaree Z (ID: 16810218/0x010080EA) Render.Flags0 and Render.Flags3 conditions are met
 95: 0x1324 [0x1C] WAIT(6* ticks)
 96: 0x1327 [0x52] END_LOAD_SCHEDULER: End scheduler "e107" with entities [LocalPlayer, LocalPlayer], work=176*
 97: 0x1336 [0x45] LOAD_SCHEDULED_TASK: Load scheduler "e108" with entities [LocalPlayer, LocalPlayer], work=[176*, 0*]
 98: 0x1347 [0x7B] Shikaree Z (ID: 16810218/0x010080EA) stops talking
 99: 0x134C [0x5B] LOAD_EXT_SCHEDULER: Load scheduler "tly0" with entities [Shikaree Z (ID: 16810218/0x010080EA), Shikaree Z (ID: 16810218/0x010080EA)], work=665*
100: 0x135B [0x2B] Shikaree Z (ID: 16810218/0x010080EA) [7699*]:
    → "This deed takes precedence in Mithran law. I can assure you of its legality."
101: 0x1362 [0x23] WAIT_FOR_DIALOG_INTERACTION
102: 0x1363 [0x2B] Shikaree Z (ID: 16810218/0x010080EA) [7700*]:
    → "So the solution to this problem lies in discovering whether the island originally belonged to the pirates, or to the Fishermen's Guild."
103: 0x136A [0x23] WAIT_FOR_DIALOG_INTERACTION
104: 0x136B [0x5B] LOAD_EXT_SCHEDULER: Load scheduler "tly1" with entities [Shikaree Z (ID: 16810218/0x010080EA), Shikaree Z (ID: 16810218/0x010080EA)], work=665*
105: 0x137A [0x53] WAIT_SCHEDULER_TASK: Wait for scheduler "tly1" with entities [Shikaree Z (ID: 16810218/0x010080EA), Shikaree Z (ID: 16810218/0x010080EA)]
106: 0x1387 [0x52] END_LOAD_SCHEDULER: End scheduler "e108" with entities [LocalPlayer, LocalPlayer], work=176*
107: 0x1396 [0x45] LOAD_SCHEDULED_TASK: Load scheduler "e109" with entities [LocalPlayer, LocalPlayer], work=[176*, 0*]
108: 0x13A7 [0x2B] Shikaree Z (ID: 16810218/0x010080EA) [7701*]:
    → "That would rrrequire the judgment of many Mithra, however."
109: 0x13AE [0x23] WAIT_FOR_DIALOG_INTERACTION
110: 0x13AF [0x2B] Shikaree Z (ID: 16810218/0x010080EA) [7702*]:
    → "I will take this off your hands. Rrreturn to Windurst and inform the guild of my appraisal."
111: 0x13B6 [0x23] WAIT_FOR_DIALOG_INTERACTION
112: 0x13B7 [0x45] LOAD_SCHEDULED_TASK: Load scheduler "hou0" with entities [LocalPlayer, LocalPlayer], work=[176*, 0*]
113: 0x13C8 [0x5C] MUSIC_CONTROL: Set Idle (Day) music to song 219*
114: 0x13CC [0x5C] MUSIC_CONTROL: Set Idle (Night) music to song 219*
115: 0x13D0 [0x5C] MUSIC_CONTROL: Set Combat (Solo) music to song 219*
116: 0x13D4 [0x5C] MUSIC_CONTROL: Set Combat (Party) music to song 219*
117: 0x13D8 [0x9A] WAIT_MUSIC_SERVER()
118: 0x13D9 [0x9F] LOAD_SCHEDULED_TASK_ALT: Load scheduler "main" with entities [Unnamed NPC (ID: 16810221/0x010080ED), Unnamed NPC (ID: 16810221/0x010080ED)], work=[90*, 0*]
119: 0x13EA [0x1C] WAIT(15* ticks)
120: 0x13ED [0x52] END_LOAD_SCHEDULER: End scheduler "e109" with entities [LocalPlayer, LocalPlayer], work=176*
121: 0x13FC [0x45] LOAD_SCHEDULED_TASK: Load scheduler "e110" with entities [LocalPlayer, LocalPlayer], work=[176*, 0*]
122: 0x140D [0x4A] Shikaree Z (ID: 16810218/0x010080EA) looks at Unnamed NPC (ID: 16810221/0x010080ED)
123: 0x1416 [0x7C] Shikaree Z (ID: 16810218/0x010080EA)->Render.Flags2 |= 0x00
124: 0x141C [0x2B] Shikaree Z (ID: 16810218/0x010080EA) [7703*]:
    → "!!!"
125: 0x1423 [0x7C] Shikaree Z (ID: 16810218/0x010080EA)->Render.Flags2 |= 0x01
126: 0x1429 [0x1C] WAIT(15* ticks)
127: 0x142C [0x4A] LocalPlayer looks at Unnamed NPC (ID: 16810221/0x010080ED)
128: 0x1435 [0x6F] WAIT_FRAME_DELAY: Yield until WaitTime reaches zero
129: 0x1436 [0x76] CHECK_ENTITY_RENDER_FLAGS: Wait until Shikaree Z (ID: 16810218/0x010080EA) Render.Flags0 and Render.Flags3 conditions are met
130: 0x143B [0x27] REQ_SET(priority=0x10, entity_id=Unnamed NPC (ID: 16810221/0x010080ED), tag_num=0x05)
131: 0x1442 [0x45] LOAD_SCHEDULED_TASK: Load scheduler "6079" with entities [LocalPlayer, LocalPlayer], work=[176*, 0*]
132: 0x1453 [0x5B] LOAD_EXT_SCHEDULER: Load scheduler "ats0" with entities [Shikaree Z (ID: 16810218/0x010080EA), Shikaree Z (ID: 16810218/0x010080EA)], work=665*
133: 0x1462 [0x02] IF !(ExtData[1]->WorkLocal[2] == 1*) GOTO 0x1472
134: 0x146A [0x03] Work_Zone[3] = ExtData[1]->WorkLocal[1]
135: 0x146F [0x01] GOTO 0x147B
136: 0x1472 [0x03] Work_Zone[1] = 101*
137: 0x1477 [0x43] SEND_EVENT_UPDATE: Send pending tag to server (packet 0x005B)
138: 0x1479 [0x43] SEND_EVENT_UPDATE: Check pending flag (skip if not pending)

SUBROUTINE_147B:
139: 0x147B [0x02] IF !(ExtData[1]->WorkLocal[3] == 0*) GOTO 0x148E
140: 0x1483 [0x2B] Shikaree Z (ID: 16810218/0x010080EA) [7704*]:
    → "Get out of here! Take this $3. Head straight for the exit!"
141: 0x148A [0x23] WAIT_FOR_DIALOG_INTERACTION
142: 0x148B [0x01] GOTO 0x1496
143: 0x148E [0x2B] Shikaree Z (ID: 16810218/0x010080EA) [7706*]:
    → "Get out of here! Head straight for the exit!"
144: 0x1495 [0x23] WAIT_FOR_DIALOG_INTERACTION

SUBROUTINE_1496:
145: 0x1496 [0x27] REQ_SET(priority=0x10, entity_id=LocalPlayer, tag_num=0x12)
146: 0x149D [0x1C] WAIT(45* ticks)
147: 0x14A0 [0x52] END_LOAD_SCHEDULER: End scheduler "e110" with entities [LocalPlayer, LocalPlayer], work=176*
148: 0x14AF [0x45] LOAD_SCHEDULED_TASK: Load scheduler "e112" with entities [LocalPlayer, LocalPlayer], work=[176*, 0*]
149: 0x14C0 [0x1C] WAIT(60* ticks)
150: 0x14C3 [0x2B] Shikaree Z (ID: 16810218/0x010080EA) [7705*]:
    → "You're mine, Tiamat!"
151: 0x14CA [0x23] WAIT_FOR_DIALOG_INTERACTION
152: 0x14CB [0x45] LOAD_SCHEDULED_TASK: Load scheduler "hou2" with entities [LocalPlayer, LocalPlayer], work=[176*, 0*]
153: 0x14DC [0x5B] LOAD_EXT_SCHEDULER: Load scheduler "hou2" with entities [Unnamed NPC (ID: 16810221/0x010080ED), Unnamed NPC (ID: 16810221/0x010080ED)], work=653*
154: 0x14EB [0x1C] WAIT(45* ticks)
155: 0x14EE [0x1A] CALL_SUBROUTINE(address=0x1ABF)
156: 0x14F1 [0x1C] WAIT(30* ticks)
