# 0x7FFFFFF0 - Zone Events

## Common Data

| Field            | Value                  |
|------------------|------------------------|
| Zone             | Boneyard Gully (ID: 8) |
| Block Size       | 10620 bytes            |
| Total Events     | 23                     |
| References Count | 304                    |

## List of Events

| Event ID                   | Entrypoint   |   Size |   Instructions |
|----------------------------|--------------|--------|----------------|
| [65535](#event-65535)      | 0x0000       |      1 |              1 |
| [65534](#event-65534)      | 0x0001       |      1 |              1 |
| [32000](#event-32000)      | 0x0002       |   2203 |            436 |
| [32002](#event-32002)      | 0x089D       |    494 |             83 |
| [32001](#event-32001)      | 0x0A8B       |   1033 |            179 |
| [32003](#event-32003)      | 0x0E94       |    435 |             77 |
| [32004](#event-32004)      | 0x1047       |   1544 |            234 |
| [65535.1](#event-655351)   | 0x164F       |      6 |              2 |
| [65535.2](#event-655352)   | 0x1655       |      6 |              2 |
| [65535.3](#event-655353)   | 0x165B       |      6 |              2 |
| [65535.4](#event-655354)   | 0x1661       |      6 |              2 |
| [65535.5](#event-655355)   | 0x1667       |      6 |              2 |
| [65535.6](#event-655356)   | 0x166D       |     10 |              2 |
| [65535.7](#event-655357)   | 0x1677       |     10 |              2 |
| [65535.8](#event-655358)   | 0x1681       |     10 |              2 |
| [65535.9](#event-655359)   | 0x168B       |     10 |              2 |
| [65535.10](#event-6553510) | 0x1695       |     15 |              5 |
| [65535.11](#event-6553511) | 0x16A4       |     10 |              2 |
| [65535.12](#event-6553512) | 0x16AE       |     15 |              5 |
| [65535.13](#event-6553513) | 0x16BD       |     10 |              2 |
| [65535.14](#event-6553514) | 0x16C7       |     15 |              5 |
| [65535.15](#event-6553515) | 0x16D6       |     10 |              2 |
| [65535.16](#event-6553516) | 0x16E0       |   3438 |            419 |

## DAT References (imed_data)

|   Index | Hex Value   |   Dec Value |
|---------|-------------|-------------|
|       0 | 0x0000      |           0 |
|       1 | 0x000F      |          15 |
|       2 | 0x0010      |          16 |
|       3 | 0x001F      |          31 |
|       4 | 0xFFFFFFFF  |  4294967295 |
|       5 | 0x0001      |           1 |
|       6 | 0x1DB6      |        7606 |
|       7 | 0x1D0A      |        7434 |
|       8 | 0x0005      |           5 |
|       9 | 0x0002      |           2 |
|      10 | 0x0003      |           3 |
|      11 | 0x0004      |           4 |
|      12 | 0x1B9C      |        7068 |
|      13 | 0x00FF      |         255 |
|      14 | 0x00C8      |         200 |
|      15 | 0x0013      |          19 |
|      16 | 0x0008      |           8 |
|      17 | 0x0009      |           9 |
|      18 | 0x000B      |          11 |
|      19 | 0x1BA7      |        7079 |
|      20 | 0x1BA8      |        7080 |
|      21 | 0x1BA9      |        7081 |
|      22 | 0x1BAA      |        7082 |
|      23 | 0x1BCE      |        7118 |
|      24 | 0x0006      |           6 |
|      25 | 0x0012      |          18 |
|      26 | 0x0007      |           7 |
|      27 | 0x000A      |          10 |
|      28 | 0x000C      |          12 |
|      29 | 0x000D      |          13 |
|      30 | 0x000E      |          14 |
|      31 | 0x0011      |          17 |
|      32 | 0x0014      |          20 |
|      33 | 0x0015      |          21 |
|      34 | 0x0016      |          22 |
|      35 | 0x0017      |          23 |
|      36 | 0x0018      |          24 |
|      37 | 0x0019      |          25 |
|      38 | 0x001A      |          26 |
|      39 | 0x001B      |          27 |
|      40 | 0x001C      |          28 |
|      41 | 0x001D      |          29 |
|      42 | 0x001E      |          30 |
|      43 | 0x1D03      |        7427 |
|      44 | 0x1D08      |        7432 |
|      45 | 0x1D07      |        7431 |
|      46 | 0x003C      |          60 |
|      47 | 0x1DB4      |        7604 |
|      48 | 0x1DB3      |        7603 |
|      49 | 0x0064      |         100 |
|      50 | 0x1CEF      |        7407 |
|      51 | 0x00DC      |         220 |
|      52 | 0x1E94      |        7828 |
|      53 | 0x1B9F      |        7071 |
|      54 | 0x00C9      |         201 |
|      55 | 0x1DB7      |        7607 |
|      56 | 0x1DB8      |        7608 |
|      57 | 0x1DB9      |        7609 |
|      58 | 0x1DBA      |        7610 |
|      59 | 0x00B4      |         180 |
|      60 | 0xFFF6C42B  |  4294362155 |
|      61 | 0x752B9     |      479929 |
|      62 | 0xFFFFA767  |  4294944615 |
|      63 | 0x03E0      |         992 |
|      64 | 0xFFFBFE43  |  4294704707 |
|      65 | 0x5C401     |      377857 |
|      66 | 0xFFFDE79F  |  4294829983 |
|      67 | 0x0D92      |        3474 |
|      68 | 0x47AC      |       18348 |
|      69 | 0x76E1C     |      486940 |
|      70 | 0xFFFC93B2  |  4294742962 |
|      71 | 0x00C2      |         194 |
|      72 | 0x388A9     |      231593 |
|      73 | 0x57E9E     |      360094 |
|      74 | 0xFFFD59FC  |  4294793724 |
|      75 | 0x0726      |        1830 |
|      76 | 0x872C0     |      553664 |
|      77 | 0x7FEA3     |      523939 |
|      78 | 0xFFFF6AC3  |  4294929091 |
|      79 | 0x0A65      |        2661 |
|      80 | 0xFFF6A86F  |  4294355055 |
|      81 | 0x78CE8     |      494824 |
|      82 | 0xFFFFF9B8  |  4294965688 |
|      83 | 0x02EA      |         746 |
|      84 | 0xFFF2A593  |  4294092179 |
|      85 | 0xFFFF548C  |  4294923404 |
|      86 | 0xFFFF442C  |  4294919212 |
|      87 | 0x0201      |         513 |
|      88 | 0xFFF478D5  |  4294211797 |
|      89 | 0x89AEB     |      563947 |
|      90 | 0xFFFE4A5D  |  4294855261 |
|      91 | 0x0DEF      |        3567 |
|      92 | 0x1E173     |      123251 |
|      93 | 0xB8221     |      754209 |
|      94 | 0xFFFD5FA4  |  4294795172 |
|      95 | 0x01B8      |         440 |
|      96 | 0xFFF81ECC  |  4294450892 |
|      97 | 0xFFF3BE05  |  4294163973 |
|      98 | 0x5E8E      |       24206 |
|      99 | 0x01B5      |         437 |
|     100 | 0x012C      |         300 |
|     101 | 0x0080      |         128 |
|     102 | 0xFFF690A7  |  4294348967 |
|     103 | 0xFFF62CE4  |  4294323428 |
|     104 | 0xFFFF9B33  |  4294941491 |
|     105 | 0x0EB1      |        3761 |
|     106 | 0xFFFAEE7D  |  4294635133 |
|     107 | 0xFFF941C6  |  4294525382 |
|     108 | 0xFFFE8CB1  |  4294872241 |
|     109 | 0x0EB0      |        3760 |
|     110 | 0xFFFFCF50  |  4294954832 |
|     111 | 0xFFF61B47  |  4294318919 |
|     112 | 0xFFFD07BB  |  4294772667 |
|     113 | 0x0EBA      |        3770 |
|     114 | 0x4EF35     |      323381 |
|     115 | 0xFFF93A6F  |  4294523503 |
|     116 | 0xFFFE5868  |  4294858856 |
|     117 | 0x0EA0      |        3744 |
|     118 | 0x92763     |      599907 |
|     119 | 0xFFF5AB97  |  4294290327 |
|     120 | 0xFFFFA837  |  4294944823 |
|     121 | 0x0EB3      |        3763 |
|     122 | 0x8709B     |      553115 |
|     123 | 0xFFF78F55  |  4294414165 |
|     124 | 0xFFFFFD44  |  4294966596 |
|     125 | 0x01AD      |         429 |
|     126 | 0x00A8      |         168 |
|     127 | 0x30D7B     |      200059 |
|     128 | 0xFFFFAA3A  |  4294945338 |
|     129 | 0xFFFFFF06  |  4294967046 |
|     130 | 0x0411      |        1041 |
|     131 | 0x00CA      |         202 |
|     132 | 0x837EC     |      538604 |
|     133 | 0x7A88C     |      501900 |
|     134 | 0xFFFFC98A  |  4294953354 |
|     135 | 0x0CBC      |        3260 |
|     136 | 0x00CB      |         203 |
|     137 | 0x870F5     |      553205 |
|     138 | 0x8FF41     |      589633 |
|     139 | 0xFFFFFFEB  |  4294967275 |
|     140 | 0x0587      |        1415 |
|     141 | 0x00D3      |         211 |
|     142 | 0x8AF88     |      569224 |
|     143 | 0x85E6E     |      548462 |
|     144 | 0x8FE5      |       36837 |
|     145 | 0x02A1      |         673 |
|     146 | 0x0024      |          36 |
|     147 | 0x1CF1      |        7409 |
|     148 | 0x1CF0      |        7408 |
|     149 | 0x1DB2      |        7602 |
|     150 | 0x1CF3      |        7411 |
|     151 | 0x1CF2      |        7410 |
|     152 | 0xFFF699CD  |  4294351309 |
|     153 | 0x7A9FA     |      502266 |
|     154 | 0xFFFFF936  |  4294965558 |
|     155 | 0x0957      |        2391 |
|     156 | 0x006C      |         108 |
|     157 | 0x0028      |          40 |
|     158 | 0xFFF66677  |  4294338167 |
|     159 | 0x7C3F7     |      508919 |
|     160 | 0xFFFFFA7D  |  4294965885 |
|     161 | 0xFFF64FAC  |  4294332332 |
|     162 | 0xFFF800C8  |  4294443208 |
|     163 | 0xFFFFFF53  |  4294967123 |
|     164 | 0x0B22      |        2850 |
|     165 | 0xFFFFEC78  |  4294962296 |
|     166 | 0x0078      |         120 |
|     167 | 0x82EBD     |      536253 |
|     168 | 0xFFF7B63C  |  4294424124 |
|     169 | 0xFFFFF8F7  |  4294965495 |
|     170 | 0x01A7      |         423 |
|     171 | 0x867E8     |      550888 |
|     172 | 0xFFF79B5C  |  4294417244 |
|     173 | 0xFFFFFB18  |  4294966040 |
|     174 | 0x1B9D      |        7069 |
|     175 | 0xFFF66F0E  |  4294340366 |
|     176 | 0xFFF7DF1F  |  4294434591 |
|     177 | 0xFFFFF9B0  |  4294965680 |
|     178 | 0x00B2      |         178 |
|     179 | 0xFFF69D9E  |  4294352286 |
|     180 | 0xFFF7CA60  |  4294429280 |
|     181 | 0xFFFFF8A8  |  4294965416 |
|     182 | 0x0071      |         113 |
|     183 | 0x0074      |         116 |
|     184 | 0x0077      |         119 |
|     185 | 0x007B      |         123 |
|     186 | 0x0087      |         135 |
|     187 | 0xFFFEDD6B  |  4294892907 |
|     188 | 0x89F1      |       35313 |
|     189 | 0xFFFFFEC8  |  4294966984 |
|     190 | 0x0ACC      |        2764 |
|     191 | 0x62CB4     |      404660 |
|     192 | 0x7E567     |      517479 |
|     193 | 0xFFFFFF96  |  4294967190 |
|     194 | 0x0B3C      |        2876 |
|     195 | 0xFFFF746A  |  4294931562 |
|     196 | 0x136D9     |       79577 |
|     197 | 0x0F87      |        3975 |
|     198 | 0xFFFFF7E2  |  4294965218 |
|     199 | 0x1CFD7     |      118743 |
|     200 | 0x0C84      |        3204 |
|     201 | 0x0A96      |        2710 |
|     202 | 0xFFFFF3DB  |  4294964187 |
|     203 | 0x1D761     |      120673 |
|     204 | 0x0D0F      |        3343 |
|     205 | 0x0A58      |        2648 |
|     206 | 0xFFF7E031  |  4294434865 |
|     207 | 0xFFF8ED0E  |  4294503694 |
|     208 | 0x0076      |         118 |
|     209 | 0x0B26      |        2854 |
|     210 | 0xFFF7DA56  |  4294433366 |
|     211 | 0xFFF8FB8A  |  4294507402 |
|     212 | 0xFFFFFEFF  |  4294967039 |
|     213 | 0xFFF7BC86  |  4294425734 |
|     214 | 0xFFF92F1E  |  4294520606 |
|     215 | 0x00BD      |         189 |
|     216 | 0x0BF9      |        3065 |
|     217 | 0xFFF7DC69  |  4294433897 |
|     218 | 0xFFF8ECEC  |  4294503660 |
|     219 | 0xFFF72BDF  |  4294388703 |
|     220 | 0xFFF8DDE1  |  4294499809 |
|     221 | 0xFFFFF557  |  4294964567 |
|     222 | 0x0E86      |        3718 |
|     223 | 0xFFF733B5  |  4294390709 |
|     224 | 0xFFF8E312  |  4294501138 |
|     225 | 0xFFFFF3C6  |  4294964166 |
|     226 | 0xFFF744B7  |  4294395063 |
|     227 | 0xFFF8E8F0  |  4294502640 |
|     228 | 0xFFFFF21F  |  4294963743 |
|     229 | 0x0BC1      |        3009 |
|     230 | 0xFFF6FF39  |  4294377273 |
|     231 | 0xFFF8B724  |  4294489892 |
|     232 | 0x0108      |         264 |
|     233 | 0xFFF7051C  |  4294378780 |
|     234 | 0xFFF8BD49  |  4294491465 |
|     235 | 0x00AE      |         174 |
|     236 | 0x0E20      |        3616 |
|     237 | 0x0054      |          84 |
|     238 | 0x1E57      |        7767 |
|     239 | 0x1E58      |        7768 |
|     240 | 0x029C      |         668 |
|     241 | 0x1E59      |        7769 |
|     242 | 0x1E5A      |        7770 |
|     243 | 0x1E5B      |        7771 |
|     244 | 0x1E5C      |        7772 |
|     245 | 0x1E5D      |        7773 |
|     246 | 0x00B0      |         176 |
|     247 | 0x1E5E      |        7774 |
|     248 | 0x1E5F      |        7775 |
|     249 | 0x1E60      |        7776 |
|     250 | 0x1E61      |        7777 |
|     251 | 0x0032      |          50 |
|     252 | 0xFFF7E717  |  4294436631 |
|     253 | 0xFFF8B448  |  4294489160 |
|     254 | 0x014A      |         330 |
|     255 | 0x035B      |         859 |
|     256 | 0x0021      |          33 |
|     257 | 0x1E64      |        7780 |
|     258 | 0x0023      |          35 |
|     259 | 0x1E65      |        7781 |
|     260 | 0x1E66      |        7782 |
|     261 | 0x1E67      |        7783 |
|     262 | 0x1E68      |        7784 |
|     263 | 0xFFF6E7CA  |  4294371274 |
|     264 | 0xFFF8A20C  |  4294484492 |
|     265 | 0xFFFFFFFE  |  4294967294 |
|     266 | 0x0F09      |        3849 |
|     267 | 0xFFFFF830  |  4294965296 |
|     268 | 0x07D0      |        2000 |
|     269 | 0x1E69      |        7785 |
|     270 | 0x1E6A      |        7786 |
|     271 | 0x1E6B      |        7787 |
|     272 | 0x1E6C      |        7788 |
|     273 | 0x1E6D      |        7789 |
|     274 | 0x1E6E      |        7790 |
|     275 | 0x1E6F      |        7791 |
|     276 | 0x1E70      |        7792 |
|     277 | 0x1E71      |        7793 |
|     278 | 0x1E72      |        7794 |
|     279 | 0x00E7      |         231 |
|     280 | 0x1E73      |        7795 |
|     281 | 0x1E74      |        7796 |
|     282 | 0x1E75      |        7797 |
|     283 | 0x1E76      |        7798 |
|     284 | 0x1E77      |        7799 |
|     285 | 0x1E78      |        7800 |
|     286 | 0x1E79      |        7801 |
|     287 | 0x1E7A      |        7802 |
|     288 | 0x1E7B      |        7803 |
|     289 | 0x1E7C      |        7804 |
|     290 | 0x1E7D      |        7805 |
|     291 | 0x005A      |          90 |
|     292 | 0x1E7E      |        7806 |
|     293 | 0x0096      |         150 |
|     294 | 0xFFF7B8C0  |  4294424768 |
|     295 | 0xFFF8ADDA  |  4294487514 |
|     296 | 0x0347      |         839 |
|     297 | 0x028A      |         650 |
|     298 | 0x1E82      |        7810 |
|     299 | 0x1E83      |        7811 |
|     300 | 0x1E84      |        7812 |
|     301 | 0x1E85      |        7813 |
|     302 | 0x0800      |        2048 |
|     303 | 0x1E86      |        7814 |

## String References

- **7068**: Enter the battlefield? [Enter./Decline.]
- **7069**: Leave the battlefield? [Run away./Stay.]
- **7071**: You cannot enter the battlefield at present. Please wait a little longer.
- **7079**: You are cleared to enter the battlefield, but you cannot while party members are engaged in combat.
- **7080**: You are cleared to enter the battlefield, but you cannot while party members are engaged in combat.
- **7081**: You are cleared to enter the battlefield, but you cannot while party members are engaged in combat.
- **7082**: You are cleared to enter the battlefield, but you cannot while party members are engaged in combat.
- **7118**: You do not meet the requirements to enter the battlefield. Access is denied.
- **7407**: Skip the event? [Yes./No.]
- **7408**: Battlefield clear time: $3 second[/s]!
- **7409**: Battlefield clear time: $3 minute[/s], $2 second[/s]!
- **7410**: The current battlefield clear time record is $3 second[/s].
- **7411**: The current battlefield clear time record is $3 minute[/s] $2 second[/s].
- **7427**: Only $3 [member/members] have clearance to enter the battlefield. This room has reached its maximum capacity.
- **7431**: That record is held by $5 adventurers, including %0!
- **7432**: That record is held by %0!
- **7434**: Select difficulty. [Very difficult. (Level: ???)/Difficult. (Level: ???)/Normal. (Level: $18)/Easy. (Level: $17)/Very Easy. (Level: $16)/Leave.]
- **7602**: You have broken the clear time record for "[Head Wind/Like the Wind/Sheep in Antlion's Clothing/Shell We Dance?/Totentanz/Tango with a Tracker/Requiem of Sin/Antagonistic Ambuscade/$26Head Wind]"!
- **7603**: The current battlefield clear time record for "[Head Wind/Like the Wind/Sheep in Antlion's Clothing/Shell We Dance?/Totentanz/Tango with a Tracker/Requiem of Sin/Antagonistic Ambuscade/$26Head Wind]" is $3 second[/s].
- **7604**: The current battlefield clear time record for "[Head Wind/Like the Wind/Sheep in Antlion's Clothing/Shell We Dance?/Totentanz/Tango with a Tracker/Requiem of Sin/Antagonistic Ambuscade/$26Head Wind]" is $3 minute[/s] $2 second[/s].
- **7606**: Which battlefield will you enter? [None./Head Wind./Like the Wind./Sheep in Antlion's Clothing./Shell We Dance?/Totentanz./Tango with a Tracker./Requiem of Sin./Antagonistic Ambuscade./$26Head Wind./././././././././././././././././././././././]
- **7607**: Level limit of 75. The experience point reward for this battlefield will be reduced for parties of four or more members.
- **7608**: Level limit of 75. The experience point reward for this battlefield will be reduced for parties of seven or more members.
- **7609**: Level limit of 75. The experience point reward for this battlefield will be reduced for parties of thirteen or more members.
- **7610**: Level limit of 75.
- **7828**: You feel the gaze of innumerable eyes watching you from the darkness...

## Events

### Event 65535

#### Metadata

| Field        | Value   |
|--------------|---------|
| Entrypoint   | 0x0000  |
| Data Size    | 1 bytes |
| Instructions | 1       |

```
      00 01 02 03 04 05 06 07  08 09 0A 0B 0C 0D 0E 0F
      -- -- -- -- -- -- -- --  -- -- -- -- -- -- -- --
0000: 00                                                .               
```

#### Opcodes

```
  0: 0x0000 [0x00] END_REQSTACK()
```

### Event 65534

#### Metadata

| Field        | Value   |
|--------------|---------|
| Entrypoint   | 0x0001  |
| Data Size    | 1 bytes |
| Instructions | 1       |

```
      00 01 02 03 04 05 06 07  08 09 0A 0B 0C 0D 0E 0F
      -- -- -- -- -- -- -- --  -- -- -- -- -- -- -- --
0000:    00                                              .              
```

#### Opcodes

```
  0: 0x0001 [0x00] END_REQSTACK()
```

### Event 32000

#### Metadata

| Field        | Value      |
|--------------|------------|
| Entrypoint   | 0x0002     |
| Data Size    | 2203 bytes |
| Instructions | 303        |

```
      00 01 02 03 04 05 06 07  08 09 0A 0B 0C 0D 0E 0F
      -- -- -- -- -- -- -- --  -- -- -- -- -- -- -- --
0000:       20 01 79 00 F0 FF  FF 7F F0 FF FF 7F 03 02     .y...........
0010: 00 02 10 03 03 00 03 10  03 05 00 04 10 03 06 00  ................
0020: 05 10 03 0F 00 06 10 03  10 00 07 10 03 11 00 08  ................
0030: 10 41 00 80 01 80 09 10  07 00 41 02 80 03 80 09  .A........A.....
0040: 10 06 10 06 01 00 02 07  00 00 80 00 45 01 03 08  ............E...
0050: 00 04 80 0F 08 00 06 00  10 08 00 05 80 24 06 80  .............$..
0060: 00 80 08 00 25 02 00 10  00 80 00 73 00 01 3A 08  ....%......s..:.
0070: 01 45 01 03 03 00 00 10  0C 03 00 06 16 00 06 13  .E..............
0080: 00 3E 0F 00 03 00 21 01  06 0F 00 06 08 00 3E 11  .>....!.......>.
0090: 00 03 00 98 00 01 9F 00  3C 08 00 00 80 05 80 3E  ........<......>
00A0: 10 00 03 00 A9 00 01 B0  00 3C 08 00 05 80 05 80  .........<......
00B0: 1A AD 15 24 07 80 08 80  08 00 25 02 00 10 00 80  ...$......%.....
00C0: 00 CB 00 03 0F 00 05 80  01 1E 01 02 00 10 05 80  ................
00D0: 00 DB 00 03 0F 00 09 80  01 1E 01 02 00 10 09 80  ................
00E0: 00 EB 00 03 0F 00 0A 80  01 1E 01 02 00 10 0A 80  ................
00F0: 00 FB 00 03 0F 00 0B 80  01 1E 01 02 00 10 0B 80  ................
0100: 00 0B 01 03 0F 00 08 80  01 1E 01 02 00 10 08 80  ................
0110: 00 19 01 01 3A 08 01 1E  01 03 0F 00 0A 80 01 45  ....:..........E
0120: 01 06 0F 00 1A 54 08 02  16 00 05 80 00 45 01 24  .....T.......E.$
0130: 0C 80 05 80 00 80 25 02  00 10 05 80 00 45 01 01  ......%......E..
0140: 3A 08 01 45 01 42 03 01  10 0D 80 43 00 43 01 06  :..E.B.....C.C..
0150: 01 10 45 0E 80 F0 FF FF  7F F0 FF FF 7F 66 64 6F  ..E..........fdo
0160: 31 00 80 55 0E 80 F0 FF  FF 7F F0 FF FF 7F 66 64  1..U..........fd
0170: 6F 31 3B F0 FF FF 7F 20  10 21 10 22 10 38 0F 80  o1;.... .!.".8..
0180: 02 07 00 05 80 00 9F 01  03 00 00 05 80 03 04 00  ................
0190: 03 00 03 02 00 00 80 03  1C 00 00 80 01 5F 05 03  ............._..
01A0: 00 00 05 80 02 00 00 0A  80 05 03 08 02 00 80 05  ................
01B0: 80 00 B9 01 03 00 00 05  00 40 00 80 0A 80 01 10  .........@......
01C0: 00 00 40 0B 80 10 80 01  10 03 00 40 11 80 12 80  ..@........@....
01D0: 01 10 0F 00 06 02 10 06  03 10 06 04 10 1A D2 15  ................
01E0: 47 00 09 00 0A 00 0B 00  0C 00 47 01 03 04 00 03  G.........G.....
01F0: 10 03 02 00 04 10 03 1A  00 05 10 03 0D 00 06 10  ................
0200: 03 0E 00 07 10 03 1C 00  09 10 02 02 10 05 80 80  ................
0210: 15 02 01 F0 07 02 02 10  0B 80 80 5F 02 02 00 00  ..........._....
0220: 05 80 80 2C 02 48 13 80  23 01 59 02 02 00 00 09  ...,.H..#.Y.....
0230: 80 80 3B 02 48 14 80 23  01 59 02 02 00 00 0A 80  ..;.H..#.Y......
0240: 80 4A 02 48 15 80 23 01  59 02 02 00 00 0B 80 80  .J.H..#.Y.......
0250: 59 02 48 16 80 23 01 59  02 01 07 08 01 F0 07 02  Y.H..#.Y........
0260: 02 10 08 80 80 71 02 48  17 80 23 01 07 08 01 F0  .....q.H..#.....
0270: 07 02 02 10 18 80 80 73  04 02 04 00 00 80 80 89  .......s........
0280: 02 03 05 10 18 80 01 69  04 02 04 00 05 80 80 99  .......i........
0290: 02 03 05 10 19 80 01 69  04 02 04 00 09 80 80 A9  .......i........
02A0: 02 03 05 10 19 80 01 69  04 02 04 00 0A 80 80 B9  .......i........
02B0: 02 03 05 10 19 80 01 69  04 02 04 00 0B 80 80 C9  .......i........
02C0: 02 03 05 10 19 80 01 69  04 02 04 00 08 80 80 D9  .......i........
02D0: 02 03 05 10 18 80 01 69  04 02 04 00 18 80 80 E9  .......i........
02E0: 02 03 05 10 18 80 01 69  04 02 04 00 1A 80 80 F9  .......i........
02F0: 02 03 05 10 18 80 01 69  04 02 04 00 10 80 80 09  .......i........
0300: 03 03 05 10 18 80 01 69  04 02 04 00 11 80 80 19  .......i........
0310: 03 03 05 10 00 80 01 69  04 02 04 00 1B 80 80 29  .......i.......)
0320: 03 03 05 10 00 80 01 69  04 02 04 00 12 80 80 39  .......i.......9
0330: 03 03 05 10 00 80 01 69  04 02 04 00 1C 80 80 49  .......i.......I
0340: 03 03 05 10 00 80 01 69  04 02 04 00 1D 80 80 59  .......i.......Y
0350: 03 03 05 10 00 80 01 69  04 02 04 00 1E 80 80 69  .......i.......i
0360: 03 03 05 10 00 80 01 69  04 02 04 00 01 80 80 79  .......i.......y
0370: 03 03 05 10 00 80 01 69  04 02 04 00 02 80 80 89  .......i........
0380: 03 03 05 10 00 80 01 69  04 02 04 00 1F 80 80 99  .......i........
0390: 03 03 05 10 00 80 01 69  04 02 04 00 19 80 80 A9  .......i........
03A0: 03 03 05 10 00 80 01 69  04 02 04 00 0F 80 80 B9  .......i........
03B0: 03 03 05 10 00 80 01 69  04 02 04 00 20 80 80 C9  .......i.... ...
03C0: 03 03 05 10 00 80 01 69  04 02 04 00 21 80 80 D9  .......i....!...
03D0: 03 03 05 10 00 80 01 69  04 02 04 00 22 80 80 E9  .......i...."...
03E0: 03 03 05 10 00 80 01 69  04 02 04 00 23 80 80 F9  .......i....#...
03F0: 03 03 05 10 00 80 01 69  04 02 04 00 24 80 80 09  .......i....$...
0400: 04 03 05 10 00 80 01 69  04 02 04 00 25 80 80 19  .......i....%...
0410: 04 03 05 10 00 80 01 69  04 02 04 00 26 80 80 29  .......i....&..)
0420: 04 03 05 10 00 80 01 69  04 02 04 00 27 80 80 39  .......i....'..9
0430: 04 03 05 10 00 80 01 69  04 02 04 00 28 80 80 49  .......i....(..I
0440: 04 03 05 10 00 80 01 69  04 02 04 00 29 80 80 59  .......i....)..Y
0450: 04 03 05 10 00 80 01 69  04 02 04 00 2A 80 80 69  .......i....*..i
0460: 04 03 05 10 00 80 01 69  04 48 2B 80 23 01 07 08  .......i.H+.#...
0470: 01 F0 07 02 02 10 0A 80  80 81 04 01 9F 01 01 F0  ................
0480: 07 02 02 10 09 80 80 F0  07 02 0D 00 00 80 01 15  ................
0490: 05 02 13 00 00 80 01 C9  04 03 05 10 1A 00 02 1A  ................
04A0: 00 00 80 02 A6 04 02 0D  00 05 80 05 B5 04 48 2C  ..............H,
04B0: 80 23 01 C6 04 03 06 10  0D 00 0C 06 10 03 07 10  .#..............
04C0: 0D 00 48 2D 80 23 01 15  05 03 05 10 1A 00 02 1A  ..H-.#..........
04D0: 00 00 80 02 F5 04 02 1A  00 2E 80 04 F1 04 3F 04  ..............?.
04E0: 10 05 10 2E 80 15 05 10  2E 80 48 2F 80 23 01 F5  ..........H/.#..
04F0: 04 48 30 80 23 02 0D 00  05 80 05 04 05 48 2C 80  .H0.#........H,.
0500: 23 01 15 05 03 06 10 0D  00 0C 06 10 03 07 10 0D  #...............
0510: 00 48 2D 80 23 03 03 00  04 00 03 14 00 31 80 07  .H-.#........1..
0520: 14 00 03 00 02 02 00 14  00 00 34 05 03 02 00 05  ..........4.....
0530: 80 01 39 05 03 02 00 00  80 02 02 00 00 80 00 5F  ..9............_
0540: 05 02 0E 00 05 80 00 5F  05 24 32 80 05 80 00 80  ......._.$2.....
0550: 25 02 00 10 00 80 00 5F  05 05 02 00 01 5F 05 06  %......_....._..
0560: 15 00 02 04 00 00 80 80  72 05 03 15 00 00 80 01  ........r.......
0570: 57 07 02 04 00 05 80 80  82 05 03 15 00 00 80 01  W...............
0580: 57 07 02 04 00 09 80 80  92 05 03 15 00 00 80 01  W...............
0590: 57 07 02 04 00 0A 80 80  A2 05 03 15 00 00 80 01  W...............
05A0: 57 07 02 04 00 0B 80 80  B2 05 03 15 00 00 80 01  W...............
05B0: 57 07 02 04 00 08 80 80  C2 05 03 15 00 00 80 01  W...............
05C0: 57 07 02 04 00 18 80 80  D2 05 03 15 00 00 80 01  W...............
05D0: 57 07 02 04 00 1A 80 80  E2 05 03 15 00 00 80 01  W...............
05E0: 57 07 02 04 00 10 80 80  F2 05 03 15 00 00 80 01  W...............
05F0: 57 07 02 04 00 11 80 80  02 06 03 15 00 00 80 01  W...............
0600: 57 07 02 04 00 1B 80 80  12 06 03 15 00 00 80 01  W...............
0610: 57 07 02 04 00 12 80 80  22 06 03 15 00 00 80 01  W.......".......
0620: 57 07 02 04 00 1C 80 80  32 06 03 15 00 00 80 01  W.......2.......
0630: 57 07 02 04 00 1D 80 80  42 06 03 15 00 00 80 01  W.......B.......
0640: 57 07 02 04 00 1E 80 80  52 06 03 15 00 00 80 01  W.......R.......
0650: 57 07 02 04 00 01 80 80  62 06 03 15 00 00 80 01  W.......b.......
0660: 57 07 02 04 00 02 80 80  72 06 03 15 00 00 80 01  W.......r.......
0670: 57 07 02 04 00 1F 80 80  82 06 03 15 00 00 80 01  W...............
0680: 57 07 02 04 00 19 80 80  92 06 03 15 00 00 80 01  W...............
0690: 57 07 02 04 00 0F 80 80  A2 06 03 15 00 00 80 01  W...............
06A0: 57 07 02 04 00 20 80 80  B2 06 03 15 00 00 80 01  W.... ..........
06B0: 57 07 02 04 00 21 80 80  C2 06 03 15 00 00 80 01  W....!..........
06C0: 57 07 02 04 00 22 80 80  D2 06 03 15 00 00 80 01  W...."..........
06D0: 57 07 02 04 00 23 80 80  E2 06 03 15 00 00 80 01  W....#..........
06E0: 57 07 02 04 00 24 80 80  F2 06 03 15 00 00 80 01  W....$..........
06F0: 57 07 02 04 00 25 80 80  02 07 03 15 00 00 80 01  W....%..........
0700: 57 07 02 04 00 26 80 80  12 07 03 15 00 00 80 01  W....&..........
0710: 57 07 02 04 00 27 80 80  22 07 03 15 00 00 80 01  W....'..".......
0720: 57 07 02 04 00 28 80 80  32 07 03 15 00 00 80 01  W....(..2.......
0730: 57 07 02 04 00 29 80 80  42 07 03 15 00 00 80 01  W....)..B.......
0740: 57 07 02 04 00 2A 80 80  52 07 03 15 00 00 80 01  W....*..R.......
0750: 57 07 03 15 00 00 80 02  02 00 05 80 00 72 07 5C  W............r.\
0760: 00 33 80 5C 01 33 80 5C  02 33 80 5C 03 33 80 01  .3.\.3.\.3.\.3..
0770: 8A 07 02 15 00 00 80 00  8A 07 5C 00 33 80 5C 01  ..........\.3.\.
0780: 33 80 5C 02 33 80 5C 03  33 80 02 02 00 00 80 00  3.\.3.\.3.......
0790: 98 07 1A 60 10 01 D1 07  6C F0 FF FF 7F 00 80 05  ...`....l.......
07A0: 80 62 09 80 F0 FF FF 7F  F0 FF FF 7F 6D 61 69 6E  .b..........main
07B0: 00 80 45 0E 80 F0 FF FF  7F F0 FF FF 7F 6F 76 6C  ..E..........ovl
07C0: 31 00 80 46 02 12 00 02  12 00 00 80 00 D1 07 46  1..F...........F
07D0: 00 02 04 00 1A 80 80 E0  07 48 34 80 23 01 E0 07  .........H4.#...
07E0: 03 01 10 31 80 07 01 10  03 00 01 07 08 01 F0 07  ...1............
07F0: 0B 00 00 02 00 80 05 80  00 00 08 03 00 00 0B 80  ................
0800: 01 A4 01 48 35 80 23 45  36 80 F0 FF FF 7F F0 FF  ...H5.#E6.......
0810: FF 7F 77 68 69 31 00 80  45 0E 80 F0 FF FF 7F F0  ..whi1..E.......
0820: FF FF 7F 62 6C 6F 66 00  80 45 0E 80 F0 FF FF 7F  ...blof..E......
0830: F0 FF FF 7F 66 64 69 30  00 80 02 07 00 05 80 00  ....fdi0........
0840: 52 08 5C 00 00 80 5C 01  00 80 5C 02 33 80 5C 03  R.\...\...\.3.\.
0850: 33 80 21 00 02 03 00 05  80 80 66 08 48 37 80 23  3.!.......f.H7.#
0860: 05 16 00 01 9C 08 02 03  00 09 80 80 78 08 48 38  ............x.H8
0870: 80 23 05 16 00 01 9C 08  02 03 00 0A 80 80 8A 08  .#..............
0880: 48 39 80 23 05 16 00 01  9C 08 02 03 00 0B 80 80  H9.#............
0890: 9C 08 48 3A 80 23 05 16  00 01 9C 08 1B           ..H:.#.......   
```

#### Opcodes

```
  0: 0x0002 [0x20] SET_CLI_EVENT_UC_FLAG: Lock player control
  1: 0x0004 [0x79] LocalPlayer looks at LocalPlayer (Basic look)
  2: 0x000E [0x03] ExtData[1]->WorkLocal[2] = Work_Zone[2]
  3: 0x0013 [0x03] ExtData[1]->WorkLocal[3] = Work_Zone[3]
  4: 0x0018 [0x03] ExtData[1]->WorkLocal[5] = Work_Zone[4]
  5: 0x001D [0x03] ExtData[1]->WorkLocal[6] = Work_Zone[5]
  6: 0x0022 [0x03] ExtData[1]->WorkLocal[15] = Work_Zone[6]
  7: 0x0027 [0x03] ExtData[1]->WorkLocal[16] = Work_Zone[7]
  8: 0x002C [0x03] ExtData[1]->WorkLocal[17] = Work_Zone[8]
  9: 0x0031 [0x41] ExtData[1]->WorkLocal[7] = Work_Zone[9] (bits 0*-15*)
 10: 0x003A [0x41] Work_Zone[6] = Work_Zone[9] (bits 16*-31*)
 11: 0x0043 [0x06] ExtData[1]->WorkLocal[1] = 0
 12: 0x0046 [0x02] IF !(ExtData[1]->WorkLocal[7] == 0*) GOTO 0x0145
 13: 0x004E [0x03] ExtData[1]->WorkLocal[8] = 4294967295*
 14: 0x0053 [0x0F] ExtData[1]->WorkLocal[8] ^= ExtData[1]->WorkLocal[6]
 15: 0x0058 [0x10] ExtData[1]->WorkLocal[8] <<= 1*
 16: 0x005D [0x24] CREATE_DIALOG(message_id=7606*, default_option=0*, option_flags=ExtData[1]->WorkLocal[8])
    → "Which battlefield will you enter? [None./Head Wind./Like the Wind./Sheep in Antlion's Clothing./Shell We Dance?/Totentanz./Tango with a Tracker./Requiem of Sin./Antagonistic Ambuscade./$26Head Wind./././././././././././././././././././././././]"
 17: 0x0064 [0x25] WAIT_DIALOG_SELECT()
 18: 0x0065 [0x02] IF !(Work_Zone[0] == 0*) GOTO 0x0073
 19: 0x006D [0x01] GOTO 0x083A

SUBROUTINE_009F:
 20: 0x009F [0x3E] IF !(ExtData[1]->WorkLocal[16] bit ExtData[1]->WorkLocal[3]) GOTO 0x00A9
 21: 0x00A6 [0x01] GOTO 0x00B0
 22: 0x00A9 [0x3C] SET_BIT_FLAG_CONDITIONAL(target_work_offset=ExtData[1]->WorkLocal[8], bit_index_work_offset=1*, condition_work_offset=1*)

SUBROUTINE_00B0:
 23: 0x00B0 [0x1A] CALL_SUBROUTINE(address=0x15AD)
 24: 0x00B3 [0x24] CREATE_DIALOG(message_id=7434*, default_option=5*, option_flags=ExtData[1]->WorkLocal[8])
    → "Select difficulty. [Very difficult. (Level: ???)/Difficult. (Level: ???)/Normal. (Level: $18)/Easy. (Level: $17)/Very Easy. (Level: $16)/Leave.]"
 25: 0x00BA [0x25] WAIT_DIALOG_SELECT()
 26: 0x00BB [0x02] IF !(Work_Zone[0] == 0*) GOTO 0x00CB
 27: 0x00C3 [0x03] ExtData[1]->WorkLocal[15] = 1*
 28: 0x00C8 [0x01] GOTO 0x011E
 29: 0x00CB [0x02] IF !(Work_Zone[0] == 1*) GOTO 0x00DB
 30: 0x00D3 [0x03] ExtData[1]->WorkLocal[15] = 2*
 31: 0x00D8 [0x01] GOTO 0x011E
 32: 0x00DB [0x02] IF !(Work_Zone[0] == 2*) GOTO 0x00EB
 33: 0x00E3 [0x03] ExtData[1]->WorkLocal[15] = 3*
 34: 0x00E8 [0x01] GOTO 0x011E
 35: 0x00EB [0x02] IF !(Work_Zone[0] == 3*) GOTO 0x00FB
 36: 0x00F3 [0x03] ExtData[1]->WorkLocal[15] = 4*
 37: 0x00F8 [0x01] GOTO 0x011E
 38: 0x00FB [0x02] IF !(Work_Zone[0] == 4*) GOTO 0x010B
 39: 0x0103 [0x03] ExtData[1]->WorkLocal[15] = 5*
 40: 0x0108 [0x01] GOTO 0x011E
 41: 0x010B [0x02] IF !(Work_Zone[0] == 5*) GOTO 0x0119
 42: 0x0113 [0x01] GOTO 0x083A

SUBROUTINE_011E:
 43: 0x011E [0x01] GOTO 0x0145
 44: 0x0121 [0x06] ExtData[1]->WorkLocal[15] = 0
 45: 0x0124 [0x1A] CALL_SUBROUTINE(address=0x0854)
 46: 0x0127 [0x02] IF !(ExtData[1]->WorkLocal[22] == 1*) GOTO 0x0145
 47: 0x012F [0x24] CREATE_DIALOG(message_id=7068*, default_option=1*, option_flags=0*)
    → "Enter the battlefield? [Enter./Decline.]"
 48: 0x0136 [0x25] WAIT_DIALOG_SELECT()
 49: 0x0137 [0x02] IF !(Work_Zone[0] == 1*) GOTO 0x0145
 50: 0x013F [0x01] GOTO 0x083A

SUBROUTINE_0145:
 51: 0x0145 [0x42] SET_CLI_EVENT_CANCEL_DATA()
 52: 0x0146 [0x03] Work_Zone[1] = 255*
 53: 0x014B [0x43] SEND_EVENT_UPDATE: Send pending tag to server (packet 0x005B)
 54: 0x014D [0x43] SEND_EVENT_UPDATE: Check pending flag (skip if not pending)
 55: 0x014F [0x06] Work_Zone[1] = 0
 56: 0x0152 [0x45] LOAD_SCHEDULED_TASK: Load scheduler "fdo1" with entities [LocalPlayer, LocalPlayer], work=[200*, 0*]
 57: 0x0163 [0x55] WAIT_LOAD_SCHEDULER: Wait for scheduler "fdo1" with entities [LocalPlayer, LocalPlayer], work=200*
 58: 0x0172 [0x3B] GET_ENTITY_POSITION(entity=LocalPlayer, x_destination=Work_Zone[32], y_destination=Work_Zone[33], z_destination=Work_Zone[34])
 59: 0x017D [0x38] SET_CLIENT_EVENT_MODE(mode=19*)
 60: 0x0180 [0x02] IF !(ExtData[1]->WorkLocal[7] == 1*) GOTO 0x019F
 61: 0x0188 [0x03] ExtData[1]->WorkLocal[0] = 1*
 62: 0x018D [0x03] ExtData[1]->WorkLocal[4] = ExtData[1]->WorkLocal[3]
 63: 0x0192 [0x03] ExtData[1]->WorkLocal[2] = 0*
 64: 0x0197 [0x03] ExtData[1]->WorkLocal[28] = 0*
 65: 0x019C [0x01] GOTO 0x055F

SUBROUTINE_019F:
 66: 0x019F [0x03] ExtData[1]->WorkLocal[0] = 1*

SUBROUTINE_01A4:
 67: 0x01A4 [0x02] IF !(ExtData[1]->WorkLocal[0] > 3*) GOTO 0x0803
 68: 0x01AC [0x02] IF !(0* == 1*) GOTO 0x01B9
 69: 0x01B4 [0x03] ExtData[1]->WorkLocal[0] = ExtData[1]->WorkLocal[5]
 70: 0x01B9 [0x40] SET_BIT_WORK_RANGE(start_bit=0*, end_bit=3*, target=Work_Zone[1], source=ExtData[1]->WorkLocal[0])
 71: 0x01C2 [0x40] SET_BIT_WORK_RANGE(start_bit=4*, end_bit=8*, target=Work_Zone[1], source=ExtData[1]->WorkLocal[3])
 72: 0x01CB [0x40] SET_BIT_WORK_RANGE(start_bit=9*, end_bit=11*, target=Work_Zone[1], source=ExtData[1]->WorkLocal[15])
 73: 0x01D4 [0x06] Work_Zone[2] = 0
 74: 0x01D7 [0x06] Work_Zone[3] = 0
 75: 0x01DA [0x06] Work_Zone[4] = 0
 76: 0x01DD [0x1A] CALL_SUBROUTINE(address=0x15D2)
 77: 0x01E0 [0x47] UPDATE_PLAYER_POS(ExtData[1]->WorkLocal[9], ExtData[1]->WorkLocal[10], ExtData[1]->WorkLocal[11], yaw=ExtData[1]->WorkLocal[12])
 78: 0x01EA [0x47] WAIT_PLAYER_POS_UPDATE
 79: 0x01EC [0x03] ExtData[1]->WorkLocal[4] = Work_Zone[3]
 80: 0x01F1 [0x03] ExtData[1]->WorkLocal[2] = Work_Zone[4]
 81: 0x01F6 [0x03] ExtData[1]->WorkLocal[26] = Work_Zone[5]
 82: 0x01FB [0x03] ExtData[1]->WorkLocal[13] = Work_Zone[6]
 83: 0x0200 [0x03] ExtData[1]->WorkLocal[14] = Work_Zone[7]
 84: 0x0205 [0x03] ExtData[1]->WorkLocal[28] = Work_Zone[9]
 85: 0x020A [0x02] IF !(Work_Zone[2] == 1*) GOTO 0x0215
 86: 0x0212 [0x01] GOTO 0x07F0
 87: 0x0215 [0x02] IF !(Work_Zone[2] == 4*) GOTO 0x025F
 88: 0x021D [0x02] IF !(ExtData[1]->WorkLocal[0] == 1*) GOTO 0x022C
 89: 0x0225 [0x48] [System] [7079*]:
    → "You are cleared to enter the battlefield, but you cannot while party members are engaged in combat."
 90: 0x0228 [0x23] WAIT_FOR_DIALOG_INTERACTION
 91: 0x0229 [0x01] GOTO 0x0259
 92: 0x022C [0x02] IF !(ExtData[1]->WorkLocal[0] == 2*) GOTO 0x023B
 93: 0x0234 [0x48] [System] [7080*]:
    → "You are cleared to enter the battlefield, but you cannot while party members are engaged in combat."
 94: 0x0237 [0x23] WAIT_FOR_DIALOG_INTERACTION
 95: 0x0238 [0x01] GOTO 0x0259
 96: 0x023B [0x02] IF !(ExtData[1]->WorkLocal[0] == 3*) GOTO 0x024A
 97: 0x0243 [0x48] [System] [7081*]:
    → "You are cleared to enter the battlefield, but you cannot while party members are engaged in combat."
 98: 0x0246 [0x23] WAIT_FOR_DIALOG_INTERACTION
 99: 0x0247 [0x01] GOTO 0x0259
100: 0x024A [0x02] IF !(ExtData[1]->WorkLocal[0] == 4*) GOTO 0x0259
101: 0x0252 [0x48] [System] [7082*]:
    → "You are cleared to enter the battlefield, but you cannot while party members are engaged in combat."
102: 0x0255 [0x23] WAIT_FOR_DIALOG_INTERACTION
103: 0x0256 [0x01] GOTO 0x0259

SUBROUTINE_0259:
104: 0x0259 [0x01] GOTO 0x0807

SUBROUTINE_0469:
105: 0x0469 [0x48] [System] [7427*]:
    → "Only $3 [member/members] have clearance to enter the battlefield. This room has reached its maximum capacity."
106: 0x046C [0x23] WAIT_FOR_DIALOG_INTERACTION
107: 0x046D [0x01] GOTO 0x0807

SUBROUTINE_04C6:
108: 0x04C6 [0x01] GOTO 0x0515
109: 0x04C9 [0x03] Work_Zone[5] = ExtData[1]->WorkLocal[26]
110: 0x04CE [0x02] IF !(ExtData[1]->WorkLocal[26] <= 0*) GOTO 0x04F5
111: 0x04D6 [0x02] IF !(ExtData[1]->WorkLocal[26] < 60*) GOTO 0x04F1
112: 0x04DE [0x3F] Work_Zone[4] = Work_Zone[5] % 60*
113: 0x04E5 [0x15] Work_Zone[5] /= 60*
114: 0x04EA [0x48] [System] [7604*]:
    → "The current battlefield clear time record for "[Head Wind/Like the Wind/Sheep in Antlion's Clothing/Shell We Dance?/Totentanz/Tango with a Tracker/Requiem of Sin/Antagonistic Ambuscade/$26Head Wind]" is $3 minute[/s] $2 second[/s]."
115: 0x04ED [0x23] WAIT_FOR_DIALOG_INTERACTION
116: 0x04EE [0x01] GOTO 0x04F5
117: 0x04F1 [0x48] [System] [7603*]:
    → "The current battlefield clear time record for "[Head Wind/Like the Wind/Sheep in Antlion's Clothing/Shell We Dance?/Totentanz/Tango with a Tracker/Requiem of Sin/Antagonistic Ambuscade/$26Head Wind]" is $3 second[/s]."
118: 0x04F4 [0x23] WAIT_FOR_DIALOG_INTERACTION

SUBROUTINE_04F5:
119: 0x04F5 [0x02] IF !(ExtData[1]->WorkLocal[13] > 1*) GOTO 0x0504
120: 0x04FD [0x48] [System] [7432*]:
    → "That record is held by %0!"
121: 0x0500 [0x23] WAIT_FOR_DIALOG_INTERACTION
122: 0x0501 [0x01] GOTO 0x0515
123: 0x0504 [0x03] Work_Zone[6] = ExtData[1]->WorkLocal[13]
124: 0x0509 [0x0C] Work_Zone[6]--
125: 0x050C [0x03] Work_Zone[7] = ExtData[1]->WorkLocal[13]
126: 0x0511 [0x48] [System] [7431*]:
    → "That record is held by $5 adventurers, including %0!"
127: 0x0514 [0x23] WAIT_FOR_DIALOG_INTERACTION

SUBROUTINE_0515:
128: 0x0515 [0x03] ExtData[1]->WorkLocal[3] = ExtData[1]->WorkLocal[4]
129: 0x051A [0x03] ExtData[1]->WorkLocal[20] = 100*
130: 0x051F [0x07] ExtData[1]->WorkLocal[20] += ExtData[1]->WorkLocal[3]
131: 0x0524 [0x02] IF !(ExtData[1]->WorkLocal[2] == ExtData[1]->WorkLocal[20]) GOTO 0x0534
132: 0x052C [0x03] ExtData[1]->WorkLocal[2] = 1*
133: 0x0531 [0x01] GOTO 0x0539
134: 0x0534 [0x03] ExtData[1]->WorkLocal[2] = 0*

SUBROUTINE_0539:
135: 0x0539 [0x02] IF !(ExtData[1]->WorkLocal[2] == 0*) GOTO 0x055F
136: 0x0541 [0x02] IF !(ExtData[1]->WorkLocal[14] == 1*) GOTO 0x055F
137: 0x0549 [0x24] CREATE_DIALOG(message_id=7407*, default_option=1*, option_flags=0*)
    → "Skip the event? [Yes./No.]"
138: 0x0550 [0x25] WAIT_DIALOG_SELECT()
139: 0x0551 [0x02] IF !(Work_Zone[0] == 0*) GOTO 0x055F
140: 0x0559 [0x05] ExtData[1]->WorkLocal[2] = 1
141: 0x055C [0x01] GOTO 0x055F

SUBROUTINE_055F:
142: 0x055F [0x06] ExtData[1]->WorkLocal[21] = 0
143: 0x0562 [0x02] IF !(ExtData[1]->WorkLocal[4] == 0*) GOTO 0x0572
144: 0x056A [0x03] ExtData[1]->WorkLocal[21] = 0*
145: 0x056F [0x01] GOTO 0x0757
146: 0x0572 [0x02] IF !(ExtData[1]->WorkLocal[4] == 1*) GOTO 0x0582
147: 0x057A [0x03] ExtData[1]->WorkLocal[21] = 0*
148: 0x057F [0x01] GOTO 0x0757
149: 0x0582 [0x02] IF !(ExtData[1]->WorkLocal[4] == 2*) GOTO 0x0592
150: 0x058A [0x03] ExtData[1]->WorkLocal[21] = 0*
151: 0x058F [0x01] GOTO 0x0757
152: 0x0592 [0x02] IF !(ExtData[1]->WorkLocal[4] == 3*) GOTO 0x05A2
153: 0x059A [0x03] ExtData[1]->WorkLocal[21] = 0*
154: 0x059F [0x01] GOTO 0x0757
155: 0x05A2 [0x02] IF !(ExtData[1]->WorkLocal[4] == 4*) GOTO 0x05B2
156: 0x05AA [0x03] ExtData[1]->WorkLocal[21] = 0*
157: 0x05AF [0x01] GOTO 0x0757
158: 0x05B2 [0x02] IF !(ExtData[1]->WorkLocal[4] == 5*) GOTO 0x05C2
159: 0x05BA [0x03] ExtData[1]->WorkLocal[21] = 0*
160: 0x05BF [0x01] GOTO 0x0757
161: 0x05C2 [0x02] IF !(ExtData[1]->WorkLocal[4] == 6*) GOTO 0x05D2
162: 0x05CA [0x03] ExtData[1]->WorkLocal[21] = 0*
163: 0x05CF [0x01] GOTO 0x0757
164: 0x05D2 [0x02] IF !(ExtData[1]->WorkLocal[4] == 7*) GOTO 0x05E2
165: 0x05DA [0x03] ExtData[1]->WorkLocal[21] = 0*
166: 0x05DF [0x01] GOTO 0x0757
167: 0x05E2 [0x02] IF !(ExtData[1]->WorkLocal[4] == 8*) GOTO 0x05F2
168: 0x05EA [0x03] ExtData[1]->WorkLocal[21] = 0*
169: 0x05EF [0x01] GOTO 0x0757
170: 0x05F2 [0x02] IF !(ExtData[1]->WorkLocal[4] == 9*) GOTO 0x0602
171: 0x05FA [0x03] ExtData[1]->WorkLocal[21] = 0*
172: 0x05FF [0x01] GOTO 0x0757
173: 0x0602 [0x02] IF !(ExtData[1]->WorkLocal[4] == 10*) GOTO 0x0612
174: 0x060A [0x03] ExtData[1]->WorkLocal[21] = 0*
175: 0x060F [0x01] GOTO 0x0757
176: 0x0612 [0x02] IF !(ExtData[1]->WorkLocal[4] == 11*) GOTO 0x0622
177: 0x061A [0x03] ExtData[1]->WorkLocal[21] = 0*
178: 0x061F [0x01] GOTO 0x0757
179: 0x0622 [0x02] IF !(ExtData[1]->WorkLocal[4] == 12*) GOTO 0x0632
180: 0x062A [0x03] ExtData[1]->WorkLocal[21] = 0*
181: 0x062F [0x01] GOTO 0x0757
182: 0x0632 [0x02] IF !(ExtData[1]->WorkLocal[4] == 13*) GOTO 0x0642
183: 0x063A [0x03] ExtData[1]->WorkLocal[21] = 0*
184: 0x063F [0x01] GOTO 0x0757
185: 0x0642 [0x02] IF !(ExtData[1]->WorkLocal[4] == 14*) GOTO 0x0652
186: 0x064A [0x03] ExtData[1]->WorkLocal[21] = 0*
187: 0x064F [0x01] GOTO 0x0757
188: 0x0652 [0x02] IF !(ExtData[1]->WorkLocal[4] == 15*) GOTO 0x0662
189: 0x065A [0x03] ExtData[1]->WorkLocal[21] = 0*
190: 0x065F [0x01] GOTO 0x0757
191: 0x0662 [0x02] IF !(ExtData[1]->WorkLocal[4] == 16*) GOTO 0x0672
192: 0x066A [0x03] ExtData[1]->WorkLocal[21] = 0*
193: 0x066F [0x01] GOTO 0x0757
194: 0x0672 [0x02] IF !(ExtData[1]->WorkLocal[4] == 17*) GOTO 0x0682
195: 0x067A [0x03] ExtData[1]->WorkLocal[21] = 0*
196: 0x067F [0x01] GOTO 0x0757
197: 0x0682 [0x02] IF !(ExtData[1]->WorkLocal[4] == 18*) GOTO 0x0692
198: 0x068A [0x03] ExtData[1]->WorkLocal[21] = 0*
199: 0x068F [0x01] GOTO 0x0757
200: 0x0692 [0x02] IF !(ExtData[1]->WorkLocal[4] == 19*) GOTO 0x06A2
201: 0x069A [0x03] ExtData[1]->WorkLocal[21] = 0*
202: 0x069F [0x01] GOTO 0x0757
203: 0x06A2 [0x02] IF !(ExtData[1]->WorkLocal[4] == 20*) GOTO 0x06B2
204: 0x06AA [0x03] ExtData[1]->WorkLocal[21] = 0*
205: 0x06AF [0x01] GOTO 0x0757
206: 0x06B2 [0x02] IF !(ExtData[1]->WorkLocal[4] == 21*) GOTO 0x06C2
207: 0x06BA [0x03] ExtData[1]->WorkLocal[21] = 0*
208: 0x06BF [0x01] GOTO 0x0757
209: 0x06C2 [0x02] IF !(ExtData[1]->WorkLocal[4] == 22*) GOTO 0x06D2
210: 0x06CA [0x03] ExtData[1]->WorkLocal[21] = 0*
211: 0x06CF [0x01] GOTO 0x0757
212: 0x06D2 [0x02] IF !(ExtData[1]->WorkLocal[4] == 23*) GOTO 0x06E2
213: 0x06DA [0x03] ExtData[1]->WorkLocal[21] = 0*
214: 0x06DF [0x01] GOTO 0x0757
215: 0x06E2 [0x02] IF !(ExtData[1]->WorkLocal[4] == 24*) GOTO 0x06F2
216: 0x06EA [0x03] ExtData[1]->WorkLocal[21] = 0*
217: 0x06EF [0x01] GOTO 0x0757
218: 0x06F2 [0x02] IF !(ExtData[1]->WorkLocal[4] == 25*) GOTO 0x0702
219: 0x06FA [0x03] ExtData[1]->WorkLocal[21] = 0*
220: 0x06FF [0x01] GOTO 0x0757
221: 0x0702 [0x02] IF !(ExtData[1]->WorkLocal[4] == 26*) GOTO 0x0712
222: 0x070A [0x03] ExtData[1]->WorkLocal[21] = 0*
223: 0x070F [0x01] GOTO 0x0757
224: 0x0712 [0x02] IF !(ExtData[1]->WorkLocal[4] == 27*) GOTO 0x0722
225: 0x071A [0x03] ExtData[1]->WorkLocal[21] = 0*
226: 0x071F [0x01] GOTO 0x0757
227: 0x0722 [0x02] IF !(ExtData[1]->WorkLocal[4] == 28*) GOTO 0x0732
228: 0x072A [0x03] ExtData[1]->WorkLocal[21] = 0*
229: 0x072F [0x01] GOTO 0x0757
230: 0x0732 [0x02] IF !(ExtData[1]->WorkLocal[4] == 29*) GOTO 0x0742
231: 0x073A [0x03] ExtData[1]->WorkLocal[21] = 0*
232: 0x073F [0x01] GOTO 0x0757
233: 0x0742 [0x02] IF !(ExtData[1]->WorkLocal[4] == 30*) GOTO 0x0752
234: 0x074A [0x03] ExtData[1]->WorkLocal[21] = 0*
235: 0x074F [0x01] GOTO 0x0757
236: 0x0752 [0x03] ExtData[1]->WorkLocal[21] = 0*

SUBROUTINE_0757:
237: 0x0757 [0x02] IF !(ExtData[1]->WorkLocal[2] == 1*) GOTO 0x0772
238: 0x075F [0x5C] MUSIC_CONTROL: Set Idle (Day) music to song 220*
239: 0x0763 [0x5C] MUSIC_CONTROL: Set Idle (Night) music to song 220*
240: 0x0767 [0x5C] MUSIC_CONTROL: Set Combat (Solo) music to song 220*
241: 0x076B [0x5C] MUSIC_CONTROL: Set Combat (Party) music to song 220*
242: 0x076F [0x01] GOTO 0x078A
243: 0x0772 [0x02] IF !(ExtData[1]->WorkLocal[21] == 0*) GOTO 0x078A
244: 0x077A [0x5C] MUSIC_CONTROL: Set Idle (Day) music to song 220*
245: 0x077E [0x5C] MUSIC_CONTROL: Set Idle (Night) music to song 220*
246: 0x0782 [0x5C] MUSIC_CONTROL: Set Combat (Solo) music to song 220*
247: 0x0786 [0x5C] MUSIC_CONTROL: Set Combat (Party) music to song 220*

SUBROUTINE_078A:
248: 0x078A [0x02] IF !(ExtData[1]->WorkLocal[2] == 0*) GOTO 0x0798
249: 0x0792 [0x1A] CALL_SUBROUTINE(address=0x1060)
250: 0x0795 [0x01] GOTO 0x07D1
251: 0x0798 [0x6C] FADE_ENTITY_COLOR(entity_id=LocalPlayer, end_alpha=0*, fade_time=1*)
252: 0x07A1 [0x62] LOAD_EVENT_SCHEDULER: Load scheduler "main" with entities [LocalPlayer, LocalPlayer], work=[2*, 0*]
253: 0x07B2 [0x45] LOAD_SCHEDULED_TASK: Load scheduler "ovl1" with entities [LocalPlayer, LocalPlayer], work=[200*, 0*]
254: 0x07C3 [0x46] CAMERA_CONTROL: Query status
255: 0x07C5 [0x12] 0x0200 = rand()
256: 0x07C8 [0x12] ExtData[1]->WorkLocal[0] = rand()
257: 0x07CB [0x80] LOAD_WAIT(entity=Unknown NPC (ID: 1174917376/0x4607D100))
258: 0x07D0 [0x00] END_REQSTACK()

SUBROUTINE_07D1:
259: 0x07D1 [0x02] IF !(ExtData[1]->WorkLocal[4] == 7*) GOTO 0x07E0
260: 0x07D9 [0x48] [System] [7828*]:
    → "You feel the gaze of innumerable eyes watching you from the darkness..."
261: 0x07DC [0x23] WAIT_FOR_DIALOG_INTERACTION
262: 0x07DD [0x01] GOTO 0x07E0

SUBROUTINE_07E0:
263: 0x07E0 [0x03] Work_Zone[1] = 100*
264: 0x07E5 [0x07] Work_Zone[1] += ExtData[1]->WorkLocal[3]
265: 0x07EA [0x01] GOTO 0x0807

SUBROUTINE_07F0:
266: 0x07F0 [0x0B] ExtData[1]->WorkLocal[0]++
267: 0x07F3 [0x02] IF !(0* == 1*) GOTO 0x0800
268: 0x07FB [0x03] ExtData[1]->WorkLocal[0] = 4*
269: 0x0800 [0x01] GOTO 0x01A4
270: 0x0803 [0x48] [System] [7071*]:
    → "You cannot enter the battlefield at present. Please wait a little longer."
271: 0x0806 [0x23] WAIT_FOR_DIALOG_INTERACTION

SUBROUTINE_0807:
272: 0x0807 [0x45] LOAD_SCHEDULED_TASK: Load scheduler "whi1" with entities [LocalPlayer, LocalPlayer], work=[201*, 0*]
273: 0x0818 [0x45] LOAD_SCHEDULED_TASK: Load scheduler "blof" with entities [LocalPlayer, LocalPlayer], work=[200*, 0*]
274: 0x0829 [0x45] LOAD_SCHEDULED_TASK: Load scheduler "fdi0" with entities [LocalPlayer, LocalPlayer], work=[200*, 0*]

SUBROUTINE_083A:
275: 0x083A [0x02] IF !(ExtData[1]->WorkLocal[7] == 1*) GOTO 0x0852
276: 0x0842 [0x5C] MUSIC_CONTROL: Set Idle (Day) music to song 0*
277: 0x0846 [0x5C] MUSIC_CONTROL: Set Idle (Night) music to song 0*
278: 0x084A [0x5C] MUSIC_CONTROL: Set Combat (Solo) music to song 220*
279: 0x084E [0x5C] MUSIC_CONTROL: Set Combat (Party) music to song 220*
280: 0x0852 [0x21] END_EVENT
281: 0x0853 [0x00] END_REQSTACK()

SUBROUTINE_0854:
282: 0x0854 [0x02] IF !(ExtData[1]->WorkLocal[3] == 1*) GOTO 0x0866
283: 0x085C [0x48] [System] [7607*]:
    → "Level limit of 75. The experience point reward for this battlefield will be reduced for parties of four or more members."
284: 0x085F [0x23] WAIT_FOR_DIALOG_INTERACTION
285: 0x0860 [0x05] ExtData[1]->WorkLocal[22] = 1
286: 0x0863 [0x01] GOTO 0x089C
287: 0x0866 [0x02] IF !(ExtData[1]->WorkLocal[3] == 2*) GOTO 0x0878
288: 0x086E [0x48] [System] [7608*]:
    → "Level limit of 75. The experience point reward for this battlefield will be reduced for parties of seven or more members."
289: 0x0871 [0x23] WAIT_FOR_DIALOG_INTERACTION
290: 0x0872 [0x05] ExtData[1]->WorkLocal[22] = 1
291: 0x0875 [0x01] GOTO 0x089C
292: 0x0878 [0x02] IF !(ExtData[1]->WorkLocal[3] == 3*) GOTO 0x088A
293: 0x0880 [0x48] [System] [7609*]:
    → "Level limit of 75. The experience point reward for this battlefield will be reduced for parties of thirteen or more members."
294: 0x0883 [0x23] WAIT_FOR_DIALOG_INTERACTION
295: 0x0884 [0x05] ExtData[1]->WorkLocal[22] = 1
296: 0x0887 [0x01] GOTO 0x089C
297: 0x088A [0x02] IF !(ExtData[1]->WorkLocal[3] == 4*) GOTO 0x089C
298: 0x0892 [0x48] [System] [7610*]:
    → "Level limit of 75."
299: 0x0895 [0x23] WAIT_FOR_DIALOG_INTERACTION
300: 0x0896 [0x05] ExtData[1]->WorkLocal[22] = 1
301: 0x0899 [0x01] GOTO 0x089C

SUBROUTINE_089C:
302: 0x089C [0x1B] RETURN
```

#### Data or dead code:

```
# Dead code (unreachable instructions):
     0x0070 [0x01] GOTO 0x0145
# Dead code (unreachable instructions):
     0x0116 [0x01] GOTO 0x011E
# Dead code (unreachable instructions):
     0x0142 [0x01] GOTO 0x0145
# Dead code (unreachable instructions):
     0x025C [0x01] GOTO 0x07F0
     0x026E [0x01] GOTO 0x07F0
# Dead code (unreachable instructions):
     0x0470 [0x01] GOTO 0x07F0
     0x047E [0x01] GOTO 0x07F0
# Dead code (unreachable instructions):
     0x07ED [0x01] GOTO 0x07F0
```

### Event 32002

#### Metadata

| Field        | Value     |
|--------------|-----------|
| Entrypoint   | 0x089D    |
| Data Size    | 494 bytes |
| Instructions | 83        |

```
      00 01 02 03 04 05 06 07  08 09 0A 0B 0C 0D 0E 0F
      -- -- -- -- -- -- -- --  -- -- -- -- -- -- -- --
0890:                                         03 05 00               ...
08A0: 06 10 03 21 00 07 10 03  20 00 08 10 20 01 42 3B  ...!.... ... .B;
08B0: F0 FF FF 7F 20 10 21 10  22 10 3A F0 FF FF 7F 23  .... .!.".:....#
08C0: 10 45 0E 80 F0 FF FF 7F  F0 FF FF 7F 66 64 6F 31  .E..........fdo1
08D0: 00 80 55 0E 80 F0 FF FF  7F F0 FF FF 7F 66 64 6F  ..U..........fdo
08E0: 31 02 00 80 05 80 00 48  09 02 05 00 05 80 80 00  1......H........
08F0: 09 47 00 00 80 00 80 00  80 00 80 47 01 01 45 09  .G.........G..E.
0900: 02 05 00 09 80 80 17 09  47 00 00 80 00 80 00 80  ........G.......
0910: 00 80 47 01 01 45 09 02  05 00 0A 80 80 2E 09 47  ..G..E.........G
0920: 00 00 80 00 80 00 80 00  80 47 01 01 45 09 02 05  .........G..E...
0930: 00 0B 80 80 45 09 47 00  00 80 00 80 00 80 00 80  ....E.G.........
0940: 47 01 01 45 09 01 51 0A  02 20 00 3B 80 80 D2 09  G..E..Q.. .;....
0950: 02 21 00 00 80 80 67 09  47 00 3C 80 3D 80 3E 80  .!....g.G.<.=.>.
0960: 3F 80 47 01 01 CF 09 02  21 00 05 80 80 7E 09 47  ?.G.....!....~.G
0970: 00 40 80 41 80 42 80 43  80 47 01 01 CF 09 02 21  .@.A.B.C.G.....!
0980: 00 09 80 80 95 09 47 00  44 80 45 80 46 80 47 80  ......G.D.E.F.G.
0990: 47 01 01 CF 09 02 21 00  0A 80 80 AC 09 47 00 48  G.....!......G.H
09A0: 80 49 80 4A 80 4B 80 47  01 01 CF 09 02 21 00 0B  .I.J.K.G.....!..
09B0: 80 80 C3 09 47 00 4C 80  4D 80 4E 80 4F 80 47 01  ....G.L.M.N.O.G.
09C0: 01 CF 09 47 00 50 80 51  80 52 80 53 80 47 01 01  ...G.P.Q.R.S.G..
09D0: 51 0A 02 20 00 18 80 80  45 0A 02 21 00 05 80 80  Q.. ....E..!....
09E0: F1 09 47 00 54 80 55 80  56 80 57 80 47 01 01 42  ..G.T.U.V.W.G..B
09F0: 0A 02 21 00 09 80 80 08  0A 47 00 58 80 59 80 5A  ..!......G.X.Y.Z
0A00: 80 5B 80 47 01 01 42 0A  02 21 00 0A 80 80 1F 0A  .[.G..B..!......
0A10: 47 00 5C 80 5D 80 5E 80  5F 80 47 01 01 42 0A 02  G.\.].^._.G..B..
0A20: 21 00 0B 80 80 36 0A 47  00 60 80 61 80 62 80 63  !....6.G.`.a.b.c
0A30: 80 47 01 01 42 0A 47 00  50 80 51 80 52 80 53 80  .G..B.G.P.Q.R.S.
0A40: 47 01 01 51 0A 47 00 50  80 51 80 52 80 53 80 47  G..Q.G.P.Q.R.S.G
0A50: 01 38 0F 80 1A 48 15 45  36 80 F0 FF FF 7F F0 FF  .8...H.E6.......
0A60: FF 7F 77 68 69 31 00 80  45 0E 80 F0 FF FF 7F F0  ..whi1..E.......
0A70: FF FF 7F 62 6C 6F 66 00  80 5C 00 00 80 5C 01 00  ...blof..\...\..
0A80: 80 5C 02 33 80 5C 03 33  80 21 00                 .\.3.\.3.!.     
```

#### Opcodes

```
  0: 0x089D [0x03] ExtData[1]->WorkLocal[5] = Work_Zone[6]
  1: 0x08A2 [0x03] ExtData[1]->WorkLocal[33] = Work_Zone[7]
  2: 0x08A7 [0x03] ExtData[1]->WorkLocal[32] = Work_Zone[8]
  3: 0x08AC [0x20] SET_CLI_EVENT_UC_FLAG: Lock player control
  4: 0x08AE [0x42] SET_CLI_EVENT_CANCEL_DATA()
  5: 0x08AF [0x3B] GET_ENTITY_POSITION(entity=LocalPlayer, x_destination=Work_Zone[32], y_destination=Work_Zone[33], z_destination=Work_Zone[34])
  6: 0x08BA [0x3A] CONVERT_YAW_TO_BYTE(entity=LocalPlayer, result_destination=Work_Zone[35])
  7: 0x08C1 [0x45] LOAD_SCHEDULED_TASK: Load scheduler "fdo1" with entities [LocalPlayer, LocalPlayer], work=[200*, 0*]
  8: 0x08D2 [0x55] WAIT_LOAD_SCHEDULER: Wait for scheduler "fdo1" with entities [LocalPlayer, LocalPlayer], work=200*
  9: 0x08E1 [0x02] IF !(0* == 1*) GOTO 0x0948
 10: 0x08E9 [0x02] IF !(ExtData[1]->WorkLocal[5] == 1*) GOTO 0x0900
 11: 0x08F1 [0x47] UPDATE_PLAYER_POS(0.000*, 0.000*, 0.000*, yaw=0.0°*)
 12: 0x08FB [0x47] WAIT_PLAYER_POS_UPDATE
 13: 0x08FD [0x01] GOTO 0x0945
 14: 0x0900 [0x02] IF !(ExtData[1]->WorkLocal[5] == 2*) GOTO 0x0917
 15: 0x0908 [0x47] UPDATE_PLAYER_POS(0.000*, 0.000*, 0.000*, yaw=0.0°*)
 16: 0x0912 [0x47] WAIT_PLAYER_POS_UPDATE
 17: 0x0914 [0x01] GOTO 0x0945
 18: 0x0917 [0x02] IF !(ExtData[1]->WorkLocal[5] == 3*) GOTO 0x092E
 19: 0x091F [0x47] UPDATE_PLAYER_POS(0.000*, 0.000*, 0.000*, yaw=0.0°*)
 20: 0x0929 [0x47] WAIT_PLAYER_POS_UPDATE
 21: 0x092B [0x01] GOTO 0x0945
 22: 0x092E [0x02] IF !(ExtData[1]->WorkLocal[5] == 4*) GOTO 0x0945
 23: 0x0936 [0x47] UPDATE_PLAYER_POS(0.000*, 0.000*, 0.000*, yaw=0.0°*)
 24: 0x0940 [0x47] WAIT_PLAYER_POS_UPDATE
 25: 0x0942 [0x01] GOTO 0x0945

SUBROUTINE_0945:
 26: 0x0945 [0x01] GOTO 0x0A51
 27: 0x0948 [0x02] IF !(ExtData[1]->WorkLocal[32] == 180*) GOTO 0x09D2
 28: 0x0950 [0x02] IF !(ExtData[1]->WorkLocal[33] == 0*) GOTO 0x0967
 29: 0x0958 [0x47] UPDATE_PLAYER_POS(-605.141*, 479.929*, -22.681*, yaw=87.2°*)
 30: 0x0962 [0x47] WAIT_PLAYER_POS_UPDATE
 31: 0x0964 [0x01] GOTO 0x09CF
 32: 0x0967 [0x02] IF !(ExtData[1]->WorkLocal[33] == 1*) GOTO 0x097E
 33: 0x096F [0x47] UPDATE_PLAYER_POS(-262.589*, 377.857*, -137.313*, yaw=305.3°*)
 34: 0x0979 [0x47] WAIT_PLAYER_POS_UPDATE
 35: 0x097B [0x01] GOTO 0x09CF
 36: 0x097E [0x02] IF !(ExtData[1]->WorkLocal[33] == 2*) GOTO 0x0995
 37: 0x0986 [0x47] UPDATE_PLAYER_POS(18.348*, 486.940*, -224.334*, yaw=17.1°*)
 38: 0x0990 [0x47] WAIT_PLAYER_POS_UPDATE
 39: 0x0992 [0x01] GOTO 0x09CF
 40: 0x0995 [0x02] IF !(ExtData[1]->WorkLocal[33] == 3*) GOTO 0x09AC
 41: 0x099D [0x47] UPDATE_PLAYER_POS(231.593*, 360.094*, -173.572*, yaw=160.8°*)
 42: 0x09A7 [0x47] WAIT_PLAYER_POS_UPDATE
 43: 0x09A9 [0x01] GOTO 0x09CF
 44: 0x09AC [0x02] IF !(ExtData[1]->WorkLocal[33] == 4*) GOTO 0x09C3
 45: 0x09B4 [0x47] UPDATE_PLAYER_POS(553.664*, 523.939*, -38.205*, yaw=233.9°*)
 46: 0x09BE [0x47] WAIT_PLAYER_POS_UPDATE
 47: 0x09C0 [0x01] GOTO 0x09CF
 48: 0x09C3 [0x47] UPDATE_PLAYER_POS(-612.241*, 494.824*, -1.608*, yaw=65.6°*)
 49: 0x09CD [0x47] WAIT_PLAYER_POS_UPDATE

SUBROUTINE_09CF:
 50: 0x09CF [0x01] GOTO 0x0A51
 51: 0x09D2 [0x02] IF !(ExtData[1]->WorkLocal[32] == 6*) GOTO 0x0A45
 52: 0x09DA [0x02] IF !(ExtData[1]->WorkLocal[33] == 1*) GOTO 0x09F1
 53: 0x09E2 [0x47] UPDATE_PLAYER_POS(-875.117*, -43.892*, -48.084*, yaw=45.1°*)
 54: 0x09EC [0x47] WAIT_PLAYER_POS_UPDATE
 55: 0x09EE [0x01] GOTO 0x0A42
 56: 0x09F1 [0x02] IF !(ExtData[1]->WorkLocal[33] == 2*) GOTO 0x0A08
 57: 0x09F9 [0x47] UPDATE_PLAYER_POS(-755.499*, 563.947*, -112.035*, yaw=313.5°*)
 58: 0x0A03 [0x47] WAIT_PLAYER_POS_UPDATE
 59: 0x0A05 [0x01] GOTO 0x0A42
 60: 0x0A08 [0x02] IF !(ExtData[1]->WorkLocal[33] == 3*) GOTO 0x0A1F
 61: 0x0A10 [0x47] UPDATE_PLAYER_POS(123.251*, 754.209*, -172.124*, yaw=38.7°*)
 62: 0x0A1A [0x47] WAIT_PLAYER_POS_UPDATE
 63: 0x0A1C [0x01] GOTO 0x0A42
 64: 0x0A1F [0x02] IF !(ExtData[1]->WorkLocal[33] == 4*) GOTO 0x0A36
 65: 0x0A27 [0x47] UPDATE_PLAYER_POS(-516.404*, -803.323*, 24.206*, yaw=38.4°*)
 66: 0x0A31 [0x47] WAIT_PLAYER_POS_UPDATE
 67: 0x0A33 [0x01] GOTO 0x0A42
 68: 0x0A36 [0x47] UPDATE_PLAYER_POS(-612.241*, 494.824*, -1.608*, yaw=65.6°*)
 69: 0x0A40 [0x47] WAIT_PLAYER_POS_UPDATE

SUBROUTINE_0A42:
 70: 0x0A42 [0x01] GOTO 0x0A51
 71: 0x0A45 [0x47] UPDATE_PLAYER_POS(-612.241*, 494.824*, -1.608*, yaw=65.6°*)
 72: 0x0A4F [0x47] WAIT_PLAYER_POS_UPDATE

SUBROUTINE_0A51:
 73: 0x0A51 [0x38] SET_CLIENT_EVENT_MODE(mode=19*)
 74: 0x0A54 [0x1A] CALL_SUBROUTINE(address=0x1548)
 75: 0x0A57 [0x45] LOAD_SCHEDULED_TASK: Load scheduler "whi1" with entities [LocalPlayer, LocalPlayer], work=[201*, 0*]
 76: 0x0A68 [0x45] LOAD_SCHEDULED_TASK: Load scheduler "blof" with entities [LocalPlayer, LocalPlayer], work=[200*, 0*]
 77: 0x0A79 [0x5C] MUSIC_CONTROL: Set Idle (Day) music to song 0*
 78: 0x0A7D [0x5C] MUSIC_CONTROL: Set Idle (Night) music to song 0*
 79: 0x0A81 [0x5C] MUSIC_CONTROL: Set Combat (Solo) music to song 220*
 80: 0x0A85 [0x5C] MUSIC_CONTROL: Set Combat (Party) music to song 220*
 81: 0x0A89 [0x21] END_EVENT
 82: 0x0A8A [0x00] END_REQSTACK()
```

### Event 32001

#### Metadata

| Field        | Value      |
|--------------|------------|
| Entrypoint   | 0x0A8B     |
| Data Size    | 1033 bytes |
| Instructions | 177        |

```
      00 01 02 03 04 05 06 07  08 09 0A 0B 0C 0D 0E 0F
      -- -- -- -- -- -- -- --  -- -- -- -- -- -- -- --
0A80:                                   79 00 F0 FF FF             y....
0A90: 7F F0 FF FF 7F 03 21 00  02 10 03 1A 00 03 10 03  ......!.........
0AA0: 1B 00 05 10 03 20 00 06  10 03 19 00 07 10 03 17  ..... ..........
0AB0: 00 08 10 02 17 00 0A 80  04 C0 0A 03 17 00 00 80  ................
0AC0: 03 1C 00 09 10 20 01 42  3B F0 FF FF 7F 20 10 21  ..... .B;.... .!
0AD0: 10 22 10 3A F0 FF FF 7F  23 10 02 20 00 3B 80 01  .".:....#.. .;..
0AE0: E5 0A 1C 64 80 45 36 80  F0 FF FF 7F F0 FF FF 7F  ...d.E6.........
0AF0: 77 68 69 31 00 80 45 0E  80 F0 FF FF 7F F0 FF FF  whi1..E.........
0B00: 7F 62 6C 6F 66 00 80 45  0E 80 F0 FF FF 7F F0 FF  .blof..E........
0B10: FF 7F 66 64 6F 31 00 80  55 0E 80 F0 FF FF 7F F0  ..fdo1..U.......
0B20: FF FF 7F 66 64 6F 31 6C  F0 FF FF 7F 65 80 05 80  ...fdo1l....e...
0B30: 06 01 10 02 17 00 00 80  03 3E 0B 01 8C 0C 02 20  .........>..... 
0B40: 00 3B 80 80 C8 0B 02 21  00 00 80 80 5D 0B 47 00  .;.....!....].G.
0B50: 66 80 67 80 68 80 69 80  47 01 01 C5 0B 02 21 00  f.g.h.i.G.....!.
0B60: 05 80 80 74 0B 47 00 6A  80 6B 80 6C 80 6D 80 47  ...t.G.j.k.l.m.G
0B70: 01 01 C5 0B 02 21 00 09  80 80 8B 0B 47 00 6E 80  .....!......G.n.
0B80: 6F 80 70 80 71 80 47 01  01 C5 0B 02 21 00 0A 80  o.p.q.G.....!...
0B90: 80 A2 0B 47 00 72 80 73  80 74 80 75 80 47 01 01  ...G.r.s.t.u.G..
0BA0: C5 0B 02 21 00 0B 80 80  B9 0B 47 00 76 80 77 80  ...!......G.v.w.
0BB0: 78 80 79 80 47 01 01 C5  0B 47 00 7A 80 7B 80 7C  x.y.G....G.z.{.|
0BC0: 80 7D 80 47 01 01 8C 0C  02 20 00 7E 80 80 F6 0B  .}.G..... .~....
0BD0: 02 19 00 00 80 80 E7 0B  47 00 7A 80 7B 80 7C 80  ........G.z.{.|.
0BE0: 7D 80 47 01 01 F3 0B 47  00 7F 80 80 80 81 80 82  }.G....G........
0BF0: 80 47 01 01 8C 0C 02 20  00 83 80 80 24 0C 02 19  .G..... ....$...
0C00: 00 0B 80 80 15 0C 47 00  84 80 85 80 86 80 87 80  ......G.........
0C10: 47 01 01 21 0C 47 00 7A  80 7B 80 7C 80 7D 80 47  G..!.G.z.{.|.}.G
0C20: 01 01 8C 0C 02 20 00 88  80 80 52 0C 02 19 00 0B  ..... ....R.....
0C30: 80 80 43 0C 47 00 89 80  8A 80 8B 80 8C 80 47 01  ..C.G.........G.
0C40: 01 4F 0C 47 00 7A 80 7B  80 7C 80 7D 80 47 01 01  .O.G.z.{.|.}.G..
0C50: 8C 0C 02 20 00 8D 80 80  80 0C 02 19 00 0A 80 80  ... ............
0C60: 71 0C 47 00 8E 80 8F 80  90 80 91 80 47 01 01 7D  q.G.........G..}
0C70: 0C 47 00 7A 80 7B 80 7C  80 7D 80 47 01 01 8C 0C  .G.z.{.|.}.G....
0C80: 47 00 7A 80 7B 80 7C 80  7D 80 47 01 38 0F 80 02  G.z.{.|.}.G.8...
0C90: 17 00 09 80 00 9A 0C 01  B5 0C 02 17 00 05 80 00  ................
0CA0: 65 0D 1C 01 80 24 32 80  05 80 00 80 25 02 00 10  e....$2.....%...
0CB0: 00 80 00 65 0D 02 20 00  3B 80 00 21 0D 02 21 00  ...e.. .;..!..!.
0CC0: 00 80 80 CF 0C 36 66 80  67 80 68 80 01 1E 0D 02  .....6f.g.h.....
0CD0: 21 00 05 80 80 E1 0C 36  6A 80 6B 80 6C 80 01 1E  !......6j.k.l...
0CE0: 0D 02 21 00 09 80 80 F3  0C 36 6E 80 6F 80 70 80  ..!......6n.o.p.
0CF0: 01 1E 0D 02 21 00 0A 80  80 05 0D 36 72 80 73 80  ....!......6r.s.
0D00: 74 80 01 1E 0D 02 21 00  0B 80 80 17 0D 36 76 80  t.....!......6v.
0D10: 77 80 78 80 01 1E 0D 36  7A 80 7B 80 7C 80 01 2A  w.x....6z.{.|..*
0D20: 0D 37 7A 80 7B 80 7C 80  7D 80 80 F0 FF FF 7F 62  .7z.{.|.}......b
0D30: 09 80 F0 FF FF 7F F0 FF  FF 7F 6D 61 69 6E 00 80  ..........main..
0D40: 45 0E 80 F0 FF FF 7F F0  FF FF 7F 66 64 69 32 00  E..........fdi2.
0D50: 80 46 02 12 00 02 12 00  00 80 00 5F 0D 46 00 01  .F........._.F..
0D60: 8C 0D 01 65 0D 02 17 00  04 80 04 7E 0D 5C 00 33  ...e.......~.\.3
0D70: 80 5C 01 33 80 5C 02 33  80 5C 03 33 80 9A 1A 31  .\.3.\.3.\.3...1
0D80: 12 02 17 00 00 80 03 8C  0D 01 2C 0E 02 20 00 92  ..........,.. ..
0D90: 80 80 97 0D 01 97 0D 02  20 00 1F 80 80 A2 0D 01  ........ .......
0DA0: 2C 0E 02 20 00 0F 80 80  AD 0D 01 2C 0E 02 20 00  ,.. .......,.. .
0DB0: 21 80 80 B8 0D 01 2C 0E  02 20 00 23 80 80 C3 0D  !.....,.. .#....
0DC0: 01 2C 0E 03 05 10 1B 00  02 05 10 00 80 02 2C 0E  .,............,.
0DD0: 02 05 10 2E 80 04 EB 0D  3F 04 10 05 10 2E 80 15  ........?.......
0DE0: 05 10 2E 80 48 93 80 23  01 EF 0D 48 94 80 23 02  ....H..#...H..#.
0DF0: 1B 00 1A 00 05 03 0E 03  07 10 19 00 48 95 80 23  ............H..#
0E00: 01 2C 0E 02 1A 00 2E 80  04 23 0E 03 05 10 1A 00  .,.......#......
0E10: 3F 04 10 05 10 2E 80 15  05 10 2E 80 48 96 80 23  ?...........H..#
0E20: 01 2C 0E 03 05 10 1A 00  48 97 80 23 02 18 00 00  .,......H..#....
0E30: 80 00 44 0E 5C 00 00 80  5C 01 00 80 5C 02 33 80  ..D.\...\...\.3.
0E40: 5C 03 33 80 02 17 00 00  80 03 6D 0E 45 0E 80 F0  \.3.......m.E...
0E50: FF FF 7F F0 FF FF 7F 66  64 69 32 00 80 5C 00 00  .......fdi2..\..
0E60: 80 5C 01 00 80 5C 02 33  80 5C 03 33 80 06 18 00  .\...\.3.\.3....
0E70: 45 36 80 F0 FF FF 7F F0  FF FF 7F 77 68 69 31 00  E6.........whi1.
0E80: 80 45 0E 80 F0 FF FF 7F  F0 FF FF 7F 62 6C 6F 66  .E..........blof
0E90: 00 80 21 00                                       ..!.            
```

#### Opcodes

```
  0: 0x0A8B [0x79] LocalPlayer looks at LocalPlayer (Basic look)
  1: 0x0A95 [0x03] ExtData[1]->WorkLocal[33] = Work_Zone[2]
  2: 0x0A9A [0x03] ExtData[1]->WorkLocal[26] = Work_Zone[3]
  3: 0x0A9F [0x03] ExtData[1]->WorkLocal[27] = Work_Zone[5]
  4: 0x0AA4 [0x03] ExtData[1]->WorkLocal[32] = Work_Zone[6]
  5: 0x0AA9 [0x03] ExtData[1]->WorkLocal[25] = Work_Zone[7]
  6: 0x0AAE [0x03] ExtData[1]->WorkLocal[23] = Work_Zone[8]
  7: 0x0AB3 [0x02] IF !(ExtData[1]->WorkLocal[23] < 3*) GOTO 0x0AC0
  8: 0x0ABB [0x03] ExtData[1]->WorkLocal[23] = 0*
  9: 0x0AC0 [0x03] ExtData[1]->WorkLocal[28] = Work_Zone[9]
 10: 0x0AC5 [0x20] SET_CLI_EVENT_UC_FLAG: Lock player control
 11: 0x0AC7 [0x42] SET_CLI_EVENT_CANCEL_DATA()
 12: 0x0AC8 [0x3B] GET_ENTITY_POSITION(entity=LocalPlayer, x_destination=Work_Zone[32], y_destination=Work_Zone[33], z_destination=Work_Zone[34])
 13: 0x0AD3 [0x3A] CONVERT_YAW_TO_BYTE(entity=LocalPlayer, result_destination=Work_Zone[35])
 14: 0x0ADA [0x02] IF !(ExtData[1]->WorkLocal[32] == 180*) GOTO 0x0AE5
 15: 0x0AE2 [0x1C] WAIT(300* ticks)
 16: 0x0AE5 [0x45] LOAD_SCHEDULED_TASK: Load scheduler "whi1" with entities [LocalPlayer, LocalPlayer], work=[201*, 0*]
 17: 0x0AF6 [0x45] LOAD_SCHEDULED_TASK: Load scheduler "blof" with entities [LocalPlayer, LocalPlayer], work=[200*, 0*]
 18: 0x0B07 [0x45] LOAD_SCHEDULED_TASK: Load scheduler "fdo1" with entities [LocalPlayer, LocalPlayer], work=[200*, 0*]
 19: 0x0B18 [0x55] WAIT_LOAD_SCHEDULER: Wait for scheduler "fdo1" with entities [LocalPlayer, LocalPlayer], work=200*
 20: 0x0B27 [0x6C] FADE_ENTITY_COLOR(entity_id=LocalPlayer, end_alpha=128*, fade_time=1*)
 21: 0x0B30 [0x06] Work_Zone[1] = 0
 22: 0x0B33 [0x02] IF !(ExtData[1]->WorkLocal[23] >= 0*) GOTO 0x0B3E
 23: 0x0B3B [0x01] GOTO 0x0C8C
 24: 0x0B3E [0x02] IF !(ExtData[1]->WorkLocal[32] == 180*) GOTO 0x0BC8
 25: 0x0B46 [0x02] IF !(ExtData[1]->WorkLocal[33] == 0*) GOTO 0x0B5D
 26: 0x0B4E [0x47] UPDATE_PLAYER_POS(-618.329*, -643.868*, -25.805*, yaw=330.5°*)
 27: 0x0B58 [0x47] WAIT_PLAYER_POS_UPDATE
 28: 0x0B5A [0x01] GOTO 0x0BC5
 29: 0x0B5D [0x02] IF !(ExtData[1]->WorkLocal[33] == 1*) GOTO 0x0B74
 30: 0x0B65 [0x47] UPDATE_PLAYER_POS(-332.163*, -441.914*, -95.055*, yaw=330.5°*)
 31: 0x0B6F [0x47] WAIT_PLAYER_POS_UPDATE
 32: 0x0B71 [0x01] GOTO 0x0BC5
 33: 0x0B74 [0x02] IF !(ExtData[1]->WorkLocal[33] == 2*) GOTO 0x0B8B
 34: 0x0B7C [0x47] UPDATE_PLAYER_POS(-12.464*, -648.377*, -194.629*, yaw=331.3°*)
 35: 0x0B86 [0x47] WAIT_PLAYER_POS_UPDATE
 36: 0x0B88 [0x01] GOTO 0x0BC5
 37: 0x0B8B [0x02] IF !(ExtData[1]->WorkLocal[33] == 3*) GOTO 0x0BA2
 38: 0x0B93 [0x47] UPDATE_PLAYER_POS(323.381*, -443.793*, -108.440*, yaw=329.1°*)
 39: 0x0B9D [0x47] WAIT_PLAYER_POS_UPDATE
 40: 0x0B9F [0x01] GOTO 0x0BC5
 41: 0x0BA2 [0x02] IF !(ExtData[1]->WorkLocal[33] == 4*) GOTO 0x0BB9
 42: 0x0BAA [0x47] UPDATE_PLAYER_POS(599.907*, -676.969*, -22.473*, yaw=330.7°*)
 43: 0x0BB4 [0x47] WAIT_PLAYER_POS_UPDATE
 44: 0x0BB6 [0x01] GOTO 0x0BC5
 45: 0x0BB9 [0x47] UPDATE_PLAYER_POS(553.115*, -553.131*, -0.700*, yaw=37.7°*)
 46: 0x0BC3 [0x47] WAIT_PLAYER_POS_UPDATE

SUBROUTINE_0BC5:
 47: 0x0BC5 [0x01] GOTO 0x0C8C
 48: 0x0BC8 [0x02] IF !(ExtData[1]->WorkLocal[32] == 168*) GOTO 0x0BF6
 49: 0x0BD0 [0x02] IF !(ExtData[1]->WorkLocal[25] == 0*) GOTO 0x0BE7
 50: 0x0BD8 [0x47] UPDATE_PLAYER_POS(553.115*, -553.131*, -0.700*, yaw=37.7°*)
 51: 0x0BE2 [0x47] WAIT_PLAYER_POS_UPDATE
 52: 0x0BE4 [0x01] GOTO 0x0BF3
 53: 0x0BE7 [0x47] UPDATE_PLAYER_POS(200.059*, -21.958*, -0.250*, yaw=91.5°*)
 54: 0x0BF1 [0x47] WAIT_PLAYER_POS_UPDATE

SUBROUTINE_0BF3:
 55: 0x0BF3 [0x01] GOTO 0x0C8C
 56: 0x0BF6 [0x02] IF !(ExtData[1]->WorkLocal[32] == 202*) GOTO 0x0C24
 57: 0x0BFE [0x02] IF !(ExtData[1]->WorkLocal[25] == 4*) GOTO 0x0C15
 58: 0x0C06 [0x47] UPDATE_PLAYER_POS(538.604*, 501.900*, -13.942*, yaw=286.5°*)
 59: 0x0C10 [0x47] WAIT_PLAYER_POS_UPDATE
 60: 0x0C12 [0x01] GOTO 0x0C21
 61: 0x0C15 [0x47] UPDATE_PLAYER_POS(553.115*, -553.131*, -0.700*, yaw=37.7°*)
 62: 0x0C1F [0x47] WAIT_PLAYER_POS_UPDATE

SUBROUTINE_0C21:
 63: 0x0C21 [0x01] GOTO 0x0C8C
 64: 0x0C24 [0x02] IF !(ExtData[1]->WorkLocal[32] == 203*) GOTO 0x0C52
 65: 0x0C2C [0x02] IF !(ExtData[1]->WorkLocal[25] == 4*) GOTO 0x0C43
 66: 0x0C34 [0x47] UPDATE_PLAYER_POS(553.205*, 589.633*, -0.021*, yaw=124.4°*)
 67: 0x0C3E [0x47] WAIT_PLAYER_POS_UPDATE
 68: 0x0C40 [0x01] GOTO 0x0C4F
 69: 0x0C43 [0x47] UPDATE_PLAYER_POS(553.115*, -553.131*, -0.700*, yaw=37.7°*)
 70: 0x0C4D [0x47] WAIT_PLAYER_POS_UPDATE

SUBROUTINE_0C4F:
 71: 0x0C4F [0x01] GOTO 0x0C8C
 72: 0x0C52 [0x02] IF !(ExtData[1]->WorkLocal[32] == 211*) GOTO 0x0C80
 73: 0x0C5A [0x02] IF !(ExtData[1]->WorkLocal[25] == 3*) GOTO 0x0C71
 74: 0x0C62 [0x47] UPDATE_PLAYER_POS(569.224*, 548.462*, 36.837*, yaw=59.1°*)
 75: 0x0C6C [0x47] WAIT_PLAYER_POS_UPDATE
 76: 0x0C6E [0x01] GOTO 0x0C7D
 77: 0x0C71 [0x47] UPDATE_PLAYER_POS(553.115*, -553.131*, -0.700*, yaw=37.7°*)
 78: 0x0C7B [0x47] WAIT_PLAYER_POS_UPDATE

SUBROUTINE_0C7D:
 79: 0x0C7D [0x01] GOTO 0x0C8C
 80: 0x0C80 [0x47] UPDATE_PLAYER_POS(553.115*, -553.131*, -0.700*, yaw=37.7°*)
 81: 0x0C8A [0x47] WAIT_PLAYER_POS_UPDATE

SUBROUTINE_0C8C:
 82: 0x0C8C [0x38] SET_CLIENT_EVENT_MODE(mode=19*)
 83: 0x0C8F [0x02] IF !(ExtData[1]->WorkLocal[23] == 2*) GOTO 0x0C9A
 84: 0x0C97 [0x01] GOTO 0x0CB5
 85: 0x0C9A [0x02] IF !(ExtData[1]->WorkLocal[23] == 1*) GOTO 0x0D65
 86: 0x0CA2 [0x1C] WAIT(15* ticks)
 87: 0x0CA5 [0x24] CREATE_DIALOG(message_id=7407*, default_option=1*, option_flags=0*)
    → "Skip the event? [Yes./No.]"
 88: 0x0CAC [0x25] WAIT_DIALOG_SELECT()
 89: 0x0CAD [0x02] IF !(Work_Zone[0] == 0*) GOTO 0x0D65

SUBROUTINE_0CB5:
 90: 0x0CB5 [0x02] IF !(ExtData[1]->WorkLocal[32] == 180*) GOTO 0x0D21
 91: 0x0CBD [0x02] IF !(ExtData[1]->WorkLocal[33] == 0*) GOTO 0x0CCF
 92: 0x0CC5 [0x36] SET_ENTITY_EVENT_POSITION(pos_x=-618.329*, pos_z=-643.868*, pos_y=-25.805*)
 93: 0x0CCC [0x01] GOTO 0x0D1E
 94: 0x0CCF [0x02] IF !(ExtData[1]->WorkLocal[33] == 1*) GOTO 0x0CE1
 95: 0x0CD7 [0x36] SET_ENTITY_EVENT_POSITION(pos_x=-332.163*, pos_z=-441.914*, pos_y=-95.055*)
 96: 0x0CDE [0x01] GOTO 0x0D1E
 97: 0x0CE1 [0x02] IF !(ExtData[1]->WorkLocal[33] == 2*) GOTO 0x0CF3
 98: 0x0CE9 [0x36] SET_ENTITY_EVENT_POSITION(pos_x=-12.464*, pos_z=-648.377*, pos_y=-194.629*)
 99: 0x0CF0 [0x01] GOTO 0x0D1E
100: 0x0CF3 [0x02] IF !(ExtData[1]->WorkLocal[33] == 3*) GOTO 0x0D05
101: 0x0CFB [0x36] SET_ENTITY_EVENT_POSITION(pos_x=323.381*, pos_z=-443.793*, pos_y=-108.440*)
102: 0x0D02 [0x01] GOTO 0x0D1E
103: 0x0D05 [0x02] IF !(ExtData[1]->WorkLocal[33] == 4*) GOTO 0x0D17
104: 0x0D0D [0x36] SET_ENTITY_EVENT_POSITION(pos_x=599.907*, pos_z=-676.969*, pos_y=-22.473*)
105: 0x0D14 [0x01] GOTO 0x0D1E
106: 0x0D17 [0x36] SET_ENTITY_EVENT_POSITION(pos_x=553.115*, pos_z=-553.131*, pos_y=-0.700*)

SUBROUTINE_0D1E:
107: 0x0D1E [0x01] GOTO 0x0D2A
108: 0x0D21 [0x37] UPDATE_EVENT_POSITION_AND_DIR: x=553.115*, z=-553.131*, y=-0.700*, direction=37.7°*

SUBROUTINE_0D2A:
109: 0x0D2A [0x80] LOAD_WAIT(entity=LocalPlayer)
110: 0x0D2F [0x62] LOAD_EVENT_SCHEDULER: Load scheduler "main" with entities [LocalPlayer, LocalPlayer], work=[2*, 0*]
111: 0x0D40 [0x45] LOAD_SCHEDULED_TASK: Load scheduler "fdi2" with entities [LocalPlayer, LocalPlayer], work=[200*, 0*]
112: 0x0D51 [0x46] CAMERA_CONTROL: Query status
113: 0x0D53 [0x12] 0x0200 = rand()
114: 0x0D56 [0x12] ExtData[1]->WorkLocal[0] = rand()
115: 0x0D59 [0x80] LOAD_WAIT(entity=Unknown NPC (ID: 1175281408/0x460D5F00))
116: 0x0D5E [0x00] END_REQSTACK()

SUBROUTINE_0D65:
117: 0x0D65 [0x02] IF !(ExtData[1]->WorkLocal[23] < 4294967295*) GOTO 0x0D7E
118: 0x0D6D [0x5C] MUSIC_CONTROL: Set Idle (Day) music to song 220*
119: 0x0D71 [0x5C] MUSIC_CONTROL: Set Idle (Night) music to song 220*
120: 0x0D75 [0x5C] MUSIC_CONTROL: Set Combat (Solo) music to song 220*
121: 0x0D79 [0x5C] MUSIC_CONTROL: Set Combat (Party) music to song 220*
122: 0x0D7D [0x9A] WAIT_MUSIC_SERVER()
123: 0x0D7E [0x1A] CALL_SUBROUTINE(address=0x1231)
124: 0x0D81 [0x02] IF !(ExtData[1]->WorkLocal[23] >= 0*) GOTO 0x0D8C
125: 0x0D89 [0x01] GOTO 0x0E2C

SUBROUTINE_0D8C:
126: 0x0D8C [0x02] IF !(ExtData[1]->WorkLocal[32] == 36*) GOTO 0x0D97
127: 0x0D94 [0x01] GOTO 0x0D97

SUBROUTINE_0D97:
128: 0x0D97 [0x02] IF !(ExtData[1]->WorkLocal[32] == 17*) GOTO 0x0DA2
129: 0x0D9F [0x01] GOTO 0x0E2C
130: 0x0DA2 [0x02] IF !(ExtData[1]->WorkLocal[32] == 19*) GOTO 0x0DAD
131: 0x0DAA [0x01] GOTO 0x0E2C
132: 0x0DAD [0x02] IF !(ExtData[1]->WorkLocal[32] == 21*) GOTO 0x0DB8
133: 0x0DB5 [0x01] GOTO 0x0E2C
134: 0x0DB8 [0x02] IF !(ExtData[1]->WorkLocal[32] == 23*) GOTO 0x0DC3
135: 0x0DC0 [0x01] GOTO 0x0E2C
136: 0x0DC3 [0x03] Work_Zone[5] = ExtData[1]->WorkLocal[27]
137: 0x0DC8 [0x02] IF !(Work_Zone[5] <= 0*) GOTO 0x0E2C
138: 0x0DD0 [0x02] IF !(Work_Zone[5] < 60*) GOTO 0x0DEB
139: 0x0DD8 [0x3F] Work_Zone[4] = Work_Zone[5] % 60*
140: 0x0DDF [0x15] Work_Zone[5] /= 60*
141: 0x0DE4 [0x48] [System] [7409*]:
    → "Battlefield clear time: $3 minute[/s], $2 second[/s]!"
142: 0x0DE7 [0x23] WAIT_FOR_DIALOG_INTERACTION
143: 0x0DE8 [0x01] GOTO 0x0DEF
144: 0x0DEB [0x48] [System] [7408*]:
    → "Battlefield clear time: $3 second[/s]!"
145: 0x0DEE [0x23] WAIT_FOR_DIALOG_INTERACTION

SUBROUTINE_0DEF:
146: 0x0DEF [0x02] IF !(ExtData[1]->WorkLocal[27] > ExtData[1]->WorkLocal[26]) GOTO 0x0E03
147: 0x0DF7 [0x03] Work_Zone[7] = ExtData[1]->WorkLocal[25]
148: 0x0DFC [0x48] [System] [7602*]:
    → "You have broken the clear time record for "[Head Wind/Like the Wind/Sheep in Antlion's Clothing/Shell We Dance?/Totentanz/Tango with a Tracker/Requiem of Sin/Antagonistic Ambuscade/$26Head Wind]"!"
149: 0x0DFF [0x23] WAIT_FOR_DIALOG_INTERACTION
150: 0x0E00 [0x01] GOTO 0x0E2C
151: 0x0E03 [0x02] IF !(ExtData[1]->WorkLocal[26] < 60*) GOTO 0x0E23
152: 0x0E0B [0x03] Work_Zone[5] = ExtData[1]->WorkLocal[26]
153: 0x0E10 [0x3F] Work_Zone[4] = Work_Zone[5] % 60*
154: 0x0E17 [0x15] Work_Zone[5] /= 60*
155: 0x0E1C [0x48] [System] [7411*]:
    → "The current battlefield clear time record is $3 minute[/s] $2 second[/s]."
156: 0x0E1F [0x23] WAIT_FOR_DIALOG_INTERACTION
157: 0x0E20 [0x01] GOTO 0x0E2C
158: 0x0E23 [0x03] Work_Zone[5] = ExtData[1]->WorkLocal[26]
159: 0x0E28 [0x48] [System] [7410*]:
    → "The current battlefield clear time record is $3 second[/s]."
160: 0x0E2B [0x23] WAIT_FOR_DIALOG_INTERACTION

SUBROUTINE_0E2C:
161: 0x0E2C [0x02] IF !(ExtData[1]->WorkLocal[24] == 0*) GOTO 0x0E44
162: 0x0E34 [0x5C] MUSIC_CONTROL: Set Idle (Day) music to song 0*
163: 0x0E38 [0x5C] MUSIC_CONTROL: Set Idle (Night) music to song 0*
164: 0x0E3C [0x5C] MUSIC_CONTROL: Set Combat (Solo) music to song 220*
165: 0x0E40 [0x5C] MUSIC_CONTROL: Set Combat (Party) music to song 220*
166: 0x0E44 [0x02] IF !(ExtData[1]->WorkLocal[23] >= 0*) GOTO 0x0E6D
167: 0x0E4C [0x45] LOAD_SCHEDULED_TASK: Load scheduler "fdi2" with entities [LocalPlayer, LocalPlayer], work=[200*, 0*]
168: 0x0E5D [0x5C] MUSIC_CONTROL: Set Idle (Day) music to song 0*
169: 0x0E61 [0x5C] MUSIC_CONTROL: Set Idle (Night) music to song 0*
170: 0x0E65 [0x5C] MUSIC_CONTROL: Set Combat (Solo) music to song 220*
171: 0x0E69 [0x5C] MUSIC_CONTROL: Set Combat (Party) music to song 220*
172: 0x0E6D [0x06] ExtData[1]->WorkLocal[24] = 0
173: 0x0E70 [0x45] LOAD_SCHEDULED_TASK: Load scheduler "whi1" with entities [LocalPlayer, LocalPlayer], work=[201*, 0*]
174: 0x0E81 [0x45] LOAD_SCHEDULED_TASK: Load scheduler "blof" with entities [LocalPlayer, LocalPlayer], work=[200*, 0*]
175: 0x0E92 [0x21] END_EVENT
176: 0x0E93 [0x00] END_REQSTACK()
```

#### Data or dead code:

```
# Dead code (unreachable instructions):
     0x0D5F [0x01] GOTO 0x0D8C
     0x0D62 [0x01] GOTO 0x0D65
```

### Event 32003

#### Metadata

| Field        | Value     |
|--------------|-----------|
| Entrypoint   | 0x0E94    |
| Data Size    | 435 bytes |
| Instructions | 77        |

```
      00 01 02 03 04 05 06 07  08 09 0A 0B 0C 0D 0E 0F
      -- -- -- -- -- -- -- --  -- -- -- -- -- -- -- --
0E90:             06 1D 00 06  1E 00 03 21 00 06 10 03      .......!....
0EA0: 20 00 07 10 03 1F 00 08  10 06 01 10 1A 1C 14 02   ...............
0EB0: 1D 00 05 80 00 45 10 42  03 01 10 09 80 43 00 43  .....E.B.....C.C
0EC0: 01 03 01 10 0A 80 43 00  43 01 1A 33 14 02 1E 00  ......C.C..3....
0ED0: 05 80 00 45 10 45 0E 80  F0 FF FF 7F F0 FF FF 7F  ...E.E..........
0EE0: 66 64 6F 31 00 80 55 0E  80 F0 FF FF 7F F0 FF FF  fdo1..U.........
0EF0: 7F 66 64 6F 31 03 01 10  0B 80 02 20 00 3B 80 80  .fdo1...... .;..
0F00: 84 0F 02 21 00 00 80 80  19 0F 47 00 3C 80 3D 80  ...!......G.<.=.
0F10: 3E 80 3F 80 47 01 01 81  0F 02 21 00 05 80 80 30  >.?.G.....!....0
0F20: 0F 47 00 40 80 41 80 42  80 43 80 47 01 01 81 0F  .G.@.A.B.C.G....
0F30: 02 21 00 09 80 80 47 0F  47 00 44 80 45 80 46 80  .!....G.G.D.E.F.
0F40: 47 80 47 01 01 81 0F 02  21 00 0A 80 80 5E 0F 47  G.G.....!....^.G
0F50: 00 48 80 49 80 4A 80 4B  80 47 01 01 81 0F 02 21  .H.I.J.K.G.....!
0F60: 00 0B 80 80 75 0F 47 00  4C 80 4D 80 4E 80 4F 80  ....u.G.L.M.N.O.
0F70: 47 01 01 81 0F 47 00 50  80 51 80 52 80 53 80 47  G....G.P.Q.R.S.G
0F80: 01 01 03 10 02 20 00 18  80 80 F7 0F 02 1F 00 05  ..... ..........
0F90: 80 80 A3 0F 47 00 54 80  55 80 56 80 57 80 47 01  ....G.T.U.V.W.G.
0FA0: 01 F4 0F 02 1F 00 09 80  80 BA 0F 47 00 58 80 59  ...........G.X.Y
0FB0: 80 5A 80 5B 80 47 01 01  F4 0F 02 1F 00 0A 80 80  .Z.[.G..........
0FC0: D1 0F 47 00 5C 80 5D 80  5E 80 5F 80 47 01 01 F4  ..G.\.].^._.G...
0FD0: 0F 02 1F 00 0B 80 80 E8  0F 47 00 60 80 61 80 62  .........G.`.a.b
0FE0: 80 63 80 47 01 01 F4 0F  47 00 50 80 51 80 52 80  .c.G....G.P.Q.R.
0FF0: 53 80 47 01 01 03 10 47  00 50 80 51 80 52 80 53  S.G....G.P.Q.R.S
1000: 80 47 01 38 0F 80 79 00  F0 FF FF 7F F0 FF FF 7F  .G.8..y.........
1010: 1A 37 14 45 36 80 F0 FF  FF 7F F0 FF FF 7F 77 68  .7.E6.........wh
1020: 69 31 00 80 45 0E 80 F0  FF FF 7F F0 FF FF 7F 62  i1..E..........b
1030: 6C 6F 66 00 80 5C 00 00  80 5C 01 00 80 5C 02 33  lof..\...\...\.3
1040: 80 5C 03 33 80 21 00                              .\.3.!.         
```

#### Opcodes

```
  0: 0x0E94 [0x06] ExtData[1]->WorkLocal[29] = 0
  1: 0x0E97 [0x06] ExtData[1]->WorkLocal[30] = 0
  2: 0x0E9A [0x03] ExtData[1]->WorkLocal[33] = Work_Zone[6]
  3: 0x0E9F [0x03] ExtData[1]->WorkLocal[32] = Work_Zone[7]
  4: 0x0EA4 [0x03] ExtData[1]->WorkLocal[31] = Work_Zone[8]
  5: 0x0EA9 [0x06] Work_Zone[1] = 0
  6: 0x0EAC [0x1A] CALL_SUBROUTINE(address=0x141C)
  7: 0x0EAF [0x02] IF !(ExtData[1]->WorkLocal[29] == 1*) GOTO 0x1045
  8: 0x0EB7 [0x42] SET_CLI_EVENT_CANCEL_DATA()
  9: 0x0EB8 [0x03] Work_Zone[1] = 2*
 10: 0x0EBD [0x43] SEND_EVENT_UPDATE: Send pending tag to server (packet 0x005B)
 11: 0x0EBF [0x43] SEND_EVENT_UPDATE: Check pending flag (skip if not pending)
 12: 0x0EC1 [0x03] Work_Zone[1] = 3*
 13: 0x0EC6 [0x43] SEND_EVENT_UPDATE: Send pending tag to server (packet 0x005B)
 14: 0x0EC8 [0x43] SEND_EVENT_UPDATE: Check pending flag (skip if not pending)
 15: 0x0ECA [0x1A] CALL_SUBROUTINE(address=0x1433)
 16: 0x0ECD [0x02] IF !(ExtData[1]->WorkLocal[30] == 1*) GOTO 0x1045
 17: 0x0ED5 [0x45] LOAD_SCHEDULED_TASK: Load scheduler "fdo1" with entities [LocalPlayer, LocalPlayer], work=[200*, 0*]
 18: 0x0EE6 [0x55] WAIT_LOAD_SCHEDULER: Wait for scheduler "fdo1" with entities [LocalPlayer, LocalPlayer], work=200*
 19: 0x0EF5 [0x03] Work_Zone[1] = 4*
 20: 0x0EFA [0x02] IF !(ExtData[1]->WorkLocal[32] == 180*) GOTO 0x0F84
 21: 0x0F02 [0x02] IF !(ExtData[1]->WorkLocal[33] == 0*) GOTO 0x0F19
 22: 0x0F0A [0x47] UPDATE_PLAYER_POS(-605.141*, 479.929*, -22.681*, yaw=87.2°*)
 23: 0x0F14 [0x47] WAIT_PLAYER_POS_UPDATE
 24: 0x0F16 [0x01] GOTO 0x0F81
 25: 0x0F19 [0x02] IF !(ExtData[1]->WorkLocal[33] == 1*) GOTO 0x0F30
 26: 0x0F21 [0x47] UPDATE_PLAYER_POS(-262.589*, 377.857*, -137.313*, yaw=305.3°*)
 27: 0x0F2B [0x47] WAIT_PLAYER_POS_UPDATE
 28: 0x0F2D [0x01] GOTO 0x0F81
 29: 0x0F30 [0x02] IF !(ExtData[1]->WorkLocal[33] == 2*) GOTO 0x0F47
 30: 0x0F38 [0x47] UPDATE_PLAYER_POS(18.348*, 486.940*, -224.334*, yaw=17.1°*)
 31: 0x0F42 [0x47] WAIT_PLAYER_POS_UPDATE
 32: 0x0F44 [0x01] GOTO 0x0F81
 33: 0x0F47 [0x02] IF !(ExtData[1]->WorkLocal[33] == 3*) GOTO 0x0F5E
 34: 0x0F4F [0x47] UPDATE_PLAYER_POS(231.593*, 360.094*, -173.572*, yaw=160.8°*)
 35: 0x0F59 [0x47] WAIT_PLAYER_POS_UPDATE
 36: 0x0F5B [0x01] GOTO 0x0F81
 37: 0x0F5E [0x02] IF !(ExtData[1]->WorkLocal[33] == 4*) GOTO 0x0F75
 38: 0x0F66 [0x47] UPDATE_PLAYER_POS(553.664*, 523.939*, -38.205*, yaw=233.9°*)
 39: 0x0F70 [0x47] WAIT_PLAYER_POS_UPDATE
 40: 0x0F72 [0x01] GOTO 0x0F81
 41: 0x0F75 [0x47] UPDATE_PLAYER_POS(-612.241*, 494.824*, -1.608*, yaw=65.6°*)
 42: 0x0F7F [0x47] WAIT_PLAYER_POS_UPDATE

SUBROUTINE_0F81:
 43: 0x0F81 [0x01] GOTO 0x1003
 44: 0x0F84 [0x02] IF !(ExtData[1]->WorkLocal[32] == 6*) GOTO 0x0FF7
 45: 0x0F8C [0x02] IF !(ExtData[1]->WorkLocal[31] == 1*) GOTO 0x0FA3
 46: 0x0F94 [0x47] UPDATE_PLAYER_POS(-875.117*, -43.892*, -48.084*, yaw=45.1°*)
 47: 0x0F9E [0x47] WAIT_PLAYER_POS_UPDATE
 48: 0x0FA0 [0x01] GOTO 0x0FF4
 49: 0x0FA3 [0x02] IF !(ExtData[1]->WorkLocal[31] == 2*) GOTO 0x0FBA
 50: 0x0FAB [0x47] UPDATE_PLAYER_POS(-755.499*, 563.947*, -112.035*, yaw=313.5°*)
 51: 0x0FB5 [0x47] WAIT_PLAYER_POS_UPDATE
 52: 0x0FB7 [0x01] GOTO 0x0FF4
 53: 0x0FBA [0x02] IF !(ExtData[1]->WorkLocal[31] == 3*) GOTO 0x0FD1
 54: 0x0FC2 [0x47] UPDATE_PLAYER_POS(123.251*, 754.209*, -172.124*, yaw=38.7°*)
 55: 0x0FCC [0x47] WAIT_PLAYER_POS_UPDATE
 56: 0x0FCE [0x01] GOTO 0x0FF4
 57: 0x0FD1 [0x02] IF !(ExtData[1]->WorkLocal[31] == 4*) GOTO 0x0FE8
 58: 0x0FD9 [0x47] UPDATE_PLAYER_POS(-516.404*, -803.323*, 24.206*, yaw=38.4°*)
 59: 0x0FE3 [0x47] WAIT_PLAYER_POS_UPDATE
 60: 0x0FE5 [0x01] GOTO 0x0FF4
 61: 0x0FE8 [0x47] UPDATE_PLAYER_POS(-612.241*, 494.824*, -1.608*, yaw=65.6°*)
 62: 0x0FF2 [0x47] WAIT_PLAYER_POS_UPDATE

SUBROUTINE_0FF4:
 63: 0x0FF4 [0x01] GOTO 0x1003
 64: 0x0FF7 [0x47] UPDATE_PLAYER_POS(-612.241*, 494.824*, -1.608*, yaw=65.6°*)
 65: 0x1001 [0x47] WAIT_PLAYER_POS_UPDATE

SUBROUTINE_1003:
 66: 0x1003 [0x38] SET_CLIENT_EVENT_MODE(mode=19*)
 67: 0x1006 [0x79] LocalPlayer looks at LocalPlayer (Basic look)
 68: 0x1010 [0x1A] CALL_SUBROUTINE(address=0x1437)
 69: 0x1013 [0x45] LOAD_SCHEDULED_TASK: Load scheduler "whi1" with entities [LocalPlayer, LocalPlayer], work=[201*, 0*]
 70: 0x1024 [0x45] LOAD_SCHEDULED_TASK: Load scheduler "blof" with entities [LocalPlayer, LocalPlayer], work=[200*, 0*]
 71: 0x1035 [0x5C] MUSIC_CONTROL: Set Idle (Day) music to song 0*
 72: 0x1039 [0x5C] MUSIC_CONTROL: Set Idle (Night) music to song 0*
 73: 0x103D [0x5C] MUSIC_CONTROL: Set Combat (Solo) music to song 220*
 74: 0x1041 [0x5C] MUSIC_CONTROL: Set Combat (Party) music to song 220*
 75: 0x1045 [0x21] END_EVENT
 76: 0x1046 [0x00] END_REQSTACK()
```

### Event 32004

#### Metadata

| Field        | Value      |
|--------------|------------|
| Entrypoint   | 0x1047     |
| Data Size    | 1544 bytes |
| Instructions | 2          |

```
      00 01 02 03 04 05 06 07  08 09 0A 0B 0C 0D 0E 0F
      -- -- -- -- -- -- -- --  -- -- -- -- -- -- -- --
1040:                      21  00 24 0C 80 05 80 00 80         !.$......
1050: 25 02 00 10 00 80 00 5F  10 05 01 00 01 5F 10 1B  %......_....._..
1060: 79 00 F0 FF FF 7F F0 FF  FF 7F 42 46 01 37 98 80  y.........BF.7..
1070: 99 80 9A 80 9B 80 45 9C  80 F0 FF FF 7F F0 FF FF  ......E.........
1080: 7F 62 61 63 6B 00 80 1C  1B 80 45 0E 80 F0 FF FF  .back.....E.....
1090: 7F F0 FF FF 7F 66 64 69  31 00 80 55 0E 80 F0 FF  .....fdi1..U....
10A0: FF 7F F0 FF FF 7F 66 64  69 31 27 03 DF 80 00 01  ......fdi1'.....
10B0: 04 27 03 E0 80 00 01 04  27 03 E2 80 00 01 04 27  .'......'......'
10C0: 03 E4 80 00 01 04 1C 64  80 32 9D 80 45 0E 80 F0  .......d.2..E...
10D0: FF FF 7F F0 FF FF 7F 66  64 6F 32 00 80 1F 00 9E  .......fdo2.....
10E0: 80 9F 80 A0 80 1F 01 55  0E 80 F0 FF FF 7F F0 FF  .......U........
10F0: FF 7F 66 64 6F 32 27 03  DF 80 00 01 05 27 03 E0  ..fdo2'......'..
1100: 80 00 01 05 27 03 E2 80  00 01 05 27 03 E4 80 00  ....'......'....
1110: 01 05 92 00 F0 FF FF 7F  02 03 00 00 80 80 2D 11  ..............-.
1120: 29 0F E7 80 00 01 01 1A  7F 11 01 68 11 02 03 00  )..........h....
1130: 08 80 80 49 11 02 1C 00  09 80 00 43 11 1A 7F 11  ...I.......C....
1140: 01 46 11 1A EF 16 01 68  11 02 03 00 18 80 80 65  .F.....h.......e
1150: 11 02 1C 00 09 80 00 5F  11 1A 7F 11 01 62 11 1A  ......._.....b..
1160: E4 1B 01 68 11 1A 7F 11  7B F0 FF FF 7F 55 0E 80  ...h....{....U..
1170: F0 FF FF 7F F0 FF FF 7F  66 64 69 31 46 00 1B 45  ........fdi1F..E
1180: 0E 80 F0 FF FF 7F F0 FF  FF 7F 66 64 6F 32 00 80  ..........fdo2..
1190: 55 0E 80 F0 FF FF 7F F0  FF FF 7F 66 64 6F 32 37  U..........fdo27
11A0: A1 80 A2 80 A3 80 A4 80  03 22 00 A5 80 32 9D 80  ........."...2..
11B0: 1A ED 11 37 23 00 24 00  25 00 26 00 45 9C 80 F0  ...7#.$.%.&.E...
11C0: FF FF 7F F0 FF FF 7F 62  61 63 6B 00 80 1C 1B 80  .......back.....
11D0: 45 0E 80 F0 FF FF 7F F0  FF FF 7F 66 64 69 31 00  E..........fdi1.
11E0: 80 1F 00 A1 80 A2 80 A3  80 1F 01 6F 1B 3B F8 FF  ...........o.;..
11F0: FF 7F 23 00 24 00 25 00  3A F8 FF FF 7F 26 00 17  ..#.$.%.:....&..
1200: 27 00 26 00 22 00 16 28  00 26 00 22 00 07 23 00  '.&."..(.&."..#.
1210: 27 00 07 24 00 28 00 1B  17 27 00 26 00 22 00 16  '..$.(...'.&."..
1220: 28 00 26 00 22 00 07 23  00 27 00 07 24 00 28 00  (.&."..#.'..$.(.
1230: 1B 46 01 02 19 00 00 80  80 45 12 29 0F E7 80 00  .F.......E.)....
1240: 01 02 01 61 12 02 19 00  08 80 80 53 12 1A 09 1A  ...a.......S....
1250: 01 61 12 02 19 00 18 80  80 61 12 1A F6 21 01 61  .a.......a...!.a
1260: 12 45 0E 80 F0 FF FF 7F  F0 FF FF 7F 66 64 6F 32  .E..........fdo2
1270: 00 80 55 0E 80 F0 FF FF  7F F0 FF FF 7F 66 64 6F  ..U..........fdo
1280: 32 02 19 00 00 80 80 8F  12 1A B1 12 01 AE 12 02  2...............
1290: 19 00 08 80 80 9D 12 1A  B1 12 01 AE 12 02 19 00  ................
12A0: 18 80 80 AB 12 1A B1 12  01 AE 12 1A 12 13 46 00  ..............F.
12B0: 1B 92 01 F0 FF FF 7F 37  7A 80 7B 80 7C 80 7D 80  .......7z.{.|.}.
12C0: 45 9C 80 F0 FF FF 7F F0  FF FF 7F 62 61 63 6B 00  E..........back.
12D0: 80 6C F0 FF FF 7F 00 80  00 80 1C 1B 80 45 0E 80  .l...........E..
12E0: F0 FF FF 7F F0 FF FF 7F  66 64 69 31 00 80 55 0E  ........fdi1..U.
12F0: 80 F0 FF FF 7F F0 FF FF  7F 66 64 69 31 62 09 80  .........fdi1b..
1300: F0 FF FF 7F F0 FF FF 7F  6D 61 69 6E 00 80 1C A6  ........main....
1310: 80 1B 92 01 F0 FF FF 7F  37 A7 80 A8 80 A9 80 AA  ........7.......
1320: 80 45 9C 80 F0 FF FF 7F  F0 FF FF 7F 62 61 63 6B  .E..........back
1330: 00 80 1C 1B 80 45 0E 80  F0 FF FF 7F F0 FF FF 7F  .....E..........
1340: 66 64 69 31 00 80 55 0E  80 F0 FF FF 7F F0 FF FF  fdi1..U.........
1350: 7F 66 64 69 31 27 03 E1  80 00 01 02 27 03 E3 80  .fdi1'......'...
1360: 00 01 02 27 03 E5 80 00  01 02 27 03 E6 80 00 01  ...'......'.....
1370: 02 1C 64 80 32 9D 80 45  0E 80 F0 FF FF 7F F0 FF  ..d.2..E........
1380: FF 7F 66 64 6F 32 00 80  31 00 AB 80 AC 80 AD 80  ..fdo2..1.......
1390: A6 80 31 01 55 0E 80 F0  FF FF 7F F0 FF FF 7F 66  ..1.U..........f
13A0: 64 6F 32 27 03 E1 80 00  01 03 27 03 E3 80 00 01  do2'......'.....
13B0: 03 27 03 E5 80 00 01 03  27 03 E6 80 00 01 03 37  .'......'......7
13C0: 7A 80 7B 80 7C 80 7D 80  03 22 00 A5 80 32 9D 80  z.{.|.}.."...2..
13D0: 1A ED 11 37 23 00 24 00  25 00 26 00 45 9C 80 F0  ...7#.$.%.&.E...
13E0: FF FF 7F F0 FF FF 7F 62  61 63 6B 00 80 1C 1B 80  .......back.....
13F0: 45 0E 80 F0 FF FF 7F F0  FF FF 7F 66 64 69 31 00  E..........fdi1.
1400: 80 1F 00 7A 80 7B 80 7C  80 1F 01 6F 55 0E 80 F0  ...z.{.|...oU...
1410: FF FF 7F F0 FF FF 7F 66  64 69 31 1B 24 AE 80 05  .......fdi1.$...
1420: 80 00 80 25 02 00 10 00  80 00 32 14 05 1D 00 01  ...%......2.....
1430: 32 14 1B 05 1E 00 1B 46  01 37 AF 80 B0 80 B1 80  2......F.7......
1440: B2 80 45 9C 80 F0 FF FF  7F F0 FF FF 7F 62 61 63  ..E..........bac
1450: 6B 00 80 1C 1B 80 45 0E  80 F0 FF FF 7F F0 FF FF  k.....E.........
1460: 7F 66 64 69 31 00 80 55  0E 80 F0 FF FF 7F F0 FF  .fdi1..U........
1470: FF 7F 66 64 69 31 27 03  DF 80 00 01 04 27 03 E0  ..fdi1'......'..
1480: 80 00 01 04 27 03 E2 80  00 01 04 27 03 E4 80 00  ....'......'....
1490: 01 04 1C A6 80 32 9D 80  45 0E 80 F0 FF FF 7F F0  .....2..E.......
14A0: FF FF 7F 66 64 6F 32 00  80 31 00 B3 80 B4 80 B5  ...fdo2..1......
14B0: 80 A6 80 31 01 55 0E 80  F0 FF FF 7F F0 FF FF 7F  ...1.U..........
14C0: 66 64 6F 32 27 03 DF 80  00 01 05 27 03 E0 80 00  fdo2'......'....
14D0: 01 05 27 03 E2 80 00 01  05 27 03 E4 80 00 01 05  ..'......'......
14E0: 1C 64 80 92 01 F0 FF FF  7F 37 50 80 51 80 52 80  .d.......7P.Q.R.
14F0: 53 80 03 22 00 A5 80 32  9D 80 1A ED 11 37 23 00  S.."...2.....7#.
1500: 24 00 25 00 26 00 45 9C  80 F0 FF FF 7F F0 FF FF  $.%.&.E.........
1510: 7F 62 61 63 6B 00 80 1C  1B 80 45 0E 80 F0 FF FF  .back.....E.....
1520: 7F F0 FF FF 7F 66 64 69  31 00 80 1F 00 50 80 51  .....fdi1....P.Q
1530: 80 52 80 1F 01 6F 55 0E  80 F0 FF FF 7F F0 FF FF  .R...oU.........
1540: 7F 66 64 69 31 46 00 1B  46 01 6C F8 FF FF 7F 00  .fdi1F..F.l.....
1550: 80 00 80 92 01 F0 FF FF  7F 37 50 80 51 80 52 80  .........7P.Q.R.
1560: 53 80 45 9C 80 F0 FF FF  7F F0 FF FF 7F 62 61 63  S.E..........bac
1570: 6B 00 80 1C 1B 80 45 0E  80 F0 FF FF 7F F0 FF FF  k.....E.........
1580: 7F 66 64 69 31 00 80 55  0E 80 F0 FF FF 7F F0 FF  .fdi1..U........
1590: FF 7F 66 64 69 31 62 09  80 F0 FF FF 7F F0 FF FF  ..fdi1b.........
15A0: 7F 6D 61 69 6E 00 80 1C  A6 80 46 00 1B 02 03 00  .main.....F.....
15B0: 10 80 80 D1 15 03 08 17  B6 80 03 09 17 B7 80 03  ................
15C0: 0A 17 B8 80 03 0B 17 B9  80 03 0C 17 BA 80 01 D1  ................
15D0: 15 1B 02 00 00 05 80 80  F1 15 03 09 00 A1 80 03  ................
15E0: 0A 00 A2 80 03 0B 00 A3  80 03 0C 00 A4 80 01 4E  ...............N
15F0: 16 02 00 00 09 80 80 10  16 03 09 00 BB 80 03 0A  ................
1600: 00 BC 80 03 0B 00 BD 80  03 0C 00 BE 80 01 4E 16  ..............N.
1610: 02 00 00 0A 80 80 2F 16  03 09 00 BF 80 03 0A 00  ....../.........
1620: C0 80 03 0B 00 C1 80 03  0C 00 C2 80 01 4E 16 02  .............N..
1630: 00 00 0B 80 80 4E 16 03  09 00 00 80 03 0A 00 00  .....N..........
1640: 80 03 0B 00 00 80 03 0C  00 00 80 01 4E 16 1B     ............N.. 
```

#### Opcodes

```
  0: 0x1047 [0x21] END_EVENT
  1: 0x1048 [0x00] END_REQSTACK()
```

#### Data or dead code:

```
# Dead code (unreachable instructions):
     0x1049 [0x24] CREATE_DIALOG(message_id=7068*, default_option=1*, option_flags=0*)
    → "Enter the battlefield? [Enter./Decline.]"
     0x1050 [0x25] WAIT_DIALOG_SELECT()
     0x1051 [0x02] IF !(Work_Zone[0] == 0*) GOTO 0x105F
     0x1059 [0x05] ExtData[1]->WorkLocal[1] = 1
     0x105C [0x01] GOTO 0x105F
     0x105F [0x1B] RETURN
     0x1060 [0x79] LocalPlayer looks at LocalPlayer (Basic look)
     0x106A [0x42] SET_CLI_EVENT_CANCEL_DATA()
     0x106B [0x46] CAMERA_CONTROL: Disable user control
     0x106D [0x37] UPDATE_EVENT_POSITION_AND_DIR: x=-615.987*, z=502.266*, y=-1.738*, direction=210.1°*
     0x1076 [0x45] LOAD_SCHEDULED_TASK: Load scheduler "back" with entities [LocalPlayer, LocalPlayer], work=[108*, 0*]
     0x1087 [0x1C] WAIT(10* ticks)
     0x108A [0x45] LOAD_SCHEDULED_TASK: Load scheduler "fdi1" with entities [LocalPlayer, LocalPlayer], work=[200*, 0*]
     0x109B [0x55] WAIT_LOAD_SCHEDULER: Wait for scheduler "fdi1" with entities [LocalPlayer, LocalPlayer], work=200*
     0x10AA [0x27] REQ_SET(priority=0x03, entity_id=Dark Miasma (ID: 16810207/0x010080DF), tag_num=0x04)
     0x10B1 [0x27] REQ_SET(priority=0x03, entity_id=Dark Miasma (ID: 16810208/0x010080E0), tag_num=0x04)
     0x10B8 [0x27] REQ_SET(priority=0x03, entity_id=Dark Miasma (ID: 16810210/0x010080E2), tag_num=0x04)
     0x10BF [0x27] REQ_SET(priority=0x03, entity_id=Dark Miasma (ID: 16810212/0x010080E4), tag_num=0x04)
     0x10C6 [0x1C] WAIT(300* ticks)
     0x10C9 [0x32] ExtData[1]->MainSpeed = 40* * 0.1
     0x10CC [0x45] LOAD_SCHEDULED_TASK: Load scheduler "fdo2" with entities [LocalPlayer, LocalPlayer], work=[200*, 0*]
     0x10DD [0x1F] MOVE_ENTITY: EventEntity moves to X=-629.129*, Z=508.919*, Y=-1.411*
     0x10E5 [0x1F] MOVE_ENTITY: Update entity position (mode=1)
     0x10E7 [0x55] WAIT_LOAD_SCHEDULER: Wait for scheduler "fdo2" with entities [LocalPlayer, LocalPlayer], work=200*
     0x10F6 [0x27] REQ_SET(priority=0x03, entity_id=Dark Miasma (ID: 16810207/0x010080DF), tag_num=0x05)
     0x10FD [0x27] REQ_SET(priority=0x03, entity_id=Dark Miasma (ID: 16810208/0x010080E0), tag_num=0x05)
     0x1104 [0x27] REQ_SET(priority=0x03, entity_id=Dark Miasma (ID: 16810210/0x010080E2), tag_num=0x05)
     0x110B [0x27] REQ_SET(priority=0x03, entity_id=Dark Miasma (ID: 16810212/0x010080E4), tag_num=0x05)
     0x1112 [0x92] LocalPlayer->Render.Flags3 = Flags3  // No change (flag=0)
     0x1118 [0x02] IF !(ExtData[1]->WorkLocal[3] == 0*) GOTO 0x112D
     0x1120 [0x29] REQ_SET_WAIT(priority=0x0F, entity_id=??? (ID: 16810215/0x010080E7), tag_num=0x01)
     0x1127 [0x1A] CALL_SUBROUTINE(address=0x117F)
     0x112A [0x01] GOTO 0x1168
     0x112D [0x02] IF !(ExtData[1]->WorkLocal[3] == 5*) GOTO 0x1149
     0x1135 [0x02] IF !(ExtData[1]->WorkLocal[28] == 2*) GOTO 0x1143
     0x113D [0x1A] CALL_SUBROUTINE(address=0x117F)
     0x1140 [0x01] GOTO 0x1146
     0x1143 [0x1A] CALL_SUBROUTINE(address=0x16EF)
     0x1146 [0x01] GOTO 0x1168
     0x1149 [0x02] IF !(ExtData[1]->WorkLocal[3] == 6*) GOTO 0x1165
     0x1151 [0x02] IF !(ExtData[1]->WorkLocal[28] == 2*) GOTO 0x115F
     0x1159 [0x1A] CALL_SUBROUTINE(address=0x117F)
     0x115C [0x01] GOTO 0x1162
     0x115F [0x1A] CALL_SUBROUTINE(address=0x1BE4)
     0x1162 [0x01] GOTO 0x1168
     0x1165 [0x1A] CALL_SUBROUTINE(address=0x117F)
     0x1168 [0x7B] LocalPlayer stops talking
     0x116D [0x55] WAIT_LOAD_SCHEDULER: Wait for scheduler "fdi1" with entities [LocalPlayer, LocalPlayer], work=200*
     0x117C [0x46] CAMERA_CONTROL: Restore default settings
     0x117E [0x1B] RETURN
     0x117F [0x45] LOAD_SCHEDULED_TASK: Load scheduler "fdo2" with entities [LocalPlayer, LocalPlayer], work=[200*, 0*]
     0x1190 [0x55] WAIT_LOAD_SCHEDULER: Wait for scheduler "fdo2" with entities [LocalPlayer, LocalPlayer], work=200*
     0x119F [0x37] UPDATE_EVENT_POSITION_AND_DIR: x=-634.964*, z=-524.088*, y=-0.173*, direction=250.5°*
     0x11A8 [0x03] ExtData[1]->WorkLocal[34] = 4294962296*
     0x11AD [0x32] ExtData[1]->MainSpeed = 40* * 0.1
     0x11B0 [0x1A] CALL_SUBROUTINE(address=0x11ED)
     0x11B3 [0x37] UPDATE_EVENT_POSITION_AND_DIR: x=ExtData[1]->WorkLocal[35], z=ExtData[1]->WorkLocal[36], y=ExtData[1]->WorkLocal[37], direction=ExtData[1]->WorkLocal[38]
     0x11BC [0x45] LOAD_SCHEDULED_TASK: Load scheduler "back" with entities [LocalPlayer, LocalPlayer], work=[108*, 0*]
     0x11CD [0x1C] WAIT(10* ticks)
     0x11D0 [0x45] LOAD_SCHEDULED_TASK: Load scheduler "fdi1" with entities [LocalPlayer, LocalPlayer], work=[200*, 0*]
     0x11E1 [0x1F] MOVE_ENTITY: EventEntity moves to X=-634.964*, Z=-524.088*, Y=-0.173*
     0x11E9 [0x1F] MOVE_ENTITY: Update entity position (mode=1)
     0x11EB [0x6F] WAIT_FRAME_DELAY: Yield until WaitTime reaches zero
     0x11EC [0x1B] RETURN
     0x11ED [0x3B] GET_ENTITY_POSITION(entity=EventEntity, x_destination=ExtData[1]->WorkLocal[35], y_destination=ExtData[1]->WorkLocal[36], z_destination=ExtData[1]->WorkLocal[37])
     0x11F8 [0x3A] CONVERT_YAW_TO_BYTE(entity=EventEntity, result_destination=ExtData[1]->WorkLocal[38])
     0x11FF [0x17] ExtData[1]->WorkLocal[39] = cos(ExtData[1]->WorkLocal[38]) * ExtData[1]->WorkLocal[34]
     0x1206 [0x16] ExtData[1]->WorkLocal[40] = sin(ExtData[1]->WorkLocal[38]) * ExtData[1]->WorkLocal[34]
     0x120D [0x07] ExtData[1]->WorkLocal[35] += ExtData[1]->WorkLocal[39]
     0x1212 [0x07] ExtData[1]->WorkLocal[36] += ExtData[1]->WorkLocal[40]
     0x1217 [0x1B] RETURN
     0x1218 [0x17] ExtData[1]->WorkLocal[39] = cos(ExtData[1]->WorkLocal[38]) * ExtData[1]->WorkLocal[34]
     0x121F [0x16] ExtData[1]->WorkLocal[40] = sin(ExtData[1]->WorkLocal[38]) * ExtData[1]->WorkLocal[34]
     0x1226 [0x07] ExtData[1]->WorkLocal[35] += ExtData[1]->WorkLocal[39]
     0x122B [0x07] ExtData[1]->WorkLocal[36] += ExtData[1]->WorkLocal[40]
     0x1230 [0x1B] RETURN
     0x1231 [0x46] CAMERA_CONTROL: Disable user control
     0x1233 [0x02] IF !(ExtData[1]->WorkLocal[25] == 0*) GOTO 0x1245
     0x123B [0x29] REQ_SET_WAIT(priority=0x0F, entity_id=??? (ID: 16810215/0x010080E7), tag_num=0x02)
     0x1242 [0x01] GOTO 0x1261
     0x1245 [0x02] IF !(ExtData[1]->WorkLocal[25] == 5*) GOTO 0x1253
     0x124D [0x1A] CALL_SUBROUTINE(address=0x1A09)
     0x1250 [0x01] GOTO 0x1261
     0x1253 [0x02] IF !(ExtData[1]->WorkLocal[25] == 6*) GOTO 0x1261
     0x125B [0x1A] CALL_SUBROUTINE(address=0x21F6)
     0x125E [0x01] GOTO 0x1261
     0x1261 [0x45] LOAD_SCHEDULED_TASK: Load scheduler "fdo2" with entities [LocalPlayer, LocalPlayer], work=[200*, 0*]
     0x1272 [0x55] WAIT_LOAD_SCHEDULER: Wait for scheduler "fdo2" with entities [LocalPlayer, LocalPlayer], work=200*
     0x1281 [0x02] IF !(ExtData[1]->WorkLocal[25] == 0*) GOTO 0x128F
     0x1289 [0x1A] CALL_SUBROUTINE(address=0x12B1)
     0x128C [0x01] GOTO 0x12AE
     0x128F [0x02] IF !(ExtData[1]->WorkLocal[25] == 5*) GOTO 0x129D
     0x1297 [0x1A] CALL_SUBROUTINE(address=0x12B1)
     0x129A [0x01] GOTO 0x12AE
     0x129D [0x02] IF !(ExtData[1]->WorkLocal[25] == 6*) GOTO 0x12AB
     0x12A5 [0x1A] CALL_SUBROUTINE(address=0x12B1)
     0x12A8 [0x01] GOTO 0x12AE
     0x12AB [0x1A] CALL_SUBROUTINE(address=0x1312)
     0x12AE [0x46] CAMERA_CONTROL: Restore default settings
     0x12B0 [0x1B] RETURN
     0x12B1 [0x92] LocalPlayer->Render.Flags3 ^= 0x01
     0x12B7 [0x37] UPDATE_EVENT_POSITION_AND_DIR: x=553.115*, z=-553.131*, y=-0.700*, direction=37.7°*
     0x12C0 [0x45] LOAD_SCHEDULED_TASK: Load scheduler "back" with entities [LocalPlayer, LocalPlayer], work=[108*, 0*]
     0x12D1 [0x6C] FADE_ENTITY_COLOR(entity_id=LocalPlayer, end_alpha=0*, fade_time=0*)
     0x12DA [0x1C] WAIT(10* ticks)
     0x12DD [0x45] LOAD_SCHEDULED_TASK: Load scheduler "fdi1" with entities [LocalPlayer, LocalPlayer], work=[200*, 0*]
     0x12EE [0x55] WAIT_LOAD_SCHEDULER: Wait for scheduler "fdi1" with entities [LocalPlayer, LocalPlayer], work=200*
     0x12FD [0x62] LOAD_EVENT_SCHEDULER: Load scheduler "main" with entities [LocalPlayer, LocalPlayer], work=[2*, 0*]
     0x130E [0x1C] WAIT(120* ticks)
     0x1311 [0x1B] RETURN
     0x1312 [0x92] LocalPlayer->Render.Flags3 ^= 0x01
     0x1318 [0x37] UPDATE_EVENT_POSITION_AND_DIR: x=536.253*, z=-543.172*, y=-1.801*, direction=37.2°*
     0x1321 [0x45] LOAD_SCHEDULED_TASK: Load scheduler "back" with entities [LocalPlayer, LocalPlayer], work=[108*, 0*]
     0x1332 [0x1C] WAIT(10* ticks)
     0x1335 [0x45] LOAD_SCHEDULED_TASK: Load scheduler "fdi1" with entities [LocalPlayer, LocalPlayer], work=[200*, 0*]
     0x1346 [0x55] WAIT_LOAD_SCHEDULER: Wait for scheduler "fdi1" with entities [LocalPlayer, LocalPlayer], work=200*
     0x1355 [0x27] REQ_SET(priority=0x03, entity_id=Unknown NPC (ID: 16810209/0x010080E1), tag_num=0x02)
     0x135C [0x27] REQ_SET(priority=0x03, entity_id=Unknown NPC (ID: 16810211/0x010080E3), tag_num=0x02)
     0x1363 [0x27] REQ_SET(priority=0x03, entity_id=Unknown NPC (ID: 16810213/0x010080E5), tag_num=0x02)
     0x136A [0x27] REQ_SET(priority=0x03, entity_id=Unknown NPC (ID: 16810214/0x010080E6), tag_num=0x02)
     0x1371 [0x1C] WAIT(300* ticks)
     0x1374 [0x32] ExtData[1]->MainSpeed = 40* * 0.1
     0x1377 [0x45] LOAD_SCHEDULED_TASK: Load scheduler "fdo2" with entities [LocalPlayer, LocalPlayer], work=[200*, 0*]
     0x1388 [0x31] UPDATE_ENTITY_POSITION: Set EventEntity goal position to X=550.888*, Z=-550.052*, Y=-1.256*, Time=120*
     0x1392 [0x31] UPDATE_ENTITY_POSITION: Move EventEntity towards goal position
     0x1394 [0x55] WAIT_LOAD_SCHEDULER: Wait for scheduler "fdo2" with entities [LocalPlayer, LocalPlayer], work=200*
     0x13A3 [0x27] REQ_SET(priority=0x03, entity_id=Unknown NPC (ID: 16810209/0x010080E1), tag_num=0x03)
     0x13AA [0x27] REQ_SET(priority=0x03, entity_id=Unknown NPC (ID: 16810211/0x010080E3), tag_num=0x03)
     0x13B1 [0x27] REQ_SET(priority=0x03, entity_id=Unknown NPC (ID: 16810213/0x010080E5), tag_num=0x03)
     0x13B8 [0x27] REQ_SET(priority=0x03, entity_id=Unknown NPC (ID: 16810214/0x010080E6), tag_num=0x03)
     0x13BF [0x37] UPDATE_EVENT_POSITION_AND_DIR: x=553.115*, z=-553.131*, y=-0.700*, direction=37.7°*
     0x13C8 [0x03] ExtData[1]->WorkLocal[34] = 4294962296*
     0x13CD [0x32] ExtData[1]->MainSpeed = 40* * 0.1
     0x13D0 [0x1A] CALL_SUBROUTINE(address=0x11ED)
     0x13D3 [0x37] UPDATE_EVENT_POSITION_AND_DIR: x=ExtData[1]->WorkLocal[35], z=ExtData[1]->WorkLocal[36], y=ExtData[1]->WorkLocal[37], direction=ExtData[1]->WorkLocal[38]
     0x13DC [0x45] LOAD_SCHEDULED_TASK: Load scheduler "back" with entities [LocalPlayer, LocalPlayer], work=[108*, 0*]
     0x13ED [0x1C] WAIT(10* ticks)
     0x13F0 [0x45] LOAD_SCHEDULED_TASK: Load scheduler "fdi1" with entities [LocalPlayer, LocalPlayer], work=[200*, 0*]
     0x1401 [0x1F] MOVE_ENTITY: EventEntity moves to X=553.115*, Z=-553.131*, Y=-0.700*
     0x1409 [0x1F] MOVE_ENTITY: Update entity position (mode=1)
     0x140B [0x6F] WAIT_FRAME_DELAY: Yield until WaitTime reaches zero
     0x140C [0x55] WAIT_LOAD_SCHEDULER: Wait for scheduler "fdi1" with entities [LocalPlayer, LocalPlayer], work=200*
     0x141B [0x1B] RETURN
     0x141C [0x24] CREATE_DIALOG(message_id=7069*, default_option=1*, option_flags=0*)
    → "Leave the battlefield? [Run away./Stay.]"
     0x1423 [0x25] WAIT_DIALOG_SELECT()
     0x1424 [0x02] IF !(Work_Zone[0] == 0*) GOTO 0x1432
     0x142C [0x05] ExtData[1]->WorkLocal[29] = 1
     0x142F [0x01] GOTO 0x1432
     0x1432 [0x1B] RETURN
     0x1433 [0x05] ExtData[1]->WorkLocal[30] = 1
     0x1436 [0x1B] RETURN
     0x1437 [0x46] CAMERA_CONTROL: Disable user control
     0x1439 [0x37] UPDATE_EVENT_POSITION_AND_DIR: x=-626.930*, z=-532.705*, y=-1.616*, direction=15.6°*
     0x1442 [0x45] LOAD_SCHEDULED_TASK: Load scheduler "back" with entities [LocalPlayer, LocalPlayer], work=[108*, 0*]
     0x1453 [0x1C] WAIT(10* ticks)
     0x1456 [0x45] LOAD_SCHEDULED_TASK: Load scheduler "fdi1" with entities [LocalPlayer, LocalPlayer], work=[200*, 0*]
     0x1467 [0x55] WAIT_LOAD_SCHEDULER: Wait for scheduler "fdi1" with entities [LocalPlayer, LocalPlayer], work=200*
     0x1476 [0x27] REQ_SET(priority=0x03, entity_id=Dark Miasma (ID: 16810207/0x010080DF), tag_num=0x04)
     0x147D [0x27] REQ_SET(priority=0x03, entity_id=Dark Miasma (ID: 16810208/0x010080E0), tag_num=0x04)
     0x1484 [0x27] REQ_SET(priority=0x03, entity_id=Dark Miasma (ID: 16810210/0x010080E2), tag_num=0x04)
     0x148B [0x27] REQ_SET(priority=0x03, entity_id=Dark Miasma (ID: 16810212/0x010080E4), tag_num=0x04)
     0x1492 [0x1C] WAIT(120* ticks)
     0x1495 [0x32] ExtData[1]->MainSpeed = 40* * 0.1
     0x1498 [0x45] LOAD_SCHEDULED_TASK: Load scheduler "fdo2" with entities [LocalPlayer, LocalPlayer], work=[200*, 0*]
     0x14A9 [0x31] UPDATE_ENTITY_POSITION: Set EventEntity goal position to X=-615.010*, Z=-538.016*, Y=-1.880*, Time=120*
     0x14B3 [0x31] UPDATE_ENTITY_POSITION: Move EventEntity towards goal position
     0x14B5 [0x55] WAIT_LOAD_SCHEDULER: Wait for scheduler "fdo2" with entities [LocalPlayer, LocalPlayer], work=200*
