# Event 65535

## Metadata

| Field           | Value    |
|-----------------|----------|
| Event Index     | 21/25    |
| Offset          | 0x029E   |
| Data Size       | 58 bytes |
| Calculated Size | 58 bytes |
| Instructions    | 14       |

```
      00 01 02 03 04 05 06 07  08 09 0A 0B 0C 0D 0E 0F
      -- -- -- -- -- -- -- --  -- -- -- -- -- -- -- --
0290:                                            7B F8                {.
02A0: FF FF 7F 1C 35 80 32 36  80 1F 00 37 80 38 80 39  ....5.26...7.8.9
02B0: 80 1F 01 1F 00 3A 80 3B  80 3C 80 1F 01 1F 00 3D  .....:.;.<.....=
02C0: 80 3E 80 3F 80 1F 01 1F  00 40 80 41 80 42 80 1F  .>.?.....@.A.B..
02D0: 01 6F 1E 21 E2 0B 01 00                           .o.!....        
```

## Opcodes

```
  0: 0x029E [0x7B] EventEntity stops talking
  1: 0x02A3 [0x1C] WAIT(90* ticks)
  2: 0x02A6 [0x32] ExtData[1]->MainSpeed = 40* * 0.1
  3: 0x02A9 [0x1F] MOVE_ENTITY: EventEntity moves to X=-49.133*, Z=17.316*, Y=8.999*
  4: 0x02B1 [0x1F] MOVE_ENTITY: Update entity position (mode=1)
  5: 0x02B3 [0x1F] MOVE_ENTITY: EventEntity moves to X=-45.537*, Z=18.472*, Y=8.500*
  6: 0x02BB [0x1F] MOVE_ENTITY: Update entity position (mode=1)
  7: 0x02BD [0x1F] MOVE_ENTITY: EventEntity moves to X=-40.720*, Z=19.975*, Y=7.999*
  8: 0x02C5 [0x1F] MOVE_ENTITY: Update entity position (mode=1)
  9: 0x02C7 [0x1F] MOVE_ENTITY: EventEntity moves to X=-37.826*, Z=20.893*, Y=7.749*
 10: 0x02CF [0x1F] MOVE_ENTITY: Update entity position (mode=1)
 11: 0x02D1 [0x6F] WAIT_FRAME_DELAY: Yield until WaitTime reaches zero
 12: 0x02D2 [0x1E] EventEntity looks at Rahal (ID: 17556001/0x010BE221) and starts talking
 13: 0x02D7 [0x00] END_REQSTACK()
```
