# Event 105

## Metadata

| Field           | Value    |
|-----------------|----------|
| Event Index     | 7/8      |
| Offset          | 0x0006   |
| Data Size       | 48 bytes |
| Calculated Size | 48 bytes |
| Instructions    | 10       |

```
      00 01 02 03 04 05 06 07  08 09 0A 0B 0C 0D 0E 0F
      -- -- -- -- -- -- -- --  -- -- -- -- -- -- -- --
0000:                   2F 00  4B 21 0A 01 4A 4B 21 0A        /.K!..JK!.
0010: 01 F0 FF FF 7F 4E 00 4B  21 0A 01 1C 00 80 4A F0  .....N.K!.....J.
0020: FF FF 7F 4B 21 0A 01 6F  70 6C 4B 21 0A 01 01 80  ...K!..oplK!....
0030: 02 80 1C 03 80 00                                 ......          
```

## Opcodes

```
  0: 0x0006 [0x2F] Stooge Moogle (ID: 17441099/0x010A214B)->Render.Flags0 &= ~0x80000 // Bit 19
  1: 0x000C [0x4A] Stooge Moogle (ID: 17441099/0x010A214B) looks at LocalPlayer
  2: 0x0015 [0x4E] SET_ENTITY_HIDE_FLAG: Show Stooge Moogle (ID: 17441099/0x010A214B)
  3: 0x001B [0x1C] WAIT(20* ticks)
  4: 0x001E [0x4A] LocalPlayer looks at Stooge Moogle (ID: 17441099/0x010A214B)
  5: 0x0027 [0x6F] WAIT_FRAME_DELAY: Yield until WaitTime reaches zero
  6: 0x0028 [0x70] WAIT_ENTITY_RENDER_FLAG: Wait while EventEntity->Render.Flags3 bit 2 is set (cancel turn if not)
  7: 0x0029 [0x6C] FADE_ENTITY_COLOR(entity_id=Stooge Moogle (ID: 17441099/0x010A214B), end_alpha=128*, fade_time=90*)
  8: 0x0032 [0x1C] WAIT(45* ticks)
  9: 0x0035 [0x00] END_REQSTACK()
```
