# Event 65535

## Metadata

| Field           | Value    |
|-----------------|----------|
| Event Index     | 12/18    |
| Offset          | 0x0054   |
| Data Size       | 58 bytes |
| Calculated Size | 58 bytes |
| Instructions    | 11       |

```
      00 01 02 03 04 05 06 07  08 09 0A 0B 0C 0D 0E 0F
      -- -- -- -- -- -- -- --  -- -- -- -- -- -- -- --
0050:             03 00 00 00  80 32 07 80 02 00 00 00      .....2......
0060: 80 00 7B 00 1F 00 08 80  09 80 00 80 1F 01 1F 00  ..{.............
0070: 04 80 05 80 06 80 1F 01  01 5C 00 1C 0A 80 5B 0B  .........\....[.
0080: 80 6B C0 09 01 6B C0 09  01 74 6C 62 30 00        .k...k...tlb0.  
```

## Opcodes

```
  0: 0x0054 [0x03] ExtData[1]->WorkLocal[0] = 0*
  1: 0x0059 [0x32] ExtData[1]->MainSpeed = 13* * 0.1
  2: 0x005C [0x02] IF !(ExtData[1]->WorkLocal[0] == 0*) GOTO 0x007B
  3: 0x0064 [0x1F] MOVE_ENTITY: EventEntity moves to X=3.663*, Z=0.535*, Y=0.000*
  4: 0x006C [0x1F] MOVE_ENTITY: Update entity position (mode=1)
  5: 0x006E [0x1F] MOVE_ENTITY: EventEntity moves to X=2.576*, Z=-1.072*, Y=-0.252*
  6: 0x0076 [0x1F] MOVE_ENTITY: Update entity position (mode=1)
  7: 0x0078 [0x01] GOTO 0x005C
  8: 0x007B [0x1C] WAIT(15* ticks)
  9: 0x007E [0x5B] LOAD_EXT_SCHEDULER: Load scheduler "tlb0" with entities [Cait Sith (ID: 17416299/0x0109C06B), Cait Sith (ID: 17416299/0x0109C06B)], work=1414*
 10: 0x008D [0x00] END_REQSTACK()
```
