# Event 1049

## Metadata

| Field           | Value    |
|-----------------|----------|
| Event Index     | 4/10     |
| Offset          | 0x0370   |
| Data Size       | 56 bytes |
| Calculated Size | 56 bytes |
| Instructions    | 11       |

```
      00 01 02 03 04 05 06 07  08 09 0A 0B 0C 0D 0E 0F
      -- -- -- -- -- -- -- --  -- -- -- -- -- -- -- --
0370: 4A 2D D0 0E 01 F0 FF FF  7F 6F 76 2D D0 0E 01 02  J-.......ov-....
0380: 02 10 10 80 00 A6 03 66  08 80 2D D0 0E 01 2D D0  .......f..-...-.
0390: 0E 01 74 77 61 30 2B 2D  D0 0E 01 11 80 23 2B 2D  ..twa0+-.....#+-
03A0: D0 0E 01 12 80 23 21 00                           .....#!.        
```

## Opcodes

```
  0: 0x0370 [0x4A] Naji (ID: 17748013/0x010ED02D) looks at LocalPlayer
  1: 0x0379 [0x6F] WAIT_FRAME_DELAY: Yield until WaitTime reaches zero
  2: 0x037A [0x76] CHECK_ENTITY_RENDER_FLAGS: Wait until Naji (ID: 17748013/0x010ED02D) Render.Flags0 and Render.Flags3 conditions are met
  3: 0x037F [0x02] IF !(Work_Zone[2] == 270*) GOTO 0x03A6
  4: 0x0387 [0x66] LOAD_EXT_SCHEDULER_MAIN: Load scheduler "twa0" with entities [Naji (ID: 17748013/0x010ED02D), Naji (ID: 17748013/0x010ED02D)], work=9*
  5: 0x0396 [0x2B] Naji (ID: 17748013/0x010ED02D) [11385*]:
    → "You needn't worry. I tended to the wounds of those injured in the mines.\u007F1\u0000\u0007"
  6: 0x039D [0x23] WAIT_FOR_DIALOG_INTERACTION
  7: 0x039E [0x2B] Naji (ID: 17748013/0x010ED02D) [11386*]:
    → "As a musketeer, I'm well-trained in the art of healing.\u0007Plus, I've had more than my fair share of injuries over the years, which has given me plenty of practice in the field.\u007F1\u0000\u0007"
  8: 0x03A5 [0x23] WAIT_FOR_DIALOG_INTERACTION
  9: 0x03A6 [0x21] END_EVENT
 10: 0x03A7 [0x00] END_REQSTACK()
```
