# Event 10059

## Metadata

| Field           | Value    |
|-----------------|----------|
| Event Index     | 16/17    |
| Offset          | 0x01F4   |
| Data Size       | 44 bytes |
| Calculated Size | 44 bytes |
| Instructions    | 12       |

```
      00 01 02 03 04 05 06 07  08 09 0A 0B 0C 0D 0E 0F
      -- -- -- -- -- -- -- --  -- -- -- -- -- -- -- --
01F0:             1E F0 FF FF  7F 6F 76 F8 FF FF 7F 66      .....ov....f
0200: 09 80 F8 FF FF 7F F8 FF  FF 7F 74 6C 6B 30 1D 1B  ..........tlk0..
0210: 80 23 1D 1C 80 23 5E 69  64 6C 30 1C 09 80 21 00  .#...#^idl0...!.
```

## Opcodes

```
  0: 0x01F4 [0x1E] EventEntity looks at LocalPlayer and starts talking
  1: 0x01F9 [0x6F] WAIT_FRAME_DELAY: Yield until WaitTime reaches zero
  2: 0x01FA [0x76] CHECK_ENTITY_RENDER_FLAGS: Wait until EventEntity Render.Flags0 and Render.Flags3 conditions are met
  3: 0x01FF [0x66] LOAD_EXT_SCHEDULER_MAIN(work_offset=60*, entity1=EventEntity, entity2=EventEntity, action="tlk0")
  4: 0x020E [0x1D] PRINT_EVENT_MESSAGE(message_id=9511*)
    → "The boss sure is cheerful these days.\u0007He was putting on a show before so we wouldn't worry, but I've known him too long to fall for that.\u007F1\u0000\u0007"
  5: 0x0211 [0x23] WAIT_FOR_DIALOG_INTERACTION
  6: 0x0212 [0x1D] PRINT_EVENT_MESSAGE(message_id=9512*)
    → "He won't say anything about what happened. But that spark is back in his eye, and that's enough for me! Things are about to get interesting!\u007F1\u0000\u0007"
  7: 0x0215 [0x23] WAIT_FOR_DIALOG_INTERACTION
  8: 0x0216 [0x5E] EventEntity goes idle (kills current action) (animation: "idl0")
  9: 0x021B [0x1C] WAIT(60* ticks)
 10: 0x021E [0x21] END_EVENT
 11: 0x021F [0x00] END_REQSTACK()
```
