# Event 166

## Metadata

| Field           | Value    |
|-----------------|----------|
| Event Index     | 8/17     |
| Offset          | 0x00D0   |
| Data Size       | 60 bytes |
| Calculated Size | 60 bytes |
| Instructions    | 13       |

```
      00 01 02 03 04 05 06 07  08 09 0A 0B 0C 0D 0E 0F
      -- -- -- -- -- -- -- --  -- -- -- -- -- -- -- --
00D0: 20 01 42 1E F0 FF FF 7F  6F 76 F8 FF FF 7F 66 09   .B.....ov....f.
00E0: 80 F8 FF FF 7F F8 FF FF  7F 74 6C 6B 30 1D 12 80  .........tlk0...
00F0: 23 45 13 80 F0 FF FF 7F  F0 FF FF 7F 71 73 74 63  #E..........qstc
0100: 14 80 5E 69 64 6C 30 1C  09 80 21 00              ..^idl0...!.    
```

## Opcodes

```
  0: 0x00D0 [0x20] SET_CLI_EVENT_UC_FLAG: Lock player control
  1: 0x00D2 [0x42] SET_CLI_EVENT_CANCEL_DATA()
  2: 0x00D3 [0x1E] EventEntity looks at LocalPlayer and starts talking
  3: 0x00D8 [0x6F] WAIT_FRAME_DELAY: Yield until WaitTime reaches zero
  4: 0x00D9 [0x76] CHECK_ENTITY_RENDER_FLAGS: Wait until EventEntity Render.Flags0 and Render.Flags3 conditions are met
  5: 0x00DE [0x66] LOAD_EXT_SCHEDULER_MAIN(work_offset=60*, entity1=EventEntity, entity2=EventEntity, action="tlk0")
  6: 0x00ED [0x1D] PRINT_EVENT_MESSAGE(message_id=7680*)
    → "Well, look what we have here... Alrighty, here you go, pal!\u007F1\u0000\u0007"
  7: 0x00F0 [0x23] WAIT_FOR_DIALOG_INTERACTION
  8: 0x00F1 [0x45] LOAD_SCHEDULED_TASK(work_offset1=201*, entity1=LocalPlayer, entity2=LocalPlayer, scheduler_id="qstc", work_offset2=0*)
  9: 0x0102 [0x5E] EventEntity goes idle (kills current action) (animation: "idl0")
 10: 0x0107 [0x1C] WAIT(60* ticks)
 11: 0x010A [0x21] END_EVENT
 12: 0x010B [0x00] END_REQSTACK()
```
