# Event 168

## Metadata

| Field           | Value    |
|-----------------|----------|
| Event Index     | 6/17     |
| Offset          | 0x0069   |
| Data Size       | 45 bytes |
| Calculated Size | 45 bytes |
| Instructions    | 11       |

```
      00 01 02 03 04 05 06 07  08 09 0A 0B 0C 0D 0E 0F
      -- -- -- -- -- -- -- --  -- -- -- -- -- -- -- --
0060:                             03 08 10 0C 80 1E F0           .......
0070: FF FF 7F 6F 76 F8 FF FF  7F 66 09 80 F8 FF FF 7F  ...ov....f......
0080: F8 FF FF 7F 74 6C 6B 30  1D 0D 80 23 5E 69 64 6C  ....tlk0...#^idl
0090: 30 1C 09 80 21 00                                 0...!.          
```

## Opcodes

```
  0: 0x0069 [0x03] Work_Zone[8] = 19*
  1: 0x006E [0x1E] EventEntity looks at LocalPlayer and starts talking
  2: 0x0073 [0x6F] WAIT_FRAME_DELAY: Yield until WaitTime reaches zero
  3: 0x0074 [0x76] CHECK_ENTITY_RENDER_FLAGS: Wait until EventEntity Render.Flags0 and Render.Flags3 conditions are met
  4: 0x0079 [0x66] LOAD_EXT_SCHEDULER_MAIN(work_offset=60*, entity1=EventEntity, entity2=EventEntity, action="tlk0")
  5: 0x0088 [0x1D] PRINT_EVENT_MESSAGE(message_id=7676*)
    → "Oh, you want \u0001\u00056\u0002\u0006\u0000\u0000, do ya? Sorry, but we ain't comfortable doin' business with ya. Come back once you've made a name for yourself.\u007F1\u0000\u0007"
  6: 0x008B [0x23] WAIT_FOR_DIALOG_INTERACTION
  7: 0x008C [0x5E] EventEntity goes idle (kills current action) (animation: "idl0")
  8: 0x0091 [0x1C] WAIT(60* ticks)
  9: 0x0094 [0x21] END_EVENT
 10: 0x0095 [0x00] END_REQSTACK()
```
