# Event 173

## Metadata

| Field           | Value    |
|-----------------|----------|
| Event Index     | 11/17    |
| Offset          | 0x015C   |
| Data Size       | 44 bytes |
| Calculated Size | 44 bytes |
| Instructions    | 12       |

```
      00 01 02 03 04 05 06 07  08 09 0A 0B 0C 0D 0E 0F
      -- -- -- -- -- -- -- --  -- -- -- -- -- -- -- --
0150:                                      1E F0 FF FF              ....
0160: 7F 6F 76 F8 FF FF 7F 66  09 80 F8 FF FF 7F F8 FF  .ov....f........
0170: FF 7F 74 6C 6B 30 1D 17  80 23 1D 18 80 23 5E 69  ..tlk0...#...#^i
0180: 64 6C 30 1C 09 80 21 00                           dl0...!.        
```

## Opcodes

```
  0: 0x015C [0x1E] EventEntity looks at LocalPlayer and starts talking
  1: 0x0161 [0x6F] WAIT_FRAME_DELAY: Yield until WaitTime reaches zero
  2: 0x0162 [0x76] CHECK_ENTITY_RENDER_FLAGS: Wait until EventEntity Render.Flags0 and Render.Flags3 conditions are met
  3: 0x0167 [0x66] LOAD_EXT_SCHEDULER_MAIN(work_offset=60*, entity1=EventEntity, entity2=EventEntity, action="tlk0")
  4: 0x0176 [0x1D] PRINT_EVENT_MESSAGE(message_id=7683*)
    → "I couldn't believe it when Boss came back carrying Lady Verena. He looked like he had been run over by a stampede of chocobos.\u007F1\u0000\u0007"
  5: 0x0179 [0x23] WAIT_FOR_DIALOG_INTERACTION
  6: 0x017A [0x1D] PRINT_EVENT_MESSAGE(message_id=7684*)
    → "I wonder what the hell happened up there at Delkfutt's Tower... No, on second thought, don't tell me. I don't want to know.\u007F1\u0000\u0007"
  7: 0x017D [0x23] WAIT_FOR_DIALOG_INTERACTION
  8: 0x017E [0x5E] EventEntity goes idle (kills current action) (animation: "idl0")
  9: 0x0183 [0x1C] WAIT(60* ticks)
 10: 0x0186 [0x21] END_EVENT
 11: 0x0187 [0x00] END_REQSTACK()
```
