# Event 65535

## Metadata

| Field           | Value    |
|-----------------|----------|
| Event Index     | 4/5      |
| Offset          | 0x005F   |
| Data Size       | 70 bytes |
| Calculated Size | 70 bytes |
| Instructions    | 6        |

```
      00 01 02 03 04 05 06 07  08 09 0A 0B 0C 0D 0E 0F
      -- -- -- -- -- -- -- --  -- -- -- -- -- -- -- --
0050:                                               45                 E
0060: 00 80 F0 FF FF 7F F0 FF  FF 7F 73 30 34 36 01 80  ..........s046..
0070: 1C 02 80 52 00 80 F0 FF  FF 7F F0 FF FF 7F 73 30  ...R..........s0
0080: 34 36 45 02 80 F0 FF FF  7F F0 FF FF 7F 6F 76 6C  46E..........ovl
0090: 31 01 80 45 00 80 F0 FF  FF 7F F0 FF FF 7F 73 30  1..E..........s0
00A0: 34 37 01 80 00                                    47...           
```

## Opcodes

```
  0: 0x005F [0x45] LOAD_SCHEDULED_TASK: Load scheduler "s046" with entities [LocalPlayer, LocalPlayer], work=[150*, 0*]
  1: 0x0070 [0x1C] WAIT(200* ticks)
  2: 0x0073 [0x52] END_LOAD_SCHEDULER: End scheduler "s046" with entities [LocalPlayer, LocalPlayer], work=150*
  3: 0x0082 [0x45] LOAD_SCHEDULED_TASK: Load scheduler "ovl1" with entities [LocalPlayer, LocalPlayer], work=[200*, 0*]
  4: 0x0093 [0x45] LOAD_SCHEDULED_TASK: Load scheduler "s047" with entities [LocalPlayer, LocalPlayer], work=[150*, 0*]
  5: 0x00A4 [0x00] END_REQSTACK()
```
