# Event 558

## Metadata

| Field           | Value    |
|-----------------|----------|
| Event Index     | 7/8      |
| Offset          | 0x0264   |
| Data Size       | 55 bytes |
| Calculated Size | 55 bytes |
| Instructions    | 13       |

```
      00 01 02 03 04 05 06 07  08 09 0A 0B 0C 0D 0E 0F
      -- -- -- -- -- -- -- --  -- -- -- -- -- -- -- --
0260:             42 20 01 1E  F0 FF FF 7F 6F 70 66 00      B ......opf.
0270: 80 F8 FF FF 7F F8 FF FF  7F 74 6C 6B 30 1D 1C 80  .........tlk0...
0280: 23 5E 69 64 6C 30 45 1B  80 F0 FF FF 7F F0 FF FF  #^idl0E.........
0290: 7F 71 73 74 63 03 80 20  00 21 00                 .qstc.. .!.     
```

## Opcodes

```
  0: 0x0264 [0x42] SET_CLI_EVENT_CANCEL_DATA()
  1: 0x0265 [0x20] SET_CLI_EVENT_UC_FLAG: Lock player control
  2: 0x0267 [0x1E] EventEntity looks at LocalPlayer and starts talking
  3: 0x026C [0x6F] WAIT_FRAME_DELAY: Yield until WaitTime reaches zero
  4: 0x026D [0x70] WAIT_ENTITY_RENDER_FLAG: Wait while EventEntity->Render.Flags3 bit 2 is set (cancel turn if not)
  5: 0x026E [0x66] LOAD_EXT_SCHEDULER_MAIN: Load scheduler "tlk0" with entities [EventEntity, EventEntity], work=30*
  6: 0x027D [0x1D] PRINT_EVENT_MESSAGE(message_id=7922*)
    → "I thank you, kind adventurer. His Majesty, the late king, thanks you, too.\u007F1\u0000\u0007"
  7: 0x0280 [0x23] WAIT_FOR_DIALOG_INTERACTION
  8: 0x0281 [0x5E] EventEntity goes idle (kills current action) (animation: "idl0")
  9: 0x0286 [0x45] LOAD_SCHEDULED_TASK: Load scheduler "qstc" with entities [LocalPlayer, LocalPlayer], work=[201*, 0*]
 10: 0x0297 [0x20] SET_CLI_EVENT_UC_FLAG: Unlock player control
 11: 0x0299 [0x21] END_EVENT
 12: 0x029A [0x00] END_REQSTACK()
```
