# Event 623

## Metadata

| Field           | Value    |
|-----------------|----------|
| Event Index     | 5/8      |
| Offset          | 0x01F7   |
| Data Size       | 43 bytes |
| Calculated Size | 43 bytes |
| Instructions    | 13       |

```
      00 01 02 03 04 05 06 07  08 09 0A 0B 0C 0D 0E 0F
      -- -- -- -- -- -- -- --  -- -- -- -- -- -- -- --
01F0:                      1E  F0 FF FF 7F 6F 70 66 00         .....opf.
0200: 80 F8 FF FF 7F F8 FF FF  7F 74 6C 6B 30 1D 18 80  .........tlk0...
0210: 23 1C 00 80 1D 17 80 23  5E 69 64 6C 30 1C 00 80  #......#^idl0...
0220: 21 00                                             !.              
```

## Opcodes

```
  0: 0x01F7 [0x1E] EventEntity looks at LocalPlayer and starts talking
  1: 0x01FC [0x6F] WAIT_FRAME_DELAY: Yield until WaitTime reaches zero
  2: 0x01FD [0x70] WAIT_ENTITY_RENDER_FLAG: Wait while EventEntity->Render.Flags3 bit 2 is set (cancel turn if not)
  3: 0x01FE [0x66] LOAD_EXT_SCHEDULER_MAIN(work_offset=30*, entity1=EventEntity, entity2=EventEntity, action="tlk0")
  4: 0x020D [0x1D] PRINT_EVENT_MESSAGE(message_id=7917*)
    → "Take the waterskin from gravestone in King Ranperre's Tomb, fill it in Southern San d'Oria, then return it to the tomb.\u007F1\u0000\u0007"
  5: 0x0210 [0x23] WAIT_FOR_DIALOG_INTERACTION
  6: 0x0211 [0x1C] WAIT(30* ticks)
  7: 0x0214 [0x1D] PRINT_EVENT_MESSAGE(message_id=7915*)
    → "Consider it penance for losing the waterskin I gave you. Agreed? I bid you a safe journey.\u007F1\u0000\u0007"
  8: 0x0217 [0x23] WAIT_FOR_DIALOG_INTERACTION
  9: 0x0218 [0x5E] EventEntity goes idle (kills current action) (animation: "idl0")
 10: 0x021D [0x1C] WAIT(30* ticks)
 11: 0x0220 [0x21] END_EVENT
 12: 0x0221 [0x00] END_REQSTACK()
```
