# Event 8

## Metadata

| Field           | Value    |
|-----------------|----------|
| Event Index     | 3/6      |
| Offset          | 0x00B8   |
| Data Size       | 54 bytes |
| Calculated Size | 54 bytes |
| Instructions    | 13       |

```
      00 01 02 03 04 05 06 07  08 09 0A 0B 0C 0D 0E 0F
      -- -- -- -- -- -- -- --  -- -- -- -- -- -- -- --
00B0:                          20 01 42 1E F0 FF FF 7F           .B.....
00C0: 1C 15 80 66 05 80 F8 FF  FF 7F F8 FF FF 7F 70 61  ...f..........pa
00D0: 73 30 03 09 10 01 80 1D  16 80 23 1D 17 80 23 53  s0........#...#S
00E0: F8 FF FF 7F F8 FF FF 7F  70 61 73 30 21 00        ........pas0!.  
```

## Opcodes

```
  0: 0x00B8 [0x20] SET_CLI_EVENT_UC_FLAG: Lock player control
  1: 0x00BA [0x42] SET_CLI_EVENT_CANCEL_DATA()
  2: 0x00BB [0x1E] EventEntity looks at LocalPlayer and starts talking
  3: 0x00C0 [0x1C] WAIT(20* ticks)
  4: 0x00C3 [0x66] LOAD_EXT_SCHEDULER_MAIN: Load scheduler "pas0" with entities [EventEntity, EventEntity], work=10*
  5: 0x00D2 [0x03] Work_Zone[9] = 536*
  6: 0x00D7 [0x1D] PRINT_EVENT_MESSAGE(message_id=7029*)
    → "\u007F\u0000\u0001\u0001\u0001\u0001 \u0001\u0005$\u0002\u0007\u0000\u0000, good.\u0007Here is your starting gil.\u007F1\u0000\u0007"
  7: 0x00DA [0x23] WAIT_FOR_DIALOG_INTERACTION
  8: 0x00DB [0x1D] PRINT_EVENT_MESSAGE(message_id=7032*)
    → "You would do well to speak with a man named Gulldago. You can find him by the West Gate in Bastok Markets.\u007F1\u0000\u0007"
  9: 0x00DE [0x23] WAIT_FOR_DIALOG_INTERACTION
 10: 0x00DF [0x53] WAIT_SCHEDULER_TASK: Wait for scheduler "pas0" with entities [EventEntity, EventEntity]
 11: 0x00EC [0x21] END_EVENT
 12: 0x00ED [0x00] END_REQSTACK()
```
