# Event 65535

## Metadata

| Field           | Value    |
|-----------------|----------|
| Event Index     | 63/67    |
| Offset          | 0x037E   |
| Data Size       | 66 bytes |
| Calculated Size | 66 bytes |
| Instructions    | 11       |

```
      00 01 02 03 04 05 06 07  08 09 0A 0B 0C 0D 0E 0F
      -- -- -- -- -- -- -- --  -- -- -- -- -- -- -- --
0370:                                            32 0B                2.
0380: 80 1F 00 0F 80 10 80 09  80 1F 01 6F 4B F8 FF FF  ...........oK...
0390: 7F 11 80 6F 76 F8 FF FF  7F 79 00 F8 FF FF 7F F0  ...ov....y......
03A0: FF FF 7F 66 01 80 F8 FF  FF 7F F8 FF FF 7F 77 61  ...f..........wa
03B0: 76 30 53 F8 FF FF 7F F8  FF FF 7F 77 61 76 30 00  v0S........wav0.
```

## Opcodes

```
  0: 0x037E [0x32] ExtData[1]->MainSpeed = 13* * 0.1
  1: 0x0381 [0x1F] MOVE_ENTITY: EventEntity moves to X=-0.990*, Z=0.215*, Y=0.000*
  2: 0x0389 [0x1F] MOVE_ENTITY: Update entity position (mode=1)
  3: 0x038B [0x6F] WAIT_FRAME_DELAY: Yield until WaitTime reaches zero
  4: 0x038C [0x4B] UPDATE_ENTITY_YAW(entity=EventEntity, yaw=23.07°*)
  5: 0x0393 [0x6F] WAIT_FRAME_DELAY: Yield until WaitTime reaches zero
  6: 0x0394 [0x76] CHECK_ENTITY_RENDER_FLAGS: Wait until EventEntity Render.Flags0 and Render.Flags3 conditions are met
  7: 0x0399 [0x79] EventEntity looks at LocalPlayer (Basic look)
  8: 0x03A3 [0x66] LOAD_EXT_SCHEDULER_MAIN: Load scheduler "wav0" with entities [EventEntity, EventEntity], work=52*
  9: 0x03B2 [0x53] WAIT_SCHEDULER_TASK: Wait for scheduler "wav0" with entities [EventEntity, EventEntity]
 10: 0x03BF [0x00] END_REQSTACK()
```
