# Event 102

## Metadata

| Field           | Value    |
|-----------------|----------|
| Event Index     | 12/62    |
| Offset          | 0x0073   |
| Data Size       | 41 bytes |
| Calculated Size | 41 bytes |
| Instructions    | 13       |

```
      00 01 02 03 04 05 06 07  08 09 0A 0B 0C 0D 0E 0F
      -- -- -- -- -- -- -- --  -- -- -- -- -- -- -- --
0070:          4A F8 FF FF 7F  F0 FF FF 7F 6F 76 F8 FF     J........ov..
0080: FF 7F 1D 10 80 23 7C 00  91 00 10 01 1D 11 80 23  .....#|........#
0090: 7C 01 91 00 10 01 1D 12  80 23 21 00              |........#!.    
```

## Opcodes

```
  0: 0x0073 [0x4A] EventEntity looks at LocalPlayer
  1: 0x007C [0x6F] WAIT_FRAME_DELAY: Yield until WaitTime reaches zero
  2: 0x007D [0x76] CHECK_ENTITY_RENDER_FLAGS: Wait until EventEntity Render.Flags0 and Render.Flags3 conditions are met
  3: 0x0082 [0x1D] PRINT_EVENT_MESSAGE(message_id=8498*)
    → "We need information more than anything else--no use going in blind. You might be able to find out something at the Mummers' Coalition, what with all the pioneers coming and going.\u007F1\u0000\u0007"
  4: 0x0085 [0x23] WAIT_FOR_DIALOG_INTERACTION
  5: 0x0086 [0x7C] Levil (ID: 17825937/0x01100091)->Render.Flags2 |= 0x00
  6: 0x008C [0x1D] PRINT_EVENT_MESSAGE(message_id=8499*)
    → "(Not like I can say for sure...)\u007F1\u0000\u0007"
  7: 0x008F [0x23] WAIT_FOR_DIALOG_INTERACTION
  8: 0x0090 [0x7C] Levil (ID: 17825937/0x01100091)->Render.Flags2 |= 0x01
  9: 0x0096 [0x1D] PRINT_EVENT_MESSAGE(message_id=8500*)
    → "Hmm? Oh, pay my ramblings no heed. Goddessspeed, \u0008!\u007F1\u0000\u0007"
 10: 0x0099 [0x23] WAIT_FOR_DIALOG_INTERACTION
 11: 0x009A [0x21] END_EVENT
 12: 0x009B [0x00] END_REQSTACK()
```
