# Event 103

## Metadata

| Field           | Value    |
|-----------------|----------|
| Event Index     | 13/62    |
| Offset          | 0x009C   |
| Data Size       | 29 bytes |
| Calculated Size | 29 bytes |
| Instructions    | 11       |

```
      00 01 02 03 04 05 06 07  08 09 0A 0B 0C 0D 0E 0F
      -- -- -- -- -- -- -- --  -- -- -- -- -- -- -- --
0090:                                      4A F8 FF FF              J...
00A0: 7F F0 FF FF 7F 6F 76 F8  FF FF 7F 1D 13 80 23 1D  .....ov.......#.
00B0: 14 80 23 1D 15 80 23 21  00                       ..#...#!.       
```

## Opcodes

```
  0: 0x009C [0x4A] EventEntity looks at LocalPlayer
  1: 0x00A5 [0x6F] WAIT_FRAME_DELAY: Yield until WaitTime reaches zero
  2: 0x00A6 [0x76] CHECK_ENTITY_RENDER_FLAGS: Wait until EventEntity Render.Flags0 and Render.Flags3 conditions are met
  3: 0x00AB [0x1D] PRINT_EVENT_MESSAGE(message_id=8553*)
    → "She guards it like a protective mother would guard her son. Never once has anyone seen her without it.\u007F1\u0000\u0007"
  4: 0x00AE [0x23] WAIT_FOR_DIALOG_INTERACTION
  5: 0x00AF [0x1D] PRINT_EVENT_MESSAGE(message_id=8557*)
    → "Not that I expect her to give it up like some piece of hard candy, but if you want to try, you can find the princess in Castle Adoulin.\u007F1\u0000\u0007"
  6: 0x00B2 [0x23] WAIT_FOR_DIALOG_INTERACTION
  7: 0x00B3 [0x1D] PRINT_EVENT_MESSAGE(message_id=8558*)
    → "Sure, it might be like wringing blood from a stone, but it's at least worth a shot! It's the only way to figure out what's going wrong with the land!\u007F1\u0000\u0007"
  8: 0x00B6 [0x23] WAIT_FOR_DIALOG_INTERACTION
  9: 0x00B7 [0x21] END_EVENT
 10: 0x00B8 [0x00] END_REQSTACK()
```
