# Event 127

## Metadata

| Field           | Value    |
|-----------------|----------|
| Event Index     | 18/62    |
| Offset          | 0x00F5   |
| Data Size       | 45 bytes |
| Calculated Size | 45 bytes |
| Instructions    | 11       |

```
      00 01 02 03 04 05 06 07  08 09 0A 0B 0C 0D 0E 0F
      -- -- -- -- -- -- -- --  -- -- -- -- -- -- -- --
00F0:                4A F8 FF  FF 7F F0 FF FF 7F 6F 76       J........ov
0100: F8 FF FF 7F 2B 91 00 10  01 19 80 23 7C 00 91 00  ....+......#|...
0110: 10 01 2B 91 00 10 01 1A  80 23 7C 01 91 00 10 01  ..+......#|.....
0120: 21 00                                             !.              
```

## Opcodes

```
  0: 0x00F5 [0x4A] EventEntity looks at LocalPlayer
  1: 0x00FE [0x6F] WAIT_FRAME_DELAY: Yield until WaitTime reaches zero
  2: 0x00FF [0x76] CHECK_ENTITY_RENDER_FLAGS: Wait until EventEntity Render.Flags0 and Render.Flags3 conditions are met
  3: 0x0104 [0x2B] Levil (ID: 17825937/0x01100091) [8559*]:
    → "So, hey...there've been rumors you were spotted together with Arciela in the jungle.\u0007(For Altana's sake, didn't I tell \u007F\u0005[him/her] to find Arciela at the castle, not by traipsing about Ulbuka?)\u007F1\u0000\u0007"
  4: 0x010B [0x23] WAIT_FOR_DIALOG_INTERACTION
  5: 0x010C [0x7C] Levil (ID: 17825937/0x01100091)->Render.Flags2 |= 0x00
  6: 0x0112 [0x2B] Levil (ID: 17825937/0x01100091) [8560*]:
    → "Well, that'll teach me to go sticking my nose into things. Just go along with your business.\u007F1\u0000\u0007"
  7: 0x0119 [0x23] WAIT_FOR_DIALOG_INTERACTION
  8: 0x011A [0x7C] Levil (ID: 17825937/0x01100091)->Render.Flags2 |= 0x01
  9: 0x0120 [0x21] END_EVENT
 10: 0x0121 [0x00] END_REQSTACK()
```
