# Event 40

## Metadata

| Field           | Value    |
|-----------------|----------|
| Event Index     | 9/62     |
| Offset          | 0x0026   |
| Data Size       | 40 bytes |
| Calculated Size | 40 bytes |
| Instructions    | 13       |

```
      00 01 02 03 04 05 06 07  08 09 0A 0B 0C 0D 0E 0F
      -- -- -- -- -- -- -- --  -- -- -- -- -- -- -- --
0020:                   4A F8  FF FF 7F F0 FF FF 7F 6F        J........o
0030: 76 F8 FF FF 7F 02 03 10  07 80 04 48 00 1D 08 80  v..........H....
0040: 23 1D 09 80 23 01 4C 00  1D 0A 80 23 21 00        #...#.L....#!.  
```

## Opcodes

```
  0: 0x0026 [0x4A] EventEntity looks at LocalPlayer
  1: 0x002F [0x6F] WAIT_FRAME_DELAY: Yield until WaitTime reaches zero
  2: 0x0030 [0x76] CHECK_ENTITY_RENDER_FLAGS: Wait until EventEntity Render.Flags0 and Render.Flags3 conditions are met
  3: 0x0035 [0x02] IF !(Work_Zone[3] < 1*) GOTO 0x0048
  4: 0x003D [0x1D] PRINT_EVENT_MESSAGE(message_id=8462*)
    → "Maybe this is all in a day's work for you adventurers? I guess you've been lassoing Vana'diel's wildest afore the first bison drive.\u007F1\u0000\u0007"
  5: 0x0040 [0x23] WAIT_FOR_DIALOG_INTERACTION
  6: 0x0041 [0x1D] PRINT_EVENT_MESSAGE(message_id=8463*)
    → "Travelers've told many a tall tale about your exploits. I guess they weren't so tall after all...\u007F1\u0000\u0007"
  7: 0x0044 [0x23] WAIT_FOR_DIALOG_INTERACTION
  8: 0x0045 [0x01] GOTO 0x004C

SUBROUTINE_0048:
  9: 0x0048 [0x1D] PRINT_EVENT_MESSAGE(message_id=8471*)
    → "You already adjusted to life on the good ol' Adoulin ranch? Hope so, because we're lookin' for you to wrangle us some big'uns, \u007F\u0005[sonny/missy].\u007F1\u0000\u0007"
 10: 0x004B [0x23] WAIT_FOR_DIALOG_INTERACTION
 11: 0x004C [0x21] END_EVENT
 12: 0x004D [0x00] END_REQSTACK()
```
