# Event 65535

## Metadata

| Field           | Value    |
|-----------------|----------|
| Event Index     | 55/62    |
| Offset          | 0x0307   |
| Data Size       | 96 bytes |
| Calculated Size | 96 bytes |
| Instructions    | 18       |

```
      00 01 02 03 04 05 06 07  08 09 0A 0B 0C 0D 0E 0F
      -- -- -- -- -- -- -- --  -- -- -- -- -- -- -- --
0300:                      13  00 00 3F 80 14 00 00 40         ...?....@
0310: 80 07 00 00 41 80 1C 00  00 13 00 00 42 80 02 00  ....A.......B...
0320: 00 43 80 80 35 03 6E F8  FF FF 7F 44 80 99 F8 FF  .C..5.n....D....
0330: FF 7F 01 63 03 02 00 00  07 80 80 4C 03 6E F8 FF  ...c.......L.n..
0340: FF 7F 45 80 99 F8 FF FF  7F 01 63 03 02 00 00 42  ..E.......c....B
0350: 80 80 63 03 6E F8 FF FF  7F 3E 80 99 F8 FF FF 7F  ..c.n....>......
0360: 01 63 03 01 07 03 00                              .c.....         
```

## Opcodes

```
  0: 0x0307 [0x13] ExtData[1]->WorkLocal[0] = rand() % 5*
  1: 0x030C [0x14] ExtData[1]->WorkLocal[0] *= 60*
  2: 0x0311 [0x07] ExtData[1]->WorkLocal[0] += 300*
  3: 0x0316 [0x1C] WAIT(ExtData[1]->WorkLocal[0] ticks)
  4: 0x0319 [0x13] ExtData[1]->WorkLocal[0] = rand() % 2*
  5: 0x031E [0x02] IF !(ExtData[1]->WorkLocal[0] == 0*) GOTO 0x0335
  6: 0x0326 [0x6E] EventEntity uses emote 16*
  7: 0x032D [0x99] Wait for EventEntity animation to complete
  8: 0x0332 [0x01] GOTO 0x0363
  9: 0x0335 [0x02] IF !(ExtData[1]->WorkLocal[0] == 1*) GOTO 0x034C
 10: 0x033D [0x6E] EventEntity uses emote 12*
 11: 0x0344 [0x99] Wait for EventEntity animation to complete
 12: 0x0349 [0x01] GOTO 0x0363
 13: 0x034C [0x02] IF !(ExtData[1]->WorkLocal[0] == 2*) GOTO 0x0363
 14: 0x0354 [0x6E] EventEntity uses emote 4*
 15: 0x035B [0x99] Wait for EventEntity animation to complete
 16: 0x0360 [0x01] GOTO 0x0363

SUBROUTINE_0363:
 17: 0x0363 [0x01] GOTO 0x0307
```

## Data or dead code:

```
# Dead code (unreachable instructions):
     0x0366 [0x00] END_REQSTACK()
```