# Event 120

## Metadata

| Field           | Value    |
|-----------------|----------|
| Event Index     | 32/105   |
| Offset          | 0x0524   |
| Data Size       | 47 bytes |
| Calculated Size | 47 bytes |
| Instructions    | 9        |

```
      00 01 02 03 04 05 06 07  08 09 0A 0B 0C 0D 0E 0F
      -- -- -- -- -- -- -- --  -- -- -- -- -- -- -- --
0520:             29 0B F0 FF  FF 7F 2B 4A F0 FF FF 7F      ).....+J....
0530: 10 10 0F 01 4A 11 10 0F  01 F0 FF FF 7F 6F 76 11  ....J........ov.
0540: 10 0F 01 4A 12 10 0F 01  F0 FF FF 7F 6F 76 12 10  ...J........ov..
0550: 0F 01 00                                          ...             
```

## Opcodes

```
  0: 0x0524 [0x29] REQ_SET_WAIT(priority=0x0B, entity_id=LocalPlayer, tag_num=0x2B)
  1: 0x052B [0x4A] LocalPlayer looks at Rakoh Buuma (ID: 17764368/0x010F1010)
  2: 0x0534 [0x4A] Tih Pikeh (ID: 17764369/0x010F1011) looks at LocalPlayer
  3: 0x053D [0x6F] WAIT_FRAME_DELAY: Yield until WaitTime reaches zero
  4: 0x053E [0x76] CHECK_ENTITY_RENDER_FLAGS: Wait until Tih Pikeh (ID: 17764369/0x010F1011) Render.Flags0 and Render.Flags3 conditions are met
  5: 0x0543 [0x4A] Sola Jaab (ID: 17764370/0x010F1012) looks at LocalPlayer
  6: 0x054C [0x6F] WAIT_FRAME_DELAY: Yield until WaitTime reaches zero
  7: 0x054D [0x76] CHECK_ENTITY_RENDER_FLAGS: Wait until Sola Jaab (ID: 17764370/0x010F1012) Render.Flags0 and Render.Flags3 conditions are met
  8: 0x0552 [0x00] END_REQSTACK()
```
