# Event 473

## Metadata

| Field           | Value    |
|-----------------|----------|
| Event Index     | 69/105   |
| Offset          | 0x0EDE   |
| Data Size       | 33 bytes |
| Calculated Size | 33 bytes |
| Instructions    | 12       |

```
      00 01 02 03 04 05 06 07  08 09 0A 0B 0C 0D 0E 0F
      -- -- -- -- -- -- -- --  -- -- -- -- -- -- -- --
0ED0:                                            1E F0                ..
0EE0: FF FF 7F 6F 70 29 08 10  10 0F 01 01 1D 5E 80 23  ...op).......^.#
0EF0: 1D 5F 80 23 29 08 10 10  0F 01 15 20 00 21 00     ._.#)...... .!. 
```

## Opcodes

```
  0: 0x0EDE [0x1E] EventEntity looks at LocalPlayer and starts talking
  1: 0x0EE3 [0x6F] WAIT_FRAME_DELAY: Yield until WaitTime reaches zero
  2: 0x0EE4 [0x70] WAIT_ENTITY_RENDER_FLAG: Wait while EventEntity->Render.Flags3 bit 2 is set (cancel turn if not)
  3: 0x0EE5 [0x29] REQ_SET_WAIT(priority=0x08, entity_id=Rakoh Buuma (ID: 17764368/0x010F1010), tag_num=0x01)
  4: 0x0EEC [0x1D] PRINT_EVENT_MESSAGE(message_id=8674*)
    → "The Aurastery's School of Magic is on the eastern side of Windurst Waters. Just head north from Windurst Waters's rrresidential area entrance.\u007F1\u0000\u0007"
  5: 0x0EEF [0x23] WAIT_FOR_DIALOG_INTERACTION
  6: 0x0EF0 [0x1D] PRINT_EVENT_MESSAGE(message_id=8675*)
    → "The school is full of children striving to become tomorrow's politicians and scholars. Putting up with them is a greater test of endurance than any mission I can issue you!\u007F1\u0000\u0007"
  7: 0x0EF3 [0x23] WAIT_FOR_DIALOG_INTERACTION
  8: 0x0EF4 [0x29] REQ_SET_WAIT(priority=0x08, entity_id=Rakoh Buuma (ID: 17764368/0x010F1010), tag_num=0x15)
  9: 0x0EFB [0x20] SET_CLI_EVENT_UC_FLAG: Unlock player control
 10: 0x0EFD [0x21] END_EVENT
 11: 0x0EFE [0x00] END_REQSTACK()
```
