# Event 65535

## Metadata

| Field           | Value    |
|-----------------|----------|
| Event Index     | 56/105   |
| Offset          | 0x0B2A   |
| Data Size       | 23 bytes |
| Calculated Size | 23 bytes |
| Instructions    | 7        |

```
      00 01 02 03 04 05 06 07  08 09 0A 0B 0C 0D 0E 0F
      -- -- -- -- -- -- -- --  -- -- -- -- -- -- -- --
0B20:                                29 08 10 10 0F 01            ).....
0B30: 01 1D 47 80 23 1D 48 80  23 29 08 10 10 0F 01 02  ..G.#.H.#)......
0B40: 00                                                .               
```

## Opcodes

```
  0: 0x0B2A [0x29] REQ_SET_WAIT(priority=0x08, entity_id=Rakoh Buuma (ID: 17764368/0x010F1010), tag_num=0x01)
  1: 0x0B31 [0x1D] PRINT_EVENT_MESSAGE(message_id=7786*)
    → "First, you are to go to the Rrrhinostery's biological laboratory in Windurst Waters. The rrresearchers there will provide you with today's food offering for the Yagudo.\u007F1\u0000\u0007"
  2: 0x0B34 [0x23] WAIT_FOR_DIALOG_INTERACTION
  3: 0x0B35 [0x1D] PRINT_EVENT_MESSAGE(message_id=7787*)
    → "The rrresearchers will tell you what you are to do next.\u007F1\u0000\u0007"
  4: 0x0B38 [0x23] WAIT_FOR_DIALOG_INTERACTION
  5: 0x0B39 [0x29] REQ_SET_WAIT(priority=0x08, entity_id=Rakoh Buuma (ID: 17764368/0x010F1010), tag_num=0x02)
  6: 0x0B40 [0x00] END_REQSTACK()
```
