# Event 65535

## Metadata

| Field           | Value    |
|-----------------|----------|
| Event Index     | 18/26    |
| Offset          | 0x012A   |
| Data Size       | 48 bytes |
| Calculated Size | 48 bytes |
| Instructions    | 11       |

```
      00 01 02 03 04 05 06 07  08 09 0A 0B 0C 0D 0E 0F
      -- -- -- -- -- -- -- --  -- -- -- -- -- -- -- --
0120:                                02 04 00 24 80 01            ...$..
0130: 59 01 32 25 80 1F 00 26  80 27 80 28 80 1F 01 1F  Y.2%...&.'.(....
0140: 00 29 80 2A 80 00 80 1F  01 1F 00 2B 80 2C 80 2D  .).*.......+.,.-
0150: 80 1F 01 1C 2E 80 01 2A  01 00                    .......*..      
```

## Opcodes

```
  0: 0x012A [0x02] IF !(ExtData[1]->WorkLocal[4] == 2*) GOTO 0x0159
  1: 0x0132 [0x32] ExtData[1]->MainSpeed = 15* * 0.1
  2: 0x0135 [0x1F] MOVE_ENTITY: EventEntity moves to X=-604.741*, Z=603.338*, Y=0.035*
  3: 0x013D [0x1F] MOVE_ENTITY: Update entity position (mode=1)
  4: 0x013F [0x1F] MOVE_ENTITY: EventEntity moves to X=-601.147*, Z=602.770*, Y=0.000*
  5: 0x0147 [0x1F] MOVE_ENTITY: Update entity position (mode=1)
  6: 0x0149 [0x1F] MOVE_ENTITY: EventEntity moves to X=-598.147*, Z=604.645*, Y=0.031*
  7: 0x0151 [0x1F] MOVE_ENTITY: Update entity position (mode=1)
  8: 0x0153 [0x1C] WAIT(60* ticks)
  9: 0x0156 [0x01] GOTO 0x012A

SUBROUTINE_0159:
 10: 0x0159 [0x00] END_REQSTACK()
```
