# Event 65535

## Metadata

| Field           | Value    |
|-----------------|----------|
| Event Index     | 22/26    |
| Offset          | 0x01C4   |
| Data Size       | 67 bytes |
| Calculated Size | 67 bytes |
| Instructions    | 15       |

```
      00 01 02 03 04 05 06 07  08 09 0A 0B 0C 0D 0E 0F
      -- -- -- -- -- -- -- --  -- -- -- -- -- -- -- --
01C0:             32 46 80 1F  00 47 80 48 80 49 80 1F      2F...G.H.I..
01D0: 01 4B 99 A0 0E 01 4A 80  1C 2E 80 1F 00 4B 80 4C  .K....J......K.L
01E0: 80 4D 80 1F 01 4B 99 A0  0E 01 4E 80 1C 4F 80 1F  .M...K....N..O..
01F0: 00 50 80 51 80 52 80 1F  01 1C 3F 80 4B 99 A0 0E  .P.Q.R....?.K...
0200: 01 53 80 1C 2E 80 00                              .S.....         
```

## Opcodes

```
  0: 0x01C4 [0x32] ExtData[1]->MainSpeed = 45* * 0.1
  1: 0x01C7 [0x1F] MOVE_ENTITY: EventEntity moves to X=-599.295*, Z=590.678*, Y=0.264*
  2: 0x01CF [0x1F] MOVE_ENTITY: Update entity position (mode=1)
  3: 0x01D1 [0x4B] UPDATE_ENTITY_YAW(entity=Unnamed NPC (ID: 17735833/0x010EA099), yaw=5.3°*)
  4: 0x01D8 [0x1C] WAIT(60* ticks)
  5: 0x01DB [0x1F] MOVE_ENTITY: EventEntity moves to X=-604.353*, Z=586.292*, Y=0.138*
  6: 0x01E3 [0x1F] MOVE_ENTITY: Update entity position (mode=1)
  7: 0x01E5 [0x4B] UPDATE_ENTITY_YAW(entity=Unnamed NPC (ID: 17735833/0x010EA099), yaw=0.2°*)
  8: 0x01EC [0x1C] WAIT(240* ticks)
  9: 0x01EF [0x1F] MOVE_ENTITY: EventEntity moves to X=-600.328*, Z=582.410*, Y=0.802*
 10: 0x01F7 [0x1F] MOVE_ENTITY: Update entity position (mode=1)
 11: 0x01F9 [0x1C] WAIT(30* ticks)
 12: 0x01FC [0x4B] UPDATE_ENTITY_YAW(entity=Unnamed NPC (ID: 17735833/0x010EA099), yaw=16.6°*)
 13: 0x0203 [0x1C] WAIT(60* ticks)
 14: 0x0206 [0x00] END_REQSTACK()
```
