# Event 65535

## Metadata

| Field           | Value    |
|-----------------|----------|
| Event Index     | 24/26    |
| Offset          | 0x0215   |
| Data Size       | 51 bytes |
| Calculated Size | 51 bytes |
| Instructions    | 11       |

```
      00 01 02 03 04 05 06 07  08 09 0A 0B 0C 0D 0E 0F
      -- -- -- -- -- -- -- --  -- -- -- -- -- -- -- --
0210:                32 46 80  1F 00 57 80 58 80 59 80       2F...W.X.Y.
0220: 1F 01 1F 00 5A 80 5B 80  5C 80 1F 01 1F 00 5D 80  ....Z.[.\.....].
0230: 5E 80 5F 80 1F 01 1E 97  A0 0E 01 1C 3F 80 4A 97  ^._.........?.J.
0240: A0 0E 01 99 A0 0E 01 00                           ........        
```

## Opcodes

```
  0: 0x0215 [0x32] ExtData[1]->MainSpeed = 45* * 0.1
  1: 0x0218 [0x1F] MOVE_ENTITY: EventEntity moves to X=-604.257*, Z=586.573*, Y=0.057*
  2: 0x0220 [0x1F] MOVE_ENTITY: Update entity position (mode=1)
  3: 0x0222 [0x1F] MOVE_ENTITY: EventEntity moves to X=-603.318*, Z=588.527*, Y=0.196*
  4: 0x022A [0x1F] MOVE_ENTITY: Update entity position (mode=1)
  5: 0x022C [0x1F] MOVE_ENTITY: EventEntity moves to X=-601.495*, Z=586.040*, Y=0.496*
  6: 0x0234 [0x1F] MOVE_ENTITY: Update entity position (mode=1)
  7: 0x0236 [0x1E] EventEntity looks at Unnamed NPC (ID: 17735831/0x010EA097) and starts talking
  8: 0x023B [0x1C] WAIT(30* ticks)
  9: 0x023E [0x4A] Unnamed NPC (ID: 17735831/0x010EA097) looks at Unnamed NPC (ID: 17735833/0x010EA099)
 10: 0x0247 [0x00] END_REQSTACK()
```
