# Event 65535

## Metadata

| Field           | Value    |
|-----------------|----------|
| Event Index     | 34/42    |
| Offset          | 0x0155   |
| Data Size       | 44 bytes |
| Calculated Size | 44 bytes |
| Instructions    | 4        |

```
      00 01 02 03 04 05 06 07  08 09 0A 0B 0C 0D 0E 0F
      -- -- -- -- -- -- -- --  -- -- -- -- -- -- -- --
0150:                5B 2A 80  18 E2 05 01 18 E2 05 01       [*.........
0160: 67 75 64 31 53 18 E2 05  01 18 E2 05 01 67 75 64  gud1S........gud
0170: 31 66 24 80 18 E2 05 01  18 E2 05 01 73 74 64 6C  1f$.........stdl
0180: 00                                                .               
```

## Opcodes

```
  0: 0x0155 [0x5B] LOAD_EXT_SCHEDULER: Load scheduler "gud1" with entities [Robel-Akbel (ID: 17162776/0x0105E218), Robel-Akbel (ID: 17162776/0x0105E218)], work=1373*
  1: 0x0164 [0x53] WAIT_SCHEDULER_TASK: Wait for scheduler "gud1" with entities [Robel-Akbel (ID: 17162776/0x0105E218), Robel-Akbel (ID: 17162776/0x0105E218)]
  2: 0x0171 [0x66] LOAD_EXT_SCHEDULER_MAIN: Load scheduler "stdl" with entities [Robel-Akbel (ID: 17162776/0x0105E218), Robel-Akbel (ID: 17162776/0x0105E218)], work=119*
  3: 0x0180 [0x00] END_REQSTACK()
```
