# Event 246

## Metadata

| Field           | Value    |
|-----------------|----------|
| Event Index     | 3/3      |
| Offset          | 0x005A   |
| Data Size       | 51 bytes |
| Calculated Size | 51 bytes |
| Instructions    | 11       |

```
      00 01 02 03 04 05 06 07  08 09 0A 0B 0C 0D 0E 0F
      -- -- -- -- -- -- -- --  -- -- -- -- -- -- -- --
0050:                                1E F0 FF FF 7F 1C            ......
0060: 00 80 66 01 80 F8 FF FF  7F F8 FF FF 7F 75 74 6C  ..f..........utl
0070: 30 1D 08 80 23 1C 07 80  66 01 80 F8 FF FF 7F F8  0...#...f.......
0080: FF FF 7F 75 74 6C 31 1D  09 80 23 21 00           ...utl1...#!.   
```

## Opcodes

```
  0: 0x005A [0x1E] EventEntity looks at LocalPlayer and starts talking
  1: 0x005F [0x1C] WAIT(30* ticks)
  2: 0x0062 [0x66] LOAD_EXT_SCHEDULER_MAIN(work_offset=11*, entity1=EventEntity, entity2=EventEntity, action="utl0")
  3: 0x0071 [0x1D] PRINT_EVENT_MESSAGE(message_id=8095*)
    → "I've decided to forget about my brother. There's just one thing I'm still curious about, though...\u007F1\u0000\u0007"
  4: 0x0074 [0x23] WAIT_FOR_DIALOG_INTERACTION
  5: 0x0075 [0x1C] WAIT(60* ticks)
  6: 0x0078 [0x66] LOAD_EXT_SCHEDULER_MAIN(work_offset=11*, entity1=EventEntity, entity2=EventEntity, action="utl1")
  7: 0x0087 [0x1D] PRINT_EVENT_MESSAGE(message_id=8096*)
    → "What is he using his blacksmithing skills to make there?\u007F1\u0000\u0007"
  8: 0x008A [0x23] WAIT_FOR_DIALOG_INTERACTION
  9: 0x008B [0x21] END_EVENT
 10: 0x008C [0x00] END_REQSTACK()
```
