# Event 722

## Metadata

| Field           | Value    |
|-----------------|----------|
| Event Index     | 3/6      |
| Offset          | 0x0036   |
| Data Size       | 50 bytes |
| Calculated Size | 50 bytes |
| Instructions    | 16       |

```
      00 01 02 03 04 05 06 07  08 09 0A 0B 0C 0D 0E 0F
      -- -- -- -- -- -- -- --  -- -- -- -- -- -- -- --
0030:                   1E F0  FF FF 7F 1D 05 80 23 1D        ........#.
0040: 06 80 23 24 07 80 08 80  09 80 25 02 00 10 09 80  ..#$......%.....
0050: 00 61 00 1D 0A 80 23 03  01 10 09 80 21 00 01 61  .a....#.....!..a
0060: 00 03 01 10 0B 80 21 00                           ......!.        
```

## Opcodes

```
  0: 0x0036 [0x1E] EventEntity looks at LocalPlayer and starts talking
  1: 0x003B [0x1D] PRINT_EVENT_MESSAGE(message_id=13118*)
    → "You shall find Miss Cannau in the Eldieme Necropolis. That is, if you are lucky enough to spot her...\u007F1\u0000\u0007"
  2: 0x003E [0x23] WAIT_FOR_DIALOG_INTERACTION
  3: 0x003F [0x1D] PRINT_EVENT_MESSAGE(message_id=13119*)
    → "Wait...\u0007Are you to say that you wish to cancel your contract with us?\u007F1\u0000\u0007"
  4: 0x0042 [0x23] WAIT_FOR_DIALOG_INTERACTION
  5: 0x0043 [0x24] CREATE_DIALOG(message_id=13120*, default_option=1*, option_flags=0*)
    → "Cancel your contract?\u0007\u000BYes.\u0007No.\u007F1\u0000\u0007"
  6: 0x004A [0x25] WAIT_DIALOG_SELECT()
  7: 0x004B [0x02] IF !(Work_Zone[0] == 0*) GOTO 0x0061
  8: 0x0053 [0x1D] PRINT_EVENT_MESSAGE(message_id=13121*)
    → "I see... That is quite disappointing...\u007F1\u0000\u0007"
  9: 0x0056 [0x23] WAIT_FOR_DIALOG_INTERACTION
 10: 0x0057 [0x03] Work_Zone[1] = 0*
 11: 0x005C [0x21] END_EVENT
 12: 0x005D [0x00] END_REQSTACK()

SUBROUTINE_0061:
 13: 0x0061 [0x03] Work_Zone[1] = 1073741824*
 14: 0x0066 [0x21] END_EVENT
 15: 0x0067 [0x00] END_REQSTACK()
```

## Data or dead code:

```
# Dead code (unreachable instructions):
     0x005E [0x01] GOTO 0x0061
```