# Event 65535

## Metadata

| Field           | Value    |
|-----------------|----------|
| Event Index     | 15/15    |
| Offset          | 0x006B   |
| Data Size       | 67 bytes |
| Calculated Size | 67 bytes |
| Instructions    | 12       |

```
      00 01 02 03 04 05 06 07  08 09 0A 0B 0C 0D 0E 0F
      -- -- -- -- -- -- -- --  -- -- -- -- -- -- -- --
0060:                                   3B F8 FF FF 7F             ;....
0070: 20 10 21 10 22 10 03 01  00 0C 80 02 01 00 0D 80   .!."...........
0080: 05 AD 00 16 00 00 01 00  0E 80 07 00 00 0E 80 03  ................
0090: 22 10 05 80 07 22 10 00  00 37 20 10 21 10 22 10  "...."...7 .!.".
00A0: 06 80 07 01 00 0F 80 1C  01 80 01 7B 00 00        ...........{..  
```

## Opcodes

```
  0: 0x006B [0x3B] GET_ENTITY_POSITION(entity=EventEntity, x_destination=Work_Zone[32], y_destination=Work_Zone[33], z_destination=Work_Zone[34])
  1: 0x0076 [0x03] ExtData[1]->WorkLocal[1] = 1024*
  2: 0x007B [0x02] IF !(ExtData[1]->WorkLocal[1] > 3072*) GOTO 0x00AD
  3: 0x0083 [0x16] ExtData[1]->WorkLocal[0] = sin(ExtData[1]->WorkLocal[1]) * 9000*
  4: 0x008A [0x07] ExtData[1]->WorkLocal[0] += 9000*
  5: 0x008F [0x03] Work_Zone[34] = 4294947296*
  6: 0x0094 [0x07] Work_Zone[34] += ExtData[1]->WorkLocal[0]
  7: 0x0099 [0x37] UPDATE_EVENT_POSITION_AND_DIR: x=Work_Zone[32], z=Work_Zone[33], y=Work_Zone[34], direction=47.7°*
  8: 0x00A2 [0x07] ExtData[1]->WorkLocal[1] += 60*
  9: 0x00A7 [0x1C] WAIT(1* ticks)
 10: 0x00AA [0x01] GOTO 0x007B
 11: 0x00AD [0x00] END_REQSTACK()
```
