# Event 65535

## Metadata

| Field           | Value    |
|-----------------|----------|
| Event Index     | 39/54    |
| Offset          | 0x2B3E   |
| Data Size       | 53 bytes |
| Calculated Size | 53 bytes |
| Instructions    | 10       |

```
      00 01 02 03 04 05 06 07  08 09 0A 0B 0C 0D 0E 0F
      -- -- -- -- -- -- -- --  -- -- -- -- -- -- -- --
2B30:                                            79 00                y.
2B40: F8 FF FF 7F 44 12 04 01  32 C3 80 1F 00 0A 81 0B  ....D...2.......
2B50: 81 0C 81 1F 01 6F 4A F8  FF FF 7F 44 12 04 01 7B  .....oJ....D...{
2B60: F8 FF FF 7F 59 02 1E 80  79 02 F8 FF FF 7F 0D 81  ....Y...y.......
2B70: 15 80 00                                          ...             
```

## Opcodes

```
  0: 0x2B3E [0x79] EventEntity looks at Unnamed NPC (ID: 17044036/0x01041244) (Basic look)
  1: 0x2B48 [0x32] ExtData[1]->MainSpeed = 40* * 0.1
  2: 0x2B4B [0x1F] MOVE_ENTITY: EventEntity moves to X=216.756*, Z=-103.340*, Y=-23.802*
  3: 0x2B53 [0x1F] MOVE_ENTITY: Update entity position (mode=1)
  4: 0x2B55 [0x6F] WAIT_FRAME_DELAY: Yield until WaitTime reaches zero
  5: 0x2B56 [0x4A] EventEntity looks at Unnamed NPC (ID: 17044036/0x01041244)
  6: 0x2B5F [0x7B] EventEntity stops talking
  7: 0x2B64 [0x59] UPDATE_ENTITY_DATA: Set EventEntity target turn speed head = 200*
  8: 0x2B68 [0x79] EventEntity looks at Unknown NPC (ID: 2148892941/0x8015810D) (Direct axis set)
  9: 0x2B72 [0x00] END_REQSTACK()
```
