# Event 65535

## Metadata

| Field           | Value    |
|-----------------|----------|
| Event Index     | 37/54    |
| Offset          | 0x2B01   |
| Data Size       | 51 bytes |
| Calculated Size | 51 bytes |
| Instructions    | 10       |

```
      00 01 02 03 04 05 06 07  08 09 0A 0B 0C 0D 0E 0F
      -- -- -- -- -- -- -- --  -- -- -- -- -- -- -- --
2B00:    7B F8 FF FF 7F 6E F8  FF FF 7F 09 81 99 F8 FF   {....n.........
2B10: FF 7F 99 F8 FF FF 7F 1C  47 80 6E F8 FF FF 7F 2B  ........G.n....+
2B20: 80 99 F8 FF FF 7F 1C 7F  80 79 00 F8 FF FF 7F 39  .........y.....9
2B30: 12 04 01 00                                       ....            
```

## Opcodes

```
  0: 0x2B01 [0x7B] EventEntity stops talking
  1: 0x2B06 [0x6E] EventEntity uses emote 32*
  2: 0x2B0D [0x99] Wait for EventEntity animation to complete
  3: 0x2B12 [0x99] Wait for EventEntity animation to complete
  4: 0x2B17 [0x1C] WAIT(180* ticks)
  5: 0x2B1A [0x6E] EventEntity uses emote 7*
  6: 0x2B21 [0x99] Wait for EventEntity animation to complete
  7: 0x2B26 [0x1C] WAIT(120* ticks)
  8: 0x2B29 [0x79] EventEntity looks at Salwa-Molwa (ID: 17044025/0x01041239) (Basic look)
  9: 0x2B33 [0x00] END_REQSTACK()
```
