# Event 138

## Metadata

| Field           | Value    |
|-----------------|----------|
| Event Index     | 25/75    |
| Offset          | 0x03F1   |
| Data Size       | 63 bytes |
| Calculated Size | 63 bytes |
| Instructions    | 13       |

```
      00 01 02 03 04 05 06 07  08 09 0A 0B 0C 0D 0E 0F
      -- -- -- -- -- -- -- --  -- -- -- -- -- -- -- --
03F0:    42 1E F0 FF FF 7F 6F  70 1D 48 80 23 5B 17 80   B.....op.H.#[..
0400: F8 FF FF 7F F8 FF FF 7F  70 61 73 30 53 F8 FF FF  ........pas0S...
0410: 7F F8 FF FF 7F 70 61 73  30 1D 49 80 23 45 4A 80  .....pas0.I.#EJ.
0420: F0 FF FF 7F F0 FF FF 7F  71 73 74 63 13 80 21 00  ........qstc..!.
```

## Opcodes

```
  0: 0x03F1 [0x42] SET_CLI_EVENT_CANCEL_DATA()
  1: 0x03F2 [0x1E] EventEntity looks at LocalPlayer and starts talking
  2: 0x03F7 [0x6F] WAIT_FRAME_DELAY: Yield until WaitTime reaches zero
  3: 0x03F8 [0x70] WAIT_ENTITY_RENDER_FLAG: Wait while EventEntity->Render.Flags3 bit 2 is set (cancel turn if not)
  4: 0x03F9 [0x1D] PRINT_EVENT_MESSAGE(message_id=7722*)
    → "Now we're talking! This'll make the chocobo's spirit happy! Here, this is all I have to give.\u007F1\u0000\u0007"
  5: 0x03FC [0x23] WAIT_FOR_DIALOG_INTERACTION
  6: 0x03FD [0x5B] LOAD_EXT_SCHEDULER(work_offset=65*, entity1=EventEntity, entity2=EventEntity, action="pas0")
  7: 0x040C [0x53] WAIT_SCHEDULER_TASK(entity1=EventEntity, entity2=EventEntity, action_id="pas0")
  8: 0x0419 [0x1D] PRINT_EVENT_MESSAGE(message_id=7723*)
    → "She may be gone, but her memory will always be here with us.\u007F1\u0000\u0007"
  9: 0x041C [0x23] WAIT_FOR_DIALOG_INTERACTION
 10: 0x041D [0x45] LOAD_SCHEDULED_TASK(work_offset1=201*, entity1=LocalPlayer, entity2=LocalPlayer, scheduler_id="qstc", work_offset2=0*)
 11: 0x042E [0x21] END_EVENT
 12: 0x042F [0x00] END_REQSTACK()
```
