# Event 14

## Metadata

| Field           | Value    |
|-----------------|----------|
| Event Index     | 3/75     |
| Offset          | 0x0010   |
| Data Size       | 20 bytes |
| Calculated Size | 20 bytes |
| Instructions    | 9        |

```
      00 01 02 03 04 05 06 07  08 09 0A 0B 0C 0D 0E 0F
      -- -- -- -- -- -- -- --  -- -- -- -- -- -- -- --
0010: 20 01 1E F0 FF FF 7F 6F  70 03 02 10 01 80 1D 02   ......op.......
0020: 80 23 21 00                                       .#!.            
```

## Opcodes

```
  0: 0x0010 [0x20] SET_CLI_EVENT_UC_FLAG: Lock player control
  1: 0x0012 [0x1E] EventEntity looks at LocalPlayer and starts talking
  2: 0x0017 [0x6F] WAIT_FRAME_DELAY: Yield until WaitTime reaches zero
  3: 0x0018 [0x70] WAIT_ENTITY_RENDER_FLAG: Wait while EventEntity->Render.Flags3 bit 2 is set (cancel turn if not)
  4: 0x0019 [0x03] Work_Zone[2] = 17933*
  5: 0x001E [0x1D] PRINT_EVENT_MESSAGE(message_id=8182*)
    → "I don't know... I don't think I can decide yet. Whack up a few more monsters and then bring her back here for another look.\u007F1\u0000\u0007"
  6: 0x0021 [0x23] WAIT_FOR_DIALOG_INTERACTION
  7: 0x0022 [0x21] END_EVENT
  8: 0x0023 [0x00] END_REQSTACK()
```
