# Event 16

## Metadata

| Field           | Value    |
|-----------------|----------|
| Event Index     | 12/75    |
| Offset          | 0x016E   |
| Data Size       | 28 bytes |
| Calculated Size | 28 bytes |
| Instructions    | 9        |

```
      00 01 02 03 04 05 06 07  08 09 0A 0B 0C 0D 0E 0F
      -- -- -- -- -- -- -- --  -- -- -- -- -- -- -- --
0160:                                            1E F0                ..
0170: FF FF 7F 6F 76 F8 FF FF  7F 03 03 10 1E 80 03 04  ...ov...........
0180: 10 1F 80 1D 20 80 23 21  00 00                    .... .#!..      
```

## Opcodes

```
  0: 0x016E [0x1E] EventEntity looks at LocalPlayer and starts talking
  1: 0x0173 [0x6F] WAIT_FRAME_DELAY: Yield until WaitTime reaches zero
  2: 0x0174 [0x76] CHECK_ENTITY_RENDER_FLAGS: Wait until EventEntity Render.Flags0 and Render.Flags3 conditions are met
  3: 0x0179 [0x03] Work_Zone[3] = 344*
  4: 0x017E [0x03] Work_Zone[4] = 345*
  5: 0x0183 [0x1D] PRINT_EVENT_MESSAGE(message_id=8188*)
    → "Take that \u0001\u00053\u0002\u0001\u0000\u0000 and head to the Temple of Uggalepih. Once you're there, find \u0001\u00056\u0002\u0002\u0000\u0000 and bring it back to me...but be careful now, hear?\u007F1\u0000\u0007"
  6: 0x0186 [0x23] WAIT_FOR_DIALOG_INTERACTION
  7: 0x0187 [0x21] END_EVENT
  8: 0x0188 [0x00] END_REQSTACK()
```

## Data or dead code:

```
# Dead code (unreachable instructions):
     0x0189 [0x00] END_REQSTACK()
```