# Event 65535

## Metadata

| Field           | Value    |
|-----------------|----------|
| Event Index     | 48/75    |
| Offset          | 0x075C   |
| Data Size       | 43 bytes |
| Calculated Size | 43 bytes |
| Instructions    | 12       |

```
      00 01 02 03 04 05 06 07  08 09 0A 0B 0C 0D 0E 0F
      -- -- -- -- -- -- -- --  -- -- -- -- -- -- -- --
0750:                                      32 5D 80 5A              2].Z
0760: 00 70 80 71 80 13 80 5A  01 33 00 1F 00 72 80 73  .p.q...Z.3...r.s
0770: 80 13 80 1F 01 6F 1C 74  80 4B F8 FF FF 7F 75 80  .....o.t.K....u.
0780: 6F 76 F8 FF FF 7F 00                              ov.....         
```

## Opcodes

```
  0: 0x075C [0x32] ExtData[1]->MainSpeed = 13* * 0.1
  1: 0x075F [0x5A] UPDATE_EVENT_POSITION: Set EventEntity MovePosition to X=-57.426*, Z=78.294*, Y=0.000*
  2: 0x0767 [0x5A] UPDATE_EVENT_POSITION: Move EventEntity incrementally towards MovePosition
  3: 0x0769 [0x33] EventEntity->Render.Flags0 &= ~ 0x200000 // Bit 21 (flag=0x00)
  4: 0x076B [0x1F] MOVE_ENTITY: EventEntity moves to X=-58.756*, Z=78.176*, Y=0.000*
  5: 0x0773 [0x1F] MOVE_ENTITY: Update entity position (mode=1)
  6: 0x0775 [0x6F] WAIT_FRAME_DELAY: Yield until WaitTime reaches zero
  7: 0x0776 [0x1C] WAIT(6* ticks)
  8: 0x0779 [0x4B] UPDATE_ENTITY_YAW(entity=EventEntity, yaw=14.2°*)
  9: 0x0780 [0x6F] WAIT_FRAME_DELAY: Yield until WaitTime reaches zero
 10: 0x0781 [0x76] CHECK_ENTITY_RENDER_FLAGS: Wait until EventEntity Render.Flags0 and Render.Flags3 conditions are met
 11: 0x0786 [0x00] END_REQSTACK()
```
