# Event 66

## Metadata

| Field           | Value    |
|-----------------|----------|
| Event Index     | 13/75    |
| Offset          | 0x018A   |
| Data Size       | 32 bytes |
| Calculated Size | 32 bytes |
| Instructions    | 11       |

```
      00 01 02 03 04 05 06 07  08 09 0A 0B 0C 0D 0E 0F
      -- -- -- -- -- -- -- --  -- -- -- -- -- -- -- --
0180:                                1E F0 FF FF 7F 6F            .....o
0190: 76 F8 FF FF 7F 02 02 10  12 80 00 A4 01 1D 21 80  v.............!.
01A0: 23 01 A8 01 1D 22 80 23  21 00                    #....".#!.      
```

## Opcodes

```
  0: 0x018A [0x1E] EventEntity looks at LocalPlayer and starts talking
  1: 0x018F [0x6F] WAIT_FRAME_DELAY: Yield until WaitTime reaches zero
  2: 0x0190 [0x76] CHECK_ENTITY_RENDER_FLAGS: Wait until EventEntity Render.Flags0 and Render.Flags3 conditions are met
  3: 0x0195 [0x02] IF !(Work_Zone[2] == 1*) GOTO 0x01A4
  4: 0x019D [0x1D] PRINT_EVENT_MESSAGE(message_id=7113*)
    → "Eh? So you wanna ride a chocobo, do ya?\u0007Ha! You don't look strong enough to even stay in the saddle!\u007F1\u0000\u0007"
  5: 0x01A0 [0x23] WAIT_FOR_DIALOG_INTERACTION
  6: 0x01A1 [0x01] GOTO 0x01A8
  7: 0x01A4 [0x1D] PRINT_EVENT_MESSAGE(message_id=7102*)
    → "How am I supposed to work with you standin' there, huh? Scoot! You ain't got what it takes to handle chocobos.\u007F1\u0000\u0007"
  8: 0x01A7 [0x23] WAIT_FOR_DIALOG_INTERACTION
  9: 0x01A8 [0x21] END_EVENT
 10: 0x01A9 [0x00] END_REQSTACK()
```
