# 17305855 - Pesoso

## Common Data

| Field            | Value                     |
|------------------|---------------------------|
| Zone             | Ghoyu's Reverie (ID: 129) |
| Block Size       | 244 bytes                 |
| Total Events     | 4                         |
| References Count | 13                        |

## List of Events

| Event ID              | Entrypoint   |   Size |   Instructions |
|-----------------------|--------------|--------|----------------|
| [65535](#event-65535) | 0x0000       |      1 |              1 |
| [7](#event-7)         | 0x0001       |     67 |             23 |
| [8](#event-8)         | 0x0044       |     30 |             10 |
| [9](#event-9)         | 0x0062       |     60 |             18 |

## DAT References (imed_data)

|   Index | Hex Value   |   Dec Value |
|---------|-------------|-------------|
|       0 | 0x1C9A      |        7322 |
|       1 | 0x1C9B      |        7323 |
|       2 | 0x0031      |          49 |
|       3 | 0x1C9C      |        7324 |
|       4 | 0x1C9D      |        7325 |
|       5 | 0x1C9E      |        7326 |
|       6 | 0x0024      |          36 |
|       7 | 0x1C9F      |        7327 |
|       8 | 0x0020      |          32 |
|       9 | 0x1CA0      |        7328 |
|      10 | 0x1CA1      |        7329 |
|      11 | 0x1CA2      |        7330 |
|      12 | 0x1CA3      |        7331 |

## String References

- **7322**: Ah, you must be the volunteer that Master Caster Kayeel-Payeel mentioned. Thank you oh-so-much for helping-welping us out!
- **7323**: You see, the mission is sooo fraughtaru with danger, no one wanted to take part. But then you haplessly showed up at the most opportune timing!
- **7324**: Our objective is as straightaru-forward as a road without turns, wurns, bends, or wends. These caverns are thick with beastarumen, you see, and your task is to eliminate them! Biff! Bash! Kapowy-wowie!
- **7325**: But as we don'taru have all the time in the world, do keepy-weep an eye on the clock. As the saying goes, "haste makes for great taste"! No, wait...
- **7326**: Ah, never-wever mind. I'll be following closely-wosely behind, so just give me a holler when you finish clearing the caverns of monstarus.
- **7327**: And without further ado, let the extermination-wation begin! Do well, clobber a tonz of monstarus, and a juicy reward might just be waiting for you!
- **7328**: Hm? I don't thinky-wink we're quite done yet. Bettaru get a move on, 'cause the clock's tick-tocking, wick-wocking away!
- **7329**: Wowsers-trousers! The caverns are squeaky-weaky clean of enemy presence!
- **7330**: Master Caster Kayeel-Payeel will surely hear of your splendifer-wiferous performance.
- **7331**: The objective isn't over until you reportaru back to base camp, so stay alerty-wert. Okay?

## Events

### Event 65535

#### Metadata

| Field        | Value   |
|--------------|---------|
| Entrypoint   | 0x0000  |
| Data Size    | 1 bytes |
| Instructions | 1       |

```
      00 01 02 03 04 05 06 07  08 09 0A 0B 0C 0D 0E 0F
      -- -- -- -- -- -- -- --  -- -- -- -- -- -- -- --
0000: 00                                                .               
```

#### Opcodes

```
  0: 0x0000 [0x00] END_REQSTACK()
```

### Event 7

#### Metadata

| Field        | Value    |
|--------------|----------|
| Entrypoint   | 0x0001   |
| Data Size    | 67 bytes |
| Instructions | 23       |

```
      00 01 02 03 04 05 06 07  08 09 0A 0B 0C 0D 0E 0F
      -- -- -- -- -- -- -- --  -- -- -- -- -- -- -- --
0000:    42 1E F0 FF FF 7F 6F  70 1D 00 80 23 1D 01 80   B.....op...#...
0010: 23 66 02 80 F8 FF FF 7F  F8 FF FF 7F 74 6C 6B 30  #f..........tlk0
0020: 1D 03 80 23 1D 04 80 23  5E 69 64 6C 30 1D 05 80  ...#...#^idl0...
0030: 23 6E F8 FF FF 7F 06 80  99 F8 FF FF 7F 1D 07 80  #n..............
0040: 23 2E 21 00                                       #.!.            
```

#### Opcodes

```
  0: 0x0001 [0x42] SET_CLI_EVENT_CANCEL_DATA()
  1: 0x0002 [0x1E] EventEntity looks at LocalPlayer and starts talking
  2: 0x0007 [0x6F] WAIT_FRAME_DELAY: Yield until WaitTime reaches zero
  3: 0x0008 [0x70] WAIT_ENTITY_RENDER_FLAG: Wait while EventEntity->Render.Flags3 bit 2 is set (cancel turn if not)
  4: 0x0009 [0x1D] PRINT_EVENT_MESSAGE(message_id=7322*)
    → "Ah, you must be the volunteer that Master Caster Kayeel-Payeel mentioned. Thank you oh-so-much for helping-welping us out!"
  5: 0x000C [0x23] WAIT_FOR_DIALOG_INTERACTION
  6: 0x000D [0x1D] PRINT_EVENT_MESSAGE(message_id=7323*)
    → "You see, the mission is sooo fraughtaru with danger, no one wanted to take part. But then you haplessly showed up at the most opportune timing!"
  7: 0x0010 [0x23] WAIT_FOR_DIALOG_INTERACTION
  8: 0x0011 [0x66] LOAD_EXT_SCHEDULER_MAIN: Load scheduler "tlk0" with entities [EventEntity, EventEntity], work=49*
  9: 0x0020 [0x1D] PRINT_EVENT_MESSAGE(message_id=7324*)
    → "Our objective is as straightaru-forward as a road without turns, wurns, bends, or wends. These caverns are thick with beastarumen, you see, and your task is to eliminate them! Biff! Bash! Kapowy-wowie!"
 10: 0x0023 [0x23] WAIT_FOR_DIALOG_INTERACTION
 11: 0x0024 [0x1D] PRINT_EVENT_MESSAGE(message_id=7325*)
    → "But as we don'taru have all the time in the world, do keepy-weep an eye on the clock. As the saying goes, "haste makes for great taste"! No, wait..."
 12: 0x0027 [0x23] WAIT_FOR_DIALOG_INTERACTION
 13: 0x0028 [0x5E] EventEntity goes idle (kills current action) (animation: "idl0")
 14: 0x002D [0x1D] PRINT_EVENT_MESSAGE(message_id=7326*)
    → "Ah, never-wever mind. I'll be following closely-wosely behind, so just give me a holler when you finish clearing the caverns of monstarus."
 15: 0x0030 [0x23] WAIT_FOR_DIALOG_INTERACTION
 16: 0x0031 [0x6E] EventEntity uses emote 36*
 17: 0x0038 [0x99] Wait for EventEntity animation to complete
 18: 0x003D [0x1D] PRINT_EVENT_MESSAGE(message_id=7327*)
    → "And without further ado, let the extermination-wation begin! Do well, clobber a tonz of monstarus, and a juicy reward might just be waiting for you!"
 19: 0x0040 [0x23] WAIT_FOR_DIALOG_INTERACTION
 20: 0x0041 [0x2E] SET_CLI_EVENT_CANCEL_FLAGS()
 21: 0x0042 [0x21] END_EVENT
 22: 0x0043 [0x00] END_REQSTACK()
```

### Event 8

#### Metadata

| Field        | Value    |
|--------------|----------|
| Entrypoint   | 0x0044   |
| Data Size    | 30 bytes |
| Instructions | 10       |

```
      00 01 02 03 04 05 06 07  08 09 0A 0B 0C 0D 0E 0F
      -- -- -- -- -- -- -- --  -- -- -- -- -- -- -- --
0040:             1E F0 FF FF  7F 6F 70 6E F8 FF FF 7F      .....opn....
0050: 08 80 99 F8 FF FF 7F 1D  09 80 23 5E 69 64 6C 30  ..........#^idl0
0060: 21 00                                             !.              
```

#### Opcodes

```
  0: 0x0044 [0x1E] EventEntity looks at LocalPlayer and starts talking
  1: 0x0049 [0x6F] WAIT_FRAME_DELAY: Yield until WaitTime reaches zero
  2: 0x004A [0x70] WAIT_ENTITY_RENDER_FLAG: Wait while EventEntity->Render.Flags3 bit 2 is set (cancel turn if not)
  3: 0x004B [0x6E] EventEntity uses emote 32*
  4: 0x0052 [0x99] Wait for EventEntity animation to complete
  5: 0x0057 [0x1D] PRINT_EVENT_MESSAGE(message_id=7328*)
    → "Hm? I don't thinky-wink we're quite done yet. Bettaru get a move on, 'cause the clock's tick-tocking, wick-wocking away!"
  6: 0x005A [0x23] WAIT_FOR_DIALOG_INTERACTION
  7: 0x005B [0x5E] EventEntity goes idle (kills current action) (animation: "idl0")
  8: 0x0060 [0x21] END_EVENT
  9: 0x0061 [0x00] END_REQSTACK()
```

### Event 9

#### Metadata

| Field        | Value    |
|--------------|----------|
| Entrypoint   | 0x0062   |
| Data Size    | 60 bytes |
| Instructions | 18       |

```
      00 01 02 03 04 05 06 07  08 09 0A 0B 0C 0D 0E 0F
      -- -- -- -- -- -- -- --  -- -- -- -- -- -- -- --
0060:       42 1E F0 FF FF 7F  6F 70 6E F8 FF FF 7F 06    B.....opn.....
0070: 80 99 F8 FF FF 7F 1D 0A  80 23 5E 69 64 6C 30 66  .........#^idl0f
0080: 02 80 F8 FF FF 7F F8 FF  FF 7F 74 6C 6B 30 1D 0B  ..........tlk0..
0090: 80 23 5E 69 64 6C 30 1D  0C 80 23 2E 21 00        .#^idl0...#.!.  
```

#### Opcodes

```
  0: 0x0062 [0x42] SET_CLI_EVENT_CANCEL_DATA()
  1: 0x0063 [0x1E] EventEntity looks at LocalPlayer and starts talking
  2: 0x0068 [0x6F] WAIT_FRAME_DELAY: Yield until WaitTime reaches zero
  3: 0x0069 [0x70] WAIT_ENTITY_RENDER_FLAG: Wait while EventEntity->Render.Flags3 bit 2 is set (cancel turn if not)
  4: 0x006A [0x6E] EventEntity uses emote 36*
  5: 0x0071 [0x99] Wait for EventEntity animation to complete
  6: 0x0076 [0x1D] PRINT_EVENT_MESSAGE(message_id=7329*)
    → "Wowsers-trousers! The caverns are squeaky-weaky clean of enemy presence!"
  7: 0x0079 [0x23] WAIT_FOR_DIALOG_INTERACTION
  8: 0x007A [0x5E] EventEntity goes idle (kills current action) (animation: "idl0")
  9: 0x007F [0x66] LOAD_EXT_SCHEDULER_MAIN: Load scheduler "tlk0" with entities [EventEntity, EventEntity], work=49*
 10: 0x008E [0x1D] PRINT_EVENT_MESSAGE(message_id=7330*)
    → "Master Caster Kayeel-Payeel will surely hear of your splendifer-wiferous performance."
 11: 0x0091 [0x23] WAIT_FOR_DIALOG_INTERACTION
 12: 0x0092 [0x5E] EventEntity goes idle (kills current action) (animation: "idl0")
 13: 0x0097 [0x1D] PRINT_EVENT_MESSAGE(message_id=7331*)
    → "The objective isn't over until you reportaru back to base camp, so stay alerty-wert. Okay?"
 14: 0x009A [0x23] WAIT_FOR_DIALOG_INTERACTION
 15: 0x009B [0x2E] SET_CLI_EVENT_CANCEL_FLAGS()
 16: 0x009C [0x21] END_EVENT
 17: 0x009D [0x00] END_REQSTACK()
```
