# 17305856 - Antje

## Common Data

| Field            | Value                     |
|------------------|---------------------------|
| Zone             | Ghoyu's Reverie (ID: 129) |
| Block Size       | 2232 bytes                |
| Total Events     | 6                         |
| References Count | 79                        |

## List of Events

| Event ID              | Entrypoint   |   Size |   Instructions |
|-----------------------|--------------|--------|----------------|
| [65535](#event-65535) | 0x0000       |      1 |              1 |
| [10](#event-10)       | 0x0001       |    514 |             93 |
| [11](#event-11)       | 0x0203       |    683 |            130 |
| [12](#event-12)       | 0x04AE       |    170 |             27 |
| [13](#event-13)       | 0x0558       |     52 |             14 |
| [14](#event-14)       | 0x058C       |    453 |             97 |

## DAT References (imed_data)

|   Index | Hex Value   |   Dec Value |
|---------|-------------|-------------|
|       0 | 0x00C8      |         200 |
|       1 | 0x0000      |           0 |
|       2 | 0x003C      |          60 |
|       3 | 0x0013      |          19 |
|       4 | 0xFFFC4252  |  4294722130 |
|       5 | 0xFFFE3C27  |  4294851623 |
|       6 | 0xFFFFFEF9  |  4294967033 |
|       7 | 0x09F3      |        2547 |
|       8 | 0x01C9      |         457 |
|       9 | 0x1CB1      |        7345 |
|      10 | 0x1CB2      |        7346 |
|      11 | 0x1CB3      |        7347 |
|      12 | 0x1CB4      |        7348 |
|      13 | 0x1CB5      |        7349 |
|      14 | 0x1CB6      |        7350 |
|      15 | 0x1CB7      |        7351 |
|      16 | 0x1CB8      |        7352 |
|      17 | 0x1CB9      |        7353 |
|      18 | 0x1CBA      |        7354 |
|      19 | 0x1CBB      |        7355 |
|      20 | 0x1CBC      |        7356 |
|      21 | 0x1CBD      |        7357 |
|      22 | 0x1CBE      |        7358 |
|      23 | 0x1CBF      |        7359 |
|      24 | 0x1CC0      |        7360 |
|      25 | 0x1CC1      |        7361 |
|      26 | 0x1CC2      |        7362 |
|      27 | 0x1CC3      |        7363 |
|      28 | 0x0001      |           1 |
|      29 | 0x1CC4      |        7364 |
|      30 | 0x01F1      |         497 |
|      31 | 0x001E      |          30 |
|      32 | 0xFFFC42F8  |  4294722296 |
|      33 | 0xFFFE3EC8  |  4294852296 |
|      34 | 0x024F      |         591 |
|      35 | 0x1CC6      |        7366 |
|      36 | 0x1CC7      |        7367 |
|      37 | 0x0002      |           2 |
|      38 | 0x1CC8      |        7368 |
|      39 | 0x1CC9      |        7369 |
|      40 | 0x1CCA      |        7370 |
|      41 | 0x1CCB      |        7371 |
|      42 | 0x1CCC      |        7372 |
|      43 | 0xFFFB14E8  |  4294644968 |
|      44 | 0xFFF996FF  |  4294547199 |
|      45 | 0xFFFFFFD9  |  4294967257 |
|      46 | 0x09C9      |        2505 |
|      47 | 0xFFFC655C  |  4294731100 |
|      48 | 0xFFFE2120  |  4294844704 |
|      49 | 0xFFFFFF1D  |  4294967069 |
|      50 | 0x09E2      |        2530 |
|      51 | 0x0003      |           3 |
|      52 | 0x0004      |           4 |
|      53 | 0x0008      |           8 |
|      54 | 0x0005      |           5 |
|      55 | 0x0010      |          16 |
|      56 | 0x0006      |           6 |
|      57 | 0x0020      |          32 |
|      58 | 0x1CCD      |        7373 |
|      59 | 0xFFFFFEBF  |  4294966975 |
|      60 | 0xFFFB9D95  |  4294679957 |
|      61 | 0x0134      |         308 |
|      62 | 0x0BD0      |        3024 |
|      63 | 0xE725      |       59173 |
|      64 | 0xFFFF3943  |  4294916419 |
|      65 | 0xFFFFFFA7  |  4294967207 |
|      66 | 0x04FA      |        1274 |
|      67 | 0xFFFF0258  |  4294902360 |
|      68 | 0xFFFF16A5  |  4294907557 |
|      69 | 0xFFFFE6B3  |  4294960819 |
|      70 | 0x0AA9      |        2729 |
|      71 | 0xFFFFA40B  |  4294943755 |
|      72 | 0x21497     |      136343 |
|      73 | 0x012A      |         298 |
|      74 | 0x0887      |        2183 |
|      75 | 0xFFFC8297  |  4294738583 |
|      76 | 0xE4A6      |       58534 |
|      77 | 0xFFFFFF6D  |  4294967149 |
|      78 | 0x00E6      |         230 |

## String References

- **7345**: Ho there, soldier. You must be the extra pair of hands Chief Sturm sent word about.
- **7346**: No time for pleasantries, I'm afraid, so perk them ears up and pay attention to the briefing.
- **7347**: The Republic's task is the strategic blastin' of key locations in these caverns, and you're gonna be helpin' us out.
- **7348**: An assortment of our scout and engineer operatives--twenty-four in all--have already assumed positions and planted the explosive charges.
- **7349**: By detonatin' these charges, we weaken the structural integrity of the entire passageway, primin' it for the big one that'll send them filthy beastmen scurryin' back to their den. That is, if they don't get buried alive first. Hra hra hra!
- **7350**: But here's the rub. Simultaneously detonatin' all the charges would draw the enemy's attention and blow our cover. That's why we'll be doin' it bit by bit, one explosion after the next.
- **7351**: And this is where you come in, soldier. You'll be the fuse, so to speak. Huh? What's that supposed to mean, you ask? I was just gettin' to that.
- **7352**: First, I'll administer you with a special stimulant that'll boost your movement speed. But that's not its only function, mind you.
- **7353**: Approach an operative while the stimulant's still in effect. That's their cue to detonate their charge and then leave the caverns.
- **7354**: Report back to me when all twenty-four charges have been detonated and all operatives have safely evacuated.
- **7355**: There's one detail you oughta keep in mind. As a countermeasure against espionage, the stimulant's effect is designed to fade out after a time. But the benefits'll remain so long as you keep movin' and settin' off the charges.
- **7356**: If the stimulant wears off halfway, come back here by either talkin' to an operative or by usin' one of them ensigns.
- **7357**: Of course this means you'll have to start the mission over from the top.
- **7358**: What the hell's an "ensign," you ask? See that thing behind you? That's an ensign. One of Republican persuasion, to be precise.
- **7359**: Six of these've been placed throughout the caverns to expedite our operatives' movement. They should come in handy if you're plannin' on doin' the mission as a group, as well as in emergencies.
- **7360**: Now, here's one last tip before I send you off. The instant a charge is detonated, run towards the blast. Beyond the explosion, you'll find your next man.
- **7361**: Now then, I'm gonna administer the stimulant. Report back to me after all twenty-four charges've been detonated and the operatives safely evacuated. The same goes for if you fail.
- **7362**: Are we good to go?
- **7363**: Good to go? [Let's get it on!/I wasn't paying attention...]
- **7364**: The mission is commenced! Move it, move it, move it!
- **7366**: So...you failed. What will you do, soldier?
- **7367**: What would you like to do? [I want wings to fly!/Listen to briefing./Give up and go home.]
- **7368**: You will be transported from the area. Do you wish to proceed?
- **7369**: Give up and leave the area? [Not yet./Right away.]
- **7370**: Are we good to go? [Let's get it on!/Listen to briefing./Give up and go home.]
- **7371**: Welcome back, soldier. The mission was a great success, thanks to you. Now all that's left to do is wait for the command to send everything crumblin' down.
- **7372**: Chief Sturm herself will be sure to hear of your exploits from me. You can count on it, soldier.
- **7373**: Be transported where? [Republic Ensign I./Republic Ensign II./Republic Ensign III./Republic Ensign IV./Republic Ensign V./Republic Ensign VI./Nowhere.]

## Events

### Event 65535

#### Metadata

| Field        | Value   |
|--------------|---------|
| Entrypoint   | 0x0000  |
| Data Size    | 1 bytes |
| Instructions | 1       |

```
      00 01 02 03 04 05 06 07  08 09 0A 0B 0C 0D 0E 0F
      -- -- -- -- -- -- -- --  -- -- -- -- -- -- -- --
0000: 00                                                .               
```

#### Opcodes

```
  0: 0x0000 [0x00] END_REQSTACK()
```

### Event 10

#### Metadata

| Field        | Value     |
|--------------|-----------|
| Entrypoint   | 0x0001    |
| Data Size    | 514 bytes |
| Instructions | 92        |

```
      00 01 02 03 04 05 06 07  08 09 0A 0B 0C 0D 0E 0F
      -- -- -- -- -- -- -- --  -- -- -- -- -- -- -- --
0000:    20 01 42 46 01 45 00  80 F0 FF FF 7F F0 FF FF    .BF.E.........
0010: 7F 66 64 6F 31 01 80 1C  02 80 38 03 80 BA F0 FF  .fdo1.....8.....
0020: FF 7F 04 80 05 80 06 80  07 80 80 F0 FF FF 7F 92  ................
0030: 01 00 11 08 01 80 00 11  08 01 4E 00 09 11 08 01  ..........N.....
0040: 4E 00 0A 11 08 01 4E 00  0B 11 08 01 80 09 11 08  N.....N.........
0050: 01 80 0A 11 08 01 80 0B  11 08 01 92 01 09 11 08  ................
0060: 01 92 01 0A 11 08 01 92  01 0B 11 08 01 1E F0 FF  ................
0070: FF 7F 45 08 80 F0 FF FF  7F F0 FF FF 7F 35 31 33  ..E..........513
0080: 31 01 80 45 00 80 F0 FF  FF 7F F0 FF FF 7F 66 64  1..E..........fd
0090: 69 31 01 80 1C 02 80 1D  09 80 23 1D 0A 80 23 52  i1........#...#R
00A0: 08 80 F0 FF FF 7F F0 FF  FF 7F 35 31 33 31 45 00  ..........5131E.
00B0: 80 F0 FF FF 7F F0 FF FF  7F 6F 76 6C 31 01 80 45  .........ovl1..E
00C0: 08 80 F0 FF FF 7F F0 FF  FF 7F 35 31 33 33 01 80  ..........5133..
00D0: 1D 0B 80 23 1D 0C 80 23  1D 0D 80 23 1D 0E 80 23  ...#...#...#...#
00E0: 1D 0F 80 23 52 08 80 F0  FF FF 7F F0 FF FF 7F 35  ...#R..........5
00F0: 31 33 33 45 00 80 F0 FF  FF 7F F0 FF FF 7F 6F 76  133E..........ov
0100: 6C 31 01 80 45 08 80 F0  FF FF 7F F0 FF FF 7F 35  l1..E..........5
0110: 31 33 32 01 80 1D 10 80  23 1D 11 80 23 1D 12 80  132.....#...#...
0120: 23 1D 13 80 23 1D 14 80  23 1D 15 80 23 52 08 80  #...#...#...#R..
0130: F0 FF FF 7F F0 FF FF 7F  35 31 33 32 45 08 80 F0  ........5132E...
0140: FF FF 7F F0 FF FF 7F 6D  35 31 33 01 80 1D 16 80  .......m513.....
0150: 23 1D 17 80 23 1D 18 80  23 1D 19 80 23 1D 1A 80  #...#...#...#...
0160: 23 24 1B 80 01 80 01 80  25 02 00 10 01 80 00 8F  #$......%.......
0170: 01 43 00 43 01 03 01 10  1C 80 1D 1D 80 23 73 1E  .C.C.........#s.
0180: 80 00 11 08 01 F0 FF FF  7F 1C 1F 80 01 BD 01 02  ................
0190: 00 10 1C 80 00 BD 01 52  08 80 F0 FF FF 7F F0 FF  .......R........
01A0: FF 7F 6D 35 31 33 45 00  80 F0 FF FF 7F F0 FF FF  ..m513E.........
01B0: 7F 6F 76 6C 31 01 80 01  BF 00 01 BD 01 45 00 80  .ovl1........E..
01C0: F0 FF FF 7F F0 FF FF 7F  66 64 6F 31 01 80 1C 02  ........fdo1....
01D0: 80 52 08 80 F0 FF FF 7F  F0 FF FF 7F 6D 35 31 33  .R..........m513
01E0: 47 00 20 80 21 80 06 80  22 80 47 01 46 00 45 00  G. .!...".G.F.E.
01F0: 80 F0 FF FF 7F F0 FF FF  7F 66 64 69 31 01 80 20  .........fdi1.. 
0200: 00 21 00                                          .!.             
```

#### Opcodes

```
  0: 0x0001 [0x20] SET_CLI_EVENT_UC_FLAG: Lock player control
  1: 0x0003 [0x42] SET_CLI_EVENT_CANCEL_DATA()
  2: 0x0004 [0x46] CAMERA_CONTROL: Disable user control
  3: 0x0006 [0x45] LOAD_SCHEDULED_TASK: Load scheduler "fdo1" with entities [LocalPlayer, LocalPlayer], work=[200*, 0*]
  4: 0x0017 [0x1C] WAIT(60* ticks)
  5: 0x001A [0x38] SET_CLIENT_EVENT_MODE(mode=19*)
  6: 0x001D [0xBA] SET_ENTITY_POSITION(entity_id=LocalPlayer, pos_x=-245.166*, pos_z=-115.673*, pos_y=-0.263*, direction=223.9°*)
  7: 0x002A [0x80] LOAD_WAIT(entity=LocalPlayer)
  8: 0x002F [0x92] Antje (ID: 17305856/0x01081100)->Render.Flags3 ^= 0x01
  9: 0x0035 [0x80] LOAD_WAIT(entity=Antje (ID: 17305856/0x01081100))
 10: 0x003A [0x4E] SET_ENTITY_HIDE_FLAG: Show 2nd Legion Scout (ID: 17305865/0x01081109)
 11: 0x0040 [0x4E] SET_ENTITY_HIDE_FLAG: Show 7th Cohors Engineer (ID: 17305866/0x0108110A)
 12: 0x0046 [0x4E] SET_ENTITY_HIDE_FLAG: Show 7th Cohors Engineer (ID: 17305867/0x0108110B)
 13: 0x004C [0x80] LOAD_WAIT(entity=2nd Legion Scout (ID: 17305865/0x01081109))
 14: 0x0051 [0x80] LOAD_WAIT(entity=7th Cohors Engineer (ID: 17305866/0x0108110A))
 15: 0x0056 [0x80] LOAD_WAIT(entity=7th Cohors Engineer (ID: 17305867/0x0108110B))
 16: 0x005B [0x92] 2nd Legion Scout (ID: 17305865/0x01081109)->Render.Flags3 ^= 0x01
 17: 0x0061 [0x92] 7th Cohors Engineer (ID: 17305866/0x0108110A)->Render.Flags3 ^= 0x01
 18: 0x0067 [0x92] 7th Cohors Engineer (ID: 17305867/0x0108110B)->Render.Flags3 ^= 0x01
 19: 0x006D [0x1E] EventEntity looks at LocalPlayer and starts talking
 20: 0x0072 [0x45] LOAD_SCHEDULED_TASK: Load scheduler "5131" with entities [LocalPlayer, LocalPlayer], work=[457*, 0*]
 21: 0x0083 [0x45] LOAD_SCHEDULED_TASK: Load scheduler "fdi1" with entities [LocalPlayer, LocalPlayer], work=[200*, 0*]
 22: 0x0094 [0x1C] WAIT(60* ticks)
 23: 0x0097 [0x1D] PRINT_EVENT_MESSAGE(message_id=7345*)
    → "Ho there, soldier. You must be the extra pair of hands Chief Sturm sent word about."
 24: 0x009A [0x23] WAIT_FOR_DIALOG_INTERACTION
 25: 0x009B [0x1D] PRINT_EVENT_MESSAGE(message_id=7346*)
    → "No time for pleasantries, I'm afraid, so perk them ears up and pay attention to the briefing."
 26: 0x009E [0x23] WAIT_FOR_DIALOG_INTERACTION
 27: 0x009F [0x52] END_LOAD_SCHEDULER: End scheduler "5131" with entities [LocalPlayer, LocalPlayer], work=457*
 28: 0x00AE [0x45] LOAD_SCHEDULED_TASK: Load scheduler "ovl1" with entities [LocalPlayer, LocalPlayer], work=[200*, 0*]
 29: 0x00BF [0x45] LOAD_SCHEDULED_TASK: Load scheduler "5133" with entities [LocalPlayer, LocalPlayer], work=[457*, 0*]
 30: 0x00D0 [0x1D] PRINT_EVENT_MESSAGE(message_id=7347*)
    → "The Republic's task is the strategic blastin' of key locations in these caverns, and you're gonna be helpin' us out."
 31: 0x00D3 [0x23] WAIT_FOR_DIALOG_INTERACTION
 32: 0x00D4 [0x1D] PRINT_EVENT_MESSAGE(message_id=7348*)
    → "An assortment of our scout and engineer operatives--twenty-four in all--have already assumed positions and planted the explosive charges."
 33: 0x00D7 [0x23] WAIT_FOR_DIALOG_INTERACTION
 34: 0x00D8 [0x1D] PRINT_EVENT_MESSAGE(message_id=7349*)
    → "By detonatin' these charges, we weaken the structural integrity of the entire passageway, primin' it for the big one that'll send them filthy beastmen scurryin' back to their den. That is, if they don't get buried alive first. Hra hra hra!"
 35: 0x00DB [0x23] WAIT_FOR_DIALOG_INTERACTION
 36: 0x00DC [0x1D] PRINT_EVENT_MESSAGE(message_id=7350*)
    → "But here's the rub. Simultaneously detonatin' all the charges would draw the enemy's attention and blow our cover. That's why we'll be doin' it bit by bit, one explosion after the next."
 37: 0x00DF [0x23] WAIT_FOR_DIALOG_INTERACTION
 38: 0x00E0 [0x1D] PRINT_EVENT_MESSAGE(message_id=7351*)
    → "And this is where you come in, soldier. You'll be the fuse, so to speak. Huh? What's that supposed to mean, you ask? I was just gettin' to that."
 39: 0x00E3 [0x23] WAIT_FOR_DIALOG_INTERACTION
 40: 0x00E4 [0x52] END_LOAD_SCHEDULER: End scheduler "5133" with entities [LocalPlayer, LocalPlayer], work=457*
 41: 0x00F3 [0x45] LOAD_SCHEDULED_TASK: Load scheduler "ovl1" with entities [LocalPlayer, LocalPlayer], work=[200*, 0*]
 42: 0x0104 [0x45] LOAD_SCHEDULED_TASK: Load scheduler "5132" with entities [LocalPlayer, LocalPlayer], work=[457*, 0*]
 43: 0x0115 [0x1D] PRINT_EVENT_MESSAGE(message_id=7352*)
    → "First, I'll administer you with a special stimulant that'll boost your movement speed. But that's not its only function, mind you."
 44: 0x0118 [0x23] WAIT_FOR_DIALOG_INTERACTION
 45: 0x0119 [0x1D] PRINT_EVENT_MESSAGE(message_id=7353*)
    → "Approach an operative while the stimulant's still in effect. That's their cue to detonate their charge and then leave the caverns."
 46: 0x011C [0x23] WAIT_FOR_DIALOG_INTERACTION
 47: 0x011D [0x1D] PRINT_EVENT_MESSAGE(message_id=7354*)
    → "Report back to me when all twenty-four charges have been detonated and all operatives have safely evacuated."
 48: 0x0120 [0x23] WAIT_FOR_DIALOG_INTERACTION
 49: 0x0121 [0x1D] PRINT_EVENT_MESSAGE(message_id=7355*)
    → "There's one detail you oughta keep in mind. As a countermeasure against espionage, the stimulant's effect is designed to fade out after a time. But the benefits'll remain so long as you keep movin' and settin' off the charges."
 50: 0x0124 [0x23] WAIT_FOR_DIALOG_INTERACTION
 51: 0x0125 [0x1D] PRINT_EVENT_MESSAGE(message_id=7356*)
    → "If the stimulant wears off halfway, come back here by either talkin' to an operative or by usin' one of them ensigns."
 52: 0x0128 [0x23] WAIT_FOR_DIALOG_INTERACTION
 53: 0x0129 [0x1D] PRINT_EVENT_MESSAGE(message_id=7357*)
    → "Of course this means you'll have to start the mission over from the top."
 54: 0x012C [0x23] WAIT_FOR_DIALOG_INTERACTION
 55: 0x012D [0x52] END_LOAD_SCHEDULER: End scheduler "5132" with entities [LocalPlayer, LocalPlayer], work=457*
 56: 0x013C [0x45] LOAD_SCHEDULED_TASK: Load scheduler "m513" with entities [LocalPlayer, LocalPlayer], work=[457*, 0*]
 57: 0x014D [0x1D] PRINT_EVENT_MESSAGE(message_id=7358*)
    → "What the hell's an "ensign," you ask? See that thing behind you? That's an ensign. One of Republican persuasion, to be precise."
 58: 0x0150 [0x23] WAIT_FOR_DIALOG_INTERACTION
 59: 0x0151 [0x1D] PRINT_EVENT_MESSAGE(message_id=7359*)
    → "Six of these've been placed throughout the caverns to expedite our operatives' movement. They should come in handy if you're plannin' on doin' the mission as a group, as well as in emergencies."
 60: 0x0154 [0x23] WAIT_FOR_DIALOG_INTERACTION
 61: 0x0155 [0x1D] PRINT_EVENT_MESSAGE(message_id=7360*)
    → "Now, here's one last tip before I send you off. The instant a charge is detonated, run towards the blast. Beyond the explosion, you'll find your next man."
 62: 0x0158 [0x23] WAIT_FOR_DIALOG_INTERACTION
 63: 0x0159 [0x1D] PRINT_EVENT_MESSAGE(message_id=7361*)
    → "Now then, I'm gonna administer the stimulant. Report back to me after all twenty-four charges've been detonated and the operatives safely evacuated. The same goes for if you fail."
 64: 0x015C [0x23] WAIT_FOR_DIALOG_INTERACTION
 65: 0x015D [0x1D] PRINT_EVENT_MESSAGE(message_id=7362*)
    → "Are we good to go?"
 66: 0x0160 [0x23] WAIT_FOR_DIALOG_INTERACTION
 67: 0x0161 [0x24] CREATE_DIALOG(message_id=7363*, default_option=0*, option_flags=0*)
    → "Good to go? [Let's get it on!/I wasn't paying attention...]"
 68: 0x0168 [0x25] WAIT_DIALOG_SELECT()
 69: 0x0169 [0x02] IF !(Work_Zone[0] == 0*) GOTO 0x018F
 70: 0x0171 [0x43] SEND_EVENT_UPDATE: Send pending tag to server (packet 0x005B)
 71: 0x0173 [0x43] SEND_EVENT_UPDATE: Check pending flag (skip if not pending)
 72: 0x0175 [0x03] Work_Zone[1] = 1*
 73: 0x017A [0x1D] PRINT_EVENT_MESSAGE(message_id=7364*)
    → "The mission is commenced! Move it, move it, move it!"
 74: 0x017D [0x23] WAIT_FOR_DIALOG_INTERACTION
 75: 0x017E [0x73] Antje (ID: 17305856/0x01081100) casts magic 497* on LocalPlayer
 76: 0x0189 [0x1C] WAIT(30* ticks)
 77: 0x018C [0x01] GOTO 0x01BD
 78: 0x018F [0x02] IF !(Work_Zone[0] == 1*) GOTO 0x01BD
 79: 0x0197 [0x52] END_LOAD_SCHEDULER: End scheduler "m513" with entities [LocalPlayer, LocalPlayer], work=457*
 80: 0x01A6 [0x45] LOAD_SCHEDULED_TASK: Load scheduler "ovl1" with entities [LocalPlayer, LocalPlayer], work=[200*, 0*]
 81: 0x01B7 [0x01] GOTO 0x00BF

SUBROUTINE_01BD:
 82: 0x01BD [0x45] LOAD_SCHEDULED_TASK: Load scheduler "fdo1" with entities [LocalPlayer, LocalPlayer], work=[200*, 0*]
 83: 0x01CE [0x1C] WAIT(60* ticks)
 84: 0x01D1 [0x52] END_LOAD_SCHEDULER: End scheduler "m513" with entities [LocalPlayer, LocalPlayer], work=457*
 85: 0x01E0 [0x47] UPDATE_PLAYER_POS(-245.000*, -115.000*, -0.263*, yaw=51.9°*)
 86: 0x01EA [0x47] WAIT_PLAYER_POS_UPDATE
 87: 0x01EC [0x46] CAMERA_CONTROL: Restore default settings
 88: 0x01EE [0x45] LOAD_SCHEDULED_TASK: Load scheduler "fdi1" with entities [LocalPlayer, LocalPlayer], work=[200*, 0*]
 89: 0x01FF [0x20] SET_CLI_EVENT_UC_FLAG: Unlock player control
 90: 0x0201 [0x21] END_EVENT
 91: 0x0202 [0x00] END_REQSTACK()
```

#### Data or dead code:

```
# Dead code (unreachable instructions):
     0x01BA [0x01] GOTO 0x01BD
```

### Event 11

#### Metadata

| Field        | Value     |
|--------------|-----------|
| Entrypoint   | 0x0203    |
| Data Size    | 683 bytes |
| Instructions | 101       |

```
      00 01 02 03 04 05 06 07  08 09 0A 0B 0C 0D 0E 0F
      -- -- -- -- -- -- -- --  -- -- -- -- -- -- -- --
0200:          20 01 42 46 01  45 00 80 F0 FF FF 7F F0      .BF.E.......
0210: FF FF 7F 66 64 6F 31 01  80 1C 02 80 38 03 80 BA  ...fdo1.....8...
0220: F0 FF FF 7F 04 80 05 80  06 80 07 80 80 F0 FF FF  ................
0230: 7F 92 01 00 11 08 01 80  00 11 08 01 4E 00 09 11  ............N...
0240: 08 01 4E 00 0A 11 08 01  4E 00 0B 11 08 01 80 09  ..N.....N.......
0250: 11 08 01 80 0A 11 08 01  80 0B 11 08 01 92 01 09  ................
0260: 11 08 01 92 01 0A 11 08  01 92 01 0B 11 08 01 1E  ................
0270: F0 FF FF 7F 45 08 80 F0  FF FF 7F F0 FF FF 7F 35  ....E..........5
0280: 31 33 31 01 80 45 00 80  F0 FF FF 7F F0 FF FF 7F  131..E..........
0290: 66 64 69 31 01 80 1C 02  80 1D 23 80 23 24 24 80  fdi1......#.#$$.
02A0: 01 80 01 80 25 02 00 10  01 80 00 CE 02 43 00 43  ....%........C.C
02B0: 01 03 01 10 1C 80 1D 1D  80 23 73 1E 80 00 11 08  .........#s.....
02C0: 01 F0 FF FF 7F 1C 1F 80  01 68 04 01 33 03 02 00  .........h..3...
02D0: 10 1C 80 00 FC 02 52 08  80 F0 FF FF 7F F0 FF FF  ......R.........
02E0: 7F 6D 35 31 33 45 00 80  F0 FF FF 7F F0 FF FF 7F  .m513E..........
02F0: 6F 76 6C 31 01 80 01 53  03 01 33 03 02 00 10 25  ovl1...S..3....%
0300: 80 00 33 03 48 26 80 24  27 80 01 80 01 80 25 02  ..3.H&.$'.....%.
0310: 00 10 01 80 00 1D 03 01  99 02 01 30 03 02 00 10  ...........0....
0320: 1C 80 00 30 03 03 01 10  25 80 01 68 04 01 30 03  ...0....%..h..0.
0330: 01 33 03 52 08 80 F0 FF  FF 7F F0 FF FF 7F 35 31  .3.R..........51
0340: 33 31 45 00 80 F0 FF FF  7F F0 FF FF 7F 6F 76 6C  31E..........ovl
0350: 31 01 80 45 08 80 F0 FF  FF 7F F0 FF FF 7F 35 31  1..E..........51
0360: 33 33 01 80 1D 0B 80 23  1D 0C 80 23 1D 0D 80 23  33.....#...#...#
0370: 1D 0E 80 23 1D 0F 80 23  52 08 80 F0 FF FF 7F F0  ...#...#R.......
0380: FF FF 7F 35 31 33 33 45  00 80 F0 FF FF 7F F0 FF  ...5133E........
0390: FF 7F 6F 76 6C 31 01 80  45 08 80 F0 FF FF 7F F0  ..ovl1..E.......
03A0: FF FF 7F 35 31 33 32 01  80 1D 10 80 23 1D 11 80  ...5132.....#...
03B0: 23 1D 12 80 23 1D 13 80  23 1D 14 80 23 1D 15 80  #...#...#...#...
03C0: 23 52 08 80 F0 FF FF 7F  F0 FF FF 7F 35 31 33 32  #R..........5132
03D0: 45 08 80 F0 FF FF 7F F0  FF FF 7F 6D 35 31 33 01  E..........m513.
03E0: 80 1D 16 80 23 1D 17 80  23 1D 18 80 23 1D 19 80  ....#...#...#...
03F0: 23 1D 1A 80 23 24 28 80  01 80 01 80 25 02 00 10  #...#$(.....%...
0400: 01 80 00 23 04 43 00 43  01 03 01 10 1C 80 1D 1D  ...#.C.C........
0410: 80 23 73 1E 80 00 11 08  01 F0 FF FF 7F 1C 1F 80  .#s.............
0420: 01 68 04 02 00 10 1C 80  00 31 04 01 53 03 01 68  .h.......1..S..h
0430: 04 02 00 10 25 80 00 68  04 48 26 80 24 27 80 01  ....%..h.H&.$'..
0440: 80 01 80 25 02 00 10 01  80 00 52 04 01 99 02 01  ...%......R.....
0450: 65 04 02 00 10 1C 80 00  65 04 03 01 10 25 80 01  e.......e....%..
0460: 68 04 01 65 04 01 68 04  45 00 80 F0 FF FF 7F F0  h..e..h.E.......
0470: FF FF 7F 66 64 6F 31 01  80 1C 02 80 52 08 80 F0  ...fdo1.....R...
0480: FF FF 7F F0 FF FF 7F 6D  35 31 33 47 00 20 80 21  .......m513G. .!
0490: 80 06 80 22 80 47 01 46  00 45 00 80 F0 FF FF 7F  ...".G.F.E......
04A0: F0 FF FF 7F 66 64 69 31  01 80 20 00 21 00        ....fdi1.. .!.  
```

#### Opcodes

```
  0: 0x0203 [0x20] SET_CLI_EVENT_UC_FLAG: Lock player control
  1: 0x0205 [0x42] SET_CLI_EVENT_CANCEL_DATA()
  2: 0x0206 [0x46] CAMERA_CONTROL: Disable user control
  3: 0x0208 [0x45] LOAD_SCHEDULED_TASK: Load scheduler "fdo1" with entities [LocalPlayer, LocalPlayer], work=[200*, 0*]
  4: 0x0219 [0x1C] WAIT(60* ticks)
  5: 0x021C [0x38] SET_CLIENT_EVENT_MODE(mode=19*)
  6: 0x021F [0xBA] SET_ENTITY_POSITION(entity_id=LocalPlayer, pos_x=-245.166*, pos_z=-115.673*, pos_y=-0.263*, direction=223.9°*)
  7: 0x022C [0x80] LOAD_WAIT(entity=LocalPlayer)
  8: 0x0231 [0x92] Antje (ID: 17305856/0x01081100)->Render.Flags3 ^= 0x01
  9: 0x0237 [0x80] LOAD_WAIT(entity=Antje (ID: 17305856/0x01081100))
 10: 0x023C [0x4E] SET_ENTITY_HIDE_FLAG: Show 2nd Legion Scout (ID: 17305865/0x01081109)
 11: 0x0242 [0x4E] SET_ENTITY_HIDE_FLAG: Show 7th Cohors Engineer (ID: 17305866/0x0108110A)
 12: 0x0248 [0x4E] SET_ENTITY_HIDE_FLAG: Show 7th Cohors Engineer (ID: 17305867/0x0108110B)
 13: 0x024E [0x80] LOAD_WAIT(entity=2nd Legion Scout (ID: 17305865/0x01081109))
 14: 0x0253 [0x80] LOAD_WAIT(entity=7th Cohors Engineer (ID: 17305866/0x0108110A))
 15: 0x0258 [0x80] LOAD_WAIT(entity=7th Cohors Engineer (ID: 17305867/0x0108110B))
 16: 0x025D [0x92] 2nd Legion Scout (ID: 17305865/0x01081109)->Render.Flags3 ^= 0x01
 17: 0x0263 [0x92] 7th Cohors Engineer (ID: 17305866/0x0108110A)->Render.Flags3 ^= 0x01
 18: 0x0269 [0x92] 7th Cohors Engineer (ID: 17305867/0x0108110B)->Render.Flags3 ^= 0x01
 19: 0x026F [0x1E] EventEntity looks at LocalPlayer and starts talking
 20: 0x0274 [0x45] LOAD_SCHEDULED_TASK: Load scheduler "5131" with entities [LocalPlayer, LocalPlayer], work=[457*, 0*]
 21: 0x0285 [0x45] LOAD_SCHEDULED_TASK: Load scheduler "fdi1" with entities [LocalPlayer, LocalPlayer], work=[200*, 0*]
 22: 0x0296 [0x1C] WAIT(60* ticks)
 23: 0x0299 [0x1D] PRINT_EVENT_MESSAGE(message_id=7366*)
    → "So...you failed. What will you do, soldier?"
 24: 0x029C [0x23] WAIT_FOR_DIALOG_INTERACTION
 25: 0x029D [0x24] CREATE_DIALOG(message_id=7367*, default_option=0*, option_flags=0*)
    → "What would you like to do? [I want wings to fly!/Listen to briefing./Give up and go home.]"
 26: 0x02A4 [0x25] WAIT_DIALOG_SELECT()
 27: 0x02A5 [0x02] IF !(Work_Zone[0] == 0*) GOTO 0x02CE
 28: 0x02AD [0x43] SEND_EVENT_UPDATE: Send pending tag to server (packet 0x005B)
 29: 0x02AF [0x43] SEND_EVENT_UPDATE: Check pending flag (skip if not pending)
 30: 0x02B1 [0x03] Work_Zone[1] = 1*
 31: 0x02B6 [0x1D] PRINT_EVENT_MESSAGE(message_id=7364*)
    → "The mission is commenced! Move it, move it, move it!"
 32: 0x02B9 [0x23] WAIT_FOR_DIALOG_INTERACTION
 33: 0x02BA [0x73] Antje (ID: 17305856/0x01081100) casts magic 497* on LocalPlayer
 34: 0x02C5 [0x1C] WAIT(30* ticks)
 35: 0x02C8 [0x01] GOTO 0x0468

SUBROUTINE_0330:
 36: 0x0330 [0x01] GOTO 0x0333

SUBROUTINE_0333:
 37: 0x0333 [0x52] END_LOAD_SCHEDULER: End scheduler "5131" with entities [LocalPlayer, LocalPlayer], work=457*
 38: 0x0342 [0x45] LOAD_SCHEDULED_TASK: Load scheduler "ovl1" with entities [LocalPlayer, LocalPlayer], work=[200*, 0*]

SUBROUTINE_0353:
 39: 0x0353 [0x45] LOAD_SCHEDULED_TASK: Load scheduler "5133" with entities [LocalPlayer, LocalPlayer], work=[457*, 0*]
 40: 0x0364 [0x1D] PRINT_EVENT_MESSAGE(message_id=7347*)
    → "The Republic's task is the strategic blastin' of key locations in these caverns, and you're gonna be helpin' us out."
 41: 0x0367 [0x23] WAIT_FOR_DIALOG_INTERACTION
 42: 0x0368 [0x1D] PRINT_EVENT_MESSAGE(message_id=7348*)
    → "An assortment of our scout and engineer operatives--twenty-four in all--have already assumed positions and planted the explosive charges."
 43: 0x036B [0x23] WAIT_FOR_DIALOG_INTERACTION
 44: 0x036C [0x1D] PRINT_EVENT_MESSAGE(message_id=7349*)
    → "By detonatin' these charges, we weaken the structural integrity of the entire passageway, primin' it for the big one that'll send them filthy beastmen scurryin' back to their den. That is, if they don't get buried alive first. Hra hra hra!"
 45: 0x036F [0x23] WAIT_FOR_DIALOG_INTERACTION
 46: 0x0370 [0x1D] PRINT_EVENT_MESSAGE(message_id=7350*)
    → "But here's the rub. Simultaneously detonatin' all the charges would draw the enemy's attention and blow our cover. That's why we'll be doin' it bit by bit, one explosion after the next."
 47: 0x0373 [0x23] WAIT_FOR_DIALOG_INTERACTION
 48: 0x0374 [0x1D] PRINT_EVENT_MESSAGE(message_id=7351*)
    → "And this is where you come in, soldier. You'll be the fuse, so to speak. Huh? What's that supposed to mean, you ask? I was just gettin' to that."
 49: 0x0377 [0x23] WAIT_FOR_DIALOG_INTERACTION
 50: 0x0378 [0x52] END_LOAD_SCHEDULER: End scheduler "5133" with entities [LocalPlayer, LocalPlayer], work=457*
 51: 0x0387 [0x45] LOAD_SCHEDULED_TASK: Load scheduler "ovl1" with entities [LocalPlayer, LocalPlayer], work=[200*, 0*]
 52: 0x0398 [0x45] LOAD_SCHEDULED_TASK: Load scheduler "5132" with entities [LocalPlayer, LocalPlayer], work=[457*, 0*]
 53: 0x03A9 [0x1D] PRINT_EVENT_MESSAGE(message_id=7352*)
    → "First, I'll administer you with a special stimulant that'll boost your movement speed. But that's not its only function, mind you."
 54: 0x03AC [0x23] WAIT_FOR_DIALOG_INTERACTION
 55: 0x03AD [0x1D] PRINT_EVENT_MESSAGE(message_id=7353*)
    → "Approach an operative while the stimulant's still in effect. That's their cue to detonate their charge and then leave the caverns."
 56: 0x03B0 [0x23] WAIT_FOR_DIALOG_INTERACTION
 57: 0x03B1 [0x1D] PRINT_EVENT_MESSAGE(message_id=7354*)
    → "Report back to me when all twenty-four charges have been detonated and all operatives have safely evacuated."
 58: 0x03B4 [0x23] WAIT_FOR_DIALOG_INTERACTION
 59: 0x03B5 [0x1D] PRINT_EVENT_MESSAGE(message_id=7355*)
    → "There's one detail you oughta keep in mind. As a countermeasure against espionage, the stimulant's effect is designed to fade out after a time. But the benefits'll remain so long as you keep movin' and settin' off the charges."
 60: 0x03B8 [0x23] WAIT_FOR_DIALOG_INTERACTION
 61: 0x03B9 [0x1D] PRINT_EVENT_MESSAGE(message_id=7356*)
    → "If the stimulant wears off halfway, come back here by either talkin' to an operative or by usin' one of them ensigns."
 62: 0x03BC [0x23] WAIT_FOR_DIALOG_INTERACTION
 63: 0x03BD [0x1D] PRINT_EVENT_MESSAGE(message_id=7357*)
    → "Of course this means you'll have to start the mission over from the top."
 64: 0x03C0 [0x23] WAIT_FOR_DIALOG_INTERACTION
 65: 0x03C1 [0x52] END_LOAD_SCHEDULER: End scheduler "5132" with entities [LocalPlayer, LocalPlayer], work=457*
 66: 0x03D0 [0x45] LOAD_SCHEDULED_TASK: Load scheduler "m513" with entities [LocalPlayer, LocalPlayer], work=[457*, 0*]
 67: 0x03E1 [0x1D] PRINT_EVENT_MESSAGE(message_id=7358*)
    → "What the hell's an "ensign," you ask? See that thing behind you? That's an ensign. One of Republican persuasion, to be precise."
 68: 0x03E4 [0x23] WAIT_FOR_DIALOG_INTERACTION
 69: 0x03E5 [0x1D] PRINT_EVENT_MESSAGE(message_id=7359*)
    → "Six of these've been placed throughout the caverns to expedite our operatives' movement. They should come in handy if you're plannin' on doin' the mission as a group, as well as in emergencies."
 70: 0x03E8 [0x23] WAIT_FOR_DIALOG_INTERACTION
 71: 0x03E9 [0x1D] PRINT_EVENT_MESSAGE(message_id=7360*)
    → "Now, here's one last tip before I send you off. The instant a charge is detonated, run towards the blast. Beyond the explosion, you'll find your next man."
 72: 0x03EC [0x23] WAIT_FOR_DIALOG_INTERACTION
 73: 0x03ED [0x1D] PRINT_EVENT_MESSAGE(message_id=7361*)
    → "Now then, I'm gonna administer the stimulant. Report back to me after all twenty-four charges've been detonated and the operatives safely evacuated. The same goes for if you fail."
 74: 0x03F0 [0x23] WAIT_FOR_DIALOG_INTERACTION
 75: 0x03F1 [0x1D] PRINT_EVENT_MESSAGE(message_id=7362*)
    → "Are we good to go?"
 76: 0x03F4 [0x23] WAIT_FOR_DIALOG_INTERACTION
 77: 0x03F5 [0x24] CREATE_DIALOG(message_id=7370*, default_option=0*, option_flags=0*)
    → "Are we good to go? [Let's get it on!/Listen to briefing./Give up and go home.]"
 78: 0x03FC [0x25] WAIT_DIALOG_SELECT()
 79: 0x03FD [0x02] IF !(Work_Zone[0] == 0*) GOTO 0x0423
 80: 0x0405 [0x43] SEND_EVENT_UPDATE: Send pending tag to server (packet 0x005B)
 81: 0x0407 [0x43] SEND_EVENT_UPDATE: Check pending flag (skip if not pending)
 82: 0x0409 [0x03] Work_Zone[1] = 1*
 83: 0x040E [0x1D] PRINT_EVENT_MESSAGE(message_id=7364*)
    → "The mission is commenced! Move it, move it, move it!"
 84: 0x0411 [0x23] WAIT_FOR_DIALOG_INTERACTION
 85: 0x0412 [0x73] Antje (ID: 17305856/0x01081100) casts magic 497* on LocalPlayer
 86: 0x041D [0x1C] WAIT(30* ticks)
 87: 0x0420 [0x01] GOTO 0x0468
 88: 0x0423 [0x02] IF !(Work_Zone[0] == 1*) GOTO 0x0431
 89: 0x042B [0x01] GOTO 0x0353

SUBROUTINE_0465:
 90: 0x0465 [0x01] GOTO 0x0468

SUBROUTINE_0468:
 91: 0x0468 [0x45] LOAD_SCHEDULED_TASK: Load scheduler "fdo1" with entities [LocalPlayer, LocalPlayer], work=[200*, 0*]
 92: 0x0479 [0x1C] WAIT(60* ticks)
 93: 0x047C [0x52] END_LOAD_SCHEDULER: End scheduler "m513" with entities [LocalPlayer, LocalPlayer], work=457*
 94: 0x048B [0x47] UPDATE_PLAYER_POS(-245.000*, -115.000*, -0.263*, yaw=51.9°*)
 95: 0x0495 [0x47] WAIT_PLAYER_POS_UPDATE
 96: 0x0497 [0x46] CAMERA_CONTROL: Restore default settings
 97: 0x0499 [0x45] LOAD_SCHEDULED_TASK: Load scheduler "fdi1" with entities [LocalPlayer, LocalPlayer], work=[200*, 0*]
 98: 0x04AA [0x20] SET_CLI_EVENT_UC_FLAG: Unlock player control
 99: 0x04AC [0x21] END_EVENT
100: 0x04AD [0x00] END_REQSTACK()
```

#### Data or dead code:

```
# Dead code (unreachable instructions):
     0x02CB [0x01] GOTO 0x0333
     0x02F9 [0x01] GOTO 0x0333
     0x031A [0x01] GOTO 0x0330
     0x032D [0x01] GOTO 0x0330
# Dead code (unreachable instructions):
     0x042E [0x01] GOTO 0x0468
     0x044F [0x01] GOTO 0x0465
     0x0462 [0x01] GOTO 0x0465
```

### Event 12

#### Metadata

| Field        | Value     |
|--------------|-----------|
| Entrypoint   | 0x04AE    |
| Data Size    | 170 bytes |
| Instructions | 27        |

```
      00 01 02 03 04 05 06 07  08 09 0A 0B 0C 0D 0E 0F
      -- -- -- -- -- -- -- --  -- -- -- -- -- -- -- --
04A0:                                            20 01                 .
04B0: 42 46 01 45 00 80 F0 FF  FF 7F F0 FF FF 7F 66 64  BF.E..........fd
04C0: 6F 31 01 80 1C 02 80 38  03 80 BA F0 FF FF 7F 04  o1.....8........
04D0: 80 05 80 06 80 07 80 80  F0 FF FF 7F 92 01 00 11  ................
04E0: 08 01 80 00 11 08 01 1E  F0 FF FF 7F 45 08 80 F0  ............E...
04F0: FF FF 7F F0 FF FF 7F 35  31 33 32 01 80 45 00 80  .......5132..E..
0500: F0 FF FF 7F F0 FF FF 7F  66 64 69 31 01 80 1C 02  ........fdi1....
0510: 80 1D 29 80 23 1D 2A 80  23 03 01 10 1C 80 45 00  ..).#.*.#.....E.
0520: 80 F0 FF FF 7F F0 FF FF  7F 66 64 6F 31 01 80 1C  .........fdo1...
0530: 02 80 52 08 80 F0 FF FF  7F F0 FF FF 7F 35 31 33  ..R..........513
0540: 32 46 00 45 00 80 F0 FF  FF 7F F0 FF FF 7F 66 64  2F.E..........fd
0550: 69 31 01 80 20 00 21 00                           i1.. .!.        
```

#### Opcodes

```
  0: 0x04AE [0x20] SET_CLI_EVENT_UC_FLAG: Lock player control
  1: 0x04B0 [0x42] SET_CLI_EVENT_CANCEL_DATA()
  2: 0x04B1 [0x46] CAMERA_CONTROL: Disable user control
  3: 0x04B3 [0x45] LOAD_SCHEDULED_TASK: Load scheduler "fdo1" with entities [LocalPlayer, LocalPlayer], work=[200*, 0*]
  4: 0x04C4 [0x1C] WAIT(60* ticks)
  5: 0x04C7 [0x38] SET_CLIENT_EVENT_MODE(mode=19*)
  6: 0x04CA [0xBA] SET_ENTITY_POSITION(entity_id=LocalPlayer, pos_x=-245.166*, pos_z=-115.673*, pos_y=-0.263*, direction=223.9°*)
  7: 0x04D7 [0x80] LOAD_WAIT(entity=LocalPlayer)
  8: 0x04DC [0x92] Antje (ID: 17305856/0x01081100)->Render.Flags3 ^= 0x01
  9: 0x04E2 [0x80] LOAD_WAIT(entity=Antje (ID: 17305856/0x01081100))
 10: 0x04E7 [0x1E] EventEntity looks at LocalPlayer and starts talking
 11: 0x04EC [0x45] LOAD_SCHEDULED_TASK: Load scheduler "5132" with entities [LocalPlayer, LocalPlayer], work=[457*, 0*]
 12: 0x04FD [0x45] LOAD_SCHEDULED_TASK: Load scheduler "fdi1" with entities [LocalPlayer, LocalPlayer], work=[200*, 0*]
 13: 0x050E [0x1C] WAIT(60* ticks)
 14: 0x0511 [0x1D] PRINT_EVENT_MESSAGE(message_id=7371*)
    → "Welcome back, soldier. The mission was a great success, thanks to you. Now all that's left to do is wait for the command to send everything crumblin' down."
 15: 0x0514 [0x23] WAIT_FOR_DIALOG_INTERACTION
 16: 0x0515 [0x1D] PRINT_EVENT_MESSAGE(message_id=7372*)
    → "Chief Sturm herself will be sure to hear of your exploits from me. You can count on it, soldier."
 17: 0x0518 [0x23] WAIT_FOR_DIALOG_INTERACTION
 18: 0x0519 [0x03] Work_Zone[1] = 1*
 19: 0x051E [0x45] LOAD_SCHEDULED_TASK: Load scheduler "fdo1" with entities [LocalPlayer, LocalPlayer], work=[200*, 0*]
 20: 0x052F [0x1C] WAIT(60* ticks)
 21: 0x0532 [0x52] END_LOAD_SCHEDULER: End scheduler "5132" with entities [LocalPlayer, LocalPlayer], work=457*
 22: 0x0541 [0x46] CAMERA_CONTROL: Restore default settings
 23: 0x0543 [0x45] LOAD_SCHEDULED_TASK: Load scheduler "fdi1" with entities [LocalPlayer, LocalPlayer], work=[200*, 0*]
 24: 0x0554 [0x20] SET_CLI_EVENT_UC_FLAG: Unlock player control
 25: 0x0556 [0x21] END_EVENT
 26: 0x0557 [0x00] END_REQSTACK()
```

### Event 13

#### Metadata

| Field        | Value    |
|--------------|----------|
| Entrypoint   | 0x0558   |
| Data Size    | 52 bytes |
| Instructions | 14       |

```
      00 01 02 03 04 05 06 07  08 09 0A 0B 0C 0D 0E 0F
      -- -- -- -- -- -- -- --  -- -- -- -- -- -- -- --
0550:                          20 01 42 43 00 43 01 29           .BC.C.)
0560: 01 F0 FF FF 7F 02 47 00  2B 80 2C 80 2D 80 2E 80  ......G.+.,.-...
0570: 47 01 1C 1F 80 47 00 2F  80 30 80 31 80 32 80 47  G....G./.0.1.2.G
0580: 01 29 01 F0 FF FF 7F 03  20 00 21 00              .)...... .!.    
```

#### Opcodes

```
  0: 0x0558 [0x20] SET_CLI_EVENT_UC_FLAG: Lock player control
  1: 0x055A [0x42] SET_CLI_EVENT_CANCEL_DATA()
  2: 0x055B [0x43] SEND_EVENT_UPDATE: Send pending tag to server (packet 0x005B)
  3: 0x055D [0x43] SEND_EVENT_UPDATE: Check pending flag (skip if not pending)
  4: 0x055F [0x29] REQ_SET_WAIT(priority=0x01, entity_id=LocalPlayer, tag_num=0x02)
  5: 0x0566 [0x47] UPDATE_PLAYER_POS(-322.328*, -420.097*, -0.039*, yaw=220.2°*)
  6: 0x0570 [0x47] WAIT_PLAYER_POS_UPDATE
  7: 0x0572 [0x1C] WAIT(30* ticks)
  8: 0x0575 [0x47] UPDATE_PLAYER_POS(-236.196*, -122.592*, -0.227*, yaw=222.4°*)
  9: 0x057F [0x47] WAIT_PLAYER_POS_UPDATE
 10: 0x0581 [0x29] REQ_SET_WAIT(priority=0x01, entity_id=LocalPlayer, tag_num=0x03)
 11: 0x0588 [0x20] SET_CLI_EVENT_UC_FLAG: Unlock player control
 12: 0x058A [0x21] END_EVENT
 13: 0x058B [0x00] END_REQSTACK()
```

### Event 14

#### Metadata

| Field        | Value     |
|--------------|-----------|
| Entrypoint   | 0x058C    |
| Data Size    | 453 bytes |
| Instructions | 97        |

```
      00 01 02 03 04 05 06 07  08 09 0A 0B 0C 0D 0E 0F
      -- -- -- -- -- -- -- --  -- -- -- -- -- -- -- --
0580:                                      20 01 42 02               .B.
0590: 02 10 1C 80 80 9F 05 03  00 00 1C 80 01 EF 05 02  ................
05A0: 02 10 25 80 80 AF 05 03  00 00 25 80 01 EF 05 02  ..%.......%.....
05B0: 02 10 33 80 80 BF 05 03  00 00 34 80 01 EF 05 02  ..3.......4.....
05C0: 02 10 34 80 80 CF 05 03  00 00 35 80 01 EF 05 02  ..4.......5.....
05D0: 02 10 36 80 80 DF 05 03  00 00 37 80 01 EF 05 02  ..6.......7.....
05E0: 02 10 38 80 80 EF 05 03  00 00 39 80 01 EF 05 24  ..8.......9....$
05F0: 3A 80 01 80 00 00 25 02  00 10 01 80 00 30 06 42  :.....%......0.B
0600: 43 00 43 01 29 01 F0 FF  FF 7F 02 47 00 2B 80 2C  C.C.)......G.+.,
0610: 80 2D 80 2E 80 47 01 1C  1F 80 47 00 2F 80 30 80  .-...G....G./.0.
0620: 31 80 32 80 47 01 29 01  F0 FF FF 7F 03 01 4D 07  1.2.G.).......M.
0630: 02 00 10 1C 80 00 69 06  42 43 00 43 01 29 01 F0  ......i.BC.C.)..
0640: FF FF 7F 02 47 00 2B 80  2C 80 2D 80 2E 80 47 01  ....G.+.,.-...G.
0650: 1C 1F 80 47 00 3B 80 3C  80 3D 80 3E 80 47 01 29  ...G.;.<.=.>.G.)
0660: 01 F0 FF FF 7F 03 01 4D  07 02 00 10 25 80 00 A2  .......M....%...
0670: 06 42 43 00 43 01 29 01  F0 FF FF 7F 02 47 00 2B  .BC.C.)......G.+
0680: 80 2C 80 2D 80 2E 80 47  01 1C 1F 80 47 00 3F 80  .,.-...G....G.?.
0690: 40 80 41 80 42 80 47 01  29 01 F0 FF FF 7F 03 01  @.A.B.G.).......
06A0: 4D 07 02 00 10 33 80 00  DB 06 42 43 00 43 01 29  M....3....BC.C.)
06B0: 01 F0 FF FF 7F 02 47 00  2B 80 2C 80 2D 80 2E 80  ......G.+.,.-...
06C0: 47 01 1C 1F 80 47 00 43  80 44 80 45 80 46 80 47  G....G.C.D.E.F.G
06D0: 01 29 01 F0 FF FF 7F 03  01 4D 07 02 00 10 34 80  .).......M....4.
06E0: 00 14 07 42 43 00 43 01  29 01 F0 FF FF 7F 02 47  ...BC.C.)......G
06F0: 00 2B 80 2C 80 2D 80 2E  80 47 01 1C 1F 80 47 00  .+.,.-...G....G.
0700: 47 80 48 80 49 80 4A 80  47 01 29 01 F0 FF FF 7F  G.H.I.J.G.).....
0710: 03 01 4D 07 02 00 10 36  80 00 4D 07 42 43 00 43  ..M....6..M.BC.C
0720: 01 29 01 F0 FF FF 7F 02  47 00 2B 80 2C 80 2D 80  .)......G.+.,.-.
0730: 2E 80 47 01 1C 1F 80 47  00 4B 80 4C 80 4D 80 4E  ..G....G.K.L.M.N
0740: 80 47 01 29 01 F0 FF FF  7F 03 01 4D 07 20 00 21  .G.).......M. .!
0750: 00                                                .               
```

#### Opcodes

```
  0: 0x058C [0x20] SET_CLI_EVENT_UC_FLAG: Lock player control
  1: 0x058E [0x42] SET_CLI_EVENT_CANCEL_DATA()
  2: 0x058F [0x02] IF !(Work_Zone[2] == 1*) GOTO 0x059F
  3: 0x0597 [0x03] ExtData[1]->WorkLocal[0] = 1*
  4: 0x059C [0x01] GOTO 0x05EF
  5: 0x059F [0x02] IF !(Work_Zone[2] == 2*) GOTO 0x05AF
  6: 0x05A7 [0x03] ExtData[1]->WorkLocal[0] = 2*
  7: 0x05AC [0x01] GOTO 0x05EF
  8: 0x05AF [0x02] IF !(Work_Zone[2] == 3*) GOTO 0x05BF
  9: 0x05B7 [0x03] ExtData[1]->WorkLocal[0] = 4*
 10: 0x05BC [0x01] GOTO 0x05EF
 11: 0x05BF [0x02] IF !(Work_Zone[2] == 4*) GOTO 0x05CF
 12: 0x05C7 [0x03] ExtData[1]->WorkLocal[0] = 8*
 13: 0x05CC [0x01] GOTO 0x05EF
 14: 0x05CF [0x02] IF !(Work_Zone[2] == 5*) GOTO 0x05DF
 15: 0x05D7 [0x03] ExtData[1]->WorkLocal[0] = 16*
 16: 0x05DC [0x01] GOTO 0x05EF
 17: 0x05DF [0x02] IF !(Work_Zone[2] == 6*) GOTO 0x05EF
 18: 0x05E7 [0x03] ExtData[1]->WorkLocal[0] = 32*
 19: 0x05EC [0x01] GOTO 0x05EF

SUBROUTINE_05EF:
 20: 0x05EF [0x24] CREATE_DIALOG(message_id=7373*, default_option=0*, option_flags=ExtData[1]->WorkLocal[0])
    → "Be transported where? [Republic Ensign I./Republic Ensign II./Republic Ensign III./Republic Ensign IV./Republic Ensign V./Republic Ensign VI./Nowhere.]"
 21: 0x05F6 [0x25] WAIT_DIALOG_SELECT()
 22: 0x05F7 [0x02] IF !(Work_Zone[0] == 0*) GOTO 0x0630
 23: 0x05FF [0x42] SET_CLI_EVENT_CANCEL_DATA()
 24: 0x0600 [0x43] SEND_EVENT_UPDATE: Send pending tag to server (packet 0x005B)
 25: 0x0602 [0x43] SEND_EVENT_UPDATE: Check pending flag (skip if not pending)
 26: 0x0604 [0x29] REQ_SET_WAIT(priority=0x01, entity_id=LocalPlayer, tag_num=0x02)
 27: 0x060B [0x47] UPDATE_PLAYER_POS(-322.328*, -420.097*, -0.039*, yaw=220.2°*)
 28: 0x0615 [0x47] WAIT_PLAYER_POS_UPDATE
 29: 0x0617 [0x1C] WAIT(30* ticks)
 30: 0x061A [0x47] UPDATE_PLAYER_POS(-236.196*, -122.592*, -0.227*, yaw=222.4°*)
 31: 0x0624 [0x47] WAIT_PLAYER_POS_UPDATE
 32: 0x0626 [0x29] REQ_SET_WAIT(priority=0x01, entity_id=LocalPlayer, tag_num=0x03)
 33: 0x062D [0x01] GOTO 0x074D
 34: 0x0630 [0x02] IF !(Work_Zone[0] == 1*) GOTO 0x0669
 35: 0x0638 [0x42] SET_CLI_EVENT_CANCEL_DATA()
 36: 0x0639 [0x43] SEND_EVENT_UPDATE: Send pending tag to server (packet 0x005B)
 37: 0x063B [0x43] SEND_EVENT_UPDATE: Check pending flag (skip if not pending)
 38: 0x063D [0x29] REQ_SET_WAIT(priority=0x01, entity_id=LocalPlayer, tag_num=0x02)
 39: 0x0644 [0x47] UPDATE_PLAYER_POS(-322.328*, -420.097*, -0.039*, yaw=220.2°*)
 40: 0x064E [0x47] WAIT_PLAYER_POS_UPDATE
 41: 0x0650 [0x1C] WAIT(30* ticks)
 42: 0x0653 [0x47] UPDATE_PLAYER_POS(-0.321*, -287.339*, 0.308*, yaw=265.8°*)
 43: 0x065D [0x47] WAIT_PLAYER_POS_UPDATE
 44: 0x065F [0x29] REQ_SET_WAIT(priority=0x01, entity_id=LocalPlayer, tag_num=0x03)
 45: 0x0666 [0x01] GOTO 0x074D
 46: 0x0669 [0x02] IF !(Work_Zone[0] == 2*) GOTO 0x06A2
 47: 0x0671 [0x42] SET_CLI_EVENT_CANCEL_DATA()
 48: 0x0672 [0x43] SEND_EVENT_UPDATE: Send pending tag to server (packet 0x005B)
 49: 0x0674 [0x43] SEND_EVENT_UPDATE: Check pending flag (skip if not pending)
 50: 0x0676 [0x29] REQ_SET_WAIT(priority=0x01, entity_id=LocalPlayer, tag_num=0x02)
 51: 0x067D [0x47] UPDATE_PLAYER_POS(-322.328*, -420.097*, -0.039*, yaw=220.2°*)
 52: 0x0687 [0x47] WAIT_PLAYER_POS_UPDATE
 53: 0x0689 [0x1C] WAIT(30* ticks)
 54: 0x068C [0x47] UPDATE_PLAYER_POS(59.173*, -50.877*, -0.089*, yaw=112.0°*)
 55: 0x0696 [0x47] WAIT_PLAYER_POS_UPDATE
 56: 0x0698 [0x29] REQ_SET_WAIT(priority=0x01, entity_id=LocalPlayer, tag_num=0x03)
 57: 0x069F [0x01] GOTO 0x074D
 58: 0x06A2 [0x02] IF !(Work_Zone[0] == 3*) GOTO 0x06DB
 59: 0x06AA [0x42] SET_CLI_EVENT_CANCEL_DATA()
 60: 0x06AB [0x43] SEND_EVENT_UPDATE: Send pending tag to server (packet 0x005B)
 61: 0x06AD [0x43] SEND_EVENT_UPDATE: Check pending flag (skip if not pending)
 62: 0x06AF [0x29] REQ_SET_WAIT(priority=0x01, entity_id=LocalPlayer, tag_num=0x02)
 63: 0x06B6 [0x47] UPDATE_PLAYER_POS(-322.328*, -420.097*, -0.039*, yaw=220.2°*)
 64: 0x06C0 [0x47] WAIT_PLAYER_POS_UPDATE
 65: 0x06C2 [0x1C] WAIT(30* ticks)
 66: 0x06C5 [0x47] UPDATE_PLAYER_POS(-64.936*, -59.739*, -6.477*, yaw=239.8°*)
 67: 0x06CF [0x47] WAIT_PLAYER_POS_UPDATE
 68: 0x06D1 [0x29] REQ_SET_WAIT(priority=0x01, entity_id=LocalPlayer, tag_num=0x03)
 69: 0x06D8 [0x01] GOTO 0x074D
 70: 0x06DB [0x02] IF !(Work_Zone[0] == 4*) GOTO 0x0714
 71: 0x06E3 [0x42] SET_CLI_EVENT_CANCEL_DATA()
 72: 0x06E4 [0x43] SEND_EVENT_UPDATE: Send pending tag to server (packet 0x005B)
 73: 0x06E6 [0x43] SEND_EVENT_UPDATE: Check pending flag (skip if not pending)
 74: 0x06E8 [0x29] REQ_SET_WAIT(priority=0x01, entity_id=LocalPlayer, tag_num=0x02)
 75: 0x06EF [0x47] UPDATE_PLAYER_POS(-322.328*, -420.097*, -0.039*, yaw=220.2°*)
 76: 0x06F9 [0x47] WAIT_PLAYER_POS_UPDATE
 77: 0x06FB [0x1C] WAIT(30* ticks)
 78: 0x06FE [0x47] UPDATE_PLAYER_POS(-23.541*, 136.343*, 0.298*, yaw=191.9°*)
 79: 0x0708 [0x47] WAIT_PLAYER_POS_UPDATE
 80: 0x070A [0x29] REQ_SET_WAIT(priority=0x01, entity_id=LocalPlayer, tag_num=0x03)
 81: 0x0711 [0x01] GOTO 0x074D
 82: 0x0714 [0x02] IF !(Work_Zone[0] == 5*) GOTO 0x074D
 83: 0x071C [0x42] SET_CLI_EVENT_CANCEL_DATA()
 84: 0x071D [0x43] SEND_EVENT_UPDATE: Send pending tag to server (packet 0x005B)
 85: 0x071F [0x43] SEND_EVENT_UPDATE: Check pending flag (skip if not pending)
 86: 0x0721 [0x29] REQ_SET_WAIT(priority=0x01, entity_id=LocalPlayer, tag_num=0x02)
 87: 0x0728 [0x47] UPDATE_PLAYER_POS(-322.328*, -420.097*, -0.039*, yaw=220.2°*)
 88: 0x0732 [0x47] WAIT_PLAYER_POS_UPDATE
 89: 0x0734 [0x1C] WAIT(30* ticks)
 90: 0x0737 [0x47] UPDATE_PLAYER_POS(-228.713*, 58.534*, -0.147*, yaw=20.2°*)
 91: 0x0741 [0x47] WAIT_PLAYER_POS_UPDATE
 92: 0x0743 [0x29] REQ_SET_WAIT(priority=0x01, entity_id=LocalPlayer, tag_num=0x03)
 93: 0x074A [0x01] GOTO 0x074D

SUBROUTINE_074D:
 94: 0x074D [0x20] SET_CLI_EVENT_UC_FLAG: Unlock player control
 95: 0x074F [0x21] END_EVENT
 96: 0x0750 [0x00] END_REQSTACK()
```
