# Event 118

## Metadata

| Field           | Value    |
|-----------------|----------|
| Event Index     | 4/7      |
| Offset          | 0x002F   |
| Data Size       | 25 bytes |
| Calculated Size | 25 bytes |
| Instructions    | 13       |

```
      00 01 02 03 04 05 06 07  08 09 0A 0B 0C 0D 0E 0F
      -- -- -- -- -- -- -- --  -- -- -- -- -- -- -- --
0020:                                               42                 B
0030: 20 01 1E F0 FF FF 7F 1D  00 80 23 1D 03 80 23 1D   .........#...#.
0040: 05 80 23 20 00 2E 21 00                           ..# ..!.        
```

## Opcodes

```
  0: 0x002F [0x42] SET_CLI_EVENT_CANCEL_DATA()
  1: 0x0030 [0x20] SET_CLI_EVENT_UC_FLAG: Lock player control
  2: 0x0032 [0x1E] EventEntity looks at LocalPlayer and starts talking
  3: 0x0037 [0x1D] PRINT_EVENT_MESSAGE(message_id=7364*)
    → "Thank you for your help. I was wondering what to do about that worm bite. Nasty buggers, those worms are.\u007F1\u0000\u0007"
  4: 0x003A [0x23] WAIT_FOR_DIALOG_INTERACTION
  5: 0x003B [0x1D] PRINT_EVENT_MESSAGE(message_id=7367*)
    → "Actually, I have a request for you. Do you think you could take this container to my wife?\u007F1\u0000\u0007"
  6: 0x003E [0x23] WAIT_FOR_DIALOG_INTERACTION
  7: 0x003F [0x1D] PRINT_EVENT_MESSAGE(message_id=7368*)
    → "Ah...but it seems you're already carrying too much. Perhaps you should lighten your load.\u007F1\u0000\u0007"
  8: 0x0042 [0x23] WAIT_FOR_DIALOG_INTERACTION
  9: 0x0043 [0x20] SET_CLI_EVENT_UC_FLAG: Unlock player control
 10: 0x0045 [0x2E] SET_CLI_EVENT_CANCEL_FLAGS()
 11: 0x0046 [0x21] END_EVENT
 12: 0x0047 [0x00] END_REQSTACK()
```
