# Event 3071

## Metadata

| Field           | Value    |
|-----------------|----------|
| Event Index     | 26/212   |
| Offset          | 0x017A   |
| Data Size       | 21 bytes |
| Calculated Size | 21 bytes |
| Instructions    | 11       |

```
      00 01 02 03 04 05 06 07  08 09 0A 0B 0C 0D 0E 0F
      -- -- -- -- -- -- -- --  -- -- -- -- -- -- -- --
0170:                                1E F0 FF FF 7F 6F            .....o
0180: 70 1D 18 80 23 1D 19 80  23 1D 1A 80 23 21 00     p...#...#...#!. 
```

## Opcodes

```
  0: 0x017A [0x1E] EventEntity looks at LocalPlayer and starts talking
  1: 0x017F [0x6F] WAIT_FRAME_DELAY: Yield until WaitTime reaches zero
  2: 0x0180 [0x70] WAIT_ENTITY_RENDER_FLAG: Wait while EventEntity->Render.Flags3 bit 2 is set (cancel turn if not)
  3: 0x0181 [0x1D] PRINT_EVENT_MESSAGE(message_id=7865*)
    → "A lot of people have been seein' that ship in the waters around the Arrapago Islands. Ya might wanna try interrogatin' the Nashmau locals first and see what ya can find out.\u007F1\u0000\u0007"
  4: 0x0184 [0x23] WAIT_FOR_DIALOG_INTERACTION
  5: 0x0185 [0x1D] PRINT_EVENT_MESSAGE(message_id=7866*)
    → "Go after that ghost ship and don't come back till ya learn somethin' useful!\u007F1\u0000\u0007"
  6: 0x0188 [0x23] WAIT_FOR_DIALOG_INTERACTION
  7: 0x0189 [0x1D] PRINT_EVENT_MESSAGE(message_id=7867*)
    → "With the rrreward I'm expectin' from the Empress, this company'll be rollin' in cash for the next ten years.\u007F1\u0000\u0007"
  8: 0x018C [0x23] WAIT_FOR_DIALOG_INTERACTION
  9: 0x018D [0x21] END_EVENT
 10: 0x018E [0x00] END_REQSTACK()
```
