# Event 3091

## Metadata

| Field           | Value    |
|-----------------|----------|
| Event Index     | 148/212  |
| Offset          | 0x0A0C   |
| Data Size       | 26 bytes |
| Calculated Size | 26 bytes |
| Instructions    | 10       |

```
      00 01 02 03 04 05 06 07  08 09 0A 0B 0C 0D 0E 0F
      -- -- -- -- -- -- -- --  -- -- -- -- -- -- -- --
0A00:                                      42 1E F0 FF              B...
0A10: FF 7F 6F 70 2B 8C 20 03  01 85 80 23 2B 8C 20 03  ..op+. ....#+. .
0A20: 01 86 80 23 21 00                                 ...#!.          
```

## Opcodes

```
  0: 0x0A0C [0x42] SET_CLI_EVENT_CANCEL_DATA()
  1: 0x0A0D [0x1E] EventEntity looks at LocalPlayer and starts talking
  2: 0x0A12 [0x6F] WAIT_FRAME_DELAY: Yield until WaitTime reaches zero
  3: 0x0A13 [0x70] WAIT_ENTITY_RENDER_FLAG: Wait while EventEntity->Render.Flags3 bit 2 is set (cancel turn if not)
  4: 0x0A14 [0x2B] Naja Salaheem (ID: 16982156/0x0103208C) [8364*]:
    → "Stop foolin' arrround and get back to work!\u007F1\u0000\u0007"
  5: 0x0A1B [0x23] WAIT_FOR_DIALOG_INTERACTION
  6: 0x0A1C [0x2B] Naja Salaheem (ID: 16982156/0x0103208C) [9003*]:
    → "I don't have time for layabout, good-for-nothin' louts just lookin' to entertain themselves!\u007F1\u0000\u0007"
  7: 0x0A23 [0x23] WAIT_FOR_DIALOG_INTERACTION
  8: 0x0A24 [0x21] END_EVENT
  9: 0x0A25 [0x00] END_REQSTACK()
```
