# Event 3094

## Metadata

| Field           | Value    |
|-----------------|----------|
| Event Index     | 149/212  |
| Offset          | 0x0A26   |
| Data Size       | 26 bytes |
| Calculated Size | 26 bytes |
| Instructions    | 10       |

```
      00 01 02 03 04 05 06 07  08 09 0A 0B 0C 0D 0E 0F
      -- -- -- -- -- -- -- --  -- -- -- -- -- -- -- --
0A20:                   42 1E  F0 FF FF 7F 6F 70 2B 8C        B.....op+.
0A30: 20 03 01 87 80 23 2B 8C  20 03 01 88 80 23 21 00   ....#+. ....#!.
```

## Opcodes

```
  0: 0x0A26 [0x42] SET_CLI_EVENT_CANCEL_DATA()
  1: 0x0A27 [0x1E] EventEntity looks at LocalPlayer and starts talking
  2: 0x0A2C [0x6F] WAIT_FRAME_DELAY: Yield until WaitTime reaches zero
  3: 0x0A2D [0x70] WAIT_ENTITY_RENDER_FLAG: Wait while EventEntity->Render.Flags3 bit 2 is set (cancel turn if not)
  4: 0x0A2E [0x2B] Naja Salaheem (ID: 16982156/0x0103208C) [9012*]:
    → "Don't ya be tellin' me you're too afrrraid to do as the ambassador asks!\u007F1\u0000\u0007"
  5: 0x0A35 [0x23] WAIT_FOR_DIALOG_INTERACTION
  6: 0x0A36 [0x2B] Naja Salaheem (ID: 16982156/0x0103208C) [9013*]:
    → "Get your gear together and prrresent yourself at the Navukgo Execution Chamber!\u007F1\u0000\u0007"
  7: 0x0A3D [0x23] WAIT_FOR_DIALOG_INTERACTION
  8: 0x0A3E [0x21] END_EVENT
  9: 0x0A3F [0x00] END_REQSTACK()
```
