# Event 3117

## Metadata

| Field           | Value    |
|-----------------|----------|
| Event Index     | 107/212  |
| Offset          | 0x070C   |
| Data Size       | 33 bytes |
| Calculated Size | 33 bytes |
| Instructions    | 11       |

```
      00 01 02 03 04 05 06 07  08 09 0A 0B 0C 0D 0E 0F
      -- -- -- -- -- -- -- --  -- -- -- -- -- -- -- --
0700:                                      1E F0 FF FF              ....
0710: 7F 6F 70 2B 8C 20 03 01  43 80 23 2B 8C 20 03 01  .op+. ..C.#+. ..
0720: 44 80 23 2B 8C 20 03 01  45 80 23 21 00           D.#+. ..E.#!.   
```

## Opcodes

```
  0: 0x070C [0x1E] EventEntity looks at LocalPlayer and starts talking
  1: 0x0711 [0x6F] WAIT_FRAME_DELAY: Yield until WaitTime reaches zero
  2: 0x0712 [0x70] WAIT_ENTITY_RENDER_FLAG: Wait while EventEntity->Render.Flags3 bit 2 is set (cancel turn if not)
  3: 0x0713 [0x2B] Naja Salaheem (ID: 16982156/0x0103208C) [9256*]:
    → "Hm? How's Gessho been doin'?\u007F1\u0000\u0007"
  4: 0x071A [0x23] WAIT_FOR_DIALOG_INTERACTION
  5: 0x071B [0x2B] Naja Salaheem (ID: 16982156/0x0103208C) [9257*]:
    → "Hmph.\u0007To be blunt, his attendance rrrecord is fast brrringin' the chopper down on his feathered neck.\u007F1\u0000\u0007"
  6: 0x0722 [0x23] WAIT_FOR_DIALOG_INTERACTION
  7: 0x0723 [0x2B] Naja Salaheem (ID: 16982156/0x0103208C) [9258*]:
    → "Don't you be learnin' any bad habits, or you'll be joinin' him on the block!\u007F1\u0000\u0007"
  8: 0x072A [0x23] WAIT_FOR_DIALOG_INTERACTION
  9: 0x072B [0x21] END_EVENT
 10: 0x072C [0x00] END_REQSTACK()
```
