# Event 3118

## Metadata

| Field           | Value    |
|-----------------|----------|
| Event Index     | 108/212  |
| Offset          | 0x072D   |
| Data Size       | 33 bytes |
| Calculated Size | 33 bytes |
| Instructions    | 11       |

```
      00 01 02 03 04 05 06 07  08 09 0A 0B 0C 0D 0E 0F
      -- -- -- -- -- -- -- --  -- -- -- -- -- -- -- --
0720:                                         1E F0 FF               ...
0730: FF 7F 6F 70 2B 8C 20 03  01 46 80 23 2B 8C 20 03  ..op+. ..F.#+. .
0740: 01 47 80 23 2B 8C 20 03  01 48 80 23 21 00        .G.#+. ..H.#!.  
```

## Opcodes

```
  0: 0x072D [0x1E] EventEntity looks at LocalPlayer and starts talking
  1: 0x0732 [0x6F] WAIT_FRAME_DELAY: Yield until WaitTime reaches zero
  2: 0x0733 [0x70] WAIT_ENTITY_RENDER_FLAG: Wait while EventEntity->Render.Flags3 bit 2 is set (cancel turn if not)
  3: 0x0734 [0x2B] Naja Salaheem (ID: 16982156/0x0103208C) [9259*]:
    → "Have I heard anythin' about the ghost ship!?\u007F1\u0000\u0007"
  4: 0x073B [0x23] WAIT_FOR_DIALOG_INTERACTION
  5: 0x073C [0x2B] Naja Salaheem (ID: 16982156/0x0103208C) [9260*]:
    → "<Shiver>...\u0007Don't ask me questions concernin' \u00072otherworldly\u00073 subjects!\u007F1\u0000\u0007"
  6: 0x0743 [0x23] WAIT_FOR_DIALOG_INTERACTION
  7: 0x0744 [0x2B] Naja Salaheem (ID: 16982156/0x0103208C) [9261*]:
    → "Besides, weren't ya the one who was blatherin' about boardin' that crrrime against nature somewhere off the coast of Dvucca Isle?\u007F1\u0000\u0007"
  8: 0x074B [0x23] WAIT_FOR_DIALOG_INTERACTION
  9: 0x074C [0x21] END_EVENT
 10: 0x074D [0x00] END_REQSTACK()
```
