# Event 3119

## Metadata

| Field           | Value    |
|-----------------|----------|
| Event Index     | 109/212  |
| Offset          | 0x074E   |
| Data Size       | 33 bytes |
| Calculated Size | 33 bytes |
| Instructions    | 11       |

```
      00 01 02 03 04 05 06 07  08 09 0A 0B 0C 0D 0E 0F
      -- -- -- -- -- -- -- --  -- -- -- -- -- -- -- --
0740:                                            1E F0                ..
0750: FF FF 7F 6F 70 2B 8C 20  03 01 49 80 23 2B 8C 20  ...op+. ..I.#+. 
0760: 03 01 4A 80 23 2B 8C 20  03 01 4B 80 23 21 00     ..J.#+. ..K.#!. 
```

## Opcodes

```
  0: 0x074E [0x1E] EventEntity looks at LocalPlayer and starts talking
  1: 0x0753 [0x6F] WAIT_FRAME_DELAY: Yield until WaitTime reaches zero
  2: 0x0754 [0x70] WAIT_ENTITY_RENDER_FLAG: Wait while EventEntity->Render.Flags3 bit 2 is set (cancel turn if not)
  3: 0x0755 [0x2B] Naja Salaheem (ID: 16982156/0x0103208C) [9262*]:
    → "Hm?\u0007Ya can get to the Dvucca Isle stagin' point in a hop, skip, and a jump from the Chamber of Passage.\u007F1\u0000\u0007"
  4: 0x075C [0x23] WAIT_FOR_DIALOG_INTERACTION
  5: 0x075D [0x2B] Naja Salaheem (ID: 16982156/0x0103208C) [9263*]:
    → "Didn't I tell ya to ask at the Commissions Agency for that kinda basic information?\u007F1\u0000\u0007"
  6: 0x0764 [0x23] WAIT_FOR_DIALOG_INTERACTION
  7: 0x0765 [0x2B] Naja Salaheem (ID: 16982156/0x0103208C) [9264*]:
    → "Don't ya ever come askin' me about standard procedure again, ya hear?\u007F1\u0000\u0007"
  8: 0x076C [0x23] WAIT_FOR_DIALOG_INTERACTION
  9: 0x076D [0x21] END_EVENT
 10: 0x076E [0x00] END_REQSTACK()
```
