# Event 3156

## Metadata

| Field           | Value    |
|-----------------|----------|
| Event Index     | 193/212  |
| Offset          | 0x0DC4   |
| Data Size       | 38 bytes |
| Calculated Size | 38 bytes |
| Instructions    | 16       |

```
      00 01 02 03 04 05 06 07  08 09 0A 0B 0C 0D 0E 0F
      -- -- -- -- -- -- -- --  -- -- -- -- -- -- -- --
0DC0:             42 1E F0 FF  FF 7F 6F 70 03 02 10 D9      B.....op....
0DD0: 80 1D DA 80 23 1D DB 80  23 03 02 10 D9 80 48 DC  ....#...#.....H.
0DE0: 80 1C 9A 80 1D DD 80 23  21 00                    .......#!.      
```

## Opcodes

```
  0: 0x0DC4 [0x42] SET_CLI_EVENT_CANCEL_DATA()
  1: 0x0DC5 [0x1E] EventEntity looks at LocalPlayer and starts talking
  2: 0x0DCA [0x6F] WAIT_FRAME_DELAY: Yield until WaitTime reaches zero
  3: 0x0DCB [0x70] WAIT_ENTITY_RENDER_FLAG: Wait while EventEntity->Render.Flags3 bit 2 is set (cancel turn if not)
  4: 0x0DCC [0x03] Work_Zone[2] = 899*
  5: 0x0DD1 [0x1D] PRINT_EVENT_MESSAGE(message_id=9905*)
    → "Ya did what!?\u0007Ya lost the \u0001\u00053\u0002\u0000\u0000\u0000 entrrrusted to ya by Her Magnificence!\u007F1\u0000\u0007"
  6: 0x0DD4 [0x23] WAIT_FOR_DIALOG_INTERACTION
  7: 0x0DD5 [0x1D] PRINT_EVENT_MESSAGE(message_id=9906*)
    → "I've got no time to lecture ya rrright now...\u007F1\u0000\u0007"
  8: 0x0DD8 [0x23] WAIT_FOR_DIALOG_INTERACTION
  9: 0x0DD9 [0x03] Work_Zone[2] = 899*
 10: 0x0DDE [0x48] [System] [9907*]:
    → "\u001F\u000FNaja Salaheem hands you another \u0001\u00053\u0002\u0000\u0000\u0000!\u0000\u0007"
 11: 0x0DE1 [0x1C] WAIT(60* ticks)
 12: 0x0DE4 [0x1D] PRINT_EVENT_MESSAGE(message_id=9908*)
    → "Just be sure ya take better care of Empress Nashmeira!\u007F1\u0000\u0007"
 13: 0x0DE7 [0x23] WAIT_FOR_DIALOG_INTERACTION
 14: 0x0DE8 [0x21] END_EVENT
 15: 0x0DE9 [0x00] END_REQSTACK()
```
