# Event 5001

## Metadata

| Field           | Value    |
|-----------------|----------|
| Event Index     | 14/212   |
| Offset          | 0x00C5   |
| Data Size       | 40 bytes |
| Calculated Size | 40 bytes |
| Instructions    | 12       |

```
      00 01 02 03 04 05 06 07  08 09 0A 0B 0C 0D 0E 0F
      -- -- -- -- -- -- -- --  -- -- -- -- -- -- -- --
00C0:                1E F0 FF  FF 7F 6F 70 03 02 10 0E       .....op....
00D0: 80 03 03 10 0B 80 2B 8C  20 03 01 0F 80 23 03 03  ......+. ....#..
00E0: 10 03 80 2B 8C 20 03 01  10 80 23 21 00           ...+. ....#!.   
```

## Opcodes

```
  0: 0x00C5 [0x1E] EventEntity looks at LocalPlayer and starts talking
  1: 0x00CA [0x6F] WAIT_FRAME_DELAY: Yield until WaitTime reaches zero
  2: 0x00CB [0x70] WAIT_ENTITY_RENDER_FLAG: Wait while EventEntity->Render.Flags3 bit 2 is set (cancel turn if not)
  3: 0x00CC [0x03] Work_Zone[2] = 2163*
  4: 0x00D1 [0x03] Work_Zone[3] = 2*
  5: 0x00D6 [0x2B] Naja Salaheem (ID: 16982156/0x0103208C) [10538*]:
    → "I need to have 
\u0001 \u0001	)\u0002\u0001\u0000\u0000\u0002\u0000\u0000\u0000 to make my charm against the darkness.\u007F1\u0000\u0007"
  6: 0x00DD [0x23] WAIT_FOR_DIALOG_INTERACTION
  7: 0x00DE [0x03] Work_Zone[3] = 1*
  8: 0x00E3 [0x2B] Naja Salaheem (ID: 16982156/0x0103208C) [10539*]:
    → "I only need 
\u0001 more!\u0007Get on it, \u0008!\u007F1\u0000\u0007"
  9: 0x00EA [0x23] WAIT_FOR_DIALOG_INTERACTION
 10: 0x00EB [0x21] END_EVENT
 11: 0x00EC [0x00] END_REQSTACK()
```
