# Event 65535

## Metadata

| Field           | Value    |
|-----------------|----------|
| Event Index     | 114/212  |
| Offset          | 0x07E3   |
| Data Size       | 50 bytes |
| Calculated Size | 50 bytes |
| Instructions    | 6        |

```
      00 01 02 03 04 05 06 07  08 09 0A 0B 0C 0D 0E 0F
      -- -- -- -- -- -- -- --  -- -- -- -- -- -- -- --
07E0:          1C 52 80 5B 2A  80 8C 20 03 01 8C 20 03     .R.[*.. ... .
07F0: 01 68 61 70 30 1C 53 80  5B 2A 80 8C 20 03 01 8C  .hap0.S.[*.. ...
0800: 20 03 01 68 61 70 72 53  8C 20 03 01 8C 20 03 01   ..haprS. ... ..
0810: 68 61 70 72 00                                    hapr.           
```

## Opcodes

```
  0: 0x07E3 [0x1C] WAIT(20* ticks)
  1: 0x07E6 [0x5B] LOAD_EXT_SCHEDULER(work_offset=835*, entity1=Naja Salaheem (ID: 16982156/0x0103208C), entity2=Naja Salaheem (ID: 16982156/0x0103208C), action="hap0")
  2: 0x07F5 [0x1C] WAIT(30* ticks)
  3: 0x07F8 [0x5B] LOAD_EXT_SCHEDULER(work_offset=835*, entity1=Naja Salaheem (ID: 16982156/0x0103208C), entity2=Naja Salaheem (ID: 16982156/0x0103208C), action="hapr")
  4: 0x0807 [0x53] WAIT_SCHEDULER_TASK(entity1=Naja Salaheem (ID: 16982156/0x0103208C), entity2=Naja Salaheem (ID: 16982156/0x0103208C), action_id="hapr")
  5: 0x0814 [0x00] END_REQSTACK()
```
