# Event 65535

## Metadata

| Field           | Value    |
|-----------------|----------|
| Event Index     | 147/212  |
| Offset          | 0x09ED   |
| Data Size       | 31 bytes |
| Calculated Size | 31 bytes |
| Instructions    | 9        |

```
      00 01 02 03 04 05 06 07  08 09 0A 0B 0C 0D 0E 0F
      -- -- -- -- -- -- -- --  -- -- -- -- -- -- -- --
09E0:                                         32 2E 80               2..
09F0: 1F 00 81 80 82 80 36 80  1F 01 6F 1F 00 83 80 84  ......6...o.....
0A00: 80 36 80 1F 01 6F 1E 8D  20 03 01 00              .6...o.. ...    
```

## Opcodes

```
  0: 0x09ED [0x32] ExtData[1]->MainSpeed = 11* * 0.1
  1: 0x09F0 [0x1F] MOVE_ENTITY: EventEntity moves to X=22.712*, Z=-47.618*, Y=-7.804*
  2: 0x09F8 [0x1F] MOVE_ENTITY: Update entity position (mode=1)
  3: 0x09FA [0x6F] WAIT_FRAME_DELAY: Yield until WaitTime reaches zero
  4: 0x09FB [0x1F] MOVE_ENTITY: EventEntity moves to X=24.754*, Z=-47.510*, Y=-7.804*
  5: 0x0A03 [0x1F] MOVE_ENTITY: Update entity position (mode=1)
  6: 0x0A05 [0x6F] WAIT_FRAME_DELAY: Yield until WaitTime reaches zero
  7: 0x0A06 [0x1E] EventEntity looks at Abquhbah (ID: 16982157/0x0103208D) and starts talking
  8: 0x0A0B [0x00] END_REQSTACK()
```
