# Event 65535

## Metadata

| Field           | Value    |
|-----------------|----------|
| Event Index     | 124/212  |
| Offset          | 0x0910   |
| Data Size       | 47 bytes |
| Calculated Size | 47 bytes |
| Instructions    | 5        |

```
      00 01 02 03 04 05 06 07  08 09 0A 0B 0C 0D 0E 0F
      -- -- -- -- -- -- -- --  -- -- -- -- -- -- -- --
0910: 5B 28 80 8C 20 03 01 8C  20 03 01 74 6C 6B 30 1C  [(.. ... ..tlk0.
0920: 52 80 5B 28 80 8C 20 03  01 8C 20 03 01 74 6C 6B  R.[(.. ... ..tlk
0930: 31 53 8C 20 03 01 8C 20  03 01 74 6C 6B 31 00     1S. ... ..tlk1. 
```

## Opcodes

```
  0: 0x0910 [0x5B] LOAD_EXT_SCHEDULER: Load scheduler "tlk0" with entities [Naja Salaheem (ID: 16982156/0x0103208C), Naja Salaheem (ID: 16982156/0x0103208C)], work=833*
  1: 0x091F [0x1C] WAIT(20* ticks)
  2: 0x0922 [0x5B] LOAD_EXT_SCHEDULER: Load scheduler "tlk1" with entities [Naja Salaheem (ID: 16982156/0x0103208C), Naja Salaheem (ID: 16982156/0x0103208C)], work=833*
  3: 0x0931 [0x53] WAIT_SCHEDULER_TASK: Wait for scheduler "tlk1" with entities [Naja Salaheem (ID: 16982156/0x0103208C), Naja Salaheem (ID: 16982156/0x0103208C)]
  4: 0x093E [0x00] END_REQSTACK()
```
