# Event 65535

## Metadata

| Field           | Value     |
|-----------------|-----------|
| Event Index     | 24/24     |
| Offset          | 0x02A4    |
| Data Size       | 155 bytes |
| Calculated Size | 155 bytes |
| Instructions    | 3         |

```
      00 01 02 03 04 05 06 07  08 09 0A 0B 0C 0D 0E 0F
      -- -- -- -- -- -- -- --  -- -- -- -- -- -- -- --
02A0:             AB 03 AC 01  2A 80 00 03 01 00 00 00      ....*.......
02B0: 02 01 00 13 80 05 C0 02  08 01 00 1B 80 01 C5 02  ................
02C0: 08 01 00 23 80 14 01 00  2B 80 07 01 00 2C 80 1B  ...#....+....,..
02D0: 03 01 00 00 00 02 01 00  13 80 05 E5 02 08 01 00  ................
02E0: 1B 80 01 EA 02 08 01 00  23 80 14 01 00 2B 80 07  ........#....+..
02F0: 01 00 2D 80 1B 03 01 00  00 00 02 01 00 13 80 05  ..-.............
0300: 0A 03 08 01 00 1B 80 01  0F 03 08 01 00 23 80 14  .............#..
0310: 01 00 2B 80 07 01 00 2E  80 1B 03 01 00 00 00 02  ..+.............
0320: 01 00 13 80 05 2F 03 08  01 00 1B 80 01 34 03 08  ...../.......4..
0330: 01 00 23 80 14 01 00 2B  80 07 01 00 2F 80 1B     ..#....+..../.. 
```

## Opcodes

```
  0: 0x02A4 [0xAB] EventEntity->Render.Flags0 ^= 0x20000 // Toggle bit 17
  1: 0x02A6 [0xAC] EventEntity->StatusEvent = 66*
  2: 0x02AA [0x00] END_REQSTACK()
```

## Data or dead code:

```
# Dead code (unreachable instructions):
     0x02AB [0x03] ExtData[1]->WorkLocal[1] = ExtData[1]->WorkLocal[0]
     0x02B0 [0x02] IF !(ExtData[1]->WorkLocal[1] > 5*) GOTO 0x02C0
     0x02B8 [0x08] ExtData[1]->WorkLocal[1] -= 1*
     0x02BD [0x01] GOTO 0x02C5
     0x02C0 [0x08] ExtData[1]->WorkLocal[1] -= 2*
     0x02C5 [0x14] ExtData[1]->WorkLocal[1] *= 10*
     0x02CA [0x07] ExtData[1]->WorkLocal[1] += 9*
     0x02CF [0x1B] RETURN
     0x02D0 [0x03] ExtData[1]->WorkLocal[1] = ExtData[1]->WorkLocal[0]
     0x02D5 [0x02] IF !(ExtData[1]->WorkLocal[1] > 5*) GOTO 0x02E5
     0x02DD [0x08] ExtData[1]->WorkLocal[1] -= 1*
     0x02E2 [0x01] GOTO 0x02EA
     0x02E5 [0x08] ExtData[1]->WorkLocal[1] -= 2*
     0x02EA [0x14] ExtData[1]->WorkLocal[1] *= 10*
     0x02EF [0x07] ExtData[1]->WorkLocal[1] += 70*
     0x02F4 [0x1B] RETURN
     0x02F5 [0x03] ExtData[1]->WorkLocal[1] = ExtData[1]->WorkLocal[0]
     0x02FA [0x02] IF !(ExtData[1]->WorkLocal[1] > 5*) GOTO 0x030A
     0x0302 [0x08] ExtData[1]->WorkLocal[1] -= 1*
     0x0307 [0x01] GOTO 0x030F
     0x030A [0x08] ExtData[1]->WorkLocal[1] -= 2*
     0x030F [0x14] ExtData[1]->WorkLocal[1] *= 10*
     0x0314 [0x07] ExtData[1]->WorkLocal[1] += 140*
     0x0319 [0x1B] RETURN
     0x031A [0x03] ExtData[1]->WorkLocal[1] = ExtData[1]->WorkLocal[0]
     0x031F [0x02] IF !(ExtData[1]->WorkLocal[1] > 5*) GOTO 0x032F
     0x0327 [0x08] ExtData[1]->WorkLocal[1] -= 1*
     0x032C [0x01] GOTO 0x0334
     0x032F [0x08] ExtData[1]->WorkLocal[1] -= 2*
     0x0334 [0x14] ExtData[1]->WorkLocal[1] *= 10*
     0x0339 [0x07] ExtData[1]->WorkLocal[1] += 210*
     0x033E [0x1B] RETURN
```