# Event 65535

## Metadata

| Field           | Value     |
|-----------------|-----------|
| Event Index     | 24/24     |
| Offset          | 0x02A4    |
| Data Size       | 155 bytes |
| Calculated Size | 155 bytes |
| Instructions    | 4         |

```
      00 01 02 03 04 05 06 07  08 09 0A 0B 0C 0D 0E 0F
      -- -- -- -- -- -- -- --  -- -- -- -- -- -- -- --
02A0:             AB 03 AC 01  2A 80 00 03 01 00 00 00      ....*.......
02B0: 02 01 00 13 80 05 C0 02  08 01 00 1B 80 01 C5 02  ................
02C0: 08 01 00 23 80 14 01 00  2B 80 07 01 00 2C 80 1B  ...#....+....,..
02D0: 03 01 00 00 00 02 01 00  13 80 05 E5 02 08 01 00  ................
02E0: 1B 80 01 EA 02 08 01 00  23 80 14 01 00 2B 80 07  ........#....+..
02F0: 01 00 2D 80 1B 03 01 00  00 00 02 01 00 13 80 05  ..-.............
0300: 0A 03 08 01 00 1B 80 01  0F 03 08 01 00 23 80 14  .............#..
0310: 01 00 2B 80 07 01 00 2E  80 1B 03 01 00 00 00 02  ..+.............
0320: 01 00 13 80 05 2F 03 08  01 00 1B 80 01 34 03 08  ...../.......4..
0330: 01 00 23 80 14 01 00 2B  80 07 01 00 2F 80 1B     ..#....+..../.. 
```

## Opcodes

```
  0: 0x02A4 [0xAB] EventEntity->Render.Flags0 ^= 0x20000 // Toggle bit 17
  1: 0x02A6 [0xAC] EventEntity->StatusEvent = 66*
  2: 0x02AA [0x00] END_REQSTACK()
```

## Data or dead code:

```
# Data Section: 0x02AB (148 bytes)
     0x02AB: 03 01 00 00 00 02 01 00 13 80 05 C0 02 08 01 00
     0x02BB: 1B 80 01 C5 02 08 01 00 23 80 14 01 00 2B 80 07
     0x02CB: 01 00 2C 80 1B 03 01 00 00 00 02 01 00 13 80 05
     0x02DB: E5 02 08 01 00 1B 80 01 EA 02 08 01 00 23 80 14
     0x02EB: 01 00 2B 80 07 01 00 2D 80 1B 03 01 00 00 00 02
     0x02FB: 01 00 13 80 05 0A 03 08 01 00 1B 80 01 0F 03 08
     0x030B: 01 00 23 80 14 01 00 2B 80 07 01 00 2E 80 1B 03
     0x031B: 01 00 00 00 02 01 00 13 80 05 2F 03 08 01 00 1B
     0x032B: 80 01 34 03 08 01 00 23 80 14 01 00 2B 80 07 01
     0x033B: 00 2F 80 1B
```