# Event 65535

## Metadata

| Field           | Value    |
|-----------------|----------|
| Event Index     | 10/10    |
| Offset          | 0x039F   |
| Data Size       | 36 bytes |
| Calculated Size | 36 bytes |
| Instructions    | 10       |

```
      00 01 02 03 04 05 06 07  08 09 0A 0B 0C 0D 0E 0F
      -- -- -- -- -- -- -- --  -- -- -- -- -- -- -- --
0390:                                               1E                 .
03A0: F0 FF FF 7F 6F 70 66 0F  80 F8 FF FF 7F F8 FF FF  ....opf.........
03B0: 7F 74 6C 6B 30 1D 21 80  23 5E 69 64 6C 30 1C 0F  .tlk0.!.#^idl0..
03C0: 80 21 00                                          .!.             
```

## Opcodes

```
  0: 0x039F [0x1E] EventEntity looks at LocalPlayer and starts talking
  1: 0x03A4 [0x6F] WAIT_FRAME_DELAY: Yield until WaitTime reaches zero
  2: 0x03A5 [0x70] WAIT_ENTITY_RENDER_FLAG: Wait while EventEntity->Render.Flags3 bit 2 is set (cancel turn if not)
  3: 0x03A6 [0x66] LOAD_EXT_SCHEDULER_MAIN(work_offset=30*, entity1=EventEntity, entity2=EventEntity, action="tlk0")
  4: 0x03B5 [0x1D] PRINT_EVENT_MESSAGE(message_id=21*)
    → "All right, then. A San d'Orian Rent-a-Room has been leased to your name. Now move along, foreigner!\u007F1\u0000\u0007"
  5: 0x03B8 [0x23] WAIT_FOR_DIALOG_INTERACTION
  6: 0x03B9 [0x5E] EventEntity goes idle (kills current action) (animation: "idl0")
  7: 0x03BE [0x1C] WAIT(30* ticks)
  8: 0x03C1 [0x21] END_EVENT
  9: 0x03C2 [0x00] END_REQSTACK()
```
