# Event 65535

## Metadata

| Field           | Value    |
|-----------------|----------|
| Event Index     | 7/10     |
| Offset          | 0x02B9   |
| Data Size       | 43 bytes |
| Calculated Size | 43 bytes |
| Instructions    | 13       |

```
      00 01 02 03 04 05 06 07  08 09 0A 0B 0C 0D 0E 0F
      -- -- -- -- -- -- -- --  -- -- -- -- -- -- -- --
02B0:                             1E F0 FF FF 7F 6F 70           .....op
02C0: 66 0F 80 F8 FF FF 7F F8  FF FF 7F 74 6C 6B 30 1D  f..........tlk0.
02D0: 1B 80 23 1C 0F 80 1D 1C  80 23 5E 69 64 6C 30 1C  ..#......#^idl0.
02E0: 0F 80 21 00                                       ..!.            
```

## Opcodes

```
  0: 0x02B9 [0x1E] EventEntity looks at LocalPlayer and starts talking
  1: 0x02BE [0x6F] WAIT_FRAME_DELAY: Yield until WaitTime reaches zero
  2: 0x02BF [0x70] WAIT_ENTITY_RENDER_FLAG: Wait while EventEntity->Render.Flags3 bit 2 is set (cancel turn if not)
  3: 0x02C0 [0x66] LOAD_EXT_SCHEDULER_MAIN: Load scheduler "tlk0" with entities [EventEntity, EventEntity], work=30*
  4: 0x02CF [0x1D] PRINT_EVENT_MESSAGE(message_id=15*)
    → "Ahead lies the residential area. Proceed to your Rent-a-Room, foreigner!\u007F1\u0000\u0007"
  5: 0x02D2 [0x23] WAIT_FOR_DIALOG_INTERACTION
  6: 0x02D3 [0x1C] WAIT(30* ticks)
  7: 0x02D6 [0x1D] PRINT_EVENT_MESSAGE(message_id=16*)
    → "If you're already renting here, you may come and go as you please, like the Mog House in your homeland.\u007F1\u0000\u0007"
  8: 0x02D9 [0x23] WAIT_FOR_DIALOG_INTERACTION
  9: 0x02DA [0x5E] EventEntity goes idle (kills current action) (animation: "idl0")
 10: 0x02DF [0x1C] WAIT(30* ticks)
 11: 0x02E2 [0x21] END_EVENT
 12: 0x02E3 [0x00] END_REQSTACK()
```
