# Event 100

## Metadata

| Field           | Value    |
|-----------------|----------|
| Event Index     | 10/11    |
| Offset          | 0x007F   |
| Data Size       | 60 bytes |
| Calculated Size | 60 bytes |
| Instructions    | 10       |

```
      00 01 02 03 04 05 06 07  08 09 0A 0B 0C 0D 0E 0F
      -- -- -- -- -- -- -- --  -- -- -- -- -- -- -- --
0070:                                               1E                 .
0080: F0 FF FF 7F 6F 70 66 00  80 F8 FF FF 7F F8 FF FF  ....opf.........
0090: 7F 74 6C 6B 30 2B 11 30  0F 01 03 80 23 66 00 80  .tlk0+.0....#f..
00A0: F8 FF FF 7F F8 FF FF 7F  74 6C 6B 31 53 F8 FF FF  ........tlk1S...
00B0: 7F F8 FF FF 7F 74 6C 6B  31 21 00                 .....tlk1!.     
```

## Opcodes

```
  0: 0x007F [0x1E] EventEntity looks at LocalPlayer and starts talking
  1: 0x0084 [0x6F] WAIT_FRAME_DELAY: Yield until WaitTime reaches zero
  2: 0x0085 [0x70] WAIT_ENTITY_RENDER_FLAG: Wait while EventEntity->Render.Flags3 bit 2 is set (cancel turn if not)
  3: 0x0086 [0x66] LOAD_EXT_SCHEDULER_MAIN(work_offset=39*, entity1=EventEntity, entity2=EventEntity, action="tlk0")
  4: 0x0095 [0x2B] Adolie (ID: 17772561/0x010F3011) [10242*]:
    → "I always wondered how someone of his height lit that lantern.\u007F1\u0000\u0007"
  5: 0x009C [0x23] WAIT_FOR_DIALOG_INTERACTION
  6: 0x009D [0x66] LOAD_EXT_SCHEDULER_MAIN(work_offset=39*, entity1=EventEntity, entity2=EventEntity, action="tlk1")
  7: 0x00AC [0x53] WAIT_SCHEDULER_TASK(entity1=EventEntity, entity2=EventEntity, action_id="tlk1")
  8: 0x00B9 [0x21] END_EVENT
  9: 0x00BA [0x00] END_REQSTACK()
```
