# Event 10091

## Metadata

| Field           | Value    |
|-----------------|----------|
| Event Index     | 11/11    |
| Offset          | 0x00BB   |
| Data Size       | 52 bytes |
| Calculated Size | 52 bytes |
| Instructions    | 12       |

```
      00 01 02 03 04 05 06 07  08 09 0A 0B 0C 0D 0E 0F
      -- -- -- -- -- -- -- --  -- -- -- -- -- -- -- --
00B0:                                   42 48 04 80 1E             BH...
00C0: F0 FF FF 7F 1C 05 80 1D  06 80 23 66 00 80 F8 FF  ..........#f....
00D0: FF 7F F8 FF FF 7F 74 6C  6B 30 1D 07 80 23 66 00  ......tlk0...#f.
00E0: 80 F8 FF FF 7F F8 FF FF  7F 74 6C 6B 31 21 00     .........tlk1!. 
```

## Opcodes

```
  0: 0x00BB [0x42] SET_CLI_EVENT_CANCEL_DATA()
  1: 0x00BC [0x48] [System] [13840*]:
    → "\u001F\u000F\u0008's badge flashes brightly.\u007F1\u0000\u0007"
  2: 0x00BF [0x1E] EventEntity looks at LocalPlayer and starts talking
  3: 0x00C4 [0x1C] WAIT(30* ticks)
  4: 0x00C7 [0x1D] PRINT_EVENT_MESSAGE(message_id=13845*)
    → "Hm? I see you have one of those brass badges that Salaheem's Sentinels are handing out unauthorized. Let me take a look at it.\u007F1\u0000\u0007"
  5: 0x00CA [0x23] WAIT_FOR_DIALOG_INTERACTION
  6: 0x00CB [0x66] LOAD_EXT_SCHEDULER_MAIN(work_offset=39*, entity1=EventEntity, entity2=EventEntity, action="tlk0")
  7: 0x00DA [0x1D] PRINT_EVENT_MESSAGE(message_id=13846*)
    → "Interesting. Objects from the Near East seem to shine with a different light.\u0007I've heard that the president of Salaheem's Sentinels is quite tight-fisted, but at least this badge is quite luxurious.\u007F1\u0000\u0007"
  8: 0x00DD [0x23] WAIT_FOR_DIALOG_INTERACTION
  9: 0x00DE [0x66] LOAD_EXT_SCHEDULER_MAIN(work_offset=39*, entity1=EventEntity, entity2=EventEntity, action="tlk1")
 10: 0x00ED [0x21] END_EVENT
 11: 0x00EE [0x00] END_REQSTACK()
```
