# Event 65535

## Metadata

| Field           | Value    |
|-----------------|----------|
| Event Index     | 52/53    |
| Offset          | 0x0426   |
| Data Size       | 36 bytes |
| Calculated Size | 36 bytes |
| Instructions    | 8        |

```
      00 01 02 03 04 05 06 07  08 09 0A 0B 0C 0D 0E 0F
      -- -- -- -- -- -- -- --  -- -- -- -- -- -- -- --
0420:                   1C 7D  80 32 7E 80 1F 00 7F 80        .}.2~.....
0430: 80 80 81 80 1F 01 6F 1C  82 80 5B 0C 80 1D D2 03  ......o...[.....
0440: 01 1D D2 03 01 32 68 73  30 00                    .....2hs0.      
```

## Opcodes

```
  0: 0x0426 [0x1C] WAIT(5* ticks)
  1: 0x0429 [0x32] ExtData[1]->MainSpeed = 43* * 0.1
  2: 0x042C [0x1F] MOVE_ENTITY: EventEntity moves to X=800.708*, Z=269.165*, Y=-20.490*
  3: 0x0434 [0x1F] MOVE_ENTITY: Update entity position (mode=1)
  4: 0x0436 [0x6F] WAIT_FRAME_DELAY: Yield until WaitTime reaches zero
  5: 0x0437 [0x1C] WAIT(10* ticks)
  6: 0x043A [0x5B] LOAD_EXT_SCHEDULER: Load scheduler "2hs0" with entities [yagu5 (ID: 17027613/0x0103D21D), yagu5 (ID: 17027613/0x0103D21D)], work=857*
  7: 0x0449 [0x00] END_REQSTACK()
```
