# Event 65535

## Metadata

| Field           | Value    |
|-----------------|----------|
| Event Index     | 11/11    |
| Offset          | 0x004A   |
| Data Size       | 55 bytes |
| Calculated Size | 55 bytes |
| Instructions    | 11       |

```
      00 01 02 03 04 05 06 07  08 09 0A 0B 0C 0D 0E 0F
      -- -- -- -- -- -- -- --  -- -- -- -- -- -- -- --
0040:                                32 04 80 1F 00 05            2.....
0050: 80 06 80 07 80 1F 01 6F  1E 5B C1 08 01 6F 76 5E  .......o.[...ov^
0060: C1 08 01 7B 5E C1 08 01  5B 08 80 5E C1 08 01 5E  ...{^...[..^...^
0070: C1 08 01 74 6C 6B 30 4A  5B C1 08 01 5E C1 08 01  ...tlk0J[...^...
0080: 00                                                .               
```

## Opcodes

```
  0: 0x004A [0x32] ExtData[1]->MainSpeed = 40* * 0.1
  1: 0x004D [0x1F] MOVE_ENTITY: EventEntity moves to X=393.888*, Z=-0.168*, Y=9.999*
  2: 0x0055 [0x1F] MOVE_ENTITY: Update entity position (mode=1)
  3: 0x0057 [0x6F] WAIT_FRAME_DELAY: Yield until WaitTime reaches zero
  4: 0x0058 [0x1E] EventEntity looks at Zogbog (ID: 17351003/0x0108C15B) and starts talking
  5: 0x005D [0x6F] WAIT_FRAME_DELAY: Yield until WaitTime reaches zero
  6: 0x005E [0x76] CHECK_ENTITY_RENDER_FLAGS: Wait until orc01 (ID: 17351006/0x0108C15E) Render.Flags0 and Render.Flags3 conditions are met
  7: 0x0063 [0x7B] orc01 (ID: 17351006/0x0108C15E) stops talking
  8: 0x0068 [0x5B] LOAD_EXT_SCHEDULER(work_offset=2593*, entity1=orc01 (ID: 17351006/0x0108C15E), entity2=orc01 (ID: 17351006/0x0108C15E), action="tlk0")
  9: 0x0077 [0x4A] Zogbog (ID: 17351003/0x0108C15B) looks at orc01 (ID: 17351006/0x0108C15E)
 10: 0x0080 [0x00] END_REQSTACK()
```
