# 16908480

## Common Data

| Field            | Value                  |
|------------------|------------------------|
| Zone             | Sealion's Den (ID: 32) |
| Block Size       | 17552 bytes            |
| Total Events     | 5                      |
| References Count | 261                    |

## List of Events

| Event ID              | Entrypoint   |   Size |   Instructions |
|-----------------------|--------------|--------|----------------|
| [65535](#event-65535) | 0x0000       |      1 |              1 |
| [31](#event-31)       | 0x0001       |   2594 |            325 |
| [32](#event-32)       | 0x0A23       |   3324 |            381 |
| [33](#event-33)       | 0x171F       |   7411 |            860 |
| [34](#event-34)       | 0x3412       |   3140 |            338 |

## DAT References (imed_data)

|   Index | Hex Value   |   Dec Value |
|---------|-------------|-------------|
|       0 | 0x0013      |          19 |
|       1 | 0x0000      |           0 |
|       2 | 0x0001      |           1 |
|       3 | 0x00FF      |         255 |
|       4 | 0x0048      |          72 |
|       5 | 0x00C8      |         200 |
|       6 | 0x00B4      |         180 |
|       7 | 0x0118      |         280 |
|       8 | 0x021C      |         540 |
|       9 | 0x0320      |         800 |
|      10 | 0xFFF638B8  |  4294326456 |
|      11 | 0xFFF6532E  |  4294333230 |
|      12 | 0x30397     |      197527 |
|      13 | 0x0301      |         769 |
|      14 | 0x001E      |          30 |
|      15 | 0x1E09      |        7689 |
|      16 | 0x1E0A      |        7690 |
|      17 | 0x1E0B      |        7691 |
|      18 | 0x1E0C      |        7692 |
|      19 | 0x0CBC      |        3260 |
|      20 | 0x000A      |          10 |
|      21 | 0x1E0D      |        7693 |
|      22 | 0x1E0E      |        7694 |
|      23 | 0x1E0F      |        7695 |
|      24 | 0x003C      |          60 |
|      25 | 0x1E10      |        7696 |
|      26 | 0x00A3      |         163 |
|      27 | 0x0005      |           5 |
|      28 | 0x0028      |          40 |
|      29 | 0x1E11      |        7697 |
|      30 | 0x1E12      |        7698 |
|      31 | 0x1E13      |        7699 |
|      32 | 0x1E14      |        7700 |
|      33 | 0x1E15      |        7701 |
|      34 | 0x1E16      |        7702 |
|      35 | 0x1E17      |        7703 |
|      36 | 0x1E18      |        7704 |
|      37 | 0x0CC6      |        3270 |
|      38 | 0x0050      |          80 |
|      39 | 0x1E19      |        7705 |
|      40 | 0x0078      |         120 |
|      41 | 0x1E1A      |        7706 |
|      42 | 0x0055      |          85 |
|      43 | 0x00DC      |         220 |
|      44 | 0x000F      |          15 |
|      45 | 0x006C      |         108 |
|      46 | 0x1E1B      |        7707 |
|      47 | 0x1E1C      |        7708 |
|      48 | 0x1E1D      |        7709 |
|      49 | 0xFFF41C25  |  4294188069 |
|      50 | 0xFFFEEAC6  |  4294896326 |
|      51 | 0xFFFE6C4D  |  4294863949 |
|      52 | 0x0CFA      |        3322 |
|      53 | 0x0051      |          81 |
|      54 | 0x1E1E      |        7710 |
|      55 | 0x1E1F      |        7711 |
|      56 | 0x1E20      |        7712 |
|      57 | 0x1E21      |        7713 |
|      58 | 0x0014      |          20 |
|      59 | 0x1E22      |        7714 |
|      60 | 0x00F5      |         245 |
|      61 | 0xFFF41C24  |  4294188068 |
|      62 | 0xFFFED713  |  4294891283 |
|      63 | 0x0C8B      |        3211 |
|      64 | 0x00A6      |         166 |
|      65 | 0x035C      |         860 |
|      66 | 0x0032      |          50 |
|      67 | 0x0300      |         768 |
|      68 | 0x1EC3      |        7875 |
|      69 | 0x1EC4      |        7876 |
|      70 | 0x1EC5      |        7877 |
|      71 | 0x1EC6      |        7878 |
|      72 | 0x1EC7      |        7879 |
|      73 | 0x1EC8      |        7880 |
|      74 | 0x1EC9      |        7881 |
|      75 | 0x00AB      |         171 |
|      76 | 0x00C9      |         201 |
|      77 | 0x1ECA      |        7882 |
|      78 | 0x005A      |          90 |
|      79 | 0x006E      |         110 |
|      80 | 0x00CF      |         207 |
|      81 | 0x0076      |         118 |
|      82 | 0x1ECB      |        7883 |
|      83 | 0x1ECC      |        7884 |
|      84 | 0x01DB      |         475 |
|      85 | 0x1ECD      |        7885 |
|      86 | 0x002D      |          45 |
|      87 | 0x1ECE      |        7886 |
|      88 | 0x0C00      |        3072 |
|      89 | 0xFFF63C04  |  4294327300 |
|      90 | 0x7DED9     |      515801 |
|      91 | 0xFFFC784D  |  4294735949 |
|      92 | 0x0400      |        1024 |
|      93 | 0x0004      |           4 |
|      94 | 0x0009      |           9 |
|      95 | 0x000E      |          14 |
|      96 | 0x1ECF      |        7887 |
|      97 | 0x1ED0      |        7888 |
|      98 | 0x1ED1      |        7889 |
|      99 | 0x1ED2      |        7890 |
|     100 | 0x1ED3      |        7891 |
|     101 | 0x1ED4      |        7892 |
|     102 | 0x1ED5      |        7893 |
|     103 | 0x1ED6      |        7894 |
|     104 | 0x012C      |         300 |
|     105 | 0x0293      |         659 |
|     106 | 0x1ED7      |        7895 |
|     107 | 0x1ED8      |        7896 |
|     108 | 0x1ED9      |        7897 |
|     109 | 0x1EDA      |        7898 |
|     110 | 0x1EDB      |        7899 |
|     111 | 0x004B      |          75 |
|     112 | 0xFFF649F9  |  4294330873 |
|     113 | 0x7FC53     |      523347 |
|     114 | 0xFFFC7914  |  4294736148 |
|     115 | 0x0BE7      |        3047 |
|     116 | 0x0071      |         113 |
|     117 | 0x0082      |         130 |
|     118 | 0x0064      |         100 |
|     119 | 0x008C      |         140 |
|     120 | 0x1E40      |        7744 |
|     121 | 0x0002      |           2 |
|     122 | 0x1E41      |        7745 |
|     123 | 0x1E42      |        7746 |
|     124 | 0x1E43      |        7747 |
|     125 | 0x1E44      |        7748 |
|     126 | 0x1E45      |        7749 |
|     127 | 0x00BE      |         190 |
|     128 | 0x1E46      |        7750 |
|     129 | 0x1E47      |        7751 |
|     130 | 0x1E48      |        7752 |
|     131 | 0x1E49      |        7753 |
|     132 | 0x1E4A      |        7754 |
|     133 | 0x1E4B      |        7755 |
|     134 | 0x1E4C      |        7756 |
|     135 | 0x1E4D      |        7757 |
|     136 | 0x1E4E      |        7758 |
|     137 | 0x1E4F      |        7759 |
|     138 | 0x1E50      |        7760 |
|     139 | 0x1E51      |        7761 |
|     140 | 0x0096      |         150 |
|     141 | 0x1E52      |        7762 |
|     142 | 0x1E53      |        7763 |
|     143 | 0x1E54      |        7764 |
|     144 | 0x1E55      |        7765 |
|     145 | 0x1E56      |        7766 |
|     146 | 0x1E57      |        7767 |
|     147 | 0x1E58      |        7768 |
|     148 | 0x01DA      |         474 |
|     149 | 0x1E59      |        7769 |
|     150 | 0x002B      |          43 |
|     151 | 0x1E5A      |        7770 |
|     152 | 0x1E5B      |        7771 |
|     153 | 0x00F0      |         240 |
|     154 | 0x0375      |         885 |
|     155 | 0x1E5C      |        7772 |
|     156 | 0x0059      |          89 |
|     157 | 0x006A      |         106 |
|     158 | 0x1E5D      |        7773 |
|     159 | 0x1E5E      |        7774 |
|     160 | 0x1E5F      |        7775 |
|     161 | 0x1E60      |        7776 |
|     162 | 0x0046      |          70 |
|     163 | 0x1E61      |        7777 |
|     164 | 0x1E62      |        7778 |
|     165 | 0x0258      |         600 |
|     166 | 0x1E63      |        7779 |
|     167 | 0x1E64      |        7780 |
|     168 | 0x00DB      |         219 |
|     169 | 0x1E65      |        7781 |
|     170 | 0x0019      |          25 |
|     171 | 0x0F25      |        3877 |
|     172 | 0x1E66      |        7782 |
|     173 | 0x1E67      |        7783 |
|     174 | 0x1E68      |        7784 |
|     175 | 0x1E69      |        7785 |
|     176 | 0x1E6A      |        7786 |
|     177 | 0x1E6B      |        7787 |
|     178 | 0x1E6C      |        7788 |
|     179 | 0x1E6D      |        7789 |
|     180 | 0x1E6E      |        7790 |
|     181 | 0x1E6F      |        7791 |
|     182 | 0x1E70      |        7792 |
|     183 | 0x1E71      |        7793 |
|     184 | 0x1E72      |        7794 |
|     185 | 0x0021      |          33 |
|     186 | 0x0006      |           6 |
|     187 | 0x0073      |         115 |
|     188 | 0x00E0      |         224 |
|     189 | 0x1E73      |        7795 |
|     190 | 0x1E74      |        7796 |
|     191 | 0x1E75      |        7797 |
|     192 | 0x1E77      |        7799 |
|     193 | 0x021D      |         541 |
|     194 | 0x1E78      |        7800 |
|     195 | 0x1E79      |        7801 |
|     196 | 0x021F      |         543 |
|     197 | 0x1E7A      |        7802 |
|     198 | 0x1E7B      |        7803 |
|     199 | 0x1E7C      |        7804 |
|     200 | 0x0020      |          32 |
|     201 | 0x1E7D      |        7805 |
|     202 | 0x1E7E      |        7806 |
|     203 | 0x1E7F      |        7807 |
|     204 | 0x1E80      |        7808 |
|     205 | 0x1E81      |        7809 |
|     206 | 0x1E82      |        7810 |
|     207 | 0x1E83      |        7811 |
|     208 | 0x1E84      |        7812 |
|     209 | 0x1E85      |        7813 |
|     210 | 0x1E86      |        7814 |
|     211 | 0x1E87      |        7815 |
|     212 | 0x1E88      |        7816 |
|     213 | 0x1E89      |        7817 |
|     214 | 0x1E8A      |        7818 |
|     215 | 0x1E8B      |        7819 |
|     216 | 0x1E8C      |        7820 |
|     217 | 0x004C      |          76 |
|     218 | 0x1E8D      |        7821 |
|     219 | 0x1E8E      |        7822 |
|     220 | 0x1E8F      |        7823 |
|     221 | 0x1E90      |        7824 |
|     222 | 0x1E91      |        7825 |
|     223 | 0x1E92      |        7826 |
|     224 | 0x0003      |           3 |
|     225 | 0x0007      |           7 |
|     226 | 0x0008      |           8 |
|     227 | 0x1E93      |        7827 |
|     228 | 0x1E94      |        7828 |
|     229 | 0x1E95      |        7829 |
|     230 | 0x1E96      |        7830 |
|     231 | 0x0069      |         105 |
|     232 | 0x004E      |          78 |
|     233 | 0x1E97      |        7831 |
|     234 | 0x1E98      |        7832 |
|     235 | 0x00E7      |         231 |
|     236 | 0xFFF63C1C  |  4294327324 |
|     237 | 0x7E21B     |      516635 |
|     238 | 0x0C11      |        3089 |
|     239 | 0x00A7      |         167 |
|     240 | 0x1EDD      |        7901 |
|     241 | 0x1EDE      |        7902 |
|     242 | 0x1EDF      |        7903 |
|     243 | 0x1EE0      |        7904 |
|     244 | 0x1EE1      |        7905 |
|     245 | 0x1EE2      |        7906 |
|     246 | 0x1EE3      |        7907 |
|     247 | 0x0027      |          39 |
|     248 | 0x001F      |          31 |
|     249 | 0x1EE4      |        7908 |
|     250 | 0x1EE5      |        7909 |
|     251 | 0x1EE6      |        7910 |
|     252 | 0x1EE7      |        7911 |
|     253 | 0x1EE8      |        7912 |
|     254 | 0x1EE9      |        7913 |
|     255 | 0x1EEA      |        7914 |
|     256 | 0x1EEB      |        7915 |
|     257 | 0x1EEC      |        7916 |
|     258 | 0x0075      |         117 |
|     259 | 0x0080      |         128 |
|     260 | 0x00D7      |         215 |

## String References

- **7824**: Do you have what it takes? [You bet!/I don't know...]

## Events

### Event 65535

#### Metadata

| Field        | Value   |
|--------------|---------|
| Entrypoint   | 0x0000  |
| Data Size    | 1 bytes |
| Instructions | 1       |

```
      00 01 02 03 04 05 06 07  08 09 0A 0B 0C 0D 0E 0F
      -- -- -- -- -- -- -- --  -- -- -- -- -- -- -- --
0000: 00                                                .               
```

#### Opcodes

```
  0: 0x0000 [0x00] END_REQSTACK()
```

### Event 31

#### Metadata

| Field        | Value      |
|--------------|------------|
| Entrypoint   | 0x0001     |
| Data Size    | 2594 bytes |
| Instructions | 325        |

```
      00 01 02 03 04 05 06 07  08 09 0A 0B 0C 0D 0E 0F
      -- -- -- -- -- -- -- --  -- -- -- -- -- -- -- --
0000:    42 1A 28 3E 46 01 38  00 80 4E 00 F0 FF FF 7F   B.(>F.8..N.....
0010: AB 09 27 03 94 00 02 01  07 27 03 95 00 02 01 0A  ..'......'......
0020: 27 03 8F 00 02 01 0B 27  03 91 00 02 01 0B 27 03  '......'......'.
0030: 92 00 02 01 03 27 03 93  00 02 01 03 27 03 96 00  .....'......'...
0040: 02 01 03 27 03 8D 00 02  01 14 27 03 90 00 02 01  ...'......'.....
0050: 23 94 01 F0 FF FF 7F 38  00 80 97 01 80 02 80 77  #......8.......w
0060: 03 80 02 80 27 03 9F 00  02 01 11 45 04 80 F0 FF  ....'......E....
0070: FF 7F F0 FF FF 7F 7A 30  30 30 01 80 45 05 80 F0  ......z000..E...
0080: FF FF 7F F0 FF FF 7F 66  64 69 31 01 80 55 05 80  .......fdi1..U..
0090: F0 FF FF 7F F0 FF FF 7F  66 64 69 31 27 03 9F 00  ........fdi1'...
00A0: 02 01 0F 55 04 80 F0 FF  FF 7F F0 FF FF 7F 7A 30  ...U..........z0
00B0: 30 30 1C 06 80 45 04 80  F0 FF FF 7F F0 FF FF 7F  00...E..........
00C0: 7A 30 30 61 01 80 1C 07  80 27 03 9F 00 02 01 14  z00a.....'......
00D0: 55 04 80 F0 FF FF 7F F0  FF FF 7F 7A 30 30 61 1C  U..........z00a.
00E0: 05 80 45 04 80 F0 FF FF  7F F0 FF FF 7F 7A 30 30  ..E..........z00
00F0: 62 01 80 55 04 80 F0 FF  FF 7F F0 FF FF 7F 7A 30  b..U..........z0
0100: 30 62 1C 08 80 45 04 80  F0 FF FF 7F F0 FF FF 7F  0b...E..........
0110: 7A 30 30 31 01 80 1C 09  80 45 05 80 F0 FF FF 7F  z001.....E......
0120: F0 FF FF 7F 66 64 6F 31  01 80 55 05 80 F0 FF FF  ....fdo1..U.....
0130: 7F F0 FF FF 7F 66 64 6F  31 52 04 80 F0 FF FF 7F  .....fdo1R......
0140: F0 FF FF 7F 7A 30 30 31  2D F8 FF FF 7F F8 FF FF  ....z001-.......
0150: 7F 30 34 6F 6E 1C 06 80  45 04 80 F0 FF FF 7F F0  .04on...E.......
0160: FF FF 7F 7A 30 30 32 01  80 45 05 80 F0 FF FF 7F  ...z002..E......
0170: F0 FF FF 7F 66 64 69 31  01 80 55 05 80 F0 FF FF  ....fdi1..U.....
0180: 7F F0 FF FF 7F 66 64 69  31 4E 00 94 00 02 01 4E  .....fdi1N.....N
0190: 00 95 00 02 01 4E 00 90  00 02 01 4E 00 8F 00 02  .....N.....N....
01A0: 01 BA F0 FF FF 7F 0A 80  0B 80 0C 80 0D 80 55 04  ..............U.
01B0: 80 F0 FF FF 7F F0 FF FF  7F 7A 30 30 32 80 94 00  .........z002...
01C0: 02 01 80 95 00 02 01 45  05 80 F0 FF FF 7F F0 FF  .......E........
01D0: FF 7F 6F 76 6C 31 01 80  45 04 80 F0 FF FF 7F F0  ..ovl1..E.......
01E0: FF FF 7F 78 30 30 30 01  80 55 04 80 F0 FF FF 7F  ...x000..U......
01F0: F0 FF FF 7F 78 30 30 30  1C 0E 80 4A 90 00 02 01  ....x000...J....
0200: 8F 00 02 01 4A 8F 00 02  01 90 00 02 01 79 00 F0  ....J........y..
0210: FF FF 7F 90 00 02 01 45  04 80 F0 FF FF 7F F0 FF  .......E........
0220: FF 7F 78 30 30 31 01 80  55 04 80 F0 FF FF 7F F0  ..x001..U.......
0230: FF FF 7F 78 30 30 31 27  03 90 00 02 01 0F 1C 0E  ...x001'........
0240: 80 45 04 80 F0 FF FF 7F  F0 FF FF 7F 78 30 30 32  .E..........x002
0250: 01 80 2B 90 00 02 01 0F  80 23 52 04 80 F0 FF FF  ..+......#R.....
0260: 7F F0 FF FF 7F 78 30 30  32 27 03 90 00 02 01 10  .....x002'......
0270: 45 04 80 F0 FF FF 7F F0  FF FF 7F 78 30 30 33 01  E..........x003.
0280: 80 2B 8F 00 02 01 10 80  23 52 04 80 F0 FF FF 7F  .+......#R......
0290: F0 FF FF 7F 78 30 30 33  27 03 8F 00 02 01 16 45  ....x003'......E
02A0: 04 80 F0 FF FF 7F F0 FF  FF 7F 78 30 30 34 01 80  ..........x004..
02B0: 2B 8F 00 02 01 11 80 23  2B 8F 00 02 01 12 80 23  +......#+......#
02C0: 4B 90 00 02 01 13 80 1C  14 80 52 04 80 F0 FF FF  K.........R.....
02D0: 7F F0 FF FF 7F 78 30 30  34 45 04 80 F0 FF FF 7F  .....x004E......
02E0: F0 FF FF 7F 78 30 30 35  01 80 6F 76 90 00 02 01  ....x005..ov....
02F0: 27 03 90 00 02 01 11 2B  90 00 02 01 15 80 23 2B  '......+......#+
0300: 90 00 02 01 16 80 23 27  03 90 00 02 01 12 52 04  ......#'......R.
0310: 80 F0 FF FF 7F F0 FF FF  7F 78 30 30 35 45 04 80  .........x005E..
0320: F0 FF FF 7F F0 FF FF 7F  78 30 30 36 01 80 1C 0E  ........x006....
0330: 80 27 03 8F 00 02 01 17  2B 8F 00 02 01 17 80 23  .'......+......#
0340: 5D 01 80 18 80 4E 00 96  00 02 01 1C 14 80 45 04  ]....N........E.
0350: 80 96 00 02 01 96 00 02  01 73 30 31 34 01 80 2B  .........s014..+
0360: 96 00 02 01 19 80 5C 00  1A 80 5C 01 1A 80 4A 8F  ......\...\...J.
0370: 00 02 01 96 00 02 01 1C  14 80 4A 90 00 02 01 96  ..........J.....
0380: 00 02 01 1C 1B 80 7B 90  00 02 01 4A F0 FF FF 7F  ......{....J....
0390: 96 00 02 01 4E 00 93 00  02 01 4E 00 92 00 02 01  ....N.....N.....
03A0: 4E 00 91 00 02 01 27 03  96 00 02 01 08 1C 14 80  N.....'.........
03B0: 52 04 80 F0 FF FF 7F F0  FF FF 7F 78 30 30 36 45  R..........x006E
03C0: 04 80 F0 FF FF 7F F0 FF  FF 7F 78 30 30 37 01 80  ..........x007..
03D0: 1C 1C 80 52 04 80 F0 FF  FF 7F F0 FF FF 7F 78 30  ...R..........x0
03E0: 30 37 79 00 90 00 02 01  92 00 02 01 79 00 F0 FF  07y.........y...
03F0: FF 7F 92 00 02 01 79 00  8F 00 02 01 92 00 02 01  ......y.........
0400: 4A 95 00 02 01 92 00 02  01 45 04 80 F0 FF FF 7F  J........E......
0410: F0 FF FF 7F 78 30 30 38  01 80 55 04 80 F0 FF FF  ....x008..U.....
0420: 7F F0 FF FF 7F 78 30 30  38 1C 0E 80 2A 03 96 00  .....x008...*...
0430: 02 01 23 27 03 91 00 02  01 1A 27 03 92 00 02 01  ..#'......'.....
0440: 15 27 03 93 00 02 01 11  45 04 80 F0 FF FF 7F F0  .'......E.......
0450: FF FF 7F 78 30 30 39 01  80 2B 91 00 02 01 1D 80  ...x009..+......
0460: 23 1C 1C 80 2B 92 00 02  01 1E 80 23 1C 1C 80 2B  #...+......#...+
0470: 93 00 02 01 1F 80 23 55  04 80 F0 FF FF 7F F0 FF  ......#U........
0480: FF 7F 78 30 30 39 45 04  80 F0 FF FF 7F F0 FF FF  ..x009E.........
0490: 7F 78 30 30 61 01 80 27  03 8F 00 02 01 19 1C 18  .x00a..'........
04A0: 80 2B 8F 00 02 01 20 80  23 52 04 80 F0 FF FF 7F  .+.... .#R......
04B0: F0 FF FF 7F 78 30 30 61  45 04 80 F0 FF FF 7F F0  ....x00aE.......
04C0: FF FF 7F 78 30 30 62 01  80 27 03 8F 00 02 01 1A  ...x00b..'......
04D0: 2B 91 00 02 01 21 80 23  1C 18 80 2B 92 00 02 01  +....!.#...+....
04E0: 22 80 23 1C 18 80 2B 93  00 02 01 23 80 23 55 04  ".#...+....#.#U.
04F0: 80 F0 FF FF 7F F0 FF FF  7F 78 30 30 62 1C 0E 80  .........x00b...
0500: 45 05 80 F0 FF FF 7F F0  FF FF 7F 6F 76 6C 31 01  E..........ovl1.
0510: 80 45 04 80 F0 FF FF 7F  F0 FF FF 7F 77 30 30 30  .E..........w000
0520: 01 80 1C 18 80 2B 95 00  02 01 24 80 23 55 04 80  .....+....$.#U..
0530: F0 FF FF 7F F0 FF FF 7F  77 30 30 30 4B 91 00 02  ........w000K...
0540: 01 25 80 4E 01 96 00 02  01 45 04 80 F0 FF FF 7F  .%.N.....E......
0550: F0 FF FF 7F 77 30 30 31  01 80 9F 26 80 90 00 02  ....w001...&....
0560: 01 90 00 02 01 00 FE FE  FE 01 80 4E 01 F0 FF FF  ...........N....
0570: 7F 27 03 90 00 02 01 11  2B 90 00 02 01 27 80 23  .'......+....'.#
0580: 5D 01 80 28 80 2A 03 90  00 02 01 55 04 80 F0 FF  ]..(.*.....U....
0590: FF 7F F0 FF FF 7F 77 30  30 31 2B 90 00 02 01 29  ......w001+....)
05A0: 80 23 27 03 90 00 02 01  1A 1C 1C 80 9F 26 80 90  .#'..........&..
05B0: 00 02 01 90 00 02 01 6D  61 69 6E 01 80 45 04 80  .......main..E..
05C0: 95 00 02 01 95 00 02 01  73 31 32 37 01 80 1C 2A  ........s127...*
05D0: 80 5C 00 2B 80 5C 01 2B  80 27 03 93 00 02 01 0F  .\.+.\.+.'......
05E0: 27 03 91 00 02 01 17 1C  14 80 27 03 92 00 02 01  '.........'.....
05F0: 13 1C 2C 80 45 05 80 F0  FF FF 7F F0 FF FF 7F 62  ..,.E..........b
0600: 6C 6F 6E 01 80 45 04 80  F0 FF FF 7F F0 FF FF 7F  lon..E..........
0610: 77 30 30 32 01 80 1C 18  80 4A 94 00 02 01 8D 00  w002.....J......
0620: 02 01 4A 95 00 02 01 8D  00 02 01 27 03 90 00 02  ..J........'....
0630: 01 1B 1C 14 80 55 04 80  F0 FF FF 7F F0 FF FF 7F  .....U..........
0640: 77 30 30 32 45 04 80 F0  FF FF 7F F0 FF FF 7F 77  w002E..........w
0650: 30 30 33 01 80 45 2D 80  F0 FF FF 7F F0 FF FF 7F  003..E-.........
0660: 70 61 73 68 01 80 2B 90  00 02 01 2E 80 23 1C 18  pash..+......#..
0670: 80 55 04 80 F0 FF FF 7F  F0 FF FF 7F 77 30 30 33  .U..........w003
0680: 45 05 80 F0 FF FF 7F F0  FF FF 7F 62 6C 6F 66 01  E..........blof.
0690: 80 27 03 94 00 02 01 0D  45 04 80 F0 FF FF 7F F0  .'......E.......
06A0: FF FF 7F 77 30 30 34 01  80 45 2D 80 F0 FF FF 7F  ...w004..E-.....
06B0: F0 FF FF 7F 70 61 73 68  01 80 1C 0E 80 27 03 95  ....pash.....'..
06C0: 00 02 01 10 55 04 80 F0  FF FF 7F F0 FF FF 7F 77  ....U..........w
06D0: 30 30 34 2B 94 00 02 01  2F 80 23 45 04 80 F0 FF  004+..../.#E....
06E0: FF 7F F0 FF FF 7F 77 30  30 35 01 80 45 2D 80 F0  ......w005..E-..
06F0: FF FF 7F F0 FF FF 7F 70  61 73 68 01 80 55 04 80  .......pash..U..
0700: F0 FF FF 7F F0 FF FF 7F  77 30 30 35 2B 95 00 02  ........w005+...
0710: 01 30 80 23 4E 00 F0 FF  FF 7F 2D F8 FF FF 7F F8  .0.#N.....-.....
0720: FF FF 7F 34 65 6E 64 2D  F8 FF FF 7F F8 FF FF 7F  ...4end-........
0730: 30 31 6F 6E 45 05 80 F0  FF FF 7F F0 FF FF 7F 62  01onE..........b
0740: 6C 6F 6E 01 80 45 04 80  95 00 02 01 95 00 02 01  lon..E..........
0750: 73 31 32 36 01 80 45 04  80 F0 FF FF 7F F0 FF FF  s126..E.........
0760: 7F 7A 30 30 33 01 80 1C  18 80 BA F0 FF FF 7F 31  .z003..........1
0770: 80 32 80 33 80 34 80 27  03 90 00 02 01 27 27 03  .2.3.4.'.....''.
0780: 93 00 02 01 0D 27 03 92  00 02 01 10 27 03 91 00  .....'......'...
0790: 02 01 0F 27 03 8F 00 02  01 0D 27 03 94 00 02 01  ...'......'.....
07A0: 09 27 03 95 00 02 01 0C  29 03 8D 00 02 01 15 1E  .'......).......
07B0: 8D 00 02 01 55 04 80 F0  FF FF 7F F0 FF FF 7F 7A  ....U..........z
07C0: 30 30 33 45 05 80 F0 FF  FF 7F F0 FF FF 7F 62 6C  003E..........bl
07D0: 6F 66 01 80 45 04 80 F0  FF FF 7F F0 FF FF 7F 79  of..E..........y
07E0: 30 30 30 01 80 55 04 80  F0 FF FF 7F F0 FF FF 7F  000..U..........
07F0: 79 30 30 30 45 04 80 95  00 02 01 95 00 02 01 73  y000E..........s
0800: 31 32 37 01 80 1C 18 80  9F 35 80 90 00 02 01 90  127......5......
0810: 00 02 01 6D 61 69 6E 01  80 1C 06 80 45 04 80 F0  ...main.....E...
0820: FF FF 7F F0 FF FF 7F 79  30 30 31 01 80 6B 69 64  .......y001..kid
0830: 6C 30 8F 00 02 01 27 03  95 00 02 01 11 1C 18 80  l0....'.........
0840: 27 03 90 00 02 01 0E 55  04 80 F0 FF FF 7F F0 FF  '......U........
0850: FF 7F 79 30 30 31 2B 90  00 02 01 36 80 23 27 03  ..y001+....6.#'.
0860: 94 00 02 01 0E 27 03 8F  00 02 01 19 45 04 80 F0  .....'......E...
0870: FF FF 7F F0 FF FF 7F 79  30 30 32 01 80 4A 93 00  .......y002..J..
0880: 02 01 92 00 02 01 27 03  93 00 02 01 13 2B 93 00  ......'......+..
0890: 02 01 37 80 27 04 93 00  02 01 14 1C 0E 80 4A 92  ..7.'.........J.
08A0: 00 02 01 93 00 02 01 1C  14 80 4A 91 00 02 01 93  ..........J.....
08B0: 00 02 01 23 27 03 92 00  02 01 17 2B 92 00 02 01  ...#'......+....
08C0: 38 80 23 27 04 92 00 02  01 18 1C 14 80 7B 93 00  8.#'.........{..
08D0: 02 01 7B 92 00 02 01 7B  91 00 02 01 27 03 91 00  ..{....{....'...
08E0: 02 01 19 2B 91 00 02 01  39 80 23 7B 93 00 02 01  ...+....9.#{....
08F0: 2A 04 92 00 02 01 2A 03  91 00 02 01 27 03 91 00  *.....*.....'...
0900: 02 01 10 1C 14 80 27 03  92 00 02 01 11 27 03 93  ......'......'..
0910: 00 02 01 0E 1C 28 80 52  04 80 F0 FF FF 7F F0 FF  .....(.R........
0920: FF 7F 79 30 30 32 45 04  80 F0 FF FF 7F F0 FF FF  ..y002E.........
0930: 7F 79 30 30 33 01 80 79  00 8F 00 02 01 F0 FF FF  .y003..y........
0940: 7F 1C 3A 80 2B 8F 00 02  01 3B 80 1C 0E 80 4A F0  ..:.+....;....J.
0950: FF FF 7F 8F 00 02 01 23  29 03 8F 00 02 01 1A 6F  .......#)......o
0960: 76 F0 FF FF 7F 27 03 8F  00 02 01 0E 1C 0E 80 27  v....'.........'
0970: 03 90 00 02 01 28 1C 0E  80 4A 94 00 02 01 F0 FF  .....(...J......
0980: FF 7F 27 03 95 00 02 01  0D 1C 0E 80 27 03 94 00  ..'.........'...
0990: 02 01 0A 1C 28 80 45 05  80 F0 FF FF 7F F0 FF FF  ....(.E.........
09A0: 7F 66 64 6F 32 01 80 55  05 80 F0 FF FF 7F F0 FF  .fdo2..U........
09B0: FF 7F 66 64 6F 32 52 04  80 F0 FF FF 7F F0 FF FF  ..fdo2R.........
09C0: 7F 79 30 30 33 4E 01 95  00 02 01 4E 01 8F 00 02  .y003N.....N....
09D0: 01 4E 01 90 00 02 01 4E  01 91 00 02 01 4E 01 92  .N.....N.....N..
09E0: 00 02 01 4E 01 93 00 02  01 4E 01 96 00 02 01 4E  ...N.....N.....N
09F0: 01 94 00 02 01 1C 18 80  5C 00 3C 80 5C 01 3C 80  ........\.<.\.<.
0A00: 9A 78 1C 2C 80 AB 11 01  80 1C 02 80 AB 0A 46 00  .x.,..........F.
0A10: 45 05 80 F0 FF FF 7F F0  FF FF 7F 66 64 69 32 01  E..........fdi2.
0A20: 80 21 00                                          .!.             
```

#### Opcodes

```
  0: 0x0001 [0x42] SET_CLI_EVENT_CANCEL_DATA()
  1: 0x0002 [0x1A] CALL_SUBROUTINE(address=0x3E28)
  2: 0x0005 [0x46] CAMERA_CONTROL: Disable user control
  3: 0x0007 [0x38] SET_CLIENT_EVENT_MODE(mode=19*)
  4: 0x000A [0x4E] SET_ENTITY_HIDE_FLAG: Show LocalPlayer
  5: 0x0010 [0xAB] EventEntity->UnknownFlag = 1 // Enable unknown flag
  6: 0x0012 [0x27] REQ_SET(priority=0x03, entity_id=Jabbos (ID: 16908436/0x01020094), tag_num=0x07)
  7: 0x0019 [0x27] REQ_SET(priority=0x03, entity_id=Shikaree Z (ID: 16908437/0x01020095), tag_num=0x0A)
  8: 0x0020 [0x27] REQ_SET(priority=0x03, entity_id=Ulmia (ID: 16908431/0x0102008F), tag_num=0x0B)
  9: 0x0027 [0x27] REQ_SET(priority=0x03, entity_id=Cherukiki (ID: 16908433/0x01020091), tag_num=0x0B)
 10: 0x002E [0x27] REQ_SET(priority=0x03, entity_id=Kukki-Chebukki (ID: 16908434/0x01020092), tag_num=0x03)
 11: 0x0035 [0x27] REQ_SET(priority=0x03, entity_id=Makki-Chebukki (ID: 16908435/0x01020093), tag_num=0x03)
 12: 0x003C [0x27] REQ_SET(priority=0x03, entity_id=Louverance (ID: 16908438/0x01020096), tag_num=0x03)
 13: 0x0043 [0x27] REQ_SET(priority=0x03, entity_id=Prishe (ID: 16908429/0x0102008D), tag_num=0x14)
 14: 0x004A [0x27] REQ_SET(priority=0x03, entity_id=Tenzen (ID: 16908432/0x01020090), tag_num=0x23)
 15: 0x0051 [0x94] LocalPlayer->Render.Flags3 ^= 0x01
 16: 0x0057 [0x38] SET_CLIENT_EVENT_MODE(mode=19*)
 17: 0x005A [0x97] SAVE_SET_WIND_VALUES(wind_base=0x8001, wind_width=0x8002)
 18: 0x005F [0x77] SET_EVENT_TIME_WEATHER(hour=255*, weather=1*)
 19: 0x0064 [0x27] REQ_SET(priority=0x03, entity_id=ship (ID: 16908447/0x0102009F), tag_num=0x11)
 20: 0x006B [0x45] LOAD_SCHEDULED_TASK: Load scheduler "z000" with entities [LocalPlayer, LocalPlayer], work=[72*, 0*]
 21: 0x007C [0x45] LOAD_SCHEDULED_TASK: Load scheduler "fdi1" with entities [LocalPlayer, LocalPlayer], work=[200*, 0*]
 22: 0x008D [0x55] WAIT_LOAD_SCHEDULER: Wait for scheduler "fdi1" with entities [LocalPlayer, LocalPlayer], work=200*
 23: 0x009C [0x27] REQ_SET(priority=0x03, entity_id=ship (ID: 16908447/0x0102009F), tag_num=0x0F)
 24: 0x00A3 [0x55] WAIT_LOAD_SCHEDULER: Wait for scheduler "z000" with entities [LocalPlayer, LocalPlayer], work=72*
 25: 0x00B2 [0x1C] WAIT(180* ticks)
 26: 0x00B5 [0x45] LOAD_SCHEDULED_TASK: Load scheduler "z00a" with entities [LocalPlayer, LocalPlayer], work=[72*, 0*]
 27: 0x00C6 [0x1C] WAIT(280* ticks)
 28: 0x00C9 [0x27] REQ_SET(priority=0x03, entity_id=ship (ID: 16908447/0x0102009F), tag_num=0x14)
 29: 0x00D0 [0x55] WAIT_LOAD_SCHEDULER: Wait for scheduler "z00a" with entities [LocalPlayer, LocalPlayer], work=72*
 30: 0x00DF [0x1C] WAIT(200* ticks)
 31: 0x00E2 [0x45] LOAD_SCHEDULED_TASK: Load scheduler "z00b" with entities [LocalPlayer, LocalPlayer], work=[72*, 0*]
 32: 0x00F3 [0x55] WAIT_LOAD_SCHEDULER: Wait for scheduler "z00b" with entities [LocalPlayer, LocalPlayer], work=72*
 33: 0x0102 [0x1C] WAIT(540* ticks)
 34: 0x0105 [0x45] LOAD_SCHEDULED_TASK: Load scheduler "z001" with entities [LocalPlayer, LocalPlayer], work=[72*, 0*]
 35: 0x0116 [0x1C] WAIT(800* ticks)
 36: 0x0119 [0x45] LOAD_SCHEDULED_TASK: Load scheduler "fdo1" with entities [LocalPlayer, LocalPlayer], work=[200*, 0*]
 37: 0x012A [0x55] WAIT_LOAD_SCHEDULER: Wait for scheduler "fdo1" with entities [LocalPlayer, LocalPlayer], work=200*
 38: 0x0139 [0x52] END_LOAD_SCHEDULER: End scheduler "z001" with entities [LocalPlayer, LocalPlayer], work=72*
 39: 0x0148 [0x2D] CREATE_ZONE_SCHEDULER_TASK: Create scheduler "04on" with entities [EventEntity, EventEntity]
 40: 0x0155 [0x1C] WAIT(180* ticks)
 41: 0x0158 [0x45] LOAD_SCHEDULED_TASK: Load scheduler "z002" with entities [LocalPlayer, LocalPlayer], work=[72*, 0*]
 42: 0x0169 [0x45] LOAD_SCHEDULED_TASK: Load scheduler "fdi1" with entities [LocalPlayer, LocalPlayer], work=[200*, 0*]
 43: 0x017A [0x55] WAIT_LOAD_SCHEDULER: Wait for scheduler "fdi1" with entities [LocalPlayer, LocalPlayer], work=200*
 44: 0x0189 [0x4E] SET_ENTITY_HIDE_FLAG: Show Jabbos (ID: 16908436/0x01020094)
 45: 0x018F [0x4E] SET_ENTITY_HIDE_FLAG: Show Shikaree Z (ID: 16908437/0x01020095)
 46: 0x0195 [0x4E] SET_ENTITY_HIDE_FLAG: Show Tenzen (ID: 16908432/0x01020090)
 47: 0x019B [0x4E] SET_ENTITY_HIDE_FLAG: Show Ulmia (ID: 16908431/0x0102008F)
 48: 0x01A1 [0xBA] SET_ENTITY_POSITION(entity_id=LocalPlayer, pos_x=-640.840*, pos_z=-634.066*, pos_y=197.527*, direction=67.6°*)
 49: 0x01AE [0x55] WAIT_LOAD_SCHEDULER: Wait for scheduler "z002" with entities [LocalPlayer, LocalPlayer], work=72*
 50: 0x01BD [0x80] LOAD_WAIT(entity=Jabbos (ID: 16908436/0x01020094))
 51: 0x01C2 [0x80] LOAD_WAIT(entity=Shikaree Z (ID: 16908437/0x01020095))
 52: 0x01C7 [0x45] LOAD_SCHEDULED_TASK: Load scheduler "ovl1" with entities [LocalPlayer, LocalPlayer], work=[200*, 0*]
 53: 0x01D8 [0x45] LOAD_SCHEDULED_TASK: Load scheduler "x000" with entities [LocalPlayer, LocalPlayer], work=[72*, 0*]
 54: 0x01E9 [0x55] WAIT_LOAD_SCHEDULER: Wait for scheduler "x000" with entities [LocalPlayer, LocalPlayer], work=72*
 55: 0x01F8 [0x1C] WAIT(30* ticks)
 56: 0x01FB [0x4A] Tenzen (ID: 16908432/0x01020090) looks at Ulmia (ID: 16908431/0x0102008F)
 57: 0x0204 [0x4A] Ulmia (ID: 16908431/0x0102008F) looks at Tenzen (ID: 16908432/0x01020090)
 58: 0x020D [0x79] LocalPlayer looks at Tenzen (ID: 16908432/0x01020090) (Basic look)
 59: 0x0217 [0x45] LOAD_SCHEDULED_TASK: Load scheduler "x001" with entities [LocalPlayer, LocalPlayer], work=[72*, 0*]
 60: 0x0228 [0x55] WAIT_LOAD_SCHEDULER: Wait for scheduler "x001" with entities [LocalPlayer, LocalPlayer], work=72*
 61: 0x0237 [0x27] REQ_SET(priority=0x03, entity_id=Tenzen (ID: 16908432/0x01020090), tag_num=0x0F)
 62: 0x023E [0x1C] WAIT(30* ticks)
 63: 0x0241 [0x45] LOAD_SCHEDULED_TASK: Load scheduler "x002" with entities [LocalPlayer, LocalPlayer], work=[72*, 0*]
 64: 0x0252 [0x2B] Tenzen (ID: 16908432/0x01020090) [7689*]:
    → "Do you think there is any chance to catch up with Lady Prishe?"
 65: 0x0259 [0x23] WAIT_FOR_DIALOG_INTERACTION
 66: 0x025A [0x52] END_LOAD_SCHEDULER: End scheduler "x002" with entities [LocalPlayer, LocalPlayer], work=72*
 67: 0x0269 [0x27] REQ_SET(priority=0x03, entity_id=Tenzen (ID: 16908432/0x01020090), tag_num=0x10)
 68: 0x0270 [0x45] LOAD_SCHEDULED_TASK: Load scheduler "x003" with entities [LocalPlayer, LocalPlayer], work=[72*, 0*]
 69: 0x0281 [0x2B] Ulmia (ID: 16908431/0x0102008F) [7690*]:
    → "According to Aldo, the Jeuno Armada departed the Duchy after splitting into two units."
 70: 0x0288 [0x23] WAIT_FOR_DIALOG_INTERACTION
 71: 0x0289 [0x52] END_LOAD_SCHEDULER: End scheduler "x003" with entities [LocalPlayer, LocalPlayer], work=72*
 72: 0x0298 [0x27] REQ_SET(priority=0x03, entity_id=Ulmia (ID: 16908431/0x0102008F), tag_num=0x16)
 73: 0x029F [0x45] LOAD_SCHEDULED_TASK: Load scheduler "x004" with entities [LocalPlayer, LocalPlayer], work=[72*, 0*]
 74: 0x02B0 [0x2B] Ulmia (ID: 16908431/0x0102008F) [7691*]:
    → "The main unit will enter Cape Riverne directly by air and attempt to draw the wyrms from the floating islands."
 75: 0x02B7 [0x23] WAIT_FOR_DIALOG_INTERACTION
 76: 0x02B8 [0x2B] Ulmia (ID: 16908431/0x0102008F) [7692*]:
    → "At the same time, the remaining unit will attempt to approach Bahamut from the opposite direction."
 77: 0x02BF [0x23] WAIT_FOR_DIALOG_INTERACTION
 78: 0x02C0 [0x4B] UPDATE_ENTITY_YAW(entity=Tenzen (ID: 16908432/0x01020090), yaw=17.9°*)
 79: 0x02C7 [0x1C] WAIT(10* ticks)
 80: 0x02CA [0x52] END_LOAD_SCHEDULER: End scheduler "x004" with entities [LocalPlayer, LocalPlayer], work=72*
 81: 0x02D9 [0x45] LOAD_SCHEDULED_TASK: Load scheduler "x005" with entities [LocalPlayer, LocalPlayer], work=[72*, 0*]
 82: 0x02EA [0x6F] WAIT_FRAME_DELAY: Yield until WaitTime reaches zero
 83: 0x02EB [0x76] CHECK_ENTITY_RENDER_FLAGS: Wait until Tenzen (ID: 16908432/0x01020090) Render.Flags0 and Render.Flags3 conditions are met
 84: 0x02F0 [0x27] REQ_SET(priority=0x03, entity_id=Tenzen (ID: 16908432/0x01020090), tag_num=0x11)
 85: 0x02F7 [0x2B] Tenzen (ID: 16908432/0x01020090) [7693*]:
    → "I assume that Prishe would be with the latter."
 86: 0x02FE [0x23] WAIT_FOR_DIALOG_INTERACTION
 87: 0x02FF [0x2B] Tenzen (ID: 16908432/0x01020090) [7694*]:
    → "However, that unit cannot begin its operation until the main unit has successfully drawn the attention of the other wyrms."
 88: 0x0306 [0x23] WAIT_FOR_DIALOG_INTERACTION
 89: 0x0307 [0x27] REQ_SET(priority=0x03, entity_id=Tenzen (ID: 16908432/0x01020090), tag_num=0x12)
 90: 0x030E [0x52] END_LOAD_SCHEDULER: End scheduler "x005" with entities [LocalPlayer, LocalPlayer], work=72*
 91: 0x031D [0x45] LOAD_SCHEDULED_TASK: Load scheduler "x006" with entities [LocalPlayer, LocalPlayer], work=[72*, 0*]
 92: 0x032E [0x1C] WAIT(30* ticks)
 93: 0x0331 [0x27] REQ_SET(priority=0x03, entity_id=Ulmia (ID: 16908431/0x0102008F), tag_num=0x17)
 94: 0x0338 [0x2B] Ulmia (ID: 16908431/0x0102008F) [7695*]:
    → "Engineer Cid said the same thing. This means we still have time!"
 95: 0x033F [0x23] WAIT_FOR_DIALOG_INTERACTION
 96: 0x0340 [0x5D] SET_MUSIC_VOLUME(volume=0*, fade_time=60*)
 97: 0x0345 [0x4E] SET_ENTITY_HIDE_FLAG: Show Louverance (ID: 16908438/0x01020096)
 98: 0x034B [0x1C] WAIT(10* ticks)
 99: 0x034E [0x45] LOAD_SCHEDULED_TASK: Load scheduler "s014" with entities [Louverance (ID: 16908438/0x01020096), Louverance (ID: 16908438/0x01020096)], work=[72*, 0*]
100: 0x035F [0x2B] Louverance (ID: 16908438/0x01020096) [7696*]:
    → "Look what I found hiding below decks."
101: 0x0366 [0x5C] MUSIC_CONTROL: Set Idle (Day) music to song 163*
102: 0x036A [0x5C] MUSIC_CONTROL: Set Idle (Night) music to song 163*
103: 0x036E [0x4A] Ulmia (ID: 16908431/0x0102008F) looks at Louverance (ID: 16908438/0x01020096)
104: 0x0377 [0x1C] WAIT(10* ticks)
105: 0x037A [0x4A] Tenzen (ID: 16908432/0x01020090) looks at Louverance (ID: 16908438/0x01020096)
106: 0x0383 [0x1C] WAIT(5* ticks)
107: 0x0386 [0x7B] Tenzen (ID: 16908432/0x01020090) stops talking
108: 0x038B [0x4A] LocalPlayer looks at Louverance (ID: 16908438/0x01020096)
109: 0x0394 [0x4E] SET_ENTITY_HIDE_FLAG: Show Makki-Chebukki (ID: 16908435/0x01020093)
110: 0x039A [0x4E] SET_ENTITY_HIDE_FLAG: Show Kukki-Chebukki (ID: 16908434/0x01020092)
111: 0x03A0 [0x4E] SET_ENTITY_HIDE_FLAG: Show Cherukiki (ID: 16908433/0x01020091)
112: 0x03A6 [0x27] REQ_SET(priority=0x03, entity_id=Louverance (ID: 16908438/0x01020096), tag_num=0x08)
113: 0x03AD [0x1C] WAIT(10* ticks)
114: 0x03B0 [0x52] END_LOAD_SCHEDULER: End scheduler "x006" with entities [LocalPlayer, LocalPlayer], work=72*
115: 0x03BF [0x45] LOAD_SCHEDULED_TASK: Load scheduler "x007" with entities [LocalPlayer, LocalPlayer], work=[72*, 0*]
116: 0x03D0 [0x1C] WAIT(40* ticks)
117: 0x03D3 [0x52] END_LOAD_SCHEDULER: End scheduler "x007" with entities [LocalPlayer, LocalPlayer], work=72*
118: 0x03E2 [0x79] Tenzen (ID: 16908432/0x01020090) looks at Kukki-Chebukki (ID: 16908434/0x01020092) (Basic look)
119: 0x03EC [0x79] LocalPlayer looks at Kukki-Chebukki (ID: 16908434/0x01020092) (Basic look)
120: 0x03F6 [0x79] Ulmia (ID: 16908431/0x0102008F) looks at Kukki-Chebukki (ID: 16908434/0x01020092) (Basic look)
121: 0x0400 [0x4A] Shikaree Z (ID: 16908437/0x01020095) looks at Kukki-Chebukki (ID: 16908434/0x01020092)
122: 0x0409 [0x45] LOAD_SCHEDULED_TASK: Load scheduler "x008" with entities [LocalPlayer, LocalPlayer], work=[72*, 0*]
123: 0x041A [0x55] WAIT_LOAD_SCHEDULER: Wait for scheduler "x008" with entities [LocalPlayer, LocalPlayer], work=72*
124: 0x0429 [0x1C] WAIT(30* ticks)
125: 0x042C [0x2A] GET_REQ_LEVEL(level=3, entity_id=Louverance (ID: 16908438/0x01020096))
126: 0x0432 [0x23] WAIT_FOR_DIALOG_INTERACTION
127: 0x0433 [0x27] REQ_SET(priority=0x03, entity_id=Cherukiki (ID: 16908433/0x01020091), tag_num=0x1A)
128: 0x043A [0x27] REQ_SET(priority=0x03, entity_id=Kukki-Chebukki (ID: 16908434/0x01020092), tag_num=0x15)
129: 0x0441 [0x27] REQ_SET(priority=0x03, entity_id=Makki-Chebukki (ID: 16908435/0x01020093), tag_num=0x11)
130: 0x0448 [0x45] LOAD_SCHEDULED_TASK: Load scheduler "x009" with entities [LocalPlayer, LocalPlayer], work=[72*, 0*]
131: 0x0459 [0x2B] Cherukiki (ID: 16908433/0x01020091) [7697*]:
    → "Get your hands off me, you pointy-eared brute!"
132: 0x0460 [0x23] WAIT_FOR_DIALOG_INTERACTION
133: 0x0461 [0x1C] WAIT(40* ticks)
134: 0x0464 [0x2B] Kukki-Chebukki (ID: 16908434/0x01020092) [7698*]:
    → "Let us go, or you'll all be doomed!"
135: 0x046B [0x23] WAIT_FOR_DIALOG_INTERACTION
136: 0x046C [0x1C] WAIT(40* ticks)
137: 0x046F [0x2B] Makki-Chebukki (ID: 16908435/0x01020093) [7699*]:
    → "Yeah! We're your secret weapon!"
138: 0x0476 [0x23] WAIT_FOR_DIALOG_INTERACTION
139: 0x0477 [0x55] WAIT_LOAD_SCHEDULER: Wait for scheduler "x009" with entities [LocalPlayer, LocalPlayer], work=72*
140: 0x0486 [0x45] LOAD_SCHEDULED_TASK: Load scheduler "x00a" with entities [LocalPlayer, LocalPlayer], work=[72*, 0*]
141: 0x0497 [0x27] REQ_SET(priority=0x03, entity_id=Ulmia (ID: 16908431/0x0102008F), tag_num=0x19)
142: 0x049E [0x1C] WAIT(60* ticks)
143: 0x04A1 [0x2B] Ulmia (ID: 16908431/0x0102008F) [7700*]:
    → "Secret weapon? You wouldn't happen to be the same "secret weapon" that Cid received from Gilgamesh...would you?"
144: 0x04A8 [0x23] WAIT_FOR_DIALOG_INTERACTION
145: 0x04A9 [0x52] END_LOAD_SCHEDULER: End scheduler "x00a" with entities [LocalPlayer, LocalPlayer], work=72*
146: 0x04B8 [0x45] LOAD_SCHEDULED_TASK: Load scheduler "x00b" with entities [LocalPlayer, LocalPlayer], work=[72*, 0*]
147: 0x04C9 [0x27] REQ_SET(priority=0x03, entity_id=Ulmia (ID: 16908431/0x0102008F), tag_num=0x1A)
148: 0x04D0 [0x2B] Cherukiki (ID: 16908433/0x01020091) [7701*]:
    → "We've given up the fame and glory of being high-class Jeunoan officers!"
149: 0x04D7 [0x23] WAIT_FOR_DIALOG_INTERACTION
150: 0x04D8 [0x1C] WAIT(60* ticks)
151: 0x04DB [0x2B] Kukki-Chebukki (ID: 16908434/0x01020092) [7702*]:
    → "And decided to become high-class pirates!"
152: 0x04E2 [0x23] WAIT_FOR_DIALOG_INTERACTION
153: 0x04E3 [0x1C] WAIT(60* ticks)
154: 0x04E6 [0x2B] Makki-Chebukki (ID: 16908435/0x01020093) [7703*]:
    → "The highest of the high, and classiest of the class, yes sir-ee!"
155: 0x04ED [0x23] WAIT_FOR_DIALOG_INTERACTION
156: 0x04EE [0x55] WAIT_LOAD_SCHEDULER: Wait for scheduler "x00b" with entities [LocalPlayer, LocalPlayer], work=72*
157: 0x04FD [0x1C] WAIT(30* ticks)
158: 0x0500 [0x45] LOAD_SCHEDULED_TASK: Load scheduler "ovl1" with entities [LocalPlayer, LocalPlayer], work=[200*, 0*]
159: 0x0511 [0x45] LOAD_SCHEDULED_TASK: Load scheduler "w000" with entities [LocalPlayer, LocalPlayer], work=[72*, 0*]
160: 0x0522 [0x1C] WAIT(60* ticks)
161: 0x0525 [0x2B] Shikaree Z (ID: 16908437/0x01020095) [7704*]:
    → "..."
162: 0x052C [0x23] WAIT_FOR_DIALOG_INTERACTION
163: 0x052D [0x55] WAIT_LOAD_SCHEDULER: Wait for scheduler "w000" with entities [LocalPlayer, LocalPlayer], work=72*
164: 0x053C [0x4B] UPDATE_ENTITY_YAW(entity=Cherukiki (ID: 16908433/0x01020091), yaw=18.0°*)
165: 0x0543 [0x4E] SET_ENTITY_HIDE_FLAG: Hide Louverance (ID: 16908438/0x01020096)
166: 0x0549 [0x45] LOAD_SCHEDULED_TASK: Load scheduler "w001" with entities [LocalPlayer, LocalPlayer], work=[72*, 0*]
167: 0x055A [0x9F] LOAD_SCHEDULED_TASK_ALT: Load scheduler 0xFEFEFE00 with entities [Tenzen (ID: 16908432/0x01020090), Tenzen (ID: 16908432/0x01020090)], work=[80*, 0*]
168: 0x056B [0x4E] SET_ENTITY_HIDE_FLAG: Hide LocalPlayer
169: 0x0571 [0x27] REQ_SET(priority=0x03, entity_id=Tenzen (ID: 16908432/0x01020090), tag_num=0x11)
170: 0x0578 [0x2B] Tenzen (ID: 16908432/0x01020090) [7705*]:
    → "Hmmm, we will be making contact with the armada shortly."
171: 0x057F [0x23] WAIT_FOR_DIALOG_INTERACTION
172: 0x0580 [0x5D] SET_MUSIC_VOLUME(volume=0*, fade_time=120*)
173: 0x0585 [0x2A] GET_REQ_LEVEL(level=3, entity_id=Tenzen (ID: 16908432/0x01020090))
174: 0x058B [0x55] WAIT_LOAD_SCHEDULER: Wait for scheduler "w001" with entities [LocalPlayer, LocalPlayer], work=72*
175: 0x059A [0x2B] Tenzen (ID: 16908432/0x01020090) [7706*]:
    → "It may be to our advantage to have someone on board who can communicate with them."
176: 0x05A1 [0x23] WAIT_FOR_DIALOG_INTERACTION
177: 0x05A2 [0x27] REQ_SET(priority=0x03, entity_id=Tenzen (ID: 16908432/0x01020090), tag_num=0x1A)
178: 0x05A9 [0x1C] WAIT(40* ticks)
179: 0x05AC [0x9F] LOAD_SCHEDULED_TASK_ALT: Load scheduler "main" with entities [Tenzen (ID: 16908432/0x01020090), Tenzen (ID: 16908432/0x01020090)], work=[80*, 0*]
180: 0x05BD [0x45] LOAD_SCHEDULED_TASK: Load scheduler "s127" with entities [Shikaree Z (ID: 16908437/0x01020095), Shikaree Z (ID: 16908437/0x01020095)], work=[72*, 0*]
181: 0x05CE [0x1C] WAIT(85* ticks)
182: 0x05D1 [0x5C] MUSIC_CONTROL: Set Idle (Day) music to song 220*
183: 0x05D5 [0x5C] MUSIC_CONTROL: Set Idle (Night) music to song 220*
184: 0x05D9 [0x27] REQ_SET(priority=0x03, entity_id=Makki-Chebukki (ID: 16908435/0x01020093), tag_num=0x0F)
185: 0x05E0 [0x27] REQ_SET(priority=0x03, entity_id=Cherukiki (ID: 16908433/0x01020091), tag_num=0x17)
186: 0x05E7 [0x1C] WAIT(10* ticks)
187: 0x05EA [0x27] REQ_SET(priority=0x03, entity_id=Kukki-Chebukki (ID: 16908434/0x01020092), tag_num=0x13)
188: 0x05F1 [0x1C] WAIT(15* ticks)
189: 0x05F4 [0x45] LOAD_SCHEDULED_TASK: Load scheduler "blon" with entities [LocalPlayer, LocalPlayer], work=[200*, 0*]
190: 0x0605 [0x45] LOAD_SCHEDULED_TASK: Load scheduler "w002" with entities [LocalPlayer, LocalPlayer], work=[72*, 0*]
191: 0x0616 [0x1C] WAIT(60* ticks)
192: 0x0619 [0x4A] Jabbos (ID: 16908436/0x01020094) looks at Prishe (ID: 16908429/0x0102008D)
193: 0x0622 [0x4A] Shikaree Z (ID: 16908437/0x01020095) looks at Prishe (ID: 16908429/0x0102008D)
194: 0x062B [0x27] REQ_SET(priority=0x03, entity_id=Tenzen (ID: 16908432/0x01020090), tag_num=0x1B)
195: 0x0632 [0x1C] WAIT(10* ticks)
196: 0x0635 [0x55] WAIT_LOAD_SCHEDULER: Wait for scheduler "w002" with entities [LocalPlayer, LocalPlayer], work=72*
197: 0x0644 [0x45] LOAD_SCHEDULED_TASK: Load scheduler "w003" with entities [LocalPlayer, LocalPlayer], work=[72*, 0*]
198: 0x0655 [0x45] LOAD_SCHEDULED_TASK: Load scheduler "pash" with entities [LocalPlayer, LocalPlayer], work=[108*, 0*]
199: 0x0666 [0x2B] Tenzen (ID: 16908432/0x01020090) [7707*]:
    → "What the...!"
200: 0x066D [0x23] WAIT_FOR_DIALOG_INTERACTION
201: 0x066E [0x1C] WAIT(60* ticks)
202: 0x0671 [0x55] WAIT_LOAD_SCHEDULER: Wait for scheduler "w003" with entities [LocalPlayer, LocalPlayer], work=72*
203: 0x0680 [0x45] LOAD_SCHEDULED_TASK: Load scheduler "blof" with entities [LocalPlayer, LocalPlayer], work=[200*, 0*]
204: 0x0691 [0x27] REQ_SET(priority=0x03, entity_id=Jabbos (ID: 16908436/0x01020094), tag_num=0x0D)
205: 0x0698 [0x45] LOAD_SCHEDULED_TASK: Load scheduler "w004" with entities [LocalPlayer, LocalPlayer], work=[72*, 0*]
206: 0x06A9 [0x45] LOAD_SCHEDULED_TASK: Load scheduler "pash" with entities [LocalPlayer, LocalPlayer], work=[108*, 0*]
207: 0x06BA [0x1C] WAIT(30* ticks)
208: 0x06BD [0x27] REQ_SET(priority=0x03, entity_id=Shikaree Z (ID: 16908437/0x01020095), tag_num=0x10)
209: 0x06C4 [0x55] WAIT_LOAD_SCHEDULER: Wait for scheduler "w004" with entities [LocalPlayer, LocalPlayer], work=72*
210: 0x06D3 [0x2B] Jabbos (ID: 16908436/0x01020094) [7708*]:
    → "I can see them... The..."
211: 0x06DA [0x23] WAIT_FOR_DIALOG_INTERACTION
212: 0x06DB [0x45] LOAD_SCHEDULED_TASK: Load scheduler "w005" with entities [LocalPlayer, LocalPlayer], work=[72*, 0*]
213: 0x06EC [0x45] LOAD_SCHEDULED_TASK: Load scheduler "pash" with entities [LocalPlayer, LocalPlayer], work=[108*, 0*]
214: 0x06FD [0x55] WAIT_LOAD_SCHEDULER: Wait for scheduler "w005" with entities [LocalPlayer, LocalPlayer], work=72*
215: 0x070C [0x2B] Shikaree Z (ID: 16908437/0x01020095) [7709*]:
    → "The Jeuno Armada!"
216: 0x0713 [0x23] WAIT_FOR_DIALOG_INTERACTION
217: 0x0714 [0x4E] SET_ENTITY_HIDE_FLAG: Show LocalPlayer
218: 0x071A [0x2D] CREATE_ZONE_SCHEDULER_TASK: Create scheduler "4end" with entities [EventEntity, EventEntity]
219: 0x0727 [0x2D] CREATE_ZONE_SCHEDULER_TASK: Create scheduler "01on" with entities [EventEntity, EventEntity]
220: 0x0734 [0x45] LOAD_SCHEDULED_TASK: Load scheduler "blon" with entities [LocalPlayer, LocalPlayer], work=[200*, 0*]
221: 0x0745 [0x45] LOAD_SCHEDULED_TASK: Load scheduler "s126" with entities [Shikaree Z (ID: 16908437/0x01020095), Shikaree Z (ID: 16908437/0x01020095)], work=[72*, 0*]
222: 0x0756 [0x45] LOAD_SCHEDULED_TASK: Load scheduler "z003" with entities [LocalPlayer, LocalPlayer], work=[72*, 0*]
223: 0x0767 [0x1C] WAIT(60* ticks)
224: 0x076A [0xBA] SET_ENTITY_POSITION(entity_id=LocalPlayer, pos_x=-779.227*, pos_z=-70.970*, pos_y=-103.347*, direction=292.0°*)
225: 0x0777 [0x27] REQ_SET(priority=0x03, entity_id=Tenzen (ID: 16908432/0x01020090), tag_num=0x27)
226: 0x077E [0x27] REQ_SET(priority=0x03, entity_id=Makki-Chebukki (ID: 16908435/0x01020093), tag_num=0x0D)
227: 0x0785 [0x27] REQ_SET(priority=0x03, entity_id=Kukki-Chebukki (ID: 16908434/0x01020092), tag_num=0x10)
228: 0x078C [0x27] REQ_SET(priority=0x03, entity_id=Cherukiki (ID: 16908433/0x01020091), tag_num=0x0F)
229: 0x0793 [0x27] REQ_SET(priority=0x03, entity_id=Ulmia (ID: 16908431/0x0102008F), tag_num=0x0D)
230: 0x079A [0x27] REQ_SET(priority=0x03, entity_id=Jabbos (ID: 16908436/0x01020094), tag_num=0x09)
231: 0x07A1 [0x27] REQ_SET(priority=0x03, entity_id=Shikaree Z (ID: 16908437/0x01020095), tag_num=0x0C)
232: 0x07A8 [0x29] REQ_SET_WAIT(priority=0x03, entity_id=Prishe (ID: 16908429/0x0102008D), tag_num=0x15)
233: 0x07AF [0x1E] EventEntity looks at Prishe (ID: 16908429/0x0102008D) and starts talking
234: 0x07B4 [0x55] WAIT_LOAD_SCHEDULER: Wait for scheduler "z003" with entities [LocalPlayer, LocalPlayer], work=72*
235: 0x07C3 [0x45] LOAD_SCHEDULED_TASK: Load scheduler "blof" with entities [LocalPlayer, LocalPlayer], work=[200*, 0*]
236: 0x07D4 [0x45] LOAD_SCHEDULED_TASK: Load scheduler "y000" with entities [LocalPlayer, LocalPlayer], work=[72*, 0*]
237: 0x07E5 [0x55] WAIT_LOAD_SCHEDULER: Wait for scheduler "y000" with entities [LocalPlayer, LocalPlayer], work=72*
238: 0x07F4 [0x45] LOAD_SCHEDULED_TASK: Load scheduler "s127" with entities [Shikaree Z (ID: 16908437/0x01020095), Shikaree Z (ID: 16908437/0x01020095)], work=[72*, 0*]
239: 0x0805 [0x1C] WAIT(60* ticks)
240: 0x0808 [0x9F] LOAD_SCHEDULED_TASK_ALT: Load scheduler "main" with entities [Tenzen (ID: 16908432/0x01020090), Tenzen (ID: 16908432/0x01020090)], work=[81*, 0*]
241: 0x0819 [0x1C] WAIT(180* ticks)
242: 0x081C [0x45] LOAD_SCHEDULED_TASK: Load scheduler "y001" with entities [LocalPlayer, LocalPlayer], work=[72*, 0*]
243: 0x082D [0x6B] STOP_AND_IDLE: Ulmia (ID: 16908431/0x0102008F) stops current action and resets to idle (animation="idl0")
244: 0x0836 [0x27] REQ_SET(priority=0x03, entity_id=Shikaree Z (ID: 16908437/0x01020095), tag_num=0x11)
245: 0x083D [0x1C] WAIT(60* ticks)
246: 0x0840 [0x27] REQ_SET(priority=0x03, entity_id=Tenzen (ID: 16908432/0x01020090), tag_num=0x0E)
247: 0x0847 [0x55] WAIT_LOAD_SCHEDULER: Wait for scheduler "y001" with entities [LocalPlayer, LocalPlayer], work=72*
248: 0x0856 [0x2B] Tenzen (ID: 16908432/0x01020090) [7710*]:
    → "Warning shots?"
249: 0x085D [0x23] WAIT_FOR_DIALOG_INTERACTION
250: 0x085E [0x27] REQ_SET(priority=0x03, entity_id=Jabbos (ID: 16908436/0x01020094), tag_num=0x0E)
251: 0x0865 [0x27] REQ_SET(priority=0x03, entity_id=Ulmia (ID: 16908431/0x0102008F), tag_num=0x19)
252: 0x086C [0x45] LOAD_SCHEDULED_TASK: Load scheduler "y002" with entities [LocalPlayer, LocalPlayer], work=[72*, 0*]
253: 0x087D [0x4A] Makki-Chebukki (ID: 16908435/0x01020093) looks at Kukki-Chebukki (ID: 16908434/0x01020092)
254: 0x0886 [0x27] REQ_SET(priority=0x03, entity_id=Makki-Chebukki (ID: 16908435/0x01020093), tag_num=0x13)
255: 0x088D [0x2B] Makki-Chebukki (ID: 16908435/0x01020093) [7711*]:
    → "That scary Elvaan went to the communications room!"
256: 0x0894 [0x27] REQ_SET(priority=0x04, entity_id=Makki-Chebukki (ID: 16908435/0x01020093), tag_num=0x14)
257: 0x089B [0x1C] WAIT(30* ticks)
258: 0x089E [0x4A] Kukki-Chebukki (ID: 16908434/0x01020092) looks at Makki-Chebukki (ID: 16908435/0x01020093)
259: 0x08A7 [0x1C] WAIT(10* ticks)
260: 0x08AA [0x4A] Cherukiki (ID: 16908433/0x01020091) looks at Makki-Chebukki (ID: 16908435/0x01020093)
261: 0x08B3 [0x23] WAIT_FOR_DIALOG_INTERACTION
262: 0x08B4 [0x27] REQ_SET(priority=0x03, entity_id=Kukki-Chebukki (ID: 16908434/0x01020092), tag_num=0x17)
263: 0x08BB [0x2B] Kukki-Chebukki (ID: 16908434/0x01020092) [7712*]:
    → "Shouldn't we be going to the communications room?"
264: 0x08C2 [0x23] WAIT_FOR_DIALOG_INTERACTION
265: 0x08C3 [0x27] REQ_SET(priority=0x04, entity_id=Kukki-Chebukki (ID: 16908434/0x01020092), tag_num=0x18)
266: 0x08CA [0x1C] WAIT(10* ticks)
267: 0x08CD [0x7B] Makki-Chebukki (ID: 16908435/0x01020093) stops talking
268: 0x08D2 [0x7B] Kukki-Chebukki (ID: 16908434/0x01020092) stops talking
269: 0x08D7 [0x7B] Cherukiki (ID: 16908433/0x01020091) stops talking
270: 0x08DC [0x27] REQ_SET(priority=0x03, entity_id=Cherukiki (ID: 16908433/0x01020091), tag_num=0x19)
271: 0x08E3 [0x2B] Cherukiki (ID: 16908433/0x01020091) [7713*]:
    → "I say we go to the communications room!"
272: 0x08EA [0x23] WAIT_FOR_DIALOG_INTERACTION
273: 0x08EB [0x7B] Makki-Chebukki (ID: 16908435/0x01020093) stops talking
274: 0x08F0 [0x2A] GET_REQ_LEVEL(level=4, entity_id=Kukki-Chebukki (ID: 16908434/0x01020092))
275: 0x08F6 [0x2A] GET_REQ_LEVEL(level=3, entity_id=Cherukiki (ID: 16908433/0x01020091))
276: 0x08FC [0x27] REQ_SET(priority=0x03, entity_id=Cherukiki (ID: 16908433/0x01020091), tag_num=0x10)
277: 0x0903 [0x1C] WAIT(10* ticks)
278: 0x0906 [0x27] REQ_SET(priority=0x03, entity_id=Kukki-Chebukki (ID: 16908434/0x01020092), tag_num=0x11)
279: 0x090D [0x27] REQ_SET(priority=0x03, entity_id=Makki-Chebukki (ID: 16908435/0x01020093), tag_num=0x0E)
280: 0x0914 [0x1C] WAIT(120* ticks)
281: 0x0917 [0x52] END_LOAD_SCHEDULER: End scheduler "y002" with entities [LocalPlayer, LocalPlayer], work=72*
282: 0x0926 [0x45] LOAD_SCHEDULED_TASK: Load scheduler "y003" with entities [LocalPlayer, LocalPlayer], work=[72*, 0*]
283: 0x0937 [0x79] Ulmia (ID: 16908431/0x0102008F) looks at LocalPlayer (Basic look)
284: 0x0941 [0x1C] WAIT(20* ticks)
285: 0x0944 [0x2B] Ulmia (ID: 16908431/0x0102008F) [7714*]:
    → "We should go as well, <Player>. We must try to convince them that we are here to help!"
286: 0x094B [0x1C] WAIT(30* ticks)
287: 0x094E [0x4A] LocalPlayer looks at Ulmia (ID: 16908431/0x0102008F)
288: 0x0957 [0x23] WAIT_FOR_DIALOG_INTERACTION
289: 0x0958 [0x29] REQ_SET_WAIT(priority=0x03, entity_id=Ulmia (ID: 16908431/0x0102008F), tag_num=0x1A)
290: 0x095F [0x6F] WAIT_FRAME_DELAY: Yield until WaitTime reaches zero
291: 0x0960 [0x76] CHECK_ENTITY_RENDER_FLAGS: Wait until LocalPlayer Render.Flags0 and Render.Flags3 conditions are met
292: 0x0965 [0x27] REQ_SET(priority=0x03, entity_id=Ulmia (ID: 16908431/0x0102008F), tag_num=0x0E)
293: 0x096C [0x1C] WAIT(30* ticks)
294: 0x096F [0x27] REQ_SET(priority=0x03, entity_id=Tenzen (ID: 16908432/0x01020090), tag_num=0x28)
295: 0x0976 [0x1C] WAIT(30* ticks)
296: 0x0979 [0x4A] Jabbos (ID: 16908436/0x01020094) looks at LocalPlayer
297: 0x0982 [0x27] REQ_SET(priority=0x03, entity_id=Shikaree Z (ID: 16908437/0x01020095), tag_num=0x0D)
298: 0x0989 [0x1C] WAIT(30* ticks)
299: 0x098C [0x27] REQ_SET(priority=0x03, entity_id=Jabbos (ID: 16908436/0x01020094), tag_num=0x0A)
300: 0x0993 [0x1C] WAIT(120* ticks)
301: 0x0996 [0x45] LOAD_SCHEDULED_TASK: Load scheduler "fdo2" with entities [LocalPlayer, LocalPlayer], work=[200*, 0*]
302: 0x09A7 [0x55] WAIT_LOAD_SCHEDULER: Wait for scheduler "fdo2" with entities [LocalPlayer, LocalPlayer], work=200*
303: 0x09B6 [0x52] END_LOAD_SCHEDULER: End scheduler "y003" with entities [LocalPlayer, LocalPlayer], work=72*
304: 0x09C5 [0x4E] SET_ENTITY_HIDE_FLAG: Hide Shikaree Z (ID: 16908437/0x01020095)
305: 0x09CB [0x4E] SET_ENTITY_HIDE_FLAG: Hide Ulmia (ID: 16908431/0x0102008F)
306: 0x09D1 [0x4E] SET_ENTITY_HIDE_FLAG: Hide Tenzen (ID: 16908432/0x01020090)
307: 0x09D7 [0x4E] SET_ENTITY_HIDE_FLAG: Hide Cherukiki (ID: 16908433/0x01020091)
308: 0x09DD [0x4E] SET_ENTITY_HIDE_FLAG: Hide Kukki-Chebukki (ID: 16908434/0x01020092)
309: 0x09E3 [0x4E] SET_ENTITY_HIDE_FLAG: Hide Makki-Chebukki (ID: 16908435/0x01020093)
310: 0x09E9 [0x4E] SET_ENTITY_HIDE_FLAG: Hide Louverance (ID: 16908438/0x01020096)
311: 0x09EF [0x4E] SET_ENTITY_HIDE_FLAG: Hide Jabbos (ID: 16908436/0x01020094)
312: 0x09F5 [0x1C] WAIT(60* ticks)
313: 0x09F8 [0x5C] MUSIC_CONTROL: Set Idle (Day) music to song 245*
314: 0x09FC [0x5C] MUSIC_CONTROL: Set Idle (Night) music to song 245*
315: 0x0A00 [0x9A] WAIT_MUSIC_SERVER()
316: 0x0A01 [0x78] ENABLE_GAME_TIMER_RESET_WEATHER()
317: 0x0A02 [0x1C] WAIT(15* ticks)
318: 0x0A05 [0xAB] EventEntity->DespawnValue = 0* // Set despawn value
319: 0x0A09 [0x1C] WAIT(1* ticks)
320: 0x0A0C [0xAB] EventEntity->UnknownFlag = 0 // Disable unknown flag
321: 0x0A0E [0x46] CAMERA_CONTROL: Restore default settings
322: 0x0A10 [0x45] LOAD_SCHEDULED_TASK: Load scheduler "fdi2" with entities [LocalPlayer, LocalPlayer], work=[200*, 0*]
323: 0x0A21 [0x21] END_EVENT
324: 0x0A22 [0x00] END_REQSTACK()
```

### Event 32

#### Metadata

| Field        | Value      |
|--------------|------------|
| Entrypoint   | 0x0A23     |
| Data Size    | 3324 bytes |
| Instructions | 381        |

```
      00 01 02 03 04 05 06 07  08 09 0A 0B 0C 0D 0E 0F
      -- -- -- -- -- -- -- --  -- -- -- -- -- -- -- --
0A20:          42 1A 28 3E 46  01 38 00 80 4E 00 F0 FF     B.(>F.8..N...
0A30: FF 7F AB 09 27 03 9F 00  02 01 11 4E 00 9F 00 02  ....'......N....
0A40: 01 4E 00 95 00 02 01 27  03 95 00 02 01 0B 4E 00  .N.....'......N.
0A50: 94 00 02 01 27 03 94 00  02 01 08 4E 00 8D 00 02  ....'......N....
0A60: 01 27 03 8D 00 02 01 04  4E 00 8F 00 02 01 27 03  .'......N.....'.
0A70: 8F 00 02 01 0C 4E 00 90  00 02 01 27 03 90 00 02  .....N.....'....
0A80: 01 24 4E 00 93 00 02 01  27 03 93 00 02 01 04 4E  .$N.....'......N
0A90: 00 92 00 02 01 27 03 92  00 02 01 04 4E 00 91 00  .....'......N...
0AA0: 02 01 27 03 91 00 02 01  0C 27 03 96 00 02 01 04  ..'......'......
0AB0: 94 01 F0 FF FF 7F 38 00  80 BA F0 FF FF 7F 3D 80  ......8.......=.
0AC0: 3E 80 33 80 3F 80 2D F8  FF FF 7F F8 FF FF 7F 30  >.3.?.-........0
0AD0: 31 6F 6E 2D F8 FF FF 7F  F8 FF FF 7F 32 65 6E 64  1on-........2end
0AE0: 2D F8 FF FF 7F F8 FF FF  7F 33 65 6E 64 97 01 80  -........3end...
0AF0: 02 80 77 03 80 02 80 80  95 00 02 01 80 94 00 02  ..w.............
0B00: 01 27 03 9F 00 02 01 0F  27 03 9F 00 02 01 14 1C  .'......'.......
0B10: 18 80 45 40 80 F0 FF FF  7F F0 FF FF 7F 72 30 30  ..E@.........r00
0B20: 31 01 80 45 05 80 F0 FF  FF 7F F0 FF FF 7F 66 64  1..E..........fd
0B30: 69 31 01 80 55 05 80 F0  FF FF 7F F0 FF FF 7F 66  i1..U..........f
0B40: 64 69 31 55 40 80 F0 FF  FF 7F F0 FF FF 7F 72 30  di1U@.........r0
0B50: 30 31 45 05 80 F0 FF FF  7F F0 FF FF 7F 6F 76 6C  01E..........ovl
0B60: 31 01 80 45 40 80 F0 FF  FF 7F F0 FF FF 7F 72 30  1..E@.........r0
0B70: 30 30 01 80 1C 41 80 45  05 80 F0 FF FF 7F F0 FF  00...A.E........
0B80: FF 7F 66 64 6F 31 01 80  55 05 80 F0 FF FF 7F F0  ..fdo1..U.......
0B90: FF FF 7F 66 64 6F 31 5D  01 80 05 80 52 40 80 F0  ...fdo1]....R@..
0BA0: FF FF 7F F0 FF FF 7F 72  30 30 30 79 00 8D 00 02  .......r000y....
0BB0: 01 90 00 02 01 1C 06 80  45 40 80 F0 FF FF 7F F0  ........E@......
0BC0: FF FF 7F 7A 30 30 31 01  80 45 05 80 F0 FF FF 7F  ...z001..E......
0BD0: F0 FF FF 7F 66 64 69 31  01 80 55 05 80 F0 FF FF  ....fdi1..U.....
0BE0: 7F F0 FF FF 7F 66 64 69  31 55 40 80 F0 FF FF 7F  .....fdi1U@.....
0BF0: F0 FF FF 7F 7A 30 30 31  45 2D 80 F0 FF FF 7F F0  ....z001E-......
0C00: FF FF 7F 6F 6C 70 31 01  80 45 40 80 F0 FF FF 7F  ...olp1..E@.....
0C10: F0 FF FF 7F 7A 30 30 32  01 80 55 40 80 F0 FF FF  ....z002..U@....
0C20: 7F F0 FF FF 7F 7A 30 30  32 45 40 80 F0 FF FF 7F  .....z002E@.....
0C30: F0 FF FF 7F 7A 30 30 33  01 80 55 40 80 F0 FF FF  ....z003..U@....
0C40: 7F F0 FF FF 7F 7A 30 30  33 1C 42 80 45 05 80 90  .....z003.B.E...
0C50: 00 02 01 90 00 02 01 6F  76 6C 31 01 80 45 40 80  .......ovl1..E@.
0C60: F0 FF FF 7F F0 FF FF 7F  7A 30 30 34 01 80 55 40  ........z004..U@
0C70: 80 F0 FF FF 7F F0 FF FF  7F 7A 30 30 34 1C 18 80  .........z004...
0C80: 45 40 80 F0 FF FF 7F F0  FF FF 7F 7A 30 30 35 01  E@.........z005.
0C90: 80 55 40 80 F0 FF FF 7F  F0 FF FF 7F 7A 30 30 35  .U@.........z005
0CA0: 3A 95 00 02 01 01 00 08  01 00 43 80 4B 95 00 02  :.........C.K...
0CB0: 01 01 00 1C 18 80 2B 94  00 02 01 44 80 23 45 40  ......+....D.#E@
0CC0: 80 F0 FF FF 7F F0 FF FF  7F 7A 30 30 36 01 80 55  .........z006..U
0CD0: 40 80 F0 FF FF 7F F0 FF  FF 7F 7A 30 30 36 79 00  @.........z006y.
0CE0: 95 00 02 01 94 00 02 01  2B 95 00 02 01 45 80 1C  ........+....E..
0CF0: 0E 80 79 00 94 00 02 01  95 00 02 01 23 27 03 AF  ..y.........#'..
0D00: 00 02 01 04 45 40 80 F0  FF FF 7F F0 FF FF 7F 7A  ....E@.........z
0D10: 30 30 37 01 80 45 40 80  95 00 02 01 95 00 02 01  007..E@.........
0D20: 73 65 30 30 01 80 07 01  00 43 80 79 00 95 00 02  se00.....C.y....
0D30: 01 AF 00 02 01 4B 95 00  02 01 01 00 6F 76 95 00  .....K......ov..
0D40: 02 01 2B 95 00 02 01 46  80 23 55 40 80 F0 FF FF  ..+....F.#U@....
0D50: 7F F0 FF FF 7F 7A 30 30  37 7B 8D 00 02 01 45 40  .....z007{....E@
0D60: 80 F0 FF FF 7F F0 FF FF  7F 7A 30 30 38 01 80 7B  .........z008..{
0D70: 95 00 02 01 4E 01 AF 00  02 01 27 03 8F 00 02 01  ....N.....'.....
0D80: 22 1C 0E 80 2B 8F 00 02  01 47 80 23 2A 03 8F 00  "...+....G.#*...
0D90: 02 01 2B 8F 00 02 01 48  80 23 52 40 80 F0 FF FF  ..+....H.#R@....
0DA0: 7F F0 FF FF 7F 7A 30 30  38 45 40 80 F0 FF FF 7F  .....z008E@.....
0DB0: F0 FF FF 7F 7A 30 30 39  01 80 2B 8D 00 02 01 49  ....z009..+....I
0DC0: 80 27 03 8F 00 02 01 23  1C 2C 80 79 00 8F 00 02  .'.....#.,.y....
0DD0: 01 8D 00 02 01 55 40 80  F0 FF FF 7F F0 FF FF 7F  .....U@.........
0DE0: 7A 30 30 39 23 27 03 8D  00 02 01 01 2B 8D 00 02  z009#'......+...
0DF0: 01 4A 80 45 40 80 F0 FF  FF 7F F0 FF FF 7F 79 30  .J.E@.........y0
0E00: 30 30 01 80 2A 03 8D 00  02 01 55 40 80 F0 FF FF  00..*.....U@....
0E10: 7F F0 FF FF 7F 79 30 30  30 23 45 2D 80 F0 FF FF  .....y000#E-....
0E20: 7F F0 FF FF 7F 62 61 73  68 01 80 45 2D 80 F0 FF  .....bash..E-...
0E30: FF 7F F0 FF FF 7F 77 68  6F 33 01 80 55 2D 80 F0  ......who3..U-..
0E40: FF FF 7F F0 FF FF 7F 77  68 6F 33 45 40 80 F0 FF  .......who3E@...
0E50: FF 7F F0 FF FF 7F 79 30  30 39 01 80 2D F8 FF FF  ......y009..-...
0E60: 7F F8 FF FF 7F 6C 77 6F  6E 2D F8 FF FF 7F F8 FF  .....lwon-......
0E70: FF 7F 6C 6F 6F 70 45 4B  80 F8 FF FF 7F F8 FF FF  ..loopEK........
0E80: 7F 73 65 33 38 01 80 1C  14 80 45 4C 80 F0 FF FF  .se38.....EL....
0E90: 7F F0 FF FF 7F 77 68 69  31 01 80 55 4C 80 F0 FF  .....whi1..UL...
0EA0: FF 7F F0 FF FF 7F 77 68  69 31 27 03 8D 00 02 01  ......whi1'.....
0EB0: 02 4E 01 8F 00 02 01 27  03 8F 00 02 01 24 27 03  .N.....'.....$'.
0EC0: 95 00 02 01 0F 27 03 94  00 02 01 0C 1C 06 80 52  .....'.........R
0ED0: 40 80 F8 FF FF 7F F8 FF  FF 7F 79 30 30 39 45 40  @.........y009E@
0EE0: 80 F0 FF FF 7F F0 FF FF  7F 79 30 30 31 01 80 27  .........y001..'
0EF0: 03 8D 00 02 01 36 55 40  80 F0 FF FF 7F F0 FF FF  .....6U@........
0F00: 7F 79 30 30 31 2B 8D 00  02 01 4D 80 23 2A 03 8D  .y001+....M.#*..
0F10: 00 02 01 2D F8 FF FF 7F  F8 FF FF 7F 6B 69 6C 6C  ...-........kill
0F20: 27 03 8D 00 02 01 37 1C  4E 80 45 40 80 F0 FF FF  '.....7.N.E@....
0F30: 7F F0 FF FF 7F 79 30 30  32 01 80 1C 42 80 45 04  .....y002...B.E.
0F40: 80 90 00 02 01 90 00 02  01 73 31 32 37 01 80 1C  .........s127...
0F50: 4F 80 4B F0 FF FF 7F 50  80 4E 00 8F 00 02 01 52  O.K....P.N.....R
0F60: 40 80 F0 FF FF 7F F0 FF  FF 7F 79 30 30 32 9F 51  @.........y002.Q
0F70: 80 F8 FF FF 7F F8 FF FF  7F 6D 61 69 6E 01 80 45  .........main..E
0F80: 40 80 F0 FF FF 7F F0 FF  FF 7F 79 30 30 33 01 80  @.........y003..
0F90: 1C 26 80 27 03 8F 00 02  01 26 55 40 80 F0 FF FF  .&.'.....&U@....
0FA0: 7F F0 FF FF 7F 79 30 30  33 45 40 80 F0 FF FF 7F  .....y003E@.....
0FB0: F0 FF FF 7F 79 30 30 34  01 80 2B 8F 00 02 01 52  ....y004..+....R
0FC0: 80 23 55 40 80 F0 FF FF  7F F0 FF FF 7F 79 30 30  .#U@.........y00
0FD0: 34 4E 00 96 00 02 01 27  03 96 00 02 01 05 45 40  4N.....'......E@
0FE0: 80 95 00 02 01 95 00 02  01 73 65 30 39 01 80 1C  .........se09...
0FF0: 42 80 45 40 80 F0 FF FF  7F F0 FF FF 7F 79 30 30  B.E@.........y00
1000: 35 01 80 27 03 8D 00 02  01 03 1C 26 80 4A 8F 00  5..'.......&.J..
1010: 02 01 96 00 02 01 4A F0  FF FF 7F 96 00 02 01 52  ......J........R
1020: 40 80 F0 FF FF 7F F0 FF  FF 7F 79 30 30 35 45 40  @.........y005E@
1030: 80 F0 FF FF 7F F0 FF FF  7F 79 30 30 36 01 80 2B  .........y006..+
1040: 96 00 02 01 53 80 23 55  40 80 F0 FF FF 7F F0 FF  ....S.#U@.......
1050: FF 7F 79 30 30 36 45 2D  80 F0 FF FF 7F F0 FF FF  ..y006E-........
1060: 7F 6F 6C 70 31 01 80 45  40 80 F0 FF FF 7F F0 FF  .olp1..E@.......
1070: FF 7F 79 30 30 37 01 80  1C 0E 80 5B 54 80 8D 00  ..y007.....[T...
1080: 02 01 8D 00 02 01 00 FE  FE FE 2B 96 00 02 01 55  ..........+....U
1090: 80 23 55 40 80 F0 FF FF  7F F0 FF FF 7F 79 30 30  .#U@.........y00
10A0: 37 45 40 80 F0 FF FF 7F  F0 FF FF 7F 79 30 30 38  7E@.........y008
10B0: 01 80 7B F0 FF FF 7F 4A  8F 00 02 01 F0 FF FF 7F  ..{....J........
10C0: 27 03 8D 00 02 01 22 62  56 80 93 00 02 01 F0 FF  '....."bV.......
10D0: FF 7F 6D 61 69 6E 01 80  2B 8D 00 02 01 57 80 23  ..main..+....W.#
10E0: 1C 2C 80 27 03 8F 00 02  01 16 1C 56 80 27 03 93  .,.'.......V.'..
10F0: 00 02 01 1B 27 03 92 00  02 01 20 27 03 91 00 02  ....'..... '....
1100: 01 26 45 40 80 95 00 02  01 95 00 02 01 73 65 31  .&E@.........se1
1110: 30 01 80 1C 2C 80 45 40  80 95 00 02 01 95 00 02  0...,.E@........
1120: 01 73 65 31 31 01 80 55  40 80 F0 FF FF 7F F0 FF  .se11..U@.......
1130: FF 7F 79 30 30 38 45 40  80 F0 FF FF 7F F0 FF FF  ..y008E@........
1140: 7F 76 30 30 35 01 80 1C  18 80 45 05 80 F0 FF FF  .v005.....E.....
1150: 7F F0 FF FF 7F 62 6C 6F  6E 01 80 4B 92 00 02 01  .....blon..K....
1160: 58 80 4B 91 00 02 01 58  80 6F 76 92 00 02 01 6F  X.K....X.ov....o
1170: 76 91 00 02 01 92 01 F0  FF FF 7F 52 40 80 F0 FF  v..........R@...
1180: FF 7F F0 FF FF 7F 76 30  30 35 45 2D 80 F0 FF FF  ......v005E-....
1190: 7F F0 FF FF 7F 6F 6C 70  32 01 80 45 40 80 F0 FF  .....olp2..E@...
11A0: FF 7F F0 FF FF 7F 76 30  30 36 01 80 1C 28 80 5C  ......v006...(.\
11B0: 00 1A 80 5C 01 1A 80 BA  F0 FF FF 7F 59 80 5A 80  ...\........Y.Z.
11C0: 5B 80 5C 80 52 40 80 F0  FF FF 7F F0 FF FF 7F 76  [.\.R@.........v
11D0: 30 30 36 45 40 80 F0 FF  FF 7F F0 FF FF 7F 76 30  006E@.........v0
11E0: 30 34 01 80 1C 42 80 45  05 80 F0 FF FF 7F F0 FF  04...B.E........
11F0: FF 7F 62 6C 6F 6E 01 80  1C 1C 80 62 56 80 F0 FF  ..blon.....bV...
1200: FF 7F F0 FF FF 7F 64 65  72 75 01 80 1C 0E 80 45  ......deru.....E
1210: 05 80 F0 FF FF 7F F0 FF  FF 7F 62 6C 6F 66 01 80  ..........blof..
1220: 79 00 F0 FF FF 7F 92 00  02 01 1C 0E 80 27 03 92  y............'..
1230: 00 02 01 21 27 03 91 00  02 01 27 29 03 93 00 02  ...!'.....')....
1240: 01 1C 52 40 80 F0 FF FF  7F F0 FF FF 7F 76 30 30  ..R@.........v00
1250: 34 45 2D 80 F0 FF FF 7F  F0 FF FF 7F 6F 6C 70 32  4E-.........olp2
1260: 01 80 45 40 80 F0 FF FF  7F F0 FF FF 7F 76 30 30  ..E@.........v00
1270: 33 01 80 43 00 43 01 41  01 80 5D 80 09 10 02 10  3..C.C.A..].....
1280: 41 1B 80 5E 80 09 10 03  10 41 14 80 5F 80 09 10  A..^.....A.._...
1290: 04 10 41 2C 80 00 80 09  10 05 10 1C 18 80 55 40  ..A,..........U@
12A0: 80 F0 FF FF 7F F0 FF FF  7F 76 30 30 33 45 40 80  .........v003E@.
12B0: F0 FF FF 7F F0 FF FF 7F  78 30 30 31 01 80 27 03  ........x001..'.
12C0: 92 00 02 01 19 55 40 80  F0 FF FF 7F F0 FF FF 7F  .....U@.........
12D0: 78 30 30 31 2B 92 00 02  01 60 80 23 92 00 F0 FF  x001+....`.#....
12E0: FF 7F 45 40 80 F0 FF FF  7F F0 FF FF 7F 78 30 30  ..E@.........x00
12F0: 32 01 80 4A 92 00 02 01  91 00 02 01 27 03 91 00  2..J........'...
1300: 02 01 1F 55 40 80 F0 FF  FF 7F F0 FF FF 7F 78 30  ...U@.........x0
1310: 30 32 6F 76 92 00 02 01  2B 91 00 02 01 61 80 23  02ov....+....a.#
1320: 27 03 92 00 02 01 1A 1C  1B 80 45 40 80 F0 FF FF  '.........E@....
1330: 7F F0 FF FF 7F 78 30 30  33 01 80 55 40 80 F0 FF  .....x003..U@...
1340: FF 7F F0 FF FF 7F 78 30  30 33 4A 91 00 02 01 92  ......x003J.....
1350: 00 02 01 6F 76 91 00 02  01 27 03 91 00 02 01 20  ...ov....'..... 
1360: 1C 42 80 27 03 93 00 02  01 06 1C 56 80 45 40 80  .B.'.......V.E@.
1370: F0 FF FF 7F F0 FF FF 7F  78 30 30 34 01 80 55 40  ........x004..U@
1380: 80 F0 FF FF 7F F0 FF FF  7F 78 30 30 34 2A 03 93  .........x004*..
1390: 00 02 01 27 03 93 00 02  01 15 1C 3A 80 45 40 80  ...'.......:.E@.
13A0: F0 FF FF 7F F0 FF FF 7F  78 30 30 39 01 80 55 40  ........x009..U@
13B0: 80 F0 FF FF 7F F0 FF FF  7F 78 30 30 39 2A 03 93  .........x009*..
13C0: 00 02 01 29 03 93 00 02  01 16 2B 93 00 02 01 62  ...)......+....b
13D0: 80 23 7B 92 00 02 01 7B  91 00 02 01 27 03 92 00  .#{....{....'...
13E0: 02 01 05 27 03 91 00 02  01 0D 1C 0E 80 45 40 80  ...'.........E@.
13F0: F0 FF FF 7F F0 FF FF 7F  78 30 30 35 01 80 2A 03  ........x005..*.
1400: 92 00 02 01 2A 03 91 00  02 01 55 40 80 F0 FF FF  ....*.....U@....
1410: 7F F0 FF FF 7F 78 30 30  35 2B 93 00 02 01 63 80  .....x005+....c.
1420: 23 2B 93 00 02 01 64 80  23 45 40 80 F0 FF FF 7F  #+....d.#E@.....
1430: F0 FF FF 7F 78 30 30 36  01 80 29 03 92 00 02 01  ....x006..).....
1440: 1C 2B 92 00 02 01 65 80  23 52 40 80 F0 FF FF 7F  .+....e.#R@.....
1450: F0 FF FF 7F 78 30 30 36  45 40 80 F0 FF FF 7F F0  ....x006E@......
1460: FF FF 7F 78 30 30 37 01  80 29 03 91 00 02 01 22  ...x007..)....."
1470: 2B 91 00 02 01 66 80 23  55 40 80 F0 FF FF 7F F0  +....f.#U@......
1480: FF FF 7F 78 30 30 37 45  40 80 F0 FF FF 7F F0 FF  ...x007E@.......
1490: FF 7F 78 30 30 38 01 80  27 03 8D 00 02 01 05 79  ..x008..'......y
14A0: 00 93 00 02 01 8D 00 02  01 79 00 92 00 02 01 8D  .........y......
14B0: 00 02 01 79 00 91 00 02  01 8D 00 02 01 27 03 93  ...y.........'..
14C0: 00 02 01 18 27 03 92 00  02 01 22 2B 93 00 02 01  ....'....."+....
14D0: 67 80 2A 03 93 00 02 01  1C 28 80 27 03 93 00 02  g.*......(.'....
14E0: 01 1D 23 55 40 80 F0 FF  FF 7F F0 FF FF 7F 78 30  ..#U@.........x0
14F0: 30 38 4E 01 90 00 02 01  29 03 90 00 02 01 25 45  08N.....).....%E
1500: 40 80 F0 FF FF 7F F0 FF  FF 7F 77 30 30 30 01 80  @.........w000..
1510: 1C 4E 80 4E 00 90 00 02  01 5D 01 80 68 80 27 03  .N.N.....]..h.'.
1520: 90 00 02 01 26 55 40 80  F0 FF FF 7F F0 FF FF 7F  ....&U@.........
1530: 77 30 30 30 1C 42 80 4A  F0 FF FF 7F 90 00 02 01  w000.B.J........
1540: 6F 76 F0 FF FF 7F 2A 03  90 00 02 01 5B 69 80 90  ov....*.....[i..
1550: 00 02 01 90 00 02 01 00  FE FE FE 1C 0E 80 81 00  ................
1560: 90 00 02 01 2B 90 00 02  01 6A 80 23 27 01 92 00  ....+....j.#'...
1570: 02 01 23 28 03 90 00 02  01 13 45 40 80 F0 FF FF  ..#(......E@....
1580: 7F F0 FF FF 7F 77 30 30  31 01 80 4E 01 92 00 02  .....w001..N....
1590: 01 4E 01 93 00 02 01 4E  01 91 00 02 01 1C 0E 80  .N.....N........
15A0: 2B 90 00 02 01 6B 80 23  55 40 80 F0 FF FF 7F F0  +....k.#U@......
15B0: FF FF 7F 77 30 30 31 2B  90 00 02 01 6C 80 23 5C  ...w001+....l.#\
15C0: 00 2B 80 5C 01 2B 80 27  03 90 00 02 01 14 1C 2C  .+.\.+.'.......,
15D0: 80 45 40 80 95 00 02 01  95 00 02 01 73 65 31 34  .E@.........se14
15E0: 01 80 45 40 80 F0 FF FF  7F F0 FF FF 7F 77 30 30  ..E@.........w00
15F0: 33 01 80 55 40 80 F0 FF  FF 7F F0 FF FF 7F 77 30  3..U@.........w0
1600: 30 33 45 40 80 95 00 02  01 95 00 02 01 73 65 31  03E@.........se1
1610: 35 01 80 45 40 80 F0 FF  FF 7F F0 FF FF 7F 77 30  5..E@.........w0
1620: 30 32 01 80 55 40 80 F0  FF FF 7F F0 FF FF 7F 77  02..U@.........w
1630: 30 30 32 2B 90 00 02 01  6D 80 23 2A 03 90 00 02  002+....m.#*....
1640: 01 27 03 90 00 02 01 15  1C 14 80 45 40 80 95 00  .'.........E@...
1650: 02 01 95 00 02 01 73 65  31 36 01 80 45 40 80 F0  ......se16..E@..
1660: FF FF 7F F0 FF FF 7F 77  30 30 35 01 80 45 05 80  .......w005..E..
1670: 90 00 02 01 90 00 02 01  62 6C 6F 6E 01 80 55 40  ........blon..U@
1680: 80 F0 FF FF 7F F0 FF FF  7F 77 30 30 35 45 40 80  .........w005E@.
1690: F0 FF FF 7F F0 FF FF 7F  77 30 30 34 01 80 2B 90  ........w004..+.
16A0: 00 02 01 6E 80 1C 6F 80  45 4C 80 F0 FF FF 7F F0  ...n..o.EL......
16B0: FF FF 7F 77 68 6F 31 01  80 55 40 80 F0 FF FF 7F  ...who1..U@.....
16C0: F0 FF FF 7F 77 30 30 34  45 05 80 90 00 02 01 90  ....w004E.......
16D0: 00 02 01 62 6C 6F 66 01  80 23 45 40 80 95 00 02  ...blof..#E@....
16E0: 01 95 00 02 01 73 65 31  37 01 80 1C 18 80 1A 28  .....se17......(
16F0: 3E 1A 49 3E 78 5C 00 3C  80 5C 01 3C 80 9A 1C 2C  >.I>x\.<.\.<...,
1700: 80 AB 11 01 80 1C 02 80  AB 0A 46 00 45 05 80 F0  ..........F.E...
1710: FF FF 7F F0 FF FF 7F 66  64 69 32 01 80 21 00     .......fdi2..!. 
```

#### Opcodes

```
  0: 0x0A23 [0x42] SET_CLI_EVENT_CANCEL_DATA()
  1: 0x0A24 [0x1A] CALL_SUBROUTINE(address=0x3E28)
  2: 0x0A27 [0x46] CAMERA_CONTROL: Disable user control
  3: 0x0A29 [0x38] SET_CLIENT_EVENT_MODE(mode=19*)
  4: 0x0A2C [0x4E] SET_ENTITY_HIDE_FLAG: Show LocalPlayer
  5: 0x0A32 [0xAB] EventEntity->UnknownFlag = 1 // Enable unknown flag
  6: 0x0A34 [0x27] REQ_SET(priority=0x03, entity_id=ship (ID: 16908447/0x0102009F), tag_num=0x11)
  7: 0x0A3B [0x4E] SET_ENTITY_HIDE_FLAG: Show ship (ID: 16908447/0x0102009F)
  8: 0x0A41 [0x4E] SET_ENTITY_HIDE_FLAG: Show Shikaree Z (ID: 16908437/0x01020095)
  9: 0x0A47 [0x27] REQ_SET(priority=0x03, entity_id=Shikaree Z (ID: 16908437/0x01020095), tag_num=0x0B)
 10: 0x0A4E [0x4E] SET_ENTITY_HIDE_FLAG: Show Jabbos (ID: 16908436/0x01020094)
 11: 0x0A54 [0x27] REQ_SET(priority=0x03, entity_id=Jabbos (ID: 16908436/0x01020094), tag_num=0x08)
 12: 0x0A5B [0x4E] SET_ENTITY_HIDE_FLAG: Show Prishe (ID: 16908429/0x0102008D)
 13: 0x0A61 [0x27] REQ_SET(priority=0x03, entity_id=Prishe (ID: 16908429/0x0102008D), tag_num=0x04)
 14: 0x0A68 [0x4E] SET_ENTITY_HIDE_FLAG: Show Ulmia (ID: 16908431/0x0102008F)
 15: 0x0A6E [0x27] REQ_SET(priority=0x03, entity_id=Ulmia (ID: 16908431/0x0102008F), tag_num=0x0C)
 16: 0x0A75 [0x4E] SET_ENTITY_HIDE_FLAG: Show Tenzen (ID: 16908432/0x01020090)
 17: 0x0A7B [0x27] REQ_SET(priority=0x03, entity_id=Tenzen (ID: 16908432/0x01020090), tag_num=0x24)
 18: 0x0A82 [0x4E] SET_ENTITY_HIDE_FLAG: Show Makki-Chebukki (ID: 16908435/0x01020093)
 19: 0x0A88 [0x27] REQ_SET(priority=0x03, entity_id=Makki-Chebukki (ID: 16908435/0x01020093), tag_num=0x04)
 20: 0x0A8F [0x4E] SET_ENTITY_HIDE_FLAG: Show Kukki-Chebukki (ID: 16908434/0x01020092)
 21: 0x0A95 [0x27] REQ_SET(priority=0x03, entity_id=Kukki-Chebukki (ID: 16908434/0x01020092), tag_num=0x04)
 22: 0x0A9C [0x4E] SET_ENTITY_HIDE_FLAG: Show Cherukiki (ID: 16908433/0x01020091)
 23: 0x0AA2 [0x27] REQ_SET(priority=0x03, entity_id=Cherukiki (ID: 16908433/0x01020091), tag_num=0x0C)
 24: 0x0AA9 [0x27] REQ_SET(priority=0x03, entity_id=Louverance (ID: 16908438/0x01020096), tag_num=0x04)
 25: 0x0AB0 [0x94] LocalPlayer->Render.Flags3 ^= 0x01
 26: 0x0AB6 [0x38] SET_CLIENT_EVENT_MODE(mode=19*)
 27: 0x0AB9 [0xBA] SET_ENTITY_POSITION(entity_id=LocalPlayer, pos_x=-779.228*, pos_z=-76.013*, pos_y=-103.347*, direction=282.2°*)
 28: 0x0AC6 [0x2D] CREATE_ZONE_SCHEDULER_TASK: Create scheduler "01on" with entities [EventEntity, EventEntity]
 29: 0x0AD3 [0x2D] CREATE_ZONE_SCHEDULER_TASK: Create scheduler "2end" with entities [EventEntity, EventEntity]
 30: 0x0AE0 [0x2D] CREATE_ZONE_SCHEDULER_TASK: Create scheduler "3end" with entities [EventEntity, EventEntity]
 31: 0x0AED [0x97] SAVE_SET_WIND_VALUES(wind_base=0x8001, wind_width=0x8002)
 32: 0x0AF2 [0x77] SET_EVENT_TIME_WEATHER(hour=255*, weather=1*)
 33: 0x0AF7 [0x80] LOAD_WAIT(entity=Shikaree Z (ID: 16908437/0x01020095))
 34: 0x0AFC [0x80] LOAD_WAIT(entity=Jabbos (ID: 16908436/0x01020094))
 35: 0x0B01 [0x27] REQ_SET(priority=0x03, entity_id=ship (ID: 16908447/0x0102009F), tag_num=0x0F)
 36: 0x0B08 [0x27] REQ_SET(priority=0x03, entity_id=ship (ID: 16908447/0x0102009F), tag_num=0x14)
 37: 0x0B0F [0x1C] WAIT(60* ticks)
 38: 0x0B12 [0x45] LOAD_SCHEDULED_TASK: Load scheduler "r001" with entities [LocalPlayer, LocalPlayer], work=[166*, 0*]
 39: 0x0B23 [0x45] LOAD_SCHEDULED_TASK: Load scheduler "fdi1" with entities [LocalPlayer, LocalPlayer], work=[200*, 0*]
 40: 0x0B34 [0x55] WAIT_LOAD_SCHEDULER: Wait for scheduler "fdi1" with entities [LocalPlayer, LocalPlayer], work=200*
 41: 0x0B43 [0x55] WAIT_LOAD_SCHEDULER: Wait for scheduler "r001" with entities [LocalPlayer, LocalPlayer], work=166*
 42: 0x0B52 [0x45] LOAD_SCHEDULED_TASK: Load scheduler "ovl1" with entities [LocalPlayer, LocalPlayer], work=[200*, 0*]
 43: 0x0B63 [0x45] LOAD_SCHEDULED_TASK: Load scheduler "r000" with entities [LocalPlayer, LocalPlayer], work=[166*, 0*]
 44: 0x0B74 [0x1C] WAIT(860* ticks)
 45: 0x0B77 [0x45] LOAD_SCHEDULED_TASK: Load scheduler "fdo1" with entities [LocalPlayer, LocalPlayer], work=[200*, 0*]
 46: 0x0B88 [0x55] WAIT_LOAD_SCHEDULER: Wait for scheduler "fdo1" with entities [LocalPlayer, LocalPlayer], work=200*
 47: 0x0B97 [0x5D] SET_MUSIC_VOLUME(volume=0*, fade_time=200*)
 48: 0x0B9C [0x52] END_LOAD_SCHEDULER: End scheduler "r000" with entities [LocalPlayer, LocalPlayer], work=166*
 49: 0x0BAB [0x79] Prishe (ID: 16908429/0x0102008D) looks at Tenzen (ID: 16908432/0x01020090) (Basic look)
 50: 0x0BB5 [0x1C] WAIT(180* ticks)
 51: 0x0BB8 [0x45] LOAD_SCHEDULED_TASK: Load scheduler "z001" with entities [LocalPlayer, LocalPlayer], work=[166*, 0*]
 52: 0x0BC9 [0x45] LOAD_SCHEDULED_TASK: Load scheduler "fdi1" with entities [LocalPlayer, LocalPlayer], work=[200*, 0*]
 53: 0x0BDA [0x55] WAIT_LOAD_SCHEDULER: Wait for scheduler "fdi1" with entities [LocalPlayer, LocalPlayer], work=200*
 54: 0x0BE9 [0x55] WAIT_LOAD_SCHEDULER: Wait for scheduler "z001" with entities [LocalPlayer, LocalPlayer], work=166*
 55: 0x0BF8 [0x45] LOAD_SCHEDULED_TASK: Load scheduler "olp1" with entities [LocalPlayer, LocalPlayer], work=[108*, 0*]
 56: 0x0C09 [0x45] LOAD_SCHEDULED_TASK: Load scheduler "z002" with entities [LocalPlayer, LocalPlayer], work=[166*, 0*]
 57: 0x0C1A [0x55] WAIT_LOAD_SCHEDULER: Wait for scheduler "z002" with entities [LocalPlayer, LocalPlayer], work=166*
 58: 0x0C29 [0x45] LOAD_SCHEDULED_TASK: Load scheduler "z003" with entities [LocalPlayer, LocalPlayer], work=[166*, 0*]
 59: 0x0C3A [0x55] WAIT_LOAD_SCHEDULER: Wait for scheduler "z003" with entities [LocalPlayer, LocalPlayer], work=166*
 60: 0x0C49 [0x1C] WAIT(50* ticks)
 61: 0x0C4C [0x45] LOAD_SCHEDULED_TASK: Load scheduler "ovl1" with entities [Tenzen (ID: 16908432/0x01020090), Tenzen (ID: 16908432/0x01020090)], work=[200*, 0*]
 62: 0x0C5D [0x45] LOAD_SCHEDULED_TASK: Load scheduler "z004" with entities [LocalPlayer, LocalPlayer], work=[166*, 0*]
 63: 0x0C6E [0x55] WAIT_LOAD_SCHEDULER: Wait for scheduler "z004" with entities [LocalPlayer, LocalPlayer], work=166*
 64: 0x0C7D [0x1C] WAIT(60* ticks)
 65: 0x0C80 [0x45] LOAD_SCHEDULED_TASK: Load scheduler "z005" with entities [LocalPlayer, LocalPlayer], work=[166*, 0*]
 66: 0x0C91 [0x55] WAIT_LOAD_SCHEDULER: Wait for scheduler "z005" with entities [LocalPlayer, LocalPlayer], work=166*
 67: 0x0CA0 [0x3A] CONVERT_YAW_TO_BYTE(entity=Shikaree Z (ID: 16908437/0x01020095), result_destination=ExtData[1]->WorkLocal[1])
 68: 0x0CA7 [0x08] ExtData[1]->WorkLocal[1] -= 768*
 69: 0x0CAC [0x4B] UPDATE_ENTITY_YAW(entity=Shikaree Z (ID: 16908437/0x01020095), yaw=ExtData[1]->WorkLocal[1])
 70: 0x0CB3 [0x1C] WAIT(60* ticks)
 71: 0x0CB6 [0x2B] Jabbos (ID: 16908436/0x01020094) [7875*]:
    → "It's too...quiet... Could it be...the wyrms...haven't...noticed us...?"
 72: 0x0CBD [0x23] WAIT_FOR_DIALOG_INTERACTION
 73: 0x0CBE [0x45] LOAD_SCHEDULED_TASK: Load scheduler "z006" with entities [LocalPlayer, LocalPlayer], work=[166*, 0*]
 74: 0x0CCF [0x55] WAIT_LOAD_SCHEDULER: Wait for scheduler "z006" with entities [LocalPlayer, LocalPlayer], work=166*
 75: 0x0CDE [0x79] Shikaree Z (ID: 16908437/0x01020095) looks at Jabbos (ID: 16908436/0x01020094) (Basic look)
 76: 0x0CE8 [0x2B] Shikaree Z (ID: 16908437/0x01020095) [7876*]:
    → "The armada led by Lady Mildaurion must have begun its attack."
 77: 0x0CEF [0x1C] WAIT(30* ticks)
 78: 0x0CF2 [0x79] Jabbos (ID: 16908436/0x01020094) looks at Shikaree Z (ID: 16908437/0x01020095) (Basic look)
 79: 0x0CFC [0x23] WAIT_FOR_DIALOG_INTERACTION
 80: 0x0CFD [0x27] REQ_SET(priority=0x03, entity_id=Shikaree Y (ID: 16908463/0x010200AF), tag_num=0x04)
 81: 0x0D04 [0x45] LOAD_SCHEDULED_TASK: Load scheduler "z007" with entities [LocalPlayer, LocalPlayer], work=[166*, 0*]
 82: 0x0D15 [0x45] LOAD_SCHEDULED_TASK: Load scheduler "se00" with entities [Shikaree Z (ID: 16908437/0x01020095), Shikaree Z (ID: 16908437/0x01020095)], work=[166*, 0*]
 83: 0x0D26 [0x07] ExtData[1]->WorkLocal[1] += 768*
 84: 0x0D2B [0x79] Shikaree Z (ID: 16908437/0x01020095) looks at Shikaree Y (ID: 16908463/0x010200AF) (Basic look)
 85: 0x0D35 [0x4B] UPDATE_ENTITY_YAW(entity=Shikaree Z (ID: 16908437/0x01020095), yaw=ExtData[1]->WorkLocal[1])
 86: 0x0D3C [0x6F] WAIT_FRAME_DELAY: Yield until WaitTime reaches zero
 87: 0x0D3D [0x76] CHECK_ENTITY_RENDER_FLAGS: Wait until Shikaree Z (ID: 16908437/0x01020095) Render.Flags0 and Render.Flags3 conditions are met
 88: 0x0D42 [0x2B] Shikaree Z (ID: 16908437/0x01020095) [7877*]:
    → "I wonder how the battle fares."
 89: 0x0D49 [0x23] WAIT_FOR_DIALOG_INTERACTION
 90: 0x0D4A [0x55] WAIT_LOAD_SCHEDULER: Wait for scheduler "z007" with entities [LocalPlayer, LocalPlayer], work=166*
 91: 0x0D59 [0x7B] Prishe (ID: 16908429/0x0102008D) stops talking
 92: 0x0D5E [0x45] LOAD_SCHEDULED_TASK: Load scheduler "z008" with entities [LocalPlayer, LocalPlayer], work=[166*, 0*]
 93: 0x0D6F [0x7B] Shikaree Z (ID: 16908437/0x01020095) stops talking
 94: 0x0D74 [0x4E] SET_ENTITY_HIDE_FLAG: Hide Shikaree Y (ID: 16908463/0x010200AF)
 95: 0x0D7A [0x27] REQ_SET(priority=0x03, entity_id=Ulmia (ID: 16908431/0x0102008F), tag_num=0x22)
 96: 0x0D81 [0x1C] WAIT(30* ticks)
 97: 0x0D84 [0x2B] Ulmia (ID: 16908431/0x0102008F) [7878*]:
    → "Great Goddess of the Dawn. May your divine blessings protect the fifth mothercrystal--and the future of your children."
 98: 0x0D8B [0x23] WAIT_FOR_DIALOG_INTERACTION
 99: 0x0D8C [0x2A] GET_REQ_LEVEL(level=3, entity_id=Ulmia (ID: 16908431/0x0102008F))
100: 0x0D92 [0x2B] Ulmia (ID: 16908431/0x0102008F) [7879*]:
    → "May your gentle gaze also watch over the safe return of Cardinal Mildaurion..."
101: 0x0D99 [0x23] WAIT_FOR_DIALOG_INTERACTION
102: 0x0D9A [0x52] END_LOAD_SCHEDULER: End scheduler "z008" with entities [LocalPlayer, LocalPlayer], work=166*
103: 0x0DA9 [0x45] LOAD_SCHEDULED_TASK: Load scheduler "z009" with entities [LocalPlayer, LocalPlayer], work=[166*, 0*]
104: 0x0DBA [0x2B] Prishe (ID: 16908429/0x0102008D) [7880*]:
    → "Don't forget to pray for our safety while you're at it, Ulmia."
105: 0x0DC1 [0x27] REQ_SET(priority=0x03, entity_id=Ulmia (ID: 16908431/0x0102008F), tag_num=0x23)
106: 0x0DC8 [0x1C] WAIT(15* ticks)
107: 0x0DCB [0x79] Ulmia (ID: 16908431/0x0102008F) looks at Prishe (ID: 16908429/0x0102008D) (Basic look)
108: 0x0DD5 [0x55] WAIT_LOAD_SCHEDULER: Wait for scheduler "z009" with entities [LocalPlayer, LocalPlayer], work=166*
109: 0x0DE4 [0x23] WAIT_FOR_DIALOG_INTERACTION
110: 0x0DE5 [0x27] REQ_SET(priority=0x03, entity_id=Prishe (ID: 16908429/0x0102008D), tag_num=0x01)
111: 0x0DEC [0x2B] Prishe (ID: 16908429/0x0102008D) [7881*]:
    → "Look, there it is!"
112: 0x0DF3 [0x45] LOAD_SCHEDULED_TASK: Load scheduler "y000" with entities [LocalPlayer, LocalPlayer], work=[166*, 0*]
113: 0x0E04 [0x2A] GET_REQ_LEVEL(level=3, entity_id=Prishe (ID: 16908429/0x0102008D))
114: 0x0E0A [0x55] WAIT_LOAD_SCHEDULER: Wait for scheduler "y000" with entities [LocalPlayer, LocalPlayer], work=166*
115: 0x0E19 [0x23] WAIT_FOR_DIALOG_INTERACTION
116: 0x0E1A [0x45] LOAD_SCHEDULED_TASK: Load scheduler "bash" with entities [LocalPlayer, LocalPlayer], work=[108*, 0*]
117: 0x0E2B [0x45] LOAD_SCHEDULED_TASK: Load scheduler "who3" with entities [LocalPlayer, LocalPlayer], work=[108*, 0*]
118: 0x0E3C [0x55] WAIT_LOAD_SCHEDULER: Wait for scheduler "who3" with entities [LocalPlayer, LocalPlayer], work=108*
119: 0x0E4B [0x45] LOAD_SCHEDULED_TASK: Load scheduler "y009" with entities [LocalPlayer, LocalPlayer], work=[166*, 0*]
120: 0x0E5C [0x2D] CREATE_ZONE_SCHEDULER_TASK: Create scheduler "lwon" with entities [EventEntity, EventEntity]
121: 0x0E69 [0x2D] CREATE_ZONE_SCHEDULER_TASK: Create scheduler "loop" with entities [EventEntity, EventEntity]
122: 0x0E76 [0x45] LOAD_SCHEDULED_TASK: Load scheduler "se38" with entities [EventEntity, EventEntity], work=[171*, 0*]
123: 0x0E87 [0x1C] WAIT(10* ticks)
124: 0x0E8A [0x45] LOAD_SCHEDULED_TASK: Load scheduler "whi1" with entities [LocalPlayer, LocalPlayer], work=[201*, 0*]
125: 0x0E9B [0x55] WAIT_LOAD_SCHEDULER: Wait for scheduler "whi1" with entities [LocalPlayer, LocalPlayer], work=201*
126: 0x0EAA [0x27] REQ_SET(priority=0x03, entity_id=Prishe (ID: 16908429/0x0102008D), tag_num=0x02)
127: 0x0EB1 [0x4E] SET_ENTITY_HIDE_FLAG: Hide Ulmia (ID: 16908431/0x0102008F)
128: 0x0EB7 [0x27] REQ_SET(priority=0x03, entity_id=Ulmia (ID: 16908431/0x0102008F), tag_num=0x24)
129: 0x0EBE [0x27] REQ_SET(priority=0x03, entity_id=Shikaree Z (ID: 16908437/0x01020095), tag_num=0x0F)
130: 0x0EC5 [0x27] REQ_SET(priority=0x03, entity_id=Jabbos (ID: 16908436/0x01020094), tag_num=0x0C)
131: 0x0ECC [0x1C] WAIT(180* ticks)
132: 0x0ECF [0x52] END_LOAD_SCHEDULER: End scheduler "y009" with entities [EventEntity, EventEntity], work=166*
133: 0x0EDE [0x45] LOAD_SCHEDULED_TASK: Load scheduler "y001" with entities [LocalPlayer, LocalPlayer], work=[166*, 0*]
134: 0x0EEF [0x27] REQ_SET(priority=0x03, entity_id=Prishe (ID: 16908429/0x0102008D), tag_num=0x36)
135: 0x0EF6 [0x55] WAIT_LOAD_SCHEDULER: Wait for scheduler "y001" with entities [LocalPlayer, LocalPlayer], work=166*
136: 0x0F05 [0x2B] Prishe (ID: 16908429/0x0102008D) [7882*]:
    → "Full speed ahead!"
137: 0x0F0C [0x23] WAIT_FOR_DIALOG_INTERACTION
138: 0x0F0D [0x2A] GET_REQ_LEVEL(level=3, entity_id=Prishe (ID: 16908429/0x0102008D))
139: 0x0F13 [0x2D] CREATE_ZONE_SCHEDULER_TASK: Create scheduler "kill" with entities [EventEntity, EventEntity]
140: 0x0F20 [0x27] REQ_SET(priority=0x03, entity_id=Prishe (ID: 16908429/0x0102008D), tag_num=0x37)
141: 0x0F27 [0x1C] WAIT(90* ticks)
142: 0x0F2A [0x45] LOAD_SCHEDULED_TASK: Load scheduler "y002" with entities [LocalPlayer, LocalPlayer], work=[166*, 0*]
143: 0x0F3B [0x1C] WAIT(50* ticks)
144: 0x0F3E [0x45] LOAD_SCHEDULED_TASK: Load scheduler "s127" with entities [Tenzen (ID: 16908432/0x01020090), Tenzen (ID: 16908432/0x01020090)], work=[72*, 0*]
145: 0x0F4F [0x1C] WAIT(110* ticks)
146: 0x0F52 [0x4B] UPDATE_ENTITY_YAW(entity=LocalPlayer, yaw=1.1°*)
147: 0x0F59 [0x4E] SET_ENTITY_HIDE_FLAG: Show Ulmia (ID: 16908431/0x0102008F)
148: 0x0F5F [0x52] END_LOAD_SCHEDULER: End scheduler "y002" with entities [LocalPlayer, LocalPlayer], work=166*
149: 0x0F6E [0x9F] LOAD_SCHEDULED_TASK_ALT: Load scheduler "main" with entities [EventEntity, EventEntity], work=[118*, 0*]
150: 0x0F7F [0x45] LOAD_SCHEDULED_TASK: Load scheduler "y003" with entities [LocalPlayer, LocalPlayer], work=[166*, 0*]
151: 0x0F90 [0x1C] WAIT(80* ticks)
152: 0x0F93 [0x27] REQ_SET(priority=0x03, entity_id=Ulmia (ID: 16908431/0x0102008F), tag_num=0x26)
153: 0x0F9A [0x55] WAIT_LOAD_SCHEDULER: Wait for scheduler "y003" with entities [LocalPlayer, LocalPlayer], work=166*
154: 0x0FA9 [0x45] LOAD_SCHEDULED_TASK: Load scheduler "y004" with entities [LocalPlayer, LocalPlayer], work=[166*, 0*]
155: 0x0FBA [0x2B] Ulmia (ID: 16908431/0x0102008F) [7883*]:
    → "Oh my!"
156: 0x0FC1 [0x23] WAIT_FOR_DIALOG_INTERACTION
157: 0x0FC2 [0x55] WAIT_LOAD_SCHEDULER: Wait for scheduler "y004" with entities [LocalPlayer, LocalPlayer], work=166*
158: 0x0FD1 [0x4E] SET_ENTITY_HIDE_FLAG: Show Louverance (ID: 16908438/0x01020096)
159: 0x0FD7 [0x27] REQ_SET(priority=0x03, entity_id=Louverance (ID: 16908438/0x01020096), tag_num=0x05)
160: 0x0FDE [0x45] LOAD_SCHEDULED_TASK: Load scheduler "se09" with entities [Shikaree Z (ID: 16908437/0x01020095), Shikaree Z (ID: 16908437/0x01020095)], work=[166*, 0*]
161: 0x0FEF [0x1C] WAIT(50* ticks)
162: 0x0FF2 [0x45] LOAD_SCHEDULED_TASK: Load scheduler "y005" with entities [LocalPlayer, LocalPlayer], work=[166*, 0*]
163: 0x1003 [0x27] REQ_SET(priority=0x03, entity_id=Prishe (ID: 16908429/0x0102008D), tag_num=0x03)
164: 0x100A [0x1C] WAIT(80* ticks)
165: 0x100D [0x4A] Ulmia (ID: 16908431/0x0102008F) looks at Louverance (ID: 16908438/0x01020096)
166: 0x1016 [0x4A] LocalPlayer looks at Louverance (ID: 16908438/0x01020096)
167: 0x101F [0x52] END_LOAD_SCHEDULER: End scheduler "y005" with entities [LocalPlayer, LocalPlayer], work=166*
168: 0x102E [0x45] LOAD_SCHEDULED_TASK: Load scheduler "y006" with entities [LocalPlayer, LocalPlayer], work=[166*, 0*]
169: 0x103F [0x2B] Louverance (ID: 16908438/0x01020096) [7884*]:
    → "Lady Prishe! We have a transmission from the warship:"
170: 0x1046 [0x23] WAIT_FOR_DIALOG_INTERACTION
171: 0x1047 [0x55] WAIT_LOAD_SCHEDULER: Wait for scheduler "y006" with entities [LocalPlayer, LocalPlayer], work=166*
172: 0x1056 [0x45] LOAD_SCHEDULED_TASK: Load scheduler "olp1" with entities [LocalPlayer, LocalPlayer], work=[108*, 0*]
173: 0x1067 [0x45] LOAD_SCHEDULED_TASK: Load scheduler "y007" with entities [LocalPlayer, LocalPlayer], work=[166*, 0*]
174: 0x1078 [0x1C] WAIT(30* ticks)
175: 0x107B [0x5B] LOAD_EXT_SCHEDULER: Load scheduler 0xFEFEFE00 with entities [Prishe (ID: 16908429/0x0102008D), Prishe (ID: 16908429/0x0102008D)], work=475*
176: 0x108A [0x2B] Louverance (ID: 16908438/0x01020096) [7885*]:
    → ""Attention! Your most prized possession is now the property of the Chebukki Samurai Sky Pirates!""
177: 0x1091 [0x23] WAIT_FOR_DIALOG_INTERACTION
178: 0x1092 [0x55] WAIT_LOAD_SCHEDULER: Wait for scheduler "y007" with entities [LocalPlayer, LocalPlayer], work=166*
179: 0x10A1 [0x45] LOAD_SCHEDULED_TASK: Load scheduler "y008" with entities [LocalPlayer, LocalPlayer], work=[166*, 0*]
180: 0x10B2 [0x7B] LocalPlayer stops talking
181: 0x10B7 [0x4A] Ulmia (ID: 16908431/0x0102008F) looks at LocalPlayer
182: 0x10C0 [0x27] REQ_SET(priority=0x03, entity_id=Prishe (ID: 16908429/0x0102008D), tag_num=0x22)
183: 0x10C7 [0x62] LOAD_EVENT_SCHEDULER: Load scheduler "main" with entities [Makki-Chebukki (ID: 16908435/0x01020093), LocalPlayer], work=[45*, 0*]
184: 0x10D8 [0x2B] Prishe (ID: 16908429/0x0102008D) [7886*]:
    → "What the hell!?"
185: 0x10DF [0x23] WAIT_FOR_DIALOG_INTERACTION
186: 0x10E0 [0x1C] WAIT(15* ticks)
187: 0x10E3 [0x27] REQ_SET(priority=0x03, entity_id=Ulmia (ID: 16908431/0x0102008F), tag_num=0x16)
188: 0x10EA [0x1C] WAIT(45* ticks)
189: 0x10ED [0x27] REQ_SET(priority=0x03, entity_id=Makki-Chebukki (ID: 16908435/0x01020093), tag_num=0x1B)
190: 0x10F4 [0x27] REQ_SET(priority=0x03, entity_id=Kukki-Chebukki (ID: 16908434/0x01020092), tag_num=0x20)
191: 0x10FB [0x27] REQ_SET(priority=0x03, entity_id=Cherukiki (ID: 16908433/0x01020091), tag_num=0x26)
192: 0x1102 [0x45] LOAD_SCHEDULED_TASK: Load scheduler "se10" with entities [Shikaree Z (ID: 16908437/0x01020095), Shikaree Z (ID: 16908437/0x01020095)], work=[166*, 0*]
193: 0x1113 [0x1C] WAIT(15* ticks)
194: 0x1116 [0x45] LOAD_SCHEDULED_TASK: Load scheduler "se11" with entities [Shikaree Z (ID: 16908437/0x01020095), Shikaree Z (ID: 16908437/0x01020095)], work=[166*, 0*]
195: 0x1127 [0x55] WAIT_LOAD_SCHEDULER: Wait for scheduler "y008" with entities [LocalPlayer, LocalPlayer], work=166*
196: 0x1136 [0x45] LOAD_SCHEDULED_TASK: Load scheduler "v005" with entities [LocalPlayer, LocalPlayer], work=[166*, 0*]
197: 0x1147 [0x1C] WAIT(60* ticks)
198: 0x114A [0x45] LOAD_SCHEDULED_TASK: Load scheduler "blon" with entities [LocalPlayer, LocalPlayer], work=[200*, 0*]
199: 0x115B [0x4B] UPDATE_ENTITY_YAW(entity=Kukki-Chebukki (ID: 16908434/0x01020092), yaw=16.9°*)
200: 0x1162 [0x4B] UPDATE_ENTITY_YAW(entity=Cherukiki (ID: 16908433/0x01020091), yaw=16.9°*)
201: 0x1169 [0x6F] WAIT_FRAME_DELAY: Yield until WaitTime reaches zero
202: 0x116A [0x76] CHECK_ENTITY_RENDER_FLAGS: Wait until Kukki-Chebukki (ID: 16908434/0x01020092) Render.Flags0 and Render.Flags3 conditions are met
203: 0x116F [0x6F] WAIT_FRAME_DELAY: Yield until WaitTime reaches zero
204: 0x1170 [0x76] CHECK_ENTITY_RENDER_FLAGS: Wait until Cherukiki (ID: 16908433/0x01020091) Render.Flags0 and Render.Flags3 conditions are met
205: 0x1175 [0x92] LocalPlayer->Render.Flags3 ^= 0x01
206: 0x117B [0x52] END_LOAD_SCHEDULER: End scheduler "v005" with entities [LocalPlayer, LocalPlayer], work=166*
207: 0x118A [0x45] LOAD_SCHEDULED_TASK: Load scheduler "olp2" with entities [LocalPlayer, LocalPlayer], work=[108*, 0*]
208: 0x119B [0x45] LOAD_SCHEDULED_TASK: Load scheduler "v006" with entities [LocalPlayer, LocalPlayer], work=[166*, 0*]
209: 0x11AC [0x1C] WAIT(120* ticks)
210: 0x11AF [0x5C] MUSIC_CONTROL: Set Idle (Day) music to song 163*
211: 0x11B3 [0x5C] MUSIC_CONTROL: Set Idle (Night) music to song 163*
212: 0x11B7 [0xBA] SET_ENTITY_POSITION(entity_id=LocalPlayer, pos_x=-639.996*, pos_z=515.801*, pos_y=-231.347*, direction=90.0°*)
213: 0x11C4 [0x52] END_LOAD_SCHEDULER: End scheduler "v006" with entities [LocalPlayer, LocalPlayer], work=166*
214: 0x11D3 [0x45] LOAD_SCHEDULED_TASK: Load scheduler "v004" with entities [LocalPlayer, LocalPlayer], work=[166*, 0*]
215: 0x11E4 [0x1C] WAIT(50* ticks)
216: 0x11E7 [0x45] LOAD_SCHEDULED_TASK: Load scheduler "blon" with entities [LocalPlayer, LocalPlayer], work=[200*, 0*]
217: 0x11F8 [0x1C] WAIT(40* ticks)
218: 0x11FB [0x62] LOAD_EVENT_SCHEDULER: Load scheduler "deru" with entities [LocalPlayer, LocalPlayer], work=[45*, 0*]
219: 0x120C [0x1C] WAIT(30* ticks)
220: 0x120F [0x45] LOAD_SCHEDULED_TASK: Load scheduler "blof" with entities [LocalPlayer, LocalPlayer], work=[200*, 0*]
221: 0x1220 [0x79] LocalPlayer looks at Kukki-Chebukki (ID: 16908434/0x01020092) (Basic look)
222: 0x122A [0x1C] WAIT(30* ticks)
223: 0x122D [0x27] REQ_SET(priority=0x03, entity_id=Kukki-Chebukki (ID: 16908434/0x01020092), tag_num=0x21)
224: 0x1234 [0x27] REQ_SET(priority=0x03, entity_id=Cherukiki (ID: 16908433/0x01020091), tag_num=0x27)
225: 0x123B [0x29] REQ_SET_WAIT(priority=0x03, entity_id=Makki-Chebukki (ID: 16908435/0x01020093), tag_num=0x1C)
226: 0x1242 [0x52] END_LOAD_SCHEDULER: End scheduler "v004" with entities [LocalPlayer, LocalPlayer], work=166*
227: 0x1251 [0x45] LOAD_SCHEDULED_TASK: Load scheduler "olp2" with entities [LocalPlayer, LocalPlayer], work=[108*, 0*]
228: 0x1262 [0x45] LOAD_SCHEDULED_TASK: Load scheduler "v003" with entities [LocalPlayer, LocalPlayer], work=[166*, 0*]
229: 0x1273 [0x43] SEND_EVENT_UPDATE: Send pending tag to server (packet 0x005B)
230: 0x1275 [0x43] SEND_EVENT_UPDATE: Check pending flag (skip if not pending)
231: 0x1277 [0x41] Work_Zone[2] = Work_Zone[9] (bits 0*-4*)
232: 0x1280 [0x41] Work_Zone[3] = Work_Zone[9] (bits 5*-9*)
233: 0x1289 [0x41] Work_Zone[4] = Work_Zone[9] (bits 10*-14*)
234: 0x1292 [0x41] Work_Zone[5] = Work_Zone[9] (bits 15*-19*)
235: 0x129B [0x1C] WAIT(60* ticks)
236: 0x129E [0x55] WAIT_LOAD_SCHEDULER: Wait for scheduler "v003" with entities [LocalPlayer, LocalPlayer], work=166*
237: 0x12AD [0x45] LOAD_SCHEDULED_TASK: Load scheduler "x001" with entities [LocalPlayer, LocalPlayer], work=[166*, 0*]
238: 0x12BE [0x27] REQ_SET(priority=0x03, entity_id=Kukki-Chebukki (ID: 16908434/0x01020092), tag_num=0x19)
239: 0x12C5 [0x55] WAIT_LOAD_SCHEDULER: Wait for scheduler "x001" with entities [LocalPlayer, LocalPlayer], work=166*
240: 0x12D4 [0x2B] Kukki-Chebukki (ID: 16908434/0x01020092) [7887*]:
    → "Welcome to the [/Ultra /Hyper /Psycho /Eternal /Neo /Lovely /Pretty /Final /Extra /Deadly /Savage /Aero /Pseudo /Universal /Exciting /Celestial /Super /Mighty /Mega /Omni /Poly ][/Terror /Perfect /Royale /Gorgeous /Pretty /Hell /Fantasy /Stealth /Powerful /Invincible /Explosive /Storm /Fantastic /Duper /Go-Go /Morphing /Retro /Sonic /Cloud /Sky /Stellar ][/Hyper /Neo /Lovely /Happy /Caller /Hound /XI /Armored /Brutal /Buster /Alpha /Chief /Provoker /Mincer /Streak /King /Prince /Power /Robo /Delver /Mystic ]Kukki Battle Cruiser!"
241: 0x12DB [0x23] WAIT_FOR_DIALOG_INTERACTION
242: 0x12DC [0x92] LocalPlayer->Render.Flags3 = Flags3  // No change (flag=0)
243: 0x12E2 [0x45] LOAD_SCHEDULED_TASK: Load scheduler "x002" with entities [LocalPlayer, LocalPlayer], work=[166*, 0*]
244: 0x12F3 [0x4A] Kukki-Chebukki (ID: 16908434/0x01020092) looks at Cherukiki (ID: 16908433/0x01020091)
245: 0x12FC [0x27] REQ_SET(priority=0x03, entity_id=Cherukiki (ID: 16908433/0x01020091), tag_num=0x1F)
246: 0x1303 [0x55] WAIT_LOAD_SCHEDULER: Wait for scheduler "x002" with entities [LocalPlayer, LocalPlayer], work=166*
247: 0x1312 [0x6F] WAIT_FRAME_DELAY: Yield until WaitTime reaches zero
248: 0x1313 [0x76] CHECK_ENTITY_RENDER_FLAGS: Wait until Kukki-Chebukki (ID: 16908434/0x01020092) Render.Flags0 and Render.Flags3 conditions are met
249: 0x1318 [0x2B] Cherukiki (ID: 16908433/0x01020091) [7888*]:
    → "Welcome to the [/Ultra /Hyper /Psycho /Eternal /Neo /Lovely /Pretty /Final /Extra /Deadly /Savage /Aero /Pseudo /Universal /Exciting /Celestial /Super /Mighty /Mega /Omni /Poly ][/Terror /Perfect /Royale /Gorgeous /Pretty /Hell /Fantasy /Stealth /Powerful /Invincible /Explosive /Storm /Fantastic /Duper /Go-Go /Morphing /Retro /Sonic /Cloud /Sky /Stellar ][/Hyper /Neo /Lovely /Happy /Caller /Hound /XI /Armored /Brutal /Buster /Alpha /Chief /Provoker /Mincer /Streak /King /Prince /Power /Robo /Delver /Mystic ]Cherukiki Flagship!"
250: 0x131F [0x23] WAIT_FOR_DIALOG_INTERACTION
251: 0x1320 [0x27] REQ_SET(priority=0x03, entity_id=Kukki-Chebukki (ID: 16908434/0x01020092), tag_num=0x1A)
252: 0x1327 [0x1C] WAIT(5* ticks)
253: 0x132A [0x45] LOAD_SCHEDULED_TASK: Load scheduler "x003" with entities [LocalPlayer, LocalPlayer], work=[166*, 0*]
254: 0x133B [0x55] WAIT_LOAD_SCHEDULER: Wait for scheduler "x003" with entities [LocalPlayer, LocalPlayer], work=166*
255: 0x134A [0x4A] Cherukiki (ID: 16908433/0x01020091) looks at Kukki-Chebukki (ID: 16908434/0x01020092)
256: 0x1353 [0x6F] WAIT_FRAME_DELAY: Yield until WaitTime reaches zero
257: 0x1354 [0x76] CHECK_ENTITY_RENDER_FLAGS: Wait until Cherukiki (ID: 16908433/0x01020091) Render.Flags0 and Render.Flags3 conditions are met
258: 0x1359 [0x27] REQ_SET(priority=0x03, entity_id=Cherukiki (ID: 16908433/0x01020091), tag_num=0x20)
259: 0x1360 [0x1C] WAIT(50* ticks)
260: 0x1363 [0x27] REQ_SET(priority=0x03, entity_id=Makki-Chebukki (ID: 16908435/0x01020093), tag_num=0x06)
261: 0x136A [0x1C] WAIT(45* ticks)
262: 0x136D [0x45] LOAD_SCHEDULED_TASK: Load scheduler "x004" with entities [LocalPlayer, LocalPlayer], work=[166*, 0*]
263: 0x137E [0x55] WAIT_LOAD_SCHEDULER: Wait for scheduler "x004" with entities [LocalPlayer, LocalPlayer], work=166*
264: 0x138D [0x2A] GET_REQ_LEVEL(level=3, entity_id=Makki-Chebukki (ID: 16908435/0x01020093))
265: 0x1393 [0x27] REQ_SET(priority=0x03, entity_id=Makki-Chebukki (ID: 16908435/0x01020093), tag_num=0x15)
266: 0x139A [0x1C] WAIT(20* ticks)
267: 0x139D [0x45] LOAD_SCHEDULED_TASK: Load scheduler "x009" with entities [LocalPlayer, LocalPlayer], work=[166*, 0*]
268: 0x13AE [0x55] WAIT_LOAD_SCHEDULER: Wait for scheduler "x009" with entities [LocalPlayer, LocalPlayer], work=166*
269: 0x13BD [0x2A] GET_REQ_LEVEL(level=3, entity_id=Makki-Chebukki (ID: 16908435/0x01020093))
270: 0x13C3 [0x29] REQ_SET_WAIT(priority=0x03, entity_id=Makki-Chebukki (ID: 16908435/0x01020093), tag_num=0x16)
271: 0x13CA [0x2B] Makki-Chebukki (ID: 16908435/0x01020093) [7889*]:
    → "A beautiful day for a sad announcement."
272: 0x13D1 [0x23] WAIT_FOR_DIALOG_INTERACTION
273: 0x13D2 [0x7B] Kukki-Chebukki (ID: 16908434/0x01020092) stops talking
274: 0x13D7 [0x7B] Cherukiki (ID: 16908433/0x01020091) stops talking
275: 0x13DC [0x27] REQ_SET(priority=0x03, entity_id=Kukki-Chebukki (ID: 16908434/0x01020092), tag_num=0x05)
276: 0x13E3 [0x27] REQ_SET(priority=0x03, entity_id=Cherukiki (ID: 16908433/0x01020091), tag_num=0x0D)
277: 0x13EA [0x1C] WAIT(30* ticks)
278: 0x13ED [0x45] LOAD_SCHEDULED_TASK: Load scheduler "x005" with entities [LocalPlayer, LocalPlayer], work=[166*, 0*]
279: 0x13FE [0x2A] GET_REQ_LEVEL(level=3, entity_id=Kukki-Chebukki (ID: 16908434/0x01020092))
280: 0x1404 [0x2A] GET_REQ_LEVEL(level=3, entity_id=Cherukiki (ID: 16908433/0x01020091))
281: 0x140A [0x55] WAIT_LOAD_SCHEDULER: Wait for scheduler "x005" with entities [LocalPlayer, LocalPlayer], work=166*
282: 0x1419 [0x2B] Makki-Chebukki (ID: 16908435/0x01020093) [7890*]:
    → "We've decided to give up our occupation as high-class pirates."
283: 0x1420 [0x23] WAIT_FOR_DIALOG_INTERACTION
284: 0x1421 [0x2B] Makki-Chebukki (ID: 16908435/0x01020093) [7891*]:
    → "As a final high-class pirate duty, we were entrusted with this ship for the purpose of escorting Prishe safely to her destination."
285: 0x1428 [0x23] WAIT_FOR_DIALOG_INTERACTION
286: 0x1429 [0x45] LOAD_SCHEDULED_TASK: Load scheduler "x006" with entities [LocalPlayer, LocalPlayer], work=[166*, 0*]
287: 0x143A [0x29] REQ_SET_WAIT(priority=0x03, entity_id=Kukki-Chebukki (ID: 16908434/0x01020092), tag_num=0x1C)
288: 0x1441 [0x2B] Kukki-Chebukki (ID: 16908434/0x01020092) [7892*]:
    → "But since that would lead to certain death..."
289: 0x1448 [0x23] WAIT_FOR_DIALOG_INTERACTION
290: 0x1449 [0x52] END_LOAD_SCHEDULER: End scheduler "x006" with entities [LocalPlayer, LocalPlayer], work=166*
291: 0x1458 [0x45] LOAD_SCHEDULED_TASK: Load scheduler "x007" with entities [LocalPlayer, LocalPlayer], work=[166*, 0*]
292: 0x1469 [0x29] REQ_SET_WAIT(priority=0x03, entity_id=Cherukiki (ID: 16908433/0x01020091), tag_num=0x22)
293: 0x1470 [0x2B] Cherukiki (ID: 16908433/0x01020091) [7893*]:
    → "We've decided to find more suitable (and survivable) employment..."
294: 0x1477 [0x23] WAIT_FOR_DIALOG_INTERACTION
295: 0x1478 [0x55] WAIT_LOAD_SCHEDULER: Wait for scheduler "x007" with entities [LocalPlayer, LocalPlayer], work=166*
296: 0x1487 [0x45] LOAD_SCHEDULED_TASK: Load scheduler "x008" with entities [LocalPlayer, LocalPlayer], work=[166*, 0*]
297: 0x1498 [0x27] REQ_SET(priority=0x03, entity_id=Prishe (ID: 16908429/0x0102008D), tag_num=0x05)
298: 0x149F [0x79] Makki-Chebukki (ID: 16908435/0x01020093) looks at Prishe (ID: 16908429/0x0102008D) (Basic look)
299: 0x14A9 [0x79] Kukki-Chebukki (ID: 16908434/0x01020092) looks at Prishe (ID: 16908429/0x0102008D) (Basic look)
300: 0x14B3 [0x79] Cherukiki (ID: 16908433/0x01020091) looks at Prishe (ID: 16908429/0x0102008D) (Basic look)
301: 0x14BD [0x27] REQ_SET(priority=0x03, entity_id=Makki-Chebukki (ID: 16908435/0x01020093), tag_num=0x18)
302: 0x14C4 [0x27] REQ_SET(priority=0x03, entity_id=Kukki-Chebukki (ID: 16908434/0x01020092), tag_num=0x22)
303: 0x14CB [0x2B] Makki-Chebukki (ID: 16908435/0x01020093) [7894*]:
    → "We're now the Chebukki Samurai Sky Pirates! Meet our new employer!"
304: 0x14D2 [0x2A] GET_REQ_LEVEL(level=3, entity_id=Makki-Chebukki (ID: 16908435/0x01020093))
305: 0x14D8 [0x1C] WAIT(120* ticks)
306: 0x14DB [0x27] REQ_SET(priority=0x03, entity_id=Makki-Chebukki (ID: 16908435/0x01020093), tag_num=0x1D)
307: 0x14E2 [0x23] WAIT_FOR_DIALOG_INTERACTION
308: 0x14E3 [0x55] WAIT_LOAD_SCHEDULER: Wait for scheduler "x008" with entities [LocalPlayer, LocalPlayer], work=166*
309: 0x14F2 [0x4E] SET_ENTITY_HIDE_FLAG: Hide Tenzen (ID: 16908432/0x01020090)
310: 0x14F8 [0x29] REQ_SET_WAIT(priority=0x03, entity_id=Tenzen (ID: 16908432/0x01020090), tag_num=0x25)
311: 0x14FF [0x45] LOAD_SCHEDULED_TASK: Load scheduler "w000" with entities [LocalPlayer, LocalPlayer], work=[166*, 0*]
312: 0x1510 [0x1C] WAIT(90* ticks)
313: 0x1513 [0x4E] SET_ENTITY_HIDE_FLAG: Show Tenzen (ID: 16908432/0x01020090)
314: 0x1519 [0x5D] SET_MUSIC_VOLUME(volume=0*, fade_time=300*)
315: 0x151E [0x27] REQ_SET(priority=0x03, entity_id=Tenzen (ID: 16908432/0x01020090), tag_num=0x26)
316: 0x1525 [0x55] WAIT_LOAD_SCHEDULER: Wait for scheduler "w000" with entities [LocalPlayer, LocalPlayer], work=166*
317: 0x1534 [0x1C] WAIT(50* ticks)
318: 0x1537 [0x4A] LocalPlayer looks at Tenzen (ID: 16908432/0x01020090)
319: 0x1540 [0x6F] WAIT_FRAME_DELAY: Yield until WaitTime reaches zero
320: 0x1541 [0x76] CHECK_ENTITY_RENDER_FLAGS: Wait until LocalPlayer Render.Flags0 and Render.Flags3 conditions are met
