# 16908446

## Common Data

| Field            | Value                  |
|------------------|------------------------|
| Zone             | Sealion's Den (ID: 32) |
| Block Size       | 184 bytes              |
| Total Events     | 5                      |
| References Count | 5                      |

## List of Events

| Event ID                 | Entrypoint   |   Size |   Instructions |
|--------------------------|--------------|--------|----------------|
| [65535](#event-65535)    | 0x0000       |     13 |              3 |
| [32000](#event-32000)    | 0x000D       |     28 |              4 |
| [1](#event-1)            | 0x0029       |     28 |              4 |
| [65535.1](#event-655351) | 0x0045       |     29 |              3 |
| [65535.2](#event-655352) | 0x0062       |     29 |              3 |

## DAT References (imed_data)

|   Index | Hex Value   |   Dec Value |
|---------|-------------|-------------|
|       0 | 0xFFF63C00  |  4294327296 |
|       1 | 0x7D75D     |      513885 |
|       2 | 0xFFFC784D  |  4294735949 |
|       3 | 0x0C00      |        3072 |
|       4 | 0x02A1      |         673 |

## Events

### Event 65535

#### Metadata

| Field        | Value    |
|--------------|----------|
| Entrypoint   | 0x0000   |
| Data Size    | 13 bytes |
| Instructions | 3        |

```
      00 01 02 03 04 05 06 07  08 09 0A 0B 0C 0D 0E 0F
      -- -- -- -- -- -- -- --  -- -- -- -- -- -- -- --
0000: 92 01 F8 FF FF 7F 94 01  F8 FF FF 7F 00           .............   
```

#### Opcodes

```
  0: 0x0000 [0x92] EventEntity->Render.Flags3 ^= 0x01
  1: 0x0006 [0x94] EventEntity->Render.Flags3 ^= 0x01
  2: 0x000C [0x00] END_REQSTACK()
```

### Event 32000

#### Metadata

| Field        | Value    |
|--------------|----------|
| Entrypoint   | 0x000D   |
| Data Size    | 28 bytes |
| Instructions | 4        |

```
      00 01 02 03 04 05 06 07  08 09 0A 0B 0C 0D 0E 0F
      -- -- -- -- -- -- -- --  -- -- -- -- -- -- -- --
0000:                                         37 00 80               7..
0010: 01 80 02 80 03 80 80 F8  FF FF 7F 2C F8 FF FF 7F  ...........,....
0020: F8 FF FF 7F 69 6E 69 31  00                       ....ini1.       
```

#### Opcodes

```
  0: 0x000D [0x37] UPDATE_EVENT_POSITION_AND_DIR: x=-640.000*, z=513.885*, y=-231.347*, direction=270.0°*
  1: 0x0016 [0x80] LOAD_WAIT(entity=EventEntity)
  2: 0x001B [0x2C] CREATE_SCHEDULER_TASK: Create scheduler "ini1" with entities [EventEntity, EventEntity]
  3: 0x0028 [0x00] END_REQSTACK()
```

### Event 1

#### Metadata

| Field        | Value    |
|--------------|----------|
| Entrypoint   | 0x0029   |
| Data Size    | 28 bytes |
| Instructions | 4        |

```
      00 01 02 03 04 05 06 07  08 09 0A 0B 0C 0D 0E 0F
      -- -- -- -- -- -- -- --  -- -- -- -- -- -- -- --
0020:                             37 00 80 01 80 02 80           7......
0030: 03 80 80 F8 FF FF 7F 2C  F8 FF FF 7F F8 FF FF 7F  .......,........
0040: 69 6E 69 31 00                                    ini1.           
```

#### Opcodes

```
  0: 0x0029 [0x37] UPDATE_EVENT_POSITION_AND_DIR: x=-640.000*, z=513.885*, y=-231.347*, direction=270.0°*
  1: 0x0032 [0x80] LOAD_WAIT(entity=EventEntity)
  2: 0x0037 [0x2C] CREATE_SCHEDULER_TASK: Create scheduler "ini1" with entities [EventEntity, EventEntity]
  3: 0x0044 [0x00] END_REQSTACK()
```

### Event 65535.1

#### Metadata

| Field        | Value    |
|--------------|----------|
| Entrypoint   | 0x0045   |
| Data Size    | 29 bytes |
| Instructions | 3        |

```
      00 01 02 03 04 05 06 07  08 09 0A 0B 0C 0D 0E 0F
      -- -- -- -- -- -- -- --  -- -- -- -- -- -- -- --
0040:                5B 04 80  F8 FF FF 7F F8 FF FF 7F       [..........
0050: 65 76 30 30 53 F8 FF FF  7F F8 FF FF 7F 65 76 30  ev00S........ev0
0060: 30 00                                             0.              
```

#### Opcodes

```
  0: 0x0045 [0x5B] LOAD_EXT_SCHEDULER: Load scheduler "ev00" with entities [EventEntity, EventEntity], work=673*
  1: 0x0054 [0x53] WAIT_SCHEDULER_TASK: Wait for scheduler "ev00" with entities [EventEntity, EventEntity]
  2: 0x0061 [0x00] END_REQSTACK()
```

### Event 65535.2

#### Metadata

| Field        | Value    |
|--------------|----------|
| Entrypoint   | 0x0062   |
| Data Size    | 29 bytes |
| Instructions | 3        |

```
      00 01 02 03 04 05 06 07  08 09 0A 0B 0C 0D 0E 0F
      -- -- -- -- -- -- -- --  -- -- -- -- -- -- -- --
0060:       5B 04 80 F8 FF FF  7F F8 FF FF 7F 65 76 30    [..........ev0
0070: 31 53 F8 FF FF 7F F8 FF  FF 7F 65 76 30 31 00     1S........ev01. 
```

#### Opcodes

```
  0: 0x0062 [0x5B] LOAD_EXT_SCHEDULER: Load scheduler "ev01" with entities [EventEntity, EventEntity], work=673*
  1: 0x0071 [0x53] WAIT_SCHEDULER_TASK: Wait for scheduler "ev01" with entities [EventEntity, EventEntity]
  2: 0x007E [0x00] END_REQSTACK()
```
