# 16908447 - ship

## Common Data

| Field            | Value                  |
|------------------|------------------------|
| Zone             | Sealion's Den (ID: 32) |
| Block Size       | 816 bytes              |
| Total Events     | 26                     |
| References Count | 20                     |

## List of Events

| Event ID                   | Entrypoint   |   Size |   Instructions |
|----------------------------|--------------|--------|----------------|
| [65535](#event-65535)      | 0x0000       |     33 |              4 |
| [33](#event-33)            | 0x0021       |      7 |              2 |
| [34](#event-34)            | 0x0028       |      7 |              2 |
| [12](#event-12)            | 0x002F       |     40 |              4 |
| [31](#event-31)            | 0x0057       |     42 |              5 |
| [32](#event-32)            | 0x0081       |     42 |              5 |
| [0](#event-0)              | 0x00AB       |     54 |              7 |
| [65535.1](#event-655351)   | 0x00E1       |     26 |              4 |
| [1](#event-1)              | 0x00FB       |      3 |              2 |
| [65535.2](#event-655352)   | 0x00FE       |     43 |              5 |
| [65535.3](#event-655353)   | 0x0129       |     26 |              4 |
| [2](#event-2)              | 0x0143       |     54 |              7 |
| [65535.4](#event-655354)   | 0x0179       |     54 |              7 |
| [65535.5](#event-655355)   | 0x01AF       |     66 |             11 |
| [65535.6](#event-655356)   | 0x01F1       |     14 |              2 |
| [65535.7](#event-655357)   | 0x01FF       |     14 |              2 |
| [65535.8](#event-655358)   | 0x020D       |     14 |              2 |
| [65535.9](#event-655359)   | 0x021B       |     14 |              2 |
| [65535.10](#event-6553510) | 0x0229       |     14 |              2 |
| [65535.11](#event-6553511) | 0x0237       |     14 |              2 |
| [65535.12](#event-6553512) | 0x0245       |     14 |              2 |
| [65535.13](#event-6553513) | 0x0253       |     14 |              2 |
| [13](#event-13)            | 0x0261       |      1 |              1 |
| [15](#event-15)            | 0x0262       |      1 |              1 |
| [17](#event-17)            | 0x0263       |      1 |              1 |
| [29](#event-29)            | 0x0264       |      1 |              1 |

## DAT References (imed_data)

|   Index | Hex Value   |   Dec Value |
|---------|-------------|-------------|
|       0 | 0xFFF355D0  |  4294137296 |
|       1 | 0x13880     |       80000 |
|       2 | 0xFFFF8AD0  |  4294937296 |
|       3 | 0x0C00      |        3072 |
|       4 | 0x003C      |          60 |
|       5 | 0x000A      |          10 |
|       6 | 0xFFF3E658  |  4294174296 |
|       7 | 0x46CD0     |      290000 |
|       8 | 0xFFFC2B88  |  4294716296 |
|       9 | 0xFFF2ADD8  |  4294094296 |
|      10 | 0x606F8     |      395000 |
|      11 | 0xFFFC0860  |  4294707296 |
|      12 | 0xFFF59FC0  |  4294287296 |
|      13 | 0x668A0     |      420000 |
|      14 | 0xFFFC8560  |  4294739296 |
|      15 | 0x0BB8      |        3000 |
|      16 | 0x7EF40     |      520000 |
|      17 | 0x70CB0     |      462000 |
|      18 | 0x0050      |          80 |
|      19 | 0x0001      |           1 |

## Events

### Event 65535

#### Metadata

| Field        | Value    |
|--------------|----------|
| Entrypoint   | 0x0000   |
| Data Size    | 33 bytes |
| Instructions | 4        |

```
      00 01 02 03 04 05 06 07  08 09 0A 0B 0C 0D 0E 0F
      -- -- -- -- -- -- -- --  -- -- -- -- -- -- -- --
0000: 94 00 F8 FF FF 7F 2C F8  FF FF 7F F8 FF FF 7F 71  ......,........q
0010: 75 69 74 2C F8 FF FF 7F  F8 FF FF 7F 70 72 63 6C  uit,........prcl
0020: 00                                                .               
```

#### Opcodes

```
  0: 0x0000 [0x94] EventEntity->Render.Flags3 = Flags3  // No change (flag=0)
  1: 0x0006 [0x2C] CREATE_SCHEDULER_TASK: Create scheduler "quit" with entities [EventEntity, EventEntity]
  2: 0x0013 [0x2C] CREATE_SCHEDULER_TASK: Create scheduler "prcl" with entities [EventEntity, EventEntity]
  3: 0x0020 [0x00] END_REQSTACK()
```

### Event 33

#### Metadata

| Field        | Value   |
|--------------|---------|
| Entrypoint   | 0x0021  |
| Data Size    | 7 bytes |
| Instructions | 2       |

```
      00 01 02 03 04 05 06 07  08 09 0A 0B 0C 0D 0E 0F
      -- -- -- -- -- -- -- --  -- -- -- -- -- -- -- --
0020:    94 01 F8 FF FF 7F 00                            .......        
```

#### Opcodes

```
  0: 0x0021 [0x94] EventEntity->Render.Flags3 ^= 0x01
  1: 0x0027 [0x00] END_REQSTACK()
```

### Event 34

#### Metadata

| Field        | Value   |
|--------------|---------|
| Entrypoint   | 0x0028  |
| Data Size    | 7 bytes |
| Instructions | 2       |

```
      00 01 02 03 04 05 06 07  08 09 0A 0B 0C 0D 0E 0F
      -- -- -- -- -- -- -- --  -- -- -- -- -- -- -- --
0020:                          94 01 F8 FF FF 7F 00             ....... 
```

#### Opcodes

```
  0: 0x0028 [0x94] EventEntity->Render.Flags3 ^= 0x01
  1: 0x002E [0x00] END_REQSTACK()
```

### Event 12

#### Metadata

| Field        | Value    |
|--------------|----------|
| Entrypoint   | 0x002F   |
| Data Size    | 40 bytes |
| Instructions | 4        |

```
      00 01 02 03 04 05 06 07  08 09 0A 0B 0C 0D 0E 0F
      -- -- -- -- -- -- -- --  -- -- -- -- -- -- -- --
0020:                                               2C                 ,
0030: F8 FF FF 7F F8 FF FF 7F  71 75 69 74 2C F8 FF FF  ........quit,...
0040: 7F F8 FF FF 7F 70 72 63  6C 2C F8 FF FF 7F F8 FF  .....prcl,......
0050: FF 7F 70 72 6F 66 00                              ..prof.         
```

#### Opcodes

```
  0: 0x002F [0x2C] CREATE_SCHEDULER_TASK: Create scheduler "quit" with entities [EventEntity, EventEntity]
  1: 0x003C [0x2C] CREATE_SCHEDULER_TASK: Create scheduler "prcl" with entities [EventEntity, EventEntity]
  2: 0x0049 [0x2C] CREATE_SCHEDULER_TASK: Create scheduler "prof" with entities [EventEntity, EventEntity]
  3: 0x0056 [0x00] END_REQSTACK()
```

### Event 31

#### Metadata

| Field        | Value    |
|--------------|----------|
| Entrypoint   | 0x0057   |
| Data Size    | 42 bytes |
| Instructions | 5        |

```
      00 01 02 03 04 05 06 07  08 09 0A 0B 0C 0D 0E 0F
      -- -- -- -- -- -- -- --  -- -- -- -- -- -- -- --
0050:                      22  00 2C F8 FF FF 7F F8 FF         ".,......
0060: FF 7F 71 75 69 74 2C F8  FF FF 7F F8 FF FF 7F 70  ..quit,........p
0070: 72 63 6C 2C F8 FF FF 7F  F8 FF FF 7F 70 72 6F 66  rcl,........prof
0080: 00                                                .               
```

#### Opcodes

```
  0: 0x0057 [0x22] ENTITY_HIDE_FLAG(enabled=0x00)
  1: 0x0059 [0x2C] CREATE_SCHEDULER_TASK: Create scheduler "quit" with entities [EventEntity, EventEntity]
  2: 0x0066 [0x2C] CREATE_SCHEDULER_TASK: Create scheduler "prcl" with entities [EventEntity, EventEntity]
  3: 0x0073 [0x2C] CREATE_SCHEDULER_TASK: Create scheduler "prof" with entities [EventEntity, EventEntity]
  4: 0x0080 [0x00] END_REQSTACK()
```

### Event 32

#### Metadata

| Field        | Value    |
|--------------|----------|
| Entrypoint   | 0x0081   |
| Data Size    | 42 bytes |
| Instructions | 5        |

```
      00 01 02 03 04 05 06 07  08 09 0A 0B 0C 0D 0E 0F
      -- -- -- -- -- -- -- --  -- -- -- -- -- -- -- --
0080:    22 00 2C F8 FF FF 7F  F8 FF FF 7F 71 75 69 74   ".,........quit
0090: 2C F8 FF FF 7F F8 FF FF  7F 70 72 63 6C 2C F8 FF  ,........prcl,..
00A0: FF 7F F8 FF FF 7F 70 72  6F 66 00                 ......prof.     
```

#### Opcodes

```
  0: 0x0081 [0x22] ENTITY_HIDE_FLAG(enabled=0x00)
  1: 0x0083 [0x2C] CREATE_SCHEDULER_TASK: Create scheduler "quit" with entities [EventEntity, EventEntity]
  2: 0x0090 [0x2C] CREATE_SCHEDULER_TASK: Create scheduler "prcl" with entities [EventEntity, EventEntity]
  3: 0x009D [0x2C] CREATE_SCHEDULER_TASK: Create scheduler "prof" with entities [EventEntity, EventEntity]
  4: 0x00AA [0x00] END_REQSTACK()
```

### Event 0

#### Metadata

| Field        | Value    |
|--------------|----------|
| Entrypoint   | 0x00AB   |
| Data Size    | 54 bytes |
| Instructions | 7        |

```
      00 01 02 03 04 05 06 07  08 09 0A 0B 0C 0D 0E 0F
      -- -- -- -- -- -- -- --  -- -- -- -- -- -- -- --
00A0:                                   22 00 37 00 80             ".7..
00B0: 01 80 02 80 03 80 1C 04  80 2C F8 FF FF 7F F8 FF  .........,......
00C0: FF 7F 71 75 69 74 2C F8  FF FF 7F F8 FF FF 7F 70  ..quit,........p
00D0: 72 63 6C 2C F8 FF FF 7F  F8 FF FF 7F 70 72 6F 6E  rcl,........pron
00E0: 00                                                .               
```

#### Opcodes

```
  0: 0x00AB [0x22] ENTITY_HIDE_FLAG(enabled=0x00)
  1: 0x00AD [0x37] UPDATE_EVENT_POSITION_AND_DIR: x=-830.000*, z=80.000*, y=-30.000*, direction=270.0°*
  2: 0x00B6 [0x1C] WAIT(60* ticks)
  3: 0x00B9 [0x2C] CREATE_SCHEDULER_TASK: Create scheduler "quit" with entities [EventEntity, EventEntity]
  4: 0x00C6 [0x2C] CREATE_SCHEDULER_TASK: Create scheduler "prcl" with entities [EventEntity, EventEntity]
  5: 0x00D3 [0x2C] CREATE_SCHEDULER_TASK: Create scheduler "pron" with entities [EventEntity, EventEntity]
  6: 0x00E0 [0x00] END_REQSTACK()
```

### Event 65535.1

#### Metadata

| Field        | Value    |
|--------------|----------|
| Entrypoint   | 0x00E1   |
| Data Size    | 26 bytes |
| Instructions | 4        |

```
      00 01 02 03 04 05 06 07  08 09 0A 0B 0C 0D 0E 0F
      -- -- -- -- -- -- -- --  -- -- -- -- -- -- -- --
00E0:    2C F8 FF FF 7F F8 FF  FF 7F 61 74 63 6B 1C 05   ,........atck..
00F0: 80 37 06 80 07 80 08 80  03 80 00                 .7.........     
```

#### Opcodes

```
  0: 0x00E1 [0x2C] CREATE_SCHEDULER_TASK: Create scheduler "atck" with entities [EventEntity, EventEntity]
  1: 0x00EE [0x1C] WAIT(10* ticks)
  2: 0x00F1 [0x37] UPDATE_EVENT_POSITION_AND_DIR: x=-793.000*, z=290.000*, y=-251.000*, direction=270.0°*
  3: 0x00FA [0x00] END_REQSTACK()
```

### Event 1

#### Metadata

| Field        | Value   |
|--------------|---------|
| Entrypoint   | 0x00FB  |
| Data Size    | 3 bytes |
| Instructions | 2       |

```
      00 01 02 03 04 05 06 07  08 09 0A 0B 0C 0D 0E 0F
      -- -- -- -- -- -- -- --  -- -- -- -- -- -- -- --
00F0:                                   22 00 00                   "..  
```

#### Opcodes

```
  0: 0x00FB [0x22] ENTITY_HIDE_FLAG(enabled=0x00)
  1: 0x00FD [0x00] END_REQSTACK()
```

### Event 65535.2

#### Metadata

| Field        | Value    |
|--------------|----------|
| Entrypoint   | 0x00FE   |
| Data Size    | 43 bytes |
| Instructions | 5        |

```
      00 01 02 03 04 05 06 07  08 09 0A 0B 0C 0D 0E 0F
      -- -- -- -- -- -- -- --  -- -- -- -- -- -- -- --
00F0:                                            1C 04                ..
0100: 80 2C F8 FF FF 7F F8 FF  FF 7F 71 75 69 74 2C F8  .,........quit,.
0110: FF FF 7F F8 FF FF 7F 70  72 63 6C 2C F8 FF FF 7F  .......prcl,....
0120: F8 FF FF 7F 70 72 6F 6E  00                       ....pron.       
```

#### Opcodes

```
  0: 0x00FE [0x1C] WAIT(60* ticks)
  1: 0x0101 [0x2C] CREATE_SCHEDULER_TASK: Create scheduler "quit" with entities [EventEntity, EventEntity]
  2: 0x010E [0x2C] CREATE_SCHEDULER_TASK: Create scheduler "prcl" with entities [EventEntity, EventEntity]
  3: 0x011B [0x2C] CREATE_SCHEDULER_TASK: Create scheduler "pron" with entities [EventEntity, EventEntity]
  4: 0x0128 [0x00] END_REQSTACK()
```

### Event 65535.3

#### Metadata

| Field        | Value    |
|--------------|----------|
| Entrypoint   | 0x0129   |
| Data Size    | 26 bytes |
| Instructions | 4        |

```
      00 01 02 03 04 05 06 07  08 09 0A 0B 0C 0D 0E 0F
      -- -- -- -- -- -- -- --  -- -- -- -- -- -- -- --
0120:                             2C F8 FF FF 7F F8 FF           ,......
0130: FF 7F 67 6F 75 70 1C 05  80 37 09 80 0A 80 0B 80  ..goup...7......
0140: 03 80 00                                          ...             
```

#### Opcodes

```
  0: 0x0129 [0x2C] CREATE_SCHEDULER_TASK: Create scheduler "goup" with entities [EventEntity, EventEntity]
  1: 0x0136 [0x1C] WAIT(10* ticks)
  2: 0x0139 [0x37] UPDATE_EVENT_POSITION_AND_DIR: x=-873.000*, z=395.000*, y=-260.000*, direction=270.0°*
  3: 0x0142 [0x00] END_REQSTACK()
```

### Event 2

#### Metadata

| Field        | Value    |
|--------------|----------|
| Entrypoint   | 0x0143   |
| Data Size    | 54 bytes |
| Instructions | 7        |

```
      00 01 02 03 04 05 06 07  08 09 0A 0B 0C 0D 0E 0F
      -- -- -- -- -- -- -- --  -- -- -- -- -- -- -- --
0140:          22 00 37 0C 80  0D 80 0E 80 03 80 1C 04     ".7..........
0150: 80 2C F8 FF FF 7F F8 FF  FF 7F 71 75 69 74 2C F8  .,........quit,.
0160: FF FF 7F F8 FF FF 7F 70  72 63 6C 2C F8 FF FF 7F  .......prcl,....
0170: F8 FF FF 7F 70 72 6F 6E  00                       ....pron.       
```

#### Opcodes

```
  0: 0x0143 [0x22] ENTITY_HIDE_FLAG(enabled=0x00)
  1: 0x0145 [0x37] UPDATE_EVENT_POSITION_AND_DIR: x=-680.000*, z=420.000*, y=-228.000*, direction=270.0°*
  2: 0x014E [0x1C] WAIT(60* ticks)
  3: 0x0151 [0x2C] CREATE_SCHEDULER_TASK: Create scheduler "quit" with entities [EventEntity, EventEntity]
  4: 0x015E [0x2C] CREATE_SCHEDULER_TASK: Create scheduler "prcl" with entities [EventEntity, EventEntity]
  5: 0x016B [0x2C] CREATE_SCHEDULER_TASK: Create scheduler "pron" with entities [EventEntity, EventEntity]
  6: 0x0178 [0x00] END_REQSTACK()
```

### Event 65535.4

#### Metadata

| Field        | Value    |
|--------------|----------|
| Entrypoint   | 0x0179   |
| Data Size    | 54 bytes |
| Instructions | 7        |

```
      00 01 02 03 04 05 06 07  08 09 0A 0B 0C 0D 0E 0F
      -- -- -- -- -- -- -- --  -- -- -- -- -- -- -- --
0170:                             22 00 37 0C 80 0D 80           ".7....
0180: 0E 80 03 80 1C 04 80 2C  F8 FF FF 7F F8 FF FF 7F  .......,........
0190: 71 75 69 74 2C F8 FF FF  7F F8 FF FF 7F 70 72 63  quit,........prc
01A0: 6C 2C F8 FF FF 7F F8 FF  FF 7F 70 72 6F 6E 00     l,........pron. 
```

#### Opcodes

```
  0: 0x0179 [0x22] ENTITY_HIDE_FLAG(enabled=0x00)
  1: 0x017B [0x37] UPDATE_EVENT_POSITION_AND_DIR: x=-680.000*, z=420.000*, y=-228.000*, direction=270.0°*
  2: 0x0184 [0x1C] WAIT(60* ticks)
  3: 0x0187 [0x2C] CREATE_SCHEDULER_TASK: Create scheduler "quit" with entities [EventEntity, EventEntity]
  4: 0x0194 [0x2C] CREATE_SCHEDULER_TASK: Create scheduler "prcl" with entities [EventEntity, EventEntity]
  5: 0x01A1 [0x2C] CREATE_SCHEDULER_TASK: Create scheduler "pron" with entities [EventEntity, EventEntity]
  6: 0x01AE [0x00] END_REQSTACK()
```

### Event 65535.5

#### Metadata

| Field        | Value    |
|--------------|----------|
| Entrypoint   | 0x01AF   |
| Data Size    | 66 bytes |
| Instructions | 11       |

```
      00 01 02 03 04 05 06 07  08 09 0A 0B 0C 0D 0E 0F
      -- -- -- -- -- -- -- --  -- -- -- -- -- -- -- --
01A0:                                               3B                 ;
01B0: F8 FF FF 7F 00 00 01 00  02 00 03 04 00 0F 80 02  ................
01C0: 01 00 10 80 03 F0 01 07  01 00 04 00 02 01 00 11  ................
01D0: 80 02 E1 01 02 04 00 12  80 02 E1 01 08 04 00 12  ................
01E0: 80 37 00 00 01 00 02 00  03 80 1C 13 80 01 BF 01  .7..............
01F0: 00                                                .               
```

#### Opcodes

```
  0: 0x01AF [0x3B] GET_ENTITY_POSITION(entity=EventEntity, x_destination=ExtData[1]->WorkLocal[0], y_destination=ExtData[1]->WorkLocal[1], z_destination=ExtData[1]->WorkLocal[2])
  1: 0x01BA [0x03] ExtData[1]->WorkLocal[4] = 3000*
  2: 0x01BF [0x02] IF !(ExtData[1]->WorkLocal[1] >= 520000*) GOTO 0x01F0
  3: 0x01C7 [0x07] ExtData[1]->WorkLocal[1] += ExtData[1]->WorkLocal[4]
  4: 0x01CC [0x02] IF !(ExtData[1]->WorkLocal[1] <= 462000*) GOTO 0x01E1
  5: 0x01D4 [0x02] IF !(ExtData[1]->WorkLocal[4] <= 80*) GOTO 0x01E1
  6: 0x01DC [0x08] ExtData[1]->WorkLocal[4] -= 80*
  7: 0x01E1 [0x37] UPDATE_EVENT_POSITION_AND_DIR: x=ExtData[1]->WorkLocal[0], z=ExtData[1]->WorkLocal[1], y=ExtData[1]->WorkLocal[2], direction=270.0°*
  8: 0x01EA [0x1C] WAIT(1* ticks)
  9: 0x01ED [0x01] GOTO 0x01BF
 10: 0x01F0 [0x00] END_REQSTACK()
```

### Event 65535.6

#### Metadata

| Field        | Value    |
|--------------|----------|
| Entrypoint   | 0x01F1   |
| Data Size    | 14 bytes |
| Instructions | 2        |

```
      00 01 02 03 04 05 06 07  08 09 0A 0B 0C 0D 0E 0F
      -- -- -- -- -- -- -- --  -- -- -- -- -- -- -- --
01F0:    2C F8 FF FF 7F F8 FF  FF 7F 70 72 63 6C 00      ,........prcl. 
```

#### Opcodes

```
  0: 0x01F1 [0x2C] CREATE_SCHEDULER_TASK: Create scheduler "prcl" with entities [EventEntity, EventEntity]
  1: 0x01FE [0x00] END_REQSTACK()
```

### Event 65535.7

#### Metadata

| Field        | Value    |
|--------------|----------|
| Entrypoint   | 0x01FF   |
| Data Size    | 14 bytes |
| Instructions | 2        |

```
      00 01 02 03 04 05 06 07  08 09 0A 0B 0C 0D 0E 0F
      -- -- -- -- -- -- -- --  -- -- -- -- -- -- -- --
01F0:                                               2C                 ,
0200: F8 FF FF 7F F8 FF FF 7F  70 72 67 6F 00           ........prgo.   
```

#### Opcodes

```
  0: 0x01FF [0x2C] CREATE_SCHEDULER_TASK: Create scheduler "prgo" with entities [EventEntity, EventEntity]
  1: 0x020C [0x00] END_REQSTACK()
```

### Event 65535.8

#### Metadata

| Field        | Value    |
|--------------|----------|
| Entrypoint   | 0x020D   |
| Data Size    | 14 bytes |
| Instructions | 2        |

```
      00 01 02 03 04 05 06 07  08 09 0A 0B 0C 0D 0E 0F
      -- -- -- -- -- -- -- --  -- -- -- -- -- -- -- --
0200:                                         2C F8 FF               ,..
0210: FF 7F F8 FF FF 7F 70 72  6F 6E 00                 ......pron.     
```

#### Opcodes

```
  0: 0x020D [0x2C] CREATE_SCHEDULER_TASK: Create scheduler "pron" with entities [EventEntity, EventEntity]
  1: 0x021A [0x00] END_REQSTACK()
```

### Event 65535.9

#### Metadata

| Field        | Value    |
|--------------|----------|
| Entrypoint   | 0x021B   |
| Data Size    | 14 bytes |
| Instructions | 2        |

```
      00 01 02 03 04 05 06 07  08 09 0A 0B 0C 0D 0E 0F
      -- -- -- -- -- -- -- --  -- -- -- -- -- -- -- --
0210:                                   2C F8 FF FF 7F             ,....
0220: F8 FF FF 7F 70 72 6F 66  00                       ....prof.       
```

#### Opcodes

```
  0: 0x021B [0x2C] CREATE_SCHEDULER_TASK: Create scheduler "prof" with entities [EventEntity, EventEntity]
  1: 0x0228 [0x00] END_REQSTACK()
```

### Event 65535.10

#### Metadata

| Field        | Value    |
|--------------|----------|
| Entrypoint   | 0x0229   |
| Data Size    | 14 bytes |
| Instructions | 2        |

```
      00 01 02 03 04 05 06 07  08 09 0A 0B 0C 0D 0E 0F
      -- -- -- -- -- -- -- --  -- -- -- -- -- -- -- --
0220:                             2C F8 FF FF 7F F8 FF           ,......
0230: FF 7F 6D 61 69 6E 00                              ..main.         
```

#### Opcodes

```
  0: 0x0229 [0x2C] CREATE_SCHEDULER_TASK: Create scheduler "main" with entities [EventEntity, EventEntity]
  1: 0x0236 [0x00] END_REQSTACK()
```

### Event 65535.11

#### Metadata

| Field        | Value    |
|--------------|----------|
| Entrypoint   | 0x0237   |
| Data Size    | 14 bytes |
| Instructions | 2        |

```
      00 01 02 03 04 05 06 07  08 09 0A 0B 0C 0D 0E 0F
      -- -- -- -- -- -- -- --  -- -- -- -- -- -- -- --
0230:                      2C  F8 FF FF 7F F8 FF FF 7F         ,........
0240: 71 75 69 74 00                                    quit.           
```

#### Opcodes

```
  0: 0x0237 [0x2C] CREATE_SCHEDULER_TASK: Create scheduler "quit" with entities [EventEntity, EventEntity]
  1: 0x0244 [0x00] END_REQSTACK()
```

### Event 65535.12

#### Metadata

| Field        | Value    |
|--------------|----------|
| Entrypoint   | 0x0245   |
| Data Size    | 14 bytes |
| Instructions | 2        |

```
      00 01 02 03 04 05 06 07  08 09 0A 0B 0C 0D 0E 0F
      -- -- -- -- -- -- -- --  -- -- -- -- -- -- -- --
0240:                2C F8 FF  FF 7F F8 FF FF 7F 73 74       ,........st
0250: 72 74 00                                          rt.             
```

#### Opcodes

```
  0: 0x0245 [0x2C] CREATE_SCHEDULER_TASK: Create scheduler "strt" with entities [EventEntity, EventEntity]
  1: 0x0252 [0x00] END_REQSTACK()
```

### Event 65535.13

#### Metadata

| Field        | Value    |
|--------------|----------|
| Entrypoint   | 0x0253   |
| Data Size    | 14 bytes |
| Instructions | 2        |

```
      00 01 02 03 04 05 06 07  08 09 0A 0B 0C 0D 0E 0F
      -- -- -- -- -- -- -- --  -- -- -- -- -- -- -- --
0250:          53 F8 FF FF 7F  F8 FF FF 7F 73 74 72 74     S........strt
0260: 00                                                .               
```

#### Opcodes

```
  0: 0x0253 [0x53] WAIT_SCHEDULER_TASK: Wait for scheduler "strt" with entities [EventEntity, EventEntity]
  1: 0x0260 [0x00] END_REQSTACK()
```

### Event 13

#### Metadata

| Field        | Value   |
|--------------|---------|
| Entrypoint   | 0x0261  |
| Data Size    | 1 bytes |
| Instructions | 1       |

```
      00 01 02 03 04 05 06 07  08 09 0A 0B 0C 0D 0E 0F
      -- -- -- -- -- -- -- --  -- -- -- -- -- -- -- --
0260:    00                                              .              
```

#### Opcodes

```
  0: 0x0261 [0x00] END_REQSTACK()
```

### Event 15

#### Metadata

| Field        | Value   |
|--------------|---------|
| Entrypoint   | 0x0262  |
| Data Size    | 1 bytes |
| Instructions | 1       |

```
      00 01 02 03 04 05 06 07  08 09 0A 0B 0C 0D 0E 0F
      -- -- -- -- -- -- -- --  -- -- -- -- -- -- -- --
0260:       00                                            .             
```

#### Opcodes

```
  0: 0x0262 [0x00] END_REQSTACK()
```

### Event 17

#### Metadata

| Field        | Value   |
|--------------|---------|
| Entrypoint   | 0x0263  |
| Data Size    | 1 bytes |
| Instructions | 1       |

```
      00 01 02 03 04 05 06 07  08 09 0A 0B 0C 0D 0E 0F
      -- -- -- -- -- -- -- --  -- -- -- -- -- -- -- --
0260:          00                                          .            
```

#### Opcodes

```
  0: 0x0263 [0x00] END_REQSTACK()
```

### Event 29

#### Metadata

| Field        | Value   |
|--------------|---------|
| Entrypoint   | 0x0264  |
| Data Size    | 1 bytes |
| Instructions | 1       |

```
      00 01 02 03 04 05 06 07  08 09 0A 0B 0C 0D 0E 0F
      -- -- -- -- -- -- -- --  -- -- -- -- -- -- -- --
0260:             00                                        .           
```

#### Opcodes

```
  0: 0x0264 [0x00] END_REQSTACK()
```
