# 16908431 - Ulmia

## Common Data

| Field            | Value                  |
|------------------|------------------------|
| Zone             | Sealion's Den (ID: 32) |
| Block Size       | 1500 bytes             |
| Total Events     | 45                     |
| References Count | 88                     |

## List of Events

| Event ID                   | Entrypoint   |   Size |   Instructions |
|----------------------------|--------------|--------|----------------|
| [65535](#event-65535)      | 0x0000       |     13 |              3 |
| [0](#event-0)              | 0x000D       |     10 |              2 |
| [65535.1](#event-655351)   | 0x0017       |     30 |              6 |
| [65535.2](#event-655352)   | 0x0035       |     23 |              7 |
| [65535.3](#event-655353)   | 0x004C       |     10 |              2 |
| [2](#event-2)              | 0x0056       |     10 |              2 |
| [65535.4](#event-655354)   | 0x0060       |     17 |              4 |
| [65535.5](#event-655355)   | 0x0071       |     22 |              6 |
| [65535.6](#event-655356)   | 0x0087       |     72 |             11 |
| [31](#event-31)            | 0x00CF       |      7 |              2 |
| [32](#event-32)            | 0x00D6       |      7 |              2 |
| [65535.7](#event-655357)   | 0x00DD       |     10 |              2 |
| [65535.8](#event-655358)   | 0x00E7       |     10 |              2 |
| [65535.9](#event-655359)   | 0x00F1       |     32 |              6 |
| [65535.10](#event-6553510) | 0x0111       |     16 |              5 |
| [33](#event-33)            | 0x0121       |      7 |              2 |
| [34](#event-34)            | 0x0128       |      7 |              2 |
| [65535.11](#event-6553511) | 0x012F       |     21 |              3 |
| [65535.12](#event-6553512) | 0x0144       |     20 |              4 |
| [65535.13](#event-6553513) | 0x0158       |     25 |              3 |
| [65535.14](#event-6553514) | 0x0171       |      3 |              2 |
| [65535.15](#event-6553515) | 0x0174       |      3 |              2 |
| [65535.16](#event-6553516) | 0x0177       |     16 |              2 |
| [65535.17](#event-6553517) | 0x0187       |     29 |              3 |
| [65535.18](#event-6553518) | 0x01A4       |     16 |              2 |
| [65535.19](#event-6553519) | 0x01B4       |     16 |              2 |
| [65535.20](#event-6553520) | 0x01C4       |     29 |              3 |
| [65535.21](#event-6553521) | 0x01E1       |     16 |              2 |
| [65535.22](#event-6553522) | 0x01F1       |     29 |              3 |
| [65535.23](#event-6553523) | 0x020E       |     16 |              2 |
| [65535.24](#event-6553524) | 0x021E       |     29 |              3 |
| [65535.25](#event-6553525) | 0x023B       |     16 |              2 |
| [65535.26](#event-6553526) | 0x024B       |     16 |              2 |
| [65535.27](#event-6553527) | 0x025B       |     16 |              2 |
| [65535.28](#event-6553528) | 0x026B       |     62 |              7 |
| [65535.29](#event-6553529) | 0x02A9       |     22 |              3 |
| [65535.30](#event-6553530) | 0x02BF       |     21 |              5 |
| [65535.31](#event-6553531) | 0x02D4       |     16 |              2 |
| [65535.32](#event-6553532) | 0x02E4       |     84 |             14 |
| [13](#event-13)            | 0x0338       |     10 |              2 |
| [65535.33](#event-6553533) | 0x0342       |     25 |              7 |
| [65535.34](#event-6553534) | 0x035B       |     44 |             10 |
| [15](#event-15)            | 0x0387       |     10 |              2 |
| [65535.35](#event-6553535) | 0x0391       |     14 |              4 |
| [65535.36](#event-6553536) | 0x039F       |     24 |              6 |

## DAT References (imed_data)

|   Index | Hex Value   |   Dec Value |
|---------|-------------|-------------|
|       0 | 0xFFF41EDB  |  4294188763 |
|       1 | 0xFFFEA3E0  |  4294878176 |
|       2 | 0xFFFE6C4D  |  4294863949 |
|       3 | 0x0BF1      |        3057 |
|       4 | 0x0028      |          40 |
|       5 | 0xFFF41F28  |  4294188840 |
|       6 | 0xFFFEAD1C  |  4294880540 |
|       7 | 0x01A4      |         420 |
|       8 | 0x03E8      |        1000 |
|       9 | 0x000D      |          13 |
|      10 | 0xFFF62E60  |  4294323808 |
|      11 | 0x807A4     |      526244 |
|      12 | 0xFFFC7731  |  4294735665 |
|      13 | 0x006C      |         108 |
|      14 | 0xFFF427C9  |  4294191049 |
|      15 | 0xFFFEBF92  |  4294885266 |
|      16 | 0xFFFE6D14  |  4294864148 |
|      17 | 0x0CA8      |        3240 |
|      18 | 0xFFF5B8CD  |  4294293709 |
|      19 | 0x7F528     |      521512 |
|      20 | 0xFFFC79A8  |  4294736296 |
|      21 | 0x0000      |           0 |
|      22 | 0x07D0      |        2000 |
|      23 | 0x0001      |           1 |
|      24 | 0x218E      |        8590 |
|      25 | 0xFFFFF65C  |  4294964828 |
|      26 | 0xFFFFFE00  |  4294966784 |
|      27 | 0xFFF634AC  |  4294325420 |
|      28 | 0xFFF64A69  |  4294330985 |
|      29 | 0x30397     |      197527 |
|      30 | 0x0F17      |        3863 |
|      31 | 0xFFF42B50  |  4294191952 |
|      32 | 0xFFFED130  |  4294889776 |
|      33 | 0x0C0C      |        3084 |
|      34 | 0xFFF416B8  |  4294186680 |
|      35 | 0xFFFEE574  |  4294894964 |
|      36 | 0x0CDD      |        3293 |
|      37 | 0x0279      |         633 |
|      38 | 0xFFF417DE  |  4294186974 |
|      39 | 0xFFFEA52C  |  4294878508 |
|      40 | 0x0D37      |        3383 |
|      41 | 0x027A      |         634 |
|      42 | 0xFFF62719  |  4294321945 |
|      43 | 0x7FDDD     |      523741 |
|      44 | 0xFFFC7914  |  4294736148 |
|      45 | 0x0305      |         773 |
|      46 | 0x01A7      |         423 |
|      47 | 0x01A8      |         424 |
|      48 | 0x027B      |         635 |
|      49 | 0x0005      |           5 |
|      50 | 0x00A6      |         166 |
|      51 | 0x003C      |          60 |
|      52 | 0x00CF      |         207 |
|      53 | 0x01A6      |         422 |
|      54 | 0x95099     |      610457 |
|      55 | 0xC0AAD     |      789165 |
|      56 | 0x2060B     |      132619 |
|      57 | 0x02FD      |         765 |
|      58 | 0x95A57     |      612951 |
|      59 | 0xBF309     |      783113 |
|      60 | 0x20518     |      132376 |
|      61 | 0x9581F     |      612383 |
|      62 | 0xBE65A     |      779866 |
|      63 | 0x205FF     |      132607 |
|      64 | 0x93875     |      604277 |
|      65 | 0xB80C6     |      753862 |
|      66 | 0x20B74     |      134004 |
|      67 | 0x0BFC      |        3068 |
|      68 | 0x00B4      |         180 |
|      69 | 0x93FA4     |      606116 |
|      70 | 0xB5AE4     |      744164 |
|      71 | 0x20DF2     |      134642 |
|      72 | 0x94F4D     |      610125 |
|      73 | 0xB4E08     |      740872 |
|      74 | 0x20F1E     |      134942 |
|      75 | 0x954C7     |      611527 |
|      76 | 0xBB93F     |      768319 |
|      77 | 0x20673     |      132723 |
|      78 | 0x0B81      |        2945 |
|      79 | 0x953CB     |      611275 |
|      80 | 0xBCCD9     |      773337 |
|      81 | 0x206B7     |      132791 |
|      82 | 0x9576D     |      612205 |
|      83 | 0xBB920     |      768288 |
|      84 | 0x20645     |      132677 |
|      85 | 0x93E2C     |      605740 |
|      86 | 0xB98AD     |      759981 |
|      87 | 0x20C91     |      134289 |

## Events

### Event 65535

#### Metadata

| Field        | Value    |
|--------------|----------|
| Entrypoint   | 0x0000   |
| Data Size    | 13 bytes |
| Instructions | 3        |

```
      00 01 02 03 04 05 06 07  08 09 0A 0B 0C 0D 0E 0F
      -- -- -- -- -- -- -- --  -- -- -- -- -- -- -- --
0000: 92 01 F8 FF FF 7F 94 01  F8 FF FF 7F 00           .............   
```

#### Opcodes

```
  0: 0x0000 [0x92] EventEntity->Render.Flags3 ^= 0x01
  1: 0x0006 [0x94] EventEntity->Render.Flags3 ^= 0x01
  2: 0x000C [0x00] END_REQSTACK()
```

### Event 0

#### Metadata

| Field        | Value    |
|--------------|----------|
| Entrypoint   | 0x000D   |
| Data Size    | 10 bytes |
| Instructions | 2        |

```
      00 01 02 03 04 05 06 07  08 09 0A 0B 0C 0D 0E 0F
      -- -- -- -- -- -- -- --  -- -- -- -- -- -- -- --
0000:                                         37 00 80               7..
0010: 01 80 02 80 03 80 00                              .......         
```

#### Opcodes

```
  0: 0x000D [0x37] UPDATE_EVENT_POSITION_AND_DIR: x=-778.533*, z=-89.120*, y=-103.347*, direction=268.7°*
  1: 0x0016 [0x00] END_REQSTACK()
```

### Event 65535.1

#### Metadata

| Field        | Value    |
|--------------|----------|
| Entrypoint   | 0x0017   |
| Data Size    | 30 bytes |
| Instructions | 6        |

```
      00 01 02 03 04 05 06 07  08 09 0A 0B 0C 0D 0E 0F
      -- -- -- -- -- -- -- --  -- -- -- -- -- -- -- --
0010:                      32  04 80 1F 00 05 80 06 80         2........
0020: 02 80 1F 01 6F 5B 07 80  F8 FF FF 7F F8 FF FF 7F  ....o[..........
0030: 74 6C 61 30 00                                    tla0.           
```

#### Opcodes

```
  0: 0x0017 [0x32] ExtData[1]->MainSpeed = 40* * 0.1
  1: 0x001A [0x1F] MOVE_ENTITY: EventEntity moves to X=-778.456*, Z=-86.756*, Y=-103.347*
  2: 0x0022 [0x1F] MOVE_ENTITY: Update entity position (mode=1)
  3: 0x0024 [0x6F] WAIT_FRAME_DELAY: Yield until WaitTime reaches zero
  4: 0x0025 [0x5B] LOAD_EXT_SCHEDULER: Load scheduler "tla0" with entities [EventEntity, EventEntity], work=420*
  5: 0x0034 [0x00] END_REQSTACK()
```

### Event 65535.2

#### Metadata

| Field        | Value    |
|--------------|----------|
| Entrypoint   | 0x0035   |
| Data Size    | 23 bytes |
| Instructions | 7        |

```
      00 01 02 03 04 05 06 07  08 09 0A 0B 0C 0D 0E 0F
      -- -- -- -- -- -- -- --  -- -- -- -- -- -- -- --
0030:                03 06 00  08 80 1A F4 02 32 09 80       ........2..
0040: 1F 00 07 00 08 00 09 00  1F 01 6F 00              ..........o.    
```

#### Opcodes

```
  0: 0x0035 [0x03] ExtData[1]->WorkLocal[6] = 1000*
  1: 0x003A [0x1A] CALL_SUBROUTINE(address=0x02F4)
  2: 0x003D [0x32] ExtData[1]->MainSpeed = 13* * 0.1
  3: 0x0040 [0x1F] MOVE_ENTITY: EventEntity moves to X=ExtData[1]->WorkLocal[7], Z=ExtData[1]->WorkLocal[8], Y=ExtData[1]->WorkLocal[9]
  4: 0x0048 [0x1F] MOVE_ENTITY: Update entity position (mode=1)
  5: 0x004A [0x6F] WAIT_FRAME_DELAY: Yield until WaitTime reaches zero
  6: 0x004B [0x00] END_REQSTACK()
```

### Event 65535.3

#### Metadata

| Field        | Value    |
|--------------|----------|
| Entrypoint   | 0x004C   |
| Data Size    | 10 bytes |
| Instructions | 2        |

```
      00 01 02 03 04 05 06 07  08 09 0A 0B 0C 0D 0E 0F
      -- -- -- -- -- -- -- --  -- -- -- -- -- -- -- --
0040:                                      37 0A 80 0B              7...
0050: 80 0C 80 0D 80 00                                 ......          
```

#### Opcodes

```
  0: 0x004C [0x37] UPDATE_EVENT_POSITION_AND_DIR: x=-643.488*, z=526.244*, y=-231.631*, direction=9.5°*
  1: 0x0055 [0x00] END_REQSTACK()
```

### Event 2

#### Metadata

| Field        | Value    |
|--------------|----------|
| Entrypoint   | 0x0056   |
| Data Size    | 10 bytes |
| Instructions | 2        |

```
      00 01 02 03 04 05 06 07  08 09 0A 0B 0C 0D 0E 0F
      -- -- -- -- -- -- -- --  -- -- -- -- -- -- -- --
0050:                   37 0E  80 0F 80 10 80 11 80 00        7.........
```

#### Opcodes

```
  0: 0x0056 [0x37] UPDATE_EVENT_POSITION_AND_DIR: x=-776.247*, z=-82.030*, y=-103.148*, direction=284.8°*
  1: 0x005F [0x00] END_REQSTACK()
```

### Event 65535.4

#### Metadata

| Field        | Value    |
|--------------|----------|
| Entrypoint   | 0x0060   |
| Data Size    | 17 bytes |
| Instructions | 4        |

```
      00 01 02 03 04 05 06 07  08 09 0A 0B 0C 0D 0E 0F
      -- -- -- -- -- -- -- --  -- -- -- -- -- -- -- --
0060: 33 01 37 12 80 13 80 14  80 15 80 5E 69 64 6C 30  3.7........^idl0
0070: 00                                                .               
```

#### Opcodes

```
  0: 0x0060 [0x33] EventEntity->Render.Flags0 |= 0x200000 // Bit 21 (flag=0x01)
  1: 0x0062 [0x37] UPDATE_EVENT_POSITION_AND_DIR: x=-673.587*, z=521.512*, y=-231.000*, direction=0.0°*
  2: 0x006B [0x5E] EventEntity goes idle (kills current action) (animation: "idl0")
  3: 0x0070 [0x00] END_REQSTACK()
```

### Event 65535.5

#### Metadata

| Field        | Value    |
|--------------|----------|
| Entrypoint   | 0x0071   |
| Data Size    | 22 bytes |
| Instructions | 6        |

```
      00 01 02 03 04 05 06 07  08 09 0A 0B 0C 0D 0E 0F
      -- -- -- -- -- -- -- --  -- -- -- -- -- -- -- --
0070:    03 06 00 16 80 1A F4  02 32 04 80 1F 00 07 00   ........2......
0080: 08 00 09 00 1F 01 00                              .......         
```

#### Opcodes

```
  0: 0x0071 [0x03] ExtData[1]->WorkLocal[6] = 2000*
  1: 0x0076 [0x1A] CALL_SUBROUTINE(address=0x02F4)
  2: 0x0079 [0x32] ExtData[1]->MainSpeed = 40* * 0.1
  3: 0x007C [0x1F] MOVE_ENTITY: EventEntity moves to X=ExtData[1]->WorkLocal[7], Z=ExtData[1]->WorkLocal[8], Y=ExtData[1]->WorkLocal[9]
  4: 0x0084 [0x1F] MOVE_ENTITY: Update entity position (mode=1)
  5: 0x0086 [0x00] END_REQSTACK()
```

### Event 65535.6

#### Metadata

| Field        | Value    |
|--------------|----------|
| Entrypoint   | 0x0087   |
| Data Size    | 72 bytes |
| Instructions | 11       |

```
      00 01 02 03 04 05 06 07  08 09 0A 0B 0C 0D 0E 0F
      -- -- -- -- -- -- -- --  -- -- -- -- -- -- -- --
0080:                      33  01 79 00 F8 FF FF 7F 8E         3.y......
0090: 00 02 01 5B 07 80 F8 FF  FF 7F F8 FF FF 7F 74 6C  ...[..........tl
00A0: 61 30 02 24 10 17 80 01  CE 00 3B 9F 00 02 01 00  a0.$......;.....
00B0: 00 01 00 02 00 07 00 00  18 80 07 01 00 19 80 37  ...............7
00C0: 00 00 01 00 14 80 1A 80  1C 17 80 01 A2 00 00     ............... 
```

#### Opcodes

```
  0: 0x0087 [0x33] EventEntity->Render.Flags0 |= 0x200000 // Bit 21 (flag=0x01)
  1: 0x0089 [0x79] EventEntity looks at Prishe (ID: 16908430/0x0102008E) (Basic look)
  2: 0x0093 [0x5B] LOAD_EXT_SCHEDULER: Load scheduler "tla0" with entities [EventEntity, EventEntity], work=420*
  3: 0x00A2 [0x02] IF !(Work_Zone[36] == 1*) GOTO 0x00CE
  4: 0x00AA [0x3B] GET_ENTITY_POSITION(entity=ship (ID: 16908447/0x0102009F), x_destination=ExtData[1]->WorkLocal[0], y_destination=ExtData[1]->WorkLocal[1], z_destination=ExtData[1]->WorkLocal[2])
  5: 0x00B5 [0x07] ExtData[1]->WorkLocal[0] += 8590*
  6: 0x00BA [0x07] ExtData[1]->WorkLocal[1] += 4294964828*
  7: 0x00BF [0x37] UPDATE_EVENT_POSITION_AND_DIR: x=ExtData[1]->WorkLocal[0], z=ExtData[1]->WorkLocal[1], y=-231.000*, direction=377476174.2°*
  8: 0x00C8 [0x1C] WAIT(1* ticks)
  9: 0x00CB [0x01] GOTO 0x00A2
 10: 0x00CE [0x00] END_REQSTACK()
```

### Event 31

#### Metadata

| Field        | Value   |
|--------------|---------|
| Entrypoint   | 0x00CF  |
| Data Size    | 7 bytes |
| Instructions | 2       |

```
      00 01 02 03 04 05 06 07  08 09 0A 0B 0C 0D 0E 0F
      -- -- -- -- -- -- -- --  -- -- -- -- -- -- -- --
00C0:                                               94                 .
00D0: 01 F8 FF FF 7F 00                                 ......          
```

#### Opcodes

```
  0: 0x00CF [0x94] EventEntity->Render.Flags3 ^= 0x01
  1: 0x00D5 [0x00] END_REQSTACK()
```

### Event 32

#### Metadata

| Field        | Value   |
|--------------|---------|
| Entrypoint   | 0x00D6  |
| Data Size    | 7 bytes |
| Instructions | 2       |

```
      00 01 02 03 04 05 06 07  08 09 0A 0B 0C 0D 0E 0F
      -- -- -- -- -- -- -- --  -- -- -- -- -- -- -- --
00D0:                   94 01  F8 FF FF 7F 00                 .......   
```

#### Opcodes

```
  0: 0x00D6 [0x94] EventEntity->Render.Flags3 ^= 0x01
  1: 0x00DC [0x00] END_REQSTACK()
```

### Event 65535.7

#### Metadata

| Field        | Value    |
|--------------|----------|
| Entrypoint   | 0x00DD   |
| Data Size    | 10 bytes |
| Instructions | 2        |

```
      00 01 02 03 04 05 06 07  08 09 0A 0B 0C 0D 0E 0F
      -- -- -- -- -- -- -- --  -- -- -- -- -- -- -- --
00D0:                                         37 1B 80               7..
00E0: 1C 80 1D 80 1E 80 00                              .......         
```

#### Opcodes

```
  0: 0x00DD [0x37] UPDATE_EVENT_POSITION_AND_DIR: x=-641.876*, z=-636.311*, y=197.527*, direction=339.5°*
  1: 0x00E6 [0x00] END_REQSTACK()
```

### Event 65535.8

#### Metadata

| Field        | Value    |
|--------------|----------|
| Entrypoint   | 0x00E7   |
| Data Size    | 10 bytes |
| Instructions | 2        |

```
      00 01 02 03 04 05 06 07  08 09 0A 0B 0C 0D 0E 0F
      -- -- -- -- -- -- -- --  -- -- -- -- -- -- -- --
00E0:                      37  1F 80 20 80 10 80 21 80         7.. ...!.
00F0: 00                                                .               
```

#### Opcodes

```
  0: 0x00E7 [0x37] UPDATE_EVENT_POSITION_AND_DIR: x=-775.344*, z=-77.520*, y=-103.148*, direction=271.0°*
  1: 0x00F0 [0x00] END_REQSTACK()
```

### Event 65535.9

#### Metadata

| Field        | Value    |
|--------------|----------|
| Entrypoint   | 0x00F1   |
| Data Size    | 32 bytes |
| Instructions | 6        |

```
      00 01 02 03 04 05 06 07  08 09 0A 0B 0C 0D 0E 0F
      -- -- -- -- -- -- -- --  -- -- -- -- -- -- -- --
00F0:    37 22 80 23 80 02 80  24 80 1E 8D 00 02 01 6F   7".#...$......o
0100: 70 5B 25 80 F8 FF FF 7F  F8 FF FF 7F 6B 7A 65 30  p[%.........kze0
0110: 00                                                .               
```

#### Opcodes

```
  0: 0x00F1 [0x37] UPDATE_EVENT_POSITION_AND_DIR: x=-780.616*, z=-72.332*, y=-103.347*, direction=289.4°*
  1: 0x00FA [0x1E] EventEntity looks at Prishe (ID: 16908429/0x0102008D) and starts talking
  2: 0x00FF [0x6F] WAIT_FRAME_DELAY: Yield until WaitTime reaches zero
  3: 0x0100 [0x70] WAIT_ENTITY_RENDER_FLAG: Wait while EventEntity->Render.Flags3 bit 2 is set (cancel turn if not)
  4: 0x0101 [0x5B] LOAD_EXT_SCHEDULER: Load scheduler "kze0" with entities [EventEntity, EventEntity], work=633*
  5: 0x0110 [0x00] END_REQSTACK()
```

### Event 65535.10

#### Metadata

| Field        | Value    |
|--------------|----------|
| Entrypoint   | 0x0111   |
| Data Size    | 16 bytes |
| Instructions | 5        |

```
      00 01 02 03 04 05 06 07  08 09 0A 0B 0C 0D 0E 0F
      -- -- -- -- -- -- -- --  -- -- -- -- -- -- -- --
0110:    32 04 80 1F 00 26 80  27 80 02 80 1F 01 22 01   2....&.'.....".
0120: 00                                                .               
```

#### Opcodes

```
  0: 0x0111 [0x32] ExtData[1]->MainSpeed = 40* * 0.1
  1: 0x0114 [0x1F] MOVE_ENTITY: EventEntity moves to X=-780.322*, Z=-88.788*, Y=-103.347*
  2: 0x011C [0x1F] MOVE_ENTITY: Update entity position (mode=1)
  3: 0x011E [0x22] ENTITY_HIDE_FLAG(enabled=0x01)
  4: 0x0120 [0x00] END_REQSTACK()
```

### Event 33

#### Metadata

| Field        | Value   |
|--------------|---------|
| Entrypoint   | 0x0121  |
| Data Size    | 7 bytes |
| Instructions | 2       |

```
      00 01 02 03 04 05 06 07  08 09 0A 0B 0C 0D 0E 0F
      -- -- -- -- -- -- -- --  -- -- -- -- -- -- -- --
0120:    94 01 F8 FF FF 7F 00                            .......        
```

#### Opcodes

```
  0: 0x0121 [0x94] EventEntity->Render.Flags3 ^= 0x01
  1: 0x0127 [0x00] END_REQSTACK()
```

### Event 34

#### Metadata

| Field        | Value   |
|--------------|---------|
| Entrypoint   | 0x0128  |
| Data Size    | 7 bytes |
| Instructions | 2       |

```
      00 01 02 03 04 05 06 07  08 09 0A 0B 0C 0D 0E 0F
      -- -- -- -- -- -- -- --  -- -- -- -- -- -- -- --
0120:                          94 01 F8 FF FF 7F 00             ....... 
```

#### Opcodes

```
  0: 0x0128 [0x94] EventEntity->Render.Flags3 ^= 0x01
  1: 0x012E [0x00] END_REQSTACK()
```

### Event 65535.11

#### Metadata

| Field        | Value    |
|--------------|----------|
| Entrypoint   | 0x012F   |
| Data Size    | 21 bytes |
| Instructions | 3        |

```
      00 01 02 03 04 05 06 07  08 09 0A 0B 0C 0D 0E 0F
      -- -- -- -- -- -- -- --  -- -- -- -- -- -- -- --
0120:                                               3B                 ;
0130: 8D 00 02 01 03 00 04 00  05 00 37 03 00 04 00 05  ..........7.....
0140: 00 28 80 00                                       .(..            
```

#### Opcodes

```
  0: 0x012F [0x3B] GET_ENTITY_POSITION(entity=Prishe (ID: 16908429/0x0102008D), x_destination=ExtData[1]->WorkLocal[3], y_destination=ExtData[1]->WorkLocal[4], z_destination=ExtData[1]->WorkLocal[5])
  1: 0x013A [0x37] UPDATE_EVENT_POSITION_AND_DIR: x=ExtData[1]->WorkLocal[3], z=ExtData[1]->WorkLocal[4], y=ExtData[1]->WorkLocal[5], direction=297.3°*
  2: 0x0143 [0x00] END_REQSTACK()
```

### Event 65535.12

#### Metadata

| Field        | Value    |
|--------------|----------|
| Entrypoint   | 0x0144   |
| Data Size    | 20 bytes |
| Instructions | 4        |

```
      00 01 02 03 04 05 06 07  08 09 0A 0B 0C 0D 0E 0F
      -- -- -- -- -- -- -- --  -- -- -- -- -- -- -- --
0140:             AB 08 5B 29  80 F8 FF FF 7F F8 FF FF      ..[)........
0150: 7F 6B 61 69 30 22 00 00                           .kai0"..        
```

#### Opcodes

```
  0: 0x0144 [0xAB] EventEntity->Render.Flags2 |= 0x02 // Set bit 1
  1: 0x0146 [0x5B] LOAD_EXT_SCHEDULER: Load scheduler "kai0" with entities [EventEntity, EventEntity], work=634*
  2: 0x0155 [0x22] ENTITY_HIDE_FLAG(enabled=0x00)
  3: 0x0157 [0x00] END_REQSTACK()
```

### Event 65535.13

#### Metadata

| Field        | Value    |
|--------------|----------|
| Entrypoint   | 0x0158   |
| Data Size    | 25 bytes |
| Instructions | 3        |

```
      00 01 02 03 04 05 06 07  08 09 0A 0B 0C 0D 0E 0F
      -- -- -- -- -- -- -- --  -- -- -- -- -- -- -- --
0150:                          37 2A 80 2B 80 2C 80 2D          7*.+.,.-
0160: 80 5B 07 80 F8 FF FF 7F  F8 FF FF 7F 74 6C 61 30  .[..........tla0
0170: 00                                                .               
```

#### Opcodes

```
  0: 0x0158 [0x37] UPDATE_EVENT_POSITION_AND_DIR: x=-645.351*, z=523.741*, y=-231.148*, direction=67.9°*
  1: 0x0161 [0x5B] LOAD_EXT_SCHEDULER: Load scheduler "tla0" with entities [EventEntity, EventEntity], work=420*
  2: 0x0170 [0x00] END_REQSTACK()
```

### Event 65535.14

#### Metadata

| Field        | Value   |
|--------------|---------|
| Entrypoint   | 0x0171  |
| Data Size    | 3 bytes |
| Instructions | 2       |

```
      00 01 02 03 04 05 06 07  08 09 0A 0B 0C 0D 0E 0F
      -- -- -- -- -- -- -- --  -- -- -- -- -- -- -- --
0170:    A5 01 00                                        ...            
```

#### Opcodes

```
  0: 0x0171 [0xA5] EventEntity->Flags3.BallistaTeam |= 0x08  // Set bit 3 of BallistaTeam
  1: 0x0173 [0x00] END_REQSTACK()
```

### Event 65535.15

#### Metadata

| Field        | Value   |
|--------------|---------|
| Entrypoint   | 0x0174  |
| Data Size    | 3 bytes |
| Instructions | 2       |

```
      00 01 02 03 04 05 06 07  08 09 0A 0B 0C 0D 0E 0F
      -- -- -- -- -- -- -- --  -- -- -- -- -- -- -- --
0170:             A5 00 00                                  ...         
```

#### Opcodes

```
  0: 0x0174 [0xA5] EventEntity->Flags3.BallistaTeam &= ~0x08  // Clear bit 3 of BallistaTeam
  1: 0x0176 [0x00] END_REQSTACK()
```

### Event 65535.16

#### Metadata

| Field        | Value    |
|--------------|----------|
| Entrypoint   | 0x0177   |
| Data Size    | 16 bytes |
| Instructions | 2        |

```
      00 01 02 03 04 05 06 07  08 09 0A 0B 0C 0D 0E 0F
      -- -- -- -- -- -- -- --  -- -- -- -- -- -- -- --
0170:                      5B  07 80 F8 FF FF 7F F8 FF         [........
0180: FF 7F 74 6C 63 30 00                              ..tlc0.         
```

#### Opcodes

```
  0: 0x0177 [0x5B] LOAD_EXT_SCHEDULER: Load scheduler "tlc0" with entities [EventEntity, EventEntity], work=420*
  1: 0x0186 [0x00] END_REQSTACK()
```

### Event 65535.17

#### Metadata

| Field        | Value    |
|--------------|----------|
| Entrypoint   | 0x0187   |
| Data Size    | 29 bytes |
| Instructions | 3        |

```
      00 01 02 03 04 05 06 07  08 09 0A 0B 0C 0D 0E 0F
      -- -- -- -- -- -- -- --  -- -- -- -- -- -- -- --
0180:                      5B  07 80 F8 FF FF 7F F8 FF         [........
0190: FF 7F 74 6C 63 31 53 F8  FF FF 7F F8 FF FF 7F 74  ..tlc1S........t
01A0: 6C 63 31 00                                       lc1.            
```

#### Opcodes

```
  0: 0x0187 [0x5B] LOAD_EXT_SCHEDULER: Load scheduler "tlc1" with entities [EventEntity, EventEntity], work=420*
  1: 0x0196 [0x53] WAIT_SCHEDULER_TASK: Wait for scheduler "tlc1" with entities [EventEntity, EventEntity]
  2: 0x01A3 [0x00] END_REQSTACK()
```

### Event 65535.18

#### Metadata

| Field        | Value    |
|--------------|----------|
| Entrypoint   | 0x01A4   |
| Data Size    | 16 bytes |
| Instructions | 2        |

```
      00 01 02 03 04 05 06 07  08 09 0A 0B 0C 0D 0E 0F
      -- -- -- -- -- -- -- --  -- -- -- -- -- -- -- --
01A0:             5B 07 80 F8  FF FF 7F F8 FF FF 7F 62      [..........b
01B0: 69 6B 30 00                                       ik0.            
```

#### Opcodes

```
  0: 0x01A4 [0x5B] LOAD_EXT_SCHEDULER: Load scheduler "bik0" with entities [EventEntity, EventEntity], work=420*
  1: 0x01B3 [0x00] END_REQSTACK()
```

### Event 65535.19

#### Metadata

| Field        | Value    |
|--------------|----------|
| Entrypoint   | 0x01B4   |
| Data Size    | 16 bytes |
| Instructions | 2        |

```
      00 01 02 03 04 05 06 07  08 09 0A 0B 0C 0D 0E 0F
      -- -- -- -- -- -- -- --  -- -- -- -- -- -- -- --
01B0:             5B 07 80 F8  FF FF 7F F8 FF FF 7F 74      [..........t
01C0: 6C 61 30 00                                       la0.            
```

#### Opcodes

```
  0: 0x01B4 [0x5B] LOAD_EXT_SCHEDULER: Load scheduler "tla0" with entities [EventEntity, EventEntity], work=420*
  1: 0x01C3 [0x00] END_REQSTACK()
```

### Event 65535.20

#### Metadata

| Field        | Value    |
|--------------|----------|
| Entrypoint   | 0x01C4   |
| Data Size    | 29 bytes |
| Instructions | 3        |

```
      00 01 02 03 04 05 06 07  08 09 0A 0B 0C 0D 0E 0F
      -- -- -- -- -- -- -- --  -- -- -- -- -- -- -- --
01C0:             5B 07 80 F8  FF FF 7F F8 FF FF 7F 74      [..........t
01D0: 6C 61 31 53 F8 FF FF 7F  F8 FF FF 7F 74 6C 61 31  la1S........tla1
01E0: 00                                                .               
```

#### Opcodes

```
  0: 0x01C4 [0x5B] LOAD_EXT_SCHEDULER: Load scheduler "tla1" with entities [EventEntity, EventEntity], work=420*
  1: 0x01D3 [0x53] WAIT_SCHEDULER_TASK: Wait for scheduler "tla1" with entities [EventEntity, EventEntity]
  2: 0x01E0 [0x00] END_REQSTACK()
```

### Event 65535.21

#### Metadata

| Field        | Value    |
|--------------|----------|
| Entrypoint   | 0x01E1   |
| Data Size    | 16 bytes |
| Instructions | 2        |

```
      00 01 02 03 04 05 06 07  08 09 0A 0B 0C 0D 0E 0F
      -- -- -- -- -- -- -- --  -- -- -- -- -- -- -- --
01E0:    5B 07 80 F8 FF FF 7F  F8 FF FF 7F 74 6C 62 30   [..........tlb0
01F0: 00                                                .               
```

#### Opcodes

```
  0: 0x01E1 [0x5B] LOAD_EXT_SCHEDULER: Load scheduler "tlb0" with entities [EventEntity, EventEntity], work=420*
  1: 0x01F0 [0x00] END_REQSTACK()
```

### Event 65535.22

#### Metadata

| Field        | Value    |
|--------------|----------|
| Entrypoint   | 0x01F1   |
| Data Size    | 29 bytes |
| Instructions | 3        |

```
      00 01 02 03 04 05 06 07  08 09 0A 0B 0C 0D 0E 0F
      -- -- -- -- -- -- -- --  -- -- -- -- -- -- -- --
01F0:    5B 07 80 F8 FF FF 7F  F8 FF FF 7F 74 6C 62 31   [..........tlb1
0200: 53 F8 FF FF 7F F8 FF FF  7F 74 6C 62 31 00        S........tlb1.  
```

#### Opcodes

```
  0: 0x01F1 [0x5B] LOAD_EXT_SCHEDULER: Load scheduler "tlb1" with entities [EventEntity, EventEntity], work=420*
  1: 0x0200 [0x53] WAIT_SCHEDULER_TASK: Wait for scheduler "tlb1" with entities [EventEntity, EventEntity]
  2: 0x020D [0x00] END_REQSTACK()
```

### Event 65535.23

#### Metadata

| Field        | Value    |
|--------------|----------|
| Entrypoint   | 0x020E   |
| Data Size    | 16 bytes |
| Instructions | 2        |

```
      00 01 02 03 04 05 06 07  08 09 0A 0B 0C 0D 0E 0F
      -- -- -- -- -- -- -- --  -- -- -- -- -- -- -- --
0200:                                            5B 2E                [.
0210: 80 F8 FF FF 7F F8 FF FF  7F 68 74 61 30 00        .........hta0.  
```

#### Opcodes

```
  0: 0x020E [0x5B] LOAD_EXT_SCHEDULER: Load scheduler "hta0" with entities [EventEntity, EventEntity], work=423*
  1: 0x021D [0x00] END_REQSTACK()
```

### Event 65535.24

#### Metadata

| Field        | Value    |
|--------------|----------|
| Entrypoint   | 0x021E   |
| Data Size    | 29 bytes |
| Instructions | 3        |

```
      00 01 02 03 04 05 06 07  08 09 0A 0B 0C 0D 0E 0F
      -- -- -- -- -- -- -- --  -- -- -- -- -- -- -- --
0210:                                            5B 2E                [.
0220: 80 F8 FF FF 7F F8 FF FF  7F 68 74 61 31 53 F8 FF  .........hta1S..
0230: FF 7F F8 FF FF 7F 68 74  61 31 00                 ......hta1.     
```

#### Opcodes

```
  0: 0x021E [0x5B] LOAD_EXT_SCHEDULER: Load scheduler "hta1" with entities [EventEntity, EventEntity], work=423*
  1: 0x022D [0x53] WAIT_SCHEDULER_TASK: Wait for scheduler "hta1" with entities [EventEntity, EventEntity]
  2: 0x023A [0x00] END_REQSTACK()
```

### Event 65535.25

#### Metadata

| Field        | Value    |
|--------------|----------|
| Entrypoint   | 0x023B   |
| Data Size    | 16 bytes |
| Instructions | 2        |

```
      00 01 02 03 04 05 06 07  08 09 0A 0B 0C 0D 0E 0F
      -- -- -- -- -- -- -- --  -- -- -- -- -- -- -- --
0230:                                   5B 2F 80 F8 FF             [/...
0240: FF 7F F8 FF FF 7F 63 34  30 30 00                 ......c400.     
```

#### Opcodes

```
  0: 0x023B [0x5B] LOAD_EXT_SCHEDULER: Load scheduler "c400" with entities [EventEntity, EventEntity], work=424*
  1: 0x024A [0x00] END_REQSTACK()
```

### Event 65535.26

#### Metadata

| Field        | Value    |
|--------------|----------|
| Entrypoint   | 0x024B   |
| Data Size    | 16 bytes |
| Instructions | 2        |

```
      00 01 02 03 04 05 06 07  08 09 0A 0B 0C 0D 0E 0F
      -- -- -- -- -- -- -- --  -- -- -- -- -- -- -- --
0240:                                   5B 25 80 F8 FF             [%...
0250: FF 7F F8 FF FF 7F 6D 74  65 30 00                 ......mte0.     
```

#### Opcodes

```
  0: 0x024B [0x5B] LOAD_EXT_SCHEDULER: Load scheduler "mte0" with entities [EventEntity, EventEntity], work=633*
  1: 0x025A [0x00] END_REQSTACK()
```

### Event 65535.27

#### Metadata

| Field        | Value    |
|--------------|----------|
| Entrypoint   | 0x025B   |
| Data Size    | 16 bytes |
| Instructions | 2        |

```
      00 01 02 03 04 05 06 07  08 09 0A 0B 0C 0D 0E 0F
      -- -- -- -- -- -- -- --  -- -- -- -- -- -- -- --
0250:                                   5B 25 80 F8 FF             [%...
0260: FF 7F F8 FF FF 7F 6D 74  65 31 00                 ......mte1.     
```

#### Opcodes

```
  0: 0x025B [0x5B] LOAD_EXT_SCHEDULER: Load scheduler "mte1" with entities [EventEntity, EventEntity], work=633*
  1: 0x026A [0x00] END_REQSTACK()
```

### Event 65535.28

#### Metadata

| Field        | Value    |
|--------------|----------|
| Entrypoint   | 0x026B   |
| Data Size    | 62 bytes |
| Instructions | 7        |

```
      00 01 02 03 04 05 06 07  08 09 0A 0B 0C 0D 0E 0F
      -- -- -- -- -- -- -- --  -- -- -- -- -- -- -- --
0260:                                   81 00 F8 FF FF             .....
0270: 7F 5B 30 80 F8 FF FF 7F  F8 FF FF 7F 69 6E 6F 30  .[0.........ino0
0280: 1C 31 80 45 32 80 95 00  02 01 95 00 02 01 73 65  .1.E2.........se
0290: 30 31 15 80 1C 33 80 45  32 80 95 00 02 01 95 00  01...3.E2.......
02A0: 02 01 73 65 30 32 15 80  00                       ..se02...       
```

#### Opcodes

```
  0: 0x026B [0x81] SET_ENTITY_BLINKING(blink_flag=0x00, entity=EventEntity)
  1: 0x0271 [0x5B] LOAD_EXT_SCHEDULER: Load scheduler "ino0" with entities [EventEntity, EventEntity], work=635*
  2: 0x0280 [0x1C] WAIT(5* ticks)
  3: 0x0283 [0x45] LOAD_SCHEDULED_TASK: Load scheduler "se01" with entities [Shikaree Z (ID: 16908437/0x01020095), Shikaree Z (ID: 16908437/0x01020095)], work=[166*, 0*]
  4: 0x0294 [0x1C] WAIT(60* ticks)
  5: 0x0297 [0x45] LOAD_SCHEDULED_TASK: Load scheduler "se02" with entities [Shikaree Z (ID: 16908437/0x01020095), Shikaree Z (ID: 16908437/0x01020095)], work=[166*, 0*]
  6: 0x02A8 [0x00] END_REQSTACK()
```

### Event 65535.29

#### Metadata

| Field        | Value    |
|--------------|----------|
| Entrypoint   | 0x02A9   |
| Data Size    | 22 bytes |
| Instructions | 3        |

```
      00 01 02 03 04 05 06 07  08 09 0A 0B 0C 0D 0E 0F
      -- -- -- -- -- -- -- --  -- -- -- -- -- -- -- --
02A0:                             5B 30 80 F8 FF FF 7F           [0.....
02B0: F8 FF FF 7F 69 6E 6F 31  81 01 F8 FF FF 7F 00     ....ino1....... 
```

#### Opcodes

```
  0: 0x02A9 [0x5B] LOAD_EXT_SCHEDULER: Load scheduler "ino1" with entities [EventEntity, EventEntity], work=635*
  1: 0x02B8 [0x81] SET_ENTITY_BLINKING(blink_flag=0x01, entity=EventEntity)
  2: 0x02BE [0x00] END_REQSTACK()
```

### Event 65535.30

#### Metadata

| Field        | Value    |
|--------------|----------|
| Entrypoint   | 0x02BF   |
| Data Size    | 21 bytes |
| Instructions | 5        |

```
      00 01 02 03 04 05 06 07  08 09 0A 0B 0C 0D 0E 0F
      -- -- -- -- -- -- -- --  -- -- -- -- -- -- -- --
02B0:                                               39                 9
02C0: 34 80 6F 70 5B 35 80 F8  FF FF 7F F8 FF FF 7F 6B  4.op[5.........k
02D0: 61 69 30 00                                       ai0.            
```

#### Opcodes

```
  0: 0x02BF [0x39] SET_ENTITY_DIRECTION(direction=1.1°*)
  1: 0x02C2 [0x6F] WAIT_FRAME_DELAY: Yield until WaitTime reaches zero
  2: 0x02C3 [0x70] WAIT_ENTITY_RENDER_FLAG: Wait while EventEntity->Render.Flags3 bit 2 is set (cancel turn if not)
  3: 0x02C4 [0x5B] LOAD_EXT_SCHEDULER: Load scheduler "kai0" with entities [EventEntity, EventEntity], work=422*
  4: 0x02D3 [0x00] END_REQSTACK()
```

### Event 65535.31

#### Metadata

| Field        | Value    |
|--------------|----------|
| Entrypoint   | 0x02D4   |
| Data Size    | 16 bytes |
| Instructions | 2        |

```
      00 01 02 03 04 05 06 07  08 09 0A 0B 0C 0D 0E 0F
      -- -- -- -- -- -- -- --  -- -- -- -- -- -- -- --
02D0:             5B 35 80 F8  FF FF 7F F8 FF FF 7F 6B      [5.........k
02E0: 61 69 30 00                                       ai0.            
```

#### Opcodes

```
  0: 0x02D4 [0x5B] LOAD_EXT_SCHEDULER: Load scheduler "kai0" with entities [EventEntity, EventEntity], work=422*
  1: 0x02E3 [0x00] END_REQSTACK()
```

### Event 65535.32

#### Metadata

| Field        | Value    |
|--------------|----------|
| Entrypoint   | 0x02E4   |
| Data Size    | 84 bytes |
| Instructions | 2        |

```
      00 01 02 03 04 05 06 07  08 09 0A 0B 0C 0D 0E 0F
      -- -- -- -- -- -- -- --  -- -- -- -- -- -- -- --
02E0:             5B 35 80 F8  FF FF 7F F8 FF FF 7F 6B      [5.........k
02F0: 61 69 32 00 3B F8 FF FF  7F 07 00 08 00 09 00 3A  ai2.;..........:
0300: F8 FF FF 7F 0A 00 17 0B  00 0A 00 06 00 16 0C 00  ................
0310: 0A 00 06 00 07 07 00 0B  00 07 08 00 0C 00 1B 17  ................
0320: 0B 00 0A 00 06 00 16 0C  00 0A 00 06 00 07 07 00  ................
0330: 0B 00 07 08 00 0C 00 1B                           ........        
```

#### Opcodes

```
  0: 0x02E4 [0x5B] LOAD_EXT_SCHEDULER: Load scheduler "kai2" with entities [EventEntity, EventEntity], work=422*
  1: 0x02F3 [0x00] END_REQSTACK()
```

#### Data or dead code:

```
# Dead code (unreachable instructions):
     0x02F4 [0x3B] GET_ENTITY_POSITION(entity=EventEntity, x_destination=ExtData[1]->WorkLocal[7], y_destination=ExtData[1]->WorkLocal[8], z_destination=ExtData[1]->WorkLocal[9])
     0x02FF [0x3A] CONVERT_YAW_TO_BYTE(entity=EventEntity, result_destination=ExtData[1]->WorkLocal[10])
     0x0306 [0x17] ExtData[1]->WorkLocal[11] = cos(ExtData[1]->WorkLocal[10]) * ExtData[1]->WorkLocal[6]
     0x030D [0x16] ExtData[1]->WorkLocal[12] = sin(ExtData[1]->WorkLocal[10]) * ExtData[1]->WorkLocal[6]
     0x0314 [0x07] ExtData[1]->WorkLocal[7] += ExtData[1]->WorkLocal[11]
     0x0319 [0x07] ExtData[1]->WorkLocal[8] += ExtData[1]->WorkLocal[12]
     0x031E [0x1B] RETURN
     0x031F [0x17] ExtData[1]->WorkLocal[11] = cos(ExtData[1]->WorkLocal[10]) * ExtData[1]->WorkLocal[6]
     0x0326 [0x16] ExtData[1]->WorkLocal[12] = sin(ExtData[1]->WorkLocal[10]) * ExtData[1]->WorkLocal[6]
     0x032D [0x07] ExtData[1]->WorkLocal[7] += ExtData[1]->WorkLocal[11]
     0x0332 [0x07] ExtData[1]->WorkLocal[8] += ExtData[1]->WorkLocal[12]
     0x0337 [0x1B] RETURN
```

### Event 13

#### Metadata

| Field        | Value    |
|--------------|----------|
| Entrypoint   | 0x0338   |
| Data Size    | 10 bytes |
| Instructions | 2        |

```
      00 01 02 03 04 05 06 07  08 09 0A 0B 0C 0D 0E 0F
      -- -- -- -- -- -- -- --  -- -- -- -- -- -- -- --
0330:                          37 36 80 37 80 38 80 39          76.7.8.9
0340: 80 00                                             ..              
```

#### Opcodes

```
  0: 0x0338 [0x37] UPDATE_EVENT_POSITION_AND_DIR: x=610.457*, z=789.165*, y=132.619*, direction=67.2°*
  1: 0x0341 [0x00] END_REQSTACK()
```

### Event 65535.33

#### Metadata

| Field        | Value    |
|--------------|----------|
| Entrypoint   | 0x0342   |
| Data Size    | 25 bytes |
| Instructions | 7        |

```
      00 01 02 03 04 05 06 07  08 09 0A 0B 0C 0D 0E 0F
      -- -- -- -- -- -- -- --  -- -- -- -- -- -- -- --
0340:       32 04 80 1F 00 3A  80 3B 80 3C 80 1F 01 1F    2....:.;.<....
0350: 00 3D 80 3E 80 3F 80 1F  01 6F 00                 .=.>.?...o.     
```

#### Opcodes

```
  0: 0x0342 [0x32] ExtData[1]->MainSpeed = 40* * 0.1
  1: 0x0345 [0x1F] MOVE_ENTITY: EventEntity moves to X=612.951*, Z=783.113*, Y=132.376*
  2: 0x034D [0x1F] MOVE_ENTITY: Update entity position (mode=1)
  3: 0x034F [0x1F] MOVE_ENTITY: EventEntity moves to X=612.383*, Z=779.866*, Y=132.607*
  4: 0x0357 [0x1F] MOVE_ENTITY: Update entity position (mode=1)
  5: 0x0359 [0x6F] WAIT_FRAME_DELAY: Yield until WaitTime reaches zero
  6: 0x035A [0x00] END_REQSTACK()
```

### Event 65535.34

#### Metadata

| Field        | Value    |
|--------------|----------|
| Entrypoint   | 0x035B   |
| Data Size    | 44 bytes |
| Instructions | 10       |

```
      00 01 02 03 04 05 06 07  08 09 0A 0B 0C 0D 0E 0F
      -- -- -- -- -- -- -- --  -- -- -- -- -- -- -- --
0350:                                   32 09 80 37 40             2..7@
0360: 80 41 80 42 80 43 80 1C  17 80 1E F0 FF FF 7F 1C  .A.B.C..........
0370: 44 80 1F 00 45 80 46 80  47 80 1F 01 1F 00 48 80  D...E.F.G.....H.
0380: 49 80 4A 80 1F 01 00                              I.J....         
```

#### Opcodes

```
  0: 0x035B [0x32] ExtData[1]->MainSpeed = 13* * 0.1
  1: 0x035E [0x37] UPDATE_EVENT_POSITION_AND_DIR: x=604.277*, z=753.862*, y=134.004*, direction=269.6°*
  2: 0x0367 [0x1C] WAIT(1* ticks)
  3: 0x036A [0x1E] EventEntity looks at LocalPlayer and starts talking
  4: 0x036F [0x1C] WAIT(180* ticks)
  5: 0x0372 [0x1F] MOVE_ENTITY: EventEntity moves to X=606.116*, Z=744.164*, Y=134.642*
  6: 0x037A [0x1F] MOVE_ENTITY: Update entity position (mode=1)
  7: 0x037C [0x1F] MOVE_ENTITY: EventEntity moves to X=610.125*, Z=740.872*, Y=134.942*
  8: 0x0384 [0x1F] MOVE_ENTITY: Update entity position (mode=1)
  9: 0x0386 [0x00] END_REQSTACK()
```

### Event 15

#### Metadata

| Field        | Value    |
|--------------|----------|
| Entrypoint   | 0x0387   |
| Data Size    | 10 bytes |
| Instructions | 2        |

```
      00 01 02 03 04 05 06 07  08 09 0A 0B 0C 0D 0E 0F
      -- -- -- -- -- -- -- --  -- -- -- -- -- -- -- --
0380:                      37  4B 80 4C 80 4D 80 4E 80         7K.L.M.N.
0390: 00                                                .               
```

#### Opcodes

```
  0: 0x0387 [0x37] UPDATE_EVENT_POSITION_AND_DIR: x=611.527*, z=768.319*, y=132.723*, direction=258.8°*
  1: 0x0390 [0x00] END_REQSTACK()
```

### Event 65535.35

#### Metadata

| Field        | Value    |
|--------------|----------|
| Entrypoint   | 0x0391   |
| Data Size    | 14 bytes |
| Instructions | 4        |

```
      00 01 02 03 04 05 06 07  08 09 0A 0B 0C 0D 0E 0F
      -- -- -- -- -- -- -- --  -- -- -- -- -- -- -- --
0390:    32 09 80 1F 00 4F 80  50 80 51 80 1F 01 00      2....O.P.Q.... 
```

#### Opcodes

```
  0: 0x0391 [0x32] ExtData[1]->MainSpeed = 13* * 0.1
  1: 0x0394 [0x1F] MOVE_ENTITY: EventEntity moves to X=611.275*, Z=773.337*, Y=132.791*
  2: 0x039C [0x1F] MOVE_ENTITY: Update entity position (mode=1)
  3: 0x039E [0x00] END_REQSTACK()
```

### Event 65535.36

#### Metadata

| Field        | Value    |
|--------------|----------|
| Entrypoint   | 0x039F   |
| Data Size    | 24 bytes |
| Instructions | 6        |

```
      00 01 02 03 04 05 06 07  08 09 0A 0B 0C 0D 0E 0F
      -- -- -- -- -- -- -- --  -- -- -- -- -- -- -- --
0390:                                               32                 2
03A0: 09 80 1F 00 52 80 53 80  54 80 1F 01 1F 00 55 80  ....R.S.T.....U.
03B0: 56 80 57 80 1F 01 00                              V.W....         
```

#### Opcodes

```
  0: 0x039F [0x32] ExtData[1]->MainSpeed = 13* * 0.1
  1: 0x03A2 [0x1F] MOVE_ENTITY: EventEntity moves to X=612.205*, Z=768.288*, Y=132.677*
  2: 0x03AA [0x1F] MOVE_ENTITY: Update entity position (mode=1)
  3: 0x03AC [0x1F] MOVE_ENTITY: EventEntity moves to X=605.740*, Z=759.981*, Y=134.289*
  4: 0x03B4 [0x1F] MOVE_ENTITY: Update entity position (mode=1)
  5: 0x03B6 [0x00] END_REQSTACK()
```
