# 16908442

## Common Data

| Field            | Value                  |
|------------------|------------------------|
| Zone             | Sealion's Den (ID: 32) |
| Block Size       | 248 bytes              |
| Total Events     | 7                      |
| References Count | 20                     |

## List of Events

| Event ID                 | Entrypoint   |   Size |   Instructions |
|--------------------------|--------------|--------|----------------|
| [65535](#event-65535)    | 0x0000       |     13 |              3 |
| [33](#event-33)          | 0x000D       |     19 |              3 |
| [0](#event-0)            | 0x0020       |     10 |              2 |
| [65535.1](#event-655351) | 0x002A       |     18 |              6 |
| [65535.2](#event-655352) | 0x003C       |     18 |              6 |
| [65535.3](#event-655353) | 0x004E       |     28 |              6 |
| [65535.4](#event-655354) | 0x006A       |     16 |              2 |

## DAT References (imed_data)

|   Index | Hex Value   |   Dec Value |
|---------|-------------|-------------|
|       0 | 0xFFF63549  |  4294325577 |
|       1 | 0x7CC10     |      510992 |
|       2 | 0xFFFC784D  |  4294735949 |
|       3 | 0x0331      |         817 |
|       4 | 0x0000      |           0 |
|       5 | 0xFFF63BC0  |  4294327232 |
|       6 | 0x7CDD3     |      511443 |
|       7 | 0x0C01      |        3073 |
|       8 | 0x003C      |          60 |
|       9 | 0xFFF633A7  |  4294325159 |
|      10 | 0x0C23      |        3107 |
|      11 | 0xFFF628FE  |  4294322430 |
|      12 | 0xFFFC7914  |  4294736148 |
|      13 | 0xFFF62A33  |  4294322739 |
|      14 | 0x7E1AC     |      516524 |
|      15 | 0x0BF8      |        3064 |
|      16 | 0x0028      |          40 |
|      17 | 0xFFF627C1  |  4294322113 |
|      18 | 0x81D5E     |      531806 |
|      19 | 0x01E5      |         485 |

## Events

### Event 65535

#### Metadata

| Field        | Value    |
|--------------|----------|
| Entrypoint   | 0x0000   |
| Data Size    | 13 bytes |
| Instructions | 3        |

```
      00 01 02 03 04 05 06 07  08 09 0A 0B 0C 0D 0E 0F
      -- -- -- -- -- -- -- --  -- -- -- -- -- -- -- --
0000: 92 01 F8 FF FF 7F 94 01  F8 FF FF 7F 00           .............   
```

#### Opcodes

```
  0: 0x0000 [0x92] EventEntity->Render.Flags3 ^= 0x01
  1: 0x0006 [0x94] EventEntity->Render.Flags3 ^= 0x01
  2: 0x000C [0x00] END_REQSTACK()
```

### Event 33

#### Metadata

| Field        | Value    |
|--------------|----------|
| Entrypoint   | 0x000D   |
| Data Size    | 19 bytes |
| Instructions | 3        |

```
      00 01 02 03 04 05 06 07  08 09 0A 0B 0C 0D 0E 0F
      -- -- -- -- -- -- -- --  -- -- -- -- -- -- -- --
0000:                                         37 00 80               7..
0010: 01 80 02 80 03 80 6C F8  FF FF 7F 04 80 04 80 00  ......l.........
```

#### Opcodes

```
  0: 0x000D [0x37] UPDATE_EVENT_POSITION_AND_DIR: x=-641.719*, z=510.992*, y=-231.347*, direction=71.8°*
  1: 0x0016 [0x6C] FADE_ENTITY_COLOR(entity_id=EventEntity, end_alpha=0*, fade_time=0*)
  2: 0x001F [0x00] END_REQSTACK()
```

### Event 0

#### Metadata

| Field        | Value    |
|--------------|----------|
| Entrypoint   | 0x0020   |
| Data Size    | 10 bytes |
| Instructions | 2        |

```
      00 01 02 03 04 05 06 07  08 09 0A 0B 0C 0D 0E 0F
      -- -- -- -- -- -- -- --  -- -- -- -- -- -- -- --
0020: 37 05 80 06 80 02 80 07  80 00                    7.........      
```

#### Opcodes

```
  0: 0x0020 [0x37] UPDATE_EVENT_POSITION_AND_DIR: x=-640.064*, z=511.443*, y=-231.347*, direction=270.1°*
  1: 0x0029 [0x00] END_REQSTACK()
```

### Event 65535.1

#### Metadata

| Field        | Value    |
|--------------|----------|
| Entrypoint   | 0x002A   |
| Data Size    | 18 bytes |
| Instructions | 6        |

```
      00 01 02 03 04 05 06 07  08 09 0A 0B 0C 0D 0E 0F
      -- -- -- -- -- -- -- --  -- -- -- -- -- -- -- --
0020:                                32 08 80 1F 00 09            2.....
0030: 80 06 80 02 80 1F 01 6F  39 0A 80 00              .......o9...    
```

#### Opcodes

```
  0: 0x002A [0x32] ExtData[1]->MainSpeed = 60* * 0.1
  1: 0x002D [0x1F] MOVE_ENTITY: EventEntity moves to X=-642.137*, Z=511.443*, Y=-231.347*
  2: 0x0035 [0x1F] MOVE_ENTITY: Update entity position (mode=1)
  3: 0x0037 [0x6F] WAIT_FRAME_DELAY: Yield until WaitTime reaches zero
  4: 0x0038 [0x39] SET_ENTITY_DIRECTION(direction=17.1°*)
  5: 0x003B [0x00] END_REQSTACK()
```

### Event 65535.2

#### Metadata

| Field        | Value    |
|--------------|----------|
| Entrypoint   | 0x003C   |
| Data Size    | 18 bytes |
| Instructions | 6        |

```
      00 01 02 03 04 05 06 07  08 09 0A 0B 0C 0D 0E 0F
      -- -- -- -- -- -- -- --  -- -- -- -- -- -- -- --
0030:                                      32 08 80 1F              2...
0040: 00 0B 80 06 80 0C 80 1F  01 6F 39 0A 80 00        .........o9...  
```

#### Opcodes

```
  0: 0x003C [0x32] ExtData[1]->MainSpeed = 60* * 0.1
  1: 0x003F [0x1F] MOVE_ENTITY: EventEntity moves to X=-644.866*, Z=511.443*, Y=-231.148*
  2: 0x0047 [0x1F] MOVE_ENTITY: Update entity position (mode=1)
  3: 0x0049 [0x6F] WAIT_FRAME_DELAY: Yield until WaitTime reaches zero
  4: 0x004A [0x39] SET_ENTITY_DIRECTION(direction=17.1°*)
  5: 0x004D [0x00] END_REQSTACK()
```

### Event 65535.3

#### Metadata

| Field        | Value    |
|--------------|----------|
| Entrypoint   | 0x004E   |
| Data Size    | 28 bytes |
| Instructions | 6        |

```
      00 01 02 03 04 05 06 07  08 09 0A 0B 0C 0D 0E 0F
      -- -- -- -- -- -- -- --  -- -- -- -- -- -- -- --
0040:                                            37 0D                7.
0050: 80 0E 80 0C 80 0F 80 32  10 80 1F 00 11 80 12 80  .......2........
0060: 0C 80 1F 01 1E A0 00 02  01 00                    ..........      
```

#### Opcodes

```
  0: 0x004E [0x37] UPDATE_EVENT_POSITION_AND_DIR: x=-644.557*, z=516.524*, y=-231.148*, direction=269.3°*
  1: 0x0057 [0x32] ExtData[1]->MainSpeed = 40* * 0.1
  2: 0x005A [0x1F] MOVE_ENTITY: EventEntity moves to X=-645.183*, Z=531.806*, Y=-231.148*
  3: 0x0062 [0x1F] MOVE_ENTITY: Update entity position (mode=1)
  4: 0x0064 [0x1E] EventEntity looks at Nag'molada (ID: 16908448/0x010200A0) and starts talking
  5: 0x0069 [0x00] END_REQSTACK()
```

### Event 65535.4

#### Metadata

| Field        | Value    |
|--------------|----------|
| Entrypoint   | 0x006A   |
| Data Size    | 16 bytes |
| Instructions | 2        |

```
      00 01 02 03 04 05 06 07  08 09 0A 0B 0C 0D 0E 0F
      -- -- -- -- -- -- -- --  -- -- -- -- -- -- -- --
0060:                                5B 13 80 F8 FF FF            [.....
0070: 7F F8 FF FF 7F 61 74 61  30 00                    .....ata0.      
```

#### Opcodes

```
  0: 0x006A [0x5B] LOAD_EXT_SCHEDULER: Load scheduler "ata0" with entities [EventEntity, EventEntity], work=485*
  1: 0x0079 [0x00] END_REQSTACK()
```
