# 16908444

## Common Data

| Field            | Value                  |
|------------------|------------------------|
| Zone             | Sealion's Den (ID: 32) |
| Block Size       | 156 bytes              |
| Total Events     | 5                      |
| References Count | 11                     |

## List of Events

| Event ID                 | Entrypoint   |   Size |   Instructions |
|--------------------------|--------------|--------|----------------|
| [65535](#event-65535)    | 0x0000       |     13 |              3 |
| [0](#event-0)            | 0x000D       |     10 |              2 |
| [65535.1](#event-655351) | 0x0017       |     18 |              6 |
| [65535.2](#event-655352) | 0x0029       |     18 |              6 |
| [65535.3](#event-655353) | 0x003B       |     16 |              2 |

## DAT References (imed_data)

|   Index | Hex Value   |   Dec Value |
|---------|-------------|-------------|
|       0 | 0xFFF63BC0  |  4294327232 |
|       1 | 0x7CDD3     |      511443 |
|       2 | 0xFFFC784D  |  4294735949 |
|       3 | 0x0C01      |        3073 |
|       4 | 0x003C      |          60 |
|       5 | 0xFFF644B9  |  4294329529 |
|       6 | 0x7CE4D     |      511565 |
|       7 | 0x0C23      |        3107 |
|       8 | 0xFFF64C50  |  4294331472 |
|       9 | 0xFFFC7914  |  4294736148 |
|      10 | 0x01E5      |         485 |

## Events

### Event 65535

#### Metadata

| Field        | Value    |
|--------------|----------|
| Entrypoint   | 0x0000   |
| Data Size    | 13 bytes |
| Instructions | 3        |

```
      00 01 02 03 04 05 06 07  08 09 0A 0B 0C 0D 0E 0F
      -- -- -- -- -- -- -- --  -- -- -- -- -- -- -- --
0000: 92 01 F8 FF FF 7F 94 01  F8 FF FF 7F 00           .............   
```

#### Opcodes

```
  0: 0x0000 [0x92] EventEntity->Render.Flags3 ^= 0x01
  1: 0x0006 [0x94] EventEntity->Render.Flags3 ^= 0x01
  2: 0x000C [0x00] END_REQSTACK()
```

### Event 0

#### Metadata

| Field        | Value    |
|--------------|----------|
| Entrypoint   | 0x000D   |
| Data Size    | 10 bytes |
| Instructions | 2        |

```
      00 01 02 03 04 05 06 07  08 09 0A 0B 0C 0D 0E 0F
      -- -- -- -- -- -- -- --  -- -- -- -- -- -- -- --
0000:                                         37 00 80               7..
0010: 01 80 02 80 03 80 00                              .......         
```

#### Opcodes

```
  0: 0x000D [0x37] UPDATE_EVENT_POSITION_AND_DIR: x=-640.064*, z=511.443*, y=-231.347*, direction=270.1°*
  1: 0x0016 [0x00] END_REQSTACK()
```

### Event 65535.1

#### Metadata

| Field        | Value    |
|--------------|----------|
| Entrypoint   | 0x0017   |
| Data Size    | 18 bytes |
| Instructions | 6        |

```
      00 01 02 03 04 05 06 07  08 09 0A 0B 0C 0D 0E 0F
      -- -- -- -- -- -- -- --  -- -- -- -- -- -- -- --
0010:                      32  04 80 1F 00 05 80 06 80         2........
0020: 02 80 1F 01 6F 39 07 80  00                       ....o9...       
```

#### Opcodes

```
  0: 0x0017 [0x32] ExtData[1]->MainSpeed = 60* * 0.1
  1: 0x001A [0x1F] MOVE_ENTITY: EventEntity moves to X=-637.767*, Z=511.565*, Y=-231.347*
  2: 0x0022 [0x1F] MOVE_ENTITY: Update entity position (mode=1)
  3: 0x0024 [0x6F] WAIT_FRAME_DELAY: Yield until WaitTime reaches zero
  4: 0x0025 [0x39] SET_ENTITY_DIRECTION(direction=17.1°*)
  5: 0x0028 [0x00] END_REQSTACK()
```

### Event 65535.2

#### Metadata

| Field        | Value    |
|--------------|----------|
| Entrypoint   | 0x0029   |
| Data Size    | 18 bytes |
| Instructions | 6        |

```
      00 01 02 03 04 05 06 07  08 09 0A 0B 0C 0D 0E 0F
      -- -- -- -- -- -- -- --  -- -- -- -- -- -- -- --
0020:                             32 04 80 1F 00 08 80           2......
0030: 06 80 09 80 1F 01 6F 39  07 80 00                 ......o9...     
```

#### Opcodes

```
  0: 0x0029 [0x32] ExtData[1]->MainSpeed = 60* * 0.1
  1: 0x002C [0x1F] MOVE_ENTITY: EventEntity moves to X=-635.824*, Z=511.565*, Y=-231.148*
  2: 0x0034 [0x1F] MOVE_ENTITY: Update entity position (mode=1)
  3: 0x0036 [0x6F] WAIT_FRAME_DELAY: Yield until WaitTime reaches zero
  4: 0x0037 [0x39] SET_ENTITY_DIRECTION(direction=17.1°*)
  5: 0x003A [0x00] END_REQSTACK()
```

### Event 65535.3

#### Metadata

| Field        | Value    |
|--------------|----------|
| Entrypoint   | 0x003B   |
| Data Size    | 16 bytes |
| Instructions | 2        |

```
      00 01 02 03 04 05 06 07  08 09 0A 0B 0C 0D 0E 0F
      -- -- -- -- -- -- -- --  -- -- -- -- -- -- -- --
0030:                                   5B 0A 80 F8 FF             [....
0040: FF 7F F8 FF FF 7F 61 74  62 30 00                 ......atb0.     
```

#### Opcodes

```
  0: 0x003B [0x5B] LOAD_EXT_SCHEDULER: Load scheduler "atb0" with entities [EventEntity, EventEntity], work=485*
  1: 0x004A [0x00] END_REQSTACK()
```
