# 16908434 - Kukki-Chebukki

## Common Data

| Field            | Value                  |
|------------------|------------------------|
| Zone             | Sealion's Den (ID: 32) |
| Block Size       | 1080 bytes             |
| Total Events     | 36                     |
| References Count | 51                     |

## List of Events

| Event ID                   | Entrypoint   |   Size |   Instructions |
|----------------------------|--------------|--------|----------------|
| [65535](#event-65535)      | 0x0000       |     13 |              3 |
| [31](#event-31)            | 0x000D       |      7 |              2 |
| [32](#event-32)            | 0x0014       |      7 |              2 |
| [65535.1](#event-655351)   | 0x001B       |     10 |              2 |
| [65535.2](#event-655352)   | 0x0025       |     10 |              2 |
| [65535.3](#event-655353)   | 0x002F       |     18 |              6 |
| [65535.4](#event-655354)   | 0x0041       |     10 |              2 |
| [0](#event-0)              | 0x004B       |     10 |              2 |
| [65535.5](#event-655355)   | 0x0055       |     28 |              7 |
| [65535.6](#event-655356)   | 0x0071       |      4 |              2 |
| [1](#event-1)              | 0x0075       |      1 |              1 |
| [2](#event-2)              | 0x0076       |      1 |              1 |
| [33](#event-33)            | 0x0077       |      7 |              2 |
| [34](#event-34)            | 0x007E       |      7 |              2 |
| [65535.7](#event-655357)   | 0x0085       |     10 |              2 |
| [65535.8](#event-655358)   | 0x008F       |     90 |             18 |
| [65535.9](#event-655359)   | 0x00E9       |     20 |              4 |
| [65535.10](#event-6553510) | 0x00FD       |     16 |              5 |
| [65535.11](#event-6553511) | 0x010D       |     25 |              3 |
| [65535.12](#event-6553512) | 0x0126       |     16 |              2 |
| [65535.13](#event-6553513) | 0x0136       |     16 |              2 |
| [65535.14](#event-6553514) | 0x0146       |     16 |              2 |
| [65535.15](#event-6553515) | 0x0156       |     16 |              2 |
| [65535.16](#event-6553516) | 0x0166       |     16 |              2 |
| [65535.17](#event-6553517) | 0x0176       |     16 |              2 |
| [65535.18](#event-6553518) | 0x0186       |     53 |              5 |
| [65535.19](#event-6553519) | 0x01BB       |     16 |              2 |
| [65535.20](#event-6553520) | 0x01CB       |     16 |              2 |
| [65535.21](#event-6553521) | 0x01DB       |     16 |              2 |
| [65535.22](#event-6553522) | 0x01EB       |     16 |              2 |
| [65535.23](#event-6553523) | 0x01FB       |     16 |              2 |
| [65535.24](#event-6553524) | 0x020B       |     16 |              2 |
| [65535.25](#event-6553525) | 0x021B       |     16 |              2 |
| [65535.26](#event-6553526) | 0x022B       |     16 |              2 |
| [65535.27](#event-6553527) | 0x023B       |    140 |             28 |
| [65535.28](#event-6553528) | 0x02C7       |      4 |              2 |

## DAT References (imed_data)

|   Index | Hex Value   |   Dec Value |
|---------|-------------|-------------|
|       0 | 0xFFF63C3E  |  4294327358 |
|       1 | 0xFFF62AD7  |  4294322903 |
|       2 | 0x30397     |      197527 |
|       3 | 0x0C0B      |        3083 |
|       4 | 0xFFF636C8  |  4294325960 |
|       5 | 0x7BF90     |      507792 |
|       6 | 0xFFFC6BCE  |  4294732750 |
|       7 | 0x0151      |         337 |
|       8 | 0x000D      |          13 |
|       9 | 0xFFF639C7  |  4294326727 |
|      10 | 0x7BF01     |      507649 |
|      11 | 0x0C00      |        3072 |
|      12 | 0x0954      |        2388 |
|      13 | 0xFFF62A45  |  4294322757 |
|      14 | 0x81210     |      528912 |
|      15 | 0xFFFC7914  |  4294736148 |
|      16 | 0x0AF0      |        2800 |
|      17 | 0x0000      |           0 |
|      18 | 0x0FFF      |        4095 |
|      19 | 0x0078      |         120 |
|      20 | 0xFFF61805  |  4294318085 |
|      21 | 0x7ED64     |      519524 |
|      22 | 0x0D22      |        3362 |
|      23 | 0x07D0      |        2000 |
|      24 | 0x0028      |          40 |
|      25 | 0xFFF40D55  |  4294184277 |
|      26 | 0xFFFEDE2A  |  4294893098 |
|      27 | 0xFFFE6C4D  |  4294863949 |
|      28 | 0x0D8B      |        3467 |
|      29 | 0xFFF417DE  |  4294186974 |
|      30 | 0xFFFEA52C  |  4294878508 |
|      31 | 0xFFF61158  |  4294316376 |
|      32 | 0x7DE2B     |      515627 |
|      33 | 0xFFFC7880  |  4294736000 |
|      34 | 0x0E23      |        3619 |
|      35 | 0x0150      |         336 |
|      36 | 0x01AF      |         431 |
|      37 | 0x01BA      |         442 |
|      38 | 0x01B9      |         441 |
|      39 | 0x00A6      |         166 |
|      40 | 0x002D      |          45 |
|      41 | 0x01BC      |         444 |
|      42 | 0x0152      |         338 |
|      43 | 0x0156      |         342 |
|      44 | 0x0023      |          35 |
|      45 | 0x0001      |           1 |
|      46 | 0x0024      |          36 |
|      47 | 0x0002      |           2 |
|      48 | 0x0025      |          37 |
|      49 | 0xFFFFFC00  |  4294966272 |
|      50 | 0x0400      |        1024 |

## Events

### Event 65535

#### Metadata

| Field        | Value    |
|--------------|----------|
| Entrypoint   | 0x0000   |
| Data Size    | 13 bytes |
| Instructions | 3        |

```
      00 01 02 03 04 05 06 07  08 09 0A 0B 0C 0D 0E 0F
      -- -- -- -- -- -- -- --  -- -- -- -- -- -- -- --
0000: 92 01 F8 FF FF 7F 94 01  F8 FF FF 7F 00           .............   
```

#### Opcodes

```
  0: 0x0000 [0x92] EventEntity->Render.Flags3 ^= 0x01
  1: 0x0006 [0x94] EventEntity->Render.Flags3 ^= 0x01
  2: 0x000C [0x00] END_REQSTACK()
```

### Event 31

#### Metadata

| Field        | Value   |
|--------------|---------|
| Entrypoint   | 0x000D  |
| Data Size    | 7 bytes |
| Instructions | 2       |

```
      00 01 02 03 04 05 06 07  08 09 0A 0B 0C 0D 0E 0F
      -- -- -- -- -- -- -- --  -- -- -- -- -- -- -- --
0000:                                         94 01 F8               ...
0010: FF FF 7F 00                                       ....            
```

#### Opcodes

```
  0: 0x000D [0x94] EventEntity->Render.Flags3 ^= 0x01
  1: 0x0013 [0x00] END_REQSTACK()
```

### Event 32

#### Metadata

| Field        | Value   |
|--------------|---------|
| Entrypoint   | 0x0014  |
| Data Size    | 7 bytes |
| Instructions | 2       |

```
      00 01 02 03 04 05 06 07  08 09 0A 0B 0C 0D 0E 0F
      -- -- -- -- -- -- -- --  -- -- -- -- -- -- -- --
0010:             94 01 F8 FF  FF 7F 00                     .......     
```

#### Opcodes

```
  0: 0x0014 [0x94] EventEntity->Render.Flags3 ^= 0x01
  1: 0x001A [0x00] END_REQSTACK()
```

### Event 65535.1

#### Metadata

| Field        | Value    |
|--------------|----------|
| Entrypoint   | 0x001B   |
| Data Size    | 10 bytes |
| Instructions | 2        |

```
      00 01 02 03 04 05 06 07  08 09 0A 0B 0C 0D 0E 0F
      -- -- -- -- -- -- -- --  -- -- -- -- -- -- -- --
0010:                                   37 00 80 01 80             7....
0020: 02 80 03 80 00                                    .....           
```

#### Opcodes

```
  0: 0x001B [0x37] UPDATE_EVENT_POSITION_AND_DIR: x=-639.938*, z=-644.393*, y=197.527*, direction=271.0°*
  1: 0x0024 [0x00] END_REQSTACK()
```

### Event 65535.2

#### Metadata

| Field        | Value    |
|--------------|----------|
| Entrypoint   | 0x0025   |
| Data Size    | 10 bytes |
| Instructions | 2        |

```
      00 01 02 03 04 05 06 07  08 09 0A 0B 0C 0D 0E 0F
      -- -- -- -- -- -- -- --  -- -- -- -- -- -- -- --
0020:                37 04 80  05 80 06 80 07 80 00          7......... 
```

#### Opcodes

```
  0: 0x0025 [0x37] UPDATE_EVENT_POSITION_AND_DIR: x=-641.336*, z=507.792*, y=-234.546*, direction=29.6°*
  1: 0x002E [0x00] END_REQSTACK()
```

### Event 65535.3

#### Metadata

| Field        | Value    |
|--------------|----------|
| Entrypoint   | 0x002F   |
| Data Size    | 18 bytes |
| Instructions | 6        |

```
      00 01 02 03 04 05 06 07  08 09 0A 0B 0C 0D 0E 0F
      -- -- -- -- -- -- -- --  -- -- -- -- -- -- -- --
0020:                                               32                 2
0030: 08 80 1F 00 09 80 0A 80  06 80 1F 01 6F 39 0B 80  ............o9..
0040: 00                                                .               
```

#### Opcodes

```
  0: 0x002F [0x32] ExtData[1]->MainSpeed = 13* * 0.1
  1: 0x0032 [0x1F] MOVE_ENTITY: EventEntity moves to X=-640.569*, Z=507.649*, Y=-234.546*
  2: 0x003A [0x1F] MOVE_ENTITY: Update entity position (mode=1)
  3: 0x003C [0x6F] WAIT_FRAME_DELAY: Yield until WaitTime reaches zero
  4: 0x003D [0x39] SET_ENTITY_DIRECTION(direction=16.9°*)
  5: 0x0040 [0x00] END_REQSTACK()
```

### Event 65535.4

#### Metadata

| Field        | Value    |
|--------------|----------|
| Entrypoint   | 0x0041   |
| Data Size    | 10 bytes |
| Instructions | 2        |

```
      00 01 02 03 04 05 06 07  08 09 0A 0B 0C 0D 0E 0F
      -- -- -- -- -- -- -- --  -- -- -- -- -- -- -- --
0040:    37 09 80 0A 80 06 80  0C 80 00                  7.........     
```

#### Opcodes

```
  0: 0x0041 [0x37] UPDATE_EVENT_POSITION_AND_DIR: x=-640.569*, z=507.649*, y=-234.546*, direction=209.9°*
  1: 0x004A [0x00] END_REQSTACK()
```

### Event 0

#### Metadata

| Field        | Value    |
|--------------|----------|
| Entrypoint   | 0x004B   |
| Data Size    | 10 bytes |
| Instructions | 2        |

```
      00 01 02 03 04 05 06 07  08 09 0A 0B 0C 0D 0E 0F
      -- -- -- -- -- -- -- --  -- -- -- -- -- -- -- --
0040:                                   37 0D 80 0E 80             7....
0050: 0F 80 10 80 00                                    .....           
```

#### Opcodes

```
  0: 0x004B [0x37] UPDATE_EVENT_POSITION_AND_DIR: x=-644.539*, z=528.912*, y=-231.148*, direction=246.1°*
  1: 0x0054 [0x00] END_REQSTACK()
```

### Event 65535.5

#### Metadata

| Field        | Value    |
|--------------|----------|
| Entrypoint   | 0x0055   |
| Data Size    | 28 bytes |
| Instructions | 7        |

```
      00 01 02 03 04 05 06 07  08 09 0A 0B 0C 0D 0E 0F
      -- -- -- -- -- -- -- --  -- -- -- -- -- -- -- --
0050:                02 00 00  11 80 00 6B 00 13 01 00       ......k....
0060: 12 80 39 01 00 1C 13 80  01 55 00 1E 98 00 02 01  ..9......U......
0070: 00                                                .               
```

#### Opcodes

```
  0: 0x0055 [0x02] IF !(ExtData[1]->WorkLocal[0] == 0*) GOTO 0x006B
  1: 0x005D [0x13] ExtData[1]->WorkLocal[1] = rand() % 4095*
  2: 0x0062 [0x39] SET_ENTITY_DIRECTION(direction=ExtData[1]->WorkLocal[1])
  3: 0x0065 [0x1C] WAIT(120* ticks)
  4: 0x0068 [0x01] GOTO 0x0055
  5: 0x006B [0x1E] EventEntity looks at Unnamed NPC (ID: 16908440/0x01020098) and starts talking
  6: 0x0070 [0x00] END_REQSTACK()
```

### Event 65535.6

#### Metadata

| Field        | Value   |
|--------------|---------|
| Entrypoint   | 0x0071  |
| Data Size    | 4 bytes |
| Instructions | 2       |

```
      00 01 02 03 04 05 06 07  08 09 0A 0B 0C 0D 0E 0F
      -- -- -- -- -- -- -- --  -- -- -- -- -- -- -- --
0070:    05 00 00 00                                     ....           
```

#### Opcodes

```
  0: 0x0071 [0x05] ExtData[1]->WorkLocal[0] = 1
  1: 0x0074 [0x00] END_REQSTACK()
```

### Event 1

#### Metadata

| Field        | Value   |
|--------------|---------|
| Entrypoint   | 0x0075  |
| Data Size    | 1 bytes |
| Instructions | 1       |

```
      00 01 02 03 04 05 06 07  08 09 0A 0B 0C 0D 0E 0F
      -- -- -- -- -- -- -- --  -- -- -- -- -- -- -- --
0070:                00                                      .          
```

#### Opcodes

```
  0: 0x0075 [0x00] END_REQSTACK()
```

### Event 2

#### Metadata

| Field        | Value   |
|--------------|---------|
| Entrypoint   | 0x0076  |
| Data Size    | 1 bytes |
| Instructions | 1       |

```
      00 01 02 03 04 05 06 07  08 09 0A 0B 0C 0D 0E 0F
      -- -- -- -- -- -- -- --  -- -- -- -- -- -- -- --
0070:                   00                                    .         
```

#### Opcodes

```
  0: 0x0076 [0x00] END_REQSTACK()
```

### Event 33

#### Metadata

| Field        | Value   |
|--------------|---------|
| Entrypoint   | 0x0077  |
| Data Size    | 7 bytes |
| Instructions | 2       |

```
      00 01 02 03 04 05 06 07  08 09 0A 0B 0C 0D 0E 0F
      -- -- -- -- -- -- -- --  -- -- -- -- -- -- -- --
0070:                      94  01 F8 FF FF 7F 00               .......  
```

#### Opcodes

```
  0: 0x0077 [0x94] EventEntity->Render.Flags3 ^= 0x01
  1: 0x007D [0x00] END_REQSTACK()
```

### Event 34

#### Metadata

| Field        | Value   |
|--------------|---------|
| Entrypoint   | 0x007E  |
| Data Size    | 7 bytes |
| Instructions | 2       |

```
      00 01 02 03 04 05 06 07  08 09 0A 0B 0C 0D 0E 0F
      -- -- -- -- -- -- -- --  -- -- -- -- -- -- -- --
0070:                                            94 01                ..
0080: F8 FF FF 7F 00                                    .....           
```

#### Opcodes

```
  0: 0x007E [0x94] EventEntity->Render.Flags3 ^= 0x01
  1: 0x0084 [0x00] END_REQSTACK()
```

### Event 65535.7

#### Metadata

| Field        | Value    |
|--------------|----------|
| Entrypoint   | 0x0085   |
| Data Size    | 10 bytes |
| Instructions | 2        |

```
      00 01 02 03 04 05 06 07  08 09 0A 0B 0C 0D 0E 0F
      -- -- -- -- -- -- -- --  -- -- -- -- -- -- -- --
0080:                37 14 80  15 80 0F 80 16 80 00          7......... 
```

#### Opcodes

```
  0: 0x0085 [0x37] UPDATE_EVENT_POSITION_AND_DIR: x=-649.211*, z=519.524*, y=-231.148*, direction=295.5°*
  1: 0x008E [0x00] END_REQSTACK()
```

### Event 65535.8

#### Metadata

| Field        | Value    |
|--------------|----------|
| Entrypoint   | 0x008F   |
| Data Size    | 90 bytes |
| Instructions | 13       |

```
      00 01 02 03 04 05 06 07  08 09 0A 0B 0C 0D 0E 0F
      -- -- -- -- -- -- -- --  -- -- -- -- -- -- -- --
0080:                                               03                 .
0090: 02 00 17 80 1A A5 00 32  18 80 1F 00 03 00 04 00  .......2........
00A0: 05 00 1F 01 00 3B F8 FF  FF 7F 03 00 04 00 05 00  .....;..........
00B0: 3A F8 FF FF 7F 06 00 17  07 00 06 00 02 00 16 08  :...............
00C0: 00 06 00 02 00 07 03 00  07 00 07 04 00 08 00 1B  ................
00D0: 17 07 00 06 00 02 00 16  08 00 06 00 02 00 07 03  ................
00E0: 00 07 00 07 04 00 08 00  1B                       .........       
```

#### Opcodes

```
  0: 0x008F [0x03] ExtData[1]->WorkLocal[2] = 2000*
  1: 0x0094 [0x1A] CALL_SUBROUTINE(address=0x00A5)
  2: 0x0097 [0x32] ExtData[1]->MainSpeed = 40* * 0.1
  3: 0x009A [0x1F] MOVE_ENTITY: EventEntity moves to X=ExtData[1]->WorkLocal[3], Z=ExtData[1]->WorkLocal[4], Y=ExtData[1]->WorkLocal[5]
  4: 0x00A2 [0x1F] MOVE_ENTITY: Update entity position (mode=1)
  5: 0x00A4 [0x00] END_REQSTACK()

SUBROUTINE_00A5:
  6: 0x00A5 [0x3B] GET_ENTITY_POSITION(entity=EventEntity, x_destination=ExtData[1]->WorkLocal[3], y_destination=ExtData[1]->WorkLocal[4], z_destination=ExtData[1]->WorkLocal[5])
  7: 0x00B0 [0x3A] CONVERT_YAW_TO_BYTE(entity=EventEntity, result_destination=ExtData[1]->WorkLocal[6])
  8: 0x00B7 [0x17] ExtData[1]->WorkLocal[7] = cos(ExtData[1]->WorkLocal[6]) * ExtData[1]->WorkLocal[2]
  9: 0x00BE [0x16] ExtData[1]->WorkLocal[8] = sin(ExtData[1]->WorkLocal[6]) * ExtData[1]->WorkLocal[2]
 10: 0x00C5 [0x07] ExtData[1]->WorkLocal[3] += ExtData[1]->WorkLocal[7]
 11: 0x00CA [0x07] ExtData[1]->WorkLocal[4] += ExtData[1]->WorkLocal[8]
 12: 0x00CF [0x1B] RETURN
```

#### Data or dead code:

```
# Dead code (unreachable instructions):
     0x00D0 [0x17] ExtData[1]->WorkLocal[7] = cos(ExtData[1]->WorkLocal[6]) * ExtData[1]->WorkLocal[2]
     0x00D7 [0x16] ExtData[1]->WorkLocal[8] = sin(ExtData[1]->WorkLocal[6]) * ExtData[1]->WorkLocal[2]
     0x00DE [0x07] ExtData[1]->WorkLocal[3] += ExtData[1]->WorkLocal[7]
     0x00E3 [0x07] ExtData[1]->WorkLocal[4] += ExtData[1]->WorkLocal[8]
     0x00E8 [0x1B] RETURN
```

### Event 65535.9

#### Metadata

| Field        | Value    |
|--------------|----------|
| Entrypoint   | 0x00E9   |
| Data Size    | 20 bytes |
| Instructions | 4        |

```
      00 01 02 03 04 05 06 07  08 09 0A 0B 0C 0D 0E 0F
      -- -- -- -- -- -- -- --  -- -- -- -- -- -- -- --
00E0:                             37 19 80 1A 80 1B 80           7......
00F0: 1C 80 5E 69 64 6C 30 1E  8D 00 02 01 00           ..^idl0......   
```

#### Opcodes

```
  0: 0x00E9 [0x37] UPDATE_EVENT_POSITION_AND_DIR: x=-783.019*, z=-74.198*, y=-103.347*, direction=304.7°*
  1: 0x00F2 [0x5E] EventEntity goes idle (kills current action) (animation: "idl0")
  2: 0x00F7 [0x1E] EventEntity looks at Prishe (ID: 16908429/0x0102008D) and starts talking
  3: 0x00FC [0x00] END_REQSTACK()
```

### Event 65535.10

#### Metadata

| Field        | Value    |
|--------------|----------|
| Entrypoint   | 0x00FD   |
| Data Size    | 16 bytes |
| Instructions | 5        |

```
      00 01 02 03 04 05 06 07  08 09 0A 0B 0C 0D 0E 0F
      -- -- -- -- -- -- -- --  -- -- -- -- -- -- -- --
00F0:                                         32 18 80               2..
0100: 1F 00 1D 80 1E 80 1B 80  1F 01 22 01 00           .........."..   
```

#### Opcodes

```
  0: 0x00FD [0x32] ExtData[1]->MainSpeed = 40* * 0.1
  1: 0x0100 [0x1F] MOVE_ENTITY: EventEntity moves to X=-780.322*, Z=-88.788*, Y=-103.347*
  2: 0x0108 [0x1F] MOVE_ENTITY: Update entity position (mode=1)
  3: 0x010A [0x22] ENTITY_HIDE_FLAG(enabled=0x01)
  4: 0x010C [0x00] END_REQSTACK()
```

### Event 65535.11

#### Metadata

| Field        | Value    |
|--------------|----------|
| Entrypoint   | 0x010D   |
| Data Size    | 25 bytes |
| Instructions | 3        |

```
      00 01 02 03 04 05 06 07  08 09 0A 0B 0C 0D 0E 0F
      -- -- -- -- -- -- -- --  -- -- -- -- -- -- -- --
0100:                                         37 1F 80               7..
0110: 20 80 21 80 22 80 5B 23  80 F8 FF FF 7F F8 FF FF   .!.".[#........
0120: 7F 6F 62 69 30 00                                 .obi0.          
```

#### Opcodes

```
  0: 0x010D [0x37] UPDATE_EVENT_POSITION_AND_DIR: x=-650.920*, z=515.627*, y=-231.296*, direction=318.1°*
  1: 0x0116 [0x5B] LOAD_EXT_SCHEDULER: Load scheduler "obi0" with entities [EventEntity, EventEntity], work=336*
  2: 0x0125 [0x00] END_REQSTACK()
```

### Event 65535.12

#### Metadata

| Field        | Value    |
|--------------|----------|
| Entrypoint   | 0x0126   |
| Data Size    | 16 bytes |
| Instructions | 2        |

```
      00 01 02 03 04 05 06 07  08 09 0A 0B 0C 0D 0E 0F
      -- -- -- -- -- -- -- --  -- -- -- -- -- -- -- --
0120:                   5B 24  80 F8 FF FF 7F F8 FF FF        [$........
0130: 7F 66 75 6B 31 00                                 .fuk1.          
```

#### Opcodes

```
  0: 0x0126 [0x5B] LOAD_EXT_SCHEDULER: Load scheduler "fuk1" with entities [EventEntity, EventEntity], work=431*
  1: 0x0135 [0x00] END_REQSTACK()
```

### Event 65535.13

#### Metadata

| Field        | Value    |
|--------------|----------|
| Entrypoint   | 0x0136   |
| Data Size    | 16 bytes |
| Instructions | 2        |

```
      00 01 02 03 04 05 06 07  08 09 0A 0B 0C 0D 0E 0F
      -- -- -- -- -- -- -- --  -- -- -- -- -- -- -- --
0130:                   5B 25  80 F8 FF FF 7F F8 FF FF        [%........
0140: 7F 63 72 79 30 00                                 .cry0.          
```

#### Opcodes

```
  0: 0x0136 [0x5B] LOAD_EXT_SCHEDULER: Load scheduler "cry0" with entities [EventEntity, EventEntity], work=442*
  1: 0x0145 [0x00] END_REQSTACK()
```

### Event 65535.14

#### Metadata

| Field        | Value    |
|--------------|----------|
| Entrypoint   | 0x0146   |
| Data Size    | 16 bytes |
| Instructions | 2        |

```
      00 01 02 03 04 05 06 07  08 09 0A 0B 0C 0D 0E 0F
      -- -- -- -- -- -- -- --  -- -- -- -- -- -- -- --
0140:                   5B 26  80 F8 FF FF 7F F8 FF FF        [&........
0150: 7F 64 66 6B 30 00                                 .dfk0.          
```

#### Opcodes

```
  0: 0x0146 [0x5B] LOAD_EXT_SCHEDULER: Load scheduler "dfk0" with entities [EventEntity, EventEntity], work=441*
  1: 0x0155 [0x00] END_REQSTACK()
```

### Event 65535.15

#### Metadata

| Field        | Value    |
|--------------|----------|
| Entrypoint   | 0x0156   |
| Data Size    | 16 bytes |
| Instructions | 2        |

```
      00 01 02 03 04 05 06 07  08 09 0A 0B 0C 0D 0E 0F
      -- -- -- -- -- -- -- --  -- -- -- -- -- -- -- --
0150:                   5B 26  80 F8 FF FF 7F F8 FF FF        [&........
0160: 7F 64 66 6B 31 00                                 .dfk1.          
```

#### Opcodes

```
  0: 0x0156 [0x5B] LOAD_EXT_SCHEDULER: Load scheduler "dfk1" with entities [EventEntity, EventEntity], work=441*
  1: 0x0165 [0x00] END_REQSTACK()
```

### Event 65535.16

#### Metadata

| Field        | Value    |
|--------------|----------|
| Entrypoint   | 0x0166   |
| Data Size    | 16 bytes |
| Instructions | 2        |

```
      00 01 02 03 04 05 06 07  08 09 0A 0B 0C 0D 0E 0F
      -- -- -- -- -- -- -- --  -- -- -- -- -- -- -- --
0160:                   5B 23  80 F8 FF FF 7F F8 FF FF        [#........
0170: 7F 74 6C 6B 30 00                                 .tlk0.          
```

#### Opcodes

```
  0: 0x0166 [0x5B] LOAD_EXT_SCHEDULER: Load scheduler "tlk0" with entities [EventEntity, EventEntity], work=336*
  1: 0x0175 [0x00] END_REQSTACK()
```

### Event 65535.17

#### Metadata

| Field        | Value    |
|--------------|----------|
| Entrypoint   | 0x0176   |
| Data Size    | 16 bytes |
| Instructions | 2        |

```
      00 01 02 03 04 05 06 07  08 09 0A 0B 0C 0D 0E 0F
      -- -- -- -- -- -- -- --  -- -- -- -- -- -- -- --
0170:                   5B 23  80 F8 FF FF 7F F8 FF FF        [#........
0180: 7F 74 6C 6B 31 00                                 .tlk1.          
```

#### Opcodes

```
  0: 0x0176 [0x5B] LOAD_EXT_SCHEDULER: Load scheduler "tlk1" with entities [EventEntity, EventEntity], work=336*
  1: 0x0185 [0x00] END_REQSTACK()
```

### Event 65535.18

#### Metadata

| Field        | Value    |
|--------------|----------|
| Entrypoint   | 0x0186   |
| Data Size    | 53 bytes |
| Instructions | 5        |

```
      00 01 02 03 04 05 06 07  08 09 0A 0B 0C 0D 0E 0F
      -- -- -- -- -- -- -- --  -- -- -- -- -- -- -- --
0180:                   5B 23  80 F8 FF FF 7F F8 FF FF        [#........
0190: 7F 77 61 69 30 45 27 80  95 00 02 01 95 00 02 01  .wai0E'.........
01A0: 73 65 31 32 11 80 1C 28  80 45 27 80 95 00 02 01  se12...(.E'.....
01B0: 95 00 02 01 73 65 31 33  11 80 00                 ....se13...     
```

#### Opcodes

```
  0: 0x0186 [0x5B] LOAD_EXT_SCHEDULER: Load scheduler "wai0" with entities [EventEntity, EventEntity], work=336*
  1: 0x0195 [0x45] LOAD_SCHEDULED_TASK: Load scheduler "se12" with entities [Shikaree Z (ID: 16908437/0x01020095), Shikaree Z (ID: 16908437/0x01020095)], work=[166*, 0*]
  2: 0x01A6 [0x1C] WAIT(45* ticks)
  3: 0x01A9 [0x45] LOAD_SCHEDULED_TASK: Load scheduler "se13" with entities [Shikaree Z (ID: 16908437/0x01020095), Shikaree Z (ID: 16908437/0x01020095)], work=[166*, 0*]
  4: 0x01BA [0x00] END_REQSTACK()
```

### Event 65535.19

#### Metadata

| Field        | Value    |
|--------------|----------|
| Entrypoint   | 0x01BB   |
| Data Size    | 16 bytes |
| Instructions | 2        |

```
      00 01 02 03 04 05 06 07  08 09 0A 0B 0C 0D 0E 0F
      -- -- -- -- -- -- -- --  -- -- -- -- -- -- -- --
01B0:                                   5B 29 80 F8 FF             [)...
01C0: FF 7F F8 FF FF 7F 68 69  30 31 00                 ......hi01.     
```

#### Opcodes

```
  0: 0x01BB [0x5B] LOAD_EXT_SCHEDULER: Load scheduler "hi01" with entities [EventEntity, EventEntity], work=444*
  1: 0x01CA [0x00] END_REQSTACK()
```

### Event 65535.20

#### Metadata

| Field        | Value    |
|--------------|----------|
| Entrypoint   | 0x01CB   |
| Data Size    | 16 bytes |
| Instructions | 2        |

```
      00 01 02 03 04 05 06 07  08 09 0A 0B 0C 0D 0E 0F
      -- -- -- -- -- -- -- --  -- -- -- -- -- -- -- --
01C0:                                   5B 29 80 F8 FF             [)...
01D0: FF 7F F8 FF FF 7F 68 69  30 32 00                 ......hi02.     
```

#### Opcodes

```
  0: 0x01CB [0x5B] LOAD_EXT_SCHEDULER: Load scheduler "hi02" with entities [EventEntity, EventEntity], work=444*
  1: 0x01DA [0x00] END_REQSTACK()
```

### Event 65535.21

#### Metadata

| Field        | Value    |
|--------------|----------|
| Entrypoint   | 0x01DB   |
| Data Size    | 16 bytes |
| Instructions | 2        |

```
      00 01 02 03 04 05 06 07  08 09 0A 0B 0C 0D 0E 0F
      -- -- -- -- -- -- -- --  -- -- -- -- -- -- -- --
01D0:                                   5B 29 80 F8 FF             [)...
01E0: FF 7F F8 FF FF 7F 68 69  30 33 00                 ......hi03.     
```

#### Opcodes

```
  0: 0x01DB [0x5B] LOAD_EXT_SCHEDULER: Load scheduler "hi03" with entities [EventEntity, EventEntity], work=444*
  1: 0x01EA [0x00] END_REQSTACK()
```

### Event 65535.22

#### Metadata

| Field        | Value    |
|--------------|----------|
| Entrypoint   | 0x01EB   |
| Data Size    | 16 bytes |
| Instructions | 2        |

```
      00 01 02 03 04 05 06 07  08 09 0A 0B 0C 0D 0E 0F
      -- -- -- -- -- -- -- --  -- -- -- -- -- -- -- --
01E0:                                   5B 29 80 F8 FF             [)...
01F0: FF 7F F8 FF FF 7F 68 69  30 34 00                 ......hi04.     
```

#### Opcodes

```
  0: 0x01EB [0x5B] LOAD_EXT_SCHEDULER: Load scheduler "hi04" with entities [EventEntity, EventEntity], work=444*
  1: 0x01FA [0x00] END_REQSTACK()
```

### Event 65535.23

#### Metadata

| Field        | Value    |
|--------------|----------|
| Entrypoint   | 0x01FB   |
| Data Size    | 16 bytes |
| Instructions | 2        |

```
      00 01 02 03 04 05 06 07  08 09 0A 0B 0C 0D 0E 0F
      -- -- -- -- -- -- -- --  -- -- -- -- -- -- -- --
01F0:                                   5B 2A 80 F8 FF             [*...
0200: FF 7F F8 FF FF 7F 73 68  6B 30 00                 ......shk0.     
```

#### Opcodes

```
  0: 0x01FB [0x5B] LOAD_EXT_SCHEDULER: Load scheduler "shk0" with entities [EventEntity, EventEntity], work=338*
  1: 0x020A [0x00] END_REQSTACK()
```

### Event 65535.24

#### Metadata

| Field        | Value    |
|--------------|----------|
| Entrypoint   | 0x020B   |
| Data Size    | 16 bytes |
| Instructions | 2        |

```
      00 01 02 03 04 05 06 07  08 09 0A 0B 0C 0D 0E 0F
      -- -- -- -- -- -- -- --  -- -- -- -- -- -- -- --
0200:                                   5B 23 80 F8 FF             [#...
0210: FF 7F F8 FF FF 7F 7A 69  74 30 00                 ......zit0.     
```

#### Opcodes

```
  0: 0x020B [0x5B] LOAD_EXT_SCHEDULER: Load scheduler "zit0" with entities [EventEntity, EventEntity], work=336*
  1: 0x021A [0x00] END_REQSTACK()
```

### Event 65535.25

#### Metadata

| Field        | Value    |
|--------------|----------|
| Entrypoint   | 0x021B   |
| Data Size    | 16 bytes |
| Instructions | 2        |

```
      00 01 02 03 04 05 06 07  08 09 0A 0B 0C 0D 0E 0F
      -- -- -- -- -- -- -- --  -- -- -- -- -- -- -- --
0210:                                   5B 2B 80 F8 FF             [+...
0220: FF 7F F8 FF FF 7F 63 61  62 6B 00                 ......cabk.     
```

#### Opcodes

```
  0: 0x021B [0x5B] LOAD_EXT_SCHEDULER: Load scheduler "cabk" with entities [EventEntity, EventEntity], work=342*
  1: 0x022A [0x00] END_REQSTACK()
```

### Event 65535.26

#### Metadata

| Field        | Value    |
|--------------|----------|
| Entrypoint   | 0x022B   |
| Data Size    | 16 bytes |
| Instructions | 2        |

```
      00 01 02 03 04 05 06 07  08 09 0A 0B 0C 0D 0E 0F
      -- -- -- -- -- -- -- --  -- -- -- -- -- -- -- --
0220:                                   5B 2B 80 F8 FF             [+...
0230: FF 7F F8 FF FF 7F 73 68  62 6B 00                 ......shbk.     
```

#### Opcodes

```
  0: 0x022B [0x5B] LOAD_EXT_SCHEDULER: Load scheduler "shbk" with entities [EventEntity, EventEntity], work=342*
  1: 0x023A [0x00] END_REQSTACK()
```

### Event 65535.27

#### Metadata

| Field        | Value     |
|--------------|-----------|
| Entrypoint   | 0x023B    |
| Data Size    | 140 bytes |
| Instructions | 28        |

```
      00 01 02 03 04 05 06 07  08 09 0A 0B 0C 0D 0E 0F
      -- -- -- -- -- -- -- --  -- -- -- -- -- -- -- --
0230:                                   03 01 00 03 7F             .....
0240: 3A 91 00 02 01 0B 00 06  09 00 02 00 00 11 80 00  :...............
0250: C6 02 02 09 00 11 80 80  62 02 03 0A 00 2C 80 01  ........b....,..
0260: 85 02 02 09 00 2D 80 80  72 02 03 0A 00 2E 80 01  .....-..r.......
0270: 85 02 02 09 00 2F 80 80  85 02 03 0A 00 30 80 06  ...../.......0..
0280: 09 00 01 85 02 AD 00 0A  00 F8 FF FF 7F F8 FF FF  ................
0290: 7F AD 00 0A 00 91 00 02  01 91 00 02 01 0B 09 00  ................
02A0: 1C 13 80 07 01 00 31 80  0D 01 00 12 80 39 01 00  ......1......9..
02B0: 07 0B 00 32 80 0D 0B 00  12 80 4B 91 00 02 01 0B  ...2......K.....
02C0: 00 6F 70 01 4A 02 00                              .op.J..         
```

#### Opcodes

```
  0: 0x023B [0x03] ExtData[1]->WorkLocal[1] = enDirCli(ExtData[1]->EventDir[1]) * 4096.0 * 0.15915963
  1: 0x0240 [0x3A] CONVERT_YAW_TO_BYTE(entity=Cherukiki (ID: 16908433/0x01020091), result_destination=ExtData[1]->WorkLocal[11])
  2: 0x0247 [0x06] ExtData[1]->WorkLocal[9] = 0
  3: 0x024A [0x02] IF !(ExtData[1]->WorkLocal[0] == 0*) GOTO 0x02C6
  4: 0x0252 [0x02] IF !(ExtData[1]->WorkLocal[9] == 0*) GOTO 0x0262
  5: 0x025A [0x03] ExtData[1]->WorkLocal[10] = 35*
  6: 0x025F [0x01] GOTO 0x0285
  7: 0x0262 [0x02] IF !(ExtData[1]->WorkLocal[9] == 1*) GOTO 0x0272
  8: 0x026A [0x03] ExtData[1]->WorkLocal[10] = 36*
  9: 0x026F [0x01] GOTO 0x0285
 10: 0x0272 [0x02] IF !(ExtData[1]->WorkLocal[9] == 2*) GOTO 0x0285
 11: 0x027A [0x03] ExtData[1]->WorkLocal[10] = 37*
 12: 0x027F [0x06] ExtData[1]->WorkLocal[9] = 0
 13: 0x0282 [0x01] GOTO 0x0285

SUBROUTINE_0285:
 14: 0x0285 [0xAD] DUAL_ENTITY_SCHEDULER_HANDLER: Execute sub-case 0 with entities [EventEntity, EventEntity], work=ExtData[1]->WorkLocal[10]
 15: 0x0291 [0xAD] DUAL_ENTITY_SCHEDULER_HANDLER: Execute sub-case 0 with entities [Cherukiki (ID: 16908433/0x01020091), Cherukiki (ID: 16908433/0x01020091)], work=ExtData[1]->WorkLocal[10]
 16: 0x029D [0x0B] ExtData[1]->WorkLocal[9]++
 17: 0x02A0 [0x1C] WAIT(120* ticks)
 18: 0x02A3 [0x07] ExtData[1]->WorkLocal[1] += 4294966272*
 19: 0x02A8 [0x0D] ExtData[1]->WorkLocal[1] &= 4095*
 20: 0x02AD [0x39] SET_ENTITY_DIRECTION(direction=ExtData[1]->WorkLocal[1])
 21: 0x02B0 [0x07] ExtData[1]->WorkLocal[11] += 1024*
 22: 0x02B5 [0x0D] ExtData[1]->WorkLocal[11] &= 4095*
 23: 0x02BA [0x4B] UPDATE_ENTITY_YAW(entity=Cherukiki (ID: 16908433/0x01020091), yaw=ExtData[1]->WorkLocal[11])
 24: 0x02C1 [0x6F] WAIT_FRAME_DELAY: Yield until WaitTime reaches zero
 25: 0x02C2 [0x70] WAIT_ENTITY_RENDER_FLAG: Wait while EventEntity->Render.Flags3 bit 2 is set (cancel turn if not)
 26: 0x02C3 [0x01] GOTO 0x024A
 27: 0x02C6 [0x00] END_REQSTACK()
```

### Event 65535.28

#### Metadata

| Field        | Value   |
|--------------|---------|
| Entrypoint   | 0x02C7  |
| Data Size    | 4 bytes |
| Instructions | 2       |

```
      00 01 02 03 04 05 06 07  08 09 0A 0B 0C 0D 0E 0F
      -- -- -- -- -- -- -- --  -- -- -- -- -- -- -- --
02C0:                      05  00 00 00                        ....     
```

#### Opcodes

```
  0: 0x02C7 [0x05] ExtData[1]->WorkLocal[0] = 1
  1: 0x02CA [0x00] END_REQSTACK()
```
