# 16908457 - Sueleen

## Common Data

| Field            | Value                  |
|------------------|------------------------|
| Zone             | Sealion's Den (ID: 32) |
| Block Size       | 1420 bytes             |
| Total Events     | 16                     |
| References Count | 44                     |

## List of Events

| Event ID              | Entrypoint   |   Size |   Instructions |
|-----------------------|--------------|--------|----------------|
| [65535](#event-65535) | 0x0000       |      1 |              1 |
| [18](#event-18)       | 0x0001       |    248 |             32 |
| [12](#event-12)       | 0x00F9       |    627 |             74 |
| [13](#event-13)       | 0x036C       |     13 |              3 |
| [16](#event-16)       | 0x0379       |      1 |              1 |
| [20](#event-20)       | 0x037A       |     30 |              8 |
| [21](#event-21)       | 0x0398       |     30 |              8 |
| [22](#event-22)       | 0x03B6       |     30 |              8 |
| [23](#event-23)       | 0x03D4       |     11 |              5 |
| [24](#event-24)       | 0x03DF       |     49 |             11 |
| [25](#event-25)       | 0x0410       |     30 |              8 |
| [26](#event-26)       | 0x042E       |     30 |              8 |
| [27](#event-27)       | 0x044C       |     30 |              8 |
| [17](#event-17)       | 0x046A       |      1 |              1 |
| [28](#event-28)       | 0x046B       |     30 |              8 |
| [29](#event-29)       | 0x0489       |      1 |              1 |

## DAT References (imed_data)

|   Index | Hex Value   |   Dec Value |
|---------|-------------|-------------|
|       0 | 0x00C8      |         200 |
|       1 | 0x0000      |           0 |
|       2 | 0x0013      |          19 |
|       3 | 0x0001      |           1 |
|       4 | 0x00A6      |         166 |
|       5 | 0x000D      |          13 |
|       6 | 0x95B7B     |      613243 |
|       7 | 0xBD57D     |      775549 |
|       8 | 0x20659     |      132697 |
|       9 | 0x1EF0      |        7920 |
|      10 | 0x1EF1      |        7921 |
|      11 | 0x0078      |         120 |
|      12 | 0x1EF2      |        7922 |
|      13 | 0x1EF3      |        7923 |
|      14 | 0x00AA      |         170 |
|      15 | 0x00FF      |         255 |
|      16 | 0x000A      |          10 |
|      17 | 0x0048      |          72 |
|      18 | 0x003C      |          60 |
|      19 | 0x0258      |         600 |
|      20 | 0x00AB      |         171 |
|      21 | 0x001E      |          30 |
|      22 | 0x00DC      |         220 |
|      23 | 0x006C      |         108 |
|      24 | 0x00F5      |         245 |
|      25 | 0x00C9      |         201 |
|      26 | 0x1DDC      |        7644 |
|      27 | 0x1DDD      |        7645 |
|      28 | 0x1DDE      |        7646 |
|      29 | 0x1DDF      |        7647 |
|      30 | 0x1DDA      |        7642 |
|      31 | 0x1DDB      |        7643 |
|      32 | 0x1DE4      |        7652 |
|      33 | 0x1E06      |        7686 |
|      34 | 0x1E07      |        7687 |
|      35 | 0x1E08      |        7688 |
|      36 | 0x1EB0      |        7856 |
|      37 | 0x1EB1      |        7857 |
|      38 | 0x1DE0      |        7648 |
|      39 | 0x1DE1      |        7649 |
|      40 | 0x1DE2      |        7650 |
|      41 | 0x1DE3      |        7651 |
|      42 | 0x1EC1      |        7873 |
|      43 | 0x1EC2      |        7874 |

## String References

- **7642**: The airship carrying Prishe and Ulmia just left for San d'Oria.
- **7643**: Someday maybe I'll be lucky enough to ride an airship off the island... Someday...
- **7644**: The Sealion's Den once served as a private port for the Tavnazian Cathedral.
- **7645**: However, not a single ship has visited this place in over twenty years. I'm only stationed here to make sure no beastmen try to sneak their way into the safehold.
- **7646**: I never believed the day would come when I saw a ship docked in the Sealion's Den.
- **7647**: I have a feeling my job is about to become real interesting!
- **7648**: The Chebukki brothers arrived a while back on an airship that was unlike any that had visited our port before.
- **7649**: There were enough weapons on the contraption to blow up an island...
- **7650**: If you're looking for the Chebukki brothers, they headed back to Jeuno a few days ago. Now that you mention it, they looked like they were in quite a hurry.
- **7651**: I guess once you've had a taste of city life, it's hard to come back to the country...
- **7652**: Cid? No one going by that name has passed through here.
- **7686**: Ulmia told me that we may never see Prishe again...
- **7687**: ...That Prishe is ready to sacrifice herself to the Wyrmking to save the world...
- **7688**: But you won't let that happen, will you, <Player>? You'll find a way to save Prishe, Ulmia, and everybody, right?
- **7856**: Over the past few months, hundreds of ships have brought thousands of people to our town.
- **7857**: It's like a clock that hasn't run for twenty years has suddenly started ticking again.
- **7873**: Please, adventurer. Keep Prishe and Ulmia safe from harm.
- **7874**: I want to laugh as I hand back the letters they wrote in case they didn't make it...
- **7920**: That ship of yours made its way back here of its own accord. Must be that "autopilot" thing that Prishe was talking about.
- **7921**: I've resupplied the airship, so you can take off at any time. Let me know when you're ready to board.
- **7922**: I've resupplied the airship, so you can take off at any time. Are you ready to go?
- **7923**: Take the airship to Al'Taieu? [Let's go!/Not just yet.]

## Events

### Event 65535

#### Metadata

| Field        | Value   |
|--------------|---------|
| Entrypoint   | 0x0000  |
| Data Size    | 1 bytes |
| Instructions | 1       |

```
      00 01 02 03 04 05 06 07  08 09 0A 0B 0C 0D 0E 0F
      -- -- -- -- -- -- -- --  -- -- -- -- -- -- -- --
0000: 00                                                .               
```

#### Opcodes

```
  0: 0x0000 [0x00] END_REQSTACK()
```

### Event 18

#### Metadata

| Field        | Value     |
|--------------|-----------|
| Entrypoint   | 0x0001    |
| Data Size    | 248 bytes |
| Instructions | 32        |

```
      00 01 02 03 04 05 06 07  08 09 0A 0B 0C 0D 0E 0F
      -- -- -- -- -- -- -- --  -- -- -- -- -- -- -- --
0000:    45 00 80 F0 FF FF 7F  F0 FF FF 7F 66 64 6F 31   E..........fdo1
0010: 01 80 4E 00 F0 FF FF 7F  20 01 46 01 42 94 01 F0  ..N..... .F.B...
0020: FF FF 7F 94 01 F8 FF FF  7F 38 02 80 97 01 80 03  .........8......
0030: 80 45 04 80 F0 FF FF 7F  F0 FF FF 7F 76 30 30 30  .E..........v000
0040: 01 80 45 00 80 F0 FF FF  7F F0 FF FF 7F 66 64 69  ..E..........fdi
0050: 31 01 80 32 05 80 27 03  F0 FF FF 7F 1B 79 00 F8  1..2..'......y..
0060: FF FF 7F F0 FF FF 7F 1F  00 06 80 07 80 08 80 1F  ................
0070: 01 79 00 F0 FF FF 7F A9  00 02 01 55 00 80 F0 FF  .y.........U....
0080: FF 7F F0 FF FF 7F 66 64  69 31 1D 09 80 23 52 04  ......fdi1...#R.
0090: 80 F0 FF FF 7F F0 FF FF  7F 76 30 30 30 45 04 80  .........v000E..
00A0: F0 FF FF 7F F0 FF FF 7F  76 30 30 31 01 80 1D 0A  ........v001....
00B0: 80 1C 0B 80 23 45 00 80  F0 FF FF 7F F0 FF FF 7F  ....#E..........
00C0: 66 64 6F 32 01 80 55 00  80 F0 FF FF 7F F0 FF FF  fdo2..U.........
00D0: 7F 66 64 6F 32 52 04 80  F0 FF FF 7F F0 FF FF 7F  .fdo2R..........
00E0: 76 30 30 31 46 00 45 00  80 F0 FF FF 7F F0 FF FF  v001F.E.........
00F0: 7F 66 64 69 32 01 80 21  00                       .fdi2..!.       
```

#### Opcodes

```
  0: 0x0001 [0x45] LOAD_SCHEDULED_TASK: Load scheduler "fdo1" with entities [LocalPlayer, LocalPlayer], work=[200*, 0*]
  1: 0x0012 [0x4E] SET_ENTITY_HIDE_FLAG: Show LocalPlayer
  2: 0x0018 [0x20] SET_CLI_EVENT_UC_FLAG: Lock player control
  3: 0x001A [0x46] CAMERA_CONTROL: Disable user control
  4: 0x001C [0x42] SET_CLI_EVENT_CANCEL_DATA()
  5: 0x001D [0x94] LocalPlayer->Render.Flags3 ^= 0x01
  6: 0x0023 [0x94] EventEntity->Render.Flags3 ^= 0x01
  7: 0x0029 [0x38] SET_CLIENT_EVENT_MODE(mode=19*)
  8: 0x002C [0x97] SAVE_SET_WIND_VALUES(wind_base=0x8001, wind_width=0x8003)
  9: 0x0031 [0x45] LOAD_SCHEDULED_TASK: Load scheduler "v000" with entities [LocalPlayer, LocalPlayer], work=[166*, 0*]
 10: 0x0042 [0x45] LOAD_SCHEDULED_TASK: Load scheduler "fdi1" with entities [LocalPlayer, LocalPlayer], work=[200*, 0*]
 11: 0x0053 [0x32] ExtData[1]->MainSpeed = 13* * 0.1
 12: 0x0056 [0x27] REQ_SET(priority=0x03, entity_id=LocalPlayer, tag_num=0x1B)
 13: 0x005D [0x79] EventEntity looks at LocalPlayer (Basic look)
 14: 0x0067 [0x1F] MOVE_ENTITY: EventEntity moves to X=613.243*, Z=775.549*, Y=132.697*
 15: 0x006F [0x1F] MOVE_ENTITY: Update entity position (mode=1)
 16: 0x0071 [0x79] LocalPlayer looks at Sueleen (ID: 16908457/0x010200A9) (Basic look)
 17: 0x007B [0x55] WAIT_LOAD_SCHEDULER: Wait for scheduler "fdi1" with entities [LocalPlayer, LocalPlayer], work=200*
 18: 0x008A [0x1D] PRINT_EVENT_MESSAGE(message_id=7920*)
    → "That ship of yours made its way back here of its own accord. Must be that "autopilot" thing that Prishe was talking about."
 19: 0x008D [0x23] WAIT_FOR_DIALOG_INTERACTION
 20: 0x008E [0x52] END_LOAD_SCHEDULER: End scheduler "v000" with entities [LocalPlayer, LocalPlayer], work=166*
 21: 0x009D [0x45] LOAD_SCHEDULED_TASK: Load scheduler "v001" with entities [LocalPlayer, LocalPlayer], work=[166*, 0*]
 22: 0x00AE [0x1D] PRINT_EVENT_MESSAGE(message_id=7921*)
    → "I've resupplied the airship, so you can take off at any time. Let me know when you're ready to board."
 23: 0x00B1 [0x1C] WAIT(120* ticks)
 24: 0x00B4 [0x23] WAIT_FOR_DIALOG_INTERACTION
 25: 0x00B5 [0x45] LOAD_SCHEDULED_TASK: Load scheduler "fdo2" with entities [LocalPlayer, LocalPlayer], work=[200*, 0*]
 26: 0x00C6 [0x55] WAIT_LOAD_SCHEDULER: Wait for scheduler "fdo2" with entities [LocalPlayer, LocalPlayer], work=200*
 27: 0x00D5 [0x52] END_LOAD_SCHEDULER: End scheduler "v001" with entities [LocalPlayer, LocalPlayer], work=166*
 28: 0x00E4 [0x46] CAMERA_CONTROL: Restore default settings
 29: 0x00E6 [0x45] LOAD_SCHEDULED_TASK: Load scheduler "fdi2" with entities [LocalPlayer, LocalPlayer], work=[200*, 0*]
 30: 0x00F7 [0x21] END_EVENT
 31: 0x00F8 [0x00] END_REQSTACK()
```

### Event 12

#### Metadata

| Field        | Value     |
|--------------|-----------|
| Entrypoint   | 0x00F9    |
| Data Size    | 627 bytes |
| Instructions | 74        |

```
      00 01 02 03 04 05 06 07  08 09 0A 0B 0C 0D 0E 0F
      -- -- -- -- -- -- -- --  -- -- -- -- -- -- -- --
00F0:                             20 01 03 00 00 03 10            ......
0100: 02 00 00 03 80 00 0B 01  01 2D 01 1E F0 FF FF 7F  .........-......
0110: 6F 70 1D 09 80 23 1D 0C  80 23 06 01 10 24 0D 80  op...#...#...$..
0120: 03 80 01 80 25 02 00 10  01 80 00 6A 03 42 46 01  ....%......j.BF.
0130: 5C 00 0E 80 5C 01 0E 80  45 00 80 F0 FF FF 7F F0  \...\...E.......
0140: FF FF 7F 66 64 6F 31 01  80 55 00 80 F0 FF FF 7F  ...fdo1..U......
0150: F0 FF FF 7F 66 64 6F 31  38 02 80 94 01 F0 FF FF  ....fdo18.......
0160: 7F 4E 01 F0 FF FF 7F 77  0F 80 03 80 4E 00 9F 00  .N.....w....N...
0170: 02 01 1C 10 80 29 03 9F  00 02 01 0F 27 03 9F 00  .....)......'...
0180: 02 01 14 97 01 80 03 80  2D F8 FF FF 7F F8 FF FF  ........-.......
0190: 7F 30 34 6F 6E 45 11 80  F0 FF FF 7F F0 FF FF 7F  .04onE..........
01A0: 72 30 30 30 01 80 1C 12  80 45 00 80 F0 FF FF 7F  r000.....E......
01B0: F0 FF FF 7F 66 64 69 31  01 80 55 00 80 F0 FF FF  ....fdi1..U.....
01C0: 7F F0 FF FF 7F 66 64 69  31 1C 13 80 45 00 80 F0  .....fdi1...E...
01D0: FF FF 7F F0 FF FF 7F 66  64 6F 31 01 80 55 00 80  .......fdo1..U..
01E0: F0 FF FF 7F F0 FF FF 7F  66 64 6F 31 1C 12 80 52  ........fdo1...R
01F0: 11 80 F0 FF FF 7F F0 FF  FF 7F 72 30 30 30 2D F8  ..........r000-.
0200: FF FF 7F F8 FF FF 7F 6C  77 6F 6E 2D F8 FF FF 7F  .......lwon-....
0210: F8 FF FF 7F 6C 6F 6F 70  45 14 80 F8 FF FF 7F F8  ....loopE.......
0220: FF FF 7F 73 65 33 38 01  80 45 11 80 F0 FF FF 7F  ...se38..E......
0230: F0 FF FF 7F 72 30 30 32  01 80 1C 10 80 45 00 80  ....r002.....E..
0240: F0 FF FF 7F F0 FF FF 7F  66 64 69 31 01 80 55 00  ........fdi1..U.
0250: 80 F0 FF FF 7F F0 FF FF  7F 66 64 69 31 1C 15 80  .........fdi1...
0260: 45 00 80 F0 FF FF 7F F0  FF FF 7F 62 6C 6F 6E 01  E..........blon.
0270: 80 55 11 80 F0 FF FF 7F  F0 FF FF 7F 72 30 30 32  .U..........r002
0280: 45 00 80 A9 00 02 01 A9  00 02 01 6F 76 6C 31 01  E..........ovl1.
0290: 80 45 11 80 F0 FF FF 7F  F0 FF FF 7F 72 30 30 31  .E..........r001
02A0: 01 80 1C 16 80 45 17 80  F0 FF FF 7F F0 FF FF 7F  .....E..........
02B0: 77 68 6F 33 01 80 45 17  80 F0 FF FF 7F F0 FF FF  who3..E.........
02C0: 7F 62 61 73 68 01 80 55  17 80 F0 FF FF 7F F0 FF  .bash..U........
02D0: FF 7F 77 68 6F 33 52 11  80 F0 FF FF 7F F0 FF FF  ..who3R.........
02E0: 7F 72 30 30 31 45 00 80  F0 FF FF 7F F0 FF FF 7F  .r001E..........
02F0: 62 6C 6F 66 01 80 2D F8  FF FF 7F F8 FF FF 7F 34  blof..-........4
0300: 65 6E 64 45 00 80 F0 FF  FF 7F F0 FF FF 7F 66 64  endE..........fd
0310: 6F 31 01 80 55 00 80 F0  FF FF 7F F0 FF FF 7F 66  o1..U..........f
0320: 64 6F 31 02 00 00 03 80  00 50 03 29 03 9F 00 02  do1......P.)....
0330: 01 15 46 00 5C 00 18 80  5C 01 18 80 45 00 80 F0  ..F.\...\...E...
0340: FF FF 7F F0 FF FF 7F 66  64 69 32 01 80 01 56 03  .......fdi2...V.
0350: 03 01 10 03 80 30 45 19  80 F0 FF FF 7F F0 FF FF  .....0E.........
0360: 7F 77 68 69 31 01 80 01  6A 03 21 00              .whi1...j.!.    
```

#### Opcodes

```
  0: 0x00F9 [0x20] SET_CLI_EVENT_UC_FLAG: Lock player control
  1: 0x00FB [0x03] ExtData[1]->WorkLocal[0] = Work_Zone[3]
  2: 0x0100 [0x02] IF !(ExtData[1]->WorkLocal[0] == 1*) GOTO 0x010B
  3: 0x0108 [0x01] GOTO 0x012D
  4: 0x010B [0x1E] EventEntity looks at LocalPlayer and starts talking
  5: 0x0110 [0x6F] WAIT_FRAME_DELAY: Yield until WaitTime reaches zero
  6: 0x0111 [0x70] WAIT_ENTITY_RENDER_FLAG: Wait while EventEntity->Render.Flags3 bit 2 is set (cancel turn if not)
  7: 0x0112 [0x1D] PRINT_EVENT_MESSAGE(message_id=7920*)
    → "That ship of yours made its way back here of its own accord. Must be that "autopilot" thing that Prishe was talking about."
  8: 0x0115 [0x23] WAIT_FOR_DIALOG_INTERACTION
  9: 0x0116 [0x1D] PRINT_EVENT_MESSAGE(message_id=7922*)
    → "I've resupplied the airship, so you can take off at any time. Are you ready to go?"
 10: 0x0119 [0x23] WAIT_FOR_DIALOG_INTERACTION
 11: 0x011A [0x06] Work_Zone[1] = 0
 12: 0x011D [0x24] CREATE_DIALOG(message_id=7923*, default_option=1*, option_flags=0*)
    → "Take the airship to Al'Taieu? [Let's go!/Not just yet.]"
 13: 0x0124 [0x25] WAIT_DIALOG_SELECT()
 14: 0x0125 [0x02] IF !(Work_Zone[0] == 0*) GOTO 0x036A

SUBROUTINE_012D:
 15: 0x012D [0x42] SET_CLI_EVENT_CANCEL_DATA()
 16: 0x012E [0x46] CAMERA_CONTROL: Disable user control
 17: 0x0130 [0x5C] MUSIC_CONTROL: Set Idle (Day) music to song 170*
 18: 0x0134 [0x5C] MUSIC_CONTROL: Set Idle (Night) music to song 170*
 19: 0x0138 [0x45] LOAD_SCHEDULED_TASK: Load scheduler "fdo1" with entities [LocalPlayer, LocalPlayer], work=[200*, 0*]
 20: 0x0149 [0x55] WAIT_LOAD_SCHEDULER: Wait for scheduler "fdo1" with entities [LocalPlayer, LocalPlayer], work=200*
 21: 0x0158 [0x38] SET_CLIENT_EVENT_MODE(mode=19*)
 22: 0x015B [0x94] LocalPlayer->Render.Flags3 ^= 0x01
 23: 0x0161 [0x4E] SET_ENTITY_HIDE_FLAG: Hide LocalPlayer
 24: 0x0167 [0x77] SET_EVENT_TIME_WEATHER(hour=255*, weather=1*)
 25: 0x016C [0x4E] SET_ENTITY_HIDE_FLAG: Show ship (ID: 16908447/0x0102009F)
 26: 0x0172 [0x1C] WAIT(10* ticks)
 27: 0x0175 [0x29] REQ_SET_WAIT(priority=0x03, entity_id=ship (ID: 16908447/0x0102009F), tag_num=0x0F)
 28: 0x017C [0x27] REQ_SET(priority=0x03, entity_id=ship (ID: 16908447/0x0102009F), tag_num=0x14)
 29: 0x0183 [0x97] SAVE_SET_WIND_VALUES(wind_base=0x8001, wind_width=0x8003)
 30: 0x0188 [0x2D] CREATE_ZONE_SCHEDULER_TASK: Create scheduler "04on" with entities [EventEntity, EventEntity]
 31: 0x0195 [0x45] LOAD_SCHEDULED_TASK: Load scheduler "r000" with entities [LocalPlayer, LocalPlayer], work=[72*, 0*]
 32: 0x01A6 [0x1C] WAIT(60* ticks)
 33: 0x01A9 [0x45] LOAD_SCHEDULED_TASK: Load scheduler "fdi1" with entities [LocalPlayer, LocalPlayer], work=[200*, 0*]
 34: 0x01BA [0x55] WAIT_LOAD_SCHEDULER: Wait for scheduler "fdi1" with entities [LocalPlayer, LocalPlayer], work=200*
 35: 0x01C9 [0x1C] WAIT(600* ticks)
 36: 0x01CC [0x45] LOAD_SCHEDULED_TASK: Load scheduler "fdo1" with entities [LocalPlayer, LocalPlayer], work=[200*, 0*]
 37: 0x01DD [0x55] WAIT_LOAD_SCHEDULER: Wait for scheduler "fdo1" with entities [LocalPlayer, LocalPlayer], work=200*
 38: 0x01EC [0x1C] WAIT(60* ticks)
 39: 0x01EF [0x52] END_LOAD_SCHEDULER: End scheduler "r000" with entities [LocalPlayer, LocalPlayer], work=72*
 40: 0x01FE [0x2D] CREATE_ZONE_SCHEDULER_TASK: Create scheduler "lwon" with entities [EventEntity, EventEntity]
 41: 0x020B [0x2D] CREATE_ZONE_SCHEDULER_TASK: Create scheduler "loop" with entities [EventEntity, EventEntity]
 42: 0x0218 [0x45] LOAD_SCHEDULED_TASK: Load scheduler "se38" with entities [EventEntity, EventEntity], work=[171*, 0*]
 43: 0x0229 [0x45] LOAD_SCHEDULED_TASK: Load scheduler "r002" with entities [LocalPlayer, LocalPlayer], work=[72*, 0*]
 44: 0x023A [0x1C] WAIT(10* ticks)
 45: 0x023D [0x45] LOAD_SCHEDULED_TASK: Load scheduler "fdi1" with entities [LocalPlayer, LocalPlayer], work=[200*, 0*]
 46: 0x024E [0x55] WAIT_LOAD_SCHEDULER: Wait for scheduler "fdi1" with entities [LocalPlayer, LocalPlayer], work=200*
 47: 0x025D [0x1C] WAIT(30* ticks)
 48: 0x0260 [0x45] LOAD_SCHEDULED_TASK: Load scheduler "blon" with entities [LocalPlayer, LocalPlayer], work=[200*, 0*]
 49: 0x0271 [0x55] WAIT_LOAD_SCHEDULER: Wait for scheduler "r002" with entities [LocalPlayer, LocalPlayer], work=72*
 50: 0x0280 [0x45] LOAD_SCHEDULED_TASK: Load scheduler "ovl1" with entities [Sueleen (ID: 16908457/0x010200A9), Sueleen (ID: 16908457/0x010200A9)], work=[200*, 0*]
 51: 0x0291 [0x45] LOAD_SCHEDULED_TASK: Load scheduler "r001" with entities [LocalPlayer, LocalPlayer], work=[72*, 0*]
 52: 0x02A2 [0x1C] WAIT(220* ticks)
 53: 0x02A5 [0x45] LOAD_SCHEDULED_TASK: Load scheduler "who3" with entities [LocalPlayer, LocalPlayer], work=[108*, 0*]
 54: 0x02B6 [0x45] LOAD_SCHEDULED_TASK: Load scheduler "bash" with entities [LocalPlayer, LocalPlayer], work=[108*, 0*]
 55: 0x02C7 [0x55] WAIT_LOAD_SCHEDULER: Wait for scheduler "who3" with entities [LocalPlayer, LocalPlayer], work=108*
 56: 0x02D6 [0x52] END_LOAD_SCHEDULER: End scheduler "r001" with entities [LocalPlayer, LocalPlayer], work=72*
 57: 0x02E5 [0x45] LOAD_SCHEDULED_TASK: Load scheduler "blof" with entities [LocalPlayer, LocalPlayer], work=[200*, 0*]
 58: 0x02F6 [0x2D] CREATE_ZONE_SCHEDULER_TASK: Create scheduler "4end" with entities [EventEntity, EventEntity]
 59: 0x0303 [0x45] LOAD_SCHEDULED_TASK: Load scheduler "fdo1" with entities [LocalPlayer, LocalPlayer], work=[200*, 0*]
 60: 0x0314 [0x55] WAIT_LOAD_SCHEDULER: Wait for scheduler "fdo1" with entities [LocalPlayer, LocalPlayer], work=200*
 61: 0x0323 [0x02] IF !(ExtData[1]->WorkLocal[0] == 1*) GOTO 0x0350
 62: 0x032B [0x29] REQ_SET_WAIT(priority=0x03, entity_id=ship (ID: 16908447/0x0102009F), tag_num=0x15)
 63: 0x0332 [0x46] CAMERA_CONTROL: Restore default settings
 64: 0x0334 [0x5C] MUSIC_CONTROL: Set Idle (Day) music to song 245*
 65: 0x0338 [0x5C] MUSIC_CONTROL: Set Idle (Night) music to song 245*
 66: 0x033C [0x45] LOAD_SCHEDULED_TASK: Load scheduler "fdi2" with entities [LocalPlayer, LocalPlayer], work=[200*, 0*]
 67: 0x034D [0x01] GOTO 0x0356
 68: 0x0350 [0x03] Work_Zone[1] = 1*
 69: 0x0355 [0x30] SET_UCOFF_CONTINUE_ZERO()

SUBROUTINE_0356:
 70: 0x0356 [0x45] LOAD_SCHEDULED_TASK: Load scheduler "whi1" with entities [LocalPlayer, LocalPlayer], work=[201*, 0*]
 71: 0x0367 [0x01] GOTO 0x036A

SUBROUTINE_036A:
 72: 0x036A [0x21] END_EVENT
 73: 0x036B [0x00] END_REQSTACK()
```

### Event 13

#### Metadata

| Field        | Value    |
|--------------|----------|
| Entrypoint   | 0x036C   |
| Data Size    | 13 bytes |
| Instructions | 3        |

```
      00 01 02 03 04 05 06 07  08 09 0A 0B 0C 0D 0E 0F
      -- -- -- -- -- -- -- --  -- -- -- -- -- -- -- --
0360:                                      94 00 F8 FF              ....
0370: FF 7F 92 01 F8 FF FF 7F  00                       .........       
```

#### Opcodes

```
  0: 0x036C [0x94] EventEntity->Render.Flags3 = Flags3  // No change (flag=0)
  1: 0x0372 [0x92] EventEntity->Render.Flags3 ^= 0x01
  2: 0x0378 [0x00] END_REQSTACK()
```

### Event 16

#### Metadata

| Field        | Value   |
|--------------|---------|
| Entrypoint   | 0x0379  |
| Data Size    | 1 bytes |
| Instructions | 1       |

```
      00 01 02 03 04 05 06 07  08 09 0A 0B 0C 0D 0E 0F
      -- -- -- -- -- -- -- --  -- -- -- -- -- -- -- --
0370:                             00                             .      
```

#### Opcodes

```
  0: 0x0379 [0x00] END_REQSTACK()
```

### Event 20

#### Metadata

| Field        | Value    |
|--------------|----------|
| Entrypoint   | 0x037A   |
| Data Size    | 30 bytes |
| Instructions | 8        |

```
      00 01 02 03 04 05 06 07  08 09 0A 0B 0C 0D 0E 0F
      -- -- -- -- -- -- -- --  -- -- -- -- -- -- -- --
0370:                                1E F0 FF FF 7F 1D            ......
0380: 1A 80 23 66 10 80 A9 00  02 01 A9 00 02 01 74 6C  ..#f..........tl
0390: 6B 30 1D 1B 80 23 21 00                           k0...#!.        
```

#### Opcodes

```
  0: 0x037A [0x1E] EventEntity looks at LocalPlayer and starts talking
  1: 0x037F [0x1D] PRINT_EVENT_MESSAGE(message_id=7644*)
    → "The Sealion's Den once served as a private port for the Tavnazian Cathedral."
  2: 0x0382 [0x23] WAIT_FOR_DIALOG_INTERACTION
  3: 0x0383 [0x66] LOAD_EXT_SCHEDULER_MAIN: Load scheduler "tlk0" with entities [Sueleen (ID: 16908457/0x010200A9), Sueleen (ID: 16908457/0x010200A9)], work=10*
  4: 0x0392 [0x1D] PRINT_EVENT_MESSAGE(message_id=7645*)
    → "However, not a single ship has visited this place in over twenty years. I'm only stationed here to make sure no beastmen try to sneak their way into the safehold."
  5: 0x0395 [0x23] WAIT_FOR_DIALOG_INTERACTION
  6: 0x0396 [0x21] END_EVENT
  7: 0x0397 [0x00] END_REQSTACK()
```

### Event 21

#### Metadata

| Field        | Value    |
|--------------|----------|
| Entrypoint   | 0x0398   |
| Data Size    | 30 bytes |
| Instructions | 8        |

```
      00 01 02 03 04 05 06 07  08 09 0A 0B 0C 0D 0E 0F
      -- -- -- -- -- -- -- --  -- -- -- -- -- -- -- --
0390:                          1E F0 FF FF 7F 1D 1C 80          ........
03A0: 23 66 10 80 A9 00 02 01  A9 00 02 01 74 6C 6B 30  #f..........tlk0
03B0: 1D 1D 80 23 21 00                                 ...#!.          
```

#### Opcodes

```
  0: 0x0398 [0x1E] EventEntity looks at LocalPlayer and starts talking
  1: 0x039D [0x1D] PRINT_EVENT_MESSAGE(message_id=7646*)
    → "I never believed the day would come when I saw a ship docked in the Sealion's Den."
  2: 0x03A0 [0x23] WAIT_FOR_DIALOG_INTERACTION
  3: 0x03A1 [0x66] LOAD_EXT_SCHEDULER_MAIN: Load scheduler "tlk0" with entities [Sueleen (ID: 16908457/0x010200A9), Sueleen (ID: 16908457/0x010200A9)], work=10*
  4: 0x03B0 [0x1D] PRINT_EVENT_MESSAGE(message_id=7647*)
    → "I have a feeling my job is about to become real interesting!"
  5: 0x03B3 [0x23] WAIT_FOR_DIALOG_INTERACTION
  6: 0x03B4 [0x21] END_EVENT
  7: 0x03B5 [0x00] END_REQSTACK()
```

### Event 22

#### Metadata

| Field        | Value    |
|--------------|----------|
| Entrypoint   | 0x03B6   |
| Data Size    | 30 bytes |
| Instructions | 8        |

```
      00 01 02 03 04 05 06 07  08 09 0A 0B 0C 0D 0E 0F
      -- -- -- -- -- -- -- --  -- -- -- -- -- -- -- --
03B0:                   1E F0  FF FF 7F 1D 1E 80 23 66        ........#f
03C0: 10 80 A9 00 02 01 A9 00  02 01 74 6C 6B 30 1D 1F  ..........tlk0..
03D0: 80 23 21 00                                       .#!.            
```

#### Opcodes

```
  0: 0x03B6 [0x1E] EventEntity looks at LocalPlayer and starts talking
  1: 0x03BB [0x1D] PRINT_EVENT_MESSAGE(message_id=7642*)
    → "The airship carrying Prishe and Ulmia just left for San d'Oria."
  2: 0x03BE [0x23] WAIT_FOR_DIALOG_INTERACTION
  3: 0x03BF [0x66] LOAD_EXT_SCHEDULER_MAIN: Load scheduler "tlk0" with entities [Sueleen (ID: 16908457/0x010200A9), Sueleen (ID: 16908457/0x010200A9)], work=10*
  4: 0x03CE [0x1D] PRINT_EVENT_MESSAGE(message_id=7643*)
    → "Someday maybe I'll be lucky enough to ride an airship off the island... Someday..."
  5: 0x03D1 [0x23] WAIT_FOR_DIALOG_INTERACTION
  6: 0x03D2 [0x21] END_EVENT
  7: 0x03D3 [0x00] END_REQSTACK()
```

### Event 23

#### Metadata

| Field        | Value    |
|--------------|----------|
| Entrypoint   | 0x03D4   |
| Data Size    | 11 bytes |
| Instructions | 5        |

```
      00 01 02 03 04 05 06 07  08 09 0A 0B 0C 0D 0E 0F
      -- -- -- -- -- -- -- --  -- -- -- -- -- -- -- --
03D0:             1E F0 FF FF  7F 1D 20 80 23 21 00         ...... .#!. 
```

#### Opcodes

```
  0: 0x03D4 [0x1E] EventEntity looks at LocalPlayer and starts talking
  1: 0x03D9 [0x1D] PRINT_EVENT_MESSAGE(message_id=7652*)
    → "Cid? No one going by that name has passed through here."
  2: 0x03DC [0x23] WAIT_FOR_DIALOG_INTERACTION
  3: 0x03DD [0x21] END_EVENT
  4: 0x03DE [0x00] END_REQSTACK()
```

### Event 24

#### Metadata

| Field        | Value    |
|--------------|----------|
| Entrypoint   | 0x03DF   |
| Data Size    | 49 bytes |
| Instructions | 11       |

```
      00 01 02 03 04 05 06 07  08 09 0A 0B 0C 0D 0E 0F
      -- -- -- -- -- -- -- --  -- -- -- -- -- -- -- --
03D0:                                               1E                 .
03E0: F0 FF FF 7F 1D 21 80 23  66 10 80 A9 00 02 01 A9  .....!.#f.......
03F0: 00 02 01 74 6C 6B 30 1D  22 80 23 66 10 80 A9 00  ...tlk0.".#f....
0400: 02 01 A9 00 02 01 74 6C  6B 31 1D 23 80 23 21 00  ......tlk1.#.#!.
```

#### Opcodes

```
  0: 0x03DF [0x1E] EventEntity looks at LocalPlayer and starts talking
  1: 0x03E4 [0x1D] PRINT_EVENT_MESSAGE(message_id=7686*)
    → "Ulmia told me that we may never see Prishe again..."
  2: 0x03E7 [0x23] WAIT_FOR_DIALOG_INTERACTION
  3: 0x03E8 [0x66] LOAD_EXT_SCHEDULER_MAIN: Load scheduler "tlk0" with entities [Sueleen (ID: 16908457/0x010200A9), Sueleen (ID: 16908457/0x010200A9)], work=10*
  4: 0x03F7 [0x1D] PRINT_EVENT_MESSAGE(message_id=7687*)
    → "...That Prishe is ready to sacrifice herself to the Wyrmking to save the world..."
  5: 0x03FA [0x23] WAIT_FOR_DIALOG_INTERACTION
  6: 0x03FB [0x66] LOAD_EXT_SCHEDULER_MAIN: Load scheduler "tlk1" with entities [Sueleen (ID: 16908457/0x010200A9), Sueleen (ID: 16908457/0x010200A9)], work=10*
  7: 0x040A [0x1D] PRINT_EVENT_MESSAGE(message_id=7688*)
    → "But you won't let that happen, will you, <Player>? You'll find a way to save Prishe, Ulmia, and everybody, right?"
  8: 0x040D [0x23] WAIT_FOR_DIALOG_INTERACTION
  9: 0x040E [0x21] END_EVENT
 10: 0x040F [0x00] END_REQSTACK()
```

### Event 25

#### Metadata

| Field        | Value    |
|--------------|----------|
| Entrypoint   | 0x0410   |
| Data Size    | 30 bytes |
| Instructions | 8        |

```
      00 01 02 03 04 05 06 07  08 09 0A 0B 0C 0D 0E 0F
      -- -- -- -- -- -- -- --  -- -- -- -- -- -- -- --
0410: 1E F0 FF FF 7F 1D 24 80  23 66 10 80 A9 00 02 01  ......$.#f......
0420: A9 00 02 01 74 6C 6B 30  1D 25 80 23 21 00        ....tlk0.%.#!.  
```

#### Opcodes

```
  0: 0x0410 [0x1E] EventEntity looks at LocalPlayer and starts talking
  1: 0x0415 [0x1D] PRINT_EVENT_MESSAGE(message_id=7856*)
    → "Over the past few months, hundreds of ships have brought thousands of people to our town."
  2: 0x0418 [0x23] WAIT_FOR_DIALOG_INTERACTION
  3: 0x0419 [0x66] LOAD_EXT_SCHEDULER_MAIN: Load scheduler "tlk0" with entities [Sueleen (ID: 16908457/0x010200A9), Sueleen (ID: 16908457/0x010200A9)], work=10*
  4: 0x0428 [0x1D] PRINT_EVENT_MESSAGE(message_id=7857*)
    → "It's like a clock that hasn't run for twenty years has suddenly started ticking again."
  5: 0x042B [0x23] WAIT_FOR_DIALOG_INTERACTION
  6: 0x042C [0x21] END_EVENT
  7: 0x042D [0x00] END_REQSTACK()
```

### Event 26

#### Metadata

| Field        | Value    |
|--------------|----------|
| Entrypoint   | 0x042E   |
| Data Size    | 30 bytes |
| Instructions | 8        |

```
      00 01 02 03 04 05 06 07  08 09 0A 0B 0C 0D 0E 0F
      -- -- -- -- -- -- -- --  -- -- -- -- -- -- -- --
0420:                                            1E F0                ..
0430: FF FF 7F 1D 26 80 23 66  10 80 A9 00 02 01 A9 00  ....&.#f........
0440: 02 01 74 6C 6B 30 1D 27  80 23 21 00              ..tlk0.'.#!.    
```

#### Opcodes

```
  0: 0x042E [0x1E] EventEntity looks at LocalPlayer and starts talking
  1: 0x0433 [0x1D] PRINT_EVENT_MESSAGE(message_id=7648*)
    → "The Chebukki brothers arrived a while back on an airship that was unlike any that had visited our port before."
  2: 0x0436 [0x23] WAIT_FOR_DIALOG_INTERACTION
  3: 0x0437 [0x66] LOAD_EXT_SCHEDULER_MAIN: Load scheduler "tlk0" with entities [Sueleen (ID: 16908457/0x010200A9), Sueleen (ID: 16908457/0x010200A9)], work=10*
  4: 0x0446 [0x1D] PRINT_EVENT_MESSAGE(message_id=7649*)
    → "There were enough weapons on the contraption to blow up an island..."
  5: 0x0449 [0x23] WAIT_FOR_DIALOG_INTERACTION
  6: 0x044A [0x21] END_EVENT
  7: 0x044B [0x00] END_REQSTACK()
```

### Event 27

#### Metadata

| Field        | Value    |
|--------------|----------|
| Entrypoint   | 0x044C   |
| Data Size    | 30 bytes |
| Instructions | 8        |

```
      00 01 02 03 04 05 06 07  08 09 0A 0B 0C 0D 0E 0F
      -- -- -- -- -- -- -- --  -- -- -- -- -- -- -- --
0440:                                      1E F0 FF FF              ....
0450: 7F 1D 28 80 23 66 10 80  A9 00 02 01 A9 00 02 01  ..(.#f..........
0460: 74 6C 6B 30 1D 29 80 23  21 00                    tlk0.).#!.      
```

#### Opcodes

```
  0: 0x044C [0x1E] EventEntity looks at LocalPlayer and starts talking
  1: 0x0451 [0x1D] PRINT_EVENT_MESSAGE(message_id=7650*)
    → "If you're looking for the Chebukki brothers, they headed back to Jeuno a few days ago. Now that you mention it, they looked like they were in quite a hurry."
  2: 0x0454 [0x23] WAIT_FOR_DIALOG_INTERACTION
  3: 0x0455 [0x66] LOAD_EXT_SCHEDULER_MAIN: Load scheduler "tlk0" with entities [Sueleen (ID: 16908457/0x010200A9), Sueleen (ID: 16908457/0x010200A9)], work=10*
  4: 0x0464 [0x1D] PRINT_EVENT_MESSAGE(message_id=7651*)
    → "I guess once you've had a taste of city life, it's hard to come back to the country..."
  5: 0x0467 [0x23] WAIT_FOR_DIALOG_INTERACTION
  6: 0x0468 [0x21] END_EVENT
  7: 0x0469 [0x00] END_REQSTACK()
```

### Event 17

#### Metadata

| Field        | Value   |
|--------------|---------|
| Entrypoint   | 0x046A  |
| Data Size    | 1 bytes |
| Instructions | 1       |

```
      00 01 02 03 04 05 06 07  08 09 0A 0B 0C 0D 0E 0F
      -- -- -- -- -- -- -- --  -- -- -- -- -- -- -- --
0460:                                00                           .     
```

#### Opcodes

```
  0: 0x046A [0x00] END_REQSTACK()
```

### Event 28

#### Metadata

| Field        | Value    |
|--------------|----------|
| Entrypoint   | 0x046B   |
| Data Size    | 30 bytes |
| Instructions | 8        |

```
      00 01 02 03 04 05 06 07  08 09 0A 0B 0C 0D 0E 0F
      -- -- -- -- -- -- -- --  -- -- -- -- -- -- -- --
0460:                                   1E F0 FF FF 7F             .....
0470: 1D 2A 80 23 66 10 80 A9  00 02 01 A9 00 02 01 74  .*.#f..........t
0480: 6C 6B 30 1D 2B 80 23 21  00                       lk0.+.#!.       
```

#### Opcodes

```
  0: 0x046B [0x1E] EventEntity looks at LocalPlayer and starts talking
  1: 0x0470 [0x1D] PRINT_EVENT_MESSAGE(message_id=7873*)
    → "Please, adventurer. Keep Prishe and Ulmia safe from harm."
  2: 0x0473 [0x23] WAIT_FOR_DIALOG_INTERACTION
  3: 0x0474 [0x66] LOAD_EXT_SCHEDULER_MAIN: Load scheduler "tlk0" with entities [Sueleen (ID: 16908457/0x010200A9), Sueleen (ID: 16908457/0x010200A9)], work=10*
  4: 0x0483 [0x1D] PRINT_EVENT_MESSAGE(message_id=7874*)
    → "I want to laugh as I hand back the letters they wrote in case they didn't make it..."
  5: 0x0486 [0x23] WAIT_FOR_DIALOG_INTERACTION
  6: 0x0487 [0x21] END_EVENT
  7: 0x0488 [0x00] END_REQSTACK()
```

### Event 29

#### Metadata

| Field        | Value   |
|--------------|---------|
| Entrypoint   | 0x0489  |
| Data Size    | 1 bytes |
| Instructions | 1       |

```
      00 01 02 03 04 05 06 07  08 09 0A 0B 0C 0D 0E 0F
      -- -- -- -- -- -- -- --  -- -- -- -- -- -- -- --
0480:                             00                             .      
```

#### Opcodes

```
  0: 0x0489 [0x00] END_REQSTACK()
```
