# 16908450

## Common Data

| Field            | Value                  |
|------------------|------------------------|
| Zone             | Sealion's Den (ID: 32) |
| Block Size       | 2228 bytes             |
| Total Events     | 5                      |
| References Count | 50                     |

## List of Events

| Event ID                 | Entrypoint   |   Size |   Instructions |
|--------------------------|--------------|--------|----------------|
| [65535](#event-65535)    | 0x0000       |      1 |              1 |
| [65535.1](#event-655351) | 0x0001       |   1017 |            112 |
| [32001](#event-32001)    | 0x03FA       |      1 |              1 |
| [33](#event-33)          | 0x03FB       |      1 |              1 |
| [14](#event-14)          | 0x03FC       |    970 |            134 |

## DAT References (imed_data)

|   Index | Hex Value   |   Dec Value |
|---------|-------------|-------------|
|       0 | 0x0000      |           0 |
|       1 | 0x0078      |         120 |
|       2 | 0x003C      |          60 |
|       3 | 0x021D      |         541 |
|       4 | 0x000C      |          12 |
|       5 | 0x0010      |          16 |
|       6 | 0x0064      |         100 |
|       7 | 0x61B53     |      400211 |
|       8 | 0x55E58     |      351832 |
|       9 | 0xFFFF981C  |  4294940700 |
|      10 | 0x052F      |        1327 |
|      11 | 0x0073      |         115 |
|      12 | 0x00AB      |         171 |
|      13 | 0x00C9      |         201 |
|      14 | 0x0258      |         600 |
|      15 | 0x1E99      |        7833 |
|      16 | 0x1E9A      |        7834 |
|      17 | 0x00C8      |         200 |
|      18 | 0x1E9B      |        7835 |
|      19 | 0x1E9C      |        7836 |
|      20 | 0x004F      |          79 |
|      21 | 0x0050      |          80 |
|      22 | 0x005A      |          90 |
|      23 | 0x1E9D      |        7837 |
|      24 | 0x012C      |         300 |
|      25 | 0x0020      |          32 |
|      26 | 0x0001      |           1 |
|      27 | 0x00FA      |         250 |
|      28 | 0x0002      |           2 |
|      29 | 0x0013      |          19 |
|      30 | 0x007F      |         127 |
|      31 | 0x0005      |           5 |
|      32 | 0x00AC      |         172 |
|      33 | 0x001E      |          30 |
|      34 | 0x0032      |          50 |
|      35 | 0x1E9E      |        7838 |
|      36 | 0x1E9F      |        7839 |
|      37 | 0x1EA0      |        7840 |
|      38 | 0x1EA1      |        7841 |
|      39 | 0x1EA2      |        7842 |
|      40 | 0x1EA3      |        7843 |
|      41 | 0x0006      |           6 |
|      42 | 0x1EA4      |        7844 |
|      43 | 0x1EA5      |        7845 |
|      44 | 0x1EA6      |        7846 |
|      45 | 0x1EA7      |        7847 |
|      46 | 0x1EA9      |        7849 |
|      47 | 0x065B      |        1627 |
|      48 | 0x00F5      |         245 |
|      49 | 0x00DC      |         220 |

## String References

- **7833**: (Phoenix...)
- **7834**: (Will you return to the mothercrystal along with so many other lives?)
- **7835**: (I understand. Your sacrifice has bought us a sliver of time.)
- **7836**: (Let me release you for your journey to the mothercrystal...)
- **7837**: (Open the path in preparation for [her/him]...)

## Events

### Event 65535

#### Metadata

| Field        | Value   |
|--------------|---------|
| Entrypoint   | 0x0000  |
| Data Size    | 1 bytes |
| Instructions | 1       |

```
      00 01 02 03 04 05 06 07  08 09 0A 0B 0C 0D 0E 0F
      -- -- -- -- -- -- -- --  -- -- -- -- -- -- -- --
0000: 00                                                .               
```

#### Opcodes

```
  0: 0x0000 [0x00] END_REQSTACK()
```

### Event 65535.1

#### Metadata

| Field        | Value      |
|--------------|------------|
| Entrypoint   | 0x0001     |
| Data Size    | 1017 bytes |
| Instructions | 112        |

```
      00 01 02 03 04 05 06 07  08 09 0A 0B 0C 0D 0E 0F
      -- -- -- -- -- -- -- --  -- -- -- -- -- -- -- --
0000:    5D 00 80 01 80 1C 02  80 4E 01 A1 00 02 01 4E   ].......N.....N
0010: 01 90 00 02 01 4E 01 95  00 02 01 4E 01 8D 00 02  .....N.....N....
0020: 01 4E 01 97 00 02 01 4E  01 8F 00 02 01 4E 01 92  .N.....N.....N..
0030: 00 02 01 4E 01 93 00 02  01 4E 01 91 00 02 01 29  ...N.....N.....)
0040: 08 F0 FF FF 7F 0C 29 08  F0 FF FF 7F 0A 4E 00 A3  ......)......N..
0050: 00 02 01 80 A3 00 02 01  34 03 80 77 04 80 05 80  ........4..w....
0060: 1C 06 80 2D F8 FF FF 7F  F8 FF FF 7F 73 63 35 31  ...-........sc51
0070: 2D F8 FF FF 7F F8 FF FF  7F 73 63 35 32 2D F8 FF  -........sc52-..
0080: FF 7F F8 FF FF 7F 73 63  35 33 2D F8 FF FF 7F F8  ......sc53-.....
0090: FF FF 7F 73 63 35 34 4E  01 F0 FF FF 7F 33 01 37  ...sc54N.....3.7
00A0: 07 80 08 80 09 80 0A 80  5C 00 00 80 5C 01 00 80  ........\...\...
00B0: 9F 0B 80 A3 00 02 01 A3  00 02 01 6D 61 69 6E 00  ...........main.
00C0: 80 29 0B A3 00 02 01 33  1C 02 80 45 0C 80 F8 FF  .).....3...E....
00D0: FF 7F F8 FF FF 7F 73 30  34 38 00 80 45 0D 80 F0  ......s048..E...
00E0: FF FF 7F F0 FF FF 7F 77  68 69 31 00 80 1C 0E 80  .......whi1.....
00F0: 29 08 A3 00 02 01 2D 48  0F 80 23 29 08 A3 00 02  ).....-H..#)....
0100: 01 2E 52 0C 80 F8 FF FF  7F F8 FF FF 7F 73 30 34  ..R..........s04
0110: 38 27 0B A3 00 02 01 34  2A 0B A3 00 02 01 48 10  8'.....4*.....H.
0120: 80 23 45 11 80 F0 FF FF  7F F0 FF FF 7F 66 64 6F  .#E..........fdo
0130: 31 00 80 1C 02 80 52 0C  80 A3 00 02 01 A3 00 02  1.....R.........
0140: 01 73 30 35 30 45 0C 80  F8 FF FF 7F F8 FF FF 7F  .s050E..........
0150: 73 30 35 32 00 80 45 11  80 F0 FF FF 7F F0 FF FF  s052..E.........
0160: 7F 66 64 69 31 00 80 29  08 A3 00 02 01 0F 48 12  .fdi1..)......H.
0170: 80 23 29 08 A3 00 02 01  10 9F 0B 80 A3 00 02 01  .#).............
0180: A3 00 02 01 6D 61 69 6E  00 80 7B A3 00 02 01 29  ....main..{....)
0190: 08 A3 00 02 01 11 48 13  80 23 29 08 A3 00 02 01  ......H..#).....
01A0: 12 9F 0B 80 A3 00 02 01  A3 00 02 01 6B 69 6C 6C  ............kill
01B0: 00 80 52 0C 80 F8 FF FF  7F F8 FF FF 7F 73 30 35  ..R..........s05
01C0: 32 45 11 80 F0 FF FF 7F  F0 FF FF 7F 6F 76 6C 31  2E..........ovl1
01D0: 00 80 45 0C 80 F8 FF FF  7F F8 FF FF 7F 73 30 35  ..E..........s05
01E0: 31 00 80 29 08 A3 00 02  01 1F 1C 01 80 29 08 A3  1..).........)..
01F0: 00 02 01 21 1C 02 80 9F  14 80 A3 00 02 01 A3 00  ...!............
0200: 02 01 73 74 72 31 00 80  45 0C 80 F8 FF FF 7F F8  ..str1..E.......
0210: FF FF 7F 73 65 32 33 00  80 1C 15 80 52 0C 80 F8  ...se23.....R...
0220: FF FF 7F F8 FF FF 7F 73  30 35 31 45 11 80 F0 FF  .......s051E....
0230: FF 7F F0 FF FF 7F 6F 76  6C 31 00 80 45 0C 80 F8  ......ovl1..E...
0240: FF FF 7F F8 FF FF 7F 73  30 35 34 00 80 1C 01 80  .......s054.....
0250: 52 0C 80 F8 FF FF 7F F8  FF FF 7F 73 30 35 34 45  R..........s054E
0260: 0C 80 F8 FF FF 7F F8 FF  FF 7F 73 30 35 33 00 80  ..........s053..
0270: 45 0C 80 F8 FF FF 7F F8  FF FF 7F 73 65 33 36 00  E..........se36.
0280: 80 9F 0B 80 A3 00 02 01  A3 00 02 01 6D 61 69 6E  ............main
0290: 00 80 2D F8 FF FF 7F F8  FF FF 7F 6B 63 35 31 2D  ..-........kc51-
02A0: F8 FF FF 7F F8 FF FF 7F  6B 63 35 32 2D F8 FF FF  ........kc52-...
02B0: 7F F8 FF FF 7F 6B 63 35  33 2D F8 FF FF 7F F8 FF  .....kc53-......
02C0: FF 7F 6B 63 35 34 1C 11  80 45 0C 80 F8 FF FF 7F  ..kc54...E......
02D0: F8 FF FF 7F 73 65 33 65  00 80 45 0D 80 F0 FF FF  ....se3e..E.....
02E0: 7F F0 FF FF 7F 77 68 6F  31 00 80 1C 16 80 9F 0B  .....who1.......
02F0: 80 A3 00 02 01 A3 00 02  01 6B 69 6C 6C 00 80 52  .........kill..R
0300: 0C 80 F8 FF FF 7F F8 FF  FF 7F 73 30 35 33 9F 14  ..........s053..
0310: 80 A3 00 02 01 A3 00 02  01 6B 69 6C 6C 00 80 45  .........kill..E
0320: 11 80 F0 FF FF 7F F0 FF  FF 7F 66 64 6F 31 00 80  ..........fdo1..
0330: 1C 02 80 45 0C 80 F8 FF  FF 7F F8 FF FF 7F 73 65  ...E..........se
0340: 33 37 00 80 48 17 80 23  1C 18 80 45 0D 80 F0 FF  37..H..#...E....
0350: FF 7F F0 FF FF 7F 77 68  69 31 00 80 34 19 80 77  ......whi1..4..w
0360: 04 80 1A 80 1C 06 80 2D  F8 FF FF 7F F8 FF FF 7F  .......-........
0370: 65 6E 64 66 45 0C 80 F8  FF FF 7F F8 FF FF 7F 73  endfE..........s
0380: 30 35 35 00 80 45 11 80  F0 FF FF 7F F0 FF FF 7F  055..E..........
0390: 66 64 69 31 00 80 45 0C  80 F8 FF FF 7F F8 FF FF  fdi1..E.........
03A0: 7F 73 65 33 38 00 80 2D  F8 FF FF 7F F8 FF FF 7F  .se38..-........
03B0: 6C 77 6F 6E 54 F8 FF FF  7F F8 FF FF 7F 6C 77 6F  lwonT........lwo
03C0: 6E 2D F8 FF FF 7F F8 FF  FF 7F 6C 6F 6F 70 1C 1B  n-........loop..
03D0: 80 45 0D 80 F0 FF FF 7F  F0 FF FF 7F 77 68 6F 31  .E..........who1
03E0: 00 80 1C 02 80 2D F8 FF  FF 7F F8 FF FF 7F 6B 69  .....-........ki
03F0: 6C 6C 35 19 80 78 1C 01  80 00                    ll5..x....      
```

#### Opcodes

```
  0: 0x0001 [0x5D] SET_MUSIC_VOLUME(volume=0*, fade_time=120*)
  1: 0x0006 [0x1C] WAIT(60* ticks)
  2: 0x0009 [0x4E] SET_ENTITY_HIDE_FLAG: Hide Bahamut (ID: 16908449/0x010200A1)
  3: 0x000F [0x4E] SET_ENTITY_HIDE_FLAG: Hide Tenzen (ID: 16908432/0x01020090)
  4: 0x0015 [0x4E] SET_ENTITY_HIDE_FLAG: Hide Shikaree Z (ID: 16908437/0x01020095)
  5: 0x001B [0x4E] SET_ENTITY_HIDE_FLAG: Hide Prishe (ID: 16908429/0x0102008D)
  6: 0x0021 [0x4E] SET_ENTITY_HIDE_FLAG: Hide Esha'ntarl (ID: 16908439/0x01020097)
  7: 0x0027 [0x4E] SET_ENTITY_HIDE_FLAG: Hide Ulmia (ID: 16908431/0x0102008F)
  8: 0x002D [0x4E] SET_ENTITY_HIDE_FLAG: Hide Kukki-Chebukki (ID: 16908434/0x01020092)
  9: 0x0033 [0x4E] SET_ENTITY_HIDE_FLAG: Hide Makki-Chebukki (ID: 16908435/0x01020093)
 10: 0x0039 [0x4E] SET_ENTITY_HIDE_FLAG: Hide Cherukiki (ID: 16908433/0x01020091)
 11: 0x003F [0x29] REQ_SET_WAIT(priority=0x08, entity_id=LocalPlayer, tag_num=0x0C)
 12: 0x0046 [0x29] REQ_SET_WAIT(priority=0x08, entity_id=LocalPlayer, tag_num=0x0A)
 13: 0x004D [0x4E] SET_ENTITY_HIDE_FLAG: Show Selh'teus (ID: 16908451/0x010200A3)
 14: 0x0053 [0x80] LOAD_WAIT(entity=Selh'teus (ID: 16908451/0x010200A3))
 15: 0x0058 [0x34] LOAD_UNLOAD_ZONE(zone_id=541*)
 16: 0x005B [0x77] SET_EVENT_TIME_WEATHER(hour=12*, weather=16*)
 17: 0x0060 [0x1C] WAIT(100* ticks)
 18: 0x0063 [0x2D] CREATE_ZONE_SCHEDULER_TASK: Create scheduler "sc51" with entities [EventEntity, EventEntity]
 19: 0x0070 [0x2D] CREATE_ZONE_SCHEDULER_TASK: Create scheduler "sc52" with entities [EventEntity, EventEntity]
 20: 0x007D [0x2D] CREATE_ZONE_SCHEDULER_TASK: Create scheduler "sc53" with entities [EventEntity, EventEntity]
 21: 0x008A [0x2D] CREATE_ZONE_SCHEDULER_TASK: Create scheduler "sc54" with entities [EventEntity, EventEntity]
 22: 0x0097 [0x4E] SET_ENTITY_HIDE_FLAG: Hide LocalPlayer
 23: 0x009D [0x33] EventEntity->Render.Flags0 |= 0x200000 // Bit 21 (flag=0x01)
 24: 0x009F [0x37] UPDATE_EVENT_POSITION_AND_DIR: x=400.211*, z=351.832*, y=-26.596*, direction=116.6°*
 25: 0x00A8 [0x5C] MUSIC_CONTROL: Set Idle (Day) music to song 0*
 26: 0x00AC [0x5C] MUSIC_CONTROL: Set Idle (Night) music to song 0*
 27: 0x00B0 [0x9F] LOAD_SCHEDULED_TASK_ALT: Load scheduler "main" with entities [Selh'teus (ID: 16908451/0x010200A3), Selh'teus (ID: 16908451/0x010200A3)], work=[115*, 0*]
 28: 0x00C1 [0x29] REQ_SET_WAIT(priority=0x0B, entity_id=Selh'teus (ID: 16908451/0x010200A3), tag_num=0x33)
 29: 0x00C8 [0x1C] WAIT(60* ticks)
 30: 0x00CB [0x45] LOAD_SCHEDULED_TASK: Load scheduler "s048" with entities [EventEntity, EventEntity], work=[171*, 0*]
 31: 0x00DC [0x45] LOAD_SCHEDULED_TASK: Load scheduler "whi1" with entities [LocalPlayer, LocalPlayer], work=[201*, 0*]
 32: 0x00ED [0x1C] WAIT(600* ticks)
 33: 0x00F0 [0x29] REQ_SET_WAIT(priority=0x08, entity_id=Selh'teus (ID: 16908451/0x010200A3), tag_num=0x2D)
 34: 0x00F7 [0x48] [System] [7833*]:
    → "(Phoenix...)"
 35: 0x00FA [0x23] WAIT_FOR_DIALOG_INTERACTION
 36: 0x00FB [0x29] REQ_SET_WAIT(priority=0x08, entity_id=Selh'teus (ID: 16908451/0x010200A3), tag_num=0x2E)
 37: 0x0102 [0x52] END_LOAD_SCHEDULER: End scheduler "s048" with entities [EventEntity, EventEntity], work=171*
 38: 0x0111 [0x27] REQ_SET(priority=0x0B, entity_id=Selh'teus (ID: 16908451/0x010200A3), tag_num=0x34)
 39: 0x0118 [0x2A] GET_REQ_LEVEL(level=11, entity_id=Selh'teus (ID: 16908451/0x010200A3))
 40: 0x011E [0x48] [System] [7834*]:
    → "(Will you return to the mothercrystal along with so many other lives?)"
 41: 0x0121 [0x23] WAIT_FOR_DIALOG_INTERACTION
 42: 0x0122 [0x45] LOAD_SCHEDULED_TASK: Load scheduler "fdo1" with entities [LocalPlayer, LocalPlayer], work=[200*, 0*]
 43: 0x0133 [0x1C] WAIT(60* ticks)
 44: 0x0136 [0x52] END_LOAD_SCHEDULER: End scheduler "s050" with entities [Selh'teus (ID: 16908451/0x010200A3), Selh'teus (ID: 16908451/0x010200A3)], work=171*
 45: 0x0145 [0x45] LOAD_SCHEDULED_TASK: Load scheduler "s052" with entities [EventEntity, EventEntity], work=[171*, 0*]
 46: 0x0156 [0x45] LOAD_SCHEDULED_TASK: Load scheduler "fdi1" with entities [LocalPlayer, LocalPlayer], work=[200*, 0*]
 47: 0x0167 [0x29] REQ_SET_WAIT(priority=0x08, entity_id=Selh'teus (ID: 16908451/0x010200A3), tag_num=0x0F)
 48: 0x016E [0x48] [System] [7835*]:
    → "(I understand. Your sacrifice has bought us a sliver of time.)"
 49: 0x0171 [0x23] WAIT_FOR_DIALOG_INTERACTION
 50: 0x0172 [0x29] REQ_SET_WAIT(priority=0x08, entity_id=Selh'teus (ID: 16908451/0x010200A3), tag_num=0x10)
 51: 0x0179 [0x9F] LOAD_SCHEDULED_TASK_ALT: Load scheduler "main" with entities [Selh'teus (ID: 16908451/0x010200A3), Selh'teus (ID: 16908451/0x010200A3)], work=[115*, 0*]
 52: 0x018A [0x7B] Selh'teus (ID: 16908451/0x010200A3) stops talking
 53: 0x018F [0x29] REQ_SET_WAIT(priority=0x08, entity_id=Selh'teus (ID: 16908451/0x010200A3), tag_num=0x11)
 54: 0x0196 [0x48] [System] [7836*]:
    → "(Let me release you for your journey to the mothercrystal...)"
 55: 0x0199 [0x23] WAIT_FOR_DIALOG_INTERACTION
 56: 0x019A [0x29] REQ_SET_WAIT(priority=0x08, entity_id=Selh'teus (ID: 16908451/0x010200A3), tag_num=0x12)
 57: 0x01A1 [0x9F] LOAD_SCHEDULED_TASK_ALT: Load scheduler "kill" with entities [Selh'teus (ID: 16908451/0x010200A3), Selh'teus (ID: 16908451/0x010200A3)], work=[115*, 0*]
 58: 0x01B2 [0x52] END_LOAD_SCHEDULER: End scheduler "s052" with entities [EventEntity, EventEntity], work=171*
 59: 0x01C1 [0x45] LOAD_SCHEDULED_TASK: Load scheduler "ovl1" with entities [LocalPlayer, LocalPlayer], work=[200*, 0*]
 60: 0x01D2 [0x45] LOAD_SCHEDULED_TASK: Load scheduler "s051" with entities [EventEntity, EventEntity], work=[171*, 0*]
 61: 0x01E3 [0x29] REQ_SET_WAIT(priority=0x08, entity_id=Selh'teus (ID: 16908451/0x010200A3), tag_num=0x1F)
 62: 0x01EA [0x1C] WAIT(120* ticks)
 63: 0x01ED [0x29] REQ_SET_WAIT(priority=0x08, entity_id=Selh'teus (ID: 16908451/0x010200A3), tag_num=0x21)
 64: 0x01F4 [0x1C] WAIT(60* ticks)
 65: 0x01F7 [0x9F] LOAD_SCHEDULED_TASK_ALT: Load scheduler "str1" with entities [Selh'teus (ID: 16908451/0x010200A3), Selh'teus (ID: 16908451/0x010200A3)], work=[79*, 0*]
 66: 0x0208 [0x45] LOAD_SCHEDULED_TASK: Load scheduler "se23" with entities [EventEntity, EventEntity], work=[171*, 0*]
 67: 0x0219 [0x1C] WAIT(80* ticks)
 68: 0x021C [0x52] END_LOAD_SCHEDULER: End scheduler "s051" with entities [EventEntity, EventEntity], work=171*
 69: 0x022B [0x45] LOAD_SCHEDULED_TASK: Load scheduler "ovl1" with entities [LocalPlayer, LocalPlayer], work=[200*, 0*]
 70: 0x023C [0x45] LOAD_SCHEDULED_TASK: Load scheduler "s054" with entities [EventEntity, EventEntity], work=[171*, 0*]
 71: 0x024D [0x1C] WAIT(120* ticks)
 72: 0x0250 [0x52] END_LOAD_SCHEDULER: End scheduler "s054" with entities [EventEntity, EventEntity], work=171*
 73: 0x025F [0x45] LOAD_SCHEDULED_TASK: Load scheduler "s053" with entities [EventEntity, EventEntity], work=[171*, 0*]
 74: 0x0270 [0x45] LOAD_SCHEDULED_TASK: Load scheduler "se36" with entities [EventEntity, EventEntity], work=[171*, 0*]
 75: 0x0281 [0x9F] LOAD_SCHEDULED_TASK_ALT: Load scheduler "main" with entities [Selh'teus (ID: 16908451/0x010200A3), Selh'teus (ID: 16908451/0x010200A3)], work=[115*, 0*]
 76: 0x0292 [0x2D] CREATE_ZONE_SCHEDULER_TASK: Create scheduler "kc51" with entities [EventEntity, EventEntity]
 77: 0x029F [0x2D] CREATE_ZONE_SCHEDULER_TASK: Create scheduler "kc52" with entities [EventEntity, EventEntity]
 78: 0x02AC [0x2D] CREATE_ZONE_SCHEDULER_TASK: Create scheduler "kc53" with entities [EventEntity, EventEntity]
 79: 0x02B9 [0x2D] CREATE_ZONE_SCHEDULER_TASK: Create scheduler "kc54" with entities [EventEntity, EventEntity]
 80: 0x02C6 [0x1C] WAIT(200* ticks)
 81: 0x02C9 [0x45] LOAD_SCHEDULED_TASK: Load scheduler "se3e" with entities [EventEntity, EventEntity], work=[171*, 0*]
 82: 0x02DA [0x45] LOAD_SCHEDULED_TASK: Load scheduler "who1" with entities [LocalPlayer, LocalPlayer], work=[201*, 0*]
 83: 0x02EB [0x1C] WAIT(90* ticks)
 84: 0x02EE [0x9F] LOAD_SCHEDULED_TASK_ALT: Load scheduler "kill" with entities [Selh'teus (ID: 16908451/0x010200A3), Selh'teus (ID: 16908451/0x010200A3)], work=[115*, 0*]
 85: 0x02FF [0x52] END_LOAD_SCHEDULER: End scheduler "s053" with entities [EventEntity, EventEntity], work=171*
 86: 0x030E [0x9F] LOAD_SCHEDULED_TASK_ALT: Load scheduler "kill" with entities [Selh'teus (ID: 16908451/0x010200A3), Selh'teus (ID: 16908451/0x010200A3)], work=[79*, 0*]
 87: 0x031F [0x45] LOAD_SCHEDULED_TASK: Load scheduler "fdo1" with entities [LocalPlayer, LocalPlayer], work=[200*, 0*]
 88: 0x0330 [0x1C] WAIT(60* ticks)
 89: 0x0333 [0x45] LOAD_SCHEDULED_TASK: Load scheduler "se37" with entities [EventEntity, EventEntity], work=[171*, 0*]
 90: 0x0344 [0x48] [System] [7837*]:
    → "(Open the path in preparation for [her/him]...)"
 91: 0x0347 [0x23] WAIT_FOR_DIALOG_INTERACTION
 92: 0x0348 [0x1C] WAIT(300* ticks)
 93: 0x034B [0x45] LOAD_SCHEDULED_TASK: Load scheduler "whi1" with entities [LocalPlayer, LocalPlayer], work=[201*, 0*]
 94: 0x035C [0x34] LOAD_UNLOAD_ZONE(zone_id=32*)
 95: 0x035F [0x77] SET_EVENT_TIME_WEATHER(hour=12*, weather=1*)
 96: 0x0364 [0x1C] WAIT(100* ticks)
 97: 0x0367 [0x2D] CREATE_ZONE_SCHEDULER_TASK: Create scheduler "endf" with entities [EventEntity, EventEntity]
 98: 0x0374 [0x45] LOAD_SCHEDULED_TASK: Load scheduler "s055" with entities [EventEntity, EventEntity], work=[171*, 0*]
 99: 0x0385 [0x45] LOAD_SCHEDULED_TASK: Load scheduler "fdi1" with entities [LocalPlayer, LocalPlayer], work=[200*, 0*]
100: 0x0396 [0x45] LOAD_SCHEDULED_TASK: Load scheduler "se38" with entities [EventEntity, EventEntity], work=[171*, 0*]
101: 0x03A7 [0x2D] CREATE_ZONE_SCHEDULER_TASK: Create scheduler "lwon" with entities [EventEntity, EventEntity]
102: 0x03B4 [0x54] WAIT_MAP_SCHEDULER: Wait for scheduler "lwon" with entities [EventEntity, EventEntity]
103: 0x03C1 [0x2D] CREATE_ZONE_SCHEDULER_TASK: Create scheduler "loop" with entities [EventEntity, EventEntity]
104: 0x03CE [0x1C] WAIT(250* ticks)
105: 0x03D1 [0x45] LOAD_SCHEDULED_TASK: Load scheduler "who1" with entities [LocalPlayer, LocalPlayer], work=[201*, 0*]
106: 0x03E2 [0x1C] WAIT(60* ticks)
107: 0x03E5 [0x2D] CREATE_ZONE_SCHEDULER_TASK: Create scheduler "kill" with entities [EventEntity, EventEntity]
108: 0x03F2 [0x35] LOAD_ZONE_NO_CLOSE(zone_id=32*)
109: 0x03F5 [0x78] ENABLE_GAME_TIMER_RESET_WEATHER()
110: 0x03F6 [0x1C] WAIT(120* ticks)
111: 0x03F9 [0x00] END_REQSTACK()
```

### Event 32001

#### Metadata

| Field        | Value   |
|--------------|---------|
| Entrypoint   | 0x03FA  |
| Data Size    | 1 bytes |
| Instructions | 1       |

```
      00 01 02 03 04 05 06 07  08 09 0A 0B 0C 0D 0E 0F
      -- -- -- -- -- -- -- --  -- -- -- -- -- -- -- --
03F0:                                00                           .     
```

#### Opcodes

```
  0: 0x03FA [0x00] END_REQSTACK()
```

### Event 33

#### Metadata

| Field        | Value   |
|--------------|---------|
| Entrypoint   | 0x03FB  |
| Data Size    | 1 bytes |
| Instructions | 1       |

```
      00 01 02 03 04 05 06 07  08 09 0A 0B 0C 0D 0E 0F
      -- -- -- -- -- -- -- --  -- -- -- -- -- -- -- --
03F0:                                   00                         .    
```

#### Opcodes

```
  0: 0x03FB [0x00] END_REQSTACK()
```

### Event 14

#### Metadata

| Field        | Value     |
|--------------|-----------|
| Entrypoint   | 0x03FC    |
| Data Size    | 970 bytes |
| Instructions | 134       |

```
      00 01 02 03 04 05 06 07  08 09 0A 0B 0C 0D 0E 0F
      -- -- -- -- -- -- -- --  -- -- -- -- -- -- -- --
03F0:                                      20 01 42 46               .BF
0400: 01 5D 00 80 1C 80 45 11  80 F8 FF FF 7F F8 FF FF  .]....E.........
0410: 7F 66 64 6F 31 00 80 1C  02 80 38 1D 80 29 08 F0  .fdo1.....8..)..
0420: FF FF 7F 0C 29 0B F0 FF  FF 7F 13 29 0B A4 00 02  ....)......)....
0430: 01 30 29 0B A5 00 02 01  02 4E 00 F0 FF FF 7F 4E  .0)......N.....N
0440: 00 A4 00 02 01 4E 00 A5  00 02 01 80 F0 FF FF 7F  .....N..........
0450: 80 A4 00 02 01 80 A5 00  02 01 5C 00 1E 80 5C 01  ..........\...\.
0460: 1E 80 1C 06 80 79 00 A4  00 02 01 F0 FF FF 7F 79  .....y.........y
0470: 00 A5 00 02 01 F0 FF FF  7F 7B F0 FF FF 7F 27 0B  .........{....'.
0480: F0 FF FF 7F 14 1C 1F 80  45 20 80 F8 FF FF 7F F8  ........E ......
0490: FF FF 7F 73 30 37 31 00  80 45 11 80 F8 FF FF 7F  ...s071..E......
04A0: F8 FF FF 7F 66 64 69 31  00 80 1C 06 80 29 0B 84  ....fdi1.....)..
04B0: 00 02 01 03 1C 01 80 27  0B A4 00 02 01 31 27 0B  .......'.....1'.
04C0: A5 00 02 01 03 1C 21 80  52 20 80 F8 FF FF 7F F8  ......!.R ......
04D0: FF FF 7F 73 30 37 31 45  20 80 F8 FF FF 7F F8 FF  ...s071E .......
04E0: FF 7F 73 30 37 32 00 80  1C 15 80 79 00 F0 FF FF  ..s072.....y....
04F0: 7F A5 00 02 01 1C 22 80  52 20 80 F8 FF FF 7F F8  ......".R ......
0500: FF FF 7F 73 30 37 32 45  20 80 F8 FF FF 7F F8 FF  ...s072E .......
0510: FF 7F 73 30 37 33 00 80  29 0B 84 00 02 01 04 7B  ..s073..)......{
0520: A4 00 02 01 7B A5 00 02  01 2B A4 00 02 01 23 80  ....{....+....#.
0530: 23 2B A5 00 02 01 24 80  23 2A 0B A4 00 02 01 2A  #+....$.#*.....*
0540: 0B A5 00 02 01 52 20 80  F8 FF FF 7F F8 FF FF 7F  .....R .........
0550: 73 30 37 33 45 20 80 F8  FF FF 7F F8 FF FF 7F 73  s073E .........s
0560: 30 37 34 00 80 2B A5 00  02 01 25 80 23 2A 0B F0  074..+....%.#*..
0570: FF FF 7F 29 0B F0 FF FF  7F 15 79 00 F0 FF FF 7F  ...)......y.....
0580: A5 00 02 01 2B A5 00 02  01 26 80 23 52 20 80 F8  ....+....&.#R ..
0590: FF FF 7F F8 FF FF 7F 73  30 37 34 45 20 80 F8 FF  .......s074E ...
05A0: FF 7F F8 FF FF 7F 73 30  37 35 00 80 2B A5 00 02  ......s075..+...
05B0: 01 27 80 23 2B A5 00 02  01 28 80 23 4A A4 00 02  .'.#+....(.#J...
05C0: 01 F0 FF FF 7F 6F 76 A4  00 02 01 52 20 80 F8 FF  .....ov....R ...
05D0: FF 7F F8 FF FF 7F 73 30  37 35 45 11 80 F0 FF FF  ......s075E.....
05E0: 7F F0 FF FF 7F 6F 76 6C  31 00 80 02 09 10 1F 80  .....ovl1.......
05F0: 00 07 06 45 20 80 F8 FF  FF 7F F8 FF FF 7F 73 30  ...E .........s0
0600: 38 30 00 80 01 34 06 02  09 10 29 80 00 23 06 45  80...4....)..#.E
0610: 20 80 F8 FF FF 7F F8 FF  FF 7F 73 30 38 30 00 80   .........s080..
0620: 01 34 06 45 20 80 F8 FF  FF 7F F8 FF FF 7F 73 30  .4.E .........s0
0630: 37 36 00 80 79 00 F0 FF  FF 7F A4 00 02 01 29 08  76..y.........).
0640: A4 00 02 01 05 2B A4 00  02 01 2A 80 23 29 08 A4  .....+....*.#)..
0650: 00 02 01 06 29 08 A4 00  02 01 07 2B A4 00 02 01  ....)......+....
0660: 2B 80 23 29 08 A4 00 02  01 08 02 09 10 1F 80 00  +.#)............
0670: 84 06 52 20 80 F8 FF FF  7F F8 FF FF 7F 73 30 38  ..R .........s08
0680: 30 01 AD 06 02 09 10 29  80 00 9E 06 52 20 80 F8  0......)....R ..
0690: FF FF 7F F8 FF FF 7F 73  30 38 30 01 AD 06 52 20  .......s080...R 
06A0: 80 F8 FF FF 7F F8 FF FF  7F 73 30 37 36 45 20 80  .........s076E .
06B0: F8 FF FF 7F F8 FF FF 7F  73 30 37 37 00 80 79 00  ........s077..y.
06C0: A5 00 02 01 A4 00 02 01  27 0B A4 00 02 01 33 2B  ........'.....3+
06D0: A4 00 02 01 2C 80 23 2A  0B A4 00 02 01 2B A4 00  ....,.#*.....+..
06E0: 02 01 2D 80 23 52 20 80  F8 FF FF 7F F8 FF FF 7F  ..-.#R .........
06F0: 73 30 37 37 45 20 80 F8  FF FF 7F F8 FF FF 7F 73  s077E .........s
0700: 30 37 38 00 80 7B A5 00  02 01 4A A4 00 02 01 F0  078..{....J.....
0710: FF FF 7F 6F 76 A4 00 02  01 2B A4 00 02 01 2E 80  ...ov....+......
0720: 23 29 0B F0 FF FF 7F 16  52 20 80 F8 FF FF 7F F8  #)......R ......
0730: FF FF 7F 73 30 37 38 45  20 80 F8 FF FF 7F F8 FF  ...s078E .......
0740: FF 7F 73 30 37 39 00 80  7B A4 00 02 01 27 0B A4  ..s079..{....'..
0750: 00 02 01 34 27 0B A5 00  02 01 05 1C 16 80 4B F0  ...4'.........K.
0760: FF FF 7F 2F 80 6F 76 F0  FF FF 7F 1C 01 80 45 11  .../.ov.......E.
0770: 80 F0 FF FF 7F F0 FF FF  7F 66 64 6F 31 00 80 1C  .........fdo1...
0780: 02 80 5C 00 30 80 5C 01  30 80 5C 02 31 80 5C 03  ..\.0.\.0.\.1.\.
0790: 31 80 1C 06 80 52 20 80  F8 FF FF 7F F8 FF FF 7F  1....R .........
07A0: 73 30 37 39 4E 00 F0 FF  FF 7F 80 F0 FF FF 7F 46  s079N..........F
07B0: 00 45 11 80 F0 FF FF 7F  F0 FF FF 7F 66 64 69 31  .E..........fdi1
07C0: 00 80 20 00 21 00                                 .. .!.          
```

#### Opcodes

```
  0: 0x03FC [0x20] SET_CLI_EVENT_UC_FLAG: Lock player control
  1: 0x03FE [0x42] SET_CLI_EVENT_CANCEL_DATA()
  2: 0x03FF [0x46] CAMERA_CONTROL: Disable user control
  3: 0x0401 [0x5D] SET_MUSIC_VOLUME(volume=0*, fade_time=2*)
  4: 0x0406 [0x45] LOAD_SCHEDULED_TASK: Load scheduler "fdo1" with entities [EventEntity, EventEntity], work=[200*, 0*]
  5: 0x0417 [0x1C] WAIT(60* ticks)
  6: 0x041A [0x38] SET_CLIENT_EVENT_MODE(mode=19*)
  7: 0x041D [0x29] REQ_SET_WAIT(priority=0x08, entity_id=LocalPlayer, tag_num=0x0C)
  8: 0x0424 [0x29] REQ_SET_WAIT(priority=0x0B, entity_id=LocalPlayer, tag_num=0x13)
  9: 0x042B [0x29] REQ_SET_WAIT(priority=0x0B, entity_id=Shikaree Z (ID: 16908452/0x010200A4), tag_num=0x30)
 10: 0x0432 [0x29] REQ_SET_WAIT(priority=0x0B, entity_id=Jabbos (ID: 16908453/0x010200A5), tag_num=0x02)
 11: 0x0439 [0x4E] SET_ENTITY_HIDE_FLAG: Show LocalPlayer
 12: 0x043F [0x4E] SET_ENTITY_HIDE_FLAG: Show Shikaree Z (ID: 16908452/0x010200A4)
 13: 0x0445 [0x4E] SET_ENTITY_HIDE_FLAG: Show Jabbos (ID: 16908453/0x010200A5)
 14: 0x044B [0x80] LOAD_WAIT(entity=LocalPlayer)
 15: 0x0450 [0x80] LOAD_WAIT(entity=Shikaree Z (ID: 16908452/0x010200A4))
 16: 0x0455 [0x80] LOAD_WAIT(entity=Jabbos (ID: 16908453/0x010200A5))
 17: 0x045A [0x5C] MUSIC_CONTROL: Set Idle (Day) music to song 127*
 18: 0x045E [0x5C] MUSIC_CONTROL: Set Idle (Night) music to song 127*
 19: 0x0462 [0x1C] WAIT(100* ticks)
 20: 0x0465 [0x79] Shikaree Z (ID: 16908452/0x010200A4) looks at LocalPlayer (Basic look)
 21: 0x046F [0x79] Jabbos (ID: 16908453/0x010200A5) looks at LocalPlayer (Basic look)
 22: 0x0479 [0x7B] LocalPlayer stops talking
 23: 0x047E [0x27] REQ_SET(priority=0x0B, entity_id=LocalPlayer, tag_num=0x14)
 24: 0x0485 [0x1C] WAIT(5* ticks)
 25: 0x0488 [0x45] LOAD_SCHEDULED_TASK: Load scheduler "s071" with entities [EventEntity, EventEntity], work=[172*, 0*]
 26: 0x0499 [0x45] LOAD_SCHEDULED_TASK: Load scheduler "fdi1" with entities [EventEntity, EventEntity], work=[200*, 0*]
 27: 0x04AA [0x1C] WAIT(100* ticks)
 28: 0x04AD [0x29] REQ_SET_WAIT(priority=0x0B, entity_id=Iron Gate (ID: 16908420/0x01020084), tag_num=0x03)
 29: 0x04B4 [0x1C] WAIT(120* ticks)
 30: 0x04B7 [0x27] REQ_SET(priority=0x0B, entity_id=Shikaree Z (ID: 16908452/0x010200A4), tag_num=0x31)
 31: 0x04BE [0x27] REQ_SET(priority=0x0B, entity_id=Jabbos (ID: 16908453/0x010200A5), tag_num=0x03)
 32: 0x04C5 [0x1C] WAIT(30* ticks)
 33: 0x04C8 [0x52] END_LOAD_SCHEDULER: End scheduler "s071" with entities [EventEntity, EventEntity], work=172*
 34: 0x04D7 [0x45] LOAD_SCHEDULED_TASK: Load scheduler "s072" with entities [EventEntity, EventEntity], work=[172*, 0*]
 35: 0x04E8 [0x1C] WAIT(80* ticks)
 36: 0x04EB [0x79] LocalPlayer looks at Jabbos (ID: 16908453/0x010200A5) (Basic look)
 37: 0x04F5 [0x1C] WAIT(50* ticks)
 38: 0x04F8 [0x52] END_LOAD_SCHEDULER: End scheduler "s072" with entities [EventEntity, EventEntity], work=172*
 39: 0x0507 [0x45] LOAD_SCHEDULED_TASK: Load scheduler "s073" with entities [EventEntity, EventEntity], work=[172*, 0*]
 40: 0x0518 [0x29] REQ_SET_WAIT(priority=0x0B, entity_id=Iron Gate (ID: 16908420/0x01020084), tag_num=0x04)
 41: 0x051F [0x7B] Shikaree Z (ID: 16908452/0x010200A4) stops talking
 42: 0x0524 [0x7B] Jabbos (ID: 16908453/0x010200A5) stops talking
 43: 0x0529 [0x2B] Shikaree Z (ID: 16908452/0x010200A4) [7838*]:
    → "<Player>! It is just as Prishe said. You didn't fall from the airship after all."
 44: 0x0530 [0x23] WAIT_FOR_DIALOG_INTERACTION
 45: 0x0531 [0x2B] Jabbos (ID: 16908453/0x010200A5) [7839*]:
    → "Are you wounded...? Tell us...where...you are...hurt..."
 46: 0x0538 [0x23] WAIT_FOR_DIALOG_INTERACTION
 47: 0x0539 [0x2A] GET_REQ_LEVEL(level=11, entity_id=Shikaree Z (ID: 16908452/0x010200A4))
 48: 0x053F [0x2A] GET_REQ_LEVEL(level=11, entity_id=Jabbos (ID: 16908453/0x010200A5))
 49: 0x0545 [0x52] END_LOAD_SCHEDULER: End scheduler "s073" with entities [EventEntity, EventEntity], work=172*
 50: 0x0554 [0x45] LOAD_SCHEDULED_TASK: Load scheduler "s074" with entities [EventEntity, EventEntity], work=[172*, 0*]
 51: 0x0565 [0x2B] Jabbos (ID: 16908453/0x010200A5) [7840*]:
    → "Think carefully... Wounds...of the spirit...can escape...your notice..."
 52: 0x056C [0x23] WAIT_FOR_DIALOG_INTERACTION
 53: 0x056D [0x2A] GET_REQ_LEVEL(level=11, entity_id=LocalPlayer)
 54: 0x0573 [0x29] REQ_SET_WAIT(priority=0x0B, entity_id=LocalPlayer, tag_num=0x15)
 55: 0x057A [0x79] LocalPlayer looks at Jabbos (ID: 16908453/0x010200A5) (Basic look)
 56: 0x0584 [0x2B] Jabbos (ID: 16908453/0x010200A5) [7841*]:
    → "And they are...much more...dangerous...than physical...cuts and bruises..."
 57: 0x058B [0x23] WAIT_FOR_DIALOG_INTERACTION
 58: 0x058C [0x52] END_LOAD_SCHEDULER: End scheduler "s074" with entities [EventEntity, EventEntity], work=172*
 59: 0x059B [0x45] LOAD_SCHEDULED_TASK: Load scheduler "s075" with entities [EventEntity, EventEntity], work=[172*, 0*]
 60: 0x05AC [0x2B] Jabbos (ID: 16908453/0x010200A5) [7842*]:
    → "If you are...wounded...this Moblin...medicine...can help..."
 61: 0x05B3 [0x23] WAIT_FOR_DIALOG_INTERACTION
 62: 0x05B4 [0x2B] Jabbos (ID: 16908453/0x010200A5) [7843*]:
    → "Tenzen...said he...was fine...as well. But he...needs medicine...as much...as you."
 63: 0x05BB [0x23] WAIT_FOR_DIALOG_INTERACTION
 64: 0x05BC [0x4A] Shikaree Z (ID: 16908452/0x010200A4) looks at LocalPlayer
 65: 0x05C5 [0x6F] WAIT_FRAME_DELAY: Yield until WaitTime reaches zero
 66: 0x05C6 [0x76] CHECK_ENTITY_RENDER_FLAGS: Wait until Shikaree Z (ID: 16908452/0x010200A4) Render.Flags0 and Render.Flags3 conditions are met
 67: 0x05CB [0x52] END_LOAD_SCHEDULER: End scheduler "s075" with entities [EventEntity, EventEntity], work=172*
 68: 0x05DA [0x45] LOAD_SCHEDULED_TASK: Load scheduler "ovl1" with entities [LocalPlayer, LocalPlayer], work=[200*, 0*]
 69: 0x05EB [0x02] IF !(Work_Zone[9] == 5*) GOTO 0x0607
 70: 0x05F3 [0x45] LOAD_SCHEDULED_TASK: Load scheduler "s080" with entities [EventEntity, EventEntity], work=[172*, 0*]
 71: 0x0604 [0x01] GOTO 0x0634
 72: 0x0607 [0x02] IF !(Work_Zone[9] == 6*) GOTO 0x0623
 73: 0x060F [0x45] LOAD_SCHEDULED_TASK: Load scheduler "s080" with entities [EventEntity, EventEntity], work=[172*, 0*]
 74: 0x0620 [0x01] GOTO 0x0634
 75: 0x0623 [0x45] LOAD_SCHEDULED_TASK: Load scheduler "s076" with entities [EventEntity, EventEntity], work=[172*, 0*]

SUBROUTINE_0634:
 76: 0x0634 [0x79] LocalPlayer looks at Shikaree Z (ID: 16908452/0x010200A4) (Basic look)
 77: 0x063E [0x29] REQ_SET_WAIT(priority=0x08, entity_id=Shikaree Z (ID: 16908452/0x010200A4), tag_num=0x05)
 78: 0x0645 [0x2B] Shikaree Z (ID: 16908452/0x010200A4) [7844*]:
    → "Do you rrrealize what happened back there?"
 79: 0x064C [0x23] WAIT_FOR_DIALOG_INTERACTION
 80: 0x064D [0x29] REQ_SET_WAIT(priority=0x08, entity_id=Shikaree Z (ID: 16908452/0x010200A4), tag_num=0x06)
 81: 0x0654 [0x29] REQ_SET_WAIT(priority=0x08, entity_id=Shikaree Z (ID: 16908452/0x010200A4), tag_num=0x07)
 82: 0x065B [0x2B] Shikaree Z (ID: 16908452/0x010200A4) [7845*]:
    → "It was your actions that enraged the Wyrmking Bahamut."
 83: 0x0662 [0x23] WAIT_FOR_DIALOG_INTERACTION
 84: 0x0663 [0x29] REQ_SET_WAIT(priority=0x08, entity_id=Shikaree Z (ID: 16908452/0x010200A4), tag_num=0x08)
 85: 0x066A [0x02] IF !(Work_Zone[9] == 5*) GOTO 0x0684
 86: 0x0672 [0x52] END_LOAD_SCHEDULER: End scheduler "s080" with entities [EventEntity, EventEntity], work=172*
 87: 0x0681 [0x01] GOTO 0x06AD
 88: 0x0684 [0x02] IF !(Work_Zone[9] == 6*) GOTO 0x069E
 89: 0x068C [0x52] END_LOAD_SCHEDULER: End scheduler "s080" with entities [EventEntity, EventEntity], work=172*
 90: 0x069B [0x01] GOTO 0x06AD
 91: 0x069E [0x52] END_LOAD_SCHEDULER: End scheduler "s076" with entities [EventEntity, EventEntity], work=172*

SUBROUTINE_06AD:
 92: 0x06AD [0x45] LOAD_SCHEDULED_TASK: Load scheduler "s077" with entities [EventEntity, EventEntity], work=[172*, 0*]
 93: 0x06BE [0x79] Jabbos (ID: 16908453/0x010200A5) looks at Shikaree Z (ID: 16908452/0x010200A4) (Basic look)
 94: 0x06C8 [0x27] REQ_SET(priority=0x0B, entity_id=Shikaree Z (ID: 16908452/0x010200A4), tag_num=0x33)
 95: 0x06CF [0x2B] Shikaree Z (ID: 16908452/0x010200A4) [7846*]:
    → "The rift between dragons and people is deep. There was no rrreasoning with him."
 96: 0x06D6 [0x23] WAIT_FOR_DIALOG_INTERACTION
 97: 0x06D7 [0x2A] GET_REQ_LEVEL(level=11, entity_id=Shikaree Z (ID: 16908452/0x010200A4))
 98: 0x06DD [0x2B] Shikaree Z (ID: 16908452/0x010200A4) [7847*]:
    → "If we could only harness the strength of the sleeping gods, we could approach Bahamut on equal footing..."
 99: 0x06E4 [0x23] WAIT_FOR_DIALOG_INTERACTION
100: 0x06E5 [0x52] END_LOAD_SCHEDULER: End scheduler "s077" with entities [EventEntity, EventEntity], work=172*
101: 0x06F4 [0x45] LOAD_SCHEDULED_TASK: Load scheduler "s078" with entities [EventEntity, EventEntity], work=[172*, 0*]
102: 0x0705 [0x7B] Jabbos (ID: 16908453/0x010200A5) stops talking
103: 0x070A [0x4A] Shikaree Z (ID: 16908452/0x010200A4) looks at LocalPlayer
104: 0x0713 [0x6F] WAIT_FRAME_DELAY: Yield until WaitTime reaches zero
105: 0x0714 [0x76] CHECK_ENTITY_RENDER_FLAGS: Wait until Shikaree Z (ID: 16908452/0x010200A4) Render.Flags0 and Render.Flags3 conditions are met
106: 0x0719 [0x2B] Shikaree Z (ID: 16908452/0x010200A4) [7849*]:
    → "<Player>, tell Tenzen to rrreturn to town before Cid's airship arrives. I want to leave as soon as possible."
107: 0x0720 [0x23] WAIT_FOR_DIALOG_INTERACTION
108: 0x0721 [0x29] REQ_SET_WAIT(priority=0x0B, entity_id=LocalPlayer, tag_num=0x16)
109: 0x0728 [0x52] END_LOAD_SCHEDULER: End scheduler "s078" with entities [EventEntity, EventEntity], work=172*
110: 0x0737 [0x45] LOAD_SCHEDULED_TASK: Load scheduler "s079" with entities [EventEntity, EventEntity], work=[172*, 0*]
111: 0x0748 [0x7B] Shikaree Z (ID: 16908452/0x010200A4) stops talking
112: 0x074D [0x27] REQ_SET(priority=0x0B, entity_id=Shikaree Z (ID: 16908452/0x010200A4), tag_num=0x34)
113: 0x0754 [0x27] REQ_SET(priority=0x0B, entity_id=Jabbos (ID: 16908453/0x010200A5), tag_num=0x05)
114: 0x075B [0x1C] WAIT(90* ticks)
115: 0x075E [0x4B] UPDATE_ENTITY_YAW(entity=LocalPlayer, yaw=8.9°*)
116: 0x0765 [0x6F] WAIT_FRAME_DELAY: Yield until WaitTime reaches zero
117: 0x0766 [0x76] CHECK_ENTITY_RENDER_FLAGS: Wait until LocalPlayer Render.Flags0 and Render.Flags3 conditions are met
118: 0x076B [0x1C] WAIT(120* ticks)
119: 0x076E [0x45] LOAD_SCHEDULED_TASK: Load scheduler "fdo1" with entities [LocalPlayer, LocalPlayer], work=[200*, 0*]
120: 0x077F [0x1C] WAIT(60* ticks)
121: 0x0782 [0x5C] MUSIC_CONTROL: Set Idle (Day) music to song 245*
122: 0x0786 [0x5C] MUSIC_CONTROL: Set Idle (Night) music to song 245*
123: 0x078A [0x5C] MUSIC_CONTROL: Set Combat (Solo) music to song 220*
124: 0x078E [0x5C] MUSIC_CONTROL: Set Combat (Party) music to song 220*
125: 0x0792 [0x1C] WAIT(100* ticks)
126: 0x0795 [0x52] END_LOAD_SCHEDULER: End scheduler "s079" with entities [EventEntity, EventEntity], work=172*
127: 0x07A4 [0x4E] SET_ENTITY_HIDE_FLAG: Show LocalPlayer
128: 0x07AA [0x80] LOAD_WAIT(entity=LocalPlayer)
129: 0x07AF [0x46] CAMERA_CONTROL: Restore default settings
130: 0x07B1 [0x45] LOAD_SCHEDULED_TASK: Load scheduler "fdi1" with entities [LocalPlayer, LocalPlayer], work=[200*, 0*]
131: 0x07C2 [0x20] SET_CLI_EVENT_UC_FLAG: Unlock player control
132: 0x07C4 [0x21] END_EVENT
133: 0x07C5 [0x00] END_REQSTACK()
```
