# 16908433 - Cherukiki

## Common Data

| Field            | Value                  |
|------------------|------------------------|
| Zone             | Sealion's Den (ID: 32) |
| Block Size       | 1196 bytes             |
| Total Events     | 42                     |
| References Count | 60                     |

## List of Events

| Event ID                   | Entrypoint   |   Size |   Instructions |
|----------------------------|--------------|--------|----------------|
| [65535](#event-65535)      | 0x0000       |     13 |              3 |
| [0](#event-0)              | 0x000D       |     10 |              2 |
| [1](#event-1)              | 0x0017       |     10 |              2 |
| [65535.1](#event-655351)   | 0x0021       |     20 |              6 |
| [2](#event-2)              | 0x0035       |      1 |              1 |
| [33](#event-33)            | 0x0036       |      7 |              2 |
| [34](#event-34)            | 0x003D       |      7 |              2 |
| [65535.2](#event-655352)   | 0x0044       |     27 |              5 |
| [65535.3](#event-655353)   | 0x005F       |     90 |             18 |
| [31](#event-31)            | 0x00B9       |      7 |              2 |
| [32](#event-32)            | 0x00C0       |      7 |              2 |
| [65535.4](#event-655354)   | 0x00C7       |     10 |              2 |
| [65535.5](#event-655355)   | 0x00D1       |     10 |              2 |
| [65535.6](#event-655356)   | 0x00DB       |     18 |              6 |
| [65535.7](#event-655357)   | 0x00ED       |     10 |              2 |
| [65535.8](#event-655358)   | 0x00F7       |     20 |              4 |
| [65535.9](#event-655359)   | 0x010B       |     18 |              5 |
| [7](#event-7)              | 0x011D       |     10 |              2 |
| [65535.10](#event-6553510) | 0x0127       |     14 |              4 |
| [65535.11](#event-6553511) | 0x0135       |     28 |              7 |
| [65535.12](#event-6553512) | 0x0151       |      4 |              2 |
| [65535.13](#event-6553513) | 0x0155       |     25 |              3 |
| [65535.14](#event-6553514) | 0x016E       |     36 |              4 |
| [65535.15](#event-6553515) | 0x0192       |     16 |              2 |
| [65535.16](#event-6553516) | 0x01A2       |     29 |              3 |
| [65535.17](#event-6553517) | 0x01BF       |     16 |              2 |
| [65535.18](#event-6553518) | 0x01CF       |     16 |              2 |
| [65535.19](#event-6553519) | 0x01DF       |     16 |              2 |
| [65535.20](#event-6553520) | 0x01EF       |     16 |              2 |
| [65535.21](#event-6553521) | 0x01FF       |     16 |              2 |
| [65535.22](#event-6553522) | 0x020F       |     53 |              5 |
| [65535.23](#event-6553523) | 0x0244       |     16 |              2 |
| [65535.24](#event-6553524) | 0x0254       |     16 |              2 |
| [65535.25](#event-6553525) | 0x0264       |     16 |              2 |
| [65535.26](#event-6553526) | 0x0274       |     16 |              2 |
| [65535.27](#event-6553527) | 0x0284       |     16 |              2 |
| [65535.28](#event-6553528) | 0x0294       |     16 |              2 |
| [65535.29](#event-6553529) | 0x02A4       |     16 |              2 |
| [65535.30](#event-6553530) | 0x02B4       |     16 |              2 |
| [65535.31](#event-6553531) | 0x02C4       |     57 |             13 |
| [65535.32](#event-6553532) | 0x02FD       |      4 |              2 |

## DAT References (imed_data)

|   Index | Hex Value   |   Dec Value |
|---------|-------------|-------------|
|       0 | 0xFFF62795  |  4294322069 |
|       1 | 0x80E94     |      528020 |
|       2 | 0xFFFC7914  |  4294736148 |
|       3 | 0x0FB6      |        4022 |
|       4 | 0xFFF6345A  |  4294325338 |
|       5 | 0x812E0     |      529120 |
|       6 | 0xFFFC784D  |  4294735949 |
|       7 | 0x077D      |        1917 |
|       8 | 0x0028      |          40 |
|       9 | 0xFFF63156  |  4294324566 |
|      10 | 0x80883     |      526467 |
|      11 | 0xFFF61DA4  |  4294319524 |
|      12 | 0x7EC45     |      519237 |
|      13 | 0x0D22      |        3362 |
|      14 | 0xFFFFF830  |  4294965296 |
|      15 | 0x07D0      |        2000 |
|      16 | 0xFFF6382A  |  4294326314 |
|      17 | 0xFFF62B0F  |  4294322959 |
|      18 | 0x30397     |      197527 |
|      19 | 0x0C1C      |        3100 |
|      20 | 0xFFF64127  |  4294328615 |
|      21 | 0x7BF29     |      507689 |
|      22 | 0xFFFC6BCE  |  4294732750 |
|      23 | 0x06AC      |        1708 |
|      24 | 0x000D      |          13 |
|      25 | 0xFFF63D98  |  4294327704 |
|      26 | 0x7BF01     |      507649 |
|      27 | 0x0C00      |        3072 |
|      28 | 0x0954      |        2388 |
|      29 | 0xFFF410BD  |  4294185149 |
|      30 | 0xFFFEDD53  |  4294892883 |
|      31 | 0xFFFE6C4D  |  4294863949 |
|      32 | 0x0CE2      |        3298 |
|      33 | 0xFFF41C59  |  4294188121 |
|      34 | 0xFFFEA54B  |  4294878539 |
|      35 | 0x00B4      |         180 |
|      36 | 0xFFF41947  |  4294187335 |
|      37 | 0xFFFEA0FA  |  4294877434 |
|      38 | 0x0BDF      |        3039 |
|      39 | 0xFFF41951  |  4294187345 |
|      40 | 0xFFFEA5F7  |  4294878711 |
|      41 | 0x0000      |           0 |
|      42 | 0x0FFF      |        4095 |
|      43 | 0x005A      |          90 |
|      44 | 0xFFF614F2  |  4294317298 |
|      45 | 0x7DF55     |      515925 |
|      46 | 0xFFFC78CA  |  4294736074 |
|      47 | 0x0852      |        2130 |
|      48 | 0x0151      |         337 |
|      49 | 0x01AF      |         431 |
|      50 | 0x000A      |          10 |
|      51 | 0x0048      |          72 |
|      52 | 0x00A6      |         166 |
|      53 | 0x002D      |          45 |
|      54 | 0x01BC      |         444 |
|      55 | 0x0153      |         339 |
|      56 | 0x0156      |         342 |
|      57 | 0x0002      |           2 |
|      58 | 0x0023      |          35 |
|      59 | 0x0400      |        1024 |

## Events

### Event 65535

#### Metadata

| Field        | Value    |
|--------------|----------|
| Entrypoint   | 0x0000   |
| Data Size    | 13 bytes |
| Instructions | 3        |

```
      00 01 02 03 04 05 06 07  08 09 0A 0B 0C 0D 0E 0F
      -- -- -- -- -- -- -- --  -- -- -- -- -- -- -- --
0000: 92 01 F8 FF FF 7F 94 01  F8 FF FF 7F 00           .............   
```

#### Opcodes

```
  0: 0x0000 [0x92] EventEntity->Render.Flags3 ^= 0x01
  1: 0x0006 [0x94] EventEntity->Render.Flags3 ^= 0x01
  2: 0x000C [0x00] END_REQSTACK()
```

### Event 0

#### Metadata

| Field        | Value    |
|--------------|----------|
| Entrypoint   | 0x000D   |
| Data Size    | 10 bytes |
| Instructions | 2        |

```
      00 01 02 03 04 05 06 07  08 09 0A 0B 0C 0D 0E 0F
      -- -- -- -- -- -- -- --  -- -- -- -- -- -- -- --
0000:                                         37 00 80               7..
0010: 01 80 02 80 03 80 00                              .......         
```

#### Opcodes

```
  0: 0x000D [0x37] UPDATE_EVENT_POSITION_AND_DIR: x=-645.227*, z=528.020*, y=-231.148*, direction=353.5°*
  1: 0x0016 [0x00] END_REQSTACK()
```

### Event 1

#### Metadata

| Field        | Value    |
|--------------|----------|
| Entrypoint   | 0x0017   |
| Data Size    | 10 bytes |
| Instructions | 2        |

```
      00 01 02 03 04 05 06 07  08 09 0A 0B 0C 0D 0E 0F
      -- -- -- -- -- -- -- --  -- -- -- -- -- -- -- --
0010:                      37  04 80 05 80 06 80 07 80         7........
0020: 00                                                .               
```

#### Opcodes

```
  0: 0x0017 [0x37] UPDATE_EVENT_POSITION_AND_DIR: x=-641.958*, z=529.120*, y=-231.347*, direction=168.5°*
  1: 0x0020 [0x00] END_REQSTACK()
```

### Event 65535.1

#### Metadata

| Field        | Value    |
|--------------|----------|
| Entrypoint   | 0x0021   |
| Data Size    | 20 bytes |
| Instructions | 6        |

```
      00 01 02 03 04 05 06 07  08 09 0A 0B 0C 0D 0E 0F
      -- -- -- -- -- -- -- --  -- -- -- -- -- -- -- --
0020:    32 08 80 1F 00 09 80  0A 80 06 80 1F 01 6F 1E   2............o.
0030: 9E 00 02 01 00                                    .....           
```

#### Opcodes

```
  0: 0x0021 [0x32] ExtData[1]->MainSpeed = 40* * 0.1
  1: 0x0024 [0x1F] MOVE_ENTITY: EventEntity moves to X=-642.730*, Z=526.467*, Y=-231.347*
  2: 0x002C [0x1F] MOVE_ENTITY: Update entity position (mode=1)
  3: 0x002E [0x6F] WAIT_FRAME_DELAY: Yield until WaitTime reaches zero
  4: 0x002F [0x1E] EventEntity looks at Unnamed NPC (ID: 16908446/0x0102009E) and starts talking
  5: 0x0034 [0x00] END_REQSTACK()
```

### Event 2

#### Metadata

| Field        | Value   |
|--------------|---------|
| Entrypoint   | 0x0035  |
| Data Size    | 1 bytes |
| Instructions | 1       |

```
      00 01 02 03 04 05 06 07  08 09 0A 0B 0C 0D 0E 0F
      -- -- -- -- -- -- -- --  -- -- -- -- -- -- -- --
0030:                00                                      .          
```

#### Opcodes

```
  0: 0x0035 [0x00] END_REQSTACK()
```

### Event 33

#### Metadata

| Field        | Value   |
|--------------|---------|
| Entrypoint   | 0x0036  |
| Data Size    | 7 bytes |
| Instructions | 2       |

```
      00 01 02 03 04 05 06 07  08 09 0A 0B 0C 0D 0E 0F
      -- -- -- -- -- -- -- --  -- -- -- -- -- -- -- --
0030:                   94 01  F8 FF FF 7F 00                 .......   
```

#### Opcodes

```
  0: 0x0036 [0x94] EventEntity->Render.Flags3 ^= 0x01
  1: 0x003C [0x00] END_REQSTACK()
```

### Event 34

#### Metadata

| Field        | Value   |
|--------------|---------|
| Entrypoint   | 0x003D  |
| Data Size    | 7 bytes |
| Instructions | 2       |

```
      00 01 02 03 04 05 06 07  08 09 0A 0B 0C 0D 0E 0F
      -- -- -- -- -- -- -- --  -- -- -- -- -- -- -- --
0030:                                         94 01 F8               ...
0040: FF FF 7F 00                                       ....            
```

#### Opcodes

```
  0: 0x003D [0x94] EventEntity->Render.Flags3 ^= 0x01
  1: 0x0043 [0x00] END_REQSTACK()
```

### Event 65535.2

#### Metadata

| Field        | Value    |
|--------------|----------|
| Entrypoint   | 0x0044   |
| Data Size    | 27 bytes |
| Instructions | 5        |

```
      00 01 02 03 04 05 06 07  08 09 0A 0B 0C 0D 0E 0F
      -- -- -- -- -- -- -- --  -- -- -- -- -- -- -- --
0040:             37 0B 80 0C  80 02 80 0D 80 03 00 00      7...........
0050: 0E 80 1A 75 00 37 01 00  02 00 03 00 04 00 00     ...u.7......... 
```

#### Opcodes

```
  0: 0x0044 [0x37] UPDATE_EVENT_POSITION_AND_DIR: x=-647.772*, z=519.237*, y=-231.148*, direction=295.5°*
  1: 0x004D [0x03] ExtData[1]->WorkLocal[0] = 4294965296*
  2: 0x0052 [0x1A] CALL_SUBROUTINE(address=0x0075)
  3: 0x0055 [0x37] UPDATE_EVENT_POSITION_AND_DIR: x=ExtData[1]->WorkLocal[1], z=ExtData[1]->WorkLocal[2], y=ExtData[1]->WorkLocal[3], direction=ExtData[1]->WorkLocal[4]
  4: 0x005E [0x00] END_REQSTACK()
```

### Event 65535.3

#### Metadata

| Field        | Value    |
|--------------|----------|
| Entrypoint   | 0x005F   |
| Data Size    | 90 bytes |
| Instructions | 13       |

```
      00 01 02 03 04 05 06 07  08 09 0A 0B 0C 0D 0E 0F
      -- -- -- -- -- -- -- --  -- -- -- -- -- -- -- --
0050:                                               03                 .
0060: 00 00 0F 80 1A 75 00 32  08 80 1F 00 01 00 02 00  .....u.2........
0070: 03 00 1F 01 00 3B F8 FF  FF 7F 01 00 02 00 03 00  .....;..........
0080: 3A F8 FF FF 7F 04 00 17  05 00 04 00 00 00 16 06  :...............
0090: 00 04 00 00 00 07 01 00  05 00 07 02 00 06 00 1B  ................
00A0: 17 05 00 04 00 00 00 16  06 00 04 00 00 00 07 01  ................
00B0: 00 05 00 07 02 00 06 00  1B                       .........       
```

#### Opcodes

```
  0: 0x005F [0x03] ExtData[1]->WorkLocal[0] = 2000*
  1: 0x0064 [0x1A] CALL_SUBROUTINE(address=0x0075)
  2: 0x0067 [0x32] ExtData[1]->MainSpeed = 40* * 0.1
  3: 0x006A [0x1F] MOVE_ENTITY: EventEntity moves to X=ExtData[1]->WorkLocal[1], Z=ExtData[1]->WorkLocal[2], Y=ExtData[1]->WorkLocal[3]
  4: 0x0072 [0x1F] MOVE_ENTITY: Update entity position (mode=1)
  5: 0x0074 [0x00] END_REQSTACK()

SUBROUTINE_0075:
  6: 0x0075 [0x3B] GET_ENTITY_POSITION(entity=EventEntity, x_destination=ExtData[1]->WorkLocal[1], y_destination=ExtData[1]->WorkLocal[2], z_destination=ExtData[1]->WorkLocal[3])
  7: 0x0080 [0x3A] CONVERT_YAW_TO_BYTE(entity=EventEntity, result_destination=ExtData[1]->WorkLocal[4])
  8: 0x0087 [0x17] ExtData[1]->WorkLocal[5] = cos(ExtData[1]->WorkLocal[4]) * ExtData[1]->WorkLocal[0]
  9: 0x008E [0x16] ExtData[1]->WorkLocal[6] = sin(ExtData[1]->WorkLocal[4]) * ExtData[1]->WorkLocal[0]
 10: 0x0095 [0x07] ExtData[1]->WorkLocal[1] += ExtData[1]->WorkLocal[5]
 11: 0x009A [0x07] ExtData[1]->WorkLocal[2] += ExtData[1]->WorkLocal[6]
 12: 0x009F [0x1B] RETURN
```

#### Data or dead code:

```
# Dead code (unreachable instructions):
     0x00A0 [0x17] ExtData[1]->WorkLocal[5] = cos(ExtData[1]->WorkLocal[4]) * ExtData[1]->WorkLocal[0]
     0x00A7 [0x16] ExtData[1]->WorkLocal[6] = sin(ExtData[1]->WorkLocal[4]) * ExtData[1]->WorkLocal[0]
     0x00AE [0x07] ExtData[1]->WorkLocal[1] += ExtData[1]->WorkLocal[5]
     0x00B3 [0x07] ExtData[1]->WorkLocal[2] += ExtData[1]->WorkLocal[6]
     0x00B8 [0x1B] RETURN
```

### Event 31

#### Metadata

| Field        | Value   |
|--------------|---------|
| Entrypoint   | 0x00B9  |
| Data Size    | 7 bytes |
| Instructions | 2       |

```
      00 01 02 03 04 05 06 07  08 09 0A 0B 0C 0D 0E 0F
      -- -- -- -- -- -- -- --  -- -- -- -- -- -- -- --
00B0:                             94 01 F8 FF FF 7F 00           .......
```

#### Opcodes

```
  0: 0x00B9 [0x94] EventEntity->Render.Flags3 ^= 0x01
  1: 0x00BF [0x00] END_REQSTACK()
```

### Event 32

#### Metadata

| Field        | Value   |
|--------------|---------|
| Entrypoint   | 0x00C0  |
| Data Size    | 7 bytes |
| Instructions | 2       |

```
      00 01 02 03 04 05 06 07  08 09 0A 0B 0C 0D 0E 0F
      -- -- -- -- -- -- -- --  -- -- -- -- -- -- -- --
00C0: 94 01 F8 FF FF 7F 00                              .......         
```

#### Opcodes

```
  0: 0x00C0 [0x94] EventEntity->Render.Flags3 ^= 0x01
  1: 0x00C6 [0x00] END_REQSTACK()
```

### Event 65535.4

#### Metadata

| Field        | Value    |
|--------------|----------|
| Entrypoint   | 0x00C7   |
| Data Size    | 10 bytes |
| Instructions | 2        |

```
      00 01 02 03 04 05 06 07  08 09 0A 0B 0C 0D 0E 0F
      -- -- -- -- -- -- -- --  -- -- -- -- -- -- -- --
00C0:                      37  10 80 11 80 12 80 13 80         7........
00D0: 00                                                .               
```

#### Opcodes

```
  0: 0x00C7 [0x37] UPDATE_EVENT_POSITION_AND_DIR: x=-640.982*, z=-644.337*, y=197.527*, direction=272.5°*
  1: 0x00D0 [0x00] END_REQSTACK()
```

### Event 65535.5

#### Metadata

| Field        | Value    |
|--------------|----------|
| Entrypoint   | 0x00D1   |
| Data Size    | 10 bytes |
| Instructions | 2        |

```
      00 01 02 03 04 05 06 07  08 09 0A 0B 0C 0D 0E 0F
      -- -- -- -- -- -- -- --  -- -- -- -- -- -- -- --
00D0:    37 14 80 15 80 16 80  17 80 00                  7.........     
```

#### Opcodes

```
  0: 0x00D1 [0x37] UPDATE_EVENT_POSITION_AND_DIR: x=-638.681*, z=507.689*, y=-234.546*, direction=150.1°*
  1: 0x00DA [0x00] END_REQSTACK()
```

### Event 65535.6

#### Metadata

| Field        | Value    |
|--------------|----------|
| Entrypoint   | 0x00DB   |
| Data Size    | 18 bytes |
| Instructions | 6        |

```
      00 01 02 03 04 05 06 07  08 09 0A 0B 0C 0D 0E 0F
      -- -- -- -- -- -- -- --  -- -- -- -- -- -- -- --
00D0:                                   32 18 80 1F 00             2....
00E0: 19 80 1A 80 16 80 1F 01  6F 39 1B 80 00           ........o9...   
```

#### Opcodes

```
  0: 0x00DB [0x32] ExtData[1]->MainSpeed = 13* * 0.1
  1: 0x00DE [0x1F] MOVE_ENTITY: EventEntity moves to X=-639.592*, Z=507.649*, Y=-234.546*
  2: 0x00E6 [0x1F] MOVE_ENTITY: Update entity position (mode=1)
  3: 0x00E8 [0x6F] WAIT_FRAME_DELAY: Yield until WaitTime reaches zero
  4: 0x00E9 [0x39] SET_ENTITY_DIRECTION(direction=16.9°*)
  5: 0x00EC [0x00] END_REQSTACK()
```

### Event 65535.7

#### Metadata

| Field        | Value    |
|--------------|----------|
| Entrypoint   | 0x00ED   |
| Data Size    | 10 bytes |
| Instructions | 2        |

```
      00 01 02 03 04 05 06 07  08 09 0A 0B 0C 0D 0E 0F
      -- -- -- -- -- -- -- --  -- -- -- -- -- -- -- --
00E0:                                         37 19 80               7..
00F0: 1A 80 16 80 1C 80 00                              .......         
```

#### Opcodes

```
  0: 0x00ED [0x37] UPDATE_EVENT_POSITION_AND_DIR: x=-639.592*, z=507.649*, y=-234.546*, direction=209.9°*
  1: 0x00F6 [0x00] END_REQSTACK()
```

### Event 65535.8

#### Metadata

| Field        | Value    |
|--------------|----------|
| Entrypoint   | 0x00F7   |
| Data Size    | 20 bytes |
| Instructions | 4        |

```
      00 01 02 03 04 05 06 07  08 09 0A 0B 0C 0D 0E 0F
      -- -- -- -- -- -- -- --  -- -- -- -- -- -- -- --
00F0:                      37  1D 80 1E 80 1F 80 20 80         7...... .
0100: 5E 69 64 6C 30 1E 8D 00  02 01 00                 ^idl0......     
```

#### Opcodes

```
  0: 0x00F7 [0x37] UPDATE_EVENT_POSITION_AND_DIR: x=-782.147*, z=-74.413*, y=-103.347*, direction=289.9°*
  1: 0x0100 [0x5E] EventEntity goes idle (kills current action) (animation: "idl0")
  2: 0x0105 [0x1E] EventEntity looks at Prishe (ID: 16908429/0x0102008D) and starts talking
  3: 0x010A [0x00] END_REQSTACK()
```

### Event 65535.9

#### Metadata

| Field        | Value    |
|--------------|----------|
| Entrypoint   | 0x010B   |
| Data Size    | 18 bytes |
| Instructions | 5        |

```
      00 01 02 03 04 05 06 07  08 09 0A 0B 0C 0D 0E 0F
      -- -- -- -- -- -- -- --  -- -- -- -- -- -- -- --
0100:                                   32 08 80 31 00             2..1.
0110: 21 80 22 80 1F 80 23 80  31 01 22 01 00           !."...#.1."..   
```

#### Opcodes

```
  0: 0x010B [0x32] ExtData[1]->MainSpeed = 40* * 0.1
  1: 0x010E [0x31] UPDATE_ENTITY_POSITION: Set EventEntity goal position to X=-779.175*, Z=-88.757*, Y=-103.347*, Time=180*
  2: 0x0118 [0x31] UPDATE_ENTITY_POSITION: Move EventEntity towards goal position
  3: 0x011A [0x22] ENTITY_HIDE_FLAG(enabled=0x01)
  4: 0x011C [0x00] END_REQSTACK()
```

### Event 7

#### Metadata

| Field        | Value    |
|--------------|----------|
| Entrypoint   | 0x011D   |
| Data Size    | 10 bytes |
| Instructions | 2        |

```
      00 01 02 03 04 05 06 07  08 09 0A 0B 0C 0D 0E 0F
      -- -- -- -- -- -- -- --  -- -- -- -- -- -- -- --
0110:                                         37 24 80               7$.
0120: 25 80 1F 80 26 80 00                              %...&..         
```

#### Opcodes

```
  0: 0x011D [0x37] UPDATE_EVENT_POSITION_AND_DIR: x=-779.961*, z=-89.862*, y=-103.347*, direction=267.1°*
  1: 0x0126 [0x00] END_REQSTACK()
```

### Event 65535.10

#### Metadata

| Field        | Value    |
|--------------|----------|
| Entrypoint   | 0x0127   |
| Data Size    | 14 bytes |
| Instructions | 4        |

```
      00 01 02 03 04 05 06 07  08 09 0A 0B 0C 0D 0E 0F
      -- -- -- -- -- -- -- --  -- -- -- -- -- -- -- --
0120:                      32  08 80 1F 00 27 80 28 80         2....'.(.
0130: 1F 80 1F 01 00                                    .....           
```

#### Opcodes

```
  0: 0x0127 [0x32] ExtData[1]->MainSpeed = 40* * 0.1
  1: 0x012A [0x1F] MOVE_ENTITY: EventEntity moves to X=-779.951*, Z=-88.585*, Y=-103.347*
  2: 0x0132 [0x1F] MOVE_ENTITY: Update entity position (mode=1)
  3: 0x0134 [0x00] END_REQSTACK()
```

### Event 65535.11

#### Metadata

| Field        | Value    |
|--------------|----------|
| Entrypoint   | 0x0135   |
| Data Size    | 28 bytes |
| Instructions | 7        |

```
      00 01 02 03 04 05 06 07  08 09 0A 0B 0C 0D 0E 0F
      -- -- -- -- -- -- -- --  -- -- -- -- -- -- -- --
0130:                02 07 00  29 80 00 4B 01 13 08 00       ...)..K....
0140: 2A 80 39 08 00 1C 2B 80  01 35 01 1E 98 00 02 01  *.9...+..5......
0150: 00                                                .               
```

#### Opcodes

```
  0: 0x0135 [0x02] IF !(ExtData[1]->WorkLocal[7] == 0*) GOTO 0x014B
  1: 0x013D [0x13] ExtData[1]->WorkLocal[8] = rand() % 4095*
  2: 0x0142 [0x39] SET_ENTITY_DIRECTION(direction=ExtData[1]->WorkLocal[8])
  3: 0x0145 [0x1C] WAIT(90* ticks)
  4: 0x0148 [0x01] GOTO 0x0135
  5: 0x014B [0x1E] EventEntity looks at Unnamed NPC (ID: 16908440/0x01020098) and starts talking
  6: 0x0150 [0x00] END_REQSTACK()
```

### Event 65535.12

#### Metadata

| Field        | Value   |
|--------------|---------|
| Entrypoint   | 0x0151  |
| Data Size    | 4 bytes |
| Instructions | 2       |

```
      00 01 02 03 04 05 06 07  08 09 0A 0B 0C 0D 0E 0F
      -- -- -- -- -- -- -- --  -- -- -- -- -- -- -- --
0150:    05 07 00 00                                     ....           
```

#### Opcodes

```
  0: 0x0151 [0x05] ExtData[1]->WorkLocal[7] = 1
  1: 0x0154 [0x00] END_REQSTACK()
```

### Event 65535.13

#### Metadata

| Field        | Value    |
|--------------|----------|
| Entrypoint   | 0x0155   |
| Data Size    | 25 bytes |
| Instructions | 3        |

```
      00 01 02 03 04 05 06 07  08 09 0A 0B 0C 0D 0E 0F
      -- -- -- -- -- -- -- --  -- -- -- -- -- -- -- --
0150:                37 2C 80  2D 80 2E 80 2F 80 5B 30       7,.-.../.[0
0160: 80 F8 FF FF 7F F8 FF FF  7F 6F 62 69 30 00        .........obi0.  
```

#### Opcodes

```
  0: 0x0155 [0x37] UPDATE_EVENT_POSITION_AND_DIR: x=-649.998*, z=515.925*, y=-231.222*, direction=187.2°*
  1: 0x015E [0x5B] LOAD_EXT_SCHEDULER: Load scheduler "obi0" with entities [EventEntity, EventEntity], work=337*
  2: 0x016D [0x00] END_REQSTACK()
```

### Event 65535.14

#### Metadata

| Field        | Value    |
|--------------|----------|
| Entrypoint   | 0x016E   |
| Data Size    | 36 bytes |
| Instructions | 4        |

```
      00 01 02 03 04 05 06 07  08 09 0A 0B 0C 0D 0E 0F
      -- -- -- -- -- -- -- --  -- -- -- -- -- -- -- --
0160:                                            5B 31                [1
0170: 80 F8 FF FF 7F F8 FF FF  7F 66 75 6B 31 1C 32 80  .........fuk1.2.
0180: 45 33 80 F8 FF FF 7F F8  FF FF 7F 73 30 37 35 29  E3.........s075)
0190: 80 00                                             ..              
```

#### Opcodes

```
  0: 0x016E [0x5B] LOAD_EXT_SCHEDULER: Load scheduler "fuk1" with entities [EventEntity, EventEntity], work=431*
  1: 0x017D [0x1C] WAIT(10* ticks)
  2: 0x0180 [0x45] LOAD_SCHEDULED_TASK: Load scheduler "s075" with entities [EventEntity, EventEntity], work=[72*, 0*]
  3: 0x0191 [0x00] END_REQSTACK()
```

### Event 65535.15

#### Metadata

| Field        | Value    |
|--------------|----------|
| Entrypoint   | 0x0192   |
| Data Size    | 16 bytes |
| Instructions | 2        |

```
      00 01 02 03 04 05 06 07  08 09 0A 0B 0C 0D 0E 0F
      -- -- -- -- -- -- -- --  -- -- -- -- -- -- -- --
0190:       5B 30 80 F8 FF FF  7F F8 FF FF 7F 6F 62 69    [0.........obi
01A0: 30 00                                             0.              
```

#### Opcodes

```
  0: 0x0192 [0x5B] LOAD_EXT_SCHEDULER: Load scheduler "obi0" with entities [EventEntity, EventEntity], work=337*
  1: 0x01A1 [0x00] END_REQSTACK()
```

### Event 65535.16

#### Metadata

| Field        | Value    |
|--------------|----------|
| Entrypoint   | 0x01A2   |
| Data Size    | 29 bytes |
| Instructions | 3        |

```
      00 01 02 03 04 05 06 07  08 09 0A 0B 0C 0D 0E 0F
      -- -- -- -- -- -- -- --  -- -- -- -- -- -- -- --
01A0:       5B 31 80 F8 FF FF  7F F8 FF FF 7F 67 6F 67    [1.........gog
01B0: 6F 53 F8 FF FF 7F F8 FF  FF 7F 67 6F 67 6F 00     oS........gogo. 
```

#### Opcodes

```
  0: 0x01A2 [0x5B] LOAD_EXT_SCHEDULER: Load scheduler "gogo" with entities [EventEntity, EventEntity], work=431*
  1: 0x01B1 [0x53] WAIT_SCHEDULER_TASK: Wait for scheduler "gogo" with entities [EventEntity, EventEntity]
  2: 0x01BE [0x00] END_REQSTACK()
```

### Event 65535.17

#### Metadata

| Field        | Value    |
|--------------|----------|
| Entrypoint   | 0x01BF   |
| Data Size    | 16 bytes |
| Instructions | 2        |

```
      00 01 02 03 04 05 06 07  08 09 0A 0B 0C 0D 0E 0F
      -- -- -- -- -- -- -- --  -- -- -- -- -- -- -- --
01B0:                                               5B                 [
01C0: 31 80 F8 FF FF 7F F8 FF  FF 7F 64 66 63 30 00     1.........dfc0. 
```

#### Opcodes

```
  0: 0x01BF [0x5B] LOAD_EXT_SCHEDULER: Load scheduler "dfc0" with entities [EventEntity, EventEntity], work=431*
  1: 0x01CE [0x00] END_REQSTACK()
```

### Event 65535.18

#### Metadata

| Field        | Value    |
|--------------|----------|
| Entrypoint   | 0x01CF   |
| Data Size    | 16 bytes |
| Instructions | 2        |

```
      00 01 02 03 04 05 06 07  08 09 0A 0B 0C 0D 0E 0F
      -- -- -- -- -- -- -- --  -- -- -- -- -- -- -- --
01C0:                                               5B                 [
01D0: 31 80 F8 FF FF 7F F8 FF  FF 7F 64 66 63 31 00     1.........dfc1. 
```

#### Opcodes

```
  0: 0x01CF [0x5B] LOAD_EXT_SCHEDULER: Load scheduler "dfc1" with entities [EventEntity, EventEntity], work=431*
  1: 0x01DE [0x00] END_REQSTACK()
```

### Event 65535.19

#### Metadata

| Field        | Value    |
|--------------|----------|
| Entrypoint   | 0x01DF   |
| Data Size    | 16 bytes |
| Instructions | 2        |

```
      00 01 02 03 04 05 06 07  08 09 0A 0B 0C 0D 0E 0F
      -- -- -- -- -- -- -- --  -- -- -- -- -- -- -- --
01D0:                                               5B                 [
01E0: 30 80 F8 FF FF 7F F8 FF  FF 7F 7A 69 74 30 00     0.........zit0. 
```

#### Opcodes

```
  0: 0x01DF [0x5B] LOAD_EXT_SCHEDULER: Load scheduler "zit0" with entities [EventEntity, EventEntity], work=337*
  1: 0x01EE [0x00] END_REQSTACK()
```

### Event 65535.20

#### Metadata

| Field        | Value    |
|--------------|----------|
| Entrypoint   | 0x01EF   |
| Data Size    | 16 bytes |
| Instructions | 2        |

```
      00 01 02 03 04 05 06 07  08 09 0A 0B 0C 0D 0E 0F
      -- -- -- -- -- -- -- --  -- -- -- -- -- -- -- --
01E0:                                               5B                 [
01F0: 30 80 F8 FF FF 7F F8 FF  FF 7F 74 6C 6B 30 00     0.........tlk0. 
```

#### Opcodes

```
  0: 0x01EF [0x5B] LOAD_EXT_SCHEDULER: Load scheduler "tlk0" with entities [EventEntity, EventEntity], work=337*
  1: 0x01FE [0x00] END_REQSTACK()
```

### Event 65535.21

#### Metadata

| Field        | Value    |
|--------------|----------|
| Entrypoint   | 0x01FF   |
| Data Size    | 16 bytes |
| Instructions | 2        |

```
      00 01 02 03 04 05 06 07  08 09 0A 0B 0C 0D 0E 0F
      -- -- -- -- -- -- -- --  -- -- -- -- -- -- -- --
01F0:                                               5B                 [
0200: 30 80 F8 FF FF 7F F8 FF  FF 7F 74 6C 6B 31 00     0.........tlk1. 
```

#### Opcodes

```
  0: 0x01FF [0x5B] LOAD_EXT_SCHEDULER: Load scheduler "tlk1" with entities [EventEntity, EventEntity], work=337*
  1: 0x020E [0x00] END_REQSTACK()
```

### Event 65535.22

#### Metadata

| Field        | Value    |
|--------------|----------|
| Entrypoint   | 0x020F   |
| Data Size    | 53 bytes |
| Instructions | 5        |

```
      00 01 02 03 04 05 06 07  08 09 0A 0B 0C 0D 0E 0F
      -- -- -- -- -- -- -- --  -- -- -- -- -- -- -- --
0200:                                               5B                 [
0210: 30 80 F8 FF FF 7F F8 FF  FF 7F 77 61 69 30 45 34  0.........wai0E4
0220: 80 95 00 02 01 95 00 02  01 73 65 31 32 29 80 1C  .........se12)..
0230: 35 80 45 34 80 95 00 02  01 95 00 02 01 73 65 31  5.E4.........se1
0240: 33 29 80 00                                       3)..            
```

#### Opcodes

```
  0: 0x020F [0x5B] LOAD_EXT_SCHEDULER: Load scheduler "wai0" with entities [EventEntity, EventEntity], work=337*
  1: 0x021E [0x45] LOAD_SCHEDULED_TASK: Load scheduler "se12" with entities [Shikaree Z (ID: 16908437/0x01020095), Shikaree Z (ID: 16908437/0x01020095)], work=[166*, 0*]
  2: 0x022F [0x1C] WAIT(45* ticks)
  3: 0x0232 [0x45] LOAD_SCHEDULED_TASK: Load scheduler "se13" with entities [Shikaree Z (ID: 16908437/0x01020095), Shikaree Z (ID: 16908437/0x01020095)], work=[166*, 0*]
  4: 0x0243 [0x00] END_REQSTACK()
```

### Event 65535.23

#### Metadata

| Field        | Value    |
|--------------|----------|
| Entrypoint   | 0x0244   |
| Data Size    | 16 bytes |
| Instructions | 2        |

```
      00 01 02 03 04 05 06 07  08 09 0A 0B 0C 0D 0E 0F
      -- -- -- -- -- -- -- --  -- -- -- -- -- -- -- --
0240:             5B 36 80 F8  FF FF 7F F8 FF FF 7F 68      [6.........h
0250: 69 30 31 00                                       i01.            
```

#### Opcodes

```
  0: 0x0244 [0x5B] LOAD_EXT_SCHEDULER: Load scheduler "hi01" with entities [EventEntity, EventEntity], work=444*
  1: 0x0253 [0x00] END_REQSTACK()
```

### Event 65535.24

#### Metadata

| Field        | Value    |
|--------------|----------|
| Entrypoint   | 0x0254   |
| Data Size    | 16 bytes |
| Instructions | 2        |

```
      00 01 02 03 04 05 06 07  08 09 0A 0B 0C 0D 0E 0F
      -- -- -- -- -- -- -- --  -- -- -- -- -- -- -- --
0250:             5B 36 80 F8  FF FF 7F F8 FF FF 7F 68      [6.........h
0260: 69 30 32 00                                       i02.            
```

#### Opcodes

```
  0: 0x0254 [0x5B] LOAD_EXT_SCHEDULER: Load scheduler "hi02" with entities [EventEntity, EventEntity], work=444*
  1: 0x0263 [0x00] END_REQSTACK()
```

### Event 65535.25

#### Metadata

| Field        | Value    |
|--------------|----------|
| Entrypoint   | 0x0264   |
| Data Size    | 16 bytes |
| Instructions | 2        |

```
      00 01 02 03 04 05 06 07  08 09 0A 0B 0C 0D 0E 0F
      -- -- -- -- -- -- -- --  -- -- -- -- -- -- -- --
0260:             5B 36 80 F8  FF FF 7F F8 FF FF 7F 68      [6.........h
0270: 69 30 33 00                                       i03.            
```

#### Opcodes

```
  0: 0x0264 [0x5B] LOAD_EXT_SCHEDULER: Load scheduler "hi03" with entities [EventEntity, EventEntity], work=444*
  1: 0x0273 [0x00] END_REQSTACK()
```

### Event 65535.26

#### Metadata

| Field        | Value    |
|--------------|----------|
| Entrypoint   | 0x0274   |
| Data Size    | 16 bytes |
| Instructions | 2        |

```
      00 01 02 03 04 05 06 07  08 09 0A 0B 0C 0D 0E 0F
      -- -- -- -- -- -- -- --  -- -- -- -- -- -- -- --
0270:             5B 36 80 F8  FF FF 7F F8 FF FF 7F 68      [6.........h
0280: 69 30 34 00                                       i04.            
```

#### Opcodes

```
  0: 0x0274 [0x5B] LOAD_EXT_SCHEDULER: Load scheduler "hi04" with entities [EventEntity, EventEntity], work=444*
  1: 0x0283 [0x00] END_REQSTACK()
```

### Event 65535.27

#### Metadata

| Field        | Value    |
|--------------|----------|
| Entrypoint   | 0x0284   |
| Data Size    | 16 bytes |
| Instructions | 2        |

```
      00 01 02 03 04 05 06 07  08 09 0A 0B 0C 0D 0E 0F
      -- -- -- -- -- -- -- --  -- -- -- -- -- -- -- --
0280:             5B 37 80 F8  FF FF 7F F8 FF FF 7F 73      [7.........s
0290: 68 6B 30 00                                       hk0.            
```

#### Opcodes

```
  0: 0x0284 [0x5B] LOAD_EXT_SCHEDULER: Load scheduler "shk0" with entities [EventEntity, EventEntity], work=339*
  1: 0x0293 [0x00] END_REQSTACK()
```

### Event 65535.28

#### Metadata

| Field        | Value    |
|--------------|----------|
| Entrypoint   | 0x0294   |
| Data Size    | 16 bytes |
| Instructions | 2        |

```
      00 01 02 03 04 05 06 07  08 09 0A 0B 0C 0D 0E 0F
      -- -- -- -- -- -- -- --  -- -- -- -- -- -- -- --
0290:             5B 30 80 F8  FF FF 7F F8 FF FF 7F 7A      [0.........z
02A0: 69 74 30 00                                       it0.            
```

#### Opcodes

```
  0: 0x0294 [0x5B] LOAD_EXT_SCHEDULER: Load scheduler "zit0" with entities [EventEntity, EventEntity], work=337*
  1: 0x02A3 [0x00] END_REQSTACK()
```

### Event 65535.29

#### Metadata

| Field        | Value    |
|--------------|----------|
| Entrypoint   | 0x02A4   |
| Data Size    | 16 bytes |
| Instructions | 2        |

```
      00 01 02 03 04 05 06 07  08 09 0A 0B 0C 0D 0E 0F
      -- -- -- -- -- -- -- --  -- -- -- -- -- -- -- --
02A0:             5B 38 80 F8  FF FF 7F F8 FF FF 7F 63      [8.........c
02B0: 61 62 6B 00                                       abk.            
```

#### Opcodes

```
  0: 0x02A4 [0x5B] LOAD_EXT_SCHEDULER: Load scheduler "cabk" with entities [EventEntity, EventEntity], work=342*
  1: 0x02B3 [0x00] END_REQSTACK()
```

### Event 65535.30

#### Metadata

| Field        | Value    |
|--------------|----------|
| Entrypoint   | 0x02B4   |
| Data Size    | 16 bytes |
| Instructions | 2        |

```
      00 01 02 03 04 05 06 07  08 09 0A 0B 0C 0D 0E 0F
      -- -- -- -- -- -- -- --  -- -- -- -- -- -- -- --
02B0:             5B 38 80 F8  FF FF 7F F8 FF FF 7F 73      [8.........s
02C0: 68 62 6B 00                                       hbk.            
```

#### Opcodes

```
  0: 0x02B4 [0x5B] LOAD_EXT_SCHEDULER: Load scheduler "shbk" with entities [EventEntity, EventEntity], work=342*
  1: 0x02C3 [0x00] END_REQSTACK()
```

### Event 65535.31

#### Metadata

| Field        | Value    |
|--------------|----------|
| Entrypoint   | 0x02C4   |
| Data Size    | 57 bytes |
| Instructions | 13       |

```
      00 01 02 03 04 05 06 07  08 09 0A 0B 0C 0D 0E 0F
      -- -- -- -- -- -- -- --  -- -- -- -- -- -- -- --
02C0:             03 08 00 03  7F 02 07 00 29 80 00 FC      ........)...
02D0: 02 13 09 00 39 80 07 09  00 3A 80 AD 00 09 00 F8  ....9....:......
02E0: FF FF 7F F8 FF FF 7F 1C  2B 80 07 08 00 3B 80 0D  ........+....;..
02F0: 08 00 2A 80 39 08 00 6F  70 01 C9 02 00           ..*.9..op....   
```

#### Opcodes

```
  0: 0x02C4 [0x03] ExtData[1]->WorkLocal[8] = enDirCli(ExtData[1]->EventDir[1]) * 4096.0 * 0.15915963
  1: 0x02C9 [0x02] IF !(ExtData[1]->WorkLocal[7] == 0*) GOTO 0x02FC
  2: 0x02D1 [0x13] ExtData[1]->WorkLocal[9] = rand() % 2*
  3: 0x02D6 [0x07] ExtData[1]->WorkLocal[9] += 35*
  4: 0x02DB [0xAD] DUAL_ENTITY_SCHEDULER_HANDLER: Execute sub-case 0 with entities [EventEntity, EventEntity], work=ExtData[1]->WorkLocal[9]
  5: 0x02E7 [0x1C] WAIT(90* ticks)
  6: 0x02EA [0x07] ExtData[1]->WorkLocal[8] += 1024*
  7: 0x02EF [0x0D] ExtData[1]->WorkLocal[8] &= 4095*
  8: 0x02F4 [0x39] SET_ENTITY_DIRECTION(direction=ExtData[1]->WorkLocal[8])
  9: 0x02F7 [0x6F] WAIT_FRAME_DELAY: Yield until WaitTime reaches zero
 10: 0x02F8 [0x70] WAIT_ENTITY_RENDER_FLAG: Wait while EventEntity->Render.Flags3 bit 2 is set (cancel turn if not)
 11: 0x02F9 [0x01] GOTO 0x02C9
 12: 0x02FC [0x00] END_REQSTACK()
```

### Event 65535.32

#### Metadata

| Field        | Value   |
|--------------|---------|
| Entrypoint   | 0x02FD  |
| Data Size    | 4 bytes |
| Instructions | 2       |

```
      00 01 02 03 04 05 06 07  08 09 0A 0B 0C 0D 0E 0F
      -- -- -- -- -- -- -- --  -- -- -- -- -- -- -- --
02F0:                                         05 07 00               ...
0300: 00                                                .               
```

#### Opcodes

```
  0: 0x02FD [0x05] ExtData[1]->WorkLocal[7] = 1
  1: 0x0300 [0x00] END_REQSTACK()
```
