# 16908449 - Bahamut

## Common Data

| Field            | Value                  |
|------------------|------------------------|
| Zone             | Sealion's Den (ID: 32) |
| Block Size       | 356 bytes              |
| Total Events     | 10                     |
| References Count | 13                     |

## List of Events

| Event ID                 | Entrypoint   |   Size |   Instructions |
|--------------------------|--------------|--------|----------------|
| [65535](#event-65535)    | 0x0000       |     15 |              4 |
| [33](#event-33)          | 0x000F       |     19 |              3 |
| [65535.1](#event-655351) | 0x0022       |     10 |              2 |
| [65535.2](#event-655352) | 0x002C       |     33 |              5 |
| [65535.3](#event-655353) | 0x004D       |     10 |              2 |
| [65535.4](#event-655354) | 0x0057       |     33 |              5 |
| [65535.5](#event-655355) | 0x0078       |     33 |              5 |
| [65535.6](#event-655356) | 0x0099       |     33 |              3 |
| [65535.7](#event-655357) | 0x00BA       |     16 |              2 |
| [65535.8](#event-655358) | 0x00CA       |     46 |              4 |

## DAT References (imed_data)

|   Index | Hex Value   |   Dec Value |
|---------|-------------|-------------|
|       0 | 0xFFF63BBA  |  4294327226 |
|       1 | 0x88798     |      559000 |
|       2 | 0xFFFC2F70  |  4294717296 |
|       3 | 0x0400      |        1024 |
|       4 | 0x0000      |           0 |
|       5 | 0xFFFC7D90  |  4294737296 |
|       6 | 0x05DC      |        1500 |
|       7 | 0x89350     |      562000 |
|       8 | 0x36B0      |       14000 |
|       9 | 0x006A      |         106 |
|      10 | 0x01F4      |         500 |
|      11 | 0x004D      |          77 |
|      12 | 0x01F5      |         501 |

## Events

### Event 65535

#### Metadata

| Field        | Value    |
|--------------|----------|
| Entrypoint   | 0x0000   |
| Data Size    | 15 bytes |
| Instructions | 4        |

```
      00 01 02 03 04 05 06 07  08 09 0A 0B 0C 0D 0E 0F
      -- -- -- -- -- -- -- --  -- -- -- -- -- -- -- --
0000: 94 00 F8 FF FF 7F 92 01  F8 FF FF 7F 33 01 00     ............3.. 
```

#### Opcodes

```
  0: 0x0000 [0x94] EventEntity->Render.Flags3 = Flags3  // No change (flag=0)
  1: 0x0006 [0x92] EventEntity->Render.Flags3 ^= 0x01
  2: 0x000C [0x33] EventEntity->Render.Flags0 |= 0x200000 // Bit 21 (flag=0x01)
  3: 0x000E [0x00] END_REQSTACK()
```

### Event 33

#### Metadata

| Field        | Value    |
|--------------|----------|
| Entrypoint   | 0x000F   |
| Data Size    | 19 bytes |
| Instructions | 3        |

```
      00 01 02 03 04 05 06 07  08 09 0A 0B 0C 0D 0E 0F
      -- -- -- -- -- -- -- --  -- -- -- -- -- -- -- --
0000:                                               37                 7
0010: 00 80 01 80 02 80 03 80  6C F8 FF FF 7F 04 80 04  ........l.......
0020: 80 00                                             ..              
```

#### Opcodes

```
  0: 0x000F [0x37] UPDATE_EVENT_POSITION_AND_DIR: x=-640.070*, z=559.000*, y=-250.000*, direction=90.0°*
  1: 0x0018 [0x6C] FADE_ENTITY_COLOR(entity_id=EventEntity, end_alpha=0*, fade_time=0*)
  2: 0x0021 [0x00] END_REQSTACK()
```

### Event 65535.1

#### Metadata

| Field        | Value    |
|--------------|----------|
| Entrypoint   | 0x0022   |
| Data Size    | 10 bytes |
| Instructions | 2        |

```
      00 01 02 03 04 05 06 07  08 09 0A 0B 0C 0D 0E 0F
      -- -- -- -- -- -- -- --  -- -- -- -- -- -- -- --
0020:       37 00 80 01 80 05  80 03 80 00                7.........    
```

#### Opcodes

```
  0: 0x0022 [0x37] UPDATE_EVENT_POSITION_AND_DIR: x=-640.070*, z=559.000*, y=-230.000*, direction=90.0°*
  1: 0x002B [0x00] END_REQSTACK()
```

### Event 65535.2

#### Metadata

| Field        | Value    |
|--------------|----------|
| Entrypoint   | 0x002C   |
| Data Size    | 33 bytes |
| Instructions | 5        |

```
      00 01 02 03 04 05 06 07  08 09 0A 0B 0C 0D 0E 0F
      -- -- -- -- -- -- -- --  -- -- -- -- -- -- -- --
0020:                                      3B F8 FF FF              ;...
0030: 7F 00 00 01 00 02 00 3A  F8 FF FF 7F 03 00 07 00  .......:........
0040: 00 06 80 37 00 00 01 00  02 00 03 00 00           ...7.........   
```

#### Opcodes

```
  0: 0x002C [0x3B] GET_ENTITY_POSITION(entity=EventEntity, x_destination=ExtData[1]->WorkLocal[0], y_destination=ExtData[1]->WorkLocal[1], z_destination=ExtData[1]->WorkLocal[2])
  1: 0x0037 [0x3A] CONVERT_YAW_TO_BYTE(entity=EventEntity, result_destination=ExtData[1]->WorkLocal[3])
  2: 0x003E [0x07] ExtData[1]->WorkLocal[0] += 1500*
  3: 0x0043 [0x37] UPDATE_EVENT_POSITION_AND_DIR: x=ExtData[1]->WorkLocal[0], z=ExtData[1]->WorkLocal[1], y=ExtData[1]->WorkLocal[2], direction=ExtData[1]->WorkLocal[3]
  4: 0x004C [0x00] END_REQSTACK()
```

### Event 65535.3

#### Metadata

| Field        | Value    |
|--------------|----------|
| Entrypoint   | 0x004D   |
| Data Size    | 10 bytes |
| Instructions | 2        |

```
      00 01 02 03 04 05 06 07  08 09 0A 0B 0C 0D 0E 0F
      -- -- -- -- -- -- -- --  -- -- -- -- -- -- -- --
0040:                                         37 00 80               7..
0050: 07 80 05 80 03 80 00                              .......         
```

#### Opcodes

```
  0: 0x004D [0x37] UPDATE_EVENT_POSITION_AND_DIR: x=-640.070*, z=562.000*, y=-230.000*, direction=90.0°*
  1: 0x0056 [0x00] END_REQSTACK()
```

### Event 65535.4

#### Metadata

| Field        | Value    |
|--------------|----------|
| Entrypoint   | 0x0057   |
| Data Size    | 33 bytes |
| Instructions | 5        |

```
      00 01 02 03 04 05 06 07  08 09 0A 0B 0C 0D 0E 0F
      -- -- -- -- -- -- -- --  -- -- -- -- -- -- -- --
0050:                      3B  F8 FF FF 7F 00 00 01 00         ;........
0060: 02 00 3A F8 FF FF 7F 03  00 08 02 00 08 80 37 00  ..:...........7.
0070: 00 01 00 02 00 03 00 00                           ........        
```

#### Opcodes

```
  0: 0x0057 [0x3B] GET_ENTITY_POSITION(entity=EventEntity, x_destination=ExtData[1]->WorkLocal[0], y_destination=ExtData[1]->WorkLocal[1], z_destination=ExtData[1]->WorkLocal[2])
  1: 0x0062 [0x3A] CONVERT_YAW_TO_BYTE(entity=EventEntity, result_destination=ExtData[1]->WorkLocal[3])
  2: 0x0069 [0x08] ExtData[1]->WorkLocal[2] -= 14000*
  3: 0x006E [0x37] UPDATE_EVENT_POSITION_AND_DIR: x=ExtData[1]->WorkLocal[0], z=ExtData[1]->WorkLocal[1], y=ExtData[1]->WorkLocal[2], direction=ExtData[1]->WorkLocal[3]
  4: 0x0077 [0x00] END_REQSTACK()
```

### Event 65535.5

#### Metadata

| Field        | Value    |
|--------------|----------|
| Entrypoint   | 0x0078   |
| Data Size    | 33 bytes |
| Instructions | 5        |

```
      00 01 02 03 04 05 06 07  08 09 0A 0B 0C 0D 0E 0F
      -- -- -- -- -- -- -- --  -- -- -- -- -- -- -- --
0070:                          3B F8 FF FF 7F 00 00 01          ;.......
0080: 00 02 00 3A F8 FF FF 7F  03 00 07 02 00 08 80 37  ...:...........7
0090: 00 00 01 00 02 00 03 00  00                       .........       
```

#### Opcodes

```
  0: 0x0078 [0x3B] GET_ENTITY_POSITION(entity=EventEntity, x_destination=ExtData[1]->WorkLocal[0], y_destination=ExtData[1]->WorkLocal[1], z_destination=ExtData[1]->WorkLocal[2])
  1: 0x0083 [0x3A] CONVERT_YAW_TO_BYTE(entity=EventEntity, result_destination=ExtData[1]->WorkLocal[3])
  2: 0x008A [0x07] ExtData[1]->WorkLocal[2] += 14000*
  3: 0x008F [0x37] UPDATE_EVENT_POSITION_AND_DIR: x=ExtData[1]->WorkLocal[0], z=ExtData[1]->WorkLocal[1], y=ExtData[1]->WorkLocal[2], direction=ExtData[1]->WorkLocal[3]
  4: 0x0098 [0x00] END_REQSTACK()
```

### Event 65535.6

#### Metadata

| Field        | Value    |
|--------------|----------|
| Entrypoint   | 0x0099   |
| Data Size    | 33 bytes |
| Instructions | 3        |

```
      00 01 02 03 04 05 06 07  08 09 0A 0B 0C 0D 0E 0F
      -- -- -- -- -- -- -- --  -- -- -- -- -- -- -- --
0090:                             9F 09 80 A1 00 02 01           .......
00A0: A1 00 02 01 73 65 73 70  04 80 5B 0A 80 F8 FF FF  ....sesp..[.....
00B0: 7F F8 FF FF 7F 6D 67 61  30 00                    .....mga0.      
```

#### Opcodes

```
  0: 0x0099 [0x9F] LOAD_SCHEDULED_TASK_ALT: Load scheduler "sesp" with entities [Bahamut (ID: 16908449/0x010200A1), Bahamut (ID: 16908449/0x010200A1)], work=[106*, 0*]
  1: 0x00AA [0x5B] LOAD_EXT_SCHEDULER: Load scheduler "mga0" with entities [EventEntity, EventEntity], work=500*
  2: 0x00B9 [0x00] END_REQSTACK()
```

### Event 65535.7

#### Metadata

| Field        | Value    |
|--------------|----------|
| Entrypoint   | 0x00BA   |
| Data Size    | 16 bytes |
| Instructions | 2        |

```
      00 01 02 03 04 05 06 07  08 09 0A 0B 0C 0D 0E 0F
      -- -- -- -- -- -- -- --  -- -- -- -- -- -- -- --
00B0:                                5B 0A 80 F8 FF FF            [.....
00C0: 7F F8 FF FF 7F 6D 67 61  31 00                    .....mga1.      
```

#### Opcodes

```
  0: 0x00BA [0x5B] LOAD_EXT_SCHEDULER: Load scheduler "mga1" with entities [EventEntity, EventEntity], work=500*
  1: 0x00C9 [0x00] END_REQSTACK()
```

### Event 65535.8

#### Metadata

| Field        | Value    |
|--------------|----------|
| Entrypoint   | 0x00CA   |
| Data Size    | 46 bytes |
| Instructions | 4        |

```
      00 01 02 03 04 05 06 07  08 09 0A 0B 0C 0D 0E 0F
      -- -- -- -- -- -- -- --  -- -- -- -- -- -- -- --
00C0:                                45 0B 80 F0 FF FF            E.....
00D0: 7F F0 FF FF 7F 73 31 33  31 04 80 5B 0C 80 F8 FF  .....s131..[....
00E0: FF 7F F8 FF FF 7F 68 6F  75 31 53 F8 FF FF 7F F8  ......hou1S.....
00F0: FF FF 7F 68 6F 75 31 00                           ...hou1.        
```

#### Opcodes

```
  0: 0x00CA [0x45] LOAD_SCHEDULED_TASK: Load scheduler "s131" with entities [LocalPlayer, LocalPlayer], work=[77*, 0*]
  1: 0x00DB [0x5B] LOAD_EXT_SCHEDULER: Load scheduler "hou1" with entities [EventEntity, EventEntity], work=501*
  2: 0x00EA [0x53] WAIT_SCHEDULER_TASK: Wait for scheduler "hou1" with entities [EventEntity, EventEntity]
  3: 0x00F7 [0x00] END_REQSTACK()
```
