# 16908429 - Prishe

## Common Data

| Field            | Value                  |
|------------------|------------------------|
| Zone             | Sealion's Den (ID: 32) |
| Block Size       | 2332 bytes             |
| Total Events     | 64                     |
| References Count | 111                    |

## List of Events

| Event ID                   | Entrypoint   |   Size |   Instructions |
|----------------------------|--------------|--------|----------------|
| [65535](#event-65535)      | 0x0000       |     13 |              3 |
| [65535.1](#event-655351)   | 0x000D       |     37 |              7 |
| [65535.2](#event-655352)   | 0x0032       |     25 |              6 |
| [65535.3](#event-655353)   | 0x004B       |     88 |             16 |
| [65535.4](#event-655354)   | 0x00A3       |     10 |              2 |
| [65535.5](#event-655355)   | 0x00AD       |     19 |              3 |
| [65535.6](#event-655356)   | 0x00C0       |     20 |              5 |
| [65535.7](#event-655357)   | 0x00D4       |     10 |              2 |
| [33](#event-33)            | 0x00DE       |      7 |              2 |
| [34](#event-34)            | 0x00E5       |      7 |              2 |
| [65535.8](#event-655358)   | 0x00EC       |     21 |              3 |
| [65535.9](#event-655359)   | 0x0101       |     36 |              7 |
| [65535.10](#event-6553510) | 0x0125       |     42 |              8 |
| [65535.11](#event-6553511) | 0x014F       |     20 |              4 |
| [65535.12](#event-6553512) | 0x0163       |     39 |              9 |
| [65535.13](#event-6553513) | 0x018A       |     10 |              2 |
| [65535.14](#event-6553514) | 0x0194       |     22 |              6 |
| [2](#event-2)              | 0x01AA       |     21 |              4 |
| [31](#event-31)            | 0x01BF       |      7 |              2 |
| [32](#event-32)            | 0x01C6       |      7 |              2 |
| [65535.15](#event-6553515) | 0x01CD       |     19 |              3 |
| [65535.16](#event-6553516) | 0x01E0       |     10 |              2 |
| [65535.17](#event-6553517) | 0x01EA       |     16 |              2 |
| [65535.18](#event-6553518) | 0x01FA       |     39 |              5 |
| [65535.19](#event-6553519) | 0x0221       |     49 |              5 |
| [65535.20](#event-6553520) | 0x0252       |     25 |              3 |
| [65535.21](#event-6553521) | 0x026B       |     19 |              3 |
| [65535.22](#event-6553522) | 0x027E       |     39 |              5 |
| [65535.23](#event-6553523) | 0x02A5       |      3 |              2 |
| [65535.24](#event-6553524) | 0x02A8       |      3 |              2 |
| [65535.25](#event-6553525) | 0x02AB       |     16 |              2 |
| [65535.26](#event-6553526) | 0x02BB       |     16 |              2 |
| [65535.27](#event-6553527) | 0x02CB       |     16 |              2 |
| [65535.28](#event-6553528) | 0x02DB       |     16 |              2 |
| [65535.29](#event-6553529) | 0x02EB       |     16 |              2 |
| [65535.30](#event-6553530) | 0x02FB       |     16 |              2 |
| [65535.31](#event-6553531) | 0x030B       |     16 |              2 |
| [65535.32](#event-6553532) | 0x031B       |     16 |              2 |
| [65535.33](#event-6553533) | 0x032B       |     16 |              2 |
| [65535.34](#event-6553534) | 0x033B       |     16 |              2 |
| [65535.35](#event-6553535) | 0x034B       |     16 |              2 |
| [65535.36](#event-6553536) | 0x035B       |     19 |              3 |
| [65535.37](#event-6553537) | 0x036E       |     16 |              2 |
| [65535.38](#event-6553538) | 0x037E       |     16 |              2 |
| [13](#event-13)            | 0x038E       |     10 |              2 |
| [65535.39](#event-6553539) | 0x0398       |     15 |              5 |
| [65535.40](#event-6553540) | 0x03A7       |     15 |              5 |
| [65535.41](#event-6553541) | 0x03B6       |     34 |              8 |
| [65535.42](#event-6553542) | 0x03D8       |     36 |              4 |
| [65535.43](#event-6553543) | 0x03FC       |     36 |              4 |
| [65535.44](#event-6553544) | 0x0420       |     19 |              3 |
| [65535.45](#event-6553545) | 0x0433       |     16 |              2 |
| [17](#event-17)            | 0x0443       |     10 |              2 |
| [65535.46](#event-6553546) | 0x044D       |     15 |              5 |
| [65535.47](#event-6553547) | 0x045C       |     56 |              6 |
| [65535.48](#event-6553548) | 0x0494       |    221 |             23 |
| [65535.49](#event-6553549) | 0x0571       |     16 |              2 |
| [65535.50](#event-6553550) | 0x0581       |     76 |              8 |
| [65535.51](#event-6553551) | 0x05CD       |     16 |              2 |
| [65535.52](#event-6553552) | 0x05DD       |     36 |              4 |
| [65535.53](#event-6553553) | 0x0601       |     16 |              2 |
| [65535.54](#event-6553554) | 0x0611       |     16 |              2 |
| [65535.55](#event-6553555) | 0x0621       |     16 |              2 |
| [65535.56](#event-6553556) | 0x0631       |     31 |              4 |

## DAT References (imed_data)

|   Index | Hex Value   |   Dec Value |
|---------|-------------|-------------|
|       0 | 0x0036      |          54 |
|       1 | 0x1388      |        5000 |
|       2 | 0x0276      |         630 |
|       3 | 0xFFFFF830  |  4294965296 |
|       4 | 0xFFFFFF38  |  4294967096 |
|       5 | 0xFFF41F7A  |  4294188922 |
|       6 | 0xFFFEE20D  |  4294894093 |
|       7 | 0xFFFE6C4D  |  4294863949 |
|       8 | 0x034A      |         842 |
|       9 | 0xFFF425BA  |  4294190522 |
|      10 | 0xFFFEE0C8  |  4294893768 |
|      11 | 0x0C4D      |        3149 |
|      12 | 0x0000      |           0 |
|      13 | 0x0001      |           1 |
|      14 | 0xFFF63BFD  |  4294327293 |
|      15 | 0x7C7D3     |      509907 |
|      16 | 0xFFFC6A82  |  4294732418 |
|      17 | 0x0411      |        1041 |
|      18 | 0xFFF63D26  |  4294327590 |
|      19 | 0x7E836     |      518198 |
|      20 | 0xFFFC784D  |  4294735949 |
|      21 | 0x00C8      |         200 |
|      22 | 0xFFF62A17  |  4294322711 |
|      23 | 0x81900     |      530688 |
|      24 | 0xFFFC7914  |  4294736148 |
|      25 | 0x03AF      |         943 |
|      26 | 0x0266      |         614 |
|      27 | 0x032C      |         812 |
|      28 | 0x0269      |         617 |
|      29 | 0xFFF6316D  |  4294324589 |
|      30 | 0x7E75D     |      517981 |
|      31 | 0xFFFC7751  |  4294735697 |
|      32 | 0xFFF63712  |  4294326034 |
|      33 | 0x7D5F3     |      513523 |
|      34 | 0x0005      |           5 |
|      35 | 0x01DB      |         475 |
|      36 | 0xFFF63B37  |  4294327095 |
|      37 | 0x7D29B     |      512667 |
|      38 | 0x0AFB      |        2811 |
|      39 | 0xFFF64449  |  4294329417 |
|      40 | 0x80471     |      525425 |
|      41 | 0x001E      |          30 |
|      42 | 0xFFF64287  |  4294328967 |
|      43 | 0x7E2BE     |      516798 |
|      44 | 0x0C0E      |        3086 |
|      45 | 0x0C01      |        3073 |
|      46 | 0x000F      |          15 |
|      47 | 0xFFF63E11  |  4294327825 |
|      48 | 0x7D8A0     |      514208 |
|      49 | 0xFFF64345  |  4294329157 |
|      50 | 0x80D8B     |      527755 |
|      51 | 0x0400      |        1024 |
|      52 | 0xFFF654DA  |  4294333658 |
|      53 | 0xFFF69675  |  4294350453 |
|      54 | 0x2EEDA     |      192218 |
|      55 | 0x04B2      |        1202 |
|      56 | 0xFFF437C1  |  4294195137 |
|      57 | 0xFFFF04B9  |  4294902969 |
|      58 | 0xFFFE6308  |  4294861576 |
|      59 | 0x0532      |        1330 |
|      60 | 0x0265      |         613 |
|      61 | 0x0014      |          20 |
|      62 | 0x0048      |          72 |
|      63 | 0x005A      |          90 |
|      64 | 0x0078      |         120 |
|      65 | 0x003C      |          60 |
|      66 | 0x01E3      |         483 |
|      67 | 0x026C      |         620 |
|      68 | 0x0274      |         628 |
|      69 | 0x951DD     |      610781 |
|      70 | 0xBF49F     |      783519 |
|      71 | 0x204C1     |      132289 |
|      72 | 0x0275      |         629 |
|      73 | 0x0012      |          18 |
|      74 | 0x9574D     |      612173 |
|      75 | 0xBDA0A     |      776714 |
|      76 | 0x2063F     |      132671 |
|      77 | 0x95821     |      612385 |
|      78 | 0xBE12F     |      778543 |
|      79 | 0x20623     |      132643 |
|      80 | 0x92EF1     |      601841 |
|      81 | 0xB81C0     |      754112 |
|      82 | 0x20B7C     |      134012 |
|      83 | 0x03D5      |         981 |
|      84 | 0x93771     |      604017 |
|      85 | 0xB55DE     |      742878 |
|      86 | 0x21097     |      135319 |
|      87 | 0x95C6D     |      613485 |
|      88 | 0xB2D43     |      732483 |
|      89 | 0x21379     |      136057 |
|      90 | 0x0023      |          35 |
|      91 | 0x0072      |         114 |
|      92 | 0x0268      |         616 |
|      93 | 0x9525A     |      610906 |
|      94 | 0xBB3F6     |      766966 |
|      95 | 0x206E7     |      132839 |
|      96 | 0x0C79      |        3193 |
|      97 | 0x000D      |          13 |
|      98 | 0x95AD0     |      613072 |
|      99 | 0xBCC50     |      773200 |
|     100 | 0x206BC     |      132796 |
|     101 | 0x00A6      |         166 |
|     102 | 0x004B      |          75 |
|     103 | 0x000A      |          10 |
|     104 | 0x0028      |          40 |
|     105 | 0x02AC      |         684 |
|     106 | 0x0096      |         150 |
|     107 | 0x00A7      |         167 |
|     108 | 0x02AD      |         685 |
|     109 | 0x0C00      |        3072 |
|     110 | 0x02B1      |         689 |

## Events

### Event 65535

#### Metadata

| Field        | Value    |
|--------------|----------|
| Entrypoint   | 0x0000   |
| Data Size    | 13 bytes |
| Instructions | 3        |

```
      00 01 02 03 04 05 06 07  08 09 0A 0B 0C 0D 0E 0F
      -- -- -- -- -- -- -- --  -- -- -- -- -- -- -- --
0000: 92 01 F8 FF FF 7F 94 01  F8 FF FF 7F 00           .............   
```

#### Opcodes

```
  0: 0x0000 [0x92] EventEntity->Render.Flags3 ^= 0x01
  1: 0x0006 [0x94] EventEntity->Render.Flags3 ^= 0x01
  2: 0x000C [0x00] END_REQSTACK()
```

### Event 65535.1

#### Metadata

| Field        | Value    |
|--------------|----------|
| Entrypoint   | 0x000D   |
| Data Size    | 37 bytes |
| Instructions | 7        |

```
      00 01 02 03 04 05 06 07  08 09 0A 0B 0C 0D 0E 0F
      -- -- -- -- -- -- -- --  -- -- -- -- -- -- -- --
0000:                                         32 00 80               2..
0010: 03 00 00 01 80 1A 5F 00  1F 00 01 00 02 00 03 00  ......_.........
0020: 1F 01 5B 02 80 F8 FF FF  7F F8 FF FF 7F 68 31 30  ..[..........h10
0030: 31 00                                             1.              
```

#### Opcodes

```
  0: 0x000D [0x32] ExtData[1]->MainSpeed = 54* * 0.1
  1: 0x0010 [0x03] ExtData[1]->WorkLocal[0] = 5000*
  2: 0x0015 [0x1A] CALL_SUBROUTINE(address=0x005F)
  3: 0x0018 [0x1F] MOVE_ENTITY: EventEntity moves to X=ExtData[1]->WorkLocal[1], Z=ExtData[1]->WorkLocal[2], Y=ExtData[1]->WorkLocal[3]
  4: 0x0020 [0x1F] MOVE_ENTITY: Update entity position (mode=1)
  5: 0x0022 [0x5B] LOAD_EXT_SCHEDULER: Load scheduler "h101" with entities [EventEntity, EventEntity], work=630*
  6: 0x0031 [0x00] END_REQSTACK()
```

### Event 65535.2

#### Metadata

| Field        | Value    |
|--------------|----------|
| Entrypoint   | 0x0032   |
| Data Size    | 25 bytes |
| Instructions | 6        |

```
      00 01 02 03 04 05 06 07  08 09 0A 0B 0C 0D 0E 0F
      -- -- -- -- -- -- -- --  -- -- -- -- -- -- -- --
0030:       03 00 00 03 80 1A  5F 00 33 01 07 03 00 04    ......_.3.....
0040: 80 37 01 00 02 00 03 00  04 00 00                 .7.........     
```

#### Opcodes

```
  0: 0x0032 [0x03] ExtData[1]->WorkLocal[0] = 4294965296*
  1: 0x0037 [0x1A] CALL_SUBROUTINE(address=0x005F)
  2: 0x003A [0x33] EventEntity->Render.Flags0 |= 0x200000 // Bit 21 (flag=0x01)
  3: 0x003C [0x07] ExtData[1]->WorkLocal[3] += 4294967096*
  4: 0x0041 [0x37] UPDATE_EVENT_POSITION_AND_DIR: x=ExtData[1]->WorkLocal[1], z=ExtData[1]->WorkLocal[2], y=ExtData[1]->WorkLocal[3], direction=ExtData[1]->WorkLocal[4]
  5: 0x004A [0x00] END_REQSTACK()
```

### Event 65535.3

#### Metadata

| Field        | Value    |
|--------------|----------|
| Entrypoint   | 0x004B   |
| Data Size    | 88 bytes |
| Instructions | 4        |

```
      00 01 02 03 04 05 06 07  08 09 0A 0B 0C 0D 0E 0F
      -- -- -- -- -- -- -- --  -- -- -- -- -- -- -- --
0040:                                   5E 69 64 6C 30             ^idl0
0050: 37 05 80 06 80 07 80 08  80 1E 96 00 02 01 00 3B  7..............;
0060: F8 FF FF 7F 01 00 02 00  03 00 3A F8 FF FF 7F 04  ..........:.....
0070: 00 17 05 00 04 00 00 00  16 06 00 04 00 00 00 07  ................
0080: 01 00 05 00 07 02 00 06  00 1B 17 05 00 04 00 00  ................
0090: 00 16 06 00 04 00 00 00  07 01 00 05 00 07 02 00  ................
00A0: 06 00 1B                                          ...             
```

#### Opcodes

```
  0: 0x004B [0x5E] EventEntity goes idle (kills current action) (animation: "idl0")
  1: 0x0050 [0x37] UPDATE_EVENT_POSITION_AND_DIR: x=-778.374*, z=-73.203*, y=-103.347*, direction=74.0°*
  2: 0x0059 [0x1E] EventEntity looks at Louverance (ID: 16908438/0x01020096) and starts talking
  3: 0x005E [0x00] END_REQSTACK()
```

#### Data or dead code:

```
# Dead code (unreachable instructions):
     0x005F [0x3B] GET_ENTITY_POSITION(entity=EventEntity, x_destination=ExtData[1]->WorkLocal[1], y_destination=ExtData[1]->WorkLocal[2], z_destination=ExtData[1]->WorkLocal[3])
     0x006A [0x3A] CONVERT_YAW_TO_BYTE(entity=EventEntity, result_destination=ExtData[1]->WorkLocal[4])
     0x0071 [0x17] ExtData[1]->WorkLocal[5] = cos(ExtData[1]->WorkLocal[4]) * ExtData[1]->WorkLocal[0]
     0x0078 [0x16] ExtData[1]->WorkLocal[6] = sin(ExtData[1]->WorkLocal[4]) * ExtData[1]->WorkLocal[0]
     0x007F [0x07] ExtData[1]->WorkLocal[1] += ExtData[1]->WorkLocal[5]
     0x0084 [0x07] ExtData[1]->WorkLocal[2] += ExtData[1]->WorkLocal[6]
     0x0089 [0x1B] RETURN
     0x008A [0x17] ExtData[1]->WorkLocal[5] = cos(ExtData[1]->WorkLocal[4]) * ExtData[1]->WorkLocal[0]
     0x0091 [0x16] ExtData[1]->WorkLocal[6] = sin(ExtData[1]->WorkLocal[4]) * ExtData[1]->WorkLocal[0]
     0x0098 [0x07] ExtData[1]->WorkLocal[1] += ExtData[1]->WorkLocal[5]
     0x009D [0x07] ExtData[1]->WorkLocal[2] += ExtData[1]->WorkLocal[6]
     0x00A2 [0x1B] RETURN
```

### Event 65535.4

#### Metadata

| Field        | Value    |
|--------------|----------|
| Entrypoint   | 0x00A3   |
| Data Size    | 10 bytes |
| Instructions | 2        |

```
      00 01 02 03 04 05 06 07  08 09 0A 0B 0C 0D 0E 0F
      -- -- -- -- -- -- -- --  -- -- -- -- -- -- -- --
00A0:          37 09 80 0A 80  07 80 0B 80 00              7.........   
```

#### Opcodes

```
  0: 0x00A3 [0x37] UPDATE_EVENT_POSITION_AND_DIR: x=-776.774*, z=-73.528*, y=-103.347*, direction=276.8°*
  1: 0x00AC [0x00] END_REQSTACK()
```

### Event 65535.5

#### Metadata

| Field        | Value    |
|--------------|----------|
| Entrypoint   | 0x00AD   |
| Data Size    | 19 bytes |
| Instructions | 3        |

```
      00 01 02 03 04 05 06 07  08 09 0A 0B 0C 0D 0E 0F
      -- -- -- -- -- -- -- --  -- -- -- -- -- -- -- --
00A0:                                         6C F8 FF               l..
00B0: FF 7F 0C 80 0D 80 37 0E  80 0F 80 10 80 11 80 00  ......7.........
```

#### Opcodes

```
  0: 0x00AD [0x6C] FADE_ENTITY_COLOR(entity_id=EventEntity, end_alpha=0*, fade_time=1*)
  1: 0x00B6 [0x37] UPDATE_EVENT_POSITION_AND_DIR: x=-640.003*, z=509.907*, y=-234.878*, direction=91.5°*
  2: 0x00BF [0x00] END_REQSTACK()
```

### Event 65535.6

#### Metadata

| Field        | Value    |
|--------------|----------|
| Entrypoint   | 0x00C0   |
| Data Size    | 20 bytes |
| Instructions | 5        |

```
      00 01 02 03 04 05 06 07  08 09 0A 0B 0C 0D 0E 0F
      -- -- -- -- -- -- -- --  -- -- -- -- -- -- -- --
00C0: 94 01 F8 FF FF 7F A4 01  33 01 37 12 80 13 80 14  ........3.7.....
00D0: 80 15 80 00                                       ....            
```

#### Opcodes

```
  0: 0x00C0 [0x94] EventEntity->Render.Flags3 ^= 0x01
  1: 0x00C6 [0xA4] EventEntity->Flags3.unknown_3_2 = 1
  2: 0x00C8 [0x33] EventEntity->Render.Flags0 |= 0x200000 // Bit 21 (flag=0x01)
  3: 0x00CA [0x37] UPDATE_EVENT_POSITION_AND_DIR: x=-639.706*, z=518.198*, y=-231.347*, direction=17.6°*
  4: 0x00D3 [0x00] END_REQSTACK()
```

### Event 65535.7

#### Metadata

| Field        | Value    |
|--------------|----------|
| Entrypoint   | 0x00D4   |
| Data Size    | 10 bytes |
| Instructions | 2        |

```
      00 01 02 03 04 05 06 07  08 09 0A 0B 0C 0D 0E 0F
      -- -- -- -- -- -- -- --  -- -- -- -- -- -- -- --
00D0:             37 16 80 17  80 18 80 19 80 00            7.........  
```

#### Opcodes

```
  0: 0x00D4 [0x37] UPDATE_EVENT_POSITION_AND_DIR: x=-644.585*, z=530.688*, y=-231.148*, direction=82.9°*
  1: 0x00DD [0x00] END_REQSTACK()
```

### Event 33

#### Metadata

| Field        | Value   |
|--------------|---------|
| Entrypoint   | 0x00DE  |
| Data Size    | 7 bytes |
| Instructions | 2       |

```
      00 01 02 03 04 05 06 07  08 09 0A 0B 0C 0D 0E 0F
      -- -- -- -- -- -- -- --  -- -- -- -- -- -- -- --
00D0:                                            94 01                ..
00E0: F8 FF FF 7F 00                                    .....           
```

#### Opcodes

```
  0: 0x00DE [0x94] EventEntity->Render.Flags3 ^= 0x01
  1: 0x00E4 [0x00] END_REQSTACK()
```

### Event 34

#### Metadata

| Field        | Value   |
|--------------|---------|
| Entrypoint   | 0x00E5  |
| Data Size    | 7 bytes |
| Instructions | 2       |

```
      00 01 02 03 04 05 06 07  08 09 0A 0B 0C 0D 0E 0F
      -- -- -- -- -- -- -- --  -- -- -- -- -- -- -- --
00E0:                94 01 F8  FF FF 7F 00                   .......    
```

#### Opcodes

```
  0: 0x00E5 [0x94] EventEntity->Render.Flags3 ^= 0x01
  1: 0x00EB [0x00] END_REQSTACK()
```

### Event 65535.8

#### Metadata

| Field        | Value    |
|--------------|----------|
| Entrypoint   | 0x00EC   |
| Data Size    | 21 bytes |
| Instructions | 3        |

```
      00 01 02 03 04 05 06 07  08 09 0A 0B 0C 0D 0E 0F
      -- -- -- -- -- -- -- --  -- -- -- -- -- -- -- --
00E0:                                      80 F8 FF FF              ....
00F0: 7F 5B 1A 80 F8 FF FF 7F  F8 FF FF 7F 74 61 6F 30  .[..........tao0
0100: 00                                                .               
```

#### Opcodes

```
  0: 0x00EC [0x80] LOAD_WAIT(entity=EventEntity)
  1: 0x00F1 [0x5B] LOAD_EXT_SCHEDULER: Load scheduler "tao0" with entities [EventEntity, EventEntity], work=614*
  2: 0x0100 [0x00] END_REQSTACK()
```

### Event 65535.9

#### Metadata

| Field        | Value    |
|--------------|----------|
| Entrypoint   | 0x0101   |
| Data Size    | 36 bytes |
| Instructions | 7        |

```
      00 01 02 03 04 05 06 07  08 09 0A 0B 0C 0D 0E 0F
      -- -- -- -- -- -- -- --  -- -- -- -- -- -- -- --
0100:    5E 69 64 6C 30 79 00  F8 FF FF 7F A0 00 02 01   ^idl0y.........
0110: 39 1B 80 6F 70 5B 1C 80  F8 FF FF 7F F8 FF FF 7F  9..op[..........
0120: 63 34 31 32 00                                    c412.           
```

#### Opcodes

```
  0: 0x0101 [0x5E] EventEntity goes idle (kills current action) (animation: "idl0")
  1: 0x0106 [0x79] EventEntity looks at Nag'molada (ID: 16908448/0x010200A0) (Basic look)
  2: 0x0110 [0x39] SET_ENTITY_DIRECTION(direction=4.5°*)
  3: 0x0113 [0x6F] WAIT_FRAME_DELAY: Yield until WaitTime reaches zero
  4: 0x0114 [0x70] WAIT_ENTITY_RENDER_FLAG: Wait while EventEntity->Render.Flags3 bit 2 is set (cancel turn if not)
  5: 0x0115 [0x5B] LOAD_EXT_SCHEDULER: Load scheduler "c412" with entities [EventEntity, EventEntity], work=617*
  6: 0x0124 [0x00] END_REQSTACK()
```

### Event 65535.10

#### Metadata

| Field        | Value    |
|--------------|----------|
| Entrypoint   | 0x0125   |
| Data Size    | 42 bytes |
| Instructions | 8        |

```
      00 01 02 03 04 05 06 07  08 09 0A 0B 0C 0D 0E 0F
      -- -- -- -- -- -- -- --  -- -- -- -- -- -- -- --
0120:                37 1D 80  1E 80 1F 80 1B 80 32 00       7........2.
0130: 80 1F 00 20 80 21 80 14  80 1F 01 6F 1C 22 80 5B  ... .!.....o.".[
0140: 23 80 F8 FF FF 7F F8 FF  FF 7F 74 6C 61 30 00     #.........tla0. 
```

#### Opcodes

```
  0: 0x0125 [0x37] UPDATE_EVENT_POSITION_AND_DIR: x=-642.707*, z=517.981*, y=-231.599*, direction=71.4°*
  1: 0x012E [0x32] ExtData[1]->MainSpeed = 54* * 0.1
  2: 0x0131 [0x1F] MOVE_ENTITY: EventEntity moves to X=-641.262*, Z=513.523*, Y=-231.347*
  3: 0x0139 [0x1F] MOVE_ENTITY: Update entity position (mode=1)
  4: 0x013B [0x6F] WAIT_FRAME_DELAY: Yield until WaitTime reaches zero
  5: 0x013C [0x1C] WAIT(5* ticks)
  6: 0x013F [0x5B] LOAD_EXT_SCHEDULER: Load scheduler "tla0" with entities [EventEntity, EventEntity], work=475*
  7: 0x014E [0x00] END_REQSTACK()
```

### Event 65535.11

#### Metadata

| Field        | Value    |
|--------------|----------|
| Entrypoint   | 0x014F   |
| Data Size    | 20 bytes |
| Instructions | 4        |

```
      00 01 02 03 04 05 06 07  08 09 0A 0B 0C 0D 0E 0F
      -- -- -- -- -- -- -- --  -- -- -- -- -- -- -- --
0140:                                               37                 7
0150: 24 80 25 80 14 80 26 80  1E 92 00 02 01 7B 8D 00  $.%...&......{..
0160: 02 01 00                                          ...             
```

#### Opcodes

```
  0: 0x014F [0x37] UPDATE_EVENT_POSITION_AND_DIR: x=-640.201*, z=512.667*, y=-231.347*, direction=247.1°*
  1: 0x0158 [0x1E] EventEntity looks at Kukki-Chebukki (ID: 16908434/0x01020092) and starts talking
  2: 0x015D [0x7B] Prishe (ID: 16908429/0x0102008D) stops talking
  3: 0x0162 [0x00] END_REQSTACK()
```

### Event 65535.12

#### Metadata

| Field        | Value    |
|--------------|----------|
| Entrypoint   | 0x0163   |
| Data Size    | 39 bytes |
| Instructions | 9        |

```
      00 01 02 03 04 05 06 07  08 09 0A 0B 0C 0D 0E 0F
      -- -- -- -- -- -- -- --  -- -- -- -- -- -- -- --
0160:          32 00 80 31 00  27 80 28 80 14 80 29 80     2..1.'.(...).
0170: 31 01 37 2A 80 2B 80 14  80 2C 80 1F 00 27 80 28  1.7*.+...,...'.(
0180: 80 14 80 1F 01 6F 1C 22  80 00                    .....o."..      
```

#### Opcodes

```
  0: 0x0163 [0x32] ExtData[1]->MainSpeed = 54* * 0.1
  1: 0x0166 [0x31] UPDATE_ENTITY_POSITION: Set EventEntity goal position to X=-637.879*, Z=525.425*, Y=-231.347*, Time=30*
  2: 0x0170 [0x31] UPDATE_ENTITY_POSITION: Move EventEntity towards goal position
  3: 0x0172 [0x37] UPDATE_EVENT_POSITION_AND_DIR: x=-638.329*, z=516.798*, y=-231.347*, direction=271.2°*
  4: 0x017B [0x1F] MOVE_ENTITY: EventEntity moves to X=-637.879*, Z=525.425*, Y=-231.347*
  5: 0x0183 [0x1F] MOVE_ENTITY: Update entity position (mode=1)
  6: 0x0185 [0x6F] WAIT_FRAME_DELAY: Yield until WaitTime reaches zero
  7: 0x0186 [0x1C] WAIT(5* ticks)
  8: 0x0189 [0x00] END_REQSTACK()
```

### Event 65535.13

#### Metadata

| Field        | Value    |
|--------------|----------|
| Entrypoint   | 0x018A   |
| Data Size    | 10 bytes |
| Instructions | 2        |

```
      00 01 02 03 04 05 06 07  08 09 0A 0B 0C 0D 0E 0F
      -- -- -- -- -- -- -- --  -- -- -- -- -- -- -- --
0180:                                37 27 80 28 80 14            7'.(..
0190: 80 2D 80 00                                       .-..            
```

#### Opcodes

```
  0: 0x018A [0x37] UPDATE_EVENT_POSITION_AND_DIR: x=-637.879*, z=525.425*, y=-231.347*, direction=270.1°*
  1: 0x0193 [0x00] END_REQSTACK()
```

### Event 65535.14

#### Metadata

| Field        | Value    |
|--------------|----------|
| Entrypoint   | 0x0194   |
| Data Size    | 22 bytes |
| Instructions | 6        |

```
      00 01 02 03 04 05 06 07  08 09 0A 0B 0C 0D 0E 0F
      -- -- -- -- -- -- -- --  -- -- -- -- -- -- -- --
0190:             1E F0 FF FF  7F 1C 2E 80 32 00 80 1F      ........2...
01A0: 00 2F 80 30 80 14 80 1F  01 00                    ./.0......      
```

#### Opcodes

```
  0: 0x0194 [0x1E] EventEntity looks at LocalPlayer and starts talking
  1: 0x0199 [0x1C] WAIT(15* ticks)
  2: 0x019C [0x32] ExtData[1]->MainSpeed = 54* * 0.1
  3: 0x019F [0x1F] MOVE_ENTITY: EventEntity moves to X=-639.471*, Z=514.208*, Y=-231.347*
  4: 0x01A7 [0x1F] MOVE_ENTITY: Update entity position (mode=1)
  5: 0x01A9 [0x00] END_REQSTACK()
```

### Event 2

#### Metadata

| Field        | Value    |
|--------------|----------|
| Entrypoint   | 0x01AA   |
| Data Size    | 21 bytes |
| Instructions | 4        |

```
      00 01 02 03 04 05 06 07  08 09 0A 0B 0C 0D 0E 0F
      -- -- -- -- -- -- -- --  -- -- -- -- -- -- -- --
01A0:                                94 01 F8 FF FF 7F            ......
01B0: 37 31 80 32 80 14 80 33  80 80 F8 FF FF 7F 00     71.2...3....... 
```

#### Opcodes

```
  0: 0x01AA [0x94] EventEntity->Render.Flags3 ^= 0x01
  1: 0x01B0 [0x37] UPDATE_EVENT_POSITION_AND_DIR: x=-638.139*, z=527.755*, y=-231.347*, direction=90.0°*
  2: 0x01B9 [0x80] LOAD_WAIT(entity=EventEntity)
  3: 0x01BE [0x00] END_REQSTACK()
```

### Event 31

#### Metadata

| Field        | Value   |
|--------------|---------|
| Entrypoint   | 0x01BF  |
| Data Size    | 7 bytes |
| Instructions | 2       |

```
      00 01 02 03 04 05 06 07  08 09 0A 0B 0C 0D 0E 0F
      -- -- -- -- -- -- -- --  -- -- -- -- -- -- -- --
01B0:                                               94                 .
01C0: 01 F8 FF FF 7F 00                                 ......          
```

#### Opcodes

```
  0: 0x01BF [0x94] EventEntity->Render.Flags3 ^= 0x01
  1: 0x01C5 [0x00] END_REQSTACK()
```

### Event 32

#### Metadata

| Field        | Value   |
|--------------|---------|
| Entrypoint   | 0x01C6  |
| Data Size    | 7 bytes |
| Instructions | 2       |

```
      00 01 02 03 04 05 06 07  08 09 0A 0B 0C 0D 0E 0F
      -- -- -- -- -- -- -- --  -- -- -- -- -- -- -- --
01C0:                   94 01  F8 FF FF 7F 00                 .......   
```

#### Opcodes

```
  0: 0x01C6 [0x94] EventEntity->Render.Flags3 ^= 0x01
  1: 0x01CC [0x00] END_REQSTACK()
```

### Event 65535.15

#### Metadata

| Field        | Value    |
|--------------|----------|
| Entrypoint   | 0x01CD   |
| Data Size    | 19 bytes |
| Instructions | 3        |

```
      00 01 02 03 04 05 06 07  08 09 0A 0B 0C 0D 0E 0F
      -- -- -- -- -- -- -- --  -- -- -- -- -- -- -- --
01C0:                                         6C F8 FF               l..
01D0: FF 7F 0C 80 0C 80 37 34  80 35 80 36 80 37 80 00  ......74.5.6.7..
```

#### Opcodes

```
  0: 0x01CD [0x6C] FADE_ENTITY_COLOR(entity_id=EventEntity, end_alpha=0*, fade_time=0*)
  1: 0x01D6 [0x37] UPDATE_EVENT_POSITION_AND_DIR: x=-633.638*, z=-616.843*, y=192.218*, direction=105.6°*
  2: 0x01DF [0x00] END_REQSTACK()
```

### Event 65535.16

#### Metadata

| Field        | Value    |
|--------------|----------|
| Entrypoint   | 0x01E0   |
| Data Size    | 10 bytes |
| Instructions | 2        |

```
      00 01 02 03 04 05 06 07  08 09 0A 0B 0C 0D 0E 0F
      -- -- -- -- -- -- -- --  -- -- -- -- -- -- -- --
01E0: 37 38 80 39 80 3A 80 3B  80 00                    78.9.:.;..      
```

#### Opcodes

```
  0: 0x01E0 [0x37] UPDATE_EVENT_POSITION_AND_DIR: x=-772.159*, z=-64.327*, y=-105.720*, direction=116.9°*
  1: 0x01E9 [0x00] END_REQSTACK()
```

### Event 65535.17

#### Metadata

| Field        | Value    |
|--------------|----------|
| Entrypoint   | 0x01EA   |
| Data Size    | 16 bytes |
| Instructions | 2        |

```
      00 01 02 03 04 05 06 07  08 09 0A 0B 0C 0D 0E 0F
      -- -- -- -- -- -- -- --  -- -- -- -- -- -- -- --
01E0:                                5B 3C 80 F8 FF FF            [<....
01F0: 7F F8 FF FF 7F 61 73 30  30 00                    .....as00.      
```

#### Opcodes

```
  0: 0x01EA [0x5B] LOAD_EXT_SCHEDULER: Load scheduler "as00" with entities [EventEntity, EventEntity], work=613*
  1: 0x01F9 [0x00] END_REQSTACK()
```

### Event 65535.18

#### Metadata

| Field        | Value    |
|--------------|----------|
| Entrypoint   | 0x01FA   |
| Data Size    | 39 bytes |
| Instructions | 5        |

```
      00 01 02 03 04 05 06 07  08 09 0A 0B 0C 0D 0E 0F
      -- -- -- -- -- -- -- --  -- -- -- -- -- -- -- --
01F0:                                5B 3C 80 F8 FF FF            [<....
0200: 7F F8 FF FF 7F 61 73 30  31 1C 3D 80 45 3E 80 95  .....as01.=.E>..
0210: 00 02 01 95 00 02 01 73  31 32 38 0C 80 1C 3F 80  .......s128...?.
0220: 00                                                .               
```

#### Opcodes

```
  0: 0x01FA [0x5B] LOAD_EXT_SCHEDULER: Load scheduler "as01" with entities [EventEntity, EventEntity], work=613*
  1: 0x0209 [0x1C] WAIT(20* ticks)
  2: 0x020C [0x45] LOAD_SCHEDULED_TASK: Load scheduler "s128" with entities [Shikaree Z (ID: 16908437/0x01020095), Shikaree Z (ID: 16908437/0x01020095)], work=[72*, 0*]
  3: 0x021D [0x1C] WAIT(90* ticks)
  4: 0x0220 [0x00] END_REQSTACK()
```

### Event 65535.19

#### Metadata

| Field        | Value    |
|--------------|----------|
| Entrypoint   | 0x0221   |
| Data Size    | 49 bytes |
| Instructions | 5        |

```
      00 01 02 03 04 05 06 07  08 09 0A 0B 0C 0D 0E 0F
      -- -- -- -- -- -- -- --  -- -- -- -- -- -- -- --
0220:    5B 3C 80 F8 FF FF 7F  F8 FF FF 7F 61 73 30 32   [<.........as02
0230: 1C 2E 80 45 3E 80 95 00  02 01 95 00 02 01 73 31  ...E>.........s1
0240: 32 39 0C 80 53 F8 FF FF  7F F8 FF FF 7F 61 73 30  29..S........as0
0250: 32 00                                             2.              
```

#### Opcodes

```
  0: 0x0221 [0x5B] LOAD_EXT_SCHEDULER: Load scheduler "as02" with entities [EventEntity, EventEntity], work=613*
  1: 0x0230 [0x1C] WAIT(15* ticks)
  2: 0x0233 [0x45] LOAD_SCHEDULED_TASK: Load scheduler "s129" with entities [Shikaree Z (ID: 16908437/0x01020095), Shikaree Z (ID: 16908437/0x01020095)], work=[72*, 0*]
  3: 0x0244 [0x53] WAIT_SCHEDULER_TASK: Wait for scheduler "as02" with entities [EventEntity, EventEntity]
  4: 0x0251 [0x00] END_REQSTACK()
```

### Event 65535.20

#### Metadata

| Field        | Value    |
|--------------|----------|
| Entrypoint   | 0x0252   |
| Data Size    | 25 bytes |
| Instructions | 3        |

```
      00 01 02 03 04 05 06 07  08 09 0A 0B 0C 0D 0E 0F
      -- -- -- -- -- -- -- --  -- -- -- -- -- -- -- --
0250:       37 16 80 17 80 18  80 19 80 5B 1A 80 F8 FF    7........[....
0260: FF 7F F8 FF FF 7F 61 73  30 33 00                 ......as03.     
```

#### Opcodes

```
  0: 0x0252 [0x37] UPDATE_EVENT_POSITION_AND_DIR: x=-644.585*, z=530.688*, y=-231.148*, direction=82.9°*
  1: 0x025B [0x5B] LOAD_EXT_SCHEDULER: Load scheduler "as03" with entities [EventEntity, EventEntity], work=614*
  2: 0x026A [0x00] END_REQSTACK()
```

### Event 65535.21

#### Metadata

| Field        | Value    |
|--------------|----------|
| Entrypoint   | 0x026B   |
| Data Size    | 19 bytes |
| Instructions | 3        |

```
      00 01 02 03 04 05 06 07  08 09 0A 0B 0C 0D 0E 0F
      -- -- -- -- -- -- -- --  -- -- -- -- -- -- -- --
0260:                                   5B 1A 80 F8 FF             [....
0270: FF 7F F8 FF FF 7F 61 73  30 34 1C 40 80 00        ......as04.@..  
```

#### Opcodes

```
  0: 0x026B [0x5B] LOAD_EXT_SCHEDULER: Load scheduler "as04" with entities [EventEntity, EventEntity], work=614*
  1: 0x027A [0x1C] WAIT(120* ticks)
  2: 0x027D [0x00] END_REQSTACK()
```

### Event 65535.22

#### Metadata

| Field        | Value    |
|--------------|----------|
| Entrypoint   | 0x027E   |
| Data Size    | 39 bytes |
| Instructions | 5        |

```
      00 01 02 03 04 05 06 07  08 09 0A 0B 0C 0D 0E 0F
      -- -- -- -- -- -- -- --  -- -- -- -- -- -- -- --
0270:                                            5B 1A                [.
0280: 80 F8 FF FF 7F F8 FF FF  7F 61 73 30 35 1C 41 80  .........as05.A.
0290: 45 3E 80 95 00 02 01 95  00 02 01 73 31 33 30 0C  E>.........s130.
02A0: 80 1C 40 80 00                                    ..@..           
```

#### Opcodes

```
  0: 0x027E [0x5B] LOAD_EXT_SCHEDULER: Load scheduler "as05" with entities [EventEntity, EventEntity], work=614*
  1: 0x028D [0x1C] WAIT(60* ticks)
  2: 0x0290 [0x45] LOAD_SCHEDULED_TASK: Load scheduler "s130" with entities [Shikaree Z (ID: 16908437/0x01020095), Shikaree Z (ID: 16908437/0x01020095)], work=[72*, 0*]
  3: 0x02A1 [0x1C] WAIT(120* ticks)
  4: 0x02A4 [0x00] END_REQSTACK()
```

### Event 65535.23

#### Metadata

| Field        | Value   |
|--------------|---------|
| Entrypoint   | 0x02A5  |
| Data Size    | 3 bytes |
| Instructions | 2       |

```
      00 01 02 03 04 05 06 07  08 09 0A 0B 0C 0D 0E 0F
      -- -- -- -- -- -- -- --  -- -- -- -- -- -- -- --
02A0:                A5 01 00                                ...        
```

#### Opcodes

```
  0: 0x02A5 [0xA5] EventEntity->Flags3.BallistaTeam |= 0x08  // Set bit 3 of BallistaTeam
  1: 0x02A7 [0x00] END_REQSTACK()
```

### Event 65535.24

#### Metadata

| Field        | Value   |
|--------------|---------|
| Entrypoint   | 0x02A8  |
| Data Size    | 3 bytes |
| Instructions | 2       |

```
      00 01 02 03 04 05 06 07  08 09 0A 0B 0C 0D 0E 0F
      -- -- -- -- -- -- -- --  -- -- -- -- -- -- -- --
02A0:                          A5 00 00                         ...     
```

#### Opcodes

```
  0: 0x02A8 [0xA5] EventEntity->Flags3.BallistaTeam &= ~0x08  // Clear bit 3 of BallistaTeam
  1: 0x02AA [0x00] END_REQSTACK()
```

### Event 65535.25

#### Metadata

| Field        | Value    |
|--------------|----------|
| Entrypoint   | 0x02AB   |
| Data Size    | 16 bytes |
| Instructions | 2        |

```
      00 01 02 03 04 05 06 07  08 09 0A 0B 0C 0D 0E 0F
      -- -- -- -- -- -- -- --  -- -- -- -- -- -- -- --
02A0:                                   5B 23 80 F8 FF             [#...
02B0: FF 7F F8 FF FF 7F 74 6C  62 30 00                 ......tlb0.     
```

#### Opcodes

```
  0: 0x02AB [0x5B] LOAD_EXT_SCHEDULER: Load scheduler "tlb0" with entities [EventEntity, EventEntity], work=475*
  1: 0x02BA [0x00] END_REQSTACK()
```

### Event 65535.26

#### Metadata

| Field        | Value    |
|--------------|----------|
| Entrypoint   | 0x02BB   |
| Data Size    | 16 bytes |
| Instructions | 2        |

```
      00 01 02 03 04 05 06 07  08 09 0A 0B 0C 0D 0E 0F
      -- -- -- -- -- -- -- --  -- -- -- -- -- -- -- --
02B0:                                   5B 23 80 F8 FF             [#...
02C0: FF 7F F8 FF FF 7F 74 6C  62 31 00                 ......tlb1.     
```

#### Opcodes

```
  0: 0x02BB [0x5B] LOAD_EXT_SCHEDULER: Load scheduler "tlb1" with entities [EventEntity, EventEntity], work=475*
  1: 0x02CA [0x00] END_REQSTACK()
```

### Event 65535.27

#### Metadata

| Field        | Value    |
|--------------|----------|
| Entrypoint   | 0x02CB   |
| Data Size    | 16 bytes |
| Instructions | 2        |

```
      00 01 02 03 04 05 06 07  08 09 0A 0B 0C 0D 0E 0F
      -- -- -- -- -- -- -- --  -- -- -- -- -- -- -- --
02C0:                                   5B 23 80 F8 FF             [#...
02D0: FF 7F F8 FF FF 7F 74 6C  65 30 00                 ......tle0.     
```

#### Opcodes

```
  0: 0x02CB [0x5B] LOAD_EXT_SCHEDULER: Load scheduler "tle0" with entities [EventEntity, EventEntity], work=475*
  1: 0x02DA [0x00] END_REQSTACK()
```

### Event 65535.28

#### Metadata

| Field        | Value    |
|--------------|----------|
| Entrypoint   | 0x02DB   |
| Data Size    | 16 bytes |
| Instructions | 2        |

```
      00 01 02 03 04 05 06 07  08 09 0A 0B 0C 0D 0E 0F
      -- -- -- -- -- -- -- --  -- -- -- -- -- -- -- --
02D0:                                   5B 23 80 F8 FF             [#...
02E0: FF 7F F8 FF FF 7F 74 6C  65 31 00                 ......tle1.     
```

#### Opcodes

```
  0: 0x02DB [0x5B] LOAD_EXT_SCHEDULER: Load scheduler "tle1" with entities [EventEntity, EventEntity], work=475*
  1: 0x02EA [0x00] END_REQSTACK()
```

### Event 65535.29

#### Metadata

| Field        | Value    |
|--------------|----------|
| Entrypoint   | 0x02EB   |
| Data Size    | 16 bytes |
| Instructions | 2        |

```
      00 01 02 03 04 05 06 07  08 09 0A 0B 0C 0D 0E 0F
      -- -- -- -- -- -- -- --  -- -- -- -- -- -- -- --
02E0:                                   5B 23 80 F8 FF             [#...
02F0: FF 7F F8 FF FF 7F 74 6C  62 30 00                 ......tlb0.     
```

#### Opcodes

```
  0: 0x02EB [0x5B] LOAD_EXT_SCHEDULER: Load scheduler "tlb0" with entities [EventEntity, EventEntity], work=475*
  1: 0x02FA [0x00] END_REQSTACK()
```

### Event 65535.30

#### Metadata

| Field        | Value    |
|--------------|----------|
| Entrypoint   | 0x02FB   |
| Data Size    | 16 bytes |
| Instructions | 2        |

```
      00 01 02 03 04 05 06 07  08 09 0A 0B 0C 0D 0E 0F
      -- -- -- -- -- -- -- --  -- -- -- -- -- -- -- --
02F0:                                   5B 23 80 F8 FF             [#...
0300: FF 7F F8 FF FF 7F 74 6C  62 31 00                 ......tlb1.     
```

#### Opcodes

```
  0: 0x02FB [0x5B] LOAD_EXT_SCHEDULER: Load scheduler "tlb1" with entities [EventEntity, EventEntity], work=475*
  1: 0x030A [0x00] END_REQSTACK()
```

### Event 65535.31

#### Metadata

| Field        | Value    |
|--------------|----------|
| Entrypoint   | 0x030B   |
| Data Size    | 16 bytes |
| Instructions | 2        |

```
      00 01 02 03 04 05 06 07  08 09 0A 0B 0C 0D 0E 0F
      -- -- -- -- -- -- -- --  -- -- -- -- -- -- -- --
0300:                                   5B 23 80 F8 FF             [#...
0310: FF 7F F8 FF FF 7F 74 6C  64 30 00                 ......tld0.     
```

#### Opcodes

```
  0: 0x030B [0x5B] LOAD_EXT_SCHEDULER: Load scheduler "tld0" with entities [EventEntity, EventEntity], work=475*
  1: 0x031A [0x00] END_REQSTACK()
```

### Event 65535.32

#### Metadata

| Field        | Value    |
|--------------|----------|
| Entrypoint   | 0x031B   |
| Data Size    | 16 bytes |
| Instructions | 2        |

```
      00 01 02 03 04 05 06 07  08 09 0A 0B 0C 0D 0E 0F
      -- -- -- -- -- -- -- --  -- -- -- -- -- -- -- --
0310:                                   5B 23 80 F8 FF             [#...
0320: FF 7F F8 FF FF 7F 74 6C  64 31 00                 ......tld1.     
```

#### Opcodes

```
  0: 0x031B [0x5B] LOAD_EXT_SCHEDULER: Load scheduler "tld1" with entities [EventEntity, EventEntity], work=475*
  1: 0x032A [0x00] END_REQSTACK()
```

### Event 65535.33

#### Metadata

| Field        | Value    |
|--------------|----------|
| Entrypoint   | 0x032B   |
| Data Size    | 16 bytes |
| Instructions | 2        |

```
      00 01 02 03 04 05 06 07  08 09 0A 0B 0C 0D 0E 0F
      -- -- -- -- -- -- -- --  -- -- -- -- -- -- -- --
0320:                                   5B 23 80 F8 FF             [#...
0330: FF 7F F8 FF FF 7F 74 6C  61 30 00                 ......tla0.     
```

#### Opcodes

```
  0: 0x032B [0x5B] LOAD_EXT_SCHEDULER: Load scheduler "tla0" with entities [EventEntity, EventEntity], work=475*
  1: 0x033A [0x00] END_REQSTACK()
```

### Event 65535.34

#### Metadata

| Field        | Value    |
|--------------|----------|
| Entrypoint   | 0x033B   |
| Data Size    | 16 bytes |
| Instructions | 2        |

```
      00 01 02 03 04 05 06 07  08 09 0A 0B 0C 0D 0E 0F
      -- -- -- -- -- -- -- --  -- -- -- -- -- -- -- --
0330:                                   5B 23 80 F8 FF             [#...
0340: FF 7F F8 FF FF 7F 74 6C  61 31 00                 ......tla1.     
```

#### Opcodes

```
  0: 0x033B [0x5B] LOAD_EXT_SCHEDULER: Load scheduler "tla1" with entities [EventEntity, EventEntity], work=475*
  1: 0x034A [0x00] END_REQSTACK()
```

### Event 65535.35

#### Metadata

| Field        | Value    |
|--------------|----------|
| Entrypoint   | 0x034B   |
| Data Size    | 16 bytes |
| Instructions | 2        |

```
      00 01 02 03 04 05 06 07  08 09 0A 0B 0C 0D 0E 0F
      -- -- -- -- -- -- -- --  -- -- -- -- -- -- -- --
0340:                                   5B 42 80 F8 FF             [B...
0350: FF 7F F8 FF FF 7F 6F 72  61 30 00                 ......ora0.     
```

#### Opcodes

```
  0: 0x034B [0x5B] LOAD_EXT_SCHEDULER: Load scheduler "ora0" with entities [EventEntity, EventEntity], work=483*
  1: 0x035A [0x00] END_REQSTACK()
```

### Event 65535.36

#### Metadata

| Field        | Value    |
|--------------|----------|
| Entrypoint   | 0x035B   |
| Data Size    | 19 bytes |
| Instructions | 3        |

```
      00 01 02 03 04 05 06 07  08 09 0A 0B 0C 0D 0E 0F
      -- -- -- -- -- -- -- --  -- -- -- -- -- -- -- --
0350:                                   5B 42 80 F8 FF             [B...
0360: FF 7F F8 FF FF 7F 6F 72  61 31 1C 29 80 00        ......ora1.)..  
```

#### Opcodes

```
  0: 0x035B [0x5B] LOAD_EXT_SCHEDULER: Load scheduler "ora1" with entities [EventEntity, EventEntity], work=483*
  1: 0x036A [0x1C] WAIT(30* ticks)
  2: 0x036D [0x00] END_REQSTACK()
```

### Event 65535.37

#### Metadata

| Field        | Value    |
|--------------|----------|
| Entrypoint   | 0x036E   |
| Data Size    | 16 bytes |
| Instructions | 2        |

```
      00 01 02 03 04 05 06 07  08 09 0A 0B 0C 0D 0E 0F
      -- -- -- -- -- -- -- --  -- -- -- -- -- -- -- --
0360:                                            5B 43                [C
0370: 80 F8 FF FF 7F F8 FF FF  7F 6F 6B 69 30 00        .........oki0.  
```

#### Opcodes

```
  0: 0x036E [0x5B] LOAD_EXT_SCHEDULER: Load scheduler "oki0" with entities [EventEntity, EventEntity], work=620*
  1: 0x037D [0x00] END_REQSTACK()
```

### Event 65535.38

#### Metadata

| Field        | Value    |
|--------------|----------|
| Entrypoint   | 0x037E   |
| Data Size    | 16 bytes |
| Instructions | 2        |

```
      00 01 02 03 04 05 06 07  08 09 0A 0B 0C 0D 0E 0F
      -- -- -- -- -- -- -- --  -- -- -- -- -- -- -- --
0370:                                            5B 44                [D
0380: 80 F8 FF FF 7F F8 FF FF  7F 62 68 30 30 00        .........bh00.  
```

#### Opcodes

```
  0: 0x037E [0x5B] LOAD_EXT_SCHEDULER: Load scheduler "bh00" with entities [EventEntity, EventEntity], work=628*
  1: 0x038D [0x00] END_REQSTACK()
```

### Event 13

#### Metadata

| Field        | Value    |
|--------------|----------|
| Entrypoint   | 0x038E   |
| Data Size    | 10 bytes |
| Instructions | 2        |

```
      00 01 02 03 04 05 06 07  08 09 0A 0B 0C 0D 0E 0F
      -- -- -- -- -- -- -- --  -- -- -- -- -- -- -- --
0380:                                            37 45                7E
0390: 80 46 80 47 80 48 80 00                           .F.G.H..        
```

#### Opcodes

```
  0: 0x038E [0x37] UPDATE_EVENT_POSITION_AND_DIR: x=610.781*, z=783.519*, y=132.289*, direction=55.3°*
  1: 0x0397 [0x00] END_REQSTACK()
```

### Event 65535.39

#### Metadata

| Field        | Value    |
|--------------|----------|
| Entrypoint   | 0x0398   |
| Data Size    | 15 bytes |
| Instructions | 5        |

```
      00 01 02 03 04 05 06 07  08 09 0A 0B 0C 0D 0E 0F
      -- -- -- -- -- -- -- --  -- -- -- -- -- -- -- --
0390:                          32 49 80 1F 00 4A 80 4B          2I...J.K
03A0: 80 4C 80 1F 01 6F 00                              .L...o.         
```

#### Opcodes

```
  0: 0x0398 [0x32] ExtData[1]->MainSpeed = 18* * 0.1
  1: 0x039B [0x1F] MOVE_ENTITY: EventEntity moves to X=612.173*, Z=776.714*, Y=132.671*
  2: 0x03A3 [0x1F] MOVE_ENTITY: Update entity position (mode=1)
  3: 0x03A5 [0x6F] WAIT_FRAME_DELAY: Yield until WaitTime reaches zero
  4: 0x03A6 [0x00] END_REQSTACK()
```

### Event 65535.40

#### Metadata

| Field        | Value    |
|--------------|----------|
| Entrypoint   | 0x03A7   |
| Data Size    | 15 bytes |
| Instructions | 5        |

```
      00 01 02 03 04 05 06 07  08 09 0A 0B 0C 0D 0E 0F
      -- -- -- -- -- -- -- --  -- -- -- -- -- -- -- --
03A0:                      32  49 80 1F 00 4D 80 4E 80         2I...M.N.
03B0: 4F 80 1F 01 6F 00                                 O...o.          
```

#### Opcodes

```
  0: 0x03A7 [0x32] ExtData[1]->MainSpeed = 18* * 0.1
  1: 0x03AA [0x1F] MOVE_ENTITY: EventEntity moves to X=612.385*, Z=778.543*, Y=132.643*
  2: 0x03B2 [0x1F] MOVE_ENTITY: Update entity position (mode=1)
  3: 0x03B4 [0x6F] WAIT_FRAME_DELAY: Yield until WaitTime reaches zero
  4: 0x03B5 [0x00] END_REQSTACK()
```

### Event 65535.41

#### Metadata

| Field        | Value    |
|--------------|----------|
| Entrypoint   | 0x03B6   |
| Data Size    | 34 bytes |
| Instructions | 8        |

```
      00 01 02 03 04 05 06 07  08 09 0A 0B 0C 0D 0E 0F
      -- -- -- -- -- -- -- --  -- -- -- -- -- -- -- --
03B0:                   32 49  80 37 50 80 51 80 52 80        2I.7P.Q.R.
03C0: 53 80 1F 00 54 80 55 80  56 80 1F 01 1F 00 57 80  S...T.U.V.....W.
03D0: 58 80 59 80 1F 01 6F 00                           X.Y...o.        
```

#### Opcodes

```
  0: 0x03B6 [0x32] ExtData[1]->MainSpeed = 18* * 0.1
  1: 0x03B9 [0x37] UPDATE_EVENT_POSITION_AND_DIR: x=601.841*, z=754.112*, y=134.012*, direction=86.2°*
  2: 0x03C2 [0x1F] MOVE_ENTITY: EventEntity moves to X=604.017*, Z=742.878*, Y=135.319*
  3: 0x03CA [0x1F] MOVE_ENTITY: Update entity position (mode=1)
  4: 0x03CC [0x1F] MOVE_ENTITY: EventEntity moves to X=613.485*, Z=732.483*, Y=136.057*
  5: 0x03D4 [0x1F] MOVE_ENTITY: Update entity position (mode=1)
  6: 0x03D6 [0x6F] WAIT_FRAME_DELAY: Yield until WaitTime reaches zero
  7: 0x03D7 [0x00] END_REQSTACK()
```

### Event 65535.42

#### Metadata

| Field        | Value    |
|--------------|----------|
| Entrypoint   | 0x03D8   |
| Data Size    | 36 bytes |
| Instructions | 4        |

```
      00 01 02 03 04 05 06 07  08 09 0A 0B 0C 0D 0E 0F
      -- -- -- -- -- -- -- --  -- -- -- -- -- -- -- --
03D0:                          5B 43 80 F8 FF FF 7F F8          [C......
03E0: FF FF 7F 66 6E 64 30 1C  5A 80 45 5B 80 F0 FF FF  ...fnd0.Z.E[....
03F0: 7F F0 FF FF 7F 73 30 32  31 0C 80 00              .....s021...    
```

#### Opcodes

```
  0: 0x03D8 [0x5B] LOAD_EXT_SCHEDULER: Load scheduler "fnd0" with entities [EventEntity, EventEntity], work=620*
  1: 0x03E7 [0x1C] WAIT(35* ticks)
  2: 0x03EA [0x45] LOAD_SCHEDULED_TASK: Load scheduler "s021" with entities [LocalPlayer, LocalPlayer], work=[114*, 0*]
  3: 0x03FB [0x00] END_REQSTACK()
```

### Event 65535.43

#### Metadata

| Field        | Value    |
|--------------|----------|
| Entrypoint   | 0x03FC   |
| Data Size    | 36 bytes |
| Instructions | 4        |

```
      00 01 02 03 04 05 06 07  08 09 0A 0B 0C 0D 0E 0F
      -- -- -- -- -- -- -- --  -- -- -- -- -- -- -- --
03F0:                                      5B 43 80 F8              [C..
0400: FF FF 7F F8 FF FF 7F 66  6E 73 70 1C 29 80 45 5B  .......fnsp.).E[
0410: 80 F0 FF FF 7F F0 FF FF  7F 73 30 32 32 0C 80 00  .........s022...
```

#### Opcodes

```
  0: 0x03FC [0x5B] LOAD_EXT_SCHEDULER: Load scheduler "fnsp" with entities [EventEntity, EventEntity], work=620*
  1: 0x040B [0x1C] WAIT(30* ticks)
  2: 0x040E [0x45] LOAD_SCHEDULED_TASK: Load scheduler "s022" with entities [LocalPlayer, LocalPlayer], work=[114*, 0*]
  3: 0x041F [0x00] END_REQSTACK()
```

### Event 65535.44

#### Metadata

| Field        | Value    |
|--------------|----------|
| Entrypoint   | 0x0420   |
| Data Size    | 19 bytes |
| Instructions | 3        |

```
      00 01 02 03 04 05 06 07  08 09 0A 0B 0C 0D 0E 0F
      -- -- -- -- -- -- -- --  -- -- -- -- -- -- -- --
0420: 5B 43 80 F8 FF FF 7F F8  FF FF 7F 66 6E 64 31 1C  [C.........fnd1.
0430: 41 80 00                                          A..             
```

#### Opcodes

```
  0: 0x0420 [0x5B] LOAD_EXT_SCHEDULER: Load scheduler "fnd1" with entities [EventEntity, EventEntity], work=620*
  1: 0x042F [0x1C] WAIT(60* ticks)
  2: 0x0432 [0x00] END_REQSTACK()
```

### Event 65535.45

#### Metadata

| Field        | Value    |
|--------------|----------|
| Entrypoint   | 0x0433   |
| Data Size    | 16 bytes |
| Instructions | 2        |

```
      00 01 02 03 04 05 06 07  08 09 0A 0B 0C 0D 0E 0F
      -- -- -- -- -- -- -- --  -- -- -- -- -- -- -- --
0430:          5B 5C 80 F8 FF  FF 7F F8 FF FF 7F 63 34     [\.........c4
0440: 30 37 00                                          07.             
```

#### Opcodes

```
  0: 0x0433 [0x5B] LOAD_EXT_SCHEDULER: Load scheduler "c407" with entities [EventEntity, EventEntity], work=616*
  1: 0x0442 [0x00] END_REQSTACK()
```

### Event 17

#### Metadata

| Field        | Value    |
|--------------|----------|
| Entrypoint   | 0x0443   |
| Data Size    | 10 bytes |
| Instructions | 2        |

```
      00 01 02 03 04 05 06 07  08 09 0A 0B 0C 0D 0E 0F
      -- -- -- -- -- -- -- --  -- -- -- -- -- -- -- --
0440:          37 5D 80 5E 80  5F 80 60 80 00              7].^._.`..   
```

#### Opcodes

```
  0: 0x0443 [0x37] UPDATE_EVENT_POSITION_AND_DIR: x=610.906*, z=766.966*, y=132.839*, direction=280.6°*
  1: 0x044C [0x00] END_REQSTACK()
```

### Event 65535.46

#### Metadata

| Field        | Value    |
|--------------|----------|
| Entrypoint   | 0x044D   |
| Data Size    | 15 bytes |
| Instructions | 5        |

```
      00 01 02 03 04 05 06 07  08 09 0A 0B 0C 0D 0E 0F
      -- -- -- -- -- -- -- --  -- -- -- -- -- -- -- --
0440:                                         32 61 80               2a.
0450: 1F 00 62 80 63 80 64 80  1F 01 6F 00              ..b.c.d...o.    
```

#### Opcodes

```
  0: 0x044D [0x32] ExtData[1]->MainSpeed = 13* * 0.1
  1: 0x0450 [0x1F] MOVE_ENTITY: EventEntity moves to X=613.072*, Z=773.200*, Y=132.796*
  2: 0x0458 [0x1F] MOVE_ENTITY: Update entity position (mode=1)
  3: 0x045A [0x6F] WAIT_FRAME_DELAY: Yield until WaitTime reaches zero
  4: 0x045B [0x00] END_REQSTACK()
```

### Event 65535.47

#### Metadata

| Field        | Value    |
|--------------|----------|
| Entrypoint   | 0x045C   |
| Data Size    | 56 bytes |
| Instructions | 6        |

```
      00 01 02 03 04 05 06 07  08 09 0A 0B 0C 0D 0E 0F
      -- -- -- -- -- -- -- --  -- -- -- -- -- -- -- --
0450:                                      5B 02 80 F8              [...
0460: FF FF 7F F8 FF FF 7F 68  31 30 32 1C 22 80 45 65  .......h102.".Ee
0470: 80 95 00 02 01 95 00 02  01 73 65 30 33 0C 80 1C  .........se03...
0480: 2E 80 45 65 80 95 00 02  01 95 00 02 01 73 65 30  ..Ee.........se0
0490: 34 0C 80 00                                       4...            
```

#### Opcodes

```
  0: 0x045C [0x5B] LOAD_EXT_SCHEDULER: Load scheduler "h102" with entities [EventEntity, EventEntity], work=630*
  1: 0x046B [0x1C] WAIT(5* ticks)
  2: 0x046E [0x45] LOAD_SCHEDULED_TASK: Load scheduler "se03" with entities [Shikaree Z (ID: 16908437/0x01020095), Shikaree Z (ID: 16908437/0x01020095)], work=[166*, 0*]
  3: 0x047F [0x1C] WAIT(15* ticks)
  4: 0x0482 [0x45] LOAD_SCHEDULED_TASK: Load scheduler "se04" with entities [Shikaree Z (ID: 16908437/0x01020095), Shikaree Z (ID: 16908437/0x01020095)], work=[166*, 0*]
  5: 0x0493 [0x00] END_REQSTACK()
```

### Event 65535.48

#### Metadata

| Field        | Value     |
|--------------|-----------|
| Entrypoint   | 0x0494    |
| Data Size    | 221 bytes |
| Instructions | 23        |

```
      00 01 02 03 04 05 06 07  08 09 0A 0B 0C 0D 0E 0F
      -- -- -- -- -- -- -- --  -- -- -- -- -- -- -- --
0490:             81 00 F8 FF  FF 7F 5B 02 80 F8 FF FF      ......[.....
04A0: 7F F8 FF FF 7F 68 31 30  33 1C 40 80 45 65 80 95  .....h103.@.Ee..
04B0: 00 02 01 95 00 02 01 73  65 30 35 0C 80 1C 2E 80  .......se05.....
04C0: 45 65 80 95 00 02 01 95  00 02 01 73 65 30 36 0C  Ee.........se06.
04D0: 80 1C 66 80 45 65 80 95  00 02 01 95 00 02 01 73  ..f.Ee.........s
04E0: 65 30 37 0C 80 1C 29 80  45 65 80 95 00 02 01 95  e07...).Ee......
04F0: 00 02 01 73 65 30 38 0C  80 1C 67 80 45 65 80 95  ...se08...g.Ee..
0500: 00 02 01 95 00 02 01 73  65 30 38 0C 80 1C 67 80  .......se08...g.
0510: 45 65 80 95 00 02 01 95  00 02 01 73 65 30 38 0C  Ee.........se08.
0520: 80 1C 67 80 45 65 80 95  00 02 01 95 00 02 01 73  ..g.Ee.........s
0530: 65 30 38 0C 80 1C 3D 80  45 65 80 95 00 02 01 95  e08...=.Ee......
0540: 00 02 01 73 65 30 38 0C  80 1C 68 80 45 65 80 95  ...se08...h.Ee..
0550: 00 02 01 95 00 02 01 73  65 30 38 0C 80 53 F8 FF  .......se08..S..
0560: FF 7F F8 FF FF 7F 68 31  30 33 81 01 F8 FF FF 7F  ......h103......
0570: 00                                                .               
```

#### Opcodes

```
  0: 0x0494 [0x81] SET_ENTITY_BLINKING(blink_flag=0x00, entity=EventEntity)
  1: 0x049A [0x5B] LOAD_EXT_SCHEDULER: Load scheduler "h103" with entities [EventEntity, EventEntity], work=630*
  2: 0x04A9 [0x1C] WAIT(120* ticks)
  3: 0x04AC [0x45] LOAD_SCHEDULED_TASK: Load scheduler "se05" with entities [Shikaree Z (ID: 16908437/0x01020095), Shikaree Z (ID: 16908437/0x01020095)], work=[166*, 0*]
  4: 0x04BD [0x1C] WAIT(15* ticks)
  5: 0x04C0 [0x45] LOAD_SCHEDULED_TASK: Load scheduler "se06" with entities [Shikaree Z (ID: 16908437/0x01020095), Shikaree Z (ID: 16908437/0x01020095)], work=[166*, 0*]
  6: 0x04D1 [0x1C] WAIT(75* ticks)
  7: 0x04D4 [0x45] LOAD_SCHEDULED_TASK: Load scheduler "se07" with entities [Shikaree Z (ID: 16908437/0x01020095), Shikaree Z (ID: 16908437/0x01020095)], work=[166*, 0*]
  8: 0x04E5 [0x1C] WAIT(30* ticks)
  9: 0x04E8 [0x45] LOAD_SCHEDULED_TASK: Load scheduler "se08" with entities [Shikaree Z (ID: 16908437/0x01020095), Shikaree Z (ID: 16908437/0x01020095)], work=[166*, 0*]
 10: 0x04F9 [0x1C] WAIT(10* ticks)
 11: 0x04FC [0x45] LOAD_SCHEDULED_TASK: Load scheduler "se08" with entities [Shikaree Z (ID: 16908437/0x01020095), Shikaree Z (ID: 16908437/0x01020095)], work=[166*, 0*]
 12: 0x050D [0x1C] WAIT(10* ticks)
 13: 0x0510 [0x45] LOAD_SCHEDULED_TASK: Load scheduler "se08" with entities [Shikaree Z (ID: 16908437/0x01020095), Shikaree Z (ID: 16908437/0x01020095)], work=[166*, 0*]
 14: 0x0521 [0x1C] WAIT(10* ticks)
 15: 0x0524 [0x45] LOAD_SCHEDULED_TASK: Load scheduler "se08" with entities [Shikaree Z (ID: 16908437/0x01020095), Shikaree Z (ID: 16908437/0x01020095)], work=[166*, 0*]
 16: 0x0535 [0x1C] WAIT(20* ticks)
 17: 0x0538 [0x45] LOAD_SCHEDULED_TASK: Load scheduler "se08" with entities [Shikaree Z (ID: 16908437/0x01020095), Shikaree Z (ID: 16908437/0x01020095)], work=[166*, 0*]
 18: 0x0549 [0x1C] WAIT(40* ticks)
 19: 0x054C [0x45] LOAD_SCHEDULED_TASK: Load scheduler "se08" with entities [Shikaree Z (ID: 16908437/0x01020095), Shikaree Z (ID: 16908437/0x01020095)], work=[166*, 0*]
 20: 0x055D [0x53] WAIT_SCHEDULER_TASK: Wait for scheduler "h103" with entities [EventEntity, EventEntity]
 21: 0x056A [0x81] SET_ENTITY_BLINKING(blink_flag=0x01, entity=EventEntity)
 22: 0x0570 [0x00] END_REQSTACK()
```

### Event 65535.49

#### Metadata

| Field        | Value    |
|--------------|----------|
| Entrypoint   | 0x0571   |
| Data Size    | 16 bytes |
| Instructions | 2        |

```
      00 01 02 03 04 05 06 07  08 09 0A 0B 0C 0D 0E 0F
      -- -- -- -- -- -- -- --  -- -- -- -- -- -- -- --
0570:    5B 69 80 8D 00 02 01  8D 00 02 01 00 FE FE FE   [i.............
0580: 00                                                .               
```

#### Opcodes

```
  0: 0x0571 [0x5B] LOAD_EXT_SCHEDULER: Load scheduler 0xFEFEFE00 with entities [Prishe (ID: 16908429/0x0102008D), Prishe (ID: 16908429/0x0102008D)], work=684*
  1: 0x0580 [0x00] END_REQSTACK()
```

### Event 65535.50

#### Metadata

| Field        | Value    |
|--------------|----------|
| Entrypoint   | 0x0581   |
| Data Size    | 76 bytes |
| Instructions | 8        |

```
      00 01 02 03 04 05 06 07  08 09 0A 0B 0C 0D 0E 0F
      -- -- -- -- -- -- -- --  -- -- -- -- -- -- -- --
0580:    5B 69 80 F8 FF FF 7F  F8 FF FF 7F 68 33 30 34   [i.........h304
0590: 1C 6A 80 45 6B 80 95 00  02 01 95 00 02 01 73 62  .j.Ek.........sb
05A0: 30 35 0C 80 1C 2E 80 45  6B 80 95 00 02 01 95 00  05.....Ek.......
05B0: 02 01 73 62 30 36 0C 80  1C 29 80 45 6B 80 95 00  ..sb06...).Ek...
05C0: 02 01 95 00 02 01 73 62  30 37 0C 80 00           ......sb07...   
```

#### Opcodes

```
  0: 0x0581 [0x5B] LOAD_EXT_SCHEDULER: Load scheduler "h304" with entities [EventEntity, EventEntity], work=684*
  1: 0x0590 [0x1C] WAIT(150* ticks)
  2: 0x0593 [0x45] LOAD_SCHEDULED_TASK: Load scheduler "sb05" with entities [Shikaree Z (ID: 16908437/0x01020095), Shikaree Z (ID: 16908437/0x01020095)], work=[167*, 0*]
  3: 0x05A4 [0x1C] WAIT(15* ticks)
  4: 0x05A7 [0x45] LOAD_SCHEDULED_TASK: Load scheduler "sb06" with entities [Shikaree Z (ID: 16908437/0x01020095), Shikaree Z (ID: 16908437/0x01020095)], work=[167*, 0*]
  5: 0x05B8 [0x1C] WAIT(30* ticks)
  6: 0x05BB [0x45] LOAD_SCHEDULED_TASK: Load scheduler "sb07" with entities [Shikaree Z (ID: 16908437/0x01020095), Shikaree Z (ID: 16908437/0x01020095)], work=[167*, 0*]
  7: 0x05CC [0x00] END_REQSTACK()
```

### Event 65535.51

#### Metadata

| Field        | Value    |
|--------------|----------|
| Entrypoint   | 0x05CD   |
| Data Size    | 16 bytes |
| Instructions | 2        |

```
      00 01 02 03 04 05 06 07  08 09 0A 0B 0C 0D 0E 0F
      -- -- -- -- -- -- -- --  -- -- -- -- -- -- -- --
05C0:                                         5B 6C 80               [l.
05D0: F8 FF FF 7F F8 FF FF 7F  00 FE FE FE 00           .............   
```

#### Opcodes

```
  0: 0x05CD [0x5B] LOAD_EXT_SCHEDULER: Load scheduler 0xFEFEFE00 with entities [EventEntity, EventEntity], work=685*
  1: 0x05DC [0x00] END_REQSTACK()
```

### Event 65535.52

#### Metadata

| Field        | Value    |
|--------------|----------|
| Entrypoint   | 0x05DD   |
| Data Size    | 36 bytes |
| Instructions | 4        |

```
      00 01 02 03 04 05 06 07  08 09 0A 0B 0C 0D 0E 0F
      -- -- -- -- -- -- -- --  -- -- -- -- -- -- -- --
05D0:                                         3B F8 FF               ;..
05E0: FF 7F 01 00 02 00 03 00  37 01 00 02 00 03 00 6D  ........7......m
05F0: 80 5B 6C 80 F8 FF FF 7F  F8 FF FF 7F 68 34 30 31  .[l.........h401
0600: 00                                                .               
```

#### Opcodes

```
  0: 0x05DD [0x3B] GET_ENTITY_POSITION(entity=EventEntity, x_destination=ExtData[1]->WorkLocal[1], y_destination=ExtData[1]->WorkLocal[2], z_destination=ExtData[1]->WorkLocal[3])
  1: 0x05E8 [0x37] UPDATE_EVENT_POSITION_AND_DIR: x=ExtData[1]->WorkLocal[1], z=ExtData[1]->WorkLocal[2], y=ExtData[1]->WorkLocal[3], direction=270.0°*
  2: 0x05F1 [0x5B] LOAD_EXT_SCHEDULER: Load scheduler "h401" with entities [EventEntity, EventEntity], work=685*
  3: 0x0600 [0x00] END_REQSTACK()
```

### Event 65535.53

#### Metadata

| Field        | Value    |
|--------------|----------|
| Entrypoint   | 0x0601   |
| Data Size    | 16 bytes |
| Instructions | 2        |

```
      00 01 02 03 04 05 06 07  08 09 0A 0B 0C 0D 0E 0F
      -- -- -- -- -- -- -- --  -- -- -- -- -- -- -- --
0600:    5B 6C 80 F8 FF FF 7F  F8 FF FF 7F 68 34 30 32   [l.........h402
0610: 00                                                .               
```

#### Opcodes

```
  0: 0x0601 [0x5B] LOAD_EXT_SCHEDULER: Load scheduler "h402" with entities [EventEntity, EventEntity], work=685*
  1: 0x0610 [0x00] END_REQSTACK()
```

### Event 65535.54

#### Metadata

| Field        | Value    |
|--------------|----------|
| Entrypoint   | 0x0611   |
| Data Size    | 16 bytes |
| Instructions | 2        |

```
      00 01 02 03 04 05 06 07  08 09 0A 0B 0C 0D 0E 0F
      -- -- -- -- -- -- -- --  -- -- -- -- -- -- -- --
0610:    5B 6C 80 F8 FF FF 7F  F8 FF FF 7F 68 34 30 33   [l.........h403
0620: 00                                                .               
```

#### Opcodes

```
  0: 0x0611 [0x5B] LOAD_EXT_SCHEDULER: Load scheduler "h403" with entities [EventEntity, EventEntity], work=685*
  1: 0x0620 [0x00] END_REQSTACK()
```

### Event 65535.55

#### Metadata

| Field        | Value    |
|--------------|----------|
| Entrypoint   | 0x0621   |
| Data Size    | 16 bytes |
| Instructions | 2        |

```
      00 01 02 03 04 05 06 07  08 09 0A 0B 0C 0D 0E 0F
      -- -- -- -- -- -- -- --  -- -- -- -- -- -- -- --
0620:    5B 6C 80 F8 FF FF 7F  F8 FF FF 7F 68 34 30 34   [l.........h404
0630: 00                                                .               
```

#### Opcodes

```
  0: 0x0621 [0x5B] LOAD_EXT_SCHEDULER: Load scheduler "h404" with entities [EventEntity, EventEntity], work=685*
  1: 0x0630 [0x00] END_REQSTACK()
```

### Event 65535.56

#### Metadata

| Field        | Value    |
|--------------|----------|
| Entrypoint   | 0x0631   |
| Data Size    | 31 bytes |
| Instructions | 4        |

```
      00 01 02 03 04 05 06 07  08 09 0A 0B 0C 0D 0E 0F
      -- -- -- -- -- -- -- --  -- -- -- -- -- -- -- --
0630:    A4 00 5B 6E 80 F8 FF  FF 7F F8 FF FF 7F 68 35   ..[n.........h5
0640: 30 31 53 F8 FF FF 7F F8  FF FF 7F 68 35 30 31 00  01S........h501.
```

#### Opcodes

```
  0: 0x0631 [0xA4] EventEntity->Flags3.unknown_3_2 = 0
  1: 0x0633 [0x5B] LOAD_EXT_SCHEDULER: Load scheduler "h501" with entities [EventEntity, EventEntity], work=689*
  2: 0x0642 [0x53] WAIT_SCHEDULER_TASK: Wait for scheduler "h501" with entities [EventEntity, EventEntity]
  3: 0x064F [0x00] END_REQSTACK()
```
