# 16908430 - Prishe

## Common Data

| Field            | Value                  |
|------------------|------------------------|
| Zone             | Sealion's Den (ID: 32) |
| Block Size       | 460 bytes              |
| Total Events     | 15                     |
| References Count | 19                     |

## List of Events

| Event ID                   | Entrypoint   |   Size |   Instructions |
|----------------------------|--------------|--------|----------------|
| [65535](#event-65535)      | 0x0000       |     13 |              3 |
| [65535.1](#event-655351)   | 0x000D       |     88 |             12 |
| [65535.2](#event-655352)   | 0x0065       |     16 |              2 |
| [65535.3](#event-655353)   | 0x0075       |     16 |              2 |
| [65535.4](#event-655354)   | 0x0085       |     16 |              2 |
| [65535.5](#event-655355)   | 0x0095       |     16 |              2 |
| [65535.6](#event-655356)   | 0x00A5       |     18 |              4 |
| [33](#event-33)            | 0x00B7       |      7 |              2 |
| [34](#event-34)            | 0x00BE       |      7 |              2 |
| [65535.7](#event-655357)   | 0x00C5       |     30 |              4 |
| [65535.8](#event-655358)   | 0x00E3       |     16 |              2 |
| [65535.9](#event-655359)   | 0x00F3       |     16 |              2 |
| [65535.10](#event-6553510) | 0x0103       |     16 |              2 |
| [65535.11](#event-6553511) | 0x0113       |     16 |              2 |
| [65535.12](#event-6553512) | 0x0123       |     16 |              2 |

## DAT References (imed_data)

|   Index | Hex Value   |   Dec Value |
|---------|-------------|-------------|
|       0 | 0x0277      |         631 |
|       1 | 0x0001      |           1 |
|       2 | 0x0002      |           2 |
|       3 | 0x0003      |           3 |
|       4 | 0x3003      |       12291 |
|       5 | 0x0009      |           9 |
|       6 | 0xFFFC75F2  |  4294735346 |
|       7 | 0x0000      |           0 |
|       8 | 0x0278      |         632 |
|       9 | 0x02AC      |         684 |
|      10 | 0xFFF63D26  |  4294327590 |
|      11 | 0x7E836     |      518198 |
|      12 | 0xFFFC784D  |  4294735949 |
|      13 | 0x00C8      |         200 |
|      14 | 0xFFF64449  |  4294329417 |
|      15 | 0x80471     |      525425 |
|      16 | 0x0C01      |        3073 |
|      17 | 0x0274      |         628 |
|      18 | 0x0273      |         627 |

## Events

### Event 65535

#### Metadata

| Field        | Value    |
|--------------|----------|
| Entrypoint   | 0x0000   |
| Data Size    | 13 bytes |
| Instructions | 3        |

```
      00 01 02 03 04 05 06 07  08 09 0A 0B 0C 0D 0E 0F
      -- -- -- -- -- -- -- --  -- -- -- -- -- -- -- --
0000: 92 01 F8 FF FF 7F 94 01  F8 FF FF 7F 00           .............   
```

#### Opcodes

```
  0: 0x0000 [0x92] EventEntity->Render.Flags3 ^= 0x01
  1: 0x0006 [0x94] EventEntity->Render.Flags3 ^= 0x01
  2: 0x000C [0x00] END_REQSTACK()
```

### Event 65535.1

#### Metadata

| Field        | Value    |
|--------------|----------|
| Entrypoint   | 0x000D   |
| Data Size    | 88 bytes |
| Instructions | 12       |

```
      00 01 02 03 04 05 06 07  08 09 0A 0B 0C 0D 0E 0F
      -- -- -- -- -- -- -- --  -- -- -- -- -- -- -- --
0000:                                         5B 00 80               [..
0010: F8 FF FF 7F F8 FF FF 7F  68 32 30 31 02 24 10 01  ........h201.$..
0020: 80 01 64 00 02 24 10 02  80 00 40 00 5B 00 80 F8  ..d..$....@.[...
0030: FF FF 7F F8 FF FF 7F 68  32 30 32 03 24 10 03 80  .......h202.$...
0040: 3B 9F 00 02 01 00 00 01  00 02 00 07 00 00 04 80  ;...............
0050: 07 01 00 05 80 37 00 00  01 00 06 80 07 80 1C 01  .....7..........
0060: 80 01 1C 00 00                                    .....           
```

#### Opcodes

```
  0: 0x000D [0x5B] LOAD_EXT_SCHEDULER: Load scheduler "h201" with entities [EventEntity, EventEntity], work=631*
  1: 0x001C [0x02] IF !(Work_Zone[36] == 1*) GOTO 0x0064
  2: 0x0024 [0x02] IF !(Work_Zone[36] == 2*) GOTO 0x0040
  3: 0x002C [0x5B] LOAD_EXT_SCHEDULER: Load scheduler "h202" with entities [EventEntity, EventEntity], work=631*
  4: 0x003B [0x03] Work_Zone[36] = 3*
  5: 0x0040 [0x3B] GET_ENTITY_POSITION(entity=ship (ID: 16908447/0x0102009F), x_destination=ExtData[1]->WorkLocal[0], y_destination=ExtData[1]->WorkLocal[1], z_destination=ExtData[1]->WorkLocal[2])
  6: 0x004B [0x07] ExtData[1]->WorkLocal[0] += 12291*
  7: 0x0050 [0x07] ExtData[1]->WorkLocal[1] += 9*
  8: 0x0055 [0x37] UPDATE_EVENT_POSITION_AND_DIR: x=ExtData[1]->WorkLocal[0], z=ExtData[1]->WorkLocal[1], y=-231.950*, direction=0.0°*
  9: 0x005E [0x1C] WAIT(1* ticks)
 10: 0x0061 [0x01] GOTO 0x001C
 11: 0x0064 [0x00] END_REQSTACK()
```

### Event 65535.2

#### Metadata

| Field        | Value    |
|--------------|----------|
| Entrypoint   | 0x0065   |
| Data Size    | 16 bytes |
| Instructions | 2        |

```
      00 01 02 03 04 05 06 07  08 09 0A 0B 0C 0D 0E 0F
      -- -- -- -- -- -- -- --  -- -- -- -- -- -- -- --
0060:                5B 00 80  F8 FF FF 7F F8 FF FF 7F       [..........
0070: 68 32 30 32 00                                    h202.           
```

#### Opcodes

```
  0: 0x0065 [0x5B] LOAD_EXT_SCHEDULER: Load scheduler "h202" with entities [EventEntity, EventEntity], work=631*
  1: 0x0074 [0x00] END_REQSTACK()
```

### Event 65535.3

#### Metadata

| Field        | Value    |
|--------------|----------|
| Entrypoint   | 0x0075   |
| Data Size    | 16 bytes |
| Instructions | 2        |

```
      00 01 02 03 04 05 06 07  08 09 0A 0B 0C 0D 0E 0F
      -- -- -- -- -- -- -- --  -- -- -- -- -- -- -- --
0070:                5B 08 80  F8 FF FF 7F F8 FF FF 7F       [..........
0080: 68 33 30 31 00                                    h301.           
```

#### Opcodes

```
  0: 0x0075 [0x5B] LOAD_EXT_SCHEDULER: Load scheduler "h301" with entities [EventEntity, EventEntity], work=632*
  1: 0x0084 [0x00] END_REQSTACK()
```

### Event 65535.4

#### Metadata

| Field        | Value    |
|--------------|----------|
| Entrypoint   | 0x0085   |
| Data Size    | 16 bytes |
| Instructions | 2        |

```
      00 01 02 03 04 05 06 07  08 09 0A 0B 0C 0D 0E 0F
      -- -- -- -- -- -- -- --  -- -- -- -- -- -- -- --
0080:                5B 08 80  F8 FF FF 7F F8 FF FF 7F       [..........
0090: 68 33 30 32 00                                    h302.           
```

#### Opcodes

```
  0: 0x0085 [0x5B] LOAD_EXT_SCHEDULER: Load scheduler "h302" with entities [EventEntity, EventEntity], work=632*
  1: 0x0094 [0x00] END_REQSTACK()
```

### Event 65535.5

#### Metadata

| Field        | Value    |
|--------------|----------|
| Entrypoint   | 0x0095   |
| Data Size    | 16 bytes |
| Instructions | 2        |

```
      00 01 02 03 04 05 06 07  08 09 0A 0B 0C 0D 0E 0F
      -- -- -- -- -- -- -- --  -- -- -- -- -- -- -- --
0090:                5B 09 80  F8 FF FF 7F F8 FF FF 7F       [..........
00A0: 68 33 30 33 00                                    h303.           
```

#### Opcodes

```
  0: 0x0095 [0x5B] LOAD_EXT_SCHEDULER: Load scheduler "h303" with entities [EventEntity, EventEntity], work=684*
  1: 0x00A4 [0x00] END_REQSTACK()
```

### Event 65535.6

#### Metadata

| Field        | Value    |
|--------------|----------|
| Entrypoint   | 0x00A5   |
| Data Size    | 18 bytes |
| Instructions | 4        |

```
      00 01 02 03 04 05 06 07  08 09 0A 0B 0C 0D 0E 0F
      -- -- -- -- -- -- -- --  -- -- -- -- -- -- -- --
00A0:                94 01 F8  FF FF 7F 33 01 37 0A 80       ......3.7..
00B0: 0B 80 0C 80 0D 80 00                              .......         
```

#### Opcodes

```
  0: 0x00A5 [0x94] EventEntity->Render.Flags3 ^= 0x01
  1: 0x00AB [0x33] EventEntity->Render.Flags0 |= 0x200000 // Bit 21 (flag=0x01)
  2: 0x00AD [0x37] UPDATE_EVENT_POSITION_AND_DIR: x=-639.706*, z=518.198*, y=-231.347*, direction=17.6°*
  3: 0x00B6 [0x00] END_REQSTACK()
```

### Event 33

#### Metadata

| Field        | Value   |
|--------------|---------|
| Entrypoint   | 0x00B7  |
| Data Size    | 7 bytes |
| Instructions | 2       |

```
      00 01 02 03 04 05 06 07  08 09 0A 0B 0C 0D 0E 0F
      -- -- -- -- -- -- -- --  -- -- -- -- -- -- -- --
00B0:                      94  01 F8 FF FF 7F 00               .......  
```

#### Opcodes

```
  0: 0x00B7 [0x94] EventEntity->Render.Flags3 ^= 0x01
  1: 0x00BD [0x00] END_REQSTACK()
```

### Event 34

#### Metadata

| Field        | Value   |
|--------------|---------|
| Entrypoint   | 0x00BE  |
| Data Size    | 7 bytes |
| Instructions | 2       |

```
      00 01 02 03 04 05 06 07  08 09 0A 0B 0C 0D 0E 0F
      -- -- -- -- -- -- -- --  -- -- -- -- -- -- -- --
00B0:                                            94 01                ..
00C0: F8 FF FF 7F 00                                    .....           
```

#### Opcodes

```
  0: 0x00BE [0x94] EventEntity->Render.Flags3 ^= 0x01
  1: 0x00C4 [0x00] END_REQSTACK()
```

### Event 65535.7

#### Metadata

| Field        | Value    |
|--------------|----------|
| Entrypoint   | 0x00C5   |
| Data Size    | 30 bytes |
| Instructions | 4        |

```
      00 01 02 03 04 05 06 07  08 09 0A 0B 0C 0D 0E 0F
      -- -- -- -- -- -- -- --  -- -- -- -- -- -- -- --
00C0:                37 0E 80  0F 80 0C 80 10 80 80 F8       7..........
00D0: FF FF 7F 5B 11 80 F8 FF  FF 7F F8 FF FF 7F 62 68  ...[..........bh
00E0: 30 30 00                                          00.             
```

#### Opcodes

```
  0: 0x00C5 [0x37] UPDATE_EVENT_POSITION_AND_DIR: x=-637.879*, z=525.425*, y=-231.347*, direction=270.1°*
  1: 0x00CE [0x80] LOAD_WAIT(entity=EventEntity)
  2: 0x00D3 [0x5B] LOAD_EXT_SCHEDULER: Load scheduler "bh00" with entities [EventEntity, EventEntity], work=628*
  3: 0x00E2 [0x00] END_REQSTACK()
```

### Event 65535.8

#### Metadata

| Field        | Value    |
|--------------|----------|
| Entrypoint   | 0x00E3   |
| Data Size    | 16 bytes |
| Instructions | 2        |

```
      00 01 02 03 04 05 06 07  08 09 0A 0B 0C 0D 0E 0F
      -- -- -- -- -- -- -- --  -- -- -- -- -- -- -- --
00E0:          5B 11 80 F8 FF  FF 7F F8 FF FF 7F 62 68     [..........bh
00F0: 30 31 00                                          01.             
```

#### Opcodes

```
  0: 0x00E3 [0x5B] LOAD_EXT_SCHEDULER: Load scheduler "bh01" with entities [EventEntity, EventEntity], work=628*
  1: 0x00F2 [0x00] END_REQSTACK()
```

### Event 65535.9

#### Metadata

| Field        | Value    |
|--------------|----------|
| Entrypoint   | 0x00F3   |
| Data Size    | 16 bytes |
| Instructions | 2        |

```
      00 01 02 03 04 05 06 07  08 09 0A 0B 0C 0D 0E 0F
      -- -- -- -- -- -- -- --  -- -- -- -- -- -- -- --
00F0:          5B 11 80 F8 FF  FF 7F F8 FF FF 7F 62 68     [..........bh
0100: 30 32 00                                          02.             
```

#### Opcodes

```
  0: 0x00F3 [0x5B] LOAD_EXT_SCHEDULER: Load scheduler "bh02" with entities [EventEntity, EventEntity], work=628*
  1: 0x0102 [0x00] END_REQSTACK()
```

### Event 65535.10

#### Metadata

| Field        | Value    |
|--------------|----------|
| Entrypoint   | 0x0103   |
| Data Size    | 16 bytes |
| Instructions | 2        |

```
      00 01 02 03 04 05 06 07  08 09 0A 0B 0C 0D 0E 0F
      -- -- -- -- -- -- -- --  -- -- -- -- -- -- -- --
0100:          5B 11 80 F8 FF  FF 7F F8 FF FF 7F 62 68     [..........bh
0110: 30 33 00                                          03.             
```

#### Opcodes

```
  0: 0x0103 [0x5B] LOAD_EXT_SCHEDULER: Load scheduler "bh03" with entities [EventEntity, EventEntity], work=628*
  1: 0x0112 [0x00] END_REQSTACK()
```

### Event 65535.11

#### Metadata

| Field        | Value    |
|--------------|----------|
| Entrypoint   | 0x0113   |
| Data Size    | 16 bytes |
| Instructions | 2        |

```
      00 01 02 03 04 05 06 07  08 09 0A 0B 0C 0D 0E 0F
      -- -- -- -- -- -- -- --  -- -- -- -- -- -- -- --
0110:          5B 12 80 F8 FF  FF 7F F8 FF FF 7F 6D 73     [..........ms
0120: 68 30 00                                          h0.             
```

#### Opcodes

```
  0: 0x0113 [0x5B] LOAD_EXT_SCHEDULER: Load scheduler "msh0" with entities [EventEntity, EventEntity], work=627*
  1: 0x0122 [0x00] END_REQSTACK()
```

### Event 65535.12

#### Metadata

| Field        | Value    |
|--------------|----------|
| Entrypoint   | 0x0123   |
| Data Size    | 16 bytes |
| Instructions | 2        |

```
      00 01 02 03 04 05 06 07  08 09 0A 0B 0C 0D 0E 0F
      -- -- -- -- -- -- -- --  -- -- -- -- -- -- -- --
0120:          5B 12 80 F8 FF  FF 7F F8 FF FF 7F 77 6F     [..........wo
0130: 66 32 00                                          f2.             
```

#### Opcodes

```
  0: 0x0123 [0x5B] LOAD_EXT_SCHEDULER: Load scheduler "wof2" with entities [EventEntity, EventEntity], work=627*
  1: 0x0132 [0x00] END_REQSTACK()
```
