# 16908436 - Jabbos

## Common Data

| Field            | Value                  |
|------------------|------------------------|
| Zone             | Sealion's Den (ID: 32) |
| Block Size       | 564 bytes              |
| Total Events     | 16                     |
| References Count | 43                     |

## List of Events

| Event ID                   | Entrypoint   |   Size |   Instructions |
|----------------------------|--------------|--------|----------------|
| [65535](#event-65535)      | 0x0000       |     13 |              3 |
| [1](#event-1)              | 0x000D       |     10 |              2 |
| [2](#event-2)              | 0x0017       |     10 |              2 |
| [65535.1](#event-655351)   | 0x0021       |     27 |              4 |
| [65535.2](#event-655352)   | 0x003C       |     72 |             11 |
| [31](#event-31)            | 0x0084       |      7 |              2 |
| [32](#event-32)            | 0x008B       |      7 |              2 |
| [65535.3](#event-655353)   | 0x0092       |     10 |              2 |
| [65535.4](#event-655354)   | 0x009C       |     10 |              2 |
| [65535.5](#event-655355)   | 0x00A6       |     32 |              6 |
| [65535.6](#event-655356)   | 0x00C6       |     14 |              4 |
| [15](#event-15)            | 0x00D4       |     10 |              2 |
| [65535.7](#event-655357)   | 0x00DE       |     21 |              5 |
| [65535.8](#event-655358)   | 0x00F3       |     16 |              2 |
| [65535.9](#event-655359)   | 0x0103       |     29 |              3 |
| [65535.10](#event-6553510) | 0x0120       |     24 |              6 |

## DAT References (imed_data)

|   Index | Hex Value   |   Dec Value |
|---------|-------------|-------------|
|       0 | 0xFFF63F77  |  4294328183 |
|       1 | 0x80CC5     |      527557 |
|       2 | 0xFFFC784D  |  4294735949 |
|       3 | 0x0257      |         599 |
|       4 | 0xFFF42114  |  4294189332 |
|       5 | 0xFFFEA695  |  4294878869 |
|       6 | 0xFFFE6C4D  |  4294863949 |
|       7 | 0x0C9E      |        3230 |
|       8 | 0xFFF5BA9E  |  4294294174 |
|       9 | 0x7DEA8     |      515752 |
|      10 | 0xFFFC7944  |  4294736196 |
|      11 | 0x0F0E      |        3854 |
|      12 | 0x01ED      |         493 |
|      13 | 0x0001      |           1 |
|      14 | 0x218E      |        8590 |
|      15 | 0x0B56      |        2902 |
|      16 | 0xFFFC79A8  |  4294736296 |
|      17 | 0x0000      |           0 |
|      18 | 0xFFF618BC  |  4294318268 |
|      19 | 0xFFF66947  |  4294338887 |
|      20 | 0x3045E     |      197726 |
|      21 | 0x0859      |        2137 |
|      22 | 0xFFF3FE3A  |  4294180410 |
|      23 | 0xFFFECBD9  |  4294888409 |
|      24 | 0xFFFE6D14  |  4294864148 |
|      25 | 0x0CA6      |        3238 |
|      26 | 0xFFF40991  |  4294183313 |
|      27 | 0xFFFEEDB6  |  4294897078 |
|      28 | 0x0C47      |        3143 |
|      29 | 0x000D      |          13 |
|      30 | 0xFFF417DE  |  4294186974 |
|      31 | 0xFFFEA52C  |  4294878508 |
|      32 | 0x95F8D     |      614285 |
|      33 | 0xBD1C6     |      774598 |
|      34 | 0x20682     |      132738 |
|      35 | 0x07B0      |        1968 |
|      36 | 0x00CF      |         207 |
|      37 | 0x9576D     |      612205 |
|      38 | 0xBB920     |      768288 |
|      39 | 0x20645     |      132677 |
|      40 | 0x93E2C     |      605740 |
|      41 | 0xB98AD     |      759981 |
|      42 | 0x20C91     |      134289 |

## Events

### Event 65535

#### Metadata

| Field        | Value    |
|--------------|----------|
| Entrypoint   | 0x0000   |
| Data Size    | 13 bytes |
| Instructions | 3        |

```
      00 01 02 03 04 05 06 07  08 09 0A 0B 0C 0D 0E 0F
      -- -- -- -- -- -- -- --  -- -- -- -- -- -- -- --
0000: 92 01 F8 FF FF 7F 94 01  F8 FF FF 7F 00           .............   
```

#### Opcodes

```
  0: 0x0000 [0x92] EventEntity->Render.Flags3 ^= 0x01
  1: 0x0006 [0x94] EventEntity->Render.Flags3 ^= 0x01
  2: 0x000C [0x00] END_REQSTACK()
```

### Event 1

#### Metadata

| Field        | Value    |
|--------------|----------|
| Entrypoint   | 0x000D   |
| Data Size    | 10 bytes |
| Instructions | 2        |

```
      00 01 02 03 04 05 06 07  08 09 0A 0B 0C 0D 0E 0F
      -- -- -- -- -- -- -- --  -- -- -- -- -- -- -- --
0000:                                         37 00 80               7..
0010: 01 80 02 80 03 80 00                              .......         
```

#### Opcodes

```
  0: 0x000D [0x37] UPDATE_EVENT_POSITION_AND_DIR: x=-639.113*, z=527.557*, y=-231.347*, direction=52.6°*
  1: 0x0016 [0x00] END_REQSTACK()
```

### Event 2

#### Metadata

| Field        | Value    |
|--------------|----------|
| Entrypoint   | 0x0017   |
| Data Size    | 10 bytes |
| Instructions | 2        |

```
      00 01 02 03 04 05 06 07  08 09 0A 0B 0C 0D 0E 0F
      -- -- -- -- -- -- -- --  -- -- -- -- -- -- -- --
0010:                      37  04 80 05 80 06 80 07 80         7........
0020: 00                                                .               
```

#### Opcodes

```
  0: 0x0017 [0x37] UPDATE_EVENT_POSITION_AND_DIR: x=-777.964*, z=-88.427*, y=-103.347*, direction=283.9°*
  1: 0x0020 [0x00] END_REQSTACK()
```

### Event 65535.1

#### Metadata

| Field        | Value    |
|--------------|----------|
| Entrypoint   | 0x0021   |
| Data Size    | 27 bytes |
| Instructions | 4        |

```
      00 01 02 03 04 05 06 07  08 09 0A 0B 0C 0D 0E 0F
      -- -- -- -- -- -- -- --  -- -- -- -- -- -- -- --
0020:    33 01 37 08 80 09 80  0A 80 0B 80 5B 0C 80 F8   3.7........[...
0030: FF FF 7F F8 FF FF 7F 61  74 73 30 00              .......ats0.    
```

#### Opcodes

```
  0: 0x0021 [0x33] EventEntity->Render.Flags0 |= 0x200000 // Bit 21 (flag=0x01)
  1: 0x0023 [0x37] UPDATE_EVENT_POSITION_AND_DIR: x=-673.122*, z=515.752*, y=-231.100*, direction=338.7°*
  2: 0x002C [0x5B] LOAD_EXT_SCHEDULER: Load scheduler "ats0" with entities [EventEntity, EventEntity], work=493*
  3: 0x003B [0x00] END_REQSTACK()
```

### Event 65535.2

#### Metadata

| Field        | Value    |
|--------------|----------|
| Entrypoint   | 0x003C   |
| Data Size    | 72 bytes |
| Instructions | 11       |

```
      00 01 02 03 04 05 06 07  08 09 0A 0B 0C 0D 0E 0F
      -- -- -- -- -- -- -- --  -- -- -- -- -- -- -- --
0030:                                      33 01 79 00              3.y.
0040: F8 FF FF 7F 90 00 02 01  5B 0C 80 F8 FF FF 7F F8  ........[.......
0050: FF FF 7F 61 74 73 30 02  24 10 0D 80 01 83 00 3B  ...ats0.$......;
0060: 9F 00 02 01 00 00 01 00  02 00 07 00 00 0E 80 07  ................
0070: 01 00 0F 80 37 00 00 01  00 10 80 11 80 1C 0D 80  ....7...........
0080: 01 57 00 00                                       .W..            
```

#### Opcodes

```
  0: 0x003C [0x33] EventEntity->Render.Flags0 |= 0x200000 // Bit 21 (flag=0x01)
  1: 0x003E [0x79] EventEntity looks at Tenzen (ID: 16908432/0x01020090) (Basic look)
  2: 0x0048 [0x5B] LOAD_EXT_SCHEDULER: Load scheduler "ats0" with entities [EventEntity, EventEntity], work=493*
  3: 0x0057 [0x02] IF !(Work_Zone[36] == 1*) GOTO 0x0083
  4: 0x005F [0x3B] GET_ENTITY_POSITION(entity=ship (ID: 16908447/0x0102009F), x_destination=ExtData[1]->WorkLocal[0], y_destination=ExtData[1]->WorkLocal[1], z_destination=ExtData[1]->WorkLocal[2])
  5: 0x006A [0x07] ExtData[1]->WorkLocal[0] += 8590*
  6: 0x006F [0x07] ExtData[1]->WorkLocal[1] += 2902*
  7: 0x0074 [0x37] UPDATE_EVENT_POSITION_AND_DIR: x=ExtData[1]->WorkLocal[0], z=ExtData[1]->WorkLocal[1], y=-231.000*, direction=0.0°*
  8: 0x007D [0x1C] WAIT(1* ticks)
  9: 0x0080 [0x01] GOTO 0x0057
 10: 0x0083 [0x00] END_REQSTACK()
```

### Event 31

#### Metadata

| Field        | Value   |
|--------------|---------|
| Entrypoint   | 0x0084  |
| Data Size    | 7 bytes |
| Instructions | 2       |

```
      00 01 02 03 04 05 06 07  08 09 0A 0B 0C 0D 0E 0F
      -- -- -- -- -- -- -- --  -- -- -- -- -- -- -- --
0080:             94 01 F8 FF  FF 7F 00                     .......     
```

#### Opcodes

```
  0: 0x0084 [0x94] EventEntity->Render.Flags3 ^= 0x01
  1: 0x008A [0x00] END_REQSTACK()
```

### Event 32

#### Metadata

| Field        | Value   |
|--------------|---------|
| Entrypoint   | 0x008B  |
| Data Size    | 7 bytes |
| Instructions | 2       |

```
      00 01 02 03 04 05 06 07  08 09 0A 0B 0C 0D 0E 0F
      -- -- -- -- -- -- -- --  -- -- -- -- -- -- -- --
0080:                                   94 01 F8 FF FF             .....
0090: 7F 00                                             ..              
```

#### Opcodes

```
  0: 0x008B [0x94] EventEntity->Render.Flags3 ^= 0x01
  1: 0x0091 [0x00] END_REQSTACK()
```

### Event 65535.3

#### Metadata

| Field        | Value    |
|--------------|----------|
| Entrypoint   | 0x0092   |
| Data Size    | 10 bytes |
| Instructions | 2        |

```
      00 01 02 03 04 05 06 07  08 09 0A 0B 0C 0D 0E 0F
      -- -- -- -- -- -- -- --  -- -- -- -- -- -- -- --
0090:       37 12 80 13 80 14  80 15 80 00                7.........    
```

#### Opcodes

```
  0: 0x0092 [0x37] UPDATE_EVENT_POSITION_AND_DIR: x=-649.028*, z=-628.409*, y=197.726*, direction=187.8°*
  1: 0x009B [0x00] END_REQSTACK()
```

### Event 65535.4

#### Metadata

| Field        | Value    |
|--------------|----------|
| Entrypoint   | 0x009C   |
| Data Size    | 10 bytes |
| Instructions | 2        |

```
      00 01 02 03 04 05 06 07  08 09 0A 0B 0C 0D 0E 0F
      -- -- -- -- -- -- -- --  -- -- -- -- -- -- -- --
0090:                                      37 16 80 17              7...
00A0: 80 18 80 19 80 00                                 ......          
```

#### Opcodes

```
  0: 0x009C [0x37] UPDATE_EVENT_POSITION_AND_DIR: x=-786.886*, z=-78.887*, y=-103.148*, direction=284.6°*
  1: 0x00A5 [0x00] END_REQSTACK()
```

### Event 65535.5

#### Metadata

| Field        | Value    |
|--------------|----------|
| Entrypoint   | 0x00A6   |
| Data Size    | 32 bytes |
| Instructions | 6        |

```
      00 01 02 03 04 05 06 07  08 09 0A 0B 0C 0D 0E 0F
      -- -- -- -- -- -- -- --  -- -- -- -- -- -- -- --
00A0:                   37 1A  80 1B 80 18 80 1C 80 1E        7.........
00B0: 8D 00 02 01 6F 70 5B 0C  80 F8 FF FF 7F F8 FF FF  ....op[.........
00C0: 7F 61 74 73 30 00                                 .ats0.          
```

#### Opcodes

```
  0: 0x00A6 [0x37] UPDATE_EVENT_POSITION_AND_DIR: x=-783.983*, z=-70.218*, y=-103.148*, direction=276.2°*
  1: 0x00AF [0x1E] EventEntity looks at Prishe (ID: 16908429/0x0102008D) and starts talking
  2: 0x00B4 [0x6F] WAIT_FRAME_DELAY: Yield until WaitTime reaches zero
  3: 0x00B5 [0x70] WAIT_ENTITY_RENDER_FLAG: Wait while EventEntity->Render.Flags3 bit 2 is set (cancel turn if not)
  4: 0x00B6 [0x5B] LOAD_EXT_SCHEDULER: Load scheduler "ats0" with entities [EventEntity, EventEntity], work=493*
  5: 0x00C5 [0x00] END_REQSTACK()
```

### Event 65535.6

#### Metadata

| Field        | Value    |
|--------------|----------|
| Entrypoint   | 0x00C6   |
| Data Size    | 14 bytes |
| Instructions | 4        |

```
      00 01 02 03 04 05 06 07  08 09 0A 0B 0C 0D 0E 0F
      -- -- -- -- -- -- -- --  -- -- -- -- -- -- -- --
00C0:                   32 1D  80 1F 00 1E 80 1F 80 06        2.........
00D0: 80 1F 01 00                                       ....            
```

#### Opcodes

```
  0: 0x00C6 [0x32] ExtData[1]->MainSpeed = 13* * 0.1
  1: 0x00C9 [0x1F] MOVE_ENTITY: EventEntity moves to X=-780.322*, Z=-88.788*, Y=-103.347*
  2: 0x00D1 [0x1F] MOVE_ENTITY: Update entity position (mode=1)
  3: 0x00D3 [0x00] END_REQSTACK()
```

### Event 15

#### Metadata

| Field        | Value    |
|--------------|----------|
| Entrypoint   | 0x00D4   |
| Data Size    | 10 bytes |
| Instructions | 2        |

```
      00 01 02 03 04 05 06 07  08 09 0A 0B 0C 0D 0E 0F
      -- -- -- -- -- -- -- --  -- -- -- -- -- -- -- --
00D0:             37 20 80 21  80 22 80 23 80 00            7 .!.".#..  
```

#### Opcodes

```
  0: 0x00D4 [0x37] UPDATE_EVENT_POSITION_AND_DIR: x=614.285*, z=774.598*, y=132.738*, direction=173.0°*
  1: 0x00DD [0x00] END_REQSTACK()
```

### Event 65535.7

#### Metadata

| Field        | Value    |
|--------------|----------|
| Entrypoint   | 0x00DE   |
| Data Size    | 21 bytes |
| Instructions | 5        |

```
      00 01 02 03 04 05 06 07  08 09 0A 0B 0C 0D 0E 0F
      -- -- -- -- -- -- -- --  -- -- -- -- -- -- -- --
00D0:                                            39 24                9$
00E0: 80 6F 70 5B 0C 80 F8 FF  FF 7F F8 FF FF 7F 61 74  .op[..........at
00F0: 73 30 00                                          s0.             
```

#### Opcodes

```
  0: 0x00DE [0x39] SET_ENTITY_DIRECTION(direction=1.1°*)
  1: 0x00E1 [0x6F] WAIT_FRAME_DELAY: Yield until WaitTime reaches zero
  2: 0x00E2 [0x70] WAIT_ENTITY_RENDER_FLAG: Wait while EventEntity->Render.Flags3 bit 2 is set (cancel turn if not)
  3: 0x00E3 [0x5B] LOAD_EXT_SCHEDULER: Load scheduler "ats0" with entities [EventEntity, EventEntity], work=493*
  4: 0x00F2 [0x00] END_REQSTACK()
```

### Event 65535.8

#### Metadata

| Field        | Value    |
|--------------|----------|
| Entrypoint   | 0x00F3   |
| Data Size    | 16 bytes |
| Instructions | 2        |

```
      00 01 02 03 04 05 06 07  08 09 0A 0B 0C 0D 0E 0F
      -- -- -- -- -- -- -- --  -- -- -- -- -- -- -- --
00F0:          5B 0C 80 F8 FF  FF 7F F8 FF FF 7F 61 74     [..........at
0100: 73 30 00                                          s0.             
```

#### Opcodes

```
  0: 0x00F3 [0x5B] LOAD_EXT_SCHEDULER: Load scheduler "ats0" with entities [EventEntity, EventEntity], work=493*
  1: 0x0102 [0x00] END_REQSTACK()
```

### Event 65535.9

#### Metadata

| Field        | Value    |
|--------------|----------|
| Entrypoint   | 0x0103   |
| Data Size    | 29 bytes |
| Instructions | 3        |

```
      00 01 02 03 04 05 06 07  08 09 0A 0B 0C 0D 0E 0F
      -- -- -- -- -- -- -- --  -- -- -- -- -- -- -- --
0100:          5B 0C 80 F8 FF  FF 7F F8 FF FF 7F 61 74     [..........at
0110: 65 30 53 F8 FF FF 7F F8  FF FF 7F 61 74 65 30 00  e0S........ate0.
```

#### Opcodes

```
  0: 0x0103 [0x5B] LOAD_EXT_SCHEDULER: Load scheduler "ate0" with entities [EventEntity, EventEntity], work=493*
  1: 0x0112 [0x53] WAIT_SCHEDULER_TASK: Wait for scheduler "ate0" with entities [EventEntity, EventEntity]
  2: 0x011F [0x00] END_REQSTACK()
```

### Event 65535.10

#### Metadata

| Field        | Value    |
|--------------|----------|
| Entrypoint   | 0x0120   |
| Data Size    | 24 bytes |
| Instructions | 6        |

```
      00 01 02 03 04 05 06 07  08 09 0A 0B 0C 0D 0E 0F
      -- -- -- -- -- -- -- --  -- -- -- -- -- -- -- --
0120: 32 1D 80 1F 00 25 80 26  80 27 80 1F 01 1F 00 28  2....%.&.'.....(
0130: 80 29 80 2A 80 1F 01 00                           .).*....        
```

#### Opcodes

```
  0: 0x0120 [0x32] ExtData[1]->MainSpeed = 13* * 0.1
  1: 0x0123 [0x1F] MOVE_ENTITY: EventEntity moves to X=612.205*, Z=768.288*, Y=132.677*
  2: 0x012B [0x1F] MOVE_ENTITY: Update entity position (mode=1)
  3: 0x012D [0x1F] MOVE_ENTITY: EventEntity moves to X=605.740*, Z=759.981*, Y=134.289*
  4: 0x0135 [0x1F] MOVE_ENTITY: Update entity position (mode=1)
  5: 0x0137 [0x00] END_REQSTACK()
```
