# 16908462 - Cid

## Common Data

| Field            | Value                  |
|------------------|------------------------|
| Zone             | Sealion's Den (ID: 32) |
| Block Size       | 232 bytes              |
| Total Events     | 6                      |
| References Count | 22                     |

## List of Events

| Event ID                 | Entrypoint   |   Size |   Instructions |
|--------------------------|--------------|--------|----------------|
| [65535](#event-65535)    | 0x0000       |     13 |              3 |
| [15](#event-15)          | 0x000D       |     10 |              2 |
| [65535.1](#event-655351) | 0x0017       |     15 |              5 |
| [65535.2](#event-655352) | 0x0026       |     24 |              6 |
| [65535.3](#event-655353) | 0x003E       |     26 |              7 |
| [65535.4](#event-655354) | 0x0058       |     15 |              5 |

## DAT References (imed_data)

|   Index | Hex Value   |   Dec Value |
|---------|-------------|-------------|
|       0 | 0x95683     |      611971 |
|       1 | 0xBB207     |      766471 |
|       2 | 0x206CD     |      132813 |
|       3 | 0x0C5A      |        3162 |
|       4 | 0x000D      |          13 |
|       5 | 0x957C4     |      612292 |
|       6 | 0xBD067     |      774247 |
|       7 | 0x206A1     |      132769 |
|       8 | 0x9561F     |      611871 |
|       9 | 0x93E2C     |      605740 |
|      10 | 0xB98AD     |      759981 |
|      11 | 0x20C91     |      134289 |
|      12 | 0x9553D     |      611645 |
|      13 | 0xBAA1D     |      764445 |
|      14 | 0x20781     |      132993 |
|      15 | 0x0BC3      |        3011 |
|      16 | 0x9571C     |      612124 |
|      17 | 0xBBA90     |      768656 |
|      18 | 0x20658     |      132696 |
|      19 | 0x956ED     |      612077 |
|      20 | 0xBC43B     |      771131 |
|      21 | 0x2066E     |      132718 |

## Events

### Event 65535

#### Metadata

| Field        | Value    |
|--------------|----------|
| Entrypoint   | 0x0000   |
| Data Size    | 13 bytes |
| Instructions | 3        |

```
      00 01 02 03 04 05 06 07  08 09 0A 0B 0C 0D 0E 0F
      -- -- -- -- -- -- -- --  -- -- -- -- -- -- -- --
0000: 94 00 F8 FF FF 7F 92 01  F8 FF FF 7F 00           .............   
```

#### Opcodes

```
  0: 0x0000 [0x94] EventEntity->Render.Flags3 = Flags3  // No change (flag=0)
  1: 0x0006 [0x92] EventEntity->Render.Flags3 ^= 0x01
  2: 0x000C [0x00] END_REQSTACK()
```

### Event 15

#### Metadata

| Field        | Value    |
|--------------|----------|
| Entrypoint   | 0x000D   |
| Data Size    | 10 bytes |
| Instructions | 2        |

```
      00 01 02 03 04 05 06 07  08 09 0A 0B 0C 0D 0E 0F
      -- -- -- -- -- -- -- --  -- -- -- -- -- -- -- --
0000:                                         37 00 80               7..
0010: 01 80 02 80 03 80 00                              .......         
```

#### Opcodes

```
  0: 0x000D [0x37] UPDATE_EVENT_POSITION_AND_DIR: x=611.971*, z=766.471*, y=132.813*, direction=277.9°*
  1: 0x0016 [0x00] END_REQSTACK()
```

### Event 65535.1

#### Metadata

| Field        | Value    |
|--------------|----------|
| Entrypoint   | 0x0017   |
| Data Size    | 15 bytes |
| Instructions | 5        |

```
      00 01 02 03 04 05 06 07  08 09 0A 0B 0C 0D 0E 0F
      -- -- -- -- -- -- -- --  -- -- -- -- -- -- -- --
0010:                      32  04 80 1F 00 05 80 06 80         2........
0020: 07 80 1F 01 6F 00                                 ....o.          
```

#### Opcodes

```
  0: 0x0017 [0x32] ExtData[1]->MainSpeed = 13* * 0.1
  1: 0x001A [0x1F] MOVE_ENTITY: EventEntity moves to X=612.292*, Z=774.247*, Y=132.769*
  2: 0x0022 [0x1F] MOVE_ENTITY: Update entity position (mode=1)
  3: 0x0024 [0x6F] WAIT_FRAME_DELAY: Yield until WaitTime reaches zero
  4: 0x0025 [0x00] END_REQSTACK()
```

### Event 65535.2

#### Metadata

| Field        | Value    |
|--------------|----------|
| Entrypoint   | 0x0026   |
| Data Size    | 24 bytes |
| Instructions | 6        |

```
      00 01 02 03 04 05 06 07  08 09 0A 0B 0C 0D 0E 0F
      -- -- -- -- -- -- -- --  -- -- -- -- -- -- -- --
0020:                   32 04  80 1F 00 08 80 01 80 02        2.........
0030: 80 1F 01 1F 00 09 80 0A  80 0B 80 1F 01 00        ..............  
```

#### Opcodes

```
  0: 0x0026 [0x32] ExtData[1]->MainSpeed = 13* * 0.1
  1: 0x0029 [0x1F] MOVE_ENTITY: EventEntity moves to X=611.871*, Z=766.471*, Y=132.813*
  2: 0x0031 [0x1F] MOVE_ENTITY: Update entity position (mode=1)
  3: 0x0033 [0x1F] MOVE_ENTITY: EventEntity moves to X=605.740*, Z=759.981*, Y=134.289*
  4: 0x003B [0x1F] MOVE_ENTITY: Update entity position (mode=1)
  5: 0x003D [0x00] END_REQSTACK()
```

### Event 65535.3

#### Metadata

| Field        | Value    |
|--------------|----------|
| Entrypoint   | 0x003E   |
| Data Size    | 26 bytes |
| Instructions | 7        |

```
      00 01 02 03 04 05 06 07  08 09 0A 0B 0C 0D 0E 0F
      -- -- -- -- -- -- -- --  -- -- -- -- -- -- -- --
0030:                                            22 00                ".
0040: 37 0C 80 0D 80 0E 80 0F  80 32 04 80 1F 00 10 80  7........2......
0050: 11 80 12 80 1F 01 6F 00                           ......o.        
```

#### Opcodes

```
  0: 0x003E [0x22] ENTITY_HIDE_FLAG(enabled=0x00)
  1: 0x0040 [0x37] UPDATE_EVENT_POSITION_AND_DIR: x=611.645*, z=764.445*, y=132.993*, direction=264.6°*
  2: 0x0049 [0x32] ExtData[1]->MainSpeed = 13* * 0.1
  3: 0x004C [0x1F] MOVE_ENTITY: EventEntity moves to X=612.124*, Z=768.656*, Y=132.696*
  4: 0x0054 [0x1F] MOVE_ENTITY: Update entity position (mode=1)
  5: 0x0056 [0x6F] WAIT_FRAME_DELAY: Yield until WaitTime reaches zero
  6: 0x0057 [0x00] END_REQSTACK()
```

### Event 65535.4

#### Metadata

| Field        | Value    |
|--------------|----------|
| Entrypoint   | 0x0058   |
| Data Size    | 15 bytes |
| Instructions | 5        |

```
      00 01 02 03 04 05 06 07  08 09 0A 0B 0C 0D 0E 0F
      -- -- -- -- -- -- -- --  -- -- -- -- -- -- -- --
0050:                          32 04 80 1F 00 13 80 14          2.......
0060: 80 15 80 1F 01 6F 00                              .....o.         
```

#### Opcodes

```
  0: 0x0058 [0x32] ExtData[1]->MainSpeed = 13* * 0.1
  1: 0x005B [0x1F] MOVE_ENTITY: EventEntity moves to X=612.077*, Z=771.131*, Y=132.718*
  2: 0x0063 [0x1F] MOVE_ENTITY: Update entity position (mode=1)
  3: 0x0065 [0x6F] WAIT_FRAME_DELAY: Yield until WaitTime reaches zero
  4: 0x0066 [0x00] END_REQSTACK()
```
