# 16908440

## Common Data

| Field            | Value                  |
|------------------|------------------------|
| Zone             | Sealion's Den (ID: 32) |
| Block Size       | 188 bytes              |
| Total Events     | 5                      |
| References Count | 16                     |

## List of Events

| Event ID                 | Entrypoint   |   Size |   Instructions |
|--------------------------|--------------|--------|----------------|
| [65535](#event-65535)    | 0x0000       |     13 |              3 |
| [0](#event-0)            | 0x000D       |     10 |              2 |
| [33](#event-33)          | 0x0017       |     19 |              3 |
| [65535.1](#event-655351) | 0x002A       |     28 |              6 |
| [65535.2](#event-655352) | 0x0046       |     16 |              2 |

## DAT References (imed_data)

|   Index | Hex Value   |   Dec Value |
|---------|-------------|-------------|
|       0 | 0xFFF63BC0  |  4294327232 |
|       1 | 0x7CDD3     |      511443 |
|       2 | 0xFFFC784D  |  4294735949 |
|       3 | 0x0C01      |        3073 |
|       4 | 0xFFF63C37  |  4294327351 |
|       5 | 0x7CCCD     |      511181 |
|       6 | 0x03FE      |        1022 |
|       7 | 0x0000      |           0 |
|       8 | 0xFFF65264  |  4294333028 |
|       9 | 0x7EA02     |      518658 |
|      10 | 0xFFFC7914  |  4294736148 |
|      11 | 0x0B9C      |        2972 |
|      12 | 0x0028      |          40 |
|      13 | 0xFFF6511B  |  4294332699 |
|      14 | 0x80B07     |      527111 |
|      15 | 0x01E5      |         485 |

## Events

### Event 65535

#### Metadata

| Field        | Value    |
|--------------|----------|
| Entrypoint   | 0x0000   |
| Data Size    | 13 bytes |
| Instructions | 3        |

```
      00 01 02 03 04 05 06 07  08 09 0A 0B 0C 0D 0E 0F
      -- -- -- -- -- -- -- --  -- -- -- -- -- -- -- --
0000: 92 01 F8 FF FF 7F 94 01  F8 FF FF 7F 00           .............   
```

#### Opcodes

```
  0: 0x0000 [0x92] EventEntity->Render.Flags3 ^= 0x01
  1: 0x0006 [0x94] EventEntity->Render.Flags3 ^= 0x01
  2: 0x000C [0x00] END_REQSTACK()
```

### Event 0

#### Metadata

| Field        | Value    |
|--------------|----------|
| Entrypoint   | 0x000D   |
| Data Size    | 10 bytes |
| Instructions | 2        |

```
      00 01 02 03 04 05 06 07  08 09 0A 0B 0C 0D 0E 0F
      -- -- -- -- -- -- -- --  -- -- -- -- -- -- -- --
0000:                                         37 00 80               7..
0010: 01 80 02 80 03 80 00                              .......         
```

#### Opcodes

```
  0: 0x000D [0x37] UPDATE_EVENT_POSITION_AND_DIR: x=-640.064*, z=511.443*, y=-231.347*, direction=270.1°*
  1: 0x0016 [0x00] END_REQSTACK()
```

### Event 33

#### Metadata

| Field        | Value    |
|--------------|----------|
| Entrypoint   | 0x0017   |
| Data Size    | 19 bytes |
| Instructions | 3        |

```
      00 01 02 03 04 05 06 07  08 09 0A 0B 0C 0D 0E 0F
      -- -- -- -- -- -- -- --  -- -- -- -- -- -- -- --
0010:                      37  04 80 05 80 02 80 06 80         7........
0020: 6C F8 FF FF 7F 07 80 07  80 00                    l.........      
```

#### Opcodes

```
  0: 0x0017 [0x37] UPDATE_EVENT_POSITION_AND_DIR: x=-639.945*, z=511.181*, y=-231.347*, direction=89.8°*
  1: 0x0020 [0x6C] FADE_ENTITY_COLOR(entity_id=EventEntity, end_alpha=0*, fade_time=0*)
  2: 0x0029 [0x00] END_REQSTACK()
```

### Event 65535.1

#### Metadata

| Field        | Value    |
|--------------|----------|
| Entrypoint   | 0x002A   |
| Data Size    | 28 bytes |
| Instructions | 6        |

```
      00 01 02 03 04 05 06 07  08 09 0A 0B 0C 0D 0E 0F
      -- -- -- -- -- -- -- --  -- -- -- -- -- -- -- --
0020:                                37 08 80 09 80 0A            7.....
0030: 80 0B 80 32 0C 80 1F 00  0D 80 0E 80 0A 80 1F 01  ...2............
0040: 1E A0 00 02 01 00                                 ......          
```

#### Opcodes

```
  0: 0x002A [0x37] UPDATE_EVENT_POSITION_AND_DIR: x=-634.268*, z=518.658*, y=-231.148*, direction=261.2°*
  1: 0x0033 [0x32] ExtData[1]->MainSpeed = 40* * 0.1
  2: 0x0036 [0x1F] MOVE_ENTITY: EventEntity moves to X=-634.597*, Z=527.111*, Y=-231.148*
  3: 0x003E [0x1F] MOVE_ENTITY: Update entity position (mode=1)
  4: 0x0040 [0x1E] EventEntity looks at Nag'molada (ID: 16908448/0x010200A0) and starts talking
  5: 0x0045 [0x00] END_REQSTACK()
```

### Event 65535.2

#### Metadata

| Field        | Value    |
|--------------|----------|
| Entrypoint   | 0x0046   |
| Data Size    | 16 bytes |
| Instructions | 2        |

```
      00 01 02 03 04 05 06 07  08 09 0A 0B 0C 0D 0E 0F
      -- -- -- -- -- -- -- --  -- -- -- -- -- -- -- --
0040:                   5B 0F  80 F8 FF FF 7F F8 FF FF        [.........
0050: 7F 61 74 61 30 00                                 .ata0.          
```

#### Opcodes

```
  0: 0x0046 [0x5B] LOAD_EXT_SCHEDULER: Load scheduler "ata0" with entities [EventEntity, EventEntity], work=485*
  1: 0x0055 [0x00] END_REQSTACK()
```
