# 16908432 - Tenzen

## Common Data

| Field            | Value                  |
|------------------|------------------------|
| Zone             | Sealion's Den (ID: 32) |
| Block Size       | 1612 bytes             |
| Total Events     | 49                     |
| References Count | 95                     |

## List of Events

| Event ID                   | Entrypoint   |   Size |   Instructions |
|----------------------------|--------------|--------|----------------|
| [65535](#event-65535)      | 0x0000       |     13 |              3 |
| [65535.1](#event-655351)   | 0x000D       |     10 |              2 |
| [65535.2](#event-655352)   | 0x0017       |     38 |              4 |
| [33](#event-33)            | 0x003D       |      7 |              2 |
| [34](#event-34)            | 0x0044       |      7 |              2 |
| [65535.3](#event-655353)   | 0x004B       |     25 |              6 |
| [65535.4](#event-655354)   | 0x0064       |     27 |              4 |
| [65535.5](#event-655355)   | 0x007F       |     10 |              2 |
| [65535.6](#event-655356)   | 0x0089       |     14 |              4 |
| [65535.7](#event-655357)   | 0x0097       |     16 |              2 |
| [65535.8](#event-655358)   | 0x00A7       |     16 |              2 |
| [65535.9](#event-655359)   | 0x00B7       |     38 |              4 |
| [65535.10](#event-6553510) | 0x00DD       |     33 |              3 |
| [65535.11](#event-6553511) | 0x00FE       |     16 |              2 |
| [65535.12](#event-6553512) | 0x010E       |     16 |              2 |
| [65535.13](#event-6553513) | 0x011E       |     16 |              2 |
| [65535.14](#event-6553514) | 0x012E       |     16 |              2 |
| [65535.15](#event-6553515) | 0x013E       |     29 |              3 |
| [65535.16](#event-6553516) | 0x015B       |     29 |              3 |
| [65535.17](#event-6553517) | 0x0178       |     29 |              3 |
| [65535.18](#event-6553518) | 0x0195       |     29 |              3 |
| [65535.19](#event-6553519) | 0x01B2       |     29 |              3 |
| [65535.20](#event-6553520) | 0x01CF       |     29 |              3 |
| [65535.21](#event-6553521) | 0x01EC       |     29 |              3 |
| [65535.22](#event-6553522) | 0x0209       |     29 |              3 |
| [65535.23](#event-6553523) | 0x0226       |     29 |              3 |
| [65535.24](#event-6553524) | 0x0243       |     16 |              2 |
| [65535.25](#event-6553525) | 0x0253       |     16 |              2 |
| [0](#event-0)              | 0x0263       |     10 |              2 |
| [65535.26](#event-6553526) | 0x026D       |     14 |              4 |
| [65535.27](#event-6553527) | 0x027B       |     10 |              2 |
| [65535.28](#event-6553528) | 0x0285       |    105 |             19 |
| [2](#event-2)              | 0x02EE       |     10 |              2 |
| [31](#event-31)            | 0x02F8       |      7 |              2 |
| [32](#event-32)            | 0x02FF       |      7 |              2 |
| [65535.29](#event-6553529) | 0x0306       |     10 |              2 |
| [65535.30](#event-6553530) | 0x0310       |     10 |              2 |
| [65535.31](#event-6553531) | 0x031A       |     10 |              2 |
| [65535.32](#event-6553532) | 0x0324       |     14 |              4 |
| [65535.33](#event-6553533) | 0x0332       |     37 |              7 |
| [65535.34](#event-6553534) | 0x0357       |     16 |              5 |
| [13](#event-13)            | 0x0367       |     10 |              2 |
| [65535.35](#event-6553535) | 0x0371       |     15 |              5 |
| [65535.36](#event-6553536) | 0x0380       |     10 |              2 |
| [65535.37](#event-6553537) | 0x038A       |     34 |              8 |
| [65535.38](#event-6553538) | 0x03AC       |     30 |              7 |
| [15](#event-15)            | 0x03CA       |     10 |              2 |
| [65535.39](#event-6553539) | 0x03D4       |     15 |              5 |
| [65535.40](#event-6553540) | 0x03E3       |     24 |              6 |

## DAT References (imed_data)

|   Index | Hex Value   |   Dec Value |
|---------|-------------|-------------|
|       0 | 0xFFF6132E  |  4294316846 |
|       1 | 0x7F1B6     |      520630 |
|       2 | 0xFFFC7914  |  4294736148 |
|       3 | 0x0DC6      |        3526 |
|       4 | 0xFFF63C0A  |  4294327306 |
|       5 | 0x7F667     |      521831 |
|       6 | 0xFFFC784D  |  4294735949 |
|       7 | 0x0402      |        1026 |
|       8 | 0x0293      |         659 |
|       9 | 0xFFF6517E  |  4294332798 |
|      10 | 0x80612     |      525842 |
|      11 | 0x0BB8      |        3000 |
|      12 | 0xFFF5B8B4  |  4294293684 |
|      13 | 0x7EB63     |      519011 |
|      14 | 0xFFFC7944  |  4294736196 |
|      15 | 0x0000      |           0 |
|      16 | 0x01AB      |         427 |
|      17 | 0xFFF64FE9  |  4294332393 |
|      18 | 0x7F0B3     |      520371 |
|      19 | 0x0B95      |        2965 |
|      20 | 0x0028      |          40 |
|      21 | 0xFFF61B21  |  4294318881 |
|      22 | 0x7FAB1     |      522929 |
|      23 | 0x027E      |         638 |
|      24 | 0x0068      |         104 |
|      25 | 0x01A9      |         425 |
|      26 | 0x0280      |         640 |
|      27 | 0xFFF4193C  |  4294187324 |
|      28 | 0xFFFEA23C  |  4294877756 |
|      29 | 0xFFFE6C4D  |  4294863949 |
|      30 | 0x0C39      |        3129 |
|      31 | 0xFFF41938  |  4294187320 |
|      32 | 0xFFFEB44B  |  4294882379 |
|      33 | 0xFFF6242D  |  4294321197 |
|      34 | 0x7FCEF     |      523503 |
|      35 | 0x0246      |         582 |
|      36 | 0x0FA0      |        4000 |
|      37 | 0x000D      |          13 |
|      38 | 0xFFF412F4  |  4294185716 |
|      39 | 0xFFFEB5B6  |  4294882742 |
|      40 | 0x0CC7      |        3271 |
|      41 | 0xFFF64269  |  4294328937 |
|      42 | 0xFFF64EFE  |  4294332158 |
|      43 | 0x30397     |      197527 |
|      44 | 0x067B      |        1659 |
|      45 | 0xFFF42F39  |  4294192953 |
|      46 | 0xFFFEF59E  |  4294899102 |
|      47 | 0xFFFE6D14  |  4294864148 |
|      48 | 0x0C7F      |        3199 |
|      49 | 0xFFF63C01  |  4294327297 |
|      50 | 0x7EF49     |      520009 |
|      51 | 0x0400      |        1024 |
|      52 | 0xFFF63BFB  |  4294327291 |
|      53 | 0x7E6F8     |      517880 |
|      54 | 0xFFF425D7  |  4294190551 |
|      55 | 0xFFFEF109  |  4294897929 |
|      56 | 0x0D09      |        3337 |
|      57 | 0xFFF417DE  |  4294186974 |
|      58 | 0xFFFEA52C  |  4294878508 |
|      59 | 0x95C95     |      613525 |
|      60 | 0xBE58F     |      779663 |
|      61 | 0x20603     |      132611 |
|      62 | 0x03FD      |        1021 |
|      63 | 0x95C99     |      613529 |
|      64 | 0xBD8C8     |      776392 |
|      65 | 0x20640     |      132672 |
|      66 | 0x931A6     |      602534 |
|      67 | 0xB8B80     |      756608 |
|      68 | 0x20B44     |      133956 |
|      69 | 0x0DF7      |        3575 |
|      70 | 0x93C0C     |      605196 |
|      71 | 0xB5D68     |      744808 |
|      72 | 0x20E4E     |      134734 |
|      73 | 0x93F65     |      606053 |
|      74 | 0xB5507     |      742663 |
|      75 | 0x20EF0     |      134896 |
|      76 | 0x9515F     |      610655 |
|      77 | 0xB4944     |      739652 |
|      78 | 0x210DA     |      135386 |
|      79 | 0x95C81     |      613505 |
|      80 | 0xBCA26     |      772646 |
|      81 | 0x206D4     |      132820 |
|      82 | 0x95573     |      611699 |
|      83 | 0xBD92A     |      776490 |
|      84 | 0x2063E     |      132670 |
|      85 | 0x026D      |         621 |
|      86 | 0x95417     |      611351 |
|      87 | 0xBD3AB     |      775083 |
|      88 | 0x2066D     |      132717 |
|      89 | 0x9576D     |      612205 |
|      90 | 0xBB920     |      768288 |
|      91 | 0x20645     |      132677 |
|      92 | 0x93E2C     |      605740 |
|      93 | 0xB98AD     |      759981 |
|      94 | 0x20C91     |      134289 |

## Events

### Event 65535

#### Metadata

| Field        | Value    |
|--------------|----------|
| Entrypoint   | 0x0000   |
| Data Size    | 13 bytes |
| Instructions | 3        |

```
      00 01 02 03 04 05 06 07  08 09 0A 0B 0C 0D 0E 0F
      -- -- -- -- -- -- -- --  -- -- -- -- -- -- -- --
0000: 94 00 F8 FF FF 7F 92 01  F8 FF FF 7F 00           .............   
```

#### Opcodes

```
  0: 0x0000 [0x94] EventEntity->Render.Flags3 = Flags3  // No change (flag=0)
  1: 0x0006 [0x92] EventEntity->Render.Flags3 ^= 0x01
  2: 0x000C [0x00] END_REQSTACK()
```

### Event 65535.1

#### Metadata

| Field        | Value    |
|--------------|----------|
| Entrypoint   | 0x000D   |
| Data Size    | 10 bytes |
| Instructions | 2        |

```
      00 01 02 03 04 05 06 07  08 09 0A 0B 0C 0D 0E 0F
      -- -- -- -- -- -- -- --  -- -- -- -- -- -- -- --
0000:                                         37 00 80               7..
0010: 01 80 02 80 03 80 00                              .......         
```

#### Opcodes

```
  0: 0x000D [0x37] UPDATE_EVENT_POSITION_AND_DIR: x=-650.450*, z=520.630*, y=-231.148*, direction=309.9°*
  1: 0x0016 [0x00] END_REQSTACK()
```

### Event 65535.2

#### Metadata

| Field        | Value    |
|--------------|----------|
| Entrypoint   | 0x0017   |
| Data Size    | 38 bytes |
| Instructions | 4        |

```
      00 01 02 03 04 05 06 07  08 09 0A 0B 0C 0D 0E 0F
      -- -- -- -- -- -- -- --  -- -- -- -- -- -- -- --
0010:                      37  04 80 05 80 06 80 07 80         7........
0020: 5B 08 80 F8 FF FF 7F F8  FF FF 7F 68 69 30 33 53  [..........hi03S
0030: F8 FF FF 7F F8 FF FF 7F  68 69 30 33 00           ........hi03.   
```

#### Opcodes

```
  0: 0x0017 [0x37] UPDATE_EVENT_POSITION_AND_DIR: x=-639.990*, z=521.831*, y=-231.347*, direction=90.2°*
  1: 0x0020 [0x5B] LOAD_EXT_SCHEDULER: Load scheduler "hi03" with entities [EventEntity, EventEntity], work=659*
  2: 0x002F [0x53] WAIT_SCHEDULER_TASK: Wait for scheduler "hi03" with entities [EventEntity, EventEntity]
  3: 0x003C [0x00] END_REQSTACK()
```

### Event 33

#### Metadata

| Field        | Value   |
|--------------|---------|
| Entrypoint   | 0x003D  |
| Data Size    | 7 bytes |
| Instructions | 2       |

```
      00 01 02 03 04 05 06 07  08 09 0A 0B 0C 0D 0E 0F
      -- -- -- -- -- -- -- --  -- -- -- -- -- -- -- --
0030:                                         94 01 F8               ...
0040: FF FF 7F 00                                       ....            
```

#### Opcodes

```
  0: 0x003D [0x94] EventEntity->Render.Flags3 ^= 0x01
  1: 0x0043 [0x00] END_REQSTACK()
```

### Event 34

#### Metadata

| Field        | Value   |
|--------------|---------|
| Entrypoint   | 0x0044  |
| Data Size    | 7 bytes |
| Instructions | 2       |

```
      00 01 02 03 04 05 06 07  08 09 0A 0B 0C 0D 0E 0F
      -- -- -- -- -- -- -- --  -- -- -- -- -- -- -- --
0040:             94 01 F8 FF  FF 7F 00                     .......     
```

#### Opcodes

```
  0: 0x0044 [0x94] EventEntity->Render.Flags3 ^= 0x01
  1: 0x004A [0x00] END_REQSTACK()
```

### Event 65535.3

#### Metadata

| Field        | Value    |
|--------------|----------|
| Entrypoint   | 0x004B   |
| Data Size    | 25 bytes |
| Instructions | 6        |

```
      00 01 02 03 04 05 06 07  08 09 0A 0B 0C 0D 0E 0F
      -- -- -- -- -- -- -- --  -- -- -- -- -- -- -- --
0040:                                   79 00 F8 FF FF             y....
0050: 7F A0 00 02 01 1F 00 09  80 0A 80 02 80 1F 01 6F  ...............o
0060: 39 0B 80 00                                       9...            
```

#### Opcodes

```
  0: 0x004B [0x79] EventEntity looks at Nag'molada (ID: 16908448/0x010200A0) (Basic look)
  1: 0x0055 [0x1F] MOVE_ENTITY: EventEntity moves to X=-634.498*, Z=525.842*, Y=-231.148*
  2: 0x005D [0x1F] MOVE_ENTITY: Update entity position (mode=1)
  3: 0x005F [0x6F] WAIT_FRAME_DELAY: Yield until WaitTime reaches zero
  4: 0x0060 [0x39] SET_ENTITY_DIRECTION(direction=16.5°*)
  5: 0x0063 [0x00] END_REQSTACK()
```

### Event 65535.4

#### Metadata

| Field        | Value    |
|--------------|----------|
| Entrypoint   | 0x0064   |
| Data Size    | 27 bytes |
| Instructions | 4        |

```
      00 01 02 03 04 05 06 07  08 09 0A 0B 0C 0D 0E 0F
      -- -- -- -- -- -- -- --  -- -- -- -- -- -- -- --
0060:             33 01 37 0C  80 0D 80 0E 80 0F 80 5B      3.7........[
0070: 10 80 F8 FF FF 7F F8 FF  FF 7F 69 61 69 30 00     ..........iai0. 
```

#### Opcodes

```
  0: 0x0064 [0x33] EventEntity->Render.Flags0 |= 0x200000 // Bit 21 (flag=0x01)
  1: 0x0066 [0x37] UPDATE_EVENT_POSITION_AND_DIR: x=-673.612*, z=519.011*, y=-231.100*, direction=0.0°*
  2: 0x006F [0x5B] LOAD_EXT_SCHEDULER: Load scheduler "iai0" with entities [EventEntity, EventEntity], work=427*
  3: 0x007E [0x00] END_REQSTACK()
```

### Event 65535.5

#### Metadata

| Field        | Value    |
|--------------|----------|
| Entrypoint   | 0x007F   |
| Data Size    | 10 bytes |
| Instructions | 2        |

```
      00 01 02 03 04 05 06 07  08 09 0A 0B 0C 0D 0E 0F
      -- -- -- -- -- -- -- --  -- -- -- -- -- -- -- --
0070:                                               37                 7
0080: 11 80 12 80 02 80 13 80  00                       .........       
```

#### Opcodes

```
  0: 0x007F [0x37] UPDATE_EVENT_POSITION_AND_DIR: x=-634.903*, z=520.371*, y=-231.148*, direction=260.6°*
  1: 0x0088 [0x00] END_REQSTACK()
```

### Event 65535.6

#### Metadata

| Field        | Value    |
|--------------|----------|
| Entrypoint   | 0x0089   |
| Data Size    | 14 bytes |
| Instructions | 4        |

```
      00 01 02 03 04 05 06 07  08 09 0A 0B 0C 0D 0E 0F
      -- -- -- -- -- -- -- --  -- -- -- -- -- -- -- --
0080:                             32 14 80 1F 00 15 80           2......
0090: 16 80 02 80 1F 01 00                              .......         
```

#### Opcodes

```
  0: 0x0089 [0x32] ExtData[1]->MainSpeed = 40* * 0.1
  1: 0x008C [0x1F] MOVE_ENTITY: EventEntity moves to X=-648.415*, Z=522.929*, Y=-231.148*
  2: 0x0094 [0x1F] MOVE_ENTITY: Update entity position (mode=1)
  3: 0x0096 [0x00] END_REQSTACK()
```

### Event 65535.7

#### Metadata

| Field        | Value    |
|--------------|----------|
| Entrypoint   | 0x0097   |
| Data Size    | 16 bytes |
| Instructions | 2        |

```
      00 01 02 03 04 05 06 07  08 09 0A 0B 0C 0D 0E 0F
      -- -- -- -- -- -- -- --  -- -- -- -- -- -- -- --
0090:                      5B  10 80 F8 FF FF 7F F8 FF         [........
00A0: FF 7F 69 61 69 30 00                              ..iai0.         
```

#### Opcodes

```
  0: 0x0097 [0x5B] LOAD_EXT_SCHEDULER: Load scheduler "iai0" with entities [EventEntity, EventEntity], work=427*
  1: 0x00A6 [0x00] END_REQSTACK()
```

### Event 65535.8

#### Metadata

| Field        | Value    |
|--------------|----------|
| Entrypoint   | 0x00A7   |
| Data Size    | 16 bytes |
| Instructions | 2        |

```
      00 01 02 03 04 05 06 07  08 09 0A 0B 0C 0D 0E 0F
      -- -- -- -- -- -- -- --  -- -- -- -- -- -- -- --
00A0:                      5B  10 80 F8 FF FF 7F F8 FF         [........
00B0: FF 7F 69 61 69 31 00                              ..iai1.         
```

#### Opcodes

```
  0: 0x00A7 [0x5B] LOAD_EXT_SCHEDULER: Load scheduler "iai1" with entities [EventEntity, EventEntity], work=427*
  1: 0x00B6 [0x00] END_REQSTACK()
```

### Event 65535.9

#### Metadata

| Field        | Value    |
|--------------|----------|
| Entrypoint   | 0x00B7   |
| Data Size    | 38 bytes |
| Instructions | 4        |

```
      00 01 02 03 04 05 06 07  08 09 0A 0B 0C 0D 0E 0F
      -- -- -- -- -- -- -- --  -- -- -- -- -- -- -- --
00B0:                      7B  F8 FF FF 7F 5B 17 80 F8         {....[...
00C0: FF FF 7F F8 FF FF 7F 66  65 6E 30 9F 18 80 F8 FF  .......fen0.....
00D0: FF 7F F8 FF FF 7F 73 74  72 30 0F 80 00           ......str0...   
```

#### Opcodes

```
  0: 0x00B7 [0x7B] EventEntity stops talking
  1: 0x00BC [0x5B] LOAD_EXT_SCHEDULER: Load scheduler "fen0" with entities [EventEntity, EventEntity], work=638*
  2: 0x00CB [0x9F] LOAD_SCHEDULED_TASK_ALT: Load scheduler "str0" with entities [EventEntity, EventEntity], work=[104*, 0*]
  3: 0x00DC [0x00] END_REQSTACK()
```

### Event 65535.10

#### Metadata

| Field        | Value    |
|--------------|----------|
| Entrypoint   | 0x00DD   |
| Data Size    | 33 bytes |
| Instructions | 3        |

```
      00 01 02 03 04 05 06 07  08 09 0A 0B 0C 0D 0E 0F
      -- -- -- -- -- -- -- --  -- -- -- -- -- -- -- --
00D0:                                         5B 17 80               [..
00E0: F8 FF FF 7F F8 FF FF 7F  66 65 6E 31 9F 18 80 F8  ........fen1....
00F0: FF FF 7F F8 FF FF 7F 73  74 72 31 0F 80 00        .......str1...  
```

#### Opcodes

```
  0: 0x00DD [0x5B] LOAD_EXT_SCHEDULER: Load scheduler "fen1" with entities [EventEntity, EventEntity], work=638*
  1: 0x00EC [0x9F] LOAD_SCHEDULED_TASK_ALT: Load scheduler "str1" with entities [EventEntity, EventEntity], work=[104*, 0*]
  2: 0x00FD [0x00] END_REQSTACK()
```

### Event 65535.11

#### Metadata

| Field        | Value    |
|--------------|----------|
| Entrypoint   | 0x00FE   |
| Data Size    | 16 bytes |
| Instructions | 2        |

```
      00 01 02 03 04 05 06 07  08 09 0A 0B 0C 0D 0E 0F
      -- -- -- -- -- -- -- --  -- -- -- -- -- -- -- --
00F0:                                            5B 10                [.
0100: 80 F8 FF FF 7F F8 FF FF  7F 74 6C 63 30 00        .........tlc0.  
```

#### Opcodes

```
  0: 0x00FE [0x5B] LOAD_EXT_SCHEDULER: Load scheduler "tlc0" with entities [EventEntity, EventEntity], work=427*
  1: 0x010D [0x00] END_REQSTACK()
```

### Event 65535.12

#### Metadata

| Field        | Value    |
|--------------|----------|
| Entrypoint   | 0x010E   |
| Data Size    | 16 bytes |
| Instructions | 2        |

```
      00 01 02 03 04 05 06 07  08 09 0A 0B 0C 0D 0E 0F
      -- -- -- -- -- -- -- --  -- -- -- -- -- -- -- --
0100:                                            5B 10                [.
0110: 80 F8 FF FF 7F F8 FF FF  7F 74 6C 63 31 00        .........tlc1.  
```

#### Opcodes

```
  0: 0x010E [0x5B] LOAD_EXT_SCHEDULER: Load scheduler "tlc1" with entities [EventEntity, EventEntity], work=427*
  1: 0x011D [0x00] END_REQSTACK()
```

### Event 65535.13

#### Metadata

| Field        | Value    |
|--------------|----------|
| Entrypoint   | 0x011E   |
| Data Size    | 16 bytes |
| Instructions | 2        |

```
      00 01 02 03 04 05 06 07  08 09 0A 0B 0C 0D 0E 0F
      -- -- -- -- -- -- -- --  -- -- -- -- -- -- -- --
0110:                                            5B 19                [.
0120: 80 F8 FF FF 7F F8 FF FF  7F 74 6C 61 30 00        .........tla0.  
```

#### Opcodes

```
  0: 0x011E [0x5B] LOAD_EXT_SCHEDULER: Load scheduler "tla0" with entities [EventEntity, EventEntity], work=425*
  1: 0x012D [0x00] END_REQSTACK()
```

### Event 65535.14

#### Metadata

| Field        | Value    |
|--------------|----------|
| Entrypoint   | 0x012E   |
| Data Size    | 16 bytes |
| Instructions | 2        |

```
      00 01 02 03 04 05 06 07  08 09 0A 0B 0C 0D 0E 0F
      -- -- -- -- -- -- -- --  -- -- -- -- -- -- -- --
0120:                                            5B 19                [.
0130: 80 F8 FF FF 7F F8 FF FF  7F 74 6C 61 31 00        .........tla1.  
```

#### Opcodes

```
  0: 0x012E [0x5B] LOAD_EXT_SCHEDULER: Load scheduler "tla1" with entities [EventEntity, EventEntity], work=425*
  1: 0x013D [0x00] END_REQSTACK()
```

### Event 65535.15

#### Metadata

| Field        | Value    |
|--------------|----------|
| Entrypoint   | 0x013E   |
| Data Size    | 29 bytes |
| Instructions | 3        |

```
      00 01 02 03 04 05 06 07  08 09 0A 0B 0C 0D 0E 0F
      -- -- -- -- -- -- -- --  -- -- -- -- -- -- -- --
0130:                                            5B 19                [.
0140: 80 F8 FF FF 7F F8 FF FF  7F 74 68 6B 30 53 F8 FF  .........thk0S..
0150: FF 7F F8 FF FF 7F 74 68  6B 30 00                 ......thk0.     
```

#### Opcodes

```
  0: 0x013E [0x5B] LOAD_EXT_SCHEDULER: Load scheduler "thk0" with entities [EventEntity, EventEntity], work=425*
  1: 0x014D [0x53] WAIT_SCHEDULER_TASK: Wait for scheduler "thk0" with entities [EventEntity, EventEntity]
  2: 0x015A [0x00] END_REQSTACK()
```

### Event 65535.16

#### Metadata

| Field        | Value    |
|--------------|----------|
| Entrypoint   | 0x015B   |
| Data Size    | 29 bytes |
| Instructions | 3        |

```
      00 01 02 03 04 05 06 07  08 09 0A 0B 0C 0D 0E 0F
      -- -- -- -- -- -- -- --  -- -- -- -- -- -- -- --
0150:                                   5B 19 80 F8 FF             [....
0160: FF 7F F8 FF FF 7F 74 68  6B 31 53 F8 FF FF 7F F8  ......thk1S.....
0170: FF FF 7F 74 68 6B 31 00                           ...thk1.        
```

#### Opcodes

```
  0: 0x015B [0x5B] LOAD_EXT_SCHEDULER: Load scheduler "thk1" with entities [EventEntity, EventEntity], work=425*
  1: 0x016A [0x53] WAIT_SCHEDULER_TASK: Wait for scheduler "thk1" with entities [EventEntity, EventEntity]
  2: 0x0177 [0x00] END_REQSTACK()
```

### Event 65535.17

#### Metadata

| Field        | Value    |
|--------------|----------|
| Entrypoint   | 0x0178   |
| Data Size    | 29 bytes |
| Instructions | 3        |

```
      00 01 02 03 04 05 06 07  08 09 0A 0B 0C 0D 0E 0F
      -- -- -- -- -- -- -- --  -- -- -- -- -- -- -- --
0170:                          5B 08 80 F8 FF FF 7F F8          [.......
0180: FF FF 7F 68 69 30 30 53  F8 FF FF 7F F8 FF FF 7F  ...hi00S........
0190: 68 69 30 30 00                                    hi00.           
```

#### Opcodes

```
  0: 0x0178 [0x5B] LOAD_EXT_SCHEDULER: Load scheduler "hi00" with entities [EventEntity, EventEntity], work=659*
  1: 0x0187 [0x53] WAIT_SCHEDULER_TASK: Wait for scheduler "hi00" with entities [EventEntity, EventEntity]
  2: 0x0194 [0x00] END_REQSTACK()
```

### Event 65535.18

#### Metadata

| Field        | Value    |
|--------------|----------|
| Entrypoint   | 0x0195   |
| Data Size    | 29 bytes |
| Instructions | 3        |

```
      00 01 02 03 04 05 06 07  08 09 0A 0B 0C 0D 0E 0F
      -- -- -- -- -- -- -- --  -- -- -- -- -- -- -- --
0190:                5B 08 80  F8 FF FF 7F F8 FF FF 7F       [..........
01A0: 68 69 30 31 53 F8 FF FF  7F F8 FF FF 7F 68 69 30  hi01S........hi0
01B0: 31 00                                             1.              
```

#### Opcodes

```
  0: 0x0195 [0x5B] LOAD_EXT_SCHEDULER: Load scheduler "hi01" with entities [EventEntity, EventEntity], work=659*
  1: 0x01A4 [0x53] WAIT_SCHEDULER_TASK: Wait for scheduler "hi01" with entities [EventEntity, EventEntity]
  2: 0x01B1 [0x00] END_REQSTACK()
```

### Event 65535.19

#### Metadata

| Field        | Value    |
|--------------|----------|
| Entrypoint   | 0x01B2   |
| Data Size    | 29 bytes |
| Instructions | 3        |

```
      00 01 02 03 04 05 06 07  08 09 0A 0B 0C 0D 0E 0F
      -- -- -- -- -- -- -- --  -- -- -- -- -- -- -- --
01B0:       5B 08 80 F8 FF FF  7F F8 FF FF 7F 68 69 30    [..........hi0
01C0: 32 53 F8 FF FF 7F F8 FF  FF 7F 68 69 30 32 00     2S........hi02. 
```

#### Opcodes

```
  0: 0x01B2 [0x5B] LOAD_EXT_SCHEDULER: Load scheduler "hi02" with entities [EventEntity, EventEntity], work=659*
  1: 0x01C1 [0x53] WAIT_SCHEDULER_TASK: Wait for scheduler "hi02" with entities [EventEntity, EventEntity]
  2: 0x01CE [0x00] END_REQSTACK()
```

### Event 65535.20

#### Metadata

| Field        | Value    |
|--------------|----------|
| Entrypoint   | 0x01CF   |
| Data Size    | 29 bytes |
| Instructions | 3        |

```
      00 01 02 03 04 05 06 07  08 09 0A 0B 0C 0D 0E 0F
      -- -- -- -- -- -- -- --  -- -- -- -- -- -- -- --
01C0:                                               5B                 [
01D0: 08 80 F8 FF FF 7F F8 FF  FF 7F 68 69 30 33 53 F8  ..........hi03S.
01E0: FF FF 7F F8 FF FF 7F 68  69 30 33 00              .......hi03.    
```

#### Opcodes

```
  0: 0x01CF [0x5B] LOAD_EXT_SCHEDULER: Load scheduler "hi03" with entities [EventEntity, EventEntity], work=659*
  1: 0x01DE [0x53] WAIT_SCHEDULER_TASK: Wait for scheduler "hi03" with entities [EventEntity, EventEntity]
  2: 0x01EB [0x00] END_REQSTACK()
```

### Event 65535.21

#### Metadata

| Field        | Value    |
|--------------|----------|
| Entrypoint   | 0x01EC   |
| Data Size    | 29 bytes |
| Instructions | 3        |

```
      00 01 02 03 04 05 06 07  08 09 0A 0B 0C 0D 0E 0F
      -- -- -- -- -- -- -- --  -- -- -- -- -- -- -- --
01E0:                                      5B 08 80 F8              [...
01F0: FF FF 7F F8 FF FF 7F 68  69 30 34 53 F8 FF FF 7F  .......hi04S....
0200: F8 FF FF 7F 68 69 30 34  00                       ....hi04.       
```

#### Opcodes

```
  0: 0x01EC [0x5B] LOAD_EXT_SCHEDULER: Load scheduler "hi04" with entities [EventEntity, EventEntity], work=659*
  1: 0x01FB [0x53] WAIT_SCHEDULER_TASK: Wait for scheduler "hi04" with entities [EventEntity, EventEntity]
  2: 0x0208 [0x00] END_REQSTACK()
```

### Event 65535.22

#### Metadata

| Field        | Value    |
|--------------|----------|
| Entrypoint   | 0x0209   |
| Data Size    | 29 bytes |
| Instructions | 3        |

```
      00 01 02 03 04 05 06 07  08 09 0A 0B 0C 0D 0E 0F
      -- -- -- -- -- -- -- --  -- -- -- -- -- -- -- --
0200:                             5B 08 80 F8 FF FF 7F           [......
0210: F8 FF FF 7F 68 69 30 35  53 F8 FF FF 7F F8 FF FF  ....hi05S.......
0220: 7F 68 69 30 35 00                                 .hi05.          
```

#### Opcodes

```
  0: 0x0209 [0x5B] LOAD_EXT_SCHEDULER: Load scheduler "hi05" with entities [EventEntity, EventEntity], work=659*
  1: 0x0218 [0x53] WAIT_SCHEDULER_TASK: Wait for scheduler "hi05" with entities [EventEntity, EventEntity]
  2: 0x0225 [0x00] END_REQSTACK()
```

### Event 65535.23

#### Metadata

| Field        | Value    |
|--------------|----------|
| Entrypoint   | 0x0226   |
| Data Size    | 29 bytes |
| Instructions | 3        |

```
      00 01 02 03 04 05 06 07  08 09 0A 0B 0C 0D 0E 0F
      -- -- -- -- -- -- -- --  -- -- -- -- -- -- -- --
0220:                   5B 08  80 F8 FF FF 7F F8 FF FF        [.........
0230: 7F 68 69 30 36 53 F8 FF  FF 7F F8 FF FF 7F 68 69  .hi06S........hi
0240: 30 36 00                                          06.             
```

#### Opcodes

```
  0: 0x0226 [0x5B] LOAD_EXT_SCHEDULER: Load scheduler "hi06" with entities [EventEntity, EventEntity], work=659*
  1: 0x0235 [0x53] WAIT_SCHEDULER_TASK: Wait for scheduler "hi06" with entities [EventEntity, EventEntity]
  2: 0x0242 [0x00] END_REQSTACK()
```

### Event 65535.24

#### Metadata

| Field        | Value    |
|--------------|----------|
| Entrypoint   | 0x0243   |
| Data Size    | 16 bytes |
| Instructions | 2        |

```
      00 01 02 03 04 05 06 07  08 09 0A 0B 0C 0D 0E 0F
      -- -- -- -- -- -- -- --  -- -- -- -- -- -- -- --
0240:          5B 1A 80 F8 FF  FF 7F F8 FF FF 7F 79 6B     [..........yk
0250: 65 30 00                                          e0.             
```

#### Opcodes

```
  0: 0x0243 [0x5B] LOAD_EXT_SCHEDULER: Load scheduler "yke0" with entities [EventEntity, EventEntity], work=640*
  1: 0x0252 [0x00] END_REQSTACK()
```

### Event 65535.25

#### Metadata

| Field        | Value    |
|--------------|----------|
| Entrypoint   | 0x0253   |
| Data Size    | 16 bytes |
| Instructions | 2        |

```
      00 01 02 03 04 05 06 07  08 09 0A 0B 0C 0D 0E 0F
      -- -- -- -- -- -- -- --  -- -- -- -- -- -- -- --
0250:          5B 1A 80 F8 FF  FF 7F F8 FF FF 7F 6D 69     [..........mi
0260: 72 30 00                                          r0.             
```

#### Opcodes

```
  0: 0x0253 [0x5B] LOAD_EXT_SCHEDULER: Load scheduler "mir0" with entities [EventEntity, EventEntity], work=640*
  1: 0x0262 [0x00] END_REQSTACK()
```

### Event 0

#### Metadata

| Field        | Value    |
|--------------|----------|
| Entrypoint   | 0x0263   |
| Data Size    | 10 bytes |
| Instructions | 2        |

```
      00 01 02 03 04 05 06 07  08 09 0A 0B 0C 0D 0E 0F
      -- -- -- -- -- -- -- --  -- -- -- -- -- -- -- --
0260:          37 1B 80 1C 80  1D 80 1E 80 00              7.........   
```

#### Opcodes

```
  0: 0x0263 [0x37] UPDATE_EVENT_POSITION_AND_DIR: x=-779.972*, z=-89.540*, y=-103.347*, direction=275.0°*
  1: 0x026C [0x00] END_REQSTACK()
```

### Event 65535.26

#### Metadata

| Field        | Value    |
|--------------|----------|
| Entrypoint   | 0x026D   |
| Data Size    | 14 bytes |
| Instructions | 4        |

```
      00 01 02 03 04 05 06 07  08 09 0A 0B 0C 0D 0E 0F
      -- -- -- -- -- -- -- --  -- -- -- -- -- -- -- --
0260:                                         32 14 80               2..
0270: 1F 00 1F 80 20 80 1D 80  1F 01 00                 .... ......     
```

#### Opcodes

```
  0: 0x026D [0x32] ExtData[1]->MainSpeed = 40* * 0.1
  1: 0x0270 [0x1F] MOVE_ENTITY: EventEntity moves to X=-779.976*, Z=-84.917*, Y=-103.347*
  2: 0x0278 [0x1F] MOVE_ENTITY: Update entity position (mode=1)
  3: 0x027A [0x00] END_REQSTACK()
```

### Event 65535.27

#### Metadata

| Field        | Value    |
|--------------|----------|
| Entrypoint   | 0x027B   |
| Data Size    | 10 bytes |
| Instructions | 2        |

```
      00 01 02 03 04 05 06 07  08 09 0A 0B 0C 0D 0E 0F
      -- -- -- -- -- -- -- --  -- -- -- -- -- -- -- --
0270:                                   37 21 80 22 80             7!.".
0280: 02 80 23 80 00                                    ..#..           
```

#### Opcodes

```
  0: 0x027B [0x37] UPDATE_EVENT_POSITION_AND_DIR: x=-646.099*, z=523.503*, y=-231.148*, direction=51.2°*
  1: 0x0284 [0x00] END_REQSTACK()
```

### Event 65535.28

#### Metadata

| Field        | Value     |
|--------------|-----------|
| Entrypoint   | 0x0285    |
| Data Size    | 105 bytes |
| Instructions | 14        |

```
      00 01 02 03 04 05 06 07  08 09 0A 0B 0C 0D 0E 0F
      -- -- -- -- -- -- -- --  -- -- -- -- -- -- -- --
0280:                03 00 00  24 80 1A AA 02 32 25 80       ...$....2%.
0290: 1F 00 01 00 02 00 03 00  1F 01 5B 10 80 F8 FF FF  ..........[.....
02A0: 7F F8 FF FF 7F 74 6C 63  30 00 3B F8 FF FF 7F 01  .....tlc0.;.....
02B0: 00 02 00 03 00 3A F8 FF  FF 7F 04 00 17 05 00 04  .....:..........
02C0: 00 00 00 16 06 00 04 00  00 00 07 01 00 05 00 07  ................
02D0: 02 00 06 00 1B 17 05 00  04 00 00 00 16 06 00 04  ................
02E0: 00 00 00 07 01 00 05 00  07 02 00 06 00 1B        ..............  
```

#### Opcodes

```
  0: 0x0285 [0x03] ExtData[1]->WorkLocal[0] = 4000*
  1: 0x028A [0x1A] CALL_SUBROUTINE(address=0x02AA)
  2: 0x028D [0x32] ExtData[1]->MainSpeed = 13* * 0.1
  3: 0x0290 [0x1F] MOVE_ENTITY: EventEntity moves to X=ExtData[1]->WorkLocal[1], Z=ExtData[1]->WorkLocal[2], Y=ExtData[1]->WorkLocal[3]
  4: 0x0298 [0x1F] MOVE_ENTITY: Update entity position (mode=1)
  5: 0x029A [0x5B] LOAD_EXT_SCHEDULER: Load scheduler "tlc0" with entities [EventEntity, EventEntity], work=427*
  6: 0x02A9 [0x00] END_REQSTACK()

SUBROUTINE_02AA:
  7: 0x02AA [0x3B] GET_ENTITY_POSITION(entity=EventEntity, x_destination=ExtData[1]->WorkLocal[1], y_destination=ExtData[1]->WorkLocal[2], z_destination=ExtData[1]->WorkLocal[3])
  8: 0x02B5 [0x3A] CONVERT_YAW_TO_BYTE(entity=EventEntity, result_destination=ExtData[1]->WorkLocal[4])
  9: 0x02BC [0x17] ExtData[1]->WorkLocal[5] = cos(ExtData[1]->WorkLocal[4]) * ExtData[1]->WorkLocal[0]
 10: 0x02C3 [0x16] ExtData[1]->WorkLocal[6] = sin(ExtData[1]->WorkLocal[4]) * ExtData[1]->WorkLocal[0]
 11: 0x02CA [0x07] ExtData[1]->WorkLocal[1] += ExtData[1]->WorkLocal[5]
 12: 0x02CF [0x07] ExtData[1]->WorkLocal[2] += ExtData[1]->WorkLocal[6]
 13: 0x02D4 [0x1B] RETURN
```

#### Data or dead code:

```
# Dead code (unreachable instructions):
     0x02D5 [0x17] ExtData[1]->WorkLocal[5] = cos(ExtData[1]->WorkLocal[4]) * ExtData[1]->WorkLocal[0]
     0x02DC [0x16] ExtData[1]->WorkLocal[6] = sin(ExtData[1]->WorkLocal[4]) * ExtData[1]->WorkLocal[0]
     0x02E3 [0x07] ExtData[1]->WorkLocal[1] += ExtData[1]->WorkLocal[5]
     0x02E8 [0x07] ExtData[1]->WorkLocal[2] += ExtData[1]->WorkLocal[6]
     0x02ED [0x1B] RETURN
```

### Event 2

#### Metadata

| Field        | Value    |
|--------------|----------|
| Entrypoint   | 0x02EE   |
| Data Size    | 10 bytes |
| Instructions | 2        |

```
      00 01 02 03 04 05 06 07  08 09 0A 0B 0C 0D 0E 0F
      -- -- -- -- -- -- -- --  -- -- -- -- -- -- -- --
02E0:                                            37 26                7&
02F0: 80 27 80 1D 80 28 80 00                           .'...(..        
```

#### Opcodes

```
  0: 0x02EE [0x37] UPDATE_EVENT_POSITION_AND_DIR: x=-781.580*, z=-84.554*, y=-103.347*, direction=287.5°*
  1: 0x02F7 [0x00] END_REQSTACK()
```

### Event 31

#### Metadata

| Field        | Value   |
|--------------|---------|
| Entrypoint   | 0x02F8  |
| Data Size    | 7 bytes |
| Instructions | 2       |

```
      00 01 02 03 04 05 06 07  08 09 0A 0B 0C 0D 0E 0F
      -- -- -- -- -- -- -- --  -- -- -- -- -- -- -- --
02F0:                          94 01 F8 FF FF 7F 00             ....... 
```

#### Opcodes

```
  0: 0x02F8 [0x94] EventEntity->Render.Flags3 ^= 0x01
  1: 0x02FE [0x00] END_REQSTACK()
```

### Event 32

#### Metadata

| Field        | Value   |
|--------------|---------|
| Entrypoint   | 0x02FF  |
| Data Size    | 7 bytes |
| Instructions | 2       |

```
      00 01 02 03 04 05 06 07  08 09 0A 0B 0C 0D 0E 0F
      -- -- -- -- -- -- -- --  -- -- -- -- -- -- -- --
02F0:                                               94                 .
0300: 01 F8 FF FF 7F 00                                 ......          
```

#### Opcodes

```
  0: 0x02FF [0x94] EventEntity->Render.Flags3 ^= 0x01
  1: 0x0305 [0x00] END_REQSTACK()
```

### Event 65535.29

#### Metadata

| Field        | Value    |
|--------------|----------|
| Entrypoint   | 0x0306   |
| Data Size    | 10 bytes |
| Instructions | 2        |

```
      00 01 02 03 04 05 06 07  08 09 0A 0B 0C 0D 0E 0F
      -- -- -- -- -- -- -- --  -- -- -- -- -- -- -- --
0300:                   37 29  80 2A 80 2B 80 2C 80 00        7).*.+.,..
```

#### Opcodes

```
  0: 0x0306 [0x37] UPDATE_EVENT_POSITION_AND_DIR: x=-638.359*, z=-635.138*, y=197.527*, direction=145.8°*
  1: 0x030F [0x00] END_REQSTACK()
```

### Event 65535.30

#### Metadata

| Field        | Value    |
|--------------|----------|
| Entrypoint   | 0x0310   |
| Data Size    | 10 bytes |
| Instructions | 2        |

```
      00 01 02 03 04 05 06 07  08 09 0A 0B 0C 0D 0E 0F
      -- -- -- -- -- -- -- --  -- -- -- -- -- -- -- --
0310: 37 2D 80 2E 80 2F 80 30  80 00                    7-.../.0..      
```

#### Opcodes

```
  0: 0x0310 [0x37] UPDATE_EVENT_POSITION_AND_DIR: x=-774.343*, z=-68.194*, y=-103.148*, direction=281.2°*
  1: 0x0319 [0x00] END_REQSTACK()
```

### Event 65535.31

#### Metadata

| Field        | Value    |
|--------------|----------|
| Entrypoint   | 0x031A   |
| Data Size    | 10 bytes |
| Instructions | 2        |

```
      00 01 02 03 04 05 06 07  08 09 0A 0B 0C 0D 0E 0F
      -- -- -- -- -- -- -- --  -- -- -- -- -- -- -- --
0310:                                37 31 80 32 80 06            71.2..
0320: 80 33 80 00                                       .3..            
```

#### Opcodes

```
  0: 0x031A [0x37] UPDATE_EVENT_POSITION_AND_DIR: x=-639.999*, z=520.009*, y=-231.347*, direction=90.0°*
  1: 0x0323 [0x00] END_REQSTACK()
```

### Event 65535.32

#### Metadata

| Field        | Value    |
|--------------|----------|
| Entrypoint   | 0x0324   |
| Data Size    | 14 bytes |
| Instructions | 4        |

```
      00 01 02 03 04 05 06 07  08 09 0A 0B 0C 0D 0E 0F
      -- -- -- -- -- -- -- --  -- -- -- -- -- -- -- --
0320:             32 25 80 1F  00 34 80 35 80 06 80 1F      2%...4.5....
0330: 01 00                                             ..              
```

#### Opcodes

```
  0: 0x0324 [0x32] ExtData[1]->MainSpeed = 13* * 0.1
  1: 0x0327 [0x1F] MOVE_ENTITY: EventEntity moves to X=-640.005*, Z=517.880*, Y=-231.347*
  2: 0x032F [0x1F] MOVE_ENTITY: Update entity position (mode=1)
  3: 0x0331 [0x00] END_REQSTACK()
```

### Event 65535.33

#### Metadata

| Field        | Value    |
|--------------|----------|
| Entrypoint   | 0x0332   |
| Data Size    | 37 bytes |
| Instructions | 7        |

```
      00 01 02 03 04 05 06 07  08 09 0A 0B 0C 0D 0E 0F
      -- -- -- -- -- -- -- --  -- -- -- -- -- -- -- --
0330:       5E 69 64 6C 30 37  36 80 37 80 1D 80 38 80    ^idl076.7...8.
0340: 1E 8D 00 02 01 6F 70 5B  10 80 F8 FF FF 7F F8 FF  .....op[........
0350: FF 7F 74 6C 63 30 00                              ..tlc0.         
```

#### Opcodes

```
  0: 0x0332 [0x5E] EventEntity goes idle (kills current action) (animation: "idl0")
  1: 0x0337 [0x37] UPDATE_EVENT_POSITION_AND_DIR: x=-776.745*, z=-69.367*, y=-103.347*, direction=293.3°*
  2: 0x0340 [0x1E] EventEntity looks at Prishe (ID: 16908429/0x0102008D) and starts talking
  3: 0x0345 [0x6F] WAIT_FRAME_DELAY: Yield until WaitTime reaches zero
  4: 0x0346 [0x70] WAIT_ENTITY_RENDER_FLAG: Wait while EventEntity->Render.Flags3 bit 2 is set (cancel turn if not)
  5: 0x0347 [0x5B] LOAD_EXT_SCHEDULER: Load scheduler "tlc0" with entities [EventEntity, EventEntity], work=427*
  6: 0x0356 [0x00] END_REQSTACK()
```

### Event 65535.34

#### Metadata

| Field        | Value    |
|--------------|----------|
| Entrypoint   | 0x0357   |
| Data Size    | 16 bytes |
| Instructions | 5        |

```
      00 01 02 03 04 05 06 07  08 09 0A 0B 0C 0D 0E 0F
      -- -- -- -- -- -- -- --  -- -- -- -- -- -- -- --
0350:                      32  14 80 1F 00 39 80 3A 80         2....9.:.
0360: 1D 80 1F 01 22 01 00                              ...."..         
```

#### Opcodes

```
  0: 0x0357 [0x32] ExtData[1]->MainSpeed = 40* * 0.1
  1: 0x035A [0x1F] MOVE_ENTITY: EventEntity moves to X=-780.322*, Z=-88.788*, Y=-103.347*
  2: 0x0362 [0x1F] MOVE_ENTITY: Update entity position (mode=1)
  3: 0x0364 [0x22] ENTITY_HIDE_FLAG(enabled=0x01)
  4: 0x0366 [0x00] END_REQSTACK()
```

### Event 13

#### Metadata

| Field        | Value    |
|--------------|----------|
| Entrypoint   | 0x0367   |
| Data Size    | 10 bytes |
| Instructions | 2        |

```
      00 01 02 03 04 05 06 07  08 09 0A 0B 0C 0D 0E 0F
      -- -- -- -- -- -- -- --  -- -- -- -- -- -- -- --
0360:                      37  3B 80 3C 80 3D 80 3E 80         7;.<.=.>.
0370: 00                                                .               
```

#### Opcodes

```
  0: 0x0367 [0x37] UPDATE_EVENT_POSITION_AND_DIR: x=613.525*, z=779.663*, y=132.611*, direction=89.7°*
  1: 0x0370 [0x00] END_REQSTACK()
```

### Event 65535.35

#### Metadata

| Field        | Value    |
|--------------|----------|
| Entrypoint   | 0x0371   |
| Data Size    | 15 bytes |
| Instructions | 5        |

```
      00 01 02 03 04 05 06 07  08 09 0A 0B 0C 0D 0E 0F
      -- -- -- -- -- -- -- --  -- -- -- -- -- -- -- --
0370:    32 25 80 1F 00 3F 80  40 80 41 80 1F 01 6F 00   2%...?.@.A...o.
```

#### Opcodes

```
  0: 0x0371 [0x32] ExtData[1]->MainSpeed = 13* * 0.1
  1: 0x0374 [0x1F] MOVE_ENTITY: EventEntity moves to X=613.529*, Z=776.392*, Y=132.672*
  2: 0x037C [0x1F] MOVE_ENTITY: Update entity position (mode=1)
  3: 0x037E [0x6F] WAIT_FRAME_DELAY: Yield until WaitTime reaches zero
  4: 0x037F [0x00] END_REQSTACK()
```

### Event 65535.36

#### Metadata

| Field        | Value    |
|--------------|----------|
| Entrypoint   | 0x0380   |
| Data Size    | 10 bytes |
| Instructions | 2        |

```
      00 01 02 03 04 05 06 07  08 09 0A 0B 0C 0D 0E 0F
      -- -- -- -- -- -- -- --  -- -- -- -- -- -- -- --
0380: 37 42 80 43 80 44 80 45  80 00                    7B.C.D.E..      
```

#### Opcodes

```
  0: 0x0380 [0x37] UPDATE_EVENT_POSITION_AND_DIR: x=602.534*, z=756.608*, y=133.956*, direction=314.2°*
  1: 0x0389 [0x00] END_REQSTACK()
```

### Event 65535.37

#### Metadata

| Field        | Value    |
|--------------|----------|
| Entrypoint   | 0x038A   |
| Data Size    | 34 bytes |
| Instructions | 8        |

```
      00 01 02 03 04 05 06 07  08 09 0A 0B 0C 0D 0E 0F
      -- -- -- -- -- -- -- --  -- -- -- -- -- -- -- --
0380:                                32 25 80 1F 00 46            2%...F
0390: 80 47 80 48 80 1F 01 1F  00 49 80 4A 80 4B 80 1F  .G.H.....I.J.K..
03A0: 01 1F 00 4C 80 4D 80 4E  80 1F 01 00              ...L.M.N....    
```

#### Opcodes

```
  0: 0x038A [0x32] ExtData[1]->MainSpeed = 13* * 0.1
  1: 0x038D [0x1F] MOVE_ENTITY: EventEntity moves to X=605.196*, Z=744.808*, Y=134.734*
  2: 0x0395 [0x1F] MOVE_ENTITY: Update entity position (mode=1)
  3: 0x0397 [0x1F] MOVE_ENTITY: EventEntity moves to X=606.053*, Z=742.663*, Y=134.896*
  4: 0x039F [0x1F] MOVE_ENTITY: Update entity position (mode=1)
  5: 0x03A1 [0x1F] MOVE_ENTITY: EventEntity moves to X=610.655*, Z=739.652*, Y=135.386*
  6: 0x03A9 [0x1F] MOVE_ENTITY: Update entity position (mode=1)
  7: 0x03AB [0x00] END_REQSTACK()
```

### Event 65535.38

#### Metadata

| Field        | Value    |
|--------------|----------|
| Entrypoint   | 0x03AC   |
| Data Size    | 30 bytes |
| Instructions | 7        |

```
      00 01 02 03 04 05 06 07  08 09 0A 0B 0C 0D 0E 0F
      -- -- -- -- -- -- -- --  -- -- -- -- -- -- -- --
03A0:                                      32 25 80 1F              2%..
03B0: 00 4F 80 50 80 51 80 1F  01 6F 1E A8 00 02 01 79  .O.P.Q...o.....y
03C0: 00 90 00 02 01 8D 00 02  01 00                    ..........      
```

#### Opcodes

```
  0: 0x03AC [0x32] ExtData[1]->MainSpeed = 13* * 0.1
  1: 0x03AF [0x1F] MOVE_ENTITY: EventEntity moves to X=613.505*, Z=772.646*, Y=132.820*
  2: 0x03B7 [0x1F] MOVE_ENTITY: Update entity position (mode=1)
  3: 0x03B9 [0x6F] WAIT_FRAME_DELAY: Yield until WaitTime reaches zero
  4: 0x03BA [0x1E] EventEntity looks at Tressia (ID: 16908456/0x010200A8) and starts talking
  5: 0x03BF [0x79] Tenzen (ID: 16908432/0x01020090) looks at Prishe (ID: 16908429/0x0102008D) (Basic look)
  6: 0x03C9 [0x00] END_REQSTACK()
```

### Event 15

#### Metadata

| Field        | Value    |
|--------------|----------|
| Entrypoint   | 0x03CA   |
| Data Size    | 10 bytes |
| Instructions | 2        |

```
      00 01 02 03 04 05 06 07  08 09 0A 0B 0C 0D 0E 0F
      -- -- -- -- -- -- -- --  -- -- -- -- -- -- -- --
03C0:                                37 52 80 53 80 54            7R.S.T
03D0: 80 55 80 00                                       .U..            
```

#### Opcodes

```
  0: 0x03CA [0x37] UPDATE_EVENT_POSITION_AND_DIR: x=611.699*, z=776.490*, y=132.670*, direction=54.6°*
  1: 0x03D3 [0x00] END_REQSTACK()
```

### Event 65535.39

#### Metadata

| Field        | Value    |
|--------------|----------|
| Entrypoint   | 0x03D4   |
| Data Size    | 15 bytes |
| Instructions | 5        |

```
      00 01 02 03 04 05 06 07  08 09 0A 0B 0C 0D 0E 0F
      -- -- -- -- -- -- -- --  -- -- -- -- -- -- -- --
03D0:             32 25 80 1F  00 56 80 57 80 58 80 1F      2%...V.W.X..
03E0: 01 6F 00                                          .o.             
```

#### Opcodes

```
  0: 0x03D4 [0x32] ExtData[1]->MainSpeed = 13* * 0.1
  1: 0x03D7 [0x1F] MOVE_ENTITY: EventEntity moves to X=611.351*, Z=775.083*, Y=132.717*
  2: 0x03DF [0x1F] MOVE_ENTITY: Update entity position (mode=1)
  3: 0x03E1 [0x6F] WAIT_FRAME_DELAY: Yield until WaitTime reaches zero
  4: 0x03E2 [0x00] END_REQSTACK()
```

### Event 65535.40

#### Metadata

| Field        | Value    |
|--------------|----------|
| Entrypoint   | 0x03E3   |
| Data Size    | 24 bytes |
| Instructions | 6        |

```
      00 01 02 03 04 05 06 07  08 09 0A 0B 0C 0D 0E 0F
      -- -- -- -- -- -- -- --  -- -- -- -- -- -- -- --
03E0:          32 25 80 1F 00  59 80 5A 80 5B 80 1F 01     2%...Y.Z.[...
03F0: 1F 00 5C 80 5D 80 5E 80  1F 01 00                 ..\.].^....     
```

#### Opcodes

```
  0: 0x03E3 [0x32] ExtData[1]->MainSpeed = 13* * 0.1
  1: 0x03E6 [0x1F] MOVE_ENTITY: EventEntity moves to X=612.205*, Z=768.288*, Y=132.677*
  2: 0x03EE [0x1F] MOVE_ENTITY: Update entity position (mode=1)
  3: 0x03F0 [0x1F] MOVE_ENTITY: EventEntity moves to X=605.740*, Z=759.981*, Y=134.289*
  4: 0x03F8 [0x1F] MOVE_ENTITY: Update entity position (mode=1)
  5: 0x03FA [0x00] END_REQSTACK()
```
