# 0x7FFFFFF0 - Zone Events

## Common Data

| Field            | Value                  |
|------------------|------------------------|
| Zone             | Sealion's Den (ID: 32) |
| Block Size       | 19848 bytes            |
| Total Events     | 33                     |
| References Count | 416                    |

## List of Events

| Event ID                   | Entrypoint   |   Size |   Instructions |
|----------------------------|--------------|--------|----------------|
| [65535](#event-65535)      | 0x0000       |      1 |              1 |
| [65534](#event-65534)      | 0x0001       |      1 |              1 |
| [32000](#event-32000)      | 0x0002       |   2266 |            427 |
| [32002](#event-32002)      | 0x08DC       |    494 |             83 |
| [32001](#event-32001)      | 0x0ACA       |   1033 |            179 |
| [32003](#event-32003)      | 0x0ED3       |    435 |             77 |
| [32004](#event-32004)      | 0x1086       |   1047 |            165 |
| [32005](#event-32005)      | 0x149D       |   2251 |            344 |
| [10](#event-10)            | 0x1D68       |      5 |              3 |
| [11](#event-11)            | 0x1D6D       |    500 |             62 |
| [65535.1](#event-655351)   | 0x1F61       |      6 |              2 |
| [65535.2](#event-655352)   | 0x1F67       |      6 |              2 |
| [65535.3](#event-655353)   | 0x1F6D       |      6 |              2 |
| [65535.4](#event-655354)   | 0x1F73       |      6 |              2 |
| [65535.5](#event-655355)   | 0x1F79       |     28 |              7 |
| [0](#event-0)              | 0x1F95       |   1403 |            157 |
| [1](#event-1)              | 0x2510       |    974 |            109 |
| [2](#event-2)              | 0x28DE       |   2290 |            261 |
| [13](#event-13)            | 0x31D0       |   2216 |            273 |
| [65535.6](#event-655356)   | 0x3A78       |     10 |              2 |
| [65535.7](#event-655357)   | 0x3A82       |     24 |              6 |
| [65535.8](#event-655358)   | 0x3A9A       |     10 |              2 |
| [65535.9](#event-655359)   | 0x3AA4       |     10 |              2 |
| [15](#event-15)            | 0x3AAE       |   1992 |            250 |
| [7](#event-7)              | 0x4276       |     40 |              7 |
| [16](#event-16)            | 0x429E       |    122 |             24 |
| [17](#event-17)            | 0x4318       |    785 |            103 |
| [65535.10](#event-6553510) | 0x4629       |     23 |              5 |
| [65535.11](#event-6553511) | 0x4640       |     12 |              3 |
| [65535.12](#event-6553512) | 0x464C       |     12 |              3 |
| [65535.13](#event-6553513) | 0x4658       |     10 |              2 |
| [65535.14](#event-6553514) | 0x4662       |     10 |              2 |
| [65535.15](#event-6553515) | 0x466C       |      6 |              2 |

## DAT References (imed_data)

|   Index | Hex Value   |   Dec Value |
|---------|-------------|-------------|
|       0 | 0x0000      |           0 |
|       1 | 0x000F      |          15 |
|       2 | 0x0010      |          16 |
|       3 | 0x001F      |          31 |
|       4 | 0xFFFFFFFF  |  4294967295 |
|       5 | 0x0001      |           1 |
|       6 | 0x1DB5      |        7605 |
|       7 | 0x1D09      |        7433 |
|       8 | 0x0005      |           5 |
|       9 | 0x0002      |           2 |
|      10 | 0x0003      |           3 |
|      11 | 0x0004      |           4 |
|      12 | 0x1B9C      |        7068 |
|      13 | 0x00FF      |         255 |
|      14 | 0x00C8      |         200 |
|      15 | 0x0013      |          19 |
|      16 | 0x0008      |           8 |
|      17 | 0x0009      |           9 |
|      18 | 0x000B      |          11 |
|      19 | 0x1BA7      |        7079 |
|      20 | 0x1BA8      |        7080 |
|      21 | 0x1BA9      |        7081 |
|      22 | 0x1BAA      |        7082 |
|      23 | 0x1BCE      |        7118 |
|      24 | 0x0006      |           6 |
|      25 | 0x0007      |           7 |
|      26 | 0x000A      |          10 |
|      27 | 0x000C      |          12 |
|      28 | 0x000D      |          13 |
|      29 | 0x000E      |          14 |
|      30 | 0x0011      |          17 |
|      31 | 0x0012      |          18 |
|      32 | 0x0014      |          20 |
|      33 | 0x0015      |          21 |
|      34 | 0x0016      |          22 |
|      35 | 0x0017      |          23 |
|      36 | 0x0018      |          24 |
|      37 | 0x0019      |          25 |
|      38 | 0x001A      |          26 |
|      39 | 0x001B      |          27 |
|      40 | 0x001C      |          28 |
|      41 | 0x001D      |          29 |
|      42 | 0x001E      |          30 |
|      43 | 0x1D03      |        7427 |
|      44 | 0x1D08      |        7432 |
|      45 | 0x1D07      |        7431 |
|      46 | 0x003C      |          60 |
|      47 | 0x1DB3      |        7603 |
|      48 | 0x1DB2      |        7602 |
|      49 | 0x0064      |         100 |
|      50 | 0x1CEF      |        7407 |
|      51 | 0x00DC      |         220 |
|      52 | 0x1B9F      |        7071 |
|      53 | 0x00C9      |         201 |
|      54 | 0x00F5      |         245 |
|      55 | 0x00B4      |         180 |
|      56 | 0xFFF6C42B  |  4294362155 |
|      57 | 0x752B9     |      479929 |
|      58 | 0xFFFFA767  |  4294944615 |
|      59 | 0x03E0      |         992 |
|      60 | 0xFFFBFE43  |  4294704707 |
|      61 | 0x5C401     |      377857 |
|      62 | 0xFFFDE79F  |  4294829983 |
|      63 | 0x0D92      |        3474 |
|      64 | 0x47AC      |       18348 |
|      65 | 0x76E1C     |      486940 |
|      66 | 0xFFFC93B2  |  4294742962 |
|      67 | 0x00C2      |         194 |
|      68 | 0x388A9     |      231593 |
|      69 | 0x57E9E     |      360094 |
|      70 | 0xFFFD59FC  |  4294793724 |
|      71 | 0x0726      |        1830 |
|      72 | 0x872C0     |      553664 |
|      73 | 0x7FEA3     |      523939 |
|      74 | 0xFFFF6AC3  |  4294929091 |
|      75 | 0x0A65      |        2661 |
|      76 | 0x956D9     |      612057 |
|      77 | 0xBDAD8     |      776920 |
|      78 | 0x20636     |      132662 |
|      79 | 0x0BC5      |        3013 |
|      80 | 0xFFF2A593  |  4294092179 |
|      81 | 0xFFFF548C  |  4294923404 |
|      82 | 0xFFFF442C  |  4294919212 |
|      83 | 0x0201      |         513 |
|      84 | 0xFFF478D5  |  4294211797 |
|      85 | 0x89AEB     |      563947 |
|      86 | 0xFFFE4A5D  |  4294855261 |
|      87 | 0x0DEF      |        3567 |
|      88 | 0x1E173     |      123251 |
|      89 | 0xB8221     |      754209 |
|      90 | 0xFFFD5FA4  |  4294795172 |
|      91 | 0x01B8      |         440 |
|      92 | 0xFFF81ECC  |  4294450892 |
|      93 | 0xFFF3BE05  |  4294163973 |
|      94 | 0x5E8E      |       24206 |
|      95 | 0x01B5      |         437 |
|      96 | 0x012C      |         300 |
|      97 | 0x0080      |         128 |
|      98 | 0xFFF690A7  |  4294348967 |
|      99 | 0xFFF62CE4  |  4294323428 |
|     100 | 0xFFFF9B33  |  4294941491 |
|     101 | 0x0EB1      |        3761 |
|     102 | 0xFFFAEE7D  |  4294635133 |
|     103 | 0xFFF941C6  |  4294525382 |
|     104 | 0xFFFE8CB1  |  4294872241 |
|     105 | 0x0EB0      |        3760 |
|     106 | 0xFFFFCF50  |  4294954832 |
|     107 | 0xFFF61B47  |  4294318919 |
|     108 | 0xFFFD07BB  |  4294772667 |
|     109 | 0x0EBA      |        3770 |
|     110 | 0x4EF35     |      323381 |
|     111 | 0xFFF93A6F  |  4294523503 |
|     112 | 0xFFFE5868  |  4294858856 |
|     113 | 0x0EA0      |        3744 |
|     114 | 0x92763     |      599907 |
|     115 | 0xFFF5AB97  |  4294290327 |
|     116 | 0xFFFFA837  |  4294944823 |
|     117 | 0x0EB3      |        3763 |
|     118 | 0x00A8      |         168 |
|     119 | 0x30D7B     |      200059 |
|     120 | 0xFFFFAA3A  |  4294945338 |
|     121 | 0xFFFFFF06  |  4294967046 |
|     122 | 0x0411      |        1041 |
|     123 | 0x00CA      |         202 |
|     124 | 0x837EC     |      538604 |
|     125 | 0x7A88C     |      501900 |
|     126 | 0xFFFFC98A  |  4294953354 |
|     127 | 0x0CBC      |        3260 |
|     128 | 0x00CB      |         203 |
|     129 | 0x870F5     |      553205 |
|     130 | 0x8FF41     |      589633 |
|     131 | 0xFFFFFFEB  |  4294967275 |
|     132 | 0x0587      |        1415 |
|     133 | 0x00D3      |         211 |
|     134 | 0x8AF88     |      569224 |
|     135 | 0x85E6E     |      548462 |
|     136 | 0x8FE5      |       36837 |
|     137 | 0x02A1      |         673 |
|     138 | 0x0024      |          36 |
|     139 | 0x1CF1      |        7409 |
|     140 | 0x1CF0      |        7408 |
|     141 | 0x1DB1      |        7601 |
|     142 | 0x1CF3      |        7411 |
|     143 | 0x1CF2      |        7410 |
|     144 | 0xFFF63BEF  |  4294327279 |
|     145 | 0x8155F     |      529759 |
|     146 | 0xFFFC784D  |  4294735949 |
|     147 | 0x03FE      |        1022 |
|     148 | 0x0071      |         113 |
|     149 | 0x0073      |         115 |
|     150 | 0x0048      |          72 |
|     151 | 0x0096      |         150 |
|     152 | 0x03E8      |        1000 |
|     153 | 0xFFFFFC18  |  4294966296 |
|     154 | 0x009D      |         157 |
|     155 | 0xFFF63BE3  |  4294327267 |
|     156 | 0x7D2A8     |      512680 |
|     157 | 0x0BFB      |        3067 |
|     158 | 0x258F0     |      153840 |
|     159 | 0xFFFDB0CD  |  4294815949 |
|     160 | 0x0BF3      |        3059 |
|     161 | 0x9C415     |      640021 |
|     162 | 0xFFFCDE3B  |  4294762043 |
|     163 | 0xFFFEE94D  |  4294895949 |
|     164 | 0x0BFE      |        3070 |
|     165 | 0xFFF41916  |  4294187286 |
|     166 | 0xFFFEAEC9  |  4294880969 |
|     167 | 0xFFFE6C4D  |  4294863949 |
|     168 | 0x0C00      |        3072 |
|     169 | 0xFFFDDD03  |  4294827267 |
|     170 | 0xFFF93058  |  4294520920 |
|     171 | 0xFFFFA4CD  |  4294943949 |
|     172 | 0x7A0EB     |      499947 |
|     173 | 0xFFF3B264  |  4294160996 |
|     174 | 0xDD4C      |       56652 |
|     175 | 0x006C      |         108 |
|     176 | 0x1EED      |        7917 |
|     177 | 0x1DB7      |        7607 |
|     178 | 0x0065      |         101 |
|     179 | 0x0066      |         102 |
|     180 | 0x1DB6      |        7606 |
|     181 | 0xFFF419F7  |  4294187511 |
|     182 | 0xFFFEAC4E  |  4294880334 |
|     183 | 0x040E      |        1038 |
|     184 | 0x004C      |          76 |
|     185 | 0x1E23      |        7715 |
|     186 | 0x1E24      |        7716 |
|     187 | 0x1E25      |        7717 |
|     188 | 0x01F1      |         497 |
|     189 | 0x0078      |         120 |
|     190 | 0x0074      |         116 |
|     191 | 0x0077      |         119 |
|     192 | 0x007B      |         123 |
|     193 | 0x0087      |         135 |
|     194 | 0x806B0     |      526000 |
|     195 | 0x0400      |        1024 |
|     196 | 0x28870     |      166000 |
|     197 | 0xFFFD0A30  |  4294773296 |
|     198 | 0xFFF41E8C  |  4294188684 |
|     199 | 0xFFFEBA96  |  4294883990 |
|     200 | 0x1E26      |        7718 |
|     201 | 0x1E27      |        7719 |
|     202 | 0x1E28      |        7720 |
|     203 | 0x1E29      |        7721 |
|     204 | 0xFFF63AF6  |  4294327030 |
|     205 | 0x80EC3     |      528067 |
|     206 | 0x019E      |         414 |
|     207 | 0x005A      |          90 |
|     208 | 0x1E2A      |        7722 |
|     209 | 0x1E2B      |        7723 |
|     210 | 0x0050      |          80 |
|     211 | 0x1E2C      |        7724 |
|     212 | 0x1E2D      |        7725 |
|     213 | 0x1E2E      |        7726 |
|     214 | 0x1E2F      |        7727 |
|     215 | 0x1E30      |        7728 |
|     216 | 0x1E31      |        7729 |
|     217 | 0x1E32      |        7730 |
|     218 | 0x00E7      |         231 |
|     219 | 0xFFF424D7  |  4294190295 |
|     220 | 0xFFFEC93D  |  4294887741 |
|     221 | 0x1E33      |        7731 |
|     222 | 0x1E34      |        7732 |
|     223 | 0x1E35      |        7733 |
|     224 | 0x0056      |          86 |
|     225 | 0x1E36      |        7734 |
|     226 | 0x1E37      |        7735 |
|     227 | 0x1E38      |        7736 |
|     228 | 0x1E39      |        7737 |
|     229 | 0x1E3A      |        7738 |
|     230 | 0x099C      |        2460 |
|     231 | 0xFFF5B0C1  |  4294291649 |
|     232 | 0x7CB40     |      510784 |
|     233 | 0xFFFC79A8  |  4294736296 |
|     234 | 0x0F0E      |        3854 |
|     235 | 0x1E3C      |        7740 |
|     236 | 0x1E3D      |        7741 |
|     237 | 0x0028      |          40 |
|     238 | 0x0032      |          50 |
|     239 | 0x1E3E      |        7742 |
|     240 | 0x1E3F      |        7743 |
|     241 | 0xFFFFFFF1  |  4294967281 |
|     242 | 0x29777     |      169847 |
|     243 | 0x03FF      |        1023 |
|     244 | 0x9C453     |      640083 |
|     245 | 0xFFFD17CA  |  4294776778 |
|     246 | 0x0401      |        1025 |
|     247 | 0x960C9     |      614601 |
|     248 | 0xBD199     |      774553 |
|     249 | 0x20683     |      132739 |
|     250 | 0x029B      |         667 |
|     251 | 0x006F      |         111 |
|     252 | 0x00F0      |         240 |
|     253 | 0x1DBD      |        7613 |
|     254 | 0x0281      |         641 |
|     255 | 0x1DBE      |        7614 |
|     256 | 0x1DBF      |        7615 |
|     257 | 0x01A9      |         425 |
|     258 | 0x1DC0      |        7616 |
|     259 | 0x1DC1      |        7617 |
|     260 | 0x1DC2      |        7618 |
|     261 | 0x1DC3      |        7619 |
|     262 | 0x1DC4      |        7620 |
|     263 | 0x1DC5      |        7621 |
|     264 | 0x1DC6      |        7622 |
|     265 | 0x01DF      |         479 |
|     266 | 0x1DC7      |        7623 |
|     267 | 0x1DC8      |        7624 |
|     268 | 0x01DB      |         475 |
|     269 | 0x1DC9      |        7625 |
|     270 | 0x01AB      |         427 |
|     271 | 0x1DCA      |        7626 |
|     272 | 0x96003     |      614403 |
|     273 | 0xBCC42     |      773186 |
|     274 | 0x206BD     |      132797 |
|     275 | 0x0A9E      |        2718 |
|     276 | 0x0271      |         625 |
|     277 | 0x1DCB      |        7627 |
|     278 | 0x1DCD      |        7629 |
|     279 | 0x1DCE      |        7630 |
|     280 | 0x01A4      |         420 |
|     281 | 0x1DCF      |        7631 |
|     282 | 0x1DD0      |        7632 |
|     283 | 0x1DD1      |        7633 |
|     284 | 0x01E3      |         483 |
|     285 | 0x1DD2      |        7634 |
|     286 | 0x00EB      |         235 |
|     287 | 0x1DD3      |        7635 |
|     288 | 0x01A6      |         422 |
|     289 | 0x1DD4      |        7636 |
|     290 | 0x1DD5      |        7637 |
|     291 | 0x1DD6      |        7638 |
|     292 | 0x1DD7      |        7639 |
|     293 | 0x0273      |         627 |
|     294 | 0x1DD8      |        7640 |
|     295 | 0x936E0     |      603872 |
|     296 | 0xB8E22     |      757282 |
|     297 | 0x20B92     |      134034 |
|     298 | 0x0651      |        1617 |
|     299 | 0x1DD9      |        7641 |
|     300 | 0x002D      |          45 |
|     301 | 0x92A43     |      600643 |
|     302 | 0xB6C07     |      748551 |
|     303 | 0x20C58     |      134232 |
|     304 | 0x039C      |         924 |
|     305 | 0x0348      |         840 |
|     306 | 0x933F9     |      603129 |
|     307 | 0xC15AD     |      791981 |
|     308 | 0x206CC     |      132812 |
|     309 | 0x022F      |         559 |
|     310 | 0x94E56     |      609878 |
|     311 | 0xBFF0A     |      786186 |
|     312 | 0x204AF     |      132271 |
|     313 | 0x95831     |      612401 |
|     314 | 0xBF165     |      782693 |
|     315 | 0x20595     |      132501 |
|     316 | 0x04A1      |        1185 |
|     317 | 0x95A25     |      612901 |
|     318 | 0xBEF6E     |      782190 |
|     319 | 0x205A8     |      132520 |
|     320 | 0x044F      |        1103 |
|     321 | 0x007A      |         122 |
|     322 | 0x95A88     |      613000 |
|     323 | 0xBE9AA     |      780714 |
|     324 | 0x205E1     |      132577 |
|     325 | 0x03E7      |         999 |
|     326 | 0xBDB81     |      777089 |
|     327 | 0x2060C     |      132620 |
|     328 | 0x1DE5      |        7653 |
|     329 | 0x006E      |         110 |
|     330 | 0x1DE6      |        7654 |
|     331 | 0x1DE7      |        7655 |
|     332 | 0x1DE8      |        7656 |
|     333 | 0x1DE9      |        7657 |
|     334 | 0x1DEA      |        7658 |
|     335 | 0x1DEB      |        7659 |
|     336 | 0x1DEC      |        7660 |
|     337 | 0x1DED      |        7661 |
|     338 | 0x1DEE      |        7662 |
|     339 | 0x1DEF      |        7663 |
|     340 | 0x1DF0      |        7664 |
|     341 | 0x1DF1      |        7665 |
|     342 | 0x1DF2      |        7666 |
|     343 | 0x1DF3      |        7667 |
|     344 | 0x0045      |          69 |
|     345 | 0x1DF4      |        7668 |
|     346 | 0x1DF5      |        7669 |
|     347 | 0x1DF6      |        7670 |
|     348 | 0x1DF7      |        7671 |
|     349 | 0x1DF8      |        7672 |
|     350 | 0x1DF9      |        7673 |
|     351 | 0x1DFA      |        7674 |
|     352 | 0x1DFB      |        7675 |
|     353 | 0x1DFC      |        7676 |
|     354 | 0x1DFD      |        7677 |
|     355 | 0x1DFE      |        7678 |
|     356 | 0x1DFF      |        7679 |
|     357 | 0x1E00      |        7680 |
|     358 | 0x1E01      |        7681 |
|     359 | 0x1E02      |        7682 |
|     360 | 0x1E03      |        7683 |
|     361 | 0x1E04      |        7684 |
|     362 | 0x1E05      |        7685 |
|     363 | 0x00A0      |         160 |
|     364 | 0x96331     |      615217 |
|     365 | 0xBD314     |      774932 |
|     366 | 0x20673     |      132723 |
|     367 | 0x02B8      |         696 |
|     368 | 0x1EAC      |        7852 |
|     369 | 0x1EAD      |        7853 |
|     370 | 0x1EAE      |        7854 |
|     371 | 0x1EAF      |        7855 |
|     372 | 0x965A9     |      615849 |
|     373 | 0xBD20E     |      774670 |
|     374 | 0x2067E     |      132734 |
|     375 | 0x0443      |        1091 |
|     376 | 0x00A3      |         163 |
|     377 | 0x1EB2      |        7858 |
|     378 | 0x1EB3      |        7859 |
|     379 | 0x1EB4      |        7860 |
|     380 | 0x1EB5      |        7861 |
|     381 | 0x1EB6      |        7862 |
|     382 | 0x1EB7      |        7863 |
|     383 | 0x00EA      |         234 |
|     384 | 0x1EB8      |        7864 |
|     385 | 0x1EB9      |        7865 |
|     386 | 0x1EBA      |        7866 |
|     387 | 0x1EBB      |        7867 |
|     388 | 0x1EBC      |        7868 |
|     389 | 0x1EBD      |        7869 |
|     390 | 0x1EBE      |        7870 |
|     391 | 0x1EBF      |        7871 |
|     392 | 0x1EC0      |        7872 |
|     393 | 0x95576     |      611702 |
|     394 | 0xBED23     |      781603 |
|     395 | 0x2058D     |      132493 |
|     396 | 0x038A      |         906 |
|     397 | 0x9582B     |      612395 |
|     398 | 0xBDCAB     |      777387 |
|     399 | 0x2062D     |      132653 |
|     400 | 0x94AE2     |      608994 |
|     401 | 0xBFAFB     |      785147 |
|     402 | 0x203E8     |      132072 |
|     403 | 0x02F1      |         753 |
|     404 | 0x95CF0     |      613616 |
|     405 | 0xBDDAC     |      777644 |
|     406 | 0x20628     |      132648 |
|     407 | 0x0832      |        2098 |
|     408 | 0x92C17     |      601111 |
|     409 | 0xB87AA     |      755626 |
|     410 | 0x20B04     |      133892 |
|     411 | 0x0379      |         889 |
|     412 | 0x95AD3     |      613075 |
|     413 | 0xBD446     |      775238 |
|     414 | 0x20666     |      132710 |
|     415 | 0x0634      |        1588 |

## String References

- **7068**: Enter the battlefield? [Enter./Decline.]
- **7071**: You cannot enter the battlefield at present. Please wait a little longer.
- **7079**: You are cleared to enter the battlefield, but you cannot while party members are engaged in combat.
- **7080**: You are cleared to enter the battlefield, but you cannot while party members are engaged in combat.
- **7081**: You are cleared to enter the battlefield, but you cannot while party members are engaged in combat.
- **7082**: You are cleared to enter the battlefield, but you cannot while party members are engaged in combat.
- **7118**: You do not meet the requirements to enter the battlefield. Access is denied.
- **7407**: Skip the event? [Yes./No.]
- **7408**: Battlefield clear time: $3 second[/s]!
- **7409**: Battlefield clear time: $3 minute[/s], $2 second[/s]!
- **7410**: The current battlefield clear time record is $3 second[/s].
- **7411**: The current battlefield clear time record is $3 minute[/s] $2 second[/s].
- **7427**: Only $3 [member/members] have clearance to enter the battlefield. This room has reached its maximum capacity.
- **7431**: That record is held by $5 adventurers, including %0!
- **7432**: That record is held by %0!
- **7433**: Select difficulty. [Very difficult. (Level: ???)/Difficult. (Level: ???)/Normal. (Level: $18)/Easy. (Level: $17)/Very Easy. (Level: $16)/Leave.]
- **7601**: You have broken the clear time record for "[One to Be Feared/The Warrior's Path/$26The Warrior's Path/$26One to Be Feared]"!
- **7602**: The current battlefield clear time record for "[One to Be Feared/The Warrior's Path/$26The Warrior's Path/$26One to Be Feared]" is $3 second[/s].
- **7603**: The current battlefield clear time record for "[One to Be Feared/The Warrior's Path/$26The Warrior's Path/$26One to Be Feared]" is $3 minute[/s] $2 second[/s].
- **7605**: Which battlefield will you enter? [None./One to Be Feared./The Warrior's Path./$26The Warrior's Path./$26One to Be Feared./././././././././././././././././././././././././././.]
- **7606**: Do you really wish to leave? [Yes./No.]
- **7607**: Are you sure you are ready? [Yes./No.]
- **7917**: What to do... [Move to the[ armada/ next] warship./Return to Tavnazia./Nothing.]

## Events

### Event 65535

#### Metadata

| Field        | Value   |
|--------------|---------|
| Entrypoint   | 0x0000  |
| Data Size    | 1 bytes |
| Instructions | 1       |

```
      00 01 02 03 04 05 06 07  08 09 0A 0B 0C 0D 0E 0F
      -- -- -- -- -- -- -- --  -- -- -- -- -- -- -- --
0000: 00                                                .               
```

#### Opcodes

```
  0: 0x0000 [0x00] END_REQSTACK()
```

### Event 65534

#### Metadata

| Field        | Value   |
|--------------|---------|
| Entrypoint   | 0x0001  |
| Data Size    | 1 bytes |
| Instructions | 1       |

```
      00 01 02 03 04 05 06 07  08 09 0A 0B 0C 0D 0E 0F
      -- -- -- -- -- -- -- --  -- -- -- -- -- -- -- --
0000:    00                                              .              
```

#### Opcodes

```
  0: 0x0001 [0x00] END_REQSTACK()
```

### Event 32000

#### Metadata

| Field        | Value      |
|--------------|------------|
| Entrypoint   | 0x0002     |
| Data Size    | 2266 bytes |
| Instructions | 294        |

```
      00 01 02 03 04 05 06 07  08 09 0A 0B 0C 0D 0E 0F
      -- -- -- -- -- -- -- --  -- -- -- -- -- -- -- --
0000:       20 01 79 00 F0 FF  FF 7F F0 FF FF 7F 03 02     .y...........
0010: 00 02 10 03 03 00 03 10  03 05 00 04 10 03 06 00  ................
0020: 05 10 03 0F 00 06 10 03  10 00 07 10 03 11 00 08  ................
0030: 10 41 00 80 01 80 09 10  07 00 41 02 80 03 80 09  .A........A.....
0040: 10 06 10 06 01 00 02 07  00 00 80 00 45 01 03 08  ............E...
0050: 00 04 80 0F 08 00 06 00  10 08 00 05 80 24 06 80  .............$..
0060: 00 80 08 00 25 02 00 10  00 80 00 73 00 01 C1 08  ....%......s....
0070: 01 45 01 03 03 00 00 10  0C 03 00 06 16 00 06 13  .E..............
0080: 00 3E 0F 00 03 00 21 01  06 0F 00 06 08 00 3E 11  .>....!.......>.
0090: 00 03 00 98 00 01 9F 00  3C 08 00 00 80 05 80 3E  ........<......>
00A0: 10 00 03 00 A9 00 01 B0  00 3C 08 00 05 80 05 80  .........<......
00B0: 1A 5F 1B 24 07 80 08 80  08 00 25 02 00 10 00 80  ._.$......%.....
00C0: 00 CB 00 03 0F 00 05 80  01 1E 01 02 00 10 05 80  ................
00D0: 00 DB 00 03 0F 00 09 80  01 1E 01 02 00 10 09 80  ................
00E0: 00 EB 00 03 0F 00 0A 80  01 1E 01 02 00 10 0A 80  ................
00F0: 00 FB 00 03 0F 00 0B 80  01 1E 01 02 00 10 0B 80  ................
0100: 00 0B 01 03 0F 00 08 80  01 1E 01 02 00 10 08 80  ................
0110: 00 19 01 01 C1 08 01 1E  01 03 0F 00 0A 80 01 45  ...............E
0120: 01 06 0F 00 1A DB 08 02  16 00 05 80 00 45 01 24  .............E.$
0130: 0C 80 05 80 00 80 25 02  00 10 05 80 00 45 01 01  ......%......E..
0140: C1 08 01 45 01 42 03 01  10 0D 80 43 00 43 01 06  ...E.B.....C.C..
0150: 01 10 45 0E 80 F0 FF FF  7F F0 FF FF 7F 66 64 6F  ..E..........fdo
0160: 31 00 80 55 0E 80 F0 FF  FF 7F F0 FF FF 7F 66 64  1..U..........fd
0170: 6F 31 3B F0 FF FF 7F 20  10 21 10 22 10 38 0F 80  o1;.... .!.".8..
0180: 02 07 00 05 80 00 9F 01  03 00 00 05 80 03 04 00  ................
0190: 03 00 03 02 00 00 80 03  1C 00 00 80 01 5F 05 03  ............._..
01A0: 00 00 05 80 02 00 00 0A  80 05 8A 08 02 00 80 05  ................
01B0: 80 00 B9 01 03 00 00 05  00 40 00 80 0A 80 01 10  .........@......
01C0: 00 00 40 0B 80 10 80 01  10 03 00 40 11 80 12 80  ..@........@....
01D0: 01 10 0F 00 06 02 10 06  03 10 06 04 10 1A B3 1B  ................
01E0: 47 00 09 00 0A 00 0B 00  0C 00 47 01 03 04 00 03  G.........G.....
01F0: 10 03 02 00 04 10 03 1A  00 05 10 03 0D 00 06 10  ................
0200: 03 0E 00 07 10 03 1C 00  09 10 02 02 10 05 80 80  ................
0210: 15 02 01 77 08 02 02 10  0B 80 80 5F 02 02 00 00  ...w......._....
0220: 05 80 80 2C 02 48 13 80  23 01 59 02 02 00 00 09  ...,.H..#.Y.....
0230: 80 80 3B 02 48 14 80 23  01 59 02 02 00 00 0A 80  ..;.H..#.Y......
0240: 80 4A 02 48 15 80 23 01  59 02 02 00 00 0B 80 80  .J.H..#.Y.......
0250: 59 02 48 16 80 23 01 59  02 01 8E 08 01 77 08 02  Y.H..#.Y.....w..
0260: 02 10 08 80 80 71 02 48  17 80 23 01 8E 08 01 77  .....q.H..#....w
0270: 08 02 02 10 18 80 80 73  04 02 04 00 00 80 80 89  .......s........
0280: 02 03 05 10 18 80 01 69  04 02 04 00 05 80 80 99  .......i........
0290: 02 03 05 10 18 80 01 69  04 02 04 00 09 80 80 A9  .......i........
02A0: 02 03 05 10 18 80 01 69  04 02 04 00 0A 80 80 B9  .......i........
02B0: 02 03 05 10 18 80 01 69  04 02 04 00 0B 80 80 C9  .......i........
02C0: 02 03 05 10 00 80 01 69  04 02 04 00 08 80 80 D9  .......i........
02D0: 02 03 05 10 00 80 01 69  04 02 04 00 18 80 80 E9  .......i........
02E0: 02 03 05 10 00 80 01 69  04 02 04 00 19 80 80 F9  .......i........
02F0: 02 03 05 10 00 80 01 69  04 02 04 00 10 80 80 09  .......i........
0300: 03 03 05 10 00 80 01 69  04 02 04 00 11 80 80 19  .......i........
0310: 03 03 05 10 00 80 01 69  04 02 04 00 1A 80 80 29  .......i.......)
0320: 03 03 05 10 00 80 01 69  04 02 04 00 12 80 80 39  .......i.......9
0330: 03 03 05 10 00 80 01 69  04 02 04 00 1B 80 80 49  .......i.......I
0340: 03 03 05 10 00 80 01 69  04 02 04 00 1C 80 80 59  .......i.......Y
0350: 03 03 05 10 00 80 01 69  04 02 04 00 1D 80 80 69  .......i.......i
0360: 03 03 05 10 00 80 01 69  04 02 04 00 01 80 80 79  .......i.......y
0370: 03 03 05 10 00 80 01 69  04 02 04 00 02 80 80 89  .......i........
0380: 03 03 05 10 00 80 01 69  04 02 04 00 1E 80 80 99  .......i........
0390: 03 03 05 10 00 80 01 69  04 02 04 00 1F 80 80 A9  .......i........
03A0: 03 03 05 10 00 80 01 69  04 02 04 00 0F 80 80 B9  .......i........
03B0: 03 03 05 10 00 80 01 69  04 02 04 00 20 80 80 C9  .......i.... ...
03C0: 03 03 05 10 00 80 01 69  04 02 04 00 21 80 80 D9  .......i....!...
03D0: 03 03 05 10 00 80 01 69  04 02 04 00 22 80 80 E9  .......i...."...
03E0: 03 03 05 10 00 80 01 69  04 02 04 00 23 80 80 F9  .......i....#...
03F0: 03 03 05 10 00 80 01 69  04 02 04 00 24 80 80 09  .......i....$...
0400: 04 03 05 10 00 80 01 69  04 02 04 00 25 80 80 19  .......i....%...
0410: 04 03 05 10 00 80 01 69  04 02 04 00 26 80 80 29  .......i....&..)
0420: 04 03 05 10 00 80 01 69  04 02 04 00 27 80 80 39  .......i....'..9
0430: 04 03 05 10 00 80 01 69  04 02 04 00 28 80 80 49  .......i....(..I
0440: 04 03 05 10 00 80 01 69  04 02 04 00 29 80 80 59  .......i....)..Y
0450: 04 03 05 10 00 80 01 69  04 02 04 00 2A 80 80 69  .......i....*..i
0460: 04 03 05 10 00 80 01 69  04 48 2B 80 23 01 8E 08  .......i.H+.#...
0470: 01 77 08 02 02 10 0A 80  80 81 04 01 9F 01 01 77  .w.............w
0480: 08 02 02 10 09 80 80 77  08 02 0D 00 00 80 01 15  .......w........
0490: 05 02 13 00 00 80 01 C9  04 03 05 10 1A 00 02 1A  ................
04A0: 00 00 80 02 A6 04 02 0D  00 05 80 05 B5 04 48 2C  ..............H,
04B0: 80 23 01 C6 04 03 06 10  0D 00 0C 06 10 03 07 10  .#..............
04C0: 0D 00 48 2D 80 23 01 15  05 03 05 10 1A 00 02 1A  ..H-.#..........
04D0: 00 00 80 02 F5 04 02 1A  00 2E 80 04 F1 04 3F 04  ..............?.
04E0: 10 05 10 2E 80 15 05 10  2E 80 48 2F 80 23 01 F5  ..........H/.#..
04F0: 04 48 30 80 23 02 0D 00  05 80 05 04 05 48 2C 80  .H0.#........H,.
0500: 23 01 15 05 03 06 10 0D  00 0C 06 10 03 07 10 0D  #...............
0510: 00 48 2D 80 23 03 03 00  04 00 03 14 00 31 80 07  .H-.#........1..
0520: 14 00 03 00 02 02 00 14  00 00 34 05 03 02 00 05  ..........4.....
0530: 80 01 39 05 03 02 00 00  80 02 02 00 00 80 00 5F  ..9............_
0540: 05 02 0E 00 05 80 00 5F  05 24 32 80 05 80 00 80  ......._.$2.....
0550: 25 02 00 10 00 80 00 5F  05 05 02 00 01 5F 05 06  %......_....._..
0560: 15 00 02 04 00 00 80 80  72 05 03 15 00 00 80 01  ........r.......
0570: 57 07 02 04 00 05 80 80  82 05 03 15 00 00 80 01  W...............
0580: 57 07 02 04 00 09 80 80  92 05 03 15 00 00 80 01  W...............
0590: 57 07 02 04 00 0A 80 80  A2 05 03 15 00 00 80 01  W...............
05A0: 57 07 02 04 00 0B 80 80  B2 05 03 15 00 00 80 01  W...............
05B0: 57 07 02 04 00 08 80 80  C2 05 03 15 00 00 80 01  W...............
05C0: 57 07 02 04 00 18 80 80  D2 05 03 15 00 00 80 01  W...............
05D0: 57 07 02 04 00 19 80 80  E2 05 03 15 00 00 80 01  W...............
05E0: 57 07 02 04 00 10 80 80  F2 05 03 15 00 00 80 01  W...............
05F0: 57 07 02 04 00 11 80 80  02 06 03 15 00 00 80 01  W...............
0600: 57 07 02 04 00 1A 80 80  12 06 03 15 00 00 80 01  W...............
0610: 57 07 02 04 00 12 80 80  22 06 03 15 00 00 80 01  W.......".......
0620: 57 07 02 04 00 1B 80 80  32 06 03 15 00 00 80 01  W.......2.......
0630: 57 07 02 04 00 1C 80 80  42 06 03 15 00 00 80 01  W.......B.......
0640: 57 07 02 04 00 1D 80 80  52 06 03 15 00 00 80 01  W.......R.......
0650: 57 07 02 04 00 01 80 80  62 06 03 15 00 00 80 01  W.......b.......
0660: 57 07 02 04 00 02 80 80  72 06 03 15 00 00 80 01  W.......r.......
0670: 57 07 02 04 00 1E 80 80  82 06 03 15 00 00 80 01  W...............
0680: 57 07 02 04 00 1F 80 80  92 06 03 15 00 00 80 01  W...............
0690: 57 07 02 04 00 0F 80 80  A2 06 03 15 00 00 80 01  W...............
06A0: 57 07 02 04 00 20 80 80  B2 06 03 15 00 00 80 01  W.... ..........
06B0: 57 07 02 04 00 21 80 80  C2 06 03 15 00 00 80 01  W....!..........
06C0: 57 07 02 04 00 22 80 80  D2 06 03 15 00 00 80 01  W...."..........
06D0: 57 07 02 04 00 23 80 80  E2 06 03 15 00 00 80 01  W....#..........
06E0: 57 07 02 04 00 24 80 80  F2 06 03 15 00 00 80 01  W....$..........
06F0: 57 07 02 04 00 25 80 80  02 07 03 15 00 00 80 01  W....%..........
0700: 57 07 02 04 00 26 80 80  12 07 03 15 00 00 80 01  W....&..........
0710: 57 07 02 04 00 27 80 80  22 07 03 15 00 00 80 01  W....'..".......
0720: 57 07 02 04 00 28 80 80  32 07 03 15 00 00 80 01  W....(..2.......
0730: 57 07 02 04 00 29 80 80  42 07 03 15 00 00 80 01  W....)..B.......
0740: 57 07 02 04 00 2A 80 80  52 07 03 15 00 00 80 01  W....*..R.......
0750: 57 07 03 15 00 00 80 02  02 00 05 80 00 72 07 5C  W............r.\
0760: 00 33 80 5C 01 33 80 5C  02 33 80 5C 03 33 80 01  .3.\.3.\.3.\.3..
0770: 8A 07 02 15 00 00 80 00  8A 07 5C 00 33 80 5C 01  ..........\.3.\.
0780: 33 80 5C 02 33 80 5C 03  33 80 02 02 00 00 80 00  3.\.3.\.3.......
0790: 98 07 1A 5E 15 01 67 08  02 00 00 05 80 80 CA 07  ...^..g.........
07A0: 2D F8 FF FF 7F F8 FF FF  7F 30 31 6F 6E 2D F8 FF  -........01on-..
07B0: FF 7F F8 FF FF 7F 32 65  6E 64 2D F8 FF FF 7F F8  ......2end-.....
07C0: FF FF 7F 33 65 6E 64 01  2E 08 02 00 00 09 80 80  ...3end.........
07D0: FC 07 2D F8 FF FF 7F F8  FF FF 7F 31 65 6E 64 2D  ..-........1end-
07E0: F8 FF FF 7F F8 FF FF 7F  30 32 6F 6E 2D F8 FF FF  ........02on-...
07F0: 7F F8 FF FF 7F 33 65 6E  64 01 2E 08 02 00 00 0A  .....3end.......
0800: 80 80 2E 08 2D F8 FF FF  7F F8 FF FF 7F 31 65 6E  ....-........1en
0810: 64 2D F8 FF FF 7F F8 FF  FF 7F 32 65 6E 64 2D F8  d-........2end-.
0820: FF FF 7F F8 FF FF 7F 30  33 6F 6E 01 2E 08 6C F0  .......03on...l.
0830: FF FF 7F 00 80 05 80 62  09 80 F0 FF FF 7F F0 FF  .......b........
0840: FF 7F 6D 61 69 6E 00 80  45 0E 80 F0 FF FF 7F F0  ..main..E.......
0850: FF FF 7F 6F 76 6C 31 00  80 46 02 12 00 02 12 00  ...ovl1..F......
0860: 00 80 00 67 08 46 00 03  01 10 31 80 07 01 10 03  ...g.F....1.....
0870: 00 01 8E 08 01 77 08 0B  00 00 02 00 80 05 80 00  .....w..........
0880: 87 08 03 00 00 0B 80 01  A4 01 48 34 80 23 45 35  ..........H4.#E5
0890: 80 F0 FF FF 7F F0 FF FF  7F 77 68 69 31 00 80 45  .........whi1..E
08A0: 0E 80 F0 FF FF 7F F0 FF  FF 7F 62 6C 6F 66 00 80  ..........blof..
08B0: 45 0E 80 F0 FF FF 7F F0  FF FF 7F 66 64 69 30 00  E..........fdi0.
08C0: 80 02 07 00 05 80 00 D9  08 5C 00 36 80 5C 01 36  .........\.6.\.6
08D0: 80 5C 02 33 80 5C 03 33  80 21 00 1B              .\.3.\.3.!..    
```

#### Opcodes

```
  0: 0x0002 [0x20] SET_CLI_EVENT_UC_FLAG: Lock player control
  1: 0x0004 [0x79] LocalPlayer looks at LocalPlayer (Basic look)
  2: 0x000E [0x03] ExtData[1]->WorkLocal[2] = Work_Zone[2]
  3: 0x0013 [0x03] ExtData[1]->WorkLocal[3] = Work_Zone[3]
  4: 0x0018 [0x03] ExtData[1]->WorkLocal[5] = Work_Zone[4]
  5: 0x001D [0x03] ExtData[1]->WorkLocal[6] = Work_Zone[5]
  6: 0x0022 [0x03] ExtData[1]->WorkLocal[15] = Work_Zone[6]
  7: 0x0027 [0x03] ExtData[1]->WorkLocal[16] = Work_Zone[7]
  8: 0x002C [0x03] ExtData[1]->WorkLocal[17] = Work_Zone[8]
  9: 0x0031 [0x41] ExtData[1]->WorkLocal[7] = Work_Zone[9] (bits 0*-15*)
 10: 0x003A [0x41] Work_Zone[6] = Work_Zone[9] (bits 16*-31*)
 11: 0x0043 [0x06] ExtData[1]->WorkLocal[1] = 0
 12: 0x0046 [0x02] IF !(ExtData[1]->WorkLocal[7] == 0*) GOTO 0x0145
 13: 0x004E [0x03] ExtData[1]->WorkLocal[8] = 4294967295*
 14: 0x0053 [0x0F] ExtData[1]->WorkLocal[8] ^= ExtData[1]->WorkLocal[6]
 15: 0x0058 [0x10] ExtData[1]->WorkLocal[8] <<= 1*
 16: 0x005D [0x24] CREATE_DIALOG(message_id=7605*, default_option=0*, option_flags=ExtData[1]->WorkLocal[8])
    → "Which battlefield will you enter? [None./One to Be Feared./The Warrior's Path./$26The Warrior's Path./$26One to Be Feared./././././././././././././././././././././././././././.]"
 17: 0x0064 [0x25] WAIT_DIALOG_SELECT()
 18: 0x0065 [0x02] IF !(Work_Zone[0] == 0*) GOTO 0x0073
 19: 0x006D [0x01] GOTO 0x08C1

SUBROUTINE_009F:
 20: 0x009F [0x3E] IF !(ExtData[1]->WorkLocal[16] bit ExtData[1]->WorkLocal[3]) GOTO 0x00A9
 21: 0x00A6 [0x01] GOTO 0x00B0
 22: 0x00A9 [0x3C] SET_BIT_FLAG_CONDITIONAL(target_work_offset=ExtData[1]->WorkLocal[8], bit_index_work_offset=1*, condition_work_offset=1*)

SUBROUTINE_00B0:
 23: 0x00B0 [0x1A] CALL_SUBROUTINE(address=0x1B5F)
 24: 0x00B3 [0x24] CREATE_DIALOG(message_id=7433*, default_option=5*, option_flags=ExtData[1]->WorkLocal[8])
    → "Select difficulty. [Very difficult. (Level: ???)/Difficult. (Level: ???)/Normal. (Level: $18)/Easy. (Level: $17)/Very Easy. (Level: $16)/Leave.]"
 25: 0x00BA [0x25] WAIT_DIALOG_SELECT()
 26: 0x00BB [0x02] IF !(Work_Zone[0] == 0*) GOTO 0x00CB
 27: 0x00C3 [0x03] ExtData[1]->WorkLocal[15] = 1*
 28: 0x00C8 [0x01] GOTO 0x011E
 29: 0x00CB [0x02] IF !(Work_Zone[0] == 1*) GOTO 0x00DB
 30: 0x00D3 [0x03] ExtData[1]->WorkLocal[15] = 2*
 31: 0x00D8 [0x01] GOTO 0x011E
 32: 0x00DB [0x02] IF !(Work_Zone[0] == 2*) GOTO 0x00EB
 33: 0x00E3 [0x03] ExtData[1]->WorkLocal[15] = 3*
 34: 0x00E8 [0x01] GOTO 0x011E
 35: 0x00EB [0x02] IF !(Work_Zone[0] == 3*) GOTO 0x00FB
 36: 0x00F3 [0x03] ExtData[1]->WorkLocal[15] = 4*
 37: 0x00F8 [0x01] GOTO 0x011E
 38: 0x00FB [0x02] IF !(Work_Zone[0] == 4*) GOTO 0x010B
 39: 0x0103 [0x03] ExtData[1]->WorkLocal[15] = 5*
 40: 0x0108 [0x01] GOTO 0x011E
 41: 0x010B [0x02] IF !(Work_Zone[0] == 5*) GOTO 0x0119
 42: 0x0113 [0x01] GOTO 0x08C1

SUBROUTINE_011E:
 43: 0x011E [0x01] GOTO 0x0145
 44: 0x0121 [0x06] ExtData[1]->WorkLocal[15] = 0
 45: 0x0124 [0x1A] CALL_SUBROUTINE(address=0x08DB)
 46: 0x0127 [0x02] IF !(ExtData[1]->WorkLocal[22] == 1*) GOTO 0x0145
 47: 0x012F [0x24] CREATE_DIALOG(message_id=7068*, default_option=1*, option_flags=0*)
    → "Enter the battlefield? [Enter./Decline.]"
 48: 0x0136 [0x25] WAIT_DIALOG_SELECT()
 49: 0x0137 [0x02] IF !(Work_Zone[0] == 1*) GOTO 0x0145
 50: 0x013F [0x01] GOTO 0x08C1

SUBROUTINE_0145:
 51: 0x0145 [0x42] SET_CLI_EVENT_CANCEL_DATA()
 52: 0x0146 [0x03] Work_Zone[1] = 255*
 53: 0x014B [0x43] SEND_EVENT_UPDATE: Send pending tag to server (packet 0x005B)
 54: 0x014D [0x43] SEND_EVENT_UPDATE: Check pending flag (skip if not pending)
 55: 0x014F [0x06] Work_Zone[1] = 0
 56: 0x0152 [0x45] LOAD_SCHEDULED_TASK: Load scheduler "fdo1" with entities [LocalPlayer, LocalPlayer], work=[200*, 0*]
 57: 0x0163 [0x55] WAIT_LOAD_SCHEDULER: Wait for scheduler "fdo1" with entities [LocalPlayer, LocalPlayer], work=200*
 58: 0x0172 [0x3B] GET_ENTITY_POSITION(entity=LocalPlayer, x_destination=Work_Zone[32], y_destination=Work_Zone[33], z_destination=Work_Zone[34])
 59: 0x017D [0x38] SET_CLIENT_EVENT_MODE(mode=19*)
 60: 0x0180 [0x02] IF !(ExtData[1]->WorkLocal[7] == 1*) GOTO 0x019F
 61: 0x0188 [0x03] ExtData[1]->WorkLocal[0] = 1*
 62: 0x018D [0x03] ExtData[1]->WorkLocal[4] = ExtData[1]->WorkLocal[3]
 63: 0x0192 [0x03] ExtData[1]->WorkLocal[2] = 0*
 64: 0x0197 [0x03] ExtData[1]->WorkLocal[28] = 0*
 65: 0x019C [0x01] GOTO 0x055F

SUBROUTINE_019F:
 66: 0x019F [0x03] ExtData[1]->WorkLocal[0] = 1*

SUBROUTINE_01A4:
 67: 0x01A4 [0x02] IF !(ExtData[1]->WorkLocal[0] > 3*) GOTO 0x088A
 68: 0x01AC [0x02] IF !(0* == 1*) GOTO 0x01B9
 69: 0x01B4 [0x03] ExtData[1]->WorkLocal[0] = ExtData[1]->WorkLocal[5]
 70: 0x01B9 [0x40] SET_BIT_WORK_RANGE(start_bit=0*, end_bit=3*, target=Work_Zone[1], source=ExtData[1]->WorkLocal[0])
 71: 0x01C2 [0x40] SET_BIT_WORK_RANGE(start_bit=4*, end_bit=8*, target=Work_Zone[1], source=ExtData[1]->WorkLocal[3])
 72: 0x01CB [0x40] SET_BIT_WORK_RANGE(start_bit=9*, end_bit=11*, target=Work_Zone[1], source=ExtData[1]->WorkLocal[15])
 73: 0x01D4 [0x06] Work_Zone[2] = 0
 74: 0x01D7 [0x06] Work_Zone[3] = 0
 75: 0x01DA [0x06] Work_Zone[4] = 0
 76: 0x01DD [0x1A] CALL_SUBROUTINE(address=0x1BB3)
 77: 0x01E0 [0x47] UPDATE_PLAYER_POS(ExtData[1]->WorkLocal[9], ExtData[1]->WorkLocal[10], ExtData[1]->WorkLocal[11], yaw=ExtData[1]->WorkLocal[12])
 78: 0x01EA [0x47] WAIT_PLAYER_POS_UPDATE
 79: 0x01EC [0x03] ExtData[1]->WorkLocal[4] = Work_Zone[3]
 80: 0x01F1 [0x03] ExtData[1]->WorkLocal[2] = Work_Zone[4]
 81: 0x01F6 [0x03] ExtData[1]->WorkLocal[26] = Work_Zone[5]
 82: 0x01FB [0x03] ExtData[1]->WorkLocal[13] = Work_Zone[6]
 83: 0x0200 [0x03] ExtData[1]->WorkLocal[14] = Work_Zone[7]
 84: 0x0205 [0x03] ExtData[1]->WorkLocal[28] = Work_Zone[9]
 85: 0x020A [0x02] IF !(Work_Zone[2] == 1*) GOTO 0x0215
 86: 0x0212 [0x01] GOTO 0x0877
 87: 0x0215 [0x02] IF !(Work_Zone[2] == 4*) GOTO 0x025F
 88: 0x021D [0x02] IF !(ExtData[1]->WorkLocal[0] == 1*) GOTO 0x022C
 89: 0x0225 [0x48] [System] [7079*]:
    → "You are cleared to enter the battlefield, but you cannot while party members are engaged in combat."
 90: 0x0228 [0x23] WAIT_FOR_DIALOG_INTERACTION
 91: 0x0229 [0x01] GOTO 0x0259
 92: 0x022C [0x02] IF !(ExtData[1]->WorkLocal[0] == 2*) GOTO 0x023B
 93: 0x0234 [0x48] [System] [7080*]:
    → "You are cleared to enter the battlefield, but you cannot while party members are engaged in combat."
 94: 0x0237 [0x23] WAIT_FOR_DIALOG_INTERACTION
 95: 0x0238 [0x01] GOTO 0x0259
 96: 0x023B [0x02] IF !(ExtData[1]->WorkLocal[0] == 3*) GOTO 0x024A
 97: 0x0243 [0x48] [System] [7081*]:
    → "You are cleared to enter the battlefield, but you cannot while party members are engaged in combat."
 98: 0x0246 [0x23] WAIT_FOR_DIALOG_INTERACTION
 99: 0x0247 [0x01] GOTO 0x0259
100: 0x024A [0x02] IF !(ExtData[1]->WorkLocal[0] == 4*) GOTO 0x0259
101: 0x0252 [0x48] [System] [7082*]:
    → "You are cleared to enter the battlefield, but you cannot while party members are engaged in combat."
102: 0x0255 [0x23] WAIT_FOR_DIALOG_INTERACTION
103: 0x0256 [0x01] GOTO 0x0259

SUBROUTINE_0259:
104: 0x0259 [0x01] GOTO 0x088E

SUBROUTINE_0469:
105: 0x0469 [0x48] [System] [7427*]:
    → "Only $3 [member/members] have clearance to enter the battlefield. This room has reached its maximum capacity."
106: 0x046C [0x23] WAIT_FOR_DIALOG_INTERACTION
107: 0x046D [0x01] GOTO 0x088E

SUBROUTINE_04C6:
108: 0x04C6 [0x01] GOTO 0x0515
109: 0x04C9 [0x03] Work_Zone[5] = ExtData[1]->WorkLocal[26]
110: 0x04CE [0x02] IF !(ExtData[1]->WorkLocal[26] <= 0*) GOTO 0x04F5
111: 0x04D6 [0x02] IF !(ExtData[1]->WorkLocal[26] < 60*) GOTO 0x04F1
112: 0x04DE [0x3F] Work_Zone[4] = Work_Zone[5] % 60*
113: 0x04E5 [0x15] Work_Zone[5] /= 60*
114: 0x04EA [0x48] [System] [7603*]:
    → "The current battlefield clear time record for "[One to Be Feared/The Warrior's Path/$26The Warrior's Path/$26One to Be Feared]" is $3 minute[/s] $2 second[/s]."
115: 0x04ED [0x23] WAIT_FOR_DIALOG_INTERACTION
116: 0x04EE [0x01] GOTO 0x04F5
117: 0x04F1 [0x48] [System] [7602*]:
    → "The current battlefield clear time record for "[One to Be Feared/The Warrior's Path/$26The Warrior's Path/$26One to Be Feared]" is $3 second[/s]."
118: 0x04F4 [0x23] WAIT_FOR_DIALOG_INTERACTION

SUBROUTINE_04F5:
119: 0x04F5 [0x02] IF !(ExtData[1]->WorkLocal[13] > 1*) GOTO 0x0504
120: 0x04FD [0x48] [System] [7432*]:
    → "That record is held by %0!"
121: 0x0500 [0x23] WAIT_FOR_DIALOG_INTERACTION
122: 0x0501 [0x01] GOTO 0x0515
123: 0x0504 [0x03] Work_Zone[6] = ExtData[1]->WorkLocal[13]
124: 0x0509 [0x0C] Work_Zone[6]--
125: 0x050C [0x03] Work_Zone[7] = ExtData[1]->WorkLocal[13]
126: 0x0511 [0x48] [System] [7431*]:
    → "That record is held by $5 adventurers, including %0!"
127: 0x0514 [0x23] WAIT_FOR_DIALOG_INTERACTION

SUBROUTINE_0515:
128: 0x0515 [0x03] ExtData[1]->WorkLocal[3] = ExtData[1]->WorkLocal[4]
129: 0x051A [0x03] ExtData[1]->WorkLocal[20] = 100*
130: 0x051F [0x07] ExtData[1]->WorkLocal[20] += ExtData[1]->WorkLocal[3]
131: 0x0524 [0x02] IF !(ExtData[1]->WorkLocal[2] == ExtData[1]->WorkLocal[20]) GOTO 0x0534
132: 0x052C [0x03] ExtData[1]->WorkLocal[2] = 1*
133: 0x0531 [0x01] GOTO 0x0539
134: 0x0534 [0x03] ExtData[1]->WorkLocal[2] = 0*

SUBROUTINE_0539:
135: 0x0539 [0x02] IF !(ExtData[1]->WorkLocal[2] == 0*) GOTO 0x055F
136: 0x0541 [0x02] IF !(ExtData[1]->WorkLocal[14] == 1*) GOTO 0x055F
137: 0x0549 [0x24] CREATE_DIALOG(message_id=7407*, default_option=1*, option_flags=0*)
    → "Skip the event? [Yes./No.]"
138: 0x0550 [0x25] WAIT_DIALOG_SELECT()
139: 0x0551 [0x02] IF !(Work_Zone[0] == 0*) GOTO 0x055F
140: 0x0559 [0x05] ExtData[1]->WorkLocal[2] = 1
141: 0x055C [0x01] GOTO 0x055F

SUBROUTINE_055F:
142: 0x055F [0x06] ExtData[1]->WorkLocal[21] = 0
143: 0x0562 [0x02] IF !(ExtData[1]->WorkLocal[4] == 0*) GOTO 0x0572
144: 0x056A [0x03] ExtData[1]->WorkLocal[21] = 0*
145: 0x056F [0x01] GOTO 0x0757
146: 0x0572 [0x02] IF !(ExtData[1]->WorkLocal[4] == 1*) GOTO 0x0582
147: 0x057A [0x03] ExtData[1]->WorkLocal[21] = 0*
148: 0x057F [0x01] GOTO 0x0757
149: 0x0582 [0x02] IF !(ExtData[1]->WorkLocal[4] == 2*) GOTO 0x0592
150: 0x058A [0x03] ExtData[1]->WorkLocal[21] = 0*
151: 0x058F [0x01] GOTO 0x0757
152: 0x0592 [0x02] IF !(ExtData[1]->WorkLocal[4] == 3*) GOTO 0x05A2
153: 0x059A [0x03] ExtData[1]->WorkLocal[21] = 0*
154: 0x059F [0x01] GOTO 0x0757
155: 0x05A2 [0x02] IF !(ExtData[1]->WorkLocal[4] == 4*) GOTO 0x05B2
156: 0x05AA [0x03] ExtData[1]->WorkLocal[21] = 0*
157: 0x05AF [0x01] GOTO 0x0757
158: 0x05B2 [0x02] IF !(ExtData[1]->WorkLocal[4] == 5*) GOTO 0x05C2
159: 0x05BA [0x03] ExtData[1]->WorkLocal[21] = 0*
160: 0x05BF [0x01] GOTO 0x0757
161: 0x05C2 [0x02] IF !(ExtData[1]->WorkLocal[4] == 6*) GOTO 0x05D2
162: 0x05CA [0x03] ExtData[1]->WorkLocal[21] = 0*
163: 0x05CF [0x01] GOTO 0x0757
164: 0x05D2 [0x02] IF !(ExtData[1]->WorkLocal[4] == 7*) GOTO 0x05E2
165: 0x05DA [0x03] ExtData[1]->WorkLocal[21] = 0*
166: 0x05DF [0x01] GOTO 0x0757
167: 0x05E2 [0x02] IF !(ExtData[1]->WorkLocal[4] == 8*) GOTO 0x05F2
168: 0x05EA [0x03] ExtData[1]->WorkLocal[21] = 0*
169: 0x05EF [0x01] GOTO 0x0757
170: 0x05F2 [0x02] IF !(ExtData[1]->WorkLocal[4] == 9*) GOTO 0x0602
171: 0x05FA [0x03] ExtData[1]->WorkLocal[21] = 0*
172: 0x05FF [0x01] GOTO 0x0757
173: 0x0602 [0x02] IF !(ExtData[1]->WorkLocal[4] == 10*) GOTO 0x0612
174: 0x060A [0x03] ExtData[1]->WorkLocal[21] = 0*
175: 0x060F [0x01] GOTO 0x0757
176: 0x0612 [0x02] IF !(ExtData[1]->WorkLocal[4] == 11*) GOTO 0x0622
177: 0x061A [0x03] ExtData[1]->WorkLocal[21] = 0*
178: 0x061F [0x01] GOTO 0x0757
179: 0x0622 [0x02] IF !(ExtData[1]->WorkLocal[4] == 12*) GOTO 0x0632
180: 0x062A [0x03] ExtData[1]->WorkLocal[21] = 0*
181: 0x062F [0x01] GOTO 0x0757
182: 0x0632 [0x02] IF !(ExtData[1]->WorkLocal[4] == 13*) GOTO 0x0642
183: 0x063A [0x03] ExtData[1]->WorkLocal[21] = 0*
184: 0x063F [0x01] GOTO 0x0757
185: 0x0642 [0x02] IF !(ExtData[1]->WorkLocal[4] == 14*) GOTO 0x0652
186: 0x064A [0x03] ExtData[1]->WorkLocal[21] = 0*
187: 0x064F [0x01] GOTO 0x0757
188: 0x0652 [0x02] IF !(ExtData[1]->WorkLocal[4] == 15*) GOTO 0x0662
189: 0x065A [0x03] ExtData[1]->WorkLocal[21] = 0*
190: 0x065F [0x01] GOTO 0x0757
191: 0x0662 [0x02] IF !(ExtData[1]->WorkLocal[4] == 16*) GOTO 0x0672
192: 0x066A [0x03] ExtData[1]->WorkLocal[21] = 0*
193: 0x066F [0x01] GOTO 0x0757
194: 0x0672 [0x02] IF !(ExtData[1]->WorkLocal[4] == 17*) GOTO 0x0682
195: 0x067A [0x03] ExtData[1]->WorkLocal[21] = 0*
196: 0x067F [0x01] GOTO 0x0757
197: 0x0682 [0x02] IF !(ExtData[1]->WorkLocal[4] == 18*) GOTO 0x0692
198: 0x068A [0x03] ExtData[1]->WorkLocal[21] = 0*
199: 0x068F [0x01] GOTO 0x0757
200: 0x0692 [0x02] IF !(ExtData[1]->WorkLocal[4] == 19*) GOTO 0x06A2
201: 0x069A [0x03] ExtData[1]->WorkLocal[21] = 0*
202: 0x069F [0x01] GOTO 0x0757
203: 0x06A2 [0x02] IF !(ExtData[1]->WorkLocal[4] == 20*) GOTO 0x06B2
204: 0x06AA [0x03] ExtData[1]->WorkLocal[21] = 0*
205: 0x06AF [0x01] GOTO 0x0757
206: 0x06B2 [0x02] IF !(ExtData[1]->WorkLocal[4] == 21*) GOTO 0x06C2
207: 0x06BA [0x03] ExtData[1]->WorkLocal[21] = 0*
208: 0x06BF [0x01] GOTO 0x0757
209: 0x06C2 [0x02] IF !(ExtData[1]->WorkLocal[4] == 22*) GOTO 0x06D2
210: 0x06CA [0x03] ExtData[1]->WorkLocal[21] = 0*
211: 0x06CF [0x01] GOTO 0x0757
212: 0x06D2 [0x02] IF !(ExtData[1]->WorkLocal[4] == 23*) GOTO 0x06E2
213: 0x06DA [0x03] ExtData[1]->WorkLocal[21] = 0*
214: 0x06DF [0x01] GOTO 0x0757
215: 0x06E2 [0x02] IF !(ExtData[1]->WorkLocal[4] == 24*) GOTO 0x06F2
216: 0x06EA [0x03] ExtData[1]->WorkLocal[21] = 0*
217: 0x06EF [0x01] GOTO 0x0757
218: 0x06F2 [0x02] IF !(ExtData[1]->WorkLocal[4] == 25*) GOTO 0x0702
219: 0x06FA [0x03] ExtData[1]->WorkLocal[21] = 0*
220: 0x06FF [0x01] GOTO 0x0757
221: 0x0702 [0x02] IF !(ExtData[1]->WorkLocal[4] == 26*) GOTO 0x0712
222: 0x070A [0x03] ExtData[1]->WorkLocal[21] = 0*
223: 0x070F [0x01] GOTO 0x0757
224: 0x0712 [0x02] IF !(ExtData[1]->WorkLocal[4] == 27*) GOTO 0x0722
225: 0x071A [0x03] ExtData[1]->WorkLocal[21] = 0*
226: 0x071F [0x01] GOTO 0x0757
227: 0x0722 [0x02] IF !(ExtData[1]->WorkLocal[4] == 28*) GOTO 0x0732
228: 0x072A [0x03] ExtData[1]->WorkLocal[21] = 0*
229: 0x072F [0x01] GOTO 0x0757
230: 0x0732 [0x02] IF !(ExtData[1]->WorkLocal[4] == 29*) GOTO 0x0742
231: 0x073A [0x03] ExtData[1]->WorkLocal[21] = 0*
232: 0x073F [0x01] GOTO 0x0757
233: 0x0742 [0x02] IF !(ExtData[1]->WorkLocal[4] == 30*) GOTO 0x0752
234: 0x074A [0x03] ExtData[1]->WorkLocal[21] = 0*
235: 0x074F [0x01] GOTO 0x0757
236: 0x0752 [0x03] ExtData[1]->WorkLocal[21] = 0*

SUBROUTINE_0757:
237: 0x0757 [0x02] IF !(ExtData[1]->WorkLocal[2] == 1*) GOTO 0x0772
238: 0x075F [0x5C] MUSIC_CONTROL: Set Idle (Day) music to song 220*
239: 0x0763 [0x5C] MUSIC_CONTROL: Set Idle (Night) music to song 220*
240: 0x0767 [0x5C] MUSIC_CONTROL: Set Combat (Solo) music to song 220*
241: 0x076B [0x5C] MUSIC_CONTROL: Set Combat (Party) music to song 220*
242: 0x076F [0x01] GOTO 0x078A
243: 0x0772 [0x02] IF !(ExtData[1]->WorkLocal[21] == 0*) GOTO 0x078A
244: 0x077A [0x5C] MUSIC_CONTROL: Set Idle (Day) music to song 220*
245: 0x077E [0x5C] MUSIC_CONTROL: Set Idle (Night) music to song 220*
246: 0x0782 [0x5C] MUSIC_CONTROL: Set Combat (Solo) music to song 220*
247: 0x0786 [0x5C] MUSIC_CONTROL: Set Combat (Party) music to song 220*

SUBROUTINE_078A:
248: 0x078A [0x02] IF !(ExtData[1]->WorkLocal[2] == 0*) GOTO 0x0798
249: 0x0792 [0x1A] CALL_SUBROUTINE(address=0x155E)
250: 0x0795 [0x01] GOTO 0x0867
251: 0x0798 [0x02] IF !(ExtData[1]->WorkLocal[0] == 1*) GOTO 0x07CA
252: 0x07A0 [0x2D] CREATE_ZONE_SCHEDULER_TASK: Create scheduler "01on" with entities [EventEntity, EventEntity]
253: 0x07AD [0x2D] CREATE_ZONE_SCHEDULER_TASK: Create scheduler "2end" with entities [EventEntity, EventEntity]
254: 0x07BA [0x2D] CREATE_ZONE_SCHEDULER_TASK: Create scheduler "3end" with entities [EventEntity, EventEntity]
255: 0x07C7 [0x01] GOTO 0x082E
256: 0x07CA [0x02] IF !(ExtData[1]->WorkLocal[0] == 2*) GOTO 0x07FC
257: 0x07D2 [0x2D] CREATE_ZONE_SCHEDULER_TASK: Create scheduler "1end" with entities [EventEntity, EventEntity]
258: 0x07DF [0x2D] CREATE_ZONE_SCHEDULER_TASK: Create scheduler "02on" with entities [EventEntity, EventEntity]
259: 0x07EC [0x2D] CREATE_ZONE_SCHEDULER_TASK: Create scheduler "3end" with entities [EventEntity, EventEntity]
260: 0x07F9 [0x01] GOTO 0x082E
261: 0x07FC [0x02] IF !(ExtData[1]->WorkLocal[0] == 3*) GOTO 0x082E
262: 0x0804 [0x2D] CREATE_ZONE_SCHEDULER_TASK: Create scheduler "1end" with entities [EventEntity, EventEntity]
263: 0x0811 [0x2D] CREATE_ZONE_SCHEDULER_TASK: Create scheduler "2end" with entities [EventEntity, EventEntity]
264: 0x081E [0x2D] CREATE_ZONE_SCHEDULER_TASK: Create scheduler "03on" with entities [EventEntity, EventEntity]
265: 0x082B [0x01] GOTO 0x082E

SUBROUTINE_082E:
266: 0x082E [0x6C] FADE_ENTITY_COLOR(entity_id=LocalPlayer, end_alpha=0*, fade_time=1*)
267: 0x0837 [0x62] LOAD_EVENT_SCHEDULER: Load scheduler "main" with entities [LocalPlayer, LocalPlayer], work=[2*, 0*]
268: 0x0848 [0x45] LOAD_SCHEDULED_TASK: Load scheduler "ovl1" with entities [LocalPlayer, LocalPlayer], work=[200*, 0*]
269: 0x0859 [0x46] CAMERA_CONTROL: Query status
270: 0x085B [0x12] 0x0200 = rand()
271: 0x085E [0x12] ExtData[1]->WorkLocal[0] = rand()
272: 0x0861 [0x80] LOAD_WAIT(entity=Unknown NPC (ID: 1174955776/0x46086700))
273: 0x0866 [0x00] END_REQSTACK()

SUBROUTINE_0867:
274: 0x0867 [0x03] Work_Zone[1] = 100*
275: 0x086C [0x07] Work_Zone[1] += ExtData[1]->WorkLocal[3]
276: 0x0871 [0x01] GOTO 0x088E

SUBROUTINE_0877:
277: 0x0877 [0x0B] ExtData[1]->WorkLocal[0]++
278: 0x087A [0x02] IF !(0* == 1*) GOTO 0x0887
279: 0x0882 [0x03] ExtData[1]->WorkLocal[0] = 4*
280: 0x0887 [0x01] GOTO 0x01A4
281: 0x088A [0x48] [System] [7071*]:
    → "You cannot enter the battlefield at present. Please wait a little longer."
282: 0x088D [0x23] WAIT_FOR_DIALOG_INTERACTION

SUBROUTINE_088E:
283: 0x088E [0x45] LOAD_SCHEDULED_TASK: Load scheduler "whi1" with entities [LocalPlayer, LocalPlayer], work=[201*, 0*]
284: 0x089F [0x45] LOAD_SCHEDULED_TASK: Load scheduler "blof" with entities [LocalPlayer, LocalPlayer], work=[200*, 0*]
285: 0x08B0 [0x45] LOAD_SCHEDULED_TASK: Load scheduler "fdi0" with entities [LocalPlayer, LocalPlayer], work=[200*, 0*]

SUBROUTINE_08C1:
286: 0x08C1 [0x02] IF !(ExtData[1]->WorkLocal[7] == 1*) GOTO 0x08D9
287: 0x08C9 [0x5C] MUSIC_CONTROL: Set Idle (Day) music to song 245*
288: 0x08CD [0x5C] MUSIC_CONTROL: Set Idle (Night) music to song 245*
289: 0x08D1 [0x5C] MUSIC_CONTROL: Set Combat (Solo) music to song 220*
290: 0x08D5 [0x5C] MUSIC_CONTROL: Set Combat (Party) music to song 220*
291: 0x08D9 [0x21] END_EVENT
292: 0x08DA [0x00] END_REQSTACK()

SUBROUTINE_08DB:
293: 0x08DB [0x1B] RETURN
```

#### Data or dead code:

```
# Dead code (unreachable instructions):
     0x0070 [0x01] GOTO 0x0145
# Dead code (unreachable instructions):
     0x0116 [0x01] GOTO 0x011E
# Dead code (unreachable instructions):
     0x0142 [0x01] GOTO 0x0145
# Dead code (unreachable instructions):
     0x025C [0x01] GOTO 0x0877
     0x026E [0x01] GOTO 0x0877
# Dead code (unreachable instructions):
     0x0470 [0x01] GOTO 0x0877
     0x047E [0x01] GOTO 0x0877
# Dead code (unreachable instructions):
     0x0874 [0x01] GOTO 0x0877
```

### Event 32002

#### Metadata

| Field        | Value     |
|--------------|-----------|
| Entrypoint   | 0x08DC    |
| Data Size    | 494 bytes |
| Instructions | 83        |

```
      00 01 02 03 04 05 06 07  08 09 0A 0B 0C 0D 0E 0F
      -- -- -- -- -- -- -- --  -- -- -- -- -- -- -- --
08D0:                                      03 05 00 06              ....
08E0: 10 03 21 00 07 10 03 20  00 08 10 20 01 42 3B F0  ..!.... ... .B;.
08F0: FF FF 7F 20 10 21 10 22  10 3A F0 FF FF 7F 23 10  ... .!.".:....#.
0900: 45 0E 80 F0 FF FF 7F F0  FF FF 7F 66 64 6F 31 00  E..........fdo1.
0910: 80 55 0E 80 F0 FF FF 7F  F0 FF FF 7F 66 64 6F 31  .U..........fdo1
0920: 02 00 80 05 80 00 87 09  02 05 00 05 80 80 3F 09  ..............?.
0930: 47 00 00 80 00 80 00 80  00 80 47 01 01 84 09 02  G.........G.....
0940: 05 00 09 80 80 56 09 47  00 00 80 00 80 00 80 00  .....V.G........
0950: 80 47 01 01 84 09 02 05  00 0A 80 80 6D 09 47 00  .G..........m.G.
0960: 00 80 00 80 00 80 00 80  47 01 01 84 09 02 05 00  ........G.......
0970: 0B 80 80 84 09 47 00 00  80 00 80 00 80 00 80 47  .....G.........G
0980: 01 01 84 09 01 90 0A 02  20 00 37 80 80 11 0A 02  ........ .7.....
0990: 21 00 00 80 80 A6 09 47  00 38 80 39 80 3A 80 3B  !......G.8.9.:.;
09A0: 80 47 01 01 0E 0A 02 21  00 05 80 80 BD 09 47 00  .G.....!......G.
09B0: 3C 80 3D 80 3E 80 3F 80  47 01 01 0E 0A 02 21 00  <.=.>.?.G.....!.
09C0: 09 80 80 D4 09 47 00 40  80 41 80 42 80 43 80 47  .....G.@.A.B.C.G
09D0: 01 01 0E 0A 02 21 00 0A  80 80 EB 09 47 00 44 80  .....!......G.D.
09E0: 45 80 46 80 47 80 47 01  01 0E 0A 02 21 00 0B 80  E.F.G.G.....!...
09F0: 80 02 0A 47 00 48 80 49  80 4A 80 4B 80 47 01 01  ...G.H.I.J.K.G..
0A00: 0E 0A 47 00 4C 80 4D 80  4E 80 4F 80 47 01 01 90  ..G.L.M.N.O.G...
0A10: 0A 02 20 00 18 80 80 84  0A 02 21 00 05 80 80 30  .. .......!....0
0A20: 0A 47 00 50 80 51 80 52  80 53 80 47 01 01 81 0A  .G.P.Q.R.S.G....
0A30: 02 21 00 09 80 80 47 0A  47 00 54 80 55 80 56 80  .!....G.G.T.U.V.
0A40: 57 80 47 01 01 81 0A 02  21 00 0A 80 80 5E 0A 47  W.G.....!....^.G
0A50: 00 58 80 59 80 5A 80 5B  80 47 01 01 81 0A 02 21  .X.Y.Z.[.G.....!
0A60: 00 0B 80 80 75 0A 47 00  5C 80 5D 80 5E 80 5F 80  ....u.G.\.].^._.
0A70: 47 01 01 81 0A 47 00 4C  80 4D 80 4E 80 4F 80 47  G....G.L.M.N.O.G
0A80: 01 01 90 0A 47 00 4C 80  4D 80 4E 80 4F 80 47 01  ....G.L.M.N.O.G.
0A90: 38 0F 80 1A D6 1A 45 35  80 F0 FF FF 7F F0 FF FF  8.....E5........
0AA0: 7F 77 68 69 31 00 80 45  0E 80 F0 FF FF 7F F0 FF  .whi1..E........
0AB0: FF 7F 62 6C 6F 66 00 80  5C 00 36 80 5C 01 36 80  ..blof..\.6.\.6.
0AC0: 5C 02 33 80 5C 03 33 80  21 00                    \.3.\.3.!.      
```

#### Opcodes

```
  0: 0x08DC [0x03] ExtData[1]->WorkLocal[5] = Work_Zone[6]
  1: 0x08E1 [0x03] ExtData[1]->WorkLocal[33] = Work_Zone[7]
  2: 0x08E6 [0x03] ExtData[1]->WorkLocal[32] = Work_Zone[8]
  3: 0x08EB [0x20] SET_CLI_EVENT_UC_FLAG: Lock player control
  4: 0x08ED [0x42] SET_CLI_EVENT_CANCEL_DATA()
  5: 0x08EE [0x3B] GET_ENTITY_POSITION(entity=LocalPlayer, x_destination=Work_Zone[32], y_destination=Work_Zone[33], z_destination=Work_Zone[34])
  6: 0x08F9 [0x3A] CONVERT_YAW_TO_BYTE(entity=LocalPlayer, result_destination=Work_Zone[35])
  7: 0x0900 [0x45] LOAD_SCHEDULED_TASK: Load scheduler "fdo1" with entities [LocalPlayer, LocalPlayer], work=[200*, 0*]
  8: 0x0911 [0x55] WAIT_LOAD_SCHEDULER: Wait for scheduler "fdo1" with entities [LocalPlayer, LocalPlayer], work=200*
  9: 0x0920 [0x02] IF !(0* == 1*) GOTO 0x0987
 10: 0x0928 [0x02] IF !(ExtData[1]->WorkLocal[5] == 1*) GOTO 0x093F
 11: 0x0930 [0x47] UPDATE_PLAYER_POS(0.000*, 0.000*, 0.000*, yaw=0.0°*)
 12: 0x093A [0x47] WAIT_PLAYER_POS_UPDATE
 13: 0x093C [0x01] GOTO 0x0984
 14: 0x093F [0x02] IF !(ExtData[1]->WorkLocal[5] == 2*) GOTO 0x0956
 15: 0x0947 [0x47] UPDATE_PLAYER_POS(0.000*, 0.000*, 0.000*, yaw=0.0°*)
 16: 0x0951 [0x47] WAIT_PLAYER_POS_UPDATE
 17: 0x0953 [0x01] GOTO 0x0984
 18: 0x0956 [0x02] IF !(ExtData[1]->WorkLocal[5] == 3*) GOTO 0x096D
 19: 0x095E [0x47] UPDATE_PLAYER_POS(0.000*, 0.000*, 0.000*, yaw=0.0°*)
 20: 0x0968 [0x47] WAIT_PLAYER_POS_UPDATE
 21: 0x096A [0x01] GOTO 0x0984
 22: 0x096D [0x02] IF !(ExtData[1]->WorkLocal[5] == 4*) GOTO 0x0984
 23: 0x0975 [0x47] UPDATE_PLAYER_POS(0.000*, 0.000*, 0.000*, yaw=0.0°*)
 24: 0x097F [0x47] WAIT_PLAYER_POS_UPDATE
 25: 0x0981 [0x01] GOTO 0x0984

SUBROUTINE_0984:
 26: 0x0984 [0x01] GOTO 0x0A90
 27: 0x0987 [0x02] IF !(ExtData[1]->WorkLocal[32] == 180*) GOTO 0x0A11
 28: 0x098F [0x02] IF !(ExtData[1]->WorkLocal[33] == 0*) GOTO 0x09A6
 29: 0x0997 [0x47] UPDATE_PLAYER_POS(-605.141*, 479.929*, -22.681*, yaw=87.2°*)
 30: 0x09A1 [0x47] WAIT_PLAYER_POS_UPDATE
 31: 0x09A3 [0x01] GOTO 0x0A0E
 32: 0x09A6 [0x02] IF !(ExtData[1]->WorkLocal[33] == 1*) GOTO 0x09BD
 33: 0x09AE [0x47] UPDATE_PLAYER_POS(-262.589*, 377.857*, -137.313*, yaw=305.3°*)
 34: 0x09B8 [0x47] WAIT_PLAYER_POS_UPDATE
 35: 0x09BA [0x01] GOTO 0x0A0E
 36: 0x09BD [0x02] IF !(ExtData[1]->WorkLocal[33] == 2*) GOTO 0x09D4
 37: 0x09C5 [0x47] UPDATE_PLAYER_POS(18.348*, 486.940*, -224.334*, yaw=17.1°*)
 38: 0x09CF [0x47] WAIT_PLAYER_POS_UPDATE
 39: 0x09D1 [0x01] GOTO 0x0A0E
 40: 0x09D4 [0x02] IF !(ExtData[1]->WorkLocal[33] == 3*) GOTO 0x09EB
 41: 0x09DC [0x47] UPDATE_PLAYER_POS(231.593*, 360.094*, -173.572*, yaw=160.8°*)
 42: 0x09E6 [0x47] WAIT_PLAYER_POS_UPDATE
 43: 0x09E8 [0x01] GOTO 0x0A0E
 44: 0x09EB [0x02] IF !(ExtData[1]->WorkLocal[33] == 4*) GOTO 0x0A02
 45: 0x09F3 [0x47] UPDATE_PLAYER_POS(553.664*, 523.939*, -38.205*, yaw=233.9°*)
 46: 0x09FD [0x47] WAIT_PLAYER_POS_UPDATE
 47: 0x09FF [0x01] GOTO 0x0A0E
 48: 0x0A02 [0x47] UPDATE_PLAYER_POS(612.057*, 776.920*, 132.662*, yaw=264.8°*)
 49: 0x0A0C [0x47] WAIT_PLAYER_POS_UPDATE

SUBROUTINE_0A0E:
 50: 0x0A0E [0x01] GOTO 0x0A90
 51: 0x0A11 [0x02] IF !(ExtData[1]->WorkLocal[32] == 6*) GOTO 0x0A84
 52: 0x0A19 [0x02] IF !(ExtData[1]->WorkLocal[33] == 1*) GOTO 0x0A30
 53: 0x0A21 [0x47] UPDATE_PLAYER_POS(-875.117*, -43.892*, -48.084*, yaw=45.1°*)
 54: 0x0A2B [0x47] WAIT_PLAYER_POS_UPDATE
 55: 0x0A2D [0x01] GOTO 0x0A81
 56: 0x0A30 [0x02] IF !(ExtData[1]->WorkLocal[33] == 2*) GOTO 0x0A47
 57: 0x0A38 [0x47] UPDATE_PLAYER_POS(-755.499*, 563.947*, -112.035*, yaw=313.5°*)
 58: 0x0A42 [0x47] WAIT_PLAYER_POS_UPDATE
 59: 0x0A44 [0x01] GOTO 0x0A81
 60: 0x0A47 [0x02] IF !(ExtData[1]->WorkLocal[33] == 3*) GOTO 0x0A5E
 61: 0x0A4F [0x47] UPDATE_PLAYER_POS(123.251*, 754.209*, -172.124*, yaw=38.7°*)
 62: 0x0A59 [0x47] WAIT_PLAYER_POS_UPDATE
 63: 0x0A5B [0x01] GOTO 0x0A81
 64: 0x0A5E [0x02] IF !(ExtData[1]->WorkLocal[33] == 4*) GOTO 0x0A75
 65: 0x0A66 [0x47] UPDATE_PLAYER_POS(-516.404*, -803.323*, 24.206*, yaw=38.4°*)
 66: 0x0A70 [0x47] WAIT_PLAYER_POS_UPDATE
 67: 0x0A72 [0x01] GOTO 0x0A81
 68: 0x0A75 [0x47] UPDATE_PLAYER_POS(612.057*, 776.920*, 132.662*, yaw=264.8°*)
 69: 0x0A7F [0x47] WAIT_PLAYER_POS_UPDATE

SUBROUTINE_0A81:
 70: 0x0A81 [0x01] GOTO 0x0A90
 71: 0x0A84 [0x47] UPDATE_PLAYER_POS(612.057*, 776.920*, 132.662*, yaw=264.8°*)
 72: 0x0A8E [0x47] WAIT_PLAYER_POS_UPDATE

SUBROUTINE_0A90:
 73: 0x0A90 [0x38] SET_CLIENT_EVENT_MODE(mode=19*)
 74: 0x0A93 [0x1A] CALL_SUBROUTINE(address=0x1AD6)
 75: 0x0A96 [0x45] LOAD_SCHEDULED_TASK: Load scheduler "whi1" with entities [LocalPlayer, LocalPlayer], work=[201*, 0*]
 76: 0x0AA7 [0x45] LOAD_SCHEDULED_TASK: Load scheduler "blof" with entities [LocalPlayer, LocalPlayer], work=[200*, 0*]
 77: 0x0AB8 [0x5C] MUSIC_CONTROL: Set Idle (Day) music to song 245*
 78: 0x0ABC [0x5C] MUSIC_CONTROL: Set Idle (Night) music to song 245*
 79: 0x0AC0 [0x5C] MUSIC_CONTROL: Set Combat (Solo) music to song 220*
 80: 0x0AC4 [0x5C] MUSIC_CONTROL: Set Combat (Party) music to song 220*
 81: 0x0AC8 [0x21] END_EVENT
 82: 0x0AC9 [0x00] END_REQSTACK()
```

### Event 32001

#### Metadata

| Field        | Value      |
|--------------|------------|
| Entrypoint   | 0x0ACA     |
| Data Size    | 1033 bytes |
| Instructions | 177        |

```
      00 01 02 03 04 05 06 07  08 09 0A 0B 0C 0D 0E 0F
      -- -- -- -- -- -- -- --  -- -- -- -- -- -- -- --
0AC0:                                79 00 F0 FF FF 7F            y.....
0AD0: F0 FF FF 7F 03 21 00 02  10 03 1A 00 03 10 03 1B  .....!..........
0AE0: 00 05 10 03 20 00 06 10  03 19 00 07 10 03 17 00  .... ...........
0AF0: 08 10 02 17 00 0A 80 04  FF 0A 03 17 00 00 80 03  ................
0B00: 1C 00 09 10 20 01 42 3B  F0 FF FF 7F 20 10 21 10  .... .B;.... .!.
0B10: 22 10 3A F0 FF FF 7F 23  10 02 20 00 37 80 01 24  ".:....#.. .7..$
0B20: 0B 1C 60 80 45 35 80 F0  FF FF 7F F0 FF FF 7F 77  ..`.E5.........w
0B30: 68 69 31 00 80 45 0E 80  F0 FF FF 7F F0 FF FF 7F  hi1..E..........
0B40: 62 6C 6F 66 00 80 45 0E  80 F0 FF FF 7F F0 FF FF  blof..E.........
0B50: 7F 66 64 6F 31 00 80 55  0E 80 F0 FF FF 7F F0 FF  .fdo1..U........
0B60: FF 7F 66 64 6F 31 6C F0  FF FF 7F 61 80 05 80 06  ..fdo1l....a....
0B70: 01 10 02 17 00 00 80 03  7D 0B 01 CB 0C 02 20 00  ........}..... .
0B80: 37 80 80 07 0C 02 21 00  00 80 80 9C 0B 47 00 62  7.....!......G.b
0B90: 80 63 80 64 80 65 80 47  01 01 04 0C 02 21 00 05  .c.d.e.G.....!..
0BA0: 80 80 B3 0B 47 00 66 80  67 80 68 80 69 80 47 01  ....G.f.g.h.i.G.
0BB0: 01 04 0C 02 21 00 09 80  80 CA 0B 47 00 6A 80 6B  ....!......G.j.k
0BC0: 80 6C 80 6D 80 47 01 01  04 0C 02 21 00 0A 80 80  .l.m.G.....!....
0BD0: E1 0B 47 00 6E 80 6F 80  70 80 71 80 47 01 01 04  ..G.n.o.p.q.G...
0BE0: 0C 02 21 00 0B 80 80 F8  0B 47 00 72 80 73 80 74  ..!......G.r.s.t
0BF0: 80 75 80 47 01 01 04 0C  47 00 4C 80 4D 80 4E 80  .u.G....G.L.M.N.
0C00: 4F 80 47 01 01 CB 0C 02  20 00 76 80 80 35 0C 02  O.G..... .v..5..
0C10: 19 00 00 80 80 26 0C 47  00 4C 80 4D 80 4E 80 4F  .....&.G.L.M.N.O
0C20: 80 47 01 01 32 0C 47 00  77 80 78 80 79 80 7A 80  .G..2.G.w.x.y.z.
0C30: 47 01 01 CB 0C 02 20 00  7B 80 80 63 0C 02 19 00  G..... .{..c....
0C40: 0B 80 80 54 0C 47 00 7C  80 7D 80 7E 80 7F 80 47  ...T.G.|.}.~...G
0C50: 01 01 60 0C 47 00 4C 80  4D 80 4E 80 4F 80 47 01  ..`.G.L.M.N.O.G.
0C60: 01 CB 0C 02 20 00 80 80  80 91 0C 02 19 00 0B 80  .... ...........
0C70: 80 82 0C 47 00 81 80 82  80 83 80 84 80 47 01 01  ...G.........G..
0C80: 8E 0C 47 00 4C 80 4D 80  4E 80 4F 80 47 01 01 CB  ..G.L.M.N.O.G...
0C90: 0C 02 20 00 85 80 80 BF  0C 02 19 00 0A 80 80 B0  .. .............
0CA0: 0C 47 00 86 80 87 80 88  80 89 80 47 01 01 BC 0C  .G.........G....
0CB0: 47 00 4C 80 4D 80 4E 80  4F 80 47 01 01 CB 0C 47  G.L.M.N.O.G....G
0CC0: 00 4C 80 4D 80 4E 80 4F  80 47 01 38 0F 80 02 17  .L.M.N.O.G.8....
0CD0: 00 09 80 00 D9 0C 01 F4  0C 02 17 00 05 80 00 A4  ................
0CE0: 0D 1C 01 80 24 32 80 05  80 00 80 25 02 00 10 00  ....$2.....%....
0CF0: 80 00 A4 0D 02 20 00 37  80 00 60 0D 02 21 00 00  ..... .7..`..!..
0D00: 80 80 0E 0D 36 62 80 63  80 64 80 01 5D 0D 02 21  ....6b.c.d..]..!
0D10: 00 05 80 80 20 0D 36 66  80 67 80 68 80 01 5D 0D  .... .6f.g.h..].
0D20: 02 21 00 09 80 80 32 0D  36 6A 80 6B 80 6C 80 01  .!....2.6j.k.l..
0D30: 5D 0D 02 21 00 0A 80 80  44 0D 36 6E 80 6F 80 70  ]..!....D.6n.o.p
0D40: 80 01 5D 0D 02 21 00 0B  80 80 56 0D 36 72 80 73  ..]..!....V.6r.s
0D50: 80 74 80 01 5D 0D 36 4C  80 4D 80 4E 80 01 69 0D  .t..].6L.M.N..i.
0D60: 37 4C 80 4D 80 4E 80 4F  80 80 F0 FF FF 7F 62 09  7L.M.N.O......b.
0D70: 80 F0 FF FF 7F F0 FF FF  7F 6D 61 69 6E 00 80 45  .........main..E
0D80: 0E 80 F0 FF FF 7F F0 FF  FF 7F 66 64 69 32 00 80  ..........fdi2..
0D90: 46 02 12 00 02 12 00 00  80 00 9E 0D 46 00 01 CB  F...........F...
0DA0: 0D 01 A4 0D 02 17 00 04  80 04 BD 0D 5C 00 33 80  ............\.3.
0DB0: 5C 01 33 80 5C 02 33 80  5C 03 33 80 9A 1A 97 17  \.3.\.3.\.3.....
0DC0: 02 17 00 00 80 03 CB 0D  01 6B 0E 02 20 00 8A 80  .........k.. ...
0DD0: 80 D6 0D 01 D6 0D 02 20  00 1E 80 80 E1 0D 01 6B  ....... .......k
0DE0: 0E 02 20 00 0F 80 80 EC  0D 01 6B 0E 02 20 00 21  .. .......k.. .!
0DF0: 80 80 F7 0D 01 6B 0E 02  20 00 23 80 80 02 0E 01  .....k.. .#.....
0E00: 6B 0E 03 05 10 1B 00 02  05 10 00 80 02 6B 0E 02  k............k..
0E10: 05 10 2E 80 04 2A 0E 3F  04 10 05 10 2E 80 15 05  .....*.?........
0E20: 10 2E 80 48 8B 80 23 01  2E 0E 48 8C 80 23 02 1B  ...H..#...H..#..
0E30: 00 1A 00 05 42 0E 03 07  10 19 00 48 8D 80 23 01  ....B......H..#.
0E40: 6B 0E 02 1A 00 2E 80 04  62 0E 03 05 10 1A 00 3F  k.......b......?
0E50: 04 10 05 10 2E 80 15 05  10 2E 80 48 8E 80 23 01  ...........H..#.
0E60: 6B 0E 03 05 10 1A 00 48  8F 80 23 02 18 00 00 80  k......H..#.....
0E70: 00 83 0E 5C 00 36 80 5C  01 36 80 5C 02 33 80 5C  ...\.6.\.6.\.3.\
0E80: 03 33 80 02 17 00 00 80  03 AC 0E 45 0E 80 F0 FF  .3.........E....
0E90: FF 7F F0 FF FF 7F 66 64  69 32 00 80 5C 00 36 80  ......fdi2..\.6.
0EA0: 5C 01 36 80 5C 02 33 80  5C 03 33 80 06 18 00 45  \.6.\.3.\.3....E
0EB0: 35 80 F0 FF FF 7F F0 FF  FF 7F 77 68 69 31 00 80  5.........whi1..
0EC0: 45 0E 80 F0 FF FF 7F F0  FF FF 7F 62 6C 6F 66 00  E..........blof.
0ED0: 80 21 00                                          .!.             
```

#### Opcodes

```
  0: 0x0ACA [0x79] LocalPlayer looks at LocalPlayer (Basic look)
  1: 0x0AD4 [0x03] ExtData[1]->WorkLocal[33] = Work_Zone[2]
  2: 0x0AD9 [0x03] ExtData[1]->WorkLocal[26] = Work_Zone[3]
  3: 0x0ADE [0x03] ExtData[1]->WorkLocal[27] = Work_Zone[5]
  4: 0x0AE3 [0x03] ExtData[1]->WorkLocal[32] = Work_Zone[6]
  5: 0x0AE8 [0x03] ExtData[1]->WorkLocal[25] = Work_Zone[7]
  6: 0x0AED [0x03] ExtData[1]->WorkLocal[23] = Work_Zone[8]
  7: 0x0AF2 [0x02] IF !(ExtData[1]->WorkLocal[23] < 3*) GOTO 0x0AFF
  8: 0x0AFA [0x03] ExtData[1]->WorkLocal[23] = 0*
  9: 0x0AFF [0x03] ExtData[1]->WorkLocal[28] = Work_Zone[9]
 10: 0x0B04 [0x20] SET_CLI_EVENT_UC_FLAG: Lock player control
 11: 0x0B06 [0x42] SET_CLI_EVENT_CANCEL_DATA()
 12: 0x0B07 [0x3B] GET_ENTITY_POSITION(entity=LocalPlayer, x_destination=Work_Zone[32], y_destination=Work_Zone[33], z_destination=Work_Zone[34])
 13: 0x0B12 [0x3A] CONVERT_YAW_TO_BYTE(entity=LocalPlayer, result_destination=Work_Zone[35])
 14: 0x0B19 [0x02] IF !(ExtData[1]->WorkLocal[32] == 180*) GOTO 0x0B24
 15: 0x0B21 [0x1C] WAIT(300* ticks)
 16: 0x0B24 [0x45] LOAD_SCHEDULED_TASK: Load scheduler "whi1" with entities [LocalPlayer, LocalPlayer], work=[201*, 0*]
 17: 0x0B35 [0x45] LOAD_SCHEDULED_TASK: Load scheduler "blof" with entities [LocalPlayer, LocalPlayer], work=[200*, 0*]
 18: 0x0B46 [0x45] LOAD_SCHEDULED_TASK: Load scheduler "fdo1" with entities [LocalPlayer, LocalPlayer], work=[200*, 0*]
 19: 0x0B57 [0x55] WAIT_LOAD_SCHEDULER: Wait for scheduler "fdo1" with entities [LocalPlayer, LocalPlayer], work=200*
 20: 0x0B66 [0x6C] FADE_ENTITY_COLOR(entity_id=LocalPlayer, end_alpha=128*, fade_time=1*)
 21: 0x0B6F [0x06] Work_Zone[1] = 0
 22: 0x0B72 [0x02] IF !(ExtData[1]->WorkLocal[23] >= 0*) GOTO 0x0B7D
 23: 0x0B7A [0x01] GOTO 0x0CCB
 24: 0x0B7D [0x02] IF !(ExtData[1]->WorkLocal[32] == 180*) GOTO 0x0C07
 25: 0x0B85 [0x02] IF !(ExtData[1]->WorkLocal[33] == 0*) GOTO 0x0B9C
 26: 0x0B8D [0x47] UPDATE_PLAYER_POS(-618.329*, -643.868*, -25.805*, yaw=330.5°*)
 27: 0x0B97 [0x47] WAIT_PLAYER_POS_UPDATE
 28: 0x0B99 [0x01] GOTO 0x0C04
 29: 0x0B9C [0x02] IF !(ExtData[1]->WorkLocal[33] == 1*) GOTO 0x0BB3
 30: 0x0BA4 [0x47] UPDATE_PLAYER_POS(-332.163*, -441.914*, -95.055*, yaw=330.5°*)
 31: 0x0BAE [0x47] WAIT_PLAYER_POS_UPDATE
 32: 0x0BB0 [0x01] GOTO 0x0C04
 33: 0x0BB3 [0x02] IF !(ExtData[1]->WorkLocal[33] == 2*) GOTO 0x0BCA
 34: 0x0BBB [0x47] UPDATE_PLAYER_POS(-12.464*, -648.377*, -194.629*, yaw=331.3°*)
 35: 0x0BC5 [0x47] WAIT_PLAYER_POS_UPDATE
 36: 0x0BC7 [0x01] GOTO 0x0C04
 37: 0x0BCA [0x02] IF !(ExtData[1]->WorkLocal[33] == 3*) GOTO 0x0BE1
 38: 0x0BD2 [0x47] UPDATE_PLAYER_POS(323.381*, -443.793*, -108.440*, yaw=329.1°*)
 39: 0x0BDC [0x47] WAIT_PLAYER_POS_UPDATE
 40: 0x0BDE [0x01] GOTO 0x0C04
 41: 0x0BE1 [0x02] IF !(ExtData[1]->WorkLocal[33] == 4*) GOTO 0x0BF8
 42: 0x0BE9 [0x47] UPDATE_PLAYER_POS(599.907*, -676.969*, -22.473*, yaw=330.7°*)
 43: 0x0BF3 [0x47] WAIT_PLAYER_POS_UPDATE
 44: 0x0BF5 [0x01] GOTO 0x0C04
 45: 0x0BF8 [0x47] UPDATE_PLAYER_POS(612.057*, 776.920*, 132.662*, yaw=264.8°*)
 46: 0x0C02 [0x47] WAIT_PLAYER_POS_UPDATE

SUBROUTINE_0C04:
 47: 0x0C04 [0x01] GOTO 0x0CCB
 48: 0x0C07 [0x02] IF !(ExtData[1]->WorkLocal[32] == 168*) GOTO 0x0C35
 49: 0x0C0F [0x02] IF !(ExtData[1]->WorkLocal[25] == 0*) GOTO 0x0C26
 50: 0x0C17 [0x47] UPDATE_PLAYER_POS(612.057*, 776.920*, 132.662*, yaw=264.8°*)
 51: 0x0C21 [0x47] WAIT_PLAYER_POS_UPDATE
 52: 0x0C23 [0x01] GOTO 0x0C32
 53: 0x0C26 [0x47] UPDATE_PLAYER_POS(200.059*, -21.958*, -0.250*, yaw=91.5°*)
 54: 0x0C30 [0x47] WAIT_PLAYER_POS_UPDATE

SUBROUTINE_0C32:
 55: 0x0C32 [0x01] GOTO 0x0CCB
 56: 0x0C35 [0x02] IF !(ExtData[1]->WorkLocal[32] == 202*) GOTO 0x0C63
 57: 0x0C3D [0x02] IF !(ExtData[1]->WorkLocal[25] == 4*) GOTO 0x0C54
 58: 0x0C45 [0x47] UPDATE_PLAYER_POS(538.604*, 501.900*, -13.942*, yaw=286.5°*)
 59: 0x0C4F [0x47] WAIT_PLAYER_POS_UPDATE
 60: 0x0C51 [0x01] GOTO 0x0C60
 61: 0x0C54 [0x47] UPDATE_PLAYER_POS(612.057*, 776.920*, 132.662*, yaw=264.8°*)
 62: 0x0C5E [0x47] WAIT_PLAYER_POS_UPDATE

SUBROUTINE_0C60:
 63: 0x0C60 [0x01] GOTO 0x0CCB
 64: 0x0C63 [0x02] IF !(ExtData[1]->WorkLocal[32] == 203*) GOTO 0x0C91
 65: 0x0C6B [0x02] IF !(ExtData[1]->WorkLocal[25] == 4*) GOTO 0x0C82
 66: 0x0C73 [0x47] UPDATE_PLAYER_POS(553.205*, 589.633*, -0.021*, yaw=124.4°*)
 67: 0x0C7D [0x47] WAIT_PLAYER_POS_UPDATE
 68: 0x0C7F [0x01] GOTO 0x0C8E
 69: 0x0C82 [0x47] UPDATE_PLAYER_POS(612.057*, 776.920*, 132.662*, yaw=264.8°*)
 70: 0x0C8C [0x47] WAIT_PLAYER_POS_UPDATE

SUBROUTINE_0C8E:
 71: 0x0C8E [0x01] GOTO 0x0CCB
 72: 0x0C91 [0x02] IF !(ExtData[1]->WorkLocal[32] == 211*) GOTO 0x0CBF
 73: 0x0C99 [0x02] IF !(ExtData[1]->WorkLocal[25] == 3*) GOTO 0x0CB0
 74: 0x0CA1 [0x47] UPDATE_PLAYER_POS(569.224*, 548.462*, 36.837*, yaw=59.1°*)
 75: 0x0CAB [0x47] WAIT_PLAYER_POS_UPDATE
 76: 0x0CAD [0x01] GOTO 0x0CBC
 77: 0x0CB0 [0x47] UPDATE_PLAYER_POS(612.057*, 776.920*, 132.662*, yaw=264.8°*)
 78: 0x0CBA [0x47] WAIT_PLAYER_POS_UPDATE

SUBROUTINE_0CBC:
 79: 0x0CBC [0x01] GOTO 0x0CCB
 80: 0x0CBF [0x47] UPDATE_PLAYER_POS(612.057*, 776.920*, 132.662*, yaw=264.8°*)
 81: 0x0CC9 [0x47] WAIT_PLAYER_POS_UPDATE

SUBROUTINE_0CCB:
 82: 0x0CCB [0x38] SET_CLIENT_EVENT_MODE(mode=19*)
 83: 0x0CCE [0x02] IF !(ExtData[1]->WorkLocal[23] == 2*) GOTO 0x0CD9
 84: 0x0CD6 [0x01] GOTO 0x0CF4
 85: 0x0CD9 [0x02] IF !(ExtData[1]->WorkLocal[23] == 1*) GOTO 0x0DA4
 86: 0x0CE1 [0x1C] WAIT(15* ticks)
 87: 0x0CE4 [0x24] CREATE_DIALOG(message_id=7407*, default_option=1*, option_flags=0*)
    → "Skip the event? [Yes./No.]"
 88: 0x0CEB [0x25] WAIT_DIALOG_SELECT()
 89: 0x0CEC [0x02] IF !(Work_Zone[0] == 0*) GOTO 0x0DA4

SUBROUTINE_0CF4:
 90: 0x0CF4 [0x02] IF !(ExtData[1]->WorkLocal[32] == 180*) GOTO 0x0D60
 91: 0x0CFC [0x02] IF !(ExtData[1]->WorkLocal[33] == 0*) GOTO 0x0D0E
 92: 0x0D04 [0x36] SET_ENTITY_EVENT_POSITION(pos_x=-618.329*, pos_z=-643.868*, pos_y=-25.805*)
 93: 0x0D0B [0x01] GOTO 0x0D5D
 94: 0x0D0E [0x02] IF !(ExtData[1]->WorkLocal[33] == 1*) GOTO 0x0D20
 95: 0x0D16 [0x36] SET_ENTITY_EVENT_POSITION(pos_x=-332.163*, pos_z=-441.914*, pos_y=-95.055*)
 96: 0x0D1D [0x01] GOTO 0x0D5D
 97: 0x0D20 [0x02] IF !(ExtData[1]->WorkLocal[33] == 2*) GOTO 0x0D32
 98: 0x0D28 [0x36] SET_ENTITY_EVENT_POSITION(pos_x=-12.464*, pos_z=-648.377*, pos_y=-194.629*)
 99: 0x0D2F [0x01] GOTO 0x0D5D
100: 0x0D32 [0x02] IF !(ExtData[1]->WorkLocal[33] == 3*) GOTO 0x0D44
101: 0x0D3A [0x36] SET_ENTITY_EVENT_POSITION(pos_x=323.381*, pos_z=-443.793*, pos_y=-108.440*)
102: 0x0D41 [0x01] GOTO 0x0D5D
103: 0x0D44 [0x02] IF !(ExtData[1]->WorkLocal[33] == 4*) GOTO 0x0D56
104: 0x0D4C [0x36] SET_ENTITY_EVENT_POSITION(pos_x=599.907*, pos_z=-676.969*, pos_y=-22.473*)
105: 0x0D53 [0x01] GOTO 0x0D5D
106: 0x0D56 [0x36] SET_ENTITY_EVENT_POSITION(pos_x=612.057*, pos_z=776.920*, pos_y=132.662*)

SUBROUTINE_0D5D:
107: 0x0D5D [0x01] GOTO 0x0D69
108: 0x0D60 [0x37] UPDATE_EVENT_POSITION_AND_DIR: x=612.057*, z=776.920*, y=132.662*, direction=264.8°*

SUBROUTINE_0D69:
109: 0x0D69 [0x80] LOAD_WAIT(entity=LocalPlayer)
110: 0x0D6E [0x62] LOAD_EVENT_SCHEDULER: Load scheduler "main" with entities [LocalPlayer, LocalPlayer], work=[2*, 0*]
111: 0x0D7F [0x45] LOAD_SCHEDULED_TASK: Load scheduler "fdi2" with entities [LocalPlayer, LocalPlayer], work=[200*, 0*]
112: 0x0D90 [0x46] CAMERA_CONTROL: Query status
113: 0x0D92 [0x12] 0x0200 = rand()
114: 0x0D95 [0x12] ExtData[1]->WorkLocal[0] = rand()
115: 0x0D98 [0x80] LOAD_WAIT(entity=Unknown NPC (ID: 1175297536/0x460D9E00))
116: 0x0D9D [0x00] END_REQSTACK()

SUBROUTINE_0DA4:
117: 0x0DA4 [0x02] IF !(ExtData[1]->WorkLocal[23] < 4294967295*) GOTO 0x0DBD
118: 0x0DAC [0x5C] MUSIC_CONTROL: Set Idle (Day) music to song 220*
119: 0x0DB0 [0x5C] MUSIC_CONTROL: Set Idle (Night) music to song 220*
120: 0x0DB4 [0x5C] MUSIC_CONTROL: Set Combat (Solo) music to song 220*
121: 0x0DB8 [0x5C] MUSIC_CONTROL: Set Combat (Party) music to song 220*
122: 0x0DBC [0x9A] WAIT_MUSIC_SERVER()
123: 0x0DBD [0x1A] CALL_SUBROUTINE(address=0x1797)
124: 0x0DC0 [0x02] IF !(ExtData[1]->WorkLocal[23] >= 0*) GOTO 0x0DCB
125: 0x0DC8 [0x01] GOTO 0x0E6B

SUBROUTINE_0DCB:
126: 0x0DCB [0x02] IF !(ExtData[1]->WorkLocal[32] == 36*) GOTO 0x0DD6
127: 0x0DD3 [0x01] GOTO 0x0DD6

SUBROUTINE_0DD6:
128: 0x0DD6 [0x02] IF !(ExtData[1]->WorkLocal[32] == 17*) GOTO 0x0DE1
129: 0x0DDE [0x01] GOTO 0x0E6B
130: 0x0DE1 [0x02] IF !(ExtData[1]->WorkLocal[32] == 19*) GOTO 0x0DEC
131: 0x0DE9 [0x01] GOTO 0x0E6B
132: 0x0DEC [0x02] IF !(ExtData[1]->WorkLocal[32] == 21*) GOTO 0x0DF7
133: 0x0DF4 [0x01] GOTO 0x0E6B
134: 0x0DF7 [0x02] IF !(ExtData[1]->WorkLocal[32] == 23*) GOTO 0x0E02
135: 0x0DFF [0x01] GOTO 0x0E6B
136: 0x0E02 [0x03] Work_Zone[5] = ExtData[1]->WorkLocal[27]
137: 0x0E07 [0x02] IF !(Work_Zone[5] <= 0*) GOTO 0x0E6B
138: 0x0E0F [0x02] IF !(Work_Zone[5] < 60*) GOTO 0x0E2A
139: 0x0E17 [0x3F] Work_Zone[4] = Work_Zone[5] % 60*
140: 0x0E1E [0x15] Work_Zone[5] /= 60*
141: 0x0E23 [0x48] [System] [7409*]:
    → "Battlefield clear time: $3 minute[/s], $2 second[/s]!"
142: 0x0E26 [0x23] WAIT_FOR_DIALOG_INTERACTION
143: 0x0E27 [0x01] GOTO 0x0E2E
144: 0x0E2A [0x48] [System] [7408*]:
    → "Battlefield clear time: $3 second[/s]!"
145: 0x0E2D [0x23] WAIT_FOR_DIALOG_INTERACTION

SUBROUTINE_0E2E:
146: 0x0E2E [0x02] IF !(ExtData[1]->WorkLocal[27] > ExtData[1]->WorkLocal[26]) GOTO 0x0E42
147: 0x0E36 [0x03] Work_Zone[7] = ExtData[1]->WorkLocal[25]
148: 0x0E3B [0x48] [System] [7601*]:
    → "You have broken the clear time record for "[One to Be Feared/The Warrior's Path/$26The Warrior's Path/$26One to Be Feared]"!"
149: 0x0E3E [0x23] WAIT_FOR_DIALOG_INTERACTION
150: 0x0E3F [0x01] GOTO 0x0E6B
151: 0x0E42 [0x02] IF !(ExtData[1]->WorkLocal[26] < 60*) GOTO 0x0E62
152: 0x0E4A [0x03] Work_Zone[5] = ExtData[1]->WorkLocal[26]
153: 0x0E4F [0x3F] Work_Zone[4] = Work_Zone[5] % 60*
154: 0x0E56 [0x15] Work_Zone[5] /= 60*
155: 0x0E5B [0x48] [System] [7411*]:
    → "The current battlefield clear time record is $3 minute[/s] $2 second[/s]."
156: 0x0E5E [0x23] WAIT_FOR_DIALOG_INTERACTION
157: 0x0E5F [0x01] GOTO 0x0E6B
158: 0x0E62 [0x03] Work_Zone[5] = ExtData[1]->WorkLocal[26]
159: 0x0E67 [0x48] [System] [7410*]:
    → "The current battlefield clear time record is $3 second[/s]."
160: 0x0E6A [0x23] WAIT_FOR_DIALOG_INTERACTION

SUBROUTINE_0E6B:
161: 0x0E6B [0x02] IF !(ExtData[1]->WorkLocal[24] == 0*) GOTO 0x0E83
162: 0x0E73 [0x5C] MUSIC_CONTROL: Set Idle (Day) music to song 245*
163: 0x0E77 [0x5C] MUSIC_CONTROL: Set Idle (Night) music to song 245*
164: 0x0E7B [0x5C] MUSIC_CONTROL: Set Combat (Solo) music to song 220*
165: 0x0E7F [0x5C] MUSIC_CONTROL: Set Combat (Party) music to song 220*
166: 0x0E83 [0x02] IF !(ExtData[1]->WorkLocal[23] >= 0*) GOTO 0x0EAC
167: 0x0E8B [0x45] LOAD_SCHEDULED_TASK: Load scheduler "fdi2" with entities [LocalPlayer, LocalPlayer], work=[200*, 0*]
168: 0x0E9C [0x5C] MUSIC_CONTROL: Set Idle (Day) music to song 245*
169: 0x0EA0 [0x5C] MUSIC_CONTROL: Set Idle (Night) music to song 245*
170: 0x0EA4 [0x5C] MUSIC_CONTROL: Set Combat (Solo) music to song 220*
171: 0x0EA8 [0x5C] MUSIC_CONTROL: Set Combat (Party) music to song 220*
172: 0x0EAC [0x06] ExtData[1]->WorkLocal[24] = 0
173: 0x0EAF [0x45] LOAD_SCHEDULED_TASK: Load scheduler "whi1" with entities [LocalPlayer, LocalPlayer], work=[201*, 0*]
174: 0x0EC0 [0x45] LOAD_SCHEDULED_TASK: Load scheduler "blof" with entities [LocalPlayer, LocalPlayer], work=[200*, 0*]
175: 0x0ED1 [0x21] END_EVENT
176: 0x0ED2 [0x00] END_REQSTACK()
```

#### Data or dead code:

```
# Dead code (unreachable instructions):
     0x0D9E [0x01] GOTO 0x0DCB
     0x0DA1 [0x01] GOTO 0x0DA4
```

### Event 32003

#### Metadata

| Field        | Value     |
|--------------|-----------|
| Entrypoint   | 0x0ED3    |
| Data Size    | 435 bytes |
| Instructions | 77        |

```
      00 01 02 03 04 05 06 07  08 09 0A 0B 0C 0D 0E 0F
      -- -- -- -- -- -- -- --  -- -- -- -- -- -- -- --
0ED0:          06 1D 00 06 1E  00 03 21 00 06 10 03 20     .......!.... 
0EE0: 00 07 10 03 1F 00 08 10  06 01 10 1A D4 18 02 1D  ................
0EF0: 00 05 80 00 84 10 42 03  01 10 09 80 43 00 43 01  ......B.....C.C.
0F00: 03 01 10 0A 80 43 00 43  01 1A 59 19 02 1E 00 05  .....C.C..Y.....
0F10: 80 00 84 10 45 0E 80 F0  FF FF 7F F0 FF FF 7F 66  ....E..........f
0F20: 64 6F 31 00 80 55 0E 80  F0 FF FF 7F F0 FF FF 7F  do1..U..........
0F30: 66 64 6F 31 03 01 10 0B  80 02 20 00 37 80 80 C3  fdo1...... .7...
0F40: 0F 02 21 00 00 80 80 58  0F 47 00 38 80 39 80 3A  ..!....X.G.8.9.:
0F50: 80 3B 80 47 01 01 C0 0F  02 21 00 05 80 80 6F 0F  .;.G.....!....o.
0F60: 47 00 3C 80 3D 80 3E 80  3F 80 47 01 01 C0 0F 02  G.<.=.>.?.G.....
0F70: 21 00 09 80 80 86 0F 47  00 40 80 41 80 42 80 43  !......G.@.A.B.C
0F80: 80 47 01 01 C0 0F 02 21  00 0A 80 80 9D 0F 47 00  .G.....!......G.
0F90: 44 80 45 80 46 80 47 80  47 01 01 C0 0F 02 21 00  D.E.F.G.G.....!.
0FA0: 0B 80 80 B4 0F 47 00 48  80 49 80 4A 80 4B 80 47  .....G.H.I.J.K.G
0FB0: 01 01 C0 0F 47 00 4C 80  4D 80 4E 80 4F 80 47 01  ....G.L.M.N.O.G.
0FC0: 01 42 10 02 20 00 18 80  80 36 10 02 1F 00 05 80  .B.. ....6......
0FD0: 80 E2 0F 47 00 50 80 51  80 52 80 53 80 47 01 01  ...G.P.Q.R.S.G..
0FE0: 33 10 02 1F 00 09 80 80  F9 0F 47 00 54 80 55 80  3.........G.T.U.
0FF0: 56 80 57 80 47 01 01 33  10 02 1F 00 0A 80 80 10  V.W.G..3........
1000: 10 47 00 58 80 59 80 5A  80 5B 80 47 01 01 33 10  .G.X.Y.Z.[.G..3.
1010: 02 1F 00 0B 80 80 27 10  47 00 5C 80 5D 80 5E 80  ......'.G.\.].^.
1020: 5F 80 47 01 01 33 10 47  00 4C 80 4D 80 4E 80 4F  _.G..3.G.L.M.N.O
1030: 80 47 01 01 42 10 47 00  4C 80 4D 80 4E 80 4F 80  .G..B.G.L.M.N.O.
1040: 47 01 38 0F 80 79 00 F0  FF FF 7F F0 FF FF 7F 1A  G.8..y..........
1050: 5D 19 45 35 80 F0 FF FF  7F F0 FF FF 7F 77 68 69  ].E5.........whi
1060: 31 00 80 45 0E 80 F0 FF  FF 7F F0 FF FF 7F 62 6C  1..E..........bl
1070: 6F 66 00 80 5C 00 36 80  5C 01 36 80 5C 02 33 80  of..\.6.\.6.\.3.
1080: 5C 03 33 80 21 00                                 \.3.!.          
```

#### Opcodes

```
  0: 0x0ED3 [0x06] ExtData[1]->WorkLocal[29] = 0
  1: 0x0ED6 [0x06] ExtData[1]->WorkLocal[30] = 0
  2: 0x0ED9 [0x03] ExtData[1]->WorkLocal[33] = Work_Zone[6]
  3: 0x0EDE [0x03] ExtData[1]->WorkLocal[32] = Work_Zone[7]
  4: 0x0EE3 [0x03] ExtData[1]->WorkLocal[31] = Work_Zone[8]
  5: 0x0EE8 [0x06] Work_Zone[1] = 0
  6: 0x0EEB [0x1A] CALL_SUBROUTINE(address=0x18D4)
  7: 0x0EEE [0x02] IF !(ExtData[1]->WorkLocal[29] == 1*) GOTO 0x1084
  8: 0x0EF6 [0x42] SET_CLI_EVENT_CANCEL_DATA()
  9: 0x0EF7 [0x03] Work_Zone[1] = 2*
 10: 0x0EFC [0x43] SEND_EVENT_UPDATE: Send pending tag to server (packet 0x005B)
 11: 0x0EFE [0x43] SEND_EVENT_UPDATE: Check pending flag (skip if not pending)
 12: 0x0F00 [0x03] Work_Zone[1] = 3*
 13: 0x0F05 [0x43] SEND_EVENT_UPDATE: Send pending tag to server (packet 0x005B)
 14: 0x0F07 [0x43] SEND_EVENT_UPDATE: Check pending flag (skip if not pending)
 15: 0x0F09 [0x1A] CALL_SUBROUTINE(address=0x1959)
 16: 0x0F0C [0x02] IF !(ExtData[1]->WorkLocal[30] == 1*) GOTO 0x1084
 17: 0x0F14 [0x45] LOAD_SCHEDULED_TASK: Load scheduler "fdo1" with entities [LocalPlayer, LocalPlayer], work=[200*, 0*]
 18: 0x0F25 [0x55] WAIT_LOAD_SCHEDULER: Wait for scheduler "fdo1" with entities [LocalPlayer, LocalPlayer], work=200*
 19: 0x0F34 [0x03] Work_Zone[1] = 4*
 20: 0x0F39 [0x02] IF !(ExtData[1]->WorkLocal[32] == 180*) GOTO 0x0FC3
 21: 0x0F41 [0x02] IF !(ExtData[1]->WorkLocal[33] == 0*) GOTO 0x0F58
 22: 0x0F49 [0x47] UPDATE_PLAYER_POS(-605.141*, 479.929*, -22.681*, yaw=87.2°*)
 23: 0x0F53 [0x47] WAIT_PLAYER_POS_UPDATE
 24: 0x0F55 [0x01] GOTO 0x0FC0
 25: 0x0F58 [0x02] IF !(ExtData[1]->WorkLocal[33] == 1*) GOTO 0x0F6F
 26: 0x0F60 [0x47] UPDATE_PLAYER_POS(-262.589*, 377.857*, -137.313*, yaw=305.3°*)
 27: 0x0F6A [0x47] WAIT_PLAYER_POS_UPDATE
 28: 0x0F6C [0x01] GOTO 0x0FC0
 29: 0x0F6F [0x02] IF !(ExtData[1]->WorkLocal[33] == 2*) GOTO 0x0F86
 30: 0x0F77 [0x47] UPDATE_PLAYER_POS(18.348*, 486.940*, -224.334*, yaw=17.1°*)
 31: 0x0F81 [0x47] WAIT_PLAYER_POS_UPDATE
 32: 0x0F83 [0x01] GOTO 0x0FC0
 33: 0x0F86 [0x02] IF !(ExtData[1]->WorkLocal[33] == 3*) GOTO 0x0F9D
 34: 0x0F8E [0x47] UPDATE_PLAYER_POS(231.593*, 360.094*, -173.572*, yaw=160.8°*)
 35: 0x0F98 [0x47] WAIT_PLAYER_POS_UPDATE
 36: 0x0F9A [0x01] GOTO 0x0FC0
 37: 0x0F9D [0x02] IF !(ExtData[1]->WorkLocal[33] == 4*) GOTO 0x0FB4
 38: 0x0FA5 [0x47] UPDATE_PLAYER_POS(553.664*, 523.939*, -38.205*, yaw=233.9°*)
 39: 0x0FAF [0x47] WAIT_PLAYER_POS_UPDATE
 40: 0x0FB1 [0x01] GOTO 0x0FC0
 41: 0x0FB4 [0x47] UPDATE_PLAYER_POS(612.057*, 776.920*, 132.662*, yaw=264.8°*)
 42: 0x0FBE [0x47] WAIT_PLAYER_POS_UPDATE

SUBROUTINE_0FC0:
 43: 0x0FC0 [0x01] GOTO 0x1042
 44: 0x0FC3 [0x02] IF !(ExtData[1]->WorkLocal[32] == 6*) GOTO 0x1036
 45: 0x0FCB [0x02] IF !(ExtData[1]->WorkLocal[31] == 1*) GOTO 0x0FE2
 46: 0x0FD3 [0x47] UPDATE_PLAYER_POS(-875.117*, -43.892*, -48.084*, yaw=45.1°*)
 47: 0x0FDD [0x47] WAIT_PLAYER_POS_UPDATE
 48: 0x0FDF [0x01] GOTO 0x1033
 49: 0x0FE2 [0x02] IF !(ExtData[1]->WorkLocal[31] == 2*) GOTO 0x0FF9
 50: 0x0FEA [0x47] UPDATE_PLAYER_POS(-755.499*, 563.947*, -112.035*, yaw=313.5°*)
 51: 0x0FF4 [0x47] WAIT_PLAYER_POS_UPDATE
 52: 0x0FF6 [0x01] GOTO 0x1033
 53: 0x0FF9 [0x02] IF !(ExtData[1]->WorkLocal[31] == 3*) GOTO 0x1010
 54: 0x1001 [0x47] UPDATE_PLAYER_POS(123.251*, 754.209*, -172.124*, yaw=38.7°*)
 55: 0x100B [0x47] WAIT_PLAYER_POS_UPDATE
 56: 0x100D [0x01] GOTO 0x1033
 57: 0x1010 [0x02] IF !(ExtData[1]->WorkLocal[31] == 4*) GOTO 0x1027
 58: 0x1018 [0x47] UPDATE_PLAYER_POS(-516.404*, -803.323*, 24.206*, yaw=38.4°*)
 59: 0x1022 [0x47] WAIT_PLAYER_POS_UPDATE
 60: 0x1024 [0x01] GOTO 0x1033
 61: 0x1027 [0x47] UPDATE_PLAYER_POS(612.057*, 776.920*, 132.662*, yaw=264.8°*)
 62: 0x1031 [0x47] WAIT_PLAYER_POS_UPDATE

SUBROUTINE_1033:
 63: 0x1033 [0x01] GOTO 0x1042
 64: 0x1036 [0x47] UPDATE_PLAYER_POS(612.057*, 776.920*, 132.662*, yaw=264.8°*)
 65: 0x1040 [0x47] WAIT_PLAYER_POS_UPDATE

SUBROUTINE_1042:
 66: 0x1042 [0x38] SET_CLIENT_EVENT_MODE(mode=19*)
 67: 0x1045 [0x79] LocalPlayer looks at LocalPlayer (Basic look)
 68: 0x104F [0x1A] CALL_SUBROUTINE(address=0x195D)
 69: 0x1052 [0x45] LOAD_SCHEDULED_TASK: Load scheduler "whi1" with entities [LocalPlayer, LocalPlayer], work=[201*, 0*]
 70: 0x1063 [0x45] LOAD_SCHEDULED_TASK: Load scheduler "blof" with entities [LocalPlayer, LocalPlayer], work=[200*, 0*]
 71: 0x1074 [0x5C] MUSIC_CONTROL: Set Idle (Day) music to song 245*
 72: 0x1078 [0x5C] MUSIC_CONTROL: Set Idle (Night) music to song 245*
 73: 0x107C [0x5C] MUSIC_CONTROL: Set Combat (Solo) music to song 220*
 74: 0x1080 [0x5C] MUSIC_CONTROL: Set Combat (Party) music to song 220*
 75: 0x1084 [0x21] END_EVENT
 76: 0x1085 [0x00] END_REQSTACK()
```

### Event 32004

#### Metadata

| Field        | Value      |
|--------------|------------|
| Entrypoint   | 0x1086     |
| Data Size    | 1047 bytes |
| Instructions | 126        |

```
      00 01 02 03 04 05 06 07  08 09 0A 0B 0C 0D 0E 0F
      -- -- -- -- -- -- -- --  -- -- -- -- -- -- -- --
1080:                   03 22  00 02 10 03 23 00 03 10        ."....#...
1090: 03 1F 00 04 10 03 24 00  05 10 02 1F 00 0A 80 80  ......$.........
10A0: AF 10 1A 93 1D 1A CC 12  1A F5 11 21 01 AF 10 21  ...........!...!
10B0: 00 20 01 46 01 42 94 01  F0 FF FF 7F 38 0F 80 5C  . .F.B......8..\
10C0: 00 33 80 5C 01 33 80 1A  62 31 37 90 80 91 80 92  .3.\.3..b17.....
10D0: 80 93 80 4E 00 9E 00 02  01 29 10 9E 00 02 01 02  ...N.....)......
10E0: 80 9E 00 02 01 1A A8 31  45 94 80 F0 FF FF 7F F0  .......1E.......
10F0: FF FF 7F 73 30 36 31 00  80 29 03 9E 00 02 01 03  ...s061..)......
1100: 27 03 9E 00 02 01 04 1C  05 80 45 0E 80 F0 FF FF  '.........E.....
1110: 7F F0 FF FF 7F 62 6C 6F  6E 00 80 45 95 80 F0 FF  .....blon..E....
1120: FF 7F F0 FF FF 7F 7A 30  30 33 00 80 45 0E 80 F0  ......z003..E...
1130: FF FF 7F F0 FF FF 7F 66  64 69 31 00 80 55 95 80  .......fdi1..U..
1140: F0 FF FF 7F F0 FF FF 7F  7A 30 30 33 45 94 80 F0  ........z003E...
1150: FF FF 7F F0 FF FF 7F 73  30 36 36 00 80 45 03 80  .......s066..E..
1160: F0 FF FF 7F F0 FF FF 7F  76 62 6F 6E 00 80 2A 03  ........vbon..*.
1170: 9E 00 02 01 1C 2E 80 45  03 80 F0 FF FF 7F F0 FF  .......E........
1180: FF 7F 76 62 6F 66 00 80  45 0E 80 F0 FF FF 7F F0  ..vbof..E.......
1190: FF FF 7F 66 64 6F 32 00  80 55 0E 80 F0 FF FF 7F  ...fdo2..U......
11A0: F0 FF FF 7F 66 64 6F 32  52 95 80 F0 FF FF 7F F0  ....fdo2R.......
11B0: FF FF 7F 7A 30 36 36 45  0E 80 F0 FF FF 7F F0 FF  ...z066E........
11C0: FF 7F 62 6C 6F 66 00 80  1A A8 31 02 33 00 05 80  ..blof....1.3...
11D0: 00 DB 11 5C 00 36 80 5C  01 36 80 4E 01 9E 00 02  ...\.6.\.6.N....
11E0: 01 46 00 45 0E 80 F0 FF  FF 7F F0 FF FF 7F 66 64  .F.E..........fd
11F0: 69 32 00 80 1B 20 01 46  01 42 38 0F 80 4E 00 9D  i2... .F.B8..N..
1200: 00 02 01 29 10 9D 00 02  01 02 80 9D 00 02 01 33  ...)...........3
1210: 01 6B 69 64 6C 30 9D 00  02 01 45 96 80 F0 FF FF  .kidl0....E.....
1220: 7F F0 FF FF 7F 76 30 31  37 00 80 45 0E 80 F0 FF  .....v017..E....
1230: FF 7F F0 FF FF 7F 66 64  69 31 00 80 55 0E 80 F0  ......fdi1..U...
1240: FF FF 7F F0 FF FF 7F 66  64 69 31 45 0E 80 F0 FF  .......fdi1E....
1250: FF 7F F0 FF FF 7F 62 6C  6F 6E 00 80 1C 97 80 45  ......blon.....E
1260: 0E 80 F0 FF FF 7F F0 FF  FF 7F 66 64 6F 32 00 80  ..........fdo2..
1270: 55 0E 80 F0 FF FF 7F F0  FF FF 7F 66 64 6F 32 52  U..........fdo2R
1280: 96 80 F0 FF FF 7F F0 FF  FF 7F 76 30 31 37 45 0E  ..........v017E.
1290: 80 F0 FF FF 7F F0 FF FF  7F 62 6C 6F 66 00 80 1A  .........blof...
12A0: A8 31 02 33 00 05 80 00  B2 12 5C 00 36 80 5C 01  .1.3......\.6.\.
12B0: 36 80 4E 01 9D 00 02 01  46 00 45 0E 80 F0 FF FF  6.N.....F.E.....
12C0: 7F F0 FF FF 7F 66 64 69  32 00 80 1B 02 24 00 00  .....fdi2....$..
12D0: 80 00 9C 14 03 03 00 1F  00 03 00 00 22 00 1A B3  ............"...
12E0: 1B 03 25 00 09 00 03 26  00 0B 00 03 27 00 0A 00  ..%....&....'...
12F0: 03 28 00 0C 00 02 22 00  05 80 80 7E 13 02 23 00  .(...."....~..#.
1300: 00 80 80 12 13 07 25 00  00 80 07 27 00 00 80 01  ......%....'....
1310: 7B 13 02 23 00 05 80 80  27 13 07 25 00 98 80 07  {..#....'..%....
1320: 27 00 00 80 01 7B 13 02  23 00 09 80 80 3C 13 07  '....{..#....<..
1330: 25 00 99 80 07 27 00 00  80 01 7B 13 02 23 00 0A  %....'....{..#..
1340: 80 80 51 13 07 25 00 99  80 07 27 00 00 80 01 7B  ..Q..%....'....{
1350: 13 02 23 00 0B 80 80 66  13 07 25 00 99 80 07 27  ..#....f..%....'
1360: 00 98 80 01 7B 13 02 23  00 08 80 80 7B 13 07 25  ....{..#....{..%
1370: 00 99 80 07 27 00 99 80  01 7B 13 01 90 14 02 22  ....'....{....."
1380: 00 09 80 80 07 14 02 23  00 00 80 80 9B 13 07 25  .......#.......%
1390: 00 00 80 07 27 00 00 80  01 04 14 02 23 00 05 80  ....'.......#...
13A0: 80 B0 13 07 25 00 98 80  07 27 00 00 80 01 04 14  ....%....'......
13B0: 02 23 00 09 80 80 C5 13  07 25 00 99 80 07 27 00  .#.......%....'.
13C0: 00 80 01 04 14 02 23 00  0A 80 80 DA 13 07 25 00  ......#.......%.
13D0: 99 80 07 27 00 00 80 01  04 14 02 23 00 0B 80 80  ...'.......#....
13E0: EF 13 07 25 00 99 80 07  27 00 98 80 01 04 14 02  ...%....'.......
13F0: 23 00 08 80 80 04 14 07  25 00 99 80 07 27 00 99  #.......%....'..
1400: 80 01 04 14 01 90 14 02  22 00 0A 80 80 90 14 02  ........".......
1410: 23 00 00 80 80 24 14 07  25 00 00 80 07 27 00 00  #....$..%....'..
1420: 80 01 8D 14 02 23 00 05  80 80 39 14 07 25 00 98  .....#....9..%..
1430: 80 07 27 00 00 80 01 8D  14 02 23 00 09 80 80 4E  ..'.......#....N
1440: 14 07 25 00 99 80 07 27  00 00 80 01 8D 14 02 23  ..%....'.......#
1450: 00 0A 80 80 63 14 07 25  00 99 80 07 27 00 00 80  ....c..%....'...
1460: 01 8D 14 02 23 00 0B 80  80 78 14 07 25 00 99 80  ....#....x..%...
1470: 07 27 00 98 80 01 8D 14  02 23 00 08 80 80 8D 14  .'.......#......
1480: 07 25 00 99 80 07 27 00  99 80 01 8D 14 01 90 14  .%....'.........
1490: 47 00 25 00 27 00 26 00  28 00 47 01 1B           G.%.'.&.(.G..   
```

#### Opcodes

```
  0: 0x1086 [0x03] ExtData[1]->WorkLocal[34] = Work_Zone[2]
  1: 0x108B [0x03] ExtData[1]->WorkLocal[35] = Work_Zone[3]
  2: 0x1090 [0x03] ExtData[1]->WorkLocal[31] = Work_Zone[4]
  3: 0x1095 [0x03] ExtData[1]->WorkLocal[36] = Work_Zone[5]
  4: 0x109A [0x02] IF !(ExtData[1]->WorkLocal[31] == 3*) GOTO 0x10AF
  5: 0x10A2 [0x1A] CALL_SUBROUTINE(address=0x1D93)
  6: 0x10A5 [0x1A] CALL_SUBROUTINE(address=0x12CC)
  7: 0x10A8 [0x1A] CALL_SUBROUTINE(address=0x11F5)
  8: 0x10AB [0x21] END_EVENT

SUBROUTINE_10AF:
  9: 0x10AF [0x21] END_EVENT
 10: 0x10B0 [0x00] END_REQSTACK()

SUBROUTINE_11F5:
 11: 0x11F5 [0x20] SET_CLI_EVENT_UC_FLAG: Lock player control
 12: 0x11F7 [0x46] CAMERA_CONTROL: Disable user control
 13: 0x11F9 [0x42] SET_CLI_EVENT_CANCEL_DATA()
 14: 0x11FA [0x38] SET_CLIENT_EVENT_MODE(mode=19*)
 15: 0x11FD [0x4E] SET_ENTITY_HIDE_FLAG: Show Unnamed NPC (ID: 16908445/0x0102009D)
 16: 0x1203 [0x29] REQ_SET_WAIT(priority=0x10, entity_id=Unnamed NPC (ID: 16908445/0x0102009D), tag_num=0x02)
 17: 0x120A [0x80] LOAD_WAIT(entity=Unnamed NPC (ID: 16908445/0x0102009D))
 18: 0x120F [0x33] EventEntity->Render.Flags0 |= 0x200000 // Bit 21 (flag=0x01)
 19: 0x1211 [0x6B] STOP_AND_IDLE: Unnamed NPC (ID: 16908445/0x0102009D) stops current action and resets to idle (animation="idl0")
 20: 0x121A [0x45] LOAD_SCHEDULED_TASK: Load scheduler "v017" with entities [LocalPlayer, LocalPlayer], work=[72*, 0*]
 21: 0x122B [0x45] LOAD_SCHEDULED_TASK: Load scheduler "fdi1" with entities [LocalPlayer, LocalPlayer], work=[200*, 0*]
 22: 0x123C [0x55] WAIT_LOAD_SCHEDULER: Wait for scheduler "fdi1" with entities [LocalPlayer, LocalPlayer], work=200*
 23: 0x124B [0x45] LOAD_SCHEDULED_TASK: Load scheduler "blon" with entities [LocalPlayer, LocalPlayer], work=[200*, 0*]
 24: 0x125C [0x1C] WAIT(150* ticks)
 25: 0x125F [0x45] LOAD_SCHEDULED_TASK: Load scheduler "fdo2" with entities [LocalPlayer, LocalPlayer], work=[200*, 0*]
 26: 0x1270 [0x55] WAIT_LOAD_SCHEDULER: Wait for scheduler "fdo2" with entities [LocalPlayer, LocalPlayer], work=200*
 27: 0x127F [0x52] END_LOAD_SCHEDULER: End scheduler "v017" with entities [LocalPlayer, LocalPlayer], work=72*
 28: 0x128E [0x45] LOAD_SCHEDULED_TASK: Load scheduler "blof" with entities [LocalPlayer, LocalPlayer], work=[200*, 0*]
 29: 0x129F [0x1A] CALL_SUBROUTINE(address=0x31A8)
 30: 0x12A2 [0x02] IF !(ExtData[1]->WorkLocal[51] == 1*) GOTO 0x12B2
 31: 0x12AA [0x5C] MUSIC_CONTROL: Set Idle (Day) music to song 245*
 32: 0x12AE [0x5C] MUSIC_CONTROL: Set Idle (Night) music to song 245*
 33: 0x12B2 [0x4E] SET_ENTITY_HIDE_FLAG: Hide Unnamed NPC (ID: 16908445/0x0102009D)
 34: 0x12B8 [0x46] CAMERA_CONTROL: Restore default settings
 35: 0x12BA [0x45] LOAD_SCHEDULED_TASK: Load scheduler "fdi2" with entities [LocalPlayer, LocalPlayer], work=[200*, 0*]
 36: 0x12CB [0x1B] RETURN

SUBROUTINE_12CC:
 37: 0x12CC [0x02] IF !(ExtData[1]->WorkLocal[36] == 0*) GOTO 0x149C
 38: 0x12D4 [0x03] ExtData[1]->WorkLocal[3] = ExtData[1]->WorkLocal[31]
 39: 0x12D9 [0x03] ExtData[1]->WorkLocal[0] = ExtData[1]->WorkLocal[34]
 40: 0x12DE [0x1A] CALL_SUBROUTINE(address=0x1BB3)
 41: 0x12E1 [0x03] ExtData[1]->WorkLocal[37] = ExtData[1]->WorkLocal[9]
 42: 0x12E6 [0x03] ExtData[1]->WorkLocal[38] = ExtData[1]->WorkLocal[11]
 43: 0x12EB [0x03] ExtData[1]->WorkLocal[39] = ExtData[1]->WorkLocal[10]
 44: 0x12F0 [0x03] ExtData[1]->WorkLocal[40] = ExtData[1]->WorkLocal[12]
 45: 0x12F5 [0x02] IF !(ExtData[1]->WorkLocal[34] == 1*) GOTO 0x137E
 46: 0x12FD [0x02] IF !(ExtData[1]->WorkLocal[35] == 0*) GOTO 0x1312
 47: 0x1305 [0x07] ExtData[1]->WorkLocal[37] += 0*
 48: 0x130A [0x07] ExtData[1]->WorkLocal[39] += 0*
 49: 0x130F [0x01] GOTO 0x137B
 50: 0x1312 [0x02] IF !(ExtData[1]->WorkLocal[35] == 1*) GOTO 0x1327
 51: 0x131A [0x07] ExtData[1]->WorkLocal[37] += 1000*
 52: 0x131F [0x07] ExtData[1]->WorkLocal[39] += 0*
 53: 0x1324 [0x01] GOTO 0x137B
 54: 0x1327 [0x02] IF !(ExtData[1]->WorkLocal[35] == 2*) GOTO 0x133C
 55: 0x132F [0x07] ExtData[1]->WorkLocal[37] += 4294966296*
 56: 0x1334 [0x07] ExtData[1]->WorkLocal[39] += 0*
 57: 0x1339 [0x01] GOTO 0x137B
 58: 0x133C [0x02] IF !(ExtData[1]->WorkLocal[35] == 3*) GOTO 0x1351
 59: 0x1344 [0x07] ExtData[1]->WorkLocal[37] += 4294966296*
 60: 0x1349 [0x07] ExtData[1]->WorkLocal[39] += 0*
 61: 0x134E [0x01] GOTO 0x137B
 62: 0x1351 [0x02] IF !(ExtData[1]->WorkLocal[35] == 4*) GOTO 0x1366
 63: 0x1359 [0x07] ExtData[1]->WorkLocal[37] += 4294966296*
 64: 0x135E [0x07] ExtData[1]->WorkLocal[39] += 1000*
 65: 0x1363 [0x01] GOTO 0x137B
 66: 0x1366 [0x02] IF !(ExtData[1]->WorkLocal[35] == 5*) GOTO 0x137B
 67: 0x136E [0x07] ExtData[1]->WorkLocal[37] += 4294966296*
 68: 0x1373 [0x07] ExtData[1]->WorkLocal[39] += 4294966296*
 69: 0x1378 [0x01] GOTO 0x137B

SUBROUTINE_137B:
 70: 0x137B [0x01] GOTO 0x1490
 71: 0x137E [0x02] IF !(ExtData[1]->WorkLocal[34] == 2*) GOTO 0x1407
 72: 0x1386 [0x02] IF !(ExtData[1]->WorkLocal[35] == 0*) GOTO 0x139B
 73: 0x138E [0x07] ExtData[1]->WorkLocal[37] += 0*
 74: 0x1393 [0x07] ExtData[1]->WorkLocal[39] += 0*
 75: 0x1398 [0x01] GOTO 0x1404
 76: 0x139B [0x02] IF !(ExtData[1]->WorkLocal[35] == 1*) GOTO 0x13B0
 77: 0x13A3 [0x07] ExtData[1]->WorkLocal[37] += 1000*
 78: 0x13A8 [0x07] ExtData[1]->WorkLocal[39] += 0*
 79: 0x13AD [0x01] GOTO 0x1404
 80: 0x13B0 [0x02] IF !(ExtData[1]->WorkLocal[35] == 2*) GOTO 0x13C5
 81: 0x13B8 [0x07] ExtData[1]->WorkLocal[37] += 4294966296*
 82: 0x13BD [0x07] ExtData[1]->WorkLocal[39] += 0*
 83: 0x13C2 [0x01] GOTO 0x1404
 84: 0x13C5 [0x02] IF !(ExtData[1]->WorkLocal[35] == 3*) GOTO 0x13DA
 85: 0x13CD [0x07] ExtData[1]->WorkLocal[37] += 4294966296*
 86: 0x13D2 [0x07] ExtData[1]->WorkLocal[39] += 0*
 87: 0x13D7 [0x01] GOTO 0x1404
 88: 0x13DA [0x02] IF !(ExtData[1]->WorkLocal[35] == 4*) GOTO 0x13EF
 89: 0x13E2 [0x07] ExtData[1]->WorkLocal[37] += 4294966296*
 90: 0x13E7 [0x07] ExtData[1]->WorkLocal[39] += 1000*
 91: 0x13EC [0x01] GOTO 0x1404
 92: 0x13EF [0x02] IF !(ExtData[1]->WorkLocal[35] == 5*) GOTO 0x1404
 93: 0x13F7 [0x07] ExtData[1]->WorkLocal[37] += 4294966296*
 94: 0x13FC [0x07] ExtData[1]->WorkLocal[39] += 4294966296*
 95: 0x1401 [0x01] GOTO 0x1404

SUBROUTINE_1404:
 96: 0x1404 [0x01] GOTO 0x1490
 97: 0x1407 [0x02] IF !(ExtData[1]->WorkLocal[34] == 3*) GOTO 0x1490
 98: 0x140F [0x02] IF !(ExtData[1]->WorkLocal[35] == 0*) GOTO 0x1424
 99: 0x1417 [0x07] ExtData[1]->WorkLocal[37] += 0*
100: 0x141C [0x07] ExtData[1]->WorkLocal[39] += 0*
101: 0x1421 [0x01] GOTO 0x148D
102: 0x1424 [0x02] IF !(ExtData[1]->WorkLocal[35] == 1*) GOTO 0x1439
103: 0x142C [0x07] ExtData[1]->WorkLocal[37] += 1000*
104: 0x1431 [0x07] ExtData[1]->WorkLocal[39] += 0*
105: 0x1436 [0x01] GOTO 0x148D
106: 0x1439 [0x02] IF !(ExtData[1]->WorkLocal[35] == 2*) GOTO 0x144E
107: 0x1441 [0x07] ExtData[1]->WorkLocal[37] += 4294966296*
108: 0x1446 [0x07] ExtData[1]->WorkLocal[39] += 0*
109: 0x144B [0x01] GOTO 0x148D
110: 0x144E [0x02] IF !(ExtData[1]->WorkLocal[35] == 3*) GOTO 0x1463
111: 0x1456 [0x07] ExtData[1]->WorkLocal[37] += 4294966296*
112: 0x145B [0x07] ExtData[1]->WorkLocal[39] += 0*
113: 0x1460 [0x01] GOTO 0x148D
114: 0x1463 [0x02] IF !(ExtData[1]->WorkLocal[35] == 4*) GOTO 0x1478
115: 0x146B [0x07] ExtData[1]->WorkLocal[37] += 4294966296*
116: 0x1470 [0x07] ExtData[1]->WorkLocal[39] += 1000*
117: 0x1475 [0x01] GOTO 0x148D
118: 0x1478 [0x02] IF !(ExtData[1]->WorkLocal[35] == 5*) GOTO 0x148D
119: 0x1480 [0x07] ExtData[1]->WorkLocal[37] += 4294966296*
120: 0x1485 [0x07] ExtData[1]->WorkLocal[39] += 4294966296*
121: 0x148A [0x01] GOTO 0x148D

SUBROUTINE_148D:
122: 0x148D [0x01] GOTO 0x1490

SUBROUTINE_1490:
123: 0x1490 [0x47] UPDATE_PLAYER_POS(ExtData[1]->WorkLocal[37], ExtData[1]->WorkLocal[39], ExtData[1]->WorkLocal[38], yaw=ExtData[1]->WorkLocal[40])
124: 0x149A [0x47] WAIT_PLAYER_POS_UPDATE
125: 0x149C [0x1B] RETURN
```

#### Data or dead code:

```
# Dead code (unreachable instructions):
     0x10AC [0x01] GOTO 0x10AF
# Dead code (unreachable instructions):
     0x10B1 [0x20] SET_CLI_EVENT_UC_FLAG: Lock player control
     0x10B3 [0x46] CAMERA_CONTROL: Disable user control
     0x10B5 [0x42] SET_CLI_EVENT_CANCEL_DATA()
     0x10B6 [0x94] LocalPlayer->Render.Flags3 ^= 0x01
     0x10BC [0x38] SET_CLIENT_EVENT_MODE(mode=19*)
     0x10BF [0x5C] MUSIC_CONTROL: Set Idle (Day) music to song 220*
     0x10C3 [0x5C] MUSIC_CONTROL: Set Idle (Night) music to song 220*
     0x10C7 [0x1A] CALL_SUBROUTINE(address=0x3162)
     0x10CA [0x37] UPDATE_EVENT_POSITION_AND_DIR: x=-640.017*, z=529.759*, y=-231.347*, direction=89.8°*
     0x10D3 [0x4E] SET_ENTITY_HIDE_FLAG: Show Unnamed NPC (ID: 16908446/0x0102009E)
     0x10D9 [0x29] REQ_SET_WAIT(priority=0x10, entity_id=Unnamed NPC (ID: 16908446/0x0102009E), tag_num=0x02)
     0x10E0 [0x80] LOAD_WAIT(entity=Unnamed NPC (ID: 16908446/0x0102009E))
     0x10E5 [0x1A] CALL_SUBROUTINE(address=0x31A8)
     0x10E8 [0x45] LOAD_SCHEDULED_TASK: Load scheduler "s061" with entities [LocalPlayer, LocalPlayer], work=[113*, 0*]
     0x10F9 [0x29] REQ_SET_WAIT(priority=0x03, entity_id=Unnamed NPC (ID: 16908446/0x0102009E), tag_num=0x03)
     0x1100 [0x27] REQ_SET(priority=0x03, entity_id=Unnamed NPC (ID: 16908446/0x0102009E), tag_num=0x04)
     0x1107 [0x1C] WAIT(1* ticks)
     0x110A [0x45] LOAD_SCHEDULED_TASK: Load scheduler "blon" with entities [LocalPlayer, LocalPlayer], work=[200*, 0*]
     0x111B [0x45] LOAD_SCHEDULED_TASK: Load scheduler "z003" with entities [LocalPlayer, LocalPlayer], work=[115*, 0*]
     0x112C [0x45] LOAD_SCHEDULED_TASK: Load scheduler "fdi1" with entities [LocalPlayer, LocalPlayer], work=[200*, 0*]
     0x113D [0x55] WAIT_LOAD_SCHEDULER: Wait for scheduler "z003" with entities [LocalPlayer, LocalPlayer], work=115*
     0x114C [0x45] LOAD_SCHEDULED_TASK: Load scheduler "s066" with entities [LocalPlayer, LocalPlayer], work=[113*, 0*]
     0x115D [0x45] LOAD_SCHEDULED_TASK: Load scheduler "vbon" with entities [LocalPlayer, LocalPlayer], work=[31*, 0*]
     0x116E [0x2A] GET_REQ_LEVEL(level=3, entity_id=Unnamed NPC (ID: 16908446/0x0102009E))
     0x1174 [0x1C] WAIT(60* ticks)
     0x1177 [0x45] LOAD_SCHEDULED_TASK: Load scheduler "vbof" with entities [LocalPlayer, LocalPlayer], work=[31*, 0*]
     0x1188 [0x45] LOAD_SCHEDULED_TASK: Load scheduler "fdo2" with entities [LocalPlayer, LocalPlayer], work=[200*, 0*]
     0x1199 [0x55] WAIT_LOAD_SCHEDULER: Wait for scheduler "fdo2" with entities [LocalPlayer, LocalPlayer], work=200*
     0x11A8 [0x52] END_LOAD_SCHEDULER: End scheduler "z066" with entities [LocalPlayer, LocalPlayer], work=115*
     0x11B7 [0x45] LOAD_SCHEDULED_TASK: Load scheduler "blof" with entities [LocalPlayer, LocalPlayer], work=[200*, 0*]
     0x11C8 [0x1A] CALL_SUBROUTINE(address=0x31A8)
     0x11CB [0x02] IF !(ExtData[1]->WorkLocal[51] == 1*) GOTO 0x11DB
     0x11D3 [0x5C] MUSIC_CONTROL: Set Idle (Day) music to song 245*
     0x11D7 [0x5C] MUSIC_CONTROL: Set Idle (Night) music to song 245*
     0x11DB [0x4E] SET_ENTITY_HIDE_FLAG: Hide Unnamed NPC (ID: 16908446/0x0102009E)
     0x11E1 [0x46] CAMERA_CONTROL: Restore default settings
