# Event 65535

## Metadata

| Field           | Value    |
|-----------------|----------|
| Event Index     | 37/44    |
| Offset          | 0x025D   |
| Data Size       | 68 bytes |
| Calculated Size | 68 bytes |
| Instructions    | 11       |

```
      00 01 02 03 04 05 06 07  08 09 0A 0B 0C 0D 0E 0F
      -- -- -- -- -- -- -- --  -- -- -- -- -- -- -- --
0250:                                         5B 36 80               [6.
0260: F8 FF FF 7F F8 FF FF 7F  73 68 61 31 53 F8 FF FF  ........sha1S...
0270: 7F F8 FF FF 7F 73 68 61  31 59 04 F8 FF FF 7F 13  .....sha1Y......
0280: 80 1F 00 4A 80 4B 80 4C  80 1F 01 1F 00 4D 80 4E  ...J.K.L.....M.N
0290: 80 4F 80 1F 01 1F 00 50  80 51 80 52 80 1F 01 6F  .O.....P.Q.R...o
02A0: 00                                                .               
```

## Opcodes

```
  0: 0x025D [0x5B] LOAD_EXT_SCHEDULER(work_offset=2454*, entity1=EventEntity, entity2=EventEntity, action="sha1")
  1: 0x026C [0x53] WAIT_SCHEDULER_TASK(entity1=EventEntity, entity2=EventEntity, action_id="sha1")
  2: 0x0279 [0x59] UPDATE_ENTITY_DATA: Set EventEntity main speed = 13* * 0.1
  3: 0x0281 [0x1F] MOVE_ENTITY: EventEntity moves to X=-97.606*, Z=59.571*, Y=-63.126*
  4: 0x0289 [0x1F] MOVE_ENTITY: Update entity position (mode=1)
  5: 0x028B [0x1F] MOVE_ENTITY: EventEntity moves to X=-97.268*, Z=61.192*, Y=-63.108*
  6: 0x0293 [0x1F] MOVE_ENTITY: Update entity position (mode=1)
  7: 0x0295 [0x1F] MOVE_ENTITY: EventEntity moves to X=-98.720*, Z=67.456*, Y=-62.983*
  8: 0x029D [0x1F] MOVE_ENTITY: Update entity position (mode=1)
  9: 0x029F [0x6F] WAIT_FRAME_DELAY: Yield until WaitTime reaches zero
 10: 0x02A0 [0x00] END_REQSTACK()
```
