# Event 65535

## Metadata

| Field           | Value    |
|-----------------|----------|
| Event Index     | 4/6      |
| Offset          | 0x0015   |
| Data Size       | 49 bytes |
| Calculated Size | 49 bytes |
| Instructions    | 8        |

```
      00 01 02 03 04 05 06 07  08 09 0A 0B 0C 0D 0E 0F
      -- -- -- -- -- -- -- --  -- -- -- -- -- -- -- --
0010:                59 04 12  D2 03 01 00 80 1F 00 04       Y..........
0020: 80 05 80 06 80 1F 01 6F  4A 12 D2 03 01 07 D2 03  .......oJ.......
0030: 01 7B 12 D2 03 01 5B 07  80 F8 FF FF 7F F8 FF FF  .{....[.........
0040: 7F 61 73 74 30 00                                 .ast0.          
```

## Opcodes

```
  0: 0x0015 [0x59] UPDATE_ENTITY_DATA: Set Nabitham (ID: 17027602/0x0103D212) main speed = 13* * 0.1
  1: 0x001D [0x1F] MOVE_ENTITY: EventEntity moves to X=810.449*, Z=233.062*, Y=-14.074*
  2: 0x0025 [0x1F] MOVE_ENTITY: Update entity position (mode=1)
  3: 0x0027 [0x6F] WAIT_FRAME_DELAY: Yield until WaitTime reaches zero
  4: 0x0028 [0x4A] Nabitham (ID: 17027602/0x0103D212) looks at ??? (ID: 17027591/0x0103D207)
  5: 0x0031 [0x7B] Nabitham (ID: 17027602/0x0103D212) stops talking
  6: 0x0036 [0x5B] LOAD_EXT_SCHEDULER(work_offset=863*, entity1=EventEntity, entity2=EventEntity, action="ast0")
  7: 0x0045 [0x00] END_REQSTACK()
```
