# 17412789

## Common Data

| Field            | Value                           |
|------------------|---------------------------------|
| Zone             | Castle Zvahl Keep [S] (ID: 155) |
| Block Size       | 272 bytes                       |
| Total Events     | 10                              |
| References Count | 19                              |

## List of Events

| Event ID                 | Entrypoint   |   Size |   Instructions |
|--------------------------|--------------|--------|----------------|
| [65535](#event-65535)    | 0x0000       |      1 |              1 |
| [16](#event-16)          | 0x0001       |      7 |              2 |
| [65535.1](#event-655351) | 0x0008       |     22 |              6 |
| [65535.2](#event-655352) | 0x001E       |     22 |              6 |
| [65535.3](#event-655353) | 0x0034       |     14 |              4 |
| [17](#event-17)          | 0x0042       |      7 |              2 |
| [65535.4](#event-655354) | 0x0049       |     22 |              6 |
| [65535.5](#event-655355) | 0x005F       |     13 |              3 |
| [18](#event-18)          | 0x006C       |      7 |              2 |
| [65535.6](#event-655356) | 0x0073       |     22 |              6 |

## DAT References (imed_data)

|   Index | Hex Value   |   Dec Value |
|---------|-------------|-------------|
|       0 | 0x0028      |          40 |
|       1 | 0x1B0DE     |      110814 |
|       2 | 0x27B12     |      162578 |
|       3 | 0x04DA      |        1242 |
|       4 | 0x001E      |          30 |
|       5 | 0x1DC98     |      122008 |
|       6 | 0x28BCD     |      166861 |
|       7 | 0x03E3      |         995 |
|       8 | 0x201AD     |      131501 |
|       9 | 0x2A0E4     |      172260 |
|      10 | 0x03EC      |        1004 |
|      11 | 0xFFFA5867  |  4294596711 |
|      12 | 0xFFFE8676  |  4294870646 |
|      13 | 0xFFFF34E1  |  4294915297 |
|      14 | 0x0007      |           7 |
|      15 | 0x000F      |          15 |
|      16 | 0x0022      |          34 |
|      17 | 0xFFFA5E34  |  4294598196 |
|      18 | 0xFFFE6C8F  |  4294864015 |

## Events

### Event 65535

#### Metadata

| Field        | Value   |
|--------------|---------|
| Entrypoint   | 0x0000  |
| Data Size    | 1 bytes |
| Instructions | 1       |

```
      00 01 02 03 04 05 06 07  08 09 0A 0B 0C 0D 0E 0F
      -- -- -- -- -- -- -- --  -- -- -- -- -- -- -- --
0000: 00                                                .               
```

#### Opcodes

```
  0: 0x0000 [0x00] END_REQSTACK()
```

### Event 16

#### Metadata

| Field        | Value   |
|--------------|---------|
| Entrypoint   | 0x0001  |
| Data Size    | 7 bytes |
| Instructions | 2       |

```
      00 01 02 03 04 05 06 07  08 09 0A 0B 0C 0D 0E 0F
      -- -- -- -- -- -- -- --  -- -- -- -- -- -- -- --
0000:    92 01 F8 FF FF 7F 00                            .......        
```

#### Opcodes

```
  0: 0x0001 [0x92] EventEntity->Render.Flags3 ^= 0x01
  1: 0x0007 [0x00] END_REQSTACK()
```

### Event 65535.1

#### Metadata

| Field        | Value    |
|--------------|----------|
| Entrypoint   | 0x0008   |
| Data Size    | 22 bytes |
| Instructions | 6        |

```
      00 01 02 03 04 05 06 07  08 09 0A 0B 0C 0D 0E 0F
      -- -- -- -- -- -- -- --  -- -- -- -- -- -- -- --
0000:                          32 00 80 1F 00 01 80 02          2.......
0010: 80 03 80 1F 01 1E B3 B2  09 01 1C 04 80 00        ..............  
```

#### Opcodes

```
  0: 0x0008 [0x32] ExtData[1]->MainSpeed = 40* * 0.1
  1: 0x000B [0x1F] MOVE_ENTITY: EventEntity moves to X=110.814*, Z=162.578*, Y=1.242*
  2: 0x0013 [0x1F] MOVE_ENTITY: Update entity position (mode=1)
  3: 0x0015 [0x1E] EventEntity looks at Allenberge (ID: 17412787/0x0109B2B3) and starts talking
  4: 0x001A [0x1C] WAIT(30* ticks)
  5: 0x001D [0x00] END_REQSTACK()
```

### Event 65535.2

#### Metadata

| Field        | Value    |
|--------------|----------|
| Entrypoint   | 0x001E   |
| Data Size    | 22 bytes |
| Instructions | 6        |

```
      00 01 02 03 04 05 06 07  08 09 0A 0B 0C 0D 0E 0F
      -- -- -- -- -- -- -- --  -- -- -- -- -- -- -- --
0010:                                            32 00                2.
0020: 80 1F 00 05 80 06 80 07  80 1F 01 1E B6 B2 09 01  ................
0030: 1C 04 80 00                                       ....            
```

#### Opcodes

```
  0: 0x001E [0x32] ExtData[1]->MainSpeed = 40* * 0.1
  1: 0x0021 [0x1F] MOVE_ENTITY: EventEntity moves to X=122.008*, Z=166.861*, Y=0.995*
  2: 0x0029 [0x1F] MOVE_ENTITY: Update entity position (mode=1)
  3: 0x002B [0x1E] EventEntity looks at Klara (ID: 17412790/0x0109B2B6) and starts talking
  4: 0x0030 [0x1C] WAIT(30* ticks)
  5: 0x0033 [0x00] END_REQSTACK()
```

### Event 65535.3

#### Metadata

| Field        | Value    |
|--------------|----------|
| Entrypoint   | 0x0034   |
| Data Size    | 14 bytes |
| Instructions | 4        |

```
      00 01 02 03 04 05 06 07  08 09 0A 0B 0C 0D 0E 0F
      -- -- -- -- -- -- -- --  -- -- -- -- -- -- -- --
0030:             32 00 80 1F  00 08 80 09 80 0A 80 1F      2...........
0040: 01 00                                             ..              
```

#### Opcodes

```
  0: 0x0034 [0x32] ExtData[1]->MainSpeed = 40* * 0.1
  1: 0x0037 [0x1F] MOVE_ENTITY: EventEntity moves to X=131.501*, Z=172.260*, Y=1.004*
  2: 0x003F [0x1F] MOVE_ENTITY: Update entity position (mode=1)
  3: 0x0041 [0x00] END_REQSTACK()
```

### Event 17

#### Metadata

| Field        | Value   |
|--------------|---------|
| Entrypoint   | 0x0042  |
| Data Size    | 7 bytes |
| Instructions | 2       |

```
      00 01 02 03 04 05 06 07  08 09 0A 0B 0C 0D 0E 0F
      -- -- -- -- -- -- -- --  -- -- -- -- -- -- -- --
0040:       92 01 F8 FF FF 7F  00                         .......       
```

#### Opcodes

```
  0: 0x0042 [0x92] EventEntity->Render.Flags3 ^= 0x01
  1: 0x0048 [0x00] END_REQSTACK()
```

### Event 65535.4

#### Metadata

| Field        | Value    |
|--------------|----------|
| Entrypoint   | 0x0049   |
| Data Size    | 22 bytes |
| Instructions | 6        |

```
      00 01 02 03 04 05 06 07  08 09 0A 0B 0C 0D 0E 0F
      -- -- -- -- -- -- -- --  -- -- -- -- -- -- -- --
0040:                             32 00 80 1F 00 0B 80           2......
0050: 0C 80 0D 80 1F 01 1E AC  B2 09 01 1C 04 80 00     ............... 
```

#### Opcodes

```
  0: 0x0049 [0x32] ExtData[1]->MainSpeed = 40* * 0.1
  1: 0x004C [0x1F] MOVE_ENTITY: EventEntity moves to X=-370.585*, Z=-96.650*, Y=-51.999*
  2: 0x0054 [0x1F] MOVE_ENTITY: Update entity position (mode=1)
  3: 0x0056 [0x1E] EventEntity looks at Volker (ID: 17412780/0x0109B2AC) and starts talking
  4: 0x005B [0x1C] WAIT(30* ticks)
  5: 0x005E [0x00] END_REQSTACK()
```

### Event 65535.5

#### Metadata

| Field        | Value    |
|--------------|----------|
| Entrypoint   | 0x005F   |
| Data Size    | 13 bytes |
| Instructions | 3        |

```
      00 01 02 03 04 05 06 07  08 09 0A 0B 0C 0D 0E 0F
      -- -- -- -- -- -- -- --  -- -- -- -- -- -- -- --
0050:                                               6E                 n
0060: B5 B2 09 01 0E 80 99 B5  B2 09 01 00              ............    
```

#### Opcodes

```
  0: 0x005F [0x6E] Unnamed NPC (ID: 17412789/0x0109B2B5) uses emote 7*
  1: 0x0066 [0x99] Wait for Unnamed NPC (ID: 17412789/0x0109B2B5) animation to complete
  2: 0x006B [0x00] END_REQSTACK()
```

### Event 18

#### Metadata

| Field        | Value   |
|--------------|---------|
| Entrypoint   | 0x006C  |
| Data Size    | 7 bytes |
| Instructions | 2       |

```
      00 01 02 03 04 05 06 07  08 09 0A 0B 0C 0D 0E 0F
      -- -- -- -- -- -- -- --  -- -- -- -- -- -- -- --
0060:                                      92 01 F8 FF              ....
0070: FF 7F 00                                          ...             
```

#### Opcodes

```
  0: 0x006C [0x92] EventEntity->Render.Flags3 ^= 0x01
  1: 0x0072 [0x00] END_REQSTACK()
```

### Event 65535.6

#### Metadata

| Field        | Value    |
|--------------|----------|
| Entrypoint   | 0x0073   |
| Data Size    | 22 bytes |
| Instructions | 6        |

```
      00 01 02 03 04 05 06 07  08 09 0A 0B 0C 0D 0E 0F
      -- -- -- -- -- -- -- --  -- -- -- -- -- -- -- --
0070:          1C 0F 80 32 10  80 1F 00 11 80 12 80 0D     ...2.........
0080: 80 1F 01 1E AC B2 09 01  00                       .........       
```

#### Opcodes

```
  0: 0x0073 [0x1C] WAIT(15* ticks)
  1: 0x0076 [0x32] ExtData[1]->MainSpeed = 34* * 0.1
  2: 0x0079 [0x1F] MOVE_ENTITY: EventEntity moves to X=-369.100*, Z=-103.281*, Y=-51.999*
  3: 0x0081 [0x1F] MOVE_ENTITY: Update entity position (mode=1)
  4: 0x0083 [0x1E] EventEntity looks at Volker (ID: 17412780/0x0109B2AC) and starts talking
  5: 0x0088 [0x00] END_REQSTACK()
```
