# 17412785

## Common Data

| Field            | Value                           |
|------------------|---------------------------------|
| Zone             | Castle Zvahl Keep [S] (ID: 155) |
| Block Size       | 232 bytes                       |
| Total Events     | 9                               |
| References Count | 16                              |

## List of Events

| Event ID                 | Entrypoint   |   Size |   Instructions |
|--------------------------|--------------|--------|----------------|
| [65535](#event-65535)    | 0x0000       |      1 |              1 |
| [16](#event-16)          | 0x0001       |      7 |              2 |
| [65535.1](#event-655351) | 0x0008       |     22 |              6 |
| [65535.2](#event-655352) | 0x001E       |     14 |              4 |
| [17](#event-17)          | 0x002C       |      7 |              2 |
| [65535.3](#event-655353) | 0x0033       |     22 |              6 |
| [65535.4](#event-655354) | 0x0049       |     13 |              3 |
| [18](#event-18)          | 0x0056       |      7 |              2 |
| [65535.5](#event-655355) | 0x005D       |     22 |              6 |

## DAT References (imed_data)

|   Index | Hex Value   |   Dec Value |
|---------|-------------|-------------|
|       0 | 0x0028      |          40 |
|       1 | 0x1CFED     |      118765 |
|       2 | 0x28BFB     |      166907 |
|       3 | 0x03E8      |        1000 |
|       4 | 0x001E      |          30 |
|       5 | 0x201AD     |      131501 |
|       6 | 0x2A0E4     |      172260 |
|       7 | 0x03EC      |        1004 |
|       8 | 0xFFFA5C67  |  4294597735 |
|       9 | 0xFFFE7E4A  |  4294868554 |
|      10 | 0xFFFF34E1  |  4294915297 |
|      11 | 0x0024      |          36 |
|      12 | 0x0019      |          25 |
|      13 | 0x001F      |          31 |
|      14 | 0xFFFA640A  |  4294599690 |
|      15 | 0xFFFE7190  |  4294865296 |

## Events

### Event 65535

#### Metadata

| Field        | Value   |
|--------------|---------|
| Entrypoint   | 0x0000  |
| Data Size    | 1 bytes |
| Instructions | 1       |

```
      00 01 02 03 04 05 06 07  08 09 0A 0B 0C 0D 0E 0F
      -- -- -- -- -- -- -- --  -- -- -- -- -- -- -- --
0000: 00                                                .               
```

#### Opcodes

```
  0: 0x0000 [0x00] END_REQSTACK()
```

### Event 16

#### Metadata

| Field        | Value   |
|--------------|---------|
| Entrypoint   | 0x0001  |
| Data Size    | 7 bytes |
| Instructions | 2       |

```
      00 01 02 03 04 05 06 07  08 09 0A 0B 0C 0D 0E 0F
      -- -- -- -- -- -- -- --  -- -- -- -- -- -- -- --
0000:    92 01 F8 FF FF 7F 00                            .......        
```

#### Opcodes

```
  0: 0x0001 [0x92] EventEntity->Render.Flags3 ^= 0x01
  1: 0x0007 [0x00] END_REQSTACK()
```

### Event 65535.1

#### Metadata

| Field        | Value    |
|--------------|----------|
| Entrypoint   | 0x0008   |
| Data Size    | 22 bytes |
| Instructions | 6        |

```
      00 01 02 03 04 05 06 07  08 09 0A 0B 0C 0D 0E 0F
      -- -- -- -- -- -- -- --  -- -- -- -- -- -- -- --
0000:                          32 00 80 1F 00 01 80 02          2.......
0010: 80 03 80 1F 01 1E B6 B2  09 01 1C 04 80 00        ..............  
```

#### Opcodes

```
  0: 0x0008 [0x32] ExtData[1]->MainSpeed = 40* * 0.1
  1: 0x000B [0x1F] MOVE_ENTITY: EventEntity moves to X=118.765*, Z=166.907*, Y=1.000*
  2: 0x0013 [0x1F] MOVE_ENTITY: Update entity position (mode=1)
  3: 0x0015 [0x1E] EventEntity looks at Klara (ID: 17412790/0x0109B2B6) and starts talking
  4: 0x001A [0x1C] WAIT(30* ticks)
  5: 0x001D [0x00] END_REQSTACK()
```

### Event 65535.2

#### Metadata

| Field        | Value    |
|--------------|----------|
| Entrypoint   | 0x001E   |
| Data Size    | 14 bytes |
| Instructions | 4        |

```
      00 01 02 03 04 05 06 07  08 09 0A 0B 0C 0D 0E 0F
      -- -- -- -- -- -- -- --  -- -- -- -- -- -- -- --
0010:                                            32 00                2.
0020: 80 1F 00 05 80 06 80 07  80 1F 01 00              ............    
```

#### Opcodes

```
  0: 0x001E [0x32] ExtData[1]->MainSpeed = 40* * 0.1
  1: 0x0021 [0x1F] MOVE_ENTITY: EventEntity moves to X=131.501*, Z=172.260*, Y=1.004*
  2: 0x0029 [0x1F] MOVE_ENTITY: Update entity position (mode=1)
  3: 0x002B [0x00] END_REQSTACK()
```

### Event 17

#### Metadata

| Field        | Value   |
|--------------|---------|
| Entrypoint   | 0x002C  |
| Data Size    | 7 bytes |
| Instructions | 2       |

```
      00 01 02 03 04 05 06 07  08 09 0A 0B 0C 0D 0E 0F
      -- -- -- -- -- -- -- --  -- -- -- -- -- -- -- --
0020:                                      92 01 F8 FF              ....
0030: FF 7F 00                                          ...             
```

#### Opcodes

```
  0: 0x002C [0x92] EventEntity->Render.Flags3 ^= 0x01
  1: 0x0032 [0x00] END_REQSTACK()
```

### Event 65535.3

#### Metadata

| Field        | Value    |
|--------------|----------|
| Entrypoint   | 0x0033   |
| Data Size    | 22 bytes |
| Instructions | 6        |

```
      00 01 02 03 04 05 06 07  08 09 0A 0B 0C 0D 0E 0F
      -- -- -- -- -- -- -- --  -- -- -- -- -- -- -- --
0030:          32 00 80 1F 00  08 80 09 80 0A 80 1F 01     2............
0040: 1E AC B2 09 01 1C 04 80  00                       .........       
```

#### Opcodes

```
  0: 0x0033 [0x32] ExtData[1]->MainSpeed = 40* * 0.1
  1: 0x0036 [0x1F] MOVE_ENTITY: EventEntity moves to X=-369.561*, Z=-98.742*, Y=-51.999*
  2: 0x003E [0x1F] MOVE_ENTITY: Update entity position (mode=1)
  3: 0x0040 [0x1E] EventEntity looks at Volker (ID: 17412780/0x0109B2AC) and starts talking
  4: 0x0045 [0x1C] WAIT(30* ticks)
  5: 0x0048 [0x00] END_REQSTACK()
```

### Event 65535.4

#### Metadata

| Field        | Value    |
|--------------|----------|
| Entrypoint   | 0x0049   |
| Data Size    | 13 bytes |
| Instructions | 3        |

```
      00 01 02 03 04 05 06 07  08 09 0A 0B 0C 0D 0E 0F
      -- -- -- -- -- -- -- --  -- -- -- -- -- -- -- --
0040:                             6E B1 B2 09 01 0B 80           n......
0050: 99 B1 B2 09 01 00                                 ......          
```

#### Opcodes

```
  0: 0x0049 [0x6E] Unnamed NPC (ID: 17412785/0x0109B2B1) uses emote 36*
  1: 0x0050 [0x99] Wait for Unnamed NPC (ID: 17412785/0x0109B2B1) animation to complete
  2: 0x0055 [0x00] END_REQSTACK()
```

### Event 18

#### Metadata

| Field        | Value   |
|--------------|---------|
| Entrypoint   | 0x0056  |
| Data Size    | 7 bytes |
| Instructions | 2       |

```
      00 01 02 03 04 05 06 07  08 09 0A 0B 0C 0D 0E 0F
      -- -- -- -- -- -- -- --  -- -- -- -- -- -- -- --
0050:                   92 01  F8 FF FF 7F 00                 .......   
```

#### Opcodes

```
  0: 0x0056 [0x92] EventEntity->Render.Flags3 ^= 0x01
  1: 0x005C [0x00] END_REQSTACK()
```

### Event 65535.5

#### Metadata

| Field        | Value    |
|--------------|----------|
| Entrypoint   | 0x005D   |
| Data Size    | 22 bytes |
| Instructions | 6        |

```
      00 01 02 03 04 05 06 07  08 09 0A 0B 0C 0D 0E 0F
      -- -- -- -- -- -- -- --  -- -- -- -- -- -- -- --
0050:                                         1C 0C 80               ...
0060: 32 0D 80 1F 00 0E 80 0F  80 0A 80 1F 01 1E AC B2  2...............
0070: 09 01 00                                          ...             
```

#### Opcodes

```
  0: 0x005D [0x1C] WAIT(25* ticks)
  1: 0x0060 [0x32] ExtData[1]->MainSpeed = 31* * 0.1
  2: 0x0063 [0x1F] MOVE_ENTITY: EventEntity moves to X=-367.606*, Z=-102.000*, Y=-51.999*
  3: 0x006B [0x1F] MOVE_ENTITY: Update entity position (mode=1)
  4: 0x006D [0x1E] EventEntity looks at Volker (ID: 17412780/0x0109B2AC) and starts talking
  5: 0x0072 [0x00] END_REQSTACK()
```
