# 17412781 - Zeid

## Common Data

| Field            | Value                           |
|------------------|---------------------------------|
| Zone             | Castle Zvahl Keep [S] (ID: 155) |
| Block Size       | 420 bytes                       |
| Total Events     | 15                              |
| References Count | 29                              |

## List of Events

| Event ID                   | Entrypoint   |   Size |   Instructions |
|----------------------------|--------------|--------|----------------|
| [65535](#event-65535)      | 0x0000       |      1 |              1 |
| [15](#event-15)            | 0x0001       |      7 |              2 |
| [16](#event-16)            | 0x0008       |      7 |              2 |
| [65535.1](#event-655351)   | 0x000F       |      6 |              3 |
| [65535.2](#event-655352)   | 0x0015       |     22 |              6 |
| [65535.3](#event-655353)   | 0x002B       |     14 |              4 |
| [17](#event-17)            | 0x0039       |      7 |              2 |
| [65535.4](#event-655354)   | 0x0040       |     22 |              6 |
| [65535.5](#event-655355)   | 0x0056       |     14 |              4 |
| [65535.6](#event-655356)   | 0x0064       |     24 |              6 |
| [65535.7](#event-655357)   | 0x007C       |     24 |              6 |
| [65535.8](#event-655358)   | 0x0094       |     19 |              5 |
| [65535.9](#event-655359)   | 0x00A7       |     14 |              4 |
| [65535.10](#event-6553510) | 0x00B5       |     32 |              6 |
| [65535.11](#event-6553511) | 0x00D5       |     14 |              4 |

## DAT References (imed_data)

|   Index | Hex Value   |   Dec Value |
|---------|-------------|-------------|
|       0 | 0x0001      |           1 |
|       1 | 0x0028      |          40 |
|       2 | 0x1F50B     |      128267 |
|       3 | 0x295FA     |      169466 |
|       4 | 0x0478      |        1144 |
|       5 | 0x001E      |          30 |
|       6 | 0x1D1A0     |      119200 |
|       7 | 0x27697     |      161431 |
|       8 | 0x03E7      |         999 |
|       9 | 0xFFFAC617  |  4294624791 |
|      10 | 0xFFFE8756  |  4294870870 |
|      11 | 0xFFFF34E1  |  4294915297 |
|      12 | 0xFFFA6B2B  |  4294601515 |
|      13 | 0xFFFE690C  |  4294863116 |
|      14 | 0xFFFF34E0  |  4294915296 |
|      15 | 0x000D      |          13 |
|      16 | 0xFFFA38C8  |  4294588616 |
|      17 | 0xFFFE7EC8  |  4294868680 |
|      18 | 0x0B3C      |        2876 |
|      19 | 0x003C      |          60 |
|      20 | 0xFFFA2E55  |  4294585941 |
|      21 | 0xFFFE87D2  |  4294870994 |
|      22 | 0xFFFE96AA  |  4294874794 |
|      23 | 0xFFFA6CA3  |  4294601891 |
|      24 | 0xFFFE79F9  |  4294867449 |
|      25 | 0x000A      |          10 |
|      26 | 0xFFFA56C8  |  4294596296 |
|      27 | 0xFFFA5E98  |  4294598296 |
|      28 | 0xFFFAACB8  |  4294618296 |

## Events

### Event 65535

#### Metadata

| Field        | Value   |
|--------------|---------|
| Entrypoint   | 0x0000  |
| Data Size    | 1 bytes |
| Instructions | 1       |

```
      00 01 02 03 04 05 06 07  08 09 0A 0B 0C 0D 0E 0F
      -- -- -- -- -- -- -- --  -- -- -- -- -- -- -- --
0000: 00                                                .               
```

#### Opcodes

```
  0: 0x0000 [0x00] END_REQSTACK()
```

### Event 15

#### Metadata

| Field        | Value   |
|--------------|---------|
| Entrypoint   | 0x0001  |
| Data Size    | 7 bytes |
| Instructions | 2       |

```
      00 01 02 03 04 05 06 07  08 09 0A 0B 0C 0D 0E 0F
      -- -- -- -- -- -- -- --  -- -- -- -- -- -- -- --
0000:    92 01 F8 FF FF 7F 00                            .......        
```

#### Opcodes

```
  0: 0x0001 [0x92] EventEntity->Render.Flags3 ^= 0x01
  1: 0x0007 [0x00] END_REQSTACK()
```

### Event 16

#### Metadata

| Field        | Value   |
|--------------|---------|
| Entrypoint   | 0x0008  |
| Data Size    | 7 bytes |
| Instructions | 2       |

```
      00 01 02 03 04 05 06 07  08 09 0A 0B 0C 0D 0E 0F
      -- -- -- -- -- -- -- --  -- -- -- -- -- -- -- --
0000:                          92 01 F8 FF FF 7F 00             ....... 
```

#### Opcodes

```
  0: 0x0008 [0x92] EventEntity->Render.Flags3 ^= 0x01
  1: 0x000E [0x00] END_REQSTACK()
```

### Event 65535.1

#### Metadata

| Field        | Value   |
|--------------|---------|
| Entrypoint   | 0x000F  |
| Data Size    | 6 bytes |
| Instructions | 3       |

```
      00 01 02 03 04 05 06 07  08 09 0A 0B 0C 0D 0E 0F
      -- -- -- -- -- -- -- --  -- -- -- -- -- -- -- --
0000:                                               C0                 .
0010: 00 80 A5 01 00                                    .....           
```

#### Opcodes

```
  0: 0x000F [0xC0] EventEntity->Render.Flags3 |= 0x1000 // Set bit 12 (from 1*)
  1: 0x0012 [0xA5] EventEntity->Flags3.BallistaTeam |= 0x08  // Set bit 3 of BallistaTeam
  2: 0x0014 [0x00] END_REQSTACK()
```

### Event 65535.2

#### Metadata

| Field        | Value    |
|--------------|----------|
| Entrypoint   | 0x0015   |
| Data Size    | 22 bytes |
| Instructions | 6        |

```
      00 01 02 03 04 05 06 07  08 09 0A 0B 0C 0D 0E 0F
      -- -- -- -- -- -- -- --  -- -- -- -- -- -- -- --
0010:                32 01 80  1F 00 02 80 03 80 04 80       2..........
0020: 1F 01 1E B6 B2 09 01 1C  05 80 00                 ...........     
```

#### Opcodes

```
  0: 0x0015 [0x32] ExtData[1]->MainSpeed = 40* * 0.1
  1: 0x0018 [0x1F] MOVE_ENTITY: EventEntity moves to X=128.267*, Z=169.466*, Y=1.144*
  2: 0x0020 [0x1F] MOVE_ENTITY: Update entity position (mode=1)
  3: 0x0022 [0x1E] EventEntity looks at Klara (ID: 17412790/0x0109B2B6) and starts talking
  4: 0x0027 [0x1C] WAIT(30* ticks)
  5: 0x002A [0x00] END_REQSTACK()
```

### Event 65535.3

#### Metadata

| Field        | Value    |
|--------------|----------|
| Entrypoint   | 0x002B   |
| Data Size    | 14 bytes |
| Instructions | 4        |

```
      00 01 02 03 04 05 06 07  08 09 0A 0B 0C 0D 0E 0F
      -- -- -- -- -- -- -- --  -- -- -- -- -- -- -- --
0020:                                   32 01 80 1F 00             2....
0030: 06 80 07 80 08 80 1F 01  00                       .........       
```

#### Opcodes

```
  0: 0x002B [0x32] ExtData[1]->MainSpeed = 40* * 0.1
  1: 0x002E [0x1F] MOVE_ENTITY: EventEntity moves to X=119.200*, Z=161.431*, Y=0.999*
  2: 0x0036 [0x1F] MOVE_ENTITY: Update entity position (mode=1)
  3: 0x0038 [0x00] END_REQSTACK()
```

### Event 17

#### Metadata

| Field        | Value   |
|--------------|---------|
| Entrypoint   | 0x0039  |
| Data Size    | 7 bytes |
| Instructions | 2       |

```
      00 01 02 03 04 05 06 07  08 09 0A 0B 0C 0D 0E 0F
      -- -- -- -- -- -- -- --  -- -- -- -- -- -- -- --
0030:                             92 01 F8 FF FF 7F 00           .......
```

#### Opcodes

```
  0: 0x0039 [0x92] EventEntity->Render.Flags3 ^= 0x01
  1: 0x003F [0x00] END_REQSTACK()
```

### Event 65535.4

#### Metadata

| Field        | Value    |
|--------------|----------|
| Entrypoint   | 0x0040   |
| Data Size    | 22 bytes |
| Instructions | 6        |

```
      00 01 02 03 04 05 06 07  08 09 0A 0B 0C 0D 0E 0F
      -- -- -- -- -- -- -- --  -- -- -- -- -- -- -- --
0040: 32 01 80 1F 00 09 80 0A  80 0B 80 1F 01 1E AE B2  2...............
0050: 09 01 1C 05 80 00                                 ......          
```

#### Opcodes

```
  0: 0x0040 [0x32] ExtData[1]->MainSpeed = 40* * 0.1
  1: 0x0043 [0x1F] MOVE_ENTITY: EventEntity moves to X=-342.505*, Z=-96.426*, Y=-51.999*
  2: 0x004B [0x1F] MOVE_ENTITY: Update entity position (mode=1)
  3: 0x004D [0x1E] EventEntity looks at Nicolaus (ID: 17412782/0x0109B2AE) and starts talking
  4: 0x0052 [0x1C] WAIT(30* ticks)
  5: 0x0055 [0x00] END_REQSTACK()
```

### Event 65535.5

#### Metadata

| Field        | Value    |
|--------------|----------|
| Entrypoint   | 0x0056   |
| Data Size    | 14 bytes |
| Instructions | 4        |

```
      00 01 02 03 04 05 06 07  08 09 0A 0B 0C 0D 0E 0F
      -- -- -- -- -- -- -- --  -- -- -- -- -- -- -- --
0050:                   32 01  80 1F 00 0C 80 0D 80 0E        2.........
0060: 80 1F 01 00                                       ....            
```

#### Opcodes

```
  0: 0x0056 [0x32] ExtData[1]->MainSpeed = 40* * 0.1
  1: 0x0059 [0x1F] MOVE_ENTITY: EventEntity moves to X=-365.781*, Z=-104.180*, Y=-52.000*
  2: 0x0061 [0x1F] MOVE_ENTITY: Update entity position (mode=1)
  3: 0x0063 [0x00] END_REQSTACK()
```

### Event 65535.6

#### Metadata

| Field        | Value    |
|--------------|----------|
| Entrypoint   | 0x0064   |
| Data Size    | 24 bytes |
| Instructions | 6        |

```
      00 01 02 03 04 05 06 07  08 09 0A 0B 0C 0D 0E 0F
      -- -- -- -- -- -- -- --  -- -- -- -- -- -- -- --
0060:             32 0F 80 1F  00 10 80 11 80 0E 80 1F      2...........
0070: 01 4B AD B2 09 01 12 80  1C 13 80 00              .K..........    
```

#### Opcodes

```
  0: 0x0064 [0x32] ExtData[1]->MainSpeed = 13* * 0.1
  1: 0x0067 [0x1F] MOVE_ENTITY: EventEntity moves to X=-378.680*, Z=-98.616*, Y=-52.000*
  2: 0x006F [0x1F] MOVE_ENTITY: Update entity position (mode=1)
  3: 0x0071 [0x4B] UPDATE_ENTITY_YAW(entity=Zeid (ID: 17412781/0x0109B2AD), yaw=15.8°*)
  4: 0x0078 [0x1C] WAIT(60* ticks)
  5: 0x007B [0x00] END_REQSTACK()
```

### Event 65535.7

#### Metadata

| Field        | Value    |
|--------------|----------|
| Entrypoint   | 0x007C   |
| Data Size    | 24 bytes |
| Instructions | 6        |

```
      00 01 02 03 04 05 06 07  08 09 0A 0B 0C 0D 0E 0F
      -- -- -- -- -- -- -- --  -- -- -- -- -- -- -- --
0070:                                      32 0F 80 1F              2...
0080: 00 14 80 15 80 0E 80 1F  01 1F 00 14 80 16 80 0E  ................
0090: 80 1F 01 00                                       ....            
```

#### Opcodes

```
  0: 0x007C [0x32] ExtData[1]->MainSpeed = 13* * 0.1
  1: 0x007F [0x1F] MOVE_ENTITY: EventEntity moves to X=-381.355*, Z=-96.302*, Y=-52.000*
  2: 0x0087 [0x1F] MOVE_ENTITY: Update entity position (mode=1)
  3: 0x0089 [0x1F] MOVE_ENTITY: EventEntity moves to X=-381.355*, Z=-92.502*, Y=-52.000*
  4: 0x0091 [0x1F] MOVE_ENTITY: Update entity position (mode=1)
  5: 0x0093 [0x00] END_REQSTACK()
```

### Event 65535.8

#### Metadata

| Field        | Value    |
|--------------|----------|
| Entrypoint   | 0x0094   |
| Data Size    | 19 bytes |
| Instructions | 5        |

```
      00 01 02 03 04 05 06 07  08 09 0A 0B 0C 0D 0E 0F
      -- -- -- -- -- -- -- --  -- -- -- -- -- -- -- --
0090:             32 01 80 1F  00 17 80 18 80 0B 80 1F      2...........
00A0: 01 1E F0 FF FF 7F 00                              .......         
```

#### Opcodes

```
  0: 0x0094 [0x32] ExtData[1]->MainSpeed = 40* * 0.1
  1: 0x0097 [0x1F] MOVE_ENTITY: EventEntity moves to X=-365.405*, Z=-99.847*, Y=-51.999*
  2: 0x009F [0x1F] MOVE_ENTITY: Update entity position (mode=1)
  3: 0x00A1 [0x1E] EventEntity looks at LocalPlayer and starts talking
  4: 0x00A6 [0x00] END_REQSTACK()
```

### Event 65535.9

#### Metadata

| Field        | Value    |
|--------------|----------|
| Entrypoint   | 0x00A7   |
| Data Size    | 14 bytes |
| Instructions | 4        |

```
      00 01 02 03 04 05 06 07  08 09 0A 0B 0C 0D 0E 0F
      -- -- -- -- -- -- -- --  -- -- -- -- -- -- -- --
00A0:                      32  19 80 1F 00 1A 80 18 80         2........
00B0: 0B 80 1F 01 00                                    .....           
```

#### Opcodes

```
  0: 0x00A7 [0x32] ExtData[1]->MainSpeed = 10* * 0.1
  1: 0x00AA [0x1F] MOVE_ENTITY: EventEntity moves to X=-371.000*, Z=-99.847*, Y=-51.999*
  2: 0x00B2 [0x1F] MOVE_ENTITY: Update entity position (mode=1)
  3: 0x00B4 [0x00] END_REQSTACK()
```

### Event 65535.10

#### Metadata

| Field        | Value    |
|--------------|----------|
| Entrypoint   | 0x00B5   |
| Data Size    | 32 bytes |
| Instructions | 6        |

```
      00 01 02 03 04 05 06 07  08 09 0A 0B 0C 0D 0E 0F
      -- -- -- -- -- -- -- --  -- -- -- -- -- -- -- --
00B0:                32 19 80  1F 00 1B 80 18 80 0B 80       2..........
00C0: 1F 01 4A F0 FF FF 7F AD  B2 09 01 4A AC B2 09 01  ..J........J....
00D0: AD B2 09 01 00                                    .....           
```

#### Opcodes

```
  0: 0x00B5 [0x32] ExtData[1]->MainSpeed = 10* * 0.1
  1: 0x00B8 [0x1F] MOVE_ENTITY: EventEntity moves to X=-369.000*, Z=-99.847*, Y=-51.999*
  2: 0x00C0 [0x1F] MOVE_ENTITY: Update entity position (mode=1)
  3: 0x00C2 [0x4A] LocalPlayer looks at Zeid (ID: 17412781/0x0109B2AD)
  4: 0x00CB [0x4A] Volker (ID: 17412780/0x0109B2AC) looks at Zeid (ID: 17412781/0x0109B2AD)
  5: 0x00D4 [0x00] END_REQSTACK()
```

### Event 65535.11

#### Metadata

| Field        | Value    |
|--------------|----------|
| Entrypoint   | 0x00D5   |
| Data Size    | 14 bytes |
| Instructions | 4        |

```
      00 01 02 03 04 05 06 07  08 09 0A 0B 0C 0D 0E 0F
      -- -- -- -- -- -- -- --  -- -- -- -- -- -- -- --
00D0:                32 01 80  1F 00 1C 80 18 80 0B 80       2..........
00E0: 1F 01 00                                          ...             
```

#### Opcodes

```
  0: 0x00D5 [0x32] ExtData[1]->MainSpeed = 40* * 0.1
  1: 0x00D8 [0x1F] MOVE_ENTITY: EventEntity moves to X=-349.000*, Z=-99.847*, Y=-51.999*
  2: 0x00E0 [0x1F] MOVE_ENTITY: Update entity position (mode=1)
  3: 0x00E2 [0x00] END_REQSTACK()
```
