# 17412782 - Nicolaus

## Common Data

| Field            | Value                           |
|------------------|---------------------------------|
| Zone             | Castle Zvahl Keep [S] (ID: 155) |
| Block Size       | 580 bytes                       |
| Total Events     | 21                              |
| References Count | 40                              |

## List of Events

| Event ID                   | Entrypoint   |   Size |   Instructions |
|----------------------------|--------------|--------|----------------|
| [65535](#event-65535)      | 0x0000       |      1 |              1 |
| [12](#event-12)            | 0x0001       |      7 |              2 |
| [13](#event-13)            | 0x0008       |      7 |              2 |
| [14](#event-14)            | 0x000F       |      7 |              2 |
| [15](#event-15)            | 0x0016       |      7 |              2 |
| [17](#event-17)            | 0x001D       |     10 |              3 |
| [65535.1](#event-655351)   | 0x0027       |     22 |              6 |
| [65535.2](#event-655352)   | 0x003D       |      2 |              2 |
| [18](#event-18)            | 0x003F       |      7 |              2 |
| [65535.3](#event-655353)   | 0x0046       |     19 |              5 |
| [65535.4](#event-655354)   | 0x0059       |     14 |              4 |
| [65535.5](#event-655355)   | 0x0067       |     19 |              5 |
| [65535.6](#event-655356)   | 0x007A       |     14 |              4 |
| [65535.7](#event-655357)   | 0x0088       |     19 |              5 |
| [65535.8](#event-655358)   | 0x009B       |     14 |              4 |
| [65535.9](#event-655359)   | 0x00A9       |     19 |              5 |
| [65535.10](#event-6553510) | 0x00BC       |     21 |              5 |
| [65535.11](#event-6553511) | 0x00D1       |     19 |              5 |
| [65535.12](#event-6553512) | 0x00E4       |     19 |              5 |
| [65535.13](#event-6553513) | 0x00F7       |     27 |              7 |
| [65535.14](#event-6553514) | 0x0112       |     46 |             10 |

## DAT References (imed_data)

|   Index | Hex Value   |   Dec Value |
|---------|-------------|-------------|
|       0 | 0x0000      |           0 |
|       1 | 0x0028      |          40 |
|       2 | 0xFFFA45AD  |  4294591917 |
|       3 | 0xFFFE7120  |  4294865184 |
|       4 | 0xFFFF34E0  |  4294915296 |
|       5 | 0x001E      |          30 |
|       6 | 0xFFFEA030  |  4294877232 |
|       7 | 0x164CA     |       91338 |
|       8 | 0x0259      |         601 |
|       9 | 0xFFFEA1A6  |  4294877606 |
|      10 | 0x1A0F7     |      106743 |
|      11 | 0x0025      |          37 |
|      12 | 0xFFFE58B8  |  4294858936 |
|      13 | 0xFFFDB66C  |  4294817388 |
|      14 | 0x0023      |          35 |
|      15 | 0xFFFE8130  |  4294869296 |
|      16 | 0xFFFDB610  |  4294817296 |
|      17 | 0xFFFF9368  |  4294939496 |
|      18 | 0xFFFFCA26  |  4294953510 |
|      19 | 0xFFFA6A56  |  4294601302 |
|      20 | 0xFFFE6C36  |  4294863926 |
|      21 | 0xFFFF34E1  |  4294915297 |
|      22 | 0x000A      |          10 |
|      23 | 0xFFFA5DCD  |  4294598093 |
|      24 | 0xFFFE7506  |  4294866182 |
|      25 | 0x0801      |        2049 |
|      26 | 0xFFFA2BCA  |  4294585290 |
|      27 | 0xFFFE88AF  |  4294871215 |
|      28 | 0xFFFA5017  |  4294594583 |
|      29 | 0xFFFE742E  |  4294865966 |
|      30 | 0x003C      |          60 |
|      31 | 0x000D      |          13 |
|      32 | 0xFFFA4CA6  |  4294593702 |
|      33 | 0xFFFE77B4  |  4294866868 |
|      34 | 0xFFFA53B3  |  4294595507 |
|      35 | 0xFFFE6545  |  4294862149 |
|      36 | 0xFFFA5CC5  |  4294597829 |
|      37 | 0xFFFE607E  |  4294860926 |
|      38 | 0xFFFA82FB  |  4294607611 |
|      39 | 0xFFFE64B4  |  4294862004 |

## Events

### Event 65535

#### Metadata

| Field        | Value   |
|--------------|---------|
| Entrypoint   | 0x0000  |
| Data Size    | 1 bytes |
| Instructions | 1       |

```
      00 01 02 03 04 05 06 07  08 09 0A 0B 0C 0D 0E 0F
      -- -- -- -- -- -- -- --  -- -- -- -- -- -- -- --
0000: 00                                                .               
```

#### Opcodes

```
  0: 0x0000 [0x00] END_REQSTACK()
```

### Event 12

#### Metadata

| Field        | Value   |
|--------------|---------|
| Entrypoint   | 0x0001  |
| Data Size    | 7 bytes |
| Instructions | 2       |

```
      00 01 02 03 04 05 06 07  08 09 0A 0B 0C 0D 0E 0F
      -- -- -- -- -- -- -- --  -- -- -- -- -- -- -- --
0000:    92 01 F8 FF FF 7F 00                            .......        
```

#### Opcodes

```
  0: 0x0001 [0x92] EventEntity->Render.Flags3 ^= 0x01
  1: 0x0007 [0x00] END_REQSTACK()
```

### Event 13

#### Metadata

| Field        | Value   |
|--------------|---------|
| Entrypoint   | 0x0008  |
| Data Size    | 7 bytes |
| Instructions | 2       |

```
      00 01 02 03 04 05 06 07  08 09 0A 0B 0C 0D 0E 0F
      -- -- -- -- -- -- -- --  -- -- -- -- -- -- -- --
0000:                          92 01 F8 FF FF 7F 00             ....... 
```

#### Opcodes

```
  0: 0x0008 [0x92] EventEntity->Render.Flags3 ^= 0x01
  1: 0x000E [0x00] END_REQSTACK()
```

### Event 14

#### Metadata

| Field        | Value   |
|--------------|---------|
| Entrypoint   | 0x000F  |
| Data Size    | 7 bytes |
| Instructions | 2       |

```
      00 01 02 03 04 05 06 07  08 09 0A 0B 0C 0D 0E 0F
      -- -- -- -- -- -- -- --  -- -- -- -- -- -- -- --
0000:                                               92                 .
0010: 01 F8 FF FF 7F 00                                 ......          
```

#### Opcodes

```
  0: 0x000F [0x92] EventEntity->Render.Flags3 ^= 0x01
  1: 0x0015 [0x00] END_REQSTACK()
```

### Event 15

#### Metadata

| Field        | Value   |
|--------------|---------|
| Entrypoint   | 0x0016  |
| Data Size    | 7 bytes |
| Instructions | 2       |

```
      00 01 02 03 04 05 06 07  08 09 0A 0B 0C 0D 0E 0F
      -- -- -- -- -- -- -- --  -- -- -- -- -- -- -- --
0010:                   92 01  F8 FF FF 7F 00                 .......   
```

#### Opcodes

```
  0: 0x0016 [0x92] EventEntity->Render.Flags3 ^= 0x01
  1: 0x001C [0x00] END_REQSTACK()
```

### Event 17

#### Metadata

| Field        | Value    |
|--------------|----------|
| Entrypoint   | 0x001D   |
| Data Size    | 10 bytes |
| Instructions | 3        |

```
      00 01 02 03 04 05 06 07  08 09 0A 0B 0C 0D 0E 0F
      -- -- -- -- -- -- -- --  -- -- -- -- -- -- -- --
0010:                                         92 01 F8               ...
0020: FF FF 7F 95 00 80 00                              .......         
```

#### Opcodes

```
  0: 0x001D [0x92] EventEntity->Render.Flags3 ^= 0x01
  1: 0x0023 [0x95] SETUP_EVENT_NPC: Prepare NPC for event (Render.Flags3 = 0*)
  2: 0x0026 [0x00] END_REQSTACK()
```

### Event 65535.1

#### Metadata

| Field        | Value    |
|--------------|----------|
| Entrypoint   | 0x0027   |
| Data Size    | 22 bytes |
| Instructions | 6        |

```
      00 01 02 03 04 05 06 07  08 09 0A 0B 0C 0D 0E 0F
      -- -- -- -- -- -- -- --  -- -- -- -- -- -- -- --
0020:                      32  01 80 1F 00 02 80 03 80         2........
0030: 04 80 1F 01 1E B7 B2 09  01 1C 05 80 00           .............   
```

#### Opcodes

```
  0: 0x0027 [0x32] ExtData[1]->MainSpeed = 40* * 0.1
  1: 0x002A [0x1F] MOVE_ENTITY: EventEntity moves to X=-375.379*, Z=-102.112*, Y=-52.000*
  2: 0x0032 [0x1F] MOVE_ENTITY: Update entity position (mode=1)
  3: 0x0034 [0x1E] EventEntity looks at Marquis Amon (ID: 17412791/0x0109B2B7) and starts talking
  4: 0x0039 [0x1C] WAIT(30* ticks)
  5: 0x003C [0x00] END_REQSTACK()
```

### Event 65535.2

#### Metadata

| Field        | Value   |
|--------------|---------|
| Entrypoint   | 0x003D  |
| Data Size    | 2 bytes |
| Instructions | 2       |

```
      00 01 02 03 04 05 06 07  08 09 0A 0B 0C 0D 0E 0F
      -- -- -- -- -- -- -- --  -- -- -- -- -- -- -- --
0030:                                         96 00                  .. 
```

#### Opcodes

```
  0: 0x003D [0x96] UNSET_EVENT_NPC: Restore NPC after event (removes event NPC status)
  1: 0x003E [0x00] END_REQSTACK()
```

### Event 18

#### Metadata

| Field        | Value   |
|--------------|---------|
| Entrypoint   | 0x003F  |
| Data Size    | 7 bytes |
| Instructions | 2       |

```
      00 01 02 03 04 05 06 07  08 09 0A 0B 0C 0D 0E 0F
      -- -- -- -- -- -- -- --  -- -- -- -- -- -- -- --
0030:                                               92                 .
0040: 01 F8 FF FF 7F 00                                 ......          
```

#### Opcodes

```
  0: 0x003F [0x92] EventEntity->Render.Flags3 ^= 0x01
  1: 0x0045 [0x00] END_REQSTACK()
```

### Event 65535.3

#### Metadata

| Field        | Value    |
|--------------|----------|
| Entrypoint   | 0x0046   |
| Data Size    | 19 bytes |
| Instructions | 5        |

```
      00 01 02 03 04 05 06 07  08 09 0A 0B 0C 0D 0E 0F
      -- -- -- -- -- -- -- --  -- -- -- -- -- -- -- --
0040:                   32 01  80 1F 00 06 80 07 80 08        2.........
0050: 80 1F 01 1E F0 FF FF 7F  00                       .........       
```

#### Opcodes

```
  0: 0x0046 [0x32] ExtData[1]->MainSpeed = 40* * 0.1
  1: 0x0049 [0x1F] MOVE_ENTITY: EventEntity moves to X=-90.064*, Z=91.338*, Y=0.601*
  2: 0x0051 [0x1F] MOVE_ENTITY: Update entity position (mode=1)
  3: 0x0053 [0x1E] EventEntity looks at LocalPlayer and starts talking
  4: 0x0058 [0x00] END_REQSTACK()
```

### Event 65535.4

#### Metadata

| Field        | Value    |
|--------------|----------|
| Entrypoint   | 0x0059   |
| Data Size    | 14 bytes |
| Instructions | 4        |

```
      00 01 02 03 04 05 06 07  08 09 0A 0B 0C 0D 0E 0F
      -- -- -- -- -- -- -- --  -- -- -- -- -- -- -- --
0050:                             32 01 80 1F 00 09 80           2......
0060: 0A 80 08 80 1F 01 00                              .......         
```

#### Opcodes

```
  0: 0x0059 [0x32] ExtData[1]->MainSpeed = 40* * 0.1
  1: 0x005C [0x1F] MOVE_ENTITY: EventEntity moves to X=-89.690*, Z=106.743*, Y=0.601*
  2: 0x0064 [0x1F] MOVE_ENTITY: Update entity position (mode=1)
  3: 0x0066 [0x00] END_REQSTACK()
```

### Event 65535.5

#### Metadata

| Field        | Value    |
|--------------|----------|
| Entrypoint   | 0x0067   |
| Data Size    | 19 bytes |
| Instructions | 5        |

```
      00 01 02 03 04 05 06 07  08 09 0A 0B 0C 0D 0E 0F
      -- -- -- -- -- -- -- --  -- -- -- -- -- -- -- --
0060:                      32  0B 80 1F 00 0C 80 0D 80         2........
0070: 08 80 1F 01 1E F0 FF FF  7F 00                    ..........      
```

#### Opcodes

```
  0: 0x0067 [0x32] ExtData[1]->MainSpeed = 37* * 0.1
  1: 0x006A [0x1F] MOVE_ENTITY: EventEntity moves to X=-108.360*, Z=-149.908*, Y=0.601*
  2: 0x0072 [0x1F] MOVE_ENTITY: Update entity position (mode=1)
  3: 0x0074 [0x1E] EventEntity looks at LocalPlayer and starts talking
  4: 0x0079 [0x00] END_REQSTACK()
```

### Event 65535.6

#### Metadata

| Field        | Value    |
|--------------|----------|
| Entrypoint   | 0x007A   |
| Data Size    | 14 bytes |
| Instructions | 4        |

```
      00 01 02 03 04 05 06 07  08 09 0A 0B 0C 0D 0E 0F
      -- -- -- -- -- -- -- --  -- -- -- -- -- -- -- --
0070:                                32 0E 80 1F 00 0F            2.....
0080: 80 10 80 00 80 1F 01 00                           ........        
```

#### Opcodes

```
  0: 0x007A [0x32] ExtData[1]->MainSpeed = 35* * 0.1
  1: 0x007D [0x1F] MOVE_ENTITY: EventEntity moves to X=-98.000*, Z=-150.000*, Y=0.000*
  2: 0x0085 [0x1F] MOVE_ENTITY: Update entity position (mode=1)
  3: 0x0087 [0x00] END_REQSTACK()
```

### Event 65535.7

#### Metadata

| Field        | Value    |
|--------------|----------|
| Entrypoint   | 0x0088   |
| Data Size    | 19 bytes |
| Instructions | 5        |

```
      00 01 02 03 04 05 06 07  08 09 0A 0B 0C 0D 0E 0F
      -- -- -- -- -- -- -- --  -- -- -- -- -- -- -- --
0080:                          32 01 80 1F 00 11 80 10          2.......
0090: 80 08 80 1F 01 1E F0 FF  FF 7F 00                 ...........     
```

#### Opcodes

```
  0: 0x0088 [0x32] ExtData[1]->MainSpeed = 40* * 0.1
  1: 0x008B [0x1F] MOVE_ENTITY: EventEntity moves to X=-27.800*, Z=-150.000*, Y=0.601*
  2: 0x0093 [0x1F] MOVE_ENTITY: Update entity position (mode=1)
  3: 0x0095 [0x1E] EventEntity looks at LocalPlayer and starts talking
  4: 0x009A [0x00] END_REQSTACK()
```

### Event 65535.8

#### Metadata

| Field        | Value    |
|--------------|----------|
| Entrypoint   | 0x009B   |
| Data Size    | 14 bytes |
| Instructions | 4        |

```
      00 01 02 03 04 05 06 07  08 09 0A 0B 0C 0D 0E 0F
      -- -- -- -- -- -- -- --  -- -- -- -- -- -- -- --
0090:                                   32 0E 80 1F 00             2....
00A0: 12 80 10 80 08 80 1F 01  00                       .........       
```

#### Opcodes

```
  0: 0x009B [0x32] ExtData[1]->MainSpeed = 35* * 0.1
  1: 0x009E [0x1F] MOVE_ENTITY: EventEntity moves to X=-13.786*, Z=-150.000*, Y=0.601*
  2: 0x00A6 [0x1F] MOVE_ENTITY: Update entity position (mode=1)
  3: 0x00A8 [0x00] END_REQSTACK()
```

### Event 65535.9

#### Metadata

| Field        | Value    |
|--------------|----------|
| Entrypoint   | 0x00A9   |
| Data Size    | 19 bytes |
| Instructions | 5        |

```
      00 01 02 03 04 05 06 07  08 09 0A 0B 0C 0D 0E 0F
      -- -- -- -- -- -- -- --  -- -- -- -- -- -- -- --
00A0:                             32 01 80 1F 00 13 80           2......
00B0: 14 80 15 80 1F 01 1E F0  FF FF 7F 00              ............    
```

#### Opcodes

```
  0: 0x00A9 [0x32] ExtData[1]->MainSpeed = 40* * 0.1
  1: 0x00AC [0x1F] MOVE_ENTITY: EventEntity moves to X=-365.994*, Z=-103.370*, Y=-51.999*
  2: 0x00B4 [0x1F] MOVE_ENTITY: Update entity position (mode=1)
  3: 0x00B6 [0x1E] EventEntity looks at LocalPlayer and starts talking
  4: 0x00BB [0x00] END_REQSTACK()
```

### Event 65535.10

#### Metadata

| Field        | Value    |
|--------------|----------|
| Entrypoint   | 0x00BC   |
| Data Size    | 21 bytes |
| Instructions | 5        |

```
      00 01 02 03 04 05 06 07  08 09 0A 0B 0C 0D 0E 0F
      -- -- -- -- -- -- -- --  -- -- -- -- -- -- -- --
00B0:                                      32 16 80 1F              2...
00C0: 00 17 80 18 80 15 80 1F  01 4B AE B2 09 01 19 80  .........K......
00D0: 00                                                .               
```

#### Opcodes

```
  0: 0x00BC [0x32] ExtData[1]->MainSpeed = 10* * 0.1
  1: 0x00BF [0x1F] MOVE_ENTITY: EventEntity moves to X=-369.203*, Z=-101.114*, Y=-51.999*
  2: 0x00C7 [0x1F] MOVE_ENTITY: Update entity position (mode=1)
  3: 0x00C9 [0x4B] UPDATE_ENTITY_YAW(entity=Nicolaus (ID: 17412782/0x0109B2AE), yaw=11.3°*)
  4: 0x00D0 [0x00] END_REQSTACK()
```

### Event 65535.11

#### Metadata

| Field        | Value    |
|--------------|----------|
| Entrypoint   | 0x00D1   |
| Data Size    | 19 bytes |
| Instructions | 5        |

```
      00 01 02 03 04 05 06 07  08 09 0A 0B 0C 0D 0E 0F
      -- -- -- -- -- -- -- --  -- -- -- -- -- -- -- --
00D0:    32 0B 80 1F 00 1A 80  1B 80 15 80 1F 01 1E C1   2..............
00E0: B2 09 01 00                                       ....            
```

#### Opcodes

```
  0: 0x00D1 [0x32] ExtData[1]->MainSpeed = 37* * 0.1
  1: 0x00D4 [0x1F] MOVE_ENTITY: EventEntity moves to X=-382.006*, Z=-96.081*, Y=-51.999*
  2: 0x00DC [0x1F] MOVE_ENTITY: Update entity position (mode=1)
  3: 0x00DE [0x1E] EventEntity looks at noname (ID: 17412801/0x0109B2C1) and starts talking
  4: 0x00E3 [0x00] END_REQSTACK()
```

### Event 65535.12

#### Metadata

| Field        | Value    |
|--------------|----------|
| Entrypoint   | 0x00E4   |
| Data Size    | 19 bytes |
| Instructions | 5        |

```
      00 01 02 03 04 05 06 07  08 09 0A 0B 0C 0D 0E 0F
      -- -- -- -- -- -- -- --  -- -- -- -- -- -- -- --
00E0:             32 01 80 1F  00 1C 80 1D 80 15 80 1F      2...........
00F0: 01 1E F0 FF FF 7F 00                              .......         
```

#### Opcodes

```
  0: 0x00E4 [0x32] ExtData[1]->MainSpeed = 40* * 0.1
  1: 0x00E7 [0x1F] MOVE_ENTITY: EventEntity moves to X=-372.713*, Z=-101.330*, Y=-51.999*
  2: 0x00EF [0x1F] MOVE_ENTITY: Update entity position (mode=1)
  3: 0x00F1 [0x1E] EventEntity looks at LocalPlayer and starts talking
  4: 0x00F6 [0x00] END_REQSTACK()
```

### Event 65535.13

#### Metadata

| Field        | Value    |
|--------------|----------|
| Entrypoint   | 0x00F7   |
| Data Size    | 27 bytes |
| Instructions | 7        |

```
      00 01 02 03 04 05 06 07  08 09 0A 0B 0C 0D 0E 0F
      -- -- -- -- -- -- -- --  -- -- -- -- -- -- -- --
00F0:                      1E  B3 B2 09 01 1C 1E 80 32         ........2
0100: 1F 80 1F 00 20 80 21 80  15 80 1F 01 1E B3 B2 09  .... .!.........
0110: 01 00                                             ..              
```

#### Opcodes

```
  0: 0x00F7 [0x1E] EventEntity looks at Allenberge (ID: 17412787/0x0109B2B3) and starts talking
  1: 0x00FC [0x1C] WAIT(60* ticks)
  2: 0x00FF [0x32] ExtData[1]->MainSpeed = 13* * 0.1
  3: 0x0102 [0x1F] MOVE_ENTITY: EventEntity moves to X=-373.594*, Z=-100.428*, Y=-51.999*
  4: 0x010A [0x1F] MOVE_ENTITY: Update entity position (mode=1)
  5: 0x010C [0x1E] EventEntity looks at Allenberge (ID: 17412787/0x0109B2B3) and starts talking
  6: 0x0111 [0x00] END_REQSTACK()
```

### Event 65535.14

#### Metadata

| Field        | Value    |
|--------------|----------|
| Entrypoint   | 0x0112   |
| Data Size    | 46 bytes |
| Instructions | 10       |

```
      00 01 02 03 04 05 06 07  08 09 0A 0B 0C 0D 0E 0F
      -- -- -- -- -- -- -- --  -- -- -- -- -- -- -- --
0110:       1C 1E 80 4A B5 B2  09 01 AC B2 09 01 32 01    ...J........2.
0120: 80 1F 00 22 80 23 80 15  80 1F 01 1F 00 24 80 25  ...".#.......$.%
0130: 80 15 80 1F 01 1F 00 26  80 27 80 15 80 1F 01 00  .......&.'......
```

#### Opcodes

```
  0: 0x0112 [0x1C] WAIT(60* ticks)
  1: 0x0115 [0x4A] Unnamed NPC (ID: 17412789/0x0109B2B5) looks at Volker (ID: 17412780/0x0109B2AC)
  2: 0x011E [0x32] ExtData[1]->MainSpeed = 40* * 0.1
  3: 0x0121 [0x1F] MOVE_ENTITY: EventEntity moves to X=-371.789*, Z=-105.147*, Y=-51.999*
  4: 0x0129 [0x1F] MOVE_ENTITY: Update entity position (mode=1)
  5: 0x012B [0x1F] MOVE_ENTITY: EventEntity moves to X=-369.467*, Z=-106.370*, Y=-51.999*
  6: 0x0133 [0x1F] MOVE_ENTITY: Update entity position (mode=1)
  7: 0x0135 [0x1F] MOVE_ENTITY: EventEntity moves to X=-359.685*, Z=-105.292*, Y=-51.999*
  8: 0x013D [0x1F] MOVE_ENTITY: Update entity position (mode=1)
  9: 0x013F [0x00] END_REQSTACK()
```
