# 17412775 - Rikke

## Common Data

| Field            | Value                           |
|------------------|---------------------------------|
| Zone             | Castle Zvahl Keep [S] (ID: 155) |
| Block Size       | 256 bytes                       |
| Total Events     | 7                               |
| References Count | 13                              |

## List of Events

| Event ID              | Entrypoint   |   Size |   Instructions |
|-----------------------|--------------|--------|----------------|
| [65535](#event-65535) | 0x0000       |      1 |              1 |
| [28](#event-28)       | 0x0001       |     18 |              8 |
| [9](#event-9)         | 0x0013       |      7 |              2 |
| [19](#event-19)       | 0x001A       |     65 |             18 |
| [12](#event-12)       | 0x005B       |      7 |              2 |
| [22](#event-22)       | 0x0062       |     33 |             12 |
| [25](#event-25)       | 0x0083       |     29 |             10 |

## DAT References (imed_data)

|   Index | Hex Value   |   Dec Value |
|---------|-------------|-------------|
|       0 | 0x1E27      |        7719 |
|       1 | 0x001E      |          30 |
|       2 | 0x1E28      |        7720 |
|       3 | 0x0000      |           0 |
|       4 | 0x1DE6      |        7654 |
|       5 | 0x0001      |           1 |
|       6 | 0x1DE8      |        7656 |
|       7 | 0x0002      |           2 |
|       8 | 0x1E07      |        7687 |
|       9 | 0x1E08      |        7688 |
|      10 | 0x1E0B      |        7691 |
|      11 | 0x1E0C      |        7692 |
|      12 | 0x1E0D      |        7693 |

## String References

- **7654**: Ya'd have better luck gettin' the lowdown from the Shadow Lord himself than trustin' a word that comes out of the mouth of the swindler to th' [southeast/northwest/north/west] of me.
- **7656**: Look into these eyes. Do they look like lyin' eyes to you? Wait, don't answer that...
- **7687**: You again? Didn't I already tell ya that your lady is up above, in the southwest chamber?
- **7688**: Now scram, before the boss makes a Rikkebab outta me for talkin' to you!
- **7691**: You wingless ones really ain't too bright, are ya? Didn't yer mommy ever tell ya not to trust an imp?
- **7692**: Saw through our little ruse, did ya? Ya got a better head on yer shoulders than most wingless ones, I'll give ya that.
- **7693**: Oh, now you come back, do ya? "Oh, Rikke! How could I ever have doubted you?" Bah! Yer a day late and about a hundred beastcoins short, [mister/lady].
- **7719**: Intruder alert! Intruder alert! Woooooo! Woooooo!
- **7720**: ...Or that's what I'd say if I weren't on break. Move along now. Nothin' to see here!

## Events

### Event 65535

#### Metadata

| Field        | Value   |
|--------------|---------|
| Entrypoint   | 0x0000  |
| Data Size    | 1 bytes |
| Instructions | 1       |

```
      00 01 02 03 04 05 06 07  08 09 0A 0B 0C 0D 0E 0F
      -- -- -- -- -- -- -- --  -- -- -- -- -- -- -- --
0000: 00                                                .               
```

#### Opcodes

```
  0: 0x0000 [0x00] END_REQSTACK()
```

### Event 28

#### Metadata

| Field        | Value    |
|--------------|----------|
| Entrypoint   | 0x0001   |
| Data Size    | 18 bytes |
| Instructions | 8        |

```
      00 01 02 03 04 05 06 07  08 09 0A 0B 0C 0D 0E 0F
      -- -- -- -- -- -- -- --  -- -- -- -- -- -- -- --
0000:    1E F0 FF FF 7F 1D 00  80 23 1C 01 80 1D 02 80   ........#......
0010: 23 21 00                                          #!.             
```

#### Opcodes

```
  0: 0x0001 [0x1E] EventEntity looks at LocalPlayer and starts talking
  1: 0x0006 [0x1D] PRINT_EVENT_MESSAGE(message_id=7719*)
    → "Intruder alert! Intruder alert! Woooooo! Woooooo!"
  2: 0x0009 [0x23] WAIT_FOR_DIALOG_INTERACTION
  3: 0x000A [0x1C] WAIT(30* ticks)
  4: 0x000D [0x1D] PRINT_EVENT_MESSAGE(message_id=7720*)
    → "...Or that's what I'd say if I weren't on break. Move along now. Nothin' to see here!"
  5: 0x0010 [0x23] WAIT_FOR_DIALOG_INTERACTION
  6: 0x0011 [0x21] END_EVENT
  7: 0x0012 [0x00] END_REQSTACK()
```

### Event 9

#### Metadata

| Field        | Value   |
|--------------|---------|
| Entrypoint   | 0x0013  |
| Data Size    | 7 bytes |
| Instructions | 2       |

```
      00 01 02 03 04 05 06 07  08 09 0A 0B 0C 0D 0E 0F
      -- -- -- -- -- -- -- --  -- -- -- -- -- -- -- --
0010:          92 01 F8 FF FF  7F 00                       .......      
```

#### Opcodes

```
  0: 0x0013 [0x92] EventEntity->Render.Flags3 ^= 0x01
  1: 0x0019 [0x00] END_REQSTACK()
```

### Event 19

#### Metadata

| Field        | Value    |
|--------------|----------|
| Entrypoint   | 0x001A   |
| Data Size    | 65 bytes |
| Instructions | 18       |

```
      00 01 02 03 04 05 06 07  08 09 0A 0B 0C 0D 0E 0F
      -- -- -- -- -- -- -- --  -- -- -- -- -- -- -- --
0010:                                1E F0 FF FF 7F 1C            ......
0020: 01 80 02 04 10 03 80 80  36 00 03 02 10 03 80 1D  ........6.......
0030: 04 80 23 01 59 00 02 04  10 05 80 80 45 00 1D 06  ..#.Y.......E...
0040: 80 23 01 59 00 02 04 10  07 80 80 59 00 03 02 10  .#.Y.......Y....
0050: 03 80 1D 04 80 23 01 59  00 21 00                 .....#.Y.!.     
```

#### Opcodes

```
  0: 0x001A [0x1E] EventEntity looks at LocalPlayer and starts talking
  1: 0x001F [0x1C] WAIT(30* ticks)
  2: 0x0022 [0x02] IF !(Work_Zone[4] == 0*) GOTO 0x0036
  3: 0x002A [0x03] Work_Zone[2] = 0*
  4: 0x002F [0x1D] PRINT_EVENT_MESSAGE(message_id=7654*)
    → "Ya'd have better luck gettin' the lowdown from the Shadow Lord himself than trustin' a word that comes out of the mouth of the swindler to th' [southeast/northwest/north/west] of me."
  5: 0x0032 [0x23] WAIT_FOR_DIALOG_INTERACTION
  6: 0x0033 [0x01] GOTO 0x0059
  7: 0x0036 [0x02] IF !(Work_Zone[4] == 1*) GOTO 0x0045
  8: 0x003E [0x1D] PRINT_EVENT_MESSAGE(message_id=7656*)
    → "Look into these eyes. Do they look like lyin' eyes to you? Wait, don't answer that..."
  9: 0x0041 [0x23] WAIT_FOR_DIALOG_INTERACTION
 10: 0x0042 [0x01] GOTO 0x0059
 11: 0x0045 [0x02] IF !(Work_Zone[4] == 2*) GOTO 0x0059
 12: 0x004D [0x03] Work_Zone[2] = 0*
 13: 0x0052 [0x1D] PRINT_EVENT_MESSAGE(message_id=7654*)
    → "Ya'd have better luck gettin' the lowdown from the Shadow Lord himself than trustin' a word that comes out of the mouth of the swindler to th' [southeast/northwest/north/west] of me."
 14: 0x0055 [0x23] WAIT_FOR_DIALOG_INTERACTION
 15: 0x0056 [0x01] GOTO 0x0059

SUBROUTINE_0059:
 16: 0x0059 [0x21] END_EVENT
 17: 0x005A [0x00] END_REQSTACK()
```

### Event 12

#### Metadata

| Field        | Value   |
|--------------|---------|
| Entrypoint   | 0x005B  |
| Data Size    | 7 bytes |
| Instructions | 2       |

```
      00 01 02 03 04 05 06 07  08 09 0A 0B 0C 0D 0E 0F
      -- -- -- -- -- -- -- --  -- -- -- -- -- -- -- --
0050:                                   92 01 F8 FF FF             .....
0060: 7F 00                                             ..              
```

#### Opcodes

```
  0: 0x005B [0x92] EventEntity->Render.Flags3 ^= 0x01
  1: 0x0061 [0x00] END_REQSTACK()
```

### Event 22

#### Metadata

| Field        | Value    |
|--------------|----------|
| Entrypoint   | 0x0062   |
| Data Size    | 33 bytes |
| Instructions | 12       |

```
      00 01 02 03 04 05 06 07  08 09 0A 0B 0C 0D 0E 0F
      -- -- -- -- -- -- -- --  -- -- -- -- -- -- -- --
0060:       1E F0 FF FF 7F 1C  01 80 02 04 10 05 80 00    ..............
0070: 7D 00 1D 08 80 23 1D 09  80 23 01 81 00 1D 0A 80  }....#...#......
0080: 23 21 00                                          #!.             
```

#### Opcodes

```
  0: 0x0062 [0x1E] EventEntity looks at LocalPlayer and starts talking
  1: 0x0067 [0x1C] WAIT(30* ticks)
  2: 0x006A [0x02] IF !(Work_Zone[4] == 1*) GOTO 0x007D
  3: 0x0072 [0x1D] PRINT_EVENT_MESSAGE(message_id=7687*)
    → "You again? Didn't I already tell ya that your lady is up above, in the southwest chamber?"
  4: 0x0075 [0x23] WAIT_FOR_DIALOG_INTERACTION
  5: 0x0076 [0x1D] PRINT_EVENT_MESSAGE(message_id=7688*)
    → "Now scram, before the boss makes a Rikkebab outta me for talkin' to you!"
  6: 0x0079 [0x23] WAIT_FOR_DIALOG_INTERACTION
  7: 0x007A [0x01] GOTO 0x0081
  8: 0x007D [0x1D] PRINT_EVENT_MESSAGE(message_id=7691*)
    → "You wingless ones really ain't too bright, are ya? Didn't yer mommy ever tell ya not to trust an imp?"
  9: 0x0080 [0x23] WAIT_FOR_DIALOG_INTERACTION

SUBROUTINE_0081:
 10: 0x0081 [0x21] END_EVENT
 11: 0x0082 [0x00] END_REQSTACK()
```

### Event 25

#### Metadata

| Field        | Value    |
|--------------|----------|
| Entrypoint   | 0x0083   |
| Data Size    | 29 bytes |
| Instructions | 10       |

```
      00 01 02 03 04 05 06 07  08 09 0A 0B 0C 0D 0E 0F
      -- -- -- -- -- -- -- --  -- -- -- -- -- -- -- --
0080:          1E F0 FF FF 7F  1C 01 80 02 02 10 05 80     .............
0090: 00 9A 00 1D 0B 80 23 01  9E 00 1D 0C 80 23 21 00  ......#......#!.
```

#### Opcodes

```
  0: 0x0083 [0x1E] EventEntity looks at LocalPlayer and starts talking
  1: 0x0088 [0x1C] WAIT(30* ticks)
  2: 0x008B [0x02] IF !(Work_Zone[2] == 1*) GOTO 0x009A
  3: 0x0093 [0x1D] PRINT_EVENT_MESSAGE(message_id=7692*)
    → "Saw through our little ruse, did ya? Ya got a better head on yer shoulders than most wingless ones, I'll give ya that."
  4: 0x0096 [0x23] WAIT_FOR_DIALOG_INTERACTION
  5: 0x0097 [0x01] GOTO 0x009E
  6: 0x009A [0x1D] PRINT_EVENT_MESSAGE(message_id=7693*)
    → "Oh, now you come back, do ya? "Oh, Rikke! How could I ever have doubted you?" Bah! Yer a day late and about a hundred beastcoins short, [mister/lady]."
  7: 0x009D [0x23] WAIT_FOR_DIALOG_INTERACTION

SUBROUTINE_009E:
  8: 0x009E [0x21] END_EVENT
  9: 0x009F [0x00] END_REQSTACK()
```
