# 17412733 - Ore Door

## Common Data

| Field            | Value                           |
|------------------|---------------------------------|
| Zone             | Castle Zvahl Keep [S] (ID: 155) |
| Block Size       | 340 bytes                       |
| Total Events     | 6                               |
| References Count | 13                              |

## List of Events

| Event ID                 | Entrypoint   |   Size |   Instructions |
|--------------------------|--------------|--------|----------------|
| [65535](#event-65535)    | 0x0000       |      1 |              1 |
| [11](#event-11)          | 0x0001       |      1 |              1 |
| [14](#event-14)          | 0x0002       |      1 |              1 |
| [65535.1](#event-655351) | 0x0003       |      2 |              2 |
| [65535.2](#event-655352) | 0x0005       |      2 |              2 |
| [90](#event-90)          | 0x0007       |    241 |             50 |

## DAT References (imed_data)

|   Index | Hex Value   |   Dec Value |
|---------|-------------|-------------|
|       0 | 0x1EC5      |        7877 |
|       1 | 0x0000      |           0 |
|       2 | 0x0001      |           1 |
|       3 | 0x0002      |           2 |
|       4 | 0x0003      |           3 |
|       5 | 0x0004      |           4 |
|       6 | 0x0005      |           5 |
|       7 | 0x0006      |           6 |
|       8 | 0x0007      |           7 |
|       9 | 0x0008      |           8 |
|      10 | 0x0009      |           9 |
|      11 | 0x000A      |          10 |
|      12 | 0x1EC6      |        7878 |

## String References

- **7877**: G1)g$n_\\7)$6226530i $3o$3X$3$5243472_$P10v$P13|5= $3o$3X$3$5243472_$3N$3$3$2I%o$ $3o$3X$3$5243472_$P12n%:$P12J%H$s- $3o$3X$3$5309008_$3U$3C$3h$P142/i $3o$3X$3$5309008_$3C$3$3v$P13|5= $3o$3X$3$5309008_$6$3{$3X$P13|5=
- **7878**: *$P11I$P11p3j\\5=B$3C$3x$3$3g<Player>J$P12uM$3605061B

## Events

### Event 65535

#### Metadata

| Field        | Value   |
|--------------|---------|
| Entrypoint   | 0x0000  |
| Data Size    | 1 bytes |
| Instructions | 1       |

```
      00 01 02 03 04 05 06 07  08 09 0A 0B 0C 0D 0E 0F
      -- -- -- -- -- -- -- --  -- -- -- -- -- -- -- --
0000: 00                                                .               
```

#### Opcodes

```
  0: 0x0000 [0x00] END_REQSTACK()
```

### Event 11

#### Metadata

| Field        | Value   |
|--------------|---------|
| Entrypoint   | 0x0001  |
| Data Size    | 1 bytes |
| Instructions | 1       |

```
      00 01 02 03 04 05 06 07  08 09 0A 0B 0C 0D 0E 0F
      -- -- -- -- -- -- -- --  -- -- -- -- -- -- -- --
0000:    00                                              .              
```

#### Opcodes

```
  0: 0x0001 [0x00] END_REQSTACK()
```

### Event 14

#### Metadata

| Field        | Value   |
|--------------|---------|
| Entrypoint   | 0x0002  |
| Data Size    | 1 bytes |
| Instructions | 1       |

```
      00 01 02 03 04 05 06 07  08 09 0A 0B 0C 0D 0E 0F
      -- -- -- -- -- -- -- --  -- -- -- -- -- -- -- --
0000:       00                                            .             
```

#### Opcodes

```
  0: 0x0002 [0x00] END_REQSTACK()
```

### Event 65535.1

#### Metadata

| Field        | Value   |
|--------------|---------|
| Entrypoint   | 0x0003  |
| Data Size    | 2 bytes |
| Instructions | 2       |

```
      00 01 02 03 04 05 06 07  08 09 0A 0B 0C 0D 0E 0F
      -- -- -- -- -- -- -- --  -- -- -- -- -- -- -- --
0000:          8E 00                                       ..           
```

#### Opcodes

```
  0: 0x0003 [0x8E] EventEntity->StatusEvent = 45
  1: 0x0004 [0x00] END_REQSTACK()
```

### Event 65535.2

#### Metadata

| Field        | Value   |
|--------------|---------|
| Entrypoint   | 0x0005  |
| Data Size    | 2 bytes |
| Instructions | 2       |

```
      00 01 02 03 04 05 06 07  08 09 0A 0B 0C 0D 0E 0F
      -- -- -- -- -- -- -- --  -- -- -- -- -- -- -- --
0000:                8F 00                                   ..         
```

#### Opcodes

```
  0: 0x0005 [0x8F] SET_ENTITY_STATUS_EVENT_46()
  1: 0x0006 [0x00] END_REQSTACK()
```

### Event 90

#### Metadata

| Field        | Value     |
|--------------|-----------|
| Entrypoint   | 0x0007    |
| Data Size    | 241 bytes |
| Instructions | 9         |

```
      00 01 02 03 04 05 06 07  08 09 0A 0B 0C 0D 0E 0F
      -- -- -- -- -- -- -- --  -- -- -- -- -- -- -- --
0000:                      24  00 80 01 80 01 80 25 02         $......%.
0010: 00 10 01 80 00 20 00 03  01 10 01 80 21 01 F2 00  ..... ......!...
0020: 02 00 10 02 80 00 35 00  03 01 10 02 80 03 02 10  ......5.........
0030: 01 80 01 F2 00 02 00 10  03 80 00 4A 00 03 01 10  ...........J....
0040: 03 80 03 02 10 02 80 01  F2 00 02 00 10 04 80 00  ................
0050: 5F 00 03 01 10 04 80 03  02 10 03 80 01 F2 00 02  _...............
0060: 00 10 05 80 00 74 00 03  01 10 05 80 03 02 10 04  .....t..........
0070: 80 01 F2 00 02 00 10 06  80 00 89 00 03 01 10 06  ................
0080: 80 03 02 10 05 80 01 F2  00 02 00 10 07 80 00 9E  ................
0090: 00 03 01 10 07 80 03 02  10 06 80 01 F2 00 02 00  ................
00A0: 10 08 80 00 B3 00 03 01  10 08 80 03 02 10 07 80  ................
00B0: 01 F2 00 02 00 10 09 80  00 C8 00 03 01 10 09 80  ................
00C0: 03 02 10 08 80 01 F2 00  02 00 10 0A 80 00 DD 00  ................
00D0: 03 01 10 0A 80 03 02 10  09 80 01 F2 00 02 00 10  ................
00E0: 0B 80 00 F2 00 03 01 10  0B 80 03 02 10 0A 80 01  ................
00F0: F2 00 1D 0C 80 23 21 00                           .....#!.        
```

#### Opcodes

```
  0: 0x0007 [0x24] CREATE_DIALOG(message_id=7877*, default_option=0*, option_flags=0*)
    → "G1)g$n_\7)$6226530i $3o$3X$3$5243472_$P10v$P13|5= $3o$3X$3$5243472_$3N$3$3$2I%o$ $3o$3X$3$5243472_$P12n%:$P12J%H$s- $3o$3X$3$5309008_$3U$3C$3h$P142/i $3o$3X$3$5309008_$3C$3$3v$P13|5= $3o$3X$3$5309008_$6$3{$3X$P13|5="
  1: 0x000E [0x25] WAIT_DIALOG_SELECT()
  2: 0x000F [0x02] IF !(Work_Zone[0] == 0*) GOTO 0x0020
  3: 0x0017 [0x03] Work_Zone[1] = 0*
  4: 0x001C [0x21] END_EVENT

SUBROUTINE_00F2:
  5: 0x00F2 [0x1D] PRINT_EVENT_MESSAGE(message_id=7878*)
    → "*$P11I$P11p3j\5=B$3C$3x$3$3g<Player>J$P12uM$3605061B"
  6: 0x00F5 [0x23] WAIT_FOR_DIALOG_INTERACTION
  7: 0x00F6 [0x21] END_EVENT
  8: 0x00F7 [0x00] END_REQSTACK()
```

#### Data or dead code:

```
# Dead code (unreachable instructions):
     0x001D [0x01] GOTO 0x00F2
```
