# 17412777 - Rokke

## Common Data

| Field            | Value                           |
|------------------|---------------------------------|
| Zone             | Castle Zvahl Keep [S] (ID: 155) |
| Block Size       | 276 bytes                       |
| Total Events     | 7                               |
| References Count | 15                              |

## List of Events

| Event ID              | Entrypoint   |   Size |   Instructions |
|-----------------------|--------------|--------|----------------|
| [65535](#event-65535) | 0x0000       |      1 |              1 |
| [30](#event-30)       | 0x0001       |     15 |              7 |
| [11](#event-11)       | 0x0010       |      7 |              2 |
| [21](#event-21)       | 0x0017       |     65 |             18 |
| [14](#event-14)       | 0x0058       |      7 |              2 |
| [24](#event-24)       | 0x005F       |     33 |             12 |
| [27](#event-27)       | 0x0080       |     41 |             14 |

## DAT References (imed_data)

|   Index | Hex Value   |   Dec Value |
|---------|-------------|-------------|
|       0 | 0x1E2B      |        7723 |
|       1 | 0x1E2C      |        7724 |
|       2 | 0x001E      |          30 |
|       3 | 0x0000      |           0 |
|       4 | 0x0001      |           1 |
|       5 | 0x1DFA      |        7674 |
|       6 | 0x1DFC      |        7676 |
|       7 | 0x0002      |           2 |
|       8 | 0x0003      |           3 |
|       9 | 0x1E21      |        7713 |
|      10 | 0x1E22      |        7714 |
|      11 | 0x1E26      |        7718 |
|      12 | 0x1DF9      |        7673 |
|      13 | 0x1E2D      |        7725 |
|      14 | 0x1E2E      |        7726 |

## String References

- **7673**: You trust Rokke, yes? Rokke no lie to no one.
- **7674**: My buddy [southeasty/northwesty/northy/westy] of here say he help you? Oh, don't trust him, no no no.
- **7676**: You meet my friend Rikke, yes? Northwesty of here? He smart. He honest too.
- **7713**: You back again? You forget what Rokke tell you? Uh-oh...Rokke forget too!
- **7714**: Ahahaha, Rokke just make funny, yes? Hume woman up above, in southwest chamber. You remember well now, yeees?
- **7718**: You back? You want Rokke tell you another joke? An imp, an Ahriman, and a ruszor walk into a tavern, yes...?
- **7723**: Eleventy-three intruders, eleventy-four-- No, wait... Eleventy-five?
- **7724**: Stupid wingless one! Always scamper and scurry back and forth, make Rokke lose count! Boss not gonna be happy about this...
- **7725**: Oh, so one of the others helped you. That's just great. Wonderful. Bully for you.
- **7726**: Look who's back, after blowin' me off the last time. What did you want again? And why should I care?

## Events

### Event 65535

#### Metadata

| Field        | Value   |
|--------------|---------|
| Entrypoint   | 0x0000  |
| Data Size    | 1 bytes |
| Instructions | 1       |

```
      00 01 02 03 04 05 06 07  08 09 0A 0B 0C 0D 0E 0F
      -- -- -- -- -- -- -- --  -- -- -- -- -- -- -- --
0000: 00                                                .               
```

#### Opcodes

```
  0: 0x0000 [0x00] END_REQSTACK()
```

### Event 30

#### Metadata

| Field        | Value    |
|--------------|----------|
| Entrypoint   | 0x0001   |
| Data Size    | 15 bytes |
| Instructions | 7        |

```
      00 01 02 03 04 05 06 07  08 09 0A 0B 0C 0D 0E 0F
      -- -- -- -- -- -- -- --  -- -- -- -- -- -- -- --
0000:    1D 00 80 23 1E F0 FF  FF 7F 1D 01 80 23 21 00   ...#........#!.
```

#### Opcodes

```
  0: 0x0001 [0x1D] PRINT_EVENT_MESSAGE(message_id=7723*)
    → "Eleventy-three intruders, eleventy-four-- No, wait... Eleventy-five?"
  1: 0x0004 [0x23] WAIT_FOR_DIALOG_INTERACTION
  2: 0x0005 [0x1E] EventEntity looks at LocalPlayer and starts talking
  3: 0x000A [0x1D] PRINT_EVENT_MESSAGE(message_id=7724*)
    → "Stupid wingless one! Always scamper and scurry back and forth, make Rokke lose count! Boss not gonna be happy about this..."
  4: 0x000D [0x23] WAIT_FOR_DIALOG_INTERACTION
  5: 0x000E [0x21] END_EVENT
  6: 0x000F [0x00] END_REQSTACK()
```

### Event 11

#### Metadata

| Field        | Value   |
|--------------|---------|
| Entrypoint   | 0x0010  |
| Data Size    | 7 bytes |
| Instructions | 2       |

```
      00 01 02 03 04 05 06 07  08 09 0A 0B 0C 0D 0E 0F
      -- -- -- -- -- -- -- --  -- -- -- -- -- -- -- --
0010: 92 01 F8 FF FF 7F 00                              .......         
```

#### Opcodes

```
  0: 0x0010 [0x92] EventEntity->Render.Flags3 ^= 0x01
  1: 0x0016 [0x00] END_REQSTACK()
```

### Event 21

#### Metadata

| Field        | Value    |
|--------------|----------|
| Entrypoint   | 0x0017   |
| Data Size    | 65 bytes |
| Instructions | 18       |

```
      00 01 02 03 04 05 06 07  08 09 0A 0B 0C 0D 0E 0F
      -- -- -- -- -- -- -- --  -- -- -- -- -- -- -- --
0010:                      1E  F0 FF FF 7F 1C 02 80 02         .........
0020: 04 10 03 80 80 33 00 03  02 10 04 80 1D 05 80 23  .....3.........#
0030: 01 56 00 02 04 10 04 80  80 42 00 1D 06 80 23 01  .V.......B....#.
0040: 56 00 02 04 10 07 80 80  56 00 03 02 10 08 80 1D  V.......V.......
0050: 05 80 23 01 56 00 21 00                           ..#.V.!.        
```

#### Opcodes

```
  0: 0x0017 [0x1E] EventEntity looks at LocalPlayer and starts talking
  1: 0x001C [0x1C] WAIT(30* ticks)
  2: 0x001F [0x02] IF !(Work_Zone[4] == 0*) GOTO 0x0033
  3: 0x0027 [0x03] Work_Zone[2] = 1*
  4: 0x002C [0x1D] PRINT_EVENT_MESSAGE(message_id=7674*)
    → "My buddy [southeasty/northwesty/northy/westy] of here say he help you? Oh, don't trust him, no no no."
  5: 0x002F [0x23] WAIT_FOR_DIALOG_INTERACTION
  6: 0x0030 [0x01] GOTO 0x0056
  7: 0x0033 [0x02] IF !(Work_Zone[4] == 1*) GOTO 0x0042
  8: 0x003B [0x1D] PRINT_EVENT_MESSAGE(message_id=7676*)
    → "You meet my friend Rikke, yes? Northwesty of here? He smart. He honest too."
  9: 0x003E [0x23] WAIT_FOR_DIALOG_INTERACTION
 10: 0x003F [0x01] GOTO 0x0056
 11: 0x0042 [0x02] IF !(Work_Zone[4] == 2*) GOTO 0x0056
 12: 0x004A [0x03] Work_Zone[2] = 3*
 13: 0x004F [0x1D] PRINT_EVENT_MESSAGE(message_id=7674*)
    → "My buddy [southeasty/northwesty/northy/westy] of here say he help you? Oh, don't trust him, no no no."
 14: 0x0052 [0x23] WAIT_FOR_DIALOG_INTERACTION
 15: 0x0053 [0x01] GOTO 0x0056

SUBROUTINE_0056:
 16: 0x0056 [0x21] END_EVENT
 17: 0x0057 [0x00] END_REQSTACK()
```

### Event 14

#### Metadata

| Field        | Value   |
|--------------|---------|
| Entrypoint   | 0x0058  |
| Data Size    | 7 bytes |
| Instructions | 2       |

```
      00 01 02 03 04 05 06 07  08 09 0A 0B 0C 0D 0E 0F
      -- -- -- -- -- -- -- --  -- -- -- -- -- -- -- --
0050:                          92 01 F8 FF FF 7F 00             ....... 
```

#### Opcodes

```
  0: 0x0058 [0x92] EventEntity->Render.Flags3 ^= 0x01
  1: 0x005E [0x00] END_REQSTACK()
```

### Event 24

#### Metadata

| Field        | Value    |
|--------------|----------|
| Entrypoint   | 0x005F   |
| Data Size    | 33 bytes |
| Instructions | 12       |

```
      00 01 02 03 04 05 06 07  08 09 0A 0B 0C 0D 0E 0F
      -- -- -- -- -- -- -- --  -- -- -- -- -- -- -- --
0050:                                               1E                 .
0060: F0 FF FF 7F 1C 02 80 02  04 10 04 80 00 7A 00 1D  .............z..
0070: 09 80 23 1D 0A 80 23 01  7E 00 1D 0B 80 23 21 00  ..#...#.~....#!.
```

#### Opcodes

```
  0: 0x005F [0x1E] EventEntity looks at LocalPlayer and starts talking
  1: 0x0064 [0x1C] WAIT(30* ticks)
  2: 0x0067 [0x02] IF !(Work_Zone[4] == 1*) GOTO 0x007A
  3: 0x006F [0x1D] PRINT_EVENT_MESSAGE(message_id=7713*)
    → "You back again? You forget what Rokke tell you? Uh-oh...Rokke forget too!"
  4: 0x0072 [0x23] WAIT_FOR_DIALOG_INTERACTION
  5: 0x0073 [0x1D] PRINT_EVENT_MESSAGE(message_id=7714*)
    → "Ahahaha, Rokke just make funny, yes? Hume woman up above, in southwest chamber. You remember well now, yeees?"
  6: 0x0076 [0x23] WAIT_FOR_DIALOG_INTERACTION
  7: 0x0077 [0x01] GOTO 0x007E
  8: 0x007A [0x1D] PRINT_EVENT_MESSAGE(message_id=7718*)
    → "You back? You want Rokke tell you another joke? An imp, an Ahriman, and a ruszor walk into a tavern, yes...?"
  9: 0x007D [0x23] WAIT_FOR_DIALOG_INTERACTION

SUBROUTINE_007E:
 10: 0x007E [0x21] END_EVENT
 11: 0x007F [0x00] END_REQSTACK()
```

### Event 27

#### Metadata

| Field        | Value    |
|--------------|----------|
| Entrypoint   | 0x0080   |
| Data Size    | 41 bytes |
| Instructions | 14       |

```
      00 01 02 03 04 05 06 07  08 09 0A 0B 0C 0D 0E 0F
      -- -- -- -- -- -- -- --  -- -- -- -- -- -- -- --
0080: 02 02 10 04 80 00 9B 00  1D 0C 80 23 1E F0 FF FF  ...........#....
0090: 7F 1C 02 80 1D 0D 80 23  01 A7 00 1E F0 FF FF 7F  .......#........
00A0: 1C 02 80 1D 0E 80 23 21  00                       ......#!.       
```

#### Opcodes

```
  0: 0x0080 [0x02] IF !(Work_Zone[2] == 1*) GOTO 0x009B
  1: 0x0088 [0x1D] PRINT_EVENT_MESSAGE(message_id=7673*)
    → "You trust Rokke, yes? Rokke no lie to no one."
  2: 0x008B [0x23] WAIT_FOR_DIALOG_INTERACTION
  3: 0x008C [0x1E] EventEntity looks at LocalPlayer and starts talking
  4: 0x0091 [0x1C] WAIT(30* ticks)
  5: 0x0094 [0x1D] PRINT_EVENT_MESSAGE(message_id=7725*)
    → "Oh, so one of the others helped you. That's just great. Wonderful. Bully for you."
  6: 0x0097 [0x23] WAIT_FOR_DIALOG_INTERACTION
  7: 0x0098 [0x01] GOTO 0x00A7
  8: 0x009B [0x1E] EventEntity looks at LocalPlayer and starts talking
  9: 0x00A0 [0x1C] WAIT(30* ticks)
 10: 0x00A3 [0x1D] PRINT_EVENT_MESSAGE(message_id=7726*)
    → "Look who's back, after blowin' me off the last time. What did you want again? And why should I care?"
 11: 0x00A6 [0x23] WAIT_FOR_DIALOG_INTERACTION

SUBROUTINE_00A7:
 12: 0x00A7 [0x21] END_EVENT
 13: 0x00A8 [0x00] END_REQSTACK()
```
