# 17412780 - Volker

## Common Data

| Field            | Value                           |
|------------------|---------------------------------|
| Zone             | Castle Zvahl Keep [S] (ID: 155) |
| Block Size       | 560 bytes                       |
| Total Events     | 17                              |
| References Count | 39                              |

## List of Events

| Event ID                   | Entrypoint   |   Size |   Instructions |
|----------------------------|--------------|--------|----------------|
| [65535](#event-65535)      | 0x0000       |      1 |              1 |
| [15](#event-15)            | 0x0001       |      7 |              2 |
| [16](#event-16)            | 0x0008       |      7 |              2 |
| [65535.1](#event-655351)   | 0x000F       |     37 |              7 |
| [65535.2](#event-655352)   | 0x0034       |     22 |              6 |
| [17](#event-17)            | 0x004A       |      7 |              2 |
| [65535.3](#event-655353)   | 0x0051       |     14 |              4 |
| [65535.4](#event-655354)   | 0x005F       |     14 |              4 |
| [65535.5](#event-655355)   | 0x006D       |     22 |              6 |
| [65535.6](#event-655356)   | 0x0083       |     24 |              6 |
| [65535.7](#event-655357)   | 0x009B       |     22 |              6 |
| [18](#event-18)            | 0x00B1       |      7 |              2 |
| [65535.8](#event-655358)   | 0x00B8       |     19 |              5 |
| [65535.9](#event-655359)   | 0x00CB       |     14 |              4 |
| [65535.10](#event-6553510) | 0x00D9       |     19 |              5 |
| [65535.11](#event-6553511) | 0x00EC       |     55 |             11 |
| [65535.12](#event-6553512) | 0x0123       |     27 |              7 |

## DAT References (imed_data)

|   Index | Hex Value   |   Dec Value |
|---------|-------------|-------------|
|       0 | 0x0028      |          40 |
|       1 | 0x1ED21     |      126241 |
|       2 | 0x29204     |      168452 |
|       3 | 0x0451      |        1105 |
|       4 | 0x001E      |          30 |
|       5 | 0x00CA      |         202 |
|       6 | 0x1CD30     |      118064 |
|       7 | 0x27F96     |      163734 |
|       8 | 0x03DC      |         988 |
|       9 | 0xFFFAC883  |  4294625411 |
|      10 | 0xFFFE817E  |  4294869374 |
|      11 | 0xFFFF34E1  |  4294915297 |
|      12 | 0xFFFA64D3  |  4294599891 |
|      13 | 0xFFFE607A  |  4294860922 |
|      14 | 0xFFFF34E0  |  4294915296 |
|      15 | 0xFFFA4498  |  4294591640 |
|      16 | 0xFFFE7697  |  4294866583 |
|      17 | 0xFFFA2E55  |  4294585941 |
|      18 | 0xFFFE87D2  |  4294870994 |
|      19 | 0x0B3C      |        2876 |
|      20 | 0x003C      |          60 |
|      21 | 0x000D      |          13 |
|      22 | 0xFFFA3858  |  4294588504 |
|      23 | 0xFFFE7E64  |  4294868580 |
|      24 | 0xFFFA65E8  |  4294600168 |
|      25 | 0xFFFE754C  |  4294866252 |
|      26 | 0x000A      |          10 |
|      27 | 0xFFFA6264  |  4294599268 |
|      28 | 0xFFFA4C53  |  4294593619 |
|      29 | 0xFFFE7067  |  4294864999 |
|      30 | 0xFFFA5333  |  4294595379 |
|      31 | 0xFFFE68E0  |  4294863072 |
|      32 | 0xFFFA5AE6  |  4294597350 |
|      33 | 0xFFFE615A  |  4294861146 |
|      34 | 0xFFFA82FB  |  4294607611 |
|      35 | 0xFFFE64B4  |  4294862004 |
|      36 | 0xFFFA7608  |  4294604296 |
|      37 | 0xFFFE7F3C  |  4294868796 |
|      38 | 0xFFFAACB8  |  4294618296 |

## Events

### Event 65535

#### Metadata

| Field        | Value   |
|--------------|---------|
| Entrypoint   | 0x0000  |
| Data Size    | 1 bytes |
| Instructions | 1       |

```
      00 01 02 03 04 05 06 07  08 09 0A 0B 0C 0D 0E 0F
      -- -- -- -- -- -- -- --  -- -- -- -- -- -- -- --
0000: 00                                                .               
```

#### Opcodes

```
  0: 0x0000 [0x00] END_REQSTACK()
```

### Event 15

#### Metadata

| Field        | Value   |
|--------------|---------|
| Entrypoint   | 0x0001  |
| Data Size    | 7 bytes |
| Instructions | 2       |

```
      00 01 02 03 04 05 06 07  08 09 0A 0B 0C 0D 0E 0F
      -- -- -- -- -- -- -- --  -- -- -- -- -- -- -- --
0000:    92 01 F8 FF FF 7F 00                            .......        
```

#### Opcodes

```
  0: 0x0001 [0x92] EventEntity->Render.Flags3 ^= 0x01
  1: 0x0007 [0x00] END_REQSTACK()
```

### Event 16

#### Metadata

| Field        | Value   |
|--------------|---------|
| Entrypoint   | 0x0008  |
| Data Size    | 7 bytes |
| Instructions | 2       |

```
      00 01 02 03 04 05 06 07  08 09 0A 0B 0C 0D 0E 0F
      -- -- -- -- -- -- -- --  -- -- -- -- -- -- -- --
0000:                          92 01 F8 FF FF 7F 00             ....... 
```

#### Opcodes

```
  0: 0x0008 [0x92] EventEntity->Render.Flags3 ^= 0x01
  1: 0x000E [0x00] END_REQSTACK()
```

### Event 65535.1

#### Metadata

| Field        | Value    |
|--------------|----------|
| Entrypoint   | 0x000F   |
| Data Size    | 37 bytes |
| Instructions | 7        |

```
      00 01 02 03 04 05 06 07  08 09 0A 0B 0C 0D 0E 0F
      -- -- -- -- -- -- -- --  -- -- -- -- -- -- -- --
0000:                                               32                 2
0010: 00 80 1F 00 01 80 02 80  03 80 1F 01 1E B6 B2 09  ................
0020: 01 1C 04 80 5B 05 80 F8  FF FF 7F F8 FF FF 7F 68  ....[..........h
0030: 67 73 30 00                                       gs0.            
```

#### Opcodes

```
  0: 0x000F [0x32] ExtData[1]->MainSpeed = 40* * 0.1
  1: 0x0012 [0x1F] MOVE_ENTITY: EventEntity moves to X=126.241*, Z=168.452*, Y=1.105*
  2: 0x001A [0x1F] MOVE_ENTITY: Update entity position (mode=1)
  3: 0x001C [0x1E] EventEntity looks at Klara (ID: 17412790/0x0109B2B6) and starts talking
  4: 0x0021 [0x1C] WAIT(30* ticks)
  5: 0x0024 [0x5B] LOAD_EXT_SCHEDULER: Load scheduler "hgs0" with entities [EventEntity, EventEntity], work=202*
  6: 0x0033 [0x00] END_REQSTACK()
```

### Event 65535.2

#### Metadata

| Field        | Value    |
|--------------|----------|
| Entrypoint   | 0x0034   |
| Data Size    | 22 bytes |
| Instructions | 6        |

```
      00 01 02 03 04 05 06 07  08 09 0A 0B 0C 0D 0E 0F
      -- -- -- -- -- -- -- --  -- -- -- -- -- -- -- --
0030:             32 00 80 1F  00 06 80 07 80 08 80 1F      2...........
0040: 01 1E B6 B2 09 01 1C 04  80 00                    ..........      
```

#### Opcodes

```
  0: 0x0034 [0x32] ExtData[1]->MainSpeed = 40* * 0.1
  1: 0x0037 [0x1F] MOVE_ENTITY: EventEntity moves to X=118.064*, Z=163.734*, Y=0.988*
  2: 0x003F [0x1F] MOVE_ENTITY: Update entity position (mode=1)
  3: 0x0041 [0x1E] EventEntity looks at Klara (ID: 17412790/0x0109B2B6) and starts talking
  4: 0x0046 [0x1C] WAIT(30* ticks)
  5: 0x0049 [0x00] END_REQSTACK()
```

### Event 17

#### Metadata

| Field        | Value   |
|--------------|---------|
| Entrypoint   | 0x004A  |
| Data Size    | 7 bytes |
| Instructions | 2       |

```
      00 01 02 03 04 05 06 07  08 09 0A 0B 0C 0D 0E 0F
      -- -- -- -- -- -- -- --  -- -- -- -- -- -- -- --
0040:                                92 01 F8 FF FF 7F            ......
0050: 00                                                .               
```

#### Opcodes

```
  0: 0x004A [0x92] EventEntity->Render.Flags3 ^= 0x01
  1: 0x0050 [0x00] END_REQSTACK()
```

### Event 65535.3

#### Metadata

| Field        | Value    |
|--------------|----------|
| Entrypoint   | 0x0051   |
| Data Size    | 14 bytes |
| Instructions | 4        |

```
      00 01 02 03 04 05 06 07  08 09 0A 0B 0C 0D 0E 0F
      -- -- -- -- -- -- -- --  -- -- -- -- -- -- -- --
0050:    32 00 80 1F 00 09 80  0A 80 0B 80 1F 01 00      2............. 
```

#### Opcodes

```
  0: 0x0051 [0x32] ExtData[1]->MainSpeed = 40* * 0.1
  1: 0x0054 [0x1F] MOVE_ENTITY: EventEntity moves to X=-341.885*, Z=-97.922*, Y=-51.999*
  2: 0x005C [0x1F] MOVE_ENTITY: Update entity position (mode=1)
  3: 0x005E [0x00] END_REQSTACK()
```

### Event 65535.4

#### Metadata

| Field        | Value    |
|--------------|----------|
| Entrypoint   | 0x005F   |
| Data Size    | 14 bytes |
| Instructions | 4        |

```
      00 01 02 03 04 05 06 07  08 09 0A 0B 0C 0D 0E 0F
      -- -- -- -- -- -- -- --  -- -- -- -- -- -- -- --
0050:                                               32                 2
0060: 00 80 1F 00 0C 80 0D 80  0E 80 1F 01 00           .............   
```

#### Opcodes

```
  0: 0x005F [0x32] ExtData[1]->MainSpeed = 40* * 0.1
  1: 0x0062 [0x1F] MOVE_ENTITY: EventEntity moves to X=-367.405*, Z=-106.374*, Y=-52.000*
  2: 0x006A [0x1F] MOVE_ENTITY: Update entity position (mode=1)
  3: 0x006C [0x00] END_REQSTACK()
```

### Event 65535.5

#### Metadata

| Field        | Value    |
|--------------|----------|
| Entrypoint   | 0x006D   |
| Data Size    | 22 bytes |
| Instructions | 6        |

```
      00 01 02 03 04 05 06 07  08 09 0A 0B 0C 0D 0E 0F
      -- -- -- -- -- -- -- --  -- -- -- -- -- -- -- --
0060:                                         32 00 80               2..
0070: 1F 00 0F 80 10 80 0E 80  1F 01 1E B7 B2 09 01 1C  ................
0080: 04 80 00                                          ...             
```

#### Opcodes

```
  0: 0x006D [0x32] ExtData[1]->MainSpeed = 40* * 0.1
  1: 0x0070 [0x1F] MOVE_ENTITY: EventEntity moves to X=-375.656*, Z=-100.713*, Y=-52.000*
  2: 0x0078 [0x1F] MOVE_ENTITY: Update entity position (mode=1)
  3: 0x007A [0x1E] EventEntity looks at Marquis Amon (ID: 17412791/0x0109B2B7) and starts talking
  4: 0x007F [0x1C] WAIT(30* ticks)
  5: 0x0082 [0x00] END_REQSTACK()
```

### Event 65535.6

#### Metadata

| Field        | Value    |
|--------------|----------|
| Entrypoint   | 0x0083   |
| Data Size    | 24 bytes |
| Instructions | 6        |

```
      00 01 02 03 04 05 06 07  08 09 0A 0B 0C 0D 0E 0F
      -- -- -- -- -- -- -- --  -- -- -- -- -- -- -- --
0080:          32 00 80 1F 00  11 80 12 80 0E 80 1F 01     2............
0090: 4B AC B2 09 01 13 80 1C  14 80 00                 K..........     
```

#### Opcodes

```
  0: 0x0083 [0x32] ExtData[1]->MainSpeed = 40* * 0.1
  1: 0x0086 [0x1F] MOVE_ENTITY: EventEntity moves to X=-381.355*, Z=-96.302*, Y=-52.000*
  2: 0x008E [0x1F] MOVE_ENTITY: Update entity position (mode=1)
  3: 0x0090 [0x4B] UPDATE_ENTITY_YAW(entity=Volker (ID: 17412780/0x0109B2AC), yaw=15.8°*)
  4: 0x0097 [0x1C] WAIT(60* ticks)
  5: 0x009A [0x00] END_REQSTACK()
```

### Event 65535.7

#### Metadata

| Field        | Value    |
|--------------|----------|
| Entrypoint   | 0x009B   |
| Data Size    | 22 bytes |
| Instructions | 6        |

```
      00 01 02 03 04 05 06 07  08 09 0A 0B 0C 0D 0E 0F
      -- -- -- -- -- -- -- --  -- -- -- -- -- -- -- --
0090:                                   32 15 80 1F 00             2....
00A0: 16 80 17 80 0E 80 1F 01  1E AE B2 09 01 1C 04 80  ................
00B0: 00                                                .               
```

#### Opcodes

```
  0: 0x009B [0x32] ExtData[1]->MainSpeed = 13* * 0.1
  1: 0x009E [0x1F] MOVE_ENTITY: EventEntity moves to X=-378.792*, Z=-98.716*, Y=-52.000*
  2: 0x00A6 [0x1F] MOVE_ENTITY: Update entity position (mode=1)
  3: 0x00A8 [0x1E] EventEntity looks at Nicolaus (ID: 17412782/0x0109B2AE) and starts talking
  4: 0x00AD [0x1C] WAIT(30* ticks)
  5: 0x00B0 [0x00] END_REQSTACK()
```

### Event 18

#### Metadata

| Field        | Value   |
|--------------|---------|
| Entrypoint   | 0x00B1  |
| Data Size    | 7 bytes |
| Instructions | 2       |

```
      00 01 02 03 04 05 06 07  08 09 0A 0B 0C 0D 0E 0F
      -- -- -- -- -- -- -- --  -- -- -- -- -- -- -- --
00B0:    92 01 F8 FF FF 7F 00                            .......        
```

#### Opcodes

```
  0: 0x00B1 [0x92] EventEntity->Render.Flags3 ^= 0x01
  1: 0x00B7 [0x00] END_REQSTACK()
```

### Event 65535.8

#### Metadata

| Field        | Value    |
|--------------|----------|
| Entrypoint   | 0x00B8   |
| Data Size    | 19 bytes |
| Instructions | 5        |

```
      00 01 02 03 04 05 06 07  08 09 0A 0B 0C 0D 0E 0F
      -- -- -- -- -- -- -- --  -- -- -- -- -- -- -- --
00B0:                          32 00 80 1F 00 18 80 19          2.......
00C0: 80 0B 80 1F 01 1E F0 FF  FF 7F 00                 ...........     
```

#### Opcodes

```
  0: 0x00B8 [0x32] ExtData[1]->MainSpeed = 40* * 0.1
  1: 0x00BB [0x1F] MOVE_ENTITY: EventEntity moves to X=-367.128*, Z=-101.044*, Y=-51.999*
  2: 0x00C3 [0x1F] MOVE_ENTITY: Update entity position (mode=1)
  3: 0x00C5 [0x1E] EventEntity looks at LocalPlayer and starts talking
  4: 0x00CA [0x00] END_REQSTACK()
```

### Event 65535.9

#### Metadata

| Field        | Value    |
|--------------|----------|
| Entrypoint   | 0x00CB   |
| Data Size    | 14 bytes |
| Instructions | 4        |

```
      00 01 02 03 04 05 06 07  08 09 0A 0B 0C 0D 0E 0F
      -- -- -- -- -- -- -- --  -- -- -- -- -- -- -- --
00C0:                                   32 1A 80 1F 00             2....
00D0: 1B 80 19 80 0B 80 1F 01  00                       .........       
```

#### Opcodes

```
  0: 0x00CB [0x32] ExtData[1]->MainSpeed = 10* * 0.1
  1: 0x00CE [0x1F] MOVE_ENTITY: EventEntity moves to X=-368.028*, Z=-101.044*, Y=-51.999*
  2: 0x00D6 [0x1F] MOVE_ENTITY: Update entity position (mode=1)
  3: 0x00D8 [0x00] END_REQSTACK()
```

### Event 65535.10

#### Metadata

| Field        | Value    |
|--------------|----------|
| Entrypoint   | 0x00D9   |
| Data Size    | 19 bytes |
| Instructions | 5        |

```
      00 01 02 03 04 05 06 07  08 09 0A 0B 0C 0D 0E 0F
      -- -- -- -- -- -- -- --  -- -- -- -- -- -- -- --
00D0:                             32 00 80 1F 00 1C 80           2......
00E0: 1D 80 0B 80 1F 01 1E F0  FF FF 7F 00              ............    
```

#### Opcodes

```
  0: 0x00D9 [0x32] ExtData[1]->MainSpeed = 40* * 0.1
  1: 0x00DC [0x1F] MOVE_ENTITY: EventEntity moves to X=-373.677*, Z=-102.297*, Y=-51.999*
  2: 0x00E4 [0x1F] MOVE_ENTITY: Update entity position (mode=1)
  3: 0x00E6 [0x1E] EventEntity looks at LocalPlayer and starts talking
  4: 0x00EB [0x00] END_REQSTACK()
```

### Event 65535.11

#### Metadata

| Field        | Value    |
|--------------|----------|
| Entrypoint   | 0x00EC   |
| Data Size    | 55 bytes |
| Instructions | 11       |

```
      00 01 02 03 04 05 06 07  08 09 0A 0B 0C 0D 0E 0F
      -- -- -- -- -- -- -- --  -- -- -- -- -- -- -- --
00E0:                                      1C 04 80 32              ...2
00F0: 00 80 1F 00 1E 80 1F 80  0B 80 1F 01 4A B3 B2 09  ............J...
0100: 01 AC B2 09 01 1F 00 20  80 21 80 0B 80 1F 01 4A  ....... .!.....J
0110: B2 B2 09 01 AC B2 09 01  1F 00 22 80 23 80 0B 80  ..........".#...
0120: 1F 01 00                                          ...             
```

#### Opcodes

```
  0: 0x00EC [0x1C] WAIT(30* ticks)
  1: 0x00EF [0x32] ExtData[1]->MainSpeed = 40* * 0.1
  2: 0x00F2 [0x1F] MOVE_ENTITY: EventEntity moves to X=-371.917*, Z=-104.224*, Y=-51.999*
  3: 0x00FA [0x1F] MOVE_ENTITY: Update entity position (mode=1)
  4: 0x00FC [0x4A] Allenberge (ID: 17412787/0x0109B2B3) looks at Volker (ID: 17412780/0x0109B2AC)
  5: 0x0105 [0x1F] MOVE_ENTITY: EventEntity moves to X=-369.946*, Z=-106.150*, Y=-51.999*
  6: 0x010D [0x1F] MOVE_ENTITY: Update entity position (mode=1)
  7: 0x010F [0x4A] Unnamed NPC (ID: 17412786/0x0109B2B2) looks at Volker (ID: 17412780/0x0109B2AC)
  8: 0x0118 [0x1F] MOVE_ENTITY: EventEntity moves to X=-359.685*, Z=-105.292*, Y=-51.999*
  9: 0x0120 [0x1F] MOVE_ENTITY: Update entity position (mode=1)
 10: 0x0122 [0x00] END_REQSTACK()
```

### Event 65535.12

#### Metadata

| Field        | Value    |
|--------------|----------|
| Entrypoint   | 0x0123   |
| Data Size    | 27 bytes |
| Instructions | 7        |

```
      00 01 02 03 04 05 06 07  08 09 0A 0B 0C 0D 0E 0F
      -- -- -- -- -- -- -- --  -- -- -- -- -- -- -- --
0120:          1C 04 80 32 00  80 1F 00 24 80 25 80 0B     ...2....$.%..
0130: 80 1F 01 1F 00 26 80 25  80 0B 80 1F 01 00        .....&.%......  
```

#### Opcodes

```
  0: 0x0123 [0x1C] WAIT(30* ticks)
  1: 0x0126 [0x32] ExtData[1]->MainSpeed = 40* * 0.1
  2: 0x0129 [0x1F] MOVE_ENTITY: EventEntity moves to X=-363.000*, Z=-98.500*, Y=-51.999*
  3: 0x0131 [0x1F] MOVE_ENTITY: Update entity position (mode=1)
  4: 0x0133 [0x1F] MOVE_ENTITY: EventEntity moves to X=-349.000*, Z=-98.500*, Y=-51.999*
  5: 0x013B [0x1F] MOVE_ENTITY: Update entity position (mode=1)
  6: 0x013D [0x00] END_REQSTACK()
```
