# 17412772

## Common Data

| Field            | Value                           |
|------------------|---------------------------------|
| Zone             | Castle Zvahl Keep [S] (ID: 155) |
| Block Size       | 30504 bytes                     |
| Total Events     | 11                              |
| References Count | 747                             |

## List of Events

| Event ID              | Entrypoint   |   Size |   Instructions |
|-----------------------|--------------|--------|----------------|
| [65535](#event-65535) | 0x0000       |      1 |              1 |
| [9](#event-9)         | 0x0001       |    744 |            100 |
| [10](#event-10)       | 0x02E9       |    772 |            104 |
| [11](#event-11)       | 0x05ED       |    784 |            106 |
| [12](#event-12)       | 0x08FD       |   1714 |            216 |
| [13](#event-13)       | 0x0FAF       |   1149 |            158 |
| [14](#event-14)       | 0x142C       |    961 |            140 |
| [15](#event-15)       | 0x17ED       |   3319 |            389 |
| [16](#event-16)       | 0x24E4       |   9129 |            952 |
| [17](#event-17)       | 0x488D       |   7136 |            800 |
| [18](#event-18)       | 0x646D       |   1747 |            206 |

## DAT References (imed_data)

|   Index | Hex Value   |   Dec Value |
|---------|-------------|-------------|
|       0 | 0x001B      |          27 |
|       1 | 0xFFFE9FF8  |  4294877176 |
|       2 | 0x159B4     |       88500 |
|       3 | 0x0259      |         601 |
|       4 | 0x0407      |        1031 |
|       5 | 0x001E      |          30 |
|       6 | 0x01FD      |         509 |
|       7 | 0x0000      |           0 |
|       8 | 0x1DDF      |        7647 |
|       9 | 0x00B4      |         180 |
|      10 | 0x1DE0      |        7648 |
|      11 | 0x1DE1      |        7649 |
|      12 | 0x0465      |        1125 |
|      13 | 0x005A      |          90 |
|      14 | 0x1031      |        4145 |
|      15 | 0x0001      |           1 |
|      16 | 0x1DE2      |        7650 |
|      17 | 0x0016      |          22 |
|      18 | 0x1DE3      |        7651 |
|      19 | 0x043E      |        1086 |
|      20 | 0x1DE4      |        7652 |
|      21 | 0x00D2      |         210 |
|      22 | 0x1DE7      |        7655 |
|      23 | 0x0002      |           2 |
|      24 | 0x0003      |           3 |
|      25 | 0x0004      |           4 |
|      26 | 0x0005      |           5 |
|      27 | 0x0006      |           6 |
|      28 | 0x0007      |           7 |
|      29 | 0x0008      |           8 |
|      30 | 0x0404      |        1028 |
|      31 | 0x1DE5      |        7653 |
|      32 | 0x003C      |          60 |
|      33 | 0x00C8      |         200 |
|      34 | 0xFFFE4C74  |  4294855796 |
|      35 | 0xFFFDB688  |  4294817416 |
|      36 | 0x07E7      |        2023 |
|      37 | 0x1DE9      |        7657 |
|      38 | 0x1DEA      |        7658 |
|      39 | 0x1DEB      |        7659 |
|      40 | 0x1DEC      |        7660 |
|      41 | 0x1DED      |        7661 |
|      42 | 0x1DF1      |        7665 |
|      43 | 0x1DEE      |        7662 |
|      44 | 0x1DEF      |        7663 |
|      45 | 0xFFFF8AA6  |  4294937254 |
|      46 | 0xFFFDAF6C  |  4294815596 |
|      47 | 0x040D      |        1037 |
|      48 | 0x1DF3      |        7667 |
|      49 | 0x1DF4      |        7668 |
|      50 | 0x0096      |         150 |
|      51 | 0x033E      |         830 |
|      52 | 0x0078      |         120 |
|      53 | 0x1DF5      |        7669 |
|      54 | 0x1DF6      |        7670 |
|      55 | 0x1DF7      |        7671 |
|      56 | 0x1DF8      |        7672 |
|      57 | 0x1DFB      |        7675 |
|      58 | 0x1DF9      |        7673 |
|      59 | 0xFFFEA1A6  |  4294877606 |
|      60 | 0x1A0F7     |      106743 |
|      61 | 0x0418      |        1048 |
|      62 | 0xFFFA9334  |  4294611764 |
|      63 | 0xFFFE67BB  |  4294862779 |
|      64 | 0xFFFF34E0  |  4294915296 |
|      65 | 0x017A      |         378 |
|      66 | 0xFFFACAF6  |  4294626038 |
|      67 | 0xFFFE3B1F  |  4294851359 |
|      68 | 0x017B      |         379 |
|      69 | 0xFFFAAF8E  |  4294619022 |
|      70 | 0xFFFE056A  |  4294837610 |
|      71 | 0xFFFF34E1  |  4294915297 |
|      72 | 0x0D18      |        3352 |
|      73 | 0xFFFA57E3  |  4294596579 |
|      74 | 0xFFFDF4DD  |  4294833373 |
|      75 | 0x0B90      |        2960 |
|      76 | 0x1E09      |        7689 |
|      77 | 0x1E0A      |        7690 |
|      78 | 0x1E0B      |        7691 |
|      79 | 0x1DFE      |        7678 |
|      80 | 0x1DFF      |        7679 |
|      81 | 0x1E00      |        7680 |
|      82 | 0x1E01      |        7681 |
|      83 | 0x1E02      |        7682 |
|      84 | 0x1E03      |        7683 |
|      85 | 0x1E04      |        7684 |
|      86 | 0x1E05      |        7685 |
|      87 | 0x1E06      |        7686 |
|      88 | 0xFFFE8130  |  4294869296 |
|      89 | 0xFFFDB610  |  4294817296 |
|      90 | 0x0801      |        2049 |
|      91 | 0x1E16      |        7702 |
|      92 | 0x1E17      |        7703 |
|      93 | 0x1E18      |        7704 |
|      94 | 0x1E0E      |        7694 |
|      95 | 0x1E0F      |        7695 |
|      96 | 0x1E10      |        7696 |
|      97 | 0x1E11      |        7697 |
|      98 | 0x1E12      |        7698 |
|      99 | 0x1E13      |        7699 |
|     100 | 0x004E      |          78 |
|     101 | 0xFFFFCA26  |  4294953510 |
|     102 | 0x07FE      |        2046 |
|     103 | 0x1E23      |        7715 |
|     104 | 0x1E24      |        7716 |
|     105 | 0x1E25      |        7717 |
|     106 | 0x1E1B      |        7707 |
|     107 | 0x0022      |          34 |
|     108 | 0x1E1C      |        7708 |
|     109 | 0x1E1D      |        7709 |
|     110 | 0x1E1E      |        7710 |
|     111 | 0x1E1F      |        7711 |
|     112 | 0x1E20      |        7712 |
|     113 | 0xFFFA6A29  |  4294601257 |
|     114 | 0xFFFE71E6  |  4294865382 |
|     115 | 0x07DF      |        2015 |
|     116 | 0xFFFA4DBE  |  4294593982 |
|     117 | 0xFFFE7D18  |  4294868248 |
|     118 | 0x0542      |        1346 |
|     119 | 0x01FA      |         506 |
|     120 | 0x01FE      |         510 |
|     121 | 0x00F0      |         240 |
|     122 | 0xFFFAAC2C  |  4294618156 |
|     123 | 0xFFFE79F9  |  4294867449 |
|     124 | 0x07D8      |        2008 |
|     125 | 0xFFFAA7A4  |  4294616996 |
|     126 | 0xFFFE754C  |  4294866252 |
|     127 | 0xFFFAB217  |  4294619671 |
|     128 | 0xFFFE6D42  |  4294864194 |
|     129 | 0xFFFAB674  |  4294620788 |
|     130 | 0xFFFE72EA  |  4294865642 |
|     131 | 0xFFFA3CAB  |  4294589611 |
|     132 | 0xFFFE76DE  |  4294866654 |
|     133 | 0x000A      |          10 |
|     134 | 0x1E30      |        7728 |
|     135 | 0x0021      |          33 |
|     136 | 0x1E31      |        7729 |
|     137 | 0x1E32      |        7730 |
|     138 | 0x00A1      |         161 |
|     139 | 0xFFFA685C  |  4294600796 |
|     140 | 0x0879      |        2169 |
|     141 | 0x1E33      |        7731 |
|     142 | 0x1E34      |        7732 |
|     143 | 0x1E35      |        7733 |
|     144 | 0x1E36      |        7734 |
|     145 | 0x1E37      |        7735 |
|     146 | 0x1E38      |        7736 |
|     147 | 0x1E68      |        7784 |
|     148 | 0xFFFA5449  |  4294595657 |
|     149 | 0xFFFE5B38  |  4294859576 |
|     150 | 0x1E39      |        7737 |
|     151 | 0x0A7B      |        2683 |
|     152 | 0x1E3A      |        7738 |
|     153 | 0x007F      |         127 |
|     154 | 0x1E3B      |        7739 |
|     155 | 0x1E3C      |        7740 |
|     156 | 0x1E3D      |        7741 |
|     157 | 0x0575      |        1397 |
|     158 | 0x1E3E      |        7742 |
|     159 | 0x1E3F      |        7743 |
|     160 | 0x05DB      |        1499 |
|     161 | 0x1E40      |        7744 |
|     162 | 0x1E41      |        7745 |
|     163 | 0x1E42      |        7746 |
|     164 | 0x1E43      |        7747 |
|     165 | 0x1E44      |        7748 |
|     166 | 0x1E45      |        7749 |
|     167 | 0x1E46      |        7750 |
|     168 | 0x1E47      |        7751 |
|     169 | 0x1E48      |        7752 |
|     170 | 0xFFFA6AC2  |  4294601410 |
|     171 | 0xFFFE8E06  |  4294872582 |
|     172 | 0x1E49      |        7753 |
|     173 | 0x1E4A      |        7754 |
|     174 | 0x1E4B      |        7755 |
|     175 | 0x1E4C      |        7756 |
|     176 | 0x012C      |         300 |
|     177 | 0xFFFACEFE  |  4294627070 |
|     178 | 0xFFFEAACF  |  4294879951 |
|     179 | 0xFFFF34D6  |  4294915286 |
|     180 | 0x1E4D      |        7757 |
|     181 | 0x01A4      |         420 |
|     182 | 0xFFFA3B70  |  4294589296 |
|     183 | 0xFFFE8D4C  |  4294872396 |
|     184 | 0x07E8      |        2024 |
|     185 | 0xFFFA3F58  |  4294590296 |
|     186 | 0xFFFE89C8  |  4294871496 |
|     187 | 0xFFFA454B  |  4294591819 |
|     188 | 0xFFFE7CE8  |  4294868200 |
|     189 | 0x05E0      |        1504 |
|     190 | 0x1E4E      |        7758 |
|     191 | 0x1E4F      |        7759 |
|     192 | 0x1E50      |        7760 |
|     193 | 0x005D      |          93 |
|     194 | 0x00FF      |         255 |
|     195 | 0x20D28     |      134440 |
|     196 | 0x2AB32     |      174898 |
|     197 | 0x023C      |         572 |
|     198 | 0x068A      |        1674 |
|     199 | 0x208C1     |      133313 |
|     200 | 0x2A0C9     |      172233 |
|     201 | 0x01A8      |         424 |
|     202 | 0x212B1     |      135857 |
|     203 | 0x2A45D     |      173149 |
|     204 | 0x0024      |          36 |
|     205 | 0x1CD33     |      118067 |
|     206 | 0x2976D     |      169837 |
|     207 | 0x03E7      |         999 |
|     208 | 0x03B8      |         952 |
|     209 | 0x1BF89     |      114569 |
|     210 | 0x27CDA     |      163034 |
|     211 | 0x04BE      |        1214 |
|     212 | 0x0749      |        1865 |
|     213 | 0x19339     |      103225 |
|     214 | 0x26F73     |      159603 |
|     215 | 0x0636      |        1590 |
|     216 | 0x18C3E     |      101438 |
|     217 | 0x2733B     |      160571 |
|     218 | 0x06D5      |        1749 |
|     219 | 0x0FFF      |        4095 |
|     220 | 0x1C302     |      115458 |
|     221 | 0x26FB1     |      159665 |
|     222 | 0x04E1      |        1249 |
|     223 | 0x03AB      |         939 |
|     224 | 0x1B7DA     |      112602 |
|     225 | 0x254A6     |      152742 |
|     226 | 0x04AB      |        1195 |
|     227 | 0x008F      |         143 |
|     228 | 0x1C776     |      116598 |
|     229 | 0x2627F     |      156287 |
|     230 | 0x0440      |        1088 |
|     231 | 0x02AD      |         685 |
|     232 | 0x1BFCC     |      114636 |
|     233 | 0x29083     |      168067 |
|     234 | 0x0495      |        1173 |
|     235 | 0x0406      |        1030 |
|     236 | 0x1D46E     |      119918 |
|     237 | 0x28233     |      164403 |
|     238 | 0x072A      |        1834 |
|     239 | 0x1D741     |      120641 |
|     240 | 0x26D7B     |      159099 |
|     241 | 0x1A57B     |      107899 |
|     242 | 0x26ADE     |      158430 |
|     243 | 0x0F3F      |        3903 |
|     244 | 0x1AE0B     |      110091 |
|     245 | 0x25652     |      153170 |
|     246 | 0x04E0      |        1248 |
|     247 | 0x0DC9      |        3529 |
|     248 | 0x0AB6      |        2742 |
|     249 | 0x001D      |          29 |
|     250 | 0x0045      |          69 |
|     251 | 0x0028      |          40 |
|     252 | 0x0210      |         528 |
|     253 | 0x000F      |          15 |
|     254 | 0x001A      |          26 |
|     255 | 0x1E51      |        7761 |
|     256 | 0x1E52      |        7762 |
|     257 | 0x1E53      |        7763 |
|     258 | 0x01DF      |         479 |
|     259 | 0x03F7      |        1015 |
|     260 | 0x1B491     |      111761 |
|     261 | 0x2776A     |      161642 |
|     262 | 0x0D34      |        3380 |
|     263 | 0x0C21      |        3105 |
|     264 | 0x0BD8      |        3032 |
|     265 | 0x1E54      |        7764 |
|     266 | 0x1E55      |        7765 |
|     267 | 0x1E56      |        7766 |
|     268 | 0x1B78A     |      112522 |
|     269 | 0x281E5     |      164325 |
|     270 | 0x04AF      |        1199 |
|     271 | 0x0063      |          99 |
|     272 | 0x0BD6      |        3030 |
|     273 | 0x055C      |        1372 |
|     274 | 0x00FA      |         250 |
|     275 | 0x08B0      |        2224 |
|     276 | 0x002D      |          45 |
|     277 | 0x1CCEE     |      117998 |
|     278 | 0x29009     |      167945 |
|     279 | 0x03E2      |         994 |
|     280 | 0x0514      |        1300 |
|     281 | 0x0C17      |        3095 |
|     282 | 0x0015      |          21 |
|     283 | 0x1E57      |        7767 |
|     284 | 0x1E58      |        7768 |
|     285 | 0x1BC1D     |      113693 |
|     286 | 0x273EE     |      160750 |
|     287 | 0x0D5A      |        3418 |
|     288 | 0x0AA4      |        2724 |
|     289 | 0x0014      |          20 |
|     290 | 0x1AF72     |      110450 |
|     291 | 0x27705     |      161541 |
|     292 | 0x0084      |         132 |
|     293 | 0x1E59      |        7769 |
|     294 | 0x1E5A      |        7770 |
|     295 | 0x1E5B      |        7771 |
|     296 | 0x04FB      |        1275 |
|     297 | 0x0BD7      |        3031 |
|     298 | 0x1E5C      |        7772 |
|     299 | 0x1E5D      |        7773 |
|     300 | 0x08B5      |        2229 |
|     301 | 0x0032      |          50 |
|     302 | 0x00C9      |         201 |
|     303 | 0x187AF     |      100271 |
|     304 | 0x27BA3     |      162723 |
|     305 | 0x0694      |        1684 |
|     306 | 0x02FC      |         764 |
|     307 | 0x1D0A3     |      118947 |
|     308 | 0x28777     |      165751 |
|     309 | 0x01E4      |         484 |
|     310 | 0x1D619     |      120345 |
|     311 | 0x26B03     |      158467 |
|     312 | 0x0F1F      |        3871 |
|     313 | 0x19B53     |      105299 |
|     314 | 0x25DEB     |      155115 |
|     315 | 0x05A5      |        1445 |
|     316 | 0x06B5      |        1717 |
|     317 | 0x1A00C     |      106508 |
|     318 | 0x25982     |      153986 |
|     319 | 0x056B      |        1387 |
|     320 | 0x0306      |         774 |
|     321 | 0x1AEE5     |      110309 |
|     322 | 0x27C24     |      162852 |
|     323 | 0x0478      |        1144 |
|     324 | 0x0425      |        1061 |
|     325 | 0x19818     |      104472 |
|     326 | 0x2647F     |      156799 |
|     327 | 0x05E6      |        1510 |
|     328 | 0x0950      |        2384 |
|     329 | 0x1BAD1     |      113361 |
|     330 | 0x26DAD     |      159149 |
|     331 | 0x0E12      |        3602 |
|     332 | 0x1BB23     |      113443 |
|     333 | 0x25C41     |      154689 |
|     334 | 0x06CB      |        1739 |
|     335 | 0x19F10     |      106256 |
|     336 | 0x2671A     |      157466 |
|     337 | 0x05E3      |        1507 |
|     338 | 0x0E13      |        3603 |
|     339 | 0x18843     |      100419 |
|     340 | 0x26892     |      157842 |
|     341 | 0x06C5      |        1733 |
|     342 | 0x011A      |         282 |
|     343 | 0x1C594     |      116116 |
|     344 | 0x27D1E     |      163102 |
|     345 | 0x04B6      |        1206 |
|     346 | 0x048E      |        1166 |
|     347 | 0x1AC37     |      109623 |
|     348 | 0x26DFC     |      159228 |
|     349 | 0x050B      |        1291 |
|     350 | 0x0B9A      |        2970 |
|     351 | 0x1E6E0     |      124640 |
|     352 | 0x275E1     |      161249 |
|     353 | 0x08B1      |        2225 |
|     354 | 0x008A      |         138 |
|     355 | 0x00EF      |         239 |
|     356 | 0x0B60      |        2912 |
|     357 | 0x04EC      |        1260 |
|     358 | 0x0546      |        1350 |
|     359 | 0x001C      |          28 |
|     360 | 0x0516      |        1302 |
|     361 | 0x1EE51     |      126545 |
|     362 | 0x266AB     |      157355 |
|     363 | 0x041B      |        1051 |
|     364 | 0x08B7      |        2231 |
|     365 | 0x1DA97     |      121495 |
|     366 | 0x27D5E     |      163166 |
|     367 | 0x09EE      |        2542 |
|     368 | 0x00B2      |         178 |
|     369 | 0x00A3      |         163 |
|     370 | 0x0013      |          19 |
|     371 | 0x0031      |          49 |
|     372 | 0x0041      |          65 |
|     373 | 0x05D9      |        1497 |
|     374 | 0x05F1      |        1521 |
|     375 | 0x18D5F     |      101727 |
|     376 | 0x25429     |      152617 |
|     377 | 0x04AC      |        1196 |
|     378 | 0x0E29      |        3625 |
|     379 | 0x0050      |          80 |
|     380 | 0x0046      |          70 |
|     381 | 0x1B4C3     |      111811 |
|     382 | 0x25860     |      153696 |
|     383 | 0x0502      |        1282 |
|     384 | 0x0DFB      |        3579 |
|     385 | 0x1D417     |      119831 |
|     386 | 0x27FE9     |      163817 |
|     387 | 0x0EBD      |        3773 |
|     388 | 0x1BD89     |      114057 |
|     389 | 0x26E5A     |      159322 |
|     390 | 0x1B948     |      112968 |
|     391 | 0x273BD     |      160701 |
|     392 | 0x0F60      |        3936 |
|     393 | 0x1B3D1     |      111569 |
|     394 | 0x279C7     |      162247 |
|     395 | 0x04DE      |        1246 |
|     396 | 0x1E5A2     |      124322 |
|     397 | 0x287AF     |      165807 |
|     398 | 0x02D5      |         725 |
|     399 | 0x078B      |        1931 |
|     400 | 0x1F067     |      127079 |
|     401 | 0x2893F     |      166207 |
|     402 | 0x03FC      |        1020 |
|     403 | 0x07FD      |        2045 |
|     404 | 0x1EF1A     |      126746 |
|     405 | 0x28F01     |      167681 |
|     406 | 0x0473      |        1139 |
|     407 | 0x1F83A     |      129082 |
|     408 | 0x28001     |      163841 |
|     409 | 0x043D      |        1085 |
|     410 | 0x087E      |        2174 |
|     411 | 0x1F0D2     |      127186 |
|     412 | 0x27937     |      162103 |
|     413 | 0x097D      |        2429 |
|     414 | 0x1EA08     |      125448 |
|     415 | 0x29514     |      169236 |
|     416 | 0x03F2      |        1010 |
|     417 | 0x067C      |        1660 |
|     418 | 0x1C9A8     |      117160 |
|     419 | 0x28827     |      165927 |
|     420 | 0x0419      |        1049 |
|     421 | 0x1CA08     |      117256 |
|     422 | 0x27C01     |      162817 |
|     423 | 0x02C9      |         713 |
|     424 | 0x0ABD      |        2749 |
|     425 | 0x0918      |        2328 |
|     426 | 0x1E5E      |        7774 |
|     427 | 0x0AB7      |        2743 |
|     428 | 0x1E5F      |        7775 |
|     429 | 0x1E60      |        7776 |
|     430 | 0x1E61      |        7777 |
|     431 | 0x1E62      |        7778 |
|     432 | 0x002C      |          44 |
|     433 | 0x00CA      |         202 |
|     434 | 0x1D4F0     |      120048 |
|     435 | 0x280CE     |      164046 |
|     436 | 0x0C04      |        3076 |
|     437 | 0x0C28      |        3112 |
|     438 | 0x1E63      |        7779 |
|     439 | 0x1E64      |        7780 |
|     440 | 0x0079      |         121 |
|     441 | 0x0C15      |        3093 |
|     442 | 0x0023      |          35 |
|     443 | 0x1E65      |        7781 |
|     444 | 0x0064      |         100 |
|     445 | 0x1E66      |        7782 |
|     446 | 0x05DC      |        1500 |
|     447 | 0x1CD30     |      118064 |
|     448 | 0x27F96     |      163734 |
|     449 | 0x03DC      |         988 |
|     450 | 0x0535      |        1333 |
|     451 | 0x0B67      |        2919 |
|     452 | 0x0A6F      |        2671 |
|     453 | 0x003F      |          63 |
|     454 | 0x1E67      |        7783 |
|     455 | 0x002E      |          46 |
|     456 | 0x000E      |          14 |
|     457 | 0x1D730     |      120624 |
|     458 | 0x27E7E     |      163454 |
|     459 | 0x0B39      |        2873 |
|     460 | 0x1DB2F     |      121647 |
|     461 | 0x285A9     |      165289 |
|     462 | 0x0610      |        1552 |
|     463 | 0x1ECDD     |      126173 |
|     464 | 0x2886E     |      165998 |
|     465 | 0x0382      |         898 |
|     466 | 0x0DF5      |        3573 |
|     467 | 0x05DD      |        1501 |
|     468 | 0x0190      |         400 |
|     469 | 0x0051      |          81 |
|     470 | 0x0C16      |        3094 |
|     471 | 0x1E69      |        7785 |
|     472 | 0x1E6A      |        7786 |
|     473 | 0x1E6B      |        7787 |
|     474 | 0x1F655     |      128597 |
|     475 | 0x29CB7     |      171191 |
|     476 | 0x047D      |        1149 |
|     477 | 0x06B4      |        1716 |
|     478 | 0x2024C     |      131660 |
|     479 | 0x2A0DB     |      172251 |
|     480 | 0x03DB      |         987 |
|     481 | 0x2071D     |      132893 |
|     482 | 0x2A631     |      173617 |
|     483 | 0x0356      |         854 |
|     484 | 0x20577     |      132471 |
|     485 | 0x299D6     |      170454 |
|     486 | 0x0201      |         513 |
|     487 | 0x1F8E2     |      129250 |
|     488 | 0x2951A     |      169242 |
|     489 | 0x047B      |        1147 |
|     490 | 0x0082      |         130 |
|     491 | 0x006E      |         110 |
|     492 | 0x0091      |         145 |
|     493 | 0x0AB8      |        2744 |
|     494 | 0x0019      |          25 |
|     495 | 0x1E6C      |        7788 |
|     496 | 0x009B      |         155 |
|     497 | 0xFFFC3E21  |  4294721057 |
|     498 | 0x140A6     |       82086 |
|     499 | 0x00E0      |         224 |
|     500 | 0xFFFC3B72  |  4294720370 |
|     501 | 0x13365     |       78693 |
|     502 | 0x0A87      |        2695 |
|     503 | 0x00DB      |         219 |
|     504 | 0x00A5      |         165 |
|     505 | 0x002B      |          43 |
|     506 | 0x1E6D      |        7789 |
|     507 | 0x1E6E      |        7790 |
|     508 | 0x1E6F      |        7791 |
|     509 | 0x1E70      |        7792 |
|     510 | 0x1E71      |        7793 |
|     511 | 0x1E72      |        7794 |
|     512 | 0x1E73      |        7795 |
|     513 | 0x1E74      |        7796 |
|     514 | 0x1E75      |        7797 |
|     515 | 0x005B      |          91 |
|     516 | 0x1E76      |        7798 |
|     517 | 0x1E77      |        7799 |
|     518 | 0x1E78      |        7800 |
|     519 | 0x1E79      |        7801 |
|     520 | 0x1E7A      |        7802 |
|     521 | 0xFFFAC6A6  |  4294624934 |
|     522 | 0xFFFEBBCA  |  4294884298 |
|     523 | 0xFFFACA76  |  4294625910 |
|     524 | 0xFFFEB3C1  |  4294882241 |
|     525 | 0x0429      |        1065 |
|     526 | 0xFFFA5716  |  4294596374 |
|     527 | 0xFFFE59AE  |  4294859182 |
|     528 | 0x0F4A      |        3914 |
|     529 | 0xFFFA59D8  |  4294597080 |
|     530 | 0xFFFE6401  |  4294861825 |
|     531 | 0x0097      |         151 |
|     532 | 0xFFFACE22  |  4294626850 |
|     533 | 0xFFFEBBD9  |  4294884313 |
|     534 | 0x0441      |        1089 |
|     535 | 0xFFFA5CFE  |  4294597886 |
|     536 | 0xFFFE6BDD  |  4294863837 |
|     537 | 0x0740      |        1856 |
|     538 | 0x054C      |        1356 |
|     539 | 0x0A66      |        2662 |
|     540 | 0x0212      |         530 |
|     541 | 0x1E7C      |        7804 |
|     542 | 0x1E7D      |        7805 |
|     543 | 0xFFFA8750  |  4294608720 |
|     544 | 0xFFFE6CD5  |  4294864085 |
|     545 | 0x0714      |        1812 |
|     546 | 0xFFFA8D51  |  4294610257 |
|     547 | 0xFFFE72DA  |  4294865626 |
|     548 | 0xFFFA8F65  |  4294610789 |
|     549 | 0xFFFE69F4  |  4294863348 |
|     550 | 0x1E7E      |        7806 |
|     551 | 0x1E7F      |        7807 |
|     552 | 0x1E80      |        7808 |
|     553 | 0x0009      |           9 |
|     554 | 0x1E81      |        7809 |
|     555 | 0x1E82      |        7810 |
|     556 | 0x1E83      |        7811 |
|     557 | 0xFFFA2A35  |  4294584885 |
|     558 | 0xFFFE8A7E  |  4294871678 |
|     559 | 0x1E84      |        7812 |
|     560 | 0x1E85      |        7813 |
|     561 | 0x1E86      |        7814 |
|     562 | 0x0F5D      |        3933 |
|     563 | 0xFFFA6C39  |  4294601785 |
|     564 | 0xFFFE8193  |  4294869395 |
|     565 | 0x077D      |        1917 |
|     566 | 0xFFFA70E9  |  4294602985 |
|     567 | 0xFFFE863A  |  4294870586 |
|     568 | 0xFFFA7688  |  4294604424 |
|     569 | 0xFFFE8A50  |  4294871632 |
|     570 | 0xFFFA730A  |  4294603530 |
|     571 | 0xFFFE7B50  |  4294867792 |
|     572 | 0xFFFA6E83  |  4294602371 |
|     573 | 0xFFFE7F3D  |  4294868797 |
|     574 | 0xFFFA7BE8  |  4294605800 |
|     575 | 0xFFFE842E  |  4294870062 |
|     576 | 0xFFFA2E55  |  4294585941 |
|     577 | 0xFFFE87D2  |  4294870994 |
|     578 | 0x0410      |        1040 |
|     579 | 0xFFFAAD13  |  4294618387 |
|     580 | 0xFFFE8454  |  4294870100 |
|     581 | 0x095B      |        2395 |
|     582 | 0xFFFAAC7D  |  4294618237 |
|     583 | 0xFFFE7D3E  |  4294868286 |
|     584 | 0xFFFAB3BC  |  4294620092 |
|     585 | 0xFFFE8A52  |  4294871634 |
|     586 | 0xFFFAB498  |  4294620312 |
|     587 | 0xFFFE780C  |  4294866956 |
|     588 | 0x0ABB      |        2747 |
|     589 | 0x0C3E      |        3134 |
|     590 | 0x1E87      |        7815 |
|     591 | 0x1E88      |        7816 |
|     592 | 0x1E89      |        7817 |
|     593 | 0x1E8A      |        7818 |
|     594 | 0x1E8B      |        7819 |
|     595 | 0x1E8C      |        7820 |
|     596 | 0xFFFA3857  |  4294588503 |
|     597 | 0xFFFE7188  |  4294865288 |
|     598 | 0x0BF0      |        3056 |
|     599 | 0xFFFA38CF  |  4294588623 |
|     600 | 0xFFFE7518  |  4294866200 |
|     601 | 0x0E1E      |        3614 |
|     602 | 0x0C31      |        3121 |
|     603 | 0xFFFA2E34  |  4294585908 |
|     604 | 0xFFFE8E00  |  4294872576 |
|     605 | 0x0413      |        1043 |
|     606 | 0x0043      |          67 |
|     607 | 0xFFFA38C8  |  4294588616 |
|     608 | 0xFFFE7EC8  |  4294868680 |
|     609 | 0x0B3C      |        2876 |
|     610 | 0x1E8D      |        7821 |
|     611 | 0xFFFA5009  |  4294594569 |
|     612 | 0xFFFE7111  |  4294865169 |
|     613 | 0x09DC      |        2524 |
|     614 | 0xFFFA4B4C  |  4294593356 |
|     615 | 0xFFFE6BC6  |  4294863814 |
|     616 | 0xFFFA50A1  |  4294594721 |
|     617 | 0xFFFE6C7B  |  4294863995 |
|     618 | 0xFFFA570E  |  4294596366 |
|     619 | 0xFFFE6F46  |  4294864710 |
|     620 | 0x1E8E      |        7822 |
|     621 | 0x1E8F      |        7823 |
|     622 | 0x1E90      |        7824 |
|     623 | 0x00F5      |         245 |
|     624 | 0x0569      |        1385 |
|     625 | 0x0510      |        1296 |
|     626 | 0x1E91      |        7825 |
|     627 | 0x1E92      |        7826 |
|     628 | 0x1E93      |        7827 |
|     629 | 0x1E94      |        7828 |
|     630 | 0x1E95      |        7829 |
|     631 | 0x1E96      |        7830 |
|     632 | 0x1E97      |        7831 |
|     633 | 0x1E98      |        7832 |
|     634 | 0x1E99      |        7833 |
|     635 | 0x1E9A      |        7834 |
|     636 | 0x1E9B      |        7835 |
|     637 | 0x1E9C      |        7836 |
|     638 | 0xFFFA4AAF  |  4294593199 |
|     639 | 0xFFFE808E  |  4294869134 |
|     640 | 0x041A      |        1050 |
|     641 | 0xFFFA321B  |  4294586907 |
|     642 | 0xFFFE72CF  |  4294865615 |
|     643 | 0x0011      |          17 |
|     644 | 0xFFFA3E2D  |  4294589997 |
|     645 | 0xFFFE645E  |  4294861918 |
|     646 | 0xFFFA58CF  |  4294596815 |
|     647 | 0xFFFE6CA9  |  4294864041 |
|     648 | 0x088C      |        2188 |
|     649 | 0x1E9D      |        7837 |
|     650 | 0x1E9E      |        7838 |
|     651 | 0x1E9F      |        7839 |
|     652 | 0x1EA0      |        7840 |
|     653 | 0xFFFE96AA  |  4294874794 |
|     654 | 0xFFFF3420  |  4294915104 |
|     655 | 0x0C6A      |        3178 |
|     656 | 0x1EA1      |        7841 |
|     657 | 0x0573      |        1395 |
|     658 | 0x1EA2      |        7842 |
|     659 | 0x1EA3      |        7843 |
|     660 | 0x1EA4      |        7844 |
|     661 | 0x1EA5      |        7845 |
|     662 | 0xFFFA3DC9  |  4294589897 |
|     663 | 0xFFFE79D1  |  4294867409 |
|     664 | 0x0243      |         579 |
|     665 | 0x1EA6      |        7846 |
|     666 | 0x1EA7      |        7847 |
|     667 | 0x1EA8      |        7848 |
|     668 | 0x1EA9      |        7849 |
|     669 | 0x1EAA      |        7850 |
|     670 | 0x0088      |         136 |
|     671 | 0x000C      |          12 |
|     672 | 0xFFFBE3C8  |  4294697928 |
|     673 | 0xFFFB2D29  |  4294651177 |
|     674 | 0xFFFF650A  |  4294927626 |
|     675 | 0xFFFBE92D  |  4294699309 |
|     676 | 0xFFFB0E6B  |  4294643307 |
|     677 | 0xFFFF654D  |  4294927693 |
|     678 | 0x0928      |        2344 |
|     679 | 0x0C29      |        3113 |
|     680 | 0x020F      |         527 |
|     681 | 0x00D7      |         215 |
|     682 | 0x1EAB      |        7851 |
|     683 | 0x0042      |          66 |
|     684 | 0x0048      |          72 |
|     685 | 0x1EAC      |        7852 |
|     686 | 0x1EAD      |        7853 |
|     687 | 0x1EAE      |        7854 |
|     688 | 0xFFFA4C6C  |  4294593644 |
|     689 | 0xFFFE7215  |  4294865429 |
|     690 | 0x1EAF      |        7855 |
|     691 | 0x1EB0      |        7856 |
|     692 | 0x1EB1      |        7857 |
|     693 | 0x1EB2      |        7858 |
|     694 | 0x1EB3      |        7859 |
|     695 | 0x1EB4      |        7860 |
|     696 | 0x1EB5      |        7861 |
|     697 | 0x1EB6      |        7862 |
|     698 | 0x1EB7      |        7863 |
|     699 | 0x1EB8      |        7864 |
|     700 | 0xFFFA5C18  |  4294597656 |
|     701 | 0xFFFE79A0  |  4294867360 |
|     702 | 0x079D      |        1949 |
|     703 | 0xFFFA5D66  |  4294597990 |
|     704 | 0xFFFE8355  |  4294869845 |
|     705 | 0x1EB9      |        7865 |
|     706 | 0x1EBA      |        7866 |
|     707 | 0x0C55      |        3157 |
|     708 | 0xFFFA4E4C  |  4294594124 |
|     709 | 0xFFFE72DF  |  4294865631 |
|     710 | 0x089D      |        2205 |
|     711 | 0x1EBB      |        7867 |
|     712 | 0x1EBC      |        7868 |
|     713 | 0xFFFA5AFF  |  4294597375 |
|     714 | 0xFFFE7F83  |  4294868867 |
|     715 | 0x1EBD      |        7869 |
|     716 | 0x1EBE      |        7870 |
|     717 | 0xFFFA4604  |  4294592004 |
|     718 | 0xFFFE73C4  |  4294865860 |
|     719 | 0x072E      |        1838 |
|     720 | 0xFFFA8094  |  4294606996 |
|     721 | 0xFFFE7294  |  4294865556 |
|     722 | 0xFFFA8D78  |  4294610296 |
|     723 | 0xFFFE776F  |  4294866799 |
|     724 | 0xFFFA9548  |  4294612296 |
|     725 | 0xFFFE6EA7  |  4294864551 |
|     726 | 0xFFFA369F  |  4294588063 |
|     727 | 0xFFFE67EA  |  4294862826 |
|     728 | 0x0E50      |        3664 |
|     729 | 0x1EBF      |        7871 |
|     730 | 0xFFFA7D10  |  4294606096 |
|     731 | 0xFFFE72AB  |  4294865579 |
|     732 | 0x0802      |        2050 |
|     733 | 0xFFFA8990  |  4294609296 |
|     734 | 0xFFFE788A  |  4294867082 |
|     735 | 0xFFFA85A8  |  4294608296 |
|     736 | 0xFFFE6BCB  |  4294863819 |
|     737 | 0xFFFE7D92  |  4294868370 |
|     738 | 0xFFFE672C  |  4294862636 |
|     739 | 0xFFFE7261  |  4294865505 |
|     740 | 0x1EC0      |        7872 |
|     741 | 0x1EC1      |        7873 |
|     742 | 0x1EC2      |        7874 |
|     743 | 0x0574      |        1396 |
|     744 | 0x1EC3      |        7875 |
|     745 | 0x0578      |        1400 |
|     746 | 0x1EC4      |        7876 |

## String References

- **7730**: Well, well. It seems we have ourselves a musketeers' reunion.
- **7763**: Like moths drawn to a flame, so too are rats drawn to the murk...
- **7773**: For Altanaaa--!

## Events

### Event 65535

#### Metadata

| Field        | Value   |
|--------------|---------|
| Entrypoint   | 0x0000  |
| Data Size    | 1 bytes |
| Instructions | 1       |

```
      00 01 02 03 04 05 06 07  08 09 0A 0B 0C 0D 0E 0F
      -- -- -- -- -- -- -- --  -- -- -- -- -- -- -- --
0000: 00                                                .               
```

#### Opcodes

```
  0: 0x0000 [0x00] END_REQSTACK()
```

### Event 9

#### Metadata

| Field        | Value     |
|--------------|-----------|
| Entrypoint   | 0x0001    |
| Data Size    | 744 bytes |
| Instructions | 100       |

```
      00 01 02 03 04 05 06 07  08 09 0A 0B 0C 0D 0E 0F
      -- -- -- -- -- -- -- --  -- -- -- -- -- -- -- --
0000:    42 1A 12 69 46 01 38  00 80 27 10 63 B2 09 01   B..iF.8..'.c...
0010: 04 4E 00 A7 B2 09 01 94  01 F0 FF FF 7F 94 01 A7  .N..............
0020: B2 09 01 BA F0 FF FF 7F  01 80 02 80 03 80 04 80  ................
0030: 80 F0 FF FF 7F 80 A7 B2  09 01 4A F0 FF FF 7F A7  ..........J.....
0040: B2 09 01 4A A7 B2 09 01  F0 FF FF 7F 1C 05 80 1C  ...J............
0050: 05 80 45 06 80 F0 FF FF  7F F0 FF FF 7F 30 30 30  ..E..........000
0060: 30 07 80 1A F1 68 2B A7  B2 09 01 08 80 23 27 10  0....h+......#'.
0070: F0 FF FF 7F 10 1C 09 80  27 10 F0 FF FF 7F 11 2B  ........'......+
0080: A7 B2 09 01 0A 80 23 2B  A7 B2 09 01 0B 80 5B 0C  ......#+......[.
0090: 80 A7 B2 09 01 A7 B2 09  01 68 79 61 31 1C 0D 80  .........hya1...
00A0: 23 52 06 80 F0 FF FF 7F  F0 FF FF 7F 30 30 30 30  #R..........0000
00B0: 45 06 80 F0 FF FF 7F F0  FF FF 7F 30 30 30 31 07  E..........0001.
00C0: 80 03 02 10 0E 80 03 03  10 0F 80 2B A7 B2 09 01  ...........+....
00D0: 10 80 5B 0C 80 A7 B2 09  01 A7 B2 09 01 68 79 61  ..[..........hya
00E0: 32 1C 0D 80 23 6E F0 FF  FF 7F 11 80 99 F0 FF FF  2...#n..........
00F0: 7F 1C 0D 80 2B A7 B2 09  01 12 80 23 52 06 80 F0  ....+......#R...
0100: FF FF 7F F0 FF FF 7F 30  30 30 31 45 06 80 F0 FF  .......0001E....
0110: FF 7F F0 FF FF 7F 30 30  30 32 07 80 02 04 10 07  ......0002......
0120: 80 80 46 01 03 02 10 07  80 5B 13 80 A7 B2 09 01  ..F......[......
0130: A7 B2 09 01 63 68 6F 30  2B A7 B2 09 01 14 80 1C  ....cho0+.......
0140: 15 80 23 01 83 01 02 04  10 0F 80 80 59 01 2B A7  ..#.........Y.+.
0150: B2 09 01 16 80 23 01 83  01 02 04 10 17 80 80 83  .....#..........
0160: 01 03 02 10 07 80 5B 13  80 A7 B2 09 01 A7 B2 09  ......[.........
0170: 01 63 68 6F 30 2B A7 B2  09 01 14 80 1C 15 80 23  .cho0+.........#
0180: 01 83 01 52 06 80 F0 FF  FF 7F F0 FF FF 7F 30 30  ...R..........00
0190: 30 32 45 06 80 F0 FF FF  7F F0 FF FF 7F 62 6C 6F  02E..........blo
01A0: 66 07 80 29 10 F0 FF FF  7F 0C 02 02 10 0F 80 80  f..)............
01B0: C6 01 45 06 80 F0 FF FF  7F F0 FF FF 7F 30 30 30  ..E..........000
01C0: 33 07 80 01 8A 02 02 02  10 17 80 80 E2 01 45 06  3.............E.
01D0: 80 F0 FF FF 7F F0 FF FF  7F 30 30 30 33 07 80 01  .........0003...
01E0: 8A 02 02 02 10 18 80 80  FE 01 45 06 80 F0 FF FF  ..........E.....
01F0: 7F F0 FF FF 7F 30 30 30  35 07 80 01 8A 02 02 02  .....0005.......
0200: 10 19 80 80 1A 02 45 06  80 F0 FF FF 7F F0 FF FF  ......E.........
0210: 7F 30 30 30 35 07 80 01  8A 02 02 02 10 1A 80 80  .0005...........
0220: 36 02 45 06 80 F0 FF FF  7F F0 FF FF 7F 30 30 30  6.E..........000
0230: 34 07 80 01 8A 02 02 02  10 1B 80 80 52 02 45 06  4...........R.E.
0240: 80 F0 FF FF 7F F0 FF FF  7F 30 30 30 34 07 80 01  .........0004...
0250: 8A 02 02 02 10 1C 80 80  6E 02 45 06 80 F0 FF FF  ........n.E.....
0260: 7F F0 FF FF 7F 30 30 30  33 07 80 01 8A 02 02 02  .....0003.......
0270: 10 1D 80 80 8A 02 45 06  80 F0 FF FF 7F F0 FF FF  ......E.........
0280: 7F 30 30 30 35 07 80 01  8A 02 5B 1E 80 A7 B2 09  .0005.....[.....
0290: 01 A7 B2 09 01 6B 75 73  30 2B A7 B2 09 01 1F 80  .....kus0+......
02A0: 23 1A 12 69 52 06 80 F0  FF FF 7F F0 FF FF 7F 30  #..iR..........0
02B0: 30 30 33 52 06 80 F0 FF  FF 7F F0 FF FF 7F 30 30  003R..........00
02C0: 30 34 52 06 80 F0 FF FF  7F F0 FF FF 7F 30 30 30  04R..........000
02D0: 35 46 00 1C 20 80 45 21  80 F0 FF FF 7F F0 FF FF  5F.. .E!........
02E0: 7F 66 64 69 31 07 80 21  00                       .fdi1..!.       
```

#### Opcodes

```
  0: 0x0001 [0x42] SET_CLI_EVENT_CANCEL_DATA()
  1: 0x0002 [0x1A] CALL_SUBROUTINE(address=0x6912)
  2: 0x0005 [0x46] CAMERA_CONTROL: Disable user control
  3: 0x0007 [0x38] SET_CLIENT_EVENT_MODE(mode=27*)
  4: 0x000A [0x27] REQ_SET(priority=0x10, entity_id=Ore Door (ID: 17412707/0x0109B263), tag_num=0x04)
  5: 0x0011 [0x4E] SET_ENTITY_HIDE_FLAG: Show Rikke (ID: 17412775/0x0109B2A7)
  6: 0x0017 [0x94] LocalPlayer->Render.Flags3 ^= 0x01
  7: 0x001D [0x94] Rikke (ID: 17412775/0x0109B2A7)->Render.Flags3 ^= 0x01
  8: 0x0023 [0xBA] SET_ENTITY_POSITION(entity_id=LocalPlayer, pos_x=-90.120*, pos_z=88.500*, pos_y=0.601*, direction=90.6°*)
  9: 0x0030 [0x80] LOAD_WAIT(entity=LocalPlayer)
 10: 0x0035 [0x80] LOAD_WAIT(entity=Rikke (ID: 17412775/0x0109B2A7))
 11: 0x003A [0x4A] LocalPlayer looks at Rikke (ID: 17412775/0x0109B2A7)
 12: 0x0043 [0x4A] Rikke (ID: 17412775/0x0109B2A7) looks at LocalPlayer
 13: 0x004C [0x1C] WAIT(30* ticks)
 14: 0x004F [0x1C] WAIT(30* ticks)
 15: 0x0052 [0x45] LOAD_SCHEDULED_TASK: Load scheduler "0000" with entities [LocalPlayer, LocalPlayer], work=[509*, 0*]
 16: 0x0063 [0x1A] CALL_SUBROUTINE(address=0x68F1)
 17: 0x0066 [0x2B] Rikke (ID: 17412775/0x0109B2A7) [7647*]:
    → "Step right up, [mister/lady]! No, don't tell me: yer lookin' for a Hume broad."
 18: 0x006D [0x23] WAIT_FOR_DIALOG_INTERACTION
 19: 0x006E [0x27] REQ_SET(priority=0x10, entity_id=LocalPlayer, tag_num=0x10)
 20: 0x0075 [0x1C] WAIT(180* ticks)
 21: 0x0078 [0x27] REQ_SET(priority=0x10, entity_id=LocalPlayer, tag_num=0x11)
 22: 0x007F [0x2B] Rikke (ID: 17412775/0x0109B2A7) [7648*]:
    → "'Bout yea tall? Sword on her hip? Sure, I know where she's lyin' low."
 23: 0x0086 [0x23] WAIT_FOR_DIALOG_INTERACTION
 24: 0x0087 [0x2B] Rikke (ID: 17412775/0x0109B2A7) [7649*]:
    → "'Fraid that information's classified: beastmen and hellspawn only, ya see? Hey, the Shadow Lord makes the rules 'round here, not me!"
 25: 0x008E [0x5B] LOAD_EXT_SCHEDULER: Load scheduler "hya1" with entities [Rikke (ID: 17412775/0x0109B2A7), Rikke (ID: 17412775/0x0109B2A7)], work=1125*
 26: 0x009D [0x1C] WAIT(90* ticks)
 27: 0x00A0 [0x23] WAIT_FOR_DIALOG_INTERACTION
 28: 0x00A1 [0x52] END_LOAD_SCHEDULER: End scheduler "0000" with entities [LocalPlayer, LocalPlayer], work=509*
 29: 0x00B0 [0x45] LOAD_SCHEDULED_TASK: Load scheduler "0001" with entities [LocalPlayer, LocalPlayer], work=[509*, 0*]
 30: 0x00C1 [0x03] Work_Zone[2] = 4145*
 31: 0x00C6 [0x03] Work_Zone[3] = 1*
 32: 0x00CB [0x2B] Rikke (ID: 17412775/0x0109B2A7) [7650*]:
    → "'Course, I just might be able to make an exception for a friendly [chap/lady] who brought me $1 $0 ..."
 33: 0x00D2 [0x5B] LOAD_EXT_SCHEDULER: Load scheduler "hya2" with entities [Rikke (ID: 17412775/0x0109B2A7), Rikke (ID: 17412775/0x0109B2A7)], work=1125*
 34: 0x00E1 [0x1C] WAIT(90* ticks)
 35: 0x00E4 [0x23] WAIT_FOR_DIALOG_INTERACTION
 36: 0x00E5 [0x6E] LocalPlayer uses emote 22*
 37: 0x00EC [0x99] Wait for LocalPlayer animation to complete
 38: 0x00F1 [0x1C] WAIT(90* ticks)
 39: 0x00F4 [0x2B] Rikke (ID: 17412775/0x0109B2A7) [7651*]:
    → "Whoa now! What's with the cynical stare? Could it be that...<gasp>...you don't trust me?"
 40: 0x00FB [0x23] WAIT_FOR_DIALOG_INTERACTION
 41: 0x00FC [0x52] END_LOAD_SCHEDULER: End scheduler "0001" with entities [LocalPlayer, LocalPlayer], work=509*
 42: 0x010B [0x45] LOAD_SCHEDULED_TASK: Load scheduler "0002" with entities [LocalPlayer, LocalPlayer], work=[509*, 0*]
 43: 0x011C [0x02] IF !(Work_Zone[4] == 0*) GOTO 0x0146
 44: 0x0124 [0x03] Work_Zone[2] = 0*
 45: 0x0129 [0x5B] LOAD_EXT_SCHEDULER: Load scheduler "cho0" with entities [Rikke (ID: 17412775/0x0109B2A7), Rikke (ID: 17412775/0x0109B2A7)], work=1086*
 46: 0x0138 [0x2B] Rikke (ID: 17412775/0x0109B2A7) [7652*]:
    → "Why, you wound me! Deeply, like. Just because my buddy to the [southeast/northwest/north/west] is a two-faced trickster, doesn't mean all us imps are!"
 47: 0x013F [0x1C] WAIT(210* ticks)
 48: 0x0142 [0x23] WAIT_FOR_DIALOG_INTERACTION
 49: 0x0143 [0x01] GOTO 0x0183
 50: 0x0146 [0x02] IF !(Work_Zone[4] == 1*) GOTO 0x0159
 51: 0x014E [0x2B] Rikke (ID: 17412775/0x0109B2A7) [7655*]:
    → "I'm wounded. Deeply, like. Why, I couldn't tell a lie if ya paid me! Well, depends on how much..."
 52: 0x0155 [0x23] WAIT_FOR_DIALOG_INTERACTION
 53: 0x0156 [0x01] GOTO 0x0183
 54: 0x0159 [0x02] IF !(Work_Zone[4] == 2*) GOTO 0x0183
 55: 0x0161 [0x03] Work_Zone[2] = 0*
 56: 0x0166 [0x5B] LOAD_EXT_SCHEDULER: Load scheduler "cho0" with entities [Rikke (ID: 17412775/0x0109B2A7), Rikke (ID: 17412775/0x0109B2A7)], work=1086*
 57: 0x0175 [0x2B] Rikke (ID: 17412775/0x0109B2A7) [7652*]:
    → "Why, you wound me! Deeply, like. Just because my buddy to the [southeast/northwest/north/west] is a two-faced trickster, doesn't mean all us imps are!"
 58: 0x017C [0x1C] WAIT(210* ticks)
 59: 0x017F [0x23] WAIT_FOR_DIALOG_INTERACTION
 60: 0x0180 [0x01] GOTO 0x0183

SUBROUTINE_0183:
 61: 0x0183 [0x52] END_LOAD_SCHEDULER: End scheduler "0002" with entities [LocalPlayer, LocalPlayer], work=509*
 62: 0x0192 [0x45] LOAD_SCHEDULED_TASK: Load scheduler "blof" with entities [LocalPlayer, LocalPlayer], work=[509*, 0*]
 63: 0x01A3 [0x29] REQ_SET_WAIT(priority=0x10, entity_id=LocalPlayer, tag_num=0x0C)
 64: 0x01AA [0x02] IF !(Work_Zone[2] == 1*) GOTO 0x01C6
 65: 0x01B2 [0x45] LOAD_SCHEDULED_TASK: Load scheduler "0003" with entities [LocalPlayer, LocalPlayer], work=[509*, 0*]
 66: 0x01C3 [0x01] GOTO 0x028A
 67: 0x01C6 [0x02] IF !(Work_Zone[2] == 2*) GOTO 0x01E2
 68: 0x01CE [0x45] LOAD_SCHEDULED_TASK: Load scheduler "0003" with entities [LocalPlayer, LocalPlayer], work=[509*, 0*]
 69: 0x01DF [0x01] GOTO 0x028A
 70: 0x01E2 [0x02] IF !(Work_Zone[2] == 3*) GOTO 0x01FE
 71: 0x01EA [0x45] LOAD_SCHEDULED_TASK: Load scheduler "0005" with entities [LocalPlayer, LocalPlayer], work=[509*, 0*]
 72: 0x01FB [0x01] GOTO 0x028A
 73: 0x01FE [0x02] IF !(Work_Zone[2] == 4*) GOTO 0x021A
 74: 0x0206 [0x45] LOAD_SCHEDULED_TASK: Load scheduler "0005" with entities [LocalPlayer, LocalPlayer], work=[509*, 0*]
 75: 0x0217 [0x01] GOTO 0x028A
 76: 0x021A [0x02] IF !(Work_Zone[2] == 5*) GOTO 0x0236
 77: 0x0222 [0x45] LOAD_SCHEDULED_TASK: Load scheduler "0004" with entities [LocalPlayer, LocalPlayer], work=[509*, 0*]
 78: 0x0233 [0x01] GOTO 0x028A
 79: 0x0236 [0x02] IF !(Work_Zone[2] == 6*) GOTO 0x0252
 80: 0x023E [0x45] LOAD_SCHEDULED_TASK: Load scheduler "0004" with entities [LocalPlayer, LocalPlayer], work=[509*, 0*]
 81: 0x024F [0x01] GOTO 0x028A
 82: 0x0252 [0x02] IF !(Work_Zone[2] == 7*) GOTO 0x026E
 83: 0x025A [0x45] LOAD_SCHEDULED_TASK: Load scheduler "0003" with entities [LocalPlayer, LocalPlayer], work=[509*, 0*]
 84: 0x026B [0x01] GOTO 0x028A
 85: 0x026E [0x02] IF !(Work_Zone[2] == 8*) GOTO 0x028A
 86: 0x0276 [0x45] LOAD_SCHEDULED_TASK: Load scheduler "0005" with entities [LocalPlayer, LocalPlayer], work=[509*, 0*]
 87: 0x0287 [0x01] GOTO 0x028A

SUBROUTINE_028A:
 88: 0x028A [0x5B] LOAD_EXT_SCHEDULER: Load scheduler "kus0" with entities [Rikke (ID: 17412775/0x0109B2A7), Rikke (ID: 17412775/0x0109B2A7)], work=1028*
 89: 0x0299 [0x2B] Rikke (ID: 17412775/0x0109B2A7) [7653*]:
    → "Bah, fine, don't believe me! No skin off my wings."
 90: 0x02A0 [0x23] WAIT_FOR_DIALOG_INTERACTION
 91: 0x02A1 [0x1A] CALL_SUBROUTINE(address=0x6912)
 92: 0x02A4 [0x52] END_LOAD_SCHEDULER: End scheduler "0003" with entities [LocalPlayer, LocalPlayer], work=509*
 93: 0x02B3 [0x52] END_LOAD_SCHEDULER: End scheduler "0004" with entities [LocalPlayer, LocalPlayer], work=509*
 94: 0x02C2 [0x52] END_LOAD_SCHEDULER: End scheduler "0005" with entities [LocalPlayer, LocalPlayer], work=509*
 95: 0x02D1 [0x46] CAMERA_CONTROL: Restore default settings
 96: 0x02D3 [0x1C] WAIT(60* ticks)
 97: 0x02D6 [0x45] LOAD_SCHEDULED_TASK: Load scheduler "fdi1" with entities [LocalPlayer, LocalPlayer], work=[200*, 0*]
 98: 0x02E7 [0x21] END_EVENT
 99: 0x02E8 [0x00] END_REQSTACK()
```

### Event 10

#### Metadata

| Field        | Value     |
|--------------|-----------|
| Entrypoint   | 0x02E9    |
| Data Size    | 772 bytes |
| Instructions | 104       |

```
      00 01 02 03 04 05 06 07  08 09 0A 0B 0C 0D 0E 0F
      -- -- -- -- -- -- -- --  -- -- -- -- -- -- -- --
02E0:                             42 1A 12 69 46 01 38           B..iF.8
02F0: 00 80 27 10 7B B2 09 01  04 4E 00 A8 B2 09 01 94  ..'.{....N......
0300: 01 F0 FF FF 7F 94 01 A8  B2 09 01 BA F0 FF FF 7F  ................
0310: 22 80 23 80 03 80 24 80  80 F0 FF FF 7F 80 A8 B2  ".#...$.........
0320: 09 01 4A F0 FF FF 7F A8  B2 09 01 4A A8 B2 09 01  ..J........J....
0330: F0 FF FF 7F 1C 05 80 45  06 80 F0 FF FF 7F F0 FF  .......E........
0340: FF 7F 30 31 30 30 07 80  1A F1 68 2B A8 B2 09 01  ..0100....h+....
0350: 25 80 23 6E F0 FF FF 7F  1C 80 99 F0 FF FF 7F 1C  %.#n............
0360: 0D 80 5B 0C 80 A8 B2 09  01 A8 B2 09 01 68 79 61  ..[..........hya
0370: 31 2B A8 B2 09 01 26 80  23 52 06 80 F0 FF FF 7F  1+....&.#R......
0380: F0 FF FF 7F 30 31 30 30  45 06 80 F0 FF FF 7F F0  ....0100E.......
0390: FF FF 7F 30 31 30 31 07  80 2B A8 B2 09 01 27 80  ...0101..+....'.
03A0: 1C 0D 80 23 03 02 10 0E  80 03 03 10 0F 80 5B 0C  ...#..........[.
03B0: 80 A8 B2 09 01 A8 B2 09  01 68 79 61 32 2B A8 B2  .........hya2+..
03C0: 09 01 28 80 23 52 06 80  F0 FF FF 7F F0 FF FF 7F  ..(.#R..........
03D0: 30 31 30 31 29 10 F0 FF  FF 7F 0C 02 02 10 0F 80  0101)...........
03E0: 80 F7 03 45 06 80 F0 FF  FF 7F F0 FF FF 7F 30 31  ...E..........01
03F0: 30 32 07 80 01 BB 04 02  02 10 17 80 80 13 04 45  02.............E
0400: 06 80 F0 FF FF 7F F0 FF  FF 7F 30 31 30 32 07 80  ..........0102..
0410: 01 BB 04 02 02 10 18 80  80 2F 04 45 06 80 F0 FF  ........./.E....
0420: FF 7F F0 FF FF 7F 30 31  30 34 07 80 01 BB 04 02  ......0104......
0430: 02 10 19 80 80 4B 04 45  06 80 F0 FF FF 7F F0 FF  .....K.E........
0440: FF 7F 30 31 30 34 07 80  01 BB 04 02 02 10 1A 80  ..0104..........
0450: 80 67 04 45 06 80 F0 FF  FF 7F F0 FF FF 7F 30 31  .g.E..........01
0460: 30 33 07 80 01 BB 04 02  02 10 1B 80 80 83 04 45  03.............E
0470: 06 80 F0 FF FF 7F F0 FF  FF 7F 30 31 30 33 07 80  ..........0103..
0480: 01 BB 04 02 02 10 1C 80  80 9F 04 45 06 80 F0 FF  ...........E....
0490: FF 7F F0 FF FF 7F 30 31  30 32 07 80 01 BB 04 02  ......0102......
04A0: 02 10 1D 80 80 BB 04 45  06 80 F0 FF FF 7F F0 FF  .......E........
04B0: FF 7F 30 31 30 34 07 80  01 BB 04 2B A8 B2 09 01  ..0104.....+....
04C0: 29 80 1C 0D 80 23 6E F0  FF FF 7F 11 80 99 F0 FF  )....#n.........
04D0: FF 7F 1C 0D 80 02 04 10  07 80 80 ED 04 03 02 10  ................
04E0: 07 80 2B A8 B2 09 01 2A  80 23 01 96 05 02 04 10  ..+....*.#......
04F0: 0F 80 80 7E 05 03 02 10  17 80 5B 13 80 A8 B2 09  ...~......[.....
0500: 01 A8 B2 09 01 63 68 6F  30 2B A8 B2 09 01 2B 80  .....cho0+....+.
0510: 1C 15 80 23 52 06 80 F0  FF FF 7F F0 FF FF 7F 30  ...#R..........0
0520: 31 30 32 52 06 80 F0 FF  FF 7F F0 FF FF 7F 30 31  102R..........01
0530: 30 33 52 06 80 F0 FF FF  7F F0 FF FF 7F 30 31 30  03R..........010
0540: 34 45 06 80 F0 FF FF 7F  F0 FF FF 7F 30 31 30 35  4E..........0105
0550: 07 80 7B A8 B2 09 01 4B  A8 B2 09 01 24 80 2B A8  ..{....K....$.+.
0560: B2 09 01 2C 80 1C 20 80  23 5B 1E 80 A8 B2 09 01  ...,.. .#[......
0570: A8 B2 09 01 6B 75 73 30  1C 05 80 01 96 05 02 04  ....kus0........
0580: 10 17 80 80 96 05 03 02  10 0F 80 2B A8 B2 09 01  ...........+....
0590: 2A 80 23 01 96 05 1A 12  69 52 06 80 F0 FF FF 7F  *.#.....iR......
05A0: F0 FF FF 7F 30 31 30 32  52 06 80 F0 FF FF 7F F0  ....0102R.......
05B0: FF FF 7F 30 31 30 33 52  06 80 F0 FF FF 7F F0 FF  ...0103R........
05C0: FF 7F 30 31 30 34 52 06  80 F0 FF FF 7F F0 FF FF  ..0104R.........
05D0: 7F 30 31 30 35 46 00 1C  20 80 45 21 80 F0 FF FF  .0105F.. .E!....
05E0: 7F F0 FF FF 7F 66 64 69  31 07 80 21 00           .....fdi1..!.   
```

#### Opcodes

```
  0: 0x02E9 [0x42] SET_CLI_EVENT_CANCEL_DATA()
  1: 0x02EA [0x1A] CALL_SUBROUTINE(address=0x6912)
  2: 0x02ED [0x46] CAMERA_CONTROL: Disable user control
  3: 0x02EF [0x38] SET_CLIENT_EVENT_MODE(mode=27*)
  4: 0x02F2 [0x27] REQ_SET(priority=0x10, entity_id=Ore Door (ID: 17412731/0x0109B27B), tag_num=0x04)
  5: 0x02F9 [0x4E] SET_ENTITY_HIDE_FLAG: Show Rakke (ID: 17412776/0x0109B2A8)
  6: 0x02FF [0x94] LocalPlayer->Render.Flags3 ^= 0x01
  7: 0x0305 [0x94] Rakke (ID: 17412776/0x0109B2A8)->Render.Flags3 ^= 0x01
  8: 0x030B [0xBA] SET_ENTITY_POSITION(entity_id=LocalPlayer, pos_x=-111.500*, pos_z=-149.880*, pos_y=0.601*, direction=177.8°*)
  9: 0x0318 [0x80] LOAD_WAIT(entity=LocalPlayer)
 10: 0x031D [0x80] LOAD_WAIT(entity=Rakke (ID: 17412776/0x0109B2A8))
 11: 0x0322 [0x4A] LocalPlayer looks at Rakke (ID: 17412776/0x0109B2A8)
 12: 0x032B [0x4A] Rakke (ID: 17412776/0x0109B2A8) looks at LocalPlayer
 13: 0x0334 [0x1C] WAIT(30* ticks)
 14: 0x0337 [0x45] LOAD_SCHEDULED_TASK: Load scheduler "0100" with entities [LocalPlayer, LocalPlayer], work=[509*, 0*]
 15: 0x0348 [0x1A] CALL_SUBROUTINE(address=0x68F1)
 16: 0x034B [0x2B] Rakke (ID: 17412776/0x0109B2A8) [7657*]:
    → "Oh, look...another Allied soldier. How dreadfully exciting."
 17: 0x0352 [0x23] WAIT_FOR_DIALOG_INTERACTION
 18: 0x0353 [0x6E] LocalPlayer uses emote 7*
 19: 0x035A [0x99] Wait for LocalPlayer animation to complete
 20: 0x035F [0x1C] WAIT(90* ticks)
 21: 0x0362 [0x5B] LOAD_EXT_SCHEDULER: Load scheduler "hya1" with entities [Rakke (ID: 17412776/0x0109B2A8), Rakke (ID: 17412776/0x0109B2A8)], work=1125*
 22: 0x0371 [0x2B] Rakke (ID: 17412776/0x0109B2A8) [7658*]:
    → "Let me guess: you're searching for someone and need my help. Oh, will the fun ever stop? <Yawn>..."
 23: 0x0378 [0x23] WAIT_FOR_DIALOG_INTERACTION
 24: 0x0379 [0x52] END_LOAD_SCHEDULER: End scheduler "0100" with entities [LocalPlayer, LocalPlayer], work=509*
 25: 0x0388 [0x45] LOAD_SCHEDULED_TASK: Load scheduler "0101" with entities [LocalPlayer, LocalPlayer], work=[509*, 0*]
 26: 0x0399 [0x2B] Rakke (ID: 17412776/0x0109B2A8) [7659*]:
    → "Does it look like I'm running a charity here?"
 27: 0x03A0 [0x1C] WAIT(90* ticks)
 28: 0x03A3 [0x23] WAIT_FOR_DIALOG_INTERACTION
 29: 0x03A4 [0x03] Work_Zone[2] = 4145*
 30: 0x03A9 [0x03] Work_Zone[3] = 1*
 31: 0x03AE [0x5B] LOAD_EXT_SCHEDULER: Load scheduler "hya2" with entities [Rakke (ID: 17412776/0x0109B2A8), Rakke (ID: 17412776/0x0109B2A8)], work=1125*
 32: 0x03BD [0x2B] Rakke (ID: 17412776/0x0109B2A8) [7660*]:
    → "Bring me $1 $0 , then we can talk. If I feel like it."
 33: 0x03C4 [0x23] WAIT_FOR_DIALOG_INTERACTION
 34: 0x03C5 [0x52] END_LOAD_SCHEDULER: End scheduler "0101" with entities [LocalPlayer, LocalPlayer], work=509*
 35: 0x03D4 [0x29] REQ_SET_WAIT(priority=0x10, entity_id=LocalPlayer, tag_num=0x0C)
 36: 0x03DB [0x02] IF !(Work_Zone[2] == 1*) GOTO 0x03F7
 37: 0x03E3 [0x45] LOAD_SCHEDULED_TASK: Load scheduler "0102" with entities [LocalPlayer, LocalPlayer], work=[509*, 0*]
 38: 0x03F4 [0x01] GOTO 0x04BB
 39: 0x03F7 [0x02] IF !(Work_Zone[2] == 2*) GOTO 0x0413
 40: 0x03FF [0x45] LOAD_SCHEDULED_TASK: Load scheduler "0102" with entities [LocalPlayer, LocalPlayer], work=[509*, 0*]
 41: 0x0410 [0x01] GOTO 0x04BB
 42: 0x0413 [0x02] IF !(Work_Zone[2] == 3*) GOTO 0x042F
 43: 0x041B [0x45] LOAD_SCHEDULED_TASK: Load scheduler "0104" with entities [LocalPlayer, LocalPlayer], work=[509*, 0*]
 44: 0x042C [0x01] GOTO 0x04BB
 45: 0x042F [0x02] IF !(Work_Zone[2] == 4*) GOTO 0x044B
 46: 0x0437 [0x45] LOAD_SCHEDULED_TASK: Load scheduler "0104" with entities [LocalPlayer, LocalPlayer], work=[509*, 0*]
 47: 0x0448 [0x01] GOTO 0x04BB
 48: 0x044B [0x02] IF !(Work_Zone[2] == 5*) GOTO 0x0467
 49: 0x0453 [0x45] LOAD_SCHEDULED_TASK: Load scheduler "0103" with entities [LocalPlayer, LocalPlayer], work=[509*, 0*]
 50: 0x0464 [0x01] GOTO 0x04BB
 51: 0x0467 [0x02] IF !(Work_Zone[2] == 6*) GOTO 0x0483
 52: 0x046F [0x45] LOAD_SCHEDULED_TASK: Load scheduler "0103" with entities [LocalPlayer, LocalPlayer], work=[509*, 0*]
 53: 0x0480 [0x01] GOTO 0x04BB
 54: 0x0483 [0x02] IF !(Work_Zone[2] == 7*) GOTO 0x049F
 55: 0x048B [0x45] LOAD_SCHEDULED_TASK: Load scheduler "0102" with entities [LocalPlayer, LocalPlayer], work=[509*, 0*]
 56: 0x049C [0x01] GOTO 0x04BB
 57: 0x049F [0x02] IF !(Work_Zone[2] == 8*) GOTO 0x04BB
 58: 0x04A7 [0x45] LOAD_SCHEDULED_TASK: Load scheduler "0104" with entities [LocalPlayer, LocalPlayer], work=[509*, 0*]
 59: 0x04B8 [0x01] GOTO 0x04BB

SUBROUTINE_04BB:
 60: 0x04BB [0x2B] Rakke (ID: 17412776/0x0109B2A8) [7661*]:
    → "Look at that expression on your face. Why, it's as if you don't trust me."
 61: 0x04C2 [0x1C] WAIT(90* ticks)
 62: 0x04C5 [0x23] WAIT_FOR_DIALOG_INTERACTION
 63: 0x04C6 [0x6E] LocalPlayer uses emote 22*
 64: 0x04CD [0x99] Wait for LocalPlayer animation to complete
 65: 0x04D2 [0x1C] WAIT(90* ticks)
 66: 0x04D5 [0x02] IF !(Work_Zone[4] == 0*) GOTO 0x04ED
 67: 0x04DD [0x03] Work_Zone[2] = 0*
 68: 0x04E2 [0x2B] Rakke (ID: 17412776/0x0109B2A8) [7665*]:
    → "Fine. then go see my friend to the [east/north] of here. He's as honest as they come."
 69: 0x04E9 [0x23] WAIT_FOR_DIALOG_INTERACTION
 70: 0x04EA [0x01] GOTO 0x0596
 71: 0x04ED [0x02] IF !(Work_Zone[4] == 1*) GOTO 0x057E
 72: 0x04F5 [0x03] Work_Zone[2] = 2*
 73: 0x04FA [0x5B] LOAD_EXT_SCHEDULER: Load scheduler "cho0" with entities [Rakke (ID: 17412776/0x0109B2A8), Rakke (ID: 17412776/0x0109B2A8)], work=1086*
 74: 0x0509 [0x2B] Rakke (ID: 17412776/0x0109B2A8) [7662*]:
    → "Here's a free tip: don't judge an imp by his cover. My buddy to the [southeast/northwest/north/west] talks the talk, but he couldn't tell the truth if his life depended on it."
 75: 0x0510 [0x1C] WAIT(210* ticks)
 76: 0x0513 [0x23] WAIT_FOR_DIALOG_INTERACTION
 77: 0x0514 [0x52] END_LOAD_SCHEDULER: End scheduler "0102" with entities [LocalPlayer, LocalPlayer], work=509*
 78: 0x0523 [0x52] END_LOAD_SCHEDULER: End scheduler "0103" with entities [LocalPlayer, LocalPlayer], work=509*
 79: 0x0532 [0x52] END_LOAD_SCHEDULER: End scheduler "0104" with entities [LocalPlayer, LocalPlayer], work=509*
 80: 0x0541 [0x45] LOAD_SCHEDULED_TASK: Load scheduler "0105" with entities [LocalPlayer, LocalPlayer], work=[509*, 0*]
 81: 0x0552 [0x7B] Rakke (ID: 17412776/0x0109B2A8) stops talking
 82: 0x0557 [0x4B] UPDATE_ENTITY_YAW(entity=Rakke (ID: 17412776/0x0109B2A8), yaw=11.1°*)
 83: 0x055E [0x2B] Rakke (ID: 17412776/0x0109B2A8) [7663*]:
    → "Trust me or don't trust me. I won't lose any sleep over not helpin' a wingless one."
 84: 0x0565 [0x1C] WAIT(60* ticks)
 85: 0x0568 [0x23] WAIT_FOR_DIALOG_INTERACTION
 86: 0x0569 [0x5B] LOAD_EXT_SCHEDULER: Load scheduler "kus0" with entities [Rakke (ID: 17412776/0x0109B2A8), Rakke (ID: 17412776/0x0109B2A8)], work=1028*
 87: 0x0578 [0x1C] WAIT(30* ticks)
 88: 0x057B [0x01] GOTO 0x0596
 89: 0x057E [0x02] IF !(Work_Zone[4] == 2*) GOTO 0x0596
 90: 0x0586 [0x03] Work_Zone[2] = 1*
 91: 0x058B [0x2B] Rakke (ID: 17412776/0x0109B2A8) [7665*]:
    → "Fine. then go see my friend to the [east/north] of here. He's as honest as they come."
 92: 0x0592 [0x23] WAIT_FOR_DIALOG_INTERACTION
 93: 0x0593 [0x01] GOTO 0x0596

SUBROUTINE_0596:
 94: 0x0596 [0x1A] CALL_SUBROUTINE(address=0x6912)
 95: 0x0599 [0x52] END_LOAD_SCHEDULER: End scheduler "0102" with entities [LocalPlayer, LocalPlayer], work=509*
 96: 0x05A8 [0x52] END_LOAD_SCHEDULER: End scheduler "0103" with entities [LocalPlayer, LocalPlayer], work=509*
 97: 0x05B7 [0x52] END_LOAD_SCHEDULER: End scheduler "0104" with entities [LocalPlayer, LocalPlayer], work=509*
 98: 0x05C6 [0x52] END_LOAD_SCHEDULER: End scheduler "0105" with entities [LocalPlayer, LocalPlayer], work=509*
 99: 0x05D5 [0x46] CAMERA_CONTROL: Restore default settings
100: 0x05D7 [0x1C] WAIT(60* ticks)
101: 0x05DA [0x45] LOAD_SCHEDULED_TASK: Load scheduler "fdi1" with entities [LocalPlayer, LocalPlayer], work=[200*, 0*]
102: 0x05EB [0x21] END_EVENT
103: 0x05EC [0x00] END_REQSTACK()
```

### Event 11

#### Metadata

| Field        | Value     |
|--------------|-----------|
| Entrypoint   | 0x05ED    |
| Data Size    | 784 bytes |
| Instructions | 106       |

```
      00 01 02 03 04 05 06 07  08 09 0A 0B 0C 0D 0E 0F
      -- -- -- -- -- -- -- --  -- -- -- -- -- -- -- --
05E0:                                         42 1A 12               B..
05F0: 69 46 01 38 00 80 27 10  7D B2 09 01 04 4E 00 A9  iF.8..'.}....N..
0600: B2 09 01 94 01 F0 FF FF  7F 94 01 A9 B2 09 01 BA  ................
0610: F0 FF FF 7F 2D 80 2E 80  03 80 2F 80 80 F0 FF FF  ....-...../.....
0620: 7F 80 A9 B2 09 01 4A F0  FF FF 7F A9 B2 09 01 4A  ......J........J
0630: A9 B2 09 01 F0 FF FF 7F  1C 05 80 45 06 80 F0 FF  ...........E....
0640: FF 7F F0 FF FF 7F 30 32  30 30 07 80 1A F1 68 2B  ......0200....h+
0650: A9 B2 09 01 30 80 23 2B  A9 B2 09 01 31 80 5B 1E  ....0.#+....1.[.
0660: 80 A9 B2 09 01 A9 B2 09  01 6B 75 73 30 1C 32 80  .........kus0.2.
0670: 23 5B 33 80 A9 B2 09 01  A9 B2 09 01 63 68 61 30  #[3.........cha0
0680: 1C 34 80 52 06 80 F0 FF  FF 7F F0 FF FF 7F 30 32  .4.R..........02
0690: 30 30 45 06 80 F0 FF FF  7F F0 FF FF 7F 30 32 30  00E..........020
06A0: 31 07 80 2B A9 B2 09 01  35 80 1C 0D 80 5B 33 80  1..+....5....[3.
06B0: A9 B2 09 01 A9 B2 09 01  74 6C 6B 30 1C 34 80 23  ........tlk0.4.#
06C0: 5B 33 80 A9 B2 09 01 A9  B2 09 01 74 6C 6B 31 52  [3.........tlk1R
06D0: 06 80 F0 FF FF 7F F0 FF  FF 7F 30 32 30 31 45 06  ..........0201E.
06E0: 80 F0 FF FF 7F F0 FF FF  7F 30 32 30 33 07 80 03  .........0203...
06F0: 02 10 0E 80 03 03 10 0F  80 7B A9 B2 09 01 4B A9  .........{....K.
0700: B2 09 01 2F 80 1C 20 80  2B A9 B2 09 01 36 80 23  .../.. .+....6.#
0710: 5B 33 80 A9 B2 09 01 A9  B2 09 01 6B 73 75 30 1C  [3.........ksu0.
0720: 32 80 5B 33 80 A9 B2 09  01 A9 B2 09 01 74 62 75  2.[3.........tbu
0730: 30 1C 34 80 52 06 80 F0  FF FF 7F F0 FF FF 7F 30  0.4.R..........0
0740: 32 30 33 29 10 F0 FF FF  7F 0C 02 02 10 0F 80 80  203)............
0750: 66 07 45 06 80 F0 FF FF  7F F0 FF FF 7F 30 32 30  f.E..........020
0760: 32 07 80 01 2A 08 02 02  10 17 80 80 82 07 45 06  2...*.........E.
0770: 80 F0 FF FF 7F F0 FF FF  7F 30 32 30 32 07 80 01  .........0202...
0780: 2A 08 02 02 10 18 80 80  9E 07 45 06 80 F0 FF FF  *.........E.....
0790: 7F F0 FF FF 7F 30 32 30  32 07 80 01 2A 08 02 02  .....0202...*...
07A0: 10 19 80 80 BA 07 45 06  80 F0 FF FF 7F F0 FF FF  ......E.........
07B0: 7F 30 32 30 32 07 80 01  2A 08 02 02 10 1A 80 80  .0202...*.......
07C0: D6 07 45 06 80 F0 FF FF  7F F0 FF FF 7F 30 32 30  ..E..........020
07D0: 34 07 80 01 2A 08 02 02  10 1B 80 80 F2 07 45 06  4...*.........E.
07E0: 80 F0 FF FF 7F F0 FF FF  7F 30 32 30 34 07 80 01  .........0204...
07F0: 2A 08 02 02 10 1C 80 80  0E 08 45 06 80 F0 FF FF  *.........E.....
0800: 7F F0 FF FF 7F 30 32 30  32 07 80 01 2A 08 02 02  .....0202...*...
0810: 10 1D 80 80 2A 08 45 06  80 F0 FF FF 7F F0 FF FF  ....*.E.........
0820: 7F 30 32 30 32 07 80 01  2A 08 03 02 10 0E 80 2B  .0202...*......+
0830: A9 B2 09 01 37 80 1C 34  80 23 4A A9 B2 09 01 F0  ....7..4.#J.....
0840: FF FF 7F 02 04 10 07 80  80 6D 08 03 02 10 0F 80  .........m......
0850: 2B A9 B2 09 01 38 80 5B  13 80 A9 B2 09 01 A9 B2  +....8.[........
0860: 09 01 63 68 6F 30 1C 15  80 23 01 BC 08 02 04 10  ..cho0...#......
0870: 0F 80 80 92 08 2B A9 B2  09 01 39 80 5B 13 80 A9  .....+....9.[...
0880: B2 09 01 A9 B2 09 01 63  68 6F 30 1C 15 80 23 01  .......cho0...#.
0890: BC 08 02 04 10 17 80 80  BC 08 03 02 10 18 80 2B  ...............+
08A0: A9 B2 09 01 38 80 5B 13  80 A9 B2 09 01 A9 B2 09  ....8.[.........
08B0: 01 63 68 6F 30 1C 15 80  23 01 BC 08 2B A9 B2 09  .cho0...#...+...
08C0: 01 3A 80 23 1A 12 69 52  06 80 F0 FF FF 7F F0 FF  .:.#..iR........
08D0: FF 7F 30 32 30 32 52 06  80 F0 FF FF 7F F0 FF FF  ..0202R.........
08E0: 7F 30 32 30 34 46 00 1C  20 80 45 21 80 F0 FF FF  .0204F.. .E!....
08F0: 7F F0 FF FF 7F 66 64 69  31 07 80 21 00           .....fdi1..!.   
```

#### Opcodes

```
  0: 0x05ED [0x42] SET_CLI_EVENT_CANCEL_DATA()
  1: 0x05EE [0x1A] CALL_SUBROUTINE(address=0x6912)
  2: 0x05F1 [0x46] CAMERA_CONTROL: Disable user control
  3: 0x05F3 [0x38] SET_CLIENT_EVENT_MODE(mode=27*)
  4: 0x05F6 [0x27] REQ_SET(priority=0x10, entity_id=Ore Door (ID: 17412733/0x0109B27D), tag_num=0x04)
  5: 0x05FD [0x4E] SET_ENTITY_HIDE_FLAG: Show Rokke (ID: 17412777/0x0109B2A9)
  6: 0x0603 [0x94] LocalPlayer->Render.Flags3 ^= 0x01
  7: 0x0609 [0x94] Rokke (ID: 17412777/0x0109B2A9)->Render.Flags3 ^= 0x01
  8: 0x060F [0xBA] SET_ENTITY_POSITION(entity_id=LocalPlayer, pos_x=-30.042*, pos_z=-151.700*, pos_y=0.601*, direction=91.1°*)
  9: 0x061C [0x80] LOAD_WAIT(entity=LocalPlayer)
 10: 0x0621 [0x80] LOAD_WAIT(entity=Rokke (ID: 17412777/0x0109B2A9))
 11: 0x0626 [0x4A] LocalPlayer looks at Rokke (ID: 17412777/0x0109B2A9)
 12: 0x062F [0x4A] Rokke (ID: 17412777/0x0109B2A9) looks at LocalPlayer
 13: 0x0638 [0x1C] WAIT(30* ticks)
 14: 0x063B [0x45] LOAD_SCHEDULED_TASK: Load scheduler "0200" with entities [LocalPlayer, LocalPlayer], work=[509*, 0*]
 15: 0x064C [0x1A] CALL_SUBROUTINE(address=0x68F1)
 16: 0x064F [0x2B] Rokke (ID: 17412777/0x0109B2A9) [7667*]:
    → "Yeeeeees? You have business with me, you do?"
 17: 0x0656 [0x23] WAIT_FOR_DIALOG_INTERACTION
 18: 0x0657 [0x2B] Rokke (ID: 17412777/0x0109B2A9) [7668*]:
    → "You look for Hume woman, hmmmmmm? Maybe I know where she is. Maybe I don't."
 19: 0x065E [0x5B] LOAD_EXT_SCHEDULER: Load scheduler "kus0" with entities [Rokke (ID: 17412777/0x0109B2A9), Rokke (ID: 17412777/0x0109B2A9)], work=1028*
 20: 0x066D [0x1C] WAIT(150* ticks)
 21: 0x0670 [0x23] WAIT_FOR_DIALOG_INTERACTION
 22: 0x0671 [0x5B] LOAD_EXT_SCHEDULER: Load scheduler "cha0" with entities [Rokke (ID: 17412777/0x0109B2A9), Rokke (ID: 17412777/0x0109B2A9)], work=830*
 23: 0x0680 [0x1C] WAIT(120* ticks)
 24: 0x0683 [0x52] END_LOAD_SCHEDULER: End scheduler "0200" with entities [LocalPlayer, LocalPlayer], work=509*
 25: 0x0692 [0x45] LOAD_SCHEDULED_TASK: Load scheduler "0201" with entities [LocalPlayer, LocalPlayer], work=[509*, 0*]
 26: 0x06A3 [0x2B] Rokke (ID: 17412777/0x0109B2A9) [7669*]:
    → "Either way, too bad! Boss would have Rokke's tail for blabbin' our secrets to a wingless one, seeeeee?"
 27: 0x06AA [0x1C] WAIT(90* ticks)
 28: 0x06AD [0x5B] LOAD_EXT_SCHEDULER: Load scheduler "tlk0" with entities [Rokke (ID: 17412777/0x0109B2A9), Rokke (ID: 17412777/0x0109B2A9)], work=830*
 29: 0x06BC [0x1C] WAIT(120* ticks)
 30: 0x06BF [0x23] WAIT_FOR_DIALOG_INTERACTION
 31: 0x06C0 [0x5B] LOAD_EXT_SCHEDULER: Load scheduler "tlk1" with entities [Rokke (ID: 17412777/0x0109B2A9), Rokke (ID: 17412777/0x0109B2A9)], work=830*
 32: 0x06CF [0x52] END_LOAD_SCHEDULER: End scheduler "0201" with entities [LocalPlayer, LocalPlayer], work=509*
 33: 0x06DE [0x45] LOAD_SCHEDULED_TASK: Load scheduler "0203" with entities [LocalPlayer, LocalPlayer], work=[509*, 0*]
 34: 0x06EF [0x03] Work_Zone[2] = 4145*
 35: 0x06F4 [0x03] Work_Zone[3] = 1*
 36: 0x06F9 [0x7B] Rokke (ID: 17412777/0x0109B2A9) stops talking
 37: 0x06FE [0x4B] UPDATE_ENTITY_YAW(entity=Rokke (ID: 17412777/0x0109B2A9), yaw=5.7°*)
 38: 0x0705 [0x1C] WAIT(60* ticks)
 39: 0x0708 [0x2B] Rokke (ID: 17412777/0x0109B2A9) [7670*]:
    → "Or maybe you make it worth my while? Bring Rokke $1 shiny $0 , perhaps?"
 40: 0x070F [0x23] WAIT_FOR_DIALOG_INTERACTION
 41: 0x0710 [0x5B] LOAD_EXT_SCHEDULER: Load scheduler "ksu0" with entities [Rokke (ID: 17412777/0x0109B2A9), Rokke (ID: 17412777/0x0109B2A9)], work=830*
 42: 0x071F [0x1C] WAIT(150* ticks)
 43: 0x0722 [0x5B] LOAD_EXT_SCHEDULER: Load scheduler "tbu0" with entities [Rokke (ID: 17412777/0x0109B2A9), Rokke (ID: 17412777/0x0109B2A9)], work=830*
 44: 0x0731 [0x1C] WAIT(120* ticks)
 45: 0x0734 [0x52] END_LOAD_SCHEDULER: End scheduler "0203" with entities [LocalPlayer, LocalPlayer], work=509*
 46: 0x0743 [0x29] REQ_SET_WAIT(priority=0x10, entity_id=LocalPlayer, tag_num=0x0C)
 47: 0x074A [0x02] IF !(Work_Zone[2] == 1*) GOTO 0x0766
 48: 0x0752 [0x45] LOAD_SCHEDULED_TASK: Load scheduler "0202" with entities [LocalPlayer, LocalPlayer], work=[509*, 0*]
 49: 0x0763 [0x01] GOTO 0x082A
 50: 0x0766 [0x02] IF !(Work_Zone[2] == 2*) GOTO 0x0782
 51: 0x076E [0x45] LOAD_SCHEDULED_TASK: Load scheduler "0202" with entities [LocalPlayer, LocalPlayer], work=[509*, 0*]
 52: 0x077F [0x01] GOTO 0x082A
 53: 0x0782 [0x02] IF !(Work_Zone[2] == 3*) GOTO 0x079E
 54: 0x078A [0x45] LOAD_SCHEDULED_TASK: Load scheduler "0202" with entities [LocalPlayer, LocalPlayer], work=[509*, 0*]
 55: 0x079B [0x01] GOTO 0x082A
 56: 0x079E [0x02] IF !(Work_Zone[2] == 4*) GOTO 0x07BA
 57: 0x07A6 [0x45] LOAD_SCHEDULED_TASK: Load scheduler "0202" with entities [LocalPlayer, LocalPlayer], work=[509*, 0*]
 58: 0x07B7 [0x01] GOTO 0x082A
 59: 0x07BA [0x02] IF !(Work_Zone[2] == 5*) GOTO 0x07D6
 60: 0x07C2 [0x45] LOAD_SCHEDULED_TASK: Load scheduler "0204" with entities [LocalPlayer, LocalPlayer], work=[509*, 0*]
 61: 0x07D3 [0x01] GOTO 0x082A
 62: 0x07D6 [0x02] IF !(Work_Zone[2] == 6*) GOTO 0x07F2
 63: 0x07DE [0x45] LOAD_SCHEDULED_TASK: Load scheduler "0204" with entities [LocalPlayer, LocalPlayer], work=[509*, 0*]
 64: 0x07EF [0x01] GOTO 0x082A
 65: 0x07F2 [0x02] IF !(Work_Zone[2] == 7*) GOTO 0x080E
 66: 0x07FA [0x45] LOAD_SCHEDULED_TASK: Load scheduler "0202" with entities [LocalPlayer, LocalPlayer], work=[509*, 0*]
 67: 0x080B [0x01] GOTO 0x082A
 68: 0x080E [0x02] IF !(Work_Zone[2] == 8*) GOTO 0x082A
 69: 0x0816 [0x45] LOAD_SCHEDULED_TASK: Load scheduler "0202" with entities [LocalPlayer, LocalPlayer], work=[509*, 0*]
 70: 0x0827 [0x01] GOTO 0x082A

SUBROUTINE_082A:
 71: 0x082A [0x03] Work_Zone[2] = 4145*
 72: 0x082F [0x2B] Rokke (ID: 17412777/0x0109B2A9) [7671*]:
    → "Shiny, shiny $0, yes. Rokke tell you everything he know."
 73: 0x0836 [0x1C] WAIT(120* ticks)
 74: 0x0839 [0x23] WAIT_FOR_DIALOG_INTERACTION
 75: 0x083A [0x4A] Rokke (ID: 17412777/0x0109B2A9) looks at LocalPlayer
 76: 0x0843 [0x02] IF !(Work_Zone[4] == 0*) GOTO 0x086D
 77: 0x084B [0x03] Work_Zone[2] = 1*
 78: 0x0850 [0x2B] Rokke (ID: 17412777/0x0109B2A9) [7672*]:
    → "What? My buddy up [southeast/northwest/north/west] tell you same thing? Oh, don't trust him, no no no."
 79: 0x0857 [0x5B] LOAD_EXT_SCHEDULER: Load scheduler "cho0" with entities [Rokke (ID: 17412777/0x0109B2A9), Rokke (ID: 17412777/0x0109B2A9)], work=1086*
 80: 0x0866 [0x1C] WAIT(210* ticks)
 81: 0x0869 [0x23] WAIT_FOR_DIALOG_INTERACTION
 82: 0x086A [0x01] GOTO 0x08BC
 83: 0x086D [0x02] IF !(Work_Zone[4] == 1*) GOTO 0x0892
 84: 0x0875 [0x2B] Rokke (ID: 17412777/0x0109B2A9) [7675*]:
    → "You meet my friend Rikke, yes? Northwesty of here? He smart. He honest too."
 85: 0x087C [0x5B] LOAD_EXT_SCHEDULER: Load scheduler "cho0" with entities [Rokke (ID: 17412777/0x0109B2A9), Rokke (ID: 17412777/0x0109B2A9)], work=1086*
 86: 0x088B [0x1C] WAIT(210* ticks)
 87: 0x088E [0x23] WAIT_FOR_DIALOG_INTERACTION
 88: 0x088F [0x01] GOTO 0x08BC
 89: 0x0892 [0x02] IF !(Work_Zone[4] == 2*) GOTO 0x08BC
 90: 0x089A [0x03] Work_Zone[2] = 3*
 91: 0x089F [0x2B] Rokke (ID: 17412777/0x0109B2A9) [7672*]:
    → "What? My buddy up [southeast/northwest/north/west] tell you same thing? Oh, don't trust him, no no no."
 92: 0x08A6 [0x5B] LOAD_EXT_SCHEDULER: Load scheduler "cho0" with entities [Rokke (ID: 17412777/0x0109B2A9), Rokke (ID: 17412777/0x0109B2A9)], work=1086*
 93: 0x08B5 [0x1C] WAIT(210* ticks)
 94: 0x08B8 [0x23] WAIT_FOR_DIALOG_INTERACTION
 95: 0x08B9 [0x01] GOTO 0x08BC

SUBROUTINE_08BC:
 96: 0x08BC [0x2B] Rokke (ID: 17412777/0x0109B2A9) [7673*]:
    → "You trust Rokke, yes? Rokke no lie to no one."
 97: 0x08C3 [0x23] WAIT_FOR_DIALOG_INTERACTION
 98: 0x08C4 [0x1A] CALL_SUBROUTINE(address=0x6912)
 99: 0x08C7 [0x52] END_LOAD_SCHEDULER: End scheduler "0202" with entities [LocalPlayer, LocalPlayer], work=509*
100: 0x08D6 [0x52] END_LOAD_SCHEDULER: End scheduler "0204" with entities [LocalPlayer, LocalPlayer], work=509*
101: 0x08E5 [0x46] CAMERA_CONTROL: Restore default settings
102: 0x08E7 [0x1C] WAIT(60* ticks)
103: 0x08EA [0x45] LOAD_SCHEDULED_TASK: Load scheduler "fdi1" with entities [LocalPlayer, LocalPlayer], work=[200*, 0*]
104: 0x08FB [0x21] END_EVENT
105: 0x08FC [0x00] END_REQSTACK()
```

### Event 12

#### Metadata

| Field        | Value      |
|--------------|------------|
| Entrypoint   | 0x08FD     |
| Data Size    | 1714 bytes |
| Instructions | 216        |

```
      00 01 02 03 04 05 06 07  08 09 0A 0B 0C 0D 0E 0F
      -- -- -- -- -- -- -- --  -- -- -- -- -- -- -- --
08F0:                                         42 1A 12               B..
0900: 69 46 01 38 00 80 27 10  63 B2 09 01 04 2F 00 AE  iF.8..'.c..../..
0910: B2 09 01 2F 00 B8 B2 09  01 2F 00 B9 B2 09 01 2F  .../...../...../
0920: 00 BA B2 09 01 2F 00 BB  B2 09 01 2F 00 BC B2 09  ...../...../....
0930: 01 4E 00 AE B2 09 01 4E  00 B8 B2 09 01 4E 00 B9  .N.....N.....N..
0940: B2 09 01 4E 00 BA B2 09  01 4E 00 BB B2 09 01 4E  ...N.....N.....N
0950: 00 BC B2 09 01 92 01 AE  B2 09 01 94 01 F0 FF FF  ................
0960: 7F 94 01 A7 B2 09 01 94  01 AE B2 09 01 94 01 B8  ................
0970: B2 09 01 94 01 B9 B2 09  01 94 01 BA B2 09 01 94  ................
0980: 01 BB B2 09 01 94 01 BC  B2 09 01 BA F0 FF FF 7F  ................
0990: 01 80 02 80 03 80 04 80  BA AE B2 09 01 3B 80 3C  .............;.<
09A0: 80 03 80 3D 80 BA B9 B2  09 01 3E 80 3F 80 40 80  ...=......>.?.@.
09B0: 41 80 BA BA B2 09 01 42  80 43 80 40 80 44 80 BA  A......B.C.@.D..
09C0: BB B2 09 01 45 80 46 80  47 80 48 80 BA BC B2 09  ....E.F.G.H.....
09D0: 01 49 80 4A 80 47 80 4B  80 1C 20 80 80 F0 FF FF  .I.J.G.K.. .....
09E0: 7F 80 A7 B2 09 01 80 AE  B2 09 01 1C 05 80 4A F0  ..............J.
09F0: FF FF 7F A7 B2 09 01 4A  A7 B2 09 01 F0 FF FF 7F  .......J........
0A00: 1C 05 80 1C 05 80 45 06  80 F0 FF FF 7F F0 FF FF  ......E.........
0A10: 7F 30 33 30 30 07 80 1A  F1 68 02 04 10 07 80 80  .0300....h......
0A20: 6F 0A 5B 1E 80 A7 B2 09  01 A7 B2 09 01 6B 75 73  o.[..........kus
0A30: 30 03 02 10 0E 80 2B A7  B2 09 01 4C 80 23 2B A7  0.....+....L.#+.
0A40: B2 09 01 4D 80 23 5B 0C  80 A7 B2 09 01 A7 B2 09  ...M.#[.........
0A50: 01 68 79 61 30 2B A7 B2  09 01 4E 80 23 5B 0C 80  .hya0+....N.#[..
0A60: A7 B2 09 01 A7 B2 09 01  68 79 61 31 01 52 0F 02  ........hya1.R..
0A70: 04 10 0F 80 80 52 0F 5B  1E 80 A7 B2 09 01 A7 B2  .....R.[........
0A80: 09 01 6B 75 73 30 03 02  10 0E 80 2B A7 B2 09 01  ..kus0.....+....
0A90: 4F 80 23 2B A7 B2 09 01  50 80 23 1A 12 69 1C 09  O.#+....P.#..i..
0AA0: 80 52 06 80 F0 FF FF 7F  F0 FF FF 7F 30 33 30 30  .R..........0300
0AB0: 27 10 B8 B2 09 01 05 1A  F1 68 27 10 B9 B2 09 01  '........h'.....
0AC0: 07 27 10 BA B2 09 01 07  27 10 BB B2 09 01 07 27  .'......'......'
0AD0: 10 BC B2 09 01 05 2B A7  B2 09 01 51 80 23 2B A7  ......+....Q.#+.
0AE0: B2 09 01 52 80 23 1A 12  69 7A 00 B8 B2 09 01 7A  ...R.#..iz.....z
0AF0: 00 B9 B2 09 01 7A 00 BA  B2 09 01 7A 00 BB B2 09  .....z.....z....
0B00: 01 7A 00 BC B2 09 01 1C  09 80 52 06 80 F0 FF FF  .z........R.....
0B10: 7F F0 FF FF 7F 6B 6C 6C  30 52 06 80 F0 FF FF 7F  .....kll0R......
0B20: F0 FF FF 7F 6B 6C 6C 32  52 06 80 F0 FF FF 7F F0  ....kll2R.......
0B30: FF FF 7F 6B 6C 6C 31 52  06 80 F0 FF FF 7F F0 FF  ...kll1R........
0B40: FF 7F 6B 6C 6C 33 45 06  80 F0 FF FF 7F F0 FF FF  ..kll3E.........
0B50: 7F 30 33 30 31 07 80 1A  F1 68 2B A7 B2 09 01 53  .0301....h+....S
0B60: 80 23 2B A7 B2 09 01 54  80 23 52 06 80 F0 FF FF  .#+....T.#R.....
0B70: 7F F0 FF FF 7F 30 33 30  31 29 10 F0 FF FF 7F 0C  .....0301)......
0B80: 02 02 10 0F 80 80 9C 0B  45 06 80 F0 FF FF 7F F0  ........E.......
0B90: FF FF 7F 30 33 30 32 07  80 01 60 0C 02 02 10 17  ...0302...`.....
0BA0: 80 80 B8 0B 45 06 80 F0  FF FF 7F F0 FF FF 7F 30  ....E..........0
0BB0: 33 30 32 07 80 01 60 0C  02 02 10 18 80 80 D4 0B  302...`.........
0BC0: 45 06 80 F0 FF FF 7F F0  FF FF 7F 30 33 30 34 07  E..........0304.
0BD0: 80 01 60 0C 02 02 10 19  80 80 F0 0B 45 06 80 F0  ..`.........E...
0BE0: FF FF 7F F0 FF FF 7F 30  33 30 34 07 80 01 60 0C  .......0304...`.
0BF0: 02 02 10 1A 80 80 0C 0C  45 06 80 F0 FF FF 7F F0  ........E.......
0C00: FF FF 7F 30 33 30 33 07  80 01 60 0C 02 02 10 1B  ...0303...`.....
0C10: 80 80 28 0C 45 06 80 F0  FF FF 7F F0 FF FF 7F 30  ..(.E..........0
0C20: 33 30 33 07 80 01 60 0C  02 02 10 1C 80 80 44 0C  303...`.......D.
0C30: 45 06 80 F0 FF FF 7F F0  FF FF 7F 30 33 30 32 07  E..........0302.
0C40: 80 01 60 0C 02 02 10 1D  80 80 60 0C 45 06 80 F0  ..`.......`.E...
0C50: FF FF 7F F0 FF FF 7F 30  33 30 34 07 80 01 60 0C  .......0304...`.
0C60: 27 10 63 B2 09 01 03 1C  20 80 4A F0 FF FF 7F AE  '.c..... .J.....
0C70: B2 09 01 1C 05 80 27 10  AE B2 09 01 09 1C 34 80  ......'.......4.
0C80: 52 06 80 F0 FF FF 7F F0  FF FF 7F 30 33 30 32 52  R..........0302R
0C90: 06 80 F0 FF FF 7F F0 FF  FF 7F 30 33 30 33 52 06  ..........0303R.
0CA0: 80 F0 FF FF 7F F0 FF FF  7F 30 33 30 34 45 06 80  .........0304E..
0CB0: F0 FF FF 7F F0 FF FF 7F  30 33 30 35 07 80 2B AE  ........0305..+.
0CC0: B2 09 01 55 80 1C 34 80  27 10 63 B2 09 01 04 2A  ...U..4.'.c....*
0CD0: 10 AE B2 09 01 23 52 06  80 F0 FF FF 7F F0 FF FF  .....#R.........
0CE0: 7F 30 33 30 35 29 10 F0  FF FF 7F 0C 02 02 10 0F  .0305)..........
0CF0: 80 80 08 0D 45 06 80 F0  FF FF 7F F0 FF FF 7F 30  ....E..........0
0D00: 33 30 36 07 80 01 CC 0D  02 02 10 17 80 80 24 0D  306...........$.
0D10: 45 06 80 F0 FF FF 7F F0  FF FF 7F 30 33 30 36 07  E..........0306.
0D20: 80 01 CC 0D 02 02 10 18  80 80 40 0D 45 06 80 F0  ..........@.E...
0D30: FF FF 7F F0 FF FF 7F 30  33 30 36 07 80 01 CC 0D  .......0306.....
0D40: 02 02 10 19 80 80 5C 0D  45 06 80 F0 FF FF 7F F0  ......\.E.......
0D50: FF FF 7F 30 33 30 36 07  80 01 CC 0D 02 02 10 1A  ...0306.........
0D60: 80 80 78 0D 45 06 80 F0  FF FF 7F F0 FF FF 7F 30  ..x.E..........0
0D70: 33 30 37 07 80 01 CC 0D  02 02 10 1B 80 80 94 0D  307.............
0D80: 45 06 80 F0 FF FF 7F F0  FF FF 7F 30 33 30 37 07  E..........0307.
0D90: 80 01 CC 0D 02 02 10 1C  80 80 B0 0D 45 06 80 F0  ............E...
0DA0: FF FF 7F F0 FF FF 7F 30  33 30 37 07 80 01 CC 0D  .......0307.....
0DB0: 02 02 10 1D 80 80 CC 0D  45 06 80 F0 FF FF 7F F0  ........E.......
0DC0: FF FF 7F 30 33 30 36 07  80 01 CC 0D 27 10 F0 FF  ...0306.....'...
0DD0: FF 7F 10 1C 09 80 27 10  F0 FF FF 7F 11 1C 20 80  ......'....... .
0DE0: 52 06 80 F0 FF FF 7F F0  FF FF 7F 30 33 30 36 52  R..........0306R
0DF0: 06 80 F0 FF FF 7F F0 FF  FF 7F 30 33 30 37 45 06  ..........0307E.
0E00: 80 F0 FF FF 7F F0 FF FF  7F 30 33 30 38 07 80 2B  .........0308..+
0E10: AE B2 09 01 56 80 66 07  80 AE B2 09 01 AE B2 09  ....V.f.........
0E20: 01 74 6C 6B 30 1C 20 80  23 2B AE B2 09 01 57 80  .tlk0. .#+....W.
0E30: 23 52 06 80 F0 FF FF 7F  F0 FF FF 7F 30 33 30 38  #R..........0308
0E40: 29 10 F0 FF FF 7F 0C 02  02 10 0F 80 80 63 0E 45  )............c.E
0E50: 06 80 F0 FF FF 7F F0 FF  FF 7F 33 6D 64 30 07 80  ..........3md0..
0E60: 01 27 0F 02 02 10 17 80  80 7F 0E 45 06 80 F0 FF  .'.........E....
0E70: FF 7F F0 FF FF 7F 33 6D  64 30 07 80 01 27 0F 02  ......3md0...'..
0E80: 02 10 18 80 80 9B 0E 45  06 80 F0 FF FF 7F F0 FF  .......E........
0E90: FF 7F 33 68 69 30 07 80  01 27 0F 02 02 10 19 80  ..3hi0...'......
0EA0: 80 B7 0E 45 06 80 F0 FF  FF 7F F0 FF FF 7F 33 68  ...E..........3h
0EB0: 69 30 07 80 01 27 0F 02  02 10 1A 80 80 D3 0E 45  i0...'.........E
0EC0: 06 80 F0 FF FF 7F F0 FF  FF 7F 33 73 68 30 07 80  ..........3sh0..
0ED0: 01 27 0F 02 02 10 1B 80  80 EF 0E 45 06 80 F0 FF  .'.........E....
0EE0: FF 7F F0 FF FF 7F 33 73  68 30 07 80 01 27 0F 02  ......3sh0...'..
0EF0: 02 10 1C 80 80 0B 0F 45  06 80 F0 FF FF 7F F0 FF  .......E........
0F00: FF 7F 33 6D 64 30 07 80  01 27 0F 02 02 10 1D 80  ..3md0...'......
0F10: 80 27 0F 45 06 80 F0 FF  FF 7F F0 FF FF 7F 33 68  .'.E..........3h
0F20: 69 30 07 80 01 27 0F 6E  F0 FF FF 7F 1C 80 99 F0  i0...'.n........
0F30: FF FF 7F 66 07 80 AE B2  09 01 AE B2 09 01 74 65  ...f..........te
0F40: 6E 30 1C 20 80 27 10 AE  B2 09 01 0A 1C 20 80 01  n0. .'....... ..
0F50: 52 0F 1A 12 69 7A 00 AE  B2 09 01 52 06 80 F0 FF  R...iz.....R....
0F60: FF 7F F0 FF FF 7F 30 33  30 30 52 06 80 F0 FF FF  ......0300R.....
0F70: 7F F0 FF FF 7F 33 6D 64  30 52 06 80 F0 FF FF 7F  .....3md0R......
0F80: F0 FF FF 7F 33 68 69 30  52 06 80 F0 FF FF 7F F0  ....3hi0R.......
0F90: FF FF 7F 33 73 68 30 46  00 1C 20 80 45 21 80 F0  ...3sh0F.. .E!..
0FA0: FF FF 7F F0 FF FF 7F 66  64 69 31 07 80 21 00     .......fdi1..!. 
```

#### Opcodes

```
  0: 0x08FD [0x42] SET_CLI_EVENT_CANCEL_DATA()
  1: 0x08FE [0x1A] CALL_SUBROUTINE(address=0x6912)
  2: 0x0901 [0x46] CAMERA_CONTROL: Disable user control
  3: 0x0903 [0x38] SET_CLIENT_EVENT_MODE(mode=27*)
  4: 0x0906 [0x27] REQ_SET(priority=0x10, entity_id=Ore Door (ID: 17412707/0x0109B263), tag_num=0x04)
  5: 0x090D [0x2F] Nicolaus (ID: 17412782/0x0109B2AE)->Render.Flags0 &= ~0x80000 // Bit 19
  6: 0x0913 [0x2F] Unnamed NPC (ID: 17412792/0x0109B2B8)->Render.Flags0 &= ~0x80000 // Bit 19
  7: 0x0919 [0x2F] Unnamed NPC (ID: 17412793/0x0109B2B9)->Render.Flags0 &= ~0x80000 // Bit 19
  8: 0x091F [0x2F] Unnamed NPC (ID: 17412794/0x0109B2BA)->Render.Flags0 &= ~0x80000 // Bit 19
  9: 0x0925 [0x2F] Unnamed NPC (ID: 17412795/0x0109B2BB)->Render.Flags0 &= ~0x80000 // Bit 19
 10: 0x092B [0x2F] Unnamed NPC (ID: 17412796/0x0109B2BC)->Render.Flags0 &= ~0x80000 // Bit 19
 11: 0x0931 [0x4E] SET_ENTITY_HIDE_FLAG: Show Nicolaus (ID: 17412782/0x0109B2AE)
 12: 0x0937 [0x4E] SET_ENTITY_HIDE_FLAG: Show Unnamed NPC (ID: 17412792/0x0109B2B8)
 13: 0x093D [0x4E] SET_ENTITY_HIDE_FLAG: Show Unnamed NPC (ID: 17412793/0x0109B2B9)
 14: 0x0943 [0x4E] SET_ENTITY_HIDE_FLAG: Show Unnamed NPC (ID: 17412794/0x0109B2BA)
 15: 0x0949 [0x4E] SET_ENTITY_HIDE_FLAG: Show Unnamed NPC (ID: 17412795/0x0109B2BB)
 16: 0x094F [0x4E] SET_ENTITY_HIDE_FLAG: Show Unnamed NPC (ID: 17412796/0x0109B2BC)
 17: 0x0955 [0x92] Nicolaus (ID: 17412782/0x0109B2AE)->Render.Flags3 ^= 0x01
 18: 0x095B [0x94] LocalPlayer->Render.Flags3 ^= 0x01
 19: 0x0961 [0x94] Rikke (ID: 17412775/0x0109B2A7)->Render.Flags3 ^= 0x01
 20: 0x0967 [0x94] Nicolaus (ID: 17412782/0x0109B2AE)->Render.Flags3 ^= 0x01
 21: 0x096D [0x94] Unnamed NPC (ID: 17412792/0x0109B2B8)->Render.Flags3 ^= 0x01
 22: 0x0973 [0x94] Unnamed NPC (ID: 17412793/0x0109B2B9)->Render.Flags3 ^= 0x01
 23: 0x0979 [0x94] Unnamed NPC (ID: 17412794/0x0109B2BA)->Render.Flags3 ^= 0x01
 24: 0x097F [0x94] Unnamed NPC (ID: 17412795/0x0109B2BB)->Render.Flags3 ^= 0x01
 25: 0x0985 [0x94] Unnamed NPC (ID: 17412796/0x0109B2BC)->Render.Flags3 ^= 0x01
 26: 0x098B [0xBA] SET_ENTITY_POSITION(entity_id=LocalPlayer, pos_x=-90.120*, pos_z=88.500*, pos_y=0.601*, direction=90.6°*)
 27: 0x0998 [0xBA] SET_ENTITY_POSITION(entity_id=Nicolaus (ID: 17412782/0x0109B2AE), pos_x=-89.690*, pos_z=106.743*, pos_y=0.601*, direction=92.1°*)
 28: 0x09A5 [0xBA] SET_ENTITY_POSITION(entity_id=Unnamed NPC (ID: 17412793/0x0109B2B9), pos_x=-355.532*, pos_z=-104.517*, pos_y=-52.000*, direction=33.2°*)
 29: 0x09B2 [0xBA] SET_ENTITY_POSITION(entity_id=Unnamed NPC (ID: 17412794/0x0109B2BA), pos_x=-341.258*, pos_z=-115.937*, pos_y=-52.000*, direction=33.3°*)
 30: 0x09BF [0xBA] SET_ENTITY_POSITION(entity_id=Unnamed NPC (ID: 17412795/0x0109B2BB), pos_x=-348.274*, pos_z=-129.686*, pos_y=-51.999*, direction=294.6°*)
 31: 0x09CC [0xBA] SET_ENTITY_POSITION(entity_id=Unnamed NPC (ID: 17412796/0x0109B2BC), pos_x=-370.717*, pos_z=-133.923*, pos_y=-51.999*, direction=260.1°*)
 32: 0x09D9 [0x1C] WAIT(60* ticks)
 33: 0x09DC [0x80] LOAD_WAIT(entity=LocalPlayer)
 34: 0x09E1 [0x80] LOAD_WAIT(entity=Rikke (ID: 17412775/0x0109B2A7))
 35: 0x09E6 [0x80] LOAD_WAIT(entity=Nicolaus (ID: 17412782/0x0109B2AE))
 36: 0x09EB [0x1C] WAIT(30* ticks)
 37: 0x09EE [0x4A] LocalPlayer looks at Rikke (ID: 17412775/0x0109B2A7)
 38: 0x09F7 [0x4A] Rikke (ID: 17412775/0x0109B2A7) looks at LocalPlayer
 39: 0x0A00 [0x1C] WAIT(30* ticks)
 40: 0x0A03 [0x1C] WAIT(30* ticks)
 41: 0x0A06 [0x45] LOAD_SCHEDULED_TASK: Load scheduler "0300" with entities [LocalPlayer, LocalPlayer], work=[509*, 0*]
 42: 0x0A17 [0x1A] CALL_SUBROUTINE(address=0x68F1)
 43: 0x0A1A [0x02] IF !(Work_Zone[4] == 0*) GOTO 0x0A6F
 44: 0x0A22 [0x5B] LOAD_EXT_SCHEDULER: Load scheduler "kus0" with entities [Rikke (ID: 17412775/0x0109B2A7), Rikke (ID: 17412775/0x0109B2A7)], work=1028*
 45: 0x0A31 [0x03] Work_Zone[2] = 4145*
 46: 0x0A36 [0x2B] Rikke (ID: 17412775/0x0109B2A7) [7689*]:
    → "Well, looky who's back. And with $0, t' boot. Decided to trust ol' Rikke, did ya?"
 47: 0x0A3D [0x23] WAIT_FOR_DIALOG_INTERACTION
 48: 0x0A3E [0x2B] Rikke (ID: 17412775/0x0109B2A7) [7690*]:
    → "Listen up, then. I'll tell ya all I know about yer Klara lady. ......... And that's all I know."
 49: 0x0A45 [0x23] WAIT_FOR_DIALOG_INTERACTION
 50: 0x0A46 [0x5B] LOAD_EXT_SCHEDULER: Load scheduler "hya0" with entities [Rikke (ID: 17412775/0x0109B2A7), Rikke (ID: 17412775/0x0109B2A7)], work=1125*
 51: 0x0A55 [0x2B] Rikke (ID: 17412775/0x0109B2A7) [7691*]:
    → "You wingless ones really ain't too bright, are ya? Didn't yer mommy ever tell ya not to trust an imp?"
 52: 0x0A5C [0x23] WAIT_FOR_DIALOG_INTERACTION
 53: 0x0A5D [0x5B] LOAD_EXT_SCHEDULER: Load scheduler "hya1" with entities [Rikke (ID: 17412775/0x0109B2A7), Rikke (ID: 17412775/0x0109B2A7)], work=1125*
 54: 0x0A6C [0x01] GOTO 0x0F52
 55: 0x0A6F [0x02] IF !(Work_Zone[4] == 1*) GOTO 0x0F52
 56: 0x0A77 [0x5B] LOAD_EXT_SCHEDULER: Load scheduler "kus0" with entities [Rikke (ID: 17412775/0x0109B2A7), Rikke (ID: 17412775/0x0109B2A7)], work=1028*
 57: 0x0A86 [0x03] Work_Zone[2] = 4145*
 58: 0x0A8B [0x2B] Rikke (ID: 17412775/0x0109B2A7) [7678*]:
    → "Well, looky who's back. And with $0, t' boot. Decided to trust ol' Rikke, did ya?"
 59: 0x0A92 [0x23] WAIT_FOR_DIALOG_INTERACTION
 60: 0x0A93 [0x2B] Rikke (ID: 17412775/0x0109B2A7) [7679*]:
    → "A shrewd decision, my friend. Astute, even."
 61: 0x0A9A [0x23] WAIT_FOR_DIALOG_INTERACTION
 62: 0x0A9B [0x1A] CALL_SUBROUTINE(address=0x6912)
 63: 0x0A9E [0x1C] WAIT(180* ticks)
 64: 0x0AA1 [0x52] END_LOAD_SCHEDULER: End scheduler "0300" with entities [LocalPlayer, LocalPlayer], work=509*
 65: 0x0AB0 [0x27] REQ_SET(priority=0x10, entity_id=Unnamed NPC (ID: 17412792/0x0109B2B8), tag_num=0x05)
 66: 0x0AB7 [0x1A] CALL_SUBROUTINE(address=0x68F1)
 67: 0x0ABA [0x27] REQ_SET(priority=0x10, entity_id=Unnamed NPC (ID: 17412793/0x0109B2B9), tag_num=0x07)
 68: 0x0AC1 [0x27] REQ_SET(priority=0x10, entity_id=Unnamed NPC (ID: 17412794/0x0109B2BA), tag_num=0x07)
 69: 0x0AC8 [0x27] REQ_SET(priority=0x10, entity_id=Unnamed NPC (ID: 17412795/0x0109B2BB), tag_num=0x07)
 70: 0x0ACF [0x27] REQ_SET(priority=0x10, entity_id=Unnamed NPC (ID: 17412796/0x0109B2BC), tag_num=0x05)
 71: 0x0AD6 [0x2B] Rikke (ID: 17412775/0x0109B2A7) [7680*]:
    → "That Klara lady is lyin' low up above In a corner of the southwest chamber, like."
 72: 0x0ADD [0x23] WAIT_FOR_DIALOG_INTERACTION
 73: 0x0ADE [0x2B] Rikke (ID: 17412775/0x0109B2A7) [7681*]:
    → "I'd tell ya more, but the boss, he don't let us lackeys get too close. Not even the smart ones like yers truly."
 74: 0x0AE5 [0x23] WAIT_FOR_DIALOG_INTERACTION
 75: 0x0AE6 [0x1A] CALL_SUBROUTINE(address=0x6912)
 76: 0x0AE9 [0x7A] VM_CONTROL: Reset VM for Unnamed NPC (ID: 17412792/0x0109B2B8)
 77: 0x0AEF [0x7A] VM_CONTROL: Reset VM for Unnamed NPC (ID: 17412793/0x0109B2B9)
 78: 0x0AF5 [0x7A] VM_CONTROL: Reset VM for Unnamed NPC (ID: 17412794/0x0109B2BA)
 79: 0x0AFB [0x7A] VM_CONTROL: Reset VM for Unnamed NPC (ID: 17412795/0x0109B2BB)
 80: 0x0B01 [0x7A] VM_CONTROL: Reset VM for Unnamed NPC (ID: 17412796/0x0109B2BC)
 81: 0x0B07 [0x1C] WAIT(180* ticks)
 82: 0x0B0A [0x52] END_LOAD_SCHEDULER: End scheduler "kll0" with entities [LocalPlayer, LocalPlayer], work=509*
 83: 0x0B19 [0x52] END_LOAD_SCHEDULER: End scheduler "kll2" with entities [LocalPlayer, LocalPlayer], work=509*
 84: 0x0B28 [0x52] END_LOAD_SCHEDULER: End scheduler "kll1" with entities [LocalPlayer, LocalPlayer], work=509*
 85: 0x0B37 [0x52] END_LOAD_SCHEDULER: End scheduler "kll3" with entities [LocalPlayer, LocalPlayer], work=509*
 86: 0x0B46 [0x45] LOAD_SCHEDULED_TASK: Load scheduler "0301" with entities [LocalPlayer, LocalPlayer], work=[509*, 0*]
 87: 0x0B57 [0x1A] CALL_SUBROUTINE(address=0x68F1)
 88: 0x0B5A [0x2B] Rikke (ID: 17412775/0x0109B2A7) [7682*]:
    → "Don't blame him, though. If word got out that he was usin' a mortal for his plans, things might get all complicated-like."
 89: 0x0B61 [0x23] WAIT_FOR_DIALOG_INTERACTION
 90: 0x0B62 [0x2B] Rikke (ID: 17412775/0x0109B2A7) [7683*]:
    → "...And that's all I'm gonna say on the matter. No hard feelings, but I like my wings attached to my body, thankyaverymuch."
 91: 0x0B69 [0x23] WAIT_FOR_DIALOG_INTERACTION
 92: 0x0B6A [0x52] END_LOAD_SCHEDULER: End scheduler "0301" with entities [LocalPlayer, LocalPlayer], work=509*
 93: 0x0B79 [0x29] REQ_SET_WAIT(priority=0x10, entity_id=LocalPlayer, tag_num=0x0C)
 94: 0x0B80 [0x02] IF !(Work_Zone[2] == 1*) GOTO 0x0B9C
 95: 0x0B88 [0x45] LOAD_SCHEDULED_TASK: Load scheduler "0302" with entities [LocalPlayer, LocalPlayer], work=[509*, 0*]
 96: 0x0B99 [0x01] GOTO 0x0C60
 97: 0x0B9C [0x02] IF !(Work_Zone[2] == 2*) GOTO 0x0BB8
 98: 0x0BA4 [0x45] LOAD_SCHEDULED_TASK: Load scheduler "0302" with entities [LocalPlayer, LocalPlayer], work=[509*, 0*]
 99: 0x0BB5 [0x01] GOTO 0x0C60
100: 0x0BB8 [0x02] IF !(Work_Zone[2] == 3*) GOTO 0x0BD4
101: 0x0BC0 [0x45] LOAD_SCHEDULED_TASK: Load scheduler "0304" with entities [LocalPlayer, LocalPlayer], work=[509*, 0*]
102: 0x0BD1 [0x01] GOTO 0x0C60
103: 0x0BD4 [0x02] IF !(Work_Zone[2] == 4*) GOTO 0x0BF0
104: 0x0BDC [0x45] LOAD_SCHEDULED_TASK: Load scheduler "0304" with entities [LocalPlayer, LocalPlayer], work=[509*, 0*]
105: 0x0BED [0x01] GOTO 0x0C60
106: 0x0BF0 [0x02] IF !(Work_Zone[2] == 5*) GOTO 0x0C0C
107: 0x0BF8 [0x45] LOAD_SCHEDULED_TASK: Load scheduler "0303" with entities [LocalPlayer, LocalPlayer], work=[509*, 0*]
108: 0x0C09 [0x01] GOTO 0x0C60
109: 0x0C0C [0x02] IF !(Work_Zone[2] == 6*) GOTO 0x0C28
110: 0x0C14 [0x45] LOAD_SCHEDULED_TASK: Load scheduler "0303" with entities [LocalPlayer, LocalPlayer], work=[509*, 0*]
111: 0x0C25 [0x01] GOTO 0x0C60
112: 0x0C28 [0x02] IF !(Work_Zone[2] == 7*) GOTO 0x0C44
113: 0x0C30 [0x45] LOAD_SCHEDULED_TASK: Load scheduler "0302" with entities [LocalPlayer, LocalPlayer], work=[509*, 0*]
114: 0x0C41 [0x01] GOTO 0x0C60
115: 0x0C44 [0x02] IF !(Work_Zone[2] == 8*) GOTO 0x0C60
116: 0x0C4C [0x45] LOAD_SCHEDULED_TASK: Load scheduler "0304" with entities [LocalPlayer, LocalPlayer], work=[509*, 0*]
117: 0x0C5D [0x01] GOTO 0x0C60

SUBROUTINE_0C60:
118: 0x0C60 [0x27] REQ_SET(priority=0x10, entity_id=Ore Door (ID: 17412707/0x0109B263), tag_num=0x03)
119: 0x0C67 [0x1C] WAIT(60* ticks)
120: 0x0C6A [0x4A] LocalPlayer looks at Nicolaus (ID: 17412782/0x0109B2AE)
121: 0x0C73 [0x1C] WAIT(30* ticks)
122: 0x0C76 [0x27] REQ_SET(priority=0x10, entity_id=Nicolaus (ID: 17412782/0x0109B2AE), tag_num=0x09)
123: 0x0C7D [0x1C] WAIT(120* ticks)
124: 0x0C80 [0x52] END_LOAD_SCHEDULER: End scheduler "0302" with entities [LocalPlayer, LocalPlayer], work=509*
125: 0x0C8F [0x52] END_LOAD_SCHEDULER: End scheduler "0303" with entities [LocalPlayer, LocalPlayer], work=509*
126: 0x0C9E [0x52] END_LOAD_SCHEDULER: End scheduler "0304" with entities [LocalPlayer, LocalPlayer], work=509*
127: 0x0CAD [0x45] LOAD_SCHEDULED_TASK: Load scheduler "0305" with entities [LocalPlayer, LocalPlayer], work=[509*, 0*]
128: 0x0CBE [0x2B] Nicolaus (ID: 17412782/0x0109B2AE) [7684*]:
    → "<Player>! Did you truly get one of those shifty little fiends to talk?"
129: 0x0CC5 [0x1C] WAIT(120* ticks)
130: 0x0CC8 [0x27] REQ_SET(priority=0x10, entity_id=Ore Door (ID: 17412707/0x0109B263), tag_num=0x04)
131: 0x0CCF [0x2A] GET_REQ_LEVEL(level=16, entity_id=Nicolaus (ID: 17412782/0x0109B2AE))
132: 0x0CD5 [0x23] WAIT_FOR_DIALOG_INTERACTION
133: 0x0CD6 [0x52] END_LOAD_SCHEDULER: End scheduler "0305" with entities [LocalPlayer, LocalPlayer], work=509*
134: 0x0CE5 [0x29] REQ_SET_WAIT(priority=0x10, entity_id=LocalPlayer, tag_num=0x0C)
135: 0x0CEC [0x02] IF !(Work_Zone[2] == 1*) GOTO 0x0D08
136: 0x0CF4 [0x45] LOAD_SCHEDULED_TASK: Load scheduler "0306" with entities [LocalPlayer, LocalPlayer], work=[509*, 0*]
137: 0x0D05 [0x01] GOTO 0x0DCC
138: 0x0D08 [0x02] IF !(Work_Zone[2] == 2*) GOTO 0x0D24
139: 0x0D10 [0x45] LOAD_SCHEDULED_TASK: Load scheduler "0306" with entities [LocalPlayer, LocalPlayer], work=[509*, 0*]
140: 0x0D21 [0x01] GOTO 0x0DCC
141: 0x0D24 [0x02] IF !(Work_Zone[2] == 3*) GOTO 0x0D40
142: 0x0D2C [0x45] LOAD_SCHEDULED_TASK: Load scheduler "0306" with entities [LocalPlayer, LocalPlayer], work=[509*, 0*]
143: 0x0D3D [0x01] GOTO 0x0DCC
144: 0x0D40 [0x02] IF !(Work_Zone[2] == 4*) GOTO 0x0D5C
145: 0x0D48 [0x45] LOAD_SCHEDULED_TASK: Load scheduler "0306" with entities [LocalPlayer, LocalPlayer], work=[509*, 0*]
146: 0x0D59 [0x01] GOTO 0x0DCC
147: 0x0D5C [0x02] IF !(Work_Zone[2] == 5*) GOTO 0x0D78
148: 0x0D64 [0x45] LOAD_SCHEDULED_TASK: Load scheduler "0307" with entities [LocalPlayer, LocalPlayer], work=[509*, 0*]
149: 0x0D75 [0x01] GOTO 0x0DCC
150: 0x0D78 [0x02] IF !(Work_Zone[2] == 6*) GOTO 0x0D94
151: 0x0D80 [0x45] LOAD_SCHEDULED_TASK: Load scheduler "0307" with entities [LocalPlayer, LocalPlayer], work=[509*, 0*]
152: 0x0D91 [0x01] GOTO 0x0DCC
153: 0x0D94 [0x02] IF !(Work_Zone[2] == 7*) GOTO 0x0DB0
154: 0x0D9C [0x45] LOAD_SCHEDULED_TASK: Load scheduler "0307" with entities [LocalPlayer, LocalPlayer], work=[509*, 0*]
155: 0x0DAD [0x01] GOTO 0x0DCC
156: 0x0DB0 [0x02] IF !(Work_Zone[2] == 8*) GOTO 0x0DCC
157: 0x0DB8 [0x45] LOAD_SCHEDULED_TASK: Load scheduler "0306" with entities [LocalPlayer, LocalPlayer], work=[509*, 0*]
158: 0x0DC9 [0x01] GOTO 0x0DCC

SUBROUTINE_0DCC:
159: 0x0DCC [0x27] REQ_SET(priority=0x10, entity_id=LocalPlayer, tag_num=0x10)
160: 0x0DD3 [0x1C] WAIT(180* ticks)
161: 0x0DD6 [0x27] REQ_SET(priority=0x10, entity_id=LocalPlayer, tag_num=0x11)
162: 0x0DDD [0x1C] WAIT(60* ticks)
163: 0x0DE0 [0x52] END_LOAD_SCHEDULER: End scheduler "0306" with entities [LocalPlayer, LocalPlayer], work=509*
164: 0x0DEF [0x52] END_LOAD_SCHEDULER: End scheduler "0307" with entities [LocalPlayer, LocalPlayer], work=509*
165: 0x0DFE [0x45] LOAD_SCHEDULED_TASK: Load scheduler "0308" with entities [LocalPlayer, LocalPlayer], work=[509*, 0*]
166: 0x0E0F [0x2B] Nicolaus (ID: 17412782/0x0109B2AE) [7685*]:
    → "I bow to your superior interrogation skills. At any rate, we mustn't delay."
167: 0x0E16 [0x66] LOAD_EXT_SCHEDULER_MAIN: Load scheduler "tlk0" with entities [Nicolaus (ID: 17412782/0x0109B2AE), Nicolaus (ID: 17412782/0x0109B2AE)], work=0*
168: 0x0E25 [0x1C] WAIT(60* ticks)
169: 0x0E28 [0x23] WAIT_FOR_DIALOG_INTERACTION
170: 0x0E29 [0x2B] Nicolaus (ID: 17412782/0x0109B2AE) [7686*]:
    → "I'll round up Volker and the others. We rendezvous at the location of which the imp spoke. Be safe, <Player>!"
171: 0x0E30 [0x23] WAIT_FOR_DIALOG_INTERACTION
172: 0x0E31 [0x52] END_LOAD_SCHEDULER: End scheduler "0308" with entities [LocalPlayer, LocalPlayer], work=509*
173: 0x0E40 [0x29] REQ_SET_WAIT(priority=0x10, entity_id=LocalPlayer, tag_num=0x0C)
174: 0x0E47 [0x02] IF !(Work_Zone[2] == 1*) GOTO 0x0E63
175: 0x0E4F [0x45] LOAD_SCHEDULED_TASK: Load scheduler "3md0" with entities [LocalPlayer, LocalPlayer], work=[509*, 0*]
176: 0x0E60 [0x01] GOTO 0x0F27
177: 0x0E63 [0x02] IF !(Work_Zone[2] == 2*) GOTO 0x0E7F
178: 0x0E6B [0x45] LOAD_SCHEDULED_TASK: Load scheduler "3md0" with entities [LocalPlayer, LocalPlayer], work=[509*, 0*]
179: 0x0E7C [0x01] GOTO 0x0F27
180: 0x0E7F [0x02] IF !(Work_Zone[2] == 3*) GOTO 0x0E9B
181: 0x0E87 [0x45] LOAD_SCHEDULED_TASK: Load scheduler "3hi0" with entities [LocalPlayer, LocalPlayer], work=[509*, 0*]
182: 0x0E98 [0x01] GOTO 0x0F27
183: 0x0E9B [0x02] IF !(Work_Zone[2] == 4*) GOTO 0x0EB7
184: 0x0EA3 [0x45] LOAD_SCHEDULED_TASK: Load scheduler "3hi0" with entities [LocalPlayer, LocalPlayer], work=[509*, 0*]
185: 0x0EB4 [0x01] GOTO 0x0F27
186: 0x0EB7 [0x02] IF !(Work_Zone[2] == 5*) GOTO 0x0ED3
187: 0x0EBF [0x45] LOAD_SCHEDULED_TASK: Load scheduler "3sh0" with entities [LocalPlayer, LocalPlayer], work=[509*, 0*]
188: 0x0ED0 [0x01] GOTO 0x0F27
189: 0x0ED3 [0x02] IF !(Work_Zone[2] == 6*) GOTO 0x0EEF
190: 0x0EDB [0x45] LOAD_SCHEDULED_TASK: Load scheduler "3sh0" with entities [LocalPlayer, LocalPlayer], work=[509*, 0*]
191: 0x0EEC [0x01] GOTO 0x0F27
192: 0x0EEF [0x02] IF !(Work_Zone[2] == 7*) GOTO 0x0F0B
193: 0x0EF7 [0x45] LOAD_SCHEDULED_TASK: Load scheduler "3md0" with entities [LocalPlayer, LocalPlayer], work=[509*, 0*]
194: 0x0F08 [0x01] GOTO 0x0F27
195: 0x0F0B [0x02] IF !(Work_Zone[2] == 8*) GOTO 0x0F27
196: 0x0F13 [0x45] LOAD_SCHEDULED_TASK: Load scheduler "3hi0" with entities [LocalPlayer, LocalPlayer], work=[509*, 0*]
197: 0x0F24 [0x01] GOTO 0x0F27

SUBROUTINE_0F27:
198: 0x0F27 [0x6E] LocalPlayer uses emote 7*
199: 0x0F2E [0x99] Wait for LocalPlayer animation to complete
200: 0x0F33 [0x66] LOAD_EXT_SCHEDULER_MAIN: Load scheduler "ten0" with entities [Nicolaus (ID: 17412782/0x0109B2AE), Nicolaus (ID: 17412782/0x0109B2AE)], work=0*
201: 0x0F42 [0x1C] WAIT(60* ticks)
202: 0x0F45 [0x27] REQ_SET(priority=0x10, entity_id=Nicolaus (ID: 17412782/0x0109B2AE), tag_num=0x0A)
203: 0x0F4C [0x1C] WAIT(60* ticks)
204: 0x0F4F [0x01] GOTO 0x0F52

SUBROUTINE_0F52:
205: 0x0F52 [0x1A] CALL_SUBROUTINE(address=0x6912)
206: 0x0F55 [0x7A] VM_CONTROL: Reset VM for Nicolaus (ID: 17412782/0x0109B2AE)
207: 0x0F5B [0x52] END_LOAD_SCHEDULER: End scheduler "0300" with entities [LocalPlayer, LocalPlayer], work=509*
208: 0x0F6A [0x52] END_LOAD_SCHEDULER: End scheduler "3md0" with entities [LocalPlayer, LocalPlayer], work=509*
209: 0x0F79 [0x52] END_LOAD_SCHEDULER: End scheduler "3hi0" with entities [LocalPlayer, LocalPlayer], work=509*
210: 0x0F88 [0x52] END_LOAD_SCHEDULER: End scheduler "3sh0" with entities [LocalPlayer, LocalPlayer], work=509*
211: 0x0F97 [0x46] CAMERA_CONTROL: Restore default settings
212: 0x0F99 [0x1C] WAIT(60* ticks)
213: 0x0F9C [0x45] LOAD_SCHEDULED_TASK: Load scheduler "fdi1" with entities [LocalPlayer, LocalPlayer], work=[200*, 0*]
214: 0x0FAD [0x21] END_EVENT
215: 0x0FAE [0x00] END_REQSTACK()
```

### Event 13

#### Metadata

| Field        | Value      |
|--------------|------------|
| Entrypoint   | 0x0FAF     |
| Data Size    | 1149 bytes |
| Instructions | 158        |

```
      00 01 02 03 04 05 06 07  08 09 0A 0B 0C 0D 0E 0F
      -- -- -- -- -- -- -- --  -- -- -- -- -- -- -- --
0FA0:                                               42                 B
0FB0: 1A 12 69 46 01 38 00 80  27 10 7B B2 09 01 04 2F  ..iF.8..'.{..../
0FC0: 00 AE B2 09 01 2F 00 B8  B2 09 01 2F 00 B9 B2 09  ...../...../....
0FD0: 01 2F 00 BA B2 09 01 2F  00 BB B2 09 01 2F 00 BC  ./...../...../..
0FE0: B2 09 01 4E 00 AE B2 09  01 4E 00 B8 B2 09 01 4E  ...N.....N.....N
0FF0: 00 B9 B2 09 01 4E 00 BA  B2 09 01 4E 00 BB B2 09  .....N.....N....
1000: 01 4E 00 BC B2 09 01 92  01 AE B2 09 01 94 01 F0  .N..............
1010: FF FF 7F 94 01 A8 B2 09  01 94 01 AE B2 09 01 94  ................
1020: 01 B8 B2 09 01 94 01 B9  B2 09 01 94 01 BA B2 09  ................
1030: 01 94 01 BB B2 09 01 94  01 BC B2 09 01 BA F0 FF  ................
1040: FF 7F 22 80 23 80 03 80  24 80 BA AE B2 09 01 58  ..".#...$......X
1050: 80 59 80 07 80 5A 80 BA  B9 B2 09 01 3E 80 3F 80  .Y...Z......>.?.
1060: 40 80 41 80 BA BA B2 09  01 42 80 43 80 40 80 44  @.A......B.C.@.D
1070: 80 BA BB B2 09 01 45 80  46 80 47 80 48 80 BA BC  ......E.F.G.H...
1080: B2 09 01 49 80 4A 80 47  80 4B 80 1C 05 80 80 F0  ...I.J.G.K......
1090: FF FF 7F 80 A8 B2 09 01  80 AE B2 09 01 1C 20 80  .............. .
10A0: 4A F0 FF FF 7F A8 B2 09  01 4A A8 B2 09 01 F0 FF  J........J......
10B0: FF 7F 1C 05 80 1C 05 80  45 06 80 F0 FF FF 7F F0  ........E.......
10C0: FF FF 7F 30 34 30 30 07  80 1A F1 68 02 04 10 07  ...0400....h....
10D0: 80 80 03 11 03 02 10 0E  80 2B A8 B2 09 01 5B 80  .........+....[.
10E0: 23 2B A8 B2 09 01 5C 80  23 5B 1E 80 A8 B2 09 01  #+....\.#[......
10F0: A8 B2 09 01 6B 75 73 30  2B A8 B2 09 01 5D 80 23  ....kus0+....].#
1100: 01 ED 13 02 04 10 0F 80  80 ED 13 03 02 10 0E 80  ................
1110: 2B A8 B2 09 01 5E 80 23  2B A8 B2 09 01 5F 80 23  +....^.#+...._.#
1120: 1A 12 69 1C 09 80 52 06  80 F0 FF FF 7F F0 FF FF  ..i...R.........
1130: 7F 30 34 30 30 27 10 B8  B2 09 01 05 1A F1 68 27  .0400'........h'
1140: 10 B9 B2 09 01 07 27 10  BA B2 09 01 07 27 10 BB  ......'......'..
1150: B2 09 01 07 27 10 BC B2  09 01 05 2B A8 B2 09 01  ....'......+....
1160: 60 80 23 2B A8 B2 09 01  61 80 23 2B A8 B2 09 01  `.#+....a.#+....
1170: 62 80 23 1A 12 69 7A 00  B8 B2 09 01 7A 00 B9 B2  b.#..iz.....z...
1180: 09 01 7A 00 BA B2 09 01  7A 00 BB B2 09 01 7A 00  ..z.....z.....z.
1190: BC B2 09 01 1C 09 80 52  06 80 F0 FF FF 7F F0 FF  .......R........
11A0: FF 7F 6B 6C 6C 30 52 06  80 F0 FF FF 7F F0 FF FF  ..kll0R.........
11B0: 7F 6B 6C 6C 31 52 06 80  F0 FF FF 7F F0 FF FF 7F  .kll1R..........
11C0: 6B 6C 6C 32 52 06 80 F0  FF FF 7F F0 FF FF 7F 6B  kll2R..........k
11D0: 6C 6C 33 45 06 80 F0 FF  FF 7F F0 FF FF 7F 30 34  ll3E..........04
11E0: 30 31 07 80 1A F1 68 2B  A8 B2 09 01 63 80 23 27  01....h+....c.#'
11F0: 10 7B B2 09 01 03 52 06  80 F0 FF FF 7F F0 FF FF  .{....R.........
1200: 7F 30 34 30 31 45 06 80  F0 FF FF 7F F0 FF FF 7F  .0401E..........
1210: 30 34 30 32 07 80 1C 34  80 27 10 AE B2 09 01 0B  0402...4.'......
1220: 1C 0D 80 52 06 80 F0 FF  FF 7F F0 FF FF 7F 30 34  ...R..........04
1230: 30 32 29 10 F0 FF FF 7F  0C 02 02 10 0F 80 80 55  02)............U
1240: 12 45 06 80 F0 FF FF 7F  F0 FF FF 7F 30 34 30 34  .E..........0404
1250: 07 80 01 19 13 02 02 10  17 80 80 71 12 45 06 80  ...........q.E..
1260: F0 FF FF 7F F0 FF FF 7F  30 34 30 34 07 80 01 19  ........0404....
1270: 13 02 02 10 18 80 80 8D  12 45 06 80 F0 FF FF 7F  .........E......
1280: F0 FF FF 7F 30 34 30 35  07 80 01 19 13 02 02 10  ....0405........
1290: 19 80 80 A9 12 45 06 80  F0 FF FF 7F F0 FF FF 7F  .....E..........
12A0: 30 34 30 35 07 80 01 19  13 02 02 10 1A 80 80 C5  0405............
12B0: 12 45 06 80 F0 FF FF 7F  F0 FF FF 7F 30 34 30 33  .E..........0403
12C0: 07 80 01 19 13 02 02 10  1B 80 80 E1 12 45 06 80  .............E..
12D0: F0 FF FF 7F F0 FF FF 7F  30 34 30 33 07 80 01 19  ........0403....
12E0: 13 02 02 10 1C 80 80 FD  12 45 06 80 F0 FF FF 7F  .........E......
12F0: F0 FF FF 7F 30 34 30 34  07 80 01 19 13 02 02 10  ....0404........
1300: 1D 80 80 19 13 45 06 80  F0 FF FF 7F F0 FF FF 7F  .....E..........
1310: 30 34 30 35 07 80 01 19  13 4A F0 FF FF 7F AE B2  0405.....J......
1320: 09 01 2B AE B2 09 01 55  80 1C 0D 80 27 10 7B B2  ..+....U....'.{.
1330: 09 01 04 2A 10 AE B2 09  01 23 27 10 F0 FF FF 7F  ...*.....#'.....
1340: 10 1C 09 80 27 10 F0 FF  FF 7F 11 1C 20 80 52 06  ....'....... .R.
1350: 80 F0 FF FF 7F F0 FF FF  7F 30 34 30 33 52 06 80  .........0403R..
1360: F0 FF FF 7F F0 FF FF 7F  30 34 30 34 52 06 80 F0  ........0404R...
1370: FF FF 7F F0 FF FF 7F 30  34 30 35 45 06 80 F0 FF  .......0405E....
1380: FF 7F F0 FF FF 7F 30 34  30 36 07 80 2B AE B2 09  ......0406..+...
1390: 01 56 80 7B AE B2 09 01  66 64 80 AE B2 09 01 AE  .V.{....fd......
13A0: B2 09 01 79 65 73 30 1C  0D 80 79 00 AE B2 09 01  ...yes0...y.....
13B0: F0 FF FF 7F 23 2B AE B2  09 01 57 80 23 52 06 80  ....#+....W.#R..
13C0: F0 FF FF 7F F0 FF FF 7F  30 34 30 36 45 06 80 F0  ........0406E...
13D0: FF FF 7F F0 FF FF 7F 30  34 30 37 07 80 1C 05 80  .......0407.....
13E0: 27 10 AE B2 09 01 0C 1C  20 80 01 ED 13 1A 12 69  '....... ......i
13F0: 7A 00 AE B2 09 01 52 06  80 F0 FF FF 7F F0 FF FF  z.....R.........
1400: 7F 30 34 30 30 52 06 80  F0 FF FF 7F F0 FF FF 7F  .0400R..........
1410: 30 34 30 37 46 00 1C 20  80 45 21 80 F0 FF FF 7F  0407F.. .E!.....
1420: F0 FF FF 7F 66 64 69 31  07 80 21 00              ....fdi1..!.    
```

#### Opcodes

```
  0: 0x0FAF [0x42] SET_CLI_EVENT_CANCEL_DATA()
  1: 0x0FB0 [0x1A] CALL_SUBROUTINE(address=0x6912)
  2: 0x0FB3 [0x46] CAMERA_CONTROL: Disable user control
  3: 0x0FB5 [0x38] SET_CLIENT_EVENT_MODE(mode=27*)
  4: 0x0FB8 [0x27] REQ_SET(priority=0x10, entity_id=Ore Door (ID: 17412731/0x0109B27B), tag_num=0x04)
  5: 0x0FBF [0x2F] Nicolaus (ID: 17412782/0x0109B2AE)->Render.Flags0 &= ~0x80000 // Bit 19
  6: 0x0FC5 [0x2F] Unnamed NPC (ID: 17412792/0x0109B2B8)->Render.Flags0 &= ~0x80000 // Bit 19
  7: 0x0FCB [0x2F] Unnamed NPC (ID: 17412793/0x0109B2B9)->Render.Flags0 &= ~0x80000 // Bit 19
  8: 0x0FD1 [0x2F] Unnamed NPC (ID: 17412794/0x0109B2BA)->Render.Flags0 &= ~0x80000 // Bit 19
  9: 0x0FD7 [0x2F] Unnamed NPC (ID: 17412795/0x0109B2BB)->Render.Flags0 &= ~0x80000 // Bit 19
 10: 0x0FDD [0x2F] Unnamed NPC (ID: 17412796/0x0109B2BC)->Render.Flags0 &= ~0x80000 // Bit 19
 11: 0x0FE3 [0x4E] SET_ENTITY_HIDE_FLAG: Show Nicolaus (ID: 17412782/0x0109B2AE)
 12: 0x0FE9 [0x4E] SET_ENTITY_HIDE_FLAG: Show Unnamed NPC (ID: 17412792/0x0109B2B8)
