# 17412776 - Rakke

## Common Data

| Field            | Value                           |
|------------------|---------------------------------|
| Zone             | Castle Zvahl Keep [S] (ID: 155) |
| Block Size       | 320 bytes                       |
| Total Events     | 7                               |
| References Count | 15                              |

## List of Events

| Event ID              | Entrypoint   |   Size |   Instructions |
|-----------------------|--------------|--------|----------------|
| [65535](#event-65535) | 0x0000       |      1 |              1 |
| [29](#event-29)       | 0x0001       |     66 |             14 |
| [10](#event-10)       | 0x0043       |      7 |              2 |
| [20](#event-20)       | 0x004A       |     70 |             19 |
| [13](#event-13)       | 0x0090       |      7 |              2 |
| [23](#event-23)       | 0x0097       |     33 |             12 |
| [26](#event-26)       | 0x00B8       |     29 |             10 |

## DAT References (imed_data)

|   Index | Hex Value   |   Dec Value |
|---------|-------------|-------------|
|       0 | 0x00EB      |         235 |
|       1 | 0x0000      |           0 |
|       2 | 0x1E29      |        7721 |
|       3 | 0x003C      |          60 |
|       4 | 0x1E2A      |        7722 |
|       5 | 0x001E      |          30 |
|       6 | 0x1DF2      |        7666 |
|       7 | 0x0001      |           1 |
|       8 | 0x0002      |           2 |
|       9 | 0x1DF0      |        7664 |
|      10 | 0x1E14      |        7700 |
|      11 | 0x1E15      |        7701 |
|      12 | 0x1E18      |        7704 |
|      13 | 0x1E19      |        7705 |
|      14 | 0x1E1A      |        7706 |

## String References

- **7664**: My buddy to the [southeast/northwest/north/west] talks the talk, but he couldn't tell the truth if his life depended on it.
- **7666**: If you don't trust me, go see my friend to the [east/north] of here. He's as honest as they come.
- **7700**: That woman you were looking for? Yeah, I saw her in the southwest chamber up above. Or somewhere around there.
- **7701**: But didn't I already tell you that? Gee, my head hurts...
- **7704**: What, you actually thought I'd tell you where the woman is? Maybe I would, if I knew...or cared. Now scram.
- **7705**: Oh, so one of the others helped you. That's just great. Wonderful. Bully for you.
- **7706**: Back to beg for my help, are you? You must have confused me with someone who cares...
- **7721**: ...
- **7722**: Sleeping on the job? Perish the thought! I was just, uh, lulling the enemy into a false sense of security. Yeah, that's the ticket...

## Events

### Event 65535

#### Metadata

| Field        | Value   |
|--------------|---------|
| Entrypoint   | 0x0000  |
| Data Size    | 1 bytes |
| Instructions | 1       |

```
      00 01 02 03 04 05 06 07  08 09 0A 0B 0C 0D 0E 0F
      -- -- -- -- -- -- -- --  -- -- -- -- -- -- -- --
0000: 00                                                .               
```

#### Opcodes

```
  0: 0x0000 [0x00] END_REQSTACK()
```

### Event 29

#### Metadata

| Field        | Value    |
|--------------|----------|
| Entrypoint   | 0x0001   |
| Data Size    | 66 bytes |
| Instructions | 14       |

```
      00 01 02 03 04 05 06 07  08 09 0A 0B 0C 0D 0E 0F
      -- -- -- -- -- -- -- --  -- -- -- -- -- -- -- --
0000:    42 9F 00 80 F8 FF FF  7F F8 FF FF 7F 73 74 72   B...........str
0010: 30 01 80 7C 00 F8 FF FF  7F 1D 02 80 23 7C 01 F8  0..|........#|..
0020: FF FF 7F 9F 00 80 F8 FF  FF 7F F8 FF FF 7F 73 74  ..............st
0030: 6F 70 01 80 2E 1C 03 80  1E F0 FF FF 7F 1D 04 80  op..............
0040: 23 21 00                                          #!.             
```

#### Opcodes

```
  0: 0x0001 [0x42] SET_CLI_EVENT_CANCEL_DATA()
  1: 0x0002 [0x9F] LOAD_SCHEDULED_TASK_ALT: Load scheduler "str0" with entities [EventEntity, EventEntity], work=[235*, 0*]
  2: 0x0013 [0x7C] EventEntity->Render.Flags2 |= 0x00
  3: 0x0019 [0x1D] PRINT_EVENT_MESSAGE(message_id=7721*)
    → "..."
  4: 0x001C [0x23] WAIT_FOR_DIALOG_INTERACTION
  5: 0x001D [0x7C] EventEntity->Render.Flags2 |= 0x01
  6: 0x0023 [0x9F] LOAD_SCHEDULED_TASK_ALT: Load scheduler "stop" with entities [EventEntity, EventEntity], work=[235*, 0*]
  7: 0x0034 [0x2E] SET_CLI_EVENT_CANCEL_FLAGS()
  8: 0x0035 [0x1C] WAIT(60* ticks)
  9: 0x0038 [0x1E] EventEntity looks at LocalPlayer and starts talking
 10: 0x003D [0x1D] PRINT_EVENT_MESSAGE(message_id=7722*)
    → "Sleeping on the job? Perish the thought! I was just, uh, lulling the enemy into a false sense of security. Yeah, that's the ticket..."
 11: 0x0040 [0x23] WAIT_FOR_DIALOG_INTERACTION
 12: 0x0041 [0x21] END_EVENT
 13: 0x0042 [0x00] END_REQSTACK()
```

### Event 10

#### Metadata

| Field        | Value   |
|--------------|---------|
| Entrypoint   | 0x0043  |
| Data Size    | 7 bytes |
| Instructions | 2       |

```
      00 01 02 03 04 05 06 07  08 09 0A 0B 0C 0D 0E 0F
      -- -- -- -- -- -- -- --  -- -- -- -- -- -- -- --
0040:          92 01 F8 FF FF  7F 00                       .......      
```

#### Opcodes

```
  0: 0x0043 [0x92] EventEntity->Render.Flags3 ^= 0x01
  1: 0x0049 [0x00] END_REQSTACK()
```

### Event 20

#### Metadata

| Field        | Value    |
|--------------|----------|
| Entrypoint   | 0x004A   |
| Data Size    | 70 bytes |
| Instructions | 19       |

```
      00 01 02 03 04 05 06 07  08 09 0A 0B 0C 0D 0E 0F
      -- -- -- -- -- -- -- --  -- -- -- -- -- -- -- --
0040:                                1E F0 FF FF 7F 1C            ......
0050: 05 80 02 04 10 01 80 80  66 00 03 02 10 01 80 1D  ........f.......
0060: 06 80 23 01 8E 00 02 04  10 07 80 80 7A 00 03 02  ..#.........z...
0070: 10 08 80 1D 09 80 23 01  8E 00 02 04 10 08 80 80  ......#.........
0080: 8E 00 03 02 10 07 80 1D  06 80 23 01 8E 00 21 00  ..........#...!.
```

#### Opcodes

```
  0: 0x004A [0x1E] EventEntity looks at LocalPlayer and starts talking
  1: 0x004F [0x1C] WAIT(30* ticks)
  2: 0x0052 [0x02] IF !(Work_Zone[4] == 0*) GOTO 0x0066
  3: 0x005A [0x03] Work_Zone[2] = 0*
  4: 0x005F [0x1D] PRINT_EVENT_MESSAGE(message_id=7666*)
    → "If you don't trust me, go see my friend to the [east/north] of here. He's as honest as they come."
  5: 0x0062 [0x23] WAIT_FOR_DIALOG_INTERACTION
  6: 0x0063 [0x01] GOTO 0x008E
  7: 0x0066 [0x02] IF !(Work_Zone[4] == 1*) GOTO 0x007A
  8: 0x006E [0x03] Work_Zone[2] = 2*
  9: 0x0073 [0x1D] PRINT_EVENT_MESSAGE(message_id=7664*)
    → "My buddy to the [southeast/northwest/north/west] talks the talk, but he couldn't tell the truth if his life depended on it."
 10: 0x0076 [0x23] WAIT_FOR_DIALOG_INTERACTION
 11: 0x0077 [0x01] GOTO 0x008E
 12: 0x007A [0x02] IF !(Work_Zone[4] == 2*) GOTO 0x008E
 13: 0x0082 [0x03] Work_Zone[2] = 1*
 14: 0x0087 [0x1D] PRINT_EVENT_MESSAGE(message_id=7666*)
    → "If you don't trust me, go see my friend to the [east/north] of here. He's as honest as they come."
 15: 0x008A [0x23] WAIT_FOR_DIALOG_INTERACTION
 16: 0x008B [0x01] GOTO 0x008E

SUBROUTINE_008E:
 17: 0x008E [0x21] END_EVENT
 18: 0x008F [0x00] END_REQSTACK()
```

### Event 13

#### Metadata

| Field        | Value   |
|--------------|---------|
| Entrypoint   | 0x0090  |
| Data Size    | 7 bytes |
| Instructions | 2       |

```
      00 01 02 03 04 05 06 07  08 09 0A 0B 0C 0D 0E 0F
      -- -- -- -- -- -- -- --  -- -- -- -- -- -- -- --
0090: 92 01 F8 FF FF 7F 00                              .......         
```

#### Opcodes

```
  0: 0x0090 [0x92] EventEntity->Render.Flags3 ^= 0x01
  1: 0x0096 [0x00] END_REQSTACK()
```

### Event 23

#### Metadata

| Field        | Value    |
|--------------|----------|
| Entrypoint   | 0x0097   |
| Data Size    | 33 bytes |
| Instructions | 12       |

```
      00 01 02 03 04 05 06 07  08 09 0A 0B 0C 0D 0E 0F
      -- -- -- -- -- -- -- --  -- -- -- -- -- -- -- --
0090:                      1E  F0 FF FF 7F 1C 05 80 02         .........
00A0: 04 10 07 80 00 B2 00 1D  0A 80 23 1D 0B 80 23 01  ..........#...#.
00B0: B6 00 1D 0C 80 23 21 00                           .....#!.        
```

#### Opcodes

```
  0: 0x0097 [0x1E] EventEntity looks at LocalPlayer and starts talking
  1: 0x009C [0x1C] WAIT(30* ticks)
  2: 0x009F [0x02] IF !(Work_Zone[4] == 1*) GOTO 0x00B2
  3: 0x00A7 [0x1D] PRINT_EVENT_MESSAGE(message_id=7700*)
    → "That woman you were looking for? Yeah, I saw her in the southwest chamber up above. Or somewhere around there."
  4: 0x00AA [0x23] WAIT_FOR_DIALOG_INTERACTION
  5: 0x00AB [0x1D] PRINT_EVENT_MESSAGE(message_id=7701*)
    → "But didn't I already tell you that? Gee, my head hurts..."
  6: 0x00AE [0x23] WAIT_FOR_DIALOG_INTERACTION
  7: 0x00AF [0x01] GOTO 0x00B6
  8: 0x00B2 [0x1D] PRINT_EVENT_MESSAGE(message_id=7704*)
    → "What, you actually thought I'd tell you where the woman is? Maybe I would, if I knew...or cared. Now scram."
  9: 0x00B5 [0x23] WAIT_FOR_DIALOG_INTERACTION

SUBROUTINE_00B6:
 10: 0x00B6 [0x21] END_EVENT
 11: 0x00B7 [0x00] END_REQSTACK()
```

### Event 26

#### Metadata

| Field        | Value    |
|--------------|----------|
| Entrypoint   | 0x00B8   |
| Data Size    | 29 bytes |
| Instructions | 10       |

```
      00 01 02 03 04 05 06 07  08 09 0A 0B 0C 0D 0E 0F
      -- -- -- -- -- -- -- --  -- -- -- -- -- -- -- --
00B0:                          1E F0 FF FF 7F 1C 05 80          ........
00C0: 02 02 10 07 80 00 CF 00  1D 0D 80 23 01 D3 00 1D  ...........#....
00D0: 0E 80 23 21 00                                    ..#!.           
```

#### Opcodes

```
  0: 0x00B8 [0x1E] EventEntity looks at LocalPlayer and starts talking
  1: 0x00BD [0x1C] WAIT(30* ticks)
  2: 0x00C0 [0x02] IF !(Work_Zone[2] == 1*) GOTO 0x00CF
  3: 0x00C8 [0x1D] PRINT_EVENT_MESSAGE(message_id=7705*)
    → "Oh, so one of the others helped you. That's just great. Wonderful. Bully for you."
  4: 0x00CB [0x23] WAIT_FOR_DIALOG_INTERACTION
  5: 0x00CC [0x01] GOTO 0x00D3
  6: 0x00CF [0x1D] PRINT_EVENT_MESSAGE(message_id=7706*)
    → "Back to beg for my help, are you? You must have confused me with someone who cares..."
  7: 0x00D2 [0x23] WAIT_FOR_DIALOG_INTERACTION

SUBROUTINE_00D3:
  8: 0x00D3 [0x21] END_EVENT
  9: 0x00D4 [0x00] END_REQSTACK()
```
