# 17412786

## Common Data

| Field            | Value                           |
|------------------|---------------------------------|
| Zone             | Castle Zvahl Keep [S] (ID: 155) |
| Block Size       | 296 bytes                       |
| Total Events     | 10                              |
| References Count | 20                              |

## List of Events

| Event ID                 | Entrypoint   |   Size |   Instructions |
|--------------------------|--------------|--------|----------------|
| [65535](#event-65535)    | 0x0000       |      1 |              1 |
| [16](#event-16)          | 0x0001       |      7 |              2 |
| [65535.1](#event-655351) | 0x0008       |     42 |             10 |
| [65535.2](#event-655352) | 0x0032       |     22 |              6 |
| [65535.3](#event-655353) | 0x0048       |     14 |              4 |
| [17](#event-17)          | 0x0056       |      7 |              2 |
| [65535.4](#event-655354) | 0x005D       |     22 |              6 |
| [65535.5](#event-655355) | 0x0073       |     13 |              3 |
| [18](#event-18)          | 0x0080       |      7 |              2 |
| [65535.6](#event-655356) | 0x0087       |     22 |              6 |

## DAT References (imed_data)

|   Index | Hex Value   |   Dec Value |
|---------|-------------|-------------|
|       0 | 0x0028      |          40 |
|       1 | 0x1C29F     |      115359 |
|       2 | 0x25E10     |      155152 |
|       3 | 0x047E      |        1150 |
|       4 | 0x001E      |          30 |
|       5 | 0x0016      |          22 |
|       6 | 0x1DDEB     |      122347 |
|       7 | 0x2702C     |      159788 |
|       8 | 0x03E7      |         999 |
|       9 | 0x208BC     |      133308 |
|      10 | 0x29B30     |      170800 |
|      11 | 0x0183      |         387 |
|      12 | 0xFFFA54AC  |  4294595756 |
|      13 | 0xFFFE79C2  |  4294867394 |
|      14 | 0xFFFF34E1  |  4294915297 |
|      15 | 0x000C      |          12 |
|      16 | 0x000A      |          10 |
|      17 | 0x0025      |          37 |
|      18 | 0xFFFA602B  |  4294598699 |
|      19 | 0xFFFE6727  |  4294862631 |

## Events

### Event 65535

#### Metadata

| Field        | Value   |
|--------------|---------|
| Entrypoint   | 0x0000  |
| Data Size    | 1 bytes |
| Instructions | 1       |

```
      00 01 02 03 04 05 06 07  08 09 0A 0B 0C 0D 0E 0F
      -- -- -- -- -- -- -- --  -- -- -- -- -- -- -- --
0000: 00                                                .               
```

#### Opcodes

```
  0: 0x0000 [0x00] END_REQSTACK()
```

### Event 16

#### Metadata

| Field        | Value   |
|--------------|---------|
| Entrypoint   | 0x0001  |
| Data Size    | 7 bytes |
| Instructions | 2       |

```
      00 01 02 03 04 05 06 07  08 09 0A 0B 0C 0D 0E 0F
      -- -- -- -- -- -- -- --  -- -- -- -- -- -- -- --
0000:    92 01 F8 FF FF 7F 00                            .......        
```

#### Opcodes

```
  0: 0x0001 [0x92] EventEntity->Render.Flags3 ^= 0x01
  1: 0x0007 [0x00] END_REQSTACK()
```

### Event 65535.1

#### Metadata

| Field        | Value    |
|--------------|----------|
| Entrypoint   | 0x0008   |
| Data Size    | 42 bytes |
| Instructions | 10       |

```
      00 01 02 03 04 05 06 07  08 09 0A 0B 0C 0D 0E 0F
      -- -- -- -- -- -- -- --  -- -- -- -- -- -- -- --
0000:                          32 00 80 1F 00 01 80 02          2.......
0010: 80 03 80 1F 01 6F 1C 04  80 4A B2 B2 09 01 B0 B2  .....o...J......
0020: 09 01 1C 04 80 6E B2 B2  09 01 05 80 99 B2 B2 09  .....n..........
0030: 01 00                                             ..              
```

#### Opcodes

```
  0: 0x0008 [0x32] ExtData[1]->MainSpeed = 40* * 0.1
  1: 0x000B [0x1F] MOVE_ENTITY: EventEntity moves to X=115.359*, Z=155.152*, Y=1.150*
  2: 0x0013 [0x1F] MOVE_ENTITY: Update entity position (mode=1)
  3: 0x0015 [0x6F] WAIT_FRAME_DELAY: Yield until WaitTime reaches zero
  4: 0x0016 [0x1C] WAIT(30* ticks)
  5: 0x0019 [0x4A] Unnamed NPC (ID: 17412786/0x0109B2B2) looks at Leki Shameene (ID: 17412784/0x0109B2B0)
  6: 0x0022 [0x1C] WAIT(30* ticks)
  7: 0x0025 [0x6E] Unnamed NPC (ID: 17412786/0x0109B2B2) uses emote 22*
  8: 0x002C [0x99] Wait for Unnamed NPC (ID: 17412786/0x0109B2B2) animation to complete
  9: 0x0031 [0x00] END_REQSTACK()
```

### Event 65535.2

#### Metadata

| Field        | Value    |
|--------------|----------|
| Entrypoint   | 0x0032   |
| Data Size    | 22 bytes |
| Instructions | 6        |

```
      00 01 02 03 04 05 06 07  08 09 0A 0B 0C 0D 0E 0F
      -- -- -- -- -- -- -- --  -- -- -- -- -- -- -- --
0030:       32 00 80 1F 00 06  80 07 80 08 80 1F 01 1E    2.............
0040: B6 B2 09 01 1C 04 80 00                           ........        
```

#### Opcodes

```
  0: 0x0032 [0x32] ExtData[1]->MainSpeed = 40* * 0.1
  1: 0x0035 [0x1F] MOVE_ENTITY: EventEntity moves to X=122.347*, Z=159.788*, Y=0.999*
  2: 0x003D [0x1F] MOVE_ENTITY: Update entity position (mode=1)
  3: 0x003F [0x1E] EventEntity looks at Klara (ID: 17412790/0x0109B2B6) and starts talking
  4: 0x0044 [0x1C] WAIT(30* ticks)
  5: 0x0047 [0x00] END_REQSTACK()
```

### Event 65535.3

#### Metadata

| Field        | Value    |
|--------------|----------|
| Entrypoint   | 0x0048   |
| Data Size    | 14 bytes |
| Instructions | 4        |

```
      00 01 02 03 04 05 06 07  08 09 0A 0B 0C 0D 0E 0F
      -- -- -- -- -- -- -- --  -- -- -- -- -- -- -- --
0040:                          32 00 80 1F 00 09 80 0A          2.......
0050: 80 0B 80 1F 01 00                                 ......          
```

#### Opcodes

```
  0: 0x0048 [0x32] ExtData[1]->MainSpeed = 40* * 0.1
  1: 0x004B [0x1F] MOVE_ENTITY: EventEntity moves to X=133.308*, Z=170.800*, Y=0.387*
  2: 0x0053 [0x1F] MOVE_ENTITY: Update entity position (mode=1)
  3: 0x0055 [0x00] END_REQSTACK()
```

### Event 17

#### Metadata

| Field        | Value   |
|--------------|---------|
| Entrypoint   | 0x0056  |
| Data Size    | 7 bytes |
| Instructions | 2       |

```
      00 01 02 03 04 05 06 07  08 09 0A 0B 0C 0D 0E 0F
      -- -- -- -- -- -- -- --  -- -- -- -- -- -- -- --
0050:                   92 01  F8 FF FF 7F 00                 .......   
```

#### Opcodes

```
  0: 0x0056 [0x92] EventEntity->Render.Flags3 ^= 0x01
  1: 0x005C [0x00] END_REQSTACK()
```

### Event 65535.4

#### Metadata

| Field        | Value    |
|--------------|----------|
| Entrypoint   | 0x005D   |
| Data Size    | 22 bytes |
| Instructions | 6        |

```
      00 01 02 03 04 05 06 07  08 09 0A 0B 0C 0D 0E 0F
      -- -- -- -- -- -- -- --  -- -- -- -- -- -- -- --
0050:                                         32 00 80               2..
0060: 1F 00 0C 80 0D 80 0E 80  1F 01 1E AC B2 09 01 1C  ................
0070: 04 80 00                                          ...             
```

#### Opcodes

```
  0: 0x005D [0x32] ExtData[1]->MainSpeed = 40* * 0.1
  1: 0x0060 [0x1F] MOVE_ENTITY: EventEntity moves to X=-371.540*, Z=-99.902*, Y=-51.999*
  2: 0x0068 [0x1F] MOVE_ENTITY: Update entity position (mode=1)
  3: 0x006A [0x1E] EventEntity looks at Volker (ID: 17412780/0x0109B2AC) and starts talking
  4: 0x006F [0x1C] WAIT(30* ticks)
  5: 0x0072 [0x00] END_REQSTACK()
```

### Event 65535.5

#### Metadata

| Field        | Value    |
|--------------|----------|
| Entrypoint   | 0x0073   |
| Data Size    | 13 bytes |
| Instructions | 3        |

```
      00 01 02 03 04 05 06 07  08 09 0A 0B 0C 0D 0E 0F
      -- -- -- -- -- -- -- --  -- -- -- -- -- -- -- --
0070:          6E B2 B2 09 01  0F 80 99 B2 B2 09 01 00     n............
```

#### Opcodes

```
  0: 0x0073 [0x6E] Unnamed NPC (ID: 17412786/0x0109B2B2) uses emote 12*
  1: 0x007A [0x99] Wait for Unnamed NPC (ID: 17412786/0x0109B2B2) animation to complete
  2: 0x007F [0x00] END_REQSTACK()
```

### Event 18

#### Metadata

| Field        | Value   |
|--------------|---------|
| Entrypoint   | 0x0080  |
| Data Size    | 7 bytes |
| Instructions | 2       |

```
      00 01 02 03 04 05 06 07  08 09 0A 0B 0C 0D 0E 0F
      -- -- -- -- -- -- -- --  -- -- -- -- -- -- -- --
0080: 92 01 F8 FF FF 7F 00                              .......         
```

#### Opcodes

```
  0: 0x0080 [0x92] EventEntity->Render.Flags3 ^= 0x01
  1: 0x0086 [0x00] END_REQSTACK()
```

### Event 65535.6

#### Metadata

| Field        | Value    |
|--------------|----------|
| Entrypoint   | 0x0087   |
| Data Size    | 22 bytes |
| Instructions | 6        |

```
      00 01 02 03 04 05 06 07  08 09 0A 0B 0C 0D 0E 0F
      -- -- -- -- -- -- -- --  -- -- -- -- -- -- -- --
0080:                      1C  10 80 32 11 80 1F 00 12         ...2.....
0090: 80 13 80 0E 80 1F 01 1E  AC B2 09 01 00           .............   
```

#### Opcodes

```
  0: 0x0087 [0x1C] WAIT(10* ticks)
  1: 0x008A [0x32] ExtData[1]->MainSpeed = 37* * 0.1
  2: 0x008D [0x1F] MOVE_ENTITY: EventEntity moves to X=-368.597*, Z=-104.665*, Y=-51.999*
  3: 0x0095 [0x1F] MOVE_ENTITY: Update entity position (mode=1)
  4: 0x0097 [0x1E] EventEntity looks at Volker (ID: 17412780/0x0109B2AC) and starts talking
  5: 0x009C [0x00] END_REQSTACK()
```
