# 17412756

## Common Data

| Field            | Value                           |
|------------------|---------------------------------|
| Zone             | Castle Zvahl Keep [S] (ID: 155) |
| Block Size       | 268 bytes                       |
| Total Events     | 2                               |
| References Count | 13                              |

## List of Events

| Event ID              | Entrypoint   |   Size |   Instructions |
|-----------------------|--------------|--------|----------------|
| [65535](#event-65535) | 0x0000       |      1 |              1 |
| [100](#event-100)     | 0x0001       |    190 |             39 |

## DAT References (imed_data)

|   Index | Hex Value   |   Dec Value |
|---------|-------------|-------------|
|       0 | 0x1DA6      |        7590 |
|       1 | 0x0000      |           0 |
|       2 | 0x0001      |           1 |
|       3 | 0x0002      |           2 |
|       4 | 0x0003      |           3 |
|       5 | 0x0004      |           4 |
|       6 | 0x0005      |           5 |
|       7 | 0x0006      |           6 |
|       8 | 0x0007      |           7 |
|       9 | 0x0008      |           8 |
|      10 | 0x0009      |           9 |
|      11 | 0x000A      |          10 |
|      12 | 0x000B      |          11 |

## String References

- **7590**: Which? [Nevermind./Qiqirn./Colibri/Puk/Poroggo/Ameretat/Marid/Wivre/Mamool Ja/Gear/Hydra]

## Events

### Event 65535

#### Metadata

| Field        | Value   |
|--------------|---------|
| Entrypoint   | 0x0000  |
| Data Size    | 1 bytes |
| Instructions | 1       |

```
      00 01 02 03 04 05 06 07  08 09 0A 0B 0C 0D 0E 0F
      -- -- -- -- -- -- -- --  -- -- -- -- -- -- -- --
0000: 00                                                .               
```

#### Opcodes

```
  0: 0x0000 [0x00] END_REQSTACK()
```

### Event 100

#### Metadata

| Field        | Value     |
|--------------|-----------|
| Entrypoint   | 0x0001    |
| Data Size    | 190 bytes |
| Instructions | 38        |

```
      00 01 02 03 04 05 06 07  08 09 0A 0B 0C 0D 0E 0F
      -- -- -- -- -- -- -- --  -- -- -- -- -- -- -- --
0000:    1A 05 00 00 24 00 80  01 80 01 80 25 02 00 10   ....$......%...
0010: 01 80 00 1D 00 03 01 10  02 80 01 BD 00 02 00 10  ................
0020: 02 80 00 2D 00 03 01 10  03 80 01 BD 00 02 00 10  ...-............
0030: 03 80 00 3D 00 03 01 10  04 80 01 BD 00 02 00 10  ...=............
0040: 04 80 00 4D 00 03 01 10  05 80 01 BD 00 02 00 10  ...M............
0050: 05 80 00 5D 00 03 01 10  06 80 01 BD 00 02 00 10  ...]............
0060: 06 80 00 6D 00 03 01 10  07 80 01 BD 00 02 00 10  ...m............
0070: 07 80 00 7D 00 03 01 10  08 80 01 BD 00 02 00 10  ...}............
0080: 08 80 00 8D 00 03 01 10  09 80 01 BD 00 02 00 10  ................
0090: 09 80 00 9D 00 03 01 10  0A 80 01 BD 00 02 00 10  ................
00A0: 0A 80 00 AD 00 03 01 10  0B 80 01 BD 00 02 00 10  ................
00B0: 0B 80 00 BD 00 03 01 10  0C 80 01 BD 00 21 1B     .............!. 
```

#### Opcodes

```
  0: 0x0001 [0x1A] CALL_SUBROUTINE(address=0x0005)
  1: 0x0004 [0x00] END_REQSTACK()

SUBROUTINE_0005:
  2: 0x0005 [0x24] CREATE_DIALOG(message_id=7590*, default_option=0*, option_flags=0*)
    → "Which? [Nevermind./Qiqirn./Colibri/Puk/Poroggo/Ameretat/Marid/Wivre/Mamool Ja/Gear/Hydra]"
  3: 0x000C [0x25] WAIT_DIALOG_SELECT()
  4: 0x000D [0x02] IF !(Work_Zone[0] == 0*) GOTO 0x001D
  5: 0x0015 [0x03] Work_Zone[1] = 1*
  6: 0x001A [0x01] GOTO 0x00BD
  7: 0x001D [0x02] IF !(Work_Zone[0] == 1*) GOTO 0x002D
  8: 0x0025 [0x03] Work_Zone[1] = 2*
  9: 0x002A [0x01] GOTO 0x00BD
 10: 0x002D [0x02] IF !(Work_Zone[0] == 2*) GOTO 0x003D
 11: 0x0035 [0x03] Work_Zone[1] = 3*
 12: 0x003A [0x01] GOTO 0x00BD
 13: 0x003D [0x02] IF !(Work_Zone[0] == 3*) GOTO 0x004D
 14: 0x0045 [0x03] Work_Zone[1] = 4*
 15: 0x004A [0x01] GOTO 0x00BD
 16: 0x004D [0x02] IF !(Work_Zone[0] == 4*) GOTO 0x005D
 17: 0x0055 [0x03] Work_Zone[1] = 5*
 18: 0x005A [0x01] GOTO 0x00BD
 19: 0x005D [0x02] IF !(Work_Zone[0] == 5*) GOTO 0x006D
 20: 0x0065 [0x03] Work_Zone[1] = 6*
 21: 0x006A [0x01] GOTO 0x00BD
 22: 0x006D [0x02] IF !(Work_Zone[0] == 6*) GOTO 0x007D
 23: 0x0075 [0x03] Work_Zone[1] = 7*
 24: 0x007A [0x01] GOTO 0x00BD
 25: 0x007D [0x02] IF !(Work_Zone[0] == 7*) GOTO 0x008D
 26: 0x0085 [0x03] Work_Zone[1] = 8*
 27: 0x008A [0x01] GOTO 0x00BD
 28: 0x008D [0x02] IF !(Work_Zone[0] == 8*) GOTO 0x009D
 29: 0x0095 [0x03] Work_Zone[1] = 9*
 30: 0x009A [0x01] GOTO 0x00BD
 31: 0x009D [0x02] IF !(Work_Zone[0] == 9*) GOTO 0x00AD
 32: 0x00A5 [0x03] Work_Zone[1] = 10*
 33: 0x00AA [0x01] GOTO 0x00BD
 34: 0x00AD [0x02] IF !(Work_Zone[0] == 10*) GOTO 0x00BD
 35: 0x00B5 [0x03] Work_Zone[1] = 11*
 36: 0x00BA [0x01] GOTO 0x00BD

SUBROUTINE_00BD:
 37: 0x00BD [0x21] END_EVENT
```

#### Data or dead code:

```
# Dead code (unreachable instructions):
     0x00BE [0x1B] RETURN
```
