# 0x7FFFFFF0 - Zone Events

## Common Data

| Field            | Value                           |
|------------------|---------------------------------|
| Zone             | Castle Zvahl Keep [S] (ID: 155) |
| Block Size       | 2072 bytes                      |
| Total Events     | 35                              |
| References Count | 107                             |

## List of Events

| Event ID                   | Entrypoint   |   Size |   Instructions |
|----------------------------|--------------|--------|----------------|
| [65535](#event-65535)      | 0x0000       |      1 |              1 |
| [65534](#event-65534)      | 0x0001       |      1 |              1 |
| [0](#event-0)              | 0x0002       |     59 |             11 |
| [1](#event-1)              | 0x003D       |     59 |             11 |
| [2](#event-2)              | 0x0078       |     59 |             11 |
| [3](#event-3)              | 0x00B3       |     59 |             11 |
| [4](#event-4)              | 0x00EE       |     59 |             11 |
| [5](#event-5)              | 0x0129       |     87 |             16 |
| [6](#event-6)              | 0x0180       |    167 |             30 |
| [7](#event-7)              | 0x0227       |    167 |             30 |
| [65535.1](#event-655351)   | 0x02CE       |     37 |              5 |
| [65535.2](#event-655352)   | 0x02F3       |    185 |             37 |
| [65535.3](#event-655353)   | 0x03AC       |      6 |              2 |
| [65535.4](#event-655354)   | 0x03B2       |      6 |              2 |
| [65535.5](#event-655355)   | 0x03B8       |      7 |              3 |
| [65535.6](#event-655356)   | 0x03BF       |      7 |              3 |
| [65535.7](#event-655357)   | 0x03C6       |     24 |              4 |
| [65535.8](#event-655358)   | 0x03DE       |     24 |              4 |
| [65535.9](#event-655359)   | 0x03F6       |     22 |              6 |
| [65535.10](#event-6553510) | 0x040C       |     14 |              4 |
| [65535.11](#event-6553511) | 0x041A       |     45 |              7 |
| [65535.12](#event-6553512) | 0x0447       |     22 |              6 |
| [65535.13](#event-6553513) | 0x045D       |     14 |              4 |
| [65535.14](#event-6553514) | 0x046B       |     22 |              6 |
| [65535.15](#event-6553515) | 0x0481       |     13 |              3 |
| [65535.16](#event-6553516) | 0x048E       |     27 |              5 |
| [65535.17](#event-6553517) | 0x04A9       |     16 |              3 |
| [65535.18](#event-6553518) | 0x04B9       |     16 |              3 |
| [65535.19](#event-6553519) | 0x04C9       |     38 |              5 |
| [65535.20](#event-6553520) | 0x04EF       |     38 |              5 |
| [65535.21](#event-6553521) | 0x0515       |     38 |              5 |
| [65535.22](#event-6553522) | 0x053B       |     15 |              5 |
| [65535.23](#event-6553523) | 0x054A       |     36 |              8 |
| [65535.24](#event-6553524) | 0x056E       |     70 |             15 |
| [65535.25](#event-6553525) | 0x05B4       |     27 |              7 |

## DAT References (imed_data)

|   Index | Hex Value   |   Dec Value |
|---------|-------------|-------------|
|       0 | 0x0001      |           1 |
|       1 | 0x0000      |           0 |
|       2 | 0x00B4      |         180 |
|       3 | 0xFFFC5687  |  4294727303 |
|       4 | 0x1375B     |       79707 |
|       5 | 0xFFFF34E0  |  4294915296 |
|       6 | 0x0C88      |        3208 |
|       7 | 0x0002      |           2 |
|       8 | 0xFFFA8623  |  4294608419 |
|       9 | 0xFFFE425B  |  4294853211 |
|      10 | 0x0C1B      |        3099 |
|      11 | 0xFFFCF2E0  |  4294767328 |
|      12 | 0xFFFEB9AA  |  4294883754 |
|      13 | 0xFFFF34E1  |  4294915297 |
|      14 | 0x0C22      |        3106 |
|      15 | 0xFFF9A746  |  4294551366 |
|      16 | 0xE747      |       59207 |
|      17 | 0xFFFEF94E  |  4294900046 |
|      18 | 0x0803      |        2051 |
|      19 | 0xFFF821BD  |  4294451645 |
|      20 | 0x12ACA     |       76490 |
|      21 | 0xFFFEE6C0  |  4294895296 |
|      22 | 0x07F5      |        2037 |
|      23 | 0xFFF82567  |  4294452583 |
|      24 | 0xACAE      |       44206 |
|      25 | 0x0784      |        1924 |
|      26 | 0x0004      |           4 |
|      27 | 0xFFFFA5CE  |  4294944206 |
|      28 | 0xFFFFB314  |  4294947604 |
|      29 | 0x07E7      |        2023 |
|      30 | 0xFFFE8427  |  4294870055 |
|      31 | 0xFFFFB31E  |  4294947614 |
|      32 | 0xFFFFC180  |  4294951296 |
|      33 | 0x0FEA      |        4074 |
|      34 | 0xFFF94AB9  |  4294527673 |
|      35 | 0x1D4BB     |      119995 |
|      36 | 0xFFFEF660  |  4294899296 |
|      37 | 0x07FB      |        2043 |
|      38 | 0x0003      |           3 |
|      39 | 0xFFFE7600  |  4294866432 |
|      40 | 0x19F5C     |      106332 |
|      41 | 0xFFFFC3DA  |  4294951898 |
|      42 | 0x03F5      |        1013 |
|      43 | 0xFFFF992B  |  4294940971 |
|      44 | 0x1AE14     |      110100 |
|      45 | 0x0259      |         601 |
|      46 | 0x07C2      |        1986 |
|      47 | 0xFFF9496F  |  4294527343 |
|      48 | 0x003C      |          60 |
|      49 | 0xFFFEF661  |  4294899297 |
|      50 | 0x0847      |        2119 |
|      51 | 0xFFFE7823  |  4294866979 |
|      52 | 0xFFFDACD3  |  4294814931 |
|      53 | 0x0B48      |        2888 |
|      54 | 0xFFFF8723  |  4294936355 |
|      55 | 0xFFFDBE13  |  4294819347 |
|      56 | 0x03BB      |         955 |
|      57 | 0x0005      |           5 |
|      58 | 0x000A      |          10 |
|      59 | 0x0009      |           9 |
|      60 | 0x0046      |          70 |
|      61 | 0x008C      |         140 |
|      62 | 0x00D2      |         210 |
|      63 | 0x0028      |          40 |
|      64 | 0x1F897     |      129175 |
|      65 | 0x28E02     |      167426 |
|      66 | 0x0481      |        1153 |
|      67 | 0x001E      |          30 |
|      68 | 0x1C60F     |      116239 |
|      69 | 0x282CB     |      164555 |
|      70 | 0x0488      |        1160 |
|      71 | 0xFFFACD81  |  4294626689 |
|      72 | 0xFFFE866A  |  4294870634 |
|      73 | 0xFFFA6D5A  |  4294602074 |
|      74 | 0xFFFE5FAA  |  4294860714 |
|      75 | 0xFFFA4D50  |  4294593872 |
|      76 | 0xFFFE759D  |  4294866333 |
|      77 | 0x0024      |          36 |
|      78 | 0x012C      |         300 |
|      79 | 0x0080      |         128 |
|      80 | 0x0008      |           8 |
|      81 | 0x0091      |         145 |
|      82 | 0x004F      |          79 |
|      83 | 0x004C      |          76 |
|      84 | 0x00C9      |         201 |
|      85 | 0x0106      |         262 |
|      86 | 0x0030      |          48 |
|      87 | 0x0018      |          24 |
|      88 | 0x0040      |          64 |
|      89 | 0x0050      |          80 |
|      90 | 0x000D      |          13 |
|      91 | 0xFFFA428C  |  4294591116 |
|      92 | 0xFFFE6F05  |  4294864645 |
|      93 | 0x005A      |          90 |
|      94 | 0xFFFA5CC5  |  4294597829 |
|      95 | 0xFFFE607E  |  4294860926 |
|      96 | 0xFFFA82FB  |  4294607611 |
|      97 | 0xFFFE64B4  |  4294862004 |
|      98 | 0xFFFA5B2B  |  4294597419 |
|      99 | 0xFFFE7123  |  4294865187 |
|     100 | 0x0078      |         120 |
|     101 | 0xFFFA4DD3  |  4294594003 |
|     102 | 0xFFFE638C  |  4294861708 |
|     103 | 0x0020      |          32 |
|     104 | 0xFFFA7220  |  4294603296 |
|     105 | 0xFFFE7D48  |  4294868296 |
|     106 | 0xFFFAACB8  |  4294618296 |

## Events

### Event 65535

#### Metadata

| Field        | Value   |
|--------------|---------|
| Entrypoint   | 0x0000  |
| Data Size    | 1 bytes |
| Instructions | 1       |

```
      00 01 02 03 04 05 06 07  08 09 0A 0B 0C 0D 0E 0F
      -- -- -- -- -- -- -- --  -- -- -- -- -- -- -- --
0000: 00                                                .               
```

#### Opcodes

```
  0: 0x0000 [0x00] END_REQSTACK()
```

### Event 65534

#### Metadata

| Field        | Value   |
|--------------|---------|
| Entrypoint   | 0x0001  |
| Data Size    | 1 bytes |
| Instructions | 1       |

```
      00 01 02 03 04 05 06 07  08 09 0A 0B 0C 0D 0E 0F
      -- -- -- -- -- -- -- --  -- -- -- -- -- -- -- --
0000:    00                                              .              
```

#### Opcodes

```
  0: 0x0001 [0x00] END_REQSTACK()
```

### Event 0

#### Metadata

| Field        | Value    |
|--------------|----------|
| Entrypoint   | 0x0002   |
| Data Size    | 59 bytes |
| Instructions | 11       |

```
      00 01 02 03 04 05 06 07  08 09 0A 0B 0C 0D 0E 0F
      -- -- -- -- -- -- -- --  -- -- -- -- -- -- -- --
0000:       20 01 42 62 00 80  F8 FF FF 7F F8 FF FF 7F     .Bb..........
0010: 6D 61 69 6E 01 80 1C 02  80 47 00 03 80 04 80 05  main.....G......
0020: 80 06 80 47 01 62 07 80  F8 FF FF 7F F8 FF FF 7F  ...G.b..........
0030: 6D 61 69 6E 01 80 1C 02  80 20 00 21 00           main..... .!.   
```

#### Opcodes

```
  0: 0x0002 [0x20] SET_CLI_EVENT_UC_FLAG: Lock player control
  1: 0x0004 [0x42] SET_CLI_EVENT_CANCEL_DATA()
  2: 0x0005 [0x62] LOAD_EVENT_SCHEDULER: Load scheduler "main" with entities [EventEntity, EventEntity], work=[1*, 0*]
  3: 0x0016 [0x1C] WAIT(180* ticks)
  4: 0x0019 [0x47] UPDATE_PLAYER_POS(-239.993*, 79.707*, -52.000*, yaw=281.9°*)
  5: 0x0023 [0x47] WAIT_PLAYER_POS_UPDATE
  6: 0x0025 [0x62] LOAD_EVENT_SCHEDULER: Load scheduler "main" with entities [EventEntity, EventEntity], work=[2*, 0*]
  7: 0x0036 [0x1C] WAIT(180* ticks)
  8: 0x0039 [0x20] SET_CLI_EVENT_UC_FLAG: Unlock player control
  9: 0x003B [0x21] END_EVENT
 10: 0x003C [0x00] END_REQSTACK()
```

### Event 1

#### Metadata

| Field        | Value    |
|--------------|----------|
| Entrypoint   | 0x003D   |
| Data Size    | 59 bytes |
| Instructions | 11       |

```
      00 01 02 03 04 05 06 07  08 09 0A 0B 0C 0D 0E 0F
      -- -- -- -- -- -- -- --  -- -- -- -- -- -- -- --
0030:                                         20 01 42                .B
0040: 62 00 80 F8 FF FF 7F F8  FF FF 7F 6D 61 69 6E 01  b..........main.
0050: 80 1C 02 80 47 00 08 80  09 80 05 80 0A 80 47 01  ....G.........G.
0060: 62 07 80 F8 FF FF 7F F8  FF FF 7F 6D 61 69 6E 01  b..........main.
0070: 80 1C 02 80 20 00 21 00                           .... .!.        
```

#### Opcodes

```
  0: 0x003D [0x20] SET_CLI_EVENT_UC_FLAG: Lock player control
  1: 0x003F [0x42] SET_CLI_EVENT_CANCEL_DATA()
  2: 0x0040 [0x62] LOAD_EVENT_SCHEDULER: Load scheduler "main" with entities [EventEntity, EventEntity], work=[1*, 0*]
  3: 0x0051 [0x1C] WAIT(180* ticks)
  4: 0x0054 [0x47] UPDATE_PLAYER_POS(-358.877*, -114.085*, -52.000*, yaw=272.4°*)
  5: 0x005E [0x47] WAIT_PLAYER_POS_UPDATE
  6: 0x0060 [0x62] LOAD_EVENT_SCHEDULER: Load scheduler "main" with entities [EventEntity, EventEntity], work=[2*, 0*]
  7: 0x0071 [0x1C] WAIT(180* ticks)
  8: 0x0074 [0x20] SET_CLI_EVENT_UC_FLAG: Unlock player control
  9: 0x0076 [0x21] END_EVENT
 10: 0x0077 [0x00] END_REQSTACK()
```

### Event 2

#### Metadata

| Field        | Value    |
|--------------|----------|
| Entrypoint   | 0x0078   |
| Data Size    | 59 bytes |
| Instructions | 11       |

```
      00 01 02 03 04 05 06 07  08 09 0A 0B 0C 0D 0E 0F
      -- -- -- -- -- -- -- --  -- -- -- -- -- -- -- --
0070:                          20 01 42 62 00 80 F8 FF           .Bb....
0080: FF 7F F8 FF FF 7F 6D 61  69 6E 01 80 1C 02 80 47  ......main.....G
0090: 00 0B 80 0C 80 0D 80 0E  80 47 01 62 07 80 F8 FF  .........G.b....
00A0: FF 7F F8 FF FF 7F 6D 61  69 6E 01 80 1C 02 80 20  ......main..... 
00B0: 00 21 00                                          .!.             
```

#### Opcodes

```
  0: 0x0078 [0x20] SET_CLI_EVENT_UC_FLAG: Lock player control
  1: 0x007A [0x42] SET_CLI_EVENT_CANCEL_DATA()
  2: 0x007B [0x62] LOAD_EVENT_SCHEDULER: Load scheduler "main" with entities [EventEntity, EventEntity], work=[1*, 0*]
  3: 0x008C [0x1C] WAIT(180* ticks)
  4: 0x008F [0x47] UPDATE_PLAYER_POS(-199.968*, -83.542*, -51.999*, yaw=273.0°*)
  5: 0x0099 [0x47] WAIT_PLAYER_POS_UPDATE
  6: 0x009B [0x62] LOAD_EVENT_SCHEDULER: Load scheduler "main" with entities [EventEntity, EventEntity], work=[2*, 0*]
  7: 0x00AC [0x1C] WAIT(180* ticks)
  8: 0x00AF [0x20] SET_CLI_EVENT_UC_FLAG: Unlock player control
  9: 0x00B1 [0x21] END_EVENT
 10: 0x00B2 [0x00] END_REQSTACK()
```

### Event 3

#### Metadata

| Field        | Value    |
|--------------|----------|
| Entrypoint   | 0x00B3   |
| Data Size    | 59 bytes |
| Instructions | 11       |

```
      00 01 02 03 04 05 06 07  08 09 0A 0B 0C 0D 0E 0F
      -- -- -- -- -- -- -- --  -- -- -- -- -- -- -- --
00B0:          20 01 42 62 00  80 F8 FF FF 7F F8 FF FF      .Bb.........
00C0: 7F 6D 61 69 6E 01 80 1C  02 80 47 00 08 80 09 80  .main.....G.....
00D0: 05 80 0A 80 47 01 62 07  80 F8 FF FF 7F F8 FF FF  ....G.b.........
00E0: 7F 6D 61 69 6E 01 80 1C  02 80 20 00 21 00        .main..... .!.  
```

#### Opcodes

```
  0: 0x00B3 [0x20] SET_CLI_EVENT_UC_FLAG: Lock player control
  1: 0x00B5 [0x42] SET_CLI_EVENT_CANCEL_DATA()
  2: 0x00B6 [0x62] LOAD_EVENT_SCHEDULER: Load scheduler "main" with entities [EventEntity, EventEntity], work=[1*, 0*]
  3: 0x00C7 [0x1C] WAIT(180* ticks)
  4: 0x00CA [0x47] UPDATE_PLAYER_POS(-358.877*, -114.085*, -52.000*, yaw=272.4°*)
  5: 0x00D4 [0x47] WAIT_PLAYER_POS_UPDATE
  6: 0x00D6 [0x62] LOAD_EVENT_SCHEDULER: Load scheduler "main" with entities [EventEntity, EventEntity], work=[2*, 0*]
  7: 0x00E7 [0x1C] WAIT(180* ticks)
  8: 0x00EA [0x20] SET_CLI_EVENT_UC_FLAG: Unlock player control
  9: 0x00EC [0x21] END_EVENT
 10: 0x00ED [0x00] END_REQSTACK()
```

### Event 4

#### Metadata

| Field        | Value    |
|--------------|----------|
| Entrypoint   | 0x00EE   |
| Data Size    | 59 bytes |
| Instructions | 11       |

```
      00 01 02 03 04 05 06 07  08 09 0A 0B 0C 0D 0E 0F
      -- -- -- -- -- -- -- --  -- -- -- -- -- -- -- --
00E0:                                            20 01                 .
00F0: 42 62 00 80 F8 FF FF 7F  F8 FF FF 7F 6D 61 69 6E  Bb..........main
0100: 01 80 1C 02 80 47 00 0F  80 10 80 11 80 12 80 47  .....G.........G
0110: 01 62 07 80 F8 FF FF 7F  F8 FF FF 7F 6D 61 69 6E  .b..........main
0120: 01 80 1C 02 80 20 00 21  00                       ..... .!.       
```

#### Opcodes

```
  0: 0x00EE [0x20] SET_CLI_EVENT_UC_FLAG: Lock player control
  1: 0x00F0 [0x42] SET_CLI_EVENT_CANCEL_DATA()
  2: 0x00F1 [0x62] LOAD_EVENT_SCHEDULER: Load scheduler "main" with entities [EventEntity, EventEntity], work=[1*, 0*]
  3: 0x0102 [0x1C] WAIT(180* ticks)
  4: 0x0105 [0x47] UPDATE_PLAYER_POS(-415.930*, 59.207*, -67.250*, yaw=180.3°*)
  5: 0x010F [0x47] WAIT_PLAYER_POS_UPDATE
  6: 0x0111 [0x62] LOAD_EVENT_SCHEDULER: Load scheduler "main" with entities [EventEntity, EventEntity], work=[2*, 0*]
  7: 0x0122 [0x1C] WAIT(180* ticks)
  8: 0x0125 [0x20] SET_CLI_EVENT_UC_FLAG: Unlock player control
  9: 0x0127 [0x21] END_EVENT
 10: 0x0128 [0x00] END_REQSTACK()
```

### Event 5

#### Metadata

| Field        | Value    |
|--------------|----------|
| Entrypoint   | 0x0129   |
| Data Size    | 87 bytes |
| Instructions | 16       |

```
      00 01 02 03 04 05 06 07  08 09 0A 0B 0C 0D 0E 0F
      -- -- -- -- -- -- -- --  -- -- -- -- -- -- -- --
0120:                             20 01 42 62 00 80 F8            .Bb...
0130: FF FF 7F F8 FF FF 7F 6D  61 69 6E 01 80 1C 02 80  .......main.....
0140: 13 00 00 00 80 02 00 00  01 80 00 5C 01 47 00 13  ...........\.G..
0150: 80 14 80 15 80 16 80 47  01 01 68 01 47 00 17 80  .......G..h.G...
0160: 18 80 15 80 19 80 47 01  62 07 80 F8 FF FF 7F F8  ......G.b.......
0170: FF FF 7F 6D 61 69 6E 01  80 1C 02 80 20 00 21 00  ...main..... .!.
```

#### Opcodes

```
  0: 0x0129 [0x20] SET_CLI_EVENT_UC_FLAG: Lock player control
  1: 0x012B [0x42] SET_CLI_EVENT_CANCEL_DATA()
  2: 0x012C [0x62] LOAD_EVENT_SCHEDULER: Load scheduler "main" with entities [EventEntity, EventEntity], work=[1*, 0*]
  3: 0x013D [0x1C] WAIT(180* ticks)
  4: 0x0140 [0x13] ExtData[1]->WorkLocal[0] = rand() % 1*
  5: 0x0145 [0x02] IF !(ExtData[1]->WorkLocal[0] == 0*) GOTO 0x015C
  6: 0x014D [0x47] UPDATE_PLAYER_POS(-515.651*, 76.490*, -72.000*, yaw=179.0°*)
  7: 0x0157 [0x47] WAIT_PLAYER_POS_UPDATE
  8: 0x0159 [0x01] GOTO 0x0168
  9: 0x015C [0x47] UPDATE_PLAYER_POS(-514.713*, 44.206*, -72.000*, yaw=169.1°*)
 10: 0x0166 [0x47] WAIT_PLAYER_POS_UPDATE

SUBROUTINE_0168:
 11: 0x0168 [0x62] LOAD_EVENT_SCHEDULER: Load scheduler "main" with entities [EventEntity, EventEntity], work=[2*, 0*]
 12: 0x0179 [0x1C] WAIT(180* ticks)
 13: 0x017C [0x20] SET_CLI_EVENT_UC_FLAG: Unlock player control
 14: 0x017E [0x21] END_EVENT
 15: 0x017F [0x00] END_REQSTACK()
```

### Event 6

#### Metadata

| Field        | Value     |
|--------------|-----------|
| Entrypoint   | 0x0180    |
| Data Size    | 167 bytes |
| Instructions | 30        |

```
      00 01 02 03 04 05 06 07  08 09 0A 0B 0C 0D 0E 0F
      -- -- -- -- -- -- -- --  -- -- -- -- -- -- -- --
0180: 20 01 42 62 00 80 F8 FF  FF 7F F8 FF FF 7F 6D 61   .Bb..........ma
0190: 69 6E 01 80 1C 02 80 13  02 00 1A 80 02 02 00 01  in..............
01A0: 80 80 B3 01 47 00 1B 80  1C 80 01 80 1D 80 47 01  ....G.........G.
01B0: 01 0F 02 02 02 00 00 80  80 CA 01 47 00 1E 80 1F  ...........G....
01C0: 80 20 80 21 80 47 01 01  0F 02 02 02 00 07 80 80  . .!.G..........
01D0: E1 01 47 00 22 80 23 80  24 80 25 80 47 01 01 0F  ..G.".#.$.%.G...
01E0: 02 02 02 00 26 80 80 F8  01 47 00 27 80 28 80 29  ....&....G.'.(.)
01F0: 80 2A 80 47 01 01 0F 02  02 02 00 1A 80 80 0F 02  .*.G............
0200: 47 00 2B 80 2C 80 2D 80  2E 80 47 01 01 0F 02 62  G.+.,.-...G....b
0210: 07 80 F8 FF FF 7F F8 FF  FF 7F 6D 61 69 6E 01 80  ..........main..
0220: 1C 02 80 20 00 21 00                              ... .!.         
```

#### Opcodes

```
  0: 0x0180 [0x20] SET_CLI_EVENT_UC_FLAG: Lock player control
  1: 0x0182 [0x42] SET_CLI_EVENT_CANCEL_DATA()
  2: 0x0183 [0x62] LOAD_EVENT_SCHEDULER: Load scheduler "main" with entities [EventEntity, EventEntity], work=[1*, 0*]
  3: 0x0194 [0x1C] WAIT(180* ticks)
  4: 0x0197 [0x13] ExtData[1]->WorkLocal[2] = rand() % 4*
  5: 0x019C [0x02] IF !(ExtData[1]->WorkLocal[2] == 0*) GOTO 0x01B3
  6: 0x01A4 [0x47] UPDATE_PLAYER_POS(-23.090*, -19.692*, 0.000*, yaw=177.8°*)
  7: 0x01AE [0x47] WAIT_PLAYER_POS_UPDATE
  8: 0x01B0 [0x01] GOTO 0x020F
  9: 0x01B3 [0x02] IF !(ExtData[1]->WorkLocal[2] == 1*) GOTO 0x01CA
 10: 0x01BB [0x47] UPDATE_PLAYER_POS(-97.241*, -19.682*, -16.000*, yaw=358.1°*)
 11: 0x01C5 [0x47] WAIT_PLAYER_POS_UPDATE
 12: 0x01C7 [0x01] GOTO 0x020F
 13: 0x01CA [0x02] IF !(ExtData[1]->WorkLocal[2] == 2*) GOTO 0x01E1
 14: 0x01D2 [0x47] UPDATE_PLAYER_POS(-439.623*, 119.995*, -68.000*, yaw=179.6°*)
 15: 0x01DC [0x47] WAIT_PLAYER_POS_UPDATE
 16: 0x01DE [0x01] GOTO 0x020F
 17: 0x01E1 [0x02] IF !(ExtData[1]->WorkLocal[2] == 3*) GOTO 0x01F8
 18: 0x01E9 [0x47] UPDATE_PLAYER_POS(-100.864*, 106.332*, -15.398*, yaw=89.0°*)
 19: 0x01F3 [0x47] WAIT_PLAYER_POS_UPDATE
 20: 0x01F5 [0x01] GOTO 0x020F
 21: 0x01F8 [0x02] IF !(ExtData[1]->WorkLocal[2] == 4*) GOTO 0x020F
 22: 0x0200 [0x47] UPDATE_PLAYER_POS(-26.325*, 110.100*, 0.601*, yaw=174.5°*)
 23: 0x020A [0x47] WAIT_PLAYER_POS_UPDATE
 24: 0x020C [0x01] GOTO 0x020F

SUBROUTINE_020F:
 25: 0x020F [0x62] LOAD_EVENT_SCHEDULER: Load scheduler "main" with entities [EventEntity, EventEntity], work=[2*, 0*]
 26: 0x0220 [0x1C] WAIT(180* ticks)
 27: 0x0223 [0x20] SET_CLI_EVENT_UC_FLAG: Unlock player control
 28: 0x0225 [0x21] END_EVENT
 29: 0x0226 [0x00] END_REQSTACK()
```

### Event 7

#### Metadata

| Field        | Value     |
|--------------|-----------|
| Entrypoint   | 0x0227    |
| Data Size    | 167 bytes |
| Instructions | 30        |

```
      00 01 02 03 04 05 06 07  08 09 0A 0B 0C 0D 0E 0F
      -- -- -- -- -- -- -- --  -- -- -- -- -- -- -- --
0220:                      20  01 42 62 00 80 F8 FF FF          .Bb.....
0230: 7F F8 FF FF 7F 6D 61 69  6E 01 80 1C 02 80 13 01  .....main.......
0240: 00 1A 80 02 01 00 01 80  80 5A 02 47 00 1B 80 1C  .........Z.G....
0250: 80 01 80 1D 80 47 01 01  B6 02 02 01 00 00 80 80  .....G..........
0260: 71 02 47 00 1E 80 1F 80  20 80 21 80 47 01 01 B6  q.G..... .!.G...
0270: 02 02 01 00 07 80 80 88  02 47 00 2F 80 30 80 31  .........G./.0.1
0280: 80 32 80 47 01 01 B6 02  02 01 00 26 80 80 9F 02  .2.G.......&....
0290: 47 00 33 80 34 80 29 80  35 80 47 01 01 B6 02 02  G.3.4.).5.G.....
02A0: 01 00 1A 80 80 B6 02 47  00 36 80 37 80 2D 80 38  .......G.6.7.-.8
02B0: 80 47 01 01 B6 02 62 07  80 F8 FF FF 7F F8 FF FF  .G....b.........
02C0: 7F 6D 61 69 6E 01 80 1C  02 80 20 00 21 00        .main..... .!.  
```

#### Opcodes

```
  0: 0x0227 [0x20] SET_CLI_EVENT_UC_FLAG: Lock player control
  1: 0x0229 [0x42] SET_CLI_EVENT_CANCEL_DATA()
  2: 0x022A [0x62] LOAD_EVENT_SCHEDULER: Load scheduler "main" with entities [EventEntity, EventEntity], work=[1*, 0*]
  3: 0x023B [0x1C] WAIT(180* ticks)
  4: 0x023E [0x13] ExtData[1]->WorkLocal[1] = rand() % 4*
  5: 0x0243 [0x02] IF !(ExtData[1]->WorkLocal[1] == 0*) GOTO 0x025A
  6: 0x024B [0x47] UPDATE_PLAYER_POS(-23.090*, -19.692*, 0.000*, yaw=177.8°*)
  7: 0x0255 [0x47] WAIT_PLAYER_POS_UPDATE
  8: 0x0257 [0x01] GOTO 0x02B6
  9: 0x025A [0x02] IF !(ExtData[1]->WorkLocal[1] == 1*) GOTO 0x0271
 10: 0x0262 [0x47] UPDATE_PLAYER_POS(-97.241*, -19.682*, -16.000*, yaw=358.1°*)
 11: 0x026C [0x47] WAIT_PLAYER_POS_UPDATE
 12: 0x026E [0x01] GOTO 0x02B6
 13: 0x0271 [0x02] IF !(ExtData[1]->WorkLocal[1] == 2*) GOTO 0x0288
 14: 0x0279 [0x47] UPDATE_PLAYER_POS(-439.953*, 0.060*, -67.999*, yaw=186.2°*)
 15: 0x0283 [0x47] WAIT_PLAYER_POS_UPDATE
 16: 0x0285 [0x01] GOTO 0x02B6
 17: 0x0288 [0x02] IF !(ExtData[1]->WorkLocal[1] == 3*) GOTO 0x029F
 18: 0x0290 [0x47] UPDATE_PLAYER_POS(-100.317*, -152.365*, -15.398*, yaw=253.8°*)
 19: 0x029A [0x47] WAIT_PLAYER_POS_UPDATE
 20: 0x029C [0x01] GOTO 0x02B6
 21: 0x029F [0x02] IF !(ExtData[1]->WorkLocal[1] == 4*) GOTO 0x02B6
 22: 0x02A7 [0x47] UPDATE_PLAYER_POS(-30.941*, -147.949*, 0.601*, yaw=83.9°*)
 23: 0x02B1 [0x47] WAIT_PLAYER_POS_UPDATE
 24: 0x02B3 [0x01] GOTO 0x02B6

SUBROUTINE_02B6:
 25: 0x02B6 [0x62] LOAD_EVENT_SCHEDULER: Load scheduler "main" with entities [EventEntity, EventEntity], work=[2*, 0*]
 26: 0x02C7 [0x1C] WAIT(180* ticks)
 27: 0x02CA [0x20] SET_CLI_EVENT_UC_FLAG: Unlock player control
 28: 0x02CC [0x21] END_EVENT
 29: 0x02CD [0x00] END_REQSTACK()
```

### Event 65535.1

#### Metadata

| Field        | Value    |
|--------------|----------|
| Entrypoint   | 0x02CE   |
| Data Size    | 37 bytes |
| Instructions | 5        |

```
      00 01 02 03 04 05 06 07  08 09 0A 0B 0C 0D 0E 0F
      -- -- -- -- -- -- -- --  -- -- -- -- -- -- -- --
02C0:                                            03 03                ..
02D0: 00 07 7F 1A 18 03 66 04  00 F8 FF FF 7F F8 FF FF  ......f.........
02E0: 7F 73 68 61 30 53 F8 FF  FF 7F F8 FF FF 7F 73 68  .sha0S........sh
02F0: 61 30 00                                          a0.             
```

#### Opcodes

```
  0: 0x02CE [0x03] ExtData[1]->WorkLocal[3] = Entity->Race
  1: 0x02D3 [0x1A] CALL_SUBROUTINE(address=0x0318)
  2: 0x02D6 [0x66] LOAD_EXT_SCHEDULER_MAIN: Load scheduler "sha0" with entities [EventEntity, EventEntity], work=ExtData[1]->WorkLocal[4]
  3: 0x02E5 [0x53] WAIT_SCHEDULER_TASK: Wait for scheduler "sha0" with entities [EventEntity, EventEntity]
  4: 0x02F2 [0x00] END_REQSTACK()
```

### Event 65535.2

#### Metadata

| Field        | Value     |
|--------------|-----------|
| Entrypoint   | 0x02F3    |
| Data Size    | 185 bytes |
| Instructions | 13        |

```
      00 01 02 03 04 05 06 07  08 09 0A 0B 0C 0D 0E 0F
      -- -- -- -- -- -- -- --  -- -- -- -- -- -- -- --
02F0:          03 03 00 07 7F  1A 18 03 66 04 00 F8 FF     ........f....
0300: FF 7F F8 FF FF 7F 73 68  61 31 53 F8 FF FF 7F F8  ......sha1S.....
0310: FF FF 7F 73 68 61 31 00  03 04 00 03 00 02 04 00  ...sha1.........
0320: 39 80 05 2D 03 08 04 00  00 80 01 32 03 08 04 00  9..-.......2....
0330: 07 80 14 04 00 3A 80 07  04 00 3B 80 1B 03 04 00  .....:....;.....
0340: 03 00 02 04 00 39 80 05  52 03 08 04 00 00 80 01  .....9..R.......
0350: 57 03 08 04 00 07 80 14  04 00 3A 80 07 04 00 3C  W.........:....<
0360: 80 1B 03 04 00 03 00 02  04 00 39 80 05 77 03 08  ..........9..w..
0370: 04 00 00 80 01 7C 03 08  04 00 07 80 14 04 00 3A  .....|.........:
0380: 80 07 04 00 3D 80 1B 03  04 00 03 00 02 04 00 39  ....=..........9
0390: 80 05 9C 03 08 04 00 00  80 01 A1 03 08 04 00 07  ................
03A0: 80 14 04 00 3A 80 07 04  00 3E 80 1B              ....:....>..    
```

#### Opcodes

```
  0: 0x02F3 [0x03] ExtData[1]->WorkLocal[3] = Entity->Race
  1: 0x02F8 [0x1A] CALL_SUBROUTINE(address=0x0318)
  2: 0x02FB [0x66] LOAD_EXT_SCHEDULER_MAIN: Load scheduler "sha1" with entities [EventEntity, EventEntity], work=ExtData[1]->WorkLocal[4]
  3: 0x030A [0x53] WAIT_SCHEDULER_TASK: Wait for scheduler "sha1" with entities [EventEntity, EventEntity]
  4: 0x0317 [0x00] END_REQSTACK()

SUBROUTINE_0318:
  5: 0x0318 [0x03] ExtData[1]->WorkLocal[4] = ExtData[1]->WorkLocal[3]
  6: 0x031D [0x02] IF !(ExtData[1]->WorkLocal[4] > 5*) GOTO 0x032D
  7: 0x0325 [0x08] ExtData[1]->WorkLocal[4] -= 1*
  8: 0x032A [0x01] GOTO 0x0332
  9: 0x032D [0x08] ExtData[1]->WorkLocal[4] -= 2*

SUBROUTINE_0332:
 10: 0x0332 [0x14] ExtData[1]->WorkLocal[4] *= 10*
 11: 0x0337 [0x07] ExtData[1]->WorkLocal[4] += 9*
 12: 0x033C [0x1B] RETURN
```

#### Data or dead code:

```
# Dead code (unreachable instructions):
     0x033D [0x03] ExtData[1]->WorkLocal[4] = ExtData[1]->WorkLocal[3]
     0x0342 [0x02] IF !(ExtData[1]->WorkLocal[4] > 5*) GOTO 0x0352
     0x034A [0x08] ExtData[1]->WorkLocal[4] -= 1*
     0x034F [0x01] GOTO 0x0357
     0x0352 [0x08] ExtData[1]->WorkLocal[4] -= 2*
     0x0357 [0x14] ExtData[1]->WorkLocal[4] *= 10*
     0x035C [0x07] ExtData[1]->WorkLocal[4] += 70*
     0x0361 [0x1B] RETURN
     0x0362 [0x03] ExtData[1]->WorkLocal[4] = ExtData[1]->WorkLocal[3]
     0x0367 [0x02] IF !(ExtData[1]->WorkLocal[4] > 5*) GOTO 0x0377
     0x036F [0x08] ExtData[1]->WorkLocal[4] -= 1*
     0x0374 [0x01] GOTO 0x037C
     0x0377 [0x08] ExtData[1]->WorkLocal[4] -= 2*
     0x037C [0x14] ExtData[1]->WorkLocal[4] *= 10*
     0x0381 [0x07] ExtData[1]->WorkLocal[4] += 140*
     0x0386 [0x1B] RETURN
     0x0387 [0x03] ExtData[1]->WorkLocal[4] = ExtData[1]->WorkLocal[3]
     0x038C [0x02] IF !(ExtData[1]->WorkLocal[4] > 5*) GOTO 0x039C
     0x0394 [0x08] ExtData[1]->WorkLocal[4] -= 1*
     0x0399 [0x01] GOTO 0x03A1
     0x039C [0x08] ExtData[1]->WorkLocal[4] -= 2*
     0x03A1 [0x14] ExtData[1]->WorkLocal[4] *= 10*
     0x03A6 [0x07] ExtData[1]->WorkLocal[4] += 210*
     0x03AB [0x1B] RETURN
```

### Event 65535.3

#### Metadata

| Field        | Value   |
|--------------|---------|
| Entrypoint   | 0x03AC  |
| Data Size    | 6 bytes |
| Instructions | 2       |

```
      00 01 02 03 04 05 06 07  08 09 0A 0B 0C 0D 0E 0F
      -- -- -- -- -- -- -- --  -- -- -- -- -- -- -- --
03A0:                                      03 02 10 07              ....
03B0: 7F 00                                             ..              
```

#### Opcodes

```
  0: 0x03AC [0x03] Work_Zone[2] = Entity->Race
  1: 0x03B1 [0x00] END_REQSTACK()
```

### Event 65535.4

#### Metadata

| Field        | Value   |
|--------------|---------|
| Entrypoint   | 0x03B2  |
| Data Size    | 6 bytes |
| Instructions | 2       |

```
      00 01 02 03 04 05 06 07  08 09 0A 0B 0C 0D 0E 0F
      -- -- -- -- -- -- -- --  -- -- -- -- -- -- -- --
03B0:       03 02 10 0B 7F 00                             ......        
```

#### Opcodes

```
  0: 0x03B2 [0x03] Work_Zone[2] = (Entity->Render.Flags01 >> 25) & 1
  1: 0x03B7 [0x00] END_REQSTACK()
```

### Event 65535.5

#### Metadata

| Field        | Value   |
|--------------|---------|
| Entrypoint   | 0x03B8  |
| Data Size    | 7 bytes |
| Instructions | 3       |

```
      00 01 02 03 04 05 06 07  08 09 0A 0B 0C 0D 0E 0F
      -- -- -- -- -- -- -- --  -- -- -- -- -- -- -- --
03B0:                          AB 03 AC 01 00 80 00             ....... 
```

#### Opcodes

```
  0: 0x03B8 [0xAB] EventEntity->Render.Flags0 ^= 0x20000 // Toggle bit 17
  1: 0x03BA [0xAC] EventEntity->StatusEvent = 1*
  2: 0x03BE [0x00] END_REQSTACK()
```

### Event 65535.6

#### Metadata

| Field        | Value   |
|--------------|---------|
| Entrypoint   | 0x03BF  |
| Data Size    | 7 bytes |
| Instructions | 3       |

```
      00 01 02 03 04 05 06 07  08 09 0A 0B 0C 0D 0E 0F
      -- -- -- -- -- -- -- --  -- -- -- -- -- -- -- --
03B0:                                               AC                 .
03C0: 01 01 80 AB 04 00                                 ......          
```

#### Opcodes

```
  0: 0x03BF [0xAC] EventEntity->StatusEvent = 0*
  1: 0x03C3 [0xAB] EventEntity->Render.Flags0 |= 0x40000 // Set bit 18
  2: 0x03C5 [0x00] END_REQSTACK()
```

### Event 65535.7

#### Metadata

| Field        | Value    |
|--------------|----------|
| Entrypoint   | 0x03C6   |
| Data Size    | 24 bytes |
| Instructions | 4        |

```
      00 01 02 03 04 05 06 07  08 09 0A 0B 0C 0D 0E 0F
      -- -- -- -- -- -- -- --  -- -- -- -- -- -- -- --
03C0:                   03 03  00 07 7F 1A 18 03 66 04        ........f.
03D0: 00 F8 FF FF 7F F8 FF FF  7F 74 6C 6B 30 00        .........tlk0.  
```

#### Opcodes

```
  0: 0x03C6 [0x03] ExtData[1]->WorkLocal[3] = Entity->Race
  1: 0x03CB [0x1A] CALL_SUBROUTINE(address=0x0318)
  2: 0x03CE [0x66] LOAD_EXT_SCHEDULER_MAIN: Load scheduler "tlk0" with entities [EventEntity, EventEntity], work=ExtData[1]->WorkLocal[4]
  3: 0x03DD [0x00] END_REQSTACK()
```

### Event 65535.8

#### Metadata

| Field        | Value    |
|--------------|----------|
| Entrypoint   | 0x03DE   |
| Data Size    | 24 bytes |
| Instructions | 4        |

```
      00 01 02 03 04 05 06 07  08 09 0A 0B 0C 0D 0E 0F
      -- -- -- -- -- -- -- --  -- -- -- -- -- -- -- --
03D0:                                            03 03                ..
03E0: 00 07 7F 1A 18 03 66 04  00 F8 FF FF 7F F8 FF FF  ......f.........
03F0: 7F 74 6C 6B 31 00                                 .tlk1.          
```

#### Opcodes

```
  0: 0x03DE [0x03] ExtData[1]->WorkLocal[3] = Entity->Race
  1: 0x03E3 [0x1A] CALL_SUBROUTINE(address=0x0318)
  2: 0x03E6 [0x66] LOAD_EXT_SCHEDULER_MAIN: Load scheduler "tlk1" with entities [EventEntity, EventEntity], work=ExtData[1]->WorkLocal[4]
  3: 0x03F5 [0x00] END_REQSTACK()
```

### Event 65535.9

#### Metadata

| Field        | Value    |
|--------------|----------|
| Entrypoint   | 0x03F6   |
| Data Size    | 22 bytes |
| Instructions | 6        |

```
      00 01 02 03 04 05 06 07  08 09 0A 0B 0C 0D 0E 0F
      -- -- -- -- -- -- -- --  -- -- -- -- -- -- -- --
03F0:                   32 3F  80 1F 00 40 80 41 80 42        2?...@.A.B
0400: 80 1F 01 1E B6 B2 09 01  1C 43 80 00              .........C..    
```

#### Opcodes

```
  0: 0x03F6 [0x32] ExtData[1]->MainSpeed = 40* * 0.1
  1: 0x03F9 [0x1F] MOVE_ENTITY: EventEntity moves to X=129.175*, Z=167.426*, Y=1.153*
  2: 0x0401 [0x1F] MOVE_ENTITY: Update entity position (mode=1)
  3: 0x0403 [0x1E] EventEntity looks at Klara (ID: 17412790/0x0109B2B6) and starts talking
  4: 0x0408 [0x1C] WAIT(30* ticks)
  5: 0x040B [0x00] END_REQSTACK()
```

### Event 65535.10

#### Metadata

| Field        | Value    |
|--------------|----------|
| Entrypoint   | 0x040C   |
| Data Size    | 14 bytes |
| Instructions | 4        |

```
      00 01 02 03 04 05 06 07  08 09 0A 0B 0C 0D 0E 0F
      -- -- -- -- -- -- -- --  -- -- -- -- -- -- -- --
0400:                                      32 3F 80 1F              2?..
0410: 00 44 80 45 80 46 80 1F  01 00                    .D.E.F....      
```

#### Opcodes

```
  0: 0x040C [0x32] ExtData[1]->MainSpeed = 40* * 0.1
  1: 0x040F [0x1F] MOVE_ENTITY: EventEntity moves to X=116.239*, Z=164.555*, Y=1.160*
  2: 0x0417 [0x1F] MOVE_ENTITY: Update entity position (mode=1)
  3: 0x0419 [0x00] END_REQSTACK()
```

### Event 65535.11

#### Metadata

| Field        | Value    |
|--------------|----------|
| Entrypoint   | 0x041A   |
| Data Size    | 45 bytes |
| Instructions | 7        |

```
      00 01 02 03 04 05 06 07  08 09 0A 0B 0C 0D 0E 0F
      -- -- -- -- -- -- -- --  -- -- -- -- -- -- -- --
0410:                                03 03 00 07 7F 1A            ......
0420: 18 03 66 04 00 F8 FF FF  7F F8 FF FF 7F 73 68 61  ..f..........sha
0430: 31 53 F8 FF FF 7F F8 FF  FF 7F 73 68 61 31 1E B3  1S........sha1..
0440: B2 09 01 1C 43 80 00                              ....C..         
```

#### Opcodes

```
  0: 0x041A [0x03] ExtData[1]->WorkLocal[3] = Entity->Race
  1: 0x041F [0x1A] CALL_SUBROUTINE(address=0x0318)
  2: 0x0422 [0x66] LOAD_EXT_SCHEDULER_MAIN: Load scheduler "sha1" with entities [EventEntity, EventEntity], work=ExtData[1]->WorkLocal[4]
  3: 0x0431 [0x53] WAIT_SCHEDULER_TASK: Wait for scheduler "sha1" with entities [EventEntity, EventEntity]
  4: 0x043E [0x1E] EventEntity looks at Allenberge (ID: 17412787/0x0109B2B3) and starts talking
  5: 0x0443 [0x1C] WAIT(30* ticks)
  6: 0x0446 [0x00] END_REQSTACK()
```

### Event 65535.12

#### Metadata

| Field        | Value    |
|--------------|----------|
| Entrypoint   | 0x0447   |
| Data Size    | 22 bytes |
| Instructions | 6        |

```
      00 01 02 03 04 05 06 07  08 09 0A 0B 0C 0D 0E 0F
      -- -- -- -- -- -- -- --  -- -- -- -- -- -- -- --
0440:                      32  3F 80 1F 00 47 80 48 80         2?...G.H.
0450: 0D 80 1F 01 1E AE B2 09  01 1C 43 80 00           ..........C..   
```

#### Opcodes

```
  0: 0x0447 [0x32] ExtData[1]->MainSpeed = 40* * 0.1
  1: 0x044A [0x1F] MOVE_ENTITY: EventEntity moves to X=-340.607*, Z=-96.662*, Y=-51.999*
  2: 0x0452 [0x1F] MOVE_ENTITY: Update entity position (mode=1)
  3: 0x0454 [0x1E] EventEntity looks at Nicolaus (ID: 17412782/0x0109B2AE) and starts talking
  4: 0x0459 [0x1C] WAIT(30* ticks)
  5: 0x045C [0x00] END_REQSTACK()
```

### Event 65535.13

#### Metadata

| Field        | Value    |
|--------------|----------|
| Entrypoint   | 0x045D   |
| Data Size    | 14 bytes |
| Instructions | 4        |

```
      00 01 02 03 04 05 06 07  08 09 0A 0B 0C 0D 0E 0F
      -- -- -- -- -- -- -- --  -- -- -- -- -- -- -- --
0450:                                         32 3F 80               2?.
0460: 1F 00 49 80 4A 80 0D 80  1F 01 00                 ..I.J......     
```

#### Opcodes

```
  0: 0x045D [0x32] ExtData[1]->MainSpeed = 40* * 0.1
  1: 0x0460 [0x1F] MOVE_ENTITY: EventEntity moves to X=-365.222*, Z=-106.582*, Y=-51.999*
  2: 0x0468 [0x1F] MOVE_ENTITY: Update entity position (mode=1)
  3: 0x046A [0x00] END_REQSTACK()
```

### Event 65535.14

#### Metadata

| Field        | Value    |
|--------------|----------|
| Entrypoint   | 0x046B   |
| Data Size    | 22 bytes |
| Instructions | 6        |

```
      00 01 02 03 04 05 06 07  08 09 0A 0B 0C 0D 0E 0F
      -- -- -- -- -- -- -- --  -- -- -- -- -- -- -- --
0460:                                   32 3F 80 1F 00             2?...
0470: 4B 80 4C 80 05 80 1F 01  1E B7 B2 09 01 1C 43 80  K.L...........C.
0480: 00                                                .               
```

#### Opcodes

```
  0: 0x046B [0x32] ExtData[1]->MainSpeed = 40* * 0.1
  1: 0x046E [0x1F] MOVE_ENTITY: EventEntity moves to X=-373.424*, Z=-100.963*, Y=-52.000*
  2: 0x0476 [0x1F] MOVE_ENTITY: Update entity position (mode=1)
  3: 0x0478 [0x1E] EventEntity looks at Marquis Amon (ID: 17412791/0x0109B2B7) and starts talking
  4: 0x047D [0x1C] WAIT(30* ticks)
  5: 0x0480 [0x00] END_REQSTACK()
```

### Event 65535.15

#### Metadata

| Field        | Value    |
|--------------|----------|
| Entrypoint   | 0x0481   |
| Data Size    | 13 bytes |
| Instructions | 3        |

```
      00 01 02 03 04 05 06 07  08 09 0A 0B 0C 0D 0E 0F
      -- -- -- -- -- -- -- --  -- -- -- -- -- -- -- --
0480:    6E F0 FF FF 7F 4D 80  99 F0 FF FF 7F 00         n....M.......  
```

#### Opcodes

```
  0: 0x0481 [0x6E] LocalPlayer uses emote 36*
  1: 0x0488 [0x99] Wait for LocalPlayer animation to complete
  2: 0x048D [0x00] END_REQSTACK()
```

### Event 65535.16

#### Metadata

| Field        | Value    |
|--------------|----------|
| Entrypoint   | 0x048E   |
| Data Size    | 27 bytes |
| Instructions | 5        |

```
      00 01 02 03 04 05 06 07  08 09 0A 0B 0C 0D 0E 0F
      -- -- -- -- -- -- -- --  -- -- -- -- -- -- -- --
0480:                                            03 03                ..
0490: 00 07 7F 1A 3D 03 66 04  00 F8 FF FF 7F F8 FF FF  ....=.f.........
04A0: 7F 61 74 70 31 1C 4E 80  00                       .atp1.N..       
```

#### Opcodes

```
  0: 0x048E [0x03] ExtData[1]->WorkLocal[3] = Entity->Race
  1: 0x0493 [0x1A] CALL_SUBROUTINE(address=0x033D)
  2: 0x0496 [0x66] LOAD_EXT_SCHEDULER_MAIN: Load scheduler "atp1" with entities [EventEntity, EventEntity], work=ExtData[1]->WorkLocal[4]
  3: 0x04A5 [0x1C] WAIT(300* ticks)
  4: 0x04A8 [0x00] END_REQSTACK()
```

### Event 65535.17

#### Metadata

| Field        | Value    |
|--------------|----------|
| Entrypoint   | 0x04A9   |
| Data Size    | 16 bytes |
| Instructions | 3        |

```
      00 01 02 03 04 05 06 07  08 09 0A 0B 0C 0D 0E 0F
      -- -- -- -- -- -- -- --  -- -- -- -- -- -- -- --
04A0:                             6C F0 FF FF 7F 01 80           l......
04B0: 00 80 92 01 F0 FF FF 7F  00                       .........       
```

#### Opcodes

```
  0: 0x04A9 [0x6C] FADE_ENTITY_COLOR(entity_id=LocalPlayer, end_alpha=0*, fade_time=1*)
  1: 0x04B2 [0x92] LocalPlayer->Render.Flags3 ^= 0x01
  2: 0x04B8 [0x00] END_REQSTACK()
```

### Event 65535.18

#### Metadata

| Field        | Value    |
|--------------|----------|
| Entrypoint   | 0x04B9   |
| Data Size    | 16 bytes |
| Instructions | 3        |

```
      00 01 02 03 04 05 06 07  08 09 0A 0B 0C 0D 0E 0F
      -- -- -- -- -- -- -- --  -- -- -- -- -- -- -- --
04B0:                             6C F0 FF FF 7F 4F 80           l....O.
04C0: 00 80 92 00 F0 FF FF 7F  00                       .........       
```

#### Opcodes

```
  0: 0x04B9 [0x6C] FADE_ENTITY_COLOR(entity_id=LocalPlayer, end_alpha=128*, fade_time=1*)
  1: 0x04C2 [0x92] LocalPlayer->Render.Flags3 = Flags3  // No change (flag=0)
  2: 0x04C8 [0x00] END_REQSTACK()
```

### Event 65535.19

#### Metadata

| Field        | Value    |
|--------------|----------|
| Entrypoint   | 0x04C9   |
| Data Size    | 38 bytes |
| Instructions | 5        |

```
      00 01 02 03 04 05 06 07  08 09 0A 0B 0C 0D 0E 0F
      -- -- -- -- -- -- -- --  -- -- -- -- -- -- -- --
04C0:                             22 00 2F 00 F8 FF FF           "./....
04D0: 7F B6 0B 50 80 01 80 51  80 52 80 53 80 53 80 53  ...P...Q.R.S.S.S
04E0: 80 54 80 55 80 6C F8 FF  FF 7F 56 80 00 80 00     .T.U.l....V.... 
```

#### Opcodes

```
  0: 0x04C9 [0x22] ENTITY_HIDE_FLAG(enabled=0x00)
  1: 0x04CB [0x2F] EventEntity->Render.Flags0 &= ~0x80000 // Bit 19
  2: 0x04D1 [0xB6] ENTITY_APPEARANCE_HANDLER(case=Full entity look, race=8*, hair=0*, head=145*, body=79*, hands=76*, legs=76*, feet=76*, main=201*, sub=262*)
  3: 0x04E5 [0x6C] FADE_ENTITY_COLOR(entity_id=EventEntity, end_alpha=48*, fade_time=1*)
  4: 0x04EE [0x00] END_REQSTACK()
```

### Event 65535.20

#### Metadata

| Field        | Value    |
|--------------|----------|
| Entrypoint   | 0x04EF   |
| Data Size    | 38 bytes |
| Instructions | 5        |

```
      00 01 02 03 04 05 06 07  08 09 0A 0B 0C 0D 0E 0F
      -- -- -- -- -- -- -- --  -- -- -- -- -- -- -- --
04E0:                                               22                 "
04F0: 00 2F 00 F8 FF FF 7F B6  0B 39 80 01 80 51 80 52  ./.......9...Q.R
0500: 80 53 80 53 80 53 80 54  80 57 80 6C F8 FF FF 7F  .S.S.S.T.W.l....
0510: 58 80 00 80 00                                    X....           
```

#### Opcodes

```
  0: 0x04EF [0x22] ENTITY_HIDE_FLAG(enabled=0x00)
  1: 0x04F1 [0x2F] EventEntity->Render.Flags0 &= ~0x80000 // Bit 19
  2: 0x04F7 [0xB6] ENTITY_APPEARANCE_HANDLER(case=Full entity look, race=5*, hair=0*, head=145*, body=79*, hands=76*, legs=76*, feet=76*, main=201*, sub=24*)
  3: 0x050B [0x6C] FADE_ENTITY_COLOR(entity_id=EventEntity, end_alpha=64*, fade_time=1*)
  4: 0x0514 [0x00] END_REQSTACK()
```

### Event 65535.21

#### Metadata

| Field        | Value    |
|--------------|----------|
| Entrypoint   | 0x0515   |
| Data Size    | 38 bytes |
| Instructions | 5        |

```
      00 01 02 03 04 05 06 07  08 09 0A 0B 0C 0D 0E 0F
      -- -- -- -- -- -- -- --  -- -- -- -- -- -- -- --
0510:                22 00 2F  00 F8 FF FF 7F B6 0B 1A       "./........
0520: 80 01 80 51 80 52 80 53  80 53 80 53 80 54 80 57  ...Q.R.S.S.S.T.W
0530: 80 6C F8 FF FF 7F 59 80  00 80 00                 .l....Y....     
```

#### Opcodes

```
  0: 0x0515 [0x22] ENTITY_HIDE_FLAG(enabled=0x00)
  1: 0x0517 [0x2F] EventEntity->Render.Flags0 &= ~0x80000 // Bit 19
  2: 0x051D [0xB6] ENTITY_APPEARANCE_HANDLER(case=Full entity look, race=4*, hair=0*, head=145*, body=79*, hands=76*, legs=76*, feet=76*, main=201*, sub=24*)
  3: 0x0531 [0x6C] FADE_ENTITY_COLOR(entity_id=EventEntity, end_alpha=80*, fade_time=1*)
  4: 0x053A [0x00] END_REQSTACK()
```

### Event 65535.22

#### Metadata

| Field        | Value    |
|--------------|----------|
| Entrypoint   | 0x053B   |
| Data Size    | 15 bytes |
| Instructions | 5        |

```
      00 01 02 03 04 05 06 07  08 09 0A 0B 0C 0D 0E 0F
      -- -- -- -- -- -- -- --  -- -- -- -- -- -- -- --
0530:                                   32 5A 80 1F 00             2Z...
0540: 5B 80 5C 80 0D 80 1F 01  6F 00                    [.\.....o.      
```

#### Opcodes

```
  0: 0x053B [0x32] ExtData[1]->MainSpeed = 13* * 0.1
  1: 0x053E [0x1F] MOVE_ENTITY: EventEntity moves to X=-376.180*, Z=-102.651*, Y=-51.999*
  2: 0x0546 [0x1F] MOVE_ENTITY: Update entity position (mode=1)
  3: 0x0548 [0x6F] WAIT_FRAME_DELAY: Yield until WaitTime reaches zero
  4: 0x0549 [0x00] END_REQSTACK()
```

### Event 65535.23

#### Metadata

| Field        | Value    |
|--------------|----------|
| Entrypoint   | 0x054A   |
| Data Size    | 36 bytes |
| Instructions | 8        |

```
      00 01 02 03 04 05 06 07  08 09 0A 0B 0C 0D 0E 0F
      -- -- -- -- -- -- -- --  -- -- -- -- -- -- -- --
0540:                                1C 5D 80 32 3F 80            .].2?.
0550: 1F 00 5E 80 5F 80 0D 80  1F 01 4A B1 B2 09 01 AC  ..^._.....J.....
0560: B2 09 01 1F 00 60 80 61  80 0D 80 1F 01 00        .....`.a......  
```

#### Opcodes

```
  0: 0x054A [0x1C] WAIT(90* ticks)
  1: 0x054D [0x32] ExtData[1]->MainSpeed = 40* * 0.1
  2: 0x0550 [0x1F] MOVE_ENTITY: EventEntity moves to X=-369.467*, Z=-106.370*, Y=-51.999*
  3: 0x0558 [0x1F] MOVE_ENTITY: Update entity position (mode=1)
  4: 0x055A [0x4A] Unnamed NPC (ID: 17412785/0x0109B2B1) looks at Volker (ID: 17412780/0x0109B2AC)
  5: 0x0563 [0x1F] MOVE_ENTITY: EventEntity moves to X=-359.685*, Z=-105.292*, Y=-51.999*
  6: 0x056B [0x1F] MOVE_ENTITY: Update entity position (mode=1)
  7: 0x056D [0x00] END_REQSTACK()
```

### Event 65535.24

#### Metadata

| Field        | Value    |
|--------------|----------|
| Entrypoint   | 0x056E   |
| Data Size    | 70 bytes |
| Instructions | 15       |

```
      00 01 02 03 04 05 06 07  08 09 0A 0B 0C 0D 0E 0F
      -- -- -- -- -- -- -- --  -- -- -- -- -- -- -- --
0560:                                            32 5A                2Z
0570: 80 1F 00 62 80 63 80 0D  80 1F 01 6F 1C 30 80 79  ...b.c.....o.0.y
0580: 00 F0 FF FF 7F C1 B2 09  01 1C 64 80 BA C1 B2 09  ..........d.....
0590: 01 65 80 66 80 05 80 01  80 1C 64 80 7B F0 FF FF  .e.f......d.{...
05A0: 7F 1C 5D 80 6E F0 FF FF  7F 67 80 99 F0 FF FF 7F  ..].n....g......
05B0: 1C 5D 80 00                                       .]..            
```

#### Opcodes

```
  0: 0x056E [0x32] ExtData[1]->MainSpeed = 13* * 0.1
  1: 0x0571 [0x1F] MOVE_ENTITY: EventEntity moves to X=-369.877*, Z=-102.109*, Y=-51.999*
  2: 0x0579 [0x1F] MOVE_ENTITY: Update entity position (mode=1)
  3: 0x057B [0x6F] WAIT_FRAME_DELAY: Yield until WaitTime reaches zero
  4: 0x057C [0x1C] WAIT(60* ticks)
  5: 0x057F [0x79] LocalPlayer looks at noname (ID: 17412801/0x0109B2C1) (Basic look)
  6: 0x0589 [0x1C] WAIT(120* ticks)
  7: 0x058C [0xBA] SET_ENTITY_POSITION(entity_id=noname (ID: 17412801/0x0109B2C1), pos_x=-373.293*, pos_z=-105.588*, pos_y=-52.000*, direction=0.0°*)
  8: 0x0599 [0x1C] WAIT(120* ticks)
  9: 0x059C [0x7B] LocalPlayer stops talking
 10: 0x05A1 [0x1C] WAIT(90* ticks)
 11: 0x05A4 [0x6E] LocalPlayer uses emote 32*
 12: 0x05AB [0x99] Wait for LocalPlayer animation to complete
 13: 0x05B0 [0x1C] WAIT(90* ticks)
 14: 0x05B3 [0x00] END_REQSTACK()
```

### Event 65535.25

#### Metadata

| Field        | Value    |
|--------------|----------|
| Entrypoint   | 0x05B4   |
| Data Size    | 27 bytes |
| Instructions | 7        |

```
      00 01 02 03 04 05 06 07  08 09 0A 0B 0C 0D 0E 0F
      -- -- -- -- -- -- -- --  -- -- -- -- -- -- -- --
05B0:             1C 30 80 32  3F 80 1F 00 68 80 69 80      .0.2?...h.i.
05C0: 0D 80 1F 01 1F 00 6A 80  69 80 0D 80 1F 01 00     ......j.i...... 
```

#### Opcodes

```
  0: 0x05B4 [0x1C] WAIT(60* ticks)
  1: 0x05B7 [0x32] ExtData[1]->MainSpeed = 40* * 0.1
  2: 0x05BA [0x1F] MOVE_ENTITY: EventEntity moves to X=-364.000*, Z=-99.000*, Y=-51.999*
  3: 0x05C2 [0x1F] MOVE_ENTITY: Update entity position (mode=1)
  4: 0x05C4 [0x1F] MOVE_ENTITY: EventEntity moves to X=-349.000*, Z=-99.000*, Y=-51.999*
  5: 0x05CC [0x1F] MOVE_ENTITY: Update entity position (mode=1)
  6: 0x05CE [0x00] END_REQSTACK()
```
