# Event 301

## Metadata

| Field           | Value    |
|-----------------|----------|
| Event Index     | 3/4      |
| Offset          | 0x00CD   |
| Data Size       | 38 bytes |
| Calculated Size | 38 bytes |
| Instructions    | 14       |

```
      00 01 02 03 04 05 06 07  08 09 0A 0B 0C 0D 0E 0F
      -- -- -- -- -- -- -- --  -- -- -- -- -- -- -- --
00C0:                                         42 03 03               B..
00D0: 10 00 80 03 04 10 01 80  03 05 10 02 80 03 08 10  ................
00E0: 03 80 1A 19 01 1D 17 80  23 1D 18 80 23 1D 15 80  ........#...#...
00F0: 23 21 00                                          #!.             
```

## Opcodes

```
  0: 0x00CD [0x42] SET_CLI_EVENT_CANCEL_DATA()
  1: 0x00CE [0x03] Work_Zone[3] = 1024*
  2: 0x00D3 [0x03] Work_Zone[4] = 1025*
  3: 0x00D8 [0x03] Work_Zone[5] = 1026*
  4: 0x00DD [0x03] Work_Zone[8] = 9*
  5: 0x00E2 [0x1A] CALL_SUBROUTINE(address=0x0119)
  6: 0x00E5 [0x1D] PRINT_EVENT_MESSAGE(message_id=7392*)
    → "\u0001\u0005#\u0002\u0001\u0000\u0000...\u0001\u0005#\u0002\u0002\u0000\u0000...and \u0001\u0005#\u0002\u0003\u0000\u0000. Yes, they seem to be authentic.\u007F1\u0000\u0007"
  7: 0x00E8 [0x23] WAIT_FOR_DIALOG_INTERACTION
  8: 0x00E9 [0x1D] PRINT_EVENT_MESSAGE(message_id=7393*)
    → "I have issued \u0001\u00056\u0002\u0006\u0000\u0000 under the name of \u0008. It has been approved for immediate use.\u007F1\u0000\u0007"
  9: 0x00EC [0x23] WAIT_FOR_DIALOG_INTERACTION
 10: 0x00ED [0x1D] PRINT_EVENT_MESSAGE(message_id=7397*)
    → "We hope you enjoy flying with us!\u007F1\u0000\u0007"
 11: 0x00F0 [0x23] WAIT_FOR_DIALOG_INTERACTION
 12: 0x00F1 [0x21] END_EVENT
 13: 0x00F2 [0x00] END_REQSTACK()
```
