# Event 65535

## Metadata

| Field           | Value    |
|-----------------|----------|
| Event Index     | 8/74     |
| Offset          | 0x004C   |
| Data Size       | 37 bytes |
| Calculated Size | 37 bytes |
| Instructions    | 8        |

```
      00 01 02 03 04 05 06 07  08 09 0A 0B 0C 0D 0E 0F
      -- -- -- -- -- -- -- --  -- -- -- -- -- -- -- --
0040:                                      37 14 80 15              7...
0050: 80 02 80 16 80 1C 17 80  32 18 80 1F 00 19 80 1A  ........2.......
0060: 80 1B 80 1F 01 6F 79 00  F8 FF FF 7F 03 C0 0F 01  .....oy.........
0070: 00                                                .               
```

## Opcodes

```
  0: 0x004C [0x37] UPDATE_EVENT_POSITION_AND_DIR: x=107.269*, z=-12.039*, y=-7.086*, direction=357.4°*
  1: 0x0055 [0x1C] WAIT(1* ticks)
  2: 0x0058 [0x32] ExtData[1]->MainSpeed = 10* * 0.1
  3: 0x005B [0x1F] MOVE_ENTITY: EventEntity moves to X=119.148*, Z=-12.008*, Y=-8.009*
  4: 0x0063 [0x1F] MOVE_ENTITY: Update entity position (mode=1)
  5: 0x0065 [0x6F] WAIT_FRAME_DELAY: Yield until WaitTime reaches zero
  6: 0x0066 [0x79] EventEntity looks at Gilgamesh (ID: 17809411/0x010FC003) (Basic look)
  7: 0x0070 [0x00] END_REQSTACK()
```
