# Event 65535

## Metadata

| Field           | Value    |
|-----------------|----------|
| Event Index     | 6/6      |
| Offset          | 0x0025   |
| Data Size       | 43 bytes |
| Calculated Size | 43 bytes |
| Instructions    | 11       |

```
      00 01 02 03 04 05 06 07  08 09 0A 0B 0C 0D 0E 0F
      -- -- -- -- -- -- -- --  -- -- -- -- -- -- -- --
0020:                1E 88 A0  0E 01 6F 70 1C 09 80 32       .....op...2
0030: 0A 80 1F 00 0B 80 0C 80  0D 80 1F 01 6F 1C 0E 80  ............o...
0040: 66 0F 80 09 A0 0E 01 09  A0 0E 01 73 68 61 30 00  f..........sha0.
```

## Opcodes

```
  0: 0x0025 [0x1E] EventEntity looks at Unnamed NPC (ID: 17735816/0x010EA088) and starts talking
  1: 0x002A [0x6F] WAIT_FRAME_DELAY: Yield until WaitTime reaches zero
  2: 0x002B [0x70] WAIT_ENTITY_RENDER_FLAG: Wait while EventEntity->Render.Flags3 bit 2 is set (cancel turn if not)
  3: 0x002C [0x1C] WAIT(6* ticks)
  4: 0x002F [0x32] ExtData[1]->MainSpeed = 38* * 0.1
  5: 0x0032 [0x1F] MOVE_ENTITY: EventEntity moves to X=-18.686*, Z=-123.080*, Y=-0.999*
  6: 0x003A [0x1F] MOVE_ENTITY: Update entity position (mode=1)
  7: 0x003C [0x6F] WAIT_FRAME_DELAY: Yield until WaitTime reaches zero
  8: 0x003D [0x1C] WAIT(15* ticks)
  9: 0x0040 [0x66] LOAD_EXT_SCHEDULER_MAIN(work_offset=69*, entity1=Wyvern Tail (ID: 17735689/0x010EA009), entity2=Wyvern Tail (ID: 17735689/0x010EA009), action="sha0")
 10: 0x004F [0x00] END_REQSTACK()
```
