# 17396154 - Ajido-Marujido

## Common Data

| Field            | Value                    |
|------------------|--------------------------|
| Zone             | Castle Oztroja (ID: 151) |
| Block Size       | 704 bytes                |
| Total Events     | 36                       |
| References Count | 47                       |

## List of Events

| Event ID                   | Entrypoint   |   Size |   Instructions |
|----------------------------|--------------|--------|----------------|
| [65535](#event-65535)      | 0x0000       |      1 |              1 |
| [65535.1](#event-655351)   | 0x0001       |     16 |              2 |
| [65535.2](#event-655352)   | 0x0011       |     14 |              2 |
| [65535.3](#event-655353)   | 0x001F       |     22 |              3 |
| [65535.4](#event-655354)   | 0x0035       |     20 |              3 |
| [65535.5](#event-655355)   | 0x0049       |     16 |              2 |
| [65535.6](#event-655356)   | 0x0059       |     14 |              2 |
| [65535.7](#event-655357)   | 0x0067       |     22 |              3 |
| [65535.8](#event-655358)   | 0x007D       |     20 |              3 |
| [65535.9](#event-655359)   | 0x0091       |      9 |              3 |
| [43](#event-43)            | 0x009A       |      1 |              1 |
| [65535.10](#event-6553510) | 0x009B       |     14 |              4 |
| [65535.11](#event-6553511) | 0x00A9       |      5 |              3 |
| [65535.12](#event-6553512) | 0x00AE       |      5 |              3 |
| [65535.13](#event-6553513) | 0x00B3       |      5 |              3 |
| [65535.14](#event-6553514) | 0x00B8       |      5 |              3 |
| [65535.15](#event-6553515) | 0x00BD       |      5 |              3 |
| [65535.16](#event-6553516) | 0x00C2       |      5 |              3 |
| [65535.17](#event-6553517) | 0x00C7       |      5 |              3 |
| [65535.18](#event-6553518) | 0x00CC       |      5 |              3 |
| [65535.19](#event-6553519) | 0x00D1       |      5 |              3 |
| [65535.20](#event-6553520) | 0x00D6       |      5 |              3 |
| [65535.21](#event-6553521) | 0x00DB       |      5 |              3 |
| [65535.22](#event-6553522) | 0x00E0       |      5 |              3 |
| [65535.23](#event-6553523) | 0x00E5       |      5 |              3 |
| [65535.24](#event-6553524) | 0x00EA       |      5 |              3 |
| [65535.25](#event-6553525) | 0x00EF       |      5 |              3 |
| [65535.26](#event-6553526) | 0x00F4       |      5 |              3 |
| [1](#event-1)              | 0x00F9       |      1 |              1 |
| [65535.27](#event-6553527) | 0x00FA       |      1 |              1 |
| [65535.28](#event-6553528) | 0x00FB       |     10 |              2 |
| [65535.29](#event-6553529) | 0x0105       |     10 |              2 |
| [65535.30](#event-6553530) | 0x010F       |     70 |             16 |
| [65535.31](#event-6553531) | 0x0155       |      5 |              3 |
| [65535.32](#event-6553532) | 0x015A       |      5 |              3 |
| [65535.33](#event-6553533) | 0x015F       |      5 |              3 |

## DAT References (imed_data)

|   Index | Hex Value   |   Dec Value |
|---------|-------------|-------------|
|       0 | 0x00A6      |         166 |
|       1 | 0x001E      |          30 |
|       2 | 0x000D      |          13 |
|       3 | 0x55F5      |       22005 |
|       4 | 0xFFFFA2F8  |  4294943480 |
|       5 | 0x5D91      |       23953 |
|       6 | 0x1CF7      |        7415 |
|       7 | 0x1CF8      |        7416 |
|       8 | 0x1CF9      |        7417 |
|       9 | 0x1CFA      |        7418 |
|      10 | 0x1CFB      |        7419 |
|      11 | 0x1CFD      |        7421 |
|      12 | 0x1CFE      |        7422 |
|      13 | 0x1CFF      |        7423 |
|      14 | 0x1D00      |        7424 |
|      15 | 0x1D01      |        7425 |
|      16 | 0x1D03      |        7427 |
|      17 | 0x1D04      |        7428 |
|      18 | 0x1D05      |        7429 |
|      19 | 0x1D06      |        7430 |
|      20 | 0x1D07      |        7431 |
|      21 | 0x1D08      |        7432 |
|      22 | 0xFFFE2255  |  4294845013 |
|      23 | 0x18B02     |      101122 |
|      24 | 0xFFFEEBA4  |  4294896548 |
|      25 | 0x0F95      |        3989 |
|      26 | 0xFFFE79A1  |  4294867361 |
|      27 | 0x176BF     |       95935 |
|      28 | 0xFFFEE6C1  |  4294895297 |
|      29 | 0x0C70      |        3184 |
|      30 | 0x0028      |          40 |
|      31 | 0xFFFE3EE4  |  4294852324 |
|      32 | 0x19534     |      103732 |
|      33 | 0xFFFE47B5  |  4294854581 |
|      34 | 0x17970     |       96624 |
|      35 | 0xFFFE6493  |  4294861971 |
|      36 | 0x16694     |       91796 |
|      37 | 0xFFFEE6C0  |  4294895296 |
|      38 | 0xFFFE7795  |  4294866837 |
|      39 | 0x16E73     |       93811 |
|      40 | 0xFFFE796C  |  4294867308 |
|      41 | 0x1724E     |       94798 |
|      42 | 0xFFFE7A18  |  4294867480 |
|      43 | 0x17FBC     |       98236 |
|      44 | 0x1C55      |        7253 |
|      45 | 0x1C60      |        7264 |
|      46 | 0x1C61      |        7265 |

## String References

- **7253**: Shoo! Shoo! Keep your grimy claws off of Windurst Orastery minister, Ajido-Marujido!
- **7264**: The towers are all damaged! How do you explain magic still being drained from the plains of Sarutabaruta?
- **7265**: What about you Yagudo? What are those things that you continue digging? Those stones...maybe they are the cause of all this?
- **7415**: Oh!
- **7416**: Why, hello again. What are you doing here?
- **7417**: Oww...
- **7418**: I'm resting right here. I never thought the day would come that I'd find a place I couldn't sneak into.
- **7419**: Say, you didn't follow me here out of worry, did you?
- **7421**: Hah! The only reason you're here is because that Sibyl Guard Semih Lafihna ordered you to follow me, right?
- **7422**: I see. The only reason you're here is because that Sibyl Guard Semih Lafihna told you to follow me, right?
- **7423**: She may have been raised by the Star Sibyl, but she's just a Mithra. She has no idea how serious this is.
- **7424**: You've heard the legends of the Star Sibyl, right?
- **7425**: In days of old, a shining star guided us to this place. When the star returned to the heavens, the light that lit Sarutabaruta faded, and darkness fell on the land.
- **7427**: She also left a historical text for future Sibyls. They found it recently... The Book of the Gods.
- **7428**: And still the Star Sibyl is silentaru.
- **7429**: That's why I came here... To find another witness of time. I wanted to seek out the Yagudo.
- **7430**: They sure gave me a hearty reception, but the Yagudo king told me something...
- **7431**: Anyway, tell Semih Lafihna that the head of the Orastery, Ajido-Marujido, is getting close, slowly but surely.
- **7432**: Well, I'll see you around. Back to Windurst for me.

## Events

### Event 65535

#### Metadata

| Field        | Value   |
|--------------|---------|
| Entrypoint   | 0x0000  |
| Data Size    | 1 bytes |
| Instructions | 1       |

```
      00 01 02 03 04 05 06 07  08 09 0A 0B 0C 0D 0E 0F
      -- -- -- -- -- -- -- --  -- -- -- -- -- -- -- --
0000: 00                                                .               
```

#### Opcodes

```
  0: 0x0000 [0x00] END_REQSTACK()
```

### Event 65535.1

#### Metadata

| Field        | Value    |
|--------------|----------|
| Entrypoint   | 0x0001   |
| Data Size    | 16 bytes |
| Instructions | 2        |

```
      00 01 02 03 04 05 06 07  08 09 0A 0B 0C 0D 0E 0F
      -- -- -- -- -- -- -- --  -- -- -- -- -- -- -- --
0000:    5B 00 80 F8 FF FF 7F  F8 FF FF 7F 6B 73 77 30   [..........ksw0
0010: 00                                                .               
```

#### Opcodes

```
  0: 0x0001 [0x5B] LOAD_EXT_SCHEDULER: Load scheduler "ksw0" with entities [EventEntity, EventEntity], work=166*
  1: 0x0010 [0x00] END_REQSTACK()
```

### Event 65535.2

#### Metadata

| Field        | Value    |
|--------------|----------|
| Entrypoint   | 0x0011   |
| Data Size    | 14 bytes |
| Instructions | 2        |

```
      00 01 02 03 04 05 06 07  08 09 0A 0B 0C 0D 0E 0F
      -- -- -- -- -- -- -- --  -- -- -- -- -- -- -- --
0010:    53 F8 FF FF 7F F8 FF  FF 7F 6B 73 77 30 00      S........ksw0. 
```

#### Opcodes

```
  0: 0x0011 [0x53] WAIT_SCHEDULER_TASK: Wait for scheduler "ksw0" with entities [EventEntity, EventEntity]
  1: 0x001E [0x00] END_REQSTACK()
```

### Event 65535.3

#### Metadata

| Field        | Value    |
|--------------|----------|
| Entrypoint   | 0x001F   |
| Data Size    | 22 bytes |
| Instructions | 3        |

```
      00 01 02 03 04 05 06 07  08 09 0A 0B 0C 0D 0E 0F
      -- -- -- -- -- -- -- --  -- -- -- -- -- -- -- --
0010:                                               81                 .
0020: 00 F8 FF FF 7F 5B 00 80  F8 FF FF 7F F8 FF FF 7F  .....[..........
0030: 6B 73 74 30 00                                    kst0.           
```

#### Opcodes

```
  0: 0x001F [0x81] SET_ENTITY_BLINKING(blink_flag=0x00, entity=EventEntity)
  1: 0x0025 [0x5B] LOAD_EXT_SCHEDULER: Load scheduler "kst0" with entities [EventEntity, EventEntity], work=166*
  2: 0x0034 [0x00] END_REQSTACK()
```

### Event 65535.4

#### Metadata

| Field        | Value    |
|--------------|----------|
| Entrypoint   | 0x0035   |
| Data Size    | 20 bytes |
| Instructions | 3        |

```
      00 01 02 03 04 05 06 07  08 09 0A 0B 0C 0D 0E 0F
      -- -- -- -- -- -- -- --  -- -- -- -- -- -- -- --
0030:                53 F8 FF  FF 7F F8 FF FF 7F 6B 73       S........ks
0040: 74 30 81 01 F8 FF FF 7F  00                       t0.......       
```

#### Opcodes

```
  0: 0x0035 [0x53] WAIT_SCHEDULER_TASK: Wait for scheduler "kst0" with entities [EventEntity, EventEntity]
  1: 0x0042 [0x81] SET_ENTITY_BLINKING(blink_flag=0x01, entity=EventEntity)
  2: 0x0048 [0x00] END_REQSTACK()
```

### Event 65535.5

#### Metadata

| Field        | Value    |
|--------------|----------|
| Entrypoint   | 0x0049   |
| Data Size    | 16 bytes |
| Instructions | 2        |

```
      00 01 02 03 04 05 06 07  08 09 0A 0B 0C 0D 0E 0F
      -- -- -- -- -- -- -- --  -- -- -- -- -- -- -- --
0040:                             5B 00 80 F8 FF FF 7F           [......
0050: F8 FF FF 7F 6B 73 74 31  00                       ....kst1.       
```

#### Opcodes

```
  0: 0x0049 [0x5B] LOAD_EXT_SCHEDULER: Load scheduler "kst1" with entities [EventEntity, EventEntity], work=166*
  1: 0x0058 [0x00] END_REQSTACK()
```

### Event 65535.6

#### Metadata

| Field        | Value    |
|--------------|----------|
| Entrypoint   | 0x0059   |
| Data Size    | 14 bytes |
| Instructions | 2        |

```
      00 01 02 03 04 05 06 07  08 09 0A 0B 0C 0D 0E 0F
      -- -- -- -- -- -- -- --  -- -- -- -- -- -- -- --
0050:                             53 F8 FF FF 7F F8 FF           S......
0060: FF 7F 6B 73 74 31 00                              ..kst1.         
```

#### Opcodes

```
  0: 0x0059 [0x53] WAIT_SCHEDULER_TASK: Wait for scheduler "kst1" with entities [EventEntity, EventEntity]
  1: 0x0066 [0x00] END_REQSTACK()
```

### Event 65535.7

#### Metadata

| Field        | Value    |
|--------------|----------|
| Entrypoint   | 0x0067   |
| Data Size    | 22 bytes |
| Instructions | 3        |

```
      00 01 02 03 04 05 06 07  08 09 0A 0B 0C 0D 0E 0F
      -- -- -- -- -- -- -- --  -- -- -- -- -- -- -- --
0060:                      81  00 F8 FF FF 7F 5B 00 80         ......[..
0070: F8 FF FF 7F F8 FF FF 7F  6B 75 70 30 00           ........kup0.   
```

#### Opcodes

```
  0: 0x0067 [0x81] SET_ENTITY_BLINKING(blink_flag=0x00, entity=EventEntity)
  1: 0x006D [0x5B] LOAD_EXT_SCHEDULER: Load scheduler "kup0" with entities [EventEntity, EventEntity], work=166*
  2: 0x007C [0x00] END_REQSTACK()
```

### Event 65535.8

#### Metadata

| Field        | Value    |
|--------------|----------|
| Entrypoint   | 0x007D   |
| Data Size    | 20 bytes |
| Instructions | 3        |

```
      00 01 02 03 04 05 06 07  08 09 0A 0B 0C 0D 0E 0F
      -- -- -- -- -- -- -- --  -- -- -- -- -- -- -- --
0070:                                         53 F8 FF               S..
0080: FF 7F F8 FF FF 7F 6B 75  70 30 81 01 F8 FF FF 7F  ......kup0......
0090: 00                                                .               
```

#### Opcodes

```
  0: 0x007D [0x53] WAIT_SCHEDULER_TASK: Wait for scheduler "kup0" with entities [EventEntity, EventEntity]
  1: 0x008A [0x81] SET_ENTITY_BLINKING(blink_flag=0x01, entity=EventEntity)
  2: 0x0090 [0x00] END_REQSTACK()
```

### Event 65535.9

#### Metadata

| Field        | Value   |
|--------------|---------|
| Entrypoint   | 0x0091  |
| Data Size    | 9 bytes |
| Instructions | 3       |

```
      00 01 02 03 04 05 06 07  08 09 0A 0B 0C 0D 0E 0F
      -- -- -- -- -- -- -- --  -- -- -- -- -- -- -- --
0090:    5E 69 64 6C 30 1C 01  80 00                     ^idl0....      
```

#### Opcodes

```
  0: 0x0091 [0x5E] EventEntity goes idle (kills current action) (animation: "idl0")
  1: 0x0096 [0x1C] WAIT(30* ticks)
  2: 0x0099 [0x00] END_REQSTACK()
```

### Event 43

#### Metadata

| Field        | Value   |
|--------------|---------|
| Entrypoint   | 0x009A  |
| Data Size    | 1 bytes |
| Instructions | 1       |

```
      00 01 02 03 04 05 06 07  08 09 0A 0B 0C 0D 0E 0F
      -- -- -- -- -- -- -- --  -- -- -- -- -- -- -- --
0090:                                00                           .     
```

#### Opcodes

```
  0: 0x009A [0x00] END_REQSTACK()
```

### Event 65535.10

#### Metadata

| Field        | Value    |
|--------------|----------|
| Entrypoint   | 0x009B   |
| Data Size    | 14 bytes |
| Instructions | 4        |

```
      00 01 02 03 04 05 06 07  08 09 0A 0B 0C 0D 0E 0F
      -- -- -- -- -- -- -- --  -- -- -- -- -- -- -- --
0090:                                   32 02 80 1F 00             2....
00A0: 03 80 04 80 05 80 1F 01  00                       .........       
```

#### Opcodes

```
  0: 0x009B [0x32] ExtData[1]->MainSpeed = 13* * 0.1
  1: 0x009E [0x1F] MOVE_ENTITY: EventEntity moves to X=22.005*, Z=-23.816*, Y=23.953*
  2: 0x00A6 [0x1F] MOVE_ENTITY: Update entity position (mode=1)
  3: 0x00A8 [0x00] END_REQSTACK()
```

### Event 65535.11

#### Metadata

| Field        | Value   |
|--------------|---------|
| Entrypoint   | 0x00A9  |
| Data Size    | 5 bytes |
| Instructions | 3       |

```
      00 01 02 03 04 05 06 07  08 09 0A 0B 0C 0D 0E 0F
      -- -- -- -- -- -- -- --  -- -- -- -- -- -- -- --
00A0:                             1D 06 80 23 00                 ...#.  
```

#### Opcodes

```
  0: 0x00A9 [0x1D] PRINT_EVENT_MESSAGE(message_id=7415*)
    → "Oh!"
  1: 0x00AC [0x23] WAIT_FOR_DIALOG_INTERACTION
  2: 0x00AD [0x00] END_REQSTACK()
```

### Event 65535.12

#### Metadata

| Field        | Value   |
|--------------|---------|
| Entrypoint   | 0x00AE  |
| Data Size    | 5 bytes |
| Instructions | 3       |

```
      00 01 02 03 04 05 06 07  08 09 0A 0B 0C 0D 0E 0F
      -- -- -- -- -- -- -- --  -- -- -- -- -- -- -- --
00A0:                                            1D 07                ..
00B0: 80 23 00                                          .#.             
```

#### Opcodes

```
  0: 0x00AE [0x1D] PRINT_EVENT_MESSAGE(message_id=7416*)
    → "Why, hello again. What are you doing here?"
  1: 0x00B1 [0x23] WAIT_FOR_DIALOG_INTERACTION
  2: 0x00B2 [0x00] END_REQSTACK()
```

### Event 65535.13

#### Metadata

| Field        | Value   |
|--------------|---------|
| Entrypoint   | 0x00B3  |
| Data Size    | 5 bytes |
| Instructions | 3       |

```
      00 01 02 03 04 05 06 07  08 09 0A 0B 0C 0D 0E 0F
      -- -- -- -- -- -- -- --  -- -- -- -- -- -- -- --
00B0:          1D 08 80 23 00                              ...#.        
```

#### Opcodes

```
  0: 0x00B3 [0x1D] PRINT_EVENT_MESSAGE(message_id=7417*)
    → "Oww..."
  1: 0x00B6 [0x23] WAIT_FOR_DIALOG_INTERACTION
  2: 0x00B7 [0x00] END_REQSTACK()
```

### Event 65535.14

#### Metadata

| Field        | Value   |
|--------------|---------|
| Entrypoint   | 0x00B8  |
| Data Size    | 5 bytes |
| Instructions | 3       |

```
      00 01 02 03 04 05 06 07  08 09 0A 0B 0C 0D 0E 0F
      -- -- -- -- -- -- -- --  -- -- -- -- -- -- -- --
00B0:                          1D 09 80 23 00                   ...#.   
```

#### Opcodes

```
  0: 0x00B8 [0x1D] PRINT_EVENT_MESSAGE(message_id=7418*)
    → "I'm resting right here. I never thought the day would come that I'd find a place I couldn't sneak into."
  1: 0x00BB [0x23] WAIT_FOR_DIALOG_INTERACTION
  2: 0x00BC [0x00] END_REQSTACK()
```

### Event 65535.15

#### Metadata

| Field        | Value   |
|--------------|---------|
| Entrypoint   | 0x00BD  |
| Data Size    | 5 bytes |
| Instructions | 3       |

```
      00 01 02 03 04 05 06 07  08 09 0A 0B 0C 0D 0E 0F
      -- -- -- -- -- -- -- --  -- -- -- -- -- -- -- --
00B0:                                         1D 0A 80               ...
00C0: 23 00                                             #.              
```

#### Opcodes

```
  0: 0x00BD [0x1D] PRINT_EVENT_MESSAGE(message_id=7419*)
    → "Say, you didn't follow me here out of worry, did you?"
  1: 0x00C0 [0x23] WAIT_FOR_DIALOG_INTERACTION
  2: 0x00C1 [0x00] END_REQSTACK()
```

### Event 65535.16

#### Metadata

| Field        | Value   |
|--------------|---------|
| Entrypoint   | 0x00C2  |
| Data Size    | 5 bytes |
| Instructions | 3       |

```
      00 01 02 03 04 05 06 07  08 09 0A 0B 0C 0D 0E 0F
      -- -- -- -- -- -- -- --  -- -- -- -- -- -- -- --
00C0:       1D 0B 80 23 00                                ...#.         
```

#### Opcodes

```
  0: 0x00C2 [0x1D] PRINT_EVENT_MESSAGE(message_id=7421*)
    → "Hah! The only reason you're here is because that Sibyl Guard Semih Lafihna ordered you to follow me, right?"
  1: 0x00C5 [0x23] WAIT_FOR_DIALOG_INTERACTION
  2: 0x00C6 [0x00] END_REQSTACK()
```

### Event 65535.17

#### Metadata

| Field        | Value   |
|--------------|---------|
| Entrypoint   | 0x00C7  |
| Data Size    | 5 bytes |
| Instructions | 3       |

```
      00 01 02 03 04 05 06 07  08 09 0A 0B 0C 0D 0E 0F
      -- -- -- -- -- -- -- --  -- -- -- -- -- -- -- --
00C0:                      1D  0C 80 23 00                     ...#.    
```

#### Opcodes

```
  0: 0x00C7 [0x1D] PRINT_EVENT_MESSAGE(message_id=7422*)
    → "I see. The only reason you're here is because that Sibyl Guard Semih Lafihna told you to follow me, right?"
  1: 0x00CA [0x23] WAIT_FOR_DIALOG_INTERACTION
  2: 0x00CB [0x00] END_REQSTACK()
```

### Event 65535.18

#### Metadata

| Field        | Value   |
|--------------|---------|
| Entrypoint   | 0x00CC  |
| Data Size    | 5 bytes |
| Instructions | 3       |

```
      00 01 02 03 04 05 06 07  08 09 0A 0B 0C 0D 0E 0F
      -- -- -- -- -- -- -- --  -- -- -- -- -- -- -- --
00C0:                                      1D 0D 80 23              ...#
00D0: 00                                                .               
```

#### Opcodes

```
  0: 0x00CC [0x1D] PRINT_EVENT_MESSAGE(message_id=7423*)
    → "She may have been raised by the Star Sibyl, but she's just a Mithra. She has no idea how serious this is."
  1: 0x00CF [0x23] WAIT_FOR_DIALOG_INTERACTION
  2: 0x00D0 [0x00] END_REQSTACK()
```

### Event 65535.19

#### Metadata

| Field        | Value   |
|--------------|---------|
| Entrypoint   | 0x00D1  |
| Data Size    | 5 bytes |
| Instructions | 3       |

```
      00 01 02 03 04 05 06 07  08 09 0A 0B 0C 0D 0E 0F
      -- -- -- -- -- -- -- --  -- -- -- -- -- -- -- --
00D0:    1D 0E 80 23 00                                  ...#.          
```

#### Opcodes

```
  0: 0x00D1 [0x1D] PRINT_EVENT_MESSAGE(message_id=7424*)
    → "You've heard the legends of the Star Sibyl, right?"
  1: 0x00D4 [0x23] WAIT_FOR_DIALOG_INTERACTION
  2: 0x00D5 [0x00] END_REQSTACK()
```

### Event 65535.20

#### Metadata

| Field        | Value   |
|--------------|---------|
| Entrypoint   | 0x00D6  |
| Data Size    | 5 bytes |
| Instructions | 3       |

```
      00 01 02 03 04 05 06 07  08 09 0A 0B 0C 0D 0E 0F
      -- -- -- -- -- -- -- --  -- -- -- -- -- -- -- --
00D0:                   1D 0F  80 23 00                       ...#.     
```

#### Opcodes

```
  0: 0x00D6 [0x1D] PRINT_EVENT_MESSAGE(message_id=7425*)
    → "In days of old, a shining star guided us to this place. When the star returned to the heavens, the light that lit Sarutabaruta faded, and darkness fell on the land."
  1: 0x00D9 [0x23] WAIT_FOR_DIALOG_INTERACTION
  2: 0x00DA [0x00] END_REQSTACK()
```

### Event 65535.21

#### Metadata

| Field        | Value   |
|--------------|---------|
| Entrypoint   | 0x00DB  |
| Data Size    | 5 bytes |
| Instructions | 3       |

```
      00 01 02 03 04 05 06 07  08 09 0A 0B 0C 0D 0E 0F
      -- -- -- -- -- -- -- --  -- -- -- -- -- -- -- --
00D0:                                   1D 10 80 23 00             ...#.
```

#### Opcodes

```
  0: 0x00DB [0x1D] PRINT_EVENT_MESSAGE(message_id=7427*)
    → "She also left a historical text for future Sibyls. They found it recently... The Book of the Gods."
  1: 0x00DE [0x23] WAIT_FOR_DIALOG_INTERACTION
  2: 0x00DF [0x00] END_REQSTACK()
```

### Event 65535.22

#### Metadata

| Field        | Value   |
|--------------|---------|
| Entrypoint   | 0x00E0  |
| Data Size    | 5 bytes |
| Instructions | 3       |

```
      00 01 02 03 04 05 06 07  08 09 0A 0B 0C 0D 0E 0F
      -- -- -- -- -- -- -- --  -- -- -- -- -- -- -- --
00E0: 1D 11 80 23 00                                    ...#.           
```

#### Opcodes

```
  0: 0x00E0 [0x1D] PRINT_EVENT_MESSAGE(message_id=7428*)
    → "And still the Star Sibyl is silentaru."
  1: 0x00E3 [0x23] WAIT_FOR_DIALOG_INTERACTION
  2: 0x00E4 [0x00] END_REQSTACK()
```

### Event 65535.23

#### Metadata

| Field        | Value   |
|--------------|---------|
| Entrypoint   | 0x00E5  |
| Data Size    | 5 bytes |
| Instructions | 3       |

```
      00 01 02 03 04 05 06 07  08 09 0A 0B 0C 0D 0E 0F
      -- -- -- -- -- -- -- --  -- -- -- -- -- -- -- --
00E0:                1D 12 80  23 00                         ...#.      
```

#### Opcodes

```
  0: 0x00E5 [0x1D] PRINT_EVENT_MESSAGE(message_id=7429*)
    → "That's why I came here... To find another witness of time. I wanted to seek out the Yagudo."
  1: 0x00E8 [0x23] WAIT_FOR_DIALOG_INTERACTION
  2: 0x00E9 [0x00] END_REQSTACK()
```

### Event 65535.24

#### Metadata

| Field        | Value   |
|--------------|---------|
| Entrypoint   | 0x00EA  |
| Data Size    | 5 bytes |
| Instructions | 3       |

```
      00 01 02 03 04 05 06 07  08 09 0A 0B 0C 0D 0E 0F
      -- -- -- -- -- -- -- --  -- -- -- -- -- -- -- --
00E0:                                1D 13 80 23 00               ...#. 
```

#### Opcodes

```
  0: 0x00EA [0x1D] PRINT_EVENT_MESSAGE(message_id=7430*)
    → "They sure gave me a hearty reception, but the Yagudo king told me something..."
  1: 0x00ED [0x23] WAIT_FOR_DIALOG_INTERACTION
  2: 0x00EE [0x00] END_REQSTACK()
```

### Event 65535.25

#### Metadata

| Field        | Value   |
|--------------|---------|
| Entrypoint   | 0x00EF  |
| Data Size    | 5 bytes |
| Instructions | 3       |

```
      00 01 02 03 04 05 06 07  08 09 0A 0B 0C 0D 0E 0F
      -- -- -- -- -- -- -- --  -- -- -- -- -- -- -- --
00E0:                                               1D                 .
00F0: 14 80 23 00                                       ..#.            
```

#### Opcodes

```
  0: 0x00EF [0x1D] PRINT_EVENT_MESSAGE(message_id=7431*)
    → "Anyway, tell Semih Lafihna that the head of the Orastery, Ajido-Marujido, is getting close, slowly but surely."
  1: 0x00F2 [0x23] WAIT_FOR_DIALOG_INTERACTION
  2: 0x00F3 [0x00] END_REQSTACK()
```

### Event 65535.26

#### Metadata

| Field        | Value   |
|--------------|---------|
| Entrypoint   | 0x00F4  |
| Data Size    | 5 bytes |
| Instructions | 3       |

```
      00 01 02 03 04 05 06 07  08 09 0A 0B 0C 0D 0E 0F
      -- -- -- -- -- -- -- --  -- -- -- -- -- -- -- --
00F0:             1D 15 80 23  00                           ...#.       
```

#### Opcodes

```
  0: 0x00F4 [0x1D] PRINT_EVENT_MESSAGE(message_id=7432*)
    → "Well, I'll see you around. Back to Windurst for me."
  1: 0x00F7 [0x23] WAIT_FOR_DIALOG_INTERACTION
  2: 0x00F8 [0x00] END_REQSTACK()
```

### Event 1

#### Metadata

| Field        | Value   |
|--------------|---------|
| Entrypoint   | 0x00F9  |
| Data Size    | 1 bytes |
| Instructions | 1       |

```
      00 01 02 03 04 05 06 07  08 09 0A 0B 0C 0D 0E 0F
      -- -- -- -- -- -- -- --  -- -- -- -- -- -- -- --
00F0:                             00                             .      
```

#### Opcodes

```
  0: 0x00F9 [0x00] END_REQSTACK()
```

### Event 65535.27

#### Metadata

| Field        | Value   |
|--------------|---------|
| Entrypoint   | 0x00FA  |
| Data Size    | 1 bytes |
| Instructions | 1       |

```
      00 01 02 03 04 05 06 07  08 09 0A 0B 0C 0D 0E 0F
      -- -- -- -- -- -- -- --  -- -- -- -- -- -- -- --
00F0:                                00                           .     
```

#### Opcodes

```
  0: 0x00FA [0x00] END_REQSTACK()
```

### Event 65535.28

#### Metadata

| Field        | Value    |
|--------------|----------|
| Entrypoint   | 0x00FB   |
| Data Size    | 10 bytes |
| Instructions | 2        |

```
      00 01 02 03 04 05 06 07  08 09 0A 0B 0C 0D 0E 0F
      -- -- -- -- -- -- -- --  -- -- -- -- -- -- -- --
00F0:                                   37 16 80 17 80             7....
0100: 18 80 19 80 00                                    .....           
```

#### Opcodes

```
  0: 0x00FB [0x37] UPDATE_EVENT_POSITION_AND_DIR: x=-122.283*, z=101.122*, y=-70.748*, direction=350.6°*
  1: 0x0104 [0x00] END_REQSTACK()
```

### Event 65535.29

#### Metadata

| Field        | Value    |
|--------------|----------|
| Entrypoint   | 0x0105   |
| Data Size    | 10 bytes |
| Instructions | 2        |

```
      00 01 02 03 04 05 06 07  08 09 0A 0B 0C 0D 0E 0F
      -- -- -- -- -- -- -- --  -- -- -- -- -- -- -- --
0100:                37 1A 80  1B 80 1C 80 1D 80 00          7......... 
```

#### Opcodes

```
  0: 0x0105 [0x37] UPDATE_EVENT_POSITION_AND_DIR: x=-99.935*, z=95.935*, y=-71.999*, direction=279.8°*
  1: 0x010E [0x00] END_REQSTACK()
```

### Event 65535.30

#### Metadata

| Field        | Value    |
|--------------|----------|
| Entrypoint   | 0x010F   |
| Data Size    | 70 bytes |
| Instructions | 16       |

```
      00 01 02 03 04 05 06 07  08 09 0A 0B 0C 0D 0E 0F
      -- -- -- -- -- -- -- --  -- -- -- -- -- -- -- --
0100:                                               32                 2
0110: 1E 80 1F 00 1F 80 20 80  1C 80 1F 01 32 1E 80 1F  ...... .....2...
0120: 00 21 80 22 80 1C 80 1F  01 1F 00 23 80 24 80 25  .!.".......#.$.%
0130: 80 1F 01 1F 00 26 80 27  80 25 80 1F 01 1F 00 28  .....&.'.%.....(
0140: 80 29 80 25 80 1F 01 32  02 80 1F 00 2A 80 2B 80  .).%...2....*.+.
0150: 25 80 1F 01 00                                    %....           
```

#### Opcodes

```
  0: 0x010F [0x32] ExtData[1]->MainSpeed = 40* * 0.1
  1: 0x0112 [0x1F] MOVE_ENTITY: EventEntity moves to X=-114.972*, Z=103.732*, Y=-71.999*
  2: 0x011A [0x1F] MOVE_ENTITY: Update entity position (mode=1)
  3: 0x011C [0x32] ExtData[1]->MainSpeed = 40* * 0.1
  4: 0x011F [0x1F] MOVE_ENTITY: EventEntity moves to X=-112.715*, Z=96.624*, Y=-71.999*
  5: 0x0127 [0x1F] MOVE_ENTITY: Update entity position (mode=1)
  6: 0x0129 [0x1F] MOVE_ENTITY: EventEntity moves to X=-105.325*, Z=91.796*, Y=-72.000*
  7: 0x0131 [0x1F] MOVE_ENTITY: Update entity position (mode=1)
  8: 0x0133 [0x1F] MOVE_ENTITY: EventEntity moves to X=-100.459*, Z=93.811*, Y=-72.000*
  9: 0x013B [0x1F] MOVE_ENTITY: Update entity position (mode=1)
 10: 0x013D [0x1F] MOVE_ENTITY: EventEntity moves to X=-99.988*, Z=94.798*, Y=-72.000*
 11: 0x0145 [0x1F] MOVE_ENTITY: Update entity position (mode=1)
 12: 0x0147 [0x32] ExtData[1]->MainSpeed = 13* * 0.1
 13: 0x014A [0x1F] MOVE_ENTITY: EventEntity moves to X=-99.816*, Z=98.236*, Y=-72.000*
 14: 0x0152 [0x1F] MOVE_ENTITY: Update entity position (mode=1)
 15: 0x0154 [0x00] END_REQSTACK()
```

### Event 65535.31

#### Metadata

| Field        | Value   |
|--------------|---------|
| Entrypoint   | 0x0155  |
| Data Size    | 5 bytes |
| Instructions | 3       |

```
      00 01 02 03 04 05 06 07  08 09 0A 0B 0C 0D 0E 0F
      -- -- -- -- -- -- -- --  -- -- -- -- -- -- -- --
0150:                1D 2C 80  23 00                         .,.#.      
```

#### Opcodes

```
  0: 0x0155 [0x1D] PRINT_EVENT_MESSAGE(message_id=7253*)
    → "Shoo! Shoo! Keep your grimy claws off of Windurst Orastery minister, Ajido-Marujido!"
  1: 0x0158 [0x23] WAIT_FOR_DIALOG_INTERACTION
  2: 0x0159 [0x00] END_REQSTACK()
```

### Event 65535.32

#### Metadata

| Field        | Value   |
|--------------|---------|
| Entrypoint   | 0x015A  |
| Data Size    | 5 bytes |
| Instructions | 3       |

```
      00 01 02 03 04 05 06 07  08 09 0A 0B 0C 0D 0E 0F
      -- -- -- -- -- -- -- --  -- -- -- -- -- -- -- --
0150:                                1D 2D 80 23 00               .-.#. 
```

#### Opcodes

```
  0: 0x015A [0x1D] PRINT_EVENT_MESSAGE(message_id=7264*)
    → "The towers are all damaged! How do you explain magic still being drained from the plains of Sarutabaruta?"
  1: 0x015D [0x23] WAIT_FOR_DIALOG_INTERACTION
  2: 0x015E [0x00] END_REQSTACK()
```

### Event 65535.33

#### Metadata

| Field        | Value   |
|--------------|---------|
| Entrypoint   | 0x015F  |
| Data Size    | 5 bytes |
| Instructions | 3       |

```
      00 01 02 03 04 05 06 07  08 09 0A 0B 0C 0D 0E 0F
      -- -- -- -- -- -- -- --  -- -- -- -- -- -- -- --
0150:                                               1D                 .
0160: 2E 80 23 00                                       ..#.            
```

#### Opcodes

```
  0: 0x015F [0x1D] PRINT_EVENT_MESSAGE(message_id=7265*)
    → "What about you Yagudo? What are those things that you continue digging? Those stones...maybe they are the cause of all this?"
  1: 0x0162 [0x23] WAIT_FOR_DIALOG_INTERACTION
  2: 0x0163 [0x00] END_REQSTACK()
```
