# 17396217 - Antiqix

## Common Data

| Field            | Value                    |
|------------------|--------------------------|
| Zone             | Castle Oztroja (ID: 151) |
| Block Size       | 2256 bytes               |
| Total Events     | 12                       |
| References Count | 68                       |

## List of Events

| Event ID              | Entrypoint   |   Size |   Instructions |
|-----------------------|--------------|--------|----------------|
| [65535](#event-65535) | 0x0000       |      1 |              1 |
| [50](#event-50)       | 0x0001       |     26 |              6 |
| [51](#event-51)       | 0x001B       |     97 |             29 |
| [52](#event-52)       | 0x007C       |    218 |             46 |
| [53](#event-53)       | 0x0156       |    211 |             47 |
| [54](#event-54)       | 0x0229       |     55 |              9 |
| [96](#event-96)       | 0x0260       |     55 |              9 |
| [97](#event-97)       | 0x0297       |     55 |              9 |
| [55](#event-55)       | 0x02CE       |     70 |             14 |
| [56](#event-56)       | 0x0314       |     70 |             14 |
| [57](#event-57)       | 0x035A       |   1013 |            224 |
| [58](#event-58)       | 0x074F       |     49 |             11 |

## DAT References (imed_data)

|   Index | Hex Value   |   Dec Value |
|---------|-------------|-------------|
|       0 | 0x00D7      |         215 |
|       1 | 0x1D32      |        7474 |
|       2 | 0x1D34      |        7476 |
|       3 | 0x1D35      |        7477 |
|       4 | 0x1D36      |        7478 |
|       5 | 0x1D37      |        7479 |
|       6 | 0x1D38      |        7480 |
|       7 | 0x1D39      |        7481 |
|       8 | 0x1D3A      |        7482 |
|       9 | 0x1D3C      |        7484 |
|      10 | 0x1D3D      |        7485 |
|      11 | 0x1D3E      |        7486 |
|      12 | 0x1D3F      |        7487 |
|      13 | 0x1D4B      |        7499 |
|      14 | 0x1D4C      |        7500 |
|      15 | 0x1D4D      |        7501 |
|      16 | 0x0001      |           1 |
|      17 | 0x060E      |        1550 |
|      18 | 0x1D4E      |        7502 |
|      19 | 0x0000      |           0 |
|      20 | 0x1D4F      |        7503 |
|      21 | 0x1D50      |        7504 |
|      22 | 0x1D51      |        7505 |
|      23 | 0x000A      |          10 |
|      24 | 0x1DCC      |        7628 |
|      25 | 0x1D5B      |        7515 |
|      26 | 0x000B      |          11 |
|      27 | 0x07FE      |        2046 |
|      28 | 0x0004      |           4 |
|      29 | 0x1D5D      |        7517 |
|      30 | 0x0002      |           2 |
|      31 | 0x0003      |           3 |
|      32 | 0x1D5E      |        7518 |
|      33 | 0x1D60      |        7520 |
|      34 | 0x1D64      |        7524 |
|      35 | 0x05A9      |        1449 |
|      36 | 0x05AA      |        1450 |
|      37 | 0x1D2C      |        7468 |
|      38 | 0x05AB      |        1451 |
|      39 | 0x1D2E      |        7470 |
|      40 | 0x1D30      |        7472 |
|      41 | 0x1D66      |        7526 |
|      42 | 0x1D75      |        7541 |
|      43 | 0x0005      |           5 |
|      44 | 0x1D76      |        7542 |
|      45 | 0x1D68      |        7528 |
|      46 | 0x1D6A      |        7530 |
|      47 | 0x1E66      |        7782 |
|      48 | 0x2710      |       10000 |
|      49 | 0x3A98      |       15000 |
|      50 | 0x4E20      |       20000 |
|      51 | 0x1E68      |        7784 |
|      52 | 0x0766      |        1894 |
|      53 | 0x0767      |        1895 |
|      54 | 0x0768      |        1896 |
|      55 | 0x0769      |        1897 |
|      56 | 0x076A      |        1898 |
|      57 | 0x0006      |           6 |
|      58 | 0x076B      |        1899 |
|      59 | 0x0007      |           7 |
|      60 | 0x076C      |        1900 |
|      61 | 0x0008      |           8 |
|      62 | 0x076D      |        1901 |
|      63 | 0x0009      |           9 |
|      64 | 0x076E      |        1902 |
|      65 | 0x076F      |        1903 |
|      66 | 0x1E69      |        7785 |
|      67 | 0x1DCE      |        7630 |

## String References

- **7468**: Lemme see here. Looks like you've brought me $1 $0 . A deal's a deal, so here's the $2.
- **7470**: Whatcha got there? Looks like $1 $0 . Guess that means I gotta give you this $2.
- **7472**: Well, you make an old Gob smile, you do. Not many people hand over $1 $0 . Take this $2 and get outta here.
- **7474**: Whaddaya want? You wanna talk to me? Well, I don't wanna talk to you until you got something I wanna hear. Take a hike, buddy.
- **7476**: $3? Didn't think I'd ever hear those words from someone who wasn't a Gob. You know some weird stuff, for a person.
- **7477**: There's a story that says some things have their own soul.
- **7478**: The $5 used to be just simple hourglasses. But as they passed through the hands of dozens of people, and even a few beastmen as well, the hourglasses were transformed by all their thoughts and feelings.
- **7479**: They have the ability to focus mysterious powers. In our travels through all the lands of this world, us Goblins often come across this sorta thing.
- **7480**: Now we come to the fun part. If you want a $3, I'd be willing to sell one to you. And you should know that only us Gobs can tell if an item has its own soul.
- **7481**: You people--heck, even other beastmen--have no idea. I've seen you guys throw away these items like they were junk.
- **7482**: They may look like garbage, but souled items are rare and valuable. You still want an hourglass, you gotta cough up $3 gil.
- **7484**: You want one, you hand me over the money. Like, with a quickness. So how's about it?
- **7485**: What's that you got there? $0? You're quite the collector for one o' your kind.
- **7486**: It might just be a worthless piece o' junk for you, but it's priceless to us Gobs. If you want, I can take it off your hands for $1.
- **7487**: I add to my collection, you get some pocket change. A win-win situation, right? So just trade that $0 on over, why don't ya?
- **7499**: I got a proposition for you. Before the Great War, a different currency was used in each of the three nations.
- **7500**: But when gil became the coin of choice, all the other types of money were done away with. Now the old forms of currency are worthless to anyone besides a collector like me.
- **7501**: You've never seen them before? Here, take a look at this.
- **7502**: This is the least valuable type. It was part of the currency of [Bastok/Windurst]. Since you were able to find out about the $0, I'm guessing you'll be able to get your hands on a few of these.
- **7503**: The three nations all had their different types of money, but I'm only interested in the old currency of [Bastok/Windurst]. Collect enough of them and I'll trade you some other stuff I've got.
- **7504**: One's not gonna be enough, though. You bring me $1 $0 and I'll trade you a single $2. You don't look real interested, but hold up. I'm just getting started.
- **7505**: If you've got $1 $0 , I'll give you a $2. Either that or I'll trade you for one of the goodies in my treasure hoard. They all go for a different price, however.
- **7515**: Hmm? Was there something you wanted to ask me?
- **7517**: What do you want to ask about? [Nothing./Hourglasses./Maps./Old currencies./Trading $1.]
- **7518**: Old currencies? I was telling you about how the three nations all used to have different types of money. You remember, right?
- **7520**: I didn't think there were people who loved this sorta stuff as much as I do. You really understand what things are worth. I don't give discounts, but you're welcome back anytime.
- **7524**: Yeah, this is the real thing all right. You got some okay junk-collectin' skills for a person.
- **7526**: Here's the list of stuff you can trade your $0 for.
- **7528**: This is $0. You want one, you're gonna have to bring me $2 $0$0 .
- **7530**: What do you want to ask about? [Nothing./Hourglasses.]
- **7541**: Which item will you look at? [View next page./$1: $0 [shell/shells]./$3: $2 [shell/shells]./$5: $4 [shell/shells]./$7: $6 [shell/shells]./Nothing.]
- **7542**: Which item will you look at? [View previous page./$1: $0 [shell/shells]./$3: $2 [shell/shells]./$5: $4 [shell/shells]./Nothing.]
- **7628**: I'll exchange you $2 $0$0 for a $0. They're worth a bunch, so don't go giving 'em away.
- **7630**: Alrighty, $2 $0$0 in exchange for your $0.
- **7782**: Maps, ya say? Hah! Just like one o' your kind to need those dingy scraps o' parchment.
- **7784**: Buy a map? (Current gil: $11). [Not now./Dynamis - San d'Oria ($1)./Dynamis - Bastok ($2)./Dynamis - Windurst ($3)./Dynamis - Jeuno ($4)./Dynamis - Beaucedine ($5)./Dynamis - Xarcabard ($6)./Dynamis - Valkurm ($7)./Dynamis - Buburimu ($8)./Dynamis - Qufim ($9)./Dynamis - Tavnazia ($10).]
- **7785**: Buy $6? [Deal!/No deal.]

## Events

### Event 65535

#### Metadata

| Field        | Value   |
|--------------|---------|
| Entrypoint   | 0x0000  |
| Data Size    | 1 bytes |
| Instructions | 1       |

```
      00 01 02 03 04 05 06 07  08 09 0A 0B 0C 0D 0E 0F
      -- -- -- -- -- -- -- --  -- -- -- -- -- -- -- --
0000: 00                                                .               
```

#### Opcodes

```
  0: 0x0000 [0x00] END_REQSTACK()
```

### Event 50

#### Metadata

| Field        | Value    |
|--------------|----------|
| Entrypoint   | 0x0001   |
| Data Size    | 26 bytes |
| Instructions | 6        |

```
      00 01 02 03 04 05 06 07  08 09 0A 0B 0C 0D 0E 0F
      -- -- -- -- -- -- -- --  -- -- -- -- -- -- -- --
0000:    1E F0 FF FF 7F 5B 00  80 F9 71 09 01 F9 71 09   .....[...q...q.
0010: 01 74 6C 6B 30 1D 01 80  23 21 00                 .tlk0...#!.     
```

#### Opcodes

```
  0: 0x0001 [0x1E] EventEntity looks at LocalPlayer and starts talking
  1: 0x0006 [0x5B] LOAD_EXT_SCHEDULER: Load scheduler "tlk0" with entities [Antiqix (ID: 17396217/0x010971F9), Antiqix (ID: 17396217/0x010971F9)], work=215*
  2: 0x0015 [0x1D] PRINT_EVENT_MESSAGE(message_id=7474*)
    → "Whaddaya want? You wanna talk to me? Well, I don't wanna talk to you until you got something I wanna hear. Take a hike, buddy."
  3: 0x0018 [0x23] WAIT_FOR_DIALOG_INTERACTION
  4: 0x0019 [0x21] END_EVENT
  5: 0x001A [0x00] END_REQSTACK()
```

### Event 51

#### Metadata

| Field        | Value    |
|--------------|----------|
| Entrypoint   | 0x001B   |
| Data Size    | 97 bytes |
| Instructions | 29       |

```
      00 01 02 03 04 05 06 07  08 09 0A 0B 0C 0D 0E 0F
      -- -- -- -- -- -- -- --  -- -- -- -- -- -- -- --
0010:                                   42 1E F0 FF FF             B....
0020: 7F 5B 00 80 F9 71 09 01  F9 71 09 01 74 6C 6B 30  .[...q...q..tlk0
0030: 1D 02 80 23 5B 00 80 F9  71 09 01 F9 71 09 01 74  ...#[...q...q..t
0040: 6C 6B 31 1D 03 80 23 1D  04 80 23 1D 05 80 23 5B  lk1...#...#...#[
0050: 00 80 F9 71 09 01 F9 71  09 01 74 6C 6B 30 1D 06  ...q...q..tlk0..
0060: 80 23 1D 07 80 23 1D 08  80 23 1D 09 80 23 1D 0A  .#...#...#...#..
0070: 80 23 1D 0B 80 23 1D 0C  80 23 21 00              .#...#...#!.    
```

#### Opcodes

```
  0: 0x001B [0x42] SET_CLI_EVENT_CANCEL_DATA()
  1: 0x001C [0x1E] EventEntity looks at LocalPlayer and starts talking
  2: 0x0021 [0x5B] LOAD_EXT_SCHEDULER: Load scheduler "tlk0" with entities [Antiqix (ID: 17396217/0x010971F9), Antiqix (ID: 17396217/0x010971F9)], work=215*
  3: 0x0030 [0x1D] PRINT_EVENT_MESSAGE(message_id=7476*)
    → "$3? Didn't think I'd ever hear those words from someone who wasn't a Gob. You know some weird stuff, for a person."
  4: 0x0033 [0x23] WAIT_FOR_DIALOG_INTERACTION
  5: 0x0034 [0x5B] LOAD_EXT_SCHEDULER: Load scheduler "tlk1" with entities [Antiqix (ID: 17396217/0x010971F9), Antiqix (ID: 17396217/0x010971F9)], work=215*
  6: 0x0043 [0x1D] PRINT_EVENT_MESSAGE(message_id=7477*)
    → "There's a story that says some things have their own soul."
  7: 0x0046 [0x23] WAIT_FOR_DIALOG_INTERACTION
  8: 0x0047 [0x1D] PRINT_EVENT_MESSAGE(message_id=7478*)
    → "The $5 used to be just simple hourglasses. But as they passed through the hands of dozens of people, and even a few beastmen as well, the hourglasses were transformed by all their thoughts and feelings."
  9: 0x004A [0x23] WAIT_FOR_DIALOG_INTERACTION
 10: 0x004B [0x1D] PRINT_EVENT_MESSAGE(message_id=7479*)
    → "They have the ability to focus mysterious powers. In our travels through all the lands of this world, us Goblins often come across this sorta thing."
 11: 0x004E [0x23] WAIT_FOR_DIALOG_INTERACTION
 12: 0x004F [0x5B] LOAD_EXT_SCHEDULER: Load scheduler "tlk0" with entities [Antiqix (ID: 17396217/0x010971F9), Antiqix (ID: 17396217/0x010971F9)], work=215*
 13: 0x005E [0x1D] PRINT_EVENT_MESSAGE(message_id=7480*)
    → "Now we come to the fun part. If you want a $3, I'd be willing to sell one to you. And you should know that only us Gobs can tell if an item has its own soul."
 14: 0x0061 [0x23] WAIT_FOR_DIALOG_INTERACTION
 15: 0x0062 [0x1D] PRINT_EVENT_MESSAGE(message_id=7481*)
    → "You people--heck, even other beastmen--have no idea. I've seen you guys throw away these items like they were junk."
 16: 0x0065 [0x23] WAIT_FOR_DIALOG_INTERACTION
 17: 0x0066 [0x1D] PRINT_EVENT_MESSAGE(message_id=7482*)
    → "They may look like garbage, but souled items are rare and valuable. You still want an hourglass, you gotta cough up $3 gil."
 18: 0x0069 [0x23] WAIT_FOR_DIALOG_INTERACTION
 19: 0x006A [0x1D] PRINT_EVENT_MESSAGE(message_id=7484*)
    → "You want one, you hand me over the money. Like, with a quickness. So how's about it?"
 20: 0x006D [0x23] WAIT_FOR_DIALOG_INTERACTION
 21: 0x006E [0x1D] PRINT_EVENT_MESSAGE(message_id=7485*)
    → "What's that you got there? $0? You're quite the collector for one o' your kind."
 22: 0x0071 [0x23] WAIT_FOR_DIALOG_INTERACTION
 23: 0x0072 [0x1D] PRINT_EVENT_MESSAGE(message_id=7486*)
    → "It might just be a worthless piece o' junk for you, but it's priceless to us Gobs. If you want, I can take it off your hands for $1."
 24: 0x0075 [0x23] WAIT_FOR_DIALOG_INTERACTION
 25: 0x0076 [0x1D] PRINT_EVENT_MESSAGE(message_id=7487*)
    → "I add to my collection, you get some pocket change. A win-win situation, right? So just trade that $0 on over, why don't ya?"
 26: 0x0079 [0x23] WAIT_FOR_DIALOG_INTERACTION
 27: 0x007A [0x21] END_EVENT
 28: 0x007B [0x00] END_REQSTACK()
```

### Event 52

#### Metadata

| Field        | Value     |
|--------------|-----------|
| Entrypoint   | 0x007C    |
| Data Size    | 218 bytes |
| Instructions | 46        |

```
      00 01 02 03 04 05 06 07  08 09 0A 0B 0C 0D 0E 0F
      -- -- -- -- -- -- -- --  -- -- -- -- -- -- -- --
0070:                                      42 03 06 00              B...
0080: 02 10 03 04 00 03 10 03  07 00 04 10 03 05 00 05  ................
0090: 10 03 08 00 06 10 03 0A  00 08 10 03 09 00 06 00  ................
00A0: 1E F0 FF FF 7F 5B 00 80  F9 71 09 01 F9 71 09 01  .....[...q...q..
00B0: 74 6C 6B 30 1D 0D 80 23  1D 0E 80 23 1D 0F 80 23  tlk0...#...#...#
00C0: 5B 00 80 F9 71 09 01 F9  71 09 01 70 61 73 30 93  [...q...q..pas0.
00D0: 09 00 03 09 10 10 80 03  02 10 11 80 1D 12 80 23  ...............#
00E0: 53 F9 71 09 01 F9 71 09  01 70 61 73 30 93 13 80  S.q...q..pas0...
00F0: 5B 00 80 F9 71 09 01 F9  71 09 01 74 6C 6B 30 1D  [...q...q..tlk0.
0100: 14 80 23 03 02 10 06 00  03 03 10 04 00 03 04 10  ..#.............
0110: 07 00 5B 00 80 F9 71 09  01 F9 71 09 01 74 6C 6B  ..[...q...q..tlk
0120: 31 1D 15 80 23 03 02 10  07 00 03 03 10 05 00 03  1...#...........
0130: 04 10 08 00 1D 16 80 23  5B 00 80 F9 71 09 01 F9  .......#[...q...
0140: 71 09 01 74 6C 6B 30 03  01 10 17 80 43 00 43 01  q..tlk0.....C.C.
0150: 1D 18 80 23 21 00                                 ...#!.          
```

#### Opcodes

```
  0: 0x007C [0x42] SET_CLI_EVENT_CANCEL_DATA()
  1: 0x007D [0x03] ExtData[1]->WorkLocal[6] = Work_Zone[2]
  2: 0x0082 [0x03] ExtData[1]->WorkLocal[4] = Work_Zone[3]
  3: 0x0087 [0x03] ExtData[1]->WorkLocal[7] = Work_Zone[4]
  4: 0x008C [0x03] ExtData[1]->WorkLocal[5] = Work_Zone[5]
  5: 0x0091 [0x03] ExtData[1]->WorkLocal[8] = Work_Zone[6]
  6: 0x0096 [0x03] ExtData[1]->WorkLocal[10] = Work_Zone[8]
  7: 0x009B [0x03] ExtData[1]->WorkLocal[9] = ExtData[1]->WorkLocal[6]
  8: 0x00A0 [0x1E] EventEntity looks at LocalPlayer and starts talking
  9: 0x00A5 [0x5B] LOAD_EXT_SCHEDULER: Load scheduler "tlk0" with entities [Antiqix (ID: 17396217/0x010971F9), Antiqix (ID: 17396217/0x010971F9)], work=215*
 10: 0x00B4 [0x1D] PRINT_EVENT_MESSAGE(message_id=7499*)
    → "I got a proposition for you. Before the Great War, a different currency was used in each of the three nations."
 11: 0x00B7 [0x23] WAIT_FOR_DIALOG_INTERACTION
 12: 0x00B8 [0x1D] PRINT_EVENT_MESSAGE(message_id=7500*)
    → "But when gil became the coin of choice, all the other types of money were done away with. Now the old forms of currency are worthless to anyone besides a collector like me."
 13: 0x00BB [0x23] WAIT_FOR_DIALOG_INTERACTION
 14: 0x00BC [0x1D] PRINT_EVENT_MESSAGE(message_id=7501*)
    → "You've never seen them before? Here, take a look at this."
 15: 0x00BF [0x23] WAIT_FOR_DIALOG_INTERACTION
 16: 0x00C0 [0x5B] LOAD_EXT_SCHEDULER: Load scheduler "pas0" with entities [Antiqix (ID: 17396217/0x010971F9), Antiqix (ID: 17396217/0x010971F9)], work=215*
 17: 0x00CF [0x93] DISPLAY_ITEM_INFO(item_id=ExtData[1]->WorkLocal[9])
 18: 0x00D2 [0x03] Work_Zone[9] = 1*
 19: 0x00D7 [0x03] Work_Zone[2] = 1550*
 20: 0x00DC [0x1D] PRINT_EVENT_MESSAGE(message_id=7502*)
    → "This is the least valuable type. It was part of the currency of [Bastok/Windurst]. Since you were able to find out about the $0, I'm guessing you'll be able to get your hands on a few of these."
 21: 0x00DF [0x23] WAIT_FOR_DIALOG_INTERACTION
 22: 0x00E0 [0x53] WAIT_SCHEDULER_TASK: Wait for scheduler "pas0" with entities [Antiqix (ID: 17396217/0x010971F9), Antiqix (ID: 17396217/0x010971F9)]
 23: 0x00ED [0x93] DISPLAY_ITEM_INFO(item_id=0*)
 24: 0x00F0 [0x5B] LOAD_EXT_SCHEDULER: Load scheduler "tlk0" with entities [Antiqix (ID: 17396217/0x010971F9), Antiqix (ID: 17396217/0x010971F9)], work=215*
 25: 0x00FF [0x1D] PRINT_EVENT_MESSAGE(message_id=7503*)
    → "The three nations all had their different types of money, but I'm only interested in the old currency of [Bastok/Windurst]. Collect enough of them and I'll trade you some other stuff I've got."
 26: 0x0102 [0x23] WAIT_FOR_DIALOG_INTERACTION
 27: 0x0103 [0x03] Work_Zone[2] = ExtData[1]->WorkLocal[6]
 28: 0x0108 [0x03] Work_Zone[3] = ExtData[1]->WorkLocal[4]
 29: 0x010D [0x03] Work_Zone[4] = ExtData[1]->WorkLocal[7]
 30: 0x0112 [0x5B] LOAD_EXT_SCHEDULER: Load scheduler "tlk1" with entities [Antiqix (ID: 17396217/0x010971F9), Antiqix (ID: 17396217/0x010971F9)], work=215*
 31: 0x0121 [0x1D] PRINT_EVENT_MESSAGE(message_id=7504*)
    → "One's not gonna be enough, though. You bring me $1 $0 and I'll trade you a single $2. You don't look real interested, but hold up. I'm just getting started."
 32: 0x0124 [0x23] WAIT_FOR_DIALOG_INTERACTION
 33: 0x0125 [0x03] Work_Zone[2] = ExtData[1]->WorkLocal[7]
 34: 0x012A [0x03] Work_Zone[3] = ExtData[1]->WorkLocal[5]
 35: 0x012F [0x03] Work_Zone[4] = ExtData[1]->WorkLocal[8]
 36: 0x0134 [0x1D] PRINT_EVENT_MESSAGE(message_id=7505*)
    → "If you've got $1 $0 , I'll give you a $2. Either that or I'll trade you for one of the goodies in my treasure hoard. They all go for a different price, however."
 37: 0x0137 [0x23] WAIT_FOR_DIALOG_INTERACTION
 38: 0x0138 [0x5B] LOAD_EXT_SCHEDULER: Load scheduler "tlk0" with entities [Antiqix (ID: 17396217/0x010971F9), Antiqix (ID: 17396217/0x010971F9)], work=215*
 39: 0x0147 [0x03] Work_Zone[1] = 10*
 40: 0x014C [0x43] SEND_EVENT_UPDATE: Send pending tag to server (packet 0x005B)
 41: 0x014E [0x43] SEND_EVENT_UPDATE: Check pending flag (skip if not pending)
 42: 0x0150 [0x1D] PRINT_EVENT_MESSAGE(message_id=7628*)
    → "I'll exchange you $2 $0$0 for a $0. They're worth a bunch, so don't go giving 'em away."
 43: 0x0153 [0x23] WAIT_FOR_DIALOG_INTERACTION
 44: 0x0154 [0x21] END_EVENT
 45: 0x0155 [0x00] END_REQSTACK()
```

### Event 53

#### Metadata

| Field        | Value     |
|--------------|-----------|
| Entrypoint   | 0x0156    |
| Data Size    | 211 bytes |
| Instructions | 30        |

```
      00 01 02 03 04 05 06 07  08 09 0A 0B 0C 0D 0E 0F
      -- -- -- -- -- -- -- --  -- -- -- -- -- -- -- --
0150:                   1E F0  FF FF 7F 03 06 00 02 10        ..........
0160: 03 04 00 03 10 03 07 00  04 10 03 05 00 05 10 03  ................
0170: 08 00 06 10 03 0A 00 08  10 03 0B 00 09 10 03 09  ................
0180: 00 06 00 03 0C 00 07 10  1D 19 80 23 03 01 10 1A  ...........#....
0190: 80 43 00 43 01 02 02 10  1B 80 00 A5 01 03 0F 00  .C.C............
01A0: 1C 80 01 AA 01 03 0F 00  13 80 03 02 10 0A 00 03  ................
01B0: 03 10 07 00 03 04 10 08  00 03 05 10 11 80 24 1D  ..............$.
01C0: 80 13 80 0F 00 25 02 00  10 13 80 00 D4 01 01 27  .....%.........'
01D0: 02 01 24 02 02 00 10 10  80 00 E2 01 01 DE 04 01  ..$.............
01E0: 24 02 02 00 10 1E 80 00  F0 01 01 18 05 01 24 02  $.............$.
01F0: 02 00 10 1F 80 00 11 02  5B 00 80 F9 71 09 01 F9  ........[...q...
0200: 71 09 01 74 6C 6B 30 1D  20 80 23 1A AD 06 01 24  q..tlk0. .#....$
0210: 02 02 00 10 1C 80 00 24  02 03 02 10 07 00 1A 82  .......$........
0220: 03 01 24 02 01 8C 01 21  00                       ..$....!.       
```

#### Opcodes

```
  0: 0x0156 [0x1E] EventEntity looks at LocalPlayer and starts talking
  1: 0x015B [0x03] ExtData[1]->WorkLocal[6] = Work_Zone[2]
  2: 0x0160 [0x03] ExtData[1]->WorkLocal[4] = Work_Zone[3]
  3: 0x0165 [0x03] ExtData[1]->WorkLocal[7] = Work_Zone[4]
  4: 0x016A [0x03] ExtData[1]->WorkLocal[5] = Work_Zone[5]
  5: 0x016F [0x03] ExtData[1]->WorkLocal[8] = Work_Zone[6]
  6: 0x0174 [0x03] ExtData[1]->WorkLocal[10] = Work_Zone[8]
  7: 0x0179 [0x03] ExtData[1]->WorkLocal[11] = Work_Zone[9]
  8: 0x017E [0x03] ExtData[1]->WorkLocal[9] = ExtData[1]->WorkLocal[6]
  9: 0x0183 [0x03] ExtData[1]->WorkLocal[12] = Work_Zone[7]
 10: 0x0188 [0x1D] PRINT_EVENT_MESSAGE(message_id=7515*)
    → "Hmm? Was there something you wanted to ask me?"
 11: 0x018B [0x23] WAIT_FOR_DIALOG_INTERACTION
 12: 0x018C [0x03] Work_Zone[1] = 11*
 13: 0x0191 [0x43] SEND_EVENT_UPDATE: Send pending tag to server (packet 0x005B)
 14: 0x0193 [0x43] SEND_EVENT_UPDATE: Check pending flag (skip if not pending)
 15: 0x0195 [0x02] IF !(Work_Zone[2] == 2046*) GOTO 0x01A5
 16: 0x019D [0x03] ExtData[1]->WorkLocal[15] = 4*
 17: 0x01A2 [0x01] GOTO 0x01AA
 18: 0x01A5 [0x03] ExtData[1]->WorkLocal[15] = 0*

SUBROUTINE_01AA:
 19: 0x01AA [0x03] Work_Zone[2] = ExtData[1]->WorkLocal[10]
 20: 0x01AF [0x03] Work_Zone[3] = ExtData[1]->WorkLocal[7]
 21: 0x01B4 [0x03] Work_Zone[4] = ExtData[1]->WorkLocal[8]
 22: 0x01B9 [0x03] Work_Zone[5] = 1550*
 23: 0x01BE [0x24] CREATE_DIALOG(message_id=7517*, default_option=0*, option_flags=ExtData[1]->WorkLocal[15])
    → "What do you want to ask about? [Nothing./Hourglasses./Maps./Old currencies./Trading $1.]"
 24: 0x01C5 [0x25] WAIT_DIALOG_SELECT()
 25: 0x01C6 [0x02] IF !(Work_Zone[0] == 0*) GOTO 0x01D4
 26: 0x01CE [0x01] GOTO 0x0227

SUBROUTINE_0224:
 27: 0x0224 [0x01] GOTO 0x018C

SUBROUTINE_0227:
 28: 0x0227 [0x21] END_EVENT
 29: 0x0228 [0x00] END_REQSTACK()
```

#### Data or dead code:

```
# Dead code (unreachable instructions):
     0x01D1 [0x01] GOTO 0x0224
     0x01DF [0x01] GOTO 0x0224
     0x01ED [0x01] GOTO 0x0224
```

### Event 54

#### Metadata

| Field        | Value    |
|--------------|----------|
| Entrypoint   | 0x0229   |
| Data Size    | 55 bytes |
| Instructions | 9        |

```
      00 01 02 03 04 05 06 07  08 09 0A 0B 0C 0D 0E 0F
      -- -- -- -- -- -- -- --  -- -- -- -- -- -- -- --
0220:                             42 1E F0 FF FF 7F 5B           B.....[
0230: 00 80 F9 71 09 01 F9 71  09 01 74 6C 6B 30 1D 21  ...q...q..tlk0.!
0240: 80 23 5B 00 80 F9 71 09  01 F9 71 09 01 70 61 73  .#[...q...q..pas
0250: 30 53 F9 71 09 01 F9 71  09 01 70 61 73 30 21 00  0S.q...q..pas0!.
```

#### Opcodes

```
  0: 0x0229 [0x42] SET_CLI_EVENT_CANCEL_DATA()
  1: 0x022A [0x1E] EventEntity looks at LocalPlayer and starts talking
  2: 0x022F [0x5B] LOAD_EXT_SCHEDULER: Load scheduler "tlk0" with entities [Antiqix (ID: 17396217/0x010971F9), Antiqix (ID: 17396217/0x010971F9)], work=215*
  3: 0x023E [0x1D] PRINT_EVENT_MESSAGE(message_id=7520*)
    → "I didn't think there were people who loved this sorta stuff as much as I do. You really understand what things are worth. I don't give discounts, but you're welcome back anytime."
  4: 0x0241 [0x23] WAIT_FOR_DIALOG_INTERACTION
  5: 0x0242 [0x5B] LOAD_EXT_SCHEDULER: Load scheduler "pas0" with entities [Antiqix (ID: 17396217/0x010971F9), Antiqix (ID: 17396217/0x010971F9)], work=215*
  6: 0x0251 [0x53] WAIT_SCHEDULER_TASK: Wait for scheduler "pas0" with entities [Antiqix (ID: 17396217/0x010971F9), Antiqix (ID: 17396217/0x010971F9)]
  7: 0x025E [0x21] END_EVENT
  8: 0x025F [0x00] END_REQSTACK()
```

### Event 96

#### Metadata

| Field        | Value    |
|--------------|----------|
| Entrypoint   | 0x0260   |
| Data Size    | 55 bytes |
| Instructions | 9        |

```
      00 01 02 03 04 05 06 07  08 09 0A 0B 0C 0D 0E 0F
      -- -- -- -- -- -- -- --  -- -- -- -- -- -- -- --
0260: 42 1E F0 FF FF 7F 5B 00  80 F9 71 09 01 F9 71 09  B.....[...q...q.
0270: 01 74 6C 6B 30 1D 21 80  23 5B 00 80 F9 71 09 01  .tlk0.!.#[...q..
0280: F9 71 09 01 70 61 73 30  53 F9 71 09 01 F9 71 09  .q..pas0S.q...q.
0290: 01 70 61 73 30 21 00                              .pas0!.         
```

#### Opcodes

```
  0: 0x0260 [0x42] SET_CLI_EVENT_CANCEL_DATA()
  1: 0x0261 [0x1E] EventEntity looks at LocalPlayer and starts talking
  2: 0x0266 [0x5B] LOAD_EXT_SCHEDULER: Load scheduler "tlk0" with entities [Antiqix (ID: 17396217/0x010971F9), Antiqix (ID: 17396217/0x010971F9)], work=215*
  3: 0x0275 [0x1D] PRINT_EVENT_MESSAGE(message_id=7520*)
    → "I didn't think there were people who loved this sorta stuff as much as I do. You really understand what things are worth. I don't give discounts, but you're welcome back anytime."
  4: 0x0278 [0x23] WAIT_FOR_DIALOG_INTERACTION
  5: 0x0279 [0x5B] LOAD_EXT_SCHEDULER: Load scheduler "pas0" with entities [Antiqix (ID: 17396217/0x010971F9), Antiqix (ID: 17396217/0x010971F9)], work=215*
  6: 0x0288 [0x53] WAIT_SCHEDULER_TASK: Wait for scheduler "pas0" with entities [Antiqix (ID: 17396217/0x010971F9), Antiqix (ID: 17396217/0x010971F9)]
  7: 0x0295 [0x21] END_EVENT
  8: 0x0296 [0x00] END_REQSTACK()
```

### Event 97

#### Metadata

| Field        | Value    |
|--------------|----------|
| Entrypoint   | 0x0297   |
| Data Size    | 55 bytes |
| Instructions | 9        |

```
      00 01 02 03 04 05 06 07  08 09 0A 0B 0C 0D 0E 0F
      -- -- -- -- -- -- -- --  -- -- -- -- -- -- -- --
0290:                      42  1E F0 FF FF 7F 5B 00 80         B.....[..
02A0: F9 71 09 01 F9 71 09 01  74 6C 6B 30 1D 22 80 23  .q...q..tlk0.".#
02B0: 5B 00 80 F9 71 09 01 F9  71 09 01 70 61 73 30 53  [...q...q..pas0S
02C0: F9 71 09 01 F9 71 09 01  70 61 73 30 21 00        .q...q..pas0!.  
```

#### Opcodes

```
  0: 0x0297 [0x42] SET_CLI_EVENT_CANCEL_DATA()
  1: 0x0298 [0x1E] EventEntity looks at LocalPlayer and starts talking
  2: 0x029D [0x5B] LOAD_EXT_SCHEDULER: Load scheduler "tlk0" with entities [Antiqix (ID: 17396217/0x010971F9), Antiqix (ID: 17396217/0x010971F9)], work=215*
  3: 0x02AC [0x1D] PRINT_EVENT_MESSAGE(message_id=7524*)
    → "Yeah, this is the real thing all right. You got some okay junk-collectin' skills for a person."
  4: 0x02AF [0x23] WAIT_FOR_DIALOG_INTERACTION
  5: 0x02B0 [0x5B] LOAD_EXT_SCHEDULER: Load scheduler "pas0" with entities [Antiqix (ID: 17396217/0x010971F9), Antiqix (ID: 17396217/0x010971F9)], work=215*
  6: 0x02BF [0x53] WAIT_SCHEDULER_TASK: Wait for scheduler "pas0" with entities [Antiqix (ID: 17396217/0x010971F9), Antiqix (ID: 17396217/0x010971F9)]
  7: 0x02CC [0x21] END_EVENT
  8: 0x02CD [0x00] END_REQSTACK()
```

### Event 55

#### Metadata

| Field        | Value    |
|--------------|----------|
| Entrypoint   | 0x02CE   |
| Data Size    | 70 bytes |
| Instructions | 14       |

```
      00 01 02 03 04 05 06 07  08 09 0A 0B 0C 0D 0E 0F
      -- -- -- -- -- -- -- --  -- -- -- -- -- -- -- --
02C0:                                            42 03                B.
02D0: 00 00 02 10 03 01 00 23  80 03 02 00 24 80 03 02  .......#....$...
02E0: 10 01 00 03 03 10 00 00  03 04 10 02 00 1E F0 FF  ................
02F0: FF 7F 1D 25 80 23 5B 00  80 F9 71 09 01 F9 71 09  ...%.#[...q...q.
0300: 01 70 61 73 30 53 F9 71  09 01 F9 71 09 01 70 61  .pas0S.q...q..pa
0310: 73 30 21 00                                       s0!.            
```

#### Opcodes

```
  0: 0x02CE [0x42] SET_CLI_EVENT_CANCEL_DATA()
  1: 0x02CF [0x03] ExtData[1]->WorkLocal[0] = Work_Zone[2]
  2: 0x02D4 [0x03] ExtData[1]->WorkLocal[1] = 1449*
  3: 0x02D9 [0x03] ExtData[1]->WorkLocal[2] = 1450*
  4: 0x02DE [0x03] Work_Zone[2] = ExtData[1]->WorkLocal[1]
  5: 0x02E3 [0x03] Work_Zone[3] = ExtData[1]->WorkLocal[0]
  6: 0x02E8 [0x03] Work_Zone[4] = ExtData[1]->WorkLocal[2]
  7: 0x02ED [0x1E] EventEntity looks at LocalPlayer and starts talking
  8: 0x02F2 [0x1D] PRINT_EVENT_MESSAGE(message_id=7468*)
    → "Lemme see here. Looks like you've brought me $1 $0 . A deal's a deal, so here's the $2."
  9: 0x02F5 [0x23] WAIT_FOR_DIALOG_INTERACTION
 10: 0x02F6 [0x5B] LOAD_EXT_SCHEDULER: Load scheduler "pas0" with entities [Antiqix (ID: 17396217/0x010971F9), Antiqix (ID: 17396217/0x010971F9)], work=215*
 11: 0x0305 [0x53] WAIT_SCHEDULER_TASK: Wait for scheduler "pas0" with entities [Antiqix (ID: 17396217/0x010971F9), Antiqix (ID: 17396217/0x010971F9)]
 12: 0x0312 [0x21] END_EVENT
 13: 0x0313 [0x00] END_REQSTACK()
```

### Event 56

#### Metadata

| Field        | Value    |
|--------------|----------|
| Entrypoint   | 0x0314   |
| Data Size    | 70 bytes |
| Instructions | 14       |

```
      00 01 02 03 04 05 06 07  08 09 0A 0B 0C 0D 0E 0F
      -- -- -- -- -- -- -- --  -- -- -- -- -- -- -- --
0310:             42 03 00 00  02 10 03 01 00 24 80 03      B........$..
0320: 02 00 26 80 03 02 10 01  00 03 03 10 00 00 03 04  ..&.............
0330: 10 02 00 1E F0 FF FF 7F  1D 27 80 23 5B 00 80 F9  .........'.#[...
0340: 71 09 01 F9 71 09 01 70  61 73 30 53 F9 71 09 01  q...q..pas0S.q..
0350: F9 71 09 01 70 61 73 30  21 00                    .q..pas0!.      
```

#### Opcodes

```
  0: 0x0314 [0x42] SET_CLI_EVENT_CANCEL_DATA()
  1: 0x0315 [0x03] ExtData[1]->WorkLocal[0] = Work_Zone[2]
  2: 0x031A [0x03] ExtData[1]->WorkLocal[1] = 1450*
  3: 0x031F [0x03] ExtData[1]->WorkLocal[2] = 1451*
  4: 0x0324 [0x03] Work_Zone[2] = ExtData[1]->WorkLocal[1]
  5: 0x0329 [0x03] Work_Zone[3] = ExtData[1]->WorkLocal[0]
  6: 0x032E [0x03] Work_Zone[4] = ExtData[1]->WorkLocal[2]
  7: 0x0333 [0x1E] EventEntity looks at LocalPlayer and starts talking
  8: 0x0338 [0x1D] PRINT_EVENT_MESSAGE(message_id=7470*)
    → "Whatcha got there? Looks like $1 $0 . Guess that means I gotta give you this $2."
  9: 0x033B [0x23] WAIT_FOR_DIALOG_INTERACTION
 10: 0x033C [0x5B] LOAD_EXT_SCHEDULER: Load scheduler "pas0" with entities [Antiqix (ID: 17396217/0x010971F9), Antiqix (ID: 17396217/0x010971F9)], work=215*
 11: 0x034B [0x53] WAIT_SCHEDULER_TASK: Wait for scheduler "pas0" with entities [Antiqix (ID: 17396217/0x010971F9), Antiqix (ID: 17396217/0x010971F9)]
 12: 0x0358 [0x21] END_EVENT
 13: 0x0359 [0x00] END_REQSTACK()
```

### Event 57

#### Metadata

| Field        | Value      |
|--------------|------------|
| Entrypoint   | 0x035A     |
| Data Size    | 1013 bytes |
| Instructions | 8          |

```
      00 01 02 03 04 05 06 07  08 09 0A 0B 0C 0D 0E 0F
      -- -- -- -- -- -- -- --  -- -- -- -- -- -- -- --
0350:                                42 1E F0 FF FF 7F            B.....
0360: 1D 28 80 23 5B 00 80 F9  71 09 01 F9 71 09 01 70  .(.#[...q...q..p
0370: 61 73 30 53 F9 71 09 01  F9 71 09 01 70 61 73 30  as0S.q...q..pas0
0380: 21 00 5B 00 80 F9 71 09  01 F9 71 09 01 74 6C 6B  !.[...q...q..tlk
0390: 30 1D 29 80 23 5E 69 64  6C 30 03 01 10 1E 80 43  0.).#^idl0.....C
03A0: 00 43 01 24 2A 80 13 80  13 80 25 02 00 10 13 80  .C.$*.....%.....
03B0: 00 B9 03 01 23 04 01 1B  04 02 00 10 10 80 00 CE  ....#...........
03C0: 03 03 11 00 02 10 03 03  00 03 10 01 1B 04 02 00  ................
03D0: 10 1E 80 00 E3 03 03 11  00 04 10 03 03 00 05 10  ................
03E0: 01 1B 04 02 00 10 1F 80  00 F8 03 03 11 00 06 10  ................
03F0: 03 03 00 07 10 01 1B 04  02 00 10 1C 80 00 0D 04  ................
0400: 03 11 00 08 10 03 03 00  09 10 01 1B 04 02 00 10  ................
0410: 2B 80 00 1B 04 01 DD 04  01 1B 04 03 0D 00 10 80  +...............
0420: 01 94 04 03 01 10 1F 80  43 00 43 01 24 2C 80 13  ........C.C.$,..
0430: 80 13 80 25 02 00 10 13  80 00 42 04 01 9A 03 01  ...%......B.....
0440: 8F 04 02 00 10 10 80 00  57 04 03 11 00 02 10 03  ........W.......
0450: 03 00 03 10 01 8F 04 02  00 10 1E 80 00 6C 04 03  .............l..
0460: 11 00 04 10 03 03 00 05  10 01 8F 04 02 00 10 1F  ................
0470: 80 00 81 04 03 11 00 06  10 03 03 00 07 10 01 8F  ................
0480: 04 02 00 10 1C 80 00 8F  04 01 DD 04 01 8F 04 03  ................
0490: 0D 00 1E 80 93 03 00 03  02 10 03 00 03 03 10 07  ................
04A0: 00 03 04 10 11 00 5B 00  80 F9 71 09 01 F9 71 09  ......[...q...q.
04B0: 01 70 61 73 30 1D 2D 80  23 5E 69 64 6C 30 93 13  .pas0.-.#^idl0..
04C0: 80 02 0D 00 10 80 80 CF  04 01 9A 03 01 DD 04 02  ................
04D0: 0D 00 1E 80 80 DD 04 01  23 04 01 DD 04 1B 03 01  ........#.......
04E0: 10 10 80 43 00 43 01 24  2E 80 13 80 13 80 25 02  ...C.C.$......%.
04F0: 00 10 10 80 00 14 05 03  02 10 0A 00 03 03 10 0B  ................
0500: 00 03 04 10 11 80 03 05  10 0C 00 1A 61 06 01 E7  ............a...
0510: 04 01 14 05 01 8C 01 00  03 01 10 1A 80 43 00 43  .............C.C
0520: 01 1D 2F 80 23 03 10 00  03 10 03 03 10 30 80 03  ../.#........0..
0530: 04 10 30 80 03 05 10 30  80 03 06 10 30 80 03 07  ..0....0....0...
0540: 10 31 80 03 08 10 32 80  03 09 10 30 80 03 00 17  .1....2....0....
0550: 30 80 03 01 17 30 80 03  02 17 32 80 03 03 17 10  0....0....2.....
0560: 00 24 33 80 13 80 02 10  25 02 00 10 13 80 00 77  .$3.....%......w
0570: 05 01 5D 06 01 17 06 02  00 10 10 80 00 87 05 03  ..].............
0580: 02 10 34 80 01 17 06 02  00 10 1E 80 00 97 05 03  ..4.............
0590: 02 10 35 80 01 17 06 02  00 10 1F 80 00 A7 05 03  ..5.............
05A0: 02 10 36 80 01 17 06 02  00 10 1C 80 00 B7 05 03  ..6.............
05B0: 02 10 37 80 01 17 06 02  00 10 2B 80 00 C7 05 03  ..7.......+.....
05C0: 02 10 38 80 01 17 06 02  00 10 39 80 00 D7 05 03  ..8.......9.....
05D0: 02 10 3A 80 01 17 06 02  00 10 3B 80 00 E7 05 03  ..:.......;.....
05E0: 02 10 3C 80 01 17 06 02  00 10 3D 80 00 F7 05 03  ..<.......=.....
05F0: 02 10 3E 80 01 17 06 02  00 10 3F 80 00 07 06 03  ..>.......?.....
0600: 02 10 40 80 01 17 06 02  00 10 17 80 00 17 06 03  ..@.............
0610: 02 10 41 80 01 17 06 24  42 80 13 80 13 80 25 02  ..A....$B.....%.
0620: 00 10 13 80 00 3E 06 03  01 10 02 10 43 00 43 01  .....>......C.C.
0630: 02 02 10 1B 80 01 3B 06  01 25 05 01 5D 06 02 00  ......;..%..]...
0640: 10 10 80 00 5D 06 03 01  10 1A 80 43 00 43 01 02  ....]......C.C..
0650: 02 10 1B 80 01 5A 06 01  25 05 01 5D 06 01 8C 01  .....Z..%..]....
0660: 00 5B 00 80 F9 71 09 01  F9 71 09 01 74 6C 6B 31  .[...q...q..tlk1
0670: 1D 03 80 23 1D 04 80 23  1D 05 80 23 5B 00 80 F9  ...#...#...#[...
0680: 71 09 01 F9 71 09 01 74  6C 6B 30 1D 06 80 23 1D  q...q..tlk0...#.
0690: 07 80 23 1D 08 80 23 1D  09 80 23 1D 0A 80 23 1D  ..#...#...#...#.
06A0: 0B 80 23 1D 0C 80 23 5E  69 64 6C 30 1B 1D 0E 80  ..#...#^idl0....
06B0: 23 1D 0F 80 23 5B 00 80  F9 71 09 01 F9 71 09 01  #...#[...q...q..
06C0: 70 61 73 30 93 09 00 03  09 10 10 80 03 02 10 11  pas0............
06D0: 80 1D 12 80 23 53 F9 71  09 01 F9 71 09 01 70 61  ....#S.q...q..pa
06E0: 73 30 93 13 80 5B 00 80  F9 71 09 01 F9 71 09 01  s0...[...q...q..
06F0: 74 6C 6B 30 1D 14 80 23  03 02 10 06 00 03 03 10  tlk0...#........
0700: 04 00 03 04 10 07 00 5B  00 80 F9 71 09 01 F9 71  .......[...q...q
0710: 09 01 74 6C 6B 31 1D 15  80 23 03 02 10 07 00 03  ..tlk1...#......
0720: 03 10 05 00 03 04 10 08  00 1D 16 80 23 5B 00 80  ............#[..
0730: F9 71 09 01 F9 71 09 01  74 6C 6B 30 03 01 10 17  .q...q..tlk0....
0740: 80 43 00 43 01 1D 18 80  23 5E 69 64 6C 30 1B     .C.C....#^idl0. 
```

#### Opcodes

```
  0: 0x035A [0x42] SET_CLI_EVENT_CANCEL_DATA()
  1: 0x035B [0x1E] EventEntity looks at LocalPlayer and starts talking
  2: 0x0360 [0x1D] PRINT_EVENT_MESSAGE(message_id=7472*)
    → "Well, you make an old Gob smile, you do. Not many people hand over $1 $0 . Take this $2 and get outta here."
  3: 0x0363 [0x23] WAIT_FOR_DIALOG_INTERACTION
  4: 0x0364 [0x5B] LOAD_EXT_SCHEDULER: Load scheduler "pas0" with entities [Antiqix (ID: 17396217/0x010971F9), Antiqix (ID: 17396217/0x010971F9)], work=215*
  5: 0x0373 [0x53] WAIT_SCHEDULER_TASK: Wait for scheduler "pas0" with entities [Antiqix (ID: 17396217/0x010971F9), Antiqix (ID: 17396217/0x010971F9)]
  6: 0x0380 [0x21] END_EVENT
  7: 0x0381 [0x00] END_REQSTACK()
```

#### Data or dead code:

```
# Dead code (unreachable instructions):
     0x0382 [0x5B] LOAD_EXT_SCHEDULER: Load scheduler "tlk0" with entities [Antiqix (ID: 17396217/0x010971F9), Antiqix (ID: 17396217/0x010971F9)], work=215*
     0x0391 [0x1D] PRINT_EVENT_MESSAGE(message_id=7526*)
    → "Here's the list of stuff you can trade your $0 for."
     0x0394 [0x23] WAIT_FOR_DIALOG_INTERACTION
     0x0395 [0x5E] EventEntity goes idle (kills current action) (animation: "idl0")
     0x039A [0x03] Work_Zone[1] = 2*
     0x039F [0x43] SEND_EVENT_UPDATE: Send pending tag to server (packet 0x005B)
     0x03A1 [0x43] SEND_EVENT_UPDATE: Check pending flag (skip if not pending)
     0x03A3 [0x24] CREATE_DIALOG(message_id=7541*, default_option=0*, option_flags=0*)
    → "Which item will you look at? [View next page./$1: $0 [shell/shells]./$3: $2 [shell/shells]./$5: $4 [shell/shells]./$7: $6 [shell/shells]./Nothing.]"
     0x03AA [0x25] WAIT_DIALOG_SELECT()
     0x03AB [0x02] IF !(Work_Zone[0] == 0*) GOTO 0x03B9
     0x03B3 [0x01] GOTO 0x0423
     0x03B6 [0x01] GOTO 0x041B
     0x03B9 [0x02] IF !(Work_Zone[0] == 1*) GOTO 0x03CE
     0x03C1 [0x03] ExtData[1]->WorkLocal[17] = Work_Zone[2]
     0x03C6 [0x03] ExtData[1]->WorkLocal[3] = Work_Zone[3]
     0x03CB [0x01] GOTO 0x041B
     0x03CE [0x02] IF !(Work_Zone[0] == 2*) GOTO 0x03E3
     0x03D6 [0x03] ExtData[1]->WorkLocal[17] = Work_Zone[4]
     0x03DB [0x03] ExtData[1]->WorkLocal[3] = Work_Zone[5]
     0x03E0 [0x01] GOTO 0x041B
     0x03E3 [0x02] IF !(Work_Zone[0] == 3*) GOTO 0x03F8
     0x03EB [0x03] ExtData[1]->WorkLocal[17] = Work_Zone[6]
     0x03F0 [0x03] ExtData[1]->WorkLocal[3] = Work_Zone[7]
     0x03F5 [0x01] GOTO 0x041B
     0x03F8 [0x02] IF !(Work_Zone[0] == 4*) GOTO 0x040D
     0x0400 [0x03] ExtData[1]->WorkLocal[17] = Work_Zone[8]
     0x0405 [0x03] ExtData[1]->WorkLocal[3] = Work_Zone[9]
     0x040A [0x01] GOTO 0x041B
     0x040D [0x02] IF !(Work_Zone[0] == 5*) GOTO 0x041B
     0x0415 [0x01] GOTO 0x04DD
     0x0418 [0x01] GOTO 0x041B
     0x041B [0x03] ExtData[1]->WorkLocal[13] = 1*
     0x0420 [0x01] GOTO 0x0494
     0x0423 [0x03] Work_Zone[1] = 3*
     0x0428 [0x43] SEND_EVENT_UPDATE: Send pending tag to server (packet 0x005B)
     0x042A [0x43] SEND_EVENT_UPDATE: Check pending flag (skip if not pending)
     0x042C [0x24] CREATE_DIALOG(message_id=7542*, default_option=0*, option_flags=0*)
    → "Which item will you look at? [View previous page./$1: $0 [shell/shells]./$3: $2 [shell/shells]./$5: $4 [shell/shells]./Nothing.]"
     0x0433 [0x25] WAIT_DIALOG_SELECT()
     0x0434 [0x02] IF !(Work_Zone[0] == 0*) GOTO 0x0442
     0x043C [0x01] GOTO 0x039A
     0x043F [0x01] GOTO 0x048F
     0x0442 [0x02] IF !(Work_Zone[0] == 1*) GOTO 0x0457
     0x044A [0x03] ExtData[1]->WorkLocal[17] = Work_Zone[2]
     0x044F [0x03] ExtData[1]->WorkLocal[3] = Work_Zone[3]
     0x0454 [0x01] GOTO 0x048F
     0x0457 [0x02] IF !(Work_Zone[0] == 2*) GOTO 0x046C
     0x045F [0x03] ExtData[1]->WorkLocal[17] = Work_Zone[4]
     0x0464 [0x03] ExtData[1]->WorkLocal[3] = Work_Zone[5]
     0x0469 [0x01] GOTO 0x048F
     0x046C [0x02] IF !(Work_Zone[0] == 3*) GOTO 0x0481
     0x0474 [0x03] ExtData[1]->WorkLocal[17] = Work_Zone[6]
     0x0479 [0x03] ExtData[1]->WorkLocal[3] = Work_Zone[7]
     0x047E [0x01] GOTO 0x048F
     0x0481 [0x02] IF !(Work_Zone[0] == 4*) GOTO 0x048F
     0x0489 [0x01] GOTO 0x04DD
     0x048C [0x01] GOTO 0x048F
     0x048F [0x03] ExtData[1]->WorkLocal[13] = 2*
     0x0494 [0x93] DISPLAY_ITEM_INFO(item_id=ExtData[1]->WorkLocal[3])
     0x0497 [0x03] Work_Zone[2] = ExtData[1]->WorkLocal[3]
     0x049C [0x03] Work_Zone[3] = ExtData[1]->WorkLocal[7]
     0x04A1 [0x03] Work_Zone[4] = ExtData[1]->WorkLocal[17]
     0x04A6 [0x5B] LOAD_EXT_SCHEDULER: Load scheduler "pas0" with entities [Antiqix (ID: 17396217/0x010971F9), Antiqix (ID: 17396217/0x010971F9)], work=215*
     0x04B5 [0x1D] PRINT_EVENT_MESSAGE(message_id=7528*)
    → "This is $0. You want one, you're gonna have to bring me $2 $0$0 ."
     0x04B8 [0x23] WAIT_FOR_DIALOG_INTERACTION
     0x04B9 [0x5E] EventEntity goes idle (kills current action) (animation: "idl0")
     0x04BE [0x93] DISPLAY_ITEM_INFO(item_id=0*)
     0x04C1 [0x02] IF !(ExtData[1]->WorkLocal[13] == 1*) GOTO 0x04CF
     0x04C9 [0x01] GOTO 0x039A
     0x04CC [0x01] GOTO 0x04DD
     0x04CF [0x02] IF !(ExtData[1]->WorkLocal[13] == 2*) GOTO 0x04DD
     0x04D7 [0x01] GOTO 0x0423
     0x04DA [0x01] GOTO 0x04DD
     0x04DD [0x1B] RETURN
     0x04DE [0x03] Work_Zone[1] = 1*
     0x04E3 [0x43] SEND_EVENT_UPDATE: Send pending tag to server (packet 0x005B)
     0x04E5 [0x43] SEND_EVENT_UPDATE: Check pending flag (skip if not pending)
     0x04E7 [0x24] CREATE_DIALOG(message_id=7530*, default_option=0*, option_flags=0*)
    → "What do you want to ask about? [Nothing./Hourglasses.]"
     0x04EE [0x25] WAIT_DIALOG_SELECT()
     0x04EF [0x02] IF !(Work_Zone[0] == 1*) GOTO 0x0514
     0x04F7 [0x03] Work_Zone[2] = ExtData[1]->WorkLocal[10]
     0x04FC [0x03] Work_Zone[3] = ExtData[1]->WorkLocal[11]
     0x0501 [0x03] Work_Zone[4] = 1550*
     0x0506 [0x03] Work_Zone[5] = ExtData[1]->WorkLocal[12]
     0x050B [0x1A] CALL_SUBROUTINE(address=0x0661)
     0x050E [0x01] GOTO 0x04E7
     0x0511 [0x01] GOTO 0x0514
     0x0514 [0x01] GOTO 0x018C
     0x0517 [0x00] END_REQSTACK()
     0x0518 [0x03] Work_Zone[1] = 11*
     0x051D [0x43] SEND_EVENT_UPDATE: Send pending tag to server (packet 0x005B)
     0x051F [0x43] SEND_EVENT_UPDATE: Check pending flag (skip if not pending)
     0x0521 [0x1D] PRINT_EVENT_MESSAGE(message_id=7782*)
    → "Maps, ya say? Hah! Just like one o' your kind to need those dingy scraps o' parchment."
     0x0524 [0x23] WAIT_FOR_DIALOG_INTERACTION
     0x0525 [0x03] ExtData[1]->WorkLocal[16] = Work_Zone[3]
     0x052A [0x03] Work_Zone[3] = 10000*
     0x052F [0x03] Work_Zone[4] = 10000*
     0x0534 [0x03] Work_Zone[5] = 10000*
     0x0539 [0x03] Work_Zone[6] = 10000*
     0x053E [0x03] Work_Zone[7] = 15000*
     0x0543 [0x03] Work_Zone[8] = 20000*
     0x0548 [0x03] Work_Zone[9] = 10000*
     0x054D [0x03] Work_Zone_1700[0] = 10000*
     0x0552 [0x03] Work_Zone_1700[1] = 10000*
     0x0557 [0x03] Work_Zone_1700[2] = 20000*
     0x055C [0x03] Work_Zone_1700[3] = ExtData[1]->WorkLocal[16]
     0x0561 [0x24] CREATE_DIALOG(message_id=7784*, default_option=0*, option_flags=Work_Zone[2])
    → "Buy a map? (Current gil: $11). [Not now./Dynamis - San d'Oria ($1)./Dynamis - Bastok ($2)./Dynamis - Windurst ($3)./Dynamis - Jeuno ($4)./Dynamis - Beaucedine ($5)./Dynamis - Xarcabard ($6)./Dynamis - Valkurm ($7)./Dynamis - Buburimu ($8)./Dynamis - Qufim ($9)./Dynamis - Tavnazia ($10).]"
     0x0568 [0x25] WAIT_DIALOG_SELECT()
     0x0569 [0x02] IF !(Work_Zone[0] == 0*) GOTO 0x0577
     0x0571 [0x01] GOTO 0x065D
     0x0574 [0x01] GOTO 0x0617
     0x0577 [0x02] IF !(Work_Zone[0] == 1*) GOTO 0x0587
     0x057F [0x03] Work_Zone[2] = 1894*
     0x0584 [0x01] GOTO 0x0617
     0x0587 [0x02] IF !(Work_Zone[0] == 2*) GOTO 0x0597
     0x058F [0x03] Work_Zone[2] = 1895*
     0x0594 [0x01] GOTO 0x0617
     0x0597 [0x02] IF !(Work_Zone[0] == 3*) GOTO 0x05A7
     0x059F [0x03] Work_Zone[2] = 1896*
     0x05A4 [0x01] GOTO 0x0617
     0x05A7 [0x02] IF !(Work_Zone[0] == 4*) GOTO 0x05B7
     0x05AF [0x03] Work_Zone[2] = 1897*
     0x05B4 [0x01] GOTO 0x0617
     0x05B7 [0x02] IF !(Work_Zone[0] == 5*) GOTO 0x05C7
     0x05BF [0x03] Work_Zone[2] = 1898*
     0x05C4 [0x01] GOTO 0x0617
     0x05C7 [0x02] IF !(Work_Zone[0] == 6*) GOTO 0x05D7
     0x05CF [0x03] Work_Zone[2] = 1899*
     0x05D4 [0x01] GOTO 0x0617
     0x05D7 [0x02] IF !(Work_Zone[0] == 7*) GOTO 0x05E7
     0x05DF [0x03] Work_Zone[2] = 1900*
     0x05E4 [0x01] GOTO 0x0617
     0x05E7 [0x02] IF !(Work_Zone[0] == 8*) GOTO 0x05F7
     0x05EF [0x03] Work_Zone[2] = 1901*
     0x05F4 [0x01] GOTO 0x0617
     0x05F7 [0x02] IF !(Work_Zone[0] == 9*) GOTO 0x0607
     0x05FF [0x03] Work_Zone[2] = 1902*
     0x0604 [0x01] GOTO 0x0617
     0x0607 [0x02] IF !(Work_Zone[0] == 10*) GOTO 0x0617
     0x060F [0x03] Work_Zone[2] = 1903*
     0x0614 [0x01] GOTO 0x0617
     0x0617 [0x24] CREATE_DIALOG(message_id=7785*, default_option=0*, option_flags=0*)
    → "Buy $6? [Deal!/No deal.]"
     0x061E [0x25] WAIT_DIALOG_SELECT()
     0x061F [0x02] IF !(Work_Zone[0] == 0*) GOTO 0x063E
     0x0627 [0x03] Work_Zone[1] = Work_Zone[2]
     0x062C [0x43] SEND_EVENT_UPDATE: Send pending tag to server (packet 0x005B)
     0x062E [0x43] SEND_EVENT_UPDATE: Check pending flag (skip if not pending)
     0x0630 [0x02] IF !(Work_Zone[2] == 2046*) GOTO 0x063B
     0x0638 [0x01] GOTO 0x0525
     0x063B [0x01] GOTO 0x065D
     0x063E [0x02] IF !(Work_Zone[0] == 1*) GOTO 0x065D
     0x0646 [0x03] Work_Zone[1] = 11*
     0x064B [0x43] SEND_EVENT_UPDATE: Send pending tag to server (packet 0x005B)
     0x064D [0x43] SEND_EVENT_UPDATE: Check pending flag (skip if not pending)
     0x064F [0x02] IF !(Work_Zone[2] == 2046*) GOTO 0x065A
     0x0657 [0x01] GOTO 0x0525
     0x065A [0x01] GOTO 0x065D
     0x065D [0x01] GOTO 0x018C
     0x0660 [0x00] END_REQSTACK()
     0x0661 [0x5B] LOAD_EXT_SCHEDULER: Load scheduler "tlk1" with entities [Antiqix (ID: 17396217/0x010971F9), Antiqix (ID: 17396217/0x010971F9)], work=215*
     0x0670 [0x1D] PRINT_EVENT_MESSAGE(message_id=7477*)
    → "There's a story that says some things have their own soul."
     0x0673 [0x23] WAIT_FOR_DIALOG_INTERACTION
     0x0674 [0x1D] PRINT_EVENT_MESSAGE(message_id=7478*)
    → "The $5 used to be just simple hourglasses. But as they passed through the hands of dozens of people, and even a few beastmen as well, the hourglasses were transformed by all their thoughts and feelings."
     0x0677 [0x23] WAIT_FOR_DIALOG_INTERACTION
     0x0678 [0x1D] PRINT_EVENT_MESSAGE(message_id=7479*)
    → "They have the ability to focus mysterious powers. In our travels through all the lands of this world, us Goblins often come across this sorta thing."
     0x067B [0x23] WAIT_FOR_DIALOG_INTERACTION
     0x067C [0x5B] LOAD_EXT_SCHEDULER: Load scheduler "tlk0" with entities [Antiqix (ID: 17396217/0x010971F9), Antiqix (ID: 17396217/0x010971F9)], work=215*
     0x068B [0x1D] PRINT_EVENT_MESSAGE(message_id=7480*)
    → "Now we come to the fun part. If you want a $3, I'd be willing to sell one to you. And you should know that only us Gobs can tell if an item has its own soul."
     0x068E [0x23] WAIT_FOR_DIALOG_INTERACTION
     0x068F [0x1D] PRINT_EVENT_MESSAGE(message_id=7481*)
    → "You people--heck, even other beastmen--have no idea. I've seen you guys throw away these items like they were junk."
     0x0692 [0x23] WAIT_FOR_DIALOG_INTERACTION
     0x0693 [0x1D] PRINT_EVENT_MESSAGE(message_id=7482*)
    → "They may look like garbage, but souled items are rare and valuable. You still want an hourglass, you gotta cough up $3 gil."
     0x0696 [0x23] WAIT_FOR_DIALOG_INTERACTION
     0x0697 [0x1D] PRINT_EVENT_MESSAGE(message_id=7484*)
    → "You want one, you hand me over the money. Like, with a quickness. So how's about it?"
     0x069A [0x23] WAIT_FOR_DIALOG_INTERACTION
     0x069B [0x1D] PRINT_EVENT_MESSAGE(message_id=7485*)
    → "What's that you got there? $0? You're quite the collector for one o' your kind."
     0x069E [0x23] WAIT_FOR_DIALOG_INTERACTION
     0x069F [0x1D] PRINT_EVENT_MESSAGE(message_id=7486*)
    → "It might just be a worthless piece o' junk for you, but it's priceless to us Gobs. If you want, I can take it off your hands for $1."
     0x06A2 [0x23] WAIT_FOR_DIALOG_INTERACTION
     0x06A3 [0x1D] PRINT_EVENT_MESSAGE(message_id=7487*)
    → "I add to my collection, you get some pocket change. A win-win situation, right? So just trade that $0 on over, why don't ya?"
     0x06A6 [0x23] WAIT_FOR_DIALOG_INTERACTION
     0x06A7 [0x5E] EventEntity goes idle (kills current action) (animation: "idl0")
     0x06AC [0x1B] RETURN
     0x06AD [0x1D] PRINT_EVENT_MESSAGE(message_id=7500*)
    → "But when gil became the coin of choice, all the other types of money were done away with. Now the old forms of currency are worthless to anyone besides a collector like me."
     0x06B0 [0x23] WAIT_FOR_DIALOG_INTERACTION
     0x06B1 [0x1D] PRINT_EVENT_MESSAGE(message_id=7501*)
    → "You've never seen them before? Here, take a look at this."
     0x06B4 [0x23] WAIT_FOR_DIALOG_INTERACTION
     0x06B5 [0x5B] LOAD_EXT_SCHEDULER: Load scheduler "pas0" with entities [Antiqix (ID: 17396217/0x010971F9), Antiqix (ID: 17396217/0x010971F9)], work=215*
     0x06C4 [0x93] DISPLAY_ITEM_INFO(item_id=ExtData[1]->WorkLocal[9])
     0x06C7 [0x03] Work_Zone[9] = 1*
     0x06CC [0x03] Work_Zone[2] = 1550*
     0x06D1 [0x1D] PRINT_EVENT_MESSAGE(message_id=7502*)
    → "This is the least valuable type. It was part of the currency of [Bastok/Windurst]. Since you were able to find out about the $0, I'm guessing you'll be able to get your hands on a few of these."
     0x06D4 [0x23] WAIT_FOR_DIALOG_INTERACTION
     0x06D5 [0x53] WAIT_SCHEDULER_TASK: Wait for scheduler "pas0" with entities [Antiqix (ID: 17396217/0x010971F9), Antiqix (ID: 17396217/0x010971F9)]
     0x06E2 [0x93] DISPLAY_ITEM_INFO(item_id=0*)
     0x06E5 [0x5B] LOAD_EXT_SCHEDULER: Load scheduler "tlk0" with entities [Antiqix (ID: 17396217/0x010971F9), Antiqix (ID: 17396217/0x010971F9)], work=215*
     0x06F4 [0x1D] PRINT_EVENT_MESSAGE(message_id=7503*)
    → "The three nations all had their different types of money, but I'm only interested in the old currency of [Bastok/Windurst]. Collect enough of them and I'll trade you some other stuff I've got."
     0x06F7 [0x23] WAIT_FOR_DIALOG_INTERACTION
     0x06F8 [0x03] Work_Zone[2] = ExtData[1]->WorkLocal[6]
     0x06FD [0x03] Work_Zone[3] = ExtData[1]->WorkLocal[4]
     0x0702 [0x03] Work_Zone[4] = ExtData[1]->WorkLocal[7]
     0x0707 [0x5B] LOAD_EXT_SCHEDULER: Load scheduler "tlk1" with entities [Antiqix (ID: 17396217/0x010971F9), Antiqix (ID: 17396217/0x010971F9)], work=215*
     0x0716 [0x1D] PRINT_EVENT_MESSAGE(message_id=7504*)
    → "One's not gonna be enough, though. You bring me $1 $0 and I'll trade you a single $2. You don't look real interested, but hold up. I'm just getting started."
     0x0719 [0x23] WAIT_FOR_DIALOG_INTERACTION
     0x071A [0x03] Work_Zone[2] = ExtData[1]->WorkLocal[7]
     0x071F [0x03] Work_Zone[3] = ExtData[1]->WorkLocal[5]
     0x0724 [0x03] Work_Zone[4] = ExtData[1]->WorkLocal[8]
     0x0729 [0x1D] PRINT_EVENT_MESSAGE(message_id=7505*)
    → "If you've got $1 $0 , I'll give you a $2. Either that or I'll trade you for one of the goodies in my treasure hoard. They all go for a different price, however."
     0x072C [0x23] WAIT_FOR_DIALOG_INTERACTION
     0x072D [0x5B] LOAD_EXT_SCHEDULER: Load scheduler "tlk0" with entities [Antiqix (ID: 17396217/0x010971F9), Antiqix (ID: 17396217/0x010971F9)], work=215*
     0x073C [0x03] Work_Zone[1] = 10*
     0x0741 [0x43] SEND_EVENT_UPDATE: Send pending tag to server (packet 0x005B)
     0x0743 [0x43] SEND_EVENT_UPDATE: Check pending flag (skip if not pending)
     0x0745 [0x1D] PRINT_EVENT_MESSAGE(message_id=7628*)
    → "I'll exchange you $2 $0$0 for a $0. They're worth a bunch, so don't go giving 'em away."
     0x0748 [0x23] WAIT_FOR_DIALOG_INTERACTION
     0x0749 [0x5E] EventEntity goes idle (kills current action) (animation: "idl0")
     0x074E [0x1B] RETURN
```

### Event 58

#### Metadata

| Field        | Value    |
|--------------|----------|
| Entrypoint   | 0x074F   |
| Data Size    | 49 bytes |
| Instructions | 11       |

```
      00 01 02 03 04 05 06 07  08 09 0A 0B 0C 0D 0E 0F
      -- -- -- -- -- -- -- --  -- -- -- -- -- -- -- --
0740:                                               42                 B
0750: 1E F0 FF FF 7F 03 01 10  17 80 43 00 43 01 1D 43  ..........C.C..C
0760: 80 23 5B 00 80 F9 71 09  01 F9 71 09 01 70 61 73  .#[...q...q..pas
0770: 30 53 F9 71 09 01 F9 71  09 01 70 61 73 30 21 00  0S.q...q..pas0!.
```

#### Opcodes

```
  0: 0x074F [0x42] SET_CLI_EVENT_CANCEL_DATA()
  1: 0x0750 [0x1E] EventEntity looks at LocalPlayer and starts talking
  2: 0x0755 [0x03] Work_Zone[1] = 10*
  3: 0x075A [0x43] SEND_EVENT_UPDATE: Send pending tag to server (packet 0x005B)
  4: 0x075C [0x43] SEND_EVENT_UPDATE: Check pending flag (skip if not pending)
  5: 0x075E [0x1D] PRINT_EVENT_MESSAGE(message_id=7630*)
    → "Alrighty, $2 $0$0 in exchange for your $0."
  6: 0x0761 [0x23] WAIT_FOR_DIALOG_INTERACTION
  7: 0x0762 [0x5B] LOAD_EXT_SCHEDULER: Load scheduler "pas0" with entities [Antiqix (ID: 17396217/0x010971F9), Antiqix (ID: 17396217/0x010971F9)], work=215*
  8: 0x0771 [0x53] WAIT_SCHEDULER_TASK: Wait for scheduler "pas0" with entities [Antiqix (ID: 17396217/0x010971F9), Antiqix (ID: 17396217/0x010971F9)]
  9: 0x077E [0x21] END_EVENT
 10: 0x077F [0x00] END_REQSTACK()
```
