# 17396267 - Nantoto

## Common Data

| Field            | Value                    |
|------------------|--------------------------|
| Zone             | Castle Oztroja (ID: 151) |
| Block Size       | 100 bytes                |
| Total Events     | 5                        |
| References Count | 3                        |

## List of Events

| Event ID                 | Entrypoint   |   Size |   Instructions |
|--------------------------|--------------|--------|----------------|
| [65535](#event-65535)    | 0x0000       |      1 |              1 |
| [99](#event-99)          | 0x0001       |      1 |              1 |
| [65535.1](#event-655351) | 0x0002       |     12 |              2 |
| [65535.2](#event-655352) | 0x000E       |     19 |              5 |
| [65535.3](#event-655353) | 0x0021       |     16 |              2 |

## DAT References (imed_data)

|   Index | Hex Value   |   Dec Value |
|---------|-------------|-------------|
|       0 | 0x0003      |           3 |
|       1 | 0x001E      |          30 |
|       2 | 0x00B4      |         180 |

## Events

### Event 65535

#### Metadata

| Field        | Value   |
|--------------|---------|
| Entrypoint   | 0x0000  |
| Data Size    | 1 bytes |
| Instructions | 1       |

```
      00 01 02 03 04 05 06 07  08 09 0A 0B 0C 0D 0E 0F
      -- -- -- -- -- -- -- --  -- -- -- -- -- -- -- --
0000: 00                                                .               
```

#### Opcodes

```
  0: 0x0000 [0x00] END_REQSTACK()
```

### Event 99

#### Metadata

| Field        | Value   |
|--------------|---------|
| Entrypoint   | 0x0001  |
| Data Size    | 1 bytes |
| Instructions | 1       |

```
      00 01 02 03 04 05 06 07  08 09 0A 0B 0C 0D 0E 0F
      -- -- -- -- -- -- -- --  -- -- -- -- -- -- -- --
0000:    00                                              .              
```

#### Opcodes

```
  0: 0x0001 [0x00] END_REQSTACK()
```

### Event 65535.1

#### Metadata

| Field        | Value    |
|--------------|----------|
| Entrypoint   | 0x0002   |
| Data Size    | 12 bytes |
| Instructions | 2        |

```
      00 01 02 03 04 05 06 07  08 09 0A 0B 0C 0D 0E 0F
      -- -- -- -- -- -- -- --  -- -- -- -- -- -- -- --
0000:       73 00 80 2B 72 09  01 27 72 09 01 00          s..+r..'r...  
```

#### Opcodes

```
  0: 0x0002 [0x73] Nantoto (ID: 17396267/0x0109722B) casts magic 3* on Rolandienne (ID: 17396263/0x01097227)
  1: 0x000D [0x00] END_REQSTACK()
```

### Event 65535.2

#### Metadata

| Field        | Value    |
|--------------|----------|
| Entrypoint   | 0x000E   |
| Data Size    | 19 bytes |
| Instructions | 5        |

```
      00 01 02 03 04 05 06 07  08 09 0A 0B 0C 0D 0E 0F
      -- -- -- -- -- -- -- --  -- -- -- -- -- -- -- --
0000:                                            1C 01                ..
0010: 80 4A 2B 72 09 01 27 72  09 01 6F 76 2B 72 09 01  .J+r..'r..ov+r..
0020: 00                                                .               
```

#### Opcodes

```
  0: 0x000E [0x1C] WAIT(30* ticks)
  1: 0x0011 [0x4A] Nantoto (ID: 17396267/0x0109722B) looks at Rolandienne (ID: 17396263/0x01097227)
  2: 0x001A [0x6F] WAIT_FRAME_DELAY: Yield until WaitTime reaches zero
  3: 0x001B [0x76] CHECK_ENTITY_RENDER_FLAGS: Wait until Nantoto (ID: 17396267/0x0109722B) Render.Flags0 and Render.Flags3 conditions are met
  4: 0x0020 [0x00] END_REQSTACK()
```

### Event 65535.3

#### Metadata

| Field        | Value    |
|--------------|----------|
| Entrypoint   | 0x0021   |
| Data Size    | 16 bytes |
| Instructions | 2        |

```
      00 01 02 03 04 05 06 07  08 09 0A 0B 0C 0D 0E 0F
      -- -- -- -- -- -- -- --  -- -- -- -- -- -- -- --
0020:    66 02 80 F8 FF FF 7F  F8 FF FF 7F 6F 72 7A 30   f..........orz0
0030: 00                                                .               
```

#### Opcodes

```
  0: 0x0021 [0x66] LOAD_EXT_SCHEDULER_MAIN: Load scheduler "orz0" with entities [EventEntity, EventEntity], work=180*
  1: 0x0030 [0x00] END_REQSTACK()
```
