# 17396160

## Common Data

| Field            | Value                    |
|------------------|--------------------------|
| Zone             | Castle Oztroja (ID: 151) |
| Block Size       | 72 bytes                 |
| Total Events     | 2                        |
| References Count | 4                        |

## List of Events

| Event ID              | Entrypoint   |   Size |   Instructions |
|-----------------------|--------------|--------|----------------|
| [65535](#event-65535) | 0x0000       |      1 |              1 |
| [44](#event-44)       | 0x0001       |     31 |              9 |

## DAT References (imed_data)

|   Index | Hex Value   |   Dec Value |
|---------|-------------|-------------|
|       0 | 0x0003      |           3 |
|       1 | 0x0000      |           0 |
|       2 | 0x003C      |          60 |
|       3 | 0x1D09      |        7433 |

## String References

- **7433**: You find $6 marked with the sign of the eye.

## Events

### Event 65535

#### Metadata

| Field        | Value   |
|--------------|---------|
| Entrypoint   | 0x0000  |
| Data Size    | 1 bytes |
| Instructions | 1       |

```
      00 01 02 03 04 05 06 07  08 09 0A 0B 0C 0D 0E 0F
      -- -- -- -- -- -- -- --  -- -- -- -- -- -- -- --
0000: 00                                                .               
```

#### Opcodes

```
  0: 0x0000 [0x00] END_REQSTACK()
```

### Event 44

#### Metadata

| Field        | Value    |
|--------------|----------|
| Entrypoint   | 0x0001   |
| Data Size    | 31 bytes |
| Instructions | 9        |

```
      00 01 02 03 04 05 06 07  08 09 0A 0B 0C 0D 0E 0F
      -- -- -- -- -- -- -- --  -- -- -- -- -- -- -- --
0000:    42 20 01 62 00 80 F8  FF FF 7F F8 FF FF 7F 6D   B .b..........m
0010: 61 69 6E 01 80 1C 02 80  48 03 80 23 20 00 21 00  ain.....H..# .!.
```

#### Opcodes

```
  0: 0x0001 [0x42] SET_CLI_EVENT_CANCEL_DATA()
  1: 0x0002 [0x20] SET_CLI_EVENT_UC_FLAG: Lock player control
  2: 0x0004 [0x62] LOAD_EVENT_SCHEDULER: Load scheduler "main" with entities [EventEntity, EventEntity], work=[3*, 0*]
  3: 0x0015 [0x1C] WAIT(60* ticks)
  4: 0x0018 [0x48] [System] [7433*]:
    → "You find $6 marked with the sign of the eye."
  5: 0x001B [0x23] WAIT_FOR_DIALOG_INTERACTION
  6: 0x001C [0x20] SET_CLI_EVENT_UC_FLAG: Unlock player control
  7: 0x001E [0x21] END_EVENT
  8: 0x001F [0x00] END_REQSTACK()
```
