# 17396256

## Common Data

| Field            | Value                    |
|------------------|--------------------------|
| Zone             | Castle Oztroja (ID: 151) |
| Block Size       | 4344 bytes               |
| Total Events     | 2                        |
| References Count | 117                      |

## List of Events

| Event ID              | Entrypoint   |   Size |   Instructions |
|-----------------------|--------------|--------|----------------|
| [65535](#event-65535) | 0x0000       |    658 |             62 |
| [99](#event-99)       | 0x0292       |   3191 |            492 |

## DAT References (imed_data)

|   Index | Hex Value   |   Dec Value |
|---------|-------------|-------------|
|       0 | 0x00C8      |         200 |
|       1 | 0x0000      |           0 |
|       2 | 0x00C9      |         201 |
|       3 | 0x0001      |           1 |
|       4 | 0x002D      |          45 |
|       5 | 0x0002      |           2 |
|       6 | 0x001E      |          30 |
|       7 | 0x00D7      |         215 |
|       8 | 0x000C      |          12 |
|       9 | 0x0093      |         147 |
|      10 | 0xFFFF1661  |  4294907489 |
|      11 | 0xEE08      |       60936 |
|      12 | 0xFFFF0CD7  |  4294905047 |
|      13 | 0x0F2F      |        3887 |
|      14 | 0xFFFF2C8F  |  4294913167 |
|      15 | 0x116A6     |       71334 |
|      16 | 0xFFFF0AA6  |  4294904486 |
|      17 | 0x04C8      |        1224 |
|      18 | 0xFFFF15B4  |  4294907316 |
|      19 | 0xF7A7      |       63399 |
|      20 | 0xFFFF0CD6  |  4294905046 |
|      21 | 0x01FA      |         506 |
|      22 | 0xFFFF1BD6  |  4294908886 |
|      23 | 0xFB5D      |       64349 |
|      24 | 0x0597      |        1431 |
|      25 | 0xFFFF10A6  |  4294906022 |
|      26 | 0xEF14      |       61204 |
|      27 | 0x0F9D      |        3997 |
|      28 | 0xFFFEADC0  |  4294880704 |
|      29 | 0xE985      |       59781 |
|      30 | 0xFFFF0B3C  |  4294904636 |
|      31 | 0xFFFF26C4  |  4294911684 |
|      32 | 0xF52C      |       62764 |
|      33 | 0x080E      |        2062 |
|      34 | 0xFFFF25FF  |  4294911487 |
|      35 | 0x109D6     |       68054 |
|      36 | 0xFFFF0D15  |  4294905109 |
|      37 | 0x05EB      |        1515 |
|      38 | 0xFFFF2957  |  4294912343 |
|      39 | 0x1007E     |       65662 |
|      40 | 0x08BC      |        2236 |
|      41 | 0xFFFF2574  |  4294911348 |
|      42 | 0x116B4     |       71348 |
|      43 | 0xFFFF0A55  |  4294904405 |
|      44 | 0x036B      |         875 |
|      45 | 0xFFFF30D7  |  4294914263 |
|      46 | 0x10621     |       67105 |
|      47 | 0xFFFF0D3F  |  4294905151 |
|      48 | 0x066B      |        1643 |
|      49 | 0xFFFC9783  |  4294743939 |
|      50 | 0xFFFFAEC7  |  4294946503 |
|      51 | 0x0144      |         324 |
|      52 | 0x03F4      |        1012 |
|      53 | 0x005A      |          90 |
|      54 | 0x0269      |         617 |
|      55 | 0x000A      |          10 |
|      56 | 0x0064      |         100 |
|      57 | 0x0014      |          20 |
|      58 | 0x0262      |         610 |
|      59 | 0x2059      |        8281 |
|      60 | 0x007F      |         127 |
|      61 | 0x205A      |        8282 |
|      62 | 0x205B      |        8283 |
|      63 | 0x001A      |          26 |
|      64 | 0x205C      |        8284 |
|      65 | 0x0078      |         120 |
|      66 | 0x205D      |        8285 |
|      67 | 0x120D      |        4621 |
|      68 | 0x205E      |        8286 |
|      69 | 0x205F      |        8287 |
|      70 | 0x2060      |        8288 |
|      71 | 0x2061      |        8289 |
|      72 | 0x0007      |           7 |
|      73 | 0x2062      |        8290 |
|      74 | 0x00C6      |         198 |
|      75 | 0x0320      |         800 |
|      76 | 0x0046      |          70 |
|      77 | 0x0028      |          40 |
|      78 | 0x0066      |         102 |
|      79 | 0x00DF      |         223 |
|      80 | 0x2063      |        8291 |
|      81 | 0x0016      |          22 |
|      82 | 0x0020      |          32 |
|      83 | 0x2064      |        8292 |
|      84 | 0x0050      |          80 |
|      85 | 0x2065      |        8293 |
|      86 | 0x0015      |          21 |
|      87 | 0x002C      |          44 |
|      88 | 0x0190      |         400 |
|      89 | 0x2066      |        8294 |
|      90 | 0x004A      |          74 |
|      91 | 0x2067      |        8295 |
|      92 | 0x01C2      |         450 |
|      93 | 0x2068      |        8296 |
|      94 | 0x003C      |          60 |
|      95 | 0x0021      |          33 |
|      96 | 0x0018      |          24 |
|      97 | 0x0004      |           4 |
|      98 | 0x2069      |        8297 |
|      99 | 0x000F      |          15 |
|     100 | 0x0010      |          16 |
|     101 | 0x206A      |        8298 |
|     102 | 0x0022      |          34 |
|     103 | 0x206B      |        8299 |
|     104 | 0x0082      |         130 |
|     105 | 0x206C      |        8300 |
|     106 | 0x206D      |        8301 |
|     107 | 0x0032      |          50 |
|     108 | 0x000B      |          11 |
|     109 | 0x206E      |        8302 |
|     110 | 0x000E      |          14 |
|     111 | 0x206F      |        8303 |
|     112 | 0x2070      |        8304 |
|     113 | 0x2071      |        8305 |
|     114 | 0x2072      |        8306 |
|     115 | 0x0019      |          25 |
|     116 | 0x2073      |        8307 |

## String References

- **8290**: Fhelm Jobeizat cheers Nantoto on!
- **8291**: Ulbrik-Mulbrok's lot for the $0: $1 points.
- **8292**: Rolandienne's lot for the $0: $1 points.
- **8293**: Duberasson's lot for the $0: $1 points.
- **8294**: Thundering Chariot's lot for the $0: $1 points.
- **8296**: Isakoth's lot for the $0: $1 points.
- **8297**: Ervok's lot for the $0: $1 points.
- **8298**: Yerva Libarello's lot for the $0: $1 points.
- **8299**: Fhelm Jobeizat's lot for the $0: $1 points.
- **8300**: Nantoto's lot for the $0: $1 points.
- **8301**: Duberasson obtains $0.
- **8305**: Fhelm Jobeizat comforts Nantoto.

## Events

### Event 65535

#### Metadata

| Field        | Value     |
|--------------|-----------|
| Entrypoint   | 0x0000    |
| Data Size    | 658 bytes |
| Instructions | 1         |

```
      00 01 02 03 04 05 06 07  08 09 0A 0B 0C 0D 0E 0F
      -- -- -- -- -- -- -- --  -- -- -- -- -- -- -- --
0000: 00 45 00 80 F0 FF FF 7F  F0 FF FF 7F 66 64 69 30  .E..........fdi0
0010: 01 80 55 00 80 F0 FF FF  7F F0 FF FF 7F 66 64 69  ..U..........fdi
0020: 30 1B 45 00 80 F0 FF FF  7F F0 FF FF 7F 66 64 6F  0.E..........fdo
0030: 30 01 80 55 00 80 F0 FF  FF 7F F0 FF FF 7F 66 64  0..U..........fd
0040: 6F 30 1B 45 00 80 F0 FF  FF 7F F0 FF FF 7F 66 64  o0.E..........fd
0050: 69 31 01 80 55 00 80 F0  FF FF 7F F0 FF FF 7F 66  i1..U..........f
0060: 64 69 31 1B 45 00 80 F0  FF FF 7F F0 FF FF 7F 66  di1.E..........f
0070: 64 6F 31 01 80 55 00 80  F0 FF FF 7F F0 FF FF 7F  do1..U..........
0080: 66 64 6F 31 1B 45 02 80  F0 FF FF 7F F0 FF FF 7F  fdo1.E..........
0090: 77 68 69 31 01 80 55 02  80 F0 FF FF 7F F0 FF FF  whi1..U.........
00A0: 7F 77 68 69 31 1B 45 02  80 F0 FF FF 7F F0 FF FF  .whi1.E.........
00B0: 7F 77 68 6F 31 01 80 55  02 80 F0 FF FF 7F F0 FF  .who1..U........
00C0: FF 7F 77 68 6F 31 1B 45  02 80 F0 FF FF 7F F0 FF  ..who1.E........
00D0: FF 7F 77 68 6F 32 01 80  55 02 80 F0 FF FF 7F F0  ..who2..U.......
00E0: FF FF 7F 77 68 6F 32 1B  45 02 80 F0 FF FF 7F F0  ...who2.E.......
00F0: FF FF 7F 77 68 6F 33 01  80 55 02 80 F0 FF FF 7F  ...who3..U......
0100: F0 FF FF 7F 77 68 6F 33  1B 62 03 80 F0 FF FF 7F  ....who3.b......
0110: F0 FF FF 7F 6D 61 69 6E  01 80 1C 04 80 45 00 80  ....main.....E..
0120: F0 FF FF 7F F0 FF FF 7F  66 64 6F 31 01 80 55 00  ........fdo1..U.
0130: 80 F0 FF FF 7F F0 FF FF  7F 66 64 6F 31 1B 45 00  .........fdo1.E.
0140: 80 F0 FF FF 7F F0 FF FF  7F 66 64 69 31 01 80 62  .........fdi1..b
0150: 05 80 F0 FF FF 7F F0 FF  FF 7F 6D 61 69 6E 01 80  ..........main..
0160: 1C 06 80 55 00 80 F0 FF  FF 7F F0 FF FF 7F 66 64  ...U..........fd
0170: 69 31 1B 45 00 80 F0 FF  FF 7F F0 FF FF 7F 62 6C  i1.E..........bl
0180: 6F 6E 01 80 45 02 80 F0  FF FF 7F F0 FF FF 7F 62  on..E..........b
0190: 6C 6F 6E 01 80 1B 45 02  80 F0 FF FF 7F F0 FF FF  lon...E.........
01A0: 7F 77 68 69 30 01 80 55  02 80 F0 FF FF 7F F0 FF  .whi0..U........
01B0: FF 7F 77 68 69 30 1B 45  02 80 F0 FF FF 7F F0 FF  ..whi0.E........
01C0: FF 7F 77 68 6F 30 01 80  55 02 80 F0 FF FF 7F F0  ..who0..U.......
01D0: FF FF 7F 77 68 6F 30 1B  45 07 80 F0 FF FF 7F F0  ...who0.E.......
01E0: FF FF 7F 65 66 6F 6E 01  80 55 07 80 F0 FF FF 7F  ...efon..U......
01F0: F0 FF FF 7F 65 66 6F 6E  1B 45 00 80 F0 FF FF 7F  ....efon.E......
0200: F0 FF FF 7F 66 64 69 73  01 80 1B 45 00 80 F0 FF  ....fdis...E....
0210: FF 7F F0 FF FF 7F 66 64  6F 73 01 80 55 00 80 F0  ......fdos..U...
0220: FF FF 7F F0 FF FF 7F 66  64 6F 73 1B 45 00 80 F0  .......fdos.E...
0230: FF FF 7F F0 FF FF 7F 66  64 69 66 01 80 1B 45 00  .......fdif...E.
0240: 80 F0 FF FF 7F F0 FF FF  7F 66 64 6F 66 01 80 55  .........fdof..U
0250: 00 80 F0 FF FF 7F F0 FF  FF 7F 66 64 6F 66 1B 45  ..........fdof.E
0260: 00 80 F0 FF FF 7F F0 FF  FF 7F 66 64 69 70 01 80  ..........fdip..
0270: 1B 45 00 80 F0 FF FF 7F  F0 FF FF 7F 66 64 6F 70  .E..........fdop
0280: 01 80 55 00 80 F0 FF FF  7F F0 FF FF 7F 66 64 6F  ..U..........fdo
0290: 70 1B                                             p.              
```

#### Opcodes

```
  0: 0x0000 [0x00] END_REQSTACK()
```

#### Data or dead code:

```
# Dead code (unreachable instructions):
     0x0001 [0x45] LOAD_SCHEDULED_TASK: Load scheduler "fdi0" with entities [LocalPlayer, LocalPlayer], work=[200*, 0*]
     0x0012 [0x55] WAIT_LOAD_SCHEDULER: Wait for scheduler "fdi0" with entities [LocalPlayer, LocalPlayer], work=200*
     0x0021 [0x1B] RETURN
     0x0022 [0x45] LOAD_SCHEDULED_TASK: Load scheduler "fdo0" with entities [LocalPlayer, LocalPlayer], work=[200*, 0*]
     0x0033 [0x55] WAIT_LOAD_SCHEDULER: Wait for scheduler "fdo0" with entities [LocalPlayer, LocalPlayer], work=200*
     0x0042 [0x1B] RETURN
     0x0043 [0x45] LOAD_SCHEDULED_TASK: Load scheduler "fdi1" with entities [LocalPlayer, LocalPlayer], work=[200*, 0*]
     0x0054 [0x55] WAIT_LOAD_SCHEDULER: Wait for scheduler "fdi1" with entities [LocalPlayer, LocalPlayer], work=200*
     0x0063 [0x1B] RETURN
     0x0064 [0x45] LOAD_SCHEDULED_TASK: Load scheduler "fdo1" with entities [LocalPlayer, LocalPlayer], work=[200*, 0*]
     0x0075 [0x55] WAIT_LOAD_SCHEDULER: Wait for scheduler "fdo1" with entities [LocalPlayer, LocalPlayer], work=200*
     0x0084 [0x1B] RETURN
     0x0085 [0x45] LOAD_SCHEDULED_TASK: Load scheduler "whi1" with entities [LocalPlayer, LocalPlayer], work=[201*, 0*]
     0x0096 [0x55] WAIT_LOAD_SCHEDULER: Wait for scheduler "whi1" with entities [LocalPlayer, LocalPlayer], work=201*
     0x00A5 [0x1B] RETURN
     0x00A6 [0x45] LOAD_SCHEDULED_TASK: Load scheduler "who1" with entities [LocalPlayer, LocalPlayer], work=[201*, 0*]
     0x00B7 [0x55] WAIT_LOAD_SCHEDULER: Wait for scheduler "who1" with entities [LocalPlayer, LocalPlayer], work=201*
     0x00C6 [0x1B] RETURN
     0x00C7 [0x45] LOAD_SCHEDULED_TASK: Load scheduler "who2" with entities [LocalPlayer, LocalPlayer], work=[201*, 0*]
     0x00D8 [0x55] WAIT_LOAD_SCHEDULER: Wait for scheduler "who2" with entities [LocalPlayer, LocalPlayer], work=201*
     0x00E7 [0x1B] RETURN
     0x00E8 [0x45] LOAD_SCHEDULED_TASK: Load scheduler "who3" with entities [LocalPlayer, LocalPlayer], work=[201*, 0*]
     0x00F9 [0x55] WAIT_LOAD_SCHEDULER: Wait for scheduler "who3" with entities [LocalPlayer, LocalPlayer], work=201*
     0x0108 [0x1B] RETURN
     0x0109 [0x62] LOAD_EVENT_SCHEDULER: Load scheduler "main" with entities [LocalPlayer, LocalPlayer], work=[1*, 0*]
     0x011A [0x1C] WAIT(45* ticks)
     0x011D [0x45] LOAD_SCHEDULED_TASK: Load scheduler "fdo1" with entities [LocalPlayer, LocalPlayer], work=[200*, 0*]
     0x012E [0x55] WAIT_LOAD_SCHEDULER: Wait for scheduler "fdo1" with entities [LocalPlayer, LocalPlayer], work=200*
     0x013D [0x1B] RETURN
     0x013E [0x45] LOAD_SCHEDULED_TASK: Load scheduler "fdi1" with entities [LocalPlayer, LocalPlayer], work=[200*, 0*]
     0x014F [0x62] LOAD_EVENT_SCHEDULER: Load scheduler "main" with entities [LocalPlayer, LocalPlayer], work=[2*, 0*]
     0x0160 [0x1C] WAIT(30* ticks)
     0x0163 [0x55] WAIT_LOAD_SCHEDULER: Wait for scheduler "fdi1" with entities [LocalPlayer, LocalPlayer], work=200*
     0x0172 [0x1B] RETURN
     0x0173 [0x45] LOAD_SCHEDULED_TASK: Load scheduler "blon" with entities [LocalPlayer, LocalPlayer], work=[200*, 0*]
     0x0184 [0x45] LOAD_SCHEDULED_TASK: Load scheduler "blon" with entities [LocalPlayer, LocalPlayer], work=[201*, 0*]
     0x0195 [0x1B] RETURN
     0x0196 [0x45] LOAD_SCHEDULED_TASK: Load scheduler "whi0" with entities [LocalPlayer, LocalPlayer], work=[201*, 0*]
     0x01A7 [0x55] WAIT_LOAD_SCHEDULER: Wait for scheduler "whi0" with entities [LocalPlayer, LocalPlayer], work=201*
     0x01B6 [0x1B] RETURN
     0x01B7 [0x45] LOAD_SCHEDULED_TASK: Load scheduler "who0" with entities [LocalPlayer, LocalPlayer], work=[201*, 0*]
     0x01C8 [0x55] WAIT_LOAD_SCHEDULER: Wait for scheduler "who0" with entities [LocalPlayer, LocalPlayer], work=201*
     0x01D7 [0x1B] RETURN
     0x01D8 [0x45] LOAD_SCHEDULED_TASK: Load scheduler "efon" with entities [LocalPlayer, LocalPlayer], work=[215*, 0*]
     0x01E9 [0x55] WAIT_LOAD_SCHEDULER: Wait for scheduler "efon" with entities [LocalPlayer, LocalPlayer], work=215*
     0x01F8 [0x1B] RETURN
     0x01F9 [0x45] LOAD_SCHEDULED_TASK: Load scheduler "fdis" with entities [LocalPlayer, LocalPlayer], work=[200*, 0*]
     0x020A [0x1B] RETURN
     0x020B [0x45] LOAD_SCHEDULED_TASK: Load scheduler "fdos" with entities [LocalPlayer, LocalPlayer], work=[200*, 0*]
     0x021C [0x55] WAIT_LOAD_SCHEDULER: Wait for scheduler "fdos" with entities [LocalPlayer, LocalPlayer], work=200*
     0x022B [0x1B] RETURN
     0x022C [0x45] LOAD_SCHEDULED_TASK: Load scheduler "fdif" with entities [LocalPlayer, LocalPlayer], work=[200*, 0*]
     0x023D [0x1B] RETURN
     0x023E [0x45] LOAD_SCHEDULED_TASK: Load scheduler "fdof" with entities [LocalPlayer, LocalPlayer], work=[200*, 0*]
     0x024F [0x55] WAIT_LOAD_SCHEDULER: Wait for scheduler "fdof" with entities [LocalPlayer, LocalPlayer], work=200*
     0x025E [0x1B] RETURN
     0x025F [0x45] LOAD_SCHEDULED_TASK: Load scheduler "fdip" with entities [LocalPlayer, LocalPlayer], work=[200*, 0*]
     0x0270 [0x1B] RETURN
     0x0271 [0x45] LOAD_SCHEDULED_TASK: Load scheduler "fdop" with entities [LocalPlayer, LocalPlayer], work=[200*, 0*]
     0x0282 [0x55] WAIT_LOAD_SCHEDULER: Wait for scheduler "fdop" with entities [LocalPlayer, LocalPlayer], work=200*
     0x0291 [0x1B] RETURN
```

### Event 99

#### Metadata

| Field        | Value      |
|--------------|------------|
| Entrypoint   | 0x0292     |
| Data Size    | 3191 bytes |
| Instructions | 492        |

```
      00 01 02 03 04 05 06 07  08 09 0A 0B 0C 0D 0E 0F
      -- -- -- -- -- -- -- --  -- -- -- -- -- -- -- --
0290:       42 03 00 00 02 10  43 00 43 01 03 01 00 03    B.....C.C.....
02A0: 10 06 01 10 1A 64 00 77  08 80 03 80 46 01 38 09  .....d.w....F.8.
02B0: 80 69 01 03 80 4E 00 F0  FF FF 7F 4E 00 21 72 09  .i...N.....N.!r.
02C0: 01 4E 00 22 72 09 01 4E  00 23 72 09 01 4E 00 24  .N."r..N.#r..N.$
02D0: 72 09 01 4E 00 25 72 09  01 4E 00 27 72 09 01 4E  r..N.%r..N.'r..N
02E0: 00 28 72 09 01 4E 00 29  72 09 01 4E 00 2A 72 09  .(r..N.)r..N.*r.
02F0: 01 4E 00 2B 72 09 01 2F  00 21 72 09 01 2F 00 22  .N.+r../.!r../."
0300: 72 09 01 2F 00 23 72 09  01 2F 00 24 72 09 01 2F  r../.#r../.$r../
0310: 00 25 72 09 01 2F 00 26  72 09 01 2F 00 27 72 09  .%r../.&r../.'r.
0320: 01 2F 00 28 72 09 01 2F  00 29 72 09 01 2F 00 2A  ./.(r../.)r../.*
0330: 72 09 01 2F 00 2B 72 09  01 59 05 21 72 09 01 01  r../.+r..Y.!r...
0340: 59 05 22 72 09 01 01 59  05 23 72 09 01 01 59 05  Y."r...Y.#r...Y.
0350: 24 72 09 01 01 59 05 25  72 09 01 01 59 05 26 72  $r...Y.%r...Y.&r
0360: 09 01 01 59 05 27 72 09  01 01 59 05 28 72 09 01  ...Y.'r...Y.(r..
0370: 01 59 05 29 72 09 01 01  59 05 2A 72 09 01 01 59  .Y.)r...Y.*r...Y
0380: 05 2B 72 09 01 01 92 01  21 72 09 01 92 01 22 72  .+r.....!r...."r
0390: 09 01 92 01 23 72 09 01  92 01 24 72 09 01 92 01  ....#r....$r....
03A0: 25 72 09 01 92 01 26 72  09 01 92 01 27 72 09 01  %r....&r....'r..
03B0: 92 01 28 72 09 01 92 01  29 72 09 01 92 01 2A 72  ..(r....)r....*r
03C0: 09 01 92 01 2B 72 09 01  94 01 21 72 09 01 94 01  ....+r....!r....
03D0: 22 72 09 01 94 01 23 72  09 01 94 01 24 72 09 01  "r....#r....$r..
03E0: 94 01 25 72 09 01 94 01  26 72 09 01 94 01 27 72  ..%r....&r....'r
03F0: 09 01 94 01 28 72 09 01  94 01 29 72 09 01 94 01  ....(r....)r....
0400: 2A 72 09 01 94 01 2B 72  09 01 BA 21 72 09 01 0A  *r....+r...!r...
0410: 80 0B 80 0C 80 0D 80 BA  22 72 09 01 0E 80 0F 80  ........"r......
0420: 10 80 11 80 BA 23 72 09  01 12 80 13 80 14 80 15  .....#r.........
0430: 80 BA 24 72 09 01 16 80  17 80 14 80 18 80 BA 25  ..$r...........%
0440: 72 09 01 19 80 1A 80 14  80 1B 80 BA 26 72 09 01  r...........&r..
0450: 1C 80 1D 80 1E 80 05 80  BA 27 72 09 01 1F 80 20  .........'r.... 
0460: 80 14 80 21 80 BA 28 72  09 01 22 80 23 80 24 80  ...!..(r..".#.$.
0470: 25 80 BA 29 72 09 01 26  80 27 80 0C 80 28 80 BA  %..)r..&.'...(..
0480: 2A 72 09 01 29 80 2A 80  2B 80 2C 80 BA 2B 72 09  *r..).*.+.,..+r.
0490: 01 2D 80 2E 80 2F 80 30  80 BA F0 FF FF 7F 31 80  .-.../.0......1.
04A0: 32 80 33 80 34 80 4A 21  72 09 01 27 72 09 01 4A  2.3.4.J!r..'r..J
04B0: 22 72 09 01 21 72 09 01  4A 23 72 09 01 21 72 09  "r..!r..J#r..!r.
04C0: 01 4A 24 72 09 01 21 72  09 01 4A 25 72 09 01 21  .J$r..!r..J%r..!
04D0: 72 09 01 4A 26 72 09 01  21 72 09 01 4A 27 72 09  r..J&r..!r..J'r.
04E0: 01 21 72 09 01 4A 28 72  09 01 21 72 09 01 4A 29  .!r..J(r..!r..J)
04F0: 72 09 01 21 72 09 01 4A  2A 72 09 01 21 72 09 01  r..!r..J*r..!r..
0500: 4A 2B 72 09 01 21 72 09  01 4E 01 F0 FF FF 7F 27  J+r..!r..N.....'
0510: 08 23 72 09 01 02 27 08  24 72 09 01 02 27 08 25  .#r...'.$r...'.%
0520: 72 09 01 02 27 08 27 72  09 01 02 27 08 29 72 09  r...'.'r...'.)r.
0530: 01 02 2A 08 23 72 09 01  2A 08 24 72 09 01 2A 08  ..*.#r..*.$r..*.
0540: 25 72 09 01 2A 08 27 72  09 01 2A 08 29 72 09 01  %r..*.'r..*.)r..
0550: 80 21 72 09 01 80 22 72  09 01 80 23 72 09 01 80  .!r..."r...#r...
0560: 24 72 09 01 80 25 72 09  01 80 26 72 09 01 80 27  $r...%r...&r...'
0570: 72 09 01 80 28 72 09 01  80 29 72 09 01 80 2A 72  r...(r...)r...*r
0580: 09 01 80 2B 72 09 01 80  F0 FF FF 7F 1C 35 80 45  ...+r........5.E
0590: 36 80 F8 FF FF 7F F8 FF  FF 7F 73 30 35 35 01 80  6.........s055..
05A0: 69 00 03 80 1C 37 80 4A  2B 72 09 01 27 72 09 01  i....7.J+r..'r..
05B0: 27 08 2B 72 09 01 02 27  08 21 72 09 01 02 1C 06  '.+r...'.!r.....
05C0: 80 1A D8 01 1C 38 80 4A  2B 72 09 01 21 72 09 01  .....8.J+r..!r..
05D0: 27 08 25 72 09 01 03 1C  39 80 27 08 29 72 09 01  '.%r....9.'.)r..
05E0: 03 1C 37 80 27 08 23 72  09 01 03 52 36 80 F8 FF  ..7.'.#r...R6...
05F0: FF 7F F8 FF FF 7F 73 30  35 35 45 3A 80 F0 FF FF  ......s055E:....
0600: 7F F0 FF FF 7F 30 30 62  6C 01 80 55 3A 80 F0 FF  .....00bl..U:...
0610: FF 7F F0 FF FF 7F 30 30  62 6C 45 36 80 F8 FF FF  ......00blE6....
0620: 7F F8 FF FF 7F 73 30 35  36 01 80 2B 22 72 09 01  .....s056..+"r..
0630: 3B 80 23 52 36 80 F8 FF  FF 7F F8 FF FF 7F 73 30  ;.#R6.........s0
0640: 35 36 5C 00 3C 80 5C 01  3C 80 9A 45 36 80 F8 FF  56\.<.\.<..E6...
0650: FF 7F F8 FF FF 7F 73 30  35 37 01 80 27 08 24 72  ......s057..'.$r
0660: 09 01 03 27 08 27 72 09  01 03 2B 24 72 09 01 3D  ...'.'r...+$r..=
0670: 80 23 4A 25 72 09 01 23  72 09 01 52 36 80 F8 FF  .#J%r..#r..R6...
0680: FF 7F F8 FF FF 7F 73 30  35 37 45 36 80 F8 FF FF  ......s057E6....
0690: 7F F8 FF FF 7F 73 30 35  38 01 80 6F 76 25 72 09  .....s058..ov%r.
06A0: 01 2B 25 72 09 01 3E 80  23 4A 23 72 09 01 25 72  .+%r..>.#J#r..%r
06B0: 09 01 52 36 80 F8 FF FF  7F F8 FF FF 7F 73 30 35  ..R6.........s05
06C0: 38 45 36 80 F8 FF FF 7F  F8 FF FF 7F 73 30 35 39  8E6.........s059
06D0: 01 80 6F 76 23 72 09 01  6E 23 72 09 01 3F 80 99  ..ov#r..n#r..?..
06E0: 23 72 09 01 2B 23 72 09  01 40 80 23 4A 25 72 09  #r..+#r..@.#J%r.
06F0: 01 21 72 09 01 6F 76 25  72 09 01 29 08 25 72 09  .!r..ov%r..).%r.
0700: 01 04 6C 21 72 09 01 01  80 41 80 2B 25 72 09 01  ..l!r....A.+%r..
0710: 42 80 23 4A 24 72 09 01  25 72 09 01 29 08 25 72  B.#J$r..%r..).%r
0720: 09 01 05 52 36 80 F8 FF  FF 7F F8 FF FF 7F 73 30  ...R6.........s0
0730: 35 39 45 36 80 F8 FF FF  7F F8 FF FF 7F 73 30 36  59E6.........s06
0740: 30 01 80 6F 76 24 72 09  01 03 02 10 43 80 2B 24  0..ov$r.....C.+$
0750: 72 09 01 44 80 23 4A 2B  72 09 01 25 72 09 01 52  r..D.#J+r..%r..R
0760: 36 80 F8 FF FF 7F F8 FF  FF 7F 73 30 36 30 45 36  6.........s060E6
0770: 80 F8 FF FF 7F F8 FF FF  7F 73 30 36 31 01 80 6F  .........s061..o
0780: 76 2B 72 09 01 1C 37 80  7C 00 2B 72 09 01 2B 2B  v+r...7.|.+r..++
0790: 72 09 01 45 80 23 1C 06  80 7C 01 2B 72 09 01 4A  r..E.#...|.+r..J
07A0: 23 72 09 01 21 72 09 01  7B 23 72 09 01 52 36 80  #r..!r..{#r..R6.
07B0: F8 FF FF 7F F8 FF FF 7F  73 30 36 31 45 36 80 F8  ........s061E6..
07C0: FF FF 7F F8 FF FF 7F 73  30 36 32 01 80 6F 76 23  .......s062..ov#
07D0: 72 09 01 2B 23 72 09 01  46 80 23 4A 27 72 09 01  r..+#r..F.#J'r..
07E0: 2B 72 09 01 52 36 80 F8  FF FF 7F F8 FF FF 7F 73  +r..R6.........s
07F0: 30 36 32 45 36 80 F8 FF  FF 7F F8 FF FF 7F 73 30  062E6.........s0
0800: 36 33 01 80 6F 76 27 72  09 01 27 08 2B 72 09 01  63..ov'r..'.+r..
0810: 03 2B 27 72 09 01 47 80  23 6E 2B 72 09 01 48 80  .+'r..G.#n+r..H.
0820: 99 2B 72 09 01 1C 39 80  4A 29 72 09 01 2B 72 09  .+r...9.J)r..+r.
0830: 01 6F 76 29 72 09 01 6E  29 72 09 01 08 80 99 29  .ov)r..n)r.....)
0840: 72 09 01 48 49 80 1C 41  80 52 36 80 F8 FF FF 7F  r..HI..A.R6.....
0850: F8 FF FF 7F 73 30 36 33  13 02 00 4A 80 03 03 00  ....s063...J....
0860: 02 00 07 03 00 4B 80 45  36 80 F8 FF FF 7F F8 FF  .....K.E6.......
0870: FF 7F 73 30 37 31 01 80  7B 22 72 09 01 7B 24 72  ..s071..{"r..{$r
0880: 09 01 7B 25 72 09 01 7B  28 72 09 01 7B 2A 72 09  ..{%r..{(r..{*r.
0890: 01 7B 2B 72 09 01 1C 4C  80 4A 27 72 09 01 21 72  .{+r...L.J'r..!r
08A0: 09 01 7B 27 72 09 01 1C  4D 80 4A 29 72 09 01 21  ..{'r...M.J)r..!
08B0: 72 09 01 7B 29 72 09 01  1C 38 80 52 36 80 F8 FF  r..{)r...8.R6...
08C0: FF 7F F8 FF FF 7F 73 30  37 31 02 01 00 03 80 00  ......s071......
08D0: DD 08 5C 00 4E 80 5C 01  4E 80 01 E5 08 5C 00 4F  ..\.N.\.N....\.O
08E0: 80 5C 01 4F 80 9A 45 36  80 F8 FF FF 7F F8 FF FF  .\.O..E6........
08F0: 7F 73 30 36 34 01 80 1C  06 80 06 03 10 03 03 10  .s064...........
0900: 02 00 07 03 10 05 80 48  50 80 1C 06 80 6E 25 72  .......HP....n%r
0910: 09 01 51 80 99 25 72 09  01 1C 35 80 52 36 80 F8  ..Q..%r...5.R6..
0920: FF FF 7F F8 FF FF 7F 73  30 36 34 45 36 80 F8 FF  .......s064E6...
0930: FF 7F F8 FF FF 7F 73 30  36 35 01 80 6E 27 72 09  ......s065..n'r.
0940: 01 52 80 99 27 72 09 01  1C 4D 80 06 03 10 03 03  .R..'r...M......
0950: 10 03 00 08 03 10 02 00  08 03 10 02 00 08 03 10  ................
0960: 06 80 48 53 80 1C 54 80  52 36 80 F8 FF FF 7F F8  ..HS..T.R6......
0970: FF FF 7F 73 30 36 35 45  36 80 F8 FF FF 7F F8 FF  ...s065E6.......
0980: FF 7F 73 30 36 36 01 80  27 08 25 72 09 01 06 06  ..s066..'.%r....
0990: 03 10 03 03 10 03 00 48  55 80 1C 06 80 6E 22 72  .......HU....n"r
09A0: 09 01 56 80 99 22 72 09  01 1C 38 80 52 36 80 F8  ..V.."r...8.R6..
09B0: FF FF 7F F8 FF FF 7F 73  30 36 36 45 36 80 F8 FF  .......s066E6...
09C0: FF 7F F8 FF FF 7F 73 30  37 32 01 80 6E 24 72 09  ......s072..n$r.
09D0: 01 57 80 99 24 72 09 01  1C 54 80 06 03 10 03 03  .W..$r...T......
09E0: 10 02 00 07 03 10 02 00  07 03 10 58 80 48 59 80  ...........X.HY.
09F0: 1C 38 80 52 36 80 F8 FF  FF 7F F8 FF FF 7F 73 30  .8.R6.........s0
0A00: 37 32 45 36 80 F8 FF FF  7F F8 FF FF 7F 73 30 36  72E6.........s06
0A10: 37 01 80 66 5A 80 28 72  09 01 28 72 09 01 70 6F  7..fZ.(r..(r..po
0A20: 73 30 1C 06 80 4A 27 72  09 01 28 72 09 01 4A 29  s0...J'r..(r..J)
0A30: 72 09 01 28 72 09 01 4A  2A 72 09 01 28 72 09 01  r..(r..J*r..(r..
0A40: 4A 2B 72 09 01 28 72 09  01 4A 24 72 09 01 28 72  J+r..(r..J$r..(r
0A50: 09 01 2B 28 72 09 01 5B  80 23 13 03 10 5C 80 07  ..+(r..[.#...\..
0A60: 03 10 05 80 48 5D 80 1C  5E 80 6B 69 64 6C 30 28  ....H]..^.kidl0(
0A70: 72 09 01 52 36 80 F8 FF  FF 7F F8 FF FF 7F 73 30  r..R6.........s0
0A80: 36 37 45 3A 80 F0 FF FF  7F F0 FF FF 7F 30 30 62  67E:.........00b
0A90: 6C 01 80 55 3A 80 F0 FF  FF 7F F0 FF FF 7F 30 30  l..U:.........00
0AA0: 62 6C 45 36 80 F8 FF FF  7F F8 FF FF 7F 73 30 37  blE6.........s07
0AB0: 33 01 80 1C 37 80 6E 28  72 09 01 5F 80 99 28 72  3...7.n(r.._..(r
0AC0: 09 01 1C 37 80 6E 2A 72  09 01 60 80 99 2A 72 09  ...7.n*r..`..*r.
0AD0: 01 1C 39 80 6E 27 72 09  01 61 80 99 27 72 09 01  ..9.n'r..a..'r..
0AE0: 6E 29 72 09 01 51 80 99  29 72 09 01 1C 37 80 6E  n)r..Q..)r...7.n
0AF0: 2B 72 09 01 61 80 99 2B  72 09 01 1C 4C 80 52 36  +r..a..+r...L.R6
0B00: 80 F8 FF FF 7F F8 FF FF  7F 73 30 37 33 45 36 80  .........s073E6.
0B10: F8 FF FF 7F F8 FF FF 7F  73 30 36 38 01 80 7B 27  ........s068..{'
0B20: 72 09 01 7B 29 72 09 01  7B 2A 72 09 01 7B 2B 72  r..{)r..{*r..{+r
0B30: 09 01 7B 24 72 09 01 7B  28 72 09 01 1C 06 80 06  ..{$r..{(r......
0B40: 03 10 03 03 10 03 00 08  03 10 02 00 08 03 10 02  ................
0B50: 00 08 03 10 02 00 08 03  10 48 80 6E 2A 72 09 01  .........H.n*r..
0B60: 48 80 99 2A 72 09 01 48  62 80 1C 5E 80 52 36 80  H..*r..Hb..^.R6.
0B70: F8 FF FF 7F F8 FF FF 7F  73 30 36 38 45 36 80 F8  ........s068E6..
0B80: FF FF 7F F8 FF FF 7F 73  30 37 34 01 80 6E 23 72  .......s074..n#r
0B90: 09 01 01 80 99 23 72 09  01 1C 63 80 06 03 10 03  .....#r...c.....
0BA0: 03 10 03 00 08 03 10 64  80 48 65 80 1C 35 80 52  .......d.He..5.R
0BB0: 36 80 F8 FF FF 7F F8 FF  FF 7F 73 30 37 34 45 36  6.........s074E6
0BC0: 80 F8 FF FF 7F F8 FF FF  7F 73 30 37 35 01 80 1C  .........s075...
0BD0: 39 80 6E 29 72 09 01 66  80 99 29 72 09 01 06 03  9.n)r..f..)r....
0BE0: 10 03 03 10 03 00 08 03  10 02 00 08 03 10 02 00  ................
0BF0: 08 03 10 61 80 48 67 80  1C 38 80 52 36 80 F8 FF  ...a.Hg..8.R6...
0C00: FF 7F F8 FF FF 7F 73 30  37 35 5D 01 80 35 80 45  ......s075]..5.E
0C10: 36 80 F8 FF FF 7F F8 FF  FF 7F 73 30 36 39 01 80  6.........s069..
0C20: 1C 41 80 06 03 10 03 03  10 02 00 07 03 10 02 00  .A..............
0C30: 07 03 10 03 80 6E 2B 72  09 01 57 80 99 2B 72 09  .....n+r..W..+r.
0C40: 01 1C 68 80 48 69 80 1C  37 80 48 6A 80 1C 6B 80  ..h.Hi..7.Hj..k.
0C50: 4A 23 72 09 01 22 72 09  01 4A 24 72 09 01 22 72  J#r.."r..J$r.."r
0C60: 09 01 4A 27 72 09 01 22  72 09 01 4A 28 72 09 01  ..J'r.."r..J(r..
0C70: 22 72 09 01 4A 29 72 09  01 22 72 09 01 4A 2A 72  "r..J)r.."r..J*r
0C80: 09 01 22 72 09 01 52 36  80 F8 FF FF 7F F8 FF FF  .."r..R6........
0C90: 7F 73 30 36 39 45 36 80  F8 FF FF 7F F8 FF FF 7F  .s069E6.........
0CA0: 73 30 37 30 01 80 6F 76  23 72 09 01 6F 76 24 72  s070..ov#r..ov$r
0CB0: 09 01 6F 76 27 72 09 01  6F 76 28 72 09 01 6F 76  ..ov'r..ov(r..ov
0CC0: 29 72 09 01 6F 76 2A 72  09 01 27 08 2B 72 09 01  )r..ov*r..'.+r..
0CD0: 04 6E 22 72 09 01 6C 80  99 22 72 09 01 1C 06 80  .n"r..l.."r.....
0CE0: 2B 22 72 09 01 6D 80 23  1C 54 80 52 36 80 F8 FF  +"r..m.#.T.R6...
0CF0: FF 7F F8 FF FF 7F 73 30  37 30 45 36 80 F8 FF FF  ......s070E6....
0D00: 7F F8 FF FF 7F 73 30 37  36 01 80 6E 23 72 09 01  .....s076..n#r..
0D10: 6E 80 99 23 72 09 01 1C  39 80 6E 24 72 09 01 6E  n..#r...9.n$r..n
0D20: 80 99 24 72 09 01 2B 24  72 09 01 6F 80 23 6E 2A  ..$r..+$r..o.#n*
0D30: 72 09 01 6E 80 99 2A 72  09 01 1C 37 80 6E 28 72  r..n..*r...7.n(r
0D40: 09 01 6E 80 99 28 72 09  01 1C 39 80 6E 27 72 09  ..n..(r...9.n'r.
0D50: 01 6E 80 99 27 72 09 01  2B 27 72 09 01 70 80 23  .n..'r..+'r..p.#
0D60: 4A 29 72 09 01 2B 72 09  01 52 36 80 F8 FF FF 7F  J)r..+r..R6.....
0D70: F8 FF FF 7F 73 30 37 36  45 36 80 F8 FF FF 7F F8  ....s076E6......
0D80: FF FF 7F 73 30 37 37 01  80 6F 76 29 72 09 01 6E  ...s077..ov)r..n
0D90: 29 72 09 01 39 80 99 29  72 09 01 48 71 80 1C 39  )r..9..)r..Hq..9
0DA0: 80 27 08 26 72 09 01 02  1C 4C 80 27 08 25 72 09  .'.&r....L.'.%r.
0DB0: 01 07 1C 39 80 4A 23 72  09 01 25 72 09 01 4A 24  ...9.J#r..%r..J$
0DC0: 72 09 01 25 72 09 01 4A  27 72 09 01 25 72 09 01  r..%r..J'r..%r..
0DD0: 4A 28 72 09 01 25 72 09  01 4A 29 72 09 01 25 72  J(r..%r..J)r..%r
0DE0: 09 01 4A 2A 72 09 01 25  72 09 01 52 36 80 F8 FF  ..J*r..%r..R6...
0DF0: FF 7F F8 FF FF 7F 73 30  37 37 45 36 80 F8 FF FF  ......s077E6....
0E00: 7F F8 FF FF 7F 73 30 37  38 01 80 6F 76 23 72 09  .....s078..ov#r.
0E10: 01 6F 76 24 72 09 01 6F  76 27 72 09 01 6F 76 28  .ov$r..ov'r..ov(
0E20: 72 09 01 6F 76 29 72 09  01 6F 76 2A 72 09 01 2A  r..ov)r..ov*r..*
0E30: 08 25 72 09 01 2B 25 72  09 01 72 80 1C 5E 80 6E  .%r..+%r..r..^.n
0E40: 23 72 09 01 73 80 99 23  72 09 01 2B 23 72 09 01  #r..s..#r..+#r..
0E50: 74 80 4A 24 72 09 01 26  72 09 01 4A 27 72 09 01  t.J$r..&r..J'r..
0E60: 26 72 09 01 1C 4D 80 4A  25 72 09 01 26 72 09 01  &r...M.J%r..&r..
0E70: 27 08 26 72 09 01 03 1C  54 80 52 36 80 F8 FF FF  '.&r....T.R6....
0E80: 7F F8 FF FF 7F 73 30 37  38 45 36 80 F8 FF FF 7F  .....s078E6.....
0E90: F8 FF FF 7F 73 30 37 39  01 80 6F 76 25 72 09 01  ....s079..ov%r..
0EA0: 6F 76 24 72 09 01 6F 76  27 72 09 01 27 08 24 72  ov$r..ov'r..'.$r
0EB0: 09 01 02 1C 39 80 27 08  27 72 09 01 02 1C 6B 80  ....9.'.'r....k.
0EC0: 1A 64 00 52 36 80 F8 FF  FF 7F F8 FF FF 7F 73 30  .d.R6.........s0
0ED0: 37 39 1C 63 80 AB 11 01  80 1C 03 80 78 5C 00 01  79.c........x\..
0EE0: 80 5C 01 01 80 9A AB 0A  02 00 00 03 80 00 06 0F  .\..............
0EF0: 46 00 45 00 80 F0 FF FF  7F F0 FF FF 7F 66 64 69  F.E..........fdi
0F00: 32 01 80 01 07 0F 30 21  00                       2.....0!.       
```

#### Opcodes

```
  0: 0x0292 [0x42] SET_CLI_EVENT_CANCEL_DATA()
  1: 0x0293 [0x03] ExtData[1]->WorkLocal[0] = Work_Zone[2]
  2: 0x0298 [0x43] SEND_EVENT_UPDATE: Send pending tag to server (packet 0x005B)
  3: 0x029A [0x43] SEND_EVENT_UPDATE: Check pending flag (skip if not pending)
  4: 0x029C [0x03] ExtData[1]->WorkLocal[1] = Work_Zone[3]
  5: 0x02A1 [0x06] Work_Zone[1] = 0
  6: 0x02A4 [0x1A] CALL_SUBROUTINE(address=0x0064)
  7: 0x02A7 [0x77] SET_EVENT_TIME_WEATHER(hour=12*, weather=1*)
  8: 0x02AC [0x46] CAMERA_CONTROL: Disable user control
  9: 0x02AE [0x38] SET_CLIENT_EVENT_MODE(mode=147*)
 10: 0x02B1 [0x69] SET_SOUND_VOLUME: Mute Effects/System
 11: 0x02B5 [0x4E] SET_ENTITY_HIDE_FLAG: Show LocalPlayer
 12: 0x02BB [0x4E] SET_ENTITY_HIDE_FLAG: Show Unnamed NPC (ID: 17396257/0x01097221)
 13: 0x02C1 [0x4E] SET_ENTITY_HIDE_FLAG: Show Duberasson (ID: 17396258/0x01097222)
 14: 0x02C7 [0x4E] SET_ENTITY_HIDE_FLAG: Show Yerva Libarello (ID: 17396259/0x01097223)
 15: 0x02CD [0x4E] SET_ENTITY_HIDE_FLAG: Show Thundering Chariot (ID: 17396260/0x01097224)
 16: 0x02D3 [0x4E] SET_ENTITY_HIDE_FLAG: Show Ulbrik-Mulbrok (ID: 17396261/0x01097225)
 17: 0x02D9 [0x4E] SET_ENTITY_HIDE_FLAG: Show Rolandienne (ID: 17396263/0x01097227)
 18: 0x02DF [0x4E] SET_ENTITY_HIDE_FLAG: Show Isakoth (ID: 17396264/0x01097228)
 19: 0x02E5 [0x4E] SET_ENTITY_HIDE_FLAG: Show Fhelm Jobeizat (ID: 17396265/0x01097229)
 20: 0x02EB [0x4E] SET_ENTITY_HIDE_FLAG: Show Ervok (ID: 17396266/0x0109722A)
 21: 0x02F1 [0x4E] SET_ENTITY_HIDE_FLAG: Show Nantoto (ID: 17396267/0x0109722B)
 22: 0x02F7 [0x2F] Unnamed NPC (ID: 17396257/0x01097221)->Render.Flags0 &= ~0x80000 // Bit 19
 23: 0x02FD [0x2F] Duberasson (ID: 17396258/0x01097222)->Render.Flags0 &= ~0x80000 // Bit 19
 24: 0x0303 [0x2F] Yerva Libarello (ID: 17396259/0x01097223)->Render.Flags0 &= ~0x80000 // Bit 19
 25: 0x0309 [0x2F] Thundering Chariot (ID: 17396260/0x01097224)->Render.Flags0 &= ~0x80000 // Bit 19
 26: 0x030F [0x2F] Ulbrik-Mulbrok (ID: 17396261/0x01097225)->Render.Flags0 &= ~0x80000 // Bit 19
 27: 0x0315 [0x2F] Unnamed NPC (ID: 17396262/0x01097226)->Render.Flags0 &= ~0x80000 // Bit 19
 28: 0x031B [0x2F] Rolandienne (ID: 17396263/0x01097227)->Render.Flags0 &= ~0x80000 // Bit 19
 29: 0x0321 [0x2F] Isakoth (ID: 17396264/0x01097228)->Render.Flags0 &= ~0x80000 // Bit 19
 30: 0x0327 [0x2F] Fhelm Jobeizat (ID: 17396265/0x01097229)->Render.Flags0 &= ~0x80000 // Bit 19
 31: 0x032D [0x2F] Ervok (ID: 17396266/0x0109722A)->Render.Flags0 &= ~0x80000 // Bit 19
 32: 0x0333 [0x2F] Nantoto (ID: 17396267/0x0109722B)->Render.Flags0 &= ~0x80000 // Bit 19
 33: 0x0339 [0x59] UPDATE_ENTITY_DATA: Unnamed NPC (ID: 17396257/0x01097221)->Render.Flags0 |= 0x200000
 34: 0x0340 [0x59] UPDATE_ENTITY_DATA: Duberasson (ID: 17396258/0x01097222)->Render.Flags0 |= 0x200000
 35: 0x0347 [0x59] UPDATE_ENTITY_DATA: Yerva Libarello (ID: 17396259/0x01097223)->Render.Flags0 |= 0x200000
 36: 0x034E [0x59] UPDATE_ENTITY_DATA: Thundering Chariot (ID: 17396260/0x01097224)->Render.Flags0 |= 0x200000
 37: 0x0355 [0x59] UPDATE_ENTITY_DATA: Ulbrik-Mulbrok (ID: 17396261/0x01097225)->Render.Flags0 |= 0x200000
 38: 0x035C [0x59] UPDATE_ENTITY_DATA: Unnamed NPC (ID: 17396262/0x01097226)->Render.Flags0 |= 0x200000
 39: 0x0363 [0x59] UPDATE_ENTITY_DATA: Rolandienne (ID: 17396263/0x01097227)->Render.Flags0 |= 0x200000
 40: 0x036A [0x59] UPDATE_ENTITY_DATA: Isakoth (ID: 17396264/0x01097228)->Render.Flags0 |= 0x200000
 41: 0x0371 [0x59] UPDATE_ENTITY_DATA: Fhelm Jobeizat (ID: 17396265/0x01097229)->Render.Flags0 |= 0x200000
 42: 0x0378 [0x59] UPDATE_ENTITY_DATA: Ervok (ID: 17396266/0x0109722A)->Render.Flags0 |= 0x200000
 43: 0x037F [0x59] UPDATE_ENTITY_DATA: Nantoto (ID: 17396267/0x0109722B)->Render.Flags0 |= 0x200000
 44: 0x0386 [0x92] Unnamed NPC (ID: 17396257/0x01097221)->Render.Flags3 ^= 0x01
 45: 0x038C [0x92] Duberasson (ID: 17396258/0x01097222)->Render.Flags3 ^= 0x01
 46: 0x0392 [0x92] Yerva Libarello (ID: 17396259/0x01097223)->Render.Flags3 ^= 0x01
 47: 0x0398 [0x92] Thundering Chariot (ID: 17396260/0x01097224)->Render.Flags3 ^= 0x01
 48: 0x039E [0x92] Ulbrik-Mulbrok (ID: 17396261/0x01097225)->Render.Flags3 ^= 0x01
 49: 0x03A4 [0x92] Unnamed NPC (ID: 17396262/0x01097226)->Render.Flags3 ^= 0x01
 50: 0x03AA [0x92] Rolandienne (ID: 17396263/0x01097227)->Render.Flags3 ^= 0x01
 51: 0x03B0 [0x92] Isakoth (ID: 17396264/0x01097228)->Render.Flags3 ^= 0x01
 52: 0x03B6 [0x92] Fhelm Jobeizat (ID: 17396265/0x01097229)->Render.Flags3 ^= 0x01
 53: 0x03BC [0x92] Ervok (ID: 17396266/0x0109722A)->Render.Flags3 ^= 0x01
 54: 0x03C2 [0x92] Nantoto (ID: 17396267/0x0109722B)->Render.Flags3 ^= 0x01
 55: 0x03C8 [0x94] Unnamed NPC (ID: 17396257/0x01097221)->Render.Flags3 ^= 0x01
 56: 0x03CE [0x94] Duberasson (ID: 17396258/0x01097222)->Render.Flags3 ^= 0x01
 57: 0x03D4 [0x94] Yerva Libarello (ID: 17396259/0x01097223)->Render.Flags3 ^= 0x01
 58: 0x03DA [0x94] Thundering Chariot (ID: 17396260/0x01097224)->Render.Flags3 ^= 0x01
 59: 0x03E0 [0x94] Ulbrik-Mulbrok (ID: 17396261/0x01097225)->Render.Flags3 ^= 0x01
 60: 0x03E6 [0x94] Unnamed NPC (ID: 17396262/0x01097226)->Render.Flags3 ^= 0x01
 61: 0x03EC [0x94] Rolandienne (ID: 17396263/0x01097227)->Render.Flags3 ^= 0x01
 62: 0x03F2 [0x94] Isakoth (ID: 17396264/0x01097228)->Render.Flags3 ^= 0x01
 63: 0x03F8 [0x94] Fhelm Jobeizat (ID: 17396265/0x01097229)->Render.Flags3 ^= 0x01
 64: 0x03FE [0x94] Ervok (ID: 17396266/0x0109722A)->Render.Flags3 ^= 0x01
 65: 0x0404 [0x94] Nantoto (ID: 17396267/0x0109722B)->Render.Flags3 ^= 0x01
 66: 0x040A [0xBA] SET_ENTITY_POSITION(entity_id=Unnamed NPC (ID: 17396257/0x01097221), pos_x=-59.807*, pos_z=60.936*, pos_y=-62.249*, direction=341.6°*)
 67: 0x0417 [0xBA] SET_ENTITY_POSITION(entity_id=Duberasson (ID: 17396258/0x01097222), pos_x=-54.129*, pos_z=71.334*, pos_y=-62.810*, direction=107.6°*)
 68: 0x0424 [0xBA] SET_ENTITY_POSITION(entity_id=Yerva Libarello (ID: 17396259/0x01097223), pos_x=-59.980*, pos_z=63.399*, pos_y=-62.250*, direction=44.5°*)
 69: 0x0431 [0xBA] SET_ENTITY_POSITION(entity_id=Thundering Chariot (ID: 17396260/0x01097224), pos_x=-58.410*, pos_z=64.349*, pos_y=-62.250*, direction=125.8°*)
 70: 0x043E [0xBA] SET_ENTITY_POSITION(entity_id=Ulbrik-Mulbrok (ID: 17396261/0x01097225), pos_x=-61.274*, pos_z=61.204*, pos_y=-62.250*, direction=351.3°*)
 71: 0x044B [0xBA] SET_ENTITY_POSITION(entity_id=Unnamed NPC (ID: 17396262/0x01097226), pos_x=-86.592*, pos_z=59.781*, pos_y=-62.660*, direction=0.2°*)
 72: 0x0458 [0xBA] SET_ENTITY_POSITION(entity_id=Rolandienne (ID: 17396263/0x01097227), pos_x=-55.612*, pos_z=62.764*, pos_y=-62.250*, direction=181.2°*)
 73: 0x0465 [0xBA] SET_ENTITY_POSITION(entity_id=Isakoth (ID: 17396264/0x01097228), pos_x=-55.809*, pos_z=68.054*, pos_y=-62.187*, direction=133.2°*)
 74: 0x0472 [0xBA] SET_ENTITY_POSITION(entity_id=Fhelm Jobeizat (ID: 17396265/0x01097229), pos_x=-54.953*, pos_z=65.662*, pos_y=-62.249*, direction=196.5°*)
 75: 0x047F [0xBA] SET_ENTITY_POSITION(entity_id=Ervok (ID: 17396266/0x0109722A), pos_x=-55.948*, pos_z=71.348*, pos_y=-62.891*, direction=76.9°*)
 76: 0x048C [0xBA] SET_ENTITY_POSITION(entity_id=Nantoto (ID: 17396267/0x0109722B), pos_x=-53.033*, pos_z=67.105*, pos_y=-62.145*, direction=144.4°*)
 77: 0x0499 [0xBA] SET_ENTITY_POSITION(entity_id=LocalPlayer, pos_x=-223.357*, pos_z=-20.793*, pos_y=0.324*, direction=88.9°*)
 78: 0x04A6 [0x4A] Unnamed NPC (ID: 17396257/0x01097221) looks at Rolandienne (ID: 17396263/0x01097227)
 79: 0x04AF [0x4A] Duberasson (ID: 17396258/0x01097222) looks at Unnamed NPC (ID: 17396257/0x01097221)
 80: 0x04B8 [0x4A] Yerva Libarello (ID: 17396259/0x01097223) looks at Unnamed NPC (ID: 17396257/0x01097221)
 81: 0x04C1 [0x4A] Thundering Chariot (ID: 17396260/0x01097224) looks at Unnamed NPC (ID: 17396257/0x01097221)
 82: 0x04CA [0x4A] Ulbrik-Mulbrok (ID: 17396261/0x01097225) looks at Unnamed NPC (ID: 17396257/0x01097221)
 83: 0x04D3 [0x4A] Unnamed NPC (ID: 17396262/0x01097226) looks at Unnamed NPC (ID: 17396257/0x01097221)
 84: 0x04DC [0x4A] Rolandienne (ID: 17396263/0x01097227) looks at Unnamed NPC (ID: 17396257/0x01097221)
 85: 0x04E5 [0x4A] Isakoth (ID: 17396264/0x01097228) looks at Unnamed NPC (ID: 17396257/0x01097221)
 86: 0x04EE [0x4A] Fhelm Jobeizat (ID: 17396265/0x01097229) looks at Unnamed NPC (ID: 17396257/0x01097221)
 87: 0x04F7 [0x4A] Ervok (ID: 17396266/0x0109722A) looks at Unnamed NPC (ID: 17396257/0x01097221)
 88: 0x0500 [0x4A] Nantoto (ID: 17396267/0x0109722B) looks at Unnamed NPC (ID: 17396257/0x01097221)
 89: 0x0509 [0x4E] SET_ENTITY_HIDE_FLAG: Hide LocalPlayer
 90: 0x050F [0x27] REQ_SET(priority=0x08, entity_id=Yerva Libarello (ID: 17396259/0x01097223), tag_num=0x02)
 91: 0x0516 [0x27] REQ_SET(priority=0x08, entity_id=Thundering Chariot (ID: 17396260/0x01097224), tag_num=0x02)
 92: 0x051D [0x27] REQ_SET(priority=0x08, entity_id=Ulbrik-Mulbrok (ID: 17396261/0x01097225), tag_num=0x02)
 93: 0x0524 [0x27] REQ_SET(priority=0x08, entity_id=Rolandienne (ID: 17396263/0x01097227), tag_num=0x02)
 94: 0x052B [0x27] REQ_SET(priority=0x08, entity_id=Fhelm Jobeizat (ID: 17396265/0x01097229), tag_num=0x02)
 95: 0x0532 [0x2A] GET_REQ_LEVEL(level=8, entity_id=Yerva Libarello (ID: 17396259/0x01097223))
 96: 0x0538 [0x2A] GET_REQ_LEVEL(level=8, entity_id=Thundering Chariot (ID: 17396260/0x01097224))
 97: 0x053E [0x2A] GET_REQ_LEVEL(level=8, entity_id=Ulbrik-Mulbrok (ID: 17396261/0x01097225))
 98: 0x0544 [0x2A] GET_REQ_LEVEL(level=8, entity_id=Rolandienne (ID: 17396263/0x01097227))
 99: 0x054A [0x2A] GET_REQ_LEVEL(level=8, entity_id=Fhelm Jobeizat (ID: 17396265/0x01097229))
100: 0x0550 [0x80] LOAD_WAIT(entity=Unnamed NPC (ID: 17396257/0x01097221))
101: 0x0555 [0x80] LOAD_WAIT(entity=Duberasson (ID: 17396258/0x01097222))
102: 0x055A [0x80] LOAD_WAIT(entity=Yerva Libarello (ID: 17396259/0x01097223))
103: 0x055F [0x80] LOAD_WAIT(entity=Thundering Chariot (ID: 17396260/0x01097224))
104: 0x0564 [0x80] LOAD_WAIT(entity=Ulbrik-Mulbrok (ID: 17396261/0x01097225))
105: 0x0569 [0x80] LOAD_WAIT(entity=Unnamed NPC (ID: 17396262/0x01097226))
106: 0x056E [0x80] LOAD_WAIT(entity=Rolandienne (ID: 17396263/0x01097227))
107: 0x0573 [0x80] LOAD_WAIT(entity=Isakoth (ID: 17396264/0x01097228))
108: 0x0578 [0x80] LOAD_WAIT(entity=Fhelm Jobeizat (ID: 17396265/0x01097229))
109: 0x057D [0x80] LOAD_WAIT(entity=Ervok (ID: 17396266/0x0109722A))
110: 0x0582 [0x80] LOAD_WAIT(entity=Nantoto (ID: 17396267/0x0109722B))
111: 0x0587 [0x80] LOAD_WAIT(entity=LocalPlayer)
112: 0x058C [0x1C] WAIT(90* ticks)
113: 0x058F [0x45] LOAD_SCHEDULED_TASK: Load scheduler "s055" with entities [EventEntity, EventEntity], work=[617*, 0*]
114: 0x05A0 [0x69] SET_SOUND_VOLUME: Unmute Effects/System
115: 0x05A4 [0x1C] WAIT(10* ticks)
116: 0x05A7 [0x4A] Nantoto (ID: 17396267/0x0109722B) looks at Rolandienne (ID: 17396263/0x01097227)
117: 0x05B0 [0x27] REQ_SET(priority=0x08, entity_id=Nantoto (ID: 17396267/0x0109722B), tag_num=0x02)
118: 0x05B7 [0x27] REQ_SET(priority=0x08, entity_id=Unnamed NPC (ID: 17396257/0x01097221), tag_num=0x02)
119: 0x05BE [0x1C] WAIT(30* ticks)
120: 0x05C1 [0x1A] CALL_SUBROUTINE(address=0x01D8)
121: 0x05C4 [0x1C] WAIT(100* ticks)
122: 0x05C7 [0x4A] Nantoto (ID: 17396267/0x0109722B) looks at Unnamed NPC (ID: 17396257/0x01097221)
123: 0x05D0 [0x27] REQ_SET(priority=0x08, entity_id=Ulbrik-Mulbrok (ID: 17396261/0x01097225), tag_num=0x03)
124: 0x05D7 [0x1C] WAIT(20* ticks)
125: 0x05DA [0x27] REQ_SET(priority=0x08, entity_id=Fhelm Jobeizat (ID: 17396265/0x01097229), tag_num=0x03)
126: 0x05E1 [0x1C] WAIT(10* ticks)
127: 0x05E4 [0x27] REQ_SET(priority=0x08, entity_id=Yerva Libarello (ID: 17396259/0x01097223), tag_num=0x03)
128: 0x05EB [0x52] END_LOAD_SCHEDULER: End scheduler "s055" with entities [EventEntity, EventEntity], work=617*
129: 0x05FA [0x45] LOAD_SCHEDULED_TASK: Load scheduler "00bl" with entities [LocalPlayer, LocalPlayer], work=[610*, 0*]
130: 0x060B [0x55] WAIT_LOAD_SCHEDULER: Wait for scheduler "00bl" with entities [LocalPlayer, LocalPlayer], work=610*
131: 0x061A [0x45] LOAD_SCHEDULED_TASK: Load scheduler "s056" with entities [EventEntity, EventEntity], work=[617*, 0*]
132: 0x062B [0x2B] Duberasson (ID: 17396258/0x01097222) [8281*]:
    → "The going was rather tough, but we did pull it off!"
133: 0x0632 [0x23] WAIT_FOR_DIALOG_INTERACTION
134: 0x0633 [0x52] END_LOAD_SCHEDULER: End scheduler "s056" with entities [EventEntity, EventEntity], work=617*
135: 0x0642 [0x5C] MUSIC_CONTROL: Set Idle (Day) music to song 127*
136: 0x0646 [0x5C] MUSIC_CONTROL: Set Idle (Night) music to song 127*
137: 0x064A [0x9A] WAIT_MUSIC_SERVER()
138: 0x064B [0x45] LOAD_SCHEDULED_TASK: Load scheduler "s057" with entities [EventEntity, EventEntity], work=[617*, 0*]
139: 0x065C [0x27] REQ_SET(priority=0x08, entity_id=Thundering Chariot (ID: 17396260/0x01097224), tag_num=0x03)
140: 0x0663 [0x27] REQ_SET(priority=0x08, entity_id=Rolandienne (ID: 17396263/0x01097227), tag_num=0x03)
141: 0x066A [0x2B] Thundering Chariot (ID: 17396260/0x01097224) [8282*]:
    → "The very definition of teamwork."
142: 0x0671 [0x23] WAIT_FOR_DIALOG_INTERACTION
143: 0x0672 [0x4A] Ulbrik-Mulbrok (ID: 17396261/0x01097225) looks at Yerva Libarello (ID: 17396259/0x01097223)
144: 0x067B [0x52] END_LOAD_SCHEDULER: End scheduler "s057" with entities [EventEntity, EventEntity], work=617*
145: 0x068A [0x45] LOAD_SCHEDULED_TASK: Load scheduler "s058" with entities [EventEntity, EventEntity], work=[617*, 0*]
146: 0x069B [0x6F] WAIT_FRAME_DELAY: Yield until WaitTime reaches zero
147: 0x069C [0x76] CHECK_ENTITY_RENDER_FLAGS: Wait until Ulbrik-Mulbrok (ID: 17396261/0x01097225) Render.Flags0 and Render.Flags3 conditions are met
148: 0x06A1 [0x2B] Ulbrik-Mulbrok (ID: 17396261/0x01097225) [8283*]:
    → "Phew, any closer and I'd be pulling-wulling Yagudo beaks outta my behind!"
149: 0x06A8 [0x23] WAIT_FOR_DIALOG_INTERACTION
150: 0x06A9 [0x4A] Yerva Libarello (ID: 17396259/0x01097223) looks at Ulbrik-Mulbrok (ID: 17396261/0x01097225)
151: 0x06B2 [0x52] END_LOAD_SCHEDULER: End scheduler "s058" with entities [EventEntity, EventEntity], work=617*
152: 0x06C1 [0x45] LOAD_SCHEDULED_TASK: Load scheduler "s059" with entities [EventEntity, EventEntity], work=[617*, 0*]
153: 0x06D2 [0x6F] WAIT_FRAME_DELAY: Yield until WaitTime reaches zero
154: 0x06D3 [0x76] CHECK_ENTITY_RENDER_FLAGS: Wait until Yerva Libarello (ID: 17396259/0x01097223) Render.Flags0 and Render.Flags3 conditions are met
155: 0x06D8 [0x6E] Yerva Libarello (ID: 17396259/0x01097223) uses emote 26*
156: 0x06DF [0x99] Wait for Yerva Libarello (ID: 17396259/0x01097223) animation to complete
157: 0x06E4 [0x2B] Yerva Libarello (ID: 17396259/0x01097223) [8284*]:
    → "And you still might if you don't keep your guard up. Currriosity may have killed the cat, but it's abstraction that annihilates adventurers."
158: 0x06EB [0x23] WAIT_FOR_DIALOG_INTERACTION
159: 0x06EC [0x4A] Ulbrik-Mulbrok (ID: 17396261/0x01097225) looks at Unnamed NPC (ID: 17396257/0x01097221)
160: 0x06F5 [0x6F] WAIT_FRAME_DELAY: Yield until WaitTime reaches zero
161: 0x06F6 [0x76] CHECK_ENTITY_RENDER_FLAGS: Wait until Ulbrik-Mulbrok (ID: 17396261/0x01097225) Render.Flags0 and Render.Flags3 conditions are met
162: 0x06FB [0x29] REQ_SET_WAIT(priority=0x08, entity_id=Ulbrik-Mulbrok (ID: 17396261/0x01097225), tag_num=0x04)
163: 0x0702 [0x6C] FADE_ENTITY_COLOR(entity_id=Unnamed NPC (ID: 17396257/0x01097221), end_alpha=0*, fade_time=120*)
164: 0x070B [0x2B] Ulbrik-Mulbrok (ID: 17396261/0x01097225) [8285*]:
    → "You have to admit, though, it's hard to occupy your mind with anything else when this treasure-weasure is staring you right in the face!"
165: 0x0712 [0x23] WAIT_FOR_DIALOG_INTERACTION
166: 0x0713 [0x4A] Thundering Chariot (ID: 17396260/0x01097224) looks at Ulbrik-Mulbrok (ID: 17396261/0x01097225)
167: 0x071C [0x29] REQ_SET_WAIT(priority=0x08, entity_id=Ulbrik-Mulbrok (ID: 17396261/0x01097225), tag_num=0x05)
168: 0x0723 [0x52] END_LOAD_SCHEDULER: End scheduler "s059" with entities [EventEntity, EventEntity], work=617*
169: 0x0732 [0x45] LOAD_SCHEDULED_TASK: Load scheduler "s060" with entities [EventEntity, EventEntity], work=[617*, 0*]
170: 0x0743 [0x6F] WAIT_FRAME_DELAY: Yield until WaitTime reaches zero
171: 0x0744 [0x76] CHECK_ENTITY_RENDER_FLAGS: Wait until Thundering Chariot (ID: 17396260/0x01097224) Render.Flags0 and Render.Flags3 conditions are met
172: 0x0749 [0x03] Work_Zone[2] = 4621*
173: 0x074E [0x2B] Thundering Chariot (ID: 17396260/0x01097224) [8286*]:
    → "Is that... Yes, it's $0!"
174: 0x0755 [0x23] WAIT_FOR_DIALOG_INTERACTION
175: 0x0756 [0x4A] Nantoto (ID: 17396267/0x0109722B) looks at Ulbrik-Mulbrok (ID: 17396261/0x01097225)
176: 0x075F [0x52] END_LOAD_SCHEDULER: End scheduler "s060" with entities [EventEntity, EventEntity], work=617*
177: 0x076E [0x45] LOAD_SCHEDULED_TASK: Load scheduler "s061" with entities [EventEntity, EventEntity], work=[617*, 0*]
178: 0x077F [0x6F] WAIT_FRAME_DELAY: Yield until WaitTime reaches zero
179: 0x0780 [0x76] CHECK_ENTITY_RENDER_FLAGS: Wait until Nantoto (ID: 17396267/0x0109722B) Render.Flags0 and Render.Flags3 conditions are met
180: 0x0785 [0x1C] WAIT(10* ticks)
181: 0x0788 [0x7C] Nantoto (ID: 17396267/0x0109722B)->Render.Flags2 |= 0x00
182: 0x078E [0x2B] Nantoto (ID: 17396267/0x0109722B) [8287*]:
    → "<Gasp>!"
183: 0x0795 [0x23] WAIT_FOR_DIALOG_INTERACTION
184: 0x0796 [0x1C] WAIT(30* ticks)
185: 0x0799 [0x7C] Nantoto (ID: 17396267/0x0109722B)->Render.Flags2 |= 0x01
186: 0x079F [0x4A] Yerva Libarello (ID: 17396259/0x01097223) looks at Unnamed NPC (ID: 17396257/0x01097221)
187: 0x07A8 [0x7B] Yerva Libarello (ID: 17396259/0x01097223) stops talking
188: 0x07AD [0x52] END_LOAD_SCHEDULER: End scheduler "s061" with entities [EventEntity, EventEntity], work=617*
189: 0x07BC [0x45] LOAD_SCHEDULED_TASK: Load scheduler "s062" with entities [EventEntity, EventEntity], work=[617*, 0*]
190: 0x07CD [0x6F] WAIT_FRAME_DELAY: Yield until WaitTime reaches zero
191: 0x07CE [0x76] CHECK_ENTITY_RENDER_FLAGS: Wait until Yerva Libarello (ID: 17396259/0x01097223) Render.Flags0 and Render.Flags3 conditions are met
192: 0x07D3 [0x2B] Yerva Libarello (ID: 17396259/0x01097223) [8288*]:
    → "Alright, I want this prrrocess to be as fair as the fur on my flank. Anyone who wants in, cast your lot!"
193: 0x07DA [0x23] WAIT_FOR_DIALOG_INTERACTION
194: 0x07DB [0x4A] Rolandienne (ID: 17396263/0x01097227) looks at Nantoto (ID: 17396267/0x0109722B)
195: 0x07E4 [0x52] END_LOAD_SCHEDULER: End scheduler "s062" with entities [EventEntity, EventEntity], work=617*
196: 0x07F3 [0x45] LOAD_SCHEDULED_TASK: Load scheduler "s063" with entities [EventEntity, EventEntity], work=[617*, 0*]
197: 0x0804 [0x6F] WAIT_FRAME_DELAY: Yield until WaitTime reaches zero
198: 0x0805 [0x76] CHECK_ENTITY_RENDER_FLAGS: Wait until Rolandienne (ID: 17396263/0x01097227) Render.Flags0 and Render.Flags3 conditions are met
199: 0x080A [0x27] REQ_SET(priority=0x08, entity_id=Nantoto (ID: 17396267/0x0109722B), tag_num=0x03)
200: 0x0811 [0x2B] Rolandienne (ID: 17396263/0x01097227) [8289*]:
    → "I sincerely hope you are blessed with the highest bid, Nantoto."
201: 0x0818 [0x23] WAIT_FOR_DIALOG_INTERACTION
202: 0x0819 [0x6E] Nantoto (ID: 17396267/0x0109722B) uses emote 7*
203: 0x0820 [0x99] Wait for Nantoto (ID: 17396267/0x0109722B) animation to complete
204: 0x0825 [0x1C] WAIT(20* ticks)
205: 0x0828 [0x4A] Fhelm Jobeizat (ID: 17396265/0x01097229) looks at Nantoto (ID: 17396267/0x0109722B)
206: 0x0831 [0x6F] WAIT_FRAME_DELAY: Yield until WaitTime reaches zero
207: 0x0832 [0x76] CHECK_ENTITY_RENDER_FLAGS: Wait until Fhelm Jobeizat (ID: 17396265/0x01097229) Render.Flags0 and Render.Flags3 conditions are met
208: 0x0837 [0x6E] Fhelm Jobeizat (ID: 17396265/0x01097229) uses emote 12*
209: 0x083E [0x99] Wait for Fhelm Jobeizat (ID: 17396265/0x01097229) animation to complete
210: 0x0843 [0x48] [System] [8290*]:
    → "Fhelm Jobeizat cheers Nantoto on!"
211: 0x0846 [0x1C] WAIT(120* ticks)
212: 0x0849 [0x52] END_LOAD_SCHEDULER: End scheduler "s063" with entities [EventEntity, EventEntity], work=617*
213: 0x0858 [0x13] ExtData[1]->WorkLocal[2] = rand() % 198*
214: 0x085D [0x03] ExtData[1]->WorkLocal[3] = ExtData[1]->WorkLocal[2]
215: 0x0862 [0x07] ExtData[1]->WorkLocal[3] += 800*
216: 0x0867 [0x45] LOAD_SCHEDULED_TASK: Load scheduler "s071" with entities [EventEntity, EventEntity], work=[617*, 0*]
217: 0x0878 [0x7B] Duberasson (ID: 17396258/0x01097222) stops talking
218: 0x087D [0x7B] Thundering Chariot (ID: 17396260/0x01097224) stops talking
219: 0x0882 [0x7B] Ulbrik-Mulbrok (ID: 17396261/0x01097225) stops talking
220: 0x0887 [0x7B] Isakoth (ID: 17396264/0x01097228) stops talking
221: 0x088C [0x7B] Ervok (ID: 17396266/0x0109722A) stops talking
222: 0x0891 [0x7B] Nantoto (ID: 17396267/0x0109722B) stops talking
223: 0x0896 [0x1C] WAIT(70* ticks)
224: 0x0899 [0x4A] Rolandienne (ID: 17396263/0x01097227) looks at Unnamed NPC (ID: 17396257/0x01097221)
225: 0x08A2 [0x7B] Rolandienne (ID: 17396263/0x01097227) stops talking
226: 0x08A7 [0x1C] WAIT(40* ticks)
227: 0x08AA [0x4A] Fhelm Jobeizat (ID: 17396265/0x01097229) looks at Unnamed NPC (ID: 17396257/0x01097221)
228: 0x08B3 [0x7B] Fhelm Jobeizat (ID: 17396265/0x01097229) stops talking
229: 0x08B8 [0x1C] WAIT(100* ticks)
230: 0x08BB [0x52] END_LOAD_SCHEDULER: End scheduler "s071" with entities [EventEntity, EventEntity], work=617*
231: 0x08CA [0x02] IF !(ExtData[1]->WorkLocal[1] == 1*) GOTO 0x08DD
232: 0x08D2 [0x5C] MUSIC_CONTROL: Set Idle (Day) music to song 102*
233: 0x08D6 [0x5C] MUSIC_CONTROL: Set Idle (Night) music to song 102*
234: 0x08DA [0x01] GOTO 0x08E5
235: 0x08DD [0x5C] MUSIC_CONTROL: Set Idle (Day) music to song 223*
236: 0x08E1 [0x5C] MUSIC_CONTROL: Set Idle (Night) music to song 223*

SUBROUTINE_08E5:
237: 0x08E5 [0x9A] WAIT_MUSIC_SERVER()
238: 0x08E6 [0x45] LOAD_SCHEDULED_TASK: Load scheduler "s064" with entities [EventEntity, EventEntity], work=[617*, 0*]
239: 0x08F7 [0x1C] WAIT(30* ticks)
240: 0x08FA [0x06] Work_Zone[3] = 0
241: 0x08FD [0x03] Work_Zone[3] = ExtData[1]->WorkLocal[2]
242: 0x0902 [0x07] Work_Zone[3] += 2*
243: 0x0907 [0x48] [System] [8291*]:
    → "Ulbrik-Mulbrok's lot for the $0: $1 points."
244: 0x090A [0x1C] WAIT(30* ticks)
245: 0x090D [0x6E] Ulbrik-Mulbrok (ID: 17396261/0x01097225) uses emote 22*
246: 0x0914 [0x99] Wait for Ulbrik-Mulbrok (ID: 17396261/0x01097225) animation to complete
247: 0x0919 [0x1C] WAIT(90* ticks)
248: 0x091C [0x52] END_LOAD_SCHEDULER: End scheduler "s064" with entities [EventEntity, EventEntity], work=617*
249: 0x092B [0x45] LOAD_SCHEDULED_TASK: Load scheduler "s065" with entities [EventEntity, EventEntity], work=[617*, 0*]
250: 0x093C [0x6E] Rolandienne (ID: 17396263/0x01097227) uses emote 32*
251: 0x0943 [0x99] Wait for Rolandienne (ID: 17396263/0x01097227) animation to complete
252: 0x0948 [0x1C] WAIT(40* ticks)
253: 0x094B [0x06] Work_Zone[3] = 0
254: 0x094E [0x03] Work_Zone[3] = ExtData[1]->WorkLocal[3]
255: 0x0953 [0x08] Work_Zone[3] -= ExtData[1]->WorkLocal[2]
256: 0x0958 [0x08] Work_Zone[3] -= ExtData[1]->WorkLocal[2]
257: 0x095D [0x08] Work_Zone[3] -= 30*
258: 0x0962 [0x48] [System] [8292*]:
    → "Rolandienne's lot for the $0: $1 points."
259: 0x0965 [0x1C] WAIT(80* ticks)
260: 0x0968 [0x52] END_LOAD_SCHEDULER: End scheduler "s065" with entities [EventEntity, EventEntity], work=617*
261: 0x0977 [0x45] LOAD_SCHEDULED_TASK: Load scheduler "s066" with entities [EventEntity, EventEntity], work=[617*, 0*]
262: 0x0988 [0x27] REQ_SET(priority=0x08, entity_id=Ulbrik-Mulbrok (ID: 17396261/0x01097225), tag_num=0x06)
263: 0x098F [0x06] Work_Zone[3] = 0
264: 0x0992 [0x03] Work_Zone[3] = ExtData[1]->WorkLocal[3]
265: 0x0997 [0x48] [System] [8293*]:
    → "Duberasson's lot for the $0: $1 points."
266: 0x099A [0x1C] WAIT(30* ticks)
267: 0x099D [0x6E] Duberasson (ID: 17396258/0x01097222) uses emote 21*
268: 0x09A4 [0x99] Wait for Duberasson (ID: 17396258/0x01097222) animation to complete
269: 0x09A9 [0x1C] WAIT(100* ticks)
270: 0x09AC [0x52] END_LOAD_SCHEDULER: End scheduler "s066" with entities [EventEntity, EventEntity], work=617*
271: 0x09BB [0x45] LOAD_SCHEDULED_TASK: Load scheduler "s072" with entities [EventEntity, EventEntity], work=[617*, 0*]
272: 0x09CC [0x6E] Thundering Chariot (ID: 17396260/0x01097224) uses emote 44*
273: 0x09D3 [0x99] Wait for Thundering Chariot (ID: 17396260/0x01097224) animation to complete
274: 0x09D8 [0x1C] WAIT(80* ticks)
275: 0x09DB [0x06] Work_Zone[3] = 0
276: 0x09DE [0x03] Work_Zone[3] = ExtData[1]->WorkLocal[2]
277: 0x09E3 [0x07] Work_Zone[3] += ExtData[1]->WorkLocal[2]
278: 0x09E8 [0x07] Work_Zone[3] += 400*
279: 0x09ED [0x48] [System] [8294*]:
    → "Thundering Chariot's lot for the $0: $1 points."
280: 0x09F0 [0x1C] WAIT(100* ticks)
281: 0x09F3 [0x52] END_LOAD_SCHEDULER: End scheduler "s072" with entities [EventEntity, EventEntity], work=617*
282: 0x0A02 [0x45] LOAD_SCHEDULED_TASK: Load scheduler "s067" with entities [EventEntity, EventEntity], work=[617*, 0*]
283: 0x0A13 [0x66] LOAD_EXT_SCHEDULER_MAIN: Load scheduler "pos0" with entities [Isakoth (ID: 17396264/0x01097228), Isakoth (ID: 17396264/0x01097228)], work=74*
284: 0x0A22 [0x1C] WAIT(30* ticks)
285: 0x0A25 [0x4A] Rolandienne (ID: 17396263/0x01097227) looks at Isakoth (ID: 17396264/0x01097228)
286: 0x0A2E [0x4A] Fhelm Jobeizat (ID: 17396265/0x01097229) looks at Isakoth (ID: 17396264/0x01097228)
287: 0x0A37 [0x4A] Ervok (ID: 17396266/0x0109722A) looks at Isakoth (ID: 17396264/0x01097228)
288: 0x0A40 [0x4A] Nantoto (ID: 17396267/0x0109722B) looks at Isakoth (ID: 17396264/0x01097228)
289: 0x0A49 [0x4A] Thundering Chariot (ID: 17396260/0x01097224) looks at Isakoth (ID: 17396264/0x01097228)
290: 0x0A52 [0x2B] Isakoth (ID: 17396264/0x01097228) [8295*]:
    → "And thus our hero appears on the scene, undoubtedly with a heroic wager in tow!"
291: 0x0A59 [0x23] WAIT_FOR_DIALOG_INTERACTION
292: 0x0A5A [0x13] Work_Zone[3] = rand() % 450*
293: 0x0A5F [0x07] Work_Zone[3] += 2*
294: 0x0A64 [0x48] [System] [8296*]:
    → "Isakoth's lot for the $0: $1 points."
295: 0x0A67 [0x1C] WAIT(60* ticks)
296: 0x0A6A [0x6B] STOP_AND_IDLE: Isakoth (ID: 17396264/0x01097228) stops current action and resets to idle (animation="idl0")
297: 0x0A73 [0x52] END_LOAD_SCHEDULER: End scheduler "s067" with entities [EventEntity, EventEntity], work=617*
298: 0x0A82 [0x45] LOAD_SCHEDULED_TASK: Load scheduler "00bl" with entities [LocalPlayer, LocalPlayer], work=[610*, 0*]
299: 0x0A93 [0x55] WAIT_LOAD_SCHEDULER: Wait for scheduler "00bl" with entities [LocalPlayer, LocalPlayer], work=610*
300: 0x0AA2 [0x45] LOAD_SCHEDULED_TASK: Load scheduler "s073" with entities [EventEntity, EventEntity], work=[617*, 0*]
301: 0x0AB3 [0x1C] WAIT(10* ticks)
302: 0x0AB6 [0x6E] Isakoth (ID: 17396264/0x01097228) uses emote 33*
303: 0x0ABD [0x99] Wait for Isakoth (ID: 17396264/0x01097228) animation to complete
304: 0x0AC2 [0x1C] WAIT(10* ticks)
305: 0x0AC5 [0x6E] Ervok (ID: 17396266/0x0109722A) uses emote 24*
306: 0x0ACC [0x99] Wait for Ervok (ID: 17396266/0x0109722A) animation to complete
307: 0x0AD1 [0x1C] WAIT(20* ticks)
308: 0x0AD4 [0x6E] Rolandienne (ID: 17396263/0x01097227) uses emote 4*
309: 0x0ADB [0x99] Wait for Rolandienne (ID: 17396263/0x01097227) animation to complete
310: 0x0AE0 [0x6E] Fhelm Jobeizat (ID: 17396265/0x01097229) uses emote 22*
311: 0x0AE7 [0x99] Wait for Fhelm Jobeizat (ID: 17396265/0x01097229) animation to complete
312: 0x0AEC [0x1C] WAIT(10* ticks)
313: 0x0AEF [0x6E] Nantoto (ID: 17396267/0x0109722B) uses emote 4*
314: 0x0AF6 [0x99] Wait for Nantoto (ID: 17396267/0x0109722B) animation to complete
315: 0x0AFB [0x1C] WAIT(70* ticks)
316: 0x0AFE [0x52] END_LOAD_SCHEDULER: End scheduler "s073" with entities [EventEntity, EventEntity], work=617*
317: 0x0B0D [0x45] LOAD_SCHEDULED_TASK: Load scheduler "s068" with entities [EventEntity, EventEntity], work=[617*, 0*]
318: 0x0B1E [0x7B] Rolandienne (ID: 17396263/0x01097227) stops talking
319: 0x0B23 [0x7B] Fhelm Jobeizat (ID: 17396265/0x01097229) stops talking
320: 0x0B28 [0x7B] Ervok (ID: 17396266/0x0109722A) stops talking
321: 0x0B2D [0x7B] Nantoto (ID: 17396267/0x0109722B) stops talking
322: 0x0B32 [0x7B] Thundering Chariot (ID: 17396260/0x01097224) stops talking
323: 0x0B37 [0x7B] Isakoth (ID: 17396264/0x01097228) stops talking
324: 0x0B3C [0x1C] WAIT(30* ticks)
325: 0x0B3F [0x06] Work_Zone[3] = 0
326: 0x0B42 [0x03] Work_Zone[3] = ExtData[1]->WorkLocal[3]
327: 0x0B47 [0x08] Work_Zone[3] -= ExtData[1]->WorkLocal[2]
328: 0x0B4C [0x08] Work_Zone[3] -= ExtData[1]->WorkLocal[2]
329: 0x0B51 [0x08] Work_Zone[3] -= ExtData[1]->WorkLocal[2]
330: 0x0B56 [0x08] Work_Zone[3] -= 7*
331: 0x0B5B [0x6E] Ervok (ID: 17396266/0x0109722A) uses emote 7*
332: 0x0B62 [0x99] Wait for Ervok (ID: 17396266/0x0109722A) animation to complete
333: 0x0B67 [0x48] [System] [8297*]:
    → "Ervok's lot for the $0: $1 points."
334: 0x0B6A [0x1C] WAIT(60* ticks)
335: 0x0B6D [0x52] END_LOAD_SCHEDULER: End scheduler "s068" with entities [EventEntity, EventEntity], work=617*
336: 0x0B7C [0x45] LOAD_SCHEDULED_TASK: Load scheduler "s074" with entities [EventEntity, EventEntity], work=[617*, 0*]
337: 0x0B8D [0x6E] Yerva Libarello (ID: 17396259/0x01097223) uses emote 0*
338: 0x0B94 [0x99] Wait for Yerva Libarello (ID: 17396259/0x01097223) animation to complete
339: 0x0B99 [0x1C] WAIT(15* ticks)
340: 0x0B9C [0x06] Work_Zone[3] = 0
341: 0x0B9F [0x03] Work_Zone[3] = ExtData[1]->WorkLocal[3]
342: 0x0BA4 [0x08] Work_Zone[3] -= 16*
343: 0x0BA9 [0x48] [System] [8298*]:
    → "Yerva Libarello's lot for the $0: $1 points."
344: 0x0BAC [0x1C] WAIT(90* ticks)
345: 0x0BAF [0x52] END_LOAD_SCHEDULER: End scheduler "s074" with entities [EventEntity, EventEntity], work=617*
346: 0x0BBE [0x45] LOAD_SCHEDULED_TASK: Load scheduler "s075" with entities [EventEntity, EventEntity], work=[617*, 0*]
347: 0x0BCF [0x1C] WAIT(20* ticks)
348: 0x0BD2 [0x6E] Fhelm Jobeizat (ID: 17396265/0x01097229) uses emote 34*
349: 0x0BD9 [0x99] Wait for Fhelm Jobeizat (ID: 17396265/0x01097229) animation to complete
350: 0x0BDE [0x06] Work_Zone[3] = 0
351: 0x0BE1 [0x03] Work_Zone[3] = ExtData[1]->WorkLocal[3]
352: 0x0BE6 [0x08] Work_Zone[3] -= ExtData[1]->WorkLocal[2]
353: 0x0BEB [0x08] Work_Zone[3] -= ExtData[1]->WorkLocal[2]
354: 0x0BF0 [0x08] Work_Zone[3] -= 4*
355: 0x0BF5 [0x48] [System] [8299*]:
    → "Fhelm Jobeizat's lot for the $0: $1 points."
356: 0x0BF8 [0x1C] WAIT(100* ticks)
357: 0x0BFB [0x52] END_LOAD_SCHEDULER: End scheduler "s075" with entities [EventEntity, EventEntity], work=617*
358: 0x0C0A [0x5D] SET_MUSIC_VOLUME(volume=0*, fade_time=90*)
359: 0x0C0F [0x45] LOAD_SCHEDULED_TASK: Load scheduler "s069" with entities [EventEntity, EventEntity], work=[617*, 0*]
360: 0x0C20 [0x1C] WAIT(120* ticks)
361: 0x0C23 [0x06] Work_Zone[3] = 0
362: 0x0C26 [0x03] Work_Zone[3] = ExtData[1]->WorkLocal[2]
363: 0x0C2B [0x07] Work_Zone[3] += ExtData[1]->WorkLocal[2]
364: 0x0C30 [0x07] Work_Zone[3] += 1*
365: 0x0C35 [0x6E] Nantoto (ID: 17396267/0x0109722B) uses emote 44*
366: 0x0C3C [0x99] Wait for Nantoto (ID: 17396267/0x0109722B) animation to complete
367: 0x0C41 [0x1C] WAIT(130* ticks)
368: 0x0C44 [0x48] [System] [8300*]:
    → "Nantoto's lot for the $0: $1 points."
369: 0x0C47 [0x1C] WAIT(10* ticks)
370: 0x0C4A [0x48] [System] [8301*]:
    → "Duberasson obtains $0."
371: 0x0C4D [0x1C] WAIT(50* ticks)
372: 0x0C50 [0x4A] Yerva Libarello (ID: 17396259/0x01097223) looks at Duberasson (ID: 17396258/0x01097222)
373: 0x0C59 [0x4A] Thundering Chariot (ID: 17396260/0x01097224) looks at Duberasson (ID: 17396258/0x01097222)
374: 0x0C62 [0x4A] Rolandienne (ID: 17396263/0x01097227) looks at Duberasson (ID: 17396258/0x01097222)
375: 0x0C6B [0x4A] Isakoth (ID: 17396264/0x01097228) looks at Duberasson (ID: 17396258/0x01097222)
376: 0x0C74 [0x4A] Fhelm Jobeizat (ID: 17396265/0x01097229) looks at Duberasson (ID: 17396258/0x01097222)
377: 0x0C7D [0x4A] Ervok (ID: 17396266/0x0109722A) looks at Duberasson (ID: 17396258/0x01097222)
378: 0x0C86 [0x52] END_LOAD_SCHEDULER: End scheduler "s069" with entities [EventEntity, EventEntity], work=617*
379: 0x0C95 [0x45] LOAD_SCHEDULED_TASK: Load scheduler "s070" with entities [EventEntity, EventEntity], work=[617*, 0*]
380: 0x0CA6 [0x6F] WAIT_FRAME_DELAY: Yield until WaitTime reaches zero
381: 0x0CA7 [0x76] CHECK_ENTITY_RENDER_FLAGS: Wait until Yerva Libarello (ID: 17396259/0x01097223) Render.Flags0 and Render.Flags3 conditions are met
382: 0x0CAC [0x6F] WAIT_FRAME_DELAY: Yield until WaitTime reaches zero
383: 0x0CAD [0x76] CHECK_ENTITY_RENDER_FLAGS: Wait until Thundering Chariot (ID: 17396260/0x01097224) Render.Flags0 and Render.Flags3 conditions are met
384: 0x0CB2 [0x6F] WAIT_FRAME_DELAY: Yield until WaitTime reaches zero
385: 0x0CB3 [0x76] CHECK_ENTITY_RENDER_FLAGS: Wait until Rolandienne (ID: 17396263/0x01097227) Render.Flags0 and Render.Flags3 conditions are met
386: 0x0CB8 [0x6F] WAIT_FRAME_DELAY: Yield until WaitTime reaches zero
387: 0x0CB9 [0x76] CHECK_ENTITY_RENDER_FLAGS: Wait until Isakoth (ID: 17396264/0x01097228) Render.Flags0 and Render.Flags3 conditions are met
388: 0x0CBE [0x6F] WAIT_FRAME_DELAY: Yield until WaitTime reaches zero
389: 0x0CBF [0x76] CHECK_ENTITY_RENDER_FLAGS: Wait until Fhelm Jobeizat (ID: 17396265/0x01097229) Render.Flags0 and Render.Flags3 conditions are met
390: 0x0CC4 [0x6F] WAIT_FRAME_DELAY: Yield until WaitTime reaches zero
391: 0x0CC5 [0x76] CHECK_ENTITY_RENDER_FLAGS: Wait until Ervok (ID: 17396266/0x0109722A) Render.Flags0 and Render.Flags3 conditions are met
392: 0x0CCA [0x27] REQ_SET(priority=0x08, entity_id=Nantoto (ID: 17396267/0x0109722B), tag_num=0x04)
393: 0x0CD1 [0x6E] Duberasson (ID: 17396258/0x01097222) uses emote 11*
394: 0x0CD8 [0x99] Wait for Duberasson (ID: 17396258/0x01097222) animation to complete
395: 0x0CDD [0x1C] WAIT(30* ticks)
396: 0x0CE0 [0x2B] Duberasson (ID: 17396258/0x01097222) [8302*]:
    → "How serendipitous! After countless months of inquest, I am finally united with the $0 of my dreams!"
397: 0x0CE7 [0x23] WAIT_FOR_DIALOG_INTERACTION
398: 0x0CE8 [0x1C] WAIT(80* ticks)
399: 0x0CEB [0x52] END_LOAD_SCHEDULER: End scheduler "s070" with entities [EventEntity, EventEntity], work=617*
400: 0x0CFA [0x45] LOAD_SCHEDULED_TASK: Load scheduler "s076" with entities [EventEntity, EventEntity], work=[617*, 0*]
401: 0x0D0B [0x6E] Yerva Libarello (ID: 17396259/0x01097223) uses emote 14*
402: 0x0D12 [0x99] Wait for Yerva Libarello (ID: 17396259/0x01097223) animation to complete
403: 0x0D17 [0x1C] WAIT(20* ticks)
404: 0x0D1A [0x6E] Thundering Chariot (ID: 17396260/0x01097224) uses emote 14*
405: 0x0D21 [0x99] Wait for Thundering Chariot (ID: 17396260/0x01097224) animation to complete
406: 0x0D26 [0x2B] Thundering Chariot (ID: 17396260/0x01097224) [8303*]:
    → "Congratulations. You deserve it."
407: 0x0D2D [0x23] WAIT_FOR_DIALOG_INTERACTION
408: 0x0D2E [0x6E] Ervok (ID: 17396266/0x0109722A) uses emote 14*
409: 0x0D35 [0x99] Wait for Ervok (ID: 17396266/0x0109722A) animation to complete
410: 0x0D3A [0x1C] WAIT(10* ticks)
411: 0x0D3D [0x6E] Isakoth (ID: 17396264/0x01097228) uses emote 14*
412: 0x0D44 [0x99] Wait for Isakoth (ID: 17396264/0x01097228) animation to complete
413: 0x0D49 [0x1C] WAIT(20* ticks)
414: 0x0D4C [0x6E] Rolandienne (ID: 17396263/0x01097227) uses emote 14*
415: 0x0D53 [0x99] Wait for Rolandienne (ID: 17396263/0x01097227) animation to complete
416: 0x0D58 [0x2B] Rolandienne (ID: 17396263/0x01097227) [8304*]:
    → "You must be so happy, Duberasson."
417: 0x0D5F [0x23] WAIT_FOR_DIALOG_INTERACTION
418: 0x0D60 [0x4A] Fhelm Jobeizat (ID: 17396265/0x01097229) looks at Nantoto (ID: 17396267/0x0109722B)
419: 0x0D69 [0x52] END_LOAD_SCHEDULER: End scheduler "s076" with entities [EventEntity, EventEntity], work=617*
420: 0x0D78 [0x45] LOAD_SCHEDULED_TASK: Load scheduler "s077" with entities [EventEntity, EventEntity], work=[617*, 0*]
421: 0x0D89 [0x6F] WAIT_FRAME_DELAY: Yield until WaitTime reaches zero
422: 0x0D8A [0x76] CHECK_ENTITY_RENDER_FLAGS: Wait until Fhelm Jobeizat (ID: 17396265/0x01097229) Render.Flags0 and Render.Flags3 conditions are met
423: 0x0D8F [0x6E] Fhelm Jobeizat (ID: 17396265/0x01097229) uses emote 20*
424: 0x0D96 [0x99] Wait for Fhelm Jobeizat (ID: 17396265/0x01097229) animation to complete
425: 0x0D9B [0x48] [System] [8305*]:
    → "Fhelm Jobeizat comforts Nantoto."
426: 0x0D9E [0x1C] WAIT(20* ticks)
427: 0x0DA1 [0x27] REQ_SET(priority=0x08, entity_id=Unnamed NPC (ID: 17396262/0x01097226), tag_num=0x02)
428: 0x0DA8 [0x1C] WAIT(70* ticks)
429: 0x0DAB [0x27] REQ_SET(priority=0x08, entity_id=Ulbrik-Mulbrok (ID: 17396261/0x01097225), tag_num=0x07)
430: 0x0DB2 [0x1C] WAIT(20* ticks)
431: 0x0DB5 [0x4A] Yerva Libarello (ID: 17396259/0x01097223) looks at Ulbrik-Mulbrok (ID: 17396261/0x01097225)
432: 0x0DBE [0x4A] Thundering Chariot (ID: 17396260/0x01097224) looks at Ulbrik-Mulbrok (ID: 17396261/0x01097225)
433: 0x0DC7 [0x4A] Rolandienne (ID: 17396263/0x01097227) looks at Ulbrik-Mulbrok (ID: 17396261/0x01097225)
434: 0x0DD0 [0x4A] Isakoth (ID: 17396264/0x01097228) looks at Ulbrik-Mulbrok (ID: 17396261/0x01097225)
435: 0x0DD9 [0x4A] Fhelm Jobeizat (ID: 17396265/0x01097229) looks at Ulbrik-Mulbrok (ID: 17396261/0x01097225)
436: 0x0DE2 [0x4A] Ervok (ID: 17396266/0x0109722A) looks at Ulbrik-Mulbrok (ID: 17396261/0x01097225)
437: 0x0DEB [0x52] END_LOAD_SCHEDULER: End scheduler "s077" with entities [EventEntity, EventEntity], work=617*
438: 0x0DFA [0x45] LOAD_SCHEDULED_TASK: Load scheduler "s078" with entities [EventEntity, EventEntity], work=[617*, 0*]
439: 0x0E0B [0x6F] WAIT_FRAME_DELAY: Yield until WaitTime reaches zero
440: 0x0E0C [0x76] CHECK_ENTITY_RENDER_FLAGS: Wait until Yerva Libarello (ID: 17396259/0x01097223) Render.Flags0 and Render.Flags3 conditions are met
441: 0x0E11 [0x6F] WAIT_FRAME_DELAY: Yield until WaitTime reaches zero
442: 0x0E12 [0x76] CHECK_ENTITY_RENDER_FLAGS: Wait until Thundering Chariot (ID: 17396260/0x01097224) Render.Flags0 and Render.Flags3 conditions are met
443: 0x0E17 [0x6F] WAIT_FRAME_DELAY: Yield until WaitTime reaches zero
444: 0x0E18 [0x76] CHECK_ENTITY_RENDER_FLAGS: Wait until Rolandienne (ID: 17396263/0x01097227) Render.Flags0 and Render.Flags3 conditions are met
445: 0x0E1D [0x6F] WAIT_FRAME_DELAY: Yield until WaitTime reaches zero
446: 0x0E1E [0x76] CHECK_ENTITY_RENDER_FLAGS: Wait until Isakoth (ID: 17396264/0x01097228) Render.Flags0 and Render.Flags3 conditions are met
447: 0x0E23 [0x6F] WAIT_FRAME_DELAY: Yield until WaitTime reaches zero
448: 0x0E24 [0x76] CHECK_ENTITY_RENDER_FLAGS: Wait until Fhelm Jobeizat (ID: 17396265/0x01097229) Render.Flags0 and Render.Flags3 conditions are met
449: 0x0E29 [0x6F] WAIT_FRAME_DELAY: Yield until WaitTime reaches zero
450: 0x0E2A [0x76] CHECK_ENTITY_RENDER_FLAGS: Wait until Ervok (ID: 17396266/0x0109722A) Render.Flags0 and Render.Flags3 conditions are met
451: 0x0E2F [0x2A] GET_REQ_LEVEL(level=8, entity_id=Ulbrik-Mulbrok (ID: 17396261/0x01097225))
452: 0x0E35 [0x2B] Ulbrik-Mulbrok (ID: 17396261/0x01097225) [8306*]:
    → "Ack, we've been ambush-wambushed!"
453: 0x0E3C [0x1C] WAIT(60* ticks)
454: 0x0E3F [0x6E] Yerva Libarello (ID: 17396259/0x01097223) uses emote 25*
455: 0x0E46 [0x99] Wait for Yerva Libarello (ID: 17396259/0x01097223) animation to complete
456: 0x0E4B [0x2B] Yerva Libarello (ID: 17396259/0x01097223) [8307*]:
    → "I thought I told you not to disrrregard your duties!"
457: 0x0E52 [0x4A] Thundering Chariot (ID: 17396260/0x01097224) looks at Unnamed NPC (ID: 17396262/0x01097226)
458: 0x0E5B [0x4A] Rolandienne (ID: 17396263/0x01097227) looks at Unnamed NPC (ID: 17396262/0x01097226)
459: 0x0E64 [0x1C] WAIT(40* ticks)
460: 0x0E67 [0x4A] Ulbrik-Mulbrok (ID: 17396261/0x01097225) looks at Unnamed NPC (ID: 17396262/0x01097226)
461: 0x0E70 [0x27] REQ_SET(priority=0x08, entity_id=Unnamed NPC (ID: 17396262/0x01097226), tag_num=0x03)
462: 0x0E77 [0x1C] WAIT(80* ticks)
463: 0x0E7A [0x52] END_LOAD_SCHEDULER: End scheduler "s078" with entities [EventEntity, EventEntity], work=617*
464: 0x0E89 [0x45] LOAD_SCHEDULED_TASK: Load scheduler "s079" with entities [EventEntity, EventEntity], work=[617*, 0*]
465: 0x0E9A [0x6F] WAIT_FRAME_DELAY: Yield until WaitTime reaches zero
466: 0x0E9B [0x76] CHECK_ENTITY_RENDER_FLAGS: Wait until Ulbrik-Mulbrok (ID: 17396261/0x01097225) Render.Flags0 and Render.Flags3 conditions are met
467: 0x0EA0 [0x6F] WAIT_FRAME_DELAY: Yield until WaitTime reaches zero
468: 0x0EA1 [0x76] CHECK_ENTITY_RENDER_FLAGS: Wait until Thundering Chariot (ID: 17396260/0x01097224) Render.Flags0 and Render.Flags3 conditions are met
469: 0x0EA6 [0x6F] WAIT_FRAME_DELAY: Yield until WaitTime reaches zero
470: 0x0EA7 [0x76] CHECK_ENTITY_RENDER_FLAGS: Wait until Rolandienne (ID: 17396263/0x01097227) Render.Flags0 and Render.Flags3 conditions are met
471: 0x0EAC [0x27] REQ_SET(priority=0x08, entity_id=Thundering Chariot (ID: 17396260/0x01097224), tag_num=0x02)
472: 0x0EB3 [0x1C] WAIT(20* ticks)
473: 0x0EB6 [0x27] REQ_SET(priority=0x08, entity_id=Rolandienne (ID: 17396263/0x01097227), tag_num=0x02)
474: 0x0EBD [0x1C] WAIT(50* ticks)
475: 0x0EC0 [0x1A] CALL_SUBROUTINE(address=0x0064)
476: 0x0EC3 [0x52] END_LOAD_SCHEDULER: End scheduler "s079" with entities [EventEntity, EventEntity], work=617*
477: 0x0ED2 [0x1C] WAIT(15* ticks)
478: 0x0ED5 [0xAB] EventEntity->DespawnValue = 0* // Set despawn value
479: 0x0ED9 [0x1C] WAIT(1* ticks)
480: 0x0EDC [0x78] ENABLE_GAME_TIMER_RESET_WEATHER()
481: 0x0EDD [0x5C] MUSIC_CONTROL: Set Idle (Day) music to song 0*
482: 0x0EE1 [0x5C] MUSIC_CONTROL: Set Idle (Night) music to song 0*
483: 0x0EE5 [0x9A] WAIT_MUSIC_SERVER()
484: 0x0EE6 [0xAB] EventEntity->UnknownFlag = 0 // Disable unknown flag
485: 0x0EE8 [0x02] IF !(ExtData[1]->WorkLocal[0] == 1*) GOTO 0x0F06
486: 0x0EF0 [0x46] CAMERA_CONTROL: Restore default settings
487: 0x0EF2 [0x45] LOAD_SCHEDULED_TASK: Load scheduler "fdi2" with entities [LocalPlayer, LocalPlayer], work=[200*, 0*]
488: 0x0F03 [0x01] GOTO 0x0F07
489: 0x0F06 [0x30] SET_UCOFF_CONTINUE_ZERO()

SUBROUTINE_0F07:
490: 0x0F07 [0x21] END_EVENT
491: 0x0F08 [0x00] END_REQSTACK()
```
