# 0x7FFFFFF0 - Zone Events

## Common Data

| Field            | Value                    |
|------------------|--------------------------|
| Zone             | Castle Oztroja (ID: 151) |
| Block Size       | 2140 bytes               |
| Total Events     | 59                       |
| References Count | 170                      |

## List of Events

| Event ID                   | Entrypoint   |   Size |   Instructions |
|----------------------------|--------------|--------|----------------|
| [65535](#event-65535)      | 0x0000       |      1 |              1 |
| [11](#event-11)            | 0x0001       |      1 |              1 |
| [65535.1](#event-655351)   | 0x0002       |     39 |              9 |
| [12](#event-12)            | 0x0029       |     72 |             18 |
| [65534](#event-65534)      | 0x0071       |      1 |              1 |
| [65535.2](#event-655352)   | 0x0072       |     13 |              3 |
| [65535.3](#event-655353)   | 0x007F       |     13 |              3 |
| [65535.4](#event-655354)   | 0x008C       |     13 |              3 |
| [65535.5](#event-655355)   | 0x0099       |      6 |              2 |
| [65535.6](#event-655356)   | 0x009F       |     13 |              3 |
| [65535.7](#event-655357)   | 0x00AC       |     10 |              2 |
| [65535.8](#event-655358)   | 0x00B6       |     13 |              3 |
| [65535.9](#event-655359)   | 0x00C3       |     14 |              4 |
| [65535.10](#event-6553510) | 0x00D1       |     23 |              5 |
| [65535.11](#event-6553511) | 0x00E8       |     10 |              2 |
| [65535.12](#event-6553512) | 0x00F2       |     10 |              2 |
| [65535.13](#event-6553513) | 0x00FC       |     10 |              2 |
| [65535.14](#event-6553514) | 0x0106       |     10 |              2 |
| [65535.15](#event-6553515) | 0x0110       |     10 |              2 |
| [65535.16](#event-6553516) | 0x011A       |     10 |              2 |
| [65535.17](#event-6553517) | 0x0124       |     10 |              2 |
| [65535.18](#event-6553518) | 0x012E       |     10 |              2 |
| [65535.19](#event-6553519) | 0x0138       |     10 |              2 |
| [65535.20](#event-6553520) | 0x0142       |     10 |              2 |
| [65535.21](#event-6553521) | 0x014C       |     10 |              2 |
| [65535.22](#event-6553522) | 0x0156       |     10 |              2 |
| [65535.23](#event-6553523) | 0x0160       |     10 |              2 |
| [65535.24](#event-6553524) | 0x016A       |     10 |              2 |
| [65535.25](#event-6553525) | 0x0174       |     10 |              2 |
| [65535.26](#event-6553526) | 0x017E       |     10 |              2 |
| [65535.27](#event-6553527) | 0x0188       |     14 |              4 |
| [65535.28](#event-6553528) | 0x0196       |     14 |              4 |
| [65535.29](#event-6553529) | 0x01A4       |     17 |              5 |
| [65535.30](#event-6553530) | 0x01B5       |     14 |              4 |
| [65535.31](#event-6553531) | 0x01C3       |     10 |              2 |
| [65535.32](#event-6553532) | 0x01CD       |     10 |              2 |
| [65535.33](#event-6553533) | 0x01D7       |     10 |              2 |
| [65535.34](#event-6553534) | 0x01E1       |     10 |              2 |
| [65535.35](#event-6553535) | 0x01EB       |      8 |              2 |
| [65535.36](#event-6553536) | 0x01F3       |     14 |              4 |
| [65535.37](#event-6553537) | 0x0201       |     23 |              3 |
| [65535.38](#event-6553538) | 0x0218       |     44 |             10 |
| [65535.39](#event-6553539) | 0x0244       |     31 |              7 |
| [65535.40](#event-6553540) | 0x0263       |     40 |              7 |
| [65535.41](#event-6553541) | 0x028B       |     50 |              8 |
| [65535.42](#event-6553542) | 0x02BD       |      8 |              2 |
| [65535.43](#event-6553543) | 0x02C5       |     25 |              6 |
| [65535.44](#event-6553544) | 0x02DE       |     10 |              2 |
| [65535.45](#event-6553545) | 0x02E8       |     10 |              2 |
| [65535.46](#event-6553546) | 0x02F2       |     32 |              8 |
| [65535.47](#event-6553547) | 0x0312       |     32 |              8 |
| [65535.48](#event-6553548) | 0x0332       |     37 |              5 |
| [65535.49](#event-6553549) | 0x0357       |    185 |             37 |
| [65535.50](#event-6553550) | 0x0410       |     10 |              2 |
| [65535.51](#event-6553551) | 0x041A       |     37 |              5 |
| [65535.52](#event-6553552) | 0x043F       |     37 |              5 |
| [65535.53](#event-6553553) | 0x0464       |     37 |              5 |
| [65535.54](#event-6553554) | 0x0489       |     37 |              5 |
| [65535.55](#event-6553555) | 0x04AE       |     10 |              2 |

## DAT References (imed_data)

|   Index | Hex Value   |   Dec Value |
|---------|-------------|-------------|
|       0 | 0xFFFE7998  |  4294867352 |
|       1 | 0xFFFE5A44  |  4294859332 |
|       2 | 0x5EB9      |       24249 |
|       3 | 0x03EE      |        1006 |
|       4 | 0xFFFE791A  |  4294867226 |
|       5 | 0xFFFE47D0  |  4294854608 |
|       6 | 0xFFFDA094  |  4294811796 |
|       7 | 0xFFFDA6DB  |  4294813403 |
|       8 | 0xFFFDDD2F  |  4294827311 |
|       9 | 0x07F9      |        2041 |
|      10 | 0xFFFD9679  |  4294809209 |
|      11 | 0xFFFDDCBC  |  4294827196 |
|      12 | 0x0006      |           6 |
|      13 | 0x420B      |       16907 |
|      14 | 0xFFFFB5A8  |  4294948264 |
|      15 | 0x00FA      |         250 |
|      16 | 0x0ACF      |        2767 |
|      17 | 0x4F0F      |       20239 |
|      18 | 0xFFFFCB5B  |  4294953819 |
|      19 | 0x5D1B      |       23835 |
|      20 | 0x088C      |        2188 |
|      21 | 0xFFFE4CC8  |  4294855880 |
|      22 | 0x17660     |       95840 |
|      23 | 0xFFFEE6C0  |  4294895296 |
|      24 | 0x09A9      |        2473 |
|      25 | 0x4DAB      |       19883 |
|      26 | 0xFFFFC7F9  |  4294952953 |
|      27 | 0x00F7      |         247 |
|      28 | 0x003C      |          60 |
|      29 | 0x50B8      |       20664 |
|      30 | 0xFFFFD4FC  |  4294956284 |
|      31 | 0x5DA8      |       23976 |
|      32 | 0x04A9      |        1193 |
|      33 | 0x000D      |          13 |
|      34 | 0x5FC8      |       24520 |
|      35 | 0xFFFFB0CE  |  4294947022 |
|      36 | 0x5D91      |       23953 |
|      37 | 0x4DAA      |       19882 |
|      38 | 0xFFFFC5C9  |  4294952393 |
|      39 | 0xFFFE6D84  |  4294864260 |
|      40 | 0x1521D     |       86557 |
|      41 | 0x064C      |        1612 |
|      42 | 0x9DC49     |      646217 |
|      43 | 0xFFFD6E64  |  4294798948 |
|      44 | 0x00A1      |         161 |
|      45 | 0x0C85      |        3205 |
|      46 | 0xFFFFADA3  |  4294946211 |
|      47 | 0xE9CA      |       59850 |
|      48 | 0xFFFFF799  |  4294965145 |
|      49 | 0x0D28      |        3368 |
|      50 | 0xFFFEABF4  |  4294880244 |
|      51 | 0xFFFA4EB6  |  4294594230 |
|      52 | 0x012D      |         301 |
|      53 | 0x06A4      |        1700 |
|      54 | 0xFFFDB3A7  |  4294816679 |
|      55 | 0x4EF1      |       20209 |
|      56 | 0xFFFFBFF4  |  4294950900 |
|      57 | 0x084E      |        2126 |
|      58 | 0x000A      |          10 |
|      59 | 0xFFFF6A35  |  4294928949 |
|      60 | 0x2327      |        8999 |
|      61 | 0x03ED      |        1005 |
|      62 | 0xFFFCAEE9  |  4294749929 |
|      63 | 0x70C05     |      461829 |
|      64 | 0x17BF0     |       97264 |
|      65 | 0x08E7      |        2279 |
|      66 | 0xFFFC4F0B  |  4294725387 |
|      67 | 0x51564     |      333156 |
|      68 | 0xFFFFD0E8  |  4294955240 |
|      69 | 0x0278      |         632 |
|      70 | 0xFFFA9423  |  4294612003 |
|      71 | 0xFFFE6DB2  |  4294864306 |
|      72 | 0x3C71      |       15473 |
|      73 | 0x08EC      |        2284 |
|      74 | 0x6D91F     |      448799 |
|      75 | 0xFFFF8D5B  |  4294937947 |
|      76 | 0xFFFF64E1  |  4294927585 |
|      77 | 0x0240      |         576 |
|      78 | 0xFFFFBB04  |  4294949636 |
|      79 | 0xD3E9      |       54249 |
|      80 | 0xFFFFFE47  |  4294966855 |
|      81 | 0x0AC4      |        2756 |
|      82 | 0xFFFFB53C  |  4294948156 |
|      83 | 0x4B66      |       19302 |
|      84 | 0x9EA9      |       40617 |
|      85 | 0x03A7      |         935 |
|      86 | 0x11D84     |       73092 |
|      87 | 0xFFFD607B  |  4294795387 |
|      88 | 0x0F9F      |        3999 |
|      89 | 0x0402      |        1026 |
|      90 | 0xFFFFB137  |  4294947127 |
|      91 | 0x7A43      |       31299 |
|      92 | 0xFFFFD8F2  |  4294957298 |
|      93 | 0x0D4B      |        3403 |
|      94 | 0xFFFFC860  |  4294953056 |
|      95 | 0xD01B      |       53275 |
|      96 | 0xFFFFFD7F  |  4294966655 |
|      97 | 0x0BF0      |        3056 |
|      98 | 0x22CEF     |      142575 |
|      99 | 0xFFFDDD08  |  4294827272 |
|     100 | 0xFFFFC27A  |  4294951546 |
|     101 | 0x0FED      |        4077 |
|     102 | 0x0028      |          40 |
|     103 | 0x23BE5     |      146405 |
|     104 | 0xFFFDDD49  |  4294827337 |
|     105 | 0xFFFFC27B  |  4294951547 |
|     106 | 0x24145     |      147781 |
|     107 | 0xFFFDDEBB  |  4294827707 |
|     108 | 0x000F      |          15 |
|     109 | 0xFFFDAFA6  |  4294815654 |
|     110 | 0xFFFDE469  |  4294829161 |
|     111 | 0x243F7     |      148471 |
|     112 | 0xFFFDDECF  |  4294827727 |
|     113 | 0x2CDD3     |      183763 |
|     114 | 0xFFFDDB9F  |  4294826911 |
|     115 | 0x0F7B      |        3963 |
|     116 | 0xFFFFA4CA  |  4294943946 |
|     117 | 0xFFFDD821  |  4294826017 |
|     118 | 0x5F04      |       24324 |
|     119 | 0x05BE      |        1470 |
|     120 | 0x231A0     |      143776 |
|     121 | 0xFFFDDD14  |  4294827284 |
|     122 | 0x0001      |           1 |
|     123 | 0xFFFDA28B  |  4294812299 |
|     124 | 0xFFFDD8E8  |  4294826216 |
|     125 | 0x07A1      |        1953 |
|     126 | 0xFFFD9987  |  4294809991 |
|     127 | 0xFFFDDDDB  |  4294827483 |
|     128 | 0x24572     |      148850 |
|     129 | 0xFFFDD9C7  |  4294826439 |
|     130 | 0xFFFD8EDB  |  4294807259 |
|     131 | 0xFFFDD3A9  |  4294824873 |
|     132 | 0x081F      |        2079 |
|     133 | 0x2403E     |      147518 |
|     134 | 0xFFFDDED0  |  4294827728 |
|     135 | 0x0819      |        2073 |
|     136 | 0x23289     |      144009 |
|     137 | 0xFFFDDD97  |  4294827415 |
|     138 | 0x22F07     |      143111 |
|     139 | 0xFFFDDCDE  |  4294827230 |
|     140 | 0x0AA0      |        2720 |
|     141 | 0x001E      |          30 |
|     142 | 0x0529      |        1321 |
|     143 | 0x002D      |          45 |
|     144 | 0x223B5     |      140213 |
|     145 | 0xFFFDDD4A  |  4294827338 |
|     146 | 0x00B4      |         180 |
|     147 | 0x23E4C     |      147020 |
|     148 | 0xFFFDDD1F  |  4294827295 |
|     149 | 0x07FD      |        2045 |
|     150 | 0x23999     |      145817 |
|     151 | 0xFFFDDD07  |  4294827271 |
|     152 | 0x2431F     |      148255 |
|     153 | 0xFFFDDDD9  |  4294827481 |
|     154 | 0x232C0     |      144064 |
|     155 | 0xFFFDDCD2  |  4294827218 |
|     156 | 0x22BBB     |      142267 |
|     157 | 0xFFFDDCA5  |  4294827173 |
|     158 | 0x0005      |           5 |
|     159 | 0x0002      |           2 |
|     160 | 0x0009      |           9 |
|     161 | 0x0046      |          70 |
|     162 | 0x008C      |         140 |
|     163 | 0x00D2      |         210 |
|     164 | 0x2C53A     |      181562 |
|     165 | 0xFFFDD5EB  |  4294825451 |
|     166 | 0x0E9A      |        3738 |
|     167 | 0x2BD0B     |      179467 |
|     168 | 0xFFFDD82D  |  4294826029 |
|     169 | 0x0EDB      |        3803 |

## String References

- **6**: It won't open from this side.

## Events

### Event 65535

#### Metadata

| Field        | Value   |
|--------------|---------|
| Entrypoint   | 0x0000  |
| Data Size    | 1 bytes |
| Instructions | 1       |

```
      00 01 02 03 04 05 06 07  08 09 0A 0B 0C 0D 0E 0F
      -- -- -- -- -- -- -- --  -- -- -- -- -- -- -- --
0000: 00                                                .               
```

#### Opcodes

```
  0: 0x0000 [0x00] END_REQSTACK()
```

### Event 11

#### Metadata

| Field        | Value   |
|--------------|---------|
| Entrypoint   | 0x0001  |
| Data Size    | 1 bytes |
| Instructions | 1       |

```
      00 01 02 03 04 05 06 07  08 09 0A 0B 0C 0D 0E 0F
      -- -- -- -- -- -- -- --  -- -- -- -- -- -- -- --
0000:    00                                              .              
```

#### Opcodes

```
  0: 0x0001 [0x00] END_REQSTACK()
```

### Event 65535.1

#### Metadata

| Field        | Value    |
|--------------|----------|
| Entrypoint   | 0x0002   |
| Data Size    | 39 bytes |
| Instructions | 9        |

```
      00 01 02 03 04 05 06 07  08 09 0A 0B 0C 0D 0E 0F
      -- -- -- -- -- -- -- --  -- -- -- -- -- -- -- --
0000:       1F 00 00 80 01 80  02 80 1F 01 39 03 80 29    ..........9..)
0010: 00 D6 71 09 01 02 1F 00  04 80 05 80 02 80 1F 01  ..q.............
0020: 29 00 D6 71 09 01 03 21  00                       )..q...!.       
```

#### Opcodes

```
  0: 0x0002 [0x1F] MOVE_ENTITY: EventEntity moves to X=-99.944*, Z=-107.964*, Y=24.249*
  1: 0x000A [0x1F] MOVE_ENTITY: Update entity position (mode=1)
  2: 0x000C [0x39] SET_ENTITY_DIRECTION(direction=5.5°*)
  3: 0x000F [0x29] REQ_SET_WAIT(priority=0x00, entity_id=Brass Door (ID: 17396182/0x010971D6), tag_num=0x02)
  4: 0x0016 [0x1F] MOVE_ENTITY: EventEntity moves to X=-100.070*, Z=-112.688*, Y=24.249*
  5: 0x001E [0x1F] MOVE_ENTITY: Update entity position (mode=1)
  6: 0x0020 [0x29] REQ_SET_WAIT(priority=0x00, entity_id=Brass Door (ID: 17396182/0x010971D6), tag_num=0x03)
  7: 0x0027 [0x21] END_EVENT
  8: 0x0028 [0x00] END_REQSTACK()
```

### Event 12

#### Metadata

| Field        | Value    |
|--------------|----------|
| Entrypoint   | 0x0029   |
| Data Size    | 72 bytes |
| Instructions | 18       |

```
      00 01 02 03 04 05 06 07  08 09 0A 0B 0C 0D 0E 0F
      -- -- -- -- -- -- -- --  -- -- -- -- -- -- -- --
0020:                             3B F8 FF FF 7F 00 00           ;......
0030: 01 00 02 00 02 00 00 06  80 02 6B 00 20 01 42 43  ..........k. .BC
0040: 00 43 01 1F 00 07 80 08  80 02 80 1F 01 39 09 80  .C...........9..
0050: 29 00 E4 71 09 01 02 1F  00 0A 80 0B 80 02 80 1F  )..q............
0060: 01 29 00 E4 71 09 01 03  01 6F 00 48 0C 80 23 21  .)..q....o.H..#!
0070: 00                                                .               
```

#### Opcodes

```
  0: 0x0029 [0x3B] GET_ENTITY_POSITION(entity=EventEntity, x_destination=ExtData[1]->WorkLocal[0], y_destination=ExtData[1]->WorkLocal[1], z_destination=ExtData[1]->WorkLocal[2])
  1: 0x0034 [0x02] IF !(ExtData[1]->WorkLocal[0] <= 4294811796*) GOTO 0x006B
  2: 0x003C [0x20] SET_CLI_EVENT_UC_FLAG: Lock player control
  3: 0x003E [0x42] SET_CLI_EVENT_CANCEL_DATA()
  4: 0x003F [0x43] SEND_EVENT_UPDATE: Send pending tag to server (packet 0x005B)
  5: 0x0041 [0x43] SEND_EVENT_UPDATE: Check pending flag (skip if not pending)
  6: 0x0043 [0x1F] MOVE_ENTITY: EventEntity moves to X=-153.893*, Z=-139.985*, Y=24.249*
  7: 0x004B [0x1F] MOVE_ENTITY: Update entity position (mode=1)
  8: 0x004D [0x39] SET_ENTITY_DIRECTION(direction=11.2°*)
  9: 0x0050 [0x29] REQ_SET_WAIT(priority=0x00, entity_id=Brass Door (ID: 17396196/0x010971E4), tag_num=0x02)
 10: 0x0057 [0x1F] MOVE_ENTITY: EventEntity moves to X=-158.087*, Z=-140.100*, Y=24.249*
 11: 0x005F [0x1F] MOVE_ENTITY: Update entity position (mode=1)
 12: 0x0061 [0x29] REQ_SET_WAIT(priority=0x00, entity_id=Brass Door (ID: 17396196/0x010971E4), tag_num=0x03)
 13: 0x0068 [0x01] GOTO 0x006F
 14: 0x006B [0x48] [System] [6*]:
    → "It won't open from this side."
 15: 0x006E [0x23] WAIT_FOR_DIALOG_INTERACTION

SUBROUTINE_006F:
 16: 0x006F [0x21] END_EVENT
 17: 0x0070 [0x00] END_REQSTACK()
```

### Event 65534

#### Metadata

| Field        | Value   |
|--------------|---------|
| Entrypoint   | 0x0071  |
| Data Size    | 1 bytes |
| Instructions | 1       |

```
      00 01 02 03 04 05 06 07  08 09 0A 0B 0C 0D 0E 0F
      -- -- -- -- -- -- -- --  -- -- -- -- -- -- -- --
0070:    00                                              .              
```

#### Opcodes

```
  0: 0x0071 [0x00] END_REQSTACK()
```

### Event 65535.2

#### Metadata

| Field        | Value    |
|--------------|----------|
| Entrypoint   | 0x0072   |
| Data Size    | 13 bytes |
| Instructions | 3        |

```
      00 01 02 03 04 05 06 07  08 09 0A 0B 0C 0D 0E 0F
      -- -- -- -- -- -- -- --  -- -- -- -- -- -- -- --
0070:       47 00 0D 80 0E 80  0F 80 10 80 47 01 00       G.........G.. 
```

#### Opcodes

```
  0: 0x0072 [0x47] UPDATE_PLAYER_POS(16.907*, -19.032*, 0.250*, yaw=243.2°*)
  1: 0x007C [0x47] WAIT_PLAYER_POS_UPDATE
  2: 0x007E [0x00] END_REQSTACK()
```

### Event 65535.3

#### Metadata

| Field        | Value    |
|--------------|----------|
| Entrypoint   | 0x007F   |
| Data Size    | 13 bytes |
| Instructions | 3        |

```
      00 01 02 03 04 05 06 07  08 09 0A 0B 0C 0D 0E 0F
      -- -- -- -- -- -- -- --  -- -- -- -- -- -- -- --
0070:                                               47                 G
0080: 00 11 80 12 80 13 80 14  80 47 01 00              .........G..    
```

#### Opcodes

```
  0: 0x007F [0x47] UPDATE_PLAYER_POS(20.239*, -13.477*, 23.835*, yaw=192.3°*)
  1: 0x0089 [0x47] WAIT_PLAYER_POS_UPDATE
  2: 0x008B [0x00] END_REQSTACK()
```

### Event 65535.4

#### Metadata

| Field        | Value    |
|--------------|----------|
| Entrypoint   | 0x008C   |
| Data Size    | 13 bytes |
| Instructions | 3        |

```
      00 01 02 03 04 05 06 07  08 09 0A 0B 0C 0D 0E 0F
      -- -- -- -- -- -- -- --  -- -- -- -- -- -- -- --
0080:                                      47 00 15 80              G...
0090: 16 80 17 80 18 80 47 01  00                       ......G..       
```

#### Opcodes

```
  0: 0x008C [0x47] UPDATE_PLAYER_POS(-111.416*, 95.840*, -72.000*, yaw=217.3°*)
  1: 0x0096 [0x47] WAIT_PLAYER_POS_UPDATE
  2: 0x0098 [0x00] END_REQSTACK()
```

### Event 65535.5

#### Metadata

| Field        | Value   |
|--------------|---------|
| Entrypoint   | 0x0099  |
| Data Size    | 6 bytes |
| Instructions | 2       |

```
      00 01 02 03 04 05 06 07  08 09 0A 0B 0C 0D 0E 0F
      -- -- -- -- -- -- -- --  -- -- -- -- -- -- -- --
0090:                             03 09 10 07 7F 00              ...... 
```

#### Opcodes

```
  0: 0x0099 [0x03] Work_Zone[9] = Entity->Race
  1: 0x009E [0x00] END_REQSTACK()
```

### Event 65535.6

#### Metadata

| Field        | Value    |
|--------------|----------|
| Entrypoint   | 0x009F   |
| Data Size    | 13 bytes |
| Instructions | 3        |

```
      00 01 02 03 04 05 06 07  08 09 0A 0B 0C 0D 0E 0F
      -- -- -- -- -- -- -- --  -- -- -- -- -- -- -- --
0090:                                               31                 1
00A0: 00 19 80 1A 80 1B 80 1C  80 31 01 00              .........1..    
```

#### Opcodes

```
  0: 0x009F [0x31] UPDATE_ENTITY_POSITION: Set EventEntity goal position to X=19.883*, Z=-14.343*, Y=0.247*, Time=60*
  1: 0x00A9 [0x31] UPDATE_ENTITY_POSITION: Move EventEntity towards goal position
  2: 0x00AB [0x00] END_REQSTACK()
```

### Event 65535.7

#### Metadata

| Field        | Value    |
|--------------|----------|
| Entrypoint   | 0x00AC   |
| Data Size    | 10 bytes |
| Instructions | 2        |

```
      00 01 02 03 04 05 06 07  08 09 0A 0B 0C 0D 0E 0F
      -- -- -- -- -- -- -- --  -- -- -- -- -- -- -- --
00A0:                                      37 1D 80 1E              7...
00B0: 80 1F 80 20 80 00                                 ... ..          
```

#### Opcodes

```
  0: 0x00AC [0x37] UPDATE_EVENT_POSITION_AND_DIR: x=20.664*, z=-11.012*, y=23.976*, direction=104.9°*
  1: 0x00B5 [0x00] END_REQSTACK()
```

### Event 65535.8

#### Metadata

| Field        | Value    |
|--------------|----------|
| Entrypoint   | 0x00B6   |
| Data Size    | 13 bytes |
| Instructions | 3        |

```
      00 01 02 03 04 05 06 07  08 09 0A 0B 0C 0D 0E 0F
      -- -- -- -- -- -- -- --  -- -- -- -- -- -- -- --
00B0:                   47 00  1D 80 1E 80 1F 80 20 80        G....... .
00C0: 47 01 00                                          G..             
```

#### Opcodes

```
  0: 0x00B6 [0x47] UPDATE_PLAYER_POS(20.664*, -11.012*, 23.976*, yaw=104.9°*)
  1: 0x00C0 [0x47] WAIT_PLAYER_POS_UPDATE
  2: 0x00C2 [0x00] END_REQSTACK()
```

### Event 65535.9

#### Metadata

| Field        | Value    |
|--------------|----------|
| Entrypoint   | 0x00C3   |
| Data Size    | 14 bytes |
| Instructions | 4        |

```
      00 01 02 03 04 05 06 07  08 09 0A 0B 0C 0D 0E 0F
      -- -- -- -- -- -- -- --  -- -- -- -- -- -- -- --
00C0:          32 21 80 1F 00  22 80 23 80 24 80 1F 01     2!...".#.$...
00D0: 00                                                .               
```

#### Opcodes

```
  0: 0x00C3 [0x32] ExtData[1]->MainSpeed = 13* * 0.1
  1: 0x00C6 [0x1F] MOVE_ENTITY: EventEntity moves to X=24.520*, Z=-20.274*, Y=23.953*
  2: 0x00CE [0x1F] MOVE_ENTITY: Update entity position (mode=1)
  3: 0x00D0 [0x00] END_REQSTACK()
```

### Event 65535.10

#### Metadata

| Field        | Value    |
|--------------|----------|
| Entrypoint   | 0x00D1   |
| Data Size    | 23 bytes |
| Instructions | 5        |

```
      00 01 02 03 04 05 06 07  08 09 0A 0B 0C 0D 0E 0F
      -- -- -- -- -- -- -- --  -- -- -- -- -- -- -- --
00D0:    32 21 80 1F 00 25 80  26 80 24 80 1F 01 4A BA   2!...%.&.$...J.
00E0: 71 09 01 F0 FF FF 7F 00                           q.......        
```

#### Opcodes

```
  0: 0x00D1 [0x32] ExtData[1]->MainSpeed = 13* * 0.1
  1: 0x00D4 [0x1F] MOVE_ENTITY: EventEntity moves to X=19.882*, Z=-14.903*, Y=23.953*
  2: 0x00DC [0x1F] MOVE_ENTITY: Update entity position (mode=1)
  3: 0x00DE [0x4A] Ajido-Marujido (ID: 17396154/0x010971BA) looks at LocalPlayer
  4: 0x00E7 [0x00] END_REQSTACK()
```

### Event 65535.11

#### Metadata

| Field        | Value    |
|--------------|----------|
| Entrypoint   | 0x00E8   |
| Data Size    | 10 bytes |
| Instructions | 2        |

```
      00 01 02 03 04 05 06 07  08 09 0A 0B 0C 0D 0E 0F
      -- -- -- -- -- -- -- --  -- -- -- -- -- -- -- --
00E0:                          37 27 80 28 80 17 80 29          7'.(...)
00F0: 80 00                                             ..              
```

#### Opcodes

```
  0: 0x00E8 [0x37] UPDATE_EVENT_POSITION_AND_DIR: x=-103.036*, z=86.557*, y=-72.000*, direction=141.7°*
  1: 0x00F1 [0x00] END_REQSTACK()
```

### Event 65535.12

#### Metadata

| Field        | Value    |
|--------------|----------|
| Entrypoint   | 0x00F2   |
| Data Size    | 10 bytes |
| Instructions | 2        |

```
      00 01 02 03 04 05 06 07  08 09 0A 0B 0C 0D 0E 0F
      -- -- -- -- -- -- -- --  -- -- -- -- -- -- -- --
00F0:       37 2A 80 2B 80 2C  80 2D 80 00                7*.+.,.-..    
```

#### Opcodes

```
  0: 0x00F2 [0x37] UPDATE_EVENT_POSITION_AND_DIR: x=646.217*, z=-168.348*, y=0.161*, direction=281.7°*
  1: 0x00FB [0x00] END_REQSTACK()
```

### Event 65535.13

#### Metadata

| Field        | Value    |
|--------------|----------|
| Entrypoint   | 0x00FC   |
| Data Size    | 10 bytes |
| Instructions | 2        |

```
      00 01 02 03 04 05 06 07  08 09 0A 0B 0C 0D 0E 0F
      -- -- -- -- -- -- -- --  -- -- -- -- -- -- -- --
00F0:                                      37 2E 80 2F              7../
0100: 80 30 80 31 80 00                                 .0.1..          
```

#### Opcodes

```
  0: 0x00FC [0x37] UPDATE_EVENT_POSITION_AND_DIR: x=-21.085*, z=59.850*, y=-2.151*, direction=296.0°*
  1: 0x0105 [0x00] END_REQSTACK()
```

### Event 65535.14

#### Metadata

| Field        | Value    |
|--------------|----------|
| Entrypoint   | 0x0106   |
| Data Size    | 10 bytes |
| Instructions | 2        |

```
      00 01 02 03 04 05 06 07  08 09 0A 0B 0C 0D 0E 0F
      -- -- -- -- -- -- -- --  -- -- -- -- -- -- -- --
0100:                   37 32  80 33 80 34 80 35 80 00        72.3.4.5..
```

#### Opcodes

```
  0: 0x0106 [0x37] UPDATE_EVENT_POSITION_AND_DIR: x=-87.052*, z=-373.066*, y=0.301*, direction=149.4°*
  1: 0x010F [0x00] END_REQSTACK()
```

### Event 65535.15

#### Metadata

| Field        | Value    |
|--------------|----------|
| Entrypoint   | 0x0110   |
| Data Size    | 10 bytes |
| Instructions | 2        |

```
      00 01 02 03 04 05 06 07  08 09 0A 0B 0C 0D 0E 0F
      -- -- -- -- -- -- -- --  -- -- -- -- -- -- -- --
0110: 37 36 80 37 80 38 80 39  80 00                    76.7.8.9..      
```

#### Opcodes

```
  0: 0x0110 [0x37] UPDATE_EVENT_POSITION_AND_DIR: x=-150.617*, z=20.209*, y=-16.396*, direction=186.8°*
  1: 0x0119 [0x00] END_REQSTACK()
```

### Event 65535.16

#### Metadata

| Field        | Value    |
|--------------|----------|
| Entrypoint   | 0x011A   |
| Data Size    | 10 bytes |
| Instructions | 2        |

```
      00 01 02 03 04 05 06 07  08 09 0A 0B 0C 0D 0E 0F
      -- -- -- -- -- -- -- --  -- -- -- -- -- -- -- --
0110:                                37 3A 80 3B 80 3C            7:.;.<
0120: 80 3D 80 00                                       .=..            
```

#### Opcodes

```
  0: 0x011A [0x37] UPDATE_EVENT_POSITION_AND_DIR: x=0.010*, z=-38.347*, y=8.999*, direction=88.3°*
  1: 0x0123 [0x00] END_REQSTACK()
```

### Event 65535.17

#### Metadata

| Field        | Value    |
|--------------|----------|
| Entrypoint   | 0x0124   |
| Data Size    | 10 bytes |
| Instructions | 2        |

```
      00 01 02 03 04 05 06 07  08 09 0A 0B 0C 0D 0E 0F
      -- -- -- -- -- -- -- --  -- -- -- -- -- -- -- --
0120:             37 3E 80 3F  80 40 80 41 80 00            7>.?.@.A..  
```

#### Opcodes

```
  0: 0x0124 [0x37] UPDATE_EVENT_POSITION_AND_DIR: x=-217.367*, z=461.829*, y=97.264*, direction=200.3°*
  1: 0x012D [0x00] END_REQSTACK()
```

### Event 65535.18

#### Metadata

| Field        | Value    |
|--------------|----------|
| Entrypoint   | 0x012E   |
| Data Size    | 10 bytes |
| Instructions | 2        |

```
      00 01 02 03 04 05 06 07  08 09 0A 0B 0C 0D 0E 0F
      -- -- -- -- -- -- -- --  -- -- -- -- -- -- -- --
0120:                                            37 42                7B
0130: 80 43 80 44 80 45 80 00                           .C.D.E..        
```

#### Opcodes

```
  0: 0x012E [0x37] UPDATE_EVENT_POSITION_AND_DIR: x=-241.909*, z=333.156*, y=-12.056*, direction=55.5°*
  1: 0x0137 [0x00] END_REQSTACK()
```

### Event 65535.19

#### Metadata

| Field        | Value    |
|--------------|----------|
| Entrypoint   | 0x0138   |
| Data Size    | 10 bytes |
| Instructions | 2        |

```
      00 01 02 03 04 05 06 07  08 09 0A 0B 0C 0D 0E 0F
      -- -- -- -- -- -- -- --  -- -- -- -- -- -- -- --
0130:                          37 46 80 47 80 48 80 49          7F.G.H.I
0140: 80 00                                             ..              
```

#### Opcodes

```
  0: 0x0138 [0x37] UPDATE_EVENT_POSITION_AND_DIR: x=-355.293*, z=-102.990*, y=15.473*, direction=200.7°*
  1: 0x0141 [0x00] END_REQSTACK()
```

### Event 65535.20

#### Metadata

| Field        | Value    |
|--------------|----------|
| Entrypoint   | 0x0142   |
| Data Size    | 10 bytes |
| Instructions | 2        |

```
      00 01 02 03 04 05 06 07  08 09 0A 0B 0C 0D 0E 0F
      -- -- -- -- -- -- -- --  -- -- -- -- -- -- -- --
0140:       37 4A 80 4B 80 4C  80 4D 80 00                7J.K.L.M..    
```

#### Opcodes

```
  0: 0x0142 [0x37] UPDATE_EVENT_POSITION_AND_DIR: x=448.799*, z=-29.349*, y=-39.711*, direction=50.6°*
  1: 0x014B [0x00] END_REQSTACK()
```

### Event 65535.21

#### Metadata

| Field        | Value    |
|--------------|----------|
| Entrypoint   | 0x014C   |
| Data Size    | 10 bytes |
| Instructions | 2        |

```
      00 01 02 03 04 05 06 07  08 09 0A 0B 0C 0D 0E 0F
      -- -- -- -- -- -- -- --  -- -- -- -- -- -- -- --
0140:                                      37 4E 80 4F              7N.O
0150: 80 50 80 51 80 00                                 .P.Q..          
```

#### Opcodes

```
  0: 0x014C [0x37] UPDATE_EVENT_POSITION_AND_DIR: x=-17.660*, z=54.249*, y=-0.441*, direction=242.2°*
  1: 0x0155 [0x00] END_REQSTACK()
```

### Event 65535.22

#### Metadata

| Field        | Value    |
|--------------|----------|
| Entrypoint   | 0x0156   |
| Data Size    | 10 bytes |
| Instructions | 2        |

```
      00 01 02 03 04 05 06 07  08 09 0A 0B 0C 0D 0E 0F
      -- -- -- -- -- -- -- --  -- -- -- -- -- -- -- --
0150:                   37 52  80 53 80 54 80 55 80 00        7R.S.T.U..
```

#### Opcodes

```
  0: 0x0156 [0x37] UPDATE_EVENT_POSITION_AND_DIR: x=-19.140*, z=19.302*, y=40.617*, direction=82.2°*
  1: 0x015F [0x00] END_REQSTACK()
```

### Event 65535.23

#### Metadata

| Field        | Value    |
|--------------|----------|
| Entrypoint   | 0x0160   |
| Data Size    | 10 bytes |
| Instructions | 2        |

```
      00 01 02 03 04 05 06 07  08 09 0A 0B 0C 0D 0E 0F
      -- -- -- -- -- -- -- --  -- -- -- -- -- -- -- --
0160: 37 56 80 57 80 58 80 59  80 00                    7V.W.X.Y..      
```

#### Opcodes

```
  0: 0x0160 [0x37] UPDATE_EVENT_POSITION_AND_DIR: x=73.092*, z=-171.909*, y=3.999*, direction=90.2°*
  1: 0x0169 [0x00] END_REQSTACK()
```

### Event 65535.24

#### Metadata

| Field        | Value    |
|--------------|----------|
| Entrypoint   | 0x016A   |
| Data Size    | 10 bytes |
| Instructions | 2        |

```
      00 01 02 03 04 05 06 07  08 09 0A 0B 0C 0D 0E 0F
      -- -- -- -- -- -- -- --  -- -- -- -- -- -- -- --
0160:                                37 5A 80 5B 80 5C            7Z.[.\
0170: 80 5D 80 00                                       .]..            
```

#### Opcodes

```
  0: 0x016A [0x37] UPDATE_EVENT_POSITION_AND_DIR: x=-20.169*, z=31.299*, y=-9.998*, direction=299.1°*
  1: 0x0173 [0x00] END_REQSTACK()
```

### Event 65535.25

#### Metadata

| Field        | Value    |
|--------------|----------|
| Entrypoint   | 0x0174   |
| Data Size    | 10 bytes |
| Instructions | 2        |

```
      00 01 02 03 04 05 06 07  08 09 0A 0B 0C 0D 0E 0F
      -- -- -- -- -- -- -- --  -- -- -- -- -- -- -- --
0170:             37 5E 80 5F  80 60 80 61 80 00            7^._.`.a..  
```

#### Opcodes

```
  0: 0x0174 [0x37] UPDATE_EVENT_POSITION_AND_DIR: x=-14.240*, z=53.275*, y=-0.641*, direction=268.6°*
  1: 0x017D [0x00] END_REQSTACK()
```

### Event 65535.26

#### Metadata

| Field        | Value    |
|--------------|----------|
| Entrypoint   | 0x017E   |
| Data Size    | 10 bytes |
| Instructions | 2        |

```
      00 01 02 03 04 05 06 07  08 09 0A 0B 0C 0D 0E 0F
      -- -- -- -- -- -- -- --  -- -- -- -- -- -- -- --
0170:                                            37 62                7b
0180: 80 63 80 64 80 65 80 00                           .c.d.e..        
```

#### Opcodes

```
  0: 0x017E [0x37] UPDATE_EVENT_POSITION_AND_DIR: x=142.575*, z=-140.024*, y=-15.750*, direction=358.3°*
  1: 0x0187 [0x00] END_REQSTACK()
```

### Event 65535.27

#### Metadata

| Field        | Value    |
|--------------|----------|
| Entrypoint   | 0x0188   |
| Data Size    | 14 bytes |
| Instructions | 4        |

```
      00 01 02 03 04 05 06 07  08 09 0A 0B 0C 0D 0E 0F
      -- -- -- -- -- -- -- --  -- -- -- -- -- -- -- --
0180:                          32 66 80 1F 00 67 80 68          2f...g.h
0190: 80 69 80 1F 01 00                                 .i....          
```

#### Opcodes

```
  0: 0x0188 [0x32] ExtData[1]->MainSpeed = 40* * 0.1
  1: 0x018B [0x1F] MOVE_ENTITY: EventEntity moves to X=146.405*, Z=-139.959*, Y=-15.749*
  2: 0x0193 [0x1F] MOVE_ENTITY: Update entity position (mode=1)
  3: 0x0195 [0x00] END_REQSTACK()
```

### Event 65535.28

#### Metadata

| Field        | Value    |
|--------------|----------|
| Entrypoint   | 0x0196   |
| Data Size    | 14 bytes |
| Instructions | 4        |

```
      00 01 02 03 04 05 06 07  08 09 0A 0B 0C 0D 0E 0F
      -- -- -- -- -- -- -- --  -- -- -- -- -- -- -- --
0190:                   32 66  80 1F 00 6A 80 6B 80 64        2f...j.k.d
01A0: 80 1F 01 00                                       ....            
```

#### Opcodes

```
  0: 0x0196 [0x32] ExtData[1]->MainSpeed = 40* * 0.1
  1: 0x0199 [0x1F] MOVE_ENTITY: EventEntity moves to X=147.781*, Z=-139.589*, Y=-15.750*
  2: 0x01A1 [0x1F] MOVE_ENTITY: Update entity position (mode=1)
  3: 0x01A3 [0x00] END_REQSTACK()
```

### Event 65535.29

#### Metadata

| Field        | Value    |
|--------------|----------|
| Entrypoint   | 0x01A4   |
| Data Size    | 17 bytes |
| Instructions | 5        |

```
      00 01 02 03 04 05 06 07  08 09 0A 0B 0C 0D 0E 0F
      -- -- -- -- -- -- -- --  -- -- -- -- -- -- -- --
01A0:             1C 6C 80 32  21 80 1F 00 6D 80 6E 80      .l.2!...m.n.
01B0: 02 80 1F 01 00                                    .....           
```

#### Opcodes

```
  0: 0x01A4 [0x1C] WAIT(15* ticks)
  1: 0x01A7 [0x32] ExtData[1]->MainSpeed = 13* * 0.1
  2: 0x01AA [0x1F] MOVE_ENTITY: EventEntity moves to X=-151.642*, Z=-138.135*, Y=24.249*
  3: 0x01B2 [0x1F] MOVE_ENTITY: Update entity position (mode=1)
  4: 0x01B4 [0x00] END_REQSTACK()
```

### Event 65535.30

#### Metadata

| Field        | Value    |
|--------------|----------|
| Entrypoint   | 0x01B5   |
| Data Size    | 14 bytes |
| Instructions | 4        |

```
      00 01 02 03 04 05 06 07  08 09 0A 0B 0C 0D 0E 0F
      -- -- -- -- -- -- -- --  -- -- -- -- -- -- -- --
01B0:                32 21 80  1F 00 6F 80 70 80 69 80       2!...o.p.i.
01C0: 1F 01 00                                          ...             
```

#### Opcodes

```
  0: 0x01B5 [0x32] ExtData[1]->MainSpeed = 13* * 0.1
  1: 0x01B8 [0x1F] MOVE_ENTITY: EventEntity moves to X=148.471*, Z=-139.569*, Y=-15.749*
  2: 0x01C0 [0x1F] MOVE_ENTITY: Update entity position (mode=1)
  3: 0x01C2 [0x00] END_REQSTACK()
```

### Event 65535.31

#### Metadata

| Field        | Value    |
|--------------|----------|
| Entrypoint   | 0x01C3   |
| Data Size    | 10 bytes |
| Instructions | 2        |

```
      00 01 02 03 04 05 06 07  08 09 0A 0B 0C 0D 0E 0F
      -- -- -- -- -- -- -- --  -- -- -- -- -- -- -- --
01C0:          37 71 80 72 80  69 80 73 80 00              7q.r.i.s..   
```

#### Opcodes

```
  0: 0x01C3 [0x37] UPDATE_EVENT_POSITION_AND_DIR: x=183.763*, z=-140.385*, y=-15.749*, direction=348.3°*
  1: 0x01CC [0x00] END_REQSTACK()
```

### Event 65535.32

#### Metadata

| Field        | Value    |
|--------------|----------|
| Entrypoint   | 0x01CD   |
| Data Size    | 10 bytes |
| Instructions | 2        |

```
      00 01 02 03 04 05 06 07  08 09 0A 0B 0C 0D 0E 0F
      -- -- -- -- -- -- -- --  -- -- -- -- -- -- -- --
01C0:                                         37 74 80               7t.
01D0: 75 80 76 80 77 80 00                              u.v.w..         
```

#### Opcodes

```
  0: 0x01CD [0x37] UPDATE_EVENT_POSITION_AND_DIR: x=-23.350*, z=-141.279*, y=24.324*, direction=129.2°*
  1: 0x01D6 [0x00] END_REQSTACK()
```

### Event 65535.33

#### Metadata

| Field        | Value    |
|--------------|----------|
| Entrypoint   | 0x01D7   |
| Data Size    | 10 bytes |
| Instructions | 2        |

```
      00 01 02 03 04 05 06 07  08 09 0A 0B 0C 0D 0E 0F
      -- -- -- -- -- -- -- --  -- -- -- -- -- -- -- --
01D0:                      37  78 80 79 80 69 80 7A 80         7x.y.i.z.
01E0: 00                                                .               
```

#### Opcodes

```
  0: 0x01D7 [0x37] UPDATE_EVENT_POSITION_AND_DIR: x=143.776*, z=-140.012*, y=-15.749*, direction=0.1°*
  1: 0x01E0 [0x00] END_REQSTACK()
```

### Event 65535.34

#### Metadata

| Field        | Value    |
|--------------|----------|
| Entrypoint   | 0x01E1   |
| Data Size    | 10 bytes |
| Instructions | 2        |

```
      00 01 02 03 04 05 06 07  08 09 0A 0B 0C 0D 0E 0F
      -- -- -- -- -- -- -- --  -- -- -- -- -- -- -- --
01E0:    37 7B 80 7C 80 02 80  7D 80 00                  7{.|...}..     
```

#### Opcodes

```
  0: 0x01E1 [0x37] UPDATE_EVENT_POSITION_AND_DIR: x=-154.997*, z=-141.080*, y=24.249*, direction=171.6°*
  1: 0x01EA [0x00] END_REQSTACK()
```

### Event 65535.35

#### Metadata

| Field        | Value   |
|--------------|---------|
| Entrypoint   | 0x01EB  |
| Data Size    | 8 bytes |
| Instructions | 2       |

```
      00 01 02 03 04 05 06 07  08 09 0A 0B 0C 0D 0E 0F
      -- -- -- -- -- -- -- --  -- -- -- -- -- -- -- --
01E0:                                   36 7E 80 7F 80             6~...
01F0: 02 80 00                                          ...             
```

#### Opcodes

```
  0: 0x01EB [0x36] SET_ENTITY_EVENT_POSITION(pos_x=-157.305*, pos_z=-139.813*, pos_y=24.249*)
  1: 0x01F2 [0x00] END_REQSTACK()
```

### Event 65535.36

#### Metadata

| Field        | Value    |
|--------------|----------|
| Entrypoint   | 0x01F3   |
| Data Size    | 14 bytes |
| Instructions | 4        |

```
      00 01 02 03 04 05 06 07  08 09 0A 0B 0C 0D 0E 0F
      -- -- -- -- -- -- -- --  -- -- -- -- -- -- -- --
01F0:          32 21 80 1F 00  80 80 81 80 69 80 1F 01     2!.......i...
0200: 00                                                .               
```

#### Opcodes

```
  0: 0x01F3 [0x32] ExtData[1]->MainSpeed = 13* * 0.1
  1: 0x01F6 [0x1F] MOVE_ENTITY: EventEntity moves to X=148.850*, Z=-140.857*, Y=-15.749*
  2: 0x01FE [0x1F] MOVE_ENTITY: Update entity position (mode=1)
  3: 0x0200 [0x00] END_REQSTACK()
```

### Event 65535.37

#### Metadata

| Field        | Value    |
|--------------|----------|
| Entrypoint   | 0x0201   |
| Data Size    | 23 bytes |
| Instructions | 3        |

```
      00 01 02 03 04 05 06 07  08 09 0A 0B 0C 0D 0E 0F
      -- -- -- -- -- -- -- --  -- -- -- -- -- -- -- --
0200:    37 82 80 83 80 02 80  84 80 2C F0 FF FF 7F F0   7........,.....
0210: FF FF 7F 64 65 61 64 00                           ...dead.        
```

#### Opcodes

```
  0: 0x0201 [0x37] UPDATE_EVENT_POSITION_AND_DIR: x=-160.037*, z=-142.423*, y=24.249*, direction=182.7°*
  1: 0x020A [0x2C] CREATE_SCHEDULER_TASK: Create scheduler "dead" with entities [LocalPlayer, LocalPlayer]
  2: 0x0217 [0x00] END_REQSTACK()
```

### Event 65535.38

#### Metadata

| Field        | Value    |
|--------------|----------|
| Entrypoint   | 0x0218   |
| Data Size    | 44 bytes |
| Instructions | 10       |

```
      00 01 02 03 04 05 06 07  08 09 0A 0B 0C 0D 0E 0F
      -- -- -- -- -- -- -- --  -- -- -- -- -- -- -- --
0210:                          37 85 80 86 80 64 80 87          7....d..
0220: 80 1C 6C 80 32 21 80 1F  00 88 80 89 80 69 80 1F  ..l.2!.......i..
0230: 01 27 10 D9 71 09 01 01  1F 00 8A 80 8B 80 69 80  .'..q.........i.
0240: 1F 01 6F 00                                       ..o.            
```

#### Opcodes

```
  0: 0x0218 [0x37] UPDATE_EVENT_POSITION_AND_DIR: x=147.518*, z=-139.568*, y=-15.750*, direction=182.2°*
  1: 0x0221 [0x1C] WAIT(15* ticks)
  2: 0x0224 [0x32] ExtData[1]->MainSpeed = 13* * 0.1
  3: 0x0227 [0x1F] MOVE_ENTITY: EventEntity moves to X=144.009*, Z=-139.881*, Y=-15.749*
  4: 0x022F [0x1F] MOVE_ENTITY: Update entity position (mode=1)
  5: 0x0231 [0x27] REQ_SET(priority=0x10, entity_id=Brass Door (ID: 17396185/0x010971D9), tag_num=0x01)
  6: 0x0238 [0x1F] MOVE_ENTITY: EventEntity moves to X=143.111*, Z=-140.066*, Y=-15.749*
  7: 0x0240 [0x1F] MOVE_ENTITY: Update entity position (mode=1)
  8: 0x0242 [0x6F] WAIT_FRAME_DELAY: Yield until WaitTime reaches zero
  9: 0x0243 [0x00] END_REQSTACK()
```

### Event 65535.39

#### Metadata

| Field        | Value    |
|--------------|----------|
| Entrypoint   | 0x0244   |
| Data Size    | 31 bytes |
| Instructions | 7        |

```
      00 01 02 03 04 05 06 07  08 09 0A 0B 0C 0D 0E 0F
      -- -- -- -- -- -- -- --  -- -- -- -- -- -- -- --
0240:             4B F0 FF FF  7F 8C 80 1C 8D 80 4B F0      K.........K.
0250: FF FF 7F 8E 80 1C 8D 80  4B F0 FF FF 7F 8C 80 1C  ........K.......
0260: 8D 80 00                                          ...             
```

#### Opcodes

```
  0: 0x0244 [0x4B] UPDATE_ENTITY_YAW(entity=LocalPlayer, yaw=14.9°*)
  1: 0x024B [0x1C] WAIT(30* ticks)
  2: 0x024E [0x4B] UPDATE_ENTITY_YAW(entity=LocalPlayer, yaw=7.3°*)
  3: 0x0255 [0x1C] WAIT(30* ticks)
  4: 0x0258 [0x4B] UPDATE_ENTITY_YAW(entity=LocalPlayer, yaw=14.9°*)
  5: 0x025F [0x1C] WAIT(30* ticks)
  6: 0x0262 [0x00] END_REQSTACK()
```

### Event 65535.40

#### Metadata

| Field        | Value    |
|--------------|----------|
| Entrypoint   | 0x0263   |
| Data Size    | 40 bytes |
| Instructions | 7        |

```
      00 01 02 03 04 05 06 07  08 09 0A 0B 0C 0D 0E 0F
      -- -- -- -- -- -- -- --  -- -- -- -- -- -- -- --
0260:          79 00 F0 FF FF  7F 1B 72 09 01 1C 8F 80     y......r.....
0270: 79 00 F0 FF FF 7F 1C 72  09 01 1C 8F 80 79 00 F0  y......r.....y..
0280: FF FF 7F 1B 72 09 01 1C  8F 80 00                 ....r......     
```

#### Opcodes

```
  0: 0x0263 [0x79] LocalPlayer looks at Unnamed NPC (ID: 17396251/0x0109721B) (Basic look)
  1: 0x026D [0x1C] WAIT(45* ticks)
  2: 0x0270 [0x79] LocalPlayer looks at Unnamed NPC (ID: 17396252/0x0109721C) (Basic look)
  3: 0x027A [0x1C] WAIT(45* ticks)
  4: 0x027D [0x79] LocalPlayer looks at Unnamed NPC (ID: 17396251/0x0109721B) (Basic look)
  5: 0x0287 [0x1C] WAIT(45* ticks)
  6: 0x028A [0x00] END_REQSTACK()
```

### Event 65535.41

#### Metadata

| Field        | Value    |
|--------------|----------|
| Entrypoint   | 0x028B   |
| Data Size    | 50 bytes |
| Instructions | 8        |

```
      00 01 02 03 04 05 06 07  08 09 0A 0B 0C 0D 0E 0F
      -- -- -- -- -- -- -- --  -- -- -- -- -- -- -- --
0280:                                   79 00 F0 FF FF             y....
0290: 7F 1C 72 09 01 1C 8F 80  79 00 F0 FF FF 7F 1B 72  ..r.....y......r
02A0: 09 01 1C 8F 80 79 00 F0  FF FF 7F 1C 72 09 01 1C  .....y......r...
02B0: 8F 80 79 00 F0 FF FF 7F  1B 72 09 01 00           ..y......r...   
```

#### Opcodes

```
  0: 0x028B [0x79] LocalPlayer looks at Unnamed NPC (ID: 17396252/0x0109721C) (Basic look)
  1: 0x0295 [0x1C] WAIT(45* ticks)
  2: 0x0298 [0x79] LocalPlayer looks at Unnamed NPC (ID: 17396251/0x0109721B) (Basic look)
  3: 0x02A2 [0x1C] WAIT(45* ticks)
  4: 0x02A5 [0x79] LocalPlayer looks at Unnamed NPC (ID: 17396252/0x0109721C) (Basic look)
  5: 0x02AF [0x1C] WAIT(45* ticks)
  6: 0x02B2 [0x79] LocalPlayer looks at Unnamed NPC (ID: 17396251/0x0109721B) (Basic look)
  7: 0x02BC [0x00] END_REQSTACK()
```

### Event 65535.42

#### Metadata

| Field        | Value   |
|--------------|---------|
| Entrypoint   | 0x02BD  |
| Data Size    | 8 bytes |
| Instructions | 2       |

```
      00 01 02 03 04 05 06 07  08 09 0A 0B 0C 0D 0E 0F
      -- -- -- -- -- -- -- --  -- -- -- -- -- -- -- --
02B0:                                         36 90 80               6..
02C0: 91 80 64 80 00                                    ..d..           
```

#### Opcodes

```
  0: 0x02BD [0x36] SET_ENTITY_EVENT_POSITION(pos_x=140.213*, pos_z=-139.958*, pos_y=-15.750*)
  1: 0x02C4 [0x00] END_REQSTACK()
```

### Event 65535.43

#### Metadata

| Field        | Value    |
|--------------|----------|
| Entrypoint   | 0x02C5   |
| Data Size    | 25 bytes |
| Instructions | 6        |

```
      00 01 02 03 04 05 06 07  08 09 0A 0B 0C 0D 0E 0F
      -- -- -- -- -- -- -- --  -- -- -- -- -- -- -- --
02C0:                79 00 F0  FF FF 7F 19 72 09 01 1C       y......r...
02D0: 92 80 4A F0 FF FF 7F 19  72 09 01 6F 70 00        ..J.....r..op.  
```

#### Opcodes

```
  0: 0x02C5 [0x79] LocalPlayer looks at Unnamed NPC (ID: 17396249/0x01097219) (Basic look)
  1: 0x02CF [0x1C] WAIT(180* ticks)
  2: 0x02D2 [0x4A] LocalPlayer looks at Unnamed NPC (ID: 17396249/0x01097219)
  3: 0x02DB [0x6F] WAIT_FRAME_DELAY: Yield until WaitTime reaches zero
  4: 0x02DC [0x70] WAIT_ENTITY_RENDER_FLAG: Wait while EventEntity->Render.Flags3 bit 2 is set (cancel turn if not)
  5: 0x02DD [0x00] END_REQSTACK()
```

### Event 65535.44

#### Metadata

| Field        | Value    |
|--------------|----------|
| Entrypoint   | 0x02DE   |
| Data Size    | 10 bytes |
| Instructions | 2        |

```
      00 01 02 03 04 05 06 07  08 09 0A 0B 0C 0D 0E 0F
      -- -- -- -- -- -- -- --  -- -- -- -- -- -- -- --
02D0:                                            37 62                7b
02E0: 80 63 80 64 80 65 80 00                           .c.d.e..        
```

#### Opcodes

```
  0: 0x02DE [0x37] UPDATE_EVENT_POSITION_AND_DIR: x=142.575*, z=-140.024*, y=-15.750*, direction=358.3°*
  1: 0x02E7 [0x00] END_REQSTACK()
```

### Event 65535.45

#### Metadata

| Field        | Value    |
|--------------|----------|
| Entrypoint   | 0x02E8   |
| Data Size    | 10 bytes |
| Instructions | 2        |

```
      00 01 02 03 04 05 06 07  08 09 0A 0B 0C 0D 0E 0F
      -- -- -- -- -- -- -- --  -- -- -- -- -- -- -- --
02E0:                          37 93 80 94 80 64 80 95          7....d..
02F0: 80 00                                             ..              
```

#### Opcodes

```
  0: 0x02E8 [0x37] UPDATE_EVENT_POSITION_AND_DIR: x=147.020*, z=-140.001*, y=-15.750*, direction=179.7°*
  1: 0x02F1 [0x00] END_REQSTACK()
```

### Event 65535.46

#### Metadata

| Field        | Value    |
|--------------|----------|
| Entrypoint   | 0x02F2   |
| Data Size    | 32 bytes |
| Instructions | 8        |

```
      00 01 02 03 04 05 06 07  08 09 0A 0B 0C 0D 0E 0F
      -- -- -- -- -- -- -- --  -- -- -- -- -- -- -- --
02F0:       32 21 80 1F 00 96  80 97 80 64 80 1F 01 27    2!.......d...'
0300: 10 D9 71 09 01 01 1F 00  98 80 99 80 64 80 1F 01  ..q.........d...
0310: 6F 00                                             o.              
```

#### Opcodes

```
  0: 0x02F2 [0x32] ExtData[1]->MainSpeed = 13* * 0.1
  1: 0x02F5 [0x1F] MOVE_ENTITY: EventEntity moves to X=145.817*, Z=-140.025*, Y=-15.750*
  2: 0x02FD [0x1F] MOVE_ENTITY: Update entity position (mode=1)
  3: 0x02FF [0x27] REQ_SET(priority=0x10, entity_id=Brass Door (ID: 17396185/0x010971D9), tag_num=0x01)
  4: 0x0306 [0x1F] MOVE_ENTITY: EventEntity moves to X=148.255*, Z=-139.815*, Y=-15.750*
  5: 0x030E [0x1F] MOVE_ENTITY: Update entity position (mode=1)
  6: 0x0310 [0x6F] WAIT_FRAME_DELAY: Yield until WaitTime reaches zero
  7: 0x0311 [0x00] END_REQSTACK()
```

### Event 65535.47

#### Metadata

| Field        | Value    |
|--------------|----------|
| Entrypoint   | 0x0312   |
| Data Size    | 32 bytes |
| Instructions | 8        |

```
      00 01 02 03 04 05 06 07  08 09 0A 0B 0C 0D 0E 0F
      -- -- -- -- -- -- -- --  -- -- -- -- -- -- -- --
0310:       32 21 80 1F 00 9A  80 9B 80 64 80 1F 01 27    2!.......d...'
0320: 10 D9 71 09 01 01 1F 00  9C 80 9D 80 64 80 1F 01  ..q.........d...
0330: 6F 00                                             o.              
```

#### Opcodes

```
  0: 0x0312 [0x32] ExtData[1]->MainSpeed = 13* * 0.1
  1: 0x0315 [0x1F] MOVE_ENTITY: EventEntity moves to X=144.064*, Z=-140.078*, Y=-15.750*
  2: 0x031D [0x1F] MOVE_ENTITY: Update entity position (mode=1)
  3: 0x031F [0x27] REQ_SET(priority=0x10, entity_id=Brass Door (ID: 17396185/0x010971D9), tag_num=0x01)
  4: 0x0326 [0x1F] MOVE_ENTITY: EventEntity moves to X=142.267*, Z=-140.123*, Y=-15.750*
  5: 0x032E [0x1F] MOVE_ENTITY: Update entity position (mode=1)
  6: 0x0330 [0x6F] WAIT_FRAME_DELAY: Yield until WaitTime reaches zero
  7: 0x0331 [0x00] END_REQSTACK()
```

### Event 65535.48

#### Metadata

| Field        | Value    |
|--------------|----------|
| Entrypoint   | 0x0332   |
| Data Size    | 37 bytes |
| Instructions | 5        |

```
      00 01 02 03 04 05 06 07  08 09 0A 0B 0C 0D 0E 0F
      -- -- -- -- -- -- -- --  -- -- -- -- -- -- -- --
0330:       03 04 00 07 7F 1A  7C 03 66 05 00 F8 FF FF    ......|.f.....
0340: 7F F8 FF FF 7F 73 68 61  30 53 F8 FF FF 7F F8 FF  .....sha0S......
0350: FF 7F 73 68 61 30 00                              ..sha0.         
```

#### Opcodes

```
  0: 0x0332 [0x03] ExtData[1]->WorkLocal[4] = Entity->Race
  1: 0x0337 [0x1A] CALL_SUBROUTINE(address=0x037C)
  2: 0x033A [0x66] LOAD_EXT_SCHEDULER_MAIN: Load scheduler "sha0" with entities [EventEntity, EventEntity], work=ExtData[1]->WorkLocal[5]
  3: 0x0349 [0x53] WAIT_SCHEDULER_TASK: Wait for scheduler "sha0" with entities [EventEntity, EventEntity]
  4: 0x0356 [0x00] END_REQSTACK()
```

### Event 65535.49

#### Metadata

| Field        | Value     |
|--------------|-----------|
| Entrypoint   | 0x0357    |
| Data Size    | 185 bytes |
| Instructions | 13        |

```
      00 01 02 03 04 05 06 07  08 09 0A 0B 0C 0D 0E 0F
      -- -- -- -- -- -- -- --  -- -- -- -- -- -- -- --
0350:                      03  04 00 07 7F 1A 7C 03 66         ......|.f
0360: 05 00 F8 FF FF 7F F8 FF  FF 7F 73 68 61 31 53 F8  ..........sha1S.
0370: FF FF 7F F8 FF FF 7F 73  68 61 31 00 03 05 00 04  .......sha1.....
0380: 00 02 05 00 9E 80 05 91  03 08 05 00 7A 80 01 96  ............z...
0390: 03 08 05 00 9F 80 14 05  00 3A 80 07 05 00 A0 80  .........:......
03A0: 1B 03 05 00 04 00 02 05  00 9E 80 05 B6 03 08 05  ................
03B0: 00 7A 80 01 BB 03 08 05  00 9F 80 14 05 00 3A 80  .z............:.
03C0: 07 05 00 A1 80 1B 03 05  00 04 00 02 05 00 9E 80  ................
03D0: 05 DB 03 08 05 00 7A 80  01 E0 03 08 05 00 9F 80  ......z.........
03E0: 14 05 00 3A 80 07 05 00  A2 80 1B 03 05 00 04 00  ...:............
03F0: 02 05 00 9E 80 05 00 04  08 05 00 7A 80 01 05 04  ...........z....
0400: 08 05 00 9F 80 14 05 00  3A 80 07 05 00 A3 80 1B  ........:.......
```

#### Opcodes

```
  0: 0x0357 [0x03] ExtData[1]->WorkLocal[4] = Entity->Race
  1: 0x035C [0x1A] CALL_SUBROUTINE(address=0x037C)
  2: 0x035F [0x66] LOAD_EXT_SCHEDULER_MAIN: Load scheduler "sha1" with entities [EventEntity, EventEntity], work=ExtData[1]->WorkLocal[5]
  3: 0x036E [0x53] WAIT_SCHEDULER_TASK: Wait for scheduler "sha1" with entities [EventEntity, EventEntity]
  4: 0x037B [0x00] END_REQSTACK()

SUBROUTINE_037C:
  5: 0x037C [0x03] ExtData[1]->WorkLocal[5] = ExtData[1]->WorkLocal[4]
  6: 0x0381 [0x02] IF !(ExtData[1]->WorkLocal[5] > 5*) GOTO 0x0391
  7: 0x0389 [0x08] ExtData[1]->WorkLocal[5] -= 1*
  8: 0x038E [0x01] GOTO 0x0396
  9: 0x0391 [0x08] ExtData[1]->WorkLocal[5] -= 2*

SUBROUTINE_0396:
 10: 0x0396 [0x14] ExtData[1]->WorkLocal[5] *= 10*
 11: 0x039B [0x07] ExtData[1]->WorkLocal[5] += 9*
 12: 0x03A0 [0x1B] RETURN
```

#### Data or dead code:

```
# Dead code (unreachable instructions):
     0x03A1 [0x03] ExtData[1]->WorkLocal[5] = ExtData[1]->WorkLocal[4]
     0x03A6 [0x02] IF !(ExtData[1]->WorkLocal[5] > 5*) GOTO 0x03B6
     0x03AE [0x08] ExtData[1]->WorkLocal[5] -= 1*
     0x03B3 [0x01] GOTO 0x03BB
     0x03B6 [0x08] ExtData[1]->WorkLocal[5] -= 2*
     0x03BB [0x14] ExtData[1]->WorkLocal[5] *= 10*
     0x03C0 [0x07] ExtData[1]->WorkLocal[5] += 70*
     0x03C5 [0x1B] RETURN
     0x03C6 [0x03] ExtData[1]->WorkLocal[5] = ExtData[1]->WorkLocal[4]
     0x03CB [0x02] IF !(ExtData[1]->WorkLocal[5] > 5*) GOTO 0x03DB
     0x03D3 [0x08] ExtData[1]->WorkLocal[5] -= 1*
     0x03D8 [0x01] GOTO 0x03E0
     0x03DB [0x08] ExtData[1]->WorkLocal[5] -= 2*
     0x03E0 [0x14] ExtData[1]->WorkLocal[5] *= 10*
     0x03E5 [0x07] ExtData[1]->WorkLocal[5] += 140*
     0x03EA [0x1B] RETURN
     0x03EB [0x03] ExtData[1]->WorkLocal[5] = ExtData[1]->WorkLocal[4]
     0x03F0 [0x02] IF !(ExtData[1]->WorkLocal[5] > 5*) GOTO 0x0400
     0x03F8 [0x08] ExtData[1]->WorkLocal[5] -= 1*
     0x03FD [0x01] GOTO 0x0405
     0x0400 [0x08] ExtData[1]->WorkLocal[5] -= 2*
     0x0405 [0x14] ExtData[1]->WorkLocal[5] *= 10*
     0x040A [0x07] ExtData[1]->WorkLocal[5] += 210*
     0x040F [0x1B] RETURN
```

### Event 65535.50

#### Metadata

| Field        | Value    |
|--------------|----------|
| Entrypoint   | 0x0410   |
| Data Size    | 10 bytes |
| Instructions | 2        |

```
      00 01 02 03 04 05 06 07  08 09 0A 0B 0C 0D 0E 0F
      -- -- -- -- -- -- -- --  -- -- -- -- -- -- -- --
0410: 37 A4 80 A5 80 69 80 A6  80 00                    7....i....      
```

#### Opcodes

```
  0: 0x0410 [0x37] UPDATE_EVENT_POSITION_AND_DIR: x=181.562*, z=-141.845*, y=-15.749*, direction=328.5°*
  1: 0x0419 [0x00] END_REQSTACK()
```

### Event 65535.51

#### Metadata

| Field        | Value    |
|--------------|----------|
| Entrypoint   | 0x041A   |
| Data Size    | 37 bytes |
| Instructions | 5        |

```
      00 01 02 03 04 05 06 07  08 09 0A 0B 0C 0D 0E 0F
      -- -- -- -- -- -- -- --  -- -- -- -- -- -- -- --
0410:                                03 04 00 07 7F 1A            ......
0420: 7C 03 66 05 00 F8 FF FF  7F F8 FF FF 7F 74 68 6B  |.f..........thk
0430: 31 53 F8 FF FF 7F F8 FF  FF 7F 74 68 6B 31 00     1S........thk1. 
```

#### Opcodes

```
  0: 0x041A [0x03] ExtData[1]->WorkLocal[4] = Entity->Race
  1: 0x041F [0x1A] CALL_SUBROUTINE(address=0x037C)
  2: 0x0422 [0x66] LOAD_EXT_SCHEDULER_MAIN: Load scheduler "thk1" with entities [EventEntity, EventEntity], work=ExtData[1]->WorkLocal[5]
  3: 0x0431 [0x53] WAIT_SCHEDULER_TASK: Wait for scheduler "thk1" with entities [EventEntity, EventEntity]
  4: 0x043E [0x00] END_REQSTACK()
```

### Event 65535.52

#### Metadata

| Field        | Value    |
|--------------|----------|
| Entrypoint   | 0x043F   |
| Data Size    | 37 bytes |
| Instructions | 5        |

```
      00 01 02 03 04 05 06 07  08 09 0A 0B 0C 0D 0E 0F
      -- -- -- -- -- -- -- --  -- -- -- -- -- -- -- --
0430:                                               03                 .
0440: 04 00 07 7F 1A 7C 03 66  05 00 F8 FF FF 7F F8 FF  .....|.f........
0450: FF 7F 74 68 6B 32 53 F8  FF FF 7F F8 FF FF 7F 74  ..thk2S........t
0460: 68 6B 32 00                                       hk2.            
```

#### Opcodes

```
  0: 0x043F [0x03] ExtData[1]->WorkLocal[4] = Entity->Race
  1: 0x0444 [0x1A] CALL_SUBROUTINE(address=0x037C)
  2: 0x0447 [0x66] LOAD_EXT_SCHEDULER_MAIN: Load scheduler "thk2" with entities [EventEntity, EventEntity], work=ExtData[1]->WorkLocal[5]
  3: 0x0456 [0x53] WAIT_SCHEDULER_TASK: Wait for scheduler "thk2" with entities [EventEntity, EventEntity]
  4: 0x0463 [0x00] END_REQSTACK()
```

### Event 65535.53

#### Metadata

| Field        | Value    |
|--------------|----------|
| Entrypoint   | 0x0464   |
| Data Size    | 37 bytes |
| Instructions | 5        |

```
      00 01 02 03 04 05 06 07  08 09 0A 0B 0C 0D 0E 0F
      -- -- -- -- -- -- -- --  -- -- -- -- -- -- -- --
0460:             03 04 00 07  7F 1A 7C 03 66 05 00 F8      ......|.f...
0470: FF FF 7F F8 FF FF 7F 74  6C 6B 30 53 F8 FF FF 7F  .......tlk0S....
0480: F8 FF FF 7F 74 6C 6B 30  00                       ....tlk0.       
```

#### Opcodes

```
  0: 0x0464 [0x03] ExtData[1]->WorkLocal[4] = Entity->Race
  1: 0x0469 [0x1A] CALL_SUBROUTINE(address=0x037C)
  2: 0x046C [0x66] LOAD_EXT_SCHEDULER_MAIN: Load scheduler "tlk0" with entities [EventEntity, EventEntity], work=ExtData[1]->WorkLocal[5]
  3: 0x047B [0x53] WAIT_SCHEDULER_TASK: Wait for scheduler "tlk0" with entities [EventEntity, EventEntity]
  4: 0x0488 [0x00] END_REQSTACK()
```

### Event 65535.54

#### Metadata

| Field        | Value    |
|--------------|----------|
| Entrypoint   | 0x0489   |
| Data Size    | 37 bytes |
| Instructions | 5        |

```
      00 01 02 03 04 05 06 07  08 09 0A 0B 0C 0D 0E 0F
      -- -- -- -- -- -- -- --  -- -- -- -- -- -- -- --
0480:                             03 04 00 07 7F 1A 7C           ......|
0490: 03 66 05 00 F8 FF FF 7F  F8 FF FF 7F 74 6C 6B 31  .f..........tlk1
04A0: 53 F8 FF FF 7F F8 FF FF  7F 74 6C 6B 31 00        S........tlk1.  
```

#### Opcodes

```
  0: 0x0489 [0x03] ExtData[1]->WorkLocal[4] = Entity->Race
  1: 0x048E [0x1A] CALL_SUBROUTINE(address=0x037C)
  2: 0x0491 [0x66] LOAD_EXT_SCHEDULER_MAIN: Load scheduler "tlk1" with entities [EventEntity, EventEntity], work=ExtData[1]->WorkLocal[5]
  3: 0x04A0 [0x53] WAIT_SCHEDULER_TASK: Wait for scheduler "tlk1" with entities [EventEntity, EventEntity]
  4: 0x04AD [0x00] END_REQSTACK()
```

### Event 65535.55

#### Metadata

| Field        | Value    |
|--------------|----------|
| Entrypoint   | 0x04AE   |
| Data Size    | 10 bytes |
| Instructions | 2        |

```
      00 01 02 03 04 05 06 07  08 09 0A 0B 0C 0D 0E 0F
      -- -- -- -- -- -- -- --  -- -- -- -- -- -- -- --
04A0:                                            37 A7                7.
04B0: 80 A8 80 69 80 A9 80 00                           ...i....        
```

#### Opcodes

```
  0: 0x04AE [0x37] UPDATE_EVENT_POSITION_AND_DIR: x=179.467*, z=-141.267*, y=-15.749*, direction=334.2°*
  1: 0x04B7 [0x00] END_REQSTACK()
```
