# Event 783

## Metadata

| Field           | Value    |
|-----------------|----------|
| Event Index     | 127/151  |
| Offset          | 0x1509   |
| Data Size       | 43 bytes |
| Calculated Size | 43 bytes |
| Instructions    | 12       |

```
      00 01 02 03 04 05 06 07  08 09 0A 0B 0C 0D 0E 0F
      -- -- -- -- -- -- -- --  -- -- -- -- -- -- -- --
1500:                             1E F0 FF FF 7F 6F 70           .....op
1510: 29 08 5C E0 0E 01 18 1D  6B 80 23 29 08 5C E0 0E  ).\.....k.#).\..
1520: 01 18 29 08 5C E0 0E 01  1A 29 08 5C E0 0E 01 1B  ..).\....).\....
1530: 20 00 21 00                                        .!.            
```

## Opcodes

```
  0: 0x1509 [0x1E] EventEntity looks at LocalPlayer and starts talking
  1: 0x150E [0x6F] WAIT_FRAME_DELAY: Yield until WaitTime reaches zero
  2: 0x150F [0x70] WAIT_ENTITY_RENDER_FLAG: Wait while EventEntity->Render.Flags3 bit 2 is set (cancel turn if not)
  3: 0x1510 [0x29] REQ_SET_WAIT(priority=0x08, entity_id=Honoi-Gomoi (ID: 17752156/0x010EE05C), tag_num=0x18)
  4: 0x1517 [0x1D] PRINT_EVENT_MESSAGE(message_id=9876*)
    → "This conversation is over.\u0007Go live with your S.O.B. friends in your happy little fantasy world. That's more your level.\u007F1\u0000\u0007"
  5: 0x151A [0x23] WAIT_FOR_DIALOG_INTERACTION
  6: 0x151B [0x29] REQ_SET_WAIT(priority=0x08, entity_id=Honoi-Gomoi (ID: 17752156/0x010EE05C), tag_num=0x18)
  7: 0x1522 [0x29] REQ_SET_WAIT(priority=0x08, entity_id=Honoi-Gomoi (ID: 17752156/0x010EE05C), tag_num=0x1A)
  8: 0x1529 [0x29] REQ_SET_WAIT(priority=0x08, entity_id=Honoi-Gomoi (ID: 17752156/0x010EE05C), tag_num=0x1B)
  9: 0x1530 [0x20] SET_CLI_EVENT_UC_FLAG: Unlock player control
 10: 0x1532 [0x21] END_EVENT
 11: 0x1533 [0x00] END_REQSTACK()
```
