# Event 879

## Metadata

| Field           | Value    |
|-----------------|----------|
| Event Index     | 135/151  |
| Offset          | 0x15B9   |
| Data Size       | 29 bytes |
| Calculated Size | 29 bytes |
| Instructions    | 10       |

```
      00 01 02 03 04 05 06 07  08 09 0A 0B 0C 0D 0E 0F
      -- -- -- -- -- -- -- --  -- -- -- -- -- -- -- --
15B0:                             1E F0 FF FF 7F 6F 70           .....op
15C0: 29 08 5C E0 0E 01 1E 1D  77 80 23 29 08 5C E0 0E  ).\.....w.#).\..
15D0: 01 1F 20 00 21 00                                 .. .!.          
```

## Opcodes

```
  0: 0x15B9 [0x1E] EventEntity looks at LocalPlayer and starts talking
  1: 0x15BE [0x6F] WAIT_FRAME_DELAY: Yield until WaitTime reaches zero
  2: 0x15BF [0x70] WAIT_ENTITY_RENDER_FLAG: Wait while EventEntity->Render.Flags3 bit 2 is set (cancel turn if not)
  3: 0x15C0 [0x29] REQ_SET_WAIT(priority=0x08, entity_id=Honoi-Gomoi (ID: 17752156/0x010EE05C), tag_num=0x1E)
  4: 0x15C7 [0x1D] PRINT_EVENT_MESSAGE(message_id=10538*)
    → "Take that \u0001\u00053\u0002\u0001\u0000\u0000 to Yoran-Oran. He should be able to fix it!\u007F1\u0000\u0007"
  5: 0x15CA [0x23] WAIT_FOR_DIALOG_INTERACTION
  6: 0x15CB [0x29] REQ_SET_WAIT(priority=0x08, entity_id=Honoi-Gomoi (ID: 17752156/0x010EE05C), tag_num=0x1F)
  7: 0x15D2 [0x20] SET_CLI_EVENT_UC_FLAG: Unlock player control
  8: 0x15D4 [0x21] END_EVENT
  9: 0x15D5 [0x00] END_REQSTACK()
```
