# Event 880

## Metadata

| Field           | Value    |
|-----------------|----------|
| Event Index     | 136/151  |
| Offset          | 0x15D6   |
| Data Size       | 33 bytes |
| Calculated Size | 33 bytes |
| Instructions    | 12       |

```
      00 01 02 03 04 05 06 07  08 09 0A 0B 0C 0D 0E 0F
      -- -- -- -- -- -- -- --  -- -- -- -- -- -- -- --
15D0:                   1E F0  FF FF 7F 6F 70 1D 78 80        .....op.x.
15E0: 23 29 08 5C E0 0E 01 2D  1D 79 80 23 29 08 5C E0  #).\...-.y.#).\.
15F0: 0E 01 2E 20 00 21 00                              ... .!.         
```

## Opcodes

```
  0: 0x15D6 [0x1E] EventEntity looks at LocalPlayer and starts talking
  1: 0x15DB [0x6F] WAIT_FRAME_DELAY: Yield until WaitTime reaches zero
  2: 0x15DC [0x70] WAIT_ENTITY_RENDER_FLAG: Wait while EventEntity->Render.Flags3 bit 2 is set (cancel turn if not)
  3: 0x15DD [0x1D] PRINT_EVENT_MESSAGE(message_id=10539*)
    → "I can use that mirror to show people my memories of Tavnazia...?\u007F1\u0000\u0007"
  4: 0x15E0 [0x23] WAIT_FOR_DIALOG_INTERACTION
  5: 0x15E1 [0x29] REQ_SET_WAIT(priority=0x08, entity_id=Honoi-Gomoi (ID: 17752156/0x010EE05C), tag_num=0x2D)
  6: 0x15E8 [0x1D] PRINT_EVENT_MESSAGE(message_id=10540*)
    → "That...that's impossible!\u0007Now give it back! Give me back my mirror!\u007F1\u0000\u0007"
  7: 0x15EB [0x23] WAIT_FOR_DIALOG_INTERACTION
  8: 0x15EC [0x29] REQ_SET_WAIT(priority=0x08, entity_id=Honoi-Gomoi (ID: 17752156/0x010EE05C), tag_num=0x2E)
  9: 0x15F3 [0x20] SET_CLI_EVENT_UC_FLAG: Unlock player control
 10: 0x15F5 [0x21] END_EVENT
 11: 0x15F6 [0x00] END_REQSTACK()
```
