# Event 65535

## Metadata

| Field           | Value    |
|-----------------|----------|
| Event Index     | 22/25    |
| Offset          | 0x00E3   |
| Data Size       | 42 bytes |
| Calculated Size | 42 bytes |
| Instructions    | 9        |

```
      00 01 02 03 04 05 06 07  08 09 0A 0B 0C 0D 0E 0F
      -- -- -- -- -- -- -- --  -- -- -- -- -- -- -- --
00E0:          59 04 A5 72 05  01 12 80 1F 00 1A 80 1B     Y..r.........
00F0: 80 1C 80 1F 01 1F 00 1D  80 1E 80 1C 80 1F 01 4B  ...............K
0100: A5 72 05 01 00 80 6F 76  A5 72 05 01 00           .r....ov.r...   
```

## Opcodes

```
  0: 0x00E3 [0x59] UPDATE_ENTITY_DATA: Set Lilisette (ID: 17134245/0x010572A5) main speed = 13* * 0.1
  1: 0x00EB [0x1F] MOVE_ENTITY: EventEntity moves to X=84.284*, Z=0.968*, Y=-19.532*
  2: 0x00F3 [0x1F] MOVE_ENTITY: Update entity position (mode=1)
  3: 0x00F5 [0x1F] MOVE_ENTITY: EventEntity moves to X=89.887*, Z=1.133*, Y=-19.532*
  4: 0x00FD [0x1F] MOVE_ENTITY: Update entity position (mode=1)
  5: 0x00FF [0x4B] UPDATE_ENTITY_YAW(entity=Lilisette (ID: 17134245/0x010572A5), yaw=0.0°*)
  6: 0x0106 [0x6F] WAIT_FRAME_DELAY: Yield until WaitTime reaches zero
  7: 0x0107 [0x76] CHECK_ENTITY_RENDER_FLAGS: Wait until Lilisette (ID: 17134245/0x010572A5) Render.Flags0 and Render.Flags3 conditions are met
  8: 0x010C [0x00] END_REQSTACK()
```
