# 17490303

## Common Data

| Field            | Value                   |
|------------------|-------------------------|
| Zone             | Kuftal Tunnel (ID: 174) |
| Block Size       | 112 bytes               |
| Total Events     | 3                       |
| References Count | 11                      |

## List of Events

| Event ID                 | Entrypoint   |   Size |   Instructions |
|--------------------------|--------------|--------|----------------|
| [65535](#event-65535)    | 0x0000       |      1 |              1 |
| [13](#event-13)          | 0x0001       |     10 |              2 |
| [65535.1](#event-655351) | 0x000B       |     26 |              7 |

## DAT References (imed_data)

|   Index | Hex Value   |   Dec Value |
|---------|-------------|-------------|
|       0 | 0xFFFF8EAF  |  4294938287 |
|       1 | 0xFFFC88E6  |  4294740198 |
|       2 | 0xFFFFB2A9  |  4294947497 |
|       3 | 0x0AAF      |        2735 |
|       4 | 0x0028      |          40 |
|       5 | 0xFFFF8857  |  4294936663 |
|       6 | 0xFFFCA935  |  4294748469 |
|       7 | 0xFFFFB4C9  |  4294948041 |
|       8 | 0xFFFFB9AA  |  4294949290 |
|       9 | 0xFFFCE284  |  4294763140 |
|      10 | 0xFFFFB3BE  |  4294947774 |

## Events

### Event 65535

#### Metadata

| Field        | Value   |
|--------------|---------|
| Entrypoint   | 0x0000  |
| Data Size    | 1 bytes |
| Instructions | 1       |

```
      00 01 02 03 04 05 06 07  08 09 0A 0B 0C 0D 0E 0F
      -- -- -- -- -- -- -- --  -- -- -- -- -- -- -- --
0000: 00                                                .               
```

#### Opcodes

```
  0: 0x0000 [0x00] END_REQSTACK()
```

### Event 13

#### Metadata

| Field        | Value    |
|--------------|----------|
| Entrypoint   | 0x0001   |
| Data Size    | 10 bytes |
| Instructions | 2        |

```
      00 01 02 03 04 05 06 07  08 09 0A 0B 0C 0D 0E 0F
      -- -- -- -- -- -- -- --  -- -- -- -- -- -- -- --
0000:    37 00 80 01 80 02 80  03 80 00                  7.........     
```

#### Opcodes

```
  0: 0x0001 [0x37] UPDATE_EVENT_POSITION_AND_DIR: x=-29.009*, z=-227.098*, y=-19.799*, direction=240.4°*
  1: 0x000A [0x00] END_REQSTACK()
```

### Event 65535.1

#### Metadata

| Field        | Value    |
|--------------|----------|
| Entrypoint   | 0x000B   |
| Data Size    | 26 bytes |
| Instructions | 7        |

```
      00 01 02 03 04 05 06 07  08 09 0A 0B 0C 0D 0E 0F
      -- -- -- -- -- -- -- --  -- -- -- -- -- -- -- --
0000:                                   22 00 32 04 80             ".2..
0010: 1F 00 05 80 06 80 07 80  1F 01 1F 00 08 80 09 80  ................
0020: 0A 80 1F 01 00                                    .....           
```

#### Opcodes

```
  0: 0x000B [0x22] ENTITY_HIDE_FLAG(enabled=0x00)
  1: 0x000D [0x32] ExtData[1]->MainSpeed = 40* * 0.1
  2: 0x0010 [0x1F] MOVE_ENTITY: EventEntity moves to X=-30.633*, Z=-218.827*, Y=-19.255*
  3: 0x0018 [0x1F] MOVE_ENTITY: Update entity position (mode=1)
  4: 0x001A [0x1F] MOVE_ENTITY: EventEntity moves to X=-18.006*, Z=-204.156*, Y=-19.522*
  5: 0x0022 [0x1F] MOVE_ENTITY: Update entity position (mode=1)
  6: 0x0024 [0x00] END_REQSTACK()
```
