# 17490282

## Common Data

| Field            | Value                   |
|------------------|-------------------------|
| Zone             | Kuftal Tunnel (ID: 174) |
| Block Size       | 308 bytes               |
| Total Events     | 3                       |
| References Count | 10                      |

## List of Events

| Event ID              | Entrypoint   |   Size |   Instructions |
|-----------------------|--------------|--------|----------------|
| [65535](#event-65535) | 0x0000       |      1 |              1 |
| [10](#event-10)       | 0x0001       |    148 |             26 |
| [11](#event-11)       | 0x0095       |     91 |             21 |

## DAT References (imed_data)

|   Index | Hex Value   |   Dec Value |
|---------|-------------|-------------|
|       0 | 0x1CB2      |        7346 |
|       1 | 0x0001      |           1 |
|       2 | 0x0000      |           0 |
|       3 | 0x1CB3      |        7347 |
|       4 | 0x00C8      |         200 |
|       5 | 0x003C      |          60 |
|       6 | 0x0012      |          18 |
|       7 | 0x00EA      |         234 |
|       8 | 0x001E      |          30 |
|       9 | 0x0078      |         120 |

## String References

- **7346**: Stomp on the ground? [Yes/No]
- **7347**: <Player> stomps on the ground.

## Events

### Event 65535

#### Metadata

| Field        | Value   |
|--------------|---------|
| Entrypoint   | 0x0000  |
| Data Size    | 1 bytes |
| Instructions | 1       |

```
      00 01 02 03 04 05 06 07  08 09 0A 0B 0C 0D 0E 0F
      -- -- -- -- -- -- -- --  -- -- -- -- -- -- -- --
0000: 00                                                .               
```

#### Opcodes

```
  0: 0x0000 [0x00] END_REQSTACK()
```

### Event 10

#### Metadata

| Field        | Value     |
|--------------|-----------|
| Entrypoint   | 0x0001    |
| Data Size    | 148 bytes |
| Instructions | 26        |

```
      00 01 02 03 04 05 06 07  08 09 0A 0B 0C 0D 0E 0F
      -- -- -- -- -- -- -- --  -- -- -- -- -- -- -- --
0000:    20 01 24 00 80 01 80  02 80 25 02 00 10 02 80    .$......%.....
0010: 00 86 00 43 00 43 01 46  01 42 48 03 80 45 04 80  ...C.C.F.BH..E..
0020: F0 FF FF 7F F0 FF FF 7F  66 64 6F 31 02 80 1C 05  ........fdo1....
0030: 80 38 06 80 45 07 80 F0  FF FF 7F F0 FF FF 7F 73  .8..E..........s
0040: 61 6E 64 02 80 1C 08 80  45 07 80 F0 FF FF 7F F0  and.....E.......
0050: FF FF 7F 73 61 6E 64 02  80 1C 08 80 45 07 80 F0  ...sand.....E...
0060: FF FF 7F F0 FF FF 7F 73  61 6E 64 02 80 1C 05 80  .......sand.....
0070: 45 04 80 F0 FF FF 7F F0  FF FF 7F 66 64 69 31 02  E..........fdi1.
0080: 80 46 00 01 91 00 02 00  10 01 80 00 91 00 01 91  .F..............
0090: 00 20 00 21 00                                    . .!.           
```

#### Opcodes

```
  0: 0x0001 [0x20] SET_CLI_EVENT_UC_FLAG: Lock player control
  1: 0x0003 [0x24] CREATE_DIALOG(message_id=7346*, default_option=1*, option_flags=0*)
    → "Stomp on the ground? [Yes/No]"
  2: 0x000A [0x25] WAIT_DIALOG_SELECT()
  3: 0x000B [0x02] IF !(Work_Zone[0] == 0*) GOTO 0x0086
  4: 0x0013 [0x43] SEND_EVENT_UPDATE: Send pending tag to server (packet 0x005B)
  5: 0x0015 [0x43] SEND_EVENT_UPDATE: Check pending flag (skip if not pending)
  6: 0x0017 [0x46] CAMERA_CONTROL: Disable user control
  7: 0x0019 [0x42] SET_CLI_EVENT_CANCEL_DATA()
  8: 0x001A [0x48] [System] [7347*]:
    → "<Player> stomps on the ground."
  9: 0x001D [0x45] LOAD_SCHEDULED_TASK: Load scheduler "fdo1" with entities [LocalPlayer, LocalPlayer], work=[200*, 0*]
 10: 0x002E [0x1C] WAIT(60* ticks)
 11: 0x0031 [0x38] SET_CLIENT_EVENT_MODE(mode=18*)
 12: 0x0034 [0x45] LOAD_SCHEDULED_TASK: Load scheduler "sand" with entities [LocalPlayer, LocalPlayer], work=[234*, 0*]
 13: 0x0045 [0x1C] WAIT(30* ticks)
 14: 0x0048 [0x45] LOAD_SCHEDULED_TASK: Load scheduler "sand" with entities [LocalPlayer, LocalPlayer], work=[234*, 0*]
 15: 0x0059 [0x1C] WAIT(30* ticks)
 16: 0x005C [0x45] LOAD_SCHEDULED_TASK: Load scheduler "sand" with entities [LocalPlayer, LocalPlayer], work=[234*, 0*]
 17: 0x006D [0x1C] WAIT(60* ticks)
 18: 0x0070 [0x45] LOAD_SCHEDULED_TASK: Load scheduler "fdi1" with entities [LocalPlayer, LocalPlayer], work=[200*, 0*]
 19: 0x0081 [0x46] CAMERA_CONTROL: Restore default settings
 20: 0x0083 [0x01] GOTO 0x0091
 21: 0x0086 [0x02] IF !(Work_Zone[0] == 1*) GOTO 0x0091
 22: 0x008E [0x01] GOTO 0x0091

SUBROUTINE_0091:
 23: 0x0091 [0x20] SET_CLI_EVENT_UC_FLAG: Unlock player control
 24: 0x0093 [0x21] END_EVENT
 25: 0x0094 [0x00] END_REQSTACK()
```

### Event 11

#### Metadata

| Field        | Value    |
|--------------|----------|
| Entrypoint   | 0x0095   |
| Data Size    | 91 bytes |
| Instructions | 21       |

```
      00 01 02 03 04 05 06 07  08 09 0A 0B 0C 0D 0E 0F
      -- -- -- -- -- -- -- --  -- -- -- -- -- -- -- --
0090:                20 01 24  00 80 01 80 02 80 25 02        .$......%.
00A0: 00 10 02 80 00 E1 00 43  00 43 01 46 01 42 48 03  .......C.C.F.BH.
00B0: 80 45 04 80 F0 FF FF 7F  F0 FF FF 7F 66 64 6F 31  .E..........fdo1
00C0: 02 80 1C 05 80 38 06 80  1C 09 80 45 04 80 F0 FF  .....8.....E....
00D0: FF 7F F0 FF FF 7F 66 64  69 31 02 80 46 00 01 EC  ......fdi1..F...
00E0: 00 02 00 10 01 80 00 EC  00 01 EC 00 20 00 21 00  ............ .!.
```

#### Opcodes

```
  0: 0x0095 [0x20] SET_CLI_EVENT_UC_FLAG: Lock player control
  1: 0x0097 [0x24] CREATE_DIALOG(message_id=7346*, default_option=1*, option_flags=0*)
    → "Stomp on the ground? [Yes/No]"
  2: 0x009E [0x25] WAIT_DIALOG_SELECT()
  3: 0x009F [0x02] IF !(Work_Zone[0] == 0*) GOTO 0x00E1
  4: 0x00A7 [0x43] SEND_EVENT_UPDATE: Send pending tag to server (packet 0x005B)
  5: 0x00A9 [0x43] SEND_EVENT_UPDATE: Check pending flag (skip if not pending)
  6: 0x00AB [0x46] CAMERA_CONTROL: Disable user control
  7: 0x00AD [0x42] SET_CLI_EVENT_CANCEL_DATA()
  8: 0x00AE [0x48] [System] [7347*]:
    → "<Player> stomps on the ground."
  9: 0x00B1 [0x45] LOAD_SCHEDULED_TASK: Load scheduler "fdo1" with entities [LocalPlayer, LocalPlayer], work=[200*, 0*]
 10: 0x00C2 [0x1C] WAIT(60* ticks)
 11: 0x00C5 [0x38] SET_CLIENT_EVENT_MODE(mode=18*)
 12: 0x00C8 [0x1C] WAIT(120* ticks)
 13: 0x00CB [0x45] LOAD_SCHEDULED_TASK: Load scheduler "fdi1" with entities [LocalPlayer, LocalPlayer], work=[200*, 0*]
 14: 0x00DC [0x46] CAMERA_CONTROL: Restore default settings
 15: 0x00DE [0x01] GOTO 0x00EC
 16: 0x00E1 [0x02] IF !(Work_Zone[0] == 1*) GOTO 0x00EC
 17: 0x00E9 [0x01] GOTO 0x00EC

SUBROUTINE_00EC:
 18: 0x00EC [0x20] SET_CLI_EVENT_UC_FLAG: Unlock player control
 19: 0x00EE [0x21] END_EVENT
 20: 0x00EF [0x00] END_REQSTACK()
```
