# 17490293

## Common Data

| Field            | Value                   |
|------------------|-------------------------|
| Zone             | Kuftal Tunnel (ID: 174) |
| Block Size       | 96 bytes                |
| Total Events     | 2                       |
| References Count | 6                       |

## List of Events

| Event ID              | Entrypoint   |   Size |   Instructions |
|-----------------------|--------------|--------|----------------|
| [65535](#event-65535) | 0x0000       |      1 |              1 |
| [12](#event-12)       | 0x0001       |     47 |             10 |

## DAT References (imed_data)

|   Index | Hex Value   |   Dec Value |
|---------|-------------|-------------|
|       0 | 0x0003      |           3 |
|       1 | 0x0000      |           0 |
|       2 | 0x1CB7      |        7351 |
|       3 | 0x1CB8      |        7352 |
|       4 | 0x0001      |           1 |
|       5 | 0x40000000  |  1073741824 |

## String References

- **7351**: There is a piece of wood buried in the sand.
- **7352**: Dig up the wood? [Yes./No.]

## Events

### Event 65535

#### Metadata

| Field        | Value   |
|--------------|---------|
| Entrypoint   | 0x0000  |
| Data Size    | 1 bytes |
| Instructions | 1       |

```
      00 01 02 03 04 05 06 07  08 09 0A 0B 0C 0D 0E 0F
      -- -- -- -- -- -- -- --  -- -- -- -- -- -- -- --
0000: 00                                                .               
```

#### Opcodes

```
  0: 0x0000 [0x00] END_REQSTACK()
```

### Event 12

#### Metadata

| Field        | Value    |
|--------------|----------|
| Entrypoint   | 0x0001   |
| Data Size    | 47 bytes |
| Instructions | 10       |

```
      00 01 02 03 04 05 06 07  08 09 0A 0B 0C 0D 0E 0F
      -- -- -- -- -- -- -- --  -- -- -- -- -- -- -- --
0000:    62 00 80 F8 FF FF 7F  F8 FF FF 7F 6D 61 69 6E   b..........main
0010: 01 80 48 02 80 23 24 03  80 04 80 01 80 25 02 00  ..H..#$......%..
0020: 10 04 80 00 2E 00 03 01  10 05 80 01 2E 00 21 00  ..............!.
```

#### Opcodes

```
  0: 0x0001 [0x62] LOAD_EVENT_SCHEDULER: Load scheduler "main" with entities [EventEntity, EventEntity], work=[3*, 0*]
  1: 0x0012 [0x48] [System] [7351*]:
    → "There is a piece of wood buried in the sand."
  2: 0x0015 [0x23] WAIT_FOR_DIALOG_INTERACTION
  3: 0x0016 [0x24] CREATE_DIALOG(message_id=7352*, default_option=1*, option_flags=0*)
    → "Dig up the wood? [Yes./No.]"
  4: 0x001D [0x25] WAIT_DIALOG_SELECT()
  5: 0x001E [0x02] IF !(Work_Zone[0] == 1*) GOTO 0x002E
  6: 0x0026 [0x03] Work_Zone[1] = 1073741824*
  7: 0x002B [0x01] GOTO 0x002E

SUBROUTINE_002E:
  8: 0x002E [0x21] END_EVENT
  9: 0x002F [0x00] END_REQSTACK()
```
