# Event 65535

## Metadata

| Field           | Value    |
|-----------------|----------|
| Event Index     | 20/43    |
| Offset          | 0x5364   |
| Data Size       | 45 bytes |
| Calculated Size | 45 bytes |
| Instructions    | 7        |

```
      00 01 02 03 04 05 06 07  08 09 0A 0B 0C 0D 0E 0F
      -- -- -- -- -- -- -- --  -- -- -- -- -- -- -- --
5360:             1C 43 80 03  2A 00 07 7F 1A 1C 54 66      .C..*.....Tf
5370: 2B 00 F8 FF FF 7F F8 FF  FF 7F 74 6C 6B 30 1C 43  +.........tlk0.C
5380: 80 66 2B 00 F8 FF FF 7F  F8 FF FF 7F 74 6C 6B 31  .f+.........tlk1
5390: 00                                                .               
```

## Opcodes

```
  0: 0x5364 [0x1C] WAIT(60* ticks)
  1: 0x5367 [0x03] ExtData[1]->WorkLocal[42] = Entity->Race
  2: 0x536C [0x1A] CALL_SUBROUTINE(address=0x541C)
  3: 0x536F [0x66] LOAD_EXT_SCHEDULER_MAIN: Load scheduler "tlk0" with entities [EventEntity, EventEntity], work=ExtData[1]->WorkLocal[43]
  4: 0x537E [0x1C] WAIT(60* ticks)
  5: 0x5381 [0x66] LOAD_EXT_SCHEDULER_MAIN: Load scheduler "tlk1" with entities [EventEntity, EventEntity], work=ExtData[1]->WorkLocal[43]
  6: 0x5390 [0x00] END_REQSTACK()
```
