# Event 222

## Metadata

| Field           | Value    |
|-----------------|----------|
| Event Index     | 4/13     |
| Offset          | 0x0A1A   |
| Data Size       | 42 bytes |
| Calculated Size | 42 bytes |
| Instructions    | 10       |

```
      00 01 02 03 04 05 06 07  08 09 0A 0B 0C 0D 0E 0F
      -- -- -- -- -- -- -- --  -- -- -- -- -- -- -- --
0A10:                                4A 5D C0 0A 01 F0            J]....
0A20: FF FF 7F 6F 76 5D C0 0A  01 4A F0 FF FF 7F 5D C0  ...ov]...J....].
0A30: 0A 01 2B 5D C0 0A 01 34  80 23 2B 5D C0 0A 01 35  ..+]...4.#+]...5
0A40: 80 23 21 00                                       .#!.            
```

## Opcodes

```
  0: 0x0A1A [0x4A] Rasmus (ID: 17481821/0x010AC05D) looks at LocalPlayer
  1: 0x0A23 [0x6F] WAIT_FRAME_DELAY: Yield until WaitTime reaches zero
  2: 0x0A24 [0x76] CHECK_ENTITY_RENDER_FLAGS: Wait until Rasmus (ID: 17481821/0x010AC05D) Render.Flags0 and Render.Flags3 conditions are met
  3: 0x0A29 [0x4A] LocalPlayer looks at Rasmus (ID: 17481821/0x010AC05D)
  4: 0x0A32 [0x2B] Rasmus (ID: 17481821/0x010AC05D) [10633*]:
    → "Cornelia said something about looking for a Galkan child.\u007F1\u0000\u0007"
  5: 0x0A39 [0x23] WAIT_FOR_DIALOG_INTERACTION
  6: 0x0A3A [0x2B] Rasmus (ID: 17481821/0x010AC05D) [10634*]:
    → "That's all well and good, but she really shouldn't be sticking her nose into everyone's business.\u007F1\u0000\u0007"
  7: 0x0A41 [0x23] WAIT_FOR_DIALOG_INTERACTION
  8: 0x0A42 [0x21] END_EVENT
  9: 0x0A43 [0x00] END_REQSTACK()
```
