# Event 226

## Metadata

| Field           | Value    |
|-----------------|----------|
| Event Index     | 8/13     |
| Offset          | 0x369C   |
| Data Size       | 61 bytes |
| Calculated Size | 61 bytes |
| Instructions    | 13       |

```
      00 01 02 03 04 05 06 07  08 09 0A 0B 0C 0D 0E 0F
      -- -- -- -- -- -- -- --  -- -- -- -- -- -- -- --
3690:                                      4A 5F C0 0A              J_..
36A0: 01 F0 FF FF 7F 6F 76 5F  C0 0A 01 02 02 10 17 81  .....ov_........
36B0: 04 D7 36 02 02 10 18 81  05 D7 36 6E 5F C0 0A 01  ..6.......6n_...
36C0: 51 80 99 5F C0 0A 01 2B  5F C0 0A 01 19 81 23 2B  Q.._...+_.....#+
36D0: 5F C0 0A 01 1A 81 23 21  00                       _.....#!.       
```

## Opcodes

```
  0: 0x369C [0x4A] Drake Fang (ID: 17481823/0x010AC05F) looks at LocalPlayer
  1: 0x36A5 [0x6F] WAIT_FRAME_DELAY: Yield until WaitTime reaches zero
  2: 0x36A6 [0x76] CHECK_ENTITY_RENDER_FLAGS: Wait until Drake Fang (ID: 17481823/0x010AC05F) Render.Flags0 and Render.Flags3 conditions are met
  3: 0x36AB [0x02] IF !(Work_Zone[2] < 262*) GOTO 0x36D7
  4: 0x36B3 [0x02] IF !(Work_Zone[2] > 266*) GOTO 0x36D7
  5: 0x36BB [0x6E] Drake Fang (ID: 17481823/0x010AC05F) uses emote 29*
  6: 0x36C2 [0x99] Wait for Drake Fang (ID: 17481823/0x010AC05F) animation to complete
  7: 0x36C7 [0x2B] Drake Fang (ID: 17481823/0x010AC05F) [10685*]:
    → "This isn't good!\u0007The Quadav have launched an attack from the Palborough Mines!\u007F1\u0000\u0007"
  8: 0x36CE [0x23] WAIT_FOR_DIALOG_INTERACTION
  9: 0x36CF [0x2B] Drake Fang (ID: 17481823/0x010AC05F) [10686*]:
    → "They didn't even notice me as they charged south.\u0007Didn't you see them!?\u007F1\u0000\u0007"
 10: 0x36D6 [0x23] WAIT_FOR_DIALOG_INTERACTION
 11: 0x36D7 [0x21] END_EVENT
 12: 0x36D8 [0x00] END_REQSTACK()
```
