# Event 227

## Metadata

| Field           | Value    |
|-----------------|----------|
| Event Index     | 9/13     |
| Offset          | 0x36D9   |
| Data Size       | 50 bytes |
| Calculated Size | 50 bytes |
| Instructions    | 10       |

```
      00 01 02 03 04 05 06 07  08 09 0A 0B 0C 0D 0E 0F
      -- -- -- -- -- -- -- --  -- -- -- -- -- -- -- --
36D0:                             4A 7C C0 0A 01 F0 FF           J|.....
36E0: FF 7F 6F 76 7C C0 0A 01  4A F0 FF FF 7F 7C C0 0A  ..ov|...J....|..
36F0: 01 02 02 10 17 81 04 09  37 02 02 10 18 81 05 09  ........7.......
3700: 37 2B 7C C0 0A 01 1B 81  23 21 00                 7+|.....#!.     
```

## Opcodes

```
  0: 0x36D9 [0x4A] Gavergo (ID: 17481852/0x010AC07C) looks at LocalPlayer
  1: 0x36E2 [0x6F] WAIT_FRAME_DELAY: Yield until WaitTime reaches zero
  2: 0x36E3 [0x76] CHECK_ENTITY_RENDER_FLAGS: Wait until Gavergo (ID: 17481852/0x010AC07C) Render.Flags0 and Render.Flags3 conditions are met
  3: 0x36E8 [0x4A] LocalPlayer looks at Gavergo (ID: 17481852/0x010AC07C)
  4: 0x36F1 [0x02] IF !(Work_Zone[2] < 262*) GOTO 0x3709
  5: 0x36F9 [0x02] IF !(Work_Zone[2] > 266*) GOTO 0x3709
  6: 0x3701 [0x2B] Gavergo (ID: 17481852/0x010AC07C) [10687*]:
    → "Cornelia saved my life. She gave the guard a good scolding, allowing me to escape through the Korroloka Tunnel.\u007F1\u0000\u0007"
  7: 0x3708 [0x23] WAIT_FOR_DIALOG_INTERACTION
  8: 0x3709 [0x21] END_EVENT
  9: 0x370A [0x00] END_REQSTACK()
```
