# Event 229

## Metadata

| Field           | Value    |
|-----------------|----------|
| Event Index     | 11/13    |
| Offset          | 0x3754   |
| Data Size       | 58 bytes |
| Calculated Size | 58 bytes |
| Instructions    | 12       |

```
      00 01 02 03 04 05 06 07  08 09 0A 0B 0C 0D 0E 0F
      -- -- -- -- -- -- -- --  -- -- -- -- -- -- -- --
3750:             4A 68 C0 0A  01 F0 FF FF 7F 6F 76 68      Jh.......ovh
3760: C0 0A 01 4A F0 FF FF 7F  68 C0 0A 01 02 02 10 17  ...J....h.......
3770: 81 04 8C 37 02 02 10 18  81 05 8C 37 2B 68 C0 0A  ...7.......7+h..
3780: 01 1E 81 23 2B 68 C0 0A  01 1F 81 23 21 00        ...#+h.....#!.  
```

## Opcodes

```
  0: 0x3754 [0x4A] Zelman (ID: 17481832/0x010AC068) looks at LocalPlayer
  1: 0x375D [0x6F] WAIT_FRAME_DELAY: Yield until WaitTime reaches zero
  2: 0x375E [0x76] CHECK_ENTITY_RENDER_FLAGS: Wait until Zelman (ID: 17481832/0x010AC068) Render.Flags0 and Render.Flags3 conditions are met
  3: 0x3763 [0x4A] LocalPlayer looks at Zelman (ID: 17481832/0x010AC068)
  4: 0x376C [0x02] IF !(Work_Zone[2] < 262*) GOTO 0x378C
  5: 0x3774 [0x02] IF !(Work_Zone[2] > 266*) GOTO 0x378C
  6: 0x377C [0x2B] Zelman (ID: 17481832/0x010AC068) [10690*]:
    → "What's with all that racket you adventurers were making?\u007F1\u0000\u0007"
  7: 0x3783 [0x23] WAIT_FOR_DIALOG_INTERACTION
  8: 0x3784 [0x2B] Zelman (ID: 17481832/0x010AC068) [10691*]:
    → "It seemed like there was quite a commotion, but it's strangely quiet all of a sudden.\u007F1\u0000\u0007"
  9: 0x378B [0x23] WAIT_FOR_DIALOG_INTERACTION
 10: 0x378C [0x21] END_EVENT
 11: 0x378D [0x00] END_REQSTACK()
```
