# 17203824 - Roido

## Common Data

| Field            | Value                   |
|------------------|-------------------------|
| Zone             | Jugner Forest (ID: 104) |
| Block Size       | 440 bytes               |
| Total Events     | 14                      |
| References Count | 22                      |

## List of Events

| Event ID                   | Entrypoint   |   Size |   Instructions |
|----------------------------|--------------|--------|----------------|
| [65535](#event-65535)      | 0x0000       |      1 |              1 |
| [18](#event-18)            | 0x0001       |     16 |              3 |
| [65535.1](#event-655351)   | 0x0011       |     20 |              6 |
| [65535.2](#event-655352)   | 0x0025       |     14 |              4 |
| [65535.3](#event-655353)   | 0x0033       |     14 |              4 |
| [65535.4](#event-655354)   | 0x0041       |     27 |              5 |
| [65535.5](#event-655355)   | 0x005C       |     16 |              4 |
| [65535.6](#event-655356)   | 0x006C       |     16 |              5 |
| [65535.7](#event-655357)   | 0x007C       |     19 |              3 |
| [65535.8](#event-655358)   | 0x008F       |     29 |              3 |
| [65535.9](#event-655359)   | 0x00AC       |     19 |              3 |
| [65535.10](#event-6553510) | 0x00BF       |     29 |              3 |
| [65535.11](#event-6553511) | 0x00DC       |     25 |              4 |
| [65535.12](#event-6553512) | 0x00F5       |     35 |              4 |

## DAT References (imed_data)

|   Index | Hex Value   |   Dec Value |
|---------|-------------|-------------|
|       0 | 0xFFFB2F6D  |  4294651757 |
|       1 | 0x6565C     |      415324 |
|       2 | 0x022C      |         556 |
|       3 | 0x0296      |         662 |
|       4 | 0x0028      |          40 |
|       5 | 0xFFFB4278  |  4294656632 |
|       6 | 0x63D75     |      408949 |
|       7 | 0xFFFFFEAE  |  4294966958 |
|       8 | 0xFFFB4755  |  4294657877 |
|       9 | 0x633C7     |      406471 |
|      10 | 0xFFFFFFC8  |  4294967240 |
|      11 | 0xFFFB4635  |  4294657589 |
|      12 | 0x63D5C     |      408924 |
|      13 | 0x000D      |          13 |
|      14 | 0x003C      |          60 |
|      15 | 0xFFFB437F  |  4294656895 |
|      16 | 0x68D29     |      429353 |
|      17 | 0xFFFFF865  |  4294965349 |
|      18 | 0xFFFB3874  |  4294654068 |
|      19 | 0x6C47A     |      443514 |
|      20 | 0xFFFFFBB6  |  4294966198 |
|      21 | 0x0000      |           0 |

## Events

### Event 65535

#### Metadata

| Field        | Value   |
|--------------|---------|
| Entrypoint   | 0x0000  |
| Data Size    | 1 bytes |
| Instructions | 1       |

```
      00 01 02 03 04 05 06 07  08 09 0A 0B 0C 0D 0E 0F
      -- -- -- -- -- -- -- --  -- -- -- -- -- -- -- --
0000: 00                                                .               
```

#### Opcodes

```
  0: 0x0000 [0x00] END_REQSTACK()
```

### Event 18

#### Metadata

| Field        | Value    |
|--------------|----------|
| Entrypoint   | 0x0001   |
| Data Size    | 16 bytes |
| Instructions | 3        |

```
      00 01 02 03 04 05 06 07  08 09 0A 0B 0C 0D 0E 0F
      -- -- -- -- -- -- -- --  -- -- -- -- -- -- -- --
0000:    94 01 F8 FF FF 7F 37  00 80 01 80 02 80 03 80   ......7........
0010: 00                                                .               
```

#### Opcodes

```
  0: 0x0001 [0x94] EventEntity->Render.Flags3 ^= 0x01
  1: 0x0007 [0x37] UPDATE_EVENT_POSITION_AND_DIR: x=-315.539*, z=415.324*, y=0.556*, direction=58.2°*
  2: 0x0010 [0x00] END_REQSTACK()
```

### Event 65535.1

#### Metadata

| Field        | Value    |
|--------------|----------|
| Entrypoint   | 0x0011   |
| Data Size    | 20 bytes |
| Instructions | 6        |

```
      00 01 02 03 04 05 06 07  08 09 0A 0B 0C 0D 0E 0F
      -- -- -- -- -- -- -- --  -- -- -- -- -- -- -- --
0010:    32 04 80 1F 00 05 80  06 80 07 80 1F 01 6F 1E   2............o.
0020: F0 FF FF 7F 00                                    .....           
```

#### Opcodes

```
  0: 0x0011 [0x32] ExtData[1]->MainSpeed = 40* * 0.1
  1: 0x0014 [0x1F] MOVE_ENTITY: EventEntity moves to X=-310.664*, Z=408.949*, Y=-0.338*
  2: 0x001C [0x1F] MOVE_ENTITY: Update entity position (mode=1)
  3: 0x001E [0x6F] WAIT_FRAME_DELAY: Yield until WaitTime reaches zero
  4: 0x001F [0x1E] EventEntity looks at LocalPlayer and starts talking
  5: 0x0024 [0x00] END_REQSTACK()
```

### Event 65535.2

#### Metadata

| Field        | Value    |
|--------------|----------|
| Entrypoint   | 0x0025   |
| Data Size    | 14 bytes |
| Instructions | 4        |

```
      00 01 02 03 04 05 06 07  08 09 0A 0B 0C 0D 0E 0F
      -- -- -- -- -- -- -- --  -- -- -- -- -- -- -- --
0020:                32 04 80  1F 00 08 80 09 80 0A 80       2..........
0030: 1F 01 00                                          ...             
```

#### Opcodes

```
  0: 0x0025 [0x32] ExtData[1]->MainSpeed = 40* * 0.1
  1: 0x0028 [0x1F] MOVE_ENTITY: EventEntity moves to X=-309.419*, Z=406.471*, Y=-0.056*
  2: 0x0030 [0x1F] MOVE_ENTITY: Update entity position (mode=1)
  3: 0x0032 [0x00] END_REQSTACK()
```

### Event 65535.3

#### Metadata

| Field        | Value    |
|--------------|----------|
| Entrypoint   | 0x0033   |
| Data Size    | 14 bytes |
| Instructions | 4        |

```
      00 01 02 03 04 05 06 07  08 09 0A 0B 0C 0D 0E 0F
      -- -- -- -- -- -- -- --  -- -- -- -- -- -- -- --
0030:          32 04 80 1F 00  0B 80 0C 80 07 80 1F 01     2............
0040: 00                                                .               
```

#### Opcodes

```
  0: 0x0033 [0x32] ExtData[1]->MainSpeed = 40* * 0.1
  1: 0x0036 [0x1F] MOVE_ENTITY: EventEntity moves to X=-309.707*, Z=408.924*, Y=-0.338*
  2: 0x003E [0x1F] MOVE_ENTITY: Update entity position (mode=1)
  3: 0x0040 [0x00] END_REQSTACK()
```

### Event 65535.4

#### Metadata

| Field        | Value    |
|--------------|----------|
| Entrypoint   | 0x0041   |
| Data Size    | 27 bytes |
| Instructions | 5        |

```
      00 01 02 03 04 05 06 07  08 09 0A 0B 0C 0D 0E 0F
      -- -- -- -- -- -- -- --  -- -- -- -- -- -- -- --
0040:    32 0D 80 3B 6F 82 06  01 00 00 01 00 02 00 31   2..;o.........1
0050: 00 00 00 01 00 02 00 0E  80 31 01 00              .........1..    
```

#### Opcodes

```
  0: 0x0041 [0x32] ExtData[1]->MainSpeed = 13* * 0.1
  1: 0x0044 [0x3B] GET_ENTITY_POSITION(entity=Vijartal (ID: 17203823/0x0106826F), x_destination=ExtData[1]->WorkLocal[0], y_destination=ExtData[1]->WorkLocal[1], z_destination=ExtData[1]->WorkLocal[2])
  2: 0x004F [0x31] UPDATE_ENTITY_POSITION: Set EventEntity goal position to X=ExtData[1]->WorkLocal[0], Z=ExtData[1]->WorkLocal[1], Y=ExtData[1]->WorkLocal[2], Time=60*
  3: 0x0059 [0x31] UPDATE_ENTITY_POSITION: Move EventEntity towards goal position
  4: 0x005B [0x00] END_REQSTACK()
```

### Event 65535.5

#### Metadata

| Field        | Value    |
|--------------|----------|
| Entrypoint   | 0x005C   |
| Data Size    | 16 bytes |
| Instructions | 4        |

```
      00 01 02 03 04 05 06 07  08 09 0A 0B 0C 0D 0E 0F
      -- -- -- -- -- -- -- --  -- -- -- -- -- -- -- --
0050:                                      32 04 80 31              2..1
0060: 00 0F 80 10 80 11 80 0E  80 31 01 00              .........1..    
```

#### Opcodes

```
  0: 0x005C [0x32] ExtData[1]->MainSpeed = 40* * 0.1
  1: 0x005F [0x31] UPDATE_ENTITY_POSITION: Set EventEntity goal position to X=-310.401*, Z=429.353*, Y=-1.947*, Time=60*
  2: 0x0069 [0x31] UPDATE_ENTITY_POSITION: Move EventEntity towards goal position
  3: 0x006B [0x00] END_REQSTACK()
```

### Event 65535.6

#### Metadata

| Field        | Value    |
|--------------|----------|
| Entrypoint   | 0x006C   |
| Data Size    | 16 bytes |
| Instructions | 5        |

```
      00 01 02 03 04 05 06 07  08 09 0A 0B 0C 0D 0E 0F
      -- -- -- -- -- -- -- --  -- -- -- -- -- -- -- --
0060:                                      32 04 80 1F              2...
0070: 00 12 80 13 80 14 80 1F  01 22 01 00              ........."..    
```

#### Opcodes

```
  0: 0x006C [0x32] ExtData[1]->MainSpeed = 40* * 0.1
  1: 0x006F [0x1F] MOVE_ENTITY: EventEntity moves to X=-313.228*, Z=443.514*, Y=-1.098*
  2: 0x0077 [0x1F] MOVE_ENTITY: Update entity position (mode=1)
  3: 0x0079 [0x22] ENTITY_HIDE_FLAG(enabled=0x01)
  4: 0x007B [0x00] END_REQSTACK()
```

### Event 65535.7

#### Metadata

| Field        | Value    |
|--------------|----------|
| Entrypoint   | 0x007C   |
| Data Size    | 19 bytes |
| Instructions | 3        |

```
      00 01 02 03 04 05 06 07  08 09 0A 0B 0C 0D 0E 0F
      -- -- -- -- -- -- -- --  -- -- -- -- -- -- -- --
0070:                                      66 15 80 F8              f...
0080: FF FF 7F F8 FF FF 7F 74  6C 6B 30 1C 0E 80 00     .......tlk0.... 
```

#### Opcodes

```
  0: 0x007C [0x66] LOAD_EXT_SCHEDULER_MAIN: Load scheduler "tlk0" with entities [EventEntity, EventEntity], work=0*
  1: 0x008B [0x1C] WAIT(60* ticks)
  2: 0x008E [0x00] END_REQSTACK()
```

### Event 65535.8

#### Metadata

| Field        | Value    |
|--------------|----------|
| Entrypoint   | 0x008F   |
| Data Size    | 29 bytes |
| Instructions | 3        |

```
      00 01 02 03 04 05 06 07  08 09 0A 0B 0C 0D 0E 0F
      -- -- -- -- -- -- -- --  -- -- -- -- -- -- -- --
0080:                                               66                 f
0090: 15 80 F8 FF FF 7F F8 FF  FF 7F 74 65 6E 30 53 F8  ..........ten0S.
00A0: FF FF 7F F8 FF FF 7F 74  65 6E 30 00              .......ten0.    
```

#### Opcodes

```
  0: 0x008F [0x66] LOAD_EXT_SCHEDULER_MAIN: Load scheduler "ten0" with entities [EventEntity, EventEntity], work=0*
  1: 0x009E [0x53] WAIT_SCHEDULER_TASK: Wait for scheduler "ten0" with entities [EventEntity, EventEntity]
  2: 0x00AB [0x00] END_REQSTACK()
```

### Event 65535.9

#### Metadata

| Field        | Value    |
|--------------|----------|
| Entrypoint   | 0x00AC   |
| Data Size    | 19 bytes |
| Instructions | 3        |

```
      00 01 02 03 04 05 06 07  08 09 0A 0B 0C 0D 0E 0F
      -- -- -- -- -- -- -- --  -- -- -- -- -- -- -- --
00A0:                                      66 15 80 F8              f...
00B0: FF FF 7F F8 FF FF 7F 74  6C 6B 31 1C 0E 80 00     .......tlk1.... 
```

#### Opcodes

```
  0: 0x00AC [0x66] LOAD_EXT_SCHEDULER_MAIN: Load scheduler "tlk1" with entities [EventEntity, EventEntity], work=0*
  1: 0x00BB [0x1C] WAIT(60* ticks)
  2: 0x00BE [0x00] END_REQSTACK()
```

### Event 65535.10

#### Metadata

| Field        | Value    |
|--------------|----------|
| Entrypoint   | 0x00BF   |
| Data Size    | 29 bytes |
| Instructions | 3        |

```
      00 01 02 03 04 05 06 07  08 09 0A 0B 0C 0D 0E 0F
      -- -- -- -- -- -- -- --  -- -- -- -- -- -- -- --
00B0:                                               66                 f
00C0: 15 80 F8 FF FF 7F F8 FF  FF 7F 74 65 6E 31 53 F8  ..........ten1S.
00D0: FF FF 7F F8 FF FF 7F 74  65 6E 31 00              .......ten1.    
```

#### Opcodes

```
  0: 0x00BF [0x66] LOAD_EXT_SCHEDULER_MAIN: Load scheduler "ten1" with entities [EventEntity, EventEntity], work=0*
  1: 0x00CE [0x53] WAIT_SCHEDULER_TASK: Wait for scheduler "ten1" with entities [EventEntity, EventEntity]
  2: 0x00DB [0x00] END_REQSTACK()
```

### Event 65535.11

#### Metadata

| Field        | Value    |
|--------------|----------|
| Entrypoint   | 0x00DC   |
| Data Size    | 25 bytes |
| Instructions | 4        |

```
      00 01 02 03 04 05 06 07  08 09 0A 0B 0C 0D 0E 0F
      -- -- -- -- -- -- -- --  -- -- -- -- -- -- -- --
00D0:                                      81 00 F8 FF              ....
00E0: FF 7F 66 15 80 F8 FF FF  7F F8 FF FF 7F 74 68 6B  ..f..........thk
00F0: 31 1C 0E 80 00                                    1....           
```

#### Opcodes

```
  0: 0x00DC [0x81] SET_ENTITY_BLINKING(blink_flag=0x00, entity=EventEntity)
  1: 0x00E2 [0x66] LOAD_EXT_SCHEDULER_MAIN: Load scheduler "thk1" with entities [EventEntity, EventEntity], work=0*
  2: 0x00F1 [0x1C] WAIT(60* ticks)
  3: 0x00F4 [0x00] END_REQSTACK()
```

### Event 65535.12

#### Metadata

| Field        | Value    |
|--------------|----------|
| Entrypoint   | 0x00F5   |
| Data Size    | 35 bytes |
| Instructions | 4        |

```
      00 01 02 03 04 05 06 07  08 09 0A 0B 0C 0D 0E 0F
      -- -- -- -- -- -- -- --  -- -- -- -- -- -- -- --
00F0:                81 01 F8  FF FF 7F 66 15 80 F8 FF       ......f....
0100: FF 7F F8 FF FF 7F 74 68  6B 32 53 F8 FF FF 7F F8  ......thk2S.....
0110: FF FF 7F 74 68 6B 32 00                           ...thk2.        
```

#### Opcodes

```
  0: 0x00F5 [0x81] SET_ENTITY_BLINKING(blink_flag=0x01, entity=EventEntity)
  1: 0x00FB [0x66] LOAD_EXT_SCHEDULER_MAIN: Load scheduler "thk2" with entities [EventEntity, EventEntity], work=0*
  2: 0x010A [0x53] WAIT_SCHEDULER_TASK: Wait for scheduler "thk2" with entities [EventEntity, EventEntity]
  3: 0x0117 [0x00] END_REQSTACK()
```
