# 17203886

## Common Data

| Field            | Value                   |
|------------------|-------------------------|
| Zone             | Jugner Forest (ID: 104) |
| Block Size       | 328 bytes               |
| Total Events     | 12                      |
| References Count | 30                      |

## List of Events

| Event ID                   | Entrypoint   |   Size |   Instructions |
|----------------------------|--------------|--------|----------------|
| [65535](#event-65535)      | 0x0000       |      1 |              1 |
| [31](#event-31)            | 0x0001       |     21 |              5 |
| [65535.1](#event-655351)   | 0x0016       |     16 |              5 |
| [65535.2](#event-655352)   | 0x0026       |     16 |              5 |
| [65535.3](#event-655353)   | 0x0036       |     12 |              3 |
| [65535.4](#event-655354)   | 0x0042       |     12 |              3 |
| [65535.5](#event-655355)   | 0x004E       |     12 |              3 |
| [65535.6](#event-655356)   | 0x005A       |     12 |              3 |
| [65535.7](#event-655357)   | 0x0066       |     12 |              3 |
| [65535.8](#event-655358)   | 0x0072       |     10 |              2 |
| [65535.9](#event-655359)   | 0x007C       |     10 |              2 |
| [65535.10](#event-6553510) | 0x0086       |     10 |              2 |

## DAT References (imed_data)

|   Index | Hex Value   |   Dec Value |
|---------|-------------|-------------|
|       0 | 0xFFFDD832  |  4294826034 |
|       1 | 0x71E88     |      466568 |
|       2 | 0x16A8      |        5800 |
|       3 | 0x000D      |          13 |
|       4 | 0x0002      |           2 |
|       5 | 0xFFFDC799  |  4294821785 |
|       6 | 0x6D9FE     |      449022 |
|       7 | 0x130A      |        4874 |
|       8 | 0xFFFDDCDA  |  4294827226 |
|       9 | 0x7208C     |      467084 |
|      10 | 0x0F90      |        3984 |
|      11 | 0x07EE      |        2030 |
|      12 | 0xFFFDE0C0  |  4294828224 |
|      13 | 0x7204C     |      467020 |
|      14 | 0x0DAC      |        3500 |
|      15 | 0x0958      |        2392 |
|      16 | 0xFFFDD272  |  4294824562 |
|      17 | 0x7204B     |      467019 |
|      18 | 0x1770      |        6000 |
|      19 | 0x0FD1      |        4049 |
|      20 | 0x1644      |        5700 |
|      21 | 0x14B4      |        5300 |
|      22 | 0x7211C     |      467228 |
|      23 | 0x181D      |        6173 |
|      24 | 0x72038     |      467000 |
|      25 | 0x1964      |        6500 |
|      26 | 0xFFFDCB7F  |  4294822783 |
|      27 | 0x72433     |      468019 |
|      28 | 0x0FC2      |        4034 |
|      29 | 0x0AC7      |        2759 |

## Events

### Event 65535

#### Metadata

| Field        | Value   |
|--------------|---------|
| Entrypoint   | 0x0000  |
| Data Size    | 1 bytes |
| Instructions | 1       |

```
      00 01 02 03 04 05 06 07  08 09 0A 0B 0C 0D 0E 0F
      -- -- -- -- -- -- -- --  -- -- -- -- -- -- -- --
0000: 00                                                .               
```

#### Opcodes

```
  0: 0x0000 [0x00] END_REQSTACK()
```

### Event 31

#### Metadata

| Field        | Value    |
|--------------|----------|
| Entrypoint   | 0x0001   |
| Data Size    | 21 bytes |
| Instructions | 5        |

```
      00 01 02 03 04 05 06 07  08 09 0A 0B 0C 0D 0E 0F
      -- -- -- -- -- -- -- --  -- -- -- -- -- -- -- --
0000:    2F 00 F8 FF FF 7F 80  F8 FF FF 7F 33 01 36 00   /..........3.6.
0010: 80 01 80 02 80 00                                 ......          
```

#### Opcodes

```
  0: 0x0001 [0x2F] EventEntity->Render.Flags0 &= ~0x80000 // Bit 19
  1: 0x0007 [0x80] LOAD_WAIT(entity=EventEntity)
  2: 0x000C [0x33] EventEntity->Render.Flags0 |= 0x200000 // Bit 21 (flag=0x01)
  3: 0x000E [0x36] SET_ENTITY_EVENT_POSITION(pos_x=-141.262*, pos_z=466.568*, pos_y=5.800*)
  4: 0x0015 [0x00] END_REQSTACK()
```

### Event 65535.1

#### Metadata

| Field        | Value    |
|--------------|----------|
| Entrypoint   | 0x0016   |
| Data Size    | 16 bytes |
| Instructions | 5        |

```
      00 01 02 03 04 05 06 07  08 09 0A 0B 0C 0D 0E 0F
      -- -- -- -- -- -- -- --  -- -- -- -- -- -- -- --
0010:                   33 01  32 03 80 5A 00 00 80 01        3.2..Z....
0020: 80 04 80 5A 01 00                                 ...Z..          
```

#### Opcodes

```
  0: 0x0016 [0x33] EventEntity->Render.Flags0 |= 0x200000 // Bit 21 (flag=0x01)
  1: 0x0018 [0x32] ExtData[1]->MainSpeed = 13* * 0.1
  2: 0x001B [0x5A] UPDATE_EVENT_POSITION: Set EventEntity MovePosition to X=-141.262*, Z=466.568*, Y=0.002*
  3: 0x0023 [0x5A] UPDATE_EVENT_POSITION: Move EventEntity incrementally towards MovePosition
  4: 0x0025 [0x00] END_REQSTACK()
```

### Event 65535.2

#### Metadata

| Field        | Value    |
|--------------|----------|
| Entrypoint   | 0x0026   |
| Data Size    | 16 bytes |
| Instructions | 5        |

```
      00 01 02 03 04 05 06 07  08 09 0A 0B 0C 0D 0E 0F
      -- -- -- -- -- -- -- --  -- -- -- -- -- -- -- --
0020:                   33 01  32 03 80 5A 00 05 80 06        3.2..Z....
0030: 80 07 80 5A 01 00                                 ...Z..          
```

#### Opcodes

```
  0: 0x0026 [0x33] EventEntity->Render.Flags0 |= 0x200000 // Bit 21 (flag=0x01)
  1: 0x0028 [0x32] ExtData[1]->MainSpeed = 13* * 0.1
  2: 0x002B [0x5A] UPDATE_EVENT_POSITION: Set EventEntity MovePosition to X=-145.511*, Z=449.022*, Y=4.874*
  3: 0x0033 [0x5A] UPDATE_EVENT_POSITION: Move EventEntity incrementally towards MovePosition
  4: 0x0035 [0x00] END_REQSTACK()
```

### Event 65535.3

#### Metadata

| Field        | Value    |
|--------------|----------|
| Entrypoint   | 0x0036   |
| Data Size    | 12 bytes |
| Instructions | 3        |

```
      00 01 02 03 04 05 06 07  08 09 0A 0B 0C 0D 0E 0F
      -- -- -- -- -- -- -- --  -- -- -- -- -- -- -- --
0030:                   33 01  37 08 80 09 80 0A 80 0B        3.7.......
0040: 80 00                                             ..              
```

#### Opcodes

```
  0: 0x0036 [0x33] EventEntity->Render.Flags0 |= 0x200000 // Bit 21 (flag=0x01)
  1: 0x0038 [0x37] UPDATE_EVENT_POSITION_AND_DIR: x=-140.070*, z=467.084*, y=3.984*, direction=178.4°*
  2: 0x0041 [0x00] END_REQSTACK()
```

### Event 65535.4

#### Metadata

| Field        | Value    |
|--------------|----------|
| Entrypoint   | 0x0042   |
| Data Size    | 12 bytes |
| Instructions | 3        |

```
      00 01 02 03 04 05 06 07  08 09 0A 0B 0C 0D 0E 0F
      -- -- -- -- -- -- -- --  -- -- -- -- -- -- -- --
0040:       33 01 37 0C 80 0D  80 0E 80 0F 80 00          3.7.........  
```

#### Opcodes

```
  0: 0x0042 [0x33] EventEntity->Render.Flags0 |= 0x200000 // Bit 21 (flag=0x01)
  1: 0x0044 [0x37] UPDATE_EVENT_POSITION_AND_DIR: x=-139.072*, z=467.020*, y=3.500*, direction=210.2°*
  2: 0x004D [0x00] END_REQSTACK()
```

### Event 65535.5

#### Metadata

| Field        | Value    |
|--------------|----------|
| Entrypoint   | 0x004E   |
| Data Size    | 12 bytes |
| Instructions | 3        |

```
      00 01 02 03 04 05 06 07  08 09 0A 0B 0C 0D 0E 0F
      -- -- -- -- -- -- -- --  -- -- -- -- -- -- -- --
0040:                                            33 01                3.
0050: 37 10 80 11 80 12 80 13  80 00                    7.........      
```

#### Opcodes

```
  0: 0x004E [0x33] EventEntity->Render.Flags0 |= 0x200000 // Bit 21 (flag=0x01)
  1: 0x0050 [0x37] UPDATE_EVENT_POSITION_AND_DIR: x=-142.734*, z=467.019*, y=6.000*, direction=355.9°*
  2: 0x0059 [0x00] END_REQSTACK()
```

### Event 65535.6

#### Metadata

| Field        | Value    |
|--------------|----------|
| Entrypoint   | 0x005A   |
| Data Size    | 12 bytes |
| Instructions | 3        |

```
      00 01 02 03 04 05 06 07  08 09 0A 0B 0C 0D 0E 0F
      -- -- -- -- -- -- -- --  -- -- -- -- -- -- -- --
0050:                                33 01 37 10 80 11            3.7...
0060: 80 14 80 13 80 00                                 ......          
```

#### Opcodes

```
  0: 0x005A [0x33] EventEntity->Render.Flags0 |= 0x200000 // Bit 21 (flag=0x01)
  1: 0x005C [0x37] UPDATE_EVENT_POSITION_AND_DIR: x=-142.734*, z=467.019*, y=5.700*, direction=355.9°*
  2: 0x0065 [0x00] END_REQSTACK()
```

### Event 65535.7

#### Metadata

| Field        | Value    |
|--------------|----------|
| Entrypoint   | 0x0066   |
| Data Size    | 12 bytes |
| Instructions | 3        |

```
      00 01 02 03 04 05 06 07  08 09 0A 0B 0C 0D 0E 0F
      -- -- -- -- -- -- -- --  -- -- -- -- -- -- -- --
0060:                   33 01  37 10 80 11 80 15 80 13        3.7.......
0070: 80 00                                             ..              
```

#### Opcodes

```
  0: 0x0066 [0x33] EventEntity->Render.Flags0 |= 0x200000 // Bit 21 (flag=0x01)
  1: 0x0068 [0x37] UPDATE_EVENT_POSITION_AND_DIR: x=-142.734*, z=467.019*, y=5.300*, direction=355.9°*
  2: 0x0071 [0x00] END_REQSTACK()
```

### Event 65535.8

#### Metadata

| Field        | Value    |
|--------------|----------|
| Entrypoint   | 0x0072   |
| Data Size    | 10 bytes |
| Instructions | 2        |

```
      00 01 02 03 04 05 06 07  08 09 0A 0B 0C 0D 0E 0F
      -- -- -- -- -- -- -- --  -- -- -- -- -- -- -- --
0070:       37 0C 80 16 80 17  80 0F 80 00                7.........    
```

#### Opcodes

```
  0: 0x0072 [0x37] UPDATE_EVENT_POSITION_AND_DIR: x=-139.072*, z=467.228*, y=6.173*, direction=210.2°*
  1: 0x007B [0x00] END_REQSTACK()
```

### Event 65535.9

#### Metadata

| Field        | Value    |
|--------------|----------|
| Entrypoint   | 0x007C   |
| Data Size    | 10 bytes |
| Instructions | 2        |

```
      00 01 02 03 04 05 06 07  08 09 0A 0B 0C 0D 0E 0F
      -- -- -- -- -- -- -- --  -- -- -- -- -- -- -- --
0070:                                      37 0C 80 18              7...
0080: 80 19 80 0F 80 00                                 ......          
```

#### Opcodes

```
  0: 0x007C [0x37] UPDATE_EVENT_POSITION_AND_DIR: x=-139.072*, z=467.000*, y=6.500*, direction=210.2°*
  1: 0x0085 [0x00] END_REQSTACK()
```

### Event 65535.10

#### Metadata

| Field        | Value    |
|--------------|----------|
| Entrypoint   | 0x0086   |
| Data Size    | 10 bytes |
| Instructions | 2        |

```
      00 01 02 03 04 05 06 07  08 09 0A 0B 0C 0D 0E 0F
      -- -- -- -- -- -- -- --  -- -- -- -- -- -- -- --
0080:                   37 1A  80 1B 80 1C 80 1D 80 00        7.........
```

#### Opcodes

```
  0: 0x0086 [0x37] UPDATE_EVENT_POSITION_AND_DIR: x=-144.513*, z=468.019*, y=4.034*, direction=242.5°*
  1: 0x008F [0x00] END_REQSTACK()
```
