# 17203903

## Common Data

| Field            | Value                   |
|------------------|-------------------------|
| Zone             | Jugner Forest (ID: 104) |
| Block Size       | 15124 bytes             |
| Total Events     | 3                       |
| References Count | 340                     |

## List of Events

| Event ID              | Entrypoint   |   Size |   Instructions |
|-----------------------|--------------|--------|----------------|
| [65535](#event-65535) | 0x0000       |    658 |             62 |
| [44](#event-44)       | 0x0292       |   9372 |           1092 |
| [45](#event-45)       | 0x272E       |   3705 |            463 |

## DAT References (imed_data)

|   Index | Hex Value   |   Dec Value |
|---------|-------------|-------------|
|       0 | 0x00C8      |         200 |
|       1 | 0x0000      |           0 |
|       2 | 0x00C9      |         201 |
|       3 | 0x0001      |           1 |
|       4 | 0x002D      |          45 |
|       5 | 0x0002      |           2 |
|       6 | 0x001E      |          30 |
|       7 | 0x00D7      |         215 |
|       8 | 0x0013      |          19 |
|       9 | 0x82354     |      533332 |
|      10 | 0x87E83     |      556675 |
|      11 | 0x0210      |         528 |
|      12 | 0x0831      |        2097 |
|      13 | 0x81D3A     |      531770 |
|      14 | 0x884F5     |      558325 |
|      15 | 0x017E      |         382 |
|      16 | 0x07FB      |        2043 |
|      17 | 0x838B7     |      538807 |
|      18 | 0x885AE     |      558510 |
|      19 | 0x03AB      |         939 |
|      20 | 0x0F91      |        3985 |
|      21 | 0x00C7      |         199 |
|      22 | 0x00FC      |         252 |
|      23 | 0x000B      |          11 |
|      24 | 0x000D      |          13 |
|      25 | 0x0005      |           5 |
|      26 | 0x01F0      |         496 |
|      27 | 0x0078      |         120 |
|      28 | 0x0003      |           3 |
|      29 | 0x0004      |           4 |
|      30 | 0x0006      |           6 |
|      31 | 0x0007      |           7 |
|      32 | 0x0008      |           8 |
|      33 | 0x003C      |          60 |
|      34 | 0x2E9C      |       11932 |
|      35 | 0x2E9D      |       11933 |
|      36 | 0x2E9E      |       11934 |
|      37 | 0x2E9F      |       11935 |
|      38 | 0x2EA0      |       11936 |
|      39 | 0x00B4      |         180 |
|      40 | 0x2EA1      |       11937 |
|      41 | 0x2EA2      |       11938 |
|      42 | 0x00E6      |         230 |
|      43 | 0x000F      |          15 |
|      44 | 0x014F      |         335 |
|      45 | 0xFFFB5F10  |  4294663952 |
|      46 | 0x185C7     |       99783 |
|      47 | 0xFFFFDC11  |  4294958097 |
|      48 | 0x01DB      |         475 |
|      49 | 0xFFFB628B  |  4294664843 |
|      50 | 0x17E31     |       97841 |
|      51 | 0xFFFB64D8  |  4294665432 |
|      52 | 0x18F5E     |      102238 |
|      53 | 0x009F      |         159 |
|      54 | 0x04F8      |        1272 |
|      55 | 0x2EA3      |       11939 |
|      56 | 0x2EA4      |       11940 |
|      57 | 0x0513      |        1299 |
|      58 | 0x0A5E      |        2654 |
|      59 | 0x2EA5      |       11941 |
|      60 | 0x0536      |        1334 |
|      61 | 0x0064      |         100 |
|      62 | 0x0C1A      |        3098 |
|      63 | 0x0032      |          50 |
|      64 | 0x2EA6      |       11942 |
|      65 | 0x00AA      |         170 |
|      66 | 0x0BA8      |        2984 |
|      67 | 0x000A      |          10 |
|      68 | 0x0096      |         150 |
|      69 | 0x2EA7      |       11943 |
|      70 | 0x2EA8      |       11944 |
|      71 | 0x0050      |          80 |
|      72 | 0xFFFD09F5  |  4294773237 |
|      73 | 0xF74F      |       63311 |
|      74 | 0xFFFFF769  |  4294965097 |
|      75 | 0x03E8      |        1000 |
|      76 | 0xFFFCFF39  |  4294770489 |
|      77 | 0x1135C     |       70492 |
|      78 | 0xFFFFF830  |  4294965296 |
|      79 | 0x01D9      |         473 |
|      80 | 0xFFFD2094  |  4294779028 |
|      81 | 0xAEA1      |       44705 |
|      82 | 0xFFFFFC18  |  4294966296 |
|      83 | 0x01BE      |         446 |
|      84 | 0xFFFD3435  |  4294784053 |
|      85 | 0x9360      |       37728 |
|      86 | 0x01D3      |         467 |
|      87 | 0xFFFD4B26  |  4294789926 |
|      88 | 0x8E2C      |       36396 |
|      89 | 0xFFFD1943  |  4294777155 |
|      90 | 0xA5F0      |       42480 |
|      91 | 0xFFFFFC19  |  4294966297 |
|      92 | 0xFFFD25FA  |  4294780410 |
|      93 | 0x9373      |       37747 |
|      94 | 0x01DA      |         474 |
|      95 | 0xFFFD3D0C  |  4294786316 |
|      96 | 0x9B68      |       39784 |
|      97 | 0x096C      |        2412 |
|      98 | 0xFFFD5610  |  4294792720 |
|      99 | 0x81A5      |       33189 |
|     100 | 0xFFFD365E  |  4294784606 |
|     101 | 0x86AE      |       34478 |
|     102 | 0xFFFCF4B7  |  4294767799 |
|     103 | 0xE0EA      |       57578 |
|     104 | 0xFFFFFA79  |  4294965881 |
|     105 | 0xFFFD430D  |  4294787853 |
|     106 | 0x9B83      |       39811 |
|     107 | 0xFFFFFA25  |  4294965797 |
|     108 | 0xFFFD082B  |  4294772779 |
|     109 | 0xA043      |       41027 |
|     110 | 0x00F7      |         247 |
|     111 | 0x2EA9      |       11945 |
|     112 | 0x2EAA      |       11946 |
|     113 | 0xFFFD82EE  |  4294804206 |
|     114 | 0x4C1C      |       19484 |
|     115 | 0x0043      |          67 |
|     116 | 0xFFFD9258  |  4294808152 |
|     117 | 0x4474      |       17524 |
|     118 | 0xFFFFFB51  |  4294966097 |
|     119 | 0xFFFE11C5  |  4294840773 |
|     120 | 0x3492      |       13458 |
|     121 | 0xFFFFDDA0  |  4294958496 |
|     122 | 0x0A28      |        2600 |
|     123 | 0xFFFDE136  |  4294828342 |
|     124 | 0x310C      |       12556 |
|     125 | 0x01BB      |         443 |
|     126 | 0xFFFD7E3D  |  4294803005 |
|     127 | 0x50F7      |       20727 |
|     128 | 0xFFFDB519  |  4294817049 |
|     129 | 0x5C35      |       23605 |
|     130 | 0xFFFD9017  |  4294807575 |
|     131 | 0x596D      |       22893 |
|     132 | 0xFFFDFB76  |  4294835062 |
|     133 | 0x2BF3      |       11251 |
|     134 | 0x0A85      |        2693 |
|     135 | 0xFFFDD9A5  |  4294826405 |
|     136 | 0x4DC5      |       19909 |
|     137 | 0x01BA      |         442 |
|     138 | 0xFFFDE5FC  |  4294829564 |
|     139 | 0x4182      |       16770 |
|     140 | 0xFFFFF831  |  4294965297 |
|     141 | 0x0B51      |        2897 |
|     142 | 0xFFFDCFA3  |  4294823843 |
|     143 | 0x44BB      |       17595 |
|     144 | 0x0AF0      |        2800 |
|     145 | 0xFFFDDF26  |  4294827814 |
|     146 | 0x49A2      |       18850 |
|     147 | 0x067C      |        1660 |
|     148 | 0xFFFDEEB4  |  4294831796 |
|     149 | 0x3F56      |       16214 |
|     150 | 0x08C0      |        2240 |
|     151 | 0x2EAB      |       11947 |
|     152 | 0x0587      |        1415 |
|     153 | 0x2EAC      |       11948 |
|     154 | 0x008C      |         140 |
|     155 | 0xFFFDDBC6  |  4294826950 |
|     156 | 0x4505      |       17669 |
|     157 | 0x07D0      |        2000 |
|     158 | 0xFFFDF21C  |  4294832668 |
|     159 | 0x6434      |       25652 |
|     160 | 0x0140      |         320 |
|     161 | 0x2305D     |      143453 |
|     162 | 0x0E10      |        3600 |
|     163 | 0xFFFDE01C  |  4294828060 |
|     164 | 0x4EBC      |       20156 |
|     165 | 0x072A      |        1834 |
|     166 | 0x0BA9      |        2985 |
|     167 | 0x006E      |         110 |
|     168 | 0xFFFE01E4  |  4294836708 |
|     169 | 0x48D5      |       18645 |
|     170 | 0x00DB      |         219 |
|     171 | 0x2EAD      |       11949 |
|     172 | 0x2EAE      |       11950 |
|     173 | 0x0080      |         128 |
|     174 | 0x0068      |         104 |
|     175 | 0x7F7D4     |      522196 |
|     176 | 0x85C55     |      547925 |
|     177 | 0x0191      |         401 |
|     178 | 0x04DE      |        1246 |
|     179 | 0x7F2BB     |      520891 |
|     180 | 0x82EFC     |      536316 |
|     181 | 0x032F      |         815 |
|     182 | 0x04AD      |        1197 |
|     183 | 0x80812     |      526354 |
|     184 | 0x88183     |      557443 |
|     185 | 0x0074      |         116 |
|     186 | 0x082C      |        2092 |
|     187 | 0x7FF25     |      524069 |
|     188 | 0x88807     |      559111 |
|     189 | 0x7FE3C     |      523836 |
|     190 | 0x85D67     |      548199 |
|     191 | 0x0176      |         374 |
|     192 | 0x0514      |        1300 |
|     193 | 0x059D      |        1437 |
|     194 | 0x2EAF      |       11951 |
|     195 | 0x2EB0      |       11952 |
|     196 | 0x2EB1      |       11953 |
|     197 | 0x2EB2      |       11954 |
|     198 | 0x2EB3      |       11955 |
|     199 | 0x001A      |          26 |
|     200 | 0x2EB4      |       11956 |
|     201 | 0x2EB5      |       11957 |
|     202 | 0x044C      |        1100 |
|     203 | 0x057F      |        1407 |
|     204 | 0x2EB6      |       11958 |
|     205 | 0x2EB7      |       11959 |
|     206 | 0x057D      |        1405 |
|     207 | 0x2EB8      |       11960 |
|     208 | 0x2EB9      |       11961 |
|     209 | 0x2EBA      |       11962 |
|     210 | 0x0C1C      |        3100 |
|     211 | 0x2EBB      |       11963 |
|     212 | 0x005A      |          90 |
|     213 | 0x2EBD      |       11965 |
|     214 | 0x2EBE      |       11966 |
|     215 | 0x0014      |          20 |
|     216 | 0x2EBF      |       11967 |
|     217 | 0x2EC0      |       11968 |
|     218 | 0x2EC1      |       11969 |
|     219 | 0x00A0      |         160 |
|     220 | 0x2EC2      |       11970 |
|     221 | 0x0C19      |        3097 |
|     222 | 0x2EC3      |       11971 |
|     223 | 0x2EC4      |       11972 |
|     224 | 0x0B50      |        2896 |
|     225 | 0x2EC5      |       11973 |
|     226 | 0x2EC6      |       11974 |
|     227 | 0x2EC7      |       11975 |
|     228 | 0x2EC8      |       11976 |
|     229 | 0x0A63      |        2659 |
|     230 | 0x2EC9      |       11977 |
|     231 | 0x2ECA      |       11978 |
|     232 | 0x7FEE3     |      524003 |
|     233 | 0x870B9     |      553145 |
|     234 | 0x2ECB      |       11979 |
|     235 | 0x0BAE      |        2990 |
|     236 | 0x2ECC      |       11980 |
|     237 | 0x2ECD      |       11981 |
|     238 | 0x0027      |          39 |
|     239 | 0x2ECE      |       11982 |
|     240 | 0x53062     |      340066 |
|     241 | 0x6E225     |      451109 |
|     242 | 0x07AA      |        1962 |
|     243 | 0x0E8F      |        3727 |
|     244 | 0x51C1E     |      334878 |
|     245 | 0x6D96E     |      448878 |
|     246 | 0x05D1      |        1489 |
|     247 | 0x078D      |        1933 |
|     248 | 0x2ECF      |       11983 |
|     249 | 0x2ED0      |       11984 |
|     250 | 0x0016      |          22 |
|     251 | 0x2ED1      |       11985 |
|     252 | 0x0019      |          25 |
|     253 | 0x2ED2      |       11986 |
|     254 | 0x2ED3      |       11987 |
|     255 | 0x2ED4      |       11988 |
|     256 | 0xFFFCD5E9  |  4294759913 |
|     257 | 0xFFFDAB61  |  4294814561 |
|     258 | 0x013D      |         317 |
|     259 | 0x0C2C      |        3116 |
|     260 | 0xFFFCF8D6  |  4294768854 |
|     261 | 0xFFFD96E4  |  4294809316 |
|     262 | 0x0C2D      |        3117 |
|     263 | 0xFFFBBCAC  |  4294687916 |
|     264 | 0xFFFD8FA4  |  4294807460 |
|     265 | 0xFFFFE0C0  |  4294959296 |
|     266 | 0xFFFBBE0F  |  4294688271 |
|     267 | 0xFFFD821D  |  4294803997 |
|     268 | 0x0BB8      |        3000 |
|     269 | 0x01EB      |         491 |
|     270 | 0xFFFCA620  |  4294747680 |
|     271 | 0xFFFD9450  |  4294808656 |
|     272 | 0x0894      |        2196 |
|     273 | 0x0765      |        1893 |
|     274 | 0x2ED5      |       11989 |
|     275 | 0x2ED6      |       11990 |
|     276 | 0xFFFBF9E5  |  4294703589 |
|     277 | 0xFFFD99A4  |  4294810020 |
|     278 | 0xFFFFEAA2  |  4294961826 |
|     279 | 0x0766      |        1894 |
|     280 | 0xFFFBED94  |  4294700436 |
|     281 | 0xFFFD89D5  |  4294805973 |
|     282 | 0xFFFFE993  |  4294961555 |
|     283 | 0x076B      |        1899 |
|     284 | 0x2ED7      |       11991 |
|     285 | 0x0082      |         130 |
|     286 | 0x001D      |          29 |
|     287 | 0x2ED8      |       11992 |
|     288 | 0x2ED9      |       11993 |
|     289 | 0x2EDA      |       11994 |
|     290 | 0x2EDB      |       11995 |
|     291 | 0x2EDC      |       11996 |
|     292 | 0x2EDD      |       11997 |
|     293 | 0x4B2E      |       19246 |
|     294 | 0xEA1F      |       59935 |
|     295 | 0xFFFFFE84  |  4294966916 |
|     296 | 0x407D      |       16509 |
|     297 | 0x13531     |       79153 |
|     298 | 0x0345      |         837 |
|     299 | 0x2578      |        9592 |
|     300 | 0x1032A     |       66346 |
|     301 | 0xFFFFFD8C  |  4294966668 |
|     302 | 0x036A      |         874 |
|     303 | 0xF05B      |       61531 |
|     304 | 0xFFFFFBC1  |  4294966209 |
|     305 | 0x11777     |       71543 |
|     306 | 0x5857      |       22615 |
|     307 | 0xF9CC      |       63948 |
|     308 | 0xFFFFFD80  |  4294966656 |
|     309 | 0x0804      |        2052 |
|     310 | 0x002C      |          44 |
|     311 | 0x2EDE      |       11998 |
|     312 | 0x00FF      |         255 |
|     313 | 0xFFFBCB26  |  4294691622 |
|     314 | 0xFFFD9074  |  4294807668 |
|     315 | 0xFFFFE0E3  |  4294959331 |
|     316 | 0x0777      |        1911 |
|     317 | 0xFFFBCAF3  |  4294691571 |
|     318 | 0xFFFD8582  |  4294804866 |
|     319 | 0xFFFFE0DC  |  4294959324 |
|     320 | 0x2EDF      |       11999 |
|     321 | 0x2EE0      |       12000 |
|     322 | 0x2EE1      |       12001 |
|     323 | 0x2EE2      |       12002 |
|     324 | 0x2EE3      |       12003 |
|     325 | 0x2EE4      |       12004 |
|     326 | 0x2EE5      |       12005 |
|     327 | 0x2EE6      |       12006 |
|     328 | 0x2EE7      |       12007 |
|     329 | 0x0026      |          38 |
|     330 | 0x2EE8      |       12008 |
|     331 | 0x2EE9      |       12009 |
|     332 | 0x2EEA      |       12010 |
|     333 | 0x2EEB      |       12011 |
|     334 | 0x2EEC      |       12012 |
|     335 | 0x2EED      |       12013 |
|     336 | 0x2EEE      |       12014 |
|     337 | 0x2EEF      |       12015 |
|     338 | 0x2EF0      |       12016 |
|     339 | 0x2EF1      |       12017 |

## String References

- **11934**: Are there times? [Yes./No.]

## Events

### Event 65535

#### Metadata

| Field        | Value     |
|--------------|-----------|
| Entrypoint   | 0x0000    |
| Data Size    | 658 bytes |
| Instructions | 1         |

```
      00 01 02 03 04 05 06 07  08 09 0A 0B 0C 0D 0E 0F
      -- -- -- -- -- -- -- --  -- -- -- -- -- -- -- --
0000: 00 45 00 80 F0 FF FF 7F  F0 FF FF 7F 66 64 69 30  .E..........fdi0
0010: 01 80 55 00 80 F0 FF FF  7F F0 FF FF 7F 66 64 69  ..U..........fdi
0020: 30 1B 45 00 80 F0 FF FF  7F F0 FF FF 7F 66 64 6F  0.E..........fdo
0030: 30 01 80 55 00 80 F0 FF  FF 7F F0 FF FF 7F 66 64  0..U..........fd
0040: 6F 30 1B 45 00 80 F0 FF  FF 7F F0 FF FF 7F 66 64  o0.E..........fd
0050: 69 31 01 80 55 00 80 F0  FF FF 7F F0 FF FF 7F 66  i1..U..........f
0060: 64 69 31 1B 45 00 80 F0  FF FF 7F F0 FF FF 7F 66  di1.E..........f
0070: 64 6F 31 01 80 55 00 80  F0 FF FF 7F F0 FF FF 7F  do1..U..........
0080: 66 64 6F 31 1B 45 02 80  F0 FF FF 7F F0 FF FF 7F  fdo1.E..........
0090: 77 68 69 31 01 80 55 02  80 F0 FF FF 7F F0 FF FF  whi1..U.........
00A0: 7F 77 68 69 31 1B 45 02  80 F0 FF FF 7F F0 FF FF  .whi1.E.........
00B0: 7F 77 68 6F 31 01 80 55  02 80 F0 FF FF 7F F0 FF  .who1..U........
00C0: FF 7F 77 68 6F 31 1B 45  02 80 F0 FF FF 7F F0 FF  ..who1.E........
00D0: FF 7F 77 68 6F 32 01 80  55 02 80 F0 FF FF 7F F0  ..who2..U.......
00E0: FF FF 7F 77 68 6F 32 1B  45 02 80 F0 FF FF 7F F0  ...who2.E.......
00F0: FF FF 7F 77 68 6F 33 01  80 55 02 80 F0 FF FF 7F  ...who3..U......
0100: F0 FF FF 7F 77 68 6F 33  1B 62 03 80 F0 FF FF 7F  ....who3.b......
0110: F0 FF FF 7F 6D 61 69 6E  01 80 1C 04 80 45 00 80  ....main.....E..
0120: F0 FF FF 7F F0 FF FF 7F  66 64 6F 31 01 80 55 00  ........fdo1..U.
0130: 80 F0 FF FF 7F F0 FF FF  7F 66 64 6F 31 1B 45 00  .........fdo1.E.
0140: 80 F0 FF FF 7F F0 FF FF  7F 66 64 69 31 01 80 62  .........fdi1..b
0150: 05 80 F0 FF FF 7F F0 FF  FF 7F 6D 61 69 6E 01 80  ..........main..
0160: 1C 06 80 55 00 80 F0 FF  FF 7F F0 FF FF 7F 66 64  ...U..........fd
0170: 69 31 1B 45 00 80 F0 FF  FF 7F F0 FF FF 7F 62 6C  i1.E..........bl
0180: 6F 6E 01 80 45 02 80 F0  FF FF 7F F0 FF FF 7F 62  on..E..........b
0190: 6C 6F 6E 01 80 1B 45 02  80 F0 FF FF 7F F0 FF FF  lon...E.........
01A0: 7F 77 68 69 30 01 80 55  02 80 F0 FF FF 7F F0 FF  .whi0..U........
01B0: FF 7F 77 68 69 30 1B 45  02 80 F0 FF FF 7F F0 FF  ..whi0.E........
01C0: FF 7F 77 68 6F 30 01 80  55 02 80 F0 FF FF 7F F0  ..who0..U.......
01D0: FF FF 7F 77 68 6F 30 1B  45 07 80 F0 FF FF 7F F0  ...who0.E.......
01E0: FF FF 7F 65 66 6F 6E 01  80 55 07 80 F0 FF FF 7F  ...efon..U......
01F0: F0 FF FF 7F 65 66 6F 6E  1B 45 00 80 F0 FF FF 7F  ....efon.E......
0200: F0 FF FF 7F 66 64 69 73  01 80 1B 45 00 80 F0 FF  ....fdis...E....
0210: FF 7F F0 FF FF 7F 66 64  6F 73 01 80 55 00 80 F0  ......fdos..U...
0220: FF FF 7F F0 FF FF 7F 66  64 6F 73 1B 45 00 80 F0  .......fdos.E...
0230: FF FF 7F F0 FF FF 7F 66  64 69 66 01 80 1B 45 00  .......fdif...E.
0240: 80 F0 FF FF 7F F0 FF FF  7F 66 64 6F 66 01 80 55  .........fdof..U
0250: 00 80 F0 FF FF 7F F0 FF  FF 7F 66 64 6F 66 1B 45  ..........fdof.E
0260: 00 80 F0 FF FF 7F F0 FF  FF 7F 66 64 69 70 01 80  ..........fdip..
0270: 1B 45 00 80 F0 FF FF 7F  F0 FF FF 7F 66 64 6F 70  .E..........fdop
0280: 01 80 55 00 80 F0 FF FF  7F F0 FF FF 7F 66 64 6F  ..U..........fdo
0290: 70 1B                                             p.              
```

#### Opcodes

```
  0: 0x0000 [0x00] END_REQSTACK()
```

#### Data or dead code:

```
# Dead code (unreachable instructions):
     0x0001 [0x45] LOAD_SCHEDULED_TASK: Load scheduler "fdi0" with entities [LocalPlayer, LocalPlayer], work=[200*, 0*]
     0x0012 [0x55] WAIT_LOAD_SCHEDULER: Wait for scheduler "fdi0" with entities [LocalPlayer, LocalPlayer], work=200*
     0x0021 [0x1B] RETURN
     0x0022 [0x45] LOAD_SCHEDULED_TASK: Load scheduler "fdo0" with entities [LocalPlayer, LocalPlayer], work=[200*, 0*]
     0x0033 [0x55] WAIT_LOAD_SCHEDULER: Wait for scheduler "fdo0" with entities [LocalPlayer, LocalPlayer], work=200*
     0x0042 [0x1B] RETURN
     0x0043 [0x45] LOAD_SCHEDULED_TASK: Load scheduler "fdi1" with entities [LocalPlayer, LocalPlayer], work=[200*, 0*]
     0x0054 [0x55] WAIT_LOAD_SCHEDULER: Wait for scheduler "fdi1" with entities [LocalPlayer, LocalPlayer], work=200*
     0x0063 [0x1B] RETURN
     0x0064 [0x45] LOAD_SCHEDULED_TASK: Load scheduler "fdo1" with entities [LocalPlayer, LocalPlayer], work=[200*, 0*]
     0x0075 [0x55] WAIT_LOAD_SCHEDULER: Wait for scheduler "fdo1" with entities [LocalPlayer, LocalPlayer], work=200*
     0x0084 [0x1B] RETURN
     0x0085 [0x45] LOAD_SCHEDULED_TASK: Load scheduler "whi1" with entities [LocalPlayer, LocalPlayer], work=[201*, 0*]
     0x0096 [0x55] WAIT_LOAD_SCHEDULER: Wait for scheduler "whi1" with entities [LocalPlayer, LocalPlayer], work=201*
     0x00A5 [0x1B] RETURN
     0x00A6 [0x45] LOAD_SCHEDULED_TASK: Load scheduler "who1" with entities [LocalPlayer, LocalPlayer], work=[201*, 0*]
     0x00B7 [0x55] WAIT_LOAD_SCHEDULER: Wait for scheduler "who1" with entities [LocalPlayer, LocalPlayer], work=201*
     0x00C6 [0x1B] RETURN
     0x00C7 [0x45] LOAD_SCHEDULED_TASK: Load scheduler "who2" with entities [LocalPlayer, LocalPlayer], work=[201*, 0*]
     0x00D8 [0x55] WAIT_LOAD_SCHEDULER: Wait for scheduler "who2" with entities [LocalPlayer, LocalPlayer], work=201*
     0x00E7 [0x1B] RETURN
     0x00E8 [0x45] LOAD_SCHEDULED_TASK: Load scheduler "who3" with entities [LocalPlayer, LocalPlayer], work=[201*, 0*]
     0x00F9 [0x55] WAIT_LOAD_SCHEDULER: Wait for scheduler "who3" with entities [LocalPlayer, LocalPlayer], work=201*
     0x0108 [0x1B] RETURN
     0x0109 [0x62] LOAD_EVENT_SCHEDULER: Load scheduler "main" with entities [LocalPlayer, LocalPlayer], work=[1*, 0*]
     0x011A [0x1C] WAIT(45* ticks)
     0x011D [0x45] LOAD_SCHEDULED_TASK: Load scheduler "fdo1" with entities [LocalPlayer, LocalPlayer], work=[200*, 0*]
     0x012E [0x55] WAIT_LOAD_SCHEDULER: Wait for scheduler "fdo1" with entities [LocalPlayer, LocalPlayer], work=200*
     0x013D [0x1B] RETURN
     0x013E [0x45] LOAD_SCHEDULED_TASK: Load scheduler "fdi1" with entities [LocalPlayer, LocalPlayer], work=[200*, 0*]
     0x014F [0x62] LOAD_EVENT_SCHEDULER: Load scheduler "main" with entities [LocalPlayer, LocalPlayer], work=[2*, 0*]
     0x0160 [0x1C] WAIT(30* ticks)
     0x0163 [0x55] WAIT_LOAD_SCHEDULER: Wait for scheduler "fdi1" with entities [LocalPlayer, LocalPlayer], work=200*
     0x0172 [0x1B] RETURN
     0x0173 [0x45] LOAD_SCHEDULED_TASK: Load scheduler "blon" with entities [LocalPlayer, LocalPlayer], work=[200*, 0*]
     0x0184 [0x45] LOAD_SCHEDULED_TASK: Load scheduler "blon" with entities [LocalPlayer, LocalPlayer], work=[201*, 0*]
     0x0195 [0x1B] RETURN
     0x0196 [0x45] LOAD_SCHEDULED_TASK: Load scheduler "whi0" with entities [LocalPlayer, LocalPlayer], work=[201*, 0*]
     0x01A7 [0x55] WAIT_LOAD_SCHEDULER: Wait for scheduler "whi0" with entities [LocalPlayer, LocalPlayer], work=201*
     0x01B6 [0x1B] RETURN
     0x01B7 [0x45] LOAD_SCHEDULED_TASK: Load scheduler "who0" with entities [LocalPlayer, LocalPlayer], work=[201*, 0*]
     0x01C8 [0x55] WAIT_LOAD_SCHEDULER: Wait for scheduler "who0" with entities [LocalPlayer, LocalPlayer], work=201*
     0x01D7 [0x1B] RETURN
     0x01D8 [0x45] LOAD_SCHEDULED_TASK: Load scheduler "efon" with entities [LocalPlayer, LocalPlayer], work=[215*, 0*]
     0x01E9 [0x55] WAIT_LOAD_SCHEDULER: Wait for scheduler "efon" with entities [LocalPlayer, LocalPlayer], work=215*
     0x01F8 [0x1B] RETURN
     0x01F9 [0x45] LOAD_SCHEDULED_TASK: Load scheduler "fdis" with entities [LocalPlayer, LocalPlayer], work=[200*, 0*]
     0x020A [0x1B] RETURN
     0x020B [0x45] LOAD_SCHEDULED_TASK: Load scheduler "fdos" with entities [LocalPlayer, LocalPlayer], work=[200*, 0*]
     0x021C [0x55] WAIT_LOAD_SCHEDULER: Wait for scheduler "fdos" with entities [LocalPlayer, LocalPlayer], work=200*
     0x022B [0x1B] RETURN
     0x022C [0x45] LOAD_SCHEDULED_TASK: Load scheduler "fdif" with entities [LocalPlayer, LocalPlayer], work=[200*, 0*]
     0x023D [0x1B] RETURN
     0x023E [0x45] LOAD_SCHEDULED_TASK: Load scheduler "fdof" with entities [LocalPlayer, LocalPlayer], work=[200*, 0*]
     0x024F [0x55] WAIT_LOAD_SCHEDULER: Wait for scheduler "fdof" with entities [LocalPlayer, LocalPlayer], work=200*
     0x025E [0x1B] RETURN
     0x025F [0x45] LOAD_SCHEDULED_TASK: Load scheduler "fdip" with entities [LocalPlayer, LocalPlayer], work=[200*, 0*]
     0x0270 [0x1B] RETURN
     0x0271 [0x45] LOAD_SCHEDULED_TASK: Load scheduler "fdop" with entities [LocalPlayer, LocalPlayer], work=[200*, 0*]
     0x0282 [0x55] WAIT_LOAD_SCHEDULER: Wait for scheduler "fdop" with entities [LocalPlayer, LocalPlayer], work=200*
     0x0291 [0x1B] RETURN
```

### Event 44

#### Metadata

| Field        | Value      |
|--------------|------------|
| Entrypoint   | 0x0292     |
| Data Size    | 9372 bytes |
| Instructions | 1092       |

```
      00 01 02 03 04 05 06 07  08 09 0A 0B 0C 0D 0E 0F
      -- -- -- -- -- -- -- --  -- -- -- -- -- -- -- --
0290:       42 1A 64 00 46 01  38 08 80 4E 00 F0 FF FF    B.d.F.8..N....
02A0: 7F 27 10 C0 82 06 01 04  27 10 CC 82 06 01 04 27  .'......'......'
02B0: 10 CD 82 06 01 04 27 10  C3 82 06 01 04 92 01 C0  ......'.........
02C0: 82 06 01 92 01 C1 82 06  01 92 01 CC 82 06 01 92  ................
02D0: 01 CD 82 06 01 94 01 F0  FF FF 7F 94 01 C0 82 06  ................
02E0: 01 94 01 C1 82 06 01 94  01 CC 82 06 01 94 01 CD  ................
02F0: 82 06 01 BA F0 FF FF 7F  09 80 0A 80 0B 80 0C 80  ................
0300: BA C0 82 06 01 0D 80 0E  80 0F 80 10 80 BA C1 82  ................
0310: 06 01 11 80 12 80 13 80  14 80 80 F0 FF FF 7F 80  ................
0320: C0 82 06 01 80 C1 82 06  01 80 CC 82 06 01 80 CD  ................
0330: 82 06 01 27 10 CB 82 06  01 0A 27 10 C2 82 06 01  ...'......'.....
0340: 10 27 10 C4 82 06 01 14  BB 15 80 CC 82 06 01 CC  .'..............
0350: 82 06 01 6B 6C 30 31 01  80 BB 15 80 CD 82 06 01  ...kl01.........
0360: CD 82 06 01 6B 6C 30 31  01 80 BB 15 80 C3 82 06  ....kl01........
0370: 01 C3 82 06 01 6B 6C 30  31 01 80 5C 00 16 80 5C  .....kl01..\...\
0380: 01 16 80 5C 02 16 80 5C  03 16 80 9A 59 04 F0 FF  ...\...\....Y...
0390: FF 7F 17 80 59 04 C0 82  06 01 18 80 27 10 C0 82  ....Y.......'...
03A0: 06 01 0A 27 10 F0 FF FF  7F 24 1C 19 80 45 1A 80  ...'.....$...E..
03B0: F0 FF FF 7F F0 FF FF 7F  70 31 30 31 01 80 1A 43  ........p101...C
03C0: 00 1C 1B 80 29 10 F0 FF  FF 7F 1E 02 02 10 03 80  ....)...........
03D0: 80 F6 03 52 1A 80 F0 FF  FF 7F F0 FF FF 7F 70 31  ...R..........p1
03E0: 30 31 45 1A 80 F0 FF FF  7F F0 FF FF 7F 70 68 6D  01E..........phm
03F0: 31 01 80 01 23 05 02 02  10 05 80 80 21 04 52 1A  1...#.......!.R.
0400: 80 F0 FF FF 7F F0 FF FF  7F 70 31 30 31 45 1A 80  .........p101E..
0410: F0 FF FF 7F F0 FF FF 7F  70 68 6D 31 01 80 01 23  ........phm1...#
0420: 05 02 02 10 1C 80 80 4C  04 52 1A 80 F0 FF FF 7F  .......L.R......
0430: F0 FF FF 7F 70 31 30 31  45 1A 80 F0 FF FF 7F F0  ....p101E.......
0440: FF FF 7F 70 65 6D 31 01  80 01 23 05 02 02 10 1D  ...pem1...#.....
0450: 80 80 77 04 52 1A 80 F0  FF FF 7F F0 FF FF 7F 70  ..w.R..........p
0460: 31 30 31 45 1A 80 F0 FF  FF 7F F0 FF FF 7F 70 65  101E..........pe
0470: 6D 31 01 80 01 23 05 02  02 10 19 80 80 A2 04 52  m1...#.........R
0480: 1A 80 F0 FF FF 7F F0 FF  FF 7F 70 31 30 31 45 1A  ..........p101E.
0490: 80 F0 FF FF 7F F0 FF FF  7F 70 74 72 31 01 80 01  .........ptr1...
04A0: 23 05 02 02 10 1E 80 80  CD 04 52 1A 80 F0 FF FF  #.........R.....
04B0: 7F F0 FF FF 7F 70 31 30  31 45 1A 80 F0 FF FF 7F  .....p101E......
04C0: F0 FF FF 7F 70 74 72 31  01 80 01 23 05 02 02 10  ....ptr1...#....
04D0: 1F 80 80 F8 04 52 1A 80  F0 FF FF 7F F0 FF FF 7F  .....R..........
04E0: 70 31 30 31 45 1A 80 F0  FF FF 7F F0 FF FF 7F 70  p101E..........p
04F0: 68 6D 31 01 80 01 23 05  02 02 10 20 80 80 23 05  hm1...#.... ..#.
0500: 52 1A 80 F0 FF FF 7F F0  FF FF 7F 70 31 30 31 45  R..........p101E
0510: 1A 80 F0 FF FF 7F F0 FF  FF 7F 70 65 6D 31 01 80  ..........pem1..
0520: 01 23 05 1C 21 80 2B C0  82 06 01 22 80 23 79 00  .#..!.+....".#y.
0530: F0 FF FF 7F C0 82 06 01  52 1A 80 F0 FF FF 7F F0  ........R.......
0540: FF FF 7F 70 68 6D 31 52  1A 80 F0 FF FF 7F F0 FF  ...phm1R........
0550: FF 7F 70 65 6D 31 52 1A  80 F0 FF FF 7F F0 FF FF  ..pem1R.........
0560: 7F 70 74 72 31 45 1A 80  F0 FF FF 7F F0 FF FF 7F  .ptr1E..........
0570: 70 31 30 32 01 80 1C 06  80 4A F0 FF FF 7F C0 82  p102.....J......
0580: 06 01 6F 76 F0 FF FF 7F  7B F0 FF FF 7F 5D 01 80  ..ov....{....]..
0590: 1B 80 2B C0 82 06 01 23  80 23 29 10 F0 FF FF 7F  ..+....#.#).....
05A0: 1E 02 02 10 03 80 80 CC  05 52 1A 80 F0 FF FF 7F  .........R......
05B0: F0 FF FF 7F 70 31 30 32  45 1A 80 F0 FF FF 7F F0  ....p102E.......
05C0: FF FF 7F 70 68 6D 32 01  80 01 F9 06 02 02 10 05  ...phm2.........
05D0: 80 80 F7 05 52 1A 80 F0  FF FF 7F F0 FF FF 7F 70  ....R..........p
05E0: 31 30 32 45 1A 80 F0 FF  FF 7F F0 FF FF 7F 70 68  102E..........ph
05F0: 6D 32 01 80 01 F9 06 02  02 10 1C 80 80 22 06 52  m2...........".R
0600: 1A 80 F0 FF FF 7F F0 FF  FF 7F 70 31 30 32 45 1A  ..........p102E.
0610: 80 F0 FF FF 7F F0 FF FF  7F 70 65 6D 32 01 80 01  .........pem2...
0620: F9 06 02 02 10 1D 80 80  4D 06 52 1A 80 F0 FF FF  ........M.R.....
0630: 7F F0 FF FF 7F 70 31 30  32 45 1A 80 F0 FF FF 7F  .....p102E......
0640: F0 FF FF 7F 70 65 6D 32  01 80 01 F9 06 02 02 10  ....pem2........
0650: 19 80 80 78 06 52 1A 80  F0 FF FF 7F F0 FF FF 7F  ...x.R..........
0660: 70 31 30 32 45 1A 80 F0  FF FF 7F F0 FF FF 7F 70  p102E..........p
0670: 74 72 32 01 80 01 F9 06  02 02 10 1E 80 80 A3 06  tr2.............
0680: 52 1A 80 F0 FF FF 7F F0  FF FF 7F 70 31 30 32 45  R..........p102E
0690: 1A 80 F0 FF FF 7F F0 FF  FF 7F 70 74 72 32 01 80  ..........ptr2..
06A0: 01 F9 06 02 02 10 1F 80  80 CE 06 52 1A 80 F0 FF  ...........R....
06B0: FF 7F F0 FF FF 7F 70 31  30 32 45 1A 80 F0 FF FF  ......p102E.....
06C0: 7F F0 FF FF 7F 70 6D 74  32 01 80 01 F9 06 02 02  .....pmt2.......
06D0: 10 20 80 80 F9 06 52 1A  80 F0 FF FF 7F F0 FF FF  . ....R.........
06E0: 7F 70 31 30 32 45 1A 80  F0 FF FF 7F F0 FF FF 7F  .p102E..........
06F0: 70 67 6C 32 01 80 01 F9  06 24 24 80 01 80 01 80  pgl2.....$$.....
0700: 25 02 00 10 01 80 00 9F  07 6E F0 FF FF 7F 1F 80  %........n......
0710: 99 F0 FF FF 7F 1C 1B 80  4A C0 82 06 01 F0 FF FF  ........J.......
0720: 7F 7B C0 82 06 01 1C 06  80 52 1A 80 F0 FF FF 7F  .{.......R......
0730: F0 FF FF 7F 70 68 6D 32  52 1A 80 F0 FF FF 7F F0  ....phm2R.......
0740: FF FF 7F 70 65 6D 32 52  1A 80 F0 FF FF 7F F0 FF  ...pem2R........
0750: FF 7F 70 74 72 32 52 1A  80 F0 FF FF 7F F0 FF FF  ..ptr2R.........
0760: 7F 70 6D 74 32 52 1A 80  F0 FF FF 7F F0 FF FF 7F  .pmt2R..........
0770: 70 67 6C 32 45 1A 80 F0  FF FF 7F F0 FF FF 7F 70  pgl2E..........p
0780: 31 30 33 01 80 2B C0 82  06 01 25 80 23 52 1A 80  103..+....%.#R..
0790: F0 FF FF 7F F0 FF FF 7F  70 31 30 33 01 3D 08 02  ........p103.=..
07A0: 00 10 03 80 00 3D 08 6E  F0 FF FF 7F 1E 80 99 F0  .....=.n........
07B0: FF FF 7F 1C 1B 80 4A C0  82 06 01 F0 FF FF 7F 7B  ......J........{
07C0: C0 82 06 01 1C 06 80 52  1A 80 F0 FF FF 7F F0 FF  .......R........
07D0: FF 7F 70 68 6D 32 52 1A  80 F0 FF FF 7F F0 FF FF  ..phm2R.........
07E0: 7F 70 65 6D 32 52 1A 80  F0 FF FF 7F F0 FF FF 7F  .pem2R..........
07F0: 70 74 72 32 52 1A 80 F0  FF FF 7F F0 FF FF 7F 70  ptr2R..........p
0800: 6D 74 32 52 1A 80 F0 FF  FF 7F F0 FF FF 7F 70 67  mt2R..........pg
0810: 6C 32 45 1A 80 F0 FF FF  7F F0 FF FF 7F 70 31 30  l2E..........p10
0820: 33 01 80 2B C0 82 06 01  26 80 23 52 1A 80 F0 FF  3..+....&.#R....
0830: FF 7F F0 FF FF 7F 70 31  30 33 01 3D 08 52 1A 80  ......p103.=.R..
0840: F0 FF FF 7F F0 FF FF 7F  70 68 6D 32 52 1A 80 F0  ........phm2R...
0850: FF FF 7F F0 FF FF 7F 70  65 6D 32 52 1A 80 F0 FF  .......pem2R....
0860: FF 7F F0 FF FF 7F 70 74  72 32 52 1A 80 F0 FF FF  ......ptr2R.....
0870: 7F F0 FF FF 7F 70 6D 74  32 52 1A 80 F0 FF FF 7F  .....pmt2R......
0880: F0 FF FF 7F 70 67 6C 32  45 1A 80 F0 FF FF 7F F0  ....pgl2E.......
0890: FF FF 7F 70 31 30 34 01  80 5D 01 80 27 80 2B C0  ...p104..]..'.+.
08A0: 82 06 01 28 80 23 2B C0  82 06 01 29 80 23 45 00  ...(.#+....).#E.
08B0: 80 F0 FF FF 7F F0 FF FF  7F 66 64 6F 32 01 80 55  .........fdo2..U
08C0: 00 80 F0 FF FF 7F F0 FF  FF 7F 66 64 6F 32 52 1A  ..........fdo2R.
08D0: 80 F0 FF FF 7F F0 FF FF  7F 70 31 30 34 7B F0 FF  .........p104{..
08E0: FF 7F 34 2A 80 77 01 80  03 80 AB 09 1C 2B 80 75  ..4*.w.......+.u
08F0: 00 2C 80 75 01 27 10 C4  82 06 01 04 27 10 C5 82  .,.u.'......'...
0900: 06 01 04 27 10 C1 82 06  01 04 92 01 C4 82 06 01  ...'............
0910: 92 01 C5 82 06 01 92 01  C1 82 06 01 94 01 C4 82  ................
0920: 06 01 94 01 C1 82 06 01  94 01 C5 82 06 01 BA C0  ................
0930: 82 06 01 2D 80 2E 80 2F  80 30 80 BA C4 82 06 01  ...-.../.0......
0940: 31 80 32 80 2F 80 30 80  BA C5 82 06 01 33 80 34  1.2./.0......3.4
0950: 80 2F 80 30 80 4A C0 82  06 01 C4 82 06 01 4A C4  ./.0.J........J.
0960: 82 06 01 C0 82 06 01 4A  C5 82 06 01 C4 82 06 01  .......J........
0970: 7B C0 82 06 01 7B C4 82  06 01 7B C5 82 06 01 7B  {....{....{....{
0980: C6 82 06 01 7B C7 82 06  01 7B C8 82 06 01 7B C9  ....{....{....{.
0990: 82 06 01 7B CA 82 06 01  7B CB 82 06 01 80 C4 82  ...{....{.......
09A0: 06 01 80 C5 82 06 01 80  C6 82 06 01 80 C7 82 06  ................
09B0: 01 80 C8 82 06 01 80 C9  82 06 01 80 CA 82 06 01  ................
09C0: 80 CB 82 06 01 1C 19 80  2C C0 82 06 01 C0 82 06  ........,.......
09D0: 01 77 70 6F 66 29 10 C4  82 06 01 0B 29 10 C5 82  .wpof)......)...
09E0: 06 01 0A 5C 00 35 80 5C  01 35 80 1C 21 80 9A 59  ...\.5.\.5..!..Y
09F0: 04 C4 82 06 01 18 80 1C  19 80 45 1A 80 F0 FF FF  ..........E.....
0A00: 7F F0 FF FF 7F 70 31 30  35 01 80 1A D8 01 1C 1B  .....p105.......
0A10: 80 52 1A 80 F0 FF FF 7F  F0 FF FF 7F 70 31 30 35  .R..........p105
0A20: 45 1A 80 F0 FF FF 7F F0  FF FF 7F 70 31 30 36 01  E..........p106.
0A30: 80 5B 36 80 C0 82 06 01  C0 82 06 01 74 6C 62 30  .[6.........tlb0
0A40: 2B C0 82 06 01 37 80 23  52 1A 80 F0 FF FF 7F F0  +....7.#R.......
0A50: FF FF 7F 70 31 30 36 45  1A 80 F0 FF FF 7F F0 FF  ...p106E........
0A60: FF 7F 70 31 30 37 01 80  5B 36 80 C0 82 06 01 C0  ..p107..[6......
0A70: 82 06 01 74 6C 62 31 2B  C4 82 06 01 38 80 23 5B  ...tlb1+....8.#[
0A80: 39 80 C0 82 06 01 C0 82  06 01 66 68 30 31 5B 3A  9.........fh01[:
0A90: 80 C0 82 06 01 C0 82 06  01 75 74 75 30 1C 19 80  .........utu0...
0AA0: 52 1A 80 F0 FF FF 7F F0  FF FF 7F 70 31 30 37 45  R..........p107E
0AB0: 1A 80 F0 FF FF 7F F0 FF  FF 7F 70 31 35 38 01 80  ..........p158..
0AC0: 2B C0 82 06 01 3B 80 23  4A C5 82 06 01 C0 82 06  +....;.#J.......
0AD0: 01 6F 76 C5 82 06 01 5B  3C 80 C5 82 06 01 C5 82  .ov....[<.......
0AE0: 06 01 74 6C 61 30 1C 19  80 52 1A 80 F0 FF FF 7F  ..tla0...R......
0AF0: F0 FF FF 7F 70 31 35 38  45 1A 80 F0 FF FF 7F F0  ....p158E.......
0B00: FF FF 7F 70 31 37 33 01  80 1C 3D 80 5B 3E 80 C4  ...p173...=.[>..
0B10: 82 06 01 C4 82 06 01 6B  65 6E 30 1C 3F 80 52 1A  .......ken0.?.R.
0B20: 80 F0 FF FF 7F F0 FF FF  7F 70 31 37 33 45 1A 80  .........p173E..
0B30: F0 FF FF 7F F0 FF FF 7F  70 31 30 38 01 80 1C 21  ........p108...!
0B40: 80 2B C4 82 06 01 40 80  1C 41 80 5B 39 80 C0 82  .+....@..A.[9...
0B50: 06 01 C0 82 06 01 66 30  30 30 2C C0 82 06 01 C0  ......f000,.....
0B60: 82 06 01 77 70 6F 6E 7C  01 C0 82 06 01 81 01 C0  ...wpon|........
0B70: 82 06 01 5B 42 80 C0 82  06 01 C0 82 06 01 72 79  ...[B.........ry
0B80: 6F 30 1C 43 80 52 1A 80  F0 FF FF 7F F0 FF FF 7F  o0.C.R..........
0B90: 70 31 30 38 45 1A 80 F0  FF FF 7F F0 FF FF 7F 70  p108E..........p
0BA0: 31 36 30 01 80 1C 43 80  27 10 C4 82 06 01 0C 6B  160...C.'......k
0BB0: 69 64 6C 30 C4 82 06 01  1C 44 80 52 1A 80 F0 FF  idl0.....D.R....
0BC0: FF 7F F0 FF FF 7F 70 31  36 30 45 1A 80 F0 FF FF  ......p160E.....
0BD0: 7F F0 FF FF 7F 70 31 31  30 01 80 03 02 10 1B 80  .....p110.......
0BE0: 27 10 C3 82 06 01 0A 2B  C4 82 06 01 45 80 23 2A  '......+....E.#*
0BF0: 10 C3 82 06 01 52 1A 80  F0 FF FF 7F F0 FF FF 7F  .....R..........
0C00: 70 31 31 30 45 1A 80 F0  FF FF 7F F0 FF FF 7F 70  p110E..........p
0C10: 31 31 31 01 80 5B 42 80  C0 82 06 01 C0 82 06 01  111..[B.........
0C20: 72 79 6F 31 1C 3D 80 52  1A 80 F0 FF FF 7F F0 FF  ryo1.=.R........
0C30: FF 7F 70 31 31 31 45 1A  80 F0 FF FF 7F F0 FF FF  ..p111E.........
0C40: 7F 70 31 35 39 01 80 2B  C0 82 06 01 46 80 23 5D  .p159..+....F.#]
0C50: 01 80 21 80 45 00 80 F0  FF FF 7F F0 FF FF 7F 66  ..!.E..........f
0C60: 64 6F 32 01 80 55 00 80  F0 FF FF 7F F0 FF FF 7F  do2..U..........
0C70: 66 64 6F 32 52 1A 80 F0  FF FF 7F F0 FF FF 7F 70  fdo2R..........p
0C80: 31 35 39 2C C0 82 06 01  C0 82 06 01 77 70 6F 6E  159,........wpon
0C90: 34 47 80 AB 09 1C 2B 80  77 05 80 01 80 27 10 C4  4G....+.w....'..
0CA0: 82 06 01 04 27 10 C5 82  06 01 04 27 10 C6 82 06  ....'......'....
0CB0: 01 04 27 10 C7 82 06 01  04 27 10 C8 82 06 01 04  ..'......'......
0CC0: 27 10 C9 82 06 01 04 27  10 CE 82 06 01 04 27 10  '......'......'.
0CD0: D3 82 06 01 04 27 10 CA  82 06 01 04 27 10 CB 82  .....'......'...
0CE0: 06 01 04 92 01 CE 82 06  01 92 01 C6 82 06 01 92  ................
0CF0: 01 C7 82 06 01 92 01 C8  82 06 01 92 01 C9 82 06  ................
0D00: 01 92 01 CA 82 06 01 92  01 CB 82 06 01 94 01 CE  ................
0D10: 82 06 01 94 01 C6 82 06  01 94 01 C7 82 06 01 94  ................
0D20: 01 C8 82 06 01 94 01 C9  82 06 01 94 01 CA 82 06  ................
0D30: 01 94 01 CB 82 06 01 94  01 D3 82 06 01 7B CE 82  .............{..
0D40: 06 01 7B C6 82 06 01 7B  C7 82 06 01 7B C8 82 06  ..{....{....{...
0D50: 01 7B C9 82 06 01 7B CA  82 06 01 7B CB 82 06 01  .{....{....{....
0D60: 7B D3 82 06 01 80 C4 82  06 01 80 C5 82 06 01 80  {...............
0D70: C0 82 06 01 80 D3 82 06  01 80 CE 82 06 01 80 C6  ................
0D80: 82 06 01 80 C7 82 06 01  80 C8 82 06 01 80 C9 82  ................
0D90: 06 01 80 CA 82 06 01 80  CB 82 06 01 1C 19 80 29  ...............)
0DA0: 10 CE 82 06 01 0C 29 10  C4 82 06 01 0E 29 10 C5  ......)......)..
0DB0: 82 06 01 0B 29 10 CE 82  06 01 0A 29 10 D3 82 06  ....)......)....
0DC0: 01 09 29 10 CB 82 06 01  09 BA CE 82 06 01 48 80  ..)...........H.
0DD0: 49 80 4A 80 4B 80 BA D3  82 06 01 4C 80 4D 80 4E  I.J.K......L.M.N
0DE0: 80 4F 80 BA C6 82 06 01  50 80 51 80 52 80 53 80  .O......P.Q.R.S.
0DF0: BA C7 82 06 01 54 80 55  80 52 80 56 80 BA C8 82  .....T.U.R.V....
0E00: 06 01 57 80 58 80 52 80  4F 80 BA C9 82 06 01 59  ..W.X.R.O......Y
0E10: 80 5A 80 5B 80 4F 80 BA  C4 82 06 01 5C 80 5D 80  .Z.[.O......\.].
0E20: 5B 80 5E 80 BA C5 82 06  01 5F 80 60 80 52 80 61  [.^......_.`.R.a
0E30: 80 BA CA 82 06 01 62 80  63 80 52 80 4F 80 BA CB  ......b.c.R.O...
0E40: 82 06 01 64 80 65 80 5B  80 4F 80 BA CC 82 06 01  ...d.e.[.O......
0E50: 66 80 67 80 68 80 4F 80  BA CD 82 06 01 69 80 6A  f.g.h.O......i.j
0E60: 80 6B 80 5E 80 BA C3 82  06 01 6C 80 6D 80 52 80  .k.^......l.m.R.
0E70: 5E 80 1C 21 80 2C C4 82  06 01 C4 82 06 01 64 65  ^..!.,........de
0E80: 61 64 2C C5 82 06 01 C5  82 06 01 64 65 61 64 BB  ad,........dead.
0E90: 15 80 CC 82 06 01 CC 82  06 01 73 30 30 31 01 80  ..........s001..
0EA0: BB 15 80 CD 82 06 01 CD  82 06 01 73 30 30 31 01  ...........s001.
0EB0: 80 BB 15 80 C3 82 06 01  C3 82 06 01 73 30 30 31  ............s001
0EC0: 01 80 5C 00 6E 80 5C 01  6E 80 9A 27 10 C6 82 06  ..\.n.\.n..'....
0ED0: 01 0A 1C 19 80 27 10 C7  82 06 01 0A 27 10 CA 82  .....'......'...
0EE0: 06 01 09 1C 1C 80 27 10  C8 82 06 01 0A 27 10 CB  ......'......'..
0EF0: 82 06 01 0B 27 10 C9 82  06 01 0A 1C 19 80 45 1A  ....'.........E.
0F00: 80 F0 FF FF 7F F0 FF FF  7F 70 31 31 32 01 80 1A  .........p112...
0F10: D8 01 1C 1B 80 27 10 CE  82 06 01 09 27 10 D3 82  .....'......'...
0F20: 06 01 0A 1C 43 80 52 1A  80 F0 FF FF 7F F0 FF FF  ....C.R.........
0F30: 7F 70 31 31 32 45 1A 80  F0 FF FF 7F F0 FF FF 7F  .p112E..........
0F40: 70 31 31 33 01 80 2B C0  82 06 01 6F 80 1C 27 80  p113..+....o..'.
0F50: 52 1A 80 F0 FF FF 7F F0  FF FF 7F 70 31 31 33 45  R..........p113E
0F60: 1A 80 F0 FF FF 7F F0 FF  FF 7F 70 31 31 34 01 80  ..........p114..
0F70: 2B C0 82 06 01 70 80 29  10 C5 82 06 01 0A 1C 00  +....p.)........
0F80: 80 1A 64 00 52 1A 80 F0  FF FF 7F F0 FF FF 7F 70  ..d.R..........p
0F90: 31 31 34 29 10 CE 82 06  01 0B 7A 00 C6 82 06 01  114)......z.....
0FA0: 7A 00 C7 82 06 01 7A 00  C8 82 06 01 7A 00 C9 82  z.....z.....z...
0FB0: 06 01 BA C0 82 06 01 71  80 72 80 52 80 73 80 BA  .......q.r.R.s..
0FC0: C5 82 06 01 74 80 75 80  76 80 73 80 BA C6 82 06  ....t.u.v.s.....
0FD0: 01 77 80 78 80 79 80 7A  80 BA C7 82 06 01 54 80  .w.x.y.z......T.
0FE0: 55 80 52 80 56 80 BA C8  82 06 01 57 80 58 80 52  U.R.V......W.X.R
0FF0: 80 4F 80 BA C9 82 06 01  59 80 5A 80 5B 80 4F 80  .O......Y.Z.[.O.
1000: BA CC 82 06 01 7B 80 7C  80 4E 80 7D 80 BA CD 82  .....{.|.N.}....
1010: 06 01 7E 80 7F 80 52 80  7D 80 BA C3 82 06 01 80  ..~...R.}.......
1020: 80 81 80 4A 80 7D 80 BA  CA 82 06 01 82 80 83 80  ...J.}..........
1030: 52 80 00 80 BA C4 82 06  01 84 80 85 80 4A 80 4F  R............J.O
1040: 80 2C CA 82 06 01 CA 82  06 01 64 65 61 64 4E 01  .,........deadN.
1050: CB 82 06 01 1C 21 80 27  10 C0 82 06 01 0B 27 10  .....!.'......'.
1060: C5 82 06 01 0C 1C 19 80  45 1A 80 F0 FF FF 7F F0  ........E.......
1070: FF FF 7F 70 31 31 35 01  80 1A D8 01 1C 1B 80 52  ...p115........R
1080: 1A 80 F0 FF FF 7F F0 FF  FF 7F 70 31 31 35 45 1A  ..........p115E.
1090: 80 F0 FF FF 7F F0 FF FF  7F 70 31 31 36 01 80 1C  .........p116...
10A0: 1B 80 5B 86 80 C6 82 06  01 C6 82 06 01 6A 75 6D  ..[..........jum
10B0: 30 1C 43 80 52 1A 80 F0  FF FF 7F F0 FF FF 7F 70  0.C.R..........p
10C0: 31 31 36 45 1A 80 F0 FF  FF 7F F0 FF FF 7F 70 31  116E..........p1
10D0: 31 37 01 80 1C 43 80 7A  00 C0 82 06 01 7A 00 C5  17...C.z.....z..
10E0: 82 06 01 BA C0 82 06 01  87 80 88 80 4E 80 89 80  ............N...
10F0: BA C5 82 06 01 8A 80 8B  80 8C 80 01 80 1C 06 80  ................
1100: 5B 8D 80 C5 82 06 01 C5  82 06 01 6D 69 61 30 27  [..........mia0'
1110: 10 C0 82 06 01 10 1C 2B  80 52 1A 80 F0 FF FF 7F  .......+.R......
1120: F0 FF FF 7F 70 31 31 37  45 1A 80 F0 FF FF 7F F0  ....p117E.......
1130: FF FF 7F 70 31 31 38 01  80 5D 01 80 1B 80 1C 3D  ...p118..].....=
1140: 80 1A A6 00 52 1A 80 F0  FF FF 7F F0 FF FF 7F 70  ....R..........p
1150: 31 31 38 45 1A 80 F0 FF  FF 7F F0 FF FF 7F 62 6C  118E..........bl
1160: 6F 66 01 80 7A 00 C0 82  06 01 6B 69 64 6C 30 C6  of..z.....kidl0.
1170: 82 06 01 1C 19 80 BA C5  82 06 01 8E 80 8F 80 4E  ...............N
1180: 80 90 80 BA C0 82 06 01  91 80 92 80 4E 80 93 80  ............N...
1190: BA C6 82 06 01 94 80 95  80 8C 80 96 80 5B 8D 80  .............[..
11A0: C5 82 06 01 C5 82 06 01  74 61 6F 30 5C 00 35 80  ........tao0\.5.
11B0: 5C 01 35 80 5C 02 35 80  5C 03 35 80 1C 1B 80 9A  \.5.\.5.\.5.....
11C0: 45 1A 80 F0 FF FF 7F F0  FF FF 7F 70 31 31 39 01  E..........p119.
11D0: 80 1A 85 00 27 10 C0 82  06 01 12 2B C0 82 06 01  ....'......+....
11E0: 97 80 23 1C 1B 80 5B 98  80 C6 82 06 01 C6 82 06  ..#...[.........
11F0: 01 68 6F 75 30 52 1A 80  F0 FF FF 7F F0 FF FF 7F  .hou0R..........
1200: 70 31 31 39 45 1A 80 F0  FF FF 7F F0 FF FF 7F 70  p119E..........p
1210: 31 36 31 01 80 1C 43 80  4A C0 82 06 01 C6 82 06  161...C.J.......
1220: 01 7B C0 82 06 01 6F 70  1C 19 80 5B 39 80 C0 82  .{....op...[9...
1230: 06 01 C0 82 06 01 66 65  30 30 5B 42 80 C0 82 06  ......fe00[B....
1240: 01 C0 82 06 01 79 6F 77  30 1C 1B 80 52 1A 80 F0  .....yow0...R...
1250: FF FF 7F F0 FF FF 7F 70  31 36 31 45 1A 80 F0 FF  .......p161E....
1260: FF 7F F0 FF FF 7F 70 31  36 32 01 80 1C 1B 80 52  ......p162.....R
1270: 1A 80 F0 FF FF 7F F0 FF  FF 7F 70 31 36 32 45 1A  ..........p162E.
1280: 80 F0 FF FF 7F F0 FF FF  7F 70 31 36 33 01 80 5B  .........p163..[
1290: 39 80 C0 82 06 01 C0 82  06 01 66 65 30 31 2B C0  9.........fe01+.
12A0: 82 06 01 99 80 23 5B 39  80 C0 82 06 01 C0 82 06  .....#[9........
12B0: 01 66 65 30 30 1C 43 80  6B 69 64 6C 30 C6 82 06  .fe00.C.kidl0...
12C0: 01 1C 1B 80 27 10 C6 82  06 01 0C 1C 43 80 52 1A  ....'.......C.R.
12D0: 80 F0 FF FF 7F F0 FF FF  7F 70 31 36 33 45 1A 80  .........p163E..
12E0: F0 FF FF 7F F0 FF FF 7F  70 31 36 34 01 80 1C 9A  ........p164....
12F0: 80 7A 00 C6 82 06 01 BA  C6 82 06 01 9B 80 9C 80  .z..............
1300: 4E 80 9D 80 1C 19 80 BA  C0 82 06 01 9E 80 9F 80  N...............
1310: 4A 80 7D 80 5B 86 80 C6  82 06 01 C6 82 06 01 62  J.}.[..........b
1320: 75 73 30 1C 43 80 52 1A  80 F0 FF FF 7F F0 FF FF  us0.C.R.........
1330: 7F 70 31 36 34 45 1A 80  F0 FF FF 7F F0 FF FF 7F  .p164E..........
1340: 70 31 36 35 01 80 1C A0  80 1A A6 00 52 1A 80 F0  p165........R...
1350: FF FF 7F F0 FF FF 7F 70  31 36 35 5B 39 80 C0 82  .......p165[9...
1360: 06 01 C0 82 06 01 66 30  30 30 BA C5 82 06 01 A1  ......f000......
1370: 80 01 80 4E 80 A2 80 BA  CE 82 06 01 A3 80 A4 80  ...N............
1380: 4E 80 A5 80 1C 19 80 7C  00 C5 82 06 01 81 00 C5  N......|........
1390: 82 06 01 7B C5 82 06 01  5B 8D 80 C5 82 06 01 C5  ...{....[.......
13A0: 82 06 01 64 65 61 30 7C  00 CE 82 06 01 6C C0 82  ...dea0|.....l..
13B0: 06 01 01 80 03 80 81 00  CE 82 06 01 5B A6 80 CE  ............[...
13C0: 82 06 01 CE 82 06 01 75  74 75 30 1C A7 80 BA C6  .......utu0.....
13D0: 82 06 01 A8 80 A9 80 4E  80 7D 80 1C 43 80 BA C5  .......N.}..C...
13E0: 82 06 01 8E 80 8F 80 4E  80 A2 80 9F AA 80 F8 FF  .......N........
13F0: FF 7F F8 FF FF 7F 62 6C  30 30 01 80 1C 21 80 45  ......bl00...!.E
1400: 1A 80 F0 FF FF 7F F0 FF  FF 7F 70 31 36 38 01 80  ..........p168..
1410: 1A 85 00 9F AA 80 F8 FF  FF 7F F8 FF FF 7F 6F 70  ..............op
1420: 65 6E 01 80 1C 27 80 9F  AA 80 F8 FF FF 7F F8 FF  en...'..........
1430: FF 7F 63 6C 6F 73 01 80  1C 27 80 45 00 80 F8 FF  ..clos...'.E....
1440: FF 7F F8 FF FF 7F 66 64  6F 31 01 80 55 00 80 F8  ......fdo1..U...
1450: FF FF 7F F8 FF FF 7F 66  64 6F 31 9F AA 80 F8 FF  .......fdo1.....
1460: FF 7F F8 FF FF 7F 6B 69  6C 6C 01 80 52 1A 80 F0  ......kill..R...
1470: FF FF 7F F0 FF FF 7F 70  31 36 38 45 1A 80 F0 FF  .......p168E....
1480: FF 7F F0 FF FF 7F 70 31  36 36 01 80 1A D8 01 1C  ......p166......
1490: 1B 80 52 1A 80 F0 FF FF  7F F0 FF FF 7F 70 31 36  ..R..........p16
14A0: 36 45 1A 80 F0 FF FF 7F  F0 FF FF 7F 70 31 32 30  6E..........p120
14B0: 01 80 03 02 10 1B 80 27  10 C3 82 06 01 0A 5B A6  .......'......[.
14C0: 80 CE 82 06 01 CE 82 06  01 75 74 75 31 2B C0 82  .........utu1+..
14D0: 06 01 AB 80 23 2A 10 C3  82 06 01 52 1A 80 F0 FF  ....#*.....R....
14E0: FF 7F F0 FF FF 7F 70 31  32 30 45 1A 80 F0 FF FF  ......p120E.....
14F0: 7F F0 FF FF 7F 70 31 36  39 01 80 1C 1B 80 52 1A  .....p169.....R.
1500: 80 F0 FF FF 7F F0 FF FF  7F 70 31 36 39 45 1A 80  .........p169E..
1510: F0 FF FF 7F F0 FF FF 7F  70 31 37 30 01 80 5B A6  ........p170..[.
1520: 80 CE 82 06 01 CE 82 06  01 75 74 75 32 2B C0 82  .........utu2+..
1530: 06 01 AC 80 1C 1B 80 1A  A6 00 52 1A 80 F0 FF FF  ..........R.....
1540: 7F F0 FF FF 7F 70 31 37  30 45 1A 80 F0 FF FF 7F  .....p170E......
1550: F0 FF FF 7F 62 6C 6F 66  01 80 6C C0 82 06 01 AD  ....blof..l.....
1560: 80 03 80 29 10 CE 82 06  01 0C 34 AE 80 78 AB 09  ...)......4..x..
1570: 1C 2B 80 27 10 C2 82 06  01 04 27 10 C1 82 06 01  .+.'......'.....
1580: 02 27 10 C4 82 06 01 02  92 01 C2 82 06 01 92 01  .'..............
1590: C1 82 06 01 94 01 C2 82  06 01 94 01 C1 82 06 01  ................
15A0: 80 C2 82 06 01 80 C1 82  06 01 4E 01 C5 82 06 01  ..........N.....
15B0: 4E 01 CA 82 06 01 4E 01  CB 82 06 01 4E 01 CE 82  N.....N.....N...
15C0: 06 01 4E 01 C6 82 06 01  4E 01 C7 82 06 01 4E 01  ..N.....N.....N.
15D0: C8 82 06 01 4E 01 C9 82  06 01 BA C2 82 06 01 AF  ....N...........
15E0: 80 B0 80 B1 80 B2 80 BA  C1 82 06 01 B3 80 B4 80  ................
15F0: B5 80 B6 80 BA F0 FF FF  7F B7 80 B8 80 B9 80 BA  ................
1600: 80 BA C0 82 06 01 BB 80  BC 80 01 80 0C 80 BA C4  ................
1610: 82 06 01 BD 80 BE 80 BF  80 C0 80 BA C3 82 06 01  ................
1620: BD 80 BE 80 BF 80 C0 80  4A C4 82 06 01 C0 82 06  ........J.......
1630: 01 7B C4 82 06 01 4A F0  FF FF 7F C0 82 06 01 4A  .{....J........J
1640: C0 82 06 01 F0 FF FF 7F  29 10 C4 82 06 01 0D 7C  ........)......|
1650: 01 C0 82 06 01 81 01 C0  82 06 01 6C C4 82 06 01  ...........l....
1660: 01 80 03 80 7B F0 FF FF  7F 7B C0 82 06 01 6F 76  ....{....{....ov
1670: C0 82 06 01 5B C1 80 C0  82 06 01 C0 82 06 01 73  ....[..........s
1680: 61 67 30 1C 43 80 45 1A  80 F0 FF FF 7F F0 FF FF  ag0.C.E.........
1690: 7F 70 31 30 34 01 80 1A  85 00 2B C0 82 06 01 C2  .p104.....+.....
16A0: 80 23 2B C0 82 06 01 C3  80 23 52 1A 80 F0 FF FF  .#+......#R.....
16B0: 7F F0 FF FF 7F 70 31 30  34 45 1A 80 F0 FF FF 7F  .....p104E......
16C0: F0 FF FF 7F 70 31 32 31  01 80 2B C0 82 06 01 C4  ....p121..+.....
16D0: 80 23 2B C0 82 06 01 C5  80 23 52 1A 80 F0 FF FF  .#+......#R.....
16E0: 7F F0 FF FF 7F 70 31 32  31 45 1A 80 F0 FF FF 7F  .....p121E......
16F0: F0 FF FF 7F 70 31 32 32  01 80 03 02 10 1B 80 27  ....p122.......'
1700: 10 C3 82 06 01 0A 2B C0  82 06 01 C6 80 23 2A 10  ......+......#*.
1710: C3 82 06 01 5D 01 80 1B  80 52 1A 80 F0 FF FF 7F  ....]....R......
1720: F0 FF FF 7F 70 31 32 32  45 1A 80 F0 FF FF 7F F0  ....p122E.......
1730: FF FF 7F 70 31 32 33 01  80 6E C2 82 06 01 C7 80  ...p123..n......
1740: 99 C2 82 06 01 2B C2 82  06 01 C8 80 23 2B C2 82  .....+......#+..
1750: 06 01 C9 80 23 4B C0 82  06 01 CA 80 1C 43 80 52  ....#K.......C.R
1760: 1A 80 F0 FF FF 7F F0 FF  FF 7F 70 31 32 33 45 1A  ..........p123E.
1770: 80 F0 FF FF 7F F0 FF FF  7F 70 31 32 35 01 80 03  .........p125...
1780: 02 10 1B 80 27 10 C3 82  06 01 0A 4B F0 FF FF 7F  ....'......K....
1790: CA 80 7B F0 FF FF 7F 7B  C0 82 06 01 6F 76 C0 82  ..{....{....ov..
17A0: 06 01 5B CB 80 C0 82 06  01 C0 82 06 01 6D 65 73  ..[..........mes
17B0: 30 2B C0 82 06 01 CC 80  23 2A 10 C3 82 06 01 27  0+......#*.....'
17C0: 10 C2 82 06 01 0A 1C 43  80 52 1A 80 F0 FF FF 7F  .......C.R......
17D0: F0 FF FF 7F 70 31 32 35  45 1A 80 F0 FF FF 7F F0  ....p125E.......
17E0: FF FF 7F 70 31 32 36 01  80 5B CB 80 C0 82 06 01  ...p126..[......
17F0: C0 82 06 01 6D 65 69 31  1C 00 80 4A F0 FF FF 7F  ....mei1...J....
1800: C2 82 06 01 7B F0 FF FF  7F 52 1A 80 F0 FF FF 7F  ....{....R......
1810: F0 FF FF 7F 70 31 32 36  45 1A 80 F0 FF FF 7F F0  ....p126E.......
1820: FF FF 7F 70 31 34 36 01  80 1C 1B 80 52 1A 80 F0  ...p146.....R...
1830: FF FF 7F F0 FF FF 7F 70  31 34 36 45 1A 80 F0 FF  .......p146E....
1840: FF 7F F0 FF FF 7F 70 31  32 38 01 80 7C 00 C0 82  ......p128..|...
1850: 06 01 81 00 C0 82 06 01  5B C1 80 C0 82 06 01 C0  ........[.......
1860: 82 06 01 62 69 6B 30 2B  C0 82 06 01 CD 80 23 7C  ...bik0+......#|
1870: 01 C0 82 06 01 52 1A 80  F0 FF FF 7F F0 FF FF 7F  .....R..........
1880: 70 31 32 38 45 1A 80 F0  FF FF 7F F0 FF FF 7F 70  p128E..........p
1890: 31 32 39 01 80 81 01 C0  82 06 01 5B CE 80 C0 82  129........[....
18A0: 06 01 C0 82 06 01 62 74  30 31 27 10 F0 FF FF 7F  ......bt01'.....
18B0: 22 1C 27 80 1C 1B 80 52  1A 80 F0 FF FF 7F F0 FF  ".'....R........
18C0: FF 7F 70 31 32 39 45 1A  80 F0 FF FF 7F F0 FF FF  ..p129E.........
18D0: 7F 70 31 37 31 01 80 27  10 F0 FF FF 7F 23 2B C0  .p171..'.....#+.
18E0: 82 06 01 CF 80 23 5C 00  16 80 5C 01 16 80 5C 02  .....#\...\...\.
18F0: 16 80 5C 03 16 80 9A 6E  C2 82 06 01 C7 80 99 C2  ..\....n........
1900: 82 06 01 52 1A 80 F0 FF  FF 7F F0 FF FF 7F 70 31  ...R..........p1
1910: 37 31 45 1A 80 F0 FF FF  7F F0 FF FF 7F 70 31 33  71E..........p13
1920: 30 01 80 2B C2 82 06 01  D0 80 23 52 1A 80 F0 FF  0..+......#R....
1930: FF 7F F0 FF FF 7F 70 31  33 30 45 1A 80 F0 FF FF  ......p130E.....
1940: 7F F0 FF FF 7F 70 31 33  32 01 80 2B C0 82 06 01  .....p132..+....
1950: D1 80 23 52 1A 80 F0 FF  FF 7F F0 FF FF 7F 70 31  ..#R..........p1
1960: 33 32 45 1A 80 F0 FF FF  7F F0 FF FF 7F 70 31 33  32E..........p13
1970: 33 01 80 1C 43 80 BA C2  82 06 01 BD 80 BE 80 BF  3...C...........
1980: 80 D2 80 BA C4 82 06 01  BD 80 BE 80 BF 80 D2 80  ................
1990: 2B C2 82 06 01 D3 80 23  52 1A 80 F0 FF FF 7F F0  +......#R.......
19A0: FF FF 7F 70 31 33 33 45  1A 80 F0 FF FF 7F F0 FF  ...p133E........
19B0: FF 7F 70 31 33 31 01 80  5B 3E 80 C3 82 06 01 C3  ..p131..[>......
19C0: 82 06 01 62 74 6C 73 5B  3E 80 C2 82 06 01 C2 82  ...btls[>.......
19D0: 06 01 62 74 6C 30 5B 3E  80 C4 82 06 01 C4 82 06  ..btl0[>........
19E0: 01 62 74 6C 30 1C 06 80  52 1A 80 F0 FF FF 7F F0  .btl0...R.......
19F0: FF FF 7F 70 31 33 31 45  1A 80 F0 FF FF 7F F0 FF  ...p131E........
1A00: FF 7F 70 31 33 34 01 80  1C D4 80 52 1A 80 F0 FF  ..p134.....R....
1A10: FF 7F F0 FF FF 7F 70 31  33 34 45 1A 80 F0 FF FF  ......p134E.....
1A20: 7F F0 FF FF 7F 70 31 32  34 01 80 1A B7 01 6C C2  .....p124.....l.
1A30: 82 06 01 01 80 03 80 6C  C4 82 06 01 AD 80 03 80  .......l........
1A40: 1A 96 01 1C 06 80 1A B7  01 6C C2 82 06 01 AD 80  .........l......
1A50: 03 80 6C C4 82 06 01 01  80 03 80 1A 96 01 55 1A  ..l...........U.
1A60: 80 F0 FF FF 7F F0 FF FF  7F 70 31 32 34 45 1A 80  .........p124E..
1A70: F0 FF FF 7F F0 FF FF 7F  70 31 33 35 01 80 03 02  ........p135....
1A80: 10 1B 80 27 10 C3 82 06  01 0A 2B C0 82 06 01 D5  ...'......+.....
1A90: 80 23 2A 10 C3 82 06 01  52 1A 80 F0 FF FF 7F F0  .#*.....R.......
1AA0: FF FF 7F 70 31 33 35 45  1A 80 F0 FF FF 7F F0 FF  ...p135E........
1AB0: FF 7F 70 31 33 36 01 80  81 01 C0 82 06 01 7C 01  ..p136........|.
1AC0: C0 82 06 01 29 10 C1 82  06 01 03 2B C2 82 06 01  ....)......+....
1AD0: D6 80 23 27 10 C1 82 06  01 0A 1C D7 80 52 1A 80  ..#'.........R..
1AE0: F0 FF FF 7F F0 FF FF 7F  70 31 33 36 45 1A 80 F0  ........p136E...
1AF0: FF FF 7F F0 FF FF 7F 70  31 33 37 01 80 6B 69 64  .......p137..kid
1B00: 6C 30 C4 82 06 01 1C 43  80 6B 69 64 6C 30 C2 82  l0.....C.kidl0..
1B10: 06 01 2B C3 82 06 01 D8  80 1C 3F 80 52 1A 80 F0  ..+.......?.R...
1B20: FF FF 7F F0 FF FF 7F 70  31 33 37 45 1A 80 F0 FF  .......p137E....
1B30: FF 7F F0 FF FF 7F 70 31  32 37 01 80 6B 69 64 6C  ......p127..kidl
1B40: 30 C0 82 06 01 29 10 C2  82 06 01 11 1C 3D 80 4A  0....).......=.J
1B50: C2 82 06 01 C1 82 06 01  2A 10 C1 82 06 01 52 1A  ........*.....R.
1B60: 80 F0 FF FF 7F F0 FF FF  7F 70 31 32 37 45 1A 80  .........p127E..
1B70: F0 FF FF 7F F0 FF FF 7F  70 31 33 38 01 80 27 10  ........p138..'.
1B80: C4 82 06 01 15 6F 76 C2  82 06 01 2B C2 82 06 01  .....ov....+....
1B90: D9 80 23 2B C2 82 06 01  DA 80 23 52 1A 80 F0 FF  ..#+......#R....
1BA0: FF 7F F0 FF FF 7F 70 31  33 38 45 1A 80 F0 FF FF  ......p138E.....
1BB0: 7F F0 FF FF 7F 70 31 33  39 01 80 27 10 C1 82 06  .....p139..'....
1BC0: 01 0B 1C DB 80 52 1A 80  F0 FF FF 7F F0 FF FF 7F  .....R..........
1BD0: 70 31 33 39 45 1A 80 F0  FF FF 7F F0 FF FF 7F 70  p139E..........p
1BE0: 31 37 34 01 80 2A 10 C1  82 06 01 2B C1 82 06 01  174..*.....+....
1BF0: DC 80 23 29 10 F0 FF FF  7F 1E 02 02 10 03 80 80  ..#)............
1C00: 25 1C 52 1A 80 F0 FF FF  7F F0 FF FF 7F 70 31 37  %.R..........p17
1C10: 34 45 1A 80 F0 FF FF 7F  F0 FF FF 7F 70 68 6D 34  4E..........phm4
1C20: 01 80 01 52 1D 02 02 10  05 80 80 50 1C 52 1A 80  ...R.......P.R..
1C30: F0 FF FF 7F F0 FF FF 7F  70 31 37 34 45 1A 80 F0  ........p174E...
1C40: FF FF 7F F0 FF FF 7F 70  68 6D 34 01 80 01 52 1D  .......phm4...R.
1C50: 02 02 10 1C 80 80 7B 1C  52 1A 80 F0 FF FF 7F F0  ......{.R.......
1C60: FF FF 7F 70 31 37 34 45  1A 80 F0 FF FF 7F F0 FF  ...p174E........
1C70: FF 7F 70 65 6D 34 01 80  01 52 1D 02 02 10 1D 80  ..pem4...R......
1C80: 80 A6 1C 52 1A 80 F0 FF  FF 7F F0 FF FF 7F 70 31  ...R..........p1
1C90: 37 34 45 1A 80 F0 FF FF  7F F0 FF FF 7F 70 65 6D  74E..........pem
1CA0: 34 01 80 01 52 1D 02 02  10 19 80 80 D1 1C 52 1A  4...R.........R.
1CB0: 80 F0 FF FF 7F F0 FF FF  7F 70 31 37 34 45 1A 80  .........p174E..
1CC0: F0 FF FF 7F F0 FF FF 7F  70 74 72 34 01 80 01 52  ........ptr4...R
1CD0: 1D 02 02 10 1E 80 80 FC  1C 52 1A 80 F0 FF FF 7F  .........R......
1CE0: F0 FF FF 7F 70 31 37 34  45 1A 80 F0 FF FF 7F F0  ....p174E.......
1CF0: FF FF 7F 70 74 72 34 01  80 01 52 1D 02 02 10 1F  ...ptr4...R.....
1D00: 80 80 27 1D 52 1A 80 F0  FF FF 7F F0 FF FF 7F 70  ..'.R..........p
1D10: 31 37 34 45 1A 80 F0 FF  FF 7F F0 FF FF 7F 70 6D  174E..........pm
1D20: 74 34 01 80 01 52 1D 02  02 10 20 80 80 52 1D 52  t4...R.... ..R.R
1D30: 1A 80 F0 FF FF 7F F0 FF  FF 7F 70 31 37 34 45 1A  ..........p174E.
1D40: 80 F0 FF FF 7F F0 FF FF  7F 70 67 6C 34 01 80 01  .........pgl4...
1D50: 52 1D 4A C2 82 06 01 C1  82 06 01 7B C2 82 06 01  R.J........{....
1D60: 1C 1B 80 52 1A 80 F0 FF  FF 7F F0 FF FF 7F 70 68  ...R..........ph
1D70: 6D 34 52 1A 80 F0 FF FF  7F F0 FF FF 7F 70 65 6D  m4R..........pem
1D80: 34 52 1A 80 F0 FF FF 7F  F0 FF FF 7F 70 74 72 34  4R..........ptr4
1D90: 52 1A 80 F0 FF FF 7F F0  FF FF 7F 70 6D 74 34 52  R..........pmt4R
1DA0: 1A 80 F0 FF FF 7F F0 FF  FF 7F 70 67 6C 34 45 1A  ..........pgl4E.
1DB0: 80 F0 FF FF 7F F0 FF FF  7F 70 31 34 30 01 80 79  .........p140..y
1DC0: 00 F0 FF FF 7F C1 82 06  01 79 00 C0 82 06 01 C1  .........y......
1DD0: 82 06 01 03 02 10 44 80  5B DD 80 C2 82 06 01 C2  ......D.[.......
1DE0: 82 06 01 74 68 61 30 2B  C2 82 06 01 DE 80 23 4A  ...tha0+......#J
1DF0: C1 82 06 01 C2 82 06 01  6F 76 C1 82 06 01 7B C1  ........ov....{.
1E00: 82 06 01 27 10 C3 82 06  01 0A 2B C1 82 06 01 DF  ...'......+.....
1E10: 80 23 2A 10 C3 82 06 01  52 1A 80 F0 FF FF 7F F0  .#*.....R.......
1E20: FF FF 7F 70 31 34 30 45  1A 80 F0 FF FF 7F F0 FF  ...p140E........
1E30: FF 7F 70 31 34 32 01 80  5B DD 80 C2 82 06 01 C2  ..p142..[.......
1E40: 82 06 01 74 68 61 31 4A  C1 82 06 01 C0 82 06 01  ...tha1J........
1E50: 6F 76 C1 82 06 01 7B C1  82 06 01 5B E0 80 C1 82  ov....{....[....
1E60: 06 01 C1 82 06 01 6D 65  67 30 03 02 10 1B 80 27  ......meg0.....'
1E70: 10 C3 82 06 01 0A 2B C1  82 06 01 E1 80 23 2A 10  ......+......#*.
1E80: C3 82 06 01 52 1A 80 F0  FF FF 7F F0 FF FF 7F 70  ....R..........p
1E90: 31 34 32 45 1A 80 F0 FF  FF 7F F0 FF FF 7F 70 31  142E..........p1
1EA0: 34 33 01 80 5B E0 80 C1  82 06 01 C1 82 06 01 6D  43..[..........m
1EB0: 65 67 31 2B C2 82 06 01  E2 80 23 27 10 C2 82 06  eg1+......#'....
1EC0: 01 12 1C 43 80 52 1A 80  F0 FF FF 7F F0 FF FF 7F  ...C.R..........
1ED0: 70 31 34 33 45 1A 80 F0  FF FF 7F F0 FF FF 7F 70  p143E..........p
1EE0: 31 34 34 01 80 2A 10 C2  82 06 01 1C 43 80 6E C2  144..*......C.n.
1EF0: 82 06 01 01 80 99 C2 82  06 01 2B C2 82 06 01 E3  ..........+.....
1F00: 80 23 2B C2 82 06 01 E4  80 23 52 1A 80 F0 FF FF  .#+......#R.....
1F10: 7F F0 FF FF 7F 70 31 34  34 45 1A 80 F0 FF FF 7F  .....p144E......
1F20: F0 FF FF 7F 70 31 34 35  01 80 5B E5 80 C0 82 06  ....p145..[.....
1F30: 01 C0 82 06 01 74 6C 63  30 2B C0 82 06 01 E6 80  .....tlc0+......
1F40: 23 2B C0 82 06 01 E7 80  23 BA C2 82 06 01 E8 80  #+......#.......
1F50: E9 80 9A 80 D2 80 BA C4  82 06 01 E8 80 E9 80 9A  ................
1F60: 80 D2 80 1C 43 80 52 1A  80 F0 FF FF 7F F0 FF FF  ....C.R.........
1F70: 7F 70 31 34 35 45 1A 80  F0 FF FF 7F F0 FF FF 7F  .p145E..........
1F80: 70 31 34 37 01 80 2B C4  82 06 01 EA 80 7B C0 82  p147..+......{..
1F90: 06 01 1C 21 80 1A B7 01  6C C2 82 06 01 01 80 03  ...!....l.......
1FA0: 80 6C C4 82 06 01 AD 80  03 80 6B 69 64 6C 30 C0  .l........kidl0.
1FB0: 82 06 01 1A 96 01 1C 06  80 1A B7 01 6C C2 82 06  ............l...
1FC0: 01 AD 80 03 80 6C C4 82  06 01 01 80 03 80 1A 96  .....l..........
1FD0: 01 1C 1B 80 52 1A 80 F0  FF FF 7F F0 FF FF 7F 70  ....R..........p
1FE0: 31 34 37 45 1A 80 F0 FF  FF 7F F0 FF FF 7F 62 6C  147E..........bl
1FF0: 6F 66 01 80 45 1A 80 F0  FF FF 7F F0 FF FF 7F 70  of..E..........p
2000: 31 34 38 01 80 7C 00 C0  82 06 01 81 00 C0 82 06  148..|..........
2010: 01 5B EB 80 C0 82 06 01  C0 82 06 01 75 74 61 30  .[..........uta0
2020: 1C 43 80 6C C2 82 06 01  AD 80 03 80 6C C4 82 06  .C.l........l...
2030: 01 01 80 03 80 2B C0 82  06 01 EC 80 23 52 1A 80  .....+......#R..
2040: F0 FF FF 7F F0 FF FF 7F  70 31 34 38 45 1A 80 F0  ........p148E...
2050: FF FF 7F F0 FF FF 7F 70  31 34 39 01 80 7C 01 C0  .......p149..|..
2060: 82 06 01 81 01 C0 82 06  01 27 10 C2 82 06 01 0E  .........'......
2070: 7C 01 C0 82 06 01 1C 44  80 4A C1 82 06 01 C2 82  |......D.J......
2080: 06 01 7B C1 82 06 01 2B  C2 82 06 01 ED 80 23 52  ..{....+......#R
2090: 1A 80 F0 FF FF 7F F0 FF  FF 7F 70 31 34 39 45 1A  ..........p149E.
20A0: 80 F0 FF FF 7F F0 FF FF  7F 70 31 35 30 01 80 27  .........p150..'
20B0: 10 C2 82 06 01 0F 1C D7  80 6B 69 64 6C 30 C0 82  .........kidl0..
20C0: 06 01 1C 1B 80 52 1A 80  F0 FF FF 7F F0 FF FF 7F  .....R..........
20D0: 70 31 35 30 45 1A 80 F0  FF FF 7F F0 FF FF 7F 70  p150E..........p
20E0: 31 37 32 01 80 27 10 C0  82 06 01 11 1C 1B 80 52  172..'.........R
20F0: 1A 80 F0 FF FF 7F F0 FF  FF 7F 70 31 37 32 45 1A  ..........p172E.
2100: 80 F0 FF FF 7F F0 FF FF  7F 70 31 35 31 01 80 4A  .........p151..J
2110: F0 FF FF 7F C1 82 06 01  4A C1 82 06 01 F0 FF FF  ........J.......
2120: 7F 6F 76 C1 82 06 01 7B  C1 82 06 01 7B F0 FF FF  .ov....{....{...
2130: 7F 03 02 10 47 80 27 10  C3 82 06 01 0A 66 EE 80  ....G.'......f..
2140: C1 82 06 01 C1 82 06 01  74 6C 6B 30 4E 01 C0 82  ........tlk0N...
2150: 06 01 2B C1 82 06 01 EF  80 23 2A 10 C3 82 06 01  ..+......#*.....
2160: 27 10 C1 82 06 01 0C 27  10 C0 82 06 01 0D 52 1A  '......'......R.
2170: 80 F0 FF FF 7F F0 FF FF  7F 70 31 35 31 45 1A 80  .........p151E..
2180: F0 FF FF 7F F0 FF FF 7F  70 31 35 32 01 80 27 10  ........p152..'.
2190: F0 FF FF 7F 25 1C 1B 80  1A 64 00 52 1A 80 F0 FF  ....%....d.R....
21A0: FF 7F F0 FF FF 7F 70 31  35 32 7A 00 F0 FF FF 7F  ......p152z.....
21B0: 7A 00 C0 82 06 01 7A 00  C1 82 06 01 BA F0 FF FF  z.....z.........
21C0: 7F F0 80 F1 80 F2 80 F3  80 BA C1 82 06 01 F4 80  ................
21D0: F5 80 F6 80 F7 80 1C 21  80 27 10 C1 82 06 01 0D  .......!.'......
21E0: 1C 43 80 27 10 F0 FF FF  7F 26 1C 43 80 45 1A 80  .C.'.....&.C.E..
21F0: F0 FF FF 7F F0 FF FF 7F  70 31 35 33 01 80 1A 43  ........p153...C
2200: 00 1C 1B 80 52 1A 80 F0  FF FF 7F F0 FF FF 7F 70  ....R..........p
2210: 31 35 33 45 1A 80 F0 FF  FF 7F F0 FF FF 7F 70 31  153E..........p1
2220: 35 34 01 80 2A 10 C1 82  06 01 66 EE 80 C1 82 06  54..*.....f.....
2230: 01 C1 82 06 01 74 68 6B  31 1C 1B 80 29 10 F0 FF  .....thk1...)...
2240: FF 7F 1E 02 02 10 03 80  80 6E 22 52 1A 80 F0 FF  .........n"R....
2250: FF 7F F0 FF FF 7F 70 31  35 34 45 1A 80 F0 FF FF  ......p154E.....
2260: 7F F0 FF FF 7F 70 68 6D  33 01 80 01 9B 23 02 02  .....phm3....#..
2270: 10 05 80 80 99 22 52 1A  80 F0 FF FF 7F F0 FF FF  ....."R.........
2280: 7F 70 31 35 34 45 1A 80  F0 FF FF 7F F0 FF FF 7F  .p154E..........
2290: 70 68 6D 33 01 80 01 9B  23 02 02 10 1C 80 80 C4  phm3....#.......
22A0: 22 52 1A 80 F0 FF FF 7F  F0 FF FF 7F 70 31 35 34  "R..........p154
22B0: 45 1A 80 F0 FF FF 7F F0  FF FF 7F 70 65 6D 33 01  E..........pem3.
22C0: 80 01 9B 23 02 02 10 1D  80 80 EF 22 52 1A 80 F0  ...#......."R...
22D0: FF FF 7F F0 FF FF 7F 70  31 35 34 45 1A 80 F0 FF  .......p154E....
22E0: FF 7F F0 FF FF 7F 70 65  6D 33 01 80 01 9B 23 02  ......pem3....#.
22F0: 02 10 19 80 80 1A 23 52  1A 80 F0 FF FF 7F F0 FF  ......#R........
2300: FF 7F 70 31 35 34 45 1A  80 F0 FF FF 7F F0 FF FF  ..p154E.........
2310: 7F 70 74 72 33 01 80 01  9B 23 02 02 10 1E 80 80  .ptr3....#......
2320: 45 23 52 1A 80 F0 FF FF  7F F0 FF FF 7F 70 31 35  E#R..........p15
2330: 34 45 1A 80 F0 FF FF 7F  F0 FF FF 7F 70 74 72 33  4E..........ptr3
2340: 01 80 01 9B 23 02 02 10  1F 80 80 70 23 52 1A 80  ....#......p#R..
2350: F0 FF FF 7F F0 FF FF 7F  70 31 35 34 45 1A 80 F0  ........p154E...
2360: FF FF 7F F0 FF FF 7F 70  68 6D 33 01 80 01 9B 23  .......phm3....#
2370: 02 02 10 20 80 80 9B 23  52 1A 80 F0 FF FF 7F F0  ... ...#R.......
2380: FF FF 7F 70 31 35 34 45  1A 80 F0 FF FF 7F F0 FF  ...p154E........
2390: FF 7F 70 65 6D 33 01 80  01 9B 23 2B C1 82 06 01  ..pem3....#+....
23A0: F8 80 23 2B C1 82 06 01  F9 80 23 4A F0 FF FF 7F  ..#+......#J....
23B0: C1 82 06 01 6F 76 F0 FF  FF 7F 7B F0 FF FF 7F 6E  ....ov....{....n
23C0: F0 FF FF 7F FA 80 99 F0  FF FF 7F 1C 43 80 6B 69  ............C.ki
23D0: 64 6C 30 C1 82 06 01 4A  C1 82 06 01 F0 FF FF 7F  dl0....J........
23E0: 6F 76 C1 82 06 01 7B C1  82 06 01 1C 1B 80 52 1A  ov....{.......R.
23F0: 80 F0 FF FF 7F F0 FF FF  7F 70 68 6D 33 52 1A 80  .........phm3R..
2400: F0 FF FF 7F F0 FF FF 7F  70 65 6D 33 52 1A 80 F0  ........pem3R...
2410: FF FF 7F F0 FF FF 7F 70  74 72 33 45 1A 80 F0 FF  .......ptr3E....
2420: FF 7F F0 FF FF 7F 70 31  37 35 01 80 03 02 10 1B  ......p175......
2430: 80 27 10 C3 82 06 01 0A  2B C1 82 06 01 FB 80 23  .'......+......#
2440: 2A 10 C3 82 06 01 52 1A  80 F0 FF FF 7F F0 FF FF  *.....R.........
2450: 7F 70 31 37 35 45 1A 80  F0 FF FF 7F F0 FF FF 7F  .p175E..........
2460: 70 31 37 36 01 80 03 02  10 1B 80 27 10 C3 82 06  p176.......'....
2470: 01 0A 6E C1 82 06 01 FC  80 99 C1 82 06 01 2B C1  ..n...........+.
2480: 82 06 01 FD 80 23 2A 10  C3 82 06 01 52 1A 80 F0  .....#*.....R...
2490: FF FF 7F F0 FF FF 7F 70  31 37 36 45 1A 80 F0 FF  .......p176E....
24A0: FF 7F F0 FF FF 7F 70 31  34 31 01 80 5B E0 80 C1  ......p141..[...
24B0: 82 06 01 C1 82 06 01 6D  65 67 30 2B C1 82 06 01  .......meg0+....
24C0: FE 80 23 2B C1 82 06 01  FF 80 23 5B E0 80 C1 82  ..#+......#[....
24D0: 06 01 C1 82 06 01 6D 65  67 31 29 10 F0 FF FF 7F  ......meg1).....
24E0: 1E 02 02 10 03 80 80 0C  25 52 1A 80 F0 FF FF 7F  ........%R......
24F0: F0 FF FF 7F 70 31 34 31  45 1A 80 F0 FF FF 7F F0  ....p141E.......
2500: FF FF 7F 70 68 6D 35 01  80 01 39 26 02 02 10 05  ...phm5...9&....
2510: 80 80 37 25 52 1A 80 F0  FF FF 7F F0 FF FF 7F 70  ..7%R..........p
2520: 31 34 31 45 1A 80 F0 FF  FF 7F F0 FF FF 7F 70 68  141E..........ph
2530: 6D 35 01 80 01 39 26 02  02 10 1C 80 80 62 25 52  m5...9&......b%R
2540: 1A 80 F0 FF FF 7F F0 FF  FF 7F 70 31 34 31 45 1A  ..........p141E.
2550: 80 F0 FF FF 7F F0 FF FF  7F 70 65 6D 35 01 80 01  .........pem5...
2560: 39 26 02 02 10 1D 80 80  8D 25 52 1A 80 F0 FF FF  9&.......%R.....
2570: 7F F0 FF FF 7F 70 31 34  31 45 1A 80 F0 FF FF 7F  .....p141E......
2580: F0 FF FF 7F 70 65 6D 35  01 80 01 39 26 02 02 10  ....pem5...9&...
2590: 19 80 80 B8 25 52 1A 80  F0 FF FF 7F F0 FF FF 7F  ....%R..........
25A0: 70 31 34 31 45 1A 80 F0  FF FF 7F F0 FF FF 7F 70  p141E..........p
25B0: 74 72 35 01 80 01 39 26  02 02 10 1E 80 80 E3 25  tr5...9&.......%
25C0: 52 1A 80 F0 FF FF 7F F0  FF FF 7F 70 31 34 31 45  R..........p141E
25D0: 1A 80 F0 FF FF 7F F0 FF  FF 7F 70 74 72 35 01 80  ..........ptr5..
25E0: 01 39 26 02 02 10 1F 80  80 0E 26 52 1A 80 F0 FF  .9&.......&R....
25F0: FF 7F F0 FF FF 7F 70 31  34 31 45 1A 80 F0 FF FF  ......p141E.....
2600: 7F F0 FF FF 7F 70 6D 74  35 01 80 01 39 26 02 02  .....pmt5...9&..
2610: 10 20 80 80 39 26 52 1A  80 F0 FF FF 7F F0 FF FF  . ..9&R.........
2620: 7F 70 31 34 31 45 1A 80  F0 FF FF 7F F0 FF FF 7F  .p141E..........
2630: 70 67 6C 35 01 80 01 39  26 6E F0 FF FF 7F C7 80  pgl5...9&n......
2640: 99 F0 FF FF 7F 1C 1B 80  27 10 F0 FF FF 7F 27 1C  ........'.....'.
2650: 21 80 52 1A 80 F0 FF FF  7F F0 FF FF 7F 70 68 6D  !.R..........phm
2660: 35 52 1A 80 F0 FF FF 7F  F0 FF FF 7F 70 6D 74 35  5R..........pmt5
2670: 52 1A 80 F0 FF FF 7F F0  FF FF 7F 70 67 6C 35 52  R..........pgl5R
2680: 1A 80 F0 FF FF 7F F0 FF  FF 7F 70 65 6D 35 52 1A  ..........pem5R.
2690: 80 F0 FF FF 7F F0 FF FF  7F 70 74 72 35 45 1A 80  .........ptr5E..
26A0: F0 FF FF 7F F0 FF FF 7F  70 31 35 37 01 80 1C 21  ........p157...!
26B0: 80 4A C1 82 06 01 F0 FF  FF 7F 1C 44 80 27 10 C1  .J.........D.'..
26C0: 82 06 01 0E 1C 06 80 5D  01 80 1B 80 1A 64 00 52  .......].....d.R
26D0: 1A 80 F0 FF FF 7F F0 FF  FF 7F 70 31 35 37 29 10  ..........p157).
26E0: C4 82 06 01 0B 29 10 C5  82 06 01 0A 1C 19 80 27  .....).........'
26F0: 10 C2 82 06 01 10 27 10  C4 82 06 01 14 1C 06 80  ......'.........
2700: 78 1C 2B 80 AB 09 1C 2B  80 AB 11 01 80 1C 03 80  x.+....+........
2710: 5C 00 01 80 5C 01 01 80  9A 46 00 45 00 80 F0 FF  \...\....F.E....
2720: FF 7F F0 FF FF 7F 66 64  69 32 01 80 21 00        ......fdi2..!.  
```

#### Opcodes

```
  0: 0x0292 [0x42] SET_CLI_EVENT_CANCEL_DATA()
  1: 0x0293 [0x1A] CALL_SUBROUTINE(address=0x0064)
  2: 0x0296 [0x46] CAMERA_CONTROL: Disable user control
  3: 0x0298 [0x38] SET_CLIENT_EVENT_MODE(mode=19*)
  4: 0x029B [0x4E] SET_ENTITY_HIDE_FLAG: Show LocalPlayer
  5: 0x02A1 [0x27] REQ_SET(priority=0x10, entity_id=Excenmille (ID: 17203904/0x010682C0), tag_num=0x04)
  6: 0x02A8 [0x27] REQ_SET(priority=0x10, entity_id=Unnamed NPC (ID: 17203916/0x010682CC), tag_num=0x04)
  7: 0x02AF [0x27] REQ_SET(priority=0x10, entity_id=Unnamed NPC (ID: 17203917/0x010682CD), tag_num=0x04)
  8: 0x02B6 [0x27] REQ_SET(priority=0x10, entity_id=??? (ID: 17203907/0x010682C3), tag_num=0x04)
  9: 0x02BD [0x92] Excenmille (ID: 17203904/0x010682C0)->Render.Flags3 ^= 0x01
 10: 0x02C3 [0x92] Bostillette (ID: 17203905/0x010682C1)->Render.Flags3 ^= 0x01
 11: 0x02C9 [0x92] Unnamed NPC (ID: 17203916/0x010682CC)->Render.Flags3 ^= 0x01
 12: 0x02CF [0x92] Unnamed NPC (ID: 17203917/0x010682CD)->Render.Flags3 ^= 0x01
 13: 0x02D5 [0x94] LocalPlayer->Render.Flags3 ^= 0x01
 14: 0x02DB [0x94] Excenmille (ID: 17203904/0x010682C0)->Render.Flags3 ^= 0x01
 15: 0x02E1 [0x94] Bostillette (ID: 17203905/0x010682C1)->Render.Flags3 ^= 0x01
 16: 0x02E7 [0x94] Unnamed NPC (ID: 17203916/0x010682CC)->Render.Flags3 ^= 0x01
 17: 0x02ED [0x94] Unnamed NPC (ID: 17203917/0x010682CD)->Render.Flags3 ^= 0x01
 18: 0x02F3 [0xBA] SET_ENTITY_POSITION(entity_id=LocalPlayer, pos_x=533.332*, pos_z=556.675*, pos_y=0.528*, direction=184.3*)
 19: 0x0300 [0xBA] SET_ENTITY_POSITION(entity_id=Excenmille (ID: 17203904/0x010682C0), pos_x=531.770*, pos_z=558.325*, pos_y=0.382*, direction=179.6*)
 20: 0x030D [0xBA] SET_ENTITY_POSITION(entity_id=Bostillette (ID: 17203905/0x010682C1), pos_x=538.807*, pos_z=558.510*, pos_y=0.939*, direction=350.2*)
 21: 0x031A [0x80] LOAD_WAIT(entity=LocalPlayer)
 22: 0x031F [0x80] LOAD_WAIT(entity=Excenmille (ID: 17203904/0x010682C0))
 23: 0x0324 [0x80] LOAD_WAIT(entity=Bostillette (ID: 17203905/0x010682C1))
 24: 0x0329 [0x80] LOAD_WAIT(entity=Unnamed NPC (ID: 17203916/0x010682CC))
 25: 0x032E [0x80] LOAD_WAIT(entity=Unnamed NPC (ID: 17203917/0x010682CD))
 26: 0x0333 [0x27] REQ_SET(priority=0x10, entity_id=e02 (ID: 17203915/0x010682CB), tag_num=0x0A)
 27: 0x033A [0x27] REQ_SET(priority=0x10, entity_id=Maxcimille (ID: 17203906/0x010682C2), tag_num=0x10)
 28: 0x0341 [0x27] REQ_SET(priority=0x10, entity_id=Alphonimile (ID: 17203908/0x010682C4), tag_num=0x14)
 29: 0x0348 [0xBB] LOAD_EVENT_SCHEDULER_ALT: Load scheduler "kl01" with entities [Unnamed NPC (ID: 17203916/0x010682CC), Unnamed NPC (ID: 17203916/0x010682CC)], work=[199*, 0*]
 30: 0x0359 [0xBB] LOAD_EVENT_SCHEDULER_ALT: Load scheduler "kl01" with entities [Unnamed NPC (ID: 17203917/0x010682CD), Unnamed NPC (ID: 17203917/0x010682CD)], work=[199*, 0*]
 31: 0x036A [0xBB] LOAD_EVENT_SCHEDULER_ALT: Load scheduler "kl01" with entities [??? (ID: 17203907/0x010682C3), ??? (ID: 17203907/0x010682C3)], work=[199*, 0*]
 32: 0x037B [0x5C] MUSIC_CONTROL: Set Idle (Day) music to song 252*
 33: 0x037F [0x5C] MUSIC_CONTROL: Set Idle (Night) music to song 252*
 34: 0x0383 [0x5C] MUSIC_CONTROL: Set Combat (Solo) music to song 252*
 35: 0x0387 [0x5C] MUSIC_CONTROL: Set Combat (Party) music to song 252*
 36: 0x038B [0x9A] WAIT_MUSIC_SERVER()
 37: 0x038C [0x59] UPDATE_ENTITY_DATA: Set LocalPlayer main speed = 11* * 0.1
 38: 0x0394 [0x59] UPDATE_ENTITY_DATA: Set Excenmille (ID: 17203904/0x010682C0) main speed = 13* * 0.1
 39: 0x039C [0x27] REQ_SET(priority=0x10, entity_id=Excenmille (ID: 17203904/0x010682C0), tag_num=0x0A)
 40: 0x03A3 [0x27] REQ_SET(priority=0x10, entity_id=LocalPlayer, tag_num=0x24)
 41: 0x03AA [0x1C] WAIT(5* ticks)
 42: 0x03AD [0x45] LOAD_SCHEDULED_TASK: Load scheduler "p101" with entities [LocalPlayer, LocalPlayer], work=[496*, 0*]
 43: 0x03BE [0x1A] CALL_SUBROUTINE(address=0x0043)
 44: 0x03C1 [0x1C] WAIT(120* ticks)
 45: 0x03C4 [0x29] REQ_SET_WAIT(priority=0x10, entity_id=LocalPlayer, tag_num=0x1E)
 46: 0x03CB [0x02] IF !(Work_Zone[2] == 1*) GOTO 0x03F6
 47: 0x03D3 [0x52] END_LOAD_SCHEDULER: End scheduler "p101" with entities [LocalPlayer, LocalPlayer], work=496*
 48: 0x03E2 [0x45] LOAD_SCHEDULED_TASK: Load scheduler "phm1" with entities [LocalPlayer, LocalPlayer], work=[496*, 0*]
 49: 0x03F3 [0x01] GOTO 0x0523
 50: 0x03F6 [0x02] IF !(Work_Zone[2] == 2*) GOTO 0x0421
 51: 0x03FE [0x52] END_LOAD_SCHEDULER: End scheduler "p101" with entities [LocalPlayer, LocalPlayer], work=496*
 52: 0x040D [0x45] LOAD_SCHEDULED_TASK: Load scheduler "phm1" with entities [LocalPlayer, LocalPlayer], work=[496*, 0*]
 53: 0x041E [0x01] GOTO 0x0523
 54: 0x0421 [0x02] IF !(Work_Zone[2] == 3*) GOTO 0x044C
 55: 0x0429 [0x52] END_LOAD_SCHEDULER: End scheduler "p101" with entities [LocalPlayer, LocalPlayer], work=496*
 56: 0x0438 [0x45] LOAD_SCHEDULED_TASK: Load scheduler "pem1" with entities [LocalPlayer, LocalPlayer], work=[496*, 0*]
 57: 0x0449 [0x01] GOTO 0x0523
 58: 0x044C [0x02] IF !(Work_Zone[2] == 4*) GOTO 0x0477
 59: 0x0454 [0x52] END_LOAD_SCHEDULER: End scheduler "p101" with entities [LocalPlayer, LocalPlayer], work=496*
 60: 0x0463 [0x45] LOAD_SCHEDULED_TASK: Load scheduler "pem1" with entities [LocalPlayer, LocalPlayer], work=[496*, 0*]
 61: 0x0474 [0x01] GOTO 0x0523
 62: 0x0477 [0x02] IF !(Work_Zone[2] == 5*) GOTO 0x04A2
 63: 0x047F [0x52] END_LOAD_SCHEDULER: End scheduler "p101" with entities [LocalPlayer, LocalPlayer], work=496*
 64: 0x048E [0x45] LOAD_SCHEDULED_TASK: Load scheduler "ptr1" with entities [LocalPlayer, LocalPlayer], work=[496*, 0*]
 65: 0x049F [0x01] GOTO 0x0523
 66: 0x04A2 [0x02] IF !(Work_Zone[2] == 6*) GOTO 0x04CD
 67: 0x04AA [0x52] END_LOAD_SCHEDULER: End scheduler "p101" with entities [LocalPlayer, LocalPlayer], work=496*
 68: 0x04B9 [0x45] LOAD_SCHEDULED_TASK: Load scheduler "ptr1" with entities [LocalPlayer, LocalPlayer], work=[496*, 0*]
 69: 0x04CA [0x01] GOTO 0x0523
 70: 0x04CD [0x02] IF !(Work_Zone[2] == 7*) GOTO 0x04F8
 71: 0x04D5 [0x52] END_LOAD_SCHEDULER: End scheduler "p101" with entities [LocalPlayer, LocalPlayer], work=496*
 72: 0x04E4 [0x45] LOAD_SCHEDULED_TASK: Load scheduler "phm1" with entities [LocalPlayer, LocalPlayer], work=[496*, 0*]
 73: 0x04F5 [0x01] GOTO 0x0523
 74: 0x04F8 [0x02] IF !(Work_Zone[2] == 8*) GOTO 0x0523
 75: 0x0500 [0x52] END_LOAD_SCHEDULER: End scheduler "p101" with entities [LocalPlayer, LocalPlayer], work=496*
 76: 0x050F [0x45] LOAD_SCHEDULED_TASK: Load scheduler "pem1" with entities [LocalPlayer, LocalPlayer], work=[496*, 0*]
 77: 0x0520 [0x01] GOTO 0x0523

SUBROUTINE_0523:
 78: 0x0523 [0x1C] WAIT(60* ticks)
 79: 0x0526 [0x2B] Excenmille (ID: 17203904/0x010682C0) [11932*]:
     "Tell me, <Player>."
 80: 0x052D [0x23] WAIT_FOR_DIALOG_INTERACTION
 81: 0x052E [0x79] LocalPlayer looks at Excenmille (ID: 17203904/0x010682C0) (Basic look)
 82: 0x0538 [0x52] END_LOAD_SCHEDULER: End scheduler "phm1" with entities [LocalPlayer, LocalPlayer], work=496*
 83: 0x0547 [0x52] END_LOAD_SCHEDULER: End scheduler "pem1" with entities [LocalPlayer, LocalPlayer], work=496*
 84: 0x0556 [0x52] END_LOAD_SCHEDULER: End scheduler "ptr1" with entities [LocalPlayer, LocalPlayer], work=496*
 85: 0x0565 [0x45] LOAD_SCHEDULED_TASK: Load scheduler "p102" with entities [LocalPlayer, LocalPlayer], work=[496*, 0*]
 86: 0x0576 [0x1C] WAIT(30* ticks)
 87: 0x0579 [0x4A] LocalPlayer looks at Excenmille (ID: 17203904/0x010682C0)
 88: 0x0582 [0x6F] WAIT_FRAME_DELAY: Yield until WaitTime reaches zero
 89: 0x0583 [0x76] CHECK_ENTITY_RENDER_FLAGS: Wait until LocalPlayer Render.Flags0 and Render.Flags3 conditions are met
 90: 0x0588 [0x7B] LocalPlayer stops talking
 91: 0x058D [0x5D] SET_MUSIC_VOLUME(volume=0*, fade_time=120*)
 92: 0x0592 [0x2B] Excenmille (ID: 17203904/0x010682C0) [11933*]:
     "Are there ever times when you wish you could...change the past?"
 93: 0x0599 [0x23] WAIT_FOR_DIALOG_INTERACTION
 94: 0x059A [0x29] REQ_SET_WAIT(priority=0x10, entity_id=LocalPlayer, tag_num=0x1E)
 95: 0x05A1 [0x02] IF !(Work_Zone[2] == 1*) GOTO 0x05CC
 96: 0x05A9 [0x52] END_LOAD_SCHEDULER: End scheduler "p102" with entities [LocalPlayer, LocalPlayer], work=496*
 97: 0x05B8 [0x45] LOAD_SCHEDULED_TASK: Load scheduler "phm2" with entities [LocalPlayer, LocalPlayer], work=[496*, 0*]
 98: 0x05C9 [0x01] GOTO 0x06F9
 99: 0x05CC [0x02] IF !(Work_Zone[2] == 2*) GOTO 0x05F7
100: 0x05D4 [0x52] END_LOAD_SCHEDULER: End scheduler "p102" with entities [LocalPlayer, LocalPlayer], work=496*
101: 0x05E3 [0x45] LOAD_SCHEDULED_TASK: Load scheduler "phm2" with entities [LocalPlayer, LocalPlayer], work=[496*, 0*]
102: 0x05F4 [0x01] GOTO 0x06F9
103: 0x05F7 [0x02] IF !(Work_Zone[2] == 3*) GOTO 0x0622
104: 0x05FF [0x52] END_LOAD_SCHEDULER: End scheduler "p102" with entities [LocalPlayer, LocalPlayer], work=496*
105: 0x060E [0x45] LOAD_SCHEDULED_TASK: Load scheduler "pem2" with entities [LocalPlayer, LocalPlayer], work=[496*, 0*]
106: 0x061F [0x01] GOTO 0x06F9
107: 0x0622 [0x02] IF !(Work_Zone[2] == 4*) GOTO 0x064D
108: 0x062A [0x52] END_LOAD_SCHEDULER: End scheduler "p102" with entities [LocalPlayer, LocalPlayer], work=496*
109: 0x0639 [0x45] LOAD_SCHEDULED_TASK: Load scheduler "pem2" with entities [LocalPlayer, LocalPlayer], work=[496*, 0*]
110: 0x064A [0x01] GOTO 0x06F9
111: 0x064D [0x02] IF !(Work_Zone[2] == 5*) GOTO 0x0678
112: 0x0655 [0x52] END_LOAD_SCHEDULER: End scheduler "p102" with entities [LocalPlayer, LocalPlayer], work=496*
113: 0x0664 [0x45] LOAD_SCHEDULED_TASK: Load scheduler "ptr2" with entities [LocalPlayer, LocalPlayer], work=[496*, 0*]
114: 0x0675 [0x01] GOTO 0x06F9
115: 0x0678 [0x02] IF !(Work_Zone[2] == 6*) GOTO 0x06A3
116: 0x0680 [0x52] END_LOAD_SCHEDULER: End scheduler "p102" with entities [LocalPlayer, LocalPlayer], work=496*
117: 0x068F [0x45] LOAD_SCHEDULED_TASK: Load scheduler "ptr2" with entities [LocalPlayer, LocalPlayer], work=[496*, 0*]
118: 0x06A0 [0x01] GOTO 0x06F9
119: 0x06A3 [0x02] IF !(Work_Zone[2] == 7*) GOTO 0x06CE
120: 0x06AB [0x52] END_LOAD_SCHEDULER: End scheduler "p102" with entities [LocalPlayer, LocalPlayer], work=496*
121: 0x06BA [0x45] LOAD_SCHEDULED_TASK: Load scheduler "pmt2" with entities [LocalPlayer, LocalPlayer], work=[496*, 0*]
122: 0x06CB [0x01] GOTO 0x06F9
123: 0x06CE [0x02] IF !(Work_Zone[2] == 8*) GOTO 0x06F9
124: 0x06D6 [0x52] END_LOAD_SCHEDULER: End scheduler "p102" with entities [LocalPlayer, LocalPlayer], work=496*
125: 0x06E5 [0x45] LOAD_SCHEDULED_TASK: Load scheduler "pgl2" with entities [LocalPlayer, LocalPlayer], work=[496*, 0*]
126: 0x06F6 [0x01] GOTO 0x06F9

SUBROUTINE_06F9:
127: 0x06F9 [0x24] CREATE_DIALOG(message_id=11934*, default_option=0*, option_flags=0*)
     "Are there times? [Yes./No.]"
128: 0x0700 [0x25] WAIT_DIALOG_SELECT()
129: 0x0701 [0x02] IF !(Work_Zone[0] == 0*) GOTO 0x079F
130: 0x0709 [0x6E] LocalPlayer uses emote 7*
131: 0x0710 [0x99] Wait for LocalPlayer animation to complete
132: 0x0715 [0x1C] WAIT(120* ticks)
133: 0x0718 [0x4A] Excenmille (ID: 17203904/0x010682C0) looks at LocalPlayer
134: 0x0721 [0x7B] Excenmille (ID: 17203904/0x010682C0) stops talking
135: 0x0726 [0x1C] WAIT(30* ticks)
136: 0x0729 [0x52] END_LOAD_SCHEDULER: End scheduler "phm2" with entities [LocalPlayer, LocalPlayer], work=496*
137: 0x0738 [0x52] END_LOAD_SCHEDULER: End scheduler "pem2" with entities [LocalPlayer, LocalPlayer], work=496*
138: 0x0747 [0x52] END_LOAD_SCHEDULER: End scheduler "ptr2" with entities [LocalPlayer, LocalPlayer], work=496*
139: 0x0756 [0x52] END_LOAD_SCHEDULER: End scheduler "pmt2" with entities [LocalPlayer, LocalPlayer], work=496*
140: 0x0765 [0x52] END_LOAD_SCHEDULER: End scheduler "pgl2" with entities [LocalPlayer, LocalPlayer], work=496*
141: 0x0774 [0x45] LOAD_SCHEDULED_TASK: Load scheduler "p103" with entities [LocalPlayer, LocalPlayer], work=[496*, 0*]
142: 0x0785 [0x2B] Excenmille (ID: 17203904/0x010682C0) [11935*]:
     "Truly? Then that is one more facet in which we two are alike."
143: 0x078C [0x23] WAIT_FOR_DIALOG_INTERACTION
144: 0x078D [0x52] END_LOAD_SCHEDULER: End scheduler "p103" with entities [LocalPlayer, LocalPlayer], work=496*
145: 0x079C [0x01] GOTO 0x083D
146: 0x079F [0x02] IF !(Work_Zone[0] == 1*) GOTO 0x083D
147: 0x07A7 [0x6E] LocalPlayer uses emote 6*
148: 0x07AE [0x99] Wait for LocalPlayer animation to complete
149: 0x07B3 [0x1C] WAIT(120* ticks)
150: 0x07B6 [0x4A] Excenmille (ID: 17203904/0x010682C0) looks at LocalPlayer
151: 0x07BF [0x7B] Excenmille (ID: 17203904/0x010682C0) stops talking
152: 0x07C4 [0x1C] WAIT(30* ticks)
153: 0x07C7 [0x52] END_LOAD_SCHEDULER: End scheduler "phm2" with entities [LocalPlayer, LocalPlayer], work=496*
154: 0x07D6 [0x52] END_LOAD_SCHEDULER: End scheduler "pem2" with entities [LocalPlayer, LocalPlayer], work=496*
155: 0x07E5 [0x52] END_LOAD_SCHEDULER: End scheduler "ptr2" with entities [LocalPlayer, LocalPlayer], work=496*
156: 0x07F4 [0x52] END_LOAD_SCHEDULER: End scheduler "pmt2" with entities [LocalPlayer, LocalPlayer], work=496*
157: 0x0803 [0x52] END_LOAD_SCHEDULER: End scheduler "pgl2" with entities [LocalPlayer, LocalPlayer], work=496*
158: 0x0812 [0x45] LOAD_SCHEDULED_TASK: Load scheduler "p103" with entities [LocalPlayer, LocalPlayer], work=[496*, 0*]
159: 0x0823 [0x2B] Excenmille (ID: 17203904/0x010682C0) [11936*]:
     "Truly? Words cannot describe how much I envy you."
160: 0x082A [0x23] WAIT_FOR_DIALOG_INTERACTION
161: 0x082B [0x52] END_LOAD_SCHEDULER: End scheduler "p103" with entities [LocalPlayer, LocalPlayer], work=496*
162: 0x083A [0x01] GOTO 0x083D

SUBROUTINE_083D:
163: 0x083D [0x52] END_LOAD_SCHEDULER: End scheduler "phm2" with entities [LocalPlayer, LocalPlayer], work=496*
164: 0x084C [0x52] END_LOAD_SCHEDULER: End scheduler "pem2" with entities [LocalPlayer, LocalPlayer], work=496*
165: 0x085B [0x52] END_LOAD_SCHEDULER: End scheduler "ptr2" with entities [LocalPlayer, LocalPlayer], work=496*
166: 0x086A [0x52] END_LOAD_SCHEDULER: End scheduler "pmt2" with entities [LocalPlayer, LocalPlayer], work=496*
167: 0x0879 [0x52] END_LOAD_SCHEDULER: End scheduler "pgl2" with entities [LocalPlayer, LocalPlayer], work=496*
168: 0x0888 [0x45] LOAD_SCHEDULED_TASK: Load scheduler "p104" with entities [LocalPlayer, LocalPlayer], work=[496*, 0*]
169: 0x0899 [0x5D] SET_MUSIC_VOLUME(volume=0*, fade_time=180*)
170: 0x089E [0x2B] Excenmille (ID: 17203904/0x010682C0) [11937*]:
     "That question must have seemed rather out of the blue. The words Zogbog spoke, you see, of being able to travel between eras--they recalled to mind a fateful time in my past."
171: 0x08A5 [0x23] WAIT_FOR_DIALOG_INTERACTION
172: 0x08A6 [0x2B] Excenmille (ID: 17203904/0x010682C0) [11938*]:
     "'Twas early in the war, shortly before San d'Oria came under siege by the Bloodwing Horde..."
173: 0x08AD [0x23] WAIT_FOR_DIALOG_INTERACTION
174: 0x08AE [0x45] LOAD_SCHEDULED_TASK: Load scheduler "fdo2" with entities [LocalPlayer, LocalPlayer], work=[200*, 0*]
175: 0x08BF [0x55] WAIT_LOAD_SCHEDULER: Wait for scheduler "fdo2" with entities [LocalPlayer, LocalPlayer], work=200*
176: 0x08CE [0x52] END_LOAD_SCHEDULER: End scheduler "p104" with entities [LocalPlayer, LocalPlayer], work=496*
177: 0x08DD [0x7B] LocalPlayer stops talking
178: 0x08E2 [0x34] LOAD_UNLOAD_ZONE(zone_id=230*)
179: 0x08E5 [0x77] SET_EVENT_TIME_WEATHER(hour=0*, weather=1*)
180: 0x08EA [0xAB] EventEntity->UnknownFlag = 1 // Enable unknown flag
181: 0x08EC [0x1C] WAIT(15* ticks)
182: 0x08EF [0x75] LOAD_ROOM(Load indoor room, room=335*)
183: 0x08F3 [0x75] LOAD_ROOM(No action)
184: 0x08F5 [0x27] REQ_SET(priority=0x10, entity_id=Alphonimile (ID: 17203908/0x010682C4), tag_num=0x04)
185: 0x08FC [0x27] REQ_SET(priority=0x10, entity_id=gare (ID: 17203909/0x010682C5), tag_num=0x04)
186: 0x0903 [0x27] REQ_SET(priority=0x10, entity_id=Bostillette (ID: 17203905/0x010682C1), tag_num=0x04)
187: 0x090A [0x92] Alphonimile (ID: 17203908/0x010682C4)->Render.Flags3 ^= 0x01
188: 0x0910 [0x92] gare (ID: 17203909/0x010682C5)->Render.Flags3 ^= 0x01
189: 0x0916 [0x92] Bostillette (ID: 17203905/0x010682C1)->Render.Flags3 ^= 0x01
190: 0x091C [0x94] Alphonimile (ID: 17203908/0x010682C4)->Render.Flags3 ^= 0x01
191: 0x0922 [0x94] Bostillette (ID: 17203905/0x010682C1)->Render.Flags3 ^= 0x01
192: 0x0928 [0x94] gare (ID: 17203909/0x010682C5)->Render.Flags3 ^= 0x01
193: 0x092E [0xBA] SET_ENTITY_POSITION(entity_id=Excenmille (ID: 17203904/0x010682C0), pos_x=-303.344*, pos_z=99.783*, pos_y=-9.199*, direction=41.7*)
194: 0x093B [0xBA] SET_ENTITY_POSITION(entity_id=Alphonimile (ID: 17203908/0x010682C4), pos_x=-302.453*, pos_z=97.841*, pos_y=-9.199*, direction=41.7*)
195: 0x0948 [0xBA] SET_ENTITY_POSITION(entity_id=gare (ID: 17203909/0x010682C5), pos_x=-301.864*, pos_z=102.238*, pos_y=-9.199*, direction=41.7*)
196: 0x0955 [0x4A] Excenmille (ID: 17203904/0x010682C0) looks at Alphonimile (ID: 17203908/0x010682C4)
197: 0x095E [0x4A] Alphonimile (ID: 17203908/0x010682C4) looks at Excenmille (ID: 17203904/0x010682C0)
198: 0x0967 [0x4A] gare (ID: 17203909/0x010682C5) looks at Alphonimile (ID: 17203908/0x010682C4)
199: 0x0970 [0x7B] Excenmille (ID: 17203904/0x010682C0) stops talking
200: 0x0975 [0x7B] Alphonimile (ID: 17203908/0x010682C4) stops talking
201: 0x097A [0x7B] gare (ID: 17203909/0x010682C5) stops talking
202: 0x097F [0x7B] o01 (ID: 17203910/0x010682C6) stops talking
203: 0x0984 [0x7B] o02 (ID: 17203911/0x010682C7) stops talking
204: 0x0989 [0x7B] o03 (ID: 17203912/0x010682C8) stops talking
205: 0x098E [0x7B] o04 (ID: 17203913/0x010682C9) stops talking
206: 0x0993 [0x7B] e01 (ID: 17203914/0x010682CA) stops talking
207: 0x0998 [0x7B] e02 (ID: 17203915/0x010682CB) stops talking
208: 0x099D [0x80] LOAD_WAIT(entity=Alphonimile (ID: 17203908/0x010682C4))
209: 0x09A2 [0x80] LOAD_WAIT(entity=gare (ID: 17203909/0x010682C5))
210: 0x09A7 [0x80] LOAD_WAIT(entity=o01 (ID: 17203910/0x010682C6))
211: 0x09AC [0x80] LOAD_WAIT(entity=o02 (ID: 17203911/0x010682C7))
212: 0x09B1 [0x80] LOAD_WAIT(entity=o03 (ID: 17203912/0x010682C8))
213: 0x09B6 [0x80] LOAD_WAIT(entity=o04 (ID: 17203913/0x010682C9))
214: 0x09BB [0x80] LOAD_WAIT(entity=e01 (ID: 17203914/0x010682CA))
215: 0x09C0 [0x80] LOAD_WAIT(entity=e02 (ID: 17203915/0x010682CB))
216: 0x09C5 [0x1C] WAIT(5* ticks)
217: 0x09C8 [0x2C] CREATE_SCHEDULER_TASK: Create scheduler "wpof" with entities [Excenmille (ID: 17203904/0x010682C0), Excenmille (ID: 17203904/0x010682C0)]
218: 0x09D5 [0x29] REQ_SET_WAIT(priority=0x10, entity_id=Alphonimile (ID: 17203908/0x010682C4), tag_num=0x0B)
219: 0x09DC [0x29] REQ_SET_WAIT(priority=0x10, entity_id=gare (ID: 17203909/0x010682C5), tag_num=0x0A)
220: 0x09E3 [0x5C] MUSIC_CONTROL: Set Idle (Day) music to song 159*
221: 0x09E7 [0x5C] MUSIC_CONTROL: Set Idle (Night) music to song 159*
222: 0x09EB [0x1C] WAIT(60* ticks)
223: 0x09EE [0x9A] WAIT_MUSIC_SERVER()
224: 0x09EF [0x59] UPDATE_ENTITY_DATA: Set Alphonimile (ID: 17203908/0x010682C4) main speed = 13* * 0.1
225: 0x09F7 [0x1C] WAIT(5* ticks)
226: 0x09FA [0x45] LOAD_SCHEDULED_TASK: Load scheduler "p105" with entities [LocalPlayer, LocalPlayer], work=[496*, 0*]
227: 0x0A0B [0x1A] CALL_SUBROUTINE(address=0x01D8)
228: 0x0A0E [0x1C] WAIT(120* ticks)
229: 0x0A11 [0x52] END_LOAD_SCHEDULER: End scheduler "p105" with entities [LocalPlayer, LocalPlayer], work=496*
230: 0x0A20 [0x45] LOAD_SCHEDULED_TASK: Load scheduler "p106" with entities [LocalPlayer, LocalPlayer], work=[496*, 0*]
231: 0x0A31 [0x5B] LOAD_EXT_SCHEDULER: Load scheduler "tlb0" with entities [Excenmille (ID: 17203904/0x010682C0), Excenmille (ID: 17203904/0x010682C0)], work=1272*
232: 0x0A40 [0x2B] Excenmille (ID: 17203904/0x010682C0) [11939*]:
     "What? Another expedition?"
233: 0x0A47 [0x23] WAIT_FOR_DIALOG_INTERACTION
234: 0x0A48 [0x52] END_LOAD_SCHEDULER: End scheduler "p106" with entities [LocalPlayer, LocalPlayer], work=496*
235: 0x0A57 [0x45] LOAD_SCHEDULED_TASK: Load scheduler "p107" with entities [LocalPlayer, LocalPlayer], work=[496*, 0*]
236: 0x0A68 [0x5B] LOAD_EXT_SCHEDULER: Load scheduler "tlb1" with entities [Excenmille (ID: 17203904/0x010682C0), Excenmille (ID: 17203904/0x010682C0)], work=1272*
237: 0x0A77 [0x2B] Alphonimile (ID: 17203908/0x010682C4) [11940*]:
     "Aye. My unit departs on the morrow. We're not like to step on Kingdom soil for some time."
238: 0x0A7E [0x23] WAIT_FOR_DIALOG_INTERACTION
239: 0x0A7F [0x5B] LOAD_EXT_SCHEDULER: Load scheduler "fh01" with entities [Excenmille (ID: 17203904/0x010682C0), Excenmille (ID: 17203904/0x010682C0)], work=1299*
240: 0x0A8E [0x5B] LOAD_EXT_SCHEDULER: Load scheduler "utu0" with entities [Excenmille (ID: 17203904/0x010682C0), Excenmille (ID: 17203904/0x010682C0)], work=2654*
241: 0x0A9D [0x1C] WAIT(5* ticks)
242: 0x0AA0 [0x52] END_LOAD_SCHEDULER: End scheduler "p107" with entities [LocalPlayer, LocalPlayer], work=496*
243: 0x0AAF [0x45] LOAD_SCHEDULED_TASK: Load scheduler "p158" with entities [LocalPlayer, LocalPlayer], work=[496*, 0*]
244: 0x0AC0 [0x2B] Excenmille (ID: 17203904/0x010682C0) [11941*]:
     "But...you promised you'd be here with us to celebrate Mother's birthday next week!"
245: 0x0AC7 [0x23] WAIT_FOR_DIALOG_INTERACTION
246: 0x0AC8 [0x4A] gare (ID: 17203909/0x010682C5) looks at Excenmille (ID: 17203904/0x010682C0)
247: 0x0AD1 [0x6F] WAIT_FRAME_DELAY: Yield until WaitTime reaches zero
248: 0x0AD2 [0x76] CHECK_ENTITY_RENDER_FLAGS: Wait until gare (ID: 17203909/0x010682C5) Render.Flags0 and Render.Flags3 conditions are met
249: 0x0AD7 [0x5B] LOAD_EXT_SCHEDULER: Load scheduler "tla0" with entities [gare (ID: 17203909/0x010682C5), gare (ID: 17203909/0x010682C5)], work=1334*
250: 0x0AE6 [0x1C] WAIT(5* ticks)
251: 0x0AE9 [0x52] END_LOAD_SCHEDULER: End scheduler "p158" with entities [LocalPlayer, LocalPlayer], work=496*
252: 0x0AF8 [0x45] LOAD_SCHEDULED_TASK: Load scheduler "p173" with entities [LocalPlayer, LocalPlayer], work=[496*, 0*]
253: 0x0B09 [0x1C] WAIT(100* ticks)
254: 0x0B0C [0x5B] LOAD_EXT_SCHEDULER: Load scheduler "ken0" with entities [Alphonimile (ID: 17203908/0x010682C4), Alphonimile (ID: 17203908/0x010682C4)], work=3098*
255: 0x0B1B [0x1C] WAIT(50* ticks)
256: 0x0B1E [0x52] END_LOAD_SCHEDULER: End scheduler "p173" with entities [LocalPlayer, LocalPlayer], work=496*
257: 0x0B2D [0x45] LOAD_SCHEDULED_TASK: Load scheduler "p108" with entities [LocalPlayer, LocalPlayer], work=[496*, 0*]
258: 0x0B3E [0x1C] WAIT(60* ticks)
259: 0x0B41 [0x2B] Alphonimile (ID: 17203908/0x010682C4) [11942*]:
     "Take this, Excenmille."
260: 0x0B48 [0x1C] WAIT(170* ticks)
261: 0x0B4B [0x5B] LOAD_EXT_SCHEDULER: Load scheduler "f000" with entities [Excenmille (ID: 17203904/0x010682C0), Excenmille (ID: 17203904/0x010682C0)], work=1299*
262: 0x0B5A [0x2C] CREATE_SCHEDULER_TASK: Create scheduler "wpon" with entities [Excenmille (ID: 17203904/0x010682C0), Excenmille (ID: 17203904/0x010682C0)]
263: 0x0B67 [0x7C] Excenmille (ID: 17203904/0x010682C0)->Render.Flags2 |= 0x01
264: 0x0B6D [0x81] SET_ENTITY_BLINKING(blink_flag=0x01, entity=Excenmille (ID: 17203904/0x010682C0))
265: 0x0B73 [0x5B] LOAD_EXT_SCHEDULER: Load scheduler "ryo0" with entities [Excenmille (ID: 17203904/0x010682C0), Excenmille (ID: 17203904/0x010682C0)], work=2984*
266: 0x0B82 [0x1C] WAIT(10* ticks)
267: 0x0B85 [0x52] END_LOAD_SCHEDULER: End scheduler "p108" with entities [LocalPlayer, LocalPlayer], work=496*
268: 0x0B94 [0x45] LOAD_SCHEDULED_TASK: Load scheduler "p160" with entities [LocalPlayer, LocalPlayer], work=[496*, 0*]
269: 0x0BA5 [0x1C] WAIT(10* ticks)
270: 0x0BA8 [0x27] REQ_SET(priority=0x10, entity_id=Alphonimile (ID: 17203908/0x010682C4), tag_num=0x0C)
271: 0x0BAF [0x6B] STOP_AND_IDLE: Alphonimile (ID: 17203908/0x010682C4) stops current action and resets to idle (animation="idl0")
272: 0x0BB8 [0x1C] WAIT(150* ticks)
273: 0x0BBB [0x52] END_LOAD_SCHEDULER: End scheduler "p160" with entities [LocalPlayer, LocalPlayer], work=496*
274: 0x0BCA [0x45] LOAD_SCHEDULED_TASK: Load scheduler "p110" with entities [LocalPlayer, LocalPlayer], work=[496*, 0*]
275: 0x0BDB [0x03] Work_Zone[2] = 120*
276: 0x0BE0 [0x27] REQ_SET(priority=0x10, entity_id=??? (ID: 17203907/0x010682C3), tag_num=0x0A)
277: 0x0BE7 [0x2B] Alphonimile (ID: 17203908/0x010682C4) [11943*]:
     "I charge you with your mother's care in my absence. Promise me you'll keep her safe until my return."
278: 0x0BEE [0x23] WAIT_FOR_DIALOG_INTERACTION
279: 0x0BEF [0x2A] GET_REQ_LEVEL(level=16, entity_id=??? (ID: 17203907/0x010682C3))
280: 0x0BF5 [0x52] END_LOAD_SCHEDULER: End scheduler "p110" with entities [LocalPlayer, LocalPlayer], work=496*
281: 0x0C04 [0x45] LOAD_SCHEDULED_TASK: Load scheduler "p111" with entities [LocalPlayer, LocalPlayer], work=[496*, 0*]
282: 0x0C15 [0x5B] LOAD_EXT_SCHEDULER: Load scheduler "ryo1" with entities [Excenmille (ID: 17203904/0x010682C0), Excenmille (ID: 17203904/0x010682C0)], work=2984*
283: 0x0C24 [0x1C] WAIT(100* ticks)
284: 0x0C27 [0x52] END_LOAD_SCHEDULER: End scheduler "p111" with entities [LocalPlayer, LocalPlayer], work=496*
285: 0x0C36 [0x45] LOAD_SCHEDULED_TASK: Load scheduler "p159" with entities [LocalPlayer, LocalPlayer], work=[496*, 0*]
286: 0x0C47 [0x2B] Excenmille (ID: 17203904/0x010682C0) [11944*]:
     "F-Father."
287: 0x0C4E [0x23] WAIT_FOR_DIALOG_INTERACTION
288: 0x0C4F [0x5D] SET_MUSIC_VOLUME(volume=0*, fade_time=60*)
289: 0x0C54 [0x45] LOAD_SCHEDULED_TASK: Load scheduler "fdo2" with entities [LocalPlayer, LocalPlayer], work=[200*, 0*]
290: 0x0C65 [0x55] WAIT_LOAD_SCHEDULER: Wait for scheduler "fdo2" with entities [LocalPlayer, LocalPlayer], work=200*
291: 0x0C74 [0x52] END_LOAD_SCHEDULER: End scheduler "p159" with entities [LocalPlayer, LocalPlayer], work=496*
292: 0x0C83 [0x2C] CREATE_SCHEDULER_TASK: Create scheduler "wpon" with entities [Excenmille (ID: 17203904/0x010682C0), Excenmille (ID: 17203904/0x010682C0)]
293: 0x0C90 [0x34] LOAD_UNLOAD_ZONE(zone_id=80*)
294: 0x0C93 [0xAB] EventEntity->UnknownFlag = 1 // Enable unknown flag
295: 0x0C95 [0x1C] WAIT(15* ticks)
296: 0x0C98 [0x77] SET_EVENT_TIME_WEATHER(hour=2*, weather=0*)
297: 0x0C9D [0x27] REQ_SET(priority=0x10, entity_id=Alphonimile (ID: 17203908/0x010682C4), tag_num=0x04)
298: 0x0CA4 [0x27] REQ_SET(priority=0x10, entity_id=gare (ID: 17203909/0x010682C5), tag_num=0x04)
299: 0x0CAB [0x27] REQ_SET(priority=0x10, entity_id=o01 (ID: 17203910/0x010682C6), tag_num=0x04)
300: 0x0CB2 [0x27] REQ_SET(priority=0x10, entity_id=o02 (ID: 17203911/0x010682C7), tag_num=0x04)
301: 0x0CB9 [0x27] REQ_SET(priority=0x10, entity_id=o03 (ID: 17203912/0x010682C8), tag_num=0x04)
302: 0x0CC0 [0x27] REQ_SET(priority=0x10, entity_id=o04 (ID: 17203913/0x010682C9), tag_num=0x04)
303: 0x0CC7 [0x27] REQ_SET(priority=0x10, entity_id=Kingslayer Doggvdegg (ID: 17203918/0x010682CE), tag_num=0x04)
304: 0x0CCE [0x27] REQ_SET(priority=0x10, entity_id=Unnamed NPC (ID: 17203923/0x010682D3), tag_num=0x04)
305: 0x0CD5 [0x27] REQ_SET(priority=0x10, entity_id=e01 (ID: 17203914/0x010682CA), tag_num=0x04)
306: 0x0CDC [0x27] REQ_SET(priority=0x10, entity_id=e02 (ID: 17203915/0x010682CB), tag_num=0x04)
307: 0x0CE3 [0x92] Kingslayer Doggvdegg (ID: 17203918/0x010682CE)->Render.Flags3 ^= 0x01
308: 0x0CE9 [0x92] o01 (ID: 17203910/0x010682C6)->Render.Flags3 ^= 0x01
309: 0x0CEF [0x92] o02 (ID: 17203911/0x010682C7)->Render.Flags3 ^= 0x01
310: 0x0CF5 [0x92] o03 (ID: 17203912/0x010682C8)->Render.Flags3 ^= 0x01
311: 0x0CFB [0x92] o04 (ID: 17203913/0x010682C9)->Render.Flags3 ^= 0x01
312: 0x0D01 [0x92] e01 (ID: 17203914/0x010682CA)->Render.Flags3 ^= 0x01
313: 0x0D07 [0x92] e02 (ID: 17203915/0x010682CB)->Render.Flags3 ^= 0x01
314: 0x0D0D [0x94] Kingslayer Doggvdegg (ID: 17203918/0x010682CE)->Render.Flags3 ^= 0x01
315: 0x0D13 [0x94] o01 (ID: 17203910/0x010682C6)->Render.Flags3 ^= 0x01
316: 0x0D19 [0x94] o02 (ID: 17203911/0x010682C7)->Render.Flags3 ^= 0x01
317: 0x0D1F [0x94] o03 (ID: 17203912/0x010682C8)->Render.Flags3 ^= 0x01
318: 0x0D25 [0x94] o04 (ID: 17203913/0x010682C9)->Render.Flags3 ^= 0x01
319: 0x0D2B [0x94] e01 (ID: 17203914/0x010682CA)->Render.Flags3 ^= 0x01
320: 0x0D31 [0x94] e02 (ID: 17203915/0x010682CB)->Render.Flags3 ^= 0x01
321: 0x0D37 [0x94] Unnamed NPC (ID: 17203923/0x010682D3)->Render.Flags3 ^= 0x01
322: 0x0D3D [0x7B] Kingslayer Doggvdegg (ID: 17203918/0x010682CE) stops talking
323: 0x0D42 [0x7B] o01 (ID: 17203910/0x010682C6) stops talking
324: 0x0D47 [0x7B] o02 (ID: 17203911/0x010682C7) stops talking
325: 0x0D4C [0x7B] o03 (ID: 17203912/0x010682C8) stops talking
326: 0x0D51 [0x7B] o04 (ID: 17203913/0x010682C9) stops talking
327: 0x0D56 [0x7B] e01 (ID: 17203914/0x010682CA) stops talking
328: 0x0D5B [0x7B] e02 (ID: 17203915/0x010682CB) stops talking
329: 0x0D60 [0x7B] Unnamed NPC (ID: 17203923/0x010682D3) stops talking
330: 0x0D65 [0x80] LOAD_WAIT(entity=Alphonimile (ID: 17203908/0x010682C4))
331: 0x0D6A [0x80] LOAD_WAIT(entity=gare (ID: 17203909/0x010682C5))
332: 0x0D6F [0x80] LOAD_WAIT(entity=Excenmille (ID: 17203904/0x010682C0))
333: 0x0D74 [0x80] LOAD_WAIT(entity=Unnamed NPC (ID: 17203923/0x010682D3))
334: 0x0D79 [0x80] LOAD_WAIT(entity=Kingslayer Doggvdegg (ID: 17203918/0x010682CE))
335: 0x0D7E [0x80] LOAD_WAIT(entity=o01 (ID: 17203910/0x010682C6))
336: 0x0D83 [0x80] LOAD_WAIT(entity=o02 (ID: 17203911/0x010682C7))
337: 0x0D88 [0x80] LOAD_WAIT(entity=o03 (ID: 17203912/0x010682C8))
338: 0x0D8D [0x80] LOAD_WAIT(entity=o04 (ID: 17203913/0x010682C9))
339: 0x0D92 [0x80] LOAD_WAIT(entity=e01 (ID: 17203914/0x010682CA))
340: 0x0D97 [0x80] LOAD_WAIT(entity=e02 (ID: 17203915/0x010682CB))
341: 0x0D9C [0x1C] WAIT(5* ticks)
342: 0x0D9F [0x29] REQ_SET_WAIT(priority=0x10, entity_id=Kingslayer Doggvdegg (ID: 17203918/0x010682CE), tag_num=0x0C)
343: 0x0DA6 [0x29] REQ_SET_WAIT(priority=0x10, entity_id=Alphonimile (ID: 17203908/0x010682C4), tag_num=0x0E)
344: 0x0DAD [0x29] REQ_SET_WAIT(priority=0x10, entity_id=gare (ID: 17203909/0x010682C5), tag_num=0x0B)
345: 0x0DB4 [0x29] REQ_SET_WAIT(priority=0x10, entity_id=Kingslayer Doggvdegg (ID: 17203918/0x010682CE), tag_num=0x0A)
346: 0x0DBB [0x29] REQ_SET_WAIT(priority=0x10, entity_id=Unnamed NPC (ID: 17203923/0x010682D3), tag_num=0x09)
347: 0x0DC2 [0x29] REQ_SET_WAIT(priority=0x10, entity_id=e02 (ID: 17203915/0x010682CB), tag_num=0x09)
348: 0x0DC9 [0xBA] SET_ENTITY_POSITION(entity_id=Kingslayer Doggvdegg (ID: 17203918/0x010682CE), pos_x=-194.059*, pos_z=63.311*, pos_y=-2.199*, direction=87.9*)
349: 0x0DD6 [0xBA] SET_ENTITY_POSITION(entity_id=Unnamed NPC (ID: 17203923/0x010682D3), pos_x=-196.807*, pos_z=70.492*, pos_y=-2.000*, direction=41.6*)
350: 0x0DE3 [0xBA] SET_ENTITY_POSITION(entity_id=o01 (ID: 17203910/0x010682C6), pos_x=-188.268*, pos_z=44.705*, pos_y=-1.000*, direction=39.2*)
351: 0x0DF0 [0xBA] SET_ENTITY_POSITION(entity_id=o02 (ID: 17203911/0x010682C7), pos_x=-183.243*, pos_z=37.728*, pos_y=-1.000*, direction=41.0*)
352: 0x0DFD [0xBA] SET_ENTITY_POSITION(entity_id=o03 (ID: 17203912/0x010682C8), pos_x=-177.370*, pos_z=36.396*, pos_y=-1.000*, direction=41.6*)
353: 0x0E0A [0xBA] SET_ENTITY_POSITION(entity_id=o04 (ID: 17203913/0x010682C9), pos_x=-190.141*, pos_z=42.480*, pos_y=-0.999*, direction=41.6*)
354: 0x0E17 [0xBA] SET_ENTITY_POSITION(entity_id=Alphonimile (ID: 17203908/0x010682C4), pos_x=-186.886*, pos_z=37.747*, pos_y=-0.999*, direction=41.7*)
355: 0x0E24 [0xBA] SET_ENTITY_POSITION(entity_id=gare (ID: 17203909/0x010682C5), pos_x=-180.980*, pos_z=39.784*, pos_y=-1.000*, direction=212.0*)
356: 0x0E31 [0xBA] SET_ENTITY_POSITION(entity_id=e01 (ID: 17203914/0x010682CA), pos_x=-174.576*, pos_z=33.189*, pos_y=-1.000*, direction=41.6*)
357: 0x0E3E [0xBA] SET_ENTITY_POSITION(entity_id=e02 (ID: 17203915/0x010682CB), pos_x=-182.690*, pos_z=34.478*, pos_y=-0.999*, direction=41.6*)
358: 0x0E4B [0xBA] SET_ENTITY_POSITION(entity_id=Unnamed NPC (ID: 17203916/0x010682CC), pos_x=-199.497*, pos_z=57.578*, pos_y=-1.415*, direction=41.6*)
359: 0x0E58 [0xBA] SET_ENTITY_POSITION(entity_id=Unnamed NPC (ID: 17203917/0x010682CD), pos_x=-179.443*, pos_z=39.811*, pos_y=-1.499*, direction=41.7*)
360: 0x0E65 [0xBA] SET_ENTITY_POSITION(entity_id=??? (ID: 17203907/0x010682C3), pos_x=-194.517*, pos_z=41.027*, pos_y=-1.000*, direction=41.7*)
361: 0x0E72 [0x1C] WAIT(60* ticks)
362: 0x0E75 [0x2C] CREATE_SCHEDULER_TASK: Create scheduler "dead" with entities [Alphonimile (ID: 17203908/0x010682C4), Alphonimile (ID: 17203908/0x010682C4)]
363: 0x0E82 [0x2C] CREATE_SCHEDULER_TASK: Create scheduler "dead" with entities [gare (ID: 17203909/0x010682C5), gare (ID: 17203909/0x010682C5)]
364: 0x0E8F [0xBB] LOAD_EVENT_SCHEDULER_ALT: Load scheduler "s001" with entities [Unnamed NPC (ID: 17203916/0x010682CC), Unnamed NPC (ID: 17203916/0x010682CC)], work=[199*, 0*]
365: 0x0EA0 [0xBB] LOAD_EVENT_SCHEDULER_ALT: Load scheduler "s001" with entities [Unnamed NPC (ID: 17203917/0x010682CD), Unnamed NPC (ID: 17203917/0x010682CD)], work=[199*, 0*]
366: 0x0EB1 [0xBB] LOAD_EVENT_SCHEDULER_ALT: Load scheduler "s001" with entities [??? (ID: 17203907/0x010682C3), ??? (ID: 17203907/0x010682C3)], work=[199*, 0*]
367: 0x0EC2 [0x5C] MUSIC_CONTROL: Set Idle (Day) music to song 247*
368: 0x0EC6 [0x5C] MUSIC_CONTROL: Set Idle (Night) music to song 247*
369: 0x0ECA [0x9A] WAIT_MUSIC_SERVER()
370: 0x0ECB [0x27] REQ_SET(priority=0x10, entity_id=o01 (ID: 17203910/0x010682C6), tag_num=0x0A)
371: 0x0ED2 [0x1C] WAIT(5* ticks)
372: 0x0ED5 [0x27] REQ_SET(priority=0x10, entity_id=o02 (ID: 17203911/0x010682C7), tag_num=0x0A)
373: 0x0EDC [0x27] REQ_SET(priority=0x10, entity_id=e01 (ID: 17203914/0x010682CA), tag_num=0x09)
374: 0x0EE3 [0x1C] WAIT(3* ticks)
375: 0x0EE6 [0x27] REQ_SET(priority=0x10, entity_id=o03 (ID: 17203912/0x010682C8), tag_num=0x0A)
376: 0x0EED [0x27] REQ_SET(priority=0x10, entity_id=e02 (ID: 17203915/0x010682CB), tag_num=0x0B)
377: 0x0EF4 [0x27] REQ_SET(priority=0x10, entity_id=o04 (ID: 17203913/0x010682C9), tag_num=0x0A)
378: 0x0EFB [0x1C] WAIT(5* ticks)
379: 0x0EFE [0x45] LOAD_SCHEDULED_TASK: Load scheduler "p112" with entities [LocalPlayer, LocalPlayer], work=[496*, 0*]
