# 17203816 - Ailbeche

## Common Data

| Field            | Value                   |
|------------------|-------------------------|
| Zone             | Jugner Forest (ID: 104) |
| Block Size       | 548 bytes               |
| Total Events     | 16                      |
| References Count | 40                      |

## List of Events

| Event ID                   | Entrypoint   |   Size |   Instructions |
|----------------------------|--------------|--------|----------------|
| [65535](#event-65535)      | 0x0000       |      1 |              1 |
| [14](#event-14)            | 0x0001       |     10 |              2 |
| [65535.1](#event-655351)   | 0x000B       |     15 |              5 |
| [65535.2](#event-655352)   | 0x001A       |     54 |             10 |
| [65535.3](#event-655353)   | 0x0050       |     13 |              3 |
| [65535.4](#event-655354)   | 0x005D       |     10 |              2 |
| [65535.5](#event-655355)   | 0x0067       |     22 |              8 |
| [65535.6](#event-655356)   | 0x007D       |     10 |              2 |
| [65535.7](#event-655357)   | 0x0087       |     27 |              7 |
| [65535.8](#event-655358)   | 0x00A2       |     15 |              5 |
| [65535.9](#event-655359)   | 0x00B1       |     20 |              6 |
| [65535.10](#event-6553510) | 0x00C5       |     37 |              9 |
| [65535.11](#event-6553511) | 0x00EA       |     17 |              4 |
| [65535.12](#event-6553512) | 0x00FB       |     29 |              3 |
| [65535.13](#event-6553513) | 0x0118       |     19 |              3 |
| [65535.14](#event-6553514) | 0x012B       |      9 |              3 |

## DAT References (imed_data)

|   Index | Hex Value   |   Dec Value |
|---------|-------------|-------------|
|       0 | 0xFFF8A5BB  |  4294485435 |
|       1 | 0x4921C     |      299548 |
|       2 | 0x2310      |        8976 |
|       3 | 0x0CA9      |        3241 |
|       4 | 0x000D      |          13 |
|       5 | 0xFFF8AEB5  |  4294487733 |
|       6 | 0x4B919     |      309529 |
|       7 | 0x2081      |        8321 |
|       8 | 0x056F      |        1391 |
|       9 | 0x005A      |          90 |
|      10 | 0x004B      |          75 |
|      11 | 0x003C      |          60 |
|      12 | 0x0DA6      |        3494 |
|      13 | 0xFFF896EC  |  4294481644 |
|      14 | 0x4D2E3     |      316131 |
|      15 | 0x20D7      |        8407 |
|      16 | 0x012C      |         300 |
|      17 | 0xFFF8B912  |  4294490386 |
|      18 | 0x4BA20     |      309792 |
|      19 | 0x2074      |        8308 |
|      20 | 0x0AC5      |        2757 |
|      21 | 0xFFF8B1EA  |  4294488554 |
|      22 | 0x4CAFA     |      314106 |
|      23 | 0x1F9D      |        8093 |
|      24 | 0x0328      |         808 |
|      25 | 0x0028      |          40 |
|      26 | 0xFFF8B400  |  4294489088 |
|      27 | 0x4BD9F     |      310687 |
|      28 | 0x2047      |        8263 |
|      29 | 0xFFF8B1FB  |  4294488571 |
|      30 | 0x4C17E     |      311678 |
|      31 | 0x2016      |        8214 |
|      32 | 0xFFF8AF26  |  4294487846 |
|      33 | 0x4B146     |      307526 |
|      34 | 0x20F9      |        8441 |
|      35 | 0xFFF8A65D  |  4294485597 |
|      36 | 0x4D30E     |      316174 |
|      37 | 0x1F9C      |        8092 |
|      38 | 0x0F26      |        3878 |
|      39 | 0x001E      |          30 |

## Events

### Event 65535

#### Metadata

| Field        | Value   |
|--------------|---------|
| Entrypoint   | 0x0000  |
| Data Size    | 1 bytes |
| Instructions | 1       |

```
      00 01 02 03 04 05 06 07  08 09 0A 0B 0C 0D 0E 0F
      -- -- -- -- -- -- -- --  -- -- -- -- -- -- -- --
0000: 00                                                .               
```

#### Opcodes

```
  0: 0x0000 [0x00] END_REQSTACK()
```

### Event 14

#### Metadata

| Field        | Value    |
|--------------|----------|
| Entrypoint   | 0x0001   |
| Data Size    | 10 bytes |
| Instructions | 2        |

```
      00 01 02 03 04 05 06 07  08 09 0A 0B 0C 0D 0E 0F
      -- -- -- -- -- -- -- --  -- -- -- -- -- -- -- --
0000:    37 00 80 01 80 02 80  03 80 00                  7.........     
```

#### Opcodes

```
  0: 0x0001 [0x37] UPDATE_EVENT_POSITION_AND_DIR: x=-481.861*, z=299.548*, y=8.976*, direction=284.8°*
  1: 0x000A [0x00] END_REQSTACK()
```

### Event 65535.1

#### Metadata

| Field        | Value    |
|--------------|----------|
| Entrypoint   | 0x000B   |
| Data Size    | 15 bytes |
| Instructions | 5        |

```
      00 01 02 03 04 05 06 07  08 09 0A 0B 0C 0D 0E 0F
      -- -- -- -- -- -- -- --  -- -- -- -- -- -- -- --
0000:                                   32 04 80 1F 00             2....
0010: 05 80 06 80 07 80 1F 01  6F 00                    ........o.      
```

#### Opcodes

```
  0: 0x000B [0x32] ExtData[1]->MainSpeed = 13* * 0.1
  1: 0x000E [0x1F] MOVE_ENTITY: EventEntity moves to X=-479.563*, Z=309.529*, Y=8.321*
  2: 0x0016 [0x1F] MOVE_ENTITY: Update entity position (mode=1)
  3: 0x0018 [0x6F] WAIT_FRAME_DELAY: Yield until WaitTime reaches zero
  4: 0x0019 [0x00] END_REQSTACK()
```

### Event 65535.2

#### Metadata

| Field        | Value    |
|--------------|----------|
| Entrypoint   | 0x001A   |
| Data Size    | 54 bytes |
| Instructions | 10       |

```
      00 01 02 03 04 05 06 07  08 09 0A 0B 0C 0D 0E 0F
      -- -- -- -- -- -- -- --  -- -- -- -- -- -- -- --
0010:                                39 08 80 1C 09 80            9.....
0020: 5B 0A 80 F8 FF FF 7F F8  FF FF 7F 74 6C 6B 30 1C  [..........tlk0.
0030: 0B 80 39 0C 80 1C 09 80  5B 0A 80 F8 FF FF 7F F8  ..9.....[.......
0040: FF FF 7F 74 6C 6B 30 1C  0B 80 5E 69 64 6C 30 00  ...tlk0...^idl0.
```

#### Opcodes

```
  0: 0x001A [0x39] SET_ENTITY_DIRECTION(direction=7.6°*)
  1: 0x001D [0x1C] WAIT(90* ticks)
  2: 0x0020 [0x5B] LOAD_EXT_SCHEDULER: Load scheduler "tlk0" with entities [EventEntity, EventEntity], work=75*
  3: 0x002F [0x1C] WAIT(60* ticks)
  4: 0x0032 [0x39] SET_ENTITY_DIRECTION(direction=19.2°*)
  5: 0x0035 [0x1C] WAIT(90* ticks)
  6: 0x0038 [0x5B] LOAD_EXT_SCHEDULER: Load scheduler "tlk0" with entities [EventEntity, EventEntity], work=75*
  7: 0x0047 [0x1C] WAIT(60* ticks)
  8: 0x004A [0x5E] EventEntity goes idle (kills current action) (animation: "idl0")
  9: 0x004F [0x00] END_REQSTACK()
```

### Event 65535.3

#### Metadata

| Field        | Value    |
|--------------|----------|
| Entrypoint   | 0x0050   |
| Data Size    | 13 bytes |
| Instructions | 3        |

```
      00 01 02 03 04 05 06 07  08 09 0A 0B 0C 0D 0E 0F
      -- -- -- -- -- -- -- --  -- -- -- -- -- -- -- --
0050: 31 00 0D 80 0E 80 0F 80  10 80 31 01 00           1.........1..   
```

#### Opcodes

```
  0: 0x0050 [0x31] UPDATE_ENTITY_POSITION: Set EventEntity goal position to X=-485.652*, Z=316.131*, Y=8.407*, Time=300*
  1: 0x005A [0x31] UPDATE_ENTITY_POSITION: Move EventEntity towards goal position
  2: 0x005C [0x00] END_REQSTACK()
```

### Event 65535.4

#### Metadata

| Field        | Value    |
|--------------|----------|
| Entrypoint   | 0x005D   |
| Data Size    | 10 bytes |
| Instructions | 2        |

```
      00 01 02 03 04 05 06 07  08 09 0A 0B 0C 0D 0E 0F
      -- -- -- -- -- -- -- --  -- -- -- -- -- -- -- --
0050:                                         37 11 80               7..
0060: 12 80 13 80 14 80 00                              .......         
```

#### Opcodes

```
  0: 0x005D [0x37] UPDATE_EVENT_POSITION_AND_DIR: x=-476.910*, z=309.792*, y=8.308*, direction=242.3°*
  1: 0x0066 [0x00] END_REQSTACK()
```

### Event 65535.5

#### Metadata

| Field        | Value    |
|--------------|----------|
| Entrypoint   | 0x0067   |
| Data Size    | 22 bytes |
| Instructions | 8        |

```
      00 01 02 03 04 05 06 07  08 09 0A 0B 0C 0D 0E 0F
      -- -- -- -- -- -- -- --  -- -- -- -- -- -- -- --
0060:                      32  04 80 1F 00 15 80 16 80         2........
0070: 17 80 1F 01 6F 1E 6B 82  06 01 6F 70 00           ....o.k...op.   
```

#### Opcodes

```
  0: 0x0067 [0x32] ExtData[1]->MainSpeed = 13* * 0.1
  1: 0x006A [0x1F] MOVE_ENTITY: EventEntity moves to X=-478.742*, Z=314.106*, Y=8.093*
  2: 0x0072 [0x1F] MOVE_ENTITY: Update entity position (mode=1)
  3: 0x0074 [0x6F] WAIT_FRAME_DELAY: Yield until WaitTime reaches zero
  4: 0x0075 [0x1E] EventEntity looks at Vilbert (ID: 17203819/0x0106826B) and starts talking
  5: 0x007A [0x6F] WAIT_FRAME_DELAY: Yield until WaitTime reaches zero
  6: 0x007B [0x70] WAIT_ENTITY_RENDER_FLAG: Wait while EventEntity->Render.Flags3 bit 2 is set (cancel turn if not)
  7: 0x007C [0x00] END_REQSTACK()
```

### Event 65535.6

#### Metadata

| Field        | Value    |
|--------------|----------|
| Entrypoint   | 0x007D   |
| Data Size    | 10 bytes |
| Instructions | 2        |

```
      00 01 02 03 04 05 06 07  08 09 0A 0B 0C 0D 0E 0F
      -- -- -- -- -- -- -- --  -- -- -- -- -- -- -- --
0070:                                         37 15 80               7..
0080: 16 80 17 80 18 80 00                              .......         
```

#### Opcodes

```
  0: 0x007D [0x37] UPDATE_EVENT_POSITION_AND_DIR: x=-478.742*, z=314.106*, y=8.093*, direction=71.0°*
  1: 0x0086 [0x00] END_REQSTACK()
```

### Event 65535.7

#### Metadata

| Field        | Value    |
|--------------|----------|
| Entrypoint   | 0x0087   |
| Data Size    | 27 bytes |
| Instructions | 7        |

```
      00 01 02 03 04 05 06 07  08 09 0A 0B 0C 0D 0E 0F
      -- -- -- -- -- -- -- --  -- -- -- -- -- -- -- --
0080:                      32  19 80 27 03 69 82 06 01         2..'.i...
0090: 04 1F 00 1A 80 1B 80 1C  80 1F 01 6F 1E 69 82 06  ...........o.i..
00A0: 01 00                                             ..              
```

#### Opcodes

```
  0: 0x0087 [0x32] ExtData[1]->MainSpeed = 40* * 0.1
  1: 0x008A [0x27] REQ_SET(priority=0x03, entity_id=Exoroche (ID: 17203817/0x01068269), tag_num=0x04)
  2: 0x0091 [0x1F] MOVE_ENTITY: EventEntity moves to X=-478.208*, Z=310.687*, Y=8.263*
  3: 0x0099 [0x1F] MOVE_ENTITY: Update entity position (mode=1)
  4: 0x009B [0x6F] WAIT_FRAME_DELAY: Yield until WaitTime reaches zero
  5: 0x009C [0x1E] EventEntity looks at Exoroche (ID: 17203817/0x01068269) and starts talking
  6: 0x00A1 [0x00] END_REQSTACK()
```

### Event 65535.8

#### Metadata

| Field        | Value    |
|--------------|----------|
| Entrypoint   | 0x00A2   |
| Data Size    | 15 bytes |
| Instructions | 5        |

```
      00 01 02 03 04 05 06 07  08 09 0A 0B 0C 0D 0E 0F
      -- -- -- -- -- -- -- --  -- -- -- -- -- -- -- --
00A0:       32 04 80 1F 00 1D  80 1E 80 1F 80 1F 01 6F    2............o
00B0: 00                                                .               
```

#### Opcodes

```
  0: 0x00A2 [0x32] ExtData[1]->MainSpeed = 13* * 0.1
  1: 0x00A5 [0x1F] MOVE_ENTITY: EventEntity moves to X=-478.725*, Z=311.678*, Y=8.214*
  2: 0x00AD [0x1F] MOVE_ENTITY: Update entity position (mode=1)
  3: 0x00AF [0x6F] WAIT_FRAME_DELAY: Yield until WaitTime reaches zero
  4: 0x00B0 [0x00] END_REQSTACK()
```

### Event 65535.9

#### Metadata

| Field        | Value    |
|--------------|----------|
| Entrypoint   | 0x00B1   |
| Data Size    | 20 bytes |
| Instructions | 6        |

```
      00 01 02 03 04 05 06 07  08 09 0A 0B 0C 0D 0E 0F
      -- -- -- -- -- -- -- --  -- -- -- -- -- -- -- --
00B0:    32 19 80 1F 00 20 80  21 80 22 80 1F 01 6F 1E   2.... .!."...o.
00C0: 6A 82 06 01 00                                    j....           
```

#### Opcodes

```
  0: 0x00B1 [0x32] ExtData[1]->MainSpeed = 40* * 0.1
  1: 0x00B4 [0x1F] MOVE_ENTITY: EventEntity moves to X=-479.450*, Z=307.526*, Y=8.441*
  2: 0x00BC [0x1F] MOVE_ENTITY: Update entity position (mode=1)
  3: 0x00BE [0x6F] WAIT_FRAME_DELAY: Yield until WaitTime reaches zero
  4: 0x00BF [0x1E] EventEntity looks at Exoroche (ID: 17203818/0x0106826A) and starts talking
  5: 0x00C4 [0x00] END_REQSTACK()
```

### Event 65535.10

#### Metadata

| Field        | Value    |
|--------------|----------|
| Entrypoint   | 0x00C5   |
| Data Size    | 37 bytes |
| Instructions | 9        |

```
      00 01 02 03 04 05 06 07  08 09 0A 0B 0C 0D 0E 0F
      -- -- -- -- -- -- -- --  -- -- -- -- -- -- -- --
00C0:                32 19 80  1F 00 23 80 24 80 25 80       2....#.$.%.
00D0: 1F 01 6F 1E 6A 82 06 01  6F 70 5B 0A 80 F8 FF FF  ..o.j...op[.....
00E0: 7F F8 FF FF 7F 74 6C 6B  30 00                    .....tlk0.      
```

#### Opcodes

```
  0: 0x00C5 [0x32] ExtData[1]->MainSpeed = 40* * 0.1
  1: 0x00C8 [0x1F] MOVE_ENTITY: EventEntity moves to X=-481.699*, Z=316.174*, Y=8.092*
  2: 0x00D0 [0x1F] MOVE_ENTITY: Update entity position (mode=1)
  3: 0x00D2 [0x6F] WAIT_FRAME_DELAY: Yield until WaitTime reaches zero
  4: 0x00D3 [0x1E] EventEntity looks at Exoroche (ID: 17203818/0x0106826A) and starts talking
  5: 0x00D8 [0x6F] WAIT_FRAME_DELAY: Yield until WaitTime reaches zero
  6: 0x00D9 [0x70] WAIT_ENTITY_RENDER_FLAG: Wait while EventEntity->Render.Flags3 bit 2 is set (cancel turn if not)
  7: 0x00DA [0x5B] LOAD_EXT_SCHEDULER: Load scheduler "tlk0" with entities [EventEntity, EventEntity], work=75*
  8: 0x00E9 [0x00] END_REQSTACK()
```

### Event 65535.11

#### Metadata

| Field        | Value    |
|--------------|----------|
| Entrypoint   | 0x00EA   |
| Data Size    | 17 bytes |
| Instructions | 4        |

```
      00 01 02 03 04 05 06 07  08 09 0A 0B 0C 0D 0E 0F
      -- -- -- -- -- -- -- --  -- -- -- -- -- -- -- --
00E0:                                1C 0B 80 39 26 80            ...9&.
00F0: 79 00 F8 FF FF 7F 6B 82  06 01 00                 y.....k....     
```

#### Opcodes

```
  0: 0x00EA [0x1C] WAIT(60* ticks)
  1: 0x00ED [0x39] SET_ENTITY_DIRECTION(direction=21.3°*)
  2: 0x00F0 [0x79] EventEntity looks at Vilbert (ID: 17203819/0x0106826B) (Basic look)
  3: 0x00FA [0x00] END_REQSTACK()
```

### Event 65535.12

#### Metadata

| Field        | Value    |
|--------------|----------|
| Entrypoint   | 0x00FB   |
| Data Size    | 29 bytes |
| Instructions | 3        |

```
      00 01 02 03 04 05 06 07  08 09 0A 0B 0C 0D 0E 0F
      -- -- -- -- -- -- -- --  -- -- -- -- -- -- -- --
00F0:                                   5B 0A 80 F8 FF             [....
0100: FF 7F F8 FF FF 7F 70 61  73 30 53 F8 FF FF 7F F8  ......pas0S.....
0110: FF FF 7F 70 61 73 30 00                           ...pas0.        
```

#### Opcodes

```
  0: 0x00FB [0x5B] LOAD_EXT_SCHEDULER: Load scheduler "pas0" with entities [EventEntity, EventEntity], work=75*
  1: 0x010A [0x53] WAIT_SCHEDULER_TASK: Wait for scheduler "pas0" with entities [EventEntity, EventEntity]
  2: 0x0117 [0x00] END_REQSTACK()
```

### Event 65535.13

#### Metadata

| Field        | Value    |
|--------------|----------|
| Entrypoint   | 0x0118   |
| Data Size    | 19 bytes |
| Instructions | 3        |

```
      00 01 02 03 04 05 06 07  08 09 0A 0B 0C 0D 0E 0F
      -- -- -- -- -- -- -- --  -- -- -- -- -- -- -- --
0110:                          5B 0A 80 F8 FF FF 7F F8          [.......
0120: FF FF 7F 74 6C 6B 30 1C  27 80 00                 ...tlk0.'..     
```

#### Opcodes

```
  0: 0x0118 [0x5B] LOAD_EXT_SCHEDULER: Load scheduler "tlk0" with entities [EventEntity, EventEntity], work=75*
  1: 0x0127 [0x1C] WAIT(30* ticks)
  2: 0x012A [0x00] END_REQSTACK()
```

### Event 65535.14

#### Metadata

| Field        | Value   |
|--------------|---------|
| Entrypoint   | 0x012B  |
| Data Size    | 9 bytes |
| Instructions | 3       |

```
      00 01 02 03 04 05 06 07  08 09 0A 0B 0C 0D 0E 0F
      -- -- -- -- -- -- -- --  -- -- -- -- -- -- -- --
0120:                                   5E 69 64 6C 30             ^idl0
0130: 1C 27 80 00                                       .'..            
```

#### Opcodes

```
  0: 0x012B [0x5E] EventEntity goes idle (kills current action) (animation: "idl0")
  1: 0x0130 [0x1C] WAIT(30* ticks)
  2: 0x0133 [0x00] END_REQSTACK()
```
