# 17203937

## Common Data

| Field            | Value                   |
|------------------|-------------------------|
| Zone             | Jugner Forest (ID: 104) |
| Block Size       | 3940 bytes              |
| Total Events     | 3                       |
| References Count | 97                      |

## List of Events

| Event ID              | Entrypoint   |   Size |   Instructions |
|-----------------------|--------------|--------|----------------|
| [65535](#event-65535) | 0x0000       |      1 |              1 |
| [48](#event-48)       | 0x0001       |   1909 |            242 |
| [49](#event-49)       | 0x0776       |   1612 |            189 |

## DAT References (imed_data)

|   Index | Hex Value   |   Dec Value |
|---------|-------------|-------------|
|       0 | 0x0013      |          19 |
|       1 | 0x3B595     |      243093 |
|       2 | 0x222B      |        8747 |
|       3 | 0x00EB      |         235 |
|       4 | 0x01F8      |         504 |
|       5 | 0x38897     |      231575 |
|       6 | 0x266F      |        9839 |
|       7 | 0x007A      |         122 |
|       8 | 0x0092      |         146 |
|       9 | 0x3ABB5     |      240565 |
|      10 | 0x2093      |        8339 |
|      11 | 0x00D7      |         215 |
|      12 | 0x0835      |        2101 |
|      13 | 0xFFFF7C1C  |  4294933532 |
|      14 | 0x007F      |         127 |
|      15 | 0x001E      |          30 |
|      16 | 0x01E9      |         489 |
|      17 | 0x0000      |           0 |
|      18 | 0x0078      |         120 |
|      19 | 0x0080      |         128 |
|      20 | 0x0001      |           1 |
|      21 | 0x005A      |          90 |
|      22 | 0x2F55      |       12117 |
|      23 | 0x2F56      |       12118 |
|      24 | 0x2F57      |       12119 |
|      25 | 0x2F58      |       12120 |
|      26 | 0x2F59      |       12121 |
|      27 | 0x00D2      |         210 |
|      28 | 0x2F5A      |       12122 |
|      29 | 0x2F5B      |       12123 |
|      30 | 0x2F5C      |       12124 |
|      31 | 0x0027      |          39 |
|      32 | 0x2F5D      |       12125 |
|      33 | 0x003C      |          60 |
|      34 | 0x2F5E      |       12126 |
|      35 | 0x2F5F      |       12127 |
|      36 | 0x0002      |           2 |
|      37 | 0x0003      |           3 |
|      38 | 0x0004      |           4 |
|      39 | 0x0005      |           5 |
|      40 | 0x0006      |           6 |
|      41 | 0x0007      |           7 |
|      42 | 0x0008      |           8 |
|      43 | 0x0033      |          51 |
|      44 | 0x001A      |          26 |
|      45 | 0x2F60      |       12128 |
|      46 | 0x2F61      |       12129 |
|      47 | 0x2F62      |       12130 |
|      48 | 0x2F63      |       12131 |
|      49 | 0x2F64      |       12132 |
|      50 | 0x2F65      |       12133 |
|      51 | 0x2F66      |       12134 |
|      52 | 0x0024      |          36 |
|      53 | 0x0014      |          20 |
|      54 | 0x00D5      |         213 |
|      55 | 0x2F67      |       12135 |
|      56 | 0x2F68      |       12136 |
|      57 | 0x00FF      |         255 |
|      58 | 0x2F69      |       12137 |
|      59 | 0x2F6A      |       12138 |
|      60 | 0x2F6B      |       12139 |
|      61 | 0x2F6C      |       12140 |
|      62 | 0x2F6D      |       12141 |
|      63 | 0x00C8      |         200 |
|      64 | 0x3B523     |      242979 |
|      65 | 0x2211      |        8721 |
|      66 | 0x00EA      |         234 |
|      67 | 0x09D9      |        2521 |
|      68 | 0x3A1A4     |      237988 |
|      69 | 0x22FD      |        8957 |
|      70 | 0x00F5      |         245 |
|      71 | 0x0839      |        2105 |
|      72 | 0x3A438     |      238648 |
|      73 | 0x285C      |       10332 |
|      74 | 0xFFFFF91A  |  4294965530 |
|      75 | 0x075E      |        1886 |
|      76 | 0x0050      |          80 |
|      77 | 0x2F6E      |       12142 |
|      78 | 0x000F      |          15 |
|      79 | 0x2F6F      |       12143 |
|      80 | 0x2F70      |       12144 |
|      81 | 0x2F71      |       12145 |
|      82 | 0x2F72      |       12146 |
|      83 | 0x012C      |         300 |
|      84 | 0x0065      |         101 |
|      85 | 0x2F73      |       12147 |
|      86 | 0x2F74      |       12148 |
|      87 | 0x2F75      |       12149 |
|      88 | 0x2F76      |       12150 |
|      89 | 0x009F      |         159 |
|      90 | 0x2F77      |       12151 |
|      91 | 0x2F78      |       12152 |
|      92 | 0x2F79      |       12153 |
|      93 | 0x2F7A      |       12154 |
|      94 | 0x2F7B      |       12155 |
|      95 | 0x00C9      |         201 |
|      96 | 0x002D      |          45 |

## String References

- **12134**: What will you say? [You just leave Vunkerl to me!/I can help...I guess?]

## Events

### Event 65535

#### Metadata

| Field        | Value   |
|--------------|---------|
| Entrypoint   | 0x0000  |
| Data Size    | 1 bytes |
| Instructions | 1       |

```
      00 01 02 03 04 05 06 07  08 09 0A 0B 0C 0D 0E 0F
      -- -- -- -- -- -- -- --  -- -- -- -- -- -- -- --
0000: 00                                                .               
```

#### Opcodes

```
  0: 0x0000 [0x00] END_REQSTACK()
```

### Event 48

#### Metadata

| Field        | Value      |
|--------------|------------|
| Entrypoint   | 0x0001     |
| Data Size    | 1909 bytes |
| Instructions | 242        |

```
      00 01 02 03 04 05 06 07  08 09 0A 0B 0C 0D 0E 0F
      -- -- -- -- -- -- -- --  -- -- -- -- -- -- -- --
0000:    42 1A 94 0B 46 01 38  00 80 27 10 E2 82 06 01   B...F.8..'.....
0010: 02 27 10 E3 82 06 01 04  4E 00 B6 82 06 01 4E 00  .'......N.....N.
0020: B5 82 06 01 92 01 E2 82  06 01 94 01 F0 FF FF 7F  ................
0030: 94 01 AF 82 06 01 94 01  E2 82 06 01 94 01 E0 82  ................
0040: 06 01 94 01 B6 82 06 01  94 01 B5 82 06 01 94 01  ................
0050: E3 82 06 01 BA F0 FF FF  7F 01 80 02 80 03 80 04  ................
0060: 80 BA E2 82 06 01 05 80  06 80 07 80 08 80 BA B6  ................
0070: 82 06 01 09 80 0A 80 0B  80 0C 80 59 05 B5 82 06  ...........Y....
0080: 01 01 BA B5 82 06 01 01  80 02 80 0D 80 04 80 59  ...............Y
0090: 05 E3 82 06 01 01 BA E3  82 06 01 01 80 02 80 0D  ................
00A0: 80 04 80 29 10 E3 82 06  01 09 29 10 E2 82 06 01  ...)......).....
00B0: 0A 80 F0 FF FF 7F 80 AF  82 06 01 80 E2 82 06 01  ................
00C0: 80 E0 82 06 01 80 E3 82  06 01 5C 00 0E 80 5C 01  ..........\...\.
00D0: 0E 80 9A 1C 0F 80 45 10  80 F0 FF FF 7F F0 FF FF  ......E.........
00E0: 7F 37 32 30 30 11 80 1A  73 0B 1C 12 80 52 10 80  .7200...s....R..
00F0: F0 FF FF 7F F0 FF FF 7F  37 32 30 30 45 10 80 F0  ........7200E...
0100: FF FF 7F F0 FF FF 7F 37  32 30 31 11 80 1C 0F 80  .......7201.....
0110: 6C E2 82 06 01 13 80 14  80 79 00 F0 FF FF 7F E0  l........y......
0120: 82 06 01 1C 15 80 27 10  E2 82 06 01 0E 1C 0F 80  ......'.........
0130: 52 10 80 F0 FF FF 7F F0  FF FF 7F 37 32 30 31 45  R..........7201E
0140: 10 80 F0 FF FF 7F F0 FF  FF 7F 37 32 30 32 11 80  ..........7202..
0150: 2B E2 82 06 01 16 80 1C  0F 80 4A F0 FF FF 7F E2  +.........J.....
0160: 82 06 01 23 2A 10 E2 82  06 01 52 10 80 F0 FF FF  ...#*.....R.....
0170: 7F F0 FF FF 7F 37 32 30  32 45 10 80 F0 FF FF 7F  .....7202E......
0180: F0 FF FF 7F 37 32 30 33  11 80 2B E2 82 06 01 17  ....7203..+.....
0190: 80 23 29 10 E2 82 06 01  0B 2B E2 82 06 01 18 80  .#)......+......
01A0: 23 27 10 E2 82 06 01 0F  1C 0F 80 52 10 80 F0 FF  #'.........R....
01B0: FF 7F F0 FF FF 7F 37 32  30 33 45 10 80 F0 FF FF  ......7203E.....
01C0: 7F F0 FF FF 7F 37 32 30  34 11 80 1C 0F 80 2B E2  .....7204.....+.
01D0: 82 06 01 19 80 23 52 10  80 F0 FF FF 7F F0 FF FF  .....#R.........
01E0: 7F 37 32 30 34 45 10 80  F0 FF FF 7F F0 FF FF 7F  .7204E..........
01F0: 37 32 30 35 11 80 2B E2  82 06 01 1A 80 1C 1B 80  7205..+.........
0200: 23 2A 10 E2 82 06 01 52  10 80 F0 FF FF 7F F0 FF  #*.....R........
0210: FF 7F 37 32 30 35 45 10  80 F0 FF FF 7F F0 FF FF  ..7205E.........
0220: 7F 37 32 30 37 11 80 4A  E2 82 06 01 F0 FF FF 7F  .7207..J........
0230: 1C 0F 80 2B E2 82 06 01  1C 80 23 79 00 E2 82 06  ...+......#y....
0240: 01 E0 82 06 01 2B E2 82  06 01 1D 80 23 2B E2 82  .....+......#+..
0250: 06 01 1E 80 23 52 10 80  F0 FF FF 7F F0 FF FF 7F  ....#R..........
0260: 37 32 30 37 45 10 80 F0  FF FF 7F F0 FF FF 7F 37  7207E..........7
0270: 32 30 38 11 80 7B E2 82  06 01 66 1F 80 E2 82 06  208..{....f.....
0280: 01 E2 82 06 01 74 6C 6B  30 2B E2 82 06 01 20 80  .....tlk0+.... .
0290: 23 5D 11 80 21 80 2B E2  82 06 01 22 80 23 52 10  #]..!.+....".#R.
02A0: 80 F0 FF FF 7F F0 FF FF  7F 37 32 30 38 45 10 80  .........7208E..
02B0: F0 FF FF 7F F0 FF FF 7F  37 32 30 39 11 80 66 1F  ........7209..f.
02C0: 80 E2 82 06 01 E2 82 06  01 74 6C 6B 31 1C 21 80  .........tlk1.!.
02D0: 2B E2 82 06 01 23 80 23  52 10 80 F0 FF FF 7F F0  +....#.#R.......
02E0: FF FF 7F 37 32 30 39 29  10 F0 FF FF 7F 1E 02 02  ...7209)........
02F0: 10 14 80 80 0A 03 45 10  80 F0 FF FF 7F F0 FF FF  ......E.........
0300: 7F 37 32 68 6D 11 80 01  CE 03 02 02 10 24 80 80  .72hm........$..
0310: 26 03 45 10 80 F0 FF FF  7F F0 FF FF 7F 37 32 68  &.E..........72h
0320: 66 11 80 01 CE 03 02 02  10 25 80 80 42 03 45 10  f........%..B.E.
0330: 80 F0 FF FF 7F F0 FF FF  7F 37 32 65 6D 11 80 01  .........72em...
0340: CE 03 02 02 10 26 80 80  5E 03 45 10 80 F0 FF FF  .....&..^.E.....
0350: 7F F0 FF FF 7F 37 32 65  66 11 80 01 CE 03 02 02  .....72ef.......
0360: 10 27 80 80 7A 03 45 10  80 F0 FF FF 7F F0 FF FF  .'..z.E.........
0370: 7F 37 32 74 72 11 80 01  CE 03 02 02 10 28 80 80  .72tr........(..
0380: 96 03 45 10 80 F0 FF FF  7F F0 FF FF 7F 37 32 74  ..E..........72t
0390: 72 11 80 01 CE 03 02 02  10 29 80 80 B2 03 45 10  r........)....E.
03A0: 80 F0 FF FF 7F F0 FF FF  7F 37 32 6D 74 11 80 01  .........72mt...
03B0: CE 03 02 02 10 2A 80 80  CE 03 45 10 80 F0 FF FF  .....*....E.....
03C0: 7F F0 FF FF 7F 37 32 67  6C 11 80 01 CE 03 5C 00  .....72gl.....\.
03D0: 2B 80 5C 01 2B 80 9A 1C  12 80 52 10 80 F0 FF FF  +.\.+.....R.....
03E0: 7F F0 FF FF 7F 37 32 68  6D 52 10 80 F0 FF FF 7F  .....72hmR......
03F0: F0 FF FF 7F 37 32 68 66  52 10 80 F0 FF FF 7F F0  ....72hfR.......
0400: FF FF 7F 37 32 65 6D 52  10 80 F0 FF FF 7F F0 FF  ...72emR........
0410: FF 7F 37 32 65 66 52 10  80 F0 FF FF 7F F0 FF FF  ..72efR.........
0420: 7F 37 32 74 72 52 10 80  F0 FF FF 7F F0 FF FF 7F  .72trR..........
0430: 37 32 6D 74 52 10 80 F0  FF FF 7F F0 FF FF 7F 37  72mtR..........7
0440: 32 67 6C 45 10 80 F0 FF  FF 7F F0 FF FF 7F 37 32  2glE..........72
0450: 31 30 11 80 6E E2 82 06  01 2C 80 99 E2 82 06 01  10..n....,......
0460: 1C 21 80 2B E2 82 06 01  2D 80 1C 21 80 23 27 10  .!.+....-..!.#'.
0470: E2 82 06 01 10 1C 0F 80  52 10 80 F0 FF FF 7F F0  ........R.......
0480: FF FF 7F 37 32 31 30 45  10 80 F0 FF FF 7F F0 FF  ...7210E........
0490: FF 7F 37 32 31 31 11 80  2B E2 82 06 01 2E 80 2A  ..7211..+......*
04A0: 10 E2 82 06 01 1C 0F 80  23 66 1F 80 E2 82 06 01  ........#f......
04B0: E2 82 06 01 74 68 6B 31  1C 0F 80 2B E2 82 06 01  ....thk1...+....
04C0: 2F 80 23 52 10 80 F0 FF  FF 7F F0 FF FF 7F 37 32  /.#R..........72
04D0: 31 31 45 10 80 F0 FF FF  7F F0 FF FF 7F 37 32 31  11E..........721
04E0: 32 11 80 2B E2 82 06 01  30 80 23 66 1F 80 E2 82  2..+....0.#f....
04F0: 06 01 E2 82 06 01 74 68  6B 32 53 E2 82 06 01 E2  ......thk2S.....
0500: 82 06 01 74 68 6B 32 52  10 80 F0 FF FF 7F F0 FF  ...thk2R........
0510: FF 7F 37 32 31 32 45 10  80 F0 FF FF 7F F0 FF FF  ..7212E.........
0520: 7F 37 32 31 33 11 80 4A  E2 82 06 01 F0 FF FF 7F  .7213..J........
0530: 6F 76 E2 82 06 01 2B E2  82 06 01 31 80 23 6E E2  ov....+....1.#n.
0540: 82 06 01 28 80 99 E2 82  06 01 2B E2 82 06 01 32  ...(......+....2
0550: 80 1C 12 80 52 10 80 F0  FF FF 7F F0 FF FF 7F 37  ....R..........7
0560: 32 31 33 45 10 80 F0 FF  FF 7F F0 FF FF 7F 37 32  213E..........72
0570: 31 34 11 80 79 00 E2 82  06 01 B6 82 06 01 1C 21  14..y..........!
0580: 80 23 24 33 80 11 80 11  80 25 02 00 10 11 80 00  .#$3.....%......
0590: A1 05 6E F0 FF FF 7F 34  80 99 F0 FF FF 7F 01 B8  ..n....4........
05A0: 05 02 00 10 14 80 00 B8  05 6E F0 FF FF 7F 35 80  .........n....5.
05B0: 99 F0 FF FF 7F 01 B8 05  C5 36 80 B5 82 06 01 B5  .........6......
05C0: 82 06 01 73 30 30 30 11  80 2C E3 82 06 01 E3 82  ...s000..,......
05D0: 06 01 70 6F 70 30 1C 15  80 52 10 80 F0 FF FF 7F  ..pop0...R......
05E0: F0 FF FF 7F 37 32 31 34  45 10 80 F0 FF FF 7F F0  ....7214E.......
05F0: FF FF 7F 37 32 31 35 11  80 7B E2 82 06 01 1C 0F  ...7215..{......
0600: 80 2B E2 82 06 01 37 80  23 52 10 80 F0 FF FF 7F  .+....7.#R......
0610: F0 FF FF 7F 37 32 31 35  45 10 80 F0 FF FF 7F F0  ....7215E.......
0620: FF FF 7F 37 32 31 36 11  80 66 1F 80 E2 82 06 01  ...7216..f......
0630: E2 82 06 01 74 6C 6B 30  2B E2 82 06 01 38 80 23  ....tlk0+....8.#
0640: 52 10 80 F0 FF FF 7F F0  FF FF 7F 37 32 31 36 45  R..........7216E
0650: 10 80 F0 FF FF 7F F0 FF  FF 7F 37 32 31 37 11 80  ..........7217..
0660: 77 39 80 14 80 AB 09 1C  21 80 2B E2 82 06 01 3A  w9......!.+....:
0670: 80 23 52 10 80 F0 FF FF  7F F0 FF FF 7F 37 32 31  .#R..........721
0680: 37 45 10 80 F0 FF FF 7F  F0 FF FF 7F 37 32 31 38  7E..........7218
0690: 11 80 1C 21 80 2B E2 82  06 01 3B 80 23 52 10 80  ...!.+....;.#R..
06A0: F0 FF FF 7F F0 FF FF 7F  37 32 31 38 45 10 80 F0  ........7218E...
06B0: FF FF 7F F0 FF FF 7F 37  32 31 39 11 80 66 1F 80  .......7219..f..
06C0: E2 82 06 01 E2 82 06 01  74 6C 6B 31 AB 0A 78 1C  ........tlk1..x.
06D0: 21 80 C5 36 80 B5 82 06  01 B5 82 06 01 6B 69 6C  !..6.........kil
06E0: 30 11 80 4E 01 E3 82 06  01 2B E2 82 06 01 3C 80  0..N.....+....<.
06F0: 23 52 10 80 F0 FF FF 7F  F0 FF FF 7F 37 32 31 39  #R..........7219
0700: 45 10 80 F0 FF FF 7F F0  FF FF 7F 37 32 32 30 11  E..........7220.
0710: 80 5D 11 80 12 80 2B E2  82 06 01 3D 80 23 6E E2  .]....+....=.#n.
0720: 82 06 01 29 80 99 E2 82  06 01 2B E2 82 06 01 3E  ...)......+....>
0730: 80 23 1A 94 0B 1C 0F 80  52 10 80 F0 FF FF 7F F0  .#......R.......
0740: FF FF 7F 37 32 32 30 45  10 80 F0 FF FF 7F F0 FF  ...7220E........
0750: FF 7F 30 62 6C 66 11 80  5C 00 11 80 5C 01 11 80  ..0blf..\...\...
0760: 9A 46 00 45 3F 80 F0 FF  FF 7F F0 FF FF 7F 66 64  .F.E?.........fd
0770: 69 32 11 80 21 00                                 i2..!.          
```

#### Opcodes

```
  0: 0x0001 [0x42] SET_CLI_EVENT_CANCEL_DATA()
  1: 0x0002 [0x1A] CALL_SUBROUTINE(address=0x0B94)
  2: 0x0005 [0x46] CAMERA_CONTROL: Disable user control
  3: 0x0007 [0x38] SET_CLIENT_EVENT_MODE(mode=19*)
  4: 0x000A [0x27] REQ_SET(priority=0x10, entity_id=Moniquaurie (ID: 17203938/0x010682E2), tag_num=0x02)
  5: 0x0011 [0x27] REQ_SET(priority=0x10, entity_id=Unnamed NPC (ID: 17203939/0x010682E3), tag_num=0x04)
  6: 0x0018 [0x4E] SET_ENTITY_HIDE_FLAG: Show Unnamed NPC (ID: 17203894/0x010682B6)
  7: 0x001E [0x4E] SET_ENTITY_HIDE_FLAG: Show ??? (ID: 17203893/0x010682B5)
  8: 0x0024 [0x92] Moniquaurie (ID: 17203938/0x010682E2)->Render.Flags3 ^= 0x01
  9: 0x002A [0x94] LocalPlayer->Render.Flags3 ^= 0x01
 10: 0x0030 [0x94] Cavernous Maw (ID: 17203887/0x010682AF)->Render.Flags3 ^= 0x01
 11: 0x0036 [0x94] Moniquaurie (ID: 17203938/0x010682E2)->Render.Flags3 ^= 0x01
 12: 0x003C [0x94] Cavernous Maw (ID: 17203936/0x010682E0)->Render.Flags3 ^= 0x01
 13: 0x0042 [0x94] Unnamed NPC (ID: 17203894/0x010682B6)->Render.Flags3 ^= 0x01
 14: 0x0048 [0x94] ??? (ID: 17203893/0x010682B5)->Render.Flags3 ^= 0x01
 15: 0x004E [0x94] Unnamed NPC (ID: 17203939/0x010682E3)->Render.Flags3 ^= 0x01
 16: 0x0054 [0xBA] SET_ENTITY_POSITION(entity_id=LocalPlayer, pos_x=243.093*, pos_z=8.747*, pos_y=0.235*, direction=44.3°*)
 17: 0x0061 [0xBA] SET_ENTITY_POSITION(entity_id=Moniquaurie (ID: 17203938/0x010682E2), pos_x=231.575*, pos_z=9.839*, pos_y=0.122*, direction=12.8°*)
 18: 0x006E [0xBA] SET_ENTITY_POSITION(entity_id=Unnamed NPC (ID: 17203894/0x010682B6), pos_x=240.565*, pos_z=8.339*, pos_y=0.215*, direction=184.7°*)
 19: 0x007B [0x59] UPDATE_ENTITY_DATA: ??? (ID: 17203893/0x010682B5)->Render.Flags0 |= 0x200000
 20: 0x0082 [0xBA] SET_ENTITY_POSITION(entity_id=??? (ID: 17203893/0x010682B5), pos_x=243.093*, pos_z=8.747*, pos_y=-33.764*, direction=44.3°*)
 21: 0x008F [0x59] UPDATE_ENTITY_DATA: Unnamed NPC (ID: 17203939/0x010682E3)->Render.Flags0 |= 0x200000
 22: 0x0096 [0xBA] SET_ENTITY_POSITION(entity_id=Unnamed NPC (ID: 17203939/0x010682E3), pos_x=243.093*, pos_z=8.747*, pos_y=-33.764*, direction=44.3°*)
 23: 0x00A3 [0x29] REQ_SET_WAIT(priority=0x10, entity_id=Unnamed NPC (ID: 17203939/0x010682E3), tag_num=0x09)
 24: 0x00AA [0x29] REQ_SET_WAIT(priority=0x10, entity_id=Moniquaurie (ID: 17203938/0x010682E2), tag_num=0x0A)
 25: 0x00B1 [0x80] LOAD_WAIT(entity=LocalPlayer)
 26: 0x00B6 [0x80] LOAD_WAIT(entity=Cavernous Maw (ID: 17203887/0x010682AF))
 27: 0x00BB [0x80] LOAD_WAIT(entity=Moniquaurie (ID: 17203938/0x010682E2))
 28: 0x00C0 [0x80] LOAD_WAIT(entity=Cavernous Maw (ID: 17203936/0x010682E0))
 29: 0x00C5 [0x80] LOAD_WAIT(entity=Unnamed NPC (ID: 17203939/0x010682E3))
 30: 0x00CA [0x5C] MUSIC_CONTROL: Set Idle (Day) music to song 127*
 31: 0x00CE [0x5C] MUSIC_CONTROL: Set Idle (Night) music to song 127*
 32: 0x00D2 [0x9A] WAIT_MUSIC_SERVER()
 33: 0x00D3 [0x1C] WAIT(30* ticks)
 34: 0x00D6 [0x45] LOAD_SCHEDULED_TASK: Load scheduler "7200" with entities [LocalPlayer, LocalPlayer], work=[489*, 0*]
 35: 0x00E7 [0x1A] CALL_SUBROUTINE(address=0x0B73)
 36: 0x00EA [0x1C] WAIT(120* ticks)
 37: 0x00ED [0x52] END_LOAD_SCHEDULER: End scheduler "7200" with entities [LocalPlayer, LocalPlayer], work=489*
 38: 0x00FC [0x45] LOAD_SCHEDULED_TASK: Load scheduler "7201" with entities [LocalPlayer, LocalPlayer], work=[489*, 0*]
 39: 0x010D [0x1C] WAIT(30* ticks)
 40: 0x0110 [0x6C] FADE_ENTITY_COLOR(entity_id=Moniquaurie (ID: 17203938/0x010682E2), end_alpha=128*, fade_time=1*)
 41: 0x0119 [0x79] LocalPlayer looks at Cavernous Maw (ID: 17203936/0x010682E0) (Basic look)
 42: 0x0123 [0x1C] WAIT(90* ticks)
 43: 0x0126 [0x27] REQ_SET(priority=0x10, entity_id=Moniquaurie (ID: 17203938/0x010682E2), tag_num=0x0E)
 44: 0x012D [0x1C] WAIT(30* ticks)
 45: 0x0130 [0x52] END_LOAD_SCHEDULER: End scheduler "7201" with entities [LocalPlayer, LocalPlayer], work=489*
 46: 0x013F [0x45] LOAD_SCHEDULED_TASK: Load scheduler "7202" with entities [LocalPlayer, LocalPlayer], work=[489*, 0*]
 47: 0x0150 [0x2B] Moniquaurie (ID: 17203938/0x010682E2) [12117*]:
    → "I've been waiting for you, <Player>."
 48: 0x0157 [0x1C] WAIT(30* ticks)
 49: 0x015A [0x4A] LocalPlayer looks at Moniquaurie (ID: 17203938/0x010682E2)
 50: 0x0163 [0x23] WAIT_FOR_DIALOG_INTERACTION
 51: 0x0164 [0x2A] GET_REQ_LEVEL(level=16, entity_id=Moniquaurie (ID: 17203938/0x010682E2))
 52: 0x016A [0x52] END_LOAD_SCHEDULER: End scheduler "7202" with entities [LocalPlayer, LocalPlayer], work=489*
 53: 0x0179 [0x45] LOAD_SCHEDULED_TASK: Load scheduler "7203" with entities [LocalPlayer, LocalPlayer], work=[489*, 0*]
 54: 0x018A [0x2B] Moniquaurie (ID: 17203938/0x010682E2) [12118*]:
    → "Much have I heard of you from Joachim."
 55: 0x0191 [0x23] WAIT_FOR_DIALOG_INTERACTION
 56: 0x0192 [0x29] REQ_SET_WAIT(priority=0x10, entity_id=Moniquaurie (ID: 17203938/0x010682E2), tag_num=0x0B)
 57: 0x0199 [0x2B] Moniquaurie (ID: 17203938/0x010682E2) [12119*]:
    → "Moniquaurie is my name, and I, too, am a native of Abyssea."
 58: 0x01A0 [0x23] WAIT_FOR_DIALOG_INTERACTION
 59: 0x01A1 [0x27] REQ_SET(priority=0x10, entity_id=Moniquaurie (ID: 17203938/0x010682E2), tag_num=0x0F)
 60: 0x01A8 [0x1C] WAIT(30* ticks)
 61: 0x01AB [0x52] END_LOAD_SCHEDULER: End scheduler "7203" with entities [LocalPlayer, LocalPlayer], work=489*
 62: 0x01BA [0x45] LOAD_SCHEDULED_TASK: Load scheduler "7204" with entities [LocalPlayer, LocalPlayer], work=[489*, 0*]
 63: 0x01CB [0x1C] WAIT(30* ticks)
 64: 0x01CE [0x2B] Moniquaurie (ID: 17203938/0x010682E2) [12120*]:
    → "There exist two cavernous maws here in the Jugner Forest, although you may have noted a difference."
 65: 0x01D5 [0x23] WAIT_FOR_DIALOG_INTERACTION
 66: 0x01D6 [0x52] END_LOAD_SCHEDULER: End scheduler "7204" with entities [LocalPlayer, LocalPlayer], work=489*
 67: 0x01E5 [0x45] LOAD_SCHEDULED_TASK: Load scheduler "7205" with entities [LocalPlayer, LocalPlayer], work=[489*, 0*]
 68: 0x01F6 [0x2B] Moniquaurie (ID: 17203938/0x010682E2) [12121*]:
    → "It intrigues me as to what has caused the one to be turned to stone. However, I haven't the luxury of time to be sating my own curiosities."
 69: 0x01FD [0x1C] WAIT(210* ticks)
 70: 0x0200 [0x23] WAIT_FOR_DIALOG_INTERACTION
 71: 0x0201 [0x2A] GET_REQ_LEVEL(level=16, entity_id=Moniquaurie (ID: 17203938/0x010682E2))
 72: 0x0207 [0x52] END_LOAD_SCHEDULER: End scheduler "7205" with entities [LocalPlayer, LocalPlayer], work=489*
 73: 0x0216 [0x45] LOAD_SCHEDULED_TASK: Load scheduler "7207" with entities [LocalPlayer, LocalPlayer], work=[489*, 0*]
 74: 0x0227 [0x4A] Moniquaurie (ID: 17203938/0x010682E2) looks at LocalPlayer
 75: 0x0230 [0x1C] WAIT(30* ticks)
 76: 0x0233 [0x2B] Moniquaurie (ID: 17203938/0x010682E2) [12122*]:
    → "The two of us have matters of far graver import to discuss."
 77: 0x023A [0x23] WAIT_FOR_DIALOG_INTERACTION
 78: 0x023B [0x79] Moniquaurie (ID: 17203938/0x010682E2) looks at Cavernous Maw (ID: 17203936/0x010682E0) (Basic look)
 79: 0x0245 [0x2B] Moniquaurie (ID: 17203938/0x010682E2) [12123*]:
    → "Firstly, you would do well to know that this maw is connected not to the Jugner Forest of Abyssea, but instead, the Vunkerl Inlet."
 80: 0x024C [0x23] WAIT_FOR_DIALOG_INTERACTION
 81: 0x024D [0x2B] Moniquaurie (ID: 17203938/0x010682E2) [12124*]:
    → "Some have theorized that a dimensional misalignment has caused this, but you needn't rack your mind with academic ponderings."
 82: 0x0254 [0x23] WAIT_FOR_DIALOG_INTERACTION
 83: 0x0255 [0x52] END_LOAD_SCHEDULER: End scheduler "7207" with entities [LocalPlayer, LocalPlayer], work=489*
 84: 0x0264 [0x45] LOAD_SCHEDULED_TASK: Load scheduler "7208" with entities [LocalPlayer, LocalPlayer], work=[489*, 0*]
 85: 0x0275 [0x7B] Moniquaurie (ID: 17203938/0x010682E2) stops talking
 86: 0x027A [0x66] LOAD_EXT_SCHEDULER_MAIN: Load scheduler "tlk0" with entities [Moniquaurie (ID: 17203938/0x010682E2), Moniquaurie (ID: 17203938/0x010682E2)], work=39*
 87: 0x0289 [0x2B] Moniquaurie (ID: 17203938/0x010682E2) [12125*]:
    → "Are you familiar with the inlet? It is a place of beauty both wondrous and serene."
 88: 0x0290 [0x23] WAIT_FOR_DIALOG_INTERACTION
 89: 0x0291 [0x5D] SET_MUSIC_VOLUME(volume=0*, fade_time=60*)
 90: 0x0296 [0x2B] Moniquaurie (ID: 17203938/0x010682E2) [12126*]:
    → "But no more, for it was reft of its glorious vistas the day the sky turned crimson and hordes of abominations flooded the land."
 91: 0x029D [0x23] WAIT_FOR_DIALOG_INTERACTION
 92: 0x029E [0x52] END_LOAD_SCHEDULER: End scheduler "7208" with entities [LocalPlayer, LocalPlayer], work=489*
 93: 0x02AD [0x45] LOAD_SCHEDULED_TASK: Load scheduler "7209" with entities [LocalPlayer, LocalPlayer], work=[489*, 0*]
 94: 0x02BE [0x66] LOAD_EXT_SCHEDULER_MAIN: Load scheduler "tlk1" with entities [Moniquaurie (ID: 17203938/0x010682E2), Moniquaurie (ID: 17203938/0x010682E2)], work=39*
 95: 0x02CD [0x1C] WAIT(60* ticks)
 96: 0x02D0 [0x2B] Moniquaurie (ID: 17203938/0x010682E2) [12127*]:
    → "There is one thing I find puzzling, <Player>. You've seen with your own eyes the sickly state of Abyssea, yet you insist on going there. What is it that drives you?"
 97: 0x02D7 [0x23] WAIT_FOR_DIALOG_INTERACTION
 98: 0x02D8 [0x52] END_LOAD_SCHEDULER: End scheduler "7209" with entities [LocalPlayer, LocalPlayer], work=489*
 99: 0x02E7 [0x29] REQ_SET_WAIT(priority=0x10, entity_id=LocalPlayer, tag_num=0x1E)
100: 0x02EE [0x02] IF !(Work_Zone[2] == 1*) GOTO 0x030A
101: 0x02F6 [0x45] LOAD_SCHEDULED_TASK: Load scheduler "72hm" with entities [LocalPlayer, LocalPlayer], work=[489*, 0*]
102: 0x0307 [0x01] GOTO 0x03CE
103: 0x030A [0x02] IF !(Work_Zone[2] == 2*) GOTO 0x0326
104: 0x0312 [0x45] LOAD_SCHEDULED_TASK: Load scheduler "72hf" with entities [LocalPlayer, LocalPlayer], work=[489*, 0*]
105: 0x0323 [0x01] GOTO 0x03CE
106: 0x0326 [0x02] IF !(Work_Zone[2] == 3*) GOTO 0x0342
107: 0x032E [0x45] LOAD_SCHEDULED_TASK: Load scheduler "72em" with entities [LocalPlayer, LocalPlayer], work=[489*, 0*]
108: 0x033F [0x01] GOTO 0x03CE
109: 0x0342 [0x02] IF !(Work_Zone[2] == 4*) GOTO 0x035E
110: 0x034A [0x45] LOAD_SCHEDULED_TASK: Load scheduler "72ef" with entities [LocalPlayer, LocalPlayer], work=[489*, 0*]
111: 0x035B [0x01] GOTO 0x03CE
112: 0x035E [0x02] IF !(Work_Zone[2] == 5*) GOTO 0x037A
113: 0x0366 [0x45] LOAD_SCHEDULED_TASK: Load scheduler "72tr" with entities [LocalPlayer, LocalPlayer], work=[489*, 0*]
114: 0x0377 [0x01] GOTO 0x03CE
115: 0x037A [0x02] IF !(Work_Zone[2] == 6*) GOTO 0x0396
116: 0x0382 [0x45] LOAD_SCHEDULED_TASK: Load scheduler "72tr" with entities [LocalPlayer, LocalPlayer], work=[489*, 0*]
117: 0x0393 [0x01] GOTO 0x03CE
118: 0x0396 [0x02] IF !(Work_Zone[2] == 7*) GOTO 0x03B2
119: 0x039E [0x45] LOAD_SCHEDULED_TASK: Load scheduler "72mt" with entities [LocalPlayer, LocalPlayer], work=[489*, 0*]
120: 0x03AF [0x01] GOTO 0x03CE
121: 0x03B2 [0x02] IF !(Work_Zone[2] == 8*) GOTO 0x03CE
122: 0x03BA [0x45] LOAD_SCHEDULED_TASK: Load scheduler "72gl" with entities [LocalPlayer, LocalPlayer], work=[489*, 0*]
123: 0x03CB [0x01] GOTO 0x03CE

SUBROUTINE_03CE:
124: 0x03CE [0x5C] MUSIC_CONTROL: Set Idle (Day) music to song 51*
125: 0x03D2 [0x5C] MUSIC_CONTROL: Set Idle (Night) music to song 51*
126: 0x03D6 [0x9A] WAIT_MUSIC_SERVER()
127: 0x03D7 [0x1C] WAIT(120* ticks)
128: 0x03DA [0x52] END_LOAD_SCHEDULER: End scheduler "72hm" with entities [LocalPlayer, LocalPlayer], work=489*
129: 0x03E9 [0x52] END_LOAD_SCHEDULER: End scheduler "72hf" with entities [LocalPlayer, LocalPlayer], work=489*
130: 0x03F8 [0x52] END_LOAD_SCHEDULER: End scheduler "72em" with entities [LocalPlayer, LocalPlayer], work=489*
131: 0x0407 [0x52] END_LOAD_SCHEDULER: End scheduler "72ef" with entities [LocalPlayer, LocalPlayer], work=489*
132: 0x0416 [0x52] END_LOAD_SCHEDULER: End scheduler "72tr" with entities [LocalPlayer, LocalPlayer], work=489*
133: 0x0425 [0x52] END_LOAD_SCHEDULER: End scheduler "72mt" with entities [LocalPlayer, LocalPlayer], work=489*
134: 0x0434 [0x52] END_LOAD_SCHEDULER: End scheduler "72gl" with entities [LocalPlayer, LocalPlayer], work=489*
135: 0x0443 [0x45] LOAD_SCHEDULED_TASK: Load scheduler "7210" with entities [LocalPlayer, LocalPlayer], work=[489*, 0*]
136: 0x0454 [0x6E] Moniquaurie (ID: 17203938/0x010682E2) uses emote 26*
137: 0x045B [0x99] Wait for Moniquaurie (ID: 17203938/0x010682E2) animation to complete
138: 0x0460 [0x1C] WAIT(60* ticks)
139: 0x0463 [0x2B] Moniquaurie (ID: 17203938/0x010682E2) [12128*]:
    → "Whatever your answer is, keep it to yourself. It matters not whether your reason for setting foot in my home world be materialistic or altruistic."
140: 0x046A [0x1C] WAIT(60* ticks)
141: 0x046D [0x23] WAIT_FOR_DIALOG_INTERACTION
142: 0x046E [0x27] REQ_SET(priority=0x10, entity_id=Moniquaurie (ID: 17203938/0x010682E2), tag_num=0x10)
143: 0x0475 [0x1C] WAIT(30* ticks)
144: 0x0478 [0x52] END_LOAD_SCHEDULER: End scheduler "7210" with entities [LocalPlayer, LocalPlayer], work=489*
145: 0x0487 [0x45] LOAD_SCHEDULED_TASK: Load scheduler "7211" with entities [LocalPlayer, LocalPlayer], work=[489*, 0*]
146: 0x0498 [0x2B] Moniquaurie (ID: 17203938/0x010682E2) [12129*]:
    → "But enough pleasantries. I've come here for no other reason than to brief you on the current situation in Vunkerl, and brief you I shall."
147: 0x049F [0x2A] GET_REQ_LEVEL(level=16, entity_id=Moniquaurie (ID: 17203938/0x010682E2))
148: 0x04A5 [0x1C] WAIT(30* ticks)
149: 0x04A8 [0x23] WAIT_FOR_DIALOG_INTERACTION
150: 0x04A9 [0x66] LOAD_EXT_SCHEDULER_MAIN: Load scheduler "thk1" with entities [Moniquaurie (ID: 17203938/0x010682E2), Moniquaurie (ID: 17203938/0x010682E2)], work=39*
151: 0x04B8 [0x1C] WAIT(30* ticks)
152: 0x04BB [0x2B] Moniquaurie (ID: 17203938/0x010682E2) [12130*]:
    → "The resistance effort in the inlet is built around early model martellos whose functions are augmented via a central unit, the pulse martello. An outpost was secretly established especially for the purpose of housing the latter."
153: 0x04C2 [0x23] WAIT_FOR_DIALOG_INTERACTION
154: 0x04C3 [0x52] END_LOAD_SCHEDULER: End scheduler "7211" with entities [LocalPlayer, LocalPlayer], work=489*
155: 0x04D2 [0x45] LOAD_SCHEDULED_TASK: Load scheduler "7212" with entities [LocalPlayer, LocalPlayer], work=[489*, 0*]
156: 0x04E3 [0x2B] Moniquaurie (ID: 17203938/0x010682E2) [12131*]:
    → "Of late, however, the Abyssean hordes have taken to attacking the outpost with unnerving singleness of mind. We can only conclude that the enemy have somehow learned of its strategic importance."
157: 0x04EA [0x23] WAIT_FOR_DIALOG_INTERACTION
158: 0x04EB [0x66] LOAD_EXT_SCHEDULER_MAIN: Load scheduler "thk2" with entities [Moniquaurie (ID: 17203938/0x010682E2), Moniquaurie (ID: 17203938/0x010682E2)], work=39*
159: 0x04FA [0x53] WAIT_SCHEDULER_TASK: Wait for scheduler "thk2" with entities [Moniquaurie (ID: 17203938/0x010682E2), Moniquaurie (ID: 17203938/0x010682E2)]
160: 0x0507 [0x52] END_LOAD_SCHEDULER: End scheduler "7212" with entities [LocalPlayer, LocalPlayer], work=489*
161: 0x0516 [0x45] LOAD_SCHEDULED_TASK: Load scheduler "7213" with entities [LocalPlayer, LocalPlayer], work=[489*, 0*]
162: 0x0527 [0x4A] Moniquaurie (ID: 17203938/0x010682E2) looks at LocalPlayer
163: 0x0530 [0x6F] WAIT_FRAME_DELAY: Yield until WaitTime reaches zero
164: 0x0531 [0x76] CHECK_ENTITY_RENDER_FLAGS: Wait until Moniquaurie (ID: 17203938/0x010682E2) Render.Flags0 and Render.Flags3 conditions are met
165: 0x0536 [0x2B] Moniquaurie (ID: 17203938/0x010682E2) [12132*]:
    → "Our defenses have held up thus far, but cannot indefinitely repel such a determined enemy offensive. And to compound matters, Vunkerl's terrain places us at a distinct disadvantage against besiegers."
166: 0x053D [0x23] WAIT_FOR_DIALOG_INTERACTION
167: 0x053E [0x6E] Moniquaurie (ID: 17203938/0x010682E2) uses emote 6*
168: 0x0545 [0x99] Wait for Moniquaurie (ID: 17203938/0x010682E2) animation to complete
169: 0x054A [0x2B] Moniquaurie (ID: 17203938/0x010682E2) [12133*]:
    → "Unless more people aid in the outpost's defense, the resistance effort in Vunkerl will surely end in failure. I myself would've long since leapt into the fray, but I share the same fate as Joachim and can no longer return home..."
170: 0x0551 [0x1C] WAIT(120* ticks)
171: 0x0554 [0x52] END_LOAD_SCHEDULER: End scheduler "7213" with entities [LocalPlayer, LocalPlayer], work=489*
172: 0x0563 [0x45] LOAD_SCHEDULED_TASK: Load scheduler "7214" with entities [LocalPlayer, LocalPlayer], work=[489*, 0*]
173: 0x0574 [0x79] Moniquaurie (ID: 17203938/0x010682E2) looks at Unnamed NPC (ID: 17203894/0x010682B6) (Basic look)
174: 0x057E [0x1C] WAIT(60* ticks)
175: 0x0581 [0x23] WAIT_FOR_DIALOG_INTERACTION
176: 0x0582 [0x24] CREATE_DIALOG(message_id=12134*, default_option=0*, option_flags=0*)
    → "What will you say? [You just leave Vunkerl to me!/I can help...I guess?]"
177: 0x0589 [0x25] WAIT_DIALOG_SELECT()
178: 0x058A [0x02] IF !(Work_Zone[0] == 0*) GOTO 0x05A1
179: 0x0592 [0x6E] LocalPlayer uses emote 36*
180: 0x0599 [0x99] Wait for LocalPlayer animation to complete
181: 0x059E [0x01] GOTO 0x05B8
182: 0x05A1 [0x02] IF !(Work_Zone[0] == 1*) GOTO 0x05B8
183: 0x05A9 [0x6E] LocalPlayer uses emote 20*
184: 0x05B0 [0x99] Wait for LocalPlayer animation to complete
185: 0x05B5 [0x01] GOTO 0x05B8

SUBROUTINE_05B8:
186: 0x05B8 [0xC5] LOAD_SCHEDULED_TASK_ALT3: Load scheduler 0x80113030 for entities [??? (ID: 17203893/0x010682B5), ??? (ID: 17203893/0x010682B5)], work=213*, param=12403
187: 0x05C9 [0x2C] CREATE_SCHEDULER_TASK: Create scheduler "pop0" with entities [Unnamed NPC (ID: 17203939/0x010682E3), Unnamed NPC (ID: 17203939/0x010682E3)]
188: 0x05D6 [0x1C] WAIT(90* ticks)
189: 0x05D9 [0x52] END_LOAD_SCHEDULER: End scheduler "7214" with entities [LocalPlayer, LocalPlayer], work=489*
190: 0x05E8 [0x45] LOAD_SCHEDULED_TASK: Load scheduler "7215" with entities [LocalPlayer, LocalPlayer], work=[489*, 0*]
191: 0x05F9 [0x7B] Moniquaurie (ID: 17203938/0x010682E2) stops talking
192: 0x05FE [0x1C] WAIT(30* ticks)
193: 0x0601 [0x2B] Moniquaurie (ID: 17203938/0x010682E2) [12135*]:
    → "Truly? You have my thanks, <Player>. Joachim's trust in you is well-founded, it'd seem."
194: 0x0608 [0x23] WAIT_FOR_DIALOG_INTERACTION
195: 0x0609 [0x52] END_LOAD_SCHEDULER: End scheduler "7215" with entities [LocalPlayer, LocalPlayer], work=489*
196: 0x0618 [0x45] LOAD_SCHEDULED_TASK: Load scheduler "7216" with entities [LocalPlayer, LocalPlayer], work=[489*, 0*]
197: 0x0629 [0x66] LOAD_EXT_SCHEDULER_MAIN: Load scheduler "tlk0" with entities [Moniquaurie (ID: 17203938/0x010682E2), Moniquaurie (ID: 17203938/0x010682E2)], work=39*
198: 0x0638 [0x2B] Moniquaurie (ID: 17203938/0x010682E2) [12136*]:
    → "Before you cross over to Abyssea, however, there is one piece of knowledge you should take with you."
199: 0x063F [0x23] WAIT_FOR_DIALOG_INTERACTION
200: 0x0640 [0x52] END_LOAD_SCHEDULER: End scheduler "7216" with entities [LocalPlayer, LocalPlayer], work=489*
201: 0x064F [0x45] LOAD_SCHEDULED_TASK: Load scheduler "7217" with entities [LocalPlayer, LocalPlayer], work=[489*, 0*]
202: 0x0660 [0x77] SET_EVENT_TIME_WEATHER(hour=255*, weather=1*)
203: 0x0665 [0xAB] EventEntity->UnknownFlag = 1 // Enable unknown flag
204: 0x0667 [0x1C] WAIT(60* ticks)
205: 0x066A [0x2B] Moniquaurie (ID: 17203938/0x010682E2) [12137*]:
    → "There is a fell creature that has been terrorizing Vunkerl, a gargantuan beast identified as a ruszor. Countless soldiers and civilians alike have fallen prey to its dreadful tusks."
206: 0x0671 [0x23] WAIT_FOR_DIALOG_INTERACTION
207: 0x0672 [0x52] END_LOAD_SCHEDULER: End scheduler "7217" with entities [LocalPlayer, LocalPlayer], work=489*
208: 0x0681 [0x45] LOAD_SCHEDULED_TASK: Load scheduler "7218" with entities [LocalPlayer, LocalPlayer], work=[489*, 0*]
209: 0x0692 [0x1C] WAIT(60* ticks)
210: 0x0695 [0x2B] Moniquaurie (ID: 17203938/0x010682E2) [12138*]:
    → "I had heard that ruszors once thrived in great numbers in the Northlands, but were hunted to extinction soon after the Great War."
211: 0x069C [0x23] WAIT_FOR_DIALOG_INTERACTION
212: 0x069D [0x52] END_LOAD_SCHEDULER: End scheduler "7218" with entities [LocalPlayer, LocalPlayer], work=489*
213: 0x06AC [0x45] LOAD_SCHEDULED_TASK: Load scheduler "7219" with entities [LocalPlayer, LocalPlayer], work=[489*, 0*]
214: 0x06BD [0x66] LOAD_EXT_SCHEDULER_MAIN: Load scheduler "tlk1" with entities [Moniquaurie (ID: 17203938/0x010682E2), Moniquaurie (ID: 17203938/0x010682E2)], work=39*
215: 0x06CC [0xAB] EventEntity->UnknownFlag = 0 // Disable unknown flag
216: 0x06CE [0x78] ENABLE_GAME_TIMER_RESET_WEATHER()
217: 0x06CF [0x1C] WAIT(60* ticks)
218: 0x06D2 [0xC5] LOAD_SCHEDULED_TASK_ALT3: Load scheduler 0x8011306C for entities [??? (ID: 17203893/0x010682B5), ??? (ID: 17203893/0x010682B5)], work=213*, param=26987
219: 0x06E3 [0x4E] SET_ENTITY_HIDE_FLAG: Hide Unnamed NPC (ID: 17203939/0x010682E3)
220: 0x06E9 [0x2B] Moniquaurie (ID: 17203938/0x010682E2) [12139*]:
    → "How is it possible, then, that such a terrible specimen has survived to this day to now prowl the inlet, where none had been seen before? Could the destabilizing boundary between worlds spoken of by that Tarutaru be the culprit behind such inexplicable occurrences?"
221: 0x06F0 [0x23] WAIT_FOR_DIALOG_INTERACTION
222: 0x06F1 [0x52] END_LOAD_SCHEDULER: End scheduler "7219" with entities [LocalPlayer, LocalPlayer], work=489*
223: 0x0700 [0x45] LOAD_SCHEDULED_TASK: Load scheduler "7220" with entities [LocalPlayer, LocalPlayer], work=[489*, 0*]
224: 0x0711 [0x5D] SET_MUSIC_VOLUME(volume=0*, fade_time=120*)
225: 0x0716 [0x2B] Moniquaurie (ID: 17203938/0x010682E2) [12140*]:
    → "When that oddball member of the Resistance put forth this theory, we all mocked him for a fool...but now I wonder. Regardless, I counsel you to avoid engaging that creature--the ruszor--until such time as you've acclimatized to Vunkerl's environs."
226: 0x071D [0x23] WAIT_FOR_DIALOG_INTERACTION
227: 0x071E [0x6E] Moniquaurie (ID: 17203938/0x010682E2) uses emote 7*
228: 0x0725 [0x99] Wait for Moniquaurie (ID: 17203938/0x010682E2) animation to complete
229: 0x072A [0x2B] Moniquaurie (ID: 17203938/0x010682E2) [12141*]:
    → "Be careful out there, <Player>. I shall be praying for your success."
230: 0x0731 [0x23] WAIT_FOR_DIALOG_INTERACTION
231: 0x0732 [0x1A] CALL_SUBROUTINE(address=0x0B94)
232: 0x0735 [0x1C] WAIT(30* ticks)
233: 0x0738 [0x52] END_LOAD_SCHEDULER: End scheduler "7220" with entities [LocalPlayer, LocalPlayer], work=489*
234: 0x0747 [0x45] LOAD_SCHEDULED_TASK: Load scheduler "0blf" with entities [LocalPlayer, LocalPlayer], work=[489*, 0*]
235: 0x0758 [0x5C] MUSIC_CONTROL: Set Idle (Day) music to song 0*
236: 0x075C [0x5C] MUSIC_CONTROL: Set Idle (Night) music to song 0*
237: 0x0760 [0x9A] WAIT_MUSIC_SERVER()
238: 0x0761 [0x46] CAMERA_CONTROL: Restore default settings
239: 0x0763 [0x45] LOAD_SCHEDULED_TASK: Load scheduler "fdi2" with entities [LocalPlayer, LocalPlayer], work=[200*, 0*]
240: 0x0774 [0x21] END_EVENT
241: 0x0775 [0x00] END_REQSTACK()
```

### Event 49

#### Metadata

| Field        | Value      |
|--------------|------------|
| Entrypoint   | 0x0776     |
| Data Size    | 1612 bytes |
| Instructions | 134        |

```
      00 01 02 03 04 05 06 07  08 09 0A 0B 0C 0D 0E 0F
      -- -- -- -- -- -- -- --  -- -- -- -- -- -- -- --
0770:                   42 1A  94 0B 46 01 38 00 80 4E        B...F.8..N
0780: 00 F0 FF FF 7F 27 10 E2  82 06 01 04 4E 00 B6 82  .....'......N...
0790: 06 01 92 01 E2 82 06 01  94 01 F0 FF FF 7F 94 01  ................
07A0: E2 82 06 01 94 01 E0 82  06 01 94 01 B6 82 06 01  ................
07B0: BA F0 FF FF 7F 40 80 41  80 42 80 43 80 BA E2 82  .....@.A.B.C....
07C0: 06 01 44 80 45 80 46 80  47 80 59 05 B6 82 06 01  ..D.E.F.G.Y.....
07D0: 01 BA B6 82 06 01 48 80  49 80 4A 80 4B 80 80 F0  ......H.I.J.K...
07E0: FF FF 7F 80 E2 82 06 01  80 E0 82 06 01 1C 0F 80  ................
07F0: 4A E2 82 06 01 F0 FF FF  7F 79 00 F0 FF FF 7F B6  J........y......
0800: 82 06 01 29 10 F0 FF FF  7F 1C 6C F0 FF FF 7F 11  ...)......l.....
0810: 80 14 80 92 01 F0 FF FF  7F CD 4C 80 F0 FF FF 7F  ..........L.....
0820: F0 FF FF 7F 6D 61 69 6E  11 80 45 10 80 F0 FF FF  ....main..E.....
0830: 7F F0 FF FF 7F 37 32 33  30 11 80 1A 73 0B 1C 12  .....7230...s...
0840: 80 92 00 F0 FF FF 7F 1C  21 80 52 10 80 F0 FF FF  ........!.R.....
0850: 7F F0 FF FF 7F 37 32 33  30 45 10 80 F0 FF FF 7F  .....7230E......
0860: F0 FF FF 7F 37 32 33 31  11 80 29 10 F0 FF FF 7F  ....7231..).....
0870: 1D 52 10 80 F0 FF FF 7F  F0 FF FF 7F 37 32 33 31  .R..........7231
0880: 45 10 80 F0 FF FF 7F F0  FF FF 7F 37 32 33 32 11  E..........7232.
0890: 80 2B E2 82 06 01 4D 80  1C 4E 80 4A F0 FF FF 7F  .+....M..N.J....
08A0: E2 82 06 01 23 5C 00 12  80 5C 01 12 80 9A 27 10  ....#\...\....'.
08B0: E2 82 06 01 11 1C 0F 80  2B E2 82 06 01 4F 80 1C  ........+....O..
08C0: 21 80 52 10 80 F0 FF FF  7F F0 FF FF 7F 37 32 33  !.R..........723
08D0: 32 45 10 80 F0 FF FF 7F  F0 FF FF 7F 37 32 33 33  2E..........7233
08E0: 11 80 23 2B E2 82 06 01  50 80 23 2A 10 E2 82 06  ..#+....P.#*....
08F0: 01 52 10 80 F0 FF FF 7F  F0 FF FF 7F 37 32 33 33  .R..........7233
0900: 45 10 80 F0 FF FF 7F F0  FF FF 7F 37 32 33 34 11  E..........7234.
0910: 80 2B E2 82 06 01 51 80  23 4A F0 FF FF 7F E2 82  .+....Q.#J......
0920: 06 01 2B E2 82 06 01 52  80 23 52 10 80 F0 FF FF  ..+....R.#R.....
0930: 7F F0 FF FF 7F 37 32 33  34 45 10 80 F0 FF FF 7F  .....7234E......
0940: F0 FF FF 7F 37 32 33 35  11 80 5D 11 80 53 80 66  ....7235..]..S.f
0950: 54 80 E2 82 06 01 E2 82  06 01 70 61 73 30 53 E2  T.........pas0S.
0960: 82 06 01 E2 82 06 01 70  61 73 30 03 01 10 14 80  .......pas0.....
0970: 43 00 43 01 2B E2 82 06  01 55 80 23 52 10 80 F0  C.C.+....U.#R...
0980: FF FF 7F F0 FF FF 7F 37  32 33 35 45 10 80 F0 FF  .......7235E....
0990: FF 7F F0 FF FF 7F 37 32  33 36 11 80 2B E2 82 06  ......7236..+...
09A0: 01 56 80 23 2B E2 82 06  01 57 80 23 52 10 80 F0  .V.#+....W.#R...
09B0: FF FF 7F F0 FF FF 7F 37  32 33 36 45 10 80 F0 FF  .......7236E....
09C0: FF 7F F0 FF FF 7F 37 32  33 37 11 80 27 10 E2 82  ......7237..'...
09D0: 06 01 12 1C 0F 80 2B E2  82 06 01 58 80 23 2A 10  ......+....X.#*.
09E0: E2 82 06 01 5C 00 59 80  5C 01 59 80 9A 52 10 80  ....\.Y.\.Y..R..
09F0: F0 FF FF 7F F0 FF FF 7F  37 32 33 37 45 10 80 F0  ........7237E...
0A00: FF FF 7F F0 FF FF 7F 37  32 33 38 11 80 2B E2 82  .......7238..+..
0A10: 06 01 5A 80 23 4A F0 FF  FF 7F E2 82 06 01 79 00  ..Z.#J........y.
0A20: E2 82 06 01 B6 82 06 01  1C 0F 80 2B E2 82 06 01  ...........+....
0A30: 5B 80 23 52 10 80 F0 FF  FF 7F F0 FF FF 7F 37 32  [.#R..........72
0A40: 33 38 45 10 80 F0 FF FF  7F F0 FF FF 7F 37 32 33  38E..........723
0A50: 39 11 80 2B E2 82 06 01  5C 80 23 4A E2 82 06 01  9..+....\.#J....
0A60: F0 FF FF 7F 6F 76 E2 82  06 01 1C 0F 80 66 1F 80  ....ov.......f..
0A70: E2 82 06 01 E2 82 06 01  74 6C 6B 30 2B E2 82 06  ........tlk0+...
0A80: 01 5D 80 1C 12 80 23 52  10 80 F0 FF FF 7F F0 FF  .]....#R........
0A90: FF 7F 37 32 33 39 45 10  80 F0 FF FF 7F F0 FF FF  ..7239E.........
0AA0: 7F 37 32 34 30 11 80 5D  11 80 53 80 66 1F 80 E2  .7240..]..S.f...
0AB0: 82 06 01 E2 82 06 01 74  6C 6B 31 53 E2 82 06 01  .......tlk1S....
0AC0: E2 82 06 01 74 6C 6B 31  6E E2 82 06 01 29 80 99  ....tlk1n....)..
0AD0: E2 82 06 01 2B E2 82 06  01 5E 80 23 1A 94 0B 1C  ....+....^.#....
0AE0: 0F 80 52 10 80 F0 FF FF  7F F0 FF FF 7F 37 32 34  ..R..........724
0AF0: 30 45 10 80 F0 FF FF 7F  F0 FF FF 7F 30 62 6C 66  0E..........0blf
0B00: 11 80 5C 00 11 80 5C 01  11 80 9A 46 00 45 5F 80  ..\...\....F.E_.
0B10: F8 FF FF 7F F8 FF FF 7F  71 73 74 63 11 80 45 3F  ........qstc..E?
0B20: 80 F0 FF FF 7F F0 FF FF  7F 66 64 69 32 11 80 21  .........fdi2..!
0B30: 00 45 3F 80 F0 FF FF 7F  F0 FF FF 7F 66 64 69 30  .E?.........fdi0
0B40: 11 80 55 3F 80 F0 FF FF  7F F0 FF FF 7F 66 64 69  ..U?.........fdi
0B50: 30 1B 45 3F 80 F0 FF FF  7F F0 FF FF 7F 66 64 6F  0.E?.........fdo
0B60: 30 11 80 55 3F 80 F0 FF  FF 7F F0 FF FF 7F 66 64  0..U?.........fd
0B70: 6F 30 1B 45 3F 80 F0 FF  FF 7F F0 FF FF 7F 66 64  o0.E?.........fd
0B80: 69 31 11 80 55 3F 80 F0  FF FF 7F F0 FF FF 7F 66  i1..U?.........f
0B90: 64 69 31 1B 45 3F 80 F0  FF FF 7F F0 FF FF 7F 66  di1.E?.........f
0BA0: 64 6F 31 11 80 55 3F 80  F0 FF FF 7F F0 FF FF 7F  do1..U?.........
0BB0: 66 64 6F 31 1B 45 5F 80  F0 FF FF 7F F0 FF FF 7F  fdo1.E_.........
0BC0: 77 68 69 31 11 80 55 5F  80 F0 FF FF 7F F0 FF FF  whi1..U_........
0BD0: 7F 77 68 69 31 1B 45 5F  80 F0 FF FF 7F F0 FF FF  .whi1.E_........
0BE0: 7F 77 68 6F 31 11 80 55  5F 80 F0 FF FF 7F F0 FF  .who1..U_.......
0BF0: FF 7F 77 68 6F 31 1B 45  5F 80 F0 FF FF 7F F0 FF  ..who1.E_.......
0C00: FF 7F 77 68 6F 32 11 80  55 5F 80 F0 FF FF 7F F0  ..who2..U_......
0C10: FF FF 7F 77 68 6F 32 1B  45 5F 80 F0 FF FF 7F F0  ...who2.E_......
0C20: FF FF 7F 77 68 6F 33 11  80 55 5F 80 F0 FF FF 7F  ...who3..U_.....
0C30: F0 FF FF 7F 77 68 6F 33  1B 62 14 80 F0 FF FF 7F  ....who3.b......
0C40: F0 FF FF 7F 6D 61 69 6E  11 80 1C 60 80 45 3F 80  ....main...`.E?.
0C50: F0 FF FF 7F F0 FF FF 7F  66 64 6F 31 11 80 55 3F  ........fdo1..U?
0C60: 80 F0 FF FF 7F F0 FF FF  7F 66 64 6F 31 1B 45 3F  .........fdo1.E?
0C70: 80 F0 FF FF 7F F0 FF FF  7F 66 64 69 31 11 80 62  .........fdi1..b
0C80: 24 80 F0 FF FF 7F F0 FF  FF 7F 6D 61 69 6E 11 80  $.........main..
0C90: 1C 0F 80 55 3F 80 F0 FF  FF 7F F0 FF FF 7F 66 64  ...U?.........fd
0CA0: 69 31 1B 45 3F 80 F0 FF  FF 7F F0 FF FF 7F 62 6C  i1.E?.........bl
0CB0: 6F 6E 11 80 45 5F 80 F0  FF FF 7F F0 FF FF 7F 62  on..E_.........b
0CC0: 6C 6F 6E 11 80 1B 45 5F  80 F0 FF FF 7F F0 FF FF  lon...E_........
0CD0: 7F 77 68 69 30 11 80 55  5F 80 F0 FF FF 7F F0 FF  .whi0..U_.......
0CE0: FF 7F 77 68 69 30 1B 45  5F 80 F0 FF FF 7F F0 FF  ..whi0.E_.......
0CF0: FF 7F 77 68 6F 30 11 80  55 5F 80 F0 FF FF 7F F0  ..who0..U_......
0D00: FF FF 7F 77 68 6F 30 1B  45 0B 80 F0 FF FF 7F F0  ...who0.E.......
0D10: FF FF 7F 65 66 6F 6E 11  80 55 0B 80 F0 FF FF 7F  ...efon..U......
0D20: F0 FF FF 7F 65 66 6F 6E  1B 45 3F 80 F0 FF FF 7F  ....efon.E?.....
0D30: F0 FF FF 7F 66 64 69 73  11 80 1B 45 3F 80 F0 FF  ....fdis...E?...
0D40: FF 7F F0 FF FF 7F 66 64  6F 73 11 80 55 3F 80 F0  ......fdos..U?..
0D50: FF FF 7F F0 FF FF 7F 66  64 6F 73 1B 45 3F 80 F0  .......fdos.E?..
0D60: FF FF 7F F0 FF FF 7F 66  64 69 66 11 80 1B 45 3F  .......fdif...E?
0D70: 80 F0 FF FF 7F F0 FF FF  7F 66 64 6F 66 11 80 55  .........fdof..U
0D80: 3F 80 F0 FF FF 7F F0 FF  FF 7F 66 64 6F 66 1B 45  ?.........fdof.E
0D90: 3F 80 F0 FF FF 7F F0 FF  FF 7F 66 64 69 70 11 80  ?.........fdip..
0DA0: 1B 45 3F 80 F0 FF FF 7F  F0 FF FF 7F 66 64 6F 70  .E?.........fdop
0DB0: 11 80 55 3F 80 F0 FF FF  7F F0 FF FF 7F 66 64 6F  ..U?.........fdo
0DC0: 70 1B                                             p.              
```

#### Opcodes

```
  0: 0x0776 [0x42] SET_CLI_EVENT_CANCEL_DATA()
  1: 0x0777 [0x1A] CALL_SUBROUTINE(address=0x0B94)
  2: 0x077A [0x46] CAMERA_CONTROL: Disable user control
  3: 0x077C [0x38] SET_CLIENT_EVENT_MODE(mode=19*)
  4: 0x077F [0x4E] SET_ENTITY_HIDE_FLAG: Show LocalPlayer
  5: 0x0785 [0x27] REQ_SET(priority=0x10, entity_id=Moniquaurie (ID: 17203938/0x010682E2), tag_num=0x04)
  6: 0x078C [0x4E] SET_ENTITY_HIDE_FLAG: Show Unnamed NPC (ID: 17203894/0x010682B6)
  7: 0x0792 [0x92] Moniquaurie (ID: 17203938/0x010682E2)->Render.Flags3 ^= 0x01
  8: 0x0798 [0x94] LocalPlayer->Render.Flags3 ^= 0x01
  9: 0x079E [0x94] Moniquaurie (ID: 17203938/0x010682E2)->Render.Flags3 ^= 0x01
 10: 0x07A4 [0x94] Cavernous Maw (ID: 17203936/0x010682E0)->Render.Flags3 ^= 0x01
 11: 0x07AA [0x94] Unnamed NPC (ID: 17203894/0x010682B6)->Render.Flags3 ^= 0x01
 12: 0x07B0 [0xBA] SET_ENTITY_POSITION(entity_id=LocalPlayer, pos_x=242.979*, pos_z=8.721*, pos_y=0.234*, direction=221.6°*)
 13: 0x07BD [0xBA] SET_ENTITY_POSITION(entity_id=Moniquaurie (ID: 17203938/0x010682E2), pos_x=237.988*, pos_z=8.957*, pos_y=0.245*, direction=185.0°*)
 14: 0x07CA [0x59] UPDATE_ENTITY_DATA: Unnamed NPC (ID: 17203894/0x010682B6)->Render.Flags0 |= 0x200000
 15: 0x07D1 [0xBA] SET_ENTITY_POSITION(entity_id=Unnamed NPC (ID: 17203894/0x010682B6), pos_x=238.648*, pos_z=10.332*, pos_y=-1.766*, direction=165.8°*)
 16: 0x07DE [0x80] LOAD_WAIT(entity=LocalPlayer)
 17: 0x07E3 [0x80] LOAD_WAIT(entity=Moniquaurie (ID: 17203938/0x010682E2))
 18: 0x07E8 [0x80] LOAD_WAIT(entity=Cavernous Maw (ID: 17203936/0x010682E0))
 19: 0x07ED [0x1C] WAIT(30* ticks)
 20: 0x07F0 [0x4A] Moniquaurie (ID: 17203938/0x010682E2) looks at LocalPlayer
 21: 0x07F9 [0x79] LocalPlayer looks at Unnamed NPC (ID: 17203894/0x010682B6) (Basic look)
 22: 0x0803 [0x29] REQ_SET_WAIT(priority=0x10, entity_id=LocalPlayer, tag_num=0x1C)
 23: 0x080A [0x6C] FADE_ENTITY_COLOR(entity_id=LocalPlayer, end_alpha=0*, fade_time=1*)
 24: 0x0813 [0x92] LocalPlayer->Render.Flags3 ^= 0x01
 25: 0x0819 [0xCD] LOAD_SCHEDULED_TASK_ALT4: Load scheduler "main" with entities [LocalPlayer, LocalPlayer], work=[80*, 0*]
 26: 0x082A [0x45] LOAD_SCHEDULED_TASK: Load scheduler "7230" with entities [LocalPlayer, LocalPlayer], work=[489*, 0*]
 27: 0x083B [0x1A] CALL_SUBROUTINE(address=0x0B73)
 28: 0x083E [0x1C] WAIT(120* ticks)
 29: 0x0841 [0x92] LocalPlayer->Render.Flags3 = Flags3  // No change (flag=0)
 30: 0x0847 [0x1C] WAIT(60* ticks)
 31: 0x084A [0x52] END_LOAD_SCHEDULER: End scheduler "7230" with entities [LocalPlayer, LocalPlayer], work=489*
 32: 0x0859 [0x45] LOAD_SCHEDULED_TASK: Load scheduler "7231" with entities [LocalPlayer, LocalPlayer], work=[489*, 0*]
 33: 0x086A [0x29] REQ_SET_WAIT(priority=0x10, entity_id=LocalPlayer, tag_num=0x1D)
 34: 0x0871 [0x52] END_LOAD_SCHEDULER: End scheduler "7231" with entities [LocalPlayer, LocalPlayer], work=489*
 35: 0x0880 [0x45] LOAD_SCHEDULED_TASK: Load scheduler "7232" with entities [LocalPlayer, LocalPlayer], work=[489*, 0*]
 36: 0x0891 [0x2B] Moniquaurie (ID: 17203938/0x010682E2) [12142*]:
    → "Ah, so <Player> finally makes [his/her] triumphant return."
 37: 0x0898 [0x1C] WAIT(15* ticks)
 38: 0x089B [0x4A] LocalPlayer looks at Moniquaurie (ID: 17203938/0x010682E2)
 39: 0x08A4 [0x23] WAIT_FOR_DIALOG_INTERACTION
 40: 0x08A5 [0x5C] MUSIC_CONTROL: Set Idle (Day) music to song 120*
 41: 0x08A9 [0x5C] MUSIC_CONTROL: Set Idle (Night) music to song 120*
 42: 0x08AD [0x9A] WAIT_MUSIC_SERVER()
 43: 0x08AE [0x27] REQ_SET(priority=0x10, entity_id=Moniquaurie (ID: 17203938/0x010682E2), tag_num=0x11)
 44: 0x08B5 [0x1C] WAIT(30* ticks)
 45: 0x08B8 [0x2B] Moniquaurie (ID: 17203938/0x010682E2) [12143*]:
    → "Word of your amazing feat has preceded you. I can still scarce believe that you truly did it--that you put an end to the tusked menace!"
 46: 0x08BF [0x1C] WAIT(60* ticks)
 47: 0x08C2 [0x52] END_LOAD_SCHEDULER: End scheduler "7232" with entities [LocalPlayer, LocalPlayer], work=489*
 48: 0x08D1 [0x45] LOAD_SCHEDULED_TASK: Load scheduler "7233" with entities [LocalPlayer, LocalPlayer], work=[489*, 0*]
 49: 0x08E2 [0x23] WAIT_FOR_DIALOG_INTERACTION
 50: 0x08E3 [0x2B] Moniquaurie (ID: 17203938/0x010682E2) [12144*]:
    → "I had known that people of your world are possessed of strength far above we Abysseans, but even that seems an understatement in light of your achievements."
 51: 0x08EA [0x23] WAIT_FOR_DIALOG_INTERACTION
 52: 0x08EB [0x2A] GET_REQ_LEVEL(level=16, entity_id=Moniquaurie (ID: 17203938/0x010682E2))
 53: 0x08F1 [0x52] END_LOAD_SCHEDULER: End scheduler "7233" with entities [LocalPlayer, LocalPlayer], work=489*
 54: 0x0900 [0x45] LOAD_SCHEDULED_TASK: Load scheduler "7234" with entities [LocalPlayer, LocalPlayer], work=[489*, 0*]
 55: 0x0911 [0x2B] Moniquaurie (ID: 17203938/0x010682E2) [12145*]:
    → "I can now rest easier in the knowledge that a terrible abomination threatens my people no more. Thank you, <Player>, from the bottom of my heart."
 56: 0x0918 [0x23] WAIT_FOR_DIALOG_INTERACTION
 57: 0x0919 [0x4A] LocalPlayer looks at Moniquaurie (ID: 17203938/0x010682E2)
 58: 0x0922 [0x2B] Moniquaurie (ID: 17203938/0x010682E2) [12146*]:
    → "Please accept this as a token of my gratitude."
 59: 0x0929 [0x23] WAIT_FOR_DIALOG_INTERACTION
 60: 0x092A [0x52] END_LOAD_SCHEDULER: End scheduler "7234" with entities [LocalPlayer, LocalPlayer], work=489*
 61: 0x0939 [0x45] LOAD_SCHEDULED_TASK: Load scheduler "7235" with entities [LocalPlayer, LocalPlayer], work=[489*, 0*]
 62: 0x094A [0x5D] SET_MUSIC_VOLUME(volume=0*, fade_time=300*)
 63: 0x094F [0x66] LOAD_EXT_SCHEDULER_MAIN: Load scheduler "pas0" with entities [Moniquaurie (ID: 17203938/0x010682E2), Moniquaurie (ID: 17203938/0x010682E2)], work=101*
 64: 0x095E [0x53] WAIT_SCHEDULER_TASK: Wait for scheduler "pas0" with entities [Moniquaurie (ID: 17203938/0x010682E2), Moniquaurie (ID: 17203938/0x010682E2)]
 65: 0x096B [0x03] Work_Zone[1] = 1*
 66: 0x0970 [0x43] SEND_EVENT_UPDATE: Send pending tag to server (packet 0x005B)
 67: 0x0972 [0x43] SEND_EVENT_UPDATE: Check pending flag (skip if not pending)
 68: 0x0974 [0x2B] Moniquaurie (ID: 17203938/0x010682E2) [12147*]:
    → "6."
 69: 0x097B [0x23] WAIT_FOR_DIALOG_INTERACTION
 70: 0x097C [0x52] END_LOAD_SCHEDULER: End scheduler "7235" with entities [LocalPlayer, LocalPlayer], work=489*
 71: 0x098B [0x45] LOAD_SCHEDULED_TASK: Load scheduler "7236" with entities [LocalPlayer, LocalPlayer], work=[489*, 0*]
 72: 0x099C [0x2B] Moniquaurie (ID: 17203938/0x010682E2) [12148*]:
    → "It is a rare variety of the stone, its potential known to be fully unleashed when wielded by one of your kind."
 73: 0x09A3 [0x23] WAIT_FOR_DIALOG_INTERACTION
 74: 0x09A4 [0x2B] Moniquaurie (ID: 17203938/0x010682E2) [12149*]:
    → "As I am permanently stranded upon this world, I no longer have a use for it. May it serve you well upon the battlefield that is Abyssea."
 75: 0x09AB [0x23] WAIT_FOR_DIALOG_INTERACTION
 76: 0x09AC [0x52] END_LOAD_SCHEDULER: End scheduler "7236" with entities [LocalPlayer, LocalPlayer], work=489*
 77: 0x09BB [0x45] LOAD_SCHEDULED_TASK: Load scheduler "7237" with entities [LocalPlayer, LocalPlayer], work=[489*, 0*]
 78: 0x09CC [0x27] REQ_SET(priority=0x10, entity_id=Moniquaurie (ID: 17203938/0x010682E2), tag_num=0x12)
 79: 0x09D3 [0x1C] WAIT(30* ticks)
 80: 0x09D6 [0x2B] Moniquaurie (ID: 17203938/0x010682E2) [12150*]:
    → "Thanks to the efforts of stalwarts such as you, we were able to acquire new intelligence from communities that had been surviving in isolation."
 81: 0x09DD [0x23] WAIT_FOR_DIALOG_INTERACTION
 82: 0x09DE [0x2A] GET_REQ_LEVEL(level=16, entity_id=Moniquaurie (ID: 17203938/0x010682E2))
 83: 0x09E4 [0x5C] MUSIC_CONTROL: Set Idle (Day) music to song 159*
 84: 0x09E8 [0x5C] MUSIC_CONTROL: Set Idle (Night) music to song 159*
 85: 0x09EC [0x9A] WAIT_MUSIC_SERVER()
 86: 0x09ED [0x52] END_LOAD_SCHEDULER: End scheduler "7237" with entities [LocalPlayer, LocalPlayer], work=489*
 87: 0x09FC [0x45] LOAD_SCHEDULED_TASK: Load scheduler "7238" with entities [LocalPlayer, LocalPlayer], work=[489*, 0*]
 88: 0x0A0D [0x2B] Moniquaurie (ID: 17203938/0x010682E2) [12151*]:
    → "Of the things we've learned, however, some were too terrible to be made known to the masses. The hope that has sprouted among the survivors is yet too fragile to bear such knowledge."
 89: 0x0A14 [0x23] WAIT_FOR_DIALOG_INTERACTION
 90: 0x0A15 [0x4A] LocalPlayer looks at Moniquaurie (ID: 17203938/0x010682E2)
 91: 0x0A1E [0x79] Moniquaurie (ID: 17203938/0x010682E2) looks at Unnamed NPC (ID: 17203894/0x010682B6) (Basic look)
 92: 0x0A28 [0x1C] WAIT(30* ticks)
 93: 0x0A2B [0x2B] Moniquaurie (ID: 17203938/0x010682E2) [12152*]:
    → "I gravely fear for what will become of my home, yet I am stranded here, powerless to lift even a finger."
 94: 0x0A32 [0x23] WAIT_FOR_DIALOG_INTERACTION
 95: 0x0A33 [0x52] END_LOAD_SCHEDULER: End scheduler "7238" with entities [LocalPlayer, LocalPlayer], work=489*
 96: 0x0A42 [0x45] LOAD_SCHEDULED_TASK: Load scheduler "7239" with entities [LocalPlayer, LocalPlayer], work=[489*, 0*]
 97: 0x0A53 [0x2B] Moniquaurie (ID: 17203938/0x010682E2) [12153*]:
    → "I shall never again lay eyes upon Abyssea."
 98: 0x0A5A [0x23] WAIT_FOR_DIALOG_INTERACTION
 99: 0x0A5B [0x4A] Moniquaurie (ID: 17203938/0x010682E2) looks at LocalPlayer
100: 0x0A64 [0x6F] WAIT_FRAME_DELAY: Yield until WaitTime reaches zero
101: 0x0A65 [0x76] CHECK_ENTITY_RENDER_FLAGS: Wait until Moniquaurie (ID: 17203938/0x010682E2) Render.Flags0 and Render.Flags3 conditions are met
102: 0x0A6A [0x1C] WAIT(30* ticks)
103: 0x0A6D [0x66] LOAD_EXT_SCHEDULER_MAIN: Load scheduler "tlk0" with entities [Moniquaurie (ID: 17203938/0x010682E2), Moniquaurie (ID: 17203938/0x010682E2)], work=39*
104: 0x0A7C [0x2B] Moniquaurie (ID: 17203938/0x010682E2) [12154*]:
    → "But through your eyes, I can almost glimpse it in all its glory and majesty--the way it was before the cataclysm befell."
105: 0x0A83 [0x1C] WAIT(120* ticks)
106: 0x0A86 [0x23] WAIT_FOR_DIALOG_INTERACTION
107: 0x0A87 [0x52] END_LOAD_SCHEDULER: End scheduler "7239" with entities [LocalPlayer, LocalPlayer], work=489*
108: 0x0A96 [0x45] LOAD_SCHEDULED_TASK: Load scheduler "7240" with entities [LocalPlayer, LocalPlayer], work=[489*, 0*]
109: 0x0AA7 [0x5D] SET_MUSIC_VOLUME(volume=0*, fade_time=300*)
110: 0x0AAC [0x66] LOAD_EXT_SCHEDULER_MAIN: Load scheduler "tlk1" with entities [Moniquaurie (ID: 17203938/0x010682E2), Moniquaurie (ID: 17203938/0x010682E2)], work=39*
111: 0x0ABB [0x53] WAIT_SCHEDULER_TASK: Wait for scheduler "tlk1" with entities [Moniquaurie (ID: 17203938/0x010682E2), Moniquaurie (ID: 17203938/0x010682E2)]
112: 0x0AC8 [0x6E] Moniquaurie (ID: 17203938/0x010682E2) uses emote 7*
113: 0x0ACF [0x99] Wait for Moniquaurie (ID: 17203938/0x010682E2) animation to complete
114: 0x0AD4 [0x2B] Moniquaurie (ID: 17203938/0x010682E2) [12155*]:
    → "<Player>. It is my fervent hope that you will continue to stand with us in the fight to save Abyssea."
115: 0x0ADB [0x23] WAIT_FOR_DIALOG_INTERACTION
116: 0x0ADC [0x1A] CALL_SUBROUTINE(address=0x0B94)
117: 0x0ADF [0x1C] WAIT(30* ticks)
118: 0x0AE2 [0x52] END_LOAD_SCHEDULER: End scheduler "7240" with entities [LocalPlayer, LocalPlayer], work=489*
119: 0x0AF1 [0x45] LOAD_SCHEDULED_TASK: Load scheduler "0blf" with entities [LocalPlayer, LocalPlayer], work=[489*, 0*]
120: 0x0B02 [0x5C] MUSIC_CONTROL: Set Idle (Day) music to song 0*
121: 0x0B06 [0x5C] MUSIC_CONTROL: Set Idle (Night) music to song 0*
122: 0x0B0A [0x9A] WAIT_MUSIC_SERVER()
123: 0x0B0B [0x46] CAMERA_CONTROL: Restore default settings
124: 0x0B0D [0x45] LOAD_SCHEDULED_TASK: Load scheduler "qstc" with entities [EventEntity, EventEntity], work=[201*, 0*]
125: 0x0B1E [0x45] LOAD_SCHEDULED_TASK: Load scheduler "fdi2" with entities [LocalPlayer, LocalPlayer], work=[200*, 0*]
126: 0x0B2F [0x21] END_EVENT
127: 0x0B30 [0x00] END_REQSTACK()

SUBROUTINE_0B73:
128: 0x0B73 [0x45] LOAD_SCHEDULED_TASK: Load scheduler "fdi1" with entities [LocalPlayer, LocalPlayer], work=[200*, 0*]
129: 0x0B84 [0x55] WAIT_LOAD_SCHEDULER: Wait for scheduler "fdi1" with entities [LocalPlayer, LocalPlayer], work=200*
130: 0x0B93 [0x1B] RETURN

SUBROUTINE_0B94:
131: 0x0B94 [0x45] LOAD_SCHEDULED_TASK: Load scheduler "fdo1" with entities [LocalPlayer, LocalPlayer], work=[200*, 0*]
132: 0x0BA5 [0x55] WAIT_LOAD_SCHEDULER: Wait for scheduler "fdo1" with entities [LocalPlayer, LocalPlayer], work=200*
133: 0x0BB4 [0x1B] RETURN
```

#### Data or dead code:

```
# Dead code (unreachable instructions):
     0x0B31 [0x45] LOAD_SCHEDULED_TASK: Load scheduler "fdi0" with entities [LocalPlayer, LocalPlayer], work=[200*, 0*]
     0x0B42 [0x55] WAIT_LOAD_SCHEDULER: Wait for scheduler "fdi0" with entities [LocalPlayer, LocalPlayer], work=200*
     0x0B51 [0x1B] RETURN
     0x0B52 [0x45] LOAD_SCHEDULED_TASK: Load scheduler "fdo0" with entities [LocalPlayer, LocalPlayer], work=[200*, 0*]
     0x0B63 [0x55] WAIT_LOAD_SCHEDULER: Wait for scheduler "fdo0" with entities [LocalPlayer, LocalPlayer], work=200*
     0x0B72 [0x1B] RETURN
# Dead code (unreachable instructions):
     0x0BB5 [0x45] LOAD_SCHEDULED_TASK: Load scheduler "whi1" with entities [LocalPlayer, LocalPlayer], work=[201*, 0*]
     0x0BC6 [0x55] WAIT_LOAD_SCHEDULER: Wait for scheduler "whi1" with entities [LocalPlayer, LocalPlayer], work=201*
     0x0BD5 [0x1B] RETURN
     0x0BD6 [0x45] LOAD_SCHEDULED_TASK: Load scheduler "who1" with entities [LocalPlayer, LocalPlayer], work=[201*, 0*]
     0x0BE7 [0x55] WAIT_LOAD_SCHEDULER: Wait for scheduler "who1" with entities [LocalPlayer, LocalPlayer], work=201*
     0x0BF6 [0x1B] RETURN
     0x0BF7 [0x45] LOAD_SCHEDULED_TASK: Load scheduler "who2" with entities [LocalPlayer, LocalPlayer], work=[201*, 0*]
     0x0C08 [0x55] WAIT_LOAD_SCHEDULER: Wait for scheduler "who2" with entities [LocalPlayer, LocalPlayer], work=201*
     0x0C17 [0x1B] RETURN
     0x0C18 [0x45] LOAD_SCHEDULED_TASK: Load scheduler "who3" with entities [LocalPlayer, LocalPlayer], work=[201*, 0*]
     0x0C29 [0x55] WAIT_LOAD_SCHEDULER: Wait for scheduler "who3" with entities [LocalPlayer, LocalPlayer], work=201*
     0x0C38 [0x1B] RETURN
     0x0C39 [0x62] LOAD_EVENT_SCHEDULER: Load scheduler "main" with entities [LocalPlayer, LocalPlayer], work=[1*, 0*]
     0x0C4A [0x1C] WAIT(45* ticks)
     0x0C4D [0x45] LOAD_SCHEDULED_TASK: Load scheduler "fdo1" with entities [LocalPlayer, LocalPlayer], work=[200*, 0*]
     0x0C5E [0x55] WAIT_LOAD_SCHEDULER: Wait for scheduler "fdo1" with entities [LocalPlayer, LocalPlayer], work=200*
     0x0C6D [0x1B] RETURN
     0x0C6E [0x45] LOAD_SCHEDULED_TASK: Load scheduler "fdi1" with entities [LocalPlayer, LocalPlayer], work=[200*, 0*]
     0x0C7F [0x62] LOAD_EVENT_SCHEDULER: Load scheduler "main" with entities [LocalPlayer, LocalPlayer], work=[2*, 0*]
     0x0C90 [0x1C] WAIT(30* ticks)
     0x0C93 [0x55] WAIT_LOAD_SCHEDULER: Wait for scheduler "fdi1" with entities [LocalPlayer, LocalPlayer], work=200*
     0x0CA2 [0x1B] RETURN
     0x0CA3 [0x45] LOAD_SCHEDULED_TASK: Load scheduler "blon" with entities [LocalPlayer, LocalPlayer], work=[200*, 0*]
     0x0CB4 [0x45] LOAD_SCHEDULED_TASK: Load scheduler "blon" with entities [LocalPlayer, LocalPlayer], work=[201*, 0*]
     0x0CC5 [0x1B] RETURN
     0x0CC6 [0x45] LOAD_SCHEDULED_TASK: Load scheduler "whi0" with entities [LocalPlayer, LocalPlayer], work=[201*, 0*]
     0x0CD7 [0x55] WAIT_LOAD_SCHEDULER: Wait for scheduler "whi0" with entities [LocalPlayer, LocalPlayer], work=201*
     0x0CE6 [0x1B] RETURN
     0x0CE7 [0x45] LOAD_SCHEDULED_TASK: Load scheduler "who0" with entities [LocalPlayer, LocalPlayer], work=[201*, 0*]
     0x0CF8 [0x55] WAIT_LOAD_SCHEDULER: Wait for scheduler "who0" with entities [LocalPlayer, LocalPlayer], work=201*
     0x0D07 [0x1B] RETURN
     0x0D08 [0x45] LOAD_SCHEDULED_TASK: Load scheduler "efon" with entities [LocalPlayer, LocalPlayer], work=[215*, 0*]
     0x0D19 [0x55] WAIT_LOAD_SCHEDULER: Wait for scheduler "efon" with entities [LocalPlayer, LocalPlayer], work=215*
     0x0D28 [0x1B] RETURN
     0x0D29 [0x45] LOAD_SCHEDULED_TASK: Load scheduler "fdis" with entities [LocalPlayer, LocalPlayer], work=[200*, 0*]
     0x0D3A [0x1B] RETURN
     0x0D3B [0x45] LOAD_SCHEDULED_TASK: Load scheduler "fdos" with entities [LocalPlayer, LocalPlayer], work=[200*, 0*]
     0x0D4C [0x55] WAIT_LOAD_SCHEDULER: Wait for scheduler "fdos" with entities [LocalPlayer, LocalPlayer], work=200*
     0x0D5B [0x1B] RETURN
     0x0D5C [0x45] LOAD_SCHEDULED_TASK: Load scheduler "fdif" with entities [LocalPlayer, LocalPlayer], work=[200*, 0*]
     0x0D6D [0x1B] RETURN
     0x0D6E [0x45] LOAD_SCHEDULED_TASK: Load scheduler "fdof" with entities [LocalPlayer, LocalPlayer], work=[200*, 0*]
     0x0D7F [0x55] WAIT_LOAD_SCHEDULER: Wait for scheduler "fdof" with entities [LocalPlayer, LocalPlayer], work=200*
     0x0D8E [0x1B] RETURN
     0x0D8F [0x45] LOAD_SCHEDULED_TASK: Load scheduler "fdip" with entities [LocalPlayer, LocalPlayer], work=[200*, 0*]
     0x0DA0 [0x1B] RETURN
     0x0DA1 [0x45] LOAD_SCHEDULED_TASK: Load scheduler "fdop" with entities [LocalPlayer, LocalPlayer], work=[200*, 0*]
     0x0DB2 [0x55] WAIT_LOAD_SCHEDULER: Wait for scheduler "fdop" with entities [LocalPlayer, LocalPlayer], work=200*
     0x0DC1 [0x1B] RETURN
```
