# 17203895

## Common Data

| Field            | Value                   |
|------------------|-------------------------|
| Zone             | Jugner Forest (ID: 104) |
| Block Size       | 2456 bytes              |
| Total Events     | 3                       |
| References Count | 56                      |

## List of Events

| Event ID              | Entrypoint   |   Size |   Instructions |
|-----------------------|--------------|--------|----------------|
| [65535](#event-65535) | 0x0000       |      1 |              1 |
| [33](#event-33)       | 0x0001       |    929 |            108 |
| [34](#event-34)       | 0x03A2       |   1271 |            137 |

## DAT References (imed_data)

|   Index | Hex Value   |   Dec Value |
|---------|-------------|-------------|
|       0 | 0x0013      |          19 |
|       1 | 0xFFF832D2  |  4294456018 |
|       2 | 0x46817     |      288791 |
|       3 | 0x1D70      |        7536 |
|       4 | 0x0EBD      |        3773 |
|       5 | 0xFFF84FE1  |  4294463457 |
|       6 | 0x44A94     |      281236 |
|       7 | 0x2267      |        8807 |
|       8 | 0x09F5      |        2549 |
|       9 | 0xFFF83D0A  |  4294458634 |
|      10 | 0x447E4     |      280548 |
|      11 | 0x20AC      |        8364 |
|      12 | 0x0D93      |        3475 |
|      13 | 0x000F      |          15 |
|      14 | 0x01A2      |         418 |
|      15 | 0x0000      |           0 |
|      16 | 0x001E      |          30 |
|      17 | 0x005A      |          90 |
|      18 | 0x2E90      |       11920 |
|      19 | 0x2E91      |       11921 |
|      20 | 0x000A      |          10 |
|      21 | 0x0036      |          54 |
|      22 | 0x09AE      |        2478 |
|      23 | 0x0001      |           1 |
|      24 | 0x0002      |           2 |
|      25 | 0x0003      |           3 |
|      26 | 0x0004      |           4 |
|      27 | 0x0005      |           5 |
|      28 | 0x0006      |           6 |
|      29 | 0x0007      |           7 |
|      30 | 0x0008      |           8 |
|      31 | 0x002D      |          45 |
|      32 | 0x0015      |          21 |
|      33 | 0x003C      |          60 |
|      34 | 0x00C8      |         200 |
|      35 | 0xFFF83826  |  4294457382 |
|      36 | 0x4656B     |      288107 |
|      37 | 0x1D4F      |        7503 |
|      38 | 0xFFF84514  |  4294460692 |
|      39 | 0x455B6     |      284086 |
|      40 | 0x2156      |        8534 |
|      41 | 0x09EC      |        2540 |
|      42 | 0xFFF84425  |  4294460453 |
|      43 | 0x481F5     |      295413 |
|      44 | 0x29AD      |       10669 |
|      45 | 0x0337      |         823 |
|      46 | 0x0096      |         150 |
|      47 | 0x010E      |         270 |
|      48 | 0x2E92      |       11922 |
|      49 | 0x0425      |        1061 |
|      50 | 0x2E93      |       11923 |
|      51 | 0x0024      |          36 |
|      52 | 0x0078      |         120 |
|      53 | 0x2E94      |       11924 |
|      54 | 0x00C9      |         201 |
|      55 | 0x00D7      |         215 |

## Events

### Event 65535

#### Metadata

| Field        | Value   |
|--------------|---------|
| Entrypoint   | 0x0000  |
| Data Size    | 1 bytes |
| Instructions | 1       |

```
      00 01 02 03 04 05 06 07  08 09 0A 0B 0C 0D 0E 0F
      -- -- -- -- -- -- -- --  -- -- -- -- -- -- -- --
0000: 00                                                .               
```

#### Opcodes

```
  0: 0x0000 [0x00] END_REQSTACK()
```

### Event 33

#### Metadata

| Field        | Value     |
|--------------|-----------|
| Entrypoint   | 0x0001    |
| Data Size    | 929 bytes |
| Instructions | 108       |

```
      00 01 02 03 04 05 06 07  08 09 0A 0B 0C 0D 0E 0F
      -- -- -- -- -- -- -- --  -- -- -- -- -- -- -- --
0000:    42 1A 6B 06 46 01 38  00 80 27 10 B3 82 06 01   B.k.F.8..'.....
0010: 04 27 10 B4 82 06 01 04  92 01 B3 82 06 01 92 01  .'..............
0020: B4 82 06 01 94 01 F0 FF  FF 7F 94 01 B3 82 06 01  ................
0030: 94 01 B4 82 06 01 94 01  B2 82 06 01 BA F0 FF FF  ................
0040: 7F 01 80 02 80 03 80 04  80 BA B3 82 06 01 05 80  ................
0050: 06 80 07 80 08 80 BA B4  82 06 01 09 80 0A 80 0B  ................
0060: 80 0C 80 80 F0 FF FF 7F  80 B3 82 06 01 80 B4 82  ................
0070: 06 01 1C 0D 80 4E 01 B4  82 06 01 27 10 B3 82 06  .....N.....'....
0080: 01 0A 45 0E 80 F0 FF FF  7F F0 FF FF 7F 33 38 30  ..E..........380
0090: 30 0F 80 1A 4A 06 1C 10  80 79 00 F0 FF FF 7F B2  0...J....y......
00A0: 82 06 01 1C 11 80 7B F0  FF FF 7F 27 10 F0 FF FF  ......{....'....
00B0: 7F 1C 52 0E 80 F0 FF FF  7F F0 FF FF 7F 33 38 30  ..R..........380
00C0: 30 45 0E 80 F0 FF FF 7F  F0 FF FF 7F 33 38 30 31  0E..........3801
00D0: 0F 80 2A 10 F0 FF FF 7F  2B B3 82 06 01 12 80 23  ..*.....+......#
00E0: 2A 10 B3 82 06 01 52 0E  80 F0 FF FF 7F F0 FF FF  *.....R.........
00F0: 7F 33 38 30 31 45 0E 80  F0 FF FF 7F F0 FF FF 7F  .3801E..........
0100: 33 38 30 32 0F 80 1C 10  80 7C 00 B3 82 06 01 6B  3802.....|.....k
0110: 69 64 6C 30 F0 FF FF 7F  2B B3 82 06 01 13 80 23  idl0....+......#
0120: 7C 01 B3 82 06 01 4E 00  B4 82 06 01 C4 01 0F 80  |.....N.........
0130: B4 82 06 01 B4 82 06 01  1C 14 80 52 0E 80 F0 FF  ...........R....
0140: FF 7F F0 FF FF 7F 33 38  30 32 45 0E 80 F0 FF FF  ......3802E.....
0150: 7F F0 FF FF 7F 33 38 30  33 0F 80 1C 0D 80 81 00  .....3803.......
0160: B3 82 06 01 C5 15 80 B3  82 06 01 B3 82 06 01 73  ...............s
0170: 30 30 30 0F 80 5B 16 80  B3 82 06 01 B3 82 06 01  000..[..........
0180: 69 74 61 30 1C 10 80 29  10 F0 FF FF 7F 1E 4A F0  ita0...)......J.
0190: FF FF 7F B4 82 06 01 52  0E 80 F0 FF FF 7F F0 FF  .......R........
01A0: FF 7F 33 38 30 33 45 0E  80 F0 FF FF 7F F0 FF FF  ..3803E.........
01B0: 7F 30 65 79 65 0F 80 02  02 10 17 80 80 D3 01 45  .0eye..........E
01C0: 0E 80 F0 FF FF 7F F0 FF  FF 7F 38 68 6D 30 0F 80  ..........8hm0..
01D0: 01 97 02 02 02 10 18 80  80 EF 01 45 0E 80 F0 FF  ...........E....
01E0: FF 7F F0 FF FF 7F 38 68  66 30 0F 80 01 97 02 02  ......8hf0......
01F0: 02 10 19 80 80 0B 02 45  0E 80 F0 FF FF 7F F0 FF  .......E........
0200: FF 7F 38 65 6D 30 0F 80  01 97 02 02 02 10 1A 80  ..8em0..........
0210: 80 27 02 45 0E 80 F0 FF  FF 7F F0 FF FF 7F 38 65  .'.E..........8e
0220: 66 30 0F 80 01 97 02 02  02 10 1B 80 80 43 02 45  f0...........C.E
0230: 0E 80 F0 FF FF 7F F0 FF  FF 7F 38 74 72 30 0F 80  ..........8tr0..
0240: 01 97 02 02 02 10 1C 80  80 5F 02 45 0E 80 F0 FF  ........._.E....
0250: FF 7F F0 FF FF 7F 38 74  72 30 0F 80 01 97 02 02  ......8tr0......
0260: 02 10 1D 80 80 7B 02 45  0E 80 F0 FF FF 7F F0 FF  .....{.E........
0270: FF 7F 38 6D 74 30 0F 80  01 97 02 02 02 10 1E 80  ..8mt0..........
0280: 80 97 02 45 0E 80 F0 FF  FF 7F F0 FF FF 7F 38 67  ...E..........8g
0290: 6C 30 0F 80 01 97 02 6F  76 F0 FF FF 7F 1C 1F 80  l0.....ov.......
02A0: 6E F0 FF FF 7F 20 80 99  F0 FF FF 7F 1C 21 80 52  n.... .......!.R
02B0: 0E 80 F0 FF FF 7F F0 FF  FF 7F 38 68 6D 30 52 0E  ..........8hm0R.
02C0: 80 F0 FF FF 7F F0 FF FF  7F 38 68 66 30 52 0E 80  .........8hf0R..
02D0: F0 FF FF 7F F0 FF FF 7F  38 65 6D 30 52 0E 80 F0  ........8em0R...
02E0: FF FF 7F F0 FF FF 7F 38  65 66 30 52 0E 80 F0 FF  .......8ef0R....
02F0: FF 7F F0 FF FF 7F 38 74  72 30 52 0E 80 F0 FF FF  ......8tr0R.....
0300: 7F F0 FF FF 7F 38 6D 74  30 52 0E 80 F0 FF FF 7F  .....8mt0R......
0310: F0 FF FF 7F 38 67 6C 30  45 0E 80 F0 FF FF 7F F0  ....8gl0E.......
0320: FF FF 7F 33 38 30 35 0F  80 27 10 B4 82 06 01 0A  ...3805..'......
0330: 1C 21 80 52 0E 80 F0 FF  FF 7F F0 FF FF 7F 33 38  .!.R..........38
0340: 30 35 45 0E 80 F0 FF FF  7F F0 FF FF 7F 33 38 30  05E..........380
0350: 34 0F 80 1C 11 80 1A 6B  06 1C 10 80 C5 15 80 B3  4......k........
0360: 82 06 01 B3 82 06 01 73  30 30 31 0F 80 52 0E 80  .......s001..R..
0370: F0 FF FF 7F F0 FF FF 7F  33 38 30 34 45 0E 80 F0  ........3804E...
0380: FF FF 7F F0 FF FF 7F 30  62 6C 66 0F 80 46 00 45  .......0blf..F.E
0390: 22 80 F0 FF FF 7F F0 FF  FF 7F 66 64 69 32 0F 80  ".........fdi2..
03A0: 21 00                                             !.              
```

#### Opcodes

```
  0: 0x0001 [0x42] SET_CLI_EVENT_CANCEL_DATA()
  1: 0x0002 [0x1A] CALL_SUBROUTINE(address=0x066B)
  2: 0x0005 [0x46] CAMERA_CONTROL: Disable user control
  3: 0x0007 [0x38] SET_CLIENT_EVENT_MODE(mode=19*)
  4: 0x000A [0x27] REQ_SET(priority=0x10, entity_id=Lilisette (ID: 17203891/0x010682B3), tag_num=0x04)
  5: 0x0011 [0x27] REQ_SET(priority=0x10, entity_id=NM Treant (ID: 17203892/0x010682B4), tag_num=0x04)
  6: 0x0018 [0x92] Lilisette (ID: 17203891/0x010682B3)->Render.Flags3 ^= 0x01
  7: 0x001E [0x92] NM Treant (ID: 17203892/0x010682B4)->Render.Flags3 ^= 0x01
  8: 0x0024 [0x94] LocalPlayer->Render.Flags3 ^= 0x01
  9: 0x002A [0x94] Lilisette (ID: 17203891/0x010682B3)->Render.Flags3 ^= 0x01
 10: 0x0030 [0x94] NM Treant (ID: 17203892/0x010682B4)->Render.Flags3 ^= 0x01
 11: 0x0036 [0x94] Humus-rich Earth (ID: 17203890/0x010682B2)->Render.Flags3 ^= 0x01
 12: 0x003C [0xBA] SET_ENTITY_POSITION(entity_id=LocalPlayer, pos_x=-511.278*, pos_z=288.791*, pos_y=7.536*, direction=331.6°*)
 13: 0x0049 [0xBA] SET_ENTITY_POSITION(entity_id=Lilisette (ID: 17203891/0x010682B3), pos_x=-503.839*, pos_z=281.236*, pos_y=8.807*, direction=224.0°*)
 14: 0x0056 [0xBA] SET_ENTITY_POSITION(entity_id=NM Treant (ID: 17203892/0x010682B4), pos_x=-508.662*, pos_z=280.548*, pos_y=8.364*, direction=305.4°*)
 15: 0x0063 [0x80] LOAD_WAIT(entity=LocalPlayer)
 16: 0x0068 [0x80] LOAD_WAIT(entity=Lilisette (ID: 17203891/0x010682B3))
 17: 0x006D [0x80] LOAD_WAIT(entity=NM Treant (ID: 17203892/0x010682B4))
 18: 0x0072 [0x1C] WAIT(15* ticks)
 19: 0x0075 [0x4E] SET_ENTITY_HIDE_FLAG: Hide NM Treant (ID: 17203892/0x010682B4)
 20: 0x007B [0x27] REQ_SET(priority=0x10, entity_id=Lilisette (ID: 17203891/0x010682B3), tag_num=0x0A)
 21: 0x0082 [0x45] LOAD_SCHEDULED_TASK: Load scheduler "3800" with entities [LocalPlayer, LocalPlayer], work=[418*, 0*]
 22: 0x0093 [0x1A] CALL_SUBROUTINE(address=0x064A)
 23: 0x0096 [0x1C] WAIT(30* ticks)
 24: 0x0099 [0x79] LocalPlayer looks at Humus-rich Earth (ID: 17203890/0x010682B2) (Basic look)
 25: 0x00A3 [0x1C] WAIT(90* ticks)
 26: 0x00A6 [0x7B] LocalPlayer stops talking
 27: 0x00AB [0x27] REQ_SET(priority=0x10, entity_id=LocalPlayer, tag_num=0x1C)
 28: 0x00B2 [0x52] END_LOAD_SCHEDULER: End scheduler "3800" with entities [LocalPlayer, LocalPlayer], work=418*
 29: 0x00C1 [0x45] LOAD_SCHEDULED_TASK: Load scheduler "3801" with entities [LocalPlayer, LocalPlayer], work=[418*, 0*]
 30: 0x00D2 [0x2A] GET_REQ_LEVEL(level=16, entity_id=LocalPlayer)
 31: 0x00D8 [0x2B] Lilisette (ID: 17203891/0x010682B3) [11920*]:
    → "That's odd, there's nothing growing here... Did the bulb fail to sprout?"
 32: 0x00DF [0x23] WAIT_FOR_DIALOG_INTERACTION
 33: 0x00E0 [0x2A] GET_REQ_LEVEL(level=16, entity_id=Lilisette (ID: 17203891/0x010682B3))
 34: 0x00E6 [0x52] END_LOAD_SCHEDULER: End scheduler "3801" with entities [LocalPlayer, LocalPlayer], work=418*
 35: 0x00F5 [0x45] LOAD_SCHEDULED_TASK: Load scheduler "3802" with entities [LocalPlayer, LocalPlayer], work=[418*, 0*]
 36: 0x0106 [0x1C] WAIT(30* ticks)
 37: 0x0109 [0x7C] Lilisette (ID: 17203891/0x010682B3)->Render.Flags2 |= 0x00
 38: 0x010F [0x6B] STOP_AND_IDLE: LocalPlayer stops current action and resets to idle (animation="idl0")
 39: 0x0118 [0x2B] Lilisette (ID: 17203891/0x010682B3) [11921*]:
    → "...?"
 40: 0x011F [0x23] WAIT_FOR_DIALOG_INTERACTION
 41: 0x0120 [0x7C] Lilisette (ID: 17203891/0x010682B3)->Render.Flags2 |= 0x01
 42: 0x0126 [0x4E] SET_ENTITY_HIDE_FLAG: Show NM Treant (ID: 17203892/0x010682B4)
 43: 0x012C [0xC4] SCHEDULE_MAGIC_CASTING_ALT (arg=17): NM Treant (ID: 17203892/0x010682B4) casts magic 0* on NM Treant (ID: 17203892/0x010682B4)
 44: 0x0138 [0x1C] WAIT(10* ticks)
 45: 0x013B [0x52] END_LOAD_SCHEDULER: End scheduler "3802" with entities [LocalPlayer, LocalPlayer], work=418*
 46: 0x014A [0x45] LOAD_SCHEDULED_TASK: Load scheduler "3803" with entities [LocalPlayer, LocalPlayer], work=[418*, 0*]
 47: 0x015B [0x1C] WAIT(15* ticks)
 48: 0x015E [0x81] SET_ENTITY_BLINKING(blink_flag=0x00, entity=Lilisette (ID: 17203891/0x010682B3))
 49: 0x0164 [0xC5] LOAD_SCHEDULED_TASK_ALT3: Load scheduler 0x800F3030 for entities [Lilisette (ID: 17203891/0x010682B3), Lilisette (ID: 17203891/0x010682B3)], work=54*, param=12403
 50: 0x0175 [0x5B] LOAD_EXT_SCHEDULER: Load scheduler "ita0" with entities [Lilisette (ID: 17203891/0x010682B3), Lilisette (ID: 17203891/0x010682B3)], work=2478*
 51: 0x0184 [0x1C] WAIT(30* ticks)
 52: 0x0187 [0x29] REQ_SET_WAIT(priority=0x10, entity_id=LocalPlayer, tag_num=0x1E)
 53: 0x018E [0x4A] LocalPlayer looks at NM Treant (ID: 17203892/0x010682B4)
 54: 0x0197 [0x52] END_LOAD_SCHEDULER: End scheduler "3803" with entities [LocalPlayer, LocalPlayer], work=418*
 55: 0x01A6 [0x45] LOAD_SCHEDULED_TASK: Load scheduler "0eye" with entities [LocalPlayer, LocalPlayer], work=[418*, 0*]
 56: 0x01B7 [0x02] IF !(Work_Zone[2] == 1*) GOTO 0x01D3
 57: 0x01BF [0x45] LOAD_SCHEDULED_TASK: Load scheduler "8hm0" with entities [LocalPlayer, LocalPlayer], work=[418*, 0*]
 58: 0x01D0 [0x01] GOTO 0x0297
 59: 0x01D3 [0x02] IF !(Work_Zone[2] == 2*) GOTO 0x01EF
 60: 0x01DB [0x45] LOAD_SCHEDULED_TASK: Load scheduler "8hf0" with entities [LocalPlayer, LocalPlayer], work=[418*, 0*]
 61: 0x01EC [0x01] GOTO 0x0297
 62: 0x01EF [0x02] IF !(Work_Zone[2] == 3*) GOTO 0x020B
 63: 0x01F7 [0x45] LOAD_SCHEDULED_TASK: Load scheduler "8em0" with entities [LocalPlayer, LocalPlayer], work=[418*, 0*]
 64: 0x0208 [0x01] GOTO 0x0297
 65: 0x020B [0x02] IF !(Work_Zone[2] == 4*) GOTO 0x0227
 66: 0x0213 [0x45] LOAD_SCHEDULED_TASK: Load scheduler "8ef0" with entities [LocalPlayer, LocalPlayer], work=[418*, 0*]
 67: 0x0224 [0x01] GOTO 0x0297
 68: 0x0227 [0x02] IF !(Work_Zone[2] == 5*) GOTO 0x0243
 69: 0x022F [0x45] LOAD_SCHEDULED_TASK: Load scheduler "8tr0" with entities [LocalPlayer, LocalPlayer], work=[418*, 0*]
 70: 0x0240 [0x01] GOTO 0x0297
 71: 0x0243 [0x02] IF !(Work_Zone[2] == 6*) GOTO 0x025F
 72: 0x024B [0x45] LOAD_SCHEDULED_TASK: Load scheduler "8tr0" with entities [LocalPlayer, LocalPlayer], work=[418*, 0*]
 73: 0x025C [0x01] GOTO 0x0297
 74: 0x025F [0x02] IF !(Work_Zone[2] == 7*) GOTO 0x027B
 75: 0x0267 [0x45] LOAD_SCHEDULED_TASK: Load scheduler "8mt0" with entities [LocalPlayer, LocalPlayer], work=[418*, 0*]
 76: 0x0278 [0x01] GOTO 0x0297
 77: 0x027B [0x02] IF !(Work_Zone[2] == 8*) GOTO 0x0297
 78: 0x0283 [0x45] LOAD_SCHEDULED_TASK: Load scheduler "8gl0" with entities [LocalPlayer, LocalPlayer], work=[418*, 0*]
 79: 0x0294 [0x01] GOTO 0x0297

SUBROUTINE_0297:
 80: 0x0297 [0x6F] WAIT_FRAME_DELAY: Yield until WaitTime reaches zero
 81: 0x0298 [0x76] CHECK_ENTITY_RENDER_FLAGS: Wait until LocalPlayer Render.Flags0 and Render.Flags3 conditions are met
 82: 0x029D [0x1C] WAIT(45* ticks)
 83: 0x02A0 [0x6E] LocalPlayer uses emote 21*
 84: 0x02A7 [0x99] Wait for LocalPlayer animation to complete
 85: 0x02AC [0x1C] WAIT(60* ticks)
 86: 0x02AF [0x52] END_LOAD_SCHEDULER: End scheduler "8hm0" with entities [LocalPlayer, LocalPlayer], work=418*
 87: 0x02BE [0x52] END_LOAD_SCHEDULER: End scheduler "8hf0" with entities [LocalPlayer, LocalPlayer], work=418*
 88: 0x02CD [0x52] END_LOAD_SCHEDULER: End scheduler "8em0" with entities [LocalPlayer, LocalPlayer], work=418*
 89: 0x02DC [0x52] END_LOAD_SCHEDULER: End scheduler "8ef0" with entities [LocalPlayer, LocalPlayer], work=418*
 90: 0x02EB [0x52] END_LOAD_SCHEDULER: End scheduler "8tr0" with entities [LocalPlayer, LocalPlayer], work=418*
 91: 0x02FA [0x52] END_LOAD_SCHEDULER: End scheduler "8mt0" with entities [LocalPlayer, LocalPlayer], work=418*
 92: 0x0309 [0x52] END_LOAD_SCHEDULER: End scheduler "8gl0" with entities [LocalPlayer, LocalPlayer], work=418*
 93: 0x0318 [0x45] LOAD_SCHEDULED_TASK: Load scheduler "3805" with entities [LocalPlayer, LocalPlayer], work=[418*, 0*]
 94: 0x0329 [0x27] REQ_SET(priority=0x10, entity_id=NM Treant (ID: 17203892/0x010682B4), tag_num=0x0A)
 95: 0x0330 [0x1C] WAIT(60* ticks)
 96: 0x0333 [0x52] END_LOAD_SCHEDULER: End scheduler "3805" with entities [LocalPlayer, LocalPlayer], work=418*
 97: 0x0342 [0x45] LOAD_SCHEDULED_TASK: Load scheduler "3804" with entities [LocalPlayer, LocalPlayer], work=[418*, 0*]
 98: 0x0353 [0x1C] WAIT(90* ticks)
 99: 0x0356 [0x1A] CALL_SUBROUTINE(address=0x066B)
100: 0x0359 [0x1C] WAIT(30* ticks)
101: 0x035C [0xC5] LOAD_SCHEDULED_TASK_ALT3: Load scheduler 0x800F3130 for entities [Lilisette (ID: 17203891/0x010682B3), Lilisette (ID: 17203891/0x010682B3)], work=54*, param=12403
102: 0x036D [0x52] END_LOAD_SCHEDULER: End scheduler "3804" with entities [LocalPlayer, LocalPlayer], work=418*
103: 0x037C [0x45] LOAD_SCHEDULED_TASK: Load scheduler "0blf" with entities [LocalPlayer, LocalPlayer], work=[418*, 0*]
104: 0x038D [0x46] CAMERA_CONTROL: Restore default settings
105: 0x038F [0x45] LOAD_SCHEDULED_TASK: Load scheduler "fdi2" with entities [LocalPlayer, LocalPlayer], work=[200*, 0*]
106: 0x03A0 [0x21] END_EVENT
107: 0x03A1 [0x00] END_REQSTACK()
```

### Event 34

#### Metadata

| Field        | Value      |
|--------------|------------|
| Entrypoint   | 0x03A2     |
| Data Size    | 1271 bytes |
| Instructions | 82         |

```
      00 01 02 03 04 05 06 07  08 09 0A 0B 0C 0D 0E 0F
      -- -- -- -- -- -- -- --  -- -- -- -- -- -- -- --
03A0:       42 1A 6B 06 46 01  38 00 80 27 10 B3 82 06    B.k.F.8..'....
03B0: 01 04 27 10 B4 82 06 01  04 92 01 B3 82 06 01 92  ..'.............
03C0: 01 B4 82 06 01 94 01 F0  FF FF 7F 94 01 B3 82 06  ................
03D0: 01 94 01 B4 82 06 01 94  01 B2 82 06 01 BA F0 FF  ................
03E0: FF 7F 23 80 24 80 25 80  04 80 BA B3 82 06 01 26  ..#.$.%........&
03F0: 80 27 80 28 80 29 80 59  05 B4 82 06 01 01 BA B4  .'.(.).Y........
0400: 82 06 01 2A 80 2B 80 2C  80 2D 80 80 F0 FF FF 7F  ...*.+.,.-......
0410: 80 B3 82 06 01 80 B4 82  06 01 2C B4 82 06 01 B4  ..........,.....
0420: 82 06 01 63 6F 72 70 81  00 B3 82 06 01 C5 15 80  ...corp.........
0430: B3 82 06 01 B3 82 06 01  73 30 30 30 0F 80 5B 16  ........s000..[.
0440: 80 B3 82 06 01 B3 82 06  01 69 74 61 30 1C 0D 80  .........ita0...
0450: 45 0E 80 F0 FF FF 7F F0  FF FF 7F 33 38 31 30 0F  E..........3810.
0460: 80 1A 4A 06 1C 2E 80 4A  F0 FF FF 7F B2 82 06 01  ..J....J........
0470: 52 0E 80 F0 FF FF 7F F0  FF FF 7F 33 38 31 30 45  R..........3810E
0480: 0E 80 F0 FF FF 7F F0 FF  FF 7F 33 38 31 31 0F 80  ..........3811..
0490: 1C 21 80 62 19 80 B2 82  06 01 B2 82 06 01 6D 61  .!.b..........ma
04A0: 69 6E 0F 80 27 10 F0 FF  FF 7F 1C 1C 21 80 C5 15  in..'.......!...
04B0: 80 B3 82 06 01 B3 82 06  01 73 30 30 31 0F 80 5B  .........s001..[
04C0: 16 80 B3 82 06 01 B3 82  06 01 69 74 61 31 03 02  ..........ita1..
04D0: 10 2F 80 27 10 B5 82 06  01 01 1C 10 80 52 0E 80  ./.'.........R..
04E0: F0 FF FF 7F F0 FF FF 7F  33 38 31 31 45 0E 80 F0  ........3811E...
04F0: FF FF 7F F0 FF FF 7F 33  38 31 32 0F 80 1C 21 80  .......3812...!.
0500: 27 10 F0 FF FF 7F 1D 2B  B3 82 06 01 30 80 23 2A  '......+....0.#*
0510: 10 B5 82 06 01 4A F0 FF  FF 7F B3 82 06 01 52 0E  .....J........R.
0520: 80 F0 FF FF 7F F0 FF FF  7F 33 38 31 32 45 0E 80  .........3812E..
0530: F0 FF FF 7F F0 FF FF 7F  33 38 31 33 0F 80 5B 16  ........3813..[.
0540: 80 B3 82 06 01 B3 82 06  01 69 74 61 32 1C 11 80  .........ita2...
0550: 03 02 10 31 80 2B B3 82  06 01 32 80 23 52 0E 80  ...1.+....2.#R..
0560: F0 FF FF 7F F0 FF FF 7F  33 38 31 33 45 0E 80 F0  ........3813E...
0570: FF FF 7F F0 FF FF 7F 33  38 31 34 0F 80 6E F0 FF  .......3814..n..
0580: FF 7F 33 80 99 F0 FF FF  7F 99 F0 FF FF 7F 1C 34  ..3............4
0590: 80 52 0E 80 F0 FF FF 7F  F0 FF FF 7F 33 38 31 34  .R..........3814
05A0: 45 0E 80 F0 FF FF 7F F0  FF FF 7F 33 38 31 35 0F  E..........3815.
05B0: 80 2B B3 82 06 01 35 80  23 6E F0 FF FF 7F 1D 80  .+....5.#n......
05C0: 99 F0 FF FF 7F 99 F0 FF  FF 7F 1C 11 80 1A 6B 06  ..............k.
05D0: 1C 10 80 52 0E 80 F0 FF  FF 7F F0 FF FF 7F 33 38  ...R..........38
05E0: 31 35 45 0E 80 F0 FF FF  7F F0 FF FF 7F 30 62 6C  15E..........0bl
05F0: 66 0F 80 46 00 45 22 80  F0 FF FF 7F F0 FF FF 7F  f..F.E".........
0600: 66 64 69 32 0F 80 21 00  45 22 80 F0 FF FF 7F F0  fdi2..!.E"......
0610: FF FF 7F 66 64 69 30 0F  80 55 22 80 F0 FF FF 7F  ...fdi0..U".....
0620: F0 FF FF 7F 66 64 69 30  1B 45 22 80 F0 FF FF 7F  ....fdi0.E".....
0630: F0 FF FF 7F 66 64 6F 30  0F 80 55 22 80 F0 FF FF  ....fdo0..U"....
0640: 7F F0 FF FF 7F 66 64 6F  30 1B 45 22 80 F0 FF FF  .....fdo0.E"....
0650: 7F F0 FF FF 7F 66 64 69  31 0F 80 55 22 80 F0 FF  .....fdi1..U"...
0660: FF 7F F0 FF FF 7F 66 64  69 31 1B 45 22 80 F0 FF  ......fdi1.E"...
0670: FF 7F F0 FF FF 7F 66 64  6F 31 0F 80 55 22 80 F0  ......fdo1..U"..
0680: FF FF 7F F0 FF FF 7F 66  64 6F 31 1B 45 36 80 F0  .......fdo1.E6..
0690: FF FF 7F F0 FF FF 7F 77  68 69 31 0F 80 55 36 80  .......whi1..U6.
06A0: F0 FF FF 7F F0 FF FF 7F  77 68 69 31 1B 45 36 80  ........whi1.E6.
06B0: F0 FF FF 7F F0 FF FF 7F  77 68 6F 31 0F 80 55 36  ........who1..U6
06C0: 80 F0 FF FF 7F F0 FF FF  7F 77 68 6F 31 1B 45 36  .........who1.E6
06D0: 80 F0 FF FF 7F F0 FF FF  7F 77 68 6F 32 0F 80 55  .........who2..U
06E0: 36 80 F0 FF FF 7F F0 FF  FF 7F 77 68 6F 32 1B 45  6.........who2.E
06F0: 36 80 F0 FF FF 7F F0 FF  FF 7F 77 68 6F 33 0F 80  6.........who3..
0700: 55 36 80 F0 FF FF 7F F0  FF FF 7F 77 68 6F 33 1B  U6.........who3.
0710: 62 17 80 F0 FF FF 7F F0  FF FF 7F 6D 61 69 6E 0F  b..........main.
0720: 80 1C 1F 80 45 22 80 F0  FF FF 7F F0 FF FF 7F 66  ....E".........f
0730: 64 6F 31 0F 80 55 22 80  F0 FF FF 7F F0 FF FF 7F  do1..U".........
0740: 66 64 6F 31 1B 45 22 80  F0 FF FF 7F F0 FF FF 7F  fdo1.E".........
0750: 66 64 69 31 0F 80 62 18  80 F0 FF FF 7F F0 FF FF  fdi1..b.........
0760: 7F 6D 61 69 6E 0F 80 1C  10 80 55 22 80 F0 FF FF  .main.....U"....
0770: 7F F0 FF FF 7F 66 64 69  31 1B 45 22 80 F0 FF FF  .....fdi1.E"....
0780: 7F F0 FF FF 7F 62 6C 6F  6E 0F 80 45 36 80 F0 FF  .....blon..E6...
0790: FF 7F F0 FF FF 7F 62 6C  6F 6E 0F 80 1B 45 36 80  ......blon...E6.
07A0: F0 FF FF 7F F0 FF FF 7F  77 68 69 30 0F 80 55 36  ........whi0..U6
07B0: 80 F0 FF FF 7F F0 FF FF  7F 77 68 69 30 1B 45 36  .........whi0.E6
07C0: 80 F0 FF FF 7F F0 FF FF  7F 77 68 6F 30 0F 80 55  .........who0..U
07D0: 36 80 F0 FF FF 7F F0 FF  FF 7F 77 68 6F 30 1B 45  6.........who0.E
07E0: 37 80 F0 FF FF 7F F0 FF  FF 7F 65 66 6F 6E 0F 80  7.........efon..
07F0: 55 37 80 F0 FF FF 7F F0  FF FF 7F 65 66 6F 6E 1B  U7.........efon.
0800: 45 22 80 F0 FF FF 7F F0  FF FF 7F 66 64 69 73 0F  E".........fdis.
0810: 80 1B 45 22 80 F0 FF FF  7F F0 FF FF 7F 66 64 6F  ..E".........fdo
0820: 73 0F 80 55 22 80 F0 FF  FF 7F F0 FF FF 7F 66 64  s..U".........fd
0830: 6F 73 1B 45 22 80 F0 FF  FF 7F F0 FF FF 7F 66 64  os.E".........fd
0840: 69 66 0F 80 1B 45 22 80  F0 FF FF 7F F0 FF FF 7F  if...E".........
0850: 66 64 6F 66 0F 80 55 22  80 F0 FF FF 7F F0 FF FF  fdof..U"........
0860: 7F 66 64 6F 66 1B 45 22  80 F0 FF FF 7F F0 FF FF  .fdof.E"........
0870: 7F 66 64 69 70 0F 80 1B  45 22 80 F0 FF FF 7F F0  .fdip...E"......
0880: FF FF 7F 66 64 6F 70 0F  80 55 22 80 F0 FF FF 7F  ...fdop..U".....
0890: F0 FF FF 7F 66 64 6F 70  1B                       ....fdop.       
```

#### Opcodes

```
  0: 0x03A2 [0x42] SET_CLI_EVENT_CANCEL_DATA()
  1: 0x03A3 [0x1A] CALL_SUBROUTINE(address=0x066B)
  2: 0x03A6 [0x46] CAMERA_CONTROL: Disable user control
  3: 0x03A8 [0x38] SET_CLIENT_EVENT_MODE(mode=19*)
  4: 0x03AB [0x27] REQ_SET(priority=0x10, entity_id=Lilisette (ID: 17203891/0x010682B3), tag_num=0x04)
  5: 0x03B2 [0x27] REQ_SET(priority=0x10, entity_id=NM Treant (ID: 17203892/0x010682B4), tag_num=0x04)
  6: 0x03B9 [0x92] Lilisette (ID: 17203891/0x010682B3)->Render.Flags3 ^= 0x01
  7: 0x03BF [0x92] NM Treant (ID: 17203892/0x010682B4)->Render.Flags3 ^= 0x01
  8: 0x03C5 [0x94] LocalPlayer->Render.Flags3 ^= 0x01
  9: 0x03CB [0x94] Lilisette (ID: 17203891/0x010682B3)->Render.Flags3 ^= 0x01
 10: 0x03D1 [0x94] NM Treant (ID: 17203892/0x010682B4)->Render.Flags3 ^= 0x01
 11: 0x03D7 [0x94] Humus-rich Earth (ID: 17203890/0x010682B2)->Render.Flags3 ^= 0x01
 12: 0x03DD [0xBA] SET_ENTITY_POSITION(entity_id=LocalPlayer, pos_x=-509.914*, pos_z=288.107*, pos_y=7.503*, direction=331.6°*)
 13: 0x03EA [0xBA] SET_ENTITY_POSITION(entity_id=Lilisette (ID: 17203891/0x010682B3), pos_x=-506.604*, pos_z=284.086*, pos_y=8.534*, direction=223.2°*)
 14: 0x03F7 [0x59] UPDATE_ENTITY_DATA: NM Treant (ID: 17203892/0x010682B4)->Render.Flags0 |= 0x200000
 15: 0x03FE [0xBA] SET_ENTITY_POSITION(entity_id=NM Treant (ID: 17203892/0x010682B4), pos_x=-506.843*, pos_z=295.413*, pos_y=10.669*, direction=72.3°*)
 16: 0x040B [0x80] LOAD_WAIT(entity=LocalPlayer)
 17: 0x0410 [0x80] LOAD_WAIT(entity=Lilisette (ID: 17203891/0x010682B3))
 18: 0x0415 [0x80] LOAD_WAIT(entity=NM Treant (ID: 17203892/0x010682B4))
 19: 0x041A [0x2C] CREATE_SCHEDULER_TASK: Create scheduler "corp" with entities [NM Treant (ID: 17203892/0x010682B4), NM Treant (ID: 17203892/0x010682B4)]
 20: 0x0427 [0x81] SET_ENTITY_BLINKING(blink_flag=0x00, entity=Lilisette (ID: 17203891/0x010682B3))
 21: 0x042D [0xC5] LOAD_SCHEDULED_TASK_ALT3: Load scheduler 0x800F3030 for entities [Lilisette (ID: 17203891/0x010682B3), Lilisette (ID: 17203891/0x010682B3)], work=54*, param=12403
 22: 0x043E [0x5B] LOAD_EXT_SCHEDULER: Load scheduler "ita0" with entities [Lilisette (ID: 17203891/0x010682B3), Lilisette (ID: 17203891/0x010682B3)], work=2478*
 23: 0x044D [0x1C] WAIT(15* ticks)
 24: 0x0450 [0x45] LOAD_SCHEDULED_TASK: Load scheduler "3810" with entities [LocalPlayer, LocalPlayer], work=[418*, 0*]
 25: 0x0461 [0x1A] CALL_SUBROUTINE(address=0x064A)
 26: 0x0464 [0x1C] WAIT(150* ticks)
 27: 0x0467 [0x4A] LocalPlayer looks at Humus-rich Earth (ID: 17203890/0x010682B2)
 28: 0x0470 [0x52] END_LOAD_SCHEDULER: End scheduler "3810" with entities [LocalPlayer, LocalPlayer], work=418*
 29: 0x047F [0x45] LOAD_SCHEDULED_TASK: Load scheduler "3811" with entities [LocalPlayer, LocalPlayer], work=[418*, 0*]
 30: 0x0490 [0x1C] WAIT(60* ticks)
 31: 0x0493 [0x62] LOAD_EVENT_SCHEDULER: Load scheduler "main" with entities [Humus-rich Earth (ID: 17203890/0x010682B2), Humus-rich Earth (ID: 17203890/0x010682B2)], work=[3*, 0*]
 32: 0x04A4 [0x27] REQ_SET(priority=0x10, entity_id=LocalPlayer, tag_num=0x1C)
 33: 0x04AB [0x1C] WAIT(60* ticks)
 34: 0x04AE [0xC5] LOAD_SCHEDULED_TASK_ALT3: Load scheduler 0x800F3130 for entities [Lilisette (ID: 17203891/0x010682B3), Lilisette (ID: 17203891/0x010682B3)], work=54*, param=12403
 35: 0x04BF [0x5B] LOAD_EXT_SCHEDULER: Load scheduler "ita1" with entities [Lilisette (ID: 17203891/0x010682B3), Lilisette (ID: 17203891/0x010682B3)], work=2478*
 36: 0x04CE [0x03] Work_Zone[2] = 270*
 37: 0x04D3 [0x27] REQ_SET(priority=0x10, entity_id=??? (ID: 17203893/0x010682B5), tag_num=0x01)
 38: 0x04DA [0x1C] WAIT(30* ticks)
 39: 0x04DD [0x52] END_LOAD_SCHEDULER: End scheduler "3811" with entities [LocalPlayer, LocalPlayer], work=418*
 40: 0x04EC [0x45] LOAD_SCHEDULED_TASK: Load scheduler "3812" with entities [LocalPlayer, LocalPlayer], work=[418*, 0*]
 41: 0x04FD [0x1C] WAIT(60* ticks)
 42: 0x0500 [0x27] REQ_SET(priority=0x10, entity_id=LocalPlayer, tag_num=0x1D)
 43: 0x0507 [0x2B] Lilisette (ID: 17203891/0x010682B3) [11922*]:
    → "Owww... It feels like a tree fell on me..."
 44: 0x050E [0x23] WAIT_FOR_DIALOG_INTERACTION
 45: 0x050F [0x2A] GET_REQ_LEVEL(level=16, entity_id=??? (ID: 17203893/0x010682B5))
 46: 0x0515 [0x4A] LocalPlayer looks at Lilisette (ID: 17203891/0x010682B3)
 47: 0x051E [0x52] END_LOAD_SCHEDULER: End scheduler "3812" with entities [LocalPlayer, LocalPlayer], work=418*
 48: 0x052D [0x45] LOAD_SCHEDULED_TASK: Load scheduler "3813" with entities [LocalPlayer, LocalPlayer], work=[418*, 0*]
 49: 0x053E [0x5B] LOAD_EXT_SCHEDULER: Load scheduler "ita2" with entities [Lilisette (ID: 17203891/0x010682B3), Lilisette (ID: 17203891/0x010682B3)], work=2478*
 50: 0x054D [0x1C] WAIT(90* ticks)
 51: 0x0550 [0x03] Work_Zone[2] = 1061*
 52: 0x0555 [0x2B] Lilisette (ID: 17203891/0x010682B3) [11923*]:
    → "Oh, <Player>. The $3... Did you...?"
 53: 0x055C [0x23] WAIT_FOR_DIALOG_INTERACTION
 54: 0x055D [0x52] END_LOAD_SCHEDULER: End scheduler "3813" with entities [LocalPlayer, LocalPlayer], work=418*
 55: 0x056C [0x45] LOAD_SCHEDULED_TASK: Load scheduler "3814" with entities [LocalPlayer, LocalPlayer], work=[418*, 0*]
 56: 0x057D [0x6E] LocalPlayer uses emote 36*
 57: 0x0584 [0x99] Wait for LocalPlayer animation to complete
 58: 0x0589 [0x99] Wait for LocalPlayer animation to complete
 59: 0x058E [0x1C] WAIT(120* ticks)
 60: 0x0591 [0x52] END_LOAD_SCHEDULER: End scheduler "3814" with entities [LocalPlayer, LocalPlayer], work=418*
 61: 0x05A0 [0x45] LOAD_SCHEDULED_TASK: Load scheduler "3815" with entities [LocalPlayer, LocalPlayer], work=[418*, 0*]
 62: 0x05B1 [0x2B] Lilisette (ID: 17203891/0x010682B3) [11924*]:
    → "Hooray! Let's take it to Amaura without delay!"
 63: 0x05B8 [0x23] WAIT_FOR_DIALOG_INTERACTION
 64: 0x05B9 [0x6E] LocalPlayer uses emote 7*
 65: 0x05C0 [0x99] Wait for LocalPlayer animation to complete
 66: 0x05C5 [0x99] Wait for LocalPlayer animation to complete
 67: 0x05CA [0x1C] WAIT(90* ticks)
 68: 0x05CD [0x1A] CALL_SUBROUTINE(address=0x066B)
 69: 0x05D0 [0x1C] WAIT(30* ticks)
 70: 0x05D3 [0x52] END_LOAD_SCHEDULER: End scheduler "3815" with entities [LocalPlayer, LocalPlayer], work=418*
 71: 0x05E2 [0x45] LOAD_SCHEDULED_TASK: Load scheduler "0blf" with entities [LocalPlayer, LocalPlayer], work=[418*, 0*]
 72: 0x05F3 [0x46] CAMERA_CONTROL: Restore default settings
 73: 0x05F5 [0x45] LOAD_SCHEDULED_TASK: Load scheduler "fdi2" with entities [LocalPlayer, LocalPlayer], work=[200*, 0*]
 74: 0x0606 [0x21] END_EVENT
 75: 0x0607 [0x00] END_REQSTACK()

SUBROUTINE_064A:
 76: 0x064A [0x45] LOAD_SCHEDULED_TASK: Load scheduler "fdi1" with entities [LocalPlayer, LocalPlayer], work=[200*, 0*]
 77: 0x065B [0x55] WAIT_LOAD_SCHEDULER: Wait for scheduler "fdi1" with entities [LocalPlayer, LocalPlayer], work=200*
 78: 0x066A [0x1B] RETURN

SUBROUTINE_066B:
 79: 0x066B [0x45] LOAD_SCHEDULED_TASK: Load scheduler "fdo1" with entities [LocalPlayer, LocalPlayer], work=[200*, 0*]
 80: 0x067C [0x55] WAIT_LOAD_SCHEDULER: Wait for scheduler "fdo1" with entities [LocalPlayer, LocalPlayer], work=200*
 81: 0x068B [0x1B] RETURN
```

#### Data or dead code:

```
# Dead code (unreachable instructions):
     0x0608 [0x45] LOAD_SCHEDULED_TASK: Load scheduler "fdi0" with entities [LocalPlayer, LocalPlayer], work=[200*, 0*]
     0x0619 [0x55] WAIT_LOAD_SCHEDULER: Wait for scheduler "fdi0" with entities [LocalPlayer, LocalPlayer], work=200*
     0x0628 [0x1B] RETURN
     0x0629 [0x45] LOAD_SCHEDULED_TASK: Load scheduler "fdo0" with entities [LocalPlayer, LocalPlayer], work=[200*, 0*]
     0x063A [0x55] WAIT_LOAD_SCHEDULER: Wait for scheduler "fdo0" with entities [LocalPlayer, LocalPlayer], work=200*
     0x0649 [0x1B] RETURN
# Dead code (unreachable instructions):
     0x068C [0x45] LOAD_SCHEDULED_TASK: Load scheduler "whi1" with entities [LocalPlayer, LocalPlayer], work=[201*, 0*]
     0x069D [0x55] WAIT_LOAD_SCHEDULER: Wait for scheduler "whi1" with entities [LocalPlayer, LocalPlayer], work=201*
     0x06AC [0x1B] RETURN
     0x06AD [0x45] LOAD_SCHEDULED_TASK: Load scheduler "who1" with entities [LocalPlayer, LocalPlayer], work=[201*, 0*]
     0x06BE [0x55] WAIT_LOAD_SCHEDULER: Wait for scheduler "who1" with entities [LocalPlayer, LocalPlayer], work=201*
     0x06CD [0x1B] RETURN
     0x06CE [0x45] LOAD_SCHEDULED_TASK: Load scheduler "who2" with entities [LocalPlayer, LocalPlayer], work=[201*, 0*]
     0x06DF [0x55] WAIT_LOAD_SCHEDULER: Wait for scheduler "who2" with entities [LocalPlayer, LocalPlayer], work=201*
     0x06EE [0x1B] RETURN
     0x06EF [0x45] LOAD_SCHEDULED_TASK: Load scheduler "who3" with entities [LocalPlayer, LocalPlayer], work=[201*, 0*]
     0x0700 [0x55] WAIT_LOAD_SCHEDULER: Wait for scheduler "who3" with entities [LocalPlayer, LocalPlayer], work=201*
     0x070F [0x1B] RETURN
     0x0710 [0x62] LOAD_EVENT_SCHEDULER: Load scheduler "main" with entities [LocalPlayer, LocalPlayer], work=[1*, 0*]
     0x0721 [0x1C] WAIT(45* ticks)
     0x0724 [0x45] LOAD_SCHEDULED_TASK: Load scheduler "fdo1" with entities [LocalPlayer, LocalPlayer], work=[200*, 0*]
     0x0735 [0x55] WAIT_LOAD_SCHEDULER: Wait for scheduler "fdo1" with entities [LocalPlayer, LocalPlayer], work=200*
     0x0744 [0x1B] RETURN
     0x0745 [0x45] LOAD_SCHEDULED_TASK: Load scheduler "fdi1" with entities [LocalPlayer, LocalPlayer], work=[200*, 0*]
     0x0756 [0x62] LOAD_EVENT_SCHEDULER: Load scheduler "main" with entities [LocalPlayer, LocalPlayer], work=[2*, 0*]
     0x0767 [0x1C] WAIT(30* ticks)
     0x076A [0x55] WAIT_LOAD_SCHEDULER: Wait for scheduler "fdi1" with entities [LocalPlayer, LocalPlayer], work=200*
     0x0779 [0x1B] RETURN
     0x077A [0x45] LOAD_SCHEDULED_TASK: Load scheduler "blon" with entities [LocalPlayer, LocalPlayer], work=[200*, 0*]
     0x078B [0x45] LOAD_SCHEDULED_TASK: Load scheduler "blon" with entities [LocalPlayer, LocalPlayer], work=[201*, 0*]
     0x079C [0x1B] RETURN
     0x079D [0x45] LOAD_SCHEDULED_TASK: Load scheduler "whi0" with entities [LocalPlayer, LocalPlayer], work=[201*, 0*]
     0x07AE [0x55] WAIT_LOAD_SCHEDULER: Wait for scheduler "whi0" with entities [LocalPlayer, LocalPlayer], work=201*
     0x07BD [0x1B] RETURN
     0x07BE [0x45] LOAD_SCHEDULED_TASK: Load scheduler "who0" with entities [LocalPlayer, LocalPlayer], work=[201*, 0*]
     0x07CF [0x55] WAIT_LOAD_SCHEDULER: Wait for scheduler "who0" with entities [LocalPlayer, LocalPlayer], work=201*
     0x07DE [0x1B] RETURN
     0x07DF [0x45] LOAD_SCHEDULED_TASK: Load scheduler "efon" with entities [LocalPlayer, LocalPlayer], work=[215*, 0*]
     0x07F0 [0x55] WAIT_LOAD_SCHEDULER: Wait for scheduler "efon" with entities [LocalPlayer, LocalPlayer], work=215*
     0x07FF [0x1B] RETURN
     0x0800 [0x45] LOAD_SCHEDULED_TASK: Load scheduler "fdis" with entities [LocalPlayer, LocalPlayer], work=[200*, 0*]
     0x0811 [0x1B] RETURN
     0x0812 [0x45] LOAD_SCHEDULED_TASK: Load scheduler "fdos" with entities [LocalPlayer, LocalPlayer], work=[200*, 0*]
     0x0823 [0x55] WAIT_LOAD_SCHEDULER: Wait for scheduler "fdos" with entities [LocalPlayer, LocalPlayer], work=200*
     0x0832 [0x1B] RETURN
     0x0833 [0x45] LOAD_SCHEDULED_TASK: Load scheduler "fdif" with entities [LocalPlayer, LocalPlayer], work=[200*, 0*]
     0x0844 [0x1B] RETURN
     0x0845 [0x45] LOAD_SCHEDULED_TASK: Load scheduler "fdof" with entities [LocalPlayer, LocalPlayer], work=[200*, 0*]
     0x0856 [0x55] WAIT_LOAD_SCHEDULER: Wait for scheduler "fdof" with entities [LocalPlayer, LocalPlayer], work=200*
     0x0865 [0x1B] RETURN
     0x0866 [0x45] LOAD_SCHEDULED_TASK: Load scheduler "fdip" with entities [LocalPlayer, LocalPlayer], work=[200*, 0*]
     0x0877 [0x1B] RETURN
     0x0878 [0x45] LOAD_SCHEDULED_TASK: Load scheduler "fdop" with entities [LocalPlayer, LocalPlayer], work=[200*, 0*]
     0x0889 [0x55] WAIT_LOAD_SCHEDULER: Wait for scheduler "fdop" with entities [LocalPlayer, LocalPlayer], work=200*
     0x0898 [0x1B] RETURN
```
