# 17203819 - Exoroche

## Common Data

| Field            | Value                   |
|------------------|-------------------------|
| Zone             | Jugner Forest (ID: 104) |
| Block Size       | 372 bytes               |
| Total Events     | 13                      |
| References Count | 13                      |

## List of Events

| Event ID                   | Entrypoint   |   Size |   Instructions |
|----------------------------|--------------|--------|----------------|
| [65535](#event-65535)      | 0x0000       |      1 |              1 |
| [14](#event-14)            | 0x0001       |      1 |              1 |
| [65535.1](#event-655351)   | 0x0002       |     30 |              5 |
| [65535.2](#event-655352)   | 0x0020       |     30 |              6 |
| [65535.3](#event-655353)   | 0x003E       |     16 |              2 |
| [65535.4](#event-655354)   | 0x004E       |     10 |              2 |
| [65535.5](#event-655355)   | 0x0058       |     20 |              6 |
| [65535.6](#event-655356)   | 0x006C       |     29 |              3 |
| [65535.7](#event-655357)   | 0x0089       |     29 |              3 |
| [65535.8](#event-655358)   | 0x00A6       |     19 |              3 |
| [65535.9](#event-655359)   | 0x00B9       |     29 |              3 |
| [65535.10](#event-6553510) | 0x00D6       |     19 |              3 |
| [65535.11](#event-6553511) | 0x00E9       |     19 |              3 |

## DAT References (imed_data)

|   Index | Hex Value   |   Dec Value |
|---------|-------------|-------------|
|       0 | 0x000D      |          13 |
|       1 | 0x0078      |         120 |
|       2 | 0x000F      |          15 |
|       3 | 0x0018      |          24 |
|       4 | 0xFFF8A70D  |  4294485773 |
|       5 | 0x4DD82     |      318850 |
|       6 | 0x1F40      |        8000 |
|       7 | 0x0AD6      |        2774 |
|       8 | 0xFFF8A6EE  |  4294485742 |
|       9 | 0x4D770     |      317296 |
|      10 | 0x1F3F      |        7999 |
|      11 | 0x001D      |          29 |
|      12 | 0x003C      |          60 |

## Events

### Event 65535

#### Metadata

| Field        | Value   |
|--------------|---------|
| Entrypoint   | 0x0000  |
| Data Size    | 1 bytes |
| Instructions | 1       |

```
      00 01 02 03 04 05 06 07  08 09 0A 0B 0C 0D 0E 0F
      -- -- -- -- -- -- -- --  -- -- -- -- -- -- -- --
0000: 00                                                .               
```

#### Opcodes

```
  0: 0x0000 [0x00] END_REQSTACK()
```

### Event 14

#### Metadata

| Field        | Value   |
|--------------|---------|
| Entrypoint   | 0x0001  |
| Data Size    | 1 bytes |
| Instructions | 1       |

```
      00 01 02 03 04 05 06 07  08 09 0A 0B 0C 0D 0E 0F
      -- -- -- -- -- -- -- --  -- -- -- -- -- -- -- --
0000:    00                                              .              
```

#### Opcodes

```
  0: 0x0001 [0x00] END_REQSTACK()
```

### Event 65535.1

#### Metadata

| Field        | Value    |
|--------------|----------|
| Entrypoint   | 0x0002   |
| Data Size    | 30 bytes |
| Instructions | 5        |

```
      00 01 02 03 04 05 06 07  08 09 0A 0B 0C 0D 0E 0F
      -- -- -- -- -- -- -- --  -- -- -- -- -- -- -- --
0000:       3B 6A 82 06 01 00  00 01 00 02 00 3A 6A 82    ;j.........:j.
0010: 06 01 03 00 37 00 00 01  00 02 00 03 00 22 00 00  ....7........"..
```

#### Opcodes

```
  0: 0x0002 [0x3B] GET_ENTITY_POSITION(entity=Exoroche (ID: 17203818/0x0106826A), x_destination=ExtData[1]->WorkLocal[0], y_destination=ExtData[1]->WorkLocal[1], z_destination=ExtData[1]->WorkLocal[2])
  1: 0x000D [0x3A] CONVERT_YAW_TO_BYTE(entity=Exoroche (ID: 17203818/0x0106826A), result_destination=ExtData[1]->WorkLocal[3])
  2: 0x0014 [0x37] UPDATE_EVENT_POSITION_AND_DIR: x=ExtData[1]->WorkLocal[0], z=ExtData[1]->WorkLocal[1], y=ExtData[1]->WorkLocal[2], direction=ExtData[1]->WorkLocal[3]
  3: 0x001D [0x22] ENTITY_HIDE_FLAG(enabled=0x00)
  4: 0x001F [0x00] END_REQSTACK()
```

### Event 65535.2

#### Metadata

| Field        | Value    |
|--------------|----------|
| Entrypoint   | 0x0020   |
| Data Size    | 30 bytes |
| Instructions | 6        |

```
      00 01 02 03 04 05 06 07  08 09 0A 0B 0C 0D 0E 0F
      -- -- -- -- -- -- -- --  -- -- -- -- -- -- -- --
0020: 32 00 80 3B 6C 82 06 01  00 00 01 00 02 00 31 00  2..;l.........1.
0030: 00 00 01 00 02 00 01 80  31 01 1C 02 80 00        ........1.....  
```

#### Opcodes

```
  0: 0x0020 [0x32] ExtData[1]->MainSpeed = 13* * 0.1
  1: 0x0023 [0x3B] GET_ENTITY_POSITION(entity=Vilbert (ID: 17203820/0x0106826C), x_destination=ExtData[1]->WorkLocal[0], y_destination=ExtData[1]->WorkLocal[1], z_destination=ExtData[1]->WorkLocal[2])
  2: 0x002E [0x31] UPDATE_ENTITY_POSITION: Set EventEntity goal position to X=ExtData[1]->WorkLocal[0], Z=ExtData[1]->WorkLocal[1], Y=ExtData[1]->WorkLocal[2], Time=120*
  3: 0x0038 [0x31] UPDATE_ENTITY_POSITION: Move EventEntity towards goal position
  4: 0x003A [0x1C] WAIT(15* ticks)
  5: 0x003D [0x00] END_REQSTACK()
```

### Event 65535.3

#### Metadata

| Field        | Value    |
|--------------|----------|
| Entrypoint   | 0x003E   |
| Data Size    | 16 bytes |
| Instructions | 2        |

```
      00 01 02 03 04 05 06 07  08 09 0A 0B 0C 0D 0E 0F
      -- -- -- -- -- -- -- --  -- -- -- -- -- -- -- --
0030:                                            66 03                f.
0040: 80 F8 FF FF 7F F8 FF FF  7F 6B 6E 30 30 00        .........kn00.  
```

#### Opcodes

```
  0: 0x003E [0x66] LOAD_EXT_SCHEDULER_MAIN: Load scheduler "kn00" with entities [EventEntity, EventEntity], work=24*
  1: 0x004D [0x00] END_REQSTACK()
```

### Event 65535.4

#### Metadata

| Field        | Value    |
|--------------|----------|
| Entrypoint   | 0x004E   |
| Data Size    | 10 bytes |
| Instructions | 2        |

```
      00 01 02 03 04 05 06 07  08 09 0A 0B 0C 0D 0E 0F
      -- -- -- -- -- -- -- --  -- -- -- -- -- -- -- --
0040:                                            37 04                7.
0050: 80 05 80 06 80 07 80 00                           ........        
```

#### Opcodes

```
  0: 0x004E [0x37] UPDATE_EVENT_POSITION_AND_DIR: x=-481.523*, z=318.850*, y=8.000*, direction=243.8°*
  1: 0x0057 [0x00] END_REQSTACK()
```

### Event 65535.5

#### Metadata

| Field        | Value    |
|--------------|----------|
| Entrypoint   | 0x0058   |
| Data Size    | 20 bytes |
| Instructions | 6        |

```
      00 01 02 03 04 05 06 07  08 09 0A 0B 0C 0D 0E 0F
      -- -- -- -- -- -- -- --  -- -- -- -- -- -- -- --
0050:                          32 00 80 1F 00 08 80 09          2.......
0060: 80 0A 80 1F 01 6F 1E 69  82 06 01 00              .....o.i....    
```

#### Opcodes

```
  0: 0x0058 [0x32] ExtData[1]->MainSpeed = 13* * 0.1
  1: 0x005B [0x1F] MOVE_ENTITY: EventEntity moves to X=-481.554*, Z=317.296*, Y=7.999*
  2: 0x0063 [0x1F] MOVE_ENTITY: Update entity position (mode=1)
  3: 0x0065 [0x6F] WAIT_FRAME_DELAY: Yield until WaitTime reaches zero
  4: 0x0066 [0x1E] EventEntity looks at Ailbeche (ID: 17203817/0x01068269) and starts talking
  5: 0x006B [0x00] END_REQSTACK()
```

### Event 65535.6

#### Metadata

| Field        | Value    |
|--------------|----------|
| Entrypoint   | 0x006C   |
| Data Size    | 29 bytes |
| Instructions | 3        |

```
      00 01 02 03 04 05 06 07  08 09 0A 0B 0C 0D 0E 0F
      -- -- -- -- -- -- -- --  -- -- -- -- -- -- -- --
0060:                                      66 03 80 F8              f...
0070: FF FF 7F F8 FF FF 7F 31  72 64 79 53 F8 FF FF 7F  .......1rdyS....
0080: F8 FF FF 7F 31 72 64 79  00                       ....1rdy.       
```

#### Opcodes

```
  0: 0x006C [0x66] LOAD_EXT_SCHEDULER_MAIN: Load scheduler "1rdy" with entities [EventEntity, EventEntity], work=24*
  1: 0x007B [0x53] WAIT_SCHEDULER_TASK: Wait for scheduler "1rdy" with entities [EventEntity, EventEntity]
  2: 0x0088 [0x00] END_REQSTACK()
```

### Event 65535.7

#### Metadata

| Field        | Value    |
|--------------|----------|
| Entrypoint   | 0x0089   |
| Data Size    | 29 bytes |
| Instructions | 3        |

```
      00 01 02 03 04 05 06 07  08 09 0A 0B 0C 0D 0E 0F
      -- -- -- -- -- -- -- --  -- -- -- -- -- -- -- --
0080:                             66 03 80 F8 FF FF 7F           f......
0090: F8 FF FF 7F 31 72 74 6E  53 F8 FF FF 7F F8 FF FF  ....1rtnS.......
00A0: 7F 31 72 74 6E 00                                 .1rtn.          
```

#### Opcodes

```
  0: 0x0089 [0x66] LOAD_EXT_SCHEDULER_MAIN: Load scheduler "1rtn" with entities [EventEntity, EventEntity], work=24*
  1: 0x0098 [0x53] WAIT_SCHEDULER_TASK: Wait for scheduler "1rtn" with entities [EventEntity, EventEntity]
  2: 0x00A5 [0x00] END_REQSTACK()
```

### Event 65535.8

#### Metadata

| Field        | Value    |
|--------------|----------|
| Entrypoint   | 0x00A6   |
| Data Size    | 19 bytes |
| Instructions | 3        |

```
      00 01 02 03 04 05 06 07  08 09 0A 0B 0C 0D 0E 0F
      -- -- -- -- -- -- -- --  -- -- -- -- -- -- -- --
00A0:                   66 0B  80 F8 FF FF 7F F8 FF FF        f.........
00B0: 7F 74 6C 6B 30 1C 0C 80  00                       .tlk0....       
```

#### Opcodes

```
  0: 0x00A6 [0x66] LOAD_EXT_SCHEDULER_MAIN: Load scheduler "tlk0" with entities [EventEntity, EventEntity], work=29*
  1: 0x00B5 [0x1C] WAIT(60* ticks)
  2: 0x00B8 [0x00] END_REQSTACK()
```

### Event 65535.9

#### Metadata

| Field        | Value    |
|--------------|----------|
| Entrypoint   | 0x00B9   |
| Data Size    | 29 bytes |
| Instructions | 3        |

```
      00 01 02 03 04 05 06 07  08 09 0A 0B 0C 0D 0E 0F
      -- -- -- -- -- -- -- --  -- -- -- -- -- -- -- --
00B0:                             66 0B 80 F8 FF FF 7F           f......
00C0: F8 FF FF 7F 74 6C 6B 31  53 F8 FF FF 7F F8 FF FF  ....tlk1S.......
00D0: 7F 74 6C 6B 31 00                                 .tlk1.          
```

#### Opcodes

```
  0: 0x00B9 [0x66] LOAD_EXT_SCHEDULER_MAIN: Load scheduler "tlk1" with entities [EventEntity, EventEntity], work=29*
  1: 0x00C8 [0x53] WAIT_SCHEDULER_TASK: Wait for scheduler "tlk1" with entities [EventEntity, EventEntity]
  2: 0x00D5 [0x00] END_REQSTACK()
```

### Event 65535.10

#### Metadata

| Field        | Value    |
|--------------|----------|
| Entrypoint   | 0x00D6   |
| Data Size    | 19 bytes |
| Instructions | 3        |

```
      00 01 02 03 04 05 06 07  08 09 0A 0B 0C 0D 0E 0F
      -- -- -- -- -- -- -- --  -- -- -- -- -- -- -- --
00D0:                   66 0B  80 F8 FF FF 7F F8 FF FF        f.........
00E0: 7F 74 68 6B 31 1C 0C 80  00                       .thk1....       
```

#### Opcodes

```
  0: 0x00D6 [0x66] LOAD_EXT_SCHEDULER_MAIN: Load scheduler "thk1" with entities [EventEntity, EventEntity], work=29*
  1: 0x00E5 [0x1C] WAIT(60* ticks)
  2: 0x00E8 [0x00] END_REQSTACK()
```

### Event 65535.11

#### Metadata

| Field        | Value    |
|--------------|----------|
| Entrypoint   | 0x00E9   |
| Data Size    | 19 bytes |
| Instructions | 3        |

```
      00 01 02 03 04 05 06 07  08 09 0A 0B 0C 0D 0E 0F
      -- -- -- -- -- -- -- --  -- -- -- -- -- -- -- --
00E0:                             66 0B 80 F8 FF FF 7F           f......
00F0: F8 FF FF 7F 74 68 6B 32  1C 0C 80 00              ....thk2....    
```

#### Opcodes

```
  0: 0x00E9 [0x66] LOAD_EXT_SCHEDULER_MAIN: Load scheduler "thk2" with entities [EventEntity, EventEntity], work=29*
  1: 0x00F8 [0x1C] WAIT(60* ticks)
  2: 0x00FB [0x00] END_REQSTACK()
```
