# 17203884

## Common Data

| Field            | Value                   |
|------------------|-------------------------|
| Zone             | Jugner Forest (ID: 104) |
| Block Size       | 392 bytes               |
| Total Events     | 6                       |
| References Count | 19                      |

## List of Events

| Event ID                 | Entrypoint   |   Size |   Instructions |
|--------------------------|--------------|--------|----------------|
| [65535](#event-65535)    | 0x0000       |      1 |              1 |
| [31](#event-31)          | 0x0001       |     33 |              6 |
| [65535.1](#event-655351) | 0x0022       |     10 |              2 |
| [65535.2](#event-655352) | 0x002C       |     10 |              2 |
| [65535.3](#event-655353) | 0x0036       |     37 |              5 |
| [65535.4](#event-655354) | 0x005B       |    185 |             37 |

## DAT References (imed_data)

|   Index | Hex Value   |   Dec Value |
|---------|-------------|-------------|
|       0 | 0xFFFDCB7F  |  4294822783 |
|       1 | 0x72433     |      468019 |
|       2 | 0x153A      |        5434 |
|       3 | 0x0AC7      |        2759 |
|       4 | 0x0000      |           0 |
|       5 | 0x0080      |         128 |
|       6 | 0x0078      |         120 |
|       7 | 0xFFFDE0C0  |  4294828224 |
|       8 | 0x72038     |      467000 |
|       9 | 0x181D      |        6173 |
|      10 | 0x0958      |        2392 |
|      11 | 0x0005      |           5 |
|      12 | 0x0001      |           1 |
|      13 | 0x0002      |           2 |
|      14 | 0x000A      |          10 |
|      15 | 0x0009      |           9 |
|      16 | 0x0046      |          70 |
|      17 | 0x008C      |         140 |
|      18 | 0x00D2      |         210 |

## Events

### Event 65535

#### Metadata

| Field        | Value   |
|--------------|---------|
| Entrypoint   | 0x0000  |
| Data Size    | 1 bytes |
| Instructions | 1       |

```
      00 01 02 03 04 05 06 07  08 09 0A 0B 0C 0D 0E 0F
      -- -- -- -- -- -- -- --  -- -- -- -- -- -- -- --
0000: 00                                                .               
```

#### Opcodes

```
  0: 0x0000 [0x00] END_REQSTACK()
```

### Event 31

#### Metadata

| Field        | Value    |
|--------------|----------|
| Entrypoint   | 0x0001   |
| Data Size    | 33 bytes |
| Instructions | 6        |

```
      00 01 02 03 04 05 06 07  08 09 0A 0B 0C 0D 0E 0F
      -- -- -- -- -- -- -- --  -- -- -- -- -- -- -- --
0000:    2F 00 F8 FF FF 7F 92  01 AC 82 06 01 33 01 37   /...........3.7
0010: 00 80 01 80 02 80 03 80  6C F8 FF FF 7F 04 80 04  ........l.......
0020: 80 00                                             ..              
```

#### Opcodes

```
  0: 0x0001 [0x2F] EventEntity->Render.Flags0 &= ~0x80000 // Bit 19
  1: 0x0007 [0x92] ??? (ID: 17203884/0x010682AC)->Render.Flags3 ^= 0x01
  2: 0x000D [0x33] EventEntity->Render.Flags0 |= 0x200000 // Bit 21 (flag=0x01)
  3: 0x000F [0x37] UPDATE_EVENT_POSITION_AND_DIR: x=-144.513*, z=468.019*, y=5.434*, direction=242.5°*
  4: 0x0018 [0x6C] FADE_ENTITY_COLOR(entity_id=EventEntity, end_alpha=0*, fade_time=0*)
  5: 0x0021 [0x00] END_REQSTACK()
```

### Event 65535.1

#### Metadata

| Field        | Value    |
|--------------|----------|
| Entrypoint   | 0x0022   |
| Data Size    | 10 bytes |
| Instructions | 2        |

```
      00 01 02 03 04 05 06 07  08 09 0A 0B 0C 0D 0E 0F
      -- -- -- -- -- -- -- --  -- -- -- -- -- -- -- --
0020:       6C F8 FF FF 7F 05  80 06 80 00                l.........    
```

#### Opcodes

```
  0: 0x0022 [0x6C] FADE_ENTITY_COLOR(entity_id=EventEntity, end_alpha=128*, fade_time=120*)
  1: 0x002B [0x00] END_REQSTACK()
```

### Event 65535.2

#### Metadata

| Field        | Value    |
|--------------|----------|
| Entrypoint   | 0x002C   |
| Data Size    | 10 bytes |
| Instructions | 2        |

```
      00 01 02 03 04 05 06 07  08 09 0A 0B 0C 0D 0E 0F
      -- -- -- -- -- -- -- --  -- -- -- -- -- -- -- --
0020:                                      37 07 80 08              7...
0030: 80 09 80 0A 80 00                                 ......          
```

#### Opcodes

```
  0: 0x002C [0x37] UPDATE_EVENT_POSITION_AND_DIR: x=-139.072*, z=467.000*, y=6.173*, direction=210.2°*
  1: 0x0035 [0x00] END_REQSTACK()
```

### Event 65535.3

#### Metadata

| Field        | Value    |
|--------------|----------|
| Entrypoint   | 0x0036   |
| Data Size    | 37 bytes |
| Instructions | 5        |

```
      00 01 02 03 04 05 06 07  08 09 0A 0B 0C 0D 0E 0F
      -- -- -- -- -- -- -- --  -- -- -- -- -- -- -- --
0030:                   03 00  00 07 7F 1A 80 00 66 01        ........f.
0040: 00 F8 FF FF 7F F8 FF FF  7F 73 68 61 30 53 F8 FF  .........sha0S..
0050: FF 7F F8 FF FF 7F 73 68  61 30 00                 ......sha0.     
```

#### Opcodes

```
  0: 0x0036 [0x03] ExtData[1]->WorkLocal[0] = Entity->Race
  1: 0x003B [0x1A] CALL_SUBROUTINE(address=0x0080)
  2: 0x003E [0x66] LOAD_EXT_SCHEDULER_MAIN: Load scheduler "sha0" with entities [EventEntity, EventEntity], work=ExtData[1]->WorkLocal[1]
  3: 0x004D [0x53] WAIT_SCHEDULER_TASK: Wait for scheduler "sha0" with entities [EventEntity, EventEntity]
  4: 0x005A [0x00] END_REQSTACK()
```

### Event 65535.4

#### Metadata

| Field        | Value     |
|--------------|-----------|
| Entrypoint   | 0x005B    |
| Data Size    | 185 bytes |
| Instructions | 13        |

```
      00 01 02 03 04 05 06 07  08 09 0A 0B 0C 0D 0E 0F
      -- -- -- -- -- -- -- --  -- -- -- -- -- -- -- --
0050:                                   03 00 00 07 7F             .....
0060: 1A 80 00 66 01 00 F8 FF  FF 7F F8 FF FF 7F 73 68  ...f..........sh
0070: 61 31 53 F8 FF FF 7F F8  FF FF 7F 73 68 61 31 00  a1S........sha1.
0080: 03 01 00 00 00 02 01 00  0B 80 05 95 00 08 01 00  ................
0090: 0C 80 01 9A 00 08 01 00  0D 80 14 01 00 0E 80 07  ................
00A0: 01 00 0F 80 1B 03 01 00  00 00 02 01 00 0B 80 05  ................
00B0: BA 00 08 01 00 0C 80 01  BF 00 08 01 00 0D 80 14  ................
00C0: 01 00 0E 80 07 01 00 10  80 1B 03 01 00 00 00 02  ................
00D0: 01 00 0B 80 05 DF 00 08  01 00 0C 80 01 E4 00 08  ................
00E0: 01 00 0D 80 14 01 00 0E  80 07 01 00 11 80 1B 03  ................
00F0: 01 00 00 00 02 01 00 0B  80 05 04 01 08 01 00 0C  ................
0100: 80 01 09 01 08 01 00 0D  80 14 01 00 0E 80 07 01  ................
0110: 00 12 80 1B                                       ....            
```

#### Opcodes

```
  0: 0x005B [0x03] ExtData[1]->WorkLocal[0] = Entity->Race
  1: 0x0060 [0x1A] CALL_SUBROUTINE(address=0x0080)
  2: 0x0063 [0x66] LOAD_EXT_SCHEDULER_MAIN: Load scheduler "sha1" with entities [EventEntity, EventEntity], work=ExtData[1]->WorkLocal[1]
  3: 0x0072 [0x53] WAIT_SCHEDULER_TASK: Wait for scheduler "sha1" with entities [EventEntity, EventEntity]
  4: 0x007F [0x00] END_REQSTACK()

SUBROUTINE_0080:
  5: 0x0080 [0x03] ExtData[1]->WorkLocal[1] = ExtData[1]->WorkLocal[0]
  6: 0x0085 [0x02] IF !(ExtData[1]->WorkLocal[1] > 5*) GOTO 0x0095
  7: 0x008D [0x08] ExtData[1]->WorkLocal[1] -= 1*
  8: 0x0092 [0x01] GOTO 0x009A
  9: 0x0095 [0x08] ExtData[1]->WorkLocal[1] -= 2*

SUBROUTINE_009A:
 10: 0x009A [0x14] ExtData[1]->WorkLocal[1] *= 10*
 11: 0x009F [0x07] ExtData[1]->WorkLocal[1] += 9*
 12: 0x00A4 [0x1B] RETURN
```

#### Data or dead code:

```
# Dead code (unreachable instructions):
     0x00A5 [0x03] ExtData[1]->WorkLocal[1] = ExtData[1]->WorkLocal[0]
     0x00AA [0x02] IF !(ExtData[1]->WorkLocal[1] > 5*) GOTO 0x00BA
     0x00B2 [0x08] ExtData[1]->WorkLocal[1] -= 1*
     0x00B7 [0x01] GOTO 0x00BF
     0x00BA [0x08] ExtData[1]->WorkLocal[1] -= 2*
     0x00BF [0x14] ExtData[1]->WorkLocal[1] *= 10*
     0x00C4 [0x07] ExtData[1]->WorkLocal[1] += 70*
     0x00C9 [0x1B] RETURN
     0x00CA [0x03] ExtData[1]->WorkLocal[1] = ExtData[1]->WorkLocal[0]
     0x00CF [0x02] IF !(ExtData[1]->WorkLocal[1] > 5*) GOTO 0x00DF
     0x00D7 [0x08] ExtData[1]->WorkLocal[1] -= 1*
     0x00DC [0x01] GOTO 0x00E4
     0x00DF [0x08] ExtData[1]->WorkLocal[1] -= 2*
     0x00E4 [0x14] ExtData[1]->WorkLocal[1] *= 10*
     0x00E9 [0x07] ExtData[1]->WorkLocal[1] += 140*
     0x00EE [0x1B] RETURN
     0x00EF [0x03] ExtData[1]->WorkLocal[1] = ExtData[1]->WorkLocal[0]
     0x00F4 [0x02] IF !(ExtData[1]->WorkLocal[1] > 5*) GOTO 0x0104
     0x00FC [0x08] ExtData[1]->WorkLocal[1] -= 1*
     0x0101 [0x01] GOTO 0x0109
     0x0104 [0x08] ExtData[1]->WorkLocal[1] -= 2*
     0x0109 [0x14] ExtData[1]->WorkLocal[1] *= 10*
     0x010E [0x07] ExtData[1]->WorkLocal[1] += 210*
     0x0113 [0x1B] RETURN
```
