# 17203810 - Signpost

## Common Data

| Field            | Value                   |
|------------------|-------------------------|
| Zone             | Jugner Forest (ID: 104) |
| Block Size       | 96 bytes                |
| Total Events     | 3                       |
| References Count | 5                       |

## List of Events

| Event ID              | Entrypoint   |   Size |   Instructions |
|-----------------------|--------------|--------|----------------|
| [65535](#event-65535) | 0x0000       |      1 |              1 |
| [1](#event-1)         | 0x0001       |      6 |              4 |
| [6](#event-6)         | 0x0007       |     38 |             10 |

## DAT References (imed_data)

|   Index | Hex Value   |   Dec Value |
|---------|-------------|-------------|
|       0 | 0x1ED8      |        7896 |
|       1 | 0x1ED9      |        7897 |
|       2 | 0x0001      |           1 |
|       3 | 0x1ED6      |        7894 |
|       4 | 0x0000      |           0 |

## String References

- **7894**: Clean the grimy signpost? [Wipe it clean./Not now.]
- **7896**: Southwest: La Theine Plateau South: Davoi Northeast: Batallia Downs North: Lake Mechieume
- **7897**: S u we : a Th in l t a S ut : D v i or he s : Ba a li D wn N r h La e h e m

## Events

### Event 65535

#### Metadata

| Field        | Value   |
|--------------|---------|
| Entrypoint   | 0x0000  |
| Data Size    | 1 bytes |
| Instructions | 1       |

```
      00 01 02 03 04 05 06 07  08 09 0A 0B 0C 0D 0E 0F
      -- -- -- -- -- -- -- --  -- -- -- -- -- -- -- --
0000: 00                                                .               
```

#### Opcodes

```
  0: 0x0000 [0x00] END_REQSTACK()
```

### Event 1

#### Metadata

| Field        | Value   |
|--------------|---------|
| Entrypoint   | 0x0001  |
| Data Size    | 6 bytes |
| Instructions | 4       |

```
      00 01 02 03 04 05 06 07  08 09 0A 0B 0C 0D 0E 0F
      -- -- -- -- -- -- -- --  -- -- -- -- -- -- -- --
0000:    48 00 80 23 21 00                               H..#!.         
```

#### Opcodes

```
  0: 0x0001 [0x48] [System] [7896*]:
    → "Southwest: La Theine Plateau South: Davoi Northeast: Batallia Downs North: Lake Mechieume"
  1: 0x0004 [0x23] WAIT_FOR_DIALOG_INTERACTION
  2: 0x0005 [0x21] END_EVENT
  3: 0x0006 [0x00] END_REQSTACK()
```

### Event 6

#### Metadata

| Field        | Value    |
|--------------|----------|
| Entrypoint   | 0x0007   |
| Data Size    | 38 bytes |
| Instructions | 10       |

```
      00 01 02 03 04 05 06 07  08 09 0A 0B 0C 0D 0E 0F
      -- -- -- -- -- -- -- --  -- -- -- -- -- -- -- --
0000:                      48  01 80 23 02 02 10 02 80         H..#.....
0010: 00 2B 00 24 03 80 04 80  04 80 25 02 00 10 04 80  .+.$......%.....
0020: 00 2B 00 03 01 10 02 80  01 2B 00 21 00           .+.......+.!.   
```

#### Opcodes

```
  0: 0x0007 [0x48] [System] [7897*]:
    → "S u we : a Th in l t a S ut : D v i or he s : Ba a li D wn N r h La e h e m"
  1: 0x000A [0x23] WAIT_FOR_DIALOG_INTERACTION
  2: 0x000B [0x02] IF !(Work_Zone[2] == 1*) GOTO 0x002B
  3: 0x0013 [0x24] CREATE_DIALOG(message_id=7894*, default_option=0*, option_flags=0*)
    → "Clean the grimy signpost? [Wipe it clean./Not now.]"
  4: 0x001A [0x25] WAIT_DIALOG_SELECT()
  5: 0x001B [0x02] IF !(Work_Zone[0] == 0*) GOTO 0x002B
  6: 0x0023 [0x03] Work_Zone[1] = 1*
  7: 0x0028 [0x01] GOTO 0x002B

SUBROUTINE_002B:
  8: 0x002B [0x21] END_EVENT
  9: 0x002C [0x00] END_REQSTACK()
```
