# 17203871 - Shikaree M

## Common Data

| Field            | Value                   |
|------------------|-------------------------|
| Zone             | Jugner Forest (ID: 104) |
| Block Size       | 508 bytes               |
| Total Events     | 27                      |
| References Count | 31                      |

## List of Events

| Event ID                   | Entrypoint   |   Size |   Instructions |
|----------------------------|--------------|--------|----------------|
| [65535](#event-65535)      | 0x0000       |      1 |              1 |
| [65535.1](#event-655351)   | 0x0001       |     16 |              2 |
| [65535.2](#event-655352)   | 0x0011       |     22 |              4 |
| [65535.3](#event-655353)   | 0x0027       |     16 |              2 |
| [65535.4](#event-655354)   | 0x0037       |     14 |              2 |
| [65535.5](#event-655355)   | 0x0045       |      9 |              3 |
| [13](#event-13)            | 0x004E       |      1 |              1 |
| [65535.6](#event-655356)   | 0x004F       |     14 |              4 |
| [65535.7](#event-655357)   | 0x005D       |     14 |              4 |
| [65535.8](#event-655358)   | 0x006B       |     14 |              4 |
| [65535.9](#event-655359)   | 0x0079       |     14 |              4 |
| [65535.10](#event-6553510) | 0x0087       |      5 |              3 |
| [65535.11](#event-6553511) | 0x008C       |      5 |              3 |
| [65535.12](#event-6553512) | 0x0091       |      5 |              3 |
| [65535.13](#event-6553513) | 0x0096       |      5 |              3 |
| [65535.14](#event-6553514) | 0x009B       |     12 |              4 |
| [65535.15](#event-6553515) | 0x00A7       |      5 |              3 |
| [65535.16](#event-6553516) | 0x00AC       |      5 |              3 |
| [65535.17](#event-6553517) | 0x00B1       |     12 |              4 |
| [65535.18](#event-6553518) | 0x00BD       |      5 |              3 |
| [65535.19](#event-6553519) | 0x00C2       |      5 |              3 |
| [65535.20](#event-6553520) | 0x00C7       |     19 |              5 |
| [65535.21](#event-6553521) | 0x00DA       |     21 |              7 |
| [65535.22](#event-6553522) | 0x00EF       |      5 |              3 |
| [65535.23](#event-6553523) | 0x00F4       |      5 |              3 |
| [65535.24](#event-6553524) | 0x00F9       |      5 |              3 |
| [65535.25](#event-6553525) | 0x00FE       |      5 |              3 |

## DAT References (imed_data)

|   Index | Hex Value   |   Dec Value |
|---------|-------------|-------------|
|       0 | 0x0167      |         359 |
|       1 | 0x001E      |          30 |
|       2 | 0x0165      |         357 |
|       3 | 0x000D      |          13 |
|       4 | 0xFFFFDC1B  |  4294958107 |
|       5 | 0x4D4E4     |      316644 |
|       6 | 0x0101      |         257 |
|       7 | 0xFFFFD8FB  |  4294957307 |
|       8 | 0x4DD1F     |      318751 |
|       9 | 0x0129      |         297 |
|      10 | 0xFFFFF2E1  |  4294963937 |
|      11 | 0x49EDD     |      302813 |
|      12 | 0x035A      |         858 |
|      13 | 0x1F1D      |        7965 |
|      14 | 0x1F1F      |        7967 |
|      15 | 0x1F21      |        7969 |
|      16 | 0x1F22      |        7970 |
|      17 | 0x1F24      |        7972 |
|      18 | 0x1F25      |        7973 |
|      19 | 0x1F26      |        7974 |
|      20 | 0x1F27      |        7975 |
|      21 | 0x1F28      |        7976 |
|      22 | 0x1F2B      |        7979 |
|      23 | 0x1F2C      |        7980 |
|      24 | 0x1F2D      |        7981 |
|      25 | 0x0006      |           6 |
|      26 | 0x1F2E      |        7982 |
|      27 | 0x1F2F      |        7983 |
|      28 | 0x1F31      |        7985 |
|      29 | 0x1F32      |        7986 |
|      30 | 0x1F34      |        7988 |

## String References

- **7965**: Perhaps it means she wishes to exchange your earring for herrrs?
- **7967**: Semih Lafihna, Sibyl Guard of Heavens Tower in Windurst. That is your title, correct?
- **7969**: I am a Mithran Tracker. Have you not heard of us? I have trrraveled from the Mithran homeland that lies across the seas.
- **7970**: I learned that a sinner was taking rrrefuge with a tribe that lived in Windurst.
- **7972**: Twenty years ago, in the time of the Great War, the tribal chieftainness of a certain region perpetrated a grrrave offense.
- **7973**: That chieftainness escaped to this land, but was hunted down by Perih Vashai.
- **7974**: We received word that the daughter of the chieftainness perrrished along with her mother. The Mithran Tracker who traveled here twenty years ago confirmed the report.
- **7975**: However, before the light of life left her, she confessed to her own sin: "The daughter still lives."
- **7976**: And so I have come. I will seek out the daughter of the chieftainness and make her atone for the sins of her mother.
- **7979**: Although all the other orphans of the war were sent to their rrrespective homelands, only you few were taken in by a different people. Was this done to evade the Mithran Trackers, perrrhaps?
- **7980**: And out of those orphans who went to live in Heavens Tower, you were the only one to have no rrrecord of her parents...
- **7981**: A sin is a sin, even if you have no memory of the fact. The child must pay for the sins of the mother when the mother can no longer make amends.
- **7982**: Trying to switch the earring will do you no good. That is not how I will know you as the child of the sinner.
- **7983**: Let me tell you a secret. A sinner carries the scent of sin. It is a scent that only these king's tear moths can detect. A scent that will not fade and that you cannot escape. A scent that will stay with you forrrever.
- **7985**: ...!? You don't carry the scent...?
- **7986**: ...... I must apologize. I seem to have been mistaken.
- **7988**: That is no longer my concern. Farewell, Semih Lafihna.

## Events

### Event 65535

#### Metadata

| Field        | Value   |
|--------------|---------|
| Entrypoint   | 0x0000  |
| Data Size    | 1 bytes |
| Instructions | 1       |

```
      00 01 02 03 04 05 06 07  08 09 0A 0B 0C 0D 0E 0F
      -- -- -- -- -- -- -- --  -- -- -- -- -- -- -- --
0000: 00                                                .               
```

#### Opcodes

```
  0: 0x0000 [0x00] END_REQSTACK()
```

### Event 65535.1

#### Metadata

| Field        | Value    |
|--------------|----------|
| Entrypoint   | 0x0001   |
| Data Size    | 16 bytes |
| Instructions | 2        |

```
      00 01 02 03 04 05 06 07  08 09 0A 0B 0C 0D 0E 0F
      -- -- -- -- -- -- -- --  -- -- -- -- -- -- -- --
0000:    5B 00 80 F8 FF FF 7F  F8 FF FF 7F 74 6C 6B 30   [..........tlk0
0010: 00                                                .               
```

#### Opcodes

```
  0: 0x0001 [0x5B] LOAD_EXT_SCHEDULER: Load scheduler "tlk0" with entities [EventEntity, EventEntity], work=359*
  1: 0x0010 [0x00] END_REQSTACK()
```

### Event 65535.2

#### Metadata

| Field        | Value    |
|--------------|----------|
| Entrypoint   | 0x0011   |
| Data Size    | 22 bytes |
| Instructions | 4        |

```
      00 01 02 03 04 05 06 07  08 09 0A 0B 0C 0D 0E 0F
      -- -- -- -- -- -- -- --  -- -- -- -- -- -- -- --
0010:    53 F8 FF FF 7F F8 FF  FF 7F 74 6C 6B 30 5E 69   S........tlk0^i
0020: 64 6C 30 1C 01 80 00                              dl0....         
```

#### Opcodes

```
  0: 0x0011 [0x53] WAIT_SCHEDULER_TASK: Wait for scheduler "tlk0" with entities [EventEntity, EventEntity]
  1: 0x001E [0x5E] EventEntity goes idle (kills current action) (animation: "idl0")
  2: 0x0023 [0x1C] WAIT(30* ticks)
  3: 0x0026 [0x00] END_REQSTACK()
```

### Event 65535.3

#### Metadata

| Field        | Value    |
|--------------|----------|
| Entrypoint   | 0x0027   |
| Data Size    | 16 bytes |
| Instructions | 2        |

```
      00 01 02 03 04 05 06 07  08 09 0A 0B 0C 0D 0E 0F
      -- -- -- -- -- -- -- --  -- -- -- -- -- -- -- --
0020:                      5B  02 80 F8 FF FF 7F F8 FF         [........
0030: FF 7F 70 61 73 30 00                              ..pas0.         
```

#### Opcodes

```
  0: 0x0027 [0x5B] LOAD_EXT_SCHEDULER: Load scheduler "pas0" with entities [EventEntity, EventEntity], work=357*
  1: 0x0036 [0x00] END_REQSTACK()
```

### Event 65535.4

#### Metadata

| Field        | Value    |
|--------------|----------|
| Entrypoint   | 0x0037   |
| Data Size    | 14 bytes |
| Instructions | 2        |

```
      00 01 02 03 04 05 06 07  08 09 0A 0B 0C 0D 0E 0F
      -- -- -- -- -- -- -- --  -- -- -- -- -- -- -- --
0030:                      53  F8 FF FF 7F F8 FF FF 7F         S........
0040: 70 61 73 30 00                                    pas0.           
```

#### Opcodes

```
  0: 0x0037 [0x53] WAIT_SCHEDULER_TASK: Wait for scheduler "pas0" with entities [EventEntity, EventEntity]
  1: 0x0044 [0x00] END_REQSTACK()
```

### Event 65535.5

#### Metadata

| Field        | Value   |
|--------------|---------|
| Entrypoint   | 0x0045  |
| Data Size    | 9 bytes |
| Instructions | 3       |

```
      00 01 02 03 04 05 06 07  08 09 0A 0B 0C 0D 0E 0F
      -- -- -- -- -- -- -- --  -- -- -- -- -- -- -- --
0040:                5E 69 64  6C 30 1C 01 80 00             ^idl0....  
```

#### Opcodes

```
  0: 0x0045 [0x5E] EventEntity goes idle (kills current action) (animation: "idl0")
  1: 0x004A [0x1C] WAIT(30* ticks)
  2: 0x004D [0x00] END_REQSTACK()
```

### Event 13

#### Metadata

| Field        | Value   |
|--------------|---------|
| Entrypoint   | 0x004E  |
| Data Size    | 1 bytes |
| Instructions | 1       |

```
      00 01 02 03 04 05 06 07  08 09 0A 0B 0C 0D 0E 0F
      -- -- -- -- -- -- -- --  -- -- -- -- -- -- -- --
0040:                                            00                   . 
```

#### Opcodes

```
  0: 0x004E [0x00] END_REQSTACK()
```

### Event 65535.6

#### Metadata

| Field        | Value    |
|--------------|----------|
| Entrypoint   | 0x004F   |
| Data Size    | 14 bytes |
| Instructions | 4        |

```
      00 01 02 03 04 05 06 07  08 09 0A 0B 0C 0D 0E 0F
      -- -- -- -- -- -- -- --  -- -- -- -- -- -- -- --
0040:                                               32                 2
0050: 03 80 1F 00 04 80 05 80  06 80 1F 01 00           .............   
```

#### Opcodes

```
  0: 0x004F [0x32] ExtData[1]->MainSpeed = 13* * 0.1
  1: 0x0052 [0x1F] MOVE_ENTITY: EventEntity moves to X=-9.189*, Z=316.644*, Y=0.257*
  2: 0x005A [0x1F] MOVE_ENTITY: Update entity position (mode=1)
  3: 0x005C [0x00] END_REQSTACK()
```

### Event 65535.7

#### Metadata

| Field        | Value    |
|--------------|----------|
| Entrypoint   | 0x005D   |
| Data Size    | 14 bytes |
| Instructions | 4        |

```
      00 01 02 03 04 05 06 07  08 09 0A 0B 0C 0D 0E 0F
      -- -- -- -- -- -- -- --  -- -- -- -- -- -- -- --
0050:                                         32 03 80               2..
0060: 1F 00 07 80 08 80 09 80  1F 01 00                 ...........     
```

#### Opcodes

```
  0: 0x005D [0x32] ExtData[1]->MainSpeed = 13* * 0.1
  1: 0x0060 [0x1F] MOVE_ENTITY: EventEntity moves to X=-9.989*, Z=318.751*, Y=0.297*
  2: 0x0068 [0x1F] MOVE_ENTITY: Update entity position (mode=1)
  3: 0x006A [0x00] END_REQSTACK()
```

### Event 65535.8

#### Metadata

| Field        | Value    |
|--------------|----------|
| Entrypoint   | 0x006B   |
| Data Size    | 14 bytes |
| Instructions | 4        |

```
      00 01 02 03 04 05 06 07  08 09 0A 0B 0C 0D 0E 0F
      -- -- -- -- -- -- -- --  -- -- -- -- -- -- -- --
0060:                                   32 03 80 1F 00             2....
0070: 04 80 05 80 06 80 1F 01  00                       .........       
```

#### Opcodes

```
  0: 0x006B [0x32] ExtData[1]->MainSpeed = 13* * 0.1
  1: 0x006E [0x1F] MOVE_ENTITY: EventEntity moves to X=-9.189*, Z=316.644*, Y=0.257*
  2: 0x0076 [0x1F] MOVE_ENTITY: Update entity position (mode=1)
  3: 0x0078 [0x00] END_REQSTACK()
```

### Event 65535.9

#### Metadata

| Field        | Value    |
|--------------|----------|
| Entrypoint   | 0x0079   |
| Data Size    | 14 bytes |
| Instructions | 4        |

```
      00 01 02 03 04 05 06 07  08 09 0A 0B 0C 0D 0E 0F
      -- -- -- -- -- -- -- --  -- -- -- -- -- -- -- --
0070:                             32 03 80 1F 00 0A 80           2......
0080: 0B 80 0C 80 1F 01 00                              .......         
```

#### Opcodes

```
  0: 0x0079 [0x32] ExtData[1]->MainSpeed = 13* * 0.1
  1: 0x007C [0x1F] MOVE_ENTITY: EventEntity moves to X=-3.359*, Z=302.813*, Y=0.858*
  2: 0x0084 [0x1F] MOVE_ENTITY: Update entity position (mode=1)
  3: 0x0086 [0x00] END_REQSTACK()
```

### Event 65535.10

#### Metadata

| Field        | Value   |
|--------------|---------|
| Entrypoint   | 0x0087  |
| Data Size    | 5 bytes |
| Instructions | 3       |

```
      00 01 02 03 04 05 06 07  08 09 0A 0B 0C 0D 0E 0F
      -- -- -- -- -- -- -- --  -- -- -- -- -- -- -- --
0080:                      1D  0D 80 23 00                     ...#.    
```

#### Opcodes

```
  0: 0x0087 [0x1D] PRINT_EVENT_MESSAGE(message_id=7965*)
    → "Perhaps it means she wishes to exchange your earring for herrrs?"
  1: 0x008A [0x23] WAIT_FOR_DIALOG_INTERACTION
  2: 0x008B [0x00] END_REQSTACK()
```

### Event 65535.11

#### Metadata

| Field        | Value   |
|--------------|---------|
| Entrypoint   | 0x008C  |
| Data Size    | 5 bytes |
| Instructions | 3       |

```
      00 01 02 03 04 05 06 07  08 09 0A 0B 0C 0D 0E 0F
      -- -- -- -- -- -- -- --  -- -- -- -- -- -- -- --
0080:                                      1D 0E 80 23              ...#
0090: 00                                                .               
```

#### Opcodes

```
  0: 0x008C [0x1D] PRINT_EVENT_MESSAGE(message_id=7967*)
    → "Semih Lafihna, Sibyl Guard of Heavens Tower in Windurst. That is your title, correct?"
  1: 0x008F [0x23] WAIT_FOR_DIALOG_INTERACTION
  2: 0x0090 [0x00] END_REQSTACK()
```

### Event 65535.12

#### Metadata

| Field        | Value   |
|--------------|---------|
| Entrypoint   | 0x0091  |
| Data Size    | 5 bytes |
| Instructions | 3       |

```
      00 01 02 03 04 05 06 07  08 09 0A 0B 0C 0D 0E 0F
      -- -- -- -- -- -- -- --  -- -- -- -- -- -- -- --
0090:    1D 0F 80 23 00                                  ...#.          
```

#### Opcodes

```
  0: 0x0091 [0x1D] PRINT_EVENT_MESSAGE(message_id=7969*)
    → "I am a Mithran Tracker. Have you not heard of us? I have trrraveled from the Mithran homeland that lies across the seas."
  1: 0x0094 [0x23] WAIT_FOR_DIALOG_INTERACTION
  2: 0x0095 [0x00] END_REQSTACK()
```

### Event 65535.13

#### Metadata

| Field        | Value   |
|--------------|---------|
| Entrypoint   | 0x0096  |
| Data Size    | 5 bytes |
| Instructions | 3       |

```
      00 01 02 03 04 05 06 07  08 09 0A 0B 0C 0D 0E 0F
      -- -- -- -- -- -- -- --  -- -- -- -- -- -- -- --
0090:                   1D 10  80 23 00                       ...#.     
```

#### Opcodes

```
  0: 0x0096 [0x1D] PRINT_EVENT_MESSAGE(message_id=7970*)
    → "I learned that a sinner was taking rrrefuge with a tribe that lived in Windurst."
  1: 0x0099 [0x23] WAIT_FOR_DIALOG_INTERACTION
  2: 0x009A [0x00] END_REQSTACK()
```

### Event 65535.14

#### Metadata

| Field        | Value    |
|--------------|----------|
| Entrypoint   | 0x009B   |
| Data Size    | 12 bytes |
| Instructions | 4        |

```
      00 01 02 03 04 05 06 07  08 09 0A 0B 0C 0D 0E 0F
      -- -- -- -- -- -- -- --  -- -- -- -- -- -- -- --
0090:                                   29 08 9F 82 06             )....
00A0: 01 01 1D 11 80 23 00                              .....#.         
```

#### Opcodes

```
  0: 0x009B [0x29] REQ_SET_WAIT(priority=0x08, entity_id=Shikaree M (ID: 17203871/0x0106829F), tag_num=0x01)
  1: 0x00A2 [0x1D] PRINT_EVENT_MESSAGE(message_id=7972*)
    → "Twenty years ago, in the time of the Great War, the tribal chieftainness of a certain region perpetrated a grrrave offense."
  2: 0x00A5 [0x23] WAIT_FOR_DIALOG_INTERACTION
  3: 0x00A6 [0x00] END_REQSTACK()
```

### Event 65535.15

#### Metadata

| Field        | Value   |
|--------------|---------|
| Entrypoint   | 0x00A7  |
| Data Size    | 5 bytes |
| Instructions | 3       |

```
      00 01 02 03 04 05 06 07  08 09 0A 0B 0C 0D 0E 0F
      -- -- -- -- -- -- -- --  -- -- -- -- -- -- -- --
00A0:                      1D  12 80 23 00                     ...#.    
```

#### Opcodes

```
  0: 0x00A7 [0x1D] PRINT_EVENT_MESSAGE(message_id=7973*)
    → "That chieftainness escaped to this land, but was hunted down by Perih Vashai."
  1: 0x00AA [0x23] WAIT_FOR_DIALOG_INTERACTION
  2: 0x00AB [0x00] END_REQSTACK()
```

### Event 65535.16

#### Metadata

| Field        | Value   |
|--------------|---------|
| Entrypoint   | 0x00AC  |
| Data Size    | 5 bytes |
| Instructions | 3       |

```
      00 01 02 03 04 05 06 07  08 09 0A 0B 0C 0D 0E 0F
      -- -- -- -- -- -- -- --  -- -- -- -- -- -- -- --
00A0:                                      1D 13 80 23              ...#
00B0: 00                                                .               
```

#### Opcodes

```
  0: 0x00AC [0x1D] PRINT_EVENT_MESSAGE(message_id=7974*)
    → "We received word that the daughter of the chieftainness perrrished along with her mother. The Mithran Tracker who traveled here twenty years ago confirmed the report."
  1: 0x00AF [0x23] WAIT_FOR_DIALOG_INTERACTION
  2: 0x00B0 [0x00] END_REQSTACK()
```

### Event 65535.17

#### Metadata

| Field        | Value    |
|--------------|----------|
| Entrypoint   | 0x00B1   |
| Data Size    | 12 bytes |
| Instructions | 4        |

```
      00 01 02 03 04 05 06 07  08 09 0A 0B 0C 0D 0E 0F
      -- -- -- -- -- -- -- --  -- -- -- -- -- -- -- --
00B0:    1D 14 80 23 29 08 9F  82 06 01 02 00            ...#).......   
```

#### Opcodes

```
  0: 0x00B1 [0x1D] PRINT_EVENT_MESSAGE(message_id=7975*)
    → "However, before the light of life left her, she confessed to her own sin: "The daughter still lives.""
  1: 0x00B4 [0x23] WAIT_FOR_DIALOG_INTERACTION
  2: 0x00B5 [0x29] REQ_SET_WAIT(priority=0x08, entity_id=Shikaree M (ID: 17203871/0x0106829F), tag_num=0x02)
  3: 0x00BC [0x00] END_REQSTACK()
```

### Event 65535.18

#### Metadata

| Field        | Value   |
|--------------|---------|
| Entrypoint   | 0x00BD  |
| Data Size    | 5 bytes |
| Instructions | 3       |

```
      00 01 02 03 04 05 06 07  08 09 0A 0B 0C 0D 0E 0F
      -- -- -- -- -- -- -- --  -- -- -- -- -- -- -- --
00B0:                                         1D 15 80               ...
00C0: 23 00                                             #.              
```

#### Opcodes

```
  0: 0x00BD [0x1D] PRINT_EVENT_MESSAGE(message_id=7976*)
    → "And so I have come. I will seek out the daughter of the chieftainness and make her atone for the sins of her mother."
  1: 0x00C0 [0x23] WAIT_FOR_DIALOG_INTERACTION
  2: 0x00C1 [0x00] END_REQSTACK()
```

### Event 65535.19

#### Metadata

| Field        | Value   |
|--------------|---------|
| Entrypoint   | 0x00C2  |
| Data Size    | 5 bytes |
| Instructions | 3       |

```
      00 01 02 03 04 05 06 07  08 09 0A 0B 0C 0D 0E 0F
      -- -- -- -- -- -- -- --  -- -- -- -- -- -- -- --
00C0:       1D 16 80 23 00                                ...#.         
```

#### Opcodes

```
  0: 0x00C2 [0x1D] PRINT_EVENT_MESSAGE(message_id=7979*)
    → "Although all the other orphans of the war were sent to their rrrespective homelands, only you few were taken in by a different people. Was this done to evade the Mithran Trackers, perrrhaps?"
  1: 0x00C5 [0x23] WAIT_FOR_DIALOG_INTERACTION
  2: 0x00C6 [0x00] END_REQSTACK()
```

### Event 65535.20

#### Metadata

| Field        | Value    |
|--------------|----------|
| Entrypoint   | 0x00C7   |
| Data Size    | 19 bytes |
| Instructions | 5        |

```
      00 01 02 03 04 05 06 07  08 09 0A 0B 0C 0D 0E 0F
      -- -- -- -- -- -- -- --  -- -- -- -- -- -- -- --
00C0:                      29  08 9F 82 06 01 01 1D 17         )........
00D0: 80 23 29 08 9F 82 06 01  02 00                    .#).......      
```

#### Opcodes

```
  0: 0x00C7 [0x29] REQ_SET_WAIT(priority=0x08, entity_id=Shikaree M (ID: 17203871/0x0106829F), tag_num=0x01)
  1: 0x00CE [0x1D] PRINT_EVENT_MESSAGE(message_id=7980*)
    → "And out of those orphans who went to live in Heavens Tower, you were the only one to have no rrrecord of her parents..."
  2: 0x00D1 [0x23] WAIT_FOR_DIALOG_INTERACTION
  3: 0x00D2 [0x29] REQ_SET_WAIT(priority=0x08, entity_id=Shikaree M (ID: 17203871/0x0106829F), tag_num=0x02)
  4: 0x00D9 [0x00] END_REQSTACK()
```

### Event 65535.21

#### Metadata

| Field        | Value    |
|--------------|----------|
| Entrypoint   | 0x00DA   |
| Data Size    | 21 bytes |
| Instructions | 7        |

```
      00 01 02 03 04 05 06 07  08 09 0A 0B 0C 0D 0E 0F
      -- -- -- -- -- -- -- --  -- -- -- -- -- -- -- --
00D0:                                1D 18 80 23 6E F8            ...#n.
00E0: FF FF 7F 19 80 99 F8 FF  FF 7F 1D 1A 80 23 00     .............#. 
```

#### Opcodes

```
  0: 0x00DA [0x1D] PRINT_EVENT_MESSAGE(message_id=7981*)
    → "A sin is a sin, even if you have no memory of the fact. The child must pay for the sins of the mother when the mother can no longer make amends."
  1: 0x00DD [0x23] WAIT_FOR_DIALOG_INTERACTION
  2: 0x00DE [0x6E] EventEntity uses emote 6*
  3: 0x00E5 [0x99] Wait for EventEntity animation to complete
  4: 0x00EA [0x1D] PRINT_EVENT_MESSAGE(message_id=7982*)
    → "Trying to switch the earring will do you no good. That is not how I will know you as the child of the sinner."
  5: 0x00ED [0x23] WAIT_FOR_DIALOG_INTERACTION
  6: 0x00EE [0x00] END_REQSTACK()
```

### Event 65535.22

#### Metadata

| Field        | Value   |
|--------------|---------|
| Entrypoint   | 0x00EF  |
| Data Size    | 5 bytes |
| Instructions | 3       |

```
      00 01 02 03 04 05 06 07  08 09 0A 0B 0C 0D 0E 0F
      -- -- -- -- -- -- -- --  -- -- -- -- -- -- -- --
00E0:                                               1D                 .
00F0: 1B 80 23 00                                       ..#.            
```

#### Opcodes

```
  0: 0x00EF [0x1D] PRINT_EVENT_MESSAGE(message_id=7983*)
    → "Let me tell you a secret. A sinner carries the scent of sin. It is a scent that only these king's tear moths can detect. A scent that will not fade and that you cannot escape. A scent that will stay with you forrrever."
  1: 0x00F2 [0x23] WAIT_FOR_DIALOG_INTERACTION
  2: 0x00F3 [0x00] END_REQSTACK()
```

### Event 65535.23

#### Metadata

| Field        | Value   |
|--------------|---------|
| Entrypoint   | 0x00F4  |
| Data Size    | 5 bytes |
| Instructions | 3       |

```
      00 01 02 03 04 05 06 07  08 09 0A 0B 0C 0D 0E 0F
      -- -- -- -- -- -- -- --  -- -- -- -- -- -- -- --
00F0:             1D 1C 80 23  00                           ...#.       
```

#### Opcodes

```
  0: 0x00F4 [0x1D] PRINT_EVENT_MESSAGE(message_id=7985*)
    → "...!? You don't carry the scent...?"
  1: 0x00F7 [0x23] WAIT_FOR_DIALOG_INTERACTION
  2: 0x00F8 [0x00] END_REQSTACK()
```

### Event 65535.24

#### Metadata

| Field        | Value   |
|--------------|---------|
| Entrypoint   | 0x00F9  |
| Data Size    | 5 bytes |
| Instructions | 3       |

```
      00 01 02 03 04 05 06 07  08 09 0A 0B 0C 0D 0E 0F
      -- -- -- -- -- -- -- --  -- -- -- -- -- -- -- --
00F0:                             1D 1D 80 23 00                 ...#.  
```

#### Opcodes

```
  0: 0x00F9 [0x1D] PRINT_EVENT_MESSAGE(message_id=7986*)
    → "...... I must apologize. I seem to have been mistaken."
  1: 0x00FC [0x23] WAIT_FOR_DIALOG_INTERACTION
  2: 0x00FD [0x00] END_REQSTACK()
```

### Event 65535.25

#### Metadata

| Field        | Value   |
|--------------|---------|
| Entrypoint   | 0x00FE  |
| Data Size    | 5 bytes |
| Instructions | 3       |

```
      00 01 02 03 04 05 06 07  08 09 0A 0B 0C 0D 0E 0F
      -- -- -- -- -- -- -- --  -- -- -- -- -- -- -- --
00F0:                                            1D 1E                ..
0100: 80 23 00                                          .#.             
```

#### Opcodes

```
  0: 0x00FE [0x1D] PRINT_EVENT_MESSAGE(message_id=7988*)
    → "That is no longer my concern. Farewell, Semih Lafihna."
  1: 0x0101 [0x23] WAIT_FOR_DIALOG_INTERACTION
  2: 0x0102 [0x00] END_REQSTACK()
```
