# 17203945 - Ardrick

## Common Data

| Field            | Value                   |
|------------------|-------------------------|
| Zone             | Jugner Forest (ID: 104) |
| Block Size       | 1972 bytes              |
| Total Events     | 3                       |
| References Count | 92                      |

## List of Events

| Event ID              | Entrypoint   |   Size |   Instructions |
|-----------------------|--------------|--------|----------------|
| [65535](#event-65535) | 0x0000       |      1 |              1 |
| [61](#event-61)       | 0x0001       |    825 |            192 |
| [62](#event-62)       | 0x033A       |    747 |             98 |

## DAT References (imed_data)

|   Index | Hex Value   |   Dec Value |
|---------|-------------|-------------|
|       0 | 0x0000      |           0 |
|       1 | 0x03E8      |        1000 |
|       2 | 0x4E20      |       20000 |
|       3 | 0x32E3      |       13027 |
|       4 | 0x32E4      |       13028 |
|       5 | 0x0F0D      |        3853 |
|       6 | 0x32E5      |       13029 |
|       7 | 0x330F      |       13071 |
|       8 | 0x3311      |       13073 |
|       9 | 0x3312      |       13074 |
|      10 | 0x0001      |           1 |
|      11 | 0x0063      |          99 |
|      12 | 0x3313      |       13075 |
|      13 | 0x3314      |       13076 |
|      14 | 0x000F      |          15 |
|      15 | 0x0010      |          16 |
|      16 | 0x001F      |          31 |
|      17 | 0x3315      |       13077 |
|      18 | 0x3319      |       13081 |
|      19 | 0x3316      |       13078 |
|      20 | 0x32FB      |       13051 |
|      21 | 0x32FC      |       13052 |
|      22 | 0x32FD      |       13053 |
|      23 | 0x32FE      |       13054 |
|      24 | 0x32FF      |       13055 |
|      25 | 0x3300      |       13056 |
|      26 | 0x3301      |       13057 |
|      27 | 0x0603      |        1539 |
|      28 | 0x070D      |        1805 |
|      29 | 0x3302      |       13058 |
|      30 | 0x3303      |       13059 |
|      31 | 0x3304      |       13060 |
|      32 | 0x3305      |       13061 |
|      33 | 0x3306      |       13062 |
|      34 | 0x3307      |       13063 |
|      35 | 0x0005      |           5 |
|      36 | 0x3308      |       13064 |
|      37 | 0x3309      |       13065 |
|      38 | 0x330A      |       13066 |
|      39 | 0x330B      |       13067 |
|      40 | 0x330C      |       13068 |
|      41 | 0x330D      |       13069 |
|      42 | 0x0002      |           2 |
|      43 | 0x2E5A      |       11866 |
|      44 | 0x32E6      |       13030 |
|      45 | 0x32E7      |       13031 |
|      46 | 0x32E8      |       13032 |
|      47 | 0x32E9      |       13033 |
|      48 | 0x32EA      |       13034 |
|      49 | 0x32EB      |       13035 |
|      50 | 0x32EC      |       13036 |
|      51 | 0x32ED      |       13037 |
|      52 | 0x32EE      |       13038 |
|      53 | 0x32EF      |       13039 |
|      54 | 0x32F0      |       13040 |
|      55 | 0x32F1      |       13041 |
|      56 | 0x32F2      |       13042 |
|      57 | 0x32F3      |       13043 |
|      58 | 0x32F4      |       13044 |
|      59 | 0x32F5      |       13045 |
|      60 | 0x32F6      |       13046 |
|      61 | 0x32F7      |       13047 |
|      62 | 0x32F8      |       13048 |
|      63 | 0x32F9      |       13049 |
|      64 | 0x32FA      |       13050 |
|      65 | 0x0003      |           3 |
|      66 | 0x40000000  |  1073741824 |
|      67 | 0x331A      |       13082 |
|      68 | 0x331B      |       13083 |
|      69 | 0x2E50      |       11856 |
|      70 | 0x00BE      |         190 |
|      71 | 0x0078      |         120 |
|      72 | 0x003C      |          60 |
|      73 | 0x2E51      |       11857 |
|      74 | 0x00C1      |         193 |
|      75 | 0x2E4F      |       11855 |
|      76 | 0x00BD      |         189 |
|      77 | 0x2E5C      |       11868 |
|      78 | 0x00C3      |         195 |
|      79 | 0x00BF      |         191 |
|      80 | 0x2E5B      |       11867 |
|      81 | 0x00C2      |         194 |
|      82 | 0x4AC9      |       19145 |
|      83 | 0x4AE6      |       19174 |
|      84 | 0x4AC8      |       19144 |
|      85 | 0x00C0      |         192 |
|      86 | 0x49D8      |       18904 |
|      87 | 0x4819      |       18457 |
|      88 | 0x00BC      |         188 |
|      89 | 0x4D52      |       19794 |
|      90 | 0x486E      |       18542 |
|      91 | 0x331C      |       13084 |

## String References

- **13029**: What will you do? [Purchase $0./Ask about a secret weapon./Inquire about pulse panoplia./Walk away. Far away.]
- **13073**: How many would you like?
- **13074**: Enter a number between 0 and 99.
- **13076**: Pay the $1 gil? [Yes./No.]

## Events

### Event 65535

#### Metadata

| Field        | Value   |
|--------------|---------|
| Entrypoint   | 0x0000  |
| Data Size    | 1 bytes |
| Instructions | 1       |

```
      00 01 02 03 04 05 06 07  08 09 0A 0B 0C 0D 0E 0F
      -- -- -- -- -- -- -- --  -- -- -- -- -- -- -- --
0000: 00                                                .               
```

#### Opcodes

```
  0: 0x0000 [0x00] END_REQSTACK()
```

### Event 61

#### Metadata

| Field        | Value     |
|--------------|-----------|
| Entrypoint   | 0x0001    |
| Data Size    | 825 bytes |
| Instructions | 192       |

```
      00 01 02 03 04 05 06 07  08 09 0A 0B 0C 0D 0E 0F
      -- -- -- -- -- -- -- --  -- -- -- -- -- -- -- --
0000:    06 02 00 06 03 00 06  04 00 06 05 00 06 06 00   ...............
0010: 06 07 00 06 08 00 06 09  00 06 0B 00 06 0A 00 03  ................
0020: 08 00 02 10 03 09 00 03  10 03 0C 00 04 10 02 0C  ................
0030: 00 00 80 02 3E 00 03 0D  00 01 80 01 43 00 03 0D  ....>.......C...
0040: 00 02 80 4A F0 FF FF 7F  F8 FF FF 7F 4A F8 FF FF  ...J........J...
0050: 7F F0 FF FF 7F 6F 76 F8  FF FF 7F 2B E9 82 06 01  .....ov....+....
0060: 03 80 23 2B E9 82 06 01  04 80 23 05 03 00 02 03  ..#+......#.....
0070: 00 00 80 02 38 03 03 02  10 05 80 24 06 80 00 80  ....8......$....
0080: 00 80 25 02 00 10 00 80  00 7C 01 02 09 00 00 80  ..%......|......
0090: 00 71 01 05 05 00 02 05  00 00 80 02 6E 01 03 02  .q..........n...
00A0: 10 05 80 2B E9 82 06 01  07 80 23 03 0E 00 00 80  ...+......#.....
00B0: 06 0A 00 48 08 80 23 48  09 80 23 71 10 0A 80 71  ...H..#H..#q...q
00C0: 11 0E 00 02 0E 00 00 80  01 5B 01 02 0E 00 0B 80  .........[......
00D0: 05 48 01 03 02 10 0D 00  14 02 10 0E 00 02 08 00  .H..............
00E0: 02 10 04 3A 01 03 00 00  00 80 03 02 10 0E 00 03  ...:............
00F0: 03 10 0E 00 14 03 10 0D  00 2B E9 82 06 01 0C 80  .........+......
0100: 23 24 0D 80 0A 80 00 80  25 02 00 10 00 80 00 2C  #$......%......,
0110: 01 40 00 80 0E 80 01 10  0A 80 40 0F 80 10 80 01  .@........@.....
0120: 10 0E 00 06 03 00 06 05  00 01 37 01 02 00 10 0A  ..........7.....
0130: 80 00 37 01 01 37 01 01  45 01 2B E9 82 06 01 11  ..7..7..E.+.....
0140: 80 23 06 05 00 01 58 01  03 02 10 05 80 2B E9 82  .#....X......+..
0150: 06 01 12 80 23 06 05 00  01 6B 01 03 02 10 05 80  ....#....k......
0160: 2B E9 82 06 01 12 80 23  06 05 00 01 96 00 01 79  +......#.......y
0170: 01 2B E9 82 06 01 13 80  23 01 35 03 02 00 10 0A  .+......#.5.....
0180: 80 00 60 02 2B E9 82 06  01 14 80 23 2B E9 82 06  ..`.+......#+...
0190: 01 15 80 23 2B E9 82 06  01 16 80 23 2B E9 82 06  ...#+......#+...
01A0: 01 17 80 23 2B E9 82 06  01 18 80 23 2B E9 82 06  ...#+......#+...
01B0: 01 19 80 23 03 02 10 05  80 2B E9 82 06 01 1A 80  ...#.....+......
01C0: 23 03 02 10 05 80 03 03  10 1B 80 03 04 10 1C 80  #...............
01D0: 2B E9 82 06 01 1D 80 23  03 02 10 1C 80 2B E9 82  +......#.....+..
01E0: 06 01 1E 80 23 03 02 10  1C 80 2B E9 82 06 01 1F  ....#.....+.....
01F0: 80 23 2B E9 82 06 01 20  80 23 2B E9 82 06 01 21  .#+.... .#+....!
0200: 80 23 2B E9 82 06 01 22  80 23 03 02 10 1C 80 03  .#+....".#......
0210: 03 10 23 80 2B E9 82 06  01 24 80 23 03 02 10 23  ..#.+....$.#...#
0220: 80 2B E9 82 06 01 25 80  23 2B E9 82 06 01 26 80  .+....%.#+....&.
0230: 23 2B E9 82 06 01 27 80  23 03 02 10 05 80 2B E9  #+....'.#.....+.
0240: 82 06 01 28 80 23 03 02  10 05 80 03 03 10 0D 00  ...(.#..........
0250: 2B E9 82 06 01 29 80 23  03 02 10 05 80 01 35 03  +....).#......5.
0260: 02 00 10 2A 80 00 22 03  03 02 10 2B 80 2B E9 82  ...*.."....+.+..
0270: 06 01 2C 80 23 2B E9 82  06 01 2D 80 23 2B E9 82  ..,.#+....-.#+..
0280: 06 01 2E 80 23 2B E9 82  06 01 2F 80 23 2B E9 82  ....#+..../.#+..
0290: 06 01 30 80 23 2B E9 82  06 01 31 80 23 2B E9 82  ..0.#+....1.#+..
02A0: 06 01 32 80 23 2B E9 82  06 01 33 80 23 2B E9 82  ..2.#+....3.#+..
02B0: 06 01 34 80 23 2B E9 82  06 01 35 80 23 2B E9 82  ..4.#+....5.#+..
02C0: 06 01 36 80 23 2B E9 82  06 01 37 80 23 2B E9 82  ..6.#+....7.#+..
02D0: 06 01 38 80 23 2B E9 82  06 01 39 80 23 2B E9 82  ..8.#+....9.#+..
02E0: 06 01 3A 80 23 2B E9 82  06 01 3B 80 23 2B E9 82  ..:.#+....;.#+..
02F0: 06 01 3C 80 23 03 02 10  23 80 2B E9 82 06 01 3D  ..<.#...#.+....=
0300: 80 23 2B E9 82 06 01 3E  80 23 03 02 10 23 80 2B  .#+....>.#...#.+
0310: E9 82 06 01 3F 80 23 2B  E9 82 06 01 40 80 23 01  ....?.#+....@.#.
0320: 35 03 02 00 10 41 80 00  35 03 06 03 00 03 01 10  5....A..5.......
0330: 42 80 01 35 03 01 6E 00  21 00                    B..5..n.!.      
```

#### Opcodes

```
  0: 0x0001 [0x06] ExtData[1]->WorkLocal[2] = 0
  1: 0x0004 [0x06] ExtData[1]->WorkLocal[3] = 0
  2: 0x0007 [0x06] ExtData[1]->WorkLocal[4] = 0
  3: 0x000A [0x06] ExtData[1]->WorkLocal[5] = 0
  4: 0x000D [0x06] ExtData[1]->WorkLocal[6] = 0
  5: 0x0010 [0x06] ExtData[1]->WorkLocal[7] = 0
  6: 0x0013 [0x06] ExtData[1]->WorkLocal[8] = 0
  7: 0x0016 [0x06] ExtData[1]->WorkLocal[9] = 0
  8: 0x0019 [0x06] ExtData[1]->WorkLocal[11] = 0
  9: 0x001C [0x06] ExtData[1]->WorkLocal[10] = 0
 10: 0x001F [0x03] ExtData[1]->WorkLocal[8] = Work_Zone[2]
 11: 0x0024 [0x03] ExtData[1]->WorkLocal[9] = Work_Zone[3]
 12: 0x0029 [0x03] ExtData[1]->WorkLocal[12] = Work_Zone[4]
 13: 0x002E [0x02] IF !(ExtData[1]->WorkLocal[12] <= 0*) GOTO 0x003E
 14: 0x0036 [0x03] ExtData[1]->WorkLocal[13] = 1000*
 15: 0x003B [0x01] GOTO 0x0043
 16: 0x003E [0x03] ExtData[1]->WorkLocal[13] = 20000*

SUBROUTINE_0043:
 17: 0x0043 [0x4A] LocalPlayer looks at EventEntity
 18: 0x004C [0x4A] EventEntity looks at LocalPlayer
 19: 0x0055 [0x6F] WAIT_FRAME_DELAY: Yield until WaitTime reaches zero
 20: 0x0056 [0x76] CHECK_ENTITY_RENDER_FLAGS: Wait until EventEntity Render.Flags0 and Render.Flags3 conditions are met
 21: 0x005B [0x2B] Ardrick (ID: 17203945/0x010682E9) [13027*]:
    → "Oho, I can tell from your behavioral patterns and the accoutrements with which you adorn yourself that you're a [man/woman] of the 'Watch."
 22: 0x0062 [0x23] WAIT_FOR_DIALOG_INTERACTION
 23: 0x0063 [0x2B] Ardrick (ID: 17203945/0x010682E9) [13028*]:
    → "How about I let you in on some trade secrets? All I ask is that you refrain from sharing them with every Tomasa, Dixon, and Harith."
 24: 0x006A [0x23] WAIT_FOR_DIALOG_INTERACTION
 25: 0x006B [0x05] ExtData[1]->WorkLocal[3] = 1

SUBROUTINE_006E:
 26: 0x006E [0x02] IF !(ExtData[1]->WorkLocal[3] <= 0*) GOTO 0x0338
 27: 0x0076 [0x03] Work_Zone[2] = 3853*
 28: 0x007B [0x24] CREATE_DIALOG(message_id=13029*, default_option=0*, option_flags=0*)
    → "What will you do? [Purchase $0./Ask about a secret weapon./Inquire about pulse panoplia./Walk away. Far away.]"
 29: 0x0082 [0x25] WAIT_DIALOG_SELECT()
 30: 0x0083 [0x02] IF !(Work_Zone[0] == 0*) GOTO 0x017C
 31: 0x008B [0x02] IF !(ExtData[1]->WorkLocal[9] == 0*) GOTO 0x0171
 32: 0x0093 [0x05] ExtData[1]->WorkLocal[5] = 1

SUBROUTINE_0096:
 33: 0x0096 [0x02] IF !(ExtData[1]->WorkLocal[5] <= 0*) GOTO 0x016E
 34: 0x009E [0x03] Work_Zone[2] = 3853*
 35: 0x00A3 [0x2B] Ardrick (ID: 17203945/0x010682E9) [13071*]:
    → "How many $0 do you wish to procure?"
 36: 0x00AA [0x23] WAIT_FOR_DIALOG_INTERACTION
 37: 0x00AB [0x03] ExtData[1]->WorkLocal[14] = 0*
 38: 0x00B0 [0x06] ExtData[1]->WorkLocal[10] = 0
 39: 0x00B3 [0x48] [System] [13073*]:
    → "How many would you like?"
 40: 0x00B6 [0x23] WAIT_FOR_DIALOG_INTERACTION
 41: 0x00B7 [0x48] [System] [13074*]:
    → "Enter a number between 0 and 99."
 42: 0x00BA [0x23] WAIT_FOR_DIALOG_INTERACTION
 43: 0x00BB [0x71] USER_INPUT_HANDLER: Open numerical input dialog (work=1*)
 44: 0x00BF [0x71] USER_INPUT_HANDLER: Process numerical input A (work=ExtData[1]->WorkLocal[14])
 45: 0x00C3 [0x02] IF !(ExtData[1]->WorkLocal[14] == 0*) GOTO 0x015B
 46: 0x00CB [0x02] IF !(ExtData[1]->WorkLocal[14] > 99*) GOTO 0x0148
 47: 0x00D3 [0x03] Work_Zone[2] = ExtData[1]->WorkLocal[13]
 48: 0x00D8 [0x14] Work_Zone[2] *= ExtData[1]->WorkLocal[14]
 49: 0x00DD [0x02] IF !(ExtData[1]->WorkLocal[8] < Work_Zone[2]) GOTO 0x013A
 50: 0x00E5 [0x03] ExtData[1]->WorkLocal[0] = 0*
 51: 0x00EA [0x03] Work_Zone[2] = ExtData[1]->WorkLocal[14]
 52: 0x00EF [0x03] Work_Zone[3] = ExtData[1]->WorkLocal[14]
 53: 0x00F4 [0x14] Work_Zone[3] *= ExtData[1]->WorkLocal[13]
 54: 0x00F9 [0x2B] Ardrick (ID: 17203945/0x010682E9) [13075*]:
    → "You wanted $0, correct? That'll be $1 gil, for simpletons who don't pay attention."
 55: 0x0100 [0x23] WAIT_FOR_DIALOG_INTERACTION
 56: 0x0101 [0x24] CREATE_DIALOG(message_id=13076*, default_option=1*, option_flags=0*)
    → "Pay the $1 gil? [Yes./No.]"
 57: 0x0108 [0x25] WAIT_DIALOG_SELECT()
 58: 0x0109 [0x02] IF !(Work_Zone[0] == 0*) GOTO 0x012C
 59: 0x0111 [0x40] SET_BIT_WORK_RANGE(start_bit=0*, end_bit=15*, target=Work_Zone[1], source=1*)
 60: 0x011A [0x40] SET_BIT_WORK_RANGE(start_bit=16*, end_bit=31*, target=Work_Zone[1], source=ExtData[1]->WorkLocal[14])
 61: 0x0123 [0x06] ExtData[1]->WorkLocal[3] = 0
 62: 0x0126 [0x06] ExtData[1]->WorkLocal[5] = 0
 63: 0x0129 [0x01] GOTO 0x0137
 64: 0x012C [0x02] IF !(Work_Zone[0] == 1*) GOTO 0x0137
 65: 0x0134 [0x01] GOTO 0x0137

SUBROUTINE_0137:
 66: 0x0137 [0x01] GOTO 0x0145
 67: 0x013A [0x2B] Ardrick (ID: 17203945/0x010682E9) [13077*]:
    → "...Do you even know how to count? Come back when you have sufficient gil."
 68: 0x0141 [0x23] WAIT_FOR_DIALOG_INTERACTION
 69: 0x0142 [0x06] ExtData[1]->WorkLocal[5] = 0

SUBROUTINE_0145:
 70: 0x0145 [0x01] GOTO 0x0158
 71: 0x0148 [0x03] Work_Zone[2] = 3853*
 72: 0x014D [0x2B] Ardrick (ID: 17203945/0x010682E9) [13081*]:
    → "You can complete your operations without the aid of our $0, you say? It grieves me to know that our creations will go unutilized, but I applaud the caliber of your character."
 73: 0x0154 [0x23] WAIT_FOR_DIALOG_INTERACTION
 74: 0x0155 [0x06] ExtData[1]->WorkLocal[5] = 0

SUBROUTINE_0158:
 75: 0x0158 [0x01] GOTO 0x016B
 76: 0x015B [0x03] Work_Zone[2] = 3853*
 77: 0x0160 [0x2B] Ardrick (ID: 17203945/0x010682E9) [13081*]:
    → "You can complete your operations without the aid of our $0, you say? It grieves me to know that our creations will go unutilized, but I applaud the caliber of your character."
 78: 0x0167 [0x23] WAIT_FOR_DIALOG_INTERACTION
 79: 0x0168 [0x06] ExtData[1]->WorkLocal[5] = 0

SUBROUTINE_016B:
 80: 0x016B [0x01] GOTO 0x0096
 81: 0x016E [0x01] GOTO 0x0179
 82: 0x0171 [0x2B] Ardrick (ID: 17203945/0x010682E9) [13078*]:
    → "Why don't you people understand that genius can't be rushed!? If you truly want some $0, you'll have to wait until the next batch is manufactured."
 83: 0x0178 [0x23] WAIT_FOR_DIALOG_INTERACTION

SUBROUTINE_0179:
 84: 0x0179 [0x01] GOTO 0x0335
 85: 0x017C [0x02] IF !(Work_Zone[0] == 1*) GOTO 0x0260
 86: 0x0184 [0x2B] Ardrick (ID: 17203945/0x010682E9) [13051*]:
    → "You truly want to know about our latest innovation? I suppose it is technology's job to assist physically challenged specimens like you and turn them into powerful pugilists."
 87: 0x018B [0x23] WAIT_FOR_DIALOG_INTERACTION
 88: 0x018C [0x2B] Ardrick (ID: 17203945/0x010682E9) [13052*]:
    → "Perhaps it would be wrong to place an inordinate amount of blame on you, though, seeing as these fiends hail from another dimension."
 89: 0x0193 [0x23] WAIT_FOR_DIALOG_INTERACTION
 90: 0x0194 [0x2B] Ardrick (ID: 17203945/0x010682E9) [13053*]:
    → "As you probably don't recall, there are five distinct chronospatial shifts that factor into Voidwalker combat that we term "phases." If we are to defeat these extra-planar perambulators, we must utilize the full spectrum of these rifts by--"
 91: 0x019B [0x23] WAIT_FOR_DIALOG_INTERACTION
 92: 0x019C [0x2B] Ardrick (ID: 17203945/0x010682E9) [13054*]:
    → "Yes, aligning with your foe. So it would seem you are not completely illiterate on this subject. Providing remedial courses to cranially challenged individuals is malms beneath me, however. If you need a refresher on the science behind alignment, go harass a Voidwatch Officer."
 93: 0x01A3 [0x23] WAIT_FOR_DIALOG_INTERACTION
 94: 0x01A4 [0x2B] Ardrick (ID: 17203945/0x010682E9) [13055*]:
    → "All I'll say on this topic is that alignment is analogous to a cross-dimensional bridge."
 95: 0x01AB [0x23] WAIT_FOR_DIALOG_INTERACTION
 96: 0x01AC [0x2B] Ardrick (ID: 17203945/0x010682E9) [13056*]:
    → "What a fitting analogy, if I do say so myself. These monstrosities start out as massive crevasses separating you and your contingent from the sweet nectar of victory, but once the bridge is completed, the path to victory is vastly more accessible."
 97: 0x01B3 [0x23] WAIT_FOR_DIALOG_INTERACTION
 98: 0x01B4 [0x03] Work_Zone[2] = 3853*
 99: 0x01B9 [0x2B] Ardrick (ID: 17203945/0x010682E9) [13057*]:
    → "And what, pray tell, is the name of the extraordinary artifact that lays the foundation for this metaphorical bridge to triumph? Why, none other than the $0!"
100: 0x01C0 [0x23] WAIT_FOR_DIALOG_INTERACTION
101: 0x01C1 [0x03] Work_Zone[2] = 3853*
102: 0x01C6 [0x03] Work_Zone[3] = 1539*
103: 0x01CB [0x03] Work_Zone[4] = 1805*
104: 0x01D0 [0x2B] Ardrick (ID: 17203945/0x010682E9) [13058*]:
    → "A splendid name for a splendid invention, wouldn't you agree? Simply place $0 within the proximity of a planar rift, and gaze in awe at the resulting $3, which should make the power of your $3 surge exponentially!"
105: 0x01D7 [0x23] WAIT_FOR_DIALOG_INTERACTION
106: 0x01D8 [0x03] Work_Zone[2] = 1805*
107: 0x01DD [0x2B] Ardrick (ID: 17203945/0x010682E9) [13059*]:
    → "Furthermore, deploying $5 at the beginning of battle will precipitate shifts in phase alignment."
108: 0x01E4 [0x23] WAIT_FOR_DIALOG_INTERACTION
109: 0x01E5 [0x03] Work_Zone[2] = 1805*
110: 0x01EA [0x2B] Ardrick (ID: 17203945/0x010682E9) [13060*]:
    → "These special shifts then significantly alter the alignment's effects, thus inhibiting the most deadly aspects of your Voidwalker enemy."
111: 0x01F1 [0x23] WAIT_FOR_DIALOG_INTERACTION
112: 0x01F2 [0x2B] Ardrick (ID: 17203945/0x010682E9) [13061*]:
    → "I doubt someone outside of avant-garde research circles such as you can fully conceptualize the plethora of mechanisms that comprise this sublime process, but perhaps a more perspicuous way to state the consequences would be "The baddies get weaker.""
113: 0x01F9 [0x23] WAIT_FOR_DIALOG_INTERACTION
114: 0x01FA [0x2B] Ardrick (ID: 17203945/0x010682E9) [13062*]:
    → "Keep in mind, however, you must manually catalyze any alignment shifts you wish to exploit."
115: 0x0201 [0x23] WAIT_FOR_DIALOG_INTERACTION
116: 0x0202 [0x2B] Ardrick (ID: 17203945/0x010682E9) [13063*]:
    → "One of these alone will not make a significant difference in battle. Don't start complaining to me, though, for our efforts to eliminate this defect are already well underway."
117: 0x0209 [0x23] WAIT_FOR_DIALOG_INTERACTION
118: 0x020A [0x03] Work_Zone[2] = 1805*
119: 0x020F [0x03] Work_Zone[3] = 5*
120: 0x0214 [0x2B] Ardrick (ID: 17203945/0x010682E9) [13064*]:
    → "At any rate, while one $3 may be insufficient, adventurers are allowed to carry up to $1 at a time."
121: 0x021B [0x23] WAIT_FOR_DIALOG_INTERACTION
122: 0x021C [0x03] Work_Zone[2] = 5*
123: 0x0221 [0x2B] Ardrick (ID: 17203945/0x010682E9) [13065*]:
    → "Why that few!? Anyone with even the most rudimentary understanding of chronospatial alignment could deduce that an excess of these objects could destabilize nearby planar rifts and cause irreparable damage to the surrounding area! Besides, no one would need more than $1 per operation anyway."
124: 0x0228 [0x23] WAIT_FOR_DIALOG_INTERACTION
125: 0x0229 [0x2B] Ardrick (ID: 17203945/0x010682E9) [13066*]:
    → "Oh, and don't think that I'll just be giving these away! You're lucky you're not being charged for the privilege of listening to my scholarly discourse!"
126: 0x0230 [0x23] WAIT_FOR_DIALOG_INTERACTION
127: 0x0231 [0x2B] Ardrick (ID: 17203945/0x010682E9) [13067*]:
    → "I may be loath to admit it, but we desperately need the money to continue researching and developing these artifacts. There still is an alarming dearth of data on the items' negative side effects--vis-a-vis planar rifts--that must still be addressed."
128: 0x0238 [0x23] WAIT_FOR_DIALOG_INTERACTION
129: 0x0239 [0x03] Work_Zone[2] = 3853*
130: 0x023E [0x2B] Ardrick (ID: 17203945/0x010682E9) [13068*]:
    → "There you have it; our secret weapon. I suggest relying on it as little as possible, though, in case the Voidwalkers ever develop an immunity to it."
131: 0x0245 [0x23] WAIT_FOR_DIALOG_INTERACTION
132: 0x0246 [0x03] Work_Zone[2] = 3853*
133: 0x024B [0x03] Work_Zone[3] = ExtData[1]->WorkLocal[13]
134: 0x0250 [0x2B] Ardrick (ID: 17203945/0x010682E9) [13069*]:
    → "As for the pecuniary particulars, I'd say $1 gil for one $0 is a fair price."
135: 0x0257 [0x23] WAIT_FOR_DIALOG_INTERACTION
136: 0x0258 [0x03] Work_Zone[2] = 3853*
137: 0x025D [0x01] GOTO 0x0335
138: 0x0260 [0x02] IF !(Work_Zone[0] == 2*) GOTO 0x0322
139: 0x0268 [0x03] Work_Zone[2] = 11866*
140: 0x026D [0x2B] Ardrick (ID: 17203945/0x010682E9) [13030*]:
    → "Pulse Panoplia is the term our researchers have bestowed upon a specific set of equipment that emits an entrancing luminescence, such as $0."
141: 0x0274 [0x23] WAIT_FOR_DIALOG_INTERACTION
142: 0x0275 [0x2B] Ardrick (ID: 17203945/0x010682E9) [13031*]:
    → "Our brightest minds in the experimental field of Opticogradiology have succeeded in stabilizing the particles that constitute the source of this enigmatic light, a phenomenon which is often referred to as a "pulse.""
143: 0x027C [0x23] WAIT_FOR_DIALOG_INTERACTION
144: 0x027D [0x2B] Ardrick (ID: 17203945/0x010682E9) [13032*]:
    → "Therefore, as you may have inferred, pulse panoplia are the visual structures yielded by such procedures. I use the phrase "visual structures" here because these pulses do not technically possess a singular, concrete form."
145: 0x0284 [0x23] WAIT_FOR_DIALOG_INTERACTION
146: 0x0285 [0x2B] Ardrick (ID: 17203945/0x010682E9) [13033*]:
    → "The details of these pulses are highly classified, and I am not at liberty to make them privy to the rank and file. While you may not have access to all the particulars on them, you will surely encounter these particle aggregates on the field of battle."
147: 0x028C [0x23] WAIT_FOR_DIALOG_INTERACTION
148: 0x028D [0x2B] Ardrick (ID: 17203945/0x010682E9) [13034*]:
    → "Much like the legendary swords of the Far East, it is not the adventurer who chooses the pulse panoplia, but the pulse that chooses to initiate an exclusive bond with its owner. In the past, if one tried to bequeath such equipment to a comrade..."
149: 0x0294 [0x23] WAIT_FOR_DIALOG_INTERACTION
150: 0x0295 [0x2B] Ardrick (ID: 17203945/0x010682E9) [13035*]:
    → "The pulse would dissolve in an instant, leaving the recipient with naught but a feeling of dissatisfaction."
151: 0x029C [0x23] WAIT_FOR_DIALOG_INTERACTION
152: 0x029D [0x2B] Ardrick (ID: 17203945/0x010682E9) [13036*]:
    → "However, our passionate scientists have finally uncovered a method by which to permanently regulate the activity of these pulses. They worked day-in and day-out, and their lives suffered as a consequence; they forgot their families, friends, and all other obligations."
153: 0x02A4 [0x23] WAIT_FOR_DIALOG_INTERACTION
154: 0x02A5 [0x2B] Ardrick (ID: 17203945/0x010682E9) [13037*]:
    → "...But I digress."
155: 0x02AC [0x23] WAIT_FOR_DIALOG_INTERACTION
156: 0x02AD [0x2B] Ardrick (ID: 17203945/0x010682E9) [13038*]:
    → "If pulses disperse when handed to a new owner, then it follows that all one need do is regather the particles and restabilize them. The reasoning involved is quite elementary, my dear <Player>."
157: 0x02B4 [0x23] WAIT_FOR_DIALOG_INTERACTION
158: 0x02B5 [0x2B] Ardrick (ID: 17203945/0x010682E9) [13039*]:
    → ""How does one go about procuring these pulse particles," you ask? An astute question for someone of such a brutish vocation. I could lecture for hours concerning this unfathomably deep topic...but I won't."
159: 0x02BC [0x23] WAIT_FOR_DIALOG_INTERACTION
160: 0x02BD [0x2B] Ardrick (ID: 17203945/0x010682E9) [13040*]:
    → "For brevity's sake, I shall cite only the most basic facts that delineate their connection to Voidwatchers."
161: 0x02C4 [0x23] WAIT_FOR_DIALOG_INTERACTION
162: 0x02C5 [0x2B] Ardrick (ID: 17203945/0x010682E9) [13041*]:
    → "It is well documented that pulses exhibit a certain response in the presence of stratum abyssite. Thus, it stands to reason that anyone in possession of said abyssite would collect pulse particles in the form of pulse cells."
163: 0x02CC [0x23] WAIT_FOR_DIALOG_INTERACTION
164: 0x02CD [0x2B] Ardrick (ID: 17203945/0x010682E9) [13042*]:
    → "Sadly, that is neither the final nor most difficult step here. Reconstruction is the most integral aspect of the process."
165: 0x02D4 [0x23] WAIT_FOR_DIALOG_INTERACTION
166: 0x02D5 [0x2B] Ardrick (ID: 17203945/0x010682E9) [13043*]:
    → "Our studies have shown that pulse particles lose a vast amount of their energy as heat and other byproducts of dispersion, meaning it is empirically impossible to restore a pulse to its former level of effectiveness."
167: 0x02DC [0x23] WAIT_FOR_DIALOG_INTERACTION
168: 0x02DD [0x2B] Ardrick (ID: 17203945/0x010682E9) [13044*]:
    → "By the by, I may have promised a brief explanation, but those are hard to come by when such vast stores of knowledge are involved. Returning to the matter at hand..."
169: 0x02E4 [0x23] WAIT_FOR_DIALOG_INTERACTION
170: 0x02E5 [0x2B] Ardrick (ID: 17203945/0x010682E9) [13045*]:
    → "The essence of what I'm trying to convey is that a one-to-one ratio of pre- to post-dispersion pulses is simply not viable."
171: 0x02EC [0x23] WAIT_FOR_DIALOG_INTERACTION
172: 0x02ED [0x2B] Ardrick (ID: 17203945/0x010682E9) [13046*]:
    → "Notice how I qualified "ratio" with "one-to-one." While individual pulses may lack potency, it is possible to augment that dearth with additional pulses."
173: 0x02F4 [0x23] WAIT_FOR_DIALOG_INTERACTION
174: 0x02F5 [0x03] Work_Zone[2] = 5*
175: 0x02FA [0x2B] Ardrick (ID: 17203945/0x010682E9) [13047*]:
    → "The latest double-blind, peer-reviewed experiment conducted at our research center determined that at least $0 [post-dispersion pulse is/post-dispersion pulses are] needed to replicate the power of an original one."
176: 0x0301 [0x23] WAIT_FOR_DIALOG_INTERACTION
177: 0x0302 [0x2B] Ardrick (ID: 17203945/0x010682E9) [13048*]:
    → "As a corollary, though, I must add that one cannot go around collecting any old cells and expect to recreate a masterpiece as delicate as a pulse; the pulse cells you acquire must all be of the same ilk."
178: 0x0309 [0x23] WAIT_FOR_DIALOG_INTERACTION
179: 0x030A [0x03] Work_Zone[2] = 5*
180: 0x030F [0x2B] Ardrick (ID: 17203945/0x010682E9) [13049*]:
    → "Once you obtain $0 [pulse cell/pulse cells], all you have to do is relinquish them to me. I shall do my utmost to reconstruct the pulse panoplia of my--<ahem> your dreams."
181: 0x0316 [0x23] WAIT_FOR_DIALOG_INTERACTION
182: 0x0317 [0x2B] Ardrick (ID: 17203945/0x010682E9) [13050*]:
    → "That is, if you possess the necessary faculties for a pulse to initiate a bond with you. Hopefully my explanation didn't fly too high over that microscopic brain of yours, although I never tire of conversing on this subject."
183: 0x031E [0x23] WAIT_FOR_DIALOG_INTERACTION
184: 0x031F [0x01] GOTO 0x0335
185: 0x0322 [0x02] IF !(Work_Zone[0] == 3*) GOTO 0x0335
186: 0x032A [0x06] ExtData[1]->WorkLocal[3] = 0
187: 0x032D [0x03] Work_Zone[1] = 1073741824*
188: 0x0332 [0x01] GOTO 0x0335

SUBROUTINE_0335:
189: 0x0335 [0x01] GOTO 0x006E
190: 0x0338 [0x21] END_EVENT
191: 0x0339 [0x00] END_REQSTACK()
```

### Event 62

#### Metadata

| Field        | Value     |
|--------------|-----------|
| Entrypoint   | 0x033A    |
| Data Size    | 747 bytes |
| Instructions | 98        |

```
      00 01 02 03 04 05 06 07  08 09 0A 0B 0C 0D 0E 0F
      -- -- -- -- -- -- -- --  -- -- -- -- -- -- -- --
0330:                                42 03 0F 00 02 10            B.....
0340: 03 10 00 03 10 03 11 00  04 10 03 02 10 0F 00 03  ................
0350: 03 10 23 80 2B E9 82 06  01 43 80 23 2B E9 82 06  ..#.+....C.#+...
0360: 01 44 80 23 02 10 00 45  80 80 97 03 9F 46 80 F8  .D.#...E.....F..
0370: FF FF 7F F8 FF FF 7F 66  72 73 74 00 80 1C 47 80  .......frst...G.
0380: 9F 46 80 F8 FF FF 7F F8  FF FF 7F 6F 6B 65 78 00  .F.........okex.
0390: 80 1C 48 80 01 FB 05 02  10 00 49 80 80 CA 03 9F  ..H.......I.....
03A0: 4A 80 F8 FF FF 7F F8 FF  FF 7F 66 72 73 74 00 80  J.........frst..
03B0: 1C 47 80 9F 4A 80 F8 FF  FF 7F F8 FF FF 7F 6F 6B  .G..J.........ok
03C0: 65 78 00 80 1C 48 80 01  FB 05 02 10 00 4B 80 80  ex...H.......K..
03D0: FD 03 9F 4C 80 F8 FF FF  7F F8 FF FF 7F 66 72 73  ...L.........frs
03E0: 74 00 80 1C 47 80 9F 4C  80 F8 FF FF 7F F8 FF FF  t...G..L........
03F0: 7F 6F 6B 65 78 00 80 1C  48 80 01 FB 05 02 10 00  .okex...H.......
0400: 4D 80 80 30 04 9F 4E 80  F8 FF FF 7F F8 FF FF 7F  M..0..N.........
0410: 66 72 73 74 00 80 1C 47  80 9F 4E 80 F8 FF FF 7F  frst...G..N.....
0420: F8 FF FF 7F 6F 6B 65 78  00 80 1C 48 80 01 FB 05  ....okex...H....
0430: 02 10 00 2B 80 80 63 04  9F 4F 80 F8 FF FF 7F F8  ...+..c..O......
0440: FF FF 7F 66 72 73 74 00  80 1C 47 80 9F 4F 80 F8  ...frst...G..O..
0450: FF FF 7F F8 FF FF 7F 6F  6B 65 78 00 80 1C 48 80  .......okex...H.
0460: 01 FB 05 02 10 00 50 80  80 96 04 9F 51 80 F8 FF  ......P.....Q...
0470: FF 7F F8 FF FF 7F 66 72  73 74 00 80 1C 47 80 9F  ......frst...G..
0480: 51 80 F8 FF FF 7F F8 FF  FF 7F 6F 6B 65 78 00 80  Q.........okex..
0490: 1C 48 80 01 FB 05 02 10  00 52 80 80 C9 04 9F 51  .H.......R.....Q
04A0: 80 F8 FF FF 7F F8 FF FF  7F 66 72 73 74 00 80 1C  .........frst...
04B0: 47 80 9F 51 80 F8 FF FF  7F F8 FF FF 7F 6F 6B 65  G..Q.........oke
04C0: 78 00 80 1C 48 80 01 FB  05 02 10 00 53 80 80 FC  x...H.......S...
04D0: 04 9F 4A 80 F8 FF FF 7F  F8 FF FF 7F 66 72 73 74  ..J.........frst
04E0: 00 80 1C 47 80 9F 4A 80  F8 FF FF 7F F8 FF FF 7F  ...G..J.........
04F0: 6F 6B 65 78 00 80 1C 48  80 01 FB 05 02 10 00 54  okex...H.......T
0500: 80 80 2F 05 9F 55 80 F8  FF FF 7F F8 FF FF 7F 66  ../..U.........f
0510: 72 73 74 00 80 1C 47 80  9F 55 80 F8 FF FF 7F F8  rst...G..U......
0520: FF FF 7F 6F 6B 65 78 00  80 1C 48 80 01 FB 05 02  ...okex...H.....
0530: 10 00 56 80 80 62 05 9F  4C 80 F8 FF FF 7F F8 FF  ..V..b..L.......
0540: FF 7F 66 72 73 74 00 80  1C 47 80 9F 4C 80 F8 FF  ..frst...G..L...
0550: FF 7F F8 FF FF 7F 6F 6B  65 78 00 80 1C 48 80 01  ......okex...H..
0560: FB 05 02 10 00 57 80 80  95 05 9F 58 80 F8 FF FF  .....W.....X....
0570: 7F F8 FF FF 7F 66 72 73  74 00 80 1C 47 80 9F 58  .....frst...G..X
0580: 80 F8 FF FF 7F F8 FF FF  7F 6F 6B 65 78 00 80 1C  .........okex...
0590: 48 80 01 FB 05 02 10 00  59 80 80 C8 05 9F 55 80  H.......Y.....U.
05A0: F8 FF FF 7F F8 FF FF 7F  66 72 73 74 00 80 1C 47  ........frst...G
05B0: 80 9F 55 80 F8 FF FF 7F  F8 FF FF 7F 6F 6B 65 78  ..U.........okex
05C0: 00 80 1C 48 80 01 FB 05  02 10 00 5A 80 80 FB 05  ...H.......Z....
05D0: 9F 4F 80 F8 FF FF 7F F8  FF FF 7F 66 72 73 74 00  .O.........frst.
05E0: 80 1C 47 80 9F 4F 80 F8  FF FF 7F F8 FF FF 7F 6F  ..G..O.........o
05F0: 6B 65 78 00 80 1C 48 80  01 FB 05 1C 47 80 93 10  kex...H.....G...
0600: 00 03 02 10 10 00 2B E9  82 06 01 5B 80 23 93 00  ......+....[.#..
0610: 80 40 00 80 0E 80 01 10  2A 80 40 0F 80 10 80 01  .@......*.@.....
0620: 10 11 00 21 00                                    ...!.           
```

#### Opcodes

```
  0: 0x033A [0x42] SET_CLI_EVENT_CANCEL_DATA()
  1: 0x033B [0x03] ExtData[1]->WorkLocal[15] = Work_Zone[2]
  2: 0x0340 [0x03] ExtData[1]->WorkLocal[16] = Work_Zone[3]
  3: 0x0345 [0x03] ExtData[1]->WorkLocal[17] = Work_Zone[4]
  4: 0x034A [0x03] Work_Zone[2] = ExtData[1]->WorkLocal[15]
  5: 0x034F [0x03] Work_Zone[3] = 5*
  6: 0x0354 [0x2B] Ardrick (ID: 17203945/0x010682E9) [13082*]:
    → "$1 $0 ? Alright, then."
  7: 0x035B [0x23] WAIT_FOR_DIALOG_INTERACTION
  8: 0x035C [0x2B] Ardrick (ID: 17203945/0x010682E9) [13083*]:
    → "Let the reconstruction begin. You may watch if you so desire, but I doubt you possess the intellectual capacity to comprehend what you'll be seeing."
  9: 0x0363 [0x23] WAIT_FOR_DIALOG_INTERACTION
 10: 0x0364 [0x02] IF !(ExtData[1]->WorkLocal[16] == 11856*) GOTO 0x0397
 11: 0x036C [0x9F] LOAD_SCHEDULED_TASK_ALT: Load scheduler "frst" with entities [EventEntity, EventEntity], work=[190*, 0*]
 12: 0x037D [0x1C] WAIT(120* ticks)
 13: 0x0380 [0x9F] LOAD_SCHEDULED_TASK_ALT: Load scheduler "okex" with entities [EventEntity, EventEntity], work=[190*, 0*]
 14: 0x0391 [0x1C] WAIT(60* ticks)
 15: 0x0394 [0x01] GOTO 0x05FB
 16: 0x0397 [0x02] IF !(ExtData[1]->WorkLocal[16] == 11857*) GOTO 0x03CA
 17: 0x039F [0x9F] LOAD_SCHEDULED_TASK_ALT: Load scheduler "frst" with entities [EventEntity, EventEntity], work=[193*, 0*]
 18: 0x03B0 [0x1C] WAIT(120* ticks)
 19: 0x03B3 [0x9F] LOAD_SCHEDULED_TASK_ALT: Load scheduler "okex" with entities [EventEntity, EventEntity], work=[193*, 0*]
 20: 0x03C4 [0x1C] WAIT(60* ticks)
 21: 0x03C7 [0x01] GOTO 0x05FB
 22: 0x03CA [0x02] IF !(ExtData[1]->WorkLocal[16] == 11855*) GOTO 0x03FD
 23: 0x03D2 [0x9F] LOAD_SCHEDULED_TASK_ALT: Load scheduler "frst" with entities [EventEntity, EventEntity], work=[189*, 0*]
 24: 0x03E3 [0x1C] WAIT(120* ticks)
 25: 0x03E6 [0x9F] LOAD_SCHEDULED_TASK_ALT: Load scheduler "okex" with entities [EventEntity, EventEntity], work=[189*, 0*]
 26: 0x03F7 [0x1C] WAIT(60* ticks)
 27: 0x03FA [0x01] GOTO 0x05FB
 28: 0x03FD [0x02] IF !(ExtData[1]->WorkLocal[16] == 11868*) GOTO 0x0430
 29: 0x0405 [0x9F] LOAD_SCHEDULED_TASK_ALT: Load scheduler "frst" with entities [EventEntity, EventEntity], work=[195*, 0*]
 30: 0x0416 [0x1C] WAIT(120* ticks)
 31: 0x0419 [0x9F] LOAD_SCHEDULED_TASK_ALT: Load scheduler "okex" with entities [EventEntity, EventEntity], work=[195*, 0*]
 32: 0x042A [0x1C] WAIT(60* ticks)
 33: 0x042D [0x01] GOTO 0x05FB
 34: 0x0430 [0x02] IF !(ExtData[1]->WorkLocal[16] == 11866*) GOTO 0x0463
 35: 0x0438 [0x9F] LOAD_SCHEDULED_TASK_ALT: Load scheduler "frst" with entities [EventEntity, EventEntity], work=[191*, 0*]
 36: 0x0449 [0x1C] WAIT(120* ticks)
 37: 0x044C [0x9F] LOAD_SCHEDULED_TASK_ALT: Load scheduler "okex" with entities [EventEntity, EventEntity], work=[191*, 0*]
 38: 0x045D [0x1C] WAIT(60* ticks)
 39: 0x0460 [0x01] GOTO 0x05FB
 40: 0x0463 [0x02] IF !(ExtData[1]->WorkLocal[16] == 11867*) GOTO 0x0496
 41: 0x046B [0x9F] LOAD_SCHEDULED_TASK_ALT: Load scheduler "frst" with entities [EventEntity, EventEntity], work=[194*, 0*]
 42: 0x047C [0x1C] WAIT(120* ticks)
 43: 0x047F [0x9F] LOAD_SCHEDULED_TASK_ALT: Load scheduler "okex" with entities [EventEntity, EventEntity], work=[194*, 0*]
 44: 0x0490 [0x1C] WAIT(60* ticks)
 45: 0x0493 [0x01] GOTO 0x05FB
 46: 0x0496 [0x02] IF !(ExtData[1]->WorkLocal[16] == 19145*) GOTO 0x04C9
 47: 0x049E [0x9F] LOAD_SCHEDULED_TASK_ALT: Load scheduler "frst" with entities [EventEntity, EventEntity], work=[194*, 0*]
 48: 0x04AF [0x1C] WAIT(120* ticks)
 49: 0x04B2 [0x9F] LOAD_SCHEDULED_TASK_ALT: Load scheduler "okex" with entities [EventEntity, EventEntity], work=[194*, 0*]
 50: 0x04C3 [0x1C] WAIT(60* ticks)
 51: 0x04C6 [0x01] GOTO 0x05FB
 52: 0x04C9 [0x02] IF !(ExtData[1]->WorkLocal[16] == 19174*) GOTO 0x04FC
 53: 0x04D1 [0x9F] LOAD_SCHEDULED_TASK_ALT: Load scheduler "frst" with entities [EventEntity, EventEntity], work=[193*, 0*]
 54: 0x04E2 [0x1C] WAIT(120* ticks)
 55: 0x04E5 [0x9F] LOAD_SCHEDULED_TASK_ALT: Load scheduler "okex" with entities [EventEntity, EventEntity], work=[193*, 0*]
 56: 0x04F6 [0x1C] WAIT(60* ticks)
 57: 0x04F9 [0x01] GOTO 0x05FB
 58: 0x04FC [0x02] IF !(ExtData[1]->WorkLocal[16] == 19144*) GOTO 0x052F
 59: 0x0504 [0x9F] LOAD_SCHEDULED_TASK_ALT: Load scheduler "frst" with entities [EventEntity, EventEntity], work=[192*, 0*]
 60: 0x0515 [0x1C] WAIT(120* ticks)
 61: 0x0518 [0x9F] LOAD_SCHEDULED_TASK_ALT: Load scheduler "okex" with entities [EventEntity, EventEntity], work=[192*, 0*]
 62: 0x0529 [0x1C] WAIT(60* ticks)
 63: 0x052C [0x01] GOTO 0x05FB
 64: 0x052F [0x02] IF !(ExtData[1]->WorkLocal[16] == 18904*) GOTO 0x0562
 65: 0x0537 [0x9F] LOAD_SCHEDULED_TASK_ALT: Load scheduler "frst" with entities [EventEntity, EventEntity], work=[189*, 0*]
 66: 0x0548 [0x1C] WAIT(120* ticks)
 67: 0x054B [0x9F] LOAD_SCHEDULED_TASK_ALT: Load scheduler "okex" with entities [EventEntity, EventEntity], work=[189*, 0*]
 68: 0x055C [0x1C] WAIT(60* ticks)
 69: 0x055F [0x01] GOTO 0x05FB
 70: 0x0562 [0x02] IF !(ExtData[1]->WorkLocal[16] == 18457*) GOTO 0x0595
 71: 0x056A [0x9F] LOAD_SCHEDULED_TASK_ALT: Load scheduler "frst" with entities [EventEntity, EventEntity], work=[188*, 0*]
 72: 0x057B [0x1C] WAIT(120* ticks)
 73: 0x057E [0x9F] LOAD_SCHEDULED_TASK_ALT: Load scheduler "okex" with entities [EventEntity, EventEntity], work=[188*, 0*]
 74: 0x058F [0x1C] WAIT(60* ticks)
 75: 0x0592 [0x01] GOTO 0x05FB
 76: 0x0595 [0x02] IF !(ExtData[1]->WorkLocal[16] == 19794*) GOTO 0x05C8
 77: 0x059D [0x9F] LOAD_SCHEDULED_TASK_ALT: Load scheduler "frst" with entities [EventEntity, EventEntity], work=[192*, 0*]
 78: 0x05AE [0x1C] WAIT(120* ticks)
 79: 0x05B1 [0x9F] LOAD_SCHEDULED_TASK_ALT: Load scheduler "okex" with entities [EventEntity, EventEntity], work=[192*, 0*]
 80: 0x05C2 [0x1C] WAIT(60* ticks)
 81: 0x05C5 [0x01] GOTO 0x05FB
 82: 0x05C8 [0x02] IF !(ExtData[1]->WorkLocal[16] == 18542*) GOTO 0x05FB
 83: 0x05D0 [0x9F] LOAD_SCHEDULED_TASK_ALT: Load scheduler "frst" with entities [EventEntity, EventEntity], work=[191*, 0*]
 84: 0x05E1 [0x1C] WAIT(120* ticks)
 85: 0x05E4 [0x9F] LOAD_SCHEDULED_TASK_ALT: Load scheduler "okex" with entities [EventEntity, EventEntity], work=[191*, 0*]
 86: 0x05F5 [0x1C] WAIT(60* ticks)
 87: 0x05F8 [0x01] GOTO 0x05FB

SUBROUTINE_05FB:
 88: 0x05FB [0x1C] WAIT(120* ticks)
 89: 0x05FE [0x93] DISPLAY_ITEM_INFO(item_id=ExtData[1]->WorkLocal[16])
 90: 0x0601 [0x03] Work_Zone[2] = ExtData[1]->WorkLocal[16]
 91: 0x0606 [0x2B] Ardrick (ID: 17203945/0x010682E9) [13084*]:
    → "As I expected, it's $0. Cherish this with all your being, for it is a testament to the wonders of science."
 92: 0x060D [0x23] WAIT_FOR_DIALOG_INTERACTION
 93: 0x060E [0x93] DISPLAY_ITEM_INFO(item_id=0*)
 94: 0x0611 [0x40] SET_BIT_WORK_RANGE(start_bit=0*, end_bit=15*, target=Work_Zone[1], source=2*)
 95: 0x061A [0x40] SET_BIT_WORK_RANGE(start_bit=16*, end_bit=31*, target=Work_Zone[1], source=ExtData[1]->WorkLocal[17])
 96: 0x0623 [0x21] END_EVENT
 97: 0x0624 [0x00] END_REQSTACK()
```
