# 0x7FFFFFF0 - Zone Events

## Common Data

| Field            | Value                   |
|------------------|-------------------------|
| Zone             | Jugner Forest (ID: 104) |
| Block Size       | 38568 bytes             |
| Total Events     | 45                      |
| References Count | 582                     |

## List of Events

| Event ID                   | Entrypoint   |   Size |   Instructions |
|----------------------------|--------------|--------|----------------|
| [65535](#event-65535)      | 0x0000       |      1 |              1 |
| [65534](#event-65534)      | 0x0001       |      1 |              1 |
| [24](#event-24)            | 0x0002       |     42 |             13 |
| [28](#event-28)            | 0x002C       |     29 |              9 |
| [25](#event-25)            | 0x0049       |   4345 |            852 |
| [65535.1](#event-655351)   | 0x1142       |     10 |              2 |
| [65535.2](#event-655352)   | 0x114C       |     10 |              2 |
| [65535.3](#event-655353)   | 0x1156       |     14 |              4 |
| [65535.4](#event-655354)   | 0x1164       |      6 |              2 |
| [65535.5](#event-655355)   | 0x116A       |      6 |              2 |
| [65535.6](#event-655356)   | 0x1170       |      6 |              2 |
| [65535.7](#event-655357)   | 0x1176       |      6 |              2 |
| [14](#event-14)            | 0x117C       |     11 |              2 |
| [65535.8](#event-655358)   | 0x1187       |     10 |              2 |
| [65535.9](#event-655359)   | 0x1191       |     30 |             10 |
| [65535.10](#event-6553510) | 0x11AF       |     10 |              4 |
| [65535.11](#event-6553511) | 0x11B9       |     31 |              5 |
| [65535.12](#event-6553512) | 0x11D8       |     10 |              2 |
| [65535.13](#event-6553513) | 0x11E2       |     16 |              4 |
| [65535.14](#event-6553514) | 0x11F2       |     22 |              8 |
| [65535.15](#event-6553515) | 0x1208       |     15 |              3 |
| [65535.16](#event-6553516) | 0x1217       |     20 |              6 |
| [65535.17](#event-6553517) | 0x122B       |     15 |              3 |
| [65535.18](#event-6553518) | 0x123A       |     20 |              6 |
| [65535.19](#event-6553519) | 0x124E       |     16 |              3 |
| [65535.20](#event-6553520) | 0x125E       |     41 |              5 |
| [18](#event-18)            | 0x1287       |   1671 |            240 |
| [31](#event-31)            | 0x190E       |  10671 |           1498 |
| [65535.21](#event-6553521) | 0x42BD       |     37 |              5 |
| [65535.22](#event-6553522) | 0x42E2       |     37 |              5 |
| [65535.23](#event-6553523) | 0x4307       |      6 |              2 |
| [65535.24](#event-6553524) | 0x430D       |      6 |              2 |
| [65535.25](#event-6553525) | 0x4313       |     24 |              4 |
| [65535.26](#event-6553526) | 0x432B       |     24 |              4 |
| [65535.27](#event-6553527) | 0x4343       |      7 |              3 |
| [65535.28](#event-6553528) | 0x434A       |      7 |              3 |
| [65535.29](#event-6553529) | 0x4351       |     11 |              3 |
| [65535.30](#event-6553530) | 0x435C       |     15 |              5 |
| [65535.31](#event-6553531) | 0x436B       |     15 |              5 |
| [65535.32](#event-6553532) | 0x437A       |     15 |              5 |
| [65535.33](#event-6553533) | 0x4389       |     15 |              5 |
| [65535.34](#event-6553534) | 0x4398       |     22 |              6 |
| [65535.35](#event-6553535) | 0x43AE       |     16 |              3 |
| [65535.36](#event-6553536) | 0x43BE       |  18564 |           3186 |
| [901](#event-901)          | 0x8C42       |    135 |             31 |

## DAT References (imed_data)

|   Index | Hex Value   |   Dec Value |
|---------|-------------|-------------|
|       0 | 0xFFFFFFFF  |  4294967295 |
|       1 | 0x1D1A      |        7450 |
|       2 | 0x0000      |           0 |
|       3 | 0x1D18      |        7448 |
|       4 | 0x1D46      |        7494 |
|       5 | 0x0001      |           1 |
|       6 | 0x003F      |          63 |
|       7 | 0x0020      |          32 |
|       8 | 0x0002      |           2 |
|       9 | 0x1D43      |        7491 |
|      10 | 0x1D44      |        7492 |
|      11 | 0x1D45      |        7493 |
|      12 | 0x0003      |           3 |
|      13 | 0x1072      |        4210 |
|      14 | 0x1074      |        4212 |
|      15 | 0x14B8      |        5304 |
|      16 | 0x14B9      |        5305 |
|      17 | 0x1D48      |        7496 |
|      18 | 0x40000000  |  1073741824 |
|      19 | 0x001F      |          31 |
|      20 | 0x1D49      |        7497 |
|      21 | 0x03E8      |        1000 |
|      22 | 0x0004      |           4 |
|      23 | 0x0005      |           5 |
|      24 | 0x0006      |           6 |
|      25 | 0x0007      |           7 |
|      26 | 0x0008      |           8 |
|      27 | 0x0009      |           9 |
|      28 | 0x000A      |          10 |
|      29 | 0x000B      |          11 |
|      30 | 0x000C      |          12 |
|      31 | 0x000D      |          13 |
|      32 | 0x000E      |          14 |
|      33 | 0x000F      |          15 |
|      34 | 0x0010      |          16 |
|      35 | 0x0011      |          17 |
|      36 | 0x0012      |          18 |
|      37 | 0x0013      |          19 |
|      38 | 0x0014      |          20 |
|      39 | 0x0015      |          21 |
|      40 | 0x0016      |          22 |
|      41 | 0x0017      |          23 |
|      42 | 0x0018      |          24 |
|      43 | 0x0019      |          25 |
|      44 | 0x001A      |          26 |
|      45 | 0x001B      |          27 |
|      46 | 0x001C      |          28 |
|      47 | 0x001D      |          29 |
|      48 | 0x001E      |          30 |
|      49 | 0x1010      |        4112 |
|      50 | 0x1014      |        4116 |
|      51 | 0x1018      |        4120 |
|      52 | 0x1020      |        4128 |
|      53 | 0x1024      |        4132 |
|      54 | 0x1028      |        4136 |
|      55 | 0x1031      |        4145 |
|      56 | 0x1034      |        4148 |
|      57 | 0x1036      |        4150 |
|      58 | 0x1037      |        4151 |
|      59 | 0x103B      |        4155 |
|      60 | 0x103D      |        4157 |
|      61 | 0x1043      |        4163 |
|      62 | 0x1044      |        4164 |
|      63 | 0x1045      |        4165 |
|      64 | 0x1032      |        4146 |
|      65 | 0x1033      |        4147 |
|      66 | 0x1068      |        4200 |
|      67 | 0x106A      |        4202 |
|      68 | 0x147E      |        5246 |
|      69 | 0x147F      |        5247 |
|      70 | 0x1480      |        5248 |
|      71 | 0x1481      |        5249 |
|      72 | 0x1482      |        5250 |
|      73 | 0x1483      |        5251 |
|      74 | 0x1484      |        5252 |
|      75 | 0x10CB      |        4299 |
|      76 | 0x10CC      |        4300 |
|      77 | 0x1146      |        4422 |
|      78 | 0x1147      |        4423 |
|      79 | 0x147B      |        5243 |
|      80 | 0x147C      |        5244 |
|      81 | 0x147D      |        5245 |
|      82 | 0x0021      |          33 |
|      83 | 0x106C      |        4204 |
|      84 | 0x0022      |          34 |
|      85 | 0x106E      |        4206 |
|      86 | 0x0023      |          35 |
|      87 | 0x1070      |        4208 |
|      88 | 0x0024      |          36 |
|      89 | 0x0025      |          37 |
|      90 | 0x0026      |          38 |
|      91 | 0x0027      |          39 |
|      92 | 0x0028      |          40 |
|      93 | 0x1035      |        4149 |
|      94 | 0x0029      |          41 |
|      95 | 0x109E      |        4254 |
|      96 | 0x002A      |          42 |
|      97 | 0x109F      |        4255 |
|      98 | 0x002B      |          43 |
|      99 | 0x14C8      |        5320 |
|     100 | 0x002C      |          44 |
|     101 | 0x14CA      |        5322 |
|     102 | 0x101C      |        4124 |
|     103 | 0x102C      |        4140 |
|     104 | 0x1030      |        4144 |
|     105 | 0x1041      |        4161 |
|     106 | 0x10CD      |        4301 |
|     107 | 0x10CE      |        4302 |
|     108 | 0x1148      |        4424 |
|     109 | 0x1149      |        4425 |
|     110 | 0x1479      |        5241 |
|     111 | 0x147A      |        5242 |
|     112 | 0x002D      |          45 |
|     113 | 0x002E      |          46 |
|     114 | 0x0032      |          50 |
|     115 | 0x003C      |          60 |
|     116 | 0xFFFFD0B5  |  4294955189 |
|     117 | 0x4CBD0     |      314320 |
|     118 | 0x008A      |         138 |
|     119 | 0x00A9      |         169 |
|     120 | 0xFFFFC9AC  |  4294953388 |
|     121 | 0x4E781     |      321409 |
|     122 | 0x02F3      |         755 |
|     123 | 0x0B11      |        2833 |
|     124 | 0xFFFFCF9B  |  4294954907 |
|     125 | 0x4ED23     |      322851 |
|     126 | 0x030F      |         783 |
|     127 | 0xFFF82FBA  |  4294455226 |
|     128 | 0x47383     |      291715 |
|     129 | 0x1E04      |        7684 |
|     130 | 0x0B31      |        2865 |
|     131 | 0xFFF828DF  |  4294453471 |
|     132 | 0x490E0     |      299232 |
|     133 | 0x2356      |        9046 |
|     134 | 0x0677      |        1655 |
|     135 | 0x005A      |          90 |
|     136 | 0x0E77      |        3703 |
|     137 | 0x0B8F      |        2959 |
|     138 | 0x00D0      |         208 |
|     139 | 0xFFF818EC  |  4294449388 |
|     140 | 0x4CD5E     |      314718 |
|     141 | 0x1F7E      |        8062 |
|     142 | 0xFFF88C2A  |  4294478890 |
|     143 | 0x4E4FD     |      320765 |
|     144 | 0x201A      |        8218 |
|     145 | 0x0153      |         339 |
|     146 | 0xFFF89EEE  |  4294483694 |
|     147 | 0x4DB70     |      318320 |
|     148 | 0x1F8C      |        8076 |
|     149 | 0x0078      |         120 |
|     150 | 0xFFF8A4A4  |  4294485156 |
|     151 | 0x4D801     |      317441 |
|     152 | 0x1F68      |        8040 |
|     153 | 0x015A      |         346 |
|     154 | 0xFFF8A699  |  4294485657 |
|     155 | 0x4C9CB     |      313803 |
|     156 | 0x1FFD      |        8189 |
|     157 | 0xFFF89E90  |  4294483600 |
|     158 | 0x4BEE7     |      311015 |
|     159 | 0x226E      |        8814 |
|     160 | 0x0E43      |        3651 |
|     161 | 0xFFF8A13A  |  4294484282 |
|     162 | 0x4D7DA     |      317402 |
|     163 | 0x1FA1      |        8097 |
|     164 | 0xFFFE2DB0  |  4294847920 |
|     165 | 0xFFF810E8  |  4294447336 |
|     166 | 0xFFFFE0C0  |  4294959296 |
|     167 | 0x0800      |        2048 |
|     168 | 0x0093      |         147 |
|     169 | 0x00F0      |         240 |
|     170 | 0x00C8      |         200 |
|     171 | 0xFFFB4024  |  4294656036 |
|     172 | 0x639C8     |      408008 |
|     173 | 0xFFFFFF35  |  4294967093 |
|     174 | 0x0295      |         661 |
|     175 | 0x006E      |         110 |
|     176 | 0x1F5E      |        8030 |
|     177 | 0x007B      |         123 |
|     178 | 0x1F5F      |        8031 |
|     179 | 0x1F60      |        8032 |
|     180 | 0x1F61      |        8033 |
|     181 | 0x1F62      |        8034 |
|     182 | 0x1F63      |        8035 |
|     183 | 0x1F64      |        8036 |
|     184 | 0x1F65      |        8037 |
|     185 | 0x1F66      |        8038 |
|     186 | 0x1F67      |        8039 |
|     187 | 0x1F69      |        8041 |
|     188 | 0x1F6A      |        8042 |
|     189 | 0x1F6B      |        8043 |
|     190 | 0x1F6C      |        8044 |
|     191 | 0x1F6D      |        8045 |
|     192 | 0x1F6E      |        8046 |
|     193 | 0x1F6F      |        8047 |
|     194 | 0x1F70      |        8048 |
|     195 | 0x1F71      |        8049 |
|     196 | 0x1F72      |        8050 |
|     197 | 0x1F73      |        8051 |
|     198 | 0x1F74      |        8052 |
|     199 | 0x1F75      |        8053 |
|     200 | 0x1F76      |        8054 |
|     201 | 0x1F77      |        8055 |
|     202 | 0x1F78      |        8056 |
|     203 | 0x00FA      |         250 |
|     204 | 0x0046      |          70 |
|     205 | 0x008C      |         140 |
|     206 | 0x00D2      |         210 |
|     207 | 0xFFFD9D7F  |  4294811007 |
|     208 | 0x73E4C     |      474700 |
|     209 | 0x0209      |         521 |
|     210 | 0x0109      |         265 |
|     211 | 0x00B4      |         180 |
|     212 | 0x212F      |        8495 |
|     213 | 0x2130      |        8496 |
|     214 | 0x2131      |        8497 |
|     215 | 0x2132      |        8498 |
|     216 | 0x2135      |        8501 |
|     217 | 0x2136      |        8502 |
|     218 | 0x2137      |        8503 |
|     219 | 0x2138      |        8504 |
|     220 | 0x2139      |        8505 |
|     221 | 0x2133      |        8499 |
|     222 | 0x2134      |        8500 |
|     223 | 0x213A      |        8506 |
|     224 | 0x213B      |        8507 |
|     225 | 0x213C      |        8508 |
|     226 | 0x213D      |        8509 |
|     227 | 0x213E      |        8510 |
|     228 | 0x2141      |        8513 |
|     229 | 0x2142      |        8514 |
|     230 | 0x2143      |        8515 |
|     231 | 0x2144      |        8516 |
|     232 | 0x2145      |        8517 |
|     233 | 0x213F      |        8511 |
|     234 | 0x2140      |        8512 |
|     235 | 0x2146      |        8518 |
|     236 | 0x2147      |        8519 |
|     237 | 0x2148      |        8520 |
|     238 | 0x2149      |        8521 |
|     239 | 0x0037      |          55 |
|     240 | 0x214A      |        8522 |
|     241 | 0x214B      |        8523 |
|     242 | 0x214C      |        8524 |
|     243 | 0x214D      |        8525 |
|     244 | 0x2150      |        8528 |
|     245 | 0x2151      |        8529 |
|     246 | 0x2152      |        8530 |
|     247 | 0x2153      |        8531 |
|     248 | 0x2154      |        8532 |
|     249 | 0x214E      |        8526 |
|     250 | 0x214F      |        8527 |
|     251 | 0x2155      |        8533 |
|     252 | 0x02DC      |         732 |
|     253 | 0x2156      |        8534 |
|     254 | 0x2157      |        8535 |
|     255 | 0x2164      |        8548 |
|     256 | 0x0050      |          80 |
|     257 | 0x2165      |        8549 |
|     258 | 0x0030      |          48 |
|     259 | 0x2166      |        8550 |
|     260 | 0x2167      |        8551 |
|     261 | 0x2168      |        8552 |
|     262 | 0x007F      |         127 |
|     263 | 0x2169      |        8553 |
|     264 | 0x0101      |         257 |
|     265 | 0x0052      |          82 |
|     266 | 0x216A      |        8554 |
|     267 | 0x00FE      |         254 |
|     268 | 0x216B      |        8555 |
|     269 | 0x0096      |         150 |
|     270 | 0x00CC      |         204 |
|     271 | 0x216C      |        8556 |
|     272 | 0x216D      |        8557 |
|     273 | 0x0038      |          56 |
|     274 | 0x216E      |        8558 |
|     275 | 0x216F      |        8559 |
|     276 | 0x2170      |        8560 |
|     277 | 0x012C      |         300 |
|     278 | 0x2171      |        8561 |
|     279 | 0x0108      |         264 |
|     280 | 0x2172      |        8562 |
|     281 | 0x2173      |        8563 |
|     282 | 0x2174      |        8564 |
|     283 | 0x2175      |        8565 |
|     284 | 0x2178      |        8568 |
|     285 | 0x2179      |        8569 |
|     286 | 0x217A      |        8570 |
|     287 | 0x217B      |        8571 |
|     288 | 0x217C      |        8572 |
|     289 | 0x2176      |        8566 |
|     290 | 0x2177      |        8567 |
|     291 | 0x217D      |        8573 |
|     292 | 0x217E      |        8574 |
|     293 | 0x217F      |        8575 |
|     294 | 0x2180      |        8576 |
|     295 | 0x2181      |        8577 |
|     296 | 0x2184      |        8580 |
|     297 | 0x2185      |        8581 |
|     298 | 0x2186      |        8582 |
|     299 | 0x2187      |        8583 |
|     300 | 0x2188      |        8584 |
|     301 | 0x2182      |        8578 |
|     302 | 0x2183      |        8579 |
|     303 | 0x2189      |        8585 |
|     304 | 0x218A      |        8586 |
|     305 | 0x218B      |        8587 |
|     306 | 0x218C      |        8588 |
|     307 | 0x218D      |        8589 |
|     308 | 0x218E      |        8590 |
|     309 | 0x2191      |        8593 |
|     310 | 0x2192      |        8594 |
|     311 | 0x2193      |        8595 |
|     312 | 0x2194      |        8596 |
|     313 | 0x2195      |        8597 |
|     314 | 0x218F      |        8591 |
|     315 | 0x2190      |        8592 |
|     316 | 0x2196      |        8598 |
|     317 | 0x0044      |          68 |
|     318 | 0x2197      |        8599 |
|     319 | 0x2198      |        8600 |
|     320 | 0x2199      |        8601 |
|     321 | 0x219A      |        8602 |
|     322 | 0x219B      |        8603 |
|     323 | 0x219C      |        8604 |
|     324 | 0x219D      |        8605 |
|     325 | 0x21A0      |        8608 |
|     326 | 0x21A1      |        8609 |
|     327 | 0x21A2      |        8610 |
|     328 | 0x21A3      |        8611 |
|     329 | 0x21A4      |        8612 |
|     330 | 0x219E      |        8606 |
|     331 | 0x219F      |        8607 |
|     332 | 0x21A5      |        8613 |
|     333 | 0x21A6      |        8614 |
|     334 | 0x21A7      |        8615 |
|     335 | 0x21A8      |        8616 |
|     336 | 0x21A9      |        8617 |
|     337 | 0x21AA      |        8618 |
|     338 | 0x21AB      |        8619 |
|     339 | 0x21AC      |        8620 |
|     340 | 0x21AD      |        8621 |
|     341 | 0x21AE      |        8622 |
|     342 | 0x21AF      |        8623 |
|     343 | 0x21B0      |        8624 |
|     344 | 0x21B1      |        8625 |
|     345 | 0x21B2      |        8626 |
|     346 | 0x21B3      |        8627 |
|     347 | 0x21B4      |        8628 |
|     348 | 0x21B5      |        8629 |
|     349 | 0x21B6      |        8630 |
|     350 | 0x21B7      |        8631 |
|     351 | 0x21B8      |        8632 |
|     352 | 0x21B9      |        8633 |
|     353 | 0x21BA      |        8634 |
|     354 | 0x00C9      |         201 |
|     355 | 0x21BB      |        8635 |
|     356 | 0x2158      |        8536 |
|     357 | 0x2159      |        8537 |
|     358 | 0x215A      |        8538 |
|     359 | 0x215B      |        8539 |
|     360 | 0x215E      |        8542 |
|     361 | 0x215F      |        8543 |
|     362 | 0x2160      |        8544 |
|     363 | 0x2161      |        8545 |
|     364 | 0x2162      |        8546 |
|     365 | 0x215C      |        8540 |
|     366 | 0x215D      |        8541 |
|     367 | 0x2163      |        8547 |
|     368 | 0x80812     |      526354 |
|     369 | 0x88183     |      557443 |
|     370 | 0x0074      |         116 |
|     371 | 0x80672     |      525938 |
|     372 | 0x84759     |      542553 |
|     373 | 0x009A      |         154 |
|     374 | 0x504FD     |      328957 |
|     375 | 0x6DC64     |      449636 |
|     376 | 0x035F      |         863 |
|     377 | 0x534CA     |      341194 |
|     378 | 0x6DF79     |      450425 |
|     379 | 0x08F1      |        2289 |
|     380 | 0xFFFC96FC  |  4294743804 |
|     381 | 0xFFFD9C7C  |  4294810748 |
|     382 | 0x0647      |        1607 |
|     383 | 0xFFFBCB26  |  4294691622 |
|     384 | 0xFFFD9074  |  4294807668 |
|     385 | 0xFFFFE0E3  |  4294959331 |
|     386 | 0x3B595     |      243093 |
|     387 | 0x222B      |        8747 |
|     388 | 0x00EB      |         235 |
|     389 | 0x01F8      |         504 |
|     390 | 0x0094      |         148 |
|     391 | 0x005F      |          95 |
|     392 | 0x0064      |         100 |
|     393 | 0x0069      |         105 |
|     394 | 0x0057      |          87 |
|     395 | 0x005C      |          92 |
|     396 | 0x0059      |          89 |
|     397 | 0x005D      |          93 |
|     398 | 0x0061      |          97 |
|     399 | 0x0060      |          96 |
|     400 | 0x018D      |         397 |
|     401 | 0x0175      |         373 |
|     402 | 0x0170      |         368 |
|     403 | 0x0171      |         369 |
|     404 | 0x014C      |         332 |
|     405 | 0x01C1      |         449 |
|     406 | 0x027C      |         636 |
|     407 | 0x027B      |         635 |
|     408 | 0x027D      |         637 |
|     409 | 0x02D3      |         723 |
|     410 | 0x0321      |         801 |
|     411 | 0x0326      |         806 |
|     412 | 0x01E1      |         481 |
|     413 | 0x0343      |         835 |
|     414 | 0x0386      |         902 |
|     415 | 0x0388      |         904 |
|     416 | 0x0361      |         865 |
|     417 | 0x0387      |         903 |
|     418 | 0x038A      |         906 |
|     419 | 0x0282      |         642 |
|     420 | 0x0283      |         643 |
|     421 | 0x0288      |         648 |
|     422 | 0x0289      |         649 |
|     423 | 0x028A      |         650 |
|     424 | 0x028B      |         651 |
|     425 | 0x029E      |         670 |
|     426 | 0x00C6      |         198 |
|     427 | 0x00B5      |         181 |
|     428 | 0x008E      |         142 |
|     429 | 0x007A      |         122 |
|     430 | 0x014B      |         331 |
|     431 | 0x0148      |         328 |
|     432 | 0x0166      |         358 |
|     433 | 0x017A      |         378 |
|     434 | 0x0182      |         386 |
|     435 | 0x0183      |         387 |
|     436 | 0x0192      |         402 |
|     437 | 0x01DF      |         479 |
|     438 | 0x01E9      |         489 |
|     439 | 0x00E6      |         230 |
|     440 | 0x00F5      |         245 |
|     441 | 0x007E      |         126 |
|     442 | 0x00F3      |         243 |
|     443 | 0x00F4      |         244 |
|     444 | 0x00E0      |         224 |
|     445 | 0x00E9      |         233 |
|     446 | 0x009E      |         158 |
|     447 | 0x009D      |         157 |
|     448 | 0x00E2      |         226 |
|     449 | 0x00E1      |         225 |
|     450 | 0x014F      |         335 |
|     451 | 0x014E      |         334 |
|     452 | 0x0167      |         359 |
|     453 | 0x00E5      |         229 |
|     454 | 0x0169      |         361 |
|     455 | 0x016A      |         362 |
|     456 | 0x0168      |         360 |
|     457 | 0x0133      |         307 |
|     458 | 0x0174      |         372 |
|     459 | 0x018C      |         396 |
|     460 | 0x0194      |         404 |
|     461 | 0x0195      |         405 |
|     462 | 0x0178      |         376 |
|     463 | 0x0240      |         576 |
|     464 | 0x0197      |         407 |
|     465 | 0x0198      |         408 |
|     466 | 0x01A3      |         419 |
|     467 | 0x019E      |         414 |
|     468 | 0x0246      |         582 |
|     469 | 0x0247      |         583 |
|     470 | 0x0248      |         584 |
|     471 | 0x024B      |         587 |
|     472 | 0x024A      |         586 |
|     473 | 0x024F      |         591 |
|     474 | 0x01C3      |         451 |
|     475 | 0x01C4      |         452 |
|     476 | 0x01EF      |         495 |
|     477 | 0x01F0      |         496 |
|     478 | 0x0095      |         149 |
|     479 | 0x0073      |         115 |
|     480 | 0x0034      |          52 |
|     481 | 0x005E      |          94 |
|     482 | 0x0072      |         114 |
|     483 | 0x0031      |          49 |
|     484 | 0x006C      |         108 |
|     485 | 0x003A      |          58 |
|     486 | 0x0035      |          53 |
|     487 | 0x0085      |         133 |
|     488 | 0x0081      |         129 |
|     489 | 0x0033      |          51 |
|     490 | 0x0082      |         130 |
|     491 | 0x0039      |          57 |
|     492 | 0x0036      |          54 |
|     493 | 0x0083      |         131 |
|     494 | 0x00A2      |         162 |
|     495 | 0x0065      |         101 |
|     496 | 0x0086      |         134 |
|     497 | 0x0062      |          98 |
|     498 | 0x008D      |         141 |
|     499 | 0x008B      |         139 |
|     500 | 0x0067      |         103 |
|     501 | 0x00A1      |         161 |
|     502 | 0x0066      |         102 |
|     503 | 0x0075      |         117 |
|     504 | 0x0068      |         104 |
|     505 | 0x0077      |         119 |
|     506 | 0x01FE      |         510 |
|     507 | 0x009F      |         159 |
|     508 | 0x00A4      |         164 |
|     509 | 0x00AC      |         172 |
|     510 | 0x00B2      |         178 |
|     511 | 0x00B0      |         176 |
|     512 | 0x013D      |         317 |
|     513 | 0x010C      |         268 |
|     514 | 0x0100      |         256 |
|     515 | 0x00FB      |         251 |
|     516 | 0x00B8      |         184 |
|     517 | 0x011C      |         284 |
|     518 | 0x0041      |          65 |
|     519 | 0x0042      |          66 |
|     520 | 0x0047      |          71 |
|     521 | 0x0160      |         352 |
|     522 | 0x0043      |          67 |
|     523 | 0x0048      |          72 |
|     524 | 0x004B      |          75 |
|     525 | 0x004C      |          76 |
|     526 | 0x004D      |          77 |
|     527 | 0x005B      |          91 |
|     528 | 0x0058      |          88 |
|     529 | 0x0053      |          83 |
|     530 | 0x0054      |          84 |
|     531 | 0x0161      |         353 |
|     532 | 0x015C      |         348 |
|     533 | 0x016D      |         365 |
|     534 | 0x00C5      |         197 |
|     535 | 0x00C3      |         195 |
|     536 | 0x00C7      |         199 |
|     537 | 0x015E      |         350 |
|     538 | 0x00C4      |         196 |
|     539 | 0x016E      |         366 |
|     540 | 0x00CD      |         205 |
|     541 | 0x00CA      |         202 |
|     542 | 0x00D8      |         216 |
|     543 | 0x00D5      |         213 |
|     544 | 0x00D6      |         214 |
|     545 | 0x013B      |         315 |
|     546 | 0x0136      |         310 |
|     547 | 0x013A      |         314 |
|     548 | 0x0137      |         311 |
|     549 | 0x016F      |         367 |
|     550 | 0x0138      |         312 |
|     551 | 0x0139      |         313 |
|     552 | 0x0091      |         145 |
|     553 | 0x009B      |         155 |
|     554 | 0x0099      |         153 |
|     555 | 0x0092      |         146 |
|     556 | 0x0098      |         152 |
|     557 | 0x0071      |         113 |
|     558 | 0x00E8      |         232 |
|     559 | 0x00DD      |         221 |
|     560 | 0x00F8      |         248 |
|     561 | 0x00F1      |         241 |
|     562 | 0x0124      |         292 |
|     563 | 0x012E      |         302 |
|     564 | 0x0129      |         297 |
|     565 | 0x0122      |         290 |
|     566 | 0x0132      |         306 |
|     567 | 0x0126      |         294 |
|     568 | 0x0155      |         341 |
|     569 | 0x007D      |         125 |
|     570 | 0x0079      |         121 |
|     571 | 0x007C      |         124 |
|     572 | 0x00EC      |         236 |
|     573 | 0x019C      |         412 |
|     574 | 0x0193      |         403 |
|     575 | 0x01C6      |         454 |
|     576 | 0x01C7      |         455 |
|     577 | 0x21C0      |        8640 |
|     578 | 0x0090      |         144 |
|     579 | 0x21CC      |        8652 |
|     580 | 0x0063      |          99 |
|     581 | 0x21CD      |        8653 |

## String References

- **7448**: Contributing a total of $7 [Petra/Petras] to the [San d'Orian/Bastokan/Windurstian] forces, today's high scorer is %0!
- **7450**: You scored $4 [Petra/Petras] ($5 [Ballista point/Ballista points]).
- **7491**: You find the temporary item: $0!
- **7492**: You find $0, but you cannot carry any more temporary items.
- **7493**: You find $0, but you cannot carry more than one of that temporary item.
- **7494**: You find a Petra! [Keep it./Throw it away.]
- **7496**: What do you do? [Keep the item./Exchange the item./Use the item./Throw the item away.]
- **7497**: Exchange with which item? [$0./$1./$2./$3./$4./$5./$6./$7./$8./$9./$10./$11./$12./$13./$14./$15./$16./$17./$18./$19./$20./$21./$22./$23./$24./$25./$26./$27./$28./$29./$30./Return.]
- **8635**: You feel the bonds between you and your adventuring fellow strengthen!
- **8640**: There is treasure somewhere in the vicinity of this marker...
- **8652**: Your chocobo seems especially sharp today!
- **8653**: Your chocobo seems especially energetic today!

## Events

### Event 65535

#### Metadata

| Field        | Value   |
|--------------|---------|
| Entrypoint   | 0x0000  |
| Data Size    | 1 bytes |
| Instructions | 1       |

```
      00 01 02 03 04 05 06 07  08 09 0A 0B 0C 0D 0E 0F
      -- -- -- -- -- -- -- --  -- -- -- -- -- -- -- --
0000: 00                                                .               
```

#### Opcodes

```
  0: 0x0000 [0x00] END_REQSTACK()
```

### Event 65534

#### Metadata

| Field        | Value   |
|--------------|---------|
| Entrypoint   | 0x0001  |
| Data Size    | 1 bytes |
| Instructions | 1       |

```
      00 01 02 03 04 05 06 07  08 09 0A 0B 0C 0D 0E 0F
      -- -- -- -- -- -- -- --  -- -- -- -- -- -- -- --
0000:    00                                              .              
```

#### Opcodes

```
  0: 0x0001 [0x00] END_REQSTACK()
```

### Event 24

#### Metadata

| Field        | Value    |
|--------------|----------|
| Entrypoint   | 0x0002   |
| Data Size    | 42 bytes |
| Instructions | 13       |

```
      00 01 02 03 04 05 06 07  08 09 0A 0B 0C 0D 0E 0F
      -- -- -- -- -- -- -- --  -- -- -- -- -- -- -- --
0000:       20 01 42 30 47 00  02 10 03 10 04 10 05 10     .B0G.........
0010: 47 01 02 06 10 00 80 01  2A 00 48 01 80 23 02 09  G.......*.H..#..
0020: 10 02 80 01 2A 00 48 03  80 23 21 00              ....*.H..#!.    
```

#### Opcodes

```
  0: 0x0002 [0x20] SET_CLI_EVENT_UC_FLAG: Lock player control
  1: 0x0004 [0x42] SET_CLI_EVENT_CANCEL_DATA()
  2: 0x0005 [0x30] SET_UCOFF_CONTINUE_ZERO()
  3: 0x0006 [0x47] UPDATE_PLAYER_POS(Work_Zone[2], Work_Zone[3], Work_Zone[4], yaw=Work_Zone[5])
  4: 0x0010 [0x47] WAIT_PLAYER_POS_UPDATE
  5: 0x0012 [0x02] IF !(Work_Zone[6] == 4294967295*) GOTO 0x002A
  6: 0x001A [0x48] [System] [7450*]:
    → "You scored $4 [Petra/Petras] ($5 [Ballista point/Ballista points])."
  7: 0x001D [0x23] WAIT_FOR_DIALOG_INTERACTION
  8: 0x001E [0x02] IF !(Work_Zone[9] == 0*) GOTO 0x002A
  9: 0x0026 [0x48] [System] [7448*]:
    → "Contributing a total of $7 [Petra/Petras] to the [San d'Orian/Bastokan/Windurstian] forces, today's high scorer is %0!"
 10: 0x0029 [0x23] WAIT_FOR_DIALOG_INTERACTION
 11: 0x002A [0x21] END_EVENT
 12: 0x002B [0x00] END_REQSTACK()
```

### Event 28

#### Metadata

| Field        | Value    |
|--------------|----------|
| Entrypoint   | 0x002C   |
| Data Size    | 29 bytes |
| Instructions | 9        |

```
      00 01 02 03 04 05 06 07  08 09 0A 0B 0C 0D 0E 0F
      -- -- -- -- -- -- -- --  -- -- -- -- -- -- -- --
0020:                                      20 01 24 04               .$.
0030: 80 05 80 02 80 25 02 00  10 02 80 00 47 00 42 03  .....%......G.B.
0040: 01 10 05 80 01 47 00 21  00                       .....G.!.       
```

#### Opcodes

```
  0: 0x002C [0x20] SET_CLI_EVENT_UC_FLAG: Lock player control
  1: 0x002E [0x24] CREATE_DIALOG(message_id=7494*, default_option=1*, option_flags=0*)
    → "You find a Petra! [Keep it./Throw it away.]"
  2: 0x0035 [0x25] WAIT_DIALOG_SELECT()
  3: 0x0036 [0x02] IF !(Work_Zone[0] == 0*) GOTO 0x0047
  4: 0x003E [0x42] SET_CLI_EVENT_CANCEL_DATA()
  5: 0x003F [0x03] Work_Zone[1] = 1*
  6: 0x0044 [0x01] GOTO 0x0047

SUBROUTINE_0047:
  7: 0x0047 [0x21] END_EVENT
  8: 0x0048 [0x00] END_REQSTACK()
```

### Event 25

#### Metadata

| Field        | Value      |
|--------------|------------|
| Entrypoint   | 0x0049     |
| Data Size    | 4345 bytes |
| Instructions | 548        |

```
      00 01 02 03 04 05 06 07  08 09 0A 0B 0C 0D 0E 0F
      -- -- -- -- -- -- -- --  -- -- -- -- -- -- -- --
0040:                             20 01 03 01 00 02 10            ......
0050: 03 17 00 03 10 06 13 00  02 13 00 06 80 05 97 00  ................
0060: 02 13 00 07 80 04 83 00  03 14 00 13 00 08 14 00  ................
0070: 07 80 3E 05 10 14 00 80  00 3C 02 00 13 00 08 80  ..>......<......
0080: 01 91 00 3E 04 10 13 00  91 00 3C 02 00 13 00 08  ...>......<.....
0090: 80 0B 13 00 01 58 00 1A  81 04 03 12 00 16 00 03  .....X..........
00A0: 11 00 09 10 06 10 00 03  02 10 12 00 02 11 00 02  ................
00B0: 80 80 C0 00 48 09 80 23  03 10 00 08 80 01 E8 00  ....H..#........
00C0: 02 11 00 05 80 80 D4 00  48 0A 80 23 03 10 00 05  ........H..#....
00D0: 80 01 E8 00 02 11 00 08  80 80 E8 00 48 0B 80 23  ............H..#
00E0: 03 10 00 0C 80 01 E8 00  2E 03 02 10 12 00 06 13  ................
00F0: 00 02 12 00 0D 80 80 FF  00 05 13 00 01 29 01 02  .............)..
0100: 12 00 0E 80 80 0D 01 05  13 00 01 29 01 02 12 00  ...........)....
0110: 0F 80 80 1B 01 05 13 00  01 29 01 02 12 00 10 80  .........)......
0120: 80 29 01 05 13 00 01 29  01 02 13 00 05 80 00 38  .).....).......8
0130: 01 3C 10 00 08 80 05 80  24 11 80 02 80 10 00 25  .<......$......%
0140: 02 00 10 02 80 00 50 01  03 01 10 02 80 01 7E 02  ......P.......~.
0150: 02 00 10 05 80 00 5E 02  06 00 00 1A 81 04 06 02  ......^.........
0160: 10 06 03 10 06 04 10 06  05 10 06 06 10 06 07 10  ................
0170: 06 08 10 06 09 10 06 00  17 06 01 17 06 02 17 06  ................
0180: 03 17 06 04 17 06 05 17  06 06 17 06 07 17 06 08  ................
0190: 17 06 09 17 06 0A 17 06  0B 17 06 0C 17 06 0D 17  ................
01A0: 06 0E 17 06 0F 17 06 10  17 06 11 17 06 12 17 06  ................
01B0: 13 17 06 14 17 06 15 17  06 16 17 06 17 17 06 18  ................
01C0: 17 03 0F 00 00 80 06 04  00 06 00 00 02 00 00 06  ................
01D0: 80 05 00 02 3E 02 00 00  00 FA 01 03 17 00 00 00  ....>...........
01E0: 1A 81 04 03 13 00 04 00  1A 80 02 03 01 10 12 80  ................
01F0: 3D 0F 00 04 00 05 80 0B  04 00 0B 00 00 01 CC 01  =...............
0200: 03 18 17 12 00 3D 0F 00  13 80 05 80 24 14 80 02  .....=......$...
0210: 80 0F 00 25 02 00 10 13  80 00 22 02 01 E8 00 01  ...%......".....
0220: 23 02 42 03 13 00 00 10  1A 80 02 06 00 00 06 04  #.B.............
0230: 00 02 00 00 06 80 05 56  02 3E 02 00 00 00 50 02  .......V.>....P.
0240: 02 04 00 00 10 00 4D 02  03 01 10 00 00 0B 04 00  ......M.........
0250: 0B 00 00 01 31 02 07 01  10 15 80 01 7E 02 02 00  ....1.......~...
0260: 10 08 80 00 6E 02 03 01  10 08 80 01 7E 02 02 00  ....n.......~...
0270: 10 0C 80 00 7E 02 03 01  10 0C 80 01 7E 02 21 00  ....~.......~.!.
0280: 02 13 00 02 80 80 90 02  03 02 10 16 00 01 80 04  ................
0290: 02 13 00 05 80 80 A0 02  03 03 10 16 00 01 80 04  ................
02A0: 02 13 00 08 80 80 B0 02  03 04 10 16 00 01 80 04  ................
02B0: 02 13 00 0C 80 80 C0 02  03 05 10 16 00 01 80 04  ................
02C0: 02 13 00 16 80 80 D0 02  03 06 10 16 00 01 80 04  ................
02D0: 02 13 00 17 80 80 E0 02  03 07 10 16 00 01 80 04  ................
02E0: 02 13 00 18 80 80 F0 02  03 08 10 16 00 01 80 04  ................
02F0: 02 13 00 19 80 80 00 03  03 09 10 16 00 01 80 04  ................
0300: 02 13 00 1A 80 80 10 03  03 00 17 16 00 01 80 04  ................
0310: 02 13 00 1B 80 80 20 03  03 01 17 16 00 01 80 04  ...... .........
0320: 02 13 00 1C 80 80 30 03  03 02 17 16 00 01 80 04  ......0.........
0330: 02 13 00 1D 80 80 40 03  03 03 17 16 00 01 80 04  ......@.........
0340: 02 13 00 1E 80 80 50 03  03 04 17 16 00 01 80 04  ......P.........
0350: 02 13 00 1F 80 80 60 03  03 05 17 16 00 01 80 04  ......`.........
0360: 02 13 00 20 80 80 70 03  03 06 17 16 00 01 80 04  ... ..p.........
0370: 02 13 00 21 80 80 80 03  03 07 17 16 00 01 80 04  ...!............
0380: 02 13 00 22 80 80 90 03  03 08 17 16 00 01 80 04  ..."............
0390: 02 13 00 23 80 80 A0 03  03 09 17 16 00 01 80 04  ...#............
03A0: 02 13 00 24 80 80 B0 03  03 0A 17 16 00 01 80 04  ...$............
03B0: 02 13 00 25 80 80 C0 03  03 0B 17 16 00 01 80 04  ...%............
03C0: 02 13 00 26 80 80 D0 03  03 0C 17 16 00 01 80 04  ...&............
03D0: 02 13 00 27 80 80 E0 03  03 0D 17 16 00 01 80 04  ...'............
03E0: 02 13 00 28 80 80 F0 03  03 0E 17 16 00 01 80 04  ...(............
03F0: 02 13 00 29 80 80 00 04  03 0F 17 16 00 01 80 04  ...)............
0400: 02 13 00 2A 80 80 10 04  03 10 17 16 00 01 80 04  ...*............
0410: 02 13 00 2B 80 80 20 04  03 11 17 16 00 01 80 04  ...+.. .........
0420: 02 13 00 2C 80 80 30 04  03 12 17 16 00 01 80 04  ...,..0.........
0430: 02 13 00 2D 80 80 40 04  03 13 17 16 00 01 80 04  ...-..@.........
0440: 02 13 00 2E 80 80 50 04  03 14 17 16 00 01 80 04  ......P.........
0450: 02 13 00 2F 80 80 60 04  03 15 17 16 00 01 80 04  .../..`.........
0460: 02 13 00 30 80 80 70 04  03 16 17 16 00 01 80 04  ...0..p.........
0470: 02 13 00 13 80 80 80 04  03 17 17 16 00 01 80 04  ................
0480: 1B 1A A1 10 02 1B 00 05  80 80 74 07 02 17 00 00  ..........t.....
0490: 80 80 9C 04 03 16 00 02  80 01 71 07 02 17 00 02  ..........q.....
04A0: 80 80 AC 04 03 16 00 31  80 01 71 07 02 17 00 05  .......1..q.....
04B0: 80 80 BC 04 03 16 00 32  80 01 71 07 02 17 00 08  .......2..q.....
04C0: 80 80 CC 04 03 16 00 33  80 01 71 07 02 17 00 0C  .......3..q.....
04D0: 80 80 DC 04 03 16 00 34  80 01 71 07 02 17 00 16  .......4..q.....
04E0: 80 80 EC 04 03 16 00 35  80 01 71 07 02 17 00 17  .......5..q.....
04F0: 80 80 FC 04 03 16 00 36  80 01 71 07 02 17 00 18  .......6..q.....
0500: 80 80 0C 05 03 16 00 37  80 01 71 07 02 17 00 19  .......7..q.....
0510: 80 80 1C 05 03 16 00 38  80 01 71 07 02 17 00 1A  .......8..q.....
0520: 80 80 2C 05 03 16 00 39  80 01 71 07 02 17 00 1B  ..,....9..q.....
0530: 80 80 3C 05 03 16 00 3A  80 01 71 07 02 17 00 1C  ..<....:..q.....
0540: 80 80 4C 05 03 16 00 3B  80 01 71 07 02 17 00 1D  ..L....;..q.....
0550: 80 80 5C 05 03 16 00 3C  80 01 71 07 02 17 00 1E  ..\....<..q.....
0560: 80 80 6C 05 03 16 00 3D  80 01 71 07 02 17 00 1F  ..l....=..q.....
0570: 80 80 7C 05 03 16 00 3E  80 01 71 07 02 17 00 20  ..|....>..q.... 
0580: 80 80 8C 05 03 16 00 3F  80 01 71 07 02 17 00 21  .......?..q....!
0590: 80 80 9C 05 03 16 00 40  80 01 71 07 02 17 00 22  .......@..q...."
05A0: 80 80 AC 05 03 16 00 41  80 01 71 07 02 17 00 23  .......A..q....#
05B0: 80 80 BC 05 03 16 00 42  80 01 71 07 02 17 00 24  .......B..q....$
05C0: 80 80 CC 05 03 16 00 43  80 01 71 07 02 17 00 25  .......C..q....%
05D0: 80 80 DC 05 03 16 00 44  80 01 71 07 02 17 00 26  .......D..q....&
05E0: 80 80 EC 05 03 16 00 45  80 01 71 07 02 17 00 27  .......E..q....'
05F0: 80 80 FC 05 03 16 00 46  80 01 71 07 02 17 00 28  .......F..q....(
0600: 80 80 0C 06 03 16 00 47  80 01 71 07 02 17 00 29  .......G..q....)
0610: 80 80 1C 06 03 16 00 48  80 01 71 07 02 17 00 2A  .......H..q....*
0620: 80 80 2C 06 03 16 00 49  80 01 71 07 02 17 00 2B  ..,....I..q....+
0630: 80 80 3C 06 03 16 00 4A  80 01 71 07 02 17 00 2C  ..<....J..q....,
0640: 80 80 4C 06 03 16 00 4B  80 01 71 07 02 17 00 2D  ..L....K..q....-
0650: 80 80 5C 06 03 16 00 4C  80 01 71 07 02 17 00 2E  ..\....L..q.....
0660: 80 80 6C 06 03 16 00 4D  80 01 71 07 02 17 00 2F  ..l....M..q..../
0670: 80 80 7C 06 03 16 00 4E  80 01 71 07 02 17 00 30  ..|....N..q....0
0680: 80 80 8C 06 03 16 00 4F  80 01 71 07 02 17 00 13  .......O..q.....
0690: 80 80 9C 06 03 16 00 50  80 01 71 07 02 17 00 07  .......P..q.....
06A0: 80 80 AC 06 03 16 00 51  80 01 71 07 02 17 00 52  .......Q..q....R
06B0: 80 80 BC 06 03 16 00 53  80 01 71 07 02 17 00 54  .......S..q....T
06C0: 80 80 CC 06 03 16 00 55  80 01 71 07 02 17 00 56  .......U..q....V
06D0: 80 80 DC 06 03 16 00 57  80 01 71 07 02 17 00 58  .......W..q....X
06E0: 80 80 EC 06 03 16 00 0D  80 01 71 07 02 17 00 59  ..........q....Y
06F0: 80 80 FC 06 03 16 00 0E  80 01 71 07 02 17 00 5A  ..........q....Z
0700: 80 80 0C 07 03 16 00 0F  80 01 71 07 02 17 00 5B  ..........q....[
0710: 80 80 1C 07 03 16 00 10  80 01 71 07 02 17 00 5C  ..........q....\
0720: 80 80 2C 07 03 16 00 5D  80 01 71 07 02 17 00 5E  ..,....]..q....^
0730: 80 80 3C 07 03 16 00 5F  80 01 71 07 02 17 00 60  ..<...._..q....`
0740: 80 80 4C 07 03 16 00 61  80 01 71 07 02 17 00 62  ..L....a..q....b
0750: 80 80 5C 07 03 16 00 63  80 01 71 07 02 17 00 64  ..\....c..q....d
0760: 80 80 6C 07 03 16 00 65  80 01 71 07 03 16 00 02  ..l....e..q.....
0770: 80 01 84 0A 02 1B 00 08  80 80 84 0A 02 17 00 00  ................
0780: 80 80 8C 07 03 16 00 02  80 01 81 0A 02 17 00 02  ................
0790: 80 80 9C 07 03 16 00 32  80 01 81 0A 02 17 00 05  .......2........
07A0: 80 80 AC 07 03 16 00 33  80 01 81 0A 02 17 00 08  .......3........
07B0: 80 80 BC 07 03 16 00 66  80 01 81 0A 02 17 00 0C  .......f........
07C0: 80 80 CC 07 03 16 00 35  80 01 81 0A 02 17 00 16  .......5........
07D0: 80 80 DC 07 03 16 00 36  80 01 81 0A 02 17 00 17  .......6........
07E0: 80 80 EC 07 03 16 00 67  80 01 81 0A 02 17 00 18  .......g........
07F0: 80 80 FC 07 03 16 00 68  80 01 81 0A 02 17 00 19  .......h........
0800: 80 80 0C 08 03 16 00 37  80 01 81 0A 02 17 00 1A  .......7........
0810: 80 80 1C 08 03 16 00 39  80 01 81 0A 02 17 00 1B  .......9........
0820: 80 80 2C 08 03 16 00 3A  80 01 81 0A 02 17 00 1C  ..,....:........
0830: 80 80 3C 08 03 16 00 3B  80 01 81 0A 02 17 00 1D  ..<....;........
0840: 80 80 4C 08 03 16 00 3C  80 01 81 0A 02 17 00 1E  ..L....<........
0850: 80 80 5C 08 03 16 00 69  80 01 81 0A 02 17 00 1F  ..\....i........
0860: 80 80 6C 08 03 16 00 3E  80 01 81 0A 02 17 00 20  ..l....>....... 
0870: 80 80 7C 08 03 16 00 3F  80 01 81 0A 02 17 00 21  ..|....?.......!
0880: 80 80 8C 08 03 16 00 40  80 01 81 0A 02 17 00 22  .......@......."
0890: 80 80 9C 08 03 16 00 41  80 01 81 0A 02 17 00 23  .......A.......#
08A0: 80 80 AC 08 03 16 00 42  80 01 81 0A 02 17 00 24  .......B.......$
08B0: 80 80 BC 08 03 16 00 43  80 01 81 0A 02 17 00 25  .......C.......%
08C0: 80 80 CC 08 03 16 00 44  80 01 81 0A 02 17 00 26  .......D.......&
08D0: 80 80 DC 08 03 16 00 45  80 01 81 0A 02 17 00 27  .......E.......'
08E0: 80 80 EC 08 03 16 00 46  80 01 81 0A 02 17 00 28  .......F.......(
08F0: 80 80 FC 08 03 16 00 47  80 01 81 0A 02 17 00 29  .......G.......)
0900: 80 80 0C 09 03 16 00 48  80 01 81 0A 02 17 00 2A  .......H.......*
0910: 80 80 1C 09 03 16 00 49  80 01 81 0A 02 17 00 2B  .......I.......+
0920: 80 80 2C 09 03 16 00 4A  80 01 81 0A 02 17 00 2C  ..,....J.......,
0930: 80 80 3C 09 03 16 00 6A  80 01 81 0A 02 17 00 2D  ..<....j.......-
0940: 80 80 4C 09 03 16 00 6B  80 01 81 0A 02 17 00 2E  ..L....k........
0950: 80 80 5C 09 03 16 00 6C  80 01 81 0A 02 17 00 2F  ..\....l......./
0960: 80 80 6C 09 03 16 00 6D  80 01 81 0A 02 17 00 30  ..l....m.......0
0970: 80 80 7C 09 03 16 00 6E  80 01 81 0A 02 17 00 13  ..|....n........
0980: 80 80 8C 09 03 16 00 6F  80 01 81 0A 02 17 00 07  .......o........
0990: 80 80 9C 09 03 16 00 4F  80 01 81 0A 02 17 00 52  .......O.......R
09A0: 80 80 AC 09 03 16 00 50  80 01 81 0A 02 17 00 54  .......P.......T
09B0: 80 80 BC 09 03 16 00 51  80 01 81 0A 02 17 00 56  .......Q.......V
09C0: 80 80 CC 09 03 16 00 53  80 01 81 0A 02 17 00 58  .......S.......X
09D0: 80 80 DC 09 03 16 00 55  80 01 81 0A 02 17 00 59  .......U.......Y
09E0: 80 80 EC 09 03 16 00 57  80 01 81 0A 02 17 00 5A  .......W.......Z
09F0: 80 80 FC 09 03 16 00 0D  80 01 81 0A 02 17 00 5B  ...............[
0A00: 80 80 0C 0A 03 16 00 0E  80 01 81 0A 02 17 00 5C  ...............\
0A10: 80 80 1C 0A 03 16 00 0F  80 01 81 0A 02 17 00 5E  ...............^
0A20: 80 80 2C 0A 03 16 00 10  80 01 81 0A 02 17 00 60  ..,............`
0A30: 80 80 3C 0A 03 16 00 5D  80 01 81 0A 02 17 00 62  ..<....].......b
0A40: 80 80 4C 0A 03 16 00 5F  80 01 81 0A 02 17 00 64  ..L...._.......d
0A50: 80 80 5C 0A 03 16 00 61  80 01 81 0A 02 17 00 70  ..\....a.......p
0A60: 80 80 6C 0A 03 16 00 63  80 01 81 0A 02 17 00 71  ..l....c.......q
0A70: 80 80 7C 0A 03 16 00 65  80 01 81 0A 03 16 00 02  ..|....e........
0A80: 80 01 84 0A 1B 1A A1 10  03 18 00 00 80 02 1B 00  ................
0A90: 05 80 80 78 0D 02 19 00  02 80 80 A0 0A 01 75 0D  ...x..........u.
0AA0: 02 19 00 31 80 80 B0 0A  03 18 00 02 80 01 75 0D  ...1..........u.
0AB0: 02 19 00 32 80 80 C0 0A  03 18 00 05 80 01 75 0D  ...2..........u.
0AC0: 02 19 00 33 80 80 D0 0A  03 18 00 08 80 01 75 0D  ...3..........u.
0AD0: 02 19 00 34 80 80 E0 0A  03 18 00 0C 80 01 75 0D  ...4..........u.
0AE0: 02 19 00 35 80 80 F0 0A  03 18 00 16 80 01 75 0D  ...5..........u.
0AF0: 02 19 00 36 80 80 00 0B  03 18 00 17 80 01 75 0D  ...6..........u.
0B00: 02 19 00 37 80 80 10 0B  03 18 00 18 80 01 75 0D  ...7..........u.
0B10: 02 19 00 38 80 80 20 0B  03 18 00 19 80 01 75 0D  ...8.. .......u.
0B20: 02 19 00 39 80 80 30 0B  03 18 00 1A 80 01 75 0D  ...9..0.......u.
0B30: 02 19 00 3A 80 80 40 0B  03 18 00 1B 80 01 75 0D  ...:..@.......u.
0B40: 02 19 00 3B 80 80 50 0B  03 18 00 1C 80 01 75 0D  ...;..P.......u.
0B50: 02 19 00 3C 80 80 60 0B  03 18 00 1D 80 01 75 0D  ...<..`.......u.
0B60: 02 19 00 3D 80 80 70 0B  03 18 00 1E 80 01 75 0D  ...=..p.......u.
0B70: 02 19 00 3E 80 80 80 0B  03 18 00 1F 80 01 75 0D  ...>..........u.
0B80: 02 19 00 3F 80 80 90 0B  03 18 00 20 80 01 75 0D  ...?....... ..u.
0B90: 02 19 00 40 80 80 A0 0B  03 18 00 21 80 01 75 0D  ...@.......!..u.
0BA0: 02 19 00 41 80 80 B0 0B  03 18 00 22 80 01 75 0D  ...A......."..u.
0BB0: 02 19 00 42 80 80 C0 0B  03 18 00 23 80 01 75 0D  ...B.......#..u.
0BC0: 02 19 00 43 80 80 D0 0B  03 18 00 24 80 01 75 0D  ...C.......$..u.
0BD0: 02 19 00 44 80 80 E0 0B  03 18 00 25 80 01 75 0D  ...D.......%..u.
0BE0: 02 19 00 45 80 80 F0 0B  03 18 00 26 80 01 75 0D  ...E.......&..u.
0BF0: 02 19 00 46 80 80 00 0C  03 18 00 27 80 01 75 0D  ...F.......'..u.
0C00: 02 19 00 47 80 80 10 0C  03 18 00 28 80 01 75 0D  ...G.......(..u.
0C10: 02 19 00 48 80 80 20 0C  03 18 00 29 80 01 75 0D  ...H.. ....)..u.
0C20: 02 19 00 49 80 80 30 0C  03 18 00 2A 80 01 75 0D  ...I..0....*..u.
0C30: 02 19 00 4A 80 80 40 0C  03 18 00 2B 80 01 75 0D  ...J..@....+..u.
0C40: 02 19 00 4B 80 80 50 0C  03 18 00 2C 80 01 75 0D  ...K..P....,..u.
0C50: 02 19 00 4C 80 80 60 0C  03 18 00 2D 80 01 75 0D  ...L..`....-..u.
0C60: 02 19 00 4D 80 80 70 0C  03 18 00 2E 80 01 75 0D  ...M..p.......u.
0C70: 02 19 00 4E 80 80 80 0C  03 18 00 2F 80 01 75 0D  ...N......./..u.
0C80: 02 19 00 4F 80 80 90 0C  03 18 00 30 80 01 75 0D  ...O.......0..u.
0C90: 02 19 00 50 80 80 A0 0C  03 18 00 13 80 01 75 0D  ...P..........u.
0CA0: 02 19 00 51 80 80 B0 0C  03 18 00 07 80 01 75 0D  ...Q..........u.
0CB0: 02 19 00 53 80 80 C0 0C  03 18 00 52 80 01 75 0D  ...S.......R..u.
0CC0: 02 19 00 55 80 80 D0 0C  03 18 00 54 80 01 75 0D  ...U.......T..u.
0CD0: 02 19 00 57 80 80 E0 0C  03 18 00 56 80 01 75 0D  ...W.......V..u.
0CE0: 02 19 00 0D 80 80 F0 0C  03 18 00 58 80 01 75 0D  ...........X..u.
0CF0: 02 19 00 0E 80 80 00 0D  03 18 00 59 80 01 75 0D  ...........Y..u.
0D00: 02 19 00 0F 80 80 10 0D  03 18 00 5A 80 01 75 0D  ...........Z..u.
0D10: 02 19 00 10 80 80 20 0D  03 18 00 5B 80 01 75 0D  ...... ....[..u.
0D20: 02 19 00 5D 80 80 30 0D  03 16 00 5C 80 01 75 0D  ...]..0....\..u.
0D30: 02 19 00 5F 80 80 40 0D  03 16 00 5E 80 01 75 0D  ..._..@....^..u.
0D40: 02 19 00 61 80 80 50 0D  03 16 00 60 80 01 75 0D  ...a..P....`..u.
0D50: 02 19 00 63 80 80 60 0D  03 16 00 62 80 01 75 0D  ...c..`....b..u.
0D60: 02 19 00 65 80 80 70 0D  03 16 00 64 80 01 75 0D  ...e..p....d..u.
0D70: 03 18 00 00 80 01 83 10  02 1B 00 08 80 80 83 10  ................
0D80: 02 19 00 02 80 80 8B 0D  01 80 10 02 19 00 32 80  ..............2.
0D90: 80 9B 0D 03 18 00 02 80  01 80 10 02 19 00 33 80  ..............3.
0DA0: 80 AB 0D 03 18 00 05 80  01 80 10 02 19 00 66 80  ..............f.
0DB0: 80 BB 0D 03 18 00 08 80  01 80 10 02 19 00 35 80  ..............5.
0DC0: 80 CB 0D 03 18 00 0C 80  01 80 10 02 19 00 36 80  ..............6.
0DD0: 80 DB 0D 03 18 00 16 80  01 80 10 02 19 00 67 80  ..............g.
0DE0: 80 EB 0D 03 18 00 17 80  01 80 10 02 19 00 68 80  ..............h.
0DF0: 80 FB 0D 03 18 00 18 80  01 80 10 02 19 00 37 80  ..............7.
0E00: 80 0B 0E 03 18 00 19 80  01 80 10 02 19 00 39 80  ..............9.
0E10: 80 1B 0E 03 18 00 1A 80  01 80 10 02 19 00 3A 80  ..............:.
0E20: 80 2B 0E 03 18 00 1B 80  01 80 10 02 19 00 3B 80  .+............;.
0E30: 80 3B 0E 03 18 00 1C 80  01 80 10 02 19 00 3C 80  .;............<.
0E40: 80 4B 0E 03 18 00 1D 80  01 80 10 02 19 00 69 80  .K............i.
0E50: 80 5B 0E 03 18 00 1E 80  01 80 10 02 19 00 3E 80  .[............>.
0E60: 80 6B 0E 03 18 00 1F 80  01 80 10 02 19 00 3F 80  .k............?.
0E70: 80 7B 0E 03 18 00 20 80  01 80 10 02 19 00 40 80  .{.... .......@.
0E80: 80 8B 0E 03 18 00 21 80  01 80 10 02 19 00 41 80  ......!.......A.
0E90: 80 9B 0E 03 18 00 22 80  01 80 10 02 19 00 42 80  ......".......B.
0EA0: 80 AB 0E 03 18 00 23 80  01 80 10 02 19 00 43 80  ......#.......C.
0EB0: 80 BB 0E 03 18 00 24 80  01 80 10 02 19 00 44 80  ......$.......D.
0EC0: 80 CB 0E 03 18 00 25 80  01 80 10 02 19 00 45 80  ......%.......E.
0ED0: 80 DB 0E 03 18 00 26 80  01 80 10 02 19 00 46 80  ......&.......F.
0EE0: 80 EB 0E 03 18 00 27 80  01 80 10 02 19 00 47 80  ......'.......G.
0EF0: 80 FB 0E 03 18 00 28 80  01 80 10 02 19 00 48 80  ......(.......H.
0F00: 80 0B 0F 03 18 00 29 80  01 80 10 02 19 00 49 80  ......).......I.
0F10: 80 1B 0F 03 18 00 2A 80  01 80 10 02 19 00 4A 80  ......*.......J.
0F20: 80 2B 0F 03 18 00 2B 80  01 80 10 02 19 00 6A 80  .+....+.......j.
0F30: 80 3B 0F 03 18 00 2C 80  01 80 10 02 19 00 6B 80  .;....,.......k.
0F40: 80 4B 0F 03 18 00 2D 80  01 80 10 02 19 00 6C 80  .K....-.......l.
0F50: 80 5B 0F 03 18 00 2E 80  01 80 10 02 19 00 6D 80  .[............m.
0F60: 80 6B 0F 03 18 00 2F 80  01 80 10 02 19 00 6E 80  .k..../.......n.
0F70: 80 7B 0F 03 18 00 30 80  01 80 10 02 19 00 6F 80  .{....0.......o.
0F80: 80 8B 0F 03 18 00 13 80  01 80 10 02 19 00 4F 80  ..............O.
0F90: 80 9B 0F 03 18 00 07 80  01 80 10 02 19 00 50 80  ..............P.
0FA0: 80 AB 0F 03 18 00 52 80  01 80 10 02 19 00 51 80  ......R.......Q.
0FB0: 80 BB 0F 03 18 00 54 80  01 80 10 02 19 00 53 80  ......T.......S.
0FC0: 80 CB 0F 03 18 00 56 80  01 80 10 02 19 00 55 80  ......V.......U.
0FD0: 80 DB 0F 03 18 00 58 80  01 80 10 02 19 00 57 80  ......X.......W.
0FE0: 80 EB 0F 03 18 00 59 80  01 80 10 02 19 00 0D 80  ......Y.........
0FF0: 80 FB 0F 03 18 00 5A 80  01 80 10 02 19 00 0E 80  ......Z.........
1000: 80 0B 10 03 18 00 5B 80  01 80 10 02 19 00 0F 80  ......[.........
1010: 80 1B 10 03 18 00 5C 80  01 80 10 02 19 00 10 80  ......\.........
1020: 80 2B 10 03 18 00 5E 80  01 80 10 02 19 00 5D 80  .+....^.......].
1030: 80 3B 10 03 16 00 60 80  01 80 10 02 19 00 5F 80  .;....`......._.
1040: 80 4B 10 03 16 00 62 80  01 80 10 02 19 00 61 80  .K....b.......a.
1050: 80 5B 10 03 16 00 64 80  01 80 10 02 19 00 63 80  .[....d.......c.
1060: 80 6B 10 03 16 00 70 80  01 80 10 02 19 00 65 80  .k....p.......e.
1070: 80 7B 10 03 16 00 71 80  01 80 10 03 18 00 00 80  .{....q.........
1080: 01 83 10 06 1A 00 02 18  00 02 80 04 A0 10 02 18  ................
1090: 00 06 80 05 A0 10 3E 02  00 18 00 A0 10 05 1A 00  ......>.........
10A0: 1B 06 1B 00 06 1C 00 02  01 00 1C 80 80 BA 10 03  ................
10B0: 1B 00 05 80 05 1C 00 01  22 11 02 01 00 26 80 80  ........"....&..
10C0: CD 10 03 1B 00 05 80 05  1C 00 01 22 11 02 01 00  ..........."....
10D0: 30 80 80 DD 10 03 1B 00  05 80 01 22 11 02 01 00  0.........."....
10E0: 5C 80 80 ED 10 03 1B 00  05 80 01 22 11 02 01 00  \.........."....
10F0: 72 80 80 FD 10 03 1B 00  08 80 01 22 11 02 01 00  r.........."....
1100: 73 80 80 0D 11 03 1B 00  08 80 01 22 11 02 01 00  s.........."....
1110: 02 80 80 1D 11 03 1B 00  08 80 01 22 11 03 1B 00  ..........."....
1120: 05 80 1B 06 14 00 06 15  00 02 14 00 06 80 05 41  ...............A
1130: 11 3E 02 00 14 00 3B 11  0B 15 00 0B 14 00 01 29  .>....;........)
1140: 11 1B                                             ..              
```

#### Opcodes

```
  0: 0x0049 [0x20] SET_CLI_EVENT_UC_FLAG: Lock player control
  1: 0x004B [0x03] ExtData[1]->WorkLocal[1] = Work_Zone[2]
  2: 0x0050 [0x03] ExtData[1]->WorkLocal[23] = Work_Zone[3]
  3: 0x0055 [0x06] ExtData[1]->WorkLocal[19] = 0
  4: 0x0058 [0x02] IF !(ExtData[1]->WorkLocal[19] > 63*) GOTO 0x0097
  5: 0x0060 [0x02] IF !(ExtData[1]->WorkLocal[19] < 32*) GOTO 0x0083
  6: 0x0068 [0x03] ExtData[1]->WorkLocal[20] = ExtData[1]->WorkLocal[19]
  7: 0x006D [0x08] ExtData[1]->WorkLocal[20] -= 32*
  8: 0x0072 [0x3E] IF !(Work_Zone[5] bit ExtData[1]->WorkLocal[20]) GOTO 0x0080
  9: 0x0079 [0x3C] SET_BIT_FLAG_CONDITIONAL(target_work_offset=ExtData[1]->WorkLocal[2], bit_index_work_offset=ExtData[1]->WorkLocal[19], condition_work_offset=2*)
 10: 0x0080 [0x01] GOTO 0x0091
 11: 0x0083 [0x3E] IF !(Work_Zone[4] bit ExtData[1]->WorkLocal[19]) GOTO 0x0091
 12: 0x008A [0x3C] SET_BIT_FLAG_CONDITIONAL(target_work_offset=ExtData[1]->WorkLocal[2], bit_index_work_offset=ExtData[1]->WorkLocal[19], condition_work_offset=2*)

SUBROUTINE_0091:
 13: 0x0091 [0x0B] ExtData[1]->WorkLocal[19]++
 14: 0x0094 [0x01] GOTO 0x0058
 15: 0x0097 [0x1A] CALL_SUBROUTINE(address=0x0481)
 16: 0x009A [0x03] ExtData[1]->WorkLocal[18] = ExtData[1]->WorkLocal[22]
 17: 0x009F [0x03] ExtData[1]->WorkLocal[17] = Work_Zone[9]
 18: 0x00A4 [0x06] ExtData[1]->WorkLocal[16] = 0
 19: 0x00A7 [0x03] Work_Zone[2] = ExtData[1]->WorkLocal[18]
 20: 0x00AC [0x02] IF !(ExtData[1]->WorkLocal[17] == 0*) GOTO 0x00C0
 21: 0x00B4 [0x48] [System] [7491*]:
    → "You find the temporary item: $0!"
 22: 0x00B7 [0x23] WAIT_FOR_DIALOG_INTERACTION
 23: 0x00B8 [0x03] ExtData[1]->WorkLocal[16] = 2*
 24: 0x00BD [0x01] GOTO 0x00E8
 25: 0x00C0 [0x02] IF !(ExtData[1]->WorkLocal[17] == 1*) GOTO 0x00D4
 26: 0x00C8 [0x48] [System] [7492*]:
    → "You find $0, but you cannot carry any more temporary items."
 27: 0x00CB [0x23] WAIT_FOR_DIALOG_INTERACTION
 28: 0x00CC [0x03] ExtData[1]->WorkLocal[16] = 1*
 29: 0x00D1 [0x01] GOTO 0x00E8
 30: 0x00D4 [0x02] IF !(ExtData[1]->WorkLocal[17] == 2*) GOTO 0x00E8
 31: 0x00DC [0x48] [System] [7493*]:
    → "You find $0, but you cannot carry more than one of that temporary item."
 32: 0x00DF [0x23] WAIT_FOR_DIALOG_INTERACTION
 33: 0x00E0 [0x03] ExtData[1]->WorkLocal[16] = 3*
 34: 0x00E5 [0x01] GOTO 0x00E8

SUBROUTINE_00E8:
 35: 0x00E8 [0x2E] SET_CLI_EVENT_CANCEL_FLAGS()
 36: 0x00E9 [0x03] Work_Zone[2] = ExtData[1]->WorkLocal[18]
 37: 0x00EE [0x06] ExtData[1]->WorkLocal[19] = 0
 38: 0x00F1 [0x02] IF !(ExtData[1]->WorkLocal[18] == 4210*) GOTO 0x00FF
 39: 0x00F9 [0x05] ExtData[1]->WorkLocal[19] = 1
 40: 0x00FC [0x01] GOTO 0x0129
 41: 0x00FF [0x02] IF !(ExtData[1]->WorkLocal[18] == 4212*) GOTO 0x010D
 42: 0x0107 [0x05] ExtData[1]->WorkLocal[19] = 1
 43: 0x010A [0x01] GOTO 0x0129
 44: 0x010D [0x02] IF !(ExtData[1]->WorkLocal[18] == 5304*) GOTO 0x011B
 45: 0x0115 [0x05] ExtData[1]->WorkLocal[19] = 1
 46: 0x0118 [0x01] GOTO 0x0129
 47: 0x011B [0x02] IF !(ExtData[1]->WorkLocal[18] == 5305*) GOTO 0x0129
 48: 0x0123 [0x05] ExtData[1]->WorkLocal[19] = 1
 49: 0x0126 [0x01] GOTO 0x0129

SUBROUTINE_0129:
 50: 0x0129 [0x02] IF !(ExtData[1]->WorkLocal[19] == 1*) GOTO 0x0138
 51: 0x0131 [0x3C] SET_BIT_FLAG_CONDITIONAL(target_work_offset=ExtData[1]->WorkLocal[16], bit_index_work_offset=2*, condition_work_offset=1*)
 52: 0x0138 [0x24] CREATE_DIALOG(message_id=7496*, default_option=0*, option_flags=ExtData[1]->WorkLocal[16])
    → "What do you do? [Keep the item./Exchange the item./Use the item./Throw the item away.]"
 53: 0x013F [0x25] WAIT_DIALOG_SELECT()
 54: 0x0140 [0x02] IF !(Work_Zone[0] == 0*) GOTO 0x0150
 55: 0x0148 [0x03] Work_Zone[1] = 0*
 56: 0x014D [0x01] GOTO 0x027E
 57: 0x0150 [0x02] IF !(Work_Zone[0] == 1*) GOTO 0x025E
 58: 0x0158 [0x06] ExtData[1]->WorkLocal[0] = 0
 59: 0x015B [0x1A] CALL_SUBROUTINE(address=0x0481)
 60: 0x015E [0x06] Work_Zone[2] = 0
 61: 0x0161 [0x06] Work_Zone[3] = 0
 62: 0x0164 [0x06] Work_Zone[4] = 0
 63: 0x0167 [0x06] Work_Zone[5] = 0
 64: 0x016A [0x06] Work_Zone[6] = 0
 65: 0x016D [0x06] Work_Zone[7] = 0
 66: 0x0170 [0x06] Work_Zone[8] = 0
 67: 0x0173 [0x06] Work_Zone[9] = 0
 68: 0x0176 [0x06] Work_Zone_1700[0] = 0
 69: 0x0179 [0x06] Work_Zone_1700[1] = 0
 70: 0x017C [0x06] Work_Zone_1700[2] = 0
 71: 0x017F [0x06] Work_Zone_1700[3] = 0
 72: 0x0182 [0x06] Work_Zone_1700[4] = 0
 73: 0x0185 [0x06] Work_Zone_1700[5] = 0
 74: 0x0188 [0x06] Work_Zone_1700[6] = 0
 75: 0x018B [0x06] Work_Zone_1700[7] = 0
 76: 0x018E [0x06] Work_Zone_1700[8] = 0
 77: 0x0191 [0x06] Work_Zone_1700[9] = 0
 78: 0x0194 [0x06] Work_Zone_1700[10] = 0
 79: 0x0197 [0x06] Work_Zone_1700[11] = 0
 80: 0x019A [0x06] Work_Zone_1700[12] = 0
 81: 0x019D [0x06] Work_Zone_1700[13] = 0
 82: 0x01A0 [0x06] Work_Zone_1700[14] = 0
 83: 0x01A3 [0x06] Work_Zone_1700[15] = 0
 84: 0x01A6 [0x06] Work_Zone_1700[16] = 0
 85: 0x01A9 [0x06] Work_Zone_1700[17] = 0
 86: 0x01AC [0x06] Work_Zone_1700[18] = 0
 87: 0x01AF [0x06] Work_Zone_1700[19] = 0
 88: 0x01B2 [0x06] Work_Zone_1700[20] = 0
 89: 0x01B5 [0x06] Work_Zone_1700[21] = 0
 90: 0x01B8 [0x06] Work_Zone_1700[22] = 0
 91: 0x01BB [0x06] Work_Zone_1700[23] = 0
 92: 0x01BE [0x06] Work_Zone_1700[24] = 0
 93: 0x01C1 [0x03] ExtData[1]->WorkLocal[15] = 4294967295*
 94: 0x01C6 [0x06] ExtData[1]->WorkLocal[4] = 0
 95: 0x01C9 [0x06] ExtData[1]->WorkLocal[0] = 0

SUBROUTINE_01CC:
 96: 0x01CC [0x02] IF !(ExtData[1]->WorkLocal[0] > 63*) GOTO 0x0200
 97: 0x01D4 [0x3E] IF !(ExtData[1]->WorkLocal[2] bit ExtData[1]->WorkLocal[0]) GOTO 0x01FA
 98: 0x01DB [0x03] ExtData[1]->WorkLocal[23] = ExtData[1]->WorkLocal[0]
 99: 0x01E0 [0x1A] CALL_SUBROUTINE(address=0x0481)
100: 0x01E3 [0x03] ExtData[1]->WorkLocal[19] = ExtData[1]->WorkLocal[4]
101: 0x01E8 [0x1A] CALL_SUBROUTINE(address=0x0280)
102: 0x01EB [0x03] Work_Zone[1] = 1073741824*
103: 0x01F0 [0x3D] CLEAR_BIT_FLAG_CONDITIONAL(target_work_offset=ExtData[1]->WorkLocal[15], bit_index_work_offset=ExtData[1]->WorkLocal[4], condition_work_offset=1*)
104: 0x01F7 [0x0B] ExtData[1]->WorkLocal[4]++
105: 0x01FA [0x0B] ExtData[1]->WorkLocal[0]++
106: 0x01FD [0x01] GOTO 0x01CC
107: 0x0200 [0x03] Work_Zone_1700[24] = ExtData[1]->WorkLocal[18]
108: 0x0205 [0x3D] CLEAR_BIT_FLAG_CONDITIONAL(target_work_offset=ExtData[1]->WorkLocal[15], bit_index_work_offset=31*, condition_work_offset=1*)
109: 0x020C [0x24] CREATE_DIALOG(message_id=7497*, default_option=0*, option_flags=ExtData[1]->WorkLocal[15])
    → "Exchange with which item? [$0./$1./$2./$3./$4./$5./$6./$7./$8./$9./$10./$11./$12./$13./$14./$15./$16./$17./$18./$19./$20./$21./$22./$23./$24./$25./$26./$27./$28./$29./$30./Return.]"
110: 0x0213 [0x25] WAIT_DIALOG_SELECT()
111: 0x0214 [0x02] IF !(Work_Zone[0] == 31*) GOTO 0x0222
112: 0x021C [0x01] GOTO 0x00E8

SUBROUTINE_0223:
113: 0x0223 [0x03] ExtData[1]->WorkLocal[19] = Work_Zone[0]
114: 0x0228 [0x1A] CALL_SUBROUTINE(address=0x0280)
115: 0x022B [0x06] ExtData[1]->WorkLocal[0] = 0
116: 0x022E [0x06] ExtData[1]->WorkLocal[4] = 0

SUBROUTINE_0231:
117: 0x0231 [0x02] IF !(ExtData[1]->WorkLocal[0] > 63*) GOTO 0x0256
118: 0x0239 [0x3E] IF !(ExtData[1]->WorkLocal[2] bit ExtData[1]->WorkLocal[0]) GOTO 0x0250
119: 0x0240 [0x02] IF !(ExtData[1]->WorkLocal[4] == Work_Zone[0]) GOTO 0x024D
120: 0x0248 [0x03] Work_Zone[1] = ExtData[1]->WorkLocal[0]
121: 0x024D [0x0B] ExtData[1]->WorkLocal[4]++
122: 0x0250 [0x0B] ExtData[1]->WorkLocal[0]++
123: 0x0253 [0x01] GOTO 0x0231
124: 0x0256 [0x07] Work_Zone[1] += 1000*
125: 0x025B [0x01] GOTO 0x027E
126: 0x025E [0x02] IF !(Work_Zone[0] == 2*) GOTO 0x026E
127: 0x0266 [0x03] Work_Zone[1] = 2*
128: 0x026B [0x01] GOTO 0x027E
129: 0x026E [0x02] IF !(Work_Zone[0] == 3*) GOTO 0x027E
130: 0x0276 [0x03] Work_Zone[1] = 3*
131: 0x027B [0x01] GOTO 0x027E

SUBROUTINE_027E:
132: 0x027E [0x21] END_EVENT
133: 0x027F [0x00] END_REQSTACK()

SUBROUTINE_0280:
134: 0x0280 [0x02] IF !(ExtData[1]->WorkLocal[19] == 0*) GOTO 0x0290
135: 0x0288 [0x03] Work_Zone[2] = ExtData[1]->WorkLocal[22]
136: 0x028D [0x01] GOTO 0x0480
137: 0x0290 [0x02] IF !(ExtData[1]->WorkLocal[19] == 1*) GOTO 0x02A0
138: 0x0298 [0x03] Work_Zone[3] = ExtData[1]->WorkLocal[22]
139: 0x029D [0x01] GOTO 0x0480
140: 0x02A0 [0x02] IF !(ExtData[1]->WorkLocal[19] == 2*) GOTO 0x02B0
141: 0x02A8 [0x03] Work_Zone[4] = ExtData[1]->WorkLocal[22]
142: 0x02AD [0x01] GOTO 0x0480
143: 0x02B0 [0x02] IF !(ExtData[1]->WorkLocal[19] == 3*) GOTO 0x02C0
144: 0x02B8 [0x03] Work_Zone[5] = ExtData[1]->WorkLocal[22]
145: 0x02BD [0x01] GOTO 0x0480
146: 0x02C0 [0x02] IF !(ExtData[1]->WorkLocal[19] == 4*) GOTO 0x02D0
147: 0x02C8 [0x03] Work_Zone[6] = ExtData[1]->WorkLocal[22]
148: 0x02CD [0x01] GOTO 0x0480
149: 0x02D0 [0x02] IF !(ExtData[1]->WorkLocal[19] == 5*) GOTO 0x02E0
150: 0x02D8 [0x03] Work_Zone[7] = ExtData[1]->WorkLocal[22]
151: 0x02DD [0x01] GOTO 0x0480
152: 0x02E0 [0x02] IF !(ExtData[1]->WorkLocal[19] == 6*) GOTO 0x02F0
153: 0x02E8 [0x03] Work_Zone[8] = ExtData[1]->WorkLocal[22]
154: 0x02ED [0x01] GOTO 0x0480
155: 0x02F0 [0x02] IF !(ExtData[1]->WorkLocal[19] == 7*) GOTO 0x0300
156: 0x02F8 [0x03] Work_Zone[9] = ExtData[1]->WorkLocal[22]
157: 0x02FD [0x01] GOTO 0x0480
158: 0x0300 [0x02] IF !(ExtData[1]->WorkLocal[19] == 8*) GOTO 0x0310
159: 0x0308 [0x03] Work_Zone_1700[0] = ExtData[1]->WorkLocal[22]
160: 0x030D [0x01] GOTO 0x0480
161: 0x0310 [0x02] IF !(ExtData[1]->WorkLocal[19] == 9*) GOTO 0x0320
162: 0x0318 [0x03] Work_Zone_1700[1] = ExtData[1]->WorkLocal[22]
163: 0x031D [0x01] GOTO 0x0480
164: 0x0320 [0x02] IF !(ExtData[1]->WorkLocal[19] == 10*) GOTO 0x0330
165: 0x0328 [0x03] Work_Zone_1700[2] = ExtData[1]->WorkLocal[22]
166: 0x032D [0x01] GOTO 0x0480
167: 0x0330 [0x02] IF !(ExtData[1]->WorkLocal[19] == 11*) GOTO 0x0340
168: 0x0338 [0x03] Work_Zone_1700[3] = ExtData[1]->WorkLocal[22]
169: 0x033D [0x01] GOTO 0x0480
170: 0x0340 [0x02] IF !(ExtData[1]->WorkLocal[19] == 12*) GOTO 0x0350
171: 0x0348 [0x03] Work_Zone_1700[4] = ExtData[1]->WorkLocal[22]
172: 0x034D [0x01] GOTO 0x0480
173: 0x0350 [0x02] IF !(ExtData[1]->WorkLocal[19] == 13*) GOTO 0x0360
174: 0x0358 [0x03] Work_Zone_1700[5] = ExtData[1]->WorkLocal[22]
175: 0x035D [0x01] GOTO 0x0480
176: 0x0360 [0x02] IF !(ExtData[1]->WorkLocal[19] == 14*) GOTO 0x0370
177: 0x0368 [0x03] Work_Zone_1700[6] = ExtData[1]->WorkLocal[22]
178: 0x036D [0x01] GOTO 0x0480
179: 0x0370 [0x02] IF !(ExtData[1]->WorkLocal[19] == 15*) GOTO 0x0380
180: 0x0378 [0x03] Work_Zone_1700[7] = ExtData[1]->WorkLocal[22]
181: 0x037D [0x01] GOTO 0x0480
182: 0x0380 [0x02] IF !(ExtData[1]->WorkLocal[19] == 16*) GOTO 0x0390
183: 0x0388 [0x03] Work_Zone_1700[8] = ExtData[1]->WorkLocal[22]
184: 0x038D [0x01] GOTO 0x0480
185: 0x0390 [0x02] IF !(ExtData[1]->WorkLocal[19] == 17*) GOTO 0x03A0
186: 0x0398 [0x03] Work_Zone_1700[9] = ExtData[1]->WorkLocal[22]
187: 0x039D [0x01] GOTO 0x0480
188: 0x03A0 [0x02] IF !(ExtData[1]->WorkLocal[19] == 18*) GOTO 0x03B0
189: 0x03A8 [0x03] Work_Zone_1700[10] = ExtData[1]->WorkLocal[22]
190: 0x03AD [0x01] GOTO 0x0480
191: 0x03B0 [0x02] IF !(ExtData[1]->WorkLocal[19] == 19*) GOTO 0x03C0
192: 0x03B8 [0x03] Work_Zone_1700[11] = ExtData[1]->WorkLocal[22]
193: 0x03BD [0x01] GOTO 0x0480
194: 0x03C0 [0x02] IF !(ExtData[1]->WorkLocal[19] == 20*) GOTO 0x03D0
195: 0x03C8 [0x03] Work_Zone_1700[12] = ExtData[1]->WorkLocal[22]
196: 0x03CD [0x01] GOTO 0x0480
197: 0x03D0 [0x02] IF !(ExtData[1]->WorkLocal[19] == 21*) GOTO 0x03E0
198: 0x03D8 [0x03] Work_Zone_1700[13] = ExtData[1]->WorkLocal[22]
199: 0x03DD [0x01] GOTO 0x0480
200: 0x03E0 [0x02] IF !(ExtData[1]->WorkLocal[19] == 22*) GOTO 0x03F0
201: 0x03E8 [0x03] Work_Zone_1700[14] = ExtData[1]->WorkLocal[22]
202: 0x03ED [0x01] GOTO 0x0480
203: 0x03F0 [0x02] IF !(ExtData[1]->WorkLocal[19] == 23*) GOTO 0x0400
204: 0x03F8 [0x03] Work_Zone_1700[15] = ExtData[1]->WorkLocal[22]
205: 0x03FD [0x01] GOTO 0x0480
206: 0x0400 [0x02] IF !(ExtData[1]->WorkLocal[19] == 24*) GOTO 0x0410
207: 0x0408 [0x03] Work_Zone_1700[16] = ExtData[1]->WorkLocal[22]
208: 0x040D [0x01] GOTO 0x0480
209: 0x0410 [0x02] IF !(ExtData[1]->WorkLocal[19] == 25*) GOTO 0x0420
210: 0x0418 [0x03] Work_Zone_1700[17] = ExtData[1]->WorkLocal[22]
211: 0x041D [0x01] GOTO 0x0480
212: 0x0420 [0x02] IF !(ExtData[1]->WorkLocal[19] == 26*) GOTO 0x0430
213: 0x0428 [0x03] Work_Zone_1700[18] = ExtData[1]->WorkLocal[22]
214: 0x042D [0x01] GOTO 0x0480
215: 0x0430 [0x02] IF !(ExtData[1]->WorkLocal[19] == 27*) GOTO 0x0440
216: 0x0438 [0x03] Work_Zone_1700[19] = ExtData[1]->WorkLocal[22]
217: 0x043D [0x01] GOTO 0x0480
218: 0x0440 [0x02] IF !(ExtData[1]->WorkLocal[19] == 28*) GOTO 0x0450
219: 0x0448 [0x03] Work_Zone_1700[20] = ExtData[1]->WorkLocal[22]
220: 0x044D [0x01] GOTO 0x0480
221: 0x0450 [0x02] IF !(ExtData[1]->WorkLocal[19] == 29*) GOTO 0x0460
222: 0x0458 [0x03] Work_Zone_1700[21] = ExtData[1]->WorkLocal[22]
223: 0x045D [0x01] GOTO 0x0480
224: 0x0460 [0x02] IF !(ExtData[1]->WorkLocal[19] == 30*) GOTO 0x0470
225: 0x0468 [0x03] Work_Zone_1700[22] = ExtData[1]->WorkLocal[22]
226: 0x046D [0x01] GOTO 0x0480
227: 0x0470 [0x02] IF !(ExtData[1]->WorkLocal[19] == 31*) GOTO 0x0480
228: 0x0478 [0x03] Work_Zone_1700[23] = ExtData[1]->WorkLocal[22]
229: 0x047D [0x01] GOTO 0x0480

SUBROUTINE_0480:
230: 0x0480 [0x1B] RETURN

SUBROUTINE_0481:
231: 0x0481 [0x1A] CALL_SUBROUTINE(address=0x10A1)
232: 0x0484 [0x02] IF !(ExtData[1]->WorkLocal[27] == 1*) GOTO 0x0774
233: 0x048C [0x02] IF !(ExtData[1]->WorkLocal[23] == 4294967295*) GOTO 0x049C
234: 0x0494 [0x03] ExtData[1]->WorkLocal[22] = 0*
235: 0x0499 [0x01] GOTO 0x0771
236: 0x049C [0x02] IF !(ExtData[1]->WorkLocal[23] == 0*) GOTO 0x04AC
237: 0x04A4 [0x03] ExtData[1]->WorkLocal[22] = 4112*
238: 0x04A9 [0x01] GOTO 0x0771
239: 0x04AC [0x02] IF !(ExtData[1]->WorkLocal[23] == 1*) GOTO 0x04BC
240: 0x04B4 [0x03] ExtData[1]->WorkLocal[22] = 4116*
241: 0x04B9 [0x01] GOTO 0x0771
242: 0x04BC [0x02] IF !(ExtData[1]->WorkLocal[23] == 2*) GOTO 0x04CC
243: 0x04C4 [0x03] ExtData[1]->WorkLocal[22] = 4120*
244: 0x04C9 [0x01] GOTO 0x0771
245: 0x04CC [0x02] IF !(ExtData[1]->WorkLocal[23] == 3*) GOTO 0x04DC
246: 0x04D4 [0x03] ExtData[1]->WorkLocal[22] = 4128*
247: 0x04D9 [0x01] GOTO 0x0771
248: 0x04DC [0x02] IF !(ExtData[1]->WorkLocal[23] == 4*) GOTO 0x04EC
249: 0x04E4 [0x03] ExtData[1]->WorkLocal[22] = 4132*
250: 0x04E9 [0x01] GOTO 0x0771
251: 0x04EC [0x02] IF !(ExtData[1]->WorkLocal[23] == 5*) GOTO 0x04FC
252: 0x04F4 [0x03] ExtData[1]->WorkLocal[22] = 4136*
253: 0x04F9 [0x01] GOTO 0x0771
254: 0x04FC [0x02] IF !(ExtData[1]->WorkLocal[23] == 6*) GOTO 0x050C
255: 0x0504 [0x03] ExtData[1]->WorkLocal[22] = 4145*
256: 0x0509 [0x01] GOTO 0x0771
257: 0x050C [0x02] IF !(ExtData[1]->WorkLocal[23] == 7*) GOTO 0x051C
258: 0x0514 [0x03] ExtData[1]->WorkLocal[22] = 4148*
259: 0x0519 [0x01] GOTO 0x0771
260: 0x051C [0x02] IF !(ExtData[1]->WorkLocal[23] == 8*) GOTO 0x052C
261: 0x0524 [0x03] ExtData[1]->WorkLocal[22] = 4150*
262: 0x0529 [0x01] GOTO 0x0771
263: 0x052C [0x02] IF !(ExtData[1]->WorkLocal[23] == 9*) GOTO 0x053C
264: 0x0534 [0x03] ExtData[1]->WorkLocal[22] = 4151*
265: 0x0539 [0x01] GOTO 0x0771
266: 0x053C [0x02] IF !(ExtData[1]->WorkLocal[23] == 10*) GOTO 0x054C
267: 0x0544 [0x03] ExtData[1]->WorkLocal[22] = 4155*
268: 0x0549 [0x01] GOTO 0x0771
269: 0x054C [0x02] IF !(ExtData[1]->WorkLocal[23] == 11*) GOTO 0x055C
270: 0x0554 [0x03] ExtData[1]->WorkLocal[22] = 4157*
271: 0x0559 [0x01] GOTO 0x0771
272: 0x055C [0x02] IF !(ExtData[1]->WorkLocal[23] == 12*) GOTO 0x056C
273: 0x0564 [0x03] ExtData[1]->WorkLocal[22] = 4163*
274: 0x0569 [0x01] GOTO 0x0771
275: 0x056C [0x02] IF !(ExtData[1]->WorkLocal[23] == 13*) GOTO 0x057C
276: 0x0574 [0x03] ExtData[1]->WorkLocal[22] = 4164*
277: 0x0579 [0x01] GOTO 0x0771
278: 0x057C [0x02] IF !(ExtData[1]->WorkLocal[23] == 14*) GOTO 0x058C
279: 0x0584 [0x03] ExtData[1]->WorkLocal[22] = 4165*
280: 0x0589 [0x01] GOTO 0x0771
281: 0x058C [0x02] IF !(ExtData[1]->WorkLocal[23] == 15*) GOTO 0x059C
282: 0x0594 [0x03] ExtData[1]->WorkLocal[22] = 4146*
283: 0x0599 [0x01] GOTO 0x0771
284: 0x059C [0x02] IF !(ExtData[1]->WorkLocal[23] == 16*) GOTO 0x05AC
285: 0x05A4 [0x03] ExtData[1]->WorkLocal[22] = 4147*
286: 0x05A9 [0x01] GOTO 0x0771
287: 0x05AC [0x02] IF !(ExtData[1]->WorkLocal[23] == 17*) GOTO 0x05BC
288: 0x05B4 [0x03] ExtData[1]->WorkLocal[22] = 4200*
289: 0x05B9 [0x01] GOTO 0x0771
290: 0x05BC [0x02] IF !(ExtData[1]->WorkLocal[23] == 18*) GOTO 0x05CC
291: 0x05C4 [0x03] ExtData[1]->WorkLocal[22] = 4202*
292: 0x05C9 [0x01] GOTO 0x0771
293: 0x05CC [0x02] IF !(ExtData[1]->WorkLocal[23] == 19*) GOTO 0x05DC
294: 0x05D4 [0x03] ExtData[1]->WorkLocal[22] = 5246*
295: 0x05D9 [0x01] GOTO 0x0771
296: 0x05DC [0x02] IF !(ExtData[1]->WorkLocal[23] == 20*) GOTO 0x05EC
297: 0x05E4 [0x03] ExtData[1]->WorkLocal[22] = 5247*
298: 0x05E9 [0x01] GOTO 0x0771
299: 0x05EC [0x02] IF !(ExtData[1]->WorkLocal[23] == 21*) GOTO 0x05FC
300: 0x05F4 [0x03] ExtData[1]->WorkLocal[22] = 5248*
301: 0x05F9 [0x01] GOTO 0x0771
302: 0x05FC [0x02] IF !(ExtData[1]->WorkLocal[23] == 22*) GOTO 0x060C
303: 0x0604 [0x03] ExtData[1]->WorkLocal[22] = 5249*
304: 0x0609 [0x01] GOTO 0x0771
305: 0x060C [0x02] IF !(ExtData[1]->WorkLocal[23] == 23*) GOTO 0x061C
306: 0x0614 [0x03] ExtData[1]->WorkLocal[22] = 5250*
307: 0x0619 [0x01] GOTO 0x0771
308: 0x061C [0x02] IF !(ExtData[1]->WorkLocal[23] == 24*) GOTO 0x062C
309: 0x0624 [0x03] ExtData[1]->WorkLocal[22] = 5251*
310: 0x0629 [0x01] GOTO 0x0771
311: 0x062C [0x02] IF !(ExtData[1]->WorkLocal[23] == 25*) GOTO 0x063C
312: 0x0634 [0x03] ExtData[1]->WorkLocal[22] = 5252*
313: 0x0639 [0x01] GOTO 0x0771
314: 0x063C [0x02] IF !(ExtData[1]->WorkLocal[23] == 26*) GOTO 0x064C
315: 0x0644 [0x03] ExtData[1]->WorkLocal[22] = 4299*
316: 0x0649 [0x01] GOTO 0x0771
317: 0x064C [0x02] IF !(ExtData[1]->WorkLocal[23] == 27*) GOTO 0x065C
318: 0x0654 [0x03] ExtData[1]->WorkLocal[22] = 4300*
319: 0x0659 [0x01] GOTO 0x0771
320: 0x065C [0x02] IF !(ExtData[1]->WorkLocal[23] == 28*) GOTO 0x066C
321: 0x0664 [0x03] ExtData[1]->WorkLocal[22] = 4422*
322: 0x0669 [0x01] GOTO 0x0771
323: 0x066C [0x02] IF !(ExtData[1]->WorkLocal[23] == 29*) GOTO 0x067C
324: 0x0674 [0x03] ExtData[1]->WorkLocal[22] = 4423*
325: 0x0679 [0x01] GOTO 0x0771
326: 0x067C [0x02] IF !(ExtData[1]->WorkLocal[23] == 30*) GOTO 0x068C
327: 0x0684 [0x03] ExtData[1]->WorkLocal[22] = 5243*
328: 0x0689 [0x01] GOTO 0x0771
329: 0x068C [0x02] IF !(ExtData[1]->WorkLocal[23] == 31*) GOTO 0x069C
330: 0x0694 [0x03] ExtData[1]->WorkLocal[22] = 5244*
331: 0x0699 [0x01] GOTO 0x0771
332: 0x069C [0x02] IF !(ExtData[1]->WorkLocal[23] == 32*) GOTO 0x06AC
333: 0x06A4 [0x03] ExtData[1]->WorkLocal[22] = 5245*
334: 0x06A9 [0x01] GOTO 0x0771
335: 0x06AC [0x02] IF !(ExtData[1]->WorkLocal[23] == 33*) GOTO 0x06BC
336: 0x06B4 [0x03] ExtData[1]->WorkLocal[22] = 4204*
337: 0x06B9 [0x01] GOTO 0x0771
338: 0x06BC [0x02] IF !(ExtData[1]->WorkLocal[23] == 34*) GOTO 0x06CC
339: 0x06C4 [0x03] ExtData[1]->WorkLocal[22] = 4206*
340: 0x06C9 [0x01] GOTO 0x0771
341: 0x06CC [0x02] IF !(ExtData[1]->WorkLocal[23] == 35*) GOTO 0x06DC
342: 0x06D4 [0x03] ExtData[1]->WorkLocal[22] = 4208*
343: 0x06D9 [0x01] GOTO 0x0771
344: 0x06DC [0x02] IF !(ExtData[1]->WorkLocal[23] == 36*) GOTO 0x06EC
345: 0x06E4 [0x03] ExtData[1]->WorkLocal[22] = 4210*
346: 0x06E9 [0x01] GOTO 0x0771
347: 0x06EC [0x02] IF !(ExtData[1]->WorkLocal[23] == 37*) GOTO 0x06FC
348: 0x06F4 [0x03] ExtData[1]->WorkLocal[22] = 4212*
349: 0x06F9 [0x01] GOTO 0x0771
350: 0x06FC [0x02] IF !(ExtData[1]->WorkLocal[23] == 38*) GOTO 0x070C
351: 0x0704 [0x03] ExtData[1]->WorkLocal[22] = 5304*
352: 0x0709 [0x01] GOTO 0x0771
353: 0x070C [0x02] IF !(ExtData[1]->WorkLocal[23] == 39*) GOTO 0x071C
354: 0x0714 [0x03] ExtData[1]->WorkLocal[22] = 5305*
355: 0x0719 [0x01] GOTO 0x0771
356: 0x071C [0x02] IF !(ExtData[1]->WorkLocal[23] == 40*) GOTO 0x072C
357: 0x0724 [0x03] ExtData[1]->WorkLocal[22] = 4149*
358: 0x0729 [0x01] GOTO 0x0771
359: 0x072C [0x02] IF !(ExtData[1]->WorkLocal[23] == 41*) GOTO 0x073C
360: 0x0734 [0x03] ExtData[1]->WorkLocal[22] = 4254*
361: 0x0739 [0x01] GOTO 0x0771
362: 0x073C [0x02] IF !(ExtData[1]->WorkLocal[23] == 42*) GOTO 0x074C
363: 0x0744 [0x03] ExtData[1]->WorkLocal[22] = 4255*
364: 0x0749 [0x01] GOTO 0x0771
365: 0x074C [0x02] IF !(ExtData[1]->WorkLocal[23] == 43*) GOTO 0x075C
366: 0x0754 [0x03] ExtData[1]->WorkLocal[22] = 5320*
367: 0x0759 [0x01] GOTO 0x0771
368: 0x075C [0x02] IF !(ExtData[1]->WorkLocal[23] == 44*) GOTO 0x076C
369: 0x0764 [0x03] ExtData[1]->WorkLocal[22] = 5322*
370: 0x0769 [0x01] GOTO 0x0771
371: 0x076C [0x03] ExtData[1]->WorkLocal[22] = 0*

SUBROUTINE_0771:
372: 0x0771 [0x01] GOTO 0x0A84
373: 0x0774 [0x02] IF !(ExtData[1]->WorkLocal[27] == 2*) GOTO 0x0A84
374: 0x077C [0x02] IF !(ExtData[1]->WorkLocal[23] == 4294967295*) GOTO 0x078C
375: 0x0784 [0x03] ExtData[1]->WorkLocal[22] = 0*
376: 0x0789 [0x01] GOTO 0x0A81
377: 0x078C [0x02] IF !(ExtData[1]->WorkLocal[23] == 0*) GOTO 0x079C
378: 0x0794 [0x03] ExtData[1]->WorkLocal[22] = 4116*
379: 0x0799 [0x01] GOTO 0x0A81
380: 0x079C [0x02] IF !(ExtData[1]->WorkLocal[23] == 1*) GOTO 0x07AC
381: 0x07A4 [0x03] ExtData[1]->WorkLocal[22] = 4120*
382: 0x07A9 [0x01] GOTO 0x0A81
383: 0x07AC [0x02] IF !(ExtData[1]->WorkLocal[23] == 2*) GOTO 0x07BC
384: 0x07B4 [0x03] ExtData[1]->WorkLocal[22] = 4124*
385: 0x07B9 [0x01] GOTO 0x0A81
386: 0x07BC [0x02] IF !(ExtData[1]->WorkLocal[23] == 3*) GOTO 0x07CC
387: 0x07C4 [0x03] ExtData[1]->WorkLocal[22] = 4132*
388: 0x07C9 [0x01] GOTO 0x0A81
389: 0x07CC [0x02] IF !(ExtData[1]->WorkLocal[23] == 4*) GOTO 0x07DC
390: 0x07D4 [0x03] ExtData[1]->WorkLocal[22] = 4136*
391: 0x07D9 [0x01] GOTO 0x0A81
392: 0x07DC [0x02] IF !(ExtData[1]->WorkLocal[23] == 5*) GOTO 0x07EC
393: 0x07E4 [0x03] ExtData[1]->WorkLocal[22] = 4140*
394: 0x07E9 [0x01] GOTO 0x0A81
395: 0x07EC [0x02] IF !(ExtData[1]->WorkLocal[23] == 6*) GOTO 0x07FC
396: 0x07F4 [0x03] ExtData[1]->WorkLocal[22] = 4144*
397: 0x07F9 [0x01] GOTO 0x0A81
398: 0x07FC [0x02] IF !(ExtData[1]->WorkLocal[23] == 7*) GOTO 0x080C
399: 0x0804 [0x03] ExtData[1]->WorkLocal[22] = 4145*
400: 0x0809 [0x01] GOTO 0x0A81
401: 0x080C [0x02] IF !(ExtData[1]->WorkLocal[23] == 8*) GOTO 0x081C
402: 0x0814 [0x03] ExtData[1]->WorkLocal[22] = 4150*
403: 0x0819 [0x01] GOTO 0x0A81
404: 0x081C [0x02] IF !(ExtData[1]->WorkLocal[23] == 9*) GOTO 0x082C
405: 0x0824 [0x03] ExtData[1]->WorkLocal[22] = 4151*
406: 0x0829 [0x01] GOTO 0x0A81
407: 0x082C [0x02] IF !(ExtData[1]->WorkLocal[23] == 10*) GOTO 0x083C
408: 0x0834 [0x03] ExtData[1]->WorkLocal[22] = 4155*
409: 0x0839 [0x01] GOTO 0x0A81
410: 0x083C [0x02] IF !(ExtData[1]->WorkLocal[23] == 11*) GOTO 0x084C
411: 0x0844 [0x03] ExtData[1]->WorkLocal[22] = 4157*
412: 0x0849 [0x01] GOTO 0x0A81
413: 0x084C [0x02] IF !(ExtData[1]->WorkLocal[23] == 12*) GOTO 0x085C
414: 0x0854 [0x03] ExtData[1]->WorkLocal[22] = 4161*
415: 0x0859 [0x01] GOTO 0x0A81
416: 0x085C [0x02] IF !(ExtData[1]->WorkLocal[23] == 13*) GOTO 0x086C
417: 0x0864 [0x03] ExtData[1]->WorkLocal[22] = 4164*
418: 0x0869 [0x01] GOTO 0x0A81
419: 0x086C [0x02] IF !(ExtData[1]->WorkLocal[23] == 14*) GOTO 0x087C
420: 0x0874 [0x03] ExtData[1]->WorkLocal[22] = 4165*
421: 0x0879 [0x01] GOTO 0x0A81
422: 0x087C [0x02] IF !(ExtData[1]->WorkLocal[23] == 15*) GOTO 0x088C
423: 0x0884 [0x03] ExtData[1]->WorkLocal[22] = 4146*
424: 0x0889 [0x01] GOTO 0x0A81
425: 0x088C [0x02] IF !(ExtData[1]->WorkLocal[23] == 16*) GOTO 0x089C
426: 0x0894 [0x03] ExtData[1]->WorkLocal[22] = 4147*
427: 0x0899 [0x01] GOTO 0x0A81
428: 0x089C [0x02] IF !(ExtData[1]->WorkLocal[23] == 17*) GOTO 0x08AC
429: 0x08A4 [0x03] ExtData[1]->WorkLocal[22] = 4200*
430: 0x08A9 [0x01] GOTO 0x0A81
431: 0x08AC [0x02] IF !(ExtData[1]->WorkLocal[23] == 18*) GOTO 0x08BC
432: 0x08B4 [0x03] ExtData[1]->WorkLocal[22] = 4202*
433: 0x08B9 [0x01] GOTO 0x0A81
434: 0x08BC [0x02] IF !(ExtData[1]->WorkLocal[23] == 19*) GOTO 0x08CC
435: 0x08C4 [0x03] ExtData[1]->WorkLocal[22] = 5246*
436: 0x08C9 [0x01] GOTO 0x0A81
437: 0x08CC [0x02] IF !(ExtData[1]->WorkLocal[23] == 20*) GOTO 0x08DC
438: 0x08D4 [0x03] ExtData[1]->WorkLocal[22] = 5247*
439: 0x08D9 [0x01] GOTO 0x0A81
440: 0x08DC [0x02] IF !(ExtData[1]->WorkLocal[23] == 21*) GOTO 0x08EC
441: 0x08E4 [0x03] ExtData[1]->WorkLocal[22] = 5248*
442: 0x08E9 [0x01] GOTO 0x0A81
443: 0x08EC [0x02] IF !(ExtData[1]->WorkLocal[23] == 22*) GOTO 0x08FC
444: 0x08F4 [0x03] ExtData[1]->WorkLocal[22] = 5249*
445: 0x08F9 [0x01] GOTO 0x0A81
446: 0x08FC [0x02] IF !(ExtData[1]->WorkLocal[23] == 23*) GOTO 0x090C
447: 0x0904 [0x03] ExtData[1]->WorkLocal[22] = 5250*
448: 0x0909 [0x01] GOTO 0x0A81
449: 0x090C [0x02] IF !(ExtData[1]->WorkLocal[23] == 24*) GOTO 0x091C
450: 0x0914 [0x03] ExtData[1]->WorkLocal[22] = 5251*
451: 0x0919 [0x01] GOTO 0x0A81
452: 0x091C [0x02] IF !(ExtData[1]->WorkLocal[23] == 25*) GOTO 0x092C
453: 0x0924 [0x03] ExtData[1]->WorkLocal[22] = 5252*
454: 0x0929 [0x01] GOTO 0x0A81
455: 0x092C [0x02] IF !(ExtData[1]->WorkLocal[23] == 26*) GOTO 0x093C
456: 0x0934 [0x03] ExtData[1]->WorkLocal[22] = 4301*
457: 0x0939 [0x01] GOTO 0x0A81
458: 0x093C [0x02] IF !(ExtData[1]->WorkLocal[23] == 27*) GOTO 0x094C
459: 0x0944 [0x03] ExtData[1]->WorkLocal[22] = 4302*
460: 0x0949 [0x01] GOTO 0x0A81
461: 0x094C [0x02] IF !(ExtData[1]->WorkLocal[23] == 28*) GOTO 0x095C
462: 0x0954 [0x03] ExtData[1]->WorkLocal[22] = 4424*
463: 0x0959 [0x01] GOTO 0x0A81
464: 0x095C [0x02] IF !(ExtData[1]->WorkLocal[23] == 29*) GOTO 0x096C
465: 0x0964 [0x03] ExtData[1]->WorkLocal[22] = 4425*
466: 0x0969 [0x01] GOTO 0x0A81
467: 0x096C [0x02] IF !(ExtData[1]->WorkLocal[23] == 30*) GOTO 0x097C
468: 0x0974 [0x03] ExtData[1]->WorkLocal[22] = 5241*
469: 0x0979 [0x01] GOTO 0x0A81
470: 0x097C [0x02] IF !(ExtData[1]->WorkLocal[23] == 31*) GOTO 0x098C
471: 0x0984 [0x03] ExtData[1]->WorkLocal[22] = 5242*
472: 0x0989 [0x01] GOTO 0x0A81
473: 0x098C [0x02] IF !(ExtData[1]->WorkLocal[23] == 32*) GOTO 0x099C
474: 0x0994 [0x03] ExtData[1]->WorkLocal[22] = 5243*
475: 0x0999 [0x01] GOTO 0x0A81
476: 0x099C [0x02] IF !(ExtData[1]->WorkLocal[23] == 33*) GOTO 0x09AC
477: 0x09A4 [0x03] ExtData[1]->WorkLocal[22] = 5244*
478: 0x09A9 [0x01] GOTO 0x0A81
479: 0x09AC [0x02] IF !(ExtData[1]->WorkLocal[23] == 34*) GOTO 0x09BC
480: 0x09B4 [0x03] ExtData[1]->WorkLocal[22] = 5245*
481: 0x09B9 [0x01] GOTO 0x0A81
482: 0x09BC [0x02] IF !(ExtData[1]->WorkLocal[23] == 35*) GOTO 0x09CC
483: 0x09C4 [0x03] ExtData[1]->WorkLocal[22] = 4204*
484: 0x09C9 [0x01] GOTO 0x0A81
485: 0x09CC [0x02] IF !(ExtData[1]->WorkLocal[23] == 36*) GOTO 0x09DC
486: 0x09D4 [0x03] ExtData[1]->WorkLocal[22] = 4206*
487: 0x09D9 [0x01] GOTO 0x0A81
488: 0x09DC [0x02] IF !(ExtData[1]->WorkLocal[23] == 37*) GOTO 0x09EC
489: 0x09E4 [0x03] ExtData[1]->WorkLocal[22] = 4208*
490: 0x09E9 [0x01] GOTO 0x0A81
491: 0x09EC [0x02] IF !(ExtData[1]->WorkLocal[23] == 38*) GOTO 0x09FC
492: 0x09F4 [0x03] ExtData[1]->WorkLocal[22] = 4210*
493: 0x09F9 [0x01] GOTO 0x0A81
494: 0x09FC [0x02] IF !(ExtData[1]->WorkLocal[23] == 39*) GOTO 0x0A0C
495: 0x0A04 [0x03] ExtData[1]->WorkLocal[22] = 4212*
496: 0x0A09 [0x01] GOTO 0x0A81
497: 0x0A0C [0x02] IF !(ExtData[1]->WorkLocal[23] == 40*) GOTO 0x0A1C
498: 0x0A14 [0x03] ExtData[1]->WorkLocal[22] = 5304*
499: 0x0A19 [0x01] GOTO 0x0A81
500: 0x0A1C [0x02] IF !(ExtData[1]->WorkLocal[23] == 41*) GOTO 0x0A2C
501: 0x0A24 [0x03] ExtData[1]->WorkLocal[22] = 5305*
502: 0x0A29 [0x01] GOTO 0x0A81
503: 0x0A2C [0x02] IF !(ExtData[1]->WorkLocal[23] == 42*) GOTO 0x0A3C
504: 0x0A34 [0x03] ExtData[1]->WorkLocal[22] = 4149*
505: 0x0A39 [0x01] GOTO 0x0A81
506: 0x0A3C [0x02] IF !(ExtData[1]->WorkLocal[23] == 43*) GOTO 0x0A4C
507: 0x0A44 [0x03] ExtData[1]->WorkLocal[22] = 4254*
508: 0x0A49 [0x01] GOTO 0x0A81
509: 0x0A4C [0x02] IF !(ExtData[1]->WorkLocal[23] == 44*) GOTO 0x0A5C
510: 0x0A54 [0x03] ExtData[1]->WorkLocal[22] = 4255*
511: 0x0A59 [0x01] GOTO 0x0A81
512: 0x0A5C [0x02] IF !(ExtData[1]->WorkLocal[23] == 45*) GOTO 0x0A6C
513: 0x0A64 [0x03] ExtData[1]->WorkLocal[22] = 5320*
514: 0x0A69 [0x01] GOTO 0x0A81
515: 0x0A6C [0x02] IF !(ExtData[1]->WorkLocal[23] == 46*) GOTO 0x0A7C
516: 0x0A74 [0x03] ExtData[1]->WorkLocal[22] = 5322*
517: 0x0A79 [0x01] GOTO 0x0A81
518: 0x0A7C [0x03] ExtData[1]->WorkLocal[22] = 0*

SUBROUTINE_0A81:
519: 0x0A81 [0x01] GOTO 0x0A84

SUBROUTINE_0A84:
520: 0x0A84 [0x1B] RETURN

SUBROUTINE_10A1:
521: 0x10A1 [0x06] ExtData[1]->WorkLocal[27] = 0
522: 0x10A4 [0x06] ExtData[1]->WorkLocal[28] = 0
523: 0x10A7 [0x02] IF !(ExtData[1]->WorkLocal[1] == 10*) GOTO 0x10BA
524: 0x10AF [0x03] ExtData[1]->WorkLocal[27] = 1*
525: 0x10B4 [0x05] ExtData[1]->WorkLocal[28] = 1
526: 0x10B7 [0x01] GOTO 0x1122
527: 0x10BA [0x02] IF !(ExtData[1]->WorkLocal[1] == 20*) GOTO 0x10CD
528: 0x10C2 [0x03] ExtData[1]->WorkLocal[27] = 1*
529: 0x10C7 [0x05] ExtData[1]->WorkLocal[28] = 1
530: 0x10CA [0x01] GOTO 0x1122
531: 0x10CD [0x02] IF !(ExtData[1]->WorkLocal[1] == 30*) GOTO 0x10DD
532: 0x10D5 [0x03] ExtData[1]->WorkLocal[27] = 1*
533: 0x10DA [0x01] GOTO 0x1122
534: 0x10DD [0x02] IF !(ExtData[1]->WorkLocal[1] == 40*) GOTO 0x10ED
535: 0x10E5 [0x03] ExtData[1]->WorkLocal[27] = 1*
536: 0x10EA [0x01] GOTO 0x1122
537: 0x10ED [0x02] IF !(ExtData[1]->WorkLocal[1] == 50*) GOTO 0x10FD
538: 0x10F5 [0x03] ExtData[1]->WorkLocal[27] = 2*
539: 0x10FA [0x01] GOTO 0x1122
540: 0x10FD [0x02] IF !(ExtData[1]->WorkLocal[1] == 60*) GOTO 0x110D
541: 0x1105 [0x03] ExtData[1]->WorkLocal[27] = 2*
542: 0x110A [0x01] GOTO 0x1122
543: 0x110D [0x02] IF !(ExtData[1]->WorkLocal[1] == 0*) GOTO 0x111D
544: 0x1115 [0x03] ExtData[1]->WorkLocal[27] = 2*
545: 0x111A [0x01] GOTO 0x1122
546: 0x111D [0x03] ExtData[1]->WorkLocal[27] = 1*

SUBROUTINE_1122:
547: 0x1122 [0x1B] RETURN
```

#### Data or dead code:

```
# Dead code (unreachable instructions):
     0x021F [0x01] GOTO 0x0223
# Dead code (unreachable instructions):
     0x0A85 [0x1A] CALL_SUBROUTINE(address=0x10A1)
     0x0A88 [0x03] ExtData[1]->WorkLocal[24] = 4294967295*
     0x0A8D [0x02] IF !(ExtData[1]->WorkLocal[27] == 1*) GOTO 0x0D78
     0x0A95 [0x02] IF !(ExtData[1]->WorkLocal[25] == 0*) GOTO 0x0AA0
     0x0A9D [0x01] GOTO 0x0D75
     0x0AA0 [0x02] IF !(ExtData[1]->WorkLocal[25] == 4112*) GOTO 0x0AB0
     0x0AA8 [0x03] ExtData[1]->WorkLocal[24] = 0*
     0x0AAD [0x01] GOTO 0x0D75
     0x0AB0 [0x02] IF !(ExtData[1]->WorkLocal[25] == 4116*) GOTO 0x0AC0
     0x0AB8 [0x03] ExtData[1]->WorkLocal[24] = 1*
     0x0ABD [0x01] GOTO 0x0D75
     0x0AC0 [0x02] IF !(ExtData[1]->WorkLocal[25] == 4120*) GOTO 0x0AD0
     0x0AC8 [0x03] ExtData[1]->WorkLocal[24] = 2*
     0x0ACD [0x01] GOTO 0x0D75
     0x0AD0 [0x02] IF !(ExtData[1]->WorkLocal[25] == 4128*) GOTO 0x0AE0
     0x0AD8 [0x03] ExtData[1]->WorkLocal[24] = 3*
     0x0ADD [0x01] GOTO 0x0D75
     0x0AE0 [0x02] IF !(ExtData[1]->WorkLocal[25] == 4132*) GOTO 0x0AF0
     0x0AE8 [0x03] ExtData[1]->WorkLocal[24] = 4*
     0x0AED [0x01] GOTO 0x0D75
     0x0AF0 [0x02] IF !(ExtData[1]->WorkLocal[25] == 4136*) GOTO 0x0B00
     0x0AF8 [0x03] ExtData[1]->WorkLocal[24] = 5*
     0x0AFD [0x01] GOTO 0x0D75
     0x0B00 [0x02] IF !(ExtData[1]->WorkLocal[25] == 4145*) GOTO 0x0B10
     0x0B08 [0x03] ExtData[1]->WorkLocal[24] = 6*
     0x0B0D [0x01] GOTO 0x0D75
     0x0B10 [0x02] IF !(ExtData[1]->WorkLocal[25] == 4148*) GOTO 0x0B20
     0x0B18 [0x03] ExtData[1]->WorkLocal[24] = 7*
     0x0B1D [0x01] GOTO 0x0D75
     0x0B20 [0x02] IF !(ExtData[1]->WorkLocal[25] == 4150*) GOTO 0x0B30
     0x0B28 [0x03] ExtData[1]->WorkLocal[24] = 8*
     0x0B2D [0x01] GOTO 0x0D75
     0x0B30 [0x02] IF !(ExtData[1]->WorkLocal[25] == 4151*) GOTO 0x0B40
     0x0B38 [0x03] ExtData[1]->WorkLocal[24] = 9*
     0x0B3D [0x01] GOTO 0x0D75
     0x0B40 [0x02] IF !(ExtData[1]->WorkLocal[25] == 4155*) GOTO 0x0B50
     0x0B48 [0x03] ExtData[1]->WorkLocal[24] = 10*
     0x0B4D [0x01] GOTO 0x0D75
     0x0B50 [0x02] IF !(ExtData[1]->WorkLocal[25] == 4157*) GOTO 0x0B60
     0x0B58 [0x03] ExtData[1]->WorkLocal[24] = 11*
     0x0B5D [0x01] GOTO 0x0D75
     0x0B60 [0x02] IF !(ExtData[1]->WorkLocal[25] == 4163*) GOTO 0x0B70
     0x0B68 [0x03] ExtData[1]->WorkLocal[24] = 12*
     0x0B6D [0x01] GOTO 0x0D75
     0x0B70 [0x02] IF !(ExtData[1]->WorkLocal[25] == 4164*) GOTO 0x0B80
     0x0B78 [0x03] ExtData[1]->WorkLocal[24] = 13*
     0x0B7D [0x01] GOTO 0x0D75
     0x0B80 [0x02] IF !(ExtData[1]->WorkLocal[25] == 4165*) GOTO 0x0B90
     0x0B88 [0x03] ExtData[1]->WorkLocal[24] = 14*
     0x0B8D [0x01] GOTO 0x0D75
     0x0B90 [0x02] IF !(ExtData[1]->WorkLocal[25] == 4146*) GOTO 0x0BA0
     0x0B98 [0x03] ExtData[1]->WorkLocal[24] = 15*
     0x0B9D [0x01] GOTO 0x0D75
     0x0BA0 [0x02] IF !(ExtData[1]->WorkLocal[25] == 4147*) GOTO 0x0BB0
     0x0BA8 [0x03] ExtData[1]->WorkLocal[24] = 16*
     0x0BAD [0x01] GOTO 0x0D75
     0x0BB0 [0x02] IF !(ExtData[1]->WorkLocal[25] == 4200*) GOTO 0x0BC0
     0x0BB8 [0x03] ExtData[1]->WorkLocal[24] = 17*
     0x0BBD [0x01] GOTO 0x0D75
     0x0BC0 [0x02] IF !(ExtData[1]->WorkLocal[25] == 4202*) GOTO 0x0BD0
     0x0BC8 [0x03] ExtData[1]->WorkLocal[24] = 18*
     0x0BCD [0x01] GOTO 0x0D75
     0x0BD0 [0x02] IF !(ExtData[1]->WorkLocal[25] == 5246*) GOTO 0x0BE0
     0x0BD8 [0x03] ExtData[1]->WorkLocal[24] = 19*
     0x0BDD [0x01] GOTO 0x0D75
     0x0BE0 [0x02] IF !(ExtData[1]->WorkLocal[25] == 5247*) GOTO 0x0BF0
     0x0BE8 [0x03] ExtData[1]->WorkLocal[24] = 20*
     0x0BED [0x01] GOTO 0x0D75
     0x0BF0 [0x02] IF !(ExtData[1]->WorkLocal[25] == 5248*) GOTO 0x0C00
     0x0BF8 [0x03] ExtData[1]->WorkLocal[24] = 21*
     0x0BFD [0x01] GOTO 0x0D75
     0x0C00 [0x02] IF !(ExtData[1]->WorkLocal[25] == 5249*) GOTO 0x0C10
     0x0C08 [0x03] ExtData[1]->WorkLocal[24] = 22*
     0x0C0D [0x01] GOTO 0x0D75
     0x0C10 [0x02] IF !(ExtData[1]->WorkLocal[25] == 5250*) GOTO 0x0C20
     0x0C18 [0x03] ExtData[1]->WorkLocal[24] = 23*
     0x0C1D [0x01] GOTO 0x0D75
     0x0C20 [0x02] IF !(ExtData[1]->WorkLocal[25] == 5251*) GOTO 0x0C30
     0x0C28 [0x03] ExtData[1]->WorkLocal[24] = 24*
     0x0C2D [0x01] GOTO 0x0D75
     0x0C30 [0x02] IF !(ExtData[1]->WorkLocal[25] == 5252*) GOTO 0x0C40
     0x0C38 [0x03] ExtData[1]->WorkLocal[24] = 25*
     0x0C3D [0x01] GOTO 0x0D75
     0x0C40 [0x02] IF !(ExtData[1]->WorkLocal[25] == 4299*) GOTO 0x0C50
     0x0C48 [0x03] ExtData[1]->WorkLocal[24] = 26*
     0x0C4D [0x01] GOTO 0x0D75
     0x0C50 [0x02] IF !(ExtData[1]->WorkLocal[25] == 4300*) GOTO 0x0C60
     0x0C58 [0x03] ExtData[1]->WorkLocal[24] = 27*
     0x0C5D [0x01] GOTO 0x0D75
     0x0C60 [0x02] IF !(ExtData[1]->WorkLocal[25] == 4422*) GOTO 0x0C70
     0x0C68 [0x03] ExtData[1]->WorkLocal[24] = 28*
     0x0C6D [0x01] GOTO 0x0D75
     0x0C70 [0x02] IF !(ExtData[1]->WorkLocal[25] == 4423*) GOTO 0x0C80
     0x0C78 [0x03] ExtData[1]->WorkLocal[24] = 29*
     0x0C7D [0x01] GOTO 0x0D75
     0x0C80 [0x02] IF !(ExtData[1]->WorkLocal[25] == 5243*) GOTO 0x0C90
     0x0C88 [0x03] ExtData[1]->WorkLocal[24] = 30*
     0x0C8D [0x01] GOTO 0x0D75
     0x0C90 [0x02] IF !(ExtData[1]->WorkLocal[25] == 5244*) GOTO 0x0CA0
     0x0C98 [0x03] ExtData[1]->WorkLocal[24] = 31*
     0x0C9D [0x01] GOTO 0x0D75
     0x0CA0 [0x02] IF !(ExtData[1]->WorkLocal[25] == 5245*) GOTO 0x0CB0
     0x0CA8 [0x03] ExtData[1]->WorkLocal[24] = 32*
     0x0CAD [0x01] GOTO 0x0D75
     0x0CB0 [0x02] IF !(ExtData[1]->WorkLocal[25] == 4204*) GOTO 0x0CC0
     0x0CB8 [0x03] ExtData[1]->WorkLocal[24] = 33*
     0x0CBD [0x01] GOTO 0x0D75
     0x0CC0 [0x02] IF !(ExtData[1]->WorkLocal[25] == 4206*) GOTO 0x0CD0
     0x0CC8 [0x03] ExtData[1]->WorkLocal[24] = 34*
     0x0CCD [0x01] GOTO 0x0D75
     0x0CD0 [0x02] IF !(ExtData[1]->WorkLocal[25] == 4208*) GOTO 0x0CE0
     0x0CD8 [0x03] ExtData[1]->WorkLocal[24] = 35*
     0x0CDD [0x01] GOTO 0x0D75
     0x0CE0 [0x02] IF !(ExtData[1]->WorkLocal[25] == 4210*) GOTO 0x0CF0
     0x0CE8 [0x03] ExtData[1]->WorkLocal[24] = 36*
     0x0CED [0x01] GOTO 0x0D75
     0x0CF0 [0x02] IF !(ExtData[1]->WorkLocal[25] == 4212*) GOTO 0x0D00
     0x0CF8 [0x03] ExtData[1]->WorkLocal[24] = 37*
     0x0CFD [0x01] GOTO 0x0D75
     0x0D00 [0x02] IF !(ExtData[1]->WorkLocal[25] == 5304*) GOTO 0x0D10
     0x0D08 [0x03] ExtData[1]->WorkLocal[24] = 38*
     0x0D0D [0x01] GOTO 0x0D75
     0x0D10 [0x02] IF !(ExtData[1]->WorkLocal[25] == 5305*) GOTO 0x0D20
     0x0D18 [0x03] ExtData[1]->WorkLocal[24] = 39*
     0x0D1D [0x01] GOTO 0x0D75
     0x0D20 [0x02] IF !(ExtData[1]->WorkLocal[25] == 4149*) GOTO 0x0D30
     0x0D28 [0x03] ExtData[1]->WorkLocal[22] = 40*
     0x0D2D [0x01] GOTO 0x0D75
     0x0D30 [0x02] IF !(ExtData[1]->WorkLocal[25] == 4254*) GOTO 0x0D40
     0x0D38 [0x03] ExtData[1]->WorkLocal[22] = 41*
     0x0D3D [0x01] GOTO 0x0D75
     0x0D40 [0x02] IF !(ExtData[1]->WorkLocal[25] == 4255*) GOTO 0x0D50
     0x0D48 [0x03] ExtData[1]->WorkLocal[22] = 42*
     0x0D4D [0x01] GOTO 0x0D75
     0x0D50 [0x02] IF !(ExtData[1]->WorkLocal[25] == 5320*) GOTO 0x0D60
     0x0D58 [0x03] ExtData[1]->WorkLocal[22] = 43*
     0x0D5D [0x01] GOTO 0x0D75
     0x0D60 [0x02] IF !(ExtData[1]->WorkLocal[25] == 5322*) GOTO 0x0D70
     0x0D68 [0x03] ExtData[1]->WorkLocal[22] = 44*
     0x0D6D [0x01] GOTO 0x0D75
     0x0D70 [0x03] ExtData[1]->WorkLocal[24] = 4294967295*
     0x0D75 [0x01] GOTO 0x1083
     0x0D78 [0x02] IF !(ExtData[1]->WorkLocal[27] == 2*) GOTO 0x1083
     0x0D80 [0x02] IF !(ExtData[1]->WorkLocal[25] == 0*) GOTO 0x0D8B
     0x0D88 [0x01] GOTO 0x1080
     0x0D8B [0x02] IF !(ExtData[1]->WorkLocal[25] == 4116*) GOTO 0x0D9B
     0x0D93 [0x03] ExtData[1]->WorkLocal[24] = 0*
     0x0D98 [0x01] GOTO 0x1080
     0x0D9B [0x02] IF !(ExtData[1]->WorkLocal[25] == 4120*) GOTO 0x0DAB
     0x0DA3 [0x03] ExtData[1]->WorkLocal[24] = 1*
     0x0DA8 [0x01] GOTO 0x1080
     0x0DAB [0x02] IF !(ExtData[1]->WorkLocal[25] == 4124*) GOTO 0x0DBB
     0x0DB3 [0x03] ExtData[1]->WorkLocal[24] = 2*
     0x0DB8 [0x01] GOTO 0x1080
     0x0DBB [0x02] IF !(ExtData[1]->WorkLocal[25] == 4132*) GOTO 0x0DCB
     0x0DC3 [0x03] ExtData[1]->WorkLocal[24] = 3*
     0x0DC8 [0x01] GOTO 0x1080
     0x0DCB [0x02] IF !(ExtData[1]->WorkLocal[25] == 4136*) GOTO 0x0DDB
     0x0DD3 [0x03] ExtData[1]->WorkLocal[24] = 4*
     0x0DD8 [0x01] GOTO 0x1080
     0x0DDB [0x02] IF !(ExtData[1]->WorkLocal[25] == 4140*) GOTO 0x0DEB
     0x0DE3 [0x03] ExtData[1]->WorkLocal[24] = 5*
     0x0DE8 [0x01] GOTO 0x1080
     0x0DEB [0x02] IF !(ExtData[1]->WorkLocal[25] == 4144*) GOTO 0x0DFB
     0x0DF3 [0x03] ExtData[1]->WorkLocal[24] = 6*
     0x0DF8 [0x01] GOTO 0x1080
     0x0DFB [0x02] IF !(ExtData[1]->WorkLocal[25] == 4145*) GOTO 0x0E0B
     0x0E03 [0x03] ExtData[1]->WorkLocal[24] = 7*
     0x0E08 [0x01] GOTO 0x1080
     0x0E0B [0x02] IF !(ExtData[1]->WorkLocal[25] == 4150*) GOTO 0x0E1B
     0x0E13 [0x03] ExtData[1]->WorkLocal[24] = 8*
     0x0E18 [0x01] GOTO 0x1080
     0x0E1B [0x02] IF !(ExtData[1]->WorkLocal[25] == 4151*) GOTO 0x0E2B
     0x0E23 [0x03] ExtData[1]->WorkLocal[24] = 9*
     0x0E28 [0x01] GOTO 0x1080
     0x0E2B [0x02] IF !(ExtData[1]->WorkLocal[25] == 4155*) GOTO 0x0E3B
     0x0E33 [0x03] ExtData[1]->WorkLocal[24] = 10*
     0x0E38 [0x01] GOTO 0x1080
     0x0E3B [0x02] IF !(ExtData[1]->WorkLocal[25] == 4157*) GOTO 0x0E4B
     0x0E43 [0x03] ExtData[1]->WorkLocal[24] = 11*
     0x0E48 [0x01] GOTO 0x1080
     0x0E4B [0x02] IF !(ExtData[1]->WorkLocal[25] == 4161*) GOTO 0x0E5B
     0x0E53 [0x03] ExtData[1]->WorkLocal[24] = 12*
     0x0E58 [0x01] GOTO 0x1080
     0x0E5B [0x02] IF !(ExtData[1]->WorkLocal[25] == 4164*) GOTO 0x0E6B
     0x0E63 [0x03] ExtData[1]->WorkLocal[24] = 13*
     0x0E68 [0x01] GOTO 0x1080
     0x0E6B [0x02] IF !(ExtData[1]->WorkLocal[25] == 4165*) GOTO 0x0E7B
     0x0E73 [0x03] ExtData[1]->WorkLocal[24] = 14*
     0x0E78 [0x01] GOTO 0x1080
     0x0E7B [0x02] IF !(ExtData[1]->WorkLocal[25] == 4146*) GOTO 0x0E8B
     0x0E83 [0x03] ExtData[1]->WorkLocal[24] = 15*
     0x0E88 [0x01] GOTO 0x1080
     0x0E8B [0x02] IF !(ExtData[1]->WorkLocal[25] == 4147*) GOTO 0x0E9B
     0x0E93 [0x03] ExtData[1]->WorkLocal[24] = 16*
     0x0E98 [0x01] GOTO 0x1080
     0x0E9B [0x02] IF !(ExtData[1]->WorkLocal[25] == 4200*) GOTO 0x0EAB
     0x0EA3 [0x03] ExtData[1]->WorkLocal[24] = 17*
     0x0EA8 [0x01] GOTO 0x1080
     0x0EAB [0x02] IF !(ExtData[1]->WorkLocal[25] == 4202*) GOTO 0x0EBB
     0x0EB3 [0x03] ExtData[1]->WorkLocal[24] = 18*
     0x0EB8 [0x01] GOTO 0x1080
     0x0EBB [0x02] IF !(ExtData[1]->WorkLocal[25] == 5246*) GOTO 0x0ECB
     0x0EC3 [0x03] ExtData[1]->WorkLocal[24] = 19*
     0x0EC8 [0x01] GOTO 0x1080
     0x0ECB [0x02] IF !(ExtData[1]->WorkLocal[25] == 5247*) GOTO 0x0EDB
     0x0ED3 [0x03] ExtData[1]->WorkLocal[24] = 20*
     0x0ED8 [0x01] GOTO 0x1080
     0x0EDB [0x02] IF !(ExtData[1]->WorkLocal[25] == 5248*) GOTO 0x0EEB
     0x0EE3 [0x03] ExtData[1]->WorkLocal[24] = 21*
     0x0EE8 [0x01] GOTO 0x1080
     0x0EEB [0x02] IF !(ExtData[1]->WorkLocal[25] == 5249*) GOTO 0x0EFB
     0x0EF3 [0x03] ExtData[1]->WorkLocal[24] = 22*
     0x0EF8 [0x01] GOTO 0x1080
     0x0EFB [0x02] IF !(ExtData[1]->WorkLocal[25] == 5250*) GOTO 0x0F0B
     0x0F03 [0x03] ExtData[1]->WorkLocal[24] = 23*
     0x0F08 [0x01] GOTO 0x1080
     0x0F0B [0x02] IF !(ExtData[1]->WorkLocal[25] == 5251*) GOTO 0x0F1B
     0x0F13 [0x03] ExtData[1]->WorkLocal[24] = 24*
     0x0F18 [0x01] GOTO 0x1080
     0x0F1B [0x02] IF !(ExtData[1]->WorkLocal[25] == 5252*) GOTO 0x0F2B
     0x0F23 [0x03] ExtData[1]->WorkLocal[24] = 25*
     0x0F28 [0x01] GOTO 0x1080
     0x0F2B [0x02] IF !(ExtData[1]->WorkLocal[25] == 4301*) GOTO 0x0F3B
     0x0F33 [0x03] ExtData[1]->WorkLocal[24] = 26*
     0x0F38 [0x01] GOTO 0x1080
     0x0F3B [0x02] IF !(ExtData[1]->WorkLocal[25] == 4302*) GOTO 0x0F4B
     0x0F43 [0x03] ExtData[1]->WorkLocal[24] = 27*
     0x0F48 [0x01] GOTO 0x1080
     0x0F4B [0x02] IF !(ExtData[1]->WorkLocal[25] == 4424*) GOTO 0x0F5B
     0x0F53 [0x03] ExtData[1]->WorkLocal[24] = 28*
     0x0F58 [0x01] GOTO 0x1080
     0x0F5B [0x02] IF !(ExtData[1]->WorkLocal[25] == 4425*) GOTO 0x0F6B
     0x0F63 [0x03] ExtData[1]->WorkLocal[24] = 29*
     0x0F68 [0x01] GOTO 0x1080
     0x0F6B [0x02] IF !(ExtData[1]->WorkLocal[25] == 5241*) GOTO 0x0F7B
     0x0F73 [0x03] ExtData[1]->WorkLocal[24] = 30*
     0x0F78 [0x01] GOTO 0x1080
     0x0F7B [0x02] IF !(ExtData[1]->WorkLocal[25] == 5242*) GOTO 0x0F8B
     0x0F83 [0x03] ExtData[1]->WorkLocal[24] = 31*
     0x0F88 [0x01] GOTO 0x1080
     0x0F8B [0x02] IF !(ExtData[1]->WorkLocal[25] == 5243*) GOTO 0x0F9B
     0x0F93 [0x03] ExtData[1]->WorkLocal[24] = 32*
     0x0F98 [0x01] GOTO 0x1080
     0x0F9B [0x02] IF !(ExtData[1]->WorkLocal[25] == 5244*) GOTO 0x0FAB
     0x0FA3 [0x03] ExtData[1]->WorkLocal[24] = 33*
     0x0FA8 [0x01] GOTO 0x1080
     0x0FAB [0x02] IF !(ExtData[1]->WorkLocal[25] == 5245*) GOTO 0x0FBB
     0x0FB3 [0x03] ExtData[1]->WorkLocal[24] = 34*
     0x0FB8 [0x01] GOTO 0x1080
     0x0FBB [0x02] IF !(ExtData[1]->WorkLocal[25] == 4204*) GOTO 0x0FCB
     0x0FC3 [0x03] ExtData[1]->WorkLocal[24] = 35*
     0x0FC8 [0x01] GOTO 0x1080
     0x0FCB [0x02] IF !(ExtData[1]->WorkLocal[25] == 4206*) GOTO 0x0FDB
     0x0FD3 [0x03] ExtData[1]->WorkLocal[24] = 36*
     0x0FD8 [0x01] GOTO 0x1080
     0x0FDB [0x02] IF !(ExtData[1]->WorkLocal[25] == 4208*) GOTO 0x0FEB
     0x0FE3 [0x03] ExtData[1]->WorkLocal[24] = 37*
     0x0FE8 [0x01] GOTO 0x1080
     0x0FEB [0x02] IF !(ExtData[1]->WorkLocal[25] == 4210*) GOTO 0x0FFB
     0x0FF3 [0x03] ExtData[1]->WorkLocal[24] = 38*
     0x0FF8 [0x01] GOTO 0x1080
     0x0FFB [0x02] IF !(ExtData[1]->WorkLocal[25] == 4212*) GOTO 0x100B
     0x1003 [0x03] ExtData[1]->WorkLocal[24] = 39*
     0x1008 [0x01] GOTO 0x1080
     0x100B [0x02] IF !(ExtData[1]->WorkLocal[25] == 5304*) GOTO 0x101B
     0x1013 [0x03] ExtData[1]->WorkLocal[24] = 40*
     0x1018 [0x01] GOTO 0x1080
     0x101B [0x02] IF !(ExtData[1]->WorkLocal[25] == 5305*) GOTO 0x102B
     0x1023 [0x03] ExtData[1]->WorkLocal[24] = 41*
     0x1028 [0x01] GOTO 0x1080
     0x102B [0x02] IF !(ExtData[1]->WorkLocal[25] == 4149*) GOTO 0x103B
     0x1033 [0x03] ExtData[1]->WorkLocal[22] = 42*
     0x1038 [0x01] GOTO 0x1080
     0x103B [0x02] IF !(ExtData[1]->WorkLocal[25] == 4254*) GOTO 0x104B
     0x1043 [0x03] ExtData[1]->WorkLocal[22] = 43*
     0x1048 [0x01] GOTO 0x1080
     0x104B [0x02] IF !(ExtData[1]->WorkLocal[25] == 4255*) GOTO 0x105B
     0x1053 [0x03] ExtData[1]->WorkLocal[22] = 44*
     0x1058 [0x01] GOTO 0x1080
     0x105B [0x02] IF !(ExtData[1]->WorkLocal[25] == 5320*) GOTO 0x106B
     0x1063 [0x03] ExtData[1]->WorkLocal[22] = 45*
     0x1068 [0x01] GOTO 0x1080
     0x106B [0x02] IF !(ExtData[1]->WorkLocal[25] == 5322*) GOTO 0x107B
     0x1073 [0x03] ExtData[1]->WorkLocal[22] = 46*
     0x1078 [0x01] GOTO 0x1080
     0x107B [0x03] ExtData[1]->WorkLocal[24] = 4294967295*
     0x1080 [0x01] GOTO 0x1083
     0x1083 [0x06] ExtData[1]->WorkLocal[26] = 0
     0x1086 [0x02] IF !(ExtData[1]->WorkLocal[24] < 0*) GOTO 0x10A0
     0x108E [0x02] IF !(ExtData[1]->WorkLocal[24] > 63*) GOTO 0x10A0
     0x1096 [0x3E] IF !(ExtData[1]->WorkLocal[2] bit ExtData[1]->WorkLocal[24]) GOTO 0x10A0
     0x109D [0x05] ExtData[1]->WorkLocal[26] = 1
     0x10A0 [0x1B] RETURN
# Dead code (unreachable instructions):
     0x1123 [0x06] ExtData[1]->WorkLocal[20] = 0
     0x1126 [0x06] ExtData[1]->WorkLocal[21] = 0
     0x1129 [0x02] IF !(ExtData[1]->WorkLocal[20] > 63*) GOTO 0x1141
     0x1131 [0x3E] IF !(ExtData[1]->WorkLocal[2] bit ExtData[1]->WorkLocal[20]) GOTO 0x113B
     0x1138 [0x0B] ExtData[1]->WorkLocal[21]++
     0x113B [0x0B] ExtData[1]->WorkLocal[20]++
     0x113E [0x01] GOTO 0x1129
     0x1141 [0x1B] RETURN
```

### Event 65535.1

#### Metadata

| Field        | Value    |
|--------------|----------|
| Entrypoint   | 0x1142   |
| Data Size    | 10 bytes |
| Instructions | 2        |

```
      00 01 02 03 04 05 06 07  08 09 0A 0B 0C 0D 0E 0F
      -- -- -- -- -- -- -- --  -- -- -- -- -- -- -- --
1140:       37 74 80 75 80 76  80 77 80 00                7t.u.v.w..    
```

#### Opcodes

```
  0: 0x1142 [0x37] UPDATE_EVENT_POSITION_AND_DIR: x=-12.107*, z=314.320*, y=0.138*, direction=14.9°*
  1: 0x114B [0x00] END_REQSTACK()
```

### Event 65535.2

#### Metadata

| Field        | Value    |
|--------------|----------|
| Entrypoint   | 0x114C   |
| Data Size    | 10 bytes |
| Instructions | 2        |

```
      00 01 02 03 04 05 06 07  08 09 0A 0B 0C 0D 0E 0F
      -- -- -- -- -- -- -- --  -- -- -- -- -- -- -- --
1140:                                      37 78 80 79              7x.y
1150: 80 7A 80 7B 80 00                                 .z.{..          
```

#### Opcodes

```
  0: 0x114C [0x37] UPDATE_EVENT_POSITION_AND_DIR: x=-13.908*, z=321.409*, y=0.755*, direction=249.0°*
  1: 0x1155 [0x00] END_REQSTACK()
```

### Event 65535.3

#### Metadata

| Field        | Value    |
|--------------|----------|
| Entrypoint   | 0x1156   |
| Data Size    | 14 bytes |
| Instructions | 4        |

```
      00 01 02 03 04 05 06 07  08 09 0A 0B 0C 0D 0E 0F
      -- -- -- -- -- -- -- --  -- -- -- -- -- -- -- --
1150:                   32 5C  80 1F 00 7C 80 7D 80 7E        2\...|.}.~
1160: 80 1F 01 00                                       ....            
```

#### Opcodes

```
  0: 0x1156 [0x32] ExtData[1]->MainSpeed = 40* * 0.1
  1: 0x1159 [0x1F] MOVE_ENTITY: EventEntity moves to X=-12.389*, Z=322.851*, Y=0.783*
  2: 0x1161 [0x1F] MOVE_ENTITY: Update entity position (mode=1)
  3: 0x1163 [0x00] END_REQSTACK()
```

### Event 65535.4

#### Metadata

| Field        | Value   |
|--------------|---------|
| Entrypoint   | 0x1164  |
| Data Size    | 6 bytes |
| Instructions | 2       |

```
      00 01 02 03 04 05 06 07  08 09 0A 0B 0C 0D 0E 0F
      -- -- -- -- -- -- -- --  -- -- -- -- -- -- -- --
1160:             03 02 10 0B  7F 00                        ......      
```

#### Opcodes

```
  0: 0x1164 [0x03] Work_Zone[2] = (Entity->Render.Flags01 >> 25) & 1
  1: 0x1169 [0x00] END_REQSTACK()
```

### Event 65535.5

#### Metadata

| Field        | Value   |
|--------------|---------|
| Entrypoint   | 0x116A  |
| Data Size    | 6 bytes |
| Instructions | 2       |

```
      00 01 02 03 04 05 06 07  08 09 0A 0B 0C 0D 0E 0F
      -- -- -- -- -- -- -- --  -- -- -- -- -- -- -- --
1160:                                03 02 10 07 7F 00            ......
```

#### Opcodes

```
  0: 0x116A [0x03] Work_Zone[2] = Entity->Race
  1: 0x116F [0x00] END_REQSTACK()
```

### Event 65535.6

#### Metadata

| Field        | Value   |
|--------------|---------|
| Entrypoint   | 0x1170  |
| Data Size    | 6 bytes |
| Instructions | 2       |

```
      00 01 02 03 04 05 06 07  08 09 0A 0B 0C 0D 0E 0F
      -- -- -- -- -- -- -- --  -- -- -- -- -- -- -- --
1170: 03 09 10 07 7F 00                                 ......          
```

#### Opcodes

```
  0: 0x1170 [0x03] Work_Zone[9] = Entity->Race
