# Event 10092

## Metadata

| Field           | Value    |
|-----------------|----------|
| Event Index     | 4/7      |
| Offset          | 0x0043   |
| Data Size       | 52 bytes |
| Calculated Size | 52 bytes |
| Instructions    | 12       |

```
      00 01 02 03 04 05 06 07  08 09 0A 0B 0C 0D 0E 0F
      -- -- -- -- -- -- -- --  -- -- -- -- -- -- -- --
0040:          42 48 06 80 1E  F0 FF FF 7F 1C 07 80 5B     BH..........[
0050: 04 80 F8 FF FF 7F F8 FF  FF 7F 74 6C 6B 30 1D 08  ..........tlk0..
0060: 80 23 1D 09 80 23 5B 04  80 F8 FF FF 7F F8 FF FF  .#...#[.........
0070: 7F 74 6C 6B 31 21 00                              .tlk1!.         
```

## Opcodes

```
  0: 0x0043 [0x42] SET_CLI_EVENT_CANCEL_DATA()
  1: 0x0044 [0x48] [System] [13840*]:
    → "\u001F\u000F\u0008's badge flashes brightly.\u007F1\u0000\u0007"
  2: 0x0047 [0x1E] EventEntity looks at LocalPlayer and starts talking
  3: 0x004C [0x1C] WAIT(30* ticks)
  4: 0x004F [0x5B] LOAD_EXT_SCHEDULER: Load scheduler "tlk0" with entities [EventEntity, EventEntity], work=10*
  5: 0x005E [0x1D] PRINT_EVENT_MESSAGE(message_id=13847*)
    → "Near Eastern cuisine is all the rage now.\u0007Lately I've been studying up on it to add some spice to the palace banquets.\u007F1\u0000\u0007"
  6: 0x0061 [0x23] WAIT_FOR_DIALOG_INTERACTION
  7: 0x0062 [0x1D] PRINT_EVENT_MESSAGE(message_id=13848*)
    → "Near Eastern cooking is considered one of the leading cuisines in Vana'diel, so I am sure the archduke will be most pleased.\u007F1\u0000\u0007"
  8: 0x0065 [0x23] WAIT_FOR_DIALOG_INTERACTION
  9: 0x0066 [0x5B] LOAD_EXT_SCHEDULER: Load scheduler "tlk1" with entities [EventEntity, EventEntity], work=10*
 10: 0x0075 [0x21] END_EVENT
 11: 0x0076 [0x00] END_REQSTACK()
```
