# 17117985

## Common Data

| Field            | Value                      |
|------------------|----------------------------|
| Zone             | Vunkerl Inlet [S] (ID: 83) |
| Block Size       | 10612 bytes                |
| Total Events     | 8                          |
| References Count | 253                        |

## List of Events

| Event ID              | Entrypoint   |   Size |   Instructions |
|-----------------------|--------------|--------|----------------|
| [65535](#event-65535) | 0x0000       |      1 |              1 |
| [105](#event-105)     | 0x0001       |   5761 |            615 |
| [106](#event-106)     | 0x1682       |      6 |              4 |
| [107](#event-107)     | 0x1688       |    869 |            179 |
| [108](#event-108)     | 0x19ED       |   1696 |            207 |
| [109](#event-109)     | 0x208D       |    299 |             42 |
| [110](#event-110)     | 0x21B8       |      6 |              4 |
| [111](#event-111)     | 0x21BE       |    913 |            121 |

## DAT References (imed_data)

|   Index | Hex Value   |   Dec Value |
|---------|-------------|-------------|
|       0 | 0x0000      |           0 |
|       1 | 0x00F0      |         240 |
|       2 | 0x0013      |          19 |
|       3 | 0xFFFFA13A  |  4294943034 |
|       4 | 0x599E7     |      367079 |
|       5 | 0xFFFF8546  |  4294935878 |
|       6 | 0x05C1      |        1473 |
|       7 | 0xFFFFB6D4  |  4294948564 |
|       8 | 0x54D09     |      347401 |
|       9 | 0xFFFF7F7E  |  4294934398 |
|      10 | 0x0309      |         777 |
|      11 | 0xFFFFBBC2  |  4294949826 |
|      12 | 0x4C5BE     |      312766 |
|      13 | 0x0FA0      |        4000 |
|      14 | 0xFFFFACA1  |  4294945953 |
|      15 | 0x54B5A     |      346970 |
|      16 | 0xFFFFB58E  |  4294948238 |
|      17 | 0x4BC6E     |      310382 |
|      18 | 0xFFFFABEA  |  4294945770 |
|      19 | 0x4B6EB     |      308971 |
|      20 | 0x044D      |        1101 |
|      21 | 0x0513      |        1299 |
|      22 | 0x001E      |          30 |
|      23 | 0x057D      |        1405 |
|      24 | 0x0529      |        1321 |
|      25 | 0x0164      |         356 |
|      26 | 0x00C8      |         200 |
|      27 | 0xFFFFB071  |  4294946929 |
|      28 | 0x585C9     |      361929 |
|      29 | 0xFFFF86DB  |  4294936283 |
|      30 | 0x045B      |        1115 |
|      31 | 0x00A3      |         163 |
|      32 | 0x0165      |         357 |
|      33 | 0x00D8      |         216 |
|      34 | 0x1EB9      |        7865 |
|      35 | 0x1EBA      |        7866 |
|      36 | 0x1EBB      |        7867 |
|      37 | 0xFFFFB2B6  |  4294947510 |
|      38 | 0x563C8     |      353224 |
|      39 | 0xFFFF8273  |  4294935155 |
|      40 | 0x037A      |         890 |
|      41 | 0xFFFFB220  |  4294947360 |
|      42 | 0x55598     |      349592 |
|      43 | 0x0166      |         358 |
|      44 | 0x04F8      |        1272 |
|      45 | 0x1EBC      |        7868 |
|      46 | 0x0016      |          22 |
|      47 | 0x0078      |         120 |
|      48 | 0x1EBD      |        7869 |
|      49 | 0x1EBE      |        7870 |
|      50 | 0x00D7      |         215 |
|      51 | 0x1EBF      |        7871 |
|      52 | 0x1EC0      |        7872 |
|      53 | 0x1EC1      |        7873 |
|      54 | 0x1EC2      |        7874 |
|      55 | 0x1EC3      |        7875 |
|      56 | 0x1EC4      |        7876 |
|      57 | 0x059E      |        1438 |
|      58 | 0x1EC5      |        7877 |
|      59 | 0x1EC6      |        7878 |
|      60 | 0x0073      |         115 |
|      61 | 0x1EC7      |        7879 |
|      62 | 0x052A      |        1322 |
|      63 | 0x1EC8      |        7880 |
|      64 | 0x1EC9      |        7881 |
|      65 | 0x1ECA      |        7882 |
|      66 | 0x04F9      |        1273 |
|      67 | 0x1ECB      |        7883 |
|      68 | 0x003C      |          60 |
|      69 | 0x1ECC      |        7884 |
|      70 | 0x1ECD      |        7885 |
|      71 | 0x1ECE      |        7886 |
|      72 | 0x1ECF      |        7887 |
|      73 | 0x1ED0      |        7888 |
|      74 | 0x057E      |        1406 |
|      75 | 0x1ED1      |        7889 |
|      76 | 0x1ED2      |        7890 |
|      77 | 0x0088      |         136 |
|      78 | 0x1ED3      |        7891 |
|      79 | 0x1ED4      |        7892 |
|      80 | 0x1ED5      |        7893 |
|      81 | 0x1ED6      |        7894 |
|      82 | 0x00B4      |         180 |
|      83 | 0x1ED7      |        7895 |
|      84 | 0x1ED8      |        7896 |
|      85 | 0x1ED9      |        7897 |
|      86 | 0x1EDA      |        7898 |
|      87 | 0x1EDB      |        7899 |
|      88 | 0x007F      |         127 |
|      89 | 0x1EDC      |        7900 |
|      90 | 0x0015      |          21 |
|      91 | 0x1EDD      |        7901 |
|      92 | 0x1EDE      |        7902 |
|      93 | 0x0001      |           1 |
|      94 | 0xFFFFB768  |  4294948712 |
|      95 | 0x4C41B     |      312347 |
|      96 | 0x05A9      |        1449 |
|      97 | 0x1EDF      |        7903 |
|      98 | 0x1EE0      |        7904 |
|      99 | 0x1EE1      |        7905 |
|     100 | 0x0EC7      |        3783 |
|     101 | 0x1EE2      |        7906 |
|     102 | 0x1EE3      |        7907 |
|     103 | 0x1EE4      |        7908 |
|     104 | 0x1EE5      |        7909 |
|     105 | 0x059D      |        1437 |
|     106 | 0x1EE6      |        7910 |
|     107 | 0x1EE7      |        7911 |
|     108 | 0xFFFFA8AC  |  4294944940 |
|     109 | 0x4FE78     |      327288 |
|     110 | 0x04BB      |        1211 |
|     111 | 0xFFFFB262  |  4294947426 |
|     112 | 0x4C934     |      313652 |
|     113 | 0xFFFFB398  |  4294947736 |
|     114 | 0x4FA55     |      326229 |
|     115 | 0xFFFFB7E7  |  4294948839 |
|     116 | 0x4D02F     |      315439 |
|     117 | 0x0AA8      |        2728 |
|     118 | 0x1EE8      |        7912 |
|     119 | 0x1EE9      |        7913 |
|     120 | 0x1EEA      |        7914 |
|     121 | 0x1EEB      |        7915 |
|     122 | 0x1EEC      |        7916 |
|     123 | 0x057F      |        1407 |
|     124 | 0x1EED      |        7917 |
|     125 | 0x1EEE      |        7918 |
|     126 | 0x005A      |          90 |
|     127 | 0x1EEF      |        7919 |
|     128 | 0x1EF0      |        7920 |
|     129 | 0x1EF1      |        7921 |
|     130 | 0x1EF2      |        7922 |
|     131 | 0x1EF3      |        7923 |
|     132 | 0x1EF4      |        7924 |
|     133 | 0x1EF5      |        7925 |
|     134 | 0x1EF6      |        7926 |
|     135 | 0x1EF7      |        7927 |
|     136 | 0x1EF8      |        7928 |
|     137 | 0x1EF9      |        7929 |
|     138 | 0x1EFA      |        7930 |
|     139 | 0xFFFFB43F  |  4294947903 |
|     140 | 0x4E349     |      320329 |
|     141 | 0x0B61      |        2913 |
|     142 | 0x1EB8      |        7864 |
|     143 | 0x1EFB      |        7931 |
|     144 | 0x1EFC      |        7932 |
|     145 | 0x0002      |           2 |
|     146 | 0x1F00      |        7936 |
|     147 | 0x1EFD      |        7933 |
|     148 | 0x1EFE      |        7934 |
|     149 | 0x1EFF      |        7935 |
|     150 | 0xFFFFB058  |  4294946904 |
|     151 | 0x4C0B9     |      311481 |
|     152 | 0x041A      |        1050 |
|     153 | 0x00F6      |         246 |
|     154 | 0x1F05      |        7941 |
|     155 | 0x1F06      |        7942 |
|     156 | 0xFFFFB689  |  4294948489 |
|     157 | 0x4C79C     |      313244 |
|     158 | 0x0428      |        1064 |
|     159 | 0x1F07      |        7943 |
|     160 | 0x1F08      |        7944 |
|     161 | 0x1F09      |        7945 |
|     162 | 0x1F0A      |        7946 |
|     163 | 0x1F0B      |        7947 |
|     164 | 0x1F0C      |        7948 |
|     165 | 0xFFFFB144  |  4294947140 |
|     166 | 0x47E15     |      294421 |
|     167 | 0x0415      |        1045 |
|     168 | 0x000F      |          15 |
|     169 | 0x1F0D      |        7949 |
|     170 | 0xFFFFB61C  |  4294948380 |
|     171 | 0x4D56E     |      316782 |
|     172 | 0x002D      |          45 |
|     173 | 0x1F0E      |        7950 |
|     174 | 0x1F0F      |        7951 |
|     175 | 0xFFFFB2ED  |  4294947565 |
|     176 | 0x4DA9F     |      318111 |
|     177 | 0x000D      |          13 |
|     178 | 0xFFFFB217  |  4294947351 |
|     179 | 0x50C0D     |      330765 |
|     180 | 0x0BDF      |        3039 |
|     181 | 0x1F10      |        7952 |
|     182 | 0x1F11      |        7953 |
|     183 | 0xFFFFB0FC  |  4294947068 |
|     184 | 0x58244     |      361028 |
|     185 | 0xFFFF86DF  |  4294936287 |
|     186 | 0x0FFB      |        4091 |
|     187 | 0xFFFFB4DA  |  4294948058 |
|     188 | 0x57C5A     |      359514 |
|     189 | 0xFFFF86C2  |  4294936258 |
|     190 | 0x0DAC      |        3500 |
|     191 | 0xFFFFBB21  |  4294949665 |
|     192 | 0x58763     |      362339 |
|     193 | 0xFFFF86BA  |  4294936250 |
|     194 | 0x0146      |         326 |
|     195 | 0xFFFFB4E0  |  4294948064 |
|     196 | 0x585A1     |      361889 |
|     197 | 0xFFFF86CA  |  4294936266 |
|     198 | 0x0433      |        1075 |
|     199 | 0x1F12      |        7954 |
|     200 | 0x1F13      |        7955 |
|     201 | 0x1F14      |        7956 |
|     202 | 0xFFFF7DDC  |  4294933980 |
|     203 | 0x595BA     |      366010 |
|     204 | 0xFFFF82E9  |  4294935273 |
|     205 | 0x083C      |        2108 |
|     206 | 0x00C9      |         201 |
|     207 | 0x006F      |         111 |
|     208 | 0x1F03      |        7939 |
|     209 | 0x1F04      |        7940 |
|     210 | 0xFFFFB341  |  4294947649 |
|     211 | 0x54676     |      345718 |
|     212 | 0x0BFB      |        3067 |
|     213 | 0xFFFFA815  |  4294944789 |
|     214 | 0x58D32     |      363826 |
|     215 | 0xFFFF8665  |  4294936165 |
|     216 | 0x0402      |        1026 |
|     217 | 0xFFFFAAF5  |  4294945525 |
|     218 | 0x4C431     |      312369 |
|     219 | 0xFFFF7F7A  |  4294934394 |
|     220 | 0x0348      |         840 |
|     221 | 0xFFFFB778  |  4294948728 |
|     222 | 0x4C8CB     |      313547 |
|     223 | 0x045A      |        1114 |
|     224 | 0xFFFFAD6F  |  4294946159 |
|     225 | 0x4D4FF     |      316671 |
|     226 | 0x033E      |         830 |
|     227 | 0xFFFFB4A1  |  4294948001 |
|     228 | 0x556DD     |      349917 |
|     229 | 0xFFFF7F38  |  4294934328 |
|     230 | 0x0366      |         870 |
|     231 | 0xFFFFB500  |  4294948096 |
|     232 | 0x5291B     |      338203 |
|     233 | 0x04AB      |        1195 |
|     234 | 0xFFFFB4D9  |  4294948057 |
|     235 | 0x51492     |      332946 |
|     236 | 0x1F01      |        7937 |
|     237 | 0xFFFFB2CD  |  4294947533 |
|     238 | 0x4CE5B     |      314971 |
|     239 | 0x05C0      |        1472 |
|     240 | 0xFFFFB46E  |  4294947950 |
|     241 | 0x4E879     |      321657 |
|     242 | 0x064A      |        1610 |
|     243 | 0xFFFFB4A3  |  4294948003 |
|     244 | 0x4CF3D     |      315197 |
|     245 | 0xFFFFB4C1  |  4294948033 |
|     246 | 0x4C80B     |      313355 |
|     247 | 0x0BB6      |        2998 |
|     248 | 0x1F02      |        7938 |
|     249 | 0xFFFFB01E  |  4294946846 |
|     250 | 0x4BED8     |      311000 |
|     251 | 0x0E9B      |        3739 |
|     252 | 0x0515      |        1301 |

## String References

- **7864**: There is nothing out of the ordinary here.
- **7924**: "Vunkerl herb memo." 00:00\`07:59 San d'Oria 08:00\`15:59 Bastok 16:00\`23:59 Windurst
- **7931**: You see many different colors of herbs here.
- **7932**: The current time period is [00:00\`07:59/08:00\`15:59/16:00\`23:59]. Which color herb will you gather?
- **7933**: Gather which color herb? [Red herb./Blue herb./Green herb./Do not gather.]
- **7934**: Gather which color herb? [Green herb./Red herb./Blue herb./Do not gather.]
- **7935**: Gather which color herb? [Blue herb./Green herb./Red herb./Do not gather.]
- **7936**: You gather a [red herb/blue herb/green herb]!

## Events

### Event 65535

#### Metadata

| Field        | Value   |
|--------------|---------|
| Entrypoint   | 0x0000  |
| Data Size    | 1 bytes |
| Instructions | 1       |

```
      00 01 02 03 04 05 06 07  08 09 0A 0B 0C 0D 0E 0F
      -- -- -- -- -- -- -- --  -- -- -- -- -- -- -- --
0000: 00                                                .               
```

#### Opcodes

```
  0: 0x0000 [0x00] END_REQSTACK()
```

### Event 105

#### Metadata

| Field        | Value      |
|--------------|------------|
| Entrypoint   | 0x0001     |
| Data Size    | 5761 bytes |
| Instructions | 615        |

```
      00 01 02 03 04 05 06 07  08 09 0A 0B 0C 0D 0E 0F
      -- -- -- -- -- -- -- --  -- -- -- -- -- -- -- --
0000:    42 46 01 1A C4 21 5D  00 80 01 80 38 02 80 92   BF...!]....8...
0010: 01 28 33 05 01 92 01 25  33 05 01 92 01 33 33 05  .(3....%3....33.
0020: 01 92 01 32 33 05 01 92  01 34 33 05 01 92 01 35  ...23....43....5
0030: 33 05 01 94 01 28 33 05  01 94 01 34 33 05 01 94  3....(3....43...
0040: 01 25 33 05 01 94 01 33  33 05 01 94 01 32 33 05  .%3....33....23.
0050: 01 BA F0 FF FF 7F 03 80  04 80 05 80 06 80 BA 25  ...............%
0060: 33 05 01 07 80 08 80 09  80 0A 80 BA 28 33 05 01  3...........(3..
0070: 0B 80 0C 80 09 80 0D 80  BA 34 33 05 01 0B 80 0C  .........43.....
0080: 80 09 80 0D 80 BA 33 33  05 01 0E 80 0F 80 09 80  ......33........
0090: 0A 80 BA 32 33 05 01 10  80 11 80 09 80 06 80 BA  ...23...........
00A0: 35 33 05 01 12 80 13 80  09 80 14 80 4A 32 33 05  53..........J23.
00B0: 01 28 33 05 01 7B 28 33  05 01 7B 25 33 05 01 7B  .(3..{(3..{%3..{
00C0: 33 33 05 01 7B 32 33 05  01 7B 34 33 05 01 4E 00  33..{23..{43..N.
00D0: F0 FF FF 7F 4E 00 28 33  05 01 4E 00 25 33 05 01  ....N.(3..N.%3..
00E0: 4E 00 33 33 05 01 4E 00  32 33 05 01 4E 00 34 33  N.33..N.23..N.43
00F0: 05 01 4E 00 35 33 05 01  80 28 33 05 01 80 25 33  ..N.53...(3...%3
0100: 05 01 80 33 33 05 01 80  32 33 05 01 80 34 33 05  ...33...23...43.
0110: 01 81 00 28 33 05 01 7C  00 28 33 05 01 5B 15 80  ...(3..|.(3..[..
0120: 28 33 05 01 28 33 05 01  66 64 30 30 1C 16 80 5B  (3..(3..fd00...[
0130: 17 80 28 33 05 01 28 33  05 01 66 73 68 30 5B 18  ..(3..(3..fsh0[.
0140: 80 34 33 05 01 34 33 05  01 66 73 68 30 45 19 80  .43..43..fsh0E..
0150: F8 FF FF 7F F8 FF FF 7F  73 30 30 30 00 80 45 1A  ........s000..E.
0160: 80 F8 FF FF 7F F8 FF FF  7F 66 64 69 32 00 80 03  .........fdi2...
0170: 25 10 1B 80 03 26 10 1C  80 03 27 10 1D 80 03 28  %....&....'....(
0180: 10 1E 80 29 0F F0 FF FF  7F 06 4A F0 FF FF 7F 33  ...)......J....3
0190: 33 05 01 5C 00 1F 80 5C  01 1F 80 9A 52 19 80 F8  3..\...\....R...
01A0: FF FF 7F F8 FF FF 7F 73  30 30 30 45 19 80 F8 FF  .......s000E....
01B0: FF 7F F8 FF FF 7F 73 30  38 30 00 80 7B F0 FF FF  ......s080..{...
01C0: 7F 45 20 80 33 33 05 01  33 33 05 01 73 65 30 33  .E .33..33..se03
01D0: 00 80 5B 21 80 33 33 05  01 33 33 05 01 68 61 70  ..[!.33..33..hap
01E0: 30 2B 33 33 05 01 22 80  23 2B 33 33 05 01 23 80  0+33..".#+33..#.
01F0: 23 52 19 80 F8 FF FF 7F  F8 FF FF 7F 73 30 38 30  #R..........s080
0200: 45 19 80 F8 FF FF 7F F8  FF FF 7F 73 30 38 31 00  E..........s081.
0210: 80 2B 33 33 05 01 24 80  23 52 19 80 F8 FF FF 7F  .+33..$.#R......
0220: F8 FF FF 7F 73 30 38 31  45 20 80 F8 FF FF 7F F8  ....s081E ......
0230: FF FF 7F 73 31 35 37 00  80 BA F0 FF FF 7F 25 80  ...s157.......%.
0240: 26 80 27 80 28 80 03 25  10 29 80 03 26 10 2A 80  &.'.(..%.)..&.*.
0250: 03 27 10 09 80 03 28 10  2B 80 29 0F F0 FF FF 7F  .'....(.+.).....
0260: 06 4A F0 FF FF 7F 25 33  05 01 4A 25 33 05 01 F0  .J....%3..J%3...
0270: FF FF 7F 55 20 80 F8 FF  FF 7F F8 FF FF 7F 73 31  ...U .........s1
0280: 35 37 45 20 80 F8 FF FF  7F F8 FF FF 7F 73 31 35  57E .........s15
0290: 38 00 80 7B 25 33 05 01  6F 76 25 33 05 01 5B 2C  8..{%3..ov%3..[,
02A0: 80 25 33 05 01 25 33 05  01 74 6C 61 30 2B 25 33  .%3..%3..tla0+%3
02B0: 05 01 2D 80 23 5B 2C 80  25 33 05 01 25 33 05 01  ..-.#[,.%3..%3..
02C0: 74 6C 61 31 6E F0 FF FF  7F 2E 80 99 F0 FF FF 7F  tla1n...........
02D0: 1C 2F 80 4A 33 33 05 01  F0 FF FF 7F 52 20 80 F8  ./.J33......R ..
02E0: FF FF 7F F8 FF FF 7F 73  31 35 38 45 20 80 F8 FF  .......s158E ...
02F0: FF 7F F8 FF FF 7F 73 31  35 39 00 80 81 00 25 33  ......s159....%3
0300: 05 01 5B 2C 80 25 33 05  01 25 33 05 01 74 68 61  ..[,.%3..%3..tha
0310: 30 2B 25 33 05 01 30 80  23 5B 2C 80 25 33 05 01  0+%3..0.#[,.%3..
0320: 25 33 05 01 74 68 61 31  81 01 25 33 05 01 4A 25  %3..tha1..%3..J%
0330: 33 05 01 33 33 05 01 4A  F0 FF FF 7F 33 33 05 01  3..33..J....33..
0340: 52 20 80 F8 FF FF 7F F8  FF FF 7F 73 31 35 39 45  R .........s159E
0350: 20 80 F8 FF FF 7F F8 FF  FF 7F 73 31 36 30 00 80   .........s160..
0360: 7B 25 33 05 01 6F 76 25  33 05 01 5B 2C 80 25 33  {%3..ov%3..[,.%3
0370: 05 01 25 33 05 01 74 6C  61 30 2B 25 33 05 01 31  ..%3..tla0+%3..1
0380: 80 23 5B 2C 80 25 33 05  01 25 33 05 01 74 6C 61  .#[,.%3..%3..tla
0390: 31 52 20 80 F8 FF FF 7F  F8 FF FF 7F 73 31 36 30  1R .........s160
03A0: 45 20 80 F8 FF FF 7F F8  FF FF 7F 73 31 38 33 00  E .........s183.
03B0: 80 5B 32 80 33 33 05 01  33 33 05 01 74 6C 6B 31  .[2.33..33..tlk1
03C0: 2B 33 33 05 01 33 80 23  5B 32 80 33 33 05 01 33  +33..3.#[2.33..3
03D0: 33 05 01 74 6C 6B 65 4A  25 33 05 01 F0 FF FF 7F  3..tlkeJ%3......
03E0: 4A F0 FF FF 7F 25 33 05  01 52 20 80 F8 FF FF 7F  J....%3..R .....
03F0: F8 FF FF 7F 73 31 38 33  45 20 80 F8 FF FF 7F F8  ....s183E ......
0400: FF FF 7F 73 31 36 31 00  80 7B 25 33 05 01 6F 76  ...s161..{%3..ov
0410: 25 33 05 01 5B 2C 80 25  33 05 01 25 33 05 01 74  %3..[,.%3..%3..t
0420: 6C 61 30 2B 25 33 05 01  34 80 23 5B 2C 80 25 33  la0+%3..4.#[,.%3
0430: 05 01 25 33 05 01 74 6C  61 31 52 20 80 F8 FF FF  ..%3..tla1R ....
0440: 7F F8 FF FF 7F 73 31 36  31 45 20 80 F8 FF FF 7F  .....s161E .....
0450: F8 FF FF 7F 73 31 36 32  00 80 5B 32 80 33 33 05  ....s162..[2.33.
0460: 01 33 33 05 01 74 6C 6B  30 2B 33 33 05 01 35 80  .33..tlk0+33..5.
0470: 23 5B 32 80 33 33 05 01  33 33 05 01 74 6C 6B 65  #[2.33..33..tlke
0480: 52 20 80 F8 FF FF 7F F8  FF FF 7F 73 31 36 32 45  R .........s162E
0490: 20 80 F8 FF FF 7F F8 FF  FF 7F 73 31 36 33 00 80   .........s163..
04A0: 5B 2C 80 25 33 05 01 25  33 05 01 74 6C 61 30 2B  [,.%3..%3..tla0+
04B0: 25 33 05 01 36 80 23 2B  25 33 05 01 37 80 23 2B  %3..6.#+%3..7.#+
04C0: 25 33 05 01 38 80 23 5B  2C 80 25 33 05 01 25 33  %3..8.#[,.%3..%3
04D0: 05 01 74 6C 61 31 4A 25  33 05 01 35 33 05 01 52  ..tla1J%3..53..R
04E0: 20 80 F8 FF FF 7F F8 FF  FF 7F 73 31 36 33 45 20   .........s163E 
04F0: 80 F8 FF FF 7F F8 FF FF  7F 73 31 36 34 00 80 7B  .........s164..{
0500: 25 33 05 01 6F 76 25 33  05 01 5B 39 80 25 33 05  %3..ov%3..[9.%3.
0510: 01 25 33 05 01 70 6E 74  30 2B 25 33 05 01 3A 80  .%3..pnt0+%3..:.
0520: 23 55 20 80 F8 FF FF 7F  F8 FF FF 7F 73 31 36 34  #U .........s164
0530: 45 19 80 F8 FF FF 7F F8  FF FF 7F 73 30 30 33 00  E..........s003.
0540: 80 5B 17 80 28 33 05 01  28 33 05 01 66 73 68 31  .[..(3..(3..fsh1
0550: 5B 18 80 34 33 05 01 34  33 05 01 66 73 68 31 55  [..43..43..fsh1U
0560: 19 80 F8 FF FF 7F F8 FF  FF 7F 73 30 30 33 45 19  ..........s003E.
0570: 80 F8 FF FF 7F F8 FF FF  7F 73 30 30 34 00 80 55  .........s004..U
0580: 19 80 F8 FF FF 7F F8 FF  FF 7F 73 30 30 34 45 19  ..........s004E.
0590: 80 F8 FF FF 7F F8 FF FF  7F 73 30 30 35 00 80 1C  .........s005...
05A0: 16 80 2B 28 33 05 01 3B  80 23 1C 3C 80 45 19 80  ..+(3..;.#.<.E..
05B0: F8 FF FF 7F F8 FF FF 7F  38 32 33 31 00 80 55 19  ........8231..U.
05C0: 80 F8 FF FF 7F F8 FF FF  7F 73 30 30 35 45 19 80  .........s005E..
05D0: F8 FF FF 7F F8 FF FF 7F  73 30 30 36 00 80 4A 33  ........s006..J3
05E0: 33 05 01 32 33 05 01 4A  25 33 05 01 32 33 05 01  3..23..J%3..23..
05F0: 4A F0 FF FF 7F 32 33 05  01 7B 25 33 05 01 7B 33  J....23..{%3..{3
0600: 33 05 01 7B F0 FF FF 7F  5B 15 80 28 33 05 01 28  3..{....[..(3..(
0610: 33 05 01 66 64 30 31 2B  28 33 05 01 3D 80 23 5B  3..fd01+(3..=.#[
0620: 15 80 28 33 05 01 28 33  05 01 66 64 30 30 52 19  ..(3..(3..fd00R.
0630: 80 F8 FF FF 7F F8 FF FF  7F 73 30 30 36 45 19 80  .........s006E..
0640: F8 FF FF 7F F8 FF FF 7F  73 30 30 37 00 80 5B 3E  ........s007..[>
0650: 80 32 33 05 01 32 33 05  01 74 6C 6B 30 2B 32 33  .23..23..tlk0+23
0660: 05 01 3F 80 23 52 19 80  F8 FF FF 7F F8 FF FF 7F  ..?.#R..........
0670: 73 30 30 37 45 20 80 F8  FF FF 7F F8 FF FF 7F 73  s007E .........s
0680: 31 36 37 00 80 5B 2C 80  25 33 05 01 25 33 05 01  167..[,.%3..%3..
0690: 74 6C 61 30 2B 25 33 05  01 40 80 23 5B 2C 80 25  tla0+%3..@.#[,.%
06A0: 33 05 01 25 33 05 01 74  6C 61 31 4A 33 33 05 01  3..%3..tla1J33..
06B0: 25 33 05 01 4A 25 33 05  01 33 33 05 01 5D 00 80  %3..J%3..33..]..
06C0: 01 80 52 20 80 F8 FF FF  7F F8 FF FF 7F 73 31 36  ..R .........s16
06D0: 37 45 20 80 F8 FF FF 7F  F8 FF FF 7F 73 31 36 38  7E .........s168
06E0: 00 80 7B 25 33 05 01 7B  33 33 05 01 6F 76 33 33  ..{%3..{33..ov33
06F0: 05 01 5B 21 80 33 33 05  01 33 33 05 01 61 6E 67  ..[!.33..33..ang
0700: 30 2B 33 33 05 01 41 80  23 81 00 25 33 05 01 5B  0+33..A.#..%3..[
0710: 42 80 25 33 05 01 25 33  05 01 74 68 61 30 2B 25  B.%3..%3..tha0+%
0720: 33 05 01 43 80 23 81 01  25 33 05 01 52 20 80 F8  3..C.#..%3..R ..
0730: FF FF 7F F8 FF FF 7F 73  31 36 38 45 20 80 F8 FF  .......s168E ...
0740: FF 7F F8 FF FF 7F 73 31  37 30 00 80 5B 21 80 33  ......s170..[!.3
0750: 33 05 01 33 33 05 01 61  6E 67 31 1C 44 80 5B 32  3..33..ang1.D.[2
0760: 80 33 33 05 01 33 33 05  01 74 6C 6B 30 4A F0 FF  .33..33..tlk0J..
0770: FF 7F 33 33 05 01 2B 33  33 05 01 45 80 23 5B 42  ..33..+33..E.#[B
0780: 80 25 33 05 01 25 33 05  01 74 68 61 31 52 20 80  .%3..%3..tha1R .
0790: F8 FF FF 7F F8 FF FF 7F  73 31 37 30 45 20 80 F8  ........s170E ..
07A0: FF FF 7F F8 FF FF 7F 73  31 36 39 00 80 2B 33 33  .......s169..+33
07B0: 05 01 46 80 23 2B 33 33  05 01 47 80 23 5B 32 80  ..F.#+33..G.#[2.
07C0: 33 33 05 01 33 33 05 01  74 6C 6B 65 52 20 80 F8  33..33..tlkeR ..
07D0: FF FF 7F F8 FF FF 7F 73  31 36 39 45 20 80 F8 FF  .......s169E ...
07E0: FF 7F F8 FF FF 7F 73 31  37 31 00 80 5B 2C 80 25  ......s171..[,.%
07F0: 33 05 01 25 33 05 01 74  6C 61 30 2B 25 33 05 01  3..%3..tla0+%3..
0800: 48 80 23 5B 2C 80 25 33  05 01 25 33 05 01 74 6C  H.#[,.%3..%3..tl
0810: 61 31 52 20 80 F8 FF FF  7F F8 FF FF 7F 73 31 37  a1R .........s17
0820: 31 45 20 80 F8 FF FF 7F  F8 FF FF 7F 73 31 37 32  1E .........s172
0830: 00 80 45 20 80 33 33 05  01 33 33 05 01 73 65 30  ..E .33..33..se0
0840: 33 00 80 5B 21 80 33 33  05 01 33 33 05 01 68 61  3..[!.33..33..ha
0850: 70 30 2B 33 33 05 01 49  80 23 52 20 80 F8 FF FF  p0+33..I.#R ....
0860: 7F F8 FF FF 7F 73 31 37  32 5B 4A 80 28 33 05 01  .....s172[J.(3..
0870: 28 33 05 01 66 73 68 32  5B 18 80 34 33 05 01 34  (3..fsh2[..43..4
0880: 33 05 01 66 73 68 32 5B  15 80 28 33 05 01 28 33  3..fsh2[..(3..(3
0890: 05 01 66 61 30 30 45 19  80 F8 FF FF 7F F8 FF FF  ..fa00E.........
08A0: 7F 73 30 30 39 00 80 55  19 80 F8 FF FF 7F F8 FF  .s009..U........
08B0: FF 7F 73 30 30 39 5B 21  80 33 33 05 01 33 33 05  ..s009[!.33..33.
08C0: 01 68 61 70 31 45 19 80  F8 FF FF 7F F8 FF FF 7F  .hap1E..........
08D0: 73 30 31 30 00 80 2B 28  33 05 01 4B 80 23 81 00  s010..+(3..K.#..
08E0: 28 33 05 01 7C 00 28 33  05 01 5B 15 80 28 33 05  (3..|.(3..[..(3.
08F0: 01 28 33 05 01 66 61 30  31 2B 28 33 05 01 4C 80  .(3..fa01+(3..L.
0900: 23 5B 15 80 28 33 05 01  28 33 05 01 66 61 30 30  #[..(3..(3..fa00
0910: 5C 00 4D 80 5C 01 4D 80  9A 52 19 80 F8 FF FF 7F  \.M.\.M..R......
0920: F8 FF FF 7F 73 30 31 30  45 19 80 F8 FF FF 7F F8  ....s010E.......
0930: FF FF 7F 73 30 32 36 00  80 5B 15 80 28 33 05 01  ...s026..[..(3..
0940: 28 33 05 01 66 67 30 30  5B 4A 80 28 33 05 01 28  (3..fg00[J.(3..(
0950: 33 05 01 66 73 68 33 5B  18 80 34 33 05 01 34 33  3..fsh3[..43..43
0960: 05 01 66 73 68 33 2B 28  33 05 01 4E 80 1C 44 80  ..fsh3+(3..N..D.
0970: 52 19 80 F8 FF FF 7F F8  FF FF 7F 73 30 32 36 45  R..........s026E
0980: 19 80 F8 FF FF 7F F8 FF  FF 7F 73 30 31 31 00 80  ..........s011..
0990: 2B 28 33 05 01 4F 80 23  52 19 80 F8 FF FF 7F F8  +(3..O.#R.......
09A0: FF FF 7F 73 30 31 31 45  19 80 F8 FF FF 7F F8 FF  ...s011E........
09B0: FF 7F 73 30 31 32 00 80  5B 3E 80 32 33 05 01 32  ..s012..[>.23..2
09C0: 33 05 01 74 6C 6B 30 2B  32 33 05 01 50 80 23 52  3..tlk0+23..P.#R
09D0: 19 80 F8 FF FF 7F F8 FF  FF 7F 73 30 31 32 45 19  ..........s012E.
09E0: 80 F8 FF FF 7F F8 FF FF  7F 73 30 31 34 00 80 2B  .........s014..+
09F0: 28 33 05 01 51 80 23 1C  52 80 52 19 80 F8 FF FF  (3..Q.#.R.R.....
0A00: 7F F8 FF FF 7F 73 30 31  34 45 19 80 F8 FF FF 7F  .....s014E......
0A10: F8 FF FF 7F 73 30 31 33  00 80 2B 28 33 05 01 53  ....s013..+(3..S
0A20: 80 23 1C 52 80 52 19 80  F8 FF FF 7F F8 FF FF 7F  .#.R.R..........
0A30: 73 30 31 33 45 19 80 F8  FF FF 7F F8 FF FF 7F 73  s013E..........s
0A40: 30 31 35 00 80 5D 00 80  2F 80 1C 2F 80 5B 15 80  015..]../../.[..
0A50: 28 33 05 01 28 33 05 01  66 63 30 30 5B 15 80 28  (3..(3..fc00[..(
0A60: 33 05 01 28 33 05 01 66  63 30 31 2B 28 33 05 01  3..(3..fc01+(3..
0A70: 54 80 23 5B 15 80 28 33  05 01 28 33 05 01 66 63  T.#[..(3..(3..fc
0A80: 30 30 52 19 80 F8 FF FF  7F F8 FF FF 7F 73 30 31  00R..........s01
0A90: 35 45 19 80 F8 FF FF 7F  F8 FF FF 7F 73 30 31 36  5E..........s016
0AA0: 00 80 5B 3E 80 32 33 05  01 32 33 05 01 6C 6F 75  ..[>.23..23..lou
0AB0: 30 2B 32 33 05 01 55 80  23 52 19 80 F8 FF FF 7F  0+23..U.#R......
0AC0: F8 FF FF 7F 73 30 31 36  45 19 80 F8 FF FF 7F F8  ....s016E.......
0AD0: FF FF 7F 73 30 32 37 00  80 2B 28 33 05 01 56 80  ...s027..+(3..V.
0AE0: 23 55 19 80 F8 FF FF 7F  F8 FF FF 7F 73 30 32 37  #U..........s027
0AF0: 45 19 80 F8 FF FF 7F F8  FF FF 7F 73 30 31 37 00  E..........s017.
0B00: 80 5B 15 80 28 33 05 01  28 33 05 01 66 30 30 30  .[..(3..(3..f000
0B10: 4A 25 33 05 01 32 33 05  01 4A F0 FF FF 7F 32 33  J%3..23..J....23
0B20: 05 01 4A 33 33 05 01 32  33 05 01 7B 25 33 05 01  ..J33..23..{%3..
0B30: 7B F0 FF FF 7F 7B 33 33  05 01 81 00 28 33 05 01  {....{33....(3..
0B40: 7C 00 28 33 05 01 5B 4A  80 28 33 05 01 28 33 05  |.(3..[J.(3..(3.
0B50: 01 66 73 68 34 5B 18 80  34 33 05 01 34 33 05 01  .fsh4[..43..43..
0B60: 66 73 68 34 2B 28 33 05  01 57 80 23 55 19 80 F8  fsh4+(3..W.#U...
0B70: FF FF 7F F8 FF FF 7F 73  30 31 37 45 19 80 F8 FF  .......s017E....
0B80: FF 7F F8 FF FF 7F 73 30  31 38 00 80 1C 2F 80 45  ......s018.../.E
0B90: 19 80 F8 FF FF 7F F8 FF  FF 7F 32 30 32 31 00 80  ..........2021..
0BA0: 45 19 80 F8 FF FF 7F F8  FF FF 7F 36 30 30 36 00  E..........6006.
0BB0: 80 9F 58 80 F8 FF FF 7F  F8 FF FF 7F 73 74 72 30  ..X.........str0
0BC0: 00 80 5B 3E 80 32 33 05  01 32 33 05 01 73 64 30  ..[>.23..23..sd0
0BD0: 30 55 19 80 F8 FF FF 7F  F8 FF FF 7F 73 30 31 38  0U..........s018
0BE0: 45 19 80 F8 FF FF 7F F8  FF FF 7F 73 30 31 39 00  E..........s019.
0BF0: 80 5B 4A 80 25 33 05 01  25 33 05 01 66 73 68 35  .[J.%3..%3..fsh5
0C00: 2B 32 33 05 01 59 80 23  55 19 80 F8 FF FF 7F F8  +23..Y.#U.......
0C10: FF FF 7F 73 30 31 39 45  19 80 F8 FF FF 7F F8 FF  ...s019E........
0C20: FF 7F 73 32 30 38 00 80  6E F0 FF FF 7F 5A 80 99  ..s208..n....Z..
0C30: F0 FF FF 7F 5B 21 80 33  33 05 01 33 33 05 01 62  ....[!.33..33..b
0C40: 69 6B 30 55 19 80 F8 FF  FF 7F F8 FF FF 7F 73 32  ik0U..........s2
0C50: 30 38 45 19 80 F8 FF FF  7F F8 FF FF 7F 73 30 32  08E..........s02
0C60: 32 00 80 4E 01 34 33 05  01 5B 3E 80 32 33 05 01  2..N.43..[>.23..
0C70: 32 33 05 01 73 64 30 31  5B 15 80 28 33 05 01 28  23..sd01[..(3..(
0C80: 33 05 01 66 67 30 30 5B  4A 80 28 33 05 01 28 33  3..fg00[J.(3..(3
0C90: 05 01 66 73 68 35 1C 52  80 2B 32 33 05 01 5B 80  ..fsh5.R.+23..[.
0CA0: 23 55 19 80 F8 FF FF 7F  F8 FF FF 7F 73 30 32 32  #U..........s022
0CB0: 45 19 80 F8 FF FF 7F F8  FF FF 7F 73 30 32 33 00  E..........s023.
0CC0: 80 55 19 80 F8 FF FF 7F  F8 FF FF 7F 73 30 32 33  .U..........s023
0CD0: 45 19 80 F8 FF FF 7F F8  FF FF 7F 73 30 32 35 00  E..........s025.
0CE0: 80 1C 44 80 45 19 80 F8  FF FF 7F F8 FF FF 7F 6B  ..D.E..........k
0CF0: 30 32 31 00 80 45 19 80  F8 FF FF 7F F8 FF FF 7F  021..E..........
0D00: 6B 30 30 36 00 80 9F 58  80 F8 FF FF 7F F8 FF FF  k006...X........
0D10: 7F 6B 69 6C 6C 00 80 55  19 80 F8 FF FF 7F F8 FF  .kill..U........
0D20: FF 7F 73 30 32 35 45 19  80 F8 FF FF 7F F8 FF FF  ..s025E.........
0D30: 7F 73 30 32 34 00 80 5B  15 80 28 33 05 01 28 33  .s024..[..(3..(3
0D40: 05 01 66 67 30 31 2B 28  33 05 01 5C 80 23 5B 15  ..fg01+(3..\.#[.
0D50: 80 28 33 05 01 28 33 05  01 66 30 30 30 81 01 28  .(3..(3..f000..(
0D60: 33 05 01 7C 01 28 33 05  01 1A C4 21 52 19 80 F8  3..|.(3....!R...
0D70: FF FF 7F F8 FF FF 7F 73  30 32 34 6B 69 64 6C 30  .......s024kidl0
0D80: 25 33 05 01 6B 69 64 6C  30 F0 FF FF 7F 6B 69 64  %3..kidl0....kid
0D90: 6C 30 28 33 05 01 6B 69  64 6C 30 33 33 05 01 1C  l0(3..kidl033...
0DA0: 5D 80 BA 35 33 05 01 12  80 13 80 09 80 14 80 BA  ]..53...........
0DB0: 28 33 05 01 5E 80 5F 80  09 80 60 80 4A 28 33 05  (3..^._...`.J(3.
0DC0: 01 35 33 05 01 7B 28 33  05 01 6F 76 28 33 05 01  .53..{(3..ov(3..
0DD0: 5C 00 1F 80 5C 01 1F 80  9A 45 1A 80 F0 FF FF 7F  \...\....E......
0DE0: F0 FF FF 7F 66 64 69 32  00 80 45 19 80 F8 FF FF  ....fdi2..E.....
0DF0: 7F F8 FF FF 7F 73 32 31  37 00 80 55 19 80 F8 FF  .....s217..U....
0E00: FF 7F F8 FF FF 7F 73 32  31 37 45 19 80 F8 FF FF  ......s217E.....
0E10: 7F F8 FF FF 7F 73 32 31  38 00 80 5B 2C 80 28 33  .....s218..[,.(3
0E20: 05 01 28 33 05 01 74 6C  61 30 2B 28 33 05 01 61  ..(3..tla0+(3..a
0E30: 80 23 5B 2C 80 28 33 05  01 28 33 05 01 74 6C 61  .#[,.(3..(3..tla
0E40: 31 52 19 80 F8 FF FF 7F  F8 FF FF 7F 73 32 31 38  1R..........s218
0E50: 45 19 80 F8 FF FF 7F F8  FF FF 7F 73 30 30 38 00  E..........s008.
0E60: 80 2B 32 33 05 01 62 80  23 4A 25 33 05 01 33 33  .+23..b.#J%3..33
0E70: 05 01 4A F0 FF FF 7F 33  33 05 01 52 19 80 F8 FF  ..J....33..R....
0E80: FF 7F F8 FF FF 7F 73 30  30 38 45 20 80 F8 FF FF  ......s008E ....
0E90: 7F F8 FF FF 7F 73 31 37  33 00 80 7B 25 33 05 01  .....s173..{%3..
0EA0: 7B F0 FF FF 7F 6F 76 25  33 05 01 5B 2C 80 25 33  {....ov%3..[,.%3
0EB0: 05 01 25 33 05 01 74 6C  61 30 2B 25 33 05 01 63  ..%3..tla0+%3..c
0EC0: 80 23 5B 2C 80 25 33 05  01 25 33 05 01 74 6C 61  .#[,.%3..%3..tla
0ED0: 31 4B 33 33 05 01 64 80  52 20 80 F8 FF FF 7F F8  1K33..d.R ......
0EE0: FF FF 7F 73 31 37 33 45  20 80 F8 FF FF 7F F8 FF  ...s173E .......
0EF0: FF 7F 73 31 37 34 00 80  6B 69 64 6C 30 28 33 05  ..s174..kidl0(3.
0F00: 01 6F 76 33 33 05 01 5B  32 80 33 33 05 01 33 33  .ov33..[2.33..33
0F10: 05 01 74 6C 6B 30 2B 33  33 05 01 65 80 23 5B 32  ..tlk0+33..e.#[2
0F20: 80 33 33 05 01 33 33 05  01 74 6C 6B 65 52 20 80  .33..33..tlkeR .
0F30: F8 FF FF 7F F8 FF FF 7F  73 31 37 34 45 20 80 F8  ........s174E ..
0F40: FF FF 7F F8 FF FF 7F 73  31 37 35 00 80 2B 25 33  .......s175..+%3
0F50: 05 01 66 80 23 52 20 80  F8 FF FF 7F F8 FF FF 7F  ..f.#R .........
0F60: 73 31 37 35 45 20 80 F8  FF FF 7F F8 FF FF 7F 73  s175E .........s
0F70: 31 37 36 00 80 5B 32 80  33 33 05 01 33 33 05 01  176..[2.33..33..
0F80: 74 6C 6B 30 2B 33 33 05  01 67 80 23 2B 33 33 05  tlk0+33..g.#+33.
0F90: 01 68 80 23 5B 32 80 33  33 05 01 33 33 05 01 74  .h.#[2.33..33..t
0FA0: 6C 6B 65 52 20 80 F8 FF  FF 7F F8 FF FF 7F 73 31  lkeR .........s1
0FB0: 37 36 45 20 80 F8 FF FF  7F F8 FF FF 7F 73 31 37  76E .........s17
0FC0: 37 00 80 5B 69 80 25 33  05 01 25 33 05 01 62 69  7..[i.%3..%3..bi
0FD0: 6B 30 2B 25 33 05 01 6A  80 23 5B 69 80 25 33 05  k0+%3..j.#[i.%3.
0FE0: 01 25 33 05 01 62 69 6B  31 52 20 80 F8 FF FF 7F  .%3..bik1R .....
0FF0: F8 FF FF 7F 73 31 37 37  45 20 80 F8 FF FF 7F F8  ....s177E ......
1000: FF FF 7F 73 31 37 38 00  80 4E 01 33 33 05 01 1C  ...s178..N.33...
1010: 2F 80 2B 25 33 05 01 6B  80 23 52 20 80 F8 FF FF  /.+%3..k.#R ....
1020: 7F F8 FF FF 7F 73 31 37  38 4A 28 33 05 01 25 33  .....s178J(3..%3
1030: 05 01 7B 28 33 05 01 45  20 80 F8 FF FF 7F F8 FF  ..{(3..E .......
1040: FF 7F 73 31 37 39 00 80  BA 25 33 05 01 6C 80 6D  ..s179...%3..l.m
1050: 80 09 80 6E 80 03 25 10  6F 80 03 26 10 70 80 03  ...n..%.o..&.p..
1060: 27 10 09 80 03 28 10 20  80 27 0F 25 33 05 01 04  '....(. .'.%3...
1070: 1C 16 80 BA F0 FF FF 7F  71 80 72 80 09 80 20 80  ........q.r... .
1080: 03 25 10 73 80 03 26 10  74 80 03 27 10 09 80 03  .%.s..&.t..'....
1090: 28 10 19 80 27 0F F0 FF  FF 7F 05 55 20 80 F8 FF  (...'......U ...
10A0: FF 7F F8 FF FF 7F 73 31  37 39 4B 28 33 05 01 75  ......s179K(3..u
10B0: 80 45 20 80 F8 FF FF 7F  F8 FF FF 7F 73 31 38 30  .E .........s180
10C0: 00 80 6F 76 28 33 05 01  2A 0F 25 33 05 01 4A 25  ..ov(3..*.%3..J%
10D0: 33 05 01 28 33 05 01 7B  25 33 05 01 2A 0F 25 33  3..(3..{%3..*.%3
10E0: 05 01 4A F0 FF FF 7F 28  33 05 01 7B F0 FF FF 7F  ..J....(3..{....
10F0: 5B 2C 80 28 33 05 01 28  33 05 01 74 6C 61 30 2B  [,.(3..(3..tla0+
1100: 28 33 05 01 76 80 23 5B  2C 80 28 33 05 01 28 33  (3..v.#[,.(3..(3
1110: 05 01 74 6C 61 31 52 20  80 F8 FF FF 7F F8 FF FF  ..tla1R ........
1120: 7F 73 31 38 30 45 20 80  F8 FF FF 7F F8 FF FF 7F  .s180E .........
1130: 73 31 38 31 00 80 5B 2C  80 25 33 05 01 25 33 05  s181..[,.%3..%3.
1140: 01 74 6C 61 30 2B 25 33  05 01 77 80 23 5B 2C 80  .tla0+%3..w.#[,.
1150: 25 33 05 01 25 33 05 01  74 6C 61 31 52 20 80 F8  %3..%3..tla1R ..
1160: FF FF 7F F8 FF FF 7F 73  31 38 31 45 20 80 F8 FF  .......s181E ...
1170: FF 7F F8 FF FF 7F 73 31  38 32 00 80 5B 2C 80 28  ......s182..[,.(
1180: 33 05 01 28 33 05 01 74  6C 62 30 2B 28 33 05 01  3..(3..tlb0+(3..
1190: 78 80 23 5B 2C 80 28 33  05 01 28 33 05 01 74 6C  x.#[,.(3..(3..tl
11A0: 62 31 52 20 80 F8 FF FF  7F F8 FF FF 7F 73 31 38  b1R .........s18
11B0: 32 45 20 80 F8 FF FF 7F  F8 FF FF 7F 73 31 36 35  2E .........s165
11C0: 00 80 2B 32 33 05 01 79  80 23 4A 28 33 05 01 35  ..+23..y.#J(3..5
11D0: 33 05 01 4A 25 33 05 01  35 33 05 01 4A F0 FF FF  3..J%3..53..J...
11E0: 7F 35 33 05 01 7B 28 33  05 01 7B 25 33 05 01 7B  .53..{(3..{%3..{
11F0: 32 33 05 01 52 20 80 F8  FF FF 7F F8 FF FF 7F 73  23..R .........s
1200: 31 36 35 45 20 80 F8 FF  FF 7F F8 FF FF 7F 73 31  165E .........s1
1210: 38 34 00 80 6F 76 28 33  05 01 5B 2C 80 28 33 05  84..ov(3..[,.(3.
1220: 01 28 33 05 01 74 6C 61  30 2B 28 33 05 01 7A 80  .(3..tla0+(3..z.
1230: 23 5B 2C 80 28 33 05 01  28 33 05 01 74 6C 61 31  #[,.(3..(3..tla1
1240: 52 20 80 F8 FF FF 7F F8  FF FF 7F 73 31 38 34 45  R .........s184E
1250: 20 80 F8 FF FF 7F F8 FF  FF 7F 73 31 38 35 00 80   .........s185..
1260: 5B 42 80 28 33 05 01 28  33 05 01 74 68 62 30 1C  [B.(3..(3..thb0.
1270: 52 80 5B 42 80 28 33 05  01 28 33 05 01 74 68 62  R.[B.(3..(3..thb
1280: 31 1C 2F 80 4A 28 33 05  01 F0 FF FF 7F 4A F0 FF  1./.J(3......J..
1290: FF 7F 28 33 05 01 52 20  80 F8 FF FF 7F F8 FF FF  ..(3..R ........
12A0: 7F 73 31 38 35 45 20 80  F8 FF FF 7F F8 FF FF 7F  .s185E .........
12B0: 73 31 38 36 00 80 7B 28  33 05 01 7B F0 FF FF 7F  s186..{(3..{....
12C0: 6F 76 28 33 05 01 5B 7B  80 28 33 05 01 28 33 05  ov(3..[{.(3..(3.
12D0: 01 6D 65 69 30 2B 28 33  05 01 7C 80 23 2B 28 33  .mei0+(3..|.#+(3
12E0: 05 01 7D 80 23 5B 7B 80  28 33 05 01 28 33 05 01  ..}.#[{.(3..(3..
12F0: 6D 65 69 31 1C 7E 80 4A  28 33 05 01 25 33 05 01  mei1.~.J(3..%3..
1300: 4A 25 33 05 01 28 33 05  01 52 20 80 F8 FF FF 7F  J%3..(3..R .....
1310: F8 FF FF 7F 73 31 38 36  45 20 80 F8 FF FF 7F F8  ....s186E ......
1320: FF FF 7F 73 31 38 37 00  80 7B 25 33 05 01 7B 28  ...s187..{%3..{(
1330: 33 05 01 6F 76 28 33 05  01 5B 2C 80 28 33 05 01  3..ov(3..[,.(3..
1340: 28 33 05 01 74 6C 61 30  2B 28 33 05 01 7F 80 23  (3..tla0+(3....#
1350: 5B 2C 80 28 33 05 01 28  33 05 01 74 6C 61 31 52  [,.(3..(3..tla1R
1360: 20 80 F8 FF FF 7F F8 FF  FF 7F 73 31 38 37 45 20   .........s187E 
1370: 80 F8 FF FF 7F F8 FF FF  7F 73 31 38 38 00 80 5B  .........s188..[
1380: 2C 80 25 33 05 01 25 33  05 01 74 6C 61 30 2B 25  ,.%3..%3..tla0+%
1390: 33 05 01 80 80 23 2B 25  33 05 01 81 80 23 52 20  3....#+%3....#R 
13A0: 80 F8 FF FF 7F F8 FF FF  7F 73 31 38 38 45 20 80  .........s188E .
13B0: F8 FF FF 7F F8 FF FF 7F  73 31 38 39 00 80 7C 00  ........s189..|.
13C0: 28 33 05 01 81 00 28 33  05 01 53 28 33 05 01 28  (3....(3..S(3..(
13D0: 33 05 01 74 6C 61 31 5B  15 80 28 33 05 01 28 33  3..tla1[..(3..(3
13E0: 05 01 66 64 30 30 2B 25  33 05 01 82 80 23 5B 2C  ..fd00+%3....#[,
13F0: 80 25 33 05 01 25 33 05  01 74 6C 61 31 52 20 80  .%3..%3..tla1R .
1400: F8 FF FF 7F F8 FF FF 7F  73 31 38 39 45 20 80 F8  ........s189E ..
1410: FF FF 7F F8 FF FF 7F 73  31 39 30 00 80 5B 15 80  .......s190..[..
1420: 28 33 05 01 28 33 05 01  66 64 30 31 5B 2C 80 28  (3..(3..fd01[,.(
1430: 33 05 01 28 33 05 01 74  6C 61 30 2B 28 33 05 01  3..(3..tla0+(3..
1440: 83 80 23 53 28 33 05 01  28 33 05 01 74 6C 61 30  ..#S(3..(3..tla0
1450: 5B 15 80 28 33 05 01 28  33 05 01 66 30 30 30 5B  [..(3..(3..f000[
1460: 2C 80 28 33 05 01 28 33  05 01 74 6C 61 31 7C 01  ,.(3..(3..tla1|.
1470: 28 33 05 01 81 01 28 33  05 01 52 20 80 F8 FF FF  (3....(3..R ....
1480: 7F F8 FF FF 7F 73 31 39  30 45 20 80 F8 FF FF 7F  .....s190E .....
1490: F8 FF FF 7F 73 31 39 31  00 80 48 84 80 23 55 20  ....s191..H..#U 
14A0: 80 F8 FF FF 7F F8 FF FF  7F 73 31 39 31 4A 28 33  .........s191J(3
14B0: 05 01 F0 FF FF 7F 45 20  80 F8 FF FF 7F F8 FF FF  ......E ........
14C0: 7F 73 31 39 32 00 80 7B  28 33 05 01 6F 76 28 33  .s192..{(3..ov(3
14D0: 05 01 5B 2C 80 28 33 05  01 28 33 05 01 74 6C 61  ..[,.(3..(3..tla
14E0: 30 2B 28 33 05 01 85 80  23 5B 2C 80 28 33 05 01  0+(3....#[,.(3..
14F0: 28 33 05 01 74 6C 61 31  1C 7E 80 5B 42 80 28 33  (3..tla1.~.[B.(3
1500: 05 01 28 33 05 01 74 68  62 30 1C 52 80 2B 28 33  ..(3..thb0.R.+(3
1510: 05 01 86 80 23 5B 42 80  28 33 05 01 28 33 05 01  ....#[B.(3..(3..
1520: 74 68 62 31 1C 7E 80 4A  25 33 05 01 F0 FF FF 7F  thb1.~.J%3......
1530: 52 20 80 F8 FF FF 7F F8  FF FF 7F 73 31 39 32 45  R .........s192E
1540: 20 80 F8 FF FF 7F F8 FF  FF 7F 73 31 39 34 00 80   .........s194..
1550: 7B 25 33 05 01 5B 7B 80  28 33 05 01 28 33 05 01  {%3..[{.(3..(3..
1560: 6D 65 69 30 2B 28 33 05  01 87 80 23 2B 28 33 05  mei0+(3....#+(3.
1570: 01 88 80 23 5B 7B 80 28  33 05 01 28 33 05 01 6D  ...#[{.(3..(3..m
1580: 65 69 31 52 20 80 F8 FF  FF 7F F8 FF FF 7F 73 31  ei1R .........s1
1590: 39 34 45 20 80 F8 FF FF  7F F8 FF FF 7F 73 31 39  94E .........s19
15A0: 36 00 80 6E F0 FF FF 7F  2E 80 99 F0 FF FF 7F 1C  6..n............
15B0: 2F 80 52 20 80 F8 FF FF  7F F8 FF FF 7F 73 31 39  /.R .........s19
15C0: 36 45 20 80 F8 FF FF 7F  F8 FF FF 7F 73 31 39 35  6E .........s195
15D0: 00 80 5B 2C 80 28 33 05  01 28 33 05 01 74 6C 61  ..[,.(3..(3..tla
15E0: 30 2B 28 33 05 01 89 80  23 5B 2C 80 28 33 05 01  0+(3....#[,.(3..
15F0: 28 33 05 01 74 6C 61 31  52 20 80 F8 FF FF 7F F8  (3..tla1R ......
1600: FF FF 7F 73 31 39 35 45  20 80 F8 FF FF 7F F8 FF  ...s195E .......
1610: FF 7F 73 31 39 37 00 80  5B 7B 80 28 33 05 01 28  ..s197..[{.(3..(
1620: 33 05 01 6D 65 69 30 2B  28 33 05 01 8A 80 23 03  3..mei0+(3....#.
1630: 25 10 8B 80 03 26 10 8C  80 03 27 10 09 80 03 28  %....&....'....(
1640: 10 8D 80 27 0F F0 FF FF  7F 05 1C 2F 80 5D 00 80  ...'......./.]..
1650: 01 80 1A C4 21 55 20 80  F8 FF FF 7F F8 FF FF 7F  ....!U .........
1660: 73 31 39 37 5C 00 00 80  5C 01 00 80 9A 46 00 45  s197\...\....F.E
1670: 1A 80 F0 FF FF 7F F0 FF  FF 7F 66 64 69 32 00 80  ..........fdi2..
1680: 21 00                                             !.              
```

#### Opcodes

```
  0: 0x0001 [0x42] SET_CLI_EVENT_CANCEL_DATA()
  1: 0x0002 [0x46] CAMERA_CONTROL: Disable user control
  2: 0x0004 [0x1A] CALL_SUBROUTINE(address=0x21C4)
  3: 0x0007 [0x5D] SET_MUSIC_VOLUME(volume=0*, fade_time=240*)
  4: 0x000C [0x38] SET_CLIENT_EVENT_MODE(mode=19*)
  5: 0x000F [0x92] Excenmille (ID: 17117992/0x01053328)->Render.Flags3 ^= 0x01
  6: 0x0015 [0x92] Rahal (ID: 17117989/0x01053325)->Render.Flags3 ^= 0x01
  7: 0x001B [0x92] Leadavox (ID: 17118003/0x01053333)->Render.Flags3 ^= 0x01
  8: 0x0021 [0x92] Klythios (ID: 17118002/0x01053332)->Render.Flags3 ^= 0x01
  9: 0x0027 [0x92] Leadavox (ID: 17118004/0x01053334)->Render.Flags3 ^= 0x01
 10: 0x002D [0x92] Unnamed NPC (ID: 17118005/0x01053335)->Render.Flags3 ^= 0x01
 11: 0x0033 [0x94] Excenmille (ID: 17117992/0x01053328)->Render.Flags3 ^= 0x01
 12: 0x0039 [0x94] Leadavox (ID: 17118004/0x01053334)->Render.Flags3 ^= 0x01
 13: 0x003F [0x94] Rahal (ID: 17117989/0x01053325)->Render.Flags3 ^= 0x01
 14: 0x0045 [0x94] Leadavox (ID: 17118003/0x01053333)->Render.Flags3 ^= 0x01
 15: 0x004B [0x94] Klythios (ID: 17118002/0x01053332)->Render.Flags3 ^= 0x01
 16: 0x0051 [0xBA] SET_ENTITY_POSITION(entity_id=LocalPlayer, pos_x=-24.262*, pos_z=367.079*, pos_y=-31.418*, direction=129.5°*)
 17: 0x005E [0xBA] SET_ENTITY_POSITION(entity_id=Rahal (ID: 17117989/0x01053325), pos_x=-18.732*, pos_z=347.401*, pos_y=-32.898*, direction=68.3°*)
 18: 0x006B [0xBA] SET_ENTITY_POSITION(entity_id=Excenmille (ID: 17117992/0x01053328), pos_x=-17.470*, pos_z=312.766*, pos_y=-32.898*, direction=351.6°*)
 19: 0x0078 [0xBA] SET_ENTITY_POSITION(entity_id=Leadavox (ID: 17118004/0x01053334), pos_x=-17.470*, pos_z=312.766*, pos_y=-32.898*, direction=351.6°*)
 20: 0x0085 [0xBA] SET_ENTITY_POSITION(entity_id=Leadavox (ID: 17118003/0x01053333), pos_x=-21.343*, pos_z=346.970*, pos_y=-32.898*, direction=68.3°*)
 21: 0x0092 [0xBA] SET_ENTITY_POSITION(entity_id=Klythios (ID: 17118002/0x01053332), pos_x=-19.058*, pos_z=310.382*, pos_y=-32.898*, direction=129.5°*)
 22: 0x009F [0xBA] SET_ENTITY_POSITION(entity_id=Unnamed NPC (ID: 17118005/0x01053335), pos_x=-21.526*, pos_z=308.971*, pos_y=-32.898*, direction=96.8°*)
 23: 0x00AC [0x4A] Klythios (ID: 17118002/0x01053332) looks at Excenmille (ID: 17117992/0x01053328)
 24: 0x00B5 [0x7B] Excenmille (ID: 17117992/0x01053328) stops talking
 25: 0x00BA [0x7B] Rahal (ID: 17117989/0x01053325) stops talking
 26: 0x00BF [0x7B] Leadavox (ID: 17118003/0x01053333) stops talking
 27: 0x00C4 [0x7B] Klythios (ID: 17118002/0x01053332) stops talking
 28: 0x00C9 [0x7B] Leadavox (ID: 17118004/0x01053334) stops talking
 29: 0x00CE [0x4E] SET_ENTITY_HIDE_FLAG: Show LocalPlayer
 30: 0x00D4 [0x4E] SET_ENTITY_HIDE_FLAG: Show Excenmille (ID: 17117992/0x01053328)
 31: 0x00DA [0x4E] SET_ENTITY_HIDE_FLAG: Show Rahal (ID: 17117989/0x01053325)
 32: 0x00E0 [0x4E] SET_ENTITY_HIDE_FLAG: Show Leadavox (ID: 17118003/0x01053333)
 33: 0x00E6 [0x4E] SET_ENTITY_HIDE_FLAG: Show Klythios (ID: 17118002/0x01053332)
 34: 0x00EC [0x4E] SET_ENTITY_HIDE_FLAG: Show Leadavox (ID: 17118004/0x01053334)
 35: 0x00F2 [0x4E] SET_ENTITY_HIDE_FLAG: Show Unnamed NPC (ID: 17118005/0x01053335)
 36: 0x00F8 [0x80] LOAD_WAIT(entity=Excenmille (ID: 17117992/0x01053328))
 37: 0x00FD [0x80] LOAD_WAIT(entity=Rahal (ID: 17117989/0x01053325))
 38: 0x0102 [0x80] LOAD_WAIT(entity=Leadavox (ID: 17118003/0x01053333))
 39: 0x0107 [0x80] LOAD_WAIT(entity=Klythios (ID: 17118002/0x01053332))
 40: 0x010C [0x80] LOAD_WAIT(entity=Leadavox (ID: 17118004/0x01053334))
 41: 0x0111 [0x81] SET_ENTITY_BLINKING(blink_flag=0x00, entity=Excenmille (ID: 17117992/0x01053328))
 42: 0x0117 [0x7C] Excenmille (ID: 17117992/0x01053328)->Render.Flags2 |= 0x00
 43: 0x011D [0x5B] LOAD_EXT_SCHEDULER: Load scheduler "fd00" with entities [Excenmille (ID: 17117992/0x01053328), Excenmille (ID: 17117992/0x01053328)], work=1299*
 44: 0x012C [0x1C] WAIT(30* ticks)
 45: 0x012F [0x5B] LOAD_EXT_SCHEDULER: Load scheduler "fsh0" with entities [Excenmille (ID: 17117992/0x01053328), Excenmille (ID: 17117992/0x01053328)], work=1405*
 46: 0x013E [0x5B] LOAD_EXT_SCHEDULER: Load scheduler "fsh0" with entities [Leadavox (ID: 17118004/0x01053334), Leadavox (ID: 17118004/0x01053334)], work=1321*
 47: 0x014D [0x45] LOAD_SCHEDULED_TASK: Load scheduler "s000" with entities [EventEntity, EventEntity], work=[356*, 0*]
 48: 0x015E [0x45] LOAD_SCHEDULED_TASK: Load scheduler "fdi2" with entities [EventEntity, EventEntity], work=[200*, 0*]
 49: 0x016F [0x03] Work_Zone[37] = 4294946929*
 50: 0x0174 [0x03] Work_Zone[38] = 361929*
 51: 0x0179 [0x03] Work_Zone[39] = 4294936283*
 52: 0x017E [0x03] Work_Zone[40] = 1115*
 53: 0x0183 [0x29] REQ_SET_WAIT(priority=0x0F, entity_id=LocalPlayer, tag_num=0x06)
 54: 0x018A [0x4A] LocalPlayer looks at Leadavox (ID: 17118003/0x01053333)
 55: 0x0193 [0x5C] MUSIC_CONTROL: Set Idle (Day) music to song 163*
 56: 0x0197 [0x5C] MUSIC_CONTROL: Set Idle (Night) music to song 163*
 57: 0x019B [0x9A] WAIT_MUSIC_SERVER()
 58: 0x019C [0x52] END_LOAD_SCHEDULER: End scheduler "s000" with entities [EventEntity, EventEntity], work=356*
 59: 0x01AB [0x45] LOAD_SCHEDULED_TASK: Load scheduler "s080" with entities [EventEntity, EventEntity], work=[356*, 0*]
 60: 0x01BC [0x7B] LocalPlayer stops talking
 61: 0x01C1 [0x45] LOAD_SCHEDULED_TASK: Load scheduler "se03" with entities [Leadavox (ID: 17118003/0x01053333), Leadavox (ID: 17118003/0x01053333)], work=[357*, 0*]
 62: 0x01D2 [0x5B] LOAD_EXT_SCHEDULER: Load scheduler "hap0" with entities [Leadavox (ID: 17118003/0x01053333), Leadavox (ID: 17118003/0x01053333)], work=216*
 63: 0x01E1 [0x2B] Leadavox (ID: 17118003/0x01053333) [7865*]:
    → "Elvaan child and Gigas.t"
 64: 0x01E8 [0x23] WAIT_FOR_DIALOG_INTERACTION
 65: 0x01E9 [0x2B] Leadavox (ID: 17118003/0x01053333) [7866*]:
    → "Sittin' in a tree.t"
 66: 0x01F0 [0x23] WAIT_FOR_DIALOG_INTERACTION
 67: 0x01F1 [0x52] END_LOAD_SCHEDULER: End scheduler "s080" with entities [EventEntity, EventEntity], work=356*
 68: 0x0200 [0x45] LOAD_SCHEDULED_TASK: Load scheduler "s081" with entities [EventEntity, EventEntity], work=[356*, 0*]
 69: 0x0211 [0x2B] Leadavox (ID: 17118003/0x01053333) [7867*]:
    → "F-I-S-H-I-N-G.t"
 70: 0x0218 [0x23] WAIT_FOR_DIALOG_INTERACTION
 71: 0x0219 [0x52] END_LOAD_SCHEDULER: End scheduler "s081" with entities [EventEntity, EventEntity], work=356*
 72: 0x0228 [0x45] LOAD_SCHEDULED_TASK: Load scheduler "s157" with entities [EventEntity, EventEntity], work=[357*, 0*]
 73: 0x0239 [0xBA] SET_ENTITY_POSITION(entity_id=LocalPlayer, pos_x=-19.786*, pos_z=353.224*, pos_y=-32.141*, direction=78.2°*)
 74: 0x0246 [0x03] Work_Zone[37] = 4294947360*
 75: 0x024B [0x03] Work_Zone[38] = 349592*
 76: 0x0250 [0x03] Work_Zone[39] = 4294934398*
 77: 0x0255 [0x03] Work_Zone[40] = 358*
 78: 0x025A [0x29] REQ_SET_WAIT(priority=0x0F, entity_id=LocalPlayer, tag_num=0x06)
 79: 0x0261 [0x4A] LocalPlayer looks at Rahal (ID: 17117989/0x01053325)
 80: 0x026A [0x4A] Rahal (ID: 17117989/0x01053325) looks at LocalPlayer
 81: 0x0273 [0x55] WAIT_LOAD_SCHEDULER: Wait for scheduler "s157" with entities [EventEntity, EventEntity], work=357*
 82: 0x0282 [0x45] LOAD_SCHEDULED_TASK: Load scheduler "s158" with entities [EventEntity, EventEntity], work=[357*, 0*]
 83: 0x0293 [0x7B] Rahal (ID: 17117989/0x01053325) stops talking
 84: 0x0298 [0x6F] WAIT_FRAME_DELAY: Yield until WaitTime reaches zero
 85: 0x0299 [0x76] CHECK_ENTITY_RENDER_FLAGS: Wait until Rahal (ID: 17117989/0x01053325) Render.Flags0 and Render.Flags3 conditions are met
 86: 0x029E [0x5B] LOAD_EXT_SCHEDULER: Load scheduler "tla0" with entities [Rahal (ID: 17117989/0x01053325), Rahal (ID: 17117989/0x01053325)], work=1272*
 87: 0x02AD [0x2B] Rahal (ID: 17117989/0x01053325) [7868*]:
    → "<Player>? How did you know to find us here!?"
 88: 0x02B4 [0x23] WAIT_FOR_DIALOG_INTERACTION
 89: 0x02B5 [0x5B] LOAD_EXT_SCHEDULER: Load scheduler "tla1" with entities [Rahal (ID: 17117989/0x01053325), Rahal (ID: 17117989/0x01053325)], work=1272*
 90: 0x02C4 [0x6E] LocalPlayer uses emote 22*
 91: 0x02CB [0x99] Wait for LocalPlayer animation to complete
 92: 0x02D0 [0x1C] WAIT(120* ticks)
 93: 0x02D3 [0x4A] Leadavox (ID: 17118003/0x01053333) looks at LocalPlayer
 94: 0x02DC [0x52] END_LOAD_SCHEDULER: End scheduler "s158" with entities [EventEntity, EventEntity], work=357*
 95: 0x02EB [0x45] LOAD_SCHEDULED_TASK: Load scheduler "s159" with entities [EventEntity, EventEntity], work=[357*, 0*]
 96: 0x02FC [0x81] SET_ENTITY_BLINKING(blink_flag=0x00, entity=Rahal (ID: 17117989/0x01053325))
 97: 0x0302 [0x5B] LOAD_EXT_SCHEDULER: Load scheduler "tha0" with entities [Rahal (ID: 17117989/0x01053325), Rahal (ID: 17117989/0x01053325)], work=1272*
 98: 0x0311 [0x2B] Rahal (ID: 17117989/0x01053325) [7869*]:
    → "<Sigh> Please remind me to reevaluate what confidential information we entrust to Rholont and Bistillot..."
 99: 0x0318 [0x23] WAIT_FOR_DIALOG_INTERACTION
100: 0x0319 [0x5B] LOAD_EXT_SCHEDULER: Load scheduler "tha1" with entities [Rahal (ID: 17117989/0x01053325), Rahal (ID: 17117989/0x01053325)], work=1272*
101: 0x0328 [0x81] SET_ENTITY_BLINKING(blink_flag=0x01, entity=Rahal (ID: 17117989/0x01053325))
102: 0x032E [0x4A] Rahal (ID: 17117989/0x01053325) looks at Leadavox (ID: 17118003/0x01053333)
103: 0x0337 [0x4A] LocalPlayer looks at Leadavox (ID: 17118003/0x01053333)
104: 0x0340 [0x52] END_LOAD_SCHEDULER: End scheduler "s159" with entities [EventEntity, EventEntity], work=357*
105: 0x034F [0x45] LOAD_SCHEDULED_TASK: Load scheduler "s160" with entities [EventEntity, EventEntity], work=[357*, 0*]
106: 0x0360 [0x7B] Rahal (ID: 17117989/0x01053325) stops talking
107: 0x0365 [0x6F] WAIT_FRAME_DELAY: Yield until WaitTime reaches zero
108: 0x0366 [0x76] CHECK_ENTITY_RENDER_FLAGS: Wait until Rahal (ID: 17117989/0x01053325) Render.Flags0 and Render.Flags3 conditions are met
109: 0x036B [0x5B] LOAD_EXT_SCHEDULER: Load scheduler "tla0" with entities [Rahal (ID: 17117989/0x01053325), Rahal (ID: 17117989/0x01053325)], work=1272*
110: 0x037A [0x2B] Rahal (ID: 17117989/0x01053325) [7870*]:
    → "Oh, with me here is Leadavox, a good Goblin friend. She has a talent for communicating with Gigas."
111: 0x0381 [0x23] WAIT_FOR_DIALOG_INTERACTION
112: 0x0382 [0x5B] LOAD_EXT_SCHEDULER: Load scheduler "tla1" with entities [Rahal (ID: 17117989/0x01053325), Rahal (ID: 17117989/0x01053325)], work=1272*
113: 0x0391 [0x52] END_LOAD_SCHEDULER: End scheduler "s160" with entities [EventEntity, EventEntity], work=357*
114: 0x03A0 [0x45] LOAD_SCHEDULED_TASK: Load scheduler "s183" with entities [EventEntity, EventEntity], work=[357*, 0*]
115: 0x03B1 [0x5B] LOAD_EXT_SCHEDULER: Load scheduler "tlk1" with entities [Leadavox (ID: 17118003/0x01053333), Leadavox (ID: 17118003/0x01053333)], work=215*
116: 0x03C0 [0x2B] Leadavox (ID: 17118003/0x01053333) [7871*]:
    → "Hi there!"
117: 0x03C7 [0x23] WAIT_FOR_DIALOG_INTERACTION
118: 0x03C8 [0x5B] LOAD_EXT_SCHEDULER: Load scheduler "tlke" with entities [Leadavox (ID: 17118003/0x01053333), Leadavox (ID: 17118003/0x01053333)], work=215*
119: 0x03D7 [0x4A] Rahal (ID: 17117989/0x01053325) looks at LocalPlayer
120: 0x03E0 [0x4A] LocalPlayer looks at Rahal (ID: 17117989/0x01053325)
121: 0x03E9 [0x52] END_LOAD_SCHEDULER: End scheduler "s183" with entities [EventEntity, EventEntity], work=357*
122: 0x03F8 [0x45] LOAD_SCHEDULED_TASK: Load scheduler "s161" with entities [EventEntity, EventEntity], work=[357*, 0*]
123: 0x0409 [0x7B] Rahal (ID: 17117989/0x01053325) stops talking
124: 0x040E [0x6F] WAIT_FRAME_DELAY: Yield until WaitTime reaches zero
125: 0x040F [0x76] CHECK_ENTITY_RENDER_FLAGS: Wait until Rahal (ID: 17117989/0x01053325) Render.Flags0 and Render.Flags3 conditions are met
126: 0x0414 [0x5B] LOAD_EXT_SCHEDULER: Load scheduler "tla0" with entities [Rahal (ID: 17117989/0x01053325), Rahal (ID: 17117989/0x01053325)], work=1272*
127: 0x0423 [0x2B] Rahal (ID: 17117989/0x01053325) [7872*]:
    → "We tracked down this most unusual Gigas, uh...K-Kly..."
128: 0x042A [0x23] WAIT_FOR_DIALOG_INTERACTION
129: 0x042B [0x5B] LOAD_EXT_SCHEDULER: Load scheduler "tla1" with entities [Rahal (ID: 17117989/0x01053325), Rahal (ID: 17117989/0x01053325)], work=1272*
130: 0x043A [0x52] END_LOAD_SCHEDULER: End scheduler "s161" with entities [EventEntity, EventEntity], work=357*
131: 0x0449 [0x45] LOAD_SCHEDULED_TASK: Load scheduler "s162" with entities [EventEntity, EventEntity], work=[357*, 0*]
132: 0x045A [0x5B] LOAD_EXT_SCHEDULER: Load scheduler "tlk0" with entities [Leadavox (ID: 17118003/0x01053333), Leadavox (ID: 17118003/0x01053333)], work=215*
133: 0x0469 [0x2B] Leadavox (ID: 17118003/0x01053333) [7873*]:
    → "The name's "Klythios." He's fond of fishin'!"
134: 0x0470 [0x23] WAIT_FOR_DIALOG_INTERACTION
135: 0x0471 [0x5B] LOAD_EXT_SCHEDULER: Load scheduler "tlke" with entities [Leadavox (ID: 17118003/0x01053333), Leadavox (ID: 17118003/0x01053333)], work=215*
136: 0x0480 [0x52] END_LOAD_SCHEDULER: End scheduler "s162" with entities [EventEntity, EventEntity], work=357*
137: 0x048F [0x45] LOAD_SCHEDULED_TASK: Load scheduler "s163" with entities [EventEntity, EventEntity], work=[357*, 0*]
138: 0x04A0 [0x5B] LOAD_EXT_SCHEDULER: Load scheduler "tla0" with entities [Rahal (ID: 17117989/0x01053325), Rahal (ID: 17117989/0x01053325)], work=1272*
139: 0x04AF [0x2B] Rahal (ID: 17117989/0x01053325) [7874*]:
    → "Yes yes, Klythios."
140: 0x04B6 [0x23] WAIT_FOR_DIALOG_INTERACTION
141: 0x04B7 [0x2B] Rahal (ID: 17117989/0x01053325) [7875*]:
    → "Knowing of the Gigas' propensity for ferocity, we had concealed ourselves in the bushes, observing the creature from afar..."
142: 0x04BE [0x23] WAIT_FOR_DIALOG_INTERACTION
143: 0x04BF [0x2B] Rahal (ID: 17117989/0x01053325) [7876*]:
    → "When Excenmille inexplicably leaps out like a madman and challenges Klythios to a fish-off!"
144: 0x04C6 [0x23] WAIT_FOR_DIALOG_INTERACTION
145: 0x04C7 [0x5B] LOAD_EXT_SCHEDULER: Load scheduler "tla1" with entities [Rahal (ID: 17117989/0x01053325), Rahal (ID: 17117989/0x01053325)], work=1272*
146: 0x04D6 [0x4A] Rahal (ID: 17117989/0x01053325) looks at Unnamed NPC (ID: 17118005/0x01053335)
147: 0x04DF [0x52] END_LOAD_SCHEDULER: End scheduler "s163" with entities [EventEntity, EventEntity], work=357*
148: 0x04EE [0x45] LOAD_SCHEDULED_TASK: Load scheduler "s164" with entities [EventEntity, EventEntity], work=[357*, 0*]
149: 0x04FF [0x7B] Rahal (ID: 17117989/0x01053325) stops talking
150: 0x0504 [0x6F] WAIT_FRAME_DELAY: Yield until WaitTime reaches zero
151: 0x0505 [0x76] CHECK_ENTITY_RENDER_FLAGS: Wait until Rahal (ID: 17117989/0x01053325) Render.Flags0 and Render.Flags3 conditions are met
152: 0x050A [0x5B] LOAD_EXT_SCHEDULER: Load scheduler "pnt0" with entities [Rahal (ID: 17117989/0x01053325), Rahal (ID: 17117989/0x01053325)], work=1438*
153: 0x0519 [0x2B] Rahal (ID: 17117989/0x01053325) [7877*]:
    → "Look yonder..."
154: 0x0520 [0x23] WAIT_FOR_DIALOG_INTERACTION
155: 0x0521 [0x55] WAIT_LOAD_SCHEDULER: Wait for scheduler "s164" with entities [EventEntity, EventEntity], work=357*
156: 0x0530 [0x45] LOAD_SCHEDULED_TASK: Load scheduler "s003" with entities [EventEntity, EventEntity], work=[356*, 0*]
157: 0x0541 [0x5B] LOAD_EXT_SCHEDULER: Load scheduler "fsh1" with entities [Excenmille (ID: 17117992/0x01053328), Excenmille (ID: 17117992/0x01053328)], work=1405*
158: 0x0550 [0x5B] LOAD_EXT_SCHEDULER: Load scheduler "fsh1" with entities [Leadavox (ID: 17118004/0x01053334), Leadavox (ID: 17118004/0x01053334)], work=1321*
159: 0x055F [0x55] WAIT_LOAD_SCHEDULER: Wait for scheduler "s003" with entities [EventEntity, EventEntity], work=356*
160: 0x056E [0x45] LOAD_SCHEDULED_TASK: Load scheduler "s004" with entities [EventEntity, EventEntity], work=[356*, 0*]
161: 0x057F [0x55] WAIT_LOAD_SCHEDULER: Wait for scheduler "s004" with entities [EventEntity, EventEntity], work=356*
162: 0x058E [0x45] LOAD_SCHEDULED_TASK: Load scheduler "s005" with entities [EventEntity, EventEntity], work=[356*, 0*]
163: 0x059F [0x1C] WAIT(30* ticks)
164: 0x05A2 [0x2B] Excenmille (ID: 17117992/0x01053328) [7878*]:
    → "Fly, damn you! Fly like the wind!"
165: 0x05A9 [0x23] WAIT_FOR_DIALOG_INTERACTION
166: 0x05AA [0x1C] WAIT(115* ticks)
167: 0x05AD [0x45] LOAD_SCHEDULED_TASK: Load scheduler "8231" with entities [EventEntity, EventEntity], work=[356*, 0*]
168: 0x05BE [0x55] WAIT_LOAD_SCHEDULER: Wait for scheduler "s005" with entities [EventEntity, EventEntity], work=356*
169: 0x05CD [0x45] LOAD_SCHEDULED_TASK: Load scheduler "s006" with entities [EventEntity, EventEntity], work=[356*, 0*]
170: 0x05DE [0x4A] Leadavox (ID: 17118003/0x01053333) looks at Klythios (ID: 17118002/0x01053332)
171: 0x05E7 [0x4A] Rahal (ID: 17117989/0x01053325) looks at Klythios (ID: 17118002/0x01053332)
172: 0x05F0 [0x4A] LocalPlayer looks at Klythios (ID: 17118002/0x01053332)
173: 0x05F9 [0x7B] Rahal (ID: 17117989/0x01053325) stops talking
174: 0x05FE [0x7B] Leadavox (ID: 17118003/0x01053333) stops talking
175: 0x0603 [0x7B] LocalPlayer stops talking
176: 0x0608 [0x5B] LOAD_EXT_SCHEDULER: Load scheduler "fd01" with entities [Excenmille (ID: 17117992/0x01053328), Excenmille (ID: 17117992/0x01053328)], work=1299*
177: 0x0617 [0x2B] Excenmille (ID: 17117992/0x01053328) [7879*]:
    → "You watch, my grey, gargantuan friend! It shan't be long till you feast your eyes upon the largest fish ever reeled in this side of Vana'diel!"
178: 0x061E [0x23] WAIT_FOR_DIALOG_INTERACTION
179: 0x061F [0x5B] LOAD_EXT_SCHEDULER: Load scheduler "fd00" with entities [Excenmille (ID: 17117992/0x01053328), Excenmille (ID: 17117992/0x01053328)], work=1299*
180: 0x062E [0x52] END_LOAD_SCHEDULER: End scheduler "s006" with entities [EventEntity, EventEntity], work=356*
181: 0x063D [0x45] LOAD_SCHEDULED_TASK: Load scheduler "s007" with entities [EventEntity, EventEntity], work=[356*, 0*]
182: 0x064E [0x5B] LOAD_EXT_SCHEDULER: Load scheduler "tlk0" with entities [Klythios (ID: 17118002/0x01053332), Klythios (ID: 17118002/0x01053332)], work=1322*
183: 0x065D [0x2B] Klythios (ID: 17118002/0x01053332) [7880*]:
    → "Ughuo! Gugho, gaghuuu."
184: 0x0664 [0x23] WAIT_FOR_DIALOG_INTERACTION
185: 0x0665 [0x52] END_LOAD_SCHEDULER: End scheduler "s007" with entities [EventEntity, EventEntity], work=356*
186: 0x0674 [0x45] LOAD_SCHEDULED_TASK: Load scheduler "s167" with entities [EventEntity, EventEntity], work=[357*, 0*]
187: 0x0685 [0x5B] LOAD_EXT_SCHEDULER: Load scheduler "tla0" with entities [Rahal (ID: 17117989/0x01053325), Rahal (ID: 17117989/0x01053325)], work=1272*
188: 0x0694 [0x2B] Rahal (ID: 17117989/0x01053325) [7881*]:
    → "According to Leadavox, the two are engaged in a test of strength, where victory is decided by the larger fish. But...sometimes I cannot help but wonder whether they actually understand each other."
189: 0x069B [0x23] WAIT_FOR_DIALOG_INTERACTION
190: 0x069C [0x5B] LOAD_EXT_SCHEDULER: Load scheduler "tla1" with entities [Rahal (ID: 17117989/0x01053325), Rahal (ID: 17117989/0x01053325)], work=1272*
191: 0x06AB [0x4A] Leadavox (ID: 17118003/0x01053333) looks at Rahal (ID: 17117989/0x01053325)
192: 0x06B4 [0x4A] Rahal (ID: 17117989/0x01053325) looks at Leadavox (ID: 17118003/0x01053333)
193: 0x06BD [0x5D] SET_MUSIC_VOLUME(volume=0*, fade_time=240*)
194: 0x06C2 [0x52] END_LOAD_SCHEDULER: End scheduler "s167" with entities [EventEntity, EventEntity], work=357*
195: 0x06D1 [0x45] LOAD_SCHEDULED_TASK: Load scheduler "s168" with entities [EventEntity, EventEntity], work=[357*, 0*]
196: 0x06E2 [0x7B] Rahal (ID: 17117989/0x01053325) stops talking
197: 0x06E7 [0x7B] Leadavox (ID: 17118003/0x01053333) stops talking
198: 0x06EC [0x6F] WAIT_FRAME_DELAY: Yield until WaitTime reaches zero
199: 0x06ED [0x76] CHECK_ENTITY_RENDER_FLAGS: Wait until Leadavox (ID: 17118003/0x01053333) Render.Flags0 and Render.Flags3 conditions are met
200: 0x06F2 [0x5B] LOAD_EXT_SCHEDULER: Load scheduler "ang0" with entities [Leadavox (ID: 17118003/0x01053333), Leadavox (ID: 17118003/0x01053333)], work=216*
201: 0x0701 [0x2B] Leadavox (ID: 17118003/0x01053333) [7882*]:
    → "What? You questionin' my ability to communicate with Gigas!?"
202: 0x0708 [0x23] WAIT_FOR_DIALOG_INTERACTION
203: 0x0709 [0x81] SET_ENTITY_BLINKING(blink_flag=0x00, entity=Rahal (ID: 17117989/0x01053325))
204: 0x070F [0x5B] LOAD_EXT_SCHEDULER: Load scheduler "tha0" with entities [Rahal (ID: 17117989/0x01053325), Rahal (ID: 17117989/0x01053325)], work=1273*
205: 0x071E [0x2B] Rahal (ID: 17117989/0x01053325) [7883*]:
    → "I-I'm sorry, I hadn't meant to give offense..."
206: 0x0725 [0x23] WAIT_FOR_DIALOG_INTERACTION
207: 0x0726 [0x81] SET_ENTITY_BLINKING(blink_flag=0x01, entity=Rahal (ID: 17117989/0x01053325))
208: 0x072C [0x52] END_LOAD_SCHEDULER: End scheduler "s168" with entities [EventEntity, EventEntity], work=357*
209: 0x073B [0x45] LOAD_SCHEDULED_TASK: Load scheduler "s170" with entities [EventEntity, EventEntity], work=[357*, 0*]
210: 0x074C [0x5B] LOAD_EXT_SCHEDULER: Load scheduler "ang1" with entities [Leadavox (ID: 17118003/0x01053333), Leadavox (ID: 17118003/0x01053333)], work=216*
211: 0x075B [0x1C] WAIT(60* ticks)
212: 0x075E [0x5B] LOAD_EXT_SCHEDULER: Load scheduler "tlk0" with entities [Leadavox (ID: 17118003/0x01053333), Leadavox (ID: 17118003/0x01053333)], work=215*
213: 0x076D [0x4A] LocalPlayer looks at Leadavox (ID: 17118003/0x01053333)
214: 0x0776 [0x2B] Leadavox (ID: 17118003/0x01053333) [7884*]:
    → "That's more like it. I like ya, so I'm gonna tell ya somethin' interestin'."
215: 0x077D [0x23] WAIT_FOR_DIALOG_INTERACTION
216: 0x077E [0x5B] LOAD_EXT_SCHEDULER: Load scheduler "tha1" with entities [Rahal (ID: 17117989/0x01053325), Rahal (ID: 17117989/0x01053325)], work=1273*
217: 0x078D [0x52] END_LOAD_SCHEDULER: End scheduler "s170" with entities [EventEntity, EventEntity], work=357*
218: 0x079C [0x45] LOAD_SCHEDULED_TASK: Load scheduler "s169" with entities [EventEntity, EventEntity], work=[357*, 0*]
219: 0x07AD [0x2B] Leadavox (ID: 17118003/0x01053333) [7885*]:
    → "That Klythios there, is descended from the gods--a real nasty piece of work, he is!"
220: 0x07B4 [0x23] WAIT_FOR_DIALOG_INTERACTION
221: 0x07B5 [0x2B] Leadavox (ID: 17118003/0x01053333) [7886*]:
    → "Even other Gigas know to keep away!"
222: 0x07BC [0x23] WAIT_FOR_DIALOG_INTERACTION
223: 0x07BD [0x5B] LOAD_EXT_SCHEDULER: Load scheduler "tlke" with entities [Leadavox (ID: 17118003/0x01053333), Leadavox (ID: 17118003/0x01053333)], work=215*
224: 0x07CC [0x52] END_LOAD_SCHEDULER: End scheduler "s169" with entities [EventEntity, EventEntity], work=357*
225: 0x07DB [0x45] LOAD_SCHEDULED_TASK: Load scheduler "s171" with entities [EventEntity, EventEntity], work=[357*, 0*]
226: 0x07EC [0x5B] LOAD_EXT_SCHEDULER: Load scheduler "tla0" with entities [Rahal (ID: 17117989/0x01053325), Rahal (ID: 17117989/0x01053325)], work=1272*
227: 0x07FB [0x2B] Rahal (ID: 17117989/0x01053325) [7887*]:
    → "Is he truly as dangerous as you say? Nothing to suggest that has happened so far..."
228: 0x0802 [0x23] WAIT_FOR_DIALOG_INTERACTION
229: 0x0803 [0x5B] LOAD_EXT_SCHEDULER: Load scheduler "tla1" with entities [Rahal (ID: 17117989/0x01053325), Rahal (ID: 17117989/0x01053325)], work=1272*
230: 0x0812 [0x52] END_LOAD_SCHEDULER: End scheduler "s171" with entities [EventEntity, EventEntity], work=357*
231: 0x0821 [0x45] LOAD_SCHEDULED_TASK: Load scheduler "s172" with entities [EventEntity, EventEntity], work=[357*, 0*]
232: 0x0832 [0x45] LOAD_SCHEDULED_TASK: Load scheduler "se03" with entities [Leadavox (ID: 17118003/0x01053333), Leadavox (ID: 17118003/0x01053333)], work=[357*, 0*]
233: 0x0843 [0x5B] LOAD_EXT_SCHEDULER: Load scheduler "hap0" with entities [Leadavox (ID: 17118003/0x01053333), Leadavox (ID: 17118003/0x01053333)], work=216*
234: 0x0852 [0x2B] Leadavox (ID: 17118003/0x01053333) [7888*]:
    → "You'll change your mind when Klythios sups on fish and has your friend for dessert!"
235: 0x0859 [0x23] WAIT_FOR_DIALOG_INTERACTION
236: 0x085A [0x52] END_LOAD_SCHEDULER: End scheduler "s172" with entities [EventEntity, EventEntity], work=357*
237: 0x0869 [0x5B] LOAD_EXT_SCHEDULER: Load scheduler "fsh2" with entities [Excenmille (ID: 17117992/0x01053328), Excenmille (ID: 17117992/0x01053328)], work=1406*
238: 0x0878 [0x5B] LOAD_EXT_SCHEDULER: Load scheduler "fsh2" with entities [Leadavox (ID: 17118004/0x01053334), Leadavox (ID: 17118004/0x01053334)], work=1321*
239: 0x0887 [0x5B] LOAD_EXT_SCHEDULER: Load scheduler "fa00" with entities [Excenmille (ID: 17117992/0x01053328), Excenmille (ID: 17117992/0x01053328)], work=1299*
240: 0x0896 [0x45] LOAD_SCHEDULED_TASK: Load scheduler "s009" with entities [EventEntity, EventEntity], work=[356*, 0*]
241: 0x08A7 [0x55] WAIT_LOAD_SCHEDULER: Wait for scheduler "s009" with entities [EventEntity, EventEntity], work=356*
242: 0x08B6 [0x5B] LOAD_EXT_SCHEDULER: Load scheduler "hap1" with entities [Leadavox (ID: 17118003/0x01053333), Leadavox (ID: 17118003/0x01053333)], work=216*
243: 0x08C5 [0x45] LOAD_SCHEDULED_TASK: Load scheduler "s010" with entities [EventEntity, EventEntity], work=[356*, 0*]
244: 0x08D6 [0x2B] Excenmille (ID: 17117992/0x01053328) [7889*]:
    → "..."
245: 0x08DD [0x23] WAIT_FOR_DIALOG_INTERACTION
246: 0x08DE [0x81] SET_ENTITY_BLINKING(blink_flag=0x00, entity=Excenmille (ID: 17117992/0x01053328))
247: 0x08E4 [0x7C] Excenmille (ID: 17117992/0x01053328)->Render.Flags2 |= 0x00
248: 0x08EA [0x5B] LOAD_EXT_SCHEDULER: Load scheduler "fa01" with entities [Excenmille (ID: 17117992/0x01053328), Excenmille (ID: 17117992/0x01053328)], work=1299*
249: 0x08F9 [0x2B] Excenmille (ID: 17117992/0x01053328) [7890*]:
    → "Confound it! Why is it taking so long?"
250: 0x0900 [0x23] WAIT_FOR_DIALOG_INTERACTION
251: 0x0901 [0x5B] LOAD_EXT_SCHEDULER: Load scheduler "fa00" with entities [Excenmille (ID: 17117992/0x01053328), Excenmille (ID: 17117992/0x01053328)], work=1299*
252: 0x0910 [0x5C] MUSIC_CONTROL: Set Idle (Day) music to song 136*
253: 0x0914 [0x5C] MUSIC_CONTROL: Set Idle (Night) music to song 136*
254: 0x0918 [0x9A] WAIT_MUSIC_SERVER()
255: 0x0919 [0x52] END_LOAD_SCHEDULER: End scheduler "s010" with entities [EventEntity, EventEntity], work=356*
256: 0x0928 [0x45] LOAD_SCHEDULED_TASK: Load scheduler "s026" with entities [EventEntity, EventEntity], work=[356*, 0*]
257: 0x0939 [0x5B] LOAD_EXT_SCHEDULER: Load scheduler "fg00" with entities [Excenmille (ID: 17117992/0x01053328), Excenmille (ID: 17117992/0x01053328)], work=1299*
258: 0x0948 [0x5B] LOAD_EXT_SCHEDULER: Load scheduler "fsh3" with entities [Excenmille (ID: 17117992/0x01053328), Excenmille (ID: 17117992/0x01053328)], work=1406*
259: 0x0957 [0x5B] LOAD_EXT_SCHEDULER: Load scheduler "fsh3" with entities [Leadavox (ID: 17118004/0x01053334), Leadavox (ID: 17118004/0x01053334)], work=1321*
260: 0x0966 [0x2B] Excenmille (ID: 17117992/0x01053328) [7891*]:
    → "Huh?"
261: 0x096D [0x1C] WAIT(60* ticks)
262: 0x0970 [0x52] END_LOAD_SCHEDULER: End scheduler "s026" with entities [EventEntity, EventEntity], work=356*
263: 0x097F [0x45] LOAD_SCHEDULED_TASK: Load scheduler "s011" with entities [EventEntity, EventEntity], work=[356*, 0*]
264: 0x0990 [0x2B] Excenmille (ID: 17117992/0x01053328) [7892*]:
    → "Yes! This unmistakable feeling...a catch of Gigas proportion!"
265: 0x0997 [0x23] WAIT_FOR_DIALOG_INTERACTION
266: 0x0998 [0x52] END_LOAD_SCHEDULER: End scheduler "s011" with entities [EventEntity, EventEntity], work=356*
267: 0x09A7 [0x45] LOAD_SCHEDULED_TASK: Load scheduler "s012" with entities [EventEntity, EventEntity], work=[356*, 0*]
268: 0x09B8 [0x5B] LOAD_EXT_SCHEDULER: Load scheduler "tlk0" with entities [Klythios (ID: 17118002/0x01053332), Klythios (ID: 17118002/0x01053332)], work=1322*
269: 0x09C7 [0x2B] Klythios (ID: 17118002/0x01053332) [7893*]:
    → "Uwoh, ugaaa!?"
270: 0x09CE [0x23] WAIT_FOR_DIALOG_INTERACTION
271: 0x09CF [0x52] END_LOAD_SCHEDULER: End scheduler "s012" with entities [EventEntity, EventEntity], work=356*
272: 0x09DE [0x45] LOAD_SCHEDULED_TASK: Load scheduler "s014" with entities [EventEntity, EventEntity], work=[356*, 0*]
273: 0x09EF [0x2B] Excenmille (ID: 17117992/0x01053328) [7894*]:
    → "..."
274: 0x09F6 [0x23] WAIT_FOR_DIALOG_INTERACTION
275: 0x09F7 [0x1C] WAIT(180* ticks)
276: 0x09FA [0x52] END_LOAD_SCHEDULER: End scheduler "s014" with entities [EventEntity, EventEntity], work=356*
277: 0x0A09 [0x45] LOAD_SCHEDULED_TASK: Load scheduler "s013" with entities [EventEntity, EventEntity], work=[356*, 0*]
278: 0x0A1A [0x2B] Excenmille (ID: 17117992/0x01053328) [7895*]:
    → "........."
279: 0x0A21 [0x23] WAIT_FOR_DIALOG_INTERACTION
280: 0x0A22 [0x1C] WAIT(180* ticks)
281: 0x0A25 [0x52] END_LOAD_SCHEDULER: End scheduler "s013" with entities [EventEntity, EventEntity], work=356*
282: 0x0A34 [0x45] LOAD_SCHEDULED_TASK: Load scheduler "s015" with entities [EventEntity, EventEntity], work=[356*, 0*]
283: 0x0A45 [0x5D] SET_MUSIC_VOLUME(volume=0*, fade_time=120*)
284: 0x0A4A [0x1C] WAIT(120* ticks)
285: 0x0A4D [0x5B] LOAD_EXT_SCHEDULER: Load scheduler "fc00" with entities [Excenmille (ID: 17117992/0x01053328), Excenmille (ID: 17117992/0x01053328)], work=1299*
286: 0x0A5C [0x5B] LOAD_EXT_SCHEDULER: Load scheduler "fc01" with entities [Excenmille (ID: 17117992/0x01053328), Excenmille (ID: 17117992/0x01053328)], work=1299*
287: 0x0A6B [0x2B] Excenmille (ID: 17117992/0x01053328) [7896*]:
    → "A snag..."
288: 0x0A72 [0x23] WAIT_FOR_DIALOG_INTERACTION
289: 0x0A73 [0x5B] LOAD_EXT_SCHEDULER: Load scheduler "fc00" with entities [Excenmille (ID: 17117992/0x01053328), Excenmille (ID: 17117992/0x01053328)], work=1299*
290: 0x0A82 [0x52] END_LOAD_SCHEDULER: End scheduler "s015" with entities [EventEntity, EventEntity], work=356*
291: 0x0A91 [0x45] LOAD_SCHEDULED_TASK: Load scheduler "s016" with entities [EventEntity, EventEntity], work=[356*, 0*]
292: 0x0AA2 [0x5B] LOAD_EXT_SCHEDULER: Load scheduler "lou0" with entities [Klythios (ID: 17118002/0x01053332), Klythios (ID: 17118002/0x01053332)], work=1322*
293: 0x0AB1 [0x2B] Klythios (ID: 17118002/0x01053332) [7897*]:
    → "Gwaaa! Gwahahahaha!"
294: 0x0AB8 [0x23] WAIT_FOR_DIALOG_INTERACTION
295: 0x0AB9 [0x52] END_LOAD_SCHEDULER: End scheduler "s016" with entities [EventEntity, EventEntity], work=356*
296: 0x0AC8 [0x45] LOAD_SCHEDULED_TASK: Load scheduler "s027" with entities [EventEntity, EventEntity], work=[356*, 0*]
297: 0x0AD9 [0x2B] Excenmille (ID: 17117992/0x01053328) [7898*]:
    → "That's it!"
298: 0x0AE0 [0x23] WAIT_FOR_DIALOG_INTERACTION
299: 0x0AE1 [0x55] WAIT_LOAD_SCHEDULER: Wait for scheduler "s027" with entities [EventEntity, EventEntity], work=356*
300: 0x0AF0 [0x45] LOAD_SCHEDULED_TASK: Load scheduler "s017" with entities [EventEntity, EventEntity], work=[356*, 0*]
301: 0x0B01 [0x5B] LOAD_EXT_SCHEDULER: Load scheduler "f000" with entities [Excenmille (ID: 17117992/0x01053328), Excenmille (ID: 17117992/0x01053328)], work=1299*
302: 0x0B10 [0x4A] Rahal (ID: 17117989/0x01053325) looks at Klythios (ID: 17118002/0x01053332)
303: 0x0B19 [0x4A] LocalPlayer looks at Klythios (ID: 17118002/0x01053332)
304: 0x0B22 [0x4A] Leadavox (ID: 17118003/0x01053333) looks at Klythios (ID: 17118002/0x01053332)
305: 0x0B2B [0x7B] Rahal (ID: 17117989/0x01053325) stops talking
306: 0x0B30 [0x7B] LocalPlayer stops talking
307: 0x0B35 [0x7B] Leadavox (ID: 17118003/0x01053333) stops talking
308: 0x0B3A [0x81] SET_ENTITY_BLINKING(blink_flag=0x00, entity=Excenmille (ID: 17117992/0x01053328))
309: 0x0B40 [0x7C] Excenmille (ID: 17117992/0x01053328)->Render.Flags2 |= 0x00
310: 0x0B46 [0x5B] LOAD_EXT_SCHEDULER: Load scheduler "fsh4" with entities [Excenmille (ID: 17117992/0x01053328), Excenmille (ID: 17117992/0x01053328)], work=1406*
311: 0x0B55 [0x5B] LOAD_EXT_SCHEDULER: Load scheduler "fsh4" with entities [Leadavox (ID: 17118004/0x01053334), Leadavox (ID: 17118004/0x01053334)], work=1321*
312: 0x0B64 [0x2B] Excenmille (ID: 17117992/0x01053328) [7899*]:
    → "No more mister nice Elvaan! I shall reel this in even if it means bringing in with it the whole of Vana'diel!!!"
313: 0x0B6B [0x23] WAIT_FOR_DIALOG_INTERACTION
314: 0x0B6C [0x55] WAIT_LOAD_SCHEDULER: Wait for scheduler "s017" with entities [EventEntity, EventEntity], work=356*
315: 0x0B7B [0x45] LOAD_SCHEDULED_TASK: Load scheduler "s018" with entities [EventEntity, EventEntity], work=[356*, 0*]
316: 0x0B8C [0x1C] WAIT(120* ticks)
317: 0x0B8F [0x45] LOAD_SCHEDULED_TASK: Load scheduler "2021" with entities [EventEntity, EventEntity], work=[356*, 0*]
318: 0x0BA0 [0x45] LOAD_SCHEDULED_TASK: Load scheduler "6006" with entities [EventEntity, EventEntity], work=[356*, 0*]
319: 0x0BB1 [0x9F] LOAD_SCHEDULED_TASK_ALT: Load scheduler "str0" with entities [EventEntity, EventEntity], work=[127*, 0*]
320: 0x0BC2 [0x5B] LOAD_EXT_SCHEDULER: Load scheduler "sd00" with entities [Klythios (ID: 17118002/0x01053332), Klythios (ID: 17118002/0x01053332)], work=1322*
321: 0x0BD1 [0x55] WAIT_LOAD_SCHEDULER: Wait for scheduler "s018" with entities [EventEntity, EventEntity], work=356*
322: 0x0BE0 [0x45] LOAD_SCHEDULED_TASK: Load scheduler "s019" with entities [EventEntity, EventEntity], work=[356*, 0*]
323: 0x0BF1 [0x5B] LOAD_EXT_SCHEDULER: Load scheduler "fsh5" with entities [Rahal (ID: 17117989/0x01053325), Rahal (ID: 17117989/0x01053325)], work=1406*
324: 0x0C00 [0x2B] Klythios (ID: 17118002/0x01053332) [7900*]:
    → "Ugo, ugagaaa!!!"
325: 0x0C07 [0x23] WAIT_FOR_DIALOG_INTERACTION
326: 0x0C08 [0x55] WAIT_LOAD_SCHEDULER: Wait for scheduler "s019" with entities [EventEntity, EventEntity], work=356*
327: 0x0C17 [0x45] LOAD_SCHEDULED_TASK: Load scheduler "s208" with entities [EventEntity, EventEntity], work=[356*, 0*]
328: 0x0C28 [0x6E] LocalPlayer uses emote 21*
329: 0x0C2F [0x99] Wait for LocalPlayer animation to complete
330: 0x0C34 [0x5B] LOAD_EXT_SCHEDULER: Load scheduler "bik0" with entities [Leadavox (ID: 17118003/0x01053333), Leadavox (ID: 17118003/0x01053333)], work=216*
331: 0x0C43 [0x55] WAIT_LOAD_SCHEDULER: Wait for scheduler "s208" with entities [EventEntity, EventEntity], work=356*
332: 0x0C52 [0x45] LOAD_SCHEDULED_TASK: Load scheduler "s022" with entities [EventEntity, EventEntity], work=[356*, 0*]
333: 0x0C63 [0x4E] SET_ENTITY_HIDE_FLAG: Hide Leadavox (ID: 17118004/0x01053334)
334: 0x0C69 [0x5B] LOAD_EXT_SCHEDULER: Load scheduler "sd01" with entities [Klythios (ID: 17118002/0x01053332), Klythios (ID: 17118002/0x01053332)], work=1322*
335: 0x0C78 [0x5B] LOAD_EXT_SCHEDULER: Load scheduler "fg00" with entities [Excenmille (ID: 17117992/0x01053328), Excenmille (ID: 17117992/0x01053328)], work=1299*
336: 0x0C87 [0x5B] LOAD_EXT_SCHEDULER: Load scheduler "fsh5" with entities [Excenmille (ID: 17117992/0x01053328), Excenmille (ID: 17117992/0x01053328)], work=1406*
337: 0x0C96 [0x1C] WAIT(180* ticks)
338: 0x0C99 [0x2B] Klythios (ID: 17118002/0x01053332) [7901*]:
    → "Gugyaaa!"
339: 0x0CA0 [0x23] WAIT_FOR_DIALOG_INTERACTION
340: 0x0CA1 [0x55] WAIT_LOAD_SCHEDULER: Wait for scheduler "s022" with entities [EventEntity, EventEntity], work=356*
341: 0x0CB0 [0x45] LOAD_SCHEDULED_TASK: Load scheduler "s023" with entities [EventEntity, EventEntity], work=[356*, 0*]
342: 0x0CC1 [0x55] WAIT_LOAD_SCHEDULER: Wait for scheduler "s023" with entities [EventEntity, EventEntity], work=356*
343: 0x0CD0 [0x45] LOAD_SCHEDULED_TASK: Load scheduler "s025" with entities [EventEntity, EventEntity], work=[356*, 0*]
344: 0x0CE1 [0x1C] WAIT(60* ticks)
345: 0x0CE4 [0x45] LOAD_SCHEDULED_TASK: Load scheduler "k021" with entities [EventEntity, EventEntity], work=[356*, 0*]
346: 0x0CF5 [0x45] LOAD_SCHEDULED_TASK: Load scheduler "k006" with entities [EventEntity, EventEntity], work=[356*, 0*]
347: 0x0D06 [0x9F] LOAD_SCHEDULED_TASK_ALT: Load scheduler "kill" with entities [EventEntity, EventEntity], work=[127*, 0*]
348: 0x0D17 [0x55] WAIT_LOAD_SCHEDULER: Wait for scheduler "s025" with entities [EventEntity, EventEntity], work=356*
349: 0x0D26 [0x45] LOAD_SCHEDULED_TASK: Load scheduler "s024" with entities [EventEntity, EventEntity], work=[356*, 0*]
350: 0x0D37 [0x5B] LOAD_EXT_SCHEDULER: Load scheduler "fg01" with entities [Excenmille (ID: 17117992/0x01053328), Excenmille (ID: 17117992/0x01053328)], work=1299*
351: 0x0D46 [0x2B] Excenmille (ID: 17117992/0x01053328) [7902*]:
    → "A-an earthquake?"
352: 0x0D4D [0x23] WAIT_FOR_DIALOG_INTERACTION
353: 0x0D4E [0x5B] LOAD_EXT_SCHEDULER: Load scheduler "f000" with entities [Excenmille (ID: 17117992/0x01053328), Excenmille (ID: 17117992/0x01053328)], work=1299*
354: 0x0D5D [0x81] SET_ENTITY_BLINKING(blink_flag=0x01, entity=Excenmille (ID: 17117992/0x01053328))
355: 0x0D63 [0x7C] Excenmille (ID: 17117992/0x01053328)->Render.Flags2 |= 0x01
356: 0x0D69 [0x1A] CALL_SUBROUTINE(address=0x21C4)
357: 0x0D6C [0x52] END_LOAD_SCHEDULER: End scheduler "s024" with entities [EventEntity, EventEntity], work=356*
358: 0x0D7B [0x6B] STOP_AND_IDLE: Rahal (ID: 17117989/0x01053325) stops current action and resets to idle (animation="idl0")
359: 0x0D84 [0x6B] STOP_AND_IDLE: LocalPlayer stops current action and resets to idle (animation="idl0")
360: 0x0D8D [0x6B] STOP_AND_IDLE: Excenmille (ID: 17117992/0x01053328) stops current action and resets to idle (animation="idl0")
361: 0x0D96 [0x6B] STOP_AND_IDLE: Leadavox (ID: 17118003/0x01053333) stops current action and resets to idle (animation="idl0")
362: 0x0D9F [0x1C] WAIT(1* ticks)
363: 0x0DA2 [0xBA] SET_ENTITY_POSITION(entity_id=Unnamed NPC (ID: 17118005/0x01053335), pos_x=-21.526*, pos_z=308.971*, pos_y=-32.898*, direction=96.8°*)
364: 0x0DAF [0xBA] SET_ENTITY_POSITION(entity_id=Excenmille (ID: 17117992/0x01053328), pos_x=-18.584*, pos_z=312.347*, pos_y=-32.898*, direction=127.3°*)
365: 0x0DBC [0x4A] Excenmille (ID: 17117992/0x01053328) looks at Unnamed NPC (ID: 17118005/0x01053335)
366: 0x0DC5 [0x7B] Excenmille (ID: 17117992/0x01053328) stops talking
367: 0x0DCA [0x6F] WAIT_FRAME_DELAY: Yield until WaitTime reaches zero
368: 0x0DCB [0x76] CHECK_ENTITY_RENDER_FLAGS: Wait until Excenmille (ID: 17117992/0x01053328) Render.Flags0 and Render.Flags3 conditions are met
369: 0x0DD0 [0x5C] MUSIC_CONTROL: Set Idle (Day) music to song 163*
370: 0x0DD4 [0x5C] MUSIC_CONTROL: Set Idle (Night) music to song 163*
371: 0x0DD8 [0x9A] WAIT_MUSIC_SERVER()
372: 0x0DD9 [0x45] LOAD_SCHEDULED_TASK: Load scheduler "fdi2" with entities [LocalPlayer, LocalPlayer], work=[200*, 0*]
373: 0x0DEA [0x45] LOAD_SCHEDULED_TASK: Load scheduler "s217" with entities [EventEntity, EventEntity], work=[356*, 0*]
374: 0x0DFB [0x55] WAIT_LOAD_SCHEDULER: Wait for scheduler "s217" with entities [EventEntity, EventEntity], work=356*
375: 0x0E0A [0x45] LOAD_SCHEDULED_TASK: Load scheduler "s218" with entities [EventEntity, EventEntity], work=[356*, 0*]
376: 0x0E1B [0x5B] LOAD_EXT_SCHEDULER: Load scheduler "tla0" with entities [Excenmille (ID: 17117992/0x01053328), Excenmille (ID: 17117992/0x01053328)], work=1272*
377: 0x0E2A [0x2B] Excenmille (ID: 17117992/0x01053328) [7903*]:
    → "Hm? What are you doing down on your haunches?"
378: 0x0E31 [0x23] WAIT_FOR_DIALOG_INTERACTION
379: 0x0E32 [0x5B] LOAD_EXT_SCHEDULER: Load scheduler "tla1" with entities [Excenmille (ID: 17117992/0x01053328), Excenmille (ID: 17117992/0x01053328)], work=1272*
380: 0x0E41 [0x52] END_LOAD_SCHEDULER: End scheduler "s218" with entities [EventEntity, EventEntity], work=356*
381: 0x0E50 [0x45] LOAD_SCHEDULED_TASK: Load scheduler "s008" with entities [EventEntity, EventEntity], work=[356*, 0*]
382: 0x0E61 [0x2B] Klythios (ID: 17118002/0x01053332) [7904*]:
    → "Uggan gueg, guddag! Gagaggh! Gagaggh!"
383: 0x0E68 [0x23] WAIT_FOR_DIALOG_INTERACTION
384: 0x0E69 [0x4A] Rahal (ID: 17117989/0x01053325) looks at Leadavox (ID: 17118003/0x01053333)
385: 0x0E72 [0x4A] LocalPlayer looks at Leadavox (ID: 17118003/0x01053333)
386: 0x0E7B [0x52] END_LOAD_SCHEDULER: End scheduler "s008" with entities [EventEntity, EventEntity], work=356*
387: 0x0E8A [0x45] LOAD_SCHEDULED_TASK: Load scheduler "s173" with entities [EventEntity, EventEntity], work=[357*, 0*]
388: 0x0E9B [0x7B] Rahal (ID: 17117989/0x01053325) stops talking
389: 0x0EA0 [0x7B] LocalPlayer stops talking
390: 0x0EA5 [0x6F] WAIT_FRAME_DELAY: Yield until WaitTime reaches zero
391: 0x0EA6 [0x76] CHECK_ENTITY_RENDER_FLAGS: Wait until Rahal (ID: 17117989/0x01053325) Render.Flags0 and Render.Flags3 conditions are met
392: 0x0EAB [0x5B] LOAD_EXT_SCHEDULER: Load scheduler "tla0" with entities [Rahal (ID: 17117989/0x01053325), Rahal (ID: 17117989/0x01053325)], work=1272*
393: 0x0EBA [0x2B] Rahal (ID: 17117989/0x01053325) [7905*]:
    → "Leadavox, what is he trying to say?"
394: 0x0EC1 [0x23] WAIT_FOR_DIALOG_INTERACTION
395: 0x0EC2 [0x5B] LOAD_EXT_SCHEDULER: Load scheduler "tla1" with entities [Rahal (ID: 17117989/0x01053325), Rahal (ID: 17117989/0x01053325)], work=1272*
396: 0x0ED1 [0x4B] UPDATE_ENTITY_YAW(entity=Leadavox (ID: 17118003/0x01053333), yaw=20.8°*)
397: 0x0ED8 [0x52] END_LOAD_SCHEDULER: End scheduler "s173" with entities [EventEntity, EventEntity], work=357*
398: 0x0EE7 [0x45] LOAD_SCHEDULED_TASK: Load scheduler "s174" with entities [EventEntity, EventEntity], work=[357*, 0*]
399: 0x0EF8 [0x6B] STOP_AND_IDLE: Excenmille (ID: 17117992/0x01053328) stops current action and resets to idle (animation="idl0")
400: 0x0F01 [0x6F] WAIT_FRAME_DELAY: Yield until WaitTime reaches zero
401: 0x0F02 [0x76] CHECK_ENTITY_RENDER_FLAGS: Wait until Leadavox (ID: 17118003/0x01053333) Render.Flags0 and Render.Flags3 conditions are met
402: 0x0F07 [0x5B] LOAD_EXT_SCHEDULER: Load scheduler "tlk0" with entities [Leadavox (ID: 17118003/0x01053333), Leadavox (ID: 17118003/0x01053333)], work=215*
403: 0x0F16 [0x2B] Leadavox (ID: 17118003/0x01053333) [7906*]:
    → "That's for me to know, and for you to find out...with some gil."
404: 0x0F1D [0x23] WAIT_FOR_DIALOG_INTERACTION
405: 0x0F1E [0x5B] LOAD_EXT_SCHEDULER: Load scheduler "tlke" with entities [Leadavox (ID: 17118003/0x01053333), Leadavox (ID: 17118003/0x01053333)], work=215*
406: 0x0F2D [0x52] END_LOAD_SCHEDULER: End scheduler "s174" with entities [EventEntity, EventEntity], work=357*
407: 0x0F3C [0x45] LOAD_SCHEDULED_TASK: Load scheduler "s175" with entities [EventEntity, EventEntity], work=[357*, 0*]
408: 0x0F4D [0x2B] Rahal (ID: 17117989/0x01053325) [7907*]:
    → "Once a Goblin, always a Goblin, I see..."
409: 0x0F54 [0x23] WAIT_FOR_DIALOG_INTERACTION
410: 0x0F55 [0x52] END_LOAD_SCHEDULER: End scheduler "s175" with entities [EventEntity, EventEntity], work=357*
411: 0x0F64 [0x45] LOAD_SCHEDULED_TASK: Load scheduler "s176" with entities [EventEntity, EventEntity], work=[357*, 0*]
412: 0x0F75 [0x5B] LOAD_EXT_SCHEDULER: Load scheduler "tlk0" with entities [Leadavox (ID: 17118003/0x01053333), Leadavox (ID: 17118003/0x01053333)], work=215*
413: 0x0F84 [0x2B] Leadavox (ID: 17118003/0x01053333) [7908*]:
    → "But since I like you so much, you can pay me later."
414: 0x0F8B [0x23] WAIT_FOR_DIALOG_INTERACTION
415: 0x0F8C [0x2B] Leadavox (ID: 17118003/0x01053333) [7909*]:
    → "Okay, this is a good one. Klythios has reluctantly admitted defeat--he thinks your friend caused the earthquake!"
416: 0x0F93 [0x23] WAIT_FOR_DIALOG_INTERACTION
417: 0x0F94 [0x5B] LOAD_EXT_SCHEDULER: Load scheduler "tlke" with entities [Leadavox (ID: 17118003/0x01053333), Leadavox (ID: 17118003/0x01053333)], work=215*
418: 0x0FA3 [0x52] END_LOAD_SCHEDULER: End scheduler "s176" with entities [EventEntity, EventEntity], work=357*
419: 0x0FB2 [0x45] LOAD_SCHEDULED_TASK: Load scheduler "s177" with entities [EventEntity, EventEntity], work=[357*, 0*]
420: 0x0FC3 [0x5B] LOAD_EXT_SCHEDULER: Load scheduler "bik0" with entities [Rahal (ID: 17117989/0x01053325), Rahal (ID: 17117989/0x01053325)], work=1437*
421: 0x0FD2 [0x2B] Rahal (ID: 17117989/0x01053325) [7910*]:
    → "Wh-what!? Surely you jest!"
422: 0x0FD9 [0x23] WAIT_FOR_DIALOG_INTERACTION
423: 0x0FDA [0x5B] LOAD_EXT_SCHEDULER: Load scheduler "bik1" with entities [Rahal (ID: 17117989/0x01053325), Rahal (ID: 17117989/0x01053325)], work=1437*
424: 0x0FE9 [0x52] END_LOAD_SCHEDULER: End scheduler "s177" with entities [EventEntity, EventEntity], work=357*
425: 0x0FF8 [0x45] LOAD_SCHEDULED_TASK: Load scheduler "s178" with entities [EventEntity, EventEntity], work=[357*, 0*]
426: 0x1009 [0x4E] SET_ENTITY_HIDE_FLAG: Hide Leadavox (ID: 17118003/0x01053333)
427: 0x100F [0x1C] WAIT(120* ticks)
428: 0x1012 [0x2B] Rahal (ID: 17117989/0x01053325) [7911*]:
    → "Hey, Excenmille!"
429: 0x1019 [0x23] WAIT_FOR_DIALOG_INTERACTION
430: 0x101A [0x52] END_LOAD_SCHEDULER: End scheduler "s178" with entities [EventEntity, EventEntity], work=357*
431: 0x1029 [0x4A] Excenmille (ID: 17117992/0x01053328) looks at Rahal (ID: 17117989/0x01053325)
432: 0x1032 [0x7B] Excenmille (ID: 17117992/0x01053328) stops talking
433: 0x1037 [0x45] LOAD_SCHEDULED_TASK: Load scheduler "s179" with entities [EventEntity, EventEntity], work=[357*, 0*]
434: 0x1048 [0xBA] SET_ENTITY_POSITION(entity_id=Rahal (ID: 17117989/0x01053325), pos_x=-22.356*, pos_z=327.288*, pos_y=-32.898*, direction=106.4°*)
435: 0x1055 [0x03] Work_Zone[37] = 4294947426*
436: 0x105A [0x03] Work_Zone[38] = 313652*
437: 0x105F [0x03] Work_Zone[39] = 4294934398*
438: 0x1064 [0x03] Work_Zone[40] = 357*
439: 0x1069 [0x27] REQ_SET(priority=0x0F, entity_id=Rahal (ID: 17117989/0x01053325), tag_num=0x04)
440: 0x1070 [0x1C] WAIT(30* ticks)
441: 0x1073 [0xBA] SET_ENTITY_POSITION(entity_id=LocalPlayer, pos_x=-19.560*, pos_z=326.229*, pos_y=-32.898*, direction=31.4°*)
442: 0x1080 [0x03] Work_Zone[37] = 4294948839*
443: 0x1085 [0x03] Work_Zone[38] = 315439*
444: 0x108A [0x03] Work_Zone[39] = 4294934398*
445: 0x108F [0x03] Work_Zone[40] = 356*
446: 0x1094 [0x27] REQ_SET(priority=0x0F, entity_id=LocalPlayer, tag_num=0x05)
447: 0x109B [0x55] WAIT_LOAD_SCHEDULER: Wait for scheduler "s179" with entities [EventEntity, EventEntity], work=357*
448: 0x10AA [0x4B] UPDATE_ENTITY_YAW(entity=Excenmille (ID: 17117992/0x01053328), yaw=15.0°*)
449: 0x10B1 [0x45] LOAD_SCHEDULED_TASK: Load scheduler "s180" with entities [EventEntity, EventEntity], work=[357*, 0*]
450: 0x10C2 [0x6F] WAIT_FRAME_DELAY: Yield until WaitTime reaches zero
451: 0x10C3 [0x76] CHECK_ENTITY_RENDER_FLAGS: Wait until Excenmille (ID: 17117992/0x01053328) Render.Flags0 and Render.Flags3 conditions are met
452: 0x10C8 [0x2A] GET_REQ_LEVEL(level=15, entity_id=Rahal (ID: 17117989/0x01053325))
453: 0x10CE [0x4A] Rahal (ID: 17117989/0x01053325) looks at Excenmille (ID: 17117992/0x01053328)
454: 0x10D7 [0x7B] Rahal (ID: 17117989/0x01053325) stops talking
455: 0x10DC [0x2A] GET_REQ_LEVEL(level=15, entity_id=Rahal (ID: 17117989/0x01053325))
456: 0x10E2 [0x4A] LocalPlayer looks at Excenmille (ID: 17117992/0x01053328)
457: 0x10EB [0x7B] LocalPlayer stops talking
458: 0x10F0 [0x5B] LOAD_EXT_SCHEDULER: Load scheduler "tla0" with entities [Excenmille (ID: 17117992/0x01053328), Excenmille (ID: 17117992/0x01053328)], work=1272*
459: 0x10FF [0x2B] Excenmille (ID: 17117992/0x01053328) [7912*]:
    → "Oh, Rahal. And you're here too, <Player>?"
460: 0x1106 [0x23] WAIT_FOR_DIALOG_INTERACTION
461: 0x1107 [0x5B] LOAD_EXT_SCHEDULER: Load scheduler "tla1" with entities [Excenmille (ID: 17117992/0x01053328), Excenmille (ID: 17117992/0x01053328)], work=1272*
462: 0x1116 [0x52] END_LOAD_SCHEDULER: End scheduler "s180" with entities [EventEntity, EventEntity], work=357*
463: 0x1125 [0x45] LOAD_SCHEDULED_TASK: Load scheduler "s181" with entities [EventEntity, EventEntity], work=[357*, 0*]
464: 0x1136 [0x5B] LOAD_EXT_SCHEDULER: Load scheduler "tla0" with entities [Rahal (ID: 17117989/0x01053325), Rahal (ID: 17117989/0x01053325)], work=1272*
465: 0x1145 [0x2B] Rahal (ID: 17117989/0x01053325) [7913*]:
    → "It appears you are victorious, thanks to your incredible "feat" in moving the whole of Vana'diel."
466: 0x114C [0x23] WAIT_FOR_DIALOG_INTERACTION
467: 0x114D [0x5B] LOAD_EXT_SCHEDULER: Load scheduler "tla1" with entities [Rahal (ID: 17117989/0x01053325), Rahal (ID: 17117989/0x01053325)], work=1272*
468: 0x115C [0x52] END_LOAD_SCHEDULER: End scheduler "s181" with entities [EventEntity, EventEntity], work=357*
469: 0x116B [0x45] LOAD_SCHEDULED_TASK: Load scheduler "s182" with entities [EventEntity, EventEntity], work=[357*, 0*]
470: 0x117C [0x5B] LOAD_EXT_SCHEDULER: Load scheduler "tlb0" with entities [Excenmille (ID: 17117992/0x01053328), Excenmille (ID: 17117992/0x01053328)], work=1272*
471: 0x118B [0x2B] Excenmille (ID: 17117992/0x01053328) [7914*]:
    → "Oh. That is rather...unexpected."
472: 0x1192 [0x23] WAIT_FOR_DIALOG_INTERACTION
473: 0x1193 [0x5B] LOAD_EXT_SCHEDULER: Load scheduler "tlb1" with entities [Excenmille (ID: 17117992/0x01053328), Excenmille (ID: 17117992/0x01053328)], work=1272*
474: 0x11A2 [0x52] END_LOAD_SCHEDULER: End scheduler "s182" with entities [EventEntity, EventEntity], work=357*
475: 0x11B1 [0x45] LOAD_SCHEDULED_TASK: Load scheduler "s165" with entities [EventEntity, EventEntity], work=[357*, 0*]
476: 0x11C2 [0x2B] Klythios (ID: 17118002/0x01053332) [7915*]:
    → "Uguuu...ugguguuu."
477: 0x11C9 [0x23] WAIT_FOR_DIALOG_INTERACTION
478: 0x11CA [0x4A] Excenmille (ID: 17117992/0x01053328) looks at Unnamed NPC (ID: 17118005/0x01053335)
479: 0x11D3 [0x4A] Rahal (ID: 17117989/0x01053325) looks at Unnamed NPC (ID: 17118005/0x01053335)
480: 0x11DC [0x4A] LocalPlayer looks at Unnamed NPC (ID: 17118005/0x01053335)
481: 0x11E5 [0x7B] Excenmille (ID: 17117992/0x01053328) stops talking
482: 0x11EA [0x7B] Rahal (ID: 17117989/0x01053325) stops talking
483: 0x11EF [0x7B] Klythios (ID: 17118002/0x01053332) stops talking
484: 0x11F4 [0x52] END_LOAD_SCHEDULER: End scheduler "s165" with entities [EventEntity, EventEntity], work=357*
485: 0x1203 [0x45] LOAD_SCHEDULED_TASK: Load scheduler "s184" with entities [EventEntity, EventEntity], work=[357*, 0*]
486: 0x1214 [0x6F] WAIT_FRAME_DELAY: Yield until WaitTime reaches zero
487: 0x1215 [0x76] CHECK_ENTITY_RENDER_FLAGS: Wait until Excenmille (ID: 17117992/0x01053328) Render.Flags0 and Render.Flags3 conditions are met
488: 0x121A [0x5B] LOAD_EXT_SCHEDULER: Load scheduler "tla0" with entities [Excenmille (ID: 17117992/0x01053328), Excenmille (ID: 17117992/0x01053328)], work=1272*
489: 0x1229 [0x2B] Excenmille (ID: 17117992/0x01053328) [7916*]:
    → "Is something amiss, Klythios? Did you injure yourself when you fell?"
490: 0x1230 [0x23] WAIT_FOR_DIALOG_INTERACTION
491: 0x1231 [0x5B] LOAD_EXT_SCHEDULER: Load scheduler "tla1" with entities [Excenmille (ID: 17117992/0x01053328), Excenmille (ID: 17117992/0x01053328)], work=1272*
492: 0x1240 [0x52] END_LOAD_SCHEDULER: End scheduler "s184" with entities [EventEntity, EventEntity], work=357*
493: 0x124F [0x45] LOAD_SCHEDULED_TASK: Load scheduler "s185" with entities [EventEntity, EventEntity], work=[357*, 0*]
494: 0x1260 [0x5B] LOAD_EXT_SCHEDULER: Load scheduler "thb0" with entities [Excenmille (ID: 17117992/0x01053328), Excenmille (ID: 17117992/0x01053328)], work=1273*
495: 0x126F [0x1C] WAIT(180* ticks)
496: 0x1272 [0x5B] LOAD_EXT_SCHEDULER: Load scheduler "thb1" with entities [Excenmille (ID: 17117992/0x01053328), Excenmille (ID: 17117992/0x01053328)], work=1273*
497: 0x1281 [0x1C] WAIT(120* ticks)
498: 0x1284 [0x4A] Excenmille (ID: 17117992/0x01053328) looks at LocalPlayer
499: 0x128D [0x4A] LocalPlayer looks at Excenmille (ID: 17117992/0x01053328)
500: 0x1296 [0x52] END_LOAD_SCHEDULER: End scheduler "s185" with entities [EventEntity, EventEntity], work=357*
501: 0x12A5 [0x45] LOAD_SCHEDULED_TASK: Load scheduler "s186" with entities [EventEntity, EventEntity], work=[357*, 0*]
502: 0x12B6 [0x7B] Excenmille (ID: 17117992/0x01053328) stops talking
503: 0x12BB [0x7B] LocalPlayer stops talking
504: 0x12C0 [0x6F] WAIT_FRAME_DELAY: Yield until WaitTime reaches zero
505: 0x12C1 [0x76] CHECK_ENTITY_RENDER_FLAGS: Wait until Excenmille (ID: 17117992/0x01053328) Render.Flags0 and Render.Flags3 conditions are met
506: 0x12C6 [0x5B] LOAD_EXT_SCHEDULER: Load scheduler "mei0" with entities [Excenmille (ID: 17117992/0x01053328), Excenmille (ID: 17117992/0x01053328)], work=1407*
507: 0x12D5 [0x2B] Excenmille (ID: 17117992/0x01053328) [7917*]:
    → "<Player>!"
508: 0x12DC [0x23] WAIT_FOR_DIALOG_INTERACTION
509: 0x12DD [0x2B] Excenmille (ID: 17117992/0x01053328) [7918*]:
    → "I am assigning you an emergency mission."
510: 0x12E4 [0x23] WAIT_FOR_DIALOG_INTERACTION
511: 0x12E5 [0x5B] LOAD_EXT_SCHEDULER: Load scheduler "mei1" with entities [Excenmille (ID: 17117992/0x01053328), Excenmille (ID: 17117992/0x01053328)], work=1407*
512: 0x12F4 [0x1C] WAIT(90* ticks)
513: 0x12F7 [0x4A] Excenmille (ID: 17117992/0x01053328) looks at Rahal (ID: 17117989/0x01053325)
514: 0x1300 [0x4A] Rahal (ID: 17117989/0x01053325) looks at Excenmille (ID: 17117992/0x01053328)
515: 0x1309 [0x52] END_LOAD_SCHEDULER: End scheduler "s186" with entities [EventEntity, EventEntity], work=357*
516: 0x1318 [0x45] LOAD_SCHEDULED_TASK: Load scheduler "s187" with entities [EventEntity, EventEntity], work=[357*, 0*]
517: 0x1329 [0x7B] Rahal (ID: 17117989/0x01053325) stops talking
518: 0x132E [0x7B] Excenmille (ID: 17117992/0x01053328) stops talking
519: 0x1333 [0x6F] WAIT_FRAME_DELAY: Yield until WaitTime reaches zero
520: 0x1334 [0x76] CHECK_ENTITY_RENDER_FLAGS: Wait until Excenmille (ID: 17117992/0x01053328) Render.Flags0 and Render.Flags3 conditions are met
521: 0x1339 [0x5B] LOAD_EXT_SCHEDULER: Load scheduler "tla0" with entities [Excenmille (ID: 17117992/0x01053328), Excenmille (ID: 17117992/0x01053328)], work=1272*
522: 0x1348 [0x2B] Excenmille (ID: 17117992/0x01053328) [7919*]:
    → "Lieutenant Rahal, do you recall the time when Bistillot told us about remedial herbs?"
523: 0x134F [0x23] WAIT_FOR_DIALOG_INTERACTION
524: 0x1350 [0x5B] LOAD_EXT_SCHEDULER: Load scheduler "tla1" with entities [Excenmille (ID: 17117992/0x01053328), Excenmille (ID: 17117992/0x01053328)], work=1272*
525: 0x135F [0x52] END_LOAD_SCHEDULER: End scheduler "s187" with entities [EventEntity, EventEntity], work=357*
526: 0x136E [0x45] LOAD_SCHEDULED_TASK: Load scheduler "s188" with entities [EventEntity, EventEntity], work=[357*, 0*]
527: 0x137F [0x5B] LOAD_EXT_SCHEDULER: Load scheduler "tla0" with entities [Rahal (ID: 17117989/0x01053325), Rahal (ID: 17117989/0x01053325)], work=1272*
528: 0x138E [0x2B] Rahal (ID: 17117989/0x01053325) [7920*]:
    → "Yes, the quick-acting remedial herbs that are found only on Vunkerl Inlet..."
529: 0x1395 [0x23] WAIT_FOR_DIALOG_INTERACTION
530: 0x1396 [0x2B] Rahal (ID: 17117989/0x01053325) [7921*]:
    → "If I remember correctly, the leaves of this particular species of herbs are known to change color depending on the time of day."
531: 0x139D [0x23] WAIT_FOR_DIALOG_INTERACTION
532: 0x139E [0x52] END_LOAD_SCHEDULER: End scheduler "s188" with entities [EventEntity, EventEntity], work=357*
533: 0x13AD [0x45] LOAD_SCHEDULED_TASK: Load scheduler "s189" with entities [EventEntity, EventEntity], work=[357*, 0*]
534: 0x13BE [0x7C] Excenmille (ID: 17117992/0x01053328)->Render.Flags2 |= 0x00
535: 0x13C4 [0x81] SET_ENTITY_BLINKING(blink_flag=0x00, entity=Excenmille (ID: 17117992/0x01053328))
536: 0x13CA [0x53] WAIT_SCHEDULER_TASK: Wait for scheduler "tla1" with entities [Excenmille (ID: 17117992/0x01053328), Excenmille (ID: 17117992/0x01053328)]
537: 0x13D7 [0x5B] LOAD_EXT_SCHEDULER: Load scheduler "fd00" with entities [Excenmille (ID: 17117992/0x01053328), Excenmille (ID: 17117992/0x01053328)], work=1299*
538: 0x13E6 [0x2B] Rahal (ID: 17117989/0x01053325) [7922*]:
    → "How fortunate! I have Bistillot's notes concerning these herbs in my possession."
539: 0x13ED [0x23] WAIT_FOR_DIALOG_INTERACTION
540: 0x13EE [0x5B] LOAD_EXT_SCHEDULER: Load scheduler "tla1" with entities [Rahal (ID: 17117989/0x01053325), Rahal (ID: 17117989/0x01053325)], work=1272*
541: 0x13FD [0x52] END_LOAD_SCHEDULER: End scheduler "s189" with entities [EventEntity, EventEntity], work=357*
542: 0x140C [0x45] LOAD_SCHEDULED_TASK: Load scheduler "s190" with entities [EventEntity, EventEntity], work=[357*, 0*]
543: 0x141D [0x5B] LOAD_EXT_SCHEDULER: Load scheduler "fd01" with entities [Excenmille (ID: 17117992/0x01053328), Excenmille (ID: 17117992/0x01053328)], work=1299*
544: 0x142C [0x5B] LOAD_EXT_SCHEDULER: Load scheduler "tla0" with entities [Excenmille (ID: 17117992/0x01053328), Excenmille (ID: 17117992/0x01053328)], work=1272*
545: 0x143B [0x2B] Excenmille (ID: 17117992/0x01053328) [7923*]:
    → "Good work, Lieutenant. I shall take it from here."
546: 0x1442 [0x23] WAIT_FOR_DIALOG_INTERACTION
547: 0x1443 [0x53] WAIT_SCHEDULER_TASK: Wait for scheduler "tla0" with entities [Excenmille (ID: 17117992/0x01053328), Excenmille (ID: 17117992/0x01053328)]
548: 0x1450 [0x5B] LOAD_EXT_SCHEDULER: Load scheduler "f000" with entities [Excenmille (ID: 17117992/0x01053328), Excenmille (ID: 17117992/0x01053328)], work=1299*
549: 0x145F [0x5B] LOAD_EXT_SCHEDULER: Load scheduler "tla1" with entities [Excenmille (ID: 17117992/0x01053328), Excenmille (ID: 17117992/0x01053328)], work=1272*
550: 0x146E [0x7C] Excenmille (ID: 17117992/0x01053328)->Render.Flags2 |= 0x01
551: 0x1474 [0x81] SET_ENTITY_BLINKING(blink_flag=0x01, entity=Excenmille (ID: 17117992/0x01053328))
552: 0x147A [0x52] END_LOAD_SCHEDULER: End scheduler "s190" with entities [EventEntity, EventEntity], work=357*
553: 0x1489 [0x45] LOAD_SCHEDULED_TASK: Load scheduler "s191" with entities [EventEntity, EventEntity], work=[357*, 0*]
554: 0x149A [0x48] [System] [7924*]:
    → ""Vunkerl herb memo." 00:00`07:59 San d'Oria 08:00`15:59 Bastok 16:00`23:59 Windurst"
555: 0x149D [0x23] WAIT_FOR_DIALOG_INTERACTION
556: 0x149E [0x55] WAIT_LOAD_SCHEDULER: Wait for scheduler "s191" with entities [EventEntity, EventEntity], work=357*
557: 0x14AD [0x4A] Excenmille (ID: 17117992/0x01053328) looks at LocalPlayer
558: 0x14B6 [0x45] LOAD_SCHEDULED_TASK: Load scheduler "s192" with entities [EventEntity, EventEntity], work=[357*, 0*]
559: 0x14C7 [0x7B] Excenmille (ID: 17117992/0x01053328) stops talking
560: 0x14CC [0x6F] WAIT_FRAME_DELAY: Yield until WaitTime reaches zero
561: 0x14CD [0x76] CHECK_ENTITY_RENDER_FLAGS: Wait until Excenmille (ID: 17117992/0x01053328) Render.Flags0 and Render.Flags3 conditions are met
562: 0x14D2 [0x5B] LOAD_EXT_SCHEDULER: Load scheduler "tla0" with entities [Excenmille (ID: 17117992/0x01053328), Excenmille (ID: 17117992/0x01053328)], work=1272*
563: 0x14E1 [0x2B] Excenmille (ID: 17117992/0x01053328) [7925*]:
    → "The numbers on the left signify the time of day, while the words on the right refer to..."
564: 0x14E8 [0x23] WAIT_FOR_DIALOG_INTERACTION
565: 0x14E9 [0x5B] LOAD_EXT_SCHEDULER: Load scheduler "tla1" with entities [Excenmille (ID: 17117992/0x01053328), Excenmille (ID: 17117992/0x01053328)], work=1272*
566: 0x14F8 [0x1C] WAIT(90* ticks)
567: 0x14FB [0x5B] LOAD_EXT_SCHEDULER: Load scheduler "thb0" with entities [Excenmille (ID: 17117992/0x01053328), Excenmille (ID: 17117992/0x01053328)], work=1273*
568: 0x150A [0x1C] WAIT(180* ticks)
569: 0x150D [0x2B] Excenmille (ID: 17117992/0x01053328) [7926*]:
    → "......"
570: 0x1514 [0x23] WAIT_FOR_DIALOG_INTERACTION
571: 0x1515 [0x5B] LOAD_EXT_SCHEDULER: Load scheduler "thb1" with entities [Excenmille (ID: 17117992/0x01053328), Excenmille (ID: 17117992/0x01053328)], work=1273*
572: 0x1524 [0x1C] WAIT(90* ticks)
573: 0x1527 [0x4A] Rahal (ID: 17117989/0x01053325) looks at LocalPlayer
574: 0x1530 [0x52] END_LOAD_SCHEDULER: End scheduler "s192" with entities [EventEntity, EventEntity], work=357*
575: 0x153F [0x45] LOAD_SCHEDULED_TASK: Load scheduler "s194" with entities [EventEntity, EventEntity], work=[357*, 0*]
576: 0x1550 [0x7B] Rahal (ID: 17117989/0x01053325) stops talking
577: 0x1555 [0x5B] LOAD_EXT_SCHEDULER: Load scheduler "mei0" with entities [Excenmille (ID: 17117992/0x01053328), Excenmille (ID: 17117992/0x01053328)], work=1407*
578: 0x1564 [0x2B] Excenmille (ID: 17117992/0x01053328) [7927*]:
    → "W-well, what are you waiting for, <Player>!?"
579: 0x156B [0x23] WAIT_FOR_DIALOG_INTERACTION
580: 0x156C [0x2B] Excenmille (ID: 17117992/0x01053328) [7928*]:
    → "Go gather the herb and return here, posthaste!"
581: 0x1573 [0x23] WAIT_FOR_DIALOG_INTERACTION
582: 0x1574 [0x5B] LOAD_EXT_SCHEDULER: Load scheduler "mei1" with entities [Excenmille (ID: 17117992/0x01053328), Excenmille (ID: 17117992/0x01053328)], work=1407*
583: 0x1583 [0x52] END_LOAD_SCHEDULER: End scheduler "s194" with entities [EventEntity, EventEntity], work=357*
584: 0x1592 [0x45] LOAD_SCHEDULED_TASK: Load scheduler "s196" with entities [EventEntity, EventEntity], work=[357*, 0*]
585: 0x15A3 [0x6E] LocalPlayer uses emote 22*
586: 0x15AA [0x99] Wait for LocalPlayer animation to complete
587: 0x15AF [0x1C] WAIT(120* ticks)
588: 0x15B2 [0x52] END_LOAD_SCHEDULER: End scheduler "s196" with entities [EventEntity, EventEntity], work=357*
589: 0x15C1 [0x45] LOAD_SCHEDULED_TASK: Load scheduler "s195" with entities [EventEntity, EventEntity], work=[357*, 0*]
590: 0x15D2 [0x5B] LOAD_EXT_SCHEDULER: Load scheduler "tla0" with entities [Excenmille (ID: 17117992/0x01053328), Excenmille (ID: 17117992/0x01053328)], work=1272*
591: 0x15E1 [0x2B] Excenmille (ID: 17117992/0x01053328) [7929*]:
    → "What? The words on the right side of the note? Th-the meaning is perfectly clear, so work it out for yourself, soldier!"
