# 17117986

## Common Data

| Field            | Value                      |
|------------------|----------------------------|
| Zone             | Vunkerl Inlet [S] (ID: 83) |
| Block Size       | 7532 bytes                 |
| Total Events     | 6                          |
| References Count | 268                        |

## List of Events

| Event ID              | Entrypoint   |   Size |   Instructions |
|-----------------------|--------------|--------|----------------|
| [65535](#event-65535) | 0x0000       |      1 |              1 |
| [202](#event-202)     | 0x0001       |    709 |             85 |
| [203](#event-203)     | 0x02C6       |    366 |             48 |
| [204](#event-204)     | 0x0434       |   4937 |            532 |
| [205](#event-205)     | 0x177D       |    311 |             44 |
| [206](#event-206)     | 0x18B4       |     94 |             14 |

## DAT References (imed_data)

|   Index | Hex Value   |   Dec Value |
|---------|-------------|-------------|
|       0 | 0x0013      |          19 |
|       1 | 0x23338     |      144184 |
|       2 | 0x1B968     |      113000 |
|       3 | 0xFFFF85F2  |  4294936050 |
|       4 | 0x0746      |        1862 |
|       5 | 0x22A7F     |      141951 |
|       6 | 0x1B9D4     |      113108 |
|       7 | 0xFFFF8631  |  4294936113 |
|       8 | 0x0749      |        1865 |
|       9 | 0x2302B     |      143403 |
|      10 | 0x1C110     |      114960 |
|      11 | 0xFFFF860B  |  4294936075 |
|      12 | 0x074C      |        1868 |
|      13 | 0x21FEB     |      139243 |
|      14 | 0x1B2D6     |      111318 |
|      15 | 0xFFFF863D  |  4294936125 |
|      16 | 0x074A      |        1866 |
|      17 | 0x0006      |           6 |
|      18 | 0x21846     |      137286 |
|      19 | 0x1B255     |      111189 |
|      20 | 0xFFFF8620  |  4294936096 |
|      21 | 0x06DC      |        1756 |
|      22 | 0x21CD9     |      138457 |
|      23 | 0x1B9AA     |      113066 |
|      24 | 0xFFFF8669  |  4294936169 |
|      25 | 0x067B      |        1659 |
|      26 | 0x0196      |         406 |
|      27 | 0x0000      |           0 |
|      28 | 0x00C8      |         200 |
|      29 | 0x04F9      |        1273 |
|      30 | 0x1E86      |        7814 |
|      31 | 0x1E87      |        7815 |
|      32 | 0x098B      |        2443 |
|      33 | 0x1E88      |        7816 |
|      34 | 0x0197      |         407 |
|      35 | 0x1E89      |        7817 |
|      36 | 0x1E8A      |        7818 |
|      37 | 0x1E8B      |        7819 |
|      38 | 0xFFFA2288  |  4294582920 |
|      39 | 0xFFFF65CF  |  4294927823 |
|      40 | 0xFFFF8604  |  4294936068 |
|      41 | 0x02CB      |         715 |
|      42 | 0xFFFA1CDD  |  4294581469 |
|      43 | 0xFFFF5DE2  |  4294925794 |
|      44 | 0xFFFF85F3  |  4294936051 |
|      45 | 0x0117      |         279 |
|      46 | 0xFFFA299C  |  4294584732 |
|      47 | 0xFFFF61E7  |  4294926823 |
|      48 | 0xFFFF866A  |  4294936170 |
|      49 | 0x0368      |         872 |
|      50 | 0x005A      |          90 |
|      51 | 0x0078      |         120 |
|      52 | 0x1E8C      |        7820 |
|      53 | 0x1E8D      |        7821 |
|      54 | 0x003C      |          60 |
|      55 | 0xFFFB27C5  |  4294649797 |
|      56 | 0xFFF570FE  |  4294275326 |
|      57 | 0xFFFF658D  |  4294927757 |
|      58 | 0x0CB5      |        3253 |
|      59 | 0xFFFB31EA  |  4294652394 |
|      60 | 0xFFF575A6  |  4294276518 |
|      61 | 0xFFFF656E  |  4294927726 |
|      62 | 0x08EC      |        2284 |
|      63 | 0xFFFB298F  |  4294650255 |
|      64 | 0xFFF579B4  |  4294277556 |
|      65 | 0xFFFF6520  |  4294927648 |
|      66 | 0x1187      |        4487 |
|      67 | 0x0BB8      |        3000 |
|      68 | 0x1E8E      |        7822 |
|      69 | 0x000F      |          15 |
|      70 | 0xFFFB2314  |  4294648596 |
|      71 | 0xFFF57C3A  |  4294278202 |
|      72 | 0xFFFF64DC  |  4294927580 |
|      73 | 0x0070      |         112 |
|      74 | 0x1E8F      |        7823 |
|      75 | 0x1E90      |        7824 |
|      76 | 0x0072      |         114 |
|      77 | 0x1E91      |        7825 |
|      78 | 0x1E92      |        7826 |
|      79 | 0xFFFB2C4C  |  4294650956 |
|      80 | 0xFFF5770B  |  4294276875 |
|      81 | 0xFFFF6553  |  4294927699 |
|      82 | 0x093A      |        2362 |
|      83 | 0x04F8      |        1272 |
|      84 | 0x1E93      |        7827 |
|      85 | 0x1E94      |        7828 |
|      86 | 0x1E95      |        7829 |
|      87 | 0x1E96      |        7830 |
|      88 | 0xFFFB4AA1  |  4294658721 |
|      89 | 0xFFF5AE2C  |  4294290988 |
|      90 | 0xFFFF65A0  |  4294927776 |
|      91 | 0x0834      |        2100 |
|      92 | 0xFFFB47F9  |  4294658041 |
|      93 | 0xFFF5B29C  |  4294292124 |
|      94 | 0xFFFF65E7  |  4294927847 |
|      95 | 0x09E8      |        2536 |
|      96 | 0xFFFB4C4B  |  4294659147 |
|      97 | 0xFFF5B2EA  |  4294292202 |
|      98 | 0xFFFF663C  |  4294927932 |
|      99 | 0x09C1      |        2497 |
|     100 | 0xFFFB4F47  |  4294659911 |
|     101 | 0xFFF5AF74  |  4294291316 |
|     102 | 0xFFFF65FF  |  4294927871 |
|     103 | 0x0835      |        2101 |
|     104 | 0xFFFB156D  |  4294645101 |
|     105 | 0xFFF5BCA4  |  4294294692 |
|     106 | 0xFFFF645A  |  4294927450 |
|     107 | 0x01A7      |         423 |
|     108 | 0x098A      |        2442 |
|     109 | 0xFFFB84A7  |  4294673575 |
|     110 | 0xFFF53977  |  4294261111 |
|     111 | 0xFFFF6728  |  4294928168 |
|     112 | 0x05E5      |        1509 |
|     113 | 0xFFFAE813  |  4294633491 |
|     114 | 0xFFF5DEEB  |  4294303467 |
|     115 | 0xFFFF6724  |  4294928164 |
|     116 | 0x0163      |         355 |
|     117 | 0xFFFB2F0F  |  4294651663 |
|     118 | 0xFFF5AB4D  |  4294290253 |
|     119 | 0xFFFF646E  |  4294927470 |
|     120 | 0x09FA      |        2554 |
|     121 | 0xFFFB33DC  |  4294652892 |
|     122 | 0xFFF579E3  |  4294277603 |
|     123 | 0xFFFF6531  |  4294927665 |
|     124 | 0x0DC9      |        3529 |
|     125 | 0xFFFB3C8E  |  4294655118 |
|     126 | 0xFFF57EA1  |  4294278817 |
|     127 | 0xFFFF64D0  |  4294927568 |
|     128 | 0x0883      |        2179 |
|     129 | 0xFFFB26C5  |  4294649541 |
|     130 | 0xFFF5A093  |  4294287507 |
|     131 | 0xFFFF63C0  |  4294927296 |
|     132 | 0xFFFB20CE  |  4294648014 |
|     133 | 0xFFF57536  |  4294276406 |
|     134 | 0xFFFF6529  |  4294927657 |
|     135 | 0x0C32      |        3122 |
|     136 | 0x0A21      |        2593 |
|     137 | 0x0168      |         360 |
|     138 | 0x1E97      |        7831 |
|     139 | 0x007D      |         125 |
|     140 | 0x0068      |         104 |
|     141 | 0x0944      |        2372 |
|     142 | 0x1E98      |        7832 |
|     143 | 0x00E1      |         225 |
|     144 | 0x1E99      |        7833 |
|     145 | 0x1E9A      |        7834 |
|     146 | 0x0588      |        1416 |
|     147 | 0x1E9B      |        7835 |
|     148 | 0x0A22      |        2594 |
|     149 | 0x1E9C      |        7836 |
|     150 | 0x0589      |        1417 |
|     151 | 0x1E9D      |        7837 |
|     152 | 0xFFFB47FA  |  4294658042 |
|     153 | 0xFFF5884E  |  4294281294 |
|     154 | 0xFFFF6564  |  4294927716 |
|     155 | 0x0A64      |        2660 |
|     156 | 0x1E9E      |        7838 |
|     157 | 0x00F0      |         240 |
|     158 | 0xFFFB37CB  |  4294653899 |
|     159 | 0xFFF59E92  |  4294286994 |
|     160 | 0xFFFF63B7  |  4294927287 |
|     161 | 0x0A68      |        2664 |
|     162 | 0x1E9F      |        7839 |
|     163 | 0x1EA0      |        7840 |
|     164 | 0x0077      |         119 |
|     165 | 0x1EA1      |        7841 |
|     166 | 0x001E      |          30 |
|     167 | 0x1EA2      |        7842 |
|     168 | 0x1EA3      |        7843 |
|     169 | 0x1EA4      |        7844 |
|     170 | 0x1EA5      |        7845 |
|     171 | 0xFFFB01E0  |  4294640096 |
|     172 | 0xFFF59EAA  |  4294287018 |
|     173 | 0xFFFF644E  |  4294927438 |
|     174 | 0x0F47      |        3911 |
|     175 | 0xFFFAFEB1  |  4294639281 |
|     176 | 0xFFF5A26F  |  4294287983 |
|     177 | 0xFFFF64AE  |  4294927534 |
|     178 | 0x00C2      |         194 |
|     179 | 0xFFFAFCA5  |  4294638757 |
|     180 | 0xFFF59D0C  |  4294286604 |
|     181 | 0xFFFF647B  |  4294927483 |
|     182 | 0x0F88      |        3976 |
|     183 | 0xFFFAF9EE  |  4294638062 |
|     184 | 0xFFF5A13E  |  4294287678 |
|     185 | 0xFFFF64C9  |  4294927561 |
|     186 | 0x0181      |         385 |
|     187 | 0x0050      |          80 |
|     188 | 0x00A0      |         160 |
|     189 | 0x1EA6      |        7846 |
|     190 | 0x1EA7      |        7847 |
|     191 | 0x1EA8      |        7848 |
|     192 | 0x092D      |        2349 |
|     193 | 0x1EA9      |        7849 |
|     194 | 0x1EAA      |        7850 |
|     195 | 0x1EAB      |        7851 |
|     196 | 0x1EAC      |        7852 |
|     197 | 0x1EAD      |        7853 |
|     198 | 0x1EAE      |        7854 |
|     199 | 0x1EAF      |        7855 |
|     200 | 0x1EB0      |        7856 |
|     201 | 0x1EB1      |        7857 |
|     202 | 0x1EB2      |        7858 |
|     203 | 0x098C      |        2444 |
|     204 | 0xFFFB1EE8  |  4294647528 |
|     205 | 0xFFF59986  |  4294285702 |
|     206 | 0x05AB      |        1451 |
|     207 | 0xFFFB2B67  |  4294650727 |
|     208 | 0xFFF5A7F8  |  4294289400 |
|     209 | 0xFFFF643B  |  4294927419 |
|     210 | 0x06A4      |        1700 |
|     211 | 0xFFFB389D  |  4294654109 |
|     212 | 0xFFF5A3B0  |  4294288304 |
|     213 | 0xFFFF6403  |  4294927363 |
|     214 | 0x0667      |        1639 |
|     215 | 0xFFFB354C  |  4294653260 |
|     216 | 0xFFF5966C  |  4294284908 |
|     217 | 0x0690      |        1680 |
|     218 | 0x1EB3      |        7859 |
|     219 | 0x00F7      |         247 |
|     220 | 0x059D      |        1437 |
|     221 | 0x1EB4      |        7860 |
|     222 | 0xFFFB235C  |  4294648668 |
|     223 | 0xFFF58BD6  |  4294282198 |
|     224 | 0xFFFF640A  |  4294927370 |
|     225 | 0x06A2      |        1698 |
|     226 | 0xFFFB4026  |  4294656038 |
|     227 | 0xFFF5B20C  |  4294291980 |
|     228 | 0xFFFF6544  |  4294927684 |
|     229 | 0x0679      |        1657 |
|     230 | 0x057F      |        1407 |
|     231 | 0x1EB5      |        7861 |
|     232 | 0x0007      |           7 |
|     233 | 0xFFFACDAE  |  4294626734 |
|     234 | 0xFFF5631F  |  4294271775 |
|     235 | 0xFFFF64A0  |  4294927520 |
|     236 | 0x0158      |         344 |
|     237 | 0xFFFACB74  |  4294626164 |
|     238 | 0xFFF586CF  |  4294280911 |
|     239 | 0xFFFF6714  |  4294928148 |
|     240 | 0x00B5      |         181 |
|     241 | 0xFFFACE5A  |  4294626906 |
|     242 | 0xFFF5BE58  |  4294295128 |
|     243 | 0xFFFF6694  |  4294928020 |
|     244 | 0x0A65      |        2661 |
|     245 | 0x1EB6      |        7862 |
|     246 | 0xFFFB768C  |  4294669964 |
|     247 | 0xFFF51CF7  |  4294253815 |
|     248 | 0xFFFF65FE  |  4294927870 |
|     249 | 0x012D      |         301 |
|     250 | 0xFFFB92CA  |  4294677194 |
|     251 | 0xFFF50E94  |  4294250132 |
|     252 | 0xFFFF6538  |  4294927672 |
|     253 | 0xFFFBC0E2  |  4294688994 |
|     254 | 0xFFF51087  |  4294250631 |
|     255 | 0x0784      |        1924 |
|     256 | 0xFFFBA2D2  |  4294681298 |
|     257 | 0xFFF507D6  |  4294248406 |
|     258 | 0xFFFF6467  |  4294927463 |
|     259 | 0x092E      |        2350 |
|     260 | 0x00B4      |         180 |
|     261 | 0x00D7      |         215 |
|     262 | 0xFFFB6FEB  |  4294668267 |
|     263 | 0xFFF51FE6  |  4294254566 |
|     264 | 0xFFFF6650  |  4294927952 |
|     265 | 0x012E      |         302 |
|     266 | 0x0014      |          20 |
|     267 | 0x1EB7      |        7863 |

## String References

- **7863**: Make haste to the Pashhow Marshlands and seek the Knights of the Cardinal Stag.

## Events

### Event 65535

#### Metadata

| Field        | Value   |
|--------------|---------|
| Entrypoint   | 0x0000  |
| Data Size    | 1 bytes |
| Instructions | 1       |

```
      00 01 02 03 04 05 06 07  08 09 0A 0B 0C 0D 0E 0F
      -- -- -- -- -- -- -- --  -- -- -- -- -- -- -- --
0000: 00                                                .               
```

#### Opcodes

```
  0: 0x0000 [0x00] END_REQSTACK()
```

### Event 202

#### Metadata

| Field        | Value     |
|--------------|-----------|
| Entrypoint   | 0x0001    |
| Data Size    | 709 bytes |
| Instructions | 85        |

```
      00 01 02 03 04 05 06 07  08 09 0A 0B 0C 0D 0E 0F
      -- -- -- -- -- -- -- --  -- -- -- -- -- -- -- --
0000:    42 20 01 46 01 1A D0  18 38 00 80 4E 00 25 33   B .F....8..N.%3
0010: 05 01 4E 00 26 33 05 01  92 01 25 33 05 01 92 01  ..N.&3....%3....
0020: 26 33 05 01 79 00 F0 FF  FF 7F F0 FF FF 7F 94 01  &3..y...........
0030: F0 FF FF 7F 94 01 25 33  05 01 94 01 26 33 05 01  ......%3....&3..
0040: BA F0 FF FF 7F 01 80 02  80 03 80 04 80 BA 25 33  ..............%3
0050: 05 01 05 80 06 80 07 80  08 80 BA 26 33 05 01 09  ...........&3...
0060: 80 0A 80 0B 80 0C 80 80  F0 FF FF 7F 80 25 33 05  .............%3.
0070: 01 80 26 33 05 01 03 25  10 0D 80 03 26 10 0E 80  ..&3...%....&...
0080: 03 27 10 0F 80 03 28 10  10 80 27 0F F0 FF FF 7F  .'....(...'.....
0090: 06 1C 11 80 03 25 10 12  80 03 26 10 13 80 03 27  .....%....&....'
00A0: 10 14 80 03 28 10 15 80  27 0F 25 33 05 01 05 1C  ....(...'.%3....
00B0: 11 80 03 25 10 16 80 03  26 10 17 80 03 27 10 18  ...%....&....'..
00C0: 80 03 28 10 19 80 27 0F  26 33 05 01 02 45 1A 80  ..(...'.&3...E..
00D0: F8 FF FF 7F F8 FF FF 7F  73 31 39 33 1B 80 45 1C  ........s193..E.
00E0: 80 F8 FF FF 7F F8 FF FF  7F 66 64 69 32 1B 80 55  .........fdi2..U
00F0: 1A 80 F8 FF FF 7F F8 FF  FF 7F 73 31 39 33 45 1A  ..........s193E.
0100: 80 F8 FF FF 7F F8 FF FF  7F 73 31 39 34 1B 80 55  .........s194..U
0110: 1A 80 F8 FF FF 7F F8 FF  FF 7F 73 31 39 34 5B 1D  ..........s194[.
0120: 80 25 33 05 01 25 33 05  01 74 68 61 30 2B 25 33  .%3..%3..tha0+%3
0130: 05 01 1E 80 23 45 1A 80  F8 FF FF 7F F8 FF FF 7F  ....#E..........
0140: 73 31 39 35 1B 80 81 00  25 33 05 01 2B 25 33 05  s195....%3..+%3.
0150: 01 1F 80 23 5B 1D 80 25  33 05 01 25 33 05 01 74  ...#[..%3..%3..t
0160: 68 61 31 81 01 25 33 05  01 52 1A 80 F8 FF FF 7F  ha1..%3..R......
0170: F8 FF FF 7F 73 31 39 35  45 1A 80 F8 FF FF 7F F8  ....s195E.......
0180: FF FF 7F 73 31 39 36 1B  80 5B 20 80 26 33 05 01  ...s196..[ .&3..
0190: 26 33 05 01 6D 69 6D 30  2B 26 33 05 01 21 80 23  &3..mim0+&3..!.#
01A0: 55 1A 80 F8 FF FF 7F F8  FF FF 7F 73 31 39 36 45  U..........s196E
01B0: 22 80 F8 FF FF 7F F8 FF  FF 7F 6C 6F 61 64 1B 80  ".........load..
01C0: 45 1A 80 F8 FF FF 7F F8  FF FF 7F 73 31 39 37 1B  E..........s197.
01D0: 80 45 22 80 F8 FF FF 7F  F8 FF FF 7F 73 65 30 30  .E".........se00
01E0: 1B 80 55 1A 80 F8 FF FF  7F F8 FF FF 7F 73 31 39  ..U..........s19
01F0: 37 45 1A 80 F8 FF FF 7F  F8 FF FF 7F 73 31 39 38  7E..........s198
0200: 1B 80 55 1A 80 F8 FF FF  7F F8 FF FF 7F 73 31 39  ..U..........s19
0210: 38 45 1A 80 F8 FF FF 7F  F8 FF FF 7F 73 31 39 39  8E..........s199
0220: 1B 80 2B 26 33 05 01 23  80 23 2B 26 33 05 01 24  ..+&3..#.#+&3..$
0230: 80 23 4A 25 33 05 01 26  33 05 01 52 1A 80 F8 FF  .#J%3..&3..R....
0240: FF 7F F8 FF FF 7F 73 31  39 39 45 1A 80 F8 FF FF  ......s199E.....
0250: 7F F8 FF FF 7F 73 32 30  30 1B 80 7B 25 33 05 01  .....s200..{%3..
0260: 6F 76 25 33 05 01 5B 20  80 26 33 05 01 26 33 05  ov%3..[ .&3..&3.
0270: 01 6D 69 6D 31 2B 25 33  05 01 25 80 23 52 1A 80  .mim1+%3..%.#R..
0280: F8 FF FF 7F F8 FF FF 7F  73 32 30 30 45 1A 80 F8  ........s200E...
0290: FF FF 7F F8 FF FF 7F 73  32 30 31 1B 80 55 1A 80  .......s201..U..
02A0: F8 FF FF 7F F8 FF FF 7F  73 32 30 31 1A D0 18 20  ........s201... 
02B0: 00 46 00 45 1C 80 F8 FF  FF 7F F8 FF FF 7F 66 64  .F.E..........fd
02C0: 69 32 1B 80 21 00                                 i2..!.          
```

#### Opcodes

```
  0: 0x0001 [0x42] SET_CLI_EVENT_CANCEL_DATA()
  1: 0x0002 [0x20] SET_CLI_EVENT_UC_FLAG: Lock player control
  2: 0x0004 [0x46] CAMERA_CONTROL: Disable user control
  3: 0x0006 [0x1A] CALL_SUBROUTINE(address=0x18D0)
  4: 0x0009 [0x38] SET_CLIENT_EVENT_MODE(mode=19*)
  5: 0x000C [0x4E] SET_ENTITY_HIDE_FLAG: Show Rahal (ID: 17117989/0x01053325)
  6: 0x0012 [0x4E] SET_ENTITY_HIDE_FLAG: Show Cyranuce (ID: 17117990/0x01053326)
  7: 0x0018 [0x92] Rahal (ID: 17117989/0x01053325)->Render.Flags3 ^= 0x01
  8: 0x001E [0x92] Cyranuce (ID: 17117990/0x01053326)->Render.Flags3 ^= 0x01
  9: 0x0024 [0x79] LocalPlayer looks at LocalPlayer (Basic look)
 10: 0x002E [0x94] LocalPlayer->Render.Flags3 ^= 0x01
 11: 0x0034 [0x94] Rahal (ID: 17117989/0x01053325)->Render.Flags3 ^= 0x01
 12: 0x003A [0x94] Cyranuce (ID: 17117990/0x01053326)->Render.Flags3 ^= 0x01
 13: 0x0040 [0xBA] SET_ENTITY_POSITION(entity_id=LocalPlayer, pos_x=144.184*, pos_z=113.000*, pos_y=-31.246*, direction=163.6°*)
 14: 0x004D [0xBA] SET_ENTITY_POSITION(entity_id=Rahal (ID: 17117989/0x01053325), pos_x=141.951*, pos_z=113.108*, pos_y=-31.183*, direction=163.9°*)
 15: 0x005A [0xBA] SET_ENTITY_POSITION(entity_id=Cyranuce (ID: 17117990/0x01053326), pos_x=143.403*, pos_z=114.960*, pos_y=-31.221*, direction=164.2°*)
 16: 0x0067 [0x80] LOAD_WAIT(entity=LocalPlayer)
 17: 0x006C [0x80] LOAD_WAIT(entity=Rahal (ID: 17117989/0x01053325))
 18: 0x0071 [0x80] LOAD_WAIT(entity=Cyranuce (ID: 17117990/0x01053326))
 19: 0x0076 [0x03] Work_Zone[37] = 139243*
 20: 0x007B [0x03] Work_Zone[38] = 111318*
 21: 0x0080 [0x03] Work_Zone[39] = 4294936125*
 22: 0x0085 [0x03] Work_Zone[40] = 1866*
 23: 0x008A [0x27] REQ_SET(priority=0x0F, entity_id=LocalPlayer, tag_num=0x06)
 24: 0x0091 [0x1C] WAIT(6* ticks)
 25: 0x0094 [0x03] Work_Zone[37] = 137286*
 26: 0x0099 [0x03] Work_Zone[38] = 111189*
 27: 0x009E [0x03] Work_Zone[39] = 4294936096*
 28: 0x00A3 [0x03] Work_Zone[40] = 1756*
 29: 0x00A8 [0x27] REQ_SET(priority=0x0F, entity_id=Rahal (ID: 17117989/0x01053325), tag_num=0x05)
 30: 0x00AF [0x1C] WAIT(6* ticks)
 31: 0x00B2 [0x03] Work_Zone[37] = 138457*
 32: 0x00B7 [0x03] Work_Zone[38] = 113066*
 33: 0x00BC [0x03] Work_Zone[39] = 4294936169*
 34: 0x00C1 [0x03] Work_Zone[40] = 1659*
 35: 0x00C6 [0x27] REQ_SET(priority=0x0F, entity_id=Cyranuce (ID: 17117990/0x01053326), tag_num=0x02)
 36: 0x00CD [0x45] LOAD_SCHEDULED_TASK: Load scheduler "s193" with entities [EventEntity, EventEntity], work=[406*, 0*]
 37: 0x00DE [0x45] LOAD_SCHEDULED_TASK: Load scheduler "fdi2" with entities [EventEntity, EventEntity], work=[200*, 0*]
 38: 0x00EF [0x55] WAIT_LOAD_SCHEDULER: Wait for scheduler "s193" with entities [EventEntity, EventEntity], work=406*
 39: 0x00FE [0x45] LOAD_SCHEDULED_TASK: Load scheduler "s194" with entities [EventEntity, EventEntity], work=[406*, 0*]
 40: 0x010F [0x55] WAIT_LOAD_SCHEDULER: Wait for scheduler "s194" with entities [EventEntity, EventEntity], work=406*
 41: 0x011E [0x5B] LOAD_EXT_SCHEDULER: Load scheduler "tha0" with entities [Rahal (ID: 17117989/0x01053325), Rahal (ID: 17117989/0x01053325)], work=1273*
 42: 0x012D [0x2B] Rahal (ID: 17117989/0x01053325) [7814*]:
    → "Hmm... These aren't the right footprints, either."
 43: 0x0134 [0x23] WAIT_FOR_DIALOG_INTERACTION
 44: 0x0135 [0x45] LOAD_SCHEDULED_TASK: Load scheduler "s195" with entities [EventEntity, EventEntity], work=[406*, 0*]
 45: 0x0146 [0x81] SET_ENTITY_BLINKING(blink_flag=0x00, entity=Rahal (ID: 17117989/0x01053325))
 46: 0x014C [0x2B] Rahal (ID: 17117989/0x01053325) [7815*]:
    → "Confound it! Whither could that Zogbog have disappeared? Would that my ranging skills weren't so lacking..."
 47: 0x0153 [0x23] WAIT_FOR_DIALOG_INTERACTION
 48: 0x0154 [0x5B] LOAD_EXT_SCHEDULER: Load scheduler "tha1" with entities [Rahal (ID: 17117989/0x01053325), Rahal (ID: 17117989/0x01053325)], work=1273*
 49: 0x0163 [0x81] SET_ENTITY_BLINKING(blink_flag=0x01, entity=Rahal (ID: 17117989/0x01053325))
 50: 0x0169 [0x52] END_LOAD_SCHEDULER: End scheduler "s195" with entities [EventEntity, EventEntity], work=406*
 51: 0x0178 [0x45] LOAD_SCHEDULED_TASK: Load scheduler "s196" with entities [EventEntity, EventEntity], work=[406*, 0*]
 52: 0x0189 [0x5B] LOAD_EXT_SCHEDULER: Load scheduler "mim0" with entities [Cyranuce (ID: 17117990/0x01053326), Cyranuce (ID: 17117990/0x01053326)], work=2443*
 53: 0x0198 [0x2B] Cyranuce (ID: 17117990/0x01053326) [7816*]:
    → "I've an idea. Grandfather once taught me a trick for regaining one's bearings when lost."
 54: 0x019F [0x23] WAIT_FOR_DIALOG_INTERACTION
 55: 0x01A0 [0x55] WAIT_LOAD_SCHEDULER: Wait for scheduler "s196" with entities [EventEntity, EventEntity], work=406*
 56: 0x01AF [0x45] LOAD_SCHEDULED_TASK: Load scheduler "load" with entities [EventEntity, EventEntity], work=[407*, 0*]
 57: 0x01C0 [0x45] LOAD_SCHEDULED_TASK: Load scheduler "s197" with entities [EventEntity, EventEntity], work=[406*, 0*]
 58: 0x01D1 [0x45] LOAD_SCHEDULED_TASK: Load scheduler "se00" with entities [EventEntity, EventEntity], work=[407*, 0*]
 59: 0x01E2 [0x55] WAIT_LOAD_SCHEDULER: Wait for scheduler "s197" with entities [EventEntity, EventEntity], work=406*
 60: 0x01F1 [0x45] LOAD_SCHEDULED_TASK: Load scheduler "s198" with entities [EventEntity, EventEntity], work=[406*, 0*]
 61: 0x0202 [0x55] WAIT_LOAD_SCHEDULER: Wait for scheduler "s198" with entities [EventEntity, EventEntity], work=406*
 62: 0x0211 [0x45] LOAD_SCHEDULED_TASK: Load scheduler "s199" with entities [EventEntity, EventEntity], work=[406*, 0*]
 63: 0x0222 [0x2B] Cyranuce (ID: 17117990/0x01053326) [7817*]:
    → "Hm? This strong vibration emanating from the west..."
 64: 0x0229 [0x23] WAIT_FOR_DIALOG_INTERACTION
 65: 0x022A [0x2B] Cyranuce (ID: 17117990/0x01053326) [7818*]:
    → "Something of considerable mass is pounding out a steady rhythm on the ground."
 66: 0x0231 [0x23] WAIT_FOR_DIALOG_INTERACTION
 67: 0x0232 [0x4A] Rahal (ID: 17117989/0x01053325) looks at Cyranuce (ID: 17117990/0x01053326)
 68: 0x023B [0x52] END_LOAD_SCHEDULER: End scheduler "s199" with entities [EventEntity, EventEntity], work=406*
 69: 0x024A [0x45] LOAD_SCHEDULED_TASK: Load scheduler "s200" with entities [EventEntity, EventEntity], work=[406*, 0*]
 70: 0x025B [0x7B] Rahal (ID: 17117989/0x01053325) stops talking
 71: 0x0260 [0x6F] WAIT_FRAME_DELAY: Yield until WaitTime reaches zero
 72: 0x0261 [0x76] CHECK_ENTITY_RENDER_FLAGS: Wait until Rahal (ID: 17117989/0x01053325) Render.Flags0 and Render.Flags3 conditions are met
 73: 0x0266 [0x5B] LOAD_EXT_SCHEDULER: Load scheduler "mim1" with entities [Cyranuce (ID: 17117990/0x01053326), Cyranuce (ID: 17117990/0x01053326)], work=2443*
 74: 0x0275 [0x2B] Rahal (ID: 17117989/0x01053325) [7819*]:
    → "They must be building some kind of fortification. Let us make haste, Griffins. They cannot be far away."
 75: 0x027C [0x23] WAIT_FOR_DIALOG_INTERACTION
 76: 0x027D [0x52] END_LOAD_SCHEDULER: End scheduler "s200" with entities [EventEntity, EventEntity], work=406*
 77: 0x028C [0x45] LOAD_SCHEDULED_TASK: Load scheduler "s201" with entities [EventEntity, EventEntity], work=[406*, 0*]
 78: 0x029D [0x55] WAIT_LOAD_SCHEDULER: Wait for scheduler "s201" with entities [EventEntity, EventEntity], work=406*
 79: 0x02AC [0x1A] CALL_SUBROUTINE(address=0x18D0)
 80: 0x02AF [0x20] SET_CLI_EVENT_UC_FLAG: Unlock player control
 81: 0x02B1 [0x46] CAMERA_CONTROL: Restore default settings
 82: 0x02B3 [0x45] LOAD_SCHEDULED_TASK: Load scheduler "fdi2" with entities [EventEntity, EventEntity], work=[200*, 0*]
 83: 0x02C4 [0x21] END_EVENT
 84: 0x02C5 [0x00] END_REQSTACK()
```

### Event 203

#### Metadata

| Field        | Value     |
|--------------|-----------|
| Entrypoint   | 0x02C6    |
| Data Size    | 366 bytes |
| Instructions | 48        |

```
      00 01 02 03 04 05 06 07  08 09 0A 0B 0C 0D 0E 0F
      -- -- -- -- -- -- -- --  -- -- -- -- -- -- -- --
02C0:                   42 20  01 46 01 1A D0 18 38 00        B .F....8.
02D0: 80 4E 00 25 33 05 01 4E  00 26 33 05 01 92 01 25  .N.%3..N.&3....%
02E0: 33 05 01 92 01 26 33 05  01 79 00 F0 FF FF 7F F0  3....&3..y......
02F0: FF FF 7F 94 01 F0 FF FF  7F 94 01 25 33 05 01 94  ...........%3...
0300: 01 26 33 05 01 BA F0 FF  FF 7F 26 80 27 80 28 80  .&3.......&.'.(.
0310: 29 80 BA 25 33 05 01 2A  80 2B 80 2C 80 2D 80 BA  )..%3..*.+.,.-..
0320: 26 33 05 01 2E 80 2F 80  30 80 31 80 4A F0 FF FF  &3..../.0.1.J...
0330: 7F 26 33 05 01 4A 25 33  05 01 26 33 05 01 7B 25  .&3..J%3..&3..{%
0340: 33 05 01 7B F0 FF FF 7F  7B 26 33 05 01 80 F0 FF  3..{....{&3.....
0350: FF 7F 80 25 33 05 01 80  26 33 05 01 45 1A 80 F8  ...%3...&3..E...
0360: FF FF 7F F8 FF FF 7F 73  32 30 32 1B 80 45 22 80  .......s202..E".
0370: F8 FF FF 7F F8 FF FF 7F  6C 6F 61 64 1B 80 45 1C  ........load..E.
0380: 80 F8 FF FF 7F F8 FF FF  7F 66 64 69 32 1B 80 55  .........fdi2..U
0390: 1A 80 F8 FF FF 7F F8 FF  FF 7F 73 32 30 32 45 1A  ..........s202E.
03A0: 80 F8 FF FF 7F F8 FF FF  7F 73 32 30 33 1B 80 5B  .........s203..[
03B0: 20 80 26 33 05 01 26 33  05 01 6D 69 6D 30 55 1A   .&3..&3..mim0U.
03C0: 80 F8 FF FF 7F F8 FF FF  7F 73 32 30 33 1C 32 80  .........s203.2.
03D0: 45 22 80 F8 FF FF 7F F8  FF FF 7F 6C 61 33 38 1B  E".........la38.
03E0: 80 1C 33 80 2B 26 33 05  01 34 80 23 2B 26 33 05  ..3.+&3..4.#+&3.
03F0: 01 35 80 23 5B 20 80 26  33 05 01 26 33 05 01 6D  .5.#[ .&3..&3..m
0400: 69 6D 31 45 22 80 F8 FF  FF 7F F8 FF FF 7F 6B 6C  im1E".........kl
0410: 33 38 1B 80 1C 33 80 1A  D0 18 1C 36 80 45 1C 80  38...3.....6.E..
0420: F8 FF FF 7F F8 FF FF 7F  66 64 69 32 1B 80 20 00  ........fdi2.. .
0430: 46 00 21 00                                       F.!.            
```

#### Opcodes

```
  0: 0x02C6 [0x42] SET_CLI_EVENT_CANCEL_DATA()
  1: 0x02C7 [0x20] SET_CLI_EVENT_UC_FLAG: Lock player control
  2: 0x02C9 [0x46] CAMERA_CONTROL: Disable user control
  3: 0x02CB [0x1A] CALL_SUBROUTINE(address=0x18D0)
  4: 0x02CE [0x38] SET_CLIENT_EVENT_MODE(mode=19*)
  5: 0x02D1 [0x4E] SET_ENTITY_HIDE_FLAG: Show Rahal (ID: 17117989/0x01053325)
  6: 0x02D7 [0x4E] SET_ENTITY_HIDE_FLAG: Show Cyranuce (ID: 17117990/0x01053326)
  7: 0x02DD [0x92] Rahal (ID: 17117989/0x01053325)->Render.Flags3 ^= 0x01
  8: 0x02E3 [0x92] Cyranuce (ID: 17117990/0x01053326)->Render.Flags3 ^= 0x01
  9: 0x02E9 [0x79] LocalPlayer looks at LocalPlayer (Basic look)
 10: 0x02F3 [0x94] LocalPlayer->Render.Flags3 ^= 0x01
 11: 0x02F9 [0x94] Rahal (ID: 17117989/0x01053325)->Render.Flags3 ^= 0x01
 12: 0x02FF [0x94] Cyranuce (ID: 17117990/0x01053326)->Render.Flags3 ^= 0x01
 13: 0x0305 [0xBA] SET_ENTITY_POSITION(entity_id=LocalPlayer, pos_x=-384.376*, pos_z=-39.473*, pos_y=-31.228*, direction=62.8°*)
 14: 0x0312 [0xBA] SET_ENTITY_POSITION(entity_id=Rahal (ID: 17117989/0x01053325), pos_x=-385.827*, pos_z=-41.502*, pos_y=-31.245*, direction=24.5°*)
 15: 0x031F [0xBA] SET_ENTITY_POSITION(entity_id=Cyranuce (ID: 17117990/0x01053326), pos_x=-382.564*, pos_z=-40.473*, pos_y=-31.126*, direction=76.6°*)
 16: 0x032C [0x4A] LocalPlayer looks at Cyranuce (ID: 17117990/0x01053326)
 17: 0x0335 [0x4A] Rahal (ID: 17117989/0x01053325) looks at Cyranuce (ID: 17117990/0x01053326)
 18: 0x033E [0x7B] Rahal (ID: 17117989/0x01053325) stops talking
 19: 0x0343 [0x7B] LocalPlayer stops talking
 20: 0x0348 [0x7B] Cyranuce (ID: 17117990/0x01053326) stops talking
 21: 0x034D [0x80] LOAD_WAIT(entity=LocalPlayer)
 22: 0x0352 [0x80] LOAD_WAIT(entity=Rahal (ID: 17117989/0x01053325))
 23: 0x0357 [0x80] LOAD_WAIT(entity=Cyranuce (ID: 17117990/0x01053326))
 24: 0x035C [0x45] LOAD_SCHEDULED_TASK: Load scheduler "s202" with entities [EventEntity, EventEntity], work=[406*, 0*]
 25: 0x036D [0x45] LOAD_SCHEDULED_TASK: Load scheduler "load" with entities [EventEntity, EventEntity], work=[407*, 0*]
 26: 0x037E [0x45] LOAD_SCHEDULED_TASK: Load scheduler "fdi2" with entities [EventEntity, EventEntity], work=[200*, 0*]
 27: 0x038F [0x55] WAIT_LOAD_SCHEDULER: Wait for scheduler "s202" with entities [EventEntity, EventEntity], work=406*
 28: 0x039E [0x45] LOAD_SCHEDULED_TASK: Load scheduler "s203" with entities [EventEntity, EventEntity], work=[406*, 0*]
 29: 0x03AF [0x5B] LOAD_EXT_SCHEDULER: Load scheduler "mim0" with entities [Cyranuce (ID: 17117990/0x01053326), Cyranuce (ID: 17117990/0x01053326)], work=2443*
 30: 0x03BE [0x55] WAIT_LOAD_SCHEDULER: Wait for scheduler "s203" with entities [EventEntity, EventEntity], work=406*
 31: 0x03CD [0x1C] WAIT(90* ticks)
 32: 0x03D0 [0x45] LOAD_SCHEDULED_TASK: Load scheduler "la38" with entities [EventEntity, EventEntity], work=[407*, 0*]
 33: 0x03E1 [0x1C] WAIT(120* ticks)
 34: 0x03E4 [0x2B] Cyranuce (ID: 17117990/0x01053326) [7820*]:
    → "The vibration grows in intensity..."
 35: 0x03EB [0x23] WAIT_FOR_DIALOG_INTERACTION
 36: 0x03EC [0x2B] Cyranuce (ID: 17117990/0x01053326) [7821*]:
    → "South... We will find our target south of here."
 37: 0x03F3 [0x23] WAIT_FOR_DIALOG_INTERACTION
 38: 0x03F4 [0x5B] LOAD_EXT_SCHEDULER: Load scheduler "mim1" with entities [Cyranuce (ID: 17117990/0x01053326), Cyranuce (ID: 17117990/0x01053326)], work=2443*
 39: 0x0403 [0x45] LOAD_SCHEDULED_TASK: Load scheduler "kl38" with entities [EventEntity, EventEntity], work=[407*, 0*]
 40: 0x0414 [0x1C] WAIT(120* ticks)
 41: 0x0417 [0x1A] CALL_SUBROUTINE(address=0x18D0)
 42: 0x041A [0x1C] WAIT(60* ticks)
 43: 0x041D [0x45] LOAD_SCHEDULED_TASK: Load scheduler "fdi2" with entities [EventEntity, EventEntity], work=[200*, 0*]
 44: 0x042E [0x20] SET_CLI_EVENT_UC_FLAG: Unlock player control
 45: 0x0430 [0x46] CAMERA_CONTROL: Restore default settings
 46: 0x0432 [0x21] END_EVENT
 47: 0x0433 [0x00] END_REQSTACK()
```

### Event 204

#### Metadata

| Field        | Value      |
|--------------|------------|
| Entrypoint   | 0x0434     |
| Data Size    | 4937 bytes |
| Instructions | 532        |

```
      00 01 02 03 04 05 06 07  08 09 0A 0B 0C 0D 0E 0F
      -- -- -- -- -- -- -- --  -- -- -- -- -- -- -- --
0430:             42 20 01 46  01 1A D0 18 38 00 80 29      B .F....8..)
0440: 0A 2F 33 05 01 04 29 0A  31 33 05 01 04 4E 00 29  ./3...).13...N.)
0450: 33 05 01 4E 00 2A 33 05  01 4E 00 2B 33 05 01 4E  3..N.*3..N.+3..N
0460: 00 2C 33 05 01 4E 00 2D  33 05 01 4E 00 2E 33 05  .,3..N.-3..N..3.
0470: 01 4E 00 25 33 05 01 4E  00 26 33 05 01 4E 00 27  .N.%3..N.&3..N.'
0480: 33 05 01 4E 00 2F 33 05  01 4E 00 31 33 05 01 4E  3..N./3..N.13..N
0490: 00 30 33 05 01 92 01 25  33 05 01 92 01 26 33 05  .03....%3....&3.
04A0: 01 92 01 27 33 05 01 92  01 29 33 05 01 92 01 2A  ...'3....)3....*
04B0: 33 05 01 92 01 2B 33 05  01 92 01 2C 33 05 01 92  3....+3....,3...
04C0: 01 2D 33 05 01 92 01 2E  33 05 01 92 01 2F 33 05  .-3.....3..../3.
04D0: 01 92 01 31 33 05 01 92  01 30 33 05 01 79 00 F0  ...13....03..y..
04E0: FF FF 7F F0 FF FF 7F 94  01 F0 FF FF 7F 94 01 25  ...............%
04F0: 33 05 01 94 01 26 33 05  01 94 01 27 33 05 01 94  3....&3....'3...
0500: 01 29 33 05 01 94 01 2A  33 05 01 94 01 2B 33 05  .)3....*3....+3.
0510: 01 94 01 2C 33 05 01 94  01 2D 33 05 01 94 01 2E  ...,3....-3.....
0520: 33 05 01 94 01 2F 33 05  01 94 01 31 33 05 01 94  3..../3....13...
0530: 01 30 33 05 01 BA F0 FF  FF 7F 37 80 38 80 39 80  .03.......7.8.9.
0540: 3A 80 BA 25 33 05 01 3B  80 3C 80 3D 80 3E 80 BA  :..%3..;.<.=.>..
0550: 26 33 05 01 3F 80 40 80  41 80 42 80 BA 27 33 05  &3..?.@.A.B..'3.
0560: 01 1B 80 1B 80 43 80 1B  80 BA 29 33 05 01 1B 80  .....C....)3....
0570: 1B 80 43 80 1B 80 BA 2A  33 05 01 1B 80 1B 80 43  ..C....*3......C
0580: 80 1B 80 BA 2B 33 05 01  1B 80 1B 80 43 80 1B 80  ....+3......C...
0590: BA 2C 33 05 01 1B 80 1B  80 43 80 1B 80 BA 2D 33  .,3......C....-3
05A0: 05 01 1B 80 1B 80 43 80  1B 80 BA 2E 33 05 01 1B  ......C.....3...
05B0: 80 1B 80 43 80 1B 80 BA  2F 33 05 01 1B 80 1B 80  ...C..../3......
05C0: 43 80 1B 80 BA 31 33 05  01 1B 80 1B 80 43 80 1B  C....13......C..
05D0: 80 BA 30 33 05 01 1B 80  1B 80 43 80 1B 80 4A F0  ..03......C...J.
05E0: FF FF 7F 26 33 05 01 4A  25 33 05 01 26 33 05 01  ...&3..J%3..&3..
05F0: 7B 25 33 05 01 80 F0 FF  FF 7F 80 25 33 05 01 80  {%3........%3...
0600: 26 33 05 01 80 27 33 05  01 80 29 33 05 01 80 2A  &3...'3...)3...*
0610: 33 05 01 80 2B 33 05 01  80 2C 33 05 01 80 2D 33  3...+3...,3...-3
0620: 05 01 80 2E 33 05 01 80  2F 33 05 01 80 31 33 05  ....3.../3...13.
0630: 01 80 30 33 05 01 45 1A  80 F8 FF FF 7F F8 FF FF  ..03..E.........
0640: 7F 73 32 30 35 1B 80 45  22 80 F8 FF FF 7F F8 FF  .s205..E".......
0650: FF 7F 6C 6F 61 64 1B 80  45 1C 80 F8 FF FF 7F F8  ..load..E.......
0660: FF FF 7F 66 64 69 32 1B  80 5B 20 80 26 33 05 01  ...fdi2..[ .&3..
0670: 26 33 05 01 6D 69 6D 30  55 1A 80 F8 FF FF 7F F8  &3..mim0U.......
0680: FF FF 7F 73 32 30 35 45  1A 80 F8 FF FF 7F F8 FF  ...s205E........
0690: FF 7F 73 32 30 36 1B 80  1C 33 80 45 22 80 F8 FF  ..s206...3.E"...
06A0: FF 7F F8 FF FF 7F 73 65  30 31 1B 80 2B 26 33 05  ......se01..+&3.
06B0: 01 44 80 23 52 1A 80 F8  FF FF 7F F8 FF FF 7F 73  .D.#R..........s
06C0: 32 30 36 45 1A 80 F8 FF  FF 7F F8 FF FF 7F 73 32  206E..........s2
06D0: 30 37 1B 80 45 22 80 F8  FF FF 7F F8 FF FF 7F 73  07..E".........s
06E0: 65 30 32 1B 80 1C 45 80  BA 27 33 05 01 46 80 47  e02...E..'3..F.G
06F0: 80 48 80 49 80 4A 27 33  05 01 26 33 05 01 7B 27  .H.I.J'3..&3..{'
0700: 33 05 01 55 1A 80 F8 FF  FF 7F F8 FF FF 7F 73 32  3..U..........s2
0710: 30 37 2B 26 33 05 01 4A  80 23 45 1A 80 F8 FF FF  07+&3..J.#E.....
0720: 7F F8 FF FF 7F 73 32 30  38 1B 80 79 00 27 33 05  .....s208..y.'3.
0730: 01 26 33 05 01 2B 27 33  05 01 4B 80 23 55 1A 80  .&3..+'3..K.#U..
0740: F8 FF FF 7F F8 FF FF 7F  73 32 30 38 45 1A 80 F8  ........s208E...
0750: FF FF 7F F8 FF FF 7F 73  32 30 39 1B 80 C5 4C 80  .......s209...L.
0760: 26 33 05 01 26 33 05 01  73 30 30 30 1B 80 2B 26  &3..&3..s000..+&
0770: 33 05 01 4D 80 23 C6 4C  80 26 33 05 01 26 33 05  3..M.#.L.&3..&3.
0780: 01 73 30 30 30 52 1A 80  F8 FF FF 7F F8 FF FF 7F  .s000R..........
0790: 73 32 30 39 45 1A 80 F8  FF FF 7F F8 FF FF 7F 73  s209E..........s
07A0: 32 31 30 1B 80 5B 20 80  26 33 05 01 26 33 05 01  210..[ .&3..&3..
07B0: 6D 69 6D 33 2B 26 33 05  01 4E 80 23 52 1A 80 F8  mim3+&3..N.#R...
07C0: FF FF 7F F8 FF FF 7F 73  32 31 30 45 1A 80 F8 FF  .......s210E....
07D0: FF 7F F8 FF FF 7F 73 32  31 31 1B 80 03 25 10 4F  ......s211...%.O
07E0: 80 03 26 10 50 80 03 27  10 51 80 03 28 10 52 80  ..&.P..'.Q..(.R.
07F0: 29 0F 25 33 05 01 05 4A  25 33 05 01 27 33 05 01  ).%3...J%3..'3..
0800: 4A 27 33 05 01 25 33 05  01 7B 25 33 05 01 7B 27  J'3..%3..{%3..{'
0810: 33 05 01 6F 76 25 33 05  01 5B 53 80 25 33 05 01  3..ov%3..[S.%3..
0820: 25 33 05 01 74 6C 61 30  2B 25 33 05 01 54 80 23  %3..tla0+%3..T.#
0830: 5B 53 80 25 33 05 01 25  33 05 01 74 6C 61 31 5B  [S.%3..%3..tla1[
0840: 53 80 27 33 05 01 27 33  05 01 74 6C 73 30 2B 27  S.'3..'3..tls0+'
0850: 33 05 01 55 80 23 5B 53  80 27 33 05 01 27 33 05  3..U.#[S.'3..'3.
0860: 01 74 6C 73 31 52 1A 80  F8 FF FF 7F F8 FF FF 7F  .tls1R..........
0870: 73 32 31 31 45 1A 80 F8  FF FF 7F F8 FF FF 7F 73  s211E..........s
0880: 32 31 33 1B 80 5B 53 80  25 33 05 01 25 33 05 01  213..[S.%3..%3..
0890: 74 6C 61 30 2B 25 33 05  01 56 80 23 5B 53 80 25  tla0+%3..V.#[S.%
08A0: 33 05 01 25 33 05 01 74  6C 61 31 52 1A 80 F8 FF  3..%3..tla1R....
08B0: FF 7F F8 FF FF 7F 73 32  31 33 45 1A 80 F8 FF FF  ......s213E.....
08C0: 7F F8 FF FF 7F 73 32 31  34 1B 80 45 22 80 F8 FF  .....s214..E"...
08D0: FF 7F F8 FF FF 7F 6C 61  33 38 1B 80 55 1A 80 F8  ......la38..U...
08E0: FF FF 7F F8 FF FF 7F 73  32 31 34 45 1A 80 F8 FF  .......s214E....
08F0: FF 7F F8 FF FF 7F 73 32  31 32 1B 80 2B 26 33 05  ......s212..+&3.
0900: 01 57 80 23 1A D0 18 45  22 80 F8 FF FF 7F F8 FF  .W.#...E".......
0910: FF 7F 6B 6C 33 38 1B 80  55 1A 80 F8 FF FF 7F F8  ..kl38..U.......
0920: FF FF 7F 73 32 31 32 6B  69 64 6C 30 26 33 05 01  ...s212kidl0&3..
0930: BA F0 FF FF 7F 58 80 59  80 5A 80 5B 80 BA 25 33  .....X.Y.Z.[..%3
0940: 05 01 5C 80 5D 80 5E 80  5F 80 BA 26 33 05 01 60  ..\.].^._..&3..`
0950: 80 61 80 62 80 63 80 BA  27 33 05 01 64 80 65 80  .a.b.c..'3..d.e.
0960: 66 80 67 80 BA 30 33 05  01 68 80 69 80 6A 80 6B  f.g..03..h.i.j.k
0970: 80 BA 29 33 05 01 1B 80  1B 80 43 80 1B 80 BA 2A  ..)3......C....*
0980: 33 05 01 1B 80 1B 80 43  80 1B 80 BA 2B 33 05 01  3......C....+3..
0990: 1B 80 1B 80 43 80 1B 80  BA 2C 33 05 01 1B 80 1B  ....C....,3.....
09A0: 80 43 80 1B 80 BA 2F 33  05 01 1B 80 1B 80 43 80  .C..../3......C.
09B0: 1B 80 BA 31 33 05 01 1B  80 1B 80 43 80 1B 80 5B  ...13......C...[
09C0: 6C 80 25 33 05 01 25 33  05 01 73 68 62 30 5B 6C  l.%3..%3..shb0[l
09D0: 80 27 33 05 01 27 33 05  01 73 68 62 30 5B 6C 80  .'3..'3..shb0[l.
09E0: 26 33 05 01 26 33 05 01  73 68 62 30 29 0A F0 FF  &3..&3..shb0)...
09F0: FF 7F 07 45 1A 80 F8 FF  FF 7F F8 FF FF 7F 73 32  ...E..........s2
0A00: 31 35 1B 80 45 1C 80 F8  FF FF 7F F8 FF FF 7F 66  15..E..........f
0A10: 64 69 32 1B 80 03 25 10  6D 80 03 26 10 6E 80 03  di2...%.m..&.n..
0A20: 27 10 6F 80 03 28 10 70  80 27 0F 30 33 05 01 02  '.o..(.p.'.03...
0A30: 55 1A 80 F8 FF FF 7F F8  FF FF 7F 73 32 31 35 45  U..........s215E
0A40: 1A 80 F8 FF FF 7F F8 FF  FF 7F 73 32 31 36 1B 80  ..........s216..
0A50: 55 1A 80 F8 FF FF 7F F8  FF FF 7F 73 32 31 36 1A  U..........s216.
0A60: D0 18 BA 30 33 05 01 6D  80 6E 80 6F 80 70 80 2A  ...03..m.n.o.p.*
0A70: 0F 30 33 05 01 BA 30 33  05 01 71 80 72 80 73 80  .03...03..q.r.s.
0A80: 74 80 BA 29 33 05 01 75  80 76 80 77 80 78 80 BA  t..)3..u.v.w.x..
0A90: 29 33 05 01 75 80 76 80  77 80 78 80 BA 2A 33 05  )3..u.v.w.x..*3.
0AA0: 01 79 80 7A 80 7B 80 7C  80 BA 2B 33 05 01 7D 80  .y.z.{.|..+3..}.
0AB0: 7E 80 7F 80 80 80 BA 2F  33 05 01 81 80 82 80 83  ~....../3.......
0AC0: 80 78 80 BA 31 33 05 01  84 80 85 80 86 80 87 80  .x..13..........
0AD0: 4A 29 33 05 01 30 33 05  01 7B 29 33 05 01 4E 01  J)3..03..{)3..N.
0AE0: F0 FF FF 7F 4E 01 25 33  05 01 4E 01 26 33 05 01  ....N.%3..N.&3..
0AF0: 4E 01 27 33 05 01 5B 88  80 29 33 05 01 29 33 05  N.'3..[..)3..)3.
0B00: 01 62 63 6D 30 03 25 10  68 80 03 26 10 69 80 03  .bcm0.%.h..&.i..
0B10: 27 10 6A 80 03 28 10 6B  80 27 0F 30 33 05 01 07  '.j..(.k.'.03...
0B20: 45 1A 80 F8 FF FF 7F F8  FF FF 7F 73 32 31 37 1B  E..........s217.
0B30: 80 45 1C 80 F8 FF FF 7F  F8 FF FF 7F 66 64 69 32  .E..........fdi2
0B40: 1B 80 1C 89 80 5B 88 80  29 33 05 01 29 33 05 01  .....[..)3..)3..
0B50: 62 73 70 30 2B 29 33 05  01 8A 80 23 2A 0F 30 33  bsp0+)3....#*.03
0B60: 05 01 55 1A 80 F8 FF FF  7F F8 FF FF 7F 73 32 31  ..U..........s21
0B70: 37 5C 00 8B 80 5C 01 8B  80 5C 02 8B 80 5C 03 8B  7\...\...\...\..
0B80: 80 9A 45 1A 80 F8 FF FF  7F F8 FF FF 7F 73 32 32  ..E..........s22
0B90: 38 1B 80 C5 8C 80 30 33  05 01 30 33 05 01 73 74  8.....03..03..st
0BA0: 30 33 1B 80 5B 8D 80 30  33 05 01 30 33 05 01 68  03..[..03..03..h
0BB0: 6F 75 30 55 1A 80 F8 FF  FF 7F F8 FF FF 7F 73 32  ou0U..........s2
0BC0: 32 38 45 1A 80 F8 FF FF  7F F8 FF FF 7F 73 32 31  28E..........s21
0BD0: 38 1B 80 6B 69 64 6C 30  29 33 05 01 4A 29 33 05  8..kidl0)3..J)3.
0BE0: 01 2F 33 05 01 7B 29 33  05 01 5B 88 80 2F 33 05  ./3..{)3..[../3.
0BF0: 01 2F 33 05 01 74 6C 6B  30 2B 2F 33 05 01 8E 80  ./3..tlk0+/3....
0C00: 23 5B 88 80 2F 33 05 01  2F 33 05 01 74 6C 6B 31  #[../3../3..tlk1
0C10: 52 1A 80 F8 FF FF 7F F8  FF FF 7F 73 32 31 38 45  R..........s218E
0C20: 1A 80 F8 FF FF 7F F8 FF  FF 7F 73 32 31 39 1B 80  ..........s219..
0C30: 5B 8F 80 29 33 05 01 29  33 05 01 74 6C 62 30 2B  [..)3..)3..tlb0+
0C40: 29 33 05 01 90 80 23 2B  29 33 05 01 91 80 23 5B  )3....#+)3....#[
0C50: 8F 80 29 33 05 01 29 33  05 01 64 65 66 30 5B 92  ..)3..)3..def0[.
0C60: 80 2F 33 05 01 2F 33 05  01 6C 6B 72 30 1C 32 80  ./3../3..lkr0.2.
0C70: 5B 92 80 2F 33 05 01 2F  33 05 01 6C 6B 72 74 2B  [../3../3..lkrt+
0C80: 2F 33 05 01 93 80 23 5B  92 80 2F 33 05 01 2F 33  /3....#[../3../3
0C90: 05 01 6C 6B 72 65 5B 94  80 29 33 05 01 29 33 05  ..lkre[..)3..)3.
0CA0: 01 68 68 61 30 2B 29 33  05 01 95 80 23 52 1A 80  .hha0+)3....#R..
0CB0: F8 FF FF 7F F8 FF FF 7F  73 32 31 39 45 1A 80 F8  ........s219E...
0CC0: FF FF 7F F8 FF FF 7F 73  32 32 30 1B 80 5B 96 80  .......s220..[..
0CD0: 2F 33 05 01 2F 33 05 01  6C 6B 72 31 1C 33 80 5B  /3../3..lkr1.3.[
0CE0: 88 80 2F 33 05 01 2F 33  05 01 74 6C 6B 30 2B 2F  ../3../3..tlk0+/
0CF0: 33 05 01 97 80 23 5B 88  80 2F 33 05 01 2F 33 05  3....#[../3../3.
0D00: 01 74 6C 6B 31 52 1A 80  F8 FF FF 7F F8 FF FF 7F  .tlk1R..........
0D10: 73 32 32 30 45 1A 80 F8  FF FF 7F F8 FF FF 7F 73  s220E..........s
0D20: 32 32 31 1B 80 BA 2D 33  05 01 98 80 99 80 9A 80  221...-3........
0D30: 9B 80 5B 94 80 29 33 05  01 29 33 05 01 68 68 61  ..[..)3..)3..hha
0D40: 31 2B 29 33 05 01 9C 80  23 4E 01 2F 33 05 01 52  1+)3....#N./3..R
0D50: 1A 80 F8 FF FF 7F F8 FF  FF 7F 73 32 32 31 45 1A  ..........s221E.
0D60: 80 F8 FF FF 7F F8 FF FF  7F 73 32 32 32 1B 80 5D  .........s222..]
0D70: 1B 80 9D 80 03 25 10 9E  80 03 26 10 9F 80 03 27  .....%....&....'
0D80: 10 A0 80 03 28 10 A1 80  29 0F 2D 33 05 01 01 4A  ....(...).-3...J
0D90: 2D 33 05 01 29 33 05 01  7B 2D 33 05 01 6F 76 2D  -3..)3..{-3..ov-
0DA0: 33 05 01 5B 88 80 2D 33  05 01 2D 33 05 01 74 6C  3..[..-3..-3..tl
0DB0: 6B 30 2B 2D 33 05 01 A2  80 23 5B 88 80 2D 33 05  k0+-3....#[..-3.
0DC0: 01 2D 33 05 01 74 6C 6B  31 52 1A 80 F8 FF FF 7F  .-3..tlk1R......
0DD0: F8 FF FF 7F 73 32 32 32  45 1A 80 F8 FF FF 7F F8  ....s222E.......
0DE0: FF FF 7F 73 32 32 33 1B  80 5B 92 80 29 33 05 01  ...s223..[..)3..
0DF0: 29 33 05 01 6C 6B 6C 30  1C 32 80 5B 92 80 29 33  )3..lkl0.2.[..)3
0E00: 05 01 29 33 05 01 6C 6B  6C 74 2B 29 33 05 01 A3  ..)3..lklt+)3...
0E10: 80 23 5B 92 80 29 33 05  01 29 33 05 01 6C 6B 6C  .#[..)3..)3..lkl
0E20: 65 52 1A 80 F8 FF FF 7F  F8 FF FF 7F 73 32 32 33  eR..........s223
0E30: 45 1A 80 F8 FF FF 7F F8  FF FF 7F 73 32 32 34 1B  E..........s224.
0E40: 80 5B 88 80 2D 33 05 01  2D 33 05 01 74 68 6B 30  .[..-3..-3..thk0
0E50: 1C A4 80 5B 88 80 2D 33  05 01 2D 33 05 01 74 68  ...[..-3..-3..th
0E60: 6B 32 2B 2D 33 05 01 A5  80 23 5B 88 80 2D 33 05  k2+-3....#[..-3.
0E70: 01 2D 33 05 01 74 68 6B  33 52 1A 80 F8 FF FF 7F  .-3..thk3R......
0E80: F8 FF FF 7F 73 32 32 34  45 1A 80 F8 FF FF 7F F8  ....s224E.......
0E90: FF FF 7F 73 32 32 35 1B  80 5B 96 80 29 33 05 01  ...s225..[..)3..
0EA0: 29 33 05 01 6C 6B 6C 31  1C A6 80 5B 92 80 29 33  )3..lkl1...[..)3
0EB0: 05 01 29 33 05 01 6C 6B  72 30 1C 32 80 5B 92 80  ..)3..lkr0.2.[..
0EC0: 29 33 05 01 29 33 05 01  6C 6B 72 74 2B 29 33 05  )3..)3..lkrt+)3.
0ED0: 01 A7 80 23 2B 29 33 05  01 A8 80 23 2B 29 33 05  ...#+)3....#+)3.
0EE0: 01 A9 80 23 55 1A 80 F8  FF FF 7F F8 FF FF 7F 73  ...#U..........s
0EF0: 32 32 35 45 1A 80 F8 FF  FF 7F F8 FF FF 7F 73 32  225E..........s2
0F00: 32 36 1B 80 5B 92 80 29  33 05 01 29 33 05 01 6C  26..[..)3..)3..l
0F10: 6B 72 65 5B 96 80 29 33  05 01 29 33 05 01 6C 6B  kre[..)3..)3..lk
0F20: 72 31 1C A6 80 5B 92 80  29 33 05 01 29 33 05 01  r1...[..)3..)3..
0F30: 6C 6B 6C 30 1C 32 80 5B  92 80 29 33 05 01 29 33  lkl0.2.[..)3..)3
0F40: 05 01 6C 6B 6C 74 2B 29  33 05 01 AA 80 23 5B 92  ..lklt+)3....#[.
0F50: 80 29 33 05 01 29 33 05  01 6C 6B 6C 65 52 1A 80  .)3..)3..lkleR..
0F60: F8 FF FF 7F F8 FF FF 7F  73 32 32 36 45 1A 80 F8  ........s226E...
0F70: FF FF 7F F8 FF FF 7F 73  32 32 37 1B 80 5B 88 80  .......s227..[..
0F80: 2D 33 05 01 2D 33 05 01  74 68 6B 31 BA 25 33 05  -3..-3..thk1.%3.
0F90: 01 AB 80 AC 80 AD 80 AE  80 BA 26 33 05 01 AF 80  ..........&3....
0FA0: B0 80 B1 80 B2 80 BA 27  33 05 01 B3 80 B4 80 B5  .......'3.......
0FB0: 80 B6 80 BA F0 FF FF 7F  B7 80 B8 80 B9 80 BA 80  ................
0FC0: 6B 69 64 6C 30 F0 FF FF  7F 6B 69 64 6C 30 25 33  kidl0....kidl0%3
0FD0: 05 01 6B 69 64 6C 30 26  33 05 01 6B 69 64 6C 30  ..kidl0&3..kidl0
0FE0: 27 33 05 01 4E 00 F0 FF  FF 7F 4E 00 25 33 05 01  '3..N.....N.%3..
0FF0: 4E 00 26 33 05 01 4E 00  27 33 05 01 4A F0 FF FF  N.&3..N.'3..J...
1000: 7F 29 33 05 01 4A 25 33  05 01 29 33 05 01 4A 26  .)3..J%3..)3..J&
1010: 33 05 01 29 33 05 01 4A  27 33 05 01 29 33 05 01  3..)3..J'3..)3..
1020: 79 00 F0 FF FF 7F F0 FF  FF 7F 7B 25 33 05 01 7B  y.........{%3..{
1030: 26 33 05 01 7B 27 33 05  01 1C BB 80 5B 88 80 2D  &3..{'3.....[..-
1040: 33 05 01 2D 33 05 01 79  65 73 30 1C BC 80 52 1A  3..-3..yes0...R.
1050: 80 F8 FF FF 7F F8 FF FF  7F 73 32 32 37 45 1A 80  .........s227E..
1060: F8 FF FF 7F F8 FF FF 7F  73 32 32 39 1B 80 55 1A  ........s229..U.
1070: 80 F8 FF FF 7F F8 FF FF  7F 73 32 32 39 45 1A 80  .........s229E..
1080: F8 FF FF 7F F8 FF FF 7F  73 32 33 30 1B 80 5B 53  ........s230..[S
1090: 80 27 33 05 01 27 33 05  01 74 6C 61 30 2B 27 33  .'3..'3..tla0+'3
10A0: 05 01 BD 80 23 5B 53 80  27 33 05 01 27 33 05 01  ....#[S.'3..'3..
10B0: 74 6C 61 31 4A 25 33 05  01 27 33 05 01 4A 27 33  tla1J%3..'3..J'3
10C0: 05 01 25 33 05 01 4A 26  33 05 01 25 33 05 01 4A  ..%3..J&3..%3..J
10D0: F0 FF FF 7F 25 33 05 01  7B 26 33 05 01 7B 25 33  ....%3..{&3..{%3
10E0: 05 01 7B 27 33 05 01 52  1A 80 F8 FF FF 7F F8 FF  ..{'3..R........
10F0: FF 7F 73 32 33 30 45 1A  80 F8 FF FF 7F F8 FF FF  ..s230E.........
1100: 7F 73 32 33 31 1B 80 6F  76 25 33 05 01 5B 53 80  .s231..ov%3..[S.
1110: 25 33 05 01 25 33 05 01  74 6C 62 30 2B 25 33 05  %3..%3..tlb0+%3.
1120: 01 BE 80 23 5B 53 80 25  33 05 01 25 33 05 01 74  ...#[S.%3..%3..t
1130: 6C 62 31 52 1A 80 F8 FF  FF 7F F8 FF FF 7F 73 32  lb1R..........s2
1140: 33 31 45 1A 80 F8 FF FF  7F F8 FF FF 7F 73 32 33  31E..........s23
1150: 32 1B 80 5B 53 80 26 33  05 01 26 33 05 01 74 6C  2..[S.&3..&3..tl
1160: 61 30 2B 26 33 05 01 BF  80 23 5B 53 80 26 33 05  a0+&3....#[S.&3.
1170: 01 26 33 05 01 74 6C 61  31 52 1A 80 F8 FF FF 7F  .&3..tla1R......
1180: F8 FF FF 7F 73 32 33 32  45 1A 80 F8 FF FF 7F F8  ....s232E.......
1190: FF FF 7F 73 32 33 33 1B  80 5B C0 80 25 33 05 01  ...s233..[..%3..
11A0: 25 33 05 01 79 65 73 30  2B 25 33 05 01 C1 80 23  %3..yes0+%3....#
11B0: 5B 53 80 27 33 05 01 27  33 05 01 74 6C 61 30 2B  [S.'3..'3..tla0+
11C0: 27 33 05 01 C2 80 23 5B  53 80 27 33 05 01 27 33  '3....#[S.'3..'3
11D0: 05 01 74 6C 61 31 2B 26  33 05 01 C3 80 23 1C 33  ..tla1+&3....#.3
11E0: 80 55 1A 80 F8 FF FF 7F  F8 FF FF 7F 73 32 33 33  .U..........s233
11F0: 45 1A 80 F8 FF FF 7F F8  FF FF 7F 73 32 33 34 1B  E..........s234.
1200: 80 C5 4C 80 27 33 05 01  27 33 05 01 73 30 30 31  ..L.'3..'3..s001
1210: 1B 80 5B 53 80 25 33 05  01 25 33 05 01 74 6C 61  ..[S.%3..%3..tla
1220: 30 2B 25 33 05 01 C4 80  23 5B 53 80 25 33 05 01  0+%3....#[S.%3..
1230: 25 33 05 01 74 6C 61 31  5B 53 80 25 33 05 01 25  %3..tla1[S.%3..%
1240: 33 05 01 74 6C 61 30 2B  25 33 05 01 C5 80 23 5B  3..tla0+%3....#[
1250: 53 80 25 33 05 01 25 33  05 01 74 6C 61 31 52 1A  S.%3..%3..tla1R.
1260: 80 F8 FF FF 7F F8 FF FF  7F 73 32 33 34 45 1A 80  .........s234E..
1270: F8 FF FF 7F F8 FF FF 7F  73 32 33 35 1B 80 2B 26  ........s235..+&
1280: 33 05 01 C6 80 23 5B 53  80 25 33 05 01 25 33 05  3....#[S.%3..%3.
1290: 01 74 6C 61 30 2B 25 33  05 01 C7 80 23 5B 53 80  .tla0+%3....#[S.
12A0: 25 33 05 01 25 33 05 01  74 6C 61 31 52 1A 80 F8  %3..%3..tla1R...
12B0: FF FF 7F F8 FF FF 7F 73  32 33 35 45 1A 80 F8 FF  .......s235E....
12C0: FF 7F F8 FF FF 7F 73 32  33 38 1B 80 5B 53 80 25  ......s238..[S.%
12D0: 33 05 01 25 33 05 01 74  6C 61 30 2B 25 33 05 01  3..%3..tla0+%3..
12E0: C8 80 23 5B 53 80 25 33  05 01 25 33 05 01 74 6C  ..#[S.%3..%3..tl
12F0: 61 31 4A 26 33 05 01 25  33 05 01 4A 27 33 05 01  a1J&3..%3..J'3..
1300: 25 33 05 01 7B 26 33 05  01 7B 27 33 05 01 5B 53  %3..{&3..{'3..[S
1310: 80 26 33 05 01 26 33 05  01 74 6C 61 30 2B 26 33  .&3..&3..tla0+&3
1320: 05 01 C9 80 23 5B 53 80  26 33 05 01 26 33 05 01  ....#[S.&3..&3..
1330: 74 6C 61 31 5B 53 80 27  33 05 01 27 33 05 01 74  tla1[S.'3..'3..t
1340: 6C 61 30 2B 27 33 05 01  CA 80 23 5B 53 80 27 33  la0+'3....#[S.'3
1350: 05 01 27 33 05 01 74 6C  61 31 5B CB 80 27 33 05  ..'3..tla1[..'3.
1360: 01 27 33 05 01 00 FE FE  FE 52 1A 80 F8 FF FF 7F  .'3......R......
1370: F8 FF FF 7F 73 32 33 38  45 1A 80 F8 FF FF 7F F8  ....s238E.......
1380: FF FF 7F 73 32 33 39 1B  80 C5 4C 80 27 33 05 01  ...s239...L.'3..
1390: 27 33 05 01 73 30 30 32  1B 80 BA 29 33 05 01 CC  '3..s002...)3...
13A0: 80 CD 80 83 80 CE 80 BA  2A 33 05 01 CF 80 D0 80  ........*3......
13B0: D1 80 D2 80 BA 2B 33 05  01 D3 80 D4 80 D5 80 D6  .....+3.........
13C0: 80 BA 2E 33 05 01 D7 80  D8 80 83 80 D9 80 6B 69  ...3..........ki
13D0: 64 6C 30 29 33 05 01 55  1A 80 F8 FF FF 7F F8 FF  dl0)3..U........
13E0: FF 7F 73 32 33 39 45 1A  80 F8 FF FF 7F F8 FF FF  ..s239E.........
13F0: 7F 73 32 34 30 1B 80 5B  92 80 29 33 05 01 29 33  .s240..[..)3..)3
1400: 05 01 6C 6B 72 30 4A 25  33 05 01 29 33 05 01 4A  ..lkr0J%3..)3..J
1410: 26 33 05 01 29 33 05 01  4A 27 33 05 01 29 33 05  &3..)3..J'3..)3.
1420: 01 4A F0 FF FF 7F 29 33  05 01 7B 25 33 05 01 7B  .J....)3..{%3..{
1430: 26 33 05 01 7B 27 33 05  01 C5 4C 80 27 33 05 01  &3..{'3...L.'3..
1440: 27 33 05 01 6B 69 6C 32  1B 80 1C 32 80 5B 92 80  '3..kil2...2.[..
1450: 29 33 05 01 29 33 05 01  6C 6B 72 74 2B 29 33 05  )3..)3..lkrt+)3.
1460: 01 DA 80 23 5B 92 80 29  33 05 01 29 33 05 01 6C  ...#[..)3..)3..l
1470: 6B 72 65 55 1A 80 F8 FF  FF 7F F8 FF FF 7F 73 32  kreU..........s2
1480: 34 30 5C 00 DB 80 5C 01  DB 80 5C 02 DB 80 5C 03  40\...\...\...\.
1490: DB 80 9A 5B DC 80 25 33  05 01 25 33 05 01 00 FE  ...[..%3..%3....
14A0: FE FE 45 1A 80 F8 FF FF  7F F8 FF FF 7F 73 32 34  ..E..........s24
14B0: 31 1B 80 55 1A 80 F8 FF  FF 7F F8 FF FF 7F 73 32  1..U..........s2
14C0: 34 31 5B DC 80 25 33 05  01 25 33 05 01 62 69 6B  41[..%3..%3..bik
14D0: 30 7C 00 25 33 05 01 2B  25 33 05 01 DD 80 23 7C  0|.%3..+%3....#|
14E0: 01 25 33 05 01 53 25 33  05 01 25 33 05 01 62 69  .%3..S%3..%3..bi
14F0: 6B 30 5B DC 80 25 33 05  01 25 33 05 01 62 69 6B  k0[..%3..%3..bik
1500: 31 4A 25 33 05 01 F0 FF  FF 7F 7B 25 33 05 01 6F  1J%3......{%3..o
1510: 76 25 33 05 01 45 1A 80  F8 FF FF 7F F8 FF FF 7F  v%3..E..........
1520: 73 32 34 32 1B 80 BA 29  33 05 01 DE 80 DF 80 E0  s242...)3.......
1530: 80 E1 80 BA 2A 33 05 01  CF 80 D0 80 D1 80 D2 80  ....*3..........
1540: BA 2B 33 05 01 D3 80 D4  80 D5 80 D6 80 BA 2E 33  .+3............3
1550: 05 01 E2 80 E3 80 E4 80  E5 80 5B E6 80 25 33 05  ..........[..%3.
1560: 01 25 33 05 01 6D 65 69  30 2B 25 33 05 01 E7 80  .%3..mei0+%3....
1570: 23 55 1A 80 F8 FF FF 7F  F8 FF FF 7F 73 32 34 32  #U..........s242
1580: 45 1A 80 F8 FF FF 7F F8  FF FF 7F 73 32 34 34 1B  E..........s244.
1590: 80 27 0F F0 FF FF 7F 1C  1C E8 80 03 25 10 E9 80  .'..........%...
15A0: 03 26 10 EA 80 03 27 10  EB 80 03 28 10 EC 80 27  .&....'....(...'
15B0: 0F 27 33 05 01 01 1C E8  80 03 25 10 ED 80 03 26  .'3.......%....&
15C0: 10 EE 80 03 27 10 EF 80  03 28 10 F0 80 27 0F 26  ....'....(...'.&
15D0: 33 05 01 01 1C E8 80 03  25 10 F1 80 03 26 10 F2  3.......%....&..
15E0: 80 03 27 10 F3 80 03 28  10 F4 80 27 0F 25 33 05  ..'....(...'.%3.
15F0: 01 04 55 1A 80 F8 FF FF  7F F8 FF FF 7F 73 32 34  ..U..........s24
1600: 34 45 1A 80 F8 FF FF 7F  F8 FF FF 7F 73 32 34 33  4E..........s243
1610: 1B 80 03 25 10 E9 80 03  26 10 EA 80 03 27 10 EB  ...%....&....'..
1620: 80 03 28 10 EC 80 27 0F  2A 33 05 01 01 27 0F 2B  ..(...'.*3...'.+
1630: 33 05 01 01 27 0F 2E 33  05 01 01 5B 94 80 29 33  3...'..3...[..)3
1640: 05 01 29 33 05 01 6F 65  30 30 2B 29 33 05 01 F5  ..)3..oe00+)3...
1650: 80 23 BA F0 FF FF 7F F1  80 F2 80 F3 80 F4 80 2A  .#.............*
1660: 0F F0 FF FF 7F BA F0 FF  FF 7F F6 80 F7 80 F8 80  ................
1670: F9 80 55 1A 80 F8 FF FF  7F F8 FF FF 7F 73 32 34  ..U..........s24
1680: 33 03 25 10 FA 80 03 26  10 FB 80 03 27 10 FC 80  3.%....&....'...
1690: 03 28 10 F9 80 27 0F F0  FF FF 7F 05 45 1A 80 F8  .(...'......E...
16A0: FF FF 7F F8 FF FF 7F 73  32 34 35 1B 80 45 22 80  .......s245..E".
16B0: F8 FF FF 7F F8 FF FF 7F  73 65 30 33 1B 80 BA 2E  ........se03....
16C0: 33 05 01 E9 80 EA 80 EB  80 EC 80 2A 0F 2E 33 05  3..........*..3.
16D0: 01 BA 2E 33 05 01 FD 80  FE 80 83 80 FF 80 1C E8  ...3............
16E0: 80 03 25 10 00 81 03 26  10 01 81 03 27 10 02 81  ..%....&....'...
16F0: 03 28 10 03 81 29 0F 2E  33 05 01 01 4B 2E 33 05  .(...)..3...K.3.
1700: 01 03 81 55 1A 80 F8 FF  FF 7F F8 FF FF 7F 73 32  ...U..........s2
1710: 34 35 45 1A 80 F8 FF FF  7F F8 FF FF 7F 73 32 34  45E..........s24
1720: 36 1B 80 55 1A 80 F8 FF  FF 7F F8 FF FF 7F 73 32  6..U..........s2
1730: 34 36 45 1A 80 F8 FF FF  7F F8 FF FF 7F 73 32 34  46E..........s24
1740: 37 1B 80 29 0F F0 FF FF  7F 09 55 1A 80 F8 FF FF  7..)......U.....
1750: 7F F8 FF FF 7F 73 32 34  37 1A D0 18 29 0F F0 FF  .....s247...)...
1760: FF 7F 0A 1C 04 81 20 00  46 00 45 1C 80 F8 FF FF  ...... .F.E.....
1770: 7F F8 FF FF 7F 66 64 69  32 1B 80 21 00           .....fdi2..!.   
```

#### Opcodes

```
  0: 0x0434 [0x42] SET_CLI_EVENT_CANCEL_DATA()
  1: 0x0435 [0x20] SET_CLI_EVENT_UC_FLAG: Lock player control
  2: 0x0437 [0x46] CAMERA_CONTROL: Disable user control
  3: 0x0439 [0x1A] CALL_SUBROUTINE(address=0x18D0)
  4: 0x043C [0x38] SET_CLIENT_EVENT_MODE(mode=19*)
  5: 0x043F [0x29] REQ_SET_WAIT(priority=0x0A, entity_id=Kingslayer Doggvdegg (ID: 17117999/0x0105332F), tag_num=0x04)
  6: 0x0446 [0x29] REQ_SET_WAIT(priority=0x0A, entity_id=Unnamed NPC (ID: 17118001/0x01053331), tag_num=0x04)
  7: 0x044D [0x4E] SET_ENTITY_HIDE_FLAG: Show Zogbog (ID: 17117993/0x01053329)
  8: 0x0453 [0x4E] SET_ENTITY_HIDE_FLAG: Show Unnamed NPC (ID: 17117994/0x0105332A)
  9: 0x0459 [0x4E] SET_ENTITY_HIDE_FLAG: Show Unnamed NPC (ID: 17117995/0x0105332B)
 10: 0x045F [0x4E] SET_ENTITY_HIDE_FLAG: Show Unnamed NPC (ID: 17117996/0x0105332C)
 11: 0x0465 [0x4E] SET_ENTITY_HIDE_FLAG: Show Krudsmud (ID: 17117997/0x0105332D)
 12: 0x046B [0x4E] SET_ENTITY_HIDE_FLAG: Show Unnamed NPC (ID: 17117998/0x0105332E)
 13: 0x0471 [0x4E] SET_ENTITY_HIDE_FLAG: Show Rahal (ID: 17117989/0x01053325)
 14: 0x0477 [0x4E] SET_ENTITY_HIDE_FLAG: Show Cyranuce (ID: 17117990/0x01053326)
 15: 0x047D [0x4E] SET_ENTITY_HIDE_FLAG: Show Machegue (ID: 17117991/0x01053327)
 16: 0x0483 [0x4E] SET_ENTITY_HIDE_FLAG: Show Kingslayer Doggvdegg (ID: 17117999/0x0105332F)
 17: 0x0489 [0x4E] SET_ENTITY_HIDE_FLAG: Show Unnamed NPC (ID: 17118001/0x01053331)
 18: 0x048F [0x4E] SET_ENTITY_HIDE_FLAG: Show Unnamed NPC (ID: 17118000/0x01053330)
 19: 0x0495 [0x92] Rahal (ID: 17117989/0x01053325)->Render.Flags3 ^= 0x01
 20: 0x049B [0x92] Cyranuce (ID: 17117990/0x01053326)->Render.Flags3 ^= 0x01
 21: 0x04A1 [0x92] Machegue (ID: 17117991/0x01053327)->Render.Flags3 ^= 0x01
 22: 0x04A7 [0x92] Zogbog (ID: 17117993/0x01053329)->Render.Flags3 ^= 0x01
 23: 0x04AD [0x92] Unnamed NPC (ID: 17117994/0x0105332A)->Render.Flags3 ^= 0x01
 24: 0x04B3 [0x92] Unnamed NPC (ID: 17117995/0x0105332B)->Render.Flags3 ^= 0x01
 25: 0x04B9 [0x92] Unnamed NPC (ID: 17117996/0x0105332C)->Render.Flags3 ^= 0x01
 26: 0x04BF [0x92] Krudsmud (ID: 17117997/0x0105332D)->Render.Flags3 ^= 0x01
 27: 0x04C5 [0x92] Unnamed NPC (ID: 17117998/0x0105332E)->Render.Flags3 ^= 0x01
 28: 0x04CB [0x92] Kingslayer Doggvdegg (ID: 17117999/0x0105332F)->Render.Flags3 ^= 0x01
 29: 0x04D1 [0x92] Unnamed NPC (ID: 17118001/0x01053331)->Render.Flags3 ^= 0x01
 30: 0x04D7 [0x92] Unnamed NPC (ID: 17118000/0x01053330)->Render.Flags3 ^= 0x01
 31: 0x04DD [0x79] LocalPlayer looks at LocalPlayer (Basic look)
 32: 0x04E7 [0x94] LocalPlayer->Render.Flags3 ^= 0x01
 33: 0x04ED [0x94] Rahal (ID: 17117989/0x01053325)->Render.Flags3 ^= 0x01
 34: 0x04F3 [0x94] Cyranuce (ID: 17117990/0x01053326)->Render.Flags3 ^= 0x01
 35: 0x04F9 [0x94] Machegue (ID: 17117991/0x01053327)->Render.Flags3 ^= 0x01
 36: 0x04FF [0x94] Zogbog (ID: 17117993/0x01053329)->Render.Flags3 ^= 0x01
 37: 0x0505 [0x94] Unnamed NPC (ID: 17117994/0x0105332A)->Render.Flags3 ^= 0x01
 38: 0x050B [0x94] Unnamed NPC (ID: 17117995/0x0105332B)->Render.Flags3 ^= 0x01
 39: 0x0511 [0x94] Unnamed NPC (ID: 17117996/0x0105332C)->Render.Flags3 ^= 0x01
 40: 0x0517 [0x94] Krudsmud (ID: 17117997/0x0105332D)->Render.Flags3 ^= 0x01
 41: 0x051D [0x94] Unnamed NPC (ID: 17117998/0x0105332E)->Render.Flags3 ^= 0x01
 42: 0x0523 [0x94] Kingslayer Doggvdegg (ID: 17117999/0x0105332F)->Render.Flags3 ^= 0x01
 43: 0x0529 [0x94] Unnamed NPC (ID: 17118001/0x01053331)->Render.Flags3 ^= 0x01
 44: 0x052F [0x94] Unnamed NPC (ID: 17118000/0x01053330)->Render.Flags3 ^= 0x01
 45: 0x0535 [0xBA] SET_ENTITY_POSITION(entity_id=LocalPlayer, pos_x=-317.499*, pos_z=-691.970*, pos_y=-39.539*, direction=285.9°*)
 46: 0x0542 [0xBA] SET_ENTITY_POSITION(entity_id=Rahal (ID: 17117989/0x01053325), pos_x=-314.902*, pos_z=-690.778*, pos_y=-39.570*, direction=200.7°*)
 47: 0x054F [0xBA] SET_ENTITY_POSITION(entity_id=Cyranuce (ID: 17117990/0x01053326), pos_x=-317.041*, pos_z=-689.740*, pos_y=-39.648*, direction=394.4°*)
 48: 0x055C [0xBA] SET_ENTITY_POSITION(entity_id=Machegue (ID: 17117991/0x01053327), pos_x=0.000*, pos_z=0.000*, pos_y=3.000*, direction=0.0°*)
 49: 0x0569 [0xBA] SET_ENTITY_POSITION(entity_id=Zogbog (ID: 17117993/0x01053329), pos_x=0.000*, pos_z=0.000*, pos_y=3.000*, direction=0.0°*)
 50: 0x0576 [0xBA] SET_ENTITY_POSITION(entity_id=Unnamed NPC (ID: 17117994/0x0105332A), pos_x=0.000*, pos_z=0.000*, pos_y=3.000*, direction=0.0°*)
 51: 0x0583 [0xBA] SET_ENTITY_POSITION(entity_id=Unnamed NPC (ID: 17117995/0x0105332B), pos_x=0.000*, pos_z=0.000*, pos_y=3.000*, direction=0.0°*)
 52: 0x0590 [0xBA] SET_ENTITY_POSITION(entity_id=Unnamed NPC (ID: 17117996/0x0105332C), pos_x=0.000*, pos_z=0.000*, pos_y=3.000*, direction=0.0°*)
 53: 0x059D [0xBA] SET_ENTITY_POSITION(entity_id=Krudsmud (ID: 17117997/0x0105332D), pos_x=0.000*, pos_z=0.000*, pos_y=3.000*, direction=0.0°*)
 54: 0x05AA [0xBA] SET_ENTITY_POSITION(entity_id=Unnamed NPC (ID: 17117998/0x0105332E), pos_x=0.000*, pos_z=0.000*, pos_y=3.000*, direction=0.0°*)
 55: 0x05B7 [0xBA] SET_ENTITY_POSITION(entity_id=Kingslayer Doggvdegg (ID: 17117999/0x0105332F), pos_x=0.000*, pos_z=0.000*, pos_y=3.000*, direction=0.0°*)
 56: 0x05C4 [0xBA] SET_ENTITY_POSITION(entity_id=Unnamed NPC (ID: 17118001/0x01053331), pos_x=0.000*, pos_z=0.000*, pos_y=3.000*, direction=0.0°*)
 57: 0x05D1 [0xBA] SET_ENTITY_POSITION(entity_id=Unnamed NPC (ID: 17118000/0x01053330), pos_x=0.000*, pos_z=0.000*, pos_y=3.000*, direction=0.0°*)
 58: 0x05DE [0x4A] LocalPlayer looks at Cyranuce (ID: 17117990/0x01053326)
 59: 0x05E7 [0x4A] Rahal (ID: 17117989/0x01053325) looks at Cyranuce (ID: 17117990/0x01053326)
 60: 0x05F0 [0x7B] Rahal (ID: 17117989/0x01053325) stops talking
 61: 0x05F5 [0x80] LOAD_WAIT(entity=LocalPlayer)
 62: 0x05FA [0x80] LOAD_WAIT(entity=Rahal (ID: 17117989/0x01053325))
 63: 0x05FF [0x80] LOAD_WAIT(entity=Cyranuce (ID: 17117990/0x01053326))
 64: 0x0604 [0x80] LOAD_WAIT(entity=Machegue (ID: 17117991/0x01053327))
 65: 0x0609 [0x80] LOAD_WAIT(entity=Zogbog (ID: 17117993/0x01053329))
 66: 0x060E [0x80] LOAD_WAIT(entity=Unnamed NPC (ID: 17117994/0x0105332A))
 67: 0x0613 [0x80] LOAD_WAIT(entity=Unnamed NPC (ID: 17117995/0x0105332B))
 68: 0x0618 [0x80] LOAD_WAIT(entity=Unnamed NPC (ID: 17117996/0x0105332C))
 69: 0x061D [0x80] LOAD_WAIT(entity=Krudsmud (ID: 17117997/0x0105332D))
 70: 0x0622 [0x80] LOAD_WAIT(entity=Unnamed NPC (ID: 17117998/0x0105332E))
 71: 0x0627 [0x80] LOAD_WAIT(entity=Kingslayer Doggvdegg (ID: 17117999/0x0105332F))
 72: 0x062C [0x80] LOAD_WAIT(entity=Unnamed NPC (ID: 17118001/0x01053331))
 73: 0x0631 [0x80] LOAD_WAIT(entity=Unnamed NPC (ID: 17118000/0x01053330))
 74: 0x0636 [0x45] LOAD_SCHEDULED_TASK: Load scheduler "s205" with entities [EventEntity, EventEntity], work=[406*, 0*]
 75: 0x0647 [0x45] LOAD_SCHEDULED_TASK: Load scheduler "load" with entities [EventEntity, EventEntity], work=[407*, 0*]
 76: 0x0658 [0x45] LOAD_SCHEDULED_TASK: Load scheduler "fdi2" with entities [EventEntity, EventEntity], work=[200*, 0*]
 77: 0x0669 [0x5B] LOAD_EXT_SCHEDULER: Load scheduler "mim0" with entities [Cyranuce (ID: 17117990/0x01053326), Cyranuce (ID: 17117990/0x01053326)], work=2443*
 78: 0x0678 [0x55] WAIT_LOAD_SCHEDULER: Wait for scheduler "s205" with entities [EventEntity, EventEntity], work=406*
 79: 0x0687 [0x45] LOAD_SCHEDULED_TASK: Load scheduler "s206" with entities [EventEntity, EventEntity], work=[406*, 0*]
 80: 0x0698 [0x1C] WAIT(120* ticks)
 81: 0x069B [0x45] LOAD_SCHEDULED_TASK: Load scheduler "se01" with entities [EventEntity, EventEntity], work=[407*, 0*]
 82: 0x06AC [0x2B] Cyranuce (ID: 17117990/0x01053326) [7822*]:
    → "Hm? The vibration has taken on a new quality..."
 83: 0x06B3 [0x23] WAIT_FOR_DIALOG_INTERACTION
 84: 0x06B4 [0x52] END_LOAD_SCHEDULER: End scheduler "s206" with entities [EventEntity, EventEntity], work=406*
 85: 0x06C3 [0x45] LOAD_SCHEDULED_TASK: Load scheduler "s207" with entities [EventEntity, EventEntity], work=[406*, 0*]
 86: 0x06D4 [0x45] LOAD_SCHEDULED_TASK: Load scheduler "se02" with entities [EventEntity, EventEntity], work=[407*, 0*]
 87: 0x06E5 [0x1C] WAIT(15* ticks)
 88: 0x06E8 [0xBA] SET_ENTITY_POSITION(entity_id=Machegue (ID: 17117991/0x01053327), pos_x=-318.700*, pos_z=-689.094*, pos_y=-39.716*, direction=9.8°*)
 89: 0x06F5 [0x4A] Machegue (ID: 17117991/0x01053327) looks at Cyranuce (ID: 17117990/0x01053326)
 90: 0x06FE [0x7B] Machegue (ID: 17117991/0x01053327) stops talking
 91: 0x0703 [0x55] WAIT_LOAD_SCHEDULER: Wait for scheduler "s207" with entities [EventEntity, EventEntity], work=406*
 92: 0x0712 [0x2B] Cyranuce (ID: 17117990/0x01053326) [7823*]:
    → "S-something approaches at high speed!"
 93: 0x0719 [0x23] WAIT_FOR_DIALOG_INTERACTION
 94: 0x071A [0x45] LOAD_SCHEDULED_TASK: Load scheduler "s208" with entities [EventEntity, EventEntity], work=[406*, 0*]
 95: 0x072B [0x79] Machegue (ID: 17117991/0x01053327) looks at Cyranuce (ID: 17117990/0x01053326) (Basic look)
 96: 0x0735 [0x2B] Machegue (ID: 17117991/0x01053327) [7824*]:
    → "Cyranuce!"
 97: 0x073C [0x23] WAIT_FOR_DIALOG_INTERACTION
 98: 0x073D [0x55] WAIT_LOAD_SCHEDULER: Wait for scheduler "s208" with entities [EventEntity, EventEntity], work=406*
 99: 0x074C [0x45] LOAD_SCHEDULED_TASK: Load scheduler "s209" with entities [EventEntity, EventEntity], work=[406*, 0*]
100: 0x075D [0xC5] LOAD_SCHEDULED_TASK_ALT3: Load scheduler 0x801B3030 for entities [Cyranuce (ID: 17117990/0x01053326), Cyranuce (ID: 17117990/0x01053326)], work=114*, param=12403
101: 0x076E [0x2B] Cyranuce (ID: 17117990/0x01053326) [7825*]:
    → "Uwaaah!"
102: 0x0775 [0x23] WAIT_FOR_DIALOG_INTERACTION
103: 0x0776 [0xC6] WAIT_LOAD_SCHEDULER_ALT3: Wait for scheduler "s000" with entities [Cyranuce (ID: 17117990/0x01053326), Cyranuce (ID: 17117990/0x01053326)], work=114*
104: 0x0785 [0x52] END_LOAD_SCHEDULER: End scheduler "s209" with entities [EventEntity, EventEntity], work=406*
105: 0x0794 [0x45] LOAD_SCHEDULED_TASK: Load scheduler "s210" with entities [EventEntity, EventEntity], work=[406*, 0*]
106: 0x07A5 [0x5B] LOAD_EXT_SCHEDULER: Load scheduler "mim3" with entities [Cyranuce (ID: 17117990/0x01053326), Cyranuce (ID: 17117990/0x01053326)], work=2443*
107: 0x07B4 [0x2B] Cyranuce (ID: 17117990/0x01053326) [7826*]:
    → "Ma-Machegue? Don't startle me like that!"
108: 0x07BB [0x23] WAIT_FOR_DIALOG_INTERACTION
109: 0x07BC [0x52] END_LOAD_SCHEDULER: End scheduler "s210" with entities [EventEntity, EventEntity], work=406*
110: 0x07CB [0x45] LOAD_SCHEDULED_TASK: Load scheduler "s211" with entities [EventEntity, EventEntity], work=[406*, 0*]
111: 0x07DC [0x03] Work_Zone[37] = 4294650956*
112: 0x07E1 [0x03] Work_Zone[38] = 4294276875*
113: 0x07E6 [0x03] Work_Zone[39] = 4294927699*
114: 0x07EB [0x03] Work_Zone[40] = 2362*
115: 0x07F0 [0x29] REQ_SET_WAIT(priority=0x0F, entity_id=Rahal (ID: 17117989/0x01053325), tag_num=0x05)
116: 0x07F7 [0x4A] Rahal (ID: 17117989/0x01053325) looks at Machegue (ID: 17117991/0x01053327)
117: 0x0800 [0x4A] Machegue (ID: 17117991/0x01053327) looks at Rahal (ID: 17117989/0x01053325)
118: 0x0809 [0x7B] Rahal (ID: 17117989/0x01053325) stops talking
119: 0x080E [0x7B] Machegue (ID: 17117991/0x01053327) stops talking
120: 0x0813 [0x6F] WAIT_FRAME_DELAY: Yield until WaitTime reaches zero
121: 0x0814 [0x76] CHECK_ENTITY_RENDER_FLAGS: Wait until Rahal (ID: 17117989/0x01053325) Render.Flags0 and Render.Flags3 conditions are met
122: 0x0819 [0x5B] LOAD_EXT_SCHEDULER: Load scheduler "tla0" with entities [Rahal (ID: 17117989/0x01053325), Rahal (ID: 17117989/0x01053325)], work=1272*
123: 0x0828 [0x2B] Rahal (ID: 17117989/0x01053325) [7827*]:
    → "We hadn't expected you to return with such haste. Have the Royal Knights been made aware?"
124: 0x082F [0x23] WAIT_FOR_DIALOG_INTERACTION
125: 0x0830 [0x5B] LOAD_EXT_SCHEDULER: Load scheduler "tla1" with entities [Rahal (ID: 17117989/0x01053325), Rahal (ID: 17117989/0x01053325)], work=1272*
126: 0x083F [0x5B] LOAD_EXT_SCHEDULER: Load scheduler "tls0" with entities [Machegue (ID: 17117991/0x01053327), Machegue (ID: 17117991/0x01053327)], work=1272*
127: 0x084E [0x2B] Machegue (ID: 17117991/0x01053327) [7828*]:
    → "Naturally! Now, what of Zogbog?"
128: 0x0855 [0x23] WAIT_FOR_DIALOG_INTERACTION
129: 0x0856 [0x5B] LOAD_EXT_SCHEDULER: Load scheduler "tls1" with entities [Machegue (ID: 17117991/0x01053327), Machegue (ID: 17117991/0x01053327)], work=1272*
130: 0x0865 [0x52] END_LOAD_SCHEDULER: End scheduler "s211" with entities [EventEntity, EventEntity], work=406*
131: 0x0874 [0x45] LOAD_SCHEDULED_TASK: Load scheduler "s213" with entities [EventEntity, EventEntity], work=[406*, 0*]
132: 0x0885 [0x5B] LOAD_EXT_SCHEDULER: Load scheduler "tla0" with entities [Rahal (ID: 17117989/0x01053325), Rahal (ID: 17117989/0x01053325)], work=1272*
133: 0x0894 [0x2B] Rahal (ID: 17117989/0x01053325) [7829*]:
    → "Truth be told, we lost sight of him. We've been trying to regain his trail by--"
134: 0x089B [0x23] WAIT_FOR_DIALOG_INTERACTION
135: 0x089C [0x5B] LOAD_EXT_SCHEDULER: Load scheduler "tla1" with entities [Rahal (ID: 17117989/0x01053325), Rahal (ID: 17117989/0x01053325)], work=1272*
136: 0x08AB [0x52] END_LOAD_SCHEDULER: End scheduler "s213" with entities [EventEntity, EventEntity], work=406*
137: 0x08BA [0x45] LOAD_SCHEDULED_TASK: Load scheduler "s214" with entities [EventEntity, EventEntity], work=[406*, 0*]
138: 0x08CB [0x45] LOAD_SCHEDULED_TASK: Load scheduler "la38" with entities [EventEntity, EventEntity], work=[407*, 0*]
139: 0x08DC [0x55] WAIT_LOAD_SCHEDULER: Wait for scheduler "s214" with entities [EventEntity, EventEntity], work=406*
140: 0x08EB [0x45] LOAD_SCHEDULED_TASK: Load scheduler "s212" with entities [EventEntity, EventEntity], work=[406*, 0*]
141: 0x08FC [0x2B] Cyranuce (ID: 17117990/0x01053326) [7830*]:
    → "Wh-what in the heavens!?"
142: 0x0903 [0x23] WAIT_FOR_DIALOG_INTERACTION
143: 0x0904 [0x1A] CALL_SUBROUTINE(address=0x18D0)
144: 0x0907 [0x45] LOAD_SCHEDULED_TASK: Load scheduler "kl38" with entities [EventEntity, EventEntity], work=[407*, 0*]
145: 0x0918 [0x55] WAIT_LOAD_SCHEDULER: Wait for scheduler "s212" with entities [EventEntity, EventEntity], work=406*
146: 0x0927 [0x6B] STOP_AND_IDLE: Cyranuce (ID: 17117990/0x01053326) stops current action and resets to idle (animation="idl0")
147: 0x0930 [0xBA] SET_ENTITY_POSITION(entity_id=LocalPlayer, pos_x=-308.575*, pos_z=-676.308*, pos_y=-39.520*, direction=184.6°*)
148: 0x093D [0xBA] SET_ENTITY_POSITION(entity_id=Rahal (ID: 17117989/0x01053325), pos_x=-309.255*, pos_z=-675.172*, pos_y=-39.449*, direction=222.9°*)
149: 0x094A [0xBA] SET_ENTITY_POSITION(entity_id=Cyranuce (ID: 17117990/0x01053326), pos_x=-308.149*, pos_z=-675.094*, pos_y=-39.364*, direction=219.5°*)
150: 0x0957 [0xBA] SET_ENTITY_POSITION(entity_id=Machegue (ID: 17117991/0x01053327), pos_x=-307.385*, pos_z=-675.980*, pos_y=-39.425*, direction=184.7°*)
151: 0x0964 [0xBA] SET_ENTITY_POSITION(entity_id=Unnamed NPC (ID: 17118000/0x01053330), pos_x=-322.195*, pos_z=-672.604*, pos_y=-39.846*, direction=37.2°*)
152: 0x0971 [0xBA] SET_ENTITY_POSITION(entity_id=Zogbog (ID: 17117993/0x01053329), pos_x=0.000*, pos_z=0.000*, pos_y=3.000*, direction=0.0°*)
153: 0x097E [0xBA] SET_ENTITY_POSITION(entity_id=Unnamed NPC (ID: 17117994/0x0105332A), pos_x=0.000*, pos_z=0.000*, pos_y=3.000*, direction=0.0°*)
154: 0x098B [0xBA] SET_ENTITY_POSITION(entity_id=Unnamed NPC (ID: 17117995/0x0105332B), pos_x=0.000*, pos_z=0.000*, pos_y=3.000*, direction=0.0°*)
155: 0x0998 [0xBA] SET_ENTITY_POSITION(entity_id=Unnamed NPC (ID: 17117996/0x0105332C), pos_x=0.000*, pos_z=0.000*, pos_y=3.000*, direction=0.0°*)
156: 0x09A5 [0xBA] SET_ENTITY_POSITION(entity_id=Kingslayer Doggvdegg (ID: 17117999/0x0105332F), pos_x=0.000*, pos_z=0.000*, pos_y=3.000*, direction=0.0°*)
157: 0x09B2 [0xBA] SET_ENTITY_POSITION(entity_id=Unnamed NPC (ID: 17118001/0x01053331), pos_x=0.000*, pos_z=0.000*, pos_y=3.000*, direction=0.0°*)
158: 0x09BF [0x5B] LOAD_EXT_SCHEDULER: Load scheduler "shb0" with entities [Rahal (ID: 17117989/0x01053325), Rahal (ID: 17117989/0x01053325)], work=2442*
159: 0x09CE [0x5B] LOAD_EXT_SCHEDULER: Load scheduler "shb0" with entities [Machegue (ID: 17117991/0x01053327), Machegue (ID: 17117991/0x01053327)], work=2442*
160: 0x09DD [0x5B] LOAD_EXT_SCHEDULER: Load scheduler "shb0" with entities [Cyranuce (ID: 17117990/0x01053326), Cyranuce (ID: 17117990/0x01053326)], work=2442*
161: 0x09EC [0x29] REQ_SET_WAIT(priority=0x0A, entity_id=LocalPlayer, tag_num=0x07)
162: 0x09F3 [0x45] LOAD_SCHEDULED_TASK: Load scheduler "s215" with entities [EventEntity, EventEntity], work=[406*, 0*]
163: 0x0A04 [0x45] LOAD_SCHEDULED_TASK: Load scheduler "fdi2" with entities [EventEntity, EventEntity], work=[200*, 0*]
164: 0x0A15 [0x03] Work_Zone[37] = 4294673575*
165: 0x0A1A [0x03] Work_Zone[38] = 4294261111*
166: 0x0A1F [0x03] Work_Zone[39] = 4294928168*
167: 0x0A24 [0x03] Work_Zone[40] = 1509*
168: 0x0A29 [0x27] REQ_SET(priority=0x0F, entity_id=Unnamed NPC (ID: 17118000/0x01053330), tag_num=0x02)
169: 0x0A30 [0x55] WAIT_LOAD_SCHEDULER: Wait for scheduler "s215" with entities [EventEntity, EventEntity], work=406*
170: 0x0A3F [0x45] LOAD_SCHEDULED_TASK: Load scheduler "s216" with entities [EventEntity, EventEntity], work=[406*, 0*]
171: 0x0A50 [0x55] WAIT_LOAD_SCHEDULER: Wait for scheduler "s216" with entities [EventEntity, EventEntity], work=406*
172: 0x0A5F [0x1A] CALL_SUBROUTINE(address=0x18D0)
173: 0x0A62 [0xBA] SET_ENTITY_POSITION(entity_id=Unnamed NPC (ID: 17118000/0x01053330), pos_x=-293.721*, pos_z=-706.185*, pos_y=-39.128*, direction=132.6°*)
174: 0x0A6F [0x2A] GET_REQ_LEVEL(level=15, entity_id=Unnamed NPC (ID: 17118000/0x01053330))
175: 0x0A75 [0xBA] SET_ENTITY_POSITION(entity_id=Unnamed NPC (ID: 17118000/0x01053330), pos_x=-333.805*, pos_z=-663.829*, pos_y=-39.132*, direction=31.2°*)
176: 0x0A82 [0xBA] SET_ENTITY_POSITION(entity_id=Zogbog (ID: 17117993/0x01053329), pos_x=-315.633*, pos_z=-677.043*, pos_y=-39.826*, direction=224.5°*)
177: 0x0A8F [0xBA] SET_ENTITY_POSITION(entity_id=Zogbog (ID: 17117993/0x01053329), pos_x=-315.633*, pos_z=-677.043*, pos_y=-39.826*, direction=224.5°*)
178: 0x0A9C [0xBA] SET_ENTITY_POSITION(entity_id=Unnamed NPC (ID: 17117994/0x0105332A), pos_x=-314.404*, pos_z=-689.693*, pos_y=-39.631*, direction=310.2°*)
179: 0x0AA9 [0xBA] SET_ENTITY_POSITION(entity_id=Unnamed NPC (ID: 17117995/0x0105332B), pos_x=-312.178*, pos_z=-688.479*, pos_y=-39.728*, direction=191.5°*)
180: 0x0AB6 [0xBA] SET_ENTITY_POSITION(entity_id=Kingslayer Doggvdegg (ID: 17117999/0x0105332F), pos_x=-317.755*, pos_z=-679.789*, pos_y=-40.000*, direction=224.5°*)
181: 0x0AC3 [0xBA] SET_ENTITY_POSITION(entity_id=Unnamed NPC (ID: 17118001/0x01053331), pos_x=-319.282*, pos_z=-690.890*, pos_y=-39.639*, direction=274.4°*)
182: 0x0AD0 [0x4A] Zogbog (ID: 17117993/0x01053329) looks at Unnamed NPC (ID: 17118000/0x01053330)
183: 0x0AD9 [0x7B] Zogbog (ID: 17117993/0x01053329) stops talking
184: 0x0ADE [0x4E] SET_ENTITY_HIDE_FLAG: Hide LocalPlayer
185: 0x0AE4 [0x4E] SET_ENTITY_HIDE_FLAG: Hide Rahal (ID: 17117989/0x01053325)
186: 0x0AEA [0x4E] SET_ENTITY_HIDE_FLAG: Hide Cyranuce (ID: 17117990/0x01053326)
187: 0x0AF0 [0x4E] SET_ENTITY_HIDE_FLAG: Hide Machegue (ID: 17117991/0x01053327)
188: 0x0AF6 [0x5B] LOAD_EXT_SCHEDULER: Load scheduler "bcm0" with entities [Zogbog (ID: 17117993/0x01053329), Zogbog (ID: 17117993/0x01053329)], work=2593*
189: 0x0B05 [0x03] Work_Zone[37] = 4294645101*
190: 0x0B0A [0x03] Work_Zone[38] = 4294294692*
191: 0x0B0F [0x03] Work_Zone[39] = 4294927450*
192: 0x0B14 [0x03] Work_Zone[40] = 423*
193: 0x0B19 [0x27] REQ_SET(priority=0x0F, entity_id=Unnamed NPC (ID: 17118000/0x01053330), tag_num=0x07)
194: 0x0B20 [0x45] LOAD_SCHEDULED_TASK: Load scheduler "s217" with entities [EventEntity, EventEntity], work=[406*, 0*]
195: 0x0B31 [0x45] LOAD_SCHEDULED_TASK: Load scheduler "fdi2" with entities [EventEntity, EventEntity], work=[200*, 0*]
196: 0x0B42 [0x1C] WAIT(360* ticks)
197: 0x0B45 [0x5B] LOAD_EXT_SCHEDULER: Load scheduler "bsp0" with entities [Zogbog (ID: 17117993/0x01053329), Zogbog (ID: 17117993/0x01053329)], work=2593*
198: 0x0B54 [0x2B] Zogbog (ID: 17117993/0x01053329) [7831*]:
    → "(Company, halt!)"
199: 0x0B5B [0x23] WAIT_FOR_DIALOG_INTERACTION
200: 0x0B5C [0x2A] GET_REQ_LEVEL(level=15, entity_id=Unnamed NPC (ID: 17118000/0x01053330))
201: 0x0B62 [0x55] WAIT_LOAD_SCHEDULER: Wait for scheduler "s217" with entities [EventEntity, EventEntity], work=406*
202: 0x0B71 [0x5C] MUSIC_CONTROL: Set Idle (Day) music to song 125*
203: 0x0B75 [0x5C] MUSIC_CONTROL: Set Idle (Night) music to song 125*
204: 0x0B79 [0x5C] MUSIC_CONTROL: Set Combat (Solo) music to song 125*
205: 0x0B7D [0x5C] MUSIC_CONTROL: Set Combat (Party) music to song 125*
206: 0x0B81 [0x9A] WAIT_MUSIC_SERVER()
207: 0x0B82 [0x45] LOAD_SCHEDULED_TASK: Load scheduler "s228" with entities [EventEntity, EventEntity], work=[406*, 0*]
208: 0x0B93 [0xC5] LOAD_SCHEDULED_TASK_ALT3: Load scheduler 0x801B3330 for entities [Unnamed NPC (ID: 17118000/0x01053330), Unnamed NPC (ID: 17118000/0x01053330)], work=104*, param=29811
209: 0x0BA4 [0x5B] LOAD_EXT_SCHEDULER: Load scheduler "hou0" with entities [Unnamed NPC (ID: 17118000/0x01053330), Unnamed NPC (ID: 17118000/0x01053330)], work=2372*
210: 0x0BB3 [0x55] WAIT_LOAD_SCHEDULER: Wait for scheduler "s228" with entities [EventEntity, EventEntity], work=406*
211: 0x0BC2 [0x45] LOAD_SCHEDULED_TASK: Load scheduler "s218" with entities [EventEntity, EventEntity], work=[406*, 0*]
212: 0x0BD3 [0x6B] STOP_AND_IDLE: Zogbog (ID: 17117993/0x01053329) stops current action and resets to idle (animation="idl0")
213: 0x0BDC [0x4A] Zogbog (ID: 17117993/0x01053329) looks at Kingslayer Doggvdegg (ID: 17117999/0x0105332F)
214: 0x0BE5 [0x7B] Zogbog (ID: 17117993/0x01053329) stops talking
215: 0x0BEA [0x5B] LOAD_EXT_SCHEDULER: Load scheduler "tlk0" with entities [Kingslayer Doggvdegg (ID: 17117999/0x0105332F), Kingslayer Doggvdegg (ID: 17117999/0x0105332F)], work=2593*
216: 0x0BF9 [0x2B] Kingslayer Doggvdegg (ID: 17117999/0x0105332F) [7832*]:
    → "(You know how control great beast like behemoth. You full of surprise, Zogbog.)"
217: 0x0C00 [0x23] WAIT_FOR_DIALOG_INTERACTION
218: 0x0C01 [0x5B] LOAD_EXT_SCHEDULER: Load scheduler "tlk1" with entities [Kingslayer Doggvdegg (ID: 17117999/0x0105332F), Kingslayer Doggvdegg (ID: 17117999/0x0105332F)], work=2593*
219: 0x0C10 [0x52] END_LOAD_SCHEDULER: End scheduler "s218" with entities [EventEntity, EventEntity], work=406*
220: 0x0C1F [0x45] LOAD_SCHEDULED_TASK: Load scheduler "s219" with entities [EventEntity, EventEntity], work=[406*, 0*]
221: 0x0C30 [0x5B] LOAD_EXT_SCHEDULER: Load scheduler "tlb0" with entities [Zogbog (ID: 17117993/0x01053329), Zogbog (ID: 17117993/0x01053329)], work=225*
222: 0x0C3F [0x2B] Zogbog (ID: 17117993/0x01053329) [7833*]:
    → "(It gladdens me to see you warm up to my plan, my lord. As a sandcastle is leveled by the onrush of the sea, so too will Tavnazia's walls fall to the behemoth's unstoppable onslaught.)"
223: 0x0C46 [0x23] WAIT_FOR_DIALOG_INTERACTION
224: 0x0C47 [0x2B] Zogbog (ID: 17117993/0x01053329) [7834*]:
    → "(We need but capture three--nay, two--more of these hulking creatures, and the Marquisate is as good as ours.)"
225: 0x0C4E [0x23] WAIT_FOR_DIALOG_INTERACTION
226: 0x0C4F [0x5B] LOAD_EXT_SCHEDULER: Load scheduler "def0" with entities [Zogbog (ID: 17117993/0x01053329), Zogbog (ID: 17117993/0x01053329)], work=225*
227: 0x0C5E [0x5B] LOAD_EXT_SCHEDULER: Load scheduler "lkr0" with entities [Kingslayer Doggvdegg (ID: 17117999/0x0105332F), Kingslayer Doggvdegg (ID: 17117999/0x0105332F)], work=1416*
228: 0x0C6D [0x1C] WAIT(90* ticks)
229: 0x0C70 [0x5B] LOAD_EXT_SCHEDULER: Load scheduler "lkrt" with entities [Kingslayer Doggvdegg (ID: 17117999/0x0105332F), Kingslayer Doggvdegg (ID: 17117999/0x0105332F)], work=1416*
230: 0x0C7F [0x2B] Kingslayer Doggvdegg (ID: 17117999/0x0105332F) [7835*]:
    → "(But behemoth too big for ship. How we transport them to destination?)"
231: 0x0C86 [0x23] WAIT_FOR_DIALOG_INTERACTION
232: 0x0C87 [0x5B] LOAD_EXT_SCHEDULER: Load scheduler "lkre" with entities [Kingslayer Doggvdegg (ID: 17117999/0x0105332F), Kingslayer Doggvdegg (ID: 17117999/0x0105332F)], work=1416*
233: 0x0C96 [0x5B] LOAD_EXT_SCHEDULER: Load scheduler "hha0" with entities [Zogbog (ID: 17117993/0x01053329), Zogbog (ID: 17117993/0x01053329)], work=2594*
234: 0x0CA5 [0x2B] Zogbog (ID: 17117993/0x01053329) [7836*]:
    → "(We take them overland, my lord. I have already taken the liberty of making arrangements with our Quadav allies. They will see us through the Pashhow Marshlands unhindered.)"
235: 0x0CAC [0x23] WAIT_FOR_DIALOG_INTERACTION
236: 0x0CAD [0x52] END_LOAD_SCHEDULER: End scheduler "s219" with entities [EventEntity, EventEntity], work=406*
237: 0x0CBC [0x45] LOAD_SCHEDULED_TASK: Load scheduler "s220" with entities [EventEntity, EventEntity], work=[406*, 0*]
238: 0x0CCD [0x5B] LOAD_EXT_SCHEDULER: Load scheduler "lkr1" with entities [Kingslayer Doggvdegg (ID: 17117999/0x0105332F), Kingslayer Doggvdegg (ID: 17117999/0x0105332F)], work=1417*
239: 0x0CDC [0x1C] WAIT(120* ticks)
240: 0x0CDF [0x5B] LOAD_EXT_SCHEDULER: Load scheduler "tlk0" with entities [Kingslayer Doggvdegg (ID: 17117999/0x0105332F), Kingslayer Doggvdegg (ID: 17117999/0x0105332F)], work=2593*
241: 0x0CEE [0x2B] Kingslayer Doggvdegg (ID: 17117999/0x0105332F) [7837*]:
    → "(I see. Pointy-ear not suspect Pashhow route. You prepare well. Very good.)"
242: 0x0CF5 [0x23] WAIT_FOR_DIALOG_INTERACTION
243: 0x0CF6 [0x5B] LOAD_EXT_SCHEDULER: Load scheduler "tlk1" with entities [Kingslayer Doggvdegg (ID: 17117999/0x0105332F), Kingslayer Doggvdegg (ID: 17117999/0x0105332F)], work=2593*
244: 0x0D05 [0x52] END_LOAD_SCHEDULER: End scheduler "s220" with entities [EventEntity, EventEntity], work=406*
245: 0x0D14 [0x45] LOAD_SCHEDULED_TASK: Load scheduler "s221" with entities [EventEntity, EventEntity], work=[406*, 0*]
246: 0x0D25 [0xBA] SET_ENTITY_POSITION(entity_id=Krudsmud (ID: 17117997/0x0105332D), pos_x=-309.254*, pos_z=-686.002*, pos_y=-39.580*, direction=233.8°*)
247: 0x0D32 [0x5B] LOAD_EXT_SCHEDULER: Load scheduler "hha1" with entities [Zogbog (ID: 17117993/0x01053329), Zogbog (ID: 17117993/0x01053329)], work=2594*
248: 0x0D41 [0x2B] Zogbog (ID: 17117993/0x01053329) [7838*]:
    → "(Your words are like balm to me, my lord.)"
249: 0x0D48 [0x23] WAIT_FOR_DIALOG_INTERACTION
250: 0x0D49 [0x4E] SET_ENTITY_HIDE_FLAG: Hide Kingslayer Doggvdegg (ID: 17117999/0x0105332F)
251: 0x0D4F [0x52] END_LOAD_SCHEDULER: End scheduler "s221" with entities [EventEntity, EventEntity], work=406*
252: 0x0D5E [0x45] LOAD_SCHEDULED_TASK: Load scheduler "s222" with entities [EventEntity, EventEntity], work=[406*, 0*]
253: 0x0D6F [0x5D] SET_MUSIC_VOLUME(volume=0*, fade_time=240*)
254: 0x0D74 [0x03] Work_Zone[37] = 4294653899*
255: 0x0D79 [0x03] Work_Zone[38] = 4294286994*
256: 0x0D7E [0x03] Work_Zone[39] = 4294927287*
257: 0x0D83 [0x03] Work_Zone[40] = 2664*
258: 0x0D88 [0x29] REQ_SET_WAIT(priority=0x0F, entity_id=Krudsmud (ID: 17117997/0x0105332D), tag_num=0x01)
259: 0x0D8F [0x4A] Krudsmud (ID: 17117997/0x0105332D) looks at Zogbog (ID: 17117993/0x01053329)
260: 0x0D98 [0x7B] Krudsmud (ID: 17117997/0x0105332D) stops talking
261: 0x0D9D [0x6F] WAIT_FRAME_DELAY: Yield until WaitTime reaches zero
262: 0x0D9E [0x76] CHECK_ENTITY_RENDER_FLAGS: Wait until Krudsmud (ID: 17117997/0x0105332D) Render.Flags0 and Render.Flags3 conditions are met
263: 0x0DA3 [0x5B] LOAD_EXT_SCHEDULER: Load scheduler "tlk0" with entities [Krudsmud (ID: 17117997/0x0105332D), Krudsmud (ID: 17117997/0x0105332D)], work=2593*
264: 0x0DB2 [0x2B] Krudsmud (ID: 17117997/0x0105332D) [7839*]:
    → "(Master Zogbog, me receive news from turtlebacks! Elvaan chocobo unit spotted at Pashhow Marshlands!)"
265: 0x0DB9 [0x23] WAIT_FOR_DIALOG_INTERACTION
266: 0x0DBA [0x5B] LOAD_EXT_SCHEDULER: Load scheduler "tlk1" with entities [Krudsmud (ID: 17117997/0x0105332D), Krudsmud (ID: 17117997/0x0105332D)], work=2593*
267: 0x0DC9 [0x52] END_LOAD_SCHEDULER: End scheduler "s222" with entities [EventEntity, EventEntity], work=406*
268: 0x0DD8 [0x45] LOAD_SCHEDULED_TASK: Load scheduler "s223" with entities [EventEntity, EventEntity], work=[406*, 0*]
269: 0x0DE9 [0x5B] LOAD_EXT_SCHEDULER: Load scheduler "lkl0" with entities [Zogbog (ID: 17117993/0x01053329), Zogbog (ID: 17117993/0x01053329)], work=1416*
270: 0x0DF8 [0x1C] WAIT(90* ticks)
271: 0x0DFB [0x5B] LOAD_EXT_SCHEDULER: Load scheduler "lklt" with entities [Zogbog (ID: 17117993/0x01053329), Zogbog (ID: 17117993/0x01053329)], work=1416*
272: 0x0E0A [0x2B] Zogbog (ID: 17117993/0x01053329) [7840*]:
    → "(A cavalry unit? What markings do they bear?)"
273: 0x0E11 [0x23] WAIT_FOR_DIALOG_INTERACTION
274: 0x0E12 [0x5B] LOAD_EXT_SCHEDULER: Load scheduler "lkle" with entities [Zogbog (ID: 17117993/0x01053329), Zogbog (ID: 17117993/0x01053329)], work=1416*
275: 0x0E21 [0x52] END_LOAD_SCHEDULER: End scheduler "s223" with entities [EventEntity, EventEntity], work=406*
276: 0x0E30 [0x45] LOAD_SCHEDULED_TASK: Load scheduler "s224" with entities [EventEntity, EventEntity], work=[406*, 0*]
277: 0x0E41 [0x5B] LOAD_EXT_SCHEDULER: Load scheduler "thk0" with entities [Krudsmud (ID: 17117997/0x0105332D), Krudsmud (ID: 17117997/0x0105332D)], work=2593*
278: 0x0E50 [0x1C] WAIT(119* ticks)
279: 0x0E53 [0x5B] LOAD_EXT_SCHEDULER: Load scheduler "thk2" with entities [Krudsmud (ID: 17117997/0x0105332D), Krudsmud (ID: 17117997/0x0105332D)], work=2593*
280: 0x0E62 [0x2B] Krudsmud (ID: 17117997/0x0105332D) [7841*]:
    → "(Uh...turtlebacks say animal with two large horns. Not sheep, not buffalo--ah, me remember! Stag! Crest with red stag!)"
281: 0x0E69 [0x23] WAIT_FOR_DIALOG_INTERACTION
282: 0x0E6A [0x5B] LOAD_EXT_SCHEDULER: Load scheduler "thk3" with entities [Krudsmud (ID: 17117997/0x0105332D), Krudsmud (ID: 17117997/0x0105332D)], work=2593*
283: 0x0E79 [0x52] END_LOAD_SCHEDULER: End scheduler "s224" with entities [EventEntity, EventEntity], work=406*
284: 0x0E88 [0x45] LOAD_SCHEDULED_TASK: Load scheduler "s225" with entities [EventEntity, EventEntity], work=[406*, 0*]
285: 0x0E99 [0x5B] LOAD_EXT_SCHEDULER: Load scheduler "lkl1" with entities [Zogbog (ID: 17117993/0x01053329), Zogbog (ID: 17117993/0x01053329)], work=1417*
286: 0x0EA8 [0x1C] WAIT(30* ticks)
287: 0x0EAB [0x5B] LOAD_EXT_SCHEDULER: Load scheduler "lkr0" with entities [Zogbog (ID: 17117993/0x01053329), Zogbog (ID: 17117993/0x01053329)], work=1416*
288: 0x0EBA [0x1C] WAIT(90* ticks)
289: 0x0EBD [0x5B] LOAD_EXT_SCHEDULER: Load scheduler "lkrt" with entities [Zogbog (ID: 17117993/0x01053329), Zogbog (ID: 17117993/0x01053329)], work=1416*
290: 0x0ECC [0x2B] Zogbog (ID: 17117993/0x01053329) [7842*]:
    → "(Th-the Knights of the Cardinal Stag!?)"
291: 0x0ED3 [0x23] WAIT_FOR_DIALOG_INTERACTION
292: 0x0ED4 [0x2B] Zogbog (ID: 17117993/0x01053329) [7843*]:
    → "(Ack! Of all the enemy units prowling the wilderness, it had to be one of their elite!)"
293: 0x0EDB [0x23] WAIT_FOR_DIALOG_INTERACTION
294: 0x0EDC [0x2B] Zogbog (ID: 17117993/0x01053329) [7844*]:
    → "(And I dare not pit this beauty in battle prematurely and risk losing it in a stampede...)"
295: 0x0EE3 [0x23] WAIT_FOR_DIALOG_INTERACTION
296: 0x0EE4 [0x55] WAIT_LOAD_SCHEDULER: Wait for scheduler "s225" with entities [EventEntity, EventEntity], work=406*
297: 0x0EF3 [0x45] LOAD_SCHEDULED_TASK: Load scheduler "s226" with entities [EventEntity, EventEntity], work=[406*, 0*]
298: 0x0F04 [0x5B] LOAD_EXT_SCHEDULER: Load scheduler "lkre" with entities [Zogbog (ID: 17117993/0x01053329), Zogbog (ID: 17117993/0x01053329)], work=1416*
299: 0x0F13 [0x5B] LOAD_EXT_SCHEDULER: Load scheduler "lkr1" with entities [Zogbog (ID: 17117993/0x01053329), Zogbog (ID: 17117993/0x01053329)], work=1417*
300: 0x0F22 [0x1C] WAIT(30* ticks)
301: 0x0F25 [0x5B] LOAD_EXT_SCHEDULER: Load scheduler "lkl0" with entities [Zogbog (ID: 17117993/0x01053329), Zogbog (ID: 17117993/0x01053329)], work=1416*
302: 0x0F34 [0x1C] WAIT(90* ticks)
303: 0x0F37 [0x5B] LOAD_EXT_SCHEDULER: Load scheduler "lklt" with entities [Zogbog (ID: 17117993/0x01053329), Zogbog (ID: 17117993/0x01053329)], work=1416*
304: 0x0F46 [0x2B] Zogbog (ID: 17117993/0x01053329) [7845*]:
    → "(You. Make haste to the Pashhow Marshlands and return once you've verified the Quadav's report with your own eyes.)"
305: 0x0F4D [0x23] WAIT_FOR_DIALOG_INTERACTION
306: 0x0F4E [0x5B] LOAD_EXT_SCHEDULER: Load scheduler "lkle" with entities [Zogbog (ID: 17117993/0x01053329), Zogbog (ID: 17117993/0x01053329)], work=1416*
307: 0x0F5D [0x52] END_LOAD_SCHEDULER: End scheduler "s226" with entities [EventEntity, EventEntity], work=406*
308: 0x0F6C [0x45] LOAD_SCHEDULED_TASK: Load scheduler "s227" with entities [EventEntity, EventEntity], work=[406*, 0*]
309: 0x0F7D [0x5B] LOAD_EXT_SCHEDULER: Load scheduler "thk1" with entities [Krudsmud (ID: 17117997/0x0105332D), Krudsmud (ID: 17117997/0x0105332D)], work=2593*
310: 0x0F8C [0xBA] SET_ENTITY_POSITION(entity_id=Rahal (ID: 17117989/0x01053325), pos_x=-327.200*, pos_z=-680.278*, pos_y=-39.858*, direction=343.7°*)
311: 0x0F99 [0xBA] SET_ENTITY_POSITION(entity_id=Cyranuce (ID: 17117990/0x01053326), pos_x=-328.015*, pos_z=-679.313*, pos_y=-39.762*, direction=17.1°*)
312: 0x0FA6 [0xBA] SET_ENTITY_POSITION(entity_id=Machegue (ID: 17117991/0x01053327), pos_x=-328.539*, pos_z=-680.692*, pos_y=-39.813*, direction=349.4°*)
313: 0x0FB3 [0xBA] SET_ENTITY_POSITION(entity_id=LocalPlayer, pos_x=-329.234*, pos_z=-679.618*, pos_y=-39.735*, direction=33.8°*)
314: 0x0FC0 [0x6B] STOP_AND_IDLE: LocalPlayer stops current action and resets to idle (animation="idl0")
315: 0x0FC9 [0x6B] STOP_AND_IDLE: Rahal (ID: 17117989/0x01053325) stops current action and resets to idle (animation="idl0")
316: 0x0FD2 [0x6B] STOP_AND_IDLE: Cyranuce (ID: 17117990/0x01053326) stops current action and resets to idle (animation="idl0")
317: 0x0FDB [0x6B] STOP_AND_IDLE: Machegue (ID: 17117991/0x01053327) stops current action and resets to idle (animation="idl0")
318: 0x0FE4 [0x4E] SET_ENTITY_HIDE_FLAG: Show LocalPlayer
319: 0x0FEA [0x4E] SET_ENTITY_HIDE_FLAG: Show Rahal (ID: 17117989/0x01053325)
320: 0x0FF0 [0x4E] SET_ENTITY_HIDE_FLAG: Show Cyranuce (ID: 17117990/0x01053326)
321: 0x0FF6 [0x4E] SET_ENTITY_HIDE_FLAG: Show Machegue (ID: 17117991/0x01053327)
322: 0x0FFC [0x4A] LocalPlayer looks at Zogbog (ID: 17117993/0x01053329)
323: 0x1005 [0x4A] Rahal (ID: 17117989/0x01053325) looks at Zogbog (ID: 17117993/0x01053329)
324: 0x100E [0x4A] Cyranuce (ID: 17117990/0x01053326) looks at Zogbog (ID: 17117993/0x01053329)
325: 0x1017 [0x4A] Machegue (ID: 17117991/0x01053327) looks at Zogbog (ID: 17117993/0x01053329)
326: 0x1020 [0x79] LocalPlayer looks at LocalPlayer (Basic look)
327: 0x102A [0x7B] Rahal (ID: 17117989/0x01053325) stops talking
328: 0x102F [0x7B] Cyranuce (ID: 17117990/0x01053326) stops talking
329: 0x1034 [0x7B] Machegue (ID: 17117991/0x01053327) stops talking
330: 0x1039 [0x1C] WAIT(80* ticks)
331: 0x103C [0x5B] LOAD_EXT_SCHEDULER: Load scheduler "yes0" with entities [Krudsmud (ID: 17117997/0x0105332D), Krudsmud (ID: 17117997/0x0105332D)], work=2593*
332: 0x104B [0x1C] WAIT(160* ticks)
333: 0x104E [0x52] END_LOAD_SCHEDULER: End scheduler "s227" with entities [EventEntity, EventEntity], work=406*
334: 0x105D [0x45] LOAD_SCHEDULED_TASK: Load scheduler "s229" with entities [EventEntity, EventEntity], work=[406*, 0*]
335: 0x106E [0x55] WAIT_LOAD_SCHEDULER: Wait for scheduler "s229" with entities [EventEntity, EventEntity], work=406*
336: 0x107D [0x45] LOAD_SCHEDULED_TASK: Load scheduler "s230" with entities [EventEntity, EventEntity], work=[406*, 0*]
337: 0x108E [0x5B] LOAD_EXT_SCHEDULER: Load scheduler "tla0" with entities [Machegue (ID: 17117991/0x01053327), Machegue (ID: 17117991/0x01053327)], work=1272*
338: 0x109D [0x2B] Machegue (ID: 17117991/0x01053327) [7846*]:
    → "The Knights of the Cardinal Stag... Isn't that--?"
339: 0x10A4 [0x23] WAIT_FOR_DIALOG_INTERACTION
340: 0x10A5 [0x5B] LOAD_EXT_SCHEDULER: Load scheduler "tla1" with entities [Machegue (ID: 17117991/0x01053327), Machegue (ID: 17117991/0x01053327)], work=1272*
341: 0x10B4 [0x4A] Rahal (ID: 17117989/0x01053325) looks at Machegue (ID: 17117991/0x01053327)
342: 0x10BD [0x4A] Machegue (ID: 17117991/0x01053327) looks at Rahal (ID: 17117989/0x01053325)
343: 0x10C6 [0x4A] Cyranuce (ID: 17117990/0x01053326) looks at Rahal (ID: 17117989/0x01053325)
344: 0x10CF [0x4A] LocalPlayer looks at Rahal (ID: 17117989/0x01053325)
345: 0x10D8 [0x7B] Cyranuce (ID: 17117990/0x01053326) stops talking
346: 0x10DD [0x7B] Rahal (ID: 17117989/0x01053325) stops talking
347: 0x10E2 [0x7B] Machegue (ID: 17117991/0x01053327) stops talking
348: 0x10E7 [0x52] END_LOAD_SCHEDULER: End scheduler "s230" with entities [EventEntity, EventEntity], work=406*
349: 0x10F6 [0x45] LOAD_SCHEDULED_TASK: Load scheduler "s231" with entities [EventEntity, EventEntity], work=[406*, 0*]
350: 0x1107 [0x6F] WAIT_FRAME_DELAY: Yield until WaitTime reaches zero
351: 0x1108 [0x76] CHECK_ENTITY_RENDER_FLAGS: Wait until Rahal (ID: 17117989/0x01053325) Render.Flags0 and Render.Flags3 conditions are met
352: 0x110D [0x5B] LOAD_EXT_SCHEDULER: Load scheduler "tlb0" with entities [Rahal (ID: 17117989/0x01053325), Rahal (ID: 17117989/0x01053325)], work=1272*
353: 0x111C [0x2B] Rahal (ID: 17117989/0x01053325) [7847*]:
    → "The unit led by Excenmille's father, yes. But why would they be at the Pashhow Marshlands?"
354: 0x1123 [0x23] WAIT_FOR_DIALOG_INTERACTION
355: 0x1124 [0x5B] LOAD_EXT_SCHEDULER: Load scheduler "tlb1" with entities [Rahal (ID: 17117989/0x01053325), Rahal (ID: 17117989/0x01053325)], work=1272*
356: 0x1133 [0x52] END_LOAD_SCHEDULER: End scheduler "s231" with entities [EventEntity, EventEntity], work=406*
357: 0x1142 [0x45] LOAD_SCHEDULED_TASK: Load scheduler "s232" with entities [EventEntity, EventEntity], work=[406*, 0*]
358: 0x1153 [0x5B] LOAD_EXT_SCHEDULER: Load scheduler "tla0" with entities [Cyranuce (ID: 17117990/0x01053326), Cyranuce (ID: 17117990/0x01053326)], work=1272*
359: 0x1162 [0x2B] Cyranuce (ID: 17117990/0x01053326) [7848*]:
    → "The answer to that question can wait. We must report the nature of this new Orcish threat to the Kingdom, posthaste!"
360: 0x1169 [0x23] WAIT_FOR_DIALOG_INTERACTION
361: 0x116A [0x5B] LOAD_EXT_SCHEDULER: Load scheduler "tla1" with entities [Cyranuce (ID: 17117990/0x01053326), Cyranuce (ID: 17117990/0x01053326)], work=1272*
362: 0x1179 [0x52] END_LOAD_SCHEDULER: End scheduler "s232" with entities [EventEntity, EventEntity], work=406*
363: 0x1188 [0x45] LOAD_SCHEDULED_TASK: Load scheduler "s233" with entities [EventEntity, EventEntity], work=[406*, 0*]
364: 0x1199 [0x5B] LOAD_EXT_SCHEDULER: Load scheduler "yes0" with entities [Rahal (ID: 17117989/0x01053325), Rahal (ID: 17117989/0x01053325)], work=2349*
365: 0x11A8 [0x2B] Rahal (ID: 17117989/0x01053325) [7849*]:
    → "You're right, of course. But by the time we arrive in San d'Oria, the Orcs may well have finished crossing the marshlands..."
366: 0x11AF [0x23] WAIT_FOR_DIALOG_INTERACTION
367: 0x11B0 [0x5B] LOAD_EXT_SCHEDULER: Load scheduler "tla0" with entities [Machegue (ID: 17117991/0x01053327), Machegue (ID: 17117991/0x01053327)], work=1272*
368: 0x11BF [0x2B] Machegue (ID: 17117991/0x01053327) [7850*]:
    → "Cyranuce. Suppose we took word to Excenmille's father instead?"
369: 0x11C6 [0x23] WAIT_FOR_DIALOG_INTERACTION
370: 0x11C7 [0x5B] LOAD_EXT_SCHEDULER: Load scheduler "tla1" with entities [Machegue (ID: 17117991/0x01053327), Machegue (ID: 17117991/0x01053327)], work=1272*
371: 0x11D6 [0x2B] Cyranuce (ID: 17117990/0x01053326) [7851*]:
    → "Hmm... If the Cardinal Stags are indeed at the Pashhow Marshlands as the Orcs say, it would certainly save us a great deal of time."
372: 0x11DD [0x23] WAIT_FOR_DIALOG_INTERACTION
373: 0x11DE [0x1C] WAIT(120* ticks)
374: 0x11E1 [0x55] WAIT_LOAD_SCHEDULER: Wait for scheduler "s233" with entities [EventEntity, EventEntity], work=406*
375: 0x11F0 [0x45] LOAD_SCHEDULED_TASK: Load scheduler "s234" with entities [EventEntity, EventEntity], work=[406*, 0*]
376: 0x1201 [0xC5] LOAD_SCHEDULED_TASK_ALT3: Load scheduler 0x801B3130 for entities [Machegue (ID: 17117991/0x01053327), Machegue (ID: 17117991/0x01053327)], work=114*, param=12403
377: 0x1212 [0x5B] LOAD_EXT_SCHEDULER: Load scheduler "tla0" with entities [Rahal (ID: 17117989/0x01053325), Rahal (ID: 17117989/0x01053325)], work=1272*
378: 0x1221 [0x2B] Rahal (ID: 17117989/0x01053325) [7852*]:
    → "...This is what we'll do."
379: 0x1228 [0x23] WAIT_FOR_DIALOG_INTERACTION
380: 0x1229 [0x5B] LOAD_EXT_SCHEDULER: Load scheduler "tla1" with entities [Rahal (ID: 17117989/0x01053325), Rahal (ID: 17117989/0x01053325)], work=1272*
381: 0x1238 [0x5B] LOAD_EXT_SCHEDULER: Load scheduler "tla0" with entities [Rahal (ID: 17117989/0x01053325), Rahal (ID: 17117989/0x01053325)], work=1272*
382: 0x1247 [0x2B] Rahal (ID: 17117989/0x01053325) [7853*]:
    → "I want you three to head to the Pashhow Marshlands and seek out the Cardinal Stags."
383: 0x124E [0x23] WAIT_FOR_DIALOG_INTERACTION
384: 0x124F [0x5B] LOAD_EXT_SCHEDULER: Load scheduler "tla1" with entities [Rahal (ID: 17117989/0x01053325), Rahal (ID: 17117989/0x01053325)], work=1272*
385: 0x125E [0x52] END_LOAD_SCHEDULER: End scheduler "s234" with entities [EventEntity, EventEntity], work=406*
386: 0x126D [0x45] LOAD_SCHEDULED_TASK: Load scheduler "s235" with entities [EventEntity, EventEntity], work=[406*, 0*]
387: 0x127E [0x2B] Cyranuce (ID: 17117990/0x01053326) [7854*]:
    → "Understood. And what of you, Rahal?"
388: 0x1285 [0x23] WAIT_FOR_DIALOG_INTERACTION
389: 0x1286 [0x5B] LOAD_EXT_SCHEDULER: Load scheduler "tla0" with entities [Rahal (ID: 17117989/0x01053325), Rahal (ID: 17117989/0x01053325)], work=1272*
390: 0x1295 [0x2B] Rahal (ID: 17117989/0x01053325) [7855*]:
    → "I shall return to San d'Oria and bring this matter of behemoths to the attention of General Cousseraux."
391: 0x129C [0x23] WAIT_FOR_DIALOG_INTERACTION
392: 0x129D [0x5B] LOAD_EXT_SCHEDULER: Load scheduler "tla1" with entities [Rahal (ID: 17117989/0x01053325), Rahal (ID: 17117989/0x01053325)], work=1272*
393: 0x12AC [0x52] END_LOAD_SCHEDULER: End scheduler "s235" with entities [EventEntity, EventEntity], work=406*
394: 0x12BB [0x45] LOAD_SCHEDULED_TASK: Load scheduler "s238" with entities [EventEntity, EventEntity], work=[406*, 0*]
395: 0x12CC [0x5B] LOAD_EXT_SCHEDULER: Load scheduler "tla0" with entities [Rahal (ID: 17117989/0x01053325), Rahal (ID: 17117989/0x01053325)], work=1272*
396: 0x12DB [0x2B] Rahal (ID: 17117989/0x01053325) [7856*]:
    → "With any luck, I myself will be at the marshlands before long after having prevailed upon the general to deploy a strike force."
397: 0x12E2 [0x23] WAIT_FOR_DIALOG_INTERACTION
398: 0x12E3 [0x5B] LOAD_EXT_SCHEDULER: Load scheduler "tla1" with entities [Rahal (ID: 17117989/0x01053325), Rahal (ID: 17117989/0x01053325)], work=1272*
399: 0x12F2 [0x4A] Cyranuce (ID: 17117990/0x01053326) looks at Rahal (ID: 17117989/0x01053325)
400: 0x12FB [0x4A] Machegue (ID: 17117991/0x01053327) looks at Rahal (ID: 17117989/0x01053325)
401: 0x1304 [0x7B] Cyranuce (ID: 17117990/0x01053326) stops talking
402: 0x1309 [0x7B] Machegue (ID: 17117991/0x01053327) stops talking
403: 0x130E [0x5B] LOAD_EXT_SCHEDULER: Load scheduler "tla0" with entities [Cyranuce (ID: 17117990/0x01053326), Cyranuce (ID: 17117990/0x01053326)], work=1272*
404: 0x131D [0x2B] Cyranuce (ID: 17117990/0x01053326) [7857*]:
    → "Okay!"
405: 0x1324 [0x23] WAIT_FOR_DIALOG_INTERACTION
406: 0x1325 [0x5B] LOAD_EXT_SCHEDULER: Load scheduler "tla1" with entities [Cyranuce (ID: 17117990/0x01053326), Cyranuce (ID: 17117990/0x01053326)], work=1272*
407: 0x1334 [0x5B] LOAD_EXT_SCHEDULER: Load scheduler "tla0" with entities [Machegue (ID: 17117991/0x01053327), Machegue (ID: 17117991/0x01053327)], work=1272*
408: 0x1343 [0x2B] Machegue (ID: 17117991/0x01053327) [7858*]:
    → "Please send our regards to Rholont!"
409: 0x134A [0x23] WAIT_FOR_DIALOG_INTERACTION
410: 0x134B [0x5B] LOAD_EXT_SCHEDULER: Load scheduler "tla1" with entities [Machegue (ID: 17117991/0x01053327), Machegue (ID: 17117991/0x01053327)], work=1272*
411: 0x135A [0x5B] LOAD_EXT_SCHEDULER: Load scheduler 0xFEFEFE00 with entities [Machegue (ID: 17117991/0x01053327), Machegue (ID: 17117991/0x01053327)], work=2444*
412: 0x1369 [0x52] END_LOAD_SCHEDULER: End scheduler "s238" with entities [EventEntity, EventEntity], work=406*
413: 0x1378 [0x45] LOAD_SCHEDULED_TASK: Load scheduler "s239" with entities [EventEntity, EventEntity], work=[406*, 0*]
414: 0x1389 [0xC5] LOAD_SCHEDULED_TASK_ALT3: Load scheduler 0x801B3230 for entities [Machegue (ID: 17117991/0x01053327), Machegue (ID: 17117991/0x01053327)], work=114*, param=12403
415: 0x139A [0xBA] SET_ENTITY_POSITION(entity_id=Zogbog (ID: 17117993/0x01053329), pos_x=-319.768*, pos_z=-681.594*, pos_y=-40.000*, direction=127.5°*)
416: 0x13A7 [0xBA] SET_ENTITY_POSITION(entity_id=Unnamed NPC (ID: 17117994/0x0105332A), pos_x=-316.569*, pos_z=-677.896*, pos_y=-39.877*, direction=149.4°*)
417: 0x13B4 [0xBA] SET_ENTITY_POSITION(entity_id=Unnamed NPC (ID: 17117995/0x0105332B), pos_x=-313.187*, pos_z=-678.992*, pos_y=-39.933*, direction=144.0°*)
418: 0x13C1 [0xBA] SET_ENTITY_POSITION(entity_id=Unnamed NPC (ID: 17117998/0x0105332E), pos_x=-314.036*, pos_z=-682.388*, pos_y=-40.000*, direction=147.7°*)
419: 0x13CE [0x6B] STOP_AND_IDLE: Zogbog (ID: 17117993/0x01053329) stops current action and resets to idle (animation="idl0")
420: 0x13D7 [0x55] WAIT_LOAD_SCHEDULER: Wait for scheduler "s239" with entities [EventEntity, EventEntity], work=406*
421: 0x13E6 [0x45] LOAD_SCHEDULED_TASK: Load scheduler "s240" with entities [EventEntity, EventEntity], work=[406*, 0*]
422: 0x13F7 [0x5B] LOAD_EXT_SCHEDULER: Load scheduler "lkr0" with entities [Zogbog (ID: 17117993/0x01053329), Zogbog (ID: 17117993/0x01053329)], work=1416*
423: 0x1406 [0x4A] Rahal (ID: 17117989/0x01053325) looks at Zogbog (ID: 17117993/0x01053329)
424: 0x140F [0x4A] Cyranuce (ID: 17117990/0x01053326) looks at Zogbog (ID: 17117993/0x01053329)
425: 0x1418 [0x4A] Machegue (ID: 17117991/0x01053327) looks at Zogbog (ID: 17117993/0x01053329)
426: 0x1421 [0x4A] LocalPlayer looks at Zogbog (ID: 17117993/0x01053329)
427: 0x142A [0x7B] Rahal (ID: 17117989/0x01053325) stops talking
428: 0x142F [0x7B] Cyranuce (ID: 17117990/0x01053326) stops talking
429: 0x1434 [0x7B] Machegue (ID: 17117991/0x01053327) stops talking
430: 0x1439 [0xC5] LOAD_SCHEDULED_TASK_ALT3: Load scheduler 0x801B326C for entities [Machegue (ID: 17117991/0x01053327), Machegue (ID: 17117991/0x01053327)], work=114*, param=26987
431: 0x144A [0x1C] WAIT(90* ticks)
432: 0x144D [0x5B] LOAD_EXT_SCHEDULER: Load scheduler "lkrt" with entities [Zogbog (ID: 17117993/0x01053329), Zogbog (ID: 17117993/0x01053329)], work=1416*
433: 0x145C [0x2B] Zogbog (ID: 17117993/0x01053329) [7859*]:
    → "Who goes there!?"
434: 0x1463 [0x23] WAIT_FOR_DIALOG_INTERACTION
435: 0x1464 [0x5B] LOAD_EXT_SCHEDULER: Load scheduler "lkre" with entities [Zogbog (ID: 17117993/0x01053329), Zogbog (ID: 17117993/0x01053329)], work=1416*
436: 0x1473 [0x55] WAIT_LOAD_SCHEDULER: Wait for scheduler "s240" with entities [EventEntity, EventEntity], work=406*
437: 0x1482 [0x5C] MUSIC_CONTROL: Set Idle (Day) music to song 247*
438: 0x1486 [0x5C] MUSIC_CONTROL: Set Idle (Night) music to song 247*
439: 0x148A [0x5C] MUSIC_CONTROL: Set Combat (Solo) music to song 247*
440: 0x148E [0x5C] MUSIC_CONTROL: Set Combat (Party) music to song 247*
441: 0x1492 [0x9A] WAIT_MUSIC_SERVER()
442: 0x1493 [0x5B] LOAD_EXT_SCHEDULER: Load scheduler 0xFEFEFE00 with entities [Rahal (ID: 17117989/0x01053325), Rahal (ID: 17117989/0x01053325)], work=1437*
443: 0x14A2 [0x45] LOAD_SCHEDULED_TASK: Load scheduler "s241" with entities [EventEntity, EventEntity], work=[406*, 0*]
