# 17117955 - Leadavox

## Common Data

| Field            | Value                      |
|------------------|----------------------------|
| Zone             | Vunkerl Inlet [S] (ID: 83) |
| Block Size       | 272 bytes                  |
| Total Events     | 9                          |
| References Count | 11                         |

## List of Events

| Event ID                 | Entrypoint   |   Size |   Instructions |
|--------------------------|--------------|--------|----------------|
| [65535](#event-65535)    | 0x0000       |      1 |              1 |
| [100](#event-100)        | 0x0001       |     33 |              9 |
| [101](#event-101)        | 0x0022       |      1 |              1 |
| [102](#event-102)        | 0x0023       |     39 |              9 |
| [103](#event-103)        | 0x004A       |      1 |              1 |
| [104](#event-104)        | 0x004B       |     34 |              8 |
| [65535.1](#event-655351) | 0x006D       |     29 |              7 |
| [4](#event-4)            | 0x008A       |      7 |              2 |
| [5](#event-5)            | 0x0091       |     29 |              7 |

## DAT References (imed_data)

|   Index | Hex Value   |   Dec Value |
|---------|-------------|-------------|
|       0 | 0x001E      |          30 |
|       1 | 0x00D7      |         215 |
|       2 | 0x1E26      |        7718 |
|       3 | 0x1E27      |        7719 |
|       4 | 0x09D9      |        2521 |
|       5 | 0x0397      |         919 |
|       6 | 0x1E23      |        7715 |
|       7 | 0x00D8      |         216 |
|       8 | 0x1E25      |        7717 |
|       9 | 0x1FE3      |        8163 |
|      10 | 0x1FA8      |        8104 |

## String References

- **7715**: You bring me $0, you'll get the $3.
- **7717**: The Gigas love these $0. They'll tell me all sortsa secrets now. Leadavox is their little buddy.
- **7718**: The Gigas worship their champions.
- **7719**: Mimas is one of the strongest Gigas. You make him mad, he'll twist your head clean off.
- **8104**: Add a pinch of this, if you're having a good time.t And a dash of that, if ya know that ya feel fine.t
- **8163**: Leada's wax to save the day...t Keep yer secrets tucked safe away...t

## Events

### Event 65535

#### Metadata

| Field        | Value   |
|--------------|---------|
| Entrypoint   | 0x0000  |
| Data Size    | 1 bytes |
| Instructions | 1       |

```
      00 01 02 03 04 05 06 07  08 09 0A 0B 0C 0D 0E 0F
      -- -- -- -- -- -- -- --  -- -- -- -- -- -- -- --
0000: 00                                                .               
```

#### Opcodes

```
  0: 0x0000 [0x00] END_REQSTACK()
```

### Event 100

#### Metadata

| Field        | Value    |
|--------------|----------|
| Entrypoint   | 0x0001   |
| Data Size    | 33 bytes |
| Instructions | 9        |

```
      00 01 02 03 04 05 06 07  08 09 0A 0B 0C 0D 0E 0F
      -- -- -- -- -- -- -- --  -- -- -- -- -- -- -- --
0000:    1E F0 FF FF 7F 1C 00  80 5B 01 80 03 33 05 01   ........[...3..
0010: 03 33 05 01 74 6C 6B 30  1D 02 80 23 1D 03 80 23  .3..tlk0...#...#
0020: 21 00                                             !.              
```

#### Opcodes

```
  0: 0x0001 [0x1E] EventEntity looks at LocalPlayer and starts talking
  1: 0x0006 [0x1C] WAIT(30* ticks)
  2: 0x0009 [0x5B] LOAD_EXT_SCHEDULER: Load scheduler "tlk0" with entities [Leadavox (ID: 17117955/0x01053303), Leadavox (ID: 17117955/0x01053303)], work=215*
  3: 0x0018 [0x1D] PRINT_EVENT_MESSAGE(message_id=7718*)
    → "The Gigas worship their champions."
  4: 0x001B [0x23] WAIT_FOR_DIALOG_INTERACTION
  5: 0x001C [0x1D] PRINT_EVENT_MESSAGE(message_id=7719*)
    → "Mimas is one of the strongest Gigas. You make him mad, he'll twist your head clean off."
  6: 0x001F [0x23] WAIT_FOR_DIALOG_INTERACTION
  7: 0x0020 [0x21] END_EVENT
  8: 0x0021 [0x00] END_REQSTACK()
```

### Event 101

#### Metadata

| Field        | Value   |
|--------------|---------|
| Entrypoint   | 0x0022  |
| Data Size    | 1 bytes |
| Instructions | 1       |

```
      00 01 02 03 04 05 06 07  08 09 0A 0B 0C 0D 0E 0F
      -- -- -- -- -- -- -- --  -- -- -- -- -- -- -- --
0020:       00                                            .             
```

#### Opcodes

```
  0: 0x0022 [0x00] END_REQSTACK()
```

### Event 102

#### Metadata

| Field        | Value    |
|--------------|----------|
| Entrypoint   | 0x0023   |
| Data Size    | 39 bytes |
| Instructions | 9        |

```
      00 01 02 03 04 05 06 07  08 09 0A 0B 0C 0D 0E 0F
      -- -- -- -- -- -- -- --  -- -- -- -- -- -- -- --
0020:          1E F0 FF FF 7F  1C 00 80 5B 01 80 03 33     ........[...3
0030: 05 01 03 33 05 01 74 6C  6B 30 03 02 10 04 80 03  ...3..tlk0......
0040: 03 10 05 80 1D 06 80 23  21 00                    .......#!.      
```

#### Opcodes

```
  0: 0x0023 [0x1E] EventEntity looks at LocalPlayer and starts talking
  1: 0x0028 [0x1C] WAIT(30* ticks)
  2: 0x002B [0x5B] LOAD_EXT_SCHEDULER: Load scheduler "tlk0" with entities [Leadavox (ID: 17117955/0x01053303), Leadavox (ID: 17117955/0x01053303)], work=215*
  3: 0x003A [0x03] Work_Zone[2] = 2521*
  4: 0x003F [0x03] Work_Zone[3] = 919*
  5: 0x0044 [0x1D] PRINT_EVENT_MESSAGE(message_id=7715*)
    → "You bring me $0, you'll get the $3."
  6: 0x0047 [0x23] WAIT_FOR_DIALOG_INTERACTION
  7: 0x0048 [0x21] END_EVENT
  8: 0x0049 [0x00] END_REQSTACK()
```

### Event 103

#### Metadata

| Field        | Value   |
|--------------|---------|
| Entrypoint   | 0x004A  |
| Data Size    | 1 bytes |
| Instructions | 1       |

```
      00 01 02 03 04 05 06 07  08 09 0A 0B 0C 0D 0E 0F
      -- -- -- -- -- -- -- --  -- -- -- -- -- -- -- --
0040:                                00                           .     
```

#### Opcodes

```
  0: 0x004A [0x00] END_REQSTACK()
```

### Event 104

#### Metadata

| Field        | Value    |
|--------------|----------|
| Entrypoint   | 0x004B   |
| Data Size    | 34 bytes |
| Instructions | 8        |

```
      00 01 02 03 04 05 06 07  08 09 0A 0B 0C 0D 0E 0F
      -- -- -- -- -- -- -- --  -- -- -- -- -- -- -- --
0040:                                   1E F0 FF FF 7F             .....
0050: 1C 00 80 5B 07 80 03 33  05 01 03 33 05 01 68 61  ...[...3...3..ha
0060: 70 30 03 02 10 04 80 1D  08 80 23 21 00           p0........#!.   
```

#### Opcodes

```
  0: 0x004B [0x1E] EventEntity looks at LocalPlayer and starts talking
  1: 0x0050 [0x1C] WAIT(30* ticks)
  2: 0x0053 [0x5B] LOAD_EXT_SCHEDULER: Load scheduler "hap0" with entities [Leadavox (ID: 17117955/0x01053303), Leadavox (ID: 17117955/0x01053303)], work=216*
  3: 0x0062 [0x03] Work_Zone[2] = 2521*
  4: 0x0067 [0x1D] PRINT_EVENT_MESSAGE(message_id=7717*)
    → "The Gigas love these $0. They'll tell me all sortsa secrets now. Leadavox is their little buddy."
  5: 0x006A [0x23] WAIT_FOR_DIALOG_INTERACTION
  6: 0x006B [0x21] END_EVENT
  7: 0x006C [0x00] END_REQSTACK()
```

### Event 65535.1

#### Metadata

| Field        | Value    |
|--------------|----------|
| Entrypoint   | 0x006D   |
| Data Size    | 29 bytes |
| Instructions | 7        |

```
      00 01 02 03 04 05 06 07  08 09 0A 0B 0C 0D 0E 0F
      -- -- -- -- -- -- -- --  -- -- -- -- -- -- -- --
0060:                                         1E F0 FF               ...
0070: FF 7F 1C 00 80 5B 07 80  03 33 05 01 03 33 05 01  .....[...3...3..
0080: 68 61 70 30 1D 09 80 23  21 00                    hap0...#!.      
```

#### Opcodes

```
  0: 0x006D [0x1E] EventEntity looks at LocalPlayer and starts talking
  1: 0x0072 [0x1C] WAIT(30* ticks)
  2: 0x0075 [0x5B] LOAD_EXT_SCHEDULER: Load scheduler "hap0" with entities [Leadavox (ID: 17117955/0x01053303), Leadavox (ID: 17117955/0x01053303)], work=216*
  3: 0x0084 [0x1D] PRINT_EVENT_MESSAGE(message_id=8163*)
    → "Leada's wax to save the day...t Keep yer secrets tucked safe away...t"
  4: 0x0087 [0x23] WAIT_FOR_DIALOG_INTERACTION
  5: 0x0088 [0x21] END_EVENT
  6: 0x0089 [0x00] END_REQSTACK()
```

### Event 4

#### Metadata

| Field        | Value   |
|--------------|---------|
| Entrypoint   | 0x008A  |
| Data Size    | 7 bytes |
| Instructions | 2       |

```
      00 01 02 03 04 05 06 07  08 09 0A 0B 0C 0D 0E 0F
      -- -- -- -- -- -- -- --  -- -- -- -- -- -- -- --
0080:                                92 01 F8 FF FF 7F            ......
0090: 00                                                .               
```

#### Opcodes

```
  0: 0x008A [0x92] EventEntity->Render.Flags3 ^= 0x01
  1: 0x0090 [0x00] END_REQSTACK()
```

### Event 5

#### Metadata

| Field        | Value    |
|--------------|----------|
| Entrypoint   | 0x0091   |
| Data Size    | 29 bytes |
| Instructions | 7        |

```
      00 01 02 03 04 05 06 07  08 09 0A 0B 0C 0D 0E 0F
      -- -- -- -- -- -- -- --  -- -- -- -- -- -- -- --
0090:    1E F0 FF FF 7F 1C 00  80 5B 07 80 03 33 05 01   ........[...3..
00A0: 03 33 05 01 68 61 70 30  1D 0A 80 23 21 00        .3..hap0...#!.  
```

#### Opcodes

```
  0: 0x0091 [0x1E] EventEntity looks at LocalPlayer and starts talking
  1: 0x0096 [0x1C] WAIT(30* ticks)
  2: 0x0099 [0x5B] LOAD_EXT_SCHEDULER: Load scheduler "hap0" with entities [Leadavox (ID: 17117955/0x01053303), Leadavox (ID: 17117955/0x01053303)], work=216*
  3: 0x00A8 [0x1D] PRINT_EVENT_MESSAGE(message_id=8104*)
    → "Add a pinch of this, if you're having a good time.t And a dash of that, if ya know that ya feel fine.t"
  4: 0x00AB [0x23] WAIT_FOR_DIALOG_INTERACTION
  5: 0x00AC [0x21] END_EVENT
  6: 0x00AD [0x00] END_REQSTACK()
```
