# 17118026 - medama1

## Common Data

| Field            | Value                      |
|------------------|----------------------------|
| Zone             | Vunkerl Inlet [S] (ID: 83) |
| Block Size       | 448 bytes                  |
| Total Events     | 18                         |
| References Count | 39                         |

## List of Events

| Event ID                   | Entrypoint   |   Size |   Instructions |
|----------------------------|--------------|--------|----------------|
| [65535](#event-65535)      | 0x0000       |      1 |              1 |
| [114](#event-114)          | 0x0001       |      1 |              1 |
| [65535.1](#event-655351)   | 0x0002       |     12 |              3 |
| [65535.2](#event-655352)   | 0x000E       |     11 |              3 |
| [65535.3](#event-655353)   | 0x0019       |     20 |              4 |
| [115](#event-115)          | 0x002D       |      1 |              1 |
| [65535.4](#event-655354)   | 0x002E       |     11 |              3 |
| [65535.5](#event-655355)   | 0x0039       |     40 |              9 |
| [116](#event-116)          | 0x0061       |      1 |              1 |
| [65535.6](#event-655356)   | 0x0062       |     11 |              3 |
| [65535.7](#event-655357)   | 0x006D       |     21 |              5 |
| [117](#event-117)          | 0x0082       |      7 |              2 |
| [65535.8](#event-655358)   | 0x0089       |      3 |              2 |
| [65535.9](#event-655359)   | 0x008C       |     10 |              2 |
| [65535.10](#event-6553510) | 0x0096       |     10 |              2 |
| [65535.11](#event-6553511) | 0x00A0       |     11 |              3 |
| [65535.12](#event-6553512) | 0x00AB       |     22 |              6 |
| [65535.13](#event-6553513) | 0x00C1       |     11 |              3 |

## DAT References (imed_data)

|   Index | Hex Value   |   Dec Value |
|---------|-------------|-------------|
|       0 | 0xFFFA5819  |  4294596633 |
|       1 | 0x4004B     |      262219 |
|       2 | 0xFFFF8AD0  |  4294937296 |
|       3 | 0x03C3      |         963 |
|       4 | 0xFFFA8A2A  |  4294609450 |
|       5 | 0x3D9C4     |      252356 |
|       6 | 0xFFFF7B30  |  4294933296 |
|       7 | 0xFFFBCFBC  |  4294692796 |
|       8 | 0x39210     |      234000 |
|       9 | 0x0000      |           0 |
|      10 | 0x003C      |          60 |
|      11 | 0xFFFD4FE8  |  4294791144 |
|      12 | 0x2D3A8     |      185256 |
|      13 | 0x02D4      |         724 |
|      14 | 0xFFFDDAD5  |  4294826709 |
|      15 | 0x2B1A1     |      176545 |
|      16 | 0x0548      |        1352 |
|      17 | 0xFFFDD65F  |  4294825567 |
|      18 | 0x29D9A     |      171418 |
|      19 | 0x05BD      |        1469 |
|      20 | 0xFFFDC33A  |  4294820666 |
|      21 | 0x2D7DE     |      186334 |
|      22 | 0x067C      |        1660 |
|      23 | 0xFFFDC984  |  4294822276 |
|      24 | 0x2E83E     |      190526 |
|      25 | 0x0461      |        1121 |
|      26 | 0x0080      |         128 |
|      27 | 0x001E      |          30 |
|      28 | 0xFFFDB598  |  4294817176 |
|      29 | 0x2DA1D     |      186909 |
|      30 | 0xFFFDA51D  |  4294812957 |
|      31 | 0x2C9EC     |      182764 |
|      32 | 0x0491      |        1169 |
|      33 | 0xFFFDA5EA  |  4294813162 |
|      34 | 0x2B9B8     |      178616 |
|      35 | 0x02EC      |         748 |
|      36 | 0xFFFDBD2D  |  4294819117 |
|      37 | 0x2D4FD     |      185597 |
|      38 | 0x0938      |        2360 |

## Events

### Event 65535

#### Metadata

| Field        | Value   |
|--------------|---------|
| Entrypoint   | 0x0000  |
| Data Size    | 1 bytes |
| Instructions | 1       |

```
      00 01 02 03 04 05 06 07  08 09 0A 0B 0C 0D 0E 0F
      -- -- -- -- -- -- -- --  -- -- -- -- -- -- -- --
0000: 00                                                .               
```

#### Opcodes

```
  0: 0x0000 [0x00] END_REQSTACK()
```

### Event 114

#### Metadata

| Field        | Value   |
|--------------|---------|
| Entrypoint   | 0x0001  |
| Data Size    | 1 bytes |
| Instructions | 1       |

```
      00 01 02 03 04 05 06 07  08 09 0A 0B 0C 0D 0E 0F
      -- -- -- -- -- -- -- --  -- -- -- -- -- -- -- --
0000:    00                                              .              
```

#### Opcodes

```
  0: 0x0001 [0x00] END_REQSTACK()
```

### Event 65535.1

#### Metadata

| Field        | Value    |
|--------------|----------|
| Entrypoint   | 0x0002   |
| Data Size    | 12 bytes |
| Instructions | 3        |

```
      00 01 02 03 04 05 06 07  08 09 0A 0B 0C 0D 0E 0F
      -- -- -- -- -- -- -- --  -- -- -- -- -- -- -- --
0000:       33 01 37 00 80 01  80 02 80 03 80 00          3.7.........  
```

#### Opcodes

```
  0: 0x0002 [0x33] EventEntity->Render.Flags0 |= 0x200000 // Bit 21 (flag=0x01)
  1: 0x0004 [0x37] UPDATE_EVENT_POSITION_AND_DIR: x=-370.663*, z=262.219*, y=-30.000*, direction=84.6°*
  2: 0x000D [0x00] END_REQSTACK()
```

### Event 65535.2

#### Metadata

| Field        | Value    |
|--------------|----------|
| Entrypoint   | 0x000E   |
| Data Size    | 11 bytes |
| Instructions | 3        |

```
      00 01 02 03 04 05 06 07  08 09 0A 0B 0C 0D 0E 0F
      -- -- -- -- -- -- -- --  -- -- -- -- -- -- -- --
0000:                                            5A 00                Z.
0010: 04 80 05 80 06 80 5A 01  00                       ......Z..       
```

#### Opcodes

```
  0: 0x000E [0x5A] UPDATE_EVENT_POSITION: Set EventEntity MovePosition to X=-357.846*, Z=252.356*, Y=-34.000*
  1: 0x0016 [0x5A] UPDATE_EVENT_POSITION: Move EventEntity incrementally towards MovePosition
  2: 0x0018 [0x00] END_REQSTACK()
```

### Event 65535.3

#### Metadata

| Field        | Value    |
|--------------|----------|
| Entrypoint   | 0x0019   |
| Data Size    | 20 bytes |
| Instructions | 4        |

```
      00 01 02 03 04 05 06 07  08 09 0A 0B 0C 0D 0E 0F
      -- -- -- -- -- -- -- --  -- -- -- -- -- -- -- --
0010:                             5A 00 07 80 08 80 06           Z......
0020: 80 5A 01 6C 4A 33 05 01  09 80 0A 80 00           .Z.lJ3.......   
```

#### Opcodes

```
  0: 0x0019 [0x5A] UPDATE_EVENT_POSITION: Set EventEntity MovePosition to X=-274.500*, Z=234.000*, Y=-34.000*
  1: 0x0021 [0x5A] UPDATE_EVENT_POSITION: Move EventEntity incrementally towards MovePosition
  2: 0x0023 [0x6C] FADE_ENTITY_COLOR(entity_id=medama1 (ID: 17118026/0x0105334A), end_alpha=0*, fade_time=60*)
  3: 0x002C [0x00] END_REQSTACK()
```

### Event 115

#### Metadata

| Field        | Value   |
|--------------|---------|
| Entrypoint   | 0x002D  |
| Data Size    | 1 bytes |
| Instructions | 1       |

```
      00 01 02 03 04 05 06 07  08 09 0A 0B 0C 0D 0E 0F
      -- -- -- -- -- -- -- --  -- -- -- -- -- -- -- --
0020:                                         00                     .  
```

#### Opcodes

```
  0: 0x002D [0x00] END_REQSTACK()
```

### Event 65535.4

#### Metadata

| Field        | Value    |
|--------------|----------|
| Entrypoint   | 0x002E   |
| Data Size    | 11 bytes |
| Instructions | 3        |

```
      00 01 02 03 04 05 06 07  08 09 0A 0B 0C 0D 0E 0F
      -- -- -- -- -- -- -- --  -- -- -- -- -- -- -- --
0020:                                            1F 00                ..
0030: 0B 80 0C 80 0D 80 1F 01  00                       .........       
```

#### Opcodes

```
  0: 0x002E [0x1F] MOVE_ENTITY: EventEntity moves to X=-176.152*, Z=185.256*, Y=0.724*
  1: 0x0036 [0x1F] MOVE_ENTITY: Update entity position (mode=1)
  2: 0x0038 [0x00] END_REQSTACK()
```

### Event 65535.5

#### Metadata

| Field        | Value    |
|--------------|----------|
| Entrypoint   | 0x0039   |
| Data Size    | 40 bytes |
| Instructions | 9        |

```
      00 01 02 03 04 05 06 07  08 09 0A 0B 0C 0D 0E 0F
      -- -- -- -- -- -- -- --  -- -- -- -- -- -- -- --
0030:                             1F 00 0E 80 0F 80 10           .......
0040: 80 1F 01 6F 1F 00 11 80  12 80 13 80 1F 01 6C 4A  ...o..........lJ
0050: 33 05 01 09 80 0A 80 1C  0A 80 4E 01 4A 33 05 01  3.........N.J3..
0060: 00                                                .               
```

#### Opcodes

```
  0: 0x0039 [0x1F] MOVE_ENTITY: EventEntity moves to X=-140.587*, Z=176.545*, Y=1.352*
  1: 0x0041 [0x1F] MOVE_ENTITY: Update entity position (mode=1)
  2: 0x0043 [0x6F] WAIT_FRAME_DELAY: Yield until WaitTime reaches zero
  3: 0x0044 [0x1F] MOVE_ENTITY: EventEntity moves to X=-141.729*, Z=171.418*, Y=1.469*
  4: 0x004C [0x1F] MOVE_ENTITY: Update entity position (mode=1)
  5: 0x004E [0x6C] FADE_ENTITY_COLOR(entity_id=medama1 (ID: 17118026/0x0105334A), end_alpha=0*, fade_time=60*)
  6: 0x0057 [0x1C] WAIT(60* ticks)
  7: 0x005A [0x4E] SET_ENTITY_HIDE_FLAG: Hide medama1 (ID: 17118026/0x0105334A)
  8: 0x0060 [0x00] END_REQSTACK()
```

### Event 116

#### Metadata

| Field        | Value   |
|--------------|---------|
| Entrypoint   | 0x0061  |
| Data Size    | 1 bytes |
| Instructions | 1       |

```
      00 01 02 03 04 05 06 07  08 09 0A 0B 0C 0D 0E 0F
      -- -- -- -- -- -- -- --  -- -- -- -- -- -- -- --
0060:    00                                              .              
```

#### Opcodes

```
  0: 0x0061 [0x00] END_REQSTACK()
```

### Event 65535.6

#### Metadata

| Field        | Value    |
|--------------|----------|
| Entrypoint   | 0x0062   |
| Data Size    | 11 bytes |
| Instructions | 3        |

```
      00 01 02 03 04 05 06 07  08 09 0A 0B 0C 0D 0E 0F
      -- -- -- -- -- -- -- --  -- -- -- -- -- -- -- --
0060:       1F 00 14 80 15 80  16 80 1F 01 00             ...........   
```

#### Opcodes

```
  0: 0x0062 [0x1F] MOVE_ENTITY: EventEntity moves to X=-146.630*, Z=186.334*, Y=1.660*
  1: 0x006A [0x1F] MOVE_ENTITY: Update entity position (mode=1)
  2: 0x006C [0x00] END_REQSTACK()
```

### Event 65535.7

#### Metadata

| Field        | Value    |
|--------------|----------|
| Entrypoint   | 0x006D   |
| Data Size    | 21 bytes |
| Instructions | 5        |

```
      00 01 02 03 04 05 06 07  08 09 0A 0B 0C 0D 0E 0F
      -- -- -- -- -- -- -- --  -- -- -- -- -- -- -- --
0060:                                         1F 00 17               ...
0070: 80 18 80 19 80 1F 01 6F  4A 4A 33 05 01 48 33 05  .......oJJ3..H3.
0080: 01 00                                             ..              
```

#### Opcodes

```
  0: 0x006D [0x1F] MOVE_ENTITY: EventEntity moves to X=-145.020*, Z=190.526*, Y=1.121*
  1: 0x0075 [0x1F] MOVE_ENTITY: Update entity position (mode=1)
  2: 0x0077 [0x6F] WAIT_FRAME_DELAY: Yield until WaitTime reaches zero
  3: 0x0078 [0x4A] medama1 (ID: 17118026/0x0105334A) looks at Nicolaus (ID: 17118024/0x01053348)
  4: 0x0081 [0x00] END_REQSTACK()
```

### Event 117

#### Metadata

| Field        | Value   |
|--------------|---------|
| Entrypoint   | 0x0082  |
| Data Size    | 7 bytes |
| Instructions | 2       |

```
      00 01 02 03 04 05 06 07  08 09 0A 0B 0C 0D 0E 0F
      -- -- -- -- -- -- -- --  -- -- -- -- -- -- -- --
0080:       92 01 F8 FF FF 7F  00                         .......       
```

#### Opcodes

```
  0: 0x0082 [0x92] EventEntity->Render.Flags3 ^= 0x01
  1: 0x0088 [0x00] END_REQSTACK()
```

### Event 65535.8

#### Metadata

| Field        | Value   |
|--------------|---------|
| Entrypoint   | 0x0089  |
| Data Size    | 3 bytes |
| Instructions | 2       |

```
      00 01 02 03 04 05 06 07  08 09 0A 0B 0C 0D 0E 0F
      -- -- -- -- -- -- -- --  -- -- -- -- -- -- -- --
0080:                             A4 01 00                       ...    
```

#### Opcodes

```
  0: 0x0089 [0xA4] EventEntity->Flags3.unknown_3_2 = 1
  1: 0x008B [0x00] END_REQSTACK()
```

### Event 65535.9

#### Metadata

| Field        | Value    |
|--------------|----------|
| Entrypoint   | 0x008C   |
| Data Size    | 10 bytes |
| Instructions | 2        |

```
      00 01 02 03 04 05 06 07  08 09 0A 0B 0C 0D 0E 0F
      -- -- -- -- -- -- -- --  -- -- -- -- -- -- -- --
0080:                                      6C F8 FF FF              l...
0090: 7F 1A 80 1B 80 00                                 ......          
```

#### Opcodes

```
  0: 0x008C [0x6C] FADE_ENTITY_COLOR(entity_id=EventEntity, end_alpha=128*, fade_time=30*)
  1: 0x0095 [0x00] END_REQSTACK()
```

### Event 65535.10

#### Metadata

| Field        | Value    |
|--------------|----------|
| Entrypoint   | 0x0096   |
| Data Size    | 10 bytes |
| Instructions | 2        |

```
      00 01 02 03 04 05 06 07  08 09 0A 0B 0C 0D 0E 0F
      -- -- -- -- -- -- -- --  -- -- -- -- -- -- -- --
0090:                   6C F8  FF FF 7F 09 80 1B 80 00        l.........
```

#### Opcodes

```
  0: 0x0096 [0x6C] FADE_ENTITY_COLOR(entity_id=EventEntity, end_alpha=0*, fade_time=30*)
  1: 0x009F [0x00] END_REQSTACK()
```

### Event 65535.11

#### Metadata

| Field        | Value    |
|--------------|----------|
| Entrypoint   | 0x00A0   |
| Data Size    | 11 bytes |
| Instructions | 3        |

```
      00 01 02 03 04 05 06 07  08 09 0A 0B 0C 0D 0E 0F
      -- -- -- -- -- -- -- --  -- -- -- -- -- -- -- --
00A0: 1F 00 1C 80 1D 80 16 80  1F 01 00                 ...........     
```

#### Opcodes

```
  0: 0x00A0 [0x1F] MOVE_ENTITY: EventEntity moves to X=-150.120*, Z=186.909*, Y=1.660*
  1: 0x00A8 [0x1F] MOVE_ENTITY: Update entity position (mode=1)
  2: 0x00AA [0x00] END_REQSTACK()
```

### Event 65535.12

#### Metadata

| Field        | Value    |
|--------------|----------|
| Entrypoint   | 0x00AB   |
| Data Size    | 22 bytes |
| Instructions | 6        |

```
      00 01 02 03 04 05 06 07  08 09 0A 0B 0C 0D 0E 0F
      -- -- -- -- -- -- -- --  -- -- -- -- -- -- -- --
00A0:                                   1F 00 1E 80 1F             .....
00B0: 80 20 80 1F 01 1F 00 21  80 22 80 23 80 1F 01 6F  . .....!.".#...o
00C0: 00                                                .               
```

#### Opcodes

```
  0: 0x00AB [0x1F] MOVE_ENTITY: EventEntity moves to X=-154.339*, Z=182.764*, Y=1.169*
  1: 0x00B3 [0x1F] MOVE_ENTITY: Update entity position (mode=1)
  2: 0x00B5 [0x1F] MOVE_ENTITY: EventEntity moves to X=-154.134*, Z=178.616*, Y=0.748*
  3: 0x00BD [0x1F] MOVE_ENTITY: Update entity position (mode=1)
  4: 0x00BF [0x6F] WAIT_FRAME_DELAY: Yield until WaitTime reaches zero
  5: 0x00C0 [0x00] END_REQSTACK()
```

### Event 65535.13

#### Metadata

| Field        | Value    |
|--------------|----------|
| Entrypoint   | 0x00C1   |
| Data Size    | 11 bytes |
| Instructions | 3        |

```
      00 01 02 03 04 05 06 07  08 09 0A 0B 0C 0D 0E 0F
      -- -- -- -- -- -- -- --  -- -- -- -- -- -- -- --
00C0:    5A 00 24 80 25 80 26  80 5A 01 00               Z.$.%.&.Z..    
```

#### Opcodes

```
  0: 0x00C1 [0x5A] UPDATE_EVENT_POSITION: Set EventEntity MovePosition to X=-148.179*, Z=185.597*, Y=2.360*
  1: 0x00C9 [0x5A] UPDATE_EVENT_POSITION: Move EventEntity incrementally towards MovePosition
  2: 0x00CB [0x00] END_REQSTACK()
```
