# 17118024 - Nicolaus

## Common Data

| Field            | Value                      |
|------------------|----------------------------|
| Zone             | Vunkerl Inlet [S] (ID: 83) |
| Block Size       | 396 bytes                  |
| Total Events     | 17                         |
| References Count | 28                         |

## List of Events

| Event ID                   | Entrypoint   |   Size |   Instructions |
|----------------------------|--------------|--------|----------------|
| [65535](#event-65535)      | 0x0000       |      1 |              1 |
| [114](#event-114)          | 0x0001       |      7 |              2 |
| [65535.1](#event-655351)   | 0x0008       |     14 |              4 |
| [65535.2](#event-655352)   | 0x0016       |     23 |              7 |
| [65535.3](#event-655353)   | 0x002D       |     11 |              3 |
| [115](#event-115)          | 0x0038       |      7 |              2 |
| [65535.4](#event-655354)   | 0x003F       |     11 |              3 |
| [65535.5](#event-655355)   | 0x004A       |     19 |              5 |
| [116](#event-116)          | 0x005D       |      7 |              2 |
| [117](#event-117)          | 0x0064       |      7 |              2 |
| [65535.6](#event-655356)   | 0x006B       |     10 |              2 |
| [65535.7](#event-655357)   | 0x0075       |     10 |              2 |
| [65535.8](#event-655358)   | 0x007F       |     14 |              4 |
| [65535.9](#event-655359)   | 0x008D       |     22 |              5 |
| [65535.10](#event-6553510) | 0x00A3       |     27 |              5 |
| [65535.11](#event-6553511) | 0x00BE       |      4 |              2 |
| [65535.12](#event-6553512) | 0x00C2       |      4 |              2 |

## DAT References (imed_data)

|   Index | Hex Value   |   Dec Value |
|---------|-------------|-------------|
|       0 | 0x0028      |          40 |
|       1 | 0xFFFA86DB  |  4294608603 |
|       2 | 0x44285     |      279173 |
|       3 | 0xFFFF83FC  |  4294935548 |
|       4 | 0xFFFA3526  |  4294587686 |
|       5 | 0x44061     |      278625 |
|       6 | 0xFFFF7F7E  |  4294934398 |
|       7 | 0x001E      |          30 |
|       8 | 0xFFFA7BCD  |  4294605773 |
|       9 | 0x44168     |      278888 |
|      10 | 0xFFFD3F40  |  4294786880 |
|      11 | 0x2B6C5     |      177861 |
|      12 | 0x0603      |        1539 |
|      13 | 0xFFFDB9FD  |  4294818301 |
|      14 | 0x2D0B8     |      184504 |
|      15 | 0x067C      |        1660 |
|      16 | 0x01B1      |         433 |
|      17 | 0x0080      |         128 |
|      18 | 0x0000      |           0 |
|      19 | 0x000D      |          13 |
|      20 | 0xFFFD48B5  |  4294789301 |
|      21 | 0x29C9D     |      171165 |
|      22 | 0x05DF      |        1503 |
|      23 | 0xFFFA2BAA  |  4294585258 |
|      24 | 0x43BFC     |      277500 |
|      25 | 0xFFFA3C85  |  4294589573 |
|      26 | 0x43C99     |      277657 |
|      27 | 0x0001      |           1 |

## Events

### Event 65535

#### Metadata

| Field        | Value   |
|--------------|---------|
| Entrypoint   | 0x0000  |
| Data Size    | 1 bytes |
| Instructions | 1       |

```
      00 01 02 03 04 05 06 07  08 09 0A 0B 0C 0D 0E 0F
      -- -- -- -- -- -- -- --  -- -- -- -- -- -- -- --
0000: 00                                                .               
```

#### Opcodes

```
  0: 0x0000 [0x00] END_REQSTACK()
```

### Event 114

#### Metadata

| Field        | Value   |
|--------------|---------|
| Entrypoint   | 0x0001  |
| Data Size    | 7 bytes |
| Instructions | 2       |

```
      00 01 02 03 04 05 06 07  08 09 0A 0B 0C 0D 0E 0F
      -- -- -- -- -- -- -- --  -- -- -- -- -- -- -- --
0000:    92 01 F8 FF FF 7F 00                            .......        
```

#### Opcodes

```
  0: 0x0001 [0x92] EventEntity->Render.Flags3 ^= 0x01
  1: 0x0007 [0x00] END_REQSTACK()
```

### Event 65535.1

#### Metadata

| Field        | Value    |
|--------------|----------|
| Entrypoint   | 0x0008   |
| Data Size    | 14 bytes |
| Instructions | 4        |

```
      00 01 02 03 04 05 06 07  08 09 0A 0B 0C 0D 0E 0F
      -- -- -- -- -- -- -- --  -- -- -- -- -- -- -- --
0000:                          32 00 80 1F 00 01 80 02          2.......
0010: 80 03 80 1F 01 00                                 ......          
```

#### Opcodes

```
  0: 0x0008 [0x32] ExtData[1]->MainSpeed = 40* * 0.1
  1: 0x000B [0x1F] MOVE_ENTITY: EventEntity moves to X=-358.693*, Z=279.173*, Y=-31.748*
  2: 0x0013 [0x1F] MOVE_ENTITY: Update entity position (mode=1)
  3: 0x0015 [0x00] END_REQSTACK()
```

### Event 65535.2

#### Metadata

| Field        | Value    |
|--------------|----------|
| Entrypoint   | 0x0016   |
| Data Size    | 23 bytes |
| Instructions | 7        |

```
      00 01 02 03 04 05 06 07  08 09 0A 0B 0C 0D 0E 0F
      -- -- -- -- -- -- -- --  -- -- -- -- -- -- -- --
0010:                   32 00  80 1F 00 04 80 05 80 06        2.........
0020: 80 1F 01 6F 1E 49 33 05  01 1C 07 80 00           ...o.I3......   
```

#### Opcodes

```
  0: 0x0016 [0x32] ExtData[1]->MainSpeed = 40* * 0.1
  1: 0x0019 [0x1F] MOVE_ENTITY: EventEntity moves to X=-379.610*, Z=278.625*, Y=-32.898*
  2: 0x0021 [0x1F] MOVE_ENTITY: Update entity position (mode=1)
  3: 0x0023 [0x6F] WAIT_FRAME_DELAY: Yield until WaitTime reaches zero
  4: 0x0024 [0x1E] EventEntity looks at Five Moons (ID: 17118025/0x01053349) and starts talking
  5: 0x0029 [0x1C] WAIT(30* ticks)
  6: 0x002C [0x00] END_REQSTACK()
```

### Event 65535.3

#### Metadata

| Field        | Value    |
|--------------|----------|
| Entrypoint   | 0x002D   |
| Data Size    | 11 bytes |
| Instructions | 3        |

```
      00 01 02 03 04 05 06 07  08 09 0A 0B 0C 0D 0E 0F
      -- -- -- -- -- -- -- --  -- -- -- -- -- -- -- --
0020:                                         1F 00 08               ...
0030: 80 09 80 06 80 1F 01 00                           ........        
```

#### Opcodes

```
  0: 0x002D [0x1F] MOVE_ENTITY: EventEntity moves to X=-361.523*, Z=278.888*, Y=-32.898*
  1: 0x0035 [0x1F] MOVE_ENTITY: Update entity position (mode=1)
  2: 0x0037 [0x00] END_REQSTACK()
```

### Event 115

#### Metadata

| Field        | Value   |
|--------------|---------|
| Entrypoint   | 0x0038  |
| Data Size    | 7 bytes |
| Instructions | 2       |

```
      00 01 02 03 04 05 06 07  08 09 0A 0B 0C 0D 0E 0F
      -- -- -- -- -- -- -- --  -- -- -- -- -- -- -- --
0030:                          92 01 F8 FF FF 7F 00             ....... 
```

#### Opcodes

```
  0: 0x0038 [0x92] EventEntity->Render.Flags3 ^= 0x01
  1: 0x003E [0x00] END_REQSTACK()
```

### Event 65535.4

#### Metadata

| Field        | Value    |
|--------------|----------|
| Entrypoint   | 0x003F   |
| Data Size    | 11 bytes |
| Instructions | 3        |

```
      00 01 02 03 04 05 06 07  08 09 0A 0B 0C 0D 0E 0F
      -- -- -- -- -- -- -- --  -- -- -- -- -- -- -- --
0030:                                               1F                 .
0040: 00 0A 80 0B 80 0C 80 1F  01 00                    ..........      
```

#### Opcodes

```
  0: 0x003F [0x1F] MOVE_ENTITY: EventEntity moves to X=-180.416*, Z=177.861*, Y=1.539*
  1: 0x0047 [0x1F] MOVE_ENTITY: Update entity position (mode=1)
  2: 0x0049 [0x00] END_REQSTACK()
```

### Event 65535.5

#### Metadata

| Field        | Value    |
|--------------|----------|
| Entrypoint   | 0x004A   |
| Data Size    | 19 bytes |
| Instructions | 5        |

```
      00 01 02 03 04 05 06 07  08 09 0A 0B 0C 0D 0E 0F
      -- -- -- -- -- -- -- --  -- -- -- -- -- -- -- --
0040:                                1F 00 0D 80 0E 80            ......
0050: 0F 80 1F 01 6F 4B 48 33  05 01 10 80 00           ....oKH3.....   
```

#### Opcodes

```
  0: 0x004A [0x1F] MOVE_ENTITY: EventEntity moves to X=-148.995*, Z=184.504*, Y=1.660*
  1: 0x0052 [0x1F] MOVE_ENTITY: Update entity position (mode=1)
  2: 0x0054 [0x6F] WAIT_FRAME_DELAY: Yield until WaitTime reaches zero
  3: 0x0055 [0x4B] UPDATE_ENTITY_YAW(entity=Nicolaus (ID: 17118024/0x01053348), yaw=2.4°*)
  4: 0x005C [0x00] END_REQSTACK()
```

### Event 116

#### Metadata

| Field        | Value   |
|--------------|---------|
| Entrypoint   | 0x005D  |
| Data Size    | 7 bytes |
| Instructions | 2       |

```
      00 01 02 03 04 05 06 07  08 09 0A 0B 0C 0D 0E 0F
      -- -- -- -- -- -- -- --  -- -- -- -- -- -- -- --
0050:                                         92 01 F8               ...
0060: FF FF 7F 00                                       ....            
```

#### Opcodes

```
  0: 0x005D [0x92] EventEntity->Render.Flags3 ^= 0x01
  1: 0x0063 [0x00] END_REQSTACK()
```

### Event 117

#### Metadata

| Field        | Value   |
|--------------|---------|
| Entrypoint   | 0x0064  |
| Data Size    | 7 bytes |
| Instructions | 2       |

```
      00 01 02 03 04 05 06 07  08 09 0A 0B 0C 0D 0E 0F
      -- -- -- -- -- -- -- --  -- -- -- -- -- -- -- --
0060:             92 01 F8 FF  FF 7F 00                     .......     
```

#### Opcodes

```
  0: 0x0064 [0x92] EventEntity->Render.Flags3 ^= 0x01
  1: 0x006A [0x00] END_REQSTACK()
```

### Event 65535.6

#### Metadata

| Field        | Value    |
|--------------|----------|
| Entrypoint   | 0x006B   |
| Data Size    | 10 bytes |
| Instructions | 2        |

```
      00 01 02 03 04 05 06 07  08 09 0A 0B 0C 0D 0E 0F
      -- -- -- -- -- -- -- --  -- -- -- -- -- -- -- --
0060:                                   6C F8 FF FF 7F             l....
0070: 11 80 07 80 00                                    .....           
```

#### Opcodes

```
  0: 0x006B [0x6C] FADE_ENTITY_COLOR(entity_id=EventEntity, end_alpha=128*, fade_time=30*)
  1: 0x0074 [0x00] END_REQSTACK()
```

### Event 65535.7

#### Metadata

| Field        | Value    |
|--------------|----------|
| Entrypoint   | 0x0075   |
| Data Size    | 10 bytes |
| Instructions | 2        |

```
      00 01 02 03 04 05 06 07  08 09 0A 0B 0C 0D 0E 0F
      -- -- -- -- -- -- -- --  -- -- -- -- -- -- -- --
0070:                6C F8 FF  FF 7F 12 80 07 80 00          l......... 
```

#### Opcodes

```
  0: 0x0075 [0x6C] FADE_ENTITY_COLOR(entity_id=EventEntity, end_alpha=0*, fade_time=30*)
  1: 0x007E [0x00] END_REQSTACK()
```

### Event 65535.8

#### Metadata

| Field        | Value    |
|--------------|----------|
| Entrypoint   | 0x007F   |
| Data Size    | 14 bytes |
| Instructions | 4        |

```
      00 01 02 03 04 05 06 07  08 09 0A 0B 0C 0D 0E 0F
      -- -- -- -- -- -- -- --  -- -- -- -- -- -- -- --
0070:                                               32                 2
0080: 13 80 5A 00 14 80 15 80  16 80 5A 01 00           ..Z.......Z..   
```

#### Opcodes

```
  0: 0x007F [0x32] ExtData[1]->MainSpeed = 13* * 0.1
  1: 0x0082 [0x5A] UPDATE_EVENT_POSITION: Set EventEntity MovePosition to X=-177.995*, Z=171.165*, Y=1.503*
  2: 0x008A [0x5A] UPDATE_EVENT_POSITION: Move EventEntity incrementally towards MovePosition
  3: 0x008C [0x00] END_REQSTACK()
```

### Event 65535.9

#### Metadata

| Field        | Value    |
|--------------|----------|
| Entrypoint   | 0x008D   |
| Data Size    | 22 bytes |
| Instructions | 5        |

```
      00 01 02 03 04 05 06 07  08 09 0A 0B 0C 0D 0E 0F
      -- -- -- -- -- -- -- --  -- -- -- -- -- -- -- --
0080:                                         1F 00 17               ...
0090: 80 18 80 06 80 1F 01 6F  79 00 48 33 05 01 3E 33  .......oy.H3..>3
00A0: 05 01 00                                          ...             
```

#### Opcodes

```
  0: 0x008D [0x1F] MOVE_ENTITY: EventEntity moves to X=-382.038*, Z=277.500*, Y=-32.898*
  1: 0x0095 [0x1F] MOVE_ENTITY: Update entity position (mode=1)
  2: 0x0097 [0x6F] WAIT_FRAME_DELAY: Yield until WaitTime reaches zero
  3: 0x0098 [0x79] Nicolaus (ID: 17118024/0x01053348) looks at Volker (ID: 17118014/0x0105333E) (Basic look)
  4: 0x00A2 [0x00] END_REQSTACK()
```

### Event 65535.10

#### Metadata

| Field        | Value    |
|--------------|----------|
| Entrypoint   | 0x00A3   |
| Data Size    | 27 bytes |
| Instructions | 5        |

```
      00 01 02 03 04 05 06 07  08 09 0A 0B 0C 0D 0E 0F
      -- -- -- -- -- -- -- --  -- -- -- -- -- -- -- --
00A0:          1F 00 19 80 1A  80 06 80 1F 01 6F 66 12     ..........of.
00B0: 80 48 33 05 01 48 33 05  01 74 68 6B 31 00        .H3..H3..thk1.  
```

#### Opcodes

```
  0: 0x00A3 [0x1F] MOVE_ENTITY: EventEntity moves to X=-377.723*, Z=277.657*, Y=-32.898*
  1: 0x00AB [0x1F] MOVE_ENTITY: Update entity position (mode=1)
  2: 0x00AD [0x6F] WAIT_FRAME_DELAY: Yield until WaitTime reaches zero
  3: 0x00AE [0x66] LOAD_EXT_SCHEDULER_MAIN: Load scheduler "thk1" with entities [Nicolaus (ID: 17118024/0x01053348), Nicolaus (ID: 17118024/0x01053348)], work=0*
  4: 0x00BD [0x00] END_REQSTACK()
```

### Event 65535.11

#### Metadata

| Field        | Value   |
|--------------|---------|
| Entrypoint   | 0x00BE  |
| Data Size    | 4 bytes |
| Instructions | 2       |

```
      00 01 02 03 04 05 06 07  08 09 0A 0B 0C 0D 0E 0F
      -- -- -- -- -- -- -- --  -- -- -- -- -- -- -- --
00B0:                                            95 12                ..
00C0: 80 00                                             ..              
```

#### Opcodes

```
  0: 0x00BE [0x95] SETUP_EVENT_NPC: Prepare NPC for event (Render.Flags3 = 0*)
  1: 0x00C1 [0x00] END_REQSTACK()
```

### Event 65535.12

#### Metadata

| Field        | Value   |
|--------------|---------|
| Entrypoint   | 0x00C2  |
| Data Size    | 4 bytes |
| Instructions | 2       |

```
      00 01 02 03 04 05 06 07  08 09 0A 0B 0C 0D 0E 0F
      -- -- -- -- -- -- -- --  -- -- -- -- -- -- -- --
00C0:       95 1B 80 00                                   ....          
```

#### Opcodes

```
  0: 0x00C2 [0x95] SETUP_EVENT_NPC: Prepare NPC for event (Render.Flags3 = 1*)
  1: 0x00C5 [0x00] END_REQSTACK()
```
