# 17118003 - Leadavox

## Common Data

| Field            | Value                      |
|------------------|----------------------------|
| Zone             | Vunkerl Inlet [S] (ID: 83) |
| Block Size       | 448 bytes                  |
| Total Events     | 8                          |
| References Count | 10                         |

## List of Events

| Event ID                 | Entrypoint   |   Size |   Instructions |
|--------------------------|--------------|--------|----------------|
| [65535](#event-65535)    | 0x0000       |      1 |              1 |
| [105](#event-105)        | 0x0001       |      1 |              1 |
| [108](#event-108)        | 0x0002       |      1 |              1 |
| [109](#event-109)        | 0x0003       |      1 |              1 |
| [65535.1](#event-655351) | 0x0004       |     35 |              9 |
| [65535.2](#event-655352) | 0x0027       |     35 |              9 |
| [2](#event-2)            | 0x004A       |      1 |              1 |
| [65535.3](#event-655353) | 0x004B       |    285 |             23 |

## DAT References (imed_data)

|   Index | Hex Value   |   Dec Value |
|---------|-------------|-------------|
|       0 | 0x0028      |          40 |
|       1 | 0x000D      |          13 |
|       2 | 0x0866      |        2150 |
|       3 | 0x01F6      |         502 |
|       4 | 0x0000      |           0 |
|       5 | 0x001E      |          30 |
|       6 | 0x01FA      |         506 |
|       7 | 0x0060      |          96 |
|       8 | 0x000A      |          10 |
|       9 | 0x0064      |         100 |

## Events

### Event 65535

#### Metadata

| Field        | Value   |
|--------------|---------|
| Entrypoint   | 0x0000  |
| Data Size    | 1 bytes |
| Instructions | 1       |

```
      00 01 02 03 04 05 06 07  08 09 0A 0B 0C 0D 0E 0F
      -- -- -- -- -- -- -- --  -- -- -- -- -- -- -- --
0000: 00                                                .               
```

#### Opcodes

```
  0: 0x0000 [0x00] END_REQSTACK()
```

### Event 105

#### Metadata

| Field        | Value   |
|--------------|---------|
| Entrypoint   | 0x0001  |
| Data Size    | 1 bytes |
| Instructions | 1       |

```
      00 01 02 03 04 05 06 07  08 09 0A 0B 0C 0D 0E 0F
      -- -- -- -- -- -- -- --  -- -- -- -- -- -- -- --
0000:    00                                              .              
```

#### Opcodes

```
  0: 0x0001 [0x00] END_REQSTACK()
```

### Event 108

#### Metadata

| Field        | Value   |
|--------------|---------|
| Entrypoint   | 0x0002  |
| Data Size    | 1 bytes |
| Instructions | 1       |

```
      00 01 02 03 04 05 06 07  08 09 0A 0B 0C 0D 0E 0F
      -- -- -- -- -- -- -- --  -- -- -- -- -- -- -- --
0000:       00                                            .             
```

#### Opcodes

```
  0: 0x0002 [0x00] END_REQSTACK()
```

### Event 109

#### Metadata

| Field        | Value   |
|--------------|---------|
| Entrypoint   | 0x0003  |
| Data Size    | 1 bytes |
| Instructions | 1       |

```
      00 01 02 03 04 05 06 07  08 09 0A 0B 0C 0D 0E 0F
      -- -- -- -- -- -- -- --  -- -- -- -- -- -- -- --
0000:          00                                          .            
```

#### Opcodes

```
  0: 0x0003 [0x00] END_REQSTACK()
```

### Event 65535.1

#### Metadata

| Field        | Value    |
|--------------|----------|
| Entrypoint   | 0x0004   |
| Data Size    | 35 bytes |
| Instructions | 9        |

```
      00 01 02 03 04 05 06 07  08 09 0A 0B 0C 0D 0E 0F
      -- -- -- -- -- -- -- --  -- -- -- -- -- -- -- --
0000:             03 00 00 25  10 03 02 00 26 10 03 01      ...%....&...
0010: 00 27 10 03 03 00 28 10  32 00 80 1F 00 00 00 02  .'....(.2.......
0020: 00 01 00 1F 01 6F 00                              .....o.         
```

#### Opcodes

```
  0: 0x0004 [0x03] ExtData[1]->WorkLocal[0] = Work_Zone[37]
  1: 0x0009 [0x03] ExtData[1]->WorkLocal[2] = Work_Zone[38]
  2: 0x000E [0x03] ExtData[1]->WorkLocal[1] = Work_Zone[39]
  3: 0x0013 [0x03] ExtData[1]->WorkLocal[3] = Work_Zone[40]
  4: 0x0018 [0x32] ExtData[1]->MainSpeed = 40* * 0.1
  5: 0x001B [0x1F] MOVE_ENTITY: EventEntity moves to X=ExtData[1]->WorkLocal[0], Z=ExtData[1]->WorkLocal[2], Y=ExtData[1]->WorkLocal[1]
  6: 0x0023 [0x1F] MOVE_ENTITY: Update entity position (mode=1)
  7: 0x0025 [0x6F] WAIT_FRAME_DELAY: Yield until WaitTime reaches zero
  8: 0x0026 [0x00] END_REQSTACK()
```

### Event 65535.2

#### Metadata

| Field        | Value    |
|--------------|----------|
| Entrypoint   | 0x0027   |
| Data Size    | 35 bytes |
| Instructions | 9        |

```
      00 01 02 03 04 05 06 07  08 09 0A 0B 0C 0D 0E 0F
      -- -- -- -- -- -- -- --  -- -- -- -- -- -- -- --
0020:                      03  00 00 25 10 03 02 00 26         ...%....&
0030: 10 03 01 00 27 10 03 03  00 28 10 32 01 80 1F 00  ....'....(.2....
0040: 00 00 02 00 01 00 1F 01  6F 00                    ........o.      
```

#### Opcodes

```
  0: 0x0027 [0x03] ExtData[1]->WorkLocal[0] = Work_Zone[37]
  1: 0x002C [0x03] ExtData[1]->WorkLocal[2] = Work_Zone[38]
  2: 0x0031 [0x03] ExtData[1]->WorkLocal[1] = Work_Zone[39]
  3: 0x0036 [0x03] ExtData[1]->WorkLocal[3] = Work_Zone[40]
  4: 0x003B [0x32] ExtData[1]->MainSpeed = 13* * 0.1
  5: 0x003E [0x1F] MOVE_ENTITY: EventEntity moves to X=ExtData[1]->WorkLocal[0], Z=ExtData[1]->WorkLocal[2], Y=ExtData[1]->WorkLocal[1]
  6: 0x0046 [0x1F] MOVE_ENTITY: Update entity position (mode=1)
  7: 0x0048 [0x6F] WAIT_FRAME_DELAY: Yield until WaitTime reaches zero
  8: 0x0049 [0x00] END_REQSTACK()
```

### Event 2

#### Metadata

| Field        | Value   |
|--------------|---------|
| Entrypoint   | 0x004A  |
| Data Size    | 1 bytes |
| Instructions | 1       |

```
      00 01 02 03 04 05 06 07  08 09 0A 0B 0C 0D 0E 0F
      -- -- -- -- -- -- -- --  -- -- -- -- -- -- -- --
0040:                                00                           .     
```

#### Opcodes

```
  0: 0x004A [0x00] END_REQSTACK()
```

### Event 65535.3

#### Metadata

| Field        | Value     |
|--------------|-----------|
| Entrypoint   | 0x004B    |
| Data Size    | 285 bytes |
| Instructions | 23        |

```
      00 01 02 03 04 05 06 07  08 09 0A 0B 0C 0D 0E 0F
      -- -- -- -- -- -- -- --  -- -- -- -- -- -- -- --
0040:                                   5B 02 80 33 33             [..33
0050: 05 01 33 33 05 01 6A 6F  79 30 52 03 80 F0 FF FF  ..33..joy0R.....
0060: 7F F0 FF FF 7F 30 38 30  62 45 03 80 F0 FF FF 7F  .....080bE......
0070: F0 FF FF 7F 30 38 30 63  04 80 1C 05 80 45 06 80  ....080c.....E..
0080: F0 FF FF 7F F0 FF FF 7F  38 30 32 39 04 80 C5 07  ........8029....
0090: 80 59 33 05 01 59 33 05  01 73 74 30 33 04 80 C5  .Y3..Y3..st03...
00A0: 07 80 5A 33 05 01 5A 33  05 01 73 74 30 32 04 80  ..Z3..Z3..st02..
00B0: 1C 05 80 52 03 80 F0 FF  FF 7F F0 FF FF 7F 30 38  ...R..........08
00C0: 30 63 45 03 80 F0 FF FF  7F F0 FF FF 7F 30 38 30  0cE..........080
00D0: 65 04 80 1C 08 80 45 06  80 F0 FF FF 7F F0 FF FF  e.....E.........
00E0: 7F 38 30 32 39 04 80 C5  07 80 59 33 05 01 59 33  .8029.....Y3..Y3
00F0: 05 01 73 74 30 32 04 80  1C 09 80 C5 07 80 5A 33  ..st02........Z3
0100: 05 01 5A 33 05 01 6B 69  6C 61 04 80 1C 08 80 45  ..Z3..kila.....E
0110: 03 80 F0 FF FF 7F F0 FF  FF 7F 30 38 30 66 04 80  ..........080f..
0120: 45 06 80 F0 FF FF 7F F0  FF FF 7F 32 32 30 31 04  E..........2201.
0130: 80 45 06 80 5A 33 05 01  5A 33 05 01 32 30 35 32  .E..Z3..Z3..2052
0140: 04 80 C5 07 80 5A 33 05  01 5A 33 05 01 73 74 30  .....Z3..Z3..st0
0150: 34 04 80 1C 05 80 C5 07  80 59 33 05 01 59 33 05  4........Y3..Y3.
0160: 01 6B 69 6C 61 04 80 00                           .kila...        
```

#### Opcodes

```
  0: 0x004B [0x5B] LOAD_EXT_SCHEDULER: Load scheduler "joy0" with entities [Leadavox (ID: 17118003/0x01053333), Leadavox (ID: 17118003/0x01053333)], work=2150*
  1: 0x005A [0x52] END_LOAD_SCHEDULER: End scheduler "080b" with entities [LocalPlayer, LocalPlayer], work=502*
  2: 0x0069 [0x45] LOAD_SCHEDULED_TASK: Load scheduler "080c" with entities [LocalPlayer, LocalPlayer], work=[502*, 0*]
  3: 0x007A [0x1C] WAIT(30* ticks)
  4: 0x007D [0x45] LOAD_SCHEDULED_TASK: Load scheduler "8029" with entities [LocalPlayer, LocalPlayer], work=[506*, 0*]
  5: 0x008E [0xC5] LOAD_SCHEDULED_TASK_ALT3: Load scheduler 0x80043330 for entities [Unnamed NPC (ID: 17118041/0x01053359), Unnamed NPC (ID: 17118041/0x01053359)], work=96*, param=29811
  6: 0x009F [0xC5] LOAD_SCHEDULED_TASK_ALT3: Load scheduler 0x80043230 for entities [Unnamed NPC (ID: 17118042/0x0105335A), Unnamed NPC (ID: 17118042/0x0105335A)], work=96*, param=29811
  7: 0x00B0 [0x1C] WAIT(30* ticks)
  8: 0x00B3 [0x52] END_LOAD_SCHEDULER: End scheduler "080c" with entities [LocalPlayer, LocalPlayer], work=502*
  9: 0x00C2 [0x45] LOAD_SCHEDULED_TASK: Load scheduler "080e" with entities [LocalPlayer, LocalPlayer], work=[502*, 0*]
 10: 0x00D3 [0x1C] WAIT(10* ticks)
 11: 0x00D6 [0x45] LOAD_SCHEDULED_TASK: Load scheduler "8029" with entities [LocalPlayer, LocalPlayer], work=[506*, 0*]
 12: 0x00E7 [0xC5] LOAD_SCHEDULED_TASK_ALT3: Load scheduler 0x80043230 for entities [Unnamed NPC (ID: 17118041/0x01053359), Unnamed NPC (ID: 17118041/0x01053359)], work=96*, param=29811
 13: 0x00F8 [0x1C] WAIT(100* ticks)
 14: 0x00FB [0xC5] LOAD_SCHEDULED_TASK_ALT3: Load scheduler 0x8004616C for entities [Unnamed NPC (ID: 17118042/0x0105335A), Unnamed NPC (ID: 17118042/0x0105335A)], work=96*, param=26987
 15: 0x010C [0x1C] WAIT(10* ticks)
 16: 0x010F [0x45] LOAD_SCHEDULED_TASK: Load scheduler "080f" with entities [LocalPlayer, LocalPlayer], work=[502*, 0*]
 17: 0x0120 [0x45] LOAD_SCHEDULED_TASK: Load scheduler "2201" with entities [LocalPlayer, LocalPlayer], work=[506*, 0*]
 18: 0x0131 [0x45] LOAD_SCHEDULED_TASK: Load scheduler "2052" with entities [Unnamed NPC (ID: 17118042/0x0105335A), Unnamed NPC (ID: 17118042/0x0105335A)], work=[506*, 0*]
 19: 0x0142 [0xC5] LOAD_SCHEDULED_TASK_ALT3: Load scheduler 0x80043430 for entities [Unnamed NPC (ID: 17118042/0x0105335A), Unnamed NPC (ID: 17118042/0x0105335A)], work=96*, param=29811
 20: 0x0153 [0x1C] WAIT(30* ticks)
 21: 0x0156 [0xC5] LOAD_SCHEDULED_TASK_ALT3: Load scheduler 0x8004616C for entities [Unnamed NPC (ID: 17118041/0x01053359), Unnamed NPC (ID: 17118041/0x01053359)], work=96*, param=26987
 22: 0x0167 [0x00] END_REQSTACK()
```
