# 17117984

## Common Data

| Field            | Value                      |
|------------------|----------------------------|
| Zone             | Vunkerl Inlet [S] (ID: 83) |
| Block Size       | 56 bytes                   |
| Total Events     | 2                          |
| References Count | 3                          |

## List of Events

| Event ID              | Entrypoint   |   Size |   Instructions |
|-----------------------|--------------|--------|----------------|
| [65535](#event-65535) | 0x0000       |      1 |              1 |
| [112](#event-112)     | 0x0001       |     16 |              8 |

## DAT References (imed_data)

|   Index | Hex Value   |   Dec Value |
|---------|-------------|-------------|
|       0 | 0x03C8      |         968 |
|       1 | 0x1E83      |        7811 |
|       2 | 0x1E84      |        7812 |

## String References

- **7811**: You attach the $3!
- **7812**: But, right before your very eyes, the $3 fades and disappears into nothingness.

## Events

### Event 65535

#### Metadata

| Field        | Value   |
|--------------|---------|
| Entrypoint   | 0x0000  |
| Data Size    | 1 bytes |
| Instructions | 1       |

```
      00 01 02 03 04 05 06 07  08 09 0A 0B 0C 0D 0E 0F
      -- -- -- -- -- -- -- --  -- -- -- -- -- -- -- --
0000: 00                                                .               
```

#### Opcodes

```
  0: 0x0000 [0x00] END_REQSTACK()
```

### Event 112

#### Metadata

| Field        | Value    |
|--------------|----------|
| Entrypoint   | 0x0001   |
| Data Size    | 16 bytes |
| Instructions | 8        |

```
      00 01 02 03 04 05 06 07  08 09 0A 0B 0C 0D 0E 0F
      -- -- -- -- -- -- -- --  -- -- -- -- -- -- -- --
0000:    42 03 02 10 00 80 48  01 80 23 48 02 80 23 21   B.....H..#H..#!
0010: 00                                                .               
```

#### Opcodes

```
  0: 0x0001 [0x42] SET_CLI_EVENT_CANCEL_DATA()
  1: 0x0002 [0x03] Work_Zone[2] = 968*
  2: 0x0007 [0x48] [System] [7811*]:
    → "You attach the $3!"
  3: 0x000A [0x23] WAIT_FOR_DIALOG_INTERACTION
  4: 0x000B [0x48] [System] [7812*]:
    → "But, right before your very eyes, the $3 fades and disappears into nothingness."
  5: 0x000E [0x23] WAIT_FOR_DIALOG_INTERACTION
  6: 0x000F [0x21] END_EVENT
  7: 0x0010 [0x00] END_REQSTACK()
```
