# 17118040

## Common Data

| Field            | Value                      |
|------------------|----------------------------|
| Zone             | Vunkerl Inlet [S] (ID: 83) |
| Block Size       | 1320 bytes                 |
| Total Events     | 2                          |
| References Count | 34                         |

## List of Events

| Event ID              | Entrypoint   |   Size |   Instructions |
|-----------------------|--------------|--------|----------------|
| [65535](#event-65535) | 0x0000       |      1 |              1 |
| [2](#event-2)         | 0x0001       |   1159 |            130 |

## DAT References (imed_data)

|   Index | Hex Value   |   Dec Value |
|---------|-------------|-------------|
|       0 | 0x0013      |          19 |
|       1 | 0x31AE0     |      203488 |
|       2 | 0x4CEA7     |      315047 |
|       3 | 0xFFFF832F  |  4294935343 |
|       4 | 0x0000      |           0 |
|       5 | 0x32377     |      205687 |
|       6 | 0x4CF2A     |      315178 |
|       7 | 0xFFFF8367  |  4294935399 |
|       8 | 0x0781      |        1921 |
|       9 | 0x32AF5     |      207605 |
|      10 | 0x4D062     |      315490 |
|      11 | 0xFFFF82BE  |  4294935230 |
|      12 | 0x000F      |          15 |
|      13 | 0x01F6      |         502 |
|      14 | 0x0492      |        1170 |
|      15 | 0x1FE1      |        8161 |
|      16 | 0x0007      |           7 |
|      17 | 0x003C      |          60 |
|      18 | 0x00D7      |         215 |
|      19 | 0x1FE2      |        8162 |
|      20 | 0x00D8      |         216 |
|      21 | 0x0060      |          96 |
|      22 | 0x01FA      |         506 |
|      23 | 0x1FE3      |        8163 |
|      24 | 0x0078      |         120 |
|      25 | 0x012C      |         300 |
|      26 | 0x1FE4      |        8164 |
|      27 | 0x00B4      |         180 |
|      28 | 0x001E      |          30 |
|      29 | 0x00C8      |         200 |
|      30 | 0x00C9      |         201 |
|      31 | 0x0001      |           1 |
|      32 | 0x002D      |          45 |
|      33 | 0x0002      |           2 |

## Events

### Event 65535

#### Metadata

| Field        | Value   |
|--------------|---------|
| Entrypoint   | 0x0000  |
| Data Size    | 1 bytes |
| Instructions | 1       |

```
      00 01 02 03 04 05 06 07  08 09 0A 0B 0C 0D 0E 0F
      -- -- -- -- -- -- -- --  -- -- -- -- -- -- -- --
0000: 00                                                .               
```

#### Opcodes

```
  0: 0x0000 [0x00] END_REQSTACK()
```

### Event 2

#### Metadata

| Field        | Value      |
|--------------|------------|
| Entrypoint   | 0x0001     |
| Data Size    | 1159 bytes |
| Instructions | 75         |

```
      00 01 02 03 04 05 06 07  08 09 0A 0B 0C 0D 0E 0F
      -- -- -- -- -- -- -- --  -- -- -- -- -- -- -- --
0000:    42 1A 5A 02 46 01 38  00 80 4E 00 F0 FF FF 7F   B.Z.F.8..N.....
0010: 2F 00 33 33 05 01 4E 00  33 33 05 01 4E 00 59 33  /.33..N.33..N.Y3
0020: 05 01 4E 00 5A 33 05 01  92 01 33 33 05 01 92 01  ..N.Z3....33....
0030: 59 33 05 01 92 01 5A 33  05 01 94 01 F0 FF FF 7F  Y3....Z3........
0040: 94 01 33 33 05 01 94 01  59 33 05 01 94 01 5A 33  ..33....Y3....Z3
0050: 05 01 BA F0 FF FF 7F 01  80 02 80 03 80 04 80 BA  ................
0060: 33 33 05 01 05 80 06 80  07 80 08 80 BA 59 33 05  33...........Y3.
0070: 01 09 80 0A 80 0B 80 04  80 BA 5A 33 05 01 09 80  ..........Z3....
0080: 0A 80 0B 80 04 80 80 F0  FF FF 7F 80 33 33 05 01  ............33..
0090: 80 59 33 05 01 80 5A 33  05 01 79 00 F0 FF FF 7F  .Y3...Z3..y.....
00A0: 33 33 05 01 1C 0C 80 45  0D 80 F0 FF FF 7F F0 FF  33.....E........
00B0: FF 7F 30 38 30 61 04 80  1A 39 02 03 02 10 0E 80  ..080a...9......
00C0: 2B 33 33 05 01 0F 80 23  6E F0 FF FF 7F 10 80 99  +33....#n.......
00D0: F0 FF FF 7F 1C 11 80 5B  12 80 33 33 05 01 33 33  .......[..33..33
00E0: 05 01 74 6C 6B 31 2B 33  33 05 01 13 80 23 52 0D  ..tlk1+33....#R.
00F0: 80 F0 FF FF 7F F0 FF FF  7F 30 38 30 61 45 0D 80  .........080aE..
0100: F0 FF FF 7F F0 FF FF 7F  30 38 30 62 04 80 5B 12  ........080b..[.
0110: 80 33 33 05 01 33 33 05  01 74 6C 6B 65 1C 11 80  .33..33..tlke...
0120: 4B 33 33 05 01 04 80 1C  11 80 5B 14 80 33 33 05  K33.......[..33.
0130: 01 33 33 05 01 68 61 70  30 C5 15 80 59 33 05 01  .33..hap0...Y3..
0140: 59 33 05 01 73 74 30 31  04 80 45 16 80 F0 FF FF  Y3..st01..E.....
0150: 7F F0 FF FF 7F 38 30 39  35 04 80 2B 33 33 05 01  .....8095..+33..
0160: 17 80 1C 18 80 23 27 10  33 33 05 01 07 1C 19 80  .....#'.33......
0170: 2B 33 33 05 01 1A 80 1C  1B 80 52 0D 80 F0 FF FF  +33.......R.....
0180: 7F F0 FF FF 7F 30 38 30  66 45 0D 80 F0 FF FF 7F  .....080fE......
0190: F0 FF FF 7F 30 38 30 67  04 80 1C 1C 80 4A 33 33  ....080g.....J33
01A0: 05 01 F0 FF FF 7F C5 15  80 5A 33 05 01 5A 33 05  .........Z3..Z3.
01B0: 01 73 74 30 33 04 80 1C  11 80 5B 12 80 33 33 05  .st03.....[..33.
01C0: 01 33 33 05 01 70 61 73  30 1C 1B 80 23 1A 5A 02  .33..pas0...#.Z.
01D0: 1C 1C 80 52 0D 80 F0 FF  FF 7F F0 FF FF 7F 30 38  ...R..........08
01E0: 30 67 46 00 45 1D 80 F0  FF FF 7F F0 FF FF 7F 66  0gF.E..........f
01F0: 64 69 32 04 80 21 00 45  1D 80 F0 FF FF 7F F0 FF  di2..!.E........
0200: FF 7F 66 64 69 30 04 80  55 1D 80 F0 FF FF 7F F0  ..fdi0..U.......
0210: FF FF 7F 66 64 69 30 1B  45 1D 80 F0 FF FF 7F F0  ...fdi0.E.......
0220: FF FF 7F 66 64 6F 30 04  80 55 1D 80 F0 FF FF 7F  ...fdo0..U......
0230: F0 FF FF 7F 66 64 6F 30  1B 45 1D 80 F0 FF FF 7F  ....fdo0.E......
0240: F0 FF FF 7F 66 64 69 31  04 80 55 1D 80 F0 FF FF  ....fdi1..U.....
0250: 7F F0 FF FF 7F 66 64 69  31 1B 45 1D 80 F0 FF FF  .....fdi1.E.....
0260: 7F F0 FF FF 7F 66 64 6F  31 04 80 55 1D 80 F0 FF  .....fdo1..U....
0270: FF 7F F0 FF FF 7F 66 64  6F 31 1B 45 1E 80 F0 FF  ......fdo1.E....
0280: FF 7F F0 FF FF 7F 77 68  69 31 04 80 55 1E 80 F0  ......whi1..U...
0290: FF FF 7F F0 FF FF 7F 77  68 69 31 1B 45 1E 80 F0  .......whi1.E...
02A0: FF FF 7F F0 FF FF 7F 77  68 6F 31 04 80 55 1E 80  .......who1..U..
02B0: F0 FF FF 7F F0 FF FF 7F  77 68 6F 31 1B 45 1E 80  ........who1.E..
02C0: F0 FF FF 7F F0 FF FF 7F  77 68 6F 32 04 80 55 1E  ........who2..U.
02D0: 80 F0 FF FF 7F F0 FF FF  7F 77 68 6F 32 1B 45 1E  .........who2.E.
02E0: 80 F0 FF FF 7F F0 FF FF  7F 77 68 6F 33 04 80 55  .........who3..U
02F0: 1E 80 F0 FF FF 7F F0 FF  FF 7F 77 68 6F 33 1B 62  ..........who3.b
0300: 1F 80 F0 FF FF 7F F0 FF  FF 7F 6D 61 69 6E 04 80  ..........main..
0310: 1C 20 80 45 1D 80 F0 FF  FF 7F F0 FF FF 7F 66 64  . .E..........fd
0320: 6F 31 04 80 55 1D 80 F0  FF FF 7F F0 FF FF 7F 66  o1..U..........f
0330: 64 6F 31 1B 45 1D 80 F0  FF FF 7F F0 FF FF 7F 66  do1.E..........f
0340: 64 69 31 04 80 62 21 80  F0 FF FF 7F F0 FF FF 7F  di1..b!.........
0350: 6D 61 69 6E 04 80 1C 1C  80 55 1D 80 F0 FF FF 7F  main.....U......
0360: F0 FF FF 7F 66 64 69 31  1B 45 1D 80 F0 FF FF 7F  ....fdi1.E......
0370: F0 FF FF 7F 62 6C 6F 6E  04 80 45 1E 80 F0 FF FF  ....blon..E.....
0380: 7F F0 FF FF 7F 62 6C 6F  6E 04 80 1B 45 1E 80 F0  .....blon...E...
0390: FF FF 7F F0 FF FF 7F 77  68 69 30 04 80 55 1E 80  .......whi0..U..
03A0: F0 FF FF 7F F0 FF FF 7F  77 68 69 30 1B 45 1E 80  ........whi0.E..
03B0: F0 FF FF 7F F0 FF FF 7F  77 68 6F 30 04 80 55 1E  ........who0..U.
03C0: 80 F0 FF FF 7F F0 FF FF  7F 77 68 6F 30 1B 45 12  .........who0.E.
03D0: 80 F0 FF FF 7F F0 FF FF  7F 65 66 6F 6E 04 80 55  .........efon..U
03E0: 12 80 F0 FF FF 7F F0 FF  FF 7F 65 66 6F 6E 1B 45  ..........efon.E
03F0: 1D 80 F0 FF FF 7F F0 FF  FF 7F 66 64 69 73 04 80  ..........fdis..
0400: 1B 45 1D 80 F0 FF FF 7F  F0 FF FF 7F 66 64 6F 73  .E..........fdos
0410: 04 80 55 1D 80 F0 FF FF  7F F0 FF FF 7F 66 64 6F  ..U..........fdo
0420: 73 1B 45 1D 80 F0 FF FF  7F F0 FF FF 7F 66 64 69  s.E..........fdi
0430: 66 04 80 1B 45 1D 80 F0  FF FF 7F F0 FF FF 7F 66  f...E..........f
0440: 64 6F 66 04 80 55 1D 80  F0 FF FF 7F F0 FF FF 7F  dof..U..........
0450: 66 64 6F 66 1B 45 1D 80  F0 FF FF 7F F0 FF FF 7F  fdof.E..........
0460: 66 64 69 70 04 80 1B 45  1D 80 F0 FF FF 7F F0 FF  fdip...E........
0470: FF 7F 66 64 6F 70 04 80  55 1D 80 F0 FF FF 7F F0  ..fdop..U.......
0480: FF FF 7F 66 64 6F 70 1B                           ...fdop.        
```

#### Opcodes

```
  0: 0x0001 [0x42] SET_CLI_EVENT_CANCEL_DATA()
  1: 0x0002 [0x1A] CALL_SUBROUTINE(address=0x025A)
  2: 0x0005 [0x46] CAMERA_CONTROL: Disable user control
  3: 0x0007 [0x38] SET_CLIENT_EVENT_MODE(mode=19*)
  4: 0x000A [0x4E] SET_ENTITY_HIDE_FLAG: Show LocalPlayer
  5: 0x0010 [0x2F] Leadavox (ID: 17118003/0x01053333)->Render.Flags0 &= ~0x80000 // Bit 19
  6: 0x0016 [0x4E] SET_ENTITY_HIDE_FLAG: Show Leadavox (ID: 17118003/0x01053333)
  7: 0x001C [0x4E] SET_ENTITY_HIDE_FLAG: Show Unnamed NPC (ID: 17118041/0x01053359)
  8: 0x0022 [0x4E] SET_ENTITY_HIDE_FLAG: Show Unnamed NPC (ID: 17118042/0x0105335A)
  9: 0x0028 [0x92] Leadavox (ID: 17118003/0x01053333)->Render.Flags3 ^= 0x01
 10: 0x002E [0x92] Unnamed NPC (ID: 17118041/0x01053359)->Render.Flags3 ^= 0x01
 11: 0x0034 [0x92] Unnamed NPC (ID: 17118042/0x0105335A)->Render.Flags3 ^= 0x01
 12: 0x003A [0x94] LocalPlayer->Render.Flags3 ^= 0x01
 13: 0x0040 [0x94] Leadavox (ID: 17118003/0x01053333)->Render.Flags3 ^= 0x01
 14: 0x0046 [0x94] Unnamed NPC (ID: 17118041/0x01053359)->Render.Flags3 ^= 0x01
 15: 0x004C [0x94] Unnamed NPC (ID: 17118042/0x0105335A)->Render.Flags3 ^= 0x01
 16: 0x0052 [0xBA] SET_ENTITY_POSITION(entity_id=LocalPlayer, pos_x=203.488*, pos_z=315.047*, pos_y=-31.953*, direction=0.0°*)
 17: 0x005F [0xBA] SET_ENTITY_POSITION(entity_id=Leadavox (ID: 17118003/0x01053333), pos_x=205.687*, pos_z=315.178*, pos_y=-31.897*, direction=168.8°*)
 18: 0x006C [0xBA] SET_ENTITY_POSITION(entity_id=Unnamed NPC (ID: 17118041/0x01053359), pos_x=207.605*, pos_z=315.490*, pos_y=-32.066*, direction=0.0°*)
 19: 0x0079 [0xBA] SET_ENTITY_POSITION(entity_id=Unnamed NPC (ID: 17118042/0x0105335A), pos_x=207.605*, pos_z=315.490*, pos_y=-32.066*, direction=0.0°*)
 20: 0x0086 [0x80] LOAD_WAIT(entity=LocalPlayer)
 21: 0x008B [0x80] LOAD_WAIT(entity=Leadavox (ID: 17118003/0x01053333))
 22: 0x0090 [0x80] LOAD_WAIT(entity=Unnamed NPC (ID: 17118041/0x01053359))
 23: 0x0095 [0x80] LOAD_WAIT(entity=Unnamed NPC (ID: 17118042/0x0105335A))
 24: 0x009A [0x79] LocalPlayer looks at Leadavox (ID: 17118003/0x01053333) (Basic look)
 25: 0x00A4 [0x1C] WAIT(15* ticks)
 26: 0x00A7 [0x45] LOAD_SCHEDULED_TASK: Load scheduler "080a" with entities [LocalPlayer, LocalPlayer], work=[502*, 0*]
 27: 0x00B8 [0x1A] CALL_SUBROUTINE(address=0x0239)
 28: 0x00BB [0x03] Work_Zone[2] = 1170*
 29: 0x00C0 [0x2B] Leadavox (ID: 17118003/0x01053333) [8161*]:
    → "Oh ho, what bring you to Leada today? 6, you say?"
 30: 0x00C7 [0x23] WAIT_FOR_DIALOG_INTERACTION
 31: 0x00C8 [0x6E] LocalPlayer uses emote 7*
 32: 0x00CF [0x99] Wait for LocalPlayer animation to complete
 33: 0x00D4 [0x1C] WAIT(60* ticks)
 34: 0x00D7 [0x5B] LOAD_EXT_SCHEDULER: Load scheduler "tlk1" with entities [Leadavox (ID: 17118003/0x01053333), Leadavox (ID: 17118003/0x01053333)], work=215*
 35: 0x00E6 [0x2B] Leadavox (ID: 17118003/0x01053333) [8162*]:
    → "Don't tell me...for Red Axe, right? Figures. Big lug can't do anything for himself. Fine. Sit tight and I whip one up for ya."
 36: 0x00ED [0x23] WAIT_FOR_DIALOG_INTERACTION
 37: 0x00EE [0x52] END_LOAD_SCHEDULER: End scheduler "080a" with entities [LocalPlayer, LocalPlayer], work=502*
 38: 0x00FD [0x45] LOAD_SCHEDULED_TASK: Load scheduler "080b" with entities [LocalPlayer, LocalPlayer], work=[502*, 0*]
 39: 0x010E [0x5B] LOAD_EXT_SCHEDULER: Load scheduler "tlke" with entities [Leadavox (ID: 17118003/0x01053333), Leadavox (ID: 17118003/0x01053333)], work=215*
 40: 0x011D [0x1C] WAIT(60* ticks)
 41: 0x0120 [0x4B] UPDATE_ENTITY_YAW(entity=Leadavox (ID: 17118003/0x01053333), yaw=0.0°*)
 42: 0x0127 [0x1C] WAIT(60* ticks)
 43: 0x012A [0x5B] LOAD_EXT_SCHEDULER: Load scheduler "hap0" with entities [Leadavox (ID: 17118003/0x01053333), Leadavox (ID: 17118003/0x01053333)], work=216*
 44: 0x0139 [0xC5] LOAD_SCHEDULED_TASK_ALT3: Load scheduler 0x80043130 for entities [Unnamed NPC (ID: 17118041/0x01053359), Unnamed NPC (ID: 17118041/0x01053359)], work=96*, param=29811
 45: 0x014A [0x45] LOAD_SCHEDULED_TASK: Load scheduler "8095" with entities [LocalPlayer, LocalPlayer], work=[506*, 0*]
 46: 0x015B [0x2B] Leadavox (ID: 17118003/0x01053333) [8163*]:
    → "Leada's wax to save the day...t Keep yer secrets tucked safe away...t"
 47: 0x0162 [0x1C] WAIT(120* ticks)
 48: 0x0165 [0x23] WAIT_FOR_DIALOG_INTERACTION
 49: 0x0166 [0x27] REQ_SET(priority=0x10, entity_id=Leadavox (ID: 17118003/0x01053333), tag_num=0x07)
 50: 0x016D [0x1C] WAIT(300* ticks)
 51: 0x0170 [0x2B] Leadavox (ID: 17118003/0x01053333) [8164*]:
    → "Here ya go. And you tell Red Axe this: next time he send someone to do his own dirty work, I be chargin' double. Got it?"
 52: 0x0177 [0x1C] WAIT(180* ticks)
 53: 0x017A [0x52] END_LOAD_SCHEDULER: End scheduler "080f" with entities [LocalPlayer, LocalPlayer], work=502*
 54: 0x0189 [0x45] LOAD_SCHEDULED_TASK: Load scheduler "080g" with entities [LocalPlayer, LocalPlayer], work=[502*, 0*]
 55: 0x019A [0x1C] WAIT(30* ticks)
 56: 0x019D [0x4A] Leadavox (ID: 17118003/0x01053333) looks at LocalPlayer
 57: 0x01A6 [0xC5] LOAD_SCHEDULED_TASK_ALT3: Load scheduler 0x80043330 for entities [Unnamed NPC (ID: 17118042/0x0105335A), Unnamed NPC (ID: 17118042/0x0105335A)], work=96*, param=29811
 58: 0x01B7 [0x1C] WAIT(60* ticks)
 59: 0x01BA [0x5B] LOAD_EXT_SCHEDULER: Load scheduler "pas0" with entities [Leadavox (ID: 17118003/0x01053333), Leadavox (ID: 17118003/0x01053333)], work=215*
 60: 0x01C9 [0x1C] WAIT(180* ticks)
 61: 0x01CC [0x23] WAIT_FOR_DIALOG_INTERACTION
 62: 0x01CD [0x1A] CALL_SUBROUTINE(address=0x025A)
 63: 0x01D0 [0x1C] WAIT(30* ticks)
 64: 0x01D3 [0x52] END_LOAD_SCHEDULER: End scheduler "080g" with entities [LocalPlayer, LocalPlayer], work=502*
 65: 0x01E2 [0x46] CAMERA_CONTROL: Restore default settings
 66: 0x01E4 [0x45] LOAD_SCHEDULED_TASK: Load scheduler "fdi2" with entities [LocalPlayer, LocalPlayer], work=[200*, 0*]
 67: 0x01F5 [0x21] END_EVENT
 68: 0x01F6 [0x00] END_REQSTACK()

SUBROUTINE_0239:
 69: 0x0239 [0x45] LOAD_SCHEDULED_TASK: Load scheduler "fdi1" with entities [LocalPlayer, LocalPlayer], work=[200*, 0*]
 70: 0x024A [0x55] WAIT_LOAD_SCHEDULER: Wait for scheduler "fdi1" with entities [LocalPlayer, LocalPlayer], work=200*
 71: 0x0259 [0x1B] RETURN

SUBROUTINE_025A:
 72: 0x025A [0x45] LOAD_SCHEDULED_TASK: Load scheduler "fdo1" with entities [LocalPlayer, LocalPlayer], work=[200*, 0*]
 73: 0x026B [0x55] WAIT_LOAD_SCHEDULER: Wait for scheduler "fdo1" with entities [LocalPlayer, LocalPlayer], work=200*
 74: 0x027A [0x1B] RETURN
```

#### Data or dead code:

```
# Dead code (unreachable instructions):
     0x01F7 [0x45] LOAD_SCHEDULED_TASK: Load scheduler "fdi0" with entities [LocalPlayer, LocalPlayer], work=[200*, 0*]
     0x0208 [0x55] WAIT_LOAD_SCHEDULER: Wait for scheduler "fdi0" with entities [LocalPlayer, LocalPlayer], work=200*
     0x0217 [0x1B] RETURN
     0x0218 [0x45] LOAD_SCHEDULED_TASK: Load scheduler "fdo0" with entities [LocalPlayer, LocalPlayer], work=[200*, 0*]
     0x0229 [0x55] WAIT_LOAD_SCHEDULER: Wait for scheduler "fdo0" with entities [LocalPlayer, LocalPlayer], work=200*
     0x0238 [0x1B] RETURN
# Dead code (unreachable instructions):
     0x027B [0x45] LOAD_SCHEDULED_TASK: Load scheduler "whi1" with entities [LocalPlayer, LocalPlayer], work=[201*, 0*]
     0x028C [0x55] WAIT_LOAD_SCHEDULER: Wait for scheduler "whi1" with entities [LocalPlayer, LocalPlayer], work=201*
     0x029B [0x1B] RETURN
     0x029C [0x45] LOAD_SCHEDULED_TASK: Load scheduler "who1" with entities [LocalPlayer, LocalPlayer], work=[201*, 0*]
     0x02AD [0x55] WAIT_LOAD_SCHEDULER: Wait for scheduler "who1" with entities [LocalPlayer, LocalPlayer], work=201*
     0x02BC [0x1B] RETURN
     0x02BD [0x45] LOAD_SCHEDULED_TASK: Load scheduler "who2" with entities [LocalPlayer, LocalPlayer], work=[201*, 0*]
     0x02CE [0x55] WAIT_LOAD_SCHEDULER: Wait for scheduler "who2" with entities [LocalPlayer, LocalPlayer], work=201*
     0x02DD [0x1B] RETURN
     0x02DE [0x45] LOAD_SCHEDULED_TASK: Load scheduler "who3" with entities [LocalPlayer, LocalPlayer], work=[201*, 0*]
     0x02EF [0x55] WAIT_LOAD_SCHEDULER: Wait for scheduler "who3" with entities [LocalPlayer, LocalPlayer], work=201*
     0x02FE [0x1B] RETURN
     0x02FF [0x62] LOAD_EVENT_SCHEDULER: Load scheduler "main" with entities [LocalPlayer, LocalPlayer], work=[1*, 0*]
     0x0310 [0x1C] WAIT(45* ticks)
     0x0313 [0x45] LOAD_SCHEDULED_TASK: Load scheduler "fdo1" with entities [LocalPlayer, LocalPlayer], work=[200*, 0*]
     0x0324 [0x55] WAIT_LOAD_SCHEDULER: Wait for scheduler "fdo1" with entities [LocalPlayer, LocalPlayer], work=200*
     0x0333 [0x1B] RETURN
     0x0334 [0x45] LOAD_SCHEDULED_TASK: Load scheduler "fdi1" with entities [LocalPlayer, LocalPlayer], work=[200*, 0*]
     0x0345 [0x62] LOAD_EVENT_SCHEDULER: Load scheduler "main" with entities [LocalPlayer, LocalPlayer], work=[2*, 0*]
     0x0356 [0x1C] WAIT(30* ticks)
     0x0359 [0x55] WAIT_LOAD_SCHEDULER: Wait for scheduler "fdi1" with entities [LocalPlayer, LocalPlayer], work=200*
     0x0368 [0x1B] RETURN
     0x0369 [0x45] LOAD_SCHEDULED_TASK: Load scheduler "blon" with entities [LocalPlayer, LocalPlayer], work=[200*, 0*]
     0x037A [0x45] LOAD_SCHEDULED_TASK: Load scheduler "blon" with entities [LocalPlayer, LocalPlayer], work=[201*, 0*]
     0x038B [0x1B] RETURN
     0x038C [0x45] LOAD_SCHEDULED_TASK: Load scheduler "whi0" with entities [LocalPlayer, LocalPlayer], work=[201*, 0*]
     0x039D [0x55] WAIT_LOAD_SCHEDULER: Wait for scheduler "whi0" with entities [LocalPlayer, LocalPlayer], work=201*
     0x03AC [0x1B] RETURN
     0x03AD [0x45] LOAD_SCHEDULED_TASK: Load scheduler "who0" with entities [LocalPlayer, LocalPlayer], work=[201*, 0*]
     0x03BE [0x55] WAIT_LOAD_SCHEDULER: Wait for scheduler "who0" with entities [LocalPlayer, LocalPlayer], work=201*
     0x03CD [0x1B] RETURN
     0x03CE [0x45] LOAD_SCHEDULED_TASK: Load scheduler "efon" with entities [LocalPlayer, LocalPlayer], work=[215*, 0*]
     0x03DF [0x55] WAIT_LOAD_SCHEDULER: Wait for scheduler "efon" with entities [LocalPlayer, LocalPlayer], work=215*
     0x03EE [0x1B] RETURN
     0x03EF [0x45] LOAD_SCHEDULED_TASK: Load scheduler "fdis" with entities [LocalPlayer, LocalPlayer], work=[200*, 0*]
     0x0400 [0x1B] RETURN
     0x0401 [0x45] LOAD_SCHEDULED_TASK: Load scheduler "fdos" with entities [LocalPlayer, LocalPlayer], work=[200*, 0*]
     0x0412 [0x55] WAIT_LOAD_SCHEDULER: Wait for scheduler "fdos" with entities [LocalPlayer, LocalPlayer], work=200*
     0x0421 [0x1B] RETURN
     0x0422 [0x45] LOAD_SCHEDULED_TASK: Load scheduler "fdif" with entities [LocalPlayer, LocalPlayer], work=[200*, 0*]
     0x0433 [0x1B] RETURN
     0x0434 [0x45] LOAD_SCHEDULED_TASK: Load scheduler "fdof" with entities [LocalPlayer, LocalPlayer], work=[200*, 0*]
     0x0445 [0x55] WAIT_LOAD_SCHEDULER: Wait for scheduler "fdof" with entities [LocalPlayer, LocalPlayer], work=200*
     0x0454 [0x1B] RETURN
     0x0455 [0x45] LOAD_SCHEDULED_TASK: Load scheduler "fdip" with entities [LocalPlayer, LocalPlayer], work=[200*, 0*]
     0x0466 [0x1B] RETURN
     0x0467 [0x45] LOAD_SCHEDULED_TASK: Load scheduler "fdop" with entities [LocalPlayer, LocalPlayer], work=[200*, 0*]
     0x0478 [0x55] WAIT_LOAD_SCHEDULER: Wait for scheduler "fdop" with entities [LocalPlayer, LocalPlayer], work=200*
     0x0487 [0x1B] RETURN
```
