# 17118028 - medama3

## Common Data

| Field            | Value                      |
|------------------|----------------------------|
| Zone             | Vunkerl Inlet [S] (ID: 83) |
| Block Size       | 172 bytes                  |
| Total Events     | 7                          |
| References Count | 15                         |

## List of Events

| Event ID                 | Entrypoint   |   Size |   Instructions |
|--------------------------|--------------|--------|----------------|
| [65535](#event-65535)    | 0x0000       |      1 |              1 |
| [116](#event-116)        | 0x0001       |      1 |              1 |
| [65535.1](#event-655351) | 0x0002       |     13 |              4 |
| [117](#event-117)        | 0x000F       |      9 |              3 |
| [65535.2](#event-655352) | 0x0018       |     11 |              3 |
| [65535.3](#event-655353) | 0x0023       |     22 |              6 |
| [65535.4](#event-655354) | 0x0039       |     11 |              3 |

## DAT References (imed_data)

|   Index | Hex Value   |   Dec Value |
|---------|-------------|-------------|
|       0 | 0xFFFDB3CA  |  4294816714 |
|       1 | 0x2CBBF     |      183231 |
|       2 | 0x0483      |        1155 |
|       3 | 0xFFFDD2A8  |  4294824616 |
|       4 | 0x2D8D6     |      186582 |
|       5 | 0x04AF      |        1199 |
|       6 | 0xFFFDAFA3  |  4294815651 |
|       7 | 0x2C132     |      180530 |
|       8 | 0x05CE      |        1486 |
|       9 | 0xFFFDBFB7  |  4294819767 |
|      10 | 0x2C3EB     |      181227 |
|      11 | 0x067C      |        1660 |
|      12 | 0xFFFDC082  |  4294819970 |
|      13 | 0x2CF5D     |      184157 |
|      14 | 0x0938      |        2360 |

## Events

### Event 65535

#### Metadata

| Field        | Value   |
|--------------|---------|
| Entrypoint   | 0x0000  |
| Data Size    | 1 bytes |
| Instructions | 1       |

```
      00 01 02 03 04 05 06 07  08 09 0A 0B 0C 0D 0E 0F
      -- -- -- -- -- -- -- --  -- -- -- -- -- -- -- --
0000: 00                                                .               
```

#### Opcodes

```
  0: 0x0000 [0x00] END_REQSTACK()
```

### Event 116

#### Metadata

| Field        | Value   |
|--------------|---------|
| Entrypoint   | 0x0001  |
| Data Size    | 1 bytes |
| Instructions | 1       |

```
      00 01 02 03 04 05 06 07  08 09 0A 0B 0C 0D 0E 0F
      -- -- -- -- -- -- -- --  -- -- -- -- -- -- -- --
0000:    00                                              .              
```

#### Opcodes

```
  0: 0x0001 [0x00] END_REQSTACK()
```

### Event 65535.1

#### Metadata

| Field        | Value    |
|--------------|----------|
| Entrypoint   | 0x0002   |
| Data Size    | 13 bytes |
| Instructions | 4        |

```
      00 01 02 03 04 05 06 07  08 09 0A 0B 0C 0D 0E 0F
      -- -- -- -- -- -- -- --  -- -- -- -- -- -- -- --
0000:       33 01 5A 00 00 80  01 80 02 80 5A 01 00       3.Z.......Z.. 
```

#### Opcodes

```
  0: 0x0002 [0x33] EventEntity->Render.Flags0 |= 0x200000 // Bit 21 (flag=0x01)
  1: 0x0004 [0x5A] UPDATE_EVENT_POSITION: Set EventEntity MovePosition to X=-150.582*, Z=183.231*, Y=1.155*
  2: 0x000C [0x5A] UPDATE_EVENT_POSITION: Move EventEntity incrementally towards MovePosition
  3: 0x000E [0x00] END_REQSTACK()
```

### Event 117

#### Metadata

| Field        | Value   |
|--------------|---------|
| Entrypoint   | 0x000F  |
| Data Size    | 9 bytes |
| Instructions | 3       |

```
      00 01 02 03 04 05 06 07  08 09 0A 0B 0C 0D 0E 0F
      -- -- -- -- -- -- -- --  -- -- -- -- -- -- -- --
0000:                                               92                 .
0010: 01 F8 FF FF 7F A4 01 00                           ........        
```

#### Opcodes

```
  0: 0x000F [0x92] EventEntity->Render.Flags3 ^= 0x01
  1: 0x0015 [0xA4] EventEntity->Flags3.unknown_3_2 = 1
  2: 0x0017 [0x00] END_REQSTACK()
```

### Event 65535.2

#### Metadata

| Field        | Value    |
|--------------|----------|
| Entrypoint   | 0x0018   |
| Data Size    | 11 bytes |
| Instructions | 3        |

```
      00 01 02 03 04 05 06 07  08 09 0A 0B 0C 0D 0E 0F
      -- -- -- -- -- -- -- --  -- -- -- -- -- -- -- --
0010:                          1F 00 03 80 04 80 05 80          ........
0020: 1F 01 00                                          ...             
```

#### Opcodes

```
  0: 0x0018 [0x1F] MOVE_ENTITY: EventEntity moves to X=-142.680*, Z=186.582*, Y=1.199*
  1: 0x0020 [0x1F] MOVE_ENTITY: Update entity position (mode=1)
  2: 0x0022 [0x00] END_REQSTACK()
```

### Event 65535.3

#### Metadata

| Field        | Value    |
|--------------|----------|
| Entrypoint   | 0x0023   |
| Data Size    | 22 bytes |
| Instructions | 6        |

```
      00 01 02 03 04 05 06 07  08 09 0A 0B 0C 0D 0E 0F
      -- -- -- -- -- -- -- --  -- -- -- -- -- -- -- --
0020:          1F 00 06 80 07  80 08 80 1F 01 6F 1F 00     ..........o..
0030: 09 80 0A 80 0B 80 1F 01  00                       .........       
```

#### Opcodes

```
  0: 0x0023 [0x1F] MOVE_ENTITY: EventEntity moves to X=-151.645*, Z=180.530*, Y=1.486*
  1: 0x002B [0x1F] MOVE_ENTITY: Update entity position (mode=1)
  2: 0x002D [0x6F] WAIT_FRAME_DELAY: Yield until WaitTime reaches zero
  3: 0x002E [0x1F] MOVE_ENTITY: EventEntity moves to X=-147.529*, Z=181.227*, Y=1.660*
  4: 0x0036 [0x1F] MOVE_ENTITY: Update entity position (mode=1)
  5: 0x0038 [0x00] END_REQSTACK()
```

### Event 65535.4

#### Metadata

| Field        | Value    |
|--------------|----------|
| Entrypoint   | 0x0039   |
| Data Size    | 11 bytes |
| Instructions | 3        |

```
      00 01 02 03 04 05 06 07  08 09 0A 0B 0C 0D 0E 0F
      -- -- -- -- -- -- -- --  -- -- -- -- -- -- -- --
0030:                             5A 00 0C 80 0D 80 0E           Z......
0040: 80 5A 01 00                                       .Z..            
```

#### Opcodes

```
  0: 0x0039 [0x5A] UPDATE_EVENT_POSITION: Set EventEntity MovePosition to X=-147.326*, Z=184.157*, Y=2.360*
  1: 0x0041 [0x5A] UPDATE_EVENT_POSITION: Move EventEntity incrementally towards MovePosition
  2: 0x0043 [0x00] END_REQSTACK()
```
