# 0x7FFFFFF0 - Zone Events

## Common Data

| Field            | Value                      |
|------------------|----------------------------|
| Zone             | Vunkerl Inlet [S] (ID: 83) |
| Block Size       | 2936 bytes                 |
| Total Events     | 32                         |
| References Count | 89                         |

## List of Events

| Event ID                   | Entrypoint   |   Size |   Instructions |
|----------------------------|--------------|--------|----------------|
| [65535](#event-65535)      | 0x0000       |      1 |              1 |
| [65534](#event-65534)      | 0x0001       |      1 |              1 |
| [201](#event-201)          | 0x0002       |    102 |             15 |
| [101](#event-101)          | 0x0068       |    350 |             40 |
| [103](#event-103)          | 0x01C6       |    290 |             34 |
| [65535.1](#event-655351)   | 0x02E8       |     35 |              9 |
| [65535.2](#event-655352)   | 0x030B       |     35 |              9 |
| [65535.3](#event-655353)   | 0x032E       |     37 |              5 |
| [65535.4](#event-655354)   | 0x0353       |     37 |              5 |
| [65535.5](#event-655355)   | 0x0378       |      7 |              3 |
| [65535.6](#event-655356)   | 0x037F       |      7 |              3 |
| [65535.7](#event-655357)   | 0x0386       |     22 |              6 |
| [65535.8](#event-655358)   | 0x039C       |     14 |              4 |
| [65535.9](#event-655359)   | 0x03AA       |     11 |              3 |
| [65535.10](#event-6553510) | 0x03B5       |     17 |              5 |
| [65535.11](#event-6553511) | 0x03C6       |     31 |              7 |
| [65535.12](#event-6553512) | 0x03E5       |     14 |              4 |
| [65535.13](#event-6553513) | 0x03F3       |     11 |              3 |
| [65535.14](#event-6553514) | 0x03FE       |     11 |              3 |
| [65535.15](#event-6553515) | 0x0409       |     19 |              5 |
| [65535.16](#event-6553516) | 0x041C       |     11 |              3 |
| [65535.17](#event-6553517) | 0x0427       |      6 |              2 |
| [65535.18](#event-6553518) | 0x042D       |     12 |              4 |
| [65535.19](#event-6553519) | 0x0439       |     25 |              7 |
| [65535.20](#event-6553520) | 0x0452       |     22 |              6 |
| [65535.21](#event-6553521) | 0x0468       |     14 |              4 |
| [65535.22](#event-6553522) | 0x0476       |     24 |              4 |
| [65535.23](#event-6553523) | 0x048E       |     24 |              4 |
| [65535.24](#event-6553524) | 0x04A6       |     14 |              4 |
| [65535.25](#event-6553525) | 0x04B4       |     10 |              2 |
| [65535.26](#event-6553526) | 0x04BE       |    158 |             34 |
| [264](#event-264)          | 0x055C       |   1061 |            204 |

## DAT References (imed_data)

|   Index | Hex Value   |   Dec Value |
|---------|-------------|-------------|
|       0 | 0x1E17      |        7703 |
|       1 | 0x00C8      |         200 |
|       2 | 0x0000      |           0 |
|       3 | 0x0001      |           1 |
|       4 | 0x005A      |          90 |
|       5 | 0x003C      |          60 |
|       6 | 0x00C9      |         201 |
|       7 | 0x001B      |          27 |
|       8 | 0x31AD5     |      203477 |
|       9 | 0x4CC8F     |      314511 |
|      10 | 0xFFFF834A  |  4294935370 |
|      11 | 0x0F58      |        3928 |
|      12 | 0x001E      |          30 |
|      13 | 0x014B      |         331 |
|      14 | 0x000F      |          15 |
|      15 | 0x0397      |         919 |
|      16 | 0x1E21      |        7713 |
|      17 | 0x00D8      |         216 |
|      18 | 0x1E22      |        7714 |
|      19 | 0x09D9      |        2521 |
|      20 | 0x1E23      |        7715 |
|      21 | 0x1E24      |        7716 |
|      22 | 0x1E25      |        7717 |
|      23 | 0x0028      |          40 |
|      24 | 0x000D      |          13 |
|      25 | 0xFFFA87CC  |  4294608844 |
|      26 | 0x449EF     |      281071 |
|      27 | 0xFFFF8300  |  4294935296 |
|      28 | 0xFFFA91B3  |  4294611379 |
|      29 | 0x452C3     |      283331 |
|      30 | 0xFFFF8252  |  4294935122 |
|      31 | 0xFFFA926F  |  4294611567 |
|      32 | 0x44D76     |      281974 |
|      33 | 0xFFFF828D  |  4294935181 |
|      34 | 0xFFFA363D  |  4294587965 |
|      35 | 0x44A79     |      281209 |
|      36 | 0xFFFF7F7E  |  4294934398 |
|      37 | 0x0015      |          21 |
|      38 | 0xFFFD7458  |  4294800472 |
|      39 | 0x2B8A5     |      178341 |
|      40 | 0x04C0      |        1216 |
|      41 | 0xFFFA7BD9  |  4294605785 |
|      42 | 0x449D9     |      281049 |
|      43 | 0xFFFD463B  |  4294788667 |
|      44 | 0x2B1C5     |      176581 |
|      45 | 0x0535      |        1333 |
|      46 | 0xFFFDB202  |  4294816258 |
|      47 | 0x2D1A7     |      184743 |
|      48 | 0x067C      |        1660 |
|      49 | 0x01B1      |         433 |
|      50 | 0xFFFD56A0  |  4294792864 |
|      51 | 0x2B8CE     |      178382 |
|      52 | 0x04EE      |        1262 |
|      53 | 0xFFFDA8C3  |  4294813891 |
|      54 | 0x2C739     |      182073 |
|      55 | 0x04DA      |        1242 |
|      56 | 0xFFFDC38A  |  4294820746 |
|      57 | 0x2C4C8     |      181448 |
|      58 | 0x06A7      |        1703 |
|      59 | 0xFFF9BEBB  |  4294557371 |
|      60 | 0x43EDB     |      278235 |
|      61 | 0xFFF97377  |  4294538103 |
|      62 | 0x43E26     |      278054 |
|      63 | 0xFFFACE5A  |  4294626906 |
|      64 | 0xFFF5BE58  |  4294295128 |
|      65 | 0xFFFF6694  |  4294928020 |
|      66 | 0x0040      |          64 |
|      67 | 0x0080      |         128 |
|      68 | 0x0005      |           5 |
|      69 | 0x0002      |           2 |
|      70 | 0x000A      |          10 |
|      71 | 0x0009      |           9 |
|      72 | 0x0046      |          70 |
|      73 | 0x008C      |         140 |
|      74 | 0x00D2      |         210 |
|      75 | 0x0003      |           3 |
|      76 | 0x0013      |          19 |
|      77 | 0x0090      |         144 |
|      78 | 0x00B4      |         180 |
|      79 | 0x0004      |           4 |
|      80 | 0x1D05      |        7429 |
|      81 | 0x1D06      |        7430 |
|      82 | 0x1D08      |        7432 |
|      83 | 0x1D09      |        7433 |
|      84 | 0x1D0A      |        7434 |
|      85 | 0x1D0B      |        7435 |
|      86 | 0x0102      |         258 |
|      87 | 0x0202      |         514 |
|      88 | 0x0156      |         342 |

## String References

- **7703**: The order has been given by your party leader to enter [Everbloom Hollow/the Ruhotz Silvermines/Ghoyu's Reverie].

## Events

### Event 65535

#### Metadata

| Field        | Value   |
|--------------|---------|
| Entrypoint   | 0x0000  |
| Data Size    | 1 bytes |
| Instructions | 1       |

```
      00 01 02 03 04 05 06 07  08 09 0A 0B 0C 0D 0E 0F
      -- -- -- -- -- -- -- --  -- -- -- -- -- -- -- --
0000: 00                                                .               
```

#### Opcodes

```
  0: 0x0000 [0x00] END_REQSTACK()
```

### Event 65534

#### Metadata

| Field        | Value   |
|--------------|---------|
| Entrypoint   | 0x0001  |
| Data Size    | 1 bytes |
| Instructions | 1       |

```
      00 01 02 03 04 05 06 07  08 09 0A 0B 0C 0D 0E 0F
      -- -- -- -- -- -- -- --  -- -- -- -- -- -- -- --
0000:    00                                              .              
```

#### Opcodes

```
  0: 0x0001 [0x00] END_REQSTACK()
```

### Event 201

#### Metadata

| Field        | Value     |
|--------------|-----------|
| Entrypoint   | 0x0002    |
| Data Size    | 102 bytes |
| Instructions | 15        |

```
      00 01 02 03 04 05 06 07  08 09 0A 0B 0C 0D 0E 0F
      -- -- -- -- -- -- -- --  -- -- -- -- -- -- -- --
0000:       42 48 00 80 45 01  80 F0 FF FF 7F F0 FF FF    BH..E.........
0010: 7F 66 64 6F 31 02 80 02  03 10 02 80 00 33 00 62  .fdo1........3.b
0020: 03 80 F0 FF FF 7F F0 FF  FF 7F 6D 61 69 6E 02 80  ..........main..
0030: 1C 04 80 1C 05 80 83 1E  17 AA 1E 17 1E 17 1E 17  ................
0040: 1E 17 1E 17 1F 17 1E 17  1E 17 03 04 00 02 80 77  ...............w
0050: 1F 17 04 00 78 45 06 80  F0 FF FF 7F F0 FF FF 7F  ....xE..........
0060: 77 68 69 31 02 80 21 00                           whi1..!.        
```

#### Opcodes

```
  0: 0x0002 [0x42] SET_CLI_EVENT_CANCEL_DATA()
  1: 0x0003 [0x48] [System] [7703*]:
    → "The order has been given by your party leader to enter [Everbloom Hollow/the Ruhotz Silvermines/Ghoyu's Reverie]."
  2: 0x0006 [0x45] LOAD_SCHEDULED_TASK: Load scheduler "fdo1" with entities [LocalPlayer, LocalPlayer], work=[200*, 0*]
  3: 0x0017 [0x02] IF !(Work_Zone[3] == 0*) GOTO 0x0033
  4: 0x001F [0x62] LOAD_EVENT_SCHEDULER: Load scheduler "main" with entities [LocalPlayer, LocalPlayer], work=[1*, 0*]
  5: 0x0030 [0x1C] WAIT(90* ticks)
  6: 0x0033 [0x1C] WAIT(60* ticks)
  7: 0x0036 [0x83] Work_Zone_1700[30] = GetGameTime()
  8: 0x0039 [0xAA] VANA_DIEL_TIMESTAMP_CONVERTER(timestamp=Work_Zone_1700[30], year=Work_Zone_1700[30], month=Work_Zone_1700[30], day=Work_Zone_1700[30], weekday=Work_Zone_1700[30], hour=Work_Zone_1700[31], minute=Work_Zone_1700[30], moon=Work_Zone_1700[30])
  9: 0x004A [0x03] ExtData[1]->WorkLocal[4] = 0*
 10: 0x004F [0x77] SET_EVENT_TIME_WEATHER(hour=Work_Zone_1700[31], weather=ExtData[1]->WorkLocal[4])
 11: 0x0054 [0x78] ENABLE_GAME_TIMER_RESET_WEATHER()
 12: 0x0055 [0x45] LOAD_SCHEDULED_TASK: Load scheduler "whi1" with entities [LocalPlayer, LocalPlayer], work=[201*, 0*]
 13: 0x0066 [0x21] END_EVENT
 14: 0x0067 [0x00] END_REQSTACK()
```

### Event 101

#### Metadata

| Field        | Value     |
|--------------|-----------|
| Entrypoint   | 0x0068    |
| Data Size    | 350 bytes |
| Instructions | 40        |

```
      00 01 02 03 04 05 06 07  08 09 0A 0B 0C 0D 0E 0F
      -- -- -- -- -- -- -- --  -- -- -- -- -- -- -- --
0060:                          42 45 01 80 F8 FF FF 7F          BE......
0070: F8 FF FF 7F 66 64 6F 31  02 80 55 01 80 F8 FF FF  ....fdo1..U.....
0080: 7F F8 FF FF 7F 66 64 6F  31 46 01 38 07 80 92 01  .....fdo1F.8....
0090: 03 33 05 01 4E 00 03 33  05 01 80 03 33 05 01 BA  .3..N..3....3...
00A0: F0 FF FF 7F 08 80 09 80  0A 80 0B 80 80 F0 FF FF  ................
00B0: 7F 4A F0 FF FF 7F 03 33  05 01 4A 03 33 05 01 F0  .J.....3..J.3...
00C0: FF FF 7F 1C 0C 80 45 0D  80 F8 FF FF 7F F8 FF FF  ......E.........
00D0: 7F 73 32 30 31 02 80 1C  0E 80 45 01 80 F8 FF FF  .s201.....E.....
00E0: 7F F8 FF FF 7F 66 64 69  31 02 80 55 01 80 F8 FF  .....fdi1..U....
00F0: FF 7F F8 FF FF 7F 66 64  69 31 03 02 10 0F 80 2B  ......fdi1.....+
0100: 03 33 05 01 10 80 23 52  0D 80 F8 FF FF 7F F8 FF  .3....#R........
0110: FF 7F 73 32 30 31 45 0D  80 F8 FF FF 7F F8 FF FF  ..s201E.........
0120: 7F 73 32 30 32 02 80 5B  11 80 03 33 05 01 03 33  .s202..[...3...3
0130: 05 01 66 75 6D 30 2B 03  33 05 01 12 80 23 5B 11  ..fum0+.3....#[.
0140: 80 03 33 05 01 03 33 05  01 66 75 6D 31 52 0D 80  ..3...3..fum1R..
0150: F8 FF FF 7F F8 FF FF 7F  73 32 30 32 45 0D 80 F8  ........s202E...
0160: FF FF 7F F8 FF FF 7F 73  32 30 33 02 80 03 02 10  .......s203.....
0170: 13 80 03 03 10 0F 80 2B  03 33 05 01 14 80 23 45  .......+.3....#E
0180: 01 80 F8 FF FF 7F F8 FF  FF 7F 66 64 6F 31 02 80  ..........fdo1..
0190: 55 01 80 F8 FF FF 7F F8  FF FF 7F 66 64 6F 31 52  U..........fdo1R
01A0: 0D 80 F8 FF FF 7F F8 FF  FF 7F 73 32 30 33 46 00  ..........s203F.
01B0: 1C 05 80 45 01 80 F8 FF  FF 7F F8 FF FF 7F 66 64  ...E..........fd
01C0: 69 31 02 80 21 00                                 i1..!.          
```

#### Opcodes

```
  0: 0x0068 [0x42] SET_CLI_EVENT_CANCEL_DATA()
  1: 0x0069 [0x45] LOAD_SCHEDULED_TASK: Load scheduler "fdo1" with entities [EventEntity, EventEntity], work=[200*, 0*]
  2: 0x007A [0x55] WAIT_LOAD_SCHEDULER: Wait for scheduler "fdo1" with entities [EventEntity, EventEntity], work=200*
  3: 0x0089 [0x46] CAMERA_CONTROL: Disable user control
  4: 0x008B [0x38] SET_CLIENT_EVENT_MODE(mode=27*)
  5: 0x008E [0x92] Leadavox (ID: 17117955/0x01053303)->Render.Flags3 ^= 0x01
  6: 0x0094 [0x4E] SET_ENTITY_HIDE_FLAG: Show Leadavox (ID: 17117955/0x01053303)
  7: 0x009A [0x80] LOAD_WAIT(entity=Leadavox (ID: 17117955/0x01053303))
  8: 0x009F [0xBA] SET_ENTITY_POSITION(entity_id=LocalPlayer, pos_x=203.477*, pos_z=314.511*, pos_y=-31.926*, direction=345.2°*)
  9: 0x00AC [0x80] LOAD_WAIT(entity=LocalPlayer)
 10: 0x00B1 [0x4A] LocalPlayer looks at Leadavox (ID: 17117955/0x01053303)
 11: 0x00BA [0x4A] Leadavox (ID: 17117955/0x01053303) looks at LocalPlayer
 12: 0x00C3 [0x1C] WAIT(30* ticks)
 13: 0x00C6 [0x45] LOAD_SCHEDULED_TASK: Load scheduler "s201" with entities [EventEntity, EventEntity], work=[331*, 0*]
 14: 0x00D7 [0x1C] WAIT(15* ticks)
 15: 0x00DA [0x45] LOAD_SCHEDULED_TASK: Load scheduler "fdi1" with entities [EventEntity, EventEntity], work=[200*, 0*]
 16: 0x00EB [0x55] WAIT_LOAD_SCHEDULER: Wait for scheduler "fdi1" with entities [EventEntity, EventEntity], work=200*
 17: 0x00FA [0x03] Work_Zone[2] = 919*
 18: 0x00FF [0x2B] Leadavox (ID: 17117955/0x01053303) [7713*]:
    → "You came for the $3? Well, it's ready."
 19: 0x0106 [0x23] WAIT_FOR_DIALOG_INTERACTION
 20: 0x0107 [0x52] END_LOAD_SCHEDULER: End scheduler "s201" with entities [EventEntity, EventEntity], work=331*
 21: 0x0116 [0x45] LOAD_SCHEDULED_TASK: Load scheduler "s202" with entities [EventEntity, EventEntity], work=[331*, 0*]
 22: 0x0127 [0x5B] LOAD_EXT_SCHEDULER: Load scheduler "fum0" with entities [Leadavox (ID: 17117955/0x01053303), Leadavox (ID: 17117955/0x01053303)], work=216*
 23: 0x0136 [0x2B] Leadavox (ID: 17117955/0x01053303) [7714*]:
    → "It was a hell of a job gettin' a hold of it, though. I think I deserve a little bonus."
 24: 0x013D [0x23] WAIT_FOR_DIALOG_INTERACTION
 25: 0x013E [0x5B] LOAD_EXT_SCHEDULER: Load scheduler "fum1" with entities [Leadavox (ID: 17117955/0x01053303), Leadavox (ID: 17117955/0x01053303)], work=216*
 26: 0x014D [0x52] END_LOAD_SCHEDULER: End scheduler "s202" with entities [EventEntity, EventEntity], work=331*
 27: 0x015C [0x45] LOAD_SCHEDULED_TASK: Load scheduler "s203" with entities [EventEntity, EventEntity], work=[331*, 0*]
 28: 0x016D [0x03] Work_Zone[2] = 2521*
 29: 0x0172 [0x03] Work_Zone[3] = 919*
 30: 0x0177 [0x2B] Leadavox (ID: 17117955/0x01053303) [7715*]:
    → "You bring me $0, you'll get the $3."
 31: 0x017E [0x23] WAIT_FOR_DIALOG_INTERACTION
 32: 0x017F [0x45] LOAD_SCHEDULED_TASK: Load scheduler "fdo1" with entities [EventEntity, EventEntity], work=[200*, 0*]
 33: 0x0190 [0x55] WAIT_LOAD_SCHEDULER: Wait for scheduler "fdo1" with entities [EventEntity, EventEntity], work=200*
 34: 0x019F [0x52] END_LOAD_SCHEDULER: End scheduler "s203" with entities [EventEntity, EventEntity], work=331*
 35: 0x01AE [0x46] CAMERA_CONTROL: Restore default settings
 36: 0x01B0 [0x1C] WAIT(60* ticks)
 37: 0x01B3 [0x45] LOAD_SCHEDULED_TASK: Load scheduler "fdi1" with entities [EventEntity, EventEntity], work=[200*, 0*]
 38: 0x01C4 [0x21] END_EVENT
 39: 0x01C5 [0x00] END_REQSTACK()
```

### Event 103

#### Metadata

| Field        | Value     |
|--------------|-----------|
| Entrypoint   | 0x01C6    |
| Data Size    | 290 bytes |
| Instructions | 34        |

```
      00 01 02 03 04 05 06 07  08 09 0A 0B 0C 0D 0E 0F
      -- -- -- -- -- -- -- --  -- -- -- -- -- -- -- --
01C0:                   42 45  01 80 F8 FF FF 7F F8 FF        BE........
01D0: FF 7F 66 64 6F 31 02 80  55 01 80 F8 FF FF 7F F8  ..fdo1..U.......
01E0: FF FF 7F 66 64 6F 31 46  01 38 07 80 92 01 03 33  ...fdo1F.8.....3
01F0: 05 01 4E 00 03 33 05 01  80 03 33 05 01 BA F0 FF  ..N..3....3.....
0200: FF 7F 08 80 09 80 0A 80  0B 80 80 F0 FF FF 7F 4A  ...............J
0210: F0 FF FF 7F 03 33 05 01  4A 03 33 05 01 F0 FF FF  .....3..J.3.....
0220: 7F 1C 0C 80 45 0D 80 F8  FF FF 7F F8 FF FF 7F 73  ....E..........s
0230: 32 30 34 02 80 1C 0E 80  45 01 80 F8 FF FF 7F F8  204.....E.......
0240: FF FF 7F 66 64 69 31 02  80 55 01 80 F8 FF FF 7F  ...fdi1..U......
0250: F8 FF FF 7F 66 64 69 31  03 02 10 13 80 03 03 10  ....fdi1........
0260: 0F 80 2B 03 33 05 01 15  80 23 52 0D 80 F8 FF FF  ..+.3....#R.....
0270: 7F F8 FF FF 7F 73 32 30  34 45 0D 80 F8 FF FF 7F  .....s204E......
0280: F8 FF FF 7F 73 32 30 35  02 80 5B 11 80 03 33 05  ....s205..[...3.
0290: 01 03 33 05 01 68 61 70  30 2B 03 33 05 01 16 80  ..3..hap0+.3....
02A0: 23 45 01 80 F8 FF FF 7F  F8 FF FF 7F 66 64 6F 31  #E..........fdo1
02B0: 02 80 55 01 80 F8 FF FF  7F F8 FF FF 7F 66 64 6F  ..U..........fdo
02C0: 31 52 0D 80 F8 FF FF 7F  F8 FF FF 7F 73 32 30 35  1R..........s205
02D0: 46 00 1C 05 80 45 01 80  F8 FF FF 7F F8 FF FF 7F  F....E..........
02E0: 66 64 69 31 02 80 21 00                           fdi1..!.        
```

#### Opcodes

```
  0: 0x01C6 [0x42] SET_CLI_EVENT_CANCEL_DATA()
  1: 0x01C7 [0x45] LOAD_SCHEDULED_TASK: Load scheduler "fdo1" with entities [EventEntity, EventEntity], work=[200*, 0*]
  2: 0x01D8 [0x55] WAIT_LOAD_SCHEDULER: Wait for scheduler "fdo1" with entities [EventEntity, EventEntity], work=200*
  3: 0x01E7 [0x46] CAMERA_CONTROL: Disable user control
  4: 0x01E9 [0x38] SET_CLIENT_EVENT_MODE(mode=27*)
  5: 0x01EC [0x92] Leadavox (ID: 17117955/0x01053303)->Render.Flags3 ^= 0x01
  6: 0x01F2 [0x4E] SET_ENTITY_HIDE_FLAG: Show Leadavox (ID: 17117955/0x01053303)
  7: 0x01F8 [0x80] LOAD_WAIT(entity=Leadavox (ID: 17117955/0x01053303))
  8: 0x01FD [0xBA] SET_ENTITY_POSITION(entity_id=LocalPlayer, pos_x=203.477*, pos_z=314.511*, pos_y=-31.926*, direction=345.2°*)
  9: 0x020A [0x80] LOAD_WAIT(entity=LocalPlayer)
 10: 0x020F [0x4A] LocalPlayer looks at Leadavox (ID: 17117955/0x01053303)
 11: 0x0218 [0x4A] Leadavox (ID: 17117955/0x01053303) looks at LocalPlayer
 12: 0x0221 [0x1C] WAIT(30* ticks)
 13: 0x0224 [0x45] LOAD_SCHEDULED_TASK: Load scheduler "s204" with entities [EventEntity, EventEntity], work=[331*, 0*]
 14: 0x0235 [0x1C] WAIT(15* ticks)
 15: 0x0238 [0x45] LOAD_SCHEDULED_TASK: Load scheduler "fdi1" with entities [EventEntity, EventEntity], work=[200*, 0*]
 16: 0x0249 [0x55] WAIT_LOAD_SCHEDULER: Wait for scheduler "fdi1" with entities [EventEntity, EventEntity], work=200*
 17: 0x0258 [0x03] Work_Zone[2] = 2521*
 18: 0x025D [0x03] Work_Zone[3] = 919*
 19: 0x0262 [0x2B] Leadavox (ID: 17117955/0x01053303) [7716*]:
    → "You got the $0? Here's your $3, then."
 20: 0x0269 [0x23] WAIT_FOR_DIALOG_INTERACTION
 21: 0x026A [0x52] END_LOAD_SCHEDULER: End scheduler "s204" with entities [EventEntity, EventEntity], work=331*
 22: 0x0279 [0x45] LOAD_SCHEDULED_TASK: Load scheduler "s205" with entities [EventEntity, EventEntity], work=[331*, 0*]
 23: 0x028A [0x5B] LOAD_EXT_SCHEDULER: Load scheduler "hap0" with entities [Leadavox (ID: 17117955/0x01053303), Leadavox (ID: 17117955/0x01053303)], work=216*
 24: 0x0299 [0x2B] Leadavox (ID: 17117955/0x01053303) [7717*]:
    → "The Gigas love these $0. They'll tell me all sortsa secrets now. Leadavox is their little buddy."
 25: 0x02A0 [0x23] WAIT_FOR_DIALOG_INTERACTION
 26: 0x02A1 [0x45] LOAD_SCHEDULED_TASK: Load scheduler "fdo1" with entities [EventEntity, EventEntity], work=[200*, 0*]
 27: 0x02B2 [0x55] WAIT_LOAD_SCHEDULER: Wait for scheduler "fdo1" with entities [EventEntity, EventEntity], work=200*
 28: 0x02C1 [0x52] END_LOAD_SCHEDULER: End scheduler "s205" with entities [EventEntity, EventEntity], work=331*
 29: 0x02D0 [0x46] CAMERA_CONTROL: Restore default settings
 30: 0x02D2 [0x1C] WAIT(60* ticks)
 31: 0x02D5 [0x45] LOAD_SCHEDULED_TASK: Load scheduler "fdi1" with entities [EventEntity, EventEntity], work=[200*, 0*]
 32: 0x02E6 [0x21] END_EVENT
 33: 0x02E7 [0x00] END_REQSTACK()
```

### Event 65535.1

#### Metadata

| Field        | Value    |
|--------------|----------|
| Entrypoint   | 0x02E8   |
| Data Size    | 35 bytes |
| Instructions | 9        |

```
      00 01 02 03 04 05 06 07  08 09 0A 0B 0C 0D 0E 0F
      -- -- -- -- -- -- -- --  -- -- -- -- -- -- -- --
02E0:                          03 00 00 25 10 03 02 00          ...%....
02F0: 26 10 03 01 00 27 10 03  03 00 28 10 32 17 80 1F  &....'....(.2...
0300: 00 00 00 02 00 01 00 1F  01 6F 00                 .........o.     
```

#### Opcodes

```
  0: 0x02E8 [0x03] ExtData[1]->WorkLocal[0] = Work_Zone[37]
  1: 0x02ED [0x03] ExtData[1]->WorkLocal[2] = Work_Zone[38]
  2: 0x02F2 [0x03] ExtData[1]->WorkLocal[1] = Work_Zone[39]
  3: 0x02F7 [0x03] ExtData[1]->WorkLocal[3] = Work_Zone[40]
  4: 0x02FC [0x32] ExtData[1]->MainSpeed = 40* * 0.1
  5: 0x02FF [0x1F] MOVE_ENTITY: EventEntity moves to X=ExtData[1]->WorkLocal[0], Z=ExtData[1]->WorkLocal[2], Y=ExtData[1]->WorkLocal[1]
  6: 0x0307 [0x1F] MOVE_ENTITY: Update entity position (mode=1)
  7: 0x0309 [0x6F] WAIT_FRAME_DELAY: Yield until WaitTime reaches zero
  8: 0x030A [0x00] END_REQSTACK()
```

### Event 65535.2

#### Metadata

| Field        | Value    |
|--------------|----------|
| Entrypoint   | 0x030B   |
| Data Size    | 35 bytes |
| Instructions | 9        |

```
      00 01 02 03 04 05 06 07  08 09 0A 0B 0C 0D 0E 0F
      -- -- -- -- -- -- -- --  -- -- -- -- -- -- -- --
0300:                                   03 00 00 25 10             ...%.
0310: 03 02 00 26 10 03 01 00  27 10 03 03 00 28 10 32  ...&....'....(.2
0320: 18 80 1F 00 00 00 02 00  01 00 1F 01 6F 00        ............o.  
```

#### Opcodes

```
  0: 0x030B [0x03] ExtData[1]->WorkLocal[0] = Work_Zone[37]
  1: 0x0310 [0x03] ExtData[1]->WorkLocal[2] = Work_Zone[38]
  2: 0x0315 [0x03] ExtData[1]->WorkLocal[1] = Work_Zone[39]
  3: 0x031A [0x03] ExtData[1]->WorkLocal[3] = Work_Zone[40]
  4: 0x031F [0x32] ExtData[1]->MainSpeed = 13* * 0.1
  5: 0x0322 [0x1F] MOVE_ENTITY: EventEntity moves to X=ExtData[1]->WorkLocal[0], Z=ExtData[1]->WorkLocal[2], Y=ExtData[1]->WorkLocal[1]
  6: 0x032A [0x1F] MOVE_ENTITY: Update entity position (mode=1)
  7: 0x032C [0x6F] WAIT_FRAME_DELAY: Yield until WaitTime reaches zero
  8: 0x032D [0x00] END_REQSTACK()
```

### Event 65535.3

#### Metadata

| Field        | Value    |
|--------------|----------|
| Entrypoint   | 0x032E   |
| Data Size    | 37 bytes |
| Instructions | 5        |

```
      00 01 02 03 04 05 06 07  08 09 0A 0B 0C 0D 0E 0F
      -- -- -- -- -- -- -- --  -- -- -- -- -- -- -- --
0320:                                            03 05                ..
0330: 00 07 7F 1A C8 04 66 06  00 F8 FF FF 7F F8 FF FF  ......f.........
0340: 7F 73 68 61 30 53 F8 FF  FF 7F F8 FF FF 7F 73 68  .sha0S........sh
0350: 61 30 00                                          a0.             
```

#### Opcodes

```
  0: 0x032E [0x03] ExtData[1]->WorkLocal[5] = Entity->Race
  1: 0x0333 [0x1A] CALL_SUBROUTINE(address=0x04C8)
  2: 0x0336 [0x66] LOAD_EXT_SCHEDULER_MAIN: Load scheduler "sha0" with entities [EventEntity, EventEntity], work=ExtData[1]->WorkLocal[6]
  3: 0x0345 [0x53] WAIT_SCHEDULER_TASK: Wait for scheduler "sha0" with entities [EventEntity, EventEntity]
  4: 0x0352 [0x00] END_REQSTACK()
```

### Event 65535.4

#### Metadata

| Field        | Value    |
|--------------|----------|
| Entrypoint   | 0x0353   |
| Data Size    | 37 bytes |
| Instructions | 5        |

```
      00 01 02 03 04 05 06 07  08 09 0A 0B 0C 0D 0E 0F
      -- -- -- -- -- -- -- --  -- -- -- -- -- -- -- --
0350:          03 05 00 07 7F  1A C8 04 66 06 00 F8 FF     ........f....
0360: FF 7F F8 FF FF 7F 73 68  61 31 53 F8 FF FF 7F F8  ......sha1S.....
0370: FF FF 7F 73 68 61 31 00                           ...sha1.        
```

#### Opcodes

```
  0: 0x0353 [0x03] ExtData[1]->WorkLocal[5] = Entity->Race
  1: 0x0358 [0x1A] CALL_SUBROUTINE(address=0x04C8)
  2: 0x035B [0x66] LOAD_EXT_SCHEDULER_MAIN: Load scheduler "sha1" with entities [EventEntity, EventEntity], work=ExtData[1]->WorkLocal[6]
  3: 0x036A [0x53] WAIT_SCHEDULER_TASK: Wait for scheduler "sha1" with entities [EventEntity, EventEntity]
  4: 0x0377 [0x00] END_REQSTACK()
```

### Event 65535.5

#### Metadata

| Field        | Value   |
|--------------|---------|
| Entrypoint   | 0x0378  |
| Data Size    | 7 bytes |
| Instructions | 3       |

```
      00 01 02 03 04 05 06 07  08 09 0A 0B 0C 0D 0E 0F
      -- -- -- -- -- -- -- --  -- -- -- -- -- -- -- --
0370:                          AB 03 AC 01 03 80 00             ....... 
```

#### Opcodes

```
  0: 0x0378 [0xAB] EventEntity->Render.Flags0 ^= 0x20000 // Toggle bit 17
  1: 0x037A [0xAC] EventEntity->StatusEvent = 1*
  2: 0x037E [0x00] END_REQSTACK()
```

### Event 65535.6

#### Metadata

| Field        | Value   |
|--------------|---------|
| Entrypoint   | 0x037F  |
| Data Size    | 7 bytes |
| Instructions | 3       |

```
      00 01 02 03 04 05 06 07  08 09 0A 0B 0C 0D 0E 0F
      -- -- -- -- -- -- -- --  -- -- -- -- -- -- -- --
0370:                                               AC                 .
0380: 01 02 80 AB 04 00                                 ......          
```

#### Opcodes

```
  0: 0x037F [0xAC] EventEntity->StatusEvent = 0*
  1: 0x0383 [0xAB] EventEntity->Render.Flags0 |= 0x40000 // Set bit 18
  2: 0x0385 [0x00] END_REQSTACK()
```

### Event 65535.7

#### Metadata

| Field        | Value    |
|--------------|----------|
| Entrypoint   | 0x0386   |
| Data Size    | 22 bytes |
| Instructions | 6        |

```
      00 01 02 03 04 05 06 07  08 09 0A 0B 0C 0D 0E 0F
      -- -- -- -- -- -- -- --  -- -- -- -- -- -- -- --
0380:                   32 17  80 5A 00 19 80 1A 80 1B        2..Z......
0390: 80 5A 01 1E 3C 33 05 01  1C 0C 80 00              .Z..<3......    
```

#### Opcodes

```
  0: 0x0386 [0x32] ExtData[1]->MainSpeed = 40* * 0.1
  1: 0x0389 [0x5A] UPDATE_EVENT_POSITION: Set EventEntity MovePosition to X=-358.452*, Z=281.071*, Y=-32.000*
  2: 0x0391 [0x5A] UPDATE_EVENT_POSITION: Move EventEntity incrementally towards MovePosition
  3: 0x0393 [0x1E] EventEntity looks at Klara (ID: 17118012/0x0105333C) and starts talking
  4: 0x0398 [0x1C] WAIT(30* ticks)
  5: 0x039B [0x00] END_REQSTACK()
```

### Event 65535.8

#### Metadata

| Field        | Value    |
|--------------|----------|
| Entrypoint   | 0x039C   |
| Data Size    | 14 bytes |
| Instructions | 4        |

```
      00 01 02 03 04 05 06 07  08 09 0A 0B 0C 0D 0E 0F
      -- -- -- -- -- -- -- --  -- -- -- -- -- -- -- --
0390:                                      32 17 80 5A              2..Z
03A0: 00 1C 80 1D 80 1E 80 5A  01 00                    .......Z..      
```

#### Opcodes

```
  0: 0x039C [0x32] ExtData[1]->MainSpeed = 40* * 0.1
  1: 0x039F [0x5A] UPDATE_EVENT_POSITION: Set EventEntity MovePosition to X=-355.917*, Z=283.331*, Y=-32.174*
  2: 0x03A7 [0x5A] UPDATE_EVENT_POSITION: Move EventEntity incrementally towards MovePosition
  3: 0x03A9 [0x00] END_REQSTACK()
```

### Event 65535.9

#### Metadata

| Field        | Value    |
|--------------|----------|
| Entrypoint   | 0x03AA   |
| Data Size    | 11 bytes |
| Instructions | 3        |

```
      00 01 02 03 04 05 06 07  08 09 0A 0B 0C 0D 0E 0F
      -- -- -- -- -- -- -- --  -- -- -- -- -- -- -- --
03A0:                                1F 00 1F 80 20 80            .... .
03B0: 21 80 1F 01 00                                    !....           
```

#### Opcodes

```
  0: 0x03AA [0x1F] MOVE_ENTITY: EventEntity moves to X=-355.729*, Z=281.974*, Y=-32.115*
  1: 0x03B2 [0x1F] MOVE_ENTITY: Update entity position (mode=1)
  2: 0x03B4 [0x00] END_REQSTACK()
```

### Event 65535.10

#### Metadata

| Field        | Value    |
|--------------|----------|
| Entrypoint   | 0x03B5   |
| Data Size    | 17 bytes |
| Instructions | 5        |

```
      00 01 02 03 04 05 06 07  08 09 0A 0B 0C 0D 0E 0F
      -- -- -- -- -- -- -- --  -- -- -- -- -- -- -- --
03B0:                1F 00 22  80 23 80 24 80 1F 01 6F       ..".#.$...o
03C0: 1E 49 33 05 01 00                                 .I3...          
```

#### Opcodes

```
  0: 0x03B5 [0x1F] MOVE_ENTITY: EventEntity moves to X=-379.331*, Z=281.209*, Y=-32.898*
  1: 0x03BD [0x1F] MOVE_ENTITY: Update entity position (mode=1)
  2: 0x03BF [0x6F] WAIT_FRAME_DELAY: Yield until WaitTime reaches zero
  3: 0x03C0 [0x1E] EventEntity looks at Five Moons (ID: 17118025/0x01053349) and starts talking
  4: 0x03C5 [0x00] END_REQSTACK()
```

### Event 65535.11

#### Metadata

| Field        | Value    |
|--------------|----------|
| Entrypoint   | 0x03C6   |
| Data Size    | 31 bytes |
| Instructions | 7        |

```
      00 01 02 03 04 05 06 07  08 09 0A 0B 0C 0D 0E 0F
      -- -- -- -- -- -- -- --  -- -- -- -- -- -- -- --
03C0:                   1C 0C  80 4A F0 FF FF 7F 48 33        ...J....H3
03D0: 05 01 6F 76 F0 FF FF 7F  6E F0 FF FF 7F 25 80 99  ..ov....n....%..
03E0: F0 FF FF 7F 00                                    .....           
```

#### Opcodes

```
  0: 0x03C6 [0x1C] WAIT(30* ticks)
  1: 0x03C9 [0x4A] LocalPlayer looks at Nicolaus (ID: 17118024/0x01053348)
  2: 0x03D2 [0x6F] WAIT_FRAME_DELAY: Yield until WaitTime reaches zero
  3: 0x03D3 [0x76] CHECK_ENTITY_RENDER_FLAGS: Wait until LocalPlayer Render.Flags0 and Render.Flags3 conditions are met
  4: 0x03D8 [0x6E] LocalPlayer uses emote 21*
  5: 0x03DF [0x99] Wait for LocalPlayer animation to complete
  6: 0x03E4 [0x00] END_REQSTACK()
```

### Event 65535.12

#### Metadata

| Field        | Value    |
|--------------|----------|
| Entrypoint   | 0x03E5   |
| Data Size    | 14 bytes |
| Instructions | 4        |

```
      00 01 02 03 04 05 06 07  08 09 0A 0B 0C 0D 0E 0F
      -- -- -- -- -- -- -- --  -- -- -- -- -- -- -- --
03E0:                32 17 80  5A 00 26 80 27 80 28 80       2..Z.&.'.(.
03F0: 5A 01 00                                          Z..             
```

#### Opcodes

```
  0: 0x03E5 [0x32] ExtData[1]->MainSpeed = 40* * 0.1
  1: 0x03E8 [0x5A] UPDATE_EVENT_POSITION: Set EventEntity MovePosition to X=-166.824*, Z=178.341*, Y=1.216*
  2: 0x03F0 [0x5A] UPDATE_EVENT_POSITION: Move EventEntity incrementally towards MovePosition
  3: 0x03F2 [0x00] END_REQSTACK()
```

### Event 65535.13

#### Metadata

| Field        | Value    |
|--------------|----------|
| Entrypoint   | 0x03F3   |
| Data Size    | 11 bytes |
| Instructions | 3        |

```
      00 01 02 03 04 05 06 07  08 09 0A 0B 0C 0D 0E 0F
      -- -- -- -- -- -- -- --  -- -- -- -- -- -- -- --
03F0:          1F 00 29 80 2A  80 24 80 1F 01 00           ..).*.$....  
```

#### Opcodes

```
  0: 0x03F3 [0x1F] MOVE_ENTITY: EventEntity moves to X=-361.511*, Z=281.049*, Y=-32.898*
  1: 0x03FB [0x1F] MOVE_ENTITY: Update entity position (mode=1)
  2: 0x03FD [0x00] END_REQSTACK()
```

### Event 65535.14

#### Metadata

| Field        | Value    |
|--------------|----------|
| Entrypoint   | 0x03FE   |
| Data Size    | 11 bytes |
| Instructions | 3        |

```
      00 01 02 03 04 05 06 07  08 09 0A 0B 0C 0D 0E 0F
      -- -- -- -- -- -- -- --  -- -- -- -- -- -- -- --
03F0:                                            1F 00                ..
0400: 2B 80 2C 80 2D 80 1F 01  00                       +.,.-....       
```

#### Opcodes

```
  0: 0x03FE [0x1F] MOVE_ENTITY: EventEntity moves to X=-178.629*, Z=176.581*, Y=1.333*
  1: 0x0406 [0x1F] MOVE_ENTITY: Update entity position (mode=1)
  2: 0x0408 [0x00] END_REQSTACK()
```

### Event 65535.15

#### Metadata

| Field        | Value    |
|--------------|----------|
| Entrypoint   | 0x0409   |
| Data Size    | 19 bytes |
| Instructions | 5        |

```
      00 01 02 03 04 05 06 07  08 09 0A 0B 0C 0D 0E 0F
      -- -- -- -- -- -- -- --  -- -- -- -- -- -- -- --
0400:                             1F 00 2E 80 2F 80 30           ..../.0
0410: 80 1F 01 6F 4B F0 FF FF  7F 31 80 00              ...oK....1..    
```

#### Opcodes

```
  0: 0x0409 [0x1F] MOVE_ENTITY: EventEntity moves to X=-151.038*, Z=184.743*, Y=1.660*
  1: 0x0411 [0x1F] MOVE_ENTITY: Update entity position (mode=1)
  2: 0x0413 [0x6F] WAIT_FRAME_DELAY: Yield until WaitTime reaches zero
  3: 0x0414 [0x4B] UPDATE_ENTITY_YAW(entity=LocalPlayer, yaw=2.4°*)
  4: 0x041B [0x00] END_REQSTACK()
```

### Event 65535.16

#### Metadata

| Field        | Value    |
|--------------|----------|
| Entrypoint   | 0x041C   |
| Data Size    | 11 bytes |
| Instructions | 3        |

```
      00 01 02 03 04 05 06 07  08 09 0A 0B 0C 0D 0E 0F
      -- -- -- -- -- -- -- --  -- -- -- -- -- -- -- --
0410:                                      1F 00 32 80              ..2.
0420: 33 80 34 80 1F 01 00                              3.4....         
```

#### Opcodes

```
  0: 0x041C [0x1F] MOVE_ENTITY: EventEntity moves to X=-174.432*, Z=178.382*, Y=1.262*
  1: 0x0424 [0x1F] MOVE_ENTITY: Update entity position (mode=1)
  2: 0x0426 [0x00] END_REQSTACK()
```

### Event 65535.17

#### Metadata

| Field        | Value   |
|--------------|---------|
| Entrypoint   | 0x0427  |
| Data Size    | 6 bytes |
| Instructions | 2       |

```
      00 01 02 03 04 05 06 07  08 09 0A 0B 0C 0D 0E 0F
      -- -- -- -- -- -- -- --  -- -- -- -- -- -- -- --
0420:                      03  02 10 07 7F 00                  ......   
```

#### Opcodes

```
  0: 0x0427 [0x03] Work_Zone[2] = Entity->Race
  1: 0x042C [0x00] END_REQSTACK()
```

### Event 65535.18

#### Metadata

| Field        | Value    |
|--------------|----------|
| Entrypoint   | 0x042D   |
| Data Size    | 12 bytes |
| Instructions | 4        |

```
      00 01 02 03 04 05 06 07  08 09 0A 0B 0C 0D 0E 0F
      -- -- -- -- -- -- -- --  -- -- -- -- -- -- -- --
0420:                                         1F 00 35               ..5
0430: 80 36 80 37 80 1F 01 6F  00                       .6.7...o.       
```

#### Opcodes

```
  0: 0x042D [0x1F] MOVE_ENTITY: EventEntity moves to X=-153.405*, Z=182.073*, Y=1.242*
  1: 0x0435 [0x1F] MOVE_ENTITY: Update entity position (mode=1)
  2: 0x0437 [0x6F] WAIT_FRAME_DELAY: Yield until WaitTime reaches zero
  3: 0x0438 [0x00] END_REQSTACK()
```

### Event 65535.19

#### Metadata

| Field        | Value    |
|--------------|----------|
| Entrypoint   | 0x0439   |
| Data Size    | 25 bytes |
| Instructions | 7        |

```
      00 01 02 03 04 05 06 07  08 09 0A 0B 0C 0D 0E 0F
      -- -- -- -- -- -- -- --  -- -- -- -- -- -- -- --
0430:                             1F 00 38 80 39 80 3A           ..8.9.:
0440: 80 1F 01 6F 4B F0 FF FF  7F 31 80 6F 76 F0 FF FF  ...oK....1.ov...
0450: 7F 00                                             ..              
```

#### Opcodes

```
  0: 0x0439 [0x1F] MOVE_ENTITY: EventEntity moves to X=-146.550*, Z=181.448*, Y=1.703*
  1: 0x0441 [0x1F] MOVE_ENTITY: Update entity position (mode=1)
  2: 0x0443 [0x6F] WAIT_FRAME_DELAY: Yield until WaitTime reaches zero
  3: 0x0444 [0x4B] UPDATE_ENTITY_YAW(entity=LocalPlayer, yaw=2.4°*)
  4: 0x044B [0x6F] WAIT_FRAME_DELAY: Yield until WaitTime reaches zero
  5: 0x044C [0x76] CHECK_ENTITY_RENDER_FLAGS: Wait until LocalPlayer Render.Flags0 and Render.Flags3 conditions are met
  6: 0x0451 [0x00] END_REQSTACK()
```

### Event 65535.20

#### Metadata

| Field        | Value    |
|--------------|----------|
| Entrypoint   | 0x0452   |
| Data Size    | 22 bytes |
| Instructions | 6        |

```
      00 01 02 03 04 05 06 07  08 09 0A 0B 0C 0D 0E 0F
      -- -- -- -- -- -- -- --  -- -- -- -- -- -- -- --
0450:       32 17 80 1F 00 3B  80 3C 80 24 80 1F 01 1E    2....;.<.$....
0460: 3C 33 05 01 1C 0C 80 00                           <3......        
```

#### Opcodes

```
  0: 0x0452 [0x32] ExtData[1]->MainSpeed = 40* * 0.1
  1: 0x0455 [0x1F] MOVE_ENTITY: EventEntity moves to X=-409.925*, Z=278.235*, Y=-32.898*
  2: 0x045D [0x1F] MOVE_ENTITY: Update entity position (mode=1)
  3: 0x045F [0x1E] EventEntity looks at Klara (ID: 17118012/0x0105333C) and starts talking
  4: 0x0464 [0x1C] WAIT(30* ticks)
  5: 0x0467 [0x00] END_REQSTACK()
```

### Event 65535.21

#### Metadata

| Field        | Value    |
|--------------|----------|
| Entrypoint   | 0x0468   |
| Data Size    | 14 bytes |
| Instructions | 4        |

```
      00 01 02 03 04 05 06 07  08 09 0A 0B 0C 0D 0E 0F
      -- -- -- -- -- -- -- --  -- -- -- -- -- -- -- --
0460:                          32 17 80 1F 00 3D 80 3E          2....=.>
0470: 80 24 80 1F 01 00                                 .$....          
```

#### Opcodes

```
  0: 0x0468 [0x32] ExtData[1]->MainSpeed = 40* * 0.1
  1: 0x046B [0x1F] MOVE_ENTITY: EventEntity moves to X=-429.193*, Z=278.054*, Y=-32.898*
  2: 0x0473 [0x1F] MOVE_ENTITY: Update entity position (mode=1)
  3: 0x0475 [0x00] END_REQSTACK()
```

### Event 65535.22

#### Metadata

| Field        | Value    |
|--------------|----------|
| Entrypoint   | 0x0476   |
| Data Size    | 24 bytes |
| Instructions | 4        |

```
      00 01 02 03 04 05 06 07  08 09 0A 0B 0C 0D 0E 0F
      -- -- -- -- -- -- -- --  -- -- -- -- -- -- -- --
0470:                   03 05  00 07 7F 1A C8 04 66 06        ........f.
0480: 00 F8 FF FF 7F F8 FF FF  7F 74 6C 6B 30 00        .........tlk0.  
```

#### Opcodes

```
  0: 0x0476 [0x03] ExtData[1]->WorkLocal[5] = Entity->Race
  1: 0x047B [0x1A] CALL_SUBROUTINE(address=0x04C8)
  2: 0x047E [0x66] LOAD_EXT_SCHEDULER_MAIN: Load scheduler "tlk0" with entities [EventEntity, EventEntity], work=ExtData[1]->WorkLocal[6]
  3: 0x048D [0x00] END_REQSTACK()
```

### Event 65535.23

#### Metadata

| Field        | Value    |
|--------------|----------|
| Entrypoint   | 0x048E   |
| Data Size    | 24 bytes |
| Instructions | 4        |

```
      00 01 02 03 04 05 06 07  08 09 0A 0B 0C 0D 0E 0F
      -- -- -- -- -- -- -- --  -- -- -- -- -- -- -- --
0480:                                            03 05                ..
0490: 00 07 7F 1A C8 04 66 06  00 F8 FF FF 7F F8 FF FF  ......f.........
04A0: 7F 74 6C 6B 31 00                                 .tlk1.          
```

#### Opcodes

```
  0: 0x048E [0x03] ExtData[1]->WorkLocal[5] = Entity->Race
  1: 0x0493 [0x1A] CALL_SUBROUTINE(address=0x04C8)
  2: 0x0496 [0x66] LOAD_EXT_SCHEDULER_MAIN: Load scheduler "tlk1" with entities [EventEntity, EventEntity], work=ExtData[1]->WorkLocal[6]
  3: 0x04A5 [0x00] END_REQSTACK()
```

### Event 65535.24

#### Metadata

| Field        | Value    |
|--------------|----------|
| Entrypoint   | 0x04A6   |
| Data Size    | 14 bytes |
| Instructions | 4        |

```
      00 01 02 03 04 05 06 07  08 09 0A 0B 0C 0D 0E 0F
      -- -- -- -- -- -- -- --  -- -- -- -- -- -- -- --
04A0:                   32 17  80 1F 00 3F 80 40 80 41        2....?.@.A
04B0: 80 1F 01 00                                       ....            
```

#### Opcodes

```
  0: 0x04A6 [0x32] ExtData[1]->MainSpeed = 40* * 0.1
  1: 0x04A9 [0x1F] MOVE_ENTITY: EventEntity moves to X=-340.390*, Z=-672.168*, Y=-39.276*
  2: 0x04B1 [0x1F] MOVE_ENTITY: Update entity position (mode=1)
  3: 0x04B3 [0x00] END_REQSTACK()
```

### Event 65535.25

#### Metadata

| Field        | Value    |
|--------------|----------|
| Entrypoint   | 0x04B4   |
| Data Size    | 10 bytes |
| Instructions | 2        |

```
      00 01 02 03 04 05 06 07  08 09 0A 0B 0C 0D 0E 0F
      -- -- -- -- -- -- -- --  -- -- -- -- -- -- -- --
04B0:             6C F8 FF FF  7F 42 80 03 80 00            l....B....  
```

#### Opcodes

```
  0: 0x04B4 [0x6C] FADE_ENTITY_COLOR(entity_id=EventEntity, end_alpha=64*, fade_time=1*)
  1: 0x04BD [0x00] END_REQSTACK()
```

### Event 65535.26

#### Metadata

| Field        | Value     |
|--------------|-----------|
| Entrypoint   | 0x04BE    |
| Data Size    | 158 bytes |
| Instructions | 2         |

```
      00 01 02 03 04 05 06 07  08 09 0A 0B 0C 0D 0E 0F
      -- -- -- -- -- -- -- --  -- -- -- -- -- -- -- --
04B0:                                            6C F8                l.
04C0: FF FF 7F 43 80 03 80 00  03 06 00 05 00 02 06 00  ...C............
04D0: 44 80 05 DD 04 08 06 00  03 80 01 E2 04 08 06 00  D...............
04E0: 45 80 14 06 00 46 80 07  06 00 47 80 1B 03 06 00  E....F....G.....
04F0: 05 00 02 06 00 44 80 05  02 05 08 06 00 03 80 01  .....D..........
0500: 07 05 08 06 00 45 80 14  06 00 46 80 07 06 00 48  .....E....F....H
0510: 80 1B 03 06 00 05 00 02  06 00 44 80 05 27 05 08  ..........D..'..
0520: 06 00 03 80 01 2C 05 08  06 00 45 80 14 06 00 46  .....,....E....F
0530: 80 07 06 00 49 80 1B 03  06 00 05 00 02 06 00 44  ....I..........D
0540: 80 05 4C 05 08 06 00 03  80 01 51 05 08 06 00 45  ..L.......Q....E
0550: 80 14 06 00 46 80 07 06  00 4A 80 1B              ....F....J..    
```

#### Opcodes

```
  0: 0x04BE [0x6C] FADE_ENTITY_COLOR(entity_id=EventEntity, end_alpha=128*, fade_time=1*)
  1: 0x04C7 [0x00] END_REQSTACK()
```

#### Data or dead code:

```
# Dead code (unreachable instructions):
     0x04C8 [0x03] ExtData[1]->WorkLocal[6] = ExtData[1]->WorkLocal[5]
     0x04CD [0x02] IF !(ExtData[1]->WorkLocal[6] > 5*) GOTO 0x04DD
     0x04D5 [0x08] ExtData[1]->WorkLocal[6] -= 1*
     0x04DA [0x01] GOTO 0x04E2
     0x04DD [0x08] ExtData[1]->WorkLocal[6] -= 2*
     0x04E2 [0x14] ExtData[1]->WorkLocal[6] *= 10*
     0x04E7 [0x07] ExtData[1]->WorkLocal[6] += 9*
     0x04EC [0x1B] RETURN
     0x04ED [0x03] ExtData[1]->WorkLocal[6] = ExtData[1]->WorkLocal[5]
     0x04F2 [0x02] IF !(ExtData[1]->WorkLocal[6] > 5*) GOTO 0x0502
     0x04FA [0x08] ExtData[1]->WorkLocal[6] -= 1*
     0x04FF [0x01] GOTO 0x0507
     0x0502 [0x08] ExtData[1]->WorkLocal[6] -= 2*
     0x0507 [0x14] ExtData[1]->WorkLocal[6] *= 10*
     0x050C [0x07] ExtData[1]->WorkLocal[6] += 70*
     0x0511 [0x1B] RETURN
     0x0512 [0x03] ExtData[1]->WorkLocal[6] = ExtData[1]->WorkLocal[5]
     0x0517 [0x02] IF !(ExtData[1]->WorkLocal[6] > 5*) GOTO 0x0527
     0x051F [0x08] ExtData[1]->WorkLocal[6] -= 1*
     0x0524 [0x01] GOTO 0x052C
     0x0527 [0x08] ExtData[1]->WorkLocal[6] -= 2*
     0x052C [0x14] ExtData[1]->WorkLocal[6] *= 10*
     0x0531 [0x07] ExtData[1]->WorkLocal[6] += 140*
     0x0536 [0x1B] RETURN
     0x0537 [0x03] ExtData[1]->WorkLocal[6] = ExtData[1]->WorkLocal[5]
     0x053C [0x02] IF !(ExtData[1]->WorkLocal[6] > 5*) GOTO 0x054C
     0x0544 [0x08] ExtData[1]->WorkLocal[6] -= 1*
     0x0549 [0x01] GOTO 0x0551
     0x054C [0x08] ExtData[1]->WorkLocal[6] -= 2*
     0x0551 [0x14] ExtData[1]->WorkLocal[6] *= 10*
     0x0556 [0x07] ExtData[1]->WorkLocal[6] += 210*
     0x055B [0x1B] RETURN
```

### Event 264

#### Metadata

| Field        | Value      |
|--------------|------------|
| Entrypoint   | 0x055C     |
| Data Size    | 1061 bytes |
| Instructions | 204        |

```
      00 01 02 03 04 05 06 07  08 09 0A 0B 0C 0D 0E 0F
      -- -- -- -- -- -- -- --  -- -- -- -- -- -- -- --
0550:                                      42 46 01 3E              BF.>
0560: 04 10 02 80 6E 05 03 07  00 03 80 01 73 05 03 07  ....n.......s...
0570: 00 02 80 3E 04 10 03 80  82 05 03 08 00 03 80 01  ...>............
0580: 87 05 03 08 00 02 80 41  45 80 4B 80 04 10 09 00  .......AE.K.....
0590: 45 01 80 F8 FF FF 7F F8  FF FF 7F 66 64 6F 30 02  E..........fdo0.
05A0: 80 55 01 80 F8 FF FF 7F  F8 FF FF 7F 66 64 6F 30  .U..........fdo0
05B0: BA F0 FF FF 7F 05 10 06  10 07 10 08 10 1A 9D 06  ................
05C0: 1A FB 06 38 4C 80 1A 40  07 03 05 10 02 10 03 06  ...8L..@........
05D0: 10 02 10 03 07 10 02 10  15 05 10 4D 80 15 06 10  ...........M....
05E0: 05 80 3F 07 10 07 10 05  80 1A 5F 09 1A 80 07 45  ..?......._....E
05F0: 01 80 F8 FF FF 7F F8 FF  FF 7F 66 64 69 31 02 80  ..........fdi1..
0600: 1C 4E 80 1A 19 09 1A BD  07 1C 05 80 1A F7 07 02  .N..............
0610: 08 00 02 80 00 20 06 1C  05 80 1A 31 08 01 62 06  ..... .....1..b.
0620: 1C 05 80 1A 6B 08 02 03  10 02 80 01 62 06 03 05  ....k.......b...
0630: 10 03 10 03 06 10 03 10  03 07 10 03 10 15 05 10  ................
0640: 4D 80 15 06 10 05 80 3F  07 10 07 10 05 80 1C 05  M......?........
0650: 80 02 07 00 02 80 00 5F  06 1A A5 08 01 62 06 1A  ......._.....b..
0660: DF 08 1C 05 80 1A 71 09  45 01 80 F8 FF FF 7F F8  ......q.E.......
0670: FF FF 7F 66 64 6F 31 02  80 55 01 80 F8 FF FF 7F  ...fdo1..U......
0680: F8 FF FF 7F 66 64 6F 31  46 00 45 01 80 F8 FF FF  ....fdo1F.E.....
0690: 7F F8 FF FF 7F 66 64 69  32 02 80 21 00 02 09 00  .....fdi2..!....
06A0: 03 80 80 BA 06 4E 00 F6  32 05 01 92 01 F6 32 05  .....N..2.....2.
06B0: 01 4E 00 F9 32 05 01 01  F4 06 02 09 00 45 80 80  .N..2........E..
06C0: D7 06 4E 00 F7 32 05 01  92 01 F7 32 05 01 4E 00  ..N..2.....2..N.
06D0: FA 32 05 01 01 F4 06 02  09 00 4B 80 80 F4 06 4E  .2........K....N
06E0: 00 F8 32 05 01 92 01 F8  32 05 01 4E 00 FB 32 05  ..2.....2..N..2.
06F0: 01 01 F4 06 4E 00 12 33  05 01 1B 02 09 00 03 80  ....N..3........
0700: 80 10 07 80 F6 32 05 01  80 F9 32 05 01 01 3A 07  .....2....2...:.
0710: 02 09 00 45 80 80 25 07  80 F7 32 05 01 80 FA 32  ...E..%...2....2
0720: 05 01 01 3A 07 02 09 00  4B 80 80 3A 07 80 F8 32  ...:....K..:...2
0730: 05 01 80 FB 32 05 01 01  3A 07 80 12 33 05 01 1B  ....2...:...3...
0740: 02 09 00 45 80 80 55 07  79 00 F0 FF FF 7F F6 32  ...E..U.y......2
0750: 05 01 01 7F 07 02 09 00  4B 80 80 6A 07 79 00 F0  ........K..j.y..
0760: FF FF 7F F7 32 05 01 01  7F 07 02 09 00 4F 80 80  ....2........O..
0770: 7F 07 79 00 F0 FF FF 7F  F8 32 05 01 01 7F 07 1B  ..y......2......
0780: 02 09 00 03 80 80 94 07  4A F6 32 05 01 F0 FF FF  ........J.2.....
0790: 7F 01 BC 07 02 09 00 45  80 80 A8 07 4A F7 32 05  .......E....J.2.
07A0: 01 F0 FF FF 7F 01 BC 07  02 09 00 4B 80 80 BC 07  ...........K....
07B0: 4A F8 32 05 01 F0 FF FF  7F 01 BC 07 1B 02 09 00  J.2.............
07C0: 03 80 80 D0 07 2B F6 32  05 01 50 80 23 01 F6 07  .....+.2..P.#...
07D0: 02 09 00 45 80 80 E3 07  2B F7 32 05 01 50 80 23  ...E....+.2..P.#
07E0: 01 F6 07 02 09 00 4B 80  80 F6 07 2B F8 32 05 01  ......K....+.2..
07F0: 50 80 23 01 F6 07 1B 02  09 00 03 80 80 0A 08 2B  P.#............+
0800: F6 32 05 01 51 80 23 01  30 08 02 09 00 45 80 80  .2..Q.#.0....E..
0810: 1D 08 2B F7 32 05 01 51  80 23 01 30 08 02 09 00  ..+.2..Q.#.0....
0820: 4B 80 80 30 08 2B F8 32  05 01 51 80 23 01 30 08  K..0.+.2..Q.#.0.
0830: 1B 02 09 00 03 80 80 44  08 2B F6 32 05 01 52 80  .......D.+.2..R.
0840: 23 01 6A 08 02 09 00 45  80 80 57 08 2B F7 32 05  #.j....E..W.+.2.
0850: 01 52 80 23 01 6A 08 02  09 00 4B 80 80 6A 08 2B  .R.#.j....K..j.+
0860: F8 32 05 01 52 80 23 01  6A 08 1B 02 09 00 03 80  .2..R.#.j.......
0870: 80 7E 08 2B F6 32 05 01  53 80 23 01 A4 08 02 09  .~.+.2..S.#.....
0880: 00 45 80 80 91 08 2B F7  32 05 01 53 80 23 01 A4  .E....+.2..S.#..
0890: 08 02 09 00 4B 80 80 A4  08 2B F8 32 05 01 53 80  ....K....+.2..S.
08A0: 23 01 A4 08 1B 02 09 00  03 80 80 B8 08 2B F6 32  #............+.2
08B0: 05 01 54 80 23 01 DE 08  02 09 00 45 80 80 CB 08  ..T.#......E....
08C0: 2B F7 32 05 01 54 80 23  01 DE 08 02 09 00 4B 80  +.2..T.#......K.
08D0: 80 DE 08 2B F8 32 05 01  54 80 23 01 DE 08 1B 02  ...+.2..T.#.....
08E0: 09 00 03 80 80 F2 08 2B  F6 32 05 01 55 80 23 01  .......+.2..U.#.
08F0: 18 09 02 09 00 45 80 80  05 09 2B F7 32 05 01 55  .....E....+.2..U
0900: 80 23 01 18 09 02 09 00  4B 80 80 18 09 2B F8 32  .#......K....+.2
0910: 05 01 55 80 23 01 18 09  1B 02 09 00 03 80 80 30  ..U.#..........0
0920: 09 6E F6 32 05 01 45 80  99 F6 32 05 01 01 5E 09  .n.2..E...2...^.
0930: 02 09 00 45 80 80 47 09  6E F7 32 05 01 56 80 99  ...E..G.n.2..V..
0940: F7 32 05 01 01 5E 09 02  09 00 4B 80 80 5E 09 6E  .2...^....K..^.n
0950: F8 32 05 01 57 80 99 F8  32 05 01 01 5E 09 1B 45  .2..W...2...^..E
0960: 58 80 F0 FF FF 7F F0 FF  FF 7F 63 30 38 33 02 80  X.........c083..
0970: 1B 52 58 80 F0 FF FF 7F  F0 FF FF 7F 63 30 38 33  .RX.........c083
0980: 1B                                                .               
```

#### Opcodes

```
  0: 0x055C [0x42] SET_CLI_EVENT_CANCEL_DATA()
  1: 0x055D [0x46] CAMERA_CONTROL: Disable user control
  2: 0x055F [0x3E] IF !(Work_Zone[4] bit 0*) GOTO 0x056E
  3: 0x0566 [0x03] ExtData[1]->WorkLocal[7] = 1*
  4: 0x056B [0x01] GOTO 0x0573
  5: 0x056E [0x03] ExtData[1]->WorkLocal[7] = 0*

SUBROUTINE_0573:
  6: 0x0573 [0x3E] IF !(Work_Zone[4] bit 1*) GOTO 0x0582
  7: 0x057A [0x03] ExtData[1]->WorkLocal[8] = 1*
  8: 0x057F [0x01] GOTO 0x0587
  9: 0x0582 [0x03] ExtData[1]->WorkLocal[8] = 0*

SUBROUTINE_0587:
 10: 0x0587 [0x41] ExtData[1]->WorkLocal[9] = Work_Zone[4] (bits 2*-3*)
 11: 0x0590 [0x45] LOAD_SCHEDULED_TASK: Load scheduler "fdo0" with entities [EventEntity, EventEntity], work=[200*, 0*]
 12: 0x05A1 [0x55] WAIT_LOAD_SCHEDULER: Wait for scheduler "fdo0" with entities [EventEntity, EventEntity], work=200*
 13: 0x05B0 [0xBA] SET_ENTITY_POSITION(entity_id=LocalPlayer, pos_x=Work_Zone[5], pos_z=Work_Zone[6], pos_y=Work_Zone[7], direction=Work_Zone[8])
 14: 0x05BD [0x1A] CALL_SUBROUTINE(address=0x069D)
 15: 0x05C0 [0x1A] CALL_SUBROUTINE(address=0x06FB)
 16: 0x05C3 [0x38] SET_CLIENT_EVENT_MODE(mode=19*)
 17: 0x05C6 [0x1A] CALL_SUBROUTINE(address=0x0740)
 18: 0x05C9 [0x03] Work_Zone[5] = Work_Zone[2]
 19: 0x05CE [0x03] Work_Zone[6] = Work_Zone[2]
 20: 0x05D3 [0x03] Work_Zone[7] = Work_Zone[2]
 21: 0x05D8 [0x15] Work_Zone[5] /= 144*
 22: 0x05DD [0x15] Work_Zone[6] /= 60*
 23: 0x05E2 [0x3F] Work_Zone[7] = Work_Zone[7] % 60*
 24: 0x05E9 [0x1A] CALL_SUBROUTINE(address=0x095F)
 25: 0x05EC [0x1A] CALL_SUBROUTINE(address=0x0780)
 26: 0x05EF [0x45] LOAD_SCHEDULED_TASK: Load scheduler "fdi1" with entities [EventEntity, EventEntity], work=[200*, 0*]
 27: 0x0600 [0x1C] WAIT(180* ticks)
 28: 0x0603 [0x1A] CALL_SUBROUTINE(address=0x0919)
 29: 0x0606 [0x1A] CALL_SUBROUTINE(address=0x07BD)
 30: 0x0609 [0x1C] WAIT(60* ticks)
 31: 0x060C [0x1A] CALL_SUBROUTINE(address=0x07F7)
 32: 0x060F [0x02] IF !(ExtData[1]->WorkLocal[8] == 0*) GOTO 0x0620
 33: 0x0617 [0x1C] WAIT(60* ticks)
 34: 0x061A [0x1A] CALL_SUBROUTINE(address=0x0831)
 35: 0x061D [0x01] GOTO 0x0662
 36: 0x0620 [0x1C] WAIT(60* ticks)
 37: 0x0623 [0x1A] CALL_SUBROUTINE(address=0x086B)
 38: 0x0626 [0x02] IF !(Work_Zone[3] == 0*) GOTO 0x0662
 39: 0x062E [0x03] Work_Zone[5] = Work_Zone[3]
 40: 0x0633 [0x03] Work_Zone[6] = Work_Zone[3]
 41: 0x0638 [0x03] Work_Zone[7] = Work_Zone[3]
 42: 0x063D [0x15] Work_Zone[5] /= 144*
 43: 0x0642 [0x15] Work_Zone[6] /= 60*
 44: 0x0647 [0x3F] Work_Zone[7] = Work_Zone[7] % 60*
 45: 0x064E [0x1C] WAIT(60* ticks)
 46: 0x0651 [0x02] IF !(ExtData[1]->WorkLocal[7] == 0*) GOTO 0x065F
 47: 0x0659 [0x1A] CALL_SUBROUTINE(address=0x08A5)
 48: 0x065C [0x01] GOTO 0x0662
 49: 0x065F [0x1A] CALL_SUBROUTINE(address=0x08DF)

SUBROUTINE_0662:
 50: 0x0662 [0x1C] WAIT(60* ticks)
 51: 0x0665 [0x1A] CALL_SUBROUTINE(address=0x0971)
 52: 0x0668 [0x45] LOAD_SCHEDULED_TASK: Load scheduler "fdo1" with entities [EventEntity, EventEntity], work=[200*, 0*]
 53: 0x0679 [0x55] WAIT_LOAD_SCHEDULER: Wait for scheduler "fdo1" with entities [EventEntity, EventEntity], work=200*
 54: 0x0688 [0x46] CAMERA_CONTROL: Restore default settings
 55: 0x068A [0x45] LOAD_SCHEDULED_TASK: Load scheduler "fdi2" with entities [EventEntity, EventEntity], work=[200*, 0*]
 56: 0x069B [0x21] END_EVENT
 57: 0x069C [0x00] END_REQSTACK()

SUBROUTINE_069D:
 58: 0x069D [0x02] IF !(ExtData[1]->WorkLocal[9] == 1*) GOTO 0x06BA
 59: 0x06A5 [0x4E] SET_ENTITY_HIDE_FLAG: Show Toulsard, R.K. (ID: 17117942/0x010532F6)
 60: 0x06AB [0x92] Toulsard, R.K. (ID: 17117942/0x010532F6)->Render.Flags3 ^= 0x01
 61: 0x06B1 [0x4E] SET_ENTITY_HIDE_FLAG: Show Unnamed NPC (ID: 17117945/0x010532F9)
 62: 0x06B7 [0x01] GOTO 0x06F4
 63: 0x06BA [0x02] IF !(ExtData[1]->WorkLocal[9] == 2*) GOTO 0x06D7
 64: 0x06C2 [0x4E] SET_ENTITY_HIDE_FLAG: Show Feral Moon, L.C. (ID: 17117943/0x010532F7)
 65: 0x06C8 [0x92] Feral Moon, L.C. (ID: 17117943/0x010532F7)->Render.Flags3 ^= 0x01
 66: 0x06CE [0x4E] SET_ENTITY_HIDE_FLAG: Show Unnamed NPC (ID: 17117946/0x010532FA)
 67: 0x06D4 [0x01] GOTO 0x06F4
 68: 0x06D7 [0x02] IF !(ExtData[1]->WorkLocal[9] == 3*) GOTO 0x06F4
 69: 0x06DF [0x4E] SET_ENTITY_HIDE_FLAG: Show Kih Katteh, M.C. (ID: 17117944/0x010532F8)
 70: 0x06E5 [0x92] Kih Katteh, M.C. (ID: 17117944/0x010532F8)->Render.Flags3 ^= 0x01
 71: 0x06EB [0x4E] SET_ENTITY_HIDE_FLAG: Show Unnamed NPC (ID: 17117947/0x010532FB)
 72: 0x06F1 [0x01] GOTO 0x06F4

SUBROUTINE_06F4:
 73: 0x06F4 [0x4E] SET_ENTITY_HIDE_FLAG: Show Unnamed NPC (ID: 17117970/0x01053312)
 74: 0x06FA [0x1B] RETURN

SUBROUTINE_06FB:
 75: 0x06FB [0x02] IF !(ExtData[1]->WorkLocal[9] == 1*) GOTO 0x0710
 76: 0x0703 [0x80] LOAD_WAIT(entity=Toulsard, R.K. (ID: 17117942/0x010532F6))
 77: 0x0708 [0x80] LOAD_WAIT(entity=Unnamed NPC (ID: 17117945/0x010532F9))
 78: 0x070D [0x01] GOTO 0x073A
 79: 0x0710 [0x02] IF !(ExtData[1]->WorkLocal[9] == 2*) GOTO 0x0725
 80: 0x0718 [0x80] LOAD_WAIT(entity=Feral Moon, L.C. (ID: 17117943/0x010532F7))
 81: 0x071D [0x80] LOAD_WAIT(entity=Unnamed NPC (ID: 17117946/0x010532FA))
 82: 0x0722 [0x01] GOTO 0x073A
 83: 0x0725 [0x02] IF !(ExtData[1]->WorkLocal[9] == 3*) GOTO 0x073A
 84: 0x072D [0x80] LOAD_WAIT(entity=Kih Katteh, M.C. (ID: 17117944/0x010532F8))
 85: 0x0732 [0x80] LOAD_WAIT(entity=Unnamed NPC (ID: 17117947/0x010532FB))
 86: 0x0737 [0x01] GOTO 0x073A

SUBROUTINE_073A:
 87: 0x073A [0x80] LOAD_WAIT(entity=Unnamed NPC (ID: 17117970/0x01053312))
 88: 0x073F [0x1B] RETURN

SUBROUTINE_0740:
 89: 0x0740 [0x02] IF !(ExtData[1]->WorkLocal[9] == 2*) GOTO 0x0755
 90: 0x0748 [0x79] LocalPlayer looks at Toulsard, R.K. (ID: 17117942/0x010532F6) (Basic look)
 91: 0x0752 [0x01] GOTO 0x077F
 92: 0x0755 [0x02] IF !(ExtData[1]->WorkLocal[9] == 3*) GOTO 0x076A
 93: 0x075D [0x79] LocalPlayer looks at Feral Moon, L.C. (ID: 17117943/0x010532F7) (Basic look)
 94: 0x0767 [0x01] GOTO 0x077F
 95: 0x076A [0x02] IF !(ExtData[1]->WorkLocal[9] == 4*) GOTO 0x077F
 96: 0x0772 [0x79] LocalPlayer looks at Kih Katteh, M.C. (ID: 17117944/0x010532F8) (Basic look)
 97: 0x077C [0x01] GOTO 0x077F

SUBROUTINE_077F:
 98: 0x077F [0x1B] RETURN

SUBROUTINE_0780:
 99: 0x0780 [0x02] IF !(ExtData[1]->WorkLocal[9] == 1*) GOTO 0x0794
100: 0x0788 [0x4A] Toulsard, R.K. (ID: 17117942/0x010532F6) looks at LocalPlayer
101: 0x0791 [0x01] GOTO 0x07BC
102: 0x0794 [0x02] IF !(ExtData[1]->WorkLocal[9] == 2*) GOTO 0x07A8
103: 0x079C [0x4A] Feral Moon, L.C. (ID: 17117943/0x010532F7) looks at LocalPlayer
104: 0x07A5 [0x01] GOTO 0x07BC
105: 0x07A8 [0x02] IF !(ExtData[1]->WorkLocal[9] == 3*) GOTO 0x07BC
106: 0x07B0 [0x4A] Kih Katteh, M.C. (ID: 17117944/0x010532F8) looks at LocalPlayer
107: 0x07B9 [0x01] GOTO 0x07BC

SUBROUTINE_07BC:
108: 0x07BC [0x1B] RETURN

SUBROUTINE_07BD:
109: 0x07BD [0x02] IF !(ExtData[1]->WorkLocal[9] == 1*) GOTO 0x07D0
110: 0x07C5 [0x2B] Toulsard, R.K. (ID: 17117942/0x010532F6) [7429*]:
    → "Ah, you must be <Player>. We've been expecting you."
111: 0x07CC [0x23] WAIT_FOR_DIALOG_INTERACTION
112: 0x07CD [0x01] GOTO 0x07F6
113: 0x07D0 [0x02] IF !(ExtData[1]->WorkLocal[9] == 2*) GOTO 0x07E3
114: 0x07D8 [0x2B] Feral Moon, L.C. (ID: 17117943/0x010532F7) [7429*]:
    → "Ah, you must be <Player>. We've been expecting you."
115: 0x07DF [0x23] WAIT_FOR_DIALOG_INTERACTION
116: 0x07E0 [0x01] GOTO 0x07F6
117: 0x07E3 [0x02] IF !(ExtData[1]->WorkLocal[9] == 3*) GOTO 0x07F6
118: 0x07EB [0x2B] Kih Katteh, M.C. (ID: 17117944/0x010532F8) [7429*]:
    → "Ah, you must be <Player>. We've been expecting you."
119: 0x07F2 [0x23] WAIT_FOR_DIALOG_INTERACTION
120: 0x07F3 [0x01] GOTO 0x07F6

SUBROUTINE_07F6:
121: 0x07F6 [0x1B] RETURN

SUBROUTINE_07F7:
122: 0x07F7 [0x02] IF !(ExtData[1]->WorkLocal[9] == 1*) GOTO 0x080A
123: 0x07FF [0x2B] Toulsard, R.K. (ID: 17117942/0x010532F6) [7430*]:
    → "The delivery took you $3 [hour/hours] ($4 [minute/minutes] and $5 [second/seconds] Earth time)."
124: 0x0806 [0x23] WAIT_FOR_DIALOG_INTERACTION
125: 0x0807 [0x01] GOTO 0x0830
126: 0x080A [0x02] IF !(ExtData[1]->WorkLocal[9] == 2*) GOTO 0x081D
127: 0x0812 [0x2B] Feral Moon, L.C. (ID: 17117943/0x010532F7) [7430*]:
    → "The delivery took you $3 [hour/hours] ($4 [minute/minutes] and $5 [second/seconds] Earth time)."
128: 0x0819 [0x23] WAIT_FOR_DIALOG_INTERACTION
129: 0x081A [0x01] GOTO 0x0830
130: 0x081D [0x02] IF !(ExtData[1]->WorkLocal[9] == 3*) GOTO 0x0830
131: 0x0825 [0x2B] Kih Katteh, M.C. (ID: 17117944/0x010532F8) [7430*]:
    → "The delivery took you $3 [hour/hours] ($4 [minute/minutes] and $5 [second/seconds] Earth time)."
132: 0x082C [0x23] WAIT_FOR_DIALOG_INTERACTION
133: 0x082D [0x01] GOTO 0x0830

SUBROUTINE_0830:
134: 0x0830 [0x1B] RETURN

SUBROUTINE_0831:
135: 0x0831 [0x02] IF !(ExtData[1]->WorkLocal[9] == 1*) GOTO 0x0844
136: 0x0839 [0x2B] Toulsard, R.K. (ID: 17117942/0x010532F6) [7432*]:
    → "While you were dawdling your way here, a separate shipment of construction materials was delivered to us. We shan't be requiring anymore."
137: 0x0840 [0x23] WAIT_FOR_DIALOG_INTERACTION
138: 0x0841 [0x01] GOTO 0x086A
139: 0x0844 [0x02] IF !(ExtData[1]->WorkLocal[9] == 2*) GOTO 0x0857
140: 0x084C [0x2B] Feral Moon, L.C. (ID: 17117943/0x010532F7) [7432*]:
    → "While you were dawdling your way here, a separate shipment of construction materials was delivered to us. We shan't be requiring anymore."
141: 0x0853 [0x23] WAIT_FOR_DIALOG_INTERACTION
142: 0x0854 [0x01] GOTO 0x086A
143: 0x0857 [0x02] IF !(ExtData[1]->WorkLocal[9] == 3*) GOTO 0x086A
144: 0x085F [0x2B] Kih Katteh, M.C. (ID: 17117944/0x010532F8) [7432*]:
    → "While you were dawdling your way here, a separate shipment of construction materials was delivered to us. We shan't be requiring anymore."
145: 0x0866 [0x23] WAIT_FOR_DIALOG_INTERACTION
146: 0x0867 [0x01] GOTO 0x086A

SUBROUTINE_086A:
147: 0x086A [0x1B] RETURN

SUBROUTINE_086B:
148: 0x086B [0x02] IF !(ExtData[1]->WorkLocal[9] == 1*) GOTO 0x087E
149: 0x0873 [0x2B] Toulsard, R.K. (ID: 17117942/0x010532F6) [7433*]:
    → "I commend you on your expeditiousness. Thanks to you, the construction work on our provision storehouse here can proceed as planned."
150: 0x087A [0x23] WAIT_FOR_DIALOG_INTERACTION
151: 0x087B [0x01] GOTO 0x08A4
152: 0x087E [0x02] IF !(ExtData[1]->WorkLocal[9] == 2*) GOTO 0x0891
153: 0x0886 [0x2B] Feral Moon, L.C. (ID: 17117943/0x010532F7) [7433*]:
    → "I commend you on your expeditiousness. Thanks to you, the construction work on our provision storehouse here can proceed as planned."
154: 0x088D [0x23] WAIT_FOR_DIALOG_INTERACTION
155: 0x088E [0x01] GOTO 0x08A4
156: 0x0891 [0x02] IF !(ExtData[1]->WorkLocal[9] == 3*) GOTO 0x08A4
157: 0x0899 [0x2B] Kih Katteh, M.C. (ID: 17117944/0x010532F8) [7433*]:
    → "I commend you on your expeditiousness. Thanks to you, the construction work on our provision storehouse here can proceed as planned."
158: 0x08A0 [0x23] WAIT_FOR_DIALOG_INTERACTION
159: 0x08A1 [0x01] GOTO 0x08A4

SUBROUTINE_08A4:
160: 0x08A4 [0x1B] RETURN

SUBROUTINE_08A5:
161: 0x08A5 [0x02] IF !(ExtData[1]->WorkLocal[9] == 1*) GOTO 0x08B8
162: 0x08AD [0x2B] Toulsard, R.K. (ID: 17117942/0x010532F6) [7434*]:
    → "So you have something to aspire to, the quickest delivery thus far was made by %0. That indefatigable soldier traversed the same course as you in just $3 [hour/hours] ($4 [minute/minutes] and $5 [second/seconds] Earth time)."
163: 0x08B4 [0x23] WAIT_FOR_DIALOG_INTERACTION
164: 0x08B5 [0x01] GOTO 0x08DE
165: 0x08B8 [0x02] IF !(ExtData[1]->WorkLocal[9] == 2*) GOTO 0x08CB
166: 0x08C0 [0x2B] Feral Moon, L.C. (ID: 17117943/0x010532F7) [7434*]:
    → "So you have something to aspire to, the quickest delivery thus far was made by %0. That indefatigable soldier traversed the same course as you in just $3 [hour/hours] ($4 [minute/minutes] and $5 [second/seconds] Earth time)."
167: 0x08C7 [0x23] WAIT_FOR_DIALOG_INTERACTION
168: 0x08C8 [0x01] GOTO 0x08DE
169: 0x08CB [0x02] IF !(ExtData[1]->WorkLocal[9] == 3*) GOTO 0x08DE
170: 0x08D3 [0x2B] Kih Katteh, M.C. (ID: 17117944/0x010532F8) [7434*]:
    → "So you have something to aspire to, the quickest delivery thus far was made by %0. That indefatigable soldier traversed the same course as you in just $3 [hour/hours] ($4 [minute/minutes] and $5 [second/seconds] Earth time)."
171: 0x08DA [0x23] WAIT_FOR_DIALOG_INTERACTION
172: 0x08DB [0x01] GOTO 0x08DE

SUBROUTINE_08DE:
173: 0x08DE [0x1B] RETURN

SUBROUTINE_08DF:
174: 0x08DF [0x02] IF !(ExtData[1]->WorkLocal[9] == 1*) GOTO 0x08F2
175: 0x08E7 [0x2B] Toulsard, R.K. (ID: 17117942/0x010532F6) [7435*]:
    → "You're the current quickest delivery record holder, with a lightning-fast time of $3 [hour/hours] ($4 [minute/minutes] and $5 [second/seconds] Earth time). But that's no excuse to slack off, you hear?"
176: 0x08EE [0x23] WAIT_FOR_DIALOG_INTERACTION
177: 0x08EF [0x01] GOTO 0x0918
178: 0x08F2 [0x02] IF !(ExtData[1]->WorkLocal[9] == 2*) GOTO 0x0905
179: 0x08FA [0x2B] Feral Moon, L.C. (ID: 17117943/0x010532F7) [7435*]:
    → "You're the current quickest delivery record holder, with a lightning-fast time of $3 [hour/hours] ($4 [minute/minutes] and $5 [second/seconds] Earth time). But that's no excuse to slack off, you hear?"
180: 0x0901 [0x23] WAIT_FOR_DIALOG_INTERACTION
181: 0x0902 [0x01] GOTO 0x0918
182: 0x0905 [0x02] IF !(ExtData[1]->WorkLocal[9] == 3*) GOTO 0x0918
183: 0x090D [0x2B] Kih Katteh, M.C. (ID: 17117944/0x010532F8) [7435*]:
    → "You're the current quickest delivery record holder, with a lightning-fast time of $3 [hour/hours] ($4 [minute/minutes] and $5 [second/seconds] Earth time). But that's no excuse to slack off, you hear?"
184: 0x0914 [0x23] WAIT_FOR_DIALOG_INTERACTION
185: 0x0915 [0x01] GOTO 0x0918

SUBROUTINE_0918:
186: 0x0918 [0x1B] RETURN

SUBROUTINE_0919:
187: 0x0919 [0x02] IF !(ExtData[1]->WorkLocal[9] == 1*) GOTO 0x0930
188: 0x0921 [0x6E] Toulsard, R.K. (ID: 17117942/0x010532F6) uses emote 2*
189: 0x0928 [0x99] Wait for Toulsard, R.K. (ID: 17117942/0x010532F6) animation to complete
190: 0x092D [0x01] GOTO 0x095E
191: 0x0930 [0x02] IF !(ExtData[1]->WorkLocal[9] == 2*) GOTO 0x0947
192: 0x0938 [0x6E] Feral Moon, L.C. (ID: 17117943/0x010532F7) uses emote 258*
193: 0x093F [0x99] Wait for Feral Moon, L.C. (ID: 17117943/0x010532F7) animation to complete
194: 0x0944 [0x01] GOTO 0x095E
195: 0x0947 [0x02] IF !(ExtData[1]->WorkLocal[9] == 3*) GOTO 0x095E
196: 0x094F [0x6E] Kih Katteh, M.C. (ID: 17117944/0x010532F8) uses emote 514*
197: 0x0956 [0x99] Wait for Kih Katteh, M.C. (ID: 17117944/0x010532F8) animation to complete
198: 0x095B [0x01] GOTO 0x095E

SUBROUTINE_095E:
199: 0x095E [0x1B] RETURN

SUBROUTINE_095F:
200: 0x095F [0x45] LOAD_SCHEDULED_TASK: Load scheduler "c083" with entities [LocalPlayer, LocalPlayer], work=[342*, 0*]
201: 0x0970 [0x1B] RETURN

SUBROUTINE_0971:
202: 0x0971 [0x52] END_LOAD_SCHEDULER: End scheduler "c083" with entities [LocalPlayer, LocalPlayer], work=342*
203: 0x0980 [0x1B] RETURN
```
