# 17867232 - Seat of Gramk-Droog

## Common Data

| Field            | Value                    |
|------------------|--------------------------|
| Zone             | Marjami Ravine (ID: 266) |
| Block Size       | 18844 bytes              |
| Total Events     | 7                        |
| References Count | 524                      |

## List of Events

| Event ID              | Entrypoint   |   Size |   Instructions |
|-----------------------|--------------|--------|----------------|
| [65535](#event-65535) | 0x0000       |      1 |              1 |
| [57](#event-57)       | 0x0001       |   5474 |            590 |
| [63](#event-63)       | 0x1563       |   1040 |            122 |
| [64](#event-64)       | 0x1973       |    259 |             31 |
| [65](#event-65)       | 0x1A76       |   3749 |            410 |
| [66](#event-66)       | 0x291B       |   5919 |            631 |
| [67](#event-67)       | 0x403A       |    261 |             32 |

## DAT References (imed_data)

|   Index | Hex Value   |   Dec Value |
|---------|-------------|-------------|
|       0 | 0x00C8      |         200 |
|       1 | 0x0000      |           0 |
|       2 | 0x0013      |          19 |
|       3 | 0x17364     |       95076 |
|       4 | 0xFFFE2BFE  |  4294847486 |
|       5 | 0x50D6      |       20694 |
|       6 | 0x08EC      |        2284 |
|       7 | 0x1717A     |       94586 |
|       8 | 0xFFFE273B  |  4294846267 |
|       9 | 0x50AE      |       20654 |
|      10 | 0x09C3      |        2499 |
|      11 | 0x174F6     |       95478 |
|      12 | 0xFFFE24C9  |  4294845641 |
|      13 | 0x5108      |       20744 |
|      14 | 0xFC13      |       64531 |
|      15 | 0xFFFEB226  |  4294881830 |
|      16 | 0x4F68      |       20328 |
|      17 | 0x0227      |         551 |
|      18 | 0x12582     |       75138 |
|      19 | 0xFFFE8557  |  4294870359 |
|      20 | 0x507B      |       20603 |
|      21 | 0x03DC      |         988 |
|      22 | 0xC623      |       50723 |
|      23 | 0xFFFEABD7  |  4294880215 |
|      24 | 0x4F16      |       20246 |
|      25 | 0x09B0      |        2480 |
|      26 | 0x102D4     |       66260 |
|      27 | 0xFFFE84A1  |  4294870177 |
|      28 | 0x51B7      |       20919 |
|      29 | 0x0C0A      |        3082 |
|      30 | 0x11FCC     |       73676 |
|      31 | 0xFFFE5AAB  |  4294859435 |
|      32 | 0x50ED      |       20717 |
|      33 | 0x0D20      |        3360 |
|      34 | 0x0275      |         629 |
|      35 | 0x000F      |          15 |
|      36 | 0x00B4      |         180 |
|      37 | 0x1F0B      |        7947 |
|      38 | 0x010D      |         269 |
|      39 | 0x0078      |         120 |
|      40 | 0x176EC     |       95980 |
|      41 | 0xFFFE26D3  |  4294846163 |
|      42 | 0x513B      |       20795 |
|      43 | 0x0032      |          50 |
|      44 | 0x00A0      |         160 |
|      45 | 0x1F0C      |        7948 |
|      46 | 0x0028      |          40 |
|      47 | 0x1F0D      |        7949 |
|      48 | 0x003B      |          59 |
|      49 | 0x1F0E      |        7950 |
|      50 | 0x0096      |         150 |
|      51 | 0xF20B      |       61963 |
|      52 | 0xFFFEEEAA  |  4294897322 |
|      53 | 0x43B8      |       17336 |
|      54 | 0x03D4      |         980 |
|      55 | 0xF1FD      |       61949 |
|      56 | 0xFFFEEB41  |  4294896449 |
|      57 | 0x43F0      |       17392 |
|      58 | 0x0C46      |        3142 |
|      59 | 0xEE84      |       61060 |
|      60 | 0xFFFEEBC7  |  4294896583 |
|      61 | 0x43AA      |       17322 |
|      62 | 0x0B8A      |        2954 |
|      63 | 0xF68E      |       63118 |
|      64 | 0xFFFEE95D  |  4294895965 |
|      65 | 0x42B3      |       17075 |
|      66 | 0xF2A0      |       62112 |
|      67 | 0xFFFEE02A  |  4294893610 |
|      68 | 0x473D      |       18237 |
|      69 | 0x0BCA      |        3018 |
|      70 | 0x001E      |          30 |
|      71 | 0x0CFE      |        3326 |
|      72 | 0x0D57      |        3415 |
|      73 | 0x003C      |          60 |
|      74 | 0x1F0F      |        7951 |
|      75 | 0x1F10      |        7952 |
|      76 | 0x0039      |          57 |
|      77 | 0x1F11      |        7953 |
|      78 | 0x0D39      |        3385 |
|      79 | 0x000A      |          10 |
|      80 | 0x00BE      |         190 |
|      81 | 0x00C9      |         201 |
|      82 | 0xF893      |       63635 |
|      83 | 0xFFFEEBD5  |  4294896597 |
|      84 | 0x43E1      |       17377 |
|      85 | 0x0403      |        1027 |
|      86 | 0xEC0A      |       60426 |
|      87 | 0xFFFEEB36  |  4294896438 |
|      88 | 0x43EB      |       17387 |
|      89 | 0xF12F      |       61743 |
|      90 | 0xFFFECEF3  |  4294889203 |
|      91 | 0x4C4E      |       19534 |
|      92 | 0x0CDF      |        3295 |
|      93 | 0xEC3A      |       60474 |
|      94 | 0xFFFED1C0  |  4294889920 |
|      95 | 0x4BEF      |       19439 |
|      96 | 0x0CDE      |        3294 |
|      97 | 0xF299      |       62105 |
|      98 | 0xFFFE9BE5  |  4294876133 |
|      99 | 0x5104      |       20740 |
|     100 | 0x0C0B      |        3083 |
|     101 | 0x1126C     |       70252 |
|     102 | 0xFFFEA8D2  |  4294879442 |
|     103 | 0x4E8F      |       20111 |
|     104 | 0xDA87      |       55943 |
|     105 | 0xFFFE88BD  |  4294871229 |
|     106 | 0x519A      |       20890 |
|     107 | 0x039B      |         923 |
|     108 | 0x1053B     |       66875 |
|     109 | 0xFFFE93AD  |  4294874029 |
|     110 | 0x5079      |       20601 |
|     111 | 0x008C      |         140 |
|     112 | 0x1F12      |        7954 |
|     113 | 0x1F13      |        7955 |
|     114 | 0x0064      |         100 |
|     115 | 0x0005      |           5 |
|     116 | 0x0015      |          21 |
|     117 | 0x1F14      |        7956 |
|     118 | 0x1F15      |        7957 |
|     119 | 0x1F16      |        7958 |
|     120 | 0x1F17      |        7959 |
|     121 | 0x1F18      |        7960 |
|     122 | 0x0D58      |        3416 |
|     123 | 0x1F19      |        7961 |
|     124 | 0x1F1A      |        7962 |
|     125 | 0x1F1B      |        7963 |
|     126 | 0x1F1C      |        7964 |
|     127 | 0x1F1D      |        7965 |
|     128 | 0x10A77     |       68215 |
|     129 | 0xFFFEB60F  |  4294882831 |
|     130 | 0x4E0A      |       19978 |
|     131 | 0x1F1E      |        7966 |
|     132 | 0x005A      |          90 |
|     133 | 0x1F1F      |        7967 |
|     134 | 0x0007      |           7 |
|     135 | 0x1F20      |        7968 |
|     136 | 0x0D02      |        3330 |
|     137 | 0x1F21      |        7969 |
|     138 | 0x0001      |           1 |
|     139 | 0x0002      |           2 |
|     140 | 0x0003      |           3 |
|     141 | 0x0004      |           4 |
|     142 | 0x00AA      |         170 |
|     143 | 0x0006      |           6 |
|     144 | 0x0008      |           8 |
|     145 | 0x1F22      |        7970 |
|     146 | 0xF8A2      |       63650 |
|     147 | 0xFFFEE200  |  4294894080 |
|     148 | 0x462E      |       17966 |
|     149 | 0x0402      |        1026 |
|     150 | 0xF31B      |       62235 |
|     151 | 0xFFFEE075  |  4294893685 |
|     152 | 0x470B      |       18187 |
|     153 | 0x0014      |          20 |
|     154 | 0x1F23      |        7971 |
|     155 | 0x23CE      |        9166 |
|     156 | 0xFFFF7313  |  4294931219 |
|     157 | 0x4D21      |       19745 |
|     158 | 0x08E6      |        2278 |
|     159 | 0x23C7      |        9159 |
|     160 | 0xFFFF6E83  |  4294930051 |
|     161 | 0x4D98      |       19864 |
|     162 | 0x0981      |        2433 |
|     163 | 0x0F20      |        3872 |
|     164 | 0xFFFF7D4A  |  4294933834 |
|     165 | 0x4E15      |       19989 |
|     166 | 0x06DB      |        1755 |
|     167 | 0x178E      |        6030 |
|     168 | 0xFFFF7007  |  4294930439 |
|     169 | 0x4E07      |       19975 |
|     170 | 0x0919      |        2329 |
|     171 | 0x0C89      |        3209 |
|     172 | 0xFFFF6E3C  |  4294929980 |
|     173 | 0x4E1F      |       19999 |
|     174 | 0x08F6      |        2294 |
|     175 | 0x0D21      |        3361 |
|     176 | 0x1F24      |        7972 |
|     177 | 0x1F25      |        7973 |
|     178 | 0x1F26      |        7974 |
|     179 | 0x1F27      |        7975 |
|     180 | 0x082A      |        2090 |
|     181 | 0xFFFF79F2  |  4294932978 |
|     182 | 0x0895      |        2197 |
|     183 | 0x1F28      |        7976 |
|     184 | 0x1F29      |        7977 |
|     185 | 0x0009      |           9 |
|     186 | 0x1F2A      |        7978 |
|     187 | 0x002D      |          45 |
|     188 | 0x1F2B      |        7979 |
|     189 | 0x1F2C      |        7980 |
|     190 | 0x1F2D      |        7981 |
|     191 | 0x0108      |         264 |
|     192 | 0x1F2E      |        7982 |
|     193 | 0x1F2F      |        7983 |
|     194 | 0x0047      |          71 |
|     195 | 0x1F30      |        7984 |
|     196 | 0x1F31      |        7985 |
|     197 | 0x1F32      |        7986 |
|     198 | 0xF196      |       61846 |
|     199 | 0xFFFEF6F5  |  4294899445 |
|     200 | 0x35C7      |       13767 |
|     201 | 0x03DD      |         989 |
|     202 | 0xF0C1      |       61633 |
|     203 | 0xFFFED222  |  4294890018 |
|     204 | 0x4BC8      |       19400 |
|     205 | 0x0C3B      |        3131 |
|     206 | 0x0D59      |        3417 |
|     207 | 0x1F33      |        7987 |
|     208 | 0x1F34      |        7988 |
|     209 | 0x1F35      |        7989 |
|     210 | 0x1F36      |        7990 |
|     211 | 0x1F37      |        7991 |
|     212 | 0x1F38      |        7992 |
|     213 | 0x001B      |          27 |
|     214 | 0x6563F     |      415295 |
|     215 | 0x3E281     |      254593 |
|     216 | 0xFFFF15A0  |  4294907296 |
|     217 | 0x063F      |        1599 |
|     218 | 0x61EA6     |      401062 |
|     219 | 0x3B9A5     |      244133 |
|     220 | 0x0395      |         917 |
|     221 | 0x61B66     |      400230 |
|     222 | 0x3ADA5     |      241061 |
|     223 | 0x0A7F      |        2687 |
|     224 | 0x612CB     |      398027 |
|     225 | 0x3AF13     |      241427 |
|     226 | 0x60E67     |      396903 |
|     227 | 0x3B2DA     |      242394 |
|     228 | 0x0641      |        1601 |
|     229 | 0x614C1     |      398529 |
|     230 | 0x3B6BD     |      243389 |
|     231 | 0x0302      |         770 |
|     232 | 0x001D      |          29 |
|     233 | 0x02EC      |         748 |
|     234 | 0x1F39      |        7993 |
|     235 | 0x1F3A      |        7994 |
|     236 | 0x1F3B      |        7995 |
|     237 | 0x61B9C     |      400284 |
|     238 | 0x3B86A     |      243818 |
|     239 | 0x62223     |      401955 |
|     240 | 0x3B259     |      242265 |
|     241 | 0xFFFF15A1  |  4294907297 |
|     242 | 0x1F3C      |        7996 |
|     243 | 0x1F3D      |        7997 |
|     244 | 0x0CB9      |        3257 |
|     245 | 0x1F3E      |        7998 |
|     246 | 0x1F3F      |        7999 |
|     247 | 0x0024      |          36 |
|     248 | 0x1F40      |        8000 |
|     249 | 0x1F41      |        8001 |
|     250 | 0x6288A     |      403594 |
|     251 | 0x3C1B9     |      246201 |
|     252 | 0xFFFF1598  |  4294907288 |
|     253 | 0x1F42      |        8002 |
|     254 | 0x0146      |         326 |
|     255 | 0x17C2A     |       97322 |
|     256 | 0xFFFE2CC2  |  4294847682 |
|     257 | 0x5181      |       20865 |
|     258 | 0x09EB      |        2539 |
|     259 | 0x17665     |       95845 |
|     260 | 0xFFFE2C16  |  4294847510 |
|     261 | 0x5122      |       20770 |
|     262 | 0x171AC     |       94636 |
|     263 | 0xFFFE2A61  |  4294847073 |
|     264 | 0x50B3      |       20659 |
|     265 | 0x09B3      |        2483 |
|     266 | 0x7EE2      |       32482 |
|     267 | 0xFFFED8F1  |  4294891761 |
|     268 | 0x00BA      |         186 |
|     269 | 0x7AFB      |       31483 |
|     270 | 0xFFFEDE79  |  4294893177 |
|     271 | 0x4DAF      |       19887 |
|     272 | 0x00C6      |         198 |
|     273 | 0x768D      |       30349 |
|     274 | 0xFFFED83B  |  4294891579 |
|     275 | 0x4DDF      |       19935 |
|     276 | 0x007A      |         122 |
|     277 | 0xF124      |       61732 |
|     278 | 0xFFFEF4FE  |  4294898942 |
|     279 | 0x3996      |       14742 |
|     280 | 0x03FF      |        1023 |
|     281 | 0xE740      |       59200 |
|     282 | 0xFFFE572F  |  4294858543 |
|     283 | 0x5363      |       21347 |
|     284 | 0x0AB1      |        2737 |
|     285 | 0xE45B      |       58459 |
|     286 | 0xFFFEC008  |  4294885384 |
|     287 | 0x4EB6      |       20150 |
|     288 | 0x0C8B      |        3211 |
|     289 | 0xF095      |       61589 |
|     290 | 0xFFFEB890  |  4294883472 |
|     291 | 0x4F0D      |       20237 |
|     292 | 0xFE56      |       65110 |
|     293 | 0xFFFEBCD2  |  4294884562 |
|     294 | 0x4E60      |       20064 |
|     295 | 0x0BC4      |        3012 |
|     296 | 0x19328     |      103208 |
|     297 | 0xFFFE1439  |  4294841401 |
|     298 | 0x4FAD      |       20397 |
|     299 | 0x0935      |        2357 |
|     300 | 0x183F7     |       99319 |
|     301 | 0xFFFE16FD  |  4294842109 |
|     302 | 0x5135      |       20789 |
|     303 | 0x187AF     |      100271 |
|     304 | 0xFFFE1AB1  |  4294843057 |
|     305 | 0x51AB      |       20907 |
|     306 | 0x0AB2      |        2738 |
|     307 | 0x108FF     |       67839 |
|     308 | 0xFFFE78EC  |  4294867180 |
|     309 | 0x5180      |       20864 |
|     310 | 0x094D      |        2381 |
|     311 | 0x0F07      |        3847 |
|     312 | 0x0F08      |        3848 |
|     313 | 0x005D      |          93 |
|     314 | 0x003E      |          62 |
|     315 | 0x1F43      |        8003 |
|     316 | 0x1F44      |        8004 |
|     317 | 0x1F45      |        8005 |
|     318 | 0x1F46      |        8006 |
|     319 | 0x1F47      |        8007 |
|     320 | 0x0F09      |        3849 |
|     321 | 0x005F      |          95 |
|     322 | 0x007F      |         127 |
|     323 | 0x1F48      |        8008 |
|     324 | 0x1F49      |        8009 |
|     325 | 0x1F4A      |        8010 |
|     326 | 0x1F4B      |        8011 |
|     327 | 0x1F4C      |        8012 |
|     328 | 0x1F4D      |        8013 |
|     329 | 0x1F4E      |        8014 |
|     330 | 0x1F4F      |        8015 |
|     331 | 0x1F50      |        8016 |
|     332 | 0x1F51      |        8017 |
|     333 | 0x0031      |          49 |
|     334 | 0x1F52      |        8018 |
|     335 | 0x1F53      |        8019 |
|     336 | 0x0020      |          32 |
|     337 | 0x1F54      |        8020 |
|     338 | 0x1F55      |        8021 |
|     339 | 0x1F56      |        8022 |
|     340 | 0x1F57      |        8023 |
|     341 | 0x0016      |          22 |
|     342 | 0x1F58      |        8024 |
|     343 | 0x1F59      |        8025 |
|     344 | 0x1F5A      |        8026 |
|     345 | 0x1F5B      |        8027 |
|     346 | 0x08E2      |        2274 |
|     347 | 0x1F5C      |        8028 |
|     348 | 0x16B4F     |       93007 |
|     349 | 0xFFFE2EFA  |  4294848250 |
|     350 | 0x4FE0      |       20448 |
|     351 | 0x17190     |       94608 |
|     352 | 0xFFFE3036  |  4294848566 |
|     353 | 0x5071      |       20593 |
|     354 | 0x094C      |        2380 |
|     355 | 0x0CBA      |        3258 |
|     356 | 0x1F5D      |        8029 |
|     357 | 0x1F5E      |        8030 |
|     358 | 0x10A05     |       68101 |
|     359 | 0xFFFE75F8  |  4294866424 |
|     360 | 0x520B      |       21003 |
|     361 | 0x0B18      |        2840 |
|     362 | 0x10B33     |       68403 |
|     363 | 0xFFFE7B74  |  4294867828 |
|     364 | 0x51DB      |       20955 |
|     365 | 0x0451      |        1105 |
|     366 | 0x10628     |       67112 |
|     367 | 0xFFFE7931  |  4294867249 |
|     368 | 0x5250      |       21072 |
|     369 | 0x014F      |         335 |
|     370 | 0x0EE1      |        3809 |
|     371 | 0x0D22      |        3362 |
|     372 | 0x0082      |         130 |
|     373 | 0x104F3     |       66803 |
|     374 | 0xFFFE86CE  |  4294870734 |
|     375 | 0x5137      |       20791 |
|     376 | 0x008E      |         142 |
|     377 | 0x1F5F      |        8031 |
|     378 | 0x1F60      |        8032 |
|     379 | 0x1F61      |        8033 |
|     380 | 0x1F62      |        8034 |
|     381 | 0xF06B      |       61547 |
|     382 | 0xFFFEBF13  |  4294885139 |
|     383 | 0x4EA8      |       20136 |
|     384 | 0x1F63      |        8035 |
|     385 | 0x0034      |          52 |
|     386 | 0x109D2     |       68050 |
|     387 | 0xFFFE78A6  |  4294867110 |
|     388 | 0xF145      |       61765 |
|     389 | 0xFFFED1D9  |  4294889945 |
|     390 | 0x4BC1      |       19393 |
|     391 | 0xFC4B      |       64587 |
|     392 | 0xFFFE6A6A  |  4294863466 |
|     393 | 0x52DD      |       21213 |
|     394 | 0x0BFE      |        3070 |
|     395 | 0x126EA     |       75498 |
|     396 | 0xFFFE484B  |  4294854731 |
|     397 | 0x4F6B      |       20331 |
|     398 | 0x121FE     |       74238 |
|     399 | 0xFFFE417D  |  4294852989 |
|     400 | 0x4F21      |       20257 |
|     401 | 0xE892      |       59538 |
|     402 | 0xFFFE5CBF  |  4294859967 |
|     403 | 0x5369      |       21353 |
|     404 | 0xE910      |       59664 |
|     405 | 0xFFFE968D  |  4294874765 |
|     406 | 0x50B1      |       20657 |
|     407 | 0xEA63      |       60003 |
|     408 | 0xFFFE3EDA  |  4294852314 |
|     409 | 0x531E      |       21278 |
|     410 | 0x05C7      |        1479 |
|     411 | 0xF5B9      |       62905 |
|     412 | 0xFFFEEECC  |  4294897356 |
|     413 | 0x43A0      |       17312 |
|     414 | 0x0F0C      |        3852 |
|     415 | 0x1F64      |        8036 |
|     416 | 0x0080      |         128 |
|     417 | 0x00F0      |         240 |
|     418 | 0x1F65      |        8037 |
|     419 | 0x1F66      |        8038 |
|     420 | 0x1F67      |        8039 |
|     421 | 0x1F68      |        8040 |
|     422 | 0x1F69      |        8041 |
|     423 | 0x1F6A      |        8042 |
|     424 | 0x1F6B      |        8043 |
|     425 | 0x1F6C      |        8044 |
|     426 | 0x1F6D      |        8045 |
|     427 | 0x1F6E      |        8046 |
|     428 | 0x1F6F      |        8047 |
|     429 | 0x1F70      |        8048 |
|     430 | 0x0083      |         131 |
|     431 | 0x1F71      |        8049 |
|     432 | 0xF1ED      |       61933 |
|     433 | 0xFFFEF96C  |  4294900076 |
|     434 | 0x3998      |       14744 |
|     435 | 0xF0E3      |       61667 |
|     436 | 0xFFFEEBC8  |  4294896584 |
|     437 | 0x43A7      |       17319 |
|     438 | 0x103D0     |       66512 |
|     439 | 0xFFFE906C  |  4294873196 |
|     440 | 0x4DBC      |       19900 |
|     441 | 0x1F72      |        8050 |
|     442 | 0x1F73      |        8051 |
|     443 | 0x0081      |         129 |
|     444 | 0x1F74      |        8052 |
|     445 | 0x0046      |          70 |
|     446 | 0x1F75      |        8053 |
|     447 | 0x00FF      |         255 |
|     448 | 0x106EF     |       67311 |
|     449 | 0xFFFE7E87  |  4294868615 |
|     450 | 0x51EC      |       20972 |
|     451 | 0x0E95      |        3733 |
|     452 | 0x10373     |       66419 |
|     453 | 0xFFFEA590  |  4294878608 |
|     454 | 0x501A      |       20506 |
|     455 | 0xFEC1      |       65217 |
|     456 | 0xFFFE6C96  |  4294864022 |
|     457 | 0x5289      |       21129 |
|     458 | 0xF36A      |       62314 |
|     459 | 0xFFFE707B  |  4294865019 |
|     460 | 0x5302      |       21250 |
|     461 | 0x10132     |       65842 |
|     462 | 0xFFFE6A37  |  4294863415 |
|     463 | 0x5258      |       21080 |
|     464 | 0x0D36      |        3382 |
|     465 | 0x0044      |          68 |
|     466 | 0x1F77      |        8055 |
|     467 | 0x000D      |          13 |
|     468 | 0x1F78      |        8056 |
|     469 | 0x1F79      |        8057 |
|     470 | 0x1F7A      |        8058 |
|     471 | 0x1F7B      |        8059 |
|     472 | 0x1F7C      |        8060 |
|     473 | 0x0019      |          25 |
|     474 | 0x1F7D      |        8061 |
|     475 | 0x0050      |          80 |
|     476 | 0x1F7E      |        8062 |
|     477 | 0x1F7F      |        8063 |
|     478 | 0x51A4      |       20900 |
|     479 | 0x1F80      |        8064 |
|     480 | 0x1F81      |        8065 |
|     481 | 0x1F82      |        8066 |
|     482 | 0x1F83      |        8067 |
|     483 | 0x1F84      |        8068 |
|     484 | 0xEF0B      |       61195 |
|     485 | 0xFFFEDB40  |  4294892352 |
|     486 | 0x48E3      |       18659 |
|     487 | 0x0CCD      |        3277 |
|     488 | 0x10E9B     |       69275 |
|     489 | 0xFFFE8036  |  4294869046 |
|     490 | 0x510F      |       20751 |
|     491 | 0x0244      |         580 |
|     492 | 0x1F85      |        8069 |
|     493 | 0x1F86      |        8070 |
|     494 | 0x1F87      |        8071 |
|     495 | 0x1F88      |        8072 |
|     496 | 0x1F89      |        8073 |
|     497 | 0x1F8A      |        8074 |
|     498 | 0x000B      |          11 |
|     499 | 0x1F8B      |        8075 |
|     500 | 0x1F8C      |        8076 |
|     501 | 0x1F8D      |        8077 |
|     502 | 0x1F8E      |        8078 |
|     503 | 0x10EC6     |       69318 |
|     504 | 0xFFFE876B  |  4294870891 |
|     505 | 0x5013      |       20499 |
|     506 | 0x0475      |        1141 |
|     507 | 0x1F8F      |        8079 |
|     508 | 0x1F90      |        8080 |
|     509 | 0x1F91      |        8081 |
|     510 | 0x1F92      |        8082 |
|     511 | 0x1F93      |        8083 |
|     512 | 0x1F94      |        8084 |
|     513 | 0x1F95      |        8085 |
|     514 | 0x1F96      |        8086 |
|     515 | 0x1F97      |        8087 |
|     516 | 0x1F98      |        8088 |
|     517 | 0x1F99      |        8089 |
|     518 | 0x1F9A      |        8090 |
|     519 | 0x1F9B      |        8091 |
|     520 | 0x10942     |       67906 |
|     521 | 0xFFFE8B4F  |  4294871887 |
|     522 | 0x5058      |       20568 |
|     523 | 0x1F9C      |        8092 |

## Events

### Event 65535

#### Metadata

| Field        | Value   |
|--------------|---------|
| Entrypoint   | 0x0000  |
| Data Size    | 1 bytes |
| Instructions | 1       |

```
      00 01 02 03 04 05 06 07  08 09 0A 0B 0C 0D 0E 0F
      -- -- -- -- -- -- -- --  -- -- -- -- -- -- -- --
0000: 00                                                .               
```

#### Opcodes

```
  0: 0x0000 [0x00] END_REQSTACK()
```

### Event 57

#### Metadata

| Field        | Value      |
|--------------|------------|
| Entrypoint   | 0x0001     |
| Data Size    | 5474 bytes |
| Instructions | 590        |

```
      00 01 02 03 04 05 06 07  08 09 0A 0B 0C 0D 0E 0F
      -- -- -- -- -- -- -- --  -- -- -- -- -- -- -- --
0000:    42 45 00 80 F8 FF FF  7F F8 FF FF 7F 66 64 6F   BE..........fdo
0010: 31 01 80 55 00 80 F8 FF  FF 7F F8 FF FF 7F 66 64  1..U..........fd
0020: 6F 31 46 01 38 02 80 4E  01 F0 FF FF 7F 2F 00 E2  o1F.8..N...../..
0030: A1 10 01 2F 00 E3 A1 10  01 2F 00 E4 A1 10 01 2F  .../...../...../
0040: 00 E5 A1 10 01 2F 00 E7  A1 10 01 2F 00 E8 A1 10  ...../...../....
0050: 01 2F 00 E9 A1 10 01 2F  00 EA A1 10 01 4E 00 E2  ./...../.....N..
0060: A1 10 01 4E 00 E3 A1 10  01 4E 00 E4 A1 10 01 4E  ...N.....N.....N
0070: 00 E5 A1 10 01 4E 00 E7  A1 10 01 4E 00 E8 A1 10  .....N.....N....
0080: 01 4E 00 E9 A1 10 01 4E  00 EA A1 10 01 92 01 E2  .N.....N........
0090: A1 10 01 92 01 E3 A1 10  01 92 01 E4 A1 10 01 92  ................
00A0: 01 E5 A1 10 01 94 01 E2  A1 10 01 94 01 E3 A1 10  ................
00B0: 01 94 01 E4 A1 10 01 94  01 E5 A1 10 01 94 01 E7  ................
00C0: A1 10 01 94 01 E8 A1 10  01 94 01 E9 A1 10 01 94  ................
00D0: 01 EA A1 10 01 BA E2 A1  10 01 03 80 04 80 05 80  ................
00E0: 06 80 BA E3 A1 10 01 07  80 08 80 09 80 0A 80 BA  ................
00F0: E4 A1 10 01 0B 80 0C 80  0D 80 0A 80 BA E5 A1 10  ................
0100: 01 0E 80 0F 80 10 80 11  80 BA E7 A1 10 01 12 80  ................
0110: 13 80 14 80 15 80 BA E8  A1 10 01 16 80 17 80 18  ................
0120: 80 19 80 BA E9 A1 10 01  1A 80 1B 80 1C 80 1D 80  ................
0130: BA EA A1 10 01 1E 80 1F  80 20 80 21 80 80 E2 A1  ......... .!....
0140: 10 01 80 E3 A1 10 01 80  E4 A1 10 01 80 E5 A1 10  ................
0150: 01 80 E7 A1 10 01 80 E8  A1 10 01 80 E9 A1 10 01  ................
0160: 80 EA A1 10 01 27 05 E2  A1 10 01 04 27 05 E3 A1  .....'......'...
0170: 10 01 06 27 05 E4 A1 10  01 05 27 05 E9 A1 10 01  ...'......'.....
0180: 02 27 05 E7 A1 10 01 02  45 22 80 F8 FF FF 7F F8  .'......E"......
0190: FF FF 7F 73 30 38 30 01  80 1C 23 80 45 00 80 F8  ...s080...#.E...
01A0: FF FF 7F F8 FF FF 7F 66  64 69 31 01 80 1C 24 80  .......fdi1...$.
01B0: 45 00 80 F0 FF FF 7F F0  FF FF 7F 6F 76 6C 31 01  E..........ovl1.
01C0: 80 52 22 80 F8 FF FF 7F  F8 FF FF 7F 73 30 38 30  .R".........s080
01D0: 45 22 80 F8 FF FF 7F F8  FF FF 7F 73 30 38 31 01  E".........s081.
01E0: 80 1C 24 80 52 22 80 F8  FF FF 7F F8 FF FF 7F 73  ..$.R".........s
01F0: 30 38 31 45 22 80 F8 FF  FF 7F F8 FF FF 7F 73 30  081E".........s0
0200: 38 32 01 80 2B E2 A1 10  01 25 80 23 52 22 80 F8  82..+....%.#R"..
0210: FF FF 7F F8 FF FF 7F 73  30 38 32 45 22 80 F8 FF  .......s082E"...
0220: FF 7F F8 FF FF 7F 73 30  38 33 01 80 27 05 E2 A1  ......s083..'...
0230: 10 01 05 27 05 E3 A1 10  01 07 27 05 E4 A1 10 01  ...'......'.....
0240: 06 73 26 80 E2 A1 10 01  E5 A1 10 01 1C 27 80 52  .s&..........'.R
0250: 22 80 F8 FF FF 7F F8 FF  FF 7F 73 30 38 33 45 22  ".........s083E"
0260: 80 F8 FF FF 7F F8 FF FF  7F 73 30 38 34 01 80 4A  .........s084..J
0270: EA A1 10 01 E2 A1 10 01  1C 23 80 BA E4 A1 10 01  .........#......
0280: 28 80 29 80 2A 80 0A 80  4A E7 A1 10 01 E2 A1 10  (.).*...J.......
0290: 01 73 26 80 E3 A1 10 01  E7 A1 10 01 73 26 80 E4  .s&.........s&..
02A0: A1 10 01 EA A1 10 01 1C  2B 80 52 22 80 F8 FF FF  ........+.R"....
02B0: 7F F8 FF FF 7F 73 30 38  34 45 22 80 F8 FF FF 7F  .....s084E".....
02C0: F8 FF FF 7F 73 30 38 35  01 80 1C 2C 80 52 22 80  ....s085...,.R".
02D0: F8 FF FF 7F F8 FF FF 7F  73 30 38 35 45 22 80 F8  ........s085E"..
02E0: FF FF 7F F8 FF FF 7F 73  30 38 36 01 80 2B E4 A1  .......s086..+..
02F0: 10 01 2D 80 23 4A E2 A1  10 01 E4 A1 10 01 66 2E  ..-.#J........f.
0300: 80 E3 A1 10 01 E3 A1 10  01 64 69 73 30 2B E3 A1  .........dis0+..
0310: 10 01 2F 80 23 52 22 80  F8 FF FF 7F F8 FF FF 7F  ../.#R".........
0320: 73 30 38 36 45 22 80 F8  FF FF 7F F8 FF FF 7F 73  s086E".........s
0330: 30 38 37 01 80 66 30 80  E2 A1 10 01 E2 A1 10 01  087..f0.........
0340: 74 6C 6B 30 4A E3 A1 10  01 E2 A1 10 01 2B E2 A1  tlk0J........+..
0350: 10 01 31 80 23 66 30 80  E2 A1 10 01 E2 A1 10 01  ..1.#f0.........
0360: 74 6C 6B 31 52 22 80 F8  FF FF 7F F8 FF FF 7F 73  tlk1R".........s
0370: 30 38 37 45 22 80 F8 FF  FF 7F F8 FF FF 7F 73 30  087E".........s0
0380: 38 38 01 80 27 05 E2 A1  10 01 06 1C 32 80 5D 01  88..'.......2.].
0390: 80 27 80 45 00 80 F8 FF  FF 7F F8 FF FF 7F 66 64  .'.E..........fd
03A0: 6F 31 01 80 55 00 80 F8  FF FF 7F F8 FF FF 7F 66  o1..U..........f
03B0: 64 6F 31 52 22 80 F8 FF  FF 7F F8 FF FF 7F 73 30  do1R".........s0
03C0: 38 38 7A 00 E2 A1 10 01  2F 00 EB A1 10 01 2F 00  88z...../...../.
03D0: EC A1 10 01 4E 00 EB A1  10 01 4E 00 EC A1 10 01  ....N.....N.....
03E0: 94 01 EB A1 10 01 94 01  EC A1 10 01 4E 01 E5 A1  ............N...
03F0: 10 01 BA EB A1 10 01 33  80 34 80 35 80 36 80 BA  .......3.4.5.6..
0400: EC A1 10 01 33 80 34 80  35 80 36 80 BA E2 A1 10  ....3.4.5.6.....
0410: 01 37 80 38 80 39 80 3A  80 BA E3 A1 10 01 3B 80  .7.8.9.:......;.
0420: 3C 80 3D 80 3E 80 BA E4  A1 10 01 3F 80 40 80 41  <.=.>......?.@.A
0430: 80 3E 80 BA E5 A1 10 01  42 80 43 80 44 80 45 80  .>......B.C.D.E.
0440: 80 EB A1 10 01 80 EC A1  10 01 80 E2 A1 10 01 80  ................
0450: E3 A1 10 01 80 E4 A1 10  01 4A E2 A1 10 01 EC A1  .........J......
0460: 10 01 4A E3 A1 10 01 EC  A1 10 01 4A E4 A1 10 01  ..J........J....
0470: EC A1 10 01 1C 46 80 5B  47 80 E5 A1 10 01 E5 A1  .....F.[G.......
0480: 10 01 62 74 6C 30 2C EB  A1 10 01 EB A1 10 01 6F  ..btl0,........o
0490: 70 65 6E 5B 48 80 EC A1  10 01 EC A1 10 01 62 6F  pen[H.........bo
04A0: 78 30 1C 49 80 45 22 80  F8 FF FF 7F F8 FF FF 7F  x0.I.E".........
04B0: 73 30 38 39 01 80 1C 23  80 45 00 80 F8 FF FF 7F  s089...#.E......
04C0: F8 FF FF 7F 66 64 69 31  01 80 1C 27 80 52 22 80  ....fdi1...'.R".
04D0: F8 FF FF 7F F8 FF FF 7F  73 30 38 39 45 22 80 F8  ........s089E"..
04E0: FF FF 7F F8 FF FF 7F 73  30 39 30 01 80 2B E3 A1  .......s090..+..
04F0: 10 01 4A 80 23 52 22 80  F8 FF FF 7F F8 FF FF 7F  ..J.#R".........
0500: 73 30 39 30 45 22 80 F8  FF FF 7F F8 FF FF 7F 73  s090E".........s
0510: 30 39 31 01 80 2B E4 A1  10 01 4B 80 23 4E 00 E5  091..+....K.#N..
0520: A1 10 01 80 E5 A1 10 01  5C 00 4C 80 5C 01 4C 80  ........\.L.\.L.
0530: 9A 52 22 80 F8 FF FF 7F  F8 FF FF 7F 73 30 39 31  .R".........s091
0540: 45 22 80 F8 FF FF 7F F8  FF FF 7F 73 30 39 32 01  E".........s092.
0550: 80 4A E2 A1 10 01 E5 A1  10 01 2B E2 A1 10 01 4D  .J........+....M
0560: 80 1C 46 80 5B 4E 80 E5  A1 10 01 E5 A1 10 01 68  ..F.[N.........h
0570: 6F 75 30 1C 4F 80 52 22  80 F8 FF FF 7F F8 FF FF  ou0.O.R"........
0580: 7F 73 30 39 32 45 22 80  F8 FF FF 7F F8 FF FF 7F  .s092E".........
0590: 73 30 39 33 01 80 1C 2B  80 66 50 80 E2 A1 10 01  s093...+.fP.....
05A0: E2 A1 10 01 6D 61 62 30  52 22 80 F8 FF FF 7F F8  ....mab0R"......
05B0: FF FF 7F 73 30 39 33 45  22 80 F8 FF FF 7F F8 FF  ...s093E".......
05C0: FF 7F 73 30 39 34 01 80  1C 2E 80 45 51 80 F0 FF  ..s094.....EQ...
05D0: FF 7F F0 FF FF 7F 77 68  6F 30 01 80 55 51 80 F0  ......who0..UQ..
05E0: FF FF 7F F0 FF FF 7F 77  68 6F 30 55 22 80 F8 FF  .......who0U"...
05F0: FF 7F F8 FF FF 7F 73 30  39 34 6B 69 64 6C 30 E5  ......s094kidl0.
0600: A1 10 01 2F 00 E1 A1 10  01 2F 00 E6 A1 10 01 4E  .../...../.....N
0610: 00 E1 A1 10 01 92 01 E1  A1 10 01 92 01 E6 A1 10  ................
0620: 01 94 01 E1 A1 10 01 94  01 F0 FF FF 7F 94 01 E6  ................
0630: A1 10 01 4E 00 F0 FF FF  7F BA E4 A1 10 01 52 80  ...N..........R.
0640: 53 80 54 80 55 80 BA E3  A1 10 01 56 80 57 80 58  S.T.U......V.W.X
0650: 80 55 80 BA E1 A1 10 01  59 80 5A 80 5B 80 5C 80  .U......Y.Z.[.\.
0660: BA F0 FF FF 7F 5D 80 5E  80 5F 80 60 80 BA E6 A1  .....].^._.`....
0670: 10 01 61 80 62 80 63 80  64 80 BA E7 A1 10 01 65  ..a.b.c.d......e
0680: 80 66 80 67 80 5C 80 BA  E8 A1 10 01 68 80 69 80  .f.g.\......h.i.
0690: 6A 80 6B 80 BA EA A1 10  01 6C 80 6D 80 6E 80 6B  j.k......l.m.n.k
06A0: 80 80 E1 A1 10 01 80 F0  FF FF 7F 80 E4 A1 10 01  ................
06B0: 80 E3 A1 10 01 80 E7 A1  10 01 80 E8 A1 10 01 80  ................
06C0: EA A1 10 01 1C 46 80 27  05 F0 FF FF 7F 08 2C E5  .....F.'......,.
06D0: A1 10 01 E5 A1 10 01 64  65 61 64 66 6F 80 E1 A1  .......deadfo...
06E0: 10 01 E1 A1 10 01 6D 61  62 31 45 22 80 F8 FF FF  ......mab1E"....
06F0: 7F F8 FF FF 7F 73 30 39  35 01 80 1C 23 80 45 51  .....s095...#.EQ
0700: 80 F0 FF FF 7F F0 FF FF  7F 77 68 69 31 01 80 1C  .........whi1...
0710: 49 80 66 50 80 E2 A1 10  01 E2 A1 10 01 6D 61 62  I.fP.........mab
0720: 32 2B E2 A1 10 01 70 80  23 52 22 80 F8 FF FF 7F  2+....p.#R".....
0730: F8 FF FF 7F 73 30 39 35  45 22 80 F8 FF FF 7F F8  ....s095E"......
0740: FF FF 7F 73 30 39 36 01  80 4A E8 A1 10 01 E2 A1  ...s096..J......
0750: 10 01 1C 23 80 BA E1 A1  10 01 59 80 5A 80 5B 80  ...#......Y.Z.[.
0760: 55 80 BA F0 FF FF 7F 5D  80 5E 80 5F 80 55 80 4B  U......].^._.U.K
0770: EA A1 10 01 5C 80 1C 2B  80 52 22 80 F8 FF FF 7F  ....\..+.R".....
0780: F8 FF FF 7F 73 30 39 36  45 22 80 F8 FF FF 7F F8  ....s096E"......
0790: FF FF 7F 73 30 39 37 01  80 2B E2 A1 10 01 71 80  ...s097..+....q.
07A0: 23 73 26 80 E3 A1 10 01  EA A1 10 01 52 22 80 F8  #s&.........R"..
07B0: FF FF 7F F8 FF FF 7F 73  30 39 37 45 22 80 F8 FF  .......s097E"...
07C0: FF 7F F8 FF FF 7F 73 30  39 38 01 80 1C 72 80 27  ......s098...r.'
07D0: 05 E7 A1 10 01 03 27 05  E8 A1 10 01 02 1C 73 80  ......'.......s.
07E0: 27 05 E9 A1 10 01 03 27  05 EA A1 10 01 02 1C 23  '......'.......#
07F0: 80 52 22 80 F8 FF FF 7F  F8 FF FF 7F 73 30 39 38  .R".........s098
0800: 45 22 80 F8 FF FF 7F F8  FF FF 7F 73 30 39 39 01  E".........s099.
0810: 80 1C 27 80 52 22 80 F8  FF FF 7F F8 FF FF 7F 73  ..'.R".........s
0820: 30 39 39 45 22 80 F8 FF  FF 7F F8 FF FF 7F 73 31  099E".........s1
0830: 30 30 01 80 6E E3 A1 10  01 74 80 99 E3 A1 10 01  00..n....t......
0840: 2B E3 A1 10 01 75 80 23  4E 00 E6 A1 10 01 80 E6  +....u.#N.......
0850: A1 10 01 79 00 E2 A1 10  01 E6 A1 10 01 27 05 E6  ...y.........'..
0860: A1 10 01 02 1C 23 80 52  22 80 F8 FF FF 7F F8 FF  .....#.R".......
0870: FF 7F 73 31 30 30 45 22  80 F8 FF FF 7F F8 FF FF  ..s100E"........
0880: 7F 73 31 30 31 01 80 1C  27 80 52 22 80 F8 FF FF  .s101...'.R"....
0890: 7F F8 FF FF 7F 73 31 30  31 45 22 80 F8 FF FF 7F  .....s101E".....
08A0: F8 FF FF 7F 73 31 30 32  01 80 2B E6 A1 10 01 76  ....s102..+....v
08B0: 80 23 2A 05 E6 A1 10 01  52 22 80 F8 FF FF 7F F8  .#*.....R"......
08C0: FF FF 7F 73 31 30 32 45  22 80 F8 FF FF 7F F8 FF  ...s102E".......
08D0: FF 7F 73 31 30 33 01 80  2B E2 A1 10 01 77 80 23  ..s103..+....w.#
08E0: 5B 47 80 E9 A1 10 01 E9  A1 10 01 62 74 6C 30 2B  [G.........btl0+
08F0: E4 A1 10 01 78 80 23 52  22 80 F8 FF FF 7F F8 FF  ....x.#R".......
0900: FF 7F 73 31 30 33 45 22  80 F8 FF FF 7F F8 FF FF  ..s103E"........
0910: 7F 73 31 30 34 01 80 66  2E 80 E3 A1 10 01 E3 A1  .s104..f........
0920: 10 01 64 69 73 30 2B E3  A1 10 01 79 80 23 52 22  ..dis0+....y.#R"
0930: 80 F8 FF FF 7F F8 FF FF  7F 73 31 30 34 45 22 80  .........s104E".
0940: F8 FF FF 7F F8 FF FF 7F  73 31 30 35 01 80 5B 7A  ........s105..[z
0950: 80 E6 A1 10 01 E6 A1 10  01 74 6C 6B 30 2B E6 A1  .........tlk0+..
0960: 10 01 7B 80 23 2B E2 A1  10 01 7C 80 23 52 22 80  ..{.#+....|.#R".
0970: F8 FF FF 7F F8 FF FF 7F  73 31 30 35 45 22 80 F8  ........s105E"..
0980: FF FF 7F F8 FF FF 7F 73  31 30 36 01 80 2B E6 A1  .......s106..+..
0990: 10 01 7D 80 23 6B 69 64  6C 30 E2 A1 10 01 2B E6  ..}.#kidl0....+.
09A0: A1 10 01 7E 80 23 5B 7A  80 E6 A1 10 01 E6 A1 10  ...~.#[z........
09B0: 01 74 6C 6B 31 52 22 80  F8 FF FF 7F F8 FF FF 7F  .tlk1R".........
09C0: 73 31 30 36 45 22 80 F8  FF FF 7F F8 FF FF 7F 73  s106E".........s
09D0: 31 30 37 01 80 66 30 80  E2 A1 10 01 E2 A1 10 01  107..f0.........
09E0: 74 6C 6B 30 2B E2 A1 10  01 7F 80 23 66 30 80 E2  tlk0+......#f0..
09F0: A1 10 01 E2 A1 10 01 74  6C 6B 31 52 22 80 F8 FF  .......tlk1R"...
0A00: FF 7F F8 FF FF 7F 73 31  30 37 45 22 80 F8 FF FF  ......s107E"....
0A10: 7F F8 FF FF 7F 73 31 30  38 01 80 5B 7A 80 E6 A1  .....s108..[z...
0A20: 10 01 E6 A1 10 01 74 6C  6B 30 BA E7 A1 10 01 80  ......tlk0......
0A30: 80 81 80 82 80 60 80 4A  E7 A1 10 01 E2 A1 10 01  .....`.J........
0A40: 2B E6 A1 10 01 83 80 23  5B 47 80 E7 A1 10 01 E7  +......#[G......
0A50: A1 10 01 62 74 6C 30 5B  7A 80 E6 A1 10 01 E6 A1  ...btl0[z.......
0A60: 10 01 74 6C 6B 31 55 22  80 F8 FF FF 7F F8 FF FF  ..tlk1U"........
0A70: 7F 73 31 30 38 45 22 80  F8 FF FF 7F F8 FF FF 7F  .s108E".........
0A80: 73 31 30 39 01 80 1C 46  80 5B 4E 80 EA A1 10 01  s109...F.[N.....
0A90: EA A1 10 01 68 6F 75 30  1C 84 80 52 22 80 F8 FF  ....hou0...R"...
0AA0: FF 7F F8 FF FF 7F 73 31  30 39 45 22 80 F8 FF FF  ......s109E"....
0AB0: 7F F8 FF FF 7F 73 31 31  30 01 80 79 00 E3 A1 10  .....s110..y....
0AC0: 01 E2 A1 10 01 2B E3 A1  10 01 85 80 23 6E E2 A1  .....+......#n..
0AD0: 10 01 86 80 99 E2 A1 10  01 2B E2 A1 10 01 87 80  .........+......
0AE0: 23 6B 69 64 6C 30 EA A1  10 01 5D 01 80 27 80 52  #kidl0....]..'.R
0AF0: 22 80 F8 FF FF 7F F8 FF  FF 7F 73 31 31 30 45 22  ".........s110E"
0B00: 80 F8 FF FF 7F F8 FF FF  7F 73 31 31 31 01 80 4A  .........s111..J
0B10: E2 A1 10 01 EC A1 10 01  4A F0 FF FF 7F EC A1 10  ........J.......
0B20: 01 4A E1 A1 10 01 EC A1  10 01 1C 23 80 4A E3 A1  .J.........#.J..
0B30: 10 01 EC A1 10 01 1C 23  80 4A E4 A1 10 01 EC A1  .......#.J......
0B40: 10 01 66 30 80 E2 A1 10  01 E2 A1 10 01 73 68 61  ..f0.........sha
0B50: 30 7B E2 A1 10 01 1C 27  80 52 22 80 F8 FF FF 7F  0{.....'.R".....
0B60: F8 FF FF 7F 73 31 31 31  45 22 80 F8 FF FF 7F F8  ....s111E"......
0B70: FF FF 7F 73 31 31 32 01  80 5B 88 80 E2 A1 10 01  ...s112..[......
0B80: E2 A1 10 01 6B 61 7A 30  1C 27 80 27 05 F0 FF FF  ....kaz0.'.'....
0B90: 7F 09 52 22 80 F8 FF FF  7F F8 FF FF 7F 73 31 31  ..R".........s11
0BA0: 32 45 22 80 F8 FF FF 7F  F8 FF FF 7F 73 31 31 33  2E".........s113
0BB0: 01 80 CD 24 80 EC A1 10  01 EC A1 10 01 68 6B 30  ...$.........hk0
0BC0: 31 01 80 1C 49 80 2B E2  A1 10 01 89 80 1C 2B 80  1...I.+.......+.
0BD0: 5B 7A 80 E8 A1 10 01 E8  A1 10 01 6D 61 62 30 1C  [z.........mab0.
0BE0: 4F 80 02 87 7F 8A 80 80  FC 0B 66 6F 80 F0 FF FF  O.........fo....
0BF0: 7F F0 FF FF 7F 6D 61 62  30 01 B2 0C 02 87 7F 8B  .....mab0.......
0C00: 80 80 16 0C 66 32 80 F0  FF FF 7F F0 FF FF 7F 6D  ....f2.........m
0C10: 61 62 30 01 B2 0C 02 87  7F 8C 80 80 30 0C 66 2C  ab0.........0.f,
0C20: 80 F0 FF FF 7F F0 FF FF  7F 6D 61 62 30 01 B2 0C  .........mab0...
0C30: 02 87 7F 8D 80 80 4A 0C  66 8E 80 F0 FF FF 7F F0  ......J.f.......
0C40: FF FF 7F 6D 61 62 30 01  B2 0C 02 87 7F 73 80 80  ...mab0......s..
0C50: 64 0C 66 24 80 F0 FF FF  7F F0 FF FF 7F 6D 61 62  d.f$.........mab
0C60: 30 01 B2 0C 02 87 7F 8F  80 80 7E 0C 66 24 80 F0  0.........~.f$..
0C70: FF FF 7F F0 FF FF 7F 6D  61 62 30 01 B2 0C 02 87  .......mab0.....
0C80: 7F 86 80 80 98 0C 66 50  80 F0 FF FF 7F F0 FF FF  ......fP........
0C90: 7F 6D 61 62 30 01 B2 0C  02 87 7F 90 80 80 B2 0C  .mab0...........
0CA0: 66 00 80 F0 FF FF 7F F0  FF FF 7F 6D 61 62 30 01  f..........mab0.
0CB0: B2 0C 5B 7A 80 EA A1 10  01 EA A1 10 01 6D 61 62  ..[z.........mab
0CC0: 30 52 22 80 F8 FF FF 7F  F8 FF FF 7F 73 31 31 33  0R".........s113
0CD0: 45 22 80 F8 FF FF 7F F8  FF FF 7F 73 31 31 34 01  E".........s114.
0CE0: 80 CD 24 80 F8 FF FF 7F  F8 FF FF 7F 63 6D 30 31  ..$.........cm01
0CF0: 01 80 5B 7A 80 E6 A1 10  01 E6 A1 10 01 6D 61 62  ..[z.........mab
0D00: 31 2B E6 A1 10 01 91 80  23 4E 01 E5 A1 10 01 BA  1+......#N......
0D10: E2 A1 10 01 92 80 93 80  94 80 95 80 BA E3 A1 10  ................
0D20: 01 96 80 97 80 98 80 95  80 80 E2 A1 10 01 80 E3  ................
0D30: A1 10 01 27 05 E2 A1 10  01 07 27 05 E3 A1 10 01  ...'......'.....
0D40: 08 66 6F 80 E1 A1 10 01  E1 A1 10 01 6D 61 62 31  .fo.........mab1
0D50: 1C 99 80 52 22 80 F8 FF  FF 7F F8 FF FF 7F 73 31  ...R".........s1
0D60: 31 34 45 22 80 F8 FF FF  7F F8 FF FF 7F 73 31 31  14E".........s11
0D70: 35 01 80 2B E3 A1 10 01  9A 80 23 52 22 80 F8 FF  5..+......#R"...
0D80: FF 7F F8 FF FF 7F 73 31  31 35 45 22 80 F8 FF FF  ......s115E"....
0D90: 7F F8 FF FF 7F 73 31 31  36 01 80 1C 49 80 CD 24  .....s116...I..$
0DA0: 80 EC A1 10 01 EC A1 10  01 73 65 73 74 01 80 CD  .........sest...
0DB0: 24 80 F8 FF FF 7F F8 FF  FF 7F 63 6D 73 74 01 80  $.........cmst..
0DC0: 45 51 80 F0 FF FF 7F F0  FF FF 7F 77 68 6F 30 01  EQ.........who0.
0DD0: 80 55 51 80 F0 FF FF 7F  F0 FF FF 7F 77 68 6F 30  .UQ.........who0
0DE0: 52 22 80 F8 FF FF 7F F8  FF FF 7F 73 31 31 36 CD  R".........s116.
0DF0: 24 80 EC A1 10 01 EC A1  10 01 68 6B 73 74 01 80  $.........hkst..
0E00: 7B E2 A1 10 01 7B E3 A1  10 01 6B 69 64 6C 30 EC  {....{....kidl0.
0E10: A1 10 01 6B 69 64 6C 30  F0 FF FF 7F 6B 69 64 6C  ...kidl0....kidl
0E20: 30 E2 A1 10 01 6B 69 64  6C 30 E6 A1 10 01 4E 01  0....kidl0....N.
0E30: EB A1 10 01 4E 01 E7 A1  10 01 4E 01 E8 A1 10 01  ....N.....N.....
0E40: 4E 01 E9 A1 10 01 4E 01  EA A1 10 01 BA E2 A1 10  N.....N.........
0E50: 01 9B 80 9C 80 9D 80 9E  80 BA E3 A1 10 01 9F 80  ................
0E60: A0 80 A1 80 A2 80 BA E4  A1 10 01 A3 80 A4 80 A5  ................
0E70: 80 A6 80 BA EC A1 10 01  A3 80 A4 80 A5 80 A6 80  ................
0E80: BA E1 A1 10 01 A7 80 A8  80 A9 80 AA 80 BA F0 FF  ................
0E90: FF 7F AB 80 AC 80 AD 80  AE 80 80 E2 A1 10 01 80  ................
0EA0: E3 A1 10 01 80 E4 A1 10  01 80 EC A1 10 01 80 E1  ................
0EB0: A1 10 01 80 F0 FF FF 7F  79 00 E3 A1 10 01 E1 A1  ........y.......
0EC0: 10 01 5C 00 49 80 5C 01  49 80 9A 27 05 E1 A1 10  ..\.I.\.I..'....
0ED0: 01 08 1C 23 80 27 05 E2  A1 10 01 08 1C 23 80 27  ...#.'.......#.'
0EE0: 05 E3 A1 10 01 09 1C 23  80 27 05 F0 FF FF 7F 20  .......#.'..... 
0EF0: 45 22 80 F8 FF FF 7F F8  FF FF 7F 73 31 31 37 01  E".........s117.
0F00: 80 1C 23 80 45 51 80 F0  FF FF 7F F0 FF FF 7F 77  ..#.EQ.........w
0F10: 68 69 31 01 80 1C 27 80  52 22 80 F8 FF FF 7F F8  hi1...'.R"......
0F20: FF FF 7F 73 31 31 37 45  22 80 F8 FF FF 7F F8 FF  ...s117E".......
0F30: FF 7F 73 31 31 38 01 80  5B AF 80 E4 A1 10 01 E4  ..s118..[.......
0F40: A1 10 01 68 6E 64 30 5B  48 80 EC A1 10 01 EC A1  ...hnd0[H.......
0F50: 10 01 68 6E 64 30 2B E1  A1 10 01 B0 80 23 52 22  ..hnd0+......#R"
0F60: 80 F8 FF FF 7F F8 FF FF  7F 73 31 31 38 45 22 80  .........s118E".
0F70: F8 FF FF 7F F8 FF FF 7F  73 31 31 39 01 80 66 2E  ........s119..f.
0F80: 80 E3 A1 10 01 E3 A1 10  01 67 6B 72 30 6E E2 A1  .........gkr0n..
0F90: 10 01 8F 80 99 E2 A1 10  01 2B E2 A1 10 01 B1 80  .........+......
0FA0: 23 66 2E 80 E3 A1 10 01  E3 A1 10 01 67 6B 72 31  #f..........gkr1
0FB0: 52 22 80 F8 FF FF 7F F8  FF FF 7F 73 31 31 39 45  R".........s119E
0FC0: 22 80 F8 FF FF 7F F8 FF  FF 7F 73 31 32 30 01 80  ".........s120..
0FD0: 2B E4 A1 10 01 B2 80 23  4A E2 A1 10 01 E4 A1 10  +......#J.......
0FE0: 01 4A E3 A1 10 01 E4 A1  10 01 7B E2 A1 10 01 1C  .J........{.....
0FF0: 46 80 52 22 80 F8 FF FF  7F F8 FF FF 7F 73 31 32  F.R".........s12
1000: 30 45 22 80 F8 FF FF 7F  F8 FF FF 7F 73 31 32 31  0E".........s121
1010: 01 80 6E E3 A1 10 01 74  80 99 E3 A1 10 01 6E E2  ..n....t......n.
1020: A1 10 01 74 80 99 E2 A1  10 01 4A F0 FF FF 7F E4  ...t......J.....
1030: A1 10 01 4A E1 A1 10 01  E4 A1 10 01 2B E2 A1 10  ...J........+...
1040: 01 B3 80 23 52 22 80 F8  FF FF 7F F8 FF FF 7F 73  ...#R".........s
1050: 31 32 31 45 22 80 F8 FF  FF 7F F8 FF FF 7F 73 31  121E".........s1
1060: 32 32 01 80 1C 23 80 BA  E4 A1 10 01 B4 80 B5 80  22...#..........
1070: AD 80 B6 80 BA EC A1 10  01 B4 80 B5 80 AD 80 B6  ................
1080: 80 80 E4 A1 10 01 80 EC  A1 10 01 2B E3 A1 10 01  ...........+....
1090: B7 80 23 52 22 80 F8 FF  FF 7F F8 FF FF 7F 73 31  ..#R".........s1
10A0: 32 32 45 22 80 F8 FF FF  7F F8 FF FF 7F 73 31 32  22E".........s12
10B0: 33 01 80 66 30 80 E2 A1  10 01 E2 A1 10 01 74 68  3..f0.........th
10C0: 6B 31 2B E2 A1 10 01 B8  80 23 52 22 80 F8 FF FF  k1+......#R"....
10D0: 7F F8 FF FF 7F 73 31 32  33 45 22 80 F8 FF FF 7F  .....s123E".....
10E0: F8 FF FF 7F 73 31 32 34  01 80 79 00 E1 A1 10 01  ....s124..y.....
10F0: E2 A1 10 01 66 B9 80 E1  A1 10 01 E1 A1 10 01 74  ....f..........t
1100: 6C 6B 30 2B E1 A1 10 01  BA 80 23 4A E3 A1 10 01  lk0+......#J....
1110: E1 A1 10 01 66 B9 80 E1  A1 10 01 E1 A1 10 01 74  ....f..........t
1120: 6C 6B 31 66 30 80 E2 A1  10 01 E2 A1 10 01 74 68  lk1f0.........th
1130: 6B 32 52 22 80 F8 FF FF  7F F8 FF FF 7F 73 31 32  k2R".........s12
1140: 34 45 22 80 F8 FF FF 7F  F8 FF FF 7F 73 31 32 35  4E".........s125
1150: 01 80 1C BB 80 4A E2 A1  10 01 E1 A1 10 01 1C 46  .....J.........F
1160: 80 79 00 F0 FF FF 7F E2  A1 10 01 66 30 80 E2 A1  .y.........f0...
1170: 10 01 E2 A1 10 01 74 6C  6B 30 2B E2 A1 10 01 BC  ......tlk0+.....
1180: 80 23 52 22 80 F8 FF FF  7F F8 FF FF 7F 73 31 32  .#R".........s12
1190: 35 45 22 80 F8 FF FF 7F  F8 FF FF 7F 73 31 32 36  5E".........s126
11A0: 01 80 66 30 80 E2 A1 10  01 E2 A1 10 01 74 6C 6B  ..f0.........tlk
11B0: 31 2B E2 A1 10 01 BD 80  23 52 22 80 F8 FF FF 7F  1+......#R".....
11C0: F8 FF FF 7F 73 31 32 36  45 22 80 F8 FF FF 7F F8  ....s126E"......
11D0: FF FF 7F 73 31 32 37 01  80 1C 23 80 6B 69 64 6C  ...s127...#.kidl
11E0: 30 E4 A1 10 01 4E 01 EC  A1 10 01 2B E1 A1 10 01  0....N.....+....
11F0: BE 80 23 52 22 80 F8 FF  FF 7F F8 FF FF 7F 73 31  ..#R".........s1
1200: 32 37 45 22 80 F8 FF FF  7F F8 FF FF 7F 73 31 32  27E".........s12
1210: 38 01 80 73 BF 80 E2 A1  10 01 E2 A1 10 01 1C 46  8..s...........F
1220: 80 73 BF 80 E3 A1 10 01  E3 A1 10 01 1C 46 80 73  .s...........F.s
1230: BF 80 E4 A1 10 01 E4 A1  10 01 1C 84 80 52 22 80  .............R".
1240: F8 FF FF 7F F8 FF FF 7F  73 31 32 38 45 22 80 F8  ........s128E"..
1250: FF FF 7F F8 FF FF 7F 73  31 32 39 01 80 1C 32 80  .......s129...2.
1260: 52 22 80 F8 FF FF 7F F8  FF FF 7F 73 31 32 39 45  R".........s129E
1270: 22 80 F8 FF FF 7F F8 FF  FF 7F 73 31 33 30 01 80  ".........s130..
1280: 2B E1 A1 10 01 C0 80 23  52 22 80 F8 FF FF 7F F8  +......#R"......
1290: FF FF 7F 73 31 33 30 45  22 80 F8 FF FF 7F F8 FF  ...s130E".......
12A0: FF 7F 73 31 33 31 01 80  4A E1 A1 10 01 F0 FF FF  ..s131..J.......
12B0: 7F 1C 46 80 6E E1 A1 10  01 86 80 99 E1 A1 10 01  ..F.n...........
12C0: 4A F0 FF FF 7F E1 A1 10  01 2B E1 A1 10 01 C1 80  J........+......
12D0: 23 66 C2 80 E1 A1 10 01  E1 A1 10 01 70 61 73 30  #f..........pas0
12E0: 2B E1 A1 10 01 C3 80 23  53 E1 A1 10 01 E1 A1 10  +......#S.......
12F0: 01 70 61 73 30 52 22 80  F8 FF FF 7F F8 FF FF 7F  .pas0R".........
1300: 73 31 33 31 45 22 80 F8  FF FF 7F F8 FF FF 7F 73  s131E".........s
1310: 31 33 32 01 80 66 B9 80  E1 A1 10 01 E1 A1 10 01  132..f..........
1320: 74 6C 6B 30 2B E1 A1 10  01 C4 80 23 2B E1 A1 10  tlk0+......#+...
1330: 01 C5 80 23 66 B9 80 E1  A1 10 01 E1 A1 10 01 74  ...#f..........t
1340: 6C 6B 31 52 22 80 F8 FF  FF 7F F8 FF FF 7F 73 31  lk1R".........s1
1350: 33 32 45 22 80 F8 FF FF  7F F8 FF FF 7F 73 31 33  32E".........s13
1360: 33 01 80 BB 8F 80 E1 A1  10 01 E1 A1 10 01 6D 61  3.............ma
1370: 69 6E 01 80 1C 24 80 45  00 80 F8 FF FF 7F F8 FF  in...$.E........
1380: FF 7F 66 64 6F 31 01 80  55 00 80 F8 FF FF 7F F8  ..fdo1..U.......
1390: FF FF 7F 66 64 6F 31 52  22 80 F8 FF FF 7F F8 FF  ...fdo1R".......
13A0: FF 7F 73 31 33 33 6B 69  64 6C 30 E5 A1 10 01 27  ..s133kidl0....'
13B0: 05 E5 A1 10 01 05 4E 00  E5 A1 10 01 BA E5 A1 10  ......N.........
13C0: 01 C6 80 C7 80 C8 80 C9  80 BA E6 A1 10 01 CA 80  ................
13D0: CB 80 CC 80 CD 80 80 E5  A1 10 01 80 E6 A1 10 01  ................
13E0: 1C 46 80 5B CE 80 E5 A1  10 01 E5 A1 10 01 67 79  .F.[..........gy
13F0: 6F 30 45 22 80 F8 FF FF  7F F8 FF FF 7F 73 31 33  o0E".........s13
1400: 34 01 80 1C 23 80 45 00  80 F8 FF FF 7F F8 FF FF  4...#.E.........
1410: 7F 66 64 69 31 01 80 5B  CE 80 E5 A1 10 01 E5 A1  .fdi1..[........
1420: 10 01 67 79 6F 31 2B E5  A1 10 01 CF 80 23 5B 7A  ..gyo1+......#[z
1430: 80 E6 A1 10 01 E6 A1 10  01 74 6C 6B 30 2B E6 A1  .........tlk0+..
1440: 10 01 D0 80 23 5B 7A 80  E6 A1 10 01 E6 A1 10 01  ....#[z.........
1450: 74 6C 6B 31 52 22 80 F8  FF FF 7F F8 FF FF 7F 73  tlk1R".........s
1460: 31 33 34 45 22 80 F8 FF  FF 7F F8 FF FF 7F 73 31  134E".........s1
1470: 33 35 01 80 2B E5 A1 10  01 D1 80 23 5B 7A 80 E6  35..+......#[z..
1480: A1 10 01 E6 A1 10 01 74  6C 6B 30 2B E6 A1 10 01  .......tlk0+....
1490: D2 80 23 5B 7A 80 E6 A1  10 01 E6 A1 10 01 74 6C  ..#[z.........tl
14A0: 6B 31 52 22 80 F8 FF FF  7F F8 FF FF 7F 73 31 33  k1R".........s13
14B0: 35 45 22 80 F8 FF FF 7F  F8 FF FF 7F 73 31 33 36  5E".........s136
14C0: 01 80 5B CE 80 E5 A1 10  01 E5 A1 10 01 67 79 6F  ..[..........gyo
14D0: 32 2B E5 A1 10 01 D3 80  23 52 22 80 F8 FF FF 7F  2+......#R".....
14E0: F8 FF FF 7F 73 31 33 36  45 22 80 F8 FF FF 7F F8  ....s136E"......
14F0: FF FF 7F 73 31 33 37 01  80 2B E6 A1 10 01 D4 80  ...s137..+......
1500: 23 45 00 80 F8 FF FF 7F  F8 FF FF 7F 66 64 6F 31  #E..........fdo1
1510: 01 80 55 00 80 F8 FF FF  7F F8 FF FF 7F 66 64 6F  ..U..........fdo
1520: 31 52 22 80 F8 FF FF 7F  F8 FF FF 7F 73 31 33 37  1R".........s137
1530: 27 05 E5 A1 10 01 06 1C  46 80 45 51 80 F8 FF FF  '.......F.EQ....
1540: 7F F8 FF FF 7F 71 73 74  63 01 80 1C 46 80 46 00  .....qstc...F.F.
1550: 45 00 80 F8 FF FF 7F F8  FF FF 7F 66 64 69 32 01  E..........fdi2.
1560: 80 21 00                                          .!.             
```

#### Opcodes

```
  0: 0x0001 [0x42] SET_CLI_EVENT_CANCEL_DATA()
  1: 0x0002 [0x45] LOAD_SCHEDULED_TASK: Load scheduler "fdo1" with entities [EventEntity, EventEntity], work=[200*, 0*]
  2: 0x0013 [0x55] WAIT_LOAD_SCHEDULER: Wait for scheduler "fdo1" with entities [EventEntity, EventEntity], work=200*
  3: 0x0022 [0x46] CAMERA_CONTROL: Disable user control
  4: 0x0024 [0x38] SET_CLIENT_EVENT_MODE(mode=19*)
  5: 0x0027 [0x4E] SET_ENTITY_HIDE_FLAG: Hide LocalPlayer
  6: 0x002D [0x2F] Soraa Ishakal (ID: 17867234/0x0110A1E2)->Render.Flags0 &= ~0x80000 // Bit 19
  7: 0x0033 [0x2F] Zunmimi (ID: 17867235/0x0110A1E3)->Render.Flags0 &= ~0x80000 // Bit 19
  8: 0x0039 [0x2F] Melisandra (ID: 17867236/0x0110A1E4)->Render.Flags0 &= ~0x80000 // Bit 19
  9: 0x003F [0x2F] Gramk-Droog (ID: 17867237/0x0110A1E5)->Render.Flags0 &= ~0x80000 // Bit 19
 10: 0x0045 [0x2F] Unnamed NPC (ID: 17867239/0x0110A1E7)->Render.Flags0 &= ~0x80000 // Bit 19
 11: 0x004B [0x2F] Unnamed NPC (ID: 17867240/0x0110A1E8)->Render.Flags0 &= ~0x80000 // Bit 19
 12: 0x0051 [0x2F] Unnamed NPC (ID: 17867241/0x0110A1E9)->Render.Flags0 &= ~0x80000 // Bit 19
 13: 0x0057 [0x2F] Unnamed NPC (ID: 17867242/0x0110A1EA)->Render.Flags0 &= ~0x80000 // Bit 19
 14: 0x005D [0x4E] SET_ENTITY_HIDE_FLAG: Show Soraa Ishakal (ID: 17867234/0x0110A1E2)
 15: 0x0063 [0x4E] SET_ENTITY_HIDE_FLAG: Show Zunmimi (ID: 17867235/0x0110A1E3)
 16: 0x0069 [0x4E] SET_ENTITY_HIDE_FLAG: Show Melisandra (ID: 17867236/0x0110A1E4)
 17: 0x006F [0x4E] SET_ENTITY_HIDE_FLAG: Show Gramk-Droog (ID: 17867237/0x0110A1E5)
 18: 0x0075 [0x4E] SET_ENTITY_HIDE_FLAG: Show Unnamed NPC (ID: 17867239/0x0110A1E7)
 19: 0x007B [0x4E] SET_ENTITY_HIDE_FLAG: Show Unnamed NPC (ID: 17867240/0x0110A1E8)
 20: 0x0081 [0x4E] SET_ENTITY_HIDE_FLAG: Show Unnamed NPC (ID: 17867241/0x0110A1E9)
 21: 0x0087 [0x4E] SET_ENTITY_HIDE_FLAG: Show Unnamed NPC (ID: 17867242/0x0110A1EA)
 22: 0x008D [0x92] Soraa Ishakal (ID: 17867234/0x0110A1E2)->Render.Flags3 ^= 0x01
 23: 0x0093 [0x92] Zunmimi (ID: 17867235/0x0110A1E3)->Render.Flags3 ^= 0x01
 24: 0x0099 [0x92] Melisandra (ID: 17867236/0x0110A1E4)->Render.Flags3 ^= 0x01
 25: 0x009F [0x92] Gramk-Droog (ID: 17867237/0x0110A1E5)->Render.Flags3 ^= 0x01
 26: 0x00A5 [0x94] Soraa Ishakal (ID: 17867234/0x0110A1E2)->Render.Flags3 ^= 0x01
 27: 0x00AB [0x94] Zunmimi (ID: 17867235/0x0110A1E3)->Render.Flags3 ^= 0x01
 28: 0x00B1 [0x94] Melisandra (ID: 17867236/0x0110A1E4)->Render.Flags3 ^= 0x01
 29: 0x00B7 [0x94] Gramk-Droog (ID: 17867237/0x0110A1E5)->Render.Flags3 ^= 0x01
 30: 0x00BD [0x94] Unnamed NPC (ID: 17867239/0x0110A1E7)->Render.Flags3 ^= 0x01
 31: 0x00C3 [0x94] Unnamed NPC (ID: 17867240/0x0110A1E8)->Render.Flags3 ^= 0x01
 32: 0x00C9 [0x94] Unnamed NPC (ID: 17867241/0x0110A1E9)->Render.Flags3 ^= 0x01
 33: 0x00CF [0x94] Unnamed NPC (ID: 17867242/0x0110A1EA)->Render.Flags3 ^= 0x01
 34: 0x00D5 [0xBA] SET_ENTITY_POSITION(entity_id=Soraa Ishakal (ID: 17867234/0x0110A1E2), pos_x=95.076*, pos_z=-119.810*, pos_y=20.694*, direction=200.7*)
 35: 0x00E2 [0xBA] SET_ENTITY_POSITION(entity_id=Zunmimi (ID: 17867235/0x0110A1E3), pos_x=94.586*, pos_z=-121.029*, pos_y=20.654*, direction=219.6*)
 36: 0x00EF [0xBA] SET_ENTITY_POSITION(entity_id=Melisandra (ID: 17867236/0x0110A1E4), pos_x=95.478*, pos_z=-121.655*, pos_y=20.744*, direction=219.6*)
 37: 0x00FC [0xBA] SET_ENTITY_POSITION(entity_id=Gramk-Droog (ID: 17867237/0x0110A1E5), pos_x=64.531*, pos_z=-85.466*, pos_y=20.328*, direction=48.4*)
 38: 0x0109 [0xBA] SET_ENTITY_POSITION(entity_id=Unnamed NPC (ID: 17867239/0x0110A1E7), pos_x=75.138*, pos_z=-96.937*, pos_y=20.603*, direction=86.8*)
 39: 0x0116 [0xBA] SET_ENTITY_POSITION(entity_id=Unnamed NPC (ID: 17867240/0x0110A1E8), pos_x=50.723*, pos_z=-87.081*, pos_y=20.246*, direction=218.0*)
 40: 0x0123 [0xBA] SET_ENTITY_POSITION(entity_id=Unnamed NPC (ID: 17867241/0x0110A1E9), pos_x=66.260*, pos_z=-97.119*, pos_y=20.919*, direction=270.9*)
 41: 0x0130 [0xBA] SET_ENTITY_POSITION(entity_id=Unnamed NPC (ID: 17867242/0x0110A1EA), pos_x=73.676*, pos_z=-107.861*, pos_y=20.717*, direction=295.3*)
 42: 0x013D [0x80] LOAD_WAIT(entity=Soraa Ishakal (ID: 17867234/0x0110A1E2))
 43: 0x0142 [0x80] LOAD_WAIT(entity=Zunmimi (ID: 17867235/0x0110A1E3))
 44: 0x0147 [0x80] LOAD_WAIT(entity=Melisandra (ID: 17867236/0x0110A1E4))
 45: 0x014C [0x80] LOAD_WAIT(entity=Gramk-Droog (ID: 17867237/0x0110A1E5))
 46: 0x0151 [0x80] LOAD_WAIT(entity=Unnamed NPC (ID: 17867239/0x0110A1E7))
 47: 0x0156 [0x80] LOAD_WAIT(entity=Unnamed NPC (ID: 17867240/0x0110A1E8))
 48: 0x015B [0x80] LOAD_WAIT(entity=Unnamed NPC (ID: 17867241/0x0110A1E9))
 49: 0x0160 [0x80] LOAD_WAIT(entity=Unnamed NPC (ID: 17867242/0x0110A1EA))
 50: 0x0165 [0x27] REQ_SET(priority=0x05, entity_id=Soraa Ishakal (ID: 17867234/0x0110A1E2), tag_num=0x04)
 51: 0x016C [0x27] REQ_SET(priority=0x05, entity_id=Zunmimi (ID: 17867235/0x0110A1E3), tag_num=0x06)
 52: 0x0173 [0x27] REQ_SET(priority=0x05, entity_id=Melisandra (ID: 17867236/0x0110A1E4), tag_num=0x05)
 53: 0x017A [0x27] REQ_SET(priority=0x05, entity_id=Unnamed NPC (ID: 17867241/0x0110A1E9), tag_num=0x02)
 54: 0x0181 [0x27] REQ_SET(priority=0x05, entity_id=Unnamed NPC (ID: 17867239/0x0110A1E7), tag_num=0x02)
 55: 0x0188 [0x45] LOAD_SCHEDULED_TASK: Load scheduler "s080" with entities [EventEntity, EventEntity], work=[629*, 0*]
 56: 0x0199 [0x1C] WAIT(15* ticks)
 57: 0x019C [0x45] LOAD_SCHEDULED_TASK: Load scheduler "fdi1" with entities [EventEntity, EventEntity], work=[200*, 0*]
 58: 0x01AD [0x1C] WAIT(180* ticks)
 59: 0x01B0 [0x45] LOAD_SCHEDULED_TASK: Load scheduler "ovl1" with entities [LocalPlayer, LocalPlayer], work=[200*, 0*]
 60: 0x01C1 [0x52] END_LOAD_SCHEDULER: End scheduler "s080" with entities [EventEntity, EventEntity], work=629*
 61: 0x01D0 [0x45] LOAD_SCHEDULED_TASK: Load scheduler "s081" with entities [EventEntity, EventEntity], work=[629*, 0*]
 62: 0x01E1 [0x1C] WAIT(180* ticks)
 63: 0x01E4 [0x52] END_LOAD_SCHEDULER: End scheduler "s081" with entities [EventEntity, EventEntity], work=629*
 64: 0x01F3 [0x45] LOAD_SCHEDULED_TASK: Load scheduler "s082" with entities [EventEntity, EventEntity], work=[629*, 0*]
 65: 0x0204 [0x2B] Soraa Ishakal (ID: 17867234/0x0110A1E2) [7947*]:
     "I don't see any sign of Grrramk-Droog..."
 66: 0x020B [0x23] WAIT_FOR_DIALOG_INTERACTION
 67: 0x020C [0x52] END_LOAD_SCHEDULER: End scheduler "s082" with entities [EventEntity, EventEntity], work=629*
 68: 0x021B [0x45] LOAD_SCHEDULED_TASK: Load scheduler "s083" with entities [EventEntity, EventEntity], work=[629*, 0*]
 69: 0x022C [0x27] REQ_SET(priority=0x05, entity_id=Soraa Ishakal (ID: 17867234/0x0110A1E2), tag_num=0x05)
 70: 0x0233 [0x27] REQ_SET(priority=0x05, entity_id=Zunmimi (ID: 17867235/0x0110A1E3), tag_num=0x07)
 71: 0x023A [0x27] REQ_SET(priority=0x05, entity_id=Melisandra (ID: 17867236/0x0110A1E4), tag_num=0x06)
 72: 0x0241 [0x73] Soraa Ishakal (ID: 17867234/0x0110A1E2) casts magic 269* on Gramk-Droog (ID: 17867237/0x0110A1E5)
 73: 0x024C [0x1C] WAIT(120* ticks)
 74: 0x024F [0x52] END_LOAD_SCHEDULER: End scheduler "s083" with entities [EventEntity, EventEntity], work=629*
 75: 0x025E [0x45] LOAD_SCHEDULED_TASK: Load scheduler "s084" with entities [EventEntity, EventEntity], work=[629*, 0*]
 76: 0x026F [0x4A] Unnamed NPC (ID: 17867242/0x0110A1EA) looks at Soraa Ishakal (ID: 17867234/0x0110A1E2)
 77: 0x0278 [0x1C] WAIT(15* ticks)
 78: 0x027B [0xBA] SET_ENTITY_POSITION(entity_id=Melisandra (ID: 17867236/0x0110A1E4), pos_x=95.980*, pos_z=-121.133*, pos_y=20.795*, direction=219.6*)
 79: 0x0288 [0x4A] Unnamed NPC (ID: 17867239/0x0110A1E7) looks at Soraa Ishakal (ID: 17867234/0x0110A1E2)
 80: 0x0291 [0x73] Zunmimi (ID: 17867235/0x0110A1E3) casts magic 269* on Unnamed NPC (ID: 17867239/0x0110A1E7)
 81: 0x029C [0x73] Melisandra (ID: 17867236/0x0110A1E4) casts magic 269* on Unnamed NPC (ID: 17867242/0x0110A1EA)
 82: 0x02A7 [0x1C] WAIT(50* ticks)
 83: 0x02AA [0x52] END_LOAD_SCHEDULER: End scheduler "s084" with entities [EventEntity, EventEntity], work=629*
 84: 0x02B9 [0x45] LOAD_SCHEDULED_TASK: Load scheduler "s085" with entities [EventEntity, EventEntity], work=[629*, 0*]
 85: 0x02CA [0x1C] WAIT(160* ticks)
 86: 0x02CD [0x52] END_LOAD_SCHEDULER: End scheduler "s085" with entities [EventEntity, EventEntity], work=629*
 87: 0x02DC [0x45] LOAD_SCHEDULED_TASK: Load scheduler "s086" with entities [EventEntity, EventEntity], work=[629*, 0*]
 88: 0x02ED [0x2B] Melisandra (ID: 17867236/0x0110A1E4) [7948*]:
     "Don't let the bedbugs bite."
 89: 0x02F4 [0x23] WAIT_FOR_DIALOG_INTERACTION
 90: 0x02F5 [0x4A] Soraa Ishakal (ID: 17867234/0x0110A1E2) looks at Melisandra (ID: 17867236/0x0110A1E4)
 91: 0x02FE [0x66] LOAD_EXT_SCHEDULER_MAIN: Load scheduler "dis0" with entities [Zunmimi (ID: 17867235/0x0110A1E3), Zunmimi (ID: 17867235/0x0110A1E3)], work=40*
 92: 0x030D [0x2B] Zunmimi (ID: 17867235/0x0110A1E3) [7949*]:
     "How're we supposed to testaru our skills if they won't even station mages around their leader's lair?"
 93: 0x0314 [0x23] WAIT_FOR_DIALOG_INTERACTION
 94: 0x0315 [0x52] END_LOAD_SCHEDULER: End scheduler "s086" with entities [EventEntity, EventEntity], work=629*
 95: 0x0324 [0x45] LOAD_SCHEDULED_TASK: Load scheduler "s087" with entities [EventEntity, EventEntity], work=[629*, 0*]
 96: 0x0335 [0x66] LOAD_EXT_SCHEDULER_MAIN: Load scheduler "tlk0" with entities [Soraa Ishakal (ID: 17867234/0x0110A1E2), Soraa Ishakal (ID: 17867234/0x0110A1E2)], work=59*
 97: 0x0344 [0x4A] Zunmimi (ID: 17867235/0x0110A1E3) looks at Soraa Ishakal (ID: 17867234/0x0110A1E2)
 98: 0x034D [0x2B] Soraa Ishakal (ID: 17867234/0x0110A1E2) [7950*]:
     "According to my gabby guards, there should be a secret door behind the ruler's thrrrone."
 99: 0x0354 [0x23] WAIT_FOR_DIALOG_INTERACTION
100: 0x0355 [0x66] LOAD_EXT_SCHEDULER_MAIN: Load scheduler "tlk1" with entities [Soraa Ishakal (ID: 17867234/0x0110A1E2), Soraa Ishakal (ID: 17867234/0x0110A1E2)], work=59*
101: 0x0364 [0x52] END_LOAD_SCHEDULER: End scheduler "s087" with entities [EventEntity, EventEntity], work=629*
102: 0x0373 [0x45] LOAD_SCHEDULED_TASK: Load scheduler "s088" with entities [EventEntity, EventEntity], work=[629*, 0*]
103: 0x0384 [0x27] REQ_SET(priority=0x05, entity_id=Soraa Ishakal (ID: 17867234/0x0110A1E2), tag_num=0x06)
104: 0x038B [0x1C] WAIT(150* ticks)
105: 0x038E [0x5D] SET_MUSIC_VOLUME(volume=0*, fade_time=120*)
106: 0x0393 [0x45] LOAD_SCHEDULED_TASK: Load scheduler "fdo1" with entities [EventEntity, EventEntity], work=[200*, 0*]
107: 0x03A4 [0x55] WAIT_LOAD_SCHEDULER: Wait for scheduler "fdo1" with entities [EventEntity, EventEntity], work=200*
108: 0x03B3 [0x52] END_LOAD_SCHEDULER: End scheduler "s088" with entities [EventEntity, EventEntity], work=629*
109: 0x03C2 [0x7A] VM_CONTROL: Reset VM for Soraa Ishakal (ID: 17867234/0x0110A1E2)
110: 0x03C8 [0x2F] Unnamed NPC (ID: 17867243/0x0110A1EB)->Render.Flags0 &= ~0x80000 // Bit 19
111: 0x03CE [0x2F] Unnamed NPC (ID: 17867244/0x0110A1EC)->Render.Flags0 &= ~0x80000 // Bit 19
112: 0x03D4 [0x4E] SET_ENTITY_HIDE_FLAG: Show Unnamed NPC (ID: 17867243/0x0110A1EB)
113: 0x03DA [0x4E] SET_ENTITY_HIDE_FLAG: Show Unnamed NPC (ID: 17867244/0x0110A1EC)
114: 0x03E0 [0x94] Unnamed NPC (ID: 17867243/0x0110A1EB)->Render.Flags3 ^= 0x01
115: 0x03E6 [0x94] Unnamed NPC (ID: 17867244/0x0110A1EC)->Render.Flags3 ^= 0x01
116: 0x03EC [0x4E] SET_ENTITY_HIDE_FLAG: Hide Gramk-Droog (ID: 17867237/0x0110A1E5)
117: 0x03F2 [0xBA] SET_ENTITY_POSITION(entity_id=Unnamed NPC (ID: 17867243/0x0110A1EB), pos_x=61.963*, pos_z=-69.974*, pos_y=17.336*, direction=86.1*)
118: 0x03FF [0xBA] SET_ENTITY_POSITION(entity_id=Unnamed NPC (ID: 17867244/0x0110A1EC), pos_x=61.963*, pos_z=-69.974*, pos_y=17.336*, direction=86.1*)
119: 0x040C [0xBA] SET_ENTITY_POSITION(entity_id=Soraa Ishakal (ID: 17867234/0x0110A1E2), pos_x=61.949*, pos_z=-70.847*, pos_y=17.392*, direction=276.1*)
120: 0x0419 [0xBA] SET_ENTITY_POSITION(entity_id=Zunmimi (ID: 17867235/0x0110A1E3), pos_x=61.060*, pos_z=-70.713*, pos_y=17.322*, direction=259.6*)
121: 0x0426 [0xBA] SET_ENTITY_POSITION(entity_id=Melisandra (ID: 17867236/0x0110A1E4), pos_x=63.118*, pos_z=-71.331*, pos_y=17.075*, direction=259.6*)
122: 0x0433 [0xBA] SET_ENTITY_POSITION(entity_id=Gramk-Droog (ID: 17867237/0x0110A1E5), pos_x=62.112*, pos_z=-73.686*, pos_y=18.237*, direction=265.2*)
123: 0x0440 [0x80] LOAD_WAIT(entity=Unnamed NPC (ID: 17867243/0x0110A1EB))
124: 0x0445 [0x80] LOAD_WAIT(entity=Unnamed NPC (ID: 17867244/0x0110A1EC))
125: 0x044A [0x80] LOAD_WAIT(entity=Soraa Ishakal (ID: 17867234/0x0110A1E2))
126: 0x044F [0x80] LOAD_WAIT(entity=Zunmimi (ID: 17867235/0x0110A1E3))
127: 0x0454 [0x80] LOAD_WAIT(entity=Melisandra (ID: 17867236/0x0110A1E4))
128: 0x0459 [0x4A] Soraa Ishakal (ID: 17867234/0x0110A1E2) looks at Unnamed NPC (ID: 17867244/0x0110A1EC)
129: 0x0462 [0x4A] Zunmimi (ID: 17867235/0x0110A1E3) looks at Unnamed NPC (ID: 17867244/0x0110A1EC)
130: 0x046B [0x4A] Melisandra (ID: 17867236/0x0110A1E4) looks at Unnamed NPC (ID: 17867244/0x0110A1EC)
131: 0x0474 [0x1C] WAIT(30* ticks)
132: 0x0477 [0x5B] LOAD_EXT_SCHEDULER: Load scheduler "btl0" with entities [Gramk-Droog (ID: 17867237/0x0110A1E5), Gramk-Droog (ID: 17867237/0x0110A1E5)], work=3326*
133: 0x0486 [0x2C] CREATE_SCHEDULER_TASK: Create scheduler "open" with entities [Unnamed NPC (ID: 17867243/0x0110A1EB), Unnamed NPC (ID: 17867243/0x0110A1EB)]
134: 0x0493 [0x5B] LOAD_EXT_SCHEDULER: Load scheduler "box0" with entities [Unnamed NPC (ID: 17867244/0x0110A1EC), Unnamed NPC (ID: 17867244/0x0110A1EC)], work=3415*
135: 0x04A2 [0x1C] WAIT(60* ticks)
136: 0x04A5 [0x45] LOAD_SCHEDULED_TASK: Load scheduler "s089" with entities [EventEntity, EventEntity], work=[629*, 0*]
137: 0x04B6 [0x1C] WAIT(15* ticks)
138: 0x04B9 [0x45] LOAD_SCHEDULED_TASK: Load scheduler "fdi1" with entities [EventEntity, EventEntity], work=[200*, 0*]
139: 0x04CA [0x1C] WAIT(120* ticks)
140: 0x04CD [0x52] END_LOAD_SCHEDULER: End scheduler "s089" with entities [EventEntity, EventEntity], work=629*
141: 0x04DC [0x45] LOAD_SCHEDULED_TASK: Load scheduler "s090" with entities [EventEntity, EventEntity], work=[629*, 0*]
142: 0x04ED [0x2B] Zunmimi (ID: 17867235/0x0110A1E3) [7951*]:
     "So this is what they were hiding-widing..."
143: 0x04F4 [0x23] WAIT_FOR_DIALOG_INTERACTION
144: 0x04F5 [0x52] END_LOAD_SCHEDULER: End scheduler "s090" with entities [EventEntity, EventEntity], work=629*
145: 0x0504 [0x45] LOAD_SCHEDULED_TASK: Load scheduler "s091" with entities [EventEntity, EventEntity], work=[629*, 0*]
146: 0x0515 [0x2B] Melisandra (ID: 17867236/0x0110A1E4) [7952*]:
     "It's beautiful..."
147: 0x051C [0x23] WAIT_FOR_DIALOG_INTERACTION
148: 0x051D [0x4E] SET_ENTITY_HIDE_FLAG: Show Gramk-Droog (ID: 17867237/0x0110A1E5)
149: 0x0523 [0x80] LOAD_WAIT(entity=Gramk-Droog (ID: 17867237/0x0110A1E5))
150: 0x0528 [0x5C] MUSIC_CONTROL: Set Idle (Day) music to song 57*
151: 0x052C [0x5C] MUSIC_CONTROL: Set Idle (Night) music to song 57*
152: 0x0530 [0x9A] WAIT_MUSIC_SERVER()
153: 0x0531 [0x52] END_LOAD_SCHEDULER: End scheduler "s091" with entities [EventEntity, EventEntity], work=629*
154: 0x0540 [0x45] LOAD_SCHEDULED_TASK: Load scheduler "s092" with entities [EventEntity, EventEntity], work=[629*, 0*]
155: 0x0551 [0x4A] Soraa Ishakal (ID: 17867234/0x0110A1E2) looks at Gramk-Droog (ID: 17867237/0x0110A1E5)
156: 0x055A [0x2B] Soraa Ishakal (ID: 17867234/0x0110A1E2) [7953*]:
     "Drrrat!"
157: 0x0561 [0x1C] WAIT(30* ticks)
158: 0x0564 [0x5B] LOAD_EXT_SCHEDULER: Load scheduler "hou0" with entities [Gramk-Droog (ID: 17867237/0x0110A1E5), Gramk-Droog (ID: 17867237/0x0110A1E5)], work=3385*
159: 0x0573 [0x1C] WAIT(10* ticks)
160: 0x0576 [0x52] END_LOAD_SCHEDULER: End scheduler "s092" with entities [EventEntity, EventEntity], work=629*
161: 0x0585 [0x45] LOAD_SCHEDULED_TASK: Load scheduler "s093" with entities [EventEntity, EventEntity], work=[629*, 0*]
162: 0x0596 [0x1C] WAIT(50* ticks)
163: 0x0599 [0x66] LOAD_EXT_SCHEDULER_MAIN: Load scheduler "mab0" with entities [Soraa Ishakal (ID: 17867234/0x0110A1E2), Soraa Ishakal (ID: 17867234/0x0110A1E2)], work=190*
164: 0x05A8 [0x52] END_LOAD_SCHEDULER: End scheduler "s093" with entities [EventEntity, EventEntity], work=629*
165: 0x05B7 [0x45] LOAD_SCHEDULED_TASK: Load scheduler "s094" with entities [EventEntity, EventEntity], work=[629*, 0*]
166: 0x05C8 [0x1C] WAIT(40* ticks)
167: 0x05CB [0x45] LOAD_SCHEDULED_TASK: Load scheduler "who0" with entities [LocalPlayer, LocalPlayer], work=[201*, 0*]
168: 0x05DC [0x55] WAIT_LOAD_SCHEDULER: Wait for scheduler "who0" with entities [LocalPlayer, LocalPlayer], work=201*
169: 0x05EB [0x55] WAIT_LOAD_SCHEDULER: Wait for scheduler "s094" with entities [EventEntity, EventEntity], work=629*
170: 0x05FA [0x6B] STOP_AND_IDLE: Gramk-Droog (ID: 17867237/0x0110A1E5) stops current action and resets to idle (animation="idl0")
171: 0x0603 [0x2F] Nashu (ID: 17867233/0x0110A1E1)->Render.Flags0 &= ~0x80000 // Bit 19
172: 0x0609 [0x2F] Mligni-Vorgut (ID: 17867238/0x0110A1E6)->Render.Flags0 &= ~0x80000 // Bit 19
173: 0x060F [0x4E] SET_ENTITY_HIDE_FLAG: Show Nashu (ID: 17867233/0x0110A1E1)
174: 0x0615 [0x92] Nashu (ID: 17867233/0x0110A1E1)->Render.Flags3 ^= 0x01
175: 0x061B [0x92] Mligni-Vorgut (ID: 17867238/0x0110A1E6)->Render.Flags3 ^= 0x01
176: 0x0621 [0x94] Nashu (ID: 17867233/0x0110A1E1)->Render.Flags3 ^= 0x01
177: 0x0627 [0x94] LocalPlayer->Render.Flags3 ^= 0x01
178: 0x062D [0x94] Mligni-Vorgut (ID: 17867238/0x0110A1E6)->Render.Flags3 ^= 0x01
179: 0x0633 [0x4E] SET_ENTITY_HIDE_FLAG: Show LocalPlayer
180: 0x0639 [0xBA] SET_ENTITY_POSITION(entity_id=Melisandra (ID: 17867236/0x0110A1E4), pos_x=63.635*, pos_z=-70.699*, pos_y=17.377*, direction=90.3*)
181: 0x0646 [0xBA] SET_ENTITY_POSITION(entity_id=Zunmimi (ID: 17867235/0x0110A1E3), pos_x=60.426*, pos_z=-70.858*, pos_y=17.387*, direction=90.3*)
182: 0x0653 [0xBA] SET_ENTITY_POSITION(entity_id=Nashu (ID: 17867233/0x0110A1E1), pos_x=61.743*, pos_z=-78.093*, pos_y=19.534*, direction=289.6*)
183: 0x0660 [0xBA] SET_ENTITY_POSITION(entity_id=LocalPlayer, pos_x=60.474*, pos_z=-77.376*, pos_y=19.439*, direction=289.5*)
184: 0x066D [0xBA] SET_ENTITY_POSITION(entity_id=Mligni-Vorgut (ID: 17867238/0x0110A1E6), pos_x=62.105*, pos_z=-91.163*, pos_y=20.740*, direction=271.0*)
185: 0x067A [0xBA] SET_ENTITY_POSITION(entity_id=Unnamed NPC (ID: 17867239/0x0110A1E7), pos_x=70.252*, pos_z=-87.854*, pos_y=20.111*, direction=289.6*)
186: 0x0687 [0xBA] SET_ENTITY_POSITION(entity_id=Unnamed NPC (ID: 17867240/0x0110A1E8), pos_x=55.943*, pos_z=-96.067*, pos_y=20.890*, direction=81.1*)
187: 0x0694 [0xBA] SET_ENTITY_POSITION(entity_id=Unnamed NPC (ID: 17867242/0x0110A1EA), pos_x=66.875*, pos_z=-93.267*, pos_y=20.601*, direction=81.1*)
188: 0x06A1 [0x80] LOAD_WAIT(entity=Nashu (ID: 17867233/0x0110A1E1))
189: 0x06A6 [0x80] LOAD_WAIT(entity=LocalPlayer)
190: 0x06AB [0x80] LOAD_WAIT(entity=Melisandra (ID: 17867236/0x0110A1E4))
191: 0x06B0 [0x80] LOAD_WAIT(entity=Zunmimi (ID: 17867235/0x0110A1E3))
192: 0x06B5 [0x80] LOAD_WAIT(entity=Unnamed NPC (ID: 17867239/0x0110A1E7))
193: 0x06BA [0x80] LOAD_WAIT(entity=Unnamed NPC (ID: 17867240/0x0110A1E8))
194: 0x06BF [0x80] LOAD_WAIT(entity=Unnamed NPC (ID: 17867242/0x0110A1EA))
195: 0x06C4 [0x1C] WAIT(30* ticks)
196: 0x06C7 [0x27] REQ_SET(priority=0x05, entity_id=LocalPlayer, tag_num=0x08)
197: 0x06CE [0x2C] CREATE_SCHEDULER_TASK: Create scheduler "dead" with entities [Gramk-Droog (ID: 17867237/0x0110A1E5), Gramk-Droog (ID: 17867237/0x0110A1E5)]
198: 0x06DB [0x66] LOAD_EXT_SCHEDULER_MAIN: Load scheduler "mab1" with entities [Nashu (ID: 17867233/0x0110A1E1), Nashu (ID: 17867233/0x0110A1E1)], work=140*
199: 0x06EA [0x45] LOAD_SCHEDULED_TASK: Load scheduler "s095" with entities [EventEntity, EventEntity], work=[629*, 0*]
200: 0x06FB [0x1C] WAIT(15* ticks)
201: 0x06FE [0x45] LOAD_SCHEDULED_TASK: Load scheduler "whi1" with entities [LocalPlayer, LocalPlayer], work=[201*, 0*]
202: 0x070F [0x1C] WAIT(60* ticks)
203: 0x0712 [0x66] LOAD_EXT_SCHEDULER_MAIN: Load scheduler "mab2" with entities [Soraa Ishakal (ID: 17867234/0x0110A1E2), Soraa Ishakal (ID: 17867234/0x0110A1E2)], work=190*
204: 0x0721 [0x2B] Soraa Ishakal (ID: 17867234/0x0110A1E2) [7954*]:
     "You two, huh? Well, it looks like our prrrayers have been answered."
205: 0x0728 [0x23] WAIT_FOR_DIALOG_INTERACTION
206: 0x0729 [0x52] END_LOAD_SCHEDULER: End scheduler "s095" with entities [EventEntity, EventEntity], work=629*
207: 0x0738 [0x45] LOAD_SCHEDULED_TASK: Load scheduler "s096" with entities [EventEntity, EventEntity], work=[629*, 0*]
208: 0x0749 [0x4A] Unnamed NPC (ID: 17867240/0x0110A1E8) looks at Soraa Ishakal (ID: 17867234/0x0110A1E2)
209: 0x0752 [0x1C] WAIT(15* ticks)
210: 0x0755 [0xBA] SET_ENTITY_POSITION(entity_id=Nashu (ID: 17867233/0x0110A1E1), pos_x=61.743*, pos_z=-78.093*, pos_y=19.534*, direction=90.3*)
211: 0x0762 [0xBA] SET_ENTITY_POSITION(entity_id=LocalPlayer, pos_x=60.474*, pos_z=-77.376*, pos_y=19.439*, direction=90.3*)
212: 0x076F [0x4B] UPDATE_ENTITY_YAW(entity=Unnamed NPC (ID: 17867242/0x0110A1EA), yaw=18.1*)
213: 0x0776 [0x1C] WAIT(50* ticks)
214: 0x0779 [0x52] END_LOAD_SCHEDULER: End scheduler "s096" with entities [EventEntity, EventEntity], work=629*
215: 0x0788 [0x45] LOAD_SCHEDULED_TASK: Load scheduler "s097" with entities [EventEntity, EventEntity], work=[629*, 0*]
216: 0x0799 [0x2B] Soraa Ishakal (ID: 17867234/0x0110A1E2) [7955*]:
     "How did these dull lunk-wunks wake up so fast!?"
217: 0x07A0 [0x23] WAIT_FOR_DIALOG_INTERACTION
218: 0x07A1 [0x73] Zunmimi (ID: 17867235/0x0110A1E3) casts magic 269* on Unnamed NPC (ID: 17867242/0x0110A1EA)
219: 0x07AC [0x52] END_LOAD_SCHEDULER: End scheduler "s097" with entities [EventEntity, EventEntity], work=629*
220: 0x07BB [0x45] LOAD_SCHEDULED_TASK: Load scheduler "s098" with entities [EventEntity, EventEntity], work=[629*, 0*]
221: 0x07CC [0x1C] WAIT(100* ticks)
222: 0x07CF [0x27] REQ_SET(priority=0x05, entity_id=Unnamed NPC (ID: 17867239/0x0110A1E7), tag_num=0x03)
223: 0x07D6 [0x27] REQ_SET(priority=0x05, entity_id=Unnamed NPC (ID: 17867240/0x0110A1E8), tag_num=0x02)
224: 0x07DD [0x1C] WAIT(5* ticks)
225: 0x07E0 [0x27] REQ_SET(priority=0x05, entity_id=Unnamed NPC (ID: 17867241/0x0110A1E9), tag_num=0x03)
226: 0x07E7 [0x27] REQ_SET(priority=0x05, entity_id=Unnamed NPC (ID: 17867242/0x0110A1EA), tag_num=0x02)
227: 0x07EE [0x1C] WAIT(15* ticks)
228: 0x07F1 [0x52] END_LOAD_SCHEDULER: End scheduler "s098" with entities [EventEntity, EventEntity], work=629*
229: 0x0800 [0x45] LOAD_SCHEDULED_TASK: Load scheduler "s099" with entities [EventEntity, EventEntity], work=[629*, 0*]
230: 0x0811 [0x1C] WAIT(120* ticks)
231: 0x0814 [0x52] END_LOAD_SCHEDULER: End scheduler "s099" with entities [EventEntity, EventEntity], work=629*
232: 0x0823 [0x45] LOAD_SCHEDULED_TASK: Load scheduler "s100" with entities [EventEntity, EventEntity], work=[629*, 0*]
233: 0x0834 [0x6E] Zunmimi (ID: 17867235/0x0110A1E3) uses emote 21*
234: 0x083B [0x99] Wait for Zunmimi (ID: 17867235/0x0110A1E3) animation to complete
235: 0x0840 [0x2B] Zunmimi (ID: 17867235/0x0110A1E3) [7956*]:
     "And now it doesn't even affectaru them!?"
236: 0x0847 [0x23] WAIT_FOR_DIALOG_INTERACTION
237: 0x0848 [0x4E] SET_ENTITY_HIDE_FLAG: Show Mligni-Vorgut (ID: 17867238/0x0110A1E6)
238: 0x084E [0x80] LOAD_WAIT(entity=Mligni-Vorgut (ID: 17867238/0x0110A1E6))
239: 0x0853 [0x79] Soraa Ishakal (ID: 17867234/0x0110A1E2) looks at Mligni-Vorgut (ID: 17867238/0x0110A1E6) (Basic look)
240: 0x085D [0x27] REQ_SET(priority=0x05, entity_id=Mligni-Vorgut (ID: 17867238/0x0110A1E6), tag_num=0x02)
241: 0x0864 [0x1C] WAIT(15* ticks)
242: 0x0867 [0x52] END_LOAD_SCHEDULER: End scheduler "s100" with entities [EventEntity, EventEntity], work=629*
243: 0x0876 [0x45] LOAD_SCHEDULED_TASK: Load scheduler "s101" with entities [EventEntity, EventEntity], work=[629*, 0*]
244: 0x0887 [0x1C] WAIT(120* ticks)
245: 0x088A [0x52] END_LOAD_SCHEDULER: End scheduler "s101" with entities [EventEntity, EventEntity], work=629*
246: 0x0899 [0x45] LOAD_SCHEDULED_TASK: Load scheduler "s102" with entities [EventEntity, EventEntity], work=[629*, 0*]
247: 0x08AA [0x2B] Mligni-Vorgut (ID: 17867238/0x0110A1E6) [7957*]:
     "Me know more than others. Thing like poison wake people. Me learn that from no-scales."
248: 0x08B1 [0x23] WAIT_FOR_DIALOG_INTERACTION
249: 0x08B2 [0x2A] GET_REQ_LEVEL(level=5, entity_id=Mligni-Vorgut (ID: 17867238/0x0110A1E6))
250: 0x08B8 [0x52] END_LOAD_SCHEDULER: End scheduler "s102" with entities [EventEntity, EventEntity], work=629*
251: 0x08C7 [0x45] LOAD_SCHEDULED_TASK: Load scheduler "s103" with entities [EventEntity, EventEntity], work=[629*, 0*]
252: 0x08D8 [0x2B] Soraa Ishakal (ID: 17867234/0x0110A1E2) [7958*]:
     "What!?"
253: 0x08DF [0x23] WAIT_FOR_DIALOG_INTERACTION
254: 0x08E0 [0x5B] LOAD_EXT_SCHEDULER: Load scheduler "btl0" with entities [Unnamed NPC (ID: 17867241/0x0110A1E9), Unnamed NPC (ID: 17867241/0x0110A1E9)], work=3326*
255: 0x08EF [0x2B] Melisandra (ID: 17867236/0x0110A1E4) [7959*]:
     "Taking poison to stay awake!? I thought only pioneers were stupid enough to do that!"
256: 0x08F6 [0x23] WAIT_FOR_DIALOG_INTERACTION
257: 0x08F7 [0x52] END_LOAD_SCHEDULER: End scheduler "s103" with entities [EventEntity, EventEntity], work=629*
258: 0x0906 [0x45] LOAD_SCHEDULED_TASK: Load scheduler "s104" with entities [EventEntity, EventEntity], work=[629*, 0*]
259: 0x0917 [0x66] LOAD_EXT_SCHEDULER_MAIN: Load scheduler "dis0" with entities [Zunmimi (ID: 17867235/0x0110A1E3), Zunmimi (ID: 17867235/0x0110A1E3)], work=40*
260: 0x0926 [0x2B] Zunmimi (ID: 17867235/0x0110A1E3) [7960*]:
     "Did you learn how to fake falling asleep from them as well? Color-wolor me impressed, Mligni-Vorgut."
261: 0x092D [0x23] WAIT_FOR_DIALOG_INTERACTION
262: 0x092E [0x52] END_LOAD_SCHEDULER: End scheduler "s104" with entities [EventEntity, EventEntity], work=629*
263: 0x093D [0x45] LOAD_SCHEDULED_TASK: Load scheduler "s105" with entities [EventEntity, EventEntity], work=[629*, 0*]
264: 0x094E [0x5B] LOAD_EXT_SCHEDULER: Load scheduler "tlk0" with entities [Mligni-Vorgut (ID: 17867238/0x0110A1E6), Mligni-Vorgut (ID: 17867238/0x0110A1E6)], work=3416*
265: 0x095D [0x2B] Mligni-Vorgut (ID: 17867238/0x0110A1E6) [7961*]:
     "So, witches try steal that. Perfect. You, unseal it."
266: 0x0964 [0x23] WAIT_FOR_DIALOG_INTERACTION
267: 0x0965 [0x2B] Soraa Ishakal (ID: 17867234/0x0110A1E2) [7962*]:
     "Unseal it...?"
268: 0x096C [0x23] WAIT_FOR_DIALOG_INTERACTION
269: 0x096D [0x52] END_LOAD_SCHEDULER: End scheduler "s105" with entities [EventEntity, EventEntity], work=629*
270: 0x097C [0x45] LOAD_SCHEDULED_TASK: Load scheduler "s106" with entities [EventEntity, EventEntity], work=[629*, 0*]
271: 0x098D [0x2B] Mligni-Vorgut (ID: 17867238/0x0110A1E6) [7963*]:
     "Magic sealed away. We no can unseal, so was useless."
272: 0x0994 [0x23] WAIT_FOR_DIALOG_INTERACTION
273: 0x0995 [0x6B] STOP_AND_IDLE: Soraa Ishakal (ID: 17867234/0x0110A1E2) stops current action and resets to idle (animation="idl0")
274: 0x099E [0x2B] Mligni-Vorgut (ID: 17867238/0x0110A1E6) [7964*]:
     "We let you live so you unseal."
275: 0x09A5 [0x23] WAIT_FOR_DIALOG_INTERACTION
276: 0x09A6 [0x5B] LOAD_EXT_SCHEDULER: Load scheduler "tlk1" with entities [Mligni-Vorgut (ID: 17867238/0x0110A1E6), Mligni-Vorgut (ID: 17867238/0x0110A1E6)], work=3416*
277: 0x09B5 [0x52] END_LOAD_SCHEDULER: End scheduler "s106" with entities [EventEntity, EventEntity], work=629*
278: 0x09C4 [0x45] LOAD_SCHEDULED_TASK: Load scheduler "s107" with entities [EventEntity, EventEntity], work=[629*, 0*]
279: 0x09D5 [0x66] LOAD_EXT_SCHEDULER_MAIN: Load scheduler "tlk0" with entities [Soraa Ishakal (ID: 17867234/0x0110A1E2), Soraa Ishakal (ID: 17867234/0x0110A1E2)], work=59*
280: 0x09E4 [0x2B] Soraa Ishakal (ID: 17867234/0x0110A1E2) [7965*]:
     "What gave you the idea that I know the firrrst thing about--"
281: 0x09EB [0x23] WAIT_FOR_DIALOG_INTERACTION
282: 0x09EC [0x66] LOAD_EXT_SCHEDULER_MAIN: Load scheduler "tlk1" with entities [Soraa Ishakal (ID: 17867234/0x0110A1E2), Soraa Ishakal (ID: 17867234/0x0110A1E2)], work=59*
283: 0x09FB [0x52] END_LOAD_SCHEDULER: End scheduler "s107" with entities [EventEntity, EventEntity], work=629*
284: 0x0A0A [0x45] LOAD_SCHEDULED_TASK: Load scheduler "s108" with entities [EventEntity, EventEntity], work=[629*, 0*]
285: 0x0A1B [0x5B] LOAD_EXT_SCHEDULER: Load scheduler "tlk0" with entities [Mligni-Vorgut (ID: 17867238/0x0110A1E6), Mligni-Vorgut (ID: 17867238/0x0110A1E6)], work=3416*
286: 0x0A2A [0xBA] SET_ENTITY_POSITION(entity_id=Unnamed NPC (ID: 17867239/0x0110A1E7), pos_x=68.215*, pos_z=-84.465*, pos_y=19.978*, direction=289.5*)
287: 0x0A37 [0x4A] Unnamed NPC (ID: 17867239/0x0110A1E7) looks at Soraa Ishakal (ID: 17867234/0x0110A1E2)
288: 0x0A40 [0x2B] Mligni-Vorgut (ID: 17867238/0x0110A1E6) [7966*]:
     "Just do it."
289: 0x0A47 [0x23] WAIT_FOR_DIALOG_INTERACTION
290: 0x0A48 [0x5B] LOAD_EXT_SCHEDULER: Load scheduler "btl0" with entities [Unnamed NPC (ID: 17867239/0x0110A1E7), Unnamed NPC (ID: 17867239/0x0110A1E7)], work=3326*
291: 0x0A57 [0x5B] LOAD_EXT_SCHEDULER: Load scheduler "tlk1" with entities [Mligni-Vorgut (ID: 17867238/0x0110A1E6), Mligni-Vorgut (ID: 17867238/0x0110A1E6)], work=3416*
292: 0x0A66 [0x55] WAIT_LOAD_SCHEDULER: Wait for scheduler "s108" with entities [EventEntity, EventEntity], work=629*
293: 0x0A75 [0x45] LOAD_SCHEDULED_TASK: Load scheduler "s109" with entities [EventEntity, EventEntity], work=[629*, 0*]
294: 0x0A86 [0x1C] WAIT(30* ticks)
295: 0x0A89 [0x5B] LOAD_EXT_SCHEDULER: Load scheduler "hou0" with entities [Unnamed NPC (ID: 17867242/0x0110A1EA), Unnamed NPC (ID: 17867242/0x0110A1EA)], work=3385*
296: 0x0A98 [0x1C] WAIT(90* ticks)
297: 0x0A9B [0x52] END_LOAD_SCHEDULER: End scheduler "s109" with entities [EventEntity, EventEntity], work=629*
298: 0x0AAA [0x45] LOAD_SCHEDULED_TASK: Load scheduler "s110" with entities [EventEntity, EventEntity], work=[629*, 0*]
299: 0x0ABB [0x79] Zunmimi (ID: 17867235/0x0110A1E3) looks at Soraa Ishakal (ID: 17867234/0x0110A1E2) (Basic look)
300: 0x0AC5 [0x2B] Zunmimi (ID: 17867235/0x0110A1E3) [7967*]:
     "Soraa..."
301: 0x0ACC [0x23] WAIT_FOR_DIALOG_INTERACTION
302: 0x0ACD [0x6E] Soraa Ishakal (ID: 17867234/0x0110A1E2) uses emote 7*
303: 0x0AD4 [0x99] Wait for Soraa Ishakal (ID: 17867234/0x0110A1E2) animation to complete
304: 0x0AD9 [0x2B] Soraa Ishakal (ID: 17867234/0x0110A1E2) [7968*]:
     "...Brrring it on, Buckteeth."
305: 0x0AE0 [0x23] WAIT_FOR_DIALOG_INTERACTION
306: 0x0AE1 [0x6B] STOP_AND_IDLE: Unnamed NPC (ID: 17867242/0x0110A1EA) stops current action and resets to idle (animation="idl0")
307: 0x0AEA [0x5D] SET_MUSIC_VOLUME(volume=0*, fade_time=120*)
308: 0x0AEF [0x52] END_LOAD_SCHEDULER: End scheduler "s110" with entities [EventEntity, EventEntity], work=629*
309: 0x0AFE [0x45] LOAD_SCHEDULED_TASK: Load scheduler "s111" with entities [EventEntity, EventEntity], work=[629*, 0*]
310: 0x0B0F [0x4A] Soraa Ishakal (ID: 17867234/0x0110A1E2) looks at Unnamed NPC (ID: 17867244/0x0110A1EC)
311: 0x0B18 [0x4A] LocalPlayer looks at Unnamed NPC (ID: 17867244/0x0110A1EC)
312: 0x0B21 [0x4A] Nashu (ID: 17867233/0x0110A1E1) looks at Unnamed NPC (ID: 17867244/0x0110A1EC)
313: 0x0B2A [0x1C] WAIT(15* ticks)
314: 0x0B2D [0x4A] Zunmimi (ID: 17867235/0x0110A1E3) looks at Unnamed NPC (ID: 17867244/0x0110A1EC)
315: 0x0B36 [0x1C] WAIT(15* ticks)
316: 0x0B39 [0x4A] Melisandra (ID: 17867236/0x0110A1E4) looks at Unnamed NPC (ID: 17867244/0x0110A1EC)
317: 0x0B42 [0x66] LOAD_EXT_SCHEDULER_MAIN: Load scheduler "sha0" with entities [Soraa Ishakal (ID: 17867234/0x0110A1E2), Soraa Ishakal (ID: 17867234/0x0110A1E2)], work=59*
318: 0x0B51 [0x7B] Soraa Ishakal (ID: 17867234/0x0110A1E2) stops talking
319: 0x0B56 [0x1C] WAIT(120* ticks)
320: 0x0B59 [0x52] END_LOAD_SCHEDULER: End scheduler "s111" with entities [EventEntity, EventEntity], work=629*
321: 0x0B68 [0x45] LOAD_SCHEDULED_TASK: Load scheduler "s112" with entities [EventEntity, EventEntity], work=[629*, 0*]
322: 0x0B79 [0x5B] LOAD_EXT_SCHEDULER: Load scheduler "kaz0" with entities [Soraa Ishakal (ID: 17867234/0x0110A1E2), Soraa Ishakal (ID: 17867234/0x0110A1E2)], work=3330*
323: 0x0B88 [0x1C] WAIT(120* ticks)
324: 0x0B8B [0x27] REQ_SET(priority=0x05, entity_id=LocalPlayer, tag_num=0x09)
325: 0x0B92 [0x52] END_LOAD_SCHEDULER: End scheduler "s112" with entities [EventEntity, EventEntity], work=629*
326: 0x0BA1 [0x45] LOAD_SCHEDULED_TASK: Load scheduler "s113" with entities [EventEntity, EventEntity], work=[629*, 0*]
327: 0x0BB2 [0xCD] LOAD_SCHEDULED_TASK_ALT4: Load scheduler "hk01" with entities [Unnamed NPC (ID: 17867244/0x0110A1EC), Unnamed NPC (ID: 17867244/0x0110A1EC)], work=[180*, 0*]
328: 0x0BC3 [0x1C] WAIT(60* ticks)
329: 0x0BC6 [0x2B] Soraa Ishakal (ID: 17867234/0x0110A1E2) [7969*]:
     "Wh-wha!?"
330: 0x0BCD [0x1C] WAIT(50* ticks)
331: 0x0BD0 [0x5B] LOAD_EXT_SCHEDULER: Load scheduler "mab0" with entities [Unnamed NPC (ID: 17867240/0x0110A1E8), Unnamed NPC (ID: 17867240/0x0110A1E8)], work=3416*
332: 0x0BDF [0x1C] WAIT(10* ticks)
333: 0x0BE2 [0x02] IF !(LocalPlayer->Race == 1*) GOTO 0x0BFC
334: 0x0BEA [0x66] LOAD_EXT_SCHEDULER_MAIN: Load scheduler "mab0" with entities [LocalPlayer, LocalPlayer], work=140*
335: 0x0BF9 [0x01] GOTO 0x0CB2
336: 0x0BFC [0x02] IF !(LocalPlayer->Race == 2*) GOTO 0x0C16
337: 0x0C04 [0x66] LOAD_EXT_SCHEDULER_MAIN: Load scheduler "mab0" with entities [LocalPlayer, LocalPlayer], work=150*
338: 0x0C13 [0x01] GOTO 0x0CB2
339: 0x0C16 [0x02] IF !(LocalPlayer->Race == 3*) GOTO 0x0C30
340: 0x0C1E [0x66] LOAD_EXT_SCHEDULER_MAIN: Load scheduler "mab0" with entities [LocalPlayer, LocalPlayer], work=160*
341: 0x0C2D [0x01] GOTO 0x0CB2
342: 0x0C30 [0x02] IF !(LocalPlayer->Race == 4*) GOTO 0x0C4A
343: 0x0C38 [0x66] LOAD_EXT_SCHEDULER_MAIN: Load scheduler "mab0" with entities [LocalPlayer, LocalPlayer], work=170*
344: 0x0C47 [0x01] GOTO 0x0CB2
345: 0x0C4A [0x02] IF !(LocalPlayer->Race == 5*) GOTO 0x0C64
346: 0x0C52 [0x66] LOAD_EXT_SCHEDULER_MAIN: Load scheduler "mab0" with entities [LocalPlayer, LocalPlayer], work=180*
347: 0x0C61 [0x01] GOTO 0x0CB2
348: 0x0C64 [0x02] IF !(LocalPlayer->Race == 6*) GOTO 0x0C7E
349: 0x0C6C [0x66] LOAD_EXT_SCHEDULER_MAIN: Load scheduler "mab0" with entities [LocalPlayer, LocalPlayer], work=180*
350: 0x0C7B [0x01] GOTO 0x0CB2
351: 0x0C7E [0x02] IF !(LocalPlayer->Race == 7*) GOTO 0x0C98
352: 0x0C86 [0x66] LOAD_EXT_SCHEDULER_MAIN: Load scheduler "mab0" with entities [LocalPlayer, LocalPlayer], work=190*
353: 0x0C95 [0x01] GOTO 0x0CB2
354: 0x0C98 [0x02] IF !(LocalPlayer->Race == 8*) GOTO 0x0CB2
355: 0x0CA0 [0x66] LOAD_EXT_SCHEDULER_MAIN: Load scheduler "mab0" with entities [LocalPlayer, LocalPlayer], work=200*
356: 0x0CAF [0x01] GOTO 0x0CB2

SUBROUTINE_0CB2:
357: 0x0CB2 [0x5B] LOAD_EXT_SCHEDULER: Load scheduler "mab0" with entities [Unnamed NPC (ID: 17867242/0x0110A1EA), Unnamed NPC (ID: 17867242/0x0110A1EA)], work=3416*
358: 0x0CC1 [0x52] END_LOAD_SCHEDULER: End scheduler "s113" with entities [EventEntity, EventEntity], work=629*
359: 0x0CD0 [0x45] LOAD_SCHEDULED_TASK: Load scheduler "s114" with entities [EventEntity, EventEntity], work=[629*, 0*]
360: 0x0CE1 [0xCD] LOAD_SCHEDULED_TASK_ALT4: Load scheduler "cm01" with entities [EventEntity, EventEntity], work=[180*, 0*]
361: 0x0CF2 [0x5B] LOAD_EXT_SCHEDULER: Load scheduler "mab1" with entities [Mligni-Vorgut (ID: 17867238/0x0110A1E6), Mligni-Vorgut (ID: 17867238/0x0110A1E6)], work=3416*
362: 0x0D01 [0x2B] Mligni-Vorgut (ID: 17867238/0x0110A1E6) [7970*]:
     "What goes on!?"
363: 0x0D08 [0x23] WAIT_FOR_DIALOG_INTERACTION
364: 0x0D09 [0x4E] SET_ENTITY_HIDE_FLAG: Hide Gramk-Droog (ID: 17867237/0x0110A1E5)
365: 0x0D0F [0xBA] SET_ENTITY_POSITION(entity_id=Soraa Ishakal (ID: 17867234/0x0110A1E2), pos_x=63.650*, pos_z=-73.216*, pos_y=17.966*, direction=90.2*)
366: 0x0D1C [0xBA] SET_ENTITY_POSITION(entity_id=Zunmimi (ID: 17867235/0x0110A1E3), pos_x=62.235*, pos_z=-73.611*, pos_y=18.187*, direction=90.2*)
367: 0x0D29 [0x80] LOAD_WAIT(entity=Soraa Ishakal (ID: 17867234/0x0110A1E2))
368: 0x0D2E [0x80] LOAD_WAIT(entity=Zunmimi (ID: 17867235/0x0110A1E3))
369: 0x0D33 [0x27] REQ_SET(priority=0x05, entity_id=Soraa Ishakal (ID: 17867234/0x0110A1E2), tag_num=0x07)
370: 0x0D3A [0x27] REQ_SET(priority=0x05, entity_id=Zunmimi (ID: 17867235/0x0110A1E3), tag_num=0x08)
371: 0x0D41 [0x66] LOAD_EXT_SCHEDULER_MAIN: Load scheduler "mab1" with entities [Nashu (ID: 17867233/0x0110A1E1), Nashu (ID: 17867233/0x0110A1E1)], work=140*
372: 0x0D50 [0x1C] WAIT(20* ticks)
373: 0x0D53 [0x52] END_LOAD_SCHEDULER: End scheduler "s114" with entities [EventEntity, EventEntity], work=629*
374: 0x0D62 [0x45] LOAD_SCHEDULED_TASK: Load scheduler "s115" with entities [EventEntity, EventEntity], work=[629*, 0*]
375: 0x0D73 [0x2B] Zunmimi (ID: 17867235/0x0110A1E3) [7971*]:
     "Rrrrrruuun!"
376: 0x0D7A [0x23] WAIT_FOR_DIALOG_INTERACTION
377: 0x0D7B [0x52] END_LOAD_SCHEDULER: End scheduler "s115" with entities [EventEntity, EventEntity], work=629*
378: 0x0D8A [0x45] LOAD_SCHEDULED_TASK: Load scheduler "s116" with entities [EventEntity, EventEntity], work=[629*, 0*]
379: 0x0D9B [0x1C] WAIT(60* ticks)
380: 0x0D9E [0xCD] LOAD_SCHEDULED_TASK_ALT4: Load scheduler "sest" with entities [Unnamed NPC (ID: 17867244/0x0110A1EC), Unnamed NPC (ID: 17867244/0x0110A1EC)], work=[180*, 0*]
381: 0x0DAF [0xCD] LOAD_SCHEDULED_TASK_ALT4: Load scheduler "cmst" with entities [EventEntity, EventEntity], work=[180*, 0*]
382: 0x0DC0 [0x45] LOAD_SCHEDULED_TASK: Load scheduler "who0" with entities [LocalPlayer, LocalPlayer], work=[201*, 0*]
383: 0x0DD1 [0x55] WAIT_LOAD_SCHEDULER: Wait for scheduler "who0" with entities [LocalPlayer, LocalPlayer], work=201*
384: 0x0DE0 [0x52] END_LOAD_SCHEDULER: End scheduler "s116" with entities [EventEntity, EventEntity], work=629*
385: 0x0DEF [0xCD] LOAD_SCHEDULED_TASK_ALT4: Load scheduler "hkst" with entities [Unnamed NPC (ID: 17867244/0x0110A1EC), Unnamed NPC (ID: 17867244/0x0110A1EC)], work=[180*, 0*]
386: 0x0E00 [0x7B] Soraa Ishakal (ID: 17867234/0x0110A1E2) stops talking
387: 0x0E05 [0x7B] Zunmimi (ID: 17867235/0x0110A1E3) stops talking
388: 0x0E0A [0x6B] STOP_AND_IDLE: Unnamed NPC (ID: 17867244/0x0110A1EC) stops current action and resets to idle (animation="idl0")
389: 0x0E13 [0x6B] STOP_AND_IDLE: LocalPlayer stops current action and resets to idle (animation="idl0")
390: 0x0E1C [0x6B] STOP_AND_IDLE: Soraa Ishakal (ID: 17867234/0x0110A1E2) stops current action and resets to idle (animation="idl0")
391: 0x0E25 [0x6B] STOP_AND_IDLE: Mligni-Vorgut (ID: 17867238/0x0110A1E6) stops current action and resets to idle (animation="idl0")
392: 0x0E2E [0x4E] SET_ENTITY_HIDE_FLAG: Hide Unnamed NPC (ID: 17867243/0x0110A1EB)
393: 0x0E34 [0x4E] SET_ENTITY_HIDE_FLAG: Hide Unnamed NPC (ID: 17867239/0x0110A1E7)
394: 0x0E3A [0x4E] SET_ENTITY_HIDE_FLAG: Hide Unnamed NPC (ID: 17867240/0x0110A1E8)
395: 0x0E40 [0x4E] SET_ENTITY_HIDE_FLAG: Hide Unnamed NPC (ID: 17867241/0x0110A1E9)
396: 0x0E46 [0x4E] SET_ENTITY_HIDE_FLAG: Hide Unnamed NPC (ID: 17867242/0x0110A1EA)
397: 0x0E4C [0xBA] SET_ENTITY_POSITION(entity_id=Soraa Ishakal (ID: 17867234/0x0110A1E2), pos_x=9.166*, pos_z=-36.077*, pos_y=19.745*, direction=200.2*)
398: 0x0E59 [0xBA] SET_ENTITY_POSITION(entity_id=Zunmimi (ID: 17867235/0x0110A1E3), pos_x=9.159*, pos_z=-37.245*, pos_y=19.864*, direction=213.8*)
399: 0x0E66 [0xBA] SET_ENTITY_POSITION(entity_id=Melisandra (ID: 17867236/0x0110A1E4), pos_x=3.872*, pos_z=-33.462*, pos_y=19.989*, direction=154.2*)
400: 0x0E73 [0xBA] SET_ENTITY_POSITION(entity_id=Unnamed NPC (ID: 17867244/0x0110A1EC), pos_x=3.872*, pos_z=-33.462*, pos_y=19.989*, direction=154.2*)
401: 0x0E80 [0xBA] SET_ENTITY_POSITION(entity_id=Nashu (ID: 17867233/0x0110A1E1), pos_x=6.030*, pos_z=-36.857*, pos_y=19.975*, direction=204.7*)
402: 0x0E8D [0xBA] SET_ENTITY_POSITION(entity_id=LocalPlayer, pos_x=3.209*, pos_z=-37.316*, pos_y=19.999*, direction=201.6*)
403: 0x0E9A [0x80] LOAD_WAIT(entity=Soraa Ishakal (ID: 17867234/0x0110A1E2))
404: 0x0E9F [0x80] LOAD_WAIT(entity=Zunmimi (ID: 17867235/0x0110A1E3))
405: 0x0EA4 [0x80] LOAD_WAIT(entity=Melisandra (ID: 17867236/0x0110A1E4))
406: 0x0EA9 [0x80] LOAD_WAIT(entity=Unnamed NPC (ID: 17867244/0x0110A1EC))
407: 0x0EAE [0x80] LOAD_WAIT(entity=Nashu (ID: 17867233/0x0110A1E1))
408: 0x0EB3 [0x80] LOAD_WAIT(entity=LocalPlayer)
409: 0x0EB8 [0x79] Zunmimi (ID: 17867235/0x0110A1E3) looks at Nashu (ID: 17867233/0x0110A1E1) (Basic look)
410: 0x0EC2 [0x5C] MUSIC_CONTROL: Set Idle (Day) music to song 60*
411: 0x0EC6 [0x5C] MUSIC_CONTROL: Set Idle (Night) music to song 60*
412: 0x0ECA [0x9A] WAIT_MUSIC_SERVER()
413: 0x0ECB [0x27] REQ_SET(priority=0x05, entity_id=Nashu (ID: 17867233/0x0110A1E1), tag_num=0x08)
414: 0x0ED2 [0x1C] WAIT(15* ticks)
415: 0x0ED5 [0x27] REQ_SET(priority=0x05, entity_id=Soraa Ishakal (ID: 17867234/0x0110A1E2), tag_num=0x08)
416: 0x0EDC [0x1C] WAIT(15* ticks)
417: 0x0EDF [0x27] REQ_SET(priority=0x05, entity_id=Zunmimi (ID: 17867235/0x0110A1E3), tag_num=0x09)
418: 0x0EE6 [0x1C] WAIT(15* ticks)
419: 0x0EE9 [0x27] REQ_SET(priority=0x05, entity_id=LocalPlayer, tag_num=0x20)
420: 0x0EF0 [0x45] LOAD_SCHEDULED_TASK: Load scheduler "s117" with entities [EventEntity, EventEntity], work=[629*, 0*]
421: 0x0F01 [0x1C] WAIT(15* ticks)
422: 0x0F04 [0x45] LOAD_SCHEDULED_TASK: Load scheduler "whi1" with entities [LocalPlayer, LocalPlayer], work=[201*, 0*]
423: 0x0F15 [0x1C] WAIT(120* ticks)
424: 0x0F18 [0x52] END_LOAD_SCHEDULER: End scheduler "s117" with entities [EventEntity, EventEntity], work=629*
425: 0x0F27 [0x45] LOAD_SCHEDULED_TASK: Load scheduler "s118" with entities [EventEntity, EventEntity], work=[629*, 0*]
426: 0x0F38 [0x5B] LOAD_EXT_SCHEDULER: Load scheduler "hnd0" with entities [Melisandra (ID: 17867236/0x0110A1E4), Melisandra (ID: 17867236/0x0110A1E4)], work=3361*
427: 0x0F47 [0x5B] LOAD_EXT_SCHEDULER: Load scheduler "hnd0" with entities [Unnamed NPC (ID: 17867244/0x0110A1EC), Unnamed NPC (ID: 17867244/0x0110A1EC)], work=3415*
428: 0x0F56 [0x2B] Nashu (ID: 17867233/0x0110A1E1) [7972*]:
     "<Haaah>...<haaah>... That was close..."
429: 0x0F5D [0x23] WAIT_FOR_DIALOG_INTERACTION
430: 0x0F5E [0x52] END_LOAD_SCHEDULER: End scheduler "s118" with entities [EventEntity, EventEntity], work=629*
431: 0x0F6D [0x45] LOAD_SCHEDULED_TASK: Load scheduler "s119" with entities [EventEntity, EventEntity], work=[629*, 0*]
432: 0x0F7E [0x66] LOAD_EXT_SCHEDULER_MAIN: Load scheduler "gkr0" with entities [Zunmimi (ID: 17867235/0x0110A1E3), Zunmimi (ID: 17867235/0x0110A1E3)], work=40*
433: 0x0F8D [0x6E] Soraa Ishakal (ID: 17867234/0x0110A1E2) uses emote 6*
434: 0x0F94 [0x99] Wait for Soraa Ishakal (ID: 17867234/0x0110A1E2) animation to complete
435: 0x0F99 [0x2B] Soraa Ishakal (ID: 17867234/0x0110A1E2) [7973*]:
     "Awww... And it was right within my grrrasp, too..."
436: 0x0FA0 [0x23] WAIT_FOR_DIALOG_INTERACTION
437: 0x0FA1 [0x66] LOAD_EXT_SCHEDULER_MAIN: Load scheduler "gkr1" with entities [Zunmimi (ID: 17867235/0x0110A1E3), Zunmimi (ID: 17867235/0x0110A1E3)], work=40*
438: 0x0FB0 [0x52] END_LOAD_SCHEDULER: End scheduler "s119" with entities [EventEntity, EventEntity], work=629*
439: 0x0FBF [0x45] LOAD_SCHEDULED_TASK: Load scheduler "s120" with entities [EventEntity, EventEntity], work=[629*, 0*]
440: 0x0FD0 [0x2B] Melisandra (ID: 17867236/0x0110A1E4) [7974*]:
     "You mean this?"
441: 0x0FD7 [0x23] WAIT_FOR_DIALOG_INTERACTION
442: 0x0FD8 [0x4A] Soraa Ishakal (ID: 17867234/0x0110A1E2) looks at Melisandra (ID: 17867236/0x0110A1E4)
443: 0x0FE1 [0x4A] Zunmimi (ID: 17867235/0x0110A1E3) looks at Melisandra (ID: 17867236/0x0110A1E4)
444: 0x0FEA [0x7B] Soraa Ishakal (ID: 17867234/0x0110A1E2) stops talking
445: 0x0FEF [0x1C] WAIT(30* ticks)
446: 0x0FF2 [0x52] END_LOAD_SCHEDULER: End scheduler "s120" with entities [EventEntity, EventEntity], work=629*
447: 0x1001 [0x45] LOAD_SCHEDULED_TASK: Load scheduler "s121" with entities [EventEntity, EventEntity], work=[629*, 0*]
448: 0x1012 [0x6E] Zunmimi (ID: 17867235/0x0110A1E3) uses emote 21*
449: 0x1019 [0x99] Wait for Zunmimi (ID: 17867235/0x0110A1E3) animation to complete
450: 0x101E [0x6E] Soraa Ishakal (ID: 17867234/0x0110A1E2) uses emote 21*
451: 0x1025 [0x99] Wait for Soraa Ishakal (ID: 17867234/0x0110A1E2) animation to complete
452: 0x102A [0x4A] LocalPlayer looks at Melisandra (ID: 17867236/0x0110A1E4)
453: 0x1033 [0x4A] Nashu (ID: 17867233/0x0110A1E1) looks at Melisandra (ID: 17867236/0x0110A1E4)
454: 0x103C [0x2B] Soraa Ishakal (ID: 17867234/0x0110A1E2) [7975*]:
     "When did you...!?"
455: 0x1043 [0x23] WAIT_FOR_DIALOG_INTERACTION
456: 0x1044 [0x52] END_LOAD_SCHEDULER: End scheduler "s121" with entities [EventEntity, EventEntity], work=629*
457: 0x1053 [0x45] LOAD_SCHEDULED_TASK: Load scheduler "s122" with entities [EventEntity, EventEntity], work=[629*, 0*]
458: 0x1064 [0x1C] WAIT(15* ticks)
459: 0x1067 [0xBA] SET_ENTITY_POSITION(entity_id=Melisandra (ID: 17867236/0x0110A1E4), pos_x=2.090*, pos_z=-34.318*, pos_y=19.999*, direction=193.1*)
460: 0x1074 [0xBA] SET_ENTITY_POSITION(entity_id=Unnamed NPC (ID: 17867244/0x0110A1EC), pos_x=2.090*, pos_z=-34.318*, pos_y=19.999*, direction=193.1*)
461: 0x1081 [0x80] LOAD_WAIT(entity=Melisandra (ID: 17867236/0x0110A1E4))
462: 0x1086 [0x80] LOAD_WAIT(entity=Unnamed NPC (ID: 17867244/0x0110A1EC))
463: 0x108B [0x2B] Zunmimi (ID: 17867235/0x0110A1E3) [7976*]:
     "You never cease-wease to amaze me, Melisandra."
464: 0x1092 [0x23] WAIT_FOR_DIALOG_INTERACTION
465: 0x1093 [0x52] END_LOAD_SCHEDULER: End scheduler "s122" with entities [EventEntity, EventEntity], work=629*
466: 0x10A2 [0x45] LOAD_SCHEDULED_TASK: Load scheduler "s123" with entities [EventEntity, EventEntity], work=[629*, 0*]
467: 0x10B3 [0x66] LOAD_EXT_SCHEDULER_MAIN: Load scheduler "thk1" with entities [Soraa Ishakal (ID: 17867234/0x0110A1E2), Soraa Ishakal (ID: 17867234/0x0110A1E2)], work=59*
468: 0x10C2 [0x2B] Soraa Ishakal (ID: 17867234/0x0110A1E2) [7977*]:
     "The light seems to have gone out. What was that currriosity, anyway?"
469: 0x10C9 [0x23] WAIT_FOR_DIALOG_INTERACTION
470: 0x10CA [0x52] END_LOAD_SCHEDULER: End scheduler "s123" with entities [EventEntity, EventEntity], work=629*
471: 0x10D9 [0x45] LOAD_SCHEDULED_TASK: Load scheduler "s124" with entities [EventEntity, EventEntity], work=[629*, 0*]
472: 0x10EA [0x79] Nashu (ID: 17867233/0x0110A1E1) looks at Soraa Ishakal (ID: 17867234/0x0110A1E2) (Basic look)
473: 0x10F4 [0x66] LOAD_EXT_SCHEDULER_MAIN: Load scheduler "tlk0" with entities [Nashu (ID: 17867233/0x0110A1E1), Nashu (ID: 17867233/0x0110A1E1)], work=9*
474: 0x1103 [0x2B] Nashu (ID: 17867233/0x0110A1E1) [7978*]:
     "I certainly do not hold the answer to your question, but I do know this--I am positively overjoyed that you got what you came for."
475: 0x110A [0x23] WAIT_FOR_DIALOG_INTERACTION
476: 0x110B [0x4A] Zunmimi (ID: 17867235/0x0110A1E3) looks at Nashu (ID: 17867233/0x0110A1E1)
477: 0x1114 [0x66] LOAD_EXT_SCHEDULER_MAIN: Load scheduler "tlk1" with entities [Nashu (ID: 17867233/0x0110A1E1), Nashu (ID: 17867233/0x0110A1E1)], work=9*
478: 0x1123 [0x66] LOAD_EXT_SCHEDULER_MAIN: Load scheduler "thk2" with entities [Soraa Ishakal (ID: 17867234/0x0110A1E2), Soraa Ishakal (ID: 17867234/0x0110A1E2)], work=59*
479: 0x1132 [0x52] END_LOAD_SCHEDULER: End scheduler "s124" with entities [EventEntity, EventEntity], work=629*
480: 0x1141 [0x45] LOAD_SCHEDULED_TASK: Load scheduler "s125" with entities [EventEntity, EventEntity], work=[629*, 0*]
481: 0x1152 [0x1C] WAIT(45* ticks)
482: 0x1155 [0x4A] Soraa Ishakal (ID: 17867234/0x0110A1E2) looks at Nashu (ID: 17867233/0x0110A1E1)
483: 0x115E [0x1C] WAIT(30* ticks)
484: 0x1161 [0x79] LocalPlayer looks at Soraa Ishakal (ID: 17867234/0x0110A1E2) (Basic look)
485: 0x116B [0x66] LOAD_EXT_SCHEDULER_MAIN: Load scheduler "tlk0" with entities [Soraa Ishakal (ID: 17867234/0x0110A1E2), Soraa Ishakal (ID: 17867234/0x0110A1E2)], work=59*
486: 0x117A [0x2B] Soraa Ishakal (ID: 17867234/0x0110A1E2) [7979*]:
     "I...I guess...we couldn't have grrrabbed it without your help."
487: 0x1181 [0x23] WAIT_FOR_DIALOG_INTERACTION
488: 0x1182 [0x52] END_LOAD_SCHEDULER: End scheduler "s125" with entities [EventEntity, EventEntity], work=629*
489: 0x1191 [0x45] LOAD_SCHEDULED_TASK: Load scheduler "s126" with entities [EventEntity, EventEntity], work=[629*, 0*]
490: 0x11A2 [0x66] LOAD_EXT_SCHEDULER_MAIN: Load scheduler "tlk1" with entities [Soraa Ishakal (ID: 17867234/0x0110A1E2), Soraa Ishakal (ID: 17867234/0x0110A1E2)], work=59*
491: 0x11B1 [0x2B] Soraa Ishakal (ID: 17867234/0x0110A1E2) [7980*]:
     "Well, I guess it's time to be hitting the ol' dusty trrrail! Yup, sure is! See you arrround, Nashu."
492: 0x11B8 [0x23] WAIT_FOR_DIALOG_INTERACTION
493: 0x11B9 [0x52] END_LOAD_SCHEDULER: End scheduler "s126" with entities [EventEntity, EventEntity], work=629*
494: 0x11C8 [0x45] LOAD_SCHEDULED_TASK: Load scheduler "s127" with entities [EventEntity, EventEntity], work=[629*, 0*]
495: 0x11D9 [0x1C] WAIT(15* ticks)
496: 0x11DC [0x6B] STOP_AND_IDLE: Melisandra (ID: 17867236/0x0110A1E4) stops current action and resets to idle (animation="idl0")
497: 0x11E5 [0x4E] SET_ENTITY_HIDE_FLAG: Hide Unnamed NPC (ID: 17867244/0x0110A1EC)
498: 0x11EB [0x2B] Nashu (ID: 17867233/0x0110A1E1) [7981*]:
     ""Nashu"...?"
499: 0x11F2 [0x23] WAIT_FOR_DIALOG_INTERACTION
500: 0x11F3 [0x52] END_LOAD_SCHEDULER: End scheduler "s127" with entities [EventEntity, EventEntity], work=629*
501: 0x1202 [0x45] LOAD_SCHEDULED_TASK: Load scheduler "s128" with entities [EventEntity, EventEntity], work=[629*, 0*]
502: 0x1213 [0x73] Soraa Ishakal (ID: 17867234/0x0110A1E2) casts magic 264* on Soraa Ishakal (ID: 17867234/0x0110A1E2)
503: 0x121E [0x1C] WAIT(30* ticks)
504: 0x1221 [0x73] Zunmimi (ID: 17867235/0x0110A1E3) casts magic 264* on Zunmimi (ID: 17867235/0x0110A1E3)
505: 0x122C [0x1C] WAIT(30* ticks)
506: 0x122F [0x73] Melisandra (ID: 17867236/0x0110A1E4) casts magic 264* on Melisandra (ID: 17867236/0x0110A1E4)
507: 0x123A [0x1C] WAIT(90* ticks)
508: 0x123D [0x52] END_LOAD_SCHEDULER: End scheduler "s128" with entities [EventEntity, EventEntity], work=629*
509: 0x124C [0x45] LOAD_SCHEDULED_TASK: Load scheduler "s129" with entities [EventEntity, EventEntity], work=[629*, 0*]
510: 0x125D [0x1C] WAIT(150* ticks)
511: 0x1260 [0x52] END_LOAD_SCHEDULER: End scheduler "s129" with entities [EventEntity, EventEntity], work=629*
512: 0x126F [0x45] LOAD_SCHEDULED_TASK: Load scheduler "s130" with entities [EventEntity, EventEntity], work=[629*, 0*]
513: 0x1280 [0x2B] Nashu (ID: 17867233/0x0110A1E1) [7982*]:
     "She...remembered my name."
514: 0x1287 [0x23] WAIT_FOR_DIALOG_INTERACTION
515: 0x1288 [0x52] END_LOAD_SCHEDULER: End scheduler "s130" with entities [EventEntity, EventEntity], work=629*
516: 0x1297 [0x45] LOAD_SCHEDULED_TASK: Load scheduler "s131" with entities [EventEntity, EventEntity], work=[629*, 0*]
517: 0x12A8 [0x4A] Nashu (ID: 17867233/0x0110A1E1) looks at LocalPlayer
518: 0x12B1 [0x1C] WAIT(30* ticks)
519: 0x12B4 [0x6E] Nashu (ID: 17867233/0x0110A1E1) uses emote 7*
520: 0x12BB [0x99] Wait for Nashu (ID: 17867233/0x0110A1E1) animation to complete
521: 0x12C0 [0x4A] LocalPlayer looks at Nashu (ID: 17867233/0x0110A1E1)
522: 0x12C9 [0x2B] Nashu (ID: 17867233/0x0110A1E1) [7983*]:
     "A-anyhow...at least the coven's cut all its ties with the Velkk, right?"
523: 0x12D0 [0x23] WAIT_FOR_DIALOG_INTERACTION
524: 0x12D1 [0x66] LOAD_EXT_SCHEDULER_MAIN: Load scheduler "pas0" with entities [Nashu (ID: 17867233/0x0110A1E1), Nashu (ID: 17867233/0x0110A1E1)], work=71*
525: 0x12E0 [0x2B] Nashu (ID: 17867233/0x0110A1E1) [7984*]:
     "Once again, I have you to thank for engineering the seemingly impossible. In case the undying gratitude of a mere trainee proves an insufficient reward, please take this."
526: 0x12E7 [0x23] WAIT_FOR_DIALOG_INTERACTION
527: 0x12E8 [0x53] WAIT_SCHEDULER_TASK: Wait for scheduler "pas0" with entities [Nashu (ID: 17867233/0x0110A1E1), Nashu (ID: 17867233/0x0110A1E1)]
528: 0x12F5 [0x52] END_LOAD_SCHEDULER: End scheduler "s131" with entities [EventEntity, EventEntity], work=629*
529: 0x1304 [0x45] LOAD_SCHEDULED_TASK: Load scheduler "s132" with entities [EventEntity, EventEntity], work=[629*, 0*]
530: 0x1315 [0x66] LOAD_EXT_SCHEDULER_MAIN: Load scheduler "tlk0" with entities [Nashu (ID: 17867233/0x0110A1E1), Nashu (ID: 17867233/0x0110A1E1)], work=9*
