# 17867177 - Toppled Tree

## Common Data

| Field            | Value                    |
|------------------|--------------------------|
| Zone             | Marjami Ravine (ID: 266) |
| Block Size       | 1560 bytes               |
| Total Events     | 48                       |
| References Count | 79                       |

## List of Events

| Event ID                   | Entrypoint   |   Size |   Instructions |
|----------------------------|--------------|--------|----------------|
| [65535](#event-65535)      | 0x0000       |      1 |              1 |
| [65535.1](#event-655351)   | 0x0001       |      9 |              3 |
| [65535.2](#event-655352)   | 0x000A       |     16 |              2 |
| [65535.3](#event-655353)   | 0x001A       |     14 |              2 |
| [65535.4](#event-655354)   | 0x0028       |     16 |              2 |
| [65535.5](#event-655355)   | 0x0038       |     14 |              2 |
| [65535.6](#event-655356)   | 0x0046       |     16 |              2 |
| [65535.7](#event-655357)   | 0x0056       |     14 |              2 |
| [65535.8](#event-655358)   | 0x0064       |     16 |              2 |
| [65535.9](#event-655359)   | 0x0074       |     14 |              2 |
| [65535.10](#event-6553510) | 0x0082       |     16 |              2 |
| [65535.11](#event-6553511) | 0x0092       |     14 |              2 |
| [65535.12](#event-6553512) | 0x00A0       |     57 |              5 |
| [65535.13](#event-6553513) | 0x00D9       |     27 |              3 |
| [65535.14](#event-6553514) | 0x00F4       |     27 |              3 |
| [65535.15](#event-6553515) | 0x010F       |     16 |              2 |
| [65535.16](#event-6553516) | 0x011F       |     14 |              2 |
| [65535.17](#event-6553517) | 0x012D       |     16 |              2 |
| [65535.18](#event-6553518) | 0x013D       |     14 |              2 |
| [65535.19](#event-6553519) | 0x014B       |     16 |              2 |
| [65535.20](#event-6553520) | 0x015B       |     14 |              2 |
| [65535.21](#event-6553521) | 0x0169       |     16 |              2 |
| [65535.22](#event-6553522) | 0x0179       |     14 |              2 |
| [65535.23](#event-6553523) | 0x0187       |     16 |              4 |
| [65535.24](#event-6553524) | 0x0197       |     16 |              4 |
| [65535.25](#event-6553525) | 0x01A7       |     16 |              4 |
| [65535.26](#event-6553526) | 0x01B7       |     16 |              4 |
| [2](#event-2)              | 0x01C7       |     36 |             12 |
| [3](#event-3)              | 0x01EB       |    136 |             39 |
| [4](#event-4)              | 0x0273       |     37 |             14 |
| [5](#event-5)              | 0x0298       |    104 |             29 |
| [6](#event-6)              | 0x0300       |     33 |             12 |
| [7](#event-7)              | 0x0321       |      1 |              1 |
| [8](#event-8)              | 0x0322       |     33 |             12 |
| [65535.27](#event-6553527) | 0x0343       |     10 |              2 |
| [65535.28](#event-6553528) | 0x034D       |     10 |              2 |
| [65535.29](#event-6553529) | 0x0357       |     21 |              7 |
| [65535.30](#event-6553530) | 0x036C       |     14 |              4 |
| [65535.31](#event-6553531) | 0x037A       |     14 |              4 |
| [65535.32](#event-6553532) | 0x0388       |     10 |              2 |
| [51](#event-51)            | 0x0392       |      1 |              1 |
| [65535.33](#event-6553533) | 0x0393       |     10 |              2 |
| [65535.34](#event-6553534) | 0x039D       |     24 |              8 |
| [65535.35](#event-6553535) | 0x03B5       |     14 |              4 |
| [65535.36](#event-6553536) | 0x03C3       |     39 |              4 |
| [65535.37](#event-6553537) | 0x03EA       |     10 |              2 |
| [65535.38](#event-6553538) | 0x03F4       |     14 |              4 |
| [65535.39](#event-6553539) | 0x0402       |     10 |              2 |

## DAT References (imed_data)

|   Index | Hex Value   |   Dec Value |
|---------|-------------|-------------|
|       0 | 0x003C      |          60 |
|       1 | 0x00D1      |         209 |
|       2 | 0x0083      |         131 |
|       3 | 0x0045      |          69 |
|       4 | 0x0015      |          21 |
|       5 | 0x0007      |           7 |
|       6 | 0x000B      |          11 |
|       7 | 0x000E      |          14 |
|       8 | 0x1E31      |        7729 |
|       9 | 0x086D      |        2157 |
|      10 | 0x1E32      |        7730 |
|      11 | 0x1E33      |        7731 |
|      12 | 0x1E34      |        7732 |
|      13 | 0x1E35      |        7733 |
|      14 | 0x1E36      |        7734 |
|      15 | 0x1E37      |        7735 |
|      16 | 0x1E38      |        7736 |
|      17 | 0x1E39      |        7737 |
|      18 | 0x1E3A      |        7738 |
|      19 | 0x1E3B      |        7739 |
|      20 | 0x1E3C      |        7740 |
|      21 | 0x1E3D      |        7741 |
|      22 | 0x1E3E      |        7742 |
|      23 | 0x1E3F      |        7743 |
|      24 | 0x1E41      |        7745 |
|      25 | 0x1E42      |        7746 |
|      26 | 0x1E43      |        7747 |
|      27 | 0x1E44      |        7748 |
|      28 | 0x1E45      |        7749 |
|      29 | 0x1E46      |        7750 |
|      30 | 0x1E47      |        7751 |
|      31 | 0x1E48      |        7752 |
|      32 | 0x1E5B      |        7771 |
|      33 | 0x1E5C      |        7772 |
|      34 | 0x4176E     |      268142 |
|      35 | 0x16824     |       92196 |
|      36 | 0xFFFF63BC  |  4294927292 |
|      37 | 0x0000      |           0 |
|      38 | 0x4046D     |      263277 |
|      39 | 0x18843     |      100419 |
|      40 | 0xFFFF63C0  |  4294927296 |
|      41 | 0x02A1      |         673 |
|      42 | 0x000D      |          13 |
|      43 | 0x4172A     |      268074 |
|      44 | 0x16D9C     |       93596 |
|      45 | 0xFFFF639E  |  4294927262 |
|      46 | 0x4134A     |      267082 |
|      47 | 0x16B48     |       93000 |
|      48 | 0xFFFF601A  |  4294926362 |
|      49 | 0x082C      |        2092 |
|      50 | 0x3FE2F     |      261679 |
|      51 | 0x18454     |       99412 |
|      52 | 0x02A0      |         672 |
|      53 | 0x41A4A     |      268874 |
|      54 | 0x16994     |       92564 |
|      55 | 0xFFFF6393  |  4294927251 |
|      56 | 0x0142      |         322 |
|      57 | 0x58AAA     |      363178 |
|      58 | 0x2373D     |      145213 |
|      59 | 0xFFFF17C3  |  4294907843 |
|      60 | 0x019F      |         415 |
|      61 | 0x59D01     |      367873 |
|      62 | 0x23263     |      143971 |
|      63 | 0xFFFF1923  |  4294908195 |
|      64 | 0x000A      |          10 |
|      65 | 0x5A1CE     |      369102 |
|      66 | 0x23115     |      143637 |
|      67 | 0xFFFF1933  |  4294908211 |
|      68 | 0x59A3B     |      367163 |
|      69 | 0x22D26     |      142630 |
|      70 | 0xFFFF1948  |  4294908232 |
|      71 | 0x00D9      |         217 |
|      72 | 0x5A105     |      368901 |
|      73 | 0x22B02     |      142082 |
|      74 | 0xFFFF1987  |  4294908295 |
|      75 | 0x59ECE     |      368334 |
|      76 | 0x22DC9     |      142793 |
|      77 | 0xFFFF1970  |  4294908272 |
|      78 | 0x0187      |         391 |

## String References

- **7729**: The Velkk have a strong presence here. My job is to keep them out of our affairs.
- **7730**: If only there was a registered pioneer with $6 that I could count on--then my job would be easier by malms.
- **7731**: Hold there, pioneer--I'm in need of your aid. Have you ever had the misfortune of squaring off against a Velkk?
- **7732**: Foul beasts, those. Stinky and violent, with an unpredictable streak at that. Maybe a bit stupid, but it's only a matter of time before they turn their spears to Adoulin.
- **7733**: That's why the coalitions put me here to "keep an eye on them"...and I've noticed something startling.
- **7734**: They're able to use the ivy that snakes along the side of the cliffs here in Marjami Ravine to scale vertical walls, enabling them to move almost effortlessly from place to place!
- **7735**: I figured that if those brutes can do it, it can't be too hard, right? But the ivy is covered with all manner of thorns and briars, making climbing an exercise in futility.
- **7736**: And then something came to me; what if we could make gloves out of the hides they use? Then we could keep our hands safe for sure.
- **7737**: I assume I don't have to spell this out, but just in case--I want you to raid one of their encampments and "procure" some of their leather.
- **7738**: On multiple occasions I've seen leather scraps strewn about the outskirts of the encampment of theirs to the southwest.
- **7739**: This'll be a dangerous task, to be sure, but I'm sure you've seen worse during your extensive travels of the Middle Lands.
- **7740**: I'd go myself, but I've been commanded to stay at this post--so help a Galka out, will you?
- **7741**: The Velkk process most of their leather in an encampment to the southwest. I'd bet my tunic that you'll find some quality material there.
- **7742**: If I'm right, we'll be able to craft us some gloves that'll let us climb the ivy ourselves.
- **7743**: The thorns should pose no issue then. So get out there and bring me back that hide!
- **7745**: You're back! Did you get what I asked for? Yes, this is some high-quality leather.
- **7746**: Soft to the touch, yet firm and resilient. No wonder they were able to climb that ivy like you or I would climb rope!
- **7747**: I'll just have to make us a couple of pairs of gloves out of this and we'll be scaling the cliffs in no time!
- **7748**: Talk about perfect! Udip Ferawoh said she'd take over my post for a little bit in case I needed a break--which I'll use to give this another go!
- **7749**: I've got to make some preparations first, though.
- **7750**: You interested in coming, too? Once I'm ready, I'll be heading off to the southwest of here, where the closest patch of ivy grows. Maybe I'll see you there.
- **7751**: I'm going to try my hand at climbing the ivy again now that I can make those gloves. If you've got a spare moment, I'd like for you to be there, too.
- **7752**: The closest place to try them out is southwest of here. By Altana, this is going to be quite the ride!
- **7771**: Putting those skills you learned in that Goddessforsaken hole to good use? Must come in handy during your treks around Eastern Ulbuka.
- **7772**: I know that I've got a ways to go--but I'll get there someday.

## Events

### Event 65535

#### Metadata

| Field        | Value   |
|--------------|---------|
| Entrypoint   | 0x0000  |
| Data Size    | 1 bytes |
| Instructions | 1       |

```
      00 01 02 03 04 05 06 07  08 09 0A 0B 0C 0D 0E 0F
      -- -- -- -- -- -- -- --  -- -- -- -- -- -- -- --
0000: 00                                                .               
```

#### Opcodes

```
  0: 0x0000 [0x00] END_REQSTACK()
```

### Event 65535.1

#### Metadata

| Field        | Value   |
|--------------|---------|
| Entrypoint   | 0x0001  |
| Data Size    | 9 bytes |
| Instructions | 3       |

```
      00 01 02 03 04 05 06 07  08 09 0A 0B 0C 0D 0E 0F
      -- -- -- -- -- -- -- --  -- -- -- -- -- -- -- --
0000:    5E 69 64 6C 30 1C 00  80 00                     ^idl0....      
```

#### Opcodes

```
  0: 0x0001 [0x5E] EventEntity goes idle (kills current action) (animation: "idl0")
  1: 0x0006 [0x1C] WAIT(60* ticks)
  2: 0x0009 [0x00] END_REQSTACK()
```

### Event 65535.2

#### Metadata

| Field        | Value    |
|--------------|----------|
| Entrypoint   | 0x000A   |
| Data Size    | 16 bytes |
| Instructions | 2        |

```
      00 01 02 03 04 05 06 07  08 09 0A 0B 0C 0D 0E 0F
      -- -- -- -- -- -- -- --  -- -- -- -- -- -- -- --
0000:                                66 01 80 F8 FF FF            f.....
0010: 7F F8 FF FF 7F 74 6C 6B  30 00                    .....tlk0.      
```

#### Opcodes

```
  0: 0x000A [0x66] LOAD_EXT_SCHEDULER_MAIN: Load scheduler "tlk0" with entities [EventEntity, EventEntity], work=209*
  1: 0x0019 [0x00] END_REQSTACK()
```

### Event 65535.3

#### Metadata

| Field        | Value    |
|--------------|----------|
| Entrypoint   | 0x001A   |
| Data Size    | 14 bytes |
| Instructions | 2        |

```
      00 01 02 03 04 05 06 07  08 09 0A 0B 0C 0D 0E 0F
      -- -- -- -- -- -- -- --  -- -- -- -- -- -- -- --
0010:                                53 F8 FF FF 7F F8            S.....
0020: FF FF 7F 74 6C 6B 30 00                           ...tlk0.        
```

#### Opcodes

```
  0: 0x001A [0x53] WAIT_SCHEDULER_TASK: Wait for scheduler "tlk0" with entities [EventEntity, EventEntity]
  1: 0x0027 [0x00] END_REQSTACK()
```

### Event 65535.4

#### Metadata

| Field        | Value    |
|--------------|----------|
| Entrypoint   | 0x0028   |
| Data Size    | 16 bytes |
| Instructions | 2        |

```
      00 01 02 03 04 05 06 07  08 09 0A 0B 0C 0D 0E 0F
      -- -- -- -- -- -- -- --  -- -- -- -- -- -- -- --
0020:                          66 01 80 F8 FF FF 7F F8          f.......
0030: FF FF 7F 74 6C 6B 31 00                           ...tlk1.        
```

#### Opcodes

```
  0: 0x0028 [0x66] LOAD_EXT_SCHEDULER_MAIN: Load scheduler "tlk1" with entities [EventEntity, EventEntity], work=209*
  1: 0x0037 [0x00] END_REQSTACK()
```

### Event 65535.5

#### Metadata

| Field        | Value    |
|--------------|----------|
| Entrypoint   | 0x0038   |
| Data Size    | 14 bytes |
| Instructions | 2        |

```
      00 01 02 03 04 05 06 07  08 09 0A 0B 0C 0D 0E 0F
      -- -- -- -- -- -- -- --  -- -- -- -- -- -- -- --
0030:                          53 F8 FF FF 7F F8 FF FF          S.......
0040: 7F 74 6C 6B 31 00                                 .tlk1.          
```

#### Opcodes

```
  0: 0x0038 [0x53] WAIT_SCHEDULER_TASK: Wait for scheduler "tlk1" with entities [EventEntity, EventEntity]
  1: 0x0045 [0x00] END_REQSTACK()
```

### Event 65535.6

#### Metadata

| Field        | Value    |
|--------------|----------|
| Entrypoint   | 0x0046   |
| Data Size    | 16 bytes |
| Instructions | 2        |

```
      00 01 02 03 04 05 06 07  08 09 0A 0B 0C 0D 0E 0F
      -- -- -- -- -- -- -- --  -- -- -- -- -- -- -- --
0040:                   66 02  80 F8 FF FF 7F F8 FF FF        f.........
0050: 7F 70 61 73 30 00                                 .pas0.          
```

#### Opcodes

```
  0: 0x0046 [0x66] LOAD_EXT_SCHEDULER_MAIN: Load scheduler "pas0" with entities [EventEntity, EventEntity], work=131*
  1: 0x0055 [0x00] END_REQSTACK()
```

### Event 65535.7

#### Metadata

| Field        | Value    |
|--------------|----------|
| Entrypoint   | 0x0056   |
| Data Size    | 14 bytes |
| Instructions | 2        |

```
      00 01 02 03 04 05 06 07  08 09 0A 0B 0C 0D 0E 0F
      -- -- -- -- -- -- -- --  -- -- -- -- -- -- -- --
0050:                   53 F8  FF FF 7F F8 FF FF 7F 70        S........p
0060: 61 73 30 00                                       as0.            
```

#### Opcodes

```
  0: 0x0056 [0x53] WAIT_SCHEDULER_TASK: Wait for scheduler "pas0" with entities [EventEntity, EventEntity]
  1: 0x0063 [0x00] END_REQSTACK()
```

### Event 65535.8

#### Metadata

| Field        | Value    |
|--------------|----------|
| Entrypoint   | 0x0064   |
| Data Size    | 16 bytes |
| Instructions | 2        |

```
      00 01 02 03 04 05 06 07  08 09 0A 0B 0C 0D 0E 0F
      -- -- -- -- -- -- -- --  -- -- -- -- -- -- -- --
0060:             66 03 80 F8  FF FF 7F F8 FF FF 7F 74      f..........t
0070: 6C 6B 30 00                                       lk0.            
```

#### Opcodes

```
  0: 0x0064 [0x66] LOAD_EXT_SCHEDULER_MAIN: Load scheduler "tlk0" with entities [EventEntity, EventEntity], work=69*
  1: 0x0073 [0x00] END_REQSTACK()
```

### Event 65535.9

#### Metadata

| Field        | Value    |
|--------------|----------|
| Entrypoint   | 0x0074   |
| Data Size    | 14 bytes |
| Instructions | 2        |

```
      00 01 02 03 04 05 06 07  08 09 0A 0B 0C 0D 0E 0F
      -- -- -- -- -- -- -- --  -- -- -- -- -- -- -- --
0070:             53 F8 FF FF  7F F8 FF FF 7F 74 6C 6B      S........tlk
0080: 30 00                                             0.              
```

#### Opcodes

```
  0: 0x0074 [0x53] WAIT_SCHEDULER_TASK: Wait for scheduler "tlk0" with entities [EventEntity, EventEntity]
  1: 0x0081 [0x00] END_REQSTACK()
```

### Event 65535.10

#### Metadata

| Field        | Value    |
|--------------|----------|
| Entrypoint   | 0x0082   |
| Data Size    | 16 bytes |
| Instructions | 2        |

```
      00 01 02 03 04 05 06 07  08 09 0A 0B 0C 0D 0E 0F
      -- -- -- -- -- -- -- --  -- -- -- -- -- -- -- --
0080:       66 03 80 F8 FF FF  7F F8 FF FF 7F 74 6C 6B    f..........tlk
0090: 30 00                                             0.              
```

#### Opcodes

```
  0: 0x0082 [0x66] LOAD_EXT_SCHEDULER_MAIN: Load scheduler "tlk0" with entities [EventEntity, EventEntity], work=69*
  1: 0x0091 [0x00] END_REQSTACK()
```

### Event 65535.11

#### Metadata

| Field        | Value    |
|--------------|----------|
| Entrypoint   | 0x0092   |
| Data Size    | 14 bytes |
| Instructions | 2        |

```
      00 01 02 03 04 05 06 07  08 09 0A 0B 0C 0D 0E 0F
      -- -- -- -- -- -- -- --  -- -- -- -- -- -- -- --
0090:       53 F8 FF FF 7F F8  FF FF 7F 74 6C 6B 30 00    S........tlk0.
```

#### Opcodes

```
  0: 0x0092 [0x53] WAIT_SCHEDULER_TASK: Wait for scheduler "tlk0" with entities [EventEntity, EventEntity]
  1: 0x009F [0x00] END_REQSTACK()
```

### Event 65535.12

#### Metadata

| Field        | Value    |
|--------------|----------|
| Entrypoint   | 0x00A0   |
| Data Size    | 57 bytes |
| Instructions | 5        |

```
      00 01 02 03 04 05 06 07  08 09 0A 0B 0C 0D 0E 0F
      -- -- -- -- -- -- -- --  -- -- -- -- -- -- -- --
00A0: 66 03 80 F8 FF FF 7F F8  FF FF 7F 74 6C 6B 30 53  f..........tlk0S
00B0: F8 FF FF 7F F8 FF FF 7F  74 6C 6B 30 66 03 80 F8  ........tlk0f...
00C0: FF FF 7F F8 FF FF 7F 74  6C 6B 30 53 F8 FF FF 7F  .......tlk0S....
00D0: F8 FF FF 7F 74 6C 6B 30  00                       ....tlk0.       
```

#### Opcodes

```
  0: 0x00A0 [0x66] LOAD_EXT_SCHEDULER_MAIN: Load scheduler "tlk0" with entities [EventEntity, EventEntity], work=69*
  1: 0x00AF [0x53] WAIT_SCHEDULER_TASK: Wait for scheduler "tlk0" with entities [EventEntity, EventEntity]
  2: 0x00BC [0x66] LOAD_EXT_SCHEDULER_MAIN: Load scheduler "tlk0" with entities [EventEntity, EventEntity], work=69*
  3: 0x00CB [0x53] WAIT_SCHEDULER_TASK: Wait for scheduler "tlk0" with entities [EventEntity, EventEntity]
  4: 0x00D8 [0x00] END_REQSTACK()
```

### Event 65535.13

#### Metadata

| Field        | Value    |
|--------------|----------|
| Entrypoint   | 0x00D9   |
| Data Size    | 27 bytes |
| Instructions | 3        |

```
      00 01 02 03 04 05 06 07  08 09 0A 0B 0C 0D 0E 0F
      -- -- -- -- -- -- -- --  -- -- -- -- -- -- -- --
00D0:                             2C F8 FF FF 7F F8 FF           ,......
00E0: FF 7F 63 6F 72 70 53 F8  FF FF 7F F8 FF FF 7F 63  ..corpS........c
00F0: 6F 72 70 00                                       orp.            
```

#### Opcodes

```
  0: 0x00D9 [0x2C] CREATE_SCHEDULER_TASK: Create scheduler "corp" with entities [EventEntity, EventEntity]
  1: 0x00E6 [0x53] WAIT_SCHEDULER_TASK: Wait for scheduler "corp" with entities [EventEntity, EventEntity]
  2: 0x00F3 [0x00] END_REQSTACK()
```

### Event 65535.14

#### Metadata

| Field        | Value    |
|--------------|----------|
| Entrypoint   | 0x00F4   |
| Data Size    | 27 bytes |
| Instructions | 3        |

```
      00 01 02 03 04 05 06 07  08 09 0A 0B 0C 0D 0E 0F
      -- -- -- -- -- -- -- --  -- -- -- -- -- -- -- --
00F0:             2C F8 FF FF  7F F8 FF FF 7F 73 69 74      ,........sit
0100: 30 53 F8 FF FF 7F F8 FF  FF 7F 73 69 74 30 00     0S........sit0. 
```

#### Opcodes

```
  0: 0x00F4 [0x2C] CREATE_SCHEDULER_TASK: Create scheduler "sit0" with entities [EventEntity, EventEntity]
  1: 0x0101 [0x53] WAIT_SCHEDULER_TASK: Wait for scheduler "sit0" with entities [EventEntity, EventEntity]
  2: 0x010E [0x00] END_REQSTACK()
```

### Event 65535.15

#### Metadata

| Field        | Value    |
|--------------|----------|
| Entrypoint   | 0x010F   |
| Data Size    | 16 bytes |
| Instructions | 2        |

```
      00 01 02 03 04 05 06 07  08 09 0A 0B 0C 0D 0E 0F
      -- -- -- -- -- -- -- --  -- -- -- -- -- -- -- --
0100:                                               66                 f
0110: 03 80 F8 FF FF 7F F8 FF  FF 7F 74 68 6B 31 00     ..........thk1. 
```

#### Opcodes

```
  0: 0x010F [0x66] LOAD_EXT_SCHEDULER_MAIN: Load scheduler "thk1" with entities [EventEntity, EventEntity], work=69*
  1: 0x011E [0x00] END_REQSTACK()
```

### Event 65535.16

#### Metadata

| Field        | Value    |
|--------------|----------|
| Entrypoint   | 0x011F   |
| Data Size    | 14 bytes |
| Instructions | 2        |

```
      00 01 02 03 04 05 06 07  08 09 0A 0B 0C 0D 0E 0F
      -- -- -- -- -- -- -- --  -- -- -- -- -- -- -- --
0110:                                               53                 S
0120: F8 FF FF 7F F8 FF FF 7F  74 68 6B 31 00           ........thk1.   
```

#### Opcodes

```
  0: 0x011F [0x53] WAIT_SCHEDULER_TASK: Wait for scheduler "thk1" with entities [EventEntity, EventEntity]
  1: 0x012C [0x00] END_REQSTACK()
```

### Event 65535.17

#### Metadata

| Field        | Value    |
|--------------|----------|
| Entrypoint   | 0x012D   |
| Data Size    | 16 bytes |
| Instructions | 2        |

```
      00 01 02 03 04 05 06 07  08 09 0A 0B 0C 0D 0E 0F
      -- -- -- -- -- -- -- --  -- -- -- -- -- -- -- --
0120:                                         66 03 80               f..
0130: F8 FF FF 7F F8 FF FF 7F  74 68 6B 32 00           ........thk2.   
```

#### Opcodes

```
  0: 0x012D [0x66] LOAD_EXT_SCHEDULER_MAIN: Load scheduler "thk2" with entities [EventEntity, EventEntity], work=69*
  1: 0x013C [0x00] END_REQSTACK()
```

### Event 65535.18

#### Metadata

| Field        | Value    |
|--------------|----------|
| Entrypoint   | 0x013D   |
| Data Size    | 14 bytes |
| Instructions | 2        |

```
      00 01 02 03 04 05 06 07  08 09 0A 0B 0C 0D 0E 0F
      -- -- -- -- -- -- -- --  -- -- -- -- -- -- -- --
0130:                                         53 F8 FF               S..
0140: FF 7F F8 FF FF 7F 74 68  6B 32 00                 ......thk2.     
```

#### Opcodes

```
  0: 0x013D [0x53] WAIT_SCHEDULER_TASK: Wait for scheduler "thk2" with entities [EventEntity, EventEntity]
  1: 0x014A [0x00] END_REQSTACK()
```

### Event 65535.19

#### Metadata

| Field        | Value    |
|--------------|----------|
| Entrypoint   | 0x014B   |
| Data Size    | 16 bytes |
| Instructions | 2        |

```
      00 01 02 03 04 05 06 07  08 09 0A 0B 0C 0D 0E 0F
      -- -- -- -- -- -- -- --  -- -- -- -- -- -- -- --
0140:                                   66 03 80 F8 FF             f....
0150: FF 7F F8 FF FF 7F 73 68  61 30 00                 ......sha0.     
```

#### Opcodes

```
  0: 0x014B [0x66] LOAD_EXT_SCHEDULER_MAIN: Load scheduler "sha0" with entities [EventEntity, EventEntity], work=69*
  1: 0x015A [0x00] END_REQSTACK()
```

### Event 65535.20

#### Metadata

| Field        | Value    |
|--------------|----------|
| Entrypoint   | 0x015B   |
| Data Size    | 14 bytes |
| Instructions | 2        |

```
      00 01 02 03 04 05 06 07  08 09 0A 0B 0C 0D 0E 0F
      -- -- -- -- -- -- -- --  -- -- -- -- -- -- -- --
0150:                                   53 F8 FF FF 7F             S....
0160: F8 FF FF 7F 73 68 61 30  00                       ....sha0.       
```

#### Opcodes

```
  0: 0x015B [0x53] WAIT_SCHEDULER_TASK: Wait for scheduler "sha0" with entities [EventEntity, EventEntity]
  1: 0x0168 [0x00] END_REQSTACK()
```

### Event 65535.21

#### Metadata

| Field        | Value    |
|--------------|----------|
| Entrypoint   | 0x0169   |
| Data Size    | 16 bytes |
| Instructions | 2        |

```
      00 01 02 03 04 05 06 07  08 09 0A 0B 0C 0D 0E 0F
      -- -- -- -- -- -- -- --  -- -- -- -- -- -- -- --
0160:                             66 03 80 F8 FF FF 7F           f......
0170: F8 FF FF 7F 73 68 61 31  00                       ....sha1.       
```

#### Opcodes

```
  0: 0x0169 [0x66] LOAD_EXT_SCHEDULER_MAIN: Load scheduler "sha1" with entities [EventEntity, EventEntity], work=69*
  1: 0x0178 [0x00] END_REQSTACK()
```

### Event 65535.22

#### Metadata

| Field        | Value    |
|--------------|----------|
| Entrypoint   | 0x0179   |
| Data Size    | 14 bytes |
| Instructions | 2        |

```
      00 01 02 03 04 05 06 07  08 09 0A 0B 0C 0D 0E 0F
      -- -- -- -- -- -- -- --  -- -- -- -- -- -- -- --
0170:                             53 F8 FF FF 7F F8 FF           S......
0180: FF 7F 73 68 61 31 00                              ..sha1.         
```

#### Opcodes

```
  0: 0x0179 [0x53] WAIT_SCHEDULER_TASK: Wait for scheduler "sha1" with entities [EventEntity, EventEntity]
  1: 0x0186 [0x00] END_REQSTACK()
```

### Event 65535.23

#### Metadata

| Field        | Value    |
|--------------|----------|
| Entrypoint   | 0x0187   |
| Data Size    | 16 bytes |
| Instructions | 4        |

```
      00 01 02 03 04 05 06 07  08 09 0A 0B 0C 0D 0E 0F
      -- -- -- -- -- -- -- --  -- -- -- -- -- -- -- --
0180:                      6E  F8 FF FF 7F 04 80 99 F8         n........
0190: FF FF 7F 1C 00 80 00                              .......         
```

#### Opcodes

```
  0: 0x0187 [0x6E] EventEntity uses emote 21*
  1: 0x018E [0x99] Wait for EventEntity animation to complete
  2: 0x0193 [0x1C] WAIT(60* ticks)
  3: 0x0196 [0x00] END_REQSTACK()
```

### Event 65535.24

#### Metadata

| Field        | Value    |
|--------------|----------|
| Entrypoint   | 0x0197   |
| Data Size    | 16 bytes |
| Instructions | 4        |

```
      00 01 02 03 04 05 06 07  08 09 0A 0B 0C 0D 0E 0F
      -- -- -- -- -- -- -- --  -- -- -- -- -- -- -- --
0190:                      6E  F8 FF FF 7F 05 80 99 F8         n........
01A0: FF FF 7F 1C 00 80 00                              .......         
```

#### Opcodes

```
  0: 0x0197 [0x6E] EventEntity uses emote 7*
  1: 0x019E [0x99] Wait for EventEntity animation to complete
  2: 0x01A3 [0x1C] WAIT(60* ticks)
  3: 0x01A6 [0x00] END_REQSTACK()
```

### Event 65535.25

#### Metadata

| Field        | Value    |
|--------------|----------|
| Entrypoint   | 0x01A7   |
| Data Size    | 16 bytes |
| Instructions | 4        |

```
      00 01 02 03 04 05 06 07  08 09 0A 0B 0C 0D 0E 0F
      -- -- -- -- -- -- -- --  -- -- -- -- -- -- -- --
01A0:                      6E  F8 FF FF 7F 06 80 99 F8         n........
01B0: FF FF 7F 1C 00 80 00                              .......         
```

#### Opcodes

```
  0: 0x01A7 [0x6E] EventEntity uses emote 11*
  1: 0x01AE [0x99] Wait for EventEntity animation to complete
  2: 0x01B3 [0x1C] WAIT(60* ticks)
  3: 0x01B6 [0x00] END_REQSTACK()
```

### Event 65535.26

#### Metadata

| Field        | Value    |
|--------------|----------|
| Entrypoint   | 0x01B7   |
| Data Size    | 16 bytes |
| Instructions | 4        |

```
      00 01 02 03 04 05 06 07  08 09 0A 0B 0C 0D 0E 0F
      -- -- -- -- -- -- -- --  -- -- -- -- -- -- -- --
01B0:                      6E  F8 FF FF 7F 07 80 99 F8         n........
01C0: FF FF 7F 1C 00 80 00                              .......         
```

#### Opcodes

```
  0: 0x01B7 [0x6E] EventEntity uses emote 14*
  1: 0x01BE [0x99] Wait for EventEntity animation to complete
  2: 0x01C3 [0x1C] WAIT(60* ticks)
  3: 0x01C6 [0x00] END_REQSTACK()
```

### Event 2

#### Metadata

| Field        | Value    |
|--------------|----------|
| Entrypoint   | 0x01C7   |
| Data Size    | 36 bytes |
| Instructions | 12       |

```
      00 01 02 03 04 05 06 07  08 09 0A 0B 0C 0D 0E 0F
      -- -- -- -- -- -- -- --  -- -- -- -- -- -- -- --
01C0:                      1E  F0 FF FF 7F 6F 70 29 08         .....op).
01D0: A9 A1 10 01 02 1D 08 80  23 03 02 10 09 80 1D 0A  ........#.......
01E0: 80 23 29 08 A9 A1 10 01  04 21 00                 .#)......!.     
```

#### Opcodes

```
  0: 0x01C7 [0x1E] EventEntity looks at LocalPlayer and starts talking
  1: 0x01CC [0x6F] WAIT_FRAME_DELAY: Yield until WaitTime reaches zero
  2: 0x01CD [0x70] WAIT_ENTITY_RENDER_FLAG: Wait while EventEntity->Render.Flags3 bit 2 is set (cancel turn if not)
  3: 0x01CE [0x29] REQ_SET_WAIT(priority=0x08, entity_id=Toppled Tree (ID: 17867177/0x0110A1A9), tag_num=0x02)
  4: 0x01D5 [0x1D] PRINT_EVENT_MESSAGE(message_id=7729*)
    → "The Velkk have a strong presence here. My job is to keep them out of our affairs."
  5: 0x01D8 [0x23] WAIT_FOR_DIALOG_INTERACTION
  6: 0x01D9 [0x03] Work_Zone[2] = 2157*
  7: 0x01DE [0x1D] PRINT_EVENT_MESSAGE(message_id=7730*)
    → "If only there was a registered pioneer with $6 that I could count on--then my job would be easier by malms."
  8: 0x01E1 [0x23] WAIT_FOR_DIALOG_INTERACTION
  9: 0x01E2 [0x29] REQ_SET_WAIT(priority=0x08, entity_id=Toppled Tree (ID: 17867177/0x0110A1A9), tag_num=0x04)
 10: 0x01E9 [0x21] END_EVENT
 11: 0x01EA [0x00] END_REQSTACK()
```

### Event 3

#### Metadata

| Field        | Value     |
|--------------|-----------|
| Entrypoint   | 0x01EB    |
| Data Size    | 136 bytes |
| Instructions | 39        |

```
      00 01 02 03 04 05 06 07  08 09 0A 0B 0C 0D 0E 0F
      -- -- -- -- -- -- -- --  -- -- -- -- -- -- -- --
01E0:                                   42 1E F0 FF FF             B....
01F0: 7F 6F 70 29 08 A9 A1 10  01 02 1D 0B 80 23 1D 0C  .op).........#..
0200: 80 23 29 08 A9 A1 10 01  03 29 08 A9 A1 10 01 04  .#)......)......
0210: 1D 0D 80 23 29 08 A9 A1  10 01 05 29 08 A9 A1 10  ...#)......)....
0220: 01 0F 1D 0E 80 23 1D 0F  80 23 29 08 A9 A1 10 01  .....#...#).....
0230: 10 29 08 A9 A1 10 01 11  1D 10 80 23 29 08 A9 A1  .).........#)...
0240: 10 01 12 29 08 A9 A1 10  01 08 1D 11 80 23 1D 12  ...).........#..
0250: 80 23 1D 13 80 23 29 08  A9 A1 10 01 09 29 08 A9  .#...#)......)..
0260: A1 10 01 0A 1D 14 80 23  29 08 A9 A1 10 01 0B 20  .......#)...... 
0270: 00 21 00                                          .!.             
```

#### Opcodes

```
  0: 0x01EB [0x42] SET_CLI_EVENT_CANCEL_DATA()
  1: 0x01EC [0x1E] EventEntity looks at LocalPlayer and starts talking
  2: 0x01F1 [0x6F] WAIT_FRAME_DELAY: Yield until WaitTime reaches zero
  3: 0x01F2 [0x70] WAIT_ENTITY_RENDER_FLAG: Wait while EventEntity->Render.Flags3 bit 2 is set (cancel turn if not)
  4: 0x01F3 [0x29] REQ_SET_WAIT(priority=0x08, entity_id=Toppled Tree (ID: 17867177/0x0110A1A9), tag_num=0x02)
  5: 0x01FA [0x1D] PRINT_EVENT_MESSAGE(message_id=7731*)
    → "Hold there, pioneer--I'm in need of your aid. Have you ever had the misfortune of squaring off against a Velkk?"
  6: 0x01FD [0x23] WAIT_FOR_DIALOG_INTERACTION
  7: 0x01FE [0x1D] PRINT_EVENT_MESSAGE(message_id=7732*)
    → "Foul beasts, those. Stinky and violent, with an unpredictable streak at that. Maybe a bit stupid, but it's only a matter of time before they turn their spears to Adoulin."
  8: 0x0201 [0x23] WAIT_FOR_DIALOG_INTERACTION
  9: 0x0202 [0x29] REQ_SET_WAIT(priority=0x08, entity_id=Toppled Tree (ID: 17867177/0x0110A1A9), tag_num=0x03)
 10: 0x0209 [0x29] REQ_SET_WAIT(priority=0x08, entity_id=Toppled Tree (ID: 17867177/0x0110A1A9), tag_num=0x04)
 11: 0x0210 [0x1D] PRINT_EVENT_MESSAGE(message_id=7733*)
    → "That's why the coalitions put me here to "keep an eye on them"...and I've noticed something startling."
 12: 0x0213 [0x23] WAIT_FOR_DIALOG_INTERACTION
 13: 0x0214 [0x29] REQ_SET_WAIT(priority=0x08, entity_id=Toppled Tree (ID: 17867177/0x0110A1A9), tag_num=0x05)
 14: 0x021B [0x29] REQ_SET_WAIT(priority=0x08, entity_id=Toppled Tree (ID: 17867177/0x0110A1A9), tag_num=0x0F)
 15: 0x0222 [0x1D] PRINT_EVENT_MESSAGE(message_id=7734*)
    → "They're able to use the ivy that snakes along the side of the cliffs here in Marjami Ravine to scale vertical walls, enabling them to move almost effortlessly from place to place!"
 16: 0x0225 [0x23] WAIT_FOR_DIALOG_INTERACTION
 17: 0x0226 [0x1D] PRINT_EVENT_MESSAGE(message_id=7735*)
    → "I figured that if those brutes can do it, it can't be too hard, right? But the ivy is covered with all manner of thorns and briars, making climbing an exercise in futility."
 18: 0x0229 [0x23] WAIT_FOR_DIALOG_INTERACTION
 19: 0x022A [0x29] REQ_SET_WAIT(priority=0x08, entity_id=Toppled Tree (ID: 17867177/0x0110A1A9), tag_num=0x10)
 20: 0x0231 [0x29] REQ_SET_WAIT(priority=0x08, entity_id=Toppled Tree (ID: 17867177/0x0110A1A9), tag_num=0x11)
 21: 0x0238 [0x1D] PRINT_EVENT_MESSAGE(message_id=7736*)
    → "And then something came to me; what if we could make gloves out of the hides they use? Then we could keep our hands safe for sure."
 22: 0x023B [0x23] WAIT_FOR_DIALOG_INTERACTION
 23: 0x023C [0x29] REQ_SET_WAIT(priority=0x08, entity_id=Toppled Tree (ID: 17867177/0x0110A1A9), tag_num=0x12)
 24: 0x0243 [0x29] REQ_SET_WAIT(priority=0x08, entity_id=Toppled Tree (ID: 17867177/0x0110A1A9), tag_num=0x08)
 25: 0x024A [0x1D] PRINT_EVENT_MESSAGE(message_id=7737*)
    → "I assume I don't have to spell this out, but just in case--I want you to raid one of their encampments and "procure" some of their leather."
 26: 0x024D [0x23] WAIT_FOR_DIALOG_INTERACTION
 27: 0x024E [0x1D] PRINT_EVENT_MESSAGE(message_id=7738*)
    → "On multiple occasions I've seen leather scraps strewn about the outskirts of the encampment of theirs to the southwest."
 28: 0x0251 [0x23] WAIT_FOR_DIALOG_INTERACTION
 29: 0x0252 [0x1D] PRINT_EVENT_MESSAGE(message_id=7739*)
    → "This'll be a dangerous task, to be sure, but I'm sure you've seen worse during your extensive travels of the Middle Lands."
 30: 0x0255 [0x23] WAIT_FOR_DIALOG_INTERACTION
 31: 0x0256 [0x29] REQ_SET_WAIT(priority=0x08, entity_id=Toppled Tree (ID: 17867177/0x0110A1A9), tag_num=0x09)
 32: 0x025D [0x29] REQ_SET_WAIT(priority=0x08, entity_id=Toppled Tree (ID: 17867177/0x0110A1A9), tag_num=0x0A)
 33: 0x0264 [0x1D] PRINT_EVENT_MESSAGE(message_id=7740*)
    → "I'd go myself, but I've been commanded to stay at this post--so help a Galka out, will you?"
 34: 0x0267 [0x23] WAIT_FOR_DIALOG_INTERACTION
 35: 0x0268 [0x29] REQ_SET_WAIT(priority=0x08, entity_id=Toppled Tree (ID: 17867177/0x0110A1A9), tag_num=0x0B)
 36: 0x026F [0x20] SET_CLI_EVENT_UC_FLAG: Unlock player control
 37: 0x0271 [0x21] END_EVENT
 38: 0x0272 [0x00] END_REQSTACK()
```

### Event 4

#### Metadata

| Field        | Value    |
|--------------|----------|
| Entrypoint   | 0x0273   |
| Data Size    | 37 bytes |
| Instructions | 14       |

```
      00 01 02 03 04 05 06 07  08 09 0A 0B 0C 0D 0E 0F
      -- -- -- -- -- -- -- --  -- -- -- -- -- -- -- --
0270:          1E F0 FF FF 7F  6F 70 29 08 A9 A1 10 01     .....op).....
0280: 02 1D 15 80 23 1D 16 80  23 1D 17 80 23 29 08 A9  ....#...#...#)..
0290: A1 10 01 04 20 00 21 00                           .... .!.        
```

#### Opcodes

```
  0: 0x0273 [0x1E] EventEntity looks at LocalPlayer and starts talking
  1: 0x0278 [0x6F] WAIT_FRAME_DELAY: Yield until WaitTime reaches zero
  2: 0x0279 [0x70] WAIT_ENTITY_RENDER_FLAG: Wait while EventEntity->Render.Flags3 bit 2 is set (cancel turn if not)
  3: 0x027A [0x29] REQ_SET_WAIT(priority=0x08, entity_id=Toppled Tree (ID: 17867177/0x0110A1A9), tag_num=0x02)
  4: 0x0281 [0x1D] PRINT_EVENT_MESSAGE(message_id=7741*)
    → "The Velkk process most of their leather in an encampment to the southwest. I'd bet my tunic that you'll find some quality material there."
  5: 0x0284 [0x23] WAIT_FOR_DIALOG_INTERACTION
  6: 0x0285 [0x1D] PRINT_EVENT_MESSAGE(message_id=7742*)
    → "If I'm right, we'll be able to craft us some gloves that'll let us climb the ivy ourselves."
  7: 0x0288 [0x23] WAIT_FOR_DIALOG_INTERACTION
  8: 0x0289 [0x1D] PRINT_EVENT_MESSAGE(message_id=7743*)
    → "The thorns should pose no issue then. So get out there and bring me back that hide!"
  9: 0x028C [0x23] WAIT_FOR_DIALOG_INTERACTION
 10: 0x028D [0x29] REQ_SET_WAIT(priority=0x08, entity_id=Toppled Tree (ID: 17867177/0x0110A1A9), tag_num=0x04)
 11: 0x0294 [0x20] SET_CLI_EVENT_UC_FLAG: Unlock player control
 12: 0x0296 [0x21] END_EVENT
 13: 0x0297 [0x00] END_REQSTACK()
```

### Event 5

#### Metadata

| Field        | Value     |
|--------------|-----------|
| Entrypoint   | 0x0298    |
| Data Size    | 104 bytes |
| Instructions | 29        |

```
      00 01 02 03 04 05 06 07  08 09 0A 0B 0C 0D 0E 0F
      -- -- -- -- -- -- -- --  -- -- -- -- -- -- -- --
0290:                          42 1E F0 FF FF 7F 6F 70          B.....op
02A0: 27 08 A9 A1 10 01 0C 1D  18 80 23 2A 08 A9 A1 10  '.........#*....
02B0: 01 27 08 A9 A1 10 01 18  1D 19 80 23 1D 1A 80 23  .'.........#...#
02C0: 2A 08 A9 A1 10 01 29 08  A9 A1 10 01 0F 1D 1B 80  *.....).........
02D0: 23 29 08 A9 A1 10 01 10  29 08 A9 A1 10 01 11 1D  #)......).......
02E0: 1C 80 23 29 08 A9 A1 10  01 12 29 08 A9 A1 10 01  ..#)......).....
02F0: 02 1D 1D 80 23 29 08 A9  A1 10 01 04 20 00 21 00  ....#)...... .!.
```

#### Opcodes

```
  0: 0x0298 [0x42] SET_CLI_EVENT_CANCEL_DATA()
  1: 0x0299 [0x1E] EventEntity looks at LocalPlayer and starts talking
  2: 0x029E [0x6F] WAIT_FRAME_DELAY: Yield until WaitTime reaches zero
  3: 0x029F [0x70] WAIT_ENTITY_RENDER_FLAG: Wait while EventEntity->Render.Flags3 bit 2 is set (cancel turn if not)
  4: 0x02A0 [0x27] REQ_SET(priority=0x08, entity_id=Toppled Tree (ID: 17867177/0x0110A1A9), tag_num=0x0C)
  5: 0x02A7 [0x1D] PRINT_EVENT_MESSAGE(message_id=7745*)
    → "You're back! Did you get what I asked for? Yes, this is some high-quality leather."
  6: 0x02AA [0x23] WAIT_FOR_DIALOG_INTERACTION
  7: 0x02AB [0x2A] GET_REQ_LEVEL(level=8, entity_id=Toppled Tree (ID: 17867177/0x0110A1A9))
  8: 0x02B1 [0x27] REQ_SET(priority=0x08, entity_id=Toppled Tree (ID: 17867177/0x0110A1A9), tag_num=0x18)
  9: 0x02B8 [0x1D] PRINT_EVENT_MESSAGE(message_id=7746*)
    → "Soft to the touch, yet firm and resilient. No wonder they were able to climb that ivy like you or I would climb rope!"
 10: 0x02BB [0x23] WAIT_FOR_DIALOG_INTERACTION
 11: 0x02BC [0x1D] PRINT_EVENT_MESSAGE(message_id=7747*)
    → "I'll just have to make us a couple of pairs of gloves out of this and we'll be scaling the cliffs in no time!"
 12: 0x02BF [0x23] WAIT_FOR_DIALOG_INTERACTION
 13: 0x02C0 [0x2A] GET_REQ_LEVEL(level=8, entity_id=Toppled Tree (ID: 17867177/0x0110A1A9))
 14: 0x02C6 [0x29] REQ_SET_WAIT(priority=0x08, entity_id=Toppled Tree (ID: 17867177/0x0110A1A9), tag_num=0x0F)
 15: 0x02CD [0x1D] PRINT_EVENT_MESSAGE(message_id=7748*)
    → "Talk about perfect! Udip Ferawoh said she'd take over my post for a little bit in case I needed a break--which I'll use to give this another go!"
 16: 0x02D0 [0x23] WAIT_FOR_DIALOG_INTERACTION
 17: 0x02D1 [0x29] REQ_SET_WAIT(priority=0x08, entity_id=Toppled Tree (ID: 17867177/0x0110A1A9), tag_num=0x10)
 18: 0x02D8 [0x29] REQ_SET_WAIT(priority=0x08, entity_id=Toppled Tree (ID: 17867177/0x0110A1A9), tag_num=0x11)
 19: 0x02DF [0x1D] PRINT_EVENT_MESSAGE(message_id=7749*)
    → "I've got to make some preparations first, though."
 20: 0x02E2 [0x23] WAIT_FOR_DIALOG_INTERACTION
 21: 0x02E3 [0x29] REQ_SET_WAIT(priority=0x08, entity_id=Toppled Tree (ID: 17867177/0x0110A1A9), tag_num=0x12)
 22: 0x02EA [0x29] REQ_SET_WAIT(priority=0x08, entity_id=Toppled Tree (ID: 17867177/0x0110A1A9), tag_num=0x02)
 23: 0x02F1 [0x1D] PRINT_EVENT_MESSAGE(message_id=7750*)
    → "You interested in coming, too? Once I'm ready, I'll be heading off to the southwest of here, where the closest patch of ivy grows. Maybe I'll see you there."
 24: 0x02F4 [0x23] WAIT_FOR_DIALOG_INTERACTION
 25: 0x02F5 [0x29] REQ_SET_WAIT(priority=0x08, entity_id=Toppled Tree (ID: 17867177/0x0110A1A9), tag_num=0x04)
 26: 0x02FC [0x20] SET_CLI_EVENT_UC_FLAG: Unlock player control
 27: 0x02FE [0x21] END_EVENT
 28: 0x02FF [0x00] END_REQSTACK()
```

### Event 6

#### Metadata

| Field        | Value    |
|--------------|----------|
| Entrypoint   | 0x0300   |
| Data Size    | 33 bytes |
| Instructions | 12       |

```
      00 01 02 03 04 05 06 07  08 09 0A 0B 0C 0D 0E 0F
      -- -- -- -- -- -- -- --  -- -- -- -- -- -- -- --
0300: 1E F0 FF FF 7F 6F 70 29  08 A9 A1 10 01 02 1D 1E  .....op)........
0310: 80 23 1D 1F 80 23 29 08  A9 A1 10 01 04 20 00 21  .#...#)...... .!
0320: 00                                                .               
```

#### Opcodes

```
  0: 0x0300 [0x1E] EventEntity looks at LocalPlayer and starts talking
  1: 0x0305 [0x6F] WAIT_FRAME_DELAY: Yield until WaitTime reaches zero
  2: 0x0306 [0x70] WAIT_ENTITY_RENDER_FLAG: Wait while EventEntity->Render.Flags3 bit 2 is set (cancel turn if not)
  3: 0x0307 [0x29] REQ_SET_WAIT(priority=0x08, entity_id=Toppled Tree (ID: 17867177/0x0110A1A9), tag_num=0x02)
  4: 0x030E [0x1D] PRINT_EVENT_MESSAGE(message_id=7751*)
    → "I'm going to try my hand at climbing the ivy again now that I can make those gloves. If you've got a spare moment, I'd like for you to be there, too."
  5: 0x0311 [0x23] WAIT_FOR_DIALOG_INTERACTION
  6: 0x0312 [0x1D] PRINT_EVENT_MESSAGE(message_id=7752*)
    → "The closest place to try them out is southwest of here. By Altana, this is going to be quite the ride!"
  7: 0x0315 [0x23] WAIT_FOR_DIALOG_INTERACTION
  8: 0x0316 [0x29] REQ_SET_WAIT(priority=0x08, entity_id=Toppled Tree (ID: 17867177/0x0110A1A9), tag_num=0x04)
  9: 0x031D [0x20] SET_CLI_EVENT_UC_FLAG: Unlock player control
 10: 0x031F [0x21] END_EVENT
 11: 0x0320 [0x00] END_REQSTACK()
```

### Event 7

#### Metadata

| Field        | Value   |
|--------------|---------|
| Entrypoint   | 0x0321  |
| Data Size    | 1 bytes |
| Instructions | 1       |

```
      00 01 02 03 04 05 06 07  08 09 0A 0B 0C 0D 0E 0F
      -- -- -- -- -- -- -- --  -- -- -- -- -- -- -- --
0320:    00                                              .              
```

#### Opcodes

```
  0: 0x0321 [0x00] END_REQSTACK()
```

### Event 8

#### Metadata

| Field        | Value    |
|--------------|----------|
| Entrypoint   | 0x0322   |
| Data Size    | 33 bytes |
| Instructions | 12       |

```
      00 01 02 03 04 05 06 07  08 09 0A 0B 0C 0D 0E 0F
      -- -- -- -- -- -- -- --  -- -- -- -- -- -- -- --
0320:       1E F0 FF FF 7F 6F  70 29 08 A9 A1 10 01 02    .....op)......
0330: 1D 20 80 23 1D 21 80 23  29 08 A9 A1 10 01 04 20  . .#.!.#)...... 
0340: 00 21 00                                          .!.             
```

#### Opcodes

```
  0: 0x0322 [0x1E] EventEntity looks at LocalPlayer and starts talking
  1: 0x0327 [0x6F] WAIT_FRAME_DELAY: Yield until WaitTime reaches zero
  2: 0x0328 [0x70] WAIT_ENTITY_RENDER_FLAG: Wait while EventEntity->Render.Flags3 bit 2 is set (cancel turn if not)
  3: 0x0329 [0x29] REQ_SET_WAIT(priority=0x08, entity_id=Toppled Tree (ID: 17867177/0x0110A1A9), tag_num=0x02)
  4: 0x0330 [0x1D] PRINT_EVENT_MESSAGE(message_id=7771*)
    → "Putting those skills you learned in that Goddessforsaken hole to good use? Must come in handy during your treks around Eastern Ulbuka."
  5: 0x0333 [0x23] WAIT_FOR_DIALOG_INTERACTION
  6: 0x0334 [0x1D] PRINT_EVENT_MESSAGE(message_id=7772*)
    → "I know that I've got a ways to go--but I'll get there someday."
  7: 0x0337 [0x23] WAIT_FOR_DIALOG_INTERACTION
  8: 0x0338 [0x29] REQ_SET_WAIT(priority=0x08, entity_id=Toppled Tree (ID: 17867177/0x0110A1A9), tag_num=0x04)
  9: 0x033F [0x20] SET_CLI_EVENT_UC_FLAG: Unlock player control
 10: 0x0341 [0x21] END_EVENT
 11: 0x0342 [0x00] END_REQSTACK()
```

### Event 65535.27

#### Metadata

| Field        | Value    |
|--------------|----------|
| Entrypoint   | 0x0343   |
| Data Size    | 10 bytes |
| Instructions | 2        |

```
      00 01 02 03 04 05 06 07  08 09 0A 0B 0C 0D 0E 0F
      -- -- -- -- -- -- -- --  -- -- -- -- -- -- -- --
0340:          37 22 80 23 80  24 80 25 80 00              7".#.$.%..   
```

#### Opcodes

```
  0: 0x0343 [0x37] UPDATE_EVENT_POSITION_AND_DIR: x=268.142*, z=92.196*, y=-40.004*, direction=0.0°*
  1: 0x034C [0x00] END_REQSTACK()
```

### Event 65535.28

#### Metadata

| Field        | Value    |
|--------------|----------|
| Entrypoint   | 0x034D   |
| Data Size    | 10 bytes |
| Instructions | 2        |

```
      00 01 02 03 04 05 06 07  08 09 0A 0B 0C 0D 0E 0F
      -- -- -- -- -- -- -- --  -- -- -- -- -- -- -- --
0340:                                         37 26 80               7&.
0350: 27 80 28 80 29 80 00                              '.(.)..         
```

#### Opcodes

```
  0: 0x034D [0x37] UPDATE_EVENT_POSITION_AND_DIR: x=263.277*, z=100.419*, y=-40.000*, direction=59.1°*
  1: 0x0356 [0x00] END_REQSTACK()
```

### Event 65535.29

#### Metadata

| Field        | Value    |
|--------------|----------|
| Entrypoint   | 0x0357   |
| Data Size    | 21 bytes |
| Instructions | 7        |

```
      00 01 02 03 04 05 06 07  08 09 0A 0B 0C 0D 0E 0F
      -- -- -- -- -- -- -- --  -- -- -- -- -- -- -- --
0350:                      32  2A 80 1F 00 2B 80 2C 80         2*...+.,.
0360: 2D 80 1F 01 1E F0 FF FF  7F 6F 70 00              -........op.    
```

#### Opcodes

```
  0: 0x0357 [0x32] ExtData[1]->MainSpeed = 13* * 0.1
  1: 0x035A [0x1F] MOVE_ENTITY: EventEntity moves to X=268.074*, Z=93.596*, Y=-40.034*
  2: 0x0362 [0x1F] MOVE_ENTITY: Update entity position (mode=1)
  3: 0x0364 [0x1E] EventEntity looks at LocalPlayer and starts talking
  4: 0x0369 [0x6F] WAIT_FRAME_DELAY: Yield until WaitTime reaches zero
  5: 0x036A [0x70] WAIT_ENTITY_RENDER_FLAG: Wait while EventEntity->Render.Flags3 bit 2 is set (cancel turn if not)
  6: 0x036B [0x00] END_REQSTACK()
```

### Event 65535.30

#### Metadata

| Field        | Value    |
|--------------|----------|
| Entrypoint   | 0x036C   |
| Data Size    | 14 bytes |
| Instructions | 4        |

```
      00 01 02 03 04 05 06 07  08 09 0A 0B 0C 0D 0E 0F
      -- -- -- -- -- -- -- --  -- -- -- -- -- -- -- --
0360:                                      33 01 37 2E              3.7.
0370: 80 2F 80 30 80 31 80 33  01 00                    ./.0.1.3..      
```

#### Opcodes

```
  0: 0x036C [0x33] EventEntity->Render.Flags0 |= 0x200000 // Bit 21 (flag=0x01)
  1: 0x036E [0x37] UPDATE_EVENT_POSITION_AND_DIR: x=267.082*, z=93.000*, y=-40.934*, direction=183.9°*
  2: 0x0377 [0x33] EventEntity->Render.Flags0 |= 0x200000 // Bit 21 (flag=0x01)
  3: 0x0379 [0x00] END_REQSTACK()
```

### Event 65535.31

#### Metadata

| Field        | Value    |
|--------------|----------|
| Entrypoint   | 0x037A   |
| Data Size    | 14 bytes |
| Instructions | 4        |

```
      00 01 02 03 04 05 06 07  08 09 0A 0B 0C 0D 0E 0F
      -- -- -- -- -- -- -- --  -- -- -- -- -- -- -- --
0370:                                33 00 37 32 80 33            3.72.3
0380: 80 28 80 34 80 33 00 00                           .(.4.3..        
```

#### Opcodes

```
  0: 0x037A [0x33] EventEntity->Render.Flags0 &= ~ 0x200000 // Bit 21 (flag=0x00)
  1: 0x037C [0x37] UPDATE_EVENT_POSITION_AND_DIR: x=261.679*, z=99.412*, y=-40.000*, direction=59.1°*
  2: 0x0385 [0x33] EventEntity->Render.Flags0 &= ~ 0x200000 // Bit 21 (flag=0x00)
  3: 0x0387 [0x00] END_REQSTACK()
```

### Event 65535.32

#### Metadata

| Field        | Value    |
|--------------|----------|
| Entrypoint   | 0x0388   |
| Data Size    | 10 bytes |
| Instructions | 2        |

```
      00 01 02 03 04 05 06 07  08 09 0A 0B 0C 0D 0E 0F
      -- -- -- -- -- -- -- --  -- -- -- -- -- -- -- --
0380:                          37 35 80 36 80 37 80 38          75.6.7.8
0390: 80 00                                             ..              
```

#### Opcodes

```
  0: 0x0388 [0x37] UPDATE_EVENT_POSITION_AND_DIR: x=268.874*, z=92.564*, y=-40.045*, direction=28.3°*
  1: 0x0391 [0x00] END_REQSTACK()
```

### Event 51

#### Metadata

| Field        | Value   |
|--------------|---------|
| Entrypoint   | 0x0392  |
| Data Size    | 1 bytes |
| Instructions | 1       |

```
      00 01 02 03 04 05 06 07  08 09 0A 0B 0C 0D 0E 0F
      -- -- -- -- -- -- -- --  -- -- -- -- -- -- -- --
0390:       00                                            .             
```

#### Opcodes

```
  0: 0x0392 [0x00] END_REQSTACK()
```

### Event 65535.33

#### Metadata

| Field        | Value    |
|--------------|----------|
| Entrypoint   | 0x0393   |
| Data Size    | 10 bytes |
| Instructions | 2        |

```
      00 01 02 03 04 05 06 07  08 09 0A 0B 0C 0D 0E 0F
      -- -- -- -- -- -- -- --  -- -- -- -- -- -- -- --
0390:          37 39 80 3A 80  3B 80 3C 80 00              79.:.;.<..   
```

#### Opcodes

```
  0: 0x0393 [0x37] UPDATE_EVENT_POSITION_AND_DIR: x=363.178*, z=145.213*, y=-59.453*, direction=36.5°*
  1: 0x039C [0x00] END_REQSTACK()
```

### Event 65535.34

#### Metadata

| Field        | Value    |
|--------------|----------|
| Entrypoint   | 0x039D   |
| Data Size    | 24 bytes |
| Instructions | 8        |

```
      00 01 02 03 04 05 06 07  08 09 0A 0B 0C 0D 0E 0F
      -- -- -- -- -- -- -- --  -- -- -- -- -- -- -- --
0390:                                         32 2A 80               2*.
03A0: 1F 00 3D 80 3E 80 3F 80  1F 01 1C 40 80 1E F0 FF  ..=.>.?....@....
03B0: FF 7F 6F 70 00                                    ..op.           
```

#### Opcodes

```
  0: 0x039D [0x32] ExtData[1]->MainSpeed = 13* * 0.1
  1: 0x03A0 [0x1F] MOVE_ENTITY: EventEntity moves to X=367.873*, Z=143.971*, Y=-59.101*
  2: 0x03A8 [0x1F] MOVE_ENTITY: Update entity position (mode=1)
  3: 0x03AA [0x1C] WAIT(10* ticks)
  4: 0x03AD [0x1E] EventEntity looks at LocalPlayer and starts talking
  5: 0x03B2 [0x6F] WAIT_FRAME_DELAY: Yield until WaitTime reaches zero
  6: 0x03B3 [0x70] WAIT_ENTITY_RENDER_FLAG: Wait while EventEntity->Render.Flags3 bit 2 is set (cancel turn if not)
  7: 0x03B4 [0x00] END_REQSTACK()
```

### Event 65535.35

#### Metadata

| Field        | Value    |
|--------------|----------|
| Entrypoint   | 0x03B5   |
| Data Size    | 14 bytes |
| Instructions | 4        |

```
      00 01 02 03 04 05 06 07  08 09 0A 0B 0C 0D 0E 0F
      -- -- -- -- -- -- -- --  -- -- -- -- -- -- -- --
03B0:                32 2A 80  1F 00 41 80 42 80 43 80       2*...A.B.C.
03C0: 1F 01 00                                          ...             
```

#### Opcodes

```
  0: 0x03B5 [0x32] ExtData[1]->MainSpeed = 13* * 0.1
  1: 0x03B8 [0x1F] MOVE_ENTITY: EventEntity moves to X=369.102*, Z=143.637*, Y=-59.085*
  2: 0x03C0 [0x1F] MOVE_ENTITY: Update entity position (mode=1)
  3: 0x03C2 [0x00] END_REQSTACK()
```

### Event 65535.36

#### Metadata

| Field        | Value    |
|--------------|----------|
| Entrypoint   | 0x03C3   |
| Data Size    | 39 bytes |
| Instructions | 4        |

```
      00 01 02 03 04 05 06 07  08 09 0A 0B 0C 0D 0E 0F
      -- -- -- -- -- -- -- --  -- -- -- -- -- -- -- --
03C0:          66 03 80 F8 FF  FF 7F F8 FF FF 7F 73 68     f..........sh
03D0: 61 31 53 F8 FF FF 7F F8  FF FF 7F 73 68 61 31 79  a1S........sha1y
03E0: 00 F8 FF FF 7F AB A1 10  01 00                    ..........      
```

#### Opcodes

```
  0: 0x03C3 [0x66] LOAD_EXT_SCHEDULER_MAIN: Load scheduler "sha1" with entities [EventEntity, EventEntity], work=69*
  1: 0x03D2 [0x53] WAIT_SCHEDULER_TASK: Wait for scheduler "sha1" with entities [EventEntity, EventEntity]
  2: 0x03DF [0x79] EventEntity looks at Udip Ferawoh (ID: 17867179/0x0110A1AB) (Basic look)
  3: 0x03E9 [0x00] END_REQSTACK()
```

### Event 65535.37

#### Metadata

| Field        | Value    |
|--------------|----------|
| Entrypoint   | 0x03EA   |
| Data Size    | 10 bytes |
| Instructions | 2        |

```
      00 01 02 03 04 05 06 07  08 09 0A 0B 0C 0D 0E 0F
      -- -- -- -- -- -- -- --  -- -- -- -- -- -- -- --
03E0:                                37 44 80 45 80 46            7D.E.F
03F0: 80 47 80 00                                       .G..            
```

#### Opcodes

```
  0: 0x03EA [0x37] UPDATE_EVENT_POSITION_AND_DIR: x=367.163*, z=142.630*, y=-59.064*, direction=19.1°*
  1: 0x03F3 [0x00] END_REQSTACK()
```

### Event 65535.38

#### Metadata

| Field        | Value    |
|--------------|----------|
| Entrypoint   | 0x03F4   |
| Data Size    | 14 bytes |
| Instructions | 4        |

```
      00 01 02 03 04 05 06 07  08 09 0A 0B 0C 0D 0E 0F
      -- -- -- -- -- -- -- --  -- -- -- -- -- -- -- --
03F0:             32 2A 80 1F  00 48 80 49 80 4A 80 1F      2*...H.I.J..
0400: 01 00                                             ..              
```

#### Opcodes

```
  0: 0x03F4 [0x32] ExtData[1]->MainSpeed = 13* * 0.1
  1: 0x03F7 [0x1F] MOVE_ENTITY: EventEntity moves to X=368.901*, Z=142.082*, Y=-59.001*
  2: 0x03FF [0x1F] MOVE_ENTITY: Update entity position (mode=1)
  3: 0x0401 [0x00] END_REQSTACK()
```

### Event 65535.39

#### Metadata

| Field        | Value    |
|--------------|----------|
| Entrypoint   | 0x0402   |
| Data Size    | 10 bytes |
| Instructions | 2        |

```
      00 01 02 03 04 05 06 07  08 09 0A 0B 0C 0D 0E 0F
      -- -- -- -- -- -- -- --  -- -- -- -- -- -- -- --
0400:       37 4B 80 4C 80 4D  80 4E 80 00                7K.L.M.N..    
```

#### Opcodes

```
  0: 0x0402 [0x37] UPDATE_EVENT_POSITION_AND_DIR: x=368.334*, z=142.793*, y=-59.024*, direction=34.4°*
  1: 0x040B [0x00] END_REQSTACK()
```
