# 17867205 - Veldeth

## Common Data

| Field            | Value                    |
|------------------|--------------------------|
| Zone             | Marjami Ravine (ID: 266) |
| Block Size       | 788 bytes                |
| Total Events     | 9                        |
| References Count | 32                       |

## List of Events

| Event ID              | Entrypoint   |   Size |   Instructions |
|-----------------------|--------------|--------|----------------|
| [65535](#event-65535) | 0x0000       |      1 |              1 |
| [39](#event-39)       | 0x0001       |     43 |              9 |
| [38](#event-38)       | 0x002C       |     48 |             10 |
| [40](#event-40)       | 0x005C       |     88 |             26 |
| [42](#event-42)       | 0x00B4       |     64 |             14 |
| [41](#event-41)       | 0x00F4       |     77 |             19 |
| [44](#event-44)       | 0x0141       |     80 |             16 |
| [43](#event-43)       | 0x0191       |     58 |             12 |
| [62](#event-62)       | 0x01CB       |    149 |             33 |

## DAT References (imed_data)

|   Index | Hex Value   |   Dec Value |
|---------|-------------|-------------|
|       0 | 0x001D      |          29 |
|       1 | 0x1E86      |        7814 |
|       2 | 0x086D      |        2157 |
|       3 | 0x1E85      |        7813 |
|       4 | 0x1E87      |        7815 |
|       5 | 0x1E88      |        7816 |
|       6 | 0x0F58      |        3928 |
|       7 | 0x0F59      |        3929 |
|       8 | 0x0002      |           2 |
|       9 | 0x1E89      |        7817 |
|      10 | 0x1E8A      |        7818 |
|      11 | 0x1E8B      |        7819 |
|      12 | 0x1E8C      |        7820 |
|      13 | 0x1E8D      |        7821 |
|      14 | 0x0001      |           1 |
|      15 | 0x1E93      |        7827 |
|      16 | 0x1E8E      |        7822 |
|      17 | 0x1E8F      |        7823 |
|      18 | 0x1E90      |        7824 |
|      19 | 0x1E91      |        7825 |
|      20 | 0x1E92      |        7826 |
|      21 | 0x00C9      |         201 |
|      22 | 0x0000      |           0 |
|      23 | 0x2019      |        8217 |
|      24 | 0x201A      |        8218 |
|      25 | 0x201B      |        8219 |
|      26 | 0x201C      |        8220 |
|      27 | 0x0014      |          20 |
|      28 | 0x00E6      |         230 |
|      29 | 0x2013      |        8211 |
|      30 | 0x201D      |        8221 |
|      31 | 0x201E      |        8222 |

## String References

- **7813**: How quaint. A stranger in these lands, without so much as $6 to prove [his/her] worth. Begone until you have procured the requisite authentication.
- **7814**: A registered pioneer you may be, but I have never heard so much as a peep about your exploits. Begone, wanderer, and find one with less critical tasks to give you.
- **7815**: <Player>, is it not? Yes, tales of your exploits have reached my ears. I, Veldeth, am the Peacekeepers' eyes and ears here in Marjami Ravine.
- **7816**: I have a special coalition assignment direct from the Peacekeepers for one as storied as yourself.
- **7817**: I require that you secure Velkk equipment to prove that you have helped cement our operations in this area. A total of $2 $0 or $1 should suffice.
- **7818**: Our objective is to weaken their fighting capabilities so that they cease to be a threat to the colonization effort. I care not by what means you obtain these accouterments, but vanquishing them in battle is surely the quickest method.
- **7819**: I hesitate to use the word "massacre," but if that is what you must do to them, then so be it.
- **7820**: You would be doing me...<cough> Adoulin a great service.
- **7821**: If you have no questions, then I recommend you get started right away. They certainly will not part with their equipment willingly!
- **7822**: Yes, these will do nicely. Excellent work.
- **7823**: How many did you slaughter? Tens? Hundreds?
- **7824**: Forgive my transgression. I did, after all, let you choose your method of acquisition.
- **7825**: What a splendid favor you have done me this day. I have avenged my wife, and hopefully she can be at peace.
- **7826**: You see, she... No, I will not burden you with such a sordid tale.
- **7827**: Should you happen to come across $0 or $1 again, you only need bring them to me.
- **8211**: You receive a blessing.
- **8217**: Forgive me my meddling, good [sir/lady], but I sense a disturbing aura of Velkk corruption about you.
- **8218**: Surely you cannot mean to clash with them in such a vile state. Permit me to perform a ritual that will cause this odious influence to wane.
- **8219**: Remove the Velkk curse? [Yes. Get it off!/I've kinda grown used to it...]
- **8220**: Then let our fervent orisons reach the ears of Altana herself...!
- **8221**: The ominous energies have been quelled. Hmm...the Velkk may not all be as simplistic as we first thought.
- **8222**: As imprudent as your decision is, your path is for you alone to decide.

## Events

### Event 65535

#### Metadata

| Field        | Value   |
|--------------|---------|
| Entrypoint   | 0x0000  |
| Data Size    | 1 bytes |
| Instructions | 1       |

```
      00 01 02 03 04 05 06 07  08 09 0A 0B 0C 0D 0E 0F
      -- -- -- -- -- -- -- --  -- -- -- -- -- -- -- --
0000: 00                                                .               
```

#### Opcodes

```
  0: 0x0000 [0x00] END_REQSTACK()
```

### Event 39

#### Metadata

| Field        | Value    |
|--------------|----------|
| Entrypoint   | 0x0001   |
| Data Size    | 43 bytes |
| Instructions | 9        |

```
      00 01 02 03 04 05 06 07  08 09 0A 0B 0C 0D 0E 0F
      -- -- -- -- -- -- -- --  -- -- -- -- -- -- -- --
0000:    1E F0 FF FF 7F 6F 70  66 00 80 F8 FF FF 7F F8   .....opf.......
0010: FF FF 7F 74 77 62 30 1D  01 80 23 66 00 80 F8 FF  ...twb0...#f....
0020: FF 7F F8 FF FF 7F 74 77  62 31 21 00              ......twb1!.    
```

#### Opcodes

```
  0: 0x0001 [0x1E] EventEntity looks at LocalPlayer and starts talking
  1: 0x0006 [0x6F] WAIT_FRAME_DELAY: Yield until WaitTime reaches zero
  2: 0x0007 [0x70] WAIT_ENTITY_RENDER_FLAG: Wait while EventEntity->Render.Flags3 bit 2 is set (cancel turn if not)
  3: 0x0008 [0x66] LOAD_EXT_SCHEDULER_MAIN: Load scheduler "twb0" with entities [EventEntity, EventEntity], work=29*
  4: 0x0017 [0x1D] PRINT_EVENT_MESSAGE(message_id=7814*)
    → "A registered pioneer you may be, but I have never heard so much as a peep about your exploits. Begone, wanderer, and find one with less critical tasks to give you."
  5: 0x001A [0x23] WAIT_FOR_DIALOG_INTERACTION
  6: 0x001B [0x66] LOAD_EXT_SCHEDULER_MAIN: Load scheduler "twb1" with entities [EventEntity, EventEntity], work=29*
  7: 0x002A [0x21] END_EVENT
  8: 0x002B [0x00] END_REQSTACK()
```

### Event 38

#### Metadata

| Field        | Value    |
|--------------|----------|
| Entrypoint   | 0x002C   |
| Data Size    | 48 bytes |
| Instructions | 10       |

```
      00 01 02 03 04 05 06 07  08 09 0A 0B 0C 0D 0E 0F
      -- -- -- -- -- -- -- --  -- -- -- -- -- -- -- --
0020:                                      1E F0 FF FF              ....
0030: 7F 6F 70 66 00 80 F8 FF  FF 7F F8 FF FF 7F 74 77  .opf..........tw
0040: 62 30 03 02 10 02 80 1D  03 80 23 66 00 80 F8 FF  b0........#f....
0050: FF 7F F8 FF FF 7F 74 77  62 31 21 00              ......twb1!.    
```

#### Opcodes

```
  0: 0x002C [0x1E] EventEntity looks at LocalPlayer and starts talking
  1: 0x0031 [0x6F] WAIT_FRAME_DELAY: Yield until WaitTime reaches zero
  2: 0x0032 [0x70] WAIT_ENTITY_RENDER_FLAG: Wait while EventEntity->Render.Flags3 bit 2 is set (cancel turn if not)
  3: 0x0033 [0x66] LOAD_EXT_SCHEDULER_MAIN: Load scheduler "twb0" with entities [EventEntity, EventEntity], work=29*
  4: 0x0042 [0x03] Work_Zone[2] = 2157*
  5: 0x0047 [0x1D] PRINT_EVENT_MESSAGE(message_id=7813*)
    → "How quaint. A stranger in these lands, without so much as $6 to prove [his/her] worth. Begone until you have procured the requisite authentication."
  6: 0x004A [0x23] WAIT_FOR_DIALOG_INTERACTION
  7: 0x004B [0x66] LOAD_EXT_SCHEDULER_MAIN: Load scheduler "twb1" with entities [EventEntity, EventEntity], work=29*
  8: 0x005A [0x21] END_EVENT
  9: 0x005B [0x00] END_REQSTACK()
```

### Event 40

#### Metadata

| Field        | Value    |
|--------------|----------|
| Entrypoint   | 0x005C   |
| Data Size    | 88 bytes |
| Instructions | 26       |

```
      00 01 02 03 04 05 06 07  08 09 0A 0B 0C 0D 0E 0F
      -- -- -- -- -- -- -- --  -- -- -- -- -- -- -- --
0050:                                      1E F0 FF FF              ....
0060: 7F 42 6F 70 66 00 80 F8  FF FF 7F F8 FF FF 7F 74  .Bopf..........t
0070: 77 62 30 1D 04 80 23 1D  05 80 23 03 02 10 06 80  wb0...#...#.....
0080: 03 03 10 07 80 03 04 10  08 80 1D 09 80 23 1D 0A  .............#..
0090: 80 23 1D 0B 80 23 1D 0C  80 23 1D 0D 80 23 66 00  .#...#...#...#f.
00A0: 80 F8 FF FF 7F F8 FF FF  7F 74 77 62 31 03 01 10  .........twb1...
00B0: 0E 80 21 00                                       ..!.            
```

#### Opcodes

```
  0: 0x005C [0x1E] EventEntity looks at LocalPlayer and starts talking
  1: 0x0061 [0x42] SET_CLI_EVENT_CANCEL_DATA()
  2: 0x0062 [0x6F] WAIT_FRAME_DELAY: Yield until WaitTime reaches zero
  3: 0x0063 [0x70] WAIT_ENTITY_RENDER_FLAG: Wait while EventEntity->Render.Flags3 bit 2 is set (cancel turn if not)
  4: 0x0064 [0x66] LOAD_EXT_SCHEDULER_MAIN: Load scheduler "twb0" with entities [EventEntity, EventEntity], work=29*
  5: 0x0073 [0x1D] PRINT_EVENT_MESSAGE(message_id=7815*)
    → "<Player>, is it not? Yes, tales of your exploits have reached my ears. I, Veldeth, am the Peacekeepers' eyes and ears here in Marjami Ravine."
  6: 0x0076 [0x23] WAIT_FOR_DIALOG_INTERACTION
  7: 0x0077 [0x1D] PRINT_EVENT_MESSAGE(message_id=7816*)
    → "I have a special coalition assignment direct from the Peacekeepers for one as storied as yourself."
  8: 0x007A [0x23] WAIT_FOR_DIALOG_INTERACTION
  9: 0x007B [0x03] Work_Zone[2] = 3928*
 10: 0x0080 [0x03] Work_Zone[3] = 3929*
 11: 0x0085 [0x03] Work_Zone[4] = 2*
 12: 0x008A [0x1D] PRINT_EVENT_MESSAGE(message_id=7817*)
    → "I require that you secure Velkk equipment to prove that you have helped cement our operations in this area. A total of $2 $0 or $1 should suffice."
 13: 0x008D [0x23] WAIT_FOR_DIALOG_INTERACTION
 14: 0x008E [0x1D] PRINT_EVENT_MESSAGE(message_id=7818*)
    → "Our objective is to weaken their fighting capabilities so that they cease to be a threat to the colonization effort. I care not by what means you obtain these accouterments, but vanquishing them in battle is surely the quickest method."
 15: 0x0091 [0x23] WAIT_FOR_DIALOG_INTERACTION
 16: 0x0092 [0x1D] PRINT_EVENT_MESSAGE(message_id=7819*)
    → "I hesitate to use the word "massacre," but if that is what you must do to them, then so be it."
 17: 0x0095 [0x23] WAIT_FOR_DIALOG_INTERACTION
 18: 0x0096 [0x1D] PRINT_EVENT_MESSAGE(message_id=7820*)
    → "You would be doing me...<cough> Adoulin a great service."
 19: 0x0099 [0x23] WAIT_FOR_DIALOG_INTERACTION
 20: 0x009A [0x1D] PRINT_EVENT_MESSAGE(message_id=7821*)
    → "If you have no questions, then I recommend you get started right away. They certainly will not part with their equipment willingly!"
 21: 0x009D [0x23] WAIT_FOR_DIALOG_INTERACTION
 22: 0x009E [0x66] LOAD_EXT_SCHEDULER_MAIN: Load scheduler "twb1" with entities [EventEntity, EventEntity], work=29*
 23: 0x00AD [0x03] Work_Zone[1] = 1*
 24: 0x00B2 [0x21] END_EVENT
 25: 0x00B3 [0x00] END_REQSTACK()
```

### Event 42

#### Metadata

| Field        | Value    |
|--------------|----------|
| Entrypoint   | 0x00B4   |
| Data Size    | 64 bytes |
| Instructions | 14       |

```
      00 01 02 03 04 05 06 07  08 09 0A 0B 0C 0D 0E 0F
      -- -- -- -- -- -- -- --  -- -- -- -- -- -- -- --
00B0:             1E F0 FF FF  7F 42 6F 70 03 02 10 06      .....Bop....
00C0: 80 03 03 10 07 80 03 04  10 08 80 66 00 80 F8 FF  ...........f....
00D0: FF 7F F8 FF FF 7F 74 77  62 30 1D 0F 80 23 66 00  ......twb0...#f.
00E0: 80 F8 FF FF 7F F8 FF FF  7F 74 77 62 31 03 01 10  .........twb1...
00F0: 0E 80 21 00                                       ..!.            
```

#### Opcodes

```
  0: 0x00B4 [0x1E] EventEntity looks at LocalPlayer and starts talking
  1: 0x00B9 [0x42] SET_CLI_EVENT_CANCEL_DATA()
  2: 0x00BA [0x6F] WAIT_FRAME_DELAY: Yield until WaitTime reaches zero
  3: 0x00BB [0x70] WAIT_ENTITY_RENDER_FLAG: Wait while EventEntity->Render.Flags3 bit 2 is set (cancel turn if not)
  4: 0x00BC [0x03] Work_Zone[2] = 3928*
  5: 0x00C1 [0x03] Work_Zone[3] = 3929*
  6: 0x00C6 [0x03] Work_Zone[4] = 2*
  7: 0x00CB [0x66] LOAD_EXT_SCHEDULER_MAIN: Load scheduler "twb0" with entities [EventEntity, EventEntity], work=29*
  8: 0x00DA [0x1D] PRINT_EVENT_MESSAGE(message_id=7827*)
    → "Should you happen to come across $0 or $1 again, you only need bring them to me."
  9: 0x00DD [0x23] WAIT_FOR_DIALOG_INTERACTION
 10: 0x00DE [0x66] LOAD_EXT_SCHEDULER_MAIN: Load scheduler "twb1" with entities [EventEntity, EventEntity], work=29*
 11: 0x00ED [0x03] Work_Zone[1] = 1*
 12: 0x00F2 [0x21] END_EVENT
 13: 0x00F3 [0x00] END_REQSTACK()
```

### Event 41

#### Metadata

| Field        | Value    |
|--------------|----------|
| Entrypoint   | 0x00F4   |
| Data Size    | 77 bytes |
| Instructions | 19       |

```
      00 01 02 03 04 05 06 07  08 09 0A 0B 0C 0D 0E 0F
      -- -- -- -- -- -- -- --  -- -- -- -- -- -- -- --
00F0:             1E F0 FF FF  7F 42 6F 70 66 00 80 F8      .....Bopf...
0100: FF FF 7F F8 FF FF 7F 74  77 62 30 1D 10 80 23 1D  .......twb0...#.
0110: 11 80 23 1D 12 80 23 1D  13 80 23 1D 14 80 23 66  ..#...#...#...#f
0120: 00 80 F8 FF FF 7F F8 FF  FF 7F 74 77 62 31 45 15  ..........twb1E.
0130: 80 F8 FF FF 7F F8 FF FF  7F 71 73 74 63 16 80 21  .........qstc..!
0140: 00                                                .               
```

#### Opcodes

```
  0: 0x00F4 [0x1E] EventEntity looks at LocalPlayer and starts talking
  1: 0x00F9 [0x42] SET_CLI_EVENT_CANCEL_DATA()
  2: 0x00FA [0x6F] WAIT_FRAME_DELAY: Yield until WaitTime reaches zero
  3: 0x00FB [0x70] WAIT_ENTITY_RENDER_FLAG: Wait while EventEntity->Render.Flags3 bit 2 is set (cancel turn if not)
  4: 0x00FC [0x66] LOAD_EXT_SCHEDULER_MAIN: Load scheduler "twb0" with entities [EventEntity, EventEntity], work=29*
  5: 0x010B [0x1D] PRINT_EVENT_MESSAGE(message_id=7822*)
    → "Yes, these will do nicely. Excellent work."
  6: 0x010E [0x23] WAIT_FOR_DIALOG_INTERACTION
  7: 0x010F [0x1D] PRINT_EVENT_MESSAGE(message_id=7823*)
    → "How many did you slaughter? Tens? Hundreds?"
  8: 0x0112 [0x23] WAIT_FOR_DIALOG_INTERACTION
  9: 0x0113 [0x1D] PRINT_EVENT_MESSAGE(message_id=7824*)
    → "Forgive my transgression. I did, after all, let you choose your method of acquisition."
 10: 0x0116 [0x23] WAIT_FOR_DIALOG_INTERACTION
 11: 0x0117 [0x1D] PRINT_EVENT_MESSAGE(message_id=7825*)
    → "What a splendid favor you have done me this day. I have avenged my wife, and hopefully she can be at peace."
 12: 0x011A [0x23] WAIT_FOR_DIALOG_INTERACTION
 13: 0x011B [0x1D] PRINT_EVENT_MESSAGE(message_id=7826*)
    → "You see, she... No, I will not burden you with such a sordid tale."
 14: 0x011E [0x23] WAIT_FOR_DIALOG_INTERACTION
 15: 0x011F [0x66] LOAD_EXT_SCHEDULER_MAIN: Load scheduler "twb1" with entities [EventEntity, EventEntity], work=29*
 16: 0x012E [0x45] LOAD_SCHEDULED_TASK: Load scheduler "qstc" with entities [EventEntity, EventEntity], work=[201*, 0*]
 17: 0x013F [0x21] END_EVENT
 18: 0x0140 [0x00] END_REQSTACK()
```

### Event 44

#### Metadata

| Field        | Value    |
|--------------|----------|
| Entrypoint   | 0x0141   |
| Data Size    | 80 bytes |
| Instructions | 16       |

```
      00 01 02 03 04 05 06 07  08 09 0A 0B 0C 0D 0E 0F
      -- -- -- -- -- -- -- --  -- -- -- -- -- -- -- --
0140:    1E F0 FF FF 7F 42 6F  70 66 00 80 F8 FF FF 7F   .....Bopf......
0150: F8 FF FF 7F 74 77 62 30  1D 10 80 23 03 02 10 06  ....twb0...#....
0160: 80 03 03 10 07 80 03 04  10 08 80 1D 0F 80 23 66  ..............#f
0170: 00 80 F8 FF FF 7F F8 FF  FF 7F 74 77 62 31 45 15  ..........twb1E.
0180: 80 F8 FF FF 7F F8 FF FF  7F 71 73 74 63 16 80 21  .........qstc..!
0190: 00                                                .               
```

#### Opcodes

```
  0: 0x0141 [0x1E] EventEntity looks at LocalPlayer and starts talking
  1: 0x0146 [0x42] SET_CLI_EVENT_CANCEL_DATA()
  2: 0x0147 [0x6F] WAIT_FRAME_DELAY: Yield until WaitTime reaches zero
  3: 0x0148 [0x70] WAIT_ENTITY_RENDER_FLAG: Wait while EventEntity->Render.Flags3 bit 2 is set (cancel turn if not)
  4: 0x0149 [0x66] LOAD_EXT_SCHEDULER_MAIN: Load scheduler "twb0" with entities [EventEntity, EventEntity], work=29*
  5: 0x0158 [0x1D] PRINT_EVENT_MESSAGE(message_id=7822*)
    → "Yes, these will do nicely. Excellent work."
  6: 0x015B [0x23] WAIT_FOR_DIALOG_INTERACTION
  7: 0x015C [0x03] Work_Zone[2] = 3928*
  8: 0x0161 [0x03] Work_Zone[3] = 3929*
  9: 0x0166 [0x03] Work_Zone[4] = 2*
 10: 0x016B [0x1D] PRINT_EVENT_MESSAGE(message_id=7827*)
    → "Should you happen to come across $0 or $1 again, you only need bring them to me."
 11: 0x016E [0x23] WAIT_FOR_DIALOG_INTERACTION
 12: 0x016F [0x66] LOAD_EXT_SCHEDULER_MAIN: Load scheduler "twb1" with entities [EventEntity, EventEntity], work=29*
 13: 0x017E [0x45] LOAD_SCHEDULED_TASK: Load scheduler "qstc" with entities [EventEntity, EventEntity], work=[201*, 0*]
 14: 0x018F [0x21] END_EVENT
 15: 0x0190 [0x00] END_REQSTACK()
```

### Event 43

#### Metadata

| Field        | Value    |
|--------------|----------|
| Entrypoint   | 0x0191   |
| Data Size    | 58 bytes |
| Instructions | 12       |

```
      00 01 02 03 04 05 06 07  08 09 0A 0B 0C 0D 0E 0F
      -- -- -- -- -- -- -- --  -- -- -- -- -- -- -- --
0190:    1E F0 FF FF 7F 6F 70  03 02 10 06 80 03 03 10   .....op........
01A0: 07 80 03 04 10 08 80 66  00 80 F8 FF FF 7F F8 FF  .......f........
01B0: FF 7F 74 77 62 30 1D 09  80 23 66 00 80 F8 FF FF  ..twb0...#f.....
01C0: 7F F8 FF FF 7F 74 77 62  31 21 00                 .....twb1!.     
```

#### Opcodes

```
  0: 0x0191 [0x1E] EventEntity looks at LocalPlayer and starts talking
  1: 0x0196 [0x6F] WAIT_FRAME_DELAY: Yield until WaitTime reaches zero
  2: 0x0197 [0x70] WAIT_ENTITY_RENDER_FLAG: Wait while EventEntity->Render.Flags3 bit 2 is set (cancel turn if not)
  3: 0x0198 [0x03] Work_Zone[2] = 3928*
  4: 0x019D [0x03] Work_Zone[3] = 3929*
  5: 0x01A2 [0x03] Work_Zone[4] = 2*
  6: 0x01A7 [0x66] LOAD_EXT_SCHEDULER_MAIN: Load scheduler "twb0" with entities [EventEntity, EventEntity], work=29*
  7: 0x01B6 [0x1D] PRINT_EVENT_MESSAGE(message_id=7817*)
    → "I require that you secure Velkk equipment to prove that you have helped cement our operations in this area. A total of $2 $0 or $1 should suffice."
  8: 0x01B9 [0x23] WAIT_FOR_DIALOG_INTERACTION
  9: 0x01BA [0x66] LOAD_EXT_SCHEDULER_MAIN: Load scheduler "twb1" with entities [EventEntity, EventEntity], work=29*
 10: 0x01C9 [0x21] END_EVENT
 11: 0x01CA [0x00] END_REQSTACK()
```

### Event 62

#### Metadata

| Field        | Value     |
|--------------|-----------|
| Entrypoint   | 0x01CB    |
| Data Size    | 149 bytes |
| Instructions | 33        |

```
      00 01 02 03 04 05 06 07  08 09 0A 0B 0C 0D 0E 0F
      -- -- -- -- -- -- -- --  -- -- -- -- -- -- -- --
01C0:                                   1E F0 FF FF 7F             .....
01D0: 6F 70 66 00 80 F8 FF FF  7F F8 FF FF 7F 74 77 62  opf..........twb
01E0: 30 1D 17 80 23 1D 18 80  23 66 00 80 F8 FF FF 7F  0...#...#f......
01F0: F8 FF FF 7F 74 77 62 31  24 19 80 0E 80 16 80 25  ....twb1$......%
0200: 02 00 10 16 80 00 2B 02  42 1D 1A 80 23 73 1B 80  ......+.B...#s..
0210: F8 FF FF 7F F0 FF FF 7F  1C 1C 80 48 1D 80 23 1D  ...........H..#.
0220: 1E 80 23 03 01 10 16 80  01 5D 02 02 00 10 0E 80  ..#......]......
0230: 00 5D 02 66 00 80 F8 FF  FF 7F F8 FF FF 7F 74 77  .].f..........tw
0240: 62 30 1D 1F 80 23 66 00  80 F8 FF FF 7F F8 FF FF  b0...#f.........
0250: 7F 74 77 62 31 03 01 10  0E 80 01 5D 02 2E 21 00  .twb1......]..!.
```

#### Opcodes

```
  0: 0x01CB [0x1E] EventEntity looks at LocalPlayer and starts talking
  1: 0x01D0 [0x6F] WAIT_FRAME_DELAY: Yield until WaitTime reaches zero
  2: 0x01D1 [0x70] WAIT_ENTITY_RENDER_FLAG: Wait while EventEntity->Render.Flags3 bit 2 is set (cancel turn if not)
  3: 0x01D2 [0x66] LOAD_EXT_SCHEDULER_MAIN: Load scheduler "twb0" with entities [EventEntity, EventEntity], work=29*
  4: 0x01E1 [0x1D] PRINT_EVENT_MESSAGE(message_id=8217*)
    → "Forgive me my meddling, good [sir/lady], but I sense a disturbing aura of Velkk corruption about you."
  5: 0x01E4 [0x23] WAIT_FOR_DIALOG_INTERACTION
  6: 0x01E5 [0x1D] PRINT_EVENT_MESSAGE(message_id=8218*)
    → "Surely you cannot mean to clash with them in such a vile state. Permit me to perform a ritual that will cause this odious influence to wane."
  7: 0x01E8 [0x23] WAIT_FOR_DIALOG_INTERACTION
  8: 0x01E9 [0x66] LOAD_EXT_SCHEDULER_MAIN: Load scheduler "twb1" with entities [EventEntity, EventEntity], work=29*
  9: 0x01F8 [0x24] CREATE_DIALOG(message_id=8219*, default_option=1*, option_flags=0*)
    → "Remove the Velkk curse? [Yes. Get it off!/I've kinda grown used to it...]"
 10: 0x01FF [0x25] WAIT_DIALOG_SELECT()
 11: 0x0200 [0x02] IF !(Work_Zone[0] == 0*) GOTO 0x022B
 12: 0x0208 [0x42] SET_CLI_EVENT_CANCEL_DATA()
 13: 0x0209 [0x1D] PRINT_EVENT_MESSAGE(message_id=8220*)
    → "Then let our fervent orisons reach the ears of Altana herself...!"
 14: 0x020C [0x23] WAIT_FOR_DIALOG_INTERACTION
 15: 0x020D [0x73] EventEntity casts magic 20* on LocalPlayer
 16: 0x0218 [0x1C] WAIT(230* ticks)
 17: 0x021B [0x48] [System] [8211*]:
    → "You receive a blessing."
 18: 0x021E [0x23] WAIT_FOR_DIALOG_INTERACTION
 19: 0x021F [0x1D] PRINT_EVENT_MESSAGE(message_id=8221*)
    → "The ominous energies have been quelled. Hmm...the Velkk may not all be as simplistic as we first thought."
 20: 0x0222 [0x23] WAIT_FOR_DIALOG_INTERACTION
 21: 0x0223 [0x03] Work_Zone[1] = 0*
 22: 0x0228 [0x01] GOTO 0x025D
 23: 0x022B [0x02] IF !(Work_Zone[0] == 1*) GOTO 0x025D
 24: 0x0233 [0x66] LOAD_EXT_SCHEDULER_MAIN: Load scheduler "twb0" with entities [EventEntity, EventEntity], work=29*
 25: 0x0242 [0x1D] PRINT_EVENT_MESSAGE(message_id=8222*)
    → "As imprudent as your decision is, your path is for you alone to decide."
 26: 0x0245 [0x23] WAIT_FOR_DIALOG_INTERACTION
 27: 0x0246 [0x66] LOAD_EXT_SCHEDULER_MAIN: Load scheduler "twb1" with entities [EventEntity, EventEntity], work=29*
 28: 0x0255 [0x03] Work_Zone[1] = 1*
 29: 0x025A [0x01] GOTO 0x025D

SUBROUTINE_025D:
 30: 0x025D [0x2E] SET_CLI_EVENT_CANCEL_FLAGS()
 31: 0x025E [0x21] END_EVENT
 32: 0x025F [0x00] END_REQSTACK()
```
