# 17867231 - Hostage Tent

## Common Data

| Field            | Value                    |
|------------------|--------------------------|
| Zone             | Marjami Ravine (ID: 266) |
| Block Size       | 4288 bytes               |
| Total Events     | 5                        |
| References Count | 121                      |

## List of Events

| Event ID              | Entrypoint   |   Size |   Instructions |
|-----------------------|--------------|--------|----------------|
| [65535](#event-65535) | 0x0000       |      1 |              1 |
| [54](#event-54)       | 0x0001       |    732 |             88 |
| [55](#event-55)       | 0x02DD       |   2781 |            308 |
| [56](#event-56)       | 0x0DBA       |    250 |             31 |
| [66](#event-66)       | 0x0EB4       |      1 |              1 |

## DAT References (imed_data)

|   Index | Hex Value   |   Dec Value |
|---------|-------------|-------------|
|       0 | 0x00C8      |         200 |
|       1 | 0x0000      |           0 |
|       2 | 0x0013      |          19 |
|       3 | 0xFFFE961E  |  4294874654 |
|       4 | 0xFFFEB629  |  4294882857 |
|       5 | 0x4FA0      |       20384 |
|       6 | 0x0946      |        2374 |
|       7 | 0xFFFE3ED3  |  4294852307 |
|       8 | 0xFFFEBE67  |  4294884967 |
|       9 | 0x4E51      |       20049 |
|      10 | 0x01BA      |         442 |
|      11 | 0xFFFE79F1  |  4294867441 |
|      12 | 0xFFFECB33  |  4294888243 |
|      13 | 0x51FF      |       20991 |
|      14 | 0x0869      |        2153 |
|      15 | 0x003C      |          60 |
|      16 | 0x0275      |         629 |
|      17 | 0x000F      |          15 |
|      18 | 0x00B4      |         180 |
|      19 | 0x0064      |         100 |
|      20 | 0x0014      |          20 |
|      21 | 0x1EE3      |        7907 |
|      22 | 0x001E      |          30 |
|      23 | 0x0757      |        1879 |
|      24 | 0x001D      |          29 |
|      25 | 0x1EE4      |        7908 |
|      26 | 0x0009      |           9 |
|      27 | 0x1EE5      |        7909 |
|      28 | 0x0005      |           5 |
|      29 | 0x0006      |           6 |
|      30 | 0x0024      |          36 |
|      31 | 0x0007      |           7 |
|      32 | 0x1EE6      |        7910 |
|      33 | 0xFFFE5FB3  |  4294860723 |
|      34 | 0xFFFEBFD5  |  4294885333 |
|      35 | 0x503A      |       20538 |
|      36 | 0x06E1      |        1761 |
|      37 | 0xFFFE4620  |  4294854176 |
|      38 | 0xFFFEC89C  |  4294887580 |
|      39 | 0x4EAE      |       20142 |
|      40 | 0x0153      |         339 |
|      41 | 0xFFFE4280  |  4294853248 |
|      42 | 0xFFFEB3BF  |  4294882239 |
|      43 | 0x4E4A      |       20042 |
|      44 | 0x0C22      |        3106 |
|      45 | 0xFFFE611A  |  4294861082 |
|      46 | 0xFFFEC72B  |  4294887211 |
|      47 | 0x505E      |       20574 |
|      48 | 0x0652      |        1618 |
|      49 | 0xFFFE65F2  |  4294862322 |
|      50 | 0xFFFEC45E  |  4294886494 |
|      51 | 0x50DA      |       20698 |
|      52 | 0x064C      |        1612 |
|      53 | 0x0078      |         120 |
|      54 | 0x007F      |         127 |
|      55 | 0x000A      |          10 |
|      56 | 0x1EE7      |        7911 |
|      57 | 0x1EE8      |        7912 |
|      58 | 0x1EE9      |        7913 |
|      59 | 0xFFFE4763  |  4294854499 |
|      60 | 0xFFFEC976  |  4294887798 |
|      61 | 0x4EBE      |       20158 |
|      62 | 0x01A6      |         422 |
|      63 | 0xFFFE4C07  |  4294855687 |
|      64 | 0xFFFEC2C7  |  4294886087 |
|      65 | 0x4EF9      |       20217 |
|      66 | 0x0A60      |        2656 |
|      67 | 0xFFFE50AB  |  4294856875 |
|      68 | 0xFFFEC8D6  |  4294887638 |
|      69 | 0x4F34      |       20276 |
|      70 | 0x0945      |        2373 |
|      71 | 0xFFFE4316  |  4294853398 |
|      72 | 0xFFFEB9EF  |  4294883823 |
|      73 | 0x4E87      |       20103 |
|      74 | 0x0C09      |        3081 |
|      75 | 0xFFFE3FA0  |  4294852512 |
|      76 | 0xFFFEB838  |  4294883384 |
|      77 | 0x4E5B      |       20059 |
|      78 | 0x0D6A      |        3434 |
|      79 | 0x0016      |          22 |
|      80 | 0x1EEA      |        7914 |
|      81 | 0x0031      |          49 |
|      82 | 0x1EEB      |        7915 |
|      83 | 0x1EEC      |        7916 |
|      84 | 0x003B      |          59 |
|      85 | 0x1EED      |        7917 |
|      86 | 0x1EEE      |        7918 |
|      87 | 0x1EEF      |        7919 |
|      88 | 0x1EF0      |        7920 |
|      89 | 0x1EF1      |        7921 |
|      90 | 0x1EF2      |        7922 |
|      91 | 0x1EF3      |        7923 |
|      92 | 0x1EF4      |        7924 |
|      93 | 0x0020      |          32 |
|      94 | 0x1EF5      |        7925 |
|      95 | 0x1EF6      |        7926 |
|      96 | 0x1EF7      |        7927 |
|      97 | 0x1EF8      |        7928 |
|      98 | 0x1EF9      |        7929 |
|      99 | 0x1EFA      |        7930 |
|     100 | 0x1EFB      |        7931 |
|     101 | 0x1EFC      |        7932 |
|     102 | 0x1EFD      |        7933 |
|     103 | 0x1EFE      |        7934 |
|     104 | 0x1EFF      |        7935 |
|     105 | 0x1F00      |        7936 |
|     106 | 0x1F01      |        7937 |
|     107 | 0x1F02      |        7938 |
|     108 | 0x1F03      |        7939 |
|     109 | 0x1F04      |        7940 |
|     110 | 0x1F05      |        7941 |
|     111 | 0x1F06      |        7942 |
|     112 | 0xFFFE3D47  |  4294851911 |
|     113 | 0xFFFEB5E6  |  4294882790 |
|     114 | 0x4E1F      |       19999 |
|     115 | 0x1F07      |        7943 |
|     116 | 0x1F08      |        7944 |
|     117 | 0x0018      |          24 |
|     118 | 0x0096      |         150 |
|     119 | 0x1F09      |        7945 |
|     120 | 0x1F0A      |        7946 |

## Events

### Event 65535

#### Metadata

| Field        | Value   |
|--------------|---------|
| Entrypoint   | 0x0000  |
| Data Size    | 1 bytes |
| Instructions | 1       |

```
      00 01 02 03 04 05 06 07  08 09 0A 0B 0C 0D 0E 0F
      -- -- -- -- -- -- -- --  -- -- -- -- -- -- -- --
0000: 00                                                .               
```

#### Opcodes

```
  0: 0x0000 [0x00] END_REQSTACK()
```

### Event 54

#### Metadata

| Field        | Value     |
|--------------|-----------|
| Entrypoint   | 0x0001    |
| Data Size    | 732 bytes |
| Instructions | 88        |

```
      00 01 02 03 04 05 06 07  08 09 0A 0B 0C 0D 0E 0F
      -- -- -- -- -- -- -- --  -- -- -- -- -- -- -- --
0000:    42 45 00 80 F8 FF FF  7F F8 FF FF 7F 66 64 6F   BE..........fdo
0010: 31 01 80 55 00 80 F8 FF  FF 7F F8 FF FF 7F 66 64  1..U..........fd
0020: 6F 31 46 01 38 02 80 2F  00 E1 A1 10 01 2F 00 E5  o1F.8../...../..
0030: A1 10 01 4E 00 E1 A1 10  01 4E 00 E5 A1 10 01 92  ...N.....N......
0040: 01 E1 A1 10 01 92 01 E5  A1 10 01 94 01 F0 FF FF  ................
0050: 7F 94 01 E5 A1 10 01 94  01 E1 A1 10 01 BA E1 A1  ................
0060: 10 01 03 80 04 80 05 80  06 80 BA E5 A1 10 01 07  ................
0070: 80 08 80 09 80 0A 80 BA  F0 FF FF 7F 0B 80 0C 80  ................
0080: 0D 80 0E 80 80 F0 FF FF  7F 80 E1 A1 10 01 80 E5  ................
0090: A1 10 01 27 05 E5 A1 10  01 02 1C 0F 80 45 10 80  ...'.........E..
00A0: F8 FF FF 7F F8 FF FF 7F  73 30 30 30 01 80 1C 11  ........s000....
00B0: 80 45 00 80 F8 FF FF 7F  F8 FF FF 7F 66 64 69 31  .E..........fdi1
00C0: 01 80 1C 12 80 52 10 80  F8 FF FF 7F F8 FF FF 7F  .....R..........
00D0: 73 30 30 30 45 10 80 F8  FF FF 7F F8 FF FF 7F 73  s000E..........s
00E0: 30 30 31 01 80 1C 13 80  27 05 E1 A1 10 01 02 1C  001.....'.......
00F0: 14 80 52 10 80 F8 FF FF  7F F8 FF FF 7F 73 30 30  ..R..........s00
0100: 31 45 10 80 F8 FF FF 7F  F8 FF FF 7F 73 30 30 32  1E..........s002
0110: 01 80 2B E1 A1 10 01 15  80 1C 16 80 4B E5 A1 10  ..+.........K...
0120: 01 17 80 4A F0 FF FF 7F  E1 A1 10 01 1C 16 80 23  ...J...........#
0130: 2A 05 E1 A1 10 01 52 10  80 F8 FF FF 7F F8 FF FF  *.....R.........
0140: 7F 73 30 30 32 45 10 80  F8 FF FF 7F F8 FF FF 7F  .s002E..........
0150: 73 30 30 33 01 80 6E E1  A1 10 01 18 80 99 E1 A1  s003..n.........
0160: 10 01 2B E1 A1 10 01 19  80 23 52 10 80 F8 FF FF  ..+......#R.....
0170: 7F F8 FF FF 7F 73 30 30  33 45 10 80 F8 FF FF 7F  .....s003E......
0180: F8 FF FF 7F 73 30 30 34  01 80 27 05 E1 A1 10 01  ....s004..'.....
0190: 03 7B E1 A1 10 01 7B F0  FF FF 7F 1C 16 80 27 05  .{....{.......'.
01A0: F0 FF FF 7F 1F 2A 05 E1  A1 10 01 66 1A 80 E1 A1  .....*.....f....
01B0: 10 01 E1 A1 10 01 74 68  6B 31 2B E1 A1 10 01 1B  ......thk1+.....
01C0: 80 23 2A 05 F0 FF FF 7F  52 10 80 F8 FF FF 7F F8  .#*.....R.......
01D0: FF FF 7F 73 30 30 34 02  87 7F 1C 80 80 F3 01 45  ...s004........E
01E0: 10 80 F8 FF FF 7F F8 FF  FF 7F 73 30 30 36 01 80  ..........s006..
01F0: 01 20 02 02 87 7F 1D 80  80 0F 02 45 10 80 F8 FF  . .........E....
0200: FF 7F F8 FF FF 7F 73 30  30 36 01 80 01 20 02 45  ......s006... .E
0210: 10 80 F8 FF FF 7F F8 FF  FF 7F 73 30 30 35 01 80  ..........s005..
0220: 6E F0 FF FF 7F 1E 80 99  F0 FF FF 7F 1C 0F 80 66  n..............f
0230: 1A 80 E1 A1 10 01 E1 A1  10 01 74 68 6B 32 1C 16  ..........thk2..
0240: 80 52 10 80 F8 FF FF 7F  F8 FF FF 7F 73 30 30 35  .R..........s005
0250: 52 10 80 F8 FF FF 7F F8  FF FF 7F 73 30 30 36 45  R..........s006E
0260: 10 80 F8 FF FF 7F F8 FF  FF 7F 73 30 30 37 01 80  ..........s007..
0270: 4A E1 A1 10 01 F0 FF FF  7F 1C 16 80 4A F0 FF FF  J...........J...
0280: 7F E1 A1 10 01 6E E1 A1  10 01 1F 80 99 E1 A1 10  .....n..........
0290: 01 2B E1 A1 10 01 20 80  23 45 00 80 F8 FF FF 7F  .+.... .#E......
02A0: F8 FF FF 7F 66 64 6F 31  01 80 55 00 80 F8 FF FF  ....fdo1..U.....
02B0: 7F F8 FF FF 7F 66 64 6F  31 52 10 80 F8 FF FF 7F  .....fdo1R......
02C0: F8 FF FF 7F 73 30 30 37  46 00 45 00 80 F8 FF FF  ....s007F.E.....
02D0: 7F F8 FF FF 7F 66 64 69  32 01 80 21 00           .....fdi2..!.   
```

#### Opcodes

```
  0: 0x0001 [0x42] SET_CLI_EVENT_CANCEL_DATA()
  1: 0x0002 [0x45] LOAD_SCHEDULED_TASK: Load scheduler "fdo1" with entities [EventEntity, EventEntity], work=[200*, 0*]
  2: 0x0013 [0x55] WAIT_LOAD_SCHEDULER: Wait for scheduler "fdo1" with entities [EventEntity, EventEntity], work=200*
  3: 0x0022 [0x46] CAMERA_CONTROL: Disable user control
  4: 0x0024 [0x38] SET_CLIENT_EVENT_MODE(mode=19*)
  5: 0x0027 [0x2F] Nashu (ID: 17867233/0x0110A1E1)->Render.Flags0 &= ~0x80000 // Bit 19
  6: 0x002D [0x2F] Gramk-Droog (ID: 17867237/0x0110A1E5)->Render.Flags0 &= ~0x80000 // Bit 19
  7: 0x0033 [0x4E] SET_ENTITY_HIDE_FLAG: Show Nashu (ID: 17867233/0x0110A1E1)
  8: 0x0039 [0x4E] SET_ENTITY_HIDE_FLAG: Show Gramk-Droog (ID: 17867237/0x0110A1E5)
  9: 0x003F [0x92] Nashu (ID: 17867233/0x0110A1E1)->Render.Flags3 ^= 0x01
 10: 0x0045 [0x92] Gramk-Droog (ID: 17867237/0x0110A1E5)->Render.Flags3 ^= 0x01
 11: 0x004B [0x94] LocalPlayer->Render.Flags3 ^= 0x01
 12: 0x0051 [0x94] Gramk-Droog (ID: 17867237/0x0110A1E5)->Render.Flags3 ^= 0x01
 13: 0x0057 [0x94] Nashu (ID: 17867233/0x0110A1E1)->Render.Flags3 ^= 0x01
 14: 0x005D [0xBA] SET_ENTITY_POSITION(entity_id=Nashu (ID: 17867233/0x0110A1E1), pos_x=-92.642*, pos_z=-84.439*, pos_y=20.384*, direction=208.6°*)
 15: 0x006A [0xBA] SET_ENTITY_POSITION(entity_id=Gramk-Droog (ID: 17867237/0x0110A1E5), pos_x=-114.989*, pos_z=-82.329*, pos_y=20.049*, direction=38.8°*)
 16: 0x0077 [0xBA] SET_ENTITY_POSITION(entity_id=LocalPlayer, pos_x=-99.855*, pos_z=-79.053*, pos_y=20.991*, direction=189.2°*)
 17: 0x0084 [0x80] LOAD_WAIT(entity=LocalPlayer)
 18: 0x0089 [0x80] LOAD_WAIT(entity=Nashu (ID: 17867233/0x0110A1E1))
 19: 0x008E [0x80] LOAD_WAIT(entity=Gramk-Droog (ID: 17867237/0x0110A1E5))
 20: 0x0093 [0x27] REQ_SET(priority=0x05, entity_id=Gramk-Droog (ID: 17867237/0x0110A1E5), tag_num=0x02)
 21: 0x009A [0x1C] WAIT(60* ticks)
 22: 0x009D [0x45] LOAD_SCHEDULED_TASK: Load scheduler "s000" with entities [EventEntity, EventEntity], work=[629*, 0*]
 23: 0x00AE [0x1C] WAIT(15* ticks)
 24: 0x00B1 [0x45] LOAD_SCHEDULED_TASK: Load scheduler "fdi1" with entities [EventEntity, EventEntity], work=[200*, 0*]
 25: 0x00C2 [0x1C] WAIT(180* ticks)
 26: 0x00C5 [0x52] END_LOAD_SCHEDULER: End scheduler "s000" with entities [EventEntity, EventEntity], work=629*
 27: 0x00D4 [0x45] LOAD_SCHEDULED_TASK: Load scheduler "s001" with entities [EventEntity, EventEntity], work=[629*, 0*]
 28: 0x00E5 [0x1C] WAIT(100* ticks)
 29: 0x00E8 [0x27] REQ_SET(priority=0x05, entity_id=Nashu (ID: 17867233/0x0110A1E1), tag_num=0x02)
 30: 0x00EF [0x1C] WAIT(20* ticks)
 31: 0x00F2 [0x52] END_LOAD_SCHEDULER: End scheduler "s001" with entities [EventEntity, EventEntity], work=629*
 32: 0x0101 [0x45] LOAD_SCHEDULED_TASK: Load scheduler "s002" with entities [EventEntity, EventEntity], work=[629*, 0*]
 33: 0x0112 [0x2B] Nashu (ID: 17867233/0x0110A1E1) [7907*]:
    → "<Player>!"
 34: 0x0119 [0x1C] WAIT(30* ticks)
 35: 0x011C [0x4B] UPDATE_ENTITY_YAW(entity=Gramk-Droog (ID: 17867237/0x0110A1E5), yaw=10.3°*)
 36: 0x0123 [0x4A] LocalPlayer looks at Nashu (ID: 17867233/0x0110A1E1)
 37: 0x012C [0x1C] WAIT(30* ticks)
 38: 0x012F [0x23] WAIT_FOR_DIALOG_INTERACTION
 39: 0x0130 [0x2A] GET_REQ_LEVEL(level=5, entity_id=Nashu (ID: 17867233/0x0110A1E1))
 40: 0x0136 [0x52] END_LOAD_SCHEDULER: End scheduler "s002" with entities [EventEntity, EventEntity], work=629*
 41: 0x0145 [0x45] LOAD_SCHEDULED_TASK: Load scheduler "s003" with entities [EventEntity, EventEntity], work=[629*, 0*]
 42: 0x0156 [0x6E] Nashu (ID: 17867233/0x0110A1E1) uses emote 29*
 43: 0x015D [0x99] Wait for Nashu (ID: 17867233/0x0110A1E1) animation to complete
 44: 0x0162 [0x2B] Nashu (ID: 17867233/0x0110A1E1) [7908*]:
    → "I cannot fathom how, but we have apparently beaten the coven to the punch."
 45: 0x0169 [0x23] WAIT_FOR_DIALOG_INTERACTION
 46: 0x016A [0x52] END_LOAD_SCHEDULER: End scheduler "s003" with entities [EventEntity, EventEntity], work=629*
 47: 0x0179 [0x45] LOAD_SCHEDULED_TASK: Load scheduler "s004" with entities [EventEntity, EventEntity], work=[629*, 0*]
 48: 0x018A [0x27] REQ_SET(priority=0x05, entity_id=Nashu (ID: 17867233/0x0110A1E1), tag_num=0x03)
 49: 0x0191 [0x7B] Nashu (ID: 17867233/0x0110A1E1) stops talking
 50: 0x0196 [0x7B] LocalPlayer stops talking
 51: 0x019B [0x1C] WAIT(30* ticks)
 52: 0x019E [0x27] REQ_SET(priority=0x05, entity_id=LocalPlayer, tag_num=0x1F)
 53: 0x01A5 [0x2A] GET_REQ_LEVEL(level=5, entity_id=Nashu (ID: 17867233/0x0110A1E1))
 54: 0x01AB [0x66] LOAD_EXT_SCHEDULER_MAIN: Load scheduler "thk1" with entities [Nashu (ID: 17867233/0x0110A1E1), Nashu (ID: 17867233/0x0110A1E1)], work=9*
 55: 0x01BA [0x2B] Nashu (ID: 17867233/0x0110A1E1) [7909*]:
    → "Only four guards? What an exceptionally low number. Do you think you can give all four of them what for?"
 56: 0x01C1 [0x23] WAIT_FOR_DIALOG_INTERACTION
 57: 0x01C2 [0x2A] GET_REQ_LEVEL(level=5, entity_id=LocalPlayer)
 58: 0x01C8 [0x52] END_LOAD_SCHEDULER: End scheduler "s004" with entities [EventEntity, EventEntity], work=629*
 59: 0x01D7 [0x02] IF !(LocalPlayer->Race == 5*) GOTO 0x01F3
 60: 0x01DF [0x45] LOAD_SCHEDULED_TASK: Load scheduler "s006" with entities [EventEntity, EventEntity], work=[629*, 0*]
 61: 0x01F0 [0x01] GOTO 0x0220
 62: 0x01F3 [0x02] IF !(LocalPlayer->Race == 6*) GOTO 0x020F
 63: 0x01FB [0x45] LOAD_SCHEDULED_TASK: Load scheduler "s006" with entities [EventEntity, EventEntity], work=[629*, 0*]
 64: 0x020C [0x01] GOTO 0x0220
 65: 0x020F [0x45] LOAD_SCHEDULED_TASK: Load scheduler "s005" with entities [EventEntity, EventEntity], work=[629*, 0*]

SUBROUTINE_0220:
 66: 0x0220 [0x6E] LocalPlayer uses emote 36*
 67: 0x0227 [0x99] Wait for LocalPlayer animation to complete
 68: 0x022C [0x1C] WAIT(60* ticks)
 69: 0x022F [0x66] LOAD_EXT_SCHEDULER_MAIN: Load scheduler "thk2" with entities [Nashu (ID: 17867233/0x0110A1E1), Nashu (ID: 17867233/0x0110A1E1)], work=9*
 70: 0x023E [0x1C] WAIT(30* ticks)
 71: 0x0241 [0x52] END_LOAD_SCHEDULER: End scheduler "s005" with entities [EventEntity, EventEntity], work=629*
 72: 0x0250 [0x52] END_LOAD_SCHEDULER: End scheduler "s006" with entities [EventEntity, EventEntity], work=629*
 73: 0x025F [0x45] LOAD_SCHEDULED_TASK: Load scheduler "s007" with entities [EventEntity, EventEntity], work=[629*, 0*]
 74: 0x0270 [0x4A] Nashu (ID: 17867233/0x0110A1E1) looks at LocalPlayer
 75: 0x0279 [0x1C] WAIT(30* ticks)
 76: 0x027C [0x4A] LocalPlayer looks at Nashu (ID: 17867233/0x0110A1E1)
 77: 0x0285 [0x6E] Nashu (ID: 17867233/0x0110A1E1) uses emote 7*
 78: 0x028C [0x99] Wait for Nashu (ID: 17867233/0x0110A1E1) animation to complete
 79: 0x0291 [0x2B] Nashu (ID: 17867233/0x0110A1E1) [7910*]:
    → "All right, then! I'll act as the bait, and you reel them in! For Altaaaaaanaaaaaa!"
 80: 0x0298 [0x23] WAIT_FOR_DIALOG_INTERACTION
 81: 0x0299 [0x45] LOAD_SCHEDULED_TASK: Load scheduler "fdo1" with entities [EventEntity, EventEntity], work=[200*, 0*]
 82: 0x02AA [0x55] WAIT_LOAD_SCHEDULER: Wait for scheduler "fdo1" with entities [EventEntity, EventEntity], work=200*
 83: 0x02B9 [0x52] END_LOAD_SCHEDULER: End scheduler "s007" with entities [EventEntity, EventEntity], work=629*
 84: 0x02C8 [0x46] CAMERA_CONTROL: Restore default settings
 85: 0x02CA [0x45] LOAD_SCHEDULED_TASK: Load scheduler "fdi2" with entities [EventEntity, EventEntity], work=[200*, 0*]
 86: 0x02DB [0x21] END_EVENT
 87: 0x02DC [0x00] END_REQSTACK()
```

### Event 55

#### Metadata

| Field        | Value      |
|--------------|------------|
| Entrypoint   | 0x02DD     |
| Data Size    | 2781 bytes |
| Instructions | 308        |

```
      00 01 02 03 04 05 06 07  08 09 0A 0B 0C 0D 0E 0F
      -- -- -- -- -- -- -- --  -- -- -- -- -- -- -- --
02D0:                                         42 45 00               BE.
02E0: 80 F8 FF FF 7F F8 FF FF  7F 66 64 6F 31 01 80 55  .........fdo1..U
02F0: 00 80 F8 FF FF 7F F8 FF  FF 7F 66 64 6F 31 46 01  ..........fdo1F.
0300: 38 02 80 2F 00 E1 A1 10  01 2F 00 E3 A1 10 01 2F  8../...../...../
0310: 00 E4 A1 10 01 2F 00 E5  A1 10 01 4E 00 E1 A1 10  ...../.....N....
0320: 01 4E 00 E5 A1 10 01 4E  00 E3 A1 10 01 4E 00 E4  .N.....N.....N..
0330: A1 10 01 92 01 E1 A1 10  01 92 01 E3 A1 10 01 92  ................
0340: 01 E4 A1 10 01 92 01 E5  A1 10 01 94 01 F0 FF FF  ................
0350: 7F 94 01 E5 A1 10 01 94  01 E1 A1 10 01 94 01 E3  ................
0360: A1 10 01 94 01 E4 A1 10  01 BA E1 A1 10 01 21 80  ..............!.
0370: 22 80 23 80 24 80 BA E5  A1 10 01 25 80 26 80 27  ".#.$......%.&.'
0380: 80 28 80 BA F0 FF FF 7F  29 80 2A 80 2B 80 2C 80  .(......).*.+.,.
0390: BA E3 A1 10 01 2D 80 2E  80 2F 80 30 80 BA E4 A1  .....-.../.0....
03A0: 10 01 31 80 32 80 33 80  34 80 80 F0 FF FF 7F 80  ..1.2.3.4.......
03B0: E1 A1 10 01 80 E5 A1 10  01 80 E3 A1 10 01 80 E4  ................
03C0: A1 10 01 4A E3 A1 10 01  E1 A1 10 01 4A E5 A1 10  ...J........J...
03D0: 01 F0 FF FF 7F 4A F0 FF  FF 7F E5 A1 10 01 1C 16  .....J..........
03E0: 80 27 05 F0 FF FF 7F 08  45 10 80 F8 FF FF 7F F8  .'......E.......
03F0: FF FF 7F 73 30 35 30 01  80 1C 11 80 45 00 80 F8  ...s050.....E...
0400: FF FF 7F F8 FF FF 7F 66  64 69 31 01 80 2C E5 A1  .......fdi1..,..
0410: 10 01 E5 A1 10 01 64 65  61 64 1C 35 80 52 10 80  ......dead.5.R..
0420: F8 FF FF 7F F8 FF FF 7F  73 30 35 30 45 10 80 F8  ........s050E...
0430: FF FF 7F F8 FF FF 7F 73  30 35 31 01 80 27 05 F0  .......s051..'..
0440: FF FF 7F 09 9F 36 80 F8  FF FF 7F F8 FF FF 7F 73  .....6.........s
0450: 74 72 30 01 80 1C 11 80  9F 36 80 F8 FF FF 7F F8  tr0......6......
0460: FF FF 7F 6B 69 6C 6C 01  80 1C 37 80 9F 36 80 F8  ...kill...7..6..
0470: FF FF 7F F8 FF FF 7F 73  74 72 30 01 80 1C 11 80  .......str0.....
0480: 9F 36 80 F8 FF FF 7F F8  FF FF 7F 6B 69 6C 6C 01  .6.........kill.
0490: 80 1C 16 80 27 05 E1 A1  10 01 05 1C 14 80 52 10  ....'.........R.
04A0: 80 F8 FF FF 7F F8 FF FF  7F 73 30 35 31 45 10 80  .........s051E..
04B0: F8 FF FF 7F F8 FF FF 7F  73 30 35 32 01 80 79 00  ........s052..y.
04C0: F0 FF FF 7F E1 A1 10 01  2B E1 A1 10 01 38 80 23  ........+....8.#
04D0: 2A 05 E1 A1 10 01 27 05  E3 A1 10 01 02 1C 11 80  *.....'.........
04E0: 27 05 E4 A1 10 01 02 1C  11 80 52 10 80 F8 FF FF  '.........R.....
04F0: 7F F8 FF FF 7F 73 30 35  32 45 10 80 F8 FF FF 7F  .....s052E......
0500: F8 FF FF 7F 73 30 35 33  01 80 4A E1 A1 10 01 E3  ....s053..J.....
0510: A1 10 01 1C 16 80 4A F0  FF FF 7F E3 A1 10 01 4E  ......J........N
0520: 01 E5 A1 10 01 2B E3 A1  10 01 39 80 23 2A 05 E3  .....+....9.#*..
0530: A1 10 01 52 10 80 F8 FF  FF 7F F8 FF FF 7F 73 30  ...R..........s0
0540: 35 33 45 10 80 F8 FF FF  7F F8 FF FF 7F 73 30 35  53E..........s05
0550: 34 01 80 27 05 E3 A1 10  01 03 2B E3 A1 10 01 3A  4..'......+....:
0560: 80 1C 35 80 45 00 80 F8  FF FF 7F F8 FF FF 7F 66  ..5.E..........f
0570: 64 6F 31 01 80 55 00 80  F8 FF FF 7F F8 FF FF 7F  do1..U..........
0580: 66 64 6F 31 52 10 80 F8  FF FF 7F F8 FF FF 7F 73  fdo1R..........s
0590: 30 35 34 7A 00 E3 A1 10  01 2F 00 E2 A1 10 01 4E  054z...../.....N
05A0: 00 E2 A1 10 01 92 01 E2  A1 10 01 94 01 E2 A1 10  ................
05B0: 01 BA E2 A1 10 01 3B 80  3C 80 3D 80 3E 80 BA E3  ......;.<.=.>...
05C0: A1 10 01 3F 80 40 80 41  80 42 80 BA E4 A1 10 01  ...?.@.A.B......
05D0: 43 80 44 80 45 80 46 80  BA E1 A1 10 01 47 80 48  C.D.E.F......G.H
05E0: 80 49 80 4A 80 BA F0 FF  FF 7F 4B 80 4C 80 4D 80  .I.J......K.L.M.
05F0: 4E 80 80 E2 A1 10 01 80  E3 A1 10 01 80 E4 A1 10  N...............
0600: 01 80 F0 FF FF 7F 80 E1  A1 10 01 4A E3 A1 10 01  ...........J....
0610: E2 A1 10 01 4A E4 A1 10  01 E2 A1 10 01 4A F0 FF  ....J........J..
0620: FF 7F E2 A1 10 01 4A E1  A1 10 01 E2 A1 10 01 1C  ......J.........
0630: 16 80 45 10 80 F8 FF FF  7F F8 FF FF 7F 73 30 35  ..E..........s05
0640: 35 01 80 1C 11 80 45 00  80 F8 FF FF 7F F8 FF FF  5.....E.........
0650: 7F 66 64 69 31 01 80 6E  E2 A1 10 01 4F 80 99 E2  .fdi1..n....O...
0660: A1 10 01 2B E2 A1 10 01  50 80 23 52 10 80 F8 FF  ...+....P.#R....
0670: FF 7F F8 FF FF 7F 73 30  35 35 45 10 80 F8 FF FF  ......s055E.....
0680: 7F F8 FF FF 7F 73 30 35  36 01 80 66 51 80 E3 A1  .....s056..fQ...
0690: 10 01 E3 A1 10 01 74 6C  6B 30 2B E3 A1 10 01 52  ......tlk0+....R
06A0: 80 23 66 51 80 E3 A1 10  01 E3 A1 10 01 74 6C 6B  .#fQ.........tlk
06B0: 31 79 00 E2 A1 10 01 E3  A1 10 01 2B E2 A1 10 01  1y.........+....
06C0: 53 80 23 52 10 80 F8 FF  FF 7F F8 FF FF 7F 73 30  S.#R..........s0
06D0: 35 36 45 10 80 F8 FF FF  7F F8 FF FF 7F 73 30 35  56E..........s05
06E0: 37 01 80 66 54 80 E2 A1  10 01 E2 A1 10 01 74 6C  7..fT.........tl
06F0: 6B 30 2B E2 A1 10 01 55  80 23 2B E2 A1 10 01 56  k0+....U.#+....V
0700: 80 23 66 54 80 E2 A1 10  01 E2 A1 10 01 74 6C 6B  .#fT.........tlk
0710: 31 52 10 80 F8 FF FF 7F  F8 FF FF 7F 73 30 35 37  1R..........s057
0720: 45 10 80 F8 FF FF 7F F8  FF FF 7F 73 30 35 38 01  E..........s058.
0730: 80 2B E3 A1 10 01 57 80  23 66 02 80 E4 A1 10 01  .+....W.#f......
0740: E4 A1 10 01 74 68 6B 31  2B E4 A1 10 01 58 80 23  ....thk1+....X.#
0750: 52 10 80 F8 FF FF 7F F8  FF FF 7F 73 30 35 38 45  R..........s058E
0760: 10 80 F8 FF FF 7F F8 FF  FF 7F 73 30 35 39 01 80  ..........s059..
0770: 79 00 E2 A1 10 01 E1 A1  10 01 2B E2 A1 10 01 59  y.........+....Y
0780: 80 23 52 10 80 F8 FF FF  7F F8 FF FF 7F 73 30 35  .#R..........s05
0790: 39 45 10 80 F8 FF FF 7F  F8 FF FF 7F 73 30 36 30  9E..........s060
07A0: 01 80 6E E1 A1 10 01 18  80 99 E1 A1 10 01 2B E1  ..n...........+.
07B0: A1 10 01 5A 80 23 79 00  E2 A1 10 01 E3 A1 10 01  ...Z.#y.........
07C0: 66 51 80 E3 A1 10 01 E3  A1 10 01 74 6C 6B 30 2B  fQ.........tlk0+
07D0: E3 A1 10 01 5B 80 23 66  51 80 E3 A1 10 01 E3 A1  ....[.#fQ.......
07E0: 10 01 74 6C 6B 31 52 10  80 F8 FF FF 7F F8 FF FF  ..tlk1R.........
07F0: 7F 73 30 36 30 45 10 80  F8 FF FF 7F F8 FF FF 7F  .s060E..........
0800: 73 30 36 31 01 80 66 54  80 E2 A1 10 01 E2 A1 10  s061..fT........
0810: 01 74 6C 6B 30 2B E2 A1  10 01 5C 80 23 66 54 80  .tlk0+....\.#fT.
0820: E2 A1 10 01 E2 A1 10 01  74 6C 6B 31 6E E3 A1 10  ........tlk1n...
0830: 01 5D 80 99 E3 A1 10 01  2B E3 A1 10 01 5E 80 23  .]......+....^.#
0840: 52 10 80 F8 FF FF 7F F8  FF FF 7F 73 30 36 31 45  R..........s061E
0850: 10 80 F8 FF FF 7F F8 FF  FF 7F 73 30 36 32 01 80  ..........s062..
0860: 2B E2 A1 10 01 5F 80 23  52 10 80 F8 FF FF 7F F8  +...._.#R.......
0870: FF FF 7F 73 30 36 32 45  10 80 F8 FF FF 7F F8 FF  ...s062E........
0880: FF 7F 73 30 36 33 01 80  66 02 80 E4 A1 10 01 E4  ..s063..f.......
0890: A1 10 01 74 68 6B 32 2B  E3 A1 10 01 60 80 23 4A  ...thk2+....`.#J
08A0: E2 A1 10 01 E4 A1 10 01  2B E4 A1 10 01 61 80 23  ........+....a.#
08B0: 6E E2 A1 10 01 01 80 99  E2 A1 10 01 52 10 80 F8  n...........R...
08C0: FF FF 7F F8 FF FF 7F 73  30 36 33 45 10 80 F8 FF  .......s063E....
08D0: FF 7F F8 FF FF 7F 73 30  36 34 01 80 2B E2 A1 10  ......s064..+...
08E0: 01 62 80 23 55 10 80 F8  FF FF 7F F8 FF FF 7F 73  .b.#U..........s
08F0: 30 36 34 6E E4 A1 10 01  1F 80 99 E4 A1 10 01 2B  064n...........+
0900: E4 A1 10 01 63 80 23 45  10 80 F8 FF FF 7F F8 FF  ....c.#E........
0910: FF 7F 73 30 36 35 01 80  79 00 E1 A1 10 01 E3 A1  ..s065..y.......
0920: 10 01 66 51 80 E3 A1 10  01 E3 A1 10 01 74 6C 6B  ..fQ.........tlk
0930: 30 4A E2 A1 10 01 E3 A1  10 01 2B E3 A1 10 01 64  0J........+....d
0940: 80 23 66 51 80 E3 A1 10  01 E3 A1 10 01 74 6C 6B  .#fQ.........tlk
0950: 31 79 00 E1 A1 10 01 E2  A1 10 01 66 54 80 E2 A1  1y.........fT...
0960: 10 01 E2 A1 10 01 74 68  6B 31 2B E2 A1 10 01 65  ......thk1+....e
0970: 80 23 66 1A 80 E1 A1 10  01 E1 A1 10 01 74 6C 6B  .#f..........tlk
0980: 30 52 10 80 F8 FF FF 7F  F8 FF FF 7F 73 30 36 35  0R..........s065
0990: 45 10 80 F8 FF FF 7F F8  FF FF 7F 73 30 36 36 01  E..........s066.
09A0: 80 79 00 F0 FF FF 7F E1  A1 10 01 2B E1 A1 10 01  .y.........+....
09B0: 66 80 23 66 1A 80 E1 A1  10 01 E1 A1 10 01 74 6C  f.#f..........tl
09C0: 6B 31 52 10 80 F8 FF FF  7F F8 FF FF 7F 73 30 36  k1R..........s06
09D0: 36 45 10 80 F8 FF FF 7F  F8 FF FF 7F 73 30 36 37  6E..........s067
09E0: 01 80 66 54 80 E2 A1 10  01 E2 A1 10 01 74 68 6B  ..fT.........thk
09F0: 32 79 00 E2 A1 10 01 E1  A1 10 01 2B E2 A1 10 01  2y.........+....
0A00: 67 80 23 52 10 80 F8 FF  FF 7F F8 FF FF 7F 73 30  g.#R..........s0
0A10: 36 37 45 10 80 F8 FF FF  7F F8 FF FF 7F 73 30 36  67E..........s06
0A20: 38 01 80 6E E1 A1 10 01  1F 80 99 E1 A1 10 01 2B  8..n...........+
0A30: E1 A1 10 01 68 80 23 6E  E2 A1 10 01 4F 80 99 E2  ....h.#n....O...
0A40: A1 10 01 52 10 80 F8 FF  FF 7F F8 FF FF 7F 73 30  ...R..........s0
0A50: 36 38 45 10 80 F8 FF FF  7F F8 FF FF 7F 73 30 36  68E..........s06
0A60: 39 01 80 2B E2 A1 10 01  69 80 23 55 10 80 F8 FF  9..+....i.#U....
0A70: FF 7F F8 FF FF 7F 73 30  36 39 45 10 80 F8 FF FF  ......s069E.....
0A80: 7F F8 FF FF 7F 73 30 37  30 01 80 66 54 80 E2 A1  .....s070..fT...
0A90: 10 01 E2 A1 10 01 74 6C  6B 30 79 00 F0 FF FF 7F  ......tlk0y.....
0AA0: E2 A1 10 01 03 02 10 8B  7F 2B E2 A1 10 01 6A 80  .........+....j.
0AB0: 23 66 54 80 E2 A1 10 01  E2 A1 10 01 74 6C 6B 31  #fT.........tlk1
0AC0: 52 10 80 F8 FF FF 7F F8  FF FF 7F 73 30 37 30 45  R..........s070E
0AD0: 10 80 F8 FF FF 7F F8 FF  FF 7F 73 30 37 31 01 80  ..........s071..
0AE0: 79 00 E2 A1 10 01 E3 A1  10 01 81 00 E3 A1 10 01  y...............
0AF0: 66 51 80 E3 A1 10 01 E3  A1 10 01 74 68 6B 31 2B  fQ.........thk1+
0B00: E3 A1 10 01 6B 80 23 79  00 E4 A1 10 01 E3 A1 10  ....k.#y........
0B10: 01 2B E4 A1 10 01 6C 80  23 52 10 80 F8 FF FF 7F  .+....l.#R......
0B20: F8 FF FF 7F 73 30 37 31  45 10 80 F8 FF FF 7F F8  ....s071E.......
0B30: FF FF 7F 73 30 37 32 01  80 81 01 E3 A1 10 01 66  ...s072........f
0B40: 51 80 E3 A1 10 01 E3 A1  10 01 74 68 6B 32 79 00  Q.........thk2y.
0B50: E3 A1 10 01 E4 A1 10 01  2B E3 A1 10 01 6D 80 23  ........+....m.#
0B60: 52 10 80 F8 FF FF 7F F8  FF FF 7F 73 30 37 32 45  R..........s072E
0B70: 10 80 F8 FF FF 7F F8 FF  FF 7F 73 30 37 33 01 80  ..........s073..
0B80: 66 54 80 E2 A1 10 01 E2  A1 10 01 74 68 6B 31 2B  fT.........thk1+
0B90: E2 A1 10 01 6E 80 23 66  54 80 E2 A1 10 01 E2 A1  ....n.#fT.......
0BA0: 10 01 74 68 6B 32 79 00  E3 A1 10 01 E2 A1 10 01  ..thk2y.........
0BB0: 1C 11 80 79 00 E4 A1 10  01 E2 A1 10 01 6E E3 A1  ...y.........n..
0BC0: 10 01 1F 80 99 E3 A1 10  01 2B E3 A1 10 01 6F 80  .........+....o.
0BD0: 23 52 10 80 F8 FF FF 7F  F8 FF FF 7F 73 30 37 33  #R..........s073
0BE0: 45 10 80 F8 FF FF 7F F8  FF FF 7F 73 30 37 34 01  E..........s074.
0BF0: 80 4A E2 A1 10 01 E1 A1  10 01 1C 16 80 BA F0 FF  .J..............
0C00: FF 7F 70 80 71 80 72 80  4E 80 66 54 80 E2 A1 10  ..p.q.r.N.fT....
0C10: 01 E2 A1 10 01 74 6C 6B  30 2B E2 A1 10 01 73 80  .....tlk0+....s.
0C20: 23 66 54 80 E2 A1 10 01  E2 A1 10 01 74 6C 6B 31  #fT.........tlk1
0C30: 52 10 80 F8 FF FF 7F F8  FF FF 7F 73 30 37 34 45  R..........s074E
0C40: 10 80 F8 FF FF 7F F8 FF  FF 7F 73 30 37 35 01 80  ..........s075..
0C50: 66 1A 80 E1 A1 10 01 E1  A1 10 01 74 6C 6B 30 2B  f..........tlk0+
0C60: E1 A1 10 01 74 80 23 66  1A 80 E1 A1 10 01 E1 A1  ....t.#f........
0C70: 10 01 74 6C 6B 31 52 10  80 F8 FF FF 7F F8 FF FF  ..tlk1R.........
0C80: 7F 73 30 37 35 45 10 80  F8 FF FF 7F F8 FF FF 7F  .s075E..........
0C90: 73 30 37 36 01 80 AD 00  75 80 E2 A1 10 01 E2 A1  s076....u.......
0CA0: 10 01 1C 11 80 AD 00 75  80 E3 A1 10 01 E3 A1 10  .......u........
0CB0: 01 1C 11 80 AD 00 75 80  E4 A1 10 01 E4 A1 10 01  ......u.........
0CC0: 1C 35 80 27 05 E2 A1 10  01 02 1C 11 80 27 05 E3  .5.'.........'..
0CD0: A1 10 01 04 1C 11 80 27  05 E4 A1 10 01 03 1C 16  .......'........
0CE0: 80 52 10 80 F8 FF FF 7F  F8 FF FF 7F 73 30 37 36  .R..........s076
0CF0: 45 10 80 F8 FF FF 7F F8  FF FF 7F 73 30 37 39 01  E..........s079.
0D00: 80 1C 76 80 52 10 80 F8  FF FF 7F F8 FF FF 7F 73  ..v.R..........s
0D10: 30 37 39 45 10 80 F8 FF  FF 7F F8 FF FF 7F 73 30  079E..........s0
0D20: 37 37 01 80 2B E1 A1 10  01 77 80 23 52 10 80 F8  77..+....w.#R...
0D30: FF FF 7F F8 FF FF 7F 73  30 37 37 45 10 80 F8 FF  .......s077E....
0D40: FF 7F F8 FF FF 7F 73 30  37 38 01 80 4A E1 A1 10  ......s078..J...
0D50: 01 F0 FF FF 7F 1C 16 80  79 00 F0 FF FF 7F E1 A1  ........y.......
0D60: 10 01 6E E1 A1 10 01 1F  80 99 E1 A1 10 01 2B E1  ..n...........+.
0D70: A1 10 01 78 80 23 45 00  80 F8 FF FF 7F F8 FF FF  ...x.#E.........
0D80: 7F 66 64 6F 31 01 80 55  00 80 F8 FF FF 7F F8 FF  .fdo1..U........
0D90: FF 7F 66 64 6F 31 52 10  80 F8 FF FF 7F F8 FF FF  ..fdo1R.........
0DA0: 7F 73 30 37 38 46 00 45  00 80 F8 FF FF 7F F8 FF  .s078F.E........
0DB0: FF 7F 66 64 69 32 01 80  21 00                    ..fdi2..!.      
```

#### Opcodes

```
  0: 0x02DD [0x42] SET_CLI_EVENT_CANCEL_DATA()
  1: 0x02DE [0x45] LOAD_SCHEDULED_TASK: Load scheduler "fdo1" with entities [EventEntity, EventEntity], work=[200*, 0*]
  2: 0x02EF [0x55] WAIT_LOAD_SCHEDULER: Wait for scheduler "fdo1" with entities [EventEntity, EventEntity], work=200*
  3: 0x02FE [0x46] CAMERA_CONTROL: Disable user control
  4: 0x0300 [0x38] SET_CLIENT_EVENT_MODE(mode=19*)
  5: 0x0303 [0x2F] Nashu (ID: 17867233/0x0110A1E1)->Render.Flags0 &= ~0x80000 // Bit 19
  6: 0x0309 [0x2F] Zunmimi (ID: 17867235/0x0110A1E3)->Render.Flags0 &= ~0x80000 // Bit 19
  7: 0x030F [0x2F] Melisandra (ID: 17867236/0x0110A1E4)->Render.Flags0 &= ~0x80000 // Bit 19
  8: 0x0315 [0x2F] Gramk-Droog (ID: 17867237/0x0110A1E5)->Render.Flags0 &= ~0x80000 // Bit 19
  9: 0x031B [0x4E] SET_ENTITY_HIDE_FLAG: Show Nashu (ID: 17867233/0x0110A1E1)
 10: 0x0321 [0x4E] SET_ENTITY_HIDE_FLAG: Show Gramk-Droog (ID: 17867237/0x0110A1E5)
 11: 0x0327 [0x4E] SET_ENTITY_HIDE_FLAG: Show Zunmimi (ID: 17867235/0x0110A1E3)
 12: 0x032D [0x4E] SET_ENTITY_HIDE_FLAG: Show Melisandra (ID: 17867236/0x0110A1E4)
 13: 0x0333 [0x92] Nashu (ID: 17867233/0x0110A1E1)->Render.Flags3 ^= 0x01
 14: 0x0339 [0x92] Zunmimi (ID: 17867235/0x0110A1E3)->Render.Flags3 ^= 0x01
 15: 0x033F [0x92] Melisandra (ID: 17867236/0x0110A1E4)->Render.Flags3 ^= 0x01
 16: 0x0345 [0x92] Gramk-Droog (ID: 17867237/0x0110A1E5)->Render.Flags3 ^= 0x01
 17: 0x034B [0x94] LocalPlayer->Render.Flags3 ^= 0x01
 18: 0x0351 [0x94] Gramk-Droog (ID: 17867237/0x0110A1E5)->Render.Flags3 ^= 0x01
 19: 0x0357 [0x94] Nashu (ID: 17867233/0x0110A1E1)->Render.Flags3 ^= 0x01
 20: 0x035D [0x94] Zunmimi (ID: 17867235/0x0110A1E3)->Render.Flags3 ^= 0x01
 21: 0x0363 [0x94] Melisandra (ID: 17867236/0x0110A1E4)->Render.Flags3 ^= 0x01
 22: 0x0369 [0xBA] SET_ENTITY_POSITION(entity_id=Nashu (ID: 17867233/0x0110A1E1), pos_x=-106.573*, pos_z=-81.963*, pos_y=20.538*, direction=154.8°*)
 23: 0x0376 [0xBA] SET_ENTITY_POSITION(entity_id=Gramk-Droog (ID: 17867237/0x0110A1E5), pos_x=-113.120*, pos_z=-79.716*, pos_y=20.142*, direction=29.8°*)
 24: 0x0383 [0xBA] SET_ENTITY_POSITION(entity_id=LocalPlayer, pos_x=-114.048*, pos_z=-85.057*, pos_y=20.042*, direction=273.0°*)
 25: 0x0390 [0xBA] SET_ENTITY_POSITION(entity_id=Zunmimi (ID: 17867235/0x0110A1E3), pos_x=-106.214*, pos_z=-80.085*, pos_y=20.574*, direction=142.2°*)
 26: 0x039D [0xBA] SET_ENTITY_POSITION(entity_id=Melisandra (ID: 17867236/0x0110A1E4), pos_x=-104.974*, pos_z=-80.802*, pos_y=20.698*, direction=141.7°*)
 27: 0x03AA [0x80] LOAD_WAIT(entity=LocalPlayer)
 28: 0x03AF [0x80] LOAD_WAIT(entity=Nashu (ID: 17867233/0x0110A1E1))
 29: 0x03B4 [0x80] LOAD_WAIT(entity=Gramk-Droog (ID: 17867237/0x0110A1E5))
 30: 0x03B9 [0x80] LOAD_WAIT(entity=Zunmimi (ID: 17867235/0x0110A1E3))
 31: 0x03BE [0x80] LOAD_WAIT(entity=Melisandra (ID: 17867236/0x0110A1E4))
 32: 0x03C3 [0x4A] Zunmimi (ID: 17867235/0x0110A1E3) looks at Nashu (ID: 17867233/0x0110A1E1)
 33: 0x03CC [0x4A] Gramk-Droog (ID: 17867237/0x0110A1E5) looks at LocalPlayer
 34: 0x03D5 [0x4A] LocalPlayer looks at Gramk-Droog (ID: 17867237/0x0110A1E5)
 35: 0x03DE [0x1C] WAIT(30* ticks)
 36: 0x03E1 [0x27] REQ_SET(priority=0x05, entity_id=LocalPlayer, tag_num=0x08)
 37: 0x03E8 [0x45] LOAD_SCHEDULED_TASK: Load scheduler "s050" with entities [EventEntity, EventEntity], work=[629*, 0*]
 38: 0x03F9 [0x1C] WAIT(15* ticks)
 39: 0x03FC [0x45] LOAD_SCHEDULED_TASK: Load scheduler "fdi1" with entities [EventEntity, EventEntity], work=[200*, 0*]
 40: 0x040D [0x2C] CREATE_SCHEDULER_TASK: Create scheduler "dead" with entities [Gramk-Droog (ID: 17867237/0x0110A1E5), Gramk-Droog (ID: 17867237/0x0110A1E5)]
 41: 0x041A [0x1C] WAIT(120* ticks)
 42: 0x041D [0x52] END_LOAD_SCHEDULER: End scheduler "s050" with entities [EventEntity, EventEntity], work=629*
 43: 0x042C [0x45] LOAD_SCHEDULED_TASK: Load scheduler "s051" with entities [EventEntity, EventEntity], work=[629*, 0*]
 44: 0x043D [0x27] REQ_SET(priority=0x05, entity_id=LocalPlayer, tag_num=0x09)
 45: 0x0444 [0x9F] LOAD_SCHEDULED_TASK_ALT: Load scheduler "str0" with entities [EventEntity, EventEntity], work=[127*, 0*]
 46: 0x0455 [0x1C] WAIT(15* ticks)
 47: 0x0458 [0x9F] LOAD_SCHEDULED_TASK_ALT: Load scheduler "kill" with entities [EventEntity, EventEntity], work=[127*, 0*]
 48: 0x0469 [0x1C] WAIT(10* ticks)
 49: 0x046C [0x9F] LOAD_SCHEDULED_TASK_ALT: Load scheduler "str0" with entities [EventEntity, EventEntity], work=[127*, 0*]
 50: 0x047D [0x1C] WAIT(15* ticks)
 51: 0x0480 [0x9F] LOAD_SCHEDULED_TASK_ALT: Load scheduler "kill" with entities [EventEntity, EventEntity], work=[127*, 0*]
 52: 0x0491 [0x1C] WAIT(30* ticks)
 53: 0x0494 [0x27] REQ_SET(priority=0x05, entity_id=Nashu (ID: 17867233/0x0110A1E1), tag_num=0x05)
 54: 0x049B [0x1C] WAIT(20* ticks)
 55: 0x049E [0x52] END_LOAD_SCHEDULER: End scheduler "s051" with entities [EventEntity, EventEntity], work=629*
 56: 0x04AD [0x45] LOAD_SCHEDULED_TASK: Load scheduler "s052" with entities [EventEntity, EventEntity], work=[629*, 0*]
 57: 0x04BE [0x79] LocalPlayer looks at Nashu (ID: 17867233/0x0110A1E1) (Basic look)
 58: 0x04C8 [0x2B] Nashu (ID: 17867233/0x0110A1E1) [7911*]:
    → "This victory is surely proof that She deems our mission a righteous one. Thank you, <Player>."
 59: 0x04CF [0x23] WAIT_FOR_DIALOG_INTERACTION
 60: 0x04D0 [0x2A] GET_REQ_LEVEL(level=5, entity_id=Nashu (ID: 17867233/0x0110A1E1))
 61: 0x04D6 [0x27] REQ_SET(priority=0x05, entity_id=Zunmimi (ID: 17867235/0x0110A1E3), tag_num=0x02)
 62: 0x04DD [0x1C] WAIT(15* ticks)
 63: 0x04E0 [0x27] REQ_SET(priority=0x05, entity_id=Melisandra (ID: 17867236/0x0110A1E4), tag_num=0x02)
 64: 0x04E7 [0x1C] WAIT(15* ticks)
 65: 0x04EA [0x52] END_LOAD_SCHEDULER: End scheduler "s052" with entities [EventEntity, EventEntity], work=629*
 66: 0x04F9 [0x45] LOAD_SCHEDULED_TASK: Load scheduler "s053" with entities [EventEntity, EventEntity], work=[629*, 0*]
 67: 0x050A [0x4A] Nashu (ID: 17867233/0x0110A1E1) looks at Zunmimi (ID: 17867235/0x0110A1E3)
 68: 0x0513 [0x1C] WAIT(30* ticks)
 69: 0x0516 [0x4A] LocalPlayer looks at Zunmimi (ID: 17867235/0x0110A1E3)
 70: 0x051F [0x4E] SET_ENTITY_HIDE_FLAG: Hide Gramk-Droog (ID: 17867237/0x0110A1E5)
 71: 0x0525 [0x2B] Zunmimi (ID: 17867235/0x0110A1E3) [7912*]:
    → "Well, that was easy-weasy. We didn't even have to lift a finger. I think these drones might just have what it takes to be our personal shields."
 72: 0x052C [0x23] WAIT_FOR_DIALOG_INTERACTION
 73: 0x052D [0x2A] GET_REQ_LEVEL(level=5, entity_id=Zunmimi (ID: 17867235/0x0110A1E3))
 74: 0x0533 [0x52] END_LOAD_SCHEDULER: End scheduler "s053" with entities [EventEntity, EventEntity], work=629*
 75: 0x0542 [0x45] LOAD_SCHEDULED_TASK: Load scheduler "s054" with entities [EventEntity, EventEntity], work=[629*, 0*]
 76: 0x0553 [0x27] REQ_SET(priority=0x05, entity_id=Zunmimi (ID: 17867235/0x0110A1E3), tag_num=0x03)
 77: 0x055A [0x2B] Zunmimi (ID: 17867235/0x0110A1E3) [7913*]:
    → "Soraa, are you okay?"
 78: 0x0561 [0x1C] WAIT(120* ticks)
 79: 0x0564 [0x45] LOAD_SCHEDULED_TASK: Load scheduler "fdo1" with entities [EventEntity, EventEntity], work=[200*, 0*]
 80: 0x0575 [0x55] WAIT_LOAD_SCHEDULER: Wait for scheduler "fdo1" with entities [EventEntity, EventEntity], work=200*
 81: 0x0584 [0x52] END_LOAD_SCHEDULER: End scheduler "s054" with entities [EventEntity, EventEntity], work=629*
 82: 0x0593 [0x7A] VM_CONTROL: Reset VM for Zunmimi (ID: 17867235/0x0110A1E3)
 83: 0x0599 [0x2F] Soraa Ishakal (ID: 17867234/0x0110A1E2)->Render.Flags0 &= ~0x80000 // Bit 19
 84: 0x059F [0x4E] SET_ENTITY_HIDE_FLAG: Show Soraa Ishakal (ID: 17867234/0x0110A1E2)
 85: 0x05A5 [0x92] Soraa Ishakal (ID: 17867234/0x0110A1E2)->Render.Flags3 ^= 0x01
 86: 0x05AB [0x94] Soraa Ishakal (ID: 17867234/0x0110A1E2)->Render.Flags3 ^= 0x01
 87: 0x05B1 [0xBA] SET_ENTITY_POSITION(entity_id=Soraa Ishakal (ID: 17867234/0x0110A1E2), pos_x=-112.797*, pos_z=-79.498*, pos_y=20.158*, direction=37.1°*)
 88: 0x05BE [0xBA] SET_ENTITY_POSITION(entity_id=Zunmimi (ID: 17867235/0x0110A1E3), pos_x=-111.609*, pos_z=-81.209*, pos_y=20.217*, direction=233.4°*)
 89: 0x05CB [0xBA] SET_ENTITY_POSITION(entity_id=Melisandra (ID: 17867236/0x0110A1E4), pos_x=-110.421*, pos_z=-79.658*, pos_y=20.276*, direction=208.6°*)
 90: 0x05D8 [0xBA] SET_ENTITY_POSITION(entity_id=Nashu (ID: 17867233/0x0110A1E1), pos_x=-113.898*, pos_z=-83.473*, pos_y=20.103*, direction=270.8°*)
 91: 0x05E5 [0xBA] SET_ENTITY_POSITION(entity_id=LocalPlayer, pos_x=-114.784*, pos_z=-83.912*, pos_y=20.059*, direction=301.8°*)
 92: 0x05F2 [0x80] LOAD_WAIT(entity=Soraa Ishakal (ID: 17867234/0x0110A1E2))
 93: 0x05F7 [0x80] LOAD_WAIT(entity=Zunmimi (ID: 17867235/0x0110A1E3))
 94: 0x05FC [0x80] LOAD_WAIT(entity=Melisandra (ID: 17867236/0x0110A1E4))
 95: 0x0601 [0x80] LOAD_WAIT(entity=LocalPlayer)
 96: 0x0606 [0x80] LOAD_WAIT(entity=Nashu (ID: 17867233/0x0110A1E1))
 97: 0x060B [0x4A] Zunmimi (ID: 17867235/0x0110A1E3) looks at Soraa Ishakal (ID: 17867234/0x0110A1E2)
 98: 0x0614 [0x4A] Melisandra (ID: 17867236/0x0110A1E4) looks at Soraa Ishakal (ID: 17867234/0x0110A1E2)
 99: 0x061D [0x4A] LocalPlayer looks at Soraa Ishakal (ID: 17867234/0x0110A1E2)
100: 0x0626 [0x4A] Nashu (ID: 17867233/0x0110A1E1) looks at Soraa Ishakal (ID: 17867234/0x0110A1E2)
101: 0x062F [0x1C] WAIT(30* ticks)
102: 0x0632 [0x45] LOAD_SCHEDULED_TASK: Load scheduler "s055" with entities [EventEntity, EventEntity], work=[629*, 0*]
103: 0x0643 [0x1C] WAIT(15* ticks)
104: 0x0646 [0x45] LOAD_SCHEDULED_TASK: Load scheduler "fdi1" with entities [EventEntity, EventEntity], work=[200*, 0*]
105: 0x0657 [0x6E] Soraa Ishakal (ID: 17867234/0x0110A1E2) uses emote 22*
106: 0x065E [0x99] Wait for Soraa Ishakal (ID: 17867234/0x0110A1E2) animation to complete
107: 0x0663 [0x2B] Soraa Ishakal (ID: 17867234/0x0110A1E2) [7914*]:
    → "What? Why're you two here?"
108: 0x066A [0x23] WAIT_FOR_DIALOG_INTERACTION
109: 0x066B [0x52] END_LOAD_SCHEDULER: End scheduler "s055" with entities [EventEntity, EventEntity], work=629*
110: 0x067A [0x45] LOAD_SCHEDULED_TASK: Load scheduler "s056" with entities [EventEntity, EventEntity], work=[629*, 0*]
111: 0x068B [0x66] LOAD_EXT_SCHEDULER_MAIN: Load scheduler "tlk0" with entities [Zunmimi (ID: 17867235/0x0110A1E3), Zunmimi (ID: 17867235/0x0110A1E3)], work=49*
112: 0x069A [0x2B] Zunmimi (ID: 17867235/0x0110A1E3) [7915*]:
    → "Why!? To keep you from becoming-woming a Mithra meat pie, dummy!"
113: 0x06A1 [0x23] WAIT_FOR_DIALOG_INTERACTION
114: 0x06A2 [0x66] LOAD_EXT_SCHEDULER_MAIN: Load scheduler "tlk1" with entities [Zunmimi (ID: 17867235/0x0110A1E3), Zunmimi (ID: 17867235/0x0110A1E3)], work=49*
115: 0x06B1 [0x79] Soraa Ishakal (ID: 17867234/0x0110A1E2) looks at Zunmimi (ID: 17867235/0x0110A1E3) (Basic look)
116: 0x06BB [0x2B] Soraa Ishakal (ID: 17867234/0x0110A1E2) [7916*]:
    → "You really thought they'd kill me? I didn't know you were such a morrron, Zunmimi."
117: 0x06C2 [0x23] WAIT_FOR_DIALOG_INTERACTION
118: 0x06C3 [0x52] END_LOAD_SCHEDULER: End scheduler "s056" with entities [EventEntity, EventEntity], work=629*
119: 0x06D2 [0x45] LOAD_SCHEDULED_TASK: Load scheduler "s057" with entities [EventEntity, EventEntity], work=[629*, 0*]
120: 0x06E3 [0x66] LOAD_EXT_SCHEDULER_MAIN: Load scheduler "tlk0" with entities [Soraa Ishakal (ID: 17867234/0x0110A1E2), Soraa Ishakal (ID: 17867234/0x0110A1E2)], work=59*
121: 0x06F2 [0x2B] Soraa Ishakal (ID: 17867234/0x0110A1E2) [7917*]:
    → "If they were going to scratch me from the prrroverbial books, they'd have done it as soon as they got their claws on me."
122: 0x06F9 [0x23] WAIT_FOR_DIALOG_INTERACTION
123: 0x06FA [0x2B] Soraa Ishakal (ID: 17867234/0x0110A1E2) [7918*]:
    → "Yet they brrrought me here, which means they must need me for something."
124: 0x0701 [0x23] WAIT_FOR_DIALOG_INTERACTION
125: 0x0702 [0x66] LOAD_EXT_SCHEDULER_MAIN: Load scheduler "tlk1" with entities [Soraa Ishakal (ID: 17867234/0x0110A1E2), Soraa Ishakal (ID: 17867234/0x0110A1E2)], work=59*
126: 0x0711 [0x52] END_LOAD_SCHEDULER: End scheduler "s057" with entities [EventEntity, EventEntity], work=629*
127: 0x0720 [0x45] LOAD_SCHEDULED_TASK: Load scheduler "s058" with entities [EventEntity, EventEntity], work=[629*, 0*]
128: 0x0731 [0x2B] Zunmimi (ID: 17867235/0x0110A1E3) [7919*]:
    → "Um... I g-guess you have a pointaru."
129: 0x0738 [0x23] WAIT_FOR_DIALOG_INTERACTION
130: 0x0739 [0x66] LOAD_EXT_SCHEDULER_MAIN: Load scheduler "thk1" with entities [Melisandra (ID: 17867236/0x0110A1E4), Melisandra (ID: 17867236/0x0110A1E4)], work=19*
131: 0x0748 [0x2B] Melisandra (ID: 17867236/0x0110A1E4) [7920*]:
    → "Why wouldn't they have killed her...?"
132: 0x074F [0x23] WAIT_FOR_DIALOG_INTERACTION
133: 0x0750 [0x52] END_LOAD_SCHEDULER: End scheduler "s058" with entities [EventEntity, EventEntity], work=629*
134: 0x075F [0x45] LOAD_SCHEDULED_TASK: Load scheduler "s059" with entities [EventEntity, EventEntity], work=[629*, 0*]
135: 0x0770 [0x79] Soraa Ishakal (ID: 17867234/0x0110A1E2) looks at Nashu (ID: 17867233/0x0110A1E1) (Basic look)
136: 0x077A [0x2B] Soraa Ishakal (ID: 17867234/0x0110A1E2) [7921*]:
    → "...By the way, what in the weald are this altar boy and his handler doing here?"
137: 0x0781 [0x23] WAIT_FOR_DIALOG_INTERACTION
138: 0x0782 [0x52] END_LOAD_SCHEDULER: End scheduler "s059" with entities [EventEntity, EventEntity], work=629*
139: 0x0791 [0x45] LOAD_SCHEDULED_TASK: Load scheduler "s060" with entities [EventEntity, EventEntity], work=[629*, 0*]
140: 0x07A2 [0x6E] Nashu (ID: 17867233/0x0110A1E1) uses emote 29*
141: 0x07A9 [0x99] Wait for Nashu (ID: 17867233/0x0110A1E1) animation to complete
142: 0x07AE [0x2B] Nashu (ID: 17867233/0x0110A1E1) [7922*]:
    → "Well...I...that is to say..."
143: 0x07B5 [0x23] WAIT_FOR_DIALOG_INTERACTION
144: 0x07B6 [0x79] Soraa Ishakal (ID: 17867234/0x0110A1E2) looks at Zunmimi (ID: 17867235/0x0110A1E3) (Basic look)
145: 0x07C0 [0x66] LOAD_EXT_SCHEDULER_MAIN: Load scheduler "tlk0" with entities [Zunmimi (ID: 17867235/0x0110A1E3), Zunmimi (ID: 17867235/0x0110A1E3)], work=49*
146: 0x07CF [0x2B] Zunmimi (ID: 17867235/0x0110A1E3) [7923*]:
    → "You can stutter-wutter once we get somewhere safe."
147: 0x07D6 [0x23] WAIT_FOR_DIALOG_INTERACTION
148: 0x07D7 [0x66] LOAD_EXT_SCHEDULER_MAIN: Load scheduler "tlk1" with entities [Zunmimi (ID: 17867235/0x0110A1E3), Zunmimi (ID: 17867235/0x0110A1E3)], work=49*
149: 0x07E6 [0x52] END_LOAD_SCHEDULER: End scheduler "s060" with entities [EventEntity, EventEntity], work=629*
150: 0x07F5 [0x45] LOAD_SCHEDULED_TASK: Load scheduler "s061" with entities [EventEntity, EventEntity], work=[629*, 0*]
151: 0x0806 [0x66] LOAD_EXT_SCHEDULER_MAIN: Load scheduler "tlk0" with entities [Soraa Ishakal (ID: 17867234/0x0110A1E2), Soraa Ishakal (ID: 17867234/0x0110A1E2)], work=59*
152: 0x0815 [0x2B] Soraa Ishakal (ID: 17867234/0x0110A1E2) [7924*]:
    → "Wait. I overheard some juicy tidbits while imprrrisoned here."
153: 0x081C [0x23] WAIT_FOR_DIALOG_INTERACTION
154: 0x081D [0x66] LOAD_EXT_SCHEDULER_MAIN: Load scheduler "tlk1" with entities [Soraa Ishakal (ID: 17867234/0x0110A1E2), Soraa Ishakal (ID: 17867234/0x0110A1E2)], work=59*
155: 0x082C [0x6E] Zunmimi (ID: 17867235/0x0110A1E3) uses emote 32*
156: 0x0833 [0x99] Wait for Zunmimi (ID: 17867235/0x0110A1E3) animation to complete
157: 0x0838 [0x2B] Zunmimi (ID: 17867235/0x0110A1E3) [7925*]:
    → "Just how juicy were these tidbitarus?"
158: 0x083F [0x23] WAIT_FOR_DIALOG_INTERACTION
159: 0x0840 [0x52] END_LOAD_SCHEDULER: End scheduler "s061" with entities [EventEntity, EventEntity], work=629*
160: 0x084F [0x45] LOAD_SCHEDULED_TASK: Load scheduler "s062" with entities [EventEntity, EventEntity], work=[629*, 0*]
161: 0x0860 [0x2B] Soraa Ishakal (ID: 17867234/0x0110A1E2) [7926*]:
    → "Some overly chatty Velkk rrrevealed the location of the you-know-what."
162: 0x0867 [0x23] WAIT_FOR_DIALOG_INTERACTION
163: 0x0868 [0x52] END_LOAD_SCHEDULER: End scheduler "s062" with entities [EventEntity, EventEntity], work=629*
164: 0x0877 [0x45] LOAD_SCHEDULED_TASK: Load scheduler "s063" with entities [EventEntity, EventEntity], work=[629*, 0*]
165: 0x0888 [0x66] LOAD_EXT_SCHEDULER_MAIN: Load scheduler "thk2" with entities [Melisandra (ID: 17867236/0x0110A1E4), Melisandra (ID: 17867236/0x0110A1E4)], work=19*
166: 0x0897 [0x2B] Zunmimi (ID: 17867235/0x0110A1E3) [7927*]:
    → "You don't mean..."
167: 0x089E [0x23] WAIT_FOR_DIALOG_INTERACTION
168: 0x089F [0x4A] Soraa Ishakal (ID: 17867234/0x0110A1E2) looks at Melisandra (ID: 17867236/0x0110A1E4)
169: 0x08A8 [0x2B] Melisandra (ID: 17867236/0x0110A1E4) [7928*]:
    → "Their treasure."
170: 0x08AF [0x23] WAIT_FOR_DIALOG_INTERACTION
171: 0x08B0 [0x6E] Soraa Ishakal (ID: 17867234/0x0110A1E2) uses emote 0*
172: 0x08B7 [0x99] Wait for Soraa Ishakal (ID: 17867234/0x0110A1E2) animation to complete
173: 0x08BC [0x52] END_LOAD_SCHEDULER: End scheduler "s063" with entities [EventEntity, EventEntity], work=629*
174: 0x08CB [0x45] LOAD_SCHEDULED_TASK: Load scheduler "s064" with entities [EventEntity, EventEntity], work=[629*, 0*]
175: 0x08DC [0x2B] Soraa Ishakal (ID: 17867234/0x0110A1E2) [7929*]:
    → "Prrrecisely! Now, let's make like cat burglars and nab it."
176: 0x08E3 [0x23] WAIT_FOR_DIALOG_INTERACTION
177: 0x08E4 [0x55] WAIT_LOAD_SCHEDULER: Wait for scheduler "s064" with entities [EventEntity, EventEntity], work=629*
178: 0x08F3 [0x6E] Melisandra (ID: 17867236/0x0110A1E4) uses emote 7*
179: 0x08FA [0x99] Wait for Melisandra (ID: 17867236/0x0110A1E4) animation to complete
180: 0x08FF [0x2B] Melisandra (ID: 17867236/0x0110A1E4) [7930*]:
    → "Indeed."
181: 0x0906 [0x23] WAIT_FOR_DIALOG_INTERACTION
182: 0x0907 [0x45] LOAD_SCHEDULED_TASK: Load scheduler "s065" with entities [EventEntity, EventEntity], work=[629*, 0*]
183: 0x0918 [0x79] Nashu (ID: 17867233/0x0110A1E1) looks at Zunmimi (ID: 17867235/0x0110A1E3) (Basic look)
184: 0x0922 [0x66] LOAD_EXT_SCHEDULER_MAIN: Load scheduler "tlk0" with entities [Zunmimi (ID: 17867235/0x0110A1E3), Zunmimi (ID: 17867235/0x0110A1E3)], work=49*
185: 0x0931 [0x4A] Soraa Ishakal (ID: 17867234/0x0110A1E2) looks at Zunmimi (ID: 17867235/0x0110A1E3)
186: 0x093A [0x2B] Zunmimi (ID: 17867235/0x0110A1E3) [7931*]:
    → "But once the word's out that you've escaped, everyone'll be on high alertaru!"
187: 0x0941 [0x23] WAIT_FOR_DIALOG_INTERACTION
188: 0x0942 [0x66] LOAD_EXT_SCHEDULER_MAIN: Load scheduler "tlk1" with entities [Zunmimi (ID: 17867235/0x0110A1E3), Zunmimi (ID: 17867235/0x0110A1E3)], work=49*
189: 0x0951 [0x79] Nashu (ID: 17867233/0x0110A1E1) looks at Soraa Ishakal (ID: 17867234/0x0110A1E2) (Basic look)
190: 0x095B [0x66] LOAD_EXT_SCHEDULER_MAIN: Load scheduler "thk1" with entities [Soraa Ishakal (ID: 17867234/0x0110A1E2), Soraa Ishakal (ID: 17867234/0x0110A1E2)], work=59*
191: 0x096A [0x2B] Soraa Ishakal (ID: 17867234/0x0110A1E2) [7932*]:
    → "They don't trrrust us anyway, but now we're already inside their lair! There won't be another chance this good in all our nine lives."
192: 0x0971 [0x23] WAIT_FOR_DIALOG_INTERACTION
193: 0x0972 [0x66] LOAD_EXT_SCHEDULER_MAIN: Load scheduler "tlk0" with entities [Nashu (ID: 17867233/0x0110A1E1), Nashu (ID: 17867233/0x0110A1E1)], work=9*
194: 0x0981 [0x52] END_LOAD_SCHEDULER: End scheduler "s065" with entities [EventEntity, EventEntity], work=629*
195: 0x0990 [0x45] LOAD_SCHEDULED_TASK: Load scheduler "s066" with entities [EventEntity, EventEntity], work=[629*, 0*]
196: 0x09A1 [0x79] LocalPlayer looks at Nashu (ID: 17867233/0x0110A1E1) (Basic look)
197: 0x09AB [0x2B] Nashu (ID: 17867233/0x0110A1E1) [7933*]:
    → "...And you swear that you will no longer fraternize with the Velkk once you have your prize, may the heavens strike you down?"
198: 0x09B2 [0x23] WAIT_FOR_DIALOG_INTERACTION
199: 0x09B3 [0x66] LOAD_EXT_SCHEDULER_MAIN: Load scheduler "tlk1" with entities [Nashu (ID: 17867233/0x0110A1E1), Nashu (ID: 17867233/0x0110A1E1)], work=9*
200: 0x09C2 [0x52] END_LOAD_SCHEDULER: End scheduler "s066" with entities [EventEntity, EventEntity], work=629*
201: 0x09D1 [0x45] LOAD_SCHEDULED_TASK: Load scheduler "s067" with entities [EventEntity, EventEntity], work=[629*, 0*]
202: 0x09E2 [0x66] LOAD_EXT_SCHEDULER_MAIN: Load scheduler "thk2" with entities [Soraa Ishakal (ID: 17867234/0x0110A1E2), Soraa Ishakal (ID: 17867234/0x0110A1E2)], work=59*
203: 0x09F1 [0x79] Soraa Ishakal (ID: 17867234/0x0110A1E2) looks at Nashu (ID: 17867233/0x0110A1E1) (Basic look)
204: 0x09FB [0x2B] Soraa Ishakal (ID: 17867234/0x0110A1E2) [7934*]:
    → "For cerrrtain."
205: 0x0A02 [0x23] WAIT_FOR_DIALOG_INTERACTION
206: 0x0A03 [0x52] END_LOAD_SCHEDULER: End scheduler "s067" with entities [EventEntity, EventEntity], work=629*
207: 0x0A12 [0x45] LOAD_SCHEDULED_TASK: Load scheduler "s068" with entities [EventEntity, EventEntity], work=[629*, 0*]
208: 0x0A23 [0x6E] Nashu (ID: 17867233/0x0110A1E1) uses emote 7*
209: 0x0A2A [0x99] Wait for Nashu (ID: 17867233/0x0110A1E1) animation to complete
210: 0x0A2F [0x2B] Nashu (ID: 17867233/0x0110A1E1) [7935*]:
    → "Then I shall lend my aid as well."
211: 0x0A36 [0x23] WAIT_FOR_DIALOG_INTERACTION
212: 0x0A37 [0x6E] Soraa Ishakal (ID: 17867234/0x0110A1E2) uses emote 22*
213: 0x0A3E [0x99] Wait for Soraa Ishakal (ID: 17867234/0x0110A1E2) animation to complete
214: 0x0A43 [0x52] END_LOAD_SCHEDULER: End scheduler "s068" with entities [EventEntity, EventEntity], work=629*
215: 0x0A52 [0x45] LOAD_SCHEDULED_TASK: Load scheduler "s069" with entities [EventEntity, EventEntity], work=[629*, 0*]
216: 0x0A63 [0x2B] Soraa Ishakal (ID: 17867234/0x0110A1E2) [7936*]:
    → "Hah! You? Don't make me laugh."
217: 0x0A6A [0x23] WAIT_FOR_DIALOG_INTERACTION
218: 0x0A6B [0x55] WAIT_LOAD_SCHEDULER: Wait for scheduler "s069" with entities [EventEntity, EventEntity], work=629*
219: 0x0A7A [0x45] LOAD_SCHEDULED_TASK: Load scheduler "s070" with entities [EventEntity, EventEntity], work=[629*, 0*]
220: 0x0A8B [0x66] LOAD_EXT_SCHEDULER_MAIN: Load scheduler "tlk0" with entities [Soraa Ishakal (ID: 17867234/0x0110A1E2), Soraa Ishakal (ID: 17867234/0x0110A1E2)], work=59*
221: 0x0A9A [0x79] LocalPlayer looks at Soraa Ishakal (ID: 17867234/0x0110A1E2) (Basic look)
222: 0x0AA4 [0x03] Work_Zone[2] = (LocalPlayer->Render.Flags01 >> 25) & 1
223: 0x0AA9 [0x2B] Soraa Ishakal (ID: 17867234/0x0110A1E2) [7937*]:
    → "What we're after is in Gramk-Droog's throne room at I-10. Not even reciting all the litanies in the exorcist annals could get that pioneer in, let alone a pew warmer like you."
224: 0x0AB0 [0x23] WAIT_FOR_DIALOG_INTERACTION
225: 0x0AB1 [0x66] LOAD_EXT_SCHEDULER_MAIN: Load scheduler "tlk1" with entities [Soraa Ishakal (ID: 17867234/0x0110A1E2), Soraa Ishakal (ID: 17867234/0x0110A1E2)], work=59*
226: 0x0AC0 [0x52] END_LOAD_SCHEDULER: End scheduler "s070" with entities [EventEntity, EventEntity], work=629*
227: 0x0ACF [0x45] LOAD_SCHEDULED_TASK: Load scheduler "s071" with entities [EventEntity, EventEntity], work=[629*, 0*]
228: 0x0AE0 [0x79] Soraa Ishakal (ID: 17867234/0x0110A1E2) looks at Zunmimi (ID: 17867235/0x0110A1E3) (Basic look)
229: 0x0AEA [0x81] SET_ENTITY_BLINKING(blink_flag=0x00, entity=Zunmimi (ID: 17867235/0x0110A1E3))
230: 0x0AF0 [0x66] LOAD_EXT_SCHEDULER_MAIN: Load scheduler "thk1" with entities [Zunmimi (ID: 17867235/0x0110A1E3), Zunmimi (ID: 17867235/0x0110A1E3)], work=49*
231: 0x0AFF [0x2B] Zunmimi (ID: 17867235/0x0110A1E3) [7938*]:
    → "Hmmm... Even if the tyrant himself is out, there will definitely be guards patrrrolling the area."
232: 0x0B06 [0x23] WAIT_FOR_DIALOG_INTERACTION
233: 0x0B07 [0x79] Melisandra (ID: 17867236/0x0110A1E4) looks at Zunmimi (ID: 17867235/0x0110A1E3) (Basic look)
234: 0x0B11 [0x2B] Melisandra (ID: 17867236/0x0110A1E4) [7939*]:
    → "What about using Sleepga?"
235: 0x0B18 [0x23] WAIT_FOR_DIALOG_INTERACTION
236: 0x0B19 [0x52] END_LOAD_SCHEDULER: End scheduler "s071" with entities [EventEntity, EventEntity], work=629*
237: 0x0B28 [0x45] LOAD_SCHEDULED_TASK: Load scheduler "s072" with entities [EventEntity, EventEntity], work=[629*, 0*]
238: 0x0B39 [0x81] SET_ENTITY_BLINKING(blink_flag=0x01, entity=Zunmimi (ID: 17867235/0x0110A1E3))
239: 0x0B3F [0x66] LOAD_EXT_SCHEDULER_MAIN: Load scheduler "thk2" with entities [Zunmimi (ID: 17867235/0x0110A1E3), Zunmimi (ID: 17867235/0x0110A1E3)], work=49*
240: 0x0B4E [0x79] Zunmimi (ID: 17867235/0x0110A1E3) looks at Melisandra (ID: 17867236/0x0110A1E4) (Basic look)
241: 0x0B58 [0x2B] Zunmimi (ID: 17867235/0x0110A1E3) [7940*]:
    → "That could work...if there weren't mage-wages among their ranks."
242: 0x0B5F [0x23] WAIT_FOR_DIALOG_INTERACTION
243: 0x0B60 [0x52] END_LOAD_SCHEDULER: End scheduler "s072" with entities [EventEntity, EventEntity], work=629*
244: 0x0B6F [0x45] LOAD_SCHEDULED_TASK: Load scheduler "s073" with entities [EventEntity, EventEntity], work=[629*, 0*]
245: 0x0B80 [0x66] LOAD_EXT_SCHEDULER_MAIN: Load scheduler "thk1" with entities [Soraa Ishakal (ID: 17867234/0x0110A1E2), Soraa Ishakal (ID: 17867234/0x0110A1E2)], work=59*
246: 0x0B8F [0x2B] Soraa Ishakal (ID: 17867234/0x0110A1E2) [7941*]:
    → "Then we'll just have to rrrush in, spells a-spewin'."
247: 0x0B96 [0x23] WAIT_FOR_DIALOG_INTERACTION
248: 0x0B97 [0x66] LOAD_EXT_SCHEDULER_MAIN: Load scheduler "thk2" with entities [Soraa Ishakal (ID: 17867234/0x0110A1E2), Soraa Ishakal (ID: 17867234/0x0110A1E2)], work=59*
249: 0x0BA6 [0x79] Zunmimi (ID: 17867235/0x0110A1E3) looks at Soraa Ishakal (ID: 17867234/0x0110A1E2) (Basic look)
250: 0x0BB0 [0x1C] WAIT(15* ticks)
251: 0x0BB3 [0x79] Melisandra (ID: 17867236/0x0110A1E4) looks at Soraa Ishakal (ID: 17867234/0x0110A1E2) (Basic look)
252: 0x0BBD [0x6E] Zunmimi (ID: 17867235/0x0110A1E3) uses emote 7*
253: 0x0BC4 [0x99] Wait for Zunmimi (ID: 17867235/0x0110A1E3) animation to complete
254: 0x0BC9 [0x2B] Zunmimi (ID: 17867235/0x0110A1E3) [7942*]:
    → "Sounds like a plan to me. I'm sure I can conjure-wonjure up more terrifying abominations with my pinky toe than those savages can with their whole beings."
255: 0x0BD0 [0x23] WAIT_FOR_DIALOG_INTERACTION
256: 0x0BD1 [0x52] END_LOAD_SCHEDULER: End scheduler "s073" with entities [EventEntity, EventEntity], work=629*
257: 0x0BE0 [0x45] LOAD_SCHEDULED_TASK: Load scheduler "s074" with entities [EventEntity, EventEntity], work=[629*, 0*]
258: 0x0BF1 [0x4A] Soraa Ishakal (ID: 17867234/0x0110A1E2) looks at Nashu (ID: 17867233/0x0110A1E1)
259: 0x0BFA [0x1C] WAIT(30* ticks)
260: 0x0BFD [0xBA] SET_ENTITY_POSITION(entity_id=LocalPlayer, pos_x=-115.385*, pos_z=-84.506*, pos_y=19.999*, direction=301.8°*)
261: 0x0C0A [0x66] LOAD_EXT_SCHEDULER_MAIN: Load scheduler "tlk0" with entities [Soraa Ishakal (ID: 17867234/0x0110A1E2), Soraa Ishakal (ID: 17867234/0x0110A1E2)], work=59*
262: 0x0C19 [0x2B] Soraa Ishakal (ID: 17867234/0x0110A1E2) [7943*]:
    → "That's right, we don't need weaklings like you, pulpit polisher. Go back to sprrrinkling holy water on the priory plants or whatever it is you waste your useless life doing."
263: 0x0C20 [0x23] WAIT_FOR_DIALOG_INTERACTION
264: 0x0C21 [0x66] LOAD_EXT_SCHEDULER_MAIN: Load scheduler "tlk1" with entities [Soraa Ishakal (ID: 17867234/0x0110A1E2), Soraa Ishakal (ID: 17867234/0x0110A1E2)], work=59*
265: 0x0C30 [0x52] END_LOAD_SCHEDULER: End scheduler "s074" with entities [EventEntity, EventEntity], work=629*
266: 0x0C3F [0x45] LOAD_SCHEDULED_TASK: Load scheduler "s075" with entities [EventEntity, EventEntity], work=[629*, 0*]
267: 0x0C50 [0x66] LOAD_EXT_SCHEDULER_MAIN: Load scheduler "tlk0" with entities [Nashu (ID: 17867233/0x0110A1E1), Nashu (ID: 17867233/0x0110A1E1)], work=9*
268: 0x0C5F [0x2B] Nashu (ID: 17867233/0x0110A1E1) [7944*]:
    → "Do not address me as a "pulpit polisher"! I have a name, and it is Nashu."
269: 0x0C66 [0x23] WAIT_FOR_DIALOG_INTERACTION
270: 0x0C67 [0x66] LOAD_EXT_SCHEDULER_MAIN: Load scheduler "tlk1" with entities [Nashu (ID: 17867233/0x0110A1E1), Nashu (ID: 17867233/0x0110A1E1)], work=9*
271: 0x0C76 [0x52] END_LOAD_SCHEDULER: End scheduler "s075" with entities [EventEntity, EventEntity], work=629*
272: 0x0C85 [0x45] LOAD_SCHEDULED_TASK: Load scheduler "s076" with entities [EventEntity, EventEntity], work=[629*, 0*]
273: 0x0C96 [0xAD] DUAL_ENTITY_SCHEDULER_HANDLER: Execute sub-case 0 with entities [Soraa Ishakal (ID: 17867234/0x0110A1E2), Soraa Ishakal (ID: 17867234/0x0110A1E2)], work=24*
274: 0x0CA2 [0x1C] WAIT(15* ticks)
275: 0x0CA5 [0xAD] DUAL_ENTITY_SCHEDULER_HANDLER: Execute sub-case 0 with entities [Zunmimi (ID: 17867235/0x0110A1E3), Zunmimi (ID: 17867235/0x0110A1E3)], work=24*
276: 0x0CB1 [0x1C] WAIT(15* ticks)
277: 0x0CB4 [0xAD] DUAL_ENTITY_SCHEDULER_HANDLER: Execute sub-case 0 with entities [Melisandra (ID: 17867236/0x0110A1E4), Melisandra (ID: 17867236/0x0110A1E4)], work=24*
278: 0x0CC0 [0x1C] WAIT(120* ticks)
279: 0x0CC3 [0x27] REQ_SET(priority=0x05, entity_id=Soraa Ishakal (ID: 17867234/0x0110A1E2), tag_num=0x02)
280: 0x0CCA [0x1C] WAIT(15* ticks)
281: 0x0CCD [0x27] REQ_SET(priority=0x05, entity_id=Zunmimi (ID: 17867235/0x0110A1E3), tag_num=0x04)
282: 0x0CD4 [0x1C] WAIT(15* ticks)
283: 0x0CD7 [0x27] REQ_SET(priority=0x05, entity_id=Melisandra (ID: 17867236/0x0110A1E4), tag_num=0x03)
284: 0x0CDE [0x1C] WAIT(30* ticks)
285: 0x0CE1 [0x52] END_LOAD_SCHEDULER: End scheduler "s076" with entities [EventEntity, EventEntity], work=629*
286: 0x0CF0 [0x45] LOAD_SCHEDULED_TASK: Load scheduler "s079" with entities [EventEntity, EventEntity], work=[629*, 0*]
287: 0x0D01 [0x1C] WAIT(150* ticks)
288: 0x0D04 [0x52] END_LOAD_SCHEDULER: End scheduler "s079" with entities [EventEntity, EventEntity], work=629*
289: 0x0D13 [0x45] LOAD_SCHEDULED_TASK: Load scheduler "s077" with entities [EventEntity, EventEntity], work=[629*, 0*]
290: 0x0D24 [0x2B] Nashu (ID: 17867233/0x0110A1E1) [7945*]:
    → "...And then there were two. I wonder if they can manage by themselves..."
291: 0x0D2B [0x23] WAIT_FOR_DIALOG_INTERACTION
292: 0x0D2C [0x52] END_LOAD_SCHEDULER: End scheduler "s077" with entities [EventEntity, EventEntity], work=629*
293: 0x0D3B [0x45] LOAD_SCHEDULED_TASK: Load scheduler "s078" with entities [EventEntity, EventEntity], work=[629*, 0*]
294: 0x0D4C [0x4A] Nashu (ID: 17867233/0x0110A1E1) looks at LocalPlayer
295: 0x0D55 [0x1C] WAIT(30* ticks)
296: 0x0D58 [0x79] LocalPlayer looks at Nashu (ID: 17867233/0x0110A1E1) (Basic look)
297: 0x0D62 [0x6E] Nashu (ID: 17867233/0x0110A1E1) uses emote 7*
298: 0x0D69 [0x99] Wait for Nashu (ID: 17867233/0x0110A1E1) animation to complete
299: 0x0D6E [0x2B] Nashu (ID: 17867233/0x0110A1E1) [7946*]:
    → "No, I think they truly need our help after all. To I-10 or bust, [Sir/Madam] <Player>!"
300: 0x0D75 [0x23] WAIT_FOR_DIALOG_INTERACTION
301: 0x0D76 [0x45] LOAD_SCHEDULED_TASK: Load scheduler "fdo1" with entities [EventEntity, EventEntity], work=[200*, 0*]
302: 0x0D87 [0x55] WAIT_LOAD_SCHEDULER: Wait for scheduler "fdo1" with entities [EventEntity, EventEntity], work=200*
303: 0x0D96 [0x52] END_LOAD_SCHEDULER: End scheduler "s078" with entities [EventEntity, EventEntity], work=629*
304: 0x0DA5 [0x46] CAMERA_CONTROL: Restore default settings
305: 0x0DA7 [0x45] LOAD_SCHEDULED_TASK: Load scheduler "fdi2" with entities [EventEntity, EventEntity], work=[200*, 0*]
306: 0x0DB8 [0x21] END_EVENT
307: 0x0DB9 [0x00] END_REQSTACK()
```

### Event 56

#### Metadata

| Field        | Value     |
|--------------|-----------|
| Entrypoint   | 0x0DBA    |
| Data Size    | 250 bytes |
| Instructions | 31        |

```
      00 01 02 03 04 05 06 07  08 09 0A 0B 0C 0D 0E 0F
      -- -- -- -- -- -- -- --  -- -- -- -- -- -- -- --
0DB0:                                42 45 00 80 F8 FF            BE....
0DC0: FF 7F F8 FF FF 7F 66 64  6F 31 01 80 55 00 80 F8  ......fdo1..U...
0DD0: FF FF 7F F8 FF FF 7F 66  64 6F 31 46 01 38 02 80  .......fdo1F.8..
0DE0: 2F 00 E1 A1 10 01 4E 00  E1 A1 10 01 92 01 E1 A1  /.....N.........
0DF0: 10 01 94 01 F0 FF FF 7F  94 01 E1 A1 10 01 BA E1  ................
0E00: A1 10 01 47 80 48 80 49  80 4A 80 BA F0 FF FF 7F  ...G.H.I.J......
0E10: 70 80 71 80 72 80 4E 80  80 F0 FF FF 7F 80 E1 A1  p.q.r.N.........
0E20: 10 01 4A F0 FF FF 7F E1  A1 10 01 4A E1 A1 10 01  ..J........J....
0E30: F0 FF FF 7F 1C 16 80 45  10 80 F8 FF FF 7F F8 FF  .......E........
0E40: FF 7F 73 30 37 38 01 80  1C 11 80 45 00 80 F8 FF  ..s078.....E....
0E50: FF 7F F8 FF FF 7F 66 64  69 31 01 80 6E E1 A1 10  ......fdi1..n...
0E60: 01 1F 80 99 E1 A1 10 01  2B E1 A1 10 01 78 80 23  ........+....x.#
0E70: 45 00 80 F8 FF FF 7F F8  FF FF 7F 66 64 6F 31 01  E..........fdo1.
0E80: 80 55 00 80 F8 FF FF 7F  F8 FF FF 7F 66 64 6F 31  .U..........fdo1
0E90: 52 10 80 F8 FF FF 7F F8  FF FF 7F 73 30 37 38 46  R..........s078F
0EA0: 00 45 00 80 F8 FF FF 7F  F8 FF FF 7F 66 64 69 32  .E..........fdi2
0EB0: 01 80 21 00                                       ..!.            
```

#### Opcodes

```
  0: 0x0DBA [0x42] SET_CLI_EVENT_CANCEL_DATA()
  1: 0x0DBB [0x45] LOAD_SCHEDULED_TASK: Load scheduler "fdo1" with entities [EventEntity, EventEntity], work=[200*, 0*]
  2: 0x0DCC [0x55] WAIT_LOAD_SCHEDULER: Wait for scheduler "fdo1" with entities [EventEntity, EventEntity], work=200*
  3: 0x0DDB [0x46] CAMERA_CONTROL: Disable user control
  4: 0x0DDD [0x38] SET_CLIENT_EVENT_MODE(mode=19*)
  5: 0x0DE0 [0x2F] Nashu (ID: 17867233/0x0110A1E1)->Render.Flags0 &= ~0x80000 // Bit 19
  6: 0x0DE6 [0x4E] SET_ENTITY_HIDE_FLAG: Show Nashu (ID: 17867233/0x0110A1E1)
  7: 0x0DEC [0x92] Nashu (ID: 17867233/0x0110A1E1)->Render.Flags3 ^= 0x01
  8: 0x0DF2 [0x94] LocalPlayer->Render.Flags3 ^= 0x01
  9: 0x0DF8 [0x94] Nashu (ID: 17867233/0x0110A1E1)->Render.Flags3 ^= 0x01
 10: 0x0DFE [0xBA] SET_ENTITY_POSITION(entity_id=Nashu (ID: 17867233/0x0110A1E1), pos_x=-113.898*, pos_z=-83.473*, pos_y=20.103*, direction=270.8°*)
 11: 0x0E0B [0xBA] SET_ENTITY_POSITION(entity_id=LocalPlayer, pos_x=-115.385*, pos_z=-84.506*, pos_y=19.999*, direction=301.8°*)
 12: 0x0E18 [0x80] LOAD_WAIT(entity=LocalPlayer)
 13: 0x0E1D [0x80] LOAD_WAIT(entity=Nashu (ID: 17867233/0x0110A1E1))
 14: 0x0E22 [0x4A] LocalPlayer looks at Nashu (ID: 17867233/0x0110A1E1)
 15: 0x0E2B [0x4A] Nashu (ID: 17867233/0x0110A1E1) looks at LocalPlayer
 16: 0x0E34 [0x1C] WAIT(30* ticks)
 17: 0x0E37 [0x45] LOAD_SCHEDULED_TASK: Load scheduler "s078" with entities [EventEntity, EventEntity], work=[629*, 0*]
 18: 0x0E48 [0x1C] WAIT(15* ticks)
 19: 0x0E4B [0x45] LOAD_SCHEDULED_TASK: Load scheduler "fdi1" with entities [EventEntity, EventEntity], work=[200*, 0*]
 20: 0x0E5C [0x6E] Nashu (ID: 17867233/0x0110A1E1) uses emote 7*
 21: 0x0E63 [0x99] Wait for Nashu (ID: 17867233/0x0110A1E1) animation to complete
 22: 0x0E68 [0x2B] Nashu (ID: 17867233/0x0110A1E1) [7946*]:
    → "No, I think they truly need our help after all. To I-10 or bust, [Sir/Madam] <Player>!"
 23: 0x0E6F [0x23] WAIT_FOR_DIALOG_INTERACTION
 24: 0x0E70 [0x45] LOAD_SCHEDULED_TASK: Load scheduler "fdo1" with entities [EventEntity, EventEntity], work=[200*, 0*]
 25: 0x0E81 [0x55] WAIT_LOAD_SCHEDULER: Wait for scheduler "fdo1" with entities [EventEntity, EventEntity], work=200*
 26: 0x0E90 [0x52] END_LOAD_SCHEDULER: End scheduler "s078" with entities [EventEntity, EventEntity], work=629*
 27: 0x0E9F [0x46] CAMERA_CONTROL: Restore default settings
 28: 0x0EA1 [0x45] LOAD_SCHEDULED_TASK: Load scheduler "fdi2" with entities [EventEntity, EventEntity], work=[200*, 0*]
 29: 0x0EB2 [0x21] END_EVENT
 30: 0x0EB3 [0x00] END_REQSTACK()
```

### Event 66

#### Metadata

| Field        | Value   |
|--------------|---------|
| Entrypoint   | 0x0EB4  |
| Data Size    | 1 bytes |
| Instructions | 1       |

```
      00 01 02 03 04 05 06 07  08 09 0A 0B 0C 0D 0E 0F
      -- -- -- -- -- -- -- --  -- -- -- -- -- -- -- --
0EB0:             00                                        .           
```

#### Opcodes

```
  0: 0x0EB4 [0x00] END_REQSTACK()
```
