# 17867268

## Common Data

| Field            | Value                    |
|------------------|--------------------------|
| Zone             | Marjami Ravine (ID: 266) |
| Block Size       | 112 bytes                |
| Total Events     | 6                        |
| References Count | 1                        |

## List of Events

| Event ID                 | Entrypoint   |   Size |   Instructions |
|--------------------------|--------------|--------|----------------|
| [65535](#event-65535)    | 0x0000       |      1 |              1 |
| [68](#event-68)          | 0x0001       |      7 |              2 |
| [65535.1](#event-655351) | 0x0008       |     16 |              2 |
| [65535.2](#event-655352) | 0x0018       |     14 |              2 |
| [65535.3](#event-655353) | 0x0026       |     16 |              2 |
| [65535.4](#event-655354) | 0x0036       |     14 |              2 |

## DAT References (imed_data)

|   Index | Hex Value   |   Dec Value |
|---------|-------------|-------------|
|       0 | 0x0B8B      |        2955 |

## Events

### Event 65535

#### Metadata

| Field        | Value   |
|--------------|---------|
| Entrypoint   | 0x0000  |
| Data Size    | 1 bytes |
| Instructions | 1       |

```
      00 01 02 03 04 05 06 07  08 09 0A 0B 0C 0D 0E 0F
      -- -- -- -- -- -- -- --  -- -- -- -- -- -- -- --
0000: 00                                                .               
```

#### Opcodes

```
  0: 0x0000 [0x00] END_REQSTACK()
```

### Event 68

#### Metadata

| Field        | Value   |
|--------------|---------|
| Entrypoint   | 0x0001  |
| Data Size    | 7 bytes |
| Instructions | 2       |

```
      00 01 02 03 04 05 06 07  08 09 0A 0B 0C 0D 0E 0F
      -- -- -- -- -- -- -- --  -- -- -- -- -- -- -- --
0000:    92 01 F8 FF FF 7F 00                            .......        
```

#### Opcodes

```
  0: 0x0001 [0x92] EventEntity->Render.Flags3 ^= 0x01
  1: 0x0007 [0x00] END_REQSTACK()
```

### Event 65535.1

#### Metadata

| Field        | Value    |
|--------------|----------|
| Entrypoint   | 0x0008   |
| Data Size    | 16 bytes |
| Instructions | 2        |

```
      00 01 02 03 04 05 06 07  08 09 0A 0B 0C 0D 0E 0F
      -- -- -- -- -- -- -- --  -- -- -- -- -- -- -- --
0000:                          5B 00 80 F8 FF FF 7F F8          [.......
0010: FF FF 7F 73 65 69 30 00                           ...sei0.        
```

#### Opcodes

```
  0: 0x0008 [0x5B] LOAD_EXT_SCHEDULER: Load scheduler "sei0" with entities [EventEntity, EventEntity], work=2955*
  1: 0x0017 [0x00] END_REQSTACK()
```

### Event 65535.2

#### Metadata

| Field        | Value    |
|--------------|----------|
| Entrypoint   | 0x0018   |
| Data Size    | 14 bytes |
| Instructions | 2        |

```
      00 01 02 03 04 05 06 07  08 09 0A 0B 0C 0D 0E 0F
      -- -- -- -- -- -- -- --  -- -- -- -- -- -- -- --
0010:                          53 F8 FF FF 7F F8 FF FF          S.......
0020: 7F 73 65 69 30 00                                 .sei0.          
```

#### Opcodes

```
  0: 0x0018 [0x53] WAIT_SCHEDULER_TASK: Wait for scheduler "sei0" with entities [EventEntity, EventEntity]
  1: 0x0025 [0x00] END_REQSTACK()
```

### Event 65535.3

#### Metadata

| Field        | Value    |
|--------------|----------|
| Entrypoint   | 0x0026   |
| Data Size    | 16 bytes |
| Instructions | 2        |

```
      00 01 02 03 04 05 06 07  08 09 0A 0B 0C 0D 0E 0F
      -- -- -- -- -- -- -- --  -- -- -- -- -- -- -- --
0020:                   5B 00  80 F8 FF FF 7F F8 FF FF        [.........
0030: 7F 77 65 64 30 00                                 .wed0.          
```

#### Opcodes

```
  0: 0x0026 [0x5B] LOAD_EXT_SCHEDULER: Load scheduler "wed0" with entities [EventEntity, EventEntity], work=2955*
  1: 0x0035 [0x00] END_REQSTACK()
```

### Event 65535.4

#### Metadata

| Field        | Value    |
|--------------|----------|
| Entrypoint   | 0x0036   |
| Data Size    | 14 bytes |
| Instructions | 2        |

```
      00 01 02 03 04 05 06 07  08 09 0A 0B 0C 0D 0E 0F
      -- -- -- -- -- -- -- --  -- -- -- -- -- -- -- --
0030:                   53 F8  FF FF 7F F8 FF FF 7F 77        S........w
0040: 65 64 30 00                                       ed0.            
```

#### Opcodes

```
  0: 0x0036 [0x53] WAIT_SCHEDULER_TASK: Wait for scheduler "wed0" with entities [EventEntity, EventEntity]
  1: 0x0043 [0x00] END_REQSTACK()
```
