# 17867183 - Scalable Area

## Common Data

| Field            | Value                    |
|------------------|--------------------------|
| Zone             | Marjami Ravine (ID: 266) |
| Block Size       | 1584 bytes               |
| Total Events     | 5                        |
| References Count | 129                      |

## List of Events

| Event ID                 | Entrypoint   |   Size |   Instructions |
|--------------------------|--------------|--------|----------------|
| [65535](#event-65535)    | 0x0000       |      1 |              1 |
| [7](#event-7)            | 0x0001       |      1 |              1 |
| [65535.1](#event-655351) | 0x0002       |     10 |              2 |
| [65535.2](#event-655352) | 0x000C       |     10 |              2 |
| [16](#event-16)          | 0x0016       |   1010 |            149 |

## DAT References (imed_data)

|   Index | Hex Value   |   Dec Value |
|---------|-------------|-------------|
|       0 | 0x43F6F     |      278383 |
|       1 | 0x1628C     |       90764 |
|       2 | 0xFFFF16F0  |  4294907632 |
|       3 | 0x021F      |         543 |
|       4 | 0x4337D     |      275325 |
|       5 | 0x172D9     |       94937 |
|       6 | 0xFFFF17C6  |  4294907846 |
|       7 | 0x0CE5      |        3301 |
|       8 | 0x095F      |        2399 |
|       9 | 0x0954      |        2388 |
|      10 | 0x1EB5      |        7861 |
|      11 | 0x1EB6      |        7862 |
|      12 | 0x0000      |           0 |
|      13 | 0x0001      |           1 |
|      14 | 0x00C8      |         200 |
|      15 | 0x0013      |          19 |
|      16 | 0x51700     |      333568 |
|      17 | 0xFFFDF58C  |  4294833548 |
|      18 | 0xFFFFB1D2  |  4294947282 |
|      19 | 0x01F4      |         500 |
|      20 | 0x0002      |           2 |
|      21 | 0x511F5     |      332277 |
|      22 | 0xFFFE16DB  |  4294842075 |
|      23 | 0xFFFF64A4  |  4294927524 |
|      24 | 0x0B86      |        2950 |
|      25 | 0x0003      |           3 |
|      26 | 0x4121D     |      266781 |
|      27 | 0x16F4C     |       94028 |
|      28 | 0xFFFF6394  |  4294927252 |
|      29 | 0xFFFFFA24  |  4294965796 |
|      30 | 0x0004      |           4 |
|      31 | 0x42FE4     |      274404 |
|      32 | 0x1671E     |       91934 |
|      33 | 0xFFFF1619  |  4294907417 |
|      34 | 0x0005      |           5 |
|      35 | 0x37085     |      225413 |
|      36 | 0x2DC8B     |      187531 |
|      37 | 0xFFFF6389  |  4294927241 |
|      38 | 0x05AA      |        1450 |
|      39 | 0x0006      |           6 |
|      40 | 0x37704     |      227076 |
|      41 | 0x2F337     |      193335 |
|      42 | 0xFFFF1617  |  4294907415 |
|      43 | 0xFFFFFB50  |  4294966096 |
|      44 | 0x0007      |           7 |
|      45 | 0x41466     |      267366 |
|      46 | 0x3E045     |      254021 |
|      47 | 0xFFFF6395  |  4294927253 |
|      48 | 0xFFFFF9C0  |  4294965696 |
|      49 | 0x0008      |           8 |
|      50 | 0x42C79     |      273529 |
|      51 | 0x3D75A     |      251738 |
|      52 | 0xFFFF1610  |  4294907408 |
|      53 | 0xFFFFFF9C  |  4294967196 |
|      54 | 0x0009      |           9 |
|      55 | 0x4101E     |      266270 |
|      56 | 0xFFFE5B6D  |  4294859629 |
|      57 | 0xFFFFFFDB  |  4294967259 |
|      58 | 0xFFFFF9F2  |  4294965746 |
|      59 | 0x000A      |          10 |
|      60 | 0x41644     |      267844 |
|      61 | 0xFFFE4308  |  4294853384 |
|      62 | 0xFFFFB255  |  4294947413 |
|      63 | 0x044C      |        1100 |
|      64 | 0x000B      |          11 |
|      65 | 0x19CAB     |      105643 |
|      66 | 0xFFFDF9A1  |  4294834593 |
|      67 | 0x9C0D      |       39949 |
|      68 | 0x0578      |        1400 |
|      69 | 0x000C      |          12 |
|      70 | 0x1A72E     |      108334 |
|      71 | 0xFFFE13BA  |  4294841274 |
|      72 | 0x4E71      |       20081 |
|      73 | 0xFFFFFC7C  |  4294966396 |
|      74 | 0x000D      |          13 |
|      75 | 0xFFFE8FA5  |  4294872997 |
|      76 | 0xFFFE94B7  |  4294874295 |
|      77 | 0x9C0B      |       39947 |
|      78 | 0x000E      |          14 |
|      79 | 0xFFFE981D  |  4294875165 |
|      80 | 0xFFFEB0C8  |  4294881480 |
|      81 | 0x4E89      |       20105 |
|      82 | 0xFFFFFBB4  |  4294966196 |
|      83 | 0x000F      |          15 |
|      84 | 0xFFFCBC6C  |  4294753388 |
|      85 | 0xFFFDC194  |  4294820244 |
|      86 | 0xFFFFFFC9  |  4294967241 |
|      87 | 0x0010      |          16 |
|      88 | 0xFFFCC3F1  |  4294755313 |
|      89 | 0xFFFDA577  |  4294813047 |
|      90 | 0xFFFFB25D  |  4294947421 |
|      91 | 0x0400      |        1024 |
|      92 | 0x0011      |          17 |
|      93 | 0xFFFCC1B5  |  4294754741 |
|      94 | 0xFFFCBCB5  |  4294753461 |
|      95 | 0xFFFFFFD9  |  4294967257 |
|      96 | 0x05DC      |        1500 |
|      97 | 0x0012      |          18 |
|      98 | 0xFFFCDC00  |  4294761472 |
|      99 | 0xFFFCC4AF  |  4294755503 |
|     100 | 0xFFFFB24F  |  4294947407 |
|     101 | 0xFFFB5655  |  4294661717 |
|     102 | 0xCEA3      |       52899 |
|     103 | 0xFFFFB1A6  |  4294947238 |
|     104 | 0xFFFFFE0C  |  4294966796 |
|     105 | 0x0014      |          20 |
|     106 | 0xFFFB4CEC  |  4294659308 |
|     107 | 0xB47E      |       46206 |
|     108 | 0xFFFF6427  |  4294927399 |
|     109 | 0x0015      |          21 |
|     110 | 0xFFFBED6B  |  4294700395 |
|     111 | 0x37072     |      225394 |
|     112 | 0xFFFFB1A8  |  4294947240 |
|     113 | 0x0016      |          22 |
|     114 | 0xFFFBD258  |  4294693464 |
|     115 | 0x37C7E     |      228478 |
|     116 | 0xFFFF643B  |  4294927419 |
|     117 | 0x0800      |        2048 |
|     118 | 0x0017      |          23 |
|     119 | 0xFFFE5F9C  |  4294860700 |
|     120 | 0x2C412     |      181266 |
|     121 | 0xFFFFFAEC  |  4294965996 |
|     122 | 0x0018      |          24 |
|     123 | 0xFFFE6CDA  |  4294864090 |
|     124 | 0x2AC94     |      175252 |
|     125 | 0xFFFFB8DB  |  4294949083 |
|     126 | 0x0258      |         600 |
|     127 | 0x001E      |          30 |
|     128 | 0x40000000  |  1073741824 |

## String References

- **7861**: You might be able to [descend/ascend] using these vines if you only had $3 and $6.
- **7862**: [Descend/Ascend]? [Yes./No.]

## Events

### Event 65535

#### Metadata

| Field        | Value   |
|--------------|---------|
| Entrypoint   | 0x0000  |
| Data Size    | 1 bytes |
| Instructions | 1       |

```
      00 01 02 03 04 05 06 07  08 09 0A 0B 0C 0D 0E 0F
      -- -- -- -- -- -- -- --  -- -- -- -- -- -- -- --
0000: 00                                                .               
```

#### Opcodes

```
  0: 0x0000 [0x00] END_REQSTACK()
```

### Event 7

#### Metadata

| Field        | Value   |
|--------------|---------|
| Entrypoint   | 0x0001  |
| Data Size    | 1 bytes |
| Instructions | 1       |

```
      00 01 02 03 04 05 06 07  08 09 0A 0B 0C 0D 0E 0F
      -- -- -- -- -- -- -- --  -- -- -- -- -- -- -- --
0000:    00                                              .              
```

#### Opcodes

```
  0: 0x0001 [0x00] END_REQSTACK()
```

### Event 65535.1

#### Metadata

| Field        | Value    |
|--------------|----------|
| Entrypoint   | 0x0002   |
| Data Size    | 10 bytes |
| Instructions | 2        |

```
      00 01 02 03 04 05 06 07  08 09 0A 0B 0C 0D 0E 0F
      -- -- -- -- -- -- -- --  -- -- -- -- -- -- -- --
0000:       37 00 80 01 80 02  80 03 80 00                7.........    
```

#### Opcodes

```
  0: 0x0002 [0x37] UPDATE_EVENT_POSITION_AND_DIR: x=278.383*, z=90.764*, y=-59.664*, direction=47.7°*
  1: 0x000B [0x00] END_REQSTACK()
```

### Event 65535.2

#### Metadata

| Field        | Value    |
|--------------|----------|
| Entrypoint   | 0x000C   |
| Data Size    | 10 bytes |
| Instructions | 2        |

```
      00 01 02 03 04 05 06 07  08 09 0A 0B 0C 0D 0E 0F
      -- -- -- -- -- -- -- --  -- -- -- -- -- -- -- --
0000:                                      37 04 80 05              7...
0010: 80 06 80 07 80 00                                 ......          
```

#### Opcodes

```
  0: 0x000C [0x37] UPDATE_EVENT_POSITION_AND_DIR: x=275.325*, z=94.937*, y=-59.450*, direction=290.1°*
  1: 0x0015 [0x00] END_REQSTACK()
```

### Event 16

#### Metadata

| Field        | Value      |
|--------------|------------|
| Entrypoint   | 0x0016     |
| Data Size    | 1010 bytes |
| Instructions | 149        |

```
      00 01 02 03 04 05 06 07  08 09 0A 0B 0C 0D 0E 0F
      -- -- -- -- -- -- -- --  -- -- -- -- -- -- -- --
0010:                   03 05  10 08 80 03 06 10 09 80        ..........
0020: 48 0A 80 23 24 0B 80 0C  80 0C 80 25 02 00 10 0C  H..#$......%....
0030: 80 00 F6 03 42 03 01 10  0D 80 43 00 43 01 4A F0  ....B.....C.C.J.
0040: FF FF 7F F8 FF FF 7F 6F  76 F0 FF FF 7F 45 0E 80  .......ov....E..
0050: F0 FF FF 7F F0 FF FF 7F  66 64 6F 31 0C 80 55 0E  ........fdo1..U.
0060: 80 F0 FF FF 7F F0 FF FF  7F 66 64 6F 31 38 0F 80  .........fdo18..
0070: 02 07 10 0D 80 80 94 00  BA F0 FF FF 7F 10 80 11  ................
0080: 80 12 80 13 80 47 00 10  80 11 80 12 80 13 80 47  .....G.........G
0090: 01 01 D0 03 02 07 10 14  80 80 B8 00 BA F0 FF FF  ................
00A0: 7F 15 80 16 80 17 80 18  80 47 00 15 80 16 80 17  .........G......
00B0: 80 18 80 47 01 01 D0 03  02 07 10 19 80 80 DC 00  ...G............
00C0: BA F0 FF FF 7F 1A 80 1B  80 1C 80 1D 80 47 00 1A  .............G..
00D0: 80 1B 80 1C 80 1D 80 47  01 01 D0 03 02 07 10 1E  .......G........
00E0: 80 80 00 01 BA F0 FF FF  7F 1F 80 20 80 21 80 0C  ........... .!..
00F0: 80 47 00 1F 80 20 80 21  80 0C 80 47 01 01 D0 03  .G... .!...G....
0100: 02 07 10 22 80 80 24 01  BA F0 FF FF 7F 23 80 24  ..."..$......#.$
0110: 80 25 80 26 80 47 00 23  80 24 80 25 80 26 80 47  .%.&.G.#.$.%.&.G
0120: 01 01 D0 03 02 07 10 27  80 80 48 01 BA F0 FF FF  .......'..H.....
0130: 7F 28 80 29 80 2A 80 2B  80 47 00 28 80 29 80 2A  .(.).*.+.G.(.).*
0140: 80 2B 80 47 01 01 D0 03  02 07 10 2C 80 80 6C 01  .+.G.......,..l.
0150: BA F0 FF FF 7F 2D 80 2E  80 2F 80 30 80 47 00 2D  .....-.../.0.G.-
0160: 80 2E 80 2F 80 30 80 47  01 01 D0 03 02 07 10 31  .../.0.G.......1
0170: 80 80 90 01 BA F0 FF FF  7F 32 80 33 80 34 80 35  .........2.3.4.5
0180: 80 47 00 32 80 33 80 34  80 35 80 47 01 01 D0 03  .G.2.3.4.5.G....
0190: 02 07 10 36 80 80 B4 01  BA F0 FF FF 7F 37 80 38  ...6.........7.8
01A0: 80 39 80 3A 80 47 00 37  80 38 80 39 80 3A 80 47  .9.:.G.7.8.9.:.G
01B0: 01 01 D0 03 02 07 10 3B  80 80 D8 01 BA F0 FF FF  .......;........
01C0: 7F 3C 80 3D 80 3E 80 3F  80 47 00 3C 80 3D 80 3E  .<.=.>.?.G.<.=.>
01D0: 80 3F 80 47 01 01 D0 03  02 07 10 40 80 80 FC 01  .?.G.......@....
01E0: BA F0 FF FF 7F 41 80 42  80 43 80 44 80 47 00 41  .....A.B.C.D.G.A
01F0: 80 42 80 43 80 44 80 47  01 01 D0 03 02 07 10 45  .B.C.D.G.......E
0200: 80 80 20 02 BA F0 FF FF  7F 46 80 47 80 48 80 49  .. ......F.G.H.I
0210: 80 47 00 46 80 47 80 48  80 49 80 47 01 01 D0 03  .G.F.G.H.I.G....
0220: 02 07 10 4A 80 80 44 02  BA F0 FF FF 7F 4B 80 4C  ...J..D......K.L
0230: 80 4D 80 44 80 47 00 4B  80 4C 80 4D 80 44 80 47  .M.D.G.K.L.M.D.G
0240: 01 01 D0 03 02 07 10 4E  80 80 68 02 BA F0 FF FF  .......N..h.....
0250: 7F 4F 80 50 80 51 80 52  80 47 00 4F 80 50 80 51  .O.P.Q.R.G.O.P.Q
0260: 80 52 80 47 01 01 D0 03  02 07 10 53 80 80 8C 02  .R.G.......S....
0270: BA F0 FF FF 7F 54 80 55  80 56 80 1D 80 47 00 54  .....T.U.V...G.T
0280: 80 55 80 56 80 1D 80 47  01 01 D0 03 02 07 10 57  .U.V...G.......W
0290: 80 80 B0 02 BA F0 FF FF  7F 58 80 59 80 5A 80 5B  .........X.Y.Z.[
02A0: 80 47 00 58 80 59 80 5A  80 5B 80 47 01 01 D0 03  .G.X.Y.Z.[.G....
02B0: 02 07 10 5C 80 80 D4 02  BA F0 FF FF 7F 5D 80 5E  ...\.........].^
02C0: 80 5F 80 60 80 47 00 5D  80 5E 80 5F 80 60 80 47  ._.`.G.].^._.`.G
02D0: 01 01 D0 03 02 07 10 61  80 80 F8 02 BA F0 FF FF  .......a........
02E0: 7F 62 80 63 80 64 80 35  80 47 00 62 80 63 80 64  .b.c.d.5.G.b.c.d
02F0: 80 35 80 47 01 01 D0 03  02 07 10 0F 80 80 1C 03  .5.G............
0300: BA F0 FF FF 7F 65 80 66  80 67 80 68 80 47 00 65  .....e.f.g.h.G.e
0310: 80 66 80 67 80 68 80 47  01 01 D0 03 02 07 10 69  .f.g.h.G.......i
0320: 80 80 40 03 BA F0 FF FF  7F 6A 80 6B 80 6C 80 5B  ..@......j.k.l.[
0330: 80 47 00 6A 80 6B 80 6C  80 5B 80 47 01 01 D0 03  .G.j.k.l.[.G....
0340: 02 07 10 6D 80 80 64 03  BA F0 FF FF 7F 6E 80 6F  ...m..d......n.o
0350: 80 70 80 13 80 47 00 6E  80 6F 80 70 80 13 80 47  .p...G.n.o.p...G
0360: 01 01 D0 03 02 07 10 71  80 80 88 03 BA F0 FF FF  .......q........
0370: 7F 72 80 73 80 74 80 75  80 47 00 72 80 73 80 74  .r.s.t.u.G.r.s.t
0380: 80 75 80 47 01 01 D0 03  02 07 10 76 80 80 AC 03  .u.G.......v....
0390: BA F0 FF FF 7F 77 80 78  80 0C 80 79 80 47 00 77  .....w.x...y.G.w
03A0: 80 78 80 0C 80 79 80 47  01 01 D0 03 02 07 10 7A  .x...y.G.......z
03B0: 80 80 D0 03 BA F0 FF FF  7F 7B 80 7C 80 7D 80 7E  .........{.|.}.~
03C0: 80 47 00 7B 80 7C 80 7D  80 7E 80 47 01 01 D0 03  .G.{.|.}.~.G....
03D0: 1C 7F 80 80 F0 FF FF 7F  1C 53 80 AB 11 0C 80 1C  .........S......
03E0: 0D 80 45 0E 80 F0 FF FF  7F F0 FF FF 7F 66 64 69  ..E..........fdi
03F0: 32 0C 80 01 06 04 02 00  10 0D 80 00 06 04 03 01  2...............
0400: 10 80 80 01 06 04 21 00                           ......!.        
```

#### Opcodes

```
  0: 0x0016 [0x03] Work_Zone[5] = 2399*
  1: 0x001B [0x03] Work_Zone[6] = 2388*
  2: 0x0020 [0x48] [System] [7861*]:
    → "You might be able to [descend/ascend] using these vines if you only had $3 and $6."
  3: 0x0023 [0x23] WAIT_FOR_DIALOG_INTERACTION
  4: 0x0024 [0x24] CREATE_DIALOG(message_id=7862*, default_option=0*, option_flags=0*)
    → "[Descend/Ascend]? [Yes./No.]"
  5: 0x002B [0x25] WAIT_DIALOG_SELECT()
  6: 0x002C [0x02] IF !(Work_Zone[0] == 0*) GOTO 0x03F6
  7: 0x0034 [0x42] SET_CLI_EVENT_CANCEL_DATA()
  8: 0x0035 [0x03] Work_Zone[1] = 1*
  9: 0x003A [0x43] SEND_EVENT_UPDATE: Send pending tag to server (packet 0x005B)
 10: 0x003C [0x43] SEND_EVENT_UPDATE: Check pending flag (skip if not pending)
 11: 0x003E [0x4A] LocalPlayer looks at EventEntity
 12: 0x0047 [0x6F] WAIT_FRAME_DELAY: Yield until WaitTime reaches zero
 13: 0x0048 [0x76] CHECK_ENTITY_RENDER_FLAGS: Wait until LocalPlayer Render.Flags0 and Render.Flags3 conditions are met
 14: 0x004D [0x45] LOAD_SCHEDULED_TASK: Load scheduler "fdo1" with entities [LocalPlayer, LocalPlayer], work=[200*, 0*]
 15: 0x005E [0x55] WAIT_LOAD_SCHEDULER: Wait for scheduler "fdo1" with entities [LocalPlayer, LocalPlayer], work=200*
 16: 0x006D [0x38] SET_CLIENT_EVENT_MODE(mode=19*)
 17: 0x0070 [0x02] IF !(Work_Zone[7] == 1*) GOTO 0x0094
 18: 0x0078 [0xBA] SET_ENTITY_POSITION(entity_id=LocalPlayer, pos_x=333.568*, pos_z=-133.748*, pos_y=-20.014*, direction=43.9°*)
 19: 0x0085 [0x47] UPDATE_PLAYER_POS(333.568*, -133.748*, -20.014*, yaw=43.9°*)
 20: 0x008F [0x47] WAIT_PLAYER_POS_UPDATE
 21: 0x0091 [0x01] GOTO 0x03D0
 22: 0x0094 [0x02] IF !(Work_Zone[7] == 2*) GOTO 0x00B8
 23: 0x009C [0xBA] SET_ENTITY_POSITION(entity_id=LocalPlayer, pos_x=332.277*, pos_z=-125.221*, pos_y=-39.772*, direction=259.3°*)
 24: 0x00A9 [0x47] UPDATE_PLAYER_POS(332.277*, -125.221*, -39.772*, yaw=259.3°*)
 25: 0x00B3 [0x47] WAIT_PLAYER_POS_UPDATE
 26: 0x00B5 [0x01] GOTO 0x03D0
 27: 0x00B8 [0x02] IF !(Work_Zone[7] == 3*) GOTO 0x00DC
 28: 0x00C0 [0xBA] SET_ENTITY_POSITION(entity_id=LocalPlayer, pos_x=266.781*, pos_z=94.028*, pos_y=-40.044*, direction=377476087.4°*)
 29: 0x00CD [0x47] UPDATE_PLAYER_POS(266.781*, 94.028*, -40.044*, yaw=377476087.4°*)
 30: 0x00D7 [0x47] WAIT_PLAYER_POS_UPDATE
 31: 0x00D9 [0x01] GOTO 0x03D0
 32: 0x00DC [0x02] IF !(Work_Zone[7] == 4*) GOTO 0x0100
 33: 0x00E4 [0xBA] SET_ENTITY_POSITION(entity_id=LocalPlayer, pos_x=274.404*, pos_z=91.934*, pos_y=-59.879*, direction=0.0°*)
 34: 0x00F1 [0x47] UPDATE_PLAYER_POS(274.404*, 91.934*, -59.879*, yaw=0.0°*)
 35: 0x00FB [0x47] WAIT_PLAYER_POS_UPDATE
 36: 0x00FD [0x01] GOTO 0x03D0
 37: 0x0100 [0x02] IF !(Work_Zone[7] == 5*) GOTO 0x0124
 38: 0x0108 [0xBA] SET_ENTITY_POSITION(entity_id=LocalPlayer, pos_x=225.413*, pos_z=187.531*, pos_y=-40.055*, direction=127.4°*)
 39: 0x0115 [0x47] UPDATE_PLAYER_POS(225.413*, 187.531*, -40.055*, yaw=127.4°*)
 40: 0x011F [0x47] WAIT_PLAYER_POS_UPDATE
 41: 0x0121 [0x01] GOTO 0x03D0
 42: 0x0124 [0x02] IF !(Work_Zone[7] == 6*) GOTO 0x0148
 43: 0x012C [0xBA] SET_ENTITY_POSITION(entity_id=LocalPlayer, pos_x=227.076*, pos_z=193.335*, pos_y=-59.881*, direction=377476113.7°*)
 44: 0x0139 [0x47] UPDATE_PLAYER_POS(227.076*, 193.335*, -59.881*, yaw=377476113.7°*)
 45: 0x0143 [0x47] WAIT_PLAYER_POS_UPDATE
 46: 0x0145 [0x01] GOTO 0x03D0
 47: 0x0148 [0x02] IF !(Work_Zone[7] == 7*) GOTO 0x016C
 48: 0x0150 [0xBA] SET_ENTITY_POSITION(entity_id=LocalPlayer, pos_x=267.366*, pos_z=254.021*, pos_y=-40.043*, direction=377476078.6°*)
 49: 0x015D [0x47] UPDATE_PLAYER_POS(267.366*, 254.021*, -40.043*, yaw=377476078.6°*)
 50: 0x0167 [0x47] WAIT_PLAYER_POS_UPDATE
 51: 0x0169 [0x01] GOTO 0x03D0
 52: 0x016C [0x02] IF !(Work_Zone[7] == 8*) GOTO 0x0190
 53: 0x0174 [0xBA] SET_ENTITY_POSITION(entity_id=LocalPlayer, pos_x=273.529*, pos_z=251.738*, pos_y=-59.888*, direction=377476210.4°*)
 54: 0x0181 [0x47] UPDATE_PLAYER_POS(273.529*, 251.738*, -59.888*, yaw=377476210.4°*)
 55: 0x018B [0x47] WAIT_PLAYER_POS_UPDATE
 56: 0x018D [0x01] GOTO 0x03D0
 57: 0x0190 [0x02] IF !(Work_Zone[7] == 9*) GOTO 0x01B4
 58: 0x0198 [0xBA] SET_ENTITY_POSITION(entity_id=LocalPlayer, pos_x=266.270*, pos_z=-107.667*, pos_y=-0.037*, direction=377476083.0°*)
 59: 0x01A5 [0x47] UPDATE_PLAYER_POS(266.270*, -107.667*, -0.037*, yaw=377476083.0°*)
 60: 0x01AF [0x47] WAIT_PLAYER_POS_UPDATE
 61: 0x01B1 [0x01] GOTO 0x03D0
 62: 0x01B4 [0x02] IF !(Work_Zone[7] == 10*) GOTO 0x01D8
 63: 0x01BC [0xBA] SET_ENTITY_POSITION(entity_id=LocalPlayer, pos_x=267.844*, pos_z=-113.912*, pos_y=-19.883*, direction=96.7°*)
 64: 0x01C9 [0x47] UPDATE_PLAYER_POS(267.844*, -113.912*, -19.883*, yaw=96.7°*)
 65: 0x01D3 [0x47] WAIT_PLAYER_POS_UPDATE
 66: 0x01D5 [0x01] GOTO 0x03D0
 67: 0x01D8 [0x02] IF !(Work_Zone[7] == 11*) GOTO 0x01FC
 68: 0x01E0 [0xBA] SET_ENTITY_POSITION(entity_id=LocalPlayer, pos_x=105.643*, pos_z=-132.703*, pos_y=39.949*, direction=123.0°*)
 69: 0x01ED [0x47] UPDATE_PLAYER_POS(105.643*, -132.703*, 39.949*, yaw=123.0°*)
 70: 0x01F7 [0x47] WAIT_PLAYER_POS_UPDATE
 71: 0x01F9 [0x01] GOTO 0x03D0
 72: 0x01FC [0x02] IF !(Work_Zone[7] == 12*) GOTO 0x0220
 73: 0x0204 [0xBA] SET_ENTITY_POSITION(entity_id=LocalPlayer, pos_x=108.334*, pos_z=-126.022*, pos_y=20.081*, direction=377476140.1°*)
 74: 0x0211 [0x47] UPDATE_PLAYER_POS(108.334*, -126.022*, 20.081*, yaw=377476140.1°*)
 75: 0x021B [0x47] WAIT_PLAYER_POS_UPDATE
 76: 0x021D [0x01] GOTO 0x03D0
 77: 0x0220 [0x02] IF !(Work_Zone[7] == 13*) GOTO 0x0244
 78: 0x0228 [0xBA] SET_ENTITY_POSITION(entity_id=LocalPlayer, pos_x=-94.299*, pos_z=-93.001*, pos_y=39.947*, direction=123.0°*)
 79: 0x0235 [0x47] UPDATE_PLAYER_POS(-94.299*, -93.001*, 39.947*, yaw=123.0°*)
 80: 0x023F [0x47] WAIT_PLAYER_POS_UPDATE
 81: 0x0241 [0x01] GOTO 0x03D0
 82: 0x0244 [0x02] IF !(Work_Zone[7] == 14*) GOTO 0x0268
 83: 0x024C [0xBA] SET_ENTITY_POSITION(entity_id=LocalPlayer, pos_x=-92.131*, pos_z=-85.816*, pos_y=20.105*, direction=377476122.5°*)
 84: 0x0259 [0x47] UPDATE_PLAYER_POS(-92.131*, -85.816*, 20.105*, yaw=377476122.5°*)
 85: 0x0263 [0x47] WAIT_PLAYER_POS_UPDATE
 86: 0x0265 [0x01] GOTO 0x03D0
 87: 0x0268 [0x02] IF !(Work_Zone[7] == 15*) GOTO 0x028C
 88: 0x0270 [0xBA] SET_ENTITY_POSITION(entity_id=LocalPlayer, pos_x=-213.908*, pos_z=-147.052*, pos_y=-0.055*, direction=377476087.4°*)
 89: 0x027D [0x47] UPDATE_PLAYER_POS(-213.908*, -147.052*, -0.055*, yaw=377476087.4°*)
 90: 0x0287 [0x47] WAIT_PLAYER_POS_UPDATE
 91: 0x0289 [0x01] GOTO 0x03D0
 92: 0x028C [0x02] IF !(Work_Zone[7] == 16*) GOTO 0x02B0
 93: 0x0294 [0xBA] SET_ENTITY_POSITION(entity_id=LocalPlayer, pos_x=-211.983*, pos_z=-154.249*, pos_y=-19.875*, direction=90.0°*)
 94: 0x02A1 [0x47] UPDATE_PLAYER_POS(-211.983*, -154.249*, -19.875*, yaw=90.0°*)
 95: 0x02AB [0x47] WAIT_PLAYER_POS_UPDATE
 96: 0x02AD [0x01] GOTO 0x03D0
 97: 0x02B0 [0x02] IF !(Work_Zone[7] == 17*) GOTO 0x02D4
 98: 0x02B8 [0xBA] SET_ENTITY_POSITION(entity_id=LocalPlayer, pos_x=-212.555*, pos_z=-213.835*, pos_y=-0.039*, direction=131.8°*)
 99: 0x02C5 [0x47] UPDATE_PLAYER_POS(-212.555*, -213.835*, -0.039*, yaw=131.8°*)
100: 0x02CF [0x47] WAIT_PLAYER_POS_UPDATE
101: 0x02D1 [0x01] GOTO 0x03D0
102: 0x02D4 [0x02] IF !(Work_Zone[7] == 18*) GOTO 0x02F8
103: 0x02DC [0xBA] SET_ENTITY_POSITION(entity_id=LocalPlayer, pos_x=-205.824*, pos_z=-211.793*, pos_y=-19.889*, direction=377476210.4°*)
104: 0x02E9 [0x47] UPDATE_PLAYER_POS(-205.824*, -211.793*, -19.889*, yaw=377476210.4°*)
105: 0x02F3 [0x47] WAIT_PLAYER_POS_UPDATE
106: 0x02F5 [0x01] GOTO 0x03D0
107: 0x02F8 [0x02] IF !(Work_Zone[7] == 19*) GOTO 0x031C
108: 0x0300 [0xBA] SET_ENTITY_POSITION(entity_id=LocalPlayer, pos_x=-305.579*, pos_z=52.899*, pos_y=-20.058*, direction=377476175.3°*)
109: 0x030D [0x47] UPDATE_PLAYER_POS(-305.579*, 52.899*, -20.058*, yaw=377476175.3°*)
110: 0x0317 [0x47] WAIT_PLAYER_POS_UPDATE
111: 0x0319 [0x01] GOTO 0x03D0
112: 0x031C [0x02] IF !(Work_Zone[7] == 20*) GOTO 0x0340
113: 0x0324 [0xBA] SET_ENTITY_POSITION(entity_id=LocalPlayer, pos_x=-307.988*, pos_z=46.206*, pos_y=-39.897*, direction=90.0°*)
114: 0x0331 [0x47] UPDATE_PLAYER_POS(-307.988*, 46.206*, -39.897*, yaw=90.0°*)
115: 0x033B [0x47] WAIT_PLAYER_POS_UPDATE
116: 0x033D [0x01] GOTO 0x03D0
117: 0x0340 [0x02] IF !(Work_Zone[7] == 21*) GOTO 0x0364
118: 0x0348 [0xBA] SET_ENTITY_POSITION(entity_id=LocalPlayer, pos_x=-266.901*, pos_z=225.394*, pos_y=-20.056*, direction=43.9°*)
119: 0x0355 [0x47] UPDATE_PLAYER_POS(-266.901*, 225.394*, -20.056*, yaw=43.9°*)
120: 0x035F [0x47] WAIT_PLAYER_POS_UPDATE
121: 0x0361 [0x01] GOTO 0x03D0
122: 0x0364 [0x02] IF !(Work_Zone[7] == 22*) GOTO 0x0388
123: 0x036C [0xBA] SET_ENTITY_POSITION(entity_id=LocalPlayer, pos_x=-273.832*, pos_z=228.478*, pos_y=-39.877*, direction=180.0°*)
124: 0x0379 [0x47] UPDATE_PLAYER_POS(-273.832*, 228.478*, -39.877*, yaw=180.0°*)
125: 0x0383 [0x47] WAIT_PLAYER_POS_UPDATE
126: 0x0385 [0x01] GOTO 0x03D0
127: 0x0388 [0x02] IF !(Work_Zone[7] == 23*) GOTO 0x03AC
128: 0x0390 [0xBA] SET_ENTITY_POSITION(entity_id=LocalPlayer, pos_x=-106.596*, pos_z=181.266*, pos_y=0.000*, direction=377476104.9°*)
129: 0x039D [0x47] UPDATE_PLAYER_POS(-106.596*, 181.266*, 0.000*, yaw=377476104.9°*)
130: 0x03A7 [0x47] WAIT_PLAYER_POS_UPDATE
131: 0x03A9 [0x01] GOTO 0x03D0
132: 0x03AC [0x02] IF !(Work_Zone[7] == 24*) GOTO 0x03D0
133: 0x03B4 [0xBA] SET_ENTITY_POSITION(entity_id=LocalPlayer, pos_x=-103.206*, pos_z=175.252*, pos_y=-18.213*, direction=52.7°*)
134: 0x03C1 [0x47] UPDATE_PLAYER_POS(-103.206*, 175.252*, -18.213*, yaw=52.7°*)
135: 0x03CB [0x47] WAIT_PLAYER_POS_UPDATE
136: 0x03CD [0x01] GOTO 0x03D0

SUBROUTINE_03D0:
137: 0x03D0 [0x1C] WAIT(30* ticks)
138: 0x03D3 [0x80] LOAD_WAIT(entity=LocalPlayer)
139: 0x03D8 [0x1C] WAIT(15* ticks)
140: 0x03DB [0xAB] EventEntity->DespawnValue = 0* // Set despawn value
141: 0x03DF [0x1C] WAIT(1* ticks)
142: 0x03E2 [0x45] LOAD_SCHEDULED_TASK: Load scheduler "fdi2" with entities [LocalPlayer, LocalPlayer], work=[200*, 0*]
143: 0x03F3 [0x01] GOTO 0x0406
144: 0x03F6 [0x02] IF !(Work_Zone[0] == 1*) GOTO 0x0406
145: 0x03FE [0x03] Work_Zone[1] = 1073741824*
146: 0x0403 [0x01] GOTO 0x0406

SUBROUTINE_0406:
147: 0x0406 [0x21] END_EVENT
148: 0x0407 [0x00] END_REQSTACK()
```
