# 17867266

## Common Data

| Field            | Value                    |
|------------------|--------------------------|
| Zone             | Marjami Ravine (ID: 266) |
| Block Size       | 4168 bytes               |
| Total Events     | 2                        |
| References Count | 85                       |

## List of Events

| Event ID              | Entrypoint   |   Size |   Instructions |
|-----------------------|--------------|--------|----------------|
| [65535](#event-65535) | 0x0000       |    658 |             62 |
| [68](#event-68)       | 0x0292       |   3144 |            414 |

## DAT References (imed_data)

|   Index | Hex Value   |   Dec Value |
|---------|-------------|-------------|
|       0 | 0x00C8      |         200 |
|       1 | 0x0000      |           0 |
|       2 | 0x00C9      |         201 |
|       3 | 0x0001      |           1 |
|       4 | 0x002D      |          45 |
|       5 | 0x0002      |           2 |
|       6 | 0x001E      |          30 |
|       7 | 0x00D7      |         215 |
|       8 | 0x012C      |         300 |
|       9 | 0x0093      |         147 |
|      10 | 0xCE8B      |       52875 |
|      11 | 0xFFFE850D  |  4294870285 |
|      12 | 0x5093      |       20627 |
|      13 | 0x09FE      |        2558 |
|      14 | 0xF10E      |       61710 |
|      15 | 0xFFFE72A9  |  4294865577 |
|      16 | 0x52F6      |       21238 |
|      17 | 0x0A52      |        2642 |
|      18 | 0xF159      |       61785 |
|      19 | 0xFFFE9BFC  |  4294876156 |
|      20 | 0x50F9      |       20729 |
|      21 | 0xFE65      |       65125 |
|      22 | 0xFFFE74AD  |  4294866093 |
|      23 | 0x5251      |       21073 |
|      24 | 0x09E4      |        2532 |
|      25 | 0xE67B      |       59003 |
|      26 | 0xFFFE8372  |  4294869874 |
|      27 | 0x51B0      |       20912 |
|      28 | 0xF102      |       61698 |
|      29 | 0xFFFE59F9  |  4294859257 |
|      30 | 0x535E      |       21342 |
|      31 | 0x0B94      |        2964 |
|      32 | 0x007F      |         127 |
|      33 | 0x005A      |          90 |
|      34 | 0x0381      |         897 |
|      35 | 0x003C      |          60 |
|      36 | 0x0050      |          80 |
|      37 | 0x00FA      |         250 |
|      38 | 0x204A      |        8266 |
|      39 | 0x0005      |           5 |
|      40 | 0x0006      |           6 |
|      41 | 0x0CE6      |        3302 |
|      42 | 0x204B      |        8267 |
|      43 | 0x204C      |        8268 |
|      44 | 0x204D      |        8269 |
|      45 | 0x204E      |        8270 |
|      46 | 0x204F      |        8271 |
|      47 | 0x2050      |        8272 |
|      48 | 0x2051      |        8273 |
|      49 | 0x2052      |        8274 |
|      50 | 0x2053      |        8275 |
|      51 | 0x2054      |        8276 |
|      52 | 0x2055      |        8277 |
|      53 | 0x2056      |        8278 |
|      54 | 0x0003      |           3 |
|      55 | 0x0008      |           8 |
|      56 | 0x2057      |        8279 |
|      57 | 0x2058      |        8280 |
|      58 | 0x0004      |           4 |
|      59 | 0x2710      |       10000 |
|      60 | 0x0384      |         900 |
|      61 | 0x00D5      |         213 |
|      62 | 0x2059      |        8281 |
|      63 | 0x0030      |          48 |
|      64 | 0x205A      |        8282 |
|      65 | 0x205B      |        8283 |
|      66 | 0x00A7      |         167 |
|      67 | 0x205C      |        8284 |
|      68 | 0x205D      |        8285 |
|      69 | 0x205E      |        8286 |
|      70 | 0x205F      |        8287 |
|      71 | 0x2060      |        8288 |
|      72 | 0x0007      |           7 |
|      73 | 0x2061      |        8289 |
|      74 | 0x2062      |        8290 |
|      75 | 0x2063      |        8291 |
|      76 | 0xFFFFFE0C  |  4294966796 |
|      77 | 0x2064      |        8292 |
|      78 | 0x2065      |        8293 |
|      79 | 0x2066      |        8294 |
|      80 | 0x2067      |        8295 |
|      81 | 0x2068      |        8296 |
|      82 | 0x2069      |        8297 |
|      83 | 0x000F      |          15 |
|      84 | 0x0039      |          57 |

## String References

- **8288**: Are you <Player>? [That's me./Who's that?]

## Events

### Event 65535

#### Metadata

| Field        | Value     |
|--------------|-----------|
| Entrypoint   | 0x0000    |
| Data Size    | 658 bytes |
| Instructions | 1         |

```
      00 01 02 03 04 05 06 07  08 09 0A 0B 0C 0D 0E 0F
      -- -- -- -- -- -- -- --  -- -- -- -- -- -- -- --
0000: 00 45 00 80 F0 FF FF 7F  F0 FF FF 7F 66 64 69 30  .E..........fdi0
0010: 01 80 55 00 80 F0 FF FF  7F F0 FF FF 7F 66 64 69  ..U..........fdi
0020: 30 1B 45 00 80 F0 FF FF  7F F0 FF FF 7F 66 64 6F  0.E..........fdo
0030: 30 01 80 55 00 80 F0 FF  FF 7F F0 FF FF 7F 66 64  0..U..........fd
0040: 6F 30 1B 45 00 80 F0 FF  FF 7F F0 FF FF 7F 66 64  o0.E..........fd
0050: 69 31 01 80 55 00 80 F0  FF FF 7F F0 FF FF 7F 66  i1..U..........f
0060: 64 69 31 1B 45 00 80 F0  FF FF 7F F0 FF FF 7F 66  di1.E..........f
0070: 64 6F 31 01 80 55 00 80  F0 FF FF 7F F0 FF FF 7F  do1..U..........
0080: 66 64 6F 31 1B 45 02 80  F0 FF FF 7F F0 FF FF 7F  fdo1.E..........
0090: 77 68 69 31 01 80 55 02  80 F0 FF FF 7F F0 FF FF  whi1..U.........
00A0: 7F 77 68 69 31 1B 45 02  80 F0 FF FF 7F F0 FF FF  .whi1.E.........
00B0: 7F 77 68 6F 31 01 80 55  02 80 F0 FF FF 7F F0 FF  .who1..U........
00C0: FF 7F 77 68 6F 31 1B 45  02 80 F0 FF FF 7F F0 FF  ..who1.E........
00D0: FF 7F 77 68 6F 32 01 80  55 02 80 F0 FF FF 7F F0  ..who2..U.......
00E0: FF FF 7F 77 68 6F 32 1B  45 02 80 F0 FF FF 7F F0  ...who2.E.......
00F0: FF FF 7F 77 68 6F 33 01  80 55 02 80 F0 FF FF 7F  ...who3..U......
0100: F0 FF FF 7F 77 68 6F 33  1B 62 03 80 F0 FF FF 7F  ....who3.b......
0110: F0 FF FF 7F 6D 61 69 6E  01 80 1C 04 80 45 00 80  ....main.....E..
0120: F0 FF FF 7F F0 FF FF 7F  66 64 6F 31 01 80 55 00  ........fdo1..U.
0130: 80 F0 FF FF 7F F0 FF FF  7F 66 64 6F 31 1B 45 00  .........fdo1.E.
0140: 80 F0 FF FF 7F F0 FF FF  7F 66 64 69 31 01 80 62  .........fdi1..b
0150: 05 80 F0 FF FF 7F F0 FF  FF 7F 6D 61 69 6E 01 80  ..........main..
0160: 1C 06 80 55 00 80 F0 FF  FF 7F F0 FF FF 7F 66 64  ...U..........fd
0170: 69 31 1B 45 00 80 F0 FF  FF 7F F0 FF FF 7F 62 6C  i1.E..........bl
0180: 6F 6E 01 80 45 02 80 F0  FF FF 7F F0 FF FF 7F 62  on..E..........b
0190: 6C 6F 6E 01 80 1B 45 02  80 F0 FF FF 7F F0 FF FF  lon...E.........
01A0: 7F 77 68 69 30 01 80 55  02 80 F0 FF FF 7F F0 FF  .whi0..U........
01B0: FF 7F 77 68 69 30 1B 45  02 80 F0 FF FF 7F F0 FF  ..whi0.E........
01C0: FF 7F 77 68 6F 30 01 80  55 02 80 F0 FF FF 7F F0  ..who0..U.......
01D0: FF FF 7F 77 68 6F 30 1B  45 07 80 F0 FF FF 7F F0  ...who0.E.......
01E0: FF FF 7F 65 66 6F 6E 01  80 55 07 80 F0 FF FF 7F  ...efon..U......
01F0: F0 FF FF 7F 65 66 6F 6E  1B 45 00 80 F0 FF FF 7F  ....efon.E......
0200: F0 FF FF 7F 66 64 69 73  01 80 1B 45 00 80 F0 FF  ....fdis...E....
0210: FF 7F F0 FF FF 7F 66 64  6F 73 01 80 55 00 80 F0  ......fdos..U...
0220: FF FF 7F F0 FF FF 7F 66  64 6F 73 1B 45 00 80 F0  .......fdos.E...
0230: FF FF 7F F0 FF FF 7F 66  64 69 66 01 80 1B 45 00  .......fdif...E.
0240: 80 F0 FF FF 7F F0 FF FF  7F 66 64 6F 66 01 80 55  .........fdof..U
0250: 00 80 F0 FF FF 7F F0 FF  FF 7F 66 64 6F 66 1B 45  ..........fdof.E
0260: 00 80 F0 FF FF 7F F0 FF  FF 7F 66 64 69 70 01 80  ..........fdip..
0270: 1B 45 00 80 F0 FF FF 7F  F0 FF FF 7F 66 64 6F 70  .E..........fdop
0280: 01 80 55 00 80 F0 FF FF  7F F0 FF FF 7F 66 64 6F  ..U..........fdo
0290: 70 1B                                             p.              
```

#### Opcodes

```
  0: 0x0000 [0x00] END_REQSTACK()
```

#### Data or dead code:

```
# Dead code (unreachable instructions):
     0x0001 [0x45] LOAD_SCHEDULED_TASK: Load scheduler "fdi0" with entities [LocalPlayer, LocalPlayer], work=[200*, 0*]
     0x0012 [0x55] WAIT_LOAD_SCHEDULER: Wait for scheduler "fdi0" with entities [LocalPlayer, LocalPlayer], work=200*
     0x0021 [0x1B] RETURN
     0x0022 [0x45] LOAD_SCHEDULED_TASK: Load scheduler "fdo0" with entities [LocalPlayer, LocalPlayer], work=[200*, 0*]
     0x0033 [0x55] WAIT_LOAD_SCHEDULER: Wait for scheduler "fdo0" with entities [LocalPlayer, LocalPlayer], work=200*
     0x0042 [0x1B] RETURN
     0x0043 [0x45] LOAD_SCHEDULED_TASK: Load scheduler "fdi1" with entities [LocalPlayer, LocalPlayer], work=[200*, 0*]
     0x0054 [0x55] WAIT_LOAD_SCHEDULER: Wait for scheduler "fdi1" with entities [LocalPlayer, LocalPlayer], work=200*
     0x0063 [0x1B] RETURN
     0x0064 [0x45] LOAD_SCHEDULED_TASK: Load scheduler "fdo1" with entities [LocalPlayer, LocalPlayer], work=[200*, 0*]
     0x0075 [0x55] WAIT_LOAD_SCHEDULER: Wait for scheduler "fdo1" with entities [LocalPlayer, LocalPlayer], work=200*
     0x0084 [0x1B] RETURN
     0x0085 [0x45] LOAD_SCHEDULED_TASK: Load scheduler "whi1" with entities [LocalPlayer, LocalPlayer], work=[201*, 0*]
     0x0096 [0x55] WAIT_LOAD_SCHEDULER: Wait for scheduler "whi1" with entities [LocalPlayer, LocalPlayer], work=201*
     0x00A5 [0x1B] RETURN
     0x00A6 [0x45] LOAD_SCHEDULED_TASK: Load scheduler "who1" with entities [LocalPlayer, LocalPlayer], work=[201*, 0*]
     0x00B7 [0x55] WAIT_LOAD_SCHEDULER: Wait for scheduler "who1" with entities [LocalPlayer, LocalPlayer], work=201*
     0x00C6 [0x1B] RETURN
     0x00C7 [0x45] LOAD_SCHEDULED_TASK: Load scheduler "who2" with entities [LocalPlayer, LocalPlayer], work=[201*, 0*]
     0x00D8 [0x55] WAIT_LOAD_SCHEDULER: Wait for scheduler "who2" with entities [LocalPlayer, LocalPlayer], work=201*
     0x00E7 [0x1B] RETURN
     0x00E8 [0x45] LOAD_SCHEDULED_TASK: Load scheduler "who3" with entities [LocalPlayer, LocalPlayer], work=[201*, 0*]
     0x00F9 [0x55] WAIT_LOAD_SCHEDULER: Wait for scheduler "who3" with entities [LocalPlayer, LocalPlayer], work=201*
     0x0108 [0x1B] RETURN
     0x0109 [0x62] LOAD_EVENT_SCHEDULER: Load scheduler "main" with entities [LocalPlayer, LocalPlayer], work=[1*, 0*]
     0x011A [0x1C] WAIT(45* ticks)
     0x011D [0x45] LOAD_SCHEDULED_TASK: Load scheduler "fdo1" with entities [LocalPlayer, LocalPlayer], work=[200*, 0*]
     0x012E [0x55] WAIT_LOAD_SCHEDULER: Wait for scheduler "fdo1" with entities [LocalPlayer, LocalPlayer], work=200*
     0x013D [0x1B] RETURN
     0x013E [0x45] LOAD_SCHEDULED_TASK: Load scheduler "fdi1" with entities [LocalPlayer, LocalPlayer], work=[200*, 0*]
     0x014F [0x62] LOAD_EVENT_SCHEDULER: Load scheduler "main" with entities [LocalPlayer, LocalPlayer], work=[2*, 0*]
     0x0160 [0x1C] WAIT(30* ticks)
     0x0163 [0x55] WAIT_LOAD_SCHEDULER: Wait for scheduler "fdi1" with entities [LocalPlayer, LocalPlayer], work=200*
     0x0172 [0x1B] RETURN
     0x0173 [0x45] LOAD_SCHEDULED_TASK: Load scheduler "blon" with entities [LocalPlayer, LocalPlayer], work=[200*, 0*]
     0x0184 [0x45] LOAD_SCHEDULED_TASK: Load scheduler "blon" with entities [LocalPlayer, LocalPlayer], work=[201*, 0*]
     0x0195 [0x1B] RETURN
     0x0196 [0x45] LOAD_SCHEDULED_TASK: Load scheduler "whi0" with entities [LocalPlayer, LocalPlayer], work=[201*, 0*]
     0x01A7 [0x55] WAIT_LOAD_SCHEDULER: Wait for scheduler "whi0" with entities [LocalPlayer, LocalPlayer], work=201*
     0x01B6 [0x1B] RETURN
     0x01B7 [0x45] LOAD_SCHEDULED_TASK: Load scheduler "who0" with entities [LocalPlayer, LocalPlayer], work=[201*, 0*]
     0x01C8 [0x55] WAIT_LOAD_SCHEDULER: Wait for scheduler "who0" with entities [LocalPlayer, LocalPlayer], work=201*
     0x01D7 [0x1B] RETURN
     0x01D8 [0x45] LOAD_SCHEDULED_TASK: Load scheduler "efon" with entities [LocalPlayer, LocalPlayer], work=[215*, 0*]
     0x01E9 [0x55] WAIT_LOAD_SCHEDULER: Wait for scheduler "efon" with entities [LocalPlayer, LocalPlayer], work=215*
     0x01F8 [0x1B] RETURN
     0x01F9 [0x45] LOAD_SCHEDULED_TASK: Load scheduler "fdis" with entities [LocalPlayer, LocalPlayer], work=[200*, 0*]
     0x020A [0x1B] RETURN
     0x020B [0x45] LOAD_SCHEDULED_TASK: Load scheduler "fdos" with entities [LocalPlayer, LocalPlayer], work=[200*, 0*]
     0x021C [0x55] WAIT_LOAD_SCHEDULER: Wait for scheduler "fdos" with entities [LocalPlayer, LocalPlayer], work=200*
     0x022B [0x1B] RETURN
     0x022C [0x45] LOAD_SCHEDULED_TASK: Load scheduler "fdif" with entities [LocalPlayer, LocalPlayer], work=[200*, 0*]
     0x023D [0x1B] RETURN
     0x023E [0x45] LOAD_SCHEDULED_TASK: Load scheduler "fdof" with entities [LocalPlayer, LocalPlayer], work=[200*, 0*]
     0x024F [0x55] WAIT_LOAD_SCHEDULER: Wait for scheduler "fdof" with entities [LocalPlayer, LocalPlayer], work=200*
     0x025E [0x1B] RETURN
     0x025F [0x45] LOAD_SCHEDULED_TASK: Load scheduler "fdip" with entities [LocalPlayer, LocalPlayer], work=[200*, 0*]
     0x0270 [0x1B] RETURN
     0x0271 [0x45] LOAD_SCHEDULED_TASK: Load scheduler "fdop" with entities [LocalPlayer, LocalPlayer], work=[200*, 0*]
     0x0282 [0x55] WAIT_LOAD_SCHEDULER: Wait for scheduler "fdop" with entities [LocalPlayer, LocalPlayer], work=200*
     0x0291 [0x1B] RETURN
```

### Event 68

#### Metadata

| Field        | Value      |
|--------------|------------|
| Entrypoint   | 0x0292     |
| Data Size    | 3144 bytes |
| Instructions | 414        |

```
      00 01 02 03 04 05 06 07  08 09 0A 0B 0C 0D 0E 0F
      -- -- -- -- -- -- -- --  -- -- -- -- -- -- -- --
0290:       42 03 01 00 03 10  5D 01 80 08 80 1A 64 00    B.....].....d.
02A0: 46 01 38 09 80 2F 00 03  A2 10 01 2F 00 04 A2 10  F.8../...../....
02B0: 01 2F 00 05 A2 10 01 2F  00 06 A2 10 01 2F 00 07  ./...../...../..
02C0: A2 10 01 4E 00 03 A2 10  01 4E 00 04 A2 10 01 4E  ...N.....N.....N
02D0: 00 05 A2 10 01 4E 00 06  A2 10 01 4E 00 07 A2 10  .....N.....N....
02E0: 01 92 01 05 A2 10 01 92  01 06 A2 10 01 92 01 07  ................
02F0: A2 10 01 94 01 03 A2 10  01 94 01 04 A2 10 01 94  ................
0300: 01 F0 FF FF 7F 94 01 05  A2 10 01 94 01 06 A2 10  ................
0310: 01 94 01 07 A2 10 01 BA  03 A2 10 01 0A 80 0B 80  ................
0320: 0C 80 0D 80 BA 04 A2 10  01 0E 80 0F 80 10 80 11  ................
0330: 80 BA 05 A2 10 01 12 80  13 80 14 80 01 80 BA 06  ................
0340: A2 10 01 15 80 16 80 17  80 18 80 BA 07 A2 10 01  ................
0350: 19 80 1A 80 1B 80 01 80  BA F0 FF FF 7F 1C 80 1D  ................
0360: 80 1E 80 1F 80 2C 06 A2  10 01 06 A2 10 01 69 64  .....,........id
0370: 73 30 2C 07 A2 10 01 07  A2 10 01 69 64 73 30 1C  s0,........ids0.
0380: 03 80 2C 05 A2 10 01 05  A2 10 01 64 65 61 64 2C  ..,........dead,
0390: 06 A2 10 01 06 A2 10 01  63 6F 72 70 2C 07 A2 10  ........corp,...
03A0: 01 07 A2 10 01 63 6F 72  70 53 05 A2 10 01 05 A2  .....corpS......
03B0: 10 01 64 65 61 64 53 06  A2 10 01 06 A2 10 01 63  ..deadS........c
03C0: 6F 72 70 53 07 A2 10 01  07 A2 10 01 63 6F 72 70  orpS........corp
03D0: 5C 00 01 80 5C 01 01 80  5C 02 01 80 5C 03 01 80  \...\...\...\...
03E0: 9A 5D 20 80 03 80 29 0F  F0 FF FF 7F 0F 80 03 A2  .] ...).........
03F0: 10 01 80 04 A2 10 01 80  F0 FF FF 7F 6C 03 A2 10  ............l...
0400: 01 01 80 03 80 4A 03 A2  10 01 F0 FF FF 7F 4A F0  .....J........J.
0410: FF FF 7F 04 A2 10 01 4A  04 A2 10 01 F0 FF FF 7F  .......J........
0420: 6F 76 04 A2 10 01 6F 76  F0 FF FF 7F 6F 76 03 A2  ov....ov....ov..
0430: 10 01 29 0F F0 FF FF 7F  08 1C 21 80 45 22 80 F8  ..).......!.E"..
0440: FF FF 7F F8 FF FF 7F 73  30 36 33 01 80 1A 43 00  .......s063...C.
0450: 1C 23 80 29 0F F0 FF FF  7F 09 1C 06 80 27 0F F0  .#.).........'..
0460: FF FF 7F 0C 1C 21 80 52  22 80 F8 FF FF 7F F8 FF  .....!.R".......
0470: FF 7F 73 30 36 33 45 22  80 F8 FF FF 7F F8 FF FF  ..s063E"........
0480: 7F 73 30 36 34 01 80 45  22 80 F8 FF FF 7F F8 FF  .s064..E".......
0490: FF 7F 38 31 36 30 01 80  1C 24 80 6C 03 A2 10 01  ..8160...$.l....
04A0: 20 80 03 80 27 0F 03 A2  10 01 2A 1C 06 80 2A 0F   ...'.....*...*.
04B0: F0 FF FF 7F 52 22 80 F8  FF FF 7F F8 FF FF 7F 73  ....R".........s
04C0: 30 36 34 45 22 80 F8 FF  FF 7F F8 FF FF 7F 73 30  064E".........s0
04D0: 36 35 01 80 5C 00 25 80  5C 01 25 80 9A 5D 20 80  65..\.%.\.%..] .
04E0: 03 80 1C 06 80 2B 03 A2  10 01 26 80 1C 21 80 52  .....+....&..!.R
04F0: 22 80 F8 FF FF 7F F8 FF  FF 7F 73 30 36 35 02 09  ".........s065..
0500: 10 27 80 00 1A 05 45 22  80 F8 FF FF 7F F8 FF FF  .'....E"........
0510: 7F 73 30 37 39 01 80 01  47 05 02 09 10 28 80 00  .s079...G....(..
0520: 36 05 45 22 80 F8 FF FF  7F F8 FF FF 7F 73 30 37  6.E".........s07
0530: 39 01 80 01 47 05 45 22  80 F8 FF FF 7F F8 FF FF  9...G.E"........
0540: 7F 73 30 36 37 01 80 4A  F0 FF FF 7F 03 A2 10 01  .s067..J........
0550: 6F 76 F0 FF FF 7F 23 2A  0F 03 A2 10 01 02 09 10  ov....#*........
0560: 27 80 00 77 05 52 22 80  F8 FF FF 7F F8 FF FF 7F  '..w.R".........
0570: 73 30 37 39 01 A0 05 02  09 10 28 80 00 91 05 52  s079......(....R
0580: 22 80 F8 FF FF 7F F8 FF  FF 7F 73 30 37 39 01 A0  ".........s079..
0590: 05 52 22 80 F8 FF FF 7F  F8 FF FF 7F 73 30 36 37  .R".........s067
05A0: 45 22 80 F8 FF FF 7F F8  FF FF 7F 73 30 36 36 01  E".........s066.
05B0: 80 03 03 10 29 80 2B 03  A2 10 01 2A 80 23 02 01  ....).+....*.#..
05C0: 00 03 80 00 53 06 7B 03  A2 10 01 29 0F 03 A2 10  ....S.{....)....
05D0: 01 03 2B 03 A2 10 01 2B  80 23 52 22 80 F8 FF FF  ..+....+.#R"....
05E0: 7F F8 FF FF 7F 73 30 36  36 45 22 80 F8 FF FF 7F  .....s066E".....
05F0: F8 FF FF 7F 73 30 36 39  01 80 2B 03 A2 10 01 2C  ....s069..+....,
0600: 80 23 29 0F 03 A2 10 01  04 52 22 80 F8 FF FF 7F  .#)......R".....
0610: F8 FF FF 7F 73 30 36 39  45 22 80 F8 FF FF 7F F8  ....s069E"......
0620: FF FF 7F 73 30 36 38 01  80 29 0F 03 A2 10 01 0D  ...s068..)......
0630: 79 00 03 A2 10 01 04 A2  10 01 2B 03 A2 10 01 2D  y.........+....-
0640: 80 23 29 0F 03 A2 10 01  0E 29 0F 03 A2 10 01 0F  .#)......)......
0650: 01 D4 06 29 0F 03 A2 10  01 03 2B 03 A2 10 01 2E  ...)......+.....
0660: 80 23 52 22 80 F8 FF FF  7F F8 FF FF 7F 73 30 36  .#R".........s06
0670: 36 45 22 80 F8 FF FF 7F  F8 FF FF 7F 73 30 37 38  6E".........s078
0680: 01 80 29 0F 03 A2 10 01  0D 2B 03 A2 10 01 2F 80  ..)......+..../.
0690: 23 2B 03 A2 10 01 30 80  23 29 0F 03 A2 10 01 0E  #+....0.#)......
06A0: 52 22 80 F8 FF FF 7F F8  FF FF 7F 73 30 37 38 45  R".........s078E
06B0: 22 80 F8 FF FF 7F F8 FF  FF 7F 73 30 36 38 01 80  ".........s068..
06C0: 29 0F 03 A2 10 01 0F 03  03 10 29 80 2B 03 A2 10  ).........).+...
06D0: 01 31 80 23 52 22 80 F8  FF FF 7F F8 FF FF 7F 73  .1.#R".........s
06E0: 30 36 38 45 22 80 F8 FF  FF 7F F8 FF FF 7F 73 30  068E".........s0
06F0: 37 31 01 80 29 0F 03 A2  10 01 10 7B 03 A2 10 01  71..)......{....
0700: 27 0F 03 A2 10 01 2B 2B  03 A2 10 01 32 80 23 2B  '.....++....2.#+
0710: 03 A2 10 01 33 80 1C 06  80 4A F0 FF FF 7F 03 A2  ....3....J......
0720: 10 01 6F 76 F0 FF FF 7F  23 2A 0F 03 A2 10 01 52  ..ov....#*.....R
0730: 22 80 F8 FF FF 7F F8 FF  FF 7F 73 30 37 31 45 22  ".........s071E"
0740: 80 F8 FF FF 7F F8 FF FF  7F 73 30 37 30 01 80 7B  .........s070..{
0750: 03 A2 10 01 29 0F 03 A2  10 01 12 2B 03 A2 10 01  ....)......+....
0760: 34 80 23 29 0F 03 A2 10  01 13 29 0F 03 A2 10 01  4.#)......).....
0770: 14 2B 03 A2 10 01 35 80  23 29 0F 03 A2 10 01 15  .+....5.#)......
0780: 52 22 80 F8 FF FF 7F F8  FF FF 7F 73 30 37 30 02  R".........s070.
0790: 09 10 36 80 00 AB 07 45  22 80 F8 FF FF 7F F8 FF  ..6....E".......
07A0: FF 7F 73 30 37 32 01 80  01 10 08 02 09 10 27 80  ..s072........'.
07B0: 00 C7 07 45 22 80 F8 FF  FF 7F F8 FF FF 7F 73 30  ...E".........s0
07C0: 38 30 01 80 01 10 08 02  09 10 28 80 00 E3 07 45  80........(....E
07D0: 22 80 F8 FF FF 7F F8 FF  FF 7F 73 30 38 30 01 80  ".........s080..
07E0: 01 10 08 02 09 10 37 80  00 FF 07 45 22 80 F8 FF  ......7....E"...
07F0: FF 7F F8 FF FF 7F 73 30  37 32 01 80 01 10 08 45  ......s072.....E
0800: 22 80 F8 FF FF 7F F8 FF  FF 7F 73 30 38 32 01 80  ".........s082..
0810: 4A 03 A2 10 01 F0 FF FF  7F 2B 03 A2 10 01 38 80  J........+....8.
0820: 23 6F 76 03 A2 10 01 29  0F 03 A2 10 01 03 2B 03  #ov....)......+.
0830: A2 10 01 39 80 23 29 0F  03 A2 10 01 04 5D 06 80  ...9.#)......]..
0840: 08 80 1A 64 00 02 09 10  36 80 00 5F 08 52 22 80  ...d....6.._.R".
0850: F8 FF FF 7F F8 FF FF 7F  73 30 37 32 01 BC 08 02  ........s072....
0860: 09 10 27 80 00 79 08 52  22 80 F8 FF FF 7F F8 FF  ..'..y.R".......
0870: FF 7F 73 30 38 30 01 BC  08 02 09 10 28 80 00 93  ..s080......(...
0880: 08 52 22 80 F8 FF FF 7F  F8 FF FF 7F 73 30 38 30  .R".........s080
0890: 01 BC 08 02 09 10 37 80  00 AD 08 52 22 80 F8 FF  ......7....R"...
08A0: FF 7F F8 FF FF 7F 73 30  37 32 01 BC 08 52 22 80  ......s072...R".
08B0: F8 FF FF 7F F8 FF FF 7F  73 30 38 32 69 01 3A 80  ........s082i.:.
08C0: 59 05 04 A2 10 01 01 BA  04 A2 10 01 0E 80 0F 80  Y...............
08D0: 3B 80 11 80 1C 03 80 D8  01 04 A2 10 01 3C 80 C5  ;............<..
08E0: 3D 80 04 A2 10 01 04 A2  10 01 73 30 30 30 01 80  =.........s000..
08F0: 45 22 80 F8 FF FF 7F F8  FF FF 7F 73 30 37 34 01  E".........s074.
0900: 80 29 0F 03 A2 10 01 0D  1A 43 00 2B 03 A2 10 01  .).......C.+....
0910: 3E 80 23 62 3F 80 04 A2  10 01 04 A2 10 01 6D 61  >.#b?.........ma
0920: 69 6E 01 80 2B 03 A2 10  01 40 80 23 29 0F 03 A2  in..+....@.#)...
0930: 10 01 0E 29 0F 03 A2 10  01 0F 2B 03 A2 10 01 41  ...)......+....A
0940: 80 23 29 0F 03 A2 10 01  10 CD 42 80 04 A2 10 01  .#).......B.....
0950: 04 A2 10 01 73 30 30 30  01 80 2B 03 A2 10 01 43  ....s000..+....C
0960: 80 23 1A 64 00 62 3F 80  04 A2 10 01 04 A2 10 01  .#.d.b?.........
0970: 73 65 6E 64 01 80 52 22  80 F8 FF FF 7F F8 FF FF  send..R"........
0980: 7F 73 30 37 34 C5 3D 80  04 A2 10 01 04 A2 10 01  .s074.=.........
0990: 6B 69 6C 30 01 80 CD 42  80 04 A2 10 01 04 A2 10  kil0...B........
09A0: 01 6B 6C 6C 61 01 80 59  05 04 A2 10 01 00 BA 04  .klla..Y........
09B0: A2 10 01 0E 80 0F 80 10  80 11 80 6B 64 66 74 30  ...........kdft0
09C0: 04 A2 10 01 D8 00 04 A2  10 01 69 00 3A 80 5D 20  ..........i.:.] 
09D0: 80 08 80 45 22 80 F8 FF  FF 7F F8 FF FF 7F 73 30  ...E".........s0
09E0: 37 33 01 80 1A 43 00 02  01 00 03 80 00 17 0A 29  73...C.........)
09F0: 0F 03 A2 10 01 03 2B 03  A2 10 01 44 80 23 29 0F  ......+....D.#).
0A00: 03 A2 10 01 04 52 22 80  F8 FF FF 7F F8 FF FF 7F  .....R".........
0A10: 73 30 37 33 01 A6 0B 7B  03 A2 10 01 29 0F 03 A2  s073...{....)...
0A20: 10 01 12 2B 03 A2 10 01  45 80 23 29 0F 03 A2 10  ...+....E.#)....
0A30: 01 13 52 22 80 F8 FF FF  7F F8 FF FF 7F 73 30 37  ..R".........s07
0A40: 33 02 09 10 27 80 00 5D  0A 45 22 80 F8 FF FF 7F  3...'..].E".....
0A50: F8 FF FF 7F 73 30 38 31  01 80 01 8A 0A 02 09 10  ....s081........
0A60: 28 80 00 79 0A 45 22 80  F8 FF FF 7F F8 FF FF 7F  (..y.E".........
0A70: 73 30 38 31 01 80 01 8A  0A 45 22 80 F8 FF FF 7F  s081.....E".....
0A80: F8 FF FF 7F 73 30 37 35  01 80 29 0F 03 A2 10 01  ....s075..).....
0A90: 14 2B 03 A2 10 01 46 80  23 29 0F 03 A2 10 01 15  .+....F.#)......
0AA0: 24 47 80 01 80 01 80 25  02 00 10 01 80 00 05 0B  $G.....%........
0AB0: 6E F0 FF FF 7F 48 80 99  F0 FF FF 7F 1C 21 80 02  n....H.......!..
0AC0: 09 10 27 80 00 D9 0A 52  22 80 F8 FF FF 7F F8 FF  ..'....R".......
0AD0: FF 7F 73 30 38 31 01 02  0B 02 09 10 28 80 00 F3  ..s081......(...
0AE0: 0A 52 22 80 F8 FF FF 7F  F8 FF FF 7F 73 30 38 31  .R".........s081
0AF0: 01 02 0B 52 22 80 F8 FF  FF 7F F8 FF FF 7F 73 30  ...R".........s0
0B00: 37 35 01 A6 0B 02 00 10  03 80 00 A6 0B 6E F0 FF  75...........n..
0B10: FF 7F 28 80 99 F0 FF FF  7F 1C 21 80 02 09 10 27  ..(.......!....'
0B20: 80 00 36 0B 52 22 80 F8  FF FF 7F F8 FF FF 7F 73  ..6.R".........s
0B30: 30 38 31 01 5F 0B 02 09  10 28 80 00 50 0B 52 22  081._....(..P.R"
0B40: 80 F8 FF FF 7F F8 FF FF  7F 73 30 38 31 01 5F 0B  .........s081._.
0B50: 52 22 80 F8 FF FF 7F F8  FF FF 7F 73 30 37 35 45  R".........s075E
0B60: 22 80 F8 FF FF 7F F8 FF  FF 7F 73 30 37 33 01 80  ".........s073..
0B70: 29 0F 03 A2 10 01 1A 2B  03 A2 10 01 49 80 23 29  )......+....I.#)
0B80: 0F 03 A2 10 01 1B 29 0F  03 A2 10 01 1C 29 0F 03  ......)......)..
0B90: A2 10 01 1D 52 22 80 F8  FF FF 7F F8 FF FF 7F 73  ....R".........s
0BA0: 30 37 33 01 A6 0B 02 09  10 36 80 00 C2 0B 45 22  073......6....E"
0BB0: 80 F8 FF FF 7F F8 FF FF  7F 73 30 37 32 01 80 01  .........s072...
0BC0: 27 0C 02 09 10 27 80 00  DE 0B 45 22 80 F8 FF FF  '....'....E"....
0BD0: 7F F8 FF FF 7F 73 30 38  30 01 80 01 27 0C 02 09  .....s080...'...
0BE0: 10 28 80 00 FA 0B 45 22  80 F8 FF FF 7F F8 FF FF  .(....E"........
0BF0: 7F 73 30 38 30 01 80 01  27 0C 02 09 10 37 80 00  .s080...'....7..
0C00: 16 0C 45 22 80 F8 FF FF  7F F8 FF FF 7F 73 30 37  ..E".........s07
0C10: 32 01 80 01 27 0C 45 22  80 F8 FF FF 7F F8 FF FF  2...'.E"........
0C20: 7F 73 30 38 32 01 80 29  0F 03 A2 10 01 16 2B 03  .s082..)......+.
0C30: A2 10 01 4A 80 23 2B 03  A2 10 01 4B 80 23 29 0F  ...J.#+....K.#).
0C40: 03 A2 10 01 17 29 0F 03  A2 10 01 18 29 0F 03 A2  .....)......)...
0C50: 10 01 19 02 09 10 36 80  00 6D 0C 52 22 80 F8 FF  ......6..m.R"...
0C60: FF 7F F8 FF FF 7F 73 30  37 32 01 CA 0C 02 09 10  ......s072......
0C70: 27 80 00 87 0C 52 22 80  F8 FF FF 7F F8 FF FF 7F  '....R".........
0C80: 73 30 38 30 01 CA 0C 02  09 10 28 80 00 A1 0C 52  s080......(....R
0C90: 22 80 F8 FF FF 7F F8 FF  FF 7F 73 30 38 30 01 CA  ".........s080..
0CA0: 0C 02 09 10 37 80 00 BB  0C 52 22 80 F8 FF FF 7F  ....7....R".....
0CB0: F8 FF FF 7F 73 30 37 32  01 CA 0C 52 22 80 F8 FF  ....s072...R"...
0CC0: FF 7F F8 FF FF 7F 73 30  38 32 02 09 10 27 80 00  ......s082...'..
0CD0: E6 0C 45 22 80 F8 FF FF  7F F8 FF FF 7F 73 30 38  ..E".........s08
0CE0: 31 01 80 01 13 0D 02 09  10 28 80 00 02 0D 45 22  1........(....E"
0CF0: 80 F8 FF FF 7F F8 FF FF  7F 73 30 38 31 01 80 01  .........s081...
0D00: 13 0D 45 22 80 F8 FF FF  7F F8 FF FF 7F 73 30 37  ..E".........s07
0D10: 35 01 80 7B 03 A2 10 01  4B 03 A2 10 01 4C 80 6F  5..{....K....L.o
0D20: 76 03 A2 10 01 2B 03 A2  10 01 4D 80 23 2B 03 A2  v....+....M.#+..
0D30: 10 01 4E 80 23 02 09 10  27 80 00 4F 0D 52 22 80  ..N.#...'..O.R".
0D40: F8 FF FF 7F F8 FF FF 7F  73 30 38 31 01 78 0D 02  ........s081.x..
0D50: 09 10 28 80 00 69 0D 52  22 80 F8 FF FF 7F F8 FF  ..(..i.R".......
0D60: FF 7F 73 30 38 31 01 78  0D 52 22 80 F8 FF FF 7F  ..s081.x.R".....
0D70: F8 FF FF 7F 73 30 37 35  45 22 80 F8 FF FF 7F F8  ....s075E"......
0D80: FF FF 7F 73 30 37 31 01  80 4A 03 A2 10 01 04 A2  ...s071..J......
0D90: 10 01 6F 76 03 A2 10 01  79 00 F0 FF FF 7F 04 A2  ..ov....y.......
0DA0: 10 01 29 0F 03 A2 10 01  25 03 03 10 29 80 2B 03  ..).....%...).+.
0DB0: A2 10 01 4F 80 23 29 0F  03 A2 10 01 26 79 00 03  ...O.#).....&y..
0DC0: A2 10 01 F0 FF FF 7F 52  22 80 F8 FF FF 7F F8 FF  .......R".......
0DD0: FF 7F 73 30 37 31 45 22  80 F8 FF FF 7F F8 FF FF  ..s071E"........
0DE0: 7F 73 30 37 36 01 80 29  0F 03 A2 10 01 27 29 0F  .s076..).....').
0DF0: 03 A2 10 01 28 4A 03 A2  10 01 F0 FF FF 7F 6F 76  ....(J........ov
0E00: 03 A2 10 01 79 00 F0 FF  FF 7F 03 A2 10 01 2B 03  ....y.........+.
0E10: A2 10 01 50 80 23 02 01  00 03 80 00 37 0E 29 0F  ...P.#......7.).
0E20: 03 A2 10 01 1F 2B 03 A2  10 01 51 80 23 29 0F 03  .....+....Q.#)..
0E30: A2 10 01 20 01 4D 0E 29  0F 03 A2 10 01 1F 2B 03  ... .M.)......+.
0E40: A2 10 01 52 80 23 29 0F  03 A2 10 01 20 52 22 80  ...R.#)..... R".
0E50: F8 FF FF 7F F8 FF FF 7F  73 30 37 36 45 22 80 F8  ........s076E"..
0E60: FF FF 7F F8 FF FF 7F 73  30 37 37 01 80 7B 03 A2  .......s077..{..
0E70: 10 01 27 0F 03 A2 10 01  2C 1C 23 80 4A F0 FF FF  ..'.....,.#.J...
0E80: 7F 03 A2 10 01 6F 76 F0  FF FF 7F 1C 23 80 5D 01  .....ov.....#.].
0E90: 80 08 80 1A 64 00 52 22  80 F8 FF FF 7F F8 FF FF  ....d.R"........
0EA0: 7F 73 30 37 37 1C 53 80  5C 00 23 80 5C 01 23 80  .s077.S.\.#.\.#.
0EB0: 5C 02 54 80 5C 03 54 80  9A 5D 20 80 03 80 AB 11  \.T.\.T..] .....
0EC0: 01 80 1C 03 80 46 00 45  00 80 F8 FF FF 7F F8 FF  .....F.E........
0ED0: FF 7F 66 64 69 32 01 80  21 00                    ..fdi2..!.      
```

#### Opcodes

```
  0: 0x0292 [0x42] SET_CLI_EVENT_CANCEL_DATA()
  1: 0x0293 [0x03] ExtData[1]->WorkLocal[1] = Work_Zone[3]
  2: 0x0298 [0x5D] SET_MUSIC_VOLUME(volume=0*, fade_time=300*)
  3: 0x029D [0x1A] CALL_SUBROUTINE(address=0x0064)
  4: 0x02A0 [0x46] CAMERA_CONTROL: Disable user control
  5: 0x02A2 [0x38] SET_CLIENT_EVENT_MODE(mode=147*)
  6: 0x02A5 [0x2F] Schultz (ID: 17867267/0x0110A203)->Render.Flags0 &= ~0x80000 // Bit 19
  7: 0x02AB [0x2F] Unnamed NPC (ID: 17867268/0x0110A204)->Render.Flags0 &= ~0x80000 // Bit 19
  8: 0x02B1 [0x2F] Unnamed NPC (ID: 17867269/0x0110A205)->Render.Flags0 &= ~0x80000 // Bit 19
  9: 0x02B7 [0x2F] Unnamed NPC (ID: 17867270/0x0110A206)->Render.Flags0 &= ~0x80000 // Bit 19
 10: 0x02BD [0x2F] Unnamed NPC (ID: 17867271/0x0110A207)->Render.Flags0 &= ~0x80000 // Bit 19
 11: 0x02C3 [0x4E] SET_ENTITY_HIDE_FLAG: Show Schultz (ID: 17867267/0x0110A203)
 12: 0x02C9 [0x4E] SET_ENTITY_HIDE_FLAG: Show Unnamed NPC (ID: 17867268/0x0110A204)
 13: 0x02CF [0x4E] SET_ENTITY_HIDE_FLAG: Show Unnamed NPC (ID: 17867269/0x0110A205)
 14: 0x02D5 [0x4E] SET_ENTITY_HIDE_FLAG: Show Unnamed NPC (ID: 17867270/0x0110A206)
 15: 0x02DB [0x4E] SET_ENTITY_HIDE_FLAG: Show Unnamed NPC (ID: 17867271/0x0110A207)
 16: 0x02E1 [0x92] Unnamed NPC (ID: 17867269/0x0110A205)->Render.Flags3 ^= 0x01
 17: 0x02E7 [0x92] Unnamed NPC (ID: 17867270/0x0110A206)->Render.Flags3 ^= 0x01
 18: 0x02ED [0x92] Unnamed NPC (ID: 17867271/0x0110A207)->Render.Flags3 ^= 0x01
 19: 0x02F3 [0x94] Schultz (ID: 17867267/0x0110A203)->Render.Flags3 ^= 0x01
 20: 0x02F9 [0x94] Unnamed NPC (ID: 17867268/0x0110A204)->Render.Flags3 ^= 0x01
 21: 0x02FF [0x94] LocalPlayer->Render.Flags3 ^= 0x01
 22: 0x0305 [0x94] Unnamed NPC (ID: 17867269/0x0110A205)->Render.Flags3 ^= 0x01
 23: 0x030B [0x94] Unnamed NPC (ID: 17867270/0x0110A206)->Render.Flags3 ^= 0x01
 24: 0x0311 [0x94] Unnamed NPC (ID: 17867271/0x0110A207)->Render.Flags3 ^= 0x01
 25: 0x0317 [0xBA] SET_ENTITY_POSITION(entity_id=Schultz (ID: 17867267/0x0110A203), pos_x=52.875*, pos_z=-97.011*, pos_y=20.627*, direction=224.8°*)
 26: 0x0324 [0xBA] SET_ENTITY_POSITION(entity_id=Unnamed NPC (ID: 17867268/0x0110A204), pos_x=61.710*, pos_z=-101.719*, pos_y=21.238*, direction=232.2°*)
 27: 0x0331 [0xBA] SET_ENTITY_POSITION(entity_id=Unnamed NPC (ID: 17867269/0x0110A205), pos_x=61.785*, pos_z=-91.140*, pos_y=20.729*, direction=0.0°*)
 28: 0x033E [0xBA] SET_ENTITY_POSITION(entity_id=Unnamed NPC (ID: 17867270/0x0110A206), pos_x=65.125*, pos_z=-101.203*, pos_y=21.073*, direction=222.5°*)
 29: 0x034B [0xBA] SET_ENTITY_POSITION(entity_id=Unnamed NPC (ID: 17867271/0x0110A207), pos_x=59.003*, pos_z=-97.422*, pos_y=20.912*, direction=0.0°*)
 30: 0x0358 [0xBA] SET_ENTITY_POSITION(entity_id=LocalPlayer, pos_x=61.698*, pos_z=-108.039*, pos_y=21.342*, direction=260.5°*)
 31: 0x0365 [0x2C] CREATE_SCHEDULER_TASK: Create scheduler "ids0" with entities [Unnamed NPC (ID: 17867270/0x0110A206), Unnamed NPC (ID: 17867270/0x0110A206)]
 32: 0x0372 [0x2C] CREATE_SCHEDULER_TASK: Create scheduler "ids0" with entities [Unnamed NPC (ID: 17867271/0x0110A207), Unnamed NPC (ID: 17867271/0x0110A207)]
 33: 0x037F [0x1C] WAIT(1* ticks)
 34: 0x0382 [0x2C] CREATE_SCHEDULER_TASK: Create scheduler "dead" with entities [Unnamed NPC (ID: 17867269/0x0110A205), Unnamed NPC (ID: 17867269/0x0110A205)]
 35: 0x038F [0x2C] CREATE_SCHEDULER_TASK: Create scheduler "corp" with entities [Unnamed NPC (ID: 17867270/0x0110A206), Unnamed NPC (ID: 17867270/0x0110A206)]
 36: 0x039C [0x2C] CREATE_SCHEDULER_TASK: Create scheduler "corp" with entities [Unnamed NPC (ID: 17867271/0x0110A207), Unnamed NPC (ID: 17867271/0x0110A207)]
 37: 0x03A9 [0x53] WAIT_SCHEDULER_TASK: Wait for scheduler "dead" with entities [Unnamed NPC (ID: 17867269/0x0110A205), Unnamed NPC (ID: 17867269/0x0110A205)]
 38: 0x03B6 [0x53] WAIT_SCHEDULER_TASK: Wait for scheduler "corp" with entities [Unnamed NPC (ID: 17867270/0x0110A206), Unnamed NPC (ID: 17867270/0x0110A206)]
 39: 0x03C3 [0x53] WAIT_SCHEDULER_TASK: Wait for scheduler "corp" with entities [Unnamed NPC (ID: 17867271/0x0110A207), Unnamed NPC (ID: 17867271/0x0110A207)]
 40: 0x03D0 [0x5C] MUSIC_CONTROL: Set Idle (Day) music to song 0*
 41: 0x03D4 [0x5C] MUSIC_CONTROL: Set Idle (Night) music to song 0*
 42: 0x03D8 [0x5C] MUSIC_CONTROL: Set Combat (Solo) music to song 0*
 43: 0x03DC [0x5C] MUSIC_CONTROL: Set Combat (Party) music to song 0*
 44: 0x03E0 [0x9A] WAIT_MUSIC_SERVER()
 45: 0x03E1 [0x5D] SET_MUSIC_VOLUME(volume=127*, fade_time=1*)
 46: 0x03E6 [0x29] REQ_SET_WAIT(priority=0x0F, entity_id=LocalPlayer, tag_num=0x0F)
 47: 0x03ED [0x80] LOAD_WAIT(entity=Schultz (ID: 17867267/0x0110A203))
 48: 0x03F2 [0x80] LOAD_WAIT(entity=Unnamed NPC (ID: 17867268/0x0110A204))
 49: 0x03F7 [0x80] LOAD_WAIT(entity=LocalPlayer)
 50: 0x03FC [0x6C] FADE_ENTITY_COLOR(entity_id=Schultz (ID: 17867267/0x0110A203), end_alpha=0*, fade_time=1*)
 51: 0x0405 [0x4A] Schultz (ID: 17867267/0x0110A203) looks at LocalPlayer
 52: 0x040E [0x4A] LocalPlayer looks at Unnamed NPC (ID: 17867268/0x0110A204)
 53: 0x0417 [0x4A] Unnamed NPC (ID: 17867268/0x0110A204) looks at LocalPlayer
 54: 0x0420 [0x6F] WAIT_FRAME_DELAY: Yield until WaitTime reaches zero
 55: 0x0421 [0x76] CHECK_ENTITY_RENDER_FLAGS: Wait until Unnamed NPC (ID: 17867268/0x0110A204) Render.Flags0 and Render.Flags3 conditions are met
 56: 0x0426 [0x6F] WAIT_FRAME_DELAY: Yield until WaitTime reaches zero
 57: 0x0427 [0x76] CHECK_ENTITY_RENDER_FLAGS: Wait until LocalPlayer Render.Flags0 and Render.Flags3 conditions are met
 58: 0x042C [0x6F] WAIT_FRAME_DELAY: Yield until WaitTime reaches zero
 59: 0x042D [0x76] CHECK_ENTITY_RENDER_FLAGS: Wait until Schultz (ID: 17867267/0x0110A203) Render.Flags0 and Render.Flags3 conditions are met
 60: 0x0432 [0x29] REQ_SET_WAIT(priority=0x0F, entity_id=LocalPlayer, tag_num=0x08)
 61: 0x0439 [0x1C] WAIT(90* ticks)
 62: 0x043C [0x45] LOAD_SCHEDULED_TASK: Load scheduler "s063" with entities [EventEntity, EventEntity], work=[897*, 0*]
 63: 0x044D [0x1A] CALL_SUBROUTINE(address=0x0043)
 64: 0x0450 [0x1C] WAIT(60* ticks)
 65: 0x0453 [0x29] REQ_SET_WAIT(priority=0x0F, entity_id=LocalPlayer, tag_num=0x09)
 66: 0x045A [0x1C] WAIT(30* ticks)
 67: 0x045D [0x27] REQ_SET(priority=0x0F, entity_id=LocalPlayer, tag_num=0x0C)
 68: 0x0464 [0x1C] WAIT(90* ticks)
 69: 0x0467 [0x52] END_LOAD_SCHEDULER: End scheduler "s063" with entities [EventEntity, EventEntity], work=897*
 70: 0x0476 [0x45] LOAD_SCHEDULED_TASK: Load scheduler "s064" with entities [EventEntity, EventEntity], work=[897*, 0*]
 71: 0x0487 [0x45] LOAD_SCHEDULED_TASK: Load scheduler "8160" with entities [EventEntity, EventEntity], work=[897*, 0*]
 72: 0x0498 [0x1C] WAIT(80* ticks)
 73: 0x049B [0x6C] FADE_ENTITY_COLOR(entity_id=Schultz (ID: 17867267/0x0110A203), end_alpha=127*, fade_time=1*)
 74: 0x04A4 [0x27] REQ_SET(priority=0x0F, entity_id=Schultz (ID: 17867267/0x0110A203), tag_num=0x2A)
 75: 0x04AB [0x1C] WAIT(30* ticks)
 76: 0x04AE [0x2A] GET_REQ_LEVEL(level=15, entity_id=LocalPlayer)
 77: 0x04B4 [0x52] END_LOAD_SCHEDULER: End scheduler "s064" with entities [EventEntity, EventEntity], work=897*
 78: 0x04C3 [0x45] LOAD_SCHEDULED_TASK: Load scheduler "s065" with entities [EventEntity, EventEntity], work=[897*, 0*]
 79: 0x04D4 [0x5C] MUSIC_CONTROL: Set Idle (Day) music to song 250*
 80: 0x04D8 [0x5C] MUSIC_CONTROL: Set Idle (Night) music to song 250*
 81: 0x04DC [0x9A] WAIT_MUSIC_SERVER()
 82: 0x04DD [0x5D] SET_MUSIC_VOLUME(volume=127*, fade_time=1*)
 83: 0x04E2 [0x1C] WAIT(30* ticks)
 84: 0x04E5 [0x2B] Schultz (ID: 17867267/0x0110A203) [8266*]:
    → "Ah, that was a most splendid battle."
 85: 0x04EC [0x1C] WAIT(90* ticks)
 86: 0x04EF [0x52] END_LOAD_SCHEDULER: End scheduler "s065" with entities [EventEntity, EventEntity], work=897*
 87: 0x04FE [0x02] IF !(Work_Zone[9] == 5*) GOTO 0x051A
 88: 0x0506 [0x45] LOAD_SCHEDULED_TASK: Load scheduler "s079" with entities [EventEntity, EventEntity], work=[897*, 0*]
 89: 0x0517 [0x01] GOTO 0x0547
 90: 0x051A [0x02] IF !(Work_Zone[9] == 6*) GOTO 0x0536
 91: 0x0522 [0x45] LOAD_SCHEDULED_TASK: Load scheduler "s079" with entities [EventEntity, EventEntity], work=[897*, 0*]
 92: 0x0533 [0x01] GOTO 0x0547
 93: 0x0536 [0x45] LOAD_SCHEDULED_TASK: Load scheduler "s067" with entities [EventEntity, EventEntity], work=[897*, 0*]

SUBROUTINE_0547:
 94: 0x0547 [0x4A] LocalPlayer looks at Schultz (ID: 17867267/0x0110A203)
 95: 0x0550 [0x6F] WAIT_FRAME_DELAY: Yield until WaitTime reaches zero
 96: 0x0551 [0x76] CHECK_ENTITY_RENDER_FLAGS: Wait until LocalPlayer Render.Flags0 and Render.Flags3 conditions are met
 97: 0x0556 [0x23] WAIT_FOR_DIALOG_INTERACTION
 98: 0x0557 [0x2A] GET_REQ_LEVEL(level=15, entity_id=Schultz (ID: 17867267/0x0110A203))
 99: 0x055D [0x02] IF !(Work_Zone[9] == 5*) GOTO 0x0577
100: 0x0565 [0x52] END_LOAD_SCHEDULER: End scheduler "s079" with entities [EventEntity, EventEntity], work=897*
101: 0x0574 [0x01] GOTO 0x05A0
102: 0x0577 [0x02] IF !(Work_Zone[9] == 6*) GOTO 0x0591
103: 0x057F [0x52] END_LOAD_SCHEDULER: End scheduler "s079" with entities [EventEntity, EventEntity], work=897*
104: 0x058E [0x01] GOTO 0x05A0
105: 0x0591 [0x52] END_LOAD_SCHEDULER: End scheduler "s067" with entities [EventEntity, EventEntity], work=897*

SUBROUTINE_05A0:
106: 0x05A0 [0x45] LOAD_SCHEDULED_TASK: Load scheduler "s066" with entities [EventEntity, EventEntity], work=[897*, 0*]
107: 0x05B1 [0x03] Work_Zone[3] = 3302*
108: 0x05B6 [0x2B] Schultz (ID: 17867267/0x0110A203) [8267*]:
    → "You must be here in regards to the $3..."
109: 0x05BD [0x23] WAIT_FOR_DIALOG_INTERACTION
110: 0x05BE [0x02] IF !(ExtData[1]->WorkLocal[1] == 1*) GOTO 0x0653
111: 0x05C6 [0x7B] Schultz (ID: 17867267/0x0110A203) stops talking
112: 0x05CB [0x29] REQ_SET_WAIT(priority=0x0F, entity_id=Schultz (ID: 17867267/0x0110A203), tag_num=0x03)
113: 0x05D2 [0x2B] Schultz (ID: 17867267/0x0110A203) [8268*]:
    → "Hehehe... I never expected to meet you again in a place like this, <Player>."
114: 0x05D9 [0x23] WAIT_FOR_DIALOG_INTERACTION
115: 0x05DA [0x52] END_LOAD_SCHEDULER: End scheduler "s066" with entities [EventEntity, EventEntity], work=897*
116: 0x05E9 [0x45] LOAD_SCHEDULED_TASK: Load scheduler "s069" with entities [EventEntity, EventEntity], work=[897*, 0*]
117: 0x05FA [0x2B] Schultz (ID: 17867267/0x0110A203) [8269*]:
    → "If my hunch is correct, you have already figured it out."
118: 0x0601 [0x23] WAIT_FOR_DIALOG_INTERACTION
119: 0x0602 [0x29] REQ_SET_WAIT(priority=0x0F, entity_id=Schultz (ID: 17867267/0x0110A203), tag_num=0x04)
120: 0x0609 [0x52] END_LOAD_SCHEDULER: End scheduler "s069" with entities [EventEntity, EventEntity], work=897*
121: 0x0618 [0x45] LOAD_SCHEDULED_TASK: Load scheduler "s068" with entities [EventEntity, EventEntity], work=[897*, 0*]
122: 0x0629 [0x29] REQ_SET_WAIT(priority=0x0F, entity_id=Schultz (ID: 17867267/0x0110A203), tag_num=0x0D)
123: 0x0630 [0x79] Schultz (ID: 17867267/0x0110A203) looks at Unnamed NPC (ID: 17867268/0x0110A204) (Basic look)
124: 0x063A [0x2B] Schultz (ID: 17867267/0x0110A203) [8270*]:
    → "Indeed, I am the one who wrote that book."
125: 0x0641 [0x23] WAIT_FOR_DIALOG_INTERACTION
126: 0x0642 [0x29] REQ_SET_WAIT(priority=0x0F, entity_id=Schultz (ID: 17867267/0x0110A203), tag_num=0x0E)
127: 0x0649 [0x29] REQ_SET_WAIT(priority=0x0F, entity_id=Schultz (ID: 17867267/0x0110A203), tag_num=0x0F)
128: 0x0650 [0x01] GOTO 0x06D4
129: 0x0653 [0x29] REQ_SET_WAIT(priority=0x0F, entity_id=Schultz (ID: 17867267/0x0110A203), tag_num=0x03)
130: 0x065A [0x2B] Schultz (ID: 17867267/0x0110A203) [8271*]:
    → "It is always exciting when I encounter new pieces on the board."
131: 0x0661 [0x23] WAIT_FOR_DIALOG_INTERACTION
132: 0x0662 [0x52] END_LOAD_SCHEDULER: End scheduler "s066" with entities [EventEntity, EventEntity], work=897*
133: 0x0671 [0x45] LOAD_SCHEDULED_TASK: Load scheduler "s078" with entities [EventEntity, EventEntity], work=[897*, 0*]
134: 0x0682 [0x29] REQ_SET_WAIT(priority=0x0F, entity_id=Schultz (ID: 17867267/0x0110A203), tag_num=0x0D)
135: 0x0689 [0x2B] Schultz (ID: 17867267/0x0110A203) [8272*]:
    → "Now then, allow me to introduce myself. My name is Gunther Schultz."
136: 0x0690 [0x23] WAIT_FOR_DIALOG_INTERACTION
137: 0x0691 [0x2B] Schultz (ID: 17867267/0x0110A203) [8273*]:
    → "I am what you would call a military scholar. I study, observe, and occasionally even participate in the unending battles that plague our world."
138: 0x0698 [0x23] WAIT_FOR_DIALOG_INTERACTION
139: 0x0699 [0x29] REQ_SET_WAIT(priority=0x0F, entity_id=Schultz (ID: 17867267/0x0110A203), tag_num=0x0E)
140: 0x06A0 [0x52] END_LOAD_SCHEDULER: End scheduler "s078" with entities [EventEntity, EventEntity], work=897*
141: 0x06AF [0x45] LOAD_SCHEDULED_TASK: Load scheduler "s068" with entities [EventEntity, EventEntity], work=[897*, 0*]
142: 0x06C0 [0x29] REQ_SET_WAIT(priority=0x0F, entity_id=Schultz (ID: 17867267/0x0110A203), tag_num=0x0F)
143: 0x06C7 [0x03] Work_Zone[3] = 3302*
144: 0x06CC [0x2B] Schultz (ID: 17867267/0x0110A203) [8274*]:
    → "It is in that capacity that I wrote the $3 that lies before you."
145: 0x06D3 [0x23] WAIT_FOR_DIALOG_INTERACTION

SUBROUTINE_06D4:
146: 0x06D4 [0x52] END_LOAD_SCHEDULER: End scheduler "s068" with entities [EventEntity, EventEntity], work=897*
147: 0x06E3 [0x45] LOAD_SCHEDULED_TASK: Load scheduler "s071" with entities [EventEntity, EventEntity], work=[897*, 0*]
148: 0x06F4 [0x29] REQ_SET_WAIT(priority=0x0F, entity_id=Schultz (ID: 17867267/0x0110A203), tag_num=0x10)
149: 0x06FB [0x7B] Schultz (ID: 17867267/0x0110A203) stops talking
150: 0x0700 [0x27] REQ_SET(priority=0x0F, entity_id=Schultz (ID: 17867267/0x0110A203), tag_num=0x2B)
151: 0x0707 [0x2B] Schultz (ID: 17867267/0x0110A203) [8275*]:
    → "At its core, the book is essentially a dictionary on demons."
152: 0x070E [0x23] WAIT_FOR_DIALOG_INTERACTION
153: 0x070F [0x2B] Schultz (ID: 17867267/0x0110A203) [8276*]:
    → "You see, I have a long and storied history with demons, and I have heard many tales from their past."
154: 0x0716 [0x1C] WAIT(30* ticks)
155: 0x0719 [0x4A] LocalPlayer looks at Schultz (ID: 17867267/0x0110A203)
156: 0x0722 [0x6F] WAIT_FRAME_DELAY: Yield until WaitTime reaches zero
157: 0x0723 [0x76] CHECK_ENTITY_RENDER_FLAGS: Wait until LocalPlayer Render.Flags0 and Render.Flags3 conditions are met
158: 0x0728 [0x23] WAIT_FOR_DIALOG_INTERACTION
159: 0x0729 [0x2A] GET_REQ_LEVEL(level=15, entity_id=Schultz (ID: 17867267/0x0110A203))
160: 0x072F [0x52] END_LOAD_SCHEDULER: End scheduler "s071" with entities [EventEntity, EventEntity], work=897*
161: 0x073E [0x45] LOAD_SCHEDULED_TASK: Load scheduler "s070" with entities [EventEntity, EventEntity], work=[897*, 0*]
162: 0x074F [0x7B] Schultz (ID: 17867267/0x0110A203) stops talking
163: 0x0754 [0x29] REQ_SET_WAIT(priority=0x0F, entity_id=Schultz (ID: 17867267/0x0110A203), tag_num=0x12)
164: 0x075B [0x2B] Schultz (ID: 17867267/0x0110A203) [8277*]:
    → "One day, I simply decided to organize those myriad stories and thoughts into one comprehensive tome. Their history spans the course of 5,000 years, after all."
165: 0x0762 [0x23] WAIT_FOR_DIALOG_INTERACTION
166: 0x0763 [0x29] REQ_SET_WAIT(priority=0x0F, entity_id=Schultz (ID: 17867267/0x0110A203), tag_num=0x13)
167: 0x076A [0x29] REQ_SET_WAIT(priority=0x0F, entity_id=Schultz (ID: 17867267/0x0110A203), tag_num=0x14)
168: 0x0771 [0x2B] Schultz (ID: 17867267/0x0110A203) [8278*]:
    → "Though a project born from mere intellectual curiosity and likely rife with my own personal opinions, I do feel it is a rather practical book."
169: 0x0778 [0x23] WAIT_FOR_DIALOG_INTERACTION
170: 0x0779 [0x29] REQ_SET_WAIT(priority=0x0F, entity_id=Schultz (ID: 17867267/0x0110A203), tag_num=0x15)
171: 0x0780 [0x52] END_LOAD_SCHEDULER: End scheduler "s070" with entities [EventEntity, EventEntity], work=897*
172: 0x078F [0x02] IF !(Work_Zone[9] == 3*) GOTO 0x07AB
173: 0x0797 [0x45] LOAD_SCHEDULED_TASK: Load scheduler "s072" with entities [EventEntity, EventEntity], work=[897*, 0*]
174: 0x07A8 [0x01] GOTO 0x0810
175: 0x07AB [0x02] IF !(Work_Zone[9] == 5*) GOTO 0x07C7
176: 0x07B3 [0x45] LOAD_SCHEDULED_TASK: Load scheduler "s080" with entities [EventEntity, EventEntity], work=[897*, 0*]
177: 0x07C4 [0x01] GOTO 0x0810
178: 0x07C7 [0x02] IF !(Work_Zone[9] == 6*) GOTO 0x07E3
179: 0x07CF [0x45] LOAD_SCHEDULED_TASK: Load scheduler "s080" with entities [EventEntity, EventEntity], work=[897*, 0*]
180: 0x07E0 [0x01] GOTO 0x0810
181: 0x07E3 [0x02] IF !(Work_Zone[9] == 8*) GOTO 0x07FF
182: 0x07EB [0x45] LOAD_SCHEDULED_TASK: Load scheduler "s072" with entities [EventEntity, EventEntity], work=[897*, 0*]
183: 0x07FC [0x01] GOTO 0x0810
184: 0x07FF [0x45] LOAD_SCHEDULED_TASK: Load scheduler "s082" with entities [EventEntity, EventEntity], work=[897*, 0*]

SUBROUTINE_0810:
185: 0x0810 [0x4A] Schultz (ID: 17867267/0x0110A203) looks at LocalPlayer
186: 0x0819 [0x2B] Schultz (ID: 17867267/0x0110A203) [8279*]:
    → "Although, the demons themselves did seem somewhat bitter about its existence."
187: 0x0820 [0x23] WAIT_FOR_DIALOG_INTERACTION
188: 0x0821 [0x6F] WAIT_FRAME_DELAY: Yield until WaitTime reaches zero
189: 0x0822 [0x76] CHECK_ENTITY_RENDER_FLAGS: Wait until Schultz (ID: 17867267/0x0110A203) Render.Flags0 and Render.Flags3 conditions are met
190: 0x0827 [0x29] REQ_SET_WAIT(priority=0x0F, entity_id=Schultz (ID: 17867267/0x0110A203), tag_num=0x03)
191: 0x082E [0x2B] Schultz (ID: 17867267/0x0110A203) [8280*]:
    → "I suppose that is because there are many things in there that they would prefer not be widely known."
192: 0x0835 [0x23] WAIT_FOR_DIALOG_INTERACTION
193: 0x0836 [0x29] REQ_SET_WAIT(priority=0x0F, entity_id=Schultz (ID: 17867267/0x0110A203), tag_num=0x04)
194: 0x083D [0x5D] SET_MUSIC_VOLUME(volume=30*, fade_time=300*)
195: 0x0842 [0x1A] CALL_SUBROUTINE(address=0x0064)
196: 0x0845 [0x02] IF !(Work_Zone[9] == 3*) GOTO 0x085F
197: 0x084D [0x52] END_LOAD_SCHEDULER: End scheduler "s072" with entities [EventEntity, EventEntity], work=897*
198: 0x085C [0x01] GOTO 0x08BC
199: 0x085F [0x02] IF !(Work_Zone[9] == 5*) GOTO 0x0879
200: 0x0867 [0x52] END_LOAD_SCHEDULER: End scheduler "s080" with entities [EventEntity, EventEntity], work=897*
201: 0x0876 [0x01] GOTO 0x08BC
202: 0x0879 [0x02] IF !(Work_Zone[9] == 6*) GOTO 0x0893
203: 0x0881 [0x52] END_LOAD_SCHEDULER: End scheduler "s080" with entities [EventEntity, EventEntity], work=897*
204: 0x0890 [0x01] GOTO 0x08BC
205: 0x0893 [0x02] IF !(Work_Zone[9] == 8*) GOTO 0x08AD
206: 0x089B [0x52] END_LOAD_SCHEDULER: End scheduler "s072" with entities [EventEntity, EventEntity], work=897*
207: 0x08AA [0x01] GOTO 0x08BC
208: 0x08AD [0x52] END_LOAD_SCHEDULER: End scheduler "s082" with entities [EventEntity, EventEntity], work=897*

SUBROUTINE_08BC:
209: 0x08BC [0x69] SET_SOUND_VOLUME: Mute System/Master/SpecialChat
210: 0x08C0 [0x59] UPDATE_ENTITY_DATA: Unnamed NPC (ID: 17867268/0x0110A204)->Render.Flags0 |= 0x200000
211: 0x08C7 [0xBA] SET_ENTITY_POSITION(entity_id=Unnamed NPC (ID: 17867268/0x0110A204), pos_x=61.710*, pos_z=-101.719*, pos_y=10.000*, direction=232.2°*)
212: 0x08D4 [0x1C] WAIT(1* ticks)
213: 0x08D7 [0xD8] SET_ENTITY_EVENT_DIR: Set Unnamed NPC (ID: 17867268/0x0110A204) EventDir[0] = 900*
214: 0x08DF [0xC5] LOAD_SCHEDULED_TASK_ALT3: Load scheduler 0x80013030 for entities [Unnamed NPC (ID: 17867268/0x0110A204), Unnamed NPC (ID: 17867268/0x0110A204)], work=213*, param=12403
215: 0x08F0 [0x45] LOAD_SCHEDULED_TASK: Load scheduler "s074" with entities [EventEntity, EventEntity], work=[897*, 0*]
216: 0x0901 [0x29] REQ_SET_WAIT(priority=0x0F, entity_id=Schultz (ID: 17867267/0x0110A203), tag_num=0x0D)
217: 0x0908 [0x1A] CALL_SUBROUTINE(address=0x0043)
218: 0x090B [0x2B] Schultz (ID: 17867267/0x0110A203) [8281*]:
    → "As such, they cast various spells on the book that bring misfortune upon any who read its pages."
219: 0x0912 [0x23] WAIT_FOR_DIALOG_INTERACTION
220: 0x0913 [0x62] LOAD_EVENT_SCHEDULER: Load scheduler "main" with entities [Unnamed NPC (ID: 17867268/0x0110A204), Unnamed NPC (ID: 17867268/0x0110A204)], work=[48*, 0*]
221: 0x0924 [0x2B] Schultz (ID: 17867267/0x0110A203) [8282*]:
    → "However, there is no stopping mankind's natural curiosity."
222: 0x092B [0x23] WAIT_FOR_DIALOG_INTERACTION
223: 0x092C [0x29] REQ_SET_WAIT(priority=0x0F, entity_id=Schultz (ID: 17867267/0x0110A203), tag_num=0x0E)
224: 0x0933 [0x29] REQ_SET_WAIT(priority=0x0F, entity_id=Schultz (ID: 17867267/0x0110A203), tag_num=0x0F)
225: 0x093A [0x2B] Schultz (ID: 17867267/0x0110A203) [8283*]:
    → "And so, it has become an endless cycle of us defusing their magic, and them casting new spells..."
226: 0x0941 [0x23] WAIT_FOR_DIALOG_INTERACTION
227: 0x0942 [0x29] REQ_SET_WAIT(priority=0x0F, entity_id=Schultz (ID: 17867267/0x0110A203), tag_num=0x10)
228: 0x0949 [0xCD] LOAD_SCHEDULED_TASK_ALT4: Load scheduler "s000" with entities [Unnamed NPC (ID: 17867268/0x0110A204), Unnamed NPC (ID: 17867268/0x0110A204)], work=[167*, 0*]
229: 0x095A [0x2B] Schultz (ID: 17867267/0x0110A203) [8284*]:
    → "Eventually, something changed and what seemed to be a form of consciousness sprouted within the book's pages, causing me to lose my way."
230: 0x0961 [0x23] WAIT_FOR_DIALOG_INTERACTION
231: 0x0962 [0x1A] CALL_SUBROUTINE(address=0x0064)
232: 0x0965 [0x62] LOAD_EVENT_SCHEDULER: Load scheduler "send" with entities [Unnamed NPC (ID: 17867268/0x0110A204), Unnamed NPC (ID: 17867268/0x0110A204)], work=[48*, 0*]
233: 0x0976 [0x52] END_LOAD_SCHEDULER: End scheduler "s074" with entities [EventEntity, EventEntity], work=897*
234: 0x0985 [0xC5] LOAD_SCHEDULED_TASK_ALT3: Load scheduler 0x8001306C for entities [Unnamed NPC (ID: 17867268/0x0110A204), Unnamed NPC (ID: 17867268/0x0110A204)], work=213*, param=26987
235: 0x0996 [0xCD] LOAD_SCHEDULED_TASK_ALT4: Load scheduler "klla" with entities [Unnamed NPC (ID: 17867268/0x0110A204), Unnamed NPC (ID: 17867268/0x0110A204)], work=[167*, 0*]
236: 0x09A7 [0x59] UPDATE_ENTITY_DATA: Unnamed NPC (ID: 17867268/0x0110A204)->Render.Flags0 &= ~0x200000
237: 0x09AE [0xBA] SET_ENTITY_POSITION(entity_id=Unnamed NPC (ID: 17867268/0x0110A204), pos_x=61.710*, pos_z=-101.719*, pos_y=21.238*, direction=232.2°*)
238: 0x09BB [0x6B] STOP_AND_IDLE: Unnamed NPC (ID: 17867268/0x0110A204) stops current action and resets to idle (animation="dft0")
239: 0x09C4 [0xD8] SET_ENTITY_EVENT_DIR: Copy Unnamed NPC (ID: 17867268/0x0110A204) LastPosition to EventDir
240: 0x09CA [0x69] SET_SOUND_VOLUME: Unmute System/Master/SpecialChat
241: 0x09CE [0x5D] SET_MUSIC_VOLUME(volume=127*, fade_time=300*)
242: 0x09D3 [0x45] LOAD_SCHEDULED_TASK: Load scheduler "s073" with entities [EventEntity, EventEntity], work=[897*, 0*]
243: 0x09E4 [0x1A] CALL_SUBROUTINE(address=0x0043)
244: 0x09E7 [0x02] IF !(ExtData[1]->WorkLocal[1] == 1*) GOTO 0x0A17
245: 0x09EF [0x29] REQ_SET_WAIT(priority=0x0F, entity_id=Schultz (ID: 17867267/0x0110A203), tag_num=0x03)
246: 0x09F6 [0x2B] Schultz (ID: 17867267/0x0110A203) [8285*]:
    → "Hehehe... I sensed something about the book's power and raced here, only to find you as well."
247: 0x09FD [0x23] WAIT_FOR_DIALOG_INTERACTION
248: 0x09FE [0x29] REQ_SET_WAIT(priority=0x0F, entity_id=Schultz (ID: 17867267/0x0110A203), tag_num=0x04)
249: 0x0A05 [0x52] END_LOAD_SCHEDULER: End scheduler "s073" with entities [EventEntity, EventEntity], work=897*
250: 0x0A14 [0x01] GOTO 0x0BA6
251: 0x0A17 [0x7B] Schultz (ID: 17867267/0x0110A203) stops talking
252: 0x0A1C [0x29] REQ_SET_WAIT(priority=0x0F, entity_id=Schultz (ID: 17867267/0x0110A203), tag_num=0x12)
253: 0x0A23 [0x2B] Schultz (ID: 17867267/0x0110A203) [8286*]:
    → "Hehehe... It seems the book's magic has somehow brought us here together."
254: 0x0A2A [0x23] WAIT_FOR_DIALOG_INTERACTION
255: 0x0A2B [0x29] REQ_SET_WAIT(priority=0x0F, entity_id=Schultz (ID: 17867267/0x0110A203), tag_num=0x13)
256: 0x0A32 [0x52] END_LOAD_SCHEDULER: End scheduler "s073" with entities [EventEntity, EventEntity], work=897*
257: 0x0A41 [0x02] IF !(Work_Zone[9] == 5*) GOTO 0x0A5D
258: 0x0A49 [0x45] LOAD_SCHEDULED_TASK: Load scheduler "s081" with entities [EventEntity, EventEntity], work=[897*, 0*]
259: 0x0A5A [0x01] GOTO 0x0A8A
260: 0x0A5D [0x02] IF !(Work_Zone[9] == 6*) GOTO 0x0A79
261: 0x0A65 [0x45] LOAD_SCHEDULED_TASK: Load scheduler "s081" with entities [EventEntity, EventEntity], work=[897*, 0*]
262: 0x0A76 [0x01] GOTO 0x0A8A
263: 0x0A79 [0x45] LOAD_SCHEDULED_TASK: Load scheduler "s075" with entities [EventEntity, EventEntity], work=[897*, 0*]

SUBROUTINE_0A8A:
264: 0x0A8A [0x29] REQ_SET_WAIT(priority=0x0F, entity_id=Schultz (ID: 17867267/0x0110A203), tag_num=0x14)
265: 0x0A91 [0x2B] Schultz (ID: 17867267/0x0110A203) [8287*]:
    → "I have heard about you from one of my demon acquaintances. You are <Player>, right?"
266: 0x0A98 [0x23] WAIT_FOR_DIALOG_INTERACTION
267: 0x0A99 [0x29] REQ_SET_WAIT(priority=0x0F, entity_id=Schultz (ID: 17867267/0x0110A203), tag_num=0x15)
268: 0x0AA0 [0x24] CREATE_DIALOG(message_id=8288*, default_option=0*, option_flags=0*)
    → "Are you <Player>? [That's me./Who's that?]"
269: 0x0AA7 [0x25] WAIT_DIALOG_SELECT()
270: 0x0AA8 [0x02] IF !(Work_Zone[0] == 0*) GOTO 0x0B05
271: 0x0AB0 [0x6E] LocalPlayer uses emote 7*
272: 0x0AB7 [0x99] Wait for LocalPlayer animation to complete
273: 0x0ABC [0x1C] WAIT(90* ticks)
274: 0x0ABF [0x02] IF !(Work_Zone[9] == 5*) GOTO 0x0AD9
275: 0x0AC7 [0x52] END_LOAD_SCHEDULER: End scheduler "s081" with entities [EventEntity, EventEntity], work=897*
276: 0x0AD6 [0x01] GOTO 0x0B02
277: 0x0AD9 [0x02] IF !(Work_Zone[9] == 6*) GOTO 0x0AF3
278: 0x0AE1 [0x52] END_LOAD_SCHEDULER: End scheduler "s081" with entities [EventEntity, EventEntity], work=897*
279: 0x0AF0 [0x01] GOTO 0x0B02
280: 0x0AF3 [0x52] END_LOAD_SCHEDULER: End scheduler "s075" with entities [EventEntity, EventEntity], work=897*

SUBROUTINE_0B02:
281: 0x0B02 [0x01] GOTO 0x0BA6
282: 0x0B05 [0x02] IF !(Work_Zone[0] == 1*) GOTO 0x0BA6
283: 0x0B0D [0x6E] LocalPlayer uses emote 6*
284: 0x0B14 [0x99] Wait for LocalPlayer animation to complete
285: 0x0B19 [0x1C] WAIT(90* ticks)
286: 0x0B1C [0x02] IF !(Work_Zone[9] == 5*) GOTO 0x0B36
287: 0x0B24 [0x52] END_LOAD_SCHEDULER: End scheduler "s081" with entities [EventEntity, EventEntity], work=897*
288: 0x0B33 [0x01] GOTO 0x0B5F
289: 0x0B36 [0x02] IF !(Work_Zone[9] == 6*) GOTO 0x0B50
290: 0x0B3E [0x52] END_LOAD_SCHEDULER: End scheduler "s081" with entities [EventEntity, EventEntity], work=897*
291: 0x0B4D [0x01] GOTO 0x0B5F
292: 0x0B50 [0x52] END_LOAD_SCHEDULER: End scheduler "s075" with entities [EventEntity, EventEntity], work=897*

SUBROUTINE_0B5F:
293: 0x0B5F [0x45] LOAD_SCHEDULED_TASK: Load scheduler "s073" with entities [EventEntity, EventEntity], work=[897*, 0*]
294: 0x0B70 [0x29] REQ_SET_WAIT(priority=0x0F, entity_id=Schultz (ID: 17867267/0x0110A203), tag_num=0x1A)
295: 0x0B77 [0x2B] Schultz (ID: 17867267/0x0110A203) [8289*]:
    → "I can see you are the cautious sort. You must be quite determined if you wish to try and deceive me."
296: 0x0B7E [0x23] WAIT_FOR_DIALOG_INTERACTION
297: 0x0B7F [0x29] REQ_SET_WAIT(priority=0x0F, entity_id=Schultz (ID: 17867267/0x0110A203), tag_num=0x1B)
298: 0x0B86 [0x29] REQ_SET_WAIT(priority=0x0F, entity_id=Schultz (ID: 17867267/0x0110A203), tag_num=0x1C)
299: 0x0B8D [0x29] REQ_SET_WAIT(priority=0x0F, entity_id=Schultz (ID: 17867267/0x0110A203), tag_num=0x1D)
300: 0x0B94 [0x52] END_LOAD_SCHEDULER: End scheduler "s073" with entities [EventEntity, EventEntity], work=897*
301: 0x0BA3 [0x01] GOTO 0x0BA6

SUBROUTINE_0BA6:
302: 0x0BA6 [0x02] IF !(Work_Zone[9] == 3*) GOTO 0x0BC2
303: 0x0BAE [0x45] LOAD_SCHEDULED_TASK: Load scheduler "s072" with entities [EventEntity, EventEntity], work=[897*, 0*]
304: 0x0BBF [0x01] GOTO 0x0C27
305: 0x0BC2 [0x02] IF !(Work_Zone[9] == 5*) GOTO 0x0BDE
306: 0x0BCA [0x45] LOAD_SCHEDULED_TASK: Load scheduler "s080" with entities [EventEntity, EventEntity], work=[897*, 0*]
307: 0x0BDB [0x01] GOTO 0x0C27
308: 0x0BDE [0x02] IF !(Work_Zone[9] == 6*) GOTO 0x0BFA
309: 0x0BE6 [0x45] LOAD_SCHEDULED_TASK: Load scheduler "s080" with entities [EventEntity, EventEntity], work=[897*, 0*]
310: 0x0BF7 [0x01] GOTO 0x0C27
311: 0x0BFA [0x02] IF !(Work_Zone[9] == 8*) GOTO 0x0C16
312: 0x0C02 [0x45] LOAD_SCHEDULED_TASK: Load scheduler "s072" with entities [EventEntity, EventEntity], work=[897*, 0*]
313: 0x0C13 [0x01] GOTO 0x0C27
314: 0x0C16 [0x45] LOAD_SCHEDULED_TASK: Load scheduler "s082" with entities [EventEntity, EventEntity], work=[897*, 0*]

SUBROUTINE_0C27:
315: 0x0C27 [0x29] REQ_SET_WAIT(priority=0x0F, entity_id=Schultz (ID: 17867267/0x0110A203), tag_num=0x16)
316: 0x0C2E [0x2B] Schultz (ID: 17867267/0x0110A203) [8290*]:
    → "I hear you have found yourself caught up in the efforts to resolve the chaos surrounding the demons' home of Valhalla?"
317: 0x0C35 [0x23] WAIT_FOR_DIALOG_INTERACTION
318: 0x0C36 [0x2B] Schultz (ID: 17867267/0x0110A203) [8291*]:
    → "I find your skills and general ability to be quite fascinating."
319: 0x0C3D [0x23] WAIT_FOR_DIALOG_INTERACTION
320: 0x0C3E [0x29] REQ_SET_WAIT(priority=0x0F, entity_id=Schultz (ID: 17867267/0x0110A203), tag_num=0x17)
321: 0x0C45 [0x29] REQ_SET_WAIT(priority=0x0F, entity_id=Schultz (ID: 17867267/0x0110A203), tag_num=0x18)
322: 0x0C4C [0x29] REQ_SET_WAIT(priority=0x0F, entity_id=Schultz (ID: 17867267/0x0110A203), tag_num=0x19)
323: 0x0C53 [0x02] IF !(Work_Zone[9] == 3*) GOTO 0x0C6D
324: 0x0C5B [0x52] END_LOAD_SCHEDULER: End scheduler "s072" with entities [EventEntity, EventEntity], work=897*
325: 0x0C6A [0x01] GOTO 0x0CCA
326: 0x0C6D [0x02] IF !(Work_Zone[9] == 5*) GOTO 0x0C87
327: 0x0C75 [0x52] END_LOAD_SCHEDULER: End scheduler "s080" with entities [EventEntity, EventEntity], work=897*
328: 0x0C84 [0x01] GOTO 0x0CCA
329: 0x0C87 [0x02] IF !(Work_Zone[9] == 6*) GOTO 0x0CA1
330: 0x0C8F [0x52] END_LOAD_SCHEDULER: End scheduler "s080" with entities [EventEntity, EventEntity], work=897*
331: 0x0C9E [0x01] GOTO 0x0CCA
332: 0x0CA1 [0x02] IF !(Work_Zone[9] == 8*) GOTO 0x0CBB
333: 0x0CA9 [0x52] END_LOAD_SCHEDULER: End scheduler "s072" with entities [EventEntity, EventEntity], work=897*
334: 0x0CB8 [0x01] GOTO 0x0CCA
335: 0x0CBB [0x52] END_LOAD_SCHEDULER: End scheduler "s082" with entities [EventEntity, EventEntity], work=897*

SUBROUTINE_0CCA:
336: 0x0CCA [0x02] IF !(Work_Zone[9] == 5*) GOTO 0x0CE6
337: 0x0CD2 [0x45] LOAD_SCHEDULED_TASK: Load scheduler "s081" with entities [EventEntity, EventEntity], work=[897*, 0*]
338: 0x0CE3 [0x01] GOTO 0x0D13
339: 0x0CE6 [0x02] IF !(Work_Zone[9] == 6*) GOTO 0x0D02
340: 0x0CEE [0x45] LOAD_SCHEDULED_TASK: Load scheduler "s081" with entities [EventEntity, EventEntity], work=[897*, 0*]
341: 0x0CFF [0x01] GOTO 0x0D13
342: 0x0D02 [0x45] LOAD_SCHEDULED_TASK: Load scheduler "s075" with entities [EventEntity, EventEntity], work=[897*, 0*]

SUBROUTINE_0D13:
343: 0x0D13 [0x7B] Schultz (ID: 17867267/0x0110A203) stops talking
344: 0x0D18 [0x4B] UPDATE_ENTITY_YAW(entity=Schultz (ID: 17867267/0x0110A203), yaw=357.3°*)
345: 0x0D1F [0x6F] WAIT_FRAME_DELAY: Yield until WaitTime reaches zero
346: 0x0D20 [0x76] CHECK_ENTITY_RENDER_FLAGS: Wait until Schultz (ID: 17867267/0x0110A203) Render.Flags0 and Render.Flags3 conditions are met
347: 0x0D25 [0x2B] Schultz (ID: 17867267/0x0110A203) [8292*]:
    → "In fact, with your luck, I believe it might be possible to bring an end to this chaos with a minimal number of moves."
348: 0x0D2C [0x23] WAIT_FOR_DIALOG_INTERACTION
349: 0x0D2D [0x2B] Schultz (ID: 17867267/0x0110A203) [8293*]:
    → "As we have been forced to suspend our efforts in Valhalla, we are looking forward to what actions you can take as an outsider."
350: 0x0D34 [0x23] WAIT_FOR_DIALOG_INTERACTION
351: 0x0D35 [0x02] IF !(Work_Zone[9] == 5*) GOTO 0x0D4F
352: 0x0D3D [0x52] END_LOAD_SCHEDULER: End scheduler "s081" with entities [EventEntity, EventEntity], work=897*
353: 0x0D4C [0x01] GOTO 0x0D78
354: 0x0D4F [0x02] IF !(Work_Zone[9] == 6*) GOTO 0x0D69
355: 0x0D57 [0x52] END_LOAD_SCHEDULER: End scheduler "s081" with entities [EventEntity, EventEntity], work=897*
356: 0x0D66 [0x01] GOTO 0x0D78
357: 0x0D69 [0x52] END_LOAD_SCHEDULER: End scheduler "s075" with entities [EventEntity, EventEntity], work=897*

SUBROUTINE_0D78:
358: 0x0D78 [0x45] LOAD_SCHEDULED_TASK: Load scheduler "s071" with entities [EventEntity, EventEntity], work=[897*, 0*]
359: 0x0D89 [0x4A] Schultz (ID: 17867267/0x0110A203) looks at Unnamed NPC (ID: 17867268/0x0110A204)
360: 0x0D92 [0x6F] WAIT_FRAME_DELAY: Yield until WaitTime reaches zero
361: 0x0D93 [0x76] CHECK_ENTITY_RENDER_FLAGS: Wait until Schultz (ID: 17867267/0x0110A203) Render.Flags0 and Render.Flags3 conditions are met
362: 0x0D98 [0x79] LocalPlayer looks at Unnamed NPC (ID: 17867268/0x0110A204) (Basic look)
363: 0x0DA2 [0x29] REQ_SET_WAIT(priority=0x0F, entity_id=Schultz (ID: 17867267/0x0110A203), tag_num=0x25)
364: 0x0DA9 [0x03] Work_Zone[3] = 3302*
365: 0x0DAE [0x2B] Schultz (ID: 17867267/0x0110A203) [8294*]:
    → "As such, I shall let you take the $3. Whether you read it yourself or not is up to you."
366: 0x0DB5 [0x23] WAIT_FOR_DIALOG_INTERACTION
367: 0x0DB6 [0x29] REQ_SET_WAIT(priority=0x0F, entity_id=Schultz (ID: 17867267/0x0110A203), tag_num=0x26)
368: 0x0DBD [0x79] Schultz (ID: 17867267/0x0110A203) looks at LocalPlayer (Basic look)
369: 0x0DC7 [0x52] END_LOAD_SCHEDULER: End scheduler "s071" with entities [EventEntity, EventEntity], work=897*
370: 0x0DD6 [0x45] LOAD_SCHEDULED_TASK: Load scheduler "s076" with entities [EventEntity, EventEntity], work=[897*, 0*]
371: 0x0DE7 [0x29] REQ_SET_WAIT(priority=0x0F, entity_id=Schultz (ID: 17867267/0x0110A203), tag_num=0x27)
372: 0x0DEE [0x29] REQ_SET_WAIT(priority=0x0F, entity_id=Schultz (ID: 17867267/0x0110A203), tag_num=0x28)
373: 0x0DF5 [0x4A] Schultz (ID: 17867267/0x0110A203) looks at LocalPlayer
374: 0x0DFE [0x6F] WAIT_FRAME_DELAY: Yield until WaitTime reaches zero
375: 0x0DFF [0x76] CHECK_ENTITY_RENDER_FLAGS: Wait until Schultz (ID: 17867267/0x0110A203) Render.Flags0 and Render.Flags3 conditions are met
376: 0x0E04 [0x79] LocalPlayer looks at Schultz (ID: 17867267/0x0110A203) (Basic look)
377: 0x0E0E [0x2B] Schultz (ID: 17867267/0x0110A203) [8295*]:
    → "I plan to watch things from afar. It is said that the best course of action is to unite the country--and if that fails, to at least ensure its destruction."
378: 0x0E15 [0x23] WAIT_FOR_DIALOG_INTERACTION
379: 0x0E16 [0x02] IF !(ExtData[1]->WorkLocal[1] == 1*) GOTO 0x0E37
380: 0x0E1E [0x29] REQ_SET_WAIT(priority=0x0F, entity_id=Schultz (ID: 17867267/0x0110A203), tag_num=0x1F)
381: 0x0E25 [0x2B] Schultz (ID: 17867267/0x0110A203) [8296*]:
    → "Now then, I shall take my leave. I look forward to our next encounter."
382: 0x0E2C [0x23] WAIT_FOR_DIALOG_INTERACTION
383: 0x0E2D [0x29] REQ_SET_WAIT(priority=0x0F, entity_id=Schultz (ID: 17867267/0x0110A203), tag_num=0x20)
384: 0x0E34 [0x01] GOTO 0x0E4D
385: 0x0E37 [0x29] REQ_SET_WAIT(priority=0x0F, entity_id=Schultz (ID: 17867267/0x0110A203), tag_num=0x1F)
386: 0x0E3E [0x2B] Schultz (ID: 17867267/0x0110A203) [8297*]:
    → "If you ever require another lesson in the art of war, feel free to call upon me as your teacher."
387: 0x0E45 [0x23] WAIT_FOR_DIALOG_INTERACTION
388: 0x0E46 [0x29] REQ_SET_WAIT(priority=0x0F, entity_id=Schultz (ID: 17867267/0x0110A203), tag_num=0x20)

SUBROUTINE_0E4D:
389: 0x0E4D [0x52] END_LOAD_SCHEDULER: End scheduler "s076" with entities [EventEntity, EventEntity], work=897*
390: 0x0E5C [0x45] LOAD_SCHEDULED_TASK: Load scheduler "s077" with entities [EventEntity, EventEntity], work=[897*, 0*]
391: 0x0E6D [0x7B] Schultz (ID: 17867267/0x0110A203) stops talking
392: 0x0E72 [0x27] REQ_SET(priority=0x0F, entity_id=Schultz (ID: 17867267/0x0110A203), tag_num=0x2C)
393: 0x0E79 [0x1C] WAIT(60* ticks)
394: 0x0E7C [0x4A] LocalPlayer looks at Schultz (ID: 17867267/0x0110A203)
395: 0x0E85 [0x6F] WAIT_FRAME_DELAY: Yield until WaitTime reaches zero
396: 0x0E86 [0x76] CHECK_ENTITY_RENDER_FLAGS: Wait until LocalPlayer Render.Flags0 and Render.Flags3 conditions are met
397: 0x0E8B [0x1C] WAIT(60* ticks)
398: 0x0E8E [0x5D] SET_MUSIC_VOLUME(volume=0*, fade_time=300*)
399: 0x0E93 [0x1A] CALL_SUBROUTINE(address=0x0064)
400: 0x0E96 [0x52] END_LOAD_SCHEDULER: End scheduler "s077" with entities [EventEntity, EventEntity], work=897*
401: 0x0EA5 [0x1C] WAIT(15* ticks)
402: 0x0EA8 [0x5C] MUSIC_CONTROL: Set Idle (Day) music to song 60*
403: 0x0EAC [0x5C] MUSIC_CONTROL: Set Idle (Night) music to song 60*
404: 0x0EB0 [0x5C] MUSIC_CONTROL: Set Combat (Solo) music to song 57*
405: 0x0EB4 [0x5C] MUSIC_CONTROL: Set Combat (Party) music to song 57*
406: 0x0EB8 [0x9A] WAIT_MUSIC_SERVER()
407: 0x0EB9 [0x5D] SET_MUSIC_VOLUME(volume=127*, fade_time=1*)
408: 0x0EBE [0xAB] EventEntity->DespawnValue = 0* // Set despawn value
409: 0x0EC2 [0x1C] WAIT(1* ticks)
410: 0x0EC5 [0x46] CAMERA_CONTROL: Restore default settings
411: 0x0EC7 [0x45] LOAD_SCHEDULED_TASK: Load scheduler "fdi2" with entities [EventEntity, EventEntity], work=[200*, 0*]
412: 0x0ED8 [0x21] END_EVENT
413: 0x0ED9 [0x00] END_REQSTACK()
```
