# 17867176 - DIRECTOR by yaeko

## Common Data

| Field            | Value                    |
|------------------|--------------------------|
| Zone             | Marjami Ravine (ID: 266) |
| Block Size       | 4088 bytes               |
| Total Events     | 3                        |
| References Count | 61                       |

## List of Events

| Event ID              | Entrypoint   |   Size |   Instructions |
|-----------------------|--------------|--------|----------------|
| [65535](#event-65535) | 0x0000       |      1 |              1 |
| [7](#event-7)         | 0x0001       |   1869 |            220 |
| [51](#event-51)       | 0x074E       |   1943 |            246 |

## DAT References (imed_data)

|   Index | Hex Value   |   Dec Value |
|---------|-------------|-------------|
|       0 | 0x00C8      |         200 |
|       1 | 0x0000      |           0 |
|       2 | 0x0013      |          19 |
|       3 | 0x0064      |         100 |
|       4 | 0x00A3      |         163 |
|       5 | 0x007F      |         127 |
|       6 | 0x0001      |           1 |
|       7 | 0x0295      |         661 |
|       8 | 0x005A      |          90 |
|       9 | 0x1E49      |        7753 |
|      10 | 0x001E      |          30 |
|      11 | 0x1E4A      |        7754 |
|      12 | 0x003C      |          60 |
|      13 | 0x1E4B      |        7755 |
|      14 | 0x1E4C      |        7756 |
|      15 | 0x1E4D      |        7757 |
|      16 | 0x1E4E      |        7758 |
|      17 | 0x1E4F      |        7759 |
|      18 | 0x1E50      |        7760 |
|      19 | 0x1E51      |        7761 |
|      20 | 0x0078      |         120 |
|      21 | 0x0028      |          40 |
|      22 | 0x1E52      |        7762 |
|      23 | 0x1E53      |        7763 |
|      24 | 0x1E54      |        7764 |
|      25 | 0x1E55      |        7765 |
|      26 | 0x1E56      |        7766 |
|      27 | 0x1E57      |        7767 |
|      28 | 0x1E58      |        7768 |
|      29 | 0x0005      |           5 |
|      30 | 0x0006      |           6 |
|      31 | 0x1E59      |        7769 |
|      32 | 0x1E5A      |        7770 |
|      33 | 0x00C9      |         201 |
|      34 | 0x0002      |           2 |
|      35 | 0x029B      |         667 |
|      36 | 0x1E6D      |        7789 |
|      37 | 0x1E6E      |        7790 |
|      38 | 0x1E6F      |        7791 |
|      39 | 0x1E70      |        7792 |
|      40 | 0x1E71      |        7793 |
|      41 | 0x0032      |          50 |
|      42 | 0x1E72      |        7794 |
|      43 | 0x1E73      |        7795 |
|      44 | 0x1E74      |        7796 |
|      45 | 0x1E75      |        7797 |
|      46 | 0x0014      |          20 |
|      47 | 0x1E76      |        7798 |
|      48 | 0x1E77      |        7799 |
|      49 | 0x1E78      |        7800 |
|      50 | 0x1E79      |        7801 |
|      51 | 0x1E7A      |        7802 |
|      52 | 0x1E7B      |        7803 |
|      53 | 0x1E7C      |        7804 |
|      54 | 0x1E7D      |        7805 |
|      55 | 0x1E7E      |        7806 |
|      56 | 0x1E7F      |        7807 |
|      57 | 0x00BE      |         190 |
|      58 | 0x1E80      |        7808 |
|      59 | 0x1E81      |        7809 |
|      60 | 0x1E82      |        7810 |

## Events

### Event 65535

#### Metadata

| Field        | Value   |
|--------------|---------|
| Entrypoint   | 0x0000  |
| Data Size    | 1 bytes |
| Instructions | 1       |

```
      00 01 02 03 04 05 06 07  08 09 0A 0B 0C 0D 0E 0F
      -- -- -- -- -- -- -- --  -- -- -- -- -- -- -- --
0000: 00                                                .               
```

#### Opcodes

```
  0: 0x0000 [0x00] END_REQSTACK()
```

### Event 7

#### Metadata

| Field        | Value      |
|--------------|------------|
| Entrypoint   | 0x0001     |
| Data Size    | 1869 bytes |
| Instructions | 220        |

```
      00 01 02 03 04 05 06 07  08 09 0A 0B 0C 0D 0E 0F
      -- -- -- -- -- -- -- --  -- -- -- -- -- -- -- --
0000:    42 46 01 45 00 80 F0  FF FF 7F F0 FF FF 7F 66   BF.E..........f
0010: 64 6F 31 01 80 55 00 80  F0 FF FF 7F F0 FF FF 7F  do1..U..........
0020: 66 64 6F 31 38 02 80 5D  01 80 03 80 29 08 A9 A1  fdo18..]....)...
0030: 10 01 22 29 08 F0 FF FF  7F 12 80 A9 A1 10 01 92  ..")............
0040: 01 A9 A1 10 01 29 08 F0  FF FF 7F 0F 79 00 A9 A1  .....)......y...
0050: 10 01 F0 FF FF 7F 29 08  A9 A1 10 01 0E 5C 00 04  ......)......\..
0060: 80 5C 01 04 80 9A 5D 05  80 06 80 45 07 80 F0 FF  .\....]....E....
0070: FF 7F F0 FF FF 7F 73 31  35 30 01 80 45 00 80 F0  ......s150..E...
0080: FF FF 7F F0 FF FF 7F 66  64 69 31 01 80 55 00 80  .......fdi1..U..
0090: F0 FF FF 7F F0 FF FF 7F  66 64 69 31 29 08 AF A1  ........fdi1)...
00A0: 10 01 02 79 00 F0 FF FF  7F AF A1 10 01 1C 08 80  ...y............
00B0: 29 08 AF A1 10 01 03 79  00 F0 FF FF 7F AF A1 10  )......y........
00C0: 01 1C 08 80 2B A9 A1 10  01 09 80 1C 0A 80 4A F0  ....+.........J.
00D0: FF FF 7F A9 A1 10 01 6F  76 F0 FF FF 7F 27 08 F0  .......ov....'..
00E0: FF FF 7F 13 1C 08 80 52  07 80 F0 FF FF 7F F0 FF  .......R........
00F0: FF 7F 73 31 35 30 45 07  80 F0 FF FF 7F F0 FF FF  ..s150E.........
0100: 7F 73 31 35 31 01 80 1C  08 80 2A 08 F0 FF FF 7F  .s151.....*.....
0110: 52 07 80 F0 FF FF 7F F0  FF FF 7F 73 31 35 31 45  R..........s151E
0120: 07 80 F0 FF FF 7F F0 FF  FF 7F 73 31 35 32 01 80  ..........s152..
0130: 1C 08 80 52 07 80 F0 FF  FF 7F F0 FF FF 7F 73 31  ...R..........s1
0140: 35 32 45 07 80 F0 FF FF  7F F0 FF FF 7F 73 31 35  52E..........s15
0150: 33 01 80 2B A9 A1 10 01  0B 80 23 45 00 80 F0 FF  3..+......#E....
0160: FF 7F F0 FF FF 7F 66 64  6F 31 01 80 55 00 80 F0  ......fdo1..U...
0170: FF FF 7F F0 FF FF 7F 66  64 6F 31 52 07 80 F0 FF  .......fdo1R....
0180: FF 7F F0 FF FF 7F 73 31  35 33 29 08 F0 FF FF 7F  ......s153).....
0190: 15 29 08 A9 A1 10 01 23  45 07 80 F0 FF FF 7F F0  .).....#E.......
01A0: FF FF 7F 73 65 30 32 01  80 1C 0C 80 1C 0A 80 27  ...se02........'
01B0: 08 A9 A1 10 01 01 4A F0  FF FF 7F A9 A1 10 01 4A  ......J........J
01C0: A9 A1 10 01 F0 FF FF 7F  6F 76 A9 A1 10 01 6F 76  ........ov....ov
01D0: F0 FF FF 7F 2A 08 A9 A1  10 01 27 08 A9 A1 10 01  ....*.....'.....
01E0: 17 45 07 80 F0 FF FF 7F  F0 FF FF 7F 73 31 35 34  .E..........s154
01F0: 01 80 45 00 80 F0 FF FF  7F F0 FF FF 7F 66 64 69  ..E..........fdi
0200: 31 01 80 55 00 80 F0 FF  FF 7F F0 FF FF 7F 66 64  1..U..........fd
0210: 69 31 2B A9 A1 10 01 0D  80 23 2A 08 A9 A1 10 01  i1+......#*.....
0220: 52 07 80 F0 FF FF 7F F0  FF FF 7F 73 31 35 34 45  R..........s154E
0230: 07 80 F0 FF FF 7F F0 FF  FF 7F 73 31 35 35 01 80  ..........s155..
0240: 29 08 A9 A1 10 01 02 2B  A9 A1 10 01 0E 80 23 29  )......+......#)
0250: 08 A9 A1 10 01 03 29 08  A9 A1 10 01 04 2B A9 A1  ......)......+..
0260: 10 01 0F 80 23 29 08 A9  A1 10 01 05 52 07 80 F0  ....#)......R...
0270: FF FF 7F F0 FF FF 7F 73  31 35 35 45 07 80 F0 FF  .......s155E....
0280: FF 7F F0 FF FF 7F 73 31  35 36 01 80 7B A9 A1 10  ......s156..{...
0290: 01 27 08 F0 FF FF 7F 16  27 08 A9 A1 10 01 24 2B  .'......'.....$+
02A0: A9 A1 10 01 10 80 23 45  00 80 F0 FF FF 7F F0 FF  ......#E........
02B0: FF 7F 66 64 6F 31 01 80  55 00 80 F0 FF FF 7F F0  ..fdo1..U.......
02C0: FF FF 7F 66 64 6F 31 52  07 80 F0 FF FF 7F F0 FF  ...fdo1R........
02D0: FF 7F 73 31 35 36 2A 08  A9 A1 10 01 2A 08 F0 FF  ..s156*.....*...
02E0: FF 7F 29 08 A9 A1 10 01  0E 29 08 F0 FF FF 7F 17  ..)......)......
02F0: 4A F0 FF FF 7F A9 A1 10  01 7B A9 A1 10 01 45 07  J........{....E.
0300: 80 F0 FF FF 7F F0 FF FF  7F 73 65 30 32 01 80 1C  .........se02...
0310: 0C 80 45 07 80 F0 FF FF  7F F0 FF FF 7F 73 65 30  ..E..........se0
0320: 31 01 80 1C 0A 80 6F 76  F0 FF FF 7F 45 07 80 F0  1.....ov....E...
0330: FF FF 7F F0 FF FF 7F 73  31 35 37 01 80 45 00 80  .......s157..E..
0340: F0 FF FF 7F F0 FF FF 7F  66 64 69 31 01 80 55 00  ........fdi1..U.
0350: 80 F0 FF FF 7F F0 FF FF  7F 66 64 69 31 2B A9 A1  .........fdi1+..
0360: 10 01 11 80 23 52 07 80  F0 FF FF 7F F0 FF FF 7F  ....#R..........
0370: 73 31 35 37 45 07 80 F0  FF FF 7F F0 FF FF 7F 73  s157E..........s
0380: 31 35 38 01 80 79 00 A9  A1 10 01 F0 FF FF 7F 2B  158..y.........+
0390: A9 A1 10 01 12 80 23 2B  A9 A1 10 01 13 80 23 27  ......#+......#'
03A0: 08 F0 FF FF 7F 18 1C 0C  80 45 00 80 F0 FF FF 7F  .........E......
03B0: F0 FF FF 7F 66 64 6F 31  01 80 55 00 80 F0 FF FF  ....fdo1..U.....
03C0: 7F F0 FF FF 7F 66 64 6F  31 52 07 80 F0 FF FF 7F  .....fdo1R......
03D0: F0 FF FF 7F 73 31 35 38  29 08 A9 A1 10 01 25 29  ....s158).....%)
03E0: 08 A9 A1 10 01 0D 7B A9  A1 10 01 29 08 F0 FF FF  ......{....)....
03F0: 7F 19 29 08 F0 FF FF 7F  11 92 01 A9 A1 10 01 92  ..).............
0400: 01 F0 FF FF 7F 1C 14 80  45 07 80 F0 FF FF 7F F0  ........E.......
0410: FF FF 7F 73 65 30 32 01  80 1C 0C 80 45 07 80 F0  ...se02.....E...
0420: FF FF 7F F0 FF FF 7F 73  65 30 31 01 80 1C 15 80  .......se01.....
0430: 45 07 80 F0 FF FF 7F F0  FF FF 7F 73 31 35 39 01  E..........s159.
0440: 80 45 00 80 F0 FF FF 7F  F0 FF FF 7F 66 64 69 31  .E..........fdi1
0450: 01 80 55 00 80 F0 FF FF  7F F0 FF FF 7F 66 64 69  ..U..........fdi
0460: 31 2B A9 A1 10 01 16 80  23 1C 08 80 45 00 80 F0  1+......#...E...
0470: FF FF 7F F0 FF FF 7F 66  64 6F 31 01 80 55 00 80  .......fdo1..U..
0480: F0 FF FF 7F F0 FF FF 7F  66 64 6F 31 52 07 80 F0  ........fdo1R...
0490: FF FF 7F F0 FF FF 7F 73  31 35 39 92 00 F0 FF FF  .......s159.....
04A0: 7F 2B A9 A1 10 01 17 80  23 1C 14 80 29 08 A9 A1  .+......#...)...
04B0: 10 01 26 29 08 A9 A1 10  01 0F 29 08 A9 A1 10 01  ..&)......).....
04C0: 10 29 08 F0 FF FF 7F 1A  45 07 80 F0 FF FF 7F F0  .)......E.......
04D0: FF FF 7F 73 65 30 32 01  80 1C 0C 80 45 07 80 F0  ...se02.....E...
04E0: FF FF 7F F0 FF FF 7F 73  65 30 31 01 80 1C 0A 80  .......se01.....
04F0: 45 07 80 F0 FF FF 7F F0  FF FF 7F 73 31 36 30 01  E..........s160.
0500: 80 45 00 80 F0 FF FF 7F  F0 FF FF 7F 66 64 69 31  .E..........fdi1
0510: 01 80 55 00 80 F0 FF FF  7F F0 FF FF 7F 66 64 69  ..U..........fdi
0520: 31 1C 0A 80 29 08 A9 A1  10 01 11 29 08 A9 A1 10  1...)......)....
0530: 01 12 2B A9 A1 10 01 18  80 23 2B A9 A1 10 01 19  ..+......#+.....
0540: 80 23 5D 01 80 00 80 45  00 80 F0 FF FF 7F F0 FF  .#]....E........
0550: FF 7F 66 64 6F 31 01 80  55 00 80 F0 FF FF 7F F0  ..fdo1..U.......
0560: FF FF 7F 66 64 6F 31 52  07 80 F0 FF FF 7F F0 FF  ...fdo1R........
0570: FF 7F 73 31 36 30 29 08  F0 FF FF 7F 1C 29 08 A9  ..s160)......)..
0580: A1 10 01 27 79 00 A9 A1  10 01 F0 FF FF 7F 45 07  ...'y.........E.
0590: 80 F0 FF FF 7F F0 FF FF  7F 73 31 36 31 01 80 45  .........s161..E
05A0: 00 80 F0 FF FF 7F F0 FF  FF 7F 66 64 69 31 01 80  ..........fdi1..
05B0: 55 00 80 F0 FF FF 7F F0  FF FF 7F 66 64 69 31 1C  U..........fdi1.
05C0: 14 80 52 07 80 F0 FF FF  7F F0 FF FF 7F 73 31 36  ..R..........s16
05D0: 31 45 07 80 F0 FF FF 7F  F0 FF FF 7F 73 31 36 32  1E..........s162
05E0: 01 80 27 08 A9 A1 10 01  19 2B A9 A1 10 01 1A 80  ..'......+......
05F0: 23 2A 08 A9 A1 10 01 52  07 80 F0 FF FF 7F F0 FF  #*.....R........
0600: FF 7F 73 31 36 32 45 07  80 F0 FF FF 7F F0 FF FF  ..s162E.........
0610: 7F 73 31 36 33 01 80 27  08 A9 A1 10 01 1A 2B A9  .s163..'......+.
0620: A1 10 01 1B 80 23 2A 08  A9 A1 10 01 29 08 F0 FF  .....#*.....)...
0630: FF 7F 1D 4A F0 FF FF 7F  A9 A1 10 01 2B A9 A1 10  ...J........+...
0640: 01 1C 80 23 6F 76 F0 FF  FF 7F 52 07 80 F0 FF FF  ...#ov....R.....
0650: 7F F0 FF FF 7F 73 31 36  33 02 09 10 1D 80 00 75  .....s163......u
0660: 06 45 07 80 F0 FF FF 7F  F0 FF FF 7F 73 31 36 35  .E..........s165
0670: 01 80 01 A2 06 02 09 10  1E 80 00 91 06 45 07 80  .............E..
0680: F0 FF FF 7F F0 FF FF 7F  73 31 36 35 01 80 01 A2  ........s165....
0690: 06 45 07 80 F0 FF FF 7F  F0 FF FF 7F 73 31 36 34  .E..........s164
06A0: 01 80 2B A9 A1 10 01 1F  80 23 2B A9 A1 10 01 20  ..+......#+.... 
06B0: 80 23 45 00 80 F0 FF FF  7F F0 FF FF 7F 66 64 6F  .#E..........fdo
06C0: 31 01 80 55 00 80 F0 FF  FF 7F F0 FF FF 7F 66 64  1..U..........fd
06D0: 6F 31 02 09 10 1D 80 00  EC 06 52 07 80 F0 FF FF  o1........R.....
06E0: 7F F0 FF FF 7F 73 31 36  35 01 15 07 02 09 10 1E  .....s165.......
06F0: 80 00 06 07 52 07 80 F0  FF FF 7F F0 FF FF 7F 73  ....R..........s
0700: 31 36 35 01 15 07 52 07  80 F0 FF FF 7F F0 FF FF  165...R.........
0710: 7F 73 31 36 34 45 21 80  F8 FF FF 7F F8 FF FF 7F  .s164E!.........
0720: 71 73 74 63 01 80 5C 00  0C 80 5C 01 0C 80 9A 5D  qstc..\...\....]
0730: 05 80 06 80 1C 22 80 46  00 45 00 80 F0 FF FF 7F  .....".F.E......
0740: F0 FF FF 7F 66 64 69 31  01 80 20 00 21 00        ....fdi1.. .!.  
```

#### Opcodes

```
  0: 0x0001 [0x42] SET_CLI_EVENT_CANCEL_DATA()
  1: 0x0002 [0x46] CAMERA_CONTROL: Disable user control
  2: 0x0004 [0x45] LOAD_SCHEDULED_TASK: Load scheduler "fdo1" with entities [LocalPlayer, LocalPlayer], work=[200*, 0*]
  3: 0x0015 [0x55] WAIT_LOAD_SCHEDULER: Wait for scheduler "fdo1" with entities [LocalPlayer, LocalPlayer], work=200*
  4: 0x0024 [0x38] SET_CLIENT_EVENT_MODE(mode=19*)
  5: 0x0027 [0x5D] SET_MUSIC_VOLUME(volume=0*, fade_time=100*)
  6: 0x002C [0x29] REQ_SET_WAIT(priority=0x08, entity_id=Toppled Tree (ID: 17867177/0x0110A1A9), tag_num=0x22)
  7: 0x0033 [0x29] REQ_SET_WAIT(priority=0x08, entity_id=LocalPlayer, tag_num=0x12)
  8: 0x003A [0x80] LOAD_WAIT(entity=Toppled Tree (ID: 17867177/0x0110A1A9))
  9: 0x003F [0x92] Toppled Tree (ID: 17867177/0x0110A1A9)->Render.Flags3 ^= 0x01
 10: 0x0045 [0x29] REQ_SET_WAIT(priority=0x08, entity_id=LocalPlayer, tag_num=0x0F)
 11: 0x004C [0x79] Toppled Tree (ID: 17867177/0x0110A1A9) looks at LocalPlayer (Basic look)
 12: 0x0056 [0x29] REQ_SET_WAIT(priority=0x08, entity_id=Toppled Tree (ID: 17867177/0x0110A1A9), tag_num=0x0E)
 13: 0x005D [0x5C] MUSIC_CONTROL: Set Idle (Day) music to song 163*
 14: 0x0061 [0x5C] MUSIC_CONTROL: Set Idle (Night) music to song 163*
 15: 0x0065 [0x9A] WAIT_MUSIC_SERVER()
 16: 0x0066 [0x5D] SET_MUSIC_VOLUME(volume=127*, fade_time=1*)
 17: 0x006B [0x45] LOAD_SCHEDULED_TASK: Load scheduler "s150" with entities [LocalPlayer, LocalPlayer], work=[661*, 0*]
 18: 0x007C [0x45] LOAD_SCHEDULED_TASK: Load scheduler "fdi1" with entities [LocalPlayer, LocalPlayer], work=[200*, 0*]
 19: 0x008D [0x55] WAIT_LOAD_SCHEDULER: Wait for scheduler "fdi1" with entities [LocalPlayer, LocalPlayer], work=200*
 20: 0x009C [0x29] REQ_SET_WAIT(priority=0x08, entity_id=Scalable Area (ID: 17867183/0x0110A1AF), tag_num=0x02)
 21: 0x00A3 [0x79] LocalPlayer looks at Scalable Area (ID: 17867183/0x0110A1AF) (Basic look)
 22: 0x00AD [0x1C] WAIT(90* ticks)
 23: 0x00B0 [0x29] REQ_SET_WAIT(priority=0x08, entity_id=Scalable Area (ID: 17867183/0x0110A1AF), tag_num=0x03)
 24: 0x00B7 [0x79] LocalPlayer looks at Scalable Area (ID: 17867183/0x0110A1AF) (Basic look)
 25: 0x00C1 [0x1C] WAIT(90* ticks)
 26: 0x00C4 [0x2B] Toppled Tree (ID: 17867177/0x0110A1A9) [7753*]:
    → "Owwwwww...gaaah!"
 27: 0x00CB [0x1C] WAIT(30* ticks)
 28: 0x00CE [0x4A] LocalPlayer looks at Toppled Tree (ID: 17867177/0x0110A1A9)
 29: 0x00D7 [0x6F] WAIT_FRAME_DELAY: Yield until WaitTime reaches zero
 30: 0x00D8 [0x76] CHECK_ENTITY_RENDER_FLAGS: Wait until LocalPlayer Render.Flags0 and Render.Flags3 conditions are met
 31: 0x00DD [0x27] REQ_SET(priority=0x08, entity_id=LocalPlayer, tag_num=0x13)
 32: 0x00E4 [0x1C] WAIT(90* ticks)
 33: 0x00E7 [0x52] END_LOAD_SCHEDULER: End scheduler "s150" with entities [LocalPlayer, LocalPlayer], work=661*
 34: 0x00F6 [0x45] LOAD_SCHEDULED_TASK: Load scheduler "s151" with entities [LocalPlayer, LocalPlayer], work=[661*, 0*]
 35: 0x0107 [0x1C] WAIT(90* ticks)
 36: 0x010A [0x2A] GET_REQ_LEVEL(level=8, entity_id=LocalPlayer)
 37: 0x0110 [0x52] END_LOAD_SCHEDULER: End scheduler "s151" with entities [LocalPlayer, LocalPlayer], work=661*
 38: 0x011F [0x45] LOAD_SCHEDULED_TASK: Load scheduler "s152" with entities [LocalPlayer, LocalPlayer], work=[661*, 0*]
 39: 0x0130 [0x1C] WAIT(90* ticks)
 40: 0x0133 [0x52] END_LOAD_SCHEDULER: End scheduler "s152" with entities [LocalPlayer, LocalPlayer], work=661*
 41: 0x0142 [0x45] LOAD_SCHEDULED_TASK: Load scheduler "s153" with entities [LocalPlayer, LocalPlayer], work=[661*, 0*]
 42: 0x0153 [0x2B] Toppled Tree (ID: 17867177/0x0110A1A9) [7754*]:
    → "<Player>! Don't just stand there, help me outta here!"
 43: 0x015A [0x23] WAIT_FOR_DIALOG_INTERACTION
 44: 0x015B [0x45] LOAD_SCHEDULED_TASK: Load scheduler "fdo1" with entities [LocalPlayer, LocalPlayer], work=[200*, 0*]
 45: 0x016C [0x55] WAIT_LOAD_SCHEDULER: Wait for scheduler "fdo1" with entities [LocalPlayer, LocalPlayer], work=200*
 46: 0x017B [0x52] END_LOAD_SCHEDULER: End scheduler "s153" with entities [LocalPlayer, LocalPlayer], work=661*
 47: 0x018A [0x29] REQ_SET_WAIT(priority=0x08, entity_id=LocalPlayer, tag_num=0x15)
 48: 0x0191 [0x29] REQ_SET_WAIT(priority=0x08, entity_id=Toppled Tree (ID: 17867177/0x0110A1A9), tag_num=0x23)
 49: 0x0198 [0x45] LOAD_SCHEDULED_TASK: Load scheduler "se02" with entities [LocalPlayer, LocalPlayer], work=[661*, 0*]
 50: 0x01A9 [0x1C] WAIT(60* ticks)
 51: 0x01AC [0x1C] WAIT(30* ticks)
 52: 0x01AF [0x27] REQ_SET(priority=0x08, entity_id=Toppled Tree (ID: 17867177/0x0110A1A9), tag_num=0x01)
 53: 0x01B6 [0x4A] LocalPlayer looks at Toppled Tree (ID: 17867177/0x0110A1A9)
 54: 0x01BF [0x4A] Toppled Tree (ID: 17867177/0x0110A1A9) looks at LocalPlayer
 55: 0x01C8 [0x6F] WAIT_FRAME_DELAY: Yield until WaitTime reaches zero
 56: 0x01C9 [0x76] CHECK_ENTITY_RENDER_FLAGS: Wait until Toppled Tree (ID: 17867177/0x0110A1A9) Render.Flags0 and Render.Flags3 conditions are met
 57: 0x01CE [0x6F] WAIT_FRAME_DELAY: Yield until WaitTime reaches zero
 58: 0x01CF [0x76] CHECK_ENTITY_RENDER_FLAGS: Wait until LocalPlayer Render.Flags0 and Render.Flags3 conditions are met
 59: 0x01D4 [0x2A] GET_REQ_LEVEL(level=8, entity_id=Toppled Tree (ID: 17867177/0x0110A1A9))
 60: 0x01DA [0x27] REQ_SET(priority=0x08, entity_id=Toppled Tree (ID: 17867177/0x0110A1A9), tag_num=0x17)
 61: 0x01E1 [0x45] LOAD_SCHEDULED_TASK: Load scheduler "s154" with entities [LocalPlayer, LocalPlayer], work=[661*, 0*]
 62: 0x01F2 [0x45] LOAD_SCHEDULED_TASK: Load scheduler "fdi1" with entities [LocalPlayer, LocalPlayer], work=[200*, 0*]
 63: 0x0203 [0x55] WAIT_LOAD_SCHEDULER: Wait for scheduler "fdi1" with entities [LocalPlayer, LocalPlayer], work=200*
 64: 0x0212 [0x2B] Toppled Tree (ID: 17867177/0x0110A1A9) [7755*]:
    → "Oh, this is just great. Now we're both stuck in this cursed hole."
 65: 0x0219 [0x23] WAIT_FOR_DIALOG_INTERACTION
 66: 0x021A [0x2A] GET_REQ_LEVEL(level=8, entity_id=Toppled Tree (ID: 17867177/0x0110A1A9))
 67: 0x0220 [0x52] END_LOAD_SCHEDULER: End scheduler "s154" with entities [LocalPlayer, LocalPlayer], work=661*
 68: 0x022F [0x45] LOAD_SCHEDULED_TASK: Load scheduler "s155" with entities [LocalPlayer, LocalPlayer], work=[661*, 0*]
 69: 0x0240 [0x29] REQ_SET_WAIT(priority=0x08, entity_id=Toppled Tree (ID: 17867177/0x0110A1A9), tag_num=0x02)
 70: 0x0247 [0x2B] Toppled Tree (ID: 17867177/0x0110A1A9) [7756*]:
    → "What's that? Yeah, I know we should have been able to climb the ivy with these gloves."
 71: 0x024E [0x23] WAIT_FOR_DIALOG_INTERACTION
 72: 0x024F [0x29] REQ_SET_WAIT(priority=0x08, entity_id=Toppled Tree (ID: 17867177/0x0110A1A9), tag_num=0x03)
 73: 0x0256 [0x29] REQ_SET_WAIT(priority=0x08, entity_id=Toppled Tree (ID: 17867177/0x0110A1A9), tag_num=0x04)
 74: 0x025D [0x2B] Toppled Tree (ID: 17867177/0x0110A1A9) [7757*]:
    → "I figured that all I needed to do was fashion a pair out of the leather you gave me and then just grab on..."
 75: 0x0264 [0x23] WAIT_FOR_DIALOG_INTERACTION
 76: 0x0265 [0x29] REQ_SET_WAIT(priority=0x08, entity_id=Toppled Tree (ID: 17867177/0x0110A1A9), tag_num=0x05)
 77: 0x026C [0x52] END_LOAD_SCHEDULER: End scheduler "s155" with entities [LocalPlayer, LocalPlayer], work=661*
 78: 0x027B [0x45] LOAD_SCHEDULED_TASK: Load scheduler "s156" with entities [LocalPlayer, LocalPlayer], work=[661*, 0*]
 79: 0x028C [0x7B] Toppled Tree (ID: 17867177/0x0110A1A9) stops talking
 80: 0x0291 [0x27] REQ_SET(priority=0x08, entity_id=LocalPlayer, tag_num=0x16)
 81: 0x0298 [0x27] REQ_SET(priority=0x08, entity_id=Toppled Tree (ID: 17867177/0x0110A1A9), tag_num=0x24)
 82: 0x029F [0x2B] Toppled Tree (ID: 17867177/0x0110A1A9) [7758*]:
    → "...But things are never that simple, are they? Think you can give me a boost?"
 83: 0x02A6 [0x23] WAIT_FOR_DIALOG_INTERACTION
 84: 0x02A7 [0x45] LOAD_SCHEDULED_TASK: Load scheduler "fdo1" with entities [LocalPlayer, LocalPlayer], work=[200*, 0*]
 85: 0x02B8 [0x55] WAIT_LOAD_SCHEDULER: Wait for scheduler "fdo1" with entities [LocalPlayer, LocalPlayer], work=200*
 86: 0x02C7 [0x52] END_LOAD_SCHEDULER: End scheduler "s156" with entities [LocalPlayer, LocalPlayer], work=661*
 87: 0x02D6 [0x2A] GET_REQ_LEVEL(level=8, entity_id=Toppled Tree (ID: 17867177/0x0110A1A9))
 88: 0x02DC [0x2A] GET_REQ_LEVEL(level=8, entity_id=LocalPlayer)
 89: 0x02E2 [0x29] REQ_SET_WAIT(priority=0x08, entity_id=Toppled Tree (ID: 17867177/0x0110A1A9), tag_num=0x0E)
 90: 0x02E9 [0x29] REQ_SET_WAIT(priority=0x08, entity_id=LocalPlayer, tag_num=0x17)
 91: 0x02F0 [0x4A] LocalPlayer looks at Toppled Tree (ID: 17867177/0x0110A1A9)
 92: 0x02F9 [0x7B] Toppled Tree (ID: 17867177/0x0110A1A9) stops talking
 93: 0x02FE [0x45] LOAD_SCHEDULED_TASK: Load scheduler "se02" with entities [LocalPlayer, LocalPlayer], work=[661*, 0*]
 94: 0x030F [0x1C] WAIT(60* ticks)
 95: 0x0312 [0x45] LOAD_SCHEDULED_TASK: Load scheduler "se01" with entities [LocalPlayer, LocalPlayer], work=[661*, 0*]
 96: 0x0323 [0x1C] WAIT(30* ticks)
 97: 0x0326 [0x6F] WAIT_FRAME_DELAY: Yield until WaitTime reaches zero
 98: 0x0327 [0x76] CHECK_ENTITY_RENDER_FLAGS: Wait until LocalPlayer Render.Flags0 and Render.Flags3 conditions are met
 99: 0x032C [0x45] LOAD_SCHEDULED_TASK: Load scheduler "s157" with entities [LocalPlayer, LocalPlayer], work=[661*, 0*]
100: 0x033D [0x45] LOAD_SCHEDULED_TASK: Load scheduler "fdi1" with entities [LocalPlayer, LocalPlayer], work=[200*, 0*]
101: 0x034E [0x55] WAIT_LOAD_SCHEDULER: Wait for scheduler "fdi1" with entities [LocalPlayer, LocalPlayer], work=200*
102: 0x035D [0x2B] Toppled Tree (ID: 17867177/0x0110A1A9) [7759*]:
    → "Ooof... Ow ow ow!"
103: 0x0364 [0x23] WAIT_FOR_DIALOG_INTERACTION
104: 0x0365 [0x52] END_LOAD_SCHEDULER: End scheduler "s157" with entities [LocalPlayer, LocalPlayer], work=661*
105: 0x0374 [0x45] LOAD_SCHEDULED_TASK: Load scheduler "s158" with entities [LocalPlayer, LocalPlayer], work=[661*, 0*]
106: 0x0385 [0x79] Toppled Tree (ID: 17867177/0x0110A1A9) looks at LocalPlayer (Basic look)
107: 0x038F [0x2B] Toppled Tree (ID: 17867177/0x0110A1A9) [7760*]:
    → "We made a little bit of progress, I suppose...but I need to be able to do this alone."
108: 0x0396 [0x23] WAIT_FOR_DIALOG_INTERACTION
109: 0x0397 [0x2B] Toppled Tree (ID: 17867177/0x0110A1A9) [7761*]:
    → "Wait--I've got an idea. Can you stand a couple steps back and watch carefully as I give it another go? Maybe you'll be able to see what I'm doing wrong."
110: 0x039E [0x23] WAIT_FOR_DIALOG_INTERACTION
111: 0x039F [0x27] REQ_SET(priority=0x08, entity_id=LocalPlayer, tag_num=0x18)
112: 0x03A6 [0x1C] WAIT(60* ticks)
113: 0x03A9 [0x45] LOAD_SCHEDULED_TASK: Load scheduler "fdo1" with entities [LocalPlayer, LocalPlayer], work=[200*, 0*]
114: 0x03BA [0x55] WAIT_LOAD_SCHEDULER: Wait for scheduler "fdo1" with entities [LocalPlayer, LocalPlayer], work=200*
115: 0x03C9 [0x52] END_LOAD_SCHEDULER: End scheduler "s158" with entities [LocalPlayer, LocalPlayer], work=661*
116: 0x03D8 [0x29] REQ_SET_WAIT(priority=0x08, entity_id=Toppled Tree (ID: 17867177/0x0110A1A9), tag_num=0x25)
117: 0x03DF [0x29] REQ_SET_WAIT(priority=0x08, entity_id=Toppled Tree (ID: 17867177/0x0110A1A9), tag_num=0x0D)
118: 0x03E6 [0x7B] Toppled Tree (ID: 17867177/0x0110A1A9) stops talking
119: 0x03EB [0x29] REQ_SET_WAIT(priority=0x08, entity_id=LocalPlayer, tag_num=0x19)
120: 0x03F2 [0x29] REQ_SET_WAIT(priority=0x08, entity_id=LocalPlayer, tag_num=0x11)
121: 0x03F9 [0x92] Toppled Tree (ID: 17867177/0x0110A1A9)->Render.Flags3 ^= 0x01
122: 0x03FF [0x92] LocalPlayer->Render.Flags3 ^= 0x01
123: 0x0405 [0x1C] WAIT(120* ticks)
124: 0x0408 [0x45] LOAD_SCHEDULED_TASK: Load scheduler "se02" with entities [LocalPlayer, LocalPlayer], work=[661*, 0*]
125: 0x0419 [0x1C] WAIT(60* ticks)
126: 0x041C [0x45] LOAD_SCHEDULED_TASK: Load scheduler "se01" with entities [LocalPlayer, LocalPlayer], work=[661*, 0*]
127: 0x042D [0x1C] WAIT(40* ticks)
128: 0x0430 [0x45] LOAD_SCHEDULED_TASK: Load scheduler "s159" with entities [LocalPlayer, LocalPlayer], work=[661*, 0*]
129: 0x0441 [0x45] LOAD_SCHEDULED_TASK: Load scheduler "fdi1" with entities [LocalPlayer, LocalPlayer], work=[200*, 0*]
130: 0x0452 [0x55] WAIT_LOAD_SCHEDULER: Wait for scheduler "fdi1" with entities [LocalPlayer, LocalPlayer], work=200*
131: 0x0461 [0x2B] Toppled Tree (ID: 17867177/0x0110A1A9) [7762*]:
    → "Owww... Not again...<cough>"
132: 0x0468 [0x23] WAIT_FOR_DIALOG_INTERACTION
133: 0x0469 [0x1C] WAIT(90* ticks)
134: 0x046C [0x45] LOAD_SCHEDULED_TASK: Load scheduler "fdo1" with entities [LocalPlayer, LocalPlayer], work=[200*, 0*]
135: 0x047D [0x55] WAIT_LOAD_SCHEDULER: Wait for scheduler "fdo1" with entities [LocalPlayer, LocalPlayer], work=200*
136: 0x048C [0x52] END_LOAD_SCHEDULER: End scheduler "s159" with entities [LocalPlayer, LocalPlayer], work=661*
137: 0x049B [0x92] LocalPlayer->Render.Flags3 = Flags3  // No change (flag=0)
138: 0x04A1 [0x2B] Toppled Tree (ID: 17867177/0x0110A1A9) [7763*]:
    → "I-I think I know what I'm doing wrong, but my back...I think I threw it out <wince>. Here, put these gloves on and see if you can't do better than I did."
139: 0x04A8 [0x23] WAIT_FOR_DIALOG_INTERACTION
140: 0x04A9 [0x1C] WAIT(120* ticks)
141: 0x04AC [0x29] REQ_SET_WAIT(priority=0x08, entity_id=Toppled Tree (ID: 17867177/0x0110A1A9), tag_num=0x26)
142: 0x04B3 [0x29] REQ_SET_WAIT(priority=0x08, entity_id=Toppled Tree (ID: 17867177/0x0110A1A9), tag_num=0x0F)
143: 0x04BA [0x29] REQ_SET_WAIT(priority=0x08, entity_id=Toppled Tree (ID: 17867177/0x0110A1A9), tag_num=0x10)
144: 0x04C1 [0x29] REQ_SET_WAIT(priority=0x08, entity_id=LocalPlayer, tag_num=0x1A)
145: 0x04C8 [0x45] LOAD_SCHEDULED_TASK: Load scheduler "se02" with entities [LocalPlayer, LocalPlayer], work=[661*, 0*]
146: 0x04D9 [0x1C] WAIT(60* ticks)
147: 0x04DC [0x45] LOAD_SCHEDULED_TASK: Load scheduler "se01" with entities [LocalPlayer, LocalPlayer], work=[661*, 0*]
148: 0x04ED [0x1C] WAIT(30* ticks)
149: 0x04F0 [0x45] LOAD_SCHEDULED_TASK: Load scheduler "s160" with entities [LocalPlayer, LocalPlayer], work=[661*, 0*]
150: 0x0501 [0x45] LOAD_SCHEDULED_TASK: Load scheduler "fdi1" with entities [LocalPlayer, LocalPlayer], work=[200*, 0*]
151: 0x0512 [0x55] WAIT_LOAD_SCHEDULER: Wait for scheduler "fdi1" with entities [LocalPlayer, LocalPlayer], work=200*
152: 0x0521 [0x1C] WAIT(30* ticks)
153: 0x0524 [0x29] REQ_SET_WAIT(priority=0x08, entity_id=Toppled Tree (ID: 17867177/0x0110A1A9), tag_num=0x11)
154: 0x052B [0x29] REQ_SET_WAIT(priority=0x08, entity_id=Toppled Tree (ID: 17867177/0x0110A1A9), tag_num=0x12)
155: 0x0532 [0x2B] Toppled Tree (ID: 17867177/0x0110A1A9) [7764*]:
    → "Hmm...maybe the problem is that we're too focused on our hands. What if we used our toes to grope about for a sturdy place to anchor ourselves?"
156: 0x0539 [0x23] WAIT_FOR_DIALOG_INTERACTION
157: 0x053A [0x2B] Toppled Tree (ID: 17867177/0x0110A1A9) [7765*]:
    → "You've also got better balance than I do. Give it another go."
158: 0x0541 [0x23] WAIT_FOR_DIALOG_INTERACTION
159: 0x0542 [0x5D] SET_MUSIC_VOLUME(volume=0*, fade_time=200*)
160: 0x0547 [0x45] LOAD_SCHEDULED_TASK: Load scheduler "fdo1" with entities [LocalPlayer, LocalPlayer], work=[200*, 0*]
161: 0x0558 [0x55] WAIT_LOAD_SCHEDULER: Wait for scheduler "fdo1" with entities [LocalPlayer, LocalPlayer], work=200*
162: 0x0567 [0x52] END_LOAD_SCHEDULER: End scheduler "s160" with entities [LocalPlayer, LocalPlayer], work=661*
163: 0x0576 [0x29] REQ_SET_WAIT(priority=0x08, entity_id=LocalPlayer, tag_num=0x1C)
164: 0x057D [0x29] REQ_SET_WAIT(priority=0x08, entity_id=Toppled Tree (ID: 17867177/0x0110A1A9), tag_num=0x27)
165: 0x0584 [0x79] Toppled Tree (ID: 17867177/0x0110A1A9) looks at LocalPlayer (Basic look)
166: 0x058E [0x45] LOAD_SCHEDULED_TASK: Load scheduler "s161" with entities [LocalPlayer, LocalPlayer], work=[661*, 0*]
167: 0x059F [0x45] LOAD_SCHEDULED_TASK: Load scheduler "fdi1" with entities [LocalPlayer, LocalPlayer], work=[200*, 0*]
168: 0x05B0 [0x55] WAIT_LOAD_SCHEDULER: Wait for scheduler "fdi1" with entities [LocalPlayer, LocalPlayer], work=200*
169: 0x05BF [0x1C] WAIT(120* ticks)
170: 0x05C2 [0x52] END_LOAD_SCHEDULER: End scheduler "s161" with entities [LocalPlayer, LocalPlayer], work=661*
171: 0x05D1 [0x45] LOAD_SCHEDULED_TASK: Load scheduler "s162" with entities [LocalPlayer, LocalPlayer], work=[661*, 0*]
172: 0x05E2 [0x27] REQ_SET(priority=0x08, entity_id=Toppled Tree (ID: 17867177/0x0110A1A9), tag_num=0x19)
173: 0x05E9 [0x2B] Toppled Tree (ID: 17867177/0x0110A1A9) [7766*]:
    → "Great job, <Player>! You figured out how to do it!"
174: 0x05F0 [0x23] WAIT_FOR_DIALOG_INTERACTION
175: 0x05F1 [0x2A] GET_REQ_LEVEL(level=8, entity_id=Toppled Tree (ID: 17867177/0x0110A1A9))
176: 0x05F7 [0x52] END_LOAD_SCHEDULER: End scheduler "s162" with entities [LocalPlayer, LocalPlayer], work=661*
177: 0x0606 [0x45] LOAD_SCHEDULED_TASK: Load scheduler "s163" with entities [LocalPlayer, LocalPlayer], work=[661*, 0*]
178: 0x0617 [0x27] REQ_SET(priority=0x08, entity_id=Toppled Tree (ID: 17867177/0x0110A1A9), tag_num=0x1A)
179: 0x061E [0x2B] Toppled Tree (ID: 17867177/0x0110A1A9) [7767*]:
    → "Take those gloves with you, free of charge--they're bound to come in handy."
180: 0x0625 [0x23] WAIT_FOR_DIALOG_INTERACTION
181: 0x0626 [0x2A] GET_REQ_LEVEL(level=8, entity_id=Toppled Tree (ID: 17867177/0x0110A1A9))
182: 0x062C [0x29] REQ_SET_WAIT(priority=0x08, entity_id=LocalPlayer, tag_num=0x1D)
183: 0x0633 [0x4A] LocalPlayer looks at Toppled Tree (ID: 17867177/0x0110A1A9)
184: 0x063C [0x2B] Toppled Tree (ID: 17867177/0x0110A1A9) [7768*]:
    → "Watching the way you expertly clawed your way out of here gave me the confidence to have another crack at it."
185: 0x0643 [0x23] WAIT_FOR_DIALOG_INTERACTION
186: 0x0644 [0x6F] WAIT_FRAME_DELAY: Yield until WaitTime reaches zero
187: 0x0645 [0x76] CHECK_ENTITY_RENDER_FLAGS: Wait until LocalPlayer Render.Flags0 and Render.Flags3 conditions are met
188: 0x064A [0x52] END_LOAD_SCHEDULER: End scheduler "s163" with entities [LocalPlayer, LocalPlayer], work=661*
189: 0x0659 [0x02] IF !(Work_Zone[9] == 5*) GOTO 0x0675
190: 0x0661 [0x45] LOAD_SCHEDULED_TASK: Load scheduler "s165" with entities [LocalPlayer, LocalPlayer], work=[661*, 0*]
191: 0x0672 [0x01] GOTO 0x06A2
192: 0x0675 [0x02] IF !(Work_Zone[9] == 6*) GOTO 0x0691
193: 0x067D [0x45] LOAD_SCHEDULED_TASK: Load scheduler "s165" with entities [LocalPlayer, LocalPlayer], work=[661*, 0*]
194: 0x068E [0x01] GOTO 0x06A2
195: 0x0691 [0x45] LOAD_SCHEDULED_TASK: Load scheduler "s164" with entities [LocalPlayer, LocalPlayer], work=[661*, 0*]

SUBROUTINE_06A2:
196: 0x06A2 [0x2B] Toppled Tree (ID: 17867177/0x0110A1A9) [7769*]:
    → "I'll be able to climb those rocks as deftly as you once I put on a bit more muscle."
197: 0x06A9 [0x23] WAIT_FOR_DIALOG_INTERACTION
198: 0x06AA [0x2B] Toppled Tree (ID: 17867177/0x0110A1A9) [7770*]:
    → "Feel free to head back to camp, or to continue with your pioneering activities--I'll claw my way out of here somehow. Best of luck, <Player>!"
199: 0x06B1 [0x23] WAIT_FOR_DIALOG_INTERACTION
200: 0x06B2 [0x45] LOAD_SCHEDULED_TASK: Load scheduler "fdo1" with entities [LocalPlayer, LocalPlayer], work=[200*, 0*]
201: 0x06C3 [0x55] WAIT_LOAD_SCHEDULER: Wait for scheduler "fdo1" with entities [LocalPlayer, LocalPlayer], work=200*
202: 0x06D2 [0x02] IF !(Work_Zone[9] == 5*) GOTO 0x06EC
203: 0x06DA [0x52] END_LOAD_SCHEDULER: End scheduler "s165" with entities [LocalPlayer, LocalPlayer], work=661*
204: 0x06E9 [0x01] GOTO 0x0715
205: 0x06EC [0x02] IF !(Work_Zone[9] == 6*) GOTO 0x0706
206: 0x06F4 [0x52] END_LOAD_SCHEDULER: End scheduler "s165" with entities [LocalPlayer, LocalPlayer], work=661*
207: 0x0703 [0x01] GOTO 0x0715
208: 0x0706 [0x52] END_LOAD_SCHEDULER: End scheduler "s164" with entities [LocalPlayer, LocalPlayer], work=661*

SUBROUTINE_0715:
209: 0x0715 [0x45] LOAD_SCHEDULED_TASK: Load scheduler "qstc" with entities [EventEntity, EventEntity], work=[201*, 0*]
210: 0x0726 [0x5C] MUSIC_CONTROL: Set Idle (Day) music to song 60*
211: 0x072A [0x5C] MUSIC_CONTROL: Set Idle (Night) music to song 60*
212: 0x072E [0x9A] WAIT_MUSIC_SERVER()
213: 0x072F [0x5D] SET_MUSIC_VOLUME(volume=127*, fade_time=1*)
214: 0x0734 [0x1C] WAIT(2* ticks)
215: 0x0737 [0x46] CAMERA_CONTROL: Restore default settings
216: 0x0739 [0x45] LOAD_SCHEDULED_TASK: Load scheduler "fdi1" with entities [LocalPlayer, LocalPlayer], work=[200*, 0*]
217: 0x074A [0x20] SET_CLI_EVENT_UC_FLAG: Unlock player control
218: 0x074C [0x21] END_EVENT
219: 0x074D [0x00] END_REQSTACK()
```

### Event 51

#### Metadata

| Field        | Value      |
|--------------|------------|
| Entrypoint   | 0x074E     |
| Data Size    | 1943 bytes |
| Instructions | 246        |

```
      00 01 02 03 04 05 06 07  08 09 0A 0B 0C 0D 0E 0F
      -- -- -- -- -- -- -- --  -- -- -- -- -- -- -- --
0740:                                            42 46                BF
0750: 01 45 00 80 F0 FF FF 7F  F0 FF FF 7F 66 64 6F 31  .E..........fdo1
0760: 01 80 55 00 80 F0 FF FF  7F F0 FF FF 7F 66 64 6F  ..U..........fdo
0770: 31 38 02 80 5D 01 80 00  80 29 08 F0 FF FF 7F 1E  18..]....)......
0780: 29 08 AC A1 10 01 13 29  08 AB A1 10 01 1D 4A F0  )......)......J.
0790: FF FF 7F AB A1 10 01 4A  AB A1 10 01 F0 FF FF 7F  .......J........
07A0: 6F 76 F0 FF FF 7F 6F 76  AB A1 10 01 92 01 AB A1  ov....ov........
07B0: 10 01 92 01 A9 A1 10 01  92 01 AC A1 10 01 29 08  ..............).
07C0: F0 FF FF 7F 0F 5C 00 14  80 5C 01 14 80 9A 5D 05  .....\...\....].
07D0: 80 06 80 45 23 80 F0 FF  FF 7F F0 FF FF 7F 73 30  ...E#.........s0
07E0: 30 31 01 80 45 00 80 F0  FF FF 7F F0 FF FF 7F 66  01..E..........f
07F0: 64 69 31 01 80 55 00 80  F0 FF FF 7F F0 FF FF 7F  di1..U..........
0800: 66 64 69 31 27 08 AB A1  10 01 13 2B AB A1 10 01  fdi1'......+....
0810: 24 80 23 2B AB A1 10 01  25 80 23 2A 08 AB A1 10  $.#+....%.#*....
0820: 01 52 23 80 F0 FF FF 7F  F0 FF FF 7F 73 30 30 31  .R#.........s001
0830: 02 09 10 1D 80 00 4C 08  45 23 80 F0 FF FF 7F F0  ......L.E#......
0840: FF FF 7F 73 30 31 37 01  80 01 79 08 02 09 10 1E  ...s017...y.....
0850: 80 00 68 08 45 23 80 F0  FF FF 7F F0 FF FF 7F 73  ..h.E#.........s
0860: 30 31 37 01 80 01 79 08  45 23 80 F0 FF FF 7F F0  017...y.E#......
0870: FF FF 7F 73 30 30 32 01  80 29 08 AB A1 10 01 09  ...s002..)......
0880: 2B AB A1 10 01 26 80 23  29 08 AB A1 10 01 0A 29  +....&.#)......)
0890: 08 AB A1 10 01 0B 29 08  A9 A1 10 01 29 27 08 A9  ......).....)'..
08A0: A1 10 01 2A 2B A9 A1 10  01 27 80 1C 0A 80 79 00  ...*+....'....y.
08B0: AB A1 10 01 A9 A1 10 01  1C 0A 80 02 09 10 1D 80  ................
08C0: 00 D5 08 52 23 80 F0 FF  FF 7F F0 FF FF 7F 73 30  ...R#.........s0
08D0: 31 37 01 FE 08 02 09 10  1E 80 00 EF 08 52 23 80  17...........R#.
08E0: F0 FF FF 7F F0 FF FF 7F  73 30 31 37 01 FE 08 52  ........s017...R
08F0: 23 80 F0 FF FF 7F F0 FF  FF 7F 73 30 30 32 45 23  #.........s002E#
0900: 80 F0 FF FF 7F F0 FF FF  7F 73 30 30 33 01 80 4A  .........s003..J
0910: F0 FF FF 7F A9 A1 10 01  6F 76 F0 FF FF 7F 1C 08  ........ov......
0920: 80 29 08 AB A1 10 01 0C  52 23 80 F0 FF FF 7F F0  .)......R#......
0930: FF FF 7F 73 30 30 33 45  23 80 F0 FF FF 7F F0 FF  ...s003E#.......
0940: FF 7F 73 30 30 34 01 80  23 2B A9 A1 10 01 28 80  ..s004..#+....(.
0950: 23 2A 08 A9 A1 10 01 79  00 A9 A1 10 01 F0 FF FF  #*.....y........
0960: 7F 27 08 A9 A1 10 01 2B  1C 29 80 52 23 80 F0 FF  .'.....+.).R#...
0970: FF 7F F0 FF FF 7F 73 30  30 34 45 23 80 F0 FF FF  ......s004E#....
0980: 7F F0 FF FF 7F 73 30 30  35 01 80 4E 01 F0 FF FF  .....s005..N....
0990: 7F 2A 08 A9 A1 10 01 29  08 A9 A1 10 01 13 2B A9  .*.....)......+.
09A0: A1 10 01 2A 80 23 29 08  A9 A1 10 01 14 2B A9 A1  ...*.#)......+..
09B0: 10 01 2B 80 23 4A F0 FF  FF 7F AB A1 10 01 52 23  ..+.#J........R#
09C0: 80 F0 FF FF 7F F0 FF FF  7F 73 30 30 35 02 09 10  .........s005...
09D0: 1D 80 00 E9 09 45 23 80  F0 FF FF 7F F0 FF FF 7F  .....E#.........
09E0: 73 30 31 38 01 80 01 16  0A 02 09 10 1E 80 00 05  s018............
09F0: 0A 45 23 80 F0 FF FF 7F  F0 FF FF 7F 73 30 31 38  .E#.........s018
0A00: 01 80 01 16 0A 45 23 80  F0 FF FF 7F F0 FF FF 7F  .....E#.........
0A10: 73 30 30 36 01 80 4E 00  F0 FF FF 7F 79 00 F0 FF  s006..N.....y...
0A20: FF 7F AB A1 10 01 79 00  A9 A1 10 01 AB A1 10 01  ......y.........
0A30: 27 08 A9 A1 10 01 2C 2B  AB A1 10 01 2C 80 23 2A  '.....,+....,.#*
0A40: 08 A9 A1 10 01 29 08 AB  A1 10 01 0D 2B AB A1 10  .....)......+...
0A50: 01 2D 80 23 29 08 AB A1  10 01 0E 6F 76 F0 FF FF  .-.#)......ov...
0A60: 7F 79 00 AC A1 10 01 AB  A1 10 01 27 08 AC A1 10  .y.........'....
0A70: 01 14 1C 2E 80 02 09 10  1D 80 00 8F 0A 52 23 80  .............R#.
0A80: F0 FF FF 7F F0 FF FF 7F  73 30 31 38 01 B8 0A 02  ........s018....
0A90: 09 10 1E 80 00 A9 0A 52  23 80 F0 FF FF 7F F0 FF  .......R#.......
0AA0: FF 7F 73 30 31 38 01 B8  0A 52 23 80 F0 FF FF 7F  ..s018...R#.....
0AB0: F0 FF FF 7F 73 30 30 36  45 23 80 F0 FF FF 7F F0  ....s006E#......
0AC0: FF FF 7F 73 30 30 37 01  80 79 00 F0 FF FF 7F AC  ...s007..y......
0AD0: A1 10 01 79 00 A9 A1 10  01 AC A1 10 01 29 08 AB  ...y.........)..
0AE0: A1 10 01 0F 29 08 AB A1  10 01 10 4A AB A1 10 01  ....)......J....
0AF0: AC A1 10 01 2A 08 AC A1  10 01 29 08 AC A1 10 01  ....*.....).....
0B00: 04 2B AC A1 10 01 2F 80  23 29 08 AC A1 10 01 05  .+..../.#)......
0B10: 52 23 80 F0 FF FF 7F F0  FF FF 7F 73 30 30 37 45  R#.........s007E
0B20: 23 80 F0 FF FF 7F F0 FF  FF 7F 73 30 31 31 01 80  #.........s011..
0B30: 79 00 AB A1 10 01 AC A1  10 01 27 08 AB A1 10 01  y.........'.....
0B40: 11 2B AB A1 10 01 30 80  23 2A 08 AB A1 10 01 52  .+....0.#*.....R
0B50: 23 80 F0 FF FF 7F F0 FF  FF 7F 73 30 31 31 45 23  #.........s011E#
0B60: 80 F0 FF FF 7F F0 FF FF  7F 73 30 31 33 01 80 29  .........s013..)
0B70: 08 A9 A1 10 01 2D 7B AC  A1 10 01 29 08 AC A1 10  .....-{....)....
0B80: 01 0E 2B AC A1 10 01 31  80 23 2B AC A1 10 01 32  ..+....1.#+....2
0B90: 80 23 29 08 AC A1 10 01  0F 52 23 80 F0 FF FF 7F  .#)......R#.....
0BA0: F0 FF FF 7F 73 30 31 33  45 23 80 F0 FF FF 7F F0  ....s013E#......
0BB0: FF FF 7F 73 30 31 36 01  80 4A F0 FF FF 7F AC A1  ...s016..J......
0BC0: 10 01 29 08 AC A1 10 01  10 29 08 AB A1 10 01 01  ..)......)......
0BD0: 2B AB A1 10 01 33 80 23  29 08 AB A1 10 01 02 29  +....3.#)......)
0BE0: 08 AB A1 10 01 03 29 08  AC A1 10 01 11 79 00 AC  ......)......y..
0BF0: A1 10 01 AB A1 10 01 6F  76 F0 FF FF 7F 52 23 80  .......ov....R#.
0C00: F0 FF FF 7F F0 FF FF 7F  73 30 31 36 45 23 80 F0  ........s016E#..
0C10: FF FF 7F F0 FF FF 7F 73  30 30 38 01 80 29 08 AC  .......s008..)..
0C20: A1 10 01 04 2B AC A1 10  01 34 80 23 29 08 AC A1  ....+....4.#)...
0C30: 10 01 05 29 08 AC A1 10  01 0A 2B AC A1 10 01 35  ...)......+....5
0C40: 80 23 29 08 AC A1 10 01  0B 29 08 AC A1 10 01 03  .#)......)......
0C50: 27 08 AB A1 10 01 11 2B  AB A1 10 01 36 80 23 52  '......+....6.#R
0C60: 23 80 F0 FF FF 7F F0 FF  FF 7F 73 30 30 38 45 23  #.........s008E#
0C70: 80 F0 FF FF 7F F0 FF FF  7F 73 30 31 30 01 80 4A  .........s010..J
0C80: AC A1 10 01 A9 A1 10 01  79 00 AB A1 10 01 A9 A1  ........y.......
0C90: 10 01 27 08 A9 A1 10 01  2E 2B A9 A1 10 01 37 80  ..'......+....7.
0CA0: 23 2A 08 A9 A1 10 01 2A  08 AB A1 10 01 52 23 80  #*.....*.....R#.
0CB0: F0 FF FF 7F F0 FF FF 7F  73 30 31 30 45 23 80 F0  ........s010E#..
0CC0: FF FF 7F F0 FF FF 7F 73  30 30 39 01 80 7B AC A1  .......s009..{..
0CD0: 10 01 29 08 AC A1 10 01  0C 2B AC A1 10 01 38 80  ..)......+....8.
0CE0: 23 45 00 80 F0 FF FF 7F  F0 FF FF 7F 66 64 6F 31  #E..........fdo1
0CF0: 01 80 55 00 80 F0 FF FF  7F F0 FF FF 7F 66 64 6F  ..U..........fdo
0D00: 31 29 08 AC A1 10 01 0D  52 23 80 F0 FF FF 7F F0  1)......R#......
0D10: FF FF 7F 73 30 30 39 29  08 A9 A1 10 01 2F 29 08  ...s009)...../).
0D20: AC A1 10 01 15 29 08 AC  A1 10 01 06 4A AB A1 10  .....)......J...
0D30: 01 F0 FF FF 7F 4A AC A1  10 01 F0 FF FF 7F 4A A9  .....J........J.
0D40: A1 10 01 AC A1 10 01 6F  76 A9 A1 10 01 45 23 80  .......ov....E#.
0D50: F0 FF FF 7F F0 FF FF 7F  73 30 31 34 01 80 45 00  ........s014..E.
0D60: 80 F0 FF FF 7F F0 FF FF  7F 66 64 69 31 01 80 1C  .........fdi1...
0D70: 39 80 29 08 AC A1 10 01  07 29 08 AC A1 10 01 08  9.)......)......
0D80: 52 23 80 F0 FF FF 7F F0  FF FF 7F 73 30 31 34 45  R#.........s014E
0D90: 23 80 F0 FF FF 7F F0 FF  FF 7F 73 30 31 32 01 80  #.........s012..
0DA0: 79 00 F0 FF FF 7F AB A1  10 01 29 08 AB A1 10 01  y.........).....
0DB0: 01 2B AB A1 10 01 3A 80  23 52 23 80 F0 FF FF 7F  .+....:.#R#.....
0DC0: F0 FF FF 7F 73 30 31 32  02 09 10 1D 80 00 E4 0D  ....s012........
0DD0: 45 23 80 F0 FF FF 7F F0  FF FF 7F 73 30 31 39 01  E#.........s019.
0DE0: 80 01 11 0E 02 09 10 1E  80 00 00 0E 45 23 80 F0  ............E#..
0DF0: FF FF 7F F0 FF FF 7F 73  30 31 39 01 80 01 11 0E  .......s019.....
0E00: 45 23 80 F0 FF FF 7F F0  FF FF 7F 73 30 31 35 01  E#.........s015.
0E10: 80 29 08 AB A1 10 01 02  29 08 AB A1 10 01 03 2B  .)......)......+
0E20: AB A1 10 01 3B 80 23 29  08 AB A1 10 01 04 29 08  ....;.#)......).
0E30: AB A1 10 01 05 2B AB A1  10 01 3C 80 23 5D 01 80  .....+....<.#]..
0E40: 00 80 45 00 80 F0 FF FF  7F F0 FF FF 7F 66 64 6F  ..E..........fdo
0E50: 31 01 80 55 00 80 F0 FF  FF 7F F0 FF FF 7F 66 64  1..U..........fd
0E60: 6F 31 29 08 AB A1 10 01  06 02 09 10 1D 80 00 83  o1).............
0E70: 0E 52 23 80 F0 FF FF 7F  F0 FF FF 7F 73 30 31 39  .R#.........s019
0E80: 01 AC 0E 02 09 10 1E 80  00 9D 0E 52 23 80 F0 FF  ...........R#...
0E90: FF 7F F0 FF FF 7F 73 30  31 39 01 AC 0E 52 23 80  ......s019...R#.
0EA0: F0 FF FF 7F F0 FF FF 7F  73 30 31 35 45 21 80 F8  ........s015E!..
0EB0: FF FF 7F F8 FF FF 7F 71  73 74 63 01 80 5C 00 0C  .......qstc..\..
0EC0: 80 5C 01 0C 80 9A 5D 05  80 06 80 1C 22 80 46 00  .\....].....".F.
0ED0: 45 00 80 F0 FF FF 7F F0  FF FF 7F 66 64 69 31 01  E..........fdi1.
0EE0: 80 20 00 21 00                                    . .!.           
```

#### Opcodes

```
  0: 0x074E [0x42] SET_CLI_EVENT_CANCEL_DATA()
  1: 0x074F [0x46] CAMERA_CONTROL: Disable user control
  2: 0x0751 [0x45] LOAD_SCHEDULED_TASK: Load scheduler "fdo1" with entities [LocalPlayer, LocalPlayer], work=[200*, 0*]
  3: 0x0762 [0x55] WAIT_LOAD_SCHEDULER: Wait for scheduler "fdo1" with entities [LocalPlayer, LocalPlayer], work=200*
  4: 0x0771 [0x38] SET_CLIENT_EVENT_MODE(mode=19*)
  5: 0x0774 [0x5D] SET_MUSIC_VOLUME(volume=0*, fade_time=200*)
  6: 0x0779 [0x29] REQ_SET_WAIT(priority=0x08, entity_id=LocalPlayer, tag_num=0x1E)
  7: 0x0780 [0x29] REQ_SET_WAIT(priority=0x08, entity_id=Orsa-Porsa (ID: 17867180/0x0110A1AC), tag_num=0x13)
  8: 0x0787 [0x29] REQ_SET_WAIT(priority=0x08, entity_id=Udip Ferawoh (ID: 17867179/0x0110A1AB), tag_num=0x1D)
  9: 0x078E [0x4A] LocalPlayer looks at Udip Ferawoh (ID: 17867179/0x0110A1AB)
 10: 0x0797 [0x4A] Udip Ferawoh (ID: 17867179/0x0110A1AB) looks at LocalPlayer
 11: 0x07A0 [0x6F] WAIT_FRAME_DELAY: Yield until WaitTime reaches zero
 12: 0x07A1 [0x76] CHECK_ENTITY_RENDER_FLAGS: Wait until LocalPlayer Render.Flags0 and Render.Flags3 conditions are met
 13: 0x07A6 [0x6F] WAIT_FRAME_DELAY: Yield until WaitTime reaches zero
 14: 0x07A7 [0x76] CHECK_ENTITY_RENDER_FLAGS: Wait until Udip Ferawoh (ID: 17867179/0x0110A1AB) Render.Flags0 and Render.Flags3 conditions are met
 15: 0x07AC [0x92] Udip Ferawoh (ID: 17867179/0x0110A1AB)->Render.Flags3 ^= 0x01
 16: 0x07B2 [0x92] Toppled Tree (ID: 17867177/0x0110A1A9)->Render.Flags3 ^= 0x01
 17: 0x07B8 [0x92] Orsa-Porsa (ID: 17867180/0x0110A1AC)->Render.Flags3 ^= 0x01
 18: 0x07BE [0x29] REQ_SET_WAIT(priority=0x08, entity_id=LocalPlayer, tag_num=0x0F)
 19: 0x07C5 [0x5C] MUSIC_CONTROL: Set Idle (Day) music to song 120*
 20: 0x07C9 [0x5C] MUSIC_CONTROL: Set Idle (Night) music to song 120*
 21: 0x07CD [0x9A] WAIT_MUSIC_SERVER()
 22: 0x07CE [0x5D] SET_MUSIC_VOLUME(volume=127*, fade_time=1*)
 23: 0x07D3 [0x45] LOAD_SCHEDULED_TASK: Load scheduler "s001" with entities [LocalPlayer, LocalPlayer], work=[667*, 0*]
 24: 0x07E4 [0x45] LOAD_SCHEDULED_TASK: Load scheduler "fdi1" with entities [LocalPlayer, LocalPlayer], work=[200*, 0*]
 25: 0x07F5 [0x55] WAIT_LOAD_SCHEDULER: Wait for scheduler "fdi1" with entities [LocalPlayer, LocalPlayer], work=200*
 26: 0x0804 [0x27] REQ_SET(priority=0x08, entity_id=Udip Ferawoh (ID: 17867179/0x0110A1AB), tag_num=0x13)
 27: 0x080B [0x2B] Udip Ferawoh (ID: 17867179/0x0110A1AB) [7789*]:
    → "How did everything go? Do you rrremember who I am? More importantly, do you remember who you are?"
 28: 0x0812 [0x23] WAIT_FOR_DIALOG_INTERACTION
 29: 0x0813 [0x2B] Udip Ferawoh (ID: 17867179/0x0110A1AB) [7790*]:
    → "Hoho, that was a little joke. But better you see me in that state than those Velkk, hmm?"
 30: 0x081A [0x23] WAIT_FOR_DIALOG_INTERACTION
 31: 0x081B [0x2A] GET_REQ_LEVEL(level=8, entity_id=Udip Ferawoh (ID: 17867179/0x0110A1AB))
 32: 0x0821 [0x52] END_LOAD_SCHEDULER: End scheduler "s001" with entities [LocalPlayer, LocalPlayer], work=667*
 33: 0x0830 [0x02] IF !(Work_Zone[9] == 5*) GOTO 0x084C
 34: 0x0838 [0x45] LOAD_SCHEDULED_TASK: Load scheduler "s017" with entities [LocalPlayer, LocalPlayer], work=[667*, 0*]
 35: 0x0849 [0x01] GOTO 0x0879
 36: 0x084C [0x02] IF !(Work_Zone[9] == 6*) GOTO 0x0868
 37: 0x0854 [0x45] LOAD_SCHEDULED_TASK: Load scheduler "s017" with entities [LocalPlayer, LocalPlayer], work=[667*, 0*]
 38: 0x0865 [0x01] GOTO 0x0879
 39: 0x0868 [0x45] LOAD_SCHEDULED_TASK: Load scheduler "s002" with entities [LocalPlayer, LocalPlayer], work=[667*, 0*]

SUBROUTINE_0879:
 40: 0x0879 [0x29] REQ_SET_WAIT(priority=0x08, entity_id=Udip Ferawoh (ID: 17867179/0x0110A1AB), tag_num=0x09)
 41: 0x0880 [0x2B] Udip Ferawoh (ID: 17867179/0x0110A1AB) [7791*]:
    → "So tell me--what have you learrrned?"
 42: 0x0887 [0x23] WAIT_FOR_DIALOG_INTERACTION
 43: 0x0888 [0x29] REQ_SET_WAIT(priority=0x08, entity_id=Udip Ferawoh (ID: 17867179/0x0110A1AB), tag_num=0x0A)
 44: 0x088F [0x29] REQ_SET_WAIT(priority=0x08, entity_id=Udip Ferawoh (ID: 17867179/0x0110A1AB), tag_num=0x0B)
 45: 0x0896 [0x29] REQ_SET_WAIT(priority=0x08, entity_id=Toppled Tree (ID: 17867177/0x0110A1A9), tag_num=0x29)
 46: 0x089D [0x27] REQ_SET(priority=0x08, entity_id=Toppled Tree (ID: 17867177/0x0110A1A9), tag_num=0x2A)
 47: 0x08A4 [0x2B] Toppled Tree (ID: 17867177/0x0110A1A9) [7792*]:
    → "Hey, Udip! What kind of sick mind do you have to make this [man/woman] do your dangerous research for you?"
 48: 0x08AB [0x1C] WAIT(30* ticks)
 49: 0x08AE [0x79] Udip Ferawoh (ID: 17867179/0x0110A1AB) looks at Toppled Tree (ID: 17867177/0x0110A1A9) (Basic look)
 50: 0x08B8 [0x1C] WAIT(30* ticks)
 51: 0x08BB [0x02] IF !(Work_Zone[9] == 5*) GOTO 0x08D5
 52: 0x08C3 [0x52] END_LOAD_SCHEDULER: End scheduler "s017" with entities [LocalPlayer, LocalPlayer], work=667*
 53: 0x08D2 [0x01] GOTO 0x08FE
 54: 0x08D5 [0x02] IF !(Work_Zone[9] == 6*) GOTO 0x08EF
 55: 0x08DD [0x52] END_LOAD_SCHEDULER: End scheduler "s017" with entities [LocalPlayer, LocalPlayer], work=667*
 56: 0x08EC [0x01] GOTO 0x08FE
 57: 0x08EF [0x52] END_LOAD_SCHEDULER: End scheduler "s002" with entities [LocalPlayer, LocalPlayer], work=667*

SUBROUTINE_08FE:
 58: 0x08FE [0x45] LOAD_SCHEDULED_TASK: Load scheduler "s003" with entities [LocalPlayer, LocalPlayer], work=[667*, 0*]
 59: 0x090F [0x4A] LocalPlayer looks at Toppled Tree (ID: 17867177/0x0110A1A9)
 60: 0x0918 [0x6F] WAIT_FRAME_DELAY: Yield until WaitTime reaches zero
 61: 0x0919 [0x76] CHECK_ENTITY_RENDER_FLAGS: Wait until LocalPlayer Render.Flags0 and Render.Flags3 conditions are met
 62: 0x091E [0x1C] WAIT(90* ticks)
 63: 0x0921 [0x29] REQ_SET_WAIT(priority=0x08, entity_id=Udip Ferawoh (ID: 17867179/0x0110A1AB), tag_num=0x0C)
 64: 0x0928 [0x52] END_LOAD_SCHEDULER: End scheduler "s003" with entities [LocalPlayer, LocalPlayer], work=667*
 65: 0x0937 [0x45] LOAD_SCHEDULED_TASK: Load scheduler "s004" with entities [LocalPlayer, LocalPlayer], work=[667*, 0*]
 66: 0x0948 [0x23] WAIT_FOR_DIALOG_INTERACTION
 67: 0x0949 [0x2B] Toppled Tree (ID: 17867177/0x0110A1A9) [7793*]:
    → "C'mon, we've got to clean our friend up!"
 68: 0x0950 [0x23] WAIT_FOR_DIALOG_INTERACTION
 69: 0x0951 [0x2A] GET_REQ_LEVEL(level=8, entity_id=Toppled Tree (ID: 17867177/0x0110A1A9))
 70: 0x0957 [0x79] Toppled Tree (ID: 17867177/0x0110A1A9) looks at LocalPlayer (Basic look)
 71: 0x0961 [0x27] REQ_SET(priority=0x08, entity_id=Toppled Tree (ID: 17867177/0x0110A1A9), tag_num=0x2B)
 72: 0x0968 [0x1C] WAIT(50* ticks)
 73: 0x096B [0x52] END_LOAD_SCHEDULER: End scheduler "s004" with entities [LocalPlayer, LocalPlayer], work=667*
 74: 0x097A [0x45] LOAD_SCHEDULED_TASK: Load scheduler "s005" with entities [LocalPlayer, LocalPlayer], work=[667*, 0*]
 75: 0x098B [0x4E] SET_ENTITY_HIDE_FLAG: Hide LocalPlayer
 76: 0x0991 [0x2A] GET_REQ_LEVEL(level=8, entity_id=Toppled Tree (ID: 17867177/0x0110A1A9))
 77: 0x0997 [0x29] REQ_SET_WAIT(priority=0x08, entity_id=Toppled Tree (ID: 17867177/0x0110A1A9), tag_num=0x13)
 78: 0x099E [0x2B] Toppled Tree (ID: 17867177/0x0110A1A9) [7794*]:
    → "What odd wounds... You say you got them from the protuberances, right?"
 79: 0x09A5 [0x23] WAIT_FOR_DIALOG_INTERACTION
 80: 0x09A6 [0x29] REQ_SET_WAIT(priority=0x08, entity_id=Toppled Tree (ID: 17867177/0x0110A1A9), tag_num=0x14)
 81: 0x09AD [0x2B] Toppled Tree (ID: 17867177/0x0110A1A9) [7795*]:
    → "Hmm, hmm. Interesting. We've seen Velkk hide with similar markings."
 82: 0x09B4 [0x23] WAIT_FOR_DIALOG_INTERACTION
 83: 0x09B5 [0x4A] LocalPlayer looks at Udip Ferawoh (ID: 17867179/0x0110A1AB)
 84: 0x09BE [0x52] END_LOAD_SCHEDULER: End scheduler "s005" with entities [LocalPlayer, LocalPlayer], work=667*
 85: 0x09CD [0x02] IF !(Work_Zone[9] == 5*) GOTO 0x09E9
 86: 0x09D5 [0x45] LOAD_SCHEDULED_TASK: Load scheduler "s018" with entities [LocalPlayer, LocalPlayer], work=[667*, 0*]
 87: 0x09E6 [0x01] GOTO 0x0A16
 88: 0x09E9 [0x02] IF !(Work_Zone[9] == 6*) GOTO 0x0A05
 89: 0x09F1 [0x45] LOAD_SCHEDULED_TASK: Load scheduler "s018" with entities [LocalPlayer, LocalPlayer], work=[667*, 0*]
 90: 0x0A02 [0x01] GOTO 0x0A16
 91: 0x0A05 [0x45] LOAD_SCHEDULED_TASK: Load scheduler "s006" with entities [LocalPlayer, LocalPlayer], work=[667*, 0*]

SUBROUTINE_0A16:
 92: 0x0A16 [0x4E] SET_ENTITY_HIDE_FLAG: Show LocalPlayer
 93: 0x0A1C [0x79] LocalPlayer looks at Udip Ferawoh (ID: 17867179/0x0110A1AB) (Basic look)
 94: 0x0A26 [0x79] Toppled Tree (ID: 17867177/0x0110A1A9) looks at Udip Ferawoh (ID: 17867179/0x0110A1AB) (Basic look)
 95: 0x0A30 [0x27] REQ_SET(priority=0x08, entity_id=Toppled Tree (ID: 17867177/0x0110A1A9), tag_num=0x2C)
 96: 0x0A37 [0x2B] Udip Ferawoh (ID: 17867179/0x0110A1AB) [7796*]:
    → "But that would be Trrree's specialty, wouldn't it?"
 97: 0x0A3E [0x23] WAIT_FOR_DIALOG_INTERACTION
 98: 0x0A3F [0x2A] GET_REQ_LEVEL(level=8, entity_id=Toppled Tree (ID: 17867177/0x0110A1A9))
 99: 0x0A45 [0x29] REQ_SET_WAIT(priority=0x08, entity_id=Udip Ferawoh (ID: 17867179/0x0110A1AB), tag_num=0x0D)
100: 0x0A4C [0x2B] Udip Ferawoh (ID: 17867179/0x0110A1AB) [7797*]:
    → "Currriouser and currriouser. Do you suppose the Velkk have a habit of falling into their own traps?"
101: 0x0A53 [0x23] WAIT_FOR_DIALOG_INTERACTION
102: 0x0A54 [0x29] REQ_SET_WAIT(priority=0x08, entity_id=Udip Ferawoh (ID: 17867179/0x0110A1AB), tag_num=0x0E)
103: 0x0A5B [0x6F] WAIT_FRAME_DELAY: Yield until WaitTime reaches zero
104: 0x0A5C [0x76] CHECK_ENTITY_RENDER_FLAGS: Wait until LocalPlayer Render.Flags0 and Render.Flags3 conditions are met
105: 0x0A61 [0x79] Orsa-Porsa (ID: 17867180/0x0110A1AC) looks at Udip Ferawoh (ID: 17867179/0x0110A1AB) (Basic look)
106: 0x0A6B [0x27] REQ_SET(priority=0x08, entity_id=Orsa-Porsa (ID: 17867180/0x0110A1AC), tag_num=0x14)
107: 0x0A72 [0x1C] WAIT(20* ticks)
108: 0x0A75 [0x02] IF !(Work_Zone[9] == 5*) GOTO 0x0A8F
109: 0x0A7D [0x52] END_LOAD_SCHEDULER: End scheduler "s018" with entities [LocalPlayer, LocalPlayer], work=667*
110: 0x0A8C [0x01] GOTO 0x0AB8
111: 0x0A8F [0x02] IF !(Work_Zone[9] == 6*) GOTO 0x0AA9
112: 0x0A97 [0x52] END_LOAD_SCHEDULER: End scheduler "s018" with entities [LocalPlayer, LocalPlayer], work=667*
113: 0x0AA6 [0x01] GOTO 0x0AB8
114: 0x0AA9 [0x52] END_LOAD_SCHEDULER: End scheduler "s006" with entities [LocalPlayer, LocalPlayer], work=667*

SUBROUTINE_0AB8:
115: 0x0AB8 [0x45] LOAD_SCHEDULED_TASK: Load scheduler "s007" with entities [LocalPlayer, LocalPlayer], work=[667*, 0*]
116: 0x0AC9 [0x79] LocalPlayer looks at Orsa-Porsa (ID: 17867180/0x0110A1AC) (Basic look)
117: 0x0AD3 [0x79] Toppled Tree (ID: 17867177/0x0110A1A9) looks at Orsa-Porsa (ID: 17867180/0x0110A1AC) (Basic look)
118: 0x0ADD [0x29] REQ_SET_WAIT(priority=0x08, entity_id=Udip Ferawoh (ID: 17867179/0x0110A1AB), tag_num=0x0F)
119: 0x0AE4 [0x29] REQ_SET_WAIT(priority=0x08, entity_id=Udip Ferawoh (ID: 17867179/0x0110A1AB), tag_num=0x10)
120: 0x0AEB [0x4A] Udip Ferawoh (ID: 17867179/0x0110A1AB) looks at Orsa-Porsa (ID: 17867180/0x0110A1AC)
121: 0x0AF4 [0x2A] GET_REQ_LEVEL(level=8, entity_id=Orsa-Porsa (ID: 17867180/0x0110A1AC))
122: 0x0AFA [0x29] REQ_SET_WAIT(priority=0x08, entity_id=Orsa-Porsa (ID: 17867180/0x0110A1AC), tag_num=0x04)
123: 0x0B01 [0x2B] Orsa-Porsa (ID: 17867180/0x0110A1AC) [7798*]:
    → "You betaru! Those protuberances don't care who gets close. They're equal opportunity assailants!"
124: 0x0B08 [0x23] WAIT_FOR_DIALOG_INTERACTION
125: 0x0B09 [0x29] REQ_SET_WAIT(priority=0x08, entity_id=Orsa-Porsa (ID: 17867180/0x0110A1AC), tag_num=0x05)
126: 0x0B10 [0x52] END_LOAD_SCHEDULER: End scheduler "s007" with entities [LocalPlayer, LocalPlayer], work=667*
127: 0x0B1F [0x45] LOAD_SCHEDULED_TASK: Load scheduler "s011" with entities [LocalPlayer, LocalPlayer], work=[667*, 0*]
128: 0x0B30 [0x79] Udip Ferawoh (ID: 17867179/0x0110A1AB) looks at Orsa-Porsa (ID: 17867180/0x0110A1AC) (Basic look)
129: 0x0B3A [0x27] REQ_SET(priority=0x08, entity_id=Udip Ferawoh (ID: 17867179/0x0110A1AB), tag_num=0x11)
130: 0x0B41 [0x2B] Udip Ferawoh (ID: 17867179/0x0110A1AB) [7799*]:
    → "Orsa-Porsa!"
131: 0x0B48 [0x23] WAIT_FOR_DIALOG_INTERACTION
132: 0x0B49 [0x2A] GET_REQ_LEVEL(level=8, entity_id=Udip Ferawoh (ID: 17867179/0x0110A1AB))
133: 0x0B4F [0x52] END_LOAD_SCHEDULER: End scheduler "s011" with entities [LocalPlayer, LocalPlayer], work=667*
134: 0x0B5E [0x45] LOAD_SCHEDULED_TASK: Load scheduler "s013" with entities [LocalPlayer, LocalPlayer], work=[667*, 0*]
135: 0x0B6F [0x29] REQ_SET_WAIT(priority=0x08, entity_id=Toppled Tree (ID: 17867177/0x0110A1A9), tag_num=0x2D)
136: 0x0B76 [0x7B] Orsa-Porsa (ID: 17867180/0x0110A1AC) stops talking
137: 0x0B7B [0x29] REQ_SET_WAIT(priority=0x08, entity_id=Orsa-Porsa (ID: 17867180/0x0110A1AC), tag_num=0x0E)
138: 0x0B82 [0x2B] Orsa-Porsa (ID: 17867180/0x0110A1AC) [7800*]:
    → "I leave you alone for two minutarus, and just look at these juicy tidbits you dig up!"
139: 0x0B89 [0x23] WAIT_FOR_DIALOG_INTERACTION
140: 0x0B8A [0x2B] Orsa-Porsa (ID: 17867180/0x0110A1AC) [7801*]:
    → "And now here we are, your eyes glintaruing like you want to ask something of the master Velkk researcher."
141: 0x0B91 [0x23] WAIT_FOR_DIALOG_INTERACTION
142: 0x0B92 [0x29] REQ_SET_WAIT(priority=0x08, entity_id=Orsa-Porsa (ID: 17867180/0x0110A1AC), tag_num=0x0F)
143: 0x0B99 [0x52] END_LOAD_SCHEDULER: End scheduler "s013" with entities [LocalPlayer, LocalPlayer], work=667*
144: 0x0BA8 [0x45] LOAD_SCHEDULED_TASK: Load scheduler "s016" with entities [LocalPlayer, LocalPlayer], work=[667*, 0*]
145: 0x0BB9 [0x4A] LocalPlayer looks at Orsa-Porsa (ID: 17867180/0x0110A1AC)
146: 0x0BC2 [0x29] REQ_SET_WAIT(priority=0x08, entity_id=Orsa-Porsa (ID: 17867180/0x0110A1AC), tag_num=0x10)
147: 0x0BC9 [0x29] REQ_SET_WAIT(priority=0x08, entity_id=Udip Ferawoh (ID: 17867179/0x0110A1AB), tag_num=0x01)
148: 0x0BD0 [0x2B] Udip Ferawoh (ID: 17867179/0x0110A1AB) [7802*]:
    → "Well, since you're here... Have you ever seen a Velkk get caught in one of their own trrraps?"
149: 0x0BD7 [0x23] WAIT_FOR_DIALOG_INTERACTION
150: 0x0BD8 [0x29] REQ_SET_WAIT(priority=0x08, entity_id=Udip Ferawoh (ID: 17867179/0x0110A1AB), tag_num=0x02)
151: 0x0BDF [0x29] REQ_SET_WAIT(priority=0x08, entity_id=Udip Ferawoh (ID: 17867179/0x0110A1AB), tag_num=0x03)
152: 0x0BE6 [0x29] REQ_SET_WAIT(priority=0x08, entity_id=Orsa-Porsa (ID: 17867180/0x0110A1AC), tag_num=0x11)
153: 0x0BED [0x79] Orsa-Porsa (ID: 17867180/0x0110A1AC) looks at Udip Ferawoh (ID: 17867179/0x0110A1AB) (Basic look)
154: 0x0BF7 [0x6F] WAIT_FRAME_DELAY: Yield until WaitTime reaches zero
155: 0x0BF8 [0x76] CHECK_ENTITY_RENDER_FLAGS: Wait until LocalPlayer Render.Flags0 and Render.Flags3 conditions are met
156: 0x0BFD [0x52] END_LOAD_SCHEDULER: End scheduler "s016" with entities [LocalPlayer, LocalPlayer], work=667*
157: 0x0C0C [0x45] LOAD_SCHEDULED_TASK: Load scheduler "s008" with entities [LocalPlayer, LocalPlayer], work=[667*, 0*]
158: 0x0C1D [0x29] REQ_SET_WAIT(priority=0x08, entity_id=Orsa-Porsa (ID: 17867180/0x0110A1AC), tag_num=0x04)
159: 0x0C24 [0x2B] Orsa-Porsa (ID: 17867180/0x0110A1AC) [7803*]:
    → "You betaru your life! With my own two eyes!"
160: 0x0C2B [0x23] WAIT_FOR_DIALOG_INTERACTION
161: 0x0C2C [0x29] REQ_SET_WAIT(priority=0x08, entity_id=Orsa-Porsa (ID: 17867180/0x0110A1AC), tag_num=0x05)
162: 0x0C33 [0x29] REQ_SET_WAIT(priority=0x08, entity_id=Orsa-Porsa (ID: 17867180/0x0110A1AC), tag_num=0x0A)
163: 0x0C3A [0x2B] Orsa-Porsa (ID: 17867180/0x0110A1AC) [7804*]:
    → "I saw one with his eyes blinking faster than a heartwing flapping its, err...wings! And a spiky vine was wrappy-wapped around his legs! You should've seen the jig he was dancing!"
164: 0x0C41 [0x23] WAIT_FOR_DIALOG_INTERACTION
165: 0x0C42 [0x29] REQ_SET_WAIT(priority=0x08, entity_id=Orsa-Porsa (ID: 17867180/0x0110A1AC), tag_num=0x0B)
166: 0x0C49 [0x29] REQ_SET_WAIT(priority=0x08, entity_id=Orsa-Porsa (ID: 17867180/0x0110A1AC), tag_num=0x03)
167: 0x0C50 [0x27] REQ_SET(priority=0x08, entity_id=Udip Ferawoh (ID: 17867179/0x0110A1AB), tag_num=0x11)
168: 0x0C57 [0x2B] Udip Ferawoh (ID: 17867179/0x0110A1AB) [7805*]:
    → "Nyah-hah! That must be how they free themselves from the spinescent prrrotuberances!"
169: 0x0C5E [0x23] WAIT_FOR_DIALOG_INTERACTION
170: 0x0C5F [0x52] END_LOAD_SCHEDULER: End scheduler "s008" with entities [LocalPlayer, LocalPlayer], work=667*
171: 0x0C6E [0x45] LOAD_SCHEDULED_TASK: Load scheduler "s010" with entities [LocalPlayer, LocalPlayer], work=[667*, 0*]
172: 0x0C7F [0x4A] Orsa-Porsa (ID: 17867180/0x0110A1AC) looks at Toppled Tree (ID: 17867177/0x0110A1A9)
173: 0x0C88 [0x79] Udip Ferawoh (ID: 17867179/0x0110A1AB) looks at Toppled Tree (ID: 17867177/0x0110A1A9) (Basic look)
174: 0x0C92 [0x27] REQ_SET(priority=0x08, entity_id=Toppled Tree (ID: 17867177/0x0110A1A9), tag_num=0x2E)
175: 0x0C99 [0x2B] Toppled Tree (ID: 17867177/0x0110A1A9) [7806*]:
    → "Hey, O-P, you gotta tell us these things up front! Just what was he doing?"
176: 0x0CA0 [0x23] WAIT_FOR_DIALOG_INTERACTION
177: 0x0CA1 [0x2A] GET_REQ_LEVEL(level=8, entity_id=Toppled Tree (ID: 17867177/0x0110A1A9))
178: 0x0CA7 [0x2A] GET_REQ_LEVEL(level=8, entity_id=Udip Ferawoh (ID: 17867179/0x0110A1AB))
179: 0x0CAD [0x52] END_LOAD_SCHEDULER: End scheduler "s010" with entities [LocalPlayer, LocalPlayer], work=667*
180: 0x0CBC [0x45] LOAD_SCHEDULED_TASK: Load scheduler "s009" with entities [LocalPlayer, LocalPlayer], work=[667*, 0*]
181: 0x0CCD [0x7B] Orsa-Porsa (ID: 17867180/0x0110A1AC) stops talking
182: 0x0CD2 [0x29] REQ_SET_WAIT(priority=0x08, entity_id=Orsa-Porsa (ID: 17867180/0x0110A1AC), tag_num=0x0C)
183: 0x0CD9 [0x2B] Orsa-Porsa (ID: 17867180/0x0110A1AC) [7807*]:
    → "It went something like this...!"
184: 0x0CE0 [0x23] WAIT_FOR_DIALOG_INTERACTION
185: 0x0CE1 [0x45] LOAD_SCHEDULED_TASK: Load scheduler "fdo1" with entities [LocalPlayer, LocalPlayer], work=[200*, 0*]
186: 0x0CF2 [0x55] WAIT_LOAD_SCHEDULER: Wait for scheduler "fdo1" with entities [LocalPlayer, LocalPlayer], work=200*
187: 0x0D01 [0x29] REQ_SET_WAIT(priority=0x08, entity_id=Orsa-Porsa (ID: 17867180/0x0110A1AC), tag_num=0x0D)
188: 0x0D08 [0x52] END_LOAD_SCHEDULER: End scheduler "s009" with entities [LocalPlayer, LocalPlayer], work=667*
189: 0x0D17 [0x29] REQ_SET_WAIT(priority=0x08, entity_id=Toppled Tree (ID: 17867177/0x0110A1A9), tag_num=0x2F)
190: 0x0D1E [0x29] REQ_SET_WAIT(priority=0x08, entity_id=Orsa-Porsa (ID: 17867180/0x0110A1AC), tag_num=0x15)
191: 0x0D25 [0x29] REQ_SET_WAIT(priority=0x08, entity_id=Orsa-Porsa (ID: 17867180/0x0110A1AC), tag_num=0x06)
192: 0x0D2C [0x4A] Udip Ferawoh (ID: 17867179/0x0110A1AB) looks at LocalPlayer
193: 0x0D35 [0x4A] Orsa-Porsa (ID: 17867180/0x0110A1AC) looks at LocalPlayer
194: 0x0D3E [0x4A] Toppled Tree (ID: 17867177/0x0110A1A9) looks at Orsa-Porsa (ID: 17867180/0x0110A1AC)
195: 0x0D47 [0x6F] WAIT_FRAME_DELAY: Yield until WaitTime reaches zero
196: 0x0D48 [0x76] CHECK_ENTITY_RENDER_FLAGS: Wait until Toppled Tree (ID: 17867177/0x0110A1A9) Render.Flags0 and Render.Flags3 conditions are met
197: 0x0D4D [0x45] LOAD_SCHEDULED_TASK: Load scheduler "s014" with entities [LocalPlayer, LocalPlayer], work=[667*, 0*]
198: 0x0D5E [0x45] LOAD_SCHEDULED_TASK: Load scheduler "fdi1" with entities [LocalPlayer, LocalPlayer], work=[200*, 0*]
199: 0x0D6F [0x1C] WAIT(190* ticks)
200: 0x0D72 [0x29] REQ_SET_WAIT(priority=0x08, entity_id=Orsa-Porsa (ID: 17867180/0x0110A1AC), tag_num=0x07)
201: 0x0D79 [0x29] REQ_SET_WAIT(priority=0x08, entity_id=Orsa-Porsa (ID: 17867180/0x0110A1AC), tag_num=0x08)
202: 0x0D80 [0x52] END_LOAD_SCHEDULER: End scheduler "s014" with entities [LocalPlayer, LocalPlayer], work=667*
203: 0x0D8F [0x45] LOAD_SCHEDULED_TASK: Load scheduler "s012" with entities [LocalPlayer, LocalPlayer], work=[667*, 0*]
204: 0x0DA0 [0x79] LocalPlayer looks at Udip Ferawoh (ID: 17867179/0x0110A1AB) (Basic look)
205: 0x0DAA [0x29] REQ_SET_WAIT(priority=0x08, entity_id=Udip Ferawoh (ID: 17867179/0x0110A1AB), tag_num=0x01)
206: 0x0DB1 [0x2B] Udip Ferawoh (ID: 17867179/0x0110A1AB) [7808*]:
    → "Wow, to think I'd ever get to bear witness to such a rrremarkable display of dancing prowess! And he made it look so easy, too. Right, <Player>?"
207: 0x0DB8 [0x23] WAIT_FOR_DIALOG_INTERACTION
208: 0x0DB9 [0x52] END_LOAD_SCHEDULER: End scheduler "s012" with entities [LocalPlayer, LocalPlayer], work=667*
209: 0x0DC8 [0x02] IF !(Work_Zone[9] == 5*) GOTO 0x0DE4
210: 0x0DD0 [0x45] LOAD_SCHEDULED_TASK: Load scheduler "s019" with entities [LocalPlayer, LocalPlayer], work=[667*, 0*]
211: 0x0DE1 [0x01] GOTO 0x0E11
212: 0x0DE4 [0x02] IF !(Work_Zone[9] == 6*) GOTO 0x0E00
213: 0x0DEC [0x45] LOAD_SCHEDULED_TASK: Load scheduler "s019" with entities [LocalPlayer, LocalPlayer], work=[667*, 0*]
214: 0x0DFD [0x01] GOTO 0x0E11
215: 0x0E00 [0x45] LOAD_SCHEDULED_TASK: Load scheduler "s015" with entities [LocalPlayer, LocalPlayer], work=[667*, 0*]

SUBROUTINE_0E11:
216: 0x0E11 [0x29] REQ_SET_WAIT(priority=0x08, entity_id=Udip Ferawoh (ID: 17867179/0x0110A1AB), tag_num=0x02)
217: 0x0E18 [0x29] REQ_SET_WAIT(priority=0x08, entity_id=Udip Ferawoh (ID: 17867179/0x0110A1AB), tag_num=0x03)
218: 0x0E1F [0x2B] Udip Ferawoh (ID: 17867179/0x0110A1AB) [7809*]:
    → "Now those pesky protuberances will be nothing more than a small bump in the rrroad of progress!"
219: 0x0E26 [0x23] WAIT_FOR_DIALOG_INTERACTION
220: 0x0E27 [0x29] REQ_SET_WAIT(priority=0x08, entity_id=Udip Ferawoh (ID: 17867179/0x0110A1AB), tag_num=0x04)
221: 0x0E2E [0x29] REQ_SET_WAIT(priority=0x08, entity_id=Udip Ferawoh (ID: 17867179/0x0110A1AB), tag_num=0x05)
222: 0x0E35 [0x2B] Udip Ferawoh (ID: 17867179/0x0110A1AB) [7810*]:
    → "And what's more, we've got you to thank for this breakthrrrough. Much obliged!"
223: 0x0E3C [0x23] WAIT_FOR_DIALOG_INTERACTION
224: 0x0E3D [0x5D] SET_MUSIC_VOLUME(volume=0*, fade_time=200*)
225: 0x0E42 [0x45] LOAD_SCHEDULED_TASK: Load scheduler "fdo1" with entities [LocalPlayer, LocalPlayer], work=[200*, 0*]
226: 0x0E53 [0x55] WAIT_LOAD_SCHEDULER: Wait for scheduler "fdo1" with entities [LocalPlayer, LocalPlayer], work=200*
227: 0x0E62 [0x29] REQ_SET_WAIT(priority=0x08, entity_id=Udip Ferawoh (ID: 17867179/0x0110A1AB), tag_num=0x06)
228: 0x0E69 [0x02] IF !(Work_Zone[9] == 5*) GOTO 0x0E83
229: 0x0E71 [0x52] END_LOAD_SCHEDULER: End scheduler "s019" with entities [LocalPlayer, LocalPlayer], work=667*
230: 0x0E80 [0x01] GOTO 0x0EAC
231: 0x0E83 [0x02] IF !(Work_Zone[9] == 6*) GOTO 0x0E9D
232: 0x0E8B [0x52] END_LOAD_SCHEDULER: End scheduler "s019" with entities [LocalPlayer, LocalPlayer], work=667*
233: 0x0E9A [0x01] GOTO 0x0EAC
234: 0x0E9D [0x52] END_LOAD_SCHEDULER: End scheduler "s015" with entities [LocalPlayer, LocalPlayer], work=667*

SUBROUTINE_0EAC:
235: 0x0EAC [0x45] LOAD_SCHEDULED_TASK: Load scheduler "qstc" with entities [EventEntity, EventEntity], work=[201*, 0*]
236: 0x0EBD [0x5C] MUSIC_CONTROL: Set Idle (Day) music to song 60*
237: 0x0EC1 [0x5C] MUSIC_CONTROL: Set Idle (Night) music to song 60*
238: 0x0EC5 [0x9A] WAIT_MUSIC_SERVER()
239: 0x0EC6 [0x5D] SET_MUSIC_VOLUME(volume=127*, fade_time=1*)
240: 0x0ECB [0x1C] WAIT(2* ticks)
241: 0x0ECE [0x46] CAMERA_CONTROL: Restore default settings
242: 0x0ED0 [0x45] LOAD_SCHEDULED_TASK: Load scheduler "fdi1" with entities [LocalPlayer, LocalPlayer], work=[200*, 0*]
243: 0x0EE1 [0x20] SET_CLI_EVENT_UC_FLAG: Unlock player control
244: 0x0EE3 [0x21] END_EVENT
245: 0x0EE4 [0x00] END_REQSTACK()
```
