# 17867179 - Udip Ferawoh

## Common Data

| Field            | Value                    |
|------------------|--------------------------|
| Zone             | Marjami Ravine (ID: 266) |
| Block Size       | 956 bytes                |
| Total Events     | 30                       |
| References Count | 31                       |

## List of Events

| Event ID                   | Entrypoint   |   Size |   Instructions |
|----------------------------|--------------|--------|----------------|
| [65535](#event-65535)      | 0x0000       |      1 |              1 |
| [65535.1](#event-655351)   | 0x0001       |     16 |              2 |
| [65535.2](#event-655352)   | 0x0011       |     14 |              2 |
| [65535.3](#event-655353)   | 0x001F       |     16 |              2 |
| [65535.4](#event-655354)   | 0x002F       |     14 |              2 |
| [65535.5](#event-655355)   | 0x003D       |     16 |              2 |
| [65535.6](#event-655356)   | 0x004D       |     14 |              2 |
| [65535.7](#event-655357)   | 0x005B       |     16 |              2 |
| [65535.8](#event-655358)   | 0x006B       |     14 |              2 |
| [65535.9](#event-655359)   | 0x0079       |     16 |              2 |
| [65535.10](#event-6553510) | 0x0089       |     14 |              2 |
| [65535.11](#event-6553511) | 0x0097       |     16 |              2 |
| [65535.12](#event-6553512) | 0x00A7       |     14 |              2 |
| [65535.13](#event-6553513) | 0x00B5       |     16 |              2 |
| [65535.14](#event-6553514) | 0x00C5       |     14 |              2 |
| [65535.15](#event-6553515) | 0x00D3       |     16 |              2 |
| [65535.16](#event-6553516) | 0x00E3       |     14 |              2 |
| [65535.17](#event-6553517) | 0x00F1       |     16 |              4 |
| [65535.18](#event-6553518) | 0x0101       |     16 |              4 |
| [65535.19](#event-6553519) | 0x0111       |     16 |              4 |
| [65535.20](#event-6553520) | 0x0121       |     16 |              4 |
| [65535.21](#event-6553521) | 0x0131       |     16 |              4 |
| [9](#event-9)              | 0x0141       |     45 |             10 |
| [10](#event-10)            | 0x016E       |     45 |             10 |
| [53](#event-53)            | 0x019B       |     54 |             13 |
| [49](#event-49)            | 0x01D1       |    128 |             35 |
| [50](#event-50)            | 0x0251       |     49 |             12 |
| [52](#event-52)            | 0x0282       |     40 |             12 |
| [51](#event-51)            | 0x02AA       |      1 |              1 |
| [65535.22](#event-6553522) | 0x02AB       |     10 |              2 |

## DAT References (imed_data)

|   Index | Hex Value   |   Dec Value |
|---------|-------------|-------------|
|       0 | 0x00C7      |         199 |
|       1 | 0x007F      |         127 |
|       2 | 0x003B      |          59 |
|       3 | 0x0015      |          21 |
|       4 | 0x003C      |          60 |
|       5 | 0x0013      |          19 |
|       6 | 0x0007      |           7 |
|       7 | 0x0006      |           6 |
|       8 | 0x000B      |          11 |
|       9 | 0x0078      |         120 |
|      10 | 0x1E5D      |        7773 |
|      11 | 0x1E5E      |        7774 |
|      12 | 0x1E5F      |        7775 |
|      13 | 0x086D      |        2157 |
|      14 | 0x1E60      |        7776 |
|      15 | 0x1E61      |        7777 |
|      16 | 0x1E62      |        7778 |
|      17 | 0x1E63      |        7779 |
|      18 | 0x1E64      |        7780 |
|      19 | 0x1E65      |        7781 |
|      20 | 0x1E66      |        7782 |
|      21 | 0x1E67      |        7783 |
|      22 | 0x1E68      |        7784 |
|      23 | 0x1E69      |        7785 |
|      24 | 0x1E6A      |        7786 |
|      25 | 0x1E83      |        7811 |
|      26 | 0x1E84      |        7812 |
|      27 | 0x5A5B5     |      370101 |
|      28 | 0x22593     |      140691 |
|      29 | 0xFFFF19B2  |  4294908338 |
|      30 | 0x0C62      |        3170 |

## String References

- **7773**: Isn't this just wonderrrful? First the Velkk get in my way, and now thorn-covered ivy. The thought of those two together makes my fur stand on end.
- **7774**: Speaking of those beasts, keep your claws sharrrp. They've been known to wander up to the station from time to time.
- **7775**: Those cursed Velkk, always showing up to rrruin a good time.
- **7776**: If only you had $6, you might be able to lend a girrrl a hand...
- **7777**: You there, pioneer! You may have your paws full with some colonization prrroject or other, but I've got a small task for you.
- **7778**: No doubt you're familiar with the brrrutishness of the Velkk--but the ones here are a bit smarter than the rest.
- **7779**: Not only do they assault us with weapons and spells, but these annoyances even plant spinescent protuberances to impede our prrrogress!
- **7780**: One of the things damn near tore my tail to shrrreds! We've got to do something about it!
- **7781**: I rrresearched as much as I could, but there's a limit to how much can be done by myself.
- **7782**: My team suggested that since pioneers make a living going against the forces of nature, maybe we could hire one to deal with this prrrickly issue.
- **7783**: I know this idea must sound like claws scrrratching against metal, but I want you to suffer an amnesic attack from one of those things.
- **7784**: Did I say "an" amnesic attack? Because I meant five. That should do the trrrick.
- **7785**: Pioneers are grrreat for doing my dirty...I mean helping out those in need. In this case, what I need is for you to learn more about spinescent protuberances.
- **7786**: Suffer five amnesic attacks from those things and then come back here. Come on--what's the worrrst that could happen?

## Events

### Event 65535

#### Metadata

| Field        | Value   |
|--------------|---------|
| Entrypoint   | 0x0000  |
| Data Size    | 1 bytes |
| Instructions | 1       |

```
      00 01 02 03 04 05 06 07  08 09 0A 0B 0C 0D 0E 0F
      -- -- -- -- -- -- -- --  -- -- -- -- -- -- -- --
0000: 00                                                .               
```

#### Opcodes

```
  0: 0x0000 [0x00] END_REQSTACK()
```

### Event 65535.1

#### Metadata

| Field        | Value    |
|--------------|----------|
| Entrypoint   | 0x0001   |
| Data Size    | 16 bytes |
| Instructions | 2        |

```
      00 01 02 03 04 05 06 07  08 09 0A 0B 0C 0D 0E 0F
      -- -- -- -- -- -- -- --  -- -- -- -- -- -- -- --
0000:    66 00 80 F8 FF FF 7F  F8 FF FF 7F 74 6C 6B 30   f..........tlk0
0010: 00                                                .               
```

#### Opcodes

```
  0: 0x0001 [0x66] LOAD_EXT_SCHEDULER_MAIN: Load scheduler "tlk0" with entities [EventEntity, EventEntity], work=199*
  1: 0x0010 [0x00] END_REQSTACK()
```

### Event 65535.2

#### Metadata

| Field        | Value    |
|--------------|----------|
| Entrypoint   | 0x0011   |
| Data Size    | 14 bytes |
| Instructions | 2        |

```
      00 01 02 03 04 05 06 07  08 09 0A 0B 0C 0D 0E 0F
      -- -- -- -- -- -- -- --  -- -- -- -- -- -- -- --
0010:    53 F8 FF FF 7F F8 FF  FF 7F 74 6C 6B 30 00      S........tlk0. 
```

#### Opcodes

```
  0: 0x0011 [0x53] WAIT_SCHEDULER_TASK: Wait for scheduler "tlk0" with entities [EventEntity, EventEntity]
  1: 0x001E [0x00] END_REQSTACK()
```

### Event 65535.3

#### Metadata

| Field        | Value    |
|--------------|----------|
| Entrypoint   | 0x001F   |
| Data Size    | 16 bytes |
| Instructions | 2        |

```
      00 01 02 03 04 05 06 07  08 09 0A 0B 0C 0D 0E 0F
      -- -- -- -- -- -- -- --  -- -- -- -- -- -- -- --
0010:                                               66                 f
0020: 00 80 F8 FF FF 7F F8 FF  FF 7F 74 6C 6B 31 00     ..........tlk1. 
```

#### Opcodes

```
  0: 0x001F [0x66] LOAD_EXT_SCHEDULER_MAIN: Load scheduler "tlk1" with entities [EventEntity, EventEntity], work=199*
  1: 0x002E [0x00] END_REQSTACK()
```

### Event 65535.4

#### Metadata

| Field        | Value    |
|--------------|----------|
| Entrypoint   | 0x002F   |
| Data Size    | 14 bytes |
| Instructions | 2        |

```
      00 01 02 03 04 05 06 07  08 09 0A 0B 0C 0D 0E 0F
      -- -- -- -- -- -- -- --  -- -- -- -- -- -- -- --
0020:                                               53                 S
0030: F8 FF FF 7F F8 FF FF 7F  74 6C 6B 31 00           ........tlk1.   
```

#### Opcodes

```
  0: 0x002F [0x53] WAIT_SCHEDULER_TASK: Wait for scheduler "tlk1" with entities [EventEntity, EventEntity]
  1: 0x003C [0x00] END_REQSTACK()
```

### Event 65535.5

#### Metadata

| Field        | Value    |
|--------------|----------|
| Entrypoint   | 0x003D   |
| Data Size    | 16 bytes |
| Instructions | 2        |

```
      00 01 02 03 04 05 06 07  08 09 0A 0B 0C 0D 0E 0F
      -- -- -- -- -- -- -- --  -- -- -- -- -- -- -- --
0030:                                         66 01 80               f..
0040: F8 FF FF 7F F8 FF FF 7F  70 61 73 30 00           ........pas0.   
```

#### Opcodes

```
  0: 0x003D [0x66] LOAD_EXT_SCHEDULER_MAIN: Load scheduler "pas0" with entities [EventEntity, EventEntity], work=127*
  1: 0x004C [0x00] END_REQSTACK()
```

### Event 65535.6

#### Metadata

| Field        | Value    |
|--------------|----------|
| Entrypoint   | 0x004D   |
| Data Size    | 14 bytes |
| Instructions | 2        |

```
      00 01 02 03 04 05 06 07  08 09 0A 0B 0C 0D 0E 0F
      -- -- -- -- -- -- -- --  -- -- -- -- -- -- -- --
0040:                                         53 F8 FF               S..
0050: FF 7F F8 FF FF 7F 70 61  73 30 00                 ......pas0.     
```

#### Opcodes

```
  0: 0x004D [0x53] WAIT_SCHEDULER_TASK: Wait for scheduler "pas0" with entities [EventEntity, EventEntity]
  1: 0x005A [0x00] END_REQSTACK()
```

### Event 65535.7

#### Metadata

| Field        | Value    |
|--------------|----------|
| Entrypoint   | 0x005B   |
| Data Size    | 16 bytes |
| Instructions | 2        |

```
      00 01 02 03 04 05 06 07  08 09 0A 0B 0C 0D 0E 0F
      -- -- -- -- -- -- -- --  -- -- -- -- -- -- -- --
0050:                                   66 01 80 F8 FF             f....
0060: FF 7F F8 FF FF 7F 73 69  6E 62 00                 ......sinb.     
```

#### Opcodes

```
  0: 0x005B [0x66] LOAD_EXT_SCHEDULER_MAIN: Load scheduler "sinb" with entities [EventEntity, EventEntity], work=127*
  1: 0x006A [0x00] END_REQSTACK()
```

### Event 65535.8

#### Metadata

| Field        | Value    |
|--------------|----------|
| Entrypoint   | 0x006B   |
| Data Size    | 14 bytes |
| Instructions | 2        |

```
      00 01 02 03 04 05 06 07  08 09 0A 0B 0C 0D 0E 0F
      -- -- -- -- -- -- -- --  -- -- -- -- -- -- -- --
0060:                                   53 F8 FF FF 7F             S....
0070: F8 FF FF 7F 73 69 6E 62  00                       ....sinb.       
```

#### Opcodes

```
  0: 0x006B [0x53] WAIT_SCHEDULER_TASK: Wait for scheduler "sinb" with entities [EventEntity, EventEntity]
  1: 0x0078 [0x00] END_REQSTACK()
```

### Event 65535.9

#### Metadata

| Field        | Value    |
|--------------|----------|
| Entrypoint   | 0x0079   |
| Data Size    | 16 bytes |
| Instructions | 2        |

```
      00 01 02 03 04 05 06 07  08 09 0A 0B 0C 0D 0E 0F
      -- -- -- -- -- -- -- --  -- -- -- -- -- -- -- --
0070:                             66 02 80 F8 FF FF 7F           f......
0080: F8 FF FF 7F 74 6C 6B 30  00                       ....tlk0.       
```

#### Opcodes

```
  0: 0x0079 [0x66] LOAD_EXT_SCHEDULER_MAIN: Load scheduler "tlk0" with entities [EventEntity, EventEntity], work=59*
  1: 0x0088 [0x00] END_REQSTACK()
```

### Event 65535.10

#### Metadata

| Field        | Value    |
|--------------|----------|
| Entrypoint   | 0x0089   |
| Data Size    | 14 bytes |
| Instructions | 2        |

```
      00 01 02 03 04 05 06 07  08 09 0A 0B 0C 0D 0E 0F
      -- -- -- -- -- -- -- --  -- -- -- -- -- -- -- --
0080:                             53 F8 FF FF 7F F8 FF           S......
0090: FF 7F 74 6C 6B 30 00                              ..tlk0.         
```

#### Opcodes

```
  0: 0x0089 [0x53] WAIT_SCHEDULER_TASK: Wait for scheduler "tlk0" with entities [EventEntity, EventEntity]
  1: 0x0096 [0x00] END_REQSTACK()
```

### Event 65535.11

#### Metadata

| Field        | Value    |
|--------------|----------|
| Entrypoint   | 0x0097   |
| Data Size    | 16 bytes |
| Instructions | 2        |

```
      00 01 02 03 04 05 06 07  08 09 0A 0B 0C 0D 0E 0F
      -- -- -- -- -- -- -- --  -- -- -- -- -- -- -- --
0090:                      66  02 80 F8 FF FF 7F F8 FF         f........
00A0: FF 7F 74 6C 6B 31 00                              ..tlk1.         
```

#### Opcodes

```
  0: 0x0097 [0x66] LOAD_EXT_SCHEDULER_MAIN: Load scheduler "tlk1" with entities [EventEntity, EventEntity], work=59*
  1: 0x00A6 [0x00] END_REQSTACK()
```

### Event 65535.12

#### Metadata

| Field        | Value    |
|--------------|----------|
| Entrypoint   | 0x00A7   |
| Data Size    | 14 bytes |
| Instructions | 2        |

```
      00 01 02 03 04 05 06 07  08 09 0A 0B 0C 0D 0E 0F
      -- -- -- -- -- -- -- --  -- -- -- -- -- -- -- --
00A0:                      53  F8 FF FF 7F F8 FF FF 7F         S........
00B0: 74 6C 6B 31 00                                    tlk1.           
```

#### Opcodes

```
  0: 0x00A7 [0x53] WAIT_SCHEDULER_TASK: Wait for scheduler "tlk1" with entities [EventEntity, EventEntity]
  1: 0x00B4 [0x00] END_REQSTACK()
```

### Event 65535.13

#### Metadata

| Field        | Value    |
|--------------|----------|
| Entrypoint   | 0x00B5   |
| Data Size    | 16 bytes |
| Instructions | 2        |

```
      00 01 02 03 04 05 06 07  08 09 0A 0B 0C 0D 0E 0F
      -- -- -- -- -- -- -- --  -- -- -- -- -- -- -- --
00B0:                66 02 80  F8 FF FF 7F F8 FF FF 7F       f..........
00C0: 74 68 6B 31 00                                    thk1.           
```

#### Opcodes

```
  0: 0x00B5 [0x66] LOAD_EXT_SCHEDULER_MAIN: Load scheduler "thk1" with entities [EventEntity, EventEntity], work=59*
  1: 0x00C4 [0x00] END_REQSTACK()
```

### Event 65535.14

#### Metadata

| Field        | Value    |
|--------------|----------|
| Entrypoint   | 0x00C5   |
| Data Size    | 14 bytes |
| Instructions | 2        |

```
      00 01 02 03 04 05 06 07  08 09 0A 0B 0C 0D 0E 0F
      -- -- -- -- -- -- -- --  -- -- -- -- -- -- -- --
00C0:                53 F8 FF  FF 7F F8 FF FF 7F 74 68       S........th
00D0: 6B 31 00                                          k1.             
```

#### Opcodes

```
  0: 0x00C5 [0x53] WAIT_SCHEDULER_TASK: Wait for scheduler "thk1" with entities [EventEntity, EventEntity]
  1: 0x00D2 [0x00] END_REQSTACK()
```

### Event 65535.15

#### Metadata

| Field        | Value    |
|--------------|----------|
| Entrypoint   | 0x00D3   |
| Data Size    | 16 bytes |
| Instructions | 2        |

```
      00 01 02 03 04 05 06 07  08 09 0A 0B 0C 0D 0E 0F
      -- -- -- -- -- -- -- --  -- -- -- -- -- -- -- --
00D0:          66 02 80 F8 FF  FF 7F F8 FF FF 7F 74 68     f..........th
00E0: 6B 32 00                                          k2.             
```

#### Opcodes

```
  0: 0x00D3 [0x66] LOAD_EXT_SCHEDULER_MAIN: Load scheduler "thk2" with entities [EventEntity, EventEntity], work=59*
  1: 0x00E2 [0x00] END_REQSTACK()
```

### Event 65535.16

#### Metadata

| Field        | Value    |
|--------------|----------|
| Entrypoint   | 0x00E3   |
| Data Size    | 14 bytes |
| Instructions | 2        |

```
      00 01 02 03 04 05 06 07  08 09 0A 0B 0C 0D 0E 0F
      -- -- -- -- -- -- -- --  -- -- -- -- -- -- -- --
00E0:          53 F8 FF FF 7F  F8 FF FF 7F 74 68 6B 32     S........thk2
00F0: 00                                                .               
```

#### Opcodes

```
  0: 0x00E3 [0x53] WAIT_SCHEDULER_TASK: Wait for scheduler "thk2" with entities [EventEntity, EventEntity]
  1: 0x00F0 [0x00] END_REQSTACK()
```

### Event 65535.17

#### Metadata

| Field        | Value    |
|--------------|----------|
| Entrypoint   | 0x00F1   |
| Data Size    | 16 bytes |
| Instructions | 4        |

```
      00 01 02 03 04 05 06 07  08 09 0A 0B 0C 0D 0E 0F
      -- -- -- -- -- -- -- --  -- -- -- -- -- -- -- --
00F0:    6E F8 FF FF 7F 03 80  99 F8 FF FF 7F 1C 04 80   n..............
0100: 00                                                .               
```

#### Opcodes

```
  0: 0x00F1 [0x6E] EventEntity uses emote 21*
  1: 0x00F8 [0x99] Wait for EventEntity animation to complete
  2: 0x00FD [0x1C] WAIT(60* ticks)
  3: 0x0100 [0x00] END_REQSTACK()
```

### Event 65535.18

#### Metadata

| Field        | Value    |
|--------------|----------|
| Entrypoint   | 0x0101   |
| Data Size    | 16 bytes |
| Instructions | 4        |

```
      00 01 02 03 04 05 06 07  08 09 0A 0B 0C 0D 0E 0F
      -- -- -- -- -- -- -- --  -- -- -- -- -- -- -- --
0100:    6E F8 FF FF 7F 05 80  99 F8 FF FF 7F 1C 04 80   n..............
0110: 00                                                .               
```

#### Opcodes

```
  0: 0x0101 [0x6E] EventEntity uses emote 19*
  1: 0x0108 [0x99] Wait for EventEntity animation to complete
  2: 0x010D [0x1C] WAIT(60* ticks)
  3: 0x0110 [0x00] END_REQSTACK()
```

### Event 65535.19

#### Metadata

| Field        | Value    |
|--------------|----------|
| Entrypoint   | 0x0111   |
| Data Size    | 16 bytes |
| Instructions | 4        |

```
      00 01 02 03 04 05 06 07  08 09 0A 0B 0C 0D 0E 0F
      -- -- -- -- -- -- -- --  -- -- -- -- -- -- -- --
0110:    6E F8 FF FF 7F 06 80  99 F8 FF FF 7F 1C 04 80   n..............
0120: 00                                                .               
```

#### Opcodes

```
  0: 0x0111 [0x6E] EventEntity uses emote 7*
  1: 0x0118 [0x99] Wait for EventEntity animation to complete
  2: 0x011D [0x1C] WAIT(60* ticks)
  3: 0x0120 [0x00] END_REQSTACK()
```

### Event 65535.20

#### Metadata

| Field        | Value    |
|--------------|----------|
| Entrypoint   | 0x0121   |
| Data Size    | 16 bytes |
| Instructions | 4        |

```
      00 01 02 03 04 05 06 07  08 09 0A 0B 0C 0D 0E 0F
      -- -- -- -- -- -- -- --  -- -- -- -- -- -- -- --
0120:    6E F8 FF FF 7F 07 80  99 F8 FF FF 7F 1C 04 80   n..............
0130: 00                                                .               
```

#### Opcodes

```
  0: 0x0121 [0x6E] EventEntity uses emote 6*
  1: 0x0128 [0x99] Wait for EventEntity animation to complete
  2: 0x012D [0x1C] WAIT(60* ticks)
  3: 0x0130 [0x00] END_REQSTACK()
```

### Event 65535.21

#### Metadata

| Field        | Value    |
|--------------|----------|
| Entrypoint   | 0x0131   |
| Data Size    | 16 bytes |
| Instructions | 4        |

```
      00 01 02 03 04 05 06 07  08 09 0A 0B 0C 0D 0E 0F
      -- -- -- -- -- -- -- --  -- -- -- -- -- -- -- --
0130:    6E F8 FF FF 7F 08 80  99 F8 FF FF 7F 1C 09 80   n..............
0140: 00                                                .               
```

#### Opcodes

```
  0: 0x0131 [0x6E] EventEntity uses emote 11*
  1: 0x0138 [0x99] Wait for EventEntity animation to complete
  2: 0x013D [0x1C] WAIT(120* ticks)
  3: 0x0140 [0x00] END_REQSTACK()
```

### Event 9

#### Metadata

| Field        | Value    |
|--------------|----------|
| Entrypoint   | 0x0141   |
| Data Size    | 45 bytes |
| Instructions | 10       |

```
      00 01 02 03 04 05 06 07  08 09 0A 0B 0C 0D 0E 0F
      -- -- -- -- -- -- -- --  -- -- -- -- -- -- -- --
0140:    1E F0 FF FF 7F 6F 70  66 00 80 F8 FF FF 7F F8   .....opf.......
0150: FF FF 7F 74 6C 6B 30 1D  0A 80 23 66 00 80 F8 FF  ...tlk0...#f....
0160: FF 7F F8 FF FF 7F 74 6C  6B 31 20 00 21 00        ......tlk1 .!.  
```

#### Opcodes

```
  0: 0x0141 [0x1E] EventEntity looks at LocalPlayer and starts talking
  1: 0x0146 [0x6F] WAIT_FRAME_DELAY: Yield until WaitTime reaches zero
  2: 0x0147 [0x70] WAIT_ENTITY_RENDER_FLAG: Wait while EventEntity->Render.Flags3 bit 2 is set (cancel turn if not)
  3: 0x0148 [0x66] LOAD_EXT_SCHEDULER_MAIN: Load scheduler "tlk0" with entities [EventEntity, EventEntity], work=199*
  4: 0x0157 [0x1D] PRINT_EVENT_MESSAGE(message_id=7773*)
    → "Isn't this just wonderrrful? First the Velkk get in my way, and now thorn-covered ivy. The thought of those two together makes my fur stand on end."
  5: 0x015A [0x23] WAIT_FOR_DIALOG_INTERACTION
  6: 0x015B [0x66] LOAD_EXT_SCHEDULER_MAIN: Load scheduler "tlk1" with entities [EventEntity, EventEntity], work=199*
  7: 0x016A [0x20] SET_CLI_EVENT_UC_FLAG: Unlock player control
  8: 0x016C [0x21] END_EVENT
  9: 0x016D [0x00] END_REQSTACK()
```

### Event 10

#### Metadata

| Field        | Value    |
|--------------|----------|
| Entrypoint   | 0x016E   |
| Data Size    | 45 bytes |
| Instructions | 10       |

```
      00 01 02 03 04 05 06 07  08 09 0A 0B 0C 0D 0E 0F
      -- -- -- -- -- -- -- --  -- -- -- -- -- -- -- --
0160:                                            1E F0                ..
0170: FF FF 7F 6F 70 66 00 80  F8 FF FF 7F F8 FF FF 7F  ...opf..........
0180: 74 6C 6B 30 1D 0B 80 23  66 00 80 F8 FF FF 7F F8  tlk0...#f.......
0190: FF FF 7F 74 6C 6B 31 20  00 21 00                 ...tlk1 .!.     
```

#### Opcodes

```
  0: 0x016E [0x1E] EventEntity looks at LocalPlayer and starts talking
  1: 0x0173 [0x6F] WAIT_FRAME_DELAY: Yield until WaitTime reaches zero
  2: 0x0174 [0x70] WAIT_ENTITY_RENDER_FLAG: Wait while EventEntity->Render.Flags3 bit 2 is set (cancel turn if not)
  3: 0x0175 [0x66] LOAD_EXT_SCHEDULER_MAIN: Load scheduler "tlk0" with entities [EventEntity, EventEntity], work=199*
  4: 0x0184 [0x1D] PRINT_EVENT_MESSAGE(message_id=7774*)
    → "Speaking of those beasts, keep your claws sharrrp. They've been known to wander up to the station from time to time."
  5: 0x0187 [0x23] WAIT_FOR_DIALOG_INTERACTION
  6: 0x0188 [0x66] LOAD_EXT_SCHEDULER_MAIN: Load scheduler "tlk1" with entities [EventEntity, EventEntity], work=199*
  7: 0x0197 [0x20] SET_CLI_EVENT_UC_FLAG: Unlock player control
  8: 0x0199 [0x21] END_EVENT
  9: 0x019A [0x00] END_REQSTACK()
```

### Event 53

#### Metadata

| Field        | Value    |
|--------------|----------|
| Entrypoint   | 0x019B   |
| Data Size    | 54 bytes |
| Instructions | 13       |

```
      00 01 02 03 04 05 06 07  08 09 0A 0B 0C 0D 0E 0F
      -- -- -- -- -- -- -- --  -- -- -- -- -- -- -- --
0190:                                   1E F0 FF FF 7F             .....
01A0: 6F 70 66 00 80 F8 FF FF  7F F8 FF FF 7F 74 6C 6B  opf..........tlk
01B0: 30 1D 0C 80 23 03 02 10  0D 80 1D 0E 80 23 66 00  0...#........#f.
01C0: 80 F8 FF FF 7F F8 FF FF  7F 74 6C 6B 31 20 00 21  .........tlk1 .!
01D0: 00                                                .               
```

#### Opcodes

```
  0: 0x019B [0x1E] EventEntity looks at LocalPlayer and starts talking
  1: 0x01A0 [0x6F] WAIT_FRAME_DELAY: Yield until WaitTime reaches zero
  2: 0x01A1 [0x70] WAIT_ENTITY_RENDER_FLAG: Wait while EventEntity->Render.Flags3 bit 2 is set (cancel turn if not)
  3: 0x01A2 [0x66] LOAD_EXT_SCHEDULER_MAIN: Load scheduler "tlk0" with entities [EventEntity, EventEntity], work=199*
  4: 0x01B1 [0x1D] PRINT_EVENT_MESSAGE(message_id=7775*)
    → "Those cursed Velkk, always showing up to rrruin a good time."
  5: 0x01B4 [0x23] WAIT_FOR_DIALOG_INTERACTION
  6: 0x01B5 [0x03] Work_Zone[2] = 2157*
  7: 0x01BA [0x1D] PRINT_EVENT_MESSAGE(message_id=7776*)
    → "If only you had $6, you might be able to lend a girrrl a hand..."
  8: 0x01BD [0x23] WAIT_FOR_DIALOG_INTERACTION
  9: 0x01BE [0x66] LOAD_EXT_SCHEDULER_MAIN: Load scheduler "tlk1" with entities [EventEntity, EventEntity], work=199*
 10: 0x01CD [0x20] SET_CLI_EVENT_UC_FLAG: Unlock player control
 11: 0x01CF [0x21] END_EVENT
 12: 0x01D0 [0x00] END_REQSTACK()
```

### Event 49

#### Metadata

| Field        | Value     |
|--------------|-----------|
| Entrypoint   | 0x01D1    |
| Data Size    | 128 bytes |
| Instructions | 35        |

```
      00 01 02 03 04 05 06 07  08 09 0A 0B 0C 0D 0E 0F
      -- -- -- -- -- -- -- --  -- -- -- -- -- -- -- --
01D0:    42 1E F0 FF FF 7F 6F  70 29 08 AB A1 10 01 01   B.....op)......
01E0: 1D 0F 80 23 1D 10 80 23  29 08 AB A1 10 01 02 29  ...#...#)......)
01F0: 08 AB A1 10 01 03 1D 11  80 23 29 08 AB A1 10 01  .........#).....
0200: 04 29 08 AB A1 10 01 0D  1D 12 80 23 29 08 AB A1  .).........#)...
0210: 10 01 0E 29 08 AB A1 10  01 0F 1D 13 80 23 29 08  ...).........#).
0220: AB A1 10 01 10 29 08 AB  A1 10 01 09 1D 14 80 23  .....).........#
0230: 1D 15 80 23 29 08 AB A1  10 01 0A 29 08 AB A1 10  ...#)......)....
0240: 01 0B 1D 16 80 23 29 08  AB A1 10 01 0C 20 00 21  .....#)...... .!
0250: 00                                                .               
```

#### Opcodes

```
  0: 0x01D1 [0x42] SET_CLI_EVENT_CANCEL_DATA()
  1: 0x01D2 [0x1E] EventEntity looks at LocalPlayer and starts talking
  2: 0x01D7 [0x6F] WAIT_FRAME_DELAY: Yield until WaitTime reaches zero
  3: 0x01D8 [0x70] WAIT_ENTITY_RENDER_FLAG: Wait while EventEntity->Render.Flags3 bit 2 is set (cancel turn if not)
  4: 0x01D9 [0x29] REQ_SET_WAIT(priority=0x08, entity_id=Udip Ferawoh (ID: 17867179/0x0110A1AB), tag_num=0x01)
  5: 0x01E0 [0x1D] PRINT_EVENT_MESSAGE(message_id=7777*)
    → "You there, pioneer! You may have your paws full with some colonization prrroject or other, but I've got a small task for you."
  6: 0x01E3 [0x23] WAIT_FOR_DIALOG_INTERACTION
  7: 0x01E4 [0x1D] PRINT_EVENT_MESSAGE(message_id=7778*)
    → "No doubt you're familiar with the brrrutishness of the Velkk--but the ones here are a bit smarter than the rest."
  8: 0x01E7 [0x23] WAIT_FOR_DIALOG_INTERACTION
  9: 0x01E8 [0x29] REQ_SET_WAIT(priority=0x08, entity_id=Udip Ferawoh (ID: 17867179/0x0110A1AB), tag_num=0x02)
 10: 0x01EF [0x29] REQ_SET_WAIT(priority=0x08, entity_id=Udip Ferawoh (ID: 17867179/0x0110A1AB), tag_num=0x03)
 11: 0x01F6 [0x1D] PRINT_EVENT_MESSAGE(message_id=7779*)
    → "Not only do they assault us with weapons and spells, but these annoyances even plant spinescent protuberances to impede our prrrogress!"
 12: 0x01F9 [0x23] WAIT_FOR_DIALOG_INTERACTION
 13: 0x01FA [0x29] REQ_SET_WAIT(priority=0x08, entity_id=Udip Ferawoh (ID: 17867179/0x0110A1AB), tag_num=0x04)
 14: 0x0201 [0x29] REQ_SET_WAIT(priority=0x08, entity_id=Udip Ferawoh (ID: 17867179/0x0110A1AB), tag_num=0x0D)
 15: 0x0208 [0x1D] PRINT_EVENT_MESSAGE(message_id=7780*)
    → "One of the things damn near tore my tail to shrrreds! We've got to do something about it!"
 16: 0x020B [0x23] WAIT_FOR_DIALOG_INTERACTION
 17: 0x020C [0x29] REQ_SET_WAIT(priority=0x08, entity_id=Udip Ferawoh (ID: 17867179/0x0110A1AB), tag_num=0x0E)
 18: 0x0213 [0x29] REQ_SET_WAIT(priority=0x08, entity_id=Udip Ferawoh (ID: 17867179/0x0110A1AB), tag_num=0x0F)
 19: 0x021A [0x1D] PRINT_EVENT_MESSAGE(message_id=7781*)
    → "I rrresearched as much as I could, but there's a limit to how much can be done by myself."
 20: 0x021D [0x23] WAIT_FOR_DIALOG_INTERACTION
 21: 0x021E [0x29] REQ_SET_WAIT(priority=0x08, entity_id=Udip Ferawoh (ID: 17867179/0x0110A1AB), tag_num=0x10)
 22: 0x0225 [0x29] REQ_SET_WAIT(priority=0x08, entity_id=Udip Ferawoh (ID: 17867179/0x0110A1AB), tag_num=0x09)
 23: 0x022C [0x1D] PRINT_EVENT_MESSAGE(message_id=7782*)
    → "My team suggested that since pioneers make a living going against the forces of nature, maybe we could hire one to deal with this prrrickly issue."
 24: 0x022F [0x23] WAIT_FOR_DIALOG_INTERACTION
 25: 0x0230 [0x1D] PRINT_EVENT_MESSAGE(message_id=7783*)
    → "I know this idea must sound like claws scrrratching against metal, but I want you to suffer an amnesic attack from one of those things."
 26: 0x0233 [0x23] WAIT_FOR_DIALOG_INTERACTION
 27: 0x0234 [0x29] REQ_SET_WAIT(priority=0x08, entity_id=Udip Ferawoh (ID: 17867179/0x0110A1AB), tag_num=0x0A)
 28: 0x023B [0x29] REQ_SET_WAIT(priority=0x08, entity_id=Udip Ferawoh (ID: 17867179/0x0110A1AB), tag_num=0x0B)
 29: 0x0242 [0x1D] PRINT_EVENT_MESSAGE(message_id=7784*)
    → "Did I say "an" amnesic attack? Because I meant five. That should do the trrrick."
 30: 0x0245 [0x23] WAIT_FOR_DIALOG_INTERACTION
 31: 0x0246 [0x29] REQ_SET_WAIT(priority=0x08, entity_id=Udip Ferawoh (ID: 17867179/0x0110A1AB), tag_num=0x0C)
 32: 0x024D [0x20] SET_CLI_EVENT_UC_FLAG: Unlock player control
 33: 0x024F [0x21] END_EVENT
 34: 0x0250 [0x00] END_REQSTACK()
```

### Event 50

#### Metadata

| Field        | Value    |
|--------------|----------|
| Entrypoint   | 0x0251   |
| Data Size    | 49 bytes |
| Instructions | 12       |

```
      00 01 02 03 04 05 06 07  08 09 0A 0B 0C 0D 0E 0F
      -- -- -- -- -- -- -- --  -- -- -- -- -- -- -- --
0250:    1E F0 FF FF 7F 6F 70  66 00 80 F8 FF FF 7F F8   .....opf.......
0260: FF FF 7F 74 6C 6B 30 1D  17 80 23 1D 18 80 23 66  ...tlk0...#...#f
0270: 00 80 F8 FF FF 7F F8 FF  FF 7F 74 6C 6B 31 20 00  ..........tlk1 .
0280: 21 00                                             !.              
```

#### Opcodes

```
  0: 0x0251 [0x1E] EventEntity looks at LocalPlayer and starts talking
  1: 0x0256 [0x6F] WAIT_FRAME_DELAY: Yield until WaitTime reaches zero
  2: 0x0257 [0x70] WAIT_ENTITY_RENDER_FLAG: Wait while EventEntity->Render.Flags3 bit 2 is set (cancel turn if not)
  3: 0x0258 [0x66] LOAD_EXT_SCHEDULER_MAIN: Load scheduler "tlk0" with entities [EventEntity, EventEntity], work=199*
  4: 0x0267 [0x1D] PRINT_EVENT_MESSAGE(message_id=7785*)
    → "Pioneers are grrreat for doing my dirty...I mean helping out those in need. In this case, what I need is for you to learn more about spinescent protuberances."
  5: 0x026A [0x23] WAIT_FOR_DIALOG_INTERACTION
  6: 0x026B [0x1D] PRINT_EVENT_MESSAGE(message_id=7786*)
    → "Suffer five amnesic attacks from those things and then come back here. Come on--what's the worrrst that could happen?"
  7: 0x026E [0x23] WAIT_FOR_DIALOG_INTERACTION
  8: 0x026F [0x66] LOAD_EXT_SCHEDULER_MAIN: Load scheduler "tlk1" with entities [EventEntity, EventEntity], work=199*
  9: 0x027E [0x20] SET_CLI_EVENT_UC_FLAG: Unlock player control
 10: 0x0280 [0x21] END_EVENT
 11: 0x0281 [0x00] END_REQSTACK()
```

### Event 52

#### Metadata

| Field        | Value    |
|--------------|----------|
| Entrypoint   | 0x0282   |
| Data Size    | 40 bytes |
| Instructions | 12       |

```
      00 01 02 03 04 05 06 07  08 09 0A 0B 0C 0D 0E 0F
      -- -- -- -- -- -- -- --  -- -- -- -- -- -- -- --
0280:       1E F0 FF FF 7F 6F  70 27 08 AB A1 10 01 15    .....op'......
0290: 2B AB A1 10 01 19 80 23  2B AB A1 10 01 1A 80 23  +......#+......#
02A0: 2A 08 AB A1 10 01 20 00  21 00                    *..... .!.      
```

#### Opcodes

```
  0: 0x0282 [0x1E] EventEntity looks at LocalPlayer and starts talking
  1: 0x0287 [0x6F] WAIT_FRAME_DELAY: Yield until WaitTime reaches zero
  2: 0x0288 [0x70] WAIT_ENTITY_RENDER_FLAG: Wait while EventEntity->Render.Flags3 bit 2 is set (cancel turn if not)
  3: 0x0289 [0x27] REQ_SET(priority=0x08, entity_id=Udip Ferawoh (ID: 17867179/0x0110A1AB), tag_num=0x15)
  4: 0x0290 [0x2B] Udip Ferawoh (ID: 17867179/0x0110A1AB) [7811*]:
    → "Hey, it's <Player>! Thank you again for showing us how to handle those spinescent prrrotuberances."
  5: 0x0297 [0x23] WAIT_FOR_DIALOG_INTERACTION
  6: 0x0298 [0x2B] Udip Ferawoh (ID: 17867179/0x0110A1AB) [7812*]:
    → "It'll be easy trrrekking from here on out!"
  7: 0x029F [0x23] WAIT_FOR_DIALOG_INTERACTION
  8: 0x02A0 [0x2A] GET_REQ_LEVEL(level=8, entity_id=Udip Ferawoh (ID: 17867179/0x0110A1AB))
  9: 0x02A6 [0x20] SET_CLI_EVENT_UC_FLAG: Unlock player control
 10: 0x02A8 [0x21] END_EVENT
 11: 0x02A9 [0x00] END_REQSTACK()
```

### Event 51

#### Metadata

| Field        | Value   |
|--------------|---------|
| Entrypoint   | 0x02AA  |
| Data Size    | 1 bytes |
| Instructions | 1       |

```
      00 01 02 03 04 05 06 07  08 09 0A 0B 0C 0D 0E 0F
      -- -- -- -- -- -- -- --  -- -- -- -- -- -- -- --
02A0:                                00                           .     
```

#### Opcodes

```
  0: 0x02AA [0x00] END_REQSTACK()
```

### Event 65535.22

#### Metadata

| Field        | Value    |
|--------------|----------|
| Entrypoint   | 0x02AB   |
| Data Size    | 10 bytes |
| Instructions | 2        |

```
      00 01 02 03 04 05 06 07  08 09 0A 0B 0C 0D 0E 0F
      -- -- -- -- -- -- -- --  -- -- -- -- -- -- -- --
02A0:                                   37 1B 80 1C 80             7....
02B0: 1D 80 1E 80 00                                    .....           
```

#### Opcodes

```
  0: 0x02AB [0x37] UPDATE_EVENT_POSITION_AND_DIR: x=370.101*, z=140.691*, y=-58.958*, direction=278.6°*
  1: 0x02B4 [0x00] END_REQSTACK()
```
