# 0x7FFFFFF0 - Zone Events

## Common Data

| Field            | Value                    |
|------------------|--------------------------|
| Zone             | Marjami Ravine (ID: 266) |
| Block Size       | 1340 bytes               |
| Total Events     | 38                       |
| References Count | 80                       |

## List of Events

| Event ID                   | Entrypoint   |   Size |   Instructions |
|----------------------------|--------------|--------|----------------|
| [65535](#event-65535)      | 0x0000       |      1 |              1 |
| [65534](#event-65534)      | 0x0001       |      1 |              1 |
| [65535.1](#event-655351)   | 0x0002       |      6 |              2 |
| [65535.2](#event-655352)   | 0x0008       |      6 |              2 |
| [65535.3](#event-655353)   | 0x000E       |     37 |              5 |
| [65535.4](#event-655354)   | 0x0033       |     37 |              5 |
| [65535.5](#event-655355)   | 0x0058       |     37 |              5 |
| [65535.6](#event-655356)   | 0x007D       |     37 |              5 |
| [65535.7](#event-655357)   | 0x00A2       |      7 |              3 |
| [65535.8](#event-655358)   | 0x00A9       |      7 |              3 |
| [65535.9](#event-655359)   | 0x00B0       |     24 |              4 |
| [65535.10](#event-6553510) | 0x00C8       |     24 |              4 |
| [65535.11](#event-6553511) | 0x00E0       |    163 |             37 |
| [65535.12](#event-6553512) | 0x0183       |      6 |              2 |
| [65535.13](#event-6553513) | 0x0189       |      6 |              2 |
| [65535.14](#event-6553514) | 0x018F       |      6 |              2 |
| [65535.15](#event-6553515) | 0x0195       |      6 |              2 |
| [65535.16](#event-6553516) | 0x019B       |     27 |              3 |
| [65535.17](#event-6553517) | 0x01B6       |     10 |              2 |
| [65535.18](#event-6553518) | 0x01C0       |     14 |              4 |
| [65535.19](#event-6553519) | 0x01CE       |     36 |              4 |
| [65535.20](#event-6553520) | 0x01F2       |     10 |              2 |
| [65535.21](#event-6553521) | 0x01FC       |     11 |              5 |
| [65535.22](#event-6553522) | 0x0207       |     10 |              2 |
| [65535.23](#event-6553523) | 0x0211       |     14 |              4 |
| [65535.24](#event-6553524) | 0x021F       |     10 |              2 |
| [65535.25](#event-6553525) | 0x0229       |     10 |              2 |
| [65535.26](#event-6553526) | 0x0233       |     10 |              2 |
| [65535.27](#event-6553527) | 0x023D       |     22 |              4 |
| [65535.28](#event-6553528) | 0x0253       |     10 |              2 |
| [65535.29](#event-6553529) | 0x025D       |     10 |              2 |
| [65535.30](#event-6553530) | 0x0267       |     22 |              6 |
| [65535.31](#event-6553531) | 0x027D       |     14 |              4 |
| [65535.32](#event-6553532) | 0x028B       |     22 |              6 |
| [65535.33](#event-6553533) | 0x02A1       |     17 |              5 |
| [65535.34](#event-6553534) | 0x02B2       |     14 |              4 |
| [65535.35](#event-6553535) | 0x02C0       |     19 |              5 |
| [5504](#event-5504)        | 0x02D3       |    128 |             14 |

## DAT References (imed_data)

|   Index | Hex Value   |   Dec Value |
|---------|-------------|-------------|
|       0 | 0x0001      |           1 |
|       1 | 0x0000      |           0 |
|       2 | 0x000D      |          13 |
|       3 | 0xEF77      |       61303 |
|       4 | 0xFFFE6823  |  4294862883 |
|       5 | 0x5354      |       21332 |
|       6 | 0x0005      |           5 |
|       7 | 0x0002      |           2 |
|       8 | 0x000A      |          10 |
|       9 | 0x0009      |           9 |
|      10 | 0x0046      |          70 |
|      11 | 0x008C      |         140 |
|      12 | 0x00D2      |         210 |
|      13 | 0x430A8     |      274600 |
|      14 | 0x162B9     |       90809 |
|      15 | 0xFFFF1641  |  4294907457 |
|      16 | 0x42522     |      271650 |
|      17 | 0x16052     |       90194 |
|      18 | 0xFFFF162A  |  4294907434 |
|      19 | 0x41C74     |      269428 |
|      20 | 0x15C82     |       89218 |
|      21 | 0xFFFF162F  |  4294907439 |
|      22 | 0x0BD8      |        3032 |
|      23 | 0x40655     |      263765 |
|      24 | 0x1799E     |       96670 |
|      25 | 0xFFFF63C0  |  4294927296 |
|      26 | 0x0B75      |        2933 |
|      27 | 0x0078      |         120 |
|      28 | 0x415D0     |      267728 |
|      29 | 0x172EE     |       94958 |
|      30 | 0xFFFF6381  |  4294927233 |
|      31 | 0x02ED      |         749 |
|      32 | 0x40E80     |      265856 |
|      33 | 0x17D49     |       97609 |
|      34 | 0x4134A     |      267082 |
|      35 | 0x16D85     |       93573 |
|      36 | 0xFFFF639E  |  4294927262 |
|      37 | 0x0C7E      |        3198 |
|      38 | 0x41165     |      266597 |
|      39 | 0x17087     |       94343 |
|      40 | 0xFFFF639F  |  4294927263 |
|      41 | 0x055B      |        1371 |
|      42 | 0x426B8     |      272056 |
|      43 | 0x16786     |       92038 |
|      44 | 0xFFFF15F6  |  4294907382 |
|      45 | 0x0FA4      |        4004 |
|      46 | 0x000B      |          11 |
|      47 | 0x4212F     |      270639 |
|      48 | 0x15D36     |       89398 |
|      49 | 0xFFFF1608  |  4294907400 |
|      50 | 0x086B      |        2155 |
|      51 | 0x5A69D     |      370333 |
|      52 | 0x22FFE     |      143358 |
|      53 | 0xFFFF1929  |  4294908201 |
|      54 | 0x0400      |        1024 |
|      55 | 0xFFFE7668  |  4294866536 |
|      56 | 0xFFFECEF4  |  4294889204 |
|      57 | 0x51E1      |       20961 |
|      58 | 0x001E      |          30 |
|      59 | 0x0028      |          40 |
|      60 | 0xFFFFF65A  |  4294964826 |
|      61 | 0xFFFF735F  |  4294931295 |
|      62 | 0x4E1F      |       19999 |
|      63 | 0x6288A     |      403594 |
|      64 | 0x3C1B9     |      246201 |
|      65 | 0xFFFF1598  |  4294907288 |
|      66 | 0xF145      |       61765 |
|      67 | 0xFFFED1D9  |  4294889945 |
|      68 | 0x4BC1      |       19393 |
|      69 | 0x144AE     |       83118 |
|      70 | 0xFFFE4BD4  |  4294855636 |
|      71 | 0x4FA8      |       20392 |
|      72 | 0x10942     |       67906 |
|      73 | 0xFFFE8B4F  |  4294871887 |
|      74 | 0x5058      |       20568 |
|      75 | 0x00C8      |         200 |
|      76 | 0x005A      |          90 |
|      77 | 0x00C9      |         201 |
|      78 | 0x002D      |          45 |
|      79 | 0x000F      |          15 |

## Events

### Event 65535

#### Metadata

| Field        | Value   |
|--------------|---------|
| Entrypoint   | 0x0000  |
| Data Size    | 1 bytes |
| Instructions | 1       |

```
      00 01 02 03 04 05 06 07  08 09 0A 0B 0C 0D 0E 0F
      -- -- -- -- -- -- -- --  -- -- -- -- -- -- -- --
0000: 00                                                .               
```

#### Opcodes

```
  0: 0x0000 [0x00] END_REQSTACK()
```

### Event 65534

#### Metadata

| Field        | Value   |
|--------------|---------|
| Entrypoint   | 0x0001  |
| Data Size    | 1 bytes |
| Instructions | 1       |

```
      00 01 02 03 04 05 06 07  08 09 0A 0B 0C 0D 0E 0F
      -- -- -- -- -- -- -- --  -- -- -- -- -- -- -- --
0000:    00                                              .              
```

#### Opcodes

```
  0: 0x0001 [0x00] END_REQSTACK()
```

### Event 65535.1

#### Metadata

| Field        | Value   |
|--------------|---------|
| Entrypoint   | 0x0002  |
| Data Size    | 6 bytes |
| Instructions | 2       |

```
      00 01 02 03 04 05 06 07  08 09 0A 0B 0C 0D 0E 0F
      -- -- -- -- -- -- -- --  -- -- -- -- -- -- -- --
0000:       03 02 10 07 7F 00                             ......        
```

#### Opcodes

```
  0: 0x0002 [0x03] Work_Zone[2] = Entity->Race
  1: 0x0007 [0x00] END_REQSTACK()
```

### Event 65535.2

#### Metadata

| Field        | Value   |
|--------------|---------|
| Entrypoint   | 0x0008  |
| Data Size    | 6 bytes |
| Instructions | 2       |

```
      00 01 02 03 04 05 06 07  08 09 0A 0B 0C 0D 0E 0F
      -- -- -- -- -- -- -- --  -- -- -- -- -- -- -- --
0000:                          03 02 10 0B 7F 00                ......  
```

#### Opcodes

```
  0: 0x0008 [0x03] Work_Zone[2] = (Entity->Render.Flags01 >> 25) & 1
  1: 0x000D [0x00] END_REQSTACK()
```

### Event 65535.3

#### Metadata

| Field        | Value    |
|--------------|----------|
| Entrypoint   | 0x000E   |
| Data Size    | 37 bytes |
| Instructions | 5        |

```
      00 01 02 03 04 05 06 07  08 09 0A 0B 0C 0D 0E 0F
      -- -- -- -- -- -- -- --  -- -- -- -- -- -- -- --
0000:                                            03 00                ..
0010: 00 07 7F 1A EF 00 66 01  00 F8 FF FF 7F F8 FF FF  ......f.........
0020: 7F 73 68 61 30 53 F8 FF  FF 7F F8 FF FF 7F 73 68  .sha0S........sh
0030: 61 30 00                                          a0.             
```

#### Opcodes

```
  0: 0x000E [0x03] ExtData[1]->WorkLocal[0] = Entity->Race
  1: 0x0013 [0x1A] CALL_SUBROUTINE(address=0x00EF)
  2: 0x0016 [0x66] LOAD_EXT_SCHEDULER_MAIN: Load scheduler "sha0" with entities [EventEntity, EventEntity], work=ExtData[1]->WorkLocal[1]
  3: 0x0025 [0x53] WAIT_SCHEDULER_TASK: Wait for scheduler "sha0" with entities [EventEntity, EventEntity]
  4: 0x0032 [0x00] END_REQSTACK()
```

### Event 65535.4

#### Metadata

| Field        | Value    |
|--------------|----------|
| Entrypoint   | 0x0033   |
| Data Size    | 37 bytes |
| Instructions | 5        |

```
      00 01 02 03 04 05 06 07  08 09 0A 0B 0C 0D 0E 0F
      -- -- -- -- -- -- -- --  -- -- -- -- -- -- -- --
0030:          03 00 00 07 7F  1A EF 00 66 01 00 F8 FF     ........f....
0040: FF 7F F8 FF FF 7F 73 68  61 31 53 F8 FF FF 7F F8  ......sha1S.....
0050: FF FF 7F 73 68 61 31 00                           ...sha1.        
```

#### Opcodes

```
  0: 0x0033 [0x03] ExtData[1]->WorkLocal[0] = Entity->Race
  1: 0x0038 [0x1A] CALL_SUBROUTINE(address=0x00EF)
  2: 0x003B [0x66] LOAD_EXT_SCHEDULER_MAIN: Load scheduler "sha1" with entities [EventEntity, EventEntity], work=ExtData[1]->WorkLocal[1]
  3: 0x004A [0x53] WAIT_SCHEDULER_TASK: Wait for scheduler "sha1" with entities [EventEntity, EventEntity]
  4: 0x0057 [0x00] END_REQSTACK()
```

### Event 65535.5

#### Metadata

| Field        | Value    |
|--------------|----------|
| Entrypoint   | 0x0058   |
| Data Size    | 37 bytes |
| Instructions | 5        |

```
      00 01 02 03 04 05 06 07  08 09 0A 0B 0C 0D 0E 0F
      -- -- -- -- -- -- -- --  -- -- -- -- -- -- -- --
0050:                          03 00 00 07 7F 1A EF 00          ........
0060: 66 01 00 F8 FF FF 7F F8  FF FF 7F 73 69 74 30 53  f..........sit0S
0070: F8 FF FF 7F F8 FF FF 7F  73 69 74 30 00           ........sit0.   
```

#### Opcodes

```
  0: 0x0058 [0x03] ExtData[1]->WorkLocal[0] = Entity->Race
  1: 0x005D [0x1A] CALL_SUBROUTINE(address=0x00EF)
  2: 0x0060 [0x66] LOAD_EXT_SCHEDULER_MAIN: Load scheduler "sit0" with entities [EventEntity, EventEntity], work=ExtData[1]->WorkLocal[1]
  3: 0x006F [0x53] WAIT_SCHEDULER_TASK: Wait for scheduler "sit0" with entities [EventEntity, EventEntity]
  4: 0x007C [0x00] END_REQSTACK()
```

### Event 65535.6

#### Metadata

| Field        | Value    |
|--------------|----------|
| Entrypoint   | 0x007D   |
| Data Size    | 37 bytes |
| Instructions | 5        |

```
      00 01 02 03 04 05 06 07  08 09 0A 0B 0C 0D 0E 0F
      -- -- -- -- -- -- -- --  -- -- -- -- -- -- -- --
0070:                                         03 00 00               ...
0080: 07 7F 1A EF 00 66 01 00  F8 FF FF 7F F8 FF FF 7F  .....f..........
0090: 73 69 74 31 53 F8 FF FF  7F F8 FF FF 7F 73 69 74  sit1S........sit
00A0: 31 00                                             1.              
```

#### Opcodes

```
  0: 0x007D [0x03] ExtData[1]->WorkLocal[0] = Entity->Race
  1: 0x0082 [0x1A] CALL_SUBROUTINE(address=0x00EF)
  2: 0x0085 [0x66] LOAD_EXT_SCHEDULER_MAIN: Load scheduler "sit1" with entities [EventEntity, EventEntity], work=ExtData[1]->WorkLocal[1]
  3: 0x0094 [0x53] WAIT_SCHEDULER_TASK: Wait for scheduler "sit1" with entities [EventEntity, EventEntity]
  4: 0x00A1 [0x00] END_REQSTACK()
```

### Event 65535.7

#### Metadata

| Field        | Value   |
|--------------|---------|
| Entrypoint   | 0x00A2  |
| Data Size    | 7 bytes |
| Instructions | 3       |

```
      00 01 02 03 04 05 06 07  08 09 0A 0B 0C 0D 0E 0F
      -- -- -- -- -- -- -- --  -- -- -- -- -- -- -- --
00A0:       AB 03 AC 01 00 80  00                         .......       
```

#### Opcodes

```
  0: 0x00A2 [0xAB] EventEntity->Render.Flags0 ^= 0x20000 // Toggle bit 17
  1: 0x00A4 [0xAC] EventEntity->StatusEvent = 1*
  2: 0x00A8 [0x00] END_REQSTACK()
```

### Event 65535.8

#### Metadata

| Field        | Value   |
|--------------|---------|
| Entrypoint   | 0x00A9  |
| Data Size    | 7 bytes |
| Instructions | 3       |

```
      00 01 02 03 04 05 06 07  08 09 0A 0B 0C 0D 0E 0F
      -- -- -- -- -- -- -- --  -- -- -- -- -- -- -- --
00A0:                             AC 01 01 80 AB 04 00           .......
```

#### Opcodes

```
  0: 0x00A9 [0xAC] EventEntity->StatusEvent = 0*
  1: 0x00AD [0xAB] EventEntity->Render.Flags0 |= 0x40000 // Set bit 18
  2: 0x00AF [0x00] END_REQSTACK()
```

### Event 65535.9

#### Metadata

| Field        | Value    |
|--------------|----------|
| Entrypoint   | 0x00B0   |
| Data Size    | 24 bytes |
| Instructions | 4        |

```
      00 01 02 03 04 05 06 07  08 09 0A 0B 0C 0D 0E 0F
      -- -- -- -- -- -- -- --  -- -- -- -- -- -- -- --
00B0: 03 00 00 07 7F 1A EF 00  66 01 00 F8 FF FF 7F F8  ........f.......
00C0: FF FF 7F 74 6C 6B 30 00                           ...tlk0.        
```

#### Opcodes

```
  0: 0x00B0 [0x03] ExtData[1]->WorkLocal[0] = Entity->Race
  1: 0x00B5 [0x1A] CALL_SUBROUTINE(address=0x00EF)
  2: 0x00B8 [0x66] LOAD_EXT_SCHEDULER_MAIN: Load scheduler "tlk0" with entities [EventEntity, EventEntity], work=ExtData[1]->WorkLocal[1]
  3: 0x00C7 [0x00] END_REQSTACK()
```

### Event 65535.10

#### Metadata

| Field        | Value    |
|--------------|----------|
| Entrypoint   | 0x00C8   |
| Data Size    | 24 bytes |
| Instructions | 4        |

```
      00 01 02 03 04 05 06 07  08 09 0A 0B 0C 0D 0E 0F
      -- -- -- -- -- -- -- --  -- -- -- -- -- -- -- --
00C0:                          03 00 00 07 7F 1A EF 00          ........
00D0: 66 01 00 F8 FF FF 7F F8  FF FF 7F 74 6C 6B 31 00  f..........tlk1.
```

#### Opcodes

```
  0: 0x00C8 [0x03] ExtData[1]->WorkLocal[0] = Entity->Race
  1: 0x00CD [0x1A] CALL_SUBROUTINE(address=0x00EF)
  2: 0x00D0 [0x66] LOAD_EXT_SCHEDULER_MAIN: Load scheduler "tlk1" with entities [EventEntity, EventEntity], work=ExtData[1]->WorkLocal[1]
  3: 0x00DF [0x00] END_REQSTACK()
```

### Event 65535.11

#### Metadata

| Field        | Value     |
|--------------|-----------|
| Entrypoint   | 0x00E0    |
| Data Size    | 163 bytes |
| Instructions | 5         |

```
      00 01 02 03 04 05 06 07  08 09 0A 0B 0C 0D 0E 0F
      -- -- -- -- -- -- -- --  -- -- -- -- -- -- -- --
00E0: 32 02 80 1F 00 03 80 04  80 05 80 1F 01 6F 00 03  2............o..
00F0: 01 00 00 00 02 01 00 06  80 05 04 01 08 01 00 00  ................
0100: 80 01 09 01 08 01 00 07  80 14 01 00 08 80 07 01  ................
0110: 00 09 80 1B 03 01 00 00  00 02 01 00 06 80 05 29  ...............)
0120: 01 08 01 00 00 80 01 2E  01 08 01 00 07 80 14 01  ................
0130: 00 08 80 07 01 00 0A 80  1B 03 01 00 00 00 02 01  ................
0140: 00 06 80 05 4E 01 08 01  00 00 80 01 53 01 08 01  ....N.......S...
0150: 00 07 80 14 01 00 08 80  07 01 00 0B 80 1B 03 01  ................
0160: 00 00 00 02 01 00 06 80  05 73 01 08 01 00 00 80  .........s......
0170: 01 78 01 08 01 00 07 80  14 01 00 08 80 07 01 00  .x..............
0180: 0C 80 1B                                          ...             
```

#### Opcodes

```
  0: 0x00E0 [0x32] ExtData[1]->MainSpeed = 13* * 0.1
  1: 0x00E3 [0x1F] MOVE_ENTITY: EventEntity moves to X=61.303*, Z=-104.413*, Y=21.332*
  2: 0x00EB [0x1F] MOVE_ENTITY: Update entity position (mode=1)
  3: 0x00ED [0x6F] WAIT_FRAME_DELAY: Yield until WaitTime reaches zero
  4: 0x00EE [0x00] END_REQSTACK()
```

#### Data or dead code:

```
# Dead code (unreachable instructions):
     0x00EF [0x03] ExtData[1]->WorkLocal[1] = ExtData[1]->WorkLocal[0]
     0x00F4 [0x02] IF !(ExtData[1]->WorkLocal[1] > 5*) GOTO 0x0104
     0x00FC [0x08] ExtData[1]->WorkLocal[1] -= 1*
     0x0101 [0x01] GOTO 0x0109
     0x0104 [0x08] ExtData[1]->WorkLocal[1] -= 2*
     0x0109 [0x14] ExtData[1]->WorkLocal[1] *= 10*
     0x010E [0x07] ExtData[1]->WorkLocal[1] += 9*
     0x0113 [0x1B] RETURN
     0x0114 [0x03] ExtData[1]->WorkLocal[1] = ExtData[1]->WorkLocal[0]
     0x0119 [0x02] IF !(ExtData[1]->WorkLocal[1] > 5*) GOTO 0x0129
     0x0121 [0x08] ExtData[1]->WorkLocal[1] -= 1*
     0x0126 [0x01] GOTO 0x012E
     0x0129 [0x08] ExtData[1]->WorkLocal[1] -= 2*
     0x012E [0x14] ExtData[1]->WorkLocal[1] *= 10*
     0x0133 [0x07] ExtData[1]->WorkLocal[1] += 70*
     0x0138 [0x1B] RETURN
     0x0139 [0x03] ExtData[1]->WorkLocal[1] = ExtData[1]->WorkLocal[0]
     0x013E [0x02] IF !(ExtData[1]->WorkLocal[1] > 5*) GOTO 0x014E
     0x0146 [0x08] ExtData[1]->WorkLocal[1] -= 1*
     0x014B [0x01] GOTO 0x0153
     0x014E [0x08] ExtData[1]->WorkLocal[1] -= 2*
     0x0153 [0x14] ExtData[1]->WorkLocal[1] *= 10*
     0x0158 [0x07] ExtData[1]->WorkLocal[1] += 140*
     0x015D [0x1B] RETURN
     0x015E [0x03] ExtData[1]->WorkLocal[1] = ExtData[1]->WorkLocal[0]
     0x0163 [0x02] IF !(ExtData[1]->WorkLocal[1] > 5*) GOTO 0x0173
     0x016B [0x08] ExtData[1]->WorkLocal[1] -= 1*
     0x0170 [0x01] GOTO 0x0178
     0x0173 [0x08] ExtData[1]->WorkLocal[1] -= 2*
     0x0178 [0x14] ExtData[1]->WorkLocal[1] *= 10*
     0x017D [0x07] ExtData[1]->WorkLocal[1] += 210*
     0x0182 [0x1B] RETURN
```

### Event 65535.12

#### Metadata

| Field        | Value   |
|--------------|---------|
| Entrypoint   | 0x0183  |
| Data Size    | 6 bytes |
| Instructions | 2       |

```
      00 01 02 03 04 05 06 07  08 09 0A 0B 0C 0D 0E 0F
      -- -- -- -- -- -- -- --  -- -- -- -- -- -- -- --
0180:          03 02 10 0B 7F  00                          ......       
```

#### Opcodes

```
  0: 0x0183 [0x03] Work_Zone[2] = (Entity->Render.Flags01 >> 25) & 1
  1: 0x0188 [0x00] END_REQSTACK()
```

### Event 65535.13

#### Metadata

| Field        | Value   |
|--------------|---------|
| Entrypoint   | 0x0189  |
| Data Size    | 6 bytes |
| Instructions | 2       |

```
      00 01 02 03 04 05 06 07  08 09 0A 0B 0C 0D 0E 0F
      -- -- -- -- -- -- -- --  -- -- -- -- -- -- -- --
0180:                             03 02 10 07 7F 00              ...... 
```

#### Opcodes

```
  0: 0x0189 [0x03] Work_Zone[2] = Entity->Race
  1: 0x018E [0x00] END_REQSTACK()
```

### Event 65535.14

#### Metadata

| Field        | Value   |
|--------------|---------|
| Entrypoint   | 0x018F  |
| Data Size    | 6 bytes |
| Instructions | 2       |

```
      00 01 02 03 04 05 06 07  08 09 0A 0B 0C 0D 0E 0F
      -- -- -- -- -- -- -- --  -- -- -- -- -- -- -- --
0180:                                               03                 .
0190: 09 10 07 7F 00                                    .....           
```

#### Opcodes

```
  0: 0x018F [0x03] Work_Zone[9] = Entity->Race
  1: 0x0194 [0x00] END_REQSTACK()
```

### Event 65535.15

#### Metadata

| Field        | Value   |
|--------------|---------|
| Entrypoint   | 0x0195  |
| Data Size    | 6 bytes |
| Instructions | 2       |

```
      00 01 02 03 04 05 06 07  08 09 0A 0B 0C 0D 0E 0F
      -- -- -- -- -- -- -- --  -- -- -- -- -- -- -- --
0190:                03 02 10  06 7F 00                      ......     
```

#### Opcodes

```
  0: 0x0195 [0x03] Work_Zone[2] = Entity->JobId (if LocalPlayer)
  1: 0x019A [0x00] END_REQSTACK()
```

### Event 65535.16

#### Metadata

| Field        | Value    |
|--------------|----------|
| Entrypoint   | 0x019B   |
| Data Size    | 27 bytes |
| Instructions | 3        |

```
      00 01 02 03 04 05 06 07  08 09 0A 0B 0C 0D 0E 0F
      -- -- -- -- -- -- -- --  -- -- -- -- -- -- -- --
0190:                                   2C F8 FF FF 7F             ,....
01A0: F8 FF FF 7F 63 6F 72 70  53 F8 FF FF 7F F8 FF FF  ....corpS.......
01B0: 7F 63 6F 72 70 00                                 .corp.          
```

#### Opcodes

```
  0: 0x019B [0x2C] CREATE_SCHEDULER_TASK: Create scheduler "corp" with entities [EventEntity, EventEntity]
  1: 0x01A8 [0x53] WAIT_SCHEDULER_TASK: Wait for scheduler "corp" with entities [EventEntity, EventEntity]
  2: 0x01B5 [0x00] END_REQSTACK()
```

### Event 65535.17

#### Metadata

| Field        | Value    |
|--------------|----------|
| Entrypoint   | 0x01B6   |
| Data Size    | 10 bytes |
| Instructions | 2        |

```
      00 01 02 03 04 05 06 07  08 09 0A 0B 0C 0D 0E 0F
      -- -- -- -- -- -- -- --  -- -- -- -- -- -- -- --
01B0:                   37 0D  80 0E 80 0F 80 01 80 00        7.........
```

#### Opcodes

```
  0: 0x01B6 [0x37] UPDATE_EVENT_POSITION_AND_DIR: x=274.600*, z=90.809*, y=-59.839*, direction=0.0°*
  1: 0x01BF [0x00] END_REQSTACK()
```

### Event 65535.18

#### Metadata

| Field        | Value    |
|--------------|----------|
| Entrypoint   | 0x01C0   |
| Data Size    | 14 bytes |
| Instructions | 4        |

```
      00 01 02 03 04 05 06 07  08 09 0A 0B 0C 0D 0E 0F
      -- -- -- -- -- -- -- --  -- -- -- -- -- -- -- --
01C0: 32 02 80 1F 00 10 80 11  80 12 80 1F 01 00        2.............  
```

#### Opcodes

```
  0: 0x01C0 [0x32] ExtData[1]->MainSpeed = 13* * 0.1
  1: 0x01C3 [0x1F] MOVE_ENTITY: EventEntity moves to X=271.650*, Z=90.194*, Y=-59.862*
  2: 0x01CB [0x1F] MOVE_ENTITY: Update entity position (mode=1)
  3: 0x01CD [0x00] END_REQSTACK()
```

### Event 65535.19

#### Metadata

| Field        | Value    |
|--------------|----------|
| Entrypoint   | 0x01CE   |
| Data Size    | 36 bytes |
| Instructions | 4        |

```
      00 01 02 03 04 05 06 07  08 09 0A 0B 0C 0D 0E 0F
      -- -- -- -- -- -- -- --  -- -- -- -- -- -- -- --
01C0:                                            37 13                7.
01D0: 80 14 80 15 80 16 80 2C  F8 FF FF 7F F8 FF FF 7F  .......,........
01E0: 63 6F 72 70 53 F8 FF FF  7F F8 FF FF 7F 63 6F 72  corpS........cor
01F0: 70 00                                             p.              
```

#### Opcodes

```
  0: 0x01CE [0x37] UPDATE_EVENT_POSITION_AND_DIR: x=269.428*, z=89.218*, y=-59.857*, direction=266.5°*
  1: 0x01D7 [0x2C] CREATE_SCHEDULER_TASK: Create scheduler "corp" with entities [EventEntity, EventEntity]
  2: 0x01E4 [0x53] WAIT_SCHEDULER_TASK: Wait for scheduler "corp" with entities [EventEntity, EventEntity]
  3: 0x01F1 [0x00] END_REQSTACK()
```

### Event 65535.20

#### Metadata

| Field        | Value    |
|--------------|----------|
| Entrypoint   | 0x01F2   |
| Data Size    | 10 bytes |
| Instructions | 2        |

```
      00 01 02 03 04 05 06 07  08 09 0A 0B 0C 0D 0E 0F
      -- -- -- -- -- -- -- --  -- -- -- -- -- -- -- --
01F0:       37 17 80 18 80 19  80 1A 80 00                7.........    
```

#### Opcodes

```
  0: 0x01F2 [0x37] UPDATE_EVENT_POSITION_AND_DIR: x=263.765*, z=96.670*, y=-40.000*, direction=257.8°*
  1: 0x01FB [0x00] END_REQSTACK()
```

### Event 65535.21

#### Metadata

| Field        | Value    |
|--------------|----------|
| Entrypoint   | 0x01FC   |
| Data Size    | 11 bytes |
| Instructions | 5        |

```
      00 01 02 03 04 05 06 07  08 09 0A 0B 0C 0D 0E 0F
      -- -- -- -- -- -- -- --  -- -- -- -- -- -- -- --
01F0:                                      1C 1B 80 1E              ....
0200: A9 A1 10 01 6F 70 00                              ....op.         
```

#### Opcodes

```
  0: 0x01FC [0x1C] WAIT(120* ticks)
  1: 0x01FF [0x1E] EventEntity looks at Toppled Tree (ID: 17867177/0x0110A1A9) and starts talking
  2: 0x0204 [0x6F] WAIT_FRAME_DELAY: Yield until WaitTime reaches zero
  3: 0x0205 [0x70] WAIT_ENTITY_RENDER_FLAG: Wait while EventEntity->Render.Flags3 bit 2 is set (cancel turn if not)
  4: 0x0206 [0x00] END_REQSTACK()
```

### Event 65535.22

#### Metadata

| Field        | Value    |
|--------------|----------|
| Entrypoint   | 0x0207   |
| Data Size    | 10 bytes |
| Instructions | 2        |

```
      00 01 02 03 04 05 06 07  08 09 0A 0B 0C 0D 0E 0F
      -- -- -- -- -- -- -- --  -- -- -- -- -- -- -- --
0200:                      37  1C 80 1D 80 1E 80 1F 80         7........
0210: 00                                                .               
```

#### Opcodes

```
  0: 0x0207 [0x37] UPDATE_EVENT_POSITION_AND_DIR: x=267.728*, z=94.958*, y=-40.063*, direction=65.8°*
  1: 0x0210 [0x00] END_REQSTACK()
```

### Event 65535.23

#### Metadata

| Field        | Value    |
|--------------|----------|
| Entrypoint   | 0x0211   |
| Data Size    | 14 bytes |
| Instructions | 4        |

```
      00 01 02 03 04 05 06 07  08 09 0A 0B 0C 0D 0E 0F
      -- -- -- -- -- -- -- --  -- -- -- -- -- -- -- --
0210:    32 02 80 1F 00 20 80  21 80 19 80 1F 01 00      2.... .!...... 
```

#### Opcodes

```
  0: 0x0211 [0x32] ExtData[1]->MainSpeed = 13* * 0.1
  1: 0x0214 [0x1F] MOVE_ENTITY: EventEntity moves to X=265.856*, Z=97.609*, Y=-40.000*
  2: 0x021C [0x1F] MOVE_ENTITY: Update entity position (mode=1)
  3: 0x021E [0x00] END_REQSTACK()
```

### Event 65535.24

#### Metadata

| Field        | Value    |
|--------------|----------|
| Entrypoint   | 0x021F   |
| Data Size    | 10 bytes |
| Instructions | 2        |

```
      00 01 02 03 04 05 06 07  08 09 0A 0B 0C 0D 0E 0F
      -- -- -- -- -- -- -- --  -- -- -- -- -- -- -- --
0210:                                               37                 7
0220: 22 80 23 80 24 80 25 80  00                       ".#.$.%..       
```

#### Opcodes

```
  0: 0x021F [0x37] UPDATE_EVENT_POSITION_AND_DIR: x=267.082*, z=93.573*, y=-40.034*, direction=281.1°*
  1: 0x0228 [0x00] END_REQSTACK()
```

### Event 65535.25

#### Metadata

| Field        | Value    |
|--------------|----------|
| Entrypoint   | 0x0229   |
| Data Size    | 10 bytes |
| Instructions | 2        |

```
      00 01 02 03 04 05 06 07  08 09 0A 0B 0C 0D 0E 0F
      -- -- -- -- -- -- -- --  -- -- -- -- -- -- -- --
0220:                             37 26 80 27 80 28 80           7&.'.(.
0230: 29 80 00                                          )..             
```

#### Opcodes

```
  0: 0x0229 [0x37] UPDATE_EVENT_POSITION_AND_DIR: x=266.597*, z=94.343*, y=-40.033*, direction=120.5°*
  1: 0x0232 [0x00] END_REQSTACK()
```

### Event 65535.26

#### Metadata

| Field        | Value    |
|--------------|----------|
| Entrypoint   | 0x0233   |
| Data Size    | 10 bytes |
| Instructions | 2        |

```
      00 01 02 03 04 05 06 07  08 09 0A 0B 0C 0D 0E 0F
      -- -- -- -- -- -- -- --  -- -- -- -- -- -- -- --
0230:          37 0D 80 0E 80  0F 80 01 80 00              7.........   
```

#### Opcodes

```
  0: 0x0233 [0x37] UPDATE_EVENT_POSITION_AND_DIR: x=274.600*, z=90.809*, y=-59.839*, direction=0.0°*
  1: 0x023C [0x00] END_REQSTACK()
```

### Event 65535.27

#### Metadata

| Field        | Value    |
|--------------|----------|
| Entrypoint   | 0x023D   |
| Data Size    | 22 bytes |
| Instructions | 4        |

```
      00 01 02 03 04 05 06 07  08 09 0A 0B 0C 0D 0E 0F
      -- -- -- -- -- -- -- --  -- -- -- -- -- -- -- --
0230:                                         37 2A 80               7*.
0240: 2B 80 2C 80 2D 80 6E F8  FF FF 7F 2E 80 99 F8 FF  +.,.-.n.........
0250: FF 7F 00                                          ...             
```

#### Opcodes

```
  0: 0x023D [0x37] UPDATE_EVENT_POSITION_AND_DIR: x=272.056*, z=92.038*, y=-59.914*, direction=351.9°*
  1: 0x0246 [0x6E] EventEntity uses emote 11*
  2: 0x024D [0x99] Wait for EventEntity animation to complete
  3: 0x0252 [0x00] END_REQSTACK()
```

### Event 65535.28

#### Metadata

| Field        | Value    |
|--------------|----------|
| Entrypoint   | 0x0253   |
| Data Size    | 10 bytes |
| Instructions | 2        |

```
      00 01 02 03 04 05 06 07  08 09 0A 0B 0C 0D 0E 0F
      -- -- -- -- -- -- -- --  -- -- -- -- -- -- -- --
0250:          37 2F 80 30 80  31 80 32 80 00              7/.0.1.2..   
```

#### Opcodes

```
  0: 0x0253 [0x37] UPDATE_EVENT_POSITION_AND_DIR: x=270.639*, z=89.398*, y=-59.896*, direction=189.4°*
  1: 0x025C [0x00] END_REQSTACK()
```

### Event 65535.29

#### Metadata

| Field        | Value    |
|--------------|----------|
| Entrypoint   | 0x025D   |
| Data Size    | 10 bytes |
| Instructions | 2        |

```
      00 01 02 03 04 05 06 07  08 09 0A 0B 0C 0D 0E 0F
      -- -- -- -- -- -- -- --  -- -- -- -- -- -- -- --
0250:                                         37 33 80               73.
0260: 34 80 35 80 36 80 00                              4.5.6..         
```

#### Opcodes

```
  0: 0x025D [0x37] UPDATE_EVENT_POSITION_AND_DIR: x=370.333*, z=143.358*, y=-59.095*, direction=90.0°*
  1: 0x0266 [0x00] END_REQSTACK()
```

### Event 65535.30

#### Metadata

| Field        | Value    |
|--------------|----------|
| Entrypoint   | 0x0267   |
| Data Size    | 22 bytes |
| Instructions | 6        |

```
      00 01 02 03 04 05 06 07  08 09 0A 0B 0C 0D 0E 0F
      -- -- -- -- -- -- -- --  -- -- -- -- -- -- -- --
0260:                      32  02 80 1F 00 37 80 38 80         2....7.8.
0270: 39 80 1F 01 1E E5 A1 10  01 1C 3A 80 00           9.........:..   
```

#### Opcodes

```
  0: 0x0267 [0x32] ExtData[1]->MainSpeed = 13* * 0.1
  1: 0x026A [0x1F] MOVE_ENTITY: EventEntity moves to X=-100.760*, Z=-78.092*, Y=20.961*
  2: 0x0272 [0x1F] MOVE_ENTITY: Update entity position (mode=1)
  3: 0x0274 [0x1E] EventEntity looks at Gramk-Droog (ID: 17867237/0x0110A1E5) and starts talking
  4: 0x0279 [0x1C] WAIT(30* ticks)
  5: 0x027C [0x00] END_REQSTACK()
```

### Event 65535.31

#### Metadata

| Field        | Value    |
|--------------|----------|
| Entrypoint   | 0x027D   |
| Data Size    | 14 bytes |
| Instructions | 4        |

```
      00 01 02 03 04 05 06 07  08 09 0A 0B 0C 0D 0E 0F
      -- -- -- -- -- -- -- --  -- -- -- -- -- -- -- --
0270:                                         32 3B 80               2;.
0280: 1F 00 3C 80 3D 80 3E 80  1F 01 00                 ..<.=.>....     
```

#### Opcodes

```
  0: 0x027D [0x32] ExtData[1]->MainSpeed = 40* * 0.1
  1: 0x0280 [0x1F] MOVE_ENTITY: EventEntity moves to X=-2.470*, Z=-36.001*, Y=19.999*
  2: 0x0288 [0x1F] MOVE_ENTITY: Update entity position (mode=1)
  3: 0x028A [0x00] END_REQSTACK()
```

### Event 65535.32

#### Metadata

| Field        | Value    |
|--------------|----------|
| Entrypoint   | 0x028B   |
| Data Size    | 22 bytes |
| Instructions | 6        |

```
      00 01 02 03 04 05 06 07  08 09 0A 0B 0C 0D 0E 0F
      -- -- -- -- -- -- -- --  -- -- -- -- -- -- -- --
0280:                                   32 3B 80 1F 00             2;...
0290: 3F 80 40 80 41 80 1F 01  1E E1 A1 10 01 1C 3A 80  ?.@.A.........:.
02A0: 00                                                .               
```

#### Opcodes

```
  0: 0x028B [0x32] ExtData[1]->MainSpeed = 40* * 0.1
  1: 0x028E [0x1F] MOVE_ENTITY: EventEntity moves to X=403.594*, Z=246.201*, Y=-60.008*
  2: 0x0296 [0x1F] MOVE_ENTITY: Update entity position (mode=1)
  3: 0x0298 [0x1E] EventEntity looks at Nashu (ID: 17867233/0x0110A1E1) and starts talking
  4: 0x029D [0x1C] WAIT(30* ticks)
  5: 0x02A0 [0x00] END_REQSTACK()
```

### Event 65535.33

#### Metadata

| Field        | Value    |
|--------------|----------|
| Entrypoint   | 0x02A1   |
| Data Size    | 17 bytes |
| Instructions | 5        |

```
      00 01 02 03 04 05 06 07  08 09 0A 0B 0C 0D 0E 0F
      -- -- -- -- -- -- -- --  -- -- -- -- -- -- -- --
02A0:    32 3B 80 5A 00 42 80  43 80 44 80 5A 01 1C 3A   2;.Z.B.C.D.Z..:
02B0: 80 00                                             ..              
```

#### Opcodes

```
  0: 0x02A1 [0x32] ExtData[1]->MainSpeed = 40* * 0.1
  1: 0x02A4 [0x5A] UPDATE_EVENT_POSITION: Set EventEntity MovePosition to X=61.765*, Z=-77.351*, Y=19.393*
  2: 0x02AC [0x5A] UPDATE_EVENT_POSITION: Move EventEntity incrementally towards MovePosition
  3: 0x02AE [0x1C] WAIT(30* ticks)
  4: 0x02B1 [0x00] END_REQSTACK()
```

### Event 65535.34

#### Metadata

| Field        | Value    |
|--------------|----------|
| Entrypoint   | 0x02B2   |
| Data Size    | 14 bytes |
| Instructions | 4        |

```
      00 01 02 03 04 05 06 07  08 09 0A 0B 0C 0D 0E 0F
      -- -- -- -- -- -- -- --  -- -- -- -- -- -- -- --
02B0:       32 3B 80 1F 00 45  80 46 80 47 80 1F 01 00    2;...E.F.G....
```

#### Opcodes

```
  0: 0x02B2 [0x32] ExtData[1]->MainSpeed = 40* * 0.1
  1: 0x02B5 [0x1F] MOVE_ENTITY: EventEntity moves to X=83.118*, Z=-111.660*, Y=20.392*
  2: 0x02BD [0x1F] MOVE_ENTITY: Update entity position (mode=1)
  3: 0x02BF [0x00] END_REQSTACK()
```

### Event 65535.35

#### Metadata

| Field        | Value    |
|--------------|----------|
| Entrypoint   | 0x02C0   |
| Data Size    | 19 bytes |
| Instructions | 5        |

```
      00 01 02 03 04 05 06 07  08 09 0A 0B 0C 0D 0E 0F
      -- -- -- -- -- -- -- --  -- -- -- -- -- -- -- --
02C0: 32 3B 80 1F 00 48 80 49  80 4A 80 1F 01 1E E1 A1  2;...H.I.J......
02D0: 10 01 00                                          ...             
```

#### Opcodes

```
  0: 0x02C0 [0x32] ExtData[1]->MainSpeed = 40* * 0.1
  1: 0x02C3 [0x1F] MOVE_ENTITY: EventEntity moves to X=67.906*, Z=-95.409*, Y=20.568*
  2: 0x02CB [0x1F] MOVE_ENTITY: Update entity position (mode=1)
  3: 0x02CD [0x1E] EventEntity looks at Nashu (ID: 17867233/0x0110A1E1) and starts talking
  4: 0x02D2 [0x00] END_REQSTACK()
```

### Event 5504

#### Metadata

| Field        | Value     |
|--------------|-----------|
| Entrypoint   | 0x02D3    |
| Data Size    | 128 bytes |
| Instructions | 14        |

```
      00 01 02 03 04 05 06 07  08 09 0A 0B 0C 0D 0E 0F
      -- -- -- -- -- -- -- --  -- -- -- -- -- -- -- --
02D0:          42 45 4B 80 F0  FF FF 7F F0 FF FF 7F 66     BEK.........f
02E0: 64 6F 31 01 80 62 00 80  F0 FF FF 7F F0 FF FF 7F  do1..b..........
02F0: 6D 61 69 6E 01 80 1C 4C  80 45 4D 80 F0 FF FF 7F  main...L.EM.....
0300: F0 FF FF 7F 77 68 6F 31  01 80 55 4D 80 F0 FF FF  ....who1..UM....
0310: 7F F0 FF FF 7F 77 68 6F  31 1C 4E 80 45 4B 80 F0  .....who1.N.EK..
0320: FF FF 7F F0 FF FF 7F 66  64 6F 31 01 80 55 4B 80  .......fdo1..UK.
0330: F0 FF FF 7F F0 FF FF 7F  66 64 6F 31 45 4D 80 F0  ........fdo1EM..
0340: FF FF 7F F0 FF FF 7F 77  68 69 31 01 80 1C 4F 80  .......whi1...O.
0350: 30 21 00                                          0!.             
```

#### Opcodes

```
  0: 0x02D3 [0x42] SET_CLI_EVENT_CANCEL_DATA()
  1: 0x02D4 [0x45] LOAD_SCHEDULED_TASK: Load scheduler "fdo1" with entities [LocalPlayer, LocalPlayer], work=[200*, 0*]
  2: 0x02E5 [0x62] LOAD_EVENT_SCHEDULER: Load scheduler "main" with entities [LocalPlayer, LocalPlayer], work=[1*, 0*]
  3: 0x02F6 [0x1C] WAIT(90* ticks)
  4: 0x02F9 [0x45] LOAD_SCHEDULED_TASK: Load scheduler "who1" with entities [LocalPlayer, LocalPlayer], work=[201*, 0*]
  5: 0x030A [0x55] WAIT_LOAD_SCHEDULER: Wait for scheduler "who1" with entities [LocalPlayer, LocalPlayer], work=201*
  6: 0x0319 [0x1C] WAIT(45* ticks)
  7: 0x031C [0x45] LOAD_SCHEDULED_TASK: Load scheduler "fdo1" with entities [LocalPlayer, LocalPlayer], work=[200*, 0*]
  8: 0x032D [0x55] WAIT_LOAD_SCHEDULER: Wait for scheduler "fdo1" with entities [LocalPlayer, LocalPlayer], work=200*
  9: 0x033C [0x45] LOAD_SCHEDULED_TASK: Load scheduler "whi1" with entities [LocalPlayer, LocalPlayer], work=[201*, 0*]
 10: 0x034D [0x1C] WAIT(15* ticks)
 11: 0x0350 [0x30] SET_UCOFF_CONTINUE_ZERO()
 12: 0x0351 [0x21] END_EVENT
 13: 0x0352 [0x00] END_REQSTACK()
```
