# Event 65535

## Metadata

| Field           | Value    |
|-----------------|----------|
| Event Index     | 17/21    |
| Offset          | 0x0093   |
| Data Size       | 47 bytes |
| Calculated Size | 47 bytes |
| Instructions    | 11       |

```
      00 01 02 03 04 05 06 07  08 09 0A 0B 0C 0D 0E 0F
      -- -- -- -- -- -- -- --  -- -- -- -- -- -- -- --
0090:          32 08 80 1F 00  09 80 0A 80 07 80 1F 01     2............
00A0: 6F 1C 0B 80 1E 1D B0 0F  01 6F 76 F8 FF FF 7F 1C  o........ov.....
00B0: 0C 80 5B 0D 80 1C B0 0F  01 1C B0 0F 01 74 68 6B  ..[..........thk
00C0: 30 00                                             0.              
```

## Opcodes

```
  0: 0x0093 [0x32] ExtData[1]->MainSpeed = 11* * 0.1
  1: 0x0096 [0x1F] MOVE_ENTITY: EventEntity moves to X=-1.860*, Z=-2.476*, Y=-12.999*
  2: 0x009E [0x1F] MOVE_ENTITY: Update entity position (mode=1)
  3: 0x00A0 [0x6F] WAIT_FRAME_DELAY: Yield until WaitTime reaches zero
  4: 0x00A1 [0x1C] WAIT(15* ticks)
  5: 0x00A4 [0x1E] EventEntity looks at Unnamed NPC (ID: 17805341/0x010FB01D) and starts talking
  6: 0x00A9 [0x6F] WAIT_FRAME_DELAY: Yield until WaitTime reaches zero
  7: 0x00AA [0x76] CHECK_ENTITY_RENDER_FLAGS: Wait until EventEntity Render.Flags0 and Render.Flags3 conditions are met
  8: 0x00AF [0x1C] WAIT(30* ticks)
  9: 0x00B2 [0x5B] LOAD_EXT_SCHEDULER(work_offset=566*, entity1=Unnamed NPC (ID: 17805340/0x010FB01C), entity2=Unnamed NPC (ID: 17805340/0x010FB01C), action="thk0")
 10: 0x00C1 [0x00] END_REQSTACK()
```
