# Event 553

## Metadata

| Field           | Value    |
|-----------------|----------|
| Event Index     | 30/59    |
| Offset          | 0x0249   |
| Data Size       | 33 bytes |
| Calculated Size | 33 bytes |
| Instructions    | 12       |

```
      00 01 02 03 04 05 06 07  08 09 0A 0B 0C 0D 0E 0F
      -- -- -- -- -- -- -- --  -- -- -- -- -- -- -- --
0240:                             1E F0 FF FF 7F 6F 70           .....op
0250: 29 08 57 E0 0E 01 01 1D  12 80 23 1D 13 80 23 29  ).W.......#...#)
0260: 08 57 E0 0E 01 02 20 00  21 00                    .W.... .!.      
```

## Opcodes

```
  0: 0x0249 [0x1E] EventEntity looks at LocalPlayer and starts talking
  1: 0x024E [0x6F] WAIT_FRAME_DELAY: Yield until WaitTime reaches zero
  2: 0x024F [0x70] WAIT_ENTITY_RENDER_FLAG: Wait while EventEntity->Render.Flags3 bit 2 is set (cancel turn if not)
  3: 0x0250 [0x29] REQ_SET_WAIT(priority=0x08, entity_id=Chamama (ID: 17752151/0x010EE057), tag_num=0x01)
  4: 0x0257 [0x1D] PRINT_EVENT_MESSAGE(message_id=8779*)
    → "In the books, Detective Poiroto-Boiroto could change his appearance in a blink of the eye. That's why he's also known as the \u00072Mastaru of Disguise\u00073!\u007F1\u0000\u0007"
  5: 0x025A [0x23] WAIT_FOR_DIALOG_INTERACTION
  6: 0x025B [0x1D] PRINT_EVENT_MESSAGE(message_id=8780*)
    → "Isn't he the mostest!?\u007F1\u0000\u0007"
  7: 0x025E [0x23] WAIT_FOR_DIALOG_INTERACTION
  8: 0x025F [0x29] REQ_SET_WAIT(priority=0x08, entity_id=Chamama (ID: 17752151/0x010EE057), tag_num=0x02)
  9: 0x0266 [0x20] SET_CLI_EVENT_UC_FLAG: Unlock player control
 10: 0x0268 [0x21] END_EVENT
 11: 0x0269 [0x00] END_REQSTACK()
```
