# Event 651

## Metadata

| Field           | Value    |
|-----------------|----------|
| Event Index     | 27/59    |
| Offset          | 0x0192   |
| Data Size       | 33 bytes |
| Calculated Size | 33 bytes |
| Instructions    | 12       |

```
      00 01 02 03 04 05 06 07  08 09 0A 0B 0C 0D 0E 0F
      -- -- -- -- -- -- -- --  -- -- -- -- -- -- -- --
0190:       1E F0 FF FF 7F 6F  70 29 08 57 E0 0E 01 01    .....op).W....
01A0: 1D 04 80 23 1D 05 80 23  29 08 57 E0 0E 01 02 20  ...#...#).W.... 
01B0: 00 21 00                                          .!.             
```

## Opcodes

```
  0: 0x0192 [0x1E] EventEntity looks at LocalPlayer and starts talking
  1: 0x0197 [0x6F] WAIT_FRAME_DELAY: Yield until WaitTime reaches zero
  2: 0x0198 [0x70] WAIT_ENTITY_RENDER_FLAG: Wait while EventEntity->Render.Flags3 bit 2 is set (cancel turn if not)
  3: 0x0199 [0x29] REQ_SET_WAIT(priority=0x08, entity_id=Chamama (ID: 17752151/0x010EE057), tag_num=0x01)
  4: 0x01A0 [0x1D] PRINT_EVENT_MESSAGE(message_id=9046*)
    → "Welcome to the Rarab Tail Hostelry, dearie. The warmest warren for rest and relaxation of all our rarab-like friends.\u007F1\u0000\u0007"
  5: 0x01A3 [0x23] WAIT_FOR_DIALOG_INTERACTION
  6: 0x01A4 [0x1D] PRINT_EVENT_MESSAGE(message_id=9047*)
    → "Windurst is a fun place best enjoyed by leaving all your little worries behind, and letting yourself go with the flow of nature's rythm.\u007F1\u0000\u0007"
  7: 0x01A7 [0x23] WAIT_FOR_DIALOG_INTERACTION
  8: 0x01A8 [0x29] REQ_SET_WAIT(priority=0x08, entity_id=Chamama (ID: 17752151/0x010EE057), tag_num=0x02)
  9: 0x01AF [0x20] SET_CLI_EVENT_UC_FLAG: Unlock player control
 10: 0x01B1 [0x21] END_EVENT
 11: 0x01B2 [0x00] END_REQSTACK()
```
