# Event 656

## Metadata

| Field           | Value    |
|-----------------|----------|
| Event Index     | 40/59    |
| Offset          | 0x03FE   |
| Data Size       | 33 bytes |
| Calculated Size | 33 bytes |
| Instructions    | 12       |

```
      00 01 02 03 04 05 06 07  08 09 0A 0B 0C 0D 0E 0F
      -- -- -- -- -- -- -- --  -- -- -- -- -- -- -- --
03F0:                                            1E F0                ..
0400: FF FF 7F 6F 70 29 08 57  E0 0E 01 01 1D 26 80 23  ...op).W.....&.#
0410: 1D 27 80 23 29 08 57 E0  0E 01 02 20 00 21 00     .'.#).W.... .!. 
```

## Opcodes

```
  0: 0x03FE [0x1E] EventEntity looks at LocalPlayer and starts talking
  1: 0x0403 [0x6F] WAIT_FRAME_DELAY: Yield until WaitTime reaches zero
  2: 0x0404 [0x70] WAIT_ENTITY_RENDER_FLAG: Wait while EventEntity->Render.Flags3 bit 2 is set (cancel turn if not)
  3: 0x0405 [0x29] REQ_SET_WAIT(priority=0x08, entity_id=Chamama (ID: 17752151/0x010EE057), tag_num=0x01)
  4: 0x040C [0x1D] PRINT_EVENT_MESSAGE(message_id=9064*)
    → "Sorry to be such a nuisance, dearie, but could you please try and find me just the right stone for pickling with?\u007F1\u0000\u0007"
  5: 0x040F [0x23] WAIT_FOR_DIALOG_INTERACTION
  6: 0x0410 [0x1D] PRINT_EVENT_MESSAGE(message_id=9065*)
    → "I know it seems overly fussy, but please understand. These pickles bear the name of my hostelry on them. Their quality affects our store's image.\u007F1\u0000\u0007"
  7: 0x0413 [0x23] WAIT_FOR_DIALOG_INTERACTION
  8: 0x0414 [0x29] REQ_SET_WAIT(priority=0x08, entity_id=Chamama (ID: 17752151/0x010EE057), tag_num=0x02)
  9: 0x041B [0x20] SET_CLI_EVENT_UC_FLAG: Unlock player control
 10: 0x041D [0x21] END_EVENT
 11: 0x041E [0x00] END_REQSTACK()
```
