# Event 798

## Metadata

| Field           | Value    |
|-----------------|----------|
| Event Index     | 51/59    |
| Offset          | 0x05A9   |
| Data Size       | 19 bytes |
| Calculated Size | 19 bytes |
| Instructions    | 10       |

```
      00 01 02 03 04 05 06 07  08 09 0A 0B 0C 0D 0E 0F
      -- -- -- -- -- -- -- --  -- -- -- -- -- -- -- --
05A0:                             1E F0 FF FF 7F 6F 70           .....op
05B0: 1D 38 80 23 1D 39 80 23  20 00 21 00              .8.#.9.# .!.    
```

## Opcodes

```
  0: 0x05A9 [0x1E] EventEntity looks at LocalPlayer and starts talking
  1: 0x05AE [0x6F] WAIT_FRAME_DELAY: Yield until WaitTime reaches zero
  2: 0x05AF [0x70] WAIT_ENTITY_RENDER_FLAG: Wait while EventEntity->Render.Flags3 bit 2 is set (cancel turn if not)
  3: 0x05B0 [0x1D] PRINT_EVENT_MESSAGE(message_id=9929*)
    → "Out of all the materials needed to make \u0001\u00056\u0002\u0002\u0000\u0000, \u0001\u0001\u0001 \u0001\u0005$\u0002\u0001\u0000\u0000 is the most importantaru and the most difficultaru to find. If you bring me \u0001\u0001\u0001 \u0001\u0005$\u0002\u0001\u0000\u0000, I'll do my best to whip one up for you.\u007F1\u0000\u0007"
  4: 0x05B3 [0x23] WAIT_FOR_DIALOG_INTERACTION
  5: 0x05B4 [0x1D] PRINT_EVENT_MESSAGE(message_id=9930*)
    → "...By the way, what were you thinking of using it for? If it's for something other than child's play, I'll put you over my knee, young \u007F\u0005[man/lady]!\u007F1\u0000\u0007"
  6: 0x05B7 [0x23] WAIT_FOR_DIALOG_INTERACTION
  7: 0x05B8 [0x20] SET_CLI_EVENT_UC_FLAG: Unlock player control
  8: 0x05BA [0x21] END_EVENT
  9: 0x05BB [0x00] END_REQSTACK()
```
