# Event 211

## Metadata

| Field           | Value    |
|-----------------|----------|
| Event Index     | 5/11     |
| Offset          | 0x002E   |
| Data Size       | 49 bytes |
| Calculated Size | 49 bytes |
| Instructions    | 16       |

```
      00 01 02 03 04 05 06 07  08 09 0A 0B 0C 0D 0E 0F
      -- -- -- -- -- -- -- --  -- -- -- -- -- -- -- --
0020:                                            1E F0                ..
0030: FF FF 7F 6F 70 1D 01 80  23 24 02 80 03 80 03 80  ...op...#$......
0040: 25 02 00 10 03 80 00 50  00 1D 04 80 23 01 5B 00  %......P....#.[.
0050: 02 00 10 05 80 00 5B 00  01 5B 00 20 00 21 00     ......[..[. .!. 
```

## Opcodes

```
  0: 0x002E [0x1E] EventEntity looks at LocalPlayer and starts talking
  1: 0x0033 [0x6F] WAIT_FRAME_DELAY: Yield until WaitTime reaches zero
  2: 0x0034 [0x70] WAIT_ENTITY_RENDER_FLAG: Wait while EventEntity->Render.Flags3 bit 2 is set (cancel turn if not)
  3: 0x0035 [0x1D] PRINT_EVENT_MESSAGE(message_id=10396*)
    → "Opo opo-opo!\u0007Opo-opoh! Opopo! Pohppo-opo!\u007F1\u0000\u0007"
  4: 0x0038 [0x23] WAIT_FOR_DIALOG_INTERACTION
  5: 0x0039 [0x24] CREATE_DIALOG(message_id=10397*, default_option=0*, option_flags=0*)
    → "Pohppo-opo!\u0007\u000BOpo?\u0007...\u007F1\u0000\u0007"
  6: 0x0040 [0x25] WAIT_DIALOG_SELECT()
  7: 0x0041 [0x02] IF !(Work_Zone[0] == 0*) GOTO 0x0050
  8: 0x0049 [0x1D] PRINT_EVENT_MESSAGE(message_id=10402*)
    → "Opopoh-o...\u007F1\u0000\u0007"
  9: 0x004C [0x23] WAIT_FOR_DIALOG_INTERACTION
 10: 0x004D [0x01] GOTO 0x005B

SUBROUTINE_0050:
 11: 0x0050 [0x02] IF !(Work_Zone[0] == 1*) GOTO 0x005B
 12: 0x0058 [0x01] GOTO 0x005B

SUBROUTINE_005B:
 13: 0x005B [0x20] SET_CLI_EVENT_UC_FLAG: Unlock player control
 14: 0x005D [0x21] END_EVENT
 15: 0x005E [0x00] END_REQSTACK()
```
