# Event 191

## Metadata

| Field           | Value    |
|-----------------|----------|
| Event Index     | 3/9      |
| Offset          | 0x000E   |
| Data Size       | 17 bytes |
| Calculated Size | 17 bytes |
| Instructions    | 9        |

```
      00 01 02 03 04 05 06 07  08 09 0A 0B 0C 0D 0E 0F
      -- -- -- -- -- -- -- --  -- -- -- -- -- -- -- --
0000:                                            1E F0                ..
0010: FF FF 7F 6F 70 1D 01 80  23 1D 02 80 23 21 00     ...op...#...#!. 
```

## Opcodes

```
  0: 0x000E [0x1E] EventEntity looks at LocalPlayer and starts talking
  1: 0x0013 [0x6F] WAIT_FRAME_DELAY: Yield until WaitTime reaches zero
  2: 0x0014 [0x70] WAIT_ENTITY_RENDER_FLAG: Wait while EventEntity->Render.Flags3 bit 2 is set (cancel turn if not)
  3: 0x0015 [0x1D] PRINT_EVENT_MESSAGE(message_id=7077*)
    → "Ah, I see you have dabbled in the art of fishing...\u007F1\u0000\u0007"
  4: 0x0018 [0x23] WAIT_FOR_DIALOG_INTERACTION
  5: 0x0019 [0x1D] PRINT_EVENT_MESSAGE(message_id=7078*)
    → "But you still have a long way to go. Come back when you've managed to catch some bigger game.\u007F1\u0000\u0007"
  6: 0x001C [0x23] WAIT_FOR_DIALOG_INTERACTION
  7: 0x001D [0x21] END_EVENT
  8: 0x001E [0x00] END_REQSTACK()
```
