# Event 383

## Metadata

| Field           | Value    |
|-----------------|----------|
| Event Index     | 3/3      |
| Offset          | 0x0032   |
| Data Size       | 49 bytes |
| Calculated Size | 49 bytes |
| Instructions    | 11       |

```
      00 01 02 03 04 05 06 07  08 09 0A 0B 0C 0D 0E 0F
      -- -- -- -- -- -- -- --  -- -- -- -- -- -- -- --
0030:       1E F0 FF FF 7F 1D  04 80 23 5B 01 80 F8 FF    ........#[....
0040: FF 7F F8 FF FF 7F 74 68  6B 31 1D 05 80 23 5B 01  ......thk1...#[.
0050: 80 F8 FF FF 7F F8 FF FF  7F 74 68 6B 32 1D 06 80  .........thk2...
0060: 23 21 00                                          #!.             
```

## Opcodes

```
  0: 0x0032 [0x1E] EventEntity looks at LocalPlayer and starts talking
  1: 0x0037 [0x1D] PRINT_EVENT_MESSAGE(message_id=11117*)
    → "The elder Despachiaire's granddaughter has the most magnificent voice. It is as if you were hearing the whisper of the Dawn Goddess herself.\u007F1\u0000\u0007"
  2: 0x003A [0x23] WAIT_FOR_DIALOG_INTERACTION
  3: 0x003B [0x5B] LOAD_EXT_SCHEDULER(work_offset=35*, entity1=EventEntity, entity2=EventEntity, action="thk1")
  4: 0x004A [0x1D] PRINT_EVENT_MESSAGE(message_id=11118*)
    → "However, I remember there being another young girl in the Tavnazian choir who was just as talented as Lady Ulmia.\u007F1\u0000\u0007"
  5: 0x004D [0x23] WAIT_FOR_DIALOG_INTERACTION
  6: 0x004E [0x5B] LOAD_EXT_SCHEDULER(work_offset=35*, entity1=EventEntity, entity2=EventEntity, action="thk2")
  7: 0x005D [0x1D] PRINT_EVENT_MESSAGE(message_id=11119*)
    → "If only little Emeline had survived the beastman attack.\u007F1\u0000\u0007"
  8: 0x0060 [0x23] WAIT_FOR_DIALOG_INTERACTION
  9: 0x0061 [0x21] END_EVENT
 10: 0x0062 [0x00] END_REQSTACK()
```
