# Event 326

## Metadata

| Field           | Value    |
|-----------------|----------|
| Event Index     | 6/7      |
| Offset          | 0x013A   |
| Data Size       | 28 bytes |
| Calculated Size | 28 bytes |
| Instructions    | 11       |

```
      00 01 02 03 04 05 06 07  08 09 0A 0B 0C 0D 0E 0F
      -- -- -- -- -- -- -- --  -- -- -- -- -- -- -- --
0130:                                1E F0 FF FF 7F 6F            .....o
0140: 70 02 04 10 0C 80 00 50  01 1D 12 80 23 01 54 01  p......P....#.T.
0150: 1D 13 80 23 21 00                                 ...#!.          
```

## Opcodes

```
  0: 0x013A [0x1E] EventEntity looks at LocalPlayer and starts talking
  1: 0x013F [0x6F] WAIT_FRAME_DELAY: Yield until WaitTime reaches zero
  2: 0x0140 [0x70] WAIT_ENTITY_RENDER_FLAG: Wait while EventEntity->Render.Flags3 bit 2 is set (cancel turn if not)
  3: 0x0141 [0x02] IF !(Work_Zone[4] == 0*) GOTO 0x0150
  4: 0x0149 [0x1D] PRINT_EVENT_MESSAGE(message_id=7918*)
    → "Don't ask me why, but my discerning nose tells me I'll be asking a similar favor of you in the none-too-distant future.\u0007If you've any semblance of good taste, you'll continue to serve me well.\u007F1\u0000\u0007"
  5: 0x014C [0x23] WAIT_FOR_DIALOG_INTERACTION
  6: 0x014D [0x01] GOTO 0x0154

SUBROUTINE_0150:
  7: 0x0150 [0x1D] PRINT_EVENT_MESSAGE(message_id=7921*)
    → "Such a dutiful \u007F\u0005[lad/lass] you are!\u0007Have no fear--I will see to it that you survive the great famine.\u0007Let it not be said that the mighty Piketo-Puketo does not smile upon the cultured and refined! Bwahahaha!\u007F1\u0000\u0007"
  8: 0x0153 [0x23] WAIT_FOR_DIALOG_INTERACTION
  9: 0x0154 [0x21] END_EVENT
 10: 0x0155 [0x00] END_REQSTACK()
```
