# Event 327

## Metadata

| Field           | Value    |
|-----------------|----------|
| Event Index     | 7/7      |
| Offset          | 0x0156   |
| Data Size       | 18 bytes |
| Calculated Size | 18 bytes |
| Instructions    | 10       |

```
      00 01 02 03 04 05 06 07  08 09 0A 0B 0C 0D 0E 0F
      -- -- -- -- -- -- -- --  -- -- -- -- -- -- -- --
0150:                   42 1E  F0 FF FF 7F 6F 70 1D 15        B.....op..
0160: 80 23 1D 0D 80 23 21 00                           .#...#!.        
```

## Opcodes

```
  0: 0x0156 [0x42] SET_CLI_EVENT_CANCEL_DATA()
  1: 0x0157 [0x1E] EventEntity looks at LocalPlayer and starts talking
  2: 0x015C [0x6F] WAIT_FRAME_DELAY: Yield until WaitTime reaches zero
  3: 0x015D [0x70] WAIT_ENTITY_RENDER_FLAG: Wait while EventEntity->Render.Flags3 bit 2 is set (cancel turn if not)
  4: 0x015E [0x1D] PRINT_EVENT_MESSAGE(message_id=7919*)
    → "My loyal minion returns, and not a moment too soon!\u0007It seems the world can't get enough of my gustatory delights.\u0007Here's your \u0001\u00053\u0002\u0000\u0000\u0000. You already know what to do with it, so chop chop!\u007F1\u0000\u0007"
  5: 0x0161 [0x23] WAIT_FOR_DIALOG_INTERACTION
  6: 0x0162 [0x1D] PRINT_EVENT_MESSAGE(message_id=7920*)
    → "What are you dawdling around here for? The world awaits victuals from my heavenly oven!\u0007To the trees lining the path to Meriphataud with you!\u007F1\u0000\u0007"
  7: 0x0165 [0x23] WAIT_FOR_DIALOG_INTERACTION
  8: 0x0166 [0x21] END_EVENT
  9: 0x0167 [0x00] END_REQSTACK()
```
