# 17318646 - Amaura

## Common Data

| Field            | Value                         |
|------------------|-------------------------------|
| Zone             | Abyssea - La Theine (ID: 132) |
| Block Size       | 484 bytes                     |
| Total Events     | 6                             |
| References Count | 20                            |

## List of Events

| Event ID              | Entrypoint   |   Size |   Instructions |
|-----------------------|--------------|--------|----------------|
| [65535](#event-65535) | 0x0000       |      1 |              1 |
| [153](#event-153)     | 0x0001       |    198 |             62 |
| [154](#event-154)     | 0x00C7       |     41 |             13 |
| [155](#event-155)     | 0x00F0       |     95 |             21 |
| [156](#event-156)     | 0x014F       |     28 |              8 |
| [190](#event-190)     | 0x016B       |      1 |              1 |

## DAT References (imed_data)

|   Index | Hex Value   |   Dec Value |
|---------|-------------|-------------|
|       0 | 0x0000      |           0 |
|       1 | 0x0023      |          35 |
|       2 | 0x1EC2      |        7874 |
|       3 | 0x1EC3      |        7875 |
|       4 | 0x1EC4      |        7876 |
|       5 | 0x062B      |        1579 |
|       6 | 0x1EC5      |        7877 |
|       7 | 0x1EC6      |        7878 |
|       8 | 0x0001      |           1 |
|       9 | 0x1EC8      |        7880 |
|      10 | 0x1EC9      |        7881 |
|      11 | 0x1ECA      |        7882 |
|      12 | 0x1EC7      |        7879 |
|      13 | 0x1ECE      |        7886 |
|      14 | 0x1ECF      |        7887 |
|      15 | 0x1ECB      |        7883 |
|      16 | 0x1ECC      |        7884 |
|      17 | 0x00F0      |         240 |
|      18 | 0x1ECD      |        7885 |
|      19 | 0x00C9      |         201 |

## String References

- **7874**: Hm? Yours be a fresh face to these parts, if my flounderin' memory's not mistaken. And what's a newcomer good for if [he/she] can't be prevailed upon for a chore or three? Ohohoho...
- **7875**: Not that ye be needin' tellin', but the folk here have their hands full with just stayin' alive. And then there's the bloody-red sky loomin' above...
- **7876**: The sun's up and disappeared, like a regular Lothario. The moon shines bright as ever, to be sure, but folk can't live long without sunlight before they start goin' pale and pallid. That's why I've been makin' a special medicine--a supplement for sunlight, ye could say.
- **7877**: I've fair run out of the $5 I use to brew my medicine. Would ye be a dear and fetch one for old Amaura?
- **7878**: Fetch $6 for Amaura? [Always willing to serve!/I've better things to do, lady.]
- **7879**: Is that right... Young'uns these days have lost all respect for their elders, 'twould seem.
- **7880**: Thank ye muchly, young [man/lady]. Now, ye'll be wantin' to go to the edge of the ravine east of here, when the moon's not showin' its great round face, mind ye.
- **7881**: From your vantage point, look down into the valley floor. Find a gentle glow and ye'll find what we need.
- **7882**: It just so happens that my young apprentice, Raminel, is on-site at this very moment. Follow his instructions, and with a wee bit of pluck, ye'll have the $3 before ye know it.
- **7883**: Ah, ye've returned...and with what I asked for, no less! I knew ye had potential, young [man/lady].
- **7884**: Thanks to ye, the folk here can keep enjoyin' ruddy complexions even without sunlight. Here's a little something for your troubles. It ought to come in handy.
- **7885**: So ye've returned...and without what I asked for. Looks like it'll take one with a backbone firmer than yours to fetch what I need.
- **7886**: Well, well, if it isn't the trusty young [man/lady]. My thanks for the other day.
- **7887**: Hm? But why the long face? I have just the chore to perk ye right up!

## Events

### Event 65535

#### Metadata

| Field        | Value   |
|--------------|---------|
| Entrypoint   | 0x0000  |
| Data Size    | 1 bytes |
| Instructions | 1       |

```
      00 01 02 03 04 05 06 07  08 09 0A 0B 0C 0D 0E 0F
      -- -- -- -- -- -- -- --  -- -- -- -- -- -- -- --
0000: 00                                                .               
```

#### Opcodes

```
  0: 0x0000 [0x00] END_REQSTACK()
```

### Event 153

#### Metadata

| Field        | Value     |
|--------------|-----------|
| Entrypoint   | 0x0001    |
| Data Size    | 198 bytes |
| Instructions | 62        |

```
      00 01 02 03 04 05 06 07  08 09 0A 0B 0C 0D 0E 0F
      -- -- -- -- -- -- -- --  -- -- -- -- -- -- -- --
0000:    20 01 42 03 00 00 09  10 06 01 10 1E F0 FF FF    .B............
0010: 7F 6F 70 02 00 00 00 80  00 7B 00 5B 01 80 F8 FF  .op......{.[....
0020: FF 7F F8 FF FF 7F 74 6C  6B 30 1D 02 80 23 1D 03  ......tlk0...#..
0030: 80 23 1D 04 80 23 03 02  10 05 80 1D 06 80 23 24  .#...#........#$
0040: 07 80 08 80 00 80 25 02  00 10 00 80 00 69 00 42  ......%......i.B
0050: 1D 09 80 23 1D 0A 80 23  03 02 10 05 80 1D 0B 80  ...#...#........
0060: 23 03 01 10 08 80 01 78  00 02 00 10 08 80 00 78  #......x.......x
0070: 00 1D 0C 80 23 01 78 00  01 C5 00 1D 0D 80 23 1D  ....#.x.......#.
0080: 0E 80 23 03 02 10 05 80  1D 06 80 23 24 07 80 08  ..#........#$...
0090: 80 00 80 25 02 00 10 00  80 00 B6 00 42 1D 09 80  ...%........B...
00A0: 23 1D 0A 80 23 03 02 10  05 80 1D 0B 80 23 03 01  #...#........#..
00B0: 10 08 80 01 C5 00 02 00  10 08 80 00 C5 00 1D 0C  ................
00C0: 80 23 01 C5 00 21 00                              .#...!.         
```

#### Opcodes

```
  0: 0x0001 [0x20] SET_CLI_EVENT_UC_FLAG: Lock player control
  1: 0x0003 [0x42] SET_CLI_EVENT_CANCEL_DATA()
  2: 0x0004 [0x03] ExtData[1]->WorkLocal[0] = Work_Zone[9]
  3: 0x0009 [0x06] Work_Zone[1] = 0
  4: 0x000C [0x1E] EventEntity looks at LocalPlayer and starts talking
  5: 0x0011 [0x6F] WAIT_FRAME_DELAY: Yield until WaitTime reaches zero
  6: 0x0012 [0x70] WAIT_ENTITY_RENDER_FLAG: Wait while EventEntity->Render.Flags3 bit 2 is set (cancel turn if not)
  7: 0x0013 [0x02] IF !(ExtData[1]->WorkLocal[0] == 0*) GOTO 0x007B
  8: 0x001B [0x5B] LOAD_EXT_SCHEDULER: Load scheduler "tlk0" with entities [EventEntity, EventEntity], work=35*
  9: 0x002A [0x1D] PRINT_EVENT_MESSAGE(message_id=7874*)
    → "Hm? Yours be a fresh face to these parts, if my flounderin' memory's not mistaken. And what's a newcomer good for if [he/she] can't be prevailed upon for a chore or three? Ohohoho..."
 10: 0x002D [0x23] WAIT_FOR_DIALOG_INTERACTION
 11: 0x002E [0x1D] PRINT_EVENT_MESSAGE(message_id=7875*)
    → "Not that ye be needin' tellin', but the folk here have their hands full with just stayin' alive. And then there's the bloody-red sky loomin' above..."
 12: 0x0031 [0x23] WAIT_FOR_DIALOG_INTERACTION
 13: 0x0032 [0x1D] PRINT_EVENT_MESSAGE(message_id=7876*)
    → "The sun's up and disappeared, like a regular Lothario. The moon shines bright as ever, to be sure, but folk can't live long without sunlight before they start goin' pale and pallid. That's why I've been makin' a special medicine--a supplement for sunlight, ye could say."
 14: 0x0035 [0x23] WAIT_FOR_DIALOG_INTERACTION
 15: 0x0036 [0x03] Work_Zone[2] = 1579*
 16: 0x003B [0x1D] PRINT_EVENT_MESSAGE(message_id=7877*)
    → "I've fair run out of the $5 I use to brew my medicine. Would ye be a dear and fetch one for old Amaura?"
 17: 0x003E [0x23] WAIT_FOR_DIALOG_INTERACTION
 18: 0x003F [0x24] CREATE_DIALOG(message_id=7878*, default_option=1*, option_flags=0*)
    → "Fetch $6 for Amaura? [Always willing to serve!/I've better things to do, lady.]"
 19: 0x0046 [0x25] WAIT_DIALOG_SELECT()
 20: 0x0047 [0x02] IF !(Work_Zone[0] == 0*) GOTO 0x0069
 21: 0x004F [0x42] SET_CLI_EVENT_CANCEL_DATA()
 22: 0x0050 [0x1D] PRINT_EVENT_MESSAGE(message_id=7880*)
    → "Thank ye muchly, young [man/lady]. Now, ye'll be wantin' to go to the edge of the ravine east of here, when the moon's not showin' its great round face, mind ye."
 23: 0x0053 [0x23] WAIT_FOR_DIALOG_INTERACTION
 24: 0x0054 [0x1D] PRINT_EVENT_MESSAGE(message_id=7881*)
    → "From your vantage point, look down into the valley floor. Find a gentle glow and ye'll find what we need."
 25: 0x0057 [0x23] WAIT_FOR_DIALOG_INTERACTION
 26: 0x0058 [0x03] Work_Zone[2] = 1579*
 27: 0x005D [0x1D] PRINT_EVENT_MESSAGE(message_id=7882*)
    → "It just so happens that my young apprentice, Raminel, is on-site at this very moment. Follow his instructions, and with a wee bit of pluck, ye'll have the $3 before ye know it."
 28: 0x0060 [0x23] WAIT_FOR_DIALOG_INTERACTION
 29: 0x0061 [0x03] Work_Zone[1] = 1*
 30: 0x0066 [0x01] GOTO 0x0078
 31: 0x0069 [0x02] IF !(Work_Zone[0] == 1*) GOTO 0x0078
 32: 0x0071 [0x1D] PRINT_EVENT_MESSAGE(message_id=7879*)
    → "Is that right... Young'uns these days have lost all respect for their elders, 'twould seem."
 33: 0x0074 [0x23] WAIT_FOR_DIALOG_INTERACTION
 34: 0x0075 [0x01] GOTO 0x0078

SUBROUTINE_0078:
 35: 0x0078 [0x01] GOTO 0x00C5
 36: 0x007B [0x1D] PRINT_EVENT_MESSAGE(message_id=7886*)
    → "Well, well, if it isn't the trusty young [man/lady]. My thanks for the other day."
 37: 0x007E [0x23] WAIT_FOR_DIALOG_INTERACTION
 38: 0x007F [0x1D] PRINT_EVENT_MESSAGE(message_id=7887*)
    → "Hm? But why the long face? I have just the chore to perk ye right up!"
 39: 0x0082 [0x23] WAIT_FOR_DIALOG_INTERACTION
 40: 0x0083 [0x03] Work_Zone[2] = 1579*
 41: 0x0088 [0x1D] PRINT_EVENT_MESSAGE(message_id=7877*)
    → "I've fair run out of the $5 I use to brew my medicine. Would ye be a dear and fetch one for old Amaura?"
 42: 0x008B [0x23] WAIT_FOR_DIALOG_INTERACTION
 43: 0x008C [0x24] CREATE_DIALOG(message_id=7878*, default_option=1*, option_flags=0*)
    → "Fetch $6 for Amaura? [Always willing to serve!/I've better things to do, lady.]"
 44: 0x0093 [0x25] WAIT_DIALOG_SELECT()
 45: 0x0094 [0x02] IF !(Work_Zone[0] == 0*) GOTO 0x00B6
 46: 0x009C [0x42] SET_CLI_EVENT_CANCEL_DATA()
 47: 0x009D [0x1D] PRINT_EVENT_MESSAGE(message_id=7880*)
    → "Thank ye muchly, young [man/lady]. Now, ye'll be wantin' to go to the edge of the ravine east of here, when the moon's not showin' its great round face, mind ye."
 48: 0x00A0 [0x23] WAIT_FOR_DIALOG_INTERACTION
 49: 0x00A1 [0x1D] PRINT_EVENT_MESSAGE(message_id=7881*)
    → "From your vantage point, look down into the valley floor. Find a gentle glow and ye'll find what we need."
 50: 0x00A4 [0x23] WAIT_FOR_DIALOG_INTERACTION
 51: 0x00A5 [0x03] Work_Zone[2] = 1579*
 52: 0x00AA [0x1D] PRINT_EVENT_MESSAGE(message_id=7882*)
    → "It just so happens that my young apprentice, Raminel, is on-site at this very moment. Follow his instructions, and with a wee bit of pluck, ye'll have the $3 before ye know it."
 53: 0x00AD [0x23] WAIT_FOR_DIALOG_INTERACTION
 54: 0x00AE [0x03] Work_Zone[1] = 1*
 55: 0x00B3 [0x01] GOTO 0x00C5
 56: 0x00B6 [0x02] IF !(Work_Zone[0] == 1*) GOTO 0x00C5
 57: 0x00BE [0x1D] PRINT_EVENT_MESSAGE(message_id=7879*)
    → "Is that right... Young'uns these days have lost all respect for their elders, 'twould seem."
 58: 0x00C1 [0x23] WAIT_FOR_DIALOG_INTERACTION
 59: 0x00C2 [0x01] GOTO 0x00C5

SUBROUTINE_00C5:
 60: 0x00C5 [0x21] END_EVENT
 61: 0x00C6 [0x00] END_REQSTACK()
```

### Event 154

#### Metadata

| Field        | Value    |
|--------------|----------|
| Entrypoint   | 0x00C7   |
| Data Size    | 41 bytes |
| Instructions | 13       |

```
      00 01 02 03 04 05 06 07  08 09 0A 0B 0C 0D 0E 0F
      -- -- -- -- -- -- -- --  -- -- -- -- -- -- -- --
00C0:                      1E  F0 FF FF 7F 6F 70 5B 01         .....op[.
00D0: 80 F8 FF FF 7F F8 FF FF  7F 74 6C 6B 30 1D 09 80  .........tlk0...
00E0: 23 1D 0A 80 23 03 02 10  05 80 1D 0B 80 23 21 00  #...#........#!.
```

#### Opcodes

```
  0: 0x00C7 [0x1E] EventEntity looks at LocalPlayer and starts talking
  1: 0x00CC [0x6F] WAIT_FRAME_DELAY: Yield until WaitTime reaches zero
  2: 0x00CD [0x70] WAIT_ENTITY_RENDER_FLAG: Wait while EventEntity->Render.Flags3 bit 2 is set (cancel turn if not)
  3: 0x00CE [0x5B] LOAD_EXT_SCHEDULER: Load scheduler "tlk0" with entities [EventEntity, EventEntity], work=35*
  4: 0x00DD [0x1D] PRINT_EVENT_MESSAGE(message_id=7880*)
    → "Thank ye muchly, young [man/lady]. Now, ye'll be wantin' to go to the edge of the ravine east of here, when the moon's not showin' its great round face, mind ye."
  5: 0x00E0 [0x23] WAIT_FOR_DIALOG_INTERACTION
  6: 0x00E1 [0x1D] PRINT_EVENT_MESSAGE(message_id=7881*)
    → "From your vantage point, look down into the valley floor. Find a gentle glow and ye'll find what we need."
  7: 0x00E4 [0x23] WAIT_FOR_DIALOG_INTERACTION
  8: 0x00E5 [0x03] Work_Zone[2] = 1579*
  9: 0x00EA [0x1D] PRINT_EVENT_MESSAGE(message_id=7882*)
    → "It just so happens that my young apprentice, Raminel, is on-site at this very moment. Follow his instructions, and with a wee bit of pluck, ye'll have the $3 before ye know it."
 10: 0x00ED [0x23] WAIT_FOR_DIALOG_INTERACTION
 11: 0x00EE [0x21] END_EVENT
 12: 0x00EF [0x00] END_REQSTACK()
```

### Event 155

#### Metadata

| Field        | Value    |
|--------------|----------|
| Entrypoint   | 0x00F0   |
| Data Size    | 95 bytes |
| Instructions | 21       |

```
      00 01 02 03 04 05 06 07  08 09 0A 0B 0C 0D 0E 0F
      -- -- -- -- -- -- -- --  -- -- -- -- -- -- -- --
00F0: 20 01 42 03 01 00 09 10  1E F0 FF FF 7F 6F 70 5B   .B..........op[
0100: 01 80 F8 FF FF 7F F8 FF  FF 7F 74 6C 6B 30 02 01  ..........tlk0..
0110: 00 00 80 00 38 01 1D 0F  80 23 1D 10 80 23 66 01  ....8....#...#f.
0120: 80 F8 FF FF 7F F8 FF FF  7F 70 61 73 30 1C 11 80  .........pas0...
0130: 03 01 10 08 80 01 3C 01  1D 12 80 23 45 13 80 F0  ......<....#E...
0140: FF FF 7F F0 FF FF 7F 71  73 74 63 00 80 21 00     .......qstc..!. 
```

#### Opcodes

```
  0: 0x00F0 [0x20] SET_CLI_EVENT_UC_FLAG: Lock player control
  1: 0x00F2 [0x42] SET_CLI_EVENT_CANCEL_DATA()
  2: 0x00F3 [0x03] ExtData[1]->WorkLocal[1] = Work_Zone[9]
  3: 0x00F8 [0x1E] EventEntity looks at LocalPlayer and starts talking
  4: 0x00FD [0x6F] WAIT_FRAME_DELAY: Yield until WaitTime reaches zero
  5: 0x00FE [0x70] WAIT_ENTITY_RENDER_FLAG: Wait while EventEntity->Render.Flags3 bit 2 is set (cancel turn if not)
  6: 0x00FF [0x5B] LOAD_EXT_SCHEDULER: Load scheduler "tlk0" with entities [EventEntity, EventEntity], work=35*
  7: 0x010E [0x02] IF !(ExtData[1]->WorkLocal[1] == 0*) GOTO 0x0138
  8: 0x0116 [0x1D] PRINT_EVENT_MESSAGE(message_id=7883*)
    → "Ah, ye've returned...and with what I asked for, no less! I knew ye had potential, young [man/lady]."
  9: 0x0119 [0x23] WAIT_FOR_DIALOG_INTERACTION
 10: 0x011A [0x1D] PRINT_EVENT_MESSAGE(message_id=7884*)
    → "Thanks to ye, the folk here can keep enjoyin' ruddy complexions even without sunlight. Here's a little something for your troubles. It ought to come in handy."
 11: 0x011D [0x23] WAIT_FOR_DIALOG_INTERACTION
 12: 0x011E [0x66] LOAD_EXT_SCHEDULER_MAIN: Load scheduler "pas0" with entities [EventEntity, EventEntity], work=35*
 13: 0x012D [0x1C] WAIT(240* ticks)
 14: 0x0130 [0x03] Work_Zone[1] = 1*
 15: 0x0135 [0x01] GOTO 0x013C
 16: 0x0138 [0x1D] PRINT_EVENT_MESSAGE(message_id=7885*)
    → "So ye've returned...and without what I asked for. Looks like it'll take one with a backbone firmer than yours to fetch what I need."
 17: 0x013B [0x23] WAIT_FOR_DIALOG_INTERACTION

SUBROUTINE_013C:
 18: 0x013C [0x45] LOAD_SCHEDULED_TASK: Load scheduler "qstc" with entities [LocalPlayer, LocalPlayer], work=[201*, 0*]
 19: 0x014D [0x21] END_EVENT
 20: 0x014E [0x00] END_REQSTACK()
```

### Event 156

#### Metadata

| Field        | Value    |
|--------------|----------|
| Entrypoint   | 0x014F   |
| Data Size    | 28 bytes |
| Instructions | 8        |

```
      00 01 02 03 04 05 06 07  08 09 0A 0B 0C 0D 0E 0F
      -- -- -- -- -- -- -- --  -- -- -- -- -- -- -- --
0140:                                               1E                 .
0150: F0 FF FF 7F 6F 70 5B 01  80 F8 FF FF 7F F8 FF FF  ....op[.........
0160: 7F 74 6C 6B 30 1D 0D 80  23 21 00                 .tlk0...#!.     
```

#### Opcodes

```
  0: 0x014F [0x1E] EventEntity looks at LocalPlayer and starts talking
  1: 0x0154 [0x6F] WAIT_FRAME_DELAY: Yield until WaitTime reaches zero
  2: 0x0155 [0x70] WAIT_ENTITY_RENDER_FLAG: Wait while EventEntity->Render.Flags3 bit 2 is set (cancel turn if not)
  3: 0x0156 [0x5B] LOAD_EXT_SCHEDULER: Load scheduler "tlk0" with entities [EventEntity, EventEntity], work=35*
  4: 0x0165 [0x1D] PRINT_EVENT_MESSAGE(message_id=7886*)
    → "Well, well, if it isn't the trusty young [man/lady]. My thanks for the other day."
  5: 0x0168 [0x23] WAIT_FOR_DIALOG_INTERACTION
  6: 0x0169 [0x21] END_EVENT
  7: 0x016A [0x00] END_REQSTACK()
```

### Event 190

#### Metadata

| Field        | Value   |
|--------------|---------|
| Entrypoint   | 0x016B  |
| Data Size    | 1 bytes |
| Instructions | 1       |

```
      00 01 02 03 04 05 06 07  08 09 0A 0B 0C 0D 0E 0F
      -- -- -- -- -- -- -- --  -- -- -- -- -- -- -- --
0160:                                   00                         .    
```

#### Opcodes

```
  0: 0x016B [0x00] END_REQSTACK()
```
