# 17318612 - Regine

## Common Data

| Field            | Value                         |
|------------------|-------------------------------|
| Zone             | Abyssea - La Theine (ID: 132) |
| Block Size       | 392 bytes                     |
| Total Events     | 4                             |
| References Count | 17                            |

## List of Events

| Event ID              | Entrypoint   |   Size |   Instructions |
|-----------------------|--------------|--------|----------------|
| [65535](#event-65535) | 0x0000       |      1 |              1 |
| [166](#event-166)     | 0x0001       |     38 |             10 |
| [167](#event-167)     | 0x0027       |     31 |             10 |
| [168](#event-168)     | 0x0046       |    219 |             59 |

## DAT References (imed_data)

|   Index | Hex Value   |   Dec Value |
|---------|-------------|-------------|
|       0 | 0x001E      |          30 |
|       1 | 0x0A30      |        2608 |
|       2 | 0x0003      |           3 |
|       3 | 0x1EBB      |        7867 |
|       4 | 0x1EC0      |        7872 |
|       5 | 0x0000      |           0 |
|       6 | 0x0020      |          32 |
|       7 | 0x1EB4      |        7860 |
|       8 | 0x1EB5      |        7861 |
|       9 | 0x1EB6      |        7862 |
|      10 | 0x1EB7      |        7863 |
|      11 | 0x0001      |           1 |
|      12 | 0x03FD      |        1021 |
|      13 | 0x1EB9      |        7865 |
|      14 | 0x1EBA      |        7866 |
|      15 | 0x1EB8      |        7864 |
|      16 | 0x1EC1      |        7873 |

## String References

- **7860**: Oh, such a bind I've gotten myself into... Ah, kind [sir/madam]! Please hear my plight!
- **7861**: At my sister's behest I've come here to procure supplies, but alas, I was set upon by a vicious beast. I was able to drive it away, but not before taking a leg wound. Now I find I cannot hobble more than a few fulms without my leg giving out.
- **7862**: While I am loath to ask this of you, $1 $0 must absolutely be delivered to my sister at the central encampment. I beg you, friend, won't you do me this simple favor?
- **7863**: Help deliver $0? [How could I refuse a friend?/I'm not your friend.]
- **7864**: Oh. Well, then I'll just wait and pray that a selfless soul comes to my aid.
- **7865**: Thank you, kind [sir/madam]! You've no idea how much this means to me! Please take this $0--it should serve to ease the burden of harvesting.
- **7866**: My sister is called Rugiette. She can appear brusque at times, but deep down she is a sweetheart, truly.
- **7867**: That's $1 $0 delivered to my sister, Rugiette. She awaits at the central encampment, which lies within a ravine by some ponds to the southeast.
- **7872**: I knew I was right to depend on you! You have my gratitude! Now the folk of the encampment need not go without.
- **7873**: Oh, fancy meeting you here again. I'm still unable walk, would you believe it? Would you perchance, um...have spare time to make another delivery in my stead?

## Events

### Event 65535

#### Metadata

| Field        | Value   |
|--------------|---------|
| Entrypoint   | 0x0000  |
| Data Size    | 1 bytes |
| Instructions | 1       |

```
      00 01 02 03 04 05 06 07  08 09 0A 0B 0C 0D 0E 0F
      -- -- -- -- -- -- -- --  -- -- -- -- -- -- -- --
0000: 00                                                .               
```

#### Opcodes

```
  0: 0x0000 [0x00] END_REQSTACK()
```

### Event 166

#### Metadata

| Field        | Value    |
|--------------|----------|
| Entrypoint   | 0x0001   |
| Data Size    | 38 bytes |
| Instructions | 10       |

```
      00 01 02 03 04 05 06 07  08 09 0A 0B 0C 0D 0E 0F
      -- -- -- -- -- -- -- --  -- -- -- -- -- -- -- --
0000:    1E F0 FF FF 7F 6F 70  66 00 80 F8 FF FF 7F F8   .....opf.......
0010: FF FF 7F 74 6C 6B 30 03  02 10 01 80 03 03 10 02  ...tlk0.........
0020: 80 1D 03 80 23 21 00                              ....#!.         
```

#### Opcodes

```
  0: 0x0001 [0x1E] EventEntity looks at LocalPlayer and starts talking
  1: 0x0006 [0x6F] WAIT_FRAME_DELAY: Yield until WaitTime reaches zero
  2: 0x0007 [0x70] WAIT_ENTITY_RENDER_FLAG: Wait while EventEntity->Render.Flags3 bit 2 is set (cancel turn if not)
  3: 0x0008 [0x66] LOAD_EXT_SCHEDULER_MAIN: Load scheduler "tlk0" with entities [EventEntity, EventEntity], work=30*
  4: 0x0017 [0x03] Work_Zone[2] = 2608*
  5: 0x001C [0x03] Work_Zone[3] = 3*
  6: 0x0021 [0x1D] PRINT_EVENT_MESSAGE(message_id=7867*)
    → "That's $1 $0 delivered to my sister, Rugiette. She awaits at the central encampment, which lies within a ravine by some ponds to the southeast."
  7: 0x0024 [0x23] WAIT_FOR_DIALOG_INTERACTION
  8: 0x0025 [0x21] END_EVENT
  9: 0x0026 [0x00] END_REQSTACK()
```

### Event 167

#### Metadata

| Field        | Value    |
|--------------|----------|
| Entrypoint   | 0x0027   |
| Data Size    | 31 bytes |
| Instructions | 10       |

```
      00 01 02 03 04 05 06 07  08 09 0A 0B 0C 0D 0E 0F
      -- -- -- -- -- -- -- --  -- -- -- -- -- -- -- --
0020:                      20  01 42 1E F0 FF FF 7F 6F          .B.....o
0030: 70 66 00 80 F8 FF FF 7F  F8 FF FF 7F 74 6C 6B 30  pf..........tlk0
0040: 1D 04 80 23 21 00                                 ...#!.          
```

#### Opcodes

```
  0: 0x0027 [0x20] SET_CLI_EVENT_UC_FLAG: Lock player control
  1: 0x0029 [0x42] SET_CLI_EVENT_CANCEL_DATA()
  2: 0x002A [0x1E] EventEntity looks at LocalPlayer and starts talking
  3: 0x002F [0x6F] WAIT_FRAME_DELAY: Yield until WaitTime reaches zero
  4: 0x0030 [0x70] WAIT_ENTITY_RENDER_FLAG: Wait while EventEntity->Render.Flags3 bit 2 is set (cancel turn if not)
  5: 0x0031 [0x66] LOAD_EXT_SCHEDULER_MAIN: Load scheduler "tlk0" with entities [EventEntity, EventEntity], work=30*
  6: 0x0040 [0x1D] PRINT_EVENT_MESSAGE(message_id=7872*)
    → "I knew I was right to depend on you! You have my gratitude! Now the folk of the encampment need not go without."
  7: 0x0043 [0x23] WAIT_FOR_DIALOG_INTERACTION
  8: 0x0044 [0x21] END_EVENT
  9: 0x0045 [0x00] END_REQSTACK()
```

### Event 168

#### Metadata

| Field        | Value     |
|--------------|-----------|
| Entrypoint   | 0x0046    |
| Data Size    | 219 bytes |
| Instructions | 59        |

```
      00 01 02 03 04 05 06 07  08 09 0A 0B 0C 0D 0E 0F
      -- -- -- -- -- -- -- --  -- -- -- -- -- -- -- --
0040:                   20 01  42 03 00 00 09 10 06 01         .B.......
0050: 10 1E F0 FF FF 7F 6F 70  02 00 00 05 80 00 C9 00  ......op........
0060: 6E D4 42 08 01 06 80 99  D4 42 08 01 1D 07 80 23  n.B......B.....#
0070: 66 00 80 F8 FF FF 7F F8  FF FF 7F 74 6C 6B 30 1D  f..........tlk0.
0080: 08 80 23 03 02 10 01 80  03 03 10 02 80 1D 09 80  ..#.............
0090: 23 24 0A 80 0B 80 05 80  25 02 00 10 05 80 00 B7  #$......%.......
00A0: 00 42 03 02 10 0C 80 1D  0D 80 23 1D 0E 80 23 03  .B........#...#.
00B0: 01 10 0B 80 01 C6 00 02  00 10 0B 80 00 C6 00 1D  ................
00C0: 0F 80 23 01 C6 00 01 1F  01 66 00 80 F8 FF FF 7F  ..#......f......
00D0: F8 FF FF 7F 74 6C 6B 30  1D 10 80 23 03 02 10 01  ....tlk0...#....
00E0: 80 03 03 10 02 80 1D 09  80 23 24 0A 80 0B 80 05  .........#$.....
00F0: 80 25 02 00 10 05 80 00  10 01 42 03 02 10 0C 80  .%........B.....
0100: 1D 0D 80 23 1D 0E 80 23  03 01 10 0B 80 01 1F 01  ...#...#........
0110: 02 00 10 0B 80 00 1F 01  1D 0F 80 23 01 1F 01 21  ...........#...!
0120: 00                                                .               
```

#### Opcodes

```
  0: 0x0046 [0x20] SET_CLI_EVENT_UC_FLAG: Lock player control
  1: 0x0048 [0x42] SET_CLI_EVENT_CANCEL_DATA()
  2: 0x0049 [0x03] ExtData[1]->WorkLocal[0] = Work_Zone[9]
  3: 0x004E [0x06] Work_Zone[1] = 0
  4: 0x0051 [0x1E] EventEntity looks at LocalPlayer and starts talking
  5: 0x0056 [0x6F] WAIT_FRAME_DELAY: Yield until WaitTime reaches zero
  6: 0x0057 [0x70] WAIT_ENTITY_RENDER_FLAG: Wait while EventEntity->Render.Flags3 bit 2 is set (cancel turn if not)
  7: 0x0058 [0x02] IF !(ExtData[1]->WorkLocal[0] == 0*) GOTO 0x00C9
  8: 0x0060 [0x6E] Regine (ID: 17318612/0x010842D4) uses emote 32*
  9: 0x0067 [0x99] Wait for Regine (ID: 17318612/0x010842D4) animation to complete
 10: 0x006C [0x1D] PRINT_EVENT_MESSAGE(message_id=7860*)
    → "Oh, such a bind I've gotten myself into... Ah, kind [sir/madam]! Please hear my plight!"
 11: 0x006F [0x23] WAIT_FOR_DIALOG_INTERACTION
 12: 0x0070 [0x66] LOAD_EXT_SCHEDULER_MAIN: Load scheduler "tlk0" with entities [EventEntity, EventEntity], work=30*
 13: 0x007F [0x1D] PRINT_EVENT_MESSAGE(message_id=7861*)
    → "At my sister's behest I've come here to procure supplies, but alas, I was set upon by a vicious beast. I was able to drive it away, but not before taking a leg wound. Now I find I cannot hobble more than a few fulms without my leg giving out."
 14: 0x0082 [0x23] WAIT_FOR_DIALOG_INTERACTION
 15: 0x0083 [0x03] Work_Zone[2] = 2608*
 16: 0x0088 [0x03] Work_Zone[3] = 3*
 17: 0x008D [0x1D] PRINT_EVENT_MESSAGE(message_id=7862*)
    → "While I am loath to ask this of you, $1 $0 must absolutely be delivered to my sister at the central encampment. I beg you, friend, won't you do me this simple favor?"
 18: 0x0090 [0x23] WAIT_FOR_DIALOG_INTERACTION
 19: 0x0091 [0x24] CREATE_DIALOG(message_id=7863*, default_option=1*, option_flags=0*)
    → "Help deliver $0? [How could I refuse a friend?/I'm not your friend.]"
 20: 0x0098 [0x25] WAIT_DIALOG_SELECT()
 21: 0x0099 [0x02] IF !(Work_Zone[0] == 0*) GOTO 0x00B7
 22: 0x00A1 [0x42] SET_CLI_EVENT_CANCEL_DATA()
 23: 0x00A2 [0x03] Work_Zone[2] = 1021*
 24: 0x00A7 [0x1D] PRINT_EVENT_MESSAGE(message_id=7865*)
    → "Thank you, kind [sir/madam]! You've no idea how much this means to me! Please take this $0--it should serve to ease the burden of harvesting."
 25: 0x00AA [0x23] WAIT_FOR_DIALOG_INTERACTION
 26: 0x00AB [0x1D] PRINT_EVENT_MESSAGE(message_id=7866*)
    → "My sister is called Rugiette. She can appear brusque at times, but deep down she is a sweetheart, truly."
 27: 0x00AE [0x23] WAIT_FOR_DIALOG_INTERACTION
 28: 0x00AF [0x03] Work_Zone[1] = 1*
 29: 0x00B4 [0x01] GOTO 0x00C6
 30: 0x00B7 [0x02] IF !(Work_Zone[0] == 1*) GOTO 0x00C6
 31: 0x00BF [0x1D] PRINT_EVENT_MESSAGE(message_id=7864*)
    → "Oh. Well, then I'll just wait and pray that a selfless soul comes to my aid."
 32: 0x00C2 [0x23] WAIT_FOR_DIALOG_INTERACTION
 33: 0x00C3 [0x01] GOTO 0x00C6

SUBROUTINE_00C6:
 34: 0x00C6 [0x01] GOTO 0x011F
 35: 0x00C9 [0x66] LOAD_EXT_SCHEDULER_MAIN: Load scheduler "tlk0" with entities [EventEntity, EventEntity], work=30*
 36: 0x00D8 [0x1D] PRINT_EVENT_MESSAGE(message_id=7873*)
    → "Oh, fancy meeting you here again. I'm still unable walk, would you believe it? Would you perchance, um...have spare time to make another delivery in my stead?"
 37: 0x00DB [0x23] WAIT_FOR_DIALOG_INTERACTION
 38: 0x00DC [0x03] Work_Zone[2] = 2608*
 39: 0x00E1 [0x03] Work_Zone[3] = 3*
 40: 0x00E6 [0x1D] PRINT_EVENT_MESSAGE(message_id=7862*)
    → "While I am loath to ask this of you, $1 $0 must absolutely be delivered to my sister at the central encampment. I beg you, friend, won't you do me this simple favor?"
 41: 0x00E9 [0x23] WAIT_FOR_DIALOG_INTERACTION
 42: 0x00EA [0x24] CREATE_DIALOG(message_id=7863*, default_option=1*, option_flags=0*)
    → "Help deliver $0? [How could I refuse a friend?/I'm not your friend.]"
 43: 0x00F1 [0x25] WAIT_DIALOG_SELECT()
 44: 0x00F2 [0x02] IF !(Work_Zone[0] == 0*) GOTO 0x0110
 45: 0x00FA [0x42] SET_CLI_EVENT_CANCEL_DATA()
 46: 0x00FB [0x03] Work_Zone[2] = 1021*
 47: 0x0100 [0x1D] PRINT_EVENT_MESSAGE(message_id=7865*)
    → "Thank you, kind [sir/madam]! You've no idea how much this means to me! Please take this $0--it should serve to ease the burden of harvesting."
 48: 0x0103 [0x23] WAIT_FOR_DIALOG_INTERACTION
 49: 0x0104 [0x1D] PRINT_EVENT_MESSAGE(message_id=7866*)
    → "My sister is called Rugiette. She can appear brusque at times, but deep down she is a sweetheart, truly."
 50: 0x0107 [0x23] WAIT_FOR_DIALOG_INTERACTION
 51: 0x0108 [0x03] Work_Zone[1] = 1*
 52: 0x010D [0x01] GOTO 0x011F
 53: 0x0110 [0x02] IF !(Work_Zone[0] == 1*) GOTO 0x011F
 54: 0x0118 [0x1D] PRINT_EVENT_MESSAGE(message_id=7864*)
    → "Oh. Well, then I'll just wait and pray that a selfless soul comes to my aid."
 55: 0x011B [0x23] WAIT_FOR_DIALOG_INTERACTION
 56: 0x011C [0x01] GOTO 0x011F

SUBROUTINE_011F:
 57: 0x011F [0x21] END_EVENT
 58: 0x0120 [0x00] END_REQSTACK()
```
