# 17318625 - Joulet

## Common Data

| Field            | Value                         |
|------------------|-------------------------------|
| Zone             | Abyssea - La Theine (ID: 132) |
| Block Size       | 452 bytes                     |
| Total Events     | 4                             |
| References Count | 19                            |

## List of Events

| Event ID              | Entrypoint   |   Size |   Instructions |
|-----------------------|--------------|--------|----------------|
| [65535](#event-65535) | 0x0000       |      1 |              1 |
| [171](#event-171)     | 0x0001       |     33 |              9 |
| [172](#event-172)     | 0x0022       |     31 |             10 |
| [173](#event-173)     | 0x0041       |    278 |             69 |

## DAT References (imed_data)

|   Index | Hex Value   |   Dec Value |
|---------|-------------|-------------|
|       0 | 0x0014      |          20 |
|       1 | 0x01E5      |         485 |
|       2 | 0x1F11      |        7953 |
|       3 | 0x1F12      |        7954 |
|       4 | 0x0000      |           0 |
|       5 | 0x0021      |          33 |
|       6 | 0x1F09      |        7945 |
|       7 | 0x43EF      |       17391 |
|       8 | 0x1F0A      |        7946 |
|       9 | 0x1F0B      |        7947 |
|      10 | 0x1F0C      |        7948 |
|      11 | 0x0001      |           1 |
|      12 | 0x0006      |           6 |
|      13 | 0x1F0D      |        7949 |
|      14 | 0x0002      |           2 |
|      15 | 0x1F0E      |        7950 |
|      16 | 0x1F0F      |        7951 |
|      17 | 0x1F10      |        7952 |
|      18 | 0x1F13      |        7955 |

## String References

- **7945**: Confound it, yet another failure! What in this accursed world am I to do now?
- **7946**: Not moments after we received this $0 for repairs, some foul fiends did for our resident craftsman. Heaven knows I've tried to mend it for days now, but 'tis no use. I simply have not the expertise.
- **7947**: With times difficult as they are, naught can be permitted to go to waste. Even a humble fishing rod could well spell the difference between a belly full of fish and starvation...but I'm at my wit's end.
- **7948**: What will do you? [Nothing./Cheer him up with a jest./Offer to mend the fishing rod.]
- **7949**: Why did the funguar cross the highroad, you say!? Egads, [man/woman], what manner of sick fool are you? This is no time for jests!
- **7950**: You would mend the fishing rod for me? My thanks, kind [sir/madam]! You are a true friend to the people!
- **7951**: Here is the $0 that requires attention. Once it is repaired, please deliver it to my brother, Gallijaux, who is based at the southeastern encampment.
- **7952**: The road that leads there is fraught with danger, yet it is a journey that must be made for the greater good. The day each of us ceases to do our part is the day mankind perishes from the world. Do I not speak the truth?
- **7953**: After you've repaired the $0, please see it delivered safely to my brother, Gallijaux. He can be found at the southeastern encampment.
- **7954**: Brother fancies himself an accomplished angler, but the rate at which he breaks fishing rods speaks otherwise. And as he shows no sign of improvement, there's precious little I can do save polish my own mending skills.
- **7955**: Ah, you couldn't have come at a better time. Yet another fishing rod has fallen victim to my brother's ineptitude, you see, and I haven't quite mastered the repairs...

## Events

### Event 65535

#### Metadata

| Field        | Value   |
|--------------|---------|
| Entrypoint   | 0x0000  |
| Data Size    | 1 bytes |
| Instructions | 1       |

```
      00 01 02 03 04 05 06 07  08 09 0A 0B 0C 0D 0E 0F
      -- -- -- -- -- -- -- --  -- -- -- -- -- -- -- --
0000: 00                                                .               
```

#### Opcodes

```
  0: 0x0000 [0x00] END_REQSTACK()
```

### Event 171

#### Metadata

| Field        | Value    |
|--------------|----------|
| Entrypoint   | 0x0001   |
| Data Size    | 33 bytes |
| Instructions | 9        |

```
      00 01 02 03 04 05 06 07  08 09 0A 0B 0C 0D 0E 0F
      -- -- -- -- -- -- -- --  -- -- -- -- -- -- -- --
0000:    1E F0 FF FF 7F 6F 70  66 00 80 F8 FF FF 7F F8   .....opf.......
0010: FF FF 7F 74 6C 6B 30 03  02 10 01 80 1D 02 80 23  ...tlk0........#
0020: 21 00                                             !.              
```

#### Opcodes

```
  0: 0x0001 [0x1E] EventEntity looks at LocalPlayer and starts talking
  1: 0x0006 [0x6F] WAIT_FRAME_DELAY: Yield until WaitTime reaches zero
  2: 0x0007 [0x70] WAIT_ENTITY_RENDER_FLAG: Wait while EventEntity->Render.Flags3 bit 2 is set (cancel turn if not)
  3: 0x0008 [0x66] LOAD_EXT_SCHEDULER_MAIN: Load scheduler "tlk0" with entities [EventEntity, EventEntity], work=20*
  4: 0x0017 [0x03] Work_Zone[2] = 485*
  5: 0x001C [0x1D] PRINT_EVENT_MESSAGE(message_id=7953*)
    → "After you've repaired the $0, please see it delivered safely to my brother, Gallijaux. He can be found at the southeastern encampment."
  6: 0x001F [0x23] WAIT_FOR_DIALOG_INTERACTION
  7: 0x0020 [0x21] END_EVENT
  8: 0x0021 [0x00] END_REQSTACK()
```

### Event 172

#### Metadata

| Field        | Value    |
|--------------|----------|
| Entrypoint   | 0x0022   |
| Data Size    | 31 bytes |
| Instructions | 10       |

```
      00 01 02 03 04 05 06 07  08 09 0A 0B 0C 0D 0E 0F
      -- -- -- -- -- -- -- --  -- -- -- -- -- -- -- --
0020:       20 01 42 1E F0 FF  FF 7F 6F 70 66 00 80 F8     .B.....opf...
0030: FF FF 7F F8 FF FF 7F 74  6C 6B 30 1D 03 80 23 21  .......tlk0...#!
0040: 00                                                .               
```

#### Opcodes

```
  0: 0x0022 [0x20] SET_CLI_EVENT_UC_FLAG: Lock player control
  1: 0x0024 [0x42] SET_CLI_EVENT_CANCEL_DATA()
  2: 0x0025 [0x1E] EventEntity looks at LocalPlayer and starts talking
  3: 0x002A [0x6F] WAIT_FRAME_DELAY: Yield until WaitTime reaches zero
  4: 0x002B [0x70] WAIT_ENTITY_RENDER_FLAG: Wait while EventEntity->Render.Flags3 bit 2 is set (cancel turn if not)
  5: 0x002C [0x66] LOAD_EXT_SCHEDULER_MAIN: Load scheduler "tlk0" with entities [EventEntity, EventEntity], work=20*
  6: 0x003B [0x1D] PRINT_EVENT_MESSAGE(message_id=7954*)
    → "Brother fancies himself an accomplished angler, but the rate at which he breaks fishing rods speaks otherwise. And as he shows no sign of improvement, there's precious little I can do save polish my own mending skills."
  7: 0x003E [0x23] WAIT_FOR_DIALOG_INTERACTION
  8: 0x003F [0x21] END_EVENT
  9: 0x0040 [0x00] END_REQSTACK()
```

### Event 173

#### Metadata

| Field        | Value     |
|--------------|-----------|
| Entrypoint   | 0x0041    |
| Data Size    | 278 bytes |
| Instructions | 29        |

```
      00 01 02 03 04 05 06 07  08 09 0A 0B 0C 0D 0E 0F
      -- -- -- -- -- -- -- --  -- -- -- -- -- -- -- --
0040:    03 00 00 09 10 06 01  10 1E F0 FF FF 7F 6F 70   .............op
0050: 02 00 00 04 80 00 EC 00  6E E1 42 08 01 05 80 99  ........n.B.....
0060: E1 42 08 01 1D 06 80 23  66 00 80 F8 FF FF 7F F8  .B.....#f.......
0070: FF FF 7F 74 6C 6B 30 03  02 10 07 80 1D 08 80 23  ...tlk0........#
0080: 1D 09 80 23 24 0A 80 04  80 04 80 25 02 00 10 04  ...#$......%....
0090: 80 00 9A 00 01 55 01 01  E9 00 02 00 10 0B 80 00  .....U..........
00A0: B8 00 6E E1 42 08 01 0C  80 99 E1 42 08 01 1D 0D  ..n.B......B....
00B0: 80 23 01 84 00 01 E9 00  02 00 10 0E 80 00 E9 00  .#..............
00C0: 42 66 00 80 F8 FF FF 7F  F8 FF FF 7F 74 6C 6B 30  Bf..........tlk0
00D0: 1D 0F 80 23 03 02 10 01  80 1D 10 80 23 1D 11 80  ...#........#...
00E0: 23 03 01 10 0B 80 01 E9  00 01 55 01 1D 12 80 23  #.........U....#
00F0: 24 0A 80 04 80 04 80 25  02 00 10 04 80 00 06 01  $......%........
0100: 01 55 01 01 55 01 02 00  10 0B 80 00 24 01 6E E1  .U..U.......$.n.
0110: 42 08 01 0C 80 99 E1 42  08 01 1D 0D 80 23 01 84  B......B.....#..
0120: 00 01 55 01 02 00 10 0E  80 00 55 01 42 66 00 80  ..U.......U.Bf..
0130: F8 FF FF 7F F8 FF FF 7F  74 6C 6B 30 1D 0F 80 23  ........tlk0...#
0140: 03 02 10 01 80 1D 10 80  23 1D 11 80 23 03 01 10  ........#...#...
0150: 0B 80 01 55 01 21 00                              ...U.!.         
```

#### Opcodes

```
  0: 0x0041 [0x03] ExtData[1]->WorkLocal[0] = Work_Zone[9]
  1: 0x0046 [0x06] Work_Zone[1] = 0
  2: 0x0049 [0x1E] EventEntity looks at LocalPlayer and starts talking
  3: 0x004E [0x6F] WAIT_FRAME_DELAY: Yield until WaitTime reaches zero
  4: 0x004F [0x70] WAIT_ENTITY_RENDER_FLAG: Wait while EventEntity->Render.Flags3 bit 2 is set (cancel turn if not)
  5: 0x0050 [0x02] IF !(ExtData[1]->WorkLocal[0] == 0*) GOTO 0x00EC
  6: 0x0058 [0x6E] Joulet (ID: 17318625/0x010842E1) uses emote 33*
  7: 0x005F [0x99] Wait for Joulet (ID: 17318625/0x010842E1) animation to complete
  8: 0x0064 [0x1D] PRINT_EVENT_MESSAGE(message_id=7945*)
    → "Confound it, yet another failure! What in this accursed world am I to do now?"
  9: 0x0067 [0x23] WAIT_FOR_DIALOG_INTERACTION
 10: 0x0068 [0x66] LOAD_EXT_SCHEDULER_MAIN: Load scheduler "tlk0" with entities [EventEntity, EventEntity], work=20*
 11: 0x0077 [0x03] Work_Zone[2] = 17391*
 12: 0x007C [0x1D] PRINT_EVENT_MESSAGE(message_id=7946*)
    → "Not moments after we received this $0 for repairs, some foul fiends did for our resident craftsman. Heaven knows I've tried to mend it for days now, but 'tis no use. I simply have not the expertise."
 13: 0x007F [0x23] WAIT_FOR_DIALOG_INTERACTION
 14: 0x0080 [0x1D] PRINT_EVENT_MESSAGE(message_id=7947*)
    → "With times difficult as they are, naught can be permitted to go to waste. Even a humble fishing rod could well spell the difference between a belly full of fish and starvation...but I'm at my wit's end."
 15: 0x0083 [0x23] WAIT_FOR_DIALOG_INTERACTION
 16: 0x0084 [0x24] CREATE_DIALOG(message_id=7948*, default_option=0*, option_flags=0*)
    → "What will do you? [Nothing./Cheer him up with a jest./Offer to mend the fishing rod.]"
 17: 0x008B [0x25] WAIT_DIALOG_SELECT()
 18: 0x008C [0x02] IF !(Work_Zone[0] == 0*) GOTO 0x009A
 19: 0x0094 [0x01] GOTO 0x0155

SUBROUTINE_00E9:
 20: 0x00E9 [0x01] GOTO 0x0155
 21: 0x00EC [0x1D] PRINT_EVENT_MESSAGE(message_id=7955*)
    → "Ah, you couldn't have come at a better time. Yet another fishing rod has fallen victim to my brother's ineptitude, you see, and I haven't quite mastered the repairs..."
 22: 0x00EF [0x23] WAIT_FOR_DIALOG_INTERACTION
 23: 0x00F0 [0x24] CREATE_DIALOG(message_id=7948*, default_option=0*, option_flags=0*)
    → "What will do you? [Nothing./Cheer him up with a jest./Offer to mend the fishing rod.]"
 24: 0x00F7 [0x25] WAIT_DIALOG_SELECT()
 25: 0x00F8 [0x02] IF !(Work_Zone[0] == 0*) GOTO 0x0106
 26: 0x0100 [0x01] GOTO 0x0155

SUBROUTINE_0155:
 27: 0x0155 [0x21] END_EVENT
 28: 0x0156 [0x00] END_REQSTACK()
```

#### Data or dead code:

```
# Dead code (unreachable instructions):
     0x0097 [0x01] GOTO 0x00E9
     0x00B5 [0x01] GOTO 0x00E9
# Dead code (unreachable instructions):
     0x0103 [0x01] GOTO 0x0155
     0x0121 [0x01] GOTO 0x0155
```
