# 17318504 - Atma Infusionist

## Common Data

| Field            | Value                         |
|------------------|-------------------------------|
| Zone             | Abyssea - La Theine (ID: 132) |
| Block Size       | 13432 bytes                   |
| Total Events     | 2                             |
| References Count | 471                           |

## List of Events

| Event ID              | Entrypoint   |   Size |   Instructions |
|-----------------------|--------------|--------|----------------|
| [65535](#event-65535) | 0x0000       |      1 |              1 |
| [2003](#event-2003)   | 0x0001       |  11521 |           2247 |

## DAT References (imed_data)

|   Index | Hex Value   |   Dec Value |
|---------|-------------|-------------|
|       0 | 0x0000      |           0 |
|       1 | 0x0007      |           7 |
|       2 | 0x0008      |           8 |
|       3 | 0x000F      |          15 |
|       4 | 0x0010      |          16 |
|       5 | 0x0017      |          23 |
|       6 | 0x0018      |          24 |
|       7 | 0x001F      |          31 |
|       8 | 0x0004      |           4 |
|       9 | 0x0001      |           1 |
|      10 | 0x0002      |           2 |
|      11 | 0x0003      |           3 |
|      12 | 0x0005      |           5 |
|      13 | 0x0006      |           6 |
|      14 | 0x059F      |        1439 |
|      15 | 0x1D06      |        7430 |
|      16 | 0x1D07      |        7431 |
|      17 | 0x40000000  |  1073741824 |
|      18 | 0x1D08      |        7432 |
|      19 | 0x1D09      |        7433 |
|      20 | 0x1D0A      |        7434 |
|      21 | 0x1D0B      |        7435 |
|      22 | 0x1D0C      |        7436 |
|      23 | 0x1D0D      |        7437 |
|      24 | 0x1D0E      |        7438 |
|      25 | 0x1D0F      |        7439 |
|      26 | 0x1D10      |        7440 |
|      27 | 0x1D11      |        7441 |
|      28 | 0x1D12      |        7442 |
|      29 | 0x1D13      |        7443 |
|      30 | 0x0009      |           9 |
|      31 | 0x000A      |          10 |
|      32 | 0x1D14      |        7444 |
|      33 | 0x000B      |          11 |
|      34 | 0x000C      |          12 |
|      35 | 0x0064      |         100 |
|      36 | 0x1D15      |        7445 |
|      37 | 0x1D16      |        7446 |
|      38 | 0x1D17      |        7447 |
|      39 | 0x1D18      |        7448 |
|      40 | 0x1D19      |        7449 |
|      41 | 0x1D1A      |        7450 |
|      42 | 0x1D1B      |        7451 |
|      43 | 0x1D1C      |        7452 |
|      44 | 0x1D1D      |        7453 |
|      45 | 0x1D23      |        7459 |
|      46 | 0x1D24      |        7460 |
|      47 | 0x1D25      |        7461 |
|      48 | 0x1D27      |        7463 |
|      49 | 0x1D28      |        7464 |
|      50 | 0x1D29      |        7465 |
|      51 | 0x1D2A      |        7466 |
|      52 | 0x1D2B      |        7467 |
|      53 | 0x1D2C      |        7468 |
|      54 | 0x000D      |          13 |
|      55 | 0x000E      |          14 |
|      56 | 0x0011      |          17 |
|      57 | 0x0012      |          18 |
|      58 | 0x0013      |          19 |
|      59 | 0x0014      |          20 |
|      60 | 0x0015      |          21 |
|      61 | 0x0016      |          22 |
|      62 | 0x0019      |          25 |
|      63 | 0x001A      |          26 |
|      64 | 0x001B      |          27 |
|      65 | 0x001C      |          28 |
|      66 | 0x001D      |          29 |
|      67 | 0x001E      |          30 |
|      68 | 0x04FF      |        1279 |
|      69 | 0x1DAC      |        7596 |
|      70 | 0x0500      |        1280 |
|      71 | 0x1DAD      |        7597 |
|      72 | 0x0501      |        1281 |
|      73 | 0x1DAE      |        7598 |
|      74 | 0x0502      |        1282 |
|      75 | 0x1DAF      |        7599 |
|      76 | 0x0503      |        1283 |
|      77 | 0x1DB0      |        7600 |
|      78 | 0x0504      |        1284 |
|      79 | 0x1DB1      |        7601 |
|      80 | 0x0505      |        1285 |
|      81 | 0x1DB2      |        7602 |
|      82 | 0x0506      |        1286 |
|      83 | 0x1DB3      |        7603 |
|      84 | 0x0507      |        1287 |
|      85 | 0x1DB4      |        7604 |
|      86 | 0x0508      |        1288 |
|      87 | 0x1DB5      |        7605 |
|      88 | 0x0509      |        1289 |
|      89 | 0x1DB6      |        7606 |
|      90 | 0x050A      |        1290 |
|      91 | 0x1DB7      |        7607 |
|      92 | 0x050B      |        1291 |
|      93 | 0x1DB8      |        7608 |
|      94 | 0x050C      |        1292 |
|      95 | 0x1DB9      |        7609 |
|      96 | 0x050D      |        1293 |
|      97 | 0x1DBA      |        7610 |
|      98 | 0x050E      |        1294 |
|      99 | 0x1DBB      |        7611 |
|     100 | 0x050F      |        1295 |
|     101 | 0x1DBC      |        7612 |
|     102 | 0x0510      |        1296 |
|     103 | 0x1DBD      |        7613 |
|     104 | 0x0511      |        1297 |
|     105 | 0x1DBE      |        7614 |
|     106 | 0x0512      |        1298 |
|     107 | 0x1DBF      |        7615 |
|     108 | 0x0513      |        1299 |
|     109 | 0x1DC0      |        7616 |
|     110 | 0x0514      |        1300 |
|     111 | 0x1DC1      |        7617 |
|     112 | 0x0515      |        1301 |
|     113 | 0x1DC2      |        7618 |
|     114 | 0x0516      |        1302 |
|     115 | 0x1DC3      |        7619 |
|     116 | 0x0517      |        1303 |
|     117 | 0x1DC4      |        7620 |
|     118 | 0x0518      |        1304 |
|     119 | 0x1DC5      |        7621 |
|     120 | 0x0519      |        1305 |
|     121 | 0x1DC6      |        7622 |
|     122 | 0x051A      |        1306 |
|     123 | 0x1DC7      |        7623 |
|     124 | 0x051B      |        1307 |
|     125 | 0x1DC8      |        7624 |
|     126 | 0x051C      |        1308 |
|     127 | 0x1DC9      |        7625 |
|     128 | 0x051D      |        1309 |
|     129 | 0x1DCA      |        7626 |
|     130 | 0x051E      |        1310 |
|     131 | 0x1DCB      |        7627 |
|     132 | 0x051F      |        1311 |
|     133 | 0x1DCC      |        7628 |
|     134 | 0x0520      |        1312 |
|     135 | 0x1DCD      |        7629 |
|     136 | 0x0521      |        1313 |
|     137 | 0x1DCE      |        7630 |
|     138 | 0x0522      |        1314 |
|     139 | 0x1DCF      |        7631 |
|     140 | 0x0523      |        1315 |
|     141 | 0x1DD0      |        7632 |
|     142 | 0x0524      |        1316 |
|     143 | 0x1DD1      |        7633 |
|     144 | 0x0525      |        1317 |
|     145 | 0x1DD2      |        7634 |
|     146 | 0x0526      |        1318 |
|     147 | 0x1DD3      |        7635 |
|     148 | 0x0527      |        1319 |
|     149 | 0x1DD4      |        7636 |
|     150 | 0x0528      |        1320 |
|     151 | 0x1DD5      |        7637 |
|     152 | 0x0529      |        1321 |
|     153 | 0x1DD6      |        7638 |
|     154 | 0x052A      |        1322 |
|     155 | 0x1DD7      |        7639 |
|     156 | 0x052B      |        1323 |
|     157 | 0x1DD8      |        7640 |
|     158 | 0x052C      |        1324 |
|     159 | 0x1DD9      |        7641 |
|     160 | 0x052D      |        1325 |
|     161 | 0x1DDA      |        7642 |
|     162 | 0x052E      |        1326 |
|     163 | 0x1DDB      |        7643 |
|     164 | 0x052F      |        1327 |
|     165 | 0x1DDC      |        7644 |
|     166 | 0x0530      |        1328 |
|     167 | 0x1DDD      |        7645 |
|     168 | 0x0531      |        1329 |
|     169 | 0x1DDE      |        7646 |
|     170 | 0x0532      |        1330 |
|     171 | 0x1DDF      |        7647 |
|     172 | 0x0533      |        1331 |
|     173 | 0x1DE0      |        7648 |
|     174 | 0x0534      |        1332 |
|     175 | 0x1DE1      |        7649 |
|     176 | 0x0535      |        1333 |
|     177 | 0x1DE2      |        7650 |
|     178 | 0x0536      |        1334 |
|     179 | 0x1DE3      |        7651 |
|     180 | 0x0537      |        1335 |
|     181 | 0x1DE4      |        7652 |
|     182 | 0x0538      |        1336 |
|     183 | 0x1DE5      |        7653 |
|     184 | 0x0539      |        1337 |
|     185 | 0x1DE6      |        7654 |
|     186 | 0x053A      |        1338 |
|     187 | 0x1DE7      |        7655 |
|     188 | 0x053B      |        1339 |
|     189 | 0x1DE8      |        7656 |
|     190 | 0x053C      |        1340 |
|     191 | 0x1DE9      |        7657 |
|     192 | 0x053D      |        1341 |
|     193 | 0x1DEA      |        7658 |
|     194 | 0x053E      |        1342 |
|     195 | 0x1DEB      |        7659 |
|     196 | 0x053F      |        1343 |
|     197 | 0x1DEC      |        7660 |
|     198 | 0x0540      |        1344 |
|     199 | 0x1DED      |        7661 |
|     200 | 0x0541      |        1345 |
|     201 | 0x1DEE      |        7662 |
|     202 | 0x0542      |        1346 |
|     203 | 0x1DEF      |        7663 |
|     204 | 0x0543      |        1347 |
|     205 | 0x1DF0      |        7664 |
|     206 | 0x0544      |        1348 |
|     207 | 0x1DF1      |        7665 |
|     208 | 0x0545      |        1349 |
|     209 | 0x1DF2      |        7666 |
|     210 | 0x0546      |        1350 |
|     211 | 0x1DF3      |        7667 |
|     212 | 0x0547      |        1351 |
|     213 | 0x1DF4      |        7668 |
|     214 | 0x0548      |        1352 |
|     215 | 0x1DF5      |        7669 |
|     216 | 0x0549      |        1353 |
|     217 | 0x1DF6      |        7670 |
|     218 | 0x054A      |        1354 |
|     219 | 0x1DF7      |        7671 |
|     220 | 0x054B      |        1355 |
|     221 | 0x1DF8      |        7672 |
|     222 | 0x054C      |        1356 |
|     223 | 0x1DF9      |        7673 |
|     224 | 0x054D      |        1357 |
|     225 | 0x1DFA      |        7674 |
|     226 | 0x054E      |        1358 |
|     227 | 0x1DFB      |        7675 |
|     228 | 0x054F      |        1359 |
|     229 | 0x1DFC      |        7676 |
|     230 | 0x0550      |        1360 |
|     231 | 0x1DFD      |        7677 |
|     232 | 0x0551      |        1361 |
|     233 | 0x1DFE      |        7678 |
|     234 | 0x0552      |        1362 |
|     235 | 0x1DFF      |        7679 |
|     236 | 0x0553      |        1363 |
|     237 | 0x1E00      |        7680 |
|     238 | 0x0554      |        1364 |
|     239 | 0x1E01      |        7681 |
|     240 | 0x0555      |        1365 |
|     241 | 0x1E02      |        7682 |
|     242 | 0x0556      |        1366 |
|     243 | 0x1E03      |        7683 |
|     244 | 0x0557      |        1367 |
|     245 | 0x1E04      |        7684 |
|     246 | 0x0558      |        1368 |
|     247 | 0x1E05      |        7685 |
|     248 | 0x0559      |        1369 |
|     249 | 0x1E06      |        7686 |
|     250 | 0x055A      |        1370 |
|     251 | 0x1E07      |        7687 |
|     252 | 0x055B      |        1371 |
|     253 | 0x1E08      |        7688 |
|     254 | 0x055C      |        1372 |
|     255 | 0x1E09      |        7689 |
|     256 | 0x055D      |        1373 |
|     257 | 0x1E0A      |        7690 |
|     258 | 0x055E      |        1374 |
|     259 | 0x1E0B      |        7691 |
|     260 | 0x055F      |        1375 |
|     261 | 0x1E0C      |        7692 |
|     262 | 0x0560      |        1376 |
|     263 | 0x1E0D      |        7693 |
|     264 | 0x0561      |        1377 |
|     265 | 0x1E0E      |        7694 |
|     266 | 0x0562      |        1378 |
|     267 | 0x1E0F      |        7695 |
|     268 | 0x0677      |        1655 |
|     269 | 0x1E10      |        7696 |
|     270 | 0x0678      |        1656 |
|     271 | 0x1E11      |        7697 |
|     272 | 0x0679      |        1657 |
|     273 | 0x1E12      |        7698 |
|     274 | 0x067A      |        1658 |
|     275 | 0x1E13      |        7699 |
|     276 | 0x067B      |        1659 |
|     277 | 0x1E14      |        7700 |
|     278 | 0x067C      |        1660 |
|     279 | 0x1E15      |        7701 |
|     280 | 0x067D      |        1661 |
|     281 | 0x1E16      |        7702 |
|     282 | 0x067E      |        1662 |
|     283 | 0x1E17      |        7703 |
|     284 | 0x067F      |        1663 |
|     285 | 0x1E18      |        7704 |
|     286 | 0x0680      |        1664 |
|     287 | 0x1E19      |        7705 |
|     288 | 0x0681      |        1665 |
|     289 | 0x1E1A      |        7706 |
|     290 | 0x0682      |        1666 |
|     291 | 0x1E1B      |        7707 |
|     292 | 0x0683      |        1667 |
|     293 | 0x1E1C      |        7708 |
|     294 | 0x0684      |        1668 |
|     295 | 0x1E1D      |        7709 |
|     296 | 0x0685      |        1669 |
|     297 | 0x1E1E      |        7710 |
|     298 | 0x0686      |        1670 |
|     299 | 0x1E1F      |        7711 |
|     300 | 0x0687      |        1671 |
|     301 | 0x1E20      |        7712 |
|     302 | 0x0688      |        1672 |
|     303 | 0x1E21      |        7713 |
|     304 | 0x0689      |        1673 |
|     305 | 0x1E22      |        7714 |
|     306 | 0x068A      |        1674 |
|     307 | 0x1E23      |        7715 |
|     308 | 0x068B      |        1675 |
|     309 | 0x1E24      |        7716 |
|     310 | 0x068C      |        1676 |
|     311 | 0x1E25      |        7717 |
|     312 | 0x068D      |        1677 |
|     313 | 0x1E26      |        7718 |
|     314 | 0x068E      |        1678 |
|     315 | 0x1E27      |        7719 |
|     316 | 0x068F      |        1679 |
|     317 | 0x1E28      |        7720 |
|     318 | 0x0690      |        1680 |
|     319 | 0x1E29      |        7721 |
|     320 | 0x0691      |        1681 |
|     321 | 0x1E2A      |        7722 |
|     322 | 0x0692      |        1682 |
|     323 | 0x1E2B      |        7723 |
|     324 | 0x0693      |        1683 |
|     325 | 0x1E2C      |        7724 |
|     326 | 0x0694      |        1684 |
|     327 | 0x1E2D      |        7725 |
|     328 | 0x0695      |        1685 |
|     329 | 0x1E2E      |        7726 |
|     330 | 0x0696      |        1686 |
|     331 | 0x1E2F      |        7727 |
|     332 | 0x0697      |        1687 |
|     333 | 0x1E30      |        7728 |
|     334 | 0x0698      |        1688 |
|     335 | 0x1E31      |        7729 |
|     336 | 0x0699      |        1689 |
|     337 | 0x1E32      |        7730 |
|     338 | 0x069A      |        1690 |
|     339 | 0x1E33      |        7731 |
|     340 | 0x069B      |        1691 |
|     341 | 0x1E34      |        7732 |
|     342 | 0x069C      |        1692 |
|     343 | 0x1E35      |        7733 |
|     344 | 0x069D      |        1693 |
|     345 | 0x1E36      |        7734 |
|     346 | 0x069E      |        1694 |
|     347 | 0x1E37      |        7735 |
|     348 | 0x069F      |        1695 |
|     349 | 0x1E38      |        7736 |
|     350 | 0x06A0      |        1696 |
|     351 | 0x1E39      |        7737 |
|     352 | 0x06A1      |        1697 |
|     353 | 0x1E3A      |        7738 |
|     354 | 0x06A2      |        1698 |
|     355 | 0x1E3B      |        7739 |
|     356 | 0x06A3      |        1699 |
|     357 | 0x1E3C      |        7740 |
|     358 | 0x0020      |          32 |
|     359 | 0x0021      |          33 |
|     360 | 0x0022      |          34 |
|     361 | 0x0023      |          35 |
|     362 | 0x0024      |          36 |
|     363 | 0x0025      |          37 |
|     364 | 0x0026      |          38 |
|     365 | 0x0027      |          39 |
|     366 | 0x0028      |          40 |
|     367 | 0x0029      |          41 |
|     368 | 0x002A      |          42 |
|     369 | 0x002B      |          43 |
|     370 | 0x002C      |          44 |
|     371 | 0x002D      |          45 |
|     372 | 0x002E      |          46 |
|     373 | 0x002F      |          47 |
|     374 | 0x0030      |          48 |
|     375 | 0x0031      |          49 |
|     376 | 0x0032      |          50 |
|     377 | 0x0033      |          51 |
|     378 | 0x0034      |          52 |
|     379 | 0x0035      |          53 |
|     380 | 0x0036      |          54 |
|     381 | 0x0037      |          55 |
|     382 | 0x0038      |          56 |
|     383 | 0x0039      |          57 |
|     384 | 0x003A      |          58 |
|     385 | 0x003B      |          59 |
|     386 | 0x003C      |          60 |
|     387 | 0x003D      |          61 |
|     388 | 0x003E      |          62 |
|     389 | 0x003F      |          63 |
|     390 | 0x0040      |          64 |
|     391 | 0x0041      |          65 |
|     392 | 0x0042      |          66 |
|     393 | 0x0043      |          67 |
|     394 | 0x0044      |          68 |
|     395 | 0x0045      |          69 |
|     396 | 0x0046      |          70 |
|     397 | 0x0047      |          71 |
|     398 | 0x0048      |          72 |
|     399 | 0x0049      |          73 |
|     400 | 0x004A      |          74 |
|     401 | 0x004B      |          75 |
|     402 | 0x004C      |          76 |
|     403 | 0x004D      |          77 |
|     404 | 0x004E      |          78 |
|     405 | 0x004F      |          79 |
|     406 | 0x0050      |          80 |
|     407 | 0x0051      |          81 |
|     408 | 0x0052      |          82 |
|     409 | 0x0053      |          83 |
|     410 | 0x0054      |          84 |
|     411 | 0x0055      |          85 |
|     412 | 0x0056      |          86 |
|     413 | 0x0057      |          87 |
|     414 | 0x0058      |          88 |
|     415 | 0x0059      |          89 |
|     416 | 0x005A      |          90 |
|     417 | 0x005B      |          91 |
|     418 | 0x005C      |          92 |
|     419 | 0x005D      |          93 |
|     420 | 0x005E      |          94 |
|     421 | 0x005F      |          95 |
|     422 | 0x0060      |          96 |
|     423 | 0x0061      |          97 |
|     424 | 0x0062      |          98 |
|     425 | 0x0063      |          99 |
|     426 | 0x0065      |         101 |
|     427 | 0x0066      |         102 |
|     428 | 0x0067      |         103 |
|     429 | 0x0068      |         104 |
|     430 | 0x0069      |         105 |
|     431 | 0x006A      |         106 |
|     432 | 0x006B      |         107 |
|     433 | 0x006C      |         108 |
|     434 | 0x006D      |         109 |
|     435 | 0x006E      |         110 |
|     436 | 0x006F      |         111 |
|     437 | 0x0070      |         112 |
|     438 | 0x0071      |         113 |
|     439 | 0x0072      |         114 |
|     440 | 0x0073      |         115 |
|     441 | 0x0074      |         116 |
|     442 | 0x0075      |         117 |
|     443 | 0x0076      |         118 |
|     444 | 0x0077      |         119 |
|     445 | 0x0078      |         120 |
|     446 | 0x0079      |         121 |
|     447 | 0x007A      |         122 |
|     448 | 0x007B      |         123 |
|     449 | 0x007C      |         124 |
|     450 | 0x007D      |         125 |
|     451 | 0x007E      |         126 |
|     452 | 0x007F      |         127 |
|     453 | 0x0080      |         128 |
|     454 | 0x0081      |         129 |
|     455 | 0x0082      |         130 |
|     456 | 0x0083      |         131 |
|     457 | 0x0084      |         132 |
|     458 | 0x0085      |         133 |
|     459 | 0x0086      |         134 |
|     460 | 0x0087      |         135 |
|     461 | 0x0088      |         136 |
|     462 | 0x0089      |         137 |
|     463 | 0x008A      |         138 |
|     464 | 0x008B      |         139 |
|     465 | 0x008C      |         140 |
|     466 | 0x008D      |         141 |
|     467 | 0x008E      |         142 |
|     468 | 0x008F      |         143 |
|     469 | 0x0090      |         144 |
|     470 | 0x0091      |         145 |

## String References

- **7430**: Well met, wayfarer. I am an Atma Infusionist, and from my title I trust you can glean my field of expertise. Those who possess $6 may come to me to have atma infused.
- **7431**: How might I serve you? [You may not./Tell me about atma./Infuse me with atma./Examine infused atma./Purge atma./Reinfuse previous atma set./Select from recent history.]
- **7432**: Atma is most accurately described as the crystalline agglomeration of an Abyssean creature's soul. Through painstaking research, we infusionists have discovered a way to imbue ordinary people such as yourself with its power.
- **7433**: Infusion makes possible the augmentation of individuals, granting them powers particular to the creature from which the atma is sourced.
- **7434**: The infusion process requires three objects: an atma, $6, and cruor.
- **7435**: 6 is a rare variety of ancient abyssite that can only be procured with great difficulty. And it won't please you to know that atma is rarer still.
- **7436**: For only the most savage creatures, you see, are known to yield atma. And if you thought that weren't trial enough, only by employing special combat strategies will atma be yours to own.
- **7437**: Atma-yielding monsters are known to have vulnerabilities that, if exploited, may result in a swift end to the confrontation.
- **7438**: Strike at a foe's weakness, and it will drop different spoils, often more valuable than usual. Among them you may find atma.
- **7439**: The vulnerabilities can broadly be divided into three categories: magic attacks, physical-based weapon skills, and magic-based weapon skills.
- **7440**: For instance, there are monsters known to be weak against magic-based weapon skills. Inflicting such damage upon them will impair their movement, and you may consequently be rewarded with atma.
- **7441**: All living creatures, however, possess the capacity to adapt, and vulnerabilities have been observed to change. Be wary if you wish not to discover to your sorrow that a once-foolproof strategy no longer applies.
- **7442**: Besting such fell creatures is in itself a harrowing task, and becomes even more so if procuring atma is your objective.
- **7443**: But should fortune smile upon you and you find yourself in possession of atma, bring it here. I will see that it serves you well.
- **7444**: Which atma will you have infused? [None for now./3./$3./$3./$3./$3./$3./$3./$3./$3./$3./Previous page./Next page.]
- **7445**: $1 cruor is required to infuse the $3.
- **7446**: Have $3 infused? [Confirm./Cancel.]
- **7447**: You do not have enough cruor.
- **7448**: You have already been infused with that atma.
- **7449**: You cannot be infused with more than $0 atma at any given time. Please have an existing atma purged if you wish to replace it with another.
- **7450**: Examine which atma? [None for now./3./$3./$3.]
- **7451**: Purge which atma? [None for now./3./$3./$3./Purge all.]
- **7452**: Purge $3? [Yes./No.]
- **7453**: Purge all atma? [Yes./No.]
- **7459**: Reinfuse the following atma? [On second thought, no./3./$3./$3./Make it so.]
- **7460**: $0 cruor will be required to reinfuse your previous atma configuration.
- **7461**: Proceed with the infusion? [Yes./No.]
- **7463**: It would seem you've already been infused with that atma configuration. Perhaps you meant to ask me to infuse some new atma instead?
- **7464**: Which atma will you have infused? [None for now./3./$3./$3./$3./$3./$3./$3./$3./$3./$3./$3./$3.]
- **7465**: Infuse the following atma? [Cancel./3./$3./$3./Select new atma./Proceed.]
- **7466**: Replace currently infused atma? [Yes, replace./No, cancel.]
- **7467**: $0 cruor is required to infuse the selected atma.
- **7468**: Have the selected atma infused? [Confirm./Cancel.]

## Events

### Event 65535

#### Metadata

| Field        | Value   |
|--------------|---------|
| Entrypoint   | 0x0000  |
| Data Size    | 1 bytes |
| Instructions | 1       |

```
      00 01 02 03 04 05 06 07  08 09 0A 0B 0C 0D 0E 0F
      -- -- -- -- -- -- -- --  -- -- -- -- -- -- -- --
0000: 00                                                .               
```

#### Opcodes

```
  0: 0x0000 [0x00] END_REQSTACK()
```

### Event 2003

#### Metadata

| Field        | Value       |
|--------------|-------------|
| Entrypoint   | 0x0001      |
| Data Size    | 11521 bytes |
| Instructions | 2247        |

```
      00 01 02 03 04 05 06 07  08 09 0A 0B 0C 0D 0E 0F
      -- -- -- -- -- -- -- --  -- -- -- -- -- -- -- --
0000:    20 01 03 00 00 00 80  03 01 00 00 80 03 02 00    ..............
0010: 00 80 03 03 00 00 80 03  04 00 00 80 03 05 00 00  ................
0020: 80 03 06 00 00 80 03 07  00 00 80 03 08 00 00 80  ................
0030: 03 09 00 00 80 03 0A 00  00 80 03 0B 00 00 80 03  ................
0040: 0C 00 00 80 03 0D 00 00  80 03 0E 00 00 80 03 0F  ................
0050: 00 00 80 03 10 00 00 80  03 11 00 00 80 03 13 00  ................
0060: 00 80 03 14 00 00 80 03  15 00 00 80 03 16 00 00  ................
0070: 80 03 17 00 00 80 03 18  00 00 80 03 19 00 00 80  ................
0080: 03 1A 00 00 80 03 1B 00  00 80 03 1C 00 00 80 03  ................
0090: 1D 00 00 80 03 1E 00 00  80 03 1F 00 00 80 03 20  ............... 
00A0: 00 00 80 03 21 00 00 80  03 22 00 00 80 03 23 00  ....!...."....#.
00B0: 00 80 03 24 00 00 80 03  25 00 00 80 03 26 00 00  ...$....%....&..
00C0: 80 03 27 00 00 80 03 28  00 00 80 03 00 00 02 10  ..'....(........
00D0: 41 00 80 01 80 03 10 01  00 03 29 00 01 00 1A 8B  A.........).....
00E0: 20 03 01 00 29 00 41 02  80 03 80 03 10 02 00 03   ...).A.........
00F0: 29 00 02 00 1A 8B 20 03  02 00 29 00 41 04 80 05  )..... ...).A...
0100: 80 03 10 03 00 03 29 00  03 00 1A 8B 20 03 03 00  ......)..... ...
0110: 29 00 41 06 80 07 80 03  10 0A 00 03 04 00 04 10  ).A.............
0120: 03 05 00 05 10 03 06 00  06 10 03 07 00 07 10 03  ................
0130: 08 00 08 10 03 09 00 09  10 40 00 80 03 80 01 10  .........@......
0140: 08 80 43 00 43 01 41 00  80 01 80 02 10 16 00 03  ..C.C.A.........
0150: 29 00 16 00 1A 8B 20 03  16 00 29 00 41 02 80 03  )..... ...).A...
0160: 80 02 10 17 00 03 29 00  17 00 1A 8B 20 03 17 00  ......)..... ...
0170: 29 00 41 04 80 05 80 02  10 18 00 03 29 00 18 00  ).A.........)...
0180: 1A 8B 20 03 18 00 29 00  41 00 80 01 80 03 10 19  .. ...).A.......
0190: 00 41 02 80 03 80 03 10  1A 00 41 04 80 05 80 03  .A........A.....
01A0: 10 1B 00 41 06 80 07 80  03 10 1C 00 41 00 80 01  ...A........A...
01B0: 80 04 10 1D 00 41 02 80  03 80 04 10 1E 00 41 04  .....A........A.
01C0: 80 05 80 04 10 1F 00 41  06 80 07 80 04 10 20 00  .......A...... .
01D0: 41 00 80 01 80 05 10 21  00 41 02 80 03 80 05 10  A......!.A......
01E0: 22 00 41 04 80 05 80 05  10 23 00 41 06 80 07 80  ".A......#.A....
01F0: 05 10 24 00 03 29 00 19  00 1A 8B 20 03 19 00 29  ..$..)..... ...)
0200: 00 03 29 00 1A 00 1A 8B  20 03 1A 00 29 00 03 29  ..)..... ...)..)
0210: 00 1B 00 1A 8B 20 03 1B  00 29 00 03 29 00 1C 00  ..... ...)..)...
0220: 1A 8B 20 03 1C 00 29 00  03 29 00 1D 00 1A 8B 20  .. ...)..)..... 
0230: 03 1D 00 29 00 03 29 00  1E 00 1A 8B 20 03 1E 00  ...)..)..... ...
0240: 29 00 03 29 00 1F 00 1A  8B 20 03 1F 00 29 00 03  )..)..... ...)..
0250: 29 00 20 00 1A 8B 20 03  20 00 29 00 03 29 00 21  ). ... . .)..).!
0260: 00 1A 8B 20 03 21 00 29  00 03 29 00 22 00 1A 8B  ... .!.)..)."...
0270: 20 03 22 00 29 00 03 29  00 23 00 1A 8B 20 03 23   .".)..).#... .#
0280: 00 29 00 03 29 00 24 00  1A 8B 20 03 24 00 29 00  .)..).$... .$.).
0290: 03 02 10 00 80 03 03 10  00 80 03 04 10 00 80 03  ................
02A0: 05 10 00 80 03 06 10 00  80 03 07 10 00 80 03 08  ................
02B0: 10 00 80 03 09 10 00 80  02 0A 00 09 80 03 C7 02  ................
02C0: 3C 13 00 0A 80 09 80 1A  9C 11 02 0B 00 00 80 00  <...............
02D0: D9 02 3C 13 00 0A 80 09  80 03 29 00 00 80 02 01  ..<.......).....
02E0: 00 00 80 01 E9 02 0B 29  00 02 02 00 00 80 01 F4  .......)........
02F0: 02 0B 29 00 02 03 00 00  80 01 FF 02 0B 29 00 02  ..)..........)..
0300: 29 00 0A 00 04 0E 03 3C  13 00 0A 80 09 80 02 01  )......<........
0310: 00 00 80 00 34 03 02 02  00 00 80 00 34 03 02 03  ....4.......4...
0320: 00 00 80 00 34 03 3C 13  00 0B 80 09 80 3C 13 00  ....4.<......<..
0330: 08 80 09 80 03 29 00 00  80 02 16 00 00 80 01 49  .....).........I
0340: 03 03 29 00 09 80 01 6E  03 02 17 00 00 80 01 59  ..)....n.......Y
0350: 03 03 29 00 09 80 01 6E  03 02 18 00 00 80 01 69  ..)....n.......i
0360: 03 03 29 00 09 80 01 6E  03 03 29 00 00 80 02 29  ..)....n..)....)
0370: 00 09 80 00 93 03 02 01  00 16 00 00 93 03 02 02  ................
0380: 00 17 00 00 93 03 02 03  00 18 00 00 93 03 03 29  ...............)
0390: 00 00 80 02 29 00 00 80  00 A2 03 3C 13 00 0C 80  ....)......<....
03A0: 09 80 02 19 00 00 80 00  09 04 02 1A 00 00 80 00  ................
03B0: 09 04 02 1B 00 00 80 00  09 04 02 1C 00 00 80 00  ................
03C0: 09 04 02 1D 00 00 80 00  09 04 02 1E 00 00 80 00  ................
03D0: 09 04 02 1F 00 00 80 00  09 04 02 20 00 00 80 00  ........... ....
03E0: 09 04 02 21 00 00 80 00  09 04 02 22 00 00 80 00  ...!......."....
03F0: 09 04 02 23 00 00 80 00  09 04 02 24 00 00 80 00  ...#.......$....
0400: 09 04 3C 13 00 0D 80 09  80 03 02 10 0E 80 1D 0F  ..<.............
0410: 80 23 05 10 00 02 10 00  00 80 02 99 11 03 0C 00  .#..............
0420: 00 80 03 14 00 00 80 24  10 80 00 80 13 00 25 02  .......$......%.
0430: 00 10 00 80 00 42 04 03  01 10 11 80 06 10 00 01  .....B..........
0440: 96 11 02 00 10 09 80 00  87 04 1D 12 80 23 1D 13  .............#..
0450: 80 23 03 02 10 0E 80 1D  14 80 23 03 02 10 0E 80  .#........#.....
0460: 1D 15 80 23 1D 16 80 23  1D 17 80 23 1D 18 80 23  ...#...#...#...#
0470: 1D 19 80 23 1D 1A 80 23  1D 1B 80 23 1D 1C 80 23  ...#...#...#...#
0480: 1D 1D 80 23 01 96 11 02  00 10 0A 80 00 25 07 02  ...#.........%..
0490: 0A 00 00 80 02 22 07 03  0E 00 00 80 02 01 00 00  ....."..........
04A0: 80 01 A7 04 0B 0E 00 02  02 00 00 80 01 B2 04 0B  ................
04B0: 0E 00 02 03 00 00 80 01  BD 04 0B 0E 00 02 0E 00  ................
04C0: 0A 00 04 CD 04 03 29 00  09 80 01 D2 04 03 29 00  ......).......).
04D0: 00 80 02 29 00 00 80 00  19 07 05 11 00 02 11 00  ...)............
04E0: 00 80 02 16 07 03 14 00  00 80 03 0E 00 00 80 03  ................
04F0: 0D 00 00 80 03 15 00 00  80 1A 9C 29 03 02 10 38  ...........)...8
0500: 00 03 03 10 39 00 03 04  10 3A 00 03 05 10 3B 00  ....9....:....;.
0510: 03 06 10 3C 00 03 07 10  3D 00 03 08 10 3E 00 03  ...<....=....>..
0520: 09 10 3F 00 03 00 17 40  00 03 01 17 41 00 03 29  ..?....@....A..)
0530: 00 00 80 3E 14 00 09 80  7E 05 3E 14 00 0A 80 7E  ...>....~.>....~
0540: 05 3E 14 00 0B 80 7E 05  3E 14 00 08 80 7E 05 3E  .>....~.>....~.>
0550: 14 00 0C 80 7E 05 3E 14  00 0D 80 7E 05 3E 14 00  ....~.>....~.>..
0560: 01 80 7E 05 3E 14 00 02  80 7E 05 3E 14 00 1E 80  ..~.>....~.>....
0570: 7E 05 3E 14 00 1F 80 7E  05 03 29 00 09 80 02 29  ~.>....~..)....)
0580: 00 00 80 00 10 07 24 20  80 00 80 14 00 25 02 00  ......$ .....%..
0590: 10 00 80 00 9C 05 06 11  00 01 8A 06 02 00 10 09  ................
05A0: 80 00 B1 05 03 0D 00 38  00 03 0E 00 2E 00 01 8A  .......8........
05B0: 06 02 00 10 0A 80 00 C6  05 03 0D 00 39 00 03 0E  ............9...
05C0: 00 2F 00 01 8A 06 02 00  10 0B 80 00 DB 05 03 0D  ./..............
05D0: 00 3A 00 03 0E 00 30 00  01 8A 06 02 00 10 08 80  .:....0.........
05E0: 00 F0 05 03 0D 00 3B 00  03 0E 00 31 00 01 8A 06  ......;....1....
05F0: 02 00 10 0C 80 00 05 06  03 0D 00 3C 00 03 0E 00  ...........<....
0600: 32 00 01 8A 06 02 00 10  0D 80 00 1A 06 03 0D 00  2...............
0610: 3D 00 03 0E 00 33 00 01  8A 06 02 00 10 01 80 00  =....3..........
0620: 2F 06 03 0D 00 3E 00 03  0E 00 34 00 01 8A 06 02  /....>....4.....
0630: 00 10 02 80 00 44 06 03  0D 00 3F 00 03 0E 00 35  .....D....?....5
0640: 00 01 8A 06 02 00 10 1E  80 00 59 06 03 0D 00 40  ..........Y....@
0650: 00 03 0E 00 36 00 01 8A  06 02 00 10 1F 80 00 6E  ....6..........n
0660: 06 03 0D 00 41 00 03 0E  00 37 00 01 8A 06 02 00  ....A....7......
0670: 10 21 80 00 7C 06 0C 0C  00 01 8A 06 02 00 10 22  .!..|.........."
0680: 80 00 8A 06 0B 0C 00 01  8A 06 02 0E 00 00 80 02  ................
0690: 0D 07 03 29 00 00 80 1A  4C 17 02 29 00 00 80 00  ...)....L..)....
06A0: 09 07 03 29 00 0D 00 1A  7A 17 48 15 00 23 03 02  ...)....z.H..#..
06B0: 10 0D 00 03 03 10 23 80  1D 24 80 23 03 02 10 0D  ......#..$.#....
06C0: 00 24 25 80 09 80 00 80  25 02 00 10 00 80 00 FB  .$%.....%.......
06D0: 06 02 00 00 23 80 04 F4  06 40 00 80 03 80 01 10  ....#....@......
06E0: 09 80 40 04 80 07 80 01  10 0E 00 06 11 00 06 10  ..@.............
06F0: 00 01 F8 06 1D 26 80 23  01 06 07 02 00 10 09 80  .....&.#........
0700: 00 06 07 01 06 07 01 0D  07 1D 27 80 23 01 13 07  ..........'.#...
0710: 06 11 00 01 DD 04 01 22  07 03 02 10 0A 00 1D 28  .......".......(
0720: 80 23 01 96 11 02 00 10  0B 80 00 F5 07 05 11 00  .#..............
0730: 02 11 00 00 80 02 F2 07  03 14 00 00 80 02 01 00  ................
0740: 00 80 01 4D 07 03 02 10  01 00 01 57 07 3C 14 00  ...M.......W.<..
0750: 09 80 09 80 06 02 10 02  02 00 00 80 01 67 07 03  .............g..
0760: 03 10 02 00 01 71 07 3C  14 00 0A 80 09 80 06 03  .....q.<........
0770: 10 02 03 00 00 80 01 81  07 03 04 10 03 00 01 8B  ................
0780: 07 3C 14 00 0B 80 09 80  06 04 10 24 29 80 00 80  .<.........$)...
0790: 14 00 25 02 00 10 00 80  00 A1 07 06 11 00 01 EF  ..%.............
07A0: 07 02 00 10 09 80 00 BB  07 03 29 00 01 00 1A 8B  ..........).....
07B0: 20 1A 7A 17 48 15 00 23  01 EF 07 02 00 10 0A 80   .z.H..#........
07C0: 00 D5 07 03 29 00 02 00  1A 8B 20 1A 7A 17 48 15  ....)..... .z.H.
07D0: 00 23 01 EF 07 02 00 10  0B 80 00 EF 07 03 29 00  .#............).
07E0: 03 00 1A 8B 20 1A 7A 17  48 15 00 23 01 EF 07 01  .... .z.H..#....
07F0: 30 07 01 96 11 02 00 10  08 80 00 84 09 05 11 00  0...............
0800: 02 11 00 00 80 02 81 09  03 14 00 00 80 03 0D 00  ................
0810: 00 80 03 0E 00 00 80 02  01 00 00 80 01 2F 08 03  ............./..
0820: 29 00 01 00 1A 8B 20 03  02 10 29 00 01 39 08 3C  )..... ...)..9.<
0830: 14 00 09 80 09 80 06 02  10 02 02 00 00 80 01 51  ...............Q
0840: 08 03 29 00 02 00 1A 8B  20 03 03 10 29 00 01 5B  ..)..... ...)..[
0850: 08 3C 14 00 0A 80 09 80  06 03 10 02 03 00 00 80  .<..............
0860: 01 73 08 03 29 00 03 00  1A 8B 20 03 04 10 29 00  .s..)..... ...).
0870: 01 7D 08 3C 14 00 0B 80  09 80 06 04 10 24 2A 80  .}.<.........$*.
0880: 00 80 14 00 25 02 00 10  00 80 00 93 08 06 11 00  ....%...........
0890: 01 FA 08 02 00 10 09 80  00 B0 08 03 29 00 01 00  ............)...
08A0: 1A 8B 20 03 0D 00 29 00  03 0E 00 09 80 01 FA 08  .. ...).........
08B0: 02 00 10 0A 80 00 CD 08  03 29 00 02 00 1A 8B 20  .........)..... 
08C0: 03 0D 00 29 00 03 0E 00  0A 80 01 FA 08 02 00 10  ...)............
08D0: 0B 80 00 EA 08 03 29 00  03 00 1A 8B 20 03 0D 00  ......)..... ...
08E0: 29 00 03 0E 00 0B 80 01  FA 08 02 00 10 08 80 00  )...............
08F0: FA 08 03 0E 00 08 80 01  FA 08 02 0E 00 00 80 02  ................
0900: 7E 09 02 0E 00 08 80 03  48 09 03 02 10 0D 00 24  ~.......H......$
0910: 2B 80 09 80 00 80 25 02  00 10 00 80 00 3A 09 40  +.....%......:.@
0920: 00 80 03 80 01 10 0A 80  40 04 80 07 80 01 10 0E  ........@.......
0930: 00 06 11 00 06 10 00 01  45 09 02 00 10 09 80 00  ........E.......
0940: 45 09 01 45 09 01 7E 09  24 2C 80 09 80 00 80 25  E..E..~.$,.....%
0950: 02 00 10 00 80 00 73 09  40 00 80 03 80 01 10 0A  ......s.@.......
0960: 80 40 04 80 07 80 01 10  0E 00 06 11 00 06 10 00  .@..............
0970: 01 7E 09 02 00 10 09 80  00 7E 09 01 7E 09 01 00  .~.......~..~...
0980: 08 01 96 11 02 00 10 0C  80 00 36 0B 03 29 00 00  ..........6..)..
0990: 80 02 01 00 16 00 00 AE  09 02 02 00 17 00 00 AE  ................
09A0: 09 02 03 00 18 00 00 AE  09 03 29 00 09 80 02 29  ..........)....)
09B0: 00 00 80 00 2F 0B 05 11  00 02 11 00 00 80 02 2C  ..../..........,
09C0: 0B 03 14 00 00 80 03 0D  00 00 80 03 0E 00 00 80  ................
09D0: 02 16 00 00 80 01 E8 09  03 29 00 16 00 1A 8B 20  .........)..... 
09E0: 03 02 10 29 00 01 F2 09  3C 14 00 09 80 09 80 06  ...)....<.......
09F0: 02 10 02 17 00 00 80 01  0A 0A 03 29 00 17 00 1A  ...........)....
0A00: 8B 20 03 03 10 29 00 01  14 0A 3C 14 00 0A 80 09  . ...)....<.....
0A10: 80 06 03 10 02 18 00 00  80 01 2C 0A 03 29 00 18  ..........,..)..
0A20: 00 1A 8B 20 03 04 10 29  00 01 36 0A 3C 14 00 0B  ... ...)..6.<...
0A30: 80 09 80 06 04 10 24 2D  80 00 80 14 00 25 02 00  ......$-.....%..
0A40: 10 00 80 00 4C 0A 06 11  00 01 29 0B 02 00 10 09  ....L.....).....
0A50: 80 00 66 0A 03 29 00 16  00 1A 8B 20 1A 7A 17 48  ..f..)..... .z.H
0A60: 15 00 23 01 29 0B 02 00  10 0A 80 00 80 0A 03 29  ..#.)..........)
0A70: 00 17 00 1A 8B 20 1A 7A  17 48 15 00 23 01 29 0B  ..... .z.H..#.).
0A80: 02 00 10 0B 80 00 9A 0A  03 29 00 18 00 1A 8B 20  .........)..... 
0A90: 1A 7A 17 48 15 00 23 01  29 0B 02 00 10 08 80 00  .z.H..#.).......
0AA0: 29 0B 03 29 00 00 80 3E  14 00 09 80 B1 0A 01 B4  )..)...>........
0AB0: 0A 0B 29 00 3E 14 00 0A  80 BE 0A 01 C1 0A 0B 29  ..).>..........)
0AC0: 00 3E 14 00 0B 80 CB 0A  01 CE 0A 0B 29 00 14 29  .>..........)..)
0AD0: 00 23 80 03 02 10 29 00  1D 2E 80 23 03 02 10 0D  .#....)....#....
0AE0: 00 24 2F 80 09 80 00 80  25 02 00 10 00 80 00 1B  .$/.....%.......
0AF0: 0B 02 00 00 29 00 04 14  0B 40 00 80 03 80 01 10  ....)....@......
0B00: 0B 80 40 04 80 07 80 01  10 0E 00 06 11 00 06 10  ..@.............
0B10: 00 01 18 0B 1D 26 80 23  01 26 0B 02 00 10 09 80  .....&.#.&......
0B20: 00 26 0B 01 26 0B 01 29  0B 01 B9 09 01 33 0B 1D  .&..&..).....3..
0B30: 30 80 23 01 96 11 02 00  10 0D 80 00 96 11 03 25  0.#............%
0B40: 00 00 80 03 26 00 00 80  03 27 00 00 80 03 28 00  ....&....'....(.
0B50: 00 80 05 11 00 02 11 00  00 80 02 93 11 03 14 00  ................
0B60: 00 80 03 0D 00 00 80 03  0E 00 00 80 03 12 00 00  ................
0B70: 80 03 14 00 25 00 02 19  00 00 80 01 86 0B 03 02  ....%...........
0B80: 10 19 00 01 90 0B 3C 14  00 09 80 09 80 06 02 10  ......<.........
0B90: 02 1A 00 00 80 01 A0 0B  03 03 10 1A 00 01 AA 0B  ................
0BA0: 3C 14 00 0A 80 09 80 06  03 10 02 1B 00 00 80 01  <...............
0BB0: BA 0B 03 04 10 1B 00 01  C4 0B 3C 14 00 0B 80 09  ..........<.....
0BC0: 80 06 04 10 02 1C 00 00  80 01 D4 0B 03 05 10 1C  ................
0BD0: 00 01 DE 0B 3C 14 00 08  80 09 80 06 05 10 02 1D  ....<...........
0BE0: 00 00 80 01 EE 0B 03 06  10 1D 00 01 F8 0B 3C 14  ..............<.
0BF0: 00 0C 80 09 80 06 06 10  02 1E 00 00 80 01 08 0C  ................
0C00: 03 07 10 1E 00 01 12 0C  3C 14 00 0D 80 09 80 06  ........<.......
0C10: 07 10 02 1F 00 00 80 01  22 0C 03 08 10 1F 00 01  ........".......
0C20: 2C 0C 3C 14 00 01 80 09  80 06 08 10 02 20 00 00  ,.<.......... ..
0C30: 80 01 3C 0C 03 09 10 20  00 01 46 0C 3C 14 00 02  ..<.... ..F.<...
0C40: 80 09 80 06 09 10 02 21  00 00 80 01 56 0C 03 00  .......!....V...
0C50: 17 21 00 01 60 0C 3C 14  00 1E 80 09 80 06 00 17  .!..`.<.........
0C60: 02 22 00 00 80 01 70 0C  03 01 17 22 00 01 7A 0C  ."....p...."..z.
0C70: 3C 14 00 1F 80 09 80 06  01 17 02 23 00 00 80 01  <..........#....
0C80: 8A 0C 03 02 17 23 00 01  94 0C 3C 14 00 21 80 09  .....#....<..!..
0C90: 80 06 02 17 02 24 00 00  80 01 A4 0C 03 03 17 24  .....$.........$
0CA0: 00 01 AE 0C 3C 14 00 22  80 09 80 06 03 17 24 31  ....<.."......$1
0CB0: 80 00 80 14 00 25 02 00  10 00 80 00 C4 0C 06 11  .....%..........
0CC0: 00 01 14 0E 02 00 10 09  80 00 E0 0C 03 0E 00 09  ................
0CD0: 80 03 0D 00 19 00 3C 25  00 09 80 09 80 01 14 0E  ......<%........
0CE0: 02 00 10 0A 80 00 FC 0C  03 0E 00 0A 80 03 0D 00  ................
0CF0: 1A 00 3C 25 00 0A 80 09  80 01 14 0E 02 00 10 0B  ..<%............
0D00: 80 00 18 0D 03 0E 00 0B  80 03 0D 00 1B 00 3C 25  ..............<%
0D10: 00 0B 80 09 80 01 14 0E  02 00 10 08 80 00 34 0D  ..............4.
0D20: 03 0E 00 08 80 03 0D 00  1C 00 3C 25 00 08 80 09  ..........<%....
0D30: 80 01 14 0E 02 00 10 0C  80 00 50 0D 03 0E 00 0C  ..........P.....
0D40: 80 03 0D 00 1D 00 3C 25  00 0C 80 09 80 01 14 0E  ......<%........
0D50: 02 00 10 0D 80 00 6C 0D  03 0E 00 0D 80 03 0D 00  ......l.........
0D60: 1E 00 3C 25 00 0D 80 09  80 01 14 0E 02 00 10 01  ..<%............
0D70: 80 00 88 0D 03 0E 00 01  80 03 0D 00 1F 00 3C 25  ..............<%
0D80: 00 01 80 09 80 01 14 0E  02 00 10 02 80 00 A4 0D  ................
0D90: 03 0E 00 02 80 03 0D 00  20 00 3C 25 00 02 80 09  ........ .<%....
0DA0: 80 01 14 0E 02 00 10 1E  80 00 C0 0D 03 0E 00 1E  ................
0DB0: 80 03 0D 00 21 00 3C 25  00 1E 80 09 80 01 14 0E  ....!.<%........
0DC0: 02 00 10 1F 80 00 DC 0D  03 0E 00 1F 80 03 0D 00  ................
0DD0: 22 00 3C 25 00 1F 80 09  80 01 14 0E 02 00 10 21  ".<%...........!
0DE0: 80 00 F8 0D 03 0E 00 21  80 03 0D 00 23 00 3C 25  .......!....#.<%
0DF0: 00 21 80 09 80 01 14 0E  02 00 10 22 80 00 14 0E  .!........."....
0E00: 03 0E 00 22 80 03 0D 00  24 00 3C 25 00 22 80 09  ..."....$.<%."..
0E10: 80 01 14 0E 02 0E 00 00  80 02 90 11 02 26 00 00  .............&..
0E20: 80 00 2C 0E 03 26 00 0D  00 01 49 0E 02 27 00 00  ..,..&....I..'..
0E30: 80 00 3C 0E 03 27 00 0D  00 01 49 0E 02 28 00 00  ..<..'....I..(..
0E40: 80 00 49 0E 03 28 00 0D  00 05 12 00 02 12 00 00  ..I..(..........
0E50: 80 02 90 11 03 14 00 00  80 03 29 00 00 80 02 26  ..........)....&
0E60: 00 00 80 00 70 0E 3C 14  00 09 80 09 80 01 73 0E  ....p.<.......s.
0E70: 0B 29 00 02 27 00 00 80  00 85 0E 3C 14 00 0A 80  .)..'......<....
0E80: 09 80 01 88 0E 0B 29 00  02 28 00 00 80 00 9A 0E  ......)..(......
0E90: 3C 14 00 0B 80 09 80 01  9D 0E 0B 29 00 02 29 00  <..........)..).
0EA0: 0A 00 04 AC 0E 3C 14 00  08 80 09 80 02 26 00 00  .....<.......&..
0EB0: 80 01 CB 0E 02 27 00 00  80 01 CB 0E 02 28 00 00  .....'.......(..
0EC0: 80 01 CB 0E 3C 14 00 08  80 09 80 03 29 00 00 80  ....<.......)...
0ED0: 02 19 00 00 80 01 DB 0E  0B 29 00 02 1A 00 00 80  .........)......
0EE0: 01 E6 0E 0B 29 00 02 1B  00 00 80 01 F1 0E 0B 29  ....)..........)
0EF0: 00 02 1C 00 00 80 01 FC  0E 0B 29 00 02 1D 00 00  ..........).....
0F00: 80 01 07 0F 0B 29 00 02  1E 00 00 80 01 12 0F 0B  .....)..........
0F10: 29 00 02 1F 00 00 80 01  1D 0F 0B 29 00 02 20 00  )..........).. .
0F20: 00 80 01 28 0F 0B 29 00  02 21 00 00 80 01 33 0F  ...(..)..!....3.
0F30: 0B 29 00 02 22 00 00 80  01 3E 0F 0B 29 00 02 23  .).."....>..)..#
0F40: 00 00 80 01 49 0F 0B 29  00 02 24 00 00 80 01 54  ....I..)..$....T
0F50: 0F 0B 29 00 3E 25 00 09  80 5E 0F 0C 29 00 3E 25  ..).>%...^..).>%
0F60: 00 0A 80 68 0F 0C 29 00  3E 25 00 0B 80 72 0F 0C  ...h..).>%...r..
0F70: 29 00 3E 25 00 08 80 7C  0F 0C 29 00 3E 25 00 0C  ).>%...|..).>%..
0F80: 80 86 0F 0C 29 00 3E 25  00 0D 80 90 0F 0C 29 00  ....).>%......).
0F90: 3E 25 00 01 80 9A 0F 0C  29 00 3E 25 00 02 80 A4  >%......).>%....
0FA0: 0F 0C 29 00 3E 25 00 1E  80 AE 0F 0C 29 00 3E 25  ..).>%......).>%
0FB0: 00 1F 80 B8 0F 0C 29 00  3E 25 00 21 80 C2 0F 0C  ......).>%.!....
0FC0: 29 00 3E 25 00 22 80 CC  0F 0C 29 00 02 29 00 00  ).>%."....)..)..
0FD0: 80 05 DB 0F 3C 14 00 08  80 09 80 14 29 00 23 80  ....<.......).#.
0FE0: 03 05 10 29 00 03 02 10  26 00 03 03 10 27 00 03  ...)....&....'..
0FF0: 04 10 28 00 24 32 80 00  80 14 00 25 02 00 10 00  ..(.$2.....%....
1000: 80 00 19 10 06 11 00 06  12 00 06 25 00 06 26 00  ...........%..&.
1010: 06 27 00 06 28 00 01 8D  11 02 00 10 09 80 00 33  .'..(..........3
1020: 10 03 29 00 26 00 1A 8B  20 1A 7A 17 48 15 00 23  ..).&... .z.H..#
1030: 01 8D 11 02 00 10 0A 80  00 4D 10 03 29 00 27 00  .........M..).'.
1040: 1A 8B 20 1A 7A 17 48 15  00 23 01 8D 11 02 00 10  .. .z.H..#......
1050: 0B 80 00 67 10 03 29 00  28 00 1A 8B 20 1A 7A 17  ...g..).(... .z.
1060: 48 15 00 23 01 8D 11 02  00 10 08 80 00 75 10 06  H..#.........u..
1070: 12 00 01 8D 11 02 00 10  0C 80 00 8D 11 03 29 00  ..............).
1080: 00 80 02 01 00 00 80 01  8D 10 0B 29 00 02 02 00  ...........)....
1090: 00 80 01 98 10 0B 29 00  02 03 00 00 80 01 A3 10  ......).........
10A0: 0B 29 00 02 29 00 00 80  02 E2 10 24 33 80 09 80  .)..)......$3...
10B0: 00 80 25 02 00 10 00 80  00 C3 10 03 29 00 00 80  ..%.........)...
10C0: 01 E2 10 02 00 10 09 80  00 E2 10 03 29 00 09 80  ............)...
10D0: 06 12 00 06 25 00 06 26  00 06 27 00 06 28 00 01  ....%..&..'..(..
10E0: E2 10 02 29 00 00 80 00  8A 11 03 29 00 00 80 02  ...).......)....
10F0: 26 00 00 80 01 FA 10 0B  29 00 02 27 00 00 80 01  &.......)..'....
1100: 05 11 0B 29 00 02 28 00  00 80 01 10 11 0B 29 00  ...)..(.......).
1110: 14 29 00 23 80 03 02 10  29 00 1D 34 80 23 24 35  .).#....)..4.#$5
1120: 80 09 80 00 80 25 02 00  10 00 80 00 6D 11 02 00  .....%......m...
1130: 00 29 00 04 54 11 40 00  80 03 80 01 10 0C 80 40  .)..T.@........@
1140: 04 80 07 80 01 10 25 00  06 11 00 06 12 00 06 10  ......%.........
1150: 00 01 6A 11 1D 26 80 23  06 11 00 06 12 00 06 25  ..j..&.#.......%
1160: 00 06 26 00 06 27 00 06  28 00 01 8A 11 02 00 10  ..&..'..(.......
1170: 09 80 00 8A 11 06 11 00  06 12 00 06 25 00 06 26  ............%..&
1180: 00 06 27 00 06 28 00 01  8A 11 01 8D 11 01 4C 0E  ..'..(........L.
1190: 01 55 0B 01 96 11 01 15  04 42 21 00 03 0B 00 00  .U.......B!.....
11A0: 80 3E 04 00 00 80 AB 11  0B 0B 00 3E 04 00 09 80  .>.........>....
11B0: B5 11 0B 0B 00 3E 04 00  0A 80 BF 11 0B 0B 00 3E  .....>.........>
11C0: 04 00 0B 80 C9 11 0B 0B  00 3E 04 00 08 80 D3 11  .........>......
11D0: 0B 0B 00 3E 04 00 0C 80  DD 11 0B 0B 00 3E 04 00  ...>.........>..
11E0: 0D 80 E7 11 0B 0B 00 3E  04 00 01 80 F1 11 0B 0B  .......>........
11F0: 00 3E 04 00 02 80 FB 11  0B 0B 00 3E 04 00 1E 80  .>.........>....
1200: 05 12 0B 0B 00 3E 04 00  1F 80 0F 12 0B 0B 00 3E  .....>.........>
1210: 04 00 21 80 19 12 0B 0B  00 3E 04 00 22 80 23 12  ..!......>..".#.
1220: 0B 0B 00 3E 04 00 36 80  2D 12 0B 0B 00 3E 04 00  ...>..6.-....>..
1230: 37 80 37 12 0B 0B 00 3E  04 00 03 80 41 12 0B 0B  7.7....>....A...
1240: 00 3E 04 00 04 80 4B 12  0B 0B 00 3E 04 00 38 80  .>....K....>..8.
1250: 55 12 0B 0B 00 3E 04 00  39 80 5F 12 0B 0B 00 3E  U....>..9._....>
1260: 04 00 3A 80 69 12 0B 0B  00 3E 04 00 3B 80 73 12  ..:.i....>..;.s.
1270: 0B 0B 00 3E 04 00 3C 80  7D 12 0B 0B 00 3E 04 00  ...>..<.}....>..
1280: 3D 80 87 12 0B 0B 00 3E  04 00 05 80 91 12 0B 0B  =......>........
1290: 00 3E 04 00 06 80 9B 12  0B 0B 00 3E 04 00 3E 80  .>.........>..>.
12A0: A5 12 0B 0B 00 3E 04 00  3F 80 AF 12 0B 0B 00 3E  .....>..?......>
12B0: 04 00 40 80 B9 12 0B 0B  00 3E 04 00 41 80 C3 12  ..@......>..A...
12C0: 0B 0B 00 3E 04 00 42 80  CD 12 0B 0B 00 3E 04 00  ...>..B......>..
12D0: 43 80 D7 12 0B 0B 00 3E  04 00 07 80 E1 12 0B 0B  C......>........
12E0: 00 3E 05 00 00 80 EB 12  0B 0B 00 3E 05 00 09 80  .>.........>....
12F0: F5 12 0B 0B 00 3E 05 00  0A 80 FF 12 0B 0B 00 3E  .....>.........>
1300: 05 00 0B 80 09 13 0B 0B  00 3E 05 00 08 80 13 13  .........>......
1310: 0B 0B 00 3E 05 00 0C 80  1D 13 0B 0B 00 3E 05 00  ...>.........>..
1320: 0D 80 27 13 0B 0B 00 3E  05 00 01 80 31 13 0B 0B  ..'....>....1...
1330: 00 3E 05 00 02 80 3B 13  0B 0B 00 3E 05 00 1E 80  .>....;....>....
1340: 45 13 0B 0B 00 3E 05 00  1F 80 4F 13 0B 0B 00 3E  E....>....O....>
1350: 05 00 21 80 59 13 0B 0B  00 3E 05 00 22 80 63 13  ..!.Y....>..".c.
1360: 0B 0B 00 3E 05 00 36 80  6D 13 0B 0B 00 3E 05 00  ...>..6.m....>..
1370: 37 80 77 13 0B 0B 00 3E  05 00 03 80 81 13 0B 0B  7.w....>........
1380: 00 3E 05 00 04 80 8B 13  0B 0B 00 3E 05 00 38 80  .>.........>..8.
1390: 95 13 0B 0B 00 3E 05 00  39 80 9F 13 0B 0B 00 3E  .....>..9......>
13A0: 05 00 3A 80 A9 13 0B 0B  00 3E 05 00 3B 80 B3 13  ..:......>..;...
13B0: 0B 0B 00 3E 05 00 3C 80  BD 13 0B 0B 00 3E 05 00  ...>..<......>..
13C0: 3D 80 C7 13 0B 0B 00 3E  05 00 05 80 D1 13 0B 0B  =......>........
13D0: 00 3E 05 00 06 80 DB 13  0B 0B 00 3E 05 00 3E 80  .>.........>..>.
13E0: E5 13 0B 0B 00 3E 05 00  3F 80 EF 13 0B 0B 00 3E  .....>..?......>
13F0: 05 00 40 80 F9 13 0B 0B  00 3E 05 00 41 80 03 14  ..@......>..A...
1400: 0B 0B 00 3E 05 00 42 80  0D 14 0B 0B 00 3E 05 00  ...>..B......>..
1410: 43 80 17 14 0B 0B 00 3E  05 00 07 80 21 14 0B 0B  C......>....!...
1420: 00 3E 06 00 00 80 2B 14  0B 0B 00 3E 06 00 09 80  .>....+....>....
1430: 35 14 0B 0B 00 3E 06 00  0A 80 3F 14 0B 0B 00 3E  5....>....?....>
1440: 06 00 0B 80 49 14 0B 0B  00 3E 06 00 08 80 53 14  ....I....>....S.
1450: 0B 0B 00 3E 06 00 0C 80  5D 14 0B 0B 00 3E 06 00  ...>....]....>..
1460: 0D 80 67 14 0B 0B 00 3E  06 00 01 80 71 14 0B 0B  ..g....>....q...
1470: 00 3E 06 00 02 80 7B 14  0B 0B 00 3E 06 00 1E 80  .>....{....>....
1480: 85 14 0B 0B 00 3E 06 00  1F 80 8F 14 0B 0B 00 3E  .....>.........>
1490: 06 00 21 80 99 14 0B 0B  00 3E 06 00 22 80 A3 14  ..!......>.."...
14A0: 0B 0B 00 3E 06 00 36 80  AD 14 0B 0B 00 3E 06 00  ...>..6......>..
14B0: 37 80 B7 14 0B 0B 00 3E  06 00 03 80 C1 14 0B 0B  7......>........
14C0: 00 3E 06 00 04 80 CB 14  0B 0B 00 3E 06 00 38 80  .>.........>..8.
14D0: D5 14 0B 0B 00 3E 06 00  39 80 DF 14 0B 0B 00 3E  .....>..9......>
14E0: 06 00 3A 80 E9 14 0B 0B  00 3E 06 00 3B 80 F3 14  ..:......>..;...
14F0: 0B 0B 00 3E 06 00 3C 80  FD 14 0B 0B 00 3E 06 00  ...>..<......>..
1500: 3D 80 07 15 0B 0B 00 3E  06 00 05 80 11 15 0B 0B  =......>........
1510: 00 3E 06 00 06 80 1B 15  0B 0B 00 3E 06 00 3E 80  .>.........>..>.
1520: 25 15 0B 0B 00 3E 06 00  3F 80 2F 15 0B 0B 00 3E  %....>..?./....>
1530: 06 00 40 80 39 15 0B 0B  00 3E 06 00 41 80 43 15  ..@.9....>..A.C.
1540: 0B 0B 00 3E 06 00 42 80  4D 15 0B 0B 00 3E 06 00  ...>..B.M....>..
1550: 43 80 57 15 0B 0B 00 3E  06 00 07 80 61 15 0B 0B  C.W....>....a...
1560: 00 3E 07 00 00 80 6B 15  0B 0B 00 3E 07 00 09 80  .>....k....>....
1570: 75 15 0B 0B 00 3E 07 00  0A 80 7F 15 0B 0B 00 3E  u....>.........>
1580: 07 00 0B 80 89 15 0B 0B  00 3E 08 00 00 80 93 15  .........>......
1590: 0B 0B 00 3E 08 00 09 80  9D 15 0B 0B 00 3E 08 00  ...>.........>..
15A0: 0A 80 A7 15 0B 0B 00 3E  08 00 0B 80 B1 15 0B 0B  .......>........
15B0: 00 3E 08 00 08 80 BB 15  0B 0B 00 3E 08 00 0C 80  .>.........>....
15C0: C5 15 0B 0B 00 3E 08 00  0D 80 CF 15 0B 0B 00 3E  .....>.........>
15D0: 08 00 01 80 D9 15 0B 0B  00 3E 08 00 02 80 E3 15  .........>......
15E0: 0B 0B 00 3E 08 00 1E 80  ED 15 0B 0B 00 3E 08 00  ...>.........>..
15F0: 1F 80 F7 15 0B 0B 00 3E  08 00 21 80 01 16 0B 0B  .......>..!.....
1600: 00 3E 08 00 22 80 0B 16  0B 0B 00 3E 08 00 36 80  .>.."......>..6.
1610: 15 16 0B 0B 00 3E 08 00  37 80 1F 16 0B 0B 00 3E  .....>..7......>
1620: 08 00 03 80 29 16 0B 0B  00 3E 08 00 04 80 33 16  ....)....>....3.
1630: 0B 0B 00 3E 08 00 38 80  3D 16 0B 0B 00 3E 08 00  ...>..8.=....>..
1640: 39 80 47 16 0B 0B 00 3E  08 00 3A 80 51 16 0B 0B  9.G....>..:.Q...
1650: 00 3E 08 00 3B 80 5B 16  0B 0B 00 3E 08 00 3C 80  .>..;.[....>..<.
1660: 65 16 0B 0B 00 3E 08 00  3D 80 6F 16 0B 0B 00 3E  e....>..=.o....>
1670: 08 00 05 80 79 16 0B 0B  00 3E 08 00 06 80 83 16  ....y....>......
1680: 0B 0B 00 3E 08 00 3E 80  8D 16 0B 0B 00 3E 08 00  ...>..>......>..
1690: 3F 80 97 16 0B 0B 00 3E  08 00 40 80 A1 16 0B 0B  ?......>..@.....
16A0: 00 3E 08 00 41 80 AB 16  0B 0B 00 3E 08 00 42 80  .>..A......>..B.
16B0: B5 16 0B 0B 00 3E 08 00  43 80 BF 16 0B 0B 00 3E  .....>..C......>
16C0: 08 00 07 80 C9 16 0B 0B  00 3E 09 00 00 80 D3 16  .........>......
16D0: 0B 0B 00 3E 09 00 09 80  DD 16 0B 0B 00 3E 09 00  ...>.........>..
16E0: 0A 80 E7 16 0B 0B 00 3E  09 00 0B 80 F1 16 0B 0B  .......>........
16F0: 00 3E 09 00 08 80 FB 16  0B 0B 00 3E 09 00 0C 80  .>.........>....
1700: 05 17 0B 0B 00 3E 09 00  0D 80 0F 17 0B 0B 00 3E  .....>.........>
1710: 09 00 01 80 19 17 0B 0B  00 3E 09 00 02 80 23 17  .........>....#.
1720: 0B 0B 00 3E 09 00 1E 80  2D 17 0B 0B 00 3E 09 00  ...>....-....>..
1730: 1F 80 37 17 0B 0B 00 3E  09 00 21 80 41 17 0B 0B  ..7....>..!.A...
1740: 00 3E 09 00 22 80 4B 17  0B 0B 00 1B 02 0E 00 01  .>..".K.........
1750: 00 00 5C 17 03 29 00 09  80 01 79 17 02 0E 00 02  ..\..)....y.....
1760: 00 00 6C 17 03 29 00 09  80 01 79 17 02 0E 00 03  ..l..)....y.....
1770: 00 00 79 17 03 29 00 09  80 1B 02 29 00 44 80 80  ..y..).....).D..
1780: 8A 17 03 15 00 45 80 01  8A 20 02 29 00 46 80 80  .....E... .).F..
1790: 9A 17 03 15 00 47 80 01  8A 20 02 29 00 48 80 80  .....G... .).H..
17A0: AA 17 03 15 00 49 80 01  8A 20 02 29 00 4A 80 80  .....I... .).J..
17B0: BA 17 03 15 00 4B 80 01  8A 20 02 29 00 4C 80 80  .....K... .).L..
17C0: CA 17 03 15 00 4D 80 01  8A 20 02 29 00 4E 80 80  .....M... .).N..
17D0: DA 17 03 15 00 4F 80 01  8A 20 02 29 00 50 80 80  .....O... .).P..
17E0: EA 17 03 15 00 51 80 01  8A 20 02 29 00 52 80 80  .....Q... .).R..
17F0: FA 17 03 15 00 53 80 01  8A 20 02 29 00 54 80 80  .....S... .).T..
1800: 0A 18 03 15 00 55 80 01  8A 20 02 29 00 56 80 80  .....U... .).V..
1810: 1A 18 03 15 00 57 80 01  8A 20 02 29 00 58 80 80  .....W... .).X..
1820: 2A 18 03 15 00 59 80 01  8A 20 02 29 00 5A 80 80  *....Y... .).Z..
1830: 3A 18 03 15 00 5B 80 01  8A 20 02 29 00 5C 80 80  :....[... .).\..
1840: 4A 18 03 15 00 5D 80 01  8A 20 02 29 00 5E 80 80  J....]... .).^..
1850: 5A 18 03 15 00 5F 80 01  8A 20 02 29 00 60 80 80  Z...._... .).`..
1860: 6A 18 03 15 00 61 80 01  8A 20 02 29 00 62 80 80  j....a... .).b..
1870: 7A 18 03 15 00 63 80 01  8A 20 02 29 00 64 80 80  z....c... .).d..
1880: 8A 18 03 15 00 65 80 01  8A 20 02 29 00 66 80 80  .....e... .).f..
1890: 9A 18 03 15 00 67 80 01  8A 20 02 29 00 68 80 80  .....g... .).h..
18A0: AA 18 03 15 00 69 80 01  8A 20 02 29 00 6A 80 80  .....i... .).j..
18B0: BA 18 03 15 00 6B 80 01  8A 20 02 29 00 6C 80 80  .....k... .).l..
18C0: CA 18 03 15 00 6D 80 01  8A 20 02 29 00 6E 80 80  .....m... .).n..
18D0: DA 18 03 15 00 6F 80 01  8A 20 02 29 00 70 80 80  .....o... .).p..
18E0: EA 18 03 15 00 71 80 01  8A 20 02 29 00 72 80 80  .....q... .).r..
18F0: FA 18 03 15 00 73 80 01  8A 20 02 29 00 74 80 80  .....s... .).t..
1900: 0A 19 03 15 00 75 80 01  8A 20 02 29 00 76 80 80  .....u... .).v..
1910: 1A 19 03 15 00 77 80 01  8A 20 02 29 00 78 80 80  .....w... .).x..
1920: 2A 19 03 15 00 79 80 01  8A 20 02 29 00 7A 80 80  *....y... .).z..
1930: 3A 19 03 15 00 7B 80 01  8A 20 02 29 00 7C 80 80  :....{... .).|..
1940: 4A 19 03 15 00 7D 80 01  8A 20 02 29 00 7E 80 80  J....}... .).~..
1950: 5A 19 03 15 00 7F 80 01  8A 20 02 29 00 80 80 80  Z........ .)....
1960: 6A 19 03 15 00 81 80 01  8A 20 02 29 00 82 80 80  j........ .)....
1970: 7A 19 03 15 00 83 80 01  8A 20 02 29 00 84 80 80  z........ .)....
1980: 8A 19 03 15 00 85 80 01  8A 20 02 29 00 86 80 80  ......... .)....
1990: 9A 19 03 15 00 87 80 01  8A 20 02 29 00 88 80 80  ......... .)....
19A0: AA 19 03 15 00 89 80 01  8A 20 02 29 00 8A 80 80  ......... .)....
19B0: BA 19 03 15 00 8B 80 01  8A 20 02 29 00 8C 80 80  ......... .)....
19C0: CA 19 03 15 00 8D 80 01  8A 20 02 29 00 8E 80 80  ......... .)....
19D0: DA 19 03 15 00 8F 80 01  8A 20 02 29 00 90 80 80  ......... .)....
19E0: EA 19 03 15 00 91 80 01  8A 20 02 29 00 92 80 80  ......... .)....
19F0: FA 19 03 15 00 93 80 01  8A 20 02 29 00 94 80 80  ......... .)....
1A00: 0A 1A 03 15 00 95 80 01  8A 20 02 29 00 96 80 80  ......... .)....
1A10: 1A 1A 03 15 00 97 80 01  8A 20 02 29 00 98 80 80  ......... .)....
1A20: 2A 1A 03 15 00 99 80 01  8A 20 02 29 00 9A 80 80  *........ .)....
1A30: 3A 1A 03 15 00 9B 80 01  8A 20 02 29 00 9C 80 80  :........ .)....
1A40: 4A 1A 03 15 00 9D 80 01  8A 20 02 29 00 9E 80 80  J........ .)....
1A50: 5A 1A 03 15 00 9F 80 01  8A 20 02 29 00 A0 80 80  Z........ .)....
1A60: 6A 1A 03 15 00 A1 80 01  8A 20 02 29 00 A2 80 80  j........ .)....
1A70: 7A 1A 03 15 00 A3 80 01  8A 20 02 29 00 A4 80 80  z........ .)....
1A80: 8A 1A 03 15 00 A5 80 01  8A 20 02 29 00 A6 80 80  ......... .)....
1A90: 9A 1A 03 15 00 A7 80 01  8A 20 02 29 00 A8 80 80  ......... .)....
1AA0: AA 1A 03 15 00 A9 80 01  8A 20 02 29 00 AA 80 80  ......... .)....
1AB0: BA 1A 03 15 00 AB 80 01  8A 20 02 29 00 AC 80 80  ......... .)....
1AC0: CA 1A 03 15 00 AD 80 01  8A 20 02 29 00 AE 80 80  ......... .)....
1AD0: DA 1A 03 15 00 AF 80 01  8A 20 02 29 00 B0 80 80  ......... .)....
1AE0: EA 1A 03 15 00 B1 80 01  8A 20 02 29 00 B2 80 80  ......... .)....
1AF0: FA 1A 03 15 00 B3 80 01  8A 20 02 29 00 B4 80 80  ......... .)....
1B00: 0A 1B 03 15 00 B5 80 01  8A 20 02 29 00 B6 80 80  ......... .)....
1B10: 1A 1B 03 15 00 B7 80 01  8A 20 02 29 00 B8 80 80  ......... .)....
1B20: 2A 1B 03 15 00 B9 80 01  8A 20 02 29 00 BA 80 80  *........ .)....
1B30: 3A 1B 03 15 00 BB 80 01  8A 20 02 29 00 BC 80 80  :........ .)....
1B40: 4A 1B 03 15 00 BD 80 01  8A 20 02 29 00 BE 80 80  J........ .)....
1B50: 5A 1B 03 15 00 BF 80 01  8A 20 02 29 00 C0 80 80  Z........ .)....
1B60: 6A 1B 03 15 00 C1 80 01  8A 20 02 29 00 C2 80 80  j........ .)....
1B70: 7A 1B 03 15 00 C3 80 01  8A 20 02 29 00 C4 80 80  z........ .)....
1B80: 8A 1B 03 15 00 C5 80 01  8A 20 02 29 00 C6 80 80  ......... .)....
1B90: 9A 1B 03 15 00 C7 80 01  8A 20 02 29 00 C8 80 80  ......... .)....
1BA0: AA 1B 03 15 00 C9 80 01  8A 20 02 29 00 CA 80 80  ......... .)....
1BB0: BA 1B 03 15 00 CB 80 01  8A 20 02 29 00 CC 80 80  ......... .)....
1BC0: CA 1B 03 15 00 CD 80 01  8A 20 02 29 00 CE 80 80  ......... .)....
1BD0: DA 1B 03 15 00 CF 80 01  8A 20 02 29 00 D0 80 80  ......... .)....
1BE0: EA 1B 03 15 00 D1 80 01  8A 20 02 29 00 D2 80 80  ......... .)....
1BF0: FA 1B 03 15 00 D3 80 01  8A 20 02 29 00 D4 80 80  ......... .)....
1C00: 0A 1C 03 15 00 D5 80 01  8A 20 02 29 00 D6 80 80  ......... .)....
1C10: 1A 1C 03 15 00 D7 80 01  8A 20 02 29 00 D8 80 80  ......... .)....
1C20: 2A 1C 03 15 00 D9 80 01  8A 20 02 29 00 DA 80 80  *........ .)....
1C30: 3A 1C 03 15 00 DB 80 01  8A 20 02 29 00 DC 80 80  :........ .)....
1C40: 4A 1C 03 15 00 DD 80 01  8A 20 02 29 00 DE 80 80  J........ .)....
1C50: 5A 1C 03 15 00 DF 80 01  8A 20 02 29 00 E0 80 80  Z........ .)....
1C60: 6A 1C 03 15 00 E1 80 01  8A 20 02 29 00 E2 80 80  j........ .)....
1C70: 7A 1C 03 15 00 E3 80 01  8A 20 02 29 00 E4 80 80  z........ .)....
1C80: 8A 1C 03 15 00 E5 80 01  8A 20 02 29 00 E6 80 80  ......... .)....
1C90: 9A 1C 03 15 00 E7 80 01  8A 20 02 29 00 E8 80 80  ......... .)....
1CA0: AA 1C 03 15 00 E9 80 01  8A 20 02 29 00 EA 80 80  ......... .)....
1CB0: BA 1C 03 15 00 EB 80 01  8A 20 02 29 00 EC 80 80  ......... .)....
1CC0: CA 1C 03 15 00 ED 80 01  8A 20 02 29 00 EE 80 80  ......... .)....
1CD0: DA 1C 03 15 00 EF 80 01  8A 20 02 29 00 F0 80 80  ......... .)....
1CE0: EA 1C 03 15 00 F1 80 01  8A 20 02 29 00 F2 80 80  ......... .)....
1CF0: FA 1C 03 15 00 F3 80 01  8A 20 02 29 00 F4 80 80  ......... .)....
1D00: 0A 1D 03 15 00 F5 80 01  8A 20 02 29 00 F6 80 80  ......... .)....
1D10: 1A 1D 03 15 00 F7 80 01  8A 20 02 29 00 F8 80 80  ......... .)....
1D20: 2A 1D 03 15 00 F9 80 01  8A 20 02 29 00 FA 80 80  *........ .)....
1D30: 3A 1D 03 15 00 FB 80 01  8A 20 02 29 00 FC 80 80  :........ .)....
1D40: 4A 1D 03 15 00 FD 80 01  8A 20 02 29 00 FE 80 80  J........ .)....
1D50: 5A 1D 03 15 00 FF 80 01  8A 20 02 29 00 00 81 80  Z........ .)....
1D60: 6A 1D 03 15 00 01 81 01  8A 20 02 29 00 02 81 80  j........ .)....
1D70: 7A 1D 03 15 00 03 81 01  8A 20 02 29 00 04 81 80  z........ .)....
1D80: 8A 1D 03 15 00 05 81 01  8A 20 02 29 00 06 81 80  ......... .)....
1D90: 9A 1D 03 15 00 07 81 01  8A 20 02 29 00 08 81 80  ......... .)....
1DA0: AA 1D 03 15 00 09 81 01  8A 20 02 29 00 0A 81 80  ......... .)....
1DB0: BA 1D 03 15 00 0B 81 01  8A 20 02 29 00 0C 81 80  ......... .)....
1DC0: CA 1D 03 15 00 0D 81 01  8A 20 02 29 00 0E 81 80  ......... .)....
1DD0: DA 1D 03 15 00 0F 81 01  8A 20 02 29 00 10 81 80  ......... .)....
1DE0: EA 1D 03 15 00 11 81 01  8A 20 02 29 00 12 81 80  ......... .)....
1DF0: FA 1D 03 15 00 13 81 01  8A 20 02 29 00 14 81 80  ......... .)....
1E00: 0A 1E 03 15 00 15 81 01  8A 20 02 29 00 16 81 80  ......... .)....
1E10: 1A 1E 03 15 00 17 81 01  8A 20 02 29 00 18 81 80  ......... .)....
1E20: 2A 1E 03 15 00 19 81 01  8A 20 02 29 00 1A 81 80  *........ .)....
1E30: 3A 1E 03 15 00 1B 81 01  8A 20 02 29 00 1C 81 80  :........ .)....
1E40: 4A 1E 03 15 00 1D 81 01  8A 20 02 29 00 1E 81 80  J........ .)....
1E50: 5A 1E 03 15 00 1F 81 01  8A 20 02 29 00 20 81 80  Z........ .). ..
1E60: 6A 1E 03 15 00 21 81 01  8A 20 02 29 00 22 81 80  j....!... .)."..
1E70: 7A 1E 03 15 00 23 81 01  8A 20 02 29 00 24 81 80  z....#... .).$..
1E80: 8A 1E 03 15 00 25 81 01  8A 20 02 29 00 26 81 80  .....%... .).&..
1E90: 9A 1E 03 15 00 27 81 01  8A 20 02 29 00 28 81 80  .....'... .).(..
1EA0: AA 1E 03 15 00 29 81 01  8A 20 02 29 00 2A 81 80  .....)... .).*..
1EB0: BA 1E 03 15 00 2B 81 01  8A 20 02 29 00 2C 81 80  .....+... .).,..
1EC0: CA 1E 03 15 00 2D 81 01  8A 20 02 29 00 2E 81 80  .....-... .)....
1ED0: DA 1E 03 15 00 2F 81 01  8A 20 02 29 00 30 81 80  ...../... .).0..
1EE0: EA 1E 03 15 00 31 81 01  8A 20 02 29 00 32 81 80  .....1... .).2..
1EF0: FA 1E 03 15 00 33 81 01  8A 20 02 29 00 34 81 80  .....3... .).4..
1F00: 0A 1F 03 15 00 35 81 01  8A 20 02 29 00 36 81 80  .....5... .).6..
1F10: 1A 1F 03 15 00 37 81 01  8A 20 02 29 00 38 81 80  .....7... .).8..
1F20: 2A 1F 03 15 00 39 81 01  8A 20 02 29 00 3A 81 80  *....9... .).:..
1F30: 3A 1F 03 15 00 3B 81 01  8A 20 02 29 00 3C 81 80  :....;... .).<..
1F40: 4A 1F 03 15 00 3D 81 01  8A 20 02 29 00 3E 81 80  J....=... .).>..
1F50: 5A 1F 03 15 00 3F 81 01  8A 20 02 29 00 40 81 80  Z....?... .).@..
1F60: 6A 1F 03 15 00 41 81 01  8A 20 02 29 00 42 81 80  j....A... .).B..
1F70: 7A 1F 03 15 00 43 81 01  8A 20 02 29 00 44 81 80  z....C... .).D..
1F80: 8A 1F 03 15 00 45 81 01  8A 20 02 29 00 46 81 80  .....E... .).F..
1F90: 9A 1F 03 15 00 47 81 01  8A 20 02 29 00 48 81 80  .....G... .).H..
1FA0: AA 1F 03 15 00 49 81 01  8A 20 02 29 00 4A 81 80  .....I... .).J..
1FB0: BA 1F 03 15 00 4B 81 01  8A 20 02 29 00 4C 81 80  .....K... .).L..
1FC0: CA 1F 03 15 00 4D 81 01  8A 20 02 29 00 4E 81 80  .....M... .).N..
1FD0: DA 1F 03 15 00 4F 81 01  8A 20 02 29 00 50 81 80  .....O... .).P..
1FE0: EA 1F 03 15 00 51 81 01  8A 20 02 29 00 52 81 80  .....Q... .).R..
1FF0: FA 1F 03 15 00 53 81 01  8A 20 02 29 00 54 81 80  .....S... .).T..
2000: 0A 20 03 15 00 55 81 01  8A 20 02 29 00 56 81 80  . ...U... .).V..
2010: 1A 20 03 15 00 57 81 01  8A 20 02 29 00 58 81 80  . ...W... .).X..
2020: 2A 20 03 15 00 59 81 01  8A 20 02 29 00 5A 81 80  * ...Y... .).Z..
2030: 3A 20 03 15 00 5B 81 01  8A 20 02 29 00 5C 81 80  : ...[... .).\..
2040: 4A 20 03 15 00 5D 81 01  8A 20 02 29 00 5E 81 80  J ...]... .).^..
2050: 5A 20 03 15 00 5F 81 01  8A 20 02 29 00 60 81 80  Z ..._... .).`..
2060: 6A 20 03 15 00 61 81 01  8A 20 02 29 00 62 81 80  j ...a... .).b..
2070: 7A 20 03 15 00 63 81 01  8A 20 02 29 00 64 81 80  z ...c... .).d..
2080: 8A 20 03 15 00 65 81 01  8A 20 1B 02 29 00 09 80  . ...e... ..)...
2090: 80 9B 20 03 29 00 44 80  01 9B 29 02 29 00 0A 80  .. .).D...).)...
20A0: 80 AB 20 03 29 00 46 80  01 9B 29 02 29 00 0B 80  .. .).F...).)...
20B0: 80 BB 20 03 29 00 48 80  01 9B 29 02 29 00 08 80  .. .).H...).)...
20C0: 80 CB 20 03 29 00 4A 80  01 9B 29 02 29 00 0C 80  .. .).J...).)...
20D0: 80 DB 20 03 29 00 4C 80  01 9B 29 02 29 00 0D 80  .. .).L...).)...
20E0: 80 EB 20 03 29 00 4E 80  01 9B 29 02 29 00 01 80  .. .).N...).)...
20F0: 80 FB 20 03 29 00 50 80  01 9B 29 02 29 00 02 80  .. .).P...).)...
2100: 80 0B 21 03 29 00 52 80  01 9B 29 02 29 00 1E 80  ..!.).R...).)...
2110: 80 1B 21 03 29 00 54 80  01 9B 29 02 29 00 1F 80  ..!.).T...).)...
2120: 80 2B 21 03 29 00 56 80  01 9B 29 02 29 00 21 80  .+!.).V...).).!.
2130: 80 3B 21 03 29 00 58 80  01 9B 29 02 29 00 22 80  .;!.).X...).).".
2140: 80 4B 21 03 29 00 5A 80  01 9B 29 02 29 00 36 80  .K!.).Z...).).6.
2150: 80 5B 21 03 29 00 5C 80  01 9B 29 02 29 00 37 80  .[!.).\...).).7.
2160: 80 6B 21 03 29 00 5E 80  01 9B 29 02 29 00 03 80  .k!.).^...).)...
2170: 80 7B 21 03 29 00 60 80  01 9B 29 02 29 00 04 80  .{!.).`...).)...
2180: 80 8B 21 03 29 00 62 80  01 9B 29 02 29 00 38 80  ..!.).b...).).8.
2190: 80 9B 21 03 29 00 64 80  01 9B 29 02 29 00 39 80  ..!.).d...).).9.
21A0: 80 AB 21 03 29 00 66 80  01 9B 29 02 29 00 3A 80  ..!.).f...).).:.
21B0: 80 BB 21 03 29 00 68 80  01 9B 29 02 29 00 3B 80  ..!.).h...).).;.
21C0: 80 CB 21 03 29 00 6A 80  01 9B 29 02 29 00 3C 80  ..!.).j...).).<.
21D0: 80 DB 21 03 29 00 6C 80  01 9B 29 02 29 00 3D 80  ..!.).l...).).=.
21E0: 80 EB 21 03 29 00 6E 80  01 9B 29 02 29 00 05 80  ..!.).n...).)...
21F0: 80 FB 21 03 29 00 70 80  01 9B 29 02 29 00 06 80  ..!.).p...).)...
2200: 80 0B 22 03 29 00 72 80  01 9B 29 02 29 00 3E 80  ..".).r...).).>.
2210: 80 1B 22 03 29 00 74 80  01 9B 29 02 29 00 3F 80  ..".).t...).).?.
2220: 80 2B 22 03 29 00 76 80  01 9B 29 02 29 00 40 80  .+".).v...).).@.
2230: 80 3B 22 03 29 00 78 80  01 9B 29 02 29 00 41 80  .;".).x...).).A.
2240: 80 4B 22 03 29 00 7A 80  01 9B 29 02 29 00 42 80  .K".).z...).).B.
2250: 80 5B 22 03 29 00 7C 80  01 9B 29 02 29 00 43 80  .[".).|...).).C.
2260: 80 6B 22 03 29 00 7E 80  01 9B 29 02 29 00 07 80  .k".).~...).)...
2270: 80 7B 22 03 29 00 80 80  01 9B 29 02 29 00 66 81  .{".).....).).f.
2280: 80 8B 22 03 29 00 82 80  01 9B 29 02 29 00 67 81  ..".).....).).g.
2290: 80 9B 22 03 29 00 84 80  01 9B 29 02 29 00 68 81  ..".).....).).h.
22A0: 80 AB 22 03 29 00 86 80  01 9B 29 02 29 00 69 81  ..".).....).).i.
22B0: 80 BB 22 03 29 00 88 80  01 9B 29 02 29 00 6A 81  ..".).....).).j.
22C0: 80 CB 22 03 29 00 8A 80  01 9B 29 02 29 00 6B 81  ..".).....).).k.
22D0: 80 DB 22 03 29 00 8C 80  01 9B 29 02 29 00 6C 81  ..".).....).).l.
22E0: 80 EB 22 03 29 00 8E 80  01 9B 29 02 29 00 6D 81  ..".).....).).m.
22F0: 80 FB 22 03 29 00 90 80  01 9B 29 02 29 00 6E 81  ..".).....).).n.
2300: 80 0B 23 03 29 00 92 80  01 9B 29 02 29 00 6F 81  ..#.).....).).o.
2310: 80 1B 23 03 29 00 94 80  01 9B 29 02 29 00 70 81  ..#.).....).).p.
2320: 80 2B 23 03 29 00 96 80  01 9B 29 02 29 00 71 81  .+#.).....).).q.
2330: 80 3B 23 03 29 00 98 80  01 9B 29 02 29 00 72 81  .;#.).....).).r.
2340: 80 4B 23 03 29 00 9A 80  01 9B 29 02 29 00 73 81  .K#.).....).).s.
2350: 80 5B 23 03 29 00 9C 80  01 9B 29 02 29 00 74 81  .[#.).....).).t.
2360: 80 6B 23 03 29 00 9E 80  01 9B 29 02 29 00 75 81  .k#.).....).).u.
2370: 80 7B 23 03 29 00 A0 80  01 9B 29 02 29 00 76 81  .{#.).....).).v.
2380: 80 8B 23 03 29 00 A2 80  01 9B 29 02 29 00 77 81  ..#.).....).).w.
2390: 80 9B 23 03 29 00 A4 80  01 9B 29 02 29 00 78 81  ..#.).....).).x.
23A0: 80 AB 23 03 29 00 A6 80  01 9B 29 02 29 00 79 81  ..#.).....).).y.
23B0: 80 BB 23 03 29 00 A8 80  01 9B 29 02 29 00 7A 81  ..#.).....).).z.
23C0: 80 CB 23 03 29 00 AA 80  01 9B 29 02 29 00 7B 81  ..#.).....).).{.
23D0: 80 DB 23 03 29 00 AC 80  01 9B 29 02 29 00 7C 81  ..#.).....).).|.
23E0: 80 EB 23 03 29 00 AE 80  01 9B 29 02 29 00 7D 81  ..#.).....).).}.
23F0: 80 FB 23 03 29 00 B0 80  01 9B 29 02 29 00 7E 81  ..#.).....).).~.
2400: 80 0B 24 03 29 00 B2 80  01 9B 29 02 29 00 7F 81  ..$.).....).)...
2410: 80 1B 24 03 29 00 B4 80  01 9B 29 02 29 00 80 81  ..$.).....).)...
2420: 80 2B 24 03 29 00 B6 80  01 9B 29 02 29 00 81 81  .+$.).....).)...
2430: 80 3B 24 03 29 00 B8 80  01 9B 29 02 29 00 82 81  .;$.).....).)...
2440: 80 4B 24 03 29 00 BA 80  01 9B 29 02 29 00 83 81  .K$.).....).)...
2450: 80 5B 24 03 29 00 BC 80  01 9B 29 02 29 00 84 81  .[$.).....).)...
2460: 80 6B 24 03 29 00 BE 80  01 9B 29 02 29 00 85 81  .k$.).....).)...
2470: 80 7B 24 03 29 00 C0 80  01 9B 29 02 29 00 86 81  .{$.).....).)...
2480: 80 8B 24 03 29 00 C2 80  01 9B 29 02 29 00 87 81  ..$.).....).)...
2490: 80 9B 24 03 29 00 C4 80  01 9B 29 02 29 00 88 81  ..$.).....).)...
24A0: 80 AB 24 03 29 00 C6 80  01 9B 29 02 29 00 89 81  ..$.).....).)...
24B0: 80 BB 24 03 29 00 C8 80  01 9B 29 02 29 00 8A 81  ..$.).....).)...
24C0: 80 CB 24 03 29 00 CA 80  01 9B 29 02 29 00 8B 81  ..$.).....).)...
24D0: 80 DB 24 03 29 00 CC 80  01 9B 29 02 29 00 8C 81  ..$.).....).)...
24E0: 80 EB 24 03 29 00 CE 80  01 9B 29 02 29 00 8D 81  ..$.).....).)...
24F0: 80 FB 24 03 29 00 D0 80  01 9B 29 02 29 00 8E 81  ..$.).....).)...
2500: 80 0B 25 03 29 00 D2 80  01 9B 29 02 29 00 8F 81  ..%.).....).)...
2510: 80 1B 25 03 29 00 D4 80  01 9B 29 02 29 00 90 81  ..%.).....).)...
2520: 80 2B 25 03 29 00 D6 80  01 9B 29 02 29 00 91 81  .+%.).....).)...
2530: 80 3B 25 03 29 00 D8 80  01 9B 29 02 29 00 92 81  .;%.).....).)...
2540: 80 4B 25 03 29 00 DA 80  01 9B 29 02 29 00 93 81  .K%.).....).)...
2550: 80 5B 25 03 29 00 DC 80  01 9B 29 02 29 00 94 81  .[%.).....).)...
2560: 80 6B 25 03 29 00 DE 80  01 9B 29 02 29 00 95 81  .k%.).....).)...
2570: 80 7B 25 03 29 00 E0 80  01 9B 29 02 29 00 96 81  .{%.).....).)...
2580: 80 8B 25 03 29 00 E2 80  01 9B 29 02 29 00 97 81  ..%.).....).)...
2590: 80 9B 25 03 29 00 E4 80  01 9B 29 02 29 00 98 81  ..%.).....).)...
25A0: 80 AB 25 03 29 00 E6 80  01 9B 29 02 29 00 99 81  ..%.).....).)...
25B0: 80 BB 25 03 29 00 E8 80  01 9B 29 02 29 00 9A 81  ..%.).....).)...
25C0: 80 CB 25 03 29 00 EA 80  01 9B 29 02 29 00 9B 81  ..%.).....).)...
25D0: 80 DB 25 03 29 00 EC 80  01 9B 29 02 29 00 9C 81  ..%.).....).)...
25E0: 80 EB 25 03 29 00 EE 80  01 9B 29 02 29 00 9D 81  ..%.).....).)...
25F0: 80 FB 25 03 29 00 F0 80  01 9B 29 02 29 00 9E 81  ..%.).....).)...
2600: 80 0B 26 03 29 00 F2 80  01 9B 29 02 29 00 9F 81  ..&.).....).)...
2610: 80 1B 26 03 29 00 F4 80  01 9B 29 02 29 00 A0 81  ..&.).....).)...
2620: 80 2B 26 03 29 00 F6 80  01 9B 29 02 29 00 A1 81  .+&.).....).)...
2630: 80 3B 26 03 29 00 F8 80  01 9B 29 02 29 00 A2 81  .;&.).....).)...
2640: 80 4B 26 03 29 00 FA 80  01 9B 29 02 29 00 A3 81  .K&.).....).)...
2650: 80 5B 26 03 29 00 FC 80  01 9B 29 02 29 00 A4 81  .[&.).....).)...
2660: 80 6B 26 03 29 00 FE 80  01 9B 29 02 29 00 A5 81  .k&.).....).)...
2670: 80 7B 26 03 29 00 00 81  01 9B 29 02 29 00 A6 81  .{&.).....).)...
2680: 80 8B 26 03 29 00 02 81  01 9B 29 02 29 00 A7 81  ..&.).....).)...
2690: 80 9B 26 03 29 00 04 81  01 9B 29 02 29 00 A8 81  ..&.).....).)...
26A0: 80 AB 26 03 29 00 06 81  01 9B 29 02 29 00 A9 81  ..&.).....).)...
26B0: 80 BB 26 03 29 00 08 81  01 9B 29 02 29 00 23 80  ..&.).....).).#.
26C0: 80 CB 26 03 29 00 0A 81  01 9B 29 02 29 00 AA 81  ..&.).....).)...
26D0: 80 DB 26 03 29 00 0C 81  01 9B 29 02 29 00 AB 81  ..&.).....).)...
26E0: 80 EB 26 03 29 00 0E 81  01 9B 29 02 29 00 AC 81  ..&.).....).)...
26F0: 80 FB 26 03 29 00 10 81  01 9B 29 02 29 00 AD 81  ..&.).....).)...
2700: 80 0B 27 03 29 00 12 81  01 9B 29 02 29 00 AE 81  ..'.).....).)...
2710: 80 1B 27 03 29 00 14 81  01 9B 29 02 29 00 AF 81  ..'.).....).)...
2720: 80 2B 27 03 29 00 16 81  01 9B 29 02 29 00 B0 81  .+'.).....).)...
2730: 80 3B 27 03 29 00 18 81  01 9B 29 02 29 00 B1 81  .;'.).....).)...
2740: 80 4B 27 03 29 00 1A 81  01 9B 29 02 29 00 B2 81  .K'.).....).)...
2750: 80 5B 27 03 29 00 1C 81  01 9B 29 02 29 00 B3 81  .['.).....).)...
2760: 80 6B 27 03 29 00 1E 81  01 9B 29 02 29 00 B4 81  .k'.).....).)...
2770: 80 7B 27 03 29 00 20 81  01 9B 29 02 29 00 B5 81  .{'.). ...).)...
2780: 80 8B 27 03 29 00 22 81  01 9B 29 02 29 00 B6 81  ..'.)."...).)...
2790: 80 9B 27 03 29 00 24 81  01 9B 29 02 29 00 B7 81  ..'.).$...).)...
27A0: 80 AB 27 03 29 00 26 81  01 9B 29 02 29 00 B8 81  ..'.).&...).)...
27B0: 80 BB 27 03 29 00 28 81  01 9B 29 02 29 00 B9 81  ..'.).(...).)...
27C0: 80 CB 27 03 29 00 2A 81  01 9B 29 02 29 00 BA 81  ..'.).*...).)...
27D0: 80 DB 27 03 29 00 2C 81  01 9B 29 02 29 00 BB 81  ..'.).,...).)...
27E0: 80 EB 27 03 29 00 2E 81  01 9B 29 02 29 00 BC 81  ..'.).....).)...
27F0: 80 FB 27 03 29 00 30 81  01 9B 29 02 29 00 BD 81  ..'.).0...).)...
2800: 80 0B 28 03 29 00 32 81  01 9B 29 02 29 00 BE 81  ..(.).2...).)...
2810: 80 1B 28 03 29 00 34 81  01 9B 29 02 29 00 BF 81  ..(.).4...).)...
2820: 80 2B 28 03 29 00 36 81  01 9B 29 02 29 00 C0 81  .+(.).6...).)...
2830: 80 3B 28 03 29 00 38 81  01 9B 29 02 29 00 C1 81  .;(.).8...).)...
2840: 80 4B 28 03 29 00 3A 81  01 9B 29 02 29 00 C2 81  .K(.).:...).)...
2850: 80 5B 28 03 29 00 3C 81  01 9B 29 02 29 00 C3 81  .[(.).<...).)...
2860: 80 6B 28 03 29 00 3E 81  01 9B 29 02 29 00 C4 81  .k(.).>...).)...
2870: 80 7B 28 03 29 00 40 81  01 9B 29 02 29 00 C5 81  .{(.).@...).)...
2880: 80 8B 28 03 29 00 42 81  01 9B 29 02 29 00 C6 81  ..(.).B...).)...
2890: 80 9B 28 03 29 00 44 81  01 9B 29 02 29 00 C7 81  ..(.).D...).)...
28A0: 80 AB 28 03 29 00 46 81  01 9B 29 02 29 00 C8 81  ..(.).F...).)...
28B0: 80 BB 28 03 29 00 48 81  01 9B 29 02 29 00 C9 81  ..(.).H...).)...
28C0: 80 CB 28 03 29 00 4A 81  01 9B 29 02 29 00 CA 81  ..(.).J...).)...
28D0: 80 DB 28 03 29 00 4C 81  01 9B 29 02 29 00 CB 81  ..(.).L...).)...
28E0: 80 EB 28 03 29 00 4E 81  01 9B 29 02 29 00 CC 81  ..(.).N...).)...
28F0: 80 FB 28 03 29 00 50 81  01 9B 29 02 29 00 CD 81  ..(.).P...).)...
2900: 80 0B 29 03 29 00 52 81  01 9B 29 02 29 00 CE 81  ..).).R...).)...
2910: 80 1B 29 03 29 00 54 81  01 9B 29 02 29 00 CF 81  ..).).T...).)...
2920: 80 2B 29 03 29 00 56 81  01 9B 29 02 29 00 D0 81  .+).).V...).)...
2930: 80 3B 29 03 29 00 58 81  01 9B 29 02 29 00 D1 81  .;).).X...).)...
2940: 80 4B 29 03 29 00 5A 81  01 9B 29 02 29 00 D2 81  .K).).Z...).)...
2950: 80 5B 29 03 29 00 5C 81  01 9B 29 02 29 00 D3 81  .[).).\...).)...
2960: 80 6B 29 03 29 00 5E 81  01 9B 29 02 29 00 D4 81  .k).).^...).)...
2970: 80 7B 29 03 29 00 60 81  01 9B 29 02 29 00 D5 81  .{).).`...).)...
2980: 80 8B 29 03 29 00 62 81  01 9B 29 02 29 00 D6 81  ..).).b...).)...
2990: 80 9B 29 03 29 00 64 81  01 9B 29 1B 03 2E 00 00  ..).).d...).....
29A0: 80 03 2F 00 00 80 03 30  00 00 80 03 31 00 00 80  ../....0....1...
29B0: 03 32 00 00 80 03 33 00  00 80 03 34 00 00 80 03  .2....3....4....
29C0: 35 00 00 80 03 36 00 00  80 03 37 00 00 80 03 38  5....6....7....8
29D0: 00 00 80 03 39 00 00 80  03 3A 00 00 80 03 3B 00  ....9....:....;.
29E0: 00 80 03 3C 00 00 80 03  3D 00 00 80 03 3E 00 00  ...<....=....>..
29F0: 80 03 3F 00 00 80 03 40  00 00 80 03 41 00 00 80  ..?....@....A...
2A00: 03 2D 00 0C 00 14 2D 00  1F 80 03 2B 00 00 80 03  .-....-....+....
2A10: 2C 00 00 80 03 2A 00 00  80 03 43 00 00 80 02 2A  ,....*....C....*
2A20: 00 D6 81 03 AD 2B 02 2A  00 C9 81 04 40 2A 03 42  .....+.*....@*.B
2A30: 00 09 00 03 43 00 2A 00  08 43 00 C9 81 01 BA 2A  ....C.*..C.....*
2A40: 02 2A 00 23 80 04 5A 2A  03 42 00 08 00 03 43 00  .*.#..Z*.B....C.
2A50: 2A 00 08 43 00 23 80 01  BA 2A 02 2A 00 A6 81 04  *..C.#...*.*....
2A60: 74 2A 03 42 00 07 00 03  43 00 2A 00 08 43 00 A6  t*.B....C.*..C..
2A70: 81 01 BA 2A 02 2A 00 86  81 04 8E 2A 03 42 00 06  ...*.*.....*.B..
2A80: 00 03 43 00 2A 00 08 43  00 86 81 01 BA 2A 02 2A  ..C.*..C.....*.*
2A90: 00 66 81 04 A8 2A 03 42  00 05 00 03 43 00 2A 00  .f...*.B....C.*.
2AA0: 08 43 00 66 81 01 BA 2A  02 2A 00 00 80 04 BA 2A  .C.f...*.*.....*
2AB0: 03 42 00 04 00 03 43 00  2A 00 3E 42 00 43 00 A7  .B....C.*.>B.C..
2AC0: 2B 02 2B 00 2D 00 04 97  2B 02 2C 00 00 80 80 DC  +.+.-...+.,.....
2AD0: 2A 03 2E 00 2A 00 0B 2E  00 01 87 2B 02 2C 00 09  *...*......+.,..
2AE0: 80 80 EF 2A 03 2F 00 2A  00 0B 2F 00 01 87 2B 02  ...*./.*../...+.
2AF0: 2C 00 0A 80 80 02 2B 03  30 00 2A 00 0B 30 00 01  ,.....+.0.*..0..
2B00: 87 2B 02 2C 00 0B 80 80  15 2B 03 31 00 2A 00 0B  .+.,.....+.1.*..
2B10: 31 00 01 87 2B 02 2C 00  08 80 80 28 2B 03 32 00  1...+.,....(+.2.
2B20: 2A 00 0B 32 00 01 87 2B  02 2C 00 0C 80 80 3B 2B  *..2...+.,....;+
2B30: 03 33 00 2A 00 0B 33 00  01 87 2B 02 2C 00 0D 80  .3.*..3...+.,...
2B40: 80 4E 2B 03 34 00 2A 00  0B 34 00 01 87 2B 02 2C  .N+.4.*..4...+.,
2B50: 00 01 80 80 61 2B 03 35  00 2A 00 0B 35 00 01 87  ....a+.5.*..5...
2B60: 2B 02 2C 00 02 80 80 74  2B 03 36 00 2A 00 0B 36  +.,....t+.6.*..6
2B70: 00 01 87 2B 02 2C 00 1E  80 80 87 2B 03 37 00 2A  ...+.,.....+.7.*
2B80: 00 0B 37 00 01 87 2B 0B  2C 00 02 2C 00 1F 80 04  ..7...+.,..,....
2B90: 97 2B 03 2A 00 D6 81 0B  2B 00 02 2B 00 0B 00 04  .+.*....+..+....
2BA0: A7 2B 03 2A 00 D6 81 0B  2A 00 01 1E 2A 02 2E 00  .+.*....*...*...
2BB0: 00 80 00 BF 2B 3C 14 00  09 80 09 80 01 CC 2B 03  ....+<........+.
2BC0: 29 00 2E 00 1A 8B 20 03  38 00 29 00 02 2F 00 00  )..... .8.)../..
2BD0: 80 00 DE 2B 3C 14 00 0A  80 09 80 01 EB 2B 03 29  ...+<........+.)
2BE0: 00 2F 00 1A 8B 20 03 39  00 29 00 02 30 00 00 80  ./... .9.)..0...
2BF0: 00 FD 2B 3C 14 00 0B 80  09 80 01 0A 2C 03 29 00  ..+<........,.).
2C00: 30 00 1A 8B 20 03 3A 00  29 00 02 31 00 00 80 00  0... .:.)..1....
2C10: 1C 2C 3C 14 00 08 80 09  80 01 29 2C 03 29 00 31  .,<.......),.).1
2C20: 00 1A 8B 20 03 3B 00 29  00 02 32 00 00 80 00 3B  ... .;.)..2....;
2C30: 2C 3C 14 00 0C 80 09 80  01 48 2C 03 29 00 32 00  ,<.......H,.).2.
2C40: 1A 8B 20 03 3C 00 29 00  02 33 00 00 80 00 5A 2C  .. .<.)..3....Z,
2C50: 3C 14 00 0D 80 09 80 01  67 2C 03 29 00 33 00 1A  <.......g,.).3..
2C60: 8B 20 03 3D 00 29 00 02  34 00 00 80 00 79 2C 3C  . .=.)..4....y,<
2C70: 14 00 01 80 09 80 01 86  2C 03 29 00 34 00 1A 8B  ........,.).4...
2C80: 20 03 3E 00 29 00 02 35  00 00 80 00 98 2C 3C 14   .>.)..5.....,<.
2C90: 00 02 80 09 80 01 A5 2C  03 29 00 35 00 1A 8B 20  .......,.).5... 
2CA0: 03 3F 00 29 00 02 36 00  00 80 00 B7 2C 3C 14 00  .?.)..6.....,<..
2CB0: 1E 80 09 80 01 C4 2C 03  29 00 36 00 1A 8B 20 03  ......,.).6... .
2CC0: 40 00 29 00 02 37 00 00  80 00 D6 2C 3C 14 00 1F  @.)..7.....,<...
2CD0: 80 09 80 01 E3 2C 03 29  00 37 00 1A 8B 20 03 41  .....,.).7... .A
2CE0: 00 29 00 02 0C 00 00 80  00 F2 2C 3C 14 00 21 80  .)........,<..!.
2CF0: 09 80 02 2B 00 0B 00 04  01 2D 3C 14 00 22 80 09  ...+.....-<.."..
2D00: 80 1B                                             ..              
```

#### Opcodes

```
  0: 0x0001 [0x20] SET_CLI_EVENT_UC_FLAG: Lock player control
  1: 0x0003 [0x03] ExtData[1]->WorkLocal[0] = 0*
  2: 0x0008 [0x03] ExtData[1]->WorkLocal[1] = 0*
  3: 0x000D [0x03] ExtData[1]->WorkLocal[2] = 0*
  4: 0x0012 [0x03] ExtData[1]->WorkLocal[3] = 0*
  5: 0x0017 [0x03] ExtData[1]->WorkLocal[4] = 0*
  6: 0x001C [0x03] ExtData[1]->WorkLocal[5] = 0*
  7: 0x0021 [0x03] ExtData[1]->WorkLocal[6] = 0*
  8: 0x0026 [0x03] ExtData[1]->WorkLocal[7] = 0*
  9: 0x002B [0x03] ExtData[1]->WorkLocal[8] = 0*
 10: 0x0030 [0x03] ExtData[1]->WorkLocal[9] = 0*
 11: 0x0035 [0x03] ExtData[1]->WorkLocal[10] = 0*
 12: 0x003A [0x03] ExtData[1]->WorkLocal[11] = 0*
 13: 0x003F [0x03] ExtData[1]->WorkLocal[12] = 0*
 14: 0x0044 [0x03] ExtData[1]->WorkLocal[13] = 0*
 15: 0x0049 [0x03] ExtData[1]->WorkLocal[14] = 0*
 16: 0x004E [0x03] ExtData[1]->WorkLocal[15] = 0*
 17: 0x0053 [0x03] ExtData[1]->WorkLocal[16] = 0*
 18: 0x0058 [0x03] ExtData[1]->WorkLocal[17] = 0*
 19: 0x005D [0x03] ExtData[1]->WorkLocal[19] = 0*
 20: 0x0062 [0x03] ExtData[1]->WorkLocal[20] = 0*
 21: 0x0067 [0x03] ExtData[1]->WorkLocal[21] = 0*
 22: 0x006C [0x03] ExtData[1]->WorkLocal[22] = 0*
 23: 0x0071 [0x03] ExtData[1]->WorkLocal[23] = 0*
 24: 0x0076 [0x03] ExtData[1]->WorkLocal[24] = 0*
 25: 0x007B [0x03] ExtData[1]->WorkLocal[25] = 0*
 26: 0x0080 [0x03] ExtData[1]->WorkLocal[26] = 0*
 27: 0x0085 [0x03] ExtData[1]->WorkLocal[27] = 0*
 28: 0x008A [0x03] ExtData[1]->WorkLocal[28] = 0*
 29: 0x008F [0x03] ExtData[1]->WorkLocal[29] = 0*
 30: 0x0094 [0x03] ExtData[1]->WorkLocal[30] = 0*
 31: 0x0099 [0x03] ExtData[1]->WorkLocal[31] = 0*
 32: 0x009E [0x03] ExtData[1]->WorkLocal[32] = 0*
 33: 0x00A3 [0x03] ExtData[1]->WorkLocal[33] = 0*
 34: 0x00A8 [0x03] ExtData[1]->WorkLocal[34] = 0*
 35: 0x00AD [0x03] ExtData[1]->WorkLocal[35] = 0*
 36: 0x00B2 [0x03] ExtData[1]->WorkLocal[36] = 0*
 37: 0x00B7 [0x03] ExtData[1]->WorkLocal[37] = 0*
 38: 0x00BC [0x03] ExtData[1]->WorkLocal[38] = 0*
 39: 0x00C1 [0x03] ExtData[1]->WorkLocal[39] = 0*
 40: 0x00C6 [0x03] ExtData[1]->WorkLocal[40] = 0*
 41: 0x00CB [0x03] ExtData[1]->WorkLocal[0] = Work_Zone[2]
 42: 0x00D0 [0x41] ExtData[1]->WorkLocal[1] = Work_Zone[3] (bits 0*-7*)
 43: 0x00D9 [0x03] ExtData[1]->WorkLocal[41] = ExtData[1]->WorkLocal[1]
 44: 0x00DE [0x1A] CALL_SUBROUTINE(address=0x208B)
 45: 0x00E1 [0x03] ExtData[1]->WorkLocal[1] = ExtData[1]->WorkLocal[41]
 46: 0x00E6 [0x41] ExtData[1]->WorkLocal[2] = Work_Zone[3] (bits 8*-15*)
 47: 0x00EF [0x03] ExtData[1]->WorkLocal[41] = ExtData[1]->WorkLocal[2]
 48: 0x00F4 [0x1A] CALL_SUBROUTINE(address=0x208B)
 49: 0x00F7 [0x03] ExtData[1]->WorkLocal[2] = ExtData[1]->WorkLocal[41]
 50: 0x00FC [0x41] ExtData[1]->WorkLocal[3] = Work_Zone[3] (bits 16*-23*)
 51: 0x0105 [0x03] ExtData[1]->WorkLocal[41] = ExtData[1]->WorkLocal[3]
 52: 0x010A [0x1A] CALL_SUBROUTINE(address=0x208B)
 53: 0x010D [0x03] ExtData[1]->WorkLocal[3] = ExtData[1]->WorkLocal[41]
 54: 0x0112 [0x41] ExtData[1]->WorkLocal[10] = Work_Zone[3] (bits 24*-31*)
 55: 0x011B [0x03] ExtData[1]->WorkLocal[4] = Work_Zone[4]
 56: 0x0120 [0x03] ExtData[1]->WorkLocal[5] = Work_Zone[5]
 57: 0x0125 [0x03] ExtData[1]->WorkLocal[6] = Work_Zone[6]
 58: 0x012A [0x03] ExtData[1]->WorkLocal[7] = Work_Zone[7]
 59: 0x012F [0x03] ExtData[1]->WorkLocal[8] = Work_Zone[8]
 60: 0x0134 [0x03] ExtData[1]->WorkLocal[9] = Work_Zone[9]
 61: 0x0139 [0x40] SET_BIT_WORK_RANGE(start_bit=0*, end_bit=15*, target=Work_Zone[1], source=4*)
 62: 0x0142 [0x43] SEND_EVENT_UPDATE: Send pending tag to server (packet 0x005B)
 63: 0x0144 [0x43] SEND_EVENT_UPDATE: Check pending flag (skip if not pending)
 64: 0x0146 [0x41] ExtData[1]->WorkLocal[22] = Work_Zone[2] (bits 0*-7*)
 65: 0x014F [0x03] ExtData[1]->WorkLocal[41] = ExtData[1]->WorkLocal[22]
 66: 0x0154 [0x1A] CALL_SUBROUTINE(address=0x208B)
 67: 0x0157 [0x03] ExtData[1]->WorkLocal[22] = ExtData[1]->WorkLocal[41]
 68: 0x015C [0x41] ExtData[1]->WorkLocal[23] = Work_Zone[2] (bits 8*-15*)
 69: 0x0165 [0x03] ExtData[1]->WorkLocal[41] = ExtData[1]->WorkLocal[23]
 70: 0x016A [0x1A] CALL_SUBROUTINE(address=0x208B)
 71: 0x016D [0x03] ExtData[1]->WorkLocal[23] = ExtData[1]->WorkLocal[41]
 72: 0x0172 [0x41] ExtData[1]->WorkLocal[24] = Work_Zone[2] (bits 16*-23*)
 73: 0x017B [0x03] ExtData[1]->WorkLocal[41] = ExtData[1]->WorkLocal[24]
 74: 0x0180 [0x1A] CALL_SUBROUTINE(address=0x208B)
 75: 0x0183 [0x03] ExtData[1]->WorkLocal[24] = ExtData[1]->WorkLocal[41]
 76: 0x0188 [0x41] ExtData[1]->WorkLocal[25] = Work_Zone[3] (bits 0*-7*)
 77: 0x0191 [0x41] ExtData[1]->WorkLocal[26] = Work_Zone[3] (bits 8*-15*)
 78: 0x019A [0x41] ExtData[1]->WorkLocal[27] = Work_Zone[3] (bits 16*-23*)
 79: 0x01A3 [0x41] ExtData[1]->WorkLocal[28] = Work_Zone[3] (bits 24*-31*)
 80: 0x01AC [0x41] ExtData[1]->WorkLocal[29] = Work_Zone[4] (bits 0*-7*)
 81: 0x01B5 [0x41] ExtData[1]->WorkLocal[30] = Work_Zone[4] (bits 8*-15*)
 82: 0x01BE [0x41] ExtData[1]->WorkLocal[31] = Work_Zone[4] (bits 16*-23*)
 83: 0x01C7 [0x41] ExtData[1]->WorkLocal[32] = Work_Zone[4] (bits 24*-31*)
 84: 0x01D0 [0x41] ExtData[1]->WorkLocal[33] = Work_Zone[5] (bits 0*-7*)
 85: 0x01D9 [0x41] ExtData[1]->WorkLocal[34] = Work_Zone[5] (bits 8*-15*)
 86: 0x01E2 [0x41] ExtData[1]->WorkLocal[35] = Work_Zone[5] (bits 16*-23*)
 87: 0x01EB [0x41] ExtData[1]->WorkLocal[36] = Work_Zone[5] (bits 24*-31*)
 88: 0x01F4 [0x03] ExtData[1]->WorkLocal[41] = ExtData[1]->WorkLocal[25]
 89: 0x01F9 [0x1A] CALL_SUBROUTINE(address=0x208B)
 90: 0x01FC [0x03] ExtData[1]->WorkLocal[25] = ExtData[1]->WorkLocal[41]
 91: 0x0201 [0x03] ExtData[1]->WorkLocal[41] = ExtData[1]->WorkLocal[26]
 92: 0x0206 [0x1A] CALL_SUBROUTINE(address=0x208B)
 93: 0x0209 [0x03] ExtData[1]->WorkLocal[26] = ExtData[1]->WorkLocal[41]
 94: 0x020E [0x03] ExtData[1]->WorkLocal[41] = ExtData[1]->WorkLocal[27]
 95: 0x0213 [0x1A] CALL_SUBROUTINE(address=0x208B)
 96: 0x0216 [0x03] ExtData[1]->WorkLocal[27] = ExtData[1]->WorkLocal[41]
 97: 0x021B [0x03] ExtData[1]->WorkLocal[41] = ExtData[1]->WorkLocal[28]
 98: 0x0220 [0x1A] CALL_SUBROUTINE(address=0x208B)
 99: 0x0223 [0x03] ExtData[1]->WorkLocal[28] = ExtData[1]->WorkLocal[41]
100: 0x0228 [0x03] ExtData[1]->WorkLocal[41] = ExtData[1]->WorkLocal[29]
101: 0x022D [0x1A] CALL_SUBROUTINE(address=0x208B)
102: 0x0230 [0x03] ExtData[1]->WorkLocal[29] = ExtData[1]->WorkLocal[41]
103: 0x0235 [0x03] ExtData[1]->WorkLocal[41] = ExtData[1]->WorkLocal[30]
104: 0x023A [0x1A] CALL_SUBROUTINE(address=0x208B)
105: 0x023D [0x03] ExtData[1]->WorkLocal[30] = ExtData[1]->WorkLocal[41]
106: 0x0242 [0x03] ExtData[1]->WorkLocal[41] = ExtData[1]->WorkLocal[31]
107: 0x0247 [0x1A] CALL_SUBROUTINE(address=0x208B)
108: 0x024A [0x03] ExtData[1]->WorkLocal[31] = ExtData[1]->WorkLocal[41]
109: 0x024F [0x03] ExtData[1]->WorkLocal[41] = ExtData[1]->WorkLocal[32]
110: 0x0254 [0x1A] CALL_SUBROUTINE(address=0x208B)
111: 0x0257 [0x03] ExtData[1]->WorkLocal[32] = ExtData[1]->WorkLocal[41]
112: 0x025C [0x03] ExtData[1]->WorkLocal[41] = ExtData[1]->WorkLocal[33]
113: 0x0261 [0x1A] CALL_SUBROUTINE(address=0x208B)
114: 0x0264 [0x03] ExtData[1]->WorkLocal[33] = ExtData[1]->WorkLocal[41]
115: 0x0269 [0x03] ExtData[1]->WorkLocal[41] = ExtData[1]->WorkLocal[34]
116: 0x026E [0x1A] CALL_SUBROUTINE(address=0x208B)
117: 0x0271 [0x03] ExtData[1]->WorkLocal[34] = ExtData[1]->WorkLocal[41]
118: 0x0276 [0x03] ExtData[1]->WorkLocal[41] = ExtData[1]->WorkLocal[35]
119: 0x027B [0x1A] CALL_SUBROUTINE(address=0x208B)
120: 0x027E [0x03] ExtData[1]->WorkLocal[35] = ExtData[1]->WorkLocal[41]
121: 0x0283 [0x03] ExtData[1]->WorkLocal[41] = ExtData[1]->WorkLocal[36]
122: 0x0288 [0x1A] CALL_SUBROUTINE(address=0x208B)
123: 0x028B [0x03] ExtData[1]->WorkLocal[36] = ExtData[1]->WorkLocal[41]
124: 0x0290 [0x03] Work_Zone[2] = 0*
125: 0x0295 [0x03] Work_Zone[3] = 0*
126: 0x029A [0x03] Work_Zone[4] = 0*
127: 0x029F [0x03] Work_Zone[5] = 0*
128: 0x02A4 [0x03] Work_Zone[6] = 0*
129: 0x02A9 [0x03] Work_Zone[7] = 0*
130: 0x02AE [0x03] Work_Zone[8] = 0*
131: 0x02B3 [0x03] Work_Zone[9] = 0*
132: 0x02B8 [0x02] IF !(ExtData[1]->WorkLocal[10] >= 1*) GOTO 0x02C7
133: 0x02C0 [0x3C] SET_BIT_FLAG_CONDITIONAL(target_work_offset=ExtData[1]->WorkLocal[19], bit_index_work_offset=2*, condition_work_offset=1*)
134: 0x02C7 [0x1A] CALL_SUBROUTINE(address=0x119C)
135: 0x02CA [0x02] IF !(ExtData[1]->WorkLocal[11] == 0*) GOTO 0x02D9
136: 0x02D2 [0x3C] SET_BIT_FLAG_CONDITIONAL(target_work_offset=ExtData[1]->WorkLocal[19], bit_index_work_offset=2*, condition_work_offset=1*)
137: 0x02D9 [0x03] ExtData[1]->WorkLocal[41] = 0*
138: 0x02DE [0x02] IF !(ExtData[1]->WorkLocal[1] == 0*) GOTO 0x02E9
139: 0x02E6 [0x0B] ExtData[1]->WorkLocal[41]++
140: 0x02E9 [0x02] IF !(ExtData[1]->WorkLocal[2] == 0*) GOTO 0x02F4
141: 0x02F1 [0x0B] ExtData[1]->WorkLocal[41]++
142: 0x02F4 [0x02] IF !(ExtData[1]->WorkLocal[3] == 0*) GOTO 0x02FF
143: 0x02FC [0x0B] ExtData[1]->WorkLocal[41]++
144: 0x02FF [0x02] IF !(ExtData[1]->WorkLocal[41] < ExtData[1]->WorkLocal[10]) GOTO 0x030E
145: 0x0307 [0x3C] SET_BIT_FLAG_CONDITIONAL(target_work_offset=ExtData[1]->WorkLocal[19], bit_index_work_offset=2*, condition_work_offset=1*)
146: 0x030E [0x02] IF !(ExtData[1]->WorkLocal[1] == 0*) GOTO 0x0334
147: 0x0316 [0x02] IF !(ExtData[1]->WorkLocal[2] == 0*) GOTO 0x0334
148: 0x031E [0x02] IF !(ExtData[1]->WorkLocal[3] == 0*) GOTO 0x0334
149: 0x0326 [0x3C] SET_BIT_FLAG_CONDITIONAL(target_work_offset=ExtData[1]->WorkLocal[19], bit_index_work_offset=3*, condition_work_offset=1*)
150: 0x032D [0x3C] SET_BIT_FLAG_CONDITIONAL(target_work_offset=ExtData[1]->WorkLocal[19], bit_index_work_offset=4*, condition_work_offset=1*)
151: 0x0334 [0x03] ExtData[1]->WorkLocal[41] = 0*
152: 0x0339 [0x02] IF !(ExtData[1]->WorkLocal[22] == 0*) GOTO 0x0349
153: 0x0341 [0x03] ExtData[1]->WorkLocal[41] = 1*
154: 0x0346 [0x01] GOTO 0x036E
155: 0x0349 [0x02] IF !(ExtData[1]->WorkLocal[23] == 0*) GOTO 0x0359
156: 0x0351 [0x03] ExtData[1]->WorkLocal[41] = 1*
157: 0x0356 [0x01] GOTO 0x036E
158: 0x0359 [0x02] IF !(ExtData[1]->WorkLocal[24] == 0*) GOTO 0x0369
159: 0x0361 [0x03] ExtData[1]->WorkLocal[41] = 1*
160: 0x0366 [0x01] GOTO 0x036E
161: 0x0369 [0x03] ExtData[1]->WorkLocal[41] = 0*

SUBROUTINE_036E:
162: 0x036E [0x02] IF !(ExtData[1]->WorkLocal[41] == 1*) GOTO 0x0393
163: 0x0376 [0x02] IF !(ExtData[1]->WorkLocal[1] == ExtData[1]->WorkLocal[22]) GOTO 0x0393
164: 0x037E [0x02] IF !(ExtData[1]->WorkLocal[2] == ExtData[1]->WorkLocal[23]) GOTO 0x0393
165: 0x0386 [0x02] IF !(ExtData[1]->WorkLocal[3] == ExtData[1]->WorkLocal[24]) GOTO 0x0393
166: 0x038E [0x03] ExtData[1]->WorkLocal[41] = 0*
167: 0x0393 [0x02] IF !(ExtData[1]->WorkLocal[41] == 0*) GOTO 0x03A2
168: 0x039B [0x3C] SET_BIT_FLAG_CONDITIONAL(target_work_offset=ExtData[1]->WorkLocal[19], bit_index_work_offset=5*, condition_work_offset=1*)
169: 0x03A2 [0x02] IF !(ExtData[1]->WorkLocal[25] == 0*) GOTO 0x0409
170: 0x03AA [0x02] IF !(ExtData[1]->WorkLocal[26] == 0*) GOTO 0x0409
171: 0x03B2 [0x02] IF !(ExtData[1]->WorkLocal[27] == 0*) GOTO 0x0409
172: 0x03BA [0x02] IF !(ExtData[1]->WorkLocal[28] == 0*) GOTO 0x0409
173: 0x03C2 [0x02] IF !(ExtData[1]->WorkLocal[29] == 0*) GOTO 0x0409
174: 0x03CA [0x02] IF !(ExtData[1]->WorkLocal[30] == 0*) GOTO 0x0409
175: 0x03D2 [0x02] IF !(ExtData[1]->WorkLocal[31] == 0*) GOTO 0x0409
176: 0x03DA [0x02] IF !(ExtData[1]->WorkLocal[32] == 0*) GOTO 0x0409
177: 0x03E2 [0x02] IF !(ExtData[1]->WorkLocal[33] == 0*) GOTO 0x0409
178: 0x03EA [0x02] IF !(ExtData[1]->WorkLocal[34] == 0*) GOTO 0x0409
179: 0x03F2 [0x02] IF !(ExtData[1]->WorkLocal[35] == 0*) GOTO 0x0409
180: 0x03FA [0x02] IF !(ExtData[1]->WorkLocal[36] == 0*) GOTO 0x0409
181: 0x0402 [0x3C] SET_BIT_FLAG_CONDITIONAL(target_work_offset=ExtData[1]->WorkLocal[19], bit_index_work_offset=6*, condition_work_offset=1*)
182: 0x0409 [0x03] Work_Zone[2] = 1439*
183: 0x040E [0x1D] PRINT_EVENT_MESSAGE(message_id=7430*)
     "Well met, wayfarer. I am an Atma Infusionist, and from my title I trust you can glean my field of expertise. Those who possess $6 may come to me to have atma infused."
184: 0x0411 [0x23] WAIT_FOR_DIALOG_INTERACTION
185: 0x0412 [0x05] ExtData[1]->WorkLocal[16] = 1

SUBROUTINE_0415:
186: 0x0415 [0x02] IF !(ExtData[1]->WorkLocal[16] <= 0*) GOTO 0x1199
187: 0x041D [0x03] ExtData[1]->WorkLocal[12] = 0*
188: 0x0422 [0x03] ExtData[1]->WorkLocal[20] = 0*
189: 0x0427 [0x24] CREATE_DIALOG(message_id=7431*, default_option=0*, option_flags=ExtData[1]->WorkLocal[19])
     "How might I serve you? [You may not./Tell me about atma./Infuse me with atma./Examine infused atma./Purge atma./Reinfuse previous atma set./Select from recent history.]"
190: 0x042E [0x25] WAIT_DIALOG_SELECT()
191: 0x042F [0x02] IF !(Work_Zone[0] == 0*) GOTO 0x0442
192: 0x0437 [0x03] Work_Zone[1] = 1073741824*
193: 0x043C [0x06] ExtData[1]->WorkLocal[16] = 0
194: 0x043F [0x01] GOTO 0x1196
195: 0x0442 [0x02] IF !(Work_Zone[0] == 1*) GOTO 0x0487
196: 0x044A [0x1D] PRINT_EVENT_MESSAGE(message_id=7432*)
     "Atma is most accurately described as the crystalline agglomeration of an Abyssean creature's soul. Through painstaking research, we infusionists have discovered a way to imbue ordinary people such as yourself with its power."
197: 0x044D [0x23] WAIT_FOR_DIALOG_INTERACTION
198: 0x044E [0x1D] PRINT_EVENT_MESSAGE(message_id=7433*)
     "Infusion makes possible the augmentation of individuals, granting them powers particular to the creature from which the atma is sourced."
199: 0x0451 [0x23] WAIT_FOR_DIALOG_INTERACTION
200: 0x0452 [0x03] Work_Zone[2] = 1439*
201: 0x0457 [0x1D] PRINT_EVENT_MESSAGE(message_id=7434*)
     "The infusion process requires three objects: an atma, $6, and cruor."
202: 0x045A [0x23] WAIT_FOR_DIALOG_INTERACTION
203: 0x045B [0x03] Work_Zone[2] = 1439*
204: 0x0460 [0x1D] PRINT_EVENT_MESSAGE(message_id=7435*)
     "6 is a rare variety of ancient abyssite that can only be procured with great difficulty. And it won't please you to know that atma is rarer still."
205: 0x0463 [0x23] WAIT_FOR_DIALOG_INTERACTION
206: 0x0464 [0x1D] PRINT_EVENT_MESSAGE(message_id=7436*)
     "For only the most savage creatures, you see, are known to yield atma. And if you thought that weren't trial enough, only by employing special combat strategies will atma be yours to own."
207: 0x0467 [0x23] WAIT_FOR_DIALOG_INTERACTION
208: 0x0468 [0x1D] PRINT_EVENT_MESSAGE(message_id=7437*)
     "Atma-yielding monsters are known to have vulnerabilities that, if exploited, may result in a swift end to the confrontation."
209: 0x046B [0x23] WAIT_FOR_DIALOG_INTERACTION
210: 0x046C [0x1D] PRINT_EVENT_MESSAGE(message_id=7438*)
     "Strike at a foe's weakness, and it will drop different spoils, often more valuable than usual. Among them you may find atma."
211: 0x046F [0x23] WAIT_FOR_DIALOG_INTERACTION
212: 0x0470 [0x1D] PRINT_EVENT_MESSAGE(message_id=7439*)
     "The vulnerabilities can broadly be divided into three categories: magic attacks, physical-based weapon skills, and magic-based weapon skills."
213: 0x0473 [0x23] WAIT_FOR_DIALOG_INTERACTION
214: 0x0474 [0x1D] PRINT_EVENT_MESSAGE(message_id=7440*)
     "For instance, there are monsters known to be weak against magic-based weapon skills. Inflicting such damage upon them will impair their movement, and you may consequently be rewarded with atma."
215: 0x0477 [0x23] WAIT_FOR_DIALOG_INTERACTION
216: 0x0478 [0x1D] PRINT_EVENT_MESSAGE(message_id=7441*)
     "All living creatures, however, possess the capacity to adapt, and vulnerabilities have been observed to change. Be wary if you wish not to discover to your sorrow that a once-foolproof strategy no longer applies."
217: 0x047B [0x23] WAIT_FOR_DIALOG_INTERACTION
218: 0x047C [0x1D] PRINT_EVENT_MESSAGE(message_id=7442*)
     "Besting such fell creatures is in itself a harrowing task, and becomes even more so if procuring atma is your objective."
219: 0x047F [0x23] WAIT_FOR_DIALOG_INTERACTION
220: 0x0480 [0x1D] PRINT_EVENT_MESSAGE(message_id=7443*)
     "But should fortune smile upon you and you find yourself in possession of atma, bring it here. I will see that it serves you well."
221: 0x0483 [0x23] WAIT_FOR_DIALOG_INTERACTION
222: 0x0484 [0x01] GOTO 0x1196
223: 0x0487 [0x02] IF !(Work_Zone[0] == 2*) GOTO 0x0725
224: 0x048F [0x02] IF !(ExtData[1]->WorkLocal[10] <= 0*) GOTO 0x0722
225: 0x0497 [0x03] ExtData[1]->WorkLocal[14] = 0*
226: 0x049C [0x02] IF !(ExtData[1]->WorkLocal[1] == 0*) GOTO 0x04A7
227: 0x04A4 [0x0B] ExtData[1]->WorkLocal[14]++
228: 0x04A7 [0x02] IF !(ExtData[1]->WorkLocal[2] == 0*) GOTO 0x04B2
229: 0x04AF [0x0B] ExtData[1]->WorkLocal[14]++
230: 0x04B2 [0x02] IF !(ExtData[1]->WorkLocal[3] == 0*) GOTO 0x04BD
231: 0x04BA [0x0B] ExtData[1]->WorkLocal[14]++
232: 0x04BD [0x02] IF !(ExtData[1]->WorkLocal[14] < ExtData[1]->WorkLocal[10]) GOTO 0x04CD
233: 0x04C5 [0x03] ExtData[1]->WorkLocal[41] = 1*
234: 0x04CA [0x01] GOTO 0x04D2
235: 0x04CD [0x03] ExtData[1]->WorkLocal[41] = 0*

SUBROUTINE_04D2:
236: 0x04D2 [0x02] IF !(ExtData[1]->WorkLocal[41] == 0*) GOTO 0x0719
237: 0x04DA [0x05] ExtData[1]->WorkLocal[17] = 1

SUBROUTINE_04DD:
238: 0x04DD [0x02] IF !(ExtData[1]->WorkLocal[17] <= 0*) GOTO 0x0716
239: 0x04E5 [0x03] ExtData[1]->WorkLocal[20] = 0*
240: 0x04EA [0x03] ExtData[1]->WorkLocal[14] = 0*
241: 0x04EF [0x03] ExtData[1]->WorkLocal[13] = 0*
242: 0x04F4 [0x03] ExtData[1]->WorkLocal[21] = 0*
243: 0x04F9 [0x1A] CALL_SUBROUTINE(address=0x299C)
244: 0x04FC [0x03] Work_Zone[2] = ExtData[1]->WorkLocal[56]
245: 0x0501 [0x03] Work_Zone[3] = ExtData[1]->WorkLocal[57]
246: 0x0506 [0x03] Work_Zone[4] = ExtData[1]->WorkLocal[58]
247: 0x050B [0x03] Work_Zone[5] = ExtData[1]->WorkLocal[59]
248: 0x0510 [0x03] Work_Zone[6] = ExtData[1]->WorkLocal[60]
249: 0x0515 [0x03] Work_Zone[7] = ExtData[1]->WorkLocal[61]
250: 0x051A [0x03] Work_Zone[8] = ExtData[1]->WorkLocal[62]
251: 0x051F [0x03] Work_Zone[9] = ExtData[1]->WorkLocal[63]
252: 0x0524 [0x03] Work_Zone_1700[0] = ExtData[1]->WorkLocal[64]
253: 0x0529 [0x03] Work_Zone_1700[1] = ExtData[1]->WorkLocal[65]
254: 0x052E [0x03] ExtData[1]->WorkLocal[41] = 0*
255: 0x0533 [0x3E] IF !(ExtData[1]->WorkLocal[20] bit 1*) GOTO 0x057E
256: 0x053A [0x3E] IF !(ExtData[1]->WorkLocal[20] bit 2*) GOTO 0x057E
257: 0x0541 [0x3E] IF !(ExtData[1]->WorkLocal[20] bit 3*) GOTO 0x057E
258: 0x0548 [0x3E] IF !(ExtData[1]->WorkLocal[20] bit 4*) GOTO 0x057E
259: 0x054F [0x3E] IF !(ExtData[1]->WorkLocal[20] bit 5*) GOTO 0x057E
260: 0x0556 [0x3E] IF !(ExtData[1]->WorkLocal[20] bit 6*) GOTO 0x057E
261: 0x055D [0x3E] IF !(ExtData[1]->WorkLocal[20] bit 7*) GOTO 0x057E
262: 0x0564 [0x3E] IF !(ExtData[1]->WorkLocal[20] bit 8*) GOTO 0x057E
263: 0x056B [0x3E] IF !(ExtData[1]->WorkLocal[20] bit 9*) GOTO 0x057E
264: 0x0572 [0x3E] IF !(ExtData[1]->WorkLocal[20] bit 10*) GOTO 0x057E
265: 0x0579 [0x03] ExtData[1]->WorkLocal[41] = 1*
266: 0x057E [0x02] IF !(ExtData[1]->WorkLocal[41] == 0*) GOTO 0x0710
267: 0x0586 [0x24] CREATE_DIALOG(message_id=7444*, default_option=0*, option_flags=ExtData[1]->WorkLocal[20])
     "Which atma will you have infused? [None for now./3./$3./$3./$3./$3./$3./$3./$3./$3./$3./Previous page./Next page.]"
268: 0x058D [0x25] WAIT_DIALOG_SELECT()
269: 0x058E [0x02] IF !(Work_Zone[0] == 0*) GOTO 0x059C
270: 0x0596 [0x06] ExtData[1]->WorkLocal[17] = 0
271: 0x0599 [0x01] GOTO 0x068A
272: 0x059C [0x02] IF !(Work_Zone[0] == 1*) GOTO 0x05B1
273: 0x05A4 [0x03] ExtData[1]->WorkLocal[13] = ExtData[1]->WorkLocal[56]
274: 0x05A9 [0x03] ExtData[1]->WorkLocal[14] = ExtData[1]->WorkLocal[46]
275: 0x05AE [0x01] GOTO 0x068A
276: 0x05B1 [0x02] IF !(Work_Zone[0] == 2*) GOTO 0x05C6
277: 0x05B9 [0x03] ExtData[1]->WorkLocal[13] = ExtData[1]->WorkLocal[57]
278: 0x05BE [0x03] ExtData[1]->WorkLocal[14] = ExtData[1]->WorkLocal[47]
279: 0x05C3 [0x01] GOTO 0x068A
280: 0x05C6 [0x02] IF !(Work_Zone[0] == 3*) GOTO 0x05DB
281: 0x05CE [0x03] ExtData[1]->WorkLocal[13] = ExtData[1]->WorkLocal[58]
282: 0x05D3 [0x03] ExtData[1]->WorkLocal[14] = ExtData[1]->WorkLocal[48]
283: 0x05D8 [0x01] GOTO 0x068A
284: 0x05DB [0x02] IF !(Work_Zone[0] == 4*) GOTO 0x05F0
285: 0x05E3 [0x03] ExtData[1]->WorkLocal[13] = ExtData[1]->WorkLocal[59]
286: 0x05E8 [0x03] ExtData[1]->WorkLocal[14] = ExtData[1]->WorkLocal[49]
287: 0x05ED [0x01] GOTO 0x068A
288: 0x05F0 [0x02] IF !(Work_Zone[0] == 5*) GOTO 0x0605
289: 0x05F8 [0x03] ExtData[1]->WorkLocal[13] = ExtData[1]->WorkLocal[60]
290: 0x05FD [0x03] ExtData[1]->WorkLocal[14] = ExtData[1]->WorkLocal[50]
291: 0x0602 [0x01] GOTO 0x068A
292: 0x0605 [0x02] IF !(Work_Zone[0] == 6*) GOTO 0x061A
293: 0x060D [0x03] ExtData[1]->WorkLocal[13] = ExtData[1]->WorkLocal[61]
294: 0x0612 [0x03] ExtData[1]->WorkLocal[14] = ExtData[1]->WorkLocal[51]
295: 0x0617 [0x01] GOTO 0x068A
296: 0x061A [0x02] IF !(Work_Zone[0] == 7*) GOTO 0x062F
297: 0x0622 [0x03] ExtData[1]->WorkLocal[13] = ExtData[1]->WorkLocal[62]
298: 0x0627 [0x03] ExtData[1]->WorkLocal[14] = ExtData[1]->WorkLocal[52]
299: 0x062C [0x01] GOTO 0x068A
300: 0x062F [0x02] IF !(Work_Zone[0] == 8*) GOTO 0x0644
301: 0x0637 [0x03] ExtData[1]->WorkLocal[13] = ExtData[1]->WorkLocal[63]
302: 0x063C [0x03] ExtData[1]->WorkLocal[14] = ExtData[1]->WorkLocal[53]
303: 0x0641 [0x01] GOTO 0x068A
304: 0x0644 [0x02] IF !(Work_Zone[0] == 9*) GOTO 0x0659
305: 0x064C [0x03] ExtData[1]->WorkLocal[13] = ExtData[1]->WorkLocal[64]
306: 0x0651 [0x03] ExtData[1]->WorkLocal[14] = ExtData[1]->WorkLocal[54]
307: 0x0656 [0x01] GOTO 0x068A
308: 0x0659 [0x02] IF !(Work_Zone[0] == 10*) GOTO 0x066E
309: 0x0661 [0x03] ExtData[1]->WorkLocal[13] = ExtData[1]->WorkLocal[65]
310: 0x0666 [0x03] ExtData[1]->WorkLocal[14] = ExtData[1]->WorkLocal[55]
311: 0x066B [0x01] GOTO 0x068A
312: 0x066E [0x02] IF !(Work_Zone[0] == 11*) GOTO 0x067C
313: 0x0676 [0x0C] ExtData[1]->WorkLocal[12]--
314: 0x0679 [0x01] GOTO 0x068A
315: 0x067C [0x02] IF !(Work_Zone[0] == 12*) GOTO 0x068A
316: 0x0684 [0x0B] ExtData[1]->WorkLocal[12]++
317: 0x0687 [0x01] GOTO 0x068A

SUBROUTINE_068A:
318: 0x068A [0x02] IF !(ExtData[1]->WorkLocal[14] <= 0*) GOTO 0x070D
319: 0x0692 [0x03] ExtData[1]->WorkLocal[41] = 0*
320: 0x0697 [0x1A] CALL_SUBROUTINE(address=0x174C)
321: 0x069A [0x02] IF !(ExtData[1]->WorkLocal[41] == 0*) GOTO 0x0709
322: 0x06A2 [0x03] ExtData[1]->WorkLocal[41] = ExtData[1]->WorkLocal[13]
323: 0x06A7 [0x1A] CALL_SUBROUTINE(address=0x177A)
324: 0x06AA [0x48] [System] [ExtData[1]->WorkLocal[21]]:
     "You currently have claim over the synergy furnace. Please deposit your ingredients inside the furnace and initiate the synergy process."
325: 0x06AD [0x23] WAIT_FOR_DIALOG_INTERACTION
326: 0x06AE [0x03] Work_Zone[2] = ExtData[1]->WorkLocal[13]
327: 0x06B3 [0x03] Work_Zone[3] = 100*
328: 0x06B8 [0x1D] PRINT_EVENT_MESSAGE(message_id=7445*)
     "$1 cruor is required to infuse the $3."
329: 0x06BB [0x23] WAIT_FOR_DIALOG_INTERACTION
330: 0x06BC [0x03] Work_Zone[2] = ExtData[1]->WorkLocal[13]
331: 0x06C1 [0x24] CREATE_DIALOG(message_id=7446*, default_option=1*, option_flags=0*)
     "Have $3 infused? [Confirm./Cancel.]"
332: 0x06C8 [0x25] WAIT_DIALOG_SELECT()
333: 0x06C9 [0x02] IF !(Work_Zone[0] == 0*) GOTO 0x06FB
334: 0x06D1 [0x02] IF !(ExtData[1]->WorkLocal[0] < 100*) GOTO 0x06F4
335: 0x06D9 [0x40] SET_BIT_WORK_RANGE(start_bit=0*, end_bit=15*, target=Work_Zone[1], source=1*)
336: 0x06E2 [0x40] SET_BIT_WORK_RANGE(start_bit=16*, end_bit=31*, target=Work_Zone[1], source=ExtData[1]->WorkLocal[14])
