# 17318635 - Rugiette

## Common Data

| Field            | Value                         |
|------------------|-------------------------------|
| Zone             | Abyssea - La Theine (ID: 132) |
| Block Size       | 144 bytes                     |
| Total Events     | 3                             |
| References Count | 7                             |

## List of Events

| Event ID              | Entrypoint   |   Size |   Instructions |
|-----------------------|--------------|--------|----------------|
| [65535](#event-65535) | 0x0000       |      1 |              1 |
| [170](#event-170)     | 0x0001       |     28 |              8 |
| [169](#event-169)     | 0x001D       |     56 |             15 |

## DAT References (imed_data)

|   Index | Hex Value   |   Dec Value |
|---------|-------------|-------------|
|       0 | 0x001E      |          30 |
|       1 | 0x1EBC      |        7868 |
|       2 | 0x1EBD      |        7869 |
|       3 | 0x1EBE      |        7870 |
|       4 | 0x1EBF      |        7871 |
|       5 | 0x00C9      |         201 |
|       6 | 0x0000      |           0 |

## String References

- **7868**: <Sigh> It's so tedious here inside this proverbial hole in the ground, but I suppose this won't kill me near as quickly as being out and about...
- **7869**: Hm? Why, these are the supplies my sister was supposed to fetch...
- **7870**: You have my gratitude, kind [sir/madam]...but how is it that you're making the delivery instead?
- **7871**: Oh, never mind. Doubtless Regine is being her usual lazy self and asked a hapless passerby to do her chores. Should you meet her again, do chide her on my behalf.

## Events

### Event 65535

#### Metadata

| Field        | Value   |
|--------------|---------|
| Entrypoint   | 0x0000  |
| Data Size    | 1 bytes |
| Instructions | 1       |

```
      00 01 02 03 04 05 06 07  08 09 0A 0B 0C 0D 0E 0F
      -- -- -- -- -- -- -- --  -- -- -- -- -- -- -- --
0000: 00                                                .               
```

#### Opcodes

```
  0: 0x0000 [0x00] END_REQSTACK()
```

### Event 170

#### Metadata

| Field        | Value    |
|--------------|----------|
| Entrypoint   | 0x0001   |
| Data Size    | 28 bytes |
| Instructions | 8        |

```
      00 01 02 03 04 05 06 07  08 09 0A 0B 0C 0D 0E 0F
      -- -- -- -- -- -- -- --  -- -- -- -- -- -- -- --
0000:    1E F0 FF FF 7F 6F 70  66 00 80 F8 FF FF 7F F8   .....opf.......
0010: FF FF 7F 74 6C 6B 30 1D  01 80 23 21 00           ...tlk0...#!.   
```

#### Opcodes

```
  0: 0x0001 [0x1E] EventEntity looks at LocalPlayer and starts talking
  1: 0x0006 [0x6F] WAIT_FRAME_DELAY: Yield until WaitTime reaches zero
  2: 0x0007 [0x70] WAIT_ENTITY_RENDER_FLAG: Wait while EventEntity->Render.Flags3 bit 2 is set (cancel turn if not)
  3: 0x0008 [0x66] LOAD_EXT_SCHEDULER_MAIN: Load scheduler "tlk0" with entities [EventEntity, EventEntity], work=30*
  4: 0x0017 [0x1D] PRINT_EVENT_MESSAGE(message_id=7868*)
    → "<Sigh> It's so tedious here inside this proverbial hole in the ground, but I suppose this won't kill me near as quickly as being out and about..."
  5: 0x001A [0x23] WAIT_FOR_DIALOG_INTERACTION
  6: 0x001B [0x21] END_EVENT
  7: 0x001C [0x00] END_REQSTACK()
```

### Event 169

#### Metadata

| Field        | Value    |
|--------------|----------|
| Entrypoint   | 0x001D   |
| Data Size    | 56 bytes |
| Instructions | 15       |

```
      00 01 02 03 04 05 06 07  08 09 0A 0B 0C 0D 0E 0F
      -- -- -- -- -- -- -- --  -- -- -- -- -- -- -- --
0010:                                         20 01 42                .B
0020: 1E F0 FF FF 7F 6F 70 66  00 80 F8 FF FF 7F F8 FF  .....opf........
0030: FF 7F 74 6C 6B 30 1D 02  80 23 1D 03 80 23 1D 04  ..tlk0...#...#..
0040: 80 23 45 05 80 F0 FF FF  7F F0 FF FF 7F 71 73 74  .#E..........qst
0050: 63 06 80 21 00                                    c..!.           
```

#### Opcodes

```
  0: 0x001D [0x20] SET_CLI_EVENT_UC_FLAG: Lock player control
  1: 0x001F [0x42] SET_CLI_EVENT_CANCEL_DATA()
  2: 0x0020 [0x1E] EventEntity looks at LocalPlayer and starts talking
  3: 0x0025 [0x6F] WAIT_FRAME_DELAY: Yield until WaitTime reaches zero
  4: 0x0026 [0x70] WAIT_ENTITY_RENDER_FLAG: Wait while EventEntity->Render.Flags3 bit 2 is set (cancel turn if not)
  5: 0x0027 [0x66] LOAD_EXT_SCHEDULER_MAIN: Load scheduler "tlk0" with entities [EventEntity, EventEntity], work=30*
  6: 0x0036 [0x1D] PRINT_EVENT_MESSAGE(message_id=7869*)
    → "Hm? Why, these are the supplies my sister was supposed to fetch..."
  7: 0x0039 [0x23] WAIT_FOR_DIALOG_INTERACTION
  8: 0x003A [0x1D] PRINT_EVENT_MESSAGE(message_id=7870*)
    → "You have my gratitude, kind [sir/madam]...but how is it that you're making the delivery instead?"
  9: 0x003D [0x23] WAIT_FOR_DIALOG_INTERACTION
 10: 0x003E [0x1D] PRINT_EVENT_MESSAGE(message_id=7871*)
    → "Oh, never mind. Doubtless Regine is being her usual lazy self and asked a hapless passerby to do her chores. Should you meet her again, do chide her on my behalf."
 11: 0x0041 [0x23] WAIT_FOR_DIALOG_INTERACTION
 12: 0x0042 [0x45] LOAD_SCHEDULED_TASK: Load scheduler "qstc" with entities [LocalPlayer, LocalPlayer], work=[201*, 0*]
 13: 0x0053 [0x21] END_EVENT
 14: 0x0054 [0x00] END_REQSTACK()
```
