# 17318645 - Aaveleon

## Common Data

| Field            | Value                         |
|------------------|-------------------------------|
| Zone             | Abyssea - La Theine (ID: 132) |
| Block Size       | 552 bytes                     |
| Total Events     | 4                             |
| References Count | 31                            |

## List of Events

| Event ID              | Entrypoint   |   Size |   Instructions |
|-----------------------|--------------|--------|----------------|
| [65535](#event-65535) | 0x0000       |      1 |              1 |
| [218](#event-218)     | 0x0001       |     28 |              8 |
| [219](#event-219)     | 0x001D       |    183 |             40 |
| [220](#event-220)     | 0x00D4       |    183 |             49 |

## DAT References (imed_data)

|   Index | Hex Value   |   Dec Value |
|---------|-------------|-------------|
|       0 | 0x0014      |          20 |
|       1 | 0x1F5E      |        8030 |
|       2 | 0x0635      |        1589 |
|       3 | 0x1F5F      |        8031 |
|       4 | 0x1F60      |        8032 |
|       5 | 0x05DC      |        1500 |
|       6 | 0x1F61      |        8033 |
|       7 | 0x1F62      |        8034 |
|       8 | 0x1F63      |        8035 |
|       9 | 0x1F64      |        8036 |
|      10 | 0x1F65      |        8037 |
|      11 | 0x1F6F      |        8047 |
|      12 | 0x0000      |           0 |
|      13 | 0x0001      |           1 |
|      14 | 0x1F66      |        8038 |
|      15 | 0x0002      |           2 |
|      16 | 0x1F67      |        8039 |
|      17 | 0x0003      |           3 |
|      18 | 0x1F68      |        8040 |
|      19 | 0x0004      |           4 |
|      20 | 0x1F69      |        8041 |
|      21 | 0x0005      |           5 |
|      22 | 0x1F6A      |        8042 |
|      23 | 0x0006      |           6 |
|      24 | 0x1F6B      |        8043 |
|      25 | 0x0007      |           7 |
|      26 | 0x1F6C      |        8044 |
|      27 | 0x0008      |           8 |
|      28 | 0x1F6D      |        8045 |
|      29 | 0x0009      |           9 |
|      30 | 0x1F6E      |        8046 |

## String References

- **8030**: Forgive me, but I'm in the midst of patrol duty. And if you have a care for your life, I suggest you make for the safety of the encampment with all speed.
- **8031**: Why, this is $6! I had been brooding over the one I misplaced the exact moment you showed up. My deepest thanks.
- **8032**: Ah, it works like a charm. My wife just responded to my call. Pray excuse me for a moment...
- **8033**: Thanks for the linkpearl, my turtle dove.
- **8034**: All is well with me, rest assured. Even should I encounter a hellspawned beast, your ointment would mend my wounds in an instant.
- **8035**: I hear you, sweetling. I promise to be ever cautious, for the sake our of children.
- **8036**: I shall be with you soon. Stay safe, apple of my eye.
- **8037**: Now I may continue my patrol with an easier heart. You have done me a great kindness, friend.
- **8038**: A ferocious rabbit of immense proportions gambols in these parts. Best maintain a respectful distance, lest you have a death wish.
- **8039**: A frenzied tiger of immense proportions prowls these parts. Best maintain a respectful distance, lest you have a death wish.
- **8040**: A savage bird of immense proportions flutters about in these parts. Best maintain at a respectful distance, lest you have a death wish.
- **8041**: A vicious bee of immense proportions drones about in these parts. Best maintain a respectful distance, lest you have a death wish.
- **8042**: A sinister spirit of immense proportions haunts these parts. Best maintain a respectful distance, lest you have a death wish.
- **8043**: Pixies--one large and one queenly--flit about in these parts. Best maintain a respectful distance, lest you have a death wish.
- **8044**: A hulking Gigas of unparalleled strength lumbers about these parts. Best maintain a respectful distance, lest you have a death wish.
- **8045**: A fearsome gnole of immense proportions stalks these parts. Best maintain a respectful distance, lest you have a death wish.
- **8046**: Besides an obnoxious fly, a crab of immense proportions scuttles about these parts. Best maintain a respectful distance, lest you have a death wish.
- **8047**: I shall resume my duty. Go safely, friend.

## Events

### Event 65535

#### Metadata

| Field        | Value   |
|--------------|---------|
| Entrypoint   | 0x0000  |
| Data Size    | 1 bytes |
| Instructions | 1       |

```
      00 01 02 03 04 05 06 07  08 09 0A 0B 0C 0D 0E 0F
      -- -- -- -- -- -- -- --  -- -- -- -- -- -- -- --
0000: 00                                                .               
```

#### Opcodes

```
  0: 0x0000 [0x00] END_REQSTACK()
```

### Event 218

#### Metadata

| Field        | Value    |
|--------------|----------|
| Entrypoint   | 0x0001   |
| Data Size    | 28 bytes |
| Instructions | 8        |

```
      00 01 02 03 04 05 06 07  08 09 0A 0B 0C 0D 0E 0F
      -- -- -- -- -- -- -- --  -- -- -- -- -- -- -- --
0000:    1E F0 FF FF 7F 6F 70  66 00 80 F8 FF FF 7F F8   .....opf.......
0010: FF FF 7F 74 6C 6B 30 1D  01 80 23 21 00           ...tlk0...#!.   
```

#### Opcodes

```
  0: 0x0001 [0x1E] EventEntity looks at LocalPlayer and starts talking
  1: 0x0006 [0x6F] WAIT_FRAME_DELAY: Yield until WaitTime reaches zero
  2: 0x0007 [0x70] WAIT_ENTITY_RENDER_FLAG: Wait while EventEntity->Render.Flags3 bit 2 is set (cancel turn if not)
  3: 0x0008 [0x66] LOAD_EXT_SCHEDULER_MAIN: Load scheduler "tlk0" with entities [EventEntity, EventEntity], work=20*
  4: 0x0017 [0x1D] PRINT_EVENT_MESSAGE(message_id=8030*)
    → "Forgive me, but I'm in the midst of patrol duty. And if you have a care for your life, I suggest you make for the safety of the encampment with all speed."
  5: 0x001A [0x23] WAIT_FOR_DIALOG_INTERACTION
  6: 0x001B [0x21] END_EVENT
  7: 0x001C [0x00] END_REQSTACK()
```

### Event 219

#### Metadata

| Field        | Value     |
|--------------|-----------|
| Entrypoint   | 0x001D    |
| Data Size    | 183 bytes |
| Instructions | 40        |

```
      00 01 02 03 04 05 06 07  08 09 0A 0B 0C 0D 0E 0F
      -- -- -- -- -- -- -- --  -- -- -- -- -- -- -- --
0010:                                         03 00 00               ...
0020: 02 10 20 01 42 1E F0 FF  FF 7F 6F 70 66 00 80 F8  .. .B.....opf...
0030: FF FF 7F F8 FF FF 7F 74  6C 6B 30 03 02 10 02 80  .......tlk0.....
0040: 1D 03 80 23 1D 04 80 23  66 00 80 F8 FF FF 7F F8  ...#...#f.......
0050: FF FF 7F 74 6C 6B 31 53  F8 FF FF 7F F8 FF FF 7F  ...tlk1S........
0060: 74 6C 6B 31 3A F8 FF FF  7F 01 00 07 01 00 05 80  tlk1:...........
0070: 4B F8 FF FF 7F 01 00 6F  70 66 00 80 F8 FF FF 7F  K......opf......
0080: F8 FF FF 7F 74 6C 6B 30  1D 06 80 23 1D 07 80 23  ....tlk0...#...#
0090: 1D 08 80 23 1D 09 80 23  66 00 80 F8 FF FF 7F F8  ...#...#f.......
00A0: FF FF 7F 74 6C 6B 31 53  F8 FF FF 7F F8 FF FF 7F  ...tlk1S........
00B0: 74 6C 6B 31 1E F0 FF FF  7F 6F 70 66 00 80 F8 FF  tlk1.....opf....
00C0: FF 7F F8 FF FF 7F 74 6C  6B 30 1D 0A 80 23 1D 0B  ......tlk0...#..
00D0: 80 23 21 00                                       .#!.            
```

#### Opcodes

```
  0: 0x001D [0x03] ExtData[1]->WorkLocal[0] = Work_Zone[2]
  1: 0x0022 [0x20] SET_CLI_EVENT_UC_FLAG: Lock player control
  2: 0x0024 [0x42] SET_CLI_EVENT_CANCEL_DATA()
  3: 0x0025 [0x1E] EventEntity looks at LocalPlayer and starts talking
  4: 0x002A [0x6F] WAIT_FRAME_DELAY: Yield until WaitTime reaches zero
  5: 0x002B [0x70] WAIT_ENTITY_RENDER_FLAG: Wait while EventEntity->Render.Flags3 bit 2 is set (cancel turn if not)
  6: 0x002C [0x66] LOAD_EXT_SCHEDULER_MAIN: Load scheduler "tlk0" with entities [EventEntity, EventEntity], work=20*
  7: 0x003B [0x03] Work_Zone[2] = 1589*
  8: 0x0040 [0x1D] PRINT_EVENT_MESSAGE(message_id=8031*)
    → "Why, this is $6! I had been brooding over the one I misplaced the exact moment you showed up. My deepest thanks."
  9: 0x0043 [0x23] WAIT_FOR_DIALOG_INTERACTION
 10: 0x0044 [0x1D] PRINT_EVENT_MESSAGE(message_id=8032*)
    → "Ah, it works like a charm. My wife just responded to my call. Pray excuse me for a moment..."
 11: 0x0047 [0x23] WAIT_FOR_DIALOG_INTERACTION
 12: 0x0048 [0x66] LOAD_EXT_SCHEDULER_MAIN: Load scheduler "tlk1" with entities [EventEntity, EventEntity], work=20*
 13: 0x0057 [0x53] WAIT_SCHEDULER_TASK: Wait for scheduler "tlk1" with entities [EventEntity, EventEntity]
 14: 0x0064 [0x3A] CONVERT_YAW_TO_BYTE(entity=EventEntity, result_destination=ExtData[1]->WorkLocal[1])
 15: 0x006B [0x07] ExtData[1]->WorkLocal[1] += 1500*
 16: 0x0070 [0x4B] UPDATE_ENTITY_YAW(entity=EventEntity, yaw=ExtData[1]->WorkLocal[1])
 17: 0x0077 [0x6F] WAIT_FRAME_DELAY: Yield until WaitTime reaches zero
 18: 0x0078 [0x70] WAIT_ENTITY_RENDER_FLAG: Wait while EventEntity->Render.Flags3 bit 2 is set (cancel turn if not)
 19: 0x0079 [0x66] LOAD_EXT_SCHEDULER_MAIN: Load scheduler "tlk0" with entities [EventEntity, EventEntity], work=20*
 20: 0x0088 [0x1D] PRINT_EVENT_MESSAGE(message_id=8033*)
    → "Thanks for the linkpearl, my turtle dove."
 21: 0x008B [0x23] WAIT_FOR_DIALOG_INTERACTION
 22: 0x008C [0x1D] PRINT_EVENT_MESSAGE(message_id=8034*)
    → "All is well with me, rest assured. Even should I encounter a hellspawned beast, your ointment would mend my wounds in an instant."
 23: 0x008F [0x23] WAIT_FOR_DIALOG_INTERACTION
 24: 0x0090 [0x1D] PRINT_EVENT_MESSAGE(message_id=8035*)
    → "I hear you, sweetling. I promise to be ever cautious, for the sake our of children."
 25: 0x0093 [0x23] WAIT_FOR_DIALOG_INTERACTION
 26: 0x0094 [0x1D] PRINT_EVENT_MESSAGE(message_id=8036*)
    → "I shall be with you soon. Stay safe, apple of my eye."
 27: 0x0097 [0x23] WAIT_FOR_DIALOG_INTERACTION
 28: 0x0098 [0x66] LOAD_EXT_SCHEDULER_MAIN: Load scheduler "tlk1" with entities [EventEntity, EventEntity], work=20*
 29: 0x00A7 [0x53] WAIT_SCHEDULER_TASK: Wait for scheduler "tlk1" with entities [EventEntity, EventEntity]
 30: 0x00B4 [0x1E] EventEntity looks at LocalPlayer and starts talking
 31: 0x00B9 [0x6F] WAIT_FRAME_DELAY: Yield until WaitTime reaches zero
 32: 0x00BA [0x70] WAIT_ENTITY_RENDER_FLAG: Wait while EventEntity->Render.Flags3 bit 2 is set (cancel turn if not)
 33: 0x00BB [0x66] LOAD_EXT_SCHEDULER_MAIN: Load scheduler "tlk0" with entities [EventEntity, EventEntity], work=20*
 34: 0x00CA [0x1D] PRINT_EVENT_MESSAGE(message_id=8037*)
    → "Now I may continue my patrol with an easier heart. You have done me a great kindness, friend."
 35: 0x00CD [0x23] WAIT_FOR_DIALOG_INTERACTION
 36: 0x00CE [0x1D] PRINT_EVENT_MESSAGE(message_id=8047*)
    → "I shall resume my duty. Go safely, friend."
 37: 0x00D1 [0x23] WAIT_FOR_DIALOG_INTERACTION
 38: 0x00D2 [0x21] END_EVENT
 39: 0x00D3 [0x00] END_REQSTACK()
```

### Event 220

#### Metadata

| Field        | Value     |
|--------------|-----------|
| Entrypoint   | 0x00D4    |
| Data Size    | 183 bytes |
| Instructions | 49        |

```
      00 01 02 03 04 05 06 07  08 09 0A 0B 0C 0D 0E 0F
      -- -- -- -- -- -- -- --  -- -- -- -- -- -- -- --
00D0:             03 00 00 02  10 1E F0 FF FF 7F 6F 70      ..........op
00E0: 66 00 80 F8 FF FF 7F F8  FF FF 7F 74 6C 6B 30 02  f..........tlk0.
00F0: 00 00 0C 80 80 FE 00 1D  01 80 23 01 85 01 02 00  ..........#.....
0100: 00 0D 80 80 0D 01 1D 0E  80 23 01 85 01 02 00 00  .........#......
0110: 0F 80 80 1C 01 1D 10 80  23 01 85 01 02 00 00 11  ........#.......
0120: 80 80 2B 01 1D 12 80 23  01 85 01 02 00 00 13 80  ..+....#........
0130: 80 3A 01 1D 14 80 23 01  85 01 02 00 00 15 80 80  .:....#.........
0140: 49 01 1D 16 80 23 01 85  01 02 00 00 17 80 80 58  I....#.........X
0150: 01 1D 18 80 23 01 85 01  02 00 00 19 80 80 67 01  ....#.........g.
0160: 1D 1A 80 23 01 85 01 02  00 00 1B 80 80 76 01 1D  ...#.........v..
0170: 1C 80 23 01 85 01 02 00  00 1D 80 80 85 01 1D 1E  ..#.............
0180: 80 23 01 85 01 1D 0B 80  23 21 00                 .#......#!.     
```

#### Opcodes

```
  0: 0x00D4 [0x03] ExtData[1]->WorkLocal[0] = Work_Zone[2]
  1: 0x00D9 [0x1E] EventEntity looks at LocalPlayer and starts talking
  2: 0x00DE [0x6F] WAIT_FRAME_DELAY: Yield until WaitTime reaches zero
  3: 0x00DF [0x70] WAIT_ENTITY_RENDER_FLAG: Wait while EventEntity->Render.Flags3 bit 2 is set (cancel turn if not)
  4: 0x00E0 [0x66] LOAD_EXT_SCHEDULER_MAIN: Load scheduler "tlk0" with entities [EventEntity, EventEntity], work=20*
  5: 0x00EF [0x02] IF !(ExtData[1]->WorkLocal[0] == 0*) GOTO 0x00FE
  6: 0x00F7 [0x1D] PRINT_EVENT_MESSAGE(message_id=8030*)
    → "Forgive me, but I'm in the midst of patrol duty. And if you have a care for your life, I suggest you make for the safety of the encampment with all speed."
  7: 0x00FA [0x23] WAIT_FOR_DIALOG_INTERACTION
  8: 0x00FB [0x01] GOTO 0x0185
  9: 0x00FE [0x02] IF !(ExtData[1]->WorkLocal[0] == 1*) GOTO 0x010D
 10: 0x0106 [0x1D] PRINT_EVENT_MESSAGE(message_id=8038*)
    → "A ferocious rabbit of immense proportions gambols in these parts. Best maintain a respectful distance, lest you have a death wish."
 11: 0x0109 [0x23] WAIT_FOR_DIALOG_INTERACTION
 12: 0x010A [0x01] GOTO 0x0185
 13: 0x010D [0x02] IF !(ExtData[1]->WorkLocal[0] == 2*) GOTO 0x011C
 14: 0x0115 [0x1D] PRINT_EVENT_MESSAGE(message_id=8039*)
    → "A frenzied tiger of immense proportions prowls these parts. Best maintain a respectful distance, lest you have a death wish."
 15: 0x0118 [0x23] WAIT_FOR_DIALOG_INTERACTION
 16: 0x0119 [0x01] GOTO 0x0185
 17: 0x011C [0x02] IF !(ExtData[1]->WorkLocal[0] == 3*) GOTO 0x012B
 18: 0x0124 [0x1D] PRINT_EVENT_MESSAGE(message_id=8040*)
    → "A savage bird of immense proportions flutters about in these parts. Best maintain at a respectful distance, lest you have a death wish."
 19: 0x0127 [0x23] WAIT_FOR_DIALOG_INTERACTION
 20: 0x0128 [0x01] GOTO 0x0185
 21: 0x012B [0x02] IF !(ExtData[1]->WorkLocal[0] == 4*) GOTO 0x013A
 22: 0x0133 [0x1D] PRINT_EVENT_MESSAGE(message_id=8041*)
    → "A vicious bee of immense proportions drones about in these parts. Best maintain a respectful distance, lest you have a death wish."
 23: 0x0136 [0x23] WAIT_FOR_DIALOG_INTERACTION
 24: 0x0137 [0x01] GOTO 0x0185
 25: 0x013A [0x02] IF !(ExtData[1]->WorkLocal[0] == 5*) GOTO 0x0149
 26: 0x0142 [0x1D] PRINT_EVENT_MESSAGE(message_id=8042*)
    → "A sinister spirit of immense proportions haunts these parts. Best maintain a respectful distance, lest you have a death wish."
 27: 0x0145 [0x23] WAIT_FOR_DIALOG_INTERACTION
 28: 0x0146 [0x01] GOTO 0x0185
 29: 0x0149 [0x02] IF !(ExtData[1]->WorkLocal[0] == 6*) GOTO 0x0158
 30: 0x0151 [0x1D] PRINT_EVENT_MESSAGE(message_id=8043*)
    → "Pixies--one large and one queenly--flit about in these parts. Best maintain a respectful distance, lest you have a death wish."
 31: 0x0154 [0x23] WAIT_FOR_DIALOG_INTERACTION
 32: 0x0155 [0x01] GOTO 0x0185
 33: 0x0158 [0x02] IF !(ExtData[1]->WorkLocal[0] == 7*) GOTO 0x0167
 34: 0x0160 [0x1D] PRINT_EVENT_MESSAGE(message_id=8044*)
    → "A hulking Gigas of unparalleled strength lumbers about these parts. Best maintain a respectful distance, lest you have a death wish."
 35: 0x0163 [0x23] WAIT_FOR_DIALOG_INTERACTION
 36: 0x0164 [0x01] GOTO 0x0185
 37: 0x0167 [0x02] IF !(ExtData[1]->WorkLocal[0] == 8*) GOTO 0x0176
 38: 0x016F [0x1D] PRINT_EVENT_MESSAGE(message_id=8045*)
    → "A fearsome gnole of immense proportions stalks these parts. Best maintain a respectful distance, lest you have a death wish."
 39: 0x0172 [0x23] WAIT_FOR_DIALOG_INTERACTION
 40: 0x0173 [0x01] GOTO 0x0185
 41: 0x0176 [0x02] IF !(ExtData[1]->WorkLocal[0] == 9*) GOTO 0x0185
 42: 0x017E [0x1D] PRINT_EVENT_MESSAGE(message_id=8046*)
    → "Besides an obnoxious fly, a crab of immense proportions scuttles about these parts. Best maintain a respectful distance, lest you have a death wish."
 43: 0x0181 [0x23] WAIT_FOR_DIALOG_INTERACTION
 44: 0x0182 [0x01] GOTO 0x0185

SUBROUTINE_0185:
 45: 0x0185 [0x1D] PRINT_EVENT_MESSAGE(message_id=8047*)
    → "I shall resume my duty. Go safely, friend."
 46: 0x0188 [0x23] WAIT_FOR_DIALOG_INTERACTION
 47: 0x0189 [0x21] END_EVENT
 48: 0x018A [0x00] END_REQSTACK()
```
