# 17318644 - Glenne

## Common Data

| Field            | Value                         |
|------------------|-------------------------------|
| Zone             | Abyssea - La Theine (ID: 132) |
| Block Size       | 376 bytes                     |
| Total Events     | 6                             |
| References Count | 18                            |

## List of Events

| Event ID              | Entrypoint   |   Size |   Instructions |
|-----------------------|--------------|--------|----------------|
| [65535](#event-65535) | 0x0000       |      1 |              1 |
| [213](#event-213)     | 0x0001       |     32 |             10 |
| [214](#event-214)     | 0x0021       |    116 |             33 |
| [215](#event-215)     | 0x0095       |     32 |             10 |
| [216](#event-216)     | 0x00B5       |     52 |             13 |
| [217](#event-217)     | 0x00E9       |     28 |              8 |

## DAT References (imed_data)

|   Index | Hex Value   |   Dec Value |
|---------|-------------|-------------|
|       0 | 0x001E      |          30 |
|       1 | 0x1F52      |        8018 |
|       2 | 0x1F53      |        8019 |
|       3 | 0x1F54      |        8020 |
|       4 | 0x1F55      |        8021 |
|       5 | 0x0635      |        1589 |
|       6 | 0x1F56      |        8022 |
|       7 | 0x1F57      |        8023 |
|       8 | 0x1F58      |        8024 |
|       9 | 0x0001      |           1 |
|      10 | 0x0000      |           0 |
|      11 | 0x1F59      |        8025 |
|      12 | 0x1F5A      |        8026 |
|      13 | 0x00F0      |         240 |
|      14 | 0x1F5B      |        8027 |
|      15 | 0x1F5C      |        8028 |
|      16 | 0x1F5D      |        8029 |
|      17 | 0x00C9      |         201 |

## String References

- **8018**: Blessedly, my husband and I have managed to survive together. But each time he leaves on patrol, I'm racked with anxiety that he may never return...heaven forfend.
- **8019**: His promise to stay in regular contact via linkpearl is all that sustains me. Speaking of which, I'm expecting a call at any moment now...
- **8020**: Oh, what am I to do? My husband is on patrol, and it's well past the time I'm supposed to hear from him.
- **8021**: Being the scatterbrain that he is, I'm praying that he has merely misplaced his linkpearl. But there'll be no peace for me unless I find out for certain.
- **8022**: Could I trouble you to deliver this $3 to him?
- **8023**: I'd seek him out myself, to be sure, but I'm not made for the savage wilderness that has overtaken La Theine.
- **8024**: Deliver the linkpearl? [Of course I will./Not right now.]
- **8025**: Y-you won't? But...my husband might be d-dying...<sniffle>...in a ditch somewhere...<sob>...
- **8026**: I cannot thank you enough! My husband's name is Aaveleon.
- **8027**: He should be patrolling La Theine as we speak. Please hurry, or I fear I shall lose my mind!
- **8028**: I was able to regain contact with my husband again. Thank you so much!
- **8029**: The world may never again know peace and tranquility. But for the sake of our loved ones, we must ever hold on to hope.

## Events

### Event 65535

#### Metadata

| Field        | Value   |
|--------------|---------|
| Entrypoint   | 0x0000  |
| Data Size    | 1 bytes |
| Instructions | 1       |

```
      00 01 02 03 04 05 06 07  08 09 0A 0B 0C 0D 0E 0F
      -- -- -- -- -- -- -- --  -- -- -- -- -- -- -- --
0000: 00                                                .               
```

#### Opcodes

```
  0: 0x0000 [0x00] END_REQSTACK()
```

### Event 213

#### Metadata

| Field        | Value    |
|--------------|----------|
| Entrypoint   | 0x0001   |
| Data Size    | 32 bytes |
| Instructions | 10       |

```
      00 01 02 03 04 05 06 07  08 09 0A 0B 0C 0D 0E 0F
      -- -- -- -- -- -- -- --  -- -- -- -- -- -- -- --
0000:    1E F0 FF FF 7F 6F 70  66 00 80 F8 FF FF 7F F8   .....opf.......
0010: FF FF 7F 74 6C 6B 30 1D  01 80 23 1D 02 80 23 21  ...tlk0...#...#!
0020: 00                                                .               
```

#### Opcodes

```
  0: 0x0001 [0x1E] EventEntity looks at LocalPlayer and starts talking
  1: 0x0006 [0x6F] WAIT_FRAME_DELAY: Yield until WaitTime reaches zero
  2: 0x0007 [0x70] WAIT_ENTITY_RENDER_FLAG: Wait while EventEntity->Render.Flags3 bit 2 is set (cancel turn if not)
  3: 0x0008 [0x66] LOAD_EXT_SCHEDULER_MAIN: Load scheduler "tlk0" with entities [EventEntity, EventEntity], work=30*
  4: 0x0017 [0x1D] PRINT_EVENT_MESSAGE(message_id=8018*)
    → "Blessedly, my husband and I have managed to survive together. But each time he leaves on patrol, I'm racked with anxiety that he may never return...heaven forfend."
  5: 0x001A [0x23] WAIT_FOR_DIALOG_INTERACTION
  6: 0x001B [0x1D] PRINT_EVENT_MESSAGE(message_id=8019*)
    → "His promise to stay in regular contact via linkpearl is all that sustains me. Speaking of which, I'm expecting a call at any moment now..."
  7: 0x001E [0x23] WAIT_FOR_DIALOG_INTERACTION
  8: 0x001F [0x21] END_EVENT
  9: 0x0020 [0x00] END_REQSTACK()
```

### Event 214

#### Metadata

| Field        | Value     |
|--------------|-----------|
| Entrypoint   | 0x0021    |
| Data Size    | 116 bytes |
| Instructions | 32        |

```
      00 01 02 03 04 05 06 07  08 09 0A 0B 0C 0D 0E 0F
      -- -- -- -- -- -- -- --  -- -- -- -- -- -- -- --
0020:    20 01 42 1E F0 FF FF  7F 6F 70 66 00 80 F8 FF    .B.....opf....
0030: FF 7F F8 FF FF 7F 74 6C  6B 30 1D 03 80 23 1D 04  ......tlk0...#..
0040: 80 23 03 02 10 05 80 1D  06 80 23 1D 07 80 23 24  .#........#...#$
0050: 08 80 09 80 0A 80 25 02  00 10 0A 80 00 67 00 03  ......%......g..
0060: 01 10 09 80 01 79 00 02  00 10 09 80 00 79 00 1D  .....y.......y..
0070: 0B 80 23 01 93 00 01 79  00 1D 0C 80 23 66 00 80  ..#....y....#f..
0080: F8 FF FF 7F F8 FF FF 7F  70 61 73 30 1C 0D 80 1D  ........pas0....
0090: 0E 80 23 21 00                                    ..#!.           
```

#### Opcodes

```
  0: 0x0021 [0x20] SET_CLI_EVENT_UC_FLAG: Lock player control
  1: 0x0023 [0x42] SET_CLI_EVENT_CANCEL_DATA()
  2: 0x0024 [0x1E] EventEntity looks at LocalPlayer and starts talking
  3: 0x0029 [0x6F] WAIT_FRAME_DELAY: Yield until WaitTime reaches zero
  4: 0x002A [0x70] WAIT_ENTITY_RENDER_FLAG: Wait while EventEntity->Render.Flags3 bit 2 is set (cancel turn if not)
  5: 0x002B [0x66] LOAD_EXT_SCHEDULER_MAIN: Load scheduler "tlk0" with entities [EventEntity, EventEntity], work=30*
  6: 0x003A [0x1D] PRINT_EVENT_MESSAGE(message_id=8020*)
    → "Oh, what am I to do? My husband is on patrol, and it's well past the time I'm supposed to hear from him."
  7: 0x003D [0x23] WAIT_FOR_DIALOG_INTERACTION
  8: 0x003E [0x1D] PRINT_EVENT_MESSAGE(message_id=8021*)
    → "Being the scatterbrain that he is, I'm praying that he has merely misplaced his linkpearl. But there'll be no peace for me unless I find out for certain."
  9: 0x0041 [0x23] WAIT_FOR_DIALOG_INTERACTION
 10: 0x0042 [0x03] Work_Zone[2] = 1589*
 11: 0x0047 [0x1D] PRINT_EVENT_MESSAGE(message_id=8022*)
    → "Could I trouble you to deliver this $3 to him?"
 12: 0x004A [0x23] WAIT_FOR_DIALOG_INTERACTION
 13: 0x004B [0x1D] PRINT_EVENT_MESSAGE(message_id=8023*)
    → "I'd seek him out myself, to be sure, but I'm not made for the savage wilderness that has overtaken La Theine."
 14: 0x004E [0x23] WAIT_FOR_DIALOG_INTERACTION
 15: 0x004F [0x24] CREATE_DIALOG(message_id=8024*, default_option=1*, option_flags=0*)
    → "Deliver the linkpearl? [Of course I will./Not right now.]"
 16: 0x0056 [0x25] WAIT_DIALOG_SELECT()
 17: 0x0057 [0x02] IF !(Work_Zone[0] == 0*) GOTO 0x0067
 18: 0x005F [0x03] Work_Zone[1] = 1*
 19: 0x0064 [0x01] GOTO 0x0079
 20: 0x0067 [0x02] IF !(Work_Zone[0] == 1*) GOTO 0x0079
 21: 0x006F [0x1D] PRINT_EVENT_MESSAGE(message_id=8025*)
    → "Y-you won't? But...my husband might be d-dying...<sniffle>...in a ditch somewhere...<sob>..."
 22: 0x0072 [0x23] WAIT_FOR_DIALOG_INTERACTION
 23: 0x0073 [0x01] GOTO 0x0093

SUBROUTINE_0079:
 24: 0x0079 [0x1D] PRINT_EVENT_MESSAGE(message_id=8026*)
    → "I cannot thank you enough! My husband's name is Aaveleon."
 25: 0x007C [0x23] WAIT_FOR_DIALOG_INTERACTION
 26: 0x007D [0x66] LOAD_EXT_SCHEDULER_MAIN: Load scheduler "pas0" with entities [EventEntity, EventEntity], work=30*
 27: 0x008C [0x1C] WAIT(240* ticks)
 28: 0x008F [0x1D] PRINT_EVENT_MESSAGE(message_id=8027*)
    → "He should be patrolling La Theine as we speak. Please hurry, or I fear I shall lose my mind!"
 29: 0x0092 [0x23] WAIT_FOR_DIALOG_INTERACTION

SUBROUTINE_0093:
 30: 0x0093 [0x21] END_EVENT
 31: 0x0094 [0x00] END_REQSTACK()
```

#### Data or dead code:

```
# Dead code (unreachable instructions):
     0x0076 [0x01] GOTO 0x0079
```

### Event 215

#### Metadata

| Field        | Value    |
|--------------|----------|
| Entrypoint   | 0x0095   |
| Data Size    | 32 bytes |
| Instructions | 10       |

```
      00 01 02 03 04 05 06 07  08 09 0A 0B 0C 0D 0E 0F
      -- -- -- -- -- -- -- --  -- -- -- -- -- -- -- --
0090:                1E F0 FF  FF 7F 6F 70 66 00 80 F8       .....opf...
00A0: FF FF 7F F8 FF FF 7F 74  6C 6B 30 1D 0C 80 23 1D  .......tlk0...#.
00B0: 0E 80 23 21 00                                    ..#!.           
```

#### Opcodes

```
  0: 0x0095 [0x1E] EventEntity looks at LocalPlayer and starts talking
  1: 0x009A [0x6F] WAIT_FRAME_DELAY: Yield until WaitTime reaches zero
  2: 0x009B [0x70] WAIT_ENTITY_RENDER_FLAG: Wait while EventEntity->Render.Flags3 bit 2 is set (cancel turn if not)
  3: 0x009C [0x66] LOAD_EXT_SCHEDULER_MAIN: Load scheduler "tlk0" with entities [EventEntity, EventEntity], work=30*
  4: 0x00AB [0x1D] PRINT_EVENT_MESSAGE(message_id=8026*)
    → "I cannot thank you enough! My husband's name is Aaveleon."
  5: 0x00AE [0x23] WAIT_FOR_DIALOG_INTERACTION
  6: 0x00AF [0x1D] PRINT_EVENT_MESSAGE(message_id=8027*)
    → "He should be patrolling La Theine as we speak. Please hurry, or I fear I shall lose my mind!"
  7: 0x00B2 [0x23] WAIT_FOR_DIALOG_INTERACTION
  8: 0x00B3 [0x21] END_EVENT
  9: 0x00B4 [0x00] END_REQSTACK()
```

### Event 216

#### Metadata

| Field        | Value    |
|--------------|----------|
| Entrypoint   | 0x00B5   |
| Data Size    | 52 bytes |
| Instructions | 13       |

```
      00 01 02 03 04 05 06 07  08 09 0A 0B 0C 0D 0E 0F
      -- -- -- -- -- -- -- --  -- -- -- -- -- -- -- --
00B0:                20 01 42  1E F0 FF FF 7F 6F 70 66        .B.....opf
00C0: 00 80 F8 FF FF 7F F8 FF  FF 7F 74 6C 6B 30 1D 0F  ..........tlk0..
00D0: 80 23 1D 10 80 23 45 11  80 F0 FF FF 7F F0 FF FF  .#...#E.........
00E0: 7F 71 73 74 63 0A 80 21  00                       .qstc..!.       
```

#### Opcodes

```
  0: 0x00B5 [0x20] SET_CLI_EVENT_UC_FLAG: Lock player control
  1: 0x00B7 [0x42] SET_CLI_EVENT_CANCEL_DATA()
  2: 0x00B8 [0x1E] EventEntity looks at LocalPlayer and starts talking
  3: 0x00BD [0x6F] WAIT_FRAME_DELAY: Yield until WaitTime reaches zero
  4: 0x00BE [0x70] WAIT_ENTITY_RENDER_FLAG: Wait while EventEntity->Render.Flags3 bit 2 is set (cancel turn if not)
  5: 0x00BF [0x66] LOAD_EXT_SCHEDULER_MAIN: Load scheduler "tlk0" with entities [EventEntity, EventEntity], work=30*
  6: 0x00CE [0x1D] PRINT_EVENT_MESSAGE(message_id=8028*)
    → "I was able to regain contact with my husband again. Thank you so much!"
  7: 0x00D1 [0x23] WAIT_FOR_DIALOG_INTERACTION
  8: 0x00D2 [0x1D] PRINT_EVENT_MESSAGE(message_id=8029*)
    → "The world may never again know peace and tranquility. But for the sake of our loved ones, we must ever hold on to hope."
  9: 0x00D5 [0x23] WAIT_FOR_DIALOG_INTERACTION
 10: 0x00D6 [0x45] LOAD_SCHEDULED_TASK: Load scheduler "qstc" with entities [LocalPlayer, LocalPlayer], work=[201*, 0*]
 11: 0x00E7 [0x21] END_EVENT
 12: 0x00E8 [0x00] END_REQSTACK()
```

### Event 217

#### Metadata

| Field        | Value    |
|--------------|----------|
| Entrypoint   | 0x00E9   |
| Data Size    | 28 bytes |
| Instructions | 8        |

```
      00 01 02 03 04 05 06 07  08 09 0A 0B 0C 0D 0E 0F
      -- -- -- -- -- -- -- --  -- -- -- -- -- -- -- --
00E0:                             1E F0 FF FF 7F 6F 70           .....op
00F0: 66 00 80 F8 FF FF 7F F8  FF FF 7F 74 6C 6B 30 1D  f..........tlk0.
0100: 10 80 23 21 00                                    ..#!.           
```

#### Opcodes

```
  0: 0x00E9 [0x1E] EventEntity looks at LocalPlayer and starts talking
  1: 0x00EE [0x6F] WAIT_FRAME_DELAY: Yield until WaitTime reaches zero
  2: 0x00EF [0x70] WAIT_ENTITY_RENDER_FLAG: Wait while EventEntity->Render.Flags3 bit 2 is set (cancel turn if not)
  3: 0x00F0 [0x66] LOAD_EXT_SCHEDULER_MAIN: Load scheduler "tlk0" with entities [EventEntity, EventEntity], work=30*
  4: 0x00FF [0x1D] PRINT_EVENT_MESSAGE(message_id=8029*)
    → "The world may never again know peace and tranquility. But for the sake of our loved ones, we must ever hold on to hope."
  5: 0x0102 [0x23] WAIT_FOR_DIALOG_INTERACTION
  6: 0x0103 [0x21] END_EVENT
  7: 0x0104 [0x00] END_REQSTACK()
```
