# 17318649

## Common Data

| Field            | Value                         |
|------------------|-------------------------------|
| Zone             | Abyssea - La Theine (ID: 132) |
| Block Size       | 96 bytes                      |
| Total Events     | 3                             |
| References Count | 5                             |

## List of Events

| Event ID                 | Entrypoint   |   Size |   Instructions |
|--------------------------|--------------|--------|----------------|
| [65535](#event-65535)    | 0x0000       |      1 |              1 |
| [152](#event-152)        | 0x0001       |      1 |              1 |
| [65535.1](#event-655351) | 0x0002       |     43 |              7 |

## DAT References (imed_data)

|   Index | Hex Value   |   Dec Value |
|---------|-------------|-------------|
|       0 | 0x01F4      |         500 |
|       1 | 0x0001      |           1 |
|       2 | 0x01A4      |         420 |
|       3 | 0x00C8      |         200 |
|       4 | 0x0000      |           0 |

## Events

### Event 65535

#### Metadata

| Field        | Value   |
|--------------|---------|
| Entrypoint   | 0x0000  |
| Data Size    | 1 bytes |
| Instructions | 1       |

```
      00 01 02 03 04 05 06 07  08 09 0A 0B 0C 0D 0E 0F
      -- -- -- -- -- -- -- --  -- -- -- -- -- -- -- --
0000: 00                                                .               
```

#### Opcodes

```
  0: 0x0000 [0x00] END_REQSTACK()
```

### Event 152

#### Metadata

| Field        | Value   |
|--------------|---------|
| Entrypoint   | 0x0001  |
| Data Size    | 1 bytes |
| Instructions | 1       |

```
      00 01 02 03 04 05 06 07  08 09 0A 0B 0C 0D 0E 0F
      -- -- -- -- -- -- -- --  -- -- -- -- -- -- -- --
0000:    00                                              .              
```

#### Opcodes

```
  0: 0x0001 [0x00] END_REQSTACK()
```

### Event 65535.1

#### Metadata

| Field        | Value    |
|--------------|----------|
| Entrypoint   | 0x0002   |
| Data Size    | 43 bytes |
| Instructions | 7        |

```
      00 01 02 03 04 05 06 07  08 09 0A 0B 0C 0D 0E 0F
      -- -- -- -- -- -- -- --  -- -- -- -- -- -- -- --
0000:       02 20 10 00 80 03  2C 00 1C 01 80 57 20 10    . ....,....W .
0010: 02 20 10 02 80 00 29 00  45 03 80 F0 FF FF 7F F0  . ....).E.......
0020: FF FF 7F 66 64 6F 31 04  80 01 02 00 00           ...fdo1......   
```

#### Opcodes

```
  0: 0x0002 [0x02] IF !(Work_Zone[32] >= 500*) GOTO 0x002C
  1: 0x000A [0x1C] WAIT(1* ticks)
  2: 0x000D [0x57] CREATE_FRAME_DELAY(delay=Work_Zone[32])
  3: 0x0010 [0x02] IF !(Work_Zone[32] == 420*) GOTO 0x0029
  4: 0x0018 [0x45] LOAD_SCHEDULED_TASK: Load scheduler "fdo1" with entities [LocalPlayer, LocalPlayer], work=[200*, 0*]
  5: 0x0029 [0x01] GOTO 0x0002
  6: 0x002C [0x00] END_REQSTACK()
```
