# 17318614 - Curilla

## Common Data

| Field            | Value                         |
|------------------|-------------------------------|
| Zone             | Abyssea - La Theine (ID: 132) |
| Block Size       | 1280 bytes                    |
| Total Events     | 7                             |
| References Count | 48                            |

## List of Events

| Event ID              | Entrypoint   |   Size |   Instructions |
|-----------------------|--------------|--------|----------------|
| [65535](#event-65535) | 0x0000       |      1 |              1 |
| [189](#event-189)     | 0x0001       |     13 |              7 |
| [190](#event-190)     | 0x000E       |    736 |            115 |
| [191](#event-191)     | 0x02EE       |     28 |              8 |
| [192](#event-192)     | 0x030A       |    147 |             32 |
| [193](#event-193)     | 0x039D       |     33 |              9 |
| [194](#event-194)     | 0x03BE       |     85 |             23 |

## DAT References (imed_data)

|   Index | Hex Value   |   Dec Value |
|---------|-------------|-------------|
|       0 | 0x1EED      |        7917 |
|       1 | 0x061B      |        1563 |
|       2 | 0x0023      |          35 |
|       3 | 0x1EEE      |        7918 |
|       4 | 0x1EEF      |        7919 |
|       5 | 0x1EF0      |        7920 |
|       6 | 0x00C8      |         200 |
|       7 | 0x0000      |           0 |
|       8 | 0x00B4      |         180 |
|       9 | 0x0013      |          19 |
|      10 | 0xFFF8D4E7  |  4294497511 |
|      11 | 0xBBF13     |      769811 |
|      12 | 0xFFFFF658  |  4294964824 |
|      13 | 0x0F98      |        3992 |
|      14 | 0x01C9      |         457 |
|      15 | 0x003C      |          60 |
|      16 | 0x1EF1      |        7921 |
|      17 | 0x1EF2      |        7922 |
|      18 | 0x1EF3      |        7923 |
|      19 | 0x00C9      |         201 |
|      20 | 0x008C      |         140 |
|      21 | 0x1EF4      |        7924 |
|      22 | 0x00A1      |         161 |
|      23 | 0x1EF5      |        7925 |
|      24 | 0x1EF6      |        7926 |
|      25 | 0x1EF7      |        7927 |
|      26 | 0x1EF8      |        7928 |
|      27 | 0x0033      |          51 |
|      28 | 0x1EF9      |        7929 |
|      29 | 0x062C      |        1580 |
|      30 | 0x1EFA      |        7930 |
|      31 | 0x0596      |        1430 |
|      32 | 0x1EFB      |        7931 |
|      33 | 0x1EFC      |        7932 |
|      34 | 0x1EFD      |        7933 |
|      35 | 0x0001      |           1 |
|      36 | 0x1EFE      |        7934 |
|      37 | 0x1EFF      |        7935 |
|      38 | 0x1F00      |        7936 |
|      39 | 0x1F01      |        7937 |
|      40 | 0x1F02      |        7938 |
|      41 | 0x1F03      |        7939 |
|      42 | 0x1F04      |        7940 |
|      43 | 0x00F0      |         240 |
|      44 | 0x1F05      |        7941 |
|      45 | 0x1F06      |        7942 |
|      46 | 0x1F07      |        7943 |
|      47 | 0x1F08      |        7944 |

## String References

- **7917**: ......
- **7922**: ...Hmm?
- **7923**: Wh-what am I... Where're all...
- **7924**: <Gasp>!
- **7925**: Th-the world is being watched!
- **7926**: From a place far beyond mortal reach...by eyes intent and forbidding...
- **7928**: I-I know not how I've come to possess this knowledge... Could it be...when I came in contact with that creature?
- **7929**: You are [he/she] who brought me the medicine, correct? I would ask another boon of you.
- **7930**: The vile creature that took my eye is a gnole known as Lugarhoo. I ask that you be my blade of retribution and slay it, and deliver me its left eye as proof of the deed.
- **7931**: Gift me with the closure I seek, and in return I shall entrust to you my $3.
- **7932**: Its power is far beyond one of my modest capacity, but in your hands I sense that great feats shall be accomplished.
- **7933**: Avenge Curilla's left eye? [That mangy gnole will pay!/I'd sooner not get involved.]
- **7934**: ...Then we have naught left to discuss. Leave me in peace.
- **7937**: This means more to me than you know. Thank you. We've known each other for but a moment, yet I feel that uncommon courage emanates from you.
- **7938**: Be warned that Lugarhoo is no ordinary gnole and shan't be felled with ease. I pray for your safety and success.
- **7939**: Incredible! You truly defeated Lugarhoo! Your potential knows no bounds, 'twould seem.
- **7940**: Thanks to you, my heart may be at peace once more. Here is the $3 I promised. May it serve you well.
- **7941**: My fervent desire for revenge had divested me of my manners, but now I would know the name of my champion.
- **7942**: What is your name? [I am known as <Player>./My identity is of no import.]
- **7943**: <Player>... That is a name I shall never forget. I beseech you. Please stand by my people and I as we continue our journey through this darkest of valleys.
- **7944**: You are as modest as you are valiant, $0. I beseech you. Please stand by my people and I as we continue our journey through this darkest of valleys.

## Events

### Event 65535

#### Metadata

| Field        | Value   |
|--------------|---------|
| Entrypoint   | 0x0000  |
| Data Size    | 1 bytes |
| Instructions | 1       |

```
      00 01 02 03 04 05 06 07  08 09 0A 0B 0C 0D 0E 0F
      -- -- -- -- -- -- -- --  -- -- -- -- -- -- -- --
0000: 00                                                .               
```

#### Opcodes

```
  0: 0x0000 [0x00] END_REQSTACK()
```

### Event 189

#### Metadata

| Field        | Value    |
|--------------|----------|
| Entrypoint   | 0x0001   |
| Data Size    | 13 bytes |
| Instructions | 7        |

```
      00 01 02 03 04 05 06 07  08 09 0A 0B 0C 0D 0E 0F
      -- -- -- -- -- -- -- --  -- -- -- -- -- -- -- --
0000:    1E F0 FF FF 7F 6F 70  1D 00 80 23 21 00         .....op...#!.  
```

#### Opcodes

```
  0: 0x0001 [0x1E] EventEntity looks at LocalPlayer and starts talking
  1: 0x0006 [0x6F] WAIT_FRAME_DELAY: Yield until WaitTime reaches zero
  2: 0x0007 [0x70] WAIT_ENTITY_RENDER_FLAG: Wait while EventEntity->Render.Flags3 bit 2 is set (cancel turn if not)
  3: 0x0008 [0x1D] PRINT_EVENT_MESSAGE(message_id=7917*)
    → "......"
  4: 0x000B [0x23] WAIT_FOR_DIALOG_INTERACTION
  5: 0x000C [0x21] END_EVENT
  6: 0x000D [0x00] END_REQSTACK()
```

### Event 190

#### Metadata

| Field        | Value     |
|--------------|-----------|
| Entrypoint   | 0x000E    |
| Data Size    | 736 bytes |
| Instructions | 114       |

```
      00 01 02 03 04 05 06 07  08 09 0A 0B 0C 0D 0E 0F
      -- -- -- -- -- -- -- --  -- -- -- -- -- -- -- --
0000:                                            20 01                 .
0010: 42 1E F0 FF FF 7F 6F 70  03 02 10 01 80 4A F6 42  B.....op.....J.B
0020: 08 01 F0 FF FF 7F 5B 02  80 F6 42 08 01 F6 42 08  ......[...B...B.
0030: 01 74 6C 6B 30 2B F6 42  08 01 03 80 23 2B F6 42  .tlk0+.B....#+.B
0040: 08 01 04 80 23 2B F6 42  08 01 05 80 23 45 06 80  ....#+.B....#E..
0050: F0 FF FF 7F F0 FF FF 7F  66 64 6F 31 07 80 1C 08  ........fdo1....
0060: 80 38 09 80 BA F0 FF FF  7F 0A 80 0B 80 0C 80 0D  .8..............
0070: 80 80 F0 FF FF 7F 92 01  F6 42 08 01 92 01 D6 42  .........B.....B
0080: 08 01 92 01 DD 42 08 01  4A F6 42 08 01 D6 42 08  .....B..J.B...B.
0090: 01 1E F6 42 08 01 6F 70  46 01 45 0E 80 F0 FF FF  ...B..opF.E.....
00A0: 7F F0 FF FF 7F 63 6C 30  30 07 80 45 06 80 F0 FF  .....cl00..E....
00B0: FF 7F F0 FF FF 7F 66 64  69 31 07 80 1C 0F 80 5B  ......fdi1.....[
00C0: 02 80 F6 42 08 01 F6 42  08 01 74 6C 6B 30 2B F6  ...B...B..tlk0+.
00D0: 42 08 01 10 80 23 1D 11  80 23 1D 12 80 23 1E F0  B....#...#...#..
00E0: FF FF 7F 52 0E 80 F0 FF  FF 7F F0 FF FF 7F 63 6C  ...R..........cl
00F0: 30 30 45 06 80 F0 FF FF  7F F0 FF FF 7F 62 6C 6F  00E..........blo
0100: 6E 07 80 45 13 80 F0 FF  FF 7F F0 FF FF 7F 62 6C  n..E..........bl
0110: 6F 6E 07 80 45 0E 80 F0  FF FF 7F F0 FF FF 7F 63  on..E..........c
0120: 6C 30 31 07 80 5B 14 80  F8 FF FF 7F F8 FF FF 7F  l01..[..........
0130: 74 6C 6B 30 1D 15 80 23  5C 00 16 80 5C 01 16 80  tlk0...#\...\...
0140: 9A 1D 17 80 23 1D 18 80  23 52 0E 80 F0 FF FF 7F  ....#...#R......
0150: F0 FF FF 7F 63 6C 30 31  45 06 80 F0 FF FF 7F F0  ....cl01E.......
0160: FF FF 7F 62 6C 6F 66 07  80 45 0E 80 F0 FF FF 7F  ...blof..E......
0170: F0 FF FF 7F 63 6C 30 30  07 80 2B F6 42 08 01 19  ....cl00..+.B...
0180: 80 23 5B 14 80 F8 FF FF  7F F8 FF FF 7F 74 6C 6B  .#[..........tlk
0190: 31 53 F8 FF FF 7F F8 FF  FF 7F 74 6C 6B 31 5B 14  1S........tlk1[.
01A0: 80 F8 FF FF 7F F8 FF FF  7F 74 68 6B 31 1D 1A 80  .........thk1...
01B0: 23 5B 14 80 F8 FF FF 7F  F8 FF FF 7F 74 6C 6B 32  #[..........tlk2
01C0: 53 F8 FF FF 7F F8 FF FF  7F 74 6C 6B 32 1E F0 FF  S........tlk2...
01D0: FF 7F 6F 70 52 0E 80 F0  FF FF 7F F0 FF FF 7F 63  ..opR..........c
01E0: 6C 30 30 45 0E 80 F0 FF  FF 7F F0 FF FF 7F 63 6C  l00E..........cl
01F0: 30 32 07 80 5C 00 1B 80  5C 01 1B 80 9A 5B 14 80  02..\...\....[..
0200: F8 FF FF 7F F8 FF FF 7F  74 6C 6B 30 1D 1C 80 23  ........tlk0...#
0210: 4A F6 42 08 01 F0 FF FF  7F 03 02 10 1D 80 1D 1E  J.B.............
0220: 80 23 03 02 10 1F 80 1D  20 80 23 1D 21 80 23 24  .#...... .#.!.#$
0230: 22 80 23 80 07 80 25 02  00 10 07 80 00 47 02 03  ".#...%......G..
0240: 01 10 23 80 01 7B 02 02  00 10 23 80 00 7B 02 1D  ..#..{....#..{..
0250: 24 80 23 4A F6 42 08 01  D6 42 08 01 2B F6 42 08  $.#J.B...B..+.B.
0260: 01 25 80 23 4A F6 42 08  01 F0 FF FF 7F 2B F6 42  .%.#J.B......+.B
0270: 08 01 26 80 23 01 2F 02  01 7B 02 52 0E 80 F0 FF  ..&.#./..{.R....
0280: FF 7F F0 FF FF 7F 63 6C  30 32 45 06 80 F0 FF FF  ......cl02E.....
0290: 7F F0 FF FF 7F 6F 76 6C  31 07 80 45 0E 80 F0 FF  .....ovl1..E....
02A0: FF 7F F0 FF FF 7F 63 6C  30 33 07 80 1D 27 80 23  ......cl03...'.#
02B0: 1D 28 80 23 45 06 80 F0  FF FF 7F F0 FF FF 7F 66  .(.#E..........f
02C0: 64 6F 31 07 80 1C 0F 80  52 0E 80 F0 FF FF 7F F0  do1.....R.......
02D0: FF FF 7F 63 6C 30 33 46  00 45 06 80 F0 FF FF 7F  ...cl03F.E......
02E0: F0 FF FF 7F 66 64 69 31  07 80 20 00 21 00        ....fdi1.. .!.  
```

#### Opcodes

```
  0: 0x000E [0x20] SET_CLI_EVENT_UC_FLAG: Lock player control
  1: 0x0010 [0x42] SET_CLI_EVENT_CANCEL_DATA()
  2: 0x0011 [0x1E] EventEntity looks at LocalPlayer and starts talking
  3: 0x0016 [0x6F] WAIT_FRAME_DELAY: Yield until WaitTime reaches zero
  4: 0x0017 [0x70] WAIT_ENTITY_RENDER_FLAG: Wait while EventEntity->Render.Flags3 bit 2 is set (cancel turn if not)
  5: 0x0018 [0x03] Work_Zone[2] = 1563*
  6: 0x001D [0x4A] Amaura (ID: 17318646/0x010842F6) looks at LocalPlayer
  7: 0x0026 [0x5B] LOAD_EXT_SCHEDULER: Load scheduler "tlk0" with entities [Amaura (ID: 17318646/0x010842F6), Amaura (ID: 17318646/0x010842F6)], work=35*
  8: 0x0035 [0x2B] Amaura (ID: 17318646/0x010842F6) [7918*]:
    → "Well, pinch my cheeks and call me senile! If it isn't $6!"
  9: 0x003C [0x23] WAIT_FOR_DIALOG_INTERACTION
 10: 0x003D [0x2B] Amaura (ID: 17318646/0x010842F6) [7919*]:
    → "I'm pleased to see that young Halver's efforts've finally borne fruit. Now we can only pray that the medicine serves its purpose."
 11: 0x0044 [0x23] WAIT_FOR_DIALOG_INTERACTION
 12: 0x0045 [0x2B] Amaura (ID: 17318646/0x010842F6) [7920*]:
    → "And there's only one way to find out..."
 13: 0x004C [0x23] WAIT_FOR_DIALOG_INTERACTION
 14: 0x004D [0x45] LOAD_SCHEDULED_TASK: Load scheduler "fdo1" with entities [LocalPlayer, LocalPlayer], work=[200*, 0*]
 15: 0x005E [0x1C] WAIT(180* ticks)
 16: 0x0061 [0x38] SET_CLIENT_EVENT_MODE(mode=19*)
 17: 0x0064 [0xBA] SET_ENTITY_POSITION(entity_id=LocalPlayer, pos_x=-469.785*, pos_z=769.811*, pos_y=-2.472*, direction=350.8°*)
 18: 0x0071 [0x80] LOAD_WAIT(entity=LocalPlayer)
 19: 0x0076 [0x92] Amaura (ID: 17318646/0x010842F6)->Render.Flags3 ^= 0x01
 20: 0x007C [0x92] Curilla (ID: 17318614/0x010842D6)->Render.Flags3 ^= 0x01
 21: 0x0082 [0x92] Daveille (ID: 17318621/0x010842DD)->Render.Flags3 ^= 0x01
 22: 0x0088 [0x4A] Amaura (ID: 17318646/0x010842F6) looks at Curilla (ID: 17318614/0x010842D6)
 23: 0x0091 [0x1E] EventEntity looks at Amaura (ID: 17318646/0x010842F6) and starts talking
 24: 0x0096 [0x6F] WAIT_FRAME_DELAY: Yield until WaitTime reaches zero
 25: 0x0097 [0x70] WAIT_ENTITY_RENDER_FLAG: Wait while EventEntity->Render.Flags3 bit 2 is set (cancel turn if not)
 26: 0x0098 [0x46] CAMERA_CONTROL: Disable user control
 27: 0x009A [0x45] LOAD_SCHEDULED_TASK: Load scheduler "cl00" with entities [LocalPlayer, LocalPlayer], work=[457*, 0*]
 28: 0x00AB [0x45] LOAD_SCHEDULED_TASK: Load scheduler "fdi1" with entities [LocalPlayer, LocalPlayer], work=[200*, 0*]
 29: 0x00BC [0x1C] WAIT(60* ticks)
 30: 0x00BF [0x5B] LOAD_EXT_SCHEDULER: Load scheduler "tlk0" with entities [Amaura (ID: 17318646/0x010842F6), Amaura (ID: 17318646/0x010842F6)], work=35*
 31: 0x00CE [0x2B] Amaura (ID: 17318646/0x010842F6) [7921*]:
    → "Feelin' any better, young lady? Have ye finally come back to us?"
 32: 0x00D5 [0x23] WAIT_FOR_DIALOG_INTERACTION
 33: 0x00D6 [0x1D] PRINT_EVENT_MESSAGE(message_id=7922*)
    → "...Hmm?"
 34: 0x00D9 [0x23] WAIT_FOR_DIALOG_INTERACTION
 35: 0x00DA [0x1D] PRINT_EVENT_MESSAGE(message_id=7923*)
    → "Wh-what am I... Where're all..."
 36: 0x00DD [0x23] WAIT_FOR_DIALOG_INTERACTION
 37: 0x00DE [0x1E] EventEntity looks at LocalPlayer and starts talking
 38: 0x00E3 [0x52] END_LOAD_SCHEDULER: End scheduler "cl00" with entities [LocalPlayer, LocalPlayer], work=457*
 39: 0x00F2 [0x45] LOAD_SCHEDULED_TASK: Load scheduler "blon" with entities [LocalPlayer, LocalPlayer], work=[200*, 0*]
 40: 0x0103 [0x45] LOAD_SCHEDULED_TASK: Load scheduler "blon" with entities [LocalPlayer, LocalPlayer], work=[201*, 0*]
 41: 0x0114 [0x45] LOAD_SCHEDULED_TASK: Load scheduler "cl01" with entities [LocalPlayer, LocalPlayer], work=[457*, 0*]
 42: 0x0125 [0x5B] LOAD_EXT_SCHEDULER: Load scheduler "tlk0" with entities [EventEntity, EventEntity], work=140*
 43: 0x0134 [0x1D] PRINT_EVENT_MESSAGE(message_id=7924*)
    → "<Gasp>!"
 44: 0x0137 [0x23] WAIT_FOR_DIALOG_INTERACTION
 45: 0x0138 [0x5C] MUSIC_CONTROL: Set Idle (Day) music to song 161*
 46: 0x013C [0x5C] MUSIC_CONTROL: Set Idle (Night) music to song 161*
 47: 0x0140 [0x9A] WAIT_MUSIC_SERVER()
 48: 0x0141 [0x1D] PRINT_EVENT_MESSAGE(message_id=7925*)
    → "Th-the world is being watched!"
 49: 0x0144 [0x23] WAIT_FOR_DIALOG_INTERACTION
 50: 0x0145 [0x1D] PRINT_EVENT_MESSAGE(message_id=7926*)
    → "From a place far beyond mortal reach...by eyes intent and forbidding..."
 51: 0x0148 [0x23] WAIT_FOR_DIALOG_INTERACTION
 52: 0x0149 [0x52] END_LOAD_SCHEDULER: End scheduler "cl01" with entities [LocalPlayer, LocalPlayer], work=457*
 53: 0x0158 [0x45] LOAD_SCHEDULED_TASK: Load scheduler "blof" with entities [LocalPlayer, LocalPlayer], work=[200*, 0*]
 54: 0x0169 [0x45] LOAD_SCHEDULED_TASK: Load scheduler "cl00" with entities [LocalPlayer, LocalPlayer], work=[457*, 0*]
 55: 0x017A [0x2B] Amaura (ID: 17318646/0x010842F6) [7927*]:
    → "Eh? I'm afraid all of what ye just said went right over my head. Mind puttin' it in simpler terms for old Amaura?"
 56: 0x0181 [0x23] WAIT_FOR_DIALOG_INTERACTION
 57: 0x0182 [0x5B] LOAD_EXT_SCHEDULER: Load scheduler "tlk1" with entities [EventEntity, EventEntity], work=140*
 58: 0x0191 [0x53] WAIT_SCHEDULER_TASK: Wait for scheduler "tlk1" with entities [EventEntity, EventEntity]
 59: 0x019E [0x5B] LOAD_EXT_SCHEDULER: Load scheduler "thk1" with entities [EventEntity, EventEntity], work=140*
 60: 0x01AD [0x1D] PRINT_EVENT_MESSAGE(message_id=7928*)
    → "I-I know not how I've come to possess this knowledge... Could it be...when I came in contact with that creature?"
 61: 0x01B0 [0x23] WAIT_FOR_DIALOG_INTERACTION
 62: 0x01B1 [0x5B] LOAD_EXT_SCHEDULER: Load scheduler "tlk2" with entities [EventEntity, EventEntity], work=140*
 63: 0x01C0 [0x53] WAIT_SCHEDULER_TASK: Wait for scheduler "tlk2" with entities [EventEntity, EventEntity]
 64: 0x01CD [0x1E] EventEntity looks at LocalPlayer and starts talking
 65: 0x01D2 [0x6F] WAIT_FRAME_DELAY: Yield until WaitTime reaches zero
 66: 0x01D3 [0x70] WAIT_ENTITY_RENDER_FLAG: Wait while EventEntity->Render.Flags3 bit 2 is set (cancel turn if not)
 67: 0x01D4 [0x52] END_LOAD_SCHEDULER: End scheduler "cl00" with entities [LocalPlayer, LocalPlayer], work=457*
 68: 0x01E3 [0x45] LOAD_SCHEDULED_TASK: Load scheduler "cl02" with entities [LocalPlayer, LocalPlayer], work=[457*, 0*]
 69: 0x01F4 [0x5C] MUSIC_CONTROL: Set Idle (Day) music to song 51*
 70: 0x01F8 [0x5C] MUSIC_CONTROL: Set Idle (Night) music to song 51*
 71: 0x01FC [0x9A] WAIT_MUSIC_SERVER()
 72: 0x01FD [0x5B] LOAD_EXT_SCHEDULER: Load scheduler "tlk0" with entities [EventEntity, EventEntity], work=140*
 73: 0x020C [0x1D] PRINT_EVENT_MESSAGE(message_id=7929*)
    → "You are [he/she] who brought me the medicine, correct? I would ask another boon of you."
 74: 0x020F [0x23] WAIT_FOR_DIALOG_INTERACTION
 75: 0x0210 [0x4A] Amaura (ID: 17318646/0x010842F6) looks at LocalPlayer
 76: 0x0219 [0x03] Work_Zone[2] = 1580*
 77: 0x021E [0x1D] PRINT_EVENT_MESSAGE(message_id=7930*)
    → "The vile creature that took my eye is a gnole known as Lugarhoo. I ask that you be my blade of retribution and slay it, and deliver me its left eye as proof of the deed."
 78: 0x0221 [0x23] WAIT_FOR_DIALOG_INTERACTION
 79: 0x0222 [0x03] Work_Zone[2] = 1430*
 80: 0x0227 [0x1D] PRINT_EVENT_MESSAGE(message_id=7931*)
    → "Gift me with the closure I seek, and in return I shall entrust to you my $3."
 81: 0x022A [0x23] WAIT_FOR_DIALOG_INTERACTION
 82: 0x022B [0x1D] PRINT_EVENT_MESSAGE(message_id=7932*)
    → "Its power is far beyond one of my modest capacity, but in your hands I sense that great feats shall be accomplished."
 83: 0x022E [0x23] WAIT_FOR_DIALOG_INTERACTION
 84: 0x022F [0x24] CREATE_DIALOG(message_id=7933*, default_option=1*, option_flags=0*)
    → "Avenge Curilla's left eye? [That mangy gnole will pay!/I'd sooner not get involved.]"
 85: 0x0236 [0x25] WAIT_DIALOG_SELECT()
 86: 0x0237 [0x02] IF !(Work_Zone[0] == 0*) GOTO 0x0247
 87: 0x023F [0x03] Work_Zone[1] = 1*
 88: 0x0244 [0x01] GOTO 0x027B
 89: 0x0247 [0x02] IF !(Work_Zone[0] == 1*) GOTO 0x027B
 90: 0x024F [0x1D] PRINT_EVENT_MESSAGE(message_id=7934*)
    → "...Then we have naught left to discuss. Leave me in peace."
 91: 0x0252 [0x23] WAIT_FOR_DIALOG_INTERACTION
 92: 0x0253 [0x4A] Amaura (ID: 17318646/0x010842F6) looks at Curilla (ID: 17318614/0x010842D6)
 93: 0x025C [0x2B] Amaura (ID: 17318646/0x010842F6) [7935*]:
    → "Awww, ye mustn't give up, young lady. Why, ye're the one who's brought so much hope to all of us here!"
 94: 0x0263 [0x23] WAIT_FOR_DIALOG_INTERACTION
 95: 0x0264 [0x4A] Amaura (ID: 17318646/0x010842F6) looks at LocalPlayer
 96: 0x026D [0x2B] Amaura (ID: 17318646/0x010842F6) [7936*]:
    → "I beg ye to reconsider. Won't ye do this lil' favor for poor Curilla?"
 97: 0x0274 [0x23] WAIT_FOR_DIALOG_INTERACTION
 98: 0x0275 [0x01] GOTO 0x022F

SUBROUTINE_027B:
 99: 0x027B [0x52] END_LOAD_SCHEDULER: End scheduler "cl02" with entities [LocalPlayer, LocalPlayer], work=457*
100: 0x028A [0x45] LOAD_SCHEDULED_TASK: Load scheduler "ovl1" with entities [LocalPlayer, LocalPlayer], work=[200*, 0*]
101: 0x029B [0x45] LOAD_SCHEDULED_TASK: Load scheduler "cl03" with entities [LocalPlayer, LocalPlayer], work=[457*, 0*]
102: 0x02AC [0x1D] PRINT_EVENT_MESSAGE(message_id=7937*)
    → "This means more to me than you know. Thank you. We've known each other for but a moment, yet I feel that uncommon courage emanates from you."
103: 0x02AF [0x23] WAIT_FOR_DIALOG_INTERACTION
104: 0x02B0 [0x1D] PRINT_EVENT_MESSAGE(message_id=7938*)
    → "Be warned that Lugarhoo is no ordinary gnole and shan't be felled with ease. I pray for your safety and success."
105: 0x02B3 [0x23] WAIT_FOR_DIALOG_INTERACTION
106: 0x02B4 [0x45] LOAD_SCHEDULED_TASK: Load scheduler "fdo1" with entities [LocalPlayer, LocalPlayer], work=[200*, 0*]
107: 0x02C5 [0x1C] WAIT(60* ticks)
108: 0x02C8 [0x52] END_LOAD_SCHEDULER: End scheduler "cl03" with entities [LocalPlayer, LocalPlayer], work=457*
109: 0x02D7 [0x46] CAMERA_CONTROL: Restore default settings
110: 0x02D9 [0x45] LOAD_SCHEDULED_TASK: Load scheduler "fdi1" with entities [LocalPlayer, LocalPlayer], work=[200*, 0*]
111: 0x02EA [0x20] SET_CLI_EVENT_UC_FLAG: Unlock player control
112: 0x02EC [0x21] END_EVENT
113: 0x02ED [0x00] END_REQSTACK()
```

#### Data or dead code:

```
# Dead code (unreachable instructions):
     0x0278 [0x01] GOTO 0x027B
```

### Event 191

#### Metadata

| Field        | Value    |
|--------------|----------|
| Entrypoint   | 0x02EE   |
| Data Size    | 28 bytes |
| Instructions | 8        |

```
      00 01 02 03 04 05 06 07  08 09 0A 0B 0C 0D 0E 0F
      -- -- -- -- -- -- -- --  -- -- -- -- -- -- -- --
02E0:                                            1E F0                ..
02F0: FF FF 7F 6F 70 5B 14 80  F8 FF FF 7F F8 FF FF 7F  ...op[..........
0300: 74 6C 6B 30 1D 28 80 23  21 00                    tlk0.(.#!.      
```

#### Opcodes

```
  0: 0x02EE [0x1E] EventEntity looks at LocalPlayer and starts talking
  1: 0x02F3 [0x6F] WAIT_FRAME_DELAY: Yield until WaitTime reaches zero
  2: 0x02F4 [0x70] WAIT_ENTITY_RENDER_FLAG: Wait while EventEntity->Render.Flags3 bit 2 is set (cancel turn if not)
  3: 0x02F5 [0x5B] LOAD_EXT_SCHEDULER: Load scheduler "tlk0" with entities [EventEntity, EventEntity], work=140*
  4: 0x0304 [0x1D] PRINT_EVENT_MESSAGE(message_id=7938*)
    → "Be warned that Lugarhoo is no ordinary gnole and shan't be felled with ease. I pray for your safety and success."
  5: 0x0307 [0x23] WAIT_FOR_DIALOG_INTERACTION
  6: 0x0308 [0x21] END_EVENT
  7: 0x0309 [0x00] END_REQSTACK()
```

### Event 192

#### Metadata

| Field        | Value     |
|--------------|-----------|
| Entrypoint   | 0x030A    |
| Data Size    | 147 bytes |
| Instructions | 32        |

```
      00 01 02 03 04 05 06 07  08 09 0A 0B 0C 0D 0E 0F
      -- -- -- -- -- -- -- --  -- -- -- -- -- -- -- --
0300:                                20 01 42 03 00 00             .B...
0310: 02 10 1E F0 FF FF 7F 6F  70 5B 14 80 F8 FF FF 7F  .......op[......
0320: F8 FF FF 7F 74 6C 6B 30  1D 29 80 23 03 02 10 1F  ....tlk0.).#....
0330: 80 1D 2A 80 23 5B 14 80  F8 FF FF 7F F8 FF FF 7F  ..*.#[..........
0340: 70 61 73 30 1C 2B 80 5B  14 80 F8 FF FF 7F F8 FF  pas0.+.[........
0350: FF 7F 74 6C 6B 30 1D 2C  80 23 24 2D 80 07 80 07  ..tlk0.,.#$-....
0360: 80 25 02 00 10 07 80 00  76 03 03 01 10 23 80 1D  .%......v....#..
0370: 2E 80 23 01 8A 03 02 00  10 23 80 00 8A 03 03 02  ..#......#......
0380: 10 00 00 1D 2F 80 23 01  8A 03 45 13 80 F0 FF FF  ..../.#...E.....
0390: 7F F0 FF FF 7F 71 73 74  63 07 80 21 00           .....qstc..!.   
```

#### Opcodes

```
  0: 0x030A [0x20] SET_CLI_EVENT_UC_FLAG: Lock player control
  1: 0x030C [0x42] SET_CLI_EVENT_CANCEL_DATA()
  2: 0x030D [0x03] ExtData[1]->WorkLocal[0] = Work_Zone[2]
  3: 0x0312 [0x1E] EventEntity looks at LocalPlayer and starts talking
  4: 0x0317 [0x6F] WAIT_FRAME_DELAY: Yield until WaitTime reaches zero
  5: 0x0318 [0x70] WAIT_ENTITY_RENDER_FLAG: Wait while EventEntity->Render.Flags3 bit 2 is set (cancel turn if not)
  6: 0x0319 [0x5B] LOAD_EXT_SCHEDULER: Load scheduler "tlk0" with entities [EventEntity, EventEntity], work=140*
  7: 0x0328 [0x1D] PRINT_EVENT_MESSAGE(message_id=7939*)
    → "Incredible! You truly defeated Lugarhoo! Your potential knows no bounds, 'twould seem."
  8: 0x032B [0x23] WAIT_FOR_DIALOG_INTERACTION
  9: 0x032C [0x03] Work_Zone[2] = 1430*
 10: 0x0331 [0x1D] PRINT_EVENT_MESSAGE(message_id=7940*)
    → "Thanks to you, my heart may be at peace once more. Here is the $3 I promised. May it serve you well."
 11: 0x0334 [0x23] WAIT_FOR_DIALOG_INTERACTION
 12: 0x0335 [0x5B] LOAD_EXT_SCHEDULER: Load scheduler "pas0" with entities [EventEntity, EventEntity], work=140*
 13: 0x0344 [0x1C] WAIT(240* ticks)
 14: 0x0347 [0x5B] LOAD_EXT_SCHEDULER: Load scheduler "tlk0" with entities [EventEntity, EventEntity], work=140*
 15: 0x0356 [0x1D] PRINT_EVENT_MESSAGE(message_id=7941*)
    → "My fervent desire for revenge had divested me of my manners, but now I would know the name of my champion."
 16: 0x0359 [0x23] WAIT_FOR_DIALOG_INTERACTION
 17: 0x035A [0x24] CREATE_DIALOG(message_id=7942*, default_option=0*, option_flags=0*)
    → "What is your name? [I am known as <Player>./My identity is of no import.]"
 18: 0x0361 [0x25] WAIT_DIALOG_SELECT()
 19: 0x0362 [0x02] IF !(Work_Zone[0] == 0*) GOTO 0x0376
 20: 0x036A [0x03] Work_Zone[1] = 1*
 21: 0x036F [0x1D] PRINT_EVENT_MESSAGE(message_id=7943*)
    → "<Player>... That is a name I shall never forget. I beseech you. Please stand by my people and I as we continue our journey through this darkest of valleys."
 22: 0x0372 [0x23] WAIT_FOR_DIALOG_INTERACTION
 23: 0x0373 [0x01] GOTO 0x038A
 24: 0x0376 [0x02] IF !(Work_Zone[0] == 1*) GOTO 0x038A
 25: 0x037E [0x03] Work_Zone[2] = ExtData[1]->WorkLocal[0]
 26: 0x0383 [0x1D] PRINT_EVENT_MESSAGE(message_id=7944*)
    → "You are as modest as you are valiant, $0. I beseech you. Please stand by my people and I as we continue our journey through this darkest of valleys."
 27: 0x0386 [0x23] WAIT_FOR_DIALOG_INTERACTION
 28: 0x0387 [0x01] GOTO 0x038A

SUBROUTINE_038A:
 29: 0x038A [0x45] LOAD_SCHEDULED_TASK: Load scheduler "qstc" with entities [LocalPlayer, LocalPlayer], work=[201*, 0*]
 30: 0x039B [0x21] END_EVENT
 31: 0x039C [0x00] END_REQSTACK()
```

### Event 193

#### Metadata

| Field        | Value    |
|--------------|----------|
| Entrypoint   | 0x039D   |
| Data Size    | 33 bytes |
| Instructions | 9        |

```
      00 01 02 03 04 05 06 07  08 09 0A 0B 0C 0D 0E 0F
      -- -- -- -- -- -- -- --  -- -- -- -- -- -- -- --
0390:                                         03 00 00               ...
03A0: 02 10 1E F0 FF FF 7F 6F  70 5B 14 80 F8 FF FF 7F  .......op[......
03B0: F8 FF FF 7F 74 6C 6B 30  1D 2E 80 23 21 00        ....tlk0...#!.  
```

#### Opcodes

```
  0: 0x039D [0x03] ExtData[1]->WorkLocal[0] = Work_Zone[2]
  1: 0x03A2 [0x1E] EventEntity looks at LocalPlayer and starts talking
  2: 0x03A7 [0x6F] WAIT_FRAME_DELAY: Yield until WaitTime reaches zero
  3: 0x03A8 [0x70] WAIT_ENTITY_RENDER_FLAG: Wait while EventEntity->Render.Flags3 bit 2 is set (cancel turn if not)
  4: 0x03A9 [0x5B] LOAD_EXT_SCHEDULER: Load scheduler "tlk0" with entities [EventEntity, EventEntity], work=140*
  5: 0x03B8 [0x1D] PRINT_EVENT_MESSAGE(message_id=7943*)
    → "<Player>... That is a name I shall never forget. I beseech you. Please stand by my people and I as we continue our journey through this darkest of valleys."
  6: 0x03BB [0x23] WAIT_FOR_DIALOG_INTERACTION
  7: 0x03BC [0x21] END_EVENT
  8: 0x03BD [0x00] END_REQSTACK()
```

### Event 194

#### Metadata

| Field        | Value    |
|--------------|----------|
| Entrypoint   | 0x03BE   |
| Data Size    | 85 bytes |
| Instructions | 23       |

```
      00 01 02 03 04 05 06 07  08 09 0A 0B 0C 0D 0E 0F
      -- -- -- -- -- -- -- --  -- -- -- -- -- -- -- --
03B0:                                            03 00                ..
03C0: 00 02 10 1E F0 FF FF 7F  6F 70 5B 14 80 F8 FF FF  ........op[.....
03D0: 7F F8 FF FF 7F 74 6C 6B  30 1D 29 80 23 1D 2C 80  .....tlk0.).#.,.
03E0: 23 24 2D 80 07 80 07 80  25 02 00 10 07 80 00 FD  #$-.....%.......
03F0: 03 03 01 10 23 80 1D 2E  80 23 01 11 04 02 00 10  ....#....#......
0400: 23 80 00 11 04 03 02 10  00 00 1D 2F 80 23 01 11  #........../.#..
0410: 04 21 00                                          .!.             
```

#### Opcodes

```
  0: 0x03BE [0x03] ExtData[1]->WorkLocal[0] = Work_Zone[2]
  1: 0x03C3 [0x1E] EventEntity looks at LocalPlayer and starts talking
  2: 0x03C8 [0x6F] WAIT_FRAME_DELAY: Yield until WaitTime reaches zero
  3: 0x03C9 [0x70] WAIT_ENTITY_RENDER_FLAG: Wait while EventEntity->Render.Flags3 bit 2 is set (cancel turn if not)
  4: 0x03CA [0x5B] LOAD_EXT_SCHEDULER: Load scheduler "tlk0" with entities [EventEntity, EventEntity], work=140*
  5: 0x03D9 [0x1D] PRINT_EVENT_MESSAGE(message_id=7939*)
    → "Incredible! You truly defeated Lugarhoo! Your potential knows no bounds, 'twould seem."
  6: 0x03DC [0x23] WAIT_FOR_DIALOG_INTERACTION
  7: 0x03DD [0x1D] PRINT_EVENT_MESSAGE(message_id=7941*)
    → "My fervent desire for revenge had divested me of my manners, but now I would know the name of my champion."
  8: 0x03E0 [0x23] WAIT_FOR_DIALOG_INTERACTION
  9: 0x03E1 [0x24] CREATE_DIALOG(message_id=7942*, default_option=0*, option_flags=0*)
    → "What is your name? [I am known as <Player>./My identity is of no import.]"
 10: 0x03E8 [0x25] WAIT_DIALOG_SELECT()
 11: 0x03E9 [0x02] IF !(Work_Zone[0] == 0*) GOTO 0x03FD
 12: 0x03F1 [0x03] Work_Zone[1] = 1*
 13: 0x03F6 [0x1D] PRINT_EVENT_MESSAGE(message_id=7943*)
    → "<Player>... That is a name I shall never forget. I beseech you. Please stand by my people and I as we continue our journey through this darkest of valleys."
 14: 0x03F9 [0x23] WAIT_FOR_DIALOG_INTERACTION
 15: 0x03FA [0x01] GOTO 0x0411
 16: 0x03FD [0x02] IF !(Work_Zone[0] == 1*) GOTO 0x0411
 17: 0x0405 [0x03] Work_Zone[2] = ExtData[1]->WorkLocal[0]
 18: 0x040A [0x1D] PRINT_EVENT_MESSAGE(message_id=7944*)
    → "You are as modest as you are valiant, $0. I beseech you. Please stand by my people and I as we continue our journey through this darkest of valleys."
 19: 0x040D [0x23] WAIT_FOR_DIALOG_INTERACTION
 20: 0x040E [0x01] GOTO 0x0411

SUBROUTINE_0411:
 21: 0x0411 [0x21] END_EVENT
 22: 0x0412 [0x00] END_REQSTACK()
```
