# 17318639 - Miageau

## Common Data

| Field            | Value                         |
|------------------|-------------------------------|
| Zone             | Abyssea - La Theine (ID: 132) |
| Block Size       | 744 bytes                     |
| Total Events     | 6                             |
| References Count | 23                            |

## List of Events

| Event ID              | Entrypoint   |   Size |   Instructions |
|-----------------------|--------------|--------|----------------|
| [65535](#event-65535) | 0x0000       |      1 |              1 |
| [204](#event-204)     | 0x0001       |     13 |              7 |
| [205](#event-205)     | 0x000E       |     17 |              9 |
| [206](#event-206)     | 0x001F       |    104 |             23 |
| [207](#event-207)     | 0x0087       |    378 |             76 |
| [208](#event-208)     | 0x0201       |     98 |             18 |

## DAT References (imed_data)

|   Index | Hex Value   |   Dec Value |
|---------|-------------|-------------|
|       0 | 0x1F3C      |        7996 |
|       1 | 0x1F43      |        8003 |
|       2 | 0x1F44      |        8004 |
|       3 | 0x1F45      |        8005 |
|       4 | 0x00C8      |         200 |
|       5 | 0x0000      |           0 |
|       6 | 0x00B4      |         180 |
|       7 | 0x003C      |          60 |
|       8 | 0x1F46      |        8006 |
|       9 | 0x1F47      |        8007 |
|      10 | 0x1F48      |        8008 |
|      11 | 0x0014      |          20 |
|      12 | 0x1F49      |        8009 |
|      13 | 0x00C9      |         201 |
|      14 | 0x1F3D      |        7997 |
|      15 | 0x1F3E      |        7998 |
|      16 | 0x1F3F      |        7999 |
|      17 | 0x1F40      |        8000 |
|      18 | 0x0001      |           1 |
|      19 | 0x1F42      |        8002 |
|      20 | 0x1F41      |        8001 |
|      21 | 0x001E      |          30 |
|      22 | 0x1F4A      |        8010 |

## String References

- **7996**: Welcome, friend, to the southeastern encampment. Stay a while and rest your travel-weary body and mind at this enclave of survivors.
- **7997**: Welcome, friend, to the southeastern encampment. I would proffer you drink to slake your thirst, but our water source--the four ponds of La Theine--has become contaminated ever since the Abyssean creatures appeared.
- **7998**: I have endeavored long to cleanse the ponds that the folk might have access to potable water, but this undertaking has proven far too onerous to be borne by a single man.
- **7999**: Might I entreat your cooperation in this endeavor, friend?
- **8000**: Offer Miageau your cooperation? [I surely will./Potable water is overrated.]
- **8001**: It grieves me to see that there are still those who choose not to part ways with their selfishness.
- **8002**: A noble soul such as yours is seldom seen in these dark times. Blessings be upon you.
- **8003**: I entrust to you these four vials of chemicals. Take them and empty the contents of one into each of the four ponds.
- **8004**: Having accomplished that, I ask you to draw water samples using the selfsame vials and thence bring them back to me. Go with blessed speed, friend.
- **8005**: I have awaited your return. I shall take the water samples off your hands.
- **8006**: Ah, 'twould appear that water quality has improved noticeably. You have done the surviving folk a great service, friend.
- **8007**: The coming of this cataclysm has shaken the people's faith. Many are those who believe that the world has been forsaken, but nothing could be further from the truth.
- **8008**: This is but a trial sent from the heavens that we must together overcome.
- **8009**: May Paradise open its gates to you.
- **8010**: Thank you for your assistance the day past, friend. Yet with the Abyssean creatures still running rampant, the ponds do not remain cleansed for long. Might I entreat your aid once more?

## Events

### Event 65535

#### Metadata

| Field        | Value   |
|--------------|---------|
| Entrypoint   | 0x0000  |
| Data Size    | 1 bytes |
| Instructions | 1       |

```
      00 01 02 03 04 05 06 07  08 09 0A 0B 0C 0D 0E 0F
      -- -- -- -- -- -- -- --  -- -- -- -- -- -- -- --
0000: 00                                                .               
```

#### Opcodes

```
  0: 0x0000 [0x00] END_REQSTACK()
```

### Event 204

#### Metadata

| Field        | Value    |
|--------------|----------|
| Entrypoint   | 0x0001   |
| Data Size    | 13 bytes |
| Instructions | 7        |

```
      00 01 02 03 04 05 06 07  08 09 0A 0B 0C 0D 0E 0F
      -- -- -- -- -- -- -- --  -- -- -- -- -- -- -- --
0000:    1E F0 FF FF 7F 6F 70  1D 00 80 23 21 00         .....op...#!.  
```

#### Opcodes

```
  0: 0x0001 [0x1E] EventEntity looks at LocalPlayer and starts talking
  1: 0x0006 [0x6F] WAIT_FRAME_DELAY: Yield until WaitTime reaches zero
  2: 0x0007 [0x70] WAIT_ENTITY_RENDER_FLAG: Wait while EventEntity->Render.Flags3 bit 2 is set (cancel turn if not)
  3: 0x0008 [0x1D] PRINT_EVENT_MESSAGE(message_id=7996*)
    → "Welcome, friend, to the southeastern encampment. Stay a while and rest your travel-weary body and mind at this enclave of survivors."
  4: 0x000B [0x23] WAIT_FOR_DIALOG_INTERACTION
  5: 0x000C [0x21] END_EVENT
  6: 0x000D [0x00] END_REQSTACK()
```

### Event 205

#### Metadata

| Field        | Value    |
|--------------|----------|
| Entrypoint   | 0x000E   |
| Data Size    | 17 bytes |
| Instructions | 9        |

```
      00 01 02 03 04 05 06 07  08 09 0A 0B 0C 0D 0E 0F
      -- -- -- -- -- -- -- --  -- -- -- -- -- -- -- --
0000:                                            1E F0                ..
0010: FF FF 7F 6F 70 1D 01 80  23 1D 02 80 23 21 00     ...op...#...#!. 
```

#### Opcodes

```
  0: 0x000E [0x1E] EventEntity looks at LocalPlayer and starts talking
  1: 0x0013 [0x6F] WAIT_FRAME_DELAY: Yield until WaitTime reaches zero
  2: 0x0014 [0x70] WAIT_ENTITY_RENDER_FLAG: Wait while EventEntity->Render.Flags3 bit 2 is set (cancel turn if not)
  3: 0x0015 [0x1D] PRINT_EVENT_MESSAGE(message_id=8003*)
    → "I entrust to you these four vials of chemicals. Take them and empty the contents of one into each of the four ponds."
  4: 0x0018 [0x23] WAIT_FOR_DIALOG_INTERACTION
  5: 0x0019 [0x1D] PRINT_EVENT_MESSAGE(message_id=8004*)
    → "Having accomplished that, I ask you to draw water samples using the selfsame vials and thence bring them back to me. Go with blessed speed, friend."
  6: 0x001C [0x23] WAIT_FOR_DIALOG_INTERACTION
  7: 0x001D [0x21] END_EVENT
  8: 0x001E [0x00] END_REQSTACK()
```

### Event 206

#### Metadata

| Field        | Value     |
|--------------|-----------|
| Entrypoint   | 0x001F    |
| Data Size    | 104 bytes |
| Instructions | 23        |

```
      00 01 02 03 04 05 06 07  08 09 0A 0B 0C 0D 0E 0F
      -- -- -- -- -- -- -- --  -- -- -- -- -- -- -- --
0010:                                               20                  
0020: 01 42 1E F0 FF FF 7F 6F  70 1D 03 80 23 45 04 80  .B.....op...#E..
0030: F0 FF FF 7F F0 FF FF 7F  66 64 6F 31 05 80 1C 06  ........fdo1....
0040: 80 45 04 80 F0 FF FF 7F  F0 FF FF 7F 66 64 69 31  .E..........fdi1
0050: 05 80 1C 07 80 1D 08 80  23 1D 09 80 23 1D 0A 80  ........#...#...
0060: 23 5B 0B 80 F8 FF FF 7F  F8 FF FF 7F 69 6E 6F 30  #[..........ino0
0070: 1D 0C 80 23 45 0D 80 F0  FF FF 7F F0 FF FF 7F 71  ...#E..........q
0080: 73 74 63 05 80 21 00                              stc..!.         
```

#### Opcodes

```
  0: 0x001F [0x20] SET_CLI_EVENT_UC_FLAG: Lock player control
  1: 0x0021 [0x42] SET_CLI_EVENT_CANCEL_DATA()
  2: 0x0022 [0x1E] EventEntity looks at LocalPlayer and starts talking
  3: 0x0027 [0x6F] WAIT_FRAME_DELAY: Yield until WaitTime reaches zero
  4: 0x0028 [0x70] WAIT_ENTITY_RENDER_FLAG: Wait while EventEntity->Render.Flags3 bit 2 is set (cancel turn if not)
  5: 0x0029 [0x1D] PRINT_EVENT_MESSAGE(message_id=8005*)
    → "I have awaited your return. I shall take the water samples off your hands."
  6: 0x002C [0x23] WAIT_FOR_DIALOG_INTERACTION
  7: 0x002D [0x45] LOAD_SCHEDULED_TASK: Load scheduler "fdo1" with entities [LocalPlayer, LocalPlayer], work=[200*, 0*]
  8: 0x003E [0x1C] WAIT(180* ticks)
  9: 0x0041 [0x45] LOAD_SCHEDULED_TASK: Load scheduler "fdi1" with entities [LocalPlayer, LocalPlayer], work=[200*, 0*]
 10: 0x0052 [0x1C] WAIT(60* ticks)
 11: 0x0055 [0x1D] PRINT_EVENT_MESSAGE(message_id=8006*)
    → "Ah, 'twould appear that water quality has improved noticeably. You have done the surviving folk a great service, friend."
 12: 0x0058 [0x23] WAIT_FOR_DIALOG_INTERACTION
 13: 0x0059 [0x1D] PRINT_EVENT_MESSAGE(message_id=8007*)
    → "The coming of this cataclysm has shaken the people's faith. Many are those who believe that the world has been forsaken, but nothing could be further from the truth."
 14: 0x005C [0x23] WAIT_FOR_DIALOG_INTERACTION
 15: 0x005D [0x1D] PRINT_EVENT_MESSAGE(message_id=8008*)
    → "This is but a trial sent from the heavens that we must together overcome."
 16: 0x0060 [0x23] WAIT_FOR_DIALOG_INTERACTION
 17: 0x0061 [0x5B] LOAD_EXT_SCHEDULER: Load scheduler "ino0" with entities [EventEntity, EventEntity], work=20*
 18: 0x0070 [0x1D] PRINT_EVENT_MESSAGE(message_id=8009*)
    → "May Paradise open its gates to you."
 19: 0x0073 [0x23] WAIT_FOR_DIALOG_INTERACTION
 20: 0x0074 [0x45] LOAD_SCHEDULED_TASK: Load scheduler "qstc" with entities [LocalPlayer, LocalPlayer], work=[201*, 0*]
 21: 0x0085 [0x21] END_EVENT
 22: 0x0086 [0x00] END_REQSTACK()
```

### Event 207

#### Metadata

| Field        | Value     |
|--------------|-----------|
| Entrypoint   | 0x0087    |
| Data Size    | 378 bytes |
| Instructions | 76        |

```
      00 01 02 03 04 05 06 07  08 09 0A 0B 0C 0D 0E 0F
      -- -- -- -- -- -- -- --  -- -- -- -- -- -- -- --
0080:                      20  01 42 03 00 00 09 10 06          .B......
0090: 01 10 1E F0 FF FF 7F 6F  70 5B 0B 80 F8 FF FF 7F  .......op[......
00A0: F8 FF FF 7F 74 6C 6B 30  02 00 00 05 80 00 5D 01  ....tlk0......].
00B0: 1D 0E 80 23 1D 0F 80 23  1D 10 80 23 24 11 80 12  ...#...#...#$...
00C0: 80 05 80 25 02 00 10 05  80 00 09 01 42 1D 13 80  ...%........B...
00D0: 23 45 04 80 F0 FF FF 7F  F0 FF FF 7F 66 64 6F 31  #E..........fdo1
00E0: 05 80 1C 06 80 45 04 80  F0 FF FF 7F F0 FF FF 7F  .....E..........
00F0: 66 64 69 31 05 80 1C 07  80 1D 01 80 23 1D 02 80  fdi1........#...
0100: 23 03 01 10 12 80 01 5A  01 02 00 10 12 80 00 5A  #......Z.......Z
0110: 01 1D 14 80 23 5B 0B 80  F8 FF FF 7F F8 FF FF 7F  ....#[..........
0120: 74 6C 6B 31 53 F8 FF FF  7F F8 FF FF 7F 74 6C 6B  tlk1S........tlk
0130: 31 1C 07 80 5B 0B 80 F8  FF FF 7F F8 FF FF 7F 69  1...[..........i
0140: 6E 6F 30 1D 0C 80 23 53  F8 FF FF 7F F8 FF FF 7F  no0...#S........
0150: 69 6E 6F 30 1C 15 80 01  5A 01 01 FF 01 1D 16 80  ino0....Z.......
0160: 23 24 11 80 12 80 05 80  25 02 00 10 05 80 00 AE  #$......%.......
0170: 01 42 1D 13 80 23 45 04  80 F0 FF FF 7F F0 FF FF  .B...#E.........
0180: 7F 66 64 6F 31 05 80 1C  06 80 45 04 80 F0 FF FF  .fdo1.....E.....
0190: 7F F0 FF FF 7F 66 64 69  31 05 80 1C 07 80 1D 01  .....fdi1.......
01A0: 80 23 1D 02 80 23 03 01  10 12 80 01 FF 01 02 00  .#...#..........
01B0: 10 12 80 00 FF 01 1D 14  80 23 5B 0B 80 F8 FF FF  .........#[.....
01C0: 7F F8 FF FF 7F 74 6C 6B  31 53 F8 FF FF 7F F8 FF  .....tlk1S......
01D0: FF 7F 74 6C 6B 31 1C 07  80 5B 0B 80 F8 FF FF 7F  ..tlk1...[......
01E0: F8 FF FF 7F 69 6E 6F 30  1D 0C 80 23 53 F8 FF FF  ....ino0...#S...
01F0: 7F F8 FF FF 7F 69 6E 6F  30 1C 15 80 01 FF 01 21  .....ino0......!
0200: 00                                                .               
```

#### Opcodes

```
  0: 0x0087 [0x20] SET_CLI_EVENT_UC_FLAG: Lock player control
  1: 0x0089 [0x42] SET_CLI_EVENT_CANCEL_DATA()
  2: 0x008A [0x03] ExtData[1]->WorkLocal[0] = Work_Zone[9]
  3: 0x008F [0x06] Work_Zone[1] = 0
  4: 0x0092 [0x1E] EventEntity looks at LocalPlayer and starts talking
  5: 0x0097 [0x6F] WAIT_FRAME_DELAY: Yield until WaitTime reaches zero
  6: 0x0098 [0x70] WAIT_ENTITY_RENDER_FLAG: Wait while EventEntity->Render.Flags3 bit 2 is set (cancel turn if not)
  7: 0x0099 [0x5B] LOAD_EXT_SCHEDULER: Load scheduler "tlk0" with entities [EventEntity, EventEntity], work=20*
  8: 0x00A8 [0x02] IF !(ExtData[1]->WorkLocal[0] == 0*) GOTO 0x015D
  9: 0x00B0 [0x1D] PRINT_EVENT_MESSAGE(message_id=7997*)
    → "Welcome, friend, to the southeastern encampment. I would proffer you drink to slake your thirst, but our water source--the four ponds of La Theine--has become contaminated ever since the Abyssean creatures appeared."
 10: 0x00B3 [0x23] WAIT_FOR_DIALOG_INTERACTION
 11: 0x00B4 [0x1D] PRINT_EVENT_MESSAGE(message_id=7998*)
    → "I have endeavored long to cleanse the ponds that the folk might have access to potable water, but this undertaking has proven far too onerous to be borne by a single man."
 12: 0x00B7 [0x23] WAIT_FOR_DIALOG_INTERACTION
 13: 0x00B8 [0x1D] PRINT_EVENT_MESSAGE(message_id=7999*)
    → "Might I entreat your cooperation in this endeavor, friend?"
 14: 0x00BB [0x23] WAIT_FOR_DIALOG_INTERACTION
 15: 0x00BC [0x24] CREATE_DIALOG(message_id=8000*, default_option=1*, option_flags=0*)
    → "Offer Miageau your cooperation? [I surely will./Potable water is overrated.]"
 16: 0x00C3 [0x25] WAIT_DIALOG_SELECT()
 17: 0x00C4 [0x02] IF !(Work_Zone[0] == 0*) GOTO 0x0109
 18: 0x00CC [0x42] SET_CLI_EVENT_CANCEL_DATA()
 19: 0x00CD [0x1D] PRINT_EVENT_MESSAGE(message_id=8002*)
    → "A noble soul such as yours is seldom seen in these dark times. Blessings be upon you."
 20: 0x00D0 [0x23] WAIT_FOR_DIALOG_INTERACTION
 21: 0x00D1 [0x45] LOAD_SCHEDULED_TASK: Load scheduler "fdo1" with entities [LocalPlayer, LocalPlayer], work=[200*, 0*]
 22: 0x00E2 [0x1C] WAIT(180* ticks)
 23: 0x00E5 [0x45] LOAD_SCHEDULED_TASK: Load scheduler "fdi1" with entities [LocalPlayer, LocalPlayer], work=[200*, 0*]
 24: 0x00F6 [0x1C] WAIT(60* ticks)
 25: 0x00F9 [0x1D] PRINT_EVENT_MESSAGE(message_id=8003*)
    → "I entrust to you these four vials of chemicals. Take them and empty the contents of one into each of the four ponds."
 26: 0x00FC [0x23] WAIT_FOR_DIALOG_INTERACTION
 27: 0x00FD [0x1D] PRINT_EVENT_MESSAGE(message_id=8004*)
    → "Having accomplished that, I ask you to draw water samples using the selfsame vials and thence bring them back to me. Go with blessed speed, friend."
 28: 0x0100 [0x23] WAIT_FOR_DIALOG_INTERACTION
 29: 0x0101 [0x03] Work_Zone[1] = 1*
 30: 0x0106 [0x01] GOTO 0x015A
 31: 0x0109 [0x02] IF !(Work_Zone[0] == 1*) GOTO 0x015A
 32: 0x0111 [0x1D] PRINT_EVENT_MESSAGE(message_id=8001*)
    → "It grieves me to see that there are still those who choose not to part ways with their selfishness."
 33: 0x0114 [0x23] WAIT_FOR_DIALOG_INTERACTION
 34: 0x0115 [0x5B] LOAD_EXT_SCHEDULER: Load scheduler "tlk1" with entities [EventEntity, EventEntity], work=20*
 35: 0x0124 [0x53] WAIT_SCHEDULER_TASK: Wait for scheduler "tlk1" with entities [EventEntity, EventEntity]
 36: 0x0131 [0x1C] WAIT(60* ticks)
 37: 0x0134 [0x5B] LOAD_EXT_SCHEDULER: Load scheduler "ino0" with entities [EventEntity, EventEntity], work=20*
 38: 0x0143 [0x1D] PRINT_EVENT_MESSAGE(message_id=8009*)
    → "May Paradise open its gates to you."
 39: 0x0146 [0x23] WAIT_FOR_DIALOG_INTERACTION
 40: 0x0147 [0x53] WAIT_SCHEDULER_TASK: Wait for scheduler "ino0" with entities [EventEntity, EventEntity]
 41: 0x0154 [0x1C] WAIT(30* ticks)
 42: 0x0157 [0x01] GOTO 0x015A

SUBROUTINE_015A:
 43: 0x015A [0x01] GOTO 0x01FF
 44: 0x015D [0x1D] PRINT_EVENT_MESSAGE(message_id=8010*)
    → "Thank you for your assistance the day past, friend. Yet with the Abyssean creatures still running rampant, the ponds do not remain cleansed for long. Might I entreat your aid once more?"
 45: 0x0160 [0x23] WAIT_FOR_DIALOG_INTERACTION
 46: 0x0161 [0x24] CREATE_DIALOG(message_id=8000*, default_option=1*, option_flags=0*)
    → "Offer Miageau your cooperation? [I surely will./Potable water is overrated.]"
 47: 0x0168 [0x25] WAIT_DIALOG_SELECT()
 48: 0x0169 [0x02] IF !(Work_Zone[0] == 0*) GOTO 0x01AE
 49: 0x0171 [0x42] SET_CLI_EVENT_CANCEL_DATA()
 50: 0x0172 [0x1D] PRINT_EVENT_MESSAGE(message_id=8002*)
    → "A noble soul such as yours is seldom seen in these dark times. Blessings be upon you."
 51: 0x0175 [0x23] WAIT_FOR_DIALOG_INTERACTION
 52: 0x0176 [0x45] LOAD_SCHEDULED_TASK: Load scheduler "fdo1" with entities [LocalPlayer, LocalPlayer], work=[200*, 0*]
 53: 0x0187 [0x1C] WAIT(180* ticks)
 54: 0x018A [0x45] LOAD_SCHEDULED_TASK: Load scheduler "fdi1" with entities [LocalPlayer, LocalPlayer], work=[200*, 0*]
 55: 0x019B [0x1C] WAIT(60* ticks)
 56: 0x019E [0x1D] PRINT_EVENT_MESSAGE(message_id=8003*)
    → "I entrust to you these four vials of chemicals. Take them and empty the contents of one into each of the four ponds."
 57: 0x01A1 [0x23] WAIT_FOR_DIALOG_INTERACTION
 58: 0x01A2 [0x1D] PRINT_EVENT_MESSAGE(message_id=8004*)
    → "Having accomplished that, I ask you to draw water samples using the selfsame vials and thence bring them back to me. Go with blessed speed, friend."
 59: 0x01A5 [0x23] WAIT_FOR_DIALOG_INTERACTION
 60: 0x01A6 [0x03] Work_Zone[1] = 1*
 61: 0x01AB [0x01] GOTO 0x01FF
 62: 0x01AE [0x02] IF !(Work_Zone[0] == 1*) GOTO 0x01FF
 63: 0x01B6 [0x1D] PRINT_EVENT_MESSAGE(message_id=8001*)
    → "It grieves me to see that there are still those who choose not to part ways with their selfishness."
 64: 0x01B9 [0x23] WAIT_FOR_DIALOG_INTERACTION
 65: 0x01BA [0x5B] LOAD_EXT_SCHEDULER: Load scheduler "tlk1" with entities [EventEntity, EventEntity], work=20*
 66: 0x01C9 [0x53] WAIT_SCHEDULER_TASK: Wait for scheduler "tlk1" with entities [EventEntity, EventEntity]
 67: 0x01D6 [0x1C] WAIT(60* ticks)
 68: 0x01D9 [0x5B] LOAD_EXT_SCHEDULER: Load scheduler "ino0" with entities [EventEntity, EventEntity], work=20*
 69: 0x01E8 [0x1D] PRINT_EVENT_MESSAGE(message_id=8009*)
    → "May Paradise open its gates to you."
 70: 0x01EB [0x23] WAIT_FOR_DIALOG_INTERACTION
 71: 0x01EC [0x53] WAIT_SCHEDULER_TASK: Wait for scheduler "ino0" with entities [EventEntity, EventEntity]
 72: 0x01F9 [0x1C] WAIT(30* ticks)
 73: 0x01FC [0x01] GOTO 0x01FF

SUBROUTINE_01FF:
 74: 0x01FF [0x21] END_EVENT
 75: 0x0200 [0x00] END_REQSTACK()
```

### Event 208

#### Metadata

| Field        | Value    |
|--------------|----------|
| Entrypoint   | 0x0201   |
| Data Size    | 98 bytes |
| Instructions | 18       |

```
      00 01 02 03 04 05 06 07  08 09 0A 0B 0C 0D 0E 0F
      -- -- -- -- -- -- -- --  -- -- -- -- -- -- -- --
0200:    1E F0 FF FF 7F 6F 70  5B 0B 80 F8 FF FF 7F F8   .....op[.......
0210: FF FF 7F 74 6C 6B 30 1D  09 80 23 1D 0A 80 23 5B  ...tlk0...#...#[
0220: 0B 80 F8 FF FF 7F F8 FF  FF 7F 74 6C 6B 31 53 F8  ..........tlk1S.
0230: FF FF 7F F8 FF FF 7F 74  6C 6B 31 1C 07 80 5B 0B  .......tlk1...[.
0240: 80 F8 FF FF 7F F8 FF FF  7F 69 6E 6F 30 1D 0C 80  .........ino0...
0250: 23 53 F8 FF FF 7F F8 FF  FF 7F 69 6E 6F 30 1C 15  #S........ino0..
0260: 80 21 00                                          .!.             
```

#### Opcodes

```
  0: 0x0201 [0x1E] EventEntity looks at LocalPlayer and starts talking
  1: 0x0206 [0x6F] WAIT_FRAME_DELAY: Yield until WaitTime reaches zero
  2: 0x0207 [0x70] WAIT_ENTITY_RENDER_FLAG: Wait while EventEntity->Render.Flags3 bit 2 is set (cancel turn if not)
  3: 0x0208 [0x5B] LOAD_EXT_SCHEDULER: Load scheduler "tlk0" with entities [EventEntity, EventEntity], work=20*
  4: 0x0217 [0x1D] PRINT_EVENT_MESSAGE(message_id=8007*)
    → "The coming of this cataclysm has shaken the people's faith. Many are those who believe that the world has been forsaken, but nothing could be further from the truth."
  5: 0x021A [0x23] WAIT_FOR_DIALOG_INTERACTION
  6: 0x021B [0x1D] PRINT_EVENT_MESSAGE(message_id=8008*)
    → "This is but a trial sent from the heavens that we must together overcome."
  7: 0x021E [0x23] WAIT_FOR_DIALOG_INTERACTION
  8: 0x021F [0x5B] LOAD_EXT_SCHEDULER: Load scheduler "tlk1" with entities [EventEntity, EventEntity], work=20*
  9: 0x022E [0x53] WAIT_SCHEDULER_TASK: Wait for scheduler "tlk1" with entities [EventEntity, EventEntity]
 10: 0x023B [0x1C] WAIT(60* ticks)
 11: 0x023E [0x5B] LOAD_EXT_SCHEDULER: Load scheduler "ino0" with entities [EventEntity, EventEntity], work=20*
 12: 0x024D [0x1D] PRINT_EVENT_MESSAGE(message_id=8009*)
    → "May Paradise open its gates to you."
 13: 0x0250 [0x23] WAIT_FOR_DIALOG_INTERACTION
 14: 0x0251 [0x53] WAIT_SCHEDULER_TASK: Wait for scheduler "ino0" with entities [EventEntity, EventEntity]
 15: 0x025E [0x1C] WAIT(30* ticks)
 16: 0x0261 [0x21] END_EVENT
 17: 0x0262 [0x00] END_REQSTACK()
```
