# Event 65535

## Metadata

| Field           | Value    |
|-----------------|----------|
| Event Index     | 14/15    |
| Offset          | 0x0075   |
| Data Size       | 40 bytes |
| Calculated Size | 40 bytes |
| Instructions    | 9        |

```
      00 01 02 03 04 05 06 07  08 09 0A 0B 0C 0D 0E 0F
      -- -- -- -- -- -- -- --  -- -- -- -- -- -- -- --
0070:                06 03 00  03 02 00 13 80 02 03 00       ...........
0080: 14 80 03 9C 00 08 02 00  15 80 57 03 00 37 07 80  ..........W..7..
0090: 08 80 02 00 16 80 1C 01  80 01 7D 00 00           ..........}..   
```

## Opcodes

```
  0: 0x0075 [0x06] ExtData[1]->WorkLocal[3] = 0
  1: 0x0078 [0x03] ExtData[1]->WorkLocal[2] = 118839*
  2: 0x007D [0x02] IF !(ExtData[1]->WorkLocal[3] >= 1000*) GOTO 0x009C
  3: 0x0085 [0x08] ExtData[1]->WorkLocal[2] -= 40*
  4: 0x008A [0x57] CREATE_FRAME_DELAY(delay=ExtData[1]->WorkLocal[3])
  5: 0x008D [0x37] UPDATE_EVENT_POSITION_AND_DIR: x=263.598*, z=-99.097*, y=ExtData[1]->WorkLocal[2], direction=119.5°*
  6: 0x0096 [0x1C] WAIT(1* ticks)
  7: 0x0099 [0x01] GOTO 0x007D

SUBROUTINE_009C:
  8: 0x009C [0x00] END_REQSTACK()
```
