# Event 65535

## Metadata

| Field           | Value    |
|-----------------|----------|
| Event Index     | 41/42    |
| Offset          | 0x02C4   |
| Data Size       | 57 bytes |
| Calculated Size | 57 bytes |
| Instructions    | 13       |

```
      00 01 02 03 04 05 06 07  08 09 0A 0B 0C 0D 0E 0F
      -- -- -- -- -- -- -- --  -- -- -- -- -- -- -- --
02C0:             03 08 00 03  7F 02 07 00 29 80 00 FC      ........)...
02D0: 02 13 09 00 39 80 07 09  00 3A 80 AD 00 09 00 F8  ....9....:......
02E0: FF FF 7F F8 FF FF 7F 1C  2B 80 07 08 00 3B 80 0D  ........+....;..
02F0: 08 00 2A 80 39 08 00 6F  70 01 C9 02 00           ..*.9..op....   
```

## Opcodes

```
  0: 0x02C4 [0x03] ExtData[1]->WorkLocal[8] = enDirCli(ExtData[1]->EventDir[1]) * 4096.0 * 0.15915963
  1: 0x02C9 [0x02] IF !(ExtData[1]->WorkLocal[7] == 0*) GOTO 0x02FC
  2: 0x02D1 [0x13] ExtData[1]->WorkLocal[9] = rand() % 2*
  3: 0x02D6 [0x07] ExtData[1]->WorkLocal[9] += 35*
  4: 0x02DB [0xAD] DUAL_ENTITY_SCHEDULER_HANDLER: Execute sub-case 0 with entities [EventEntity, EventEntity], work=ExtData[1]->WorkLocal[9]
  5: 0x02E7 [0x1C] WAIT(90* ticks)
  6: 0x02EA [0x07] ExtData[1]->WorkLocal[8] += 1024*
  7: 0x02EF [0x0D] ExtData[1]->WorkLocal[8] &= 4095*
  8: 0x02F4 [0x39] SET_ENTITY_DIRECTION(direction=0.0°)
  9: 0x02F7 [0x6F] WAIT_FRAME_DELAY: Yield until WaitTime reaches zero
 10: 0x02F8 [0x70] WAIT_ENTITY_RENDER_FLAG: Wait while EventEntity->Render.Flags3 bit 2 is set (cancel turn if not)
 11: 0x02F9 [0x01] GOTO 0x02C9
 12: 0x02FC [0x00] END_REQSTACK()
```
