# Event 560

## Metadata

| Field           | Value    |
|-----------------|----------|
| Event Index     | 27/30    |
| Offset          | 0x026F   |
| Data Size       | 52 bytes |
| Calculated Size | 52 bytes |
| Instructions    | 12       |

```
      00 01 02 03 04 05 06 07  08 09 0A 0B 0C 0D 0E 0F
      -- -- -- -- -- -- -- --  -- -- -- -- -- -- -- --
0260:                                               42                 B
0270: 48 19 80 1E F0 FF FF 7F  1C 06 80 66 04 80 F8 FF  H..........f....
0280: FF 7F F8 FF FF 7F 74 6C  6B 30 1D 1A 80 23 1D 1B  ......tlk0...#..
0290: 80 23 66 04 80 F8 FF FF  7F F8 FF FF 7F 74 6C 6B  .#f..........tlk
02A0: 31 21 00                                          1!.             
```

## Opcodes

```
  0: 0x026F [0x42] SET_CLI_EVENT_CANCEL_DATA()
  1: 0x0270 [0x48] [System] [8289*]:
    → "\u001F\u000F\u0008's badge flashes brightly.\u007F1\u0000\u0007"
  2: 0x0273 [0x1E] EventEntity looks at LocalPlayer and starts talking
  3: 0x0278 [0x1C] WAIT(30* ticks)
  4: 0x027B [0x66] LOAD_EXT_SCHEDULER_MAIN: Load scheduler "tlk0" with entities [EventEntity, EventEntity], work=20*
  5: 0x028A [0x1D] PRINT_EVENT_MESSAGE(message_id=8297*)
    → "Is that one of those Near Eastern badges!?\u0007Remove it at once!\u0007If Prince Trion were to see you wearing one of those...\u007F1\u0000\u0007"
  6: 0x028D [0x23] WAIT_FOR_DIALOG_INTERACTION
  7: 0x028E [0x1D] PRINT_EVENT_MESSAGE(message_id=8298*)
    → "Seeing all these people sporting mercenary badges has him in a volatile mood.\u007F1\u0000\u0007"
  8: 0x0291 [0x23] WAIT_FOR_DIALOG_INTERACTION
  9: 0x0292 [0x66] LOAD_EXT_SCHEDULER_MAIN: Load scheduler "tlk1" with entities [EventEntity, EventEntity], work=20*
 10: 0x02A1 [0x21] END_EVENT
 11: 0x02A2 [0x00] END_REQSTACK()
```
