# Event 65535

## Metadata

| Field           | Value    |
|-----------------|----------|
| Event Index     | 19/30    |
| Offset          | 0x0142   |
| Data Size       | 85 bytes |
| Calculated Size | 85 bytes |
| Instructions    | 7        |

```
      00 01 02 03 04 05 06 07  08 09 0A 0B 0C 0D 0E 0F
      -- -- -- -- -- -- -- --  -- -- -- -- -- -- -- --
0140:       45 10 80 F8 FF FF  7F F8 FF FF 7F 73 30 30    E..........s00
0150: 35 02 80 1C 11 80 52 10  80 F8 FF FF 7F F8 FF FF  5.....R.........
0160: 7F 73 30 30 35 45 12 80  F0 FF FF 7F F0 FF FF 7F  .s005E..........
0170: 6F 76 6C 31 02 80 45 10  80 F8 FF FF 7F F8 FF FF  ovl1..E.........
0180: 7F 73 30 31 38 02 80 55  10 80 F8 FF FF 7F F8 FF  .s018..U........
0190: FF 7F 73 30 31 38 00                              ..s018.         
```

## Opcodes

```
  0: 0x0142 [0x45] LOAD_SCHEDULED_TASK(work_offset1=49*, entity1=EventEntity, entity2=EventEntity, scheduler_id="s005", work_offset2=0*)
  1: 0x0153 [0x1C] WAIT(130* ticks)
  2: 0x0156 [0x52] END_LOAD_SCHEDULER: End scheduler "s005" with entities [EventEntity, EventEntity], work=49*
  3: 0x0165 [0x45] LOAD_SCHEDULED_TASK(work_offset1=200*, entity1=LocalPlayer, entity2=LocalPlayer, scheduler_id="ovl1", work_offset2=0*)
  4: 0x0176 [0x45] LOAD_SCHEDULED_TASK(work_offset1=49*, entity1=EventEntity, entity2=EventEntity, scheduler_id="s018", work_offset2=0*)
  5: 0x0187 [0x55] WAIT_LOAD_SCHEDULER(work_offset=49*, entity1=EventEntity, entity2=EventEntity, scheduler_id="s018")
  6: 0x0196 [0x00] END_REQSTACK()
```
