# Event 65535

## Metadata

| Field           | Value    |
|-----------------|----------|
| Event Index     | 17/30    |
| Offset          | 0x0098   |
| Data Size       | 85 bytes |
| Calculated Size | 85 bytes |
| Instructions    | 7        |

```
      00 01 02 03 04 05 06 07  08 09 0A 0B 0C 0D 0E 0F
      -- -- -- -- -- -- -- --  -- -- -- -- -- -- -- --
0090:                          45 10 80 F8 FF FF 7F F8          E.......
00A0: FF FF 7F 73 30 30 35 02  80 1C 11 80 52 10 80 F8  ...s005.....R...
00B0: FF FF 7F F8 FF FF 7F 73  30 30 35 45 12 80 F0 FF  .......s005E....
00C0: FF 7F F0 FF FF 7F 6F 76  6C 31 02 80 45 10 80 F8  ......ovl1..E...
00D0: FF FF 7F F8 FF FF 7F 73  30 30 36 02 80 55 10 80  .......s006..U..
00E0: F8 FF FF 7F F8 FF FF 7F  73 30 30 36 00           ........s006.   
```

## Opcodes

```
  0: 0x0098 [0x45] LOAD_SCHEDULED_TASK(work_offset1=49*, entity1=EventEntity, entity2=EventEntity, scheduler_id="s005", work_offset2=0*)
  1: 0x00A9 [0x1C] WAIT(130* ticks)
  2: 0x00AC [0x52] END_LOAD_SCHEDULER: End scheduler "s005" with entities [EventEntity, EventEntity], work=49*
  3: 0x00BB [0x45] LOAD_SCHEDULED_TASK(work_offset1=200*, entity1=LocalPlayer, entity2=LocalPlayer, scheduler_id="ovl1", work_offset2=0*)
  4: 0x00CC [0x45] LOAD_SCHEDULED_TASK(work_offset1=49*, entity1=EventEntity, entity2=EventEntity, scheduler_id="s006", work_offset2=0*)
  5: 0x00DD [0x55] WAIT_LOAD_SCHEDULER(work_offset=49*, entity1=EventEntity, entity2=EventEntity, scheduler_id="s006")
  6: 0x00EC [0x00] END_REQSTACK()
```
