# Event 65535

## Metadata

| Field           | Value    |
|-----------------|----------|
| Event Index     | 20/30    |
| Offset          | 0x0197   |
| Data Size       | 85 bytes |
| Calculated Size | 85 bytes |
| Instructions    | 7        |

```
      00 01 02 03 04 05 06 07  08 09 0A 0B 0C 0D 0E 0F
      -- -- -- -- -- -- -- --  -- -- -- -- -- -- -- --
0190:                      45  10 80 F8 FF FF 7F F8 FF         E........
01A0: FF 7F 73 30 30 35 02 80  1C 11 80 52 10 80 F8 FF  ..s005.....R....
01B0: FF 7F F8 FF FF 7F 73 30  30 35 45 12 80 F0 FF FF  ......s005E.....
01C0: 7F F0 FF FF 7F 6F 76 6C  31 02 80 45 10 80 F8 FF  .....ovl1..E....
01D0: FF 7F F8 FF FF 7F 73 30  31 36 02 80 55 10 80 F8  ......s016..U...
01E0: FF FF 7F F8 FF FF 7F 73  30 31 36 00              .......s016.    
```

## Opcodes

```
  0: 0x0197 [0x45] LOAD_SCHEDULED_TASK: Load scheduler "s005" with entities [EventEntity, EventEntity], work=[49*, 0*]
  1: 0x01A8 [0x1C] WAIT(130* ticks)
  2: 0x01AB [0x52] END_LOAD_SCHEDULER: End scheduler "s005" with entities [EventEntity, EventEntity], work=49*
  3: 0x01BA [0x45] LOAD_SCHEDULED_TASK: Load scheduler "ovl1" with entities [LocalPlayer, LocalPlayer], work=[200*, 0*]
  4: 0x01CB [0x45] LOAD_SCHEDULED_TASK: Load scheduler "s016" with entities [EventEntity, EventEntity], work=[49*, 0*]
  5: 0x01DC [0x55] WAIT_LOAD_SCHEDULER: Wait for scheduler "s016" with entities [EventEntity, EventEntity], work=49*
  6: 0x01EB [0x00] END_REQSTACK()
```
