# Event 165

## Metadata

| Field           | Value    |
|-----------------|----------|
| Event Index     | 7/32     |
| Offset          | 0x0042   |
| Data Size       | 46 bytes |
| Calculated Size | 46 bytes |
| Instructions    | 15       |

```
      00 01 02 03 04 05 06 07  08 09 0A 0B 0C 0D 0E 0F
      -- -- -- -- -- -- -- --  -- -- -- -- -- -- -- --
0040:       03 00 00 02 10 1E  F0 FF FF 7F 6F 76 F8 FF    ..........ov..
0050: FF 7F 03 09 10 0C 80 1D  0D 80 23 02 00 00 0E 80  ..........#.....
0060: 00 6A 00 1D 0F 80 23 01  6E 00 1D 10 80 23 21 00  .j....#.n....#!.
```

## Opcodes

```
  0: 0x0042 [0x03] ExtData[1]->WorkLocal[0] = Work_Zone[2]
  1: 0x0047 [0x1E] EventEntity looks at LocalPlayer and starts talking
  2: 0x004C [0x6F] WAIT_FRAME_DELAY: Yield until WaitTime reaches zero
  3: 0x004D [0x76] CHECK_ENTITY_RENDER_FLAGS: Wait until EventEntity Render.Flags0 and Render.Flags3 conditions are met
  4: 0x0052 [0x03] Work_Zone[9] = 56*
  5: 0x0057 [0x1D] PRINT_EVENT_MESSAGE(message_id=10193*)
    → "Just a moment. I need to see your \u0001\u00053\u0002\u0007\u0000\u0000...\u007F1\u0000\u0007"
  6: 0x005A [0x23] WAIT_FOR_DIALOG_INTERACTION
  7: 0x005B [0x02] IF !(ExtData[1]->WorkLocal[0] == 1*) GOTO 0x006A
  8: 0x0063 [0x1D] PRINT_EVENT_MESSAGE(message_id=10194*)
    → "Thank you. If the sovereign requests your audience, access to the chamber will be granted by the guards inside.\u007F1\u0000\u0007"
  9: 0x0066 [0x23] WAIT_FOR_DIALOG_INTERACTION
 10: 0x0067 [0x01] GOTO 0x006E

SUBROUTINE_006A:
 11: 0x006A [0x1D] PRINT_EVENT_MESSAGE(message_id=10195*)
    → "I'm sorry, but you will need \u0001\u00056\u0002\u0007\u0000\u0000 to get in.\u007F1\u0000\u0007"
 12: 0x006D [0x23] WAIT_FOR_DIALOG_INTERACTION
 13: 0x006E [0x21] END_EVENT
 14: 0x006F [0x00] END_REQSTACK()
```
