# Event 65535

## Metadata

| Field           | Value    |
|-----------------|----------|
| Event Index     | 29/32    |
| Offset          | 0x0124   |
| Data Size       | 51 bytes |
| Calculated Size | 51 bytes |
| Instructions    | 11       |

```
      00 01 02 03 04 05 06 07  08 09 0A 0B 0C 0D 0E 0F
      -- -- -- -- -- -- -- --  -- -- -- -- -- -- -- --
0120:             7B F8 FF FF  7F 32 15 80 1F 00 16 80      {....2......
0130: 17 80 0A 80 1F 01 6F 4B  F8 FF FF 7F 18 80 6F 76  ......oK......ov
0140: F8 FF FF 7F 1C 19 80 5B  1A 80 F8 FF FF 7F F8 FF  .......[........
0150: FF 7F 61 73 74 30 00                              ..ast0.         
```

## Opcodes

```
  0: 0x0124 [0x7B] EventEntity stops talking
  1: 0x0129 [0x32] ExtData[1]->MainSpeed = 11* * 0.1
  2: 0x012C [0x1F] MOVE_ENTITY: EventEntity moves to X=-0.062*, Z=68.660*, Y=-5.000*
  3: 0x0134 [0x1F] MOVE_ENTITY: Update entity position (mode=1)
  4: 0x0136 [0x6F] WAIT_FRAME_DELAY: Yield until WaitTime reaches zero
  5: 0x0137 [0x4B] UPDATE_ENTITY_YAW(entity=EventEntity, yaw=5.62°*)
  6: 0x013E [0x6F] WAIT_FRAME_DELAY: Yield until WaitTime reaches zero
  7: 0x013F [0x76] CHECK_ENTITY_RENDER_FLAGS: Wait until EventEntity Render.Flags0 and Render.Flags3 conditions are met
  8: 0x0144 [0x1C] WAIT(30* ticks)
  9: 0x0147 [0x5B] LOAD_EXT_SCHEDULER: Load scheduler "ast0" with entities [EventEntity, EventEntity], work=863*
 10: 0x0156 [0x00] END_REQSTACK()
```
