# Event 65535

## Metadata

| Field           | Value    |
|-----------------|----------|
| Event Index     | 11/32    |
| Offset          | 0x0079   |
| Data Size       | 70 bytes |
| Calculated Size | 70 bytes |
| Instructions    | 6        |

```
      00 01 02 03 04 05 06 07  08 09 0A 0B 0C 0D 0E 0F
      -- -- -- -- -- -- -- --  -- -- -- -- -- -- -- --
0070:                             45 11 80 F8 FF FF 7F           E......
0080: F8 FF FF 7F 73 30 34 34  12 80 1C 13 80 52 11 80  ....s044.....R..
0090: F8 FF FF 7F F8 FF FF 7F  73 30 34 34 45 13 80 F0  ........s044E...
00A0: FF FF 7F F0 FF FF 7F 6F  76 6C 31 12 80 45 11 80  .......ovl1..E..
00B0: F8 FF FF 7F F8 FF FF 7F  73 30 34 35 12 80 00     ........s045... 
```

## Opcodes

```
  0: 0x0079 [0x45] LOAD_SCHEDULED_TASK: Load scheduler "s044" with entities [EventEntity, EventEntity], work=[173*, 0*]
  1: 0x008A [0x1C] WAIT(200* ticks)
  2: 0x008D [0x52] END_LOAD_SCHEDULER: End scheduler "s044" with entities [EventEntity, EventEntity], work=173*
  3: 0x009C [0x45] LOAD_SCHEDULED_TASK: Load scheduler "ovl1" with entities [LocalPlayer, LocalPlayer], work=[200*, 0*]
  4: 0x00AD [0x45] LOAD_SCHEDULED_TASK: Load scheduler "s045" with entities [EventEntity, EventEntity], work=[173*, 0*]
  5: 0x00BE [0x00] END_REQSTACK()
```
