# Event 65535

## Metadata

| Field           | Value    |
|-----------------|----------|
| Event Index     | 10/15    |
| Offset          | 0x01B0   |
| Data Size       | 81 bytes |
| Calculated Size | 81 bytes |
| Instructions    | 9        |

```
      00 01 02 03 04 05 06 07  08 09 0A 0B 0C 0D 0E 0F
      -- -- -- -- -- -- -- --  -- -- -- -- -- -- -- --
01B0: 1C 05 80 9F 02 80 F8 FF  FF 7F F8 FF FF 7F 73 74  ..............st
01C0: 72 30 00 80 1C 0E 80 9F  02 80 F8 FF FF 7F F8 FF  r0..............
01D0: FF 7F 6B 69 6C 6C 00 80  1C 04 80 9F 02 80 F8 FF  ..kill..........
01E0: FF 7F F8 FF FF 7F 73 74  72 30 00 80 1C 09 80 9F  ......str0......
01F0: 02 80 F8 FF FF 7F F8 FF  FF 7F 6B 69 6C 6C 00 80  ..........kill..
0200: 00                                                .               
```

## Opcodes

```
  0: 0x01B0 [0x1C] WAIT(150* ticks)
  1: 0x01B3 [0x9F] LOAD_SCHEDULED_TASK_ALT: Load scheduler "str0" with entities [EventEntity, EventEntity], work=[127*, 0*]
  2: 0x01C4 [0x1C] WAIT(30* ticks)
  3: 0x01C7 [0x9F] LOAD_SCHEDULED_TASK_ALT: Load scheduler "kill" with entities [EventEntity, EventEntity], work=[127*, 0*]
  4: 0x01D8 [0x1C] WAIT(90* ticks)
  5: 0x01DB [0x9F] LOAD_SCHEDULED_TASK_ALT: Load scheduler "str0" with entities [EventEntity, EventEntity], work=[127*, 0*]
  6: 0x01EC [0x1C] WAIT(60* ticks)
  7: 0x01EF [0x9F] LOAD_SCHEDULED_TASK_ALT: Load scheduler "kill" with entities [EventEntity, EventEntity], work=[127*, 0*]
  8: 0x0200 [0x00] END_REQSTACK()
```
