# Event 65535

## Metadata

| Field           | Value    |
|-----------------|----------|
| Event Index     | 7/15     |
| Offset          | 0x00BD   |
| Data Size       | 81 bytes |
| Calculated Size | 81 bytes |
| Instructions    | 9        |

```
      00 01 02 03 04 05 06 07  08 09 0A 0B 0C 0D 0E 0F
      -- -- -- -- -- -- -- --  -- -- -- -- -- -- -- --
00B0:                                         1C 09 80               ...
00C0: 9F 02 80 F8 FF FF 7F F8  FF FF 7F 73 74 72 30 00  ...........str0.
00D0: 80 1C 07 80 9F 02 80 F8  FF FF 7F F8 FF FF 7F 6B  ...............k
00E0: 69 6C 6C 00 80 1C 0A 80  9F 02 80 F8 FF FF 7F F8  ill.............
00F0: FF FF 7F 73 74 72 30 00  80 1C 07 80 9F 02 80 F8  ...str0.........
0100: FF FF 7F F8 FF FF 7F 6B  69 6C 6C 00 80 00        .......kill...  
```

## Opcodes

```
  0: 0x00BD [0x1C] WAIT(60* ticks)
  1: 0x00C0 [0x9F] LOAD_SCHEDULED_TASK_ALT: Load scheduler "str0" with entities [EventEntity, EventEntity], work=[127*, 0*]
  2: 0x00D1 [0x1C] WAIT(40* ticks)
  3: 0x00D4 [0x9F] LOAD_SCHEDULED_TASK_ALT: Load scheduler "kill" with entities [EventEntity, EventEntity], work=[127*, 0*]
  4: 0x00E5 [0x1C] WAIT(100* ticks)
  5: 0x00E8 [0x9F] LOAD_SCHEDULED_TASK_ALT: Load scheduler "str0" with entities [EventEntity, EventEntity], work=[127*, 0*]
  6: 0x00F9 [0x1C] WAIT(40* ticks)
  7: 0x00FC [0x9F] LOAD_SCHEDULED_TASK_ALT: Load scheduler "kill" with entities [EventEntity, EventEntity], work=[127*, 0*]
  8: 0x010D [0x00] END_REQSTACK()
```
