# 17002684 - Ulbuun

## Common Data

| Field            | Value                 |
|------------------|-----------------------|
| Zone             | Ilrusi Atoll (ID: 55) |
| Block Size       | 56 bytes              |
| Total Events     | 2                     |
| References Count | 3                     |

## List of Events

| Event ID              | Entrypoint   |   Size |   Instructions |
|-----------------------|--------------|--------|----------------|
| [65535](#event-65535) | 0x0000       |      1 |              1 |
| [104](#event-104)     | 0x0001       |     19 |             11 |

## DAT References (imed_data)

|   Index | Hex Value   |   Dec Value |
|---------|-------------|-------------|
|       0 | 0x1DCA      |        7626 |
|       1 | 0x1DCB      |        7627 |
|       2 | 0x1DCC      |        7628 |

## String References

- **7626**: Good day and chippity-do! Captain Ulbuun of the 41st Fighting Beavers, at your service! You've been sent by the Empire to catch ahtapot, no?
- **7627**: This area used to be crawling with the tiny cepholopods, but recent years have seen a decline in their numbers.
- **7628**: We're counting on you to find the little beans! Now, tally-ho!

## Events

### Event 65535

#### Metadata

| Field        | Value   |
|--------------|---------|
| Entrypoint   | 0x0000  |
| Data Size    | 1 bytes |
| Instructions | 1       |

```
      00 01 02 03 04 05 06 07  08 09 0A 0B 0C 0D 0E 0F
      -- -- -- -- -- -- -- --  -- -- -- -- -- -- -- --
0000: 00                                                .               
```

#### Opcodes

```
  0: 0x0000 [0x00] END_REQSTACK()
```

### Event 104

#### Metadata

| Field        | Value    |
|--------------|----------|
| Entrypoint   | 0x0001   |
| Data Size    | 19 bytes |
| Instructions | 11       |

```
      00 01 02 03 04 05 06 07  08 09 0A 0B 0C 0D 0E 0F
      -- -- -- -- -- -- -- --  -- -- -- -- -- -- -- --
0000:    20 01 42 1D 00 80 23  1D 01 80 23 1D 02 80 23    .B...#...#...#
0010: 20 00 21 00                                        .!.            
```

#### Opcodes

```
  0: 0x0001 [0x20] SET_CLI_EVENT_UC_FLAG: Lock player control
  1: 0x0003 [0x42] SET_CLI_EVENT_CANCEL_DATA()
  2: 0x0004 [0x1D] PRINT_EVENT_MESSAGE(message_id=7626*)
    → "Good day and chippity-do! Captain Ulbuun of the 41st Fighting Beavers, at your service! You've been sent by the Empire to catch ahtapot, no?"
  3: 0x0007 [0x23] WAIT_FOR_DIALOG_INTERACTION
  4: 0x0008 [0x1D] PRINT_EVENT_MESSAGE(message_id=7627*)
    → "This area used to be crawling with the tiny cepholopods, but recent years have seen a decline in their numbers."
  5: 0x000B [0x23] WAIT_FOR_DIALOG_INTERACTION
  6: 0x000C [0x1D] PRINT_EVENT_MESSAGE(message_id=7628*)
    → "We're counting on you to find the little beans! Now, tally-ho!"
  7: 0x000F [0x23] WAIT_FOR_DIALOG_INTERACTION
  8: 0x0010 [0x20] SET_CLI_EVENT_UC_FLAG: Unlock player control
  9: 0x0012 [0x21] END_EVENT
 10: 0x0013 [0x00] END_REQSTACK()
```
