# Event 608

## Metadata

| Field           | Value    |
|-----------------|----------|
| Event Index     | 10/12    |
| Offset          | 0x0229   |
| Data Size       | 41 bytes |
| Calculated Size | 41 bytes |
| Instructions    | 13       |

```
      00 01 02 03 04 05 06 07  08 09 0A 0B 0C 0D 0E 0F
      -- -- -- -- -- -- -- --  -- -- -- -- -- -- -- --
0220:                             42 20 01 1E F0 FF FF           B .....
0230: 7F 6F 70 5B 00 80 F8 FF  FF 7F F8 FF FF 7F 74 6C  .op[..........tl
0240: 6B 30 1D 1C 80 23 5E 69  64 6C 30 1C 00 80 20 00  k0...#^idl0... .
0250: 21 00                                             !.              
```

## Opcodes

```
  0: 0x0229 [0x42] SET_CLI_EVENT_CANCEL_DATA()
  1: 0x022A [0x20] SET_CLI_EVENT_UC_FLAG: Lock player control
  2: 0x022C [0x1E] EventEntity looks at LocalPlayer and starts talking
  3: 0x0231 [0x6F] WAIT_FRAME_DELAY: Yield until WaitTime reaches zero
  4: 0x0232 [0x70] WAIT_ENTITY_RENDER_FLAG: Wait while EventEntity->Render.Flags3 bit 2 is set (cancel turn if not)
  5: 0x0233 [0x5B] LOAD_EXT_SCHEDULER: Load scheduler "tlk0" with entities [EventEntity, EventEntity], work=30*
  6: 0x0242 [0x1D] PRINT_EVENT_MESSAGE(message_id=7532*)
    → "Fine. Very well, I'll have to go apologize to Regine over at the Magicmart in person. Take more care, next time.\u007F1\u0000\u0007"
  7: 0x0245 [0x23] WAIT_FOR_DIALOG_INTERACTION
  8: 0x0246 [0x5E] EventEntity goes idle (kills current action) (animation: "idl0")
  9: 0x024B [0x1C] WAIT(30* ticks)
 10: 0x024E [0x20] SET_CLI_EVENT_UC_FLAG: Unlock player control
 11: 0x0250 [0x21] END_EVENT
 12: 0x0251 [0x00] END_REQSTACK()
```
