# Event 65535

## Metadata

| Field           | Value    |
|-----------------|----------|
| Event Index     | 42/95    |
| Offset          | 0x011F   |
| Data Size       | 30 bytes |
| Calculated Size | 30 bytes |
| Instructions    | 9        |

```
      00 01 02 03 04 05 06 07  08 09 0A 0B 0C 0D 0E 0F
      -- -- -- -- -- -- -- --  -- -- -- -- -- -- -- --
0110:                                               32                 2
0120: 09 80 1F 00 1F 80 20 80  00 80 1F 01 6F 59 00 21  ...... .....oY.!
0130: 80 1E CC 20 03 01 6F 76  F8 FF FF 7F 00           ... ..ov.....   
```

## Opcodes

```
  0: 0x011F [0x32] ExtData[1]->MainSpeed = 13* * 0.1
  1: 0x0122 [0x1F] MOVE_ENTITY: EventEntity moves to X=-6.640*, Z=51.505*, Y=0.000*
  2: 0x012A [0x1F] MOVE_ENTITY: Update entity position (mode=1)
  3: 0x012C [0x6F] WAIT_FRAME_DELAY: Yield until WaitTime reaches zero
  4: 0x012D [0x59] UPDATE_ENTITY_DATA: Set EventEntity target turn speed = 40*
  5: 0x0131 [0x1E] EventEntity looks at Nashmeira (ID: 16982220/0x010320CC) and starts talking
  6: 0x0136 [0x6F] WAIT_FRAME_DELAY: Yield until WaitTime reaches zero
  7: 0x0137 [0x76] CHECK_ENTITY_RENDER_FLAGS: Wait until EventEntity Render.Flags0 and Render.Flags3 conditions are met
  8: 0x013C [0x00] END_REQSTACK()
```
