# Event 65535

## Metadata

| Field           | Value    |
|-----------------|----------|
| Event Index     | 15/16    |
| Offset          | 0x00B5   |
| Data Size       | 52 bytes |
| Calculated Size | 52 bytes |
| Instructions    | 10       |

```
      00 01 02 03 04 05 06 07  08 09 0A 0B 0C 0D 0E 0F
      -- -- -- -- -- -- -- --  -- -- -- -- -- -- -- --
00B0:                03 00 00  1A 80 03 01 00 1E 80 02       ...........
00C0: 00 00 1A 80 00 E8 00 07  01 00 1F 80 37 20 80 01  ............7 ..
00D0: 00 21 80 22 80 02 01 00  23 80 00 E2 00 03 00 00  .!."....#.......
00E0: 24 80 1C 24 80 01 BF 00  00                       $..$.....       
```

## Opcodes

```
  0: 0x00B5 [0x03] ExtData[1]->WorkLocal[0] = 0*
  1: 0x00BA [0x03] ExtData[1]->WorkLocal[1] = 157260*
  2: 0x00BF [0x02] IF !(ExtData[1]->WorkLocal[0] == 0*) GOTO 0x00E8
  3: 0x00C7 [0x07] ExtData[1]->WorkLocal[1] += 180*
  4: 0x00CC [0x37] UPDATE_EVENT_POSITION_AND_DIR: x=380.623*, z=ExtData[1]->WorkLocal[1], y=2.304*, direction=264.6°*
  5: 0x00D5 [0x02] IF !(ExtData[1]->WorkLocal[1] == 170460*) GOTO 0x00E2
  6: 0x00DD [0x03] ExtData[1]->WorkLocal[0] = 1*
  7: 0x00E2 [0x1C] WAIT(1* ticks)
  8: 0x00E5 [0x01] GOTO 0x00BF
  9: 0x00E8 [0x00] END_REQSTACK()
```
