# Event 100

## Metadata

| Field           | Value    |
|-----------------|----------|
| Event Index     | 7/20     |
| Offset          | 0x0059   |
| Data Size       | 33 bytes |
| Calculated Size | 33 bytes |
| Instructions    | 12       |

```
      00 01 02 03 04 05 06 07  08 09 0A 0B 0C 0D 0E 0F
      -- -- -- -- -- -- -- --  -- -- -- -- -- -- -- --
0050:                             1E F0 FF FF 7F 6F 70           .....op
0060: 29 08 14 20 0F 01 01 1D  04 80 23 1D 05 80 23 29  ).. ......#...#)
0070: 08 14 20 0F 01 03 20 00  21 00                    .. ... .!.      
```

## Opcodes

```
  0: 0x0059 [0x1E] EventEntity looks at LocalPlayer and starts talking
  1: 0x005E [0x6F] WAIT_FRAME_DELAY: Yield until WaitTime reaches zero
  2: 0x005F [0x70] WAIT_ENTITY_RENDER_FLAG: Wait while EventEntity->Render.Flags3 bit 2 is set (cancel turn if not)
  3: 0x0060 [0x29] REQ_SET_WAIT(priority=0x08, entity_id=Tayaya (ID: 17768468/0x010F2014), tag_num=0x01)
  4: 0x0067 [0x1D] PRINT_EVENT_MESSAGE(message_id=135*)
    → "In the Great War, the three countries of Windurst, Bastok, and San d'Oria joined forces under the command of The Grand Duchy of Jeuno to defeat the Shadow Lord and his beastman forces.\u007F1\u0000\u0007"
  5: 0x006A [0x23] WAIT_FOR_DIALOG_INTERACTION
  6: 0x006B [0x1D] PRINT_EVENT_MESSAGE(message_id=136*)
    → "Who would have thought that twenty years later Windurst would be all buddy-wuddying with the Yagudo?\u007F1\u0000\u0007"
  7: 0x006E [0x23] WAIT_FOR_DIALOG_INTERACTION
  8: 0x006F [0x29] REQ_SET_WAIT(priority=0x08, entity_id=Tayaya (ID: 17768468/0x010F2014), tag_num=0x03)
  9: 0x0076 [0x20] SET_CLI_EVENT_UC_FLAG: Unlock player control
 10: 0x0078 [0x21] END_EVENT
 11: 0x0079 [0x00] END_REQSTACK()
```
