# Event 224

## Metadata

| Field           | Value    |
|-----------------|----------|
| Event Index     | 3/3      |
| Offset          | 0x09B8   |
| Data Size       | 53 bytes |
| Calculated Size | 53 bytes |
| Instructions    | 15       |

```
      00 01 02 03 04 05 06 07  08 09 0A 0B 0C 0D 0E 0F
      -- -- -- -- -- -- -- --  -- -- -- -- -- -- -- --
09B0:                          42 4A F0 FF FF 7F F8 FF          BJ......
09C0: FF 7F 6F 76 F0 FF FF 7F  1C 06 80 27 10 F0 FF FF  ..ov.......'....
09D0: 7F 45 1C 28 80 48 19 80  1C 34 80 48 27 80 1C 26  .E.(.H...4.H'..&
09E0: 80 27 10 F0 FF FF 7F 46  1C 26 80 21 00           .'.....F.&.!.   
```

## Opcodes

```
  0: 0x09B8 [0x42] SET_CLI_EVENT_CANCEL_DATA()
  1: 0x09B9 [0x4A] LocalPlayer looks at EventEntity
  2: 0x09C2 [0x6F] WAIT_FRAME_DELAY: Yield until WaitTime reaches zero
  3: 0x09C3 [0x76] CHECK_ENTITY_RENDER_FLAGS: Wait until LocalPlayer Render.Flags0 and Render.Flags3 conditions are met
  4: 0x09C8 [0x1C] WAIT(30* ticks)
  5: 0x09CB [0x27] REQ_SET(priority=0x10, entity_id=LocalPlayer, tag_num=0x45)
  6: 0x09D2 [0x1C] WAIT(120* ticks)
  7: 0x09D5 [0x48] [System] [12343*]:
    → "A strange force fills your soul.\u0000\u0007"
  8: 0x09D8 [0x1C] WAIT(300* ticks)
  9: 0x09DB [0x48] [System] [12344*]:
    → "You begin to glow with an inner warmth!\u0000\u0007"
 10: 0x09DE [0x1C] WAIT(90* ticks)
 11: 0x09E1 [0x27] REQ_SET(priority=0x10, entity_id=LocalPlayer, tag_num=0x46)
 12: 0x09E8 [0x1C] WAIT(90* ticks)
 13: 0x09EB [0x21] END_EVENT
 14: 0x09EC [0x00] END_REQSTACK()
```
