# Event 474

## Metadata

| Field           | Value    |
|-----------------|----------|
| Event Index     | 27/27    |
| Offset          | 0x014E   |
| Data Size       | 33 bytes |
| Calculated Size | 33 bytes |
| Instructions    | 9        |

```
      00 01 02 03 04 05 06 07  08 09 0A 0B 0C 0D 0E 0F
      -- -- -- -- -- -- -- --  -- -- -- -- -- -- -- --
0140:                                            1E F0                ..
0150: FF FF 7F 1C 00 80 1D 28  80 23 5B 29 80 F8 FF FF  .......(.#[)....
0160: 7F F8 FF FF 7F 74 6C 62  30 1D 2A 80 23 21 00     .....tlb0.*.#!. 
```

## Opcodes

```
  0: 0x014E [0x1E] EventEntity looks at LocalPlayer and starts talking
  1: 0x0153 [0x1C] WAIT(30* ticks)
  2: 0x0156 [0x1D] PRINT_EVENT_MESSAGE(message_id=12379*)
    → "Well, I'm glad that little one's friend came along at last.\u007F1\u0000\u0007"
  3: 0x0159 [0x23] WAIT_FOR_DIALOG_INTERACTION
  4: 0x015A [0x5B] LOAD_EXT_SCHEDULER(work_offset=60*, entity1=EventEntity, entity2=EventEntity, action="tlb0")
  5: 0x0169 [0x1D] PRINT_EVENT_MESSAGE(message_id=12380*)
    → "You know, I seem to recall a time when another little girl used to wait here.\u0007I wonder if she ever managed to catch up with her friend...\u007F1\u0000\u0007"
  6: 0x016C [0x23] WAIT_FOR_DIALOG_INTERACTION
  7: 0x016D [0x21] END_EVENT
  8: 0x016E [0x00] END_REQSTACK()
```
