# Event 65535

## Metadata

| Field           | Value    |
|-----------------|----------|
| Event Index     | 7/7      |
| Offset          | 0x0057   |
| Data Size       | 89 bytes |
| Calculated Size | 89 bytes |
| Instructions    | 7        |

```
      00 01 02 03 04 05 06 07  08 09 0A 0B 0C 0D 0E 0F
      -- -- -- -- -- -- -- --  -- -- -- -- -- -- -- --
0050:                      1C  0A 80 32 05 80 31 00 0B         ...2..1..
0060: 80 0C 80 02 80 0D 80 31  01 22 01 00 3B F8 FF FF  .......1."..;...
0070: 7F 01 00 02 00 03 00 3A  F8 FF FF 7F 04 00 17 05  .......:........
0080: 00 04 00 00 00 16 06 00  04 00 00 00 07 01 00 05  ................
0090: 00 07 02 00 06 00 1B 17  05 00 04 00 00 00 16 06  ................
00A0: 00 04 00 00 00 07 01 00  05 00 07 02 00 06 00 1B  ................
```

## Opcodes

```
  0: 0x0057 [0x1C] WAIT(90* ticks)
  1: 0x005A [0x32] ExtData[1]->MainSpeed = 13* * 0.1
  2: 0x005D [0x31] UPDATE_ENTITY_POSITION: Set EventEntity goal position to X=-7.767*, Z=-2.145*, Y=0.000*, Time=180*
  3: 0x0067 [0x31] UPDATE_ENTITY_POSITION: Move EventEntity towards goal position
  4: 0x0069 [0x22] ENTITY_HIDE_FLAG(enabled=0x01)
  5: 0x006B [0x00] END_REQSTACK()
```

## Data or dead code:

```
# Data Section: 0x006C (68 bytes)
     0x006C: 3B F8 FF FF 7F 01 00 02 00 03 00 3A F8 FF FF 7F
     0x007C: 04 00 17 05 00 04 00 00 00 16 06 00 04 00 00 00
     0x008C: 07 01 00 05 00 07 02 00 06 00 1B 17 05 00 04 00
     0x009C: 00 00 16 06 00 04 00 00 00 07 01 00 05 00 07 02
     0x00AC: 00 06 00 1B
```