# Event 8003

## Metadata

| Field           | Value    |
|-----------------|----------|
| Event Index     | 46/51    |
| Offset          | 0x097C   |
| Data Size       | 68 bytes |
| Calculated Size | 68 bytes |
| Instructions    | 9        |

```
      00 01 02 03 04 05 06 07  08 09 0A 0B 0C 0D 0E 0F
      -- -- -- -- -- -- -- --  -- -- -- -- -- -- -- --
0970:                                      42 45 07 80              BE..
0980: F0 FF FF 7F F0 FF FF 7F  66 64 6F 31 05 80 02 03  ........fdo1....
0990: 10 05 80 00 AA 09 62 44  80 F0 FF FF 7F F0 FF FF  ......bD........
09A0: 7F 6D 61 69 6E 05 80 1C  43 80 1C 08 80 45 16 80  .main...C....E..
09B0: F0 FF FF 7F F0 FF FF 7F  77 68 69 31 05 80 21 00  ........whi1..!.
```

## Opcodes

```
  0: 0x097C [0x42] SET_CLI_EVENT_CANCEL_DATA()
  1: 0x097D [0x45] LOAD_SCHEDULED_TASK: Load scheduler "fdo1" with entities [LocalPlayer, LocalPlayer], work=[200*, 0*]
  2: 0x098E [0x02] IF !(Work_Zone[3] == 0*) GOTO 0x09AA
  3: 0x0996 [0x62] LOAD_EVENT_SCHEDULER: Load scheduler "main" with entities [LocalPlayer, LocalPlayer], work=[1*, 0*]
  4: 0x09A7 [0x1C] WAIT(90* ticks)
  5: 0x09AA [0x1C] WAIT(60* ticks)
  6: 0x09AD [0x45] LOAD_SCHEDULED_TASK: Load scheduler "whi1" with entities [LocalPlayer, LocalPlayer], work=[201*, 0*]
  7: 0x09BE [0x21] END_EVENT
  8: 0x09BF [0x00] END_REQSTACK()
```
