# Event 202

## Metadata

| Field           | Value    |
|-----------------|----------|
| Event Index     | 7/9      |
| Offset          | 0x0058   |
| Data Size       | 35 bytes |
| Calculated Size | 35 bytes |
| Instructions    | 11       |

```
      00 01 02 03 04 05 06 07  08 09 0A 0B 0C 0D 0E 0F
      -- -- -- -- -- -- -- --  -- -- -- -- -- -- -- --
0050:                          86 00 F8 FF FF 7F 1E F0          ........
0060: FF FF 7F 6F 70 29 08 24  F0 0E 01 01 1D 04 80 23  ...op).$.......#
0070: 29 08 24 F0 0E 01 02 20  00 21 00                 ).$.... .!.     
```

## Opcodes

```
  0: 0x0058 [0x86] EventEntity->Render.Flags3 = Flags3  // No change (flag=0)
  1: 0x005E [0x1E] EventEntity looks at LocalPlayer and starts talking
  2: 0x0063 [0x6F] WAIT_FRAME_DELAY: Yield until WaitTime reaches zero
  3: 0x0064 [0x70] WAIT_ENTITY_RENDER_FLAG: Wait while EventEntity->Render.Flags3 bit 2 is set (cancel turn if not)
  4: 0x0065 [0x29] REQ_SET_WAIT(priority=0x08, entity_id=Bonchacha (ID: 17756196/0x010EF024), tag_num=0x01)
  5: 0x006C [0x1D] PRINT_EVENT_MESSAGE(message_id=7550*)
    → "Oh, dearie-dear? Has that spot-dotty Professor Koru-Moru got you running errands for him now? Typical of old Principal Koru-Moru...totally dependent on the grace of others. Most precarious!\u007F1\u0000\u0007"
  6: 0x006F [0x23] WAIT_FOR_DIALOG_INTERACTION
  7: 0x0070 [0x29] REQ_SET_WAIT(priority=0x08, entity_id=Bonchacha (ID: 17756196/0x010EF024), tag_num=0x02)
  8: 0x0077 [0x20] SET_CLI_EVENT_UC_FLAG: Unlock player control
  9: 0x0079 [0x21] END_EVENT
 10: 0x007A [0x00] END_REQSTACK()
```
