# Event 218

## Metadata

| Field           | Value    |
|-----------------|----------|
| Event Index     | 8/9      |
| Offset          | 0x007B   |
| Data Size       | 39 bytes |
| Calculated Size | 39 bytes |
| Instructions    | 13       |

```
      00 01 02 03 04 05 06 07  08 09 0A 0B 0C 0D 0E 0F
      -- -- -- -- -- -- -- --  -- -- -- -- -- -- -- --
0070:                                   86 00 F8 FF FF             .....
0080: 7F 1E F0 FF FF 7F 6F 70  29 08 24 F0 0E 01 01 1D  ......op).$.....
0090: 05 80 23 1D 06 80 23 29  08 24 F0 0E 01 02 20 00  ..#...#).$.... .
00A0: 21 00                                             !.              
```

## Opcodes

```
  0: 0x007B [0x86] EventEntity->Render.Flags3 = Flags3  // No change (flag=0)
  1: 0x0081 [0x1E] EventEntity looks at LocalPlayer and starts talking
  2: 0x0086 [0x6F] WAIT_FRAME_DELAY: Yield until WaitTime reaches zero
  3: 0x0087 [0x70] WAIT_ENTITY_RENDER_FLAG: Wait while EventEntity->Render.Flags3 bit 2 is set (cancel turn if not)
  4: 0x0088 [0x29] REQ_SET_WAIT(priority=0x08, entity_id=Bonchacha (ID: 17756196/0x010EF024), tag_num=0x01)
  5: 0x008F [0x1D] PRINT_EVENT_MESSAGE(message_id=7586*)
    → "Goodness gracious.\u0007Has that utter nutter Professor Koru-Moru got you running errands again? What's it this time...?\u007F1\u0000\u0007"
  6: 0x0092 [0x23] WAIT_FOR_DIALOG_INTERACTION
  7: 0x0093 [0x1D] PRINT_EVENT_MESSAGE(message_id=7587*)
    → "Oh, burnite shells? You don't say...? Well, sorry. Never heard of them. Hoo-roo!\u007F1\u0000\u0007"
  8: 0x0096 [0x23] WAIT_FOR_DIALOG_INTERACTION
  9: 0x0097 [0x29] REQ_SET_WAIT(priority=0x08, entity_id=Bonchacha (ID: 17756196/0x010EF024), tag_num=0x02)
 10: 0x009E [0x20] SET_CLI_EVENT_UC_FLAG: Unlock player control
 11: 0x00A0 [0x21] END_EVENT
 12: 0x00A1 [0x00] END_REQSTACK()
```
