# Event 229

## Metadata

| Field           | Value    |
|-----------------|----------|
| Event Index     | 9/9      |
| Offset          | 0x00A2   |
| Data Size       | 39 bytes |
| Calculated Size | 39 bytes |
| Instructions    | 13       |

```
      00 01 02 03 04 05 06 07  08 09 0A 0B 0C 0D 0E 0F
      -- -- -- -- -- -- -- --  -- -- -- -- -- -- -- --
00A0:       86 00 F8 FF FF 7F  1E F0 FF FF 7F 6F 70 29    ...........op)
00B0: 08 24 F0 0E 01 01 1D 07  80 23 1D 08 80 23 29 08  .$.......#...#).
00C0: 24 F0 0E 01 02 20 00 21  00                       $.... .!.       
```

## Opcodes

```
  0: 0x00A2 [0x86] EventEntity->Render.Flags3 = Flags3  // No change (flag=0)
  1: 0x00A8 [0x1E] EventEntity looks at LocalPlayer and starts talking
  2: 0x00AD [0x6F] WAIT_FRAME_DELAY: Yield until WaitTime reaches zero
  3: 0x00AE [0x70] WAIT_ENTITY_RENDER_FLAG: Wait while EventEntity->Render.Flags3 bit 2 is set (cancel turn if not)
  4: 0x00AF [0x29] REQ_SET_WAIT(priority=0x08, entity_id=Bonchacha (ID: 17756196/0x010EF024), tag_num=0x01)
  5: 0x00B6 [0x1D] PRINT_EVENT_MESSAGE(message_id=7620*)
    → "My, oh my. Does that crazy-lazy professor Koru-Moru have you out working for him again?\u007F1\u0000\u0007"
  6: 0x00B9 [0x23] WAIT_FOR_DIALOG_INTERACTION
  7: 0x00BA [0x1D] PRINT_EVENT_MESSAGE(message_id=7621*)
    → "\u00072Alchemy\u00073?\u0007Sorry, Charlie, but I've never heard of that. Is it some kind of super-trooper magic?\u007F1\u0000\u0007"
  8: 0x00BD [0x23] WAIT_FOR_DIALOG_INTERACTION
  9: 0x00BE [0x29] REQ_SET_WAIT(priority=0x08, entity_id=Bonchacha (ID: 17756196/0x010EF024), tag_num=0x02)
 10: 0x00C5 [0x20] SET_CLI_EVENT_UC_FLAG: Unlock player control
 11: 0x00C7 [0x21] END_EVENT
 12: 0x00C8 [0x00] END_REQSTACK()
```
