# Event 468

## Metadata

| Field           | Value    |
|-----------------|----------|
| Event Index     | 10/10    |
| Offset          | 0x00D5   |
| Data Size       | 33 bytes |
| Calculated Size | 33 bytes |
| Instructions    | 12       |

```
      00 01 02 03 04 05 06 07  08 09 0A 0B 0C 0D 0E 0F
      -- -- -- -- -- -- -- --  -- -- -- -- -- -- -- --
00D0:                1E F0 FF  FF 7F 6F 70 29 08 3B E0       .....op).;.
00E0: 0E 01 01 1D 0C 80 23 1D  0D 80 23 29 08 3B E0 0E  ......#...#).;..
00F0: 01 02 20 00 21 00                                 .. .!.          
```

## Opcodes

```
  0: 0x00D5 [0x1E] EventEntity looks at LocalPlayer and starts talking
  1: 0x00DA [0x6F] WAIT_FRAME_DELAY: Yield until WaitTime reaches zero
  2: 0x00DB [0x70] WAIT_ENTITY_RENDER_FLAG: Wait while EventEntity->Render.Flags3 bit 2 is set (cancel turn if not)
  3: 0x00DC [0x29] REQ_SET_WAIT(priority=0x08, entity_id=Akkeke (ID: 17752123/0x010EE03B), tag_num=0x01)
  4: 0x00E3 [0x1D] PRINT_EVENT_MESSAGE(message_id=8443*)
    → "Oh\u0001`w! \u0007I got some vegetable seeds...\u007F1\u0000\u0007"
  5: 0x00E6 [0x23] WAIT_FOR_DIALOG_INTERACTION
  6: 0x00E7 [0x1D] PRINT_EVENT_MESSAGE(message_id=8444*)
    → "I hope they don't grow into \u0001\u0005%\u0002\u0001\u0000\u0000. I just abhor that vegetable!\u007F1\u0000\u0007"
  7: 0x00EA [0x23] WAIT_FOR_DIALOG_INTERACTION
  8: 0x00EB [0x29] REQ_SET_WAIT(priority=0x08, entity_id=Akkeke (ID: 17752123/0x010EE03B), tag_num=0x02)
  9: 0x00F2 [0x20] SET_CLI_EVENT_UC_FLAG: Unlock player control
 10: 0x00F4 [0x21] END_EVENT
 11: 0x00F5 [0x00] END_REQSTACK()
```
