# Event 484

## Metadata

| Field           | Value    |
|-----------------|----------|
| Event Index     | 7/10     |
| Offset          | 0x0072   |
| Data Size       | 33 bytes |
| Calculated Size | 33 bytes |
| Instructions    | 12       |

```
      00 01 02 03 04 05 06 07  08 09 0A 0B 0C 0D 0E 0F
      -- -- -- -- -- -- -- --  -- -- -- -- -- -- -- --
0070:       1E F0 FF FF 7F 6F  70 29 08 3B E0 0E 01 01    .....op).;....
0080: 1D 06 80 23 1D 07 80 23  29 08 3B E0 0E 01 02 20  ...#...#).;.... 
0090: 00 21 00                                          .!.             
```

## Opcodes

```
  0: 0x0072 [0x1E] EventEntity looks at LocalPlayer and starts talking
  1: 0x0077 [0x6F] WAIT_FRAME_DELAY: Yield until WaitTime reaches zero
  2: 0x0078 [0x70] WAIT_ENTITY_RENDER_FLAG: Wait while EventEntity->Render.Flags3 bit 2 is set (cancel turn if not)
  3: 0x0079 [0x29] REQ_SET_WAIT(priority=0x08, entity_id=Akkeke (ID: 17752123/0x010EE03B), tag_num=0x01)
  4: 0x0080 [0x1D] PRINT_EVENT_MESSAGE(message_id=8471*)
    → "Falling asleep in class shows you lack excitement and motivation in your daily life.\u007F1\u0000\u0007"
  5: 0x0083 [0x23] WAIT_FOR_DIALOG_INTERACTION
  6: 0x0084 [0x1D] PRINT_EVENT_MESSAGE(message_id=8472*)
    → "When he wakes up, the next thing Paku-Nakku will know is that he's been dropped down into the beginners class!\u007F1\u0000\u0007"
  7: 0x0087 [0x23] WAIT_FOR_DIALOG_INTERACTION
  8: 0x0088 [0x29] REQ_SET_WAIT(priority=0x08, entity_id=Akkeke (ID: 17752123/0x010EE03B), tag_num=0x02)
  9: 0x008F [0x20] SET_CLI_EVENT_UC_FLAG: Unlock player control
 10: 0x0091 [0x21] END_EVENT
 11: 0x0092 [0x00] END_REQSTACK()
```
