# Event 122

## Metadata

| Field           | Value    |
|-----------------|----------|
| Event Index     | 4/7      |
| Offset          | 0x0204   |
| Data Size       | 53 bytes |
| Calculated Size | 53 bytes |
| Instructions    | 12       |

```
      00 01 02 03 04 05 06 07  08 09 0A 0B 0C 0D 0E 0F
      -- -- -- -- -- -- -- --  -- -- -- -- -- -- -- --
0200:             20 01 42 1E  F0 FF FF 7F 6F 70 66 00       .B.....opf.
0210: 80 F8 FF FF 7F F8 FF FF  7F 74 6C 6B 30 1D 24 80  .........tlk0.$.
0220: 23 03 01 10 25 80 45 26  80 F0 FF FF 7F F0 FF FF  #...%.E&........
0230: 7F 71 73 74 63 03 80 21  00                       .qstc..!.       
```

## Opcodes

```
  0: 0x0204 [0x20] SET_CLI_EVENT_UC_FLAG: Lock player control
  1: 0x0206 [0x42] SET_CLI_EVENT_CANCEL_DATA()
  2: 0x0207 [0x1E] EventEntity looks at LocalPlayer and starts talking
  3: 0x020C [0x6F] WAIT_FRAME_DELAY: Yield until WaitTime reaches zero
  4: 0x020D [0x70] WAIT_ENTITY_RENDER_FLAG: Wait while EventEntity->Render.Flags3 bit 2 is set (cancel turn if not)
  5: 0x020E [0x66] LOAD_EXT_SCHEDULER_MAIN: Load scheduler "tlk0" with entities [EventEntity, EventEntity], work=20*
  6: 0x021D [0x1D] PRINT_EVENT_MESSAGE(message_id=6896*)
    → "Look what we got here! You made it in time! Congrats, the money's yours! Don't spend it all in one place.\u007F1\u0000\u0007"
  7: 0x0220 [0x23] WAIT_FOR_DIALOG_INTERACTION
  8: 0x0221 [0x03] Work_Zone[1] = 777*
  9: 0x0226 [0x45] LOAD_SCHEDULED_TASK: Load scheduler "qstc" with entities [LocalPlayer, LocalPlayer], work=[201*, 0*]
 10: 0x0237 [0x21] END_EVENT
 11: 0x0238 [0x00] END_REQSTACK()
```
