# Event 316

## Metadata

| Field           | Value    |
|-----------------|----------|
| Event Index     | 64/87    |
| Offset          | 0x09E1   |
| Data Size       | 36 bytes |
| Calculated Size | 36 bytes |
| Instructions    | 13       |

```
      00 01 02 03 04 05 06 07  08 09 0A 0B 0C 0D 0E 0F
      -- -- -- -- -- -- -- --  -- -- -- -- -- -- -- --
09E0:    1E F0 FF FF 7F 6F 70  29 08 16 10 0F 01 01 1D   .....op).......
09F0: 4D 80 23 1D 4E 80 23 29  08 16 10 0F 01 02 1A 7A  M.#.N.#).......z
0A00: 0D 20 00 21 00                                    . .!.           
```

## Opcodes

```
  0: 0x09E1 [0x1E] EventEntity looks at LocalPlayer and starts talking
  1: 0x09E6 [0x6F] WAIT_FRAME_DELAY: Yield until WaitTime reaches zero
  2: 0x09E7 [0x70] WAIT_ENTITY_RENDER_FLAG: Wait while EventEntity->Render.Flags3 bit 2 is set (cancel turn if not)
  3: 0x09E8 [0x29] REQ_SET_WAIT(priority=0x08, entity_id=Kopuro-Popuro (ID: 17764374/0x010F1016), tag_num=0x01)
  4: 0x09EF [0x1D] PRINT_EVENT_MESSAGE(message_id=8173*)
    → "I don't get it...\u0007What went wrong with Legendary Plan B?\u007F1\u0000\u0007"
  5: 0x09F2 [0x23] WAIT_FOR_DIALOG_INTERACTION
  6: 0x09F3 [0x1D] PRINT_EVENT_MESSAGE(message_id=8174*)
    → "I know...I bet someone deliberately set out to interfere with my plan! Yeah, that's it. Someone must have employed adventurers to go out and hunt nocturnal monsters.\u007F1\u0000\u0007"
  7: 0x09F6 [0x23] WAIT_FOR_DIALOG_INTERACTION
  8: 0x09F7 [0x29] REQ_SET_WAIT(priority=0x08, entity_id=Kopuro-Popuro (ID: 17764374/0x010F1016), tag_num=0x02)
  9: 0x09FE [0x1A] CALL_SUBROUTINE(address=0x0D7A)
 10: 0x0A01 [0x20] SET_CLI_EVENT_UC_FLAG: Unlock player control
 11: 0x0A03 [0x21] END_EVENT
 12: 0x0A04 [0x00] END_REQSTACK()
```
