# Event 396

## Metadata

| Field           | Value    |
|-----------------|----------|
| Event Index     | 66/87    |
| Offset          | 0x0A08   |
| Data Size       | 36 bytes |
| Calculated Size | 36 bytes |
| Instructions    | 13       |

```
      00 01 02 03 04 05 06 07  08 09 0A 0B 0C 0D 0E 0F
      -- -- -- -- -- -- -- --  -- -- -- -- -- -- -- --
0A00:                          1E F0 FF FF 7F 6F 70 29          .....op)
0A10: 08 16 10 0F 01 01 1D 4F  80 23 1D 50 80 23 29 08  .......O.#.P.#).
0A20: 16 10 0F 01 02 1A 7A 0D  20 00 21 00              ......z. .!.    
```

## Opcodes

```
  0: 0x0A08 [0x1E] EventEntity looks at LocalPlayer and starts talking
  1: 0x0A0D [0x6F] WAIT_FRAME_DELAY: Yield until WaitTime reaches zero
  2: 0x0A0E [0x70] WAIT_ENTITY_RENDER_FLAG: Wait while EventEntity->Render.Flags3 bit 2 is set (cancel turn if not)
  3: 0x0A0F [0x29] REQ_SET_WAIT(priority=0x08, entity_id=Kopuro-Popuro (ID: 17764374/0x010F1016), tag_num=0x01)
  4: 0x0A16 [0x1D] PRINT_EVENT_MESSAGE(message_id=8470*)
    → "There are many taboos when one breathes life into these automaton dolls, you know, kid?\u007F1\u0000\u0007"
  5: 0x0A19 [0x23] WAIT_FOR_DIALOG_INTERACTION
  6: 0x0A1A [0x1D] PRINT_EVENT_MESSAGE(message_id=8471*)
    → "One very important rule is to never cast a second batch of magic on a doll that already has magic placed on it. If you're not careful, either you or the doll could die! Shivers!\u007F1\u0000\u0007"
  7: 0x0A1D [0x23] WAIT_FOR_DIALOG_INTERACTION
  8: 0x0A1E [0x29] REQ_SET_WAIT(priority=0x08, entity_id=Kopuro-Popuro (ID: 17764374/0x010F1016), tag_num=0x02)
  9: 0x0A25 [0x1A] CALL_SUBROUTINE(address=0x0D7A)
 10: 0x0A28 [0x20] SET_CLI_EVENT_UC_FLAG: Unlock player control
 11: 0x0A2A [0x21] END_EVENT
 12: 0x0A2B [0x00] END_REQSTACK()
```
