# Event 603

## Metadata

| Field           | Value    |
|-----------------|----------|
| Event Index     | 77/87    |
| Offset          | 0x0AFF   |
| Data Size       | 36 bytes |
| Calculated Size | 36 bytes |
| Instructions    | 13       |

```
      00 01 02 03 04 05 06 07  08 09 0A 0B 0C 0D 0E 0F
      -- -- -- -- -- -- -- --  -- -- -- -- -- -- -- --
0AF0:                                               1E                 .
0B00: F0 FF FF 7F 6F 70 29 08  16 10 0F 01 01 1D 65 80  ....op).......e.
0B10: 23 1D 66 80 23 29 08 16  10 0F 01 02 1A 7A 0D 20  #.f.#).......z. 
0B20: 00 21 00                                          .!.             
```

## Opcodes

```
  0: 0x0AFF [0x1E] EventEntity looks at LocalPlayer and starts talking
  1: 0x0B04 [0x6F] WAIT_FRAME_DELAY: Yield until WaitTime reaches zero
  2: 0x0B05 [0x70] WAIT_ENTITY_RENDER_FLAG: Wait while EventEntity->Render.Flags3 bit 2 is set (cancel turn if not)
  3: 0x0B06 [0x29] REQ_SET_WAIT(priority=0x08, entity_id=Kopuro-Popuro (ID: 17764374/0x010F1016), tag_num=0x01)
  4: 0x0B0D [0x1D] PRINT_EVENT_MESSAGE(message_id=9524*)
    → "Minister Ajido-Marujido succeeded in reactivating the towers, didn'taru he?\u007F1\u0000\u0007"
  5: 0x0B10 [0x23] WAIT_FOR_DIALOG_INTERACTION
  6: 0x0B11 [0x1D] PRINT_EVENT_MESSAGE(message_id=9525*)
    → "Isn't that a good thing?\u0007Why'd they have to go and throw him into the Dark Dungeon?\u007F1\u0000\u0007"
  7: 0x0B14 [0x23] WAIT_FOR_DIALOG_INTERACTION
  8: 0x0B15 [0x29] REQ_SET_WAIT(priority=0x08, entity_id=Kopuro-Popuro (ID: 17764374/0x010F1016), tag_num=0x02)
  9: 0x0B1C [0x1A] CALL_SUBROUTINE(address=0x0D7A)
 10: 0x0B1F [0x20] SET_CLI_EVENT_UC_FLAG: Unlock player control
 11: 0x0B21 [0x21] END_EVENT
 12: 0x0B22 [0x00] END_REQSTACK()
```
