# Event 656

## Metadata

| Field           | Value    |
|-----------------|----------|
| Event Index     | 84/87    |
| Offset          | 0x0C6A   |
| Data Size       | 36 bytes |
| Calculated Size | 36 bytes |
| Instructions    | 13       |

```
      00 01 02 03 04 05 06 07  08 09 0A 0B 0C 0D 0E 0F
      -- -- -- -- -- -- -- --  -- -- -- -- -- -- -- --
0C60:                                1E F0 FF FF 7F 6F            .....o
0C70: 70 29 08 16 10 0F 01 01  1D 72 80 23 1D 73 80 23  p).......r.#.s.#
0C80: 29 08 16 10 0F 01 02 1A  7A 0D 20 00 21 00        ).......z. .!.  
```

## Opcodes

```
  0: 0x0C6A [0x1E] EventEntity looks at LocalPlayer and starts talking
  1: 0x0C6F [0x6F] WAIT_FRAME_DELAY: Yield until WaitTime reaches zero
  2: 0x0C70 [0x70] WAIT_ENTITY_RENDER_FLAG: Wait while EventEntity->Render.Flags3 bit 2 is set (cancel turn if not)
  3: 0x0C71 [0x29] REQ_SET_WAIT(priority=0x08, entity_id=Kopuro-Popuro (ID: 17764374/0x010F1016), tag_num=0x01)
  4: 0x0C78 [0x1D] PRINT_EVENT_MESSAGE(message_id=9728*)
    → "Have you broughtaru the items for the All-New C-3000 to look at?\u007F1\u0000\u0007"
  5: 0x0C7B [0x23] WAIT_FOR_DIALOG_INTERACTION
  6: 0x0C7C [0x1D] PRINT_EVENT_MESSAGE(message_id=9729*)
    → "I need you to bring me \u0001\u0001\u0001 \u0001\u0005$\u0002\u0001\u0000\u0000 and \u0001\u0001\u0001 \u0001\u0005$\u0002\u0002\u0000\u0000. Whatcha waiting for?\u007F1\u0000\u0007"
  7: 0x0C7F [0x23] WAIT_FOR_DIALOG_INTERACTION
  8: 0x0C80 [0x29] REQ_SET_WAIT(priority=0x08, entity_id=Kopuro-Popuro (ID: 17764374/0x010F1016), tag_num=0x02)
  9: 0x0C87 [0x1A] CALL_SUBROUTINE(address=0x0D7A)
 10: 0x0C8A [0x20] SET_CLI_EVENT_UC_FLAG: Unlock player control
 11: 0x0C8C [0x21] END_EVENT
 12: 0x0C8D [0x00] END_REQSTACK()
```
