# Event 658

## Metadata

| Field           | Value    |
|-----------------|----------|
| Event Index     | 86/87    |
| Offset          | 0x0D00   |
| Data Size       | 36 bytes |
| Calculated Size | 36 bytes |
| Instructions    | 13       |

```
      00 01 02 03 04 05 06 07  08 09 0A 0B 0C 0D 0E 0F
      -- -- -- -- -- -- -- --  -- -- -- -- -- -- -- --
0D00: 1E F0 FF FF 7F 6F 70 29  08 16 10 0F 01 01 1D 78  .....op).......x
0D10: 80 23 1D 77 80 23 29 08  16 10 0F 01 02 1A 7A 0D  .#.w.#).......z.
0D20: 20 00 21 00                                        .!.            
```

## Opcodes

```
  0: 0x0D00 [0x1E] EventEntity looks at LocalPlayer and starts talking
  1: 0x0D05 [0x6F] WAIT_FRAME_DELAY: Yield until WaitTime reaches zero
  2: 0x0D06 [0x70] WAIT_ENTITY_RENDER_FLAG: Wait while EventEntity->Render.Flags3 bit 2 is set (cancel turn if not)
  3: 0x0D07 [0x29] REQ_SET_WAIT(priority=0x08, entity_id=Kopuro-Popuro (ID: 17764374/0x010F1016), tag_num=0x01)
  4: 0x0D0E [0x1D] PRINT_EVENT_MESSAGE(message_id=9733*)
    → "I'm going to make oodles and scoodles of All-New C-3000s, so bring me all the \u0001\u0005%\u0002\u0001\u0000\u0000 and \u0001\u0005%\u0002\u0002\u0000\u0000 that you can find.\u007F1\u0000\u0007"
  5: 0x0D11 [0x23] WAIT_FOR_DIALOG_INTERACTION
  6: 0x0D12 [0x1D] PRINT_EVENT_MESSAGE(message_id=9732*)
    → "Hmm, paying you that reward has put me in the red, but it's all part of a larger investmentaru. I'm gonna be rich!\u007F1\u0000\u0007"
  7: 0x0D15 [0x23] WAIT_FOR_DIALOG_INTERACTION
  8: 0x0D16 [0x29] REQ_SET_WAIT(priority=0x08, entity_id=Kopuro-Popuro (ID: 17764374/0x010F1016), tag_num=0x02)
  9: 0x0D1D [0x1A] CALL_SUBROUTINE(address=0x0D7A)
 10: 0x0D20 [0x20] SET_CLI_EVENT_UC_FLAG: Unlock player control
 11: 0x0D22 [0x21] END_EVENT
 12: 0x0D23 [0x00] END_REQSTACK()
```
