# Event 42

## Metadata

| Field           | Value    |
|-----------------|----------|
| Event Index     | 5/13     |
| Offset          | 0x0094   |
| Data Size       | 52 bytes |
| Calculated Size | 52 bytes |
| Instructions    | 12       |

```
      00 01 02 03 04 05 06 07  08 09 0A 0B 0C 0D 0E 0F
      -- -- -- -- -- -- -- --  -- -- -- -- -- -- -- --
0090:             42 1E F0 FF  FF 7F 1D 0F 80 23 66 06      B........#f.
00A0: 80 F8 FF FF 7F F8 FF FF  7F 74 6C 6B 30 1D 10 80  .........tlk0...
00B0: 23 1D 11 80 23 45 12 80  F0 FF FF 7F F0 FF FF 7F  #...#E..........
00C0: 71 73 74 63 06 80 21 00                           qstc..!.        
```

## Opcodes

```
  0: 0x0094 [0x42] SET_CLI_EVENT_CANCEL_DATA()
  1: 0x0095 [0x1E] EventEntity looks at LocalPlayer and starts talking
  2: 0x009A [0x1D] PRINT_EVENT_MESSAGE(message_id=10647*)
    → "Thank you for your kindness.\u0007It's good to hear that Omran's name is still there, after all these years.\u007F1\u0000\u0007"
  3: 0x009D [0x23] WAIT_FOR_DIALOG_INTERACTION
  4: 0x009E [0x66] LOAD_EXT_SCHEDULER_MAIN: Load scheduler "tlk0" with entities [EventEntity, EventEntity], work=0*
  5: 0x00AD [0x1D] PRINT_EVENT_MESSAGE(message_id=10648*)
    → "There was an eleventh name?\u0007\u00072Vig****t O**\u00073?\u0007No, I'm sorry, I don't know who that is.\u0007Wait, unless...\u007F1\u0000\u0007"
  6: 0x00B0 [0x23] WAIT_FOR_DIALOG_INTERACTION
  7: 0x00B1 [0x1D] PRINT_EVENT_MESSAGE(message_id=10649*)
    → "No, never mind. Thank you again.\u0007Here, this is for your trouble.\u007F1\u0000\u0007"
  8: 0x00B4 [0x23] WAIT_FOR_DIALOG_INTERACTION
  9: 0x00B5 [0x45] LOAD_SCHEDULED_TASK: Load scheduler "qstc" with entities [LocalPlayer, LocalPlayer], work=[201*, 0*]
 10: 0x00C6 [0x21] END_EVENT
 11: 0x00C7 [0x00] END_REQSTACK()
```
