# Event 264

## Metadata

| Field           | Value    |
|-----------------|----------|
| Event Index     | 6/6      |
| Offset          | 0x0053   |
| Data Size       | 39 bytes |
| Calculated Size | 39 bytes |
| Instructions    | 13       |

```
      00 01 02 03 04 05 06 07  08 09 0A 0B 0C 0D 0E 0F
      -- -- -- -- -- -- -- --  -- -- -- -- -- -- -- --
0050:          86 00 F8 FF FF  7F 1E F0 FF FF 7F 6F 70     ...........op
0060: 29 08 6C E0 0E 01 01 1D  03 80 23 1D 04 80 23 29  ).l.......#...#)
0070: 08 6C E0 0E 01 02 20 00  21 00                    .l.... .!.      
```

## Opcodes

```
  0: 0x0053 [0x86] EventEntity->Render.Flags3 = Flags3  // No change (flag=0)
  1: 0x0059 [0x1E] EventEntity looks at LocalPlayer and starts talking
  2: 0x005E [0x6F] WAIT_FRAME_DELAY: Yield until WaitTime reaches zero
  3: 0x005F [0x70] WAIT_ENTITY_RENDER_FLAG: Wait while EventEntity->Render.Flags3 bit 2 is set (cancel turn if not)
  4: 0x0060 [0x29] REQ_SET_WAIT(priority=0x08, entity_id=Rabiri-Tabiri (ID: 17752172/0x010EE06C), tag_num=0x01)
  5: 0x0067 [0x1D] PRINT_EVENT_MESSAGE(message_id=7918*)
    → "The food offerings made to the Yagudo are first placed in the two altars in front of each of the cavern entrances in Giddeus.\u007F1\u0000\u0007"
  6: 0x006A [0x23] WAIT_FOR_DIALOG_INTERACTION
  7: 0x006B [0x1D] PRINT_EVENT_MESSAGE(message_id=7919*)
    → "But if you don't hurry up, the Yagudo will carry them off to their underground treasure chambers for later distribution.\u007F1\u0000\u0007"
  8: 0x006E [0x23] WAIT_FOR_DIALOG_INTERACTION
  9: 0x006F [0x29] REQ_SET_WAIT(priority=0x08, entity_id=Rabiri-Tabiri (ID: 17752172/0x010EE06C), tag_num=0x02)
 10: 0x0076 [0x20] SET_CLI_EVENT_UC_FLAG: Unlock player control
 11: 0x0078 [0x21] END_EVENT
 12: 0x0079 [0x00] END_REQSTACK()
```
