# Event 65535

## Metadata

| Field           | Value    |
|-----------------|----------|
| Event Index     | 7/13     |
| Offset          | 0x00DF   |
| Data Size       | 68 bytes |
| Calculated Size | 68 bytes |
| Instructions    | 12       |

```
      00 01 02 03 04 05 06 07  08 09 0A 0B 0C 0D 0E 0F
      -- -- -- -- -- -- -- --  -- -- -- -- -- -- -- --
00D0:                                               32                 2
00E0: 11 80 1F 00 12 80 13 80  10 80 1F 01 6F 1E 3D 60  ............o.=`
00F0: 0E 01 6F 76 F8 FF FF 7F  4A 3D 60 0E 01 F8 FF FF  ..ov....J=`.....
0100: 7F 5B 14 80 F8 FF FF 7F  F8 FF FF 7F 74 6C 6B 30  .[..........tlk0
0110: 1C 06 80 5B 14 80 3D 60  0E 01 3D 60 0E 01 74 68  ...[..=`..=`..th
0120: 6B 30 00                                          k0.             
```

## Opcodes

```
  0: 0x00DF [0x32] ExtData[1]->MainSpeed = 19* * 0.1
  1: 0x00E2 [0x1F] MOVE_ENTITY: EventEntity moves to X=32.710*, Z=-32.052*, Y=1.999*
  2: 0x00EA [0x1F] MOVE_ENTITY: Update entity position (mode=1)
  3: 0x00EC [0x6F] WAIT_FRAME_DELAY: Yield until WaitTime reaches zero
  4: 0x00ED [0x1E] EventEntity looks at Authere (ID: 17719357/0x010E603D) and starts talking
  5: 0x00F2 [0x6F] WAIT_FRAME_DELAY: Yield until WaitTime reaches zero
  6: 0x00F3 [0x76] CHECK_ENTITY_RENDER_FLAGS: Wait until EventEntity Render.Flags0 and Render.Flags3 conditions are met
  7: 0x00F8 [0x4A] Authere (ID: 17719357/0x010E603D) looks at EventEntity
  8: 0x0101 [0x5B] LOAD_EXT_SCHEDULER(work_offset=75*, entity1=EventEntity, entity2=EventEntity, action="tlk0")
  9: 0x0110 [0x1C] WAIT(30* ticks)
 10: 0x0113 [0x5B] LOAD_EXT_SCHEDULER(work_offset=75*, entity1=Authere (ID: 17719357/0x010E603D), entity2=Authere (ID: 17719357/0x010E603D), action="thk0")
 11: 0x0122 [0x00] END_REQSTACK()
```
