# Event 186

## Metadata

| Field           | Value    |
|-----------------|----------|
| Event Index     | 25/43    |
| Offset          | 0x0168   |
| Data Size       | 33 bytes |
| Calculated Size | 33 bytes |
| Instructions    | 12       |

```
      00 01 02 03 04 05 06 07  08 09 0A 0B 0C 0D 0E 0F
      -- -- -- -- -- -- -- --  -- -- -- -- -- -- -- --
0160:                          1E F0 FF FF 7F 6F 70 29          .....op)
0170: 08 36 E0 0E 01 01 1D 05  80 23 1D 06 80 23 29 08  .6.......#...#).
0180: 36 E0 0E 01 02 20 00 21  00                       6.... .!.       
```

## Opcodes

```
  0: 0x0168 [0x1E] EventEntity looks at LocalPlayer and starts talking
  1: 0x016D [0x6F] WAIT_FRAME_DELAY: Yield until WaitTime reaches zero
  2: 0x016E [0x70] WAIT_ENTITY_RENDER_FLAG: Wait while EventEntity->Render.Flags3 bit 2 is set (cancel turn if not)
  3: 0x016F [0x29] REQ_SET_WAIT(priority=0x08, entity_id=Fuepepe (ID: 17752118/0x010EE036), tag_num=0x01)
  4: 0x0176 [0x1D] PRINT_EVENT_MESSAGE(message_id=7749*)
    → "The Aurastery's School of Magic was creatively created to expansively expand the able abilities of child geniuses with the motto \u00072Wisely, Strongly, Correctly.\u00073\u007F1\u0000\u0007"
  5: 0x0179 [0x23] WAIT_FOR_DIALOG_INTERACTION
  6: 0x017A [0x1D] PRINT_EVENT_MESSAGE(message_id=7750*)
    → "Our skills guidance and testing promotively promote the \u00072strongly\u00073 part of that motto. We truly appreciate your cooperative cooperation.\u007F1\u0000\u0007"
  7: 0x017D [0x23] WAIT_FOR_DIALOG_INTERACTION
  8: 0x017E [0x29] REQ_SET_WAIT(priority=0x08, entity_id=Fuepepe (ID: 17752118/0x010EE036), tag_num=0x02)
  9: 0x0185 [0x20] SET_CLI_EVENT_UC_FLAG: Unlock player control
 10: 0x0187 [0x21] END_EVENT
 11: 0x0188 [0x00] END_REQSTACK()
```
