# Event 423

## Metadata

| Field           | Value    |
|-----------------|----------|
| Event Index     | 24/43    |
| Offset          | 0x0147   |
| Data Size       | 33 bytes |
| Calculated Size | 33 bytes |
| Instructions    | 12       |

```
      00 01 02 03 04 05 06 07  08 09 0A 0B 0C 0D 0E 0F
      -- -- -- -- -- -- -- --  -- -- -- -- -- -- -- --
0140:                      1E  F0 FF FF 7F 6F 70 29 08         .....op).
0150: 36 E0 0E 01 01 1D 03 80  23 1D 04 80 23 29 08 36  6.......#...#).6
0160: E0 0E 01 02 20 00 21 00                           .... .!.        
```

## Opcodes

```
  0: 0x0147 [0x1E] EventEntity looks at LocalPlayer and starts talking
  1: 0x014C [0x6F] WAIT_FRAME_DELAY: Yield until WaitTime reaches zero
  2: 0x014D [0x70] WAIT_ENTITY_RENDER_FLAG: Wait while EventEntity->Render.Flags3 bit 2 is set (cancel turn if not)
  3: 0x014E [0x29] REQ_SET_WAIT(priority=0x08, entity_id=Fuepepe (ID: 17752118/0x010EE036), tag_num=0x01)
  4: 0x0155 [0x1D] PRINT_EVENT_MESSAGE(message_id=8338*)
    → "Every student is differently different. Unless one strives to understandingly understand each individual, one cannot educatedly educate in the fullest sense of the word.\u007F1\u0000\u0007"
  5: 0x0158 [0x23] WAIT_FOR_DIALOG_INTERACTION
  6: 0x0159 [0x1D] PRINT_EVENT_MESSAGE(message_id=8339*)
    → "At the very least, one should try to rememberingly remember their students' names... I'm not pointedly pointing the finger at anyone in particular here, but...\u007F1\u0000\u0007"
  7: 0x015C [0x23] WAIT_FOR_DIALOG_INTERACTION
  8: 0x015D [0x29] REQ_SET_WAIT(priority=0x08, entity_id=Fuepepe (ID: 17752118/0x010EE036), tag_num=0x02)
  9: 0x0164 [0x20] SET_CLI_EVENT_UC_FLAG: Unlock player control
 10: 0x0166 [0x21] END_EVENT
 11: 0x0167 [0x00] END_REQSTACK()
```
