# Event 443

## Metadata

| Field           | Value    |
|-----------------|----------|
| Event Index     | 31/43    |
| Offset          | 0x0245   |
| Data Size       | 33 bytes |
| Calculated Size | 33 bytes |
| Instructions    | 12       |

```
      00 01 02 03 04 05 06 07  08 09 0A 0B 0C 0D 0E 0F
      -- -- -- -- -- -- -- --  -- -- -- -- -- -- -- --
0240:                1E F0 FF  FF 7F 6F 70 29 08 36 E0       .....op).6.
0250: 0E 01 01 1D 13 80 23 1D  14 80 23 29 08 36 E0 0E  ......#...#).6..
0260: 01 02 20 00 21 00                                 .. .!.          
```

## Opcodes

```
  0: 0x0245 [0x1E] EventEntity looks at LocalPlayer and starts talking
  1: 0x024A [0x6F] WAIT_FRAME_DELAY: Yield until WaitTime reaches zero
  2: 0x024B [0x70] WAIT_ENTITY_RENDER_FLAG: Wait while EventEntity->Render.Flags3 bit 2 is set (cancel turn if not)
  3: 0x024C [0x29] REQ_SET_WAIT(priority=0x08, entity_id=Fuepepe (ID: 17752118/0x010EE036), tag_num=0x01)
  4: 0x0253 [0x1D] PRINT_EVENT_MESSAGE(message_id=8386*)
    → "It's my faulty fault.\u0007I should never have left them on my desk when I went outside. There's no forgiving my negligent negligence.\u007F1\u0000\u0007"
  5: 0x0256 [0x23] WAIT_FOR_DIALOG_INTERACTION
  6: 0x0257 [0x1D] PRINT_EVENT_MESSAGE(message_id=8387*)
    → "Please bring back the answer papers to me. Without them, I can't gradually grade my students. Learning starts from recognizably recognizing one's mistakes, you know?\u007F1\u0000\u0007"
  7: 0x025A [0x23] WAIT_FOR_DIALOG_INTERACTION
  8: 0x025B [0x29] REQ_SET_WAIT(priority=0x08, entity_id=Fuepepe (ID: 17752118/0x010EE036), tag_num=0x02)
  9: 0x0262 [0x20] SET_CLI_EVENT_UC_FLAG: Unlock player control
 10: 0x0264 [0x21] END_EVENT
 11: 0x0265 [0x00] END_REQSTACK()
```
