# Event 458

## Metadata

| Field           | Value    |
|-----------------|----------|
| Event Index     | 35/43    |
| Offset          | 0x02D3   |
| Data Size       | 43 bytes |
| Calculated Size | 43 bytes |
| Instructions    | 10       |

```
      00 01 02 03 04 05 06 07  08 09 0A 0B 0C 0D 0E 0F
      -- -- -- -- -- -- -- --  -- -- -- -- -- -- -- --
02D0:          42 1E F0 FF FF  7F 6F 70 29 0B 36 E0 0E     B.....op).6..
02E0: 01 23 29 0B 36 E0 0E 01  24 45 19 80 F0 FF FF 7F  .#).6...$E......
02F0: F0 FF FF 7F 71 73 74 63  0A 80 20 00 21 00        ....qstc.. .!.  
```

## Opcodes

```
  0: 0x02D3 [0x42] SET_CLI_EVENT_CANCEL_DATA()
  1: 0x02D4 [0x1E] EventEntity looks at LocalPlayer and starts talking
  2: 0x02D9 [0x6F] WAIT_FRAME_DELAY: Yield until WaitTime reaches zero
  3: 0x02DA [0x70] WAIT_ENTITY_RENDER_FLAG: Wait while EventEntity->Render.Flags3 bit 2 is set (cancel turn if not)
  4: 0x02DB [0x29] REQ_SET_WAIT(priority=0x0B, entity_id=Fuepepe (ID: 17752118/0x010EE036), tag_num=0x23)
  5: 0x02E2 [0x29] REQ_SET_WAIT(priority=0x0B, entity_id=Fuepepe (ID: 17752118/0x010EE036), tag_num=0x24)
  6: 0x02E9 [0x45] LOAD_SCHEDULED_TASK: Load scheduler "qstc" with entities [LocalPlayer, LocalPlayer], work=[201*, 0*]
  7: 0x02FA [0x20] SET_CLI_EVENT_UC_FLAG: Unlock player control
  8: 0x02FC [0x21] END_EVENT
  9: 0x02FD [0x00] END_REQSTACK()
```
