# Event 493

## Metadata

| Field           | Value    |
|-----------------|----------|
| Event Index     | 26/43    |
| Offset          | 0x0189   |
| Data Size       | 33 bytes |
| Calculated Size | 33 bytes |
| Instructions    | 12       |

```
      00 01 02 03 04 05 06 07  08 09 0A 0B 0C 0D 0E 0F
      -- -- -- -- -- -- -- --  -- -- -- -- -- -- -- --
0180:                             1E F0 FF FF 7F 6F 70           .....op
0190: 29 08 36 E0 0E 01 01 1D  07 80 23 1D 08 80 23 29  ).6.......#...#)
01A0: 08 36 E0 0E 01 02 20 00  21 00                    .6.... .!.      
```

## Opcodes

```
  0: 0x0189 [0x1E] EventEntity looks at LocalPlayer and starts talking
  1: 0x018E [0x6F] WAIT_FRAME_DELAY: Yield until WaitTime reaches zero
  2: 0x018F [0x70] WAIT_ENTITY_RENDER_FLAG: Wait while EventEntity->Render.Flags3 bit 2 is set (cancel turn if not)
  3: 0x0190 [0x29] REQ_SET_WAIT(priority=0x08, entity_id=Fuepepe (ID: 17752118/0x010EE036), tag_num=0x01)
  4: 0x0197 [0x1D] PRINT_EVENT_MESSAGE(message_id=8488*)
    → "It's rather hard to say that Mr. Pechiru-Mashiru is respectingly respected by his studious students, let alone his peerless peers!\u007F1\u0000\u0007"
  5: 0x019A [0x23] WAIT_FOR_DIALOG_INTERACTION
  6: 0x019B [0x1D] PRINT_EVENT_MESSAGE(message_id=8489*)
    → "He should take a hardy hard look at himself as an educated educator.\u007F1\u0000\u0007"
  7: 0x019E [0x23] WAIT_FOR_DIALOG_INTERACTION
  8: 0x019F [0x29] REQ_SET_WAIT(priority=0x08, entity_id=Fuepepe (ID: 17752118/0x010EE036), tag_num=0x02)
  9: 0x01A6 [0x20] SET_CLI_EVENT_UC_FLAG: Unlock player control
 10: 0x01A8 [0x21] END_EVENT
 11: 0x01A9 [0x00] END_REQSTACK()
```
