# Event 65535

## Metadata

| Field           | Value    |
|-----------------|----------|
| Event Index     | 33/43    |
| Offset          | 0x0278   |
| Data Size       | 44 bytes |
| Calculated Size | 44 bytes |
| Instructions    | 10       |

```
      00 01 02 03 04 05 06 07  08 09 0A 0B 0C 0D 0E 0F
      -- -- -- -- -- -- -- --  -- -- -- -- -- -- -- --
0270:                          29 08 36 E0 0E 01 11 1D          ).6.....
0280: 15 80 23 29 08 36 E0 0E  01 13 29 08 36 E0 0E 01  ..#).6....).6...
0290: 14 29 08 36 E0 0E 01 01  1D 16 80 23 29 08 36 E0  .).6.......#).6.
02A0: 0E 01 02 00                                       ....            
```

## Opcodes

```
  0: 0x0278 [0x29] REQ_SET_WAIT(priority=0x08, entity_id=Fuepepe (ID: 17752118/0x010EE036), tag_num=0x11)
  1: 0x027F [0x1D] PRINT_EVENT_MESSAGE(message_id=8409*)
    → "Oh, looky-look at the answer sheets! They're all so tattered and torn. Why, I can't make heads or tails out of them.\u007F1\u0000\u0007"
  2: 0x0282 [0x23] WAIT_FOR_DIALOG_INTERACTION
  3: 0x0283 [0x29] REQ_SET_WAIT(priority=0x08, entity_id=Fuepepe (ID: 17752118/0x010EE036), tag_num=0x13)
  4: 0x028A [0x29] REQ_SET_WAIT(priority=0x08, entity_id=Fuepepe (ID: 17752118/0x010EE036), tag_num=0x14)
  5: 0x0291 [0x29] REQ_SET_WAIT(priority=0x08, entity_id=Fuepepe (ID: 17752118/0x010EE036), tag_num=0x01)
  6: 0x0298 [0x1D] PRINT_EVENT_MESSAGE(message_id=8410*)
    → "But at least they're back in our possessive possession. Say, could you take them to the principal for me?\u007F1\u0000\u0007"
  7: 0x029B [0x23] WAIT_FOR_DIALOG_INTERACTION
  8: 0x029C [0x29] REQ_SET_WAIT(priority=0x08, entity_id=Fuepepe (ID: 17752118/0x010EE036), tag_num=0x02)
  9: 0x02A3 [0x00] END_REQSTACK()
```
