# Event 65535

## Metadata

| Field           | Value    |
|-----------------|----------|
| Event Index     | 29/43    |
| Offset          | 0x021B   |
| Data Size       | 37 bytes |
| Calculated Size | 37 bytes |
| Instructions    | 9        |

```
      00 01 02 03 04 05 06 07  08 09 0A 0B 0C 0D 0E 0F
      -- -- -- -- -- -- -- --  -- -- -- -- -- -- -- --
0210:                                   29 08 36 E0 0E             ).6..
0220: 01 03 1D 10 80 23 29 08  36 E0 0E 01 04 29 08 36  .....#).6....).6
0230: E0 0E 01 05 1D 11 80 23  29 08 36 E0 0E 01 06 00  .......#).6.....
```

## Opcodes

```
  0: 0x021B [0x29] REQ_SET_WAIT(priority=0x08, entity_id=Fuepepe (ID: 17752118/0x010EE036), tag_num=0x03)
  1: 0x0222 [0x1D] PRINT_EVENT_MESSAGE(message_id=8383*)
    → "I don't care who stolidly stole them. I just want my students' test answers back. Please help me.\u007F1\u0000\u0007"
  2: 0x0225 [0x23] WAIT_FOR_DIALOG_INTERACTION
  3: 0x0226 [0x29] REQ_SET_WAIT(priority=0x08, entity_id=Fuepepe (ID: 17752118/0x010EE036), tag_num=0x04)
  4: 0x022D [0x29] REQ_SET_WAIT(priority=0x08, entity_id=Fuepepe (ID: 17752118/0x010EE036), tag_num=0x05)
  5: 0x0234 [0x1D] PRINT_EVENT_MESSAGE(message_id=8384*)
    → "I need to check the answers and see where each and every one of my students went wrong.\u007F1\u0000\u0007"
  6: 0x0237 [0x23] WAIT_FOR_DIALOG_INTERACTION
  7: 0x0238 [0x29] REQ_SET_WAIT(priority=0x08, entity_id=Fuepepe (ID: 17752118/0x010EE036), tag_num=0x06)
  8: 0x023F [0x00] END_REQSTACK()
```
