# Event 65535

## Metadata

| Field           | Value    |
|-----------------|----------|
| Event Index     | 18/31    |
| Offset          | 0x01AD   |
| Data Size       | 50 bytes |
| Calculated Size | 50 bytes |
| Instructions    | 8        |

```
      00 01 02 03 04 05 06 07  08 09 0A 0B 0C 0D 0E 0F
      -- -- -- -- -- -- -- --  -- -- -- -- -- -- -- --
01A0:                                         27 10 BF               '..
01B0: F3 05 01 08 27 10 C0 F3  05 01 08 27 10 C1 F3 05  ....'......'....
01C0: 01 0A 27 10 C2 F3 05 01  07 27 10 C3 F3 05 01 0A  ..'......'......
01D0: 27 10 C8 F3 05 01 07 27  10 C9 F3 05 01 07 00     '......'....... 
```

## Opcodes

```
  0: 0x01AD [0x27] REQ_SET(priority=0x10, entity_id=Y01 (ID: 17167295/0x0105F3BF), tag_num=0x08)
  1: 0x01B4 [0x27] REQ_SET(priority=0x10, entity_id=Y02 (ID: 17167296/0x0105F3C0), tag_num=0x08)
  2: 0x01BB [0x27] REQ_SET(priority=0x10, entity_id=Y03 (ID: 17167297/0x0105F3C1), tag_num=0x0A)
  3: 0x01C2 [0x27] REQ_SET(priority=0x10, entity_id=Y04 (ID: 17167298/0x0105F3C2), tag_num=0x07)
  4: 0x01C9 [0x27] REQ_SET(priority=0x10, entity_id=Y05 (ID: 17167299/0x0105F3C3), tag_num=0x0A)
  5: 0x01D0 [0x27] REQ_SET(priority=0x10, entity_id=D10 (ID: 17167304/0x0105F3C8), tag_num=0x07)
  6: 0x01D7 [0x27] REQ_SET(priority=0x10, entity_id=D11 (ID: 17167305/0x0105F3C9), tag_num=0x07)
  7: 0x01DE [0x00] END_REQSTACK()
```
