# Event 65535

## Metadata

| Field           | Value    |
|-----------------|----------|
| Event Index     | 17/31    |
| Offset          | 0x017B   |
| Data Size       | 50 bytes |
| Calculated Size | 50 bytes |
| Instructions    | 8        |

```
      00 01 02 03 04 05 06 07  08 09 0A 0B 0C 0D 0E 0F
      -- -- -- -- -- -- -- --  -- -- -- -- -- -- -- --
0170:                                   27 10 BF F3 05             '....
0180: 01 07 27 10 C0 F3 05 01  07 27 10 C1 F3 05 01 09  ..'......'......
0190: 27 10 C2 F3 05 01 06 27  10 C3 F3 05 01 09 27 10  '......'......'.
01A0: C8 F3 05 01 06 27 10 C9  F3 05 01 06 00           .....'.......   
```

## Opcodes

```
  0: 0x017B [0x27] REQ_SET(priority=0x10, entity_id=Y01 (ID: 17167295/0x0105F3BF), tag_num=0x07)
  1: 0x0182 [0x27] REQ_SET(priority=0x10, entity_id=Y02 (ID: 17167296/0x0105F3C0), tag_num=0x07)
  2: 0x0189 [0x27] REQ_SET(priority=0x10, entity_id=Y03 (ID: 17167297/0x0105F3C1), tag_num=0x09)
  3: 0x0190 [0x27] REQ_SET(priority=0x10, entity_id=Y04 (ID: 17167298/0x0105F3C2), tag_num=0x06)
  4: 0x0197 [0x27] REQ_SET(priority=0x10, entity_id=Y05 (ID: 17167299/0x0105F3C3), tag_num=0x09)
  5: 0x019E [0x27] REQ_SET(priority=0x10, entity_id=D10 (ID: 17167304/0x0105F3C8), tag_num=0x06)
  6: 0x01A5 [0x27] REQ_SET(priority=0x10, entity_id=D11 (ID: 17167305/0x0105F3C9), tag_num=0x06)
  7: 0x01AC [0x00] END_REQSTACK()
```
