# Event 65535

## Metadata

| Field           | Value     |
|-----------------|-----------|
| Event Index     | 23/23     |
| Offset          | 0x015B    |
| Data Size       | 162 bytes |
| Calculated Size | 162 bytes |
| Instructions    | 4         |

```
      00 01 02 03 04 05 06 07  08 09 0A 0B 0C 0D 0E 0F
      -- -- -- -- -- -- -- --  -- -- -- -- -- -- -- --
0150:                                   32 3A 80 1F 00             2:...
0160: 3B 80 3C 80 3D 80 1F 01  00 03 01 00 00 00 02 01  ;.<.=...........
0170: 00 35 80 05 7E 01 08 01  00 34 80 01 83 01 08 01  .5..~....4......
0180: 00 3E 80 14 01 00 3F 80  07 01 00 40 80 1B 03 01  .>....?....@....
0190: 00 00 00 02 01 00 35 80  05 A3 01 08 01 00 34 80  ......5.......4.
01A0: 01 A8 01 08 01 00 3E 80  14 01 00 3F 80 07 01 00  ......>....?....
01B0: 41 80 1B 03 01 00 00 00  02 01 00 35 80 05 C8 01  A..........5....
01C0: 08 01 00 34 80 01 CD 01  08 01 00 3E 80 14 01 00  ...4.......>....
01D0: 3F 80 07 01 00 42 80 1B  03 01 00 00 00 02 01 00  ?....B..........
01E0: 35 80 05 ED 01 08 01 00  34 80 01 F2 01 08 01 00  5.......4.......
01F0: 3E 80 14 01 00 3F 80 07  01 00 43 80 1B           >....?....C..   
```

## Opcodes

```
  0: 0x015B [0x32] ExtData[1]->MainSpeed = 56* * 0.1
  1: 0x015E [0x1F] MOVE_ENTITY: EventEntity moves to X=-164.366*, Z=-354.998*, Y=-25.052*
  2: 0x0166 [0x1F] MOVE_ENTITY: Update entity position (mode=1)
  3: 0x0168 [0x00] END_REQSTACK()
```

## Data or dead code:

```
# Dead code (unreachable instructions):
     0x0169 [0x03] ExtData[1]->WorkLocal[1] = ExtData[1]->WorkLocal[0]
     0x016E [0x02] IF !(ExtData[1]->WorkLocal[1] > 5*) GOTO 0x017E
     0x0176 [0x08] ExtData[1]->WorkLocal[1] -= 1*
     0x017B [0x01] GOTO 0x0183
     0x017E [0x08] ExtData[1]->WorkLocal[1] -= 2*
     0x0183 [0x14] ExtData[1]->WorkLocal[1] *= 10*
     0x0188 [0x07] ExtData[1]->WorkLocal[1] += 9*
     0x018D [0x1B] RETURN
     0x018E [0x03] ExtData[1]->WorkLocal[1] = ExtData[1]->WorkLocal[0]
     0x0193 [0x02] IF !(ExtData[1]->WorkLocal[1] > 5*) GOTO 0x01A3
     0x019B [0x08] ExtData[1]->WorkLocal[1] -= 1*
     0x01A0 [0x01] GOTO 0x01A8
     0x01A3 [0x08] ExtData[1]->WorkLocal[1] -= 2*
     0x01A8 [0x14] ExtData[1]->WorkLocal[1] *= 10*
     0x01AD [0x07] ExtData[1]->WorkLocal[1] += 70*
     0x01B2 [0x1B] RETURN
     0x01B3 [0x03] ExtData[1]->WorkLocal[1] = ExtData[1]->WorkLocal[0]
     0x01B8 [0x02] IF !(ExtData[1]->WorkLocal[1] > 5*) GOTO 0x01C8
     0x01C0 [0x08] ExtData[1]->WorkLocal[1] -= 1*
     0x01C5 [0x01] GOTO 0x01CD
     0x01C8 [0x08] ExtData[1]->WorkLocal[1] -= 2*
     0x01CD [0x14] ExtData[1]->WorkLocal[1] *= 10*
     0x01D2 [0x07] ExtData[1]->WorkLocal[1] += 140*
     0x01D7 [0x1B] RETURN
     0x01D8 [0x03] ExtData[1]->WorkLocal[1] = ExtData[1]->WorkLocal[0]
     0x01DD [0x02] IF !(ExtData[1]->WorkLocal[1] > 5*) GOTO 0x01ED
     0x01E5 [0x08] ExtData[1]->WorkLocal[1] -= 1*
     0x01EA [0x01] GOTO 0x01F2
     0x01ED [0x08] ExtData[1]->WorkLocal[1] -= 2*
     0x01F2 [0x14] ExtData[1]->WorkLocal[1] *= 10*
     0x01F7 [0x07] ExtData[1]->WorkLocal[1] += 210*
     0x01FC [0x1B] RETURN
```