# Event 65535

## Metadata

| Field           | Value    |
|-----------------|----------|
| Event Index     | 7/13     |
| Offset          | 0x008A   |
| Data Size       | 45 bytes |
| Calculated Size | 45 bytes |
| Instructions    | 9        |

```
      00 01 02 03 04 05 06 07  08 09 0A 0B 0C 0D 0E 0F
      -- -- -- -- -- -- -- --  -- -- -- -- -- -- -- --
0080:                                32 0F 80 1F 00 10            2.....
0090: 80 11 80 09 80 1F 01 6F  4A 72 60 0E 01 F8 FF FF  .......oJr`.....
00A0: 7F 6F 76 72 60 0E 01 66  12 80 72 60 0E 01 72 60  .ovr`..f..r`..r`
00B0: 0E 01 74 77 61 30 00                              ..twa0.         
```

## Opcodes

```
  0: 0x008A [0x32] ExtData[1]->MainSpeed = 39* * 0.1
  1: 0x008D [0x1F] MOVE_ENTITY: EventEntity moves to X=19.301*, Z=-28.036*, Y=1.999*
  2: 0x0095 [0x1F] MOVE_ENTITY: Update entity position (mode=1)
  3: 0x0097 [0x6F] WAIT_FRAME_DELAY: Yield until WaitTime reaches zero
  4: 0x0098 [0x4A] Vaquelage (ID: 17719410/0x010E6072) looks at EventEntity
  5: 0x00A1 [0x6F] WAIT_FRAME_DELAY: Yield until WaitTime reaches zero
  6: 0x00A2 [0x76] CHECK_ENTITY_RENDER_FLAGS: Wait until Vaquelage (ID: 17719410/0x010E6072) Render.Flags0 and Render.Flags3 conditions are met
  7: 0x00A7 [0x66] LOAD_EXT_SCHEDULER_MAIN(work_offset=29*, entity1=Vaquelage (ID: 17719410/0x010E6072), entity2=Vaquelage (ID: 17719410/0x010E6072), action="twa0")
  8: 0x00B6 [0x00] END_REQSTACK()
```
