# Event 65535

## Metadata

| Field           | Value    |
|-----------------|----------|
| Event Index     | 12/14    |
| Offset          | 0x021D   |
| Data Size       | 50 bytes |
| Calculated Size | 50 bytes |
| Instructions    | 12       |

```
      00 01 02 03 04 05 06 07  08 09 0A 0B 0C 0D 0E 0F
      -- -- -- -- -- -- -- --  -- -- -- -- -- -- -- --
0210:                                         32 1F 80               2..
0220: 1F 00 20 80 21 80 22 80  1F 01 6F 4B F8 FF FF 7F  .. .!."...oK....
0230: 23 80 1C 24 80 4B F8 FF  FF 7F 25 80 1C 26 80 4A  #..$.K....%..&.J
0240: F8 FF FF 7F BE 51 00 01  6F 76 F8 FF FF 7F 00     .....Q..ov..... 
```

## Opcodes

```
  0: 0x021D [0x32] ExtData[1]->MainSpeed = 38* * 0.1
  1: 0x0220 [0x1F] MOVE_ENTITY: EventEntity moves to X=-296.555*, Z=-556.784*, Y=-39.960*
  2: 0x0228 [0x1F] MOVE_ENTITY: Update entity position (mode=1)
  3: 0x022A [0x6F] WAIT_FRAME_DELAY: Yield until WaitTime reaches zero
  4: 0x022B [0x4B] UPDATE_ENTITY_YAW(entity=EventEntity, yaw=22.2°*)
  5: 0x0232 [0x1C] WAIT(30* ticks)
  6: 0x0235 [0x4B] UPDATE_ENTITY_YAW(entity=EventEntity, yaw=13.2°*)
  7: 0x023C [0x1C] WAIT(45* ticks)
  8: 0x023F [0x4A] EventEntity looks at Louverance (ID: 16798142/0x010051BE)
  9: 0x0248 [0x6F] WAIT_FRAME_DELAY: Yield until WaitTime reaches zero
 10: 0x0249 [0x76] CHECK_ENTITY_RENDER_FLAGS: Wait until EventEntity Render.Flags0 and Render.Flags3 conditions are met
 11: 0x024E [0x00] END_REQSTACK()
```
