# 0x7FFFFFF0 - Zone Events

## Common Data

| Field            | Value                        |
|------------------|------------------------------|
| Zone             | Cloister of Flames (ID: 207) |
| Block Size       | 9484 bytes                   |
| Total Events     | 13                           |
| References Count | 221                          |

## List of Events

| Event ID                 | Entrypoint   |   Size |   Instructions |
|--------------------------|--------------|--------|----------------|
| [65535](#event-65535)    | 0x0000       |      1 |              1 |
| [65534](#event-65534)    | 0x0001       |      1 |              1 |
| [65535.1](#event-655351) | 0x0002       |     10 |              2 |
| [32000](#event-32000)    | 0x000C       |   2116 |            412 |
| [32002](#event-32002)    | 0x0850       |    494 |             83 |
| [32001](#event-32001)    | 0x0A3E       |   1060 |            185 |
| [32003](#event-32003)    | 0x0E62       |   4771 |            617 |
| [65535.2](#event-655352) | 0x2105       |     10 |              2 |
| [65535.3](#event-655353) | 0x210F       |     10 |              2 |
| [65535.4](#event-655354) | 0x2119       |     19 |              3 |
| [65535.5](#event-655355) | 0x212C       |     19 |              3 |
| [65535.6](#event-655356) | 0x213F       |     10 |              2 |
| [65535.7](#event-655357) | 0x2149       |      9 |              3 |

## DAT References (imed_data)

|   Index | Hex Value   |   Dec Value |
|---------|-------------|-------------|
|       0 | 0x7A16F     |      500079 |
|       1 | 0xFFF9584A  |  4294531146 |
|       2 | 0xD9E9      |       55785 |
|       3 | 0x01BC      |         444 |
|       4 | 0x0000      |           0 |
|       5 | 0x000F      |          15 |
|       6 | 0x0010      |          16 |
|       7 | 0x001F      |          31 |
|       8 | 0xFFFFFFFF  |  4294967295 |
|       9 | 0x0001      |           1 |
|      10 | 0x1DFC      |        7676 |
|      11 | 0x1DA8      |        7592 |
|      12 | 0x0005      |           5 |
|      13 | 0x0002      |           2 |
|      14 | 0x0003      |           3 |
|      15 | 0x0004      |           4 |
|      16 | 0x1C3B      |        7227 |
|      17 | 0x00FF      |         255 |
|      18 | 0x00C8      |         200 |
|      19 | 0x0013      |          19 |
|      20 | 0x0008      |           8 |
|      21 | 0x0009      |           9 |
|      22 | 0x000B      |          11 |
|      23 | 0x1C46      |        7238 |
|      24 | 0x1C47      |        7239 |
|      25 | 0x1C48      |        7240 |
|      26 | 0x1C49      |        7241 |
|      27 | 0x1C6D      |        7277 |
|      28 | 0x0006      |           6 |
|      29 | 0x0012      |          18 |
|      30 | 0x0007      |           7 |
|      31 | 0x000A      |          10 |
|      32 | 0x000C      |          12 |
|      33 | 0x000D      |          13 |
|      34 | 0x000E      |          14 |
|      35 | 0x0011      |          17 |
|      36 | 0x0014      |          20 |
|      37 | 0x0015      |          21 |
|      38 | 0x0016      |          22 |
|      39 | 0x0017      |          23 |
|      40 | 0x0018      |          24 |
|      41 | 0x0019      |          25 |
|      42 | 0x001A      |          26 |
|      43 | 0x001B      |          27 |
|      44 | 0x001C      |          28 |
|      45 | 0x001D      |          29 |
|      46 | 0x001E      |          30 |
|      47 | 0x1DA2      |        7586 |
|      48 | 0x1DA7      |        7591 |
|      49 | 0x1DA6      |        7590 |
|      50 | 0x003C      |          60 |
|      51 | 0x1DFA      |        7674 |
|      52 | 0x1DF9      |        7673 |
|      53 | 0x0064      |         100 |
|      54 | 0x1D8E      |        7566 |
|      55 | 0x00C1      |         193 |
|      56 | 0x1C3E      |        7230 |
|      57 | 0x00C9      |         201 |
|      58 | 0x00B4      |         180 |
|      59 | 0xFFF6C42B  |  4294362155 |
|      60 | 0x752B9     |      479929 |
|      61 | 0xFFFFA767  |  4294944615 |
|      62 | 0x03E0      |         992 |
|      63 | 0xFFFBFE43  |  4294704707 |
|      64 | 0x5C401     |      377857 |
|      65 | 0xFFFDE79F  |  4294829983 |
|      66 | 0x0D92      |        3474 |
|      67 | 0x47AC      |       18348 |
|      68 | 0x76E1C     |      486940 |
|      69 | 0xFFFC93B2  |  4294742962 |
|      70 | 0x00C2      |         194 |
|      71 | 0x388A9     |      231593 |
|      72 | 0x57E9E     |      360094 |
|      73 | 0xFFFD59FC  |  4294793724 |
|      74 | 0x0726      |        1830 |
|      75 | 0x872C0     |      553664 |
|      76 | 0x7FEA3     |      523939 |
|      77 | 0xFFFF6AC3  |  4294929091 |
|      78 | 0x0A65      |        2661 |
|      79 | 0xFFF52C86  |  4294257798 |
|      80 | 0xFFF6B14D  |  4294357325 |
|      81 | 0xFFFFFFFB  |  4294967291 |
|      82 | 0x0318      |         792 |
|      83 | 0xFFF2A593  |  4294092179 |
|      84 | 0xFFFF548C  |  4294923404 |
|      85 | 0xFFFF442C  |  4294919212 |
|      86 | 0x0201      |         513 |
|      87 | 0xFFF478D5  |  4294211797 |
|      88 | 0x89AEB     |      563947 |
|      89 | 0xFFFE4A5D  |  4294855261 |
|      90 | 0x0DEF      |        3567 |
|      91 | 0x1E173     |      123251 |
|      92 | 0xB8221     |      754209 |
|      93 | 0xFFFD5FA4  |  4294795172 |
|      94 | 0x01B8      |         440 |
|      95 | 0xFFF81ECC  |  4294450892 |
|      96 | 0xFFF3BE05  |  4294163973 |
|      97 | 0x5E8E      |       24206 |
|      98 | 0x01B5      |         437 |
|      99 | 0x012C      |         300 |
|     100 | 0x0080      |         128 |
|     101 | 0xFFF690A7  |  4294348967 |
|     102 | 0xFFF62CE4  |  4294323428 |
|     103 | 0xFFFF9B33  |  4294941491 |
|     104 | 0x0EB1      |        3761 |
|     105 | 0xFFFAEE7D  |  4294635133 |
|     106 | 0xFFF941C6  |  4294525382 |
|     107 | 0xFFFE8CB1  |  4294872241 |
|     108 | 0x0EB0      |        3760 |
|     109 | 0xFFFFCF50  |  4294954832 |
|     110 | 0xFFF61B47  |  4294318919 |
|     111 | 0xFFFD07BB  |  4294772667 |
|     112 | 0x0EBA      |        3770 |
|     113 | 0x4EF35     |      323381 |
|     114 | 0xFFF93A6F  |  4294523503 |
|     115 | 0xFFFE5868  |  4294858856 |
|     116 | 0x0EA0      |        3744 |
|     117 | 0x92763     |      599907 |
|     118 | 0xFFF5AB97  |  4294290327 |
|     119 | 0xFFFFA837  |  4294944823 |
|     120 | 0x0EB3      |        3763 |
|     121 | 0x00A8      |         168 |
|     122 | 0x30D7B     |      200059 |
|     123 | 0xFFFFAA3A  |  4294945338 |
|     124 | 0xFFFFFF06  |  4294967046 |
|     125 | 0x0411      |        1041 |
|     126 | 0x00CA      |         202 |
|     127 | 0x837EC     |      538604 |
|     128 | 0x7A88C     |      501900 |
|     129 | 0xFFFFC98A  |  4294953354 |
|     130 | 0x0CBC      |        3260 |
|     131 | 0x00CB      |         203 |
|     132 | 0x870F5     |      553205 |
|     133 | 0x8FF41     |      589633 |
|     134 | 0xFFFFFFEB  |  4294967275 |
|     135 | 0x0587      |        1415 |
|     136 | 0x00D3      |         211 |
|     137 | 0x8AF88     |      569224 |
|     138 | 0x85E6E     |      548462 |
|     139 | 0x8FE5      |       36837 |
|     140 | 0x02A1      |         673 |
|     141 | 0x0024      |          36 |
|     142 | 0x1D90      |        7568 |
|     143 | 0x1D8F      |        7567 |
|     144 | 0x1DF8      |        7672 |
|     145 | 0x1D92      |        7570 |
|     146 | 0x1D91      |        7569 |
|     147 | 0xFFF4FF40  |  4294246208 |
|     148 | 0xFFF6DB65  |  4294368101 |
|     149 | 0x0A5C      |        2652 |
|     150 | 0x00E9      |         233 |
|     151 | 0x005A      |          90 |
|     152 | 0x7967E     |      497278 |
|     153 | 0xFFF96516  |  4294534422 |
|     154 | 0xD8FF      |       55551 |
|     155 | 0x0980      |        2432 |
|     156 | 0x00F0      |         240 |
|     157 | 0x0148      |         328 |
|     158 | 0x1DFD      |        7677 |
|     159 | 0x002D      |          45 |
|     160 | 0x0060      |          96 |
|     161 | 0x7A04E     |      499790 |
|     162 | 0xFFFA53B3  |  4294595507 |
|     163 | 0xA2B9      |       41657 |
|     164 | 0x0E01      |        3585 |
|     165 | 0x0078      |         120 |
|     166 | 0x1E07      |        7687 |
|     167 | 0x1DFE      |        7678 |
|     168 | 0x1DFF      |        7679 |
|     169 | 0x1E00      |        7680 |
|     170 | 0x1E01      |        7681 |
|     171 | 0x1E02      |        7682 |
|     172 | 0x0608      |        1544 |
|     173 | 0x1E08      |        7688 |
|     174 | 0x1E09      |        7689 |
|     175 | 0x1E0A      |        7690 |
|     176 | 0x1E0B      |        7691 |
|     177 | 0x1E0C      |        7692 |
|     178 | 0x0056      |          86 |
|     179 | 0x0079      |         121 |
|     180 | 0x1E2C      |        7724 |
|     181 | 0x1E2D      |        7725 |
|     182 | 0x1E2E      |        7726 |
|     183 | 0x007C      |         124 |
|     184 | 0x0050      |          80 |
|     185 | 0x1E03      |        7683 |
|     186 | 0x005C      |          92 |
|     187 | 0x1E04      |        7684 |
|     188 | 0x1E05      |        7685 |
|     189 | 0x1E06      |        7686 |
|     190 | 0x1E0D      |        7693 |
|     191 | 0x1E0E      |        7694 |
|     192 | 0x1E0F      |        7695 |
|     193 | 0x00D1      |         209 |
|     194 | 0x1E2F      |        7727 |
|     195 | 0x0099      |         153 |
|     196 | 0x1E30      |        7728 |
|     197 | 0x1E31      |        7729 |
|     198 | 0x1E32      |        7730 |
|     199 | 0x1E33      |        7731 |
|     200 | 0x1E34      |        7732 |
|     201 | 0x1C3C      |        7228 |
|     202 | 0x7A07C     |      499836 |
|     203 | 0xFFF9598F  |  4294531471 |
|     204 | 0xD9E5      |       55781 |
|     205 | 0x01BD      |         445 |
|     206 | 0x0096      |         150 |
|     207 | 0x0071      |         113 |
|     208 | 0x0074      |         116 |
|     209 | 0x0077      |         119 |
|     210 | 0x007B      |         123 |
|     211 | 0x0087      |         135 |
|     212 | 0x00D7      |         215 |
|     213 | 0x4332      |       17202 |
|     214 | 0xFFFF7F69  |  4294934377 |
|     215 | 0xFFFFEEA4  |  4294962852 |
|     216 | 0x09A8      |        2472 |
|     217 | 0xFFFA2930  |  4294584624 |
|     218 | 0x6D2F7     |      447223 |
|     219 | 0xFFFF0439  |  4294902841 |
|     220 | 0x0987      |        2439 |

## String References

- **7227**: Enter the battlefield? [Enter./Decline.]
- **7228**: Leave the battlefield? [Run away./Stay.]
- **7230**: You cannot enter the battlefield at present. Please wait a little longer.
- **7238**: You are cleared to enter the battlefield, but you cannot while party members are engaged in combat.
- **7239**: You are cleared to enter the battlefield, but you cannot while party members are engaged in combat.
- **7240**: You are cleared to enter the battlefield, but you cannot while party members are engaged in combat.
- **7241**: You are cleared to enter the battlefield, but you cannot while party members are engaged in combat.
- **7277**: You do not meet the requirements to enter the battlefield. Access is denied.
- **7566**: Skip the event? [Yes./No.]
- **7567**: Battlefield clear time: $3 second[/s]!
- **7568**: Battlefield clear time: $3 minute[/s], $2 second[/s]!
- **7569**: The current battlefield clear time record is $3 second[/s].
- **7570**: The current battlefield clear time record is $3 minute[/s] $2 second[/s].
- **7586**: Only $3 [member/members] have clearance to enter the battlefield. This room has reached its maximum capacity.
- **7590**: That record is held by $5 adventurers, including %0!
- **7591**: That record is held by %0!
- **7592**: Select difficulty. [Very difficult. (Level: ???)/Difficult. (Level: ???)/Normal. (Level: $18)/Easy. (Level: $17)/Very Easy. (Level: $16)/Leave.]
- **7672**: You have broken the clear time record for "[Trial by Fire/Trial-Size Trial by Fire/Waking the Beast/Sugar-coated Directive/$26Trial by Fire]"!
- **7673**: The current battlefield clear time record for "[Trial by Fire/Trial-Size Trial by Fire/Waking the Beast/Sugar-coated Directive/$26Trial by Fire]" is $3 second[/s].
- **7674**: The current battlefield clear time record for "[Trial by Fire/Trial-Size Trial by Fire/Waking the Beast/Sugar-coated Directive/$26Trial by Fire]" is $3 minute[/s] $2 second[/s].
- **7676**: Which battlefield will you enter? [None./Trial by Fire./Trial-Size Trial by Fire./Waking the Beast./Sugar-coated Directive./$26Trial by Fire./././././././././././././././././././././././././.]
- **7677**: As if sensing the presence of the protocrystal, the $3 begins to softly resonate...
- **7678**: ...Who interrupts my slumber?
- **7679**: Was I dreaming for but an instant, or an eternity? The radiance that illuminates all, lost...
- **7680**: Which is the real world, and which is the dream? Am I...?
- **7681**: But enough... Wager your life to prove your skill. Let us see if you can provide me with a moment of amusement.
- **7682**: Are you ready, you who is one yet many?
- **7683**: ...Impressive, child of Vana'diel.
- **7684**: We sleep in a time that is neither an instant, nor an eternity.
- **7685**: Is this world a dream, or is the dreamworld an illusion...?
- **7686**: Very well, child of Vana'diel. I will grant you a fragment of my power to bring order to chaos.
- **7687**: 
- **7688**: The $0 begins to softly resonate with the protocrystal.
- **7689**: Who interrupts...
- **7690**: Was I dreaming...? ...an eternity? ...lost...
- **7691**: But enough... Wager your life... ...provide me ...with...amusement.
- **7692**: Are you ready...?
- **7693**: ...Impressive...
- **7694**: ...time is neither ...an eternity.
- **7695**: ...to bring order...
- **7724**: Who interrupts my slumber?
- **7725**: I have watched at your side, the whisper beckoning me to wakefulness...
- **7726**: You have become mortal...
- **7727**: What are you planning...? To where do you take my power...?
- **7728**: This world is no dream... The world I dream of is no illusion...
- **7729**: Your kind has forgotten its divinity...
- **7730**: Heed my words. The creature...Carbuncle?
- **7731**: It is a false god. And your world is a finite thing.
- **7732**: Remember your divine origin. Only then can we help you.

## Events

### Event 65535

#### Metadata

| Field        | Value   |
|--------------|---------|
| Entrypoint   | 0x0000  |
| Data Size    | 1 bytes |
| Instructions | 1       |

```
      00 01 02 03 04 05 06 07  08 09 0A 0B 0C 0D 0E 0F
      -- -- -- -- -- -- -- --  -- -- -- -- -- -- -- --
0000: 00                                                .               
```

#### Opcodes

```
  0: 0x0000 [0x00] END_REQSTACK()
```

### Event 65534

#### Metadata

| Field        | Value   |
|--------------|---------|
| Entrypoint   | 0x0001  |
| Data Size    | 1 bytes |
| Instructions | 1       |

```
      00 01 02 03 04 05 06 07  08 09 0A 0B 0C 0D 0E 0F
      -- -- -- -- -- -- -- --  -- -- -- -- -- -- -- --
0000:    00                                              .              
```

#### Opcodes

```
  0: 0x0001 [0x00] END_REQSTACK()
```

### Event 65535.1

#### Metadata

| Field        | Value    |
|--------------|----------|
| Entrypoint   | 0x0002   |
| Data Size    | 10 bytes |
| Instructions | 2        |

```
      00 01 02 03 04 05 06 07  08 09 0A 0B 0C 0D 0E 0F
      -- -- -- -- -- -- -- --  -- -- -- -- -- -- -- --
0000:       37 00 80 01 80 02  80 03 80 00                7.........    
```

#### Opcodes

```
  0: 0x0002 [0x37] UPDATE_EVENT_POSITION_AND_DIR: x=500.079*, z=-436.150*, y=55.785*, direction=39.0°*
  1: 0x000B [0x00] END_REQSTACK()
```

### Event 32000

#### Metadata

| Field        | Value      |
|--------------|------------|
| Entrypoint   | 0x000C     |
| Data Size    | 2116 bytes |
| Instructions | 279        |

```
      00 01 02 03 04 05 06 07  08 09 0A 0B 0C 0D 0E 0F
      -- -- -- -- -- -- -- --  -- -- -- -- -- -- -- --
0000:                                      20 01 79 00               .y.
0010: F0 FF FF 7F F0 FF FF 7F  03 02 00 02 10 03 03 00  ................
0020: 03 10 03 05 00 04 10 03  06 00 05 10 03 0F 00 06  ................
0030: 10 03 10 00 07 10 03 11  00 08 10 41 04 80 05 80  ...........A....
0040: 09 10 07 00 41 06 80 07  80 09 10 06 10 06 01 00  ....A...........
0050: 02 07 00 04 80 00 4F 01  03 08 00 08 80 0F 08 00  ......O.........
0060: 06 00 10 08 00 09 80 24  0A 80 04 80 08 00 25 02  .......$......%.
0070: 00 10 04 80 00 7D 00 01  35 08 01 4F 01 03 03 00  .....}..5..O....
0080: 00 10 0C 03 00 06 16 00  06 13 00 3E 0F 00 03 00  ...........>....
0090: 2B 01 06 0F 00 06 08 00  3E 11 00 03 00 A2 00 01  +.......>.......
00A0: A9 00 3C 08 00 04 80 09  80 3E 10 00 03 00 B3 00  ..<......>......
00B0: 01 BA 00 3C 08 00 09 80  09 80 1A C7 1D 24 0B 80  ...<.........$..
00C0: 0C 80 08 00 25 02 00 10  04 80 00 D5 00 03 0F 00  ....%...........
00D0: 09 80 01 28 01 02 00 10  09 80 00 E5 00 03 0F 00  ...(............
00E0: 0D 80 01 28 01 02 00 10  0D 80 00 F5 00 03 0F 00  ...(............
00F0: 0E 80 01 28 01 02 00 10  0E 80 00 05 01 03 0F 00  ...(............
0100: 0F 80 01 28 01 02 00 10  0F 80 00 15 01 03 0F 00  ...(............
0110: 0C 80 01 28 01 02 00 10  0C 80 00 23 01 01 35 08  ...(.......#..5.
0120: 01 28 01 03 0F 00 0E 80  01 4F 01 06 0F 00 1A 4F  .(.......O.....O
0130: 08 02 16 00 09 80 00 4F  01 24 10 80 09 80 04 80  .......O.$......
0140: 25 02 00 10 09 80 00 4F  01 01 35 08 01 4F 01 42  %......O..5..O.B
0150: 03 01 10 11 80 43 00 43  01 06 01 10 45 12 80 F0  .....C.C....E...
0160: FF FF 7F F0 FF FF 7F 66  64 6F 31 04 80 55 12 80  .......fdo1..U..
0170: F0 FF FF 7F F0 FF FF 7F  66 64 6F 31 3B F0 FF FF  ........fdo1;...
0180: 7F 20 10 21 10 22 10 38  13 80 02 07 00 09 80 00  . .!.".8........
0190: A9 01 03 00 00 09 80 03  04 00 03 00 03 02 00 04  ................
01A0: 80 03 1C 00 04 80 01 69  05 03 00 00 09 80 02 00  .......i........
01B0: 00 0E 80 05 FE 07 02 04  80 09 80 00 C3 01 03 00  ................
01C0: 00 05 00 40 04 80 0E 80  01 10 00 00 40 0F 80 14  ...@........@...
01D0: 80 01 10 03 00 40 15 80  16 80 01 10 0F 00 06 02  .....@..........
01E0: 10 06 03 10 06 04 10 1A  88 20 47 00 09 00 0A 00  ......... G.....
01F0: 0B 00 0C 00 47 01 03 04  00 03 10 03 02 00 04 10  ....G...........
0200: 03 1A 00 05 10 03 0D 00  06 10 03 0E 00 07 10 03  ................
0210: 1C 00 09 10 02 02 10 09  80 80 1F 02 01 EB 07 02  ................
0220: 02 10 0F 80 80 69 02 02  00 00 09 80 80 36 02 48  .....i.......6.H
0230: 17 80 23 01 63 02 02 00  00 0D 80 80 45 02 48 18  ..#.c.......E.H.
0240: 80 23 01 63 02 02 00 00  0E 80 80 54 02 48 19 80  .#.c.......T.H..
0250: 23 01 63 02 02 00 00 0F  80 80 63 02 48 1A 80 23  #.c.......c.H..#
0260: 01 63 02 01 02 08 01 EB  07 02 02 10 0C 80 80 7B  .c.............{
0270: 02 48 1B 80 23 01 02 08  01 EB 07 02 02 10 1C 80  .H..#...........
0280: 80 7D 04 02 04 00 04 80  80 93 02 03 05 10 1C 80  .}..............
0290: 01 73 04 02 04 00 09 80  80 A3 02 03 05 10 09 80  .s..............
02A0: 01 73 04 02 04 00 0D 80  80 B3 02 03 05 10 1D 80  .s..............
02B0: 01 73 04 02 04 00 0E 80  80 C3 02 03 05 10 1C 80  .s..............
02C0: 01 73 04 02 04 00 0F 80  80 D3 02 03 05 10 1C 80  .s..............
02D0: 01 73 04 02 04 00 0C 80  80 E3 02 03 05 10 1C 80  .s..............
02E0: 01 73 04 02 04 00 1C 80  80 F3 02 03 05 10 1C 80  .s..............
02F0: 01 73 04 02 04 00 1E 80  80 03 03 03 05 10 1C 80  .s..............
0300: 01 73 04 02 04 00 14 80  80 13 03 03 05 10 1C 80  .s..............
0310: 01 73 04 02 04 00 15 80  80 23 03 03 05 10 1C 80  .s.......#......
0320: 01 73 04 02 04 00 1F 80  80 33 03 03 05 10 1C 80  .s.......3......
0330: 01 73 04 02 04 00 16 80  80 43 03 03 05 10 1C 80  .s.......C......
0340: 01 73 04 02 04 00 20 80  80 53 03 03 05 10 1C 80  .s.... ..S......
0350: 01 73 04 02 04 00 21 80  80 63 03 03 05 10 1C 80  .s....!..c......
0360: 01 73 04 02 04 00 22 80  80 73 03 03 05 10 1C 80  .s...."..s......
0370: 01 73 04 02 04 00 05 80  80 83 03 03 05 10 1C 80  .s..............
0380: 01 73 04 02 04 00 06 80  80 93 03 03 05 10 04 80  .s..............
0390: 01 73 04 02 04 00 23 80  80 A3 03 03 05 10 04 80  .s....#.........
03A0: 01 73 04 02 04 00 1D 80  80 B3 03 03 05 10 04 80  .s..............
03B0: 01 73 04 02 04 00 13 80  80 C3 03 03 05 10 04 80  .s..............
03C0: 01 73 04 02 04 00 24 80  80 D3 03 03 05 10 04 80  .s....$.........
03D0: 01 73 04 02 04 00 25 80  80 E3 03 03 05 10 04 80  .s....%.........
03E0: 01 73 04 02 04 00 26 80  80 F3 03 03 05 10 04 80  .s....&.........
03F0: 01 73 04 02 04 00 27 80  80 03 04 03 05 10 04 80  .s....'.........
0400: 01 73 04 02 04 00 28 80  80 13 04 03 05 10 04 80  .s....(.........
0410: 01 73 04 02 04 00 29 80  80 23 04 03 05 10 04 80  .s....)..#......
0420: 01 73 04 02 04 00 2A 80  80 33 04 03 05 10 04 80  .s....*..3......
0430: 01 73 04 02 04 00 2B 80  80 43 04 03 05 10 04 80  .s....+..C......
0440: 01 73 04 02 04 00 2C 80  80 53 04 03 05 10 04 80  .s....,..S......
0450: 01 73 04 02 04 00 2D 80  80 63 04 03 05 10 04 80  .s....-..c......
0460: 01 73 04 02 04 00 2E 80  80 73 04 03 05 10 04 80  .s.......s......
0470: 01 73 04 48 2F 80 23 01  02 08 01 EB 07 02 02 10  .s.H/.#.........
0480: 0E 80 80 8B 04 01 A9 01  01 EB 07 02 02 10 0D 80  ................
0490: 80 EB 07 02 0D 00 04 80  01 1F 05 02 13 00 04 80  ................
04A0: 01 D3 04 03 05 10 1A 00  02 1A 00 04 80 02 B0 04  ................
04B0: 02 0D 00 09 80 05 BF 04  48 30 80 23 01 D0 04 03  ........H0.#....
04C0: 06 10 0D 00 0C 06 10 03  07 10 0D 00 48 31 80 23  ............H1.#
04D0: 01 1F 05 03 05 10 1A 00  02 1A 00 04 80 02 FF 04  ................
04E0: 02 1A 00 32 80 04 FB 04  3F 04 10 05 10 32 80 15  ...2....?....2..
04F0: 05 10 32 80 48 33 80 23  01 FF 04 48 34 80 23 02  ..2.H3.#...H4.#.
0500: 0D 00 09 80 05 0E 05 48  30 80 23 01 1F 05 03 06  .......H0.#.....
0510: 10 0D 00 0C 06 10 03 07  10 0D 00 48 31 80 23 03  ...........H1.#.
0520: 03 00 04 00 03 14 00 35  80 07 14 00 03 00 02 02  .......5........
0530: 00 14 00 00 3E 05 03 02  00 09 80 01 43 05 03 02  ....>.......C...
0540: 00 04 80 02 02 00 04 80  00 69 05 02 0E 00 09 80  .........i......
0550: 00 69 05 24 36 80 09 80  04 80 25 02 00 10 04 80  .i.$6.....%.....
0560: 00 69 05 05 02 00 01 69  05 06 15 00 02 04 00 04  .i.....i........
0570: 80 80 7C 05 03 15 00 04  80 01 61 07 02 04 00 09  ..|.......a.....
0580: 80 80 8C 05 03 15 00 04  80 01 61 07 02 04 00 0D  ..........a.....
0590: 80 80 9C 05 03 15 00 04  80 01 61 07 02 04 00 0E  ..........a.....
05A0: 80 80 AC 05 03 15 00 04  80 01 61 07 02 04 00 0F  ..........a.....
05B0: 80 80 BC 05 03 15 00 04  80 01 61 07 02 04 00 0C  ..........a.....
05C0: 80 80 CC 05 03 15 00 04  80 01 61 07 02 04 00 1C  ..........a.....
05D0: 80 80 DC 05 03 15 00 04  80 01 61 07 02 04 00 1E  ..........a.....
05E0: 80 80 EC 05 03 15 00 04  80 01 61 07 02 04 00 14  ..........a.....
05F0: 80 80 FC 05 03 15 00 04  80 01 61 07 02 04 00 15  ..........a.....
0600: 80 80 0C 06 03 15 00 04  80 01 61 07 02 04 00 1F  ..........a.....
0610: 80 80 1C 06 03 15 00 04  80 01 61 07 02 04 00 16  ..........a.....
0620: 80 80 2C 06 03 15 00 04  80 01 61 07 02 04 00 20  ..,.......a.... 
0630: 80 80 3C 06 03 15 00 04  80 01 61 07 02 04 00 21  ..<.......a....!
0640: 80 80 4C 06 03 15 00 04  80 01 61 07 02 04 00 22  ..L.......a...."
0650: 80 80 5C 06 03 15 00 04  80 01 61 07 02 04 00 05  ..\.......a.....
0660: 80 80 6C 06 03 15 00 04  80 01 61 07 02 04 00 06  ..l.......a.....
0670: 80 80 7C 06 03 15 00 04  80 01 61 07 02 04 00 23  ..|.......a....#
0680: 80 80 8C 06 03 15 00 04  80 01 61 07 02 04 00 1D  ..........a.....
0690: 80 80 9C 06 03 15 00 04  80 01 61 07 02 04 00 13  ..........a.....
06A0: 80 80 AC 06 03 15 00 04  80 01 61 07 02 04 00 24  ..........a....$
06B0: 80 80 BC 06 03 15 00 04  80 01 61 07 02 04 00 25  ..........a....%
06C0: 80 80 CC 06 03 15 00 04  80 01 61 07 02 04 00 26  ..........a....&
06D0: 80 80 DC 06 03 15 00 04  80 01 61 07 02 04 00 27  ..........a....'
06E0: 80 80 EC 06 03 15 00 04  80 01 61 07 02 04 00 28  ..........a....(
06F0: 80 80 FC 06 03 15 00 04  80 01 61 07 02 04 00 29  ..........a....)
0700: 80 80 0C 07 03 15 00 04  80 01 61 07 02 04 00 2A  ..........a....*
0710: 80 80 1C 07 03 15 00 04  80 01 61 07 02 04 00 2B  ..........a....+
0720: 80 80 2C 07 03 15 00 04  80 01 61 07 02 04 00 2C  ..,.......a....,
0730: 80 80 3C 07 03 15 00 04  80 01 61 07 02 04 00 2D  ..<.......a....-
0740: 80 80 4C 07 03 15 00 04  80 01 61 07 02 04 00 2E  ..L.......a.....
0750: 80 80 5C 07 03 15 00 04  80 01 61 07 03 15 00 04  ..\.......a.....
0760: 80 02 02 00 09 80 00 7C  07 5C 00 37 80 5C 01 37  .......|.\.7.\.7
0770: 80 5C 02 37 80 5C 03 37  80 01 94 07 02 15 00 04  .\.7.\.7........
0780: 80 00 94 07 5C 00 37 80  5C 01 37 80 5C 02 37 80  ....\.7.\.7.\.7.
0790: 5C 03 37 80 02 02 00 04  80 00 A2 07 1A 2C 10 01  \.7..........,..
07A0: DB 07 6C F0 FF FF 7F 04  80 09 80 62 0D 80 F0 FF  ..l........b....
07B0: FF 7F F0 FF FF 7F 6D 61  69 6E 04 80 45 12 80 F0  ......main..E...
07C0: FF FF 7F F0 FF FF 7F 6F  76 6C 31 04 80 46 02 12  .......ovl1..F..
07D0: 00 02 12 00 04 80 00 DB  07 46 00 03 01 10 35 80  .........F....5.
07E0: 07 01 10 03 00 01 02 08  01 EB 07 0B 00 00 02 04  ................
07F0: 80 09 80 00 FB 07 03 00  00 0F 80 01 AE 01 48 38  ..............H8
0800: 80 23 45 39 80 F0 FF FF  7F F0 FF FF 7F 77 68 69  .#E9.........whi
0810: 31 04 80 45 12 80 F0 FF  FF 7F F0 FF FF 7F 62 6C  1..E..........bl
0820: 6F 66 04 80 45 12 80 F0  FF FF 7F F0 FF FF 7F 66  of..E..........f
0830: 64 69 30 04 80 02 07 00  09 80 00 4D 08 5C 00 04  di0........M.\..
0840: 80 5C 01 04 80 5C 02 37  80 5C 03 37 80 21 00 1B  .\...\.7.\.7.!..
```

#### Opcodes

```
  0: 0x000C [0x20] SET_CLI_EVENT_UC_FLAG: Lock player control
  1: 0x000E [0x79] LocalPlayer looks at LocalPlayer (Basic look)
  2: 0x0018 [0x03] ExtData[1]->WorkLocal[2] = Work_Zone[2]
  3: 0x001D [0x03] ExtData[1]->WorkLocal[3] = Work_Zone[3]
  4: 0x0022 [0x03] ExtData[1]->WorkLocal[5] = Work_Zone[4]
  5: 0x0027 [0x03] ExtData[1]->WorkLocal[6] = Work_Zone[5]
  6: 0x002C [0x03] ExtData[1]->WorkLocal[15] = Work_Zone[6]
  7: 0x0031 [0x03] ExtData[1]->WorkLocal[16] = Work_Zone[7]
  8: 0x0036 [0x03] ExtData[1]->WorkLocal[17] = Work_Zone[8]
  9: 0x003B [0x41] ExtData[1]->WorkLocal[7] = Work_Zone[9] (bits 0*-15*)
 10: 0x0044 [0x41] Work_Zone[6] = Work_Zone[9] (bits 16*-31*)
 11: 0x004D [0x06] ExtData[1]->WorkLocal[1] = 0
 12: 0x0050 [0x02] IF !(ExtData[1]->WorkLocal[7] == 0*) GOTO 0x014F
 13: 0x0058 [0x03] ExtData[1]->WorkLocal[8] = 4294967295*
 14: 0x005D [0x0F] ExtData[1]->WorkLocal[8] ^= ExtData[1]->WorkLocal[6]
 15: 0x0062 [0x10] ExtData[1]->WorkLocal[8] <<= 1*
 16: 0x0067 [0x24] CREATE_DIALOG(message_id=7676*, default_option=0*, option_flags=ExtData[1]->WorkLocal[8])
    → "Which battlefield will you enter? [None./Trial by Fire./Trial-Size Trial by Fire./Waking the Beast./Sugar-coated Directive./$26Trial by Fire./././././././././././././././././././././././././.]"
 17: 0x006E [0x25] WAIT_DIALOG_SELECT()
 18: 0x006F [0x02] IF !(Work_Zone[0] == 0*) GOTO 0x007D
 19: 0x0077 [0x01] GOTO 0x0835

SUBROUTINE_00A9:
 20: 0x00A9 [0x3E] IF !(ExtData[1]->WorkLocal[16] bit ExtData[1]->WorkLocal[3]) GOTO 0x00B3
 21: 0x00B0 [0x01] GOTO 0x00BA
 22: 0x00B3 [0x3C] SET_BIT_FLAG_CONDITIONAL(target_work_offset=ExtData[1]->WorkLocal[8], bit_index_work_offset=1*, condition_work_offset=1*)

SUBROUTINE_00BA:
 23: 0x00BA [0x1A] CALL_SUBROUTINE(address=0x1DC7)
 24: 0x00BD [0x24] CREATE_DIALOG(message_id=7592*, default_option=5*, option_flags=ExtData[1]->WorkLocal[8])
    → "Select difficulty. [Very difficult. (Level: ???)/Difficult. (Level: ???)/Normal. (Level: $18)/Easy. (Level: $17)/Very Easy. (Level: $16)/Leave.]"
 25: 0x00C4 [0x25] WAIT_DIALOG_SELECT()
 26: 0x00C5 [0x02] IF !(Work_Zone[0] == 0*) GOTO 0x00D5
 27: 0x00CD [0x03] ExtData[1]->WorkLocal[15] = 1*
 28: 0x00D2 [0x01] GOTO 0x0128
 29: 0x00D5 [0x02] IF !(Work_Zone[0] == 1*) GOTO 0x00E5
 30: 0x00DD [0x03] ExtData[1]->WorkLocal[15] = 2*
 31: 0x00E2 [0x01] GOTO 0x0128
 32: 0x00E5 [0x02] IF !(Work_Zone[0] == 2*) GOTO 0x00F5
 33: 0x00ED [0x03] ExtData[1]->WorkLocal[15] = 3*
 34: 0x00F2 [0x01] GOTO 0x0128
 35: 0x00F5 [0x02] IF !(Work_Zone[0] == 3*) GOTO 0x0105
 36: 0x00FD [0x03] ExtData[1]->WorkLocal[15] = 4*
 37: 0x0102 [0x01] GOTO 0x0128
 38: 0x0105 [0x02] IF !(Work_Zone[0] == 4*) GOTO 0x0115
 39: 0x010D [0x03] ExtData[1]->WorkLocal[15] = 5*
 40: 0x0112 [0x01] GOTO 0x0128
 41: 0x0115 [0x02] IF !(Work_Zone[0] == 5*) GOTO 0x0123
 42: 0x011D [0x01] GOTO 0x0835

SUBROUTINE_0128:
 43: 0x0128 [0x01] GOTO 0x014F
 44: 0x012B [0x06] ExtData[1]->WorkLocal[15] = 0
 45: 0x012E [0x1A] CALL_SUBROUTINE(address=0x084F)
 46: 0x0131 [0x02] IF !(ExtData[1]->WorkLocal[22] == 1*) GOTO 0x014F
 47: 0x0139 [0x24] CREATE_DIALOG(message_id=7227*, default_option=1*, option_flags=0*)
    → "Enter the battlefield? [Enter./Decline.]"
 48: 0x0140 [0x25] WAIT_DIALOG_SELECT()
 49: 0x0141 [0x02] IF !(Work_Zone[0] == 1*) GOTO 0x014F
 50: 0x0149 [0x01] GOTO 0x0835

SUBROUTINE_014F:
 51: 0x014F [0x42] SET_CLI_EVENT_CANCEL_DATA()
 52: 0x0150 [0x03] Work_Zone[1] = 255*
 53: 0x0155 [0x43] SEND_EVENT_UPDATE: Send pending tag to server (packet 0x005B)
 54: 0x0157 [0x43] SEND_EVENT_UPDATE: Check pending flag (skip if not pending)
 55: 0x0159 [0x06] Work_Zone[1] = 0
 56: 0x015C [0x45] LOAD_SCHEDULED_TASK: Load scheduler "fdo1" with entities [LocalPlayer, LocalPlayer], work=[200*, 0*]
 57: 0x016D [0x55] WAIT_LOAD_SCHEDULER: Wait for scheduler "fdo1" with entities [LocalPlayer, LocalPlayer], work=200*
 58: 0x017C [0x3B] GET_ENTITY_POSITION(entity=LocalPlayer, x_destination=Work_Zone[32], y_destination=Work_Zone[33], z_destination=Work_Zone[34])
 59: 0x0187 [0x38] SET_CLIENT_EVENT_MODE(mode=19*)
 60: 0x018A [0x02] IF !(ExtData[1]->WorkLocal[7] == 1*) GOTO 0x01A9
 61: 0x0192 [0x03] ExtData[1]->WorkLocal[0] = 1*
 62: 0x0197 [0x03] ExtData[1]->WorkLocal[4] = ExtData[1]->WorkLocal[3]
 63: 0x019C [0x03] ExtData[1]->WorkLocal[2] = 0*
 64: 0x01A1 [0x03] ExtData[1]->WorkLocal[28] = 0*
 65: 0x01A6 [0x01] GOTO 0x0569

SUBROUTINE_01A9:
 66: 0x01A9 [0x03] ExtData[1]->WorkLocal[0] = 1*

SUBROUTINE_01AE:
 67: 0x01AE [0x02] IF !(ExtData[1]->WorkLocal[0] > 3*) GOTO 0x07FE
 68: 0x01B6 [0x02] IF !(0* == 1*) GOTO 0x01C3
 69: 0x01BE [0x03] ExtData[1]->WorkLocal[0] = ExtData[1]->WorkLocal[5]
 70: 0x01C3 [0x40] SET_BIT_WORK_RANGE(start_bit=0*, end_bit=3*, target=Work_Zone[1], source=ExtData[1]->WorkLocal[0])
 71: 0x01CC [0x40] SET_BIT_WORK_RANGE(start_bit=4*, end_bit=8*, target=Work_Zone[1], source=ExtData[1]->WorkLocal[3])
 72: 0x01D5 [0x40] SET_BIT_WORK_RANGE(start_bit=9*, end_bit=11*, target=Work_Zone[1], source=ExtData[1]->WorkLocal[15])
 73: 0x01DE [0x06] Work_Zone[2] = 0
 74: 0x01E1 [0x06] Work_Zone[3] = 0
 75: 0x01E4 [0x06] Work_Zone[4] = 0
 76: 0x01E7 [0x1A] CALL_SUBROUTINE(address=0x2088)
 77: 0x01EA [0x47] UPDATE_PLAYER_POS(ExtData[1]->WorkLocal[9], ExtData[1]->WorkLocal[10], ExtData[1]->WorkLocal[11], yaw=ExtData[1]->WorkLocal[12])
 78: 0x01F4 [0x47] WAIT_PLAYER_POS_UPDATE
 79: 0x01F6 [0x03] ExtData[1]->WorkLocal[4] = Work_Zone[3]
 80: 0x01FB [0x03] ExtData[1]->WorkLocal[2] = Work_Zone[4]
 81: 0x0200 [0x03] ExtData[1]->WorkLocal[26] = Work_Zone[5]
 82: 0x0205 [0x03] ExtData[1]->WorkLocal[13] = Work_Zone[6]
 83: 0x020A [0x03] ExtData[1]->WorkLocal[14] = Work_Zone[7]
 84: 0x020F [0x03] ExtData[1]->WorkLocal[28] = Work_Zone[9]
 85: 0x0214 [0x02] IF !(Work_Zone[2] == 1*) GOTO 0x021F
 86: 0x021C [0x01] GOTO 0x07EB
 87: 0x021F [0x02] IF !(Work_Zone[2] == 4*) GOTO 0x0269
 88: 0x0227 [0x02] IF !(ExtData[1]->WorkLocal[0] == 1*) GOTO 0x0236
 89: 0x022F [0x48] [System] [7238*]:
    → "You are cleared to enter the battlefield, but you cannot while party members are engaged in combat."
 90: 0x0232 [0x23] WAIT_FOR_DIALOG_INTERACTION
 91: 0x0233 [0x01] GOTO 0x0263
 92: 0x0236 [0x02] IF !(ExtData[1]->WorkLocal[0] == 2*) GOTO 0x0245
 93: 0x023E [0x48] [System] [7239*]:
    → "You are cleared to enter the battlefield, but you cannot while party members are engaged in combat."
 94: 0x0241 [0x23] WAIT_FOR_DIALOG_INTERACTION
 95: 0x0242 [0x01] GOTO 0x0263
 96: 0x0245 [0x02] IF !(ExtData[1]->WorkLocal[0] == 3*) GOTO 0x0254
 97: 0x024D [0x48] [System] [7240*]:
    → "You are cleared to enter the battlefield, but you cannot while party members are engaged in combat."
 98: 0x0250 [0x23] WAIT_FOR_DIALOG_INTERACTION
 99: 0x0251 [0x01] GOTO 0x0263
100: 0x0254 [0x02] IF !(ExtData[1]->WorkLocal[0] == 4*) GOTO 0x0263
101: 0x025C [0x48] [System] [7241*]:
    → "You are cleared to enter the battlefield, but you cannot while party members are engaged in combat."
102: 0x025F [0x23] WAIT_FOR_DIALOG_INTERACTION
103: 0x0260 [0x01] GOTO 0x0263

SUBROUTINE_0263:
104: 0x0263 [0x01] GOTO 0x0802

SUBROUTINE_0473:
105: 0x0473 [0x48] [System] [7586*]:
    → "Only $3 [member/members] have clearance to enter the battlefield. This room has reached its maximum capacity."
106: 0x0476 [0x23] WAIT_FOR_DIALOG_INTERACTION
107: 0x0477 [0x01] GOTO 0x0802

SUBROUTINE_04D0:
108: 0x04D0 [0x01] GOTO 0x051F
109: 0x04D3 [0x03] Work_Zone[5] = ExtData[1]->WorkLocal[26]
110: 0x04D8 [0x02] IF !(ExtData[1]->WorkLocal[26] <= 0*) GOTO 0x04FF
111: 0x04E0 [0x02] IF !(ExtData[1]->WorkLocal[26] < 60*) GOTO 0x04FB
112: 0x04E8 [0x3F] Work_Zone[4] = Work_Zone[5] % 60*
113: 0x04EF [0x15] Work_Zone[5] /= 60*
114: 0x04F4 [0x48] [System] [7674*]:
    → "The current battlefield clear time record for "[Trial by Fire/Trial-Size Trial by Fire/Waking the Beast/Sugar-coated Directive/$26Trial by Fire]" is $3 minute[/s] $2 second[/s]."
115: 0x04F7 [0x23] WAIT_FOR_DIALOG_INTERACTION
116: 0x04F8 [0x01] GOTO 0x04FF
117: 0x04FB [0x48] [System] [7673*]:
    → "The current battlefield clear time record for "[Trial by Fire/Trial-Size Trial by Fire/Waking the Beast/Sugar-coated Directive/$26Trial by Fire]" is $3 second[/s]."
118: 0x04FE [0x23] WAIT_FOR_DIALOG_INTERACTION

SUBROUTINE_04FF:
119: 0x04FF [0x02] IF !(ExtData[1]->WorkLocal[13] > 1*) GOTO 0x050E
120: 0x0507 [0x48] [System] [7591*]:
    → "That record is held by %0!"
121: 0x050A [0x23] WAIT_FOR_DIALOG_INTERACTION
122: 0x050B [0x01] GOTO 0x051F
123: 0x050E [0x03] Work_Zone[6] = ExtData[1]->WorkLocal[13]
124: 0x0513 [0x0C] Work_Zone[6]--
125: 0x0516 [0x03] Work_Zone[7] = ExtData[1]->WorkLocal[13]
126: 0x051B [0x48] [System] [7590*]:
    → "That record is held by $5 adventurers, including %0!"
127: 0x051E [0x23] WAIT_FOR_DIALOG_INTERACTION

SUBROUTINE_051F:
128: 0x051F [0x03] ExtData[1]->WorkLocal[3] = ExtData[1]->WorkLocal[4]
129: 0x0524 [0x03] ExtData[1]->WorkLocal[20] = 100*
130: 0x0529 [0x07] ExtData[1]->WorkLocal[20] += ExtData[1]->WorkLocal[3]
131: 0x052E [0x02] IF !(ExtData[1]->WorkLocal[2] == ExtData[1]->WorkLocal[20]) GOTO 0x053E
132: 0x0536 [0x03] ExtData[1]->WorkLocal[2] = 1*
133: 0x053B [0x01] GOTO 0x0543
134: 0x053E [0x03] ExtData[1]->WorkLocal[2] = 0*

SUBROUTINE_0543:
135: 0x0543 [0x02] IF !(ExtData[1]->WorkLocal[2] == 0*) GOTO 0x0569
136: 0x054B [0x02] IF !(ExtData[1]->WorkLocal[14] == 1*) GOTO 0x0569
137: 0x0553 [0x24] CREATE_DIALOG(message_id=7566*, default_option=1*, option_flags=0*)
    → "Skip the event? [Yes./No.]"
138: 0x055A [0x25] WAIT_DIALOG_SELECT()
139: 0x055B [0x02] IF !(Work_Zone[0] == 0*) GOTO 0x0569
140: 0x0563 [0x05] ExtData[1]->WorkLocal[2] = 1
141: 0x0566 [0x01] GOTO 0x0569

SUBROUTINE_0569:
142: 0x0569 [0x06] ExtData[1]->WorkLocal[21] = 0
143: 0x056C [0x02] IF !(ExtData[1]->WorkLocal[4] == 0*) GOTO 0x057C
144: 0x0574 [0x03] ExtData[1]->WorkLocal[21] = 0*
145: 0x0579 [0x01] GOTO 0x0761
146: 0x057C [0x02] IF !(ExtData[1]->WorkLocal[4] == 1*) GOTO 0x058C
147: 0x0584 [0x03] ExtData[1]->WorkLocal[21] = 0*
148: 0x0589 [0x01] GOTO 0x0761
149: 0x058C [0x02] IF !(ExtData[1]->WorkLocal[4] == 2*) GOTO 0x059C
150: 0x0594 [0x03] ExtData[1]->WorkLocal[21] = 0*
151: 0x0599 [0x01] GOTO 0x0761
152: 0x059C [0x02] IF !(ExtData[1]->WorkLocal[4] == 3*) GOTO 0x05AC
153: 0x05A4 [0x03] ExtData[1]->WorkLocal[21] = 0*
154: 0x05A9 [0x01] GOTO 0x0761
155: 0x05AC [0x02] IF !(ExtData[1]->WorkLocal[4] == 4*) GOTO 0x05BC
156: 0x05B4 [0x03] ExtData[1]->WorkLocal[21] = 0*
157: 0x05B9 [0x01] GOTO 0x0761
158: 0x05BC [0x02] IF !(ExtData[1]->WorkLocal[4] == 5*) GOTO 0x05CC
159: 0x05C4 [0x03] ExtData[1]->WorkLocal[21] = 0*
160: 0x05C9 [0x01] GOTO 0x0761
161: 0x05CC [0x02] IF !(ExtData[1]->WorkLocal[4] == 6*) GOTO 0x05DC
162: 0x05D4 [0x03] ExtData[1]->WorkLocal[21] = 0*
163: 0x05D9 [0x01] GOTO 0x0761
164: 0x05DC [0x02] IF !(ExtData[1]->WorkLocal[4] == 7*) GOTO 0x05EC
165: 0x05E4 [0x03] ExtData[1]->WorkLocal[21] = 0*
166: 0x05E9 [0x01] GOTO 0x0761
167: 0x05EC [0x02] IF !(ExtData[1]->WorkLocal[4] == 8*) GOTO 0x05FC
168: 0x05F4 [0x03] ExtData[1]->WorkLocal[21] = 0*
169: 0x05F9 [0x01] GOTO 0x0761
170: 0x05FC [0x02] IF !(ExtData[1]->WorkLocal[4] == 9*) GOTO 0x060C
171: 0x0604 [0x03] ExtData[1]->WorkLocal[21] = 0*
172: 0x0609 [0x01] GOTO 0x0761
173: 0x060C [0x02] IF !(ExtData[1]->WorkLocal[4] == 10*) GOTO 0x061C
174: 0x0614 [0x03] ExtData[1]->WorkLocal[21] = 0*
175: 0x0619 [0x01] GOTO 0x0761
176: 0x061C [0x02] IF !(ExtData[1]->WorkLocal[4] == 11*) GOTO 0x062C
177: 0x0624 [0x03] ExtData[1]->WorkLocal[21] = 0*
178: 0x0629 [0x01] GOTO 0x0761
179: 0x062C [0x02] IF !(ExtData[1]->WorkLocal[4] == 12*) GOTO 0x063C
180: 0x0634 [0x03] ExtData[1]->WorkLocal[21] = 0*
181: 0x0639 [0x01] GOTO 0x0761
182: 0x063C [0x02] IF !(ExtData[1]->WorkLocal[4] == 13*) GOTO 0x064C
183: 0x0644 [0x03] ExtData[1]->WorkLocal[21] = 0*
184: 0x0649 [0x01] GOTO 0x0761
185: 0x064C [0x02] IF !(ExtData[1]->WorkLocal[4] == 14*) GOTO 0x065C
186: 0x0654 [0x03] ExtData[1]->WorkLocal[21] = 0*
187: 0x0659 [0x01] GOTO 0x0761
188: 0x065C [0x02] IF !(ExtData[1]->WorkLocal[4] == 15*) GOTO 0x066C
189: 0x0664 [0x03] ExtData[1]->WorkLocal[21] = 0*
190: 0x0669 [0x01] GOTO 0x0761
191: 0x066C [0x02] IF !(ExtData[1]->WorkLocal[4] == 16*) GOTO 0x067C
192: 0x0674 [0x03] ExtData[1]->WorkLocal[21] = 0*
193: 0x0679 [0x01] GOTO 0x0761
194: 0x067C [0x02] IF !(ExtData[1]->WorkLocal[4] == 17*) GOTO 0x068C
195: 0x0684 [0x03] ExtData[1]->WorkLocal[21] = 0*
196: 0x0689 [0x01] GOTO 0x0761
197: 0x068C [0x02] IF !(ExtData[1]->WorkLocal[4] == 18*) GOTO 0x069C
198: 0x0694 [0x03] ExtData[1]->WorkLocal[21] = 0*
199: 0x0699 [0x01] GOTO 0x0761
200: 0x069C [0x02] IF !(ExtData[1]->WorkLocal[4] == 19*) GOTO 0x06AC
201: 0x06A4 [0x03] ExtData[1]->WorkLocal[21] = 0*
202: 0x06A9 [0x01] GOTO 0x0761
203: 0x06AC [0x02] IF !(ExtData[1]->WorkLocal[4] == 20*) GOTO 0x06BC
204: 0x06B4 [0x03] ExtData[1]->WorkLocal[21] = 0*
205: 0x06B9 [0x01] GOTO 0x0761
206: 0x06BC [0x02] IF !(ExtData[1]->WorkLocal[4] == 21*) GOTO 0x06CC
207: 0x06C4 [0x03] ExtData[1]->WorkLocal[21] = 0*
208: 0x06C9 [0x01] GOTO 0x0761
209: 0x06CC [0x02] IF !(ExtData[1]->WorkLocal[4] == 22*) GOTO 0x06DC
210: 0x06D4 [0x03] ExtData[1]->WorkLocal[21] = 0*
211: 0x06D9 [0x01] GOTO 0x0761
212: 0x06DC [0x02] IF !(ExtData[1]->WorkLocal[4] == 23*) GOTO 0x06EC
213: 0x06E4 [0x03] ExtData[1]->WorkLocal[21] = 0*
214: 0x06E9 [0x01] GOTO 0x0761
215: 0x06EC [0x02] IF !(ExtData[1]->WorkLocal[4] == 24*) GOTO 0x06FC
216: 0x06F4 [0x03] ExtData[1]->WorkLocal[21] = 0*
217: 0x06F9 [0x01] GOTO 0x0761
218: 0x06FC [0x02] IF !(ExtData[1]->WorkLocal[4] == 25*) GOTO 0x070C
219: 0x0704 [0x03] ExtData[1]->WorkLocal[21] = 0*
220: 0x0709 [0x01] GOTO 0x0761
221: 0x070C [0x02] IF !(ExtData[1]->WorkLocal[4] == 26*) GOTO 0x071C
222: 0x0714 [0x03] ExtData[1]->WorkLocal[21] = 0*
223: 0x0719 [0x01] GOTO 0x0761
224: 0x071C [0x02] IF !(ExtData[1]->WorkLocal[4] == 27*) GOTO 0x072C
225: 0x0724 [0x03] ExtData[1]->WorkLocal[21] = 0*
226: 0x0729 [0x01] GOTO 0x0761
227: 0x072C [0x02] IF !(ExtData[1]->WorkLocal[4] == 28*) GOTO 0x073C
228: 0x0734 [0x03] ExtData[1]->WorkLocal[21] = 0*
229: 0x0739 [0x01] GOTO 0x0761
230: 0x073C [0x02] IF !(ExtData[1]->WorkLocal[4] == 29*) GOTO 0x074C
231: 0x0744 [0x03] ExtData[1]->WorkLocal[21] = 0*
232: 0x0749 [0x01] GOTO 0x0761
233: 0x074C [0x02] IF !(ExtData[1]->WorkLocal[4] == 30*) GOTO 0x075C
234: 0x0754 [0x03] ExtData[1]->WorkLocal[21] = 0*
235: 0x0759 [0x01] GOTO 0x0761
236: 0x075C [0x03] ExtData[1]->WorkLocal[21] = 0*

SUBROUTINE_0761:
237: 0x0761 [0x02] IF !(ExtData[1]->WorkLocal[2] == 1*) GOTO 0x077C
238: 0x0769 [0x5C] MUSIC_CONTROL: Set Idle (Day) music to song 193*
239: 0x076D [0x5C] MUSIC_CONTROL: Set Idle (Night) music to song 193*
240: 0x0771 [0x5C] MUSIC_CONTROL: Set Combat (Solo) music to song 193*
241: 0x0775 [0x5C] MUSIC_CONTROL: Set Combat (Party) music to song 193*
242: 0x0779 [0x01] GOTO 0x0794
243: 0x077C [0x02] IF !(ExtData[1]->WorkLocal[21] == 0*) GOTO 0x0794
244: 0x0784 [0x5C] MUSIC_CONTROL: Set Idle (Day) music to song 193*
245: 0x0788 [0x5C] MUSIC_CONTROL: Set Idle (Night) music to song 193*
246: 0x078C [0x5C] MUSIC_CONTROL: Set Combat (Solo) music to song 193*
247: 0x0790 [0x5C] MUSIC_CONTROL: Set Combat (Party) music to song 193*

SUBROUTINE_0794:
248: 0x0794 [0x02] IF !(ExtData[1]->WorkLocal[2] == 0*) GOTO 0x07A2
249: 0x079C [0x1A] CALL_SUBROUTINE(address=0x102C)
250: 0x079F [0x01] GOTO 0x07DB
251: 0x07A2 [0x6C] FADE_ENTITY_COLOR(entity_id=LocalPlayer, end_alpha=0*, fade_time=1*)
252: 0x07AB [0x62] LOAD_EVENT_SCHEDULER: Load scheduler "main" with entities [LocalPlayer, LocalPlayer], work=[2*, 0*]
253: 0x07BC [0x45] LOAD_SCHEDULED_TASK: Load scheduler "ovl1" with entities [LocalPlayer, LocalPlayer], work=[200*, 0*]
254: 0x07CD [0x46] CAMERA_CONTROL: Query status
255: 0x07CF [0x12] 0x0200 = rand()
256: 0x07D2 [0x12] 0x0400 = rand()
257: 0x07D5 [0x80] LOAD_WAIT(entity=Unknown NPC (ID: 1174919936/0x4607DB00))
258: 0x07DA [0x00] END_REQSTACK()

SUBROUTINE_07DB:
259: 0x07DB [0x03] Work_Zone[1] = 100*
260: 0x07E0 [0x07] Work_Zone[1] += ExtData[1]->WorkLocal[3]
261: 0x07E5 [0x01] GOTO 0x0802

SUBROUTINE_07EB:
262: 0x07EB [0x0B] ExtData[1]->WorkLocal[0]++
263: 0x07EE [0x02] IF !(0* == 1*) GOTO 0x07FB
264: 0x07F6 [0x03] ExtData[1]->WorkLocal[0] = 4*
265: 0x07FB [0x01] GOTO 0x01AE
266: 0x07FE [0x48] [System] [7230*]:
    → "You cannot enter the battlefield at present. Please wait a little longer."
267: 0x0801 [0x23] WAIT_FOR_DIALOG_INTERACTION

SUBROUTINE_0802:
268: 0x0802 [0x45] LOAD_SCHEDULED_TASK: Load scheduler "whi1" with entities [LocalPlayer, LocalPlayer], work=[201*, 0*]
269: 0x0813 [0x45] LOAD_SCHEDULED_TASK: Load scheduler "blof" with entities [LocalPlayer, LocalPlayer], work=[200*, 0*]
270: 0x0824 [0x45] LOAD_SCHEDULED_TASK: Load scheduler "fdi0" with entities [LocalPlayer, LocalPlayer], work=[200*, 0*]

SUBROUTINE_0835:
271: 0x0835 [0x02] IF !(ExtData[1]->WorkLocal[7] == 1*) GOTO 0x084D
272: 0x083D [0x5C] MUSIC_CONTROL: Set Idle (Day) music to song 0*
273: 0x0841 [0x5C] MUSIC_CONTROL: Set Idle (Night) music to song 0*
274: 0x0845 [0x5C] MUSIC_CONTROL: Set Combat (Solo) music to song 193*
275: 0x0849 [0x5C] MUSIC_CONTROL: Set Combat (Party) music to song 193*
276: 0x084D [0x21] END_EVENT
277: 0x084E [0x00] END_REQSTACK()

SUBROUTINE_084F:
278: 0x084F [0x1B] RETURN
```

#### Data or dead code:

```
# Dead code (unreachable instructions):
     0x007A [0x01] GOTO 0x014F
# Dead code (unreachable instructions):
     0x0120 [0x01] GOTO 0x0128
# Dead code (unreachable instructions):
     0x014C [0x01] GOTO 0x014F
# Dead code (unreachable instructions):
     0x0266 [0x01] GOTO 0x07EB
     0x0278 [0x01] GOTO 0x07EB
# Dead code (unreachable instructions):
     0x047A [0x01] GOTO 0x07EB
     0x0488 [0x01] GOTO 0x07EB
# Dead code (unreachable instructions):
     0x07E8 [0x01] GOTO 0x07EB
```

### Event 32002

#### Metadata

| Field        | Value     |
|--------------|-----------|
| Entrypoint   | 0x0850    |
| Data Size    | 494 bytes |
| Instructions | 83        |

```
      00 01 02 03 04 05 06 07  08 09 0A 0B 0C 0D 0E 0F
      -- -- -- -- -- -- -- --  -- -- -- -- -- -- -- --
0850: 03 05 00 06 10 03 21 00  07 10 03 20 00 08 10 20  ......!.... ... 
0860: 01 42 3B F0 FF FF 7F 20  10 21 10 22 10 3A F0 FF  .B;.... .!.".:..
0870: FF 7F 23 10 45 12 80 F0  FF FF 7F F0 FF FF 7F 66  ..#.E..........f
0880: 64 6F 31 04 80 55 12 80  F0 FF FF 7F F0 FF FF 7F  do1..U..........
0890: 66 64 6F 31 02 04 80 09  80 00 FB 08 02 05 00 09  fdo1............
08A0: 80 80 B3 08 47 00 04 80  04 80 04 80 04 80 47 01  ....G.........G.
08B0: 01 F8 08 02 05 00 0D 80  80 CA 08 47 00 04 80 04  ...........G....
08C0: 80 04 80 04 80 47 01 01  F8 08 02 05 00 0E 80 80  .....G..........
08D0: E1 08 47 00 04 80 04 80  04 80 04 80 47 01 01 F8  ..G.........G...
08E0: 08 02 05 00 0F 80 80 F8  08 47 00 04 80 04 80 04  .........G......
08F0: 80 04 80 47 01 01 F8 08  01 04 0A 02 20 00 3A 80  ...G........ .:.
0900: 80 85 09 02 21 00 04 80  80 1A 09 47 00 3B 80 3C  ....!......G.;.<
0910: 80 3D 80 3E 80 47 01 01  82 09 02 21 00 09 80 80  .=.>.G.....!....
0920: 31 09 47 00 3F 80 40 80  41 80 42 80 47 01 01 82  1.G.?.@.A.B.G...
0930: 09 02 21 00 0D 80 80 48  09 47 00 43 80 44 80 45  ..!....H.G.C.D.E
0940: 80 46 80 47 01 01 82 09  02 21 00 0E 80 80 5F 09  .F.G.....!...._.
0950: 47 00 47 80 48 80 49 80  4A 80 47 01 01 82 09 02  G.G.H.I.J.G.....
0960: 21 00 0F 80 80 76 09 47  00 4B 80 4C 80 4D 80 4E  !....v.G.K.L.M.N
0970: 80 47 01 01 82 09 47 00  4F 80 50 80 51 80 52 80  .G....G.O.P.Q.R.
0980: 47 01 01 04 0A 02 20 00  1C 80 80 F8 09 02 21 00  G..... .......!.
0990: 09 80 80 A4 09 47 00 53  80 54 80 55 80 56 80 47  .....G.S.T.U.V.G
09A0: 01 01 F5 09 02 21 00 0D  80 80 BB 09 47 00 57 80  .....!......G.W.
09B0: 58 80 59 80 5A 80 47 01  01 F5 09 02 21 00 0E 80  X.Y.Z.G.....!...
09C0: 80 D2 09 47 00 5B 80 5C  80 5D 80 5E 80 47 01 01  ...G.[.\.].^.G..
09D0: F5 09 02 21 00 0F 80 80  E9 09 47 00 5F 80 60 80  ...!......G._.`.
09E0: 61 80 62 80 47 01 01 F5  09 47 00 4F 80 50 80 51  a.b.G....G.O.P.Q
09F0: 80 52 80 47 01 01 04 0A  47 00 4F 80 50 80 51 80  .R.G....G.O.P.Q.
0A00: 52 80 47 01 38 13 80 1A  3E 1D 45 39 80 F0 FF FF  R.G.8...>.E9....
0A10: 7F F0 FF FF 7F 77 68 69  31 04 80 45 12 80 F0 FF  .....whi1..E....
0A20: FF 7F F0 FF FF 7F 62 6C  6F 66 04 80 5C 00 04 80  ......blof..\...
0A30: 5C 01 04 80 5C 02 37 80  5C 03 37 80 21 00        \...\.7.\.7.!.  
```

#### Opcodes

```
  0: 0x0850 [0x03] ExtData[1]->WorkLocal[5] = Work_Zone[6]
  1: 0x0855 [0x03] ExtData[1]->WorkLocal[33] = Work_Zone[7]
  2: 0x085A [0x03] ExtData[1]->WorkLocal[32] = Work_Zone[8]
  3: 0x085F [0x20] SET_CLI_EVENT_UC_FLAG: Lock player control
  4: 0x0861 [0x42] SET_CLI_EVENT_CANCEL_DATA()
  5: 0x0862 [0x3B] GET_ENTITY_POSITION(entity=LocalPlayer, x_destination=Work_Zone[32], y_destination=Work_Zone[33], z_destination=Work_Zone[34])
  6: 0x086D [0x3A] CONVERT_YAW_TO_BYTE(entity=LocalPlayer, result_destination=Work_Zone[35])
  7: 0x0874 [0x45] LOAD_SCHEDULED_TASK: Load scheduler "fdo1" with entities [LocalPlayer, LocalPlayer], work=[200*, 0*]
  8: 0x0885 [0x55] WAIT_LOAD_SCHEDULER: Wait for scheduler "fdo1" with entities [LocalPlayer, LocalPlayer], work=200*
  9: 0x0894 [0x02] IF !(0* == 1*) GOTO 0x08FB
 10: 0x089C [0x02] IF !(ExtData[1]->WorkLocal[5] == 1*) GOTO 0x08B3
 11: 0x08A4 [0x47] UPDATE_PLAYER_POS(0.000*, 0.000*, 0.000*, yaw=0.0°*)
 12: 0x08AE [0x47] WAIT_PLAYER_POS_UPDATE
 13: 0x08B0 [0x01] GOTO 0x08F8
 14: 0x08B3 [0x02] IF !(ExtData[1]->WorkLocal[5] == 2*) GOTO 0x08CA
 15: 0x08BB [0x47] UPDATE_PLAYER_POS(0.000*, 0.000*, 0.000*, yaw=0.0°*)
 16: 0x08C5 [0x47] WAIT_PLAYER_POS_UPDATE
 17: 0x08C7 [0x01] GOTO 0x08F8
 18: 0x08CA [0x02] IF !(ExtData[1]->WorkLocal[5] == 3*) GOTO 0x08E1
 19: 0x08D2 [0x47] UPDATE_PLAYER_POS(0.000*, 0.000*, 0.000*, yaw=0.0°*)
 20: 0x08DC [0x47] WAIT_PLAYER_POS_UPDATE
 21: 0x08DE [0x01] GOTO 0x08F8
 22: 0x08E1 [0x02] IF !(ExtData[1]->WorkLocal[5] == 4*) GOTO 0x08F8
 23: 0x08E9 [0x47] UPDATE_PLAYER_POS(0.000*, 0.000*, 0.000*, yaw=0.0°*)
 24: 0x08F3 [0x47] WAIT_PLAYER_POS_UPDATE
 25: 0x08F5 [0x01] GOTO 0x08F8

SUBROUTINE_08F8:
 26: 0x08F8 [0x01] GOTO 0x0A04
 27: 0x08FB [0x02] IF !(ExtData[1]->WorkLocal[32] == 180*) GOTO 0x0985
 28: 0x0903 [0x02] IF !(ExtData[1]->WorkLocal[33] == 0*) GOTO 0x091A
 29: 0x090B [0x47] UPDATE_PLAYER_POS(-605.141*, 479.929*, -22.681*, yaw=87.2°*)
 30: 0x0915 [0x47] WAIT_PLAYER_POS_UPDATE
 31: 0x0917 [0x01] GOTO 0x0982
 32: 0x091A [0x02] IF !(ExtData[1]->WorkLocal[33] == 1*) GOTO 0x0931
 33: 0x0922 [0x47] UPDATE_PLAYER_POS(-262.589*, 377.857*, -137.313*, yaw=305.3°*)
 34: 0x092C [0x47] WAIT_PLAYER_POS_UPDATE
 35: 0x092E [0x01] GOTO 0x0982
 36: 0x0931 [0x02] IF !(ExtData[1]->WorkLocal[33] == 2*) GOTO 0x0948
 37: 0x0939 [0x47] UPDATE_PLAYER_POS(18.348*, 486.940*, -224.334*, yaw=17.1°*)
 38: 0x0943 [0x47] WAIT_PLAYER_POS_UPDATE
 39: 0x0945 [0x01] GOTO 0x0982
 40: 0x0948 [0x02] IF !(ExtData[1]->WorkLocal[33] == 3*) GOTO 0x095F
 41: 0x0950 [0x47] UPDATE_PLAYER_POS(231.593*, 360.094*, -173.572*, yaw=160.8°*)
 42: 0x095A [0x47] WAIT_PLAYER_POS_UPDATE
 43: 0x095C [0x01] GOTO 0x0982
 44: 0x095F [0x02] IF !(ExtData[1]->WorkLocal[33] == 4*) GOTO 0x0976
 45: 0x0967 [0x47] UPDATE_PLAYER_POS(553.664*, 523.939*, -38.205*, yaw=233.9°*)
 46: 0x0971 [0x47] WAIT_PLAYER_POS_UPDATE
 47: 0x0973 [0x01] GOTO 0x0982
 48: 0x0976 [0x47] UPDATE_PLAYER_POS(-709.498*, -609.971*, -0.005*, yaw=69.6°*)
 49: 0x0980 [0x47] WAIT_PLAYER_POS_UPDATE

SUBROUTINE_0982:
 50: 0x0982 [0x01] GOTO 0x0A04
 51: 0x0985 [0x02] IF !(ExtData[1]->WorkLocal[32] == 6*) GOTO 0x09F8
 52: 0x098D [0x02] IF !(ExtData[1]->WorkLocal[33] == 1*) GOTO 0x09A4
 53: 0x0995 [0x47] UPDATE_PLAYER_POS(-875.117*, -43.892*, -48.084*, yaw=45.1°*)
 54: 0x099F [0x47] WAIT_PLAYER_POS_UPDATE
 55: 0x09A1 [0x01] GOTO 0x09F5
 56: 0x09A4 [0x02] IF !(ExtData[1]->WorkLocal[33] == 2*) GOTO 0x09BB
 57: 0x09AC [0x47] UPDATE_PLAYER_POS(-755.499*, 563.947*, -112.035*, yaw=313.5°*)
 58: 0x09B6 [0x47] WAIT_PLAYER_POS_UPDATE
 59: 0x09B8 [0x01] GOTO 0x09F5
 60: 0x09BB [0x02] IF !(ExtData[1]->WorkLocal[33] == 3*) GOTO 0x09D2
 61: 0x09C3 [0x47] UPDATE_PLAYER_POS(123.251*, 754.209*, -172.124*, yaw=38.7°*)
 62: 0x09CD [0x47] WAIT_PLAYER_POS_UPDATE
 63: 0x09CF [0x01] GOTO 0x09F5
 64: 0x09D2 [0x02] IF !(ExtData[1]->WorkLocal[33] == 4*) GOTO 0x09E9
 65: 0x09DA [0x47] UPDATE_PLAYER_POS(-516.404*, -803.323*, 24.206*, yaw=38.4°*)
 66: 0x09E4 [0x47] WAIT_PLAYER_POS_UPDATE
 67: 0x09E6 [0x01] GOTO 0x09F5
 68: 0x09E9 [0x47] UPDATE_PLAYER_POS(-709.498*, -609.971*, -0.005*, yaw=69.6°*)
 69: 0x09F3 [0x47] WAIT_PLAYER_POS_UPDATE

SUBROUTINE_09F5:
 70: 0x09F5 [0x01] GOTO 0x0A04
 71: 0x09F8 [0x47] UPDATE_PLAYER_POS(-709.498*, -609.971*, -0.005*, yaw=69.6°*)
 72: 0x0A02 [0x47] WAIT_PLAYER_POS_UPDATE

SUBROUTINE_0A04:
 73: 0x0A04 [0x38] SET_CLIENT_EVENT_MODE(mode=19*)
 74: 0x0A07 [0x1A] CALL_SUBROUTINE(address=0x1D3E)
 75: 0x0A0A [0x45] LOAD_SCHEDULED_TASK: Load scheduler "whi1" with entities [LocalPlayer, LocalPlayer], work=[201*, 0*]
 76: 0x0A1B [0x45] LOAD_SCHEDULED_TASK: Load scheduler "blof" with entities [LocalPlayer, LocalPlayer], work=[200*, 0*]
 77: 0x0A2C [0x5C] MUSIC_CONTROL: Set Idle (Day) music to song 0*
 78: 0x0A30 [0x5C] MUSIC_CONTROL: Set Idle (Night) music to song 0*
 79: 0x0A34 [0x5C] MUSIC_CONTROL: Set Combat (Solo) music to song 193*
 80: 0x0A38 [0x5C] MUSIC_CONTROL: Set Combat (Party) music to song 193*
 81: 0x0A3C [0x21] END_EVENT
 82: 0x0A3D [0x00] END_REQSTACK()
```

### Event 32001

#### Metadata

| Field        | Value      |
|--------------|------------|
| Entrypoint   | 0x0A3E     |
| Data Size    | 1060 bytes |
| Instructions | 183        |

```
      00 01 02 03 04 05 06 07  08 09 0A 0B 0C 0D 0E 0F
      -- -- -- -- -- -- -- --  -- -- -- -- -- -- -- --
0A30:                                            79 00                y.
0A40: F0 FF FF 7F F0 FF FF 7F  03 21 00 02 10 03 1A 00  .........!......
0A50: 03 10 03 1B 00 05 10 03  20 00 06 10 03 19 00 07  ........ .......
0A60: 10 03 17 00 08 10 02 17  00 0E 80 04 73 0A 03 17  ............s...
0A70: 00 04 80 03 1C 00 09 10  20 01 42 3B F0 FF FF 7F  ........ .B;....
0A80: 20 10 21 10 22 10 3A F0  FF FF 7F 23 10 02 20 00   .!.".:....#.. .
0A90: 3A 80 01 98 0A 1C 63 80  45 39 80 F0 FF FF 7F F0  :.....c.E9......
0AA0: FF FF 7F 77 68 69 31 04  80 45 12 80 F0 FF FF 7F  ...whi1..E......
0AB0: F0 FF FF 7F 62 6C 6F 66  04 80 45 12 80 F0 FF FF  ....blof..E.....
0AC0: 7F F0 FF FF 7F 66 64 6F  31 04 80 55 12 80 F0 FF  .....fdo1..U....
0AD0: FF 7F F0 FF FF 7F 66 64  6F 31 6C F0 FF FF 7F 64  ......fdo1l....d
0AE0: 80 09 80 06 01 10 02 17  00 04 80 03 F1 0A 01 3F  ...............?
0AF0: 0C 02 20 00 3A 80 80 7B  0B 02 21 00 04 80 80 10  .. .:..{..!.....
0B00: 0B 47 00 65 80 66 80 67  80 68 80 47 01 01 78 0B  .G.e.f.g.h.G..x.
0B10: 02 21 00 09 80 80 27 0B  47 00 69 80 6A 80 6B 80  .!....'.G.i.j.k.
0B20: 6C 80 47 01 01 78 0B 02  21 00 0D 80 80 3E 0B 47  l.G..x..!....>.G
0B30: 00 6D 80 6E 80 6F 80 70  80 47 01 01 78 0B 02 21  .m.n.o.p.G..x..!
0B40: 00 0E 80 80 55 0B 47 00  71 80 72 80 73 80 74 80  ....U.G.q.r.s.t.
0B50: 47 01 01 78 0B 02 21 00  0F 80 80 6C 0B 47 00 75  G..x..!....l.G.u
0B60: 80 76 80 77 80 78 80 47  01 01 78 0B 47 00 4F 80  .v.w.x.G..x.G.O.
0B70: 50 80 51 80 52 80 47 01  01 3F 0C 02 20 00 79 80  P.Q.R.G..?.. .y.
0B80: 80 A9 0B 02 19 00 04 80  80 9A 0B 47 00 4F 80 50  ...........G.O.P
0B90: 80 51 80 52 80 47 01 01  A6 0B 47 00 7A 80 7B 80  .Q.R.G....G.z.{.
0BA0: 7C 80 7D 80 47 01 01 3F  0C 02 20 00 7E 80 80 D7  |.}.G..?.. .~...
0BB0: 0B 02 19 00 0F 80 80 C8  0B 47 00 7F 80 80 80 81  .........G......
0BC0: 80 82 80 47 01 01 D4 0B  47 00 4F 80 50 80 51 80  ...G....G.O.P.Q.
0BD0: 52 80 47 01 01 3F 0C 02  20 00 83 80 80 05 0C 02  R.G..?.. .......
0BE0: 19 00 0F 80 80 F6 0B 47  00 84 80 85 80 86 80 87  .......G........
0BF0: 80 47 01 01 02 0C 47 00  4F 80 50 80 51 80 52 80  .G....G.O.P.Q.R.
0C00: 47 01 01 3F 0C 02 20 00  88 80 80 33 0C 02 19 00  G..?.. ....3....
0C10: 0E 80 80 24 0C 47 00 89  80 8A 80 8B 80 8C 80 47  ...$.G.........G
0C20: 01 01 30 0C 47 00 4F 80  50 80 51 80 52 80 47 01  ..0.G.O.P.Q.R.G.
0C30: 01 3F 0C 47 00 4F 80 50  80 51 80 52 80 47 01 38  .?.G.O.P.Q.R.G.8
0C40: 13 80 02 17 00 0D 80 00  4D 0C 01 68 0C 02 17 00  ........M..h....
0C50: 09 80 00 18 0D 1C 05 80  24 36 80 09 80 04 80 25  ........$6.....%
0C60: 02 00 10 04 80 00 18 0D  02 20 00 3A 80 00 D4 0C  ......... .:....
0C70: 02 21 00 04 80 80 82 0C  36 65 80 66 80 67 80 01  .!......6e.f.g..
0C80: D1 0C 02 21 00 09 80 80  94 0C 36 69 80 6A 80 6B  ...!......6i.j.k
0C90: 80 01 D1 0C 02 21 00 0D  80 80 A6 0C 36 6D 80 6E  .....!......6m.n
0CA0: 80 6F 80 01 D1 0C 02 21  00 0E 80 80 B8 0C 36 71  .o.....!......6q
0CB0: 80 72 80 73 80 01 D1 0C  02 21 00 0F 80 80 CA 0C  .r.s.....!......
0CC0: 36 75 80 76 80 77 80 01  D1 0C 36 4F 80 50 80 51  6u.v.w....6O.P.Q
0CD0: 80 01 DD 0C 37 4F 80 50  80 51 80 52 80 80 F0 FF  ....7O.P.Q.R....
0CE0: FF 7F 62 0D 80 F0 FF FF  7F F0 FF FF 7F 6D 61 69  ..b..........mai
0CF0: 6E 04 80 45 12 80 F0 FF  FF 7F F0 FF FF 7F 66 64  n..E..........fd
0D00: 69 32 04 80 46 02 12 00  02 12 00 04 80 00 12 0D  i2..F...........
0D10: 46 00 01 5A 0D 01 18 0D  02 17 00 08 80 04 4C 0D  F..Z..........L.
0D20: 5C 00 37 80 5C 01 37 80  5C 02 37 80 5C 03 37 80  \.7.\.7.\.7.\.7.
0D30: 02 19 00 0D 80 80 4B 0D  5C 00 04 80 5C 01 04 80  ......K.\...\...
0D40: 5C 02 04 80 5C 03 04 80  01 4B 0D 9A 1A 5F 15 02  \...\....K..._..
0D50: 17 00 04 80 03 5A 0D 01  FA 0D 02 20 00 8D 80 80  .....Z..... ....
0D60: 65 0D 01 65 0D 02 20 00  23 80 80 70 0D 01 FA 0D  e..e.. .#..p....
0D70: 02 20 00 13 80 80 7B 0D  01 FA 0D 02 20 00 25 80  . ....{..... .%.
0D80: 80 86 0D 01 FA 0D 02 20  00 27 80 80 91 0D 01 FA  ....... .'......
0D90: 0D 03 05 10 1B 00 02 05  10 04 80 02 FA 0D 02 05  ................
0DA0: 10 32 80 04 B9 0D 3F 04  10 05 10 32 80 15 05 10  .2....?....2....
0DB0: 32 80 48 8E 80 23 01 BD  0D 48 8F 80 23 02 1B 00  2.H..#...H..#...
0DC0: 1A 00 05 D1 0D 03 07 10  19 00 48 90 80 23 01 FA  ..........H..#..
0DD0: 0D 02 1A 00 32 80 04 F1  0D 03 05 10 1A 00 3F 04  ....2.........?.
0DE0: 10 05 10 32 80 15 05 10  32 80 48 91 80 23 01 FA  ...2....2.H..#..
0DF0: 0D 03 05 10 1A 00 48 92  80 23 02 18 00 04 80 00  ......H..#......
0E00: 12 0E 5C 00 04 80 5C 01  04 80 5C 02 37 80 5C 03  ..\...\...\.7.\.
0E10: 37 80 02 17 00 04 80 03  3B 0E 45 12 80 F0 FF FF  7.......;.E.....
0E20: 7F F0 FF FF 7F 66 64 69  32 04 80 5C 00 04 80 5C  .....fdi2..\...\
0E30: 01 04 80 5C 02 37 80 5C  03 37 80 06 18 00 45 39  ...\.7.\.7....E9
0E40: 80 F0 FF FF 7F F0 FF FF  7F 77 68 69 31 04 80 45  .........whi1..E
0E50: 12 80 F0 FF FF 7F F0 FF  FF 7F 62 6C 6F 66 04 80  ..........blof..
0E60: 21 00                                             !.              
```

#### Opcodes

```
  0: 0x0A3E [0x79] LocalPlayer looks at LocalPlayer (Basic look)
  1: 0x0A48 [0x03] ExtData[1]->WorkLocal[33] = Work_Zone[2]
  2: 0x0A4D [0x03] ExtData[1]->WorkLocal[26] = Work_Zone[3]
  3: 0x0A52 [0x03] ExtData[1]->WorkLocal[27] = Work_Zone[5]
  4: 0x0A57 [0x03] ExtData[1]->WorkLocal[32] = Work_Zone[6]
  5: 0x0A5C [0x03] ExtData[1]->WorkLocal[25] = Work_Zone[7]
  6: 0x0A61 [0x03] ExtData[1]->WorkLocal[23] = Work_Zone[8]
  7: 0x0A66 [0x02] IF !(ExtData[1]->WorkLocal[23] < 3*) GOTO 0x0A73
  8: 0x0A6E [0x03] ExtData[1]->WorkLocal[23] = 0*
  9: 0x0A73 [0x03] ExtData[1]->WorkLocal[28] = Work_Zone[9]
 10: 0x0A78 [0x20] SET_CLI_EVENT_UC_FLAG: Lock player control
 11: 0x0A7A [0x42] SET_CLI_EVENT_CANCEL_DATA()
 12: 0x0A7B [0x3B] GET_ENTITY_POSITION(entity=LocalPlayer, x_destination=Work_Zone[32], y_destination=Work_Zone[33], z_destination=Work_Zone[34])
 13: 0x0A86 [0x3A] CONVERT_YAW_TO_BYTE(entity=LocalPlayer, result_destination=Work_Zone[35])
 14: 0x0A8D [0x02] IF !(ExtData[1]->WorkLocal[32] == 180*) GOTO 0x0A98
 15: 0x0A95 [0x1C] WAIT(300* ticks)
 16: 0x0A98 [0x45] LOAD_SCHEDULED_TASK: Load scheduler "whi1" with entities [LocalPlayer, LocalPlayer], work=[201*, 0*]
 17: 0x0AA9 [0x45] LOAD_SCHEDULED_TASK: Load scheduler "blof" with entities [LocalPlayer, LocalPlayer], work=[200*, 0*]
 18: 0x0ABA [0x45] LOAD_SCHEDULED_TASK: Load scheduler "fdo1" with entities [LocalPlayer, LocalPlayer], work=[200*, 0*]
 19: 0x0ACB [0x55] WAIT_LOAD_SCHEDULER: Wait for scheduler "fdo1" with entities [LocalPlayer, LocalPlayer], work=200*
 20: 0x0ADA [0x6C] FADE_ENTITY_COLOR(entity_id=LocalPlayer, end_alpha=128*, fade_time=1*)
 21: 0x0AE3 [0x06] Work_Zone[1] = 0
 22: 0x0AE6 [0x02] IF !(ExtData[1]->WorkLocal[23] >= 0*) GOTO 0x0AF1
 23: 0x0AEE [0x01] GOTO 0x0C3F
 24: 0x0AF1 [0x02] IF !(ExtData[1]->WorkLocal[32] == 180*) GOTO 0x0B7B
 25: 0x0AF9 [0x02] IF !(ExtData[1]->WorkLocal[33] == 0*) GOTO 0x0B10
 26: 0x0B01 [0x47] UPDATE_PLAYER_POS(-618.329*, -643.868*, -25.805*, yaw=330.5°*)
 27: 0x0B0B [0x47] WAIT_PLAYER_POS_UPDATE
 28: 0x0B0D [0x01] GOTO 0x0B78
 29: 0x0B10 [0x02] IF !(ExtData[1]->WorkLocal[33] == 1*) GOTO 0x0B27
 30: 0x0B18 [0x47] UPDATE_PLAYER_POS(-332.163*, -441.914*, -95.055*, yaw=330.5°*)
 31: 0x0B22 [0x47] WAIT_PLAYER_POS_UPDATE
 32: 0x0B24 [0x01] GOTO 0x0B78
 33: 0x0B27 [0x02] IF !(ExtData[1]->WorkLocal[33] == 2*) GOTO 0x0B3E
 34: 0x0B2F [0x47] UPDATE_PLAYER_POS(-12.464*, -648.377*, -194.629*, yaw=331.3°*)
 35: 0x0B39 [0x47] WAIT_PLAYER_POS_UPDATE
 36: 0x0B3B [0x01] GOTO 0x0B78
 37: 0x0B3E [0x02] IF !(ExtData[1]->WorkLocal[33] == 3*) GOTO 0x0B55
 38: 0x0B46 [0x47] UPDATE_PLAYER_POS(323.381*, -443.793*, -108.440*, yaw=329.1°*)
 39: 0x0B50 [0x47] WAIT_PLAYER_POS_UPDATE
 40: 0x0B52 [0x01] GOTO 0x0B78
 41: 0x0B55 [0x02] IF !(ExtData[1]->WorkLocal[33] == 4*) GOTO 0x0B6C
 42: 0x0B5D [0x47] UPDATE_PLAYER_POS(599.907*, -676.969*, -22.473*, yaw=330.7°*)
 43: 0x0B67 [0x47] WAIT_PLAYER_POS_UPDATE
 44: 0x0B69 [0x01] GOTO 0x0B78
 45: 0x0B6C [0x47] UPDATE_PLAYER_POS(-709.498*, -609.971*, -0.005*, yaw=69.6°*)
 46: 0x0B76 [0x47] WAIT_PLAYER_POS_UPDATE

SUBROUTINE_0B78:
 47: 0x0B78 [0x01] GOTO 0x0C3F
 48: 0x0B7B [0x02] IF !(ExtData[1]->WorkLocal[32] == 168*) GOTO 0x0BA9
 49: 0x0B83 [0x02] IF !(ExtData[1]->WorkLocal[25] == 0*) GOTO 0x0B9A
 50: 0x0B8B [0x47] UPDATE_PLAYER_POS(-709.498*, -609.971*, -0.005*, yaw=69.6°*)
 51: 0x0B95 [0x47] WAIT_PLAYER_POS_UPDATE
 52: 0x0B97 [0x01] GOTO 0x0BA6
 53: 0x0B9A [0x47] UPDATE_PLAYER_POS(200.059*, -21.958*, -0.250*, yaw=91.5°*)
 54: 0x0BA4 [0x47] WAIT_PLAYER_POS_UPDATE

SUBROUTINE_0BA6:
 55: 0x0BA6 [0x01] GOTO 0x0C3F
 56: 0x0BA9 [0x02] IF !(ExtData[1]->WorkLocal[32] == 202*) GOTO 0x0BD7
 57: 0x0BB1 [0x02] IF !(ExtData[1]->WorkLocal[25] == 4*) GOTO 0x0BC8
 58: 0x0BB9 [0x47] UPDATE_PLAYER_POS(538.604*, 501.900*, -13.942*, yaw=286.5°*)
 59: 0x0BC3 [0x47] WAIT_PLAYER_POS_UPDATE
 60: 0x0BC5 [0x01] GOTO 0x0BD4
 61: 0x0BC8 [0x47] UPDATE_PLAYER_POS(-709.498*, -609.971*, -0.005*, yaw=69.6°*)
 62: 0x0BD2 [0x47] WAIT_PLAYER_POS_UPDATE

SUBROUTINE_0BD4:
 63: 0x0BD4 [0x01] GOTO 0x0C3F
 64: 0x0BD7 [0x02] IF !(ExtData[1]->WorkLocal[32] == 203*) GOTO 0x0C05
 65: 0x0BDF [0x02] IF !(ExtData[1]->WorkLocal[25] == 4*) GOTO 0x0BF6
 66: 0x0BE7 [0x47] UPDATE_PLAYER_POS(553.205*, 589.633*, -0.021*, yaw=124.4°*)
 67: 0x0BF1 [0x47] WAIT_PLAYER_POS_UPDATE
 68: 0x0BF3 [0x01] GOTO 0x0C02
 69: 0x0BF6 [0x47] UPDATE_PLAYER_POS(-709.498*, -609.971*, -0.005*, yaw=69.6°*)
 70: 0x0C00 [0x47] WAIT_PLAYER_POS_UPDATE

SUBROUTINE_0C02:
 71: 0x0C02 [0x01] GOTO 0x0C3F
 72: 0x0C05 [0x02] IF !(ExtData[1]->WorkLocal[32] == 211*) GOTO 0x0C33
 73: 0x0C0D [0x02] IF !(ExtData[1]->WorkLocal[25] == 3*) GOTO 0x0C24
 74: 0x0C15 [0x47] UPDATE_PLAYER_POS(569.224*, 548.462*, 36.837*, yaw=59.1°*)
 75: 0x0C1F [0x47] WAIT_PLAYER_POS_UPDATE
 76: 0x0C21 [0x01] GOTO 0x0C30
 77: 0x0C24 [0x47] UPDATE_PLAYER_POS(-709.498*, -609.971*, -0.005*, yaw=69.6°*)
 78: 0x0C2E [0x47] WAIT_PLAYER_POS_UPDATE

SUBROUTINE_0C30:
 79: 0x0C30 [0x01] GOTO 0x0C3F
 80: 0x0C33 [0x47] UPDATE_PLAYER_POS(-709.498*, -609.971*, -0.005*, yaw=69.6°*)
 81: 0x0C3D [0x47] WAIT_PLAYER_POS_UPDATE

SUBROUTINE_0C3F:
 82: 0x0C3F [0x38] SET_CLIENT_EVENT_MODE(mode=19*)
 83: 0x0C42 [0x02] IF !(ExtData[1]->WorkLocal[23] == 2*) GOTO 0x0C4D
 84: 0x0C4A [0x01] GOTO 0x0C68
 85: 0x0C4D [0x02] IF !(ExtData[1]->WorkLocal[23] == 1*) GOTO 0x0D18
 86: 0x0C55 [0x1C] WAIT(15* ticks)
 87: 0x0C58 [0x24] CREATE_DIALOG(message_id=7566*, default_option=1*, option_flags=0*)
    → "Skip the event? [Yes./No.]"
 88: 0x0C5F [0x25] WAIT_DIALOG_SELECT()
 89: 0x0C60 [0x02] IF !(Work_Zone[0] == 0*) GOTO 0x0D18

SUBROUTINE_0C68:
 90: 0x0C68 [0x02] IF !(ExtData[1]->WorkLocal[32] == 180*) GOTO 0x0CD4
 91: 0x0C70 [0x02] IF !(ExtData[1]->WorkLocal[33] == 0*) GOTO 0x0C82
 92: 0x0C78 [0x36] SET_ENTITY_EVENT_POSITION(pos_x=-618.329*, pos_z=-643.868*, pos_y=-25.805*)
 93: 0x0C7F [0x01] GOTO 0x0CD1
 94: 0x0C82 [0x02] IF !(ExtData[1]->WorkLocal[33] == 1*) GOTO 0x0C94
 95: 0x0C8A [0x36] SET_ENTITY_EVENT_POSITION(pos_x=-332.163*, pos_z=-441.914*, pos_y=-95.055*)
 96: 0x0C91 [0x01] GOTO 0x0CD1
 97: 0x0C94 [0x02] IF !(ExtData[1]->WorkLocal[33] == 2*) GOTO 0x0CA6
 98: 0x0C9C [0x36] SET_ENTITY_EVENT_POSITION(pos_x=-12.464*, pos_z=-648.377*, pos_y=-194.629*)
 99: 0x0CA3 [0x01] GOTO 0x0CD1
100: 0x0CA6 [0x02] IF !(ExtData[1]->WorkLocal[33] == 3*) GOTO 0x0CB8
101: 0x0CAE [0x36] SET_ENTITY_EVENT_POSITION(pos_x=323.381*, pos_z=-443.793*, pos_y=-108.440*)
102: 0x0CB5 [0x01] GOTO 0x0CD1
103: 0x0CB8 [0x02] IF !(ExtData[1]->WorkLocal[33] == 4*) GOTO 0x0CCA
104: 0x0CC0 [0x36] SET_ENTITY_EVENT_POSITION(pos_x=599.907*, pos_z=-676.969*, pos_y=-22.473*)
105: 0x0CC7 [0x01] GOTO 0x0CD1
106: 0x0CCA [0x36] SET_ENTITY_EVENT_POSITION(pos_x=-709.498*, pos_z=-609.971*, pos_y=-0.005*)

SUBROUTINE_0CD1:
107: 0x0CD1 [0x01] GOTO 0x0CDD
108: 0x0CD4 [0x37] UPDATE_EVENT_POSITION_AND_DIR: x=-709.498*, z=-609.971*, y=-0.005*, direction=69.6°*

SUBROUTINE_0CDD:
109: 0x0CDD [0x80] LOAD_WAIT(entity=LocalPlayer)
110: 0x0CE2 [0x62] LOAD_EVENT_SCHEDULER: Load scheduler "main" with entities [LocalPlayer, LocalPlayer], work=[2*, 0*]
111: 0x0CF3 [0x45] LOAD_SCHEDULED_TASK: Load scheduler "fdi2" with entities [LocalPlayer, LocalPlayer], work=[200*, 0*]
112: 0x0D04 [0x46] CAMERA_CONTROL: Query status
113: 0x0D06 [0x12] 0x0200 = rand()
114: 0x0D09 [0x12] 0x0400 = rand()
115: 0x0D0C [0x80] LOAD_WAIT(entity=Unknown NPC (ID: 1175261696/0x460D1200))
116: 0x0D11 [0x00] END_REQSTACK()

SUBROUTINE_0D18:
117: 0x0D18 [0x02] IF !(ExtData[1]->WorkLocal[23] < 4294967295*) GOTO 0x0D4C
118: 0x0D20 [0x5C] MUSIC_CONTROL: Set Idle (Day) music to song 193*
119: 0x0D24 [0x5C] MUSIC_CONTROL: Set Idle (Night) music to song 193*
120: 0x0D28 [0x5C] MUSIC_CONTROL: Set Combat (Solo) music to song 193*
121: 0x0D2C [0x5C] MUSIC_CONTROL: Set Combat (Party) music to song 193*
122: 0x0D30 [0x02] IF !(ExtData[1]->WorkLocal[25] == 2*) GOTO 0x0D4B
123: 0x0D38 [0x5C] MUSIC_CONTROL: Set Idle (Day) music to song 0*
124: 0x0D3C [0x5C] MUSIC_CONTROL: Set Idle (Night) music to song 0*
125: 0x0D40 [0x5C] MUSIC_CONTROL: Set Combat (Solo) music to song 0*
126: 0x0D44 [0x5C] MUSIC_CONTROL: Set Combat (Party) music to song 0*
127: 0x0D48 [0x01] GOTO 0x0D4B

SUBROUTINE_0D4B:
128: 0x0D4B [0x9A] WAIT_MUSIC_SERVER()
129: 0x0D4C [0x1A] CALL_SUBROUTINE(address=0x155F)
130: 0x0D4F [0x02] IF !(ExtData[1]->WorkLocal[23] >= 0*) GOTO 0x0D5A
131: 0x0D57 [0x01] GOTO 0x0DFA

SUBROUTINE_0D5A:
132: 0x0D5A [0x02] IF !(ExtData[1]->WorkLocal[32] == 36*) GOTO 0x0D65
133: 0x0D62 [0x01] GOTO 0x0D65

SUBROUTINE_0D65:
134: 0x0D65 [0x02] IF !(ExtData[1]->WorkLocal[32] == 17*) GOTO 0x0D70
135: 0x0D6D [0x01] GOTO 0x0DFA
136: 0x0D70 [0x02] IF !(ExtData[1]->WorkLocal[32] == 19*) GOTO 0x0D7B
137: 0x0D78 [0x01] GOTO 0x0DFA
138: 0x0D7B [0x02] IF !(ExtData[1]->WorkLocal[32] == 21*) GOTO 0x0D86
139: 0x0D83 [0x01] GOTO 0x0DFA
140: 0x0D86 [0x02] IF !(ExtData[1]->WorkLocal[32] == 23*) GOTO 0x0D91
141: 0x0D8E [0x01] GOTO 0x0DFA
142: 0x0D91 [0x03] Work_Zone[5] = ExtData[1]->WorkLocal[27]
143: 0x0D96 [0x02] IF !(Work_Zone[5] <= 0*) GOTO 0x0DFA
144: 0x0D9E [0x02] IF !(Work_Zone[5] < 60*) GOTO 0x0DB9
145: 0x0DA6 [0x3F] Work_Zone[4] = Work_Zone[5] % 60*
146: 0x0DAD [0x15] Work_Zone[5] /= 60*
147: 0x0DB2 [0x48] [System] [7568*]:
    → "Battlefield clear time: $3 minute[/s], $2 second[/s]!"
148: 0x0DB5 [0x23] WAIT_FOR_DIALOG_INTERACTION
149: 0x0DB6 [0x01] GOTO 0x0DBD
150: 0x0DB9 [0x48] [System] [7567*]:
    → "Battlefield clear time: $3 second[/s]!"
151: 0x0DBC [0x23] WAIT_FOR_DIALOG_INTERACTION

SUBROUTINE_0DBD:
152: 0x0DBD [0x02] IF !(ExtData[1]->WorkLocal[27] > ExtData[1]->WorkLocal[26]) GOTO 0x0DD1
153: 0x0DC5 [0x03] Work_Zone[7] = ExtData[1]->WorkLocal[25]
154: 0x0DCA [0x48] [System] [7672*]:
    → "You have broken the clear time record for "[Trial by Fire/Trial-Size Trial by Fire/Waking the Beast/Sugar-coated Directive/$26Trial by Fire]"!"
155: 0x0DCD [0x23] WAIT_FOR_DIALOG_INTERACTION
156: 0x0DCE [0x01] GOTO 0x0DFA
157: 0x0DD1 [0x02] IF !(ExtData[1]->WorkLocal[26] < 60*) GOTO 0x0DF1
158: 0x0DD9 [0x03] Work_Zone[5] = ExtData[1]->WorkLocal[26]
159: 0x0DDE [0x3F] Work_Zone[4] = Work_Zone[5] % 60*
160: 0x0DE5 [0x15] Work_Zone[5] /= 60*
161: 0x0DEA [0x48] [System] [7570*]:
    → "The current battlefield clear time record is $3 minute[/s] $2 second[/s]."
162: 0x0DED [0x23] WAIT_FOR_DIALOG_INTERACTION
163: 0x0DEE [0x01] GOTO 0x0DFA
164: 0x0DF1 [0x03] Work_Zone[5] = ExtData[1]->WorkLocal[26]
165: 0x0DF6 [0x48] [System] [7569*]:
    → "The current battlefield clear time record is $3 second[/s]."
166: 0x0DF9 [0x23] WAIT_FOR_DIALOG_INTERACTION

SUBROUTINE_0DFA:
167: 0x0DFA [0x02] IF !(ExtData[1]->WorkLocal[24] == 0*) GOTO 0x0E12
168: 0x0E02 [0x5C] MUSIC_CONTROL: Set Idle (Day) music to song 0*
169: 0x0E06 [0x5C] MUSIC_CONTROL: Set Idle (Night) music to song 0*
170: 0x0E0A [0x5C] MUSIC_CONTROL: Set Combat (Solo) music to song 193*
171: 0x0E0E [0x5C] MUSIC_CONTROL: Set Combat (Party) music to song 193*
172: 0x0E12 [0x02] IF !(ExtData[1]->WorkLocal[23] >= 0*) GOTO 0x0E3B
173: 0x0E1A [0x45] LOAD_SCHEDULED_TASK: Load scheduler "fdi2" with entities [LocalPlayer, LocalPlayer], work=[200*, 0*]
174: 0x0E2B [0x5C] MUSIC_CONTROL: Set Idle (Day) music to song 0*
175: 0x0E2F [0x5C] MUSIC_CONTROL: Set Idle (Night) music to song 0*
176: 0x0E33 [0x5C] MUSIC_CONTROL: Set Combat (Solo) music to song 193*
177: 0x0E37 [0x5C] MUSIC_CONTROL: Set Combat (Party) music to song 193*
178: 0x0E3B [0x06] ExtData[1]->WorkLocal[24] = 0
179: 0x0E3E [0x45] LOAD_SCHEDULED_TASK: Load scheduler "whi1" with entities [LocalPlayer, LocalPlayer], work=[201*, 0*]
180: 0x0E4F [0x45] LOAD_SCHEDULED_TASK: Load scheduler "blof" with entities [LocalPlayer, LocalPlayer], work=[200*, 0*]
181: 0x0E60 [0x21] END_EVENT
182: 0x0E61 [0x00] END_REQSTACK()
```

#### Data or dead code:

```
# Dead code (unreachable instructions):
     0x0D12 [0x01] GOTO 0x0D5A
     0x0D15 [0x01] GOTO 0x0D18
```

### Event 32003

#### Metadata

| Field        | Value      |
|--------------|------------|
| Entrypoint   | 0x0E62     |
| Data Size    | 4771 bytes |
| Instructions | 115        |

```
      00 01 02 03 04 05 06 07  08 09 0A 0B 0C 0D 0E 0F
      -- -- -- -- -- -- -- --  -- -- -- -- -- -- -- --
0E60:       06 1D 00 06 1E 00  03 21 00 06 10 03 20 00    .......!.... .
0E70: 07 10 03 1F 00 08 10 06  01 10 1A 47 1C 02 1D 00  ...........G....
0E80: 09 80 00 13 10 42 03 01  10 0D 80 43 00 43 01 03  .....B.....C.C..
0E90: 01 10 0E 80 43 00 43 01  1A 5E 1C 02 1E 00 09 80  ....C.C..^......
0EA0: 00 13 10 45 12 80 F0 FF  FF 7F F0 FF FF 7F 66 64  ...E..........fd
0EB0: 6F 31 04 80 55 12 80 F0  FF FF 7F F0 FF FF 7F 66  o1..U..........f
0EC0: 64 6F 31 03 01 10 0F 80  02 20 00 3A 80 80 52 0F  do1...... .:..R.
0ED0: 02 21 00 04 80 80 E7 0E  47 00 3B 80 3C 80 3D 80  .!......G.;.<.=.
0EE0: 3E 80 47 01 01 4F 0F 02  21 00 09 80 80 FE 0E 47  >.G..O..!......G
0EF0: 00 3F 80 40 80 41 80 42  80 47 01 01 4F 0F 02 21  .?.@.A.B.G..O..!
0F00: 00 0D 80 80 15 0F 47 00  43 80 44 80 45 80 46 80  ......G.C.D.E.F.
0F10: 47 01 01 4F 0F 02 21 00  0E 80 80 2C 0F 47 00 47  G..O..!....,.G.G
0F20: 80 48 80 49 80 4A 80 47  01 01 4F 0F 02 21 00 0F  .H.I.J.G..O..!..
0F30: 80 80 43 0F 47 00 4B 80  4C 80 4D 80 4E 80 47 01  ..C.G.K.L.M.N.G.
0F40: 01 4F 0F 47 00 4F 80 50  80 51 80 52 80 47 01 01  .O.G.O.P.Q.R.G..
0F50: D1 0F 02 20 00 1C 80 80  C5 0F 02 1F 00 09 80 80  ... ............
0F60: 71 0F 47 00 53 80 54 80  55 80 56 80 47 01 01 C2  q.G.S.T.U.V.G...
0F70: 0F 02 1F 00 0D 80 80 88  0F 47 00 57 80 58 80 59  .........G.W.X.Y
0F80: 80 5A 80 47 01 01 C2 0F  02 1F 00 0E 80 80 9F 0F  .Z.G............
0F90: 47 00 5B 80 5C 80 5D 80  5E 80 47 01 01 C2 0F 02  G.[.\.].^.G.....
0FA0: 1F 00 0F 80 80 B6 0F 47  00 5F 80 60 80 61 80 62  .......G._.`.a.b
0FB0: 80 47 01 01 C2 0F 47 00  4F 80 50 80 51 80 52 80  .G....G.O.P.Q.R.
0FC0: 47 01 01 D1 0F 47 00 4F  80 50 80 51 80 52 80 47  G....G.O.P.Q.R.G
0FD0: 01 38 13 80 79 00 F0 FF  FF 7F F0 FF FF 7F 1A 62  .8..y..........b
0FE0: 1C 45 39 80 F0 FF FF 7F  F0 FF FF 7F 77 68 69 31  .E9.........whi1
0FF0: 04 80 45 12 80 F0 FF FF  7F F0 FF FF 7F 62 6C 6F  ..E..........blo
1000: 66 04 80 5C 00 04 80 5C  01 04 80 5C 02 37 80 5C  f..\...\...\.7.\
1010: 03 37 80 21 00 24 10 80  09 80 04 80 25 02 00 10  .7.!.$......%...
1020: 04 80 00 2B 10 05 01 00  01 2B 10 1B 79 00 F0 FF  ...+.....+..y...
1030: FF 7F F0 FF FF 7F 02 03  00 0F 80 00 41 10 01 77  ............A..w
1040: 10 46 01 1A 18 1E 92 01  F0 FF FF 7F 37 93 80 94  .F..........7...
1050: 80 04 80 95 80 45 96 80  F0 FF FF 7F F0 FF FF 7F  .....E..........
1060: 69 66 69 31 04 80 45 12  80 F0 FF FF 7F F0 FF FF  ifi1..E.........
1070: 7F 66 64 69 32 04 80 02  03 00 04 80 80 85 10 1A  .fdi2...........
1080: 3D 11 01 E3 10 02 03 00  09 80 80 93 10 1A 75 12  =.............u.
1090: 01 E3 10 02 03 00 0D 80  80 A1 10 1A EC 13 01 E3  ................
10A0: 10 02 03 00 0E 80 80 E3  10 55 96 80 F0 FF FF 7F  .........U......
10B0: F0 FF FF 7F 69 66 69 31  45 12 80 F0 FF FF 7F F0  ....ifi1E.......
10C0: FF FF 7F 62 6C 6F 6E 04  80 45 96 80 F0 FF FF 7F  ...blon..E......
10D0: F0 FF FF 7F 69 66 69 32  04 80 1C 97 80 1A 89 13  ....ifi2........
10E0: 01 E3 10 02 03 00 0F 80  00 EE 10 01 3C 11 37 98  ............<.7.
10F0: 80 99 80 9A 80 9B 80 45  96 80 F0 FF FF 7F F0 FF  .......E........
1100: FF 7F 65 78 30 38 04 80  1C 9C 80 1A 9C 1E 45 12  ..ex08........E.
1110: 80 F0 FF FF 7F F0 FF FF  7F 62 6C 6F 66 04 80 55  .........blof..U
1120: 96 80 F0 FF FF 7F F0 FF  FF 7F 65 78 30 38 1C 2E  ..........ex08..
1130: 80 1A 7B 1E 46 00 92 00  F0 FF FF 7F 1B 03 02 10  ..{.F...........
1140: 9D 80 48 9E 80 23 55 96  80 F0 FF FF 7F F0 FF FF  ..H..#U.........
1150: 7F 69 66 69 31 45 12 80  F0 FF FF 7F F0 FF FF 7F  .ifi1E..........
1160: 62 6C 6F 6E 04 80 45 96  80 F0 FF FF 7F F0 FF FF  blon..E.........
1170: 7F 69 66 69 32 04 80 1C  97 80 1A 9C 1E 1C 9F 80  .ifi2...........
1180: 27 10 39 F0 0C 01 04 27  10 39 F0 0C 01 0A 80 39  '.9....'.9.....9
1190: F0 0C 01 6C F0 FF FF 7F  A0 80 09 80 37 A1 80 A2  ...l........7...
11A0: 80 A3 80 A4 80 45 96 80  F0 FF FF 7F F0 FF FF 7F  .....E..........
11B0: 65 78 30 33 04 80 45 96  80 F0 FF FF 7F F0 FF FF  ex03..E.........
11C0: 7F 77 69 73 70 04 80 1C  A5 80 48 A6 80 23 48 A7  .wisp.....H..#H.
11D0: 80 23 52 96 80 F0 FF FF  7F F0 FF FF 7F 65 78 30  .#R..........ex0
11E0: 33 45 96 80 F0 FF FF 7F  F0 FF FF 7F 65 78 30 34  3E..........ex04
11F0: 04 80 48 A8 80 23 52 96  80 F0 FF FF 7F F0 FF FF  ..H..#R.........
1200: 7F 65 78 30 34 45 96 80  F0 FF FF 7F F0 FF FF 7F  .ex04E..........
1210: 65 78 30 35 04 80 48 A9  80 23 52 96 80 F0 FF FF  ex05..H..#R.....
1220: 7F F0 FF FF 7F 65 78 30  35 45 96 80 F0 FF FF 7F  .....ex05E......
1230: F0 FF FF 7F 65 78 30 36  04 80 48 AA 80 23 52 96  ....ex06..H..#R.
1240: 80 F0 FF FF 7F F0 FF FF  7F 65 78 30 36 45 96 80  .........ex06E..
1250: F0 FF FF 7F F0 FF FF 7F  65 78 30 37 04 80 48 AB  ........ex07..H.
1260: 80 23 55 96 80 F0 FF FF  7F F0 FF FF 7F 65 78 30  .#U..........ex0
1270: 37 1A 89 13 1B 03 02 10  AC 80 48 AD 80 23 55 96  7.........H..#U.
1280: 80 F0 FF FF 7F F0 FF FF  7F 69 66 69 31 45 12 80  .........ifi1E..
1290: F0 FF FF 7F F0 FF FF 7F  62 6C 6F 6E 04 80 45 96  ........blon..E.
12A0: 80 F0 FF FF 7F F0 FF FF  7F 69 66 69 32 04 80 1C  .........ifi2...
12B0: 97 80 1A 9C 1E 1C 9F 80  27 10 39 F0 0C 01 04 27  ........'.9....'
12C0: 10 39 F0 0C 01 0A 80 39  F0 0C 01 6C F0 FF FF 7F  .9.....9...l....
12D0: A0 80 09 80 37 A1 80 A2  80 A3 80 A4 80 45 96 80  ....7........E..
12E0: F0 FF FF 7F F0 FF FF 7F  65 78 30 33 04 80 45 96  ........ex03..E.
12F0: 80 F0 FF FF 7F F0 FF FF  7F 77 69 73 70 04 80 1C  .........wisp...
1300: A5 80 48 A6 80 23 48 AE  80 23 52 96 80 F0 FF FF  ..H..#H..#R.....
1310: 7F F0 FF FF 7F 65 78 30  33 45 96 80 F0 FF FF 7F  .....ex03E......
1320: F0 FF FF 7F 65 78 30 35  04 80 48 AF 80 23 52 96  ....ex05..H..#R.
1330: 80 F0 FF FF 7F F0 FF FF  7F 65 78 30 35 45 96 80  .........ex05E..
1340: F0 FF FF 7F F0 FF FF 7F  65 78 30 36 04 80 48 B0  ........ex06..H.
1350: 80 23 52 96 80 F0 FF FF  7F F0 FF FF 7F 65 78 30  .#R..........ex0
1360: 36 45 96 80 F0 FF FF 7F  F0 FF FF 7F 65 78 30 37  6E..........ex07
1370: 04 80 48 B1 80 23 55 96  80 F0 FF FF 7F F0 FF FF  ..H..#U.........
1380: 7F 65 78 30 37 1A 89 13  1B 1A AD 1F 27 10 38 F0  .ex07.......'.8.
1390: 0C 01 02 27 10 38 F0 0C  01 0A 80 38 F0 0C 01 1C  ...'.8.....8....
13A0: 05 80 6C F0 FF FF 7F 04  80 09 80 45 96 80 F0 FF  ..l........E....
13B0: FF 7F F0 FF FF 7F 69 66  30 31 04 80 62 B2 80 38  ......if01..b..8
13C0: F0 0C 01 38 F0 0C 01 6D  61 69 6E 04 80 1A 7B 1E  ...8...main...{.
13D0: 55 96 80 F0 FF FF 7F F0  FF FF 7F 69 66 30 31 1C  U..........if01.
13E0: 05 80 6C F0 FF FF 7F 64  80 09 80 1B 55 96 80 F0  ..l....d....U...
13F0: FF FF 7F F0 FF FF 7F 69  66 69 31 45 12 80 F0 FF  .......ifi1E....
1400: FF 7F F0 FF FF 7F 62 6C  6F 6E 04 80 45 96 80 F0  ......blon..E...
1410: FF FF 7F F0 FF FF 7F 69  66 69 32 04 80 1C 97 80  .......ifi2.....
1420: 1A 9C 1E 1C 9F 80 27 10  39 F0 0C 01 04 27 10 39  ......'.9....'.9
1430: F0 0C 01 0A 80 39 F0 0C  01 6C F0 FF FF 7F A0 80  .....9...l......
1440: 09 80 37 A1 80 A2 80 A3  80 A4 80 45 96 80 F0 FF  ..7........E....
1450: FF 7F F0 FF FF 7F 65 78  30 33 04 80 45 96 80 F0  ......ex03..E...
1460: FF FF 7F F0 FF FF 7F 77  69 73 70 04 80 55 96 80  .......wisp..U..
1470: F0 FF FF 7F F0 FF FF 7F  65 78 30 33 45 12 80 F0  ........ex03E...
1480: FF FF 7F F0 FF FF 7F 6F  76 6C 31 04 80 45 B3 80  .......ovl1..E..
1490: F0 FF FF 7F F0 FF FF 7F  73 30 31 30 04 80 1C A5  ........s010....
14A0: 80 48 B4 80 23 52 B3 80  F0 FF FF 7F F0 FF FF 7F  .H..#R..........
14B0: 73 30 31 30 45 12 80 F0  FF FF 7F F0 FF FF 7F 6F  s010E..........o
14C0: 76 6C 32 04 80 45 B3 80  F0 FF FF 7F F0 FF FF 7F  vl2..E..........
14D0: 73 30 30 38 04 80 1C A5  80 48 B5 80 23 52 B3 80  s008.....H..#R..
14E0: F0 FF FF 7F F0 FF FF 7F  73 30 30 38 4E 01 39 F0  ........s008N.9.
14F0: 0C 01 1A 89 13 52 B3 80  F0 FF FF 7F F0 FF FF 7F  .....R..........
1500: 73 30 30 38 45 B3 80 F0  FF FF 7F F0 FF FF 7F 73  s008E..........s
1510: 30 30 39 04 80 1C 32 80  48 B6 80 1C A5 80 45 39  009...2.H.....E9
1520: 80 F0 FF FF 7F F0 FF FF  7F 77 68 6F 31 04 80 55  .........who1..U
1530: 39 80 F0 FF FF 7F F0 FF  FF 7F 77 68 6F 31 52 B3  9.........who1R.
1540: 80 F0 FF FF 7F F0 FF FF  7F 73 30 30 39 45 39 80  .........s009E9.
1550: F0 FF FF 7F F0 FF FF 7F  77 68 69 31 04 80 1B 02  ........whi1....
1560: 19 00 04 80 80 70 15 1A  2B 16 1A B3 15 01 B2 15  .....p..+.......
1570: 02 19 00 09 80 80 81 15  1A 7F 17 1A B3 15 01 B2  ................
1580: 15 02 19 00 0D 80 80 92  15 1A CF 18 1A B3 15 01  ................
1590: B2 15 02 19 00 0E 80 80  A3 15 1A 5C 1B 1A B3 15  ...........\....
15A0: 01 B2 15 1A 5A 1E 37 4F  80 50 80 51 80 52 80 1A  ....Z.7O.P.Q.R..
15B0: 34 1F 1B 45 12 80 F0 FF  FF 7F F0 FF FF 7F 62 6C  4..E..........bl
15C0: 6F 6E 04 80 45 96 80 F0  FF FF 7F F0 FF FF 7F 69  on..E..........i
15D0: 66 65 31 04 80 45 96 80  F0 FF FF 7F F0 FF FF 7F  fe1..E..........
15E0: 77 69 73 70 04 80 1C 3A  80 45 12 80 F0 FF FF 7F  wisp...:.E......
15F0: F0 FF FF 7F 62 6C 6F 66  04 80 55 96 80 F0 FF FF  ....blof..U.....
1600: 7F F0 FF FF 7F 69 66 65  31 46 00 92 00 F0 FF FF  .....ife1F......
1610: 7F 02 1C 00 09 80 00 2A  16 45 39 80 F0 FF FF 7F  .......*.E9.....
1620: F0 FF FF 7F 71 73 74 63  04 80 1B 46 01 1A 18 1E  ....qstc...F....
1630: 27 10 39 F0 0C 01 04 27  10 39 F0 0C 01 0A 80 39  '.9....'.9.....9
1640: F0 0C 01 92 01 F0 FF FF  7F 5C 00 B7 80 5C 01 B7  .........\...\..
1650: 80 5C 02 B7 80 5C 03 B7  80 5D 04 80 09 80 9A 5D  .\...\...].....]
1660: B8 80 A5 80 37 A1 80 A2  80 A3 80 A4 80 27 10 38  ....7........'.8
1670: F0 0C 01 04 27 10 38 F0  0C 01 0A 80 38 F0 0C 01  ....'.8.....8...
1680: 45 96 80 F0 FF FF 7F F0  FF FF 7F 65 78 30 39 04  E..........ex09.
1690: 80 45 12 80 F0 FF FF 7F  F0 FF FF 7F 66 64 69 32  .E..........fdi2
16A0: 04 80 48 A6 80 23 48 B9  80 23 52 96 80 F0 FF FF  ..H..#H..#R.....
16B0: 7F F0 FF FF 7F 65 78 30  39 6C F0 FF FF 7F 04 80  .....ex09l......
16C0: 09 80 45 96 80 F0 FF FF  7F F0 FF FF 7F 69 66 30  ..E..........if0
16D0: 33 04 80 62 BA 80 38 F0  0C 01 38 F0 0C 01 6D 61  3..b..8...8...ma
16E0: 69 6E 04 80 55 96 80 F0  FF FF 7F F0 FF FF 7F 69  in..U..........i
16F0: 66 30 33 1C 2E 80 45 96  80 F0 FF FF 7F F0 FF FF  f03...E.........
1700: 7F 65 78 31 30 04 80 48  BB 80 23 48 BC 80 23 52  .ex10..H..#H..#R
1710: 96 80 F0 FF FF 7F F0 FF  FF 7F 65 78 31 30 6C F0  ..........ex10l.
1720: FF FF 7F 64 80 09 80 45  96 80 F0 FF FF 7F F0 FF  ...d...E........
1730: FF 7F 65 78 31 31 04 80  48 BD 80 23 62 2A 80 F0  ..ex11..H..#b*..
1740: FF FF 7F F0 FF FF 7F 6D  61 69 6E 04 80 1C A5 80  .......main.....
1750: 1A 9C 1E 1C 32 80 37 4F  80 50 80 51 80 52 80 2C  ....2.7O.P.Q.R.,
1760: F0 FF FF 7F F0 FF FF 7F  72 65 73 30 1C 05 80 52  ........res0...R
1770: 96 80 F0 FF FF 7F F0 FF  FF 7F 65 78 31 31 1B 46  ..........ex11.F
1780: 01 1A 18 1E 27 10 39 F0  0C 01 04 27 10 39 F0 0C  ....'.9....'.9..
1790: 01 0A 80 39 F0 0C 01 92  01 F0 FF FF 7F 5C 00 B7  ...9.........\..
17A0: 80 5C 01 B7 80 5C 02 B7  80 5C 03 B7 80 5D 04 80  .\...\...\...]..
17B0: 09 80 9A 5D B8 80 A5 80  37 A1 80 A2 80 A3 80 A4  ...]....7.......
17C0: 80 27 10 38 F0 0C 01 04  27 10 38 F0 0C 01 0A 80  .'.8....'.8.....
17D0: 38 F0 0C 01 45 96 80 F0  FF FF 7F F0 FF FF 7F 65  8...E..........e
17E0: 78 30 39 04 80 45 12 80  F0 FF FF 7F F0 FF FF 7F  x09..E..........
17F0: 66 64 69 32 04 80 48 A6  80 23 48 BE 80 23 52 96  fdi2..H..#H..#R.
1800: 80 F0 FF FF 7F F0 FF FF  7F 65 78 30 39 6C F0 FF  .........ex09l..
1810: FF 7F 04 80 09 80 45 96  80 F0 FF FF 7F F0 FF FF  ......E.........
1820: 7F 69 66 30 33 04 80 62  BA 80 38 F0 0C 01 38 F0  .if03..b..8...8.
1830: 0C 01 6D 61 69 6E 04 80  55 96 80 F0 FF FF 7F F0  ..main..U.......
1840: FF FF 7F 69 66 30 33 1C  2E 80 45 96 80 F0 FF FF  ...if03...E.....
1850: 7F F0 FF FF 7F 65 78 31  30 04 80 48 BF 80 23 52  .....ex10..H..#R
1860: 96 80 F0 FF FF 7F F0 FF  FF 7F 65 78 31 30 6C F0  ..........ex10l.
1870: FF FF 7F 64 80 09 80 45  96 80 F0 FF FF 7F F0 FF  ...d...E........
1880: FF 7F 65 78 31 31 04 80  48 C0 80 23 62 2A 80 F0  ..ex11..H..#b*..
1890: FF FF 7F F0 FF FF 7F 6D  61 69 6E 04 80 1C A5 80  .......main.....
18A0: 1A 9C 1E 1C 32 80 37 4F  80 50 80 51 80 52 80 2C  ....2.7O.P.Q.R.,
18B0: F0 FF FF 7F F0 FF FF 7F  72 65 73 30 1C 05 80 52  ........res0...R
18C0: 96 80 F0 FF FF 7F F0 FF  FF 7F 65 78 31 31 1B 46  ..........ex11.F
18D0: 01 1A 18 1E 4E 01 39 F0  0C 01 92 01 F0 FF FF 7F  ....N.9.........
18E0: 9F C1 80 F0 FF FF 7F F0  FF FF 7F 69 6B 69 6C 04  ...........ikil.
18F0: 80 9F C1 80 38 F0 0C 01  38 F0 0C 01 6F 6B 69 6C  ....8...8...okil
1900: 04 80 37 A1 80 A2 80 A3  80 A4 80 27 10 38 F0 0C  ..7........'.8..
1910: 01 04 27 10 38 F0 0C 01  0A 80 38 F0 0C 01 45 12  ..'.8.....8...E.
1920: 80 F0 FF FF 7F F0 FF FF  7F 66 64 69 32 04 80 45  .........fdi2..E
1930: B3 80 F0 FF FF 7F F0 FF  FF 7F 73 30 31 31 04 80  ..........s011..
1940: 9F C1 80 38 F0 0C 01 38  F0 0C 01 6F 75 74 30 04  ...8...8...out0.
1950: 80 1C 97 80 48 C2 80 23  55 B3 80 F0 FF FF 7F F0  ....H..#U.......
1960: FF FF 7F 73 30 31 31 45  12 80 F0 FF FF 7F F0 FF  ...s011E........
1970: FF 7F 6F 76 6C 32 04 80  9F C1 80 38 F0 0C 01 38  ..ovl2.....8...8
1980: F0 0C 01 6F 6B 69 6C 04  80 62 BA 80 38 F0 0C 01  ...okil..b..8...
1990: 38 F0 0C 01 6D 61 69 6E  04 80 9F C1 80 F0 FF FF  8...main........
19A0: 7F F0 FF FF 7F 69 6E 30  30 04 80 45 B3 80 F0 FF  .....in00..E....
19B0: FF 7F F0 FF FF 7F 73 30  31 32 04 80 45 12 80 F0  ......s012..E...
19C0: FF FF 7F F0 FF FF 7F 6F  76 6C 32 04 80 55 B3 80  .......ovl2..U..
19D0: F0 FF FF 7F F0 FF FF 7F  73 30 31 32 5C 00 C3 80  ........s012\...
19E0: 5C 01 C3 80 45 12 80 F0  FF FF 7F F0 FF FF 7F 6F  \...E..........o
19F0: 76 6C 32 04 80 45 B3 80  F0 FF FF 7F F0 FF FF 7F  vl2..E..........
1A00: 73 30 31 33 04 80 9F C1  80 F0 FF FF 7F F0 FF FF  s013............
1A10: 7F 69 6B 69 6C 04 80 1C  3A 80 52 B3 80 F0 FF FF  .ikil...:.R.....
1A20: 7F F0 FF FF 7F 73 30 31  33 45 12 80 F0 FF FF 7F  .....s013E......
1A30: F0 FF FF 7F 6F 76 6C 32  04 80 45 B3 80 F0 FF FF  ....ovl2..E.....
1A40: 7F F0 FF FF 7F 73 30 31  34 04 80 48 C4 80 23 52  .....s014..H..#R
1A50: B3 80 F0 FF FF 7F F0 FF  FF 7F 73 30 31 34 45 12  ..........s014E.
1A60: 80 F0 FF FF 7F F0 FF FF  7F 6F 76 6C 32 04 80 45  .........ovl2..E
1A70: B3 80 F0 FF FF 7F F0 FF  FF 7F 73 30 31 35 04 80  ..........s015..
1A80: 1C 97 80 48 C5 80 23 55  B3 80 F0 FF FF 7F F0 FF  ...H..#U........
1A90: FF 7F 73 30 31 35 45 12  80 F0 FF FF 7F F0 FF FF  ..s015E.........
1AA0: 7F 6F 76 6C 32 04 80 45  B3 80 F0 FF FF 7F F0 FF  .ovl2..E........
1AB0: FF 7F 73 30 31 36 04 80  1C 3A 80 48 C6 80 23 52  ..s016...:.H..#R
1AC0: B3 80 F0 FF FF 7F F0 FF  FF 7F 73 30 31 36 45 B3  ..........s016E.
1AD0: 80 F0 FF FF 7F F0 FF FF  7F 73 30 31 37 04 80 45  .........s017..E
1AE0: 12 80 F0 FF FF 7F F0 FF  FF 7F 6F 76 6C 32 04 80  ..........ovl2..
1AF0: 1C 32 80 48 C7 80 23 5D  04 80 A5 80 1A 9C 1E 45  .2.H..#].......E
1B00: 12 80 F0 FF FF 7F F0 FF  FF 7F 66 64 6F 32 04 80  ..........fdo2..
1B10: 1C 32 80 48 C8 80 23 1C  32 80 37 4F 80 50 80 51  .2.H..#.2.7O.P.Q
1B20: 80 52 80 2C F0 FF FF 7F  F0 FF FF 7F 72 65 73 30  .R.,........res0
1B30: 1C 05 80 5C 00 04 80 5C  01 04 80 52 B3 80 F0 FF  ...\...\...R....
1B40: FF 7F F0 FF FF 7F 73 30  31 37 45 12 80 F0 FF FF  ......s017E.....
1B50: 7F F0 FF FF 7F 66 64 69  31 04 80 1B 46 01 1A 18  .....fdi1...F...
1B60: 1E 27 10 39 F0 0C 01 04  27 10 39 F0 0C 01 0A 80  .'.9....'.9.....
1B70: 39 F0 0C 01 92 01 F0 FF  FF 7F 5C 00 B7 80 5C 01  9.........\...\.
1B80: B7 80 5C 02 B7 80 5C 03  B7 80 5D 04 80 09 80 9A  ..\...\...].....
1B90: 5D B8 80 A5 80 37 A1 80  A2 80 A3 80 A4 80 27 10  ]....7........'.
1BA0: 38 F0 0C 01 04 27 10 38  F0 0C 01 0A 80 38 F0 0C  8....'.8.....8..
1BB0: 01 45 96 80 F0 FF FF 7F  F0 FF FF 7F 69 66 30 33  .E..........if03
1BC0: 04 80 45 12 80 F0 FF FF  7F F0 FF FF 7F 66 64 69  ..E..........fdi
1BD0: 32 04 80 62 BA 80 38 F0  0C 01 38 F0 0C 01 6D 61  2..b..8...8...ma
1BE0: 69 6E 04 80 55 96 80 F0  FF FF 7F F0 FF FF 7F 69  in..U..........i
1BF0: 66 30 33 45 96 80 F0 FF  FF 7F F0 FF FF 7F 65 78  f03E..........ex
1C00: 31 31 04 80 62 2A 80 F0  FF FF 7F F0 FF FF 7F 6D  11..b*.........m
1C10: 61 69 6E 04 80 1C A5 80  1A 9C 1E 1C 32 80 37 4F  ain.........2.7O
1C20: 80 50 80 51 80 52 80 2C  F0 FF FF 7F F0 FF FF 7F  .P.Q.R.,........
1C30: 72 65 73 30 1C 05 80 52  96 80 F0 FF FF 7F F0 FF  res0...R........
1C40: FF 7F 65 78 31 31 1B 24  C9 80 09 80 04 80 25 02  ..ex11.$......%.
1C50: 00 10 04 80 00 5D 1C 05  1D 00 01 5D 1C 1B 05 1E  .....].....]....
1C60: 00 1B 46 01 1A 18 1E 92  01 F0 FF FF 7F 37 CA 80  ..F..........7..
1C70: CB 80 CC 80 CD 80 45 96  80 F0 FF FF 7F F0 FF FF  ......E.........
1C80: 7F 65 78 30 31 04 80 5D  04 80 3A 80 45 12 80 F0  .ex01..]..:.E...
1C90: FF FF 7F F0 FF FF 7F 66  64 69 32 04 80 55 96 80  .......fdi2..U..
1CA0: F0 FF FF 7F F0 FF FF 7F  65 78 30 31 45 12 80 F0  ........ex01E...
1CB0: FF FF 7F F0 FF FF 7F 62  6C 6F 6E 04 80 45 96 80  .......blon..E..
1CC0: F0 FF FF 7F F0 FF FF 7F  65 78 30 32 04 80 1C CE  ........ex02....
1CD0: 80 1A 9C 1E 1C 9F 80 37  4F 80 50 80 51 80 52 80  .......7O.P.Q.R.
1CE0: 2C F0 FF FF 7F F0 FF FF  7F 72 65 73 30 1C 05 80  ,........res0...
1CF0: 45 96 80 F0 FF FF 7F F0  FF FF 7F 69 66 65 31 04  E..........ife1.
1D00: 80 45 96 80 F0 FF FF 7F  F0 FF FF 7F 77 69 73 70  .E..........wisp
1D10: 04 80 1C 3A 80 45 12 80  F0 FF FF 7F F0 FF FF 7F  ...:.E..........
1D20: 62 6C 6F 66 04 80 55 96  80 F0 FF FF 7F F0 FF FF  blof..U.........
1D30: 7F 69 66 65 31 46 00 92  00 F0 FF FF 7F 1B 46 01  .ife1F........F.
1D40: 1A 9C 1E 92 01 F0 FF FF  7F 1C 9F 80 1A F7 1D 45  ...............E
1D50: 12 80 F0 FF FF 7F F0 FF  FF 7F 62 6C 6F 6E 04 80  ..........blon..
1D60: 37 4F 80 50 80 51 80 52  80 2C F0 FF FF 7F F0 FF  7O.P.Q.R.,......
1D70: FF 7F 72 65 73 30 1C 05  80 45 96 80 F0 FF FF 7F  ..res0...E......
1D80: F0 FF FF 7F 69 66 65 31  04 80 45 96 80 F0 FF FF  ....ife1..E.....
1D90: 7F F0 FF FF 7F 77 69 73  70 04 80 1C 3A 80 45 12  .....wisp...:.E.
1DA0: 80 F0 FF FF 7F F0 FF FF  7F 62 6C 6F 66 04 80 55  .........blof..U
1DB0: 96 80 F0 FF FF 7F F0 FF  FF 7F 69 66 65 31 46 00  ..........ife1F.
1DC0: 92 00 F0 FF FF 7F 1B 02  03 00 04 80 80 D2 1D 01  ................
1DD0: F6 1D 02 03 00 0F 80 80  F6 1D 03 08 17 CF 80 03  ................
1DE0: 09 17 D0 80 03 0A 17 D1  80 03 0B 17 D2 80 03 0C  ................
1DF0: 17 D3 80 01 F6 1D 1B 45  12 80 F0 FF FF 7F F0 FF  .......E........
1E00: FF 7F 66 64 69 30 04 80  55 12 80 F0 FF FF 7F F0  ..fdi0..U.......
1E10: FF FF 7F 66 64 69 30 1B  45 12 80 F0 FF FF 7F F0  ...fdi0.E.......
1E20: FF FF 7F 66 64 6F 30 04  80 55 12 80 F0 FF FF 7F  ...fdo0..U......
1E30: F0 FF FF 7F 66 64 6F 30  1B 45 12 80 F0 FF FF 7F  ....fdo0.E......
1E40: F0 FF FF 7F 66 64 69 31  04 80 55 12 80 F0 FF FF  ....fdi1..U.....
1E50: 7F F0 FF FF 7F 66 64 69  31 1B 45 12 80 F0 FF FF  .....fdi1.E.....
1E60: 7F F0 FF FF 7F 66 64 6F  31 04 80 55 12 80 F0 FF  .....fdo1..U....
1E70: FF 7F F0 FF FF 7F 66 64  6F 31 1B 45 39 80 F0 FF  ......fdo1.E9...
1E80: FF 7F F0 FF FF 7F 77 68  69 31 04 80 55 39 80 F0  ......whi1..U9..
1E90: FF FF 7F F0 FF FF 7F 77  68 69 31 1B 45 39 80 F0  .......whi1.E9..
1EA0: FF FF 7F F0 FF FF 7F 77  68 6F 31 04 80 55 39 80  .......who1..U9.
1EB0: F0 FF FF 7F F0 FF FF 7F  77 68 6F 31 1B 45 39 80  ........who1.E9.
1EC0: F0 FF FF 7F F0 FF FF 7F  77 68 6F 32 04 80 55 39  ........who2..U9
1ED0: 80 F0 FF FF 7F F0 FF FF  7F 77 68 6F 32 1B 45 39  .........who2.E9
1EE0: 80 F0 FF FF 7F F0 FF FF  7F 77 68 6F 33 04 80 55  .........who3..U
1EF0: 39 80 F0 FF FF 7F F0 FF  FF 7F 77 68 6F 33 1B 62  9.........who3.b
1F00: 09 80 F0 FF FF 7F F0 FF  FF 7F 6D 61 69 6E 04 80  ..........main..
1F10: 1C 9F 80 45 12 80 F0 FF  FF 7F F0 FF FF 7F 66 64  ...E..........fd
1F20: 6F 31 04 80 55 12 80 F0  FF FF 7F F0 FF FF 7F 66  o1..U..........f
1F30: 64 6F 31 1B 45 12 80 F0  FF FF 7F F0 FF FF 7F 66  do1.E..........f
1F40: 64 69 31 04 80 62 0D 80  F0 FF FF 7F F0 FF FF 7F  di1..b..........
1F50: 6D 61 69 6E 04 80 1C 2E  80 55 12 80 F0 FF FF 7F  main.....U......
1F60: F0 FF FF 7F 66 64 69 31  1B 45 12 80 F0 FF FF 7F  ....fdi1.E......
1F70: F0 FF FF 7F 62 6C 6F 6E  04 80 45 39 80 F0 FF FF  ....blon..E9....
1F80: 7F F0 FF FF 7F 62 6C 6F  6E 04 80 1B 45 39 80 F0  .....blon...E9..
1F90: FF FF 7F F0 FF FF 7F 77  68 69 30 04 80 55 39 80  .......whi0..U9.
1FA0: F0 FF FF 7F F0 FF FF 7F  77 68 69 30 1B 45 39 80  ........whi0.E9.
1FB0: F0 FF FF 7F F0 FF FF 7F  77 68 6F 30 04 80 55 39  ........who0..U9
1FC0: 80 F0 FF FF 7F F0 FF FF  7F 77 68 6F 30 1B 45 D4  .........who0.E.
1FD0: 80 F0 FF FF 7F F0 FF FF  7F 65 66 6F 6E 04 80 55  .........efon..U
1FE0: D4 80 F0 FF FF 7F F0 FF  FF 7F 65 66 6F 6E 1B 45  ..........efon.E
1FF0: 12 80 F0 FF FF 7F F0 FF  FF 7F 66 64 69 73 04 80  ..........fdis..
2000: 1B 45 12 80 F0 FF FF 7F  F0 FF FF 7F 66 64 6F 73  .E..........fdos
2010: 04 80 55 12 80 F0 FF FF  7F F0 FF FF 7F 66 64 6F  ..U..........fdo
2020: 73 1B 45 12 80 F0 FF FF  7F F0 FF FF 7F 66 64 69  s.E..........fdi
2030: 66 04 80 1B 45 12 80 F0  FF FF 7F F0 FF FF 7F 66  f...E..........f
2040: 64 6F 66 04 80 55 12 80  F0 FF FF 7F F0 FF FF 7F  dof..U..........
2050: 66 64 6F 66 1B 45 12 80  F0 FF FF 7F F0 FF FF 7F  fdof.E..........
2060: 66 64 69 70 04 80 1B 45  12 80 F0 FF FF 7F F0 FF  fdip...E........
2070: FF 7F 66 64 6F 70 04 80  55 12 80 F0 FF FF 7F F0  ..fdop..U.......
2080: FF FF 7F 66 64 6F 70 1B  02 00 00 09 80 80 A7 20  ...fdop........ 
2090: 03 09 00 98 80 03 0A 00  99 80 03 0B 00 9A 80 03  ................
20A0: 0C 00 9B 80 01 04 21 02  00 00 0D 80 80 C6 20 03  ......!....... .
20B0: 09 00 D5 80 03 0A 00 D6  80 03 0B 00 D7 80 03 0C  ................
20C0: 00 D8 80 01 04 21 02 00  00 0E 80 80 E5 20 03 09  .....!....... ..
20D0: 00 D9 80 03 0A 00 DA 80  03 0B 00 DB 80 03 0C 00  ................
20E0: DC 80 01 04 21 02 00 00  0F 80 80 04 21 03 09 00  ....!.......!...
20F0: 04 80 03 0A 00 04 80 03  0B 00 04 80 03 0C 00 04  ................
2100: 80 01 04 21 1B                                    ...!.           
```

#### Opcodes

```
  0: 0x0E62 [0x06] ExtData[1]->WorkLocal[29] = 0
  1: 0x0E65 [0x06] ExtData[1]->WorkLocal[30] = 0
  2: 0x0E68 [0x03] ExtData[1]->WorkLocal[33] = Work_Zone[6]
  3: 0x0E6D [0x03] ExtData[1]->WorkLocal[32] = Work_Zone[7]
  4: 0x0E72 [0x03] ExtData[1]->WorkLocal[31] = Work_Zone[8]
  5: 0x0E77 [0x06] Work_Zone[1] = 0
  6: 0x0E7A [0x1A] CALL_SUBROUTINE(address=0x1C47)
  7: 0x0E7D [0x02] IF !(ExtData[1]->WorkLocal[29] == 1*) GOTO 0x1013
  8: 0x0E85 [0x42] SET_CLI_EVENT_CANCEL_DATA()
  9: 0x0E86 [0x03] Work_Zone[1] = 2*
 10: 0x0E8B [0x43] SEND_EVENT_UPDATE: Send pending tag to server (packet 0x005B)
 11: 0x0E8D [0x43] SEND_EVENT_UPDATE: Check pending flag (skip if not pending)
 12: 0x0E8F [0x03] Work_Zone[1] = 3*
 13: 0x0E94 [0x43] SEND_EVENT_UPDATE: Send pending tag to server (packet 0x005B)
 14: 0x0E96 [0x43] SEND_EVENT_UPDATE: Check pending flag (skip if not pending)
 15: 0x0E98 [0x1A] CALL_SUBROUTINE(address=0x1C5E)
 16: 0x0E9B [0x02] IF !(ExtData[1]->WorkLocal[30] == 1*) GOTO 0x1013
 17: 0x0EA3 [0x45] LOAD_SCHEDULED_TASK: Load scheduler "fdo1" with entities [LocalPlayer, LocalPlayer], work=[200*, 0*]
 18: 0x0EB4 [0x55] WAIT_LOAD_SCHEDULER: Wait for scheduler "fdo1" with entities [LocalPlayer, LocalPlayer], work=200*
 19: 0x0EC3 [0x03] Work_Zone[1] = 4*
 20: 0x0EC8 [0x02] IF !(ExtData[1]->WorkLocal[32] == 180*) GOTO 0x0F52
 21: 0x0ED0 [0x02] IF !(ExtData[1]->WorkLocal[33] == 0*) GOTO 0x0EE7
 22: 0x0ED8 [0x47] UPDATE_PLAYER_POS(-605.141*, 479.929*, -22.681*, yaw=87.2°*)
 23: 0x0EE2 [0x47] WAIT_PLAYER_POS_UPDATE
 24: 0x0EE4 [0x01] GOTO 0x0F4F
 25: 0x0EE7 [0x02] IF !(ExtData[1]->WorkLocal[33] == 1*) GOTO 0x0EFE
 26: 0x0EEF [0x47] UPDATE_PLAYER_POS(-262.589*, 377.857*, -137.313*, yaw=305.3°*)
 27: 0x0EF9 [0x47] WAIT_PLAYER_POS_UPDATE
 28: 0x0EFB [0x01] GOTO 0x0F4F
 29: 0x0EFE [0x02] IF !(ExtData[1]->WorkLocal[33] == 2*) GOTO 0x0F15
 30: 0x0F06 [0x47] UPDATE_PLAYER_POS(18.348*, 486.940*, -224.334*, yaw=17.1°*)
 31: 0x0F10 [0x47] WAIT_PLAYER_POS_UPDATE
 32: 0x0F12 [0x01] GOTO 0x0F4F
 33: 0x0F15 [0x02] IF !(ExtData[1]->WorkLocal[33] == 3*) GOTO 0x0F2C
 34: 0x0F1D [0x47] UPDATE_PLAYER_POS(231.593*, 360.094*, -173.572*, yaw=160.8°*)
 35: 0x0F27 [0x47] WAIT_PLAYER_POS_UPDATE
 36: 0x0F29 [0x01] GOTO 0x0F4F
 37: 0x0F2C [0x02] IF !(ExtData[1]->WorkLocal[33] == 4*) GOTO 0x0F43
 38: 0x0F34 [0x47] UPDATE_PLAYER_POS(553.664*, 523.939*, -38.205*, yaw=233.9°*)
 39: 0x0F3E [0x47] WAIT_PLAYER_POS_UPDATE
 40: 0x0F40 [0x01] GOTO 0x0F4F
 41: 0x0F43 [0x47] UPDATE_PLAYER_POS(-709.498*, -609.971*, -0.005*, yaw=69.6°*)
 42: 0x0F4D [0x47] WAIT_PLAYER_POS_UPDATE

SUBROUTINE_0F4F:
 43: 0x0F4F [0x01] GOTO 0x0FD1
 44: 0x0F52 [0x02] IF !(ExtData[1]->WorkLocal[32] == 6*) GOTO 0x0FC5
 45: 0x0F5A [0x02] IF !(ExtData[1]->WorkLocal[31] == 1*) GOTO 0x0F71
 46: 0x0F62 [0x47] UPDATE_PLAYER_POS(-875.117*, -43.892*, -48.084*, yaw=45.1°*)
 47: 0x0F6C [0x47] WAIT_PLAYER_POS_UPDATE
 48: 0x0F6E [0x01] GOTO 0x0FC2
 49: 0x0F71 [0x02] IF !(ExtData[1]->WorkLocal[31] == 2*) GOTO 0x0F88
 50: 0x0F79 [0x47] UPDATE_PLAYER_POS(-755.499*, 563.947*, -112.035*, yaw=313.5°*)
 51: 0x0F83 [0x47] WAIT_PLAYER_POS_UPDATE
 52: 0x0F85 [0x01] GOTO 0x0FC2
 53: 0x0F88 [0x02] IF !(ExtData[1]->WorkLocal[31] == 3*) GOTO 0x0F9F
 54: 0x0F90 [0x47] UPDATE_PLAYER_POS(123.251*, 754.209*, -172.124*, yaw=38.7°*)
 55: 0x0F9A [0x47] WAIT_PLAYER_POS_UPDATE
 56: 0x0F9C [0x01] GOTO 0x0FC2
 57: 0x0F9F [0x02] IF !(ExtData[1]->WorkLocal[31] == 4*) GOTO 0x0FB6
 58: 0x0FA7 [0x47] UPDATE_PLAYER_POS(-516.404*, -803.323*, 24.206*, yaw=38.4°*)
 59: 0x0FB1 [0x47] WAIT_PLAYER_POS_UPDATE
 60: 0x0FB3 [0x01] GOTO 0x0FC2
 61: 0x0FB6 [0x47] UPDATE_PLAYER_POS(-709.498*, -609.971*, -0.005*, yaw=69.6°*)
 62: 0x0FC0 [0x47] WAIT_PLAYER_POS_UPDATE

SUBROUTINE_0FC2:
 63: 0x0FC2 [0x01] GOTO 0x0FD1
 64: 0x0FC5 [0x47] UPDATE_PLAYER_POS(-709.498*, -609.971*, -0.005*, yaw=69.6°*)
 65: 0x0FCF [0x47] WAIT_PLAYER_POS_UPDATE

SUBROUTINE_0FD1:
 66: 0x0FD1 [0x38] SET_CLIENT_EVENT_MODE(mode=19*)
 67: 0x0FD4 [0x79] LocalPlayer looks at LocalPlayer (Basic look)
 68: 0x0FDE [0x1A] CALL_SUBROUTINE(address=0x1C62)
 69: 0x0FE1 [0x45] LOAD_SCHEDULED_TASK: Load scheduler "whi1" with entities [LocalPlayer, LocalPlayer], work=[201*, 0*]
 70: 0x0FF2 [0x45] LOAD_SCHEDULED_TASK: Load scheduler "blof" with entities [LocalPlayer, LocalPlayer], work=[200*, 0*]
 71: 0x1003 [0x5C] MUSIC_CONTROL: Set Idle (Day) music to song 0*
 72: 0x1007 [0x5C] MUSIC_CONTROL: Set Idle (Night) music to song 0*
 73: 0x100B [0x5C] MUSIC_CONTROL: Set Combat (Solo) music to song 193*
 74: 0x100F [0x5C] MUSIC_CONTROL: Set Combat (Party) music to song 193*
 75: 0x1013 [0x21] END_EVENT
 76: 0x1014 [0x00] END_REQSTACK()

SUBROUTINE_1C47:
 77: 0x1C47 [0x24] CREATE_DIALOG(message_id=7228*, default_option=1*, option_flags=0*)
    → "Leave the battlefield? [Run away./Stay.]"
 78: 0x1C4E [0x25] WAIT_DIALOG_SELECT()
 79: 0x1C4F [0x02] IF !(Work_Zone[0] == 0*) GOTO 0x1C5D
 80: 0x1C57 [0x05] ExtData[1]->WorkLocal[29] = 1
 81: 0x1C5A [0x01] GOTO 0x1C5D

SUBROUTINE_1C5D:
 82: 0x1C5D [0x1B] RETURN

SUBROUTINE_1C5E:
 83: 0x1C5E [0x05] ExtData[1]->WorkLocal[30] = 1
 84: 0x1C61 [0x1B] RETURN

SUBROUTINE_1C62:
 85: 0x1C62 [0x46] CAMERA_CONTROL: Disable user control
 86: 0x1C64 [0x1A] CALL_SUBROUTINE(address=0x1E18)
 87: 0x1C67 [0x92] LocalPlayer->Render.Flags3 ^= 0x01
 88: 0x1C6D [0x37] UPDATE_EVENT_POSITION_AND_DIR: x=499.836*, z=-435.825*, y=55.781*, direction=39.1°*
 89: 0x1C76 [0x45] LOAD_SCHEDULED_TASK: Load scheduler "ex01" with entities [LocalPlayer, LocalPlayer], work=[233*, 0*]
 90: 0x1C87 [0x5D] SET_MUSIC_VOLUME(volume=0*, fade_time=180*)
 91: 0x1C8C [0x45] LOAD_SCHEDULED_TASK: Load scheduler "fdi2" with entities [LocalPlayer, LocalPlayer], work=[200*, 0*]
 92: 0x1C9D [0x55] WAIT_LOAD_SCHEDULER: Wait for scheduler "ex01" with entities [LocalPlayer, LocalPlayer], work=233*
 93: 0x1CAC [0x45] LOAD_SCHEDULED_TASK: Load scheduler "blon" with entities [LocalPlayer, LocalPlayer], work=[200*, 0*]
 94: 0x1CBD [0x45] LOAD_SCHEDULED_TASK: Load scheduler "ex02" with entities [LocalPlayer, LocalPlayer], work=[233*, 0*]
 95: 0x1CCE [0x1C] WAIT(150* ticks)
 96: 0x1CD1 [0x1A] CALL_SUBROUTINE(address=0x1E9C)
 97: 0x1CD4 [0x1C] WAIT(45* ticks)
 98: 0x1CD7 [0x37] UPDATE_EVENT_POSITION_AND_DIR: x=-709.498*, z=-609.971*, y=-0.005*, direction=69.6°*
 99: 0x1CE0 [0x2C] CREATE_SCHEDULER_TASK: Create scheduler "res0" with entities [LocalPlayer, LocalPlayer]
100: 0x1CED [0x1C] WAIT(15* ticks)
101: 0x1CF0 [0x45] LOAD_SCHEDULED_TASK: Load scheduler "ife1" with entities [LocalPlayer, LocalPlayer], work=[233*, 0*]
102: 0x1D01 [0x45] LOAD_SCHEDULED_TASK: Load scheduler "wisp" with entities [LocalPlayer, LocalPlayer], work=[233*, 0*]
103: 0x1D12 [0x1C] WAIT(180* ticks)
104: 0x1D15 [0x45] LOAD_SCHEDULED_TASK: Load scheduler "blof" with entities [LocalPlayer, LocalPlayer], work=[200*, 0*]
105: 0x1D26 [0x55] WAIT_LOAD_SCHEDULER: Wait for scheduler "ife1" with entities [LocalPlayer, LocalPlayer], work=233*
106: 0x1D35 [0x46] CAMERA_CONTROL: Restore default settings
107: 0x1D37 [0x92] LocalPlayer->Render.Flags3 = Flags3  // No change (flag=0)
108: 0x1D3D [0x1B] RETURN

SUBROUTINE_1E18:
109: 0x1E18 [0x45] LOAD_SCHEDULED_TASK: Load scheduler "fdo0" with entities [LocalPlayer, LocalPlayer], work=[200*, 0*]
110: 0x1E29 [0x55] WAIT_LOAD_SCHEDULER: Wait for scheduler "fdo0" with entities [LocalPlayer, LocalPlayer], work=200*
111: 0x1E38 [0x1B] RETURN

SUBROUTINE_1E9C:
112: 0x1E9C [0x45] LOAD_SCHEDULED_TASK: Load scheduler "who1" with entities [LocalPlayer, LocalPlayer], work=[201*, 0*]
113: 0x1EAD [0x55] WAIT_LOAD_SCHEDULER: Wait for scheduler "who1" with entities [LocalPlayer, LocalPlayer], work=201*
114: 0x1EBC [0x1B] RETURN
```

#### Data or dead code:

```
# Dead code (unreachable instructions):
     0x1015 [0x24] CREATE_DIALOG(message_id=7227*, default_option=1*, option_flags=0*)
    → "Enter the battlefield? [Enter./Decline.]"
     0x101C [0x25] WAIT_DIALOG_SELECT()
     0x101D [0x02] IF !(Work_Zone[0] == 0*) GOTO 0x102B
     0x1025 [0x05] ExtData[1]->WorkLocal[1] = 1
     0x1028 [0x01] GOTO 0x102B
     0x102B [0x1B] RETURN
     0x102C [0x79] LocalPlayer looks at LocalPlayer (Basic look)
     0x1036 [0x02] IF !(ExtData[1]->WorkLocal[3] == 4*) GOTO 0x1041
     0x103E [0x01] GOTO 0x1077
     0x1041 [0x46] CAMERA_CONTROL: Disable user control
     0x1043 [0x1A] CALL_SUBROUTINE(address=0x1E18)
     0x1046 [0x92] LocalPlayer->Render.Flags3 ^= 0x01
     0x104C [0x37] UPDATE_EVENT_POSITION_AND_DIR: x=-721.088*, z=-599.195*, y=0.000*, direction=233.1°*
     0x1055 [0x45] LOAD_SCHEDULED_TASK: Load scheduler "ifi1" with entities [LocalPlayer, LocalPlayer], work=[233*, 0*]
     0x1066 [0x45] LOAD_SCHEDULED_TASK: Load scheduler "fdi2" with entities [LocalPlayer, LocalPlayer], work=[200*, 0*]
     0x1077 [0x02] IF !(ExtData[1]->WorkLocal[3] == 0*) GOTO 0x1085
     0x107F [0x1A] CALL_SUBROUTINE(address=0x113D)
     0x1082 [0x01] GOTO 0x10E3
     0x1085 [0x02] IF !(ExtData[1]->WorkLocal[3] == 1*) GOTO 0x1093
     0x108D [0x1A] CALL_SUBROUTINE(address=0x1275)
     0x1090 [0x01] GOTO 0x10E3
     0x1093 [0x02] IF !(ExtData[1]->WorkLocal[3] == 2*) GOTO 0x10A1
     0x109B [0x1A] CALL_SUBROUTINE(address=0x13EC)
     0x109E [0x01] GOTO 0x10E3
     0x10A1 [0x02] IF !(ExtData[1]->WorkLocal[3] == 3*) GOTO 0x10E3
     0x10A9 [0x55] WAIT_LOAD_SCHEDULER: Wait for scheduler "ifi1" with entities [LocalPlayer, LocalPlayer], work=233*
     0x10B8 [0x45] LOAD_SCHEDULED_TASK: Load scheduler "blon" with entities [LocalPlayer, LocalPlayer], work=[200*, 0*]
     0x10C9 [0x45] LOAD_SCHEDULED_TASK: Load scheduler "ifi2" with entities [LocalPlayer, LocalPlayer], work=[233*, 0*]
     0x10DA [0x1C] WAIT(90* ticks)
