# Event 10089

## Metadata

| Field           | Value    |
|-----------------|----------|
| Event Index     | 3/3      |
| Offset          | 0x0041   |
| Data Size       | 52 bytes |
| Calculated Size | 52 bytes |
| Instructions    | 12       |

```
      00 01 02 03 04 05 06 07  08 09 0A 0B 0C 0D 0E 0F
      -- -- -- -- -- -- -- --  -- -- -- -- -- -- -- --
0040:    42 48 03 80 1E F0 FF  FF 7F 1C 04 80 1D 05 80   BH.............
0050: 23 66 00 80 F8 FF FF 7F  F8 FF FF 7F 74 6C 6B 30  #f..........tlk0
0060: 1D 06 80 23 66 00 80 F8  FF FF 7F F8 FF FF 7F 74  ...#f..........t
0070: 6C 6B 31 21 00                                    lk1!.           
```

## Opcodes

```
  0: 0x0041 [0x42] SET_CLI_EVENT_CANCEL_DATA()
  1: 0x0042 [0x48] [System] [13840*]:
    → "\u001F\u000F\u0008's badge flashes brightly.\u007F1\u0000\u0007"
  2: 0x0045 [0x1E] EventEntity looks at LocalPlayer and starts talking
  3: 0x004A [0x1C] WAIT(30* ticks)
  4: 0x004D [0x1D] PRINT_EVENT_MESSAGE(message_id=13841*)
    → "The Near East must be in a dire condition to send mercenary recruiters all the way to Jeuno...\u007F1\u0000\u0007"
  5: 0x0050 [0x23] WAIT_FOR_DIALOG_INTERACTION
  6: 0x0051 [0x66] LOAD_EXT_SCHEDULER_MAIN(work_offset=19*, entity1=EventEntity, entity2=EventEntity, action="tlk0")
  7: 0x0060 [0x1D] PRINT_EVENT_MESSAGE(message_id=13842*)
    → "I heard many tales of the Great War from my dear departed father. They all seemed irrelevant to me until now...\u007F1\u0000\u0007"
  8: 0x0063 [0x23] WAIT_FOR_DIALOG_INTERACTION
  9: 0x0064 [0x66] LOAD_EXT_SCHEDULER_MAIN(work_offset=19*, entity1=EventEntity, entity2=EventEntity, action="tlk1")
 10: 0x0073 [0x21] END_EVENT
 11: 0x0074 [0x00] END_REQSTACK()
```
