# Event 65535

## Metadata

| Field           | Value    |
|-----------------|----------|
| Event Index     | 6/6      |
| Offset          | 0x001D   |
| Data Size       | 40 bytes |
| Calculated Size | 40 bytes |
| Instructions    | 10       |

```
      00 01 02 03 04 05 06 07  08 09 0A 0B 0C 0D 0E 0F
      -- -- -- -- -- -- -- --  -- -- -- -- -- -- -- --
0010:                                         32 00 80               2..
0020: 1F 00 01 80 02 80 03 80  1F 01 1C 04 80 4B BC B2  .............K..
0030: 09 01 05 80 1C 06 80 32  07 80 1F 00 08 80 09 80  .......2........
0040: 03 80 1F 01 00                                    .....           
```

## Opcodes

```
  0: 0x001D [0x32] ExtData[1]->MainSpeed = 22* * 0.1
  1: 0x0020 [0x1F] MOVE_ENTITY: EventEntity moves to X=-374.028*, Z=-130.664*, Y=-51.999*
  2: 0x0028 [0x1F] MOVE_ENTITY: Update entity position (mode=1)
  3: 0x002A [0x1C] WAIT(700* ticks)
  4: 0x002D [0x4B] UPDATE_ENTITY_YAW(entity=Unnamed NPC (ID: 17412796/0x0109B2BC), yaw=1.87°*)
  5: 0x0034 [0x1C] WAIT(360* ticks)
  6: 0x0037 [0x32] ExtData[1]->MainSpeed = 20* * 0.1
  7: 0x003A [0x1F] MOVE_ENTITY: EventEntity moves to X=-370.034*, Z=-123.654*, Y=-51.999*
  8: 0x0042 [0x1F] MOVE_ENTITY: Update entity position (mode=1)
  9: 0x0044 [0x00] END_REQSTACK()
```
