# Event 257

## Metadata

| Field           | Value    |
|-----------------|----------|
| Event Index     | 3/7      |
| Offset          | 0x0025   |
| Data Size       | 20 bytes |
| Calculated Size | 20 bytes |
| Instructions    | 8        |

```
      00 01 02 03 04 05 06 07  08 09 0A 0B 0C 0D 0E 0F
      -- -- -- -- -- -- -- --  -- -- -- -- -- -- -- --
0020:                1E F0 FF  FF 7F 03 02 10 03 80 1D       ...........
0030: 07 80 23 1D 06 80 23 21  00                       ..#...#!.       
```

## Opcodes

```
  0: 0x0025 [0x1E] EventEntity looks at LocalPlayer and starts talking
  1: 0x002A [0x03] Work_Zone[2] = 1600*
  2: 0x002F [0x1D] PRINT_EVENT_MESSAGE(message_id=7975*)
    → "The \u0001\u00053\u0002\u0000\u0000\u0000... Shomeone musht find the \u0001\u00053\u0002\u0000\u0000\u0000...!\u007F1\u0000\u0007"
  3: 0x0032 [0x23] WAIT_FOR_DIALOG_INTERACTION
  4: 0x0033 [0x1D] PRINT_EVENT_MESSAGE(message_id=7974*)
    → "Theshe days, it painsh me enough jusht to shpeak, let alone shwing a blade.\u0007Pleashe... Tell me that you will sheek out the pyxshishesh and retrieve the shupplies we need...\u007F1\u0000\u0007"
  5: 0x0036 [0x23] WAIT_FOR_DIALOG_INTERACTION
  6: 0x0037 [0x21] END_EVENT
  7: 0x0038 [0x00] END_REQSTACK()
```
