# Event 258

## Metadata

| Field           | Value    |
|-----------------|----------|
| Event Index     | 4/7      |
| Offset          | 0x0039   |
| Data Size       | 41 bytes |
| Calculated Size | 41 bytes |
| Instructions    | 11       |

```
      00 01 02 03 04 05 06 07  08 09 0A 0B 0C 0D 0E 0F
      -- -- -- -- -- -- -- --  -- -- -- -- -- -- -- --
0030:                             1E F0 FF FF 7F 03 02           .......
0040: 10 03 80 1D 08 80 23 1D  09 80 23 1D 0A 80 23 45  ......#...#...#E
0050: 0B 80 F0 FF FF 7F F0 FF  FF 7F 71 73 74 63 0C 80  ..........qstc..
0060: 21 00                                             !.              
```

## Opcodes

```
  0: 0x0039 [0x1E] EventEntity looks at LocalPlayer and starts talking
  1: 0x003E [0x03] Work_Zone[2] = 1600*
  2: 0x0043 [0x1D] PRINT_EVENT_MESSAGE(message_id=7976*)
    → "Do theshe old eyesh deshieve me?\u0007Is that \u0001\u00056\u0002\u0000\u0000\u0000 you hold!?\u007F1\u0000\u0007"
  3: 0x0046 [0x23] WAIT_FOR_DIALOG_INTERACTION
  4: 0x0047 [0x1D] PRINT_EVENT_MESSAGE(message_id=7977*)
    → "Friend...how can we ever repay you...\u0007You are our shavior...our lodeshtar in the darkesht night shky...\u007F1\u0000\u0007"
  5: 0x004A [0x23] WAIT_FOR_DIALOG_INTERACTION
  6: 0x004B [0x1D] PRINT_EVENT_MESSAGE(message_id=7978*)
    → "Thish may be nothing to you, but it ish all I poshesh...\u0007Pleashe...take it with my gratitude...\u0007Now, I musht begin work... Yesh...on the weapon that will shave our people!\u007F1\u0000\u0007"
  7: 0x004E [0x23] WAIT_FOR_DIALOG_INTERACTION
  8: 0x004F [0x45] LOAD_SCHEDULED_TASK: Load scheduler "qstc" with entities [LocalPlayer, LocalPlayer], work=[201*, 0*]
  9: 0x0060 [0x21] END_EVENT
 10: 0x0061 [0x00] END_REQSTACK()
```
