# Event 0

## Metadata

| Field           | Value    |
|-----------------|----------|
| Event Index     | 5/32     |
| Offset          | 0x0046   |
| Data Size       | 40 bytes |
| Calculated Size | 40 bytes |
| Instructions    | 7        |

```
      00 01 02 03 04 05 06 07  08 09 0A 0B 0C 0D 0E 0F
      -- -- -- -- -- -- -- --  -- -- -- -- -- -- -- --
0040:                   32 04  80 79 00 F8 FF FF 7F 43        2..y.....C
0050: 60 0E 01 37 0B 80 0C 80  0D 80 0E 80 33 00 6C F8  `..7........3.l.
0060: FF FF 7F 0F 80 10 80 92  00 F8 FF FF 7F 00        ..............  
```

## Opcodes

```
  0: 0x0046 [0x32] ExtData[1]->MainSpeed = 13* * 0.1
  1: 0x0049 [0x79] EventEntity looks at Destin (ID: 17719363/0x010E6043) (Basic look)
  2: 0x0053 [0x37] UPDATE_EVENT_POSITION_AND_DIR: x=-97.221*, z=70.313*, y=0.398*, direction=129.7°*
  3: 0x005C [0x33] EventEntity->Render.Flags0 &= ~ 0x200000 // Bit 21 (flag=0x00)
  4: 0x005E [0x6C] FADE_ENTITY_COLOR(entity_id=EventEntity, end_alpha=128*, fade_time=1*)
  5: 0x0067 [0x92] EventEntity->Render.Flags3 = Flags3  // No change (flag=0)
  6: 0x006D [0x00] END_REQSTACK()
```
