# Event 58

## Metadata

| Field           | Value    |
|-----------------|----------|
| Event Index     | 17/17    |
| Offset          | 0x025A   |
| Data Size       | 23 bytes |
| Calculated Size | 23 bytes |
| Instructions    | 12       |

```
      00 01 02 03 04 05 06 07  08 09 0A 0B 0C 0D 0E 0F
      -- -- -- -- -- -- -- --  -- -- -- -- -- -- -- --
0250:                                1E F0 FF FF 7F 6F            .....o
0260: 70 1D 25 80 23 1D 26 80  23 1D 27 80 23 20 00 21  p.%.#.&.#.'.# .!
0270: 00                                                .               
```

## Opcodes

```
  0: 0x025A [0x1E] EventEntity looks at LocalPlayer and starts talking
  1: 0x025F [0x6F] WAIT_FRAME_DELAY: Yield until WaitTime reaches zero
  2: 0x0260 [0x70] WAIT_ENTITY_RENDER_FLAG: Wait while EventEntity->Render.Flags3 bit 2 is set (cancel turn if not)
  3: 0x0261 [0x1D] PRINT_EVENT_MESSAGE(message_id=7396*)
    → "Huh...?\u007F1\u0000\u0007"
  4: 0x0264 [0x23] WAIT_FOR_DIALOG_INTERACTION
  5: 0x0265 [0x1D] PRINT_EVENT_MESSAGE(message_id=7398*)
    → "What is that hat you're holding?\u0007Let me have a look.\u007F1\u0000\u0007"
  6: 0x0268 [0x23] WAIT_FOR_DIALOG_INTERACTION
  7: 0x0269 [0x1D] PRINT_EVENT_MESSAGE(message_id=7399*)
    → "Hmm...this must be the latest style from the local hatter. It's about time I had some new headwear made. Perhaps I'll drop by later...\u007F1\u0000\u0007"
  8: 0x026C [0x23] WAIT_FOR_DIALOG_INTERACTION
  9: 0x026D [0x20] SET_CLI_EVENT_UC_FLAG: Unlock player control
 10: 0x026F [0x21] END_EVENT
 11: 0x0270 [0x00] END_REQSTACK()
```
