# Event 65535

## Metadata

| Field           | Value    |
|-----------------|----------|
| Event Index     | 15/110   |
| Offset          | 0x0094   |
| Data Size       | 54 bytes |
| Calculated Size | 54 bytes |
| Instructions    | 11       |

```
      00 01 02 03 04 05 06 07  08 09 0A 0B 0C 0D 0E 0F
      -- -- -- -- -- -- -- --  -- -- -- -- -- -- -- --
0090:             02 02 7F 0A  80 04 B4 00 02 00 7F 0B      ............
00A0: 80 03 AC 00 03 08 10 08  80 01 B1 00 03 08 10 02  ................
00B0: 80 01 C9 00 02 00 7F 0C  80 03 C4 00 03 08 10 08  ................
00C0: 80 01 C9 00 03 08 10 02  80 00                    ..........      
```

## Opcodes

```
  0: 0x0094 [0x02] IF !(ExtData[1]->EventPos[2] * 1000.0 < 100000*) GOTO 0x00B4
  1: 0x009C [0x02] IF !(ExtData[1]->EventPos[0] * 1000.0 >= 210500*) GOTO 0x00AC
  2: 0x00A4 [0x03] Work_Zone[8] = 1*
  3: 0x00A9 [0x01] GOTO 0x00B1
  4: 0x00AC [0x03] Work_Zone[8] = 0*

SUBROUTINE_00B1:
  5: 0x00B1 [0x01] GOTO 0x00C9
  6: 0x00B4 [0x02] IF !(ExtData[1]->EventPos[0] * 1000.0 >= 209900*) GOTO 0x00C4
  7: 0x00BC [0x03] Work_Zone[8] = 1*
  8: 0x00C1 [0x01] GOTO 0x00C9
  9: 0x00C4 [0x03] Work_Zone[8] = 0*

SUBROUTINE_00C9:
 10: 0x00C9 [0x00] END_REQSTACK()
```
