# Event 65535

## Metadata

| Field           | Value    |
|-----------------|----------|
| Event Index     | 105/110  |
| Offset          | 0x06D2   |
| Data Size       | 41 bytes |
| Calculated Size | 41 bytes |
| Instructions    | 9        |

```
      00 01 02 03 04 05 06 07  08 09 0A 0B 0C 0D 0E 0F
      -- -- -- -- -- -- -- --  -- -- -- -- -- -- -- --
06D0:       32 04 80 1F 00 F5  80 F6 80 F7 80 1F 01 6F    2............o
06E0: 1C F8 80 03 03 00 07 7F  1A 2F 06 66 04 00 F8 FF  ........./.f....
06F0: FF 7F F8 FF FF 7F 73 68  61 30 00                 ......sha0.     
```

## Opcodes

```
  0: 0x06D2 [0x32] ExtData[1]->MainSpeed = 13* * 0.1
  1: 0x06D5 [0x1F] MOVE_ENTITY: EventEntity moves to X=162.129*, Z=331.980*, Y=-87.605*
  2: 0x06DD [0x1F] MOVE_ENTITY: Update entity position (mode=1)
  3: 0x06DF [0x6F] WAIT_FRAME_DELAY: Yield until WaitTime reaches zero
  4: 0x06E0 [0x1C] WAIT(15* ticks)
  5: 0x06E3 [0x03] ExtData[1]->WorkLocal[3] = Entity->Race
  6: 0x06E8 [0x1A] CALL_SUBROUTINE(address=0x062F)
  7: 0x06EB [0x66] LOAD_EXT_SCHEDULER_MAIN: Load scheduler "sha0" with entities [EventEntity, EventEntity], work=ExtData[1]->WorkLocal[4]
  8: 0x06FA [0x00] END_REQSTACK()
```
