# Event 65535

## Metadata

| Field           | Value     |
|-----------------|-----------|
| Event Index     | 103/110   |
| Offset          | 0x0622    |
| Data Size       | 161 bytes |
| Calculated Size | 161 bytes |
| Instructions    | 4         |

```
      00 01 02 03 04 05 06 07  08 09 0A 0B 0C 0D 0E 0F
      -- -- -- -- -- -- -- --  -- -- -- -- -- -- -- --
0620:       6E F0 FF FF 7F EA  80 99 F0 FF FF 7F 00 03    n.............
0630: 04 00 03 00 02 04 00 EB  80 05 44 06 08 04 00 08  ..........D.....
0640: 80 01 49 06 08 04 00 EC  80 14 04 00 ED 80 07 04  ..I.............
0650: 00 EE 80 1B 03 04 00 03  00 02 04 00 EB 80 05 69  ...............i
0660: 06 08 04 00 08 80 01 6E  06 08 04 00 EC 80 14 04  .......n........
0670: 00 ED 80 07 04 00 EF 80  1B 03 04 00 03 00 02 04  ................
0680: 00 EB 80 05 8E 06 08 04  00 08 80 01 93 06 08 04  ................
0690: 00 EC 80 14 04 00 ED 80  07 04 00 F0 80 1B 03 04  ................
06A0: 00 03 00 02 04 00 EB 80  05 B3 06 08 04 00 08 80  ................
06B0: 01 B8 06 08 04 00 EC 80  14 04 00 ED 80 07 04 00  ................
06C0: F1 80 1B                                          ...             
```

## Opcodes

```
  0: 0x0622 [0x6E] LocalPlayer uses emote 555*
  1: 0x0629 [0x99] Wait for LocalPlayer animation to complete
  2: 0x062E [0x00] END_REQSTACK()
```

## Data or dead code:

```
# Data Section: 0x062F (148 bytes)
     0x062F: 03 04 00 03 00 02 04 00 EB 80 05 44 06 08 04 00
     0x063F: 08 80 01 49 06 08 04 00 EC 80 14 04 00 ED 80 07
     0x064F: 04 00 EE 80 1B 03 04 00 03 00 02 04 00 EB 80 05
     0x065F: 69 06 08 04 00 08 80 01 6E 06 08 04 00 EC 80 14
     0x066F: 04 00 ED 80 07 04 00 EF 80 1B 03 04 00 03 00 02
     0x067F: 04 00 EB 80 05 8E 06 08 04 00 08 80 01 93 06 08
     0x068F: 04 00 EC 80 14 04 00 ED 80 07 04 00 F0 80 1B 03
     0x069F: 04 00 03 00 02 04 00 EB 80 05 B3 06 08 04 00 08
     0x06AF: 80 01 B8 06 08 04 00 EC 80 14 04 00 ED 80 07 04
     0x06BF: 00 F1 80 1B
```