# Event 65535

## Metadata

| Field           | Value     |
|-----------------|-----------|
| Event Index     | 60/110    |
| Offset          | 0x02A5    |
| Data Size       | 105 bytes |
| Calculated Size | 105 bytes |
| Instructions    | 9         |

```
      00 01 02 03 04 05 06 07  08 09 0A 0B 0C 0D 0E 0F
      -- -- -- -- -- -- -- --  -- -- -- -- -- -- -- --
02A0:                2C F0 FF  FF 7F F0 FF FF 7F 67 75       ,........gu
02B0: 72 64 53 F0 FF FF 7F F0  FF FF 7F 67 75 72 64 2C  rdS........gurd,
02C0: 1A 00 0F 01 F0 FF FF 7F  64 61 6D 67 53 F8 FF FF  ........damgS...
02D0: 7F F0 FF FF 7F 64 61 6D  67 2C F0 FF FF 7F F0 FF  .....damg,......
02E0: FF 7F 64 65 61 64 53 F0  FF FF 7F F0 FF FF 7F 64  ..deadS........d
02F0: 65 61 64 2C F0 FF FF 7F  F0 FF FF 7F 63 6F 72 70  ead,........corp
0300: 53 F0 FF FF 7F F0 FF FF  7F 63 6F 72 70 00        S........corp.  
```

## Opcodes

```
  0: 0x02A5 [0x2C] CREATE_SCHEDULER_TASK: Create scheduler "gurd" for entities [LocalPlayer, LocalPlayer]
  1: 0x02B2 [0x53] WAIT_SCHEDULER_TASK(entity1=LocalPlayer, entity2=LocalPlayer, action_id="gurd")
  2: 0x02BF [0x2C] CREATE_SCHEDULER_TASK: Create scheduler "damg" for entities [Shantotto (ID: 17760282/0x010F001A), LocalPlayer]
  3: 0x02CC [0x53] WAIT_SCHEDULER_TASK(entity1=EventEntity, entity2=LocalPlayer, action_id="damg")
  4: 0x02D9 [0x2C] CREATE_SCHEDULER_TASK: Create scheduler "dead" for entities [LocalPlayer, LocalPlayer]
  5: 0x02E6 [0x53] WAIT_SCHEDULER_TASK(entity1=LocalPlayer, entity2=LocalPlayer, action_id="dead")
  6: 0x02F3 [0x2C] CREATE_SCHEDULER_TASK: Create scheduler "corp" for entities [LocalPlayer, LocalPlayer]
  7: 0x0300 [0x53] WAIT_SCHEDULER_TASK(entity1=LocalPlayer, entity2=LocalPlayer, action_id="corp")
  8: 0x030D [0x00] END_REQSTACK()
```
