# Event 65535

## Metadata

| Field           | Value     |
|-----------------|-----------|
| Event Index     | 103/110   |
| Offset          | 0x0622    |
| Data Size       | 161 bytes |
| Calculated Size | 161 bytes |
| Instructions    | 3         |

```
      00 01 02 03 04 05 06 07  08 09 0A 0B 0C 0D 0E 0F
      -- -- -- -- -- -- -- --  -- -- -- -- -- -- -- --
0620:       6E F0 FF FF 7F EA  80 99 F0 FF FF 7F 00 03    n.............
0630: 04 00 03 00 02 04 00 EB  80 05 44 06 08 04 00 08  ..........D.....
0640: 80 01 49 06 08 04 00 EC  80 14 04 00 ED 80 07 04  ..I.............
0650: 00 EE 80 1B 03 04 00 03  00 02 04 00 EB 80 05 69  ...............i
0660: 06 08 04 00 08 80 01 6E  06 08 04 00 EC 80 14 04  .......n........
0670: 00 ED 80 07 04 00 EF 80  1B 03 04 00 03 00 02 04  ................
0680: 00 EB 80 05 8E 06 08 04  00 08 80 01 93 06 08 04  ................
0690: 00 EC 80 14 04 00 ED 80  07 04 00 F0 80 1B 03 04  ................
06A0: 00 03 00 02 04 00 EB 80  05 B3 06 08 04 00 08 80  ................
06B0: 01 B8 06 08 04 00 EC 80  14 04 00 ED 80 07 04 00  ................
06C0: F1 80 1B                                          ...             
```

## Opcodes

```
  0: 0x0622 [0x6E] LocalPlayer uses emote 555*
  1: 0x0629 [0x99] Wait for LocalPlayer animation to complete
  2: 0x062E [0x00] END_REQSTACK()
```

## Data or dead code:

```
# Dead code (unreachable instructions):
     0x062F [0x03] ExtData[1]->WorkLocal[4] = ExtData[1]->WorkLocal[3]
     0x0634 [0x02] IF !(ExtData[1]->WorkLocal[4] > 5*) GOTO 0x0644
     0x063C [0x08] ExtData[1]->WorkLocal[4] -= 1*
     0x0641 [0x01] GOTO 0x0649
     0x0644 [0x08] ExtData[1]->WorkLocal[4] -= 2*
     0x0649 [0x14] ExtData[1]->WorkLocal[4] *= 10*
     0x064E [0x07] ExtData[1]->WorkLocal[4] += 9*
     0x0653 [0x1B] RETURN
     0x0654 [0x03] ExtData[1]->WorkLocal[4] = ExtData[1]->WorkLocal[3]
     0x0659 [0x02] IF !(ExtData[1]->WorkLocal[4] > 5*) GOTO 0x0669
     0x0661 [0x08] ExtData[1]->WorkLocal[4] -= 1*
     0x0666 [0x01] GOTO 0x066E
     0x0669 [0x08] ExtData[1]->WorkLocal[4] -= 2*
     0x066E [0x14] ExtData[1]->WorkLocal[4] *= 10*
     0x0673 [0x07] ExtData[1]->WorkLocal[4] += 70*
     0x0678 [0x1B] RETURN
     0x0679 [0x03] ExtData[1]->WorkLocal[4] = ExtData[1]->WorkLocal[3]
     0x067E [0x02] IF !(ExtData[1]->WorkLocal[4] > 5*) GOTO 0x068E
     0x0686 [0x08] ExtData[1]->WorkLocal[4] -= 1*
     0x068B [0x01] GOTO 0x0693
     0x068E [0x08] ExtData[1]->WorkLocal[4] -= 2*
     0x0693 [0x14] ExtData[1]->WorkLocal[4] *= 10*
     0x0698 [0x07] ExtData[1]->WorkLocal[4] += 140*
     0x069D [0x1B] RETURN
     0x069E [0x03] ExtData[1]->WorkLocal[4] = ExtData[1]->WorkLocal[3]
     0x06A3 [0x02] IF !(ExtData[1]->WorkLocal[4] > 5*) GOTO 0x06B3
     0x06AB [0x08] ExtData[1]->WorkLocal[4] -= 1*
     0x06B0 [0x01] GOTO 0x06B8
     0x06B3 [0x08] ExtData[1]->WorkLocal[4] -= 2*
     0x06B8 [0x14] ExtData[1]->WorkLocal[4] *= 10*
     0x06BD [0x07] ExtData[1]->WorkLocal[4] += 210*
     0x06C2 [0x1B] RETURN
```