# Event 65535

## Metadata

| Field           | Value    |
|-----------------|----------|
| Event Index     | 29/40    |
| Offset          | 0x0247   |
| Data Size       | 42 bytes |
| Calculated Size | 42 bytes |
| Instructions    | 11       |

```
      00 01 02 03 04 05 06 07  08 09 0A 0B 0C 0D 0E 0F
      -- -- -- -- -- -- -- --  -- -- -- -- -- -- -- --
0240:                      A5  01 33 01 37 34 80 35 80         ..3.74.5.
0250: 36 80 37 80 32 10 80 1F  00 38 80 39 80 3C 80 1F  6.7.2....8.9.<..
0260: 01 4B F0 FF FF 7F 3B 80  6F 76 F0 FF FF 7F A5 00  .K....;.ov......
0270: 00                                                .               
```

## Opcodes

```
  0: 0x0247 [0xA5] EventEntity->Flags3.BallistaTeam |= 0x08  // Set bit 3 of BallistaTeam
  1: 0x0249 [0x33] EventEntity->Render.Flags0 |= 0x200000 // Bit 21 (flag=0x01)
  2: 0x024B [0x37] UPDATE_EVENT_POSITION_AND_DIR: x=-48.828*, z=174.522*, y=1.512*, direction=104.3°*
  3: 0x0254 [0x32] ExtData[1]->MainSpeed = 13* * 0.1
  4: 0x0257 [0x1F] MOVE_ENTITY: EventEntity moves to X=-50.962*, Z=171.759*, Y=1.450*
  5: 0x025F [0x1F] MOVE_ENTITY: Update entity position (mode=1)
  6: 0x0261 [0x4B] UPDATE_ENTITY_YAW(entity=LocalPlayer, yaw=12.8°*)
  7: 0x0268 [0x6F] WAIT_FRAME_DELAY: Yield until WaitTime reaches zero
  8: 0x0269 [0x76] CHECK_ENTITY_RENDER_FLAGS: Wait until LocalPlayer Render.Flags0 and Render.Flags3 conditions are met
  9: 0x026E [0xA5] EventEntity->Flags3.BallistaTeam &= ~0x08  // Clear bit 3 of BallistaTeam
 10: 0x0270 [0x00] END_REQSTACK()
```
