# Event 65535

## Metadata

| Field           | Value    |
|-----------------|----------|
| Event Index     | 28/40    |
| Offset          | 0x0203   |
| Data Size       | 68 bytes |
| Calculated Size | 68 bytes |
| Instructions    | 12       |

```
      00 01 02 03 04 05 06 07  08 09 0A 0B 0C 0D 0E 0F
      -- -- -- -- -- -- -- --  -- -- -- -- -- -- -- --
0200:          37 34 80 35 80  36 80 37 80 32 10 80 1F     74.5.6.7.2...
0210: 00 38 80 39 80 3A 80 1F  01 4B F0 FF FF 7F 3B 80  .8.9.:...K....;.
0220: 6F 70 03 04 00 07 7F 1A  18 04 66 05 00 F8 FF FF  op........f.....
0230: 7F F8 FF FF 7F 73 68 61  30 53 F8 FF FF 7F F8 FF  .....sha0S......
0240: FF 7F 73 68 61 30 00                              ..sha0.         
```

## Opcodes

```
  0: 0x0203 [0x37] UPDATE_EVENT_POSITION_AND_DIR: x=-48.828*, z=174.522*, y=1.512*, direction=104.3°*
  1: 0x020C [0x32] ExtData[1]->MainSpeed = 13* * 0.1
  2: 0x020F [0x1F] MOVE_ENTITY: EventEntity moves to X=-50.962*, Z=171.759*, Y=1.598*
  3: 0x0217 [0x1F] MOVE_ENTITY: Update entity position (mode=1)
  4: 0x0219 [0x4B] UPDATE_ENTITY_YAW(entity=LocalPlayer, yaw=12.79°*)
  5: 0x0220 [0x6F] WAIT_FRAME_DELAY: Yield until WaitTime reaches zero
  6: 0x0221 [0x70] WAIT_ENTITY_RENDER_FLAG: Wait while EventEntity->Render.Flags3 bit 2 is set (cancel turn if not)
  7: 0x0222 [0x03] ExtData[1]->WorkLocal[4] = Entity->Race
  8: 0x0227 [0x1A] CALL_SUBROUTINE(address=0x0418)
  9: 0x022A [0x66] LOAD_EXT_SCHEDULER_MAIN(work_offset=0x0005, entity1=EventEntity, entity2=EventEntity, action="sha0")
 10: 0x0239 [0x53] WAIT_SCHEDULER_TASK(entity1=EventEntity, entity2=EventEntity, action_id="sha0")
 11: 0x0246 [0x00] END_REQSTACK()
```
