# Event 65535

## Metadata

| Field           | Value    |
|-----------------|----------|
| Event Index     | 33/40    |
| Offset          | 0x02E9   |
| Data Size       | 65 bytes |
| Calculated Size | 65 bytes |
| Instructions    | 11       |

```
      00 01 02 03 04 05 06 07  08 09 0A 0B 0C 0D 0E 0F
      -- -- -- -- -- -- -- --  -- -- -- -- -- -- -- --
02E0:                             33 01 37 3F 80 40 80           3.7?.@.
02F0: 1A 80 3E 80 33 01 03 04  00 07 7F 1A 18 04 66 05  ..>.3.........f.
0300: 00 F8 FF FF 7F F8 FF FF  7F 73 68 61 31 53 F8 FF  .........sha1S..
0310: FF 7F F8 FF FF 7F 73 68  61 31 6E F8 FF FF 7F 43  ......sha1n....C
0320: 80 99 F8 FF FF 7F 1C 04  80 00                    ..........      
```

## Opcodes

```
  0: 0x02E9 [0x33] EventEntity->Render.Flags0 |= 0x200000 // Bit 21 (flag=0x01)
  1: 0x02EB [0x37] UPDATE_EVENT_POSITION_AND_DIR: x=-50.181*, z=171.774*, y=1.300*, direction=90.0°*
  2: 0x02F4 [0x33] EventEntity->Render.Flags0 |= 0x200000 // Bit 21 (flag=0x01)
  3: 0x02F6 [0x03] ExtData[1]->WorkLocal[4] = Entity->Race
  4: 0x02FB [0x1A] CALL_SUBROUTINE(address=0x0418)
  5: 0x02FE [0x66] LOAD_EXT_SCHEDULER_MAIN: Load scheduler "sha1" with entities [EventEntity, EventEntity], work=ExtData[1]->WorkLocal[5]
  6: 0x030D [0x53] WAIT_SCHEDULER_TASK: Wait for scheduler "sha1" with entities [EventEntity, EventEntity]
  7: 0x031A [0x6E] EventEntity uses emote 18*
  8: 0x0321 [0x99] Wait for EventEntity animation to complete
  9: 0x0326 [0x1C] WAIT(120* ticks)
 10: 0x0329 [0x00] END_REQSTACK()
```
