# Event 65535

## Metadata

| Field           | Value    |
|-----------------|----------|
| Event Index     | 35/40    |
| Offset          | 0x0374   |
| Data Size       | 72 bytes |
| Calculated Size | 72 bytes |
| Instructions    | 12       |

```
      00 01 02 03 04 05 06 07  08 09 0A 0B 0C 0D 0E 0F
      -- -- -- -- -- -- -- --  -- -- -- -- -- -- -- --
0370:             37 3F 80 40  80 3C 80 3E 80 03 04 00      7?.@.<.>....
0380: 07 7F 1A 18 04 66 05 00  F8 FF FF 7F F8 FF FF 7F  .....f..........
0390: 73 68 61 31 53 F8 FF FF  7F F8 FF FF 7F 73 68 61  sha1S........sha
03A0: 31 4A F0 FF FF 7F 05 93  10 01 6F 70 6E F8 FF FF  1J........opn...
03B0: 7F 15 80 99 F8 FF FF 7F  1C 03 80 00              ............    
```

## Opcodes

```
  0: 0x0374 [0x37] UPDATE_EVENT_POSITION_AND_DIR: x=-50.181*, z=171.774*, y=1.450*, direction=90.0°*
  1: 0x037D [0x03] ExtData[1]->WorkLocal[4] = Entity->Race
  2: 0x0382 [0x1A] CALL_SUBROUTINE(address=0x0418)
  3: 0x0385 [0x66] LOAD_EXT_SCHEDULER_MAIN: Load scheduler "sha1" with entities [EventEntity, EventEntity], work=ExtData[1]->WorkLocal[5]
  4: 0x0394 [0x53] WAIT_SCHEDULER_TASK: Wait for scheduler "sha1" with entities [EventEntity, EventEntity]
  5: 0x03A1 [0x4A] LocalPlayer looks at Monster2 (ID: 17863429/0x01109305)
  6: 0x03AA [0x6F] WAIT_FRAME_DELAY: Yield until WaitTime reaches zero
  7: 0x03AB [0x70] WAIT_ENTITY_RENDER_FLAG: Wait while EventEntity->Render.Flags3 bit 2 is set (cancel turn if not)
  8: 0x03AC [0x6E] EventEntity uses emote 21*
  9: 0x03B3 [0x99] Wait for EventEntity animation to complete
 10: 0x03B8 [0x1C] WAIT(200* ticks)
 11: 0x03BB [0x00] END_REQSTACK()
```
