# Event 65535

## Metadata

| Field           | Value    |
|-----------------|----------|
| Event Index     | 34/40    |
| Offset          | 0x032A   |
| Data Size       | 74 bytes |
| Calculated Size | 74 bytes |
| Instructions    | 13       |

```
      00 01 02 03 04 05 06 07  08 09 0A 0B 0C 0D 0E 0F
      -- -- -- -- -- -- -- --  -- -- -- -- -- -- -- --
0320:                                33 00 37 47 80 48            3.7G.H
0330: 80 49 80 4A 80 03 04 00  07 7F 1A 18 04 66 05 00  .I.J.........f..
0340: F8 FF FF 7F F8 FF FF 7F  73 68 61 31 53 F8 FF FF  ........sha1S...
0350: 7F F8 FF FF 7F 73 68 61  31 4A F0 FF FF 7F 05 93  .....sha1J......
0360: 10 01 6F 70 6E F8 FF FF  7F 15 80 99 F8 FF FF 7F  ..opn...........
0370: 1C 03 80 00                                       ....            
```

## Opcodes

```
  0: 0x032A [0x33] EventEntity->Render.Flags0 &= ~ 0x200000 // Bit 21 (flag=0x00)
  1: 0x032C [0x37] UPDATE_EVENT_POSITION_AND_DIR: x=-50.101*, z=171.593*, y=1.602*, direction=300.2°*
  2: 0x0335 [0x03] ExtData[1]->WorkLocal[4] = Entity->Race
  3: 0x033A [0x1A] CALL_SUBROUTINE(address=0x0418)
  4: 0x033D [0x66] LOAD_EXT_SCHEDULER_MAIN: Load scheduler "sha1" with entities [EventEntity, EventEntity], work=ExtData[1]->WorkLocal[5]
  5: 0x034C [0x53] WAIT_SCHEDULER_TASK: Wait for scheduler "sha1" with entities [EventEntity, EventEntity]
  6: 0x0359 [0x4A] LocalPlayer looks at Monster2 (ID: 17863429/0x01109305)
  7: 0x0362 [0x6F] WAIT_FRAME_DELAY: Yield until WaitTime reaches zero
  8: 0x0363 [0x70] WAIT_ENTITY_RENDER_FLAG: Wait while EventEntity->Render.Flags3 bit 2 is set (cancel turn if not)
  9: 0x0364 [0x6E] EventEntity uses emote 21*
 10: 0x036B [0x99] Wait for EventEntity animation to complete
 11: 0x0370 [0x1C] WAIT(200* ticks)
 12: 0x0373 [0x00] END_REQSTACK()
```
