# Event 65535

## Metadata

| Field           | Value    |
|-----------------|----------|
| Event Index     | 18/20    |
| Offset          | 0x00C7   |
| Data Size       | 50 bytes |
| Calculated Size | 50 bytes |
| Instructions    | 9        |

```
      00 01 02 03 04 05 06 07  08 09 0A 0B 0C 0D 0E 0F
      -- -- -- -- -- -- -- --  -- -- -- -- -- -- -- --
00C0:                      32  0E 80 1F 00 0F 80 10 80         2........
00D0: 11 80 1F 01 4A 09 A0 11  01 0A A0 11 01 1C 0E 80  ....J...........
00E0: 2A 05 F0 FF FF 7F 5B 12  80 09 A0 11 01 09 A0 11  *.....[.........
00F0: 01 73 69 74 30 1C 13 80  00                       .sit0....       
```

## Opcodes

```
  0: 0x00C7 [0x32] ExtData[1]->MainSpeed = 30* * 0.1
  1: 0x00CA [0x1F] MOVE_ENTITY: EventEntity moves to X=298.676*, Z=-8.857*, Y=-6.065*
  2: 0x00D2 [0x1F] MOVE_ENTITY: Update entity position (mode=1)
  3: 0x00D4 [0x4A] Unnamed NPC (ID: 17932297/0x0111A009) looks at Unnamed NPC (ID: 17932298/0x0111A00A)
  4: 0x00DD [0x1C] WAIT(30* ticks)
  5: 0x00E0 [0x2A] GET_REQ_LEVEL(level=5, entity_id=LocalPlayer)
  6: 0x00E6 [0x5B] LOAD_EXT_SCHEDULER: Load scheduler "sit0" with entities [Unnamed NPC (ID: 17932297/0x0111A009), Unnamed NPC (ID: 17932297/0x0111A009)], work=3389*
  7: 0x00F5 [0x1C] WAIT(160* ticks)
  8: 0x00F8 [0x00] END_REQSTACK()
```
