# Event 65535

## Metadata

| Field           | Value    |
|-----------------|----------|
| Event Index     | 27/30    |
| Offset          | 0x04A9   |
| Data Size       | 59 bytes |
| Calculated Size | 59 bytes |
| Instructions    | 7        |

```
      00 01 02 03 04 05 06 07  08 09 0A 0B 0C 0D 0E 0F
      -- -- -- -- -- -- -- --  -- -- -- -- -- -- -- --
04A0:                             1C 01 80 BB 15 80 13           .......
04B0: 23 06 01 13 23 06 01 73  30 30 31 00 80 1C 02 80  #...#..s001.....
04C0: 5B 16 80 11 23 06 01 11  23 06 01 64 72 61 32 1C  [...#...#..dra2.
04D0: 07 80 BB 15 80 12 23 06  01 12 23 06 01 73 30 30  ......#...#..s00
04E0: 30 00 80 00                                       0...            
```

## Opcodes

```
  0: 0x04A9 [0x1C] WAIT(120* ticks)
  1: 0x04AC [0xBB] LOAD_EVENT_SCHEDULER_ALT: Load scheduler "s001" with entities [gian03 (ID: 17179411/0x01062313), gian03 (ID: 17179411/0x01062313)], work=[249*, 0*]
  2: 0x04BD [0x1C] WAIT(30* ticks)
  3: 0x04C0 [0x5B] LOAD_EXT_SCHEDULER: Load scheduler "dra2" with entities [gian01 (ID: 17179409/0x01062311), gian01 (ID: 17179409/0x01062311)], work=1453*
  4: 0x04CF [0x1C] WAIT(45* ticks)
  5: 0x04D2 [0xBB] LOAD_EVENT_SCHEDULER_ALT: Load scheduler "s000" with entities [gian02 (ID: 17179410/0x01062312), gian02 (ID: 17179410/0x01062312)], work=[249*, 0*]
  6: 0x04E3 [0x00] END_REQSTACK()
```
