# Event 65535

## Metadata

| Field           | Value    |
|-----------------|----------|
| Event Index     | 28/30    |
| Offset          | 0x04E4   |
| Data Size       | 70 bytes |
| Calculated Size | 70 bytes |
| Instructions    | 8        |

```
      00 01 02 03 04 05 06 07  08 09 0A 0B 0C 0D 0E 0F
      -- -- -- -- -- -- -- --  -- -- -- -- -- -- -- --
04E0:             5B 0F 80 06  23 06 01 06 23 06 01 6C      [...#...#..l
04F0: 62 74 30 1C 09 80 5B 0F  80 07 23 06 01 07 23 06  bt0...[...#...#.
0500: 01 6C 62 74 30 1C 11 80  5B 0F 80 08 23 06 01 08  .lbt0...[...#...
0510: 23 06 01 6C 62 74 30 1C  0B 80 5B 0F 80 09 23 06  #..lbt0...[...#.
0520: 01 09 23 06 01 6C 62 74  30 00                    ..#..lbt0.      
```

## Opcodes

```
  0: 0x04E4 [0x5B] LOAD_EXT_SCHEDULER(work_offset=1329*, entity1=01 (ID: 17179398/0x01062306), entity2=01 (ID: 17179398/0x01062306), action="lbt0")
  1: 0x04F3 [0x1C] WAIT(2* ticks)
  2: 0x04F6 [0x5B] LOAD_EXT_SCHEDULER(work_offset=1329*, entity1=02 (ID: 17179399/0x01062307), entity2=02 (ID: 17179399/0x01062307), action="lbt0")
  3: 0x0505 [0x1C] WAIT(1* ticks)
  4: 0x0508 [0x5B] LOAD_EXT_SCHEDULER(work_offset=1329*, entity1=03 (ID: 17179400/0x01062308), entity2=03 (ID: 17179400/0x01062308), action="lbt0")
  5: 0x0517 [0x1C] WAIT(3* ticks)
  6: 0x051A [0x5B] LOAD_EXT_SCHEDULER(work_offset=1329*, entity1=04 (ID: 17179401/0x01062309), entity2=04 (ID: 17179401/0x01062309), action="lbt0")
  7: 0x0529 [0x00] END_REQSTACK()
```
