# Event 65535

## Metadata

| Field           | Value    |
|-----------------|----------|
| Event Index     | 28/30    |
| Offset          | 0x04E4   |
| Data Size       | 70 bytes |
| Calculated Size | 70 bytes |
| Instructions    | 8        |

```
      00 01 02 03 04 05 06 07  08 09 0A 0B 0C 0D 0E 0F
      -- -- -- -- -- -- -- --  -- -- -- -- -- -- -- --
04E0:             5B 0F 80 06  23 06 01 06 23 06 01 6C      [...#...#..l
04F0: 62 74 30 1C 09 80 5B 0F  80 07 23 06 01 07 23 06  bt0...[...#...#.
0500: 01 6C 62 74 30 1C 11 80  5B 0F 80 08 23 06 01 08  .lbt0...[...#...
0510: 23 06 01 6C 62 74 30 1C  0B 80 5B 0F 80 09 23 06  #..lbt0...[...#.
0520: 01 09 23 06 01 6C 62 74  30 00                    ..#..lbt0.      
```

## Opcodes

```
  0: 0x04E4 [0x5B] LOAD_EXT_SCHEDULER: Load scheduler "lbt0" with entities [01 (ID: 17179398/0x01062306), 01 (ID: 17179398/0x01062306)], work=1329*
  1: 0x04F3 [0x1C] WAIT(2* ticks)
  2: 0x04F6 [0x5B] LOAD_EXT_SCHEDULER: Load scheduler "lbt0" with entities [02 (ID: 17179399/0x01062307), 02 (ID: 17179399/0x01062307)], work=1329*
  3: 0x0505 [0x1C] WAIT(1* ticks)
  4: 0x0508 [0x5B] LOAD_EXT_SCHEDULER: Load scheduler "lbt0" with entities [03 (ID: 17179400/0x01062308), 03 (ID: 17179400/0x01062308)], work=1329*
  5: 0x0517 [0x1C] WAIT(3* ticks)
  6: 0x051A [0x5B] LOAD_EXT_SCHEDULER: Load scheduler "lbt0" with entities [04 (ID: 17179401/0x01062309), 04 (ID: 17179401/0x01062309)], work=1329*
  7: 0x0529 [0x00] END_REQSTACK()
```
