# Event 65535

## Metadata

| Field           | Value    |
|-----------------|----------|
| Event Index     | 15/30    |
| Offset          | 0x014D   |
| Data Size       | 78 bytes |
| Calculated Size | 78 bytes |
| Instructions    | 8        |

```
      00 01 02 03 04 05 06 07  08 09 0A 0B 0C 0D 0E 0F
      -- -- -- -- -- -- -- --  -- -- -- -- -- -- -- --
0140:                                         C5 09 80               ...
0150: 19 23 06 01 19 23 06 01  73 74 30 30 00 80 1C 05  .#...#..st00....
0160: 80 C5 09 80 16 23 06 01  16 23 06 01 73 74 30 30  .....#...#..st00
0170: 00 80 1C 0B 80 C5 09 80  18 23 06 01 18 23 06 01  .........#...#..
0180: 73 74 30 31 00 80 1C 0C  80 C5 09 80 17 23 06 01  st01.........#..
0190: 17 23 06 01 73 74 30 30  00 80 00                 .#..st00...     
```

## Opcodes

```
  0: 0x014D [0xC5] LOAD_SCHEDULED_TASK_ALT3: Load scheduler 0x80003030 for entities [Danmaku04 (ID: 17179417/0x01062319), Danmaku04 (ID: 17179417/0x01062319)], work=2*, param=29811
  1: 0x015E [0x1C] WAIT(15* ticks)
  2: 0x0161 [0xC5] LOAD_SCHEDULED_TASK_ALT3: Load scheduler 0x80003030 for entities [Danmaku01 (ID: 17179414/0x01062316), Danmaku01 (ID: 17179414/0x01062316)], work=2*, param=29811
  3: 0x0172 [0x1C] WAIT(3* ticks)
  4: 0x0175 [0xC5] LOAD_SCHEDULED_TASK_ALT3: Load scheduler 0x80003130 for entities [Danmaku03 (ID: 17179416/0x01062318), Danmaku03 (ID: 17179416/0x01062318)], work=2*, param=29811
  5: 0x0186 [0x1C] WAIT(5* ticks)
  6: 0x0189 [0xC5] LOAD_SCHEDULED_TASK_ALT3: Load scheduler 0x80003030 for entities [Danmaku02 (ID: 17179415/0x01062317), Danmaku02 (ID: 17179415/0x01062317)], work=2*, param=29811
  7: 0x019A [0x00] END_REQSTACK()
```
