# Event 65535

## Metadata

| Field           | Value    |
|-----------------|----------|
| Event Index     | 19/30    |
| Offset          | 0x029A   |
| Data Size       | 71 bytes |
| Calculated Size | 71 bytes |
| Instructions    | 7        |

```
      00 01 02 03 04 05 06 07  08 09 0A 0B 0C 0D 0E 0F
      -- -- -- -- -- -- -- --  -- -- -- -- -- -- -- --
0290:                                1C 02 80 5B 06 80            ...[..
02A0: 04 23 06 01 04 23 06 01  68 69 72 32 C5 09 80 04  .#...#..hir2....
02B0: 23 06 01 04 23 06 01 73  63 30 30 00 80 1C 05 80  #...#..sc00.....
02C0: 5B 06 80 0A 23 06 01 0A  23 06 01 68 69 72 32 C5  [...#...#..hir2.
02D0: 09 80 0A 23 06 01 0A 23  06 01 73 63 30 30 00 80  ...#...#..sc00..
02E0: 00                                                .               
```

## Opcodes

```
  0: 0x029A [0x1C] WAIT(30* ticks)
  1: 0x029D [0x5B] LOAD_EXT_SCHEDULER: Load scheduler "hir2" with entities [Nzha Abaleenah (ID: 17179396/0x01062304), Nzha Abaleenah (ID: 17179396/0x01062304)], work=2062*
  2: 0x02AC [0xC5] LOAD_SCHEDULED_TASK_ALT3: Load scheduler 0x80003030 for entities [Nzha Abaleenah (ID: 17179396/0x01062304), Nzha Abaleenah (ID: 17179396/0x01062304)], work=2*, param=25459
  3: 0x02BD [0x1C] WAIT(15* ticks)
  4: 0x02C0 [0x5B] LOAD_EXT_SCHEDULER: Load scheduler "hir2" with entities [05 (ID: 17179402/0x0106230A), 05 (ID: 17179402/0x0106230A)], work=2062*
  5: 0x02CF [0xC5] LOAD_SCHEDULED_TASK_ALT3: Load scheduler 0x80003030 for entities [05 (ID: 17179402/0x0106230A), 05 (ID: 17179402/0x0106230A)], work=2*, param=25459
  6: 0x02E0 [0x00] END_REQSTACK()
```
