# Event 65535

## Metadata

| Field           | Value    |
|-----------------|----------|
| Event Index     | 10/30    |
| Offset          | 0x0023   |
| Data Size       | 76 bytes |
| Calculated Size | 76 bytes |
| Instructions    | 6        |

```
      00 01 02 03 04 05 06 07  08 09 0A 0B 0C 0D 0E 0F
      -- -- -- -- -- -- -- --  -- -- -- -- -- -- -- --
0020:          5B 03 80 06 23  06 01 06 23 06 01 69 72     [...#...#..ir
0030: 6F 30 5B 03 80 07 23 06  01 07 23 06 01 69 72 6F  o0[...#...#..iro
0040: 30 5B 03 80 08 23 06 01  08 23 06 01 69 72 6F 30  0[...#...#..iro0
0050: 5B 03 80 09 23 06 01 09  23 06 01 69 72 6F 30 5B  [...#...#..iro0[
0060: 03 80 C2 22 06 01 C2 22  06 01 69 72 6F 30 00     ..."..."..iro0. 
```

## Opcodes

```
  0: 0x0023 [0x5B] LOAD_EXT_SCHEDULER: Load scheduler "iro0" with entities [01 (ID: 17179398/0x01062306), 01 (ID: 17179398/0x01062306)], work=1327*
  1: 0x0032 [0x5B] LOAD_EXT_SCHEDULER: Load scheduler "iro0" with entities [02 (ID: 17179399/0x01062307), 02 (ID: 17179399/0x01062307)], work=1327*
  2: 0x0041 [0x5B] LOAD_EXT_SCHEDULER: Load scheduler "iro0" with entities [03 (ID: 17179400/0x01062308), 03 (ID: 17179400/0x01062308)], work=1327*
  3: 0x0050 [0x5B] LOAD_EXT_SCHEDULER: Load scheduler "iro0" with entities [04 (ID: 17179401/0x01062309), 04 (ID: 17179401/0x01062309)], work=1327*
  4: 0x005F [0x5B] LOAD_EXT_SCHEDULER: Load scheduler "iro0" with entities [Mham Lahrih (ID: 17179330/0x010622C2), Mham Lahrih (ID: 17179330/0x010622C2)], work=1327*
  5: 0x006E [0x00] END_REQSTACK()
```
