# Event 65535

## Metadata

| Field           | Value    |
|-----------------|----------|
| Event Index     | 16/30    |
| Offset          | 0x019B   |
| Data Size       | 61 bytes |
| Calculated Size | 61 bytes |
| Instructions    | 7        |

```
      00 01 02 03 04 05 06 07  08 09 0A 0B 0C 0D 0E 0F
      -- -- -- -- -- -- -- --  -- -- -- -- -- -- -- --
0190:                                   1C 0C 80 C5 09             .....
01A0: 80 16 23 06 01 16 23 06  01 73 74 30 30 00 80 1C  ..#...#..st00...
01B0: 09 80 C5 09 80 18 23 06  01 18 23 06 01 73 74 30  ......#...#..st0
01C0: 30 00 80 1C 0D 80 C5 09  80 17 23 06 01 17 23 06  0.........#...#.
01D0: 01 73 74 30 31 00 80 00                           .st01...        
```

## Opcodes

```
  0: 0x019B [0x1C] WAIT(5* ticks)
  1: 0x019E [0xC5] LOAD_SCHEDULED_TASK_ALT3: Load scheduler 0x80003030 for entities [Danmaku01 (ID: 17179414/0x01062316), Danmaku01 (ID: 17179414/0x01062316)], work=2*, param=29811
  2: 0x01AF [0x1C] WAIT(2* ticks)
  3: 0x01B2 [0xC5] LOAD_SCHEDULED_TASK_ALT3: Load scheduler 0x80003030 for entities [Danmaku03 (ID: 17179416/0x01062318), Danmaku03 (ID: 17179416/0x01062318)], work=2*, param=29811
  4: 0x01C3 [0x1C] WAIT(20* ticks)
  5: 0x01C6 [0xC5] LOAD_SCHEDULED_TASK_ALT3: Load scheduler 0x80003130 for entities [Danmaku02 (ID: 17179415/0x01062317), Danmaku02 (ID: 17179415/0x01062317)], work=2*, param=29811
  6: 0x01D7 [0x00] END_REQSTACK()
```
