# Event 65535

## Metadata

| Field           | Value    |
|-----------------|----------|
| Event Index     | 12/30    |
| Offset          | 0x0079   |
| Data Size       | 73 bytes |
| Calculated Size | 73 bytes |
| Instructions    | 9        |

```
      00 01 02 03 04 05 06 07  08 09 0A 0B 0C 0D 0E 0F
      -- -- -- -- -- -- -- --  -- -- -- -- -- -- -- --
0070:                             1C 02 80 5B 06 80 03           ...[...
0080: 23 06 01 03 23 06 01 68  69 72 31 1C 07 80 5B 06  #...#..hir1...[.
0090: 80 04 23 06 01 04 23 06  01 68 69 72 31 1C 05 80  ..#...#..hir1...
00A0: 5B 06 80 0A 23 06 01 0A  23 06 01 68 69 72 31 1C  [...#...#..hir1.
00B0: 08 80 5B 06 80 0B 23 06  01 0B 23 06 01 68 69 72  ..[...#...#..hir
00C0: 31 00                                             1.              
```

## Opcodes

```
  0: 0x0079 [0x1C] WAIT(30* ticks)
  1: 0x007C [0x5B] LOAD_EXT_SCHEDULER(work_offset=2062*, entity1=Naho Gwanboh (ID: 17179395/0x01062303), entity2=Naho Gwanboh (ID: 17179395/0x01062303), action="hir1")
  2: 0x008B [0x1C] WAIT(45* ticks)
  3: 0x008E [0x5B] LOAD_EXT_SCHEDULER(work_offset=2062*, entity1=Nzha Abaleenah (ID: 17179396/0x01062304), entity2=Nzha Abaleenah (ID: 17179396/0x01062304), action="hir1")
  4: 0x009D [0x1C] WAIT(15* ticks)
  5: 0x00A0 [0x5B] LOAD_EXT_SCHEDULER(work_offset=2062*, entity1=05 (ID: 17179402/0x0106230A), entity2=05 (ID: 17179402/0x0106230A), action="hir1")
  6: 0x00AF [0x1C] WAIT(10* ticks)
  7: 0x00B2 [0x5B] LOAD_EXT_SCHEDULER(work_offset=2062*, entity1=06 (ID: 17179403/0x0106230B), entity2=06 (ID: 17179403/0x0106230B), action="hir1")
  8: 0x00C1 [0x00] END_REQSTACK()
```
