# Event 65535

## Metadata

| Field           | Value    |
|-----------------|----------|
| Event Index     | 17/30    |
| Offset          | 0x01D8   |
| Data Size       | 70 bytes |
| Calculated Size | 70 bytes |
| Instructions    | 8        |

```
      00 01 02 03 04 05 06 07  08 09 0A 0B 0C 0D 0E 0F
      -- -- -- -- -- -- -- --  -- -- -- -- -- -- -- --
01D0:                          5B 06 80 04 23 06 01 04          [...#...
01E0: 23 06 01 68 69 72 33 1C  0E 80 5B 06 80 0A 23 06  #..hir3...[...#.
01F0: 01 0A 23 06 01 68 69 72  33 1C 08 80 5B 06 80 0B  ..#..hir3...[...
0200: 23 06 01 0B 23 06 01 68  69 72 33 1C 0C 80 5B 06  #...#..hir3...[.
0210: 80 03 23 06 01 03 23 06  01 68 69 72 33 00        ..#...#..hir3.  
```

## Opcodes

```
  0: 0x01D8 [0x5B] LOAD_EXT_SCHEDULER: Load scheduler "hir3" with entities [Nzha Abaleenah (ID: 17179396/0x01062304), Nzha Abaleenah (ID: 17179396/0x01062304)], work=2062*
  1: 0x01E7 [0x1C] WAIT(7* ticks)
  2: 0x01EA [0x5B] LOAD_EXT_SCHEDULER: Load scheduler "hir3" with entities [05 (ID: 17179402/0x0106230A), 05 (ID: 17179402/0x0106230A)], work=2062*
  3: 0x01F9 [0x1C] WAIT(10* ticks)
  4: 0x01FC [0x5B] LOAD_EXT_SCHEDULER: Load scheduler "hir3" with entities [06 (ID: 17179403/0x0106230B), 06 (ID: 17179403/0x0106230B)], work=2062*
  5: 0x020B [0x1C] WAIT(5* ticks)
  6: 0x020E [0x5B] LOAD_EXT_SCHEDULER: Load scheduler "hir3" with entities [Naho Gwanboh (ID: 17179395/0x01062303), Naho Gwanboh (ID: 17179395/0x01062303)], work=2062*
  7: 0x021D [0x00] END_REQSTACK()
```
