# Event 65535

## Metadata

| Field           | Value    |
|-----------------|----------|
| Event Index     | 11/12    |
| Offset          | 0x004F   |
| Data Size       | 40 bytes |
| Calculated Size | 40 bytes |
| Instructions    | 10       |

```
      00 01 02 03 04 05 06 07  08 09 0A 0B 0C 0D 0E 0F
      -- -- -- -- -- -- -- --  -- -- -- -- -- -- -- --
0040:                                               32                 2
0050: 07 80 1F 00 08 80 09 80  05 80 1F 01 1F 00 0A 80  ................
0060: 0B 80 05 80 1F 01 6F 4A  F8 FF FF 7F F0 FF FF 7F  ......oJ........
0070: 6F 76 F8 FF FF 7F 00                              ov.....         
```

## Opcodes

```
  0: 0x004F [0x32] ExtData[1]->MainSpeed = 42* * 0.1
  1: 0x0052 [0x1F] MOVE_ENTITY: EventEntity moves to X=-296.120*, Z=102.925*, Y=-9.199*
  2: 0x005A [0x1F] MOVE_ENTITY: Update entity position (mode=1)
  3: 0x005C [0x1F] MOVE_ENTITY: EventEntity moves to X=-298.018*, Z=100.433*, Y=-9.199*
  4: 0x0064 [0x1F] MOVE_ENTITY: Update entity position (mode=1)
  5: 0x0066 [0x6F] WAIT_FRAME_DELAY: Yield until WaitTime reaches zero
  6: 0x0067 [0x4A] EventEntity looks at LocalPlayer
  7: 0x0070 [0x6F] WAIT_FRAME_DELAY: Yield until WaitTime reaches zero
  8: 0x0071 [0x76] CHECK_ENTITY_RENDER_FLAGS: Wait until EventEntity Render.Flags0 and Render.Flags3 conditions are met
  9: 0x0076 [0x00] END_REQSTACK()
```
