# Event 65535

## Metadata

| Field           | Value    |
|-----------------|----------|
| Event Index     | 12/12    |
| Offset          | 0x0077   |
| Data Size       | 70 bytes |
| Calculated Size | 70 bytes |
| Instructions    | 14       |

```
      00 01 02 03 04 05 06 07  08 09 0A 0B 0C 0D 0E 0F
      -- -- -- -- -- -- -- --  -- -- -- -- -- -- -- --
0070:                      32  0C 80 1F 00 0D 80 0E 80         2........
0080: 05 80 1F 01 1F 00 0F 80  10 80 11 80 1F 01 1F 00  ................
0090: 12 80 13 80 05 80 1F 01  27 10 93 60 0E 01 02 4A  ........'..`...J
00A0: F0 FF FF 7F F8 FF FF 7F  1F 00 14 80 15 80 16 80  ................
00B0: 1F 01 1F 00 17 80 18 80  19 80 1F 01 00           .............   
```

## Opcodes

```
  0: 0x0077 [0x32] ExtData[1]->MainSpeed = 40* * 0.1
  1: 0x007A [0x1F] MOVE_ENTITY: EventEntity moves to X=-296.517*, Z=102.542*, Y=-9.199*
  2: 0x0082 [0x1F] MOVE_ENTITY: Update entity position (mode=1)
  3: 0x0084 [0x1F] MOVE_ENTITY: EventEntity moves to X=-293.396*, Z=102.999*, Y=-9.220*
  4: 0x008C [0x1F] MOVE_ENTITY: Update entity position (mode=1)
  5: 0x008E [0x1F] MOVE_ENTITY: EventEntity moves to X=-291.879*, Z=99.294*, Y=-9.199*
  6: 0x0096 [0x1F] MOVE_ENTITY: Update entity position (mode=1)
  7: 0x0098 [0x27] REQ_SET(priority=0x10, entity_id=Door:Count's Manor (ID: 17719443/0x010E6093), tag_num=0x02)
  8: 0x009F [0x4A] LocalPlayer looks at EventEntity
  9: 0x00A8 [0x1F] MOVE_ENTITY: EventEntity moves to X=-290.333*, Z=98.032*, Y=-9.210*
 10: 0x00B0 [0x1F] MOVE_ENTITY: Update entity position (mode=1)
 11: 0x00B2 [0x1F] MOVE_ENTITY: EventEntity moves to X=-280.761*, Z=98.031*, Y=-6.199*
 12: 0x00BA [0x1F] MOVE_ENTITY: Update entity position (mode=1)
 13: 0x00BC [0x00] END_REQSTACK()
```
