# Event 65535

## Metadata

| Field           | Value    |
|-----------------|----------|
| Event Index     | 6/12     |
| Offset          | 0x000E   |
| Data Size       | 81 bytes |
| Calculated Size | 81 bytes |
| Instructions    | 11       |

```
      00 01 02 03 04 05 06 07  08 09 0A 0B 0C 0D 0E 0F
      -- -- -- -- -- -- -- --  -- -- -- -- -- -- -- --
0000:                                            1C 01                ..
0010: 80 4A 23 40 0F 01 21 40  0F 01 1C 01 80 4A 20 40  .J#@..!@.....J @
0020: 0F 01 21 40 0F 01 1C 01  80 45 02 80 F0 FF FF 7F  ..!@.....E......
0030: F0 FF FF 7F 63 6D 63 32  03 80 55 02 80 F0 FF FF  ....cmc2..U.....
0040: 7F F0 FF FF 7F 63 6D 63  32 4A 22 40 0F 01 21 40  .....cmc2J"@..!@
0050: 0F 01 1C 01 80 4A F0 FF  FF 7F 21 40 0F 01 00     .....J....!@... 
```

## Opcodes

```
  0: 0x000E [0x1C] WAIT(15* ticks)
  1: 0x0011 [0x4A] Verena (ID: 17776675/0x010F4023) looks at Geebeh (ID: 17776673/0x010F4021)
  2: 0x001A [0x1C] WAIT(15* ticks)
  3: 0x001D [0x4A] Paya-Sabya (ID: 17776672/0x010F4020) looks at Geebeh (ID: 17776673/0x010F4021)
  4: 0x0026 [0x1C] WAIT(15* ticks)
  5: 0x0029 [0x45] LOAD_SCHEDULED_TASK: Load scheduler "cmc2" with entities [LocalPlayer, LocalPlayer], work=[144*, 0*]
  6: 0x003A [0x55] WAIT_LOAD_SCHEDULER: Wait for scheduler "cmc2" with entities [LocalPlayer, LocalPlayer], work=144*
  7: 0x0049 [0x4A] Fickblix (ID: 17776674/0x010F4022) looks at Geebeh (ID: 17776673/0x010F4021)
  8: 0x0052 [0x1C] WAIT(15* ticks)
  9: 0x0055 [0x4A] LocalPlayer looks at Geebeh (ID: 17776673/0x010F4021)
 10: 0x005E [0x00] END_REQSTACK()
```
