# Event 65535

## Metadata

| Field           | Value    |
|-----------------|----------|
| Event Index     | 6/13     |
| Offset          | 0x0066   |
| Data Size       | 54 bytes |
| Calculated Size | 54 bytes |
| Instructions    | 9        |

```
      00 01 02 03 04 05 06 07  08 09 0A 0B 0C 0D 0E 0F
      -- -- -- -- -- -- -- --  -- -- -- -- -- -- -- --
0060:                   66 0A  80 F8 FF FF 7F F8 FF FF        f.........
0070: 7F 73 68 61 31 53 F8 FF  FF 7F F8 FF FF 7F 73 68  .sha1S........sh
0080: 61 31 32 04 80 1F 00 0B  80 0C 80 02 80 1F 01 1F  a12.............
0090: 00 0D 80 0E 80 02 80 1F  01 22 01 00              ........."..    
```

## Opcodes

```
  0: 0x0066 [0x66] LOAD_EXT_SCHEDULER_MAIN(work_offset=29*, entity1=EventEntity, entity2=EventEntity, action="sha1")
  1: 0x0075 [0x53] WAIT_SCHEDULER_TASK(entity1=EventEntity, entity2=EventEntity, action_id="sha1")
  2: 0x0082 [0x32] ExtData[1]->MainSpeed = 40* * 0.1
  3: 0x0085 [0x1F] MOVE_ENTITY: EventEntity moves to X=126.296*, Z=116.909*, Y=0.000*
  4: 0x008D [0x1F] MOVE_ENTITY: Update entity position (mode=1)
  5: 0x008F [0x1F] MOVE_ENTITY: EventEntity moves to X=102.771*, Z=95.174*, Y=0.000*
  6: 0x0097 [0x1F] MOVE_ENTITY: Update entity position (mode=1)
  7: 0x0099 [0x22] ENTITY_HIDE_FLAG(enabled=0x01)
  8: 0x009B [0x00] END_REQSTACK()
```
