# Event 65535

## Metadata

| Field           | Value    |
|-----------------|----------|
| Event Index     | 27/27    |
| Offset          | 0x01EE   |
| Data Size       | 73 bytes |
| Calculated Size | 73 bytes |
| Instructions    | 9        |

```
      00 01 02 03 04 05 06 07  08 09 0A 0B 0C 0D 0E 0F
      -- -- -- -- -- -- -- --  -- -- -- -- -- -- -- --
01E0:                                            5B 1C                [.
01F0: 80 F8 FF FF 7F F8 FF FF  7F 6E 6B 62 30 1C 20 80  .........nkb0. .
0200: 5B 1C 80 F8 FF FF 7F F8  FF FF 7F 6E 6B 62 31 1C  [..........nkb1.
0210: 1D 80 5B 1C 80 F8 FF FF  7F F8 FF FF 7F 6E 6B 62  ..[..........nkb
0220: 32 1C 1E 80 5B 1C 80 F8  FF FF 7F F8 FF FF 7F 6E  2...[..........n
0230: 6B 62 33 1C 21 80 00                              kb3.!..         
```

## Opcodes

```
  0: 0x01EE [0x5B] LOAD_EXT_SCHEDULER(work_offset=2650*, entity1=EventEntity, entity2=EventEntity, action="nkb0")
  1: 0x01FD [0x1C] WAIT(15* ticks)
  2: 0x0200 [0x5B] LOAD_EXT_SCHEDULER(work_offset=2650*, entity1=EventEntity, entity2=EventEntity, action="nkb1")
  3: 0x020F [0x1C] WAIT(203* ticks)
  4: 0x0212 [0x5B] LOAD_EXT_SCHEDULER(work_offset=2650*, entity1=EventEntity, entity2=EventEntity, action="nkb2")
  5: 0x0221 [0x1C] WAIT(416* ticks)
  6: 0x0224 [0x5B] LOAD_EXT_SCHEDULER(work_offset=2650*, entity1=EventEntity, entity2=EventEntity, action="nkb3")
  7: 0x0233 [0x1C] WAIT(352* ticks)
  8: 0x0236 [0x00] END_REQSTACK()
```
