# 16962102 - Ada

## Common Data

| Field            | Value                       |
|------------------|-----------------------------|
| Zone             | Abyssea - Tahrongi (ID: 45) |
| Block Size       | 84 bytes                    |
| Total Events     | 2                           |
| References Count | 3                           |

## List of Events

| Event ID              | Entrypoint   |   Size |   Instructions |
|-----------------------|--------------|--------|----------------|
| [65535](#event-65535) | 0x0000       |      1 |              1 |
| [409](#event-409)     | 0x0001       |     47 |             11 |

## DAT References (imed_data)

|   Index | Hex Value   |   Dec Value |
|---------|-------------|-------------|
|       0 | 0x0013      |          19 |
|       1 | 0x1FC8      |        8136 |
|       2 | 0x1FC9      |        8137 |

## String References

- **8136**: I was separated from my colleagues at the consulate when the teleportation spell went awry.
- **8137**: Do you suppose they found their way home to Bastok? I do hope everyone's safe and sound...

## Events

### Event 65535

#### Metadata

| Field        | Value   |
|--------------|---------|
| Entrypoint   | 0x0000  |
| Data Size    | 1 bytes |
| Instructions | 1       |

```
      00 01 02 03 04 05 06 07  08 09 0A 0B 0C 0D 0E 0F
      -- -- -- -- -- -- -- --  -- -- -- -- -- -- -- --
0000: 00                                                .               
```

#### Opcodes

```
  0: 0x0000 [0x00] END_REQSTACK()
```

### Event 409

#### Metadata

| Field        | Value    |
|--------------|----------|
| Entrypoint   | 0x0001   |
| Data Size    | 47 bytes |
| Instructions | 11       |

```
      00 01 02 03 04 05 06 07  08 09 0A 0B 0C 0D 0E 0F
      -- -- -- -- -- -- -- --  -- -- -- -- -- -- -- --
0000:    1E F0 FF FF 7F 6F 70  66 00 80 F8 FF FF 7F F8   .....opf.......
0010: FF FF 7F 74 6C 6B 30 1D  01 80 23 66 00 80 F8 FF  ...tlk0...#f....
0020: FF 7F F8 FF FF 7F 74 68  6B 31 1D 02 80 23 21 00  ......thk1...#!.
```

#### Opcodes

```
  0: 0x0001 [0x1E] EventEntity looks at LocalPlayer and starts talking
  1: 0x0006 [0x6F] WAIT_FRAME_DELAY: Yield until WaitTime reaches zero
  2: 0x0007 [0x70] WAIT_ENTITY_RENDER_FLAG: Wait while EventEntity->Render.Flags3 bit 2 is set (cancel turn if not)
  3: 0x0008 [0x66] LOAD_EXT_SCHEDULER_MAIN: Load scheduler "tlk0" with entities [EventEntity, EventEntity], work=19*
  4: 0x0017 [0x1D] PRINT_EVENT_MESSAGE(message_id=8136*)
    → "I was separated from my colleagues at the consulate when the teleportation spell went awry."
  5: 0x001A [0x23] WAIT_FOR_DIALOG_INTERACTION
  6: 0x001B [0x66] LOAD_EXT_SCHEDULER_MAIN: Load scheduler "thk1" with entities [EventEntity, EventEntity], work=19*
  7: 0x002A [0x1D] PRINT_EVENT_MESSAGE(message_id=8137*)
    → "Do you suppose they found their way home to Bastok? I do hope everyone's safe and sound..."
  8: 0x002D [0x23] WAIT_FOR_DIALOG_INTERACTION
  9: 0x002E [0x21] END_EVENT
 10: 0x002F [0x00] END_REQSTACK()
```
