# 16962108 - Fuepepe

## Common Data

| Field            | Value                       |
|------------------|-----------------------------|
| Zone             | Abyssea - Tahrongi (ID: 45) |
| Block Size       | 88 bytes                    |
| Total Events     | 2                           |
| References Count | 4                           |

## List of Events

| Event ID              | Entrypoint   |   Size |   Instructions |
|-----------------------|--------------|--------|----------------|
| [65535](#event-65535) | 0x0000       |      1 |              1 |
| [413](#event-413)     | 0x0001       |     47 |             15 |

## DAT References (imed_data)

|   Index | Hex Value   |   Dec Value |
|---------|-------------|-------------|
|       0 | 0x1FD2      |        8146 |
|       1 | 0x0028      |          40 |
|       2 | 0x1FD3      |        8147 |
|       3 | 0x1FD4      |        8148 |

## String References

- **8146**: Can you believe it? The Federation lamentably lost, the survivors feebly fighting for their lives, and this child hasn't a care in the whole worldwide world!
- **8147**: Furakku-Norakku! Settle down and listen up, I say!
- **8148**: You learned how to fillingly fuel a martello, did you not? Now you must practice! We must be readily ready for when the fiends return!

## Events

### Event 65535

#### Metadata

| Field        | Value   |
|--------------|---------|
| Entrypoint   | 0x0000  |
| Data Size    | 1 bytes |
| Instructions | 1       |

```
      00 01 02 03 04 05 06 07  08 09 0A 0B 0C 0D 0E 0F
      -- -- -- -- -- -- -- --  -- -- -- -- -- -- -- --
0000: 00                                                .               
```

#### Opcodes

```
  0: 0x0000 [0x00] END_REQSTACK()
```

### Event 413

#### Metadata

| Field        | Value    |
|--------------|----------|
| Entrypoint   | 0x0001   |
| Data Size    | 47 bytes |
| Instructions | 15       |

```
      00 01 02 03 04 05 06 07  08 09 0A 0B 0C 0D 0E 0F
      -- -- -- -- -- -- -- --  -- -- -- -- -- -- -- --
0000:    1E F0 FF FF 7F 6F 70  1D 00 80 23 4A F8 FF FF   .....op...#J...
0010: 7F 3D D2 02 01 6F 70 66  01 80 F8 FF FF 7F F8 FF  .=...opf........
0020: FF 7F 74 6C 6B 30 1D 02  80 23 1D 03 80 23 21 00  ..tlk0...#...#!.
```

#### Opcodes

```
  0: 0x0001 [0x1E] EventEntity looks at LocalPlayer and starts talking
  1: 0x0006 [0x6F] WAIT_FRAME_DELAY: Yield until WaitTime reaches zero
  2: 0x0007 [0x70] WAIT_ENTITY_RENDER_FLAG: Wait while EventEntity->Render.Flags3 bit 2 is set (cancel turn if not)
  3: 0x0008 [0x1D] PRINT_EVENT_MESSAGE(message_id=8146*)
    → "Can you believe it? The Federation lamentably lost, the survivors feebly fighting for their lives, and this child hasn't a care in the whole worldwide world!"
  4: 0x000B [0x23] WAIT_FOR_DIALOG_INTERACTION
  5: 0x000C [0x4A] EventEntity looks at Furakku-Norakku (ID: 16962109/0x0102D23D)
  6: 0x0015 [0x6F] WAIT_FRAME_DELAY: Yield until WaitTime reaches zero
  7: 0x0016 [0x70] WAIT_ENTITY_RENDER_FLAG: Wait while EventEntity->Render.Flags3 bit 2 is set (cancel turn if not)
  8: 0x0017 [0x66] LOAD_EXT_SCHEDULER_MAIN: Load scheduler "tlk0" with entities [EventEntity, EventEntity], work=40*
  9: 0x0026 [0x1D] PRINT_EVENT_MESSAGE(message_id=8147*)
    → "Furakku-Norakku! Settle down and listen up, I say!"
 10: 0x0029 [0x23] WAIT_FOR_DIALOG_INTERACTION
 11: 0x002A [0x1D] PRINT_EVENT_MESSAGE(message_id=8148*)
    → "You learned how to fillingly fuel a martello, did you not? Now you must practice! We must be readily ready for when the fiends return!"
 12: 0x002D [0x23] WAIT_FOR_DIALOG_INTERACTION
 13: 0x002E [0x21] END_EVENT
 14: 0x002F [0x00] END_REQSTACK()
```
