# 16962081 - TR-02 Martello

## Common Data

| Field            | Value                       |
|------------------|-----------------------------|
| Zone             | Abyssea - Tahrongi (ID: 45) |
| Block Size       | 1104 bytes                  |
| Total Events     | 2                           |
| References Count | 24                          |

## List of Events

| Event ID              | Entrypoint   |   Size |   Instructions |
|-----------------------|--------------|--------|----------------|
| [65535](#event-65535) | 0x0000       |      1 |              1 |
| [2141](#event-2141)   | 0x0001       |    981 |            210 |

## DAT References (imed_data)

|   Index | Hex Value   |   Dec Value |
|---------|-------------|-------------|
|       0 | 0x0000      |           0 |
|       1 | 0x000F      |          15 |
|       2 | 0x001E      |          30 |
|       3 | 0x000A      |          10 |
|       4 | 0x1D99      |        7577 |
|       5 | 0x40000000  |  1073741824 |
|       6 | 0x0001      |           1 |
|       7 | 0x0005      |           5 |
|       8 | 0x0002      |           2 |
|       9 | 0x1DA2      |        7586 |
|      10 | 0x1D9A      |        7578 |
|      11 | 0x1D9B      |        7579 |
|      12 | 0x0003      |           3 |
|      13 | 0x0004      |           4 |
|      14 | 0x1D9D      |        7581 |
|      15 | 0x0BB8      |        3000 |
|      16 | 0x1D9E      |        7582 |
|      17 | 0x0006      |           6 |
|      18 | 0x1DA0      |        7584 |
|      19 | 0x0007      |           7 |
|      20 | 0x0008      |           8 |
|      21 | 0x1DA5      |        7589 |
|      22 | 0x0009      |           9 |
|      23 | 0x000B      |          11 |

## String References

- **7577**: What will you do? (Energy level: $0) [Nothing for now./Recover HP: $1./Recover MP: $2./Recover from status ailments: $3./Prepare to replenish martello./Prepare to upgrade martello./Replenish from the [east/southeast/south/southwest/west/northwest/north/northeast]./Upgrade from the [east/southeast/south/southwest/west/northwest/north/northeast]./Cease replenishing this martello./Cease upgrading this martello./Cease replenishing other martello./Cease upgrading other martello.]
- **7578**: [Recover HP/Recover MP/Recover from status ailments]? [Yes./No.]
- **7579**: The martello does not have enough energy.
- **7581**: Prepare to [replenish/upgrade] this martello? [Yes./No.]
- **7582**: This martello does not need to be [replenished/upgraded].
- **7584**: [Replenish/Upgrade] from this direction? [Yes./No.]
- **7586**: Please note that martello recast time is $0 [minute/minutes].
- **7589**: Cease [replenishing/upgrading] this martello? [Yes./No.]

## Events

### Event 65535

#### Metadata

| Field        | Value   |
|--------------|---------|
| Entrypoint   | 0x0000  |
| Data Size    | 1 bytes |
| Instructions | 1       |

```
      00 01 02 03 04 05 06 07  08 09 0A 0B 0C 0D 0E 0F
      -- -- -- -- -- -- -- --  -- -- -- -- -- -- -- --
0000: 00                                                .               
```

#### Opcodes

```
  0: 0x0000 [0x00] END_REQSTACK()
```

### Event 2141

#### Metadata

| Field        | Value     |
|--------------|-----------|
| Entrypoint   | 0x0001    |
| Data Size    | 981 bytes |
| Instructions | 210       |

```
      00 01 02 03 04 05 06 07  08 09 0A 0B 0C 0D 0E 0F
      -- -- -- -- -- -- -- --  -- -- -- -- -- -- -- --
0000:    20 01 03 00 00 00 80  03 01 00 00 80 03 02 00    ..............
0010: 00 80 03 03 00 00 80 03  04 00 00 80 03 05 00 00  ................
0020: 80 03 06 00 00 80 03 08  00 00 80 03 00 00 02 10  ................
0030: 03 01 00 03 10 03 02 00  04 10 03 03 00 05 10 03  ................
0040: 04 00 06 10 03 05 00 07  10 03 06 00 08 10 05 08  ................
0050: 00 02 08 00 00 80 02 D3  03 03 02 10 01 00 03 03  ................
0060: 10 01 80 03 04 10 02 80  03 05 10 03 80 03 06 10  ................
0070: 03 00 03 07 10 03 00 24  04 80 00 80 00 00 25 02  .......$......%.
0080: 00 10 00 80 00 92 00 03  01 10 05 80 06 08 00 01  ................
0090: D0 03 02 00 10 06 80 00  03 01 03 09 00 04 00 14  ................
00A0: 09 00 07 80 03 07 00 02  80 08 07 00 09 00 03 09  ................
00B0: 00 06 00 14 09 00 08 80  08 07 00 09 00 03 02 10  ................
00C0: 07 00 48 09 80 23 03 02  10 00 80 24 0A 80 06 80  ..H..#.....$....
00D0: 00 80 25 02 00 10 00 80  00 F5 00 02 01 00 01 80  ..%.............
00E0: 04 EE 00 03 01 10 06 80  06 08 00 01 F2 00 48 0B  ..............H.
00F0: 80 23 01 00 01 02 00 10  06 80 00 00 01 01 00 01  .#..............
0100: 01 D0 03 02 00 10 08 80  00 74 01 03 09 00 04 00  .........t......
0110: 14 09 00 07 80 03 07 00  02 80 08 07 00 09 00 03  ................
0120: 09 00 06 00 14 09 00 08  80 08 07 00 09 00 03 02  ................
0130: 10 07 00 48 09 80 23 03  02 10 06 80 24 0A 80 06  ...H..#.....$...
0140: 80 00 80 25 02 00 10 00  80 00 66 01 02 01 00 02  ...%......f.....
0150: 80 04 5F 01 03 01 10 08  80 06 08 00 01 63 01 48  .._..........c.H
0160: 0B 80 23 01 71 01 02 00  10 06 80 00 71 01 01 71  ..#.q.......q..q
0170: 01 01 D0 03 02 00 10 0C  80 00 E5 01 03 09 00 04  ................
0180: 00 14 09 00 07 80 03 07  00 02 80 08 07 00 09 00  ................
0190: 03 09 00 06 00 14 09 00  08 80 08 07 00 09 00 03  ................
01A0: 02 10 07 00 48 09 80 23  03 02 10 08 80 24 0A 80  ....H..#.....$..
01B0: 06 80 00 80 25 02 00 10  00 80 00 D7 01 02 01 00  ....%...........
01C0: 03 80 04 D0 01 03 01 10  0C 80 06 08 00 01 D4 01  ................
01D0: 48 0B 80 23 01 E2 01 02  00 10 06 80 00 E2 01 01  H..#............
01E0: E2 01 01 D0 03 02 00 10  0D 80 00 2E 02 03 02 10  ................
01F0: 00 80 24 0E 80 06 80 00  80 25 02 00 10 00 80 00  ..$......%......
0200: 20 02 02 05 00 00 80 00  15 02 03 01 10 0D 80 06   ...............
0210: 08 00 01 1D 02 03 01 10  0D 80 06 08 00 01 2B 02  ..............+.
0220: 02 00 10 06 80 00 2B 02  01 2B 02 01 D0 03 02 00  ......+..+......
0230: 10 07 80 00 78 02 03 02  10 06 80 24 0E 80 06 80  ....x......$....
0240: 00 80 25 02 00 10 00 80  00 6A 02 02 02 00 0F 80  ..%......j......
0250: 03 5E 02 03 01 10 07 80  06 08 00 01 67 02 03 02  .^..........g...
0260: 10 06 80 48 10 80 23 01  75 02 02 00 10 06 80 00  ...H..#.u.......
0270: 75 02 01 75 02 01 D0 03  02 00 10 11 80 00 AE 02  u..u............
0280: 03 02 10 00 80 24 12 80  06 80 00 80 25 02 00 10  .....$......%...
0290: 00 80 00 A0 02 03 01 10  11 80 06 08 00 01 AB 02  ................
02A0: 02 00 10 06 80 00 AB 02  01 AB 02 01 D0 03 02 00  ................
02B0: 10 13 80 00 E4 02 03 02  10 06 80 24 12 80 06 80  ...........$....
02C0: 00 80 25 02 00 10 00 80  00 D6 02 03 01 10 13 80  ..%.............
02D0: 06 08 00 01 E1 02 02 00  10 06 80 00 E1 02 01 E1  ................
02E0: 02 01 D0 03 02 00 10 14  80 00 1F 03 03 02 10 00  ................
02F0: 80 03 03 10 00 80 24 15  80 06 80 00 80 25 02 00  ......$......%..
0300: 10 00 80 00 11 03 03 01  10 14 80 06 08 00 01 1C  ................
0310: 03 02 00 10 06 80 00 1C  03 01 1C 03 01 D0 03 02  ................
0320: 00 10 16 80 00 5A 03 03  02 10 00 80 03 03 10 06  .....Z..........
0330: 80 24 15 80 06 80 00 80  25 02 00 10 00 80 00 4C  .$......%......L
0340: 03 03 01 10 16 80 06 08  00 01 57 03 02 00 10 06  ..........W.....
0350: 80 00 57 03 01 57 03 01  D0 03 02 00 10 03 80 00  ..W..W..........
0360: 95 03 03 02 10 06 80 03  03 10 00 80 24 15 80 06  ............$...
0370: 80 00 80 25 02 00 10 00  80 00 87 03 03 01 10 03  ...%............
0380: 80 06 08 00 01 92 03 02  00 10 06 80 00 92 03 01  ................
0390: 92 03 01 D0 03 02 00 10  17 80 00 D0 03 03 02 10  ................
03A0: 06 80 03 03 10 06 80 24  15 80 06 80 00 80 25 02  .......$......%.
03B0: 00 10 00 80 00 C2 03 03  01 10 17 80 06 08 00 01  ................
03C0: CD 03 02 00 10 06 80 00  CD 03 01 CD 03 01 D0 03  ................
03D0: 01 51 00 42 21 00                                 .Q.B!.          
```

#### Opcodes

```
  0: 0x0001 [0x20] SET_CLI_EVENT_UC_FLAG: Lock player control
  1: 0x0003 [0x03] ExtData[1]->WorkLocal[0] = 0*
  2: 0x0008 [0x03] ExtData[1]->WorkLocal[1] = 0*
  3: 0x000D [0x03] ExtData[1]->WorkLocal[2] = 0*
  4: 0x0012 [0x03] ExtData[1]->WorkLocal[3] = 0*
  5: 0x0017 [0x03] ExtData[1]->WorkLocal[4] = 0*
  6: 0x001C [0x03] ExtData[1]->WorkLocal[5] = 0*
  7: 0x0021 [0x03] ExtData[1]->WorkLocal[6] = 0*
  8: 0x0026 [0x03] ExtData[1]->WorkLocal[8] = 0*
  9: 0x002B [0x03] ExtData[1]->WorkLocal[0] = Work_Zone[2]
 10: 0x0030 [0x03] ExtData[1]->WorkLocal[1] = Work_Zone[3]
 11: 0x0035 [0x03] ExtData[1]->WorkLocal[2] = Work_Zone[4]
 12: 0x003A [0x03] ExtData[1]->WorkLocal[3] = Work_Zone[5]
 13: 0x003F [0x03] ExtData[1]->WorkLocal[4] = Work_Zone[6]
 14: 0x0044 [0x03] ExtData[1]->WorkLocal[5] = Work_Zone[7]
 15: 0x0049 [0x03] ExtData[1]->WorkLocal[6] = Work_Zone[8]
 16: 0x004E [0x05] ExtData[1]->WorkLocal[8] = 1
 17: 0x0051 [0x02] IF !(ExtData[1]->WorkLocal[8] <= 0*) GOTO 0x03D3
 18: 0x0059 [0x03] Work_Zone[2] = ExtData[1]->WorkLocal[1]
 19: 0x005E [0x03] Work_Zone[3] = 15*
 20: 0x0063 [0x03] Work_Zone[4] = 30*
 21: 0x0068 [0x03] Work_Zone[5] = 10*
 22: 0x006D [0x03] Work_Zone[6] = ExtData[1]->WorkLocal[3]
 23: 0x0072 [0x03] Work_Zone[7] = ExtData[1]->WorkLocal[3]
 24: 0x0077 [0x24] CREATE_DIALOG(message_id=7577*, default_option=0*, option_flags=ExtData[1]->WorkLocal[0])
    → "What will you do? (Energy level: $0) [Nothing for now./Recover HP: $1./Recover MP: $2./Recover from status ailments: $3./Prepare to replenish martello./Prepare to upgrade martello./Replenish from the [east/southeast/south/southwest/west/northwest/north/northeast]./Upgrade from the [east/southeast/south/southwest/west/northwest/north/northeast]./Cease replenishing this martello./Cease upgrading this martello./Cease replenishing other martello./Cease upgrading other martello.]"
 25: 0x007E [0x25] WAIT_DIALOG_SELECT()
 26: 0x007F [0x02] IF !(Work_Zone[0] == 0*) GOTO 0x0092
 27: 0x0087 [0x03] Work_Zone[1] = 1073741824*
 28: 0x008C [0x06] ExtData[1]->WorkLocal[8] = 0
 29: 0x008F [0x01] GOTO 0x03D0
 30: 0x0092 [0x02] IF !(Work_Zone[0] == 1*) GOTO 0x0103
 31: 0x009A [0x03] ExtData[1]->WorkLocal[9] = ExtData[1]->WorkLocal[4]
 32: 0x009F [0x14] ExtData[1]->WorkLocal[9] *= 5*
 33: 0x00A4 [0x03] ExtData[1]->WorkLocal[7] = 30*
 34: 0x00A9 [0x08] ExtData[1]->WorkLocal[7] -= ExtData[1]->WorkLocal[9]
 35: 0x00AE [0x03] ExtData[1]->WorkLocal[9] = ExtData[1]->WorkLocal[6]
 36: 0x00B3 [0x14] ExtData[1]->WorkLocal[9] *= 2*
 37: 0x00B8 [0x08] ExtData[1]->WorkLocal[7] -= ExtData[1]->WorkLocal[9]
 38: 0x00BD [0x03] Work_Zone[2] = ExtData[1]->WorkLocal[7]
 39: 0x00C2 [0x48] [System] [7586*]:
    → "Please note that martello recast time is $0 [minute/minutes]."
 40: 0x00C5 [0x23] WAIT_FOR_DIALOG_INTERACTION
 41: 0x00C6 [0x03] Work_Zone[2] = 0*
 42: 0x00CB [0x24] CREATE_DIALOG(message_id=7578*, default_option=1*, option_flags=0*)
    → "[Recover HP/Recover MP/Recover from status ailments]? [Yes./No.]"
 43: 0x00D2 [0x25] WAIT_DIALOG_SELECT()
 44: 0x00D3 [0x02] IF !(Work_Zone[0] == 0*) GOTO 0x00F5
 45: 0x00DB [0x02] IF !(ExtData[1]->WorkLocal[1] < 15*) GOTO 0x00EE
 46: 0x00E3 [0x03] Work_Zone[1] = 1*
 47: 0x00E8 [0x06] ExtData[1]->WorkLocal[8] = 0
 48: 0x00EB [0x01] GOTO 0x00F2
 49: 0x00EE [0x48] [System] [7579*]:
    → "The martello does not have enough energy."
 50: 0x00F1 [0x23] WAIT_FOR_DIALOG_INTERACTION

SUBROUTINE_00F2:
 51: 0x00F2 [0x01] GOTO 0x0100
 52: 0x00F5 [0x02] IF !(Work_Zone[0] == 1*) GOTO 0x0100
 53: 0x00FD [0x01] GOTO 0x0100

SUBROUTINE_0100:
 54: 0x0100 [0x01] GOTO 0x03D0
 55: 0x0103 [0x02] IF !(Work_Zone[0] == 2*) GOTO 0x0174
 56: 0x010B [0x03] ExtData[1]->WorkLocal[9] = ExtData[1]->WorkLocal[4]
 57: 0x0110 [0x14] ExtData[1]->WorkLocal[9] *= 5*
 58: 0x0115 [0x03] ExtData[1]->WorkLocal[7] = 30*
 59: 0x011A [0x08] ExtData[1]->WorkLocal[7] -= ExtData[1]->WorkLocal[9]
 60: 0x011F [0x03] ExtData[1]->WorkLocal[9] = ExtData[1]->WorkLocal[6]
 61: 0x0124 [0x14] ExtData[1]->WorkLocal[9] *= 2*
 62: 0x0129 [0x08] ExtData[1]->WorkLocal[7] -= ExtData[1]->WorkLocal[9]
 63: 0x012E [0x03] Work_Zone[2] = ExtData[1]->WorkLocal[7]
 64: 0x0133 [0x48] [System] [7586*]:
    → "Please note that martello recast time is $0 [minute/minutes]."
 65: 0x0136 [0x23] WAIT_FOR_DIALOG_INTERACTION
 66: 0x0137 [0x03] Work_Zone[2] = 1*
 67: 0x013C [0x24] CREATE_DIALOG(message_id=7578*, default_option=1*, option_flags=0*)
    → "[Recover HP/Recover MP/Recover from status ailments]? [Yes./No.]"
 68: 0x0143 [0x25] WAIT_DIALOG_SELECT()
 69: 0x0144 [0x02] IF !(Work_Zone[0] == 0*) GOTO 0x0166
 70: 0x014C [0x02] IF !(ExtData[1]->WorkLocal[1] < 30*) GOTO 0x015F
 71: 0x0154 [0x03] Work_Zone[1] = 2*
 72: 0x0159 [0x06] ExtData[1]->WorkLocal[8] = 0
 73: 0x015C [0x01] GOTO 0x0163
 74: 0x015F [0x48] [System] [7579*]:
    → "The martello does not have enough energy."
 75: 0x0162 [0x23] WAIT_FOR_DIALOG_INTERACTION

SUBROUTINE_0163:
 76: 0x0163 [0x01] GOTO 0x0171
 77: 0x0166 [0x02] IF !(Work_Zone[0] == 1*) GOTO 0x0171
 78: 0x016E [0x01] GOTO 0x0171

SUBROUTINE_0171:
 79: 0x0171 [0x01] GOTO 0x03D0
 80: 0x0174 [0x02] IF !(Work_Zone[0] == 3*) GOTO 0x01E5
 81: 0x017C [0x03] ExtData[1]->WorkLocal[9] = ExtData[1]->WorkLocal[4]
 82: 0x0181 [0x14] ExtData[1]->WorkLocal[9] *= 5*
 83: 0x0186 [0x03] ExtData[1]->WorkLocal[7] = 30*
 84: 0x018B [0x08] ExtData[1]->WorkLocal[7] -= ExtData[1]->WorkLocal[9]
 85: 0x0190 [0x03] ExtData[1]->WorkLocal[9] = ExtData[1]->WorkLocal[6]
 86: 0x0195 [0x14] ExtData[1]->WorkLocal[9] *= 2*
 87: 0x019A [0x08] ExtData[1]->WorkLocal[7] -= ExtData[1]->WorkLocal[9]
 88: 0x019F [0x03] Work_Zone[2] = ExtData[1]->WorkLocal[7]
 89: 0x01A4 [0x48] [System] [7586*]:
    → "Please note that martello recast time is $0 [minute/minutes]."
 90: 0x01A7 [0x23] WAIT_FOR_DIALOG_INTERACTION
 91: 0x01A8 [0x03] Work_Zone[2] = 2*
 92: 0x01AD [0x24] CREATE_DIALOG(message_id=7578*, default_option=1*, option_flags=0*)
    → "[Recover HP/Recover MP/Recover from status ailments]? [Yes./No.]"
 93: 0x01B4 [0x25] WAIT_DIALOG_SELECT()
 94: 0x01B5 [0x02] IF !(Work_Zone[0] == 0*) GOTO 0x01D7
 95: 0x01BD [0x02] IF !(ExtData[1]->WorkLocal[1] < 10*) GOTO 0x01D0
 96: 0x01C5 [0x03] Work_Zone[1] = 3*
 97: 0x01CA [0x06] ExtData[1]->WorkLocal[8] = 0
 98: 0x01CD [0x01] GOTO 0x01D4
 99: 0x01D0 [0x48] [System] [7579*]:
    → "The martello does not have enough energy."
100: 0x01D3 [0x23] WAIT_FOR_DIALOG_INTERACTION

SUBROUTINE_01D4:
101: 0x01D4 [0x01] GOTO 0x01E2
102: 0x01D7 [0x02] IF !(Work_Zone[0] == 1*) GOTO 0x01E2
103: 0x01DF [0x01] GOTO 0x01E2

SUBROUTINE_01E2:
104: 0x01E2 [0x01] GOTO 0x03D0
105: 0x01E5 [0x02] IF !(Work_Zone[0] == 4*) GOTO 0x022E
106: 0x01ED [0x03] Work_Zone[2] = 0*
107: 0x01F2 [0x24] CREATE_DIALOG(message_id=7581*, default_option=1*, option_flags=0*)
    → "Prepare to [replenish/upgrade] this martello? [Yes./No.]"
108: 0x01F9 [0x25] WAIT_DIALOG_SELECT()
109: 0x01FA [0x02] IF !(Work_Zone[0] == 0*) GOTO 0x0220
110: 0x0202 [0x02] IF !(ExtData[1]->WorkLocal[5] == 0*) GOTO 0x0215
111: 0x020A [0x03] Work_Zone[1] = 4*
112: 0x020F [0x06] ExtData[1]->WorkLocal[8] = 0
113: 0x0212 [0x01] GOTO 0x021D
114: 0x0215 [0x03] Work_Zone[1] = 4*
115: 0x021A [0x06] ExtData[1]->WorkLocal[8] = 0

SUBROUTINE_021D:
116: 0x021D [0x01] GOTO 0x022B
117: 0x0220 [0x02] IF !(Work_Zone[0] == 1*) GOTO 0x022B
118: 0x0228 [0x01] GOTO 0x022B

SUBROUTINE_022B:
119: 0x022B [0x01] GOTO 0x03D0
120: 0x022E [0x02] IF !(Work_Zone[0] == 5*) GOTO 0x0278
121: 0x0236 [0x03] Work_Zone[2] = 1*
122: 0x023B [0x24] CREATE_DIALOG(message_id=7581*, default_option=1*, option_flags=0*)
    → "Prepare to [replenish/upgrade] this martello? [Yes./No.]"
123: 0x0242 [0x25] WAIT_DIALOG_SELECT()
124: 0x0243 [0x02] IF !(Work_Zone[0] == 0*) GOTO 0x026A
125: 0x024B [0x02] IF !(ExtData[1]->WorkLocal[2] >= 3000*) GOTO 0x025E
126: 0x0253 [0x03] Work_Zone[1] = 5*
127: 0x0258 [0x06] ExtData[1]->WorkLocal[8] = 0
128: 0x025B [0x01] GOTO 0x0267
129: 0x025E [0x03] Work_Zone[2] = 1*
130: 0x0263 [0x48] [System] [7582*]:
    → "This martello does not need to be [replenished/upgraded]."
131: 0x0266 [0x23] WAIT_FOR_DIALOG_INTERACTION

SUBROUTINE_0267:
132: 0x0267 [0x01] GOTO 0x0275
133: 0x026A [0x02] IF !(Work_Zone[0] == 1*) GOTO 0x0275
134: 0x0272 [0x01] GOTO 0x0275

SUBROUTINE_0275:
135: 0x0275 [0x01] GOTO 0x03D0
136: 0x0278 [0x02] IF !(Work_Zone[0] == 6*) GOTO 0x02AE
137: 0x0280 [0x03] Work_Zone[2] = 0*
138: 0x0285 [0x24] CREATE_DIALOG(message_id=7584*, default_option=1*, option_flags=0*)
    → "[Replenish/Upgrade] from this direction? [Yes./No.]"
139: 0x028C [0x25] WAIT_DIALOG_SELECT()
140: 0x028D [0x02] IF !(Work_Zone[0] == 0*) GOTO 0x02A0
141: 0x0295 [0x03] Work_Zone[1] = 6*
142: 0x029A [0x06] ExtData[1]->WorkLocal[8] = 0
143: 0x029D [0x01] GOTO 0x02AB
144: 0x02A0 [0x02] IF !(Work_Zone[0] == 1*) GOTO 0x02AB
145: 0x02A8 [0x01] GOTO 0x02AB

SUBROUTINE_02AB:
146: 0x02AB [0x01] GOTO 0x03D0
147: 0x02AE [0x02] IF !(Work_Zone[0] == 7*) GOTO 0x02E4
148: 0x02B6 [0x03] Work_Zone[2] = 1*
149: 0x02BB [0x24] CREATE_DIALOG(message_id=7584*, default_option=1*, option_flags=0*)
    → "[Replenish/Upgrade] from this direction? [Yes./No.]"
150: 0x02C2 [0x25] WAIT_DIALOG_SELECT()
151: 0x02C3 [0x02] IF !(Work_Zone[0] == 0*) GOTO 0x02D6
152: 0x02CB [0x03] Work_Zone[1] = 7*
153: 0x02D0 [0x06] ExtData[1]->WorkLocal[8] = 0
154: 0x02D3 [0x01] GOTO 0x02E1
155: 0x02D6 [0x02] IF !(Work_Zone[0] == 1*) GOTO 0x02E1
156: 0x02DE [0x01] GOTO 0x02E1

SUBROUTINE_02E1:
157: 0x02E1 [0x01] GOTO 0x03D0
158: 0x02E4 [0x02] IF !(Work_Zone[0] == 8*) GOTO 0x031F
159: 0x02EC [0x03] Work_Zone[2] = 0*
160: 0x02F1 [0x03] Work_Zone[3] = 0*
161: 0x02F6 [0x24] CREATE_DIALOG(message_id=7589*, default_option=1*, option_flags=0*)
    → "Cease [replenishing/upgrading] this martello? [Yes./No.]"
162: 0x02FD [0x25] WAIT_DIALOG_SELECT()
163: 0x02FE [0x02] IF !(Work_Zone[0] == 0*) GOTO 0x0311
164: 0x0306 [0x03] Work_Zone[1] = 8*
165: 0x030B [0x06] ExtData[1]->WorkLocal[8] = 0
166: 0x030E [0x01] GOTO 0x031C
167: 0x0311 [0x02] IF !(Work_Zone[0] == 1*) GOTO 0x031C
168: 0x0319 [0x01] GOTO 0x031C

SUBROUTINE_031C:
169: 0x031C [0x01] GOTO 0x03D0
170: 0x031F [0x02] IF !(Work_Zone[0] == 9*) GOTO 0x035A
171: 0x0327 [0x03] Work_Zone[2] = 0*
172: 0x032C [0x03] Work_Zone[3] = 1*
173: 0x0331 [0x24] CREATE_DIALOG(message_id=7589*, default_option=1*, option_flags=0*)
    → "Cease [replenishing/upgrading] this martello? [Yes./No.]"
174: 0x0338 [0x25] WAIT_DIALOG_SELECT()
175: 0x0339 [0x02] IF !(Work_Zone[0] == 0*) GOTO 0x034C
176: 0x0341 [0x03] Work_Zone[1] = 9*
177: 0x0346 [0x06] ExtData[1]->WorkLocal[8] = 0
178: 0x0349 [0x01] GOTO 0x0357
179: 0x034C [0x02] IF !(Work_Zone[0] == 1*) GOTO 0x0357
180: 0x0354 [0x01] GOTO 0x0357

SUBROUTINE_0357:
181: 0x0357 [0x01] GOTO 0x03D0
182: 0x035A [0x02] IF !(Work_Zone[0] == 10*) GOTO 0x0395
183: 0x0362 [0x03] Work_Zone[2] = 1*
184: 0x0367 [0x03] Work_Zone[3] = 0*
185: 0x036C [0x24] CREATE_DIALOG(message_id=7589*, default_option=1*, option_flags=0*)
    → "Cease [replenishing/upgrading] this martello? [Yes./No.]"
186: 0x0373 [0x25] WAIT_DIALOG_SELECT()
187: 0x0374 [0x02] IF !(Work_Zone[0] == 0*) GOTO 0x0387
188: 0x037C [0x03] Work_Zone[1] = 10*
189: 0x0381 [0x06] ExtData[1]->WorkLocal[8] = 0
190: 0x0384 [0x01] GOTO 0x0392
191: 0x0387 [0x02] IF !(Work_Zone[0] == 1*) GOTO 0x0392
192: 0x038F [0x01] GOTO 0x0392

SUBROUTINE_0392:
193: 0x0392 [0x01] GOTO 0x03D0
194: 0x0395 [0x02] IF !(Work_Zone[0] == 11*) GOTO 0x03D0
195: 0x039D [0x03] Work_Zone[2] = 1*
196: 0x03A2 [0x03] Work_Zone[3] = 1*
197: 0x03A7 [0x24] CREATE_DIALOG(message_id=7589*, default_option=1*, option_flags=0*)
    → "Cease [replenishing/upgrading] this martello? [Yes./No.]"
198: 0x03AE [0x25] WAIT_DIALOG_SELECT()
199: 0x03AF [0x02] IF !(Work_Zone[0] == 0*) GOTO 0x03C2
200: 0x03B7 [0x03] Work_Zone[1] = 11*
201: 0x03BC [0x06] ExtData[1]->WorkLocal[8] = 0
202: 0x03BF [0x01] GOTO 0x03CD
203: 0x03C2 [0x02] IF !(Work_Zone[0] == 1*) GOTO 0x03CD
204: 0x03CA [0x01] GOTO 0x03CD

SUBROUTINE_03CD:
205: 0x03CD [0x01] GOTO 0x03D0

SUBROUTINE_03D0:
206: 0x03D0 [0x01] GOTO 0x0051
207: 0x03D3 [0x42] SET_CLI_EVENT_CANCEL_DATA()
208: 0x03D4 [0x21] END_EVENT
209: 0x03D5 [0x00] END_REQSTACK()
```
