# 17171177 - 07

## Common Data

| Field            | Value                           |
|------------------|---------------------------------|
| Zone             | Fort Karugo-Narugo [S] (ID: 96) |
| Block Size       | 1788 bytes                      |
| Total Events     | 78                              |
| References Count | 144                             |

## List of Events

| Event ID                   | Entrypoint   |   Size |   Instructions |
|----------------------------|--------------|--------|----------------|
| [65535](#event-65535)      | 0x0000       |      1 |              1 |
| [103](#event-103)          | 0x0001       |      1 |              1 |
| [65535.1](#event-655351)   | 0x0002       |     18 |              6 |
| [65535.2](#event-655352)   | 0x0014       |     10 |              2 |
| [65535.3](#event-655353)   | 0x001E       |     10 |              2 |
| [65535.4](#event-655354)   | 0x0028       |     15 |              5 |
| [112](#event-112)          | 0x0037       |      1 |              1 |
| [113](#event-113)          | 0x0038       |      1 |              1 |
| [65535.5](#event-655355)   | 0x0039       |      5 |              2 |
| [65535.6](#event-655356)   | 0x003E       |      5 |              2 |
| [65535.7](#event-655357)   | 0x0043       |      5 |              2 |
| [65535.8](#event-655358)   | 0x0048       |     21 |              2 |
| [65535.9](#event-655359)   | 0x005D       |     21 |              2 |
| [65535.10](#event-6553510) | 0x0072       |      5 |              2 |
| [65535.11](#event-6553511) | 0x0077       |     25 |              3 |
| [65535.12](#event-6553512) | 0x0090       |     25 |              3 |
| [65535.13](#event-6553513) | 0x00A9       |     25 |              3 |
| [65535.14](#event-6553514) | 0x00C2       |     14 |              4 |
| [65535.15](#event-6553515) | 0x00D0       |     14 |              4 |
| [65535.16](#event-6553516) | 0x00DE       |     22 |              6 |
| [65535.17](#event-6553517) | 0x00F4       |      5 |              2 |
| [65535.18](#event-6553518) | 0x00F9       |      5 |              2 |
| [65535.19](#event-6553519) | 0x00FE       |      5 |              2 |
| [65535.20](#event-6553520) | 0x0103       |      5 |              2 |
| [65535.21](#event-6553521) | 0x0108       |      5 |              2 |
| [65535.22](#event-6553522) | 0x010D       |      5 |              2 |
| [65535.23](#event-6553523) | 0x0112       |      5 |              2 |
| [65535.24](#event-6553524) | 0x0117       |      5 |              2 |
| [65535.25](#event-6553525) | 0x011C       |      5 |              2 |
| [65535.26](#event-6553526) | 0x0121       |      5 |              2 |
| [65535.27](#event-6553527) | 0x0126       |      5 |              2 |
| [65535.28](#event-6553528) | 0x012B       |      5 |              2 |
| [65535.29](#event-6553529) | 0x0130       |      5 |              2 |
| [65535.30](#event-6553530) | 0x0135       |      5 |              2 |
| [65535.31](#event-6553531) | 0x013A       |      5 |              2 |
| [65535.32](#event-6553532) | 0x013F       |      5 |              2 |
| [65535.33](#event-6553533) | 0x0144       |      5 |              2 |
| [65535.34](#event-6553534) | 0x0149       |      5 |              2 |
| [65535.35](#event-6553535) | 0x014E       |      5 |              2 |
| [65535.36](#event-6553536) | 0x0153       |      5 |              2 |
| [65535.37](#event-6553537) | 0x0158       |      5 |              2 |
| [65535.38](#event-6553538) | 0x015D       |      5 |              2 |
| [65535.39](#event-6553539) | 0x0162       |     18 |              6 |
| [65535.40](#event-6553540) | 0x0174       |     15 |              5 |
| [65535.41](#event-6553541) | 0x0183       |     18 |              6 |
| [65535.42](#event-6553542) | 0x0195       |     18 |              6 |
| [65535.43](#event-6553543) | 0x01A7       |     18 |              6 |
| [65535.44](#event-6553544) | 0x01B9       |     18 |              6 |
| [65535.45](#event-6553545) | 0x01CB       |     18 |              6 |
| [65535.46](#event-6553546) | 0x01DD       |     18 |              6 |
| [65535.47](#event-6553547) | 0x01EF       |      5 |              2 |
| [65535.48](#event-6553548) | 0x01F4       |      5 |              2 |
| [65535.49](#event-6553549) | 0x01F9       |      5 |              2 |
| [65535.50](#event-6553550) | 0x01FE       |      5 |              2 |
| [65535.51](#event-6553551) | 0x0203       |      5 |              2 |
| [65535.52](#event-6553552) | 0x0208       |      5 |              2 |
| [65535.53](#event-6553553) | 0x020D       |      5 |              2 |
| [65535.54](#event-6553554) | 0x0212       |     18 |              6 |
| [65535.55](#event-6553555) | 0x0224       |     18 |              6 |
| [65535.56](#event-6553556) | 0x0236       |     14 |              4 |
| [65535.57](#event-6553557) | 0x0244       |     30 |              6 |
| [65535.58](#event-6553558) | 0x0262       |     15 |              5 |
| [65535.59](#event-6553559) | 0x0271       |     30 |              6 |
| [65535.60](#event-6553560) | 0x028F       |     25 |              7 |
| [65535.61](#event-6553561) | 0x02A8       |     15 |              5 |
| [65535.62](#event-6553562) | 0x02B7       |     15 |              5 |
| [65535.63](#event-6553563) | 0x02C6       |     25 |              7 |
| [65535.64](#event-6553564) | 0x02DF       |     28 |              8 |
| [65535.65](#event-6553565) | 0x02FB       |     15 |              5 |
| [65535.66](#event-6553566) | 0x030A       |     15 |              5 |
| [65535.67](#event-6553567) | 0x0319       |      5 |              2 |
| [65535.68](#event-6553568) | 0x031E       |      5 |              2 |
| [65535.69](#event-6553569) | 0x0323       |      5 |              2 |
| [65535.70](#event-6553570) | 0x0328       |     15 |              5 |
| [65535.71](#event-6553571) | 0x0337       |     25 |              7 |
| [65535.72](#event-6553572) | 0x0350       |     25 |              7 |
| [65535.73](#event-6553573) | 0x0369       |      5 |              2 |
| [65535.74](#event-6553574) | 0x036E       |      4 |              2 |

## DAT References (imed_data)

|   Index | Hex Value   |   Dec Value |
|---------|-------------|-------------|
|       0 | 0x0028      |          40 |
|       1 | 0x345E3     |      214499 |
|       2 | 0xA294      |       41620 |
|       3 | 0xFFFF9BA4  |  4294941604 |
|       4 | 0x0003      |           3 |
|       5 | 0x0000      |           0 |
|       6 | 0x0080      |         128 |
|       7 | 0x0078      |         120 |
|       8 | 0x3F8E4     |      260324 |
|       9 | 0x7F4C      |       32588 |
|      10 | 0xFFFFB20B  |  4294947339 |
|      11 | 0x02F3      |         755 |
|      12 | 0x043C      |        1084 |
|      13 | 0x08C3      |        2243 |
|      14 | 0x0007      |           7 |
|      15 | 0x005E      |          94 |
|      16 | 0x000E      |          14 |
|      17 | 0x006E      |         110 |
|      18 | 0x0317      |         791 |
|      19 | 0x000D      |          13 |
|      20 | 0xFFFFCF94  |  4294954900 |
|      21 | 0xFFFECAF5  |  4294888181 |
|      22 | 0xFFFEF661  |  4294899297 |
|      23 | 0xFFFFCFBC  |  4294954940 |
|      24 | 0xFFFEC473  |  4294886515 |
|      25 | 0xFFF8DEBA  |  4294500026 |
|      26 | 0xC0BF      |       49343 |
|      27 | 0xFFFF8E45  |  4294938181 |
|      28 | 0x001E      |          30 |
|      29 | 0x024D      |         589 |
|      30 | 0x081C      |        2076 |
|      31 | 0x02E4      |         740 |
|      32 | 0x02EB      |         747 |
|      33 | 0x02F0      |         752 |
|      34 | 0x0108      |         264 |
|      35 | 0x0109      |         265 |
|      36 | 0x03C1      |         961 |
|      37 | 0x03C2      |         962 |
|      38 | 0x000B      |          11 |
|      39 | 0x2447F     |      148607 |
|      40 | 0xFFFFFAB5  |  4294965941 |
|      41 | 0xFFFF5590  |  4294923664 |
|      42 | 0x000A      |          10 |
|      43 | 0x24F74     |      151412 |
|      44 | 0xFFFFEF8B  |  4294963083 |
|      45 | 0xFFFF54F2  |  4294923506 |
|      46 | 0x000F      |          15 |
|      47 | 0x25170     |      151920 |
|      48 | 0x107E      |        4222 |
|      49 | 0xFFFF54D8  |  4294923480 |
|      50 | 0x0005      |           5 |
|      51 | 0x24311     |      148241 |
|      52 | 0xFFFFF313  |  4294963987 |
|      53 | 0xFFFF5593  |  4294923667 |
|      54 | 0x0014      |          20 |
|      55 | 0x000C      |          12 |
|      56 | 0x24E00     |      151040 |
|      57 | 0x0752      |        1874 |
|      58 | 0xFFFF5517  |  4294923543 |
|      59 | 0x0009      |           9 |
|      60 | 0x25510     |      152848 |
|      61 | 0xFFFFFA8C  |  4294965900 |
|      62 | 0xFFFF54BD  |  4294923453 |
|      63 | 0x26092     |      155794 |
|      64 | 0x0C95      |        3221 |
|      65 | 0xFFFF5420  |  4294923296 |
|      66 | 0x25B25     |      154405 |
|      67 | 0x1395      |        5013 |
|      68 | 0xFFFF5421  |  4294923297 |
|      69 | 0x08DB      |        2267 |
|      70 | 0x08D9      |        2265 |
|      71 | 0x08DC      |        2268 |
|      72 | 0x003C      |          60 |
|      73 | 0x0026      |          38 |
|      74 | 0xFFFF7066  |  4294930534 |
|      75 | 0x131F9     |       78329 |
|      76 | 0xFFFEF617  |  4294899223 |
|      77 | 0x0027      |          39 |
|      78 | 0xFFFF871B  |  4294936347 |
|      79 | 0x1351E     |       79134 |
|      80 | 0xFFFEF62A  |  4294899242 |
|      81 | 0x0025      |          37 |
|      82 | 0xFFFCDB40  |  4294761280 |
|      83 | 0xFFFF151C  |  4294907164 |
|      84 | 0xFFFE6830  |  4294862896 |
|      85 | 0x0012      |          18 |
|      86 | 0xFFFE92F8  |  4294873848 |
|      87 | 0xFFFF1D6A  |  4294909290 |
|      88 | 0xFFFEF567  |  4294899047 |
|      89 | 0x08B3      |        2227 |
|      90 | 0xFFFF0C47  |  4294904903 |
|      91 | 0xFFFF07DE  |  4294903774 |
|      92 | 0xFFFEF652  |  4294899282 |
|      93 | 0x0011      |          17 |
|      94 | 0xFFFEA4B6  |  4294878390 |
|      95 | 0xFFFF1D22  |  4294909218 |
|      96 | 0xFFFEF660  |  4294899296 |
|      97 | 0xFFFF02E7  |  4294902503 |
|      98 | 0xFFFF0C45  |  4294904901 |
|      99 | 0xFFFEF20A  |  4294898186 |
|     100 | 0xFFFF0FDF  |  4294905823 |
|     101 | 0x0013      |          19 |
|     102 | 0xFFFF0D33  |  4294905139 |
|     103 | 0xFFFF10B0  |  4294906032 |
|     104 | 0xFFFEF6A9  |  4294899369 |
|     105 | 0x0045      |          69 |
|     106 | 0xFFFEA142  |  4294877506 |
|     107 | 0xFFFF1FBE  |  4294909886 |
|     108 | 0xFFFEF58C  |  4294899084 |
|     109 | 0x0046      |          70 |
|     110 | 0xFFFE73C4  |  4294865860 |
|     111 | 0xFFFF18A1  |  4294908065 |
|     112 | 0xFFFEF08A  |  4294897802 |
|     113 | 0xFFFE97BA  |  4294875066 |
|     114 | 0xFFFF1E9E  |  4294909598 |
|     115 | 0x2047A     |      132218 |
|     116 | 0x0298      |         664 |
|     117 | 0xFFFF55B9  |  4294923705 |
|     118 | 0x1BDF0     |      114160 |
|     119 | 0x0173      |         371 |
|     120 | 0xFFFF5335  |  4294923061 |
|     121 | 0x002B      |          43 |
|     122 | 0x1B7FF     |      112639 |
|     123 | 0xFFFFFE56  |  4294966870 |
|     124 | 0xFFFF5277  |  4294922871 |
|     125 | 0x17140     |       94528 |
|     126 | 0xFFFFCE3C  |  4294954556 |
|     127 | 0xFFFF37B8  |  4294916024 |
|     128 | 0x0034      |          52 |
|     129 | 0x0044      |          68 |
|     130 | 0xFFFE9CEB  |  4294876395 |
|     131 | 0xFFFF1E36  |  4294909494 |
|     132 | 0xFFFE6E21  |  4294864417 |
|     133 | 0xFFFF1A24  |  4294908452 |
|     134 | 0xFFFEF69F  |  4294899359 |
|     135 | 0xFFFE9CC4  |  4294876356 |
|     136 | 0xFFFF1DFD  |  4294909437 |
|     137 | 0xFFFE6DDD  |  4294864349 |
|     138 | 0xFFFF248C  |  4294911116 |
|     139 | 0xFFFEF69B  |  4294899355 |
|     140 | 0xFFFE9C75  |  4294876277 |
|     141 | 0xFFFF1E63  |  4294909539 |
|     142 | 0x08D8      |        2264 |
|     143 | 0x0001      |           1 |

## Events

### Event 65535

#### Metadata

| Field        | Value   |
|--------------|---------|
| Entrypoint   | 0x0000  |
| Data Size    | 1 bytes |
| Instructions | 1       |

```
      00 01 02 03 04 05 06 07  08 09 0A 0B 0C 0D 0E 0F
      -- -- -- -- -- -- -- --  -- -- -- -- -- -- -- --
0000: 00                                                .               
```

#### Opcodes

```
  0: 0x0000 [0x00] END_REQSTACK()
```

### Event 103

#### Metadata

| Field        | Value   |
|--------------|---------|
| Entrypoint   | 0x0001  |
| Data Size    | 1 bytes |
| Instructions | 1       |

```
      00 01 02 03 04 05 06 07  08 09 0A 0B 0C 0D 0E 0F
      -- -- -- -- -- -- -- --  -- -- -- -- -- -- -- --
0000:    00                                              .              
```

#### Opcodes

```
  0: 0x0001 [0x00] END_REQSTACK()
```

### Event 65535.1

#### Metadata

| Field        | Value    |
|--------------|----------|
| Entrypoint   | 0x0002   |
| Data Size    | 18 bytes |
| Instructions | 6        |

```
      00 01 02 03 04 05 06 07  08 09 0A 0B 0C 0D 0E 0F
      -- -- -- -- -- -- -- --  -- -- -- -- -- -- -- --
0000:       32 00 80 1F 00 01  80 02 80 03 80 1F 01 6F    2............o
0010: 1C 04 80 00                                       ....            
```

#### Opcodes

```
  0: 0x0002 [0x32] ExtData[1]->MainSpeed = 40* * 0.1
  1: 0x0005 [0x1F] MOVE_ENTITY: EventEntity moves to X=214.499*, Z=41.620*, Y=-25.692*
  2: 0x000D [0x1F] MOVE_ENTITY: Update entity position (mode=1)
  3: 0x000F [0x6F] WAIT_FRAME_DELAY: Yield until WaitTime reaches zero
  4: 0x0010 [0x1C] WAIT(3* ticks)
  5: 0x0013 [0x00] END_REQSTACK()
```

### Event 65535.2

#### Metadata

| Field        | Value    |
|--------------|----------|
| Entrypoint   | 0x0014   |
| Data Size    | 10 bytes |
| Instructions | 2        |

```
      00 01 02 03 04 05 06 07  08 09 0A 0B 0C 0D 0E 0F
      -- -- -- -- -- -- -- --  -- -- -- -- -- -- -- --
0010:             6C F8 FF FF  7F 05 80 05 80 00            l.........  
```

#### Opcodes

```
  0: 0x0014 [0x6C] FADE_ENTITY_COLOR(entity_id=EventEntity, end_alpha=0*, fade_time=0*)
  1: 0x001D [0x00] END_REQSTACK()
```

### Event 65535.3

#### Metadata

| Field        | Value    |
|--------------|----------|
| Entrypoint   | 0x001E   |
| Data Size    | 10 bytes |
| Instructions | 2        |

```
      00 01 02 03 04 05 06 07  08 09 0A 0B 0C 0D 0E 0F
      -- -- -- -- -- -- -- --  -- -- -- -- -- -- -- --
0010:                                            6C F8                l.
0020: FF FF 7F 06 80 07 80 00                           ........        
```

#### Opcodes

```
  0: 0x001E [0x6C] FADE_ENTITY_COLOR(entity_id=EventEntity, end_alpha=128*, fade_time=120*)
  1: 0x0027 [0x00] END_REQSTACK()
```

### Event 65535.4

#### Metadata

| Field        | Value    |
|--------------|----------|
| Entrypoint   | 0x0028   |
| Data Size    | 15 bytes |
| Instructions | 5        |

```
      00 01 02 03 04 05 06 07  08 09 0A 0B 0C 0D 0E 0F
      -- -- -- -- -- -- -- --  -- -- -- -- -- -- -- --
0020:                          32 00 80 1F 00 08 80 09          2.......
0030: 80 0A 80 1F 01 6F 00                              .....o.         
```

#### Opcodes

```
  0: 0x0028 [0x32] ExtData[1]->MainSpeed = 40* * 0.1
  1: 0x002B [0x1F] MOVE_ENTITY: EventEntity moves to X=260.324*, Z=32.588*, Y=-19.957*
  2: 0x0033 [0x1F] MOVE_ENTITY: Update entity position (mode=1)
  3: 0x0035 [0x6F] WAIT_FRAME_DELAY: Yield until WaitTime reaches zero
  4: 0x0036 [0x00] END_REQSTACK()
```

### Event 112

#### Metadata

| Field        | Value   |
|--------------|---------|
| Entrypoint   | 0x0037  |
| Data Size    | 1 bytes |
| Instructions | 1       |

```
      00 01 02 03 04 05 06 07  08 09 0A 0B 0C 0D 0E 0F
      -- -- -- -- -- -- -- --  -- -- -- -- -- -- -- --
0030:                      00                                  .        
```

#### Opcodes

```
  0: 0x0037 [0x00] END_REQSTACK()
```

### Event 113

#### Metadata

| Field        | Value   |
|--------------|---------|
| Entrypoint   | 0x0038  |
| Data Size    | 1 bytes |
| Instructions | 1       |

```
      00 01 02 03 04 05 06 07  08 09 0A 0B 0C 0D 0E 0F
      -- -- -- -- -- -- -- --  -- -- -- -- -- -- -- --
0030:                          00                               .       
```

#### Opcodes

```
  0: 0x0038 [0x00] END_REQSTACK()
```

### Event 65535.5

#### Metadata

| Field        | Value   |
|--------------|---------|
| Entrypoint   | 0x0039  |
| Data Size    | 5 bytes |
| Instructions | 2       |

```
      00 01 02 03 04 05 06 07  08 09 0A 0B 0C 0D 0E 0F
      -- -- -- -- -- -- -- --  -- -- -- -- -- -- -- --
0030:                             B6 00 0B 80 00                 .....  
```

#### Opcodes

```
  0: 0x0039 [0xB6] ENTITY_APPEARANCE_HANDLER(case=Hair style, value=755*)
  1: 0x003D [0x00] END_REQSTACK()
```

### Event 65535.6

#### Metadata

| Field        | Value   |
|--------------|---------|
| Entrypoint   | 0x003E  |
| Data Size    | 5 bytes |
| Instructions | 2       |

```
      00 01 02 03 04 05 06 07  08 09 0A 0B 0C 0D 0E 0F
      -- -- -- -- -- -- -- --  -- -- -- -- -- -- -- --
0030:                                            B6 00                ..
0040: 0C 80 00                                          ...             
```

#### Opcodes

```
  0: 0x003E [0xB6] ENTITY_APPEARANCE_HANDLER(case=Hair style, value=1084*)
  1: 0x0042 [0x00] END_REQSTACK()
```

### Event 65535.7

#### Metadata

| Field        | Value   |
|--------------|---------|
| Entrypoint   | 0x0043  |
| Data Size    | 5 bytes |
| Instructions | 2       |

```
      00 01 02 03 04 05 06 07  08 09 0A 0B 0C 0D 0E 0F
      -- -- -- -- -- -- -- --  -- -- -- -- -- -- -- --
0040:          B6 00 0D 80 00                              .....        
```

#### Opcodes

```
  0: 0x0043 [0xB6] ENTITY_APPEARANCE_HANDLER(case=Hair style, value=2243*)
  1: 0x0047 [0x00] END_REQSTACK()
```

### Event 65535.8

#### Metadata

| Field        | Value    |
|--------------|----------|
| Entrypoint   | 0x0048   |
| Data Size    | 21 bytes |
| Instructions | 2        |

```
      00 01 02 03 04 05 06 07  08 09 0A 0B 0C 0D 0E 0F
      -- -- -- -- -- -- -- --  -- -- -- -- -- -- -- --
0040:                          B6 0B 0E 80 04 80 05 80          ........
0050: 0F 80 0F 80 10 80 10 80  05 80 05 80 00           .............   
```

#### Opcodes

```
  0: 0x0048 [0xB6] ENTITY_APPEARANCE_HANDLER(case=Full entity look, race=7*, hair=3*, head=0*, body=94*, hands=94*, legs=14*, feet=14*, main=0*, sub=0*)
  1: 0x005C [0x00] END_REQSTACK()
```

### Event 65535.9

#### Metadata

| Field        | Value    |
|--------------|----------|
| Entrypoint   | 0x005D   |
| Data Size    | 21 bytes |
| Instructions | 2        |

```
      00 01 02 03 04 05 06 07  08 09 0A 0B 0C 0D 0E 0F
      -- -- -- -- -- -- -- --  -- -- -- -- -- -- -- --
0050:                                         B6 0B 0E               ...
0060: 80 04 80 05 80 0F 80 0F  80 10 80 10 80 11 80 05  ................
0070: 80 00                                             ..              
```

#### Opcodes

```
  0: 0x005D [0xB6] ENTITY_APPEARANCE_HANDLER(case=Full entity look, race=7*, hair=3*, head=0*, body=94*, hands=94*, legs=14*, feet=14*, main=110*, sub=0*)
  1: 0x0071 [0x00] END_REQSTACK()
```

### Event 65535.10

#### Metadata

| Field        | Value   |
|--------------|---------|
| Entrypoint   | 0x0072  |
| Data Size    | 5 bytes |
| Instructions | 2       |

```
      00 01 02 03 04 05 06 07  08 09 0A 0B 0C 0D 0E 0F
      -- -- -- -- -- -- -- --  -- -- -- -- -- -- -- --
0070:       B6 00 12 80 00                                .....         
```

#### Opcodes

```
  0: 0x0072 [0xB6] ENTITY_APPEARANCE_HANDLER(case=Hair style, value=791*)
  1: 0x0076 [0x00] END_REQSTACK()
```

### Event 65535.11

#### Metadata

| Field        | Value    |
|--------------|----------|
| Entrypoint   | 0x0077   |
| Data Size    | 25 bytes |
| Instructions | 3        |

```
      00 01 02 03 04 05 06 07  08 09 0A 0B 0C 0D 0E 0F
      -- -- -- -- -- -- -- --  -- -- -- -- -- -- -- --
0070:                      B4  00 00 00 3F 3F 3F 00 00         ....???..
0080: 00 00 00 00 00 00 00 00  00 00 00 B5 00 00 00 00  ................
```

#### Opcodes

```
  0: 0x0077 [0xB4] UI_WINDOW_STRING_HANDLER(case=0x00 - Copy string from opcode, work_offset=ExtData[1]->WorkLocal[0], string="???")
  1: 0x008B [0xB5] SET_EVENT_ENTITY_NAME: Change EventEntity name to ExtData[1]->WorkLocal[0]
  2: 0x008F [0x00] END_REQSTACK()
```

### Event 65535.12

#### Metadata

| Field        | Value    |
|--------------|----------|
| Entrypoint   | 0x0090   |
| Data Size    | 25 bytes |
| Instructions | 3        |

```
      00 01 02 03 04 05 06 07  08 09 0A 0B 0C 0D 0E 0F
      -- -- -- -- -- -- -- --  -- -- -- -- -- -- -- --
0090: B4 00 00 00 52 6F 62 65  6C 2D 41 6B 62 65 6C 00  ....Robel-Akbel.
00A0: 00 00 00 00 B5 00 00 00  00                       .........       
```

#### Opcodes

```
  0: 0x0090 [0xB4] UI_WINDOW_STRING_HANDLER(case=0x00 - Copy string from opcode, work_offset=ExtData[1]->WorkLocal[0], string="Robel-Akbel")
  1: 0x00A4 [0xB5] SET_EVENT_ENTITY_NAME: Change EventEntity name to ExtData[1]->WorkLocal[0]
  2: 0x00A8 [0x00] END_REQSTACK()
```

### Event 65535.13

#### Metadata

| Field        | Value    |
|--------------|----------|
| Entrypoint   | 0x00A9   |
| Data Size    | 25 bytes |
| Instructions | 3        |

```
      00 01 02 03 04 05 06 07  08 09 0A 0B 0C 0D 0E 0F
      -- -- -- -- -- -- -- --  -- -- -- -- -- -- -- --
00A0:                             B4 00 00 00 30 32 00           ....02.
00B0: 00 00 00 00 00 00 00 00  00 00 00 00 00 B5 00 00  ................
00C0: 00 00                                             ..              
```

#### Opcodes

```
  0: 0x00A9 [0xB4] UI_WINDOW_STRING_HANDLER(case=0x00 - Copy string from opcode, work_offset=ExtData[1]->WorkLocal[0], string="02")
  1: 0x00BD [0xB5] SET_EVENT_ENTITY_NAME: Change EventEntity name to ExtData[1]->WorkLocal[0]
  2: 0x00C1 [0x00] END_REQSTACK()
```

### Event 65535.14

#### Metadata

| Field        | Value    |
|--------------|----------|
| Entrypoint   | 0x00C2   |
| Data Size    | 14 bytes |
| Instructions | 4        |

```
      00 01 02 03 04 05 06 07  08 09 0A 0B 0C 0D 0E 0F
      -- -- -- -- -- -- -- --  -- -- -- -- -- -- -- --
00C0:       32 13 80 1F 00 14  80 15 80 16 80 1F 01 00    2.............
```

#### Opcodes

```
  0: 0x00C2 [0x32] ExtData[1]->MainSpeed = 13* * 0.1
  1: 0x00C5 [0x1F] MOVE_ENTITY: EventEntity moves to X=-12.396*, Z=-79.115*, Y=-67.999*
  2: 0x00CD [0x1F] MOVE_ENTITY: Update entity position (mode=1)
  3: 0x00CF [0x00] END_REQSTACK()
```

### Event 65535.15

#### Metadata

| Field        | Value    |
|--------------|----------|
| Entrypoint   | 0x00D0   |
| Data Size    | 14 bytes |
| Instructions | 4        |

```
      00 01 02 03 04 05 06 07  08 09 0A 0B 0C 0D 0E 0F
      -- -- -- -- -- -- -- --  -- -- -- -- -- -- -- --
00D0: 32 13 80 1F 00 17 80 18  80 16 80 1F 01 00        2.............  
```

#### Opcodes

```
  0: 0x00D0 [0x32] ExtData[1]->MainSpeed = 13* * 0.1
  1: 0x00D3 [0x1F] MOVE_ENTITY: EventEntity moves to X=-12.356*, Z=-80.781*, Y=-67.999*
  2: 0x00DB [0x1F] MOVE_ENTITY: Update entity position (mode=1)
  3: 0x00DD [0x00] END_REQSTACK()
```

### Event 65535.16

#### Metadata

| Field        | Value    |
|--------------|----------|
| Entrypoint   | 0x00DE   |
| Data Size    | 22 bytes |
| Instructions | 6        |

```
      00 01 02 03 04 05 06 07  08 09 0A 0B 0C 0D 0E 0F
      -- -- -- -- -- -- -- --  -- -- -- -- -- -- -- --
00D0:                                            32 13                2.
00E0: 80 5A 00 19 80 1A 80 1B  80 5A 01 1E F0 FF FF 7F  .Z.......Z......
00F0: 1C 1C 80 00                                       ....            
```

#### Opcodes

```
  0: 0x00DE [0x32] ExtData[1]->MainSpeed = 13* * 0.1
  1: 0x00E1 [0x5A] UPDATE_EVENT_POSITION: Set EventEntity MovePosition to X=-467.270*, Z=49.343*, Y=-29.115*
  2: 0x00E9 [0x5A] UPDATE_EVENT_POSITION: Move EventEntity incrementally towards MovePosition
  3: 0x00EB [0x1E] EventEntity looks at LocalPlayer and starts talking
  4: 0x00F0 [0x1C] WAIT(30* ticks)
  5: 0x00F3 [0x00] END_REQSTACK()
```

### Event 65535.17

#### Metadata

| Field        | Value   |
|--------------|---------|
| Entrypoint   | 0x00F4  |
| Data Size    | 5 bytes |
| Instructions | 2       |

```
      00 01 02 03 04 05 06 07  08 09 0A 0B 0C 0D 0E 0F
      -- -- -- -- -- -- -- --  -- -- -- -- -- -- -- --
00F0:             B6 00 1D 80  00                           .....       
```

#### Opcodes

```
  0: 0x00F4 [0xB6] ENTITY_APPEARANCE_HANDLER(case=Hair style, value=589*)
  1: 0x00F8 [0x00] END_REQSTACK()
```

### Event 65535.18

#### Metadata

| Field        | Value   |
|--------------|---------|
| Entrypoint   | 0x00F9  |
| Data Size    | 5 bytes |
| Instructions | 2       |

```
      00 01 02 03 04 05 06 07  08 09 0A 0B 0C 0D 0E 0F
      -- -- -- -- -- -- -- --  -- -- -- -- -- -- -- --
00F0:                             B6 00 0C 80 00                 .....  
```

#### Opcodes

```
  0: 0x00F9 [0xB6] ENTITY_APPEARANCE_HANDLER(case=Hair style, value=1084*)
  1: 0x00FD [0x00] END_REQSTACK()
```

### Event 65535.19

#### Metadata

| Field        | Value   |
|--------------|---------|
| Entrypoint   | 0x00FE  |
| Data Size    | 5 bytes |
| Instructions | 2       |

```
      00 01 02 03 04 05 06 07  08 09 0A 0B 0C 0D 0E 0F
      -- -- -- -- -- -- -- --  -- -- -- -- -- -- -- --
00F0:                                            B6 00                ..
0100: 0C 80 00                                          ...             
```

#### Opcodes

```
  0: 0x00FE [0xB6] ENTITY_APPEARANCE_HANDLER(case=Hair style, value=1084*)
  1: 0x0102 [0x00] END_REQSTACK()
```

### Event 65535.20

#### Metadata

| Field        | Value   |
|--------------|---------|
| Entrypoint   | 0x0103  |
| Data Size    | 5 bytes |
| Instructions | 2       |

```
      00 01 02 03 04 05 06 07  08 09 0A 0B 0C 0D 0E 0F
      -- -- -- -- -- -- -- --  -- -- -- -- -- -- -- --
0100:          B6 00 1E 80 00                              .....        
```

#### Opcodes

```
  0: 0x0103 [0xB6] ENTITY_APPEARANCE_HANDLER(case=Hair style, value=2076*)
  1: 0x0107 [0x00] END_REQSTACK()
```

### Event 65535.21

#### Metadata

| Field        | Value   |
|--------------|---------|
| Entrypoint   | 0x0108  |
| Data Size    | 5 bytes |
| Instructions | 2       |

```
      00 01 02 03 04 05 06 07  08 09 0A 0B 0C 0D 0E 0F
      -- -- -- -- -- -- -- --  -- -- -- -- -- -- -- --
0100:                          B6 00 1E 80 00                   .....   
```

#### Opcodes

```
  0: 0x0108 [0xB6] ENTITY_APPEARANCE_HANDLER(case=Hair style, value=2076*)
  1: 0x010C [0x00] END_REQSTACK()
```

### Event 65535.22

#### Metadata

| Field        | Value   |
|--------------|---------|
| Entrypoint   | 0x010D  |
| Data Size    | 5 bytes |
| Instructions | 2       |

```
      00 01 02 03 04 05 06 07  08 09 0A 0B 0C 0D 0E 0F
      -- -- -- -- -- -- -- --  -- -- -- -- -- -- -- --
0100:                                         B6 00 1E               ...
0110: 80 00                                             ..              
```

#### Opcodes

```
  0: 0x010D [0xB6] ENTITY_APPEARANCE_HANDLER(case=Hair style, value=2076*)
  1: 0x0111 [0x00] END_REQSTACK()
```

### Event 65535.23

#### Metadata

| Field        | Value   |
|--------------|---------|
| Entrypoint   | 0x0112  |
| Data Size    | 5 bytes |
| Instructions | 2       |

```
      00 01 02 03 04 05 06 07  08 09 0A 0B 0C 0D 0E 0F
      -- -- -- -- -- -- -- --  -- -- -- -- -- -- -- --
0110:       B6 00 1E 80 00                                .....         
```

#### Opcodes

```
  0: 0x0112 [0xB6] ENTITY_APPEARANCE_HANDLER(case=Hair style, value=2076*)
  1: 0x0116 [0x00] END_REQSTACK()
```

### Event 65535.24

#### Metadata

| Field        | Value   |
|--------------|---------|
| Entrypoint   | 0x0117  |
| Data Size    | 5 bytes |
| Instructions | 2       |

```
      00 01 02 03 04 05 06 07  08 09 0A 0B 0C 0D 0E 0F
      -- -- -- -- -- -- -- --  -- -- -- -- -- -- -- --
0110:                      B6  00 1E 80 00                     .....    
```

#### Opcodes

```
  0: 0x0117 [0xB6] ENTITY_APPEARANCE_HANDLER(case=Hair style, value=2076*)
  1: 0x011B [0x00] END_REQSTACK()
```

### Event 65535.25

#### Metadata

| Field        | Value   |
|--------------|---------|
| Entrypoint   | 0x011C  |
| Data Size    | 5 bytes |
| Instructions | 2       |

```
      00 01 02 03 04 05 06 07  08 09 0A 0B 0C 0D 0E 0F
      -- -- -- -- -- -- -- --  -- -- -- -- -- -- -- --
0110:                                      B6 00 1F 80              ....
0120: 00                                                .               
```

#### Opcodes

```
  0: 0x011C [0xB6] ENTITY_APPEARANCE_HANDLER(case=Hair style, value=740*)
  1: 0x0120 [0x00] END_REQSTACK()
```

### Event 65535.26

#### Metadata

| Field        | Value   |
|--------------|---------|
| Entrypoint   | 0x0121  |
| Data Size    | 5 bytes |
| Instructions | 2       |

```
      00 01 02 03 04 05 06 07  08 09 0A 0B 0C 0D 0E 0F
      -- -- -- -- -- -- -- --  -- -- -- -- -- -- -- --
0120:    B6 00 20 80 00                                  .. ..          
```

#### Opcodes

```
  0: 0x0121 [0xB6] ENTITY_APPEARANCE_HANDLER(case=Hair style, value=747*)
  1: 0x0125 [0x00] END_REQSTACK()
```

### Event 65535.27

#### Metadata

| Field        | Value   |
|--------------|---------|
| Entrypoint   | 0x0126  |
| Data Size    | 5 bytes |
| Instructions | 2       |

```
      00 01 02 03 04 05 06 07  08 09 0A 0B 0C 0D 0E 0F
      -- -- -- -- -- -- -- --  -- -- -- -- -- -- -- --
0120:                   B6 00  0B 80 00                       .....     
```

#### Opcodes

```
  0: 0x0126 [0xB6] ENTITY_APPEARANCE_HANDLER(case=Hair style, value=755*)
  1: 0x012A [0x00] END_REQSTACK()
```

### Event 65535.28

#### Metadata

| Field        | Value   |
|--------------|---------|
| Entrypoint   | 0x012B  |
| Data Size    | 5 bytes |
| Instructions | 2       |

```
      00 01 02 03 04 05 06 07  08 09 0A 0B 0C 0D 0E 0F
      -- -- -- -- -- -- -- --  -- -- -- -- -- -- -- --
0120:                                   B6 00 21 80 00             ..!..
```

#### Opcodes

```
  0: 0x012B [0xB6] ENTITY_APPEARANCE_HANDLER(case=Hair style, value=752*)
  1: 0x012F [0x00] END_REQSTACK()
```

### Event 65535.29

#### Metadata

| Field        | Value   |
|--------------|---------|
| Entrypoint   | 0x0130  |
| Data Size    | 5 bytes |
| Instructions | 2       |

```
      00 01 02 03 04 05 06 07  08 09 0A 0B 0C 0D 0E 0F
      -- -- -- -- -- -- -- --  -- -- -- -- -- -- -- --
0130: B6 00 1F 80 00                                    .....           
```

#### Opcodes

```
  0: 0x0130 [0xB6] ENTITY_APPEARANCE_HANDLER(case=Hair style, value=740*)
  1: 0x0134 [0x00] END_REQSTACK()
```

### Event 65535.30

#### Metadata

| Field        | Value   |
|--------------|---------|
| Entrypoint   | 0x0135  |
| Data Size    | 5 bytes |
| Instructions | 2       |

```
      00 01 02 03 04 05 06 07  08 09 0A 0B 0C 0D 0E 0F
      -- -- -- -- -- -- -- --  -- -- -- -- -- -- -- --
0130:                B6 00 20  80 00                         .. ..      
```

#### Opcodes

```
  0: 0x0135 [0xB6] ENTITY_APPEARANCE_HANDLER(case=Hair style, value=747*)
  1: 0x0139 [0x00] END_REQSTACK()
```

### Event 65535.31

#### Metadata

| Field        | Value   |
|--------------|---------|
| Entrypoint   | 0x013A  |
| Data Size    | 5 bytes |
| Instructions | 2       |

```
      00 01 02 03 04 05 06 07  08 09 0A 0B 0C 0D 0E 0F
      -- -- -- -- -- -- -- --  -- -- -- -- -- -- -- --
0130:                                B6 00 0B 80 00               ..... 
```

#### Opcodes

```
  0: 0x013A [0xB6] ENTITY_APPEARANCE_HANDLER(case=Hair style, value=755*)
  1: 0x013E [0x00] END_REQSTACK()
```

### Event 65535.32

#### Metadata

| Field        | Value   |
|--------------|---------|
| Entrypoint   | 0x013F  |
| Data Size    | 5 bytes |
| Instructions | 2       |

```
      00 01 02 03 04 05 06 07  08 09 0A 0B 0C 0D 0E 0F
      -- -- -- -- -- -- -- --  -- -- -- -- -- -- -- --
0130:                                               B6                 .
0140: 00 1F 80 00                                       ....            
```

#### Opcodes

```
  0: 0x013F [0xB6] ENTITY_APPEARANCE_HANDLER(case=Hair style, value=740*)
  1: 0x0143 [0x00] END_REQSTACK()
```

### Event 65535.33

#### Metadata

| Field        | Value   |
|--------------|---------|
| Entrypoint   | 0x0144  |
| Data Size    | 5 bytes |
| Instructions | 2       |

```
      00 01 02 03 04 05 06 07  08 09 0A 0B 0C 0D 0E 0F
      -- -- -- -- -- -- -- --  -- -- -- -- -- -- -- --
0140:             B6 00 22 80  00                           .."..       
```

#### Opcodes

```
  0: 0x0144 [0xB6] ENTITY_APPEARANCE_HANDLER(case=Hair style, value=264*)
  1: 0x0148 [0x00] END_REQSTACK()
```

### Event 65535.34

#### Metadata

| Field        | Value   |
|--------------|---------|
| Entrypoint   | 0x0149  |
| Data Size    | 5 bytes |
| Instructions | 2       |

```
      00 01 02 03 04 05 06 07  08 09 0A 0B 0C 0D 0E 0F
      -- -- -- -- -- -- -- --  -- -- -- -- -- -- -- --
0140:                             B6 00 22 80 00                 .."..  
```

#### Opcodes

```
  0: 0x0149 [0xB6] ENTITY_APPEARANCE_HANDLER(case=Hair style, value=264*)
  1: 0x014D [0x00] END_REQSTACK()
```

### Event 65535.35

#### Metadata

| Field        | Value   |
|--------------|---------|
| Entrypoint   | 0x014E  |
| Data Size    | 5 bytes |
| Instructions | 2       |

```
      00 01 02 03 04 05 06 07  08 09 0A 0B 0C 0D 0E 0F
      -- -- -- -- -- -- -- --  -- -- -- -- -- -- -- --
0140:                                            B6 00                ..
0150: 23 80 00                                          #..             
```

#### Opcodes

```
  0: 0x014E [0xB6] ENTITY_APPEARANCE_HANDLER(case=Hair style, value=265*)
  1: 0x0152 [0x00] END_REQSTACK()
```

### Event 65535.36

#### Metadata

| Field        | Value   |
|--------------|---------|
| Entrypoint   | 0x0153  |
| Data Size    | 5 bytes |
| Instructions | 2       |

```
      00 01 02 03 04 05 06 07  08 09 0A 0B 0C 0D 0E 0F
      -- -- -- -- -- -- -- --  -- -- -- -- -- -- -- --
0150:          B6 00 23 80 00                              ..#..        
```

#### Opcodes

```
  0: 0x0153 [0xB6] ENTITY_APPEARANCE_HANDLER(case=Hair style, value=265*)
  1: 0x0157 [0x00] END_REQSTACK()
```

### Event 65535.37

#### Metadata

| Field        | Value   |
|--------------|---------|
| Entrypoint   | 0x0158  |
| Data Size    | 5 bytes |
| Instructions | 2       |

```
      00 01 02 03 04 05 06 07  08 09 0A 0B 0C 0D 0E 0F
      -- -- -- -- -- -- -- --  -- -- -- -- -- -- -- --
0150:                          B6 00 24 80 00                   ..$..   
```

#### Opcodes

```
  0: 0x0158 [0xB6] ENTITY_APPEARANCE_HANDLER(case=Hair style, value=961*)
  1: 0x015C [0x00] END_REQSTACK()
```

### Event 65535.38

#### Metadata

| Field        | Value   |
|--------------|---------|
| Entrypoint   | 0x015D  |
| Data Size    | 5 bytes |
| Instructions | 2       |

```
      00 01 02 03 04 05 06 07  08 09 0A 0B 0C 0D 0E 0F
      -- -- -- -- -- -- -- --  -- -- -- -- -- -- -- --
0150:                                         B6 00 25               ..%
0160: 80 00                                             ..              
```

#### Opcodes

```
  0: 0x015D [0xB6] ENTITY_APPEARANCE_HANDLER(case=Hair style, value=962*)
  1: 0x0161 [0x00] END_REQSTACK()
```

### Event 65535.39

#### Metadata

| Field        | Value    |
|--------------|----------|
| Entrypoint   | 0x0162   |
| Data Size    | 18 bytes |
| Instructions | 6        |

```
      00 01 02 03 04 05 06 07  08 09 0A 0B 0C 0D 0E 0F
      -- -- -- -- -- -- -- --  -- -- -- -- -- -- -- --
0160:       1C 1C 80 32 26 80  1F 00 27 80 28 80 29 80    ...2&...'.(.).
0170: 1F 01 6F 00                                       ..o.            
```

#### Opcodes

```
  0: 0x0162 [0x1C] WAIT(30* ticks)
  1: 0x0165 [0x32] ExtData[1]->MainSpeed = 11* * 0.1
  2: 0x0168 [0x1F] MOVE_ENTITY: EventEntity moves to X=148.607*, Z=-1.355*, Y=-43.632*
  3: 0x0170 [0x1F] MOVE_ENTITY: Update entity position (mode=1)
  4: 0x0172 [0x6F] WAIT_FRAME_DELAY: Yield until WaitTime reaches zero
  5: 0x0173 [0x00] END_REQSTACK()
```

### Event 65535.40

#### Metadata

| Field        | Value    |
|--------------|----------|
| Entrypoint   | 0x0174   |
| Data Size    | 15 bytes |
| Instructions | 5        |

```
      00 01 02 03 04 05 06 07  08 09 0A 0B 0C 0D 0E 0F
      -- -- -- -- -- -- -- --  -- -- -- -- -- -- -- --
0170:             32 2A 80 1F  00 2B 80 2C 80 2D 80 1F      2*...+.,.-..
0180: 01 6F 00                                          .o.             
```

#### Opcodes

```
  0: 0x0174 [0x32] ExtData[1]->MainSpeed = 10* * 0.1
  1: 0x0177 [0x1F] MOVE_ENTITY: EventEntity moves to X=151.412*, Z=-4.213*, Y=-43.790*
  2: 0x017F [0x1F] MOVE_ENTITY: Update entity position (mode=1)
  3: 0x0181 [0x6F] WAIT_FRAME_DELAY: Yield until WaitTime reaches zero
  4: 0x0182 [0x00] END_REQSTACK()
```

### Event 65535.41

#### Metadata

| Field        | Value    |
|--------------|----------|
| Entrypoint   | 0x0183   |
| Data Size    | 18 bytes |
| Instructions | 6        |

```
      00 01 02 03 04 05 06 07  08 09 0A 0B 0C 0D 0E 0F
      -- -- -- -- -- -- -- --  -- -- -- -- -- -- -- --
0180:          1C 2E 80 32 26  80 1F 00 2F 80 30 80 31     ...2&.../.0.1
0190: 80 1F 01 6F 00                                    ...o.           
```

#### Opcodes

```
  0: 0x0183 [0x1C] WAIT(15* ticks)
  1: 0x0186 [0x32] ExtData[1]->MainSpeed = 11* * 0.1
  2: 0x0189 [0x1F] MOVE_ENTITY: EventEntity moves to X=151.920*, Z=4.222*, Y=-43.816*
  3: 0x0191 [0x1F] MOVE_ENTITY: Update entity position (mode=1)
  4: 0x0193 [0x6F] WAIT_FRAME_DELAY: Yield until WaitTime reaches zero
  5: 0x0194 [0x00] END_REQSTACK()
```

### Event 65535.42

#### Metadata

| Field        | Value    |
|--------------|----------|
| Entrypoint   | 0x0195   |
| Data Size    | 18 bytes |
| Instructions | 6        |

```
      00 01 02 03 04 05 06 07  08 09 0A 0B 0C 0D 0E 0F
      -- -- -- -- -- -- -- --  -- -- -- -- -- -- -- --
0190:                1C 32 80  32 13 80 1F 00 33 80 34       .2.2....3.4
01A0: 80 35 80 1F 01 6F 00                              .5...o.         
```

#### Opcodes

```
  0: 0x0195 [0x1C] WAIT(5* ticks)
  1: 0x0198 [0x32] ExtData[1]->MainSpeed = 13* * 0.1
  2: 0x019B [0x1F] MOVE_ENTITY: EventEntity moves to X=148.241*, Z=-3.309*, Y=-43.629*
  3: 0x01A3 [0x1F] MOVE_ENTITY: Update entity position (mode=1)
  4: 0x01A5 [0x6F] WAIT_FRAME_DELAY: Yield until WaitTime reaches zero
  5: 0x01A6 [0x00] END_REQSTACK()
```

### Event 65535.43

#### Metadata

| Field        | Value    |
|--------------|----------|
| Entrypoint   | 0x01A7   |
| Data Size    | 18 bytes |
| Instructions | 6        |

```
      00 01 02 03 04 05 06 07  08 09 0A 0B 0C 0D 0E 0F
      -- -- -- -- -- -- -- --  -- -- -- -- -- -- -- --
01A0:                      1C  36 80 32 37 80 1F 00 38         .6.27...8
01B0: 80 39 80 3A 80 1F 01 6F  00                       .9.:...o.       
```

#### Opcodes

```
  0: 0x01A7 [0x1C] WAIT(20* ticks)
  1: 0x01AA [0x32] ExtData[1]->MainSpeed = 12* * 0.1
  2: 0x01AD [0x1F] MOVE_ENTITY: EventEntity moves to X=151.040*, Z=1.874*, Y=-43.753*
  3: 0x01B5 [0x1F] MOVE_ENTITY: Update entity position (mode=1)
  4: 0x01B7 [0x6F] WAIT_FRAME_DELAY: Yield until WaitTime reaches zero
  5: 0x01B8 [0x00] END_REQSTACK()
```

### Event 65535.44

#### Metadata

| Field        | Value    |
|--------------|----------|
| Entrypoint   | 0x01B9   |
| Data Size    | 18 bytes |
| Instructions | 6        |

```
      00 01 02 03 04 05 06 07  08 09 0A 0B 0C 0D 0E 0F
      -- -- -- -- -- -- -- --  -- -- -- -- -- -- -- --
01B0:                             1C 2E 80 32 3B 80 1F           ...2;..
01C0: 00 3C 80 3D 80 3E 80 1F  01 6F 00                 .<.=.>...o.     
```

#### Opcodes

```
  0: 0x01B9 [0x1C] WAIT(15* ticks)
  1: 0x01BC [0x32] ExtData[1]->MainSpeed = 9* * 0.1
  2: 0x01BF [0x1F] MOVE_ENTITY: EventEntity moves to X=152.848*, Z=-1.396*, Y=-43.843*
  3: 0x01C7 [0x1F] MOVE_ENTITY: Update entity position (mode=1)
  4: 0x01C9 [0x6F] WAIT_FRAME_DELAY: Yield until WaitTime reaches zero
  5: 0x01CA [0x00] END_REQSTACK()
```

### Event 65535.45

#### Metadata

| Field        | Value    |
|--------------|----------|
| Entrypoint   | 0x01CB   |
| Data Size    | 18 bytes |
| Instructions | 6        |

```
      00 01 02 03 04 05 06 07  08 09 0A 0B 0C 0D 0E 0F
      -- -- -- -- -- -- -- --  -- -- -- -- -- -- -- --
01C0:                                   1C 2A 80 32 2A             .*.2*
01D0: 80 1F 00 3F 80 40 80 41  80 1F 01 6F 00           ...?.@.A...o.   
```

#### Opcodes

```
  0: 0x01CB [0x1C] WAIT(10* ticks)
  1: 0x01CE [0x32] ExtData[1]->MainSpeed = 10* * 0.1
  2: 0x01D1 [0x1F] MOVE_ENTITY: EventEntity moves to X=155.794*, Z=3.221*, Y=-44.000*
  3: 0x01D9 [0x1F] MOVE_ENTITY: Update entity position (mode=1)
  4: 0x01DB [0x6F] WAIT_FRAME_DELAY: Yield until WaitTime reaches zero
  5: 0x01DC [0x00] END_REQSTACK()
```

### Event 65535.46

#### Metadata

| Field        | Value    |
|--------------|----------|
| Entrypoint   | 0x01DD   |
| Data Size    | 18 bytes |
| Instructions | 6        |

```
      00 01 02 03 04 05 06 07  08 09 0A 0B 0C 0D 0E 0F
      -- -- -- -- -- -- -- --  -- -- -- -- -- -- -- --
01D0:                                         1C 1C 80               ...
01E0: 32 2A 80 1F 00 42 80 43  80 44 80 1F 01 6F 00     2*...B.C.D...o. 
```

#### Opcodes

```
  0: 0x01DD [0x1C] WAIT(30* ticks)
  1: 0x01E0 [0x32] ExtData[1]->MainSpeed = 10* * 0.1
  2: 0x01E3 [0x1F] MOVE_ENTITY: EventEntity moves to X=154.405*, Z=5.013*, Y=-43.999*
  3: 0x01EB [0x1F] MOVE_ENTITY: Update entity position (mode=1)
  4: 0x01ED [0x6F] WAIT_FRAME_DELAY: Yield until WaitTime reaches zero
  5: 0x01EE [0x00] END_REQSTACK()
```

### Event 65535.47

#### Metadata

| Field        | Value   |
|--------------|---------|
| Entrypoint   | 0x01EF  |
| Data Size    | 5 bytes |
| Instructions | 2       |

```
      00 01 02 03 04 05 06 07  08 09 0A 0B 0C 0D 0E 0F
      -- -- -- -- -- -- -- --  -- -- -- -- -- -- -- --
01E0:                                               B6                 .
01F0: 00 45 80 00                                       .E..            
```

#### Opcodes

```
  0: 0x01EF [0xB6] ENTITY_APPEARANCE_HANDLER(case=Hair style, value=2267*)
  1: 0x01F3 [0x00] END_REQSTACK()
```

### Event 65535.48

#### Metadata

| Field        | Value   |
|--------------|---------|
| Entrypoint   | 0x01F4  |
| Data Size    | 5 bytes |
| Instructions | 2       |

```
      00 01 02 03 04 05 06 07  08 09 0A 0B 0C 0D 0E 0F
      -- -- -- -- -- -- -- --  -- -- -- -- -- -- -- --
01F0:             B6 00 46 80  00                           ..F..       
```

#### Opcodes

```
  0: 0x01F4 [0xB6] ENTITY_APPEARANCE_HANDLER(case=Hair style, value=2265*)
  1: 0x01F8 [0x00] END_REQSTACK()
```

### Event 65535.49

#### Metadata

| Field        | Value   |
|--------------|---------|
| Entrypoint   | 0x01F9  |
| Data Size    | 5 bytes |
| Instructions | 2       |

```
      00 01 02 03 04 05 06 07  08 09 0A 0B 0C 0D 0E 0F
      -- -- -- -- -- -- -- --  -- -- -- -- -- -- -- --
01F0:                             B6 00 45 80 00                 ..E..  
```

#### Opcodes

```
  0: 0x01F9 [0xB6] ENTITY_APPEARANCE_HANDLER(case=Hair style, value=2267*)
  1: 0x01FD [0x00] END_REQSTACK()
```

### Event 65535.50

#### Metadata

| Field        | Value   |
|--------------|---------|
| Entrypoint   | 0x01FE  |
| Data Size    | 5 bytes |
| Instructions | 2       |

```
      00 01 02 03 04 05 06 07  08 09 0A 0B 0C 0D 0E 0F
      -- -- -- -- -- -- -- --  -- -- -- -- -- -- -- --
01F0:                                            B6 00                ..
0200: 47 80 00                                          G..             
```

#### Opcodes

```
  0: 0x01FE [0xB6] ENTITY_APPEARANCE_HANDLER(case=Hair style, value=2268*)
  1: 0x0202 [0x00] END_REQSTACK()
```

### Event 65535.51

#### Metadata

| Field        | Value   |
|--------------|---------|
| Entrypoint   | 0x0203  |
| Data Size    | 5 bytes |
| Instructions | 2       |

```
      00 01 02 03 04 05 06 07  08 09 0A 0B 0C 0D 0E 0F
      -- -- -- -- -- -- -- --  -- -- -- -- -- -- -- --
0200:          B6 00 46 80 00                              ..F..        
```

#### Opcodes

```
  0: 0x0203 [0xB6] ENTITY_APPEARANCE_HANDLER(case=Hair style, value=2265*)
  1: 0x0207 [0x00] END_REQSTACK()
```

### Event 65535.52

#### Metadata

| Field        | Value   |
|--------------|---------|
| Entrypoint   | 0x0208  |
| Data Size    | 5 bytes |
| Instructions | 2       |

```
      00 01 02 03 04 05 06 07  08 09 0A 0B 0C 0D 0E 0F
      -- -- -- -- -- -- -- --  -- -- -- -- -- -- -- --
0200:                          B6 00 47 80 00                   ..G..   
```

#### Opcodes

```
  0: 0x0208 [0xB6] ENTITY_APPEARANCE_HANDLER(case=Hair style, value=2268*)
  1: 0x020C [0x00] END_REQSTACK()
```

### Event 65535.53

#### Metadata

| Field        | Value   |
|--------------|---------|
| Entrypoint   | 0x020D  |
| Data Size    | 5 bytes |
| Instructions | 2       |

```
      00 01 02 03 04 05 06 07  08 09 0A 0B 0C 0D 0E 0F
      -- -- -- -- -- -- -- --  -- -- -- -- -- -- -- --
0200:                                         B6 00 45               ..E
0210: 80 00                                             ..              
```

#### Opcodes

```
  0: 0x020D [0xB6] ENTITY_APPEARANCE_HANDLER(case=Hair style, value=2267*)
  1: 0x0211 [0x00] END_REQSTACK()
```

### Event 65535.54

#### Metadata

| Field        | Value    |
|--------------|----------|
| Entrypoint   | 0x0212   |
| Data Size    | 18 bytes |
| Instructions | 6        |

```
      00 01 02 03 04 05 06 07  08 09 0A 0B 0C 0D 0E 0F
      -- -- -- -- -- -- -- --  -- -- -- -- -- -- -- --
0210:       1C 48 80 32 49 80  1F 00 4A 80 4B 80 4C 80    .H.2I...J.K.L.
0220: 1F 01 6F 00                                       ..o.            
```

#### Opcodes

```
  0: 0x0212 [0x1C] WAIT(60* ticks)
  1: 0x0215 [0x32] ExtData[1]->MainSpeed = 38* * 0.1
  2: 0x0218 [0x1F] MOVE_ENTITY: EventEntity moves to X=-36.762*, Z=78.329*, Y=-68.073*
  3: 0x0220 [0x1F] MOVE_ENTITY: Update entity position (mode=1)
  4: 0x0222 [0x6F] WAIT_FRAME_DELAY: Yield until WaitTime reaches zero
  5: 0x0223 [0x00] END_REQSTACK()
```

### Event 65535.55

#### Metadata

| Field        | Value    |
|--------------|----------|
| Entrypoint   | 0x0224   |
| Data Size    | 18 bytes |
| Instructions | 6        |

```
      00 01 02 03 04 05 06 07  08 09 0A 0B 0C 0D 0E 0F
      -- -- -- -- -- -- -- --  -- -- -- -- -- -- -- --
0220:             1C 1C 80 32  4D 80 1F 00 4E 80 4F 80      ...2M...N.O.
0230: 50 80 1F 01 6F 00                                 P...o.          
```

#### Opcodes

```
  0: 0x0224 [0x1C] WAIT(30* ticks)
  1: 0x0227 [0x32] ExtData[1]->MainSpeed = 39* * 0.1
  2: 0x022A [0x1F] MOVE_ENTITY: EventEntity moves to X=-30.949*, Z=79.134*, Y=-68.054*
  3: 0x0232 [0x1F] MOVE_ENTITY: Update entity position (mode=1)
  4: 0x0234 [0x6F] WAIT_FRAME_DELAY: Yield until WaitTime reaches zero
  5: 0x0235 [0x00] END_REQSTACK()
```

### Event 65535.56

#### Metadata

| Field        | Value    |
|--------------|----------|
| Entrypoint   | 0x0236   |
| Data Size    | 14 bytes |
| Instructions | 4        |

```
      00 01 02 03 04 05 06 07  08 09 0A 0B 0C 0D 0E 0F
      -- -- -- -- -- -- -- --  -- -- -- -- -- -- -- --
0230:                   32 51  80 5A 00 52 80 53 80 54        2Q.Z.R.S.T
0240: 80 5A 01 00                                       .Z..            
```

#### Opcodes

```
  0: 0x0236 [0x32] ExtData[1]->MainSpeed = 37* * 0.1
  1: 0x0239 [0x5A] UPDATE_EVENT_POSITION: Set EventEntity MovePosition to X=-206.016*, Z=-60.132*, Y=-104.400*
  2: 0x0241 [0x5A] UPDATE_EVENT_POSITION: Move EventEntity incrementally towards MovePosition
  3: 0x0243 [0x00] END_REQSTACK()
```

### Event 65535.57

#### Metadata

| Field        | Value    |
|--------------|----------|
| Entrypoint   | 0x0244   |
| Data Size    | 30 bytes |
| Instructions | 6        |

```
      00 01 02 03 04 05 06 07  08 09 0A 0B 0C 0D 0E 0F
      -- -- -- -- -- -- -- --  -- -- -- -- -- -- -- --
0240:             32 55 80 1F  00 56 80 57 80 58 80 1F      2U...V.W.X..
0250: 01 6F 5B 59 80 F8 FF FF  7F F8 FF FF 7F 73 70 70  .o[Y.........spp
0260: 30 00                                             0.              
```

#### Opcodes

```
  0: 0x0244 [0x32] ExtData[1]->MainSpeed = 18* * 0.1
  1: 0x0247 [0x1F] MOVE_ENTITY: EventEntity moves to X=-93.448*, Z=-58.006*, Y=-68.249*
  2: 0x024F [0x1F] MOVE_ENTITY: Update entity position (mode=1)
  3: 0x0251 [0x6F] WAIT_FRAME_DELAY: Yield until WaitTime reaches zero
  4: 0x0252 [0x5B] LOAD_EXT_SCHEDULER: Load scheduler "spp0" with entities [EventEntity, EventEntity], work=2227*
  5: 0x0261 [0x00] END_REQSTACK()
```

### Event 65535.58

#### Metadata

| Field        | Value    |
|--------------|----------|
| Entrypoint   | 0x0262   |
| Data Size    | 15 bytes |
| Instructions | 5        |

```
      00 01 02 03 04 05 06 07  08 09 0A 0B 0C 0D 0E 0F
      -- -- -- -- -- -- -- --  -- -- -- -- -- -- -- --
0260:       32 36 80 1F 00 5A  80 5B 80 5C 80 1F 01 6F    26...Z.[.\...o
0270: 00                                                .               
```

#### Opcodes

```
  0: 0x0262 [0x32] ExtData[1]->MainSpeed = 20* * 0.1
  1: 0x0265 [0x1F] MOVE_ENTITY: EventEntity moves to X=-62.393*, Z=-63.522*, Y=-68.014*
  2: 0x026D [0x1F] MOVE_ENTITY: Update entity position (mode=1)
  3: 0x026F [0x6F] WAIT_FRAME_DELAY: Yield until WaitTime reaches zero
  4: 0x0270 [0x00] END_REQSTACK()
```

### Event 65535.59

#### Metadata

| Field        | Value    |
|--------------|----------|
| Entrypoint   | 0x0271   |
| Data Size    | 30 bytes |
| Instructions | 6        |

```
      00 01 02 03 04 05 06 07  08 09 0A 0B 0C 0D 0E 0F
      -- -- -- -- -- -- -- --  -- -- -- -- -- -- -- --
0270:    32 5D 80 1F 00 5E 80  5F 80 60 80 1F 01 6F 5B   2]...^._.`...o[
0280: 59 80 F8 FF FF 7F F8 FF  FF 7F 73 70 70 30 00     Y.........spp0. 
```

#### Opcodes

```
  0: 0x0271 [0x32] ExtData[1]->MainSpeed = 17* * 0.1
  1: 0x0274 [0x1F] MOVE_ENTITY: EventEntity moves to X=-88.906*, Z=-58.078*, Y=-68.000*
  2: 0x027C [0x1F] MOVE_ENTITY: Update entity position (mode=1)
  3: 0x027E [0x6F] WAIT_FRAME_DELAY: Yield until WaitTime reaches zero
  4: 0x027F [0x5B] LOAD_EXT_SCHEDULER: Load scheduler "spp0" with entities [EventEntity, EventEntity], work=2227*
  5: 0x028E [0x00] END_REQSTACK()
```

### Event 65535.60

#### Metadata

| Field        | Value    |
|--------------|----------|
| Entrypoint   | 0x028F   |
| Data Size    | 25 bytes |
| Instructions | 7        |

```
      00 01 02 03 04 05 06 07  08 09 0A 0B 0C 0D 0E 0F
      -- -- -- -- -- -- -- --  -- -- -- -- -- -- -- --
0280:                                               32                 2
0290: 55 80 1F 00 61 80 62 80  58 80 1F 01 1F 00 63 80  U...a.b.X.....c.
02A0: 64 80 60 80 1F 01 6F 00                           d.`...o.        
```

#### Opcodes

```
  0: 0x028F [0x32] ExtData[1]->MainSpeed = 18* * 0.1
  1: 0x0292 [0x1F] MOVE_ENTITY: EventEntity moves to X=-64.793*, Z=-62.395*, Y=-68.249*
  2: 0x029A [0x1F] MOVE_ENTITY: Update entity position (mode=1)
  3: 0x029C [0x1F] MOVE_ENTITY: EventEntity moves to X=-69.110*, Z=-61.473*, Y=-68.000*
  4: 0x02A4 [0x1F] MOVE_ENTITY: Update entity position (mode=1)
  5: 0x02A6 [0x6F] WAIT_FRAME_DELAY: Yield until WaitTime reaches zero
  6: 0x02A7 [0x00] END_REQSTACK()
```

### Event 65535.61

#### Metadata

| Field        | Value    |
|--------------|----------|
| Entrypoint   | 0x02A8   |
| Data Size    | 15 bytes |
| Instructions | 5        |

```
      00 01 02 03 04 05 06 07  08 09 0A 0B 0C 0D 0E 0F
      -- -- -- -- -- -- -- --  -- -- -- -- -- -- -- --
02A0:                          32 65 80 1F 00 66 80 67          2e...f.g
02B0: 80 68 80 1F 01 6F 00                              .h...o.         
```

#### Opcodes

```
  0: 0x02A8 [0x32] ExtData[1]->MainSpeed = 19* * 0.1
  1: 0x02AB [0x1F] MOVE_ENTITY: EventEntity moves to X=-62.157*, Z=-61.264*, Y=-67.927*
  2: 0x02B3 [0x1F] MOVE_ENTITY: Update entity position (mode=1)
  3: 0x02B5 [0x6F] WAIT_FRAME_DELAY: Yield until WaitTime reaches zero
  4: 0x02B6 [0x00] END_REQSTACK()
```

### Event 65535.62

#### Metadata

| Field        | Value    |
|--------------|----------|
| Entrypoint   | 0x02B7   |
| Data Size    | 15 bytes |
| Instructions | 5        |

```
      00 01 02 03 04 05 06 07  08 09 0A 0B 0C 0D 0E 0F
      -- -- -- -- -- -- -- --  -- -- -- -- -- -- -- --
02B0:                      32  69 80 1F 00 6A 80 6B 80         2i...j.k.
02C0: 6C 80 1F 01 6F 00                                 l...o.          
```

#### Opcodes

```
  0: 0x02B7 [0x32] ExtData[1]->MainSpeed = 69* * 0.1
  1: 0x02BA [0x1F] MOVE_ENTITY: EventEntity moves to X=-89.790*, Z=-57.410*, Y=-68.212*
  2: 0x02C2 [0x1F] MOVE_ENTITY: Update entity position (mode=1)
  3: 0x02C4 [0x6F] WAIT_FRAME_DELAY: Yield until WaitTime reaches zero
  4: 0x02C5 [0x00] END_REQSTACK()
```

### Event 65535.63

#### Metadata

| Field        | Value    |
|--------------|----------|
| Entrypoint   | 0x02C6   |
| Data Size    | 25 bytes |
| Instructions | 7        |

```
      00 01 02 03 04 05 06 07  08 09 0A 0B 0C 0D 0E 0F
      -- -- -- -- -- -- -- --  -- -- -- -- -- -- -- --
02C0:                   32 6D  80 1F 00 6E 80 6F 80 70        2m...n.o.p
02D0: 80 1F 01 1F 00 71 80 72  80 70 80 1F 01 6F 00     .....q.r.p...o. 
```

#### Opcodes

```
  0: 0x02C6 [0x32] ExtData[1]->MainSpeed = 70* * 0.1
  1: 0x02C9 [0x1F] MOVE_ENTITY: EventEntity moves to X=-101.436*, Z=-59.231*, Y=-69.494*
  2: 0x02D1 [0x1F] MOVE_ENTITY: Update entity position (mode=1)
  3: 0x02D3 [0x1F] MOVE_ENTITY: EventEntity moves to X=-92.230*, Z=-57.698*, Y=-69.494*
  4: 0x02DB [0x1F] MOVE_ENTITY: Update entity position (mode=1)
  5: 0x02DD [0x6F] WAIT_FRAME_DELAY: Yield until WaitTime reaches zero
  6: 0x02DE [0x00] END_REQSTACK()
```

### Event 65535.64

#### Metadata

| Field        | Value    |
|--------------|----------|
| Entrypoint   | 0x02DF   |
| Data Size    | 28 bytes |
| Instructions | 8        |

```
      00 01 02 03 04 05 06 07  08 09 0A 0B 0C 0D 0E 0F
      -- -- -- -- -- -- -- --  -- -- -- -- -- -- -- --
02D0:                                               1C                 .
02E0: 2E 80 32 00 80 1F 00 73  80 74 80 75 80 1F 01 1F  ..2....s.t.u....
02F0: 00 76 80 77 80 78 80 1F  01 6F 00                 .v.w.x...o.     
```

#### Opcodes

```
  0: 0x02DF [0x1C] WAIT(15* ticks)
  1: 0x02E2 [0x32] ExtData[1]->MainSpeed = 40* * 0.1
  2: 0x02E5 [0x1F] MOVE_ENTITY: EventEntity moves to X=132.218*, Z=0.664*, Y=-43.591*
  3: 0x02ED [0x1F] MOVE_ENTITY: Update entity position (mode=1)
  4: 0x02EF [0x1F] MOVE_ENTITY: EventEntity moves to X=114.160*, Z=0.371*, Y=-44.235*
  5: 0x02F7 [0x1F] MOVE_ENTITY: Update entity position (mode=1)
  6: 0x02F9 [0x6F] WAIT_FRAME_DELAY: Yield until WaitTime reaches zero
  7: 0x02FA [0x00] END_REQSTACK()
```

### Event 65535.65

#### Metadata

| Field        | Value    |
|--------------|----------|
| Entrypoint   | 0x02FB   |
| Data Size    | 15 bytes |
| Instructions | 5        |

```
      00 01 02 03 04 05 06 07  08 09 0A 0B 0C 0D 0E 0F
      -- -- -- -- -- -- -- --  -- -- -- -- -- -- -- --
02F0:                                   32 79 80 1F 00             2y...
0300: 7A 80 7B 80 7C 80 1F 01  6F 00                    z.{.|...o.      
```

#### Opcodes

```
  0: 0x02FB [0x32] ExtData[1]->MainSpeed = 43* * 0.1
  1: 0x02FE [0x1F] MOVE_ENTITY: EventEntity moves to X=112.639*, Z=-0.426*, Y=-44.425*
  2: 0x0306 [0x1F] MOVE_ENTITY: Update entity position (mode=1)
  3: 0x0308 [0x6F] WAIT_FRAME_DELAY: Yield until WaitTime reaches zero
  4: 0x0309 [0x00] END_REQSTACK()
```

### Event 65535.66

#### Metadata

| Field        | Value    |
|--------------|----------|
| Entrypoint   | 0x030A   |
| Data Size    | 15 bytes |
| Instructions | 5        |

```
      00 01 02 03 04 05 06 07  08 09 0A 0B 0C 0D 0E 0F
      -- -- -- -- -- -- -- --  -- -- -- -- -- -- -- --
0300:                                32 00 80 1F 00 7D            2....}
0310: 80 7E 80 7F 80 1F 01 6F  00                       .~.....o.       
```

#### Opcodes

```
  0: 0x030A [0x32] ExtData[1]->MainSpeed = 40* * 0.1
  1: 0x030D [0x1F] MOVE_ENTITY: EventEntity moves to X=94.528*, Z=-12.740*, Y=-51.272*
  2: 0x0315 [0x1F] MOVE_ENTITY: Update entity position (mode=1)
  3: 0x0317 [0x6F] WAIT_FRAME_DELAY: Yield until WaitTime reaches zero
  4: 0x0318 [0x00] END_REQSTACK()
```

### Event 65535.67

#### Metadata

| Field        | Value   |
|--------------|---------|
| Entrypoint   | 0x0319  |
| Data Size    | 5 bytes |
| Instructions | 2       |

```
      00 01 02 03 04 05 06 07  08 09 0A 0B 0C 0D 0E 0F
      -- -- -- -- -- -- -- --  -- -- -- -- -- -- -- --
0310:                             B6 00 80 80 00                 .....  
```

#### Opcodes

```
  0: 0x0319 [0xB6] ENTITY_APPEARANCE_HANDLER(case=Hair style, value=52*)
  1: 0x031D [0x00] END_REQSTACK()
```

### Event 65535.68

#### Metadata

| Field        | Value   |
|--------------|---------|
| Entrypoint   | 0x031E  |
| Data Size    | 5 bytes |
| Instructions | 2       |

```
      00 01 02 03 04 05 06 07  08 09 0A 0B 0C 0D 0E 0F
      -- -- -- -- -- -- -- --  -- -- -- -- -- -- -- --
0310:                                            B6 00                ..
0320: 80 80 00                                          ...             
```

#### Opcodes

```
  0: 0x031E [0xB6] ENTITY_APPEARANCE_HANDLER(case=Hair style, value=52*)
  1: 0x0322 [0x00] END_REQSTACK()
```

### Event 65535.69

#### Metadata

| Field        | Value   |
|--------------|---------|
| Entrypoint   | 0x0323  |
| Data Size    | 5 bytes |
| Instructions | 2       |

```
      00 01 02 03 04 05 06 07  08 09 0A 0B 0C 0D 0E 0F
      -- -- -- -- -- -- -- --  -- -- -- -- -- -- -- --
0320:          B6 00 80 80 00                              .....        
```

#### Opcodes

```
  0: 0x0323 [0xB6] ENTITY_APPEARANCE_HANDLER(case=Hair style, value=52*)
  1: 0x0327 [0x00] END_REQSTACK()
```

### Event 65535.70

#### Metadata

| Field        | Value    |
|--------------|----------|
| Entrypoint   | 0x0328   |
| Data Size    | 15 bytes |
| Instructions | 5        |

```
      00 01 02 03 04 05 06 07  08 09 0A 0B 0C 0D 0E 0F
      -- -- -- -- -- -- -- --  -- -- -- -- -- -- -- --
0320:                          32 81 80 1F 00 82 80 83          2.......
0330: 80 60 80 1F 01 6F 00                              .`...o.         
```

#### Opcodes

```
  0: 0x0328 [0x32] ExtData[1]->MainSpeed = 68* * 0.1
  1: 0x032B [0x1F] MOVE_ENTITY: EventEntity moves to X=-90.901*, Z=-57.802*, Y=-68.000*
  2: 0x0333 [0x1F] MOVE_ENTITY: Update entity position (mode=1)
  3: 0x0335 [0x6F] WAIT_FRAME_DELAY: Yield until WaitTime reaches zero
  4: 0x0336 [0x00] END_REQSTACK()
```

### Event 65535.71

#### Metadata

| Field        | Value    |
|--------------|----------|
| Entrypoint   | 0x0337   |
| Data Size    | 25 bytes |
| Instructions | 7        |

```
      00 01 02 03 04 05 06 07  08 09 0A 0B 0C 0D 0E 0F
      -- -- -- -- -- -- -- --  -- -- -- -- -- -- -- --
0330:                      32  6D 80 1F 00 84 80 85 80         2m.......
0340: 86 80 1F 01 1F 00 87 80  88 80 60 80 1F 01 6F 00  ..........`...o.
```

#### Opcodes

```
  0: 0x0337 [0x32] ExtData[1]->MainSpeed = 70* * 0.1
  1: 0x033A [0x1F] MOVE_ENTITY: EventEntity moves to X=-102.879*, Z=-58.844*, Y=-67.937*
  2: 0x0342 [0x1F] MOVE_ENTITY: Update entity position (mode=1)
  3: 0x0344 [0x1F] MOVE_ENTITY: EventEntity moves to X=-90.940*, Z=-57.859*, Y=-68.000*
  4: 0x034C [0x1F] MOVE_ENTITY: Update entity position (mode=1)
  5: 0x034E [0x6F] WAIT_FRAME_DELAY: Yield until WaitTime reaches zero
  6: 0x034F [0x00] END_REQSTACK()
```

### Event 65535.72

#### Metadata

| Field        | Value    |
|--------------|----------|
| Entrypoint   | 0x0350   |
| Data Size    | 25 bytes |
| Instructions | 7        |

```
      00 01 02 03 04 05 06 07  08 09 0A 0B 0C 0D 0E 0F
      -- -- -- -- -- -- -- --  -- -- -- -- -- -- -- --
0350: 32 69 80 1F 00 89 80 8A  80 8B 80 1F 01 1F 00 8C  2i..............
0360: 80 8D 80 60 80 1F 01 6F  00                       ...`...o.       
```

#### Opcodes

```
  0: 0x0350 [0x32] ExtData[1]->MainSpeed = 69* * 0.1
  1: 0x0353 [0x1F] MOVE_ENTITY: EventEntity moves to X=-102.947*, Z=-56.180*, Y=-67.941*
  2: 0x035B [0x1F] MOVE_ENTITY: Update entity position (mode=1)
  3: 0x035D [0x1F] MOVE_ENTITY: EventEntity moves to X=-91.019*, Z=-57.757*, Y=-68.000*
  4: 0x0365 [0x1F] MOVE_ENTITY: Update entity position (mode=1)
  5: 0x0367 [0x6F] WAIT_FRAME_DELAY: Yield until WaitTime reaches zero
  6: 0x0368 [0x00] END_REQSTACK()
```

### Event 65535.73

#### Metadata

| Field        | Value   |
|--------------|---------|
| Entrypoint   | 0x0369  |
| Data Size    | 5 bytes |
| Instructions | 2       |

```
      00 01 02 03 04 05 06 07  08 09 0A 0B 0C 0D 0E 0F
      -- -- -- -- -- -- -- --  -- -- -- -- -- -- -- --
0360:                             B6 00 8E 80 00                 .....  
```

#### Opcodes

```
  0: 0x0369 [0xB6] ENTITY_APPEARANCE_HANDLER(case=Hair style, value=2264*)
  1: 0x036D [0x00] END_REQSTACK()
```

### Event 65535.74

#### Metadata

| Field        | Value   |
|--------------|---------|
| Entrypoint   | 0x036E  |
| Data Size    | 4 bytes |
| Instructions | 2       |

```
      00 01 02 03 04 05 06 07  08 09 0A 0B 0C 0D 0E 0F
      -- -- -- -- -- -- -- --  -- -- -- -- -- -- -- --
0360:                                            C0 8F                ..
0370: 80 00                                             ..              
```

#### Opcodes

```
  0: 0x036E [0xC0] EventEntity->Render.Flags3 |= 0x1000 // Set bit 12 (from 1*)
  1: 0x0371 [0x00] END_REQSTACK()
```
