# 17171188 - Romaa Mihgo

## Common Data

| Field            | Value                           |
|------------------|---------------------------------|
| Zone             | Fort Karugo-Narugo [S] (ID: 96) |
| Block Size       | 828 bytes                       |
| Total Events     | 35                              |
| References Count | 59                              |

## List of Events

| Event ID                   | Entrypoint   |   Size |   Instructions |
|----------------------------|--------------|--------|----------------|
| [65535](#event-65535)      | 0x0000       |      1 |              1 |
| [102](#event-102)          | 0x0001       |      1 |              1 |
| [103](#event-103)          | 0x0002       |      1 |              1 |
| [101](#event-101)          | 0x0003       |      1 |              1 |
| [65535.1](#event-655351)   | 0x0004       |     15 |              5 |
| [65535.2](#event-655352)   | 0x0013       |     20 |              6 |
| [106](#event-106)          | 0x0027       |      1 |              1 |
| [65535.3](#event-655353)   | 0x0028       |     38 |              8 |
| [65535.4](#event-655354)   | 0x004E       |      4 |              2 |
| [65535.5](#event-655355)   | 0x0052       |     21 |              2 |
| [65535.6](#event-655356)   | 0x0067       |     21 |              2 |
| [65535.7](#event-655357)   | 0x007C       |      5 |              2 |
| [65535.8](#event-655358)   | 0x0081       |     34 |              8 |
| [105](#event-105)          | 0x00A3       |      1 |              1 |
| [65535.9](#event-655359)   | 0x00A4       |     29 |              7 |
| [111](#event-111)          | 0x00C1       |      1 |              1 |
| [112](#event-112)          | 0x00C2       |      1 |              1 |
| [113](#event-113)          | 0x00C3       |      1 |              1 |
| [65535.10](#event-6553510) | 0x00C4       |      5 |              2 |
| [65535.11](#event-6553511) | 0x00C9       |      5 |              2 |
| [65535.12](#event-6553512) | 0x00CE       |      5 |              2 |
| [65535.13](#event-6553513) | 0x00D3       |      5 |              2 |
| [65535.14](#event-6553514) | 0x00D8       |      5 |              2 |
| [65535.15](#event-6553515) | 0x00DD       |     21 |              2 |
| [65535.16](#event-6553516) | 0x00F2       |     21 |              2 |
| [65535.17](#event-6553517) | 0x0107       |      5 |              2 |
| [65535.18](#event-6553518) | 0x010C       |     25 |              3 |
| [65535.19](#event-6553519) | 0x0125       |     25 |              3 |
| [65535.20](#event-6553520) | 0x013E       |     25 |              3 |
| [65535.21](#event-6553521) | 0x0157       |     14 |              4 |
| [65535.22](#event-6553522) | 0x0165       |     14 |              4 |
| [65535.23](#event-6553523) | 0x0173       |     22 |              6 |
| [65535.24](#event-6553524) | 0x0189       |     18 |              6 |
| [65535.25](#event-6553525) | 0x019B       |     20 |              6 |
| [65535.26](#event-6553526) | 0x01AF       |      4 |              2 |

## DAT References (imed_data)

|   Index | Hex Value   |   Dec Value |
|---------|-------------|-------------|
|       0 | 0x000B      |          11 |
|       1 | 0x12EF4     |       77556 |
|       2 | 0x2709D     |      159901 |
|       3 | 0xFFFEFB5E  |  4294900574 |
|       4 | 0x0028      |          40 |
|       5 | 0x305F0     |      198128 |
|       6 | 0x8A36      |       35382 |
|       7 | 0xFFFF91F9  |  4294939129 |
|       8 | 0x0025      |          37 |
|       9 | 0x10A31     |       68145 |
|      10 | 0xFFFFF8B3  |  4294965427 |
|      11 | 0xFFFF034D  |  4294902605 |
|      12 | 0x0003      |           3 |
|      13 | 0x052F      |        1327 |
|      14 | 0x0578      |        1400 |
|      15 | 0x0007      |           7 |
|      16 | 0x0009      |           9 |
|      17 | 0x0089      |         137 |
|      18 | 0x006E      |         110 |
|      19 | 0x0010      |          16 |
|      20 | 0x000D      |          13 |
|      21 | 0x017D      |         381 |
|      22 | 0x0000      |           0 |
|      23 | 0x0064      |         100 |
|      24 | 0xFFFF189E  |  4294908062 |
|      25 | 0x1F7A      |        8058 |
|      26 | 0xFFFED8BF  |  4294891711 |
|      27 | 0x0F15      |        3861 |
|      28 | 0xFFFF0AA5  |  4294904485 |
|      29 | 0x1446      |        5190 |
|      30 | 0x1EA4F     |      125519 |
|      31 | 0xFFFFF8DD  |  4294965469 |
|      32 | 0xFFFF3FFE  |  4294918142 |
|      33 | 0x0012      |          18 |
|      34 | 0x1EAC9     |      125641 |
|      35 | 0x0D99      |        3481 |
|      36 | 0x005D      |          93 |
|      37 | 0x02F3      |         755 |
|      38 | 0x043C      |        1084 |
|      39 | 0x08C3      |        2243 |
|      40 | 0x005E      |          94 |
|      41 | 0x000E      |          14 |
|      42 | 0x0317      |         791 |
|      43 | 0xFFFFCF94  |  4294954900 |
|      44 | 0xFFFECAF5  |  4294888181 |
|      45 | 0xFFFEF661  |  4294899297 |
|      46 | 0xFFFFCFBC  |  4294954940 |
|      47 | 0xFFFEC473  |  4294886515 |
|      48 | 0xFFF8DEBA  |  4294500026 |
|      49 | 0xC0BF      |       49343 |
|      50 | 0xFFFF8E45  |  4294938181 |
|      51 | 0x001E      |          30 |
|      52 | 0xFFFF10C6  |  4294906054 |
|      53 | 0x0E5C      |        3676 |
|      54 | 0x002A      |          42 |
|      55 | 0xFFFE6333  |  4294861619 |
|      56 | 0xFFFFFBE5  |  4294966245 |
|      57 | 0xFFFEC7F2  |  4294887410 |
|      58 | 0x0001      |           1 |

## Events

### Event 65535

#### Metadata

| Field        | Value   |
|--------------|---------|
| Entrypoint   | 0x0000  |
| Data Size    | 1 bytes |
| Instructions | 1       |

```
      00 01 02 03 04 05 06 07  08 09 0A 0B 0C 0D 0E 0F
      -- -- -- -- -- -- -- --  -- -- -- -- -- -- -- --
0000: 00                                                .               
```

#### Opcodes

```
  0: 0x0000 [0x00] END_REQSTACK()
```

### Event 102

#### Metadata

| Field        | Value   |
|--------------|---------|
| Entrypoint   | 0x0001  |
| Data Size    | 1 bytes |
| Instructions | 1       |

```
      00 01 02 03 04 05 06 07  08 09 0A 0B 0C 0D 0E 0F
      -- -- -- -- -- -- -- --  -- -- -- -- -- -- -- --
0000:    00                                              .              
```

#### Opcodes

```
  0: 0x0001 [0x00] END_REQSTACK()
```

### Event 103

#### Metadata

| Field        | Value   |
|--------------|---------|
| Entrypoint   | 0x0002  |
| Data Size    | 1 bytes |
| Instructions | 1       |

```
      00 01 02 03 04 05 06 07  08 09 0A 0B 0C 0D 0E 0F
      -- -- -- -- -- -- -- --  -- -- -- -- -- -- -- --
0000:       00                                            .             
```

#### Opcodes

```
  0: 0x0002 [0x00] END_REQSTACK()
```

### Event 101

#### Metadata

| Field        | Value   |
|--------------|---------|
| Entrypoint   | 0x0003  |
| Data Size    | 1 bytes |
| Instructions | 1       |

```
      00 01 02 03 04 05 06 07  08 09 0A 0B 0C 0D 0E 0F
      -- -- -- -- -- -- -- --  -- -- -- -- -- -- -- --
0000:          00                                          .            
```

#### Opcodes

```
  0: 0x0003 [0x00] END_REQSTACK()
```

### Event 65535.1

#### Metadata

| Field        | Value    |
|--------------|----------|
| Entrypoint   | 0x0004   |
| Data Size    | 15 bytes |
| Instructions | 5        |

```
      00 01 02 03 04 05 06 07  08 09 0A 0B 0C 0D 0E 0F
      -- -- -- -- -- -- -- --  -- -- -- -- -- -- -- --
0000:             32 00 80 1F  00 01 80 02 80 03 80 1F      2...........
0010: 01 6F 00                                          .o.             
```

#### Opcodes

```
  0: 0x0004 [0x32] ExtData[1]->MainSpeed = 11* * 0.1
  1: 0x0007 [0x1F] MOVE_ENTITY: EventEntity moves to X=77.556*, Z=159.901*, Y=-66.722*
  2: 0x000F [0x1F] MOVE_ENTITY: Update entity position (mode=1)
  3: 0x0011 [0x6F] WAIT_FRAME_DELAY: Yield until WaitTime reaches zero
  4: 0x0012 [0x00] END_REQSTACK()
```

### Event 65535.2

#### Metadata

| Field        | Value    |
|--------------|----------|
| Entrypoint   | 0x0013   |
| Data Size    | 20 bytes |
| Instructions | 6        |

```
      00 01 02 03 04 05 06 07  08 09 0A 0B 0C 0D 0E 0F
      -- -- -- -- -- -- -- --  -- -- -- -- -- -- -- --
0010:          32 04 80 1F 00  05 80 06 80 07 80 1F 01     2............
0020: 6F 1E F2 02 06 01 00                              o......         
```

#### Opcodes

```
  0: 0x0013 [0x32] ExtData[1]->MainSpeed = 40* * 0.1
  1: 0x0016 [0x1F] MOVE_ENTITY: EventEntity moves to X=198.128*, Z=35.382*, Y=-28.167*
  2: 0x001E [0x1F] MOVE_ENTITY: Update entity position (mode=1)
  3: 0x0020 [0x6F] WAIT_FRAME_DELAY: Yield until WaitTime reaches zero
  4: 0x0021 [0x1E] EventEntity looks at Ajido-Marujido (ID: 17171186/0x010602F2) and starts talking
  5: 0x0026 [0x00] END_REQSTACK()
```

### Event 106

#### Metadata

| Field        | Value   |
|--------------|---------|
| Entrypoint   | 0x0027  |
| Data Size    | 1 bytes |
| Instructions | 1       |

```
      00 01 02 03 04 05 06 07  08 09 0A 0B 0C 0D 0E 0F
      -- -- -- -- -- -- -- --  -- -- -- -- -- -- -- --
0020:                      00                                  .        
```

#### Opcodes

```
  0: 0x0027 [0x00] END_REQSTACK()
```

### Event 65535.3

#### Metadata

| Field        | Value    |
|--------------|----------|
| Entrypoint   | 0x0028   |
| Data Size    | 38 bytes |
| Instructions | 8        |

```
      00 01 02 03 04 05 06 07  08 09 0A 0B 0C 0D 0E 0F
      -- -- -- -- -- -- -- --  -- -- -- -- -- -- -- --
0020:                          32 08 80 1F 00 09 80 0A          2.......
0030: 80 0B 80 1F 01 6F 1E F8  02 06 01 1C 0C 80 5B 0D  .....o........[.
0040: 80 F4 02 06 01 F4 02 06  01 73 74 62 30 00        .........stb0.  
```

#### Opcodes

```
  0: 0x0028 [0x32] ExtData[1]->MainSpeed = 37* * 0.1
  1: 0x002B [0x1F] MOVE_ENTITY: EventEntity moves to X=68.145*, Z=-1.869*, Y=-64.691*
  2: 0x0033 [0x1F] MOVE_ENTITY: Update entity position (mode=1)
  3: 0x0035 [0x6F] WAIT_FRAME_DELAY: Yield until WaitTime reaches zero
  4: 0x0036 [0x1E] EventEntity looks at Robel-Akbel (ID: 17171192/0x010602F8) and starts talking
  5: 0x003B [0x1C] WAIT(3* ticks)
  6: 0x003E [0x5B] LOAD_EXT_SCHEDULER: Load scheduler "stb0" with entities [Romaa Mihgo (ID: 17171188/0x010602F4), Romaa Mihgo (ID: 17171188/0x010602F4)], work=1327*
  7: 0x004D [0x00] END_REQSTACK()
```

### Event 65535.4

#### Metadata

| Field        | Value   |
|--------------|---------|
| Entrypoint   | 0x004E  |
| Data Size    | 4 bytes |
| Instructions | 2       |

```
      00 01 02 03 04 05 06 07  08 09 0A 0B 0C 0D 0E 0F
      -- -- -- -- -- -- -- --  -- -- -- -- -- -- -- --
0040:                                            39 0E                9.
0050: 80 00                                             ..              
```

#### Opcodes

```
  0: 0x004E [0x39] SET_ENTITY_DIRECTION(direction=7.7°*)
  1: 0x0051 [0x00] END_REQSTACK()
```

### Event 65535.5

#### Metadata

| Field        | Value    |
|--------------|----------|
| Entrypoint   | 0x0052   |
| Data Size    | 21 bytes |
| Instructions | 2        |

```
      00 01 02 03 04 05 06 07  08 09 0A 0B 0C 0D 0E 0F
      -- -- -- -- -- -- -- --  -- -- -- -- -- -- -- --
0050:       B6 0B 0F 80 10 80  11 80 12 80 13 80 12 80    ..............
0060: 14 80 15 80 16 80 00                              .......         
```

#### Opcodes

```
  0: 0x0052 [0xB6] ENTITY_APPEARANCE_HANDLER(case=Full entity look, race=7*, hair=9*, head=137*, body=110*, hands=16*, legs=110*, feet=13*, main=381*, sub=0*)
  1: 0x0066 [0x00] END_REQSTACK()
```

### Event 65535.6

#### Metadata

| Field        | Value    |
|--------------|----------|
| Entrypoint   | 0x0067   |
| Data Size    | 21 bytes |
| Instructions | 2        |

```
      00 01 02 03 04 05 06 07  08 09 0A 0B 0C 0D 0E 0F
      -- -- -- -- -- -- -- --  -- -- -- -- -- -- -- --
0060:                      B6  0B 0F 80 10 80 11 80 12         .........
0070: 80 13 80 12 80 14 80 16  80 16 80 00              ............    
```

#### Opcodes

```
  0: 0x0067 [0xB6] ENTITY_APPEARANCE_HANDLER(case=Full entity look, race=7*, hair=9*, head=137*, body=110*, hands=16*, legs=110*, feet=13*, main=0*, sub=0*)
  1: 0x007B [0x00] END_REQSTACK()
```

### Event 65535.7

#### Metadata

| Field        | Value   |
|--------------|---------|
| Entrypoint   | 0x007C  |
| Data Size    | 5 bytes |
| Instructions | 2       |

```
      00 01 02 03 04 05 06 07  08 09 0A 0B 0C 0D 0E 0F
      -- -- -- -- -- -- -- --  -- -- -- -- -- -- -- --
0070:                                      B6 0F 17 80              ....
0080: 00                                                .               
```

#### Opcodes

```
  0: 0x007C [0xB6] ENTITY_APPEARANCE_HANDLER(case=Model size, value=100*)
  1: 0x0080 [0x00] END_REQSTACK()
```

### Event 65535.8

#### Metadata

| Field        | Value    |
|--------------|----------|
| Entrypoint   | 0x0081   |
| Data Size    | 34 bytes |
| Instructions | 8        |

```
      00 01 02 03 04 05 06 07  08 09 0A 0B 0C 0D 0E 0F
      -- -- -- -- -- -- -- --  -- -- -- -- -- -- -- --
0080:    37 18 80 19 80 1A 80  1B 80 1E 18 03 06 01 32   7.............2
0090: 14 80 1F 00 1C 80 1D 80  1A 80 1F 01 6F 1E 18 03  ............o...
00A0: 06 01 00                                          ...             
```

#### Opcodes

```
  0: 0x0081 [0x37] UPDATE_EVENT_POSITION_AND_DIR: x=-59.234*, z=8.058*, y=-75.585*, direction=339.3°*
  1: 0x008A [0x1E] EventEntity looks at Tihl Midurhi (ID: 17171224/0x01060318) and starts talking
  2: 0x008F [0x32] ExtData[1]->MainSpeed = 13* * 0.1
  3: 0x0092 [0x1F] MOVE_ENTITY: EventEntity moves to X=-62.811*, Z=5.190*, Y=-75.585*
  4: 0x009A [0x1F] MOVE_ENTITY: Update entity position (mode=1)
  5: 0x009C [0x6F] WAIT_FRAME_DELAY: Yield until WaitTime reaches zero
  6: 0x009D [0x1E] EventEntity looks at Tihl Midurhi (ID: 17171224/0x01060318) and starts talking
  7: 0x00A2 [0x00] END_REQSTACK()
```

### Event 105

#### Metadata

| Field        | Value   |
|--------------|---------|
| Entrypoint   | 0x00A3  |
| Data Size    | 1 bytes |
| Instructions | 1       |

```
      00 01 02 03 04 05 06 07  08 09 0A 0B 0C 0D 0E 0F
      -- -- -- -- -- -- -- --  -- -- -- -- -- -- -- --
00A0:          00                                          .            
```

#### Opcodes

```
  0: 0x00A3 [0x00] END_REQSTACK()
```

### Event 65535.9

#### Metadata

| Field        | Value    |
|--------------|----------|
| Entrypoint   | 0x00A4   |
| Data Size    | 29 bytes |
| Instructions | 7        |

```
      00 01 02 03 04 05 06 07  08 09 0A 0B 0C 0D 0E 0F
      -- -- -- -- -- -- -- --  -- -- -- -- -- -- -- --
00A0:             37 1E 80 1F  80 20 80 21 80 32 04 80      7.... .!.2..
00B0: 1F 00 22 80 23 80 20 80  1F 01 6F 1E F8 02 06 01  ..".#. ...o.....
00C0: 00                                                .               
```

#### Opcodes

```
  0: 0x00A4 [0x37] UPDATE_EVENT_POSITION_AND_DIR: x=125.519*, z=-1.827*, y=-49.154*, direction=1.6°*
  1: 0x00AD [0x32] ExtData[1]->MainSpeed = 40* * 0.1
  2: 0x00B0 [0x1F] MOVE_ENTITY: EventEntity moves to X=125.641*, Z=3.481*, Y=-49.154*
  3: 0x00B8 [0x1F] MOVE_ENTITY: Update entity position (mode=1)
  4: 0x00BA [0x6F] WAIT_FRAME_DELAY: Yield until WaitTime reaches zero
  5: 0x00BB [0x1E] EventEntity looks at Robel-Akbel (ID: 17171192/0x010602F8) and starts talking
  6: 0x00C0 [0x00] END_REQSTACK()
```

### Event 111

#### Metadata

| Field        | Value   |
|--------------|---------|
| Entrypoint   | 0x00C1  |
| Data Size    | 1 bytes |
| Instructions | 1       |

```
      00 01 02 03 04 05 06 07  08 09 0A 0B 0C 0D 0E 0F
      -- -- -- -- -- -- -- --  -- -- -- -- -- -- -- --
00C0:    00                                              .              
```

#### Opcodes

```
  0: 0x00C1 [0x00] END_REQSTACK()
```

### Event 112

#### Metadata

| Field        | Value   |
|--------------|---------|
| Entrypoint   | 0x00C2  |
| Data Size    | 1 bytes |
| Instructions | 1       |

```
      00 01 02 03 04 05 06 07  08 09 0A 0B 0C 0D 0E 0F
      -- -- -- -- -- -- -- --  -- -- -- -- -- -- -- --
00C0:       00                                            .             
```

#### Opcodes

```
  0: 0x00C2 [0x00] END_REQSTACK()
```

### Event 113

#### Metadata

| Field        | Value   |
|--------------|---------|
| Entrypoint   | 0x00C3  |
| Data Size    | 1 bytes |
| Instructions | 1       |

```
      00 01 02 03 04 05 06 07  08 09 0A 0B 0C 0D 0E 0F
      -- -- -- -- -- -- -- --  -- -- -- -- -- -- -- --
00C0:          00                                          .            
```

#### Opcodes

```
  0: 0x00C3 [0x00] END_REQSTACK()
```

### Event 65535.10

#### Metadata

| Field        | Value   |
|--------------|---------|
| Entrypoint   | 0x00C4  |
| Data Size    | 5 bytes |
| Instructions | 2       |

```
      00 01 02 03 04 05 06 07  08 09 0A 0B 0C 0D 0E 0F
      -- -- -- -- -- -- -- --  -- -- -- -- -- -- -- --
00C0:             B6 0F 17 80  00                           .....       
```

#### Opcodes

```
  0: 0x00C4 [0xB6] ENTITY_APPEARANCE_HANDLER(case=Model size, value=100*)
  1: 0x00C8 [0x00] END_REQSTACK()
```

### Event 65535.11

#### Metadata

| Field        | Value   |
|--------------|---------|
| Entrypoint   | 0x00C9  |
| Data Size    | 5 bytes |
| Instructions | 2       |

```
      00 01 02 03 04 05 06 07  08 09 0A 0B 0C 0D 0E 0F
      -- -- -- -- -- -- -- --  -- -- -- -- -- -- -- --
00C0:                             B6 0F 24 80 00                 ..$..  
```

#### Opcodes

```
  0: 0x00C9 [0xB6] ENTITY_APPEARANCE_HANDLER(case=Model size, value=93*)
  1: 0x00CD [0x00] END_REQSTACK()
```

### Event 65535.12

#### Metadata

| Field        | Value   |
|--------------|---------|
| Entrypoint   | 0x00CE  |
| Data Size    | 5 bytes |
| Instructions | 2       |

```
      00 01 02 03 04 05 06 07  08 09 0A 0B 0C 0D 0E 0F
      -- -- -- -- -- -- -- --  -- -- -- -- -- -- -- --
00C0:                                            B6 00                ..
00D0: 25 80 00                                          %..             
```

#### Opcodes

```
  0: 0x00CE [0xB6] ENTITY_APPEARANCE_HANDLER(case=Hair style, value=755*)
  1: 0x00D2 [0x00] END_REQSTACK()
```

### Event 65535.13

#### Metadata

| Field        | Value   |
|--------------|---------|
| Entrypoint   | 0x00D3  |
| Data Size    | 5 bytes |
| Instructions | 2       |

```
      00 01 02 03 04 05 06 07  08 09 0A 0B 0C 0D 0E 0F
      -- -- -- -- -- -- -- --  -- -- -- -- -- -- -- --
00D0:          B6 00 26 80 00                              ..&..        
```

#### Opcodes

```
  0: 0x00D3 [0xB6] ENTITY_APPEARANCE_HANDLER(case=Hair style, value=1084*)
  1: 0x00D7 [0x00] END_REQSTACK()
```

### Event 65535.14

#### Metadata

| Field        | Value   |
|--------------|---------|
| Entrypoint   | 0x00D8  |
| Data Size    | 5 bytes |
| Instructions | 2       |

```
      00 01 02 03 04 05 06 07  08 09 0A 0B 0C 0D 0E 0F
      -- -- -- -- -- -- -- --  -- -- -- -- -- -- -- --
00D0:                          B6 00 27 80 00                   ..'..   
```

#### Opcodes

```
  0: 0x00D8 [0xB6] ENTITY_APPEARANCE_HANDLER(case=Hair style, value=2243*)
  1: 0x00DC [0x00] END_REQSTACK()
```

### Event 65535.15

#### Metadata

| Field        | Value    |
|--------------|----------|
| Entrypoint   | 0x00DD   |
| Data Size    | 21 bytes |
| Instructions | 2        |

```
      00 01 02 03 04 05 06 07  08 09 0A 0B 0C 0D 0E 0F
      -- -- -- -- -- -- -- --  -- -- -- -- -- -- -- --
00D0:                                         B6 0B 0F               ...
00E0: 80 0C 80 16 80 28 80 28  80 29 80 29 80 16 80 16  .....(.(.).)....
00F0: 80 00                                             ..              
```

#### Opcodes

```
  0: 0x00DD [0xB6] ENTITY_APPEARANCE_HANDLER(case=Full entity look, race=7*, hair=3*, head=0*, body=94*, hands=94*, legs=14*, feet=14*, main=0*, sub=0*)
  1: 0x00F1 [0x00] END_REQSTACK()
```

### Event 65535.16

#### Metadata

| Field        | Value    |
|--------------|----------|
| Entrypoint   | 0x00F2   |
| Data Size    | 21 bytes |
| Instructions | 2        |

```
      00 01 02 03 04 05 06 07  08 09 0A 0B 0C 0D 0E 0F
      -- -- -- -- -- -- -- --  -- -- -- -- -- -- -- --
00F0:       B6 0B 0F 80 0C 80  16 80 28 80 28 80 29 80    ........(.(.).
0100: 29 80 12 80 16 80 00                              )......         
```

#### Opcodes

```
  0: 0x00F2 [0xB6] ENTITY_APPEARANCE_HANDLER(case=Full entity look, race=7*, hair=3*, head=0*, body=94*, hands=94*, legs=14*, feet=14*, main=110*, sub=0*)
  1: 0x0106 [0x00] END_REQSTACK()
```

### Event 65535.17

#### Metadata

| Field        | Value   |
|--------------|---------|
| Entrypoint   | 0x0107  |
| Data Size    | 5 bytes |
| Instructions | 2       |

```
      00 01 02 03 04 05 06 07  08 09 0A 0B 0C 0D 0E 0F
      -- -- -- -- -- -- -- --  -- -- -- -- -- -- -- --
0100:                      B6  00 2A 80 00                     ..*..    
```

#### Opcodes

```
  0: 0x0107 [0xB6] ENTITY_APPEARANCE_HANDLER(case=Hair style, value=791*)
  1: 0x010B [0x00] END_REQSTACK()
```

### Event 65535.18

#### Metadata

| Field        | Value    |
|--------------|----------|
| Entrypoint   | 0x010C   |
| Data Size    | 25 bytes |
| Instructions | 3        |

```
      00 01 02 03 04 05 06 07  08 09 0A 0B 0C 0D 0E 0F
      -- -- -- -- -- -- -- --  -- -- -- -- -- -- -- --
0100:                                      B4 00 00 00              ....
0110: 3F 3F 3F 00 00 00 00 00  00 00 00 00 00 00 00 00  ???.............
0120: B5 00 00 00 00                                    .....           
```

#### Opcodes

```
  0: 0x010C [0xB4] UI_WINDOW_STRING_HANDLER(case=0x00 - Copy string from opcode, work_offset=ExtData[1]->WorkLocal[0], string="???")
  1: 0x0120 [0xB5] SET_EVENT_ENTITY_NAME: Change EventEntity name to ExtData[1]->WorkLocal[0]
  2: 0x0124 [0x00] END_REQSTACK()
```

### Event 65535.19

#### Metadata

| Field        | Value    |
|--------------|----------|
| Entrypoint   | 0x0125   |
| Data Size    | 25 bytes |
| Instructions | 3        |

```
      00 01 02 03 04 05 06 07  08 09 0A 0B 0C 0D 0E 0F
      -- -- -- -- -- -- -- --  -- -- -- -- -- -- -- --
0120:                B4 00 00  00 52 6F 62 65 6C 2D 41       ....Robel-A
0130: 6B 62 65 6C 00 00 00 00  00 B5 00 00 00 00        kbel..........  
```

#### Opcodes

```
  0: 0x0125 [0xB4] UI_WINDOW_STRING_HANDLER(case=0x00 - Copy string from opcode, work_offset=ExtData[1]->WorkLocal[0], string="Robel-Akbel")
  1: 0x0139 [0xB5] SET_EVENT_ENTITY_NAME: Change EventEntity name to ExtData[1]->WorkLocal[0]
  2: 0x013D [0x00] END_REQSTACK()
```

### Event 65535.20

#### Metadata

| Field        | Value    |
|--------------|----------|
| Entrypoint   | 0x013E   |
| Data Size    | 25 bytes |
| Instructions | 3        |

```
      00 01 02 03 04 05 06 07  08 09 0A 0B 0C 0D 0E 0F
      -- -- -- -- -- -- -- --  -- -- -- -- -- -- -- --
0130:                                            B4 00                ..
0140: 00 00 30 32 00 00 00 00  00 00 00 00 00 00 00 00  ..02............
0150: 00 00 B5 00 00 00 00                              .......         
```

#### Opcodes

```
  0: 0x013E [0xB4] UI_WINDOW_STRING_HANDLER(case=0x00 - Copy string from opcode, work_offset=ExtData[1]->WorkLocal[0], string="02")
  1: 0x0152 [0xB5] SET_EVENT_ENTITY_NAME: Change EventEntity name to ExtData[1]->WorkLocal[0]
  2: 0x0156 [0x00] END_REQSTACK()
```

### Event 65535.21

#### Metadata

| Field        | Value    |
|--------------|----------|
| Entrypoint   | 0x0157   |
| Data Size    | 14 bytes |
| Instructions | 4        |

```
      00 01 02 03 04 05 06 07  08 09 0A 0B 0C 0D 0E 0F
      -- -- -- -- -- -- -- --  -- -- -- -- -- -- -- --
0150:                      32  14 80 1F 00 2B 80 2C 80         2....+.,.
0160: 2D 80 1F 01 00                                    -....           
```

#### Opcodes

```
  0: 0x0157 [0x32] ExtData[1]->MainSpeed = 13* * 0.1
  1: 0x015A [0x1F] MOVE_ENTITY: EventEntity moves to X=-12.396*, Z=-79.115*, Y=-67.999*
  2: 0x0162 [0x1F] MOVE_ENTITY: Update entity position (mode=1)
  3: 0x0164 [0x00] END_REQSTACK()
```

### Event 65535.22

#### Metadata

| Field        | Value    |
|--------------|----------|
| Entrypoint   | 0x0165   |
| Data Size    | 14 bytes |
| Instructions | 4        |

```
      00 01 02 03 04 05 06 07  08 09 0A 0B 0C 0D 0E 0F
      -- -- -- -- -- -- -- --  -- -- -- -- -- -- -- --
0160:                32 14 80  1F 00 2E 80 2F 80 2D 80       2....../.-.
0170: 1F 01 00                                          ...             
```

#### Opcodes

```
  0: 0x0165 [0x32] ExtData[1]->MainSpeed = 13* * 0.1
  1: 0x0168 [0x1F] MOVE_ENTITY: EventEntity moves to X=-12.356*, Z=-80.781*, Y=-67.999*
  2: 0x0170 [0x1F] MOVE_ENTITY: Update entity position (mode=1)
  3: 0x0172 [0x00] END_REQSTACK()
```

### Event 65535.23

#### Metadata

| Field        | Value    |
|--------------|----------|
| Entrypoint   | 0x0173   |
| Data Size    | 22 bytes |
| Instructions | 6        |

```
      00 01 02 03 04 05 06 07  08 09 0A 0B 0C 0D 0E 0F
      -- -- -- -- -- -- -- --  -- -- -- -- -- -- -- --
0170:          32 14 80 5A 00  30 80 31 80 32 80 5A 01     2..Z.0.1.2.Z.
0180: 1E F0 FF FF 7F 1C 33 80  00                       ......3..       
```

#### Opcodes

```
  0: 0x0173 [0x32] ExtData[1]->MainSpeed = 13* * 0.1
  1: 0x0176 [0x5A] UPDATE_EVENT_POSITION: Set EventEntity MovePosition to X=-467.270*, Z=49.343*, Y=-29.115*
  2: 0x017E [0x5A] UPDATE_EVENT_POSITION: Move EventEntity incrementally towards MovePosition
  3: 0x0180 [0x1E] EventEntity looks at LocalPlayer and starts talking
  4: 0x0185 [0x1C] WAIT(30* ticks)
  5: 0x0188 [0x00] END_REQSTACK()
```

### Event 65535.24

#### Metadata

| Field        | Value    |
|--------------|----------|
| Entrypoint   | 0x0189   |
| Data Size    | 18 bytes |
| Instructions | 6        |

```
      00 01 02 03 04 05 06 07  08 09 0A 0B 0C 0D 0E 0F
      -- -- -- -- -- -- -- --  -- -- -- -- -- -- -- --
0180:                             1C 0C 80 32 00 80 1F           ...2...
0190: 00 34 80 35 80 1A 80 1F  01 6F 00                 .4.5.....o.     
```

#### Opcodes

```
  0: 0x0189 [0x1C] WAIT(3* ticks)
  1: 0x018C [0x32] ExtData[1]->MainSpeed = 11* * 0.1
  2: 0x018F [0x1F] MOVE_ENTITY: EventEntity moves to X=-61.242*, Z=3.676*, Y=-75.585*
  3: 0x0197 [0x1F] MOVE_ENTITY: Update entity position (mode=1)
  4: 0x0199 [0x6F] WAIT_FRAME_DELAY: Yield until WaitTime reaches zero
  5: 0x019A [0x00] END_REQSTACK()
```

### Event 65535.25

#### Metadata

| Field        | Value    |
|--------------|----------|
| Entrypoint   | 0x019B   |
| Data Size    | 20 bytes |
| Instructions | 6        |

```
      00 01 02 03 04 05 06 07  08 09 0A 0B 0C 0D 0E 0F
      -- -- -- -- -- -- -- --  -- -- -- -- -- -- -- --
0190:                                   7B F8 FF FF 7F             {....
01A0: 32 36 80 1F 00 37 80 38  80 39 80 1F 01 6F 00     26...7.8.9...o. 
```

#### Opcodes

```
  0: 0x019B [0x7B] EventEntity stops talking
  1: 0x01A0 [0x32] ExtData[1]->MainSpeed = 42* * 0.1
  2: 0x01A3 [0x1F] MOVE_ENTITY: EventEntity moves to X=-105.677*, Z=-1.051*, Y=-79.886*
  3: 0x01AB [0x1F] MOVE_ENTITY: Update entity position (mode=1)
  4: 0x01AD [0x6F] WAIT_FRAME_DELAY: Yield until WaitTime reaches zero
  5: 0x01AE [0x00] END_REQSTACK()
```

### Event 65535.26

#### Metadata

| Field        | Value   |
|--------------|---------|
| Entrypoint   | 0x01AF  |
| Data Size    | 4 bytes |
| Instructions | 2       |

```
      00 01 02 03 04 05 06 07  08 09 0A 0B 0C 0D 0E 0F
      -- -- -- -- -- -- -- --  -- -- -- -- -- -- -- --
01A0:                                               C0                 .
01B0: 3A 80 00                                          :..             
```

#### Opcodes

```
  0: 0x01AF [0xC0] EventEntity->Render.Flags3 |= 0x1000 // Set bit 12 (from 1*)
  1: 0x01B2 [0x00] END_REQSTACK()
```
