# 17171161 - 3

## Common Data

| Field            | Value                           |
|------------------|---------------------------------|
| Zone             | Fort Karugo-Narugo [S] (ID: 96) |
| Block Size       | 168 bytes                       |
| Total Events     | 5                               |
| References Count | 14                              |

## List of Events

| Event ID                 | Entrypoint   |   Size |   Instructions |
|--------------------------|--------------|--------|----------------|
| [65535](#event-65535)    | 0x0000       |      1 |              1 |
| [111](#event-111)        | 0x0001       |      1 |              1 |
| [65535.1](#event-655351) | 0x0002       |     15 |              5 |
| [65535.2](#event-655352) | 0x0011       |     27 |              7 |
| [65535.3](#event-655353) | 0x002C       |     30 |              4 |

## DAT References (imed_data)

|   Index | Hex Value   |   Dec Value |
|---------|-------------|-------------|
|       0 | 0x0050      |          80 |
|       1 | 0x27E42     |      163394 |
|       2 | 0xD714      |       55060 |
|       3 | 0xFFFF5E82  |  4294925954 |
|       4 | 0x2592D     |      153901 |
|       5 | 0xAEE4      |       44772 |
|       6 | 0xFFFF5123  |  4294922531 |
|       7 | 0x04E1      |        1249 |
|       8 | 0x24A30     |      150064 |
|       9 | 0x5F28      |       24360 |
|      10 | 0xFFFF518D  |  4294922637 |
|      11 | 0x0546      |        1350 |
|      12 | 0x0001      |           1 |
|      13 | 0x0000      |           0 |

## Events

### Event 65535

#### Metadata

| Field        | Value   |
|--------------|---------|
| Entrypoint   | 0x0000  |
| Data Size    | 1 bytes |
| Instructions | 1       |

```
      00 01 02 03 04 05 06 07  08 09 0A 0B 0C 0D 0E 0F
      -- -- -- -- -- -- -- --  -- -- -- -- -- -- -- --
0000: 00                                                .               
```

#### Opcodes

```
  0: 0x0000 [0x00] END_REQSTACK()
```

### Event 111

#### Metadata

| Field        | Value   |
|--------------|---------|
| Entrypoint   | 0x0001  |
| Data Size    | 1 bytes |
| Instructions | 1       |

```
      00 01 02 03 04 05 06 07  08 09 0A 0B 0C 0D 0E 0F
      -- -- -- -- -- -- -- --  -- -- -- -- -- -- -- --
0000:    00                                              .              
```

#### Opcodes

```
  0: 0x0001 [0x00] END_REQSTACK()
```

### Event 65535.1

#### Metadata

| Field        | Value    |
|--------------|----------|
| Entrypoint   | 0x0002   |
| Data Size    | 15 bytes |
| Instructions | 5        |

```
      00 01 02 03 04 05 06 07  08 09 0A 0B 0C 0D 0E 0F
      -- -- -- -- -- -- -- --  -- -- -- -- -- -- -- --
0000:       32 00 80 1F 00 01  80 02 80 03 80 1F 01 6F    2............o
0010: 00                                                .               
```

#### Opcodes

```
  0: 0x0002 [0x32] ExtData[1]->MainSpeed = 80* * 0.1
  1: 0x0005 [0x1F] MOVE_ENTITY: EventEntity moves to X=163.394*, Z=55.060*, Y=-41.342*
  2: 0x000D [0x1F] MOVE_ENTITY: Update entity position (mode=1)
  3: 0x000F [0x6F] WAIT_FRAME_DELAY: Yield until WaitTime reaches zero
  4: 0x0010 [0x00] END_REQSTACK()
```

### Event 65535.2

#### Metadata

| Field        | Value    |
|--------------|----------|
| Entrypoint   | 0x0011   |
| Data Size    | 27 bytes |
| Instructions | 7        |

```
      00 01 02 03 04 05 06 07  08 09 0A 0B 0C 0D 0E 0F
      -- -- -- -- -- -- -- --  -- -- -- -- -- -- -- --
0010:    37 04 80 05 80 06 80  07 80 32 00 80 1F 00 08   7........2.....
0020: 80 09 80 0A 80 1F 01 6F  39 0B 80 00              .......o9...    
```

#### Opcodes

```
  0: 0x0011 [0x37] UPDATE_EVENT_POSITION_AND_DIR: x=153.901*, z=44.772*, y=-44.765*, direction=109.8°*
  1: 0x001A [0x32] ExtData[1]->MainSpeed = 80* * 0.1
  2: 0x001D [0x1F] MOVE_ENTITY: EventEntity moves to X=150.064*, Z=24.360*, Y=-44.659*
  3: 0x0025 [0x1F] MOVE_ENTITY: Update entity position (mode=1)
  4: 0x0027 [0x6F] WAIT_FRAME_DELAY: Yield until WaitTime reaches zero
  5: 0x0028 [0x39] SET_ENTITY_DIRECTION(direction=7.4°*)
  6: 0x002B [0x00] END_REQSTACK()
```

### Event 65535.3

#### Metadata

| Field        | Value    |
|--------------|----------|
| Entrypoint   | 0x002C   |
| Data Size    | 30 bytes |
| Instructions | 4        |

```
      00 01 02 03 04 05 06 07  08 09 0A 0B 0C 0D 0E 0F
      -- -- -- -- -- -- -- --  -- -- -- -- -- -- -- --
0020:                                      7E 06 F8 FF              ~...
0030: FF 7F 0C 80 0D 80 0C 80  0C 80 0C 80 0C 80 7E 04  ..............~.
0040: F8 FF FF 7F 80 F8 FF FF  7F 00                    ..........      
```

#### Opcodes

```
  0: 0x002C [0x7E] CHOCOBO_MOUNT: Mode 6 (custom mount) on EventEntity
  1: 0x003E [0x7E] CHOCOBO_MOUNT: Mode 4 on EventEntity
  2: 0x0044 [0x80] LOAD_WAIT(entity=EventEntity)
  3: 0x0049 [0x00] END_REQSTACK()
```
