# 17171224 - Tihl Midurhi

## Common Data

| Field            | Value                           |
|------------------|---------------------------------|
| Zone             | Fort Karugo-Narugo [S] (ID: 96) |
| Block Size       | 588 bytes                       |
| Total Events     | 23                              |
| References Count | 39                              |

## List of Events

| Event ID                   | Entrypoint   |   Size |   Instructions |
|----------------------------|--------------|--------|----------------|
| [65535](#event-65535)      | 0x0000       |      1 |              1 |
| [111](#event-111)          | 0x0001       |      1 |              1 |
| [65535.1](#event-655351)   | 0x0002       |     28 |              6 |
| [65535.2](#event-655352)   | 0x001E       |     34 |              8 |
| [105](#event-105)          | 0x0040       |      1 |              1 |
| [112](#event-112)          | 0x0041       |      1 |              1 |
| [113](#event-113)          | 0x0042       |      1 |              1 |
| [65535.3](#event-655353)   | 0x0043       |      5 |              2 |
| [65535.4](#event-655354)   | 0x0048       |      5 |              2 |
| [65535.5](#event-655355)   | 0x004D       |      5 |              2 |
| [65535.6](#event-655356)   | 0x0052       |     21 |              2 |
| [65535.7](#event-655357)   | 0x0067       |     21 |              2 |
| [65535.8](#event-655358)   | 0x007C       |      5 |              2 |
| [65535.9](#event-655359)   | 0x0081       |     25 |              3 |
| [65535.10](#event-6553510) | 0x009A       |     25 |              3 |
| [65535.11](#event-6553511) | 0x00B3       |     25 |              3 |
| [65535.12](#event-6553512) | 0x00CC       |     14 |              4 |
| [65535.13](#event-6553513) | 0x00DA       |     14 |              4 |
| [65535.14](#event-6553514) | 0x00E8       |     22 |              6 |
| [65535.15](#event-6553515) | 0x00FE       |     25 |              3 |
| [65535.16](#event-6553516) | 0x0117       |     25 |              3 |
| [65535.17](#event-6553517) | 0x0130       |      4 |              2 |
| [65535.18](#event-6553518) | 0x0134       |     15 |              5 |

## DAT References (imed_data)

|   Index | Hex Value   |   Dec Value |
|---------|-------------|-------------|
|       0 | 0x1F1EF     |      127471 |
|       1 | 0x11C9      |        4553 |
|       2 | 0xFFFF3FFE  |  4294918142 |
|       3 | 0x0013      |          19 |
|       4 | 0x0028      |          40 |
|       5 | 0x1FD13     |      130323 |
|       6 | 0x1214      |        4628 |
|       7 | 0xFFFF0D77  |  4294905207 |
|       8 | 0xFFFFF9E5  |  4294965733 |
|       9 | 0xFFFED8BF  |  4294891711 |
|      10 | 0x06B8      |        1720 |
|      11 | 0x000D      |          13 |
|      12 | 0xFFFF079D  |  4294903709 |
|      13 | 0x076E      |        1902 |
|      14 | 0x02F3      |         755 |
|      15 | 0x043C      |        1084 |
|      16 | 0x08C3      |        2243 |
|      17 | 0x0007      |           7 |
|      18 | 0x0003      |           3 |
|      19 | 0x0000      |           0 |
|      20 | 0x005E      |          94 |
|      21 | 0x000E      |          14 |
|      22 | 0x006E      |         110 |
|      23 | 0x0317      |         791 |
|      24 | 0xFFFFCF94  |  4294954900 |
|      25 | 0xFFFECAF5  |  4294888181 |
|      26 | 0xFFFEF661  |  4294899297 |
|      27 | 0xFFFFCFBC  |  4294954940 |
|      28 | 0xFFFEC473  |  4294886515 |
|      29 | 0xFFF8DEBA  |  4294500026 |
|      30 | 0xC0BF      |       49343 |
|      31 | 0xFFFF8E45  |  4294938181 |
|      32 | 0x001E      |          30 |
|      33 | 0x0064      |         100 |
|      34 | 0x005D      |          93 |
|      35 | 0x0001      |           1 |
|      36 | 0xFFF97C8B  |  4294540427 |
|      37 | 0x52819     |      337945 |
|      38 | 0x011A      |         282 |

## Events

### Event 65535

#### Metadata

| Field        | Value   |
|--------------|---------|
| Entrypoint   | 0x0000  |
| Data Size    | 1 bytes |
| Instructions | 1       |

```
      00 01 02 03 04 05 06 07  08 09 0A 0B 0C 0D 0E 0F
      -- -- -- -- -- -- -- --  -- -- -- -- -- -- -- --
0000: 00                                                .               
```

#### Opcodes

```
  0: 0x0000 [0x00] END_REQSTACK()
```

### Event 111

#### Metadata

| Field        | Value   |
|--------------|---------|
| Entrypoint   | 0x0001  |
| Data Size    | 1 bytes |
| Instructions | 1       |

```
      00 01 02 03 04 05 06 07  08 09 0A 0B 0C 0D 0E 0F
      -- -- -- -- -- -- -- --  -- -- -- -- -- -- -- --
0000:    00                                              .              
```

#### Opcodes

```
  0: 0x0001 [0x00] END_REQSTACK()
```

### Event 65535.1

#### Metadata

| Field        | Value    |
|--------------|----------|
| Entrypoint   | 0x0002   |
| Data Size    | 28 bytes |
| Instructions | 6        |

```
      00 01 02 03 04 05 06 07  08 09 0A 0B 0C 0D 0E 0F
      -- -- -- -- -- -- -- --  -- -- -- -- -- -- -- --
0000:       37 00 80 01 80 02  80 03 80 32 04 80 5A 00    7........2..Z.
0010: 05 80 06 80 02 80 5A 01  1E 22 03 06 01 00        ......Z.."....  
```

#### Opcodes

```
  0: 0x0002 [0x37] UPDATE_EVENT_POSITION_AND_DIR: x=127.471*, z=4.553*, y=-49.154*, direction=1.7°*
  1: 0x000B [0x32] ExtData[1]->MainSpeed = 40* * 0.1
  2: 0x000E [0x5A] UPDATE_EVENT_POSITION: Set EventEntity MovePosition to X=130.323*, Z=4.628*, Y=-49.154*
  3: 0x0016 [0x5A] UPDATE_EVENT_POSITION: Move EventEntity incrementally towards MovePosition
  4: 0x0018 [0x1E] EventEntity looks at Joseaneaut (ID: 17171234/0x01060322) and starts talking
  5: 0x001D [0x00] END_REQSTACK()
```

### Event 65535.2

#### Metadata

| Field        | Value    |
|--------------|----------|
| Entrypoint   | 0x001E   |
| Data Size    | 34 bytes |
| Instructions | 8        |

```
      00 01 02 03 04 05 06 07  08 09 0A 0B 0C 0D 0E 0F
      -- -- -- -- -- -- -- --  -- -- -- -- -- -- -- --
0010:                                            37 07                7.
0020: 80 08 80 09 80 0A 80 1E  F0 FF FF 7F 32 0B 80 1F  ............2...
0030: 00 0C 80 0D 80 09 80 1F  01 6F 1E F0 FF FF 7F 00  .........o......
```

#### Opcodes

```
  0: 0x001E [0x37] UPDATE_EVENT_POSITION_AND_DIR: x=-62.089*, z=-1.563*, y=-75.585*, direction=151.2°*
  1: 0x0027 [0x1E] EventEntity looks at LocalPlayer and starts talking
  2: 0x002C [0x32] ExtData[1]->MainSpeed = 13* * 0.1
  3: 0x002F [0x1F] MOVE_ENTITY: EventEntity moves to X=-63.587*, Z=1.902*, Y=-75.585*
  4: 0x0037 [0x1F] MOVE_ENTITY: Update entity position (mode=1)
  5: 0x0039 [0x6F] WAIT_FRAME_DELAY: Yield until WaitTime reaches zero
  6: 0x003A [0x1E] EventEntity looks at LocalPlayer and starts talking
  7: 0x003F [0x00] END_REQSTACK()
```

### Event 105

#### Metadata

| Field        | Value   |
|--------------|---------|
| Entrypoint   | 0x0040  |
| Data Size    | 1 bytes |
| Instructions | 1       |

```
      00 01 02 03 04 05 06 07  08 09 0A 0B 0C 0D 0E 0F
      -- -- -- -- -- -- -- --  -- -- -- -- -- -- -- --
0040: 00                                                .               
```

#### Opcodes

```
  0: 0x0040 [0x00] END_REQSTACK()
```

### Event 112

#### Metadata

| Field        | Value   |
|--------------|---------|
| Entrypoint   | 0x0041  |
| Data Size    | 1 bytes |
| Instructions | 1       |

```
      00 01 02 03 04 05 06 07  08 09 0A 0B 0C 0D 0E 0F
      -- -- -- -- -- -- -- --  -- -- -- -- -- -- -- --
0040:    00                                              .              
```

#### Opcodes

```
  0: 0x0041 [0x00] END_REQSTACK()
```

### Event 113

#### Metadata

| Field        | Value   |
|--------------|---------|
| Entrypoint   | 0x0042  |
| Data Size    | 1 bytes |
| Instructions | 1       |

```
      00 01 02 03 04 05 06 07  08 09 0A 0B 0C 0D 0E 0F
      -- -- -- -- -- -- -- --  -- -- -- -- -- -- -- --
0040:       00                                            .             
```

#### Opcodes

```
  0: 0x0042 [0x00] END_REQSTACK()
```

### Event 65535.3

#### Metadata

| Field        | Value   |
|--------------|---------|
| Entrypoint   | 0x0043  |
| Data Size    | 5 bytes |
| Instructions | 2       |

```
      00 01 02 03 04 05 06 07  08 09 0A 0B 0C 0D 0E 0F
      -- -- -- -- -- -- -- --  -- -- -- -- -- -- -- --
0040:          B6 00 0E 80 00                              .....        
```

#### Opcodes

```
  0: 0x0043 [0xB6] ENTITY_APPEARANCE_HANDLER(case=Hair style, value=755*)
  1: 0x0047 [0x00] END_REQSTACK()
```

### Event 65535.4

#### Metadata

| Field        | Value   |
|--------------|---------|
| Entrypoint   | 0x0048  |
| Data Size    | 5 bytes |
| Instructions | 2       |

```
      00 01 02 03 04 05 06 07  08 09 0A 0B 0C 0D 0E 0F
      -- -- -- -- -- -- -- --  -- -- -- -- -- -- -- --
0040:                          B6 00 0F 80 00                   .....   
```

#### Opcodes

```
  0: 0x0048 [0xB6] ENTITY_APPEARANCE_HANDLER(case=Hair style, value=1084*)
  1: 0x004C [0x00] END_REQSTACK()
```

### Event 65535.5

#### Metadata

| Field        | Value   |
|--------------|---------|
| Entrypoint   | 0x004D  |
| Data Size    | 5 bytes |
| Instructions | 2       |

```
      00 01 02 03 04 05 06 07  08 09 0A 0B 0C 0D 0E 0F
      -- -- -- -- -- -- -- --  -- -- -- -- -- -- -- --
0040:                                         B6 00 10               ...
0050: 80 00                                             ..              
```

#### Opcodes

```
  0: 0x004D [0xB6] ENTITY_APPEARANCE_HANDLER(case=Hair style, value=2243*)
  1: 0x0051 [0x00] END_REQSTACK()
```

### Event 65535.6

#### Metadata

| Field        | Value    |
|--------------|----------|
| Entrypoint   | 0x0052   |
| Data Size    | 21 bytes |
| Instructions | 2        |

```
      00 01 02 03 04 05 06 07  08 09 0A 0B 0C 0D 0E 0F
      -- -- -- -- -- -- -- --  -- -- -- -- -- -- -- --
0050:       B6 0B 11 80 12 80  13 80 14 80 14 80 15 80    ..............
0060: 15 80 13 80 13 80 00                              .......         
```

#### Opcodes

```
  0: 0x0052 [0xB6] ENTITY_APPEARANCE_HANDLER(case=Full entity look, race=7*, hair=3*, head=0*, body=94*, hands=94*, legs=14*, feet=14*, main=0*, sub=0*)
  1: 0x0066 [0x00] END_REQSTACK()
```

### Event 65535.7

#### Metadata

| Field        | Value    |
|--------------|----------|
| Entrypoint   | 0x0067   |
| Data Size    | 21 bytes |
| Instructions | 2        |

```
      00 01 02 03 04 05 06 07  08 09 0A 0B 0C 0D 0E 0F
      -- -- -- -- -- -- -- --  -- -- -- -- -- -- -- --
0060:                      B6  0B 11 80 12 80 13 80 14         .........
0070: 80 14 80 15 80 15 80 16  80 13 80 00              ............    
```

#### Opcodes

```
  0: 0x0067 [0xB6] ENTITY_APPEARANCE_HANDLER(case=Full entity look, race=7*, hair=3*, head=0*, body=94*, hands=94*, legs=14*, feet=14*, main=110*, sub=0*)
  1: 0x007B [0x00] END_REQSTACK()
```

### Event 65535.8

#### Metadata

| Field        | Value   |
|--------------|---------|
| Entrypoint   | 0x007C  |
| Data Size    | 5 bytes |
| Instructions | 2       |

```
      00 01 02 03 04 05 06 07  08 09 0A 0B 0C 0D 0E 0F
      -- -- -- -- -- -- -- --  -- -- -- -- -- -- -- --
0070:                                      B6 00 17 80              ....
0080: 00                                                .               
```

#### Opcodes

```
  0: 0x007C [0xB6] ENTITY_APPEARANCE_HANDLER(case=Hair style, value=791*)
  1: 0x0080 [0x00] END_REQSTACK()
```

### Event 65535.9

#### Metadata

| Field        | Value    |
|--------------|----------|
| Entrypoint   | 0x0081   |
| Data Size    | 25 bytes |
| Instructions | 3        |

```
      00 01 02 03 04 05 06 07  08 09 0A 0B 0C 0D 0E 0F
      -- -- -- -- -- -- -- --  -- -- -- -- -- -- -- --
0080:    B4 00 00 00 3F 3F 3F  00 00 00 00 00 00 00 00   ....???........
0090: 00 00 00 00 00 B5 00 00  00 00                    ..........      
```

#### Opcodes

```
  0: 0x0081 [0xB4] UI_WINDOW_STRING_HANDLER(case=0x00 - Copy string from opcode, work_offset=ExtData[1]->WorkLocal[0], string="???")
  1: 0x0095 [0xB5] SET_EVENT_ENTITY_NAME: Change EventEntity name to ExtData[1]->WorkLocal[0]
  2: 0x0099 [0x00] END_REQSTACK()
```

### Event 65535.10

#### Metadata

| Field        | Value    |
|--------------|----------|
| Entrypoint   | 0x009A   |
| Data Size    | 25 bytes |
| Instructions | 3        |

```
      00 01 02 03 04 05 06 07  08 09 0A 0B 0C 0D 0E 0F
      -- -- -- -- -- -- -- --  -- -- -- -- -- -- -- --
0090:                                B4 00 00 00 52 6F            ....Ro
00A0: 62 65 6C 2D 41 6B 62 65  6C 00 00 00 00 00 B5 00  bel-Akbel.......
00B0: 00 00 00                                          ...             
```

#### Opcodes

```
  0: 0x009A [0xB4] UI_WINDOW_STRING_HANDLER(case=0x00 - Copy string from opcode, work_offset=ExtData[1]->WorkLocal[0], string="Robel-Akbel")
  1: 0x00AE [0xB5] SET_EVENT_ENTITY_NAME: Change EventEntity name to ExtData[1]->WorkLocal[0]
  2: 0x00B2 [0x00] END_REQSTACK()
```

### Event 65535.11

#### Metadata

| Field        | Value    |
|--------------|----------|
| Entrypoint   | 0x00B3   |
| Data Size    | 25 bytes |
| Instructions | 3        |

```
      00 01 02 03 04 05 06 07  08 09 0A 0B 0C 0D 0E 0F
      -- -- -- -- -- -- -- --  -- -- -- -- -- -- -- --
00B0:          B4 00 00 00 30  32 00 00 00 00 00 00 00     ....02.......
00C0: 00 00 00 00 00 00 00 B5  00 00 00 00              ............    
```

#### Opcodes

```
  0: 0x00B3 [0xB4] UI_WINDOW_STRING_HANDLER(case=0x00 - Copy string from opcode, work_offset=ExtData[1]->WorkLocal[0], string="02")
  1: 0x00C7 [0xB5] SET_EVENT_ENTITY_NAME: Change EventEntity name to ExtData[1]->WorkLocal[0]
  2: 0x00CB [0x00] END_REQSTACK()
```

### Event 65535.12

#### Metadata

| Field        | Value    |
|--------------|----------|
| Entrypoint   | 0x00CC   |
| Data Size    | 14 bytes |
| Instructions | 4        |

```
      00 01 02 03 04 05 06 07  08 09 0A 0B 0C 0D 0E 0F
      -- -- -- -- -- -- -- --  -- -- -- -- -- -- -- --
00C0:                                      32 0B 80 1F              2...
00D0: 00 18 80 19 80 1A 80 1F  01 00                    ..........      
```

#### Opcodes

```
  0: 0x00CC [0x32] ExtData[1]->MainSpeed = 13* * 0.1
  1: 0x00CF [0x1F] MOVE_ENTITY: EventEntity moves to X=-12.396*, Z=-79.115*, Y=-67.999*
  2: 0x00D7 [0x1F] MOVE_ENTITY: Update entity position (mode=1)
  3: 0x00D9 [0x00] END_REQSTACK()
```

### Event 65535.13

#### Metadata

| Field        | Value    |
|--------------|----------|
| Entrypoint   | 0x00DA   |
| Data Size    | 14 bytes |
| Instructions | 4        |

```
      00 01 02 03 04 05 06 07  08 09 0A 0B 0C 0D 0E 0F
      -- -- -- -- -- -- -- --  -- -- -- -- -- -- -- --
00D0:                                32 0B 80 1F 00 1B            2.....
00E0: 80 1C 80 1A 80 1F 01 00                           ........        
```

#### Opcodes

```
  0: 0x00DA [0x32] ExtData[1]->MainSpeed = 13* * 0.1
  1: 0x00DD [0x1F] MOVE_ENTITY: EventEntity moves to X=-12.356*, Z=-80.781*, Y=-67.999*
  2: 0x00E5 [0x1F] MOVE_ENTITY: Update entity position (mode=1)
  3: 0x00E7 [0x00] END_REQSTACK()
```

### Event 65535.14

#### Metadata

| Field        | Value    |
|--------------|----------|
| Entrypoint   | 0x00E8   |
| Data Size    | 22 bytes |
| Instructions | 6        |

```
      00 01 02 03 04 05 06 07  08 09 0A 0B 0C 0D 0E 0F
      -- -- -- -- -- -- -- --  -- -- -- -- -- -- -- --
00E0:                          32 0B 80 5A 00 1D 80 1E          2..Z....
00F0: 80 1F 80 5A 01 1E F0 FF  FF 7F 1C 20 80 00        ...Z....... ..  
```

#### Opcodes

```
  0: 0x00E8 [0x32] ExtData[1]->MainSpeed = 13* * 0.1
  1: 0x00EB [0x5A] UPDATE_EVENT_POSITION: Set EventEntity MovePosition to X=-467.270*, Z=49.343*, Y=-29.115*
  2: 0x00F3 [0x5A] UPDATE_EVENT_POSITION: Move EventEntity incrementally towards MovePosition
  3: 0x00F5 [0x1E] EventEntity looks at LocalPlayer and starts talking
  4: 0x00FA [0x1C] WAIT(30* ticks)
  5: 0x00FD [0x00] END_REQSTACK()
```

### Event 65535.15

#### Metadata

| Field        | Value    |
|--------------|----------|
| Entrypoint   | 0x00FE   |
| Data Size    | 25 bytes |
| Instructions | 3        |

```
      00 01 02 03 04 05 06 07  08 09 0A 0B 0C 0D 0E 0F
      -- -- -- -- -- -- -- --  -- -- -- -- -- -- -- --
00F0:                                            B6 0B                ..
0100: 11 80 12 80 13 80 14 80  14 80 15 80 15 80 13 80  ................
0110: 13 80 B6 0F 21 80 00                              ....!..         
```

#### Opcodes

```
  0: 0x00FE [0xB6] ENTITY_APPEARANCE_HANDLER(case=Full entity look, race=7*, hair=3*, head=0*, body=94*, hands=94*, legs=14*, feet=14*, main=0*, sub=0*)
  1: 0x0112 [0xB6] ENTITY_APPEARANCE_HANDLER(case=Model size, value=100*)
  2: 0x0116 [0x00] END_REQSTACK()
```

### Event 65535.16

#### Metadata

| Field        | Value    |
|--------------|----------|
| Entrypoint   | 0x0117   |
| Data Size    | 25 bytes |
| Instructions | 3        |

```
      00 01 02 03 04 05 06 07  08 09 0A 0B 0C 0D 0E 0F
      -- -- -- -- -- -- -- --  -- -- -- -- -- -- -- --
0110:                      B6  0B 11 80 12 80 13 80 14         .........
0120: 80 14 80 15 80 15 80 16  80 13 80 B6 0F 22 80 00  ............."..
```

#### Opcodes

```
  0: 0x0117 [0xB6] ENTITY_APPEARANCE_HANDLER(case=Full entity look, race=7*, hair=3*, head=0*, body=94*, hands=94*, legs=14*, feet=14*, main=110*, sub=0*)
  1: 0x012B [0xB6] ENTITY_APPEARANCE_HANDLER(case=Model size, value=93*)
  2: 0x012F [0x00] END_REQSTACK()
```

### Event 65535.17

#### Metadata

| Field        | Value   |
|--------------|---------|
| Entrypoint   | 0x0130  |
| Data Size    | 4 bytes |
| Instructions | 2       |

```
      00 01 02 03 04 05 06 07  08 09 0A 0B 0C 0D 0E 0F
      -- -- -- -- -- -- -- --  -- -- -- -- -- -- -- --
0130: C0 23 80 00                                       .#..            
```

#### Opcodes

```
  0: 0x0130 [0xC0] EventEntity->Render.Flags3 |= 0x1000 // Set bit 12 (from 1*)
  1: 0x0133 [0x00] END_REQSTACK()
```

### Event 65535.18

#### Metadata

| Field        | Value    |
|--------------|----------|
| Entrypoint   | 0x0134   |
| Data Size    | 15 bytes |
| Instructions | 5        |

```
      00 01 02 03 04 05 06 07  08 09 0A 0B 0C 0D 0E 0F
      -- -- -- -- -- -- -- --  -- -- -- -- -- -- -- --
0130:             32 04 80 1F  00 24 80 25 80 26 80 1F      2....$.%.&..
0140: 01 6F 00                                          .o.             
```

#### Opcodes

```
  0: 0x0134 [0x32] ExtData[1]->MainSpeed = 40* * 0.1
  1: 0x0137 [0x1F] MOVE_ENTITY: EventEntity moves to X=-426.869*, Z=337.945*, Y=0.282*
  2: 0x013F [0x1F] MOVE_ENTITY: Update entity position (mode=1)
  3: 0x0141 [0x6F] WAIT_FRAME_DELAY: Yield until WaitTime reaches zero
  4: 0x0142 [0x00] END_REQSTACK()
```
