# 17171204 - 04

## Common Data

| Field            | Value                           |
|------------------|---------------------------------|
| Zone             | Fort Karugo-Narugo [S] (ID: 96) |
| Block Size       | 1000 bytes                      |
| Total Events     | 30                              |
| References Count | 51                              |

## List of Events

| Event ID                   | Entrypoint   |   Size |   Instructions |
|----------------------------|--------------|--------|----------------|
| [65535](#event-65535)      | 0x0000       |      1 |              1 |
| [103](#event-103)          | 0x0001       |      1 |              1 |
| [101](#event-101)          | 0x0002       |      1 |              1 |
| [65535.1](#event-655351)   | 0x0003       |     13 |              3 |
| [106](#event-106)          | 0x0010       |      1 |              1 |
| [65535.2](#event-655352)   | 0x0011       |     15 |              5 |
| [65535.3](#event-655353)   | 0x0020       |     20 |              6 |
| [65535.4](#event-655354)   | 0x0034       |      5 |              2 |
| [65535.5](#event-655355)   | 0x0039       |      5 |              2 |
| [65535.6](#event-655356)   | 0x003E       |     26 |              3 |
| [65535.7](#event-655357)   | 0x0058       |     40 |              4 |
| [65535.8](#event-655358)   | 0x0080       |     40 |              4 |
| [112](#event-112)          | 0x00A8       |      1 |              1 |
| [113](#event-113)          | 0x00A9       |      1 |              1 |
| [65535.9](#event-655359)   | 0x00AA       |      5 |              2 |
| [65535.10](#event-6553510) | 0x00AF       |      5 |              2 |
| [65535.11](#event-6553511) | 0x00B4       |      5 |              2 |
| [65535.12](#event-6553512) | 0x00B9       |     21 |              2 |
| [65535.13](#event-6553513) | 0x00CE       |     21 |              2 |
| [65535.14](#event-6553514) | 0x00E3       |      5 |              2 |
| [65535.15](#event-6553515) | 0x00E8       |     25 |              3 |
| [65535.16](#event-6553516) | 0x0101       |     25 |              3 |
| [65535.17](#event-6553517) | 0x011A       |     25 |              3 |
| [65535.18](#event-6553518) | 0x0133       |     14 |              4 |
| [65535.19](#event-6553519) | 0x0141       |     14 |              4 |
| [65535.20](#event-6553520) | 0x014F       |     22 |              6 |
| [65535.21](#event-6553521) | 0x0165       |     37 |              5 |
| [65535.22](#event-6553522) | 0x018A       |    185 |             37 |
| [65535.23](#event-6553523) | 0x0243       |     64 |              6 |
| [65535.24](#event-6553524) | 0x0283       |     15 |              5 |

## DAT References (imed_data)

|   Index | Hex Value   |   Dec Value |
|---------|-------------|-------------|
|       0 | 0x002B      |          43 |
|       1 | 0x0028      |          40 |
|       2 | 0x241FF     |      147967 |
|       3 | 0x09AD      |        2477 |
|       4 | 0xFFFF55B0  |  4294923696 |
|       5 | 0xFAA1      |       64161 |
|       6 | 0xFFFFF9AC  |  4294965676 |
|       7 | 0xFFFF034D  |  4294902605 |
|       8 | 0x0030      |          48 |
|       9 | 0x0000      |           0 |
|      10 | 0x0003      |           3 |
|      11 | 0x0009      |           9 |
|      12 | 0x000C      |          12 |
|      13 | 0x00FD      |         253 |
|      14 | 0x0007      |           7 |
|      15 | 0x000B      |          11 |
|      16 | 0x0089      |         137 |
|      17 | 0x0010      |          16 |
|      18 | 0x000E      |          14 |
|      19 | 0x011B      |         283 |
|      20 | 0x0061      |          97 |
|      21 | 0x0081      |         129 |
|      22 | 0x0072      |         114 |
|      23 | 0x000F      |          15 |
|      24 | 0x000D      |          13 |
|      25 | 0x02F3      |         755 |
|      26 | 0x043C      |        1084 |
|      27 | 0x08C3      |        2243 |
|      28 | 0x005E      |          94 |
|      29 | 0x006E      |         110 |
|      30 | 0x0317      |         791 |
|      31 | 0xFFFFCF94  |  4294954900 |
|      32 | 0xFFFECAF5  |  4294888181 |
|      33 | 0xFFFEF661  |  4294899297 |
|      34 | 0xFFFFCFBC  |  4294954940 |
|      35 | 0xFFFEC473  |  4294886515 |
|      36 | 0xFFF8DEBA  |  4294500026 |
|      37 | 0xC0BF      |       49343 |
|      38 | 0xFFFF8E45  |  4294938181 |
|      39 | 0x001E      |          30 |
|      40 | 0x0005      |           5 |
|      41 | 0x0001      |           1 |
|      42 | 0x0002      |           2 |
|      43 | 0x000A      |          10 |
|      44 | 0x0046      |          70 |
|      45 | 0x008C      |         140 |
|      46 | 0x00D2      |         210 |
|      47 | 0x0059      |          89 |
|      48 | 0xFFFDEE90  |  4294831760 |
|      49 | 0xFFFE7A03  |  4294867459 |
|      50 | 0xFFFED7F7  |  4294891511 |

## Events

### Event 65535

#### Metadata

| Field        | Value   |
|--------------|---------|
| Entrypoint   | 0x0000  |
| Data Size    | 1 bytes |
| Instructions | 1       |

```
      00 01 02 03 04 05 06 07  08 09 0A 0B 0C 0D 0E 0F
      -- -- -- -- -- -- -- --  -- -- -- -- -- -- -- --
0000: 00                                                .               
```

#### Opcodes

```
  0: 0x0000 [0x00] END_REQSTACK()
```

### Event 103

#### Metadata

| Field        | Value   |
|--------------|---------|
| Entrypoint   | 0x0001  |
| Data Size    | 1 bytes |
| Instructions | 1       |

```
      00 01 02 03 04 05 06 07  08 09 0A 0B 0C 0D 0E 0F
      -- -- -- -- -- -- -- --  -- -- -- -- -- -- -- --
0000:    00                                              .              
```

#### Opcodes

```
  0: 0x0001 [0x00] END_REQSTACK()
```

### Event 101

#### Metadata

| Field        | Value   |
|--------------|---------|
| Entrypoint   | 0x0002  |
| Data Size    | 1 bytes |
| Instructions | 1       |

```
      00 01 02 03 04 05 06 07  08 09 0A 0B 0C 0D 0E 0F
      -- -- -- -- -- -- -- --  -- -- -- -- -- -- -- --
0000:       00                                            .             
```

#### Opcodes

```
  0: 0x0002 [0x00] END_REQSTACK()
```

### Event 65535.1

#### Metadata

| Field        | Value    |
|--------------|----------|
| Entrypoint   | 0x0003   |
| Data Size    | 13 bytes |
| Instructions | 3        |

```
      00 01 02 03 04 05 06 07  08 09 0A 0B 0C 0D 0E 0F
      -- -- -- -- -- -- -- --  -- -- -- -- -- -- -- --
0000:          6E F8 FF FF 7F  00 80 99 F8 FF FF 7F 00     n............
```

#### Opcodes

```
  0: 0x0003 [0x6E] EventEntity uses emote 43*
  1: 0x000A [0x99] Wait for EventEntity animation to complete
  2: 0x000F [0x00] END_REQSTACK()
```

### Event 106

#### Metadata

| Field        | Value   |
|--------------|---------|
| Entrypoint   | 0x0010  |
| Data Size    | 1 bytes |
| Instructions | 1       |

```
      00 01 02 03 04 05 06 07  08 09 0A 0B 0C 0D 0E 0F
      -- -- -- -- -- -- -- --  -- -- -- -- -- -- -- --
0010: 00                                                .               
```

#### Opcodes

```
  0: 0x0010 [0x00] END_REQSTACK()
```

### Event 65535.2

#### Metadata

| Field        | Value    |
|--------------|----------|
| Entrypoint   | 0x0011   |
| Data Size    | 15 bytes |
| Instructions | 5        |

```
      00 01 02 03 04 05 06 07  08 09 0A 0B 0C 0D 0E 0F
      -- -- -- -- -- -- -- --  -- -- -- -- -- -- -- --
0010:    32 01 80 1F 00 02 80  03 80 04 80 1F 01 6F 00   2............o.
```

#### Opcodes

```
  0: 0x0011 [0x32] ExtData[1]->MainSpeed = 40* * 0.1
  1: 0x0014 [0x1F] MOVE_ENTITY: EventEntity moves to X=147.967*, Z=2.477*, Y=-43.600*
  2: 0x001C [0x1F] MOVE_ENTITY: Update entity position (mode=1)
  3: 0x001E [0x6F] WAIT_FRAME_DELAY: Yield until WaitTime reaches zero
  4: 0x001F [0x00] END_REQSTACK()
```

### Event 65535.3

#### Metadata

| Field        | Value    |
|--------------|----------|
| Entrypoint   | 0x0020   |
| Data Size    | 20 bytes |
| Instructions | 6        |

```
      00 01 02 03 04 05 06 07  08 09 0A 0B 0C 0D 0E 0F
      -- -- -- -- -- -- -- --  -- -- -- -- -- -- -- --
0020: 32 01 80 1F 00 05 80 06  80 07 80 1F 01 6F 1E F8  2............o..
0030: 02 06 01 00                                       ....            
```

#### Opcodes

```
  0: 0x0020 [0x32] ExtData[1]->MainSpeed = 40* * 0.1
  1: 0x0023 [0x1F] MOVE_ENTITY: EventEntity moves to X=64.161*, Z=-1.620*, Y=-64.691*
  2: 0x002B [0x1F] MOVE_ENTITY: Update entity position (mode=1)
  3: 0x002D [0x6F] WAIT_FRAME_DELAY: Yield until WaitTime reaches zero
  4: 0x002E [0x1E] EventEntity looks at Robel-Akbel (ID: 17171192/0x010602F8) and starts talking
  5: 0x0033 [0x00] END_REQSTACK()
```

### Event 65535.4

#### Metadata

| Field        | Value   |
|--------------|---------|
| Entrypoint   | 0x0034  |
| Data Size    | 5 bytes |
| Instructions | 2       |

```
      00 01 02 03 04 05 06 07  08 09 0A 0B 0C 0D 0E 0F
      -- -- -- -- -- -- -- --  -- -- -- -- -- -- -- --
0030:             B6 0A 08 80  00                           .....       
```

#### Opcodes

```
  0: 0x0034 [0xB6] ENTITY_APPEARANCE_HANDLER(case=Ranged, value=48*)
  1: 0x0038 [0x00] END_REQSTACK()
```

### Event 65535.5

#### Metadata

| Field        | Value   |
|--------------|---------|
| Entrypoint   | 0x0039  |
| Data Size    | 5 bytes |
| Instructions | 2       |

```
      00 01 02 03 04 05 06 07  08 09 0A 0B 0C 0D 0E 0F
      -- -- -- -- -- -- -- --  -- -- -- -- -- -- -- --
0030:                             B6 0A 09 80 00                 .....  
```

#### Opcodes

```
  0: 0x0039 [0xB6] ENTITY_APPEARANCE_HANDLER(case=Ranged, value=0*)
  1: 0x003D [0x00] END_REQSTACK()
```

### Event 65535.6

#### Metadata

| Field        | Value    |
|--------------|----------|
| Entrypoint   | 0x003E   |
| Data Size    | 26 bytes |
| Instructions | 3        |

```
      00 01 02 03 04 05 06 07  08 09 0A 0B 0C 0D 0E 0F
      -- -- -- -- -- -- -- --  -- -- -- -- -- -- -- --
0030:                                            B6 0B                ..
0040: 0A 80 0B 80 09 80 0C 80  0C 80 0C 80 0C 80 0D 80  ................
0050: 09 80 80 F8 FF FF 7F 00                           ........        
```

#### Opcodes

```
  0: 0x003E [0xB6] ENTITY_APPEARANCE_HANDLER(case=Full entity look, race=3*, hair=9*, head=0*, body=12*, hands=12*, legs=12*, feet=12*, main=253*, sub=0*)
  1: 0x0052 [0x80] LOAD_WAIT(entity=EventEntity)
  2: 0x0057 [0x00] END_REQSTACK()
```

### Event 65535.7

#### Metadata

| Field        | Value    |
|--------------|----------|
| Entrypoint   | 0x0058   |
| Data Size    | 40 bytes |
| Instructions | 4        |

```
      00 01 02 03 04 05 06 07  08 09 0A 0B 0C 0D 0E 0F
      -- -- -- -- -- -- -- --  -- -- -- -- -- -- -- --
0050:                          B6 0B 0E 80 0F 80 10 80          ........
0060: 11 80 11 80 12 80 11 80  13 80 09 80 B6 0F 14 80  ................
0070: 66 15 80 F8 FF FF 7F F8  FF FF 7F 77 70 6F 6E 00  f..........wpon.
```

#### Opcodes

```
  0: 0x0058 [0xB6] ENTITY_APPEARANCE_HANDLER(case=Full entity look, race=7*, hair=11*, head=137*, body=16*, hands=16*, legs=14*, feet=16*, main=283*, sub=0*)
  1: 0x006C [0xB6] ENTITY_APPEARANCE_HANDLER(case=Model size, value=97*)
  2: 0x0070 [0x66] LOAD_EXT_SCHEDULER_MAIN: Load scheduler "wpon" with entities [EventEntity, EventEntity], work=129*
  3: 0x007F [0x00] END_REQSTACK()
```

### Event 65535.8

#### Metadata

| Field        | Value    |
|--------------|----------|
| Entrypoint   | 0x0080   |
| Data Size    | 40 bytes |
| Instructions | 4        |

```
      00 01 02 03 04 05 06 07  08 09 0A 0B 0C 0D 0E 0F
      -- -- -- -- -- -- -- --  -- -- -- -- -- -- -- --
0080: B6 0B 0E 80 0A 80 16 80  17 80 11 80 11 80 18 80  ................
0090: 13 80 09 80 B6 0F 14 80  66 15 80 F8 FF FF 7F F8  ........f.......
00A0: FF FF 7F 77 70 6F 6E 00                           ...wpon.        
```

#### Opcodes

```
  0: 0x0080 [0xB6] ENTITY_APPEARANCE_HANDLER(case=Full entity look, race=7*, hair=3*, head=114*, body=15*, hands=16*, legs=16*, feet=13*, main=283*, sub=0*)
  1: 0x0094 [0xB6] ENTITY_APPEARANCE_HANDLER(case=Model size, value=97*)
  2: 0x0098 [0x66] LOAD_EXT_SCHEDULER_MAIN: Load scheduler "wpon" with entities [EventEntity, EventEntity], work=129*
  3: 0x00A7 [0x00] END_REQSTACK()
```

### Event 112

#### Metadata

| Field        | Value   |
|--------------|---------|
| Entrypoint   | 0x00A8  |
| Data Size    | 1 bytes |
| Instructions | 1       |

```
      00 01 02 03 04 05 06 07  08 09 0A 0B 0C 0D 0E 0F
      -- -- -- -- -- -- -- --  -- -- -- -- -- -- -- --
00A0:                          00                               .       
```

#### Opcodes

```
  0: 0x00A8 [0x00] END_REQSTACK()
```

### Event 113

#### Metadata

| Field        | Value   |
|--------------|---------|
| Entrypoint   | 0x00A9  |
| Data Size    | 1 bytes |
| Instructions | 1       |

```
      00 01 02 03 04 05 06 07  08 09 0A 0B 0C 0D 0E 0F
      -- -- -- -- -- -- -- --  -- -- -- -- -- -- -- --
00A0:                             00                             .      
```

#### Opcodes

```
  0: 0x00A9 [0x00] END_REQSTACK()
```

### Event 65535.9

#### Metadata

| Field        | Value   |
|--------------|---------|
| Entrypoint   | 0x00AA  |
| Data Size    | 5 bytes |
| Instructions | 2       |

```
      00 01 02 03 04 05 06 07  08 09 0A 0B 0C 0D 0E 0F
      -- -- -- -- -- -- -- --  -- -- -- -- -- -- -- --
00A0:                                B6 00 19 80 00               ..... 
```

#### Opcodes

```
  0: 0x00AA [0xB6] ENTITY_APPEARANCE_HANDLER(case=Hair style, value=755*)
  1: 0x00AE [0x00] END_REQSTACK()
```

### Event 65535.10

#### Metadata

| Field        | Value   |
|--------------|---------|
| Entrypoint   | 0x00AF  |
| Data Size    | 5 bytes |
| Instructions | 2       |

```
      00 01 02 03 04 05 06 07  08 09 0A 0B 0C 0D 0E 0F
      -- -- -- -- -- -- -- --  -- -- -- -- -- -- -- --
00A0:                                               B6                 .
00B0: 00 1A 80 00                                       ....            
```

#### Opcodes

```
  0: 0x00AF [0xB6] ENTITY_APPEARANCE_HANDLER(case=Hair style, value=1084*)
  1: 0x00B3 [0x00] END_REQSTACK()
```

### Event 65535.11

#### Metadata

| Field        | Value   |
|--------------|---------|
| Entrypoint   | 0x00B4  |
| Data Size    | 5 bytes |
| Instructions | 2       |

```
      00 01 02 03 04 05 06 07  08 09 0A 0B 0C 0D 0E 0F
      -- -- -- -- -- -- -- --  -- -- -- -- -- -- -- --
00B0:             B6 00 1B 80  00                           .....       
```

#### Opcodes

```
  0: 0x00B4 [0xB6] ENTITY_APPEARANCE_HANDLER(case=Hair style, value=2243*)
  1: 0x00B8 [0x00] END_REQSTACK()
```

### Event 65535.12

#### Metadata

| Field        | Value    |
|--------------|----------|
| Entrypoint   | 0x00B9   |
| Data Size    | 21 bytes |
| Instructions | 2        |

```
      00 01 02 03 04 05 06 07  08 09 0A 0B 0C 0D 0E 0F
      -- -- -- -- -- -- -- --  -- -- -- -- -- -- -- --
00B0:                             B6 0B 0E 80 0A 80 09           .......
00C0: 80 1C 80 1C 80 12 80 12  80 09 80 09 80 00        ..............  
```

#### Opcodes

```
  0: 0x00B9 [0xB6] ENTITY_APPEARANCE_HANDLER(case=Full entity look, race=7*, hair=3*, head=0*, body=94*, hands=94*, legs=14*, feet=14*, main=0*, sub=0*)
  1: 0x00CD [0x00] END_REQSTACK()
```

### Event 65535.13

#### Metadata

| Field        | Value    |
|--------------|----------|
| Entrypoint   | 0x00CE   |
| Data Size    | 21 bytes |
| Instructions | 2        |

```
      00 01 02 03 04 05 06 07  08 09 0A 0B 0C 0D 0E 0F
      -- -- -- -- -- -- -- --  -- -- -- -- -- -- -- --
00C0:                                            B6 0B                ..
00D0: 0E 80 0A 80 09 80 1C 80  1C 80 12 80 12 80 1D 80  ................
00E0: 09 80 00                                          ...             
```

#### Opcodes

```
  0: 0x00CE [0xB6] ENTITY_APPEARANCE_HANDLER(case=Full entity look, race=7*, hair=3*, head=0*, body=94*, hands=94*, legs=14*, feet=14*, main=110*, sub=0*)
  1: 0x00E2 [0x00] END_REQSTACK()
```

### Event 65535.14

#### Metadata

| Field        | Value   |
|--------------|---------|
| Entrypoint   | 0x00E3  |
| Data Size    | 5 bytes |
| Instructions | 2       |

```
      00 01 02 03 04 05 06 07  08 09 0A 0B 0C 0D 0E 0F
      -- -- -- -- -- -- -- --  -- -- -- -- -- -- -- --
00E0:          B6 00 1E 80 00                              .....        
```

#### Opcodes

```
  0: 0x00E3 [0xB6] ENTITY_APPEARANCE_HANDLER(case=Hair style, value=791*)
  1: 0x00E7 [0x00] END_REQSTACK()
```

### Event 65535.15

#### Metadata

| Field        | Value    |
|--------------|----------|
| Entrypoint   | 0x00E8   |
| Data Size    | 25 bytes |
| Instructions | 3        |

```
      00 01 02 03 04 05 06 07  08 09 0A 0B 0C 0D 0E 0F
      -- -- -- -- -- -- -- --  -- -- -- -- -- -- -- --
00E0:                          B4 00 00 00 3F 3F 3F 00          ....???.
00F0: 00 00 00 00 00 00 00 00  00 00 00 00 B5 00 00 00  ................
0100: 00                                                .               
```

#### Opcodes

```
  0: 0x00E8 [0xB4] UI_WINDOW_STRING_HANDLER(case=0x00 - Copy string from opcode, work_offset=ExtData[1]->WorkLocal[0], string="???")
  1: 0x00FC [0xB5] SET_EVENT_ENTITY_NAME: Change EventEntity name to ExtData[1]->WorkLocal[0]
  2: 0x0100 [0x00] END_REQSTACK()
```

### Event 65535.16

#### Metadata

| Field        | Value    |
|--------------|----------|
| Entrypoint   | 0x0101   |
| Data Size    | 25 bytes |
| Instructions | 3        |

```
      00 01 02 03 04 05 06 07  08 09 0A 0B 0C 0D 0E 0F
      -- -- -- -- -- -- -- --  -- -- -- -- -- -- -- --
0100:    B4 00 00 00 52 6F 62  65 6C 2D 41 6B 62 65 6C   ....Robel-Akbel
0110: 00 00 00 00 00 B5 00 00  00 00                    ..........      
```

#### Opcodes

```
  0: 0x0101 [0xB4] UI_WINDOW_STRING_HANDLER(case=0x00 - Copy string from opcode, work_offset=ExtData[1]->WorkLocal[0], string="Robel-Akbel")
  1: 0x0115 [0xB5] SET_EVENT_ENTITY_NAME: Change EventEntity name to ExtData[1]->WorkLocal[0]
  2: 0x0119 [0x00] END_REQSTACK()
```

### Event 65535.17

#### Metadata

| Field        | Value    |
|--------------|----------|
| Entrypoint   | 0x011A   |
| Data Size    | 25 bytes |
| Instructions | 3        |

```
      00 01 02 03 04 05 06 07  08 09 0A 0B 0C 0D 0E 0F
      -- -- -- -- -- -- -- --  -- -- -- -- -- -- -- --
0110:                                B4 00 00 00 30 32            ....02
0120: 00 00 00 00 00 00 00 00  00 00 00 00 00 00 B5 00  ................
0130: 00 00 00                                          ...             
```

#### Opcodes

```
  0: 0x011A [0xB4] UI_WINDOW_STRING_HANDLER(case=0x00 - Copy string from opcode, work_offset=ExtData[1]->WorkLocal[0], string="02")
  1: 0x012E [0xB5] SET_EVENT_ENTITY_NAME: Change EventEntity name to ExtData[1]->WorkLocal[0]
  2: 0x0132 [0x00] END_REQSTACK()
```

### Event 65535.18

#### Metadata

| Field        | Value    |
|--------------|----------|
| Entrypoint   | 0x0133   |
| Data Size    | 14 bytes |
| Instructions | 4        |

```
      00 01 02 03 04 05 06 07  08 09 0A 0B 0C 0D 0E 0F
      -- -- -- -- -- -- -- --  -- -- -- -- -- -- -- --
0130:          32 18 80 1F 00  1F 80 20 80 21 80 1F 01     2...... .!...
0140: 00                                                .               
```

#### Opcodes

```
  0: 0x0133 [0x32] ExtData[1]->MainSpeed = 13* * 0.1
  1: 0x0136 [0x1F] MOVE_ENTITY: EventEntity moves to X=-12.396*, Z=-79.115*, Y=-67.999*
  2: 0x013E [0x1F] MOVE_ENTITY: Update entity position (mode=1)
  3: 0x0140 [0x00] END_REQSTACK()
```

### Event 65535.19

#### Metadata

| Field        | Value    |
|--------------|----------|
| Entrypoint   | 0x0141   |
| Data Size    | 14 bytes |
| Instructions | 4        |

```
      00 01 02 03 04 05 06 07  08 09 0A 0B 0C 0D 0E 0F
      -- -- -- -- -- -- -- --  -- -- -- -- -- -- -- --
0140:    32 18 80 1F 00 22 80  23 80 21 80 1F 01 00      2....".#.!.... 
```

#### Opcodes

```
  0: 0x0141 [0x32] ExtData[1]->MainSpeed = 13* * 0.1
  1: 0x0144 [0x1F] MOVE_ENTITY: EventEntity moves to X=-12.356*, Z=-80.781*, Y=-67.999*
  2: 0x014C [0x1F] MOVE_ENTITY: Update entity position (mode=1)
  3: 0x014E [0x00] END_REQSTACK()
```

### Event 65535.20

#### Metadata

| Field        | Value    |
|--------------|----------|
| Entrypoint   | 0x014F   |
| Data Size    | 22 bytes |
| Instructions | 6        |

```
      00 01 02 03 04 05 06 07  08 09 0A 0B 0C 0D 0E 0F
      -- -- -- -- -- -- -- --  -- -- -- -- -- -- -- --
0140:                                               32                 2
0150: 18 80 5A 00 24 80 25 80  26 80 5A 01 1E F0 FF FF  ..Z.$.%.&.Z.....
0160: 7F 1C 27 80 00                                    ..'..           
```

#### Opcodes

```
  0: 0x014F [0x32] ExtData[1]->MainSpeed = 13* * 0.1
  1: 0x0152 [0x5A] UPDATE_EVENT_POSITION: Set EventEntity MovePosition to X=-467.270*, Z=49.343*, Y=-29.115*
  2: 0x015A [0x5A] UPDATE_EVENT_POSITION: Move EventEntity incrementally towards MovePosition
  3: 0x015C [0x1E] EventEntity looks at LocalPlayer and starts talking
  4: 0x0161 [0x1C] WAIT(30* ticks)
  5: 0x0164 [0x00] END_REQSTACK()
```

### Event 65535.21

#### Metadata

| Field        | Value    |
|--------------|----------|
| Entrypoint   | 0x0165   |
| Data Size    | 37 bytes |
| Instructions | 5        |

```
      00 01 02 03 04 05 06 07  08 09 0A 0B 0C 0D 0E 0F
      -- -- -- -- -- -- -- --  -- -- -- -- -- -- -- --
0160:                03 01 00  07 7F 1A AF 01 66 02 00       ........f..
0170: F8 FF FF 7F F8 FF FF 7F  73 68 61 30 53 F8 FF FF  ........sha0S...
0180: 7F F8 FF FF 7F 73 68 61  30 00                    .....sha0.      
```

#### Opcodes

```
  0: 0x0165 [0x03] ExtData[1]->WorkLocal[1] = Entity->Race
  1: 0x016A [0x1A] CALL_SUBROUTINE(address=0x01AF)
  2: 0x016D [0x66] LOAD_EXT_SCHEDULER_MAIN: Load scheduler "sha0" with entities [EventEntity, EventEntity], work=ExtData[1]->WorkLocal[2]
  3: 0x017C [0x53] WAIT_SCHEDULER_TASK: Wait for scheduler "sha0" with entities [EventEntity, EventEntity]
  4: 0x0189 [0x00] END_REQSTACK()
```

### Event 65535.22

#### Metadata

| Field        | Value     |
|--------------|-----------|
| Entrypoint   | 0x018A    |
| Data Size    | 185 bytes |
| Instructions | 13        |

```
      00 01 02 03 04 05 06 07  08 09 0A 0B 0C 0D 0E 0F
      -- -- -- -- -- -- -- --  -- -- -- -- -- -- -- --
0180:                                03 01 00 07 7F 1A            ......
0190: AF 01 66 02 00 F8 FF FF  7F F8 FF FF 7F 73 68 61  ..f..........sha
01A0: 31 53 F8 FF FF 7F F8 FF  FF 7F 73 68 61 31 00 03  1S........sha1..
01B0: 02 00 01 00 02 02 00 28  80 05 C4 01 08 02 00 29  .......(.......)
01C0: 80 01 C9 01 08 02 00 2A  80 14 02 00 2B 80 07 02  .......*....+...
01D0: 00 0B 80 1B 03 02 00 01  00 02 02 00 28 80 05 E9  ............(...
01E0: 01 08 02 00 29 80 01 EE  01 08 02 00 2A 80 14 02  ....).......*...
01F0: 00 2B 80 07 02 00 2C 80  1B 03 02 00 01 00 02 02  .+....,.........
0200: 00 28 80 05 0E 02 08 02  00 29 80 01 13 02 08 02  .(.......)......
0210: 00 2A 80 14 02 00 2B 80  07 02 00 2D 80 1B 03 02  .*....+....-....
0220: 00 01 00 02 02 00 28 80  05 33 02 08 02 00 29 80  ......(..3....).
0230: 01 38 02 08 02 00 2A 80  14 02 00 2B 80 07 02 00  .8....*....+....
0240: 2E 80 1B                                          ...             
```

#### Opcodes

```
  0: 0x018A [0x03] ExtData[1]->WorkLocal[1] = Entity->Race
  1: 0x018F [0x1A] CALL_SUBROUTINE(address=0x01AF)
  2: 0x0192 [0x66] LOAD_EXT_SCHEDULER_MAIN: Load scheduler "sha1" with entities [EventEntity, EventEntity], work=ExtData[1]->WorkLocal[2]
  3: 0x01A1 [0x53] WAIT_SCHEDULER_TASK: Wait for scheduler "sha1" with entities [EventEntity, EventEntity]
  4: 0x01AE [0x00] END_REQSTACK()

SUBROUTINE_01AF:
  5: 0x01AF [0x03] ExtData[1]->WorkLocal[2] = ExtData[1]->WorkLocal[1]
  6: 0x01B4 [0x02] IF !(ExtData[1]->WorkLocal[2] > 5*) GOTO 0x01C4
  7: 0x01BC [0x08] ExtData[1]->WorkLocal[2] -= 1*
  8: 0x01C1 [0x01] GOTO 0x01C9
  9: 0x01C4 [0x08] ExtData[1]->WorkLocal[2] -= 2*

SUBROUTINE_01C9:
 10: 0x01C9 [0x14] ExtData[1]->WorkLocal[2] *= 10*
 11: 0x01CE [0x07] ExtData[1]->WorkLocal[2] += 9*
 12: 0x01D3 [0x1B] RETURN
```

#### Data or dead code:

```
# Dead code (unreachable instructions):
     0x01D4 [0x03] ExtData[1]->WorkLocal[2] = ExtData[1]->WorkLocal[1]
     0x01D9 [0x02] IF !(ExtData[1]->WorkLocal[2] > 5*) GOTO 0x01E9
     0x01E1 [0x08] ExtData[1]->WorkLocal[2] -= 1*
     0x01E6 [0x01] GOTO 0x01EE
     0x01E9 [0x08] ExtData[1]->WorkLocal[2] -= 2*
     0x01EE [0x14] ExtData[1]->WorkLocal[2] *= 10*
     0x01F3 [0x07] ExtData[1]->WorkLocal[2] += 70*
     0x01F8 [0x1B] RETURN
     0x01F9 [0x03] ExtData[1]->WorkLocal[2] = ExtData[1]->WorkLocal[1]
     0x01FE [0x02] IF !(ExtData[1]->WorkLocal[2] > 5*) GOTO 0x020E
     0x0206 [0x08] ExtData[1]->WorkLocal[2] -= 1*
     0x020B [0x01] GOTO 0x0213
     0x020E [0x08] ExtData[1]->WorkLocal[2] -= 2*
     0x0213 [0x14] ExtData[1]->WorkLocal[2] *= 10*
     0x0218 [0x07] ExtData[1]->WorkLocal[2] += 140*
     0x021D [0x1B] RETURN
     0x021E [0x03] ExtData[1]->WorkLocal[2] = ExtData[1]->WorkLocal[1]
     0x0223 [0x02] IF !(ExtData[1]->WorkLocal[2] > 5*) GOTO 0x0233
     0x022B [0x08] ExtData[1]->WorkLocal[2] -= 1*
     0x0230 [0x01] GOTO 0x0238
     0x0233 [0x08] ExtData[1]->WorkLocal[2] -= 2*
     0x0238 [0x14] ExtData[1]->WorkLocal[2] *= 10*
     0x023D [0x07] ExtData[1]->WorkLocal[2] += 210*
     0x0242 [0x1B] RETURN
```

### Event 65535.23

#### Metadata

| Field        | Value    |
|--------------|----------|
| Entrypoint   | 0x0243   |
| Data Size    | 64 bytes |
| Instructions | 6        |

```
      00 01 02 03 04 05 06 07  08 09 0A 0B 0C 0D 0E 0F
      -- -- -- -- -- -- -- --  -- -- -- -- -- -- -- --
0240:          B6 0B 0E 80 0A  80 09 80 1C 80 1C 80 12     .............
0250: 80 12 80 1D 80 09 80 B4  13 00 00 54 69 68 6C 40  ...........Tihl@
0260: 4D 69 64 75 72 68 69 00  00 00 00 B5 00 00 00 B6  Midurhi.........
0270: 0F 2F 80 66 15 80 F8 FF  FF 7F F8 FF FF 7F 77 70  ./.f..........wp
0280: 6F 6E 00                                          on.             
```

#### Opcodes

```
  0: 0x0243 [0xB6] ENTITY_APPEARANCE_HANDLER(case=Full entity look, race=7*, hair=3*, head=0*, body=94*, hands=94*, legs=14*, feet=14*, main=110*, sub=0*)
  1: 0x0257 [0xB4] UI_WINDOW_STRING_HANDLER(case=0x13 - Copy string and replace @ with space, work_offset=ExtData[1]->WorkLocal[0], string="Tihl@Midurhi")
  2: 0x026B [0xB5] SET_EVENT_ENTITY_NAME: Change EventEntity name to ExtData[1]->WorkLocal[0]
  3: 0x026F [0xB6] ENTITY_APPEARANCE_HANDLER(case=Model size, value=89*)
  4: 0x0273 [0x66] LOAD_EXT_SCHEDULER_MAIN: Load scheduler "wpon" with entities [EventEntity, EventEntity], work=129*
  5: 0x0282 [0x00] END_REQSTACK()
```

### Event 65535.24

#### Metadata

| Field        | Value    |
|--------------|----------|
| Entrypoint   | 0x0283   |
| Data Size    | 15 bytes |
| Instructions | 5        |

```
      00 01 02 03 04 05 06 07  08 09 0A 0B 0C 0D 0E 0F
      -- -- -- -- -- -- -- --  -- -- -- -- -- -- -- --
0280:          32 01 80 1F 00  30 80 31 80 32 80 1F 01     2....0.1.2...
0290: 6F 00                                             o.              
```

#### Opcodes

```
  0: 0x0283 [0x32] ExtData[1]->MainSpeed = 40* * 0.1
  1: 0x0286 [0x1F] MOVE_ENTITY: EventEntity moves to X=-135.536*, Z=-99.837*, Y=-75.785*
  2: 0x028E [0x1F] MOVE_ENTITY: Update entity position (mode=1)
  3: 0x0290 [0x6F] WAIT_FRAME_DELAY: Yield until WaitTime reaches zero
  4: 0x0291 [0x00] END_REQSTACK()
```
