# 17171276

## Common Data

| Field            | Value                           |
|------------------|---------------------------------|
| Zone             | Fort Karugo-Narugo [S] (ID: 96) |
| Block Size       | 1584 bytes                      |
| Total Events     | 28                              |
| References Count | 30                              |

## List of Events

| Event ID                   | Entrypoint   |   Size |   Instructions |
|----------------------------|--------------|--------|----------------|
| [65535](#event-65535)      | 0x0000       |      1 |              1 |
| [112](#event-112)          | 0x0001       |      1 |              1 |
| [65535.1](#event-655351)   | 0x0002       |    106 |             12 |
| [65535.2](#event-655352)   | 0x006C       |    106 |             12 |
| [65535.3](#event-655353)   | 0x00D6       |    103 |             11 |
| [65535.4](#event-655354)   | 0x013D       |    106 |             12 |
| [65535.5](#event-655355)   | 0x01A7       |    121 |             13 |
| [65535.6](#event-655356)   | 0x0220       |     10 |              2 |
| [65535.7](#event-655357)   | 0x022A       |     10 |              2 |
| [65535.8](#event-655358)   | 0x0234       |     10 |              2 |
| [65535.9](#event-655359)   | 0x023E       |     10 |              2 |
| [65535.10](#event-6553510) | 0x0248       |     68 |              6 |
| [65535.11](#event-6553511) | 0x028C       |     68 |              6 |
| [65535.12](#event-6553512) | 0x02D0       |     86 |              8 |
| [65535.13](#event-6553513) | 0x0326       |     10 |              2 |
| [65535.14](#event-6553514) | 0x0330       |     10 |              2 |
| [65535.15](#event-6553515) | 0x033A       |     10 |              2 |
| [65535.16](#event-6553516) | 0x0344       |     13 |              3 |
| [65535.17](#event-6553517) | 0x0351       |     10 |              2 |
| [65535.18](#event-6553518) | 0x035B       |     10 |              2 |
| [65535.19](#event-6553519) | 0x0365       |     10 |              2 |
| [65535.20](#event-6553520) | 0x036F       |     67 |             12 |
| [65535.21](#event-6553521) | 0x03B2       |     67 |             12 |
| [65535.22](#event-6553522) | 0x03F5       |     98 |             12 |
| [65535.23](#event-6553523) | 0x0457       |     67 |              7 |
| [65535.24](#event-6553524) | 0x049A       |     91 |              7 |
| [65535.25](#event-6553525) | 0x04F5       |     61 |              5 |
| [65535.26](#event-6553526) | 0x0532       |      4 |              2 |

## DAT References (imed_data)

|   Index | Hex Value   |   Dec Value |
|---------|-------------|-------------|
|       0 | 0x0081      |         129 |
|       1 | 0x0002      |           2 |
|       2 | 0x0003      |           3 |
|       3 | 0x0004      |           4 |
|       4 | 0x0001      |           1 |
|       5 | 0x0006      |           6 |
|       6 | 0x05F9      |        1529 |
|       7 | 0x0005      |           5 |
|       8 | 0x000F      |          15 |
|       9 | 0x000A      |          10 |
|      10 | 0x0000      |           0 |
|      11 | 0x0909      |        2313 |
|      12 | 0x080E      |        2062 |
|      13 | 0x002D      |          45 |
|      14 | 0x0080      |         128 |
|      15 | 0x001E      |          30 |
|      16 | 0x0457      |        1111 |
|      17 | 0xFFFE4CF8  |  4294855928 |
|      18 | 0xFFFF1C17  |  4294908951 |
|      19 | 0xFFFEF661  |  4294899297 |
|      20 | 0x0FCF      |        4047 |
|      21 | 0xFFFE5309  |  4294857481 |
|      22 | 0xFFFF1580  |  4294907264 |
|      23 | 0x0FCD      |        4045 |
|      24 | 0xFFFE4FB4  |  4294856628 |
|      25 | 0xFFFF2E09  |  4294913545 |
|      26 | 0xFFFEF6BD  |  4294899389 |
|      27 | 0x00DA      |         218 |
|      28 | 0x08B4      |        2228 |
|      29 | 0x0945      |        2373 |

## Events

### Event 65535

#### Metadata

| Field        | Value   |
|--------------|---------|
| Entrypoint   | 0x0000  |
| Data Size    | 1 bytes |
| Instructions | 1       |

```
      00 01 02 03 04 05 06 07  08 09 0A 0B 0C 0D 0E 0F
      -- -- -- -- -- -- -- --  -- -- -- -- -- -- -- --
0000: 00                                                .               
```

#### Opcodes

```
  0: 0x0000 [0x00] END_REQSTACK()
```

### Event 112

#### Metadata

| Field        | Value   |
|--------------|---------|
| Entrypoint   | 0x0001  |
| Data Size    | 1 bytes |
| Instructions | 1       |

```
      00 01 02 03 04 05 06 07  08 09 0A 0B 0C 0D 0E 0F
      -- -- -- -- -- -- -- --  -- -- -- -- -- -- -- --
0000:    00                                              .              
```

#### Opcodes

```
  0: 0x0001 [0x00] END_REQSTACK()
```

### Event 65535.1

#### Metadata

| Field        | Value     |
|--------------|-----------|
| Entrypoint   | 0x0002    |
| Data Size    | 106 bytes |
| Instructions | 12        |

```
      00 01 02 03 04 05 06 07  08 09 0A 0B 0C 0D 0E 0F
      -- -- -- -- -- -- -- --  -- -- -- -- -- -- -- --
0000:       66 00 80 06 03 06  01 06 03 06 01 62 61 77    f..........baw
0010: 31 1C 01 80 66 00 80 02  03 06 01 02 03 06 01 62  1...f..........b
0020: 61 77 31 1C 02 80 66 00  80 01 03 06 01 01 03 06  aw1...f.........
0030: 01 62 61 77 31 1C 01 80  66 00 80 04 03 06 01 04  .baw1...f.......
0040: 03 06 01 62 61 77 31 1C  03 80 66 00 80 03 03 06  ...baw1...f.....
0050: 01 03 03 06 01 62 61 77  31 1C 04 80 66 00 80 05  .....baw1...f...
0060: 03 06 01 05 03 06 01 62  61 77 31 00              .......baw1.    
```

#### Opcodes

```
  0: 0x0002 [0x66] LOAD_EXT_SCHEDULER_MAIN: Load scheduler "baw1" with entities [06 (ID: 17171206/0x01060306), 06 (ID: 17171206/0x01060306)], work=129*
  1: 0x0011 [0x1C] WAIT(2* ticks)
  2: 0x0014 [0x66] LOAD_EXT_SCHEDULER_MAIN: Load scheduler "baw1" with entities [02 (ID: 17171202/0x01060302), 02 (ID: 17171202/0x01060302)], work=129*
  3: 0x0023 [0x1C] WAIT(3* ticks)
  4: 0x0026 [0x66] LOAD_EXT_SCHEDULER_MAIN: Load scheduler "baw1" with entities [01 (ID: 17171201/0x01060301), 01 (ID: 17171201/0x01060301)], work=129*
  5: 0x0035 [0x1C] WAIT(2* ticks)
  6: 0x0038 [0x66] LOAD_EXT_SCHEDULER_MAIN: Load scheduler "baw1" with entities [04 (ID: 17171204/0x01060304), 04 (ID: 17171204/0x01060304)], work=129*
  7: 0x0047 [0x1C] WAIT(4* ticks)
  8: 0x004A [0x66] LOAD_EXT_SCHEDULER_MAIN: Load scheduler "baw1" with entities [03 (ID: 17171203/0x01060303), 03 (ID: 17171203/0x01060303)], work=129*
  9: 0x0059 [0x1C] WAIT(1* ticks)
 10: 0x005C [0x66] LOAD_EXT_SCHEDULER_MAIN: Load scheduler "baw1" with entities [05 (ID: 17171205/0x01060305), 05 (ID: 17171205/0x01060305)], work=129*
 11: 0x006B [0x00] END_REQSTACK()
```

### Event 65535.2

#### Metadata

| Field        | Value     |
|--------------|-----------|
| Entrypoint   | 0x006C    |
| Data Size    | 106 bytes |
| Instructions | 12        |

```
      00 01 02 03 04 05 06 07  08 09 0A 0B 0C 0D 0E 0F
      -- -- -- -- -- -- -- --  -- -- -- -- -- -- -- --
0060:                                      66 00 80 01              f...
0070: 03 06 01 01 03 06 01 62  61 77 32 1C 01 80 66 00  .......baw2...f.
0080: 80 04 03 06 01 04 03 06  01 62 61 77 32 1C 03 80  .........baw2...
0090: 66 00 80 03 03 06 01 03  03 06 01 62 61 77 32 1C  f..........baw2.
00A0: 04 80 66 00 80 06 03 06  01 06 03 06 01 62 61 77  ..f..........baw
00B0: 32 1C 01 80 66 00 80 02  03 06 01 02 03 06 01 62  2...f..........b
00C0: 61 77 32 1C 02 80 66 00  80 05 03 06 01 05 03 06  aw2...f.........
00D0: 01 62 61 77 32 00                                 .baw2.          
```

#### Opcodes

```
  0: 0x006C [0x66] LOAD_EXT_SCHEDULER_MAIN: Load scheduler "baw2" with entities [01 (ID: 17171201/0x01060301), 01 (ID: 17171201/0x01060301)], work=129*
  1: 0x007B [0x1C] WAIT(2* ticks)
  2: 0x007E [0x66] LOAD_EXT_SCHEDULER_MAIN: Load scheduler "baw2" with entities [04 (ID: 17171204/0x01060304), 04 (ID: 17171204/0x01060304)], work=129*
  3: 0x008D [0x1C] WAIT(4* ticks)
  4: 0x0090 [0x66] LOAD_EXT_SCHEDULER_MAIN: Load scheduler "baw2" with entities [03 (ID: 17171203/0x01060303), 03 (ID: 17171203/0x01060303)], work=129*
  5: 0x009F [0x1C] WAIT(1* ticks)
  6: 0x00A2 [0x66] LOAD_EXT_SCHEDULER_MAIN: Load scheduler "baw2" with entities [06 (ID: 17171206/0x01060306), 06 (ID: 17171206/0x01060306)], work=129*
  7: 0x00B1 [0x1C] WAIT(2* ticks)
  8: 0x00B4 [0x66] LOAD_EXT_SCHEDULER_MAIN: Load scheduler "baw2" with entities [02 (ID: 17171202/0x01060302), 02 (ID: 17171202/0x01060302)], work=129*
  9: 0x00C3 [0x1C] WAIT(3* ticks)
 10: 0x00C6 [0x66] LOAD_EXT_SCHEDULER_MAIN: Load scheduler "baw2" with entities [05 (ID: 17171205/0x01060305), 05 (ID: 17171205/0x01060305)], work=129*
 11: 0x00D5 [0x00] END_REQSTACK()
```

### Event 65535.3

#### Metadata

| Field        | Value     |
|--------------|-----------|
| Entrypoint   | 0x00D6    |
| Data Size    | 103 bytes |
| Instructions | 11        |

```
      00 01 02 03 04 05 06 07  08 09 0A 0B 0C 0D 0E 0F
      -- -- -- -- -- -- -- --  -- -- -- -- -- -- -- --
00D0:                   66 00  80 01 03 06 01 01 03 06        f.........
00E0: 01 62 61 77 33 1C 02 80  66 00 80 04 03 06 01 04  .baw3...f.......
00F0: 03 06 01 62 61 77 33 1C  04 80 66 00 80 03 03 06  ...baw3...f.....
0100: 01 03 03 06 01 62 61 77  33 66 00 80 06 03 06 01  .....baw3f......
0110: 06 03 06 01 62 61 77 33  1C 03 80 66 00 80 02 03  ....baw3...f....
0120: 06 01 02 03 06 01 62 61  77 33 1C 01 80 66 00 80  ......baw3...f..
0130: 05 03 06 01 05 03 06 01  62 61 77 33 00           ........baw3.   
```

#### Opcodes

```
  0: 0x00D6 [0x66] LOAD_EXT_SCHEDULER_MAIN: Load scheduler "baw3" with entities [01 (ID: 17171201/0x01060301), 01 (ID: 17171201/0x01060301)], work=129*
  1: 0x00E5 [0x1C] WAIT(3* ticks)
  2: 0x00E8 [0x66] LOAD_EXT_SCHEDULER_MAIN: Load scheduler "baw3" with entities [04 (ID: 17171204/0x01060304), 04 (ID: 17171204/0x01060304)], work=129*
  3: 0x00F7 [0x1C] WAIT(1* ticks)
  4: 0x00FA [0x66] LOAD_EXT_SCHEDULER_MAIN: Load scheduler "baw3" with entities [03 (ID: 17171203/0x01060303), 03 (ID: 17171203/0x01060303)], work=129*
  5: 0x0109 [0x66] LOAD_EXT_SCHEDULER_MAIN: Load scheduler "baw3" with entities [06 (ID: 17171206/0x01060306), 06 (ID: 17171206/0x01060306)], work=129*
  6: 0x0118 [0x1C] WAIT(4* ticks)
  7: 0x011B [0x66] LOAD_EXT_SCHEDULER_MAIN: Load scheduler "baw3" with entities [02 (ID: 17171202/0x01060302), 02 (ID: 17171202/0x01060302)], work=129*
  8: 0x012A [0x1C] WAIT(2* ticks)
  9: 0x012D [0x66] LOAD_EXT_SCHEDULER_MAIN: Load scheduler "baw3" with entities [05 (ID: 17171205/0x01060305), 05 (ID: 17171205/0x01060305)], work=129*
 10: 0x013C [0x00] END_REQSTACK()
```

### Event 65535.4

#### Metadata

| Field        | Value     |
|--------------|-----------|
| Entrypoint   | 0x013D    |
| Data Size    | 106 bytes |
| Instructions | 12        |

```
      00 01 02 03 04 05 06 07  08 09 0A 0B 0C 0D 0E 0F
      -- -- -- -- -- -- -- --  -- -- -- -- -- -- -- --
0130:                                         66 00 80               f..
0140: 06 03 06 01 06 03 06 01  62 61 77 33 1C 03 80 66  ........baw3...f
0150: 00 80 02 03 06 01 02 03  06 01 62 61 77 33 1C 01  ..........baw3..
0160: 80 66 00 80 05 03 06 01  05 03 06 01 62 61 77 33  .f..........baw3
0170: 1C 05 80 66 00 80 01 03  06 01 01 03 06 01 62 61  ...f..........ba
0180: 77 33 1C 02 80 66 00 80  04 03 06 01 04 03 06 01  w3...f..........
0190: 62 61 77 33 1C 04 80 66  00 80 03 03 06 01 03 03  baw3...f........
01A0: 06 01 62 61 77 33 00                              ..baw3.         
```

#### Opcodes

```
  0: 0x013D [0x66] LOAD_EXT_SCHEDULER_MAIN: Load scheduler "baw3" with entities [06 (ID: 17171206/0x01060306), 06 (ID: 17171206/0x01060306)], work=129*
  1: 0x014C [0x1C] WAIT(4* ticks)
  2: 0x014F [0x66] LOAD_EXT_SCHEDULER_MAIN: Load scheduler "baw3" with entities [02 (ID: 17171202/0x01060302), 02 (ID: 17171202/0x01060302)], work=129*
  3: 0x015E [0x1C] WAIT(2* ticks)
  4: 0x0161 [0x66] LOAD_EXT_SCHEDULER_MAIN: Load scheduler "baw3" with entities [05 (ID: 17171205/0x01060305), 05 (ID: 17171205/0x01060305)], work=129*
  5: 0x0170 [0x1C] WAIT(6* ticks)
  6: 0x0173 [0x66] LOAD_EXT_SCHEDULER_MAIN: Load scheduler "baw3" with entities [01 (ID: 17171201/0x01060301), 01 (ID: 17171201/0x01060301)], work=129*
  7: 0x0182 [0x1C] WAIT(3* ticks)
  8: 0x0185 [0x66] LOAD_EXT_SCHEDULER_MAIN: Load scheduler "baw3" with entities [04 (ID: 17171204/0x01060304), 04 (ID: 17171204/0x01060304)], work=129*
  9: 0x0194 [0x1C] WAIT(1* ticks)
 10: 0x0197 [0x66] LOAD_EXT_SCHEDULER_MAIN: Load scheduler "baw3" with entities [03 (ID: 17171203/0x01060303), 03 (ID: 17171203/0x01060303)], work=129*
 11: 0x01A6 [0x00] END_REQSTACK()
```

### Event 65535.5

#### Metadata

| Field        | Value     |
|--------------|-----------|
| Entrypoint   | 0x01A7    |
| Data Size    | 121 bytes |
| Instructions | 13        |

```
      00 01 02 03 04 05 06 07  08 09 0A 0B 0C 0D 0E 0F
      -- -- -- -- -- -- -- --  -- -- -- -- -- -- -- --
01A0:                      5B  06 80 18 03 06 01 18 03         [........
01B0: 06 01 73 64 6F 6E 1C 01  80 5B 06 80 E3 02 06 01  ..sdon...[......
01C0: E3 02 06 01 73 64 6F 6E  1C 07 80 5B 06 80 19 03  ....sdon...[....
01D0: 06 01 19 03 06 01 73 64  6F 6E 1C 08 80 5B 06 80  ......sdon...[..
01E0: E7 02 06 01 E7 02 06 01  73 64 6F 6E 5B 06 80 E5  ........sdon[...
01F0: 02 06 01 E5 02 06 01 73  64 6F 6E 1C 07 80 5B 06  .......sdon...[.
0200: 80 E6 02 06 01 E6 02 06  01 73 64 6F 6E 1C 09 80  .........sdon...
0210: 5B 06 80 E4 02 06 01 E4  02 06 01 73 64 6F 6E 00  [..........sdon.
```

#### Opcodes

```
  0: 0x01A7 [0x5B] LOAD_EXT_SCHEDULER: Load scheduler "sdon" with entities [Tihl Midurhi (ID: 17171224/0x01060318), Tihl Midurhi (ID: 17171224/0x01060318)], work=1529*
  1: 0x01B6 [0x1C] WAIT(2* ticks)
  2: 0x01B9 [0x5B] LOAD_EXT_SCHEDULER: Load scheduler "sdon" with entities [01 (ID: 17171171/0x010602E3), 01 (ID: 17171171/0x010602E3)], work=1529*
  3: 0x01C8 [0x1C] WAIT(5* ticks)
  4: 0x01CB [0x5B] LOAD_EXT_SCHEDULER: Load scheduler "sdon" with entities [Mihl Pakorhma (ID: 17171225/0x01060319), Mihl Pakorhma (ID: 17171225/0x01060319)], work=1529*
  5: 0x01DA [0x1C] WAIT(15* ticks)
  6: 0x01DD [0x5B] LOAD_EXT_SCHEDULER: Load scheduler "sdon" with entities [05 (ID: 17171175/0x010602E7), 05 (ID: 17171175/0x010602E7)], work=1529*
  7: 0x01EC [0x5B] LOAD_EXT_SCHEDULER: Load scheduler "sdon" with entities [03 (ID: 17171173/0x010602E5), 03 (ID: 17171173/0x010602E5)], work=1529*
  8: 0x01FB [0x1C] WAIT(5* ticks)
  9: 0x01FE [0x5B] LOAD_EXT_SCHEDULER: Load scheduler "sdon" with entities [04 (ID: 17171174/0x010602E6), 04 (ID: 17171174/0x010602E6)], work=1529*
 10: 0x020D [0x1C] WAIT(10* ticks)
 11: 0x0210 [0x5B] LOAD_EXT_SCHEDULER: Load scheduler "sdon" with entities [02 (ID: 17171172/0x010602E4), 02 (ID: 17171172/0x010602E4)], work=1529*
 12: 0x021F [0x00] END_REQSTACK()
```

### Event 65535.6

#### Metadata

| Field        | Value    |
|--------------|----------|
| Entrypoint   | 0x0220   |
| Data Size    | 10 bytes |
| Instructions | 2        |

```
      00 01 02 03 04 05 06 07  08 09 0A 0B 0C 0D 0E 0F
      -- -- -- -- -- -- -- --  -- -- -- -- -- -- -- --
0220: 6C E3 02 06 01 0A 80 04  80 00                    l.........      
```

#### Opcodes

```
  0: 0x0220 [0x6C] FADE_ENTITY_COLOR(entity_id=01 (ID: 17171171/0x010602E3), end_alpha=0*, fade_time=1*)
  1: 0x0229 [0x00] END_REQSTACK()
```

### Event 65535.7

#### Metadata

| Field        | Value    |
|--------------|----------|
| Entrypoint   | 0x022A   |
| Data Size    | 10 bytes |
| Instructions | 2        |

```
      00 01 02 03 04 05 06 07  08 09 0A 0B 0C 0D 0E 0F
      -- -- -- -- -- -- -- --  -- -- -- -- -- -- -- --
0220:                                6C E4 02 06 01 0A            l.....
0230: 80 04 80 00                                       ....            
```

#### Opcodes

```
  0: 0x022A [0x6C] FADE_ENTITY_COLOR(entity_id=02 (ID: 17171172/0x010602E4), end_alpha=0*, fade_time=1*)
  1: 0x0233 [0x00] END_REQSTACK()
```

### Event 65535.8

#### Metadata

| Field        | Value    |
|--------------|----------|
| Entrypoint   | 0x0234   |
| Data Size    | 10 bytes |
| Instructions | 2        |

```
      00 01 02 03 04 05 06 07  08 09 0A 0B 0C 0D 0E 0F
      -- -- -- -- -- -- -- --  -- -- -- -- -- -- -- --
0230:             6C E6 02 06  01 0A 80 04 80 00            l.........  
```

#### Opcodes

```
  0: 0x0234 [0x6C] FADE_ENTITY_COLOR(entity_id=04 (ID: 17171174/0x010602E6), end_alpha=0*, fade_time=1*)
  1: 0x023D [0x00] END_REQSTACK()
```

### Event 65535.9

#### Metadata

| Field        | Value    |
|--------------|----------|
| Entrypoint   | 0x023E   |
| Data Size    | 10 bytes |
| Instructions | 2        |

```
      00 01 02 03 04 05 06 07  08 09 0A 0B 0C 0D 0E 0F
      -- -- -- -- -- -- -- --  -- -- -- -- -- -- -- --
0230:                                            6C E7                l.
0240: 02 06 01 0A 80 04 80 00                           ........        
```

#### Opcodes

```
  0: 0x023E [0x6C] FADE_ENTITY_COLOR(entity_id=05 (ID: 17171175/0x010602E7), end_alpha=0*, fade_time=1*)
  1: 0x0247 [0x00] END_REQSTACK()
```

### Event 65535.10

#### Metadata

| Field        | Value    |
|--------------|----------|
| Entrypoint   | 0x0248   |
| Data Size    | 68 bytes |
| Instructions | 6        |

```
      00 01 02 03 04 05 06 07  08 09 0A 0B 0C 0D 0E 0F
      -- -- -- -- -- -- -- --  -- -- -- -- -- -- -- --
0240:                          5B 0B 80 25 03 06 01 25          [..%...%
0250: 03 06 01 67 75 6E 31 C5  01 80 25 03 06 01 25 03  ...gun1...%...%.
0260: 06 01 73 63 30 31 0A 80  1C 08 80 5B 0C 80 01 03  ..sc01.....[....
0270: 06 01 01 03 06 01 68 69  72 32 C5 01 80 01 03 06  ......hir2......
0280: 01 01 03 06 01 73 63 30  30 0A 80 00              .....sc00...    
```

#### Opcodes

```
  0: 0x0248 [0x5B] LOAD_EXT_SCHEDULER: Load scheduler "gun1" with entities [Naho Gwanboh (ID: 17171237/0x01060325), Naho Gwanboh (ID: 17171237/0x01060325)], work=2313*
  1: 0x0257 [0xC5] LOAD_SCHEDULED_TASK_ALT3: Load scheduler 0x800A3130 for entities [Naho Gwanboh (ID: 17171237/0x01060325), Naho Gwanboh (ID: 17171237/0x01060325)], work=2*, param=25459
  2: 0x0268 [0x1C] WAIT(15* ticks)
  3: 0x026B [0x5B] LOAD_EXT_SCHEDULER: Load scheduler "hir2" with entities [01 (ID: 17171201/0x01060301), 01 (ID: 17171201/0x01060301)], work=2062*
  4: 0x027A [0xC5] LOAD_SCHEDULED_TASK_ALT3: Load scheduler 0x800A3030 for entities [01 (ID: 17171201/0x01060301), 01 (ID: 17171201/0x01060301)], work=2*, param=25459
  5: 0x028B [0x00] END_REQSTACK()
```

### Event 65535.11

#### Metadata

| Field        | Value    |
|--------------|----------|
| Entrypoint   | 0x028C   |
| Data Size    | 68 bytes |
| Instructions | 6        |

```
      00 01 02 03 04 05 06 07  08 09 0A 0B 0C 0D 0E 0F
      -- -- -- -- -- -- -- --  -- -- -- -- -- -- -- --
0280:                                      5B 0B 80 02              [...
0290: 03 06 01 02 03 06 01 67  75 6E 31 C5 01 80 02 03  .......gun1.....
02A0: 06 01 02 03 06 01 73 63  30 31 0A 80 1C 08 80 5B  ......sc01.....[
02B0: 0C 80 03 03 06 01 03 03  06 01 68 69 72 32 C5 01  ..........hir2..
02C0: 80 03 03 06 01 03 03 06  01 73 63 30 30 0A 80 00  .........sc00...
```

#### Opcodes

```
  0: 0x028C [0x5B] LOAD_EXT_SCHEDULER: Load scheduler "gun1" with entities [02 (ID: 17171202/0x01060302), 02 (ID: 17171202/0x01060302)], work=2313*
  1: 0x029B [0xC5] LOAD_SCHEDULED_TASK_ALT3: Load scheduler 0x800A3130 for entities [02 (ID: 17171202/0x01060302), 02 (ID: 17171202/0x01060302)], work=2*, param=25459
  2: 0x02AC [0x1C] WAIT(15* ticks)
  3: 0x02AF [0x5B] LOAD_EXT_SCHEDULER: Load scheduler "hir2" with entities [03 (ID: 17171203/0x01060303), 03 (ID: 17171203/0x01060303)], work=2062*
  4: 0x02BE [0xC5] LOAD_SCHEDULED_TASK_ALT3: Load scheduler 0x800A3030 for entities [03 (ID: 17171203/0x01060303), 03 (ID: 17171203/0x01060303)], work=2*, param=25459
  5: 0x02CF [0x00] END_REQSTACK()
```

### Event 65535.12

#### Metadata

| Field        | Value    |
|--------------|----------|
| Entrypoint   | 0x02D0   |
| Data Size    | 86 bytes |
| Instructions | 8        |

```
      00 01 02 03 04 05 06 07  08 09 0A 0B 0C 0D 0E 0F
      -- -- -- -- -- -- -- --  -- -- -- -- -- -- -- --
02D0: 5B 0C 80 01 03 06 01 01  03 06 01 68 69 72 32 C5  [..........hir2.
02E0: 01 80 01 03 06 01 01 03  06 01 73 63 30 30 0A 80  ..........sc00..
02F0: 1C 08 80 5B 0B 80 25 03  06 01 25 03 06 01 67 75  ...[..%...%...gu
0300: 6E 31 C5 01 80 25 03 06  01 25 03 06 01 73 63 30  n1...%...%...sc0
0310: 31 0A 80 1C 0D 80 5B 0C  80 01 03 06 01 01 03 06  1.....[.........
0320: 01 68 69 72 33 00                                 .hir3.          
```

#### Opcodes

```
  0: 0x02D0 [0x5B] LOAD_EXT_SCHEDULER: Load scheduler "hir2" with entities [01 (ID: 17171201/0x01060301), 01 (ID: 17171201/0x01060301)], work=2062*
  1: 0x02DF [0xC5] LOAD_SCHEDULED_TASK_ALT3: Load scheduler 0x800A3030 for entities [01 (ID: 17171201/0x01060301), 01 (ID: 17171201/0x01060301)], work=2*, param=25459
  2: 0x02F0 [0x1C] WAIT(15* ticks)
  3: 0x02F3 [0x5B] LOAD_EXT_SCHEDULER: Load scheduler "gun1" with entities [Naho Gwanboh (ID: 17171237/0x01060325), Naho Gwanboh (ID: 17171237/0x01060325)], work=2313*
  4: 0x0302 [0xC5] LOAD_SCHEDULED_TASK_ALT3: Load scheduler 0x800A3130 for entities [Naho Gwanboh (ID: 17171237/0x01060325), Naho Gwanboh (ID: 17171237/0x01060325)], work=2*, param=25459
  5: 0x0313 [0x1C] WAIT(45* ticks)
  6: 0x0316 [0x5B] LOAD_EXT_SCHEDULER: Load scheduler "hir3" with entities [01 (ID: 17171201/0x01060301), 01 (ID: 17171201/0x01060301)], work=2062*
  7: 0x0325 [0x00] END_REQSTACK()
```

### Event 65535.13

#### Metadata

| Field        | Value    |
|--------------|----------|
| Entrypoint   | 0x0326   |
| Data Size    | 10 bytes |
| Instructions | 2        |

```
      00 01 02 03 04 05 06 07  08 09 0A 0B 0C 0D 0E 0F
      -- -- -- -- -- -- -- --  -- -- -- -- -- -- -- --
0320:                   6C EA  02 06 01 0E 80 04 80 00        l.........
```

#### Opcodes

```
  0: 0x0326 [0x6C] FADE_ENTITY_COLOR(entity_id=10 (ID: 17171178/0x010602EA), end_alpha=128*, fade_time=1*)
  1: 0x032F [0x00] END_REQSTACK()
```

### Event 65535.14

#### Metadata

| Field        | Value    |
|--------------|----------|
| Entrypoint   | 0x0330   |
| Data Size    | 10 bytes |
| Instructions | 2        |

```
      00 01 02 03 04 05 06 07  08 09 0A 0B 0C 0D 0E 0F
      -- -- -- -- -- -- -- --  -- -- -- -- -- -- -- --
0330: 6C E3 02 06 01 0E 80 09  80 00                    l.........      
```

#### Opcodes

```
  0: 0x0330 [0x6C] FADE_ENTITY_COLOR(entity_id=01 (ID: 17171171/0x010602E3), end_alpha=128*, fade_time=10*)
  1: 0x0339 [0x00] END_REQSTACK()
```

### Event 65535.15

#### Metadata

| Field        | Value    |
|--------------|----------|
| Entrypoint   | 0x033A   |
| Data Size    | 10 bytes |
| Instructions | 2        |

```
      00 01 02 03 04 05 06 07  08 09 0A 0B 0C 0D 0E 0F
      -- -- -- -- -- -- -- --  -- -- -- -- -- -- -- --
0330:                                6C E4 02 06 01 0E            l.....
0340: 80 09 80 00                                       ....            
```

#### Opcodes

```
  0: 0x033A [0x6C] FADE_ENTITY_COLOR(entity_id=02 (ID: 17171172/0x010602E4), end_alpha=128*, fade_time=10*)
  1: 0x0343 [0x00] END_REQSTACK()
```

### Event 65535.16

#### Metadata

| Field        | Value    |
|--------------|----------|
| Entrypoint   | 0x0344   |
| Data Size    | 13 bytes |
| Instructions | 3        |

```
      00 01 02 03 04 05 06 07  08 09 0A 0B 0C 0D 0E 0F
      -- -- -- -- -- -- -- --  -- -- -- -- -- -- -- --
0340:             1C 09 80 6C  E6 02 06 01 0E 80 09 80      ...l........
0350: 00                                                .               
```

#### Opcodes

```
  0: 0x0344 [0x1C] WAIT(10* ticks)
  1: 0x0347 [0x6C] FADE_ENTITY_COLOR(entity_id=04 (ID: 17171174/0x010602E6), end_alpha=128*, fade_time=10*)
  2: 0x0350 [0x00] END_REQSTACK()
```

### Event 65535.17

#### Metadata

| Field        | Value    |
|--------------|----------|
| Entrypoint   | 0x0351   |
| Data Size    | 10 bytes |
| Instructions | 2        |

```
      00 01 02 03 04 05 06 07  08 09 0A 0B 0C 0D 0E 0F
      -- -- -- -- -- -- -- --  -- -- -- -- -- -- -- --
0350:    6C 23 03 06 01 0E 80  0F 80 00                  l#........     
```

#### Opcodes

```
  0: 0x0351 [0x6C] FADE_ENTITY_COLOR(entity_id=Lehko Habhoka (ID: 17171235/0x01060323), end_alpha=128*, fade_time=30*)
  1: 0x035A [0x00] END_REQSTACK()
```

### Event 65535.18

#### Metadata

| Field        | Value    |
|--------------|----------|
| Entrypoint   | 0x035B   |
| Data Size    | 10 bytes |
| Instructions | 2        |

```
      00 01 02 03 04 05 06 07  08 09 0A 0B 0C 0D 0E 0F
      -- -- -- -- -- -- -- --  -- -- -- -- -- -- -- --
0350:                                   6C 18 03 06 01             l....
0360: 0E 80 04 80 00                                    .....           
```

#### Opcodes

```
  0: 0x035B [0x6C] FADE_ENTITY_COLOR(entity_id=Tihl Midurhi (ID: 17171224/0x01060318), end_alpha=128*, fade_time=1*)
  1: 0x0364 [0x00] END_REQSTACK()
```

### Event 65535.19

#### Metadata

| Field        | Value    |
|--------------|----------|
| Entrypoint   | 0x0365   |
| Data Size    | 10 bytes |
| Instructions | 2        |

```
      00 01 02 03 04 05 06 07  08 09 0A 0B 0C 0D 0E 0F
      -- -- -- -- -- -- -- --  -- -- -- -- -- -- -- --
0360:                6C 23 03  06 01 0A 80 04 80 00          l#........ 
```

#### Opcodes

```
  0: 0x0365 [0x6C] FADE_ENTITY_COLOR(entity_id=Lehko Habhoka (ID: 17171235/0x01060323), end_alpha=0*, fade_time=1*)
  1: 0x036E [0x00] END_REQSTACK()
```

### Event 65535.20

#### Metadata

| Field        | Value    |
|--------------|----------|
| Entrypoint   | 0x036F   |
| Data Size    | 67 bytes |
| Instructions | 12       |

```
      00 01 02 03 04 05 06 07  08 09 0A 0B 0C 0D 0E 0F
      -- -- -- -- -- -- -- --  -- -- -- -- -- -- -- --
0360:                                               4E                 N
0370: 01 23 03 06 01 4E 01 E3  02 06 01 4E 01 E4 02 06  .#...N.....N....
0380: 01 4E 01 E5 02 06 01 4E  01 E6 02 06 01 4E 01 E7  .N.....N.....N..
0390: 02 06 01 4E 01 E8 02 06  01 4E 01 EA 02 06 01 4E  ...N.....N.....N
03A0: 01 EB 02 06 01 4E 01 18  03 06 01 4E 01 19 03 06  .....N.....N....
03B0: 01 00                                             ..              
```

#### Opcodes

```
  0: 0x036F [0x4E] SET_ENTITY_HIDE_FLAG: Hide Lehko Habhoka (ID: 17171235/0x01060323)
  1: 0x0375 [0x4E] SET_ENTITY_HIDE_FLAG: Hide 01 (ID: 17171171/0x010602E3)
  2: 0x037B [0x4E] SET_ENTITY_HIDE_FLAG: Hide 02 (ID: 17171172/0x010602E4)
  3: 0x0381 [0x4E] SET_ENTITY_HIDE_FLAG: Hide 03 (ID: 17171173/0x010602E5)
  4: 0x0387 [0x4E] SET_ENTITY_HIDE_FLAG: Hide 04 (ID: 17171174/0x010602E6)
  5: 0x038D [0x4E] SET_ENTITY_HIDE_FLAG: Hide 05 (ID: 17171175/0x010602E7)
  6: 0x0393 [0x4E] SET_ENTITY_HIDE_FLAG: Hide 06 (ID: 17171176/0x010602E8)
  7: 0x0399 [0x4E] SET_ENTITY_HIDE_FLAG: Hide 10 (ID: 17171178/0x010602EA)
  8: 0x039F [0x4E] SET_ENTITY_HIDE_FLAG: Hide 11 (ID: 17171179/0x010602EB)
  9: 0x03A5 [0x4E] SET_ENTITY_HIDE_FLAG: Hide Tihl Midurhi (ID: 17171224/0x01060318)
 10: 0x03AB [0x4E] SET_ENTITY_HIDE_FLAG: Hide Mihl Pakorhma (ID: 17171225/0x01060319)
 11: 0x03B1 [0x00] END_REQSTACK()
```

### Event 65535.21

#### Metadata

| Field        | Value    |
|--------------|----------|
| Entrypoint   | 0x03B2   |
| Data Size    | 67 bytes |
| Instructions | 12       |

```
      00 01 02 03 04 05 06 07  08 09 0A 0B 0C 0D 0E 0F
      -- -- -- -- -- -- -- --  -- -- -- -- -- -- -- --
03B0:       4E 00 23 03 06 01  4E 00 E3 02 06 01 4E 00    N.#...N.....N.
03C0: E4 02 06 01 4E 00 E5 02  06 01 4E 00 E6 02 06 01  ....N.....N.....
03D0: 4E 00 E7 02 06 01 4E 00  E8 02 06 01 4E 00 EA 02  N.....N.....N...
03E0: 06 01 4E 00 EB 02 06 01  4E 00 18 03 06 01 4E 00  ..N.....N.....N.
03F0: 19 03 06 01 00                                    .....           
```

#### Opcodes

```
  0: 0x03B2 [0x4E] SET_ENTITY_HIDE_FLAG: Show Lehko Habhoka (ID: 17171235/0x01060323)
  1: 0x03B8 [0x4E] SET_ENTITY_HIDE_FLAG: Show 01 (ID: 17171171/0x010602E3)
  2: 0x03BE [0x4E] SET_ENTITY_HIDE_FLAG: Show 02 (ID: 17171172/0x010602E4)
  3: 0x03C4 [0x4E] SET_ENTITY_HIDE_FLAG: Show 03 (ID: 17171173/0x010602E5)
  4: 0x03CA [0x4E] SET_ENTITY_HIDE_FLAG: Show 04 (ID: 17171174/0x010602E6)
  5: 0x03D0 [0x4E] SET_ENTITY_HIDE_FLAG: Show 05 (ID: 17171175/0x010602E7)
  6: 0x03D6 [0x4E] SET_ENTITY_HIDE_FLAG: Show 06 (ID: 17171176/0x010602E8)
  7: 0x03DC [0x4E] SET_ENTITY_HIDE_FLAG: Show 10 (ID: 17171178/0x010602EA)
  8: 0x03E2 [0x4E] SET_ENTITY_HIDE_FLAG: Show 11 (ID: 17171179/0x010602EB)
  9: 0x03E8 [0x4E] SET_ENTITY_HIDE_FLAG: Show Tihl Midurhi (ID: 17171224/0x01060318)
 10: 0x03EE [0x4E] SET_ENTITY_HIDE_FLAG: Show Mihl Pakorhma (ID: 17171225/0x01060319)
 11: 0x03F4 [0x00] END_REQSTACK()
```

### Event 65535.22

#### Metadata

| Field        | Value    |
|--------------|----------|
| Entrypoint   | 0x03F5   |
| Data Size    | 98 bytes |
| Instructions | 12       |

```
      00 01 02 03 04 05 06 07  08 09 0A 0B 0C 0D 0E 0F
      -- -- -- -- -- -- -- --  -- -- -- -- -- -- -- --
03F0:                27 10 FE  02 06 01 14 5B 10 80 E3       '......[...
0400: 02 06 01 E3 02 06 01 6A  6D 70 30 1C 07 80 27 10  .......jmp0...'.
0410: FF 02 06 01 14 5B 10 80  E6 02 06 01 E6 02 06 01  .....[..........
0420: 6A 6D 70 30 1C 02 80 27  10 00 03 06 01 13 5B 10  jmp0...'......[.
0430: 80 E4 02 06 01 E4 02 06  01 6A 6D 70 30 1C 07 80  .........jmp0...
0440: 27 10 FE 02 06 01 17 5B  10 80 E7 02 06 01 E7 02  '......[........
0450: 06 01 6A 6D 70 30 00                              ..jmp0.         
```

#### Opcodes

```
  0: 0x03F5 [0x27] REQ_SET(priority=0x10, entity_id=Unnamed NPC (ID: 17171198/0x010602FE), tag_num=0x14)
  1: 0x03FC [0x5B] LOAD_EXT_SCHEDULER: Load scheduler "jmp0" with entities [01 (ID: 17171171/0x010602E3), 01 (ID: 17171171/0x010602E3)], work=1111*
  2: 0x040B [0x1C] WAIT(5* ticks)
  3: 0x040E [0x27] REQ_SET(priority=0x10, entity_id=Unnamed NPC (ID: 17171199/0x010602FF), tag_num=0x14)
  4: 0x0415 [0x5B] LOAD_EXT_SCHEDULER: Load scheduler "jmp0" with entities [04 (ID: 17171174/0x010602E6), 04 (ID: 17171174/0x010602E6)], work=1111*
  5: 0x0424 [0x1C] WAIT(3* ticks)
  6: 0x0427 [0x27] REQ_SET(priority=0x10, entity_id=Unnamed NPC (ID: 17171200/0x01060300), tag_num=0x13)
  7: 0x042E [0x5B] LOAD_EXT_SCHEDULER: Load scheduler "jmp0" with entities [02 (ID: 17171172/0x010602E4), 02 (ID: 17171172/0x010602E4)], work=1111*
  8: 0x043D [0x1C] WAIT(5* ticks)
  9: 0x0440 [0x27] REQ_SET(priority=0x10, entity_id=Unnamed NPC (ID: 17171198/0x010602FE), tag_num=0x17)
 10: 0x0447 [0x5B] LOAD_EXT_SCHEDULER: Load scheduler "jmp0" with entities [05 (ID: 17171175/0x010602E7), 05 (ID: 17171175/0x010602E7)], work=1111*
 11: 0x0456 [0x00] END_REQSTACK()
```

### Event 65535.23

#### Metadata

| Field        | Value    |
|--------------|----------|
| Entrypoint   | 0x0457   |
| Data Size    | 67 bytes |
| Instructions | 7        |

```
      00 01 02 03 04 05 06 07  08 09 0A 0B 0C 0D 0E 0F
      -- -- -- -- -- -- -- --  -- -- -- -- -- -- -- --
0450:                      BA  E3 02 06 01 11 80 12 80         .........
0460: 13 80 14 80 BA E4 02 06  01 15 80 16 80 13 80 17  ................
0470: 80 BA E5 02 06 01 18 80  19 80 1A 80 1B 80 6B 69  ..............ki
0480: 64 6C 30 E3 02 06 01 6B  69 64 6C 30 E4 02 06 01  dl0....kidl0....
0490: 6B 69 64 6C 30 E5 02 06  01 00                    kidl0.....      
```

#### Opcodes

```
  0: 0x0457 [0xBA] SET_ENTITY_POSITION(entity_id=01 (ID: 17171171/0x010602E3), pos_x=-111.368*, pos_z=-58.345*, pos_y=-67.999*, direction=355.7°*)
  1: 0x0464 [0xBA] SET_ENTITY_POSITION(entity_id=02 (ID: 17171172/0x010602E4), pos_x=-109.815*, pos_z=-60.032*, pos_y=-67.999*, direction=355.5°*)
  2: 0x0471 [0xBA] SET_ENTITY_POSITION(entity_id=03 (ID: 17171173/0x010602E5), pos_x=-110.668*, pos_z=-53.751*, pos_y=-67.907*, direction=19.2°*)
  3: 0x047E [0x6B] STOP_AND_IDLE: 01 (ID: 17171171/0x010602E3) stops current action and resets to idle (animation="idl0")
  4: 0x0487 [0x6B] STOP_AND_IDLE: 02 (ID: 17171172/0x010602E4) stops current action and resets to idle (animation="idl0")
  5: 0x0490 [0x6B] STOP_AND_IDLE: 03 (ID: 17171173/0x010602E5) stops current action and resets to idle (animation="idl0")
  6: 0x0499 [0x00] END_REQSTACK()
```

### Event 65535.24

#### Metadata

| Field        | Value    |
|--------------|----------|
| Entrypoint   | 0x049A   |
| Data Size    | 91 bytes |
| Instructions | 7        |

```
      00 01 02 03 04 05 06 07  08 09 0A 0B 0C 0D 0E 0F
      -- -- -- -- -- -- -- --  -- -- -- -- -- -- -- --
0490:                                66 00 80 01 03 06            f.....
04A0: 01 01 03 06 01 77 70 6F  6E 66 00 80 02 03 06 01  .....wponf......
04B0: 02 03 06 01 77 70 6F 6E  66 00 80 03 03 06 01 03  ....wponf.......
04C0: 03 06 01 77 70 6F 6E 66  00 80 04 03 06 01 04 03  ...wponf........
04D0: 06 01 77 70 6F 6E 66 00  80 05 03 06 01 05 03 06  ..wponf.........
04E0: 01 77 70 6F 6E 66 00 80  06 03 06 01 06 03 06 01  .wponf..........
04F0: 77 70 6F 6E 00                                    wpon.           
```

#### Opcodes

```
  0: 0x049A [0x66] LOAD_EXT_SCHEDULER_MAIN: Load scheduler "wpon" with entities [01 (ID: 17171201/0x01060301), 01 (ID: 17171201/0x01060301)], work=129*
  1: 0x04A9 [0x66] LOAD_EXT_SCHEDULER_MAIN: Load scheduler "wpon" with entities [02 (ID: 17171202/0x01060302), 02 (ID: 17171202/0x01060302)], work=129*
  2: 0x04B8 [0x66] LOAD_EXT_SCHEDULER_MAIN: Load scheduler "wpon" with entities [03 (ID: 17171203/0x01060303), 03 (ID: 17171203/0x01060303)], work=129*
  3: 0x04C7 [0x66] LOAD_EXT_SCHEDULER_MAIN: Load scheduler "wpon" with entities [04 (ID: 17171204/0x01060304), 04 (ID: 17171204/0x01060304)], work=129*
  4: 0x04D6 [0x66] LOAD_EXT_SCHEDULER_MAIN: Load scheduler "wpon" with entities [05 (ID: 17171205/0x01060305), 05 (ID: 17171205/0x01060305)], work=129*
  5: 0x04E5 [0x66] LOAD_EXT_SCHEDULER_MAIN: Load scheduler "wpon" with entities [06 (ID: 17171206/0x01060306), 06 (ID: 17171206/0x01060306)], work=129*
  6: 0x04F4 [0x00] END_REQSTACK()
```

### Event 65535.25

#### Metadata

| Field        | Value    |
|--------------|----------|
| Entrypoint   | 0x04F5   |
| Data Size    | 61 bytes |
| Instructions | 5        |

```
      00 01 02 03 04 05 06 07  08 09 0A 0B 0C 0D 0E 0F
      -- -- -- -- -- -- -- --  -- -- -- -- -- -- -- --
04F0:                5B 1C 80  E3 02 06 01 E3 02 06 01       [..........
0500: 30 64 64 30 5B 1C 80 E4  02 06 01 E4 02 06 01 30  0dd0[..........0
0510: 64 64 31 5B 1D 80 E6 02  06 01 E6 02 06 01 30 61  dd1[..........0a
0520: 64 30 5B 1D 80 E7 02 06  01 E7 02 06 01 30 61 64  d0[..........0ad
0530: 31 00                                             1.              
```

#### Opcodes

```
  0: 0x04F5 [0x5B] LOAD_EXT_SCHEDULER: Load scheduler "0dd0" with entities [01 (ID: 17171171/0x010602E3), 01 (ID: 17171171/0x010602E3)], work=2228*
  1: 0x0504 [0x5B] LOAD_EXT_SCHEDULER: Load scheduler "0dd1" with entities [02 (ID: 17171172/0x010602E4), 02 (ID: 17171172/0x010602E4)], work=2228*
  2: 0x0513 [0x5B] LOAD_EXT_SCHEDULER: Load scheduler "0ad0" with entities [04 (ID: 17171174/0x010602E6), 04 (ID: 17171174/0x010602E6)], work=2373*
  3: 0x0522 [0x5B] LOAD_EXT_SCHEDULER: Load scheduler "0ad1" with entities [05 (ID: 17171175/0x010602E7), 05 (ID: 17171175/0x010602E7)], work=2373*
  4: 0x0531 [0x00] END_REQSTACK()
```

### Event 65535.26

#### Metadata

| Field        | Value   |
|--------------|---------|
| Entrypoint   | 0x0532  |
| Data Size    | 4 bytes |
| Instructions | 2       |

```
      00 01 02 03 04 05 06 07  08 09 0A 0B 0C 0D 0E 0F
      -- -- -- -- -- -- -- --  -- -- -- -- -- -- -- --
0530:       1C 03 10 00                                   ....          
```

#### Opcodes

```
  0: 0x0532 [0x1C] WAIT(Work_Zone[3] ticks)
  1: 0x0535 [0x00] END_REQSTACK()
```
