# 17171173 - 03

## Common Data

| Field            | Value                           |
|------------------|---------------------------------|
| Zone             | Fort Karugo-Narugo [S] (ID: 96) |
| Block Size       | 1996 bytes                      |
| Total Events     | 85                              |
| References Count | 164                             |

## List of Events

| Event ID                   | Entrypoint   |   Size |   Instructions |
|----------------------------|--------------|--------|----------------|
| [65535](#event-65535)      | 0x0000       |      1 |              1 |
| [103](#event-103)          | 0x0001       |      1 |              1 |
| [65535.1](#event-655351)   | 0x0002       |     18 |              6 |
| [65535.2](#event-655352)   | 0x0014       |     10 |              2 |
| [65535.3](#event-655353)   | 0x001E       |     10 |              2 |
| [106](#event-106)          | 0x0028       |      4 |              2 |
| [105](#event-105)          | 0x002C       |      1 |              1 |
| [65535.4](#event-655354)   | 0x002D       |     15 |              5 |
| [65535.5](#event-655355)   | 0x003C       |     24 |              6 |
| [65535.6](#event-655356)   | 0x0054       |     15 |              5 |
| [65535.7](#event-655357)   | 0x0063       |     40 |              8 |
| [65535.8](#event-655358)   | 0x008B       |     14 |              2 |
| [111](#event-111)          | 0x0099       |      1 |              1 |
| [112](#event-112)          | 0x009A       |      1 |              1 |
| [113](#event-113)          | 0x009B       |      1 |              1 |
| [65535.9](#event-655359)   | 0x009C       |      5 |              2 |
| [65535.10](#event-6553510) | 0x00A1       |      5 |              2 |
| [65535.11](#event-6553511) | 0x00A6       |      5 |              2 |
| [65535.12](#event-6553512) | 0x00AB       |     21 |              2 |
| [65535.13](#event-6553513) | 0x00C0       |     21 |              2 |
| [65535.14](#event-6553514) | 0x00D5       |      5 |              2 |
| [65535.15](#event-6553515) | 0x00DA       |     25 |              3 |
| [65535.16](#event-6553516) | 0x00F3       |     25 |              3 |
| [65535.17](#event-6553517) | 0x010C       |     25 |              3 |
| [65535.18](#event-6553518) | 0x0125       |     14 |              4 |
| [65535.19](#event-6553519) | 0x0133       |     14 |              4 |
| [65535.20](#event-6553520) | 0x0141       |     22 |              6 |
| [65535.21](#event-6553521) | 0x0157       |      5 |              2 |
| [65535.22](#event-6553522) | 0x015C       |      5 |              2 |
| [65535.23](#event-6553523) | 0x0161       |      5 |              2 |
| [65535.24](#event-6553524) | 0x0166       |      5 |              2 |
| [65535.25](#event-6553525) | 0x016B       |      5 |              2 |
| [65535.26](#event-6553526) | 0x0170       |      5 |              2 |
| [65535.27](#event-6553527) | 0x0175       |      5 |              2 |
| [65535.28](#event-6553528) | 0x017A       |      5 |              2 |
| [65535.29](#event-6553529) | 0x017F       |      5 |              2 |
| [65535.30](#event-6553530) | 0x0184       |      5 |              2 |
| [65535.31](#event-6553531) | 0x0189       |      5 |              2 |
| [65535.32](#event-6553532) | 0x018E       |      5 |              2 |
| [65535.33](#event-6553533) | 0x0193       |      5 |              2 |
| [65535.34](#event-6553534) | 0x0198       |      5 |              2 |
| [65535.35](#event-6553535) | 0x019D       |      5 |              2 |
| [65535.36](#event-6553536) | 0x01A2       |      5 |              2 |
| [65535.37](#event-6553537) | 0x01A7       |      5 |              2 |
| [65535.38](#event-6553538) | 0x01AC       |      5 |              2 |
| [65535.39](#event-6553539) | 0x01B1       |      5 |              2 |
| [65535.40](#event-6553540) | 0x01B6       |      5 |              2 |
| [65535.41](#event-6553541) | 0x01BB       |      5 |              2 |
| [65535.42](#event-6553542) | 0x01C0       |      5 |              2 |
| [65535.43](#event-6553543) | 0x01C5       |     18 |              6 |
| [65535.44](#event-6553544) | 0x01D7       |     15 |              5 |
| [65535.45](#event-6553545) | 0x01E6       |     18 |              6 |
| [65535.46](#event-6553546) | 0x01F8       |     18 |              6 |
| [65535.47](#event-6553547) | 0x020A       |     18 |              6 |
| [65535.48](#event-6553548) | 0x021C       |     18 |              6 |
| [65535.49](#event-6553549) | 0x022E       |     18 |              6 |
| [65535.50](#event-6553550) | 0x0240       |     18 |              6 |
| [65535.51](#event-6553551) | 0x0252       |      5 |              2 |
| [65535.52](#event-6553552) | 0x0257       |      5 |              2 |
| [65535.53](#event-6553553) | 0x025C       |      5 |              2 |
| [65535.54](#event-6553554) | 0x0261       |      5 |              2 |
| [65535.55](#event-6553555) | 0x0266       |      5 |              2 |
| [65535.56](#event-6553556) | 0x026B       |      5 |              2 |
| [65535.57](#event-6553557) | 0x0270       |      5 |              2 |
| [65535.58](#event-6553558) | 0x0275       |     18 |              6 |
| [65535.59](#event-6553559) | 0x0287       |     18 |              6 |
| [65535.60](#event-6553560) | 0x0299       |     14 |              4 |
| [65535.61](#event-6553561) | 0x02A7       |     30 |              6 |
| [65535.62](#event-6553562) | 0x02C5       |     15 |              5 |
| [65535.63](#event-6553563) | 0x02D4       |     30 |              6 |
| [65535.64](#event-6553564) | 0x02F2       |     25 |              7 |
| [65535.65](#event-6553565) | 0x030B       |     15 |              5 |
| [65535.66](#event-6553566) | 0x031A       |     15 |              5 |
| [65535.67](#event-6553567) | 0x0329       |     25 |              7 |
| [65535.68](#event-6553568) | 0x0342       |     28 |              8 |
| [65535.69](#event-6553569) | 0x035E       |     15 |              5 |
| [65535.70](#event-6553570) | 0x036D       |     15 |              5 |
| [65535.71](#event-6553571) | 0x037C       |      5 |              2 |
| [65535.72](#event-6553572) | 0x0381       |      5 |              2 |
| [65535.73](#event-6553573) | 0x0386       |      5 |              2 |
| [65535.74](#event-6553574) | 0x038B       |     15 |              5 |
| [65535.75](#event-6553575) | 0x039A       |     25 |              7 |
| [65535.76](#event-6553576) | 0x03B3       |     25 |              7 |
| [65535.77](#event-6553577) | 0x03CC       |      5 |              2 |
| [65535.78](#event-6553578) | 0x03D1       |      4 |              2 |

## DAT References (imed_data)

|   Index | Hex Value   |   Dec Value |
|---------|-------------|-------------|
|       0 | 0x0028      |          40 |
|       1 | 0x32C95     |      208021 |
|       2 | 0x956A      |       38250 |
|       3 | 0xFFFF9491  |  4294939793 |
|       4 | 0x0003      |           3 |
|       5 | 0x0000      |           0 |
|       6 | 0x0080      |         128 |
|       7 | 0x0078      |         120 |
|       8 | 0x0001      |           1 |
|       9 | 0x000D      |          13 |
|      10 | 0x3E9E8     |      256488 |
|      11 | 0xC1B3      |       49587 |
|      12 | 0xFFFFB16D  |  4294947181 |
|      13 | 0x40B2D     |      265005 |
|      14 | 0xFC74      |       64628 |
|      15 | 0xFFFFAB80  |  4294945664 |
|      16 | 0x04FB      |        1275 |
|      17 | 0x3FD01     |      261377 |
|      18 | 0xE908      |       59656 |
|      19 | 0xFFFFADF8  |  4294946296 |
|      20 | 0x3E078     |      254072 |
|      21 | 0x8882      |       34946 |
|      22 | 0xFFFFB1E0  |  4294947296 |
|      23 | 0x3535C     |      217948 |
|      24 | 0x4F7B      |       20347 |
|      25 | 0xFFFF9227  |  4294939175 |
|      26 | 0x04FC      |        1276 |
|      27 | 0x34A58     |      215640 |
|      28 | 0x41B5      |       16821 |
|      29 | 0xFFFF92CC  |  4294939340 |
|      30 | 0x000A      |          10 |
|      31 | 0x3F03B     |      258107 |
|      32 | 0xA397      |       41879 |
|      33 | 0xFFFFB569  |  4294948201 |
|      34 | 0x02F3      |         755 |
|      35 | 0x043C      |        1084 |
|      36 | 0x08C3      |        2243 |
|      37 | 0x0007      |           7 |
|      38 | 0x005E      |          94 |
|      39 | 0x000E      |          14 |
|      40 | 0x006E      |         110 |
|      41 | 0x0317      |         791 |
|      42 | 0xFFFFCF94  |  4294954900 |
|      43 | 0xFFFECAF5  |  4294888181 |
|      44 | 0xFFFEF661  |  4294899297 |
|      45 | 0xFFFFCFBC  |  4294954940 |
|      46 | 0xFFFEC473  |  4294886515 |
|      47 | 0xFFF8DEBA  |  4294500026 |
|      48 | 0xC0BF      |       49343 |
|      49 | 0xFFFF8E45  |  4294938181 |
|      50 | 0x001E      |          30 |
|      51 | 0x024D      |         589 |
|      52 | 0x081C      |        2076 |
|      53 | 0x02E4      |         740 |
|      54 | 0x02EB      |         747 |
|      55 | 0x02F0      |         752 |
|      56 | 0x0108      |         264 |
|      57 | 0x0109      |         265 |
|      58 | 0x03C1      |         961 |
|      59 | 0x03C2      |         962 |
|      60 | 0x000B      |          11 |
|      61 | 0x2447F     |      148607 |
|      62 | 0xFFFFFAB5  |  4294965941 |
|      63 | 0xFFFF5590  |  4294923664 |
|      64 | 0x24F74     |      151412 |
|      65 | 0xFFFFEF8B  |  4294963083 |
|      66 | 0xFFFF54F2  |  4294923506 |
|      67 | 0x000F      |          15 |
|      68 | 0x25170     |      151920 |
|      69 | 0x107E      |        4222 |
|      70 | 0xFFFF54D8  |  4294923480 |
|      71 | 0x0005      |           5 |
|      72 | 0x24311     |      148241 |
|      73 | 0xFFFFF313  |  4294963987 |
|      74 | 0xFFFF5593  |  4294923667 |
|      75 | 0x0014      |          20 |
|      76 | 0x000C      |          12 |
|      77 | 0x24E00     |      151040 |
|      78 | 0x0752      |        1874 |
|      79 | 0xFFFF5517  |  4294923543 |
|      80 | 0x0009      |           9 |
|      81 | 0x25510     |      152848 |
|      82 | 0xFFFFFA8C  |  4294965900 |
|      83 | 0xFFFF54BD  |  4294923453 |
|      84 | 0x26092     |      155794 |
|      85 | 0x0C95      |        3221 |
|      86 | 0xFFFF5420  |  4294923296 |
|      87 | 0x25B25     |      154405 |
|      88 | 0x1395      |        5013 |
|      89 | 0xFFFF5421  |  4294923297 |
|      90 | 0x08DB      |        2267 |
|      91 | 0x08D9      |        2265 |
|      92 | 0x08DC      |        2268 |
|      93 | 0x003C      |          60 |
|      94 | 0x0026      |          38 |
|      95 | 0xFFFF7066  |  4294930534 |
|      96 | 0x131F9     |       78329 |
|      97 | 0xFFFEF617  |  4294899223 |
|      98 | 0x0027      |          39 |
|      99 | 0xFFFF871B  |  4294936347 |
|     100 | 0x1351E     |       79134 |
|     101 | 0xFFFEF62A  |  4294899242 |
|     102 | 0x0025      |          37 |
|     103 | 0xFFFCDB40  |  4294761280 |
|     104 | 0xFFFF151C  |  4294907164 |
|     105 | 0xFFFE6830  |  4294862896 |
|     106 | 0x0012      |          18 |
|     107 | 0xFFFE92F8  |  4294873848 |
|     108 | 0xFFFF1D6A  |  4294909290 |
|     109 | 0xFFFEF567  |  4294899047 |
|     110 | 0x08B3      |        2227 |
|     111 | 0xFFFF0C47  |  4294904903 |
|     112 | 0xFFFF07DE  |  4294903774 |
|     113 | 0xFFFEF652  |  4294899282 |
|     114 | 0x0011      |          17 |
|     115 | 0xFFFEA4B6  |  4294878390 |
|     116 | 0xFFFF1D22  |  4294909218 |
|     117 | 0xFFFEF660  |  4294899296 |
|     118 | 0xFFFF02E7  |  4294902503 |
|     119 | 0xFFFF0C45  |  4294904901 |
|     120 | 0xFFFEF20A  |  4294898186 |
|     121 | 0xFFFF0FDF  |  4294905823 |
|     122 | 0x0013      |          19 |
|     123 | 0xFFFF0D33  |  4294905139 |
|     124 | 0xFFFF10B0  |  4294906032 |
|     125 | 0xFFFEF6A9  |  4294899369 |
|     126 | 0x0045      |          69 |
|     127 | 0xFFFEA142  |  4294877506 |
|     128 | 0xFFFF1FBE  |  4294909886 |
|     129 | 0xFFFEF58C  |  4294899084 |
|     130 | 0x0046      |          70 |
|     131 | 0xFFFE73C4  |  4294865860 |
|     132 | 0xFFFF18A1  |  4294908065 |
|     133 | 0xFFFEF08A  |  4294897802 |
|     134 | 0xFFFE97BA  |  4294875066 |
|     135 | 0xFFFF1E9E  |  4294909598 |
|     136 | 0x2047A     |      132218 |
|     137 | 0x0298      |         664 |
|     138 | 0xFFFF55B9  |  4294923705 |
|     139 | 0x1BDF0     |      114160 |
|     140 | 0x0173      |         371 |
|     141 | 0xFFFF5335  |  4294923061 |
|     142 | 0x002B      |          43 |
|     143 | 0x1B7FF     |      112639 |
|     144 | 0xFFFFFE56  |  4294966870 |
|     145 | 0xFFFF5277  |  4294922871 |
|     146 | 0x17140     |       94528 |
|     147 | 0xFFFFCE3C  |  4294954556 |
|     148 | 0xFFFF37B8  |  4294916024 |
|     149 | 0x0034      |          52 |
|     150 | 0x0044      |          68 |
|     151 | 0xFFFE9CEB  |  4294876395 |
|     152 | 0xFFFF1E36  |  4294909494 |
|     153 | 0xFFFE6E21  |  4294864417 |
|     154 | 0xFFFF1A24  |  4294908452 |
|     155 | 0xFFFEF69F  |  4294899359 |
|     156 | 0xFFFE9CC4  |  4294876356 |
|     157 | 0xFFFF1DFD  |  4294909437 |
|     158 | 0xFFFE6DDD  |  4294864349 |
|     159 | 0xFFFF248C  |  4294911116 |
|     160 | 0xFFFEF69B  |  4294899355 |
|     161 | 0xFFFE9C75  |  4294876277 |
|     162 | 0xFFFF1E63  |  4294909539 |
|     163 | 0x08D8      |        2264 |

## Events

### Event 65535

#### Metadata

| Field        | Value   |
|--------------|---------|
| Entrypoint   | 0x0000  |
| Data Size    | 1 bytes |
| Instructions | 1       |

```
      00 01 02 03 04 05 06 07  08 09 0A 0B 0C 0D 0E 0F
      -- -- -- -- -- -- -- --  -- -- -- -- -- -- -- --
0000: 00                                                .               
```

#### Opcodes

```
  0: 0x0000 [0x00] END_REQSTACK()
```

### Event 103

#### Metadata

| Field        | Value   |
|--------------|---------|
| Entrypoint   | 0x0001  |
| Data Size    | 1 bytes |
| Instructions | 1       |

```
      00 01 02 03 04 05 06 07  08 09 0A 0B 0C 0D 0E 0F
      -- -- -- -- -- -- -- --  -- -- -- -- -- -- -- --
0000:    00                                              .              
```

#### Opcodes

```
  0: 0x0001 [0x00] END_REQSTACK()
```

### Event 65535.1

#### Metadata

| Field        | Value    |
|--------------|----------|
| Entrypoint   | 0x0002   |
| Data Size    | 18 bytes |
| Instructions | 6        |

```
      00 01 02 03 04 05 06 07  08 09 0A 0B 0C 0D 0E 0F
      -- -- -- -- -- -- -- --  -- -- -- -- -- -- -- --
0000:       32 00 80 1F 00 01  80 02 80 03 80 1F 01 6F    2............o
0010: 1C 04 80 00                                       ....            
```

#### Opcodes

```
  0: 0x0002 [0x32] ExtData[1]->MainSpeed = 40* * 0.1
  1: 0x0005 [0x1F] MOVE_ENTITY: EventEntity moves to X=208.021*, Z=38.250*, Y=-27.503*
  2: 0x000D [0x1F] MOVE_ENTITY: Update entity position (mode=1)
  3: 0x000F [0x6F] WAIT_FRAME_DELAY: Yield until WaitTime reaches zero
  4: 0x0010 [0x1C] WAIT(3* ticks)
  5: 0x0013 [0x00] END_REQSTACK()
```

### Event 65535.2

#### Metadata

| Field        | Value    |
|--------------|----------|
| Entrypoint   | 0x0014   |
| Data Size    | 10 bytes |
| Instructions | 2        |

```
      00 01 02 03 04 05 06 07  08 09 0A 0B 0C 0D 0E 0F
      -- -- -- -- -- -- -- --  -- -- -- -- -- -- -- --
0010:             6C F8 FF FF  7F 05 80 05 80 00            l.........  
```

#### Opcodes

```
  0: 0x0014 [0x6C] FADE_ENTITY_COLOR(entity_id=EventEntity, end_alpha=0*, fade_time=0*)
  1: 0x001D [0x00] END_REQSTACK()
```

### Event 65535.3

#### Metadata

| Field        | Value    |
|--------------|----------|
| Entrypoint   | 0x001E   |
| Data Size    | 10 bytes |
| Instructions | 2        |

```
      00 01 02 03 04 05 06 07  08 09 0A 0B 0C 0D 0E 0F
      -- -- -- -- -- -- -- --  -- -- -- -- -- -- -- --
0010:                                            6C F8                l.
0020: FF FF 7F 06 80 07 80 00                           ........        
```

#### Opcodes

```
  0: 0x001E [0x6C] FADE_ENTITY_COLOR(entity_id=EventEntity, end_alpha=128*, fade_time=120*)
  1: 0x0027 [0x00] END_REQSTACK()
```

### Event 106

#### Metadata

| Field        | Value   |
|--------------|---------|
| Entrypoint   | 0x0028  |
| Data Size    | 4 bytes |
| Instructions | 2       |

```
      00 01 02 03 04 05 06 07  08 09 0A 0B 0C 0D 0E 0F
      -- -- -- -- -- -- -- --  -- -- -- -- -- -- -- --
0020:                          C0 08 80 00                      ....    
```

#### Opcodes

```
  0: 0x0028 [0xC0] EventEntity->Render.Flags3 |= 0x1000 // Set bit 12 (from 1*)
  1: 0x002B [0x00] END_REQSTACK()
```

### Event 105

#### Metadata

| Field        | Value   |
|--------------|---------|
| Entrypoint   | 0x002C  |
| Data Size    | 1 bytes |
| Instructions | 1       |

```
      00 01 02 03 04 05 06 07  08 09 0A 0B 0C 0D 0E 0F
      -- -- -- -- -- -- -- --  -- -- -- -- -- -- -- --
0020:                                      00                       .   
```

#### Opcodes

```
  0: 0x002C [0x00] END_REQSTACK()
```

### Event 65535.4

#### Metadata

| Field        | Value    |
|--------------|----------|
| Entrypoint   | 0x002D   |
| Data Size    | 15 bytes |
| Instructions | 5        |

```
      00 01 02 03 04 05 06 07  08 09 0A 0B 0C 0D 0E 0F
      -- -- -- -- -- -- -- --  -- -- -- -- -- -- -- --
0020:                                         32 09 80               2..
0030: 1F 00 0A 80 0B 80 0C 80  1F 01 6F 00              ..........o.    
```

#### Opcodes

```
  0: 0x002D [0x32] ExtData[1]->MainSpeed = 13* * 0.1
  1: 0x0030 [0x1F] MOVE_ENTITY: EventEntity moves to X=256.488*, Z=49.587*, Y=-20.115*
  2: 0x0038 [0x1F] MOVE_ENTITY: Update entity position (mode=1)
  3: 0x003A [0x6F] WAIT_FRAME_DELAY: Yield until WaitTime reaches zero
  4: 0x003B [0x00] END_REQSTACK()
```

### Event 65535.5

#### Metadata

| Field        | Value    |
|--------------|----------|
| Entrypoint   | 0x003C   |
| Data Size    | 24 bytes |
| Instructions | 6        |

```
      00 01 02 03 04 05 06 07  08 09 0A 0B 0C 0D 0E 0F
      -- -- -- -- -- -- -- --  -- -- -- -- -- -- -- --
0030:                                      37 0D 80 0E              7...
0040: 80 0F 80 10 80 32 09 80  1F 00 11 80 12 80 13 80  .....2..........
0050: 1F 01 6F 00                                       ..o.            
```

#### Opcodes

```
  0: 0x003C [0x37] UPDATE_EVENT_POSITION_AND_DIR: x=265.005*, z=64.628*, y=-21.632*, direction=112.1°*
  1: 0x0045 [0x32] ExtData[1]->MainSpeed = 13* * 0.1
  2: 0x0048 [0x1F] MOVE_ENTITY: EventEntity moves to X=261.377*, Z=59.656*, Y=-21.000*
  3: 0x0050 [0x1F] MOVE_ENTITY: Update entity position (mode=1)
  4: 0x0052 [0x6F] WAIT_FRAME_DELAY: Yield until WaitTime reaches zero
  5: 0x0053 [0x00] END_REQSTACK()
```

### Event 65535.6

#### Metadata

| Field        | Value    |
|--------------|----------|
| Entrypoint   | 0x0054   |
| Data Size    | 15 bytes |
| Instructions | 5        |

```
      00 01 02 03 04 05 06 07  08 09 0A 0B 0C 0D 0E 0F
      -- -- -- -- -- -- -- --  -- -- -- -- -- -- -- --
0050:             32 00 80 1F  00 14 80 15 80 16 80 1F      2...........
0060: 01 6F 00                                          .o.             
```

#### Opcodes

```
  0: 0x0054 [0x32] ExtData[1]->MainSpeed = 40* * 0.1
  1: 0x0057 [0x1F] MOVE_ENTITY: EventEntity moves to X=254.072*, Z=34.946*, Y=-20.000*
  2: 0x005F [0x1F] MOVE_ENTITY: Update entity position (mode=1)
  3: 0x0061 [0x6F] WAIT_FRAME_DELAY: Yield until WaitTime reaches zero
  4: 0x0062 [0x00] END_REQSTACK()
```

### Event 65535.7

#### Metadata

| Field        | Value    |
|--------------|----------|
| Entrypoint   | 0x0063   |
| Data Size    | 40 bytes |
| Instructions | 8        |

```
      00 01 02 03 04 05 06 07  08 09 0A 0B 0C 0D 0E 0F
      -- -- -- -- -- -- -- --  -- -- -- -- -- -- -- --
0060:          37 17 80 18 80  19 80 1A 80 32 00 80 1F     7........2...
0070: 00 1B 80 1C 80 1D 80 1F  01 6F 1C 1E 80 2C F8 FF  .........o...,..
0080: FF 7F F8 FF FF 7F 64 65  61 64 00                 ......dead.     
```

#### Opcodes

```
  0: 0x0063 [0x37] UPDATE_EVENT_POSITION_AND_DIR: x=217.948*, z=20.347*, y=-28.121*, direction=112.1°*
  1: 0x006C [0x32] ExtData[1]->MainSpeed = 40* * 0.1
  2: 0x006F [0x1F] MOVE_ENTITY: EventEntity moves to X=215.640*, Z=16.821*, Y=-27.956*
  3: 0x0077 [0x1F] MOVE_ENTITY: Update entity position (mode=1)
  4: 0x0079 [0x6F] WAIT_FRAME_DELAY: Yield until WaitTime reaches zero
  5: 0x007A [0x1C] WAIT(10* ticks)
  6: 0x007D [0x2C] CREATE_SCHEDULER_TASK: Create scheduler "dead" with entities [EventEntity, EventEntity]
  7: 0x008A [0x00] END_REQSTACK()
```

### Event 65535.8

#### Metadata

| Field        | Value    |
|--------------|----------|
| Entrypoint   | 0x008B   |
| Data Size    | 14 bytes |
| Instructions | 2        |

```
      00 01 02 03 04 05 06 07  08 09 0A 0B 0C 0D 0E 0F
      -- -- -- -- -- -- -- --  -- -- -- -- -- -- -- --
0080:                                   BA E5 02 06 01             .....
0090: 1F 80 20 80 21 80 10 80  00                       .. .!....       
```

#### Opcodes

```
  0: 0x008B [0xBA] SET_ENTITY_POSITION(entity_id=03 (ID: 17171173/0x010602E5), pos_x=258.107*, pos_z=41.879*, pos_y=-19.095*, direction=112.1°*)
  1: 0x0098 [0x00] END_REQSTACK()
```

### Event 111

#### Metadata

| Field        | Value   |
|--------------|---------|
| Entrypoint   | 0x0099  |
| Data Size    | 1 bytes |
| Instructions | 1       |

```
      00 01 02 03 04 05 06 07  08 09 0A 0B 0C 0D 0E 0F
      -- -- -- -- -- -- -- --  -- -- -- -- -- -- -- --
0090:                             00                             .      
```

#### Opcodes

```
  0: 0x0099 [0x00] END_REQSTACK()
```

### Event 112

#### Metadata

| Field        | Value   |
|--------------|---------|
| Entrypoint   | 0x009A  |
| Data Size    | 1 bytes |
| Instructions | 1       |

```
      00 01 02 03 04 05 06 07  08 09 0A 0B 0C 0D 0E 0F
      -- -- -- -- -- -- -- --  -- -- -- -- -- -- -- --
0090:                                00                           .     
```

#### Opcodes

```
  0: 0x009A [0x00] END_REQSTACK()
```

### Event 113

#### Metadata

| Field        | Value   |
|--------------|---------|
| Entrypoint   | 0x009B  |
| Data Size    | 1 bytes |
| Instructions | 1       |

```
      00 01 02 03 04 05 06 07  08 09 0A 0B 0C 0D 0E 0F
      -- -- -- -- -- -- -- --  -- -- -- -- -- -- -- --
0090:                                   00                         .    
```

#### Opcodes

```
  0: 0x009B [0x00] END_REQSTACK()
```

### Event 65535.9

#### Metadata

| Field        | Value   |
|--------------|---------|
| Entrypoint   | 0x009C  |
| Data Size    | 5 bytes |
| Instructions | 2       |

```
      00 01 02 03 04 05 06 07  08 09 0A 0B 0C 0D 0E 0F
      -- -- -- -- -- -- -- --  -- -- -- -- -- -- -- --
0090:                                      B6 00 22 80              ..".
00A0: 00                                                .               
```

#### Opcodes

```
  0: 0x009C [0xB6] ENTITY_APPEARANCE_HANDLER(case=Hair style, value=755*)
  1: 0x00A0 [0x00] END_REQSTACK()
```

### Event 65535.10

#### Metadata

| Field        | Value   |
|--------------|---------|
| Entrypoint   | 0x00A1  |
| Data Size    | 5 bytes |
| Instructions | 2       |

```
      00 01 02 03 04 05 06 07  08 09 0A 0B 0C 0D 0E 0F
      -- -- -- -- -- -- -- --  -- -- -- -- -- -- -- --
00A0:    B6 00 23 80 00                                  ..#..          
```

#### Opcodes

```
  0: 0x00A1 [0xB6] ENTITY_APPEARANCE_HANDLER(case=Hair style, value=1084*)
  1: 0x00A5 [0x00] END_REQSTACK()
```

### Event 65535.11

#### Metadata

| Field        | Value   |
|--------------|---------|
| Entrypoint   | 0x00A6  |
| Data Size    | 5 bytes |
| Instructions | 2       |

```
      00 01 02 03 04 05 06 07  08 09 0A 0B 0C 0D 0E 0F
      -- -- -- -- -- -- -- --  -- -- -- -- -- -- -- --
00A0:                   B6 00  24 80 00                       ..$..     
```

#### Opcodes

```
  0: 0x00A6 [0xB6] ENTITY_APPEARANCE_HANDLER(case=Hair style, value=2243*)
  1: 0x00AA [0x00] END_REQSTACK()
```

### Event 65535.12

#### Metadata

| Field        | Value    |
|--------------|----------|
| Entrypoint   | 0x00AB   |
| Data Size    | 21 bytes |
| Instructions | 2        |

```
      00 01 02 03 04 05 06 07  08 09 0A 0B 0C 0D 0E 0F
      -- -- -- -- -- -- -- --  -- -- -- -- -- -- -- --
00A0:                                   B6 0B 25 80 04             ..%..
00B0: 80 05 80 26 80 26 80 27  80 27 80 05 80 05 80 00  ...&.&.'.'......
```

#### Opcodes

```
  0: 0x00AB [0xB6] ENTITY_APPEARANCE_HANDLER(case=Full entity look, race=7*, hair=3*, head=0*, body=94*, hands=94*, legs=14*, feet=14*, main=0*, sub=0*)
  1: 0x00BF [0x00] END_REQSTACK()
```

### Event 65535.13

#### Metadata

| Field        | Value    |
|--------------|----------|
| Entrypoint   | 0x00C0   |
| Data Size    | 21 bytes |
| Instructions | 2        |

```
      00 01 02 03 04 05 06 07  08 09 0A 0B 0C 0D 0E 0F
      -- -- -- -- -- -- -- --  -- -- -- -- -- -- -- --
00C0: B6 0B 25 80 04 80 05 80  26 80 26 80 27 80 27 80  ..%.....&.&.'.'.
00D0: 28 80 05 80 00                                    (....           
```

#### Opcodes

```
  0: 0x00C0 [0xB6] ENTITY_APPEARANCE_HANDLER(case=Full entity look, race=7*, hair=3*, head=0*, body=94*, hands=94*, legs=14*, feet=14*, main=110*, sub=0*)
  1: 0x00D4 [0x00] END_REQSTACK()
```

### Event 65535.14

#### Metadata

| Field        | Value   |
|--------------|---------|
| Entrypoint   | 0x00D5  |
| Data Size    | 5 bytes |
| Instructions | 2       |

```
      00 01 02 03 04 05 06 07  08 09 0A 0B 0C 0D 0E 0F
      -- -- -- -- -- -- -- --  -- -- -- -- -- -- -- --
00D0:                B6 00 29  80 00                         ..)..      
```

#### Opcodes

```
  0: 0x00D5 [0xB6] ENTITY_APPEARANCE_HANDLER(case=Hair style, value=791*)
  1: 0x00D9 [0x00] END_REQSTACK()
```

### Event 65535.15

#### Metadata

| Field        | Value    |
|--------------|----------|
| Entrypoint   | 0x00DA   |
| Data Size    | 25 bytes |
| Instructions | 3        |

```
      00 01 02 03 04 05 06 07  08 09 0A 0B 0C 0D 0E 0F
      -- -- -- -- -- -- -- --  -- -- -- -- -- -- -- --
00D0:                                B4 00 00 00 3F 3F            ....??
00E0: 3F 00 00 00 00 00 00 00  00 00 00 00 00 00 B5 00  ?...............
00F0: 00 00 00                                          ...             
```

#### Opcodes

```
  0: 0x00DA [0xB4] UI_WINDOW_STRING_HANDLER(case=0x00 - Copy string from opcode, work_offset=ExtData[1]->WorkLocal[0], string="???")
  1: 0x00EE [0xB5] SET_EVENT_ENTITY_NAME: Change EventEntity name to ExtData[1]->WorkLocal[0]
  2: 0x00F2 [0x00] END_REQSTACK()
```

### Event 65535.16

#### Metadata

| Field        | Value    |
|--------------|----------|
| Entrypoint   | 0x00F3   |
| Data Size    | 25 bytes |
| Instructions | 3        |

```
      00 01 02 03 04 05 06 07  08 09 0A 0B 0C 0D 0E 0F
      -- -- -- -- -- -- -- --  -- -- -- -- -- -- -- --
00F0:          B4 00 00 00 52  6F 62 65 6C 2D 41 6B 62     ....Robel-Akb
0100: 65 6C 00 00 00 00 00 B5  00 00 00 00              el..........    
```

#### Opcodes

```
  0: 0x00F3 [0xB4] UI_WINDOW_STRING_HANDLER(case=0x00 - Copy string from opcode, work_offset=ExtData[1]->WorkLocal[0], string="Robel-Akbel")
  1: 0x0107 [0xB5] SET_EVENT_ENTITY_NAME: Change EventEntity name to ExtData[1]->WorkLocal[0]
  2: 0x010B [0x00] END_REQSTACK()
```

### Event 65535.17

#### Metadata

| Field        | Value    |
|--------------|----------|
| Entrypoint   | 0x010C   |
| Data Size    | 25 bytes |
| Instructions | 3        |

```
      00 01 02 03 04 05 06 07  08 09 0A 0B 0C 0D 0E 0F
      -- -- -- -- -- -- -- --  -- -- -- -- -- -- -- --
0100:                                      B4 00 00 00              ....
0110: 30 32 00 00 00 00 00 00  00 00 00 00 00 00 00 00  02..............
0120: B5 00 00 00 00                                    .....           
```

#### Opcodes

```
  0: 0x010C [0xB4] UI_WINDOW_STRING_HANDLER(case=0x00 - Copy string from opcode, work_offset=ExtData[1]->WorkLocal[0], string="02")
  1: 0x0120 [0xB5] SET_EVENT_ENTITY_NAME: Change EventEntity name to ExtData[1]->WorkLocal[0]
  2: 0x0124 [0x00] END_REQSTACK()
```

### Event 65535.18

#### Metadata

| Field        | Value    |
|--------------|----------|
| Entrypoint   | 0x0125   |
| Data Size    | 14 bytes |
| Instructions | 4        |

```
      00 01 02 03 04 05 06 07  08 09 0A 0B 0C 0D 0E 0F
      -- -- -- -- -- -- -- --  -- -- -- -- -- -- -- --
0120:                32 09 80  1F 00 2A 80 2B 80 2C 80       2....*.+.,.
0130: 1F 01 00                                          ...             
```

#### Opcodes

```
  0: 0x0125 [0x32] ExtData[1]->MainSpeed = 13* * 0.1
  1: 0x0128 [0x1F] MOVE_ENTITY: EventEntity moves to X=-12.396*, Z=-79.115*, Y=-67.999*
  2: 0x0130 [0x1F] MOVE_ENTITY: Update entity position (mode=1)
  3: 0x0132 [0x00] END_REQSTACK()
```

### Event 65535.19

#### Metadata

| Field        | Value    |
|--------------|----------|
| Entrypoint   | 0x0133   |
| Data Size    | 14 bytes |
| Instructions | 4        |

```
      00 01 02 03 04 05 06 07  08 09 0A 0B 0C 0D 0E 0F
      -- -- -- -- -- -- -- --  -- -- -- -- -- -- -- --
0130:          32 09 80 1F 00  2D 80 2E 80 2C 80 1F 01     2....-...,...
0140: 00                                                .               
```

#### Opcodes

```
  0: 0x0133 [0x32] ExtData[1]->MainSpeed = 13* * 0.1
  1: 0x0136 [0x1F] MOVE_ENTITY: EventEntity moves to X=-12.356*, Z=-80.781*, Y=-67.999*
  2: 0x013E [0x1F] MOVE_ENTITY: Update entity position (mode=1)
  3: 0x0140 [0x00] END_REQSTACK()
```

### Event 65535.20

#### Metadata

| Field        | Value    |
|--------------|----------|
| Entrypoint   | 0x0141   |
| Data Size    | 22 bytes |
| Instructions | 6        |

```
      00 01 02 03 04 05 06 07  08 09 0A 0B 0C 0D 0E 0F
      -- -- -- -- -- -- -- --  -- -- -- -- -- -- -- --
0140:    32 09 80 5A 00 2F 80  30 80 31 80 5A 01 1E F0   2..Z./.0.1.Z...
0150: FF FF 7F 1C 32 80 00                              ....2..         
```

#### Opcodes

```
  0: 0x0141 [0x32] ExtData[1]->MainSpeed = 13* * 0.1
  1: 0x0144 [0x5A] UPDATE_EVENT_POSITION: Set EventEntity MovePosition to X=-467.270*, Z=49.343*, Y=-29.115*
  2: 0x014C [0x5A] UPDATE_EVENT_POSITION: Move EventEntity incrementally towards MovePosition
  3: 0x014E [0x1E] EventEntity looks at LocalPlayer and starts talking
  4: 0x0153 [0x1C] WAIT(30* ticks)
  5: 0x0156 [0x00] END_REQSTACK()
```

### Event 65535.21

#### Metadata

| Field        | Value   |
|--------------|---------|
| Entrypoint   | 0x0157  |
| Data Size    | 5 bytes |
| Instructions | 2       |

```
      00 01 02 03 04 05 06 07  08 09 0A 0B 0C 0D 0E 0F
      -- -- -- -- -- -- -- --  -- -- -- -- -- -- -- --
0150:                      B6  00 33 80 00                     ..3..    
```

#### Opcodes

```
  0: 0x0157 [0xB6] ENTITY_APPEARANCE_HANDLER(case=Hair style, value=589*)
  1: 0x015B [0x00] END_REQSTACK()
```

### Event 65535.22

#### Metadata

| Field        | Value   |
|--------------|---------|
| Entrypoint   | 0x015C  |
| Data Size    | 5 bytes |
| Instructions | 2       |

```
      00 01 02 03 04 05 06 07  08 09 0A 0B 0C 0D 0E 0F
      -- -- -- -- -- -- -- --  -- -- -- -- -- -- -- --
0150:                                      B6 00 23 80              ..#.
0160: 00                                                .               
```

#### Opcodes

```
  0: 0x015C [0xB6] ENTITY_APPEARANCE_HANDLER(case=Hair style, value=1084*)
  1: 0x0160 [0x00] END_REQSTACK()
```

### Event 65535.23

#### Metadata

| Field        | Value   |
|--------------|---------|
| Entrypoint   | 0x0161  |
| Data Size    | 5 bytes |
| Instructions | 2       |

```
      00 01 02 03 04 05 06 07  08 09 0A 0B 0C 0D 0E 0F
      -- -- -- -- -- -- -- --  -- -- -- -- -- -- -- --
0160:    B6 00 23 80 00                                  ..#..          
```

#### Opcodes

```
  0: 0x0161 [0xB6] ENTITY_APPEARANCE_HANDLER(case=Hair style, value=1084*)
  1: 0x0165 [0x00] END_REQSTACK()
```

### Event 65535.24

#### Metadata

| Field        | Value   |
|--------------|---------|
| Entrypoint   | 0x0166  |
| Data Size    | 5 bytes |
| Instructions | 2       |

```
      00 01 02 03 04 05 06 07  08 09 0A 0B 0C 0D 0E 0F
      -- -- -- -- -- -- -- --  -- -- -- -- -- -- -- --
0160:                   B6 00  34 80 00                       ..4..     
```

#### Opcodes

```
  0: 0x0166 [0xB6] ENTITY_APPEARANCE_HANDLER(case=Hair style, value=2076*)
  1: 0x016A [0x00] END_REQSTACK()
```

### Event 65535.25

#### Metadata

| Field        | Value   |
|--------------|---------|
| Entrypoint   | 0x016B  |
| Data Size    | 5 bytes |
| Instructions | 2       |

```
      00 01 02 03 04 05 06 07  08 09 0A 0B 0C 0D 0E 0F
      -- -- -- -- -- -- -- --  -- -- -- -- -- -- -- --
0160:                                   B6 00 34 80 00             ..4..
```

#### Opcodes

```
  0: 0x016B [0xB6] ENTITY_APPEARANCE_HANDLER(case=Hair style, value=2076*)
  1: 0x016F [0x00] END_REQSTACK()
```

### Event 65535.26

#### Metadata

| Field        | Value   |
|--------------|---------|
| Entrypoint   | 0x0170  |
| Data Size    | 5 bytes |
| Instructions | 2       |

```
      00 01 02 03 04 05 06 07  08 09 0A 0B 0C 0D 0E 0F
      -- -- -- -- -- -- -- --  -- -- -- -- -- -- -- --
0170: B6 00 34 80 00                                    ..4..           
```

#### Opcodes

```
  0: 0x0170 [0xB6] ENTITY_APPEARANCE_HANDLER(case=Hair style, value=2076*)
  1: 0x0174 [0x00] END_REQSTACK()
```

### Event 65535.27

#### Metadata

| Field        | Value   |
|--------------|---------|
| Entrypoint   | 0x0175  |
| Data Size    | 5 bytes |
| Instructions | 2       |

```
      00 01 02 03 04 05 06 07  08 09 0A 0B 0C 0D 0E 0F
      -- -- -- -- -- -- -- --  -- -- -- -- -- -- -- --
0170:                B6 00 34  80 00                         ..4..      
```

#### Opcodes

```
  0: 0x0175 [0xB6] ENTITY_APPEARANCE_HANDLER(case=Hair style, value=2076*)
  1: 0x0179 [0x00] END_REQSTACK()
```

### Event 65535.28

#### Metadata

| Field        | Value   |
|--------------|---------|
| Entrypoint   | 0x017A  |
| Data Size    | 5 bytes |
| Instructions | 2       |

```
      00 01 02 03 04 05 06 07  08 09 0A 0B 0C 0D 0E 0F
      -- -- -- -- -- -- -- --  -- -- -- -- -- -- -- --
0170:                                B6 00 34 80 00               ..4.. 
```

#### Opcodes

```
  0: 0x017A [0xB6] ENTITY_APPEARANCE_HANDLER(case=Hair style, value=2076*)
  1: 0x017E [0x00] END_REQSTACK()
```

### Event 65535.29

#### Metadata

| Field        | Value   |
|--------------|---------|
| Entrypoint   | 0x017F  |
| Data Size    | 5 bytes |
| Instructions | 2       |

```
      00 01 02 03 04 05 06 07  08 09 0A 0B 0C 0D 0E 0F
      -- -- -- -- -- -- -- --  -- -- -- -- -- -- -- --
0170:                                               B6                 .
0180: 00 35 80 00                                       .5..            
```

#### Opcodes

```
  0: 0x017F [0xB6] ENTITY_APPEARANCE_HANDLER(case=Hair style, value=740*)
  1: 0x0183 [0x00] END_REQSTACK()
```

### Event 65535.30

#### Metadata

| Field        | Value   |
|--------------|---------|
| Entrypoint   | 0x0184  |
| Data Size    | 5 bytes |
| Instructions | 2       |

```
      00 01 02 03 04 05 06 07  08 09 0A 0B 0C 0D 0E 0F
      -- -- -- -- -- -- -- --  -- -- -- -- -- -- -- --
0180:             B6 00 36 80  00                           ..6..       
```

#### Opcodes

```
  0: 0x0184 [0xB6] ENTITY_APPEARANCE_HANDLER(case=Hair style, value=747*)
  1: 0x0188 [0x00] END_REQSTACK()
```

### Event 65535.31

#### Metadata

| Field        | Value   |
|--------------|---------|
| Entrypoint   | 0x0189  |
| Data Size    | 5 bytes |
| Instructions | 2       |

```
      00 01 02 03 04 05 06 07  08 09 0A 0B 0C 0D 0E 0F
      -- -- -- -- -- -- -- --  -- -- -- -- -- -- -- --
0180:                             B6 00 22 80 00                 .."..  
```

#### Opcodes

```
  0: 0x0189 [0xB6] ENTITY_APPEARANCE_HANDLER(case=Hair style, value=755*)
  1: 0x018D [0x00] END_REQSTACK()
```

### Event 65535.32

#### Metadata

| Field        | Value   |
|--------------|---------|
| Entrypoint   | 0x018E  |
| Data Size    | 5 bytes |
| Instructions | 2       |

```
      00 01 02 03 04 05 06 07  08 09 0A 0B 0C 0D 0E 0F
      -- -- -- -- -- -- -- --  -- -- -- -- -- -- -- --
0180:                                            B6 00                ..
0190: 37 80 00                                          7..             
```

#### Opcodes

```
  0: 0x018E [0xB6] ENTITY_APPEARANCE_HANDLER(case=Hair style, value=752*)
  1: 0x0192 [0x00] END_REQSTACK()
```

### Event 65535.33

#### Metadata

| Field        | Value   |
|--------------|---------|
| Entrypoint   | 0x0193  |
| Data Size    | 5 bytes |
| Instructions | 2       |

```
      00 01 02 03 04 05 06 07  08 09 0A 0B 0C 0D 0E 0F
      -- -- -- -- -- -- -- --  -- -- -- -- -- -- -- --
0190:          B6 00 35 80 00                              ..5..        
```

#### Opcodes

```
  0: 0x0193 [0xB6] ENTITY_APPEARANCE_HANDLER(case=Hair style, value=740*)
  1: 0x0197 [0x00] END_REQSTACK()
```

### Event 65535.34

#### Metadata

| Field        | Value   |
|--------------|---------|
| Entrypoint   | 0x0198  |
| Data Size    | 5 bytes |
| Instructions | 2       |

```
      00 01 02 03 04 05 06 07  08 09 0A 0B 0C 0D 0E 0F
      -- -- -- -- -- -- -- --  -- -- -- -- -- -- -- --
0190:                          B6 00 36 80 00                   ..6..   
```

#### Opcodes

```
  0: 0x0198 [0xB6] ENTITY_APPEARANCE_HANDLER(case=Hair style, value=747*)
  1: 0x019C [0x00] END_REQSTACK()
```

### Event 65535.35

#### Metadata

| Field        | Value   |
|--------------|---------|
| Entrypoint   | 0x019D  |
| Data Size    | 5 bytes |
| Instructions | 2       |

```
      00 01 02 03 04 05 06 07  08 09 0A 0B 0C 0D 0E 0F
      -- -- -- -- -- -- -- --  -- -- -- -- -- -- -- --
0190:                                         B6 00 22               .."
01A0: 80 00                                             ..              
```

#### Opcodes

```
  0: 0x019D [0xB6] ENTITY_APPEARANCE_HANDLER(case=Hair style, value=755*)
  1: 0x01A1 [0x00] END_REQSTACK()
```

### Event 65535.36

#### Metadata

| Field        | Value   |
|--------------|---------|
| Entrypoint   | 0x01A2  |
| Data Size    | 5 bytes |
| Instructions | 2       |

```
      00 01 02 03 04 05 06 07  08 09 0A 0B 0C 0D 0E 0F
      -- -- -- -- -- -- -- --  -- -- -- -- -- -- -- --
01A0:       B6 00 35 80 00                                ..5..         
```

#### Opcodes

```
  0: 0x01A2 [0xB6] ENTITY_APPEARANCE_HANDLER(case=Hair style, value=740*)
  1: 0x01A6 [0x00] END_REQSTACK()
```

### Event 65535.37

#### Metadata

| Field        | Value   |
|--------------|---------|
| Entrypoint   | 0x01A7  |
| Data Size    | 5 bytes |
| Instructions | 2       |

```
      00 01 02 03 04 05 06 07  08 09 0A 0B 0C 0D 0E 0F
      -- -- -- -- -- -- -- --  -- -- -- -- -- -- -- --
01A0:                      B6  00 38 80 00                     ..8..    
```

#### Opcodes

```
  0: 0x01A7 [0xB6] ENTITY_APPEARANCE_HANDLER(case=Hair style, value=264*)
  1: 0x01AB [0x00] END_REQSTACK()
```

### Event 65535.38

#### Metadata

| Field        | Value   |
|--------------|---------|
| Entrypoint   | 0x01AC  |
| Data Size    | 5 bytes |
| Instructions | 2       |

```
      00 01 02 03 04 05 06 07  08 09 0A 0B 0C 0D 0E 0F
      -- -- -- -- -- -- -- --  -- -- -- -- -- -- -- --
01A0:                                      B6 00 38 80              ..8.
01B0: 00                                                .               
```

#### Opcodes

```
  0: 0x01AC [0xB6] ENTITY_APPEARANCE_HANDLER(case=Hair style, value=264*)
  1: 0x01B0 [0x00] END_REQSTACK()
```

### Event 65535.39

#### Metadata

| Field        | Value   |
|--------------|---------|
| Entrypoint   | 0x01B1  |
| Data Size    | 5 bytes |
| Instructions | 2       |

```
      00 01 02 03 04 05 06 07  08 09 0A 0B 0C 0D 0E 0F
      -- -- -- -- -- -- -- --  -- -- -- -- -- -- -- --
01B0:    B6 00 39 80 00                                  ..9..          
```

#### Opcodes

```
  0: 0x01B1 [0xB6] ENTITY_APPEARANCE_HANDLER(case=Hair style, value=265*)
  1: 0x01B5 [0x00] END_REQSTACK()
```

### Event 65535.40

#### Metadata

| Field        | Value   |
|--------------|---------|
| Entrypoint   | 0x01B6  |
| Data Size    | 5 bytes |
| Instructions | 2       |

```
      00 01 02 03 04 05 06 07  08 09 0A 0B 0C 0D 0E 0F
      -- -- -- -- -- -- -- --  -- -- -- -- -- -- -- --
01B0:                   B6 00  39 80 00                       ..9..     
```

#### Opcodes

```
  0: 0x01B6 [0xB6] ENTITY_APPEARANCE_HANDLER(case=Hair style, value=265*)
  1: 0x01BA [0x00] END_REQSTACK()
```

### Event 65535.41

#### Metadata

| Field        | Value   |
|--------------|---------|
| Entrypoint   | 0x01BB  |
| Data Size    | 5 bytes |
| Instructions | 2       |

```
      00 01 02 03 04 05 06 07  08 09 0A 0B 0C 0D 0E 0F
      -- -- -- -- -- -- -- --  -- -- -- -- -- -- -- --
01B0:                                   B6 00 3A 80 00             ..:..
```

#### Opcodes

```
  0: 0x01BB [0xB6] ENTITY_APPEARANCE_HANDLER(case=Hair style, value=961*)
  1: 0x01BF [0x00] END_REQSTACK()
```

### Event 65535.42

#### Metadata

| Field        | Value   |
|--------------|---------|
| Entrypoint   | 0x01C0  |
| Data Size    | 5 bytes |
| Instructions | 2       |

```
      00 01 02 03 04 05 06 07  08 09 0A 0B 0C 0D 0E 0F
      -- -- -- -- -- -- -- --  -- -- -- -- -- -- -- --
01C0: B6 00 3B 80 00                                    ..;..           
```

#### Opcodes

```
  0: 0x01C0 [0xB6] ENTITY_APPEARANCE_HANDLER(case=Hair style, value=962*)
  1: 0x01C4 [0x00] END_REQSTACK()
```

### Event 65535.43

#### Metadata

| Field        | Value    |
|--------------|----------|
| Entrypoint   | 0x01C5   |
| Data Size    | 18 bytes |
| Instructions | 6        |

```
      00 01 02 03 04 05 06 07  08 09 0A 0B 0C 0D 0E 0F
      -- -- -- -- -- -- -- --  -- -- -- -- -- -- -- --
01C0:                1C 32 80  32 3C 80 1F 00 3D 80 3E       .2.2<...=.>
01D0: 80 3F 80 1F 01 6F 00                              .?...o.         
```

#### Opcodes

```
  0: 0x01C5 [0x1C] WAIT(30* ticks)
  1: 0x01C8 [0x32] ExtData[1]->MainSpeed = 11* * 0.1
  2: 0x01CB [0x1F] MOVE_ENTITY: EventEntity moves to X=148.607*, Z=-1.355*, Y=-43.632*
  3: 0x01D3 [0x1F] MOVE_ENTITY: Update entity position (mode=1)
  4: 0x01D5 [0x6F] WAIT_FRAME_DELAY: Yield until WaitTime reaches zero
  5: 0x01D6 [0x00] END_REQSTACK()
```

### Event 65535.44

#### Metadata

| Field        | Value    |
|--------------|----------|
| Entrypoint   | 0x01D7   |
| Data Size    | 15 bytes |
| Instructions | 5        |

```
      00 01 02 03 04 05 06 07  08 09 0A 0B 0C 0D 0E 0F
      -- -- -- -- -- -- -- --  -- -- -- -- -- -- -- --
01D0:                      32  1E 80 1F 00 40 80 41 80         2....@.A.
01E0: 42 80 1F 01 6F 00                                 B...o.          
```

#### Opcodes

```
  0: 0x01D7 [0x32] ExtData[1]->MainSpeed = 10* * 0.1
  1: 0x01DA [0x1F] MOVE_ENTITY: EventEntity moves to X=151.412*, Z=-4.213*, Y=-43.790*
  2: 0x01E2 [0x1F] MOVE_ENTITY: Update entity position (mode=1)
  3: 0x01E4 [0x6F] WAIT_FRAME_DELAY: Yield until WaitTime reaches zero
  4: 0x01E5 [0x00] END_REQSTACK()
```

### Event 65535.45

#### Metadata

| Field        | Value    |
|--------------|----------|
| Entrypoint   | 0x01E6   |
| Data Size    | 18 bytes |
| Instructions | 6        |

```
      00 01 02 03 04 05 06 07  08 09 0A 0B 0C 0D 0E 0F
      -- -- -- -- -- -- -- --  -- -- -- -- -- -- -- --
01E0:                   1C 43  80 32 3C 80 1F 00 44 80        .C.2<...D.
01F0: 45 80 46 80 1F 01 6F 00                           E.F...o.        
```

#### Opcodes

```
  0: 0x01E6 [0x1C] WAIT(15* ticks)
  1: 0x01E9 [0x32] ExtData[1]->MainSpeed = 11* * 0.1
  2: 0x01EC [0x1F] MOVE_ENTITY: EventEntity moves to X=151.920*, Z=4.222*, Y=-43.816*
  3: 0x01F4 [0x1F] MOVE_ENTITY: Update entity position (mode=1)
  4: 0x01F6 [0x6F] WAIT_FRAME_DELAY: Yield until WaitTime reaches zero
  5: 0x01F7 [0x00] END_REQSTACK()
```

### Event 65535.46

#### Metadata

| Field        | Value    |
|--------------|----------|
| Entrypoint   | 0x01F8   |
| Data Size    | 18 bytes |
| Instructions | 6        |

```
      00 01 02 03 04 05 06 07  08 09 0A 0B 0C 0D 0E 0F
      -- -- -- -- -- -- -- --  -- -- -- -- -- -- -- --
01F0:                          1C 47 80 32 09 80 1F 00          .G.2....
0200: 48 80 49 80 4A 80 1F 01  6F 00                    H.I.J...o.      
```

#### Opcodes

```
  0: 0x01F8 [0x1C] WAIT(5* ticks)
  1: 0x01FB [0x32] ExtData[1]->MainSpeed = 13* * 0.1
  2: 0x01FE [0x1F] MOVE_ENTITY: EventEntity moves to X=148.241*, Z=-3.309*, Y=-43.629*
  3: 0x0206 [0x1F] MOVE_ENTITY: Update entity position (mode=1)
  4: 0x0208 [0x6F] WAIT_FRAME_DELAY: Yield until WaitTime reaches zero
  5: 0x0209 [0x00] END_REQSTACK()
```

### Event 65535.47

#### Metadata

| Field        | Value    |
|--------------|----------|
| Entrypoint   | 0x020A   |
| Data Size    | 18 bytes |
| Instructions | 6        |

```
      00 01 02 03 04 05 06 07  08 09 0A 0B 0C 0D 0E 0F
      -- -- -- -- -- -- -- --  -- -- -- -- -- -- -- --
0200:                                1C 4B 80 32 4C 80            .K.2L.
0210: 1F 00 4D 80 4E 80 4F 80  1F 01 6F 00              ..M.N.O...o.    
```

#### Opcodes

```
  0: 0x020A [0x1C] WAIT(20* ticks)
  1: 0x020D [0x32] ExtData[1]->MainSpeed = 12* * 0.1
  2: 0x0210 [0x1F] MOVE_ENTITY: EventEntity moves to X=151.040*, Z=1.874*, Y=-43.753*
  3: 0x0218 [0x1F] MOVE_ENTITY: Update entity position (mode=1)
  4: 0x021A [0x6F] WAIT_FRAME_DELAY: Yield until WaitTime reaches zero
  5: 0x021B [0x00] END_REQSTACK()
```

### Event 65535.48

#### Metadata

| Field        | Value    |
|--------------|----------|
| Entrypoint   | 0x021C   |
| Data Size    | 18 bytes |
| Instructions | 6        |

```
      00 01 02 03 04 05 06 07  08 09 0A 0B 0C 0D 0E 0F
      -- -- -- -- -- -- -- --  -- -- -- -- -- -- -- --
0210:                                      1C 43 80 32              .C.2
0220: 50 80 1F 00 51 80 52 80  53 80 1F 01 6F 00        P...Q.R.S...o.  
```

#### Opcodes

```
  0: 0x021C [0x1C] WAIT(15* ticks)
  1: 0x021F [0x32] ExtData[1]->MainSpeed = 9* * 0.1
  2: 0x0222 [0x1F] MOVE_ENTITY: EventEntity moves to X=152.848*, Z=-1.396*, Y=-43.843*
  3: 0x022A [0x1F] MOVE_ENTITY: Update entity position (mode=1)
  4: 0x022C [0x6F] WAIT_FRAME_DELAY: Yield until WaitTime reaches zero
  5: 0x022D [0x00] END_REQSTACK()
```

### Event 65535.49

#### Metadata

| Field        | Value    |
|--------------|----------|
| Entrypoint   | 0x022E   |
| Data Size    | 18 bytes |
| Instructions | 6        |

```
      00 01 02 03 04 05 06 07  08 09 0A 0B 0C 0D 0E 0F
      -- -- -- -- -- -- -- --  -- -- -- -- -- -- -- --
0220:                                            1C 1E                ..
0230: 80 32 1E 80 1F 00 54 80  55 80 56 80 1F 01 6F 00  .2....T.U.V...o.
```

#### Opcodes

```
  0: 0x022E [0x1C] WAIT(10* ticks)
  1: 0x0231 [0x32] ExtData[1]->MainSpeed = 10* * 0.1
  2: 0x0234 [0x1F] MOVE_ENTITY: EventEntity moves to X=155.794*, Z=3.221*, Y=-44.000*
  3: 0x023C [0x1F] MOVE_ENTITY: Update entity position (mode=1)
  4: 0x023E [0x6F] WAIT_FRAME_DELAY: Yield until WaitTime reaches zero
  5: 0x023F [0x00] END_REQSTACK()
```

### Event 65535.50

#### Metadata

| Field        | Value    |
|--------------|----------|
| Entrypoint   | 0x0240   |
| Data Size    | 18 bytes |
| Instructions | 6        |

```
      00 01 02 03 04 05 06 07  08 09 0A 0B 0C 0D 0E 0F
      -- -- -- -- -- -- -- --  -- -- -- -- -- -- -- --
0240: 1C 32 80 32 1E 80 1F 00  57 80 58 80 59 80 1F 01  .2.2....W.X.Y...
0250: 6F 00                                             o.              
```

#### Opcodes

```
  0: 0x0240 [0x1C] WAIT(30* ticks)
  1: 0x0243 [0x32] ExtData[1]->MainSpeed = 10* * 0.1
  2: 0x0246 [0x1F] MOVE_ENTITY: EventEntity moves to X=154.405*, Z=5.013*, Y=-43.999*
  3: 0x024E [0x1F] MOVE_ENTITY: Update entity position (mode=1)
  4: 0x0250 [0x6F] WAIT_FRAME_DELAY: Yield until WaitTime reaches zero
  5: 0x0251 [0x00] END_REQSTACK()
```

### Event 65535.51

#### Metadata

| Field        | Value   |
|--------------|---------|
| Entrypoint   | 0x0252  |
| Data Size    | 5 bytes |
| Instructions | 2       |

```
      00 01 02 03 04 05 06 07  08 09 0A 0B 0C 0D 0E 0F
      -- -- -- -- -- -- -- --  -- -- -- -- -- -- -- --
0250:       B6 00 5A 80 00                                ..Z..         
```

#### Opcodes

```
  0: 0x0252 [0xB6] ENTITY_APPEARANCE_HANDLER(case=Hair style, value=2267*)
  1: 0x0256 [0x00] END_REQSTACK()
```

### Event 65535.52

#### Metadata

| Field        | Value   |
|--------------|---------|
| Entrypoint   | 0x0257  |
| Data Size    | 5 bytes |
| Instructions | 2       |

```
      00 01 02 03 04 05 06 07  08 09 0A 0B 0C 0D 0E 0F
      -- -- -- -- -- -- -- --  -- -- -- -- -- -- -- --
0250:                      B6  00 5B 80 00                     ..[..    
```

#### Opcodes

```
  0: 0x0257 [0xB6] ENTITY_APPEARANCE_HANDLER(case=Hair style, value=2265*)
  1: 0x025B [0x00] END_REQSTACK()
```

### Event 65535.53

#### Metadata

| Field        | Value   |
|--------------|---------|
| Entrypoint   | 0x025C  |
| Data Size    | 5 bytes |
| Instructions | 2       |

```
      00 01 02 03 04 05 06 07  08 09 0A 0B 0C 0D 0E 0F
      -- -- -- -- -- -- -- --  -- -- -- -- -- -- -- --
0250:                                      B6 00 5A 80              ..Z.
0260: 00                                                .               
```

#### Opcodes

```
  0: 0x025C [0xB6] ENTITY_APPEARANCE_HANDLER(case=Hair style, value=2267*)
  1: 0x0260 [0x00] END_REQSTACK()
```

### Event 65535.54

#### Metadata

| Field        | Value   |
|--------------|---------|
| Entrypoint   | 0x0261  |
| Data Size    | 5 bytes |
| Instructions | 2       |

```
      00 01 02 03 04 05 06 07  08 09 0A 0B 0C 0D 0E 0F
      -- -- -- -- -- -- -- --  -- -- -- -- -- -- -- --
0260:    B6 00 5C 80 00                                  ..\..          
```

#### Opcodes

```
  0: 0x0261 [0xB6] ENTITY_APPEARANCE_HANDLER(case=Hair style, value=2268*)
  1: 0x0265 [0x00] END_REQSTACK()
```

### Event 65535.55

#### Metadata

| Field        | Value   |
|--------------|---------|
| Entrypoint   | 0x0266  |
| Data Size    | 5 bytes |
| Instructions | 2       |

```
      00 01 02 03 04 05 06 07  08 09 0A 0B 0C 0D 0E 0F
      -- -- -- -- -- -- -- --  -- -- -- -- -- -- -- --
0260:                   B6 00  5B 80 00                       ..[..     
```

#### Opcodes

```
  0: 0x0266 [0xB6] ENTITY_APPEARANCE_HANDLER(case=Hair style, value=2265*)
  1: 0x026A [0x00] END_REQSTACK()
```

### Event 65535.56

#### Metadata

| Field        | Value   |
|--------------|---------|
| Entrypoint   | 0x026B  |
| Data Size    | 5 bytes |
| Instructions | 2       |

```
      00 01 02 03 04 05 06 07  08 09 0A 0B 0C 0D 0E 0F
      -- -- -- -- -- -- -- --  -- -- -- -- -- -- -- --
0260:                                   B6 00 5C 80 00             ..\..
```

#### Opcodes

```
  0: 0x026B [0xB6] ENTITY_APPEARANCE_HANDLER(case=Hair style, value=2268*)
  1: 0x026F [0x00] END_REQSTACK()
```

### Event 65535.57

#### Metadata

| Field        | Value   |
|--------------|---------|
| Entrypoint   | 0x0270  |
| Data Size    | 5 bytes |
| Instructions | 2       |

```
      00 01 02 03 04 05 06 07  08 09 0A 0B 0C 0D 0E 0F
      -- -- -- -- -- -- -- --  -- -- -- -- -- -- -- --
0270: B6 00 5A 80 00                                    ..Z..           
```

#### Opcodes

```
  0: 0x0270 [0xB6] ENTITY_APPEARANCE_HANDLER(case=Hair style, value=2267*)
  1: 0x0274 [0x00] END_REQSTACK()
```

### Event 65535.58

#### Metadata

| Field        | Value    |
|--------------|----------|
| Entrypoint   | 0x0275   |
| Data Size    | 18 bytes |
| Instructions | 6        |

```
      00 01 02 03 04 05 06 07  08 09 0A 0B 0C 0D 0E 0F
      -- -- -- -- -- -- -- --  -- -- -- -- -- -- -- --
0270:                1C 5D 80  32 5E 80 1F 00 5F 80 60       .].2^..._.`
0280: 80 61 80 1F 01 6F 00                              .a...o.         
```

#### Opcodes

```
  0: 0x0275 [0x1C] WAIT(60* ticks)
  1: 0x0278 [0x32] ExtData[1]->MainSpeed = 38* * 0.1
  2: 0x027B [0x1F] MOVE_ENTITY: EventEntity moves to X=-36.762*, Z=78.329*, Y=-68.073*
  3: 0x0283 [0x1F] MOVE_ENTITY: Update entity position (mode=1)
  4: 0x0285 [0x6F] WAIT_FRAME_DELAY: Yield until WaitTime reaches zero
  5: 0x0286 [0x00] END_REQSTACK()
```

### Event 65535.59

#### Metadata

| Field        | Value    |
|--------------|----------|
| Entrypoint   | 0x0287   |
| Data Size    | 18 bytes |
| Instructions | 6        |

```
      00 01 02 03 04 05 06 07  08 09 0A 0B 0C 0D 0E 0F
      -- -- -- -- -- -- -- --  -- -- -- -- -- -- -- --
0280:                      1C  32 80 32 62 80 1F 00 63         .2.2b...c
0290: 80 64 80 65 80 1F 01 6F  00                       .d.e...o.       
```

#### Opcodes

```
  0: 0x0287 [0x1C] WAIT(30* ticks)
  1: 0x028A [0x32] ExtData[1]->MainSpeed = 39* * 0.1
  2: 0x028D [0x1F] MOVE_ENTITY: EventEntity moves to X=-30.949*, Z=79.134*, Y=-68.054*
  3: 0x0295 [0x1F] MOVE_ENTITY: Update entity position (mode=1)
  4: 0x0297 [0x6F] WAIT_FRAME_DELAY: Yield until WaitTime reaches zero
  5: 0x0298 [0x00] END_REQSTACK()
```

### Event 65535.60

#### Metadata

| Field        | Value    |
|--------------|----------|
| Entrypoint   | 0x0299   |
| Data Size    | 14 bytes |
| Instructions | 4        |

```
      00 01 02 03 04 05 06 07  08 09 0A 0B 0C 0D 0E 0F
      -- -- -- -- -- -- -- --  -- -- -- -- -- -- -- --
0290:                             32 66 80 5A 00 67 80           2f.Z.g.
02A0: 68 80 69 80 5A 01 00                              h.i.Z..         
```

#### Opcodes

```
  0: 0x0299 [0x32] ExtData[1]->MainSpeed = 37* * 0.1
  1: 0x029C [0x5A] UPDATE_EVENT_POSITION: Set EventEntity MovePosition to X=-206.016*, Z=-60.132*, Y=-104.400*
  2: 0x02A4 [0x5A] UPDATE_EVENT_POSITION: Move EventEntity incrementally towards MovePosition
  3: 0x02A6 [0x00] END_REQSTACK()
```

### Event 65535.61

#### Metadata

| Field        | Value    |
|--------------|----------|
| Entrypoint   | 0x02A7   |
| Data Size    | 30 bytes |
| Instructions | 6        |

```
      00 01 02 03 04 05 06 07  08 09 0A 0B 0C 0D 0E 0F
      -- -- -- -- -- -- -- --  -- -- -- -- -- -- -- --
02A0:                      32  6A 80 1F 00 6B 80 6C 80         2j...k.l.
02B0: 6D 80 1F 01 6F 5B 6E 80  F8 FF FF 7F F8 FF FF 7F  m...o[n.........
02C0: 73 70 70 30 00                                    spp0.           
```

#### Opcodes

```
  0: 0x02A7 [0x32] ExtData[1]->MainSpeed = 18* * 0.1
  1: 0x02AA [0x1F] MOVE_ENTITY: EventEntity moves to X=-93.448*, Z=-58.006*, Y=-68.249*
  2: 0x02B2 [0x1F] MOVE_ENTITY: Update entity position (mode=1)
  3: 0x02B4 [0x6F] WAIT_FRAME_DELAY: Yield until WaitTime reaches zero
  4: 0x02B5 [0x5B] LOAD_EXT_SCHEDULER: Load scheduler "spp0" with entities [EventEntity, EventEntity], work=2227*
  5: 0x02C4 [0x00] END_REQSTACK()
```

### Event 65535.62

#### Metadata

| Field        | Value    |
|--------------|----------|
| Entrypoint   | 0x02C5   |
| Data Size    | 15 bytes |
| Instructions | 5        |

```
      00 01 02 03 04 05 06 07  08 09 0A 0B 0C 0D 0E 0F
      -- -- -- -- -- -- -- --  -- -- -- -- -- -- -- --
02C0:                32 4B 80  1F 00 6F 80 70 80 71 80       2K...o.p.q.
02D0: 1F 01 6F 00                                       ..o.            
```

#### Opcodes

```
  0: 0x02C5 [0x32] ExtData[1]->MainSpeed = 20* * 0.1
  1: 0x02C8 [0x1F] MOVE_ENTITY: EventEntity moves to X=-62.393*, Z=-63.522*, Y=-68.014*
  2: 0x02D0 [0x1F] MOVE_ENTITY: Update entity position (mode=1)
  3: 0x02D2 [0x6F] WAIT_FRAME_DELAY: Yield until WaitTime reaches zero
  4: 0x02D3 [0x00] END_REQSTACK()
```

### Event 65535.63

#### Metadata

| Field        | Value    |
|--------------|----------|
| Entrypoint   | 0x02D4   |
| Data Size    | 30 bytes |
| Instructions | 6        |

```
      00 01 02 03 04 05 06 07  08 09 0A 0B 0C 0D 0E 0F
      -- -- -- -- -- -- -- --  -- -- -- -- -- -- -- --
02D0:             32 72 80 1F  00 73 80 74 80 75 80 1F      2r...s.t.u..
02E0: 01 6F 5B 6E 80 F8 FF FF  7F F8 FF FF 7F 73 70 70  .o[n.........spp
02F0: 30 00                                             0.              
```

#### Opcodes

```
  0: 0x02D4 [0x32] ExtData[1]->MainSpeed = 17* * 0.1
  1: 0x02D7 [0x1F] MOVE_ENTITY: EventEntity moves to X=-88.906*, Z=-58.078*, Y=-68.000*
  2: 0x02DF [0x1F] MOVE_ENTITY: Update entity position (mode=1)
  3: 0x02E1 [0x6F] WAIT_FRAME_DELAY: Yield until WaitTime reaches zero
  4: 0x02E2 [0x5B] LOAD_EXT_SCHEDULER: Load scheduler "spp0" with entities [EventEntity, EventEntity], work=2227*
  5: 0x02F1 [0x00] END_REQSTACK()
```

### Event 65535.64

#### Metadata

| Field        | Value    |
|--------------|----------|
| Entrypoint   | 0x02F2   |
| Data Size    | 25 bytes |
| Instructions | 7        |

```
      00 01 02 03 04 05 06 07  08 09 0A 0B 0C 0D 0E 0F
      -- -- -- -- -- -- -- --  -- -- -- -- -- -- -- --
02F0:       32 6A 80 1F 00 76  80 77 80 6D 80 1F 01 1F    2j...v.w.m....
0300: 00 78 80 79 80 75 80 1F  01 6F 00                 .x.y.u...o.     
```

#### Opcodes

```
  0: 0x02F2 [0x32] ExtData[1]->MainSpeed = 18* * 0.1
  1: 0x02F5 [0x1F] MOVE_ENTITY: EventEntity moves to X=-64.793*, Z=-62.395*, Y=-68.249*
  2: 0x02FD [0x1F] MOVE_ENTITY: Update entity position (mode=1)
  3: 0x02FF [0x1F] MOVE_ENTITY: EventEntity moves to X=-69.110*, Z=-61.473*, Y=-68.000*
  4: 0x0307 [0x1F] MOVE_ENTITY: Update entity position (mode=1)
  5: 0x0309 [0x6F] WAIT_FRAME_DELAY: Yield until WaitTime reaches zero
  6: 0x030A [0x00] END_REQSTACK()
```

### Event 65535.65

#### Metadata

| Field        | Value    |
|--------------|----------|
| Entrypoint   | 0x030B   |
| Data Size    | 15 bytes |
| Instructions | 5        |

```
      00 01 02 03 04 05 06 07  08 09 0A 0B 0C 0D 0E 0F
      -- -- -- -- -- -- -- --  -- -- -- -- -- -- -- --
0300:                                   32 7A 80 1F 00             2z...
0310: 7B 80 7C 80 7D 80 1F 01  6F 00                    {.|.}...o.      
```

#### Opcodes

```
  0: 0x030B [0x32] ExtData[1]->MainSpeed = 19* * 0.1
  1: 0x030E [0x1F] MOVE_ENTITY: EventEntity moves to X=-62.157*, Z=-61.264*, Y=-67.927*
  2: 0x0316 [0x1F] MOVE_ENTITY: Update entity position (mode=1)
  3: 0x0318 [0x6F] WAIT_FRAME_DELAY: Yield until WaitTime reaches zero
  4: 0x0319 [0x00] END_REQSTACK()
```

### Event 65535.66

#### Metadata

| Field        | Value    |
|--------------|----------|
| Entrypoint   | 0x031A   |
| Data Size    | 15 bytes |
| Instructions | 5        |

```
      00 01 02 03 04 05 06 07  08 09 0A 0B 0C 0D 0E 0F
      -- -- -- -- -- -- -- --  -- -- -- -- -- -- -- --
0310:                                32 7E 80 1F 00 7F            2~....
0320: 80 80 80 81 80 1F 01 6F  00                       .......o.       
```

#### Opcodes

```
  0: 0x031A [0x32] ExtData[1]->MainSpeed = 69* * 0.1
  1: 0x031D [0x1F] MOVE_ENTITY: EventEntity moves to X=-89.790*, Z=-57.410*, Y=-68.212*
  2: 0x0325 [0x1F] MOVE_ENTITY: Update entity position (mode=1)
  3: 0x0327 [0x6F] WAIT_FRAME_DELAY: Yield until WaitTime reaches zero
  4: 0x0328 [0x00] END_REQSTACK()
```

### Event 65535.67

#### Metadata

| Field        | Value    |
|--------------|----------|
| Entrypoint   | 0x0329   |
| Data Size    | 25 bytes |
| Instructions | 7        |

```
      00 01 02 03 04 05 06 07  08 09 0A 0B 0C 0D 0E 0F
      -- -- -- -- -- -- -- --  -- -- -- -- -- -- -- --
0320:                             32 82 80 1F 00 83 80           2......
0330: 84 80 85 80 1F 01 1F 00  86 80 87 80 85 80 1F 01  ................
0340: 6F 00                                             o.              
```

#### Opcodes

```
  0: 0x0329 [0x32] ExtData[1]->MainSpeed = 70* * 0.1
  1: 0x032C [0x1F] MOVE_ENTITY: EventEntity moves to X=-101.436*, Z=-59.231*, Y=-69.494*
  2: 0x0334 [0x1F] MOVE_ENTITY: Update entity position (mode=1)
  3: 0x0336 [0x1F] MOVE_ENTITY: EventEntity moves to X=-92.230*, Z=-57.698*, Y=-69.494*
  4: 0x033E [0x1F] MOVE_ENTITY: Update entity position (mode=1)
  5: 0x0340 [0x6F] WAIT_FRAME_DELAY: Yield until WaitTime reaches zero
  6: 0x0341 [0x00] END_REQSTACK()
```

### Event 65535.68

#### Metadata

| Field        | Value    |
|--------------|----------|
| Entrypoint   | 0x0342   |
| Data Size    | 28 bytes |
| Instructions | 8        |

```
      00 01 02 03 04 05 06 07  08 09 0A 0B 0C 0D 0E 0F
      -- -- -- -- -- -- -- --  -- -- -- -- -- -- -- --
0340:       1C 43 80 32 00 80  1F 00 88 80 89 80 8A 80    .C.2..........
0350: 1F 01 1F 00 8B 80 8C 80  8D 80 1F 01 6F 00        ............o.  
```

#### Opcodes

```
  0: 0x0342 [0x1C] WAIT(15* ticks)
  1: 0x0345 [0x32] ExtData[1]->MainSpeed = 40* * 0.1
  2: 0x0348 [0x1F] MOVE_ENTITY: EventEntity moves to X=132.218*, Z=0.664*, Y=-43.591*
  3: 0x0350 [0x1F] MOVE_ENTITY: Update entity position (mode=1)
  4: 0x0352 [0x1F] MOVE_ENTITY: EventEntity moves to X=114.160*, Z=0.371*, Y=-44.235*
  5: 0x035A [0x1F] MOVE_ENTITY: Update entity position (mode=1)
  6: 0x035C [0x6F] WAIT_FRAME_DELAY: Yield until WaitTime reaches zero
  7: 0x035D [0x00] END_REQSTACK()
```

### Event 65535.69

#### Metadata

| Field        | Value    |
|--------------|----------|
| Entrypoint   | 0x035E   |
| Data Size    | 15 bytes |
| Instructions | 5        |

```
      00 01 02 03 04 05 06 07  08 09 0A 0B 0C 0D 0E 0F
      -- -- -- -- -- -- -- --  -- -- -- -- -- -- -- --
0350:                                            32 8E                2.
0360: 80 1F 00 8F 80 90 80 91  80 1F 01 6F 00           ...........o.   
```

#### Opcodes

```
  0: 0x035E [0x32] ExtData[1]->MainSpeed = 43* * 0.1
  1: 0x0361 [0x1F] MOVE_ENTITY: EventEntity moves to X=112.639*, Z=-0.426*, Y=-44.425*
  2: 0x0369 [0x1F] MOVE_ENTITY: Update entity position (mode=1)
  3: 0x036B [0x6F] WAIT_FRAME_DELAY: Yield until WaitTime reaches zero
  4: 0x036C [0x00] END_REQSTACK()
```

### Event 65535.70

#### Metadata

| Field        | Value    |
|--------------|----------|
| Entrypoint   | 0x036D   |
| Data Size    | 15 bytes |
| Instructions | 5        |

```
      00 01 02 03 04 05 06 07  08 09 0A 0B 0C 0D 0E 0F
      -- -- -- -- -- -- -- --  -- -- -- -- -- -- -- --
0360:                                         32 00 80               2..
0370: 1F 00 92 80 93 80 94 80  1F 01 6F 00              ..........o.    
```

#### Opcodes

```
  0: 0x036D [0x32] ExtData[1]->MainSpeed = 40* * 0.1
  1: 0x0370 [0x1F] MOVE_ENTITY: EventEntity moves to X=94.528*, Z=-12.740*, Y=-51.272*
  2: 0x0378 [0x1F] MOVE_ENTITY: Update entity position (mode=1)
  3: 0x037A [0x6F] WAIT_FRAME_DELAY: Yield until WaitTime reaches zero
  4: 0x037B [0x00] END_REQSTACK()
```

### Event 65535.71

#### Metadata

| Field        | Value   |
|--------------|---------|
| Entrypoint   | 0x037C  |
| Data Size    | 5 bytes |
| Instructions | 2       |

```
      00 01 02 03 04 05 06 07  08 09 0A 0B 0C 0D 0E 0F
      -- -- -- -- -- -- -- --  -- -- -- -- -- -- -- --
0370:                                      B6 00 95 80              ....
0380: 00                                                .               
```

#### Opcodes

```
  0: 0x037C [0xB6] ENTITY_APPEARANCE_HANDLER(case=Hair style, value=52*)
  1: 0x0380 [0x00] END_REQSTACK()
```

### Event 65535.72

#### Metadata

| Field        | Value   |
|--------------|---------|
| Entrypoint   | 0x0381  |
| Data Size    | 5 bytes |
| Instructions | 2       |

```
      00 01 02 03 04 05 06 07  08 09 0A 0B 0C 0D 0E 0F
      -- -- -- -- -- -- -- --  -- -- -- -- -- -- -- --
0380:    B6 00 95 80 00                                  .....          
```

#### Opcodes

```
  0: 0x0381 [0xB6] ENTITY_APPEARANCE_HANDLER(case=Hair style, value=52*)
  1: 0x0385 [0x00] END_REQSTACK()
```

### Event 65535.73

#### Metadata

| Field        | Value   |
|--------------|---------|
| Entrypoint   | 0x0386  |
| Data Size    | 5 bytes |
| Instructions | 2       |

```
      00 01 02 03 04 05 06 07  08 09 0A 0B 0C 0D 0E 0F
      -- -- -- -- -- -- -- --  -- -- -- -- -- -- -- --
0380:                   B6 00  95 80 00                       .....     
```

#### Opcodes

```
  0: 0x0386 [0xB6] ENTITY_APPEARANCE_HANDLER(case=Hair style, value=52*)
  1: 0x038A [0x00] END_REQSTACK()
```

### Event 65535.74

#### Metadata

| Field        | Value    |
|--------------|----------|
| Entrypoint   | 0x038B   |
| Data Size    | 15 bytes |
| Instructions | 5        |

```
      00 01 02 03 04 05 06 07  08 09 0A 0B 0C 0D 0E 0F
      -- -- -- -- -- -- -- --  -- -- -- -- -- -- -- --
0380:                                   32 96 80 1F 00             2....
0390: 97 80 98 80 75 80 1F 01  6F 00                    ....u...o.      
```

#### Opcodes

```
  0: 0x038B [0x32] ExtData[1]->MainSpeed = 68* * 0.1
  1: 0x038E [0x1F] MOVE_ENTITY: EventEntity moves to X=-90.901*, Z=-57.802*, Y=-68.000*
  2: 0x0396 [0x1F] MOVE_ENTITY: Update entity position (mode=1)
  3: 0x0398 [0x6F] WAIT_FRAME_DELAY: Yield until WaitTime reaches zero
  4: 0x0399 [0x00] END_REQSTACK()
```

### Event 65535.75

#### Metadata

| Field        | Value    |
|--------------|----------|
| Entrypoint   | 0x039A   |
| Data Size    | 25 bytes |
| Instructions | 7        |

```
      00 01 02 03 04 05 06 07  08 09 0A 0B 0C 0D 0E 0F
      -- -- -- -- -- -- -- --  -- -- -- -- -- -- -- --
0390:                                32 82 80 1F 00 99            2.....
03A0: 80 9A 80 9B 80 1F 01 1F  00 9C 80 9D 80 75 80 1F  .............u..
03B0: 01 6F 00                                          .o.             
```

#### Opcodes

```
  0: 0x039A [0x32] ExtData[1]->MainSpeed = 70* * 0.1
  1: 0x039D [0x1F] MOVE_ENTITY: EventEntity moves to X=-102.879*, Z=-58.844*, Y=-67.937*
  2: 0x03A5 [0x1F] MOVE_ENTITY: Update entity position (mode=1)
  3: 0x03A7 [0x1F] MOVE_ENTITY: EventEntity moves to X=-90.940*, Z=-57.859*, Y=-68.000*
  4: 0x03AF [0x1F] MOVE_ENTITY: Update entity position (mode=1)
  5: 0x03B1 [0x6F] WAIT_FRAME_DELAY: Yield until WaitTime reaches zero
  6: 0x03B2 [0x00] END_REQSTACK()
```

### Event 65535.76

#### Metadata

| Field        | Value    |
|--------------|----------|
| Entrypoint   | 0x03B3   |
| Data Size    | 25 bytes |
| Instructions | 7        |

```
      00 01 02 03 04 05 06 07  08 09 0A 0B 0C 0D 0E 0F
      -- -- -- -- -- -- -- --  -- -- -- -- -- -- -- --
03B0:          32 7E 80 1F 00  9E 80 9F 80 A0 80 1F 01     2~...........
03C0: 1F 00 A1 80 A2 80 75 80  1F 01 6F 00              ......u...o.    
```

#### Opcodes

```
  0: 0x03B3 [0x32] ExtData[1]->MainSpeed = 69* * 0.1
  1: 0x03B6 [0x1F] MOVE_ENTITY: EventEntity moves to X=-102.947*, Z=-56.180*, Y=-67.941*
  2: 0x03BE [0x1F] MOVE_ENTITY: Update entity position (mode=1)
  3: 0x03C0 [0x1F] MOVE_ENTITY: EventEntity moves to X=-91.019*, Z=-57.757*, Y=-68.000*
  4: 0x03C8 [0x1F] MOVE_ENTITY: Update entity position (mode=1)
  5: 0x03CA [0x6F] WAIT_FRAME_DELAY: Yield until WaitTime reaches zero
  6: 0x03CB [0x00] END_REQSTACK()
```

### Event 65535.77

#### Metadata

| Field        | Value   |
|--------------|---------|
| Entrypoint   | 0x03CC  |
| Data Size    | 5 bytes |
| Instructions | 2       |

```
      00 01 02 03 04 05 06 07  08 09 0A 0B 0C 0D 0E 0F
      -- -- -- -- -- -- -- --  -- -- -- -- -- -- -- --
03C0:                                      B6 00 A3 80              ....
03D0: 00                                                .               
```

#### Opcodes

```
  0: 0x03CC [0xB6] ENTITY_APPEARANCE_HANDLER(case=Hair style, value=2264*)
  1: 0x03D0 [0x00] END_REQSTACK()
```

### Event 65535.78

#### Metadata

| Field        | Value   |
|--------------|---------|
| Entrypoint   | 0x03D1  |
| Data Size    | 4 bytes |
| Instructions | 2       |

```
      00 01 02 03 04 05 06 07  08 09 0A 0B 0C 0D 0E 0F
      -- -- -- -- -- -- -- --  -- -- -- -- -- -- -- --
03D0:    C0 08 80 00                                     ....           
```

#### Opcodes

```
  0: 0x03D1 [0xC0] EventEntity->Render.Flags3 |= 0x1000 // Set bit 12 (from 1*)
  1: 0x03D4 [0x00] END_REQSTACK()
```
