# 17171178 - 10

## Common Data

| Field            | Value                           |
|------------------|---------------------------------|
| Zone             | Fort Karugo-Narugo [S] (ID: 96) |
| Block Size       | 1916 bytes                      |
| Total Events     | 82                              |
| References Count | 155                             |

## List of Events

| Event ID                   | Entrypoint   |   Size |   Instructions |
|----------------------------|--------------|--------|----------------|
| [65535](#event-65535)      | 0x0000       |      1 |              1 |
| [106](#event-106)          | 0x0001       |      1 |              1 |
| [105](#event-105)          | 0x0002       |      1 |              1 |
| [65535.1](#event-655351)   | 0x0003       |     15 |              5 |
| [65535.2](#event-655352)   | 0x0012       |     15 |              5 |
| [65535.3](#event-655353)   | 0x0021       |     15 |              5 |
| [65535.4](#event-655354)   | 0x0030       |     31 |              7 |
| [65535.5](#event-655355)   | 0x004F       |     31 |              7 |
| [65535.6](#event-655356)   | 0x006E       |     14 |              2 |
| [111](#event-111)          | 0x007C       |      1 |              1 |
| [112](#event-112)          | 0x007D       |      1 |              1 |
| [113](#event-113)          | 0x007E       |      1 |              1 |
| [65535.7](#event-655357)   | 0x007F       |      5 |              2 |
| [65535.8](#event-655358)   | 0x0084       |      5 |              2 |
| [65535.9](#event-655359)   | 0x0089       |      5 |              2 |
| [65535.10](#event-6553510) | 0x008E       |     21 |              2 |
| [65535.11](#event-6553511) | 0x00A3       |     21 |              2 |
| [65535.12](#event-6553512) | 0x00B8       |      5 |              2 |
| [65535.13](#event-6553513) | 0x00BD       |     25 |              3 |
| [65535.14](#event-6553514) | 0x00D6       |     25 |              3 |
| [65535.15](#event-6553515) | 0x00EF       |     25 |              3 |
| [65535.16](#event-6553516) | 0x0108       |     14 |              4 |
| [65535.17](#event-6553517) | 0x0116       |     14 |              4 |
| [65535.18](#event-6553518) | 0x0124       |     22 |              6 |
| [65535.19](#event-6553519) | 0x013A       |      5 |              2 |
| [65535.20](#event-6553520) | 0x013F       |      5 |              2 |
| [65535.21](#event-6553521) | 0x0144       |      5 |              2 |
| [65535.22](#event-6553522) | 0x0149       |      5 |              2 |
| [65535.23](#event-6553523) | 0x014E       |      5 |              2 |
| [65535.24](#event-6553524) | 0x0153       |      5 |              2 |
| [65535.25](#event-6553525) | 0x0158       |      5 |              2 |
| [65535.26](#event-6553526) | 0x015D       |      5 |              2 |
| [65535.27](#event-6553527) | 0x0162       |      5 |              2 |
| [65535.28](#event-6553528) | 0x0167       |      5 |              2 |
| [65535.29](#event-6553529) | 0x016C       |      5 |              2 |
| [65535.30](#event-6553530) | 0x0171       |      5 |              2 |
| [65535.31](#event-6553531) | 0x0176       |      5 |              2 |
| [65535.32](#event-6553532) | 0x017B       |      5 |              2 |
| [65535.33](#event-6553533) | 0x0180       |      5 |              2 |
| [65535.34](#event-6553534) | 0x0185       |      5 |              2 |
| [65535.35](#event-6553535) | 0x018A       |      5 |              2 |
| [65535.36](#event-6553536) | 0x018F       |      5 |              2 |
| [65535.37](#event-6553537) | 0x0194       |      5 |              2 |
| [65535.38](#event-6553538) | 0x0199       |      5 |              2 |
| [65535.39](#event-6553539) | 0x019E       |      5 |              2 |
| [65535.40](#event-6553540) | 0x01A3       |      5 |              2 |
| [65535.41](#event-6553541) | 0x01A8       |     18 |              6 |
| [65535.42](#event-6553542) | 0x01BA       |     15 |              5 |
| [65535.43](#event-6553543) | 0x01C9       |     18 |              6 |
| [65535.44](#event-6553544) | 0x01DB       |     18 |              6 |
| [65535.45](#event-6553545) | 0x01ED       |     18 |              6 |
| [65535.46](#event-6553546) | 0x01FF       |     18 |              6 |
| [65535.47](#event-6553547) | 0x0211       |     18 |              6 |
| [65535.48](#event-6553548) | 0x0223       |     18 |              6 |
| [65535.49](#event-6553549) | 0x0235       |      5 |              2 |
| [65535.50](#event-6553550) | 0x023A       |      5 |              2 |
| [65535.51](#event-6553551) | 0x023F       |      5 |              2 |
| [65535.52](#event-6553552) | 0x0244       |      5 |              2 |
| [65535.53](#event-6553553) | 0x0249       |      5 |              2 |
| [65535.54](#event-6553554) | 0x024E       |      5 |              2 |
| [65535.55](#event-6553555) | 0x0253       |      5 |              2 |
| [65535.56](#event-6553556) | 0x0258       |     18 |              6 |
| [65535.57](#event-6553557) | 0x026A       |     18 |              6 |
| [65535.58](#event-6553558) | 0x027C       |     14 |              4 |
| [65535.59](#event-6553559) | 0x028A       |     30 |              6 |
| [65535.60](#event-6553560) | 0x02A8       |     15 |              5 |
| [65535.61](#event-6553561) | 0x02B7       |     30 |              6 |
| [65535.62](#event-6553562) | 0x02D5       |     25 |              7 |
| [65535.63](#event-6553563) | 0x02EE       |     15 |              5 |
| [65535.64](#event-6553564) | 0x02FD       |     15 |              5 |
| [65535.65](#event-6553565) | 0x030C       |     25 |              7 |
| [65535.66](#event-6553566) | 0x0325       |     28 |              8 |
| [65535.67](#event-6553567) | 0x0341       |     15 |              5 |
| [65535.68](#event-6553568) | 0x0350       |     15 |              5 |
| [65535.69](#event-6553569) | 0x035F       |      5 |              2 |
| [65535.70](#event-6553570) | 0x0364       |      5 |              2 |
| [65535.71](#event-6553571) | 0x0369       |      5 |              2 |
| [65535.72](#event-6553572) | 0x036E       |     15 |              5 |
| [65535.73](#event-6553573) | 0x037D       |     25 |              7 |
| [65535.74](#event-6553574) | 0x0396       |     25 |              7 |
| [65535.75](#event-6553575) | 0x03AF       |      5 |              2 |
| [65535.76](#event-6553576) | 0x03B4       |      4 |              2 |

## DAT References (imed_data)

|   Index | Hex Value   |   Dec Value |
|---------|-------------|-------------|
|       0 | 0x000D      |          13 |
|       1 | 0x3F451     |      259153 |
|       2 | 0xBFB6      |       49078 |
|       3 | 0xFFFFB35E  |  4294947678 |
|       4 | 0x40BB3     |      265139 |
|       5 | 0xDD60      |       56672 |
|       6 | 0xFFFFAE74  |  4294946420 |
|       7 | 0x0028      |          40 |
|       8 | 0x3E557     |      255319 |
|       9 | 0x86AD      |       34477 |
|      10 | 0xFFFFB1E0  |  4294947296 |
|      11 | 0x002B      |          43 |
|      12 | 0x3597E     |      219518 |
|      13 | 0x3915      |       14613 |
|      14 | 0xFFFF90E3  |  4294938851 |
|      15 | 0x0005      |           5 |
|      16 | 0x31EA4     |      204452 |
|      17 | 0x49FB      |       18939 |
|      18 | 0xFFFF929D  |  4294939293 |
|      19 | 0x000A      |          10 |
|      20 | 0x3F53C     |      259388 |
|      21 | 0xA1B2      |       41394 |
|      22 | 0xFFFFB5A9  |  4294948265 |
|      23 | 0x04FA      |        1274 |
|      24 | 0x02F3      |         755 |
|      25 | 0x043C      |        1084 |
|      26 | 0x08C3      |        2243 |
|      27 | 0x0007      |           7 |
|      28 | 0x0003      |           3 |
|      29 | 0x0000      |           0 |
|      30 | 0x005E      |          94 |
|      31 | 0x000E      |          14 |
|      32 | 0x006E      |         110 |
|      33 | 0x0317      |         791 |
|      34 | 0xFFFFCF94  |  4294954900 |
|      35 | 0xFFFECAF5  |  4294888181 |
|      36 | 0xFFFEF661  |  4294899297 |
|      37 | 0xFFFFCFBC  |  4294954940 |
|      38 | 0xFFFEC473  |  4294886515 |
|      39 | 0xFFF8DEBA  |  4294500026 |
|      40 | 0xC0BF      |       49343 |
|      41 | 0xFFFF8E45  |  4294938181 |
|      42 | 0x001E      |          30 |
|      43 | 0x024D      |         589 |
|      44 | 0x081C      |        2076 |
|      45 | 0x02E4      |         740 |
|      46 | 0x02EB      |         747 |
|      47 | 0x02F0      |         752 |
|      48 | 0x0108      |         264 |
|      49 | 0x0109      |         265 |
|      50 | 0x03C1      |         961 |
|      51 | 0x03C2      |         962 |
|      52 | 0x000B      |          11 |
|      53 | 0x2447F     |      148607 |
|      54 | 0xFFFFFAB5  |  4294965941 |
|      55 | 0xFFFF5590  |  4294923664 |
|      56 | 0x24F74     |      151412 |
|      57 | 0xFFFFEF8B  |  4294963083 |
|      58 | 0xFFFF54F2  |  4294923506 |
|      59 | 0x000F      |          15 |
|      60 | 0x25170     |      151920 |
|      61 | 0x107E      |        4222 |
|      62 | 0xFFFF54D8  |  4294923480 |
|      63 | 0x24311     |      148241 |
|      64 | 0xFFFFF313  |  4294963987 |
|      65 | 0xFFFF5593  |  4294923667 |
|      66 | 0x0014      |          20 |
|      67 | 0x000C      |          12 |
|      68 | 0x24E00     |      151040 |
|      69 | 0x0752      |        1874 |
|      70 | 0xFFFF5517  |  4294923543 |
|      71 | 0x0009      |           9 |
|      72 | 0x25510     |      152848 |
|      73 | 0xFFFFFA8C  |  4294965900 |
|      74 | 0xFFFF54BD  |  4294923453 |
|      75 | 0x26092     |      155794 |
|      76 | 0x0C95      |        3221 |
|      77 | 0xFFFF5420  |  4294923296 |
|      78 | 0x25B25     |      154405 |
|      79 | 0x1395      |        5013 |
|      80 | 0xFFFF5421  |  4294923297 |
|      81 | 0x08DB      |        2267 |
|      82 | 0x08D9      |        2265 |
|      83 | 0x08DC      |        2268 |
|      84 | 0x003C      |          60 |
|      85 | 0x0026      |          38 |
|      86 | 0xFFFF7066  |  4294930534 |
|      87 | 0x131F9     |       78329 |
|      88 | 0xFFFEF617  |  4294899223 |
|      89 | 0x0027      |          39 |
|      90 | 0xFFFF871B  |  4294936347 |
|      91 | 0x1351E     |       79134 |
|      92 | 0xFFFEF62A  |  4294899242 |
|      93 | 0x0025      |          37 |
|      94 | 0xFFFCDB40  |  4294761280 |
|      95 | 0xFFFF151C  |  4294907164 |
|      96 | 0xFFFE6830  |  4294862896 |
|      97 | 0x0012      |          18 |
|      98 | 0xFFFE92F8  |  4294873848 |
|      99 | 0xFFFF1D6A  |  4294909290 |
|     100 | 0xFFFEF567  |  4294899047 |
|     101 | 0x08B3      |        2227 |
|     102 | 0xFFFF0C47  |  4294904903 |
|     103 | 0xFFFF07DE  |  4294903774 |
|     104 | 0xFFFEF652  |  4294899282 |
|     105 | 0x0011      |          17 |
|     106 | 0xFFFEA4B6  |  4294878390 |
|     107 | 0xFFFF1D22  |  4294909218 |
|     108 | 0xFFFEF660  |  4294899296 |
|     109 | 0xFFFF02E7  |  4294902503 |
|     110 | 0xFFFF0C45  |  4294904901 |
|     111 | 0xFFFEF20A  |  4294898186 |
|     112 | 0xFFFF0FDF  |  4294905823 |
|     113 | 0x0013      |          19 |
|     114 | 0xFFFF0D33  |  4294905139 |
|     115 | 0xFFFF10B0  |  4294906032 |
|     116 | 0xFFFEF6A9  |  4294899369 |
|     117 | 0x0045      |          69 |
|     118 | 0xFFFEA142  |  4294877506 |
|     119 | 0xFFFF1FBE  |  4294909886 |
|     120 | 0xFFFEF58C  |  4294899084 |
|     121 | 0x0046      |          70 |
|     122 | 0xFFFE73C4  |  4294865860 |
|     123 | 0xFFFF18A1  |  4294908065 |
|     124 | 0xFFFEF08A  |  4294897802 |
|     125 | 0xFFFE97BA  |  4294875066 |
|     126 | 0xFFFF1E9E  |  4294909598 |
|     127 | 0x2047A     |      132218 |
|     128 | 0x0298      |         664 |
|     129 | 0xFFFF55B9  |  4294923705 |
|     130 | 0x1BDF0     |      114160 |
|     131 | 0x0173      |         371 |
|     132 | 0xFFFF5335  |  4294923061 |
|     133 | 0x1B7FF     |      112639 |
|     134 | 0xFFFFFE56  |  4294966870 |
|     135 | 0xFFFF5277  |  4294922871 |
|     136 | 0x17140     |       94528 |
|     137 | 0xFFFFCE3C  |  4294954556 |
|     138 | 0xFFFF37B8  |  4294916024 |
|     139 | 0x0034      |          52 |
|     140 | 0x0044      |          68 |
|     141 | 0xFFFE9CEB  |  4294876395 |
|     142 | 0xFFFF1E36  |  4294909494 |
|     143 | 0xFFFE6E21  |  4294864417 |
|     144 | 0xFFFF1A24  |  4294908452 |
|     145 | 0xFFFEF69F  |  4294899359 |
|     146 | 0xFFFE9CC4  |  4294876356 |
|     147 | 0xFFFF1DFD  |  4294909437 |
|     148 | 0xFFFE6DDD  |  4294864349 |
|     149 | 0xFFFF248C  |  4294911116 |
|     150 | 0xFFFEF69B  |  4294899355 |
|     151 | 0xFFFE9C75  |  4294876277 |
|     152 | 0xFFFF1E63  |  4294909539 |
|     153 | 0x08D8      |        2264 |
|     154 | 0x0001      |           1 |

## Events

### Event 65535

#### Metadata

| Field        | Value   |
|--------------|---------|
| Entrypoint   | 0x0000  |
| Data Size    | 1 bytes |
| Instructions | 1       |

```
      00 01 02 03 04 05 06 07  08 09 0A 0B 0C 0D 0E 0F
      -- -- -- -- -- -- -- --  -- -- -- -- -- -- -- --
0000: 00                                                .               
```

#### Opcodes

```
  0: 0x0000 [0x00] END_REQSTACK()
```

### Event 106

#### Metadata

| Field        | Value   |
|--------------|---------|
| Entrypoint   | 0x0001  |
| Data Size    | 1 bytes |
| Instructions | 1       |

```
      00 01 02 03 04 05 06 07  08 09 0A 0B 0C 0D 0E 0F
      -- -- -- -- -- -- -- --  -- -- -- -- -- -- -- --
0000:    00                                              .              
```

#### Opcodes

```
  0: 0x0001 [0x00] END_REQSTACK()
```

### Event 105

#### Metadata

| Field        | Value   |
|--------------|---------|
| Entrypoint   | 0x0002  |
| Data Size    | 1 bytes |
| Instructions | 1       |

```
      00 01 02 03 04 05 06 07  08 09 0A 0B 0C 0D 0E 0F
      -- -- -- -- -- -- -- --  -- -- -- -- -- -- -- --
0000:       00                                            .             
```

#### Opcodes

```
  0: 0x0002 [0x00] END_REQSTACK()
```

### Event 65535.1

#### Metadata

| Field        | Value    |
|--------------|----------|
| Entrypoint   | 0x0003   |
| Data Size    | 15 bytes |
| Instructions | 5        |

```
      00 01 02 03 04 05 06 07  08 09 0A 0B 0C 0D 0E 0F
      -- -- -- -- -- -- -- --  -- -- -- -- -- -- -- --
0000:          32 00 80 1F 00  01 80 02 80 03 80 1F 01     2............
0010: 6F 00                                             o.              
```

#### Opcodes

```
  0: 0x0003 [0x32] ExtData[1]->MainSpeed = 13* * 0.1
  1: 0x0006 [0x1F] MOVE_ENTITY: EventEntity moves to X=259.153*, Z=49.078*, Y=-19.618*
  2: 0x000E [0x1F] MOVE_ENTITY: Update entity position (mode=1)
  3: 0x0010 [0x6F] WAIT_FRAME_DELAY: Yield until WaitTime reaches zero
  4: 0x0011 [0x00] END_REQSTACK()
```

### Event 65535.2

#### Metadata

| Field        | Value    |
|--------------|----------|
| Entrypoint   | 0x0012   |
| Data Size    | 15 bytes |
| Instructions | 5        |

```
      00 01 02 03 04 05 06 07  08 09 0A 0B 0C 0D 0E 0F
      -- -- -- -- -- -- -- --  -- -- -- -- -- -- -- --
0010:       32 00 80 1F 00 04  80 05 80 06 80 1F 01 6F    2............o
0020: 00                                                .               
```

#### Opcodes

```
  0: 0x0012 [0x32] ExtData[1]->MainSpeed = 13* * 0.1
  1: 0x0015 [0x1F] MOVE_ENTITY: EventEntity moves to X=265.139*, Z=56.672*, Y=-20.876*
  2: 0x001D [0x1F] MOVE_ENTITY: Update entity position (mode=1)
  3: 0x001F [0x6F] WAIT_FRAME_DELAY: Yield until WaitTime reaches zero
  4: 0x0020 [0x00] END_REQSTACK()
```

### Event 65535.3

#### Metadata

| Field        | Value    |
|--------------|----------|
| Entrypoint   | 0x0021   |
| Data Size    | 15 bytes |
| Instructions | 5        |

```
      00 01 02 03 04 05 06 07  08 09 0A 0B 0C 0D 0E 0F
      -- -- -- -- -- -- -- --  -- -- -- -- -- -- -- --
0020:    32 07 80 1F 00 08 80  09 80 0A 80 1F 01 6F 00   2............o.
```

#### Opcodes

```
  0: 0x0021 [0x32] ExtData[1]->MainSpeed = 40* * 0.1
  1: 0x0024 [0x1F] MOVE_ENTITY: EventEntity moves to X=255.319*, Z=34.477*, Y=-20.000*
  2: 0x002C [0x1F] MOVE_ENTITY: Update entity position (mode=1)
  3: 0x002E [0x6F] WAIT_FRAME_DELAY: Yield until WaitTime reaches zero
  4: 0x002F [0x00] END_REQSTACK()
```

### Event 65535.4

#### Metadata

| Field        | Value    |
|--------------|----------|
| Entrypoint   | 0x0030   |
| Data Size    | 31 bytes |
| Instructions | 7        |

```
      00 01 02 03 04 05 06 07  08 09 0A 0B 0C 0D 0E 0F
      -- -- -- -- -- -- -- --  -- -- -- -- -- -- -- --
0030: 32 0B 80 1F 00 0C 80 0D  80 0E 80 1F 01 6F 1C 0F  2............o..
0040: 80 2C EA 02 06 01 EA 02  06 01 64 65 61 64 00     .,........dead. 
```

#### Opcodes

```
  0: 0x0030 [0x32] ExtData[1]->MainSpeed = 43* * 0.1
  1: 0x0033 [0x1F] MOVE_ENTITY: EventEntity moves to X=219.518*, Z=14.613*, Y=-28.445*
  2: 0x003B [0x1F] MOVE_ENTITY: Update entity position (mode=1)
  3: 0x003D [0x6F] WAIT_FRAME_DELAY: Yield until WaitTime reaches zero
  4: 0x003E [0x1C] WAIT(5* ticks)
  5: 0x0041 [0x2C] CREATE_SCHEDULER_TASK: Create scheduler "dead" with entities [10 (ID: 17171178/0x010602EA), 10 (ID: 17171178/0x010602EA)]
  6: 0x004E [0x00] END_REQSTACK()
```

### Event 65535.5

#### Metadata

| Field        | Value    |
|--------------|----------|
| Entrypoint   | 0x004F   |
| Data Size    | 31 bytes |
| Instructions | 7        |

```
      00 01 02 03 04 05 06 07  08 09 0A 0B 0C 0D 0E 0F
      -- -- -- -- -- -- -- --  -- -- -- -- -- -- -- --
0040:                                               32                 2
0050: 07 80 1F 00 10 80 11 80  12 80 1F 01 6F 1C 13 80  ............o...
0060: 2C F8 FF FF 7F F8 FF FF  7F 64 65 61 64 00        ,........dead.  
```

#### Opcodes

```
  0: 0x004F [0x32] ExtData[1]->MainSpeed = 40* * 0.1
  1: 0x0052 [0x1F] MOVE_ENTITY: EventEntity moves to X=204.452*, Z=18.939*, Y=-28.003*
  2: 0x005A [0x1F] MOVE_ENTITY: Update entity position (mode=1)
  3: 0x005C [0x6F] WAIT_FRAME_DELAY: Yield until WaitTime reaches zero
  4: 0x005D [0x1C] WAIT(10* ticks)
  5: 0x0060 [0x2C] CREATE_SCHEDULER_TASK: Create scheduler "dead" with entities [EventEntity, EventEntity]
  6: 0x006D [0x00] END_REQSTACK()
```

### Event 65535.6

#### Metadata

| Field        | Value    |
|--------------|----------|
| Entrypoint   | 0x006E   |
| Data Size    | 14 bytes |
| Instructions | 2        |

```
      00 01 02 03 04 05 06 07  08 09 0A 0B 0C 0D 0E 0F
      -- -- -- -- -- -- -- --  -- -- -- -- -- -- -- --
0060:                                            BA EA                ..
0070: 02 06 01 14 80 15 80 16  80 17 80 00              ............    
```

#### Opcodes

```
  0: 0x006E [0xBA] SET_ENTITY_POSITION(entity_id=10 (ID: 17171178/0x010602EA), pos_x=259.388*, pos_z=41.394*, pos_y=-19.031*, direction=112.0°*)
  1: 0x007B [0x00] END_REQSTACK()
```

### Event 111

#### Metadata

| Field        | Value   |
|--------------|---------|
| Entrypoint   | 0x007C  |
| Data Size    | 1 bytes |
| Instructions | 1       |

```
      00 01 02 03 04 05 06 07  08 09 0A 0B 0C 0D 0E 0F
      -- -- -- -- -- -- -- --  -- -- -- -- -- -- -- --
0070:                                      00                       .   
```

#### Opcodes

```
  0: 0x007C [0x00] END_REQSTACK()
```

### Event 112

#### Metadata

| Field        | Value   |
|--------------|---------|
| Entrypoint   | 0x007D  |
| Data Size    | 1 bytes |
| Instructions | 1       |

```
      00 01 02 03 04 05 06 07  08 09 0A 0B 0C 0D 0E 0F
      -- -- -- -- -- -- -- --  -- -- -- -- -- -- -- --
0070:                                         00                     .  
```

#### Opcodes

```
  0: 0x007D [0x00] END_REQSTACK()
```

### Event 113

#### Metadata

| Field        | Value   |
|--------------|---------|
| Entrypoint   | 0x007E  |
| Data Size    | 1 bytes |
| Instructions | 1       |

```
      00 01 02 03 04 05 06 07  08 09 0A 0B 0C 0D 0E 0F
      -- -- -- -- -- -- -- --  -- -- -- -- -- -- -- --
0070:                                            00                   . 
```

#### Opcodes

```
  0: 0x007E [0x00] END_REQSTACK()
```

### Event 65535.7

#### Metadata

| Field        | Value   |
|--------------|---------|
| Entrypoint   | 0x007F  |
| Data Size    | 5 bytes |
| Instructions | 2       |

```
      00 01 02 03 04 05 06 07  08 09 0A 0B 0C 0D 0E 0F
      -- -- -- -- -- -- -- --  -- -- -- -- -- -- -- --
0070:                                               B6                 .
0080: 00 18 80 00                                       ....            
```

#### Opcodes

```
  0: 0x007F [0xB6] ENTITY_APPEARANCE_HANDLER(case=Hair style, value=755*)
  1: 0x0083 [0x00] END_REQSTACK()
```

### Event 65535.8

#### Metadata

| Field        | Value   |
|--------------|---------|
| Entrypoint   | 0x0084  |
| Data Size    | 5 bytes |
| Instructions | 2       |

```
      00 01 02 03 04 05 06 07  08 09 0A 0B 0C 0D 0E 0F
      -- -- -- -- -- -- -- --  -- -- -- -- -- -- -- --
0080:             B6 00 19 80  00                           .....       
```

#### Opcodes

```
  0: 0x0084 [0xB6] ENTITY_APPEARANCE_HANDLER(case=Hair style, value=1084*)
  1: 0x0088 [0x00] END_REQSTACK()
```

### Event 65535.9

#### Metadata

| Field        | Value   |
|--------------|---------|
| Entrypoint   | 0x0089  |
| Data Size    | 5 bytes |
| Instructions | 2       |

```
      00 01 02 03 04 05 06 07  08 09 0A 0B 0C 0D 0E 0F
      -- -- -- -- -- -- -- --  -- -- -- -- -- -- -- --
0080:                             B6 00 1A 80 00                 .....  
```

#### Opcodes

```
  0: 0x0089 [0xB6] ENTITY_APPEARANCE_HANDLER(case=Hair style, value=2243*)
  1: 0x008D [0x00] END_REQSTACK()
```

### Event 65535.10

#### Metadata

| Field        | Value    |
|--------------|----------|
| Entrypoint   | 0x008E   |
| Data Size    | 21 bytes |
| Instructions | 2        |

```
      00 01 02 03 04 05 06 07  08 09 0A 0B 0C 0D 0E 0F
      -- -- -- -- -- -- -- --  -- -- -- -- -- -- -- --
0080:                                            B6 0B                ..
0090: 1B 80 1C 80 1D 80 1E 80  1E 80 1F 80 1F 80 1D 80  ................
00A0: 1D 80 00                                          ...             
```

#### Opcodes

```
  0: 0x008E [0xB6] ENTITY_APPEARANCE_HANDLER(case=Full entity look, race=7*, hair=3*, head=0*, body=94*, hands=94*, legs=14*, feet=14*, main=0*, sub=0*)
  1: 0x00A2 [0x00] END_REQSTACK()
```

### Event 65535.11

#### Metadata

| Field        | Value    |
|--------------|----------|
| Entrypoint   | 0x00A3   |
| Data Size    | 21 bytes |
| Instructions | 2        |

```
      00 01 02 03 04 05 06 07  08 09 0A 0B 0C 0D 0E 0F
      -- -- -- -- -- -- -- --  -- -- -- -- -- -- -- --
00A0:          B6 0B 1B 80 1C  80 1D 80 1E 80 1E 80 1F     .............
00B0: 80 1F 80 20 80 1D 80 00                           ... ....        
```

#### Opcodes

```
  0: 0x00A3 [0xB6] ENTITY_APPEARANCE_HANDLER(case=Full entity look, race=7*, hair=3*, head=0*, body=94*, hands=94*, legs=14*, feet=14*, main=110*, sub=0*)
  1: 0x00B7 [0x00] END_REQSTACK()
```

### Event 65535.12

#### Metadata

| Field        | Value   |
|--------------|---------|
| Entrypoint   | 0x00B8  |
| Data Size    | 5 bytes |
| Instructions | 2       |

```
      00 01 02 03 04 05 06 07  08 09 0A 0B 0C 0D 0E 0F
      -- -- -- -- -- -- -- --  -- -- -- -- -- -- -- --
00B0:                          B6 00 21 80 00                   ..!..   
```

#### Opcodes

```
  0: 0x00B8 [0xB6] ENTITY_APPEARANCE_HANDLER(case=Hair style, value=791*)
  1: 0x00BC [0x00] END_REQSTACK()
```

### Event 65535.13

#### Metadata

| Field        | Value    |
|--------------|----------|
| Entrypoint   | 0x00BD   |
| Data Size    | 25 bytes |
| Instructions | 3        |

```
      00 01 02 03 04 05 06 07  08 09 0A 0B 0C 0D 0E 0F
      -- -- -- -- -- -- -- --  -- -- -- -- -- -- -- --
00B0:                                         B4 00 00               ...
00C0: 00 3F 3F 3F 00 00 00 00  00 00 00 00 00 00 00 00  .???............
00D0: 00 B5 00 00 00 00                                 ......          
```

#### Opcodes

```
  0: 0x00BD [0xB4] UI_WINDOW_STRING_HANDLER(case=0x00 - Copy string from opcode, work_offset=ExtData[1]->WorkLocal[0], string="???")
  1: 0x00D1 [0xB5] SET_EVENT_ENTITY_NAME: Change EventEntity name to ExtData[1]->WorkLocal[0]
  2: 0x00D5 [0x00] END_REQSTACK()
```

### Event 65535.14

#### Metadata

| Field        | Value    |
|--------------|----------|
| Entrypoint   | 0x00D6   |
| Data Size    | 25 bytes |
| Instructions | 3        |

```
      00 01 02 03 04 05 06 07  08 09 0A 0B 0C 0D 0E 0F
      -- -- -- -- -- -- -- --  -- -- -- -- -- -- -- --
00D0:                   B4 00  00 00 52 6F 62 65 6C 2D        ....Robel-
00E0: 41 6B 62 65 6C 00 00 00  00 00 B5 00 00 00 00     Akbel.......... 
```

#### Opcodes

```
  0: 0x00D6 [0xB4] UI_WINDOW_STRING_HANDLER(case=0x00 - Copy string from opcode, work_offset=ExtData[1]->WorkLocal[0], string="Robel-Akbel")
  1: 0x00EA [0xB5] SET_EVENT_ENTITY_NAME: Change EventEntity name to ExtData[1]->WorkLocal[0]
  2: 0x00EE [0x00] END_REQSTACK()
```

### Event 65535.15

#### Metadata

| Field        | Value    |
|--------------|----------|
| Entrypoint   | 0x00EF   |
| Data Size    | 25 bytes |
| Instructions | 3        |

```
      00 01 02 03 04 05 06 07  08 09 0A 0B 0C 0D 0E 0F
      -- -- -- -- -- -- -- --  -- -- -- -- -- -- -- --
00E0:                                               B4                 .
00F0: 00 00 00 30 32 00 00 00  00 00 00 00 00 00 00 00  ...02...........
0100: 00 00 00 B5 00 00 00 00                           ........        
```

#### Opcodes

```
  0: 0x00EF [0xB4] UI_WINDOW_STRING_HANDLER(case=0x00 - Copy string from opcode, work_offset=ExtData[1]->WorkLocal[0], string="02")
  1: 0x0103 [0xB5] SET_EVENT_ENTITY_NAME: Change EventEntity name to ExtData[1]->WorkLocal[0]
  2: 0x0107 [0x00] END_REQSTACK()
```

### Event 65535.16

#### Metadata

| Field        | Value    |
|--------------|----------|
| Entrypoint   | 0x0108   |
| Data Size    | 14 bytes |
| Instructions | 4        |

```
      00 01 02 03 04 05 06 07  08 09 0A 0B 0C 0D 0E 0F
      -- -- -- -- -- -- -- --  -- -- -- -- -- -- -- --
0100:                          32 00 80 1F 00 22 80 23          2....".#
0110: 80 24 80 1F 01 00                                 .$....          
```

#### Opcodes

```
  0: 0x0108 [0x32] ExtData[1]->MainSpeed = 13* * 0.1
  1: 0x010B [0x1F] MOVE_ENTITY: EventEntity moves to X=-12.396*, Z=-79.115*, Y=-67.999*
  2: 0x0113 [0x1F] MOVE_ENTITY: Update entity position (mode=1)
  3: 0x0115 [0x00] END_REQSTACK()
```

### Event 65535.17

#### Metadata

| Field        | Value    |
|--------------|----------|
| Entrypoint   | 0x0116   |
| Data Size    | 14 bytes |
| Instructions | 4        |

```
      00 01 02 03 04 05 06 07  08 09 0A 0B 0C 0D 0E 0F
      -- -- -- -- -- -- -- --  -- -- -- -- -- -- -- --
0110:                   32 00  80 1F 00 25 80 26 80 24        2....%.&.$
0120: 80 1F 01 00                                       ....            
```

#### Opcodes

```
  0: 0x0116 [0x32] ExtData[1]->MainSpeed = 13* * 0.1
  1: 0x0119 [0x1F] MOVE_ENTITY: EventEntity moves to X=-12.356*, Z=-80.781*, Y=-67.999*
  2: 0x0121 [0x1F] MOVE_ENTITY: Update entity position (mode=1)
  3: 0x0123 [0x00] END_REQSTACK()
```

### Event 65535.18

#### Metadata

| Field        | Value    |
|--------------|----------|
| Entrypoint   | 0x0124   |
| Data Size    | 22 bytes |
| Instructions | 6        |

```
      00 01 02 03 04 05 06 07  08 09 0A 0B 0C 0D 0E 0F
      -- -- -- -- -- -- -- --  -- -- -- -- -- -- -- --
0120:             32 00 80 5A  00 27 80 28 80 29 80 5A      2..Z.'.(.).Z
0130: 01 1E F0 FF FF 7F 1C 2A  80 00                    .......*..      
```

#### Opcodes

```
  0: 0x0124 [0x32] ExtData[1]->MainSpeed = 13* * 0.1
  1: 0x0127 [0x5A] UPDATE_EVENT_POSITION: Set EventEntity MovePosition to X=-467.270*, Z=49.343*, Y=-29.115*
  2: 0x012F [0x5A] UPDATE_EVENT_POSITION: Move EventEntity incrementally towards MovePosition
  3: 0x0131 [0x1E] EventEntity looks at LocalPlayer and starts talking
  4: 0x0136 [0x1C] WAIT(30* ticks)
  5: 0x0139 [0x00] END_REQSTACK()
```

### Event 65535.19

#### Metadata

| Field        | Value   |
|--------------|---------|
| Entrypoint   | 0x013A  |
| Data Size    | 5 bytes |
| Instructions | 2       |

```
      00 01 02 03 04 05 06 07  08 09 0A 0B 0C 0D 0E 0F
      -- -- -- -- -- -- -- --  -- -- -- -- -- -- -- --
0130:                                B6 00 2B 80 00               ..+.. 
```

#### Opcodes

```
  0: 0x013A [0xB6] ENTITY_APPEARANCE_HANDLER(case=Hair style, value=589*)
  1: 0x013E [0x00] END_REQSTACK()
```

### Event 65535.20

#### Metadata

| Field        | Value   |
|--------------|---------|
| Entrypoint   | 0x013F  |
| Data Size    | 5 bytes |
| Instructions | 2       |

```
      00 01 02 03 04 05 06 07  08 09 0A 0B 0C 0D 0E 0F
      -- -- -- -- -- -- -- --  -- -- -- -- -- -- -- --
0130:                                               B6                 .
0140: 00 19 80 00                                       ....            
```

#### Opcodes

```
  0: 0x013F [0xB6] ENTITY_APPEARANCE_HANDLER(case=Hair style, value=1084*)
  1: 0x0143 [0x00] END_REQSTACK()
```

### Event 65535.21

#### Metadata

| Field        | Value   |
|--------------|---------|
| Entrypoint   | 0x0144  |
| Data Size    | 5 bytes |
| Instructions | 2       |

```
      00 01 02 03 04 05 06 07  08 09 0A 0B 0C 0D 0E 0F
      -- -- -- -- -- -- -- --  -- -- -- -- -- -- -- --
0140:             B6 00 19 80  00                           .....       
```

#### Opcodes

```
  0: 0x0144 [0xB6] ENTITY_APPEARANCE_HANDLER(case=Hair style, value=1084*)
  1: 0x0148 [0x00] END_REQSTACK()
```

### Event 65535.22

#### Metadata

| Field        | Value   |
|--------------|---------|
| Entrypoint   | 0x0149  |
| Data Size    | 5 bytes |
| Instructions | 2       |

```
      00 01 02 03 04 05 06 07  08 09 0A 0B 0C 0D 0E 0F
      -- -- -- -- -- -- -- --  -- -- -- -- -- -- -- --
0140:                             B6 00 2C 80 00                 ..,..  
```

#### Opcodes

```
  0: 0x0149 [0xB6] ENTITY_APPEARANCE_HANDLER(case=Hair style, value=2076*)
  1: 0x014D [0x00] END_REQSTACK()
```

### Event 65535.23

#### Metadata

| Field        | Value   |
|--------------|---------|
| Entrypoint   | 0x014E  |
| Data Size    | 5 bytes |
| Instructions | 2       |

```
      00 01 02 03 04 05 06 07  08 09 0A 0B 0C 0D 0E 0F
      -- -- -- -- -- -- -- --  -- -- -- -- -- -- -- --
0140:                                            B6 00                ..
0150: 2C 80 00                                          ,..             
```

#### Opcodes

```
  0: 0x014E [0xB6] ENTITY_APPEARANCE_HANDLER(case=Hair style, value=2076*)
  1: 0x0152 [0x00] END_REQSTACK()
```

### Event 65535.24

#### Metadata

| Field        | Value   |
|--------------|---------|
| Entrypoint   | 0x0153  |
| Data Size    | 5 bytes |
| Instructions | 2       |

```
      00 01 02 03 04 05 06 07  08 09 0A 0B 0C 0D 0E 0F
      -- -- -- -- -- -- -- --  -- -- -- -- -- -- -- --
0150:          B6 00 2C 80 00                              ..,..        
```

#### Opcodes

```
  0: 0x0153 [0xB6] ENTITY_APPEARANCE_HANDLER(case=Hair style, value=2076*)
  1: 0x0157 [0x00] END_REQSTACK()
```

### Event 65535.25

#### Metadata

| Field        | Value   |
|--------------|---------|
| Entrypoint   | 0x0158  |
| Data Size    | 5 bytes |
| Instructions | 2       |

```
      00 01 02 03 04 05 06 07  08 09 0A 0B 0C 0D 0E 0F
      -- -- -- -- -- -- -- --  -- -- -- -- -- -- -- --
0150:                          B6 00 2C 80 00                   ..,..   
```

#### Opcodes

```
  0: 0x0158 [0xB6] ENTITY_APPEARANCE_HANDLER(case=Hair style, value=2076*)
  1: 0x015C [0x00] END_REQSTACK()
```

### Event 65535.26

#### Metadata

| Field        | Value   |
|--------------|---------|
| Entrypoint   | 0x015D  |
| Data Size    | 5 bytes |
| Instructions | 2       |

```
      00 01 02 03 04 05 06 07  08 09 0A 0B 0C 0D 0E 0F
      -- -- -- -- -- -- -- --  -- -- -- -- -- -- -- --
0150:                                         B6 00 2C               ..,
0160: 80 00                                             ..              
```

#### Opcodes

```
  0: 0x015D [0xB6] ENTITY_APPEARANCE_HANDLER(case=Hair style, value=2076*)
  1: 0x0161 [0x00] END_REQSTACK()
```

### Event 65535.27

#### Metadata

| Field        | Value   |
|--------------|---------|
| Entrypoint   | 0x0162  |
| Data Size    | 5 bytes |
| Instructions | 2       |

```
      00 01 02 03 04 05 06 07  08 09 0A 0B 0C 0D 0E 0F
      -- -- -- -- -- -- -- --  -- -- -- -- -- -- -- --
0160:       B6 00 2D 80 00                                ..-..         
```

#### Opcodes

```
  0: 0x0162 [0xB6] ENTITY_APPEARANCE_HANDLER(case=Hair style, value=740*)
  1: 0x0166 [0x00] END_REQSTACK()
```

### Event 65535.28

#### Metadata

| Field        | Value   |
|--------------|---------|
| Entrypoint   | 0x0167  |
| Data Size    | 5 bytes |
| Instructions | 2       |

```
      00 01 02 03 04 05 06 07  08 09 0A 0B 0C 0D 0E 0F
      -- -- -- -- -- -- -- --  -- -- -- -- -- -- -- --
0160:                      B6  00 2E 80 00                     .....    
```

#### Opcodes

```
  0: 0x0167 [0xB6] ENTITY_APPEARANCE_HANDLER(case=Hair style, value=747*)
  1: 0x016B [0x00] END_REQSTACK()
```

### Event 65535.29

#### Metadata

| Field        | Value   |
|--------------|---------|
| Entrypoint   | 0x016C  |
| Data Size    | 5 bytes |
| Instructions | 2       |

```
      00 01 02 03 04 05 06 07  08 09 0A 0B 0C 0D 0E 0F
      -- -- -- -- -- -- -- --  -- -- -- -- -- -- -- --
0160:                                      B6 00 18 80              ....
0170: 00                                                .               
```

#### Opcodes

```
  0: 0x016C [0xB6] ENTITY_APPEARANCE_HANDLER(case=Hair style, value=755*)
  1: 0x0170 [0x00] END_REQSTACK()
```

### Event 65535.30

#### Metadata

| Field        | Value   |
|--------------|---------|
| Entrypoint   | 0x0171  |
| Data Size    | 5 bytes |
| Instructions | 2       |

```
      00 01 02 03 04 05 06 07  08 09 0A 0B 0C 0D 0E 0F
      -- -- -- -- -- -- -- --  -- -- -- -- -- -- -- --
0170:    B6 00 2F 80 00                                  ../..          
```

#### Opcodes

```
  0: 0x0171 [0xB6] ENTITY_APPEARANCE_HANDLER(case=Hair style, value=752*)
  1: 0x0175 [0x00] END_REQSTACK()
```

### Event 65535.31

#### Metadata

| Field        | Value   |
|--------------|---------|
| Entrypoint   | 0x0176  |
| Data Size    | 5 bytes |
| Instructions | 2       |

```
      00 01 02 03 04 05 06 07  08 09 0A 0B 0C 0D 0E 0F
      -- -- -- -- -- -- -- --  -- -- -- -- -- -- -- --
0170:                   B6 00  2D 80 00                       ..-..     
```

#### Opcodes

```
  0: 0x0176 [0xB6] ENTITY_APPEARANCE_HANDLER(case=Hair style, value=740*)
  1: 0x017A [0x00] END_REQSTACK()
```

### Event 65535.32

#### Metadata

| Field        | Value   |
|--------------|---------|
| Entrypoint   | 0x017B  |
| Data Size    | 5 bytes |
| Instructions | 2       |

```
      00 01 02 03 04 05 06 07  08 09 0A 0B 0C 0D 0E 0F
      -- -- -- -- -- -- -- --  -- -- -- -- -- -- -- --
0170:                                   B6 00 2E 80 00             .....
```

#### Opcodes

```
  0: 0x017B [0xB6] ENTITY_APPEARANCE_HANDLER(case=Hair style, value=747*)
  1: 0x017F [0x00] END_REQSTACK()
```

### Event 65535.33

#### Metadata

| Field        | Value   |
|--------------|---------|
| Entrypoint   | 0x0180  |
| Data Size    | 5 bytes |
| Instructions | 2       |

```
      00 01 02 03 04 05 06 07  08 09 0A 0B 0C 0D 0E 0F
      -- -- -- -- -- -- -- --  -- -- -- -- -- -- -- --
0180: B6 00 18 80 00                                    .....           
```

#### Opcodes

```
  0: 0x0180 [0xB6] ENTITY_APPEARANCE_HANDLER(case=Hair style, value=755*)
  1: 0x0184 [0x00] END_REQSTACK()
```

### Event 65535.34

#### Metadata

| Field        | Value   |
|--------------|---------|
| Entrypoint   | 0x0185  |
| Data Size    | 5 bytes |
| Instructions | 2       |

```
      00 01 02 03 04 05 06 07  08 09 0A 0B 0C 0D 0E 0F
      -- -- -- -- -- -- -- --  -- -- -- -- -- -- -- --
0180:                B6 00 2D  80 00                         ..-..      
```

#### Opcodes

```
  0: 0x0185 [0xB6] ENTITY_APPEARANCE_HANDLER(case=Hair style, value=740*)
  1: 0x0189 [0x00] END_REQSTACK()
```

### Event 65535.35

#### Metadata

| Field        | Value   |
|--------------|---------|
| Entrypoint   | 0x018A  |
| Data Size    | 5 bytes |
| Instructions | 2       |

```
      00 01 02 03 04 05 06 07  08 09 0A 0B 0C 0D 0E 0F
      -- -- -- -- -- -- -- --  -- -- -- -- -- -- -- --
0180:                                B6 00 30 80 00               ..0.. 
```

#### Opcodes

```
  0: 0x018A [0xB6] ENTITY_APPEARANCE_HANDLER(case=Hair style, value=264*)
  1: 0x018E [0x00] END_REQSTACK()
```

### Event 65535.36

#### Metadata

| Field        | Value   |
|--------------|---------|
| Entrypoint   | 0x018F  |
| Data Size    | 5 bytes |
| Instructions | 2       |

```
      00 01 02 03 04 05 06 07  08 09 0A 0B 0C 0D 0E 0F
      -- -- -- -- -- -- -- --  -- -- -- -- -- -- -- --
0180:                                               B6                 .
0190: 00 30 80 00                                       .0..            
```

#### Opcodes

```
  0: 0x018F [0xB6] ENTITY_APPEARANCE_HANDLER(case=Hair style, value=264*)
  1: 0x0193 [0x00] END_REQSTACK()
```

### Event 65535.37

#### Metadata

| Field        | Value   |
|--------------|---------|
| Entrypoint   | 0x0194  |
| Data Size    | 5 bytes |
| Instructions | 2       |

```
      00 01 02 03 04 05 06 07  08 09 0A 0B 0C 0D 0E 0F
      -- -- -- -- -- -- -- --  -- -- -- -- -- -- -- --
0190:             B6 00 31 80  00                           ..1..       
```

#### Opcodes

```
  0: 0x0194 [0xB6] ENTITY_APPEARANCE_HANDLER(case=Hair style, value=265*)
  1: 0x0198 [0x00] END_REQSTACK()
```

### Event 65535.38

#### Metadata

| Field        | Value   |
|--------------|---------|
| Entrypoint   | 0x0199  |
| Data Size    | 5 bytes |
| Instructions | 2       |

```
      00 01 02 03 04 05 06 07  08 09 0A 0B 0C 0D 0E 0F
      -- -- -- -- -- -- -- --  -- -- -- -- -- -- -- --
0190:                             B6 00 31 80 00                 ..1..  
```

#### Opcodes

```
  0: 0x0199 [0xB6] ENTITY_APPEARANCE_HANDLER(case=Hair style, value=265*)
  1: 0x019D [0x00] END_REQSTACK()
```

### Event 65535.39

#### Metadata

| Field        | Value   |
|--------------|---------|
| Entrypoint   | 0x019E  |
| Data Size    | 5 bytes |
| Instructions | 2       |

```
      00 01 02 03 04 05 06 07  08 09 0A 0B 0C 0D 0E 0F
      -- -- -- -- -- -- -- --  -- -- -- -- -- -- -- --
0190:                                            B6 00                ..
01A0: 32 80 00                                          2..             
```

#### Opcodes

```
  0: 0x019E [0xB6] ENTITY_APPEARANCE_HANDLER(case=Hair style, value=961*)
  1: 0x01A2 [0x00] END_REQSTACK()
```

### Event 65535.40

#### Metadata

| Field        | Value   |
|--------------|---------|
| Entrypoint   | 0x01A3  |
| Data Size    | 5 bytes |
| Instructions | 2       |

```
      00 01 02 03 04 05 06 07  08 09 0A 0B 0C 0D 0E 0F
      -- -- -- -- -- -- -- --  -- -- -- -- -- -- -- --
01A0:          B6 00 33 80 00                              ..3..        
```

#### Opcodes

```
  0: 0x01A3 [0xB6] ENTITY_APPEARANCE_HANDLER(case=Hair style, value=962*)
  1: 0x01A7 [0x00] END_REQSTACK()
```

### Event 65535.41

#### Metadata

| Field        | Value    |
|--------------|----------|
| Entrypoint   | 0x01A8   |
| Data Size    | 18 bytes |
| Instructions | 6        |

```
      00 01 02 03 04 05 06 07  08 09 0A 0B 0C 0D 0E 0F
      -- -- -- -- -- -- -- --  -- -- -- -- -- -- -- --
01A0:                          1C 2A 80 32 34 80 1F 00          .*.24...
01B0: 35 80 36 80 37 80 1F 01  6F 00                    5.6.7...o.      
```

#### Opcodes

```
  0: 0x01A8 [0x1C] WAIT(30* ticks)
  1: 0x01AB [0x32] ExtData[1]->MainSpeed = 11* * 0.1
  2: 0x01AE [0x1F] MOVE_ENTITY: EventEntity moves to X=148.607*, Z=-1.355*, Y=-43.632*
  3: 0x01B6 [0x1F] MOVE_ENTITY: Update entity position (mode=1)
  4: 0x01B8 [0x6F] WAIT_FRAME_DELAY: Yield until WaitTime reaches zero
  5: 0x01B9 [0x00] END_REQSTACK()
```

### Event 65535.42

#### Metadata

| Field        | Value    |
|--------------|----------|
| Entrypoint   | 0x01BA   |
| Data Size    | 15 bytes |
| Instructions | 5        |

```
      00 01 02 03 04 05 06 07  08 09 0A 0B 0C 0D 0E 0F
      -- -- -- -- -- -- -- --  -- -- -- -- -- -- -- --
01B0:                                32 13 80 1F 00 38            2....8
01C0: 80 39 80 3A 80 1F 01 6F  00                       .9.:...o.       
```

#### Opcodes

```
  0: 0x01BA [0x32] ExtData[1]->MainSpeed = 10* * 0.1
  1: 0x01BD [0x1F] MOVE_ENTITY: EventEntity moves to X=151.412*, Z=-4.213*, Y=-43.790*
  2: 0x01C5 [0x1F] MOVE_ENTITY: Update entity position (mode=1)
  3: 0x01C7 [0x6F] WAIT_FRAME_DELAY: Yield until WaitTime reaches zero
  4: 0x01C8 [0x00] END_REQSTACK()
```

### Event 65535.43

#### Metadata

| Field        | Value    |
|--------------|----------|
| Entrypoint   | 0x01C9   |
| Data Size    | 18 bytes |
| Instructions | 6        |

```
      00 01 02 03 04 05 06 07  08 09 0A 0B 0C 0D 0E 0F
      -- -- -- -- -- -- -- --  -- -- -- -- -- -- -- --
01C0:                             1C 3B 80 32 34 80 1F           .;.24..
01D0: 00 3C 80 3D 80 3E 80 1F  01 6F 00                 .<.=.>...o.     
```

#### Opcodes

```
  0: 0x01C9 [0x1C] WAIT(15* ticks)
  1: 0x01CC [0x32] ExtData[1]->MainSpeed = 11* * 0.1
  2: 0x01CF [0x1F] MOVE_ENTITY: EventEntity moves to X=151.920*, Z=4.222*, Y=-43.816*
  3: 0x01D7 [0x1F] MOVE_ENTITY: Update entity position (mode=1)
  4: 0x01D9 [0x6F] WAIT_FRAME_DELAY: Yield until WaitTime reaches zero
  5: 0x01DA [0x00] END_REQSTACK()
```

### Event 65535.44

#### Metadata

| Field        | Value    |
|--------------|----------|
| Entrypoint   | 0x01DB   |
| Data Size    | 18 bytes |
| Instructions | 6        |

```
      00 01 02 03 04 05 06 07  08 09 0A 0B 0C 0D 0E 0F
      -- -- -- -- -- -- -- --  -- -- -- -- -- -- -- --
01D0:                                   1C 0F 80 32 00             ...2.
01E0: 80 1F 00 3F 80 40 80 41  80 1F 01 6F 00           ...?.@.A...o.   
```

#### Opcodes

```
  0: 0x01DB [0x1C] WAIT(5* ticks)
  1: 0x01DE [0x32] ExtData[1]->MainSpeed = 13* * 0.1
  2: 0x01E1 [0x1F] MOVE_ENTITY: EventEntity moves to X=148.241*, Z=-3.309*, Y=-43.629*
  3: 0x01E9 [0x1F] MOVE_ENTITY: Update entity position (mode=1)
  4: 0x01EB [0x6F] WAIT_FRAME_DELAY: Yield until WaitTime reaches zero
  5: 0x01EC [0x00] END_REQSTACK()
```

### Event 65535.45

#### Metadata

| Field        | Value    |
|--------------|----------|
| Entrypoint   | 0x01ED   |
| Data Size    | 18 bytes |
| Instructions | 6        |

```
      00 01 02 03 04 05 06 07  08 09 0A 0B 0C 0D 0E 0F
      -- -- -- -- -- -- -- --  -- -- -- -- -- -- -- --
01E0:                                         1C 42 80               .B.
01F0: 32 43 80 1F 00 44 80 45  80 46 80 1F 01 6F 00     2C...D.E.F...o. 
```

#### Opcodes

```
  0: 0x01ED [0x1C] WAIT(20* ticks)
  1: 0x01F0 [0x32] ExtData[1]->MainSpeed = 12* * 0.1
  2: 0x01F3 [0x1F] MOVE_ENTITY: EventEntity moves to X=151.040*, Z=1.874*, Y=-43.753*
  3: 0x01FB [0x1F] MOVE_ENTITY: Update entity position (mode=1)
  4: 0x01FD [0x6F] WAIT_FRAME_DELAY: Yield until WaitTime reaches zero
  5: 0x01FE [0x00] END_REQSTACK()
```

### Event 65535.46

#### Metadata

| Field        | Value    |
|--------------|----------|
| Entrypoint   | 0x01FF   |
| Data Size    | 18 bytes |
| Instructions | 6        |

```
      00 01 02 03 04 05 06 07  08 09 0A 0B 0C 0D 0E 0F
      -- -- -- -- -- -- -- --  -- -- -- -- -- -- -- --
01F0:                                               1C                 .
0200: 3B 80 32 47 80 1F 00 48  80 49 80 4A 80 1F 01 6F  ;.2G...H.I.J...o
0210: 00                                                .               
```

#### Opcodes

```
  0: 0x01FF [0x1C] WAIT(15* ticks)
  1: 0x0202 [0x32] ExtData[1]->MainSpeed = 9* * 0.1
  2: 0x0205 [0x1F] MOVE_ENTITY: EventEntity moves to X=152.848*, Z=-1.396*, Y=-43.843*
  3: 0x020D [0x1F] MOVE_ENTITY: Update entity position (mode=1)
  4: 0x020F [0x6F] WAIT_FRAME_DELAY: Yield until WaitTime reaches zero
  5: 0x0210 [0x00] END_REQSTACK()
```

### Event 65535.47

#### Metadata

| Field        | Value    |
|--------------|----------|
| Entrypoint   | 0x0211   |
| Data Size    | 18 bytes |
| Instructions | 6        |

```
      00 01 02 03 04 05 06 07  08 09 0A 0B 0C 0D 0E 0F
      -- -- -- -- -- -- -- --  -- -- -- -- -- -- -- --
0210:    1C 13 80 32 13 80 1F  00 4B 80 4C 80 4D 80 1F   ...2....K.L.M..
0220: 01 6F 00                                          .o.             
```

#### Opcodes

```
  0: 0x0211 [0x1C] WAIT(10* ticks)
  1: 0x0214 [0x32] ExtData[1]->MainSpeed = 10* * 0.1
  2: 0x0217 [0x1F] MOVE_ENTITY: EventEntity moves to X=155.794*, Z=3.221*, Y=-44.000*
  3: 0x021F [0x1F] MOVE_ENTITY: Update entity position (mode=1)
  4: 0x0221 [0x6F] WAIT_FRAME_DELAY: Yield until WaitTime reaches zero
  5: 0x0222 [0x00] END_REQSTACK()
```

### Event 65535.48

#### Metadata

| Field        | Value    |
|--------------|----------|
| Entrypoint   | 0x0223   |
| Data Size    | 18 bytes |
| Instructions | 6        |

```
      00 01 02 03 04 05 06 07  08 09 0A 0B 0C 0D 0E 0F
      -- -- -- -- -- -- -- --  -- -- -- -- -- -- -- --
0220:          1C 2A 80 32 13  80 1F 00 4E 80 4F 80 50     .*.2....N.O.P
0230: 80 1F 01 6F 00                                    ...o.           
```

#### Opcodes

```
  0: 0x0223 [0x1C] WAIT(30* ticks)
  1: 0x0226 [0x32] ExtData[1]->MainSpeed = 10* * 0.1
  2: 0x0229 [0x1F] MOVE_ENTITY: EventEntity moves to X=154.405*, Z=5.013*, Y=-43.999*
  3: 0x0231 [0x1F] MOVE_ENTITY: Update entity position (mode=1)
  4: 0x0233 [0x6F] WAIT_FRAME_DELAY: Yield until WaitTime reaches zero
  5: 0x0234 [0x00] END_REQSTACK()
```

### Event 65535.49

#### Metadata

| Field        | Value   |
|--------------|---------|
| Entrypoint   | 0x0235  |
| Data Size    | 5 bytes |
| Instructions | 2       |

```
      00 01 02 03 04 05 06 07  08 09 0A 0B 0C 0D 0E 0F
      -- -- -- -- -- -- -- --  -- -- -- -- -- -- -- --
0230:                B6 00 51  80 00                         ..Q..      
```

#### Opcodes

```
  0: 0x0235 [0xB6] ENTITY_APPEARANCE_HANDLER(case=Hair style, value=2267*)
  1: 0x0239 [0x00] END_REQSTACK()
```

### Event 65535.50

#### Metadata

| Field        | Value   |
|--------------|---------|
| Entrypoint   | 0x023A  |
| Data Size    | 5 bytes |
| Instructions | 2       |

```
      00 01 02 03 04 05 06 07  08 09 0A 0B 0C 0D 0E 0F
      -- -- -- -- -- -- -- --  -- -- -- -- -- -- -- --
0230:                                B6 00 52 80 00               ..R.. 
```

#### Opcodes

```
  0: 0x023A [0xB6] ENTITY_APPEARANCE_HANDLER(case=Hair style, value=2265*)
  1: 0x023E [0x00] END_REQSTACK()
```

### Event 65535.51

#### Metadata

| Field        | Value   |
|--------------|---------|
| Entrypoint   | 0x023F  |
| Data Size    | 5 bytes |
| Instructions | 2       |

```
      00 01 02 03 04 05 06 07  08 09 0A 0B 0C 0D 0E 0F
      -- -- -- -- -- -- -- --  -- -- -- -- -- -- -- --
0230:                                               B6                 .
0240: 00 51 80 00                                       .Q..            
```

#### Opcodes

```
  0: 0x023F [0xB6] ENTITY_APPEARANCE_HANDLER(case=Hair style, value=2267*)
  1: 0x0243 [0x00] END_REQSTACK()
```

### Event 65535.52

#### Metadata

| Field        | Value   |
|--------------|---------|
| Entrypoint   | 0x0244  |
| Data Size    | 5 bytes |
| Instructions | 2       |

```
      00 01 02 03 04 05 06 07  08 09 0A 0B 0C 0D 0E 0F
      -- -- -- -- -- -- -- --  -- -- -- -- -- -- -- --
0240:             B6 00 53 80  00                           ..S..       
```

#### Opcodes

```
  0: 0x0244 [0xB6] ENTITY_APPEARANCE_HANDLER(case=Hair style, value=2268*)
  1: 0x0248 [0x00] END_REQSTACK()
```

### Event 65535.53

#### Metadata

| Field        | Value   |
|--------------|---------|
| Entrypoint   | 0x0249  |
| Data Size    | 5 bytes |
| Instructions | 2       |

```
      00 01 02 03 04 05 06 07  08 09 0A 0B 0C 0D 0E 0F
      -- -- -- -- -- -- -- --  -- -- -- -- -- -- -- --
0240:                             B6 00 52 80 00                 ..R..  
```

#### Opcodes

```
  0: 0x0249 [0xB6] ENTITY_APPEARANCE_HANDLER(case=Hair style, value=2265*)
  1: 0x024D [0x00] END_REQSTACK()
```

### Event 65535.54

#### Metadata

| Field        | Value   |
|--------------|---------|
| Entrypoint   | 0x024E  |
| Data Size    | 5 bytes |
| Instructions | 2       |

```
      00 01 02 03 04 05 06 07  08 09 0A 0B 0C 0D 0E 0F
      -- -- -- -- -- -- -- --  -- -- -- -- -- -- -- --
0240:                                            B6 00                ..
0250: 53 80 00                                          S..             
```

#### Opcodes

```
  0: 0x024E [0xB6] ENTITY_APPEARANCE_HANDLER(case=Hair style, value=2268*)
  1: 0x0252 [0x00] END_REQSTACK()
```

### Event 65535.55

#### Metadata

| Field        | Value   |
|--------------|---------|
| Entrypoint   | 0x0253  |
| Data Size    | 5 bytes |
| Instructions | 2       |

```
      00 01 02 03 04 05 06 07  08 09 0A 0B 0C 0D 0E 0F
      -- -- -- -- -- -- -- --  -- -- -- -- -- -- -- --
0250:          B6 00 51 80 00                              ..Q..        
```

#### Opcodes

```
  0: 0x0253 [0xB6] ENTITY_APPEARANCE_HANDLER(case=Hair style, value=2267*)
  1: 0x0257 [0x00] END_REQSTACK()
```

### Event 65535.56

#### Metadata

| Field        | Value    |
|--------------|----------|
| Entrypoint   | 0x0258   |
| Data Size    | 18 bytes |
| Instructions | 6        |

```
      00 01 02 03 04 05 06 07  08 09 0A 0B 0C 0D 0E 0F
      -- -- -- -- -- -- -- --  -- -- -- -- -- -- -- --
0250:                          1C 54 80 32 55 80 1F 00          .T.2U...
0260: 56 80 57 80 58 80 1F 01  6F 00                    V.W.X...o.      
```

#### Opcodes

```
  0: 0x0258 [0x1C] WAIT(60* ticks)
  1: 0x025B [0x32] ExtData[1]->MainSpeed = 38* * 0.1
  2: 0x025E [0x1F] MOVE_ENTITY: EventEntity moves to X=-36.762*, Z=78.329*, Y=-68.073*
  3: 0x0266 [0x1F] MOVE_ENTITY: Update entity position (mode=1)
  4: 0x0268 [0x6F] WAIT_FRAME_DELAY: Yield until WaitTime reaches zero
  5: 0x0269 [0x00] END_REQSTACK()
```

### Event 65535.57

#### Metadata

| Field        | Value    |
|--------------|----------|
| Entrypoint   | 0x026A   |
| Data Size    | 18 bytes |
| Instructions | 6        |

```
      00 01 02 03 04 05 06 07  08 09 0A 0B 0C 0D 0E 0F
      -- -- -- -- -- -- -- --  -- -- -- -- -- -- -- --
0260:                                1C 2A 80 32 59 80            .*.2Y.
0270: 1F 00 5A 80 5B 80 5C 80  1F 01 6F 00              ..Z.[.\...o.    
```

#### Opcodes

```
  0: 0x026A [0x1C] WAIT(30* ticks)
  1: 0x026D [0x32] ExtData[1]->MainSpeed = 39* * 0.1
  2: 0x0270 [0x1F] MOVE_ENTITY: EventEntity moves to X=-30.949*, Z=79.134*, Y=-68.054*
  3: 0x0278 [0x1F] MOVE_ENTITY: Update entity position (mode=1)
  4: 0x027A [0x6F] WAIT_FRAME_DELAY: Yield until WaitTime reaches zero
  5: 0x027B [0x00] END_REQSTACK()
```

### Event 65535.58

#### Metadata

| Field        | Value    |
|--------------|----------|
| Entrypoint   | 0x027C   |
| Data Size    | 14 bytes |
| Instructions | 4        |

```
      00 01 02 03 04 05 06 07  08 09 0A 0B 0C 0D 0E 0F
      -- -- -- -- -- -- -- --  -- -- -- -- -- -- -- --
0270:                                      32 5D 80 5A              2].Z
0280: 00 5E 80 5F 80 60 80 5A  01 00                    .^._.`.Z..      
```

#### Opcodes

```
  0: 0x027C [0x32] ExtData[1]->MainSpeed = 37* * 0.1
  1: 0x027F [0x5A] UPDATE_EVENT_POSITION: Set EventEntity MovePosition to X=-206.016*, Z=-60.132*, Y=-104.400*
  2: 0x0287 [0x5A] UPDATE_EVENT_POSITION: Move EventEntity incrementally towards MovePosition
  3: 0x0289 [0x00] END_REQSTACK()
```

### Event 65535.59

#### Metadata

| Field        | Value    |
|--------------|----------|
| Entrypoint   | 0x028A   |
| Data Size    | 30 bytes |
| Instructions | 6        |

```
      00 01 02 03 04 05 06 07  08 09 0A 0B 0C 0D 0E 0F
      -- -- -- -- -- -- -- --  -- -- -- -- -- -- -- --
0280:                                32 61 80 1F 00 62            2a...b
0290: 80 63 80 64 80 1F 01 6F  5B 65 80 F8 FF FF 7F F8  .c.d...o[e......
02A0: FF FF 7F 73 70 70 30 00                           ...spp0.        
```

#### Opcodes

```
  0: 0x028A [0x32] ExtData[1]->MainSpeed = 18* * 0.1
  1: 0x028D [0x1F] MOVE_ENTITY: EventEntity moves to X=-93.448*, Z=-58.006*, Y=-68.249*
  2: 0x0295 [0x1F] MOVE_ENTITY: Update entity position (mode=1)
  3: 0x0297 [0x6F] WAIT_FRAME_DELAY: Yield until WaitTime reaches zero
  4: 0x0298 [0x5B] LOAD_EXT_SCHEDULER: Load scheduler "spp0" with entities [EventEntity, EventEntity], work=2227*
  5: 0x02A7 [0x00] END_REQSTACK()
```

### Event 65535.60

#### Metadata

| Field        | Value    |
|--------------|----------|
| Entrypoint   | 0x02A8   |
| Data Size    | 15 bytes |
| Instructions | 5        |

```
      00 01 02 03 04 05 06 07  08 09 0A 0B 0C 0D 0E 0F
      -- -- -- -- -- -- -- --  -- -- -- -- -- -- -- --
02A0:                          32 42 80 1F 00 66 80 67          2B...f.g
02B0: 80 68 80 1F 01 6F 00                              .h...o.         
```

#### Opcodes

```
  0: 0x02A8 [0x32] ExtData[1]->MainSpeed = 20* * 0.1
  1: 0x02AB [0x1F] MOVE_ENTITY: EventEntity moves to X=-62.393*, Z=-63.522*, Y=-68.014*
  2: 0x02B3 [0x1F] MOVE_ENTITY: Update entity position (mode=1)
  3: 0x02B5 [0x6F] WAIT_FRAME_DELAY: Yield until WaitTime reaches zero
  4: 0x02B6 [0x00] END_REQSTACK()
```

### Event 65535.61

#### Metadata

| Field        | Value    |
|--------------|----------|
| Entrypoint   | 0x02B7   |
| Data Size    | 30 bytes |
| Instructions | 6        |

```
      00 01 02 03 04 05 06 07  08 09 0A 0B 0C 0D 0E 0F
      -- -- -- -- -- -- -- --  -- -- -- -- -- -- -- --
02B0:                      32  69 80 1F 00 6A 80 6B 80         2i...j.k.
02C0: 6C 80 1F 01 6F 5B 65 80  F8 FF FF 7F F8 FF FF 7F  l...o[e.........
02D0: 73 70 70 30 00                                    spp0.           
```

#### Opcodes

```
  0: 0x02B7 [0x32] ExtData[1]->MainSpeed = 17* * 0.1
  1: 0x02BA [0x1F] MOVE_ENTITY: EventEntity moves to X=-88.906*, Z=-58.078*, Y=-68.000*
  2: 0x02C2 [0x1F] MOVE_ENTITY: Update entity position (mode=1)
  3: 0x02C4 [0x6F] WAIT_FRAME_DELAY: Yield until WaitTime reaches zero
  4: 0x02C5 [0x5B] LOAD_EXT_SCHEDULER: Load scheduler "spp0" with entities [EventEntity, EventEntity], work=2227*
  5: 0x02D4 [0x00] END_REQSTACK()
```

### Event 65535.62

#### Metadata

| Field        | Value    |
|--------------|----------|
| Entrypoint   | 0x02D5   |
| Data Size    | 25 bytes |
| Instructions | 7        |

```
      00 01 02 03 04 05 06 07  08 09 0A 0B 0C 0D 0E 0F
      -- -- -- -- -- -- -- --  -- -- -- -- -- -- -- --
02D0:                32 61 80  1F 00 6D 80 6E 80 64 80       2a...m.n.d.
02E0: 1F 01 1F 00 6F 80 70 80  6C 80 1F 01 6F 00        ....o.p.l...o.  
```

#### Opcodes

```
  0: 0x02D5 [0x32] ExtData[1]->MainSpeed = 18* * 0.1
  1: 0x02D8 [0x1F] MOVE_ENTITY: EventEntity moves to X=-64.793*, Z=-62.395*, Y=-68.249*
  2: 0x02E0 [0x1F] MOVE_ENTITY: Update entity position (mode=1)
  3: 0x02E2 [0x1F] MOVE_ENTITY: EventEntity moves to X=-69.110*, Z=-61.473*, Y=-68.000*
  4: 0x02EA [0x1F] MOVE_ENTITY: Update entity position (mode=1)
  5: 0x02EC [0x6F] WAIT_FRAME_DELAY: Yield until WaitTime reaches zero
  6: 0x02ED [0x00] END_REQSTACK()
```

### Event 65535.63

#### Metadata

| Field        | Value    |
|--------------|----------|
| Entrypoint   | 0x02EE   |
| Data Size    | 15 bytes |
| Instructions | 5        |

```
      00 01 02 03 04 05 06 07  08 09 0A 0B 0C 0D 0E 0F
      -- -- -- -- -- -- -- --  -- -- -- -- -- -- -- --
02E0:                                            32 71                2q
02F0: 80 1F 00 72 80 73 80 74  80 1F 01 6F 00           ...r.s.t...o.   
```

#### Opcodes

```
  0: 0x02EE [0x32] ExtData[1]->MainSpeed = 19* * 0.1
  1: 0x02F1 [0x1F] MOVE_ENTITY: EventEntity moves to X=-62.157*, Z=-61.264*, Y=-67.927*
  2: 0x02F9 [0x1F] MOVE_ENTITY: Update entity position (mode=1)
  3: 0x02FB [0x6F] WAIT_FRAME_DELAY: Yield until WaitTime reaches zero
  4: 0x02FC [0x00] END_REQSTACK()
```

### Event 65535.64

#### Metadata

| Field        | Value    |
|--------------|----------|
| Entrypoint   | 0x02FD   |
| Data Size    | 15 bytes |
| Instructions | 5        |

```
      00 01 02 03 04 05 06 07  08 09 0A 0B 0C 0D 0E 0F
      -- -- -- -- -- -- -- --  -- -- -- -- -- -- -- --
02F0:                                         32 75 80               2u.
0300: 1F 00 76 80 77 80 78 80  1F 01 6F 00              ..v.w.x...o.    
```

#### Opcodes

```
  0: 0x02FD [0x32] ExtData[1]->MainSpeed = 69* * 0.1
  1: 0x0300 [0x1F] MOVE_ENTITY: EventEntity moves to X=-89.790*, Z=-57.410*, Y=-68.212*
  2: 0x0308 [0x1F] MOVE_ENTITY: Update entity position (mode=1)
  3: 0x030A [0x6F] WAIT_FRAME_DELAY: Yield until WaitTime reaches zero
  4: 0x030B [0x00] END_REQSTACK()
```

### Event 65535.65

#### Metadata

| Field        | Value    |
|--------------|----------|
| Entrypoint   | 0x030C   |
| Data Size    | 25 bytes |
| Instructions | 7        |

```
      00 01 02 03 04 05 06 07  08 09 0A 0B 0C 0D 0E 0F
      -- -- -- -- -- -- -- --  -- -- -- -- -- -- -- --
0300:                                      32 79 80 1F              2y..
0310: 00 7A 80 7B 80 7C 80 1F  01 1F 00 7D 80 7E 80 7C  .z.{.|.....}.~.|
0320: 80 1F 01 6F 00                                    ...o.           
```

#### Opcodes

```
  0: 0x030C [0x32] ExtData[1]->MainSpeed = 70* * 0.1
  1: 0x030F [0x1F] MOVE_ENTITY: EventEntity moves to X=-101.436*, Z=-59.231*, Y=-69.494*
  2: 0x0317 [0x1F] MOVE_ENTITY: Update entity position (mode=1)
  3: 0x0319 [0x1F] MOVE_ENTITY: EventEntity moves to X=-92.230*, Z=-57.698*, Y=-69.494*
  4: 0x0321 [0x1F] MOVE_ENTITY: Update entity position (mode=1)
  5: 0x0323 [0x6F] WAIT_FRAME_DELAY: Yield until WaitTime reaches zero
  6: 0x0324 [0x00] END_REQSTACK()
```

### Event 65535.66

#### Metadata

| Field        | Value    |
|--------------|----------|
| Entrypoint   | 0x0325   |
| Data Size    | 28 bytes |
| Instructions | 8        |

```
      00 01 02 03 04 05 06 07  08 09 0A 0B 0C 0D 0E 0F
      -- -- -- -- -- -- -- --  -- -- -- -- -- -- -- --
0320:                1C 3B 80  32 07 80 1F 00 7F 80 80       .;.2.......
0330: 80 81 80 1F 01 1F 00 82  80 83 80 84 80 1F 01 6F  ...............o
0340: 00                                                .               
```

#### Opcodes

```
  0: 0x0325 [0x1C] WAIT(15* ticks)
  1: 0x0328 [0x32] ExtData[1]->MainSpeed = 40* * 0.1
  2: 0x032B [0x1F] MOVE_ENTITY: EventEntity moves to X=132.218*, Z=0.664*, Y=-43.591*
  3: 0x0333 [0x1F] MOVE_ENTITY: Update entity position (mode=1)
  4: 0x0335 [0x1F] MOVE_ENTITY: EventEntity moves to X=114.160*, Z=0.371*, Y=-44.235*
  5: 0x033D [0x1F] MOVE_ENTITY: Update entity position (mode=1)
  6: 0x033F [0x6F] WAIT_FRAME_DELAY: Yield until WaitTime reaches zero
  7: 0x0340 [0x00] END_REQSTACK()
```

### Event 65535.67

#### Metadata

| Field        | Value    |
|--------------|----------|
| Entrypoint   | 0x0341   |
| Data Size    | 15 bytes |
| Instructions | 5        |

```
      00 01 02 03 04 05 06 07  08 09 0A 0B 0C 0D 0E 0F
      -- -- -- -- -- -- -- --  -- -- -- -- -- -- -- --
0340:    32 0B 80 1F 00 85 80  86 80 87 80 1F 01 6F 00   2............o.
```

#### Opcodes

```
  0: 0x0341 [0x32] ExtData[1]->MainSpeed = 43* * 0.1
  1: 0x0344 [0x1F] MOVE_ENTITY: EventEntity moves to X=112.639*, Z=-0.426*, Y=-44.425*
  2: 0x034C [0x1F] MOVE_ENTITY: Update entity position (mode=1)
  3: 0x034E [0x6F] WAIT_FRAME_DELAY: Yield until WaitTime reaches zero
  4: 0x034F [0x00] END_REQSTACK()
```

### Event 65535.68

#### Metadata

| Field        | Value    |
|--------------|----------|
| Entrypoint   | 0x0350   |
| Data Size    | 15 bytes |
| Instructions | 5        |

```
      00 01 02 03 04 05 06 07  08 09 0A 0B 0C 0D 0E 0F
      -- -- -- -- -- -- -- --  -- -- -- -- -- -- -- --
0350: 32 07 80 1F 00 88 80 89  80 8A 80 1F 01 6F 00     2............o. 
```

#### Opcodes

```
  0: 0x0350 [0x32] ExtData[1]->MainSpeed = 40* * 0.1
  1: 0x0353 [0x1F] MOVE_ENTITY: EventEntity moves to X=94.528*, Z=-12.740*, Y=-51.272*
  2: 0x035B [0x1F] MOVE_ENTITY: Update entity position (mode=1)
  3: 0x035D [0x6F] WAIT_FRAME_DELAY: Yield until WaitTime reaches zero
  4: 0x035E [0x00] END_REQSTACK()
```

### Event 65535.69

#### Metadata

| Field        | Value   |
|--------------|---------|
| Entrypoint   | 0x035F  |
| Data Size    | 5 bytes |
| Instructions | 2       |

```
      00 01 02 03 04 05 06 07  08 09 0A 0B 0C 0D 0E 0F
      -- -- -- -- -- -- -- --  -- -- -- -- -- -- -- --
0350:                                               B6                 .
0360: 00 8B 80 00                                       ....            
```

#### Opcodes

```
  0: 0x035F [0xB6] ENTITY_APPEARANCE_HANDLER(case=Hair style, value=52*)
  1: 0x0363 [0x00] END_REQSTACK()
```

### Event 65535.70

#### Metadata

| Field        | Value   |
|--------------|---------|
| Entrypoint   | 0x0364  |
| Data Size    | 5 bytes |
| Instructions | 2       |

```
      00 01 02 03 04 05 06 07  08 09 0A 0B 0C 0D 0E 0F
      -- -- -- -- -- -- -- --  -- -- -- -- -- -- -- --
0360:             B6 00 8B 80  00                           .....       
```

#### Opcodes

```
  0: 0x0364 [0xB6] ENTITY_APPEARANCE_HANDLER(case=Hair style, value=52*)
  1: 0x0368 [0x00] END_REQSTACK()
```

### Event 65535.71

#### Metadata

| Field        | Value   |
|--------------|---------|
| Entrypoint   | 0x0369  |
| Data Size    | 5 bytes |
| Instructions | 2       |

```
      00 01 02 03 04 05 06 07  08 09 0A 0B 0C 0D 0E 0F
      -- -- -- -- -- -- -- --  -- -- -- -- -- -- -- --
0360:                             B6 00 8B 80 00                 .....  
```

#### Opcodes

```
  0: 0x0369 [0xB6] ENTITY_APPEARANCE_HANDLER(case=Hair style, value=52*)
  1: 0x036D [0x00] END_REQSTACK()
```

### Event 65535.72

#### Metadata

| Field        | Value    |
|--------------|----------|
| Entrypoint   | 0x036E   |
| Data Size    | 15 bytes |
| Instructions | 5        |

```
      00 01 02 03 04 05 06 07  08 09 0A 0B 0C 0D 0E 0F
      -- -- -- -- -- -- -- --  -- -- -- -- -- -- -- --
0360:                                            32 8C                2.
0370: 80 1F 00 8D 80 8E 80 6C  80 1F 01 6F 00           .......l...o.   
```

#### Opcodes

```
  0: 0x036E [0x32] ExtData[1]->MainSpeed = 68* * 0.1
  1: 0x0371 [0x1F] MOVE_ENTITY: EventEntity moves to X=-90.901*, Z=-57.802*, Y=-68.000*
  2: 0x0379 [0x1F] MOVE_ENTITY: Update entity position (mode=1)
  3: 0x037B [0x6F] WAIT_FRAME_DELAY: Yield until WaitTime reaches zero
  4: 0x037C [0x00] END_REQSTACK()
```

### Event 65535.73

#### Metadata

| Field        | Value    |
|--------------|----------|
| Entrypoint   | 0x037D   |
| Data Size    | 25 bytes |
| Instructions | 7        |

```
      00 01 02 03 04 05 06 07  08 09 0A 0B 0C 0D 0E 0F
      -- -- -- -- -- -- -- --  -- -- -- -- -- -- -- --
0370:                                         32 79 80               2y.
0380: 1F 00 8F 80 90 80 91 80  1F 01 1F 00 92 80 93 80  ................
0390: 6C 80 1F 01 6F 00                                 l...o.          
```

#### Opcodes

```
  0: 0x037D [0x32] ExtData[1]->MainSpeed = 70* * 0.1
  1: 0x0380 [0x1F] MOVE_ENTITY: EventEntity moves to X=-102.879*, Z=-58.844*, Y=-67.937*
  2: 0x0388 [0x1F] MOVE_ENTITY: Update entity position (mode=1)
  3: 0x038A [0x1F] MOVE_ENTITY: EventEntity moves to X=-90.940*, Z=-57.859*, Y=-68.000*
  4: 0x0392 [0x1F] MOVE_ENTITY: Update entity position (mode=1)
  5: 0x0394 [0x6F] WAIT_FRAME_DELAY: Yield until WaitTime reaches zero
  6: 0x0395 [0x00] END_REQSTACK()
```

### Event 65535.74

#### Metadata

| Field        | Value    |
|--------------|----------|
| Entrypoint   | 0x0396   |
| Data Size    | 25 bytes |
| Instructions | 7        |

```
      00 01 02 03 04 05 06 07  08 09 0A 0B 0C 0D 0E 0F
      -- -- -- -- -- -- -- --  -- -- -- -- -- -- -- --
0390:                   32 75  80 1F 00 94 80 95 80 96        2u........
03A0: 80 1F 01 1F 00 97 80 98  80 6C 80 1F 01 6F 00     .........l...o. 
```

#### Opcodes

```
  0: 0x0396 [0x32] ExtData[1]->MainSpeed = 69* * 0.1
  1: 0x0399 [0x1F] MOVE_ENTITY: EventEntity moves to X=-102.947*, Z=-56.180*, Y=-67.941*
  2: 0x03A1 [0x1F] MOVE_ENTITY: Update entity position (mode=1)
  3: 0x03A3 [0x1F] MOVE_ENTITY: EventEntity moves to X=-91.019*, Z=-57.757*, Y=-68.000*
  4: 0x03AB [0x1F] MOVE_ENTITY: Update entity position (mode=1)
  5: 0x03AD [0x6F] WAIT_FRAME_DELAY: Yield until WaitTime reaches zero
  6: 0x03AE [0x00] END_REQSTACK()
```

### Event 65535.75

#### Metadata

| Field        | Value   |
|--------------|---------|
| Entrypoint   | 0x03AF  |
| Data Size    | 5 bytes |
| Instructions | 2       |

```
      00 01 02 03 04 05 06 07  08 09 0A 0B 0C 0D 0E 0F
      -- -- -- -- -- -- -- --  -- -- -- -- -- -- -- --
03A0:                                               B6                 .
03B0: 00 99 80 00                                       ....            
```

#### Opcodes

```
  0: 0x03AF [0xB6] ENTITY_APPEARANCE_HANDLER(case=Hair style, value=2264*)
  1: 0x03B3 [0x00] END_REQSTACK()
```

### Event 65535.76

#### Metadata

| Field        | Value   |
|--------------|---------|
| Entrypoint   | 0x03B4  |
| Data Size    | 4 bytes |
| Instructions | 2       |

```
      00 01 02 03 04 05 06 07  08 09 0A 0B 0C 0D 0E 0F
      -- -- -- -- -- -- -- --  -- -- -- -- -- -- -- --
03B0:             C0 9A 80 00                               ....        
```

#### Opcodes

```
  0: 0x03B4 [0xC0] EventEntity->Render.Flags3 |= 0x1000 // Set bit 12 (from 1*)
  1: 0x03B7 [0x00] END_REQSTACK()
```
