# 17171150 - Rotih Moalghett

## Common Data

| Field            | Value                           |
|------------------|---------------------------------|
| Zone             | Fort Karugo-Narugo [S] (ID: 96) |
| Block Size       | 708 bytes                       |
| Total Events     | 27                              |
| References Count | 40                              |

## List of Events

| Event ID                   | Entrypoint   |   Size |   Instructions |
|----------------------------|--------------|--------|----------------|
| [65535](#event-65535)      | 0x0000       |      1 |              1 |
| [101](#event-101)          | 0x0001       |      1 |              1 |
| [104](#event-104)          | 0x0002       |     22 |              6 |
| [232](#event-232)          | 0x0018       |     42 |             10 |
| [106](#event-106)          | 0x0042       |      1 |              1 |
| [105](#event-105)          | 0x0043       |      1 |              1 |
| [107](#event-107)          | 0x0044       |     30 |              8 |
| [108](#event-108)          | 0x0062       |     27 |              7 |
| [109](#event-109)          | 0x007D       |     35 |              9 |
| [112](#event-112)          | 0x00A0       |      1 |              1 |
| [113](#event-113)          | 0x00A1       |      1 |              1 |
| [65535.1](#event-655351)   | 0x00A2       |      5 |              2 |
| [65535.2](#event-655352)   | 0x00A7       |      5 |              2 |
| [65535.3](#event-655353)   | 0x00AC       |      5 |              2 |
| [65535.4](#event-655354)   | 0x00B1       |     21 |              2 |
| [65535.5](#event-655355)   | 0x00C6       |     21 |              2 |
| [65535.6](#event-655356)   | 0x00DB       |      5 |              2 |
| [65535.7](#event-655357)   | 0x00E0       |     25 |              3 |
| [65535.8](#event-655358)   | 0x00F9       |     25 |              3 |
| [65535.9](#event-655359)   | 0x0112       |     25 |              3 |
| [65535.10](#event-6553510) | 0x012B       |     14 |              4 |
| [65535.11](#event-6553511) | 0x0139       |     14 |              4 |
| [65535.12](#event-6553512) | 0x0147       |     22 |              6 |
| [114](#event-114)          | 0x015D       |     22 |              6 |
| [65535.13](#event-6553513) | 0x0173       |     15 |              5 |
| [65535.14](#event-6553514) | 0x0182       |     23 |              7 |
| [65535.15](#event-6553515) | 0x0199       |     13 |              3 |

## DAT References (imed_data)

|   Index | Hex Value   |   Dec Value |
|---------|-------------|-------------|
|       0 | 0x001E      |          30 |
|       1 | 0x1F0D      |        7949 |
|       2 | 0x200A      |        8202 |
|       3 | 0x001D      |          29 |
|       4 | 0x200B      |        8203 |
|       5 | 0x1EB1      |        7857 |
|       6 | 0x1EB2      |        7858 |
|       7 | 0x03CE      |         974 |
|       8 | 0x1F0A      |        7946 |
|       9 | 0x1F08      |        7944 |
|      10 | 0x1F09      |        7945 |
|      11 | 0x02F3      |         755 |
|      12 | 0x043C      |        1084 |
|      13 | 0x08C3      |        2243 |
|      14 | 0x0007      |           7 |
|      15 | 0x0003      |           3 |
|      16 | 0x0000      |           0 |
|      17 | 0x005E      |          94 |
|      18 | 0x000E      |          14 |
|      19 | 0x006E      |         110 |
|      20 | 0x0317      |         791 |
|      21 | 0x000D      |          13 |
|      22 | 0xFFFFCF94  |  4294954900 |
|      23 | 0xFFFECAF5  |  4294888181 |
|      24 | 0xFFFEF661  |  4294899297 |
|      25 | 0xFFFFCFBC  |  4294954940 |
|      26 | 0xFFFEC473  |  4294886515 |
|      27 | 0xFFF8DEBA  |  4294500026 |
|      28 | 0xC0BF      |       49343 |
|      29 | 0xFFFF8E45  |  4294938181 |
|      30 | 0x1FC0      |        8128 |
|      31 | 0x0029      |          41 |
|      32 | 0xFFFE6494  |  4294861972 |
|      33 | 0xFFFFE0BB  |  4294959291 |
|      34 | 0xFFFEC780  |  4294887296 |
|      35 | 0x002D      |          45 |
|      36 | 0xFFFE6B49  |  4294863689 |
|      37 | 0xFFFFC2DE  |  4294951646 |
|      38 | 0xFFFECA92  |  4294888082 |
|      39 | 0x002B      |          43 |

## Events

### Event 65535

#### Metadata

| Field        | Value   |
|--------------|---------|
| Entrypoint   | 0x0000  |
| Data Size    | 1 bytes |
| Instructions | 1       |

```
      00 01 02 03 04 05 06 07  08 09 0A 0B 0C 0D 0E 0F
      -- -- -- -- -- -- -- --  -- -- -- -- -- -- -- --
0000: 00                                                .               
```

#### Opcodes

```
  0: 0x0000 [0x00] END_REQSTACK()
```

### Event 101

#### Metadata

| Field        | Value   |
|--------------|---------|
| Entrypoint   | 0x0001  |
| Data Size    | 1 bytes |
| Instructions | 1       |

```
      00 01 02 03 04 05 06 07  08 09 0A 0B 0C 0D 0E 0F
      -- -- -- -- -- -- -- --  -- -- -- -- -- -- -- --
0000:    00                                              .              
```

#### Opcodes

```
  0: 0x0001 [0x00] END_REQSTACK()
```

### Event 104

#### Metadata

| Field        | Value    |
|--------------|----------|
| Entrypoint   | 0x0002   |
| Data Size    | 22 bytes |
| Instructions | 6        |

```
      00 01 02 03 04 05 06 07  08 09 0A 0B 0C 0D 0E 0F
      -- -- -- -- -- -- -- --  -- -- -- -- -- -- -- --
0000:       4A F8 FF FF 7F F0  FF FF 7F 1C 00 80 2B F8    J...........+.
0010: FF FF 7F 01 80 23 21 00                           .....#!.        
```

#### Opcodes

```
  0: 0x0002 [0x4A] EventEntity looks at LocalPlayer
  1: 0x000B [0x1C] WAIT(30* ticks)
  2: 0x000E [0x2B] EventEntity [7949*]:
    → "Who lets a child come alone to a place like this? I think he was tryin' to take a wander outside the walls of the fort..."
  3: 0x0015 [0x23] WAIT_FOR_DIALOG_INTERACTION
  4: 0x0016 [0x21] END_EVENT
  5: 0x0017 [0x00] END_REQSTACK()
```

### Event 232

#### Metadata

| Field        | Value    |
|--------------|----------|
| Entrypoint   | 0x0018   |
| Data Size    | 42 bytes |
| Instructions | 10       |

```
      00 01 02 03 04 05 06 07  08 09 0A 0B 0C 0D 0E 0F
      -- -- -- -- -- -- -- --  -- -- -- -- -- -- -- --
0010:                          4A F8 FF FF 7F F0 FF FF          J.......
0020: 7F 1C 00 80 2B F8 FF FF  7F 02 80 23 6E F8 FF FF  ....+......#n...
0030: 7F 03 80 99 F8 FF FF 7F  2B F8 FF FF 7F 04 80 23  ........+......#
0040: 21 00                                             !.              
```

#### Opcodes

```
  0: 0x0018 [0x4A] EventEntity looks at LocalPlayer
  1: 0x0021 [0x1C] WAIT(30* ticks)
  2: 0x0024 [0x2B] EventEntity [8202*]:
    → "If there's any trrrouble around here, we have to get word to the boss, Romaa Mihgo, as soon as possible."
  3: 0x002B [0x23] WAIT_FOR_DIALOG_INTERACTION
  4: 0x002C [0x6E] EventEntity uses emote 29*
  5: 0x0033 [0x99] Wait for EventEntity animation to complete
  6: 0x0038 [0x2B] EventEntity [8203*]:
    → "Goddess help you if you're late sendin' in your rrreport... Ulp...!"
  7: 0x003F [0x23] WAIT_FOR_DIALOG_INTERACTION
  8: 0x0040 [0x21] END_EVENT
  9: 0x0041 [0x00] END_REQSTACK()
```

### Event 106

#### Metadata

| Field        | Value   |
|--------------|---------|
| Entrypoint   | 0x0042  |
| Data Size    | 1 bytes |
| Instructions | 1       |

```
      00 01 02 03 04 05 06 07  08 09 0A 0B 0C 0D 0E 0F
      -- -- -- -- -- -- -- --  -- -- -- -- -- -- -- --
0040:       00                                            .             
```

#### Opcodes

```
  0: 0x0042 [0x00] END_REQSTACK()
```

### Event 105

#### Metadata

| Field        | Value   |
|--------------|---------|
| Entrypoint   | 0x0043  |
| Data Size    | 1 bytes |
| Instructions | 1       |

```
      00 01 02 03 04 05 06 07  08 09 0A 0B 0C 0D 0E 0F
      -- -- -- -- -- -- -- --  -- -- -- -- -- -- -- --
0040:          00                                          .            
```

#### Opcodes

```
  0: 0x0043 [0x00] END_REQSTACK()
```

### Event 107

#### Metadata

| Field        | Value    |
|--------------|----------|
| Entrypoint   | 0x0044   |
| Data Size    | 30 bytes |
| Instructions | 8        |

```
      00 01 02 03 04 05 06 07  08 09 0A 0B 0C 0D 0E 0F
      -- -- -- -- -- -- -- --  -- -- -- -- -- -- -- --
0040:             4A F8 FF FF  7F F0 FF FF 7F 1C 00 80      J...........
0050: 2B F8 FF FF 7F 05 80 23  2B F8 FF FF 7F 06 80 23  +......#+......#
0060: 21 00                                             !.              
```

#### Opcodes

```
  0: 0x0044 [0x4A] EventEntity looks at LocalPlayer
  1: 0x004D [0x1C] WAIT(30* ticks)
  2: 0x0050 [0x2B] EventEntity [7857*]:
    → "Those little sorcerers will be in all sorts of trrrouble if the fort is sieged by magic-immune birdmen!"
  3: 0x0057 [0x23] WAIT_FOR_DIALOG_INTERACTION
  4: 0x0058 [0x2B] EventEntity [7858*]:
    → "You heard the boss! Better get Ghyo and her girls back here, prrronto!"
  5: 0x005F [0x23] WAIT_FOR_DIALOG_INTERACTION
  6: 0x0060 [0x21] END_EVENT
  7: 0x0061 [0x00] END_REQSTACK()
```

### Event 108

#### Metadata

| Field        | Value    |
|--------------|----------|
| Entrypoint   | 0x0062   |
| Data Size    | 27 bytes |
| Instructions | 7        |

```
      00 01 02 03 04 05 06 07  08 09 0A 0B 0C 0D 0E 0F
      -- -- -- -- -- -- -- --  -- -- -- -- -- -- -- --
0060:       4A F8 FF FF 7F F0  FF FF 7F 1C 00 80 03 02    J.............
0070: 10 07 80 2B F8 FF FF 7F  08 80 23 21 00           ...+......#!.   
```

#### Opcodes

```
  0: 0x0062 [0x4A] EventEntity looks at LocalPlayer
  1: 0x006B [0x1C] WAIT(30* ticks)
  2: 0x006E [0x03] Work_Zone[2] = 974*
  3: 0x0073 [0x2B] EventEntity [7946*]:
    → "You have the $3 right, <Player>? So go find that tunnel entrance!"
  4: 0x007A [0x23] WAIT_FOR_DIALOG_INTERACTION
  5: 0x007B [0x21] END_EVENT
  6: 0x007C [0x00] END_REQSTACK()
```

### Event 109

#### Metadata

| Field        | Value    |
|--------------|----------|
| Entrypoint   | 0x007D   |
| Data Size    | 35 bytes |
| Instructions | 9        |

```
      00 01 02 03 04 05 06 07  08 09 0A 0B 0C 0D 0E 0F
      -- -- -- -- -- -- -- --  -- -- -- -- -- -- -- --
0070:                                         4A F8 FF               J..
0080: FF 7F F0 FF FF 7F 1C 00  80 03 02 10 07 80 2B F8  ..............+.
0090: FF FF 7F 09 80 23 2B F8  FF FF 7F 0A 80 23 21 00  .....#+......#!.
```

#### Opcodes

```
  0: 0x007D [0x4A] EventEntity looks at LocalPlayer
  1: 0x0086 [0x1C] WAIT(30* ticks)
  2: 0x0089 [0x03] Work_Zone[2] = 974*
  3: 0x008E [0x2B] EventEntity [7944*]:
    → "Everything didn't go as planned? Lucky for you, I have a spare $3."
  4: 0x0095 [0x23] WAIT_FOR_DIALOG_INTERACTION
  5: 0x0096 [0x2B] EventEntity [7945*]:
    → "Here, take it!"
  6: 0x009D [0x23] WAIT_FOR_DIALOG_INTERACTION
  7: 0x009E [0x21] END_EVENT
  8: 0x009F [0x00] END_REQSTACK()
```

### Event 112

#### Metadata

| Field        | Value   |
|--------------|---------|
| Entrypoint   | 0x00A0  |
| Data Size    | 1 bytes |
| Instructions | 1       |

```
      00 01 02 03 04 05 06 07  08 09 0A 0B 0C 0D 0E 0F
      -- -- -- -- -- -- -- --  -- -- -- -- -- -- -- --
00A0: 00                                                .               
```

#### Opcodes

```
  0: 0x00A0 [0x00] END_REQSTACK()
```

### Event 113

#### Metadata

| Field        | Value   |
|--------------|---------|
| Entrypoint   | 0x00A1  |
| Data Size    | 1 bytes |
| Instructions | 1       |

```
      00 01 02 03 04 05 06 07  08 09 0A 0B 0C 0D 0E 0F
      -- -- -- -- -- -- -- --  -- -- -- -- -- -- -- --
00A0:    00                                              .              
```

#### Opcodes

```
  0: 0x00A1 [0x00] END_REQSTACK()
```

### Event 65535.1

#### Metadata

| Field        | Value   |
|--------------|---------|
| Entrypoint   | 0x00A2  |
| Data Size    | 5 bytes |
| Instructions | 2       |

```
      00 01 02 03 04 05 06 07  08 09 0A 0B 0C 0D 0E 0F
      -- -- -- -- -- -- -- --  -- -- -- -- -- -- -- --
00A0:       B6 00 0B 80 00                                .....         
```

#### Opcodes

```
  0: 0x00A2 [0xB6] ENTITY_APPEARANCE_HANDLER(case=Hair style, value=755*)
  1: 0x00A6 [0x00] END_REQSTACK()
```

### Event 65535.2

#### Metadata

| Field        | Value   |
|--------------|---------|
| Entrypoint   | 0x00A7  |
| Data Size    | 5 bytes |
| Instructions | 2       |

```
      00 01 02 03 04 05 06 07  08 09 0A 0B 0C 0D 0E 0F
      -- -- -- -- -- -- -- --  -- -- -- -- -- -- -- --
00A0:                      B6  00 0C 80 00                     .....    
```

#### Opcodes

```
  0: 0x00A7 [0xB6] ENTITY_APPEARANCE_HANDLER(case=Hair style, value=1084*)
  1: 0x00AB [0x00] END_REQSTACK()
```

### Event 65535.3

#### Metadata

| Field        | Value   |
|--------------|---------|
| Entrypoint   | 0x00AC  |
| Data Size    | 5 bytes |
| Instructions | 2       |

```
      00 01 02 03 04 05 06 07  08 09 0A 0B 0C 0D 0E 0F
      -- -- -- -- -- -- -- --  -- -- -- -- -- -- -- --
00A0:                                      B6 00 0D 80              ....
00B0: 00                                                .               
```

#### Opcodes

```
  0: 0x00AC [0xB6] ENTITY_APPEARANCE_HANDLER(case=Hair style, value=2243*)
  1: 0x00B0 [0x00] END_REQSTACK()
```

### Event 65535.4

#### Metadata

| Field        | Value    |
|--------------|----------|
| Entrypoint   | 0x00B1   |
| Data Size    | 21 bytes |
| Instructions | 2        |

```
      00 01 02 03 04 05 06 07  08 09 0A 0B 0C 0D 0E 0F
      -- -- -- -- -- -- -- --  -- -- -- -- -- -- -- --
00B0:    B6 0B 0E 80 0F 80 10  80 11 80 11 80 12 80 12   ...............
00C0: 80 10 80 10 80 00                                 ......          
```

#### Opcodes

```
  0: 0x00B1 [0xB6] ENTITY_APPEARANCE_HANDLER(case=Full entity look, race=7*, hair=3*, head=0*, body=94*, hands=94*, legs=14*, feet=14*, main=0*, sub=0*)
  1: 0x00C5 [0x00] END_REQSTACK()
```

### Event 65535.5

#### Metadata

| Field        | Value    |
|--------------|----------|
| Entrypoint   | 0x00C6   |
| Data Size    | 21 bytes |
| Instructions | 2        |

```
      00 01 02 03 04 05 06 07  08 09 0A 0B 0C 0D 0E 0F
      -- -- -- -- -- -- -- --  -- -- -- -- -- -- -- --
00C0:                   B6 0B  0E 80 0F 80 10 80 11 80        ..........
00D0: 11 80 12 80 12 80 13 80  10 80 00                 ...........     
```

#### Opcodes

```
  0: 0x00C6 [0xB6] ENTITY_APPEARANCE_HANDLER(case=Full entity look, race=7*, hair=3*, head=0*, body=94*, hands=94*, legs=14*, feet=14*, main=110*, sub=0*)
  1: 0x00DA [0x00] END_REQSTACK()
```

### Event 65535.6

#### Metadata

| Field        | Value   |
|--------------|---------|
| Entrypoint   | 0x00DB  |
| Data Size    | 5 bytes |
| Instructions | 2       |

```
      00 01 02 03 04 05 06 07  08 09 0A 0B 0C 0D 0E 0F
      -- -- -- -- -- -- -- --  -- -- -- -- -- -- -- --
00D0:                                   B6 00 14 80 00             .....
```

#### Opcodes

```
  0: 0x00DB [0xB6] ENTITY_APPEARANCE_HANDLER(case=Hair style, value=791*)
  1: 0x00DF [0x00] END_REQSTACK()
```

### Event 65535.7

#### Metadata

| Field        | Value    |
|--------------|----------|
| Entrypoint   | 0x00E0   |
| Data Size    | 25 bytes |
| Instructions | 3        |

```
      00 01 02 03 04 05 06 07  08 09 0A 0B 0C 0D 0E 0F
      -- -- -- -- -- -- -- --  -- -- -- -- -- -- -- --
00E0: B4 00 00 00 3F 3F 3F 00  00 00 00 00 00 00 00 00  ....???.........
00F0: 00 00 00 00 B5 00 00 00  00                       .........       
```

#### Opcodes

```
  0: 0x00E0 [0xB4] UI_WINDOW_STRING_HANDLER(case=0x00 - Copy string from opcode, work_offset=ExtData[1]->WorkLocal[0], string="???")
  1: 0x00F4 [0xB5] SET_EVENT_ENTITY_NAME: Change EventEntity name to ExtData[1]->WorkLocal[0]
  2: 0x00F8 [0x00] END_REQSTACK()
```

### Event 65535.8

#### Metadata

| Field        | Value    |
|--------------|----------|
| Entrypoint   | 0x00F9   |
| Data Size    | 25 bytes |
| Instructions | 3        |

```
      00 01 02 03 04 05 06 07  08 09 0A 0B 0C 0D 0E 0F
      -- -- -- -- -- -- -- --  -- -- -- -- -- -- -- --
00F0:                             B4 00 00 00 52 6F 62           ....Rob
0100: 65 6C 2D 41 6B 62 65 6C  00 00 00 00 00 B5 00 00  el-Akbel........
0110: 00 00                                             ..              
```

#### Opcodes

```
  0: 0x00F9 [0xB4] UI_WINDOW_STRING_HANDLER(case=0x00 - Copy string from opcode, work_offset=ExtData[1]->WorkLocal[0], string="Robel-Akbel")
  1: 0x010D [0xB5] SET_EVENT_ENTITY_NAME: Change EventEntity name to ExtData[1]->WorkLocal[0]
  2: 0x0111 [0x00] END_REQSTACK()
```

### Event 65535.9

#### Metadata

| Field        | Value    |
|--------------|----------|
| Entrypoint   | 0x0112   |
| Data Size    | 25 bytes |
| Instructions | 3        |

```
      00 01 02 03 04 05 06 07  08 09 0A 0B 0C 0D 0E 0F
      -- -- -- -- -- -- -- --  -- -- -- -- -- -- -- --
0110:       B4 00 00 00 30 32  00 00 00 00 00 00 00 00    ....02........
0120: 00 00 00 00 00 00 B5 00  00 00 00                 ...........     
```

#### Opcodes

```
  0: 0x0112 [0xB4] UI_WINDOW_STRING_HANDLER(case=0x00 - Copy string from opcode, work_offset=ExtData[1]->WorkLocal[0], string="02")
  1: 0x0126 [0xB5] SET_EVENT_ENTITY_NAME: Change EventEntity name to ExtData[1]->WorkLocal[0]
  2: 0x012A [0x00] END_REQSTACK()
```

### Event 65535.10

#### Metadata

| Field        | Value    |
|--------------|----------|
| Entrypoint   | 0x012B   |
| Data Size    | 14 bytes |
| Instructions | 4        |

```
      00 01 02 03 04 05 06 07  08 09 0A 0B 0C 0D 0E 0F
      -- -- -- -- -- -- -- --  -- -- -- -- -- -- -- --
0120:                                   32 15 80 1F 00             2....
0130: 16 80 17 80 18 80 1F 01  00                       .........       
```

#### Opcodes

```
  0: 0x012B [0x32] ExtData[1]->MainSpeed = 13* * 0.1
  1: 0x012E [0x1F] MOVE_ENTITY: EventEntity moves to X=-12.396*, Z=-79.115*, Y=-67.999*
  2: 0x0136 [0x1F] MOVE_ENTITY: Update entity position (mode=1)
  3: 0x0138 [0x00] END_REQSTACK()
```

### Event 65535.11

#### Metadata

| Field        | Value    |
|--------------|----------|
| Entrypoint   | 0x0139   |
| Data Size    | 14 bytes |
| Instructions | 4        |

```
      00 01 02 03 04 05 06 07  08 09 0A 0B 0C 0D 0E 0F
      -- -- -- -- -- -- -- --  -- -- -- -- -- -- -- --
0130:                             32 15 80 1F 00 19 80           2......
0140: 1A 80 18 80 1F 01 00                              .......         
```

#### Opcodes

```
  0: 0x0139 [0x32] ExtData[1]->MainSpeed = 13* * 0.1
  1: 0x013C [0x1F] MOVE_ENTITY: EventEntity moves to X=-12.356*, Z=-80.781*, Y=-67.999*
  2: 0x0144 [0x1F] MOVE_ENTITY: Update entity position (mode=1)
  3: 0x0146 [0x00] END_REQSTACK()
```

### Event 65535.12

#### Metadata

| Field        | Value    |
|--------------|----------|
| Entrypoint   | 0x0147   |
| Data Size    | 22 bytes |
| Instructions | 6        |

```
      00 01 02 03 04 05 06 07  08 09 0A 0B 0C 0D 0E 0F
      -- -- -- -- -- -- -- --  -- -- -- -- -- -- -- --
0140:                      32  15 80 5A 00 1B 80 1C 80         2..Z.....
0150: 1D 80 5A 01 1E F0 FF FF  7F 1C 00 80 00           ..Z..........   
```

#### Opcodes

```
  0: 0x0147 [0x32] ExtData[1]->MainSpeed = 13* * 0.1
  1: 0x014A [0x5A] UPDATE_EVENT_POSITION: Set EventEntity MovePosition to X=-467.270*, Z=49.343*, Y=-29.115*
  2: 0x0152 [0x5A] UPDATE_EVENT_POSITION: Move EventEntity incrementally towards MovePosition
  3: 0x0154 [0x1E] EventEntity looks at LocalPlayer and starts talking
  4: 0x0159 [0x1C] WAIT(30* ticks)
  5: 0x015C [0x00] END_REQSTACK()
```

### Event 114

#### Metadata

| Field        | Value    |
|--------------|----------|
| Entrypoint   | 0x015D   |
| Data Size    | 22 bytes |
| Instructions | 6        |

```
      00 01 02 03 04 05 06 07  08 09 0A 0B 0C 0D 0E 0F
      -- -- -- -- -- -- -- --  -- -- -- -- -- -- -- --
0150:                                         4A F8 FF               J..
0160: FF 7F F0 FF FF 7F 1C 00  80 2B F8 FF FF 7F 1E 80  .........+......
0170: 23 21 00                                          #!.             
```

#### Opcodes

```
  0: 0x015D [0x4A] EventEntity looks at LocalPlayer
  1: 0x0166 [0x1C] WAIT(30* ticks)
  2: 0x0169 [0x2B] EventEntity [8128*]:
    → "A couple of nasty ones are rrrushing the western spire! You must hurry and head them off!"
  3: 0x0170 [0x23] WAIT_FOR_DIALOG_INTERACTION
  4: 0x0171 [0x21] END_EVENT
  5: 0x0172 [0x00] END_REQSTACK()
```

### Event 65535.13

#### Metadata

| Field        | Value    |
|--------------|----------|
| Entrypoint   | 0x0173   |
| Data Size    | 15 bytes |
| Instructions | 5        |

```
      00 01 02 03 04 05 06 07  08 09 0A 0B 0C 0D 0E 0F
      -- -- -- -- -- -- -- --  -- -- -- -- -- -- -- --
0170:          32 1F 80 1F 00  20 80 21 80 22 80 1F 01     2.... .!."...
0180: 6F 00                                             o.              
```

#### Opcodes

```
  0: 0x0173 [0x32] ExtData[1]->MainSpeed = 41* * 0.1
  1: 0x0176 [0x1F] MOVE_ENTITY: EventEntity moves to X=-105.324*, Z=-8.005*, Y=-80.000*
  2: 0x017E [0x1F] MOVE_ENTITY: Update entity position (mode=1)
  3: 0x0180 [0x6F] WAIT_FRAME_DELAY: Yield until WaitTime reaches zero
  4: 0x0181 [0x00] END_REQSTACK()
```

### Event 65535.14

#### Metadata

| Field        | Value    |
|--------------|----------|
| Entrypoint   | 0x0182   |
| Data Size    | 23 bytes |
| Instructions | 7        |

```
      00 01 02 03 04 05 06 07  08 09 0A 0B 0C 0D 0E 0F
      -- -- -- -- -- -- -- --  -- -- -- -- -- -- -- --
0180:       1C 23 80 7B F8 FF  FF 7F 32 1F 80 1F 00 24    .#.{....2....$
0190: 80 25 80 26 80 1F 01 6F  00                       .%.&...o.       
```

#### Opcodes

```
  0: 0x0182 [0x1C] WAIT(45* ticks)
  1: 0x0185 [0x7B] EventEntity stops talking
  2: 0x018A [0x32] ExtData[1]->MainSpeed = 41* * 0.1
  3: 0x018D [0x1F] MOVE_ENTITY: EventEntity moves to X=-103.607*, Z=-15.650*, Y=-79.214*
  4: 0x0195 [0x1F] MOVE_ENTITY: Update entity position (mode=1)
  5: 0x0197 [0x6F] WAIT_FRAME_DELAY: Yield until WaitTime reaches zero
  6: 0x0198 [0x00] END_REQSTACK()
```

### Event 65535.15

#### Metadata

| Field        | Value    |
|--------------|----------|
| Entrypoint   | 0x0199   |
| Data Size    | 13 bytes |
| Instructions | 3        |

```
      00 01 02 03 04 05 06 07  08 09 0A 0B 0C 0D 0E 0F
      -- -- -- -- -- -- -- --  -- -- -- -- -- -- -- --
0190:                             6E F8 FF FF 7F 27 80           n....'.
01A0: 99 F8 FF FF 7F 00                                 ......          
```

#### Opcodes

```
  0: 0x0199 [0x6E] EventEntity uses emote 43*
  1: 0x01A0 [0x99] Wait for EventEntity animation to complete
  2: 0x01A5 [0x00] END_REQSTACK()
```
