# 17171290 - Syu Befrathi

## Common Data

| Field            | Value                           |
|------------------|---------------------------------|
| Zone             | Fort Karugo-Narugo [S] (ID: 96) |
| Block Size       | 392 bytes                       |
| Total Events     | 14                              |
| References Count | 27                              |

## List of Events

| Event ID                 | Entrypoint   |   Size |   Instructions |
|--------------------------|--------------|--------|----------------|
| [115](#event-115)        | 0x0000       |      1 |              1 |
| [116](#event-116)        | 0x0001       |      1 |              1 |
| [117](#event-117)        | 0x0002       |      1 |              1 |
| [118](#event-118)        | 0x0003       |      1 |              1 |
| [119](#event-119)        | 0x0004       |      1 |              1 |
| [120](#event-120)        | 0x0005       |      1 |              1 |
| [65535](#event-65535)    | 0x0006       |     10 |              2 |
| [65535.1](#event-655351) | 0x0010       |     10 |              2 |
| [65535.2](#event-655352) | 0x001A       |     31 |              9 |
| [65535.3](#event-655353) | 0x0039       |     19 |              5 |
| [65535.4](#event-655354) | 0x004C       |     47 |              8 |
| [65535.5](#event-655355) | 0x007B       |     32 |              7 |
| [65535.6](#event-655356) | 0x009B       |     54 |             10 |

## DAT References (imed_data)

|   Index | Hex Value   |   Dec Value |
|---------|-------------|-------------|
|       0 | 0x0000      |           0 |
|       1 | 0x0001      |           1 |
|       2 | 0x0080      |         128 |
|       3 | 0x001E      |          30 |
|       4 | 0x003C      |          60 |
|       5 | 0xFFF9B812  |  4294555666 |
|       6 | 0x55E85     |      351877 |
|       7 | 0xFFFF942C  |  4294939692 |
|       8 | 0x0023      |          35 |
|       9 | 0xFFF9C886  |  4294559878 |
|      10 | 0x573F4     |      357364 |
|      11 | 0xFFFF934A  |  4294939466 |
|      12 | 0x0028      |          40 |
|      13 | 0xFFF92432  |  4294517810 |
|      14 | 0x53152     |      340306 |
|      15 | 0xFFFF968B  |  4294940299 |
|      16 | 0x0504      |        1284 |
|      17 | 0xFFF99E07  |  4294548999 |
|      18 | 0x53F27     |      343847 |
|      19 | 0xFFFF8A29  |  4294937129 |
|      20 | 0x0019      |          25 |
|      21 | 0xFFF962A3  |  4294533795 |
|      22 | 0x5121F     |      332319 |
|      23 | 0xFFFF9354  |  4294939476 |
|      24 | 0x000F      |          15 |
|      25 | 0x00D2      |         210 |
|      26 | 0x0078      |         120 |

## Events

### Event 115

#### Metadata

| Field        | Value   |
|--------------|---------|
| Entrypoint   | 0x0000  |
| Data Size    | 1 bytes |
| Instructions | 1       |

```
      00 01 02 03 04 05 06 07  08 09 0A 0B 0C 0D 0E 0F
      -- -- -- -- -- -- -- --  -- -- -- -- -- -- -- --
0000: 00                                                .               
```

#### Opcodes

```
  0: 0x0000 [0x00] END_REQSTACK()
```

### Event 116

#### Metadata

| Field        | Value   |
|--------------|---------|
| Entrypoint   | 0x0001  |
| Data Size    | 1 bytes |
| Instructions | 1       |

```
      00 01 02 03 04 05 06 07  08 09 0A 0B 0C 0D 0E 0F
      -- -- -- -- -- -- -- --  -- -- -- -- -- -- -- --
0000:    00                                              .              
```

#### Opcodes

```
  0: 0x0001 [0x00] END_REQSTACK()
```

### Event 117

#### Metadata

| Field        | Value   |
|--------------|---------|
| Entrypoint   | 0x0002  |
| Data Size    | 1 bytes |
| Instructions | 1       |

```
      00 01 02 03 04 05 06 07  08 09 0A 0B 0C 0D 0E 0F
      -- -- -- -- -- -- -- --  -- -- -- -- -- -- -- --
0000:       00                                            .             
```

#### Opcodes

```
  0: 0x0002 [0x00] END_REQSTACK()
```

### Event 118

#### Metadata

| Field        | Value   |
|--------------|---------|
| Entrypoint   | 0x0003  |
| Data Size    | 1 bytes |
| Instructions | 1       |

```
      00 01 02 03 04 05 06 07  08 09 0A 0B 0C 0D 0E 0F
      -- -- -- -- -- -- -- --  -- -- -- -- -- -- -- --
0000:          00                                          .            
```

#### Opcodes

```
  0: 0x0003 [0x00] END_REQSTACK()
```

### Event 119

#### Metadata

| Field        | Value   |
|--------------|---------|
| Entrypoint   | 0x0004  |
| Data Size    | 1 bytes |
| Instructions | 1       |

```
      00 01 02 03 04 05 06 07  08 09 0A 0B 0C 0D 0E 0F
      -- -- -- -- -- -- -- --  -- -- -- -- -- -- -- --
0000:             00                                        .           
```

#### Opcodes

```
  0: 0x0004 [0x00] END_REQSTACK()
```

### Event 120

#### Metadata

| Field        | Value   |
|--------------|---------|
| Entrypoint   | 0x0005  |
| Data Size    | 1 bytes |
| Instructions | 1       |

```
      00 01 02 03 04 05 06 07  08 09 0A 0B 0C 0D 0E 0F
      -- -- -- -- -- -- -- --  -- -- -- -- -- -- -- --
0000:                00                                      .          
```

#### Opcodes

```
  0: 0x0005 [0x00] END_REQSTACK()
```

### Event 65535

#### Metadata

| Field        | Value    |
|--------------|----------|
| Entrypoint   | 0x0006   |
| Data Size    | 10 bytes |
| Instructions | 2        |

```
      00 01 02 03 04 05 06 07  08 09 0A 0B 0C 0D 0E 0F
      -- -- -- -- -- -- -- --  -- -- -- -- -- -- -- --
0000:                   6C 5A  03 06 01 00 80 01 80 00        lZ........
```

#### Opcodes

```
  0: 0x0006 [0x6C] FADE_ENTITY_COLOR(entity_id=Syu Befrathi (ID: 17171290/0x0106035A), end_alpha=0*, fade_time=1*)
  1: 0x000F [0x00] END_REQSTACK()
```

### Event 65535.1

#### Metadata

| Field        | Value    |
|--------------|----------|
| Entrypoint   | 0x0010   |
| Data Size    | 10 bytes |
| Instructions | 2        |

```
      00 01 02 03 04 05 06 07  08 09 0A 0B 0C 0D 0E 0F
      -- -- -- -- -- -- -- --  -- -- -- -- -- -- -- --
0010: 6C 5A 03 06 01 02 80 01  80 00                    lZ........      
```

#### Opcodes

```
  0: 0x0010 [0x6C] FADE_ENTITY_COLOR(entity_id=Syu Befrathi (ID: 17171290/0x0106035A), end_alpha=128*, fade_time=1*)
  1: 0x0019 [0x00] END_REQSTACK()
```

### Event 65535.2

#### Metadata

| Field        | Value    |
|--------------|----------|
| Entrypoint   | 0x001A   |
| Data Size    | 31 bytes |
| Instructions | 9        |

```
      00 01 02 03 04 05 06 07  08 09 0A 0B 0C 0D 0E 0F
      -- -- -- -- -- -- -- --  -- -- -- -- -- -- -- --
0010:                                1C 03 80 1E 59 03            ....Y.
0020: 06 01 1C 04 80 32 03 80  1F 00 05 80 06 80 07 80  .....2..........
0030: 1F 01 6F 1E F0 FF FF 7F  00                       ..o......       
```

#### Opcodes

```
  0: 0x001A [0x1C] WAIT(30* ticks)
  1: 0x001D [0x1E] EventEntity looks at Nhev Befrathi (ID: 17171289/0x01060359) and starts talking
  2: 0x0022 [0x1C] WAIT(60* ticks)
  3: 0x0025 [0x32] ExtData[1]->MainSpeed = 30* * 0.1
  4: 0x0028 [0x1F] MOVE_ENTITY: EventEntity moves to X=-411.630*, Z=351.877*, Y=-27.604*
  5: 0x0030 [0x1F] MOVE_ENTITY: Update entity position (mode=1)
  6: 0x0032 [0x6F] WAIT_FRAME_DELAY: Yield until WaitTime reaches zero
  7: 0x0033 [0x1E] EventEntity looks at LocalPlayer and starts talking
  8: 0x0038 [0x00] END_REQSTACK()
```

### Event 65535.3

#### Metadata

| Field        | Value    |
|--------------|----------|
| Entrypoint   | 0x0039   |
| Data Size    | 19 bytes |
| Instructions | 5        |

```
      00 01 02 03 04 05 06 07  08 09 0A 0B 0C 0D 0E 0F
      -- -- -- -- -- -- -- --  -- -- -- -- -- -- -- --
0030:                             32 08 80 1F 00 09 80           2......
0040: 0A 80 0B 80 1F 01 1E F0  FF FF 7F 00              ............    
```

#### Opcodes

```
  0: 0x0039 [0x32] ExtData[1]->MainSpeed = 35* * 0.1
  1: 0x003C [0x1F] MOVE_ENTITY: EventEntity moves to X=-407.418*, Z=357.364*, Y=-27.830*
  2: 0x0044 [0x1F] MOVE_ENTITY: Update entity position (mode=1)
  3: 0x0046 [0x1E] EventEntity looks at LocalPlayer and starts talking
  4: 0x004B [0x00] END_REQSTACK()
```

### Event 65535.4

#### Metadata

| Field        | Value    |
|--------------|----------|
| Entrypoint   | 0x004C   |
| Data Size    | 47 bytes |
| Instructions | 8        |

```
      00 01 02 03 04 05 06 07  08 09 0A 0B 0C 0D 0E 0F
      -- -- -- -- -- -- -- --  -- -- -- -- -- -- -- --
0040:                                      79 00 5A 03              y.Z.
0050: 06 01 59 03 06 01 32 0C  80 1F 00 0D 80 0E 80 0F  ..Y...2.........
0060: 80 1F 01 1E 59 03 06 01  1C 03 80 5B 10 80 5A 03  ....Y......[..Z.
0070: 06 01 5A 03 06 01 67 75  75 30 00                 ..Z...guu0.     
```

#### Opcodes

```
  0: 0x004C [0x79] Syu Befrathi (ID: 17171290/0x0106035A) looks at Nhev Befrathi (ID: 17171289/0x01060359) (Basic look)
  1: 0x0056 [0x32] ExtData[1]->MainSpeed = 40* * 0.1
  2: 0x0059 [0x1F] MOVE_ENTITY: EventEntity moves to X=-449.486*, Z=340.306*, Y=-26.997*
  3: 0x0061 [0x1F] MOVE_ENTITY: Update entity position (mode=1)
  4: 0x0063 [0x1E] EventEntity looks at Nhev Befrathi (ID: 17171289/0x01060359) and starts talking
  5: 0x0068 [0x1C] WAIT(30* ticks)
  6: 0x006B [0x5B] LOAD_EXT_SCHEDULER: Load scheduler "guu0" with entities [Syu Befrathi (ID: 17171290/0x0106035A), Syu Befrathi (ID: 17171290/0x0106035A)], work=1284*
  7: 0x007A [0x00] END_REQSTACK()
```

### Event 65535.5

#### Metadata

| Field        | Value    |
|--------------|----------|
| Entrypoint   | 0x007B   |
| Data Size    | 32 bytes |
| Instructions | 7        |

```
      00 01 02 03 04 05 06 07  08 09 0A 0B 0C 0D 0E 0F
      -- -- -- -- -- -- -- --  -- -- -- -- -- -- -- --
0070:                                   79 00 5A 03 06             y.Z..
0080: 01 59 03 06 01 32 0C 80  1F 00 11 80 12 80 13 80  .Y...2..........
0090: 1F 01 1E 59 03 06 01 1C  03 80 00                 ...Y.......     
```

#### Opcodes

```
  0: 0x007B [0x79] Syu Befrathi (ID: 17171290/0x0106035A) looks at Nhev Befrathi (ID: 17171289/0x01060359) (Basic look)
  1: 0x0085 [0x32] ExtData[1]->MainSpeed = 40* * 0.1
  2: 0x0088 [0x1F] MOVE_ENTITY: EventEntity moves to X=-418.297*, Z=343.847*, Y=-30.167*
  3: 0x0090 [0x1F] MOVE_ENTITY: Update entity position (mode=1)
  4: 0x0092 [0x1E] EventEntity looks at Nhev Befrathi (ID: 17171289/0x01060359) and starts talking
  5: 0x0097 [0x1C] WAIT(30* ticks)
  6: 0x009A [0x00] END_REQSTACK()
```

### Event 65535.6

#### Metadata

| Field        | Value    |
|--------------|----------|
| Entrypoint   | 0x009B   |
| Data Size    | 54 bytes |
| Instructions | 10       |

```
      00 01 02 03 04 05 06 07  08 09 0A 0B 0C 0D 0E 0F
      -- -- -- -- -- -- -- --  -- -- -- -- -- -- -- --
0090:                                   32 14 80 1F 00             2....
00A0: 15 80 16 80 17 80 1F 01  6F 1C 18 80 5B 10 80 5A  ........o...[..Z
00B0: 03 06 01 5A 03 06 01 6B  75 6E 30 1C 19 80 5B 10  ...Z...kun0...[.
00C0: 80 5A 03 06 01 5A 03 06  01 6B 75 6E 31 1C 1A 80  .Z...Z...kun1...
00D0: 00                                                .               
```

#### Opcodes

```
  0: 0x009B [0x32] ExtData[1]->MainSpeed = 25* * 0.1
  1: 0x009E [0x1F] MOVE_ENTITY: EventEntity moves to X=-433.501*, Z=332.319*, Y=-27.820*
  2: 0x00A6 [0x1F] MOVE_ENTITY: Update entity position (mode=1)
  3: 0x00A8 [0x6F] WAIT_FRAME_DELAY: Yield until WaitTime reaches zero
  4: 0x00A9 [0x1C] WAIT(15* ticks)
  5: 0x00AC [0x5B] LOAD_EXT_SCHEDULER: Load scheduler "kun0" with entities [Syu Befrathi (ID: 17171290/0x0106035A), Syu Befrathi (ID: 17171290/0x0106035A)], work=1284*
  6: 0x00BB [0x1C] WAIT(210* ticks)
  7: 0x00BE [0x5B] LOAD_EXT_SCHEDULER: Load scheduler "kun1" with entities [Syu Befrathi (ID: 17171290/0x0106035A), Syu Befrathi (ID: 17171290/0x0106035A)], work=1284*
  8: 0x00CD [0x1C] WAIT(120* ticks)
  9: 0x00D0 [0x00] END_REQSTACK()
```
