# 17171206 - 06

## Common Data

| Field            | Value                           |
|------------------|---------------------------------|
| Zone             | Fort Karugo-Narugo [S] (ID: 96) |
| Block Size       | 996 bytes                       |
| Total Events     | 29                              |
| References Count | 55                              |

## List of Events

| Event ID                   | Entrypoint   |   Size |   Instructions |
|----------------------------|--------------|--------|----------------|
| [65535](#event-65535)      | 0x0000       |      1 |              1 |
| [103](#event-103)          | 0x0001       |      1 |              1 |
| [101](#event-101)          | 0x0002       |      1 |              1 |
| [65535.1](#event-655351)   | 0x0003       |     13 |              3 |
| [106](#event-106)          | 0x0010       |      1 |              1 |
| [65535.2](#event-655352)   | 0x0011       |     15 |              5 |
| [65535.3](#event-655353)   | 0x0020       |     29 |              7 |
| [65535.4](#event-655354)   | 0x003D       |      5 |              2 |
| [65535.5](#event-655355)   | 0x0042       |      5 |              2 |
| [65535.6](#event-655356)   | 0x0047       |     26 |              3 |
| [65535.7](#event-655357)   | 0x0061       |     36 |              3 |
| [65535.8](#event-655358)   | 0x0085       |     60 |              5 |
| [112](#event-112)          | 0x00C1       |      1 |              1 |
| [113](#event-113)          | 0x00C2       |      1 |              1 |
| [65535.9](#event-655359)   | 0x00C3       |      5 |              2 |
| [65535.10](#event-6553510) | 0x00C8       |      5 |              2 |
| [65535.11](#event-6553511) | 0x00CD       |      5 |              2 |
| [65535.12](#event-6553512) | 0x00D2       |     21 |              2 |
| [65535.13](#event-6553513) | 0x00E7       |     21 |              2 |
| [65535.14](#event-6553514) | 0x00FC       |      5 |              2 |
| [65535.15](#event-6553515) | 0x0101       |     25 |              3 |
| [65535.16](#event-6553516) | 0x011A       |     25 |              3 |
| [65535.17](#event-6553517) | 0x0133       |     25 |              3 |
| [65535.18](#event-6553518) | 0x014C       |     14 |              4 |
| [65535.19](#event-6553519) | 0x015A       |     14 |              4 |
| [65535.20](#event-6553520) | 0x0168       |     22 |              6 |
| [65535.21](#event-6553521) | 0x017E       |     37 |              5 |
| [65535.22](#event-6553522) | 0x01A3       |    185 |             37 |
| [65535.23](#event-6553523) | 0x025C       |     39 |              7 |

## DAT References (imed_data)

|   Index | Hex Value   |   Dec Value |
|---------|-------------|-------------|
|       0 | 0x002B      |          43 |
|       1 | 0x0028      |          40 |
|       2 | 0x23AFB     |      146171 |
|       3 | 0x0FA9      |        4009 |
|       4 | 0xFFFF5662  |  4294923874 |
|       5 | 0xF2AD      |       62125 |
|       6 | 0xFFFFE201  |  4294959617 |
|       7 | 0xFFFF034D  |  4294902605 |
|       8 | 0x002F      |          47 |
|       9 | 0x0024      |          36 |
|      10 | 0xFEFB      |       65275 |
|      11 | 0xFFFFF680  |  4294964864 |
|      12 | 0x0030      |          48 |
|      13 | 0x0000      |           0 |
|      14 | 0x0003      |           3 |
|      15 | 0x0009      |           9 |
|      16 | 0x000C      |          12 |
|      17 | 0x00FD      |         253 |
|      18 | 0x0007      |           7 |
|      19 | 0x000B      |          11 |
|      20 | 0x0089      |         137 |
|      21 | 0x0010      |          16 |
|      22 | 0x000E      |          14 |
|      23 | 0x011B      |         283 |
|      24 | 0x0081      |         129 |
|      25 | 0x000D      |          13 |
|      26 | 0x000F      |          15 |
|      27 | 0x0072      |         114 |
|      28 | 0x0064      |         100 |
|      29 | 0x02F3      |         755 |
|      30 | 0x043C      |        1084 |
|      31 | 0x08C3      |        2243 |
|      32 | 0x005E      |          94 |
|      33 | 0x006E      |         110 |
|      34 | 0x0317      |         791 |
|      35 | 0xFFFFCF94  |  4294954900 |
|      36 | 0xFFFECAF5  |  4294888181 |
|      37 | 0xFFFEF661  |  4294899297 |
|      38 | 0xFFFFCFBC  |  4294954940 |
|      39 | 0xFFFEC473  |  4294886515 |
|      40 | 0xFFF8DEBA  |  4294500026 |
|      41 | 0xC0BF      |       49343 |
|      42 | 0xFFFF8E45  |  4294938181 |
|      43 | 0x001E      |          30 |
|      44 | 0x0005      |           5 |
|      45 | 0x0001      |           1 |
|      46 | 0x0002      |           2 |
|      47 | 0x000A      |          10 |
|      48 | 0x0046      |          70 |
|      49 | 0x008C      |         140 |
|      50 | 0x00D2      |         210 |
|      51 | 0x002A      |          42 |
|      52 | 0xFFFE9031  |  4294873137 |
|      53 | 0xB1A3      |       45475 |
|      54 | 0xFFFED740  |  4294891328 |

## Events

### Event 65535

#### Metadata

| Field        | Value   |
|--------------|---------|
| Entrypoint   | 0x0000  |
| Data Size    | 1 bytes |
| Instructions | 1       |

```
      00 01 02 03 04 05 06 07  08 09 0A 0B 0C 0D 0E 0F
      -- -- -- -- -- -- -- --  -- -- -- -- -- -- -- --
0000: 00                                                .               
```

#### Opcodes

```
  0: 0x0000 [0x00] END_REQSTACK()
```

### Event 103

#### Metadata

| Field        | Value   |
|--------------|---------|
| Entrypoint   | 0x0001  |
| Data Size    | 1 bytes |
| Instructions | 1       |

```
      00 01 02 03 04 05 06 07  08 09 0A 0B 0C 0D 0E 0F
      -- -- -- -- -- -- -- --  -- -- -- -- -- -- -- --
0000:    00                                              .              
```

#### Opcodes

```
  0: 0x0001 [0x00] END_REQSTACK()
```

### Event 101

#### Metadata

| Field        | Value   |
|--------------|---------|
| Entrypoint   | 0x0002  |
| Data Size    | 1 bytes |
| Instructions | 1       |

```
      00 01 02 03 04 05 06 07  08 09 0A 0B 0C 0D 0E 0F
      -- -- -- -- -- -- -- --  -- -- -- -- -- -- -- --
0000:       00                                            .             
```

#### Opcodes

```
  0: 0x0002 [0x00] END_REQSTACK()
```

### Event 65535.1

#### Metadata

| Field        | Value    |
|--------------|----------|
| Entrypoint   | 0x0003   |
| Data Size    | 13 bytes |
| Instructions | 3        |

```
      00 01 02 03 04 05 06 07  08 09 0A 0B 0C 0D 0E 0F
      -- -- -- -- -- -- -- --  -- -- -- -- -- -- -- --
0000:          6E F8 FF FF 7F  00 80 99 F8 FF FF 7F 00     n............
```

#### Opcodes

```
  0: 0x0003 [0x6E] EventEntity uses emote 43*
  1: 0x000A [0x99] Wait for EventEntity animation to complete
  2: 0x000F [0x00] END_REQSTACK()
```

### Event 106

#### Metadata

| Field        | Value   |
|--------------|---------|
| Entrypoint   | 0x0010  |
| Data Size    | 1 bytes |
| Instructions | 1       |

```
      00 01 02 03 04 05 06 07  08 09 0A 0B 0C 0D 0E 0F
      -- -- -- -- -- -- -- --  -- -- -- -- -- -- -- --
0010: 00                                                .               
```

#### Opcodes

```
  0: 0x0010 [0x00] END_REQSTACK()
```

### Event 65535.2

#### Metadata

| Field        | Value    |
|--------------|----------|
| Entrypoint   | 0x0011   |
| Data Size    | 15 bytes |
| Instructions | 5        |

```
      00 01 02 03 04 05 06 07  08 09 0A 0B 0C 0D 0E 0F
      -- -- -- -- -- -- -- --  -- -- -- -- -- -- -- --
0010:    32 01 80 1F 00 02 80  03 80 04 80 1F 01 6F 00   2............o.
```

#### Opcodes

```
  0: 0x0011 [0x32] ExtData[1]->MainSpeed = 40* * 0.1
  1: 0x0014 [0x1F] MOVE_ENTITY: EventEntity moves to X=146.171*, Z=4.009*, Y=-43.422*
  2: 0x001C [0x1F] MOVE_ENTITY: Update entity position (mode=1)
  3: 0x001E [0x6F] WAIT_FRAME_DELAY: Yield until WaitTime reaches zero
  4: 0x001F [0x00] END_REQSTACK()
```

### Event 65535.3

#### Metadata

| Field        | Value    |
|--------------|----------|
| Entrypoint   | 0x0020   |
| Data Size    | 29 bytes |
| Instructions | 7        |

```
      00 01 02 03 04 05 06 07  08 09 0A 0B 0C 0D 0E 0F
      -- -- -- -- -- -- -- --  -- -- -- -- -- -- -- --
0020: 37 05 80 06 80 07 80 08  80 32 09 80 1F 00 0A 80  7........2......
0030: 0B 80 07 80 1F 01 6F 1E  F8 02 06 01 00           ......o......   
```

#### Opcodes

```
  0: 0x0020 [0x37] UPDATE_EVENT_POSITION_AND_DIR: x=62.125*, z=-7.679*, y=-64.691*, direction=4.1°*
  1: 0x0029 [0x32] ExtData[1]->MainSpeed = 36* * 0.1
  2: 0x002C [0x1F] MOVE_ENTITY: EventEntity moves to X=65.275*, Z=-2.432*, Y=-64.691*
  3: 0x0034 [0x1F] MOVE_ENTITY: Update entity position (mode=1)
  4: 0x0036 [0x6F] WAIT_FRAME_DELAY: Yield until WaitTime reaches zero
  5: 0x0037 [0x1E] EventEntity looks at Robel-Akbel (ID: 17171192/0x010602F8) and starts talking
  6: 0x003C [0x00] END_REQSTACK()
```

### Event 65535.4

#### Metadata

| Field        | Value   |
|--------------|---------|
| Entrypoint   | 0x003D  |
| Data Size    | 5 bytes |
| Instructions | 2       |

```
      00 01 02 03 04 05 06 07  08 09 0A 0B 0C 0D 0E 0F
      -- -- -- -- -- -- -- --  -- -- -- -- -- -- -- --
0030:                                         B6 0A 0C               ...
0040: 80 00                                             ..              
```

#### Opcodes

```
  0: 0x003D [0xB6] ENTITY_APPEARANCE_HANDLER(case=Ranged, value=48*)
  1: 0x0041 [0x00] END_REQSTACK()
```

### Event 65535.5

#### Metadata

| Field        | Value   |
|--------------|---------|
| Entrypoint   | 0x0042  |
| Data Size    | 5 bytes |
| Instructions | 2       |

```
      00 01 02 03 04 05 06 07  08 09 0A 0B 0C 0D 0E 0F
      -- -- -- -- -- -- -- --  -- -- -- -- -- -- -- --
0040:       B6 0A 0D 80 00                                .....         
```

#### Opcodes

```
  0: 0x0042 [0xB6] ENTITY_APPEARANCE_HANDLER(case=Ranged, value=0*)
  1: 0x0046 [0x00] END_REQSTACK()
```

### Event 65535.6

#### Metadata

| Field        | Value    |
|--------------|----------|
| Entrypoint   | 0x0047   |
| Data Size    | 26 bytes |
| Instructions | 3        |

```
      00 01 02 03 04 05 06 07  08 09 0A 0B 0C 0D 0E 0F
      -- -- -- -- -- -- -- --  -- -- -- -- -- -- -- --
0040:                      B6  0B 0E 80 0F 80 0D 80 10         .........
0050: 80 10 80 10 80 10 80 11  80 0D 80 80 F8 FF FF 7F  ................
0060: 00                                                .               
```

#### Opcodes

```
  0: 0x0047 [0xB6] ENTITY_APPEARANCE_HANDLER(case=Full entity look, race=3*, hair=9*, head=0*, body=12*, hands=12*, legs=12*, feet=12*, main=253*, sub=0*)
  1: 0x005B [0x80] LOAD_WAIT(entity=EventEntity)
  2: 0x0060 [0x00] END_REQSTACK()
```

### Event 65535.7

#### Metadata

| Field        | Value    |
|--------------|----------|
| Entrypoint   | 0x0061   |
| Data Size    | 36 bytes |
| Instructions | 3        |

```
      00 01 02 03 04 05 06 07  08 09 0A 0B 0C 0D 0E 0F
      -- -- -- -- -- -- -- --  -- -- -- -- -- -- -- --
0060:    B6 0B 12 80 13 80 14  80 15 80 15 80 16 80 15   ...............
0070: 80 17 80 0D 80 66 18 80  F8 FF FF 7F F8 FF FF 7F  .....f..........
0080: 77 70 6F 6E 00                                    wpon.           
```

#### Opcodes

```
  0: 0x0061 [0xB6] ENTITY_APPEARANCE_HANDLER(case=Full entity look, race=7*, hair=11*, head=137*, body=16*, hands=16*, legs=14*, feet=16*, main=283*, sub=0*)
  1: 0x0075 [0x66] LOAD_EXT_SCHEDULER_MAIN: Load scheduler "wpon" with entities [EventEntity, EventEntity], work=129*
  2: 0x0084 [0x00] END_REQSTACK()
```

### Event 65535.8

#### Metadata

| Field        | Value    |
|--------------|----------|
| Entrypoint   | 0x0085   |
| Data Size    | 60 bytes |
| Instructions | 5        |

```
      00 01 02 03 04 05 06 07  08 09 0A 0B 0C 0D 0E 0F
      -- -- -- -- -- -- -- --  -- -- -- -- -- -- -- --
0080:                B6 0B 12  80 19 80 14 80 1A 80 1B       ...........
0090: 80 1A 80 19 80 1C 80 0D  80 66 18 80 F8 FF FF 7F  .........f......
00A0: F8 FF FF 7F 77 70 6F 6E  B4 13 00 00 30 36 00 00  ....wpon....06..
00B0: 00 00 00 00 00 00 00 00  00 00 00 00 B5 00 00 00  ................
00C0: 00                                                .               
```

#### Opcodes

```
  0: 0x0085 [0xB6] ENTITY_APPEARANCE_HANDLER(case=Full entity look, race=7*, hair=13*, head=137*, body=15*, hands=114*, legs=15*, feet=13*, main=100*, sub=0*)
  1: 0x0099 [0x66] LOAD_EXT_SCHEDULER_MAIN: Load scheduler "wpon" with entities [EventEntity, EventEntity], work=129*
  2: 0x00A8 [0xB4] UI_WINDOW_STRING_HANDLER(case=0x13 - Copy string and replace @ with space, work_offset=ExtData[1]->WorkLocal[0], string="06")
  3: 0x00BC [0xB5] SET_EVENT_ENTITY_NAME: Change EventEntity name to ExtData[1]->WorkLocal[0]
  4: 0x00C0 [0x00] END_REQSTACK()
```

### Event 112

#### Metadata

| Field        | Value   |
|--------------|---------|
| Entrypoint   | 0x00C1  |
| Data Size    | 1 bytes |
| Instructions | 1       |

```
      00 01 02 03 04 05 06 07  08 09 0A 0B 0C 0D 0E 0F
      -- -- -- -- -- -- -- --  -- -- -- -- -- -- -- --
00C0:    00                                              .              
```

#### Opcodes

```
  0: 0x00C1 [0x00] END_REQSTACK()
```

### Event 113

#### Metadata

| Field        | Value   |
|--------------|---------|
| Entrypoint   | 0x00C2  |
| Data Size    | 1 bytes |
| Instructions | 1       |

```
      00 01 02 03 04 05 06 07  08 09 0A 0B 0C 0D 0E 0F
      -- -- -- -- -- -- -- --  -- -- -- -- -- -- -- --
00C0:       00                                            .             
```

#### Opcodes

```
  0: 0x00C2 [0x00] END_REQSTACK()
```

### Event 65535.9

#### Metadata

| Field        | Value   |
|--------------|---------|
| Entrypoint   | 0x00C3  |
| Data Size    | 5 bytes |
| Instructions | 2       |

```
      00 01 02 03 04 05 06 07  08 09 0A 0B 0C 0D 0E 0F
      -- -- -- -- -- -- -- --  -- -- -- -- -- -- -- --
00C0:          B6 00 1D 80 00                              .....        
```

#### Opcodes

```
  0: 0x00C3 [0xB6] ENTITY_APPEARANCE_HANDLER(case=Hair style, value=755*)
  1: 0x00C7 [0x00] END_REQSTACK()
```

### Event 65535.10

#### Metadata

| Field        | Value   |
|--------------|---------|
| Entrypoint   | 0x00C8  |
| Data Size    | 5 bytes |
| Instructions | 2       |

```
      00 01 02 03 04 05 06 07  08 09 0A 0B 0C 0D 0E 0F
      -- -- -- -- -- -- -- --  -- -- -- -- -- -- -- --
00C0:                          B6 00 1E 80 00                   .....   
```

#### Opcodes

```
  0: 0x00C8 [0xB6] ENTITY_APPEARANCE_HANDLER(case=Hair style, value=1084*)
  1: 0x00CC [0x00] END_REQSTACK()
```

### Event 65535.11

#### Metadata

| Field        | Value   |
|--------------|---------|
| Entrypoint   | 0x00CD  |
| Data Size    | 5 bytes |
| Instructions | 2       |

```
      00 01 02 03 04 05 06 07  08 09 0A 0B 0C 0D 0E 0F
      -- -- -- -- -- -- -- --  -- -- -- -- -- -- -- --
00C0:                                         B6 00 1F               ...
00D0: 80 00                                             ..              
```

#### Opcodes

```
  0: 0x00CD [0xB6] ENTITY_APPEARANCE_HANDLER(case=Hair style, value=2243*)
  1: 0x00D1 [0x00] END_REQSTACK()
```

### Event 65535.12

#### Metadata

| Field        | Value    |
|--------------|----------|
| Entrypoint   | 0x00D2   |
| Data Size    | 21 bytes |
| Instructions | 2        |

```
      00 01 02 03 04 05 06 07  08 09 0A 0B 0C 0D 0E 0F
      -- -- -- -- -- -- -- --  -- -- -- -- -- -- -- --
00D0:       B6 0B 12 80 0E 80  0D 80 20 80 20 80 16 80    ........ . ...
00E0: 16 80 0D 80 0D 80 00                              .......         
```

#### Opcodes

```
  0: 0x00D2 [0xB6] ENTITY_APPEARANCE_HANDLER(case=Full entity look, race=7*, hair=3*, head=0*, body=94*, hands=94*, legs=14*, feet=14*, main=0*, sub=0*)
  1: 0x00E6 [0x00] END_REQSTACK()
```

### Event 65535.13

#### Metadata

| Field        | Value    |
|--------------|----------|
| Entrypoint   | 0x00E7   |
| Data Size    | 21 bytes |
| Instructions | 2        |

```
      00 01 02 03 04 05 06 07  08 09 0A 0B 0C 0D 0E 0F
      -- -- -- -- -- -- -- --  -- -- -- -- -- -- -- --
00E0:                      B6  0B 12 80 0E 80 0D 80 20         ........ 
00F0: 80 20 80 16 80 16 80 21  80 0D 80 00              . .....!....    
```

#### Opcodes

```
  0: 0x00E7 [0xB6] ENTITY_APPEARANCE_HANDLER(case=Full entity look, race=7*, hair=3*, head=0*, body=94*, hands=94*, legs=14*, feet=14*, main=110*, sub=0*)
  1: 0x00FB [0x00] END_REQSTACK()
```

### Event 65535.14

#### Metadata

| Field        | Value   |
|--------------|---------|
| Entrypoint   | 0x00FC  |
| Data Size    | 5 bytes |
| Instructions | 2       |

```
      00 01 02 03 04 05 06 07  08 09 0A 0B 0C 0D 0E 0F
      -- -- -- -- -- -- -- --  -- -- -- -- -- -- -- --
00F0:                                      B6 00 22 80              ..".
0100: 00                                                .               
```

#### Opcodes

```
  0: 0x00FC [0xB6] ENTITY_APPEARANCE_HANDLER(case=Hair style, value=791*)
  1: 0x0100 [0x00] END_REQSTACK()
```

### Event 65535.15

#### Metadata

| Field        | Value    |
|--------------|----------|
| Entrypoint   | 0x0101   |
| Data Size    | 25 bytes |
| Instructions | 3        |

```
      00 01 02 03 04 05 06 07  08 09 0A 0B 0C 0D 0E 0F
      -- -- -- -- -- -- -- --  -- -- -- -- -- -- -- --
0100:    B4 00 00 00 3F 3F 3F  00 00 00 00 00 00 00 00   ....???........
0110: 00 00 00 00 00 B5 00 00  00 00                    ..........      
```

#### Opcodes

```
  0: 0x0101 [0xB4] UI_WINDOW_STRING_HANDLER(case=0x00 - Copy string from opcode, work_offset=ExtData[1]->WorkLocal[0], string="???")
  1: 0x0115 [0xB5] SET_EVENT_ENTITY_NAME: Change EventEntity name to ExtData[1]->WorkLocal[0]
  2: 0x0119 [0x00] END_REQSTACK()
```

### Event 65535.16

#### Metadata

| Field        | Value    |
|--------------|----------|
| Entrypoint   | 0x011A   |
| Data Size    | 25 bytes |
| Instructions | 3        |

```
      00 01 02 03 04 05 06 07  08 09 0A 0B 0C 0D 0E 0F
      -- -- -- -- -- -- -- --  -- -- -- -- -- -- -- --
0110:                                B4 00 00 00 52 6F            ....Ro
0120: 62 65 6C 2D 41 6B 62 65  6C 00 00 00 00 00 B5 00  bel-Akbel.......
0130: 00 00 00                                          ...             
```

#### Opcodes

```
  0: 0x011A [0xB4] UI_WINDOW_STRING_HANDLER(case=0x00 - Copy string from opcode, work_offset=ExtData[1]->WorkLocal[0], string="Robel-Akbel")
  1: 0x012E [0xB5] SET_EVENT_ENTITY_NAME: Change EventEntity name to ExtData[1]->WorkLocal[0]
  2: 0x0132 [0x00] END_REQSTACK()
```

### Event 65535.17

#### Metadata

| Field        | Value    |
|--------------|----------|
| Entrypoint   | 0x0133   |
| Data Size    | 25 bytes |
| Instructions | 3        |

```
      00 01 02 03 04 05 06 07  08 09 0A 0B 0C 0D 0E 0F
      -- -- -- -- -- -- -- --  -- -- -- -- -- -- -- --
0130:          B4 00 00 00 30  32 00 00 00 00 00 00 00     ....02.......
0140: 00 00 00 00 00 00 00 B5  00 00 00 00              ............    
```

#### Opcodes

```
  0: 0x0133 [0xB4] UI_WINDOW_STRING_HANDLER(case=0x00 - Copy string from opcode, work_offset=ExtData[1]->WorkLocal[0], string="02")
  1: 0x0147 [0xB5] SET_EVENT_ENTITY_NAME: Change EventEntity name to ExtData[1]->WorkLocal[0]
  2: 0x014B [0x00] END_REQSTACK()
```

### Event 65535.18

#### Metadata

| Field        | Value    |
|--------------|----------|
| Entrypoint   | 0x014C   |
| Data Size    | 14 bytes |
| Instructions | 4        |

```
      00 01 02 03 04 05 06 07  08 09 0A 0B 0C 0D 0E 0F
      -- -- -- -- -- -- -- --  -- -- -- -- -- -- -- --
0140:                                      32 19 80 1F              2...
0150: 00 23 80 24 80 25 80 1F  01 00                    .#.$.%....      
```

#### Opcodes

```
  0: 0x014C [0x32] ExtData[1]->MainSpeed = 13* * 0.1
  1: 0x014F [0x1F] MOVE_ENTITY: EventEntity moves to X=-12.396*, Z=-79.115*, Y=-67.999*
  2: 0x0157 [0x1F] MOVE_ENTITY: Update entity position (mode=1)
  3: 0x0159 [0x00] END_REQSTACK()
```

### Event 65535.19

#### Metadata

| Field        | Value    |
|--------------|----------|
| Entrypoint   | 0x015A   |
| Data Size    | 14 bytes |
| Instructions | 4        |

```
      00 01 02 03 04 05 06 07  08 09 0A 0B 0C 0D 0E 0F
      -- -- -- -- -- -- -- --  -- -- -- -- -- -- -- --
0150:                                32 19 80 1F 00 26            2....&
0160: 80 27 80 25 80 1F 01 00                           .'.%....        
```

#### Opcodes

```
  0: 0x015A [0x32] ExtData[1]->MainSpeed = 13* * 0.1
  1: 0x015D [0x1F] MOVE_ENTITY: EventEntity moves to X=-12.356*, Z=-80.781*, Y=-67.999*
  2: 0x0165 [0x1F] MOVE_ENTITY: Update entity position (mode=1)
  3: 0x0167 [0x00] END_REQSTACK()
```

### Event 65535.20

#### Metadata

| Field        | Value    |
|--------------|----------|
| Entrypoint   | 0x0168   |
| Data Size    | 22 bytes |
| Instructions | 6        |

```
      00 01 02 03 04 05 06 07  08 09 0A 0B 0C 0D 0E 0F
      -- -- -- -- -- -- -- --  -- -- -- -- -- -- -- --
0160:                          32 19 80 5A 00 28 80 29          2..Z.(.)
0170: 80 2A 80 5A 01 1E F0 FF  FF 7F 1C 2B 80 00        .*.Z.......+..  
```

#### Opcodes

```
  0: 0x0168 [0x32] ExtData[1]->MainSpeed = 13* * 0.1
  1: 0x016B [0x5A] UPDATE_EVENT_POSITION: Set EventEntity MovePosition to X=-467.270*, Z=49.343*, Y=-29.115*
  2: 0x0173 [0x5A] UPDATE_EVENT_POSITION: Move EventEntity incrementally towards MovePosition
  3: 0x0175 [0x1E] EventEntity looks at LocalPlayer and starts talking
  4: 0x017A [0x1C] WAIT(30* ticks)
  5: 0x017D [0x00] END_REQSTACK()
```

### Event 65535.21

#### Metadata

| Field        | Value    |
|--------------|----------|
| Entrypoint   | 0x017E   |
| Data Size    | 37 bytes |
| Instructions | 5        |

```
      00 01 02 03 04 05 06 07  08 09 0A 0B 0C 0D 0E 0F
      -- -- -- -- -- -- -- --  -- -- -- -- -- -- -- --
0170:                                            03 01                ..
0180: 00 07 7F 1A C8 01 66 02  00 F8 FF FF 7F F8 FF FF  ......f.........
0190: 7F 73 68 61 30 53 F8 FF  FF 7F F8 FF FF 7F 73 68  .sha0S........sh
01A0: 61 30 00                                          a0.             
```

#### Opcodes

```
  0: 0x017E [0x03] ExtData[1]->WorkLocal[1] = Entity->Race
  1: 0x0183 [0x1A] CALL_SUBROUTINE(address=0x01C8)
  2: 0x0186 [0x66] LOAD_EXT_SCHEDULER_MAIN: Load scheduler "sha0" with entities [EventEntity, EventEntity], work=ExtData[1]->WorkLocal[2]
  3: 0x0195 [0x53] WAIT_SCHEDULER_TASK: Wait for scheduler "sha0" with entities [EventEntity, EventEntity]
  4: 0x01A2 [0x00] END_REQSTACK()
```

### Event 65535.22

#### Metadata

| Field        | Value     |
|--------------|-----------|
| Entrypoint   | 0x01A3    |
| Data Size    | 185 bytes |
| Instructions | 13        |

```
      00 01 02 03 04 05 06 07  08 09 0A 0B 0C 0D 0E 0F
      -- -- -- -- -- -- -- --  -- -- -- -- -- -- -- --
01A0:          03 01 00 07 7F  1A C8 01 66 02 00 F8 FF     ........f....
01B0: FF 7F F8 FF FF 7F 73 68  61 31 53 F8 FF FF 7F F8  ......sha1S.....
01C0: FF FF 7F 73 68 61 31 00  03 02 00 01 00 02 02 00  ...sha1.........
01D0: 2C 80 05 DD 01 08 02 00  2D 80 01 E2 01 08 02 00  ,.......-.......
01E0: 2E 80 14 02 00 2F 80 07  02 00 0F 80 1B 03 02 00  ...../..........
01F0: 01 00 02 02 00 2C 80 05  02 02 08 02 00 2D 80 01  .....,.......-..
0200: 07 02 08 02 00 2E 80 14  02 00 2F 80 07 02 00 30  ........../....0
0210: 80 1B 03 02 00 01 00 02  02 00 2C 80 05 27 02 08  ..........,..'..
0220: 02 00 2D 80 01 2C 02 08  02 00 2E 80 14 02 00 2F  ..-..,........./
0230: 80 07 02 00 31 80 1B 03  02 00 01 00 02 02 00 2C  ....1..........,
0240: 80 05 4C 02 08 02 00 2D  80 01 51 02 08 02 00 2E  ..L....-..Q.....
0250: 80 14 02 00 2F 80 07 02  00 32 80 1B              ..../....2..    
```

#### Opcodes

```
  0: 0x01A3 [0x03] ExtData[1]->WorkLocal[1] = Entity->Race
  1: 0x01A8 [0x1A] CALL_SUBROUTINE(address=0x01C8)
  2: 0x01AB [0x66] LOAD_EXT_SCHEDULER_MAIN: Load scheduler "sha1" with entities [EventEntity, EventEntity], work=ExtData[1]->WorkLocal[2]
  3: 0x01BA [0x53] WAIT_SCHEDULER_TASK: Wait for scheduler "sha1" with entities [EventEntity, EventEntity]
  4: 0x01C7 [0x00] END_REQSTACK()

SUBROUTINE_01C8:
  5: 0x01C8 [0x03] ExtData[1]->WorkLocal[2] = ExtData[1]->WorkLocal[1]
  6: 0x01CD [0x02] IF !(ExtData[1]->WorkLocal[2] > 5*) GOTO 0x01DD
  7: 0x01D5 [0x08] ExtData[1]->WorkLocal[2] -= 1*
  8: 0x01DA [0x01] GOTO 0x01E2
  9: 0x01DD [0x08] ExtData[1]->WorkLocal[2] -= 2*

SUBROUTINE_01E2:
 10: 0x01E2 [0x14] ExtData[1]->WorkLocal[2] *= 10*
 11: 0x01E7 [0x07] ExtData[1]->WorkLocal[2] += 9*
 12: 0x01EC [0x1B] RETURN
```

#### Data or dead code:

```
# Dead code (unreachable instructions):
     0x01ED [0x03] ExtData[1]->WorkLocal[2] = ExtData[1]->WorkLocal[1]
     0x01F2 [0x02] IF !(ExtData[1]->WorkLocal[2] > 5*) GOTO 0x0202
     0x01FA [0x08] ExtData[1]->WorkLocal[2] -= 1*
     0x01FF [0x01] GOTO 0x0207
     0x0202 [0x08] ExtData[1]->WorkLocal[2] -= 2*
     0x0207 [0x14] ExtData[1]->WorkLocal[2] *= 10*
     0x020C [0x07] ExtData[1]->WorkLocal[2] += 70*
     0x0211 [0x1B] RETURN
     0x0212 [0x03] ExtData[1]->WorkLocal[2] = ExtData[1]->WorkLocal[1]
     0x0217 [0x02] IF !(ExtData[1]->WorkLocal[2] > 5*) GOTO 0x0227
     0x021F [0x08] ExtData[1]->WorkLocal[2] -= 1*
     0x0224 [0x01] GOTO 0x022C
     0x0227 [0x08] ExtData[1]->WorkLocal[2] -= 2*
     0x022C [0x14] ExtData[1]->WorkLocal[2] *= 10*
     0x0231 [0x07] ExtData[1]->WorkLocal[2] += 140*
     0x0236 [0x1B] RETURN
     0x0237 [0x03] ExtData[1]->WorkLocal[2] = ExtData[1]->WorkLocal[1]
     0x023C [0x02] IF !(ExtData[1]->WorkLocal[2] > 5*) GOTO 0x024C
     0x0244 [0x08] ExtData[1]->WorkLocal[2] -= 1*
     0x0249 [0x01] GOTO 0x0251
     0x024C [0x08] ExtData[1]->WorkLocal[2] -= 2*
     0x0251 [0x14] ExtData[1]->WorkLocal[2] *= 10*
     0x0256 [0x07] ExtData[1]->WorkLocal[2] += 210*
     0x025B [0x1B] RETURN
```

### Event 65535.23

#### Metadata

| Field        | Value    |
|--------------|----------|
| Entrypoint   | 0x025C   |
| Data Size    | 39 bytes |
| Instructions | 7        |

```
      00 01 02 03 04 05 06 07  08 09 0A 0B 0C 0D 0E 0F
      -- -- -- -- -- -- -- --  -- -- -- -- -- -- -- --
0250:                                      B4 13 00 00              ....
0260: 4B 61 70 65 68 40 4D 79  6F 68 72 79 65 00 00 00  Kapeh@Myohrye...
0270: B5 00 00 00 32 33 80 1F  00 34 80 35 80 36 80 1F  ....23...4.5.6..
0280: 01 6F 00                                          .o.             
```

#### Opcodes

```
  0: 0x025C [0xB4] UI_WINDOW_STRING_HANDLER(case=0x13 - Copy string and replace @ with space, work_offset=ExtData[1]->WorkLocal[0], string="Kapeh@Myohrye")
  1: 0x0270 [0xB5] SET_EVENT_ENTITY_NAME: Change EventEntity name to ExtData[1]->WorkLocal[0]
  2: 0x0274 [0x32] ExtData[1]->MainSpeed = 42* * 0.1
  3: 0x0277 [0x1F] MOVE_ENTITY: EventEntity moves to X=-94.159*, Z=45.475*, Y=-75.968*
  4: 0x027F [0x1F] MOVE_ENTITY: Update entity position (mode=1)
  5: 0x0281 [0x6F] WAIT_FRAME_DELAY: Yield until WaitTime reaches zero
  6: 0x0282 [0x00] END_REQSTACK()
```
