# 17171197

## Common Data

| Field            | Value                           |
|------------------|---------------------------------|
| Zone             | Fort Karugo-Narugo [S] (ID: 96) |
| Block Size       | 476 bytes                       |
| Total Events     | 13                              |
| References Count | 2                               |

## List of Events

| Event ID                 | Entrypoint   |   Size |   Instructions |
|--------------------------|--------------|--------|----------------|
| [65535](#event-65535)    | 0x0000       |      1 |              1 |
| [102](#event-102)        | 0x0001       |      1 |              1 |
| [103](#event-103)        | 0x0002       |      1 |              1 |
| [101](#event-101)        | 0x0003       |      1 |              1 |
| [106](#event-106)        | 0x0004       |      1 |              1 |
| [105](#event-105)        | 0x0005       |      1 |              1 |
| [65535.1](#event-655351) | 0x0006       |    265 |             45 |
| [65535.2](#event-655352) | 0x010F       |     55 |             10 |
| [65535.3](#event-655353) | 0x0146       |     55 |             10 |
| [65535.4](#event-655354) | 0x017D       |      4 |              2 |
| [112](#event-112)        | 0x0181       |      1 |              1 |
| [113](#event-113)        | 0x0182       |      1 |              1 |
| [65535.5](#event-655355) | 0x0183       |     10 |              2 |

## DAT References (imed_data)

|   Index | Hex Value   |   Dec Value |
|---------|-------------|-------------|
|       0 | 0x0000      |           0 |
|       1 | 0x0001      |           1 |

## Events

### Event 65535

#### Metadata

| Field        | Value   |
|--------------|---------|
| Entrypoint   | 0x0000  |
| Data Size    | 1 bytes |
| Instructions | 1       |

```
      00 01 02 03 04 05 06 07  08 09 0A 0B 0C 0D 0E 0F
      -- -- -- -- -- -- -- --  -- -- -- -- -- -- -- --
0000: 00                                                .               
```

#### Opcodes

```
  0: 0x0000 [0x00] END_REQSTACK()
```

### Event 102

#### Metadata

| Field        | Value   |
|--------------|---------|
| Entrypoint   | 0x0001  |
| Data Size    | 1 bytes |
| Instructions | 1       |

```
      00 01 02 03 04 05 06 07  08 09 0A 0B 0C 0D 0E 0F
      -- -- -- -- -- -- -- --  -- -- -- -- -- -- -- --
0000:    00                                              .              
```

#### Opcodes

```
  0: 0x0001 [0x00] END_REQSTACK()
```

### Event 103

#### Metadata

| Field        | Value   |
|--------------|---------|
| Entrypoint   | 0x0002  |
| Data Size    | 1 bytes |
| Instructions | 1       |

```
      00 01 02 03 04 05 06 07  08 09 0A 0B 0C 0D 0E 0F
      -- -- -- -- -- -- -- --  -- -- -- -- -- -- -- --
0000:       00                                            .             
```

#### Opcodes

```
  0: 0x0002 [0x00] END_REQSTACK()
```

### Event 101

#### Metadata

| Field        | Value   |
|--------------|---------|
| Entrypoint   | 0x0003  |
| Data Size    | 1 bytes |
| Instructions | 1       |

```
      00 01 02 03 04 05 06 07  08 09 0A 0B 0C 0D 0E 0F
      -- -- -- -- -- -- -- --  -- -- -- -- -- -- -- --
0000:          00                                          .            
```

#### Opcodes

```
  0: 0x0003 [0x00] END_REQSTACK()
```

### Event 106

#### Metadata

| Field        | Value   |
|--------------|---------|
| Entrypoint   | 0x0004  |
| Data Size    | 1 bytes |
| Instructions | 1       |

```
      00 01 02 03 04 05 06 07  08 09 0A 0B 0C 0D 0E 0F
      -- -- -- -- -- -- -- --  -- -- -- -- -- -- -- --
0000:             00                                        .           
```

#### Opcodes

```
  0: 0x0004 [0x00] END_REQSTACK()
```

### Event 105

#### Metadata

| Field        | Value   |
|--------------|---------|
| Entrypoint   | 0x0005  |
| Data Size    | 1 bytes |
| Instructions | 1       |

```
      00 01 02 03 04 05 06 07  08 09 0A 0B 0C 0D 0E 0F
      -- -- -- -- -- -- -- --  -- -- -- -- -- -- -- --
0000:                00                                      .          
```

#### Opcodes

```
  0: 0x0005 [0x00] END_REQSTACK()
```

### Event 65535.1

#### Metadata

| Field        | Value     |
|--------------|-----------|
| Entrypoint   | 0x0006    |
| Data Size    | 265 bytes |
| Instructions | 45        |

```
      00 01 02 03 04 05 06 07  08 09 0A 0B 0C 0D 0E 0F
      -- -- -- -- -- -- -- --  -- -- -- -- -- -- -- --
0000:                   92 01  23 03 06 01 92 01 24 03        ..#.....$.
0010: 06 01 92 01 D9 02 06 01  92 01 DF 02 06 01 92 01  ................
0020: F4 02 06 01 92 01 F3 02  06 01 92 01 22 03 06 01  ............"...
0030: 92 01 F6 02 06 01 92 01  F7 02 06 01 92 01 F8 02  ................
0040: 06 01 92 01 18 03 06 01  92 01 19 03 06 01 92 01  ................
0050: 21 03 06 01 92 01 CF 02  06 01 92 01 D1 02 06 01  !...............
0060: 92 01 D2 02 06 01 92 01  D0 02 06 01 92 01 11 03  ................
0070: 06 01 92 01 12 03 06 01  92 01 13 03 06 01 92 01  ................
0080: 14 03 06 01 92 01 15 03  06 01 92 01 16 03 06 01  ................
0090: 92 01 01 03 06 01 92 01  02 03 06 01 92 01 03 03  ................
00A0: 06 01 92 01 04 03 06 01  92 01 05 03 06 01 92 01  ................
00B0: 06 03 06 01 92 01 07 03  06 01 92 01 08 03 06 01  ................
00C0: 92 01 E3 02 06 01 92 01  E4 02 06 01 92 01 E5 02  ................
00D0: 06 01 92 01 E6 02 06 01  92 01 E7 02 06 01 92 01  ................
00E0: EA 02 06 01 92 01 EB 02  06 01 92 01 EC 02 06 01  ................
00F0: 92 01 ED 02 06 01 92 01  CE 02 06 01 92 01 DB 02  ................
0100: 06 01 92 01 DD 02 06 01  92 01 D5 02 06 01 00     ............... 
```

#### Opcodes

```
  0: 0x0006 [0x92] Lehko Habhoka (ID: 17171235/0x01060323)->Render.Flags3 ^= 0x01
  1: 0x000C [0x92] Lehko Habhoka (ID: 17171236/0x01060324)->Render.Flags3 ^= 0x01
  2: 0x0012 [0x92] 3 (ID: 17171161/0x010602D9)->Render.Flags3 ^= 0x01
  3: 0x0018 [0x92] 6 (ID: 17171167/0x010602DF)->Render.Flags3 ^= 0x01
  4: 0x001E [0x92] Romaa Mihgo (ID: 17171188/0x010602F4)->Render.Flags3 ^= 0x01
  5: 0x0024 [0x92] Perih Vashai (ID: 17171187/0x010602F3)->Render.Flags3 ^= 0x01
  6: 0x002A [0x92] Joseaneaut (ID: 17171234/0x01060322)->Render.Flags3 ^= 0x01
  7: 0x0030 [0x92] Ghyo Molkot (ID: 17171190/0x010602F6)->Render.Flags3 ^= 0x01
  8: 0x0036 [0x92] Nhiko Rhaabel (ID: 17171191/0x010602F7)->Render.Flags3 ^= 0x01
  9: 0x003C [0x92] Robel-Akbel (ID: 17171192/0x010602F8)->Render.Flags3 ^= 0x01
 10: 0x0042 [0x92] Tihl Midurhi (ID: 17171224/0x01060318)->Render.Flags3 ^= 0x01
 11: 0x0048 [0x92] Mihl Pakorhma (ID: 17171225/0x01060319)->Render.Flags3 ^= 0x01
 12: 0x004E [0x92] Kamolo-Domilo (ID: 17171233/0x01060321)->Render.Flags3 ^= 0x01
 13: 0x0054 [0x92] Lukka-Lakka (ID: 17171151/0x010602CF)->Render.Flags3 ^= 0x01
 14: 0x005A [0x92] Livura-Novora (ID: 17171153/0x010602D1)->Render.Flags3 ^= 0x01
 15: 0x0060 [0x92] Kindel-Bandel (ID: 17171154/0x010602D2)->Render.Flags3 ^= 0x01
 16: 0x0066 [0x92] Pattna-Ottna (ID: 17171152/0x010602D0)->Render.Flags3 ^= 0x01
 17: 0x006C [0x92] 01 (ID: 17171217/0x01060311)->Render.Flags3 ^= 0x01
 18: 0x0072 [0x92] 02 (ID: 17171218/0x01060312)->Render.Flags3 ^= 0x01
 19: 0x0078 [0x92] 03 (ID: 17171219/0x01060313)->Render.Flags3 ^= 0x01
 20: 0x007E [0x92] 04 (ID: 17171220/0x01060314)->Render.Flags3 ^= 0x01
 21: 0x0084 [0x92] 05 (ID: 17171221/0x01060315)->Render.Flags3 ^= 0x01
 22: 0x008A [0x92] 06 (ID: 17171222/0x01060316)->Render.Flags3 ^= 0x01
 23: 0x0090 [0x92] 01 (ID: 17171201/0x01060301)->Render.Flags3 ^= 0x01
 24: 0x0096 [0x92] 02 (ID: 17171202/0x01060302)->Render.Flags3 ^= 0x01
 25: 0x009C [0x92] 03 (ID: 17171203/0x01060303)->Render.Flags3 ^= 0x01
 26: 0x00A2 [0x92] 04 (ID: 17171204/0x01060304)->Render.Flags3 ^= 0x01
 27: 0x00A8 [0x92] 05 (ID: 17171205/0x01060305)->Render.Flags3 ^= 0x01
 28: 0x00AE [0x92] 06 (ID: 17171206/0x01060306)->Render.Flags3 ^= 0x01
 29: 0x00B4 [0x92] 07 (ID: 17171207/0x01060307)->Render.Flags3 ^= 0x01
 30: 0x00BA [0x92] 08 (ID: 17171208/0x01060308)->Render.Flags3 ^= 0x01
 31: 0x00C0 [0x92] 01 (ID: 17171171/0x010602E3)->Render.Flags3 ^= 0x01
 32: 0x00C6 [0x92] 02 (ID: 17171172/0x010602E4)->Render.Flags3 ^= 0x01
 33: 0x00CC [0x92] 03 (ID: 17171173/0x010602E5)->Render.Flags3 ^= 0x01
 34: 0x00D2 [0x92] 04 (ID: 17171174/0x010602E6)->Render.Flags3 ^= 0x01
 35: 0x00D8 [0x92] 05 (ID: 17171175/0x010602E7)->Render.Flags3 ^= 0x01
 36: 0x00DE [0x92] 10 (ID: 17171178/0x010602EA)->Render.Flags3 ^= 0x01
 37: 0x00E4 [0x92] 11 (ID: 17171179/0x010602EB)->Render.Flags3 ^= 0x01
 38: 0x00EA [0x92] 12 (ID: 17171180/0x010602EC)->Render.Flags3 ^= 0x01
 39: 0x00F0 [0x92] 13 (ID: 17171181/0x010602ED)->Render.Flags3 ^= 0x01
 40: 0x00F6 [0x92] Rotih Moalghett (ID: 17171150/0x010602CE)->Render.Flags3 ^= 0x01
 41: 0x00FC [0x92] Yrvaulair S Cousseraux (ID: 17171163/0x010602DB)->Render.Flags3 ^= 0x01
 42: 0x0102 [0x92] Ashmea B Greinner (ID: 17171165/0x010602DD)->Render.Flags3 ^= 0x01
 43: 0x0108 [0x92] Rachemace (ID: 17171157/0x010602D5)->Render.Flags3 ^= 0x01
 44: 0x010E [0x00] END_REQSTACK()
```

### Event 65535.2

#### Metadata

| Field        | Value    |
|--------------|----------|
| Entrypoint   | 0x010F   |
| Data Size    | 55 bytes |
| Instructions | 10       |

```
      00 01 02 03 04 05 06 07  08 09 0A 0B 0C 0D 0E 0F
      -- -- -- -- -- -- -- --  -- -- -- -- -- -- -- --
0100:                                               4E                 N
0110: 01 E3 02 06 01 4E 01 E4  02 06 01 4E 01 E5 02 06  .....N.....N....
0120: 01 4E 01 E6 02 06 01 4E  01 E7 02 06 01 4E 01 EA  .N.....N.....N..
0130: 02 06 01 4E 01 EB 02 06  01 4E 01 EC 02 06 01 4E  ...N.....N.....N
0140: 01 ED 02 06 01 00                                 ......          
```

#### Opcodes

```
  0: 0x010F [0x4E] SET_ENTITY_HIDE_FLAG: Hide 01 (ID: 17171171/0x010602E3)
  1: 0x0115 [0x4E] SET_ENTITY_HIDE_FLAG: Hide 02 (ID: 17171172/0x010602E4)
  2: 0x011B [0x4E] SET_ENTITY_HIDE_FLAG: Hide 03 (ID: 17171173/0x010602E5)
  3: 0x0121 [0x4E] SET_ENTITY_HIDE_FLAG: Hide 04 (ID: 17171174/0x010602E6)
  4: 0x0127 [0x4E] SET_ENTITY_HIDE_FLAG: Hide 05 (ID: 17171175/0x010602E7)
  5: 0x012D [0x4E] SET_ENTITY_HIDE_FLAG: Hide 10 (ID: 17171178/0x010602EA)
  6: 0x0133 [0x4E] SET_ENTITY_HIDE_FLAG: Hide 11 (ID: 17171179/0x010602EB)
  7: 0x0139 [0x4E] SET_ENTITY_HIDE_FLAG: Hide 12 (ID: 17171180/0x010602EC)
  8: 0x013F [0x4E] SET_ENTITY_HIDE_FLAG: Hide 13 (ID: 17171181/0x010602ED)
  9: 0x0145 [0x00] END_REQSTACK()
```

### Event 65535.3

#### Metadata

| Field        | Value    |
|--------------|----------|
| Entrypoint   | 0x0146   |
| Data Size    | 55 bytes |
| Instructions | 10       |

```
      00 01 02 03 04 05 06 07  08 09 0A 0B 0C 0D 0E 0F
      -- -- -- -- -- -- -- --  -- -- -- -- -- -- -- --
0140:                   4E 00  E3 02 06 01 4E 00 E4 02        N.....N...
0150: 06 01 4E 00 E5 02 06 01  4E 00 E6 02 06 01 4E 00  ..N.....N.....N.
0160: E7 02 06 01 4E 00 EA 02  06 01 4E 00 EB 02 06 01  ....N.....N.....
0170: 4E 00 EC 02 06 01 4E 00  ED 02 06 01 00           N.....N......   
```

#### Opcodes

```
  0: 0x0146 [0x4E] SET_ENTITY_HIDE_FLAG: Show 01 (ID: 17171171/0x010602E3)
  1: 0x014C [0x4E] SET_ENTITY_HIDE_FLAG: Show 02 (ID: 17171172/0x010602E4)
  2: 0x0152 [0x4E] SET_ENTITY_HIDE_FLAG: Show 03 (ID: 17171173/0x010602E5)
  3: 0x0158 [0x4E] SET_ENTITY_HIDE_FLAG: Show 04 (ID: 17171174/0x010602E6)
  4: 0x015E [0x4E] SET_ENTITY_HIDE_FLAG: Show 05 (ID: 17171175/0x010602E7)
  5: 0x0164 [0x4E] SET_ENTITY_HIDE_FLAG: Show 10 (ID: 17171178/0x010602EA)
  6: 0x016A [0x4E] SET_ENTITY_HIDE_FLAG: Show 11 (ID: 17171179/0x010602EB)
  7: 0x0170 [0x4E] SET_ENTITY_HIDE_FLAG: Show 12 (ID: 17171180/0x010602EC)
  8: 0x0176 [0x4E] SET_ENTITY_HIDE_FLAG: Show 13 (ID: 17171181/0x010602ED)
  9: 0x017C [0x00] END_REQSTACK()
```

### Event 65535.4

#### Metadata

| Field        | Value   |
|--------------|---------|
| Entrypoint   | 0x017D  |
| Data Size    | 4 bytes |
| Instructions | 2       |

```
      00 01 02 03 04 05 06 07  08 09 0A 0B 0C 0D 0E 0F
      -- -- -- -- -- -- -- --  -- -- -- -- -- -- -- --
0170:                                         1C 02 10               ...
0180: 00                                                .               
```

#### Opcodes

```
  0: 0x017D [0x1C] WAIT(Work_Zone[2] ticks)
  1: 0x0180 [0x00] END_REQSTACK()
```

### Event 112

#### Metadata

| Field        | Value   |
|--------------|---------|
| Entrypoint   | 0x0181  |
| Data Size    | 1 bytes |
| Instructions | 1       |

```
      00 01 02 03 04 05 06 07  08 09 0A 0B 0C 0D 0E 0F
      -- -- -- -- -- -- -- --  -- -- -- -- -- -- -- --
0180:    00                                              .              
```

#### Opcodes

```
  0: 0x0181 [0x00] END_REQSTACK()
```

### Event 113

#### Metadata

| Field        | Value   |
|--------------|---------|
| Entrypoint   | 0x0182  |
| Data Size    | 1 bytes |
| Instructions | 1       |

```
      00 01 02 03 04 05 06 07  08 09 0A 0B 0C 0D 0E 0F
      -- -- -- -- -- -- -- --  -- -- -- -- -- -- -- --
0180:       00                                            .             
```

#### Opcodes

```
  0: 0x0182 [0x00] END_REQSTACK()
```

### Event 65535.5

#### Metadata

| Field        | Value    |
|--------------|----------|
| Entrypoint   | 0x0183   |
| Data Size    | 10 bytes |
| Instructions | 2        |

```
      00 01 02 03 04 05 06 07  08 09 0A 0B 0C 0D 0E 0F
      -- -- -- -- -- -- -- --  -- -- -- -- -- -- -- --
0180:          6C F4 02 06 01  00 80 01 80 00              l.........   
```

#### Opcodes

```
  0: 0x0183 [0x6C] FADE_ENTITY_COLOR(entity_id=Romaa Mihgo (ID: 17171188/0x010602F4), end_alpha=0*, fade_time=1*)
  1: 0x018C [0x00] END_REQSTACK()
```
