# 17171198

## Common Data

| Field            | Value                           |
|------------------|---------------------------------|
| Zone             | Fort Karugo-Narugo [S] (ID: 96) |
| Block Size       | 656 bytes                       |
| Total Events     | 29                              |
| References Count | 28                              |

## List of Events

| Event ID                   | Entrypoint   |   Size |   Instructions |
|----------------------------|--------------|--------|----------------|
| [65535](#event-65535)      | 0x0000       |      1 |              1 |
| [103](#event-103)          | 0x0001       |      1 |              1 |
| [102](#event-102)          | 0x0002       |      1 |              1 |
| [65535.1](#event-655351)   | 0x0003       |     38 |              4 |
| [106](#event-106)          | 0x0029       |      1 |              1 |
| [112](#event-112)          | 0x002A       |      1 |              1 |
| [113](#event-113)          | 0x002B       |      1 |              1 |
| [65535.2](#event-655352)   | 0x002C       |      5 |              2 |
| [65535.3](#event-655353)   | 0x0031       |      5 |              2 |
| [65535.4](#event-655354)   | 0x0036       |      5 |              2 |
| [65535.5](#event-655355)   | 0x003B       |     21 |              2 |
| [65535.6](#event-655356)   | 0x0050       |     21 |              2 |
| [65535.7](#event-655357)   | 0x0065       |      5 |              2 |
| [65535.8](#event-655358)   | 0x006A       |     25 |              3 |
| [65535.9](#event-655359)   | 0x0083       |     25 |              3 |
| [65535.10](#event-6553510) | 0x009C       |     25 |              3 |
| [65535.11](#event-6553511) | 0x00B5       |     14 |              4 |
| [65535.12](#event-6553512) | 0x00C3       |     14 |              4 |
| [65535.13](#event-6553513) | 0x00D1       |     22 |              6 |
| [65535.14](#event-6553514) | 0x00E7       |     37 |              5 |
| [65535.15](#event-6553515) | 0x010C       |     13 |              3 |
| [65535.16](#event-6553516) | 0x0119       |     13 |              3 |
| [65535.17](#event-6553517) | 0x0126       |     13 |              3 |
| [65535.18](#event-6553518) | 0x0133       |     13 |              3 |
| [65535.19](#event-6553519) | 0x0140       |     17 |              3 |
| [65535.20](#event-6553520) | 0x0151       |     19 |              3 |
| [65535.21](#event-6553521) | 0x0164       |     17 |              3 |
| [65535.22](#event-6553522) | 0x0175       |     19 |              3 |
| [65535.23](#event-6553523) | 0x0188       |     19 |              3 |

## DAT References (imed_data)

|   Index | Hex Value   |   Dec Value |
|---------|-------------|-------------|
|       0 | 0x007F      |         127 |
|       1 | 0x0000      |           0 |
|       2 | 0x0014      |          20 |
|       3 | 0x02F3      |         755 |
|       4 | 0x043C      |        1084 |
|       5 | 0x08C3      |        2243 |
|       6 | 0x0007      |           7 |
|       7 | 0x0003      |           3 |
|       8 | 0x005E      |          94 |
|       9 | 0x000E      |          14 |
|      10 | 0x006E      |         110 |
|      11 | 0x0317      |         791 |
|      12 | 0x000D      |          13 |
|      13 | 0xFFFFCF94  |  4294954900 |
|      14 | 0xFFFECAF5  |  4294888181 |
|      15 | 0xFFFEF661  |  4294899297 |
|      16 | 0xFFFFCFBC  |  4294954940 |
|      17 | 0xFFFEC473  |  4294886515 |
|      18 | 0xFFF8DEBA  |  4294500026 |
|      19 | 0xC0BF      |       49343 |
|      20 | 0xFFFF8E45  |  4294938181 |
|      21 | 0x001E      |          30 |
|      22 | 0x0001      |           1 |
|      23 | 0x0005      |           5 |
|      24 | 0x0080      |         128 |
|      25 | 0x002D      |          45 |
|      26 | 0x000F      |          15 |
|      27 | 0x0455      |        1109 |

## Events

### Event 65535

#### Metadata

| Field        | Value   |
|--------------|---------|
| Entrypoint   | 0x0000  |
| Data Size    | 1 bytes |
| Instructions | 1       |

```
      00 01 02 03 04 05 06 07  08 09 0A 0B 0C 0D 0E 0F
      -- -- -- -- -- -- -- --  -- -- -- -- -- -- -- --
0000: 00                                                .               
```

#### Opcodes

```
  0: 0x0000 [0x00] END_REQSTACK()
```

### Event 103

#### Metadata

| Field        | Value   |
|--------------|---------|
| Entrypoint   | 0x0001  |
| Data Size    | 1 bytes |
| Instructions | 1       |

```
      00 01 02 03 04 05 06 07  08 09 0A 0B 0C 0D 0E 0F
      -- -- -- -- -- -- -- --  -- -- -- -- -- -- -- --
0000:    00                                              .              
```

#### Opcodes

```
  0: 0x0001 [0x00] END_REQSTACK()
```

### Event 102

#### Metadata

| Field        | Value   |
|--------------|---------|
| Entrypoint   | 0x0002  |
| Data Size    | 1 bytes |
| Instructions | 1       |

```
      00 01 02 03 04 05 06 07  08 09 0A 0B 0C 0D 0E 0F
      -- -- -- -- -- -- -- --  -- -- -- -- -- -- -- --
0000:       00                                            .             
```

#### Opcodes

```
  0: 0x0002 [0x00] END_REQSTACK()
```

### Event 65535.1

#### Metadata

| Field        | Value    |
|--------------|----------|
| Entrypoint   | 0x0003   |
| Data Size    | 38 bytes |
| Instructions | 4        |

```
      00 01 02 03 04 05 06 07  08 09 0A 0B 0C 0D 0E 0F
      -- -- -- -- -- -- -- --  -- -- -- -- -- -- -- --
0000:          9F 00 80 F8 FF  FF 7F F8 FF FF 7F 73 74     ...........st
0010: 72 30 01 80 1C 02 80 9F  00 80 F8 FF FF 7F F8 FF  r0..............
0020: FF 7F 6B 69 6C 6C 01 80  00                       ..kill...       
```

#### Opcodes

```
  0: 0x0003 [0x9F] LOAD_SCHEDULED_TASK_ALT: Load scheduler "str0" with entities [EventEntity, EventEntity], work=[127*, 0*]
  1: 0x0014 [0x1C] WAIT(20* ticks)
  2: 0x0017 [0x9F] LOAD_SCHEDULED_TASK_ALT: Load scheduler "kill" with entities [EventEntity, EventEntity], work=[127*, 0*]
  3: 0x0028 [0x00] END_REQSTACK()
```

### Event 106

#### Metadata

| Field        | Value   |
|--------------|---------|
| Entrypoint   | 0x0029  |
| Data Size    | 1 bytes |
| Instructions | 1       |

```
      00 01 02 03 04 05 06 07  08 09 0A 0B 0C 0D 0E 0F
      -- -- -- -- -- -- -- --  -- -- -- -- -- -- -- --
0020:                             00                             .      
```

#### Opcodes

```
  0: 0x0029 [0x00] END_REQSTACK()
```

### Event 112

#### Metadata

| Field        | Value   |
|--------------|---------|
| Entrypoint   | 0x002A  |
| Data Size    | 1 bytes |
| Instructions | 1       |

```
      00 01 02 03 04 05 06 07  08 09 0A 0B 0C 0D 0E 0F
      -- -- -- -- -- -- -- --  -- -- -- -- -- -- -- --
0020:                                00                           .     
```

#### Opcodes

```
  0: 0x002A [0x00] END_REQSTACK()
```

### Event 113

#### Metadata

| Field        | Value   |
|--------------|---------|
| Entrypoint   | 0x002B  |
| Data Size    | 1 bytes |
| Instructions | 1       |

```
      00 01 02 03 04 05 06 07  08 09 0A 0B 0C 0D 0E 0F
      -- -- -- -- -- -- -- --  -- -- -- -- -- -- -- --
0020:                                   00                         .    
```

#### Opcodes

```
  0: 0x002B [0x00] END_REQSTACK()
```

### Event 65535.2

#### Metadata

| Field        | Value   |
|--------------|---------|
| Entrypoint   | 0x002C  |
| Data Size    | 5 bytes |
| Instructions | 2       |

```
      00 01 02 03 04 05 06 07  08 09 0A 0B 0C 0D 0E 0F
      -- -- -- -- -- -- -- --  -- -- -- -- -- -- -- --
0020:                                      B6 00 03 80              ....
0030: 00                                                .               
```

#### Opcodes

```
  0: 0x002C [0xB6] ENTITY_APPEARANCE_HANDLER(case=Hair style, value=755*)
  1: 0x0030 [0x00] END_REQSTACK()
```

### Event 65535.3

#### Metadata

| Field        | Value   |
|--------------|---------|
| Entrypoint   | 0x0031  |
| Data Size    | 5 bytes |
| Instructions | 2       |

```
      00 01 02 03 04 05 06 07  08 09 0A 0B 0C 0D 0E 0F
      -- -- -- -- -- -- -- --  -- -- -- -- -- -- -- --
0030:    B6 00 04 80 00                                  .....          
```

#### Opcodes

```
  0: 0x0031 [0xB6] ENTITY_APPEARANCE_HANDLER(case=Hair style, value=1084*)
  1: 0x0035 [0x00] END_REQSTACK()
```

### Event 65535.4

#### Metadata

| Field        | Value   |
|--------------|---------|
| Entrypoint   | 0x0036  |
| Data Size    | 5 bytes |
| Instructions | 2       |

```
      00 01 02 03 04 05 06 07  08 09 0A 0B 0C 0D 0E 0F
      -- -- -- -- -- -- -- --  -- -- -- -- -- -- -- --
0030:                   B6 00  05 80 00                       .....     
```

#### Opcodes

```
  0: 0x0036 [0xB6] ENTITY_APPEARANCE_HANDLER(case=Hair style, value=2243*)
  1: 0x003A [0x00] END_REQSTACK()
```

### Event 65535.5

#### Metadata

| Field        | Value    |
|--------------|----------|
| Entrypoint   | 0x003B   |
| Data Size    | 21 bytes |
| Instructions | 2        |

```
      00 01 02 03 04 05 06 07  08 09 0A 0B 0C 0D 0E 0F
      -- -- -- -- -- -- -- --  -- -- -- -- -- -- -- --
0030:                                   B6 0B 06 80 07             .....
0040: 80 01 80 08 80 08 80 09  80 09 80 01 80 01 80 00  ................
```

#### Opcodes

```
  0: 0x003B [0xB6] ENTITY_APPEARANCE_HANDLER(case=Full entity look, race=7*, hair=3*, head=0*, body=94*, hands=94*, legs=14*, feet=14*, main=0*, sub=0*)
  1: 0x004F [0x00] END_REQSTACK()
```

### Event 65535.6

#### Metadata

| Field        | Value    |
|--------------|----------|
| Entrypoint   | 0x0050   |
| Data Size    | 21 bytes |
| Instructions | 2        |

```
      00 01 02 03 04 05 06 07  08 09 0A 0B 0C 0D 0E 0F
      -- -- -- -- -- -- -- --  -- -- -- -- -- -- -- --
0050: B6 0B 06 80 07 80 01 80  08 80 08 80 09 80 09 80  ................
0060: 0A 80 01 80 00                                    .....           
```

#### Opcodes

```
  0: 0x0050 [0xB6] ENTITY_APPEARANCE_HANDLER(case=Full entity look, race=7*, hair=3*, head=0*, body=94*, hands=94*, legs=14*, feet=14*, main=110*, sub=0*)
  1: 0x0064 [0x00] END_REQSTACK()
```

### Event 65535.7

#### Metadata

| Field        | Value   |
|--------------|---------|
| Entrypoint   | 0x0065  |
| Data Size    | 5 bytes |
| Instructions | 2       |

```
      00 01 02 03 04 05 06 07  08 09 0A 0B 0C 0D 0E 0F
      -- -- -- -- -- -- -- --  -- -- -- -- -- -- -- --
0060:                B6 00 0B  80 00                         .....      
```

#### Opcodes

```
  0: 0x0065 [0xB6] ENTITY_APPEARANCE_HANDLER(case=Hair style, value=791*)
  1: 0x0069 [0x00] END_REQSTACK()
```

### Event 65535.8

#### Metadata

| Field        | Value    |
|--------------|----------|
| Entrypoint   | 0x006A   |
| Data Size    | 25 bytes |
| Instructions | 3        |

```
      00 01 02 03 04 05 06 07  08 09 0A 0B 0C 0D 0E 0F
      -- -- -- -- -- -- -- --  -- -- -- -- -- -- -- --
0060:                                B4 00 00 00 3F 3F            ....??
0070: 3F 00 00 00 00 00 00 00  00 00 00 00 00 00 B5 00  ?...............
0080: 00 00 00                                          ...             
```

#### Opcodes

```
  0: 0x006A [0xB4] UI_WINDOW_STRING_HANDLER(case=0x00 - Copy string from opcode, work_offset=ExtData[1]->WorkLocal[0], string="???")
  1: 0x007E [0xB5] SET_EVENT_ENTITY_NAME: Change EventEntity name to ExtData[1]->WorkLocal[0]
  2: 0x0082 [0x00] END_REQSTACK()
```

### Event 65535.9

#### Metadata

| Field        | Value    |
|--------------|----------|
| Entrypoint   | 0x0083   |
| Data Size    | 25 bytes |
| Instructions | 3        |

```
      00 01 02 03 04 05 06 07  08 09 0A 0B 0C 0D 0E 0F
      -- -- -- -- -- -- -- --  -- -- -- -- -- -- -- --
0080:          B4 00 00 00 52  6F 62 65 6C 2D 41 6B 62     ....Robel-Akb
0090: 65 6C 00 00 00 00 00 B5  00 00 00 00              el..........    
```

#### Opcodes

```
  0: 0x0083 [0xB4] UI_WINDOW_STRING_HANDLER(case=0x00 - Copy string from opcode, work_offset=ExtData[1]->WorkLocal[0], string="Robel-Akbel")
  1: 0x0097 [0xB5] SET_EVENT_ENTITY_NAME: Change EventEntity name to ExtData[1]->WorkLocal[0]
  2: 0x009B [0x00] END_REQSTACK()
```

### Event 65535.10

#### Metadata

| Field        | Value    |
|--------------|----------|
| Entrypoint   | 0x009C   |
| Data Size    | 25 bytes |
| Instructions | 3        |

```
      00 01 02 03 04 05 06 07  08 09 0A 0B 0C 0D 0E 0F
      -- -- -- -- -- -- -- --  -- -- -- -- -- -- -- --
0090:                                      B4 00 00 00              ....
00A0: 30 32 00 00 00 00 00 00  00 00 00 00 00 00 00 00  02..............
00B0: B5 00 00 00 00                                    .....           
```

#### Opcodes

```
  0: 0x009C [0xB4] UI_WINDOW_STRING_HANDLER(case=0x00 - Copy string from opcode, work_offset=ExtData[1]->WorkLocal[0], string="02")
  1: 0x00B0 [0xB5] SET_EVENT_ENTITY_NAME: Change EventEntity name to ExtData[1]->WorkLocal[0]
  2: 0x00B4 [0x00] END_REQSTACK()
```

### Event 65535.11

#### Metadata

| Field        | Value    |
|--------------|----------|
| Entrypoint   | 0x00B5   |
| Data Size    | 14 bytes |
| Instructions | 4        |

```
      00 01 02 03 04 05 06 07  08 09 0A 0B 0C 0D 0E 0F
      -- -- -- -- -- -- -- --  -- -- -- -- -- -- -- --
00B0:                32 0C 80  1F 00 0D 80 0E 80 0F 80       2..........
00C0: 1F 01 00                                          ...             
```

#### Opcodes

```
  0: 0x00B5 [0x32] ExtData[1]->MainSpeed = 13* * 0.1
  1: 0x00B8 [0x1F] MOVE_ENTITY: EventEntity moves to X=-12.396*, Z=-79.115*, Y=-67.999*
  2: 0x00C0 [0x1F] MOVE_ENTITY: Update entity position (mode=1)
  3: 0x00C2 [0x00] END_REQSTACK()
```

### Event 65535.12

#### Metadata

| Field        | Value    |
|--------------|----------|
| Entrypoint   | 0x00C3   |
| Data Size    | 14 bytes |
| Instructions | 4        |

```
      00 01 02 03 04 05 06 07  08 09 0A 0B 0C 0D 0E 0F
      -- -- -- -- -- -- -- --  -- -- -- -- -- -- -- --
00C0:          32 0C 80 1F 00  10 80 11 80 0F 80 1F 01     2............
00D0: 00                                                .               
```

#### Opcodes

```
  0: 0x00C3 [0x32] ExtData[1]->MainSpeed = 13* * 0.1
  1: 0x00C6 [0x1F] MOVE_ENTITY: EventEntity moves to X=-12.356*, Z=-80.781*, Y=-67.999*
  2: 0x00CE [0x1F] MOVE_ENTITY: Update entity position (mode=1)
  3: 0x00D0 [0x00] END_REQSTACK()
```

### Event 65535.13

#### Metadata

| Field        | Value    |
|--------------|----------|
| Entrypoint   | 0x00D1   |
| Data Size    | 22 bytes |
| Instructions | 6        |

```
      00 01 02 03 04 05 06 07  08 09 0A 0B 0C 0D 0E 0F
      -- -- -- -- -- -- -- --  -- -- -- -- -- -- -- --
00D0:    32 0C 80 5A 00 12 80  13 80 14 80 5A 01 1E F0   2..Z.......Z...
00E0: FF FF 7F 1C 15 80 00                              .......         
```

#### Opcodes

```
  0: 0x00D1 [0x32] ExtData[1]->MainSpeed = 13* * 0.1
  1: 0x00D4 [0x5A] UPDATE_EVENT_POSITION: Set EventEntity MovePosition to X=-467.270*, Z=49.343*, Y=-29.115*
  2: 0x00DC [0x5A] UPDATE_EVENT_POSITION: Move EventEntity incrementally towards MovePosition
  3: 0x00DE [0x1E] EventEntity looks at LocalPlayer and starts talking
  4: 0x00E3 [0x1C] WAIT(30* ticks)
  5: 0x00E6 [0x00] END_REQSTACK()
```

### Event 65535.14

#### Metadata

| Field        | Value    |
|--------------|----------|
| Entrypoint   | 0x00E7   |
| Data Size    | 37 bytes |
| Instructions | 5        |

```
      00 01 02 03 04 05 06 07  08 09 0A 0B 0C 0D 0E 0F
      -- -- -- -- -- -- -- --  -- -- -- -- -- -- -- --
00E0:                      6C  E3 02 06 01 01 80 16 80         l........
00F0: 6C E4 02 06 01 01 80 16  80 6C E6 02 06 01 01 80  l........l......
0100: 16 80 6C E7 02 06 01 01  80 16 80 00              ..l.........    
```

#### Opcodes

```
  0: 0x00E7 [0x6C] FADE_ENTITY_COLOR(entity_id=01 (ID: 17171171/0x010602E3), end_alpha=0*, fade_time=1*)
  1: 0x00F0 [0x6C] FADE_ENTITY_COLOR(entity_id=02 (ID: 17171172/0x010602E4), end_alpha=0*, fade_time=1*)
  2: 0x00F9 [0x6C] FADE_ENTITY_COLOR(entity_id=04 (ID: 17171174/0x010602E6), end_alpha=0*, fade_time=1*)
  3: 0x0102 [0x6C] FADE_ENTITY_COLOR(entity_id=05 (ID: 17171175/0x010602E7), end_alpha=0*, fade_time=1*)
  4: 0x010B [0x00] END_REQSTACK()
```

### Event 65535.15

#### Metadata

| Field        | Value    |
|--------------|----------|
| Entrypoint   | 0x010C   |
| Data Size    | 13 bytes |
| Instructions | 3        |

```
      00 01 02 03 04 05 06 07  08 09 0A 0B 0C 0D 0E 0F
      -- -- -- -- -- -- -- --  -- -- -- -- -- -- -- --
0100:                                      1C 17 80 6C              ...l
0110: E3 02 06 01 18 80 16 80  00                       .........       
```

#### Opcodes

```
  0: 0x010C [0x1C] WAIT(5* ticks)
  1: 0x010F [0x6C] FADE_ENTITY_COLOR(entity_id=01 (ID: 17171171/0x010602E3), end_alpha=128*, fade_time=1*)
  2: 0x0118 [0x00] END_REQSTACK()
```

### Event 65535.16

#### Metadata

| Field        | Value    |
|--------------|----------|
| Entrypoint   | 0x0119   |
| Data Size    | 13 bytes |
| Instructions | 3        |

```
      00 01 02 03 04 05 06 07  08 09 0A 0B 0C 0D 0E 0F
      -- -- -- -- -- -- -- --  -- -- -- -- -- -- -- --
0110:                             1C 17 80 6C E4 02 06           ...l...
0120: 01 18 80 16 80 00                                 ......          
```

#### Opcodes

```
  0: 0x0119 [0x1C] WAIT(5* ticks)
  1: 0x011C [0x6C] FADE_ENTITY_COLOR(entity_id=02 (ID: 17171172/0x010602E4), end_alpha=128*, fade_time=1*)
  2: 0x0125 [0x00] END_REQSTACK()
```

### Event 65535.17

#### Metadata

| Field        | Value    |
|--------------|----------|
| Entrypoint   | 0x0126   |
| Data Size    | 13 bytes |
| Instructions | 3        |

```
      00 01 02 03 04 05 06 07  08 09 0A 0B 0C 0D 0E 0F
      -- -- -- -- -- -- -- --  -- -- -- -- -- -- -- --
0120:                   1C 17  80 6C E6 02 06 01 18 80        ...l......
0130: 16 80 00                                          ...             
```

#### Opcodes

```
  0: 0x0126 [0x1C] WAIT(5* ticks)
  1: 0x0129 [0x6C] FADE_ENTITY_COLOR(entity_id=04 (ID: 17171174/0x010602E6), end_alpha=128*, fade_time=1*)
  2: 0x0132 [0x00] END_REQSTACK()
```

### Event 65535.18

#### Metadata

| Field        | Value    |
|--------------|----------|
| Entrypoint   | 0x0133   |
| Data Size    | 13 bytes |
| Instructions | 3        |

```
      00 01 02 03 04 05 06 07  08 09 0A 0B 0C 0D 0E 0F
      -- -- -- -- -- -- -- --  -- -- -- -- -- -- -- --
0130:          1C 17 80 6C E7  02 06 01 18 80 16 80 00     ...l.........
```

#### Opcodes

```
  0: 0x0133 [0x1C] WAIT(5* ticks)
  1: 0x0136 [0x6C] FADE_ENTITY_COLOR(entity_id=05 (ID: 17171175/0x010602E7), end_alpha=128*, fade_time=1*)
  2: 0x013F [0x00] END_REQSTACK()
```

### Event 65535.19

#### Metadata

| Field        | Value    |
|--------------|----------|
| Entrypoint   | 0x0140   |
| Data Size    | 17 bytes |
| Instructions | 3        |

```
      00 01 02 03 04 05 06 07  08 09 0A 0B 0C 0D 0E 0F
      -- -- -- -- -- -- -- --  -- -- -- -- -- -- -- --
0140: 1C 19 80 2C E3 02 06 01  E3 02 06 01 64 65 61 64  ...,........dead
0150: 00                                                .               
```

#### Opcodes

```
  0: 0x0140 [0x1C] WAIT(45* ticks)
  1: 0x0143 [0x2C] CREATE_SCHEDULER_TASK: Create scheduler "dead" with entities [01 (ID: 17171171/0x010602E3), 01 (ID: 17171171/0x010602E3)]
  2: 0x0150 [0x00] END_REQSTACK()
```

### Event 65535.20

#### Metadata

| Field        | Value    |
|--------------|----------|
| Entrypoint   | 0x0151   |
| Data Size    | 19 bytes |
| Instructions | 3        |

```
      00 01 02 03 04 05 06 07  08 09 0A 0B 0C 0D 0E 0F
      -- -- -- -- -- -- -- --  -- -- -- -- -- -- -- --
0150:    1C 1A 80 5B 1B 80 E4  02 06 01 E4 02 06 01 6D   ...[..........m
0160: 67 62 32 00                                       gb2.            
```

#### Opcodes

```
  0: 0x0151 [0x1C] WAIT(15* ticks)
  1: 0x0154 [0x5B] LOAD_EXT_SCHEDULER: Load scheduler "mgb2" with entities [02 (ID: 17171172/0x010602E4), 02 (ID: 17171172/0x010602E4)], work=1109*
  2: 0x0163 [0x00] END_REQSTACK()
```

### Event 65535.21

#### Metadata

| Field        | Value    |
|--------------|----------|
| Entrypoint   | 0x0164   |
| Data Size    | 17 bytes |
| Instructions | 3        |

```
      00 01 02 03 04 05 06 07  08 09 0A 0B 0C 0D 0E 0F
      -- -- -- -- -- -- -- --  -- -- -- -- -- -- -- --
0160:             1C 19 80 2C  E6 02 06 01 E6 02 06 01      ...,........
0170: 64 65 61 64 00                                    dead.           
```

#### Opcodes

```
  0: 0x0164 [0x1C] WAIT(45* ticks)
  1: 0x0167 [0x2C] CREATE_SCHEDULER_TASK: Create scheduler "dead" with entities [04 (ID: 17171174/0x010602E6), 04 (ID: 17171174/0x010602E6)]
  2: 0x0174 [0x00] END_REQSTACK()
```

### Event 65535.22

#### Metadata

| Field        | Value    |
|--------------|----------|
| Entrypoint   | 0x0175   |
| Data Size    | 19 bytes |
| Instructions | 3        |

```
      00 01 02 03 04 05 06 07  08 09 0A 0B 0C 0D 0E 0F
      -- -- -- -- -- -- -- --  -- -- -- -- -- -- -- --
0170:                1C 1A 80  5B 1B 80 E7 02 06 01 E7       ...[.......
0180: 02 06 01 6D 67 62 32 00                           ...mgb2.        
```

#### Opcodes

```
  0: 0x0175 [0x1C] WAIT(15* ticks)
  1: 0x0178 [0x5B] LOAD_EXT_SCHEDULER: Load scheduler "mgb2" with entities [05 (ID: 17171175/0x010602E7), 05 (ID: 17171175/0x010602E7)], work=1109*
  2: 0x0187 [0x00] END_REQSTACK()
```

### Event 65535.23

#### Metadata

| Field        | Value    |
|--------------|----------|
| Entrypoint   | 0x0188   |
| Data Size    | 19 bytes |
| Instructions | 3        |

```
      00 01 02 03 04 05 06 07  08 09 0A 0B 0C 0D 0E 0F
      -- -- -- -- -- -- -- --  -- -- -- -- -- -- -- --
0180:                          1C 1A 80 5B 1B 80 EB 02          ...[....
0190: 06 01 EB 02 06 01 6D 67  62 32 00                 ......mgb2.     
```

#### Opcodes

```
  0: 0x0188 [0x1C] WAIT(15* ticks)
  1: 0x018B [0x5B] LOAD_EXT_SCHEDULER: Load scheduler "mgb2" with entities [11 (ID: 17171179/0x010602EB), 11 (ID: 17171179/0x010602EB)], work=1109*
  2: 0x019A [0x00] END_REQSTACK()
```
