# 17171009

## Common Data

| Field            | Value                           |
|------------------|---------------------------------|
| Zone             | Fort Karugo-Narugo [S] (ID: 96) |
| Block Size       | 284 bytes                       |
| Total Events     | 5                               |
| References Count | 8                               |

## List of Events

| Event ID                 | Entrypoint   |   Size |   Instructions |
|--------------------------|--------------|--------|----------------|
| [65535](#event-65535)    | 0x0000       |      1 |              1 |
| [250](#event-250)        | 0x0001       |     40 |             14 |
| [251](#event-251)        | 0x0029       |     46 |             16 |
| [252](#event-252)        | 0x0057       |     58 |             20 |
| [65535.1](#event-655351) | 0x0091       |     70 |             24 |

## DAT References (imed_data)

|   Index | Hex Value   |   Dec Value |
|---------|-------------|-------------|
|       0 | 0x0000      |           0 |
|       1 | 0x002E      |          46 |
|       2 | 0x001E      |          30 |
|       3 | 0x1E3E      |        7742 |
|       4 | 0x0384      |         900 |
|       5 | 0x1E3F      |        7743 |
|       6 | 0x1E41      |        7745 |
|       7 | 0x1E40      |        7744 |

## String References

- **7742**: Commencing intel extraction.
- **7743**: ccGathering intelcc
- **7744**: ccccGathering intelcccc
- **7745**: Investigation complete!

## Events

### Event 65535

#### Metadata

| Field        | Value   |
|--------------|---------|
| Entrypoint   | 0x0000  |
| Data Size    | 1 bytes |
| Instructions | 1       |

```
      00 01 02 03 04 05 06 07  08 09 0A 0B 0C 0D 0E 0F
      -- -- -- -- -- -- -- --  -- -- -- -- -- -- -- --
0000: 00                                                .               
```

#### Opcodes

```
  0: 0x0000 [0x00] END_REQSTACK()
```

### Event 250

#### Metadata

| Field        | Value    |
|--------------|----------|
| Entrypoint   | 0x0001   |
| Data Size    | 40 bytes |
| Instructions | 14       |

```
      00 01 02 03 04 05 06 07  08 09 0A 0B 0C 0D 0E 0F
      -- -- -- -- -- -- -- --  -- -- -- -- -- -- -- --
0000:    20 01 2E 38 00 80 6E  F0 FF FF 7F 01 80 99 F0    ..8..n........
0010: FF FF 7F 1C 02 80 48 03  80 1C 04 80 48 05 80 1C  ......H.....H...
0020: 04 80 48 06 80 20 00 21  00                       ..H.. .!.       
```

#### Opcodes

```
  0: 0x0001 [0x20] SET_CLI_EVENT_UC_FLAG: Lock player control
  1: 0x0003 [0x2E] SET_CLI_EVENT_CANCEL_FLAGS()
  2: 0x0004 [0x38] SET_CLIENT_EVENT_MODE(mode=0*)
  3: 0x0007 [0x6E] LocalPlayer uses emote 46*
  4: 0x000E [0x99] Wait for LocalPlayer animation to complete
  5: 0x0013 [0x1C] WAIT(30* ticks)
  6: 0x0016 [0x48] [System] [7742*]:
    → "Commencing intel extraction."
  7: 0x0019 [0x1C] WAIT(900* ticks)
  8: 0x001C [0x48] [System] [7743*]:
    → "ccGathering intelcc"
  9: 0x001F [0x1C] WAIT(900* ticks)
 10: 0x0022 [0x48] [System] [7745*]:
    → "Investigation complete!"
 11: 0x0025 [0x20] SET_CLI_EVENT_UC_FLAG: Unlock player control
 12: 0x0027 [0x21] END_EVENT
 13: 0x0028 [0x00] END_REQSTACK()
```

### Event 251

#### Metadata

| Field        | Value    |
|--------------|----------|
| Entrypoint   | 0x0029   |
| Data Size    | 46 bytes |
| Instructions | 16       |

```
      00 01 02 03 04 05 06 07  08 09 0A 0B 0C 0D 0E 0F
      -- -- -- -- -- -- -- --  -- -- -- -- -- -- -- --
0020:                             20 01 2E 38 00 80 6E            ..8..n
0030: F0 FF FF 7F 01 80 99 F0  FF FF 7F 1C 02 80 48 03  ..............H.
0040: 80 1C 04 80 48 05 80 1C  04 80 48 07 80 1C 04 80  ....H.....H.....
0050: 48 06 80 20 00 21 00                              H.. .!.         
```

#### Opcodes

```
  0: 0x0029 [0x20] SET_CLI_EVENT_UC_FLAG: Lock player control
  1: 0x002B [0x2E] SET_CLI_EVENT_CANCEL_FLAGS()
  2: 0x002C [0x38] SET_CLIENT_EVENT_MODE(mode=0*)
  3: 0x002F [0x6E] LocalPlayer uses emote 46*
  4: 0x0036 [0x99] Wait for LocalPlayer animation to complete
  5: 0x003B [0x1C] WAIT(30* ticks)
  6: 0x003E [0x48] [System] [7742*]:
    → "Commencing intel extraction."
  7: 0x0041 [0x1C] WAIT(900* ticks)
  8: 0x0044 [0x48] [System] [7743*]:
    → "ccGathering intelcc"
  9: 0x0047 [0x1C] WAIT(900* ticks)
 10: 0x004A [0x48] [System] [7744*]:
    → "ccccGathering intelcccc"
 11: 0x004D [0x1C] WAIT(900* ticks)
 12: 0x0050 [0x48] [System] [7745*]:
    → "Investigation complete!"
 13: 0x0053 [0x20] SET_CLI_EVENT_UC_FLAG: Unlock player control
 14: 0x0055 [0x21] END_EVENT
 15: 0x0056 [0x00] END_REQSTACK()
```

### Event 252

#### Metadata

| Field        | Value    |
|--------------|----------|
| Entrypoint   | 0x0057   |
| Data Size    | 58 bytes |
| Instructions | 20       |

```
      00 01 02 03 04 05 06 07  08 09 0A 0B 0C 0D 0E 0F
      -- -- -- -- -- -- -- --  -- -- -- -- -- -- -- --
0050:                      20  01 2E 38 00 80 6E F0 FF          ..8..n..
0060: FF 7F 01 80 99 F0 FF FF  7F 1C 02 80 48 03 80 1C  ............H...
0070: 04 80 48 05 80 1C 04 80  48 05 80 1C 04 80 48 07  ..H.....H.....H.
0080: 80 1C 04 80 48 07 80 1C  04 80 48 06 80 20 00 21  ....H.....H.. .!
0090: 00                                                .               
```

#### Opcodes

```
  0: 0x0057 [0x20] SET_CLI_EVENT_UC_FLAG: Lock player control
  1: 0x0059 [0x2E] SET_CLI_EVENT_CANCEL_FLAGS()
  2: 0x005A [0x38] SET_CLIENT_EVENT_MODE(mode=0*)
  3: 0x005D [0x6E] LocalPlayer uses emote 46*
  4: 0x0064 [0x99] Wait for LocalPlayer animation to complete
  5: 0x0069 [0x1C] WAIT(30* ticks)
  6: 0x006C [0x48] [System] [7742*]:
    → "Commencing intel extraction."
  7: 0x006F [0x1C] WAIT(900* ticks)
  8: 0x0072 [0x48] [System] [7743*]:
    → "ccGathering intelcc"
  9: 0x0075 [0x1C] WAIT(900* ticks)
 10: 0x0078 [0x48] [System] [7743*]:
    → "ccGathering intelcc"
 11: 0x007B [0x1C] WAIT(900* ticks)
 12: 0x007E [0x48] [System] [7744*]:
    → "ccccGathering intelcccc"
 13: 0x0081 [0x1C] WAIT(900* ticks)
 14: 0x0084 [0x48] [System] [7744*]:
    → "ccccGathering intelcccc"
 15: 0x0087 [0x1C] WAIT(900* ticks)
 16: 0x008A [0x48] [System] [7745*]:
    → "Investigation complete!"
 17: 0x008D [0x20] SET_CLI_EVENT_UC_FLAG: Unlock player control
 18: 0x008F [0x21] END_EVENT
 19: 0x0090 [0x00] END_REQSTACK()
```

### Event 65535.1

#### Metadata

| Field        | Value    |
|--------------|----------|
| Entrypoint   | 0x0091   |
| Data Size    | 70 bytes |
| Instructions | 24       |

```
      00 01 02 03 04 05 06 07  08 09 0A 0B 0C 0D 0E 0F
      -- -- -- -- -- -- -- --  -- -- -- -- -- -- -- --
0090:    20 01 2E 38 00 80 6E  F0 FF FF 7F 01 80 99 F0    ..8..n........
00A0: FF FF 7F 1C 02 80 48 03  80 1C 04 80 48 05 80 1C  ......H.....H...
00B0: 04 80 48 05 80 1C 04 80  48 05 80 1C 04 80 48 07  ..H.....H.....H.
00C0: 80 1C 04 80 48 07 80 1C  04 80 48 07 80 1C 04 80  ....H.....H.....
00D0: 48 06 80 20 00 21 00                              H.. .!.         
```

#### Opcodes

```
  0: 0x0091 [0x20] SET_CLI_EVENT_UC_FLAG: Lock player control
  1: 0x0093 [0x2E] SET_CLI_EVENT_CANCEL_FLAGS()
  2: 0x0094 [0x38] SET_CLIENT_EVENT_MODE(mode=0*)
  3: 0x0097 [0x6E] LocalPlayer uses emote 46*
  4: 0x009E [0x99] Wait for LocalPlayer animation to complete
  5: 0x00A3 [0x1C] WAIT(30* ticks)
  6: 0x00A6 [0x48] [System] [7742*]:
    → "Commencing intel extraction."
  7: 0x00A9 [0x1C] WAIT(900* ticks)
  8: 0x00AC [0x48] [System] [7743*]:
    → "ccGathering intelcc"
  9: 0x00AF [0x1C] WAIT(900* ticks)
 10: 0x00B2 [0x48] [System] [7743*]:
    → "ccGathering intelcc"
 11: 0x00B5 [0x1C] WAIT(900* ticks)
 12: 0x00B8 [0x48] [System] [7743*]:
    → "ccGathering intelcc"
 13: 0x00BB [0x1C] WAIT(900* ticks)
 14: 0x00BE [0x48] [System] [7744*]:
    → "ccccGathering intelcccc"
 15: 0x00C1 [0x1C] WAIT(900* ticks)
 16: 0x00C4 [0x48] [System] [7744*]:
    → "ccccGathering intelcccc"
 17: 0x00C7 [0x1C] WAIT(900* ticks)
 18: 0x00CA [0x48] [System] [7744*]:
    → "ccccGathering intelcccc"
 19: 0x00CD [0x1C] WAIT(900* ticks)
 20: 0x00D0 [0x48] [System] [7745*]:
    → "Investigation complete!"
 21: 0x00D3 [0x20] SET_CLI_EVENT_UC_FLAG: Unlock player control
 22: 0x00D5 [0x21] END_EVENT
 23: 0x00D6 [0x00] END_REQSTACK()
```
