# 17171181 - 13

## Common Data

| Field            | Value                           |
|------------------|---------------------------------|
| Zone             | Fort Karugo-Narugo [S] (ID: 96) |
| Block Size       | 1972 bytes                      |
| Total Events     | 80                              |
| References Count | 168                             |

## List of Events

| Event ID                   | Entrypoint   |   Size |   Instructions |
|----------------------------|--------------|--------|----------------|
| [65535](#event-65535)      | 0x0000       |      1 |              1 |
| [106](#event-106)          | 0x0001       |      1 |              1 |
| [105](#event-105)          | 0x0002       |      1 |              1 |
| [65535.1](#event-655351)   | 0x0003       |     15 |              5 |
| [65535.2](#event-655352)   | 0x0012       |     24 |              6 |
| [65535.3](#event-655353)   | 0x002A       |     24 |              6 |
| [65535.4](#event-655354)   | 0x0042       |     15 |              5 |
| [65535.5](#event-655355)   | 0x0051       |     40 |              8 |
| [65535.6](#event-655356)   | 0x0079       |     14 |              2 |
| [113](#event-113)          | 0x0087       |      1 |              1 |
| [65535.7](#event-655357)   | 0x0088       |      5 |              2 |
| [65535.8](#event-655358)   | 0x008D       |      5 |              2 |
| [65535.9](#event-655359)   | 0x0092       |      5 |              2 |
| [65535.10](#event-6553510) | 0x0097       |     21 |              2 |
| [65535.11](#event-6553511) | 0x00AC       |     21 |              2 |
| [65535.12](#event-6553512) | 0x00C1       |      5 |              2 |
| [65535.13](#event-6553513) | 0x00C6       |     25 |              3 |
| [65535.14](#event-6553514) | 0x00DF       |     25 |              3 |
| [65535.15](#event-6553515) | 0x00F8       |     25 |              3 |
| [65535.16](#event-6553516) | 0x0111       |     14 |              4 |
| [65535.17](#event-6553517) | 0x011F       |     14 |              4 |
| [65535.18](#event-6553518) | 0x012D       |     22 |              6 |
| [65535.19](#event-6553519) | 0x0143       |      5 |              2 |
| [65535.20](#event-6553520) | 0x0148       |      5 |              2 |
| [65535.21](#event-6553521) | 0x014D       |      5 |              2 |
| [65535.22](#event-6553522) | 0x0152       |      5 |              2 |
| [65535.23](#event-6553523) | 0x0157       |      5 |              2 |
| [65535.24](#event-6553524) | 0x015C       |      5 |              2 |
| [65535.25](#event-6553525) | 0x0161       |      5 |              2 |
| [65535.26](#event-6553526) | 0x0166       |      5 |              2 |
| [65535.27](#event-6553527) | 0x016B       |      5 |              2 |
| [65535.28](#event-6553528) | 0x0170       |      5 |              2 |
| [65535.29](#event-6553529) | 0x0175       |      5 |              2 |
| [65535.30](#event-6553530) | 0x017A       |      5 |              2 |
| [65535.31](#event-6553531) | 0x017F       |      5 |              2 |
| [65535.32](#event-6553532) | 0x0184       |      5 |              2 |
| [65535.33](#event-6553533) | 0x0189       |      5 |              2 |
| [65535.34](#event-6553534) | 0x018E       |      5 |              2 |
| [65535.35](#event-6553535) | 0x0193       |      5 |              2 |
| [65535.36](#event-6553536) | 0x0198       |      5 |              2 |
| [65535.37](#event-6553537) | 0x019D       |      5 |              2 |
| [65535.38](#event-6553538) | 0x01A2       |      5 |              2 |
| [65535.39](#event-6553539) | 0x01A7       |      5 |              2 |
| [65535.40](#event-6553540) | 0x01AC       |      5 |              2 |
| [65535.41](#event-6553541) | 0x01B1       |     18 |              6 |
| [65535.42](#event-6553542) | 0x01C3       |     15 |              5 |
| [65535.43](#event-6553543) | 0x01D2       |     18 |              6 |
| [65535.44](#event-6553544) | 0x01E4       |     18 |              6 |
| [65535.45](#event-6553545) | 0x01F6       |     18 |              6 |
| [65535.46](#event-6553546) | 0x0208       |     18 |              6 |
| [65535.47](#event-6553547) | 0x021A       |     18 |              6 |
| [65535.48](#event-6553548) | 0x022C       |     18 |              6 |
| [65535.49](#event-6553549) | 0x023E       |      5 |              2 |
| [65535.50](#event-6553550) | 0x0243       |      5 |              2 |
| [65535.51](#event-6553551) | 0x0248       |      5 |              2 |
| [65535.52](#event-6553552) | 0x024D       |      5 |              2 |
| [65535.53](#event-6553553) | 0x0252       |      5 |              2 |
| [65535.54](#event-6553554) | 0x0257       |      5 |              2 |
| [65535.55](#event-6553555) | 0x025C       |      5 |              2 |
| [65535.56](#event-6553556) | 0x0261       |     18 |              6 |
| [65535.57](#event-6553557) | 0x0273       |     18 |              6 |
| [65535.58](#event-6553558) | 0x0285       |     14 |              4 |
| [65535.59](#event-6553559) | 0x0293       |     30 |              6 |
| [65535.60](#event-6553560) | 0x02B1       |     15 |              5 |
| [65535.61](#event-6553561) | 0x02C0       |     30 |              6 |
| [65535.62](#event-6553562) | 0x02DE       |     25 |              7 |
| [65535.63](#event-6553563) | 0x02F7       |     15 |              5 |
| [65535.64](#event-6553564) | 0x0306       |     15 |              5 |
| [65535.65](#event-6553565) | 0x0315       |     25 |              7 |
| [65535.66](#event-6553566) | 0x032E       |     28 |              8 |
| [65535.67](#event-6553567) | 0x034A       |     15 |              5 |
| [65535.68](#event-6553568) | 0x0359       |     15 |              5 |
| [65535.69](#event-6553569) | 0x0368       |      5 |              2 |
| [65535.70](#event-6553570) | 0x036D       |      5 |              2 |
| [65535.71](#event-6553571) | 0x0372       |      5 |              2 |
| [65535.72](#event-6553572) | 0x0377       |     15 |              5 |
| [65535.73](#event-6553573) | 0x0386       |     25 |              7 |
| [65535.74](#event-6553574) | 0x039F       |     25 |              7 |
| [65535.75](#event-6553575) | 0x03B8       |      5 |              2 |
| [65535.76](#event-6553576) | 0x03BD       |      4 |              2 |

## DAT References (imed_data)

|   Index | Hex Value   |   Dec Value |
|---------|-------------|-------------|
|       0 | 0x000D      |          13 |
|       1 | 0x3E597     |      255383 |
|       2 | 0xA7CF      |       42959 |
|       3 | 0xFFFFB4BF  |  4294948031 |
|       4 | 0x34550     |      214352 |
|       5 | 0x9461      |       37985 |
|       6 | 0xFFFF9B46  |  4294941510 |
|       7 | 0x0803      |        2051 |
|       8 | 0x0028      |          40 |
|       9 | 0x30ECE     |      200398 |
|      10 | 0x8427      |       33831 |
|      11 | 0xFFFF92F6  |  4294939382 |
|      12 | 0x412AC     |      266924 |
|      13 | 0x1042F     |       66607 |
|      14 | 0xFFFFAC71  |  4294945905 |
|      15 | 0x04FE      |        1278 |
|      16 | 0x40630     |      263728 |
|      17 | 0xF24E      |       62030 |
|      18 | 0xFFFFAC4A  |  4294945866 |
|      19 | 0x3E628     |      255528 |
|      20 | 0x8A4D      |       35405 |
|      21 | 0xFFFFB1E1  |  4294947297 |
|      22 | 0x361C1     |      221633 |
|      23 | 0x347D      |       13437 |
|      24 | 0xFFFF90AC  |  4294938796 |
|      25 | 0x04FD      |        1277 |
|      26 | 0x002A      |          42 |
|      27 | 0x3527A     |      217722 |
|      28 | 0x2456      |        9302 |
|      29 | 0xFFFF91C3  |  4294939075 |
|      30 | 0x0005      |           5 |
|      31 | 0x403A9     |      263081 |
|      32 | 0x9AB6      |       39606 |
|      33 | 0xFFFFB4CB  |  4294948043 |
|      34 | 0x04FB      |        1275 |
|      35 | 0x02F3      |         755 |
|      36 | 0x043C      |        1084 |
|      37 | 0x08C3      |        2243 |
|      38 | 0x0007      |           7 |
|      39 | 0x0003      |           3 |
|      40 | 0x0000      |           0 |
|      41 | 0x005E      |          94 |
|      42 | 0x000E      |          14 |
|      43 | 0x006E      |         110 |
|      44 | 0x0317      |         791 |
|      45 | 0xFFFFCF94  |  4294954900 |
|      46 | 0xFFFECAF5  |  4294888181 |
|      47 | 0xFFFEF661  |  4294899297 |
|      48 | 0xFFFFCFBC  |  4294954940 |
|      49 | 0xFFFEC473  |  4294886515 |
|      50 | 0xFFF8DEBA  |  4294500026 |
|      51 | 0xC0BF      |       49343 |
|      52 | 0xFFFF8E45  |  4294938181 |
|      53 | 0x001E      |          30 |
|      54 | 0x024D      |         589 |
|      55 | 0x081C      |        2076 |
|      56 | 0x02E4      |         740 |
|      57 | 0x02EB      |         747 |
|      58 | 0x02F0      |         752 |
|      59 | 0x0108      |         264 |
|      60 | 0x0109      |         265 |
|      61 | 0x03C1      |         961 |
|      62 | 0x03C2      |         962 |
|      63 | 0x000B      |          11 |
|      64 | 0x2447F     |      148607 |
|      65 | 0xFFFFFAB5  |  4294965941 |
|      66 | 0xFFFF5590  |  4294923664 |
|      67 | 0x000A      |          10 |
|      68 | 0x24F74     |      151412 |
|      69 | 0xFFFFEF8B  |  4294963083 |
|      70 | 0xFFFF54F2  |  4294923506 |
|      71 | 0x000F      |          15 |
|      72 | 0x25170     |      151920 |
|      73 | 0x107E      |        4222 |
|      74 | 0xFFFF54D8  |  4294923480 |
|      75 | 0x24311     |      148241 |
|      76 | 0xFFFFF313  |  4294963987 |
|      77 | 0xFFFF5593  |  4294923667 |
|      78 | 0x0014      |          20 |
|      79 | 0x000C      |          12 |
|      80 | 0x24E00     |      151040 |
|      81 | 0x0752      |        1874 |
|      82 | 0xFFFF5517  |  4294923543 |
|      83 | 0x0009      |           9 |
|      84 | 0x25510     |      152848 |
|      85 | 0xFFFFFA8C  |  4294965900 |
|      86 | 0xFFFF54BD  |  4294923453 |
|      87 | 0x26092     |      155794 |
|      88 | 0x0C95      |        3221 |
|      89 | 0xFFFF5420  |  4294923296 |
|      90 | 0x25B25     |      154405 |
|      91 | 0x1395      |        5013 |
|      92 | 0xFFFF5421  |  4294923297 |
|      93 | 0x08DB      |        2267 |
|      94 | 0x08D9      |        2265 |
|      95 | 0x08DC      |        2268 |
|      96 | 0x003C      |          60 |
|      97 | 0x0026      |          38 |
|      98 | 0xFFFF7066  |  4294930534 |
|      99 | 0x131F9     |       78329 |
|     100 | 0xFFFEF617  |  4294899223 |
|     101 | 0x0027      |          39 |
|     102 | 0xFFFF871B  |  4294936347 |
|     103 | 0x1351E     |       79134 |
|     104 | 0xFFFEF62A  |  4294899242 |
|     105 | 0x0025      |          37 |
|     106 | 0xFFFCDB40  |  4294761280 |
|     107 | 0xFFFF151C  |  4294907164 |
|     108 | 0xFFFE6830  |  4294862896 |
|     109 | 0x0012      |          18 |
|     110 | 0xFFFE92F8  |  4294873848 |
|     111 | 0xFFFF1D6A  |  4294909290 |
|     112 | 0xFFFEF567  |  4294899047 |
|     113 | 0x08B3      |        2227 |
|     114 | 0xFFFF0C47  |  4294904903 |
|     115 | 0xFFFF07DE  |  4294903774 |
|     116 | 0xFFFEF652  |  4294899282 |
|     117 | 0x0011      |          17 |
|     118 | 0xFFFEA4B6  |  4294878390 |
|     119 | 0xFFFF1D22  |  4294909218 |
|     120 | 0xFFFEF660  |  4294899296 |
|     121 | 0xFFFF02E7  |  4294902503 |
|     122 | 0xFFFF0C45  |  4294904901 |
|     123 | 0xFFFEF20A  |  4294898186 |
|     124 | 0xFFFF0FDF  |  4294905823 |
|     125 | 0x0013      |          19 |
|     126 | 0xFFFF0D33  |  4294905139 |
|     127 | 0xFFFF10B0  |  4294906032 |
|     128 | 0xFFFEF6A9  |  4294899369 |
|     129 | 0x0045      |          69 |
|     130 | 0xFFFEA142  |  4294877506 |
|     131 | 0xFFFF1FBE  |  4294909886 |
|     132 | 0xFFFEF58C  |  4294899084 |
|     133 | 0x0046      |          70 |
|     134 | 0xFFFE73C4  |  4294865860 |
|     135 | 0xFFFF18A1  |  4294908065 |
|     136 | 0xFFFEF08A  |  4294897802 |
|     137 | 0xFFFE97BA  |  4294875066 |
|     138 | 0xFFFF1E9E  |  4294909598 |
|     139 | 0x2047A     |      132218 |
|     140 | 0x0298      |         664 |
|     141 | 0xFFFF55B9  |  4294923705 |
|     142 | 0x1BDF0     |      114160 |
|     143 | 0x0173      |         371 |
|     144 | 0xFFFF5335  |  4294923061 |
|     145 | 0x002B      |          43 |
|     146 | 0x1B7FF     |      112639 |
|     147 | 0xFFFFFE56  |  4294966870 |
|     148 | 0xFFFF5277  |  4294922871 |
|     149 | 0x17140     |       94528 |
|     150 | 0xFFFFCE3C  |  4294954556 |
|     151 | 0xFFFF37B8  |  4294916024 |
|     152 | 0x0034      |          52 |
|     153 | 0x0044      |          68 |
|     154 | 0xFFFE9CEB  |  4294876395 |
|     155 | 0xFFFF1E36  |  4294909494 |
|     156 | 0xFFFE6E21  |  4294864417 |
|     157 | 0xFFFF1A24  |  4294908452 |
|     158 | 0xFFFEF69F  |  4294899359 |
|     159 | 0xFFFE9CC4  |  4294876356 |
|     160 | 0xFFFF1DFD  |  4294909437 |
|     161 | 0xFFFE6DDD  |  4294864349 |
|     162 | 0xFFFF248C  |  4294911116 |
|     163 | 0xFFFEF69B  |  4294899355 |
|     164 | 0xFFFE9C75  |  4294876277 |
|     165 | 0xFFFF1E63  |  4294909539 |
|     166 | 0x08D8      |        2264 |
|     167 | 0x0001      |           1 |

## Events

### Event 65535

#### Metadata

| Field        | Value   |
|--------------|---------|
| Entrypoint   | 0x0000  |
| Data Size    | 1 bytes |
| Instructions | 1       |

```
      00 01 02 03 04 05 06 07  08 09 0A 0B 0C 0D 0E 0F
      -- -- -- -- -- -- -- --  -- -- -- -- -- -- -- --
0000: 00                                                .               
```

#### Opcodes

```
  0: 0x0000 [0x00] END_REQSTACK()
```

### Event 106

#### Metadata

| Field        | Value   |
|--------------|---------|
| Entrypoint   | 0x0001  |
| Data Size    | 1 bytes |
| Instructions | 1       |

```
      00 01 02 03 04 05 06 07  08 09 0A 0B 0C 0D 0E 0F
      -- -- -- -- -- -- -- --  -- -- -- -- -- -- -- --
0000:    00                                              .              
```

#### Opcodes

```
  0: 0x0001 [0x00] END_REQSTACK()
```

### Event 105

#### Metadata

| Field        | Value   |
|--------------|---------|
| Entrypoint   | 0x0002  |
| Data Size    | 1 bytes |
| Instructions | 1       |

```
      00 01 02 03 04 05 06 07  08 09 0A 0B 0C 0D 0E 0F
      -- -- -- -- -- -- -- --  -- -- -- -- -- -- -- --
0000:       00                                            .             
```

#### Opcodes

```
  0: 0x0002 [0x00] END_REQSTACK()
```

### Event 65535.1

#### Metadata

| Field        | Value    |
|--------------|----------|
| Entrypoint   | 0x0003   |
| Data Size    | 15 bytes |
| Instructions | 5        |

```
      00 01 02 03 04 05 06 07  08 09 0A 0B 0C 0D 0E 0F
      -- -- -- -- -- -- -- --  -- -- -- -- -- -- -- --
0000:          32 00 80 1F 00  01 80 02 80 03 80 1F 01     2............
0010: 6F 00                                             o.              
```

#### Opcodes

```
  0: 0x0003 [0x32] ExtData[1]->MainSpeed = 13* * 0.1
  1: 0x0006 [0x1F] MOVE_ENTITY: EventEntity moves to X=255.383*, Z=42.959*, Y=-19.265*
  2: 0x000E [0x1F] MOVE_ENTITY: Update entity position (mode=1)
  3: 0x0010 [0x6F] WAIT_FRAME_DELAY: Yield until WaitTime reaches zero
  4: 0x0011 [0x00] END_REQSTACK()
```

### Event 65535.2

#### Metadata

| Field        | Value    |
|--------------|----------|
| Entrypoint   | 0x0012   |
| Data Size    | 24 bytes |
| Instructions | 6        |

```
      00 01 02 03 04 05 06 07  08 09 0A 0B 0C 0D 0E 0F
      -- -- -- -- -- -- -- --  -- -- -- -- -- -- -- --
0010:       37 04 80 05 80 06  80 07 80 32 08 80 1F 00    7........2....
0020: 09 80 0A 80 0B 80 1F 01  6F 00                    ........o.      
```

#### Opcodes

```
  0: 0x0012 [0x37] UPDATE_EVENT_POSITION_AND_DIR: x=214.352*, z=37.985*, y=-25.786*, direction=180.3째*
  1: 0x001B [0x32] ExtData[1]->MainSpeed = 40* * 0.1
  2: 0x001E [0x1F] MOVE_ENTITY: EventEntity moves to X=200.398*, Z=33.831*, Y=-27.914*
  3: 0x0026 [0x1F] MOVE_ENTITY: Update entity position (mode=1)
  4: 0x0028 [0x6F] WAIT_FRAME_DELAY: Yield until WaitTime reaches zero
  5: 0x0029 [0x00] END_REQSTACK()
```

### Event 65535.3

#### Metadata

| Field        | Value    |
|--------------|----------|
| Entrypoint   | 0x002A   |
| Data Size    | 24 bytes |
| Instructions | 6        |

```
      00 01 02 03 04 05 06 07  08 09 0A 0B 0C 0D 0E 0F
      -- -- -- -- -- -- -- --  -- -- -- -- -- -- -- --
0020:                                37 0C 80 0D 80 0E            7.....
0030: 80 0F 80 32 00 80 1F 00  10 80 11 80 12 80 1F 01  ...2............
0040: 6F 00                                             o.              
```

#### Opcodes

```
  0: 0x002A [0x37] UPDATE_EVENT_POSITION_AND_DIR: x=266.924*, z=66.607*, y=-21.391*, direction=112.3째*
  1: 0x0033 [0x32] ExtData[1]->MainSpeed = 13* * 0.1
  2: 0x0036 [0x1F] MOVE_ENTITY: EventEntity moves to X=263.728*, Z=62.030*, Y=-21.430*
  3: 0x003E [0x1F] MOVE_ENTITY: Update entity position (mode=1)
  4: 0x0040 [0x6F] WAIT_FRAME_DELAY: Yield until WaitTime reaches zero
  5: 0x0041 [0x00] END_REQSTACK()
```

### Event 65535.4

#### Metadata

| Field        | Value    |
|--------------|----------|
| Entrypoint   | 0x0042   |
| Data Size    | 15 bytes |
| Instructions | 5        |

```
      00 01 02 03 04 05 06 07  08 09 0A 0B 0C 0D 0E 0F
      -- -- -- -- -- -- -- --  -- -- -- -- -- -- -- --
0040:       32 08 80 1F 00 13  80 14 80 15 80 1F 01 6F    2............o
0050: 00                                                .               
```

#### Opcodes

```
  0: 0x0042 [0x32] ExtData[1]->MainSpeed = 40* * 0.1
  1: 0x0045 [0x1F] MOVE_ENTITY: EventEntity moves to X=255.528*, Z=35.405*, Y=-19.999*
  2: 0x004D [0x1F] MOVE_ENTITY: Update entity position (mode=1)
  3: 0x004F [0x6F] WAIT_FRAME_DELAY: Yield until WaitTime reaches zero
  4: 0x0050 [0x00] END_REQSTACK()
```

### Event 65535.5

#### Metadata

| Field        | Value    |
|--------------|----------|
| Entrypoint   | 0x0051   |
| Data Size    | 40 bytes |
| Instructions | 8        |

```
      00 01 02 03 04 05 06 07  08 09 0A 0B 0C 0D 0E 0F
      -- -- -- -- -- -- -- --  -- -- -- -- -- -- -- --
0050:    37 16 80 17 80 18 80  19 80 32 1A 80 1F 00 1B   7........2.....
0060: 80 1C 80 1D 80 1F 01 6F  1C 1E 80 2C F8 FF FF 7F  .......o...,....
0070: F8 FF FF 7F 64 65 61 64  00                       ....dead.       
```

#### Opcodes

```
  0: 0x0051 [0x37] UPDATE_EVENT_POSITION_AND_DIR: x=221.633*, z=13.437*, y=-28.500*, direction=112.2째*
  1: 0x005A [0x32] ExtData[1]->MainSpeed = 42* * 0.1
  2: 0x005D [0x1F] MOVE_ENTITY: EventEntity moves to X=217.722*, Z=9.302*, Y=-28.221*
  3: 0x0065 [0x1F] MOVE_ENTITY: Update entity position (mode=1)
  4: 0x0067 [0x6F] WAIT_FRAME_DELAY: Yield until WaitTime reaches zero
  5: 0x0068 [0x1C] WAIT(5* ticks)
  6: 0x006B [0x2C] CREATE_SCHEDULER_TASK: Create scheduler "dead" with entities [EventEntity, EventEntity]
  7: 0x0078 [0x00] END_REQSTACK()
```

### Event 65535.6

#### Metadata

| Field        | Value    |
|--------------|----------|
| Entrypoint   | 0x0079   |
| Data Size    | 14 bytes |
| Instructions | 2        |

```
      00 01 02 03 04 05 06 07  08 09 0A 0B 0C 0D 0E 0F
      -- -- -- -- -- -- -- --  -- -- -- -- -- -- -- --
0070:                             BA ED 02 06 01 1F 80           .......
0080: 20 80 21 80 22 80 00                               .!."..         
```

#### Opcodes

```
  0: 0x0079 [0xBA] SET_ENTITY_POSITION(entity_id=13 (ID: 17171181/0x010602ED), pos_x=263.081*, pos_z=39.606*, pos_y=-19.253*, direction=112.1째*)
  1: 0x0086 [0x00] END_REQSTACK()
```

### Event 113

#### Metadata

| Field        | Value   |
|--------------|---------|
| Entrypoint   | 0x0087  |
| Data Size    | 1 bytes |
| Instructions | 1       |

```
      00 01 02 03 04 05 06 07  08 09 0A 0B 0C 0D 0E 0F
      -- -- -- -- -- -- -- --  -- -- -- -- -- -- -- --
0080:                      00                                  .        
```

#### Opcodes

```
  0: 0x0087 [0x00] END_REQSTACK()
```

### Event 65535.7

#### Metadata

| Field        | Value   |
|--------------|---------|
| Entrypoint   | 0x0088  |
| Data Size    | 5 bytes |
| Instructions | 2       |

```
      00 01 02 03 04 05 06 07  08 09 0A 0B 0C 0D 0E 0F
      -- -- -- -- -- -- -- --  -- -- -- -- -- -- -- --
0080:                          B6 00 23 80 00                   ..#..   
```

#### Opcodes

```
  0: 0x0088 [0xB6] ENTITY_APPEARANCE_HANDLER(case=Hair style, value=755*)
  1: 0x008C [0x00] END_REQSTACK()
```

### Event 65535.8

#### Metadata

| Field        | Value   |
|--------------|---------|
| Entrypoint   | 0x008D  |
| Data Size    | 5 bytes |
| Instructions | 2       |

```
      00 01 02 03 04 05 06 07  08 09 0A 0B 0C 0D 0E 0F
      -- -- -- -- -- -- -- --  -- -- -- -- -- -- -- --
0080:                                         B6 00 24               ..$
0090: 80 00                                             ..              
```

#### Opcodes

```
  0: 0x008D [0xB6] ENTITY_APPEARANCE_HANDLER(case=Hair style, value=1084*)
  1: 0x0091 [0x00] END_REQSTACK()
```

### Event 65535.9

#### Metadata

| Field        | Value   |
|--------------|---------|
| Entrypoint   | 0x0092  |
| Data Size    | 5 bytes |
| Instructions | 2       |

```
      00 01 02 03 04 05 06 07  08 09 0A 0B 0C 0D 0E 0F
      -- -- -- -- -- -- -- --  -- -- -- -- -- -- -- --
0090:       B6 00 25 80 00                                ..%..         
```

#### Opcodes

```
  0: 0x0092 [0xB6] ENTITY_APPEARANCE_HANDLER(case=Hair style, value=2243*)
  1: 0x0096 [0x00] END_REQSTACK()
```

### Event 65535.10

#### Metadata

| Field        | Value    |
|--------------|----------|
| Entrypoint   | 0x0097   |
| Data Size    | 21 bytes |
| Instructions | 2        |

```
      00 01 02 03 04 05 06 07  08 09 0A 0B 0C 0D 0E 0F
      -- -- -- -- -- -- -- --  -- -- -- -- -- -- -- --
0090:                      B6  0B 26 80 27 80 28 80 29         ..&.'.(.)
00A0: 80 29 80 2A 80 2A 80 28  80 28 80 00              .).*.*.(.(..    
```

#### Opcodes

```
  0: 0x0097 [0xB6] ENTITY_APPEARANCE_HANDLER(case=Full entity look, race=7*, hair=3*, head=0*, body=94*, hands=94*, legs=14*, feet=14*, main=0*, sub=0*)
  1: 0x00AB [0x00] END_REQSTACK()
```

### Event 65535.11

#### Metadata

| Field        | Value    |
|--------------|----------|
| Entrypoint   | 0x00AC   |
| Data Size    | 21 bytes |
| Instructions | 2        |

```
      00 01 02 03 04 05 06 07  08 09 0A 0B 0C 0D 0E 0F
      -- -- -- -- -- -- -- --  -- -- -- -- -- -- -- --
00A0:                                      B6 0B 26 80              ..&.
00B0: 27 80 28 80 29 80 29 80  2A 80 2A 80 2B 80 28 80  '.(.).).*.*.+.(.
00C0: 00                                                .               
```

#### Opcodes

```
  0: 0x00AC [0xB6] ENTITY_APPEARANCE_HANDLER(case=Full entity look, race=7*, hair=3*, head=0*, body=94*, hands=94*, legs=14*, feet=14*, main=110*, sub=0*)
  1: 0x00C0 [0x00] END_REQSTACK()
```

### Event 65535.12

#### Metadata

| Field        | Value   |
|--------------|---------|
| Entrypoint   | 0x00C1  |
| Data Size    | 5 bytes |
| Instructions | 2       |

```
      00 01 02 03 04 05 06 07  08 09 0A 0B 0C 0D 0E 0F
      -- -- -- -- -- -- -- --  -- -- -- -- -- -- -- --
00C0:    B6 00 2C 80 00                                  ..,..          
```

#### Opcodes

```
  0: 0x00C1 [0xB6] ENTITY_APPEARANCE_HANDLER(case=Hair style, value=791*)
  1: 0x00C5 [0x00] END_REQSTACK()
```

### Event 65535.13

#### Metadata

| Field        | Value    |
|--------------|----------|
| Entrypoint   | 0x00C6   |
| Data Size    | 25 bytes |
| Instructions | 3        |

```
      00 01 02 03 04 05 06 07  08 09 0A 0B 0C 0D 0E 0F
      -- -- -- -- -- -- -- --  -- -- -- -- -- -- -- --
00C0:                   B4 00  00 00 3F 3F 3F 00 00 00        ....???...
00D0: 00 00 00 00 00 00 00 00  00 00 B5 00 00 00 00     ............... 
```

#### Opcodes

```
  0: 0x00C6 [0xB4] UI_WINDOW_STRING_HANDLER(case=0x00 - Copy string from opcode, work_offset=ExtData[1]->WorkLocal[0], string="???")
  1: 0x00DA [0xB5] SET_EVENT_ENTITY_NAME: Change EventEntity name to ExtData[1]->WorkLocal[0]
  2: 0x00DE [0x00] END_REQSTACK()
```

### Event 65535.14

#### Metadata

| Field        | Value    |
|--------------|----------|
| Entrypoint   | 0x00DF   |
| Data Size    | 25 bytes |
| Instructions | 3        |

```
      00 01 02 03 04 05 06 07  08 09 0A 0B 0C 0D 0E 0F
      -- -- -- -- -- -- -- --  -- -- -- -- -- -- -- --
00D0:                                               B4                 .
00E0: 00 00 00 52 6F 62 65 6C  2D 41 6B 62 65 6C 00 00  ...Robel-Akbel..
00F0: 00 00 00 B5 00 00 00 00                           ........        
```

#### Opcodes

```
  0: 0x00DF [0xB4] UI_WINDOW_STRING_HANDLER(case=0x00 - Copy string from opcode, work_offset=ExtData[1]->WorkLocal[0], string="Robel-Akbel")
  1: 0x00F3 [0xB5] SET_EVENT_ENTITY_NAME: Change EventEntity name to ExtData[1]->WorkLocal[0]
  2: 0x00F7 [0x00] END_REQSTACK()
```

### Event 65535.15

#### Metadata

| Field        | Value    |
|--------------|----------|
| Entrypoint   | 0x00F8   |
| Data Size    | 25 bytes |
| Instructions | 3        |

```
      00 01 02 03 04 05 06 07  08 09 0A 0B 0C 0D 0E 0F
      -- -- -- -- -- -- -- --  -- -- -- -- -- -- -- --
00F0:                          B4 00 00 00 30 32 00 00          ....02..
0100: 00 00 00 00 00 00 00 00  00 00 00 00 B5 00 00 00  ................
0110: 00                                                .               
```

#### Opcodes

```
  0: 0x00F8 [0xB4] UI_WINDOW_STRING_HANDLER(case=0x00 - Copy string from opcode, work_offset=ExtData[1]->WorkLocal[0], string="02")
  1: 0x010C [0xB5] SET_EVENT_ENTITY_NAME: Change EventEntity name to ExtData[1]->WorkLocal[0]
  2: 0x0110 [0x00] END_REQSTACK()
```

### Event 65535.16

#### Metadata

| Field        | Value    |
|--------------|----------|
| Entrypoint   | 0x0111   |
| Data Size    | 14 bytes |
| Instructions | 4        |

```
      00 01 02 03 04 05 06 07  08 09 0A 0B 0C 0D 0E 0F
      -- -- -- -- -- -- -- --  -- -- -- -- -- -- -- --
0110:    32 00 80 1F 00 2D 80  2E 80 2F 80 1F 01 00      2....-.../.... 
```

#### Opcodes

```
  0: 0x0111 [0x32] ExtData[1]->MainSpeed = 13* * 0.1
  1: 0x0114 [0x1F] MOVE_ENTITY: EventEntity moves to X=-12.396*, Z=-79.115*, Y=-67.999*
  2: 0x011C [0x1F] MOVE_ENTITY: Update entity position (mode=1)
  3: 0x011E [0x00] END_REQSTACK()
```

### Event 65535.17

#### Metadata

| Field        | Value    |
|--------------|----------|
| Entrypoint   | 0x011F   |
| Data Size    | 14 bytes |
| Instructions | 4        |

```
      00 01 02 03 04 05 06 07  08 09 0A 0B 0C 0D 0E 0F
      -- -- -- -- -- -- -- --  -- -- -- -- -- -- -- --
0110:                                               32                 2
0120: 00 80 1F 00 30 80 31 80  2F 80 1F 01 00           ....0.1./....   
```

#### Opcodes

```
  0: 0x011F [0x32] ExtData[1]->MainSpeed = 13* * 0.1
  1: 0x0122 [0x1F] MOVE_ENTITY: EventEntity moves to X=-12.356*, Z=-80.781*, Y=-67.999*
  2: 0x012A [0x1F] MOVE_ENTITY: Update entity position (mode=1)
  3: 0x012C [0x00] END_REQSTACK()
```

### Event 65535.18

#### Metadata

| Field        | Value    |
|--------------|----------|
| Entrypoint   | 0x012D   |
| Data Size    | 22 bytes |
| Instructions | 6        |

```
      00 01 02 03 04 05 06 07  08 09 0A 0B 0C 0D 0E 0F
      -- -- -- -- -- -- -- --  -- -- -- -- -- -- -- --
0120:                                         32 00 80               2..
0130: 5A 00 32 80 33 80 34 80  5A 01 1E F0 FF FF 7F 1C  Z.2.3.4.Z.......
0140: 35 80 00                                          5..             
```

#### Opcodes

```
  0: 0x012D [0x32] ExtData[1]->MainSpeed = 13* * 0.1
  1: 0x0130 [0x5A] UPDATE_EVENT_POSITION: Set EventEntity MovePosition to X=-467.270*, Z=49.343*, Y=-29.115*
  2: 0x0138 [0x5A] UPDATE_EVENT_POSITION: Move EventEntity incrementally towards MovePosition
  3: 0x013A [0x1E] EventEntity looks at LocalPlayer and starts talking
  4: 0x013F [0x1C] WAIT(30* ticks)
  5: 0x0142 [0x00] END_REQSTACK()
```

### Event 65535.19

#### Metadata

| Field        | Value   |
|--------------|---------|
| Entrypoint   | 0x0143  |
| Data Size    | 5 bytes |
| Instructions | 2       |

```
      00 01 02 03 04 05 06 07  08 09 0A 0B 0C 0D 0E 0F
      -- -- -- -- -- -- -- --  -- -- -- -- -- -- -- --
0140:          B6 00 36 80 00                              ..6..        
```

#### Opcodes

```
  0: 0x0143 [0xB6] ENTITY_APPEARANCE_HANDLER(case=Hair style, value=589*)
  1: 0x0147 [0x00] END_REQSTACK()
```

### Event 65535.20

#### Metadata

| Field        | Value   |
|--------------|---------|
| Entrypoint   | 0x0148  |
| Data Size    | 5 bytes |
| Instructions | 2       |

```
      00 01 02 03 04 05 06 07  08 09 0A 0B 0C 0D 0E 0F
      -- -- -- -- -- -- -- --  -- -- -- -- -- -- -- --
0140:                          B6 00 24 80 00                   ..$..   
```

#### Opcodes

```
  0: 0x0148 [0xB6] ENTITY_APPEARANCE_HANDLER(case=Hair style, value=1084*)
  1: 0x014C [0x00] END_REQSTACK()
```

### Event 65535.21

#### Metadata

| Field        | Value   |
|--------------|---------|
| Entrypoint   | 0x014D  |
| Data Size    | 5 bytes |
| Instructions | 2       |

```
      00 01 02 03 04 05 06 07  08 09 0A 0B 0C 0D 0E 0F
      -- -- -- -- -- -- -- --  -- -- -- -- -- -- -- --
0140:                                         B6 00 24               ..$
0150: 80 00                                             ..              
```

#### Opcodes

```
  0: 0x014D [0xB6] ENTITY_APPEARANCE_HANDLER(case=Hair style, value=1084*)
  1: 0x0151 [0x00] END_REQSTACK()
```

### Event 65535.22

#### Metadata

| Field        | Value   |
|--------------|---------|
| Entrypoint   | 0x0152  |
| Data Size    | 5 bytes |
| Instructions | 2       |

```
      00 01 02 03 04 05 06 07  08 09 0A 0B 0C 0D 0E 0F
      -- -- -- -- -- -- -- --  -- -- -- -- -- -- -- --
0150:       B6 00 37 80 00                                ..7..         
```

#### Opcodes

```
  0: 0x0152 [0xB6] ENTITY_APPEARANCE_HANDLER(case=Hair style, value=2076*)
  1: 0x0156 [0x00] END_REQSTACK()
```

### Event 65535.23

#### Metadata

| Field        | Value   |
|--------------|---------|
| Entrypoint   | 0x0157  |
| Data Size    | 5 bytes |
| Instructions | 2       |

```
      00 01 02 03 04 05 06 07  08 09 0A 0B 0C 0D 0E 0F
      -- -- -- -- -- -- -- --  -- -- -- -- -- -- -- --
0150:                      B6  00 37 80 00                     ..7..    
```

#### Opcodes

```
  0: 0x0157 [0xB6] ENTITY_APPEARANCE_HANDLER(case=Hair style, value=2076*)
  1: 0x015B [0x00] END_REQSTACK()
```

### Event 65535.24

#### Metadata

| Field        | Value   |
|--------------|---------|
| Entrypoint   | 0x015C  |
| Data Size    | 5 bytes |
| Instructions | 2       |

```
      00 01 02 03 04 05 06 07  08 09 0A 0B 0C 0D 0E 0F
      -- -- -- -- -- -- -- --  -- -- -- -- -- -- -- --
0150:                                      B6 00 37 80              ..7.
0160: 00                                                .               
```

#### Opcodes

```
  0: 0x015C [0xB6] ENTITY_APPEARANCE_HANDLER(case=Hair style, value=2076*)
  1: 0x0160 [0x00] END_REQSTACK()
```

### Event 65535.25

#### Metadata

| Field        | Value   |
|--------------|---------|
| Entrypoint   | 0x0161  |
| Data Size    | 5 bytes |
| Instructions | 2       |

```
      00 01 02 03 04 05 06 07  08 09 0A 0B 0C 0D 0E 0F
      -- -- -- -- -- -- -- --  -- -- -- -- -- -- -- --
0160:    B6 00 37 80 00                                  ..7..          
```

#### Opcodes

```
  0: 0x0161 [0xB6] ENTITY_APPEARANCE_HANDLER(case=Hair style, value=2076*)
  1: 0x0165 [0x00] END_REQSTACK()
```

### Event 65535.26

#### Metadata

| Field        | Value   |
|--------------|---------|
| Entrypoint   | 0x0166  |
| Data Size    | 5 bytes |
| Instructions | 2       |

```
      00 01 02 03 04 05 06 07  08 09 0A 0B 0C 0D 0E 0F
      -- -- -- -- -- -- -- --  -- -- -- -- -- -- -- --
0160:                   B6 00  37 80 00                       ..7..     
```

#### Opcodes

```
  0: 0x0166 [0xB6] ENTITY_APPEARANCE_HANDLER(case=Hair style, value=2076*)
  1: 0x016A [0x00] END_REQSTACK()
```

### Event 65535.27

#### Metadata

| Field        | Value   |
|--------------|---------|
| Entrypoint   | 0x016B  |
| Data Size    | 5 bytes |
| Instructions | 2       |

```
      00 01 02 03 04 05 06 07  08 09 0A 0B 0C 0D 0E 0F
      -- -- -- -- -- -- -- --  -- -- -- -- -- -- -- --
0160:                                   B6 00 38 80 00             ..8..
```

#### Opcodes

```
  0: 0x016B [0xB6] ENTITY_APPEARANCE_HANDLER(case=Hair style, value=740*)
  1: 0x016F [0x00] END_REQSTACK()
```

### Event 65535.28

#### Metadata

| Field        | Value   |
|--------------|---------|
| Entrypoint   | 0x0170  |
| Data Size    | 5 bytes |
| Instructions | 2       |

```
      00 01 02 03 04 05 06 07  08 09 0A 0B 0C 0D 0E 0F
      -- -- -- -- -- -- -- --  -- -- -- -- -- -- -- --
0170: B6 00 39 80 00                                    ..9..           
```

#### Opcodes

```
  0: 0x0170 [0xB6] ENTITY_APPEARANCE_HANDLER(case=Hair style, value=747*)
  1: 0x0174 [0x00] END_REQSTACK()
```

### Event 65535.29

#### Metadata

| Field        | Value   |
|--------------|---------|
| Entrypoint   | 0x0175  |
| Data Size    | 5 bytes |
| Instructions | 2       |

```
      00 01 02 03 04 05 06 07  08 09 0A 0B 0C 0D 0E 0F
      -- -- -- -- -- -- -- --  -- -- -- -- -- -- -- --
0170:                B6 00 23  80 00                         ..#..      
```

#### Opcodes

```
  0: 0x0175 [0xB6] ENTITY_APPEARANCE_HANDLER(case=Hair style, value=755*)
  1: 0x0179 [0x00] END_REQSTACK()
```

### Event 65535.30

#### Metadata

| Field        | Value   |
|--------------|---------|
| Entrypoint   | 0x017A  |
| Data Size    | 5 bytes |
| Instructions | 2       |

```
      00 01 02 03 04 05 06 07  08 09 0A 0B 0C 0D 0E 0F
      -- -- -- -- -- -- -- --  -- -- -- -- -- -- -- --
0170:                                B6 00 3A 80 00               ..:.. 
```

#### Opcodes

```
  0: 0x017A [0xB6] ENTITY_APPEARANCE_HANDLER(case=Hair style, value=752*)
  1: 0x017E [0x00] END_REQSTACK()
```

### Event 65535.31

#### Metadata

| Field        | Value   |
|--------------|---------|
| Entrypoint   | 0x017F  |
| Data Size    | 5 bytes |
| Instructions | 2       |

```
      00 01 02 03 04 05 06 07  08 09 0A 0B 0C 0D 0E 0F
      -- -- -- -- -- -- -- --  -- -- -- -- -- -- -- --
0170:                                               B6                 .
0180: 00 38 80 00                                       .8..            
```

#### Opcodes

```
  0: 0x017F [0xB6] ENTITY_APPEARANCE_HANDLER(case=Hair style, value=740*)
  1: 0x0183 [0x00] END_REQSTACK()
```

### Event 65535.32

#### Metadata

| Field        | Value   |
|--------------|---------|
| Entrypoint   | 0x0184  |
| Data Size    | 5 bytes |
| Instructions | 2       |

```
      00 01 02 03 04 05 06 07  08 09 0A 0B 0C 0D 0E 0F
      -- -- -- -- -- -- -- --  -- -- -- -- -- -- -- --
0180:             B6 00 39 80  00                           ..9..       
```

#### Opcodes

```
  0: 0x0184 [0xB6] ENTITY_APPEARANCE_HANDLER(case=Hair style, value=747*)
  1: 0x0188 [0x00] END_REQSTACK()
```

### Event 65535.33

#### Metadata

| Field        | Value   |
|--------------|---------|
| Entrypoint   | 0x0189  |
| Data Size    | 5 bytes |
| Instructions | 2       |

```
      00 01 02 03 04 05 06 07  08 09 0A 0B 0C 0D 0E 0F
      -- -- -- -- -- -- -- --  -- -- -- -- -- -- -- --
0180:                             B6 00 23 80 00                 ..#..  
```

#### Opcodes

```
  0: 0x0189 [0xB6] ENTITY_APPEARANCE_HANDLER(case=Hair style, value=755*)
  1: 0x018D [0x00] END_REQSTACK()
```

### Event 65535.34

#### Metadata

| Field        | Value   |
|--------------|---------|
| Entrypoint   | 0x018E  |
| Data Size    | 5 bytes |
| Instructions | 2       |

```
      00 01 02 03 04 05 06 07  08 09 0A 0B 0C 0D 0E 0F
      -- -- -- -- -- -- -- --  -- -- -- -- -- -- -- --
0180:                                            B6 00                ..
0190: 38 80 00                                          8..             
```

#### Opcodes

```
  0: 0x018E [0xB6] ENTITY_APPEARANCE_HANDLER(case=Hair style, value=740*)
  1: 0x0192 [0x00] END_REQSTACK()
```

### Event 65535.35

#### Metadata

| Field        | Value   |
|--------------|---------|
| Entrypoint   | 0x0193  |
| Data Size    | 5 bytes |
| Instructions | 2       |

```
      00 01 02 03 04 05 06 07  08 09 0A 0B 0C 0D 0E 0F
      -- -- -- -- -- -- -- --  -- -- -- -- -- -- -- --
0190:          B6 00 3B 80 00                              ..;..        
```

#### Opcodes

```
  0: 0x0193 [0xB6] ENTITY_APPEARANCE_HANDLER(case=Hair style, value=264*)
  1: 0x0197 [0x00] END_REQSTACK()
```

### Event 65535.36

#### Metadata

| Field        | Value   |
|--------------|---------|
| Entrypoint   | 0x0198  |
| Data Size    | 5 bytes |
| Instructions | 2       |

```
      00 01 02 03 04 05 06 07  08 09 0A 0B 0C 0D 0E 0F
      -- -- -- -- -- -- -- --  -- -- -- -- -- -- -- --
0190:                          B6 00 3B 80 00                   ..;..   
```

#### Opcodes

```
  0: 0x0198 [0xB6] ENTITY_APPEARANCE_HANDLER(case=Hair style, value=264*)
  1: 0x019C [0x00] END_REQSTACK()
```

### Event 65535.37

#### Metadata

| Field        | Value   |
|--------------|---------|
| Entrypoint   | 0x019D  |
| Data Size    | 5 bytes |
| Instructions | 2       |

```
      00 01 02 03 04 05 06 07  08 09 0A 0B 0C 0D 0E 0F
      -- -- -- -- -- -- -- --  -- -- -- -- -- -- -- --
0190:                                         B6 00 3C               ..<
01A0: 80 00                                             ..              
```

#### Opcodes

```
  0: 0x019D [0xB6] ENTITY_APPEARANCE_HANDLER(case=Hair style, value=265*)
  1: 0x01A1 [0x00] END_REQSTACK()
```

### Event 65535.38

#### Metadata

| Field        | Value   |
|--------------|---------|
| Entrypoint   | 0x01A2  |
| Data Size    | 5 bytes |
| Instructions | 2       |

```
      00 01 02 03 04 05 06 07  08 09 0A 0B 0C 0D 0E 0F
      -- -- -- -- -- -- -- --  -- -- -- -- -- -- -- --
01A0:       B6 00 3C 80 00                                ..<..         
```

#### Opcodes

```
  0: 0x01A2 [0xB6] ENTITY_APPEARANCE_HANDLER(case=Hair style, value=265*)
  1: 0x01A6 [0x00] END_REQSTACK()
```

### Event 65535.39

#### Metadata

| Field        | Value   |
|--------------|---------|
| Entrypoint   | 0x01A7  |
| Data Size    | 5 bytes |
| Instructions | 2       |

```
      00 01 02 03 04 05 06 07  08 09 0A 0B 0C 0D 0E 0F
      -- -- -- -- -- -- -- --  -- -- -- -- -- -- -- --
01A0:                      B6  00 3D 80 00                     ..=..    
```

#### Opcodes

```
  0: 0x01A7 [0xB6] ENTITY_APPEARANCE_HANDLER(case=Hair style, value=961*)
  1: 0x01AB [0x00] END_REQSTACK()
```

### Event 65535.40

#### Metadata

| Field        | Value   |
|--------------|---------|
| Entrypoint   | 0x01AC  |
| Data Size    | 5 bytes |
| Instructions | 2       |

```
      00 01 02 03 04 05 06 07  08 09 0A 0B 0C 0D 0E 0F
      -- -- -- -- -- -- -- --  -- -- -- -- -- -- -- --
01A0:                                      B6 00 3E 80              ..>.
01B0: 00                                                .               
```

#### Opcodes

```
  0: 0x01AC [0xB6] ENTITY_APPEARANCE_HANDLER(case=Hair style, value=962*)
  1: 0x01B0 [0x00] END_REQSTACK()
```

### Event 65535.41

#### Metadata

| Field        | Value    |
|--------------|----------|
| Entrypoint   | 0x01B1   |
| Data Size    | 18 bytes |
| Instructions | 6        |

```
      00 01 02 03 04 05 06 07  08 09 0A 0B 0C 0D 0E 0F
      -- -- -- -- -- -- -- --  -- -- -- -- -- -- -- --
01B0:    1C 35 80 32 3F 80 1F  00 40 80 41 80 42 80 1F   .5.2?...@.A.B..
01C0: 01 6F 00                                          .o.             
```

#### Opcodes

```
  0: 0x01B1 [0x1C] WAIT(30* ticks)
  1: 0x01B4 [0x32] ExtData[1]->MainSpeed = 11* * 0.1
  2: 0x01B7 [0x1F] MOVE_ENTITY: EventEntity moves to X=148.607*, Z=-1.355*, Y=-43.632*
  3: 0x01BF [0x1F] MOVE_ENTITY: Update entity position (mode=1)
  4: 0x01C1 [0x6F] WAIT_FRAME_DELAY: Yield until WaitTime reaches zero
  5: 0x01C2 [0x00] END_REQSTACK()
```

### Event 65535.42

#### Metadata

| Field        | Value    |
|--------------|----------|
| Entrypoint   | 0x01C3   |
| Data Size    | 15 bytes |
| Instructions | 5        |

```
      00 01 02 03 04 05 06 07  08 09 0A 0B 0C 0D 0E 0F
      -- -- -- -- -- -- -- --  -- -- -- -- -- -- -- --
01C0:          32 43 80 1F 00  44 80 45 80 46 80 1F 01     2C...D.E.F...
01D0: 6F 00                                             o.              
```

#### Opcodes

```
  0: 0x01C3 [0x32] ExtData[1]->MainSpeed = 10* * 0.1
  1: 0x01C6 [0x1F] MOVE_ENTITY: EventEntity moves to X=151.412*, Z=-4.213*, Y=-43.790*
  2: 0x01CE [0x1F] MOVE_ENTITY: Update entity position (mode=1)
  3: 0x01D0 [0x6F] WAIT_FRAME_DELAY: Yield until WaitTime reaches zero
  4: 0x01D1 [0x00] END_REQSTACK()
```

### Event 65535.43

#### Metadata

| Field        | Value    |
|--------------|----------|
| Entrypoint   | 0x01D2   |
| Data Size    | 18 bytes |
| Instructions | 6        |

```
      00 01 02 03 04 05 06 07  08 09 0A 0B 0C 0D 0E 0F
      -- -- -- -- -- -- -- --  -- -- -- -- -- -- -- --
01D0:       1C 47 80 32 3F 80  1F 00 48 80 49 80 4A 80    .G.2?...H.I.J.
01E0: 1F 01 6F 00                                       ..o.            
```

#### Opcodes

```
  0: 0x01D2 [0x1C] WAIT(15* ticks)
  1: 0x01D5 [0x32] ExtData[1]->MainSpeed = 11* * 0.1
  2: 0x01D8 [0x1F] MOVE_ENTITY: EventEntity moves to X=151.920*, Z=4.222*, Y=-43.816*
  3: 0x01E0 [0x1F] MOVE_ENTITY: Update entity position (mode=1)
  4: 0x01E2 [0x6F] WAIT_FRAME_DELAY: Yield until WaitTime reaches zero
  5: 0x01E3 [0x00] END_REQSTACK()
```

### Event 65535.44

#### Metadata

| Field        | Value    |
|--------------|----------|
| Entrypoint   | 0x01E4   |
| Data Size    | 18 bytes |
| Instructions | 6        |

```
      00 01 02 03 04 05 06 07  08 09 0A 0B 0C 0D 0E 0F
      -- -- -- -- -- -- -- --  -- -- -- -- -- -- -- --
01E0:             1C 1E 80 32  00 80 1F 00 4B 80 4C 80      ...2....K.L.
01F0: 4D 80 1F 01 6F 00                                 M...o.          
```

#### Opcodes

```
  0: 0x01E4 [0x1C] WAIT(5* ticks)
  1: 0x01E7 [0x32] ExtData[1]->MainSpeed = 13* * 0.1
  2: 0x01EA [0x1F] MOVE_ENTITY: EventEntity moves to X=148.241*, Z=-3.309*, Y=-43.629*
  3: 0x01F2 [0x1F] MOVE_ENTITY: Update entity position (mode=1)
  4: 0x01F4 [0x6F] WAIT_FRAME_DELAY: Yield until WaitTime reaches zero
  5: 0x01F5 [0x00] END_REQSTACK()
```

### Event 65535.45

#### Metadata

| Field        | Value    |
|--------------|----------|
| Entrypoint   | 0x01F6   |
| Data Size    | 18 bytes |
| Instructions | 6        |

```
      00 01 02 03 04 05 06 07  08 09 0A 0B 0C 0D 0E 0F
      -- -- -- -- -- -- -- --  -- -- -- -- -- -- -- --
01F0:                   1C 4E  80 32 4F 80 1F 00 50 80        .N.2O...P.
0200: 51 80 52 80 1F 01 6F 00                           Q.R...o.        
```

#### Opcodes

```
  0: 0x01F6 [0x1C] WAIT(20* ticks)
  1: 0x01F9 [0x32] ExtData[1]->MainSpeed = 12* * 0.1
  2: 0x01FC [0x1F] MOVE_ENTITY: EventEntity moves to X=151.040*, Z=1.874*, Y=-43.753*
  3: 0x0204 [0x1F] MOVE_ENTITY: Update entity position (mode=1)
  4: 0x0206 [0x6F] WAIT_FRAME_DELAY: Yield until WaitTime reaches zero
  5: 0x0207 [0x00] END_REQSTACK()
```

### Event 65535.46

#### Metadata

| Field        | Value    |
|--------------|----------|
| Entrypoint   | 0x0208   |
| Data Size    | 18 bytes |
| Instructions | 6        |

```
      00 01 02 03 04 05 06 07  08 09 0A 0B 0C 0D 0E 0F
      -- -- -- -- -- -- -- --  -- -- -- -- -- -- -- --
0200:                          1C 47 80 32 53 80 1F 00          .G.2S...
0210: 54 80 55 80 56 80 1F 01  6F 00                    T.U.V...o.      
```

#### Opcodes

```
  0: 0x0208 [0x1C] WAIT(15* ticks)
  1: 0x020B [0x32] ExtData[1]->MainSpeed = 9* * 0.1
  2: 0x020E [0x1F] MOVE_ENTITY: EventEntity moves to X=152.848*, Z=-1.396*, Y=-43.843*
  3: 0x0216 [0x1F] MOVE_ENTITY: Update entity position (mode=1)
  4: 0x0218 [0x6F] WAIT_FRAME_DELAY: Yield until WaitTime reaches zero
  5: 0x0219 [0x00] END_REQSTACK()
```

### Event 65535.47

#### Metadata

| Field        | Value    |
|--------------|----------|
| Entrypoint   | 0x021A   |
| Data Size    | 18 bytes |
| Instructions | 6        |

```
      00 01 02 03 04 05 06 07  08 09 0A 0B 0C 0D 0E 0F
      -- -- -- -- -- -- -- --  -- -- -- -- -- -- -- --
0210:                                1C 43 80 32 43 80            .C.2C.
0220: 1F 00 57 80 58 80 59 80  1F 01 6F 00              ..W.X.Y...o.    
```

#### Opcodes

```
  0: 0x021A [0x1C] WAIT(10* ticks)
  1: 0x021D [0x32] ExtData[1]->MainSpeed = 10* * 0.1
  2: 0x0220 [0x1F] MOVE_ENTITY: EventEntity moves to X=155.794*, Z=3.221*, Y=-44.000*
  3: 0x0228 [0x1F] MOVE_ENTITY: Update entity position (mode=1)
  4: 0x022A [0x6F] WAIT_FRAME_DELAY: Yield until WaitTime reaches zero
  5: 0x022B [0x00] END_REQSTACK()
```

### Event 65535.48

#### Metadata

| Field        | Value    |
|--------------|----------|
| Entrypoint   | 0x022C   |
| Data Size    | 18 bytes |
| Instructions | 6        |

```
      00 01 02 03 04 05 06 07  08 09 0A 0B 0C 0D 0E 0F
      -- -- -- -- -- -- -- --  -- -- -- -- -- -- -- --
0220:                                      1C 35 80 32              .5.2
0230: 43 80 1F 00 5A 80 5B 80  5C 80 1F 01 6F 00        C...Z.[.\...o.  
```

#### Opcodes

```
  0: 0x022C [0x1C] WAIT(30* ticks)
  1: 0x022F [0x32] ExtData[1]->MainSpeed = 10* * 0.1
  2: 0x0232 [0x1F] MOVE_ENTITY: EventEntity moves to X=154.405*, Z=5.013*, Y=-43.999*
  3: 0x023A [0x1F] MOVE_ENTITY: Update entity position (mode=1)
  4: 0x023C [0x6F] WAIT_FRAME_DELAY: Yield until WaitTime reaches zero
  5: 0x023D [0x00] END_REQSTACK()
```

### Event 65535.49

#### Metadata

| Field        | Value   |
|--------------|---------|
| Entrypoint   | 0x023E  |
| Data Size    | 5 bytes |
| Instructions | 2       |

```
      00 01 02 03 04 05 06 07  08 09 0A 0B 0C 0D 0E 0F
      -- -- -- -- -- -- -- --  -- -- -- -- -- -- -- --
0230:                                            B6 00                ..
0240: 5D 80 00                                          ]..             
```

#### Opcodes

```
  0: 0x023E [0xB6] ENTITY_APPEARANCE_HANDLER(case=Hair style, value=2267*)
  1: 0x0242 [0x00] END_REQSTACK()
```

### Event 65535.50

#### Metadata

| Field        | Value   |
|--------------|---------|
| Entrypoint   | 0x0243  |
| Data Size    | 5 bytes |
| Instructions | 2       |

```
      00 01 02 03 04 05 06 07  08 09 0A 0B 0C 0D 0E 0F
      -- -- -- -- -- -- -- --  -- -- -- -- -- -- -- --
0240:          B6 00 5E 80 00                              ..^..        
```

#### Opcodes

```
  0: 0x0243 [0xB6] ENTITY_APPEARANCE_HANDLER(case=Hair style, value=2265*)
  1: 0x0247 [0x00] END_REQSTACK()
```

### Event 65535.51

#### Metadata

| Field        | Value   |
|--------------|---------|
| Entrypoint   | 0x0248  |
| Data Size    | 5 bytes |
| Instructions | 2       |

```
      00 01 02 03 04 05 06 07  08 09 0A 0B 0C 0D 0E 0F
      -- -- -- -- -- -- -- --  -- -- -- -- -- -- -- --
0240:                          B6 00 5D 80 00                   ..]..   
```

#### Opcodes

```
  0: 0x0248 [0xB6] ENTITY_APPEARANCE_HANDLER(case=Hair style, value=2267*)
  1: 0x024C [0x00] END_REQSTACK()
```

### Event 65535.52

#### Metadata

| Field        | Value   |
|--------------|---------|
| Entrypoint   | 0x024D  |
| Data Size    | 5 bytes |
| Instructions | 2       |

```
      00 01 02 03 04 05 06 07  08 09 0A 0B 0C 0D 0E 0F
      -- -- -- -- -- -- -- --  -- -- -- -- -- -- -- --
0240:                                         B6 00 5F               .._
0250: 80 00                                             ..              
```

#### Opcodes

```
  0: 0x024D [0xB6] ENTITY_APPEARANCE_HANDLER(case=Hair style, value=2268*)
  1: 0x0251 [0x00] END_REQSTACK()
```

### Event 65535.53

#### Metadata

| Field        | Value   |
|--------------|---------|
| Entrypoint   | 0x0252  |
| Data Size    | 5 bytes |
| Instructions | 2       |

```
      00 01 02 03 04 05 06 07  08 09 0A 0B 0C 0D 0E 0F
      -- -- -- -- -- -- -- --  -- -- -- -- -- -- -- --
0250:       B6 00 5E 80 00                                ..^..         
```

#### Opcodes

```
  0: 0x0252 [0xB6] ENTITY_APPEARANCE_HANDLER(case=Hair style, value=2265*)
  1: 0x0256 [0x00] END_REQSTACK()
```

### Event 65535.54

#### Metadata

| Field        | Value   |
|--------------|---------|
| Entrypoint   | 0x0257  |
| Data Size    | 5 bytes |
| Instructions | 2       |

```
      00 01 02 03 04 05 06 07  08 09 0A 0B 0C 0D 0E 0F
      -- -- -- -- -- -- -- --  -- -- -- -- -- -- -- --
0250:                      B6  00 5F 80 00                     .._..    
```

#### Opcodes

```
  0: 0x0257 [0xB6] ENTITY_APPEARANCE_HANDLER(case=Hair style, value=2268*)
  1: 0x025B [0x00] END_REQSTACK()
```

### Event 65535.55

#### Metadata

| Field        | Value   |
|--------------|---------|
| Entrypoint   | 0x025C  |
| Data Size    | 5 bytes |
| Instructions | 2       |

```
      00 01 02 03 04 05 06 07  08 09 0A 0B 0C 0D 0E 0F
      -- -- -- -- -- -- -- --  -- -- -- -- -- -- -- --
0250:                                      B6 00 5D 80              ..].
0260: 00                                                .               
```

#### Opcodes

```
  0: 0x025C [0xB6] ENTITY_APPEARANCE_HANDLER(case=Hair style, value=2267*)
  1: 0x0260 [0x00] END_REQSTACK()
```

### Event 65535.56

#### Metadata

| Field        | Value    |
|--------------|----------|
| Entrypoint   | 0x0261   |
| Data Size    | 18 bytes |
| Instructions | 6        |

```
      00 01 02 03 04 05 06 07  08 09 0A 0B 0C 0D 0E 0F
      -- -- -- -- -- -- -- --  -- -- -- -- -- -- -- --
0260:    1C 60 80 32 61 80 1F  00 62 80 63 80 64 80 1F   .`.2a...b.c.d..
0270: 01 6F 00                                          .o.             
```

#### Opcodes

```
  0: 0x0261 [0x1C] WAIT(60* ticks)
  1: 0x0264 [0x32] ExtData[1]->MainSpeed = 38* * 0.1
  2: 0x0267 [0x1F] MOVE_ENTITY: EventEntity moves to X=-36.762*, Z=78.329*, Y=-68.073*
  3: 0x026F [0x1F] MOVE_ENTITY: Update entity position (mode=1)
  4: 0x0271 [0x6F] WAIT_FRAME_DELAY: Yield until WaitTime reaches zero
  5: 0x0272 [0x00] END_REQSTACK()
```

### Event 65535.57

#### Metadata

| Field        | Value    |
|--------------|----------|
| Entrypoint   | 0x0273   |
| Data Size    | 18 bytes |
| Instructions | 6        |

```
      00 01 02 03 04 05 06 07  08 09 0A 0B 0C 0D 0E 0F
      -- -- -- -- -- -- -- --  -- -- -- -- -- -- -- --
0270:          1C 35 80 32 65  80 1F 00 66 80 67 80 68     .5.2e...f.g.h
0280: 80 1F 01 6F 00                                    ...o.           
```

#### Opcodes

```
  0: 0x0273 [0x1C] WAIT(30* ticks)
  1: 0x0276 [0x32] ExtData[1]->MainSpeed = 39* * 0.1
  2: 0x0279 [0x1F] MOVE_ENTITY: EventEntity moves to X=-30.949*, Z=79.134*, Y=-68.054*
  3: 0x0281 [0x1F] MOVE_ENTITY: Update entity position (mode=1)
  4: 0x0283 [0x6F] WAIT_FRAME_DELAY: Yield until WaitTime reaches zero
  5: 0x0284 [0x00] END_REQSTACK()
```

### Event 65535.58

#### Metadata

| Field        | Value    |
|--------------|----------|
| Entrypoint   | 0x0285   |
| Data Size    | 14 bytes |
| Instructions | 4        |

```
      00 01 02 03 04 05 06 07  08 09 0A 0B 0C 0D 0E 0F
      -- -- -- -- -- -- -- --  -- -- -- -- -- -- -- --
0280:                32 69 80  5A 00 6A 80 6B 80 6C 80       2i.Z.j.k.l.
0290: 5A 01 00                                          Z..             
```

#### Opcodes

```
  0: 0x0285 [0x32] ExtData[1]->MainSpeed = 37* * 0.1
  1: 0x0288 [0x5A] UPDATE_EVENT_POSITION: Set EventEntity MovePosition to X=-206.016*, Z=-60.132*, Y=-104.400*
  2: 0x0290 [0x5A] UPDATE_EVENT_POSITION: Move EventEntity incrementally towards MovePosition
  3: 0x0292 [0x00] END_REQSTACK()
```

### Event 65535.59

#### Metadata

| Field        | Value    |
|--------------|----------|
| Entrypoint   | 0x0293   |
| Data Size    | 30 bytes |
| Instructions | 6        |

```
      00 01 02 03 04 05 06 07  08 09 0A 0B 0C 0D 0E 0F
      -- -- -- -- -- -- -- --  -- -- -- -- -- -- -- --
0290:          32 6D 80 1F 00  6E 80 6F 80 70 80 1F 01     2m...n.o.p...
02A0: 6F 5B 71 80 F8 FF FF 7F  F8 FF FF 7F 73 70 70 30  o[q.........spp0
02B0: 00                                                .               
```

#### Opcodes

```
  0: 0x0293 [0x32] ExtData[1]->MainSpeed = 18* * 0.1
  1: 0x0296 [0x1F] MOVE_ENTITY: EventEntity moves to X=-93.448*, Z=-58.006*, Y=-68.249*
  2: 0x029E [0x1F] MOVE_ENTITY: Update entity position (mode=1)
  3: 0x02A0 [0x6F] WAIT_FRAME_DELAY: Yield until WaitTime reaches zero
  4: 0x02A1 [0x5B] LOAD_EXT_SCHEDULER: Load scheduler "spp0" with entities [EventEntity, EventEntity], work=2227*
  5: 0x02B0 [0x00] END_REQSTACK()
```

### Event 65535.60

#### Metadata

| Field        | Value    |
|--------------|----------|
| Entrypoint   | 0x02B1   |
| Data Size    | 15 bytes |
| Instructions | 5        |

```
      00 01 02 03 04 05 06 07  08 09 0A 0B 0C 0D 0E 0F
      -- -- -- -- -- -- -- --  -- -- -- -- -- -- -- --
02B0:    32 4E 80 1F 00 72 80  73 80 74 80 1F 01 6F 00   2N...r.s.t...o.
```

#### Opcodes

```
  0: 0x02B1 [0x32] ExtData[1]->MainSpeed = 20* * 0.1
  1: 0x02B4 [0x1F] MOVE_ENTITY: EventEntity moves to X=-62.393*, Z=-63.522*, Y=-68.014*
  2: 0x02BC [0x1F] MOVE_ENTITY: Update entity position (mode=1)
  3: 0x02BE [0x6F] WAIT_FRAME_DELAY: Yield until WaitTime reaches zero
  4: 0x02BF [0x00] END_REQSTACK()
```

### Event 65535.61

#### Metadata

| Field        | Value    |
|--------------|----------|
| Entrypoint   | 0x02C0   |
| Data Size    | 30 bytes |
| Instructions | 6        |

```
      00 01 02 03 04 05 06 07  08 09 0A 0B 0C 0D 0E 0F
      -- -- -- -- -- -- -- --  -- -- -- -- -- -- -- --
02C0: 32 75 80 1F 00 76 80 77  80 78 80 1F 01 6F 5B 71  2u...v.w.x...o[q
02D0: 80 F8 FF FF 7F F8 FF FF  7F 73 70 70 30 00        .........spp0.  
```

#### Opcodes

```
  0: 0x02C0 [0x32] ExtData[1]->MainSpeed = 17* * 0.1
  1: 0x02C3 [0x1F] MOVE_ENTITY: EventEntity moves to X=-88.906*, Z=-58.078*, Y=-68.000*
  2: 0x02CB [0x1F] MOVE_ENTITY: Update entity position (mode=1)
  3: 0x02CD [0x6F] WAIT_FRAME_DELAY: Yield until WaitTime reaches zero
  4: 0x02CE [0x5B] LOAD_EXT_SCHEDULER: Load scheduler "spp0" with entities [EventEntity, EventEntity], work=2227*
  5: 0x02DD [0x00] END_REQSTACK()
```

### Event 65535.62

#### Metadata

| Field        | Value    |
|--------------|----------|
| Entrypoint   | 0x02DE   |
| Data Size    | 25 bytes |
| Instructions | 7        |

```
      00 01 02 03 04 05 06 07  08 09 0A 0B 0C 0D 0E 0F
      -- -- -- -- -- -- -- --  -- -- -- -- -- -- -- --
02D0:                                            32 6D                2m
02E0: 80 1F 00 79 80 7A 80 70  80 1F 01 1F 00 7B 80 7C  ...y.z.p.....{.|
02F0: 80 78 80 1F 01 6F 00                              .x...o.         
```

#### Opcodes

```
  0: 0x02DE [0x32] ExtData[1]->MainSpeed = 18* * 0.1
  1: 0x02E1 [0x1F] MOVE_ENTITY: EventEntity moves to X=-64.793*, Z=-62.395*, Y=-68.249*
  2: 0x02E9 [0x1F] MOVE_ENTITY: Update entity position (mode=1)
  3: 0x02EB [0x1F] MOVE_ENTITY: EventEntity moves to X=-69.110*, Z=-61.473*, Y=-68.000*
  4: 0x02F3 [0x1F] MOVE_ENTITY: Update entity position (mode=1)
  5: 0x02F5 [0x6F] WAIT_FRAME_DELAY: Yield until WaitTime reaches zero
  6: 0x02F6 [0x00] END_REQSTACK()
```

### Event 65535.63

#### Metadata

| Field        | Value    |
|--------------|----------|
| Entrypoint   | 0x02F7   |
| Data Size    | 15 bytes |
| Instructions | 5        |

```
      00 01 02 03 04 05 06 07  08 09 0A 0B 0C 0D 0E 0F
      -- -- -- -- -- -- -- --  -- -- -- -- -- -- -- --
02F0:                      32  7D 80 1F 00 7E 80 7F 80         2}...~...
0300: 80 80 1F 01 6F 00                                 ....o.          
```

#### Opcodes

```
  0: 0x02F7 [0x32] ExtData[1]->MainSpeed = 19* * 0.1
  1: 0x02FA [0x1F] MOVE_ENTITY: EventEntity moves to X=-62.157*, Z=-61.264*, Y=-67.927*
  2: 0x0302 [0x1F] MOVE_ENTITY: Update entity position (mode=1)
  3: 0x0304 [0x6F] WAIT_FRAME_DELAY: Yield until WaitTime reaches zero
  4: 0x0305 [0x00] END_REQSTACK()
```

### Event 65535.64

#### Metadata

| Field        | Value    |
|--------------|----------|
| Entrypoint   | 0x0306   |
| Data Size    | 15 bytes |
| Instructions | 5        |

```
      00 01 02 03 04 05 06 07  08 09 0A 0B 0C 0D 0E 0F
      -- -- -- -- -- -- -- --  -- -- -- -- -- -- -- --
0300:                   32 81  80 1F 00 82 80 83 80 84        2.........
0310: 80 1F 01 6F 00                                    ...o.           
```

#### Opcodes

```
  0: 0x0306 [0x32] ExtData[1]->MainSpeed = 69* * 0.1
  1: 0x0309 [0x1F] MOVE_ENTITY: EventEntity moves to X=-89.790*, Z=-57.410*, Y=-68.212*
  2: 0x0311 [0x1F] MOVE_ENTITY: Update entity position (mode=1)
  3: 0x0313 [0x6F] WAIT_FRAME_DELAY: Yield until WaitTime reaches zero
  4: 0x0314 [0x00] END_REQSTACK()
```

### Event 65535.65

#### Metadata

| Field        | Value    |
|--------------|----------|
| Entrypoint   | 0x0315   |
| Data Size    | 25 bytes |
| Instructions | 7        |

```
      00 01 02 03 04 05 06 07  08 09 0A 0B 0C 0D 0E 0F
      -- -- -- -- -- -- -- --  -- -- -- -- -- -- -- --
0310:                32 85 80  1F 00 86 80 87 80 88 80       2..........
0320: 1F 01 1F 00 89 80 8A 80  88 80 1F 01 6F 00        ............o.  
```

#### Opcodes

```
  0: 0x0315 [0x32] ExtData[1]->MainSpeed = 70* * 0.1
  1: 0x0318 [0x1F] MOVE_ENTITY: EventEntity moves to X=-101.436*, Z=-59.231*, Y=-69.494*
  2: 0x0320 [0x1F] MOVE_ENTITY: Update entity position (mode=1)
  3: 0x0322 [0x1F] MOVE_ENTITY: EventEntity moves to X=-92.230*, Z=-57.698*, Y=-69.494*
  4: 0x032A [0x1F] MOVE_ENTITY: Update entity position (mode=1)
  5: 0x032C [0x6F] WAIT_FRAME_DELAY: Yield until WaitTime reaches zero
  6: 0x032D [0x00] END_REQSTACK()
```

### Event 65535.66

#### Metadata

| Field        | Value    |
|--------------|----------|
| Entrypoint   | 0x032E   |
| Data Size    | 28 bytes |
| Instructions | 8        |

```
      00 01 02 03 04 05 06 07  08 09 0A 0B 0C 0D 0E 0F
      -- -- -- -- -- -- -- --  -- -- -- -- -- -- -- --
0320:                                            1C 47                .G
0330: 80 32 08 80 1F 00 8B 80  8C 80 8D 80 1F 01 1F 00  .2..............
0340: 8E 80 8F 80 90 80 1F 01  6F 00                    ........o.      
```

#### Opcodes

```
  0: 0x032E [0x1C] WAIT(15* ticks)
  1: 0x0331 [0x32] ExtData[1]->MainSpeed = 40* * 0.1
  2: 0x0334 [0x1F] MOVE_ENTITY: EventEntity moves to X=132.218*, Z=0.664*, Y=-43.591*
  3: 0x033C [0x1F] MOVE_ENTITY: Update entity position (mode=1)
  4: 0x033E [0x1F] MOVE_ENTITY: EventEntity moves to X=114.160*, Z=0.371*, Y=-44.235*
  5: 0x0346 [0x1F] MOVE_ENTITY: Update entity position (mode=1)
  6: 0x0348 [0x6F] WAIT_FRAME_DELAY: Yield until WaitTime reaches zero
  7: 0x0349 [0x00] END_REQSTACK()
```

### Event 65535.67

#### Metadata

| Field        | Value    |
|--------------|----------|
| Entrypoint   | 0x034A   |
| Data Size    | 15 bytes |
| Instructions | 5        |

```
      00 01 02 03 04 05 06 07  08 09 0A 0B 0C 0D 0E 0F
      -- -- -- -- -- -- -- --  -- -- -- -- -- -- -- --
0340:                                32 91 80 1F 00 92            2.....
0350: 80 93 80 94 80 1F 01 6F  00                       .......o.       
```

#### Opcodes

```
  0: 0x034A [0x32] ExtData[1]->MainSpeed = 43* * 0.1
  1: 0x034D [0x1F] MOVE_ENTITY: EventEntity moves to X=112.639*, Z=-0.426*, Y=-44.425*
  2: 0x0355 [0x1F] MOVE_ENTITY: Update entity position (mode=1)
  3: 0x0357 [0x6F] WAIT_FRAME_DELAY: Yield until WaitTime reaches zero
  4: 0x0358 [0x00] END_REQSTACK()
```

### Event 65535.68

#### Metadata

| Field        | Value    |
|--------------|----------|
| Entrypoint   | 0x0359   |
| Data Size    | 15 bytes |
| Instructions | 5        |

```
      00 01 02 03 04 05 06 07  08 09 0A 0B 0C 0D 0E 0F
      -- -- -- -- -- -- -- --  -- -- -- -- -- -- -- --
0350:                             32 08 80 1F 00 95 80           2......
0360: 96 80 97 80 1F 01 6F 00                           ......o.        
```

#### Opcodes

```
  0: 0x0359 [0x32] ExtData[1]->MainSpeed = 40* * 0.1
  1: 0x035C [0x1F] MOVE_ENTITY: EventEntity moves to X=94.528*, Z=-12.740*, Y=-51.272*
  2: 0x0364 [0x1F] MOVE_ENTITY: Update entity position (mode=1)
  3: 0x0366 [0x6F] WAIT_FRAME_DELAY: Yield until WaitTime reaches zero
  4: 0x0367 [0x00] END_REQSTACK()
```

### Event 65535.69

#### Metadata

| Field        | Value   |
|--------------|---------|
| Entrypoint   | 0x0368  |
| Data Size    | 5 bytes |
| Instructions | 2       |

```
      00 01 02 03 04 05 06 07  08 09 0A 0B 0C 0D 0E 0F
      -- -- -- -- -- -- -- --  -- -- -- -- -- -- -- --
0360:                          B6 00 98 80 00                   .....   
```

#### Opcodes

```
  0: 0x0368 [0xB6] ENTITY_APPEARANCE_HANDLER(case=Hair style, value=52*)
  1: 0x036C [0x00] END_REQSTACK()
```

### Event 65535.70

#### Metadata

| Field        | Value   |
|--------------|---------|
| Entrypoint   | 0x036D  |
| Data Size    | 5 bytes |
| Instructions | 2       |

```
      00 01 02 03 04 05 06 07  08 09 0A 0B 0C 0D 0E 0F
      -- -- -- -- -- -- -- --  -- -- -- -- -- -- -- --
0360:                                         B6 00 98               ...
0370: 80 00                                             ..              
```

#### Opcodes

```
  0: 0x036D [0xB6] ENTITY_APPEARANCE_HANDLER(case=Hair style, value=52*)
  1: 0x0371 [0x00] END_REQSTACK()
```

### Event 65535.71

#### Metadata

| Field        | Value   |
|--------------|---------|
| Entrypoint   | 0x0372  |
| Data Size    | 5 bytes |
| Instructions | 2       |

```
      00 01 02 03 04 05 06 07  08 09 0A 0B 0C 0D 0E 0F
      -- -- -- -- -- -- -- --  -- -- -- -- -- -- -- --
0370:       B6 00 98 80 00                                .....         
```

#### Opcodes

```
  0: 0x0372 [0xB6] ENTITY_APPEARANCE_HANDLER(case=Hair style, value=52*)
  1: 0x0376 [0x00] END_REQSTACK()
```

### Event 65535.72

#### Metadata

| Field        | Value    |
|--------------|----------|
| Entrypoint   | 0x0377   |
| Data Size    | 15 bytes |
| Instructions | 5        |

```
      00 01 02 03 04 05 06 07  08 09 0A 0B 0C 0D 0E 0F
      -- -- -- -- -- -- -- --  -- -- -- -- -- -- -- --
0370:                      32  99 80 1F 00 9A 80 9B 80         2........
0380: 78 80 1F 01 6F 00                                 x...o.          
```

#### Opcodes

```
  0: 0x0377 [0x32] ExtData[1]->MainSpeed = 68* * 0.1
  1: 0x037A [0x1F] MOVE_ENTITY: EventEntity moves to X=-90.901*, Z=-57.802*, Y=-68.000*
  2: 0x0382 [0x1F] MOVE_ENTITY: Update entity position (mode=1)
  3: 0x0384 [0x6F] WAIT_FRAME_DELAY: Yield until WaitTime reaches zero
  4: 0x0385 [0x00] END_REQSTACK()
```

### Event 65535.73

#### Metadata

| Field        | Value    |
|--------------|----------|
| Entrypoint   | 0x0386   |
| Data Size    | 25 bytes |
| Instructions | 7        |

```
      00 01 02 03 04 05 06 07  08 09 0A 0B 0C 0D 0E 0F
      -- -- -- -- -- -- -- --  -- -- -- -- -- -- -- --
0380:                   32 85  80 1F 00 9C 80 9D 80 9E        2.........
0390: 80 1F 01 1F 00 9F 80 A0  80 78 80 1F 01 6F 00     .........x...o. 
```

#### Opcodes

```
  0: 0x0386 [0x32] ExtData[1]->MainSpeed = 70* * 0.1
  1: 0x0389 [0x1F] MOVE_ENTITY: EventEntity moves to X=-102.879*, Z=-58.844*, Y=-67.937*
  2: 0x0391 [0x1F] MOVE_ENTITY: Update entity position (mode=1)
  3: 0x0393 [0x1F] MOVE_ENTITY: EventEntity moves to X=-90.940*, Z=-57.859*, Y=-68.000*
  4: 0x039B [0x1F] MOVE_ENTITY: Update entity position (mode=1)
  5: 0x039D [0x6F] WAIT_FRAME_DELAY: Yield until WaitTime reaches zero
  6: 0x039E [0x00] END_REQSTACK()
```

### Event 65535.74

#### Metadata

| Field        | Value    |
|--------------|----------|
| Entrypoint   | 0x039F   |
| Data Size    | 25 bytes |
| Instructions | 7        |

```
      00 01 02 03 04 05 06 07  08 09 0A 0B 0C 0D 0E 0F
      -- -- -- -- -- -- -- --  -- -- -- -- -- -- -- --
0390:                                               32                 2
03A0: 81 80 1F 00 A1 80 A2 80  A3 80 1F 01 1F 00 A4 80  ................
03B0: A5 80 78 80 1F 01 6F 00                           ..x...o.        
```

#### Opcodes

```
  0: 0x039F [0x32] ExtData[1]->MainSpeed = 69* * 0.1
  1: 0x03A2 [0x1F] MOVE_ENTITY: EventEntity moves to X=-102.947*, Z=-56.180*, Y=-67.941*
  2: 0x03AA [0x1F] MOVE_ENTITY: Update entity position (mode=1)
  3: 0x03AC [0x1F] MOVE_ENTITY: EventEntity moves to X=-91.019*, Z=-57.757*, Y=-68.000*
  4: 0x03B4 [0x1F] MOVE_ENTITY: Update entity position (mode=1)
  5: 0x03B6 [0x6F] WAIT_FRAME_DELAY: Yield until WaitTime reaches zero
  6: 0x03B7 [0x00] END_REQSTACK()
```

### Event 65535.75

#### Metadata

| Field        | Value   |
|--------------|---------|
| Entrypoint   | 0x03B8  |
| Data Size    | 5 bytes |
| Instructions | 2       |

```
      00 01 02 03 04 05 06 07  08 09 0A 0B 0C 0D 0E 0F
      -- -- -- -- -- -- -- --  -- -- -- -- -- -- -- --
03B0:                          B6 00 A6 80 00                   .....   
```

#### Opcodes

```
  0: 0x03B8 [0xB6] ENTITY_APPEARANCE_HANDLER(case=Hair style, value=2264*)
  1: 0x03BC [0x00] END_REQSTACK()
```

### Event 65535.76

#### Metadata

| Field        | Value   |
|--------------|---------|
| Entrypoint   | 0x03BD  |
| Data Size    | 4 bytes |
| Instructions | 2       |

```
      00 01 02 03 04 05 06 07  08 09 0A 0B 0C 0D 0E 0F
      -- -- -- -- -- -- -- --  -- -- -- -- -- -- -- --
03B0:                                         C0 A7 80               ...
03C0: 00                                                .               
```

#### Opcodes

```
  0: 0x03BD [0xC0] EventEntity->Render.Flags3 |= 0x1000 // Set bit 12 (from 1*)
  1: 0x03C0 [0x00] END_REQSTACK()
```
