# 17171185

## Common Data

| Field            | Value                           |
|------------------|---------------------------------|
| Zone             | Fort Karugo-Narugo [S] (ID: 96) |
| Block Size       | 29552 bytes                     |
| Total Events     | 7                               |
| References Count | 1104                            |

## List of Events

| Event ID              | Entrypoint   |   Size |   Instructions |
|-----------------------|--------------|--------|----------------|
| [65535](#event-65535) | 0x0000       |      1 |              1 |
| [106](#event-106)     | 0x0001       |  10563 |           1109 |
| [111](#event-111)     | 0x2944       |   3994 |            458 |
| [105](#event-105)     | 0x38DE       |   2383 |            295 |
| [101](#event-101)     | 0x422D       |   2190 |            242 |
| [103](#event-103)     | 0x4ABB       |   5379 |            583 |
| [102](#event-102)     | 0x5FBE       |    580 |             71 |

## DAT References (imed_data)

|   Index | Hex Value   |   Dec Value |
|---------|-------------|-------------|
|       0 | 0x00C8      |         200 |
|       1 | 0x0000      |           0 |
|       2 | 0x0013      |          19 |
|       3 | 0x00FF      |         255 |
|       4 | 0x1F1F2     |      127474 |
|       5 | 0x00A5      |         165 |
|       6 | 0xFFFF3FFE  |  4294918142 |
|       7 | 0x34D78     |      216440 |
|       8 | 0x283A      |       10298 |
|       9 | 0xFFFF9264  |  4294939236 |
|      10 | 0x04FC      |        1276 |
|      11 | 0x3F4E6     |      259302 |
|      12 | 0xE635      |       58933 |
|      13 | 0xFFFFAD4D  |  4294946125 |
|      14 | 0x407B8     |      264120 |
|      15 | 0xEA5F      |       59999 |
|      16 | 0xFFFFADED  |  4294946285 |
|      17 | 0x3FD01     |      261377 |
|      18 | 0xE908      |       59656 |
|      19 | 0xFFFFADF8  |  4294946296 |
|      20 | 0x4179B     |      268187 |
|      21 | 0xFA9C      |       64156 |
|      22 | 0xFFFFAD89  |  4294946185 |
|      23 | 0x40C52     |      265298 |
|      24 | 0xEE28      |       60968 |
|      25 | 0xFFFFADA0  |  4294946208 |
|      26 | 0x04FB      |        1275 |
|      27 | 0x40FF1     |      266225 |
|      28 | 0xED24      |       60708 |
|      29 | 0xFFFFAE3B  |  4294946363 |
|      30 | 0x407D5     |      264149 |
|      31 | 0xE6C8      |       59080 |
|      32 | 0xFFFFADF9  |  4294946297 |
|      33 | 0x40011     |      262161 |
|      34 | 0xEB33      |       60211 |
|      35 | 0xFFFFADC5  |  4294946245 |
|      36 | 0x10602ED   |    17171181 |
|      37 | 0x402F7     |      262903 |
|      38 | 0xD983      |       55683 |
|      39 | 0xFFFFAE33  |  4294946355 |
|      40 | 0x21A21     |      137761 |
|      41 | 0xFFFFFB2E  |  4294966062 |
|      42 | 0xFFFF5798  |  4294924184 |
|      43 | 0x21181     |      135553 |
|      44 | 0xFFFFFD50  |  4294966608 |
|      45 | 0xFFFF5711  |  4294924049 |
|      46 | 0x0009      |           9 |
|      47 | 0x20FE3     |      135139 |
|      48 | 0x02FB      |         763 |
|      49 | 0xFFFF56E7  |  4294924007 |
|      50 | 0x2120F     |      135695 |
|      51 | 0x0699      |        1689 |
|      52 | 0xFFFF571F  |  4294924063 |
|      53 | 0x217AA     |      137130 |
|      54 | 0x09C8      |        2504 |
|      55 | 0xFFFF5779  |  4294924153 |
|      56 | 0x20E43     |      134723 |
|      57 | 0x0C3A      |        3130 |
|      58 | 0xFFFF56BE  |  4294923966 |
|      59 | 0x212E5     |      135909 |
|      60 | 0xFFFFF836  |  4294965302 |
|      61 | 0xFFFF5735  |  4294924085 |
|      62 | 0xFFFF3393  |  4294914963 |
|      63 | 0xFFFFE5A0  |  4294960544 |
|      64 | 0xFFFED806  |  4294891526 |
|      65 | 0x07EA      |        2026 |
|      66 | 0xFFFF0E64  |  4294905444 |
|      67 | 0x0ABD      |        2749 |
|      68 | 0xFFFED8BF  |  4294891711 |
|      69 | 0x07EB      |        2027 |
|      70 | 0xFFFF2FB8  |  4294913976 |
|      71 | 0xFFFFF906  |  4294965510 |
|      72 | 0xFFFED7BA  |  4294891450 |
|      73 | 0x07B7      |        1975 |
|      74 | 0x0078      |         120 |
|      75 | 0x00F7      |         247 |
|      76 | 0x003C      |          60 |
|      77 | 0x0172      |         370 |
|      78 | 0x1EB3      |        7859 |
|      79 | 0x001E      |          30 |
|      80 | 0x1EB4      |        7860 |
|      81 | 0xFFFF2DFE  |  4294913534 |
|      82 | 0x2B53      |       11091 |
|      83 | 0xFFFED793  |  4294891411 |
|      84 | 0x0001      |           1 |
|      85 | 0x1EB5      |        7861 |
|      86 | 0x055D      |        1373 |
|      87 | 0x1EB6      |        7862 |
|      88 | 0x1EB7      |        7863 |
|      89 | 0x1EB8      |        7864 |
|      90 | 0x1EB9      |        7865 |
|      91 | 0x1EBA      |        7866 |
|      92 | 0x0026      |          38 |
|      93 | 0x1EBB      |        7867 |
|      94 | 0x1EBC      |        7868 |
|      95 | 0x1EBD      |        7869 |
|      96 | 0x1EBE      |        7870 |
|      97 | 0x11721     |       71457 |
|      98 | 0xFFFFFFBA  |  4294967226 |
|      99 | 0xFFFF0048  |  4294901832 |
|     100 | 0x1176E     |       71534 |
|     101 | 0xFFFFFC0C  |  4294966284 |
|     102 | 0xFFFF003E  |  4294901822 |
|     103 | 0x0FC4      |        4036 |
|     104 | 0x005A      |          90 |
|     105 | 0x1EBF      |        7871 |
|     106 | 0x0005      |           5 |
|     107 | 0x00A0      |         160 |
|     108 | 0x0050      |          80 |
|     109 | 0x1EC0      |        7872 |
|     110 | 0x1EC1      |        7873 |
|     111 | 0x1EC2      |        7874 |
|     112 | 0x1EC3      |        7875 |
|     113 | 0xFFFD748F  |  4294800527 |
|     114 | 0x26092     |      155794 |
|     115 | 0xFFFEF660  |  4294899296 |
|     116 | 0x013B      |         315 |
|     117 | 0xFFFD760C  |  4294800908 |
|     118 | 0x26046     |      155718 |
|     119 | 0xFFFEF661  |  4294899297 |
|     120 | 0xFFFD7500  |  4294800640 |
|     121 | 0x25E56     |      155222 |
|     122 | 0x013C      |         316 |
|     123 | 0xFFFD7855  |  4294801493 |
|     124 | 0x25751     |      153425 |
|     125 | 0x04C0      |        1216 |
|     126 | 0x0506      |        1286 |
|     127 | 0x04FE      |        1278 |
|     128 | 0xF2AD      |       62125 |
|     129 | 0xFFFFE201  |  4294959617 |
|     130 | 0xFFFF034D  |  4294902605 |
|     131 | 0x002F      |          47 |
|     132 | 0xFF1D      |       65309 |
|     133 | 0xFFFFE570  |  4294960496 |
|     134 | 0x0047      |          71 |
|     135 | 0x1015B     |       65883 |
|     136 | 0xFFFFEAFA  |  4294961914 |
|     137 | 0x0021      |          33 |
|     138 | 0x0046      |          70 |
|     139 | 0x1EC4      |        7876 |
|     140 | 0x008C      |         140 |
|     141 | 0x000A      |          10 |
|     142 | 0x1EC5      |        7877 |
|     143 | 0x1EC6      |        7878 |
|     144 | 0x1EC7      |        7879 |
|     145 | 0xFE29      |       65065 |
|     146 | 0xFFFFFBF9  |  4294966265 |
|     147 | 0x0020      |          32 |
|     148 | 0xFF40      |       65344 |
|     149 | 0xFFFFF092  |  4294963346 |
|     150 | 0x0F3C      |        3900 |
|     151 | 0xFEAD      |       65197 |
|     152 | 0xFFFFEF38  |  4294963000 |
|     153 | 0x10471     |       66673 |
|     154 | 0xFFFFF077  |  4294963319 |
|     155 | 0x0DAD      |        3501 |
|     156 | 0x052E      |        1326 |
|     157 | 0x1EC8      |        7880 |
|     158 | 0x052F      |        1327 |
|     159 | 0x1EC9      |        7881 |
|     160 | 0x0003      |           3 |
|     161 | 0x0064      |         100 |
|     162 | 0x1ECA      |        7882 |
|     163 | 0x1ECB      |        7883 |
|     164 | 0x1ECC      |        7884 |
|     165 | 0x1ECD      |        7885 |
|     166 | 0x1ECE      |        7886 |
|     167 | 0x1F3FE     |      127998 |
|     168 | 0xFFFFFF11  |  4294967057 |
|     169 | 0x0FBE      |        4030 |
|     170 | 0x1F504     |      128260 |
|     171 | 0x03DA      |         986 |
|     172 | 0x0031      |          49 |
|     173 | 0x1F3FA     |      127994 |
|     174 | 0xFFFFFB39  |  4294966073 |
|     175 | 0x0045      |          69 |
|     176 | 0x1F93B     |      129339 |
|     177 | 0x0C9C      |        3228 |
|     178 | 0xFFFF3E04  |  4294917636 |
|     179 | 0x0041      |          65 |
|     180 | 0x1EFB1     |      126897 |
|     181 | 0xFFFFFE4F  |  4294966863 |
|     182 | 0x1EF5C     |      126812 |
|     183 | 0x13D8      |        5080 |
|     184 | 0x1EF73     |      126835 |
|     185 | 0x05DB      |        1499 |
|     186 | 0x20D5F     |      134495 |
|     187 | 0xFFFFF86A  |  4294965354 |
|     188 | 0xFFFF56A7  |  4294923943 |
|     189 | 0x0FE4      |        4068 |
|     190 | 0x0081      |         129 |
|     191 | 0x1E8E4     |      125156 |
|     192 | 0x0425      |        1061 |
|     193 | 0x056F      |        1391 |
|     194 | 0x1ECF      |        7887 |
|     195 | 0x1ED0      |        7888 |
|     196 | 0x21CC5     |      138437 |
|     197 | 0x0244      |         580 |
|     198 | 0xFFFF57BA  |  4294924218 |
|     199 | 0x0FE3      |        4067 |
|     200 | 0x1ED1      |        7889 |
|     201 | 0x3FF7D     |      262013 |
|     202 | 0xB57C      |       46460 |
|     203 | 0xFFFFB4C9  |  4294948041 |
|     204 | 0x1ED2      |        7890 |
|     205 | 0x00FA      |         250 |
|     206 | 0x0359      |         857 |
|     207 | 0x0008      |           8 |
|     208 | 0x1ED3      |        7891 |
|     209 | 0x1ED4      |        7892 |
|     210 | 0x1ED5      |        7893 |
|     211 | 0x3DE54     |      253524 |
|     212 | 0xA7C0      |       42944 |
|     213 | 0xFFFFB405  |  4294947845 |
|     214 | 0x04FA      |        1274 |
|     215 | 0x0456      |        1110 |
|     216 | 0x007F      |         127 |
|     217 | 0x000F      |          15 |
|     218 | 0x00D7      |         215 |
|     219 | 0x1ED6      |        7894 |
|     220 | 0x361C1     |      221633 |
|     221 | 0x347D      |       13437 |
|     222 | 0xFFFF90AC  |  4294938796 |
|     223 | 0x04FD      |        1277 |
|     224 | 0x35571     |      218481 |
|     225 | 0x419A      |       16794 |
|     226 | 0xFFFF9165  |  4294938981 |
|     227 | 0x0502      |        1282 |
|     228 | 0x36359     |      222041 |
|     229 | 0x4E25      |       20005 |
|     230 | 0xFFFF9099  |  4294938777 |
|     231 | 0x00A2      |         162 |
|     232 | 0x0014      |          20 |
|     233 | 0x35BB1     |      220081 |
|     234 | 0x457C      |       17788 |
|     235 | 0xFFFF909C  |  4294938780 |
|     236 | 0x068C      |        1676 |
|     237 | 0x34A58     |      215640 |
|     238 | 0x41B5      |       16821 |
|     239 | 0xFFFF92CC  |  4294939340 |
|     240 | 0x05C5      |        1477 |
|     241 | 0x33A50     |      211536 |
|     242 | 0x4CB4      |       19636 |
|     243 | 0xFFFF95FD  |  4294940157 |
|     244 | 0x0627      |        1575 |
|     245 | 0x068B      |        1675 |
|     246 | 0x34471     |      214129 |
|     247 | 0x6D44      |       27972 |
|     248 | 0xFFFF9378  |  4294939512 |
|     249 | 0x344EA     |      214250 |
|     250 | 0x6073      |       24691 |
|     251 | 0xFFFF9611  |  4294940177 |
|     252 | 0x0028      |          40 |
|     253 | 0x0019      |          25 |
|     254 | 0x002D      |          45 |
|     255 | 0x1ED7      |        7895 |
|     256 | 0x1ED8      |        7896 |
|     257 | 0x2E6AC     |      190124 |
|     258 | 0xFFFFD08B  |  4294955147 |
|     259 | 0xFFFF6FA3  |  4294930339 |
|     260 | 0x2FD2A     |      195882 |
|     261 | 0xFFFFEAE1  |  4294961889 |
|     262 | 0xFFFF89A8  |  4294937000 |
|     263 | 0x30711     |      198417 |
|     264 | 0xFFFFEB93  |  4294962067 |
|     265 | 0xFFFF8D39  |  4294937913 |
|     266 | 0x0504      |        1284 |
|     267 | 0x2FB40     |      195392 |
|     268 | 0xFFFFF2F0  |  4294963952 |
|     269 | 0xFFFF8B9A  |  4294937498 |
|     270 | 0x0495      |        1173 |
|     271 | 0x2FE51     |      196177 |
|     272 | 0xFFFFFC35  |  4294966325 |
|     273 | 0xFFFF8F65  |  4294938469 |
|     274 | 0x2EA04     |      190980 |
|     275 | 0x054B      |        1355 |
|     276 | 0xFFFF8BBB  |  4294937531 |
|     277 | 0x03A0      |         928 |
|     278 | 0x1ED9      |        7897 |
|     279 | 0x00B0      |         176 |
|     280 | 0x1EDA      |        7898 |
|     281 | 0x00BE      |         190 |
|     282 | 0x2EB44     |      191300 |
|     283 | 0xFFFFC18A  |  4294951306 |
|     284 | 0xFFFF7717  |  4294932247 |
|     285 | 0x2E3B7     |      189367 |
|     286 | 0xFFFFC0F2  |  4294951154 |
|     287 | 0xFFFF7691  |  4294932113 |
|     288 | 0x10B4      |        4276 |
|     289 | 0x2DE29     |      187945 |
|     290 | 0xFFFFC4D8  |  4294952152 |
|     291 | 0xFFFF768A  |  4294932106 |
|     292 | 0x10B5      |        4277 |
|     293 | 0x0015      |          21 |
|     294 | 0x1EDB      |        7899 |
|     295 | 0x1EDC      |        7900 |
|     296 | 0x37D32     |      228658 |
|     297 | 0x0FD2      |        4050 |
|     298 | 0xFFFF9295  |  4294939285 |
|     299 | 0x04EC      |        1260 |
|     300 | 0x37967     |      227687 |
|     301 | 0x1BF7      |        7159 |
|     302 | 0xFFFF9110  |  4294938896 |
|     303 | 0x0343      |         835 |
|     304 | 0x39060     |      233568 |
|     305 | 0x098E      |        2446 |
|     306 | 0xFFFF929E  |  4294939294 |
|     307 | 0x0650      |        1616 |
|     308 | 0x36A69     |      223849 |
|     309 | 0x12FB      |        4859 |
|     310 | 0xFFFF9230  |  4294939184 |
|     311 | 0x0435      |        1077 |
|     312 | 0x37487     |      226439 |
|     313 | 0x04EE      |        1262 |
|     314 | 0xFFFF93AD  |  4294939565 |
|     315 | 0x386B7     |      231095 |
|     316 | 0x0FF5      |        4085 |
|     317 | 0xFFFF9291  |  4294939281 |
|     318 | 0x2AA61     |      174689 |
|     319 | 0x121F      |        4639 |
|     320 | 0xFFFF66CE  |  4294928078 |
|     321 | 0x06CD      |        1741 |
|     322 | 0x2C3A6     |      181158 |
|     323 | 0x092D      |        2349 |
|     324 | 0xFFFF77F6  |  4294932470 |
|     325 | 0x070F      |        1807 |
|     326 | 0x2A641     |      173633 |
|     327 | 0xFFFFF61F  |  4294964767 |
|     328 | 0xFFFF65C6  |  4294927814 |
|     329 | 0x0F37      |        3895 |
|     330 | 0x29EB6     |      171702 |
|     331 | 0xFFFFFA74  |  4294965876 |
|     332 | 0xFFFF5FF8  |  4294926328 |
|     333 | 0x0929      |        2345 |
|     334 | 0x2971B     |      169755 |
|     335 | 0xFFFFF15E  |  4294963550 |
|     336 | 0xFFFF5CAF  |  4294925487 |
|     337 | 0x06E6      |        1766 |
|     338 | 0x291B7     |      168375 |
|     339 | 0xFFFFF970  |  4294965616 |
|     340 | 0xFFFF588E  |  4294924430 |
|     341 | 0x0875      |        2165 |
|     342 | 0x0032      |          50 |
|     343 | 0x372BB     |      225979 |
|     344 | 0x13B1      |        5041 |
|     345 | 0xFFFF9218  |  4294939160 |
|     346 | 0x0E0E      |        3598 |
|     347 | 0x36BAB     |      224171 |
|     348 | 0x0586      |        1414 |
|     349 | 0xFFFF9482  |  4294939778 |
|     350 | 0x0D71      |        3441 |
|     351 | 0x38EAC     |      233132 |
|     352 | 0x0162      |         354 |
|     353 | 0xFFFF931C  |  4294939420 |
|     354 | 0x0E10      |        3600 |
|     355 | 0x38237     |      229943 |
|     356 | 0x07CD      |        1997 |
|     357 | 0xFFFF9300  |  4294939392 |
|     358 | 0x0F26      |        3878 |
|     359 | 0x0531      |        1329 |
|     360 | 0x36774     |      223092 |
|     361 | 0xFFFFCFAF  |  4294954927 |
|     362 | 0xFFFF84CE  |  4294935758 |
|     363 | 0x0FAE      |        4014 |
|     364 | 0x05A6      |        1446 |
|     365 | 0x0541      |        1345 |
|     366 | 0x0082      |         130 |
|     367 | 0x00DC      |         220 |
|     368 | 0x34D08     |      216328 |
|     369 | 0xA409      |       41993 |
|     370 | 0xFFFF9C88  |  4294941832 |
|     371 | 0x07D0      |        2000 |
|     372 | 0x2E88A     |      190602 |
|     373 | 0xC3C5      |       50117 |
|     374 | 0xFFFF897B  |  4294936955 |
|     375 | 0x0AE4      |        2788 |
|     376 | 0x2E63A     |      190010 |
|     377 | 0xB7EC      |       47084 |
|     378 | 0xFFFF8884  |  4294936708 |
|     379 | 0x044B      |        1099 |
|     380 | 0x2DD63     |      187747 |
|     381 | 0xC0D9      |       49369 |
|     382 | 0xFFFF8450  |  4294935632 |
|     383 | 0x0C0A      |        3082 |
|     384 | 0x1EDD      |        7901 |
|     385 | 0x2DC7E     |      187518 |
|     386 | 0xBE28      |       48680 |
|     387 | 0xFFFF846A  |  4294935658 |
|     388 | 0x0809      |        2057 |
|     389 | 0x2ED34     |      191796 |
|     390 | 0xBDFA      |       48634 |
|     391 | 0xFFFF8BED  |  4294937581 |
|     392 | 0x01F4      |         500 |
|     393 | 0x2EA8A     |      191114 |
|     394 | 0xB6B9      |       46777 |
|     395 | 0xFFFF8AAC  |  4294937260 |
|     396 | 0x2EC33     |      191539 |
|     397 | 0xB80D      |       47117 |
|     398 | 0xFFFF8B80  |  4294937472 |
|     399 | 0x0808      |        2056 |
|     400 | 0x2DD32     |      187698 |
|     401 | 0xC48B      |       50315 |
|     402 | 0xFFFF8494  |  4294935700 |
|     403 | 0x0080      |         128 |
|     404 | 0x2D10C     |      184588 |
|     405 | 0xFFFFD87C  |  4294957180 |
|     406 | 0xFFFF6F9E  |  4294930334 |
|     407 | 0x05C4      |        1476 |
|     408 | 0x00AC      |         172 |
|     409 | 0x0455      |        1109 |
|     410 | 0x0037      |          55 |
|     411 | 0x0571      |        1393 |
|     412 | 0x1EDF      |        7903 |
|     413 | 0x1EAAA     |      125610 |
|     414 | 0x020D      |         525 |
|     415 | 0xFFFF3C16  |  4294917142 |
|     416 | 0x0FA0      |        4000 |
|     417 | 0x044C      |        1100 |
|     418 | 0x1ED84     |      126340 |
|     419 | 0xFFFFF481  |  4294964353 |
|     420 | 0x0F46      |        3910 |
|     421 | 0x1F129     |      127273 |
|     422 | 0xFFFFF924  |  4294965540 |
|     423 | 0x005E      |          94 |
|     424 | 0x00AB      |         171 |
|     425 | 0x0022      |          34 |
|     426 | 0x1ECC0     |      126144 |
|     427 | 0x0537      |        1335 |
|     428 | 0x1EDE      |        7902 |
|     429 | 0x1C4B2     |      115890 |
|     430 | 0x05B0      |        1456 |
|     431 | 0xFFFF540F  |  4294923279 |
|     432 | 0x0570      |        1392 |
|     433 | 0x0087      |         135 |
|     434 | 0x0834      |        2100 |
|     435 | 0x05BB      |        1467 |
|     436 | 0x0561      |        1377 |
|     437 | 0x00BA      |         186 |
|     438 | 0x00BD      |         189 |
|     439 | 0x0562      |        1378 |
|     440 | 0x05BC      |        1468 |
|     441 | 0x1EE0      |        7904 |
|     442 | 0x010E      |         270 |
|     443 | 0x2EEF9     |      192249 |
|     444 | 0xA3E1      |       41953 |
|     445 | 0xFFFF8CEE  |  4294937838 |
|     446 | 0x0835      |        2101 |
|     447 | 0x1EE1      |        7905 |
|     448 | 0x22A6F     |      141935 |
|     449 | 0x0B00      |        2816 |
|     450 | 0xFFFF57A7  |  4294924199 |
|     451 | 0x06D5      |        1749 |
|     452 | 0x21E8D     |      138893 |
|     453 | 0x06F9      |        1785 |
|     454 | 0xFFFF57D0  |  4294924240 |
|     455 | 0x07D4      |        2004 |
|     456 | 0x2267B     |      140923 |
|     457 | 0xFFFFFEE0  |  4294967008 |
|     458 | 0xFFFF57DA  |  4294924250 |
|     459 | 0x0805      |        2053 |
|     460 | 0x22792     |      141202 |
|     461 | 0xFFFFF928  |  4294965544 |
|     462 | 0xFFFF57CC  |  4294924236 |
|     463 | 0x07F6      |        2038 |
|     464 | 0x0140      |         320 |
|     465 | 0x0457      |        1111 |
|     466 | 0x009B      |         155 |
|     467 | 0x1CA0E     |      117262 |
|     468 | 0xFFFFFECF  |  4294966991 |
|     469 | 0xFFFF5420  |  4294923296 |
|     470 | 0x08C9      |        2249 |
|     471 | 0x1E78D     |      124813 |
|     472 | 0xFFFFFE83  |  4294966915 |
|     473 | 0x081A      |        2074 |
|     474 | 0x1EE35     |      126517 |
|     475 | 0xFFFFF7D6  |  4294965206 |
|     476 | 0x0819      |        2073 |
|     477 | 0x1EF96     |      126870 |
|     478 | 0x04C1      |        1217 |
|     479 | 0x080F      |        2063 |
|     480 | 0x28203     |      164355 |
|     481 | 0x7CB4      |       31924 |
|     482 | 0xFFFF5747  |  4294924103 |
|     483 | 0x04C5      |        1221 |
|     484 | 0x0563      |        1379 |
|     485 | 0x05CF      |        1487 |
|     486 | 0x05A2      |        1442 |
|     487 | 0x1EE2      |        7906 |
|     488 | 0x1EE3      |        7907 |
|     489 | 0x1EE4      |        7908 |
|     490 | 0x1EE5      |        7909 |
|     491 | 0x1EE6      |        7910 |
|     492 | 0x24517     |      148759 |
|     493 | 0x3AFF      |       15103 |
|     494 | 0xFFFF5234  |  4294922804 |
|     495 | 0x00AF      |         175 |
|     496 | 0x1EE7      |        7911 |
|     497 | 0x0065      |         101 |
|     498 | 0x26FCE     |      159694 |
|     499 | 0x734D      |       29517 |
|     500 | 0xFFFF554B  |  4294923595 |
|     501 | 0x02BD      |         701 |
|     502 | 0xFFFE5C56  |  4294859862 |
|     503 | 0xFFFF8F66  |  4294938470 |
|     504 | 0xFFFEF5B1  |  4294899121 |
|     505 | 0x0C2E      |        3118 |
|     506 | 0xFFFE561D  |  4294858269 |
|     507 | 0xFFFF8C7F  |  4294937727 |
|     508 | 0xFFFEF595  |  4294899093 |
|     509 | 0x0B03      |        2819 |
|     510 | 0xFFFE4FD3  |  4294856659 |
|     511 | 0xFFFF8A15  |  4294937109 |
|     512 | 0x0B68      |        2920 |
|     513 | 0xFFFE45AC  |  4294854060 |
|     514 | 0xFFFF8BCD  |  4294937549 |
|     515 | 0xFFFEF5D3  |  4294899155 |
|     516 | 0x0B94      |        2964 |
|     517 | 0xFFFE47A5  |  4294854565 |
|     518 | 0xFFFFB8A1  |  4294949025 |
|     519 | 0xFFFEC854  |  4294887508 |
|     520 | 0x011E      |         286 |
|     521 | 0xFFFE4907  |  4294854919 |
|     522 | 0xFFFFBB41  |  4294949697 |
|     523 | 0xFFFEC709  |  4294887177 |
|     524 | 0x0002      |           2 |
|     525 | 0xFFFDE8B6  |  4294830262 |
|     526 | 0xFFFFE12B  |  4294959403 |
|     527 | 0xFFFEC03A  |  4294885434 |
|     528 | 0xFFFDF19C  |  4294832540 |
|     529 | 0xFFFFD451  |  4294956113 |
|     530 | 0xFFFEC784  |  4294887300 |
|     531 | 0x0503      |        1283 |
|     532 | 0xFFFDF3FA  |  4294833146 |
|     533 | 0xFFFFD6F2  |  4294956786 |
|     534 | 0xFFFEC73F  |  4294887231 |
|     535 | 0x027A      |         634 |
|     536 | 0x055C      |        1372 |
|     537 | 0x00D8      |         216 |
|     538 | 0x0096      |         150 |
|     539 | 0x1EE8      |        7912 |
|     540 | 0x1EE9      |        7913 |
|     541 | 0x1EEA      |        7914 |
|     542 | 0x1EEB      |        7915 |
|     543 | 0x1EEC      |        7916 |
|     544 | 0x1EED      |        7917 |
|     545 | 0xFFFEDC02  |  4294892546 |
|     546 | 0x18CA      |        6346 |
|     547 | 0xFFFEF6C8  |  4294899400 |
|     548 | 0x0FD6      |        4054 |
|     549 | 0xFFFEEBDA  |  4294896602 |
|     550 | 0x1876      |        6262 |
|     551 | 0xFFFEF71E  |  4294899486 |
|     552 | 0x0C6E      |        3182 |
|     553 | 0xFFFEE1B3  |  4294894003 |
|     554 | 0x2AFE      |       11006 |
|     555 | 0xFFFEF643  |  4294899267 |
|     556 | 0x0F19      |        3865 |
|     557 | 0xFFFEC094  |  4294885524 |
|     558 | 0x15D5      |        5589 |
|     559 | 0x0CA3      |        3235 |
|     560 | 0xFFFEBCF7  |  4294884599 |
|     561 | 0x0CA1      |        3233 |
|     562 | 0xFFFEE0DF  |  4294893791 |
|     563 | 0x0D9C      |        3484 |
|     564 | 0xFFFEC190  |  4294885776 |
|     565 | 0x1D6E      |        7534 |
|     566 | 0x0517      |        1303 |
|     567 | 0xFFFED2C0  |  4294890176 |
|     568 | 0x198E      |        6542 |
|     569 | 0x0E15      |        3605 |
|     570 | 0xFFFEEDB1  |  4294897073 |
|     571 | 0x2029      |        8233 |
|     572 | 0xFFFEF7B1  |  4294899633 |
|     573 | 0x0513      |        1299 |
|     574 | 0xFFFEE6D3  |  4294895315 |
|     575 | 0x318E      |       12686 |
|     576 | 0xFFFEF6F1  |  4294899441 |
|     577 | 0x27F6      |       10230 |
|     578 | 0xFFFEF788  |  4294899592 |
|     579 | 0xFFFECD7A  |  4294888826 |
|     580 | 0x243A      |        9274 |
|     581 | 0xFFFEF61E  |  4294899230 |
|     582 | 0x0806      |        2054 |
|     583 | 0x00AD      |         173 |
|     584 | 0x051B      |        1307 |
|     585 | 0x1EEE      |        7918 |
|     586 | 0x1EEF      |        7919 |
|     587 | 0x006E      |         110 |
|     588 | 0x255CB     |      153035 |
|     589 | 0x12A93     |       76435 |
|     590 | 0xFFFF716D  |  4294930797 |
|     591 | 0x05E0      |        1504 |
|     592 | 0x25E0B     |      155147 |
|     593 | 0x132A3     |       78499 |
|     594 | 0xFFFF727F  |  4294931071 |
|     595 | 0x257BD     |      153533 |
|     596 | 0x13B4D     |       80717 |
|     597 | 0xFFFF7143  |  4294930755 |
|     598 | 0x004C      |          76 |
|     599 | 0x1EF0      |        7920 |
|     600 | 0x255FF     |      153087 |
|     601 | 0x5221      |       21025 |
|     602 | 0xFFFF54D6  |  4294923478 |
|     603 | 0x060D      |        1549 |
|     604 | 0x24F3C     |      151356 |
|     605 | 0x573F      |       22335 |
|     606 | 0xFFFF5366  |  4294923110 |
|     607 | 0x0545      |        1349 |
|     608 | 0x2552D     |      152877 |
|     609 | 0x6A52      |       27218 |
|     610 | 0xFFFF5359  |  4294923097 |
|     611 | 0x25C4A     |      154698 |
|     612 | 0x5DAF      |       23983 |
|     613 | 0xFFFF561B  |  4294923803 |
|     614 | 0x05AA      |        1450 |
|     615 | 0x25EBA     |      155322 |
|     616 | 0x6A79      |       27257 |
|     617 | 0xFFFF5569  |  4294923625 |
|     618 | 0x0546      |        1350 |
|     619 | 0x25521     |      152865 |
|     620 | 0x749C      |       29852 |
|     621 | 0x04E2      |        1250 |
|     622 | 0x2577E     |      153470 |
|     623 | 0x85F5      |       34293 |
|     624 | 0xFFFF51DA  |  4294922714 |
|     625 | 0x04E1      |        1249 |
|     626 | 0x24EDB     |      151259 |
|     627 | 0x8232      |       33330 |
|     628 | 0xFFFF4E2A  |  4294921770 |
|     629 | 0x25A03     |      154115 |
|     630 | 0x4CAD      |       19629 |
|     631 | 0xFFFF55E6  |  4294923750 |
|     632 | 0x05A9      |        1449 |
|     633 | 0x26382     |      156546 |
|     634 | 0x5983      |       22915 |
|     635 | 0xFFFF5777  |  4294924151 |
|     636 | 0x0583      |        1411 |
|     637 | 0x26ACA     |      158410 |
|     638 | 0x645C      |       25692 |
|     639 | 0xFFFF5694  |  4294923924 |
|     640 | 0x057C      |        1404 |
|     641 | 0x24A2C     |      150060 |
|     642 | 0x672A      |       26410 |
|     643 | 0xFFFF50EB  |  4294922475 |
|     644 | 0x04E0      |        1248 |
|     645 | 0x24CE7     |      150759 |
|     646 | 0x748D      |       29837 |
|     647 | 0xFFFF5078  |  4294922360 |
|     648 | 0x0518      |        1304 |
|     649 | 0x053F      |        1343 |
|     650 | 0x1EF1      |        7921 |
|     651 | 0x00F6      |         246 |
|     652 | 0x1EF2      |        7922 |
|     653 | 0x1EF3      |        7923 |
|     654 | 0x1EF4      |        7924 |
|     655 | 0x1EF5      |        7925 |
|     656 | 0x1FB9D     |      129949 |
|     657 | 0x1518      |        5400 |
|     658 | 0x1EF7      |        7927 |
|     659 | 0x000D      |          13 |
|     660 | 0x1EF8      |        7928 |
|     661 | 0x04E8      |        1256 |
|     662 | 0x25D89     |      155017 |
|     663 | 0x5B3C      |       23356 |
|     664 | 0xFFFF5682  |  4294923906 |
|     665 | 0x018E      |         398 |
|     666 | 0x269D1     |      158161 |
|     667 | 0x737A      |       29562 |
|     668 | 0xFFFF5560  |  4294923616 |
|     669 | 0x004E      |          78 |
|     670 | 0x268DA     |      157914 |
|     671 | 0x6731      |       26417 |
|     672 | 0xFFFF564B  |  4294923851 |
|     673 | 0x27412     |      160786 |
|     674 | 0x727D      |       29309 |
|     675 | 0xFFFF55AC  |  4294923692 |
|     676 | 0x085B      |        2139 |
|     677 | 0x27311     |      160529 |
|     678 | 0x624A      |       25162 |
|     679 | 0xFFFF56D7  |  4294923991 |
|     680 | 0x0858      |        2136 |
|     681 | 0x26136     |      155958 |
|     682 | 0x50F3      |       20723 |
|     683 | 0xFFFF57DF  |  4294924255 |
|     684 | 0x0C82      |        3202 |
|     685 | 0x265EB     |      157163 |
|     686 | 0x5BDF      |       23519 |
|     687 | 0xFFFF5759  |  4294924121 |
|     688 | 0x0516      |        1302 |
|     689 | 0x1EF6      |        7926 |
|     690 | 0x1EF9      |        7929 |
|     691 | 0x1B704     |      112388 |
|     692 | 0x1A62      |        6754 |
|     693 | 0xFFFF51B5  |  4294922677 |
|     694 | 0x0012      |          18 |
|     695 | 0x1B536     |      111926 |
|     696 | 0x155D      |        5469 |
|     697 | 0xFFFF51C9  |  4294922697 |
|     698 | 0x1EFA      |        7930 |
|     699 | 0x1EFB      |        7931 |
|     700 | 0x1EFC      |        7932 |
|     701 | 0x1EFD      |        7933 |
|     702 | 0x1EFE      |        7934 |
|     703 | 0x1EFF      |        7935 |
|     704 | 0x0007      |           7 |
|     705 | 0x1F00      |        7936 |
|     706 | 0x1F01      |        7937 |
|     707 | 0x1F02      |        7938 |
|     708 | 0x03CE      |         974 |
|     709 | 0x1F03      |        7939 |
|     710 | 0x1F04      |        7940 |
|     711 | 0x1F05      |        7941 |
|     712 | 0x1F06      |        7942 |
|     713 | 0x1F07      |        7943 |
|     714 | 0xFFFF0D3F  |  4294905151 |
|     715 | 0x0E98      |        3736 |
|     716 | 0x06B8      |        1720 |
|     717 | 0xFFFE63CD  |  4294861773 |
|     718 | 0xFFFFCD9F  |  4294954399 |
|     719 | 0xFFFEC7DB  |  4294887387 |
|     720 | 0xFFFE5F18  |  4294860568 |
|     721 | 0xFFFFC926  |  4294953254 |
|     722 | 0xFFFEC7C4  |  4294887364 |
|     723 | 0x0787      |        1927 |
|     724 | 0x0174      |         372 |
|     725 | 0x1E8D      |        7821 |
|     726 | 0x1E8E      |        7822 |
|     727 | 0x1E8F      |        7823 |
|     728 | 0x1E90      |        7824 |
|     729 | 0x003B      |          59 |
|     730 | 0x1E91      |        7825 |
|     731 | 0xFFFBCE1C  |  4294692380 |
|     732 | 0xFFFFF51B  |  4294964507 |
|     733 | 0xFFFEF474  |  4294898804 |
|     734 | 0x09CA      |        2506 |
|     735 | 0xFFFBD73A  |  4294694714 |
|     736 | 0xFFFFF415  |  4294964245 |
|     737 | 0xFFFBD730  |  4294694704 |
|     738 | 0xFFFFF0DB  |  4294963419 |
|     739 | 0x09CB      |        2507 |
|     740 | 0x002C      |          44 |
|     741 | 0x0016      |          22 |
|     742 | 0x1E92      |        7826 |
|     743 | 0x1E93      |        7827 |
|     744 | 0x1E94      |        7828 |
|     745 | 0x001A      |          26 |
|     746 | 0x1E95      |        7829 |
|     747 | 0x1E96      |        7830 |
|     748 | 0x0006      |           6 |
|     749 | 0x1E97      |        7831 |
|     750 | 0x1E98      |        7832 |
|     751 | 0x1E99      |        7833 |
|     752 | 0x1E9A      |        7834 |
|     753 | 0x1E9B      |        7835 |
|     754 | 0x1E9C      |        7836 |
|     755 | 0x1E9D      |        7837 |
|     756 | 0x1E9E      |        7838 |
|     757 | 0x1E9F      |        7839 |
|     758 | 0x1EA0      |        7840 |
|     759 | 0x001D      |          29 |
|     760 | 0x1EA2      |        7842 |
|     761 | 0x1EA3      |        7843 |
|     762 | 0x1EA4      |        7844 |
|     763 | 0x1EA5      |        7845 |
|     764 | 0x1EA6      |        7846 |
|     765 | 0x1EA7      |        7847 |
|     766 | 0x1EA8      |        7848 |
|     767 | 0x1EA9      |        7849 |
|     768 | 0x1EAA      |        7850 |
|     769 | 0x1EAB      |        7851 |
|     770 | 0x1EAC      |        7852 |
|     771 | 0x1EAD      |        7853 |
|     772 | 0x1EAE      |        7854 |
|     773 | 0x1EAF      |        7855 |
|     774 | 0x1EB0      |        7856 |
|     775 | 0x2E995     |      190869 |
|     776 | 0x9BF6      |       39926 |
|     777 | 0xFFFF8A64  |  4294937188 |
|     778 | 0x30A30     |      199216 |
|     779 | 0xCCE1      |       52449 |
|     780 | 0xFFFF8A35  |  4294937141 |
|     781 | 0x12EB5     |       77493 |
|     782 | 0x2769C     |      161436 |
|     783 | 0xFFFEFB5E  |  4294900574 |
|     784 | 0x12B86     |       76678 |
|     785 | 0x273EB     |      160747 |
|     786 | 0x016F      |         367 |
|     787 | 0x1F0B      |        7947 |
|     788 | 0x1F0C      |        7948 |
|     789 | 0x1F0D      |        7949 |
|     790 | 0x1F0E      |        7950 |
|     791 | 0x1F0F      |        7951 |
|     792 | 0x0508      |        1288 |
|     793 | 0x1F10      |        7952 |
|     794 | 0x0509      |        1289 |
|     795 | 0x1F11      |        7953 |
|     796 | 0x0528      |        1320 |
|     797 | 0x31652     |      202322 |
|     798 | 0xA5FF      |       42495 |
|     799 | 0xFFFF92A0  |  4294939296 |
|     800 | 0x0BB8      |        3000 |
|     801 | 0x009F      |         159 |
|     802 | 0x1F12      |        7954 |
|     803 | 0x00F0      |         240 |
|     804 | 0x00C9      |         201 |
|     805 | 0x141AF     |       82351 |
|     806 | 0x25692     |      153234 |
|     807 | 0xFFFF3634  |  4294915636 |
|     808 | 0x14192     |       82322 |
|     809 | 0x250A1     |      151713 |
|     810 | 0xFFFF36F2  |  4294915826 |
|     811 | 0x13B82     |       80770 |
|     812 | 0x24C19     |      150553 |
|     813 | 0xFFFF38B8  |  4294916280 |
|     814 | 0x017C      |         380 |
|     815 | 0x13D5D     |       81245 |
|     816 | 0x256C0     |      153280 |
|     817 | 0xFFFF362E  |  4294915630 |
|     818 | 0x012C      |         300 |
|     819 | 0x14292     |       82578 |
|     820 | 0x25BB6     |      154550 |
|     821 | 0xFFFF358F  |  4294915471 |
|     822 | 0x140E7     |       82151 |
|     823 | 0x242D8     |      148184 |
|     824 | 0xFFFF3B55  |  4294916949 |
|     825 | 0x0ED3      |        3795 |
|     826 | 0x13889     |       80009 |
|     827 | 0x251D6     |      152022 |
|     828 | 0xFFFF3697  |  4294915735 |
|     829 | 0x0F09      |        3849 |
|     830 | 0x13376     |       78710 |
|     831 | 0x24A4C     |      150092 |
|     832 | 0xFFFF396A  |  4294916458 |
|     833 | 0x0F0A      |        3850 |
|     834 | 0x13E16     |       81430 |
|     835 | 0x2509F     |      151711 |
|     836 | 0xFFFF36F3  |  4294915827 |
|     837 | 0x134F8     |       79096 |
|     838 | 0x256B1     |      153265 |
|     839 | 0xFFFF3630  |  4294915632 |
|     840 | 0x0038      |          56 |
|     841 | 0x0118      |         280 |
|     842 | 0x1F14      |        7956 |
|     843 | 0x1F15      |        7957 |
|     844 | 0x1F16      |        7958 |
|     845 | 0x1F17      |        7959 |
|     846 | 0x1F18      |        7960 |
|     847 | 0x1F19      |        7961 |
|     848 | 0x12F58     |       77656 |
|     849 | 0x27932     |      162098 |
|     850 | 0x01E4      |         484 |
|     851 | 0x1F1A      |        7962 |
|     852 | 0x04EA      |        1258 |
|     853 | 0x1F1B      |        7963 |
|     854 | 0x1F1C      |        7964 |
|     855 | 0x004F      |          79 |
|     856 | 0x35E1F     |      220703 |
|     857 | 0x46E7      |       18151 |
|     858 | 0x09C4      |        2500 |
|     859 | 0x35C18     |      220184 |
|     860 | 0x4122      |       16674 |
|     861 | 0xFFFF9090  |  4294938768 |
|     862 | 0x0A28      |        2600 |
|     863 | 0x3549F     |      218271 |
|     864 | 0x3FD7      |       16343 |
|     865 | 0xFFFF9180  |  4294939008 |
|     866 | 0x0A8C      |        2700 |
|     867 | 0x35B4F     |      219983 |
|     868 | 0x39A3      |       14755 |
|     869 | 0xFFFF90AA  |  4294938794 |
|     870 | 0x36377     |      222071 |
|     871 | 0x3EAF      |       16047 |
|     872 | 0x359BE     |      219582 |
|     873 | 0x4680      |       18048 |
|     874 | 0xFFFF90DB  |  4294938843 |
|     875 | 0x352B0     |      217776 |
|     876 | 0x48C9      |       18633 |
|     877 | 0xFFFF91BC  |  4294939068 |
|     878 | 0x329F2     |      207346 |
|     879 | 0xC85B      |       51291 |
|     880 | 0x35FB0     |      221104 |
|     881 | 0xAFEE      |       45038 |
|     882 | 0xFFFFA16A  |  4294943082 |
|     883 | 0x376E6     |      227046 |
|     884 | 0xA47E      |       42110 |
|     885 | 0xFFFFA876  |  4294944886 |
|     886 | 0x07DC      |        2012 |
|     887 | 0x370B1     |      225457 |
|     888 | 0x9CFF      |       40191 |
|     889 | 0xFFFFA61D  |  4294944285 |
|     890 | 0x35B88     |      220040 |
|     891 | 0x9593      |       38291 |
|     892 | 0xFFFFA06A  |  4294942826 |
|     893 | 0x379D6     |      227798 |
|     894 | 0xA3B8      |       41912 |
|     895 | 0xFFFFA990  |  4294945168 |
|     896 | 0x07DA      |        2010 |
|     897 | 0x388F2     |      231666 |
|     898 | 0x8370      |       33648 |
|     899 | 0xFFFFAD40  |  4294946112 |
|     900 | 0x08FC      |        2300 |
|     901 | 0x38ABB     |      232123 |
|     902 | 0xB6A4      |       46756 |
|     903 | 0xFFFFAF57  |  4294946647 |
|     904 | 0x082F      |        2095 |
|     905 | 0x30FA9     |      200617 |
|     906 | 0x6D1D      |       27933 |
|     907 | 0xFFFF93F0  |  4294939632 |
|     908 | 0x01E1      |         481 |
|     909 | 0x30485     |      197765 |
|     910 | 0x8407      |       33799 |
|     911 | 0xFFFF9292  |  4294939282 |
|     912 | 0x01D5      |         469 |
|     913 | 0x312F1     |      201457 |
|     914 | 0x9548      |       38216 |
|     915 | 0xFFFF9350  |  4294939472 |
|     916 | 0x01C2      |         450 |
|     917 | 0x3092D     |      198957 |
|     918 | 0x92E2      |       37602 |
|     919 | 0x3056E     |      197998 |
|     920 | 0x8F12      |       36626 |
|     921 | 0xFFFF91A0  |  4294939040 |
|     922 | 0x04FF      |        1279 |
|     923 | 0x04ED      |        1261 |
|     924 | 0x04A4      |        1188 |
|     925 | 0x00A1      |         161 |
|     926 | 0x1F22      |        7970 |
|     927 | 0x1F23      |        7971 |
|     928 | 0x00D9      |         217 |
|     929 | 0x1F24      |        7972 |
|     930 | 0x005F      |          95 |
|     931 | 0x1F25      |        7973 |
|     932 | 0x32072     |      204914 |
|     933 | 0x91FB      |       37371 |
|     934 | 0xFFFF93E2  |  4294939618 |
|     935 | 0x1F26      |        7974 |
|     936 | 0x076C      |        1900 |
|     937 | 0x04E9      |        1257 |
|     938 | 0x1F27      |        7975 |
|     939 | 0x3656C     |      222572 |
|     940 | 0x8235      |       33333 |
|     941 | 0xFFFFA1B2  |  4294943154 |
|     942 | 0x041A      |        1050 |
|     943 | 0x36DDE     |      224734 |
|     944 | 0x9C6F      |       40047 |
|     945 | 0xFFFFA512  |  4294944018 |
|     946 | 0x0F98      |        3992 |
|     947 | 0x36EDB     |      224987 |
|     948 | 0xA8E7      |       43239 |
|     949 | 0xFFFFA57B  |  4294944123 |
|     950 | 0x1F28      |        7976 |
|     951 | 0x31244     |      201284 |
|     952 | 0x7E61      |       32353 |
|     953 | 0xFFFF9313  |  4294939411 |
|     954 | 0x30E37     |      200247 |
|     955 | 0x7BED      |       31725 |
|     956 | 0xFFFF9358  |  4294939480 |
|     957 | 0x1F29      |        7977 |
|     958 | 0x1F2A      |        7978 |
|     959 | 0x1F2B      |        7979 |
|     960 | 0x1F2C      |        7980 |
|     961 | 0x338A7     |      211111 |
|     962 | 0x6CDA      |       27866 |
|     963 | 0xFFFF928B  |  4294939275 |
|     964 | 0x0898      |        2200 |
|     965 | 0x1F2D      |        7981 |
|     966 | 0x30952     |      198994 |
|     967 | 0x7B9F      |       31647 |
|     968 | 0xFFFF9335  |  4294939445 |
|     969 | 0x30A0E     |      199182 |
|     970 | 0x8C9C      |       35996 |
|     971 | 0xFFFF922E  |  4294939182 |
|     972 | 0x017D      |         381 |
|     973 | 0x306DA     |      198362 |
|     974 | 0x8B05      |       35589 |
|     975 | 0xFFFF91FB  |  4294939131 |
|     976 | 0x03E9      |        1001 |
|     977 | 0x30203     |      197123 |
|     978 | 0x8B02      |       35586 |
|     979 | 0xFFFF9162  |  4294938978 |
|     980 | 0x0578      |        1400 |
|     981 | 0x30A38     |      199224 |
|     982 | 0x989C      |       39068 |
|     983 | 0xFFFF923A  |  4294939194 |
|     984 | 0x0DC2      |        3522 |
|     985 | 0x31050     |      200784 |
|     986 | 0x9147      |       37191 |
|     987 | 0xFFFF92FD  |  4294939389 |
|     988 | 0x0DAE      |        3502 |
|     989 | 0x2FFD6     |      196566 |
|     990 | 0x899B      |       35227 |
|     991 | 0xFFFF9149  |  4294938953 |
|     992 | 0x0BA3      |        2979 |
|     993 | 0x0049      |          73 |
|     994 | 0x0055      |          85 |
|     995 | 0x31D7C     |      204156 |
|     996 | 0x8F39      |       36665 |
|     997 | 0xFFFF9439  |  4294939705 |
|     998 | 0x31BA1     |      203681 |
|     999 | 0x7DB4      |       32180 |
|    1000 | 0xFFFF9281  |  4294939265 |
|    1001 | 0x31225     |      201253 |
|    1002 | 0x7BF6      |       31734 |
|    1003 | 0xFFFF9327  |  4294939431 |
|    1004 | 0x30AC7     |      199367 |
|    1005 | 0x77F9      |       30713 |
|    1006 | 0xFFFF9365  |  4294939493 |
|    1007 | 0x0E12      |        3602 |
|    1008 | 0x2FCF0     |      195824 |
|    1009 | 0x7D33      |       32051 |
|    1010 | 0xFFFF927A  |  4294939258 |
|    1011 | 0x2FB79     |      195449 |
|    1012 | 0x950A      |       38154 |
|    1013 | 0xFFFF900E  |  4294938638 |
|    1014 | 0x01E0      |         480 |
|    1015 | 0x309E5     |      199141 |
|    1016 | 0xB27D      |       45693 |
|    1017 | 0xFFFF91C8  |  4294939080 |
|    1018 | 0x326F0     |      206576 |
|    1019 | 0x8457      |       33879 |
|    1020 | 0xFFFF9493  |  4294939795 |
|    1021 | 0x2EB8B     |      191371 |
|    1022 | 0x8D7C      |       36220 |
|    1023 | 0xFFFF8B20  |  4294937376 |
|    1024 | 0x2EA4E     |      191054 |
|    1025 | 0xA884      |       43140 |
|    1026 | 0xFFFF8AA2  |  4294937250 |
|    1027 | 0x0030      |          48 |
|    1028 | 0x1F2E      |        7982 |
|    1029 | 0x1F2F      |        7983 |
|    1030 | 0x1F30      |        7984 |
|    1031 | 0x1F31      |        7985 |
|    1032 | 0x1F32      |        7986 |
|    1033 | 0x009D      |         157 |
|    1034 | 0x009E      |         158 |
|    1035 | 0x1F33      |        7987 |
|    1036 | 0x0098      |         152 |
|    1037 | 0x1F34      |        7988 |
|    1038 | 0x1F35      |        7989 |
|    1039 | 0x315F8     |      202232 |
|    1040 | 0x7108      |       28936 |
|    1041 | 0x01CC      |         460 |
|    1042 | 0x0062      |          98 |
|    1043 | 0x1F36      |        7990 |
|    1044 | 0x305BC     |      198076 |
|    1045 | 0x8710      |       34576 |
|    1046 | 0xFFFF9258  |  4294939224 |
|    1047 | 0x07EE      |        2030 |
|    1048 | 0x306E7     |      198375 |
|    1049 | 0x8983      |       35203 |
|    1050 | 0xFFFF922F  |  4294939183 |
|    1051 | 0x30FE5     |      200677 |
|    1052 | 0x8CA8      |       36008 |
|    1053 | 0xFFFF92EB  |  4294939371 |
|    1054 | 0x30F40     |      200512 |
|    1055 | 0x9291      |       37521 |
|    1056 | 0xFFFF92DB  |  4294939355 |
|    1057 | 0x077B      |        1915 |
|    1058 | 0x1F37      |        7991 |
|    1059 | 0x1F38      |        7992 |
|    1060 | 0x1F39      |        7993 |
|    1061 | 0x1F3A      |        7994 |
|    1062 | 0x1F3B      |        7995 |
|    1063 | 0x1F3C      |        7996 |
|    1064 | 0x1F3D      |        7997 |
|    1065 | 0x1F3E      |        7998 |
|    1066 | 0x1F3F      |        7999 |
|    1067 | 0x3652D     |      222509 |
|    1068 | 0x7F41      |       32577 |
|    1069 | 0xFFFFA18B  |  4294943115 |
|    1070 | 0x36810     |      223248 |
|    1071 | 0x7988      |       31112 |
|    1072 | 0xFFFFA1A5  |  4294943141 |
|    1073 | 0x1F40      |        8000 |
|    1074 | 0x1F41      |        8001 |
|    1075 | 0x23C91     |      146577 |
|    1076 | 0x21F7      |        8695 |
|    1077 | 0xFFFF5498  |  4294923416 |
|    1078 | 0x1F42      |        8002 |
|    1079 | 0x1F43      |        8003 |
|    1080 | 0x23728     |      145192 |
|    1081 | 0x1A44      |        6724 |
|    1082 | 0xFFFF563D  |  4294923837 |
|    1083 | 0x0417      |        1047 |
|    1084 | 0x1F44      |        8004 |
|    1085 | 0x1F45      |        8005 |
|    1086 | 0x1F46      |        8006 |
|    1087 | 0x1F47      |        8007 |
|    1088 | 0x318D5     |      202965 |
|    1089 | 0x9AEB      |       39659 |
|    1090 | 0xFFFF92C4  |  4294939332 |
|    1091 | 0x31821     |      202785 |
|    1092 | 0xA05F      |       41055 |
|    1093 | 0x31463     |      201827 |
|    1094 | 0xB5BB      |       46523 |
|    1095 | 0xFFFF915F  |  4294938975 |
|    1096 | 0x2FE07     |      196103 |
|    1097 | 0x91C4      |       37316 |
|    1098 | 0xFFFF90B4  |  4294938804 |
|    1099 | 0x0C5B      |        3163 |
|    1100 | 0x1F1F      |        7967 |
|    1101 | 0x009A      |         154 |
|    1102 | 0x1F20      |        7968 |
|    1103 | 0x1F21      |        7969 |

## Events

### Event 65535

#### Metadata

| Field        | Value   |
|--------------|---------|
| Entrypoint   | 0x0000  |
| Data Size    | 1 bytes |
| Instructions | 1       |

```
      00 01 02 03 04 05 06 07  08 09 0A 0B 0C 0D 0E 0F
      -- -- -- -- -- -- -- --  -- -- -- -- -- -- -- --
0000: 00                                                .               
```

#### Opcodes

```
  0: 0x0000 [0x00] END_REQSTACK()
```

### Event 106

#### Metadata

| Field        | Value       |
|--------------|-------------|
| Entrypoint   | 0x0001      |
| Data Size    | 10563 bytes |
| Instructions | 1109        |

```
      00 01 02 03 04 05 06 07  08 09 0A 0B 0C 0D 0E 0F
      -- -- -- -- -- -- -- --  -- -- -- -- -- -- -- --
0000:    42 45 00 80 F8 FF FF  7F F8 FF FF 7F 66 64 6F   BE..........fdo
0010: 31 01 80 55 00 80 F8 FF  FF 7F F8 FF FF 7F 66 64  1..U..........fd
0020: 6F 31 46 01 38 02 80 77  03 80 01 80 29 10 FD 02  o1F.8..w....)...
0030: 06 01 06 4E 00 FE 02 06  01 4E 00 FF 02 06 01 4E  ...N.....N.....N
0040: 00 FD 02 06 01 4E 00 F8  02 06 01 4E 00 D0 02 06  .....N.....N....
0050: 01 4E 00 21 03 06 01 4E  00 CE 02 06 01 2F 00 01  .N.!...N...../..
0060: 03 06 01 2F 00 02 03 06  01 2F 00 03 03 06 01 2F  .../...../...../
0070: 00 04 03 06 01 2F 00 05  03 06 01 2F 00 06 03 06  ...../...../....
0080: 01 2F 00 07 03 06 01 2F  00 FE 02 06 01 2F 00 FF  ./...../...../..
0090: 02 06 01 2F 00 FD 02 06  01 2F 00 F8 02 06 01 2F  .../...../...../
00A0: 00 F9 02 06 01 2F 00 24  03 06 01 2F 00 23 03 06  ...../.$.../.#..
00B0: 01 2F 00 F4 02 06 01 80  F3 02 06 01 80 02 03 06  ./..............
00C0: 01 80 03 03 06 01 80 04  03 06 01 80 05 03 06 01  ................
00D0: 80 06 03 06 01 94 01 F0  FF FF 7F 94 01 01 03 06  ................
00E0: 01 94 01 E3 02 06 01 94  01 E4 02 06 01 94 01 E5  ................
00F0: 02 06 01 94 01 E6 02 06  01 94 01 EA 02 06 01 94  ................
0100: 01 EB 02 06 01 94 01 EC  02 06 01 94 01 F3 02 06  ................
0110: 01 94 01 F8 02 06 01 94  01 D0 02 06 01 94 01 F4  ................
0120: 02 06 01 94 01 01 03 06  01 94 01 23 03 06 01 94  ...........#....
0130: 01 24 03 06 01 94 01 F9  02 06 01 94 01 FA 02 06  .$..............
0140: 01 94 01 FE 02 06 01 94  01 FF 02 06 01 94 01 F0  ................
0150: 02 06 01 BA FE 02 06 01  04 80 05 80 06 80 01 80  ................
0160: BA FF 02 06 01 07 80 08  80 09 80 0A 80 BA E3 02  ................
0170: 06 01 0B 80 0C 80 0D 80  0A 80 BA E4 02 06 01 0E  ................
0180: 80 0F 80 10 80 0A 80 BA  E5 02 06 01 11 80 12 80  ................
0190: 13 80 0A 80 BA E6 02 06  01 14 80 15 80 16 80 0A  ................
01A0: 80 BA E7 02 06 01 17 80  18 80 19 80 1A 80 BA EA  ................
01B0: 02 06 01 1B 80 1C 80 1D  80 0A 80 BA EB 02 06 01  ................
01C0: 1E 80 1F 80 20 80 1A 80  BA EC 02 06 01 21 80 22  .... ........!."
01D0: 80 23 80 0A 80 37 24 80  25 80 26 80 27 80 BA 11  .#...7$.%.&.'...
01E0: 03 06 01 28 80 29 80 2A  80 01 80 BA 12 03 06 01  ...(.).*........
01F0: 2B 80 2C 80 2D 80 2E 80  BA 13 03 06 01 2F 80 30  +.,.-......../.0
0200: 80 31 80 01 80 BA 14 03  06 01 32 80 33 80 34 80  .1........2.3.4.
0210: 01 80 BA 15 03 06 01 35  80 36 80 37 80 2E 80 BA  .......5.6.7....
0220: 16 03 06 01 38 80 39 80  3A 80 2E 80 BA 17 03 06  ....8.9.:.......
0230: 01 3B 80 3C 80 3D 80 2E  80 BA F8 02 06 01 3E 80  .;.<.=........>.
0240: 3F 80 40 80 41 80 BA F0  FF FF 7F 42 80 43 80 44  ?.@.A......B.C.D
0250: 80 45 80 BA 21 03 06 01  46 80 47 80 48 80 49 80  .E..!...F.G.H.I.
0260: 29 10 F4 02 06 01 09 4A  F8 02 06 01 21 03 06 01  )......J....!...
0270: 80 F8 02 06 01 80 21 03  06 01 80 CE 02 06 01 5D  ......!........]
0280: 01 80 4A 80 5C 00 01 80  5C 01 01 80 5C 02 4B 80  ..J.\...\...\.K.
0290: 5C 03 4B 80 1C 4C 80 45  4D 80 F0 FF FF 7F F0 FF  \.K..L.EM.......
02A0: FF 7F 7A 7A 7A 61 01 80  45 00 80 F0 FF FF 7F F0  ..zzza..E.......
02B0: FF FF 7F 66 64 69 31 01  80 1C 4C 80 2B CE 02 06  ...fdi1...L.+...
02C0: 01 4E 80 23 52 4D 80 F0  FF FF 7F F0 FF FF 7F 7A  .N.#RM.........z
02D0: 7A 7A 61 45 4D 80 F0 FF  FF 7F F0 FF FF 7F 7A 7A  zzaEM.........zz
02E0: 7A 7A 01 80 27 10 F8 02  06 01 06 1C 4F 80 2B CE  zz..'.......O.+.
02F0: 02 06 01 50 80 23 4A F0  FF FF 7F 21 03 06 01 1C  ...P.#J....!....
0300: 4C 80 4E 00 D0 02 06 01  80 D0 02 06 01 BA D0 02  L.N.............
0310: 06 01 51 80 52 80 53 80  41 80 4A 21 03 06 01 F8  ..Q.R.S.A.J!....
0320: 02 06 01 52 4D 80 F0 FF  FF 7F F0 FF FF 7F 7A 7A  ...RM.........zz
0330: 7A 7A 45 4D 80 F0 FF FF  7F F0 FF FF 7F 7A 7A 7A  zzEM.........zzz
0340: 62 01 80 2A 10 F8 02 06  01 6F 76 21 03 06 01 6E  b..*.....ov!...n
0350: 21 03 06 01 54 80 99 21  03 06 01 2B 21 03 06 01  !...T..!...+!...
0360: 55 80 23 5B 56 80 F8 02  06 01 F8 02 06 01 67 75  U.#[V.........gu
0370: 64 30 2B F8 02 06 01 57  80 23 52 4D 80 F0 FF FF  d0+....W.#RM....
0380: 7F F0 FF FF 7F 7A 7A 7A  62 45 4D 80 F0 FF FF 7F  .....zzzbEM.....
0390: F0 FF FF 7F 7A 7A 7A 65  01 80 2B 21 03 06 01 58  ....zzze..+!...X
03A0: 80 23 2B F8 02 06 01 59  80 23 52 4D 80 F0 FF FF  .#+....Y.#RM....
03B0: 7F F0 FF FF 7F 7A 7A 7A  65 45 4D 80 F0 FF FF 7F  .....zzzeEM.....
03C0: F0 FF FF 7F 7A 7A 7A 63  01 80 27 10 D0 02 06 01  ....zzzc..'.....
03D0: 04 4A F8 02 06 01 D0 02  06 01 2B D0 02 06 01 5A  .J........+....Z
03E0: 80 23 2B D0 02 06 01 5B  80 23 52 4D 80 F0 FF FF  .#+....[.#RM....
03F0: 7F F0 FF FF 7F 7A 7A 7A  63 45 4D 80 F0 FF FF 7F  .....zzzcEM.....
0400: F0 FF FF 7F 7A 7A 7A 66  01 80 4A 21 03 06 01 D0  ....zzzf..J!....
0410: 02 06 01 6F 76 21 03 06  01 6E 21 03 06 01 5C 80  ...ov!...n!...\.
0420: 99 21 03 06 01 2B 21 03  06 01 5D 80 23 2B F8 02  .!...+!...].#+..
0430: 06 01 5E 80 23 45 4D 80  F0 FF FF 7F F0 FF FF 7F  ..^.#EM.........
0440: 7A 7A 7A 64 01 80 52 4D  80 F0 FF FF 7F F0 FF FF  zzzd..RM........
0450: 7F 7A 7A 7A 66 2B F8 02  06 01 5F 80 23 5B 56 80  .zzzf+...._.#[V.
0460: F8 02 06 01 F8 02 06 01  67 75 64 31 2B F8 02 06  ........gud1+...
0470: 01 60 80 23 27 10 F8 02  06 01 07 1C 4C 80 45 00  .`.#'.......L.E.
0480: 80 F8 FF FF 7F F8 FF FF  7F 66 64 6F 31 01 80 55  .........fdo1..U
0490: 00 80 F8 FF FF 7F F8 FF  FF 7F 66 64 6F 31 52 4D  ..........fdo1RM
04A0: 80 F0 FF FF 7F F0 FF FF  7F 7A 7A 7A 64 4E 01 CE  .........zzzdN..
04B0: 02 06 01 7B D0 02 06 01  2A 10 F8 02 06 01 7B F8  ...{....*.....{.
04C0: 02 06 01 4E 00 E4 02 06  01 4E 00 E3 02 06 01 4E  ...N.....N.....N
04D0: 00 E5 02 06 01 4E 00 E6  02 06 01 4E 00 E7 02 06  .....N.....N....
04E0: 01 4E 00 EA 02 06 01 4E  00 EB 02 06 01 4E 00 EC  .N.....N.....N..
04F0: 02 06 01 4E 00 ED 02 06  01 BA D0 02 06 01 61 80  ...N..........a.
0500: 62 80 63 80 00 80 BA F8  02 06 01 64 80 65 80 66  b.c........d.e.f
0510: 80 67 80 5B 56 80 F8 02  06 01 F8 02 06 01 67 65  .g.[V.........ge
0520: 6E 30 1C 4C 80 45 4D 80  F0 FF FF 7F F0 FF FF 7F  n0.L.EM.........
0530: 67 30 30 30 01 80 45 00  80 F0 FF FF 7F F0 FF FF  g000..E.........
0540: 7F 66 64 69 31 01 80 1C  68 80 2B F8 02 06 01 69  .fdi1...h.+....i
0550: 80 23 1C 6A 80 52 4D 80  F0 FF FF 7F F0 FF FF 7F  .#.j.RM.........
0560: 67 30 30 30 45 4D 80 F0  FF FF 7F F0 FF FF 7F 79  g000EM.........y
0570: 61 67 32 01 80 5C 00 4B  80 5C 01 4B 80 1C 4C 80  ag2..\.K.\.K..L.
0580: 27 10 E4 02 06 01 08 27  10 E5 02 06 01 08 27 10  '......'......'.
0590: E7 02 06 01 08 27 10 E6  02 06 01 08 27 10 EB 02  .....'......'...
05A0: 06 01 05 27 10 EA 02 06  01 04 27 10 ED 02 06 01  ...'......'.....
05B0: 05 27 10 EC 02 06 01 04  27 10 E3 02 06 01 0B 1C  .'......'.......
05C0: 6B 80 45 00 80 F8 FF FF  7F F8 FF FF 7F 6F 76 6C  k.E..........ovl
05D0: 32 01 80 52 4D 80 F0 FF  FF 7F F0 FF FF 7F 79 61  2..RM.........ya
05E0: 67 32 45 4D 80 F0 FF FF  7F F0 FF FF 7F 79 61 67  g2EM.........yag
05F0: 31 01 80 1C 6C 80 45 00  80 F8 FF FF 7F F8 FF FF  1...l.E.........
0600: 7F 6F 76 6C 32 01 80 52  4D 80 F0 FF FF 7F F0 FF  .ovl2..RM.......
0610: FF 7F 79 61 67 31 45 4D  80 F0 FF FF 7F F0 FF FF  ..yag1EM........
0620: 7F 79 61 67 34 01 80 1C  6B 80 5B 56 80 F8 02 06  .yag4...k.[V....
0630: 01 F8 02 06 01 67 65 6E  30 45 4D 80 F0 FF FF 7F  .....gen0EM.....
0640: F0 FF FF 7F 6B 69 6C 6C  01 80 52 4D 80 F0 FF FF  ....kill..RM....
0650: 7F F0 FF FF 7F 79 61 67  34 45 4D 80 F0 FF FF 7F  .....yag4EM.....
0660: F0 FF FF 7F 63 30 33 35  01 80 29 10 FD 02 06 01  ....c035..).....
0670: 07 1C 4C 80 2B D0 02 06  01 6D 80 23 2B F8 02 06  ..L.+....m.#+...
0680: 01 6E 80 23 52 4D 80 F0  FF FF 7F F0 FF FF 7F 63  .n.#RM.........c
0690: 30 33 35 45 4D 80 F0 FF  FF 7F F0 FF FF 7F 63 30  035EM.........c0
06A0: 31 32 01 80 2B F8 02 06  01 6F 80 23 4A D0 02 06  12..+....o.#J...
06B0: 01 F8 02 06 01 2B D0 02  06 01 70 80 23 4E 00 01  .....+....p.#N..
06C0: 03 06 01 4E 00 02 03 06  01 4E 00 03 03 06 01 BA  ...N.....N......
06D0: 01 03 06 01 71 80 72 80  73 80 74 80 BA 02 03 06  ....q.r.s.t.....
06E0: 01 75 80 76 80 77 80 74  80 BA 03 03 06 01 78 80  .u.v.w.t......x.
06F0: 79 80 73 80 7A 80 4E 00  1F 03 06 01 4E 00 20 03  y.s.z.N.....N. .
0700: 06 01 BA 1F 03 06 01 7B  80 7C 80 73 80 7D 80 BA  .......{.|.s.}..
0710: 20 03 06 01 7B 80 7C 80  73 80 7D 80 5B 7E 80 20   ...{.|.s.}.[~. 
0720: 03 06 01 20 03 06 01 67  61 6B 75 5B 7F 80 1F 03  ... ...gaku[....
0730: 06 01 1F 03 06 01 67 61  6B 75 27 10 01 03 06 01  ......gaku'.....
0740: 0F 52 4D 80 F0 FF FF 7F  F0 FF FF 7F 63 30 31 32  .RM.........c012
0750: 45 4D 80 F0 FF FF 7F F0  FF FF 7F 74 65 30 32 01  EM.........te02.
0760: 80 1C 4F 80 27 10 02 03  06 01 0D 1C 4F 80 27 10  ..O.'.......O.'.
0770: 03 03 06 01 0C 4E 00 04  03 06 01 4E 00 05 03 06  .....N.....N....
0780: 01 4E 00 06 03 06 01 BA  05 03 06 01 80 80 81 80  .N..............
0790: 82 80 83 80 BA 04 03 06  01 80 80 81 80 82 80 83  ................
07A0: 80 4E 00 F3 02 06 01 4E  00 F4 02 06 01 4E 00 F6  .N.....N.....N..
07B0: 02 06 01 BA F4 02 06 01  84 80 85 80 82 80 86 80  ................
07C0: BA F3 02 06 01 87 80 88  80 82 80 89 80 1C 8A 80  ................
07D0: 52 4D 80 F0 FF FF 7F F0  FF FF 7F 74 65 30 32 45  RM.........te02E
07E0: 4D 80 F0 FF FF 7F F0 FF  FF 7F 63 30 34 30 01 80  M.........c040..
07F0: 5B 56 80 F8 02 06 01 F8  02 06 01 67 75 64 31 2B  [V.........gud1+
0800: F8 02 06 01 8B 80 23 27  10 F3 02 06 01 07 4E 01  ......#'......N.
0810: 1F 03 06 01 4E 01 20 03  06 01 4E 00 04 03 06 01  ....N. ...N.....
0820: 4E 00 05 03 06 01 4E 00  06 03 06 01 1C 6A 80 52  N.....N......j.R
0830: 4D 80 F0 FF FF 7F F0 FF  FF 7F 63 30 34 30 45 4D  M.........c040EM
0840: 80 F0 FF FF 7F F0 FF FF  7F 63 30 31 33 01 80 27  .........c013..'
0850: 10 F4 02 06 01 07 1C 6A  80 27 10 F6 02 06 01 07  .......j.'......
0860: 1C 6A 80 27 10 04 03 06  01 06 1C 6A 80 27 10 05  .j.'.......j.'..
0870: 03 06 01 06 1C 6A 80 27  10 06 03 06 01 06 1C 6A  .....j.'.......j
0880: 80 4A F8 02 06 01 F3 02  06 01 4A D0 02 06 01 F3  .J........J.....
0890: 02 06 01 6F 76 F8 02 06  01 1C 8C 80 52 4D 80 F0  ...ov.......RM..
08A0: FF FF 7F F0 FF FF 7F 63  30 31 33 45 4D 80 F0 FF  .......c013EM...
08B0: FF 7F F0 FF FF 7F 63 30  31 34 01 80 1C 8D 80 5B  ......c014.....[
08C0: 56 80 F8 02 06 01 F8 02  06 01 67 75 64 30 2B F8  V.........gud0+.
08D0: 02 06 01 8E 80 23 2B F8  02 06 01 8F 80 23 52 4D  .....#+......#RM
08E0: 80 F0 FF FF 7F F0 FF FF  7F 63 30 31 34 45 4D 80  .........c014EM.
08F0: F0 FF FF 7F F0 FF FF 7F  63 30 33 37 01 80 2B F8  ........c037..+.
0900: 02 06 01 90 80 23 4E 00  01 03 06 01 4E 00 02 03  .....#N.....N...
0910: 06 01 4E 00 03 03 06 01  4E 00 F7 02 06 01 BA F7  ..N.....N.......
0920: 02 06 01 91 80 92 80 82  80 93 80 BA 01 03 06 01  ................
0930: 94 80 95 80 82 80 96 80  BA 02 03 06 01 97 80 98  ................
0940: 80 82 80 96 80 BA 03 03  06 01 99 80 9A 80 82 80  ................
0950: 9B 80 5B 9C 80 06 03 06  01 06 03 06 01 6E 79 61  ..[..........nya
0960: 30 5B 9C 80 01 03 06 01  01 03 06 01 6E 79 61 30  0[..........nya0
0970: 5B 9C 80 02 03 06 01 02  03 06 01 6E 79 61 30 5B  [..........nya0[
0980: 9C 80 03 03 06 01 03 03  06 01 6E 79 61 30 5B 9C  ..........nya0[.
0990: 80 04 03 06 01 04 03 06  01 6E 79 61 30 5B 9C 80  .........nya0[..
09A0: 05 03 06 01 05 03 06 01  6E 79 61 30 1C 8D 80 52  ........nya0...R
09B0: 4D 80 F0 FF FF 7F F0 FF  FF 7F 63 30 33 37 45 4D  M.........c037EM
09C0: 80 F0 FF FF 7F F0 FF FF  7F 67 30 30 32 01 80 2B  .........g002..+
09D0: F4 02 06 01 9D 80 23 5B  9E 80 F4 02 06 01 F4 02  ......#[........
09E0: 06 01 73 74 62 31 53 F4  02 06 01 F4 02 06 01 73  ..stb1S........s
09F0: 74 62 31 52 4D 80 F0 FF  FF 7F F0 FF FF 7F 67 30  tb1RM.........g0
0A00: 30 32 45 4D 80 F0 FF FF  7F F0 FF FF 7F 63 30 31  02EM.........c01
0A10: 35 01 80 4A F4 02 06 01  03 03 06 01 4A F3 02 06  5..J........J...
0A20: 01 03 03 06 01 4A F6 02  06 01 03 03 06 01 1C 4F  .....J.........O
0A30: 80 2B F4 02 06 01 9F 80  23 5B 9C 80 06 03 06 01  .+......#[......
0A40: 06 03 06 01 6E 79 61 31  1C A0 80 52 4D 80 F0 FF  ....nya1...RM...
0A50: FF 7F F0 FF FF 7F 63 30  31 35 45 4D 80 F0 FF FF  ......c015EM....
0A60: 7F F0 FF FF 7F 6E 79 61  61 01 80 5B 9C 80 01 03  .....nyaa..[....
0A70: 06 01 01 03 06 01 6E 79  61 31 5B 9C 80 02 03 06  ......nya1[.....
0A80: 01 02 03 06 01 6E 79 61  31 1C A0 80 5B 9C 80 03  .....nya1...[...
0A90: 03 06 01 03 03 06 01 6E  79 61 31 5B 9C 80 04 03  .......nya1[....
0AA0: 06 01 04 03 06 01 6E 79  61 31 5B 9C 80 05 03 06  ......nya1[.....
0AB0: 01 05 03 06 01 6E 79 61  31 1C A1 80 5B 9E 80 F6  .....nya1...[...
0AC0: 02 06 01 F6 02 06 01 73  74 61 31 52 4D 80 F0 FF  .......sta1RM...
0AD0: FF 7F F0 FF FF 7F 6E 79  61 61 45 4D 80 F0 FF FF  ......nyaaEM....
0AE0: 7F F0 FF FF 7F 63 30 33  33 01 80 7B F6 02 06 01  .....c033..{....
0AF0: 7B F3 02 06 01 2B F3 02  06 01 A2 80 23 5B 9E 80  {....+......#[..
0B00: F6 02 06 01 F6 02 06 01  73 74 61 30 2B F6 02 06  ........sta0+...
0B10: 01 A3 80 23 52 4D 80 F0  FF FF 7F F0 FF FF 7F 63  ...#RM.........c
0B20: 30 33 33 45 4D 80 F0 FF  FF 7F F0 FF FF 7F 63 30  033EM.........c0
0B30: 33 32 01 80 2B F3 02 06  01 A4 80 23 2B F4 02 06  32..+......#+...
0B40: 01 A5 80 23 52 4D 80 F0  FF FF 7F F0 FF FF 7F 63  ...#RM.........c
0B50: 30 33 32 45 4D 80 F0 FF  FF 7F F0 FF FF 7F 63 30  032EM.........c0
0B60: 33 34 01 80 1C 4C 80 2B  F8 02 06 01 A6 80 23 1C  34...L.+......#.
0B70: 4C 80 45 00 80 F8 FF FF  7F F8 FF FF 7F 66 64 6F  L.E..........fdo
0B80: 31 01 80 55 00 80 F8 FF  FF 7F F8 FF FF 7F 66 64  1..U..........fd
0B90: 6F 31 52 4D 80 F0 FF FF  7F F0 FF FF 7F 63 30 33  o1RM.........c03
0BA0: 34 4E 01 F8 02 06 01 4E  01 D0 02 06 01 4E 01 21  4N.....N.....N.!
0BB0: 03 06 01 4E 01 F6 02 06  01 4E 01 F7 02 06 01 4E  ...N.....N.....N
0BC0: 01 01 03 06 01 4E 01 02  03 06 01 4E 01 03 03 06  .....N.....N....
0BD0: 01 4E 01 04 03 06 01 4E  01 05 03 06 01 4E 01 06  .N.....N.....N..
0BE0: 03 06 01 29 10 FD 02 06  01 08 1C 4C 80 27 10 E3  ...).......L.'..
0BF0: 02 06 01 07 27 10 E4 02  06 01 07 27 10 E5 02 06  ....'......'....
0C00: 01 07 27 10 E6 02 06 01  07 27 10 E7 02 06 01 07  ..'......'......
0C10: 27 10 EA 02 06 01 03 27  10 EB 02 06 01 03 27 10  '......'......'.
0C20: EC 02 06 01 03 27 10 ED  02 06 01 03 45 4D 80 F0  .....'......EM..
0C30: FF FF 7F F0 FF FF 7F 36  30 30 36 01 80 45 4D 80  .......6006..EM.
0C40: F0 FF FF 7F F0 FF FF 7F  79 61 67 30 01 80 45 00  ........yag0..E.
0C50: 80 F0 FF FF 7F F0 FF FF  7F 66 64 69 31 01 80 4E  .........fdi1..N
0C60: 00 01 03 06 01 4E 00 02  03 06 01 4E 00 03 03 06  .....N.....N....
0C70: 01 4E 00 04 03 06 01 4E  00 05 03 06 01 4E 00 06  .N.....N.....N..
0C80: 03 06 01 4E 00 07 03 06  01 BA 01 03 06 01 A7 80  ...N............
0C90: A8 80 06 80 A9 80 BA 02  03 06 01 AA 80 AB 80 06  ................
0CA0: 80 AC 80 BA 03 03 06 01  AD 80 AE 80 06 80 AF 80  ................
0CB0: BA 05 03 06 01 B0 80 B1  80 B2 80 B3 80 BA 04 03  ................
0CC0: 06 01 B4 80 B5 80 06 80  01 80 BA 06 03 06 01 B6  ................
0CD0: 80 B7 80 06 80 01 80 BA  07 03 06 01 B8 80 B9 80  ................
0CE0: 06 80 01 80 BA 11 03 06  01 28 80 29 80 2A 80 01  .........(.).*..
0CF0: 80 BA 12 03 06 01 2B 80  2C 80 2D 80 2E 80 BA 13  ......+.,.-.....
0D00: 03 06 01 2F 80 30 80 31  80 01 80 BA 14 03 06 01  .../.0.1........
0D10: 32 80 33 80 34 80 01 80  BA 15 03 06 01 35 80 36  2.3.4........5.6
0D20: 80 37 80 2E 80 BA 16 03  06 01 38 80 39 80 3A 80  .7........8.9.:.
0D30: 2E 80 BA 17 03 06 01 3B  80 3C 80 3D 80 2E 80 BA  .......;.<.=....
0D40: F0 FF FF 7F BA 80 BB 80  BC 80 BD 80 29 10 01 03  ............)...
0D50: 06 01 05 29 10 02 03 06  01 07 29 10 03 03 06 01  ...)......).....
0D60: 07 29 10 04 03 06 01 07  29 10 05 03 06 01 07 29  .)......)......)
0D70: 10 06 03 06 01 07 29 10  07 03 06 01 06 1C 4F 80  ......).......O.
0D80: 66 BE 80 01 03 06 01 01  03 06 01 62 6F 77 30 66  f..........bow0f
0D90: BE 80 02 03 06 01 02 03  06 01 62 6F 77 30 66 BE  ..........bow0f.
0DA0: 80 03 03 06 01 03 03 06  01 62 6F 77 30 66 BE 80  .........bow0f..
0DB0: 04 03 06 01 04 03 06 01  62 6F 77 30 66 BE 80 05  ........bow0f...
0DC0: 03 06 01 05 03 06 01 62  6F 77 30 66 BE 80 06 03  .......bow0f....
0DD0: 06 01 06 03 06 01 62 6F  77 30 66 BE 80 07 03 06  ......bow0f.....
0DE0: 01 07 03 06 01 62 6F 77  30 7B F3 02 06 01 BA F3  .....bow0{......
0DF0: 02 06 01 BF 80 C0 80 06  80 01 80 5B C1 80 F3 02  ...........[....
0E00: 06 01 F3 02 06 01 74 65  65 30 1C 05 80 52 4D 80  ......tee0...RM.
0E10: F0 FF FF 7F F0 FF FF 7F  79 61 67 30 45 4D 80 F0  ........yag0EM..
0E20: FF FF 7F F0 FF FF 7F 63  30 33 38 01 80 29 10 FD  .......c038..)..
0E30: 02 06 01 07 1C 4F 80 2B  F3 02 06 01 C2 80 23 52  .....O.+......#R
0E40: 4D 80 F0 FF FF 7F F0 FF  FF 7F 63 30 33 38 45 4D  M.........c038EM
0E50: 80 F0 FF FF 7F F0 FF FF  7F 74 65 73 74 01 80 66  .........test..f
0E60: BE 80 01 03 06 01 01 03  06 01 62 6F 77 31 66 BE  ..........bow1f.
0E70: 80 02 03 06 01 02 03 06  01 62 6F 77 31 66 BE 80  .........bow1f..
0E80: 03 03 06 01 03 03 06 01  62 6F 77 31 66 BE 80 04  ........bow1f...
0E90: 03 06 01 04 03 06 01 62  6F 77 31 66 BE 80 05 03  .......bow1f....
0EA0: 06 01 05 03 06 01 62 6F  77 31 66 BE 80 06 03 06  ......bow1f.....
0EB0: 01 06 03 06 01 62 6F 77  31 66 BE 80 07 03 06 01  .....bow1f......
0EC0: 07 03 06 01 62 6F 77 31  2B F3 02 06 01 C3 80 23  ....bow1+......#
0ED0: 4E 00 F4 02 06 01 4E 00  11 03 06 01 4E 00 12 03  N.....N.....N...
0EE0: 06 01 4E 00 13 03 06 01  4E 00 14 03 06 01 4E 00  ..N.....N.....N.
0EF0: 15 03 06 01 4E 00 16 03  06 01 4E 00 17 03 06 01  ....N.....N.....
0F00: 4E 00 E3 02 06 01 4E 00  E4 02 06 01 4E 00 E5 02  N.....N.....N...
0F10: 06 01 4E 00 EA 02 06 01  4E 00 EB 02 06 01 4E 00  ..N.....N.....N.
0F20: EC 02 06 01 4E 00 ED 02  06 01 80 F4 02 06 01 BA  ....N...........
0F30: F4 02 06 01 C4 80 C5 80  C6 80 C7 80 1C 4F 80 52  .............O.R
0F40: 4D 80 F0 FF FF 7F F0 FF  FF 7F 74 65 73 74 45 4D  M.........testEM
0F50: 80 F0 FF FF 7F F0 FF FF  7F 63 30 30 35 01 80 2A  .........c005..*
0F60: 10 ED 02 06 01 27 01 E3  02 06 01 09 27 02 E4 02  .....'......'...
0F70: 06 01 0A 27 03 E5 02 06  01 0B 27 04 EA 02 06 01  ...'......'.....
0F80: 08 27 05 EB 02 06 01 08  27 06 EC 02 06 01 06 27  .'......'......'
0F90: 10 F0 FF FF 7F 04 2B F4  02 06 01 C8 80 23 4E 00  ......+......#N.
0FA0: F0 02 06 01 BA F0 02 06  01 C9 80 CA 80 CB 80 1A  ................
0FB0: 80 2B F4 02 06 01 CC 80  23 80 F0 02 06 01 52 4D  .+......#.....RM
0FC0: 80 F0 FF FF 7F F0 FF FF  7F 63 30 30 35 45 4D 80  .........c005EM.
0FD0: F0 FF FF 7F F0 FF FF 7F  74 61 69 30 01 80 1C CD  ........tai0....
0FE0: 80 52 4D 80 F0 FF FF 7F  F0 FF FF 7F 74 61 69 30  .RM.........tai0
0FF0: 45 4D 80 F0 FF FF 7F F0  FF FF 7F 74 65 73 31 01  EM.........tes1.
1000: 80 5B CE 80 E3 02 06 01  E3 02 06 01 73 74 66 31  .[..........stf1
1010: 1C CF 80 5B CE 80 ED 02  06 01 ED 02 06 01 77 6E  ...[..........wn
1020: 64 31 1C CF 80 5B CE 80  E4 02 06 01 E4 02 06 01  d1...[..........
1030: 77 6E 64 31 1C CF 80 5B  CE 80 E5 02 06 01 E5 02  wnd1...[........
1040: 06 01 77 6E 64 31 1C CF  80 5B CE 80 EA 02 06 01  ..wnd1...[......
1050: EA 02 06 01 77 6E 64 31  1C CF 80 5B CE 80 EB 02  ....wnd1...[....
1060: 06 01 EB 02 06 01 77 6E  64 31 1C CF 80 5B CE 80  ......wnd1...[..
1070: EC 02 06 01 EC 02 06 01  77 6E 64 31 1C CF 80 5B  ........wnd1...[
1080: CE 80 ED 02 06 01 ED 02  06 01 77 6E 64 31 1C B3  ..........wnd1..
1090: 80 52 4D 80 F0 FF FF 7F  F0 FF FF 7F 74 65 73 31  .RM.........tes1
10A0: 45 4D 80 F0 FF FF 7F F0  FF FF 7F 63 30 32 37 01  EM.........c027.
10B0: 80 2B F4 02 06 01 D0 80  23 52 4D 80 F0 FF FF 7F  .+......#RM.....
10C0: F0 FF FF 7F 63 30 32 37  45 4D 80 F0 FF FF 7F F0  ....c027EM......
10D0: FF FF 7F 63 30 30 38 01  80 2B F3 02 06 01 D1 80  ...c008..+......
10E0: 23 52 4D 80 F0 FF FF 7F  F0 FF FF 7F 63 30 30 38  #RM.........c008
10F0: 45 4D 80 F0 FF FF 7F F0  FF FF 7F 6B 69 6C 6C 01  EM.........kill.
1100: 80 45 4D 80 F0 FF FF 7F  F0 FF FF 7F 63 30 30 30  .EM.........c000
1110: 01 80 66 BE 80 01 03 06  01 01 03 06 01 62 6F 77  ..f..........bow
1120: 32 66 BE 80 02 03 06 01  02 03 06 01 62 6F 77 32  2f..........bow2
1130: 66 BE 80 03 03 06 01 03  03 06 01 62 6F 77 32 66  f..........bow2f
1140: BE 80 04 03 06 01 04 03  06 01 62 6F 77 32 66 BE  ..........bow2f.
1150: 80 05 03 06 01 05 03 06  01 62 6F 77 32 66 BE 80  .........bow2f..
1160: 06 03 06 01 06 03 06 01  62 6F 77 32 66 BE 80 07  ........bow2f...
1170: 03 06 01 07 03 06 01 62  6F 77 32 1C 68 80 52 4D  .......bow2.h.RM
1180: 80 F0 FF FF 7F F0 FF FF  7F 63 30 30 30 45 4D 80  .........c000EM.
1190: F0 FF FF 7F F0 FF FF 7F  63 30 32 38 01 80 2B F3  ........c028..+.
11A0: 02 06 01 D2 80 23 BA EB  02 06 01 D3 80 D4 80 D5  .....#..........
11B0: 80 D6 80 52 4D 80 F0 FF  FF 7F F0 FF FF 7F 63 30  ...RM.........c0
11C0: 32 38 45 4D 80 F0 FF FF  7F F0 FF FF 7F 74 65 30  28EM.........te0
11D0: 33 01 80 5B D7 80 EC 02  06 01 EC 02 06 01 67 79  3..[..........gy
11E0: 61 30 1C 8C 80 52 4D 80  F0 FF FF 7F F0 FF FF 7F  a0...RM.........
11F0: 74 65 30 33 9F D8 80 F8  FF FF 7F F8 FF FF 7F 73  te03...........s
1200: 74 72 30 01 80 45 4D 80  F0 FF FF 7F F0 FF FF 7F  tr0..EM.........
1210: 79 61 67 33 01 80 27 10  EB 02 06 01 04 1C 6A 80  yag3..'.......j.
1220: 27 10 E3 02 06 01 08 1C  CF 80 27 10 ED 02 06 01  '.........'.....
1230: 06 27 10 E4 02 06 01 09  1C 6A 80 27 10 E5 02 06  .'.......j.'....
1240: 01 09 1C CF 80 27 10 EA  02 06 01 05 1C 6A 80 27  .....'.......j.'
1250: 10 EC 02 06 01 05 1C 6A  80 5B D7 80 E3 02 06 01  .......j.[......
1260: E3 02 06 01 67 79 61 31  5B C1 80 F3 02 06 01 F3  ....gya1[.......
1270: 02 06 01 74 65 65 31 1C  D9 80 5D 01 80 4C 80 52  ...tee1...]..L.R
1280: 4D 80 F0 FF FF 7F F0 FF  FF 7F 79 61 67 33 9F D8  M.........yag3..
1290: 80 F8 FF FF 7F F8 FF FF  7F 6B 69 6C 6C 01 80 45  .........kill..E
12A0: 4D 80 F0 FF FF 7F F0 FF  FF 7F 63 30 31 38 01 80  M.........c018..
12B0: 5C 00 DA 80 5C 01 DA 80  5C 02 DA 80 5C 03 DA 80  \...\...\...\...
12C0: 7C 00 F3 02 06 01 2B F3  02 06 01 DB 80 23 7C 01  |.....+......#|.
12D0: F3 02 06 01 4E 01 F0 02  06 01 1C 6A 80 2A 10 EA  ....N......j.*..
12E0: 02 06 01 2A 10 EB 02 06  01 2A 10 EC 02 06 01 66  ...*.....*.....f
12F0: BE 80 01 03 06 01 01 03  06 01 62 6F 77 33 66 BE  ..........bow3f.
1300: 80 02 03 06 01 02 03 06  01 62 6F 77 33 66 BE 80  .........bow3f..
1310: 03 03 06 01 03 03 06 01  62 6F 77 33 66 BE 80 04  ........bow3f...
1320: 03 06 01 04 03 06 01 62  6F 77 33 66 BE 80 05 03  .......bow3f....
1330: 06 01 05 03 06 01 62 6F  77 33 66 BE 80 06 03 06  ......bow3f.....
1340: 01 06 03 06 01 62 6F 77  33 66 BE 80 07 03 06 01  .....bow3f......
1350: 07 03 06 01 62 6F 77 33  52 4D 80 F0 FF FF 7F F0  ....bow3RM......
1360: FF FF 7F 63 30 31 38 45  4D 80 F0 FF FF 7F F0 FF  ...c018EM.......
1370: FF 7F 6B 69 6C 6C 01 80  45 4D 80 F0 FF FF 7F F0  ..kill..EM......
1380: FF FF 7F 63 30 30 31 01  80 1C 4F 80 BA ED 02 06  ...c001...O.....
1390: 01 DC 80 DD 80 DE 80 DF  80 BA E3 02 06 01 E0 80  ................
13A0: E1 80 E2 80 E3 80 BA EC  02 06 01 E4 80 E5 80 E6  ................
13B0: 80 0A 80 1C 4F 80 52 4D  80 F0 FF FF 7F F0 FF FF  ....O.RM........
13C0: 7F 63 30 30 31 45 4D 80  F0 FF FF 7F F0 FF FF 7F  .c001EM.........
13D0: 63 30 30 32 01 80 BB E7  80 FE 02 06 01 FE 02 06  c002............
13E0: 01 73 30 30 30 01 80 1C  E8 80 BA E4 02 06 01 E9  .s000...........
13F0: 80 EA 80 EB 80 EC 80 BA  E5 02 06 01 ED 80 EE 80  ................
1400: EF 80 F0 80 BA E6 02 06  01 F1 80 F2 80 F3 80 F4  ................
1410: 80 BA E7 02 06 01 F1 80  F2 80 F3 80 F5 80 BA EB  ................
1420: 02 06 01 F6 80 F7 80 F8  80 DF 80 BA EA 02 06 01  ................
1430: F9 80 FA 80 FB 80 DF 80  27 10 EC 02 06 01 07 27  ........'......'
1440: 10 E3 02 06 01 0A 27 10  ED 02 06 01 07 1C FC 80  ......'.........
1450: 27 10 E5 02 06 01 0A 52  4D 80 F0 FF FF 7F F0 FF  '......RM.......
1460: FF 7F 63 30 30 32 45 4D  80 F0 FF FF 7F F0 FF FF  ..c002EM........
1470: 7F 63 30 30 33 01 80 27  10 EA 02 06 01 07 27 10  .c003..'......'.
1480: EB 02 06 01 07 1C 6A 80  9F D8 80 F8 FF FF 7F F8  ......j.........
1490: FF FF 7F 73 74 72 30 01  80 BB E7 80 FF 02 06 01  ...str0.........
14A0: FF 02 06 01 73 30 30 31  01 80 1C FD 80 9F D8 80  ....s001........
14B0: F8 FF FF 7F F8 FF FF 7F  6B 69 6C 6C 01 80 1C 8D  ........kill....
14C0: 80 1C FE 80 2C E7 02 06  01 E7 02 06 01 64 65 61  ....,........dea
14D0: 64 1C 8D 80 2C E4 02 06  01 E4 02 06 01 64 65 61  d...,........dea
14E0: 64 2C E6 02 06 01 E6 02  06 01 64 65 61 64 1C 4C  d,........dead.L
14F0: 80 5B 9C 80 F4 02 06 01  F4 02 06 01 72 62 74 30  .[..........rbt0
1500: 1C 8D 80 52 4D 80 F0 FF  FF 7F F0 FF FF 7F 63 30  ...RM.........c0
1510: 30 33 45 4D 80 F0 FF FF  7F F0 FF FF 7F 6B 69 6C  03EM.........kil
1520: 6C 01 80 45 4D 80 F0 FF  FF 7F F0 FF FF 7F 63 30  l..EM.........c0
1530: 30 34 01 80 2B F4 02 06  01 FF 80 23 52 4D 80 F0  04..+......#RM..
1540: FF FF 7F F0 FF FF 7F 63  30 30 34 45 4D 80 F0 FF  .......c004EM...
1550: FF 7F F0 FF FF 7F 63 63  63 63 01 80 5B 1A 80 F4  ......cccc..[...
1560: 02 06 01 F4 02 06 01 72  67 6F 30 2B F4 02 06 01  .......rgo0+....
1570: 00 81 1C 8C 80 27 10 11  03 06 01 03 27 10 12 03  .....'......'...
1580: 06 01 02 27 10 13 03 06  01 02 1C A0 80 27 10 14  ...'.........'..
1590: 03 06 01 02 27 10 15 03  06 01 02 27 10 17 03 06  ....'......'....
15A0: 01 01 27 10 16 03 06 01  02 1C CF 80 52 4D 80 F0  ..'.........RM..
15B0: FF FF 7F F0 FF FF 7F 63  63 63 63 9F D8 80 F8 FF  .......cccc.....
15C0: FF 7F F8 FF FF 7F 73 74  72 30 01 80 45 4D 80 F0  ......str0..EM..
15D0: FF FF 7F F0 FF FF 7F 63  63 63 64 01 80 4E 01 F0  .......cccd..N..
15E0: FF FF 7F 4E 01 F4 02 06  01 4E 00 21 03 06 01 BA  ...N.....N.!....
15F0: 21 03 06 01 01 81 02 81  03 81 96 80 BA EA 02 06  !...............
1600: 01 04 81 05 81 06 81 DF  80 BA EB 02 06 01 07 81  ................
1610: 08 81 09 81 0A 81 BA EC  02 06 01 0B 81 0C 81 0D  ................
1620: 81 0E 81 BA E6 02 06 01  0F 81 10 81 11 81 0A 80  ................
1630: BA E7 02 06 01 12 81 13  81 14 81 15 81 7B 21 03  .............{!.
1640: 06 01 6B 69 64 6C 30 EA  02 06 01 6B 69 64 6C 30  ..kidl0....kidl0
1650: EB 02 06 01 6B 69 64 6C  30 EC 02 06 01 6B 69 64  ....kidl0....kid
1660: 6C 30 E6 02 06 01 6B 69  64 6C 30 E7 02 06 01 6B  l0....kidl0....k
1670: 69 64 6C 30 F3 02 06 01  4E 00 EB 02 06 01 4E 00  idl0....N.....N.
1680: EA 02 06 01 4E 00 EC 02  06 01 1C 68 80 52 4D 80  ....N......h.RM.
1690: F0 FF FF 7F F0 FF FF 7F  63 63 63 64 9F D8 80 F8  ........cccd....
16A0: FF FF 7F F8 FF FF 7F 6B  69 6C 6C 01 80 45 4D 80  .......kill..EM.
16B0: F0 FF FF 7F F0 FF FF 7F  6B 69 6C 6C 01 80 45 4D  ........kill..EM
16C0: 80 F0 FF FF 7F F0 FF FF  7F 63 30 31 30 01 80 1C  .........c010...
16D0: 4F 80 2B 21 03 06 01 16  81 23 52 4D 80 F0 FF FF  O.+!.....#RM....
16E0: 7F F0 FF FF 7F 63 30 31  30 27 10 F0 FF FF 7F 05  .....c010'......
16F0: 45 4D 80 F0 FF FF 7F F0  FF FF 7F 63 30 32 39 01  EM.........c029.
1700: 80 73 17 81 21 03 06 01  E3 02 06 01 2B 21 03 06  .s..!.......+!..
1710: 01 18 81 23 5B CE 80 EA  02 06 01 EA 02 06 01 77  ...#[..........w
1720: 6E 64 31 5B CE 80 EB 02  06 01 EB 02 06 01 77 6E  nd1[..........wn
1730: 64 31 5B CE 80 EC 02 06  01 EC 02 06 01 77 6E 64  d1[..........wnd
1740: 31 52 4D 80 F0 FF FF 7F  F0 FF FF 7F 63 30 32 39  1RM.........c029
1750: 45 4D 80 F0 FF FF 7F F0  FF FF 7F 63 30 31 31 01  EM.........c011.
1760: 80 1C A0 80 BB 19 81 EB  02 06 01 EB 02 06 01 73  ...............s
1770: 74 30 30 01 80 4E 00 CF  02 06 01 4E 00 D1 02 06  t00..N.....N....
1780: 01 4E 00 D2 02 06 01 BA  CF 02 06 01 1A 81 1B 81  .N..............
1790: 1C 81 DF 80 BA D1 02 06  01 1D 81 1E 81 1F 81 20  ............... 
17A0: 81 BA D2 02 06 01 21 81  22 81 23 81 24 81 4A D1  ......!.".#.$.J.
17B0: 02 06 01 21 03 06 01 4A  D2 02 06 01 21 03 06 01  ...!...J....!...
17C0: 4A CF 02 06 01 21 03 06  01 1C 68 80 52 4D 80 F0  J....!....h.RM..
17D0: FF FF 7F F0 FF FF 7F 63  30 31 31 45 4D 80 F0 FF  .......c011EM...
17E0: FF 7F F0 FF FF 7F 63 30  32 34 01 80 1C FE 80 52  ......c024.....R
17F0: 4D 80 F0 FF FF 7F F0 FF  FF 7F 63 30 32 34 45 4D  M.........c024EM
1800: 80 F0 FF FF 7F F0 FF FF  7F 63 30 31 36 01 80 6E  .........c016..n
1810: 21 03 06 01 25 81 99 21  03 06 01 2B 21 03 06 01  !...%..!...+!...
1820: 26 81 23 2B 21 03 06 01  27 81 23 BA E4 02 06 01  &.#+!...'.#.....
1830: 28 81 29 81 2A 81 2B 81  BA E5 02 06 01 2C 81 2D  (.).*.+......,.-
1840: 81 2E 81 2F 81 BA E6 02  06 01 30 81 31 81 32 81  .../......0.1.2.
1850: 33 81 BA E7 02 06 01 34  81 35 81 36 81 37 81 BA  3......4.5.6.7..
1860: EA 02 06 01 38 81 39 81  3A 81 DF 80 BA EB 02 06  ....8.9.:.......
1870: 01 3B 81 3C 81 3D 81 0A  80 6B 69 64 6C 30 E3 02  .;.<.=...kidl0..
1880: 06 01 6B 69 64 6C 30 E4  02 06 01 6B 69 64 6C 30  ..kidl0....kidl0
1890: E5 02 06 01 6B 69 64 6C  30 E6 02 06 01 6B 69 64  ....kidl0....kid
18A0: 6C 30 E7 02 06 01 BA FE  02 06 01 3E 81 3F 81 40  l0.........>.?.@
18B0: 81 41 81 BA FF 02 06 01  42 81 43 81 44 81 45 81  .A......B.C.D.E.
18C0: BA 11 03 06 01 46 81 47  81 48 81 49 81 BA 12 03  .....F.G.H.I....
18D0: 06 01 4A 81 4B 81 4C 81  4D 81 BA 13 03 06 01 4E  ..J.K.L.M......N
18E0: 81 4F 81 50 81 51 81 BA  14 03 06 01 52 81 53 81  .O.P.Q......R.S.
18F0: 54 81 55 81 27 10 13 03  06 01 03 27 10 11 03 06  T.U.'......'....
1900: 01 02 1C 6A 80 27 10 12  03 06 01 03 27 10 14 03  ...j.'......'...
1910: 06 01 03 1C CF 80 52 4D  80 F0 FF FF 7F F0 FF FF  ......RM........
1920: 7F 63 30 31 36 9F D8 80  F8 FF FF 7F F8 FF FF 7F  .c016...........
1930: 73 74 72 30 01 80 45 4D  80 F0 FF FF 7F F0 FF FF  str0..EM........
1940: 7F 63 30 30 36 01 80 1C  E8 80 73 17 81 FD 02 06  .c006.....s.....
1950: 01 FE 02 06 01 1C 56 81  73 17 81 FD 02 06 01 FF  ......V.s.......
1960: 02 06 01 4E 00 F4 02 06  01 4E 00 E6 02 06 01 4E  ...N.....N.....N
1970: 00 E7 02 06 01 4E 00 EA  02 06 01 4E 00 EB 02 06  .....N.....N....
1980: 01 BA 17 03 06 01 57 81  58 81 59 81 5A 81 BA 15  ......W.X.Y.Z...
1990: 03 06 01 5B 81 5C 81 5D  81 5E 81 BA 16 03 06 01  ...[.\.].^......
19A0: 5F 81 60 81 61 81 62 81  BA F4 02 06 01 63 81 64  _.`.a.b......c.d
19B0: 81 65 81 66 81 5B D7 80  E4 02 06 01 E4 02 06 01  .e.f.[..........
19C0: 6C 62 74 6D 5B D7 80 E6  02 06 01 E6 02 06 01 6C  lbtm[..........l
19D0: 62 74 6D 5B D7 80 E5 02  06 01 E5 02 06 01 6C 62  btm[..........lb
19E0: 74 6D 5B D7 80 E7 02 06  01 E7 02 06 01 6C 62 74  tm[..........lbt
19F0: 6D 5B D7 80 EA 02 06 01  EA 02 06 01 6C 62 74 6D  m[..........lbtm
1A00: 5B D7 80 EB 02 06 01 EB  02 06 01 6C 62 74 6D 5B  [..........lbtm[
1A10: 67 81 15 03 06 01 15 03  06 01 6C 62 74 30 5B 67  g.........lbt0[g
1A20: 81 16 03 06 01 16 03 06  01 6C 62 74 30 5B 67 81  .........lbt0[g.
1A30: 17 03 06 01 17 03 06 01  6C 62 74 30 5B 67 81 F4  ........lbt0[g..
1A40: 02 06 01 F4 02 06 01 6C  62 74 30 5B D7 80 E4 02  .......lbt0[....
1A50: 06 01 E4 02 06 01 6C 62  74 6D 1C 4F 80 52 4D 80  ......lbtm.O.RM.
1A60: F0 FF FF 7F F0 FF FF 7F  63 30 30 36 9F D8 80 F8  ........c006....
1A70: FF FF 7F F8 FF FF 7F 6B  69 6C 6C 01 80 45 4D 80  .......kill..EM.
1A80: F0 FF FF 7F F0 FF FF 7F  74 79 30 30 01 80 5B D7  ........ty00..[.
1A90: 80 15 03 06 01 15 03 06  01 76 73 6D 74 1C 8D 80  .........vsmt...
1AA0: 4E 01 21 03 06 01 4E 01  D1 02 06 01 4E 01 D2 02  N.!...N.....N...
1AB0: 06 01 6B 69 64 6C 30 F3  02 06 01 BA 23 03 06 01  ..kidl0.....#...
1AC0: 68 81 69 81 6A 81 6B 81  BA F9 02 06 01 68 81 69  h.i.j.k......h.i
1AD0: 81 6A 81 6B 81 4E 00 23  03 06 01 4E 00 F9 02 06  .j.k.N.#...N....
1AE0: 01 5B 6C 81 23 03 06 01  23 03 06 01 66 73 74 30  .[l.#...#...fst0
1AF0: 5B 6D 81 F9 02 06 01 F9  02 06 01 00 FE FE FE 80  [m..............
1B00: 23 03 06 01 80 F9 02 06  01 1C 6E 81 52 4D 80 F0  #.........n.RM..
1B10: FF FF 7F F0 FF FF 7F 74  79 30 30 45 4D 80 F0 FF  .......ty00EM...
1B20: FF 7F F0 FF FF 7F 61 30  30 35 01 80 1C 6F 81 BA  ......a005...o..
1B30: 07 03 06 01 A7 80 A8 80  06 80 A9 80 4E 00 07 03  ............N...
1B40: 06 01 29 10 07 03 06 01  06 BA 01 03 06 01 70 81  ..)...........p.
1B50: 71 81 72 81 73 81 66 BE  80 02 03 06 01 02 03 06  q.r.s.f.........
1B60: 01 62 6F 77 31 66 BE 80  03 03 06 01 03 03 06 01  .bow1f..........
1B70: 62 6F 77 31 66 BE 80 04  03 06 01 04 03 06 01 62  bow1f..........b
1B80: 6F 77 31 66 BE 80 05 03  06 01 05 03 06 01 62 6F  ow1f..........bo
1B90: 77 31 66 BE 80 07 03 06  01 07 03 06 01 62 6F 77  w1f..........bow
1BA0: 31 5B D7 80 15 03 06 01  15 03 06 01 6B 6B 6D 74  1[..........kkmt
1BB0: 52 4D 80 F0 FF FF 7F F0  FF FF 7F 61 30 30 35 45  RM.........a005E
1BC0: 4D 80 F0 FF FF 7F F0 FF  FF 7F 6B 69 6C 6C 01 80  M.........kill..
1BD0: 7B F3 02 06 01 45 4D 80  F0 FF FF 7F F0 FF FF 7F  {....EM.........
1BE0: 63 30 34 32 01 80 29 10  01 03 06 01 08 4E 01 11  c042..)......N..
1BF0: 03 06 01 4E 01 12 03 06  01 4E 01 13 03 06 01 4E  ...N.....N.....N
1C00: 01 14 03 06 01 4E 01 15  03 06 01 4E 01 16 03 06  .....N.....N....
1C10: 01 4E 01 E7 02 06 01 4E  01 EA 02 06 01 4E 01 EB  .N.....N.....N..
1C20: 02 06 01 4E 01 EC 02 06  01 4E 01 ED 02 06 01 4E  ...N.....N.....N
1C30: 01 23 03 06 01 4E 01 F9  02 06 01 29 10 04 03 06  .#...N.....)....
1C40: 01 08 29 10 05 03 06 01  08 29 10 06 03 06 01 08  ..)......)......
1C50: BA 04 03 06 01 74 81 75  81 76 81 77 81 BA 05 03  .....t.u.v.w....
1C60: 06 01 78 81 79 81 7A 81  7B 81 BA 06 03 06 01 7C  ..x.y.z.{......|
1C70: 81 7D 81 7E 81 7F 81 2B  F3 02 06 01 80 81 23 4E  .}.~...+......#N
1C80: 00 01 03 06 01 4E 00 02  03 06 01 4E 00 03 03 06  .....N.....N....
1C90: 01 4E 00 04 03 06 01 52  4D 80 F0 FF FF 7F F0 FF  .N.....RM.......
1CA0: FF 7F 63 30 34 32 45 4D  80 F0 FF FF 7F F0 FF FF  ..c042EM........
1CB0: 7F 6B 69 6C 6C 01 80 45  4D 80 F0 FF FF 7F F0 FF  .kill..EM.......
1CC0: FF 7F 63 30 34 33 01 80  66 BE 80 07 03 06 01 07  ..c043..f.......
1CD0: 03 06 01 62 6F 77 32 66  BE 80 02 03 06 01 02 03  ...bow2f........
1CE0: 06 01 62 6F 77 32 66 BE  80 03 03 06 01 03 03 06  ..bow2f.........
1CF0: 01 62 6F 77 32 29 10 F4  02 06 01 09 4E 00 F4 02  .bow2)......N...
1D00: 06 01 4E 00 FF 02 06 01  2F 00 01 03 06 01 2F 00  ..N...../...../.
1D10: FF 02 06 01 2F 00 F4 02  06 01 80 01 03 06 01 80  ..../...........
1D20: 02 03 06 01 80 03 03 06  01 80 04 03 06 01 BA FF  ................
1D30: 02 06 01 81 81 82 81 83  81 84 81 BA F4 02 06 01  ................
1D40: 85 81 86 81 87 81 88 81  4E 00 E6 02 06 01 BA E4  ........N.......
1D50: 02 06 01 89 81 8A 81 8B  81 E8 80 BA E5 02 06 01  ................
1D60: 8C 81 8D 81 8E 81 8F 81  BA E6 02 06 01 90 81 91  ................
1D70: 81 92 81 84 81 5B D7 80  E4 02 06 01 E4 02 06 01  .....[..........
1D80: 63 6F 72 70 5B D7 80 E5  02 06 01 E5 02 06 01 63  corp[..........c
1D90: 6F 72 70 5B D7 80 E6 02  06 01 E6 02 06 01 63 6F  orp[..........co
1DA0: 72 70 66 93 81 F4 02 06  01 F4 02 06 01 66 6B 69  rpf..........fki
1DB0: 30 66 93 81 04 03 06 01  04 03 06 01 66 6B 69 30  0f..........fki0
1DC0: 66 93 81 05 03 06 01 05  03 06 01 66 6B 69 30 66  f..........fki0f
1DD0: 93 81 06 03 06 01 06 03  06 01 66 6B 69 30 BA E3  ..........fki0..
1DE0: 02 06 01 94 81 95 81 96  81 97 81 BB 98 81 E3 02  ................
1DF0: 06 01 E3 02 06 01 73 63  30 30 01 80 5B 99 81 E3  ......sc00..[...
1E00: 02 06 01 E3 02 06 01 6D  67 30 30 1C 9A 81 52 4D  .......mg00...RM
1E10: 80 F0 FF FF 7F F0 FF FF  7F 63 30 34 33 45 4D 80  .........c043EM.
1E20: F0 FF FF 7F F0 FF FF 7F  63 30 34 35 01 80 1C 4C  ........c045...L
1E30: 80 BB 6B 80 FD 02 06 01  FF 02 06 01 73 74 30 30  ..k.........st00
1E40: 01 80 1C A0 80 52 4D 80  F0 FF FF 7F F0 FF FF 7F  .....RM.........
1E50: 63 30 34 35 45 4D 80 F0  FF FF 7F F0 FF FF 7F 63  c045EM.........c
1E60: 30 30 37 01 80 1C FD 80  9F D8 80 F8 FF FF 7F F8  007.............
1E70: FF FF 7F 73 74 72 30 01  80 66 93 81 F4 02 06 01  ...str0..f......
1E80: F4 02 06 01 66 6B 69 61  66 93 81 04 03 06 01 04  ....fkiaf.......
1E90: 03 06 01 66 6B 69 63 66  93 81 05 03 06 01 05 03  ...fkicf........
1EA0: 06 01 66 6B 69 63 66 93  81 06 03 06 01 06 03 06  ..fkicf.........
1EB0: 01 66 6B 69 61 9F D8 80  F8 FF FF 7F F8 FF FF 7F  .fkia...........
1EC0: 6B 69 6C 6C 01 80 1C 8A  80 52 4D 80 F0 FF FF 7F  kill.....RM.....
1ED0: F0 FF FF 7F 63 30 30 37  45 4D 80 F0 FF FF 7F F0  ....c007EM......
1EE0: FF FF 7F 63 30 32 36 01  80 66 93 81 01 03 06 01  ...c026..f......
1EF0: 01 03 06 01 66 6B 69 62  1C 6E 81 4E 01 E4 02 06  ....fkib.n.N....
1F00: 01 4E 01 E5 02 06 01 4E  01 E6 02 06 01 5B 9B 81  .N.....N.....[..
1F10: F3 02 06 01 F3 02 06 01  73 61 6B 30 1C 6A 80 52  ........sak0.j.R
1F20: 4D 80 F0 FF FF 7F F0 FF  FF 7F 63 30 32 36 45 4D  M.........c026EM
1F30: 80 F0 FF FF 7F F0 FF FF  7F 63 30 33 31 01 80 2B  .........c031..+
1F40: F3 02 06 01 9C 81 23 29  10 F4 02 06 01 0A 7B F3  ......#)......{.
1F50: 02 06 01 4E 01 F4 02 06  01 29 10 02 03 06 01 07  ...N.....)......
1F60: 29 10 03 03 06 01 07 29  10 04 03 06 01 07 29 10  )......)......).
1F70: 05 03 06 01 07 29 10 06  03 06 01 07 29 10 07 03  .....)......)...
1F80: 06 01 06 7B E3 02 06 01  BA E3 02 06 01 94 81 95  ...{............
1F90: 81 96 81 97 81 BB 98 81  E3 02 06 01 E3 02 06 01  ................
1FA0: 73 63 30 30 01 80 5B 99  81 E3 02 06 01 E3 02 06  sc00..[.........
1FB0: 01 6D 67 30 30 1C 4F 80  52 4D 80 F0 FF FF 7F F0  .mg00.O.RM......
1FC0: FF FF 7F 63 30 33 31 45  4D 80 F0 FF FF 7F F0 FF  ...c031EM.......
1FD0: FF 7F 74 79 30 31 01 80  6B 69 64 6C 30 02 03 06  ..ty01..kidl0...
1FE0: 01 6B 69 64 6C 30 03 03  06 01 6B 69 64 6C 30 04  .kidl0....kidl0.
1FF0: 03 06 01 6B 69 64 6C 30  05 03 06 01 6B 69 64 6C  ...kidl0....kidl
2000: 30 06 03 06 01 66 BE 80  06 03 06 01 06 03 06 01  0....f..........
2010: 62 6F 77 31 66 BE 80 02  03 06 01 02 03 06 01 62  bow1f..........b
2020: 6F 77 31 66 BE 80 03 03  06 01 03 03 06 01 62 6F  ow1f..........bo
2030: 77 31 66 BE 80 04 03 06  01 04 03 06 01 62 6F 77  w1f..........bow
2040: 31 66 BE 80 05 03 06 01  05 03 06 01 62 6F 77 31  1f..........bow1
2050: BA FE 02 06 01 9D 81 9E  81 9F 81 43 80 BA 02 03  ...........C....
2060: 06 01 AA 80 AB 80 06 80  A0 81 BA 03 03 06 01 AD  ................
2070: 80 AE 80 06 80 A1 81 BA  04 03 06 01 A2 81 A3 81  ................
2080: 06 80 00 80 BA 05 03 06  01 B0 80 B1 80 B2 80 A4  ................
2090: 81 BA 06 03 06 01 A5 81  A6 81 06 80 A7 81 BA 07  ................
20A0: 03 06 01 A7 80 A8 80 06  80 8D 80 1C CD 80 52 4D  ..............RM
20B0: 80 F0 FF FF 7F F0 FF FF  7F 74 79 30 31 45 4D 80  .........ty01EM.
20C0: F0 FF FF 7F F0 FF FF 7F  63 30 30 39 01 80 BB 98  ........c009....
20D0: 81 E3 02 06 01 E3 02 06  01 73 63 30 31 01 80 5B  .........sc01..[
20E0: 99 81 E3 02 06 01 E3 02  06 01 6D 67 30 32 1C 4C  ..........mg02.L
20F0: 80 52 4D 80 F0 FF FF 7F  F0 FF FF 7F 63 30 30 39  .RM.........c009
2100: 52 4D 80 F0 FF FF 7F F0  FF FF 7F 74 79 30 31 45  RM.........ty01E
2110: 4D 80 F0 FF FF 7F F0 FF  FF 7F 62 6F 6D 31 01 80  M.........bom1..
2120: BB A8 81 06 03 06 01 FE  02 06 01 73 74 30 30 01  ...........st00.
2130: 80 1C 4F 80 1C 8D 80 52  4D 80 F0 FF FF 7F F0 FF  ..O....RM.......
2140: FF 7F 62 6F 6D 31 45 4D  80 F0 FF FF 7F F0 FF FF  ..bom1EM........
2150: 7F 62 6F 6D 62 01 80 4E  00 00 03 06 01 2F 00 00  .bomb..N...../..
2160: 03 06 01 BB 6B 80 00 03  06 01 00 03 06 01 73 74  ....k.........st
2170: 30 30 01 80 1C D9 80 BB  A8 81 01 03 06 01 01 03  00..............
2180: 06 01 73 63 30 30 01 80  66 BE 80 02 03 06 01 02  ..sc00..f.......
2190: 03 06 01 62 6F 6D 62 BB  A8 81 02 03 06 01 02 03  ...bomb.........
21A0: 06 01 73 63 30 30 01 80  66 BE 80 03 03 06 01 03  ..sc00..f.......
21B0: 03 06 01 62 6F 6D 62 BB  A8 81 03 03 06 01 03 03  ...bomb.........
21C0: 06 01 73 63 30 30 01 80  1C 54 80 66 BE 80 05 03  ..sc00...T.f....
21D0: 06 01 05 03 06 01 62 6F  6D 62 BB A8 81 05 03 06  ......bomb......
21E0: 01 05 03 06 01 73 63 30  30 01 80 66 BE 80 06 03  .....sc00..f....
21F0: 06 01 06 03 06 01 62 6F  6D 62 BB A8 81 06 03 06  ......bomb......
2200: 01 06 03 06 01 73 63 30  30 01 80 66 BE 80 04 03  .....sc00..f....
2210: 06 01 04 03 06 01 62 6F  6D 62 BB A8 81 04 03 06  ......bomb......
2220: 01 04 03 06 01 73 63 30  30 01 80 66 BE 80 07 03  .....sc00..f....
2230: 06 01 07 03 06 01 62 6F  6D 61 BB A8 81 07 03 06  ......boma......
2240: 01 07 03 06 01 73 63 30  31 01 80 1C FD 80 BA F3  .....sc01.......
2250: 02 06 01 BF 80 C0 80 06  80 A9 81 5B C1 80 F3 02  ...........[....
2260: 06 01 F3 02 06 01 66 6B  69 30 1C D9 80 BA 00 03  ......fki0......
2270: 06 01 AA 81 AB 81 06 80  A9 81 52 4D 80 F0 FF FF  ..........RM....
2280: 7F F0 FF FF 7F 62 6F 6D  62 45 4D 80 F0 FF FF 7F  .....bombEM.....
2290: F0 FF FF 7F 70 30 30 30  01 80 2B F3 02 06 01 AC  ....p000..+.....
22A0: 81 4E 01 01 03 06 01 4E  01 02 03 06 01 4E 01 03  .N.....N.....N..
22B0: 03 06 01 4E 01 04 03 06  01 4E 01 05 03 06 01 4E  ...N.....N.....N
22C0: 01 06 03 06 01 4E 01 07  03 06 01 4E 01 14 03 06  .....N.....N....
22D0: 01 4E 01 15 03 06 01 4E  01 16 03 06 01 4E 01 17  .N.....N.....N..
22E0: 03 06 01 4E 01 E3 02 06  01 1C A1 80 52 4D 80 F0  ...N........RM..
22F0: FF FF 7F F0 FF FF 7F 70  30 30 30 27 10 F3 02 06  .......p000'....
2300: 01 0B 45 4D 80 F0 FF FF  7F F0 FF FF 7F 70 30 30  ..EM.........p00
2310: 31 01 80 BA F3 02 06 01  AD 81 AE 81 AF 81 01 80  1...............
2320: 5B B0 81 F3 02 06 01 F3  02 06 01 66 6B 69 31 27  [..........fki1'
2330: 10 F3 02 06 01 0C 1C B1  81 4E 00 01 03 06 01 4E  .........N.....N
2340: 00 23 03 06 01 4E 00 F9  02 06 01 2F 00 23 03 06  .#...N...../.#..
2350: 01 2F 00 F9 02 06 01 80  23 03 06 01 80 F9 02 06  ./......#.......
2360: 01 BA 23 03 06 01 70 81  71 81 72 81 B2 81 BA 01  ..#...p.q.r.....
2370: 03 06 01 70 81 71 81 72  81 B2 81 BA F9 02 06 01  ...p.q.r........
2380: 70 81 71 81 72 81 B2 81  6C FA 02 06 01 01 80 01  p.q.r...l.......
2390: 80 5B B3 81 23 03 06 01  23 03 06 01 00 FE FE FE  .[..#...#.......
23A0: 5B 6D 81 F9 02 06 01 F9  02 06 01 00 FE FE FE 5B  [m.............[
23B0: B4 81 01 03 06 01 01 03  06 01 00 FE FE FE 52 4D  ..............RM
23C0: 80 F0 FF FF 7F F0 FF FF  7F 70 30 30 31 45 4D 80  .........p001EM.
23D0: F0 FF FF 7F F0 FF FF 7F  6B 69 6C 6C 01 80 45 4D  ........kill..EM
23E0: 80 F0 FF FF 7F F0 FF FF  7F 61 30 30 30 01 80 5B  .........a000..[
23F0: B3 81 23 03 06 01 23 03  06 01 63 68 72 30 5B 6D  ..#...#...chr0[m
2400: 81 F9 02 06 01 F9 02 06  01 63 68 72 30 5B B4 81  .........chr0[..
2410: 01 03 06 01 01 03 06 01  63 68 72 30 BB B5 81 F9  ........chr0....
2420: 02 06 01 F9 02 06 01 73  74 30 31 01 80 BB B6 81  .......st01.....
2430: 01 03 06 01 01 03 06 01  73 74 30 31 01 80 2F 00  ........st01../.
2440: 24 03 06 01 5B B7 81 F4  02 06 01 F4 02 06 01 00  $...[...........
2450: FE FE FE 5B B8 81 24 03  06 01 24 03 06 01 00 FE  ...[..$...$.....
2460: FE FE 1C 00 80 2B F4 02  06 01 B9 81 1C BA 81 4E  .....+.........N
2470: 00 FA 02 06 01 4E 00 24  03 06 01 4E 00 F4 02 06  .....N.$...N....
2480: 01 80 FA 02 06 01 80 24  03 06 01 80 F4 02 06 01  .......$........
2490: BA F4 02 06 01 BB 81 BC  81 BD 81 BE 81 BA 24 03  ..............$.
24A0: 06 01 BB 81 BC 81 BD 81  BE 81 BA FA 02 06 01 BB  ................
24B0: 81 BC 81 BD 81 BE 81 BB  B5 81 FA 02 06 01 FA 02  ................
24C0: 06 01 00 FE FE FE 01 80  6C FA 02 06 01 93 81 01  ........l.......
24D0: 80 52 4D 80 F0 FF FF 7F  F0 FF FF 7F 61 30 30 30  .RM.........a000
24E0: 45 4D 80 F0 FF FF 7F F0  FF FF 7F 61 30 30 31 01  EM.........a001.
24F0: 80 5B B7 81 F4 02 06 01  F4 02 06 01 63 68 72 31  .[..........chr1
2500: 5B B8 81 24 03 06 01 24  03 06 01 63 68 72 31 5B  [..$...$...chr1[
2510: 6D 81 FA 02 06 01 FA 02  06 01 63 68 72 31 BB B5  m.........chr1..
2520: 81 FA 02 06 01 FA 02 06  01 73 74 30 32 01 80 4E  .........st02..N
2530: 01 23 03 06 01 4E 01 F9  02 06 01 4E 01 01 03 06  .#...N.....N....
2540: 01 4E 01 F3 02 06 01 7C  00 F4 02 06 01 2B F4 02  .N.....|.....+..
2550: 06 01 BF 81 7C 01 F4 02  06 01 6B 69 64 6C 30 E3  ....|.....kidl0.
2560: 02 06 01 6B 69 64 6C 30  E4 02 06 01 6B 69 64 6C  ...kidl0....kidl
2570: 30 E5 02 06 01 6B 69 64  6C 30 E6 02 06 01 BA E3  0....kidl0......
2580: 02 06 01 C0 81 C1 81 C2  81 C3 81 BA E4 02 06 01  ................
2590: C4 81 C5 81 C6 81 C7 81  BA E5 02 06 01 C8 81 C9  ................
25A0: 81 CA 81 CB 81 BA E6 02  06 01 CC 81 CD 81 CE 81  ................
25B0: CF 81 4E 00 E3 02 06 01  4E 00 E4 02 06 01 4E 00  ..N.....N.....N.
25C0: E5 02 06 01 4E 00 E6 02  06 01 1C D0 81 5B D1 81  ....N........[..
25D0: E6 02 06 01 E6 02 06 01  6A 6D 70 30 1C 8D 80 4E  ........jmp0...N
25E0: 00 E4 02 06 01 5B D1 81  E4 02 06 01 E4 02 06 01  .....[..........
25F0: 6A 6D 70 30 1C 6A 80 4E  00 E5 02 06 01 4E 00 E3  jmp0.j.N.....N..
2600: 02 06 01 52 4D 80 F0 FF  FF 7F F0 FF FF 7F 61 30  ...RM.........a0
2610: 30 31 45 4D 80 F0 FF FF  7F F0 FF FF 7F 6B 69 6C  01EM.........kil
2620: 6C 01 80 45 4D 80 F0 FF  FF 7F F0 FF FF 7F 6A 6D  l..EM.........jm
2630: 70 30 01 80 5B D1 81 E5  02 06 01 E5 02 06 01 6A  p0..[..........j
2640: 6D 70 30 5B D1 81 E3 02  06 01 E3 02 06 01 6A 6D  mp0[..........jm
2650: 70 30 1C D2 81 52 4D 80  F0 FF FF 7F F0 FF FF 7F  p0...RM.........
2660: 6A 6D 70 30 45 4D 80 F0  FF FF 7F F0 FF FF 7F 6A  jmp0EM.........j
2670: 6D 70 33 01 80 BA E6 02  06 01 D3 81 D4 81 D5 81  mp3.............
2680: D6 81 BA E3 02 06 01 D7  81 D8 81 06 80 D9 81 BA  ................
2690: E4 02 06 01 DA 81 DB 81  06 80 DC 81 BA E5 02 06  ................
26A0: 01 DD 81 DE 81 06 80 DF  81 5B D1 81 E3 02 06 01  .........[......
26B0: E3 02 06 01 6A 6D 70 31  1C FE 80 5B D1 81 E4 02  ....jmp1...[....
26C0: 06 01 E4 02 06 01 6A 6D  70 31 5B D1 81 E5 02 06  ......jmp1[.....
26D0: 01 E5 02 06 01 6A 6D 70  31 1C 68 80 5B D1 81 E6  .....jmp1.h.[...
26E0: 02 06 01 E6 02 06 01 6A  6D 70 31 1C 8D 80 52 4D  .......jmp1...RM
26F0: 80 F0 FF FF 7F F0 FF FF  7F 6A 6D 70 33 45 4D 80  .........jmp3EM.
2700: F0 FF FF 7F F0 FF FF 7F  6A 6D 70 31 01 80 BA 24  ........jmp1...$
2710: 03 06 01 E0 81 E1 81 E2  81 E3 81 BA F4 02 06 01  ................
2720: E0 81 E1 81 E2 81 E3 81  BA FA 02 06 01 E0 81 E1  ................
2730: 81 E2 81 E3 81 5B E4 81  F4 02 06 01 F4 02 06 01  .....[..........
2740: 72 63 68 6C 5B 6C 81 24  03 06 01 24 03 06 01 72  rchl[l.$...$...r
2750: 63 68 6C 5B E5 81 FA 02  06 01 FA 02 06 01 72 63  chl[..........rc
2760: 68 6C 5B E6 81 24 03 06  01 24 03 06 01 66 63 30  hl[..$...$...fc0
2770: 30 1C 68 80 52 4D 80 F0  FF FF 7F F0 FF FF 7F 6A  0.h.RM.........j
2780: 6D 70 31 45 4D 80 F0 FF  FF 7F F0 FF FF 7F 6B 69  mp1EM.........ki
2790: 6C 6C 01 80 45 4D 80 F0  FF FF 7F F0 FF FF 7F 61  ll..EM.........a
27A0: 30 30 32 01 80 1C 4C 80  2B F4 02 06 01 E7 81 23  002...L.+......#
27B0: 2B FD 02 06 01 E8 81 23  52 4D 80 F0 FF FF 7F F0  +......#RM......
27C0: FF FF 7F 61 30 30 32 45  4D 80 F0 FF FF 7F F0 FF  ...a002EM.......
27D0: FF 7F 61 30 30 33 01 80  2B F4 02 06 01 E9 81 23  ..a003..+......#
27E0: 2B F4 02 06 01 EA 81 23  52 4D 80 F0 FF FF 7F F0  +......#RM......
27F0: FF FF 7F 61 30 30 33 45  4D 80 F0 FF FF 7F F0 FF  ...a003EM.......
2800: FF 7F 61 30 30 36 01 80  5B E6 81 24 03 06 01 24  ..a006..[..$...$
2810: 03 06 01 66 63 30 31 2B  23 03 06 01 EB 81 23 5B  ...fc01+#.....#[
2820: E6 81 24 03 06 01 24 03  06 01 66 63 30 30 4E 00  ..$...$...fc00N.
2830: F3 02 06 01 BA F3 02 06  01 EC 81 ED 81 EE 81 C7  ................
2840: 80 6B 69 64 6C 30 F3 02  06 01 1C E8 80 27 10 F3  .kidl0.......'..
2850: 02 06 01 0D 1C 8D 80 52  4D 80 F0 FF FF 7F F0 FF  .......RM.......
2860: FF 7F 61 30 30 36 45 4D  80 F0 FF FF 7F F0 FF FF  ..a006EM........
2870: 7F 61 30 30 37 01 80 1C  EF 81 52 4D 80 F0 FF FF  .a007.....RM....
2880: 7F F0 FF FF 7F 61 30 30  37 45 4D 80 F0 FF FF 7F  .....a007EM.....
2890: F0 FF FF 7F 61 30 30 34  01 80 1C 4C 80 5B E6 81  ....a004...L.[..
28A0: 24 03 06 01 24 03 06 01  66 63 30 31 2B 23 03 06  $...$...fc01+#..
28B0: 01 F0 81 23 5B E6 81 24  03 06 01 24 03 06 01 66  ...#[..$...$...f
28C0: 63 30 30 1C 68 80 5D 01  80 00 80 45 00 80 F8 FF  c00.h.]....E....
28D0: FF 7F F8 FF FF 7F 66 64  6F 31 01 80 55 00 80 F8  ......fdo1..U...
28E0: FF FF 7F F8 FF FF 7F 66  64 6F 31 52 4D 80 F0 FF  .......fdo1RM...
28F0: FF 7F F0 FF FF 7F 61 30  30 34 45 4D 80 F0 FF FF  ......a004EM....
2900: 7F F0 FF FF 7F 6B 69 6C  6C 01 80 29 10 01 03 06  .....kill..)....
2910: 01 0B 78 5C 00 01 80 5C  01 01 80 5C 02 F1 81 5C  ..x\...\...\...\
2920: 03 DA 80 9A 02 09 10 54  80 00 2F 29 01 42 29 46  .......T../).B)F
2930: 00 45 00 80 F0 FF FF 7F  F0 FF FF 7F 66 64 69 32  .E..........fdi2
2940: 01 80 21 00                                       ..!.            
```

#### Opcodes

```
  0: 0x0001 [0x42] SET_CLI_EVENT_CANCEL_DATA()
  1: 0x0002 [0x45] LOAD_SCHEDULED_TASK: Load scheduler "fdo1" with entities [EventEntity, EventEntity], work=[200*, 0*]
  2: 0x0013 [0x55] WAIT_LOAD_SCHEDULER: Wait for scheduler "fdo1" with entities [EventEntity, EventEntity], work=200*
  3: 0x0022 [0x46] CAMERA_CONTROL: Disable user control
  4: 0x0024 [0x38] SET_CLIENT_EVENT_MODE(mode=19*)
  5: 0x0027 [0x77] SET_EVENT_TIME_WEATHER(hour=255*, weather=0*)
  6: 0x002C [0x29] REQ_SET_WAIT(priority=0x10, entity_id=??? (ID: 17171197/0x010602FD), tag_num=0x06)
  7: 0x0033 [0x4E] SET_ENTITY_HIDE_FLAG: Show Unnamed NPC (ID: 17171198/0x010602FE)
  8: 0x0039 [0x4E] SET_ENTITY_HIDE_FLAG: Show Unnamed NPC (ID: 17171199/0x010602FF)
  9: 0x003F [0x4E] SET_ENTITY_HIDE_FLAG: Show ??? (ID: 17171197/0x010602FD)
 10: 0x0045 [0x4E] SET_ENTITY_HIDE_FLAG: Show Robel-Akbel (ID: 17171192/0x010602F8)
 11: 0x004B [0x4E] SET_ENTITY_HIDE_FLAG: Show Pattna-Ottna (ID: 17171152/0x010602D0)
 12: 0x0051 [0x4E] SET_ENTITY_HIDE_FLAG: Show Kamolo-Domilo (ID: 17171233/0x01060321)
 13: 0x0057 [0x4E] SET_ENTITY_HIDE_FLAG: Show Rotih Moalghett (ID: 17171150/0x010602CE)
 14: 0x005D [0x2F] 01 (ID: 17171201/0x01060301)->Render.Flags0 &= ~0x80000 // Bit 19
 15: 0x0063 [0x2F] 02 (ID: 17171202/0x01060302)->Render.Flags0 &= ~0x80000 // Bit 19
 16: 0x0069 [0x2F] 03 (ID: 17171203/0x01060303)->Render.Flags0 &= ~0x80000 // Bit 19
 17: 0x006F [0x2F] 04 (ID: 17171204/0x01060304)->Render.Flags0 &= ~0x80000 // Bit 19
 18: 0x0075 [0x2F] 05 (ID: 17171205/0x01060305)->Render.Flags0 &= ~0x80000 // Bit 19
 19: 0x007B [0x2F] 06 (ID: 17171206/0x01060306)->Render.Flags0 &= ~0x80000 // Bit 19
 20: 0x0081 [0x2F] 07 (ID: 17171207/0x01060307)->Render.Flags0 &= ~0x80000 // Bit 19
 21: 0x0087 [0x2F] Unnamed NPC (ID: 17171198/0x010602FE)->Render.Flags0 &= ~0x80000 // Bit 19
 22: 0x008D [0x2F] Unnamed NPC (ID: 17171199/0x010602FF)->Render.Flags0 &= ~0x80000 // Bit 19
 23: 0x0093 [0x2F] ??? (ID: 17171197/0x010602FD)->Render.Flags0 &= ~0x80000 // Bit 19
 24: 0x0099 [0x2F] Robel-Akbel (ID: 17171192/0x010602F8)->Render.Flags0 &= ~0x80000 // Bit 19
 25: 0x009F [0x2F] Unnamed NPC (ID: 17171193/0x010602F9)->Render.Flags0 &= ~0x80000 // Bit 19
 26: 0x00A5 [0x2F] Lehko Habhoka (ID: 17171236/0x01060324)->Render.Flags0 &= ~0x80000 // Bit 19
 27: 0x00AB [0x2F] Lehko Habhoka (ID: 17171235/0x01060323)->Render.Flags0 &= ~0x80000 // Bit 19
 28: 0x00B1 [0x2F] Romaa Mihgo (ID: 17171188/0x010602F4)->Render.Flags0 &= ~0x80000 // Bit 19
 29: 0x00B7 [0x80] LOAD_WAIT(entity=Perih Vashai (ID: 17171187/0x010602F3))
 30: 0x00BC [0x80] LOAD_WAIT(entity=02 (ID: 17171202/0x01060302))
 31: 0x00C1 [0x80] LOAD_WAIT(entity=03 (ID: 17171203/0x01060303))
 32: 0x00C6 [0x80] LOAD_WAIT(entity=04 (ID: 17171204/0x01060304))
 33: 0x00CB [0x80] LOAD_WAIT(entity=05 (ID: 17171205/0x01060305))
 34: 0x00D0 [0x80] LOAD_WAIT(entity=06 (ID: 17171206/0x01060306))
 35: 0x00D5 [0x94] LocalPlayer->Render.Flags3 ^= 0x01
 36: 0x00DB [0x94] 01 (ID: 17171201/0x01060301)->Render.Flags3 ^= 0x01
 37: 0x00E1 [0x94] 01 (ID: 17171171/0x010602E3)->Render.Flags3 ^= 0x01
 38: 0x00E7 [0x94] 02 (ID: 17171172/0x010602E4)->Render.Flags3 ^= 0x01
 39: 0x00ED [0x94] 03 (ID: 17171173/0x010602E5)->Render.Flags3 ^= 0x01
 40: 0x00F3 [0x94] 04 (ID: 17171174/0x010602E6)->Render.Flags3 ^= 0x01
 41: 0x00F9 [0x94] 10 (ID: 17171178/0x010602EA)->Render.Flags3 ^= 0x01
 42: 0x00FF [0x94] 11 (ID: 17171179/0x010602EB)->Render.Flags3 ^= 0x01
 43: 0x0105 [0x94] 12 (ID: 17171180/0x010602EC)->Render.Flags3 ^= 0x01
 44: 0x010B [0x94] Perih Vashai (ID: 17171187/0x010602F3)->Render.Flags3 ^= 0x01
 45: 0x0111 [0x94] Robel-Akbel (ID: 17171192/0x010602F8)->Render.Flags3 ^= 0x01
 46: 0x0117 [0x94] Pattna-Ottna (ID: 17171152/0x010602D0)->Render.Flags3 ^= 0x01
 47: 0x011D [0x94] Romaa Mihgo (ID: 17171188/0x010602F4)->Render.Flags3 ^= 0x01
 48: 0x0123 [0x94] 01 (ID: 17171201/0x01060301)->Render.Flags3 ^= 0x01
 49: 0x0129 [0x94] Lehko Habhoka (ID: 17171235/0x01060323)->Render.Flags3 ^= 0x01
 50: 0x012F [0x94] Lehko Habhoka (ID: 17171236/0x01060324)->Render.Flags3 ^= 0x01
 51: 0x0135 [0x94] Unnamed NPC (ID: 17171193/0x010602F9)->Render.Flags3 ^= 0x01
 52: 0x013B [0x94] Unnamed NPC (ID: 17171194/0x010602FA)->Render.Flags3 ^= 0x01
 53: 0x0141 [0x94] Unnamed NPC (ID: 17171198/0x010602FE)->Render.Flags3 ^= 0x01
 54: 0x0147 [0x94] Unnamed NPC (ID: 17171199/0x010602FF)->Render.Flags3 ^= 0x01
 55: 0x014D [0x94] Unnamed NPC (ID: 17171184/0x010602F0)->Render.Flags3 ^= 0x01
 56: 0x0153 [0xBA] SET_ENTITY_POSITION(entity_id=Unnamed NPC (ID: 17171198/0x010602FE), pos_x=127.474*, pos_z=0.165*, pos_y=-49.154*, direction=0.0*)
 57: 0x0160 [0xBA] SET_ENTITY_POSITION(entity_id=Unnamed NPC (ID: 17171199/0x010602FF), pos_x=216.440*, pos_z=10.298*, pos_y=-28.060*, direction=112.1*)
 58: 0x016D [0xBA] SET_ENTITY_POSITION(entity_id=01 (ID: 17171171/0x010602E3), pos_x=259.302*, pos_z=58.933*, pos_y=-21.171*, direction=112.1*)
 59: 0x017A [0xBA] SET_ENTITY_POSITION(entity_id=02 (ID: 17171172/0x010602E4), pos_x=264.120*, pos_z=59.999*, pos_y=-21.011*, direction=112.1*)
 60: 0x0187 [0xBA] SET_ENTITY_POSITION(entity_id=03 (ID: 17171173/0x010602E5), pos_x=261.377*, pos_z=59.656*, pos_y=-21.000*, direction=112.1*)
 61: 0x0194 [0xBA] SET_ENTITY_POSITION(entity_id=04 (ID: 17171174/0x010602E6), pos_x=268.187*, pos_z=64.156*, pos_y=-21.111*, direction=112.1*)
 62: 0x01A1 [0xBA] SET_ENTITY_POSITION(entity_id=05 (ID: 17171175/0x010602E7), pos_x=265.298*, pos_z=60.968*, pos_y=-21.088*, direction=112.1*)
 63: 0x01AE [0xBA] SET_ENTITY_POSITION(entity_id=10 (ID: 17171178/0x010602EA), pos_x=266.225*, pos_z=60.708*, pos_y=-20.933*, direction=112.1*)
