# 17171172 - 02

## Common Data

| Field            | Value                           |
|------------------|---------------------------------|
| Zone             | Fort Karugo-Narugo [S] (ID: 96) |
| Block Size       | 1976 bytes                      |
| Total Events     | 85                              |
| References Count | 156                             |

## List of Events

| Event ID                   | Entrypoint   |   Size |   Instructions |
|----------------------------|--------------|--------|----------------|
| [65535](#event-65535)      | 0x0000       |      1 |              1 |
| [103](#event-103)          | 0x0001       |      1 |              1 |
| [65535.1](#event-655351)   | 0x0002       |     10 |              2 |
| [65535.2](#event-655352)   | 0x000C       |     10 |              2 |
| [65535.3](#event-655353)   | 0x0016       |     18 |              6 |
| [106](#event-106)          | 0x0028       |      4 |              2 |
| [105](#event-105)          | 0x002C       |      1 |              1 |
| [65535.4](#event-655354)   | 0x002D       |     15 |              5 |
| [65535.5](#event-655355)   | 0x003C       |     15 |              5 |
| [65535.6](#event-655356)   | 0x004B       |     15 |              5 |
| [65535.7](#event-655357)   | 0x005A       |     10 |              2 |
| [111](#event-111)          | 0x0064       |      1 |              1 |
| [112](#event-112)          | 0x0065       |      1 |              1 |
| [113](#event-113)          | 0x0066       |      1 |              1 |
| [65535.8](#event-655358)   | 0x0067       |     67 |             13 |
| [65535.9](#event-655359)   | 0x00AA       |      5 |              2 |
| [65535.10](#event-6553510) | 0x00AF       |      5 |              2 |
| [65535.11](#event-6553511) | 0x00B4       |      5 |              2 |
| [65535.12](#event-6553512) | 0x00B9       |     21 |              2 |
| [65535.13](#event-6553513) | 0x00CE       |     21 |              2 |
| [65535.14](#event-6553514) | 0x00E3       |      5 |              2 |
| [65535.15](#event-6553515) | 0x00E8       |     25 |              3 |
| [65535.16](#event-6553516) | 0x0101       |     25 |              3 |
| [65535.17](#event-6553517) | 0x011A       |     25 |              3 |
| [65535.18](#event-6553518) | 0x0133       |     14 |              4 |
| [65535.19](#event-6553519) | 0x0141       |     14 |              4 |
| [65535.20](#event-6553520) | 0x014F       |     22 |              6 |
| [65535.21](#event-6553521) | 0x0165       |      5 |              2 |
| [65535.22](#event-6553522) | 0x016A       |      5 |              2 |
| [65535.23](#event-6553523) | 0x016F       |      5 |              2 |
| [65535.24](#event-6553524) | 0x0174       |      5 |              2 |
| [65535.25](#event-6553525) | 0x0179       |      5 |              2 |
| [65535.26](#event-6553526) | 0x017E       |      5 |              2 |
| [65535.27](#event-6553527) | 0x0183       |      5 |              2 |
| [65535.28](#event-6553528) | 0x0188       |      5 |              2 |
| [65535.29](#event-6553529) | 0x018D       |      5 |              2 |
| [65535.30](#event-6553530) | 0x0192       |      5 |              2 |
| [65535.31](#event-6553531) | 0x0197       |      5 |              2 |
| [65535.32](#event-6553532) | 0x019C       |      5 |              2 |
| [65535.33](#event-6553533) | 0x01A1       |      5 |              2 |
| [65535.34](#event-6553534) | 0x01A6       |      5 |              2 |
| [65535.35](#event-6553535) | 0x01AB       |      5 |              2 |
| [65535.36](#event-6553536) | 0x01B0       |      5 |              2 |
| [65535.37](#event-6553537) | 0x01B5       |      5 |              2 |
| [65535.38](#event-6553538) | 0x01BA       |      5 |              2 |
| [65535.39](#event-6553539) | 0x01BF       |      5 |              2 |
| [65535.40](#event-6553540) | 0x01C4       |      5 |              2 |
| [65535.41](#event-6553541) | 0x01C9       |      5 |              2 |
| [65535.42](#event-6553542) | 0x01CE       |      5 |              2 |
| [65535.43](#event-6553543) | 0x01D3       |     18 |              6 |
| [65535.44](#event-6553544) | 0x01E5       |     15 |              5 |
| [65535.45](#event-6553545) | 0x01F4       |     18 |              6 |
| [65535.46](#event-6553546) | 0x0206       |     18 |              6 |
| [65535.47](#event-6553547) | 0x0218       |     18 |              6 |
| [65535.48](#event-6553548) | 0x022A       |     18 |              6 |
| [65535.49](#event-6553549) | 0x023C       |     18 |              6 |
| [65535.50](#event-6553550) | 0x024E       |     18 |              6 |
| [65535.51](#event-6553551) | 0x0260       |      5 |              2 |
| [65535.52](#event-6553552) | 0x0265       |      5 |              2 |
| [65535.53](#event-6553553) | 0x026A       |      5 |              2 |
| [65535.54](#event-6553554) | 0x026F       |      5 |              2 |
| [65535.55](#event-6553555) | 0x0274       |      5 |              2 |
| [65535.56](#event-6553556) | 0x0279       |      5 |              2 |
| [65535.57](#event-6553557) | 0x027E       |      5 |              2 |
| [65535.58](#event-6553558) | 0x0283       |     18 |              6 |
| [65535.59](#event-6553559) | 0x0295       |     18 |              6 |
| [65535.60](#event-6553560) | 0x02A7       |     14 |              4 |
| [65535.61](#event-6553561) | 0x02B5       |     30 |              6 |
| [65535.62](#event-6553562) | 0x02D3       |     15 |              5 |
| [65535.63](#event-6553563) | 0x02E2       |     30 |              6 |
| [65535.64](#event-6553564) | 0x0300       |     25 |              7 |
| [65535.65](#event-6553565) | 0x0319       |     15 |              5 |
| [65535.66](#event-6553566) | 0x0328       |     15 |              5 |
| [65535.67](#event-6553567) | 0x0337       |     25 |              7 |
| [65535.68](#event-6553568) | 0x0350       |     28 |              8 |
| [65535.69](#event-6553569) | 0x036C       |     15 |              5 |
| [65535.70](#event-6553570) | 0x037B       |     15 |              5 |
| [65535.71](#event-6553571) | 0x038A       |      5 |              2 |
| [65535.72](#event-6553572) | 0x038F       |      5 |              2 |
| [65535.73](#event-6553573) | 0x0394       |      5 |              2 |
| [65535.74](#event-6553574) | 0x0399       |     15 |              5 |
| [65535.75](#event-6553575) | 0x03A8       |     25 |              7 |
| [65535.76](#event-6553576) | 0x03C1       |     25 |              7 |
| [65535.77](#event-6553577) | 0x03DA       |      5 |              2 |
| [65535.78](#event-6553578) | 0x03DF       |      4 |              2 |

## DAT References (imed_data)

|   Index | Hex Value   |   Dec Value |
|---------|-------------|-------------|
|       0 | 0x0000      |           0 |
|       1 | 0x0080      |         128 |
|       2 | 0x0078      |         120 |
|       3 | 0x0028      |          40 |
|       4 | 0x32072     |      204914 |
|       5 | 0x91FB      |       37371 |
|       6 | 0xFFFF93E2  |  4294939618 |
|       7 | 0x0003      |           3 |
|       8 | 0x0001      |           1 |
|       9 | 0x000D      |          13 |
|      10 | 0x3E2C0     |      254656 |
|      11 | 0xB080      |       45184 |
|      12 | 0xFFFFB372  |  4294947698 |
|      13 | 0x403DF     |      263135 |
|      14 | 0xDB47      |       56135 |
|      15 | 0xFFFFADDA  |  4294946266 |
|      16 | 0x3DABD     |      252605 |
|      17 | 0x8B24      |       35620 |
|      18 | 0xFFFFB1E0  |  4294947296 |
|      19 | 0x3EB87     |      256903 |
|      20 | 0xA570      |       42352 |
|      21 | 0xFFFFB52D  |  4294948141 |
|      22 | 0x04FA      |        1274 |
|      23 | 0x0040      |          64 |
|      24 | 0x0800      |        2048 |
|      25 | 0x02F3      |         755 |
|      26 | 0x043C      |        1084 |
|      27 | 0x08C3      |        2243 |
|      28 | 0x0007      |           7 |
|      29 | 0x005E      |          94 |
|      30 | 0x000E      |          14 |
|      31 | 0x006E      |         110 |
|      32 | 0x0317      |         791 |
|      33 | 0xFFFFCF94  |  4294954900 |
|      34 | 0xFFFECAF5  |  4294888181 |
|      35 | 0xFFFEF661  |  4294899297 |
|      36 | 0xFFFFCFBC  |  4294954940 |
|      37 | 0xFFFEC473  |  4294886515 |
|      38 | 0xFFF8DEBA  |  4294500026 |
|      39 | 0xC0BF      |       49343 |
|      40 | 0xFFFF8E45  |  4294938181 |
|      41 | 0x001E      |          30 |
|      42 | 0x024D      |         589 |
|      43 | 0x081C      |        2076 |
|      44 | 0x02E4      |         740 |
|      45 | 0x02EB      |         747 |
|      46 | 0x02F0      |         752 |
|      47 | 0x0108      |         264 |
|      48 | 0x0109      |         265 |
|      49 | 0x03C1      |         961 |
|      50 | 0x03C2      |         962 |
|      51 | 0x000B      |          11 |
|      52 | 0x2447F     |      148607 |
|      53 | 0xFFFFFAB5  |  4294965941 |
|      54 | 0xFFFF5590  |  4294923664 |
|      55 | 0x000A      |          10 |
|      56 | 0x24F74     |      151412 |
|      57 | 0xFFFFEF8B  |  4294963083 |
|      58 | 0xFFFF54F2  |  4294923506 |
|      59 | 0x000F      |          15 |
|      60 | 0x25170     |      151920 |
|      61 | 0x107E      |        4222 |
|      62 | 0xFFFF54D8  |  4294923480 |
|      63 | 0x0005      |           5 |
|      64 | 0x24311     |      148241 |
|      65 | 0xFFFFF313  |  4294963987 |
|      66 | 0xFFFF5593  |  4294923667 |
|      67 | 0x0014      |          20 |
|      68 | 0x000C      |          12 |
|      69 | 0x24E00     |      151040 |
|      70 | 0x0752      |        1874 |
|      71 | 0xFFFF5517  |  4294923543 |
|      72 | 0x0009      |           9 |
|      73 | 0x25510     |      152848 |
|      74 | 0xFFFFFA8C  |  4294965900 |
|      75 | 0xFFFF54BD  |  4294923453 |
|      76 | 0x26092     |      155794 |
|      77 | 0x0C95      |        3221 |
|      78 | 0xFFFF5420  |  4294923296 |
|      79 | 0x25B25     |      154405 |
|      80 | 0x1395      |        5013 |
|      81 | 0xFFFF5421  |  4294923297 |
|      82 | 0x08DB      |        2267 |
|      83 | 0x08D9      |        2265 |
|      84 | 0x08DC      |        2268 |
|      85 | 0x003C      |          60 |
|      86 | 0x0026      |          38 |
|      87 | 0xFFFF7066  |  4294930534 |
|      88 | 0x131F9     |       78329 |
|      89 | 0xFFFEF617  |  4294899223 |
|      90 | 0x0027      |          39 |
|      91 | 0xFFFF871B  |  4294936347 |
|      92 | 0x1351E     |       79134 |
|      93 | 0xFFFEF62A  |  4294899242 |
|      94 | 0x0025      |          37 |
|      95 | 0xFFFCDB40  |  4294761280 |
|      96 | 0xFFFF151C  |  4294907164 |
|      97 | 0xFFFE6830  |  4294862896 |
|      98 | 0x0012      |          18 |
|      99 | 0xFFFE92F8  |  4294873848 |
|     100 | 0xFFFF1D6A  |  4294909290 |
|     101 | 0xFFFEF567  |  4294899047 |
|     102 | 0x08B3      |        2227 |
|     103 | 0xFFFF0C47  |  4294904903 |
|     104 | 0xFFFF07DE  |  4294903774 |
|     105 | 0xFFFEF652  |  4294899282 |
|     106 | 0x0011      |          17 |
|     107 | 0xFFFEA4B6  |  4294878390 |
|     108 | 0xFFFF1D22  |  4294909218 |
|     109 | 0xFFFEF660  |  4294899296 |
|     110 | 0xFFFF02E7  |  4294902503 |
|     111 | 0xFFFF0C45  |  4294904901 |
|     112 | 0xFFFEF20A  |  4294898186 |
|     113 | 0xFFFF0FDF  |  4294905823 |
|     114 | 0x0013      |          19 |
|     115 | 0xFFFF0D33  |  4294905139 |
|     116 | 0xFFFF10B0  |  4294906032 |
|     117 | 0xFFFEF6A9  |  4294899369 |
|     118 | 0x0045      |          69 |
|     119 | 0xFFFEA142  |  4294877506 |
|     120 | 0xFFFF1FBE  |  4294909886 |
|     121 | 0xFFFEF58C  |  4294899084 |
|     122 | 0x0046      |          70 |
|     123 | 0xFFFE73C4  |  4294865860 |
|     124 | 0xFFFF18A1  |  4294908065 |
|     125 | 0xFFFEF08A  |  4294897802 |
|     126 | 0xFFFE97BA  |  4294875066 |
|     127 | 0xFFFF1E9E  |  4294909598 |
|     128 | 0x2047A     |      132218 |
|     129 | 0x0298      |         664 |
|     130 | 0xFFFF55B9  |  4294923705 |
|     131 | 0x1BDF0     |      114160 |
|     132 | 0x0173      |         371 |
|     133 | 0xFFFF5335  |  4294923061 |
|     134 | 0x002B      |          43 |
|     135 | 0x1B7FF     |      112639 |
|     136 | 0xFFFFFE56  |  4294966870 |
|     137 | 0xFFFF5277  |  4294922871 |
|     138 | 0x17140     |       94528 |
|     139 | 0xFFFFCE3C  |  4294954556 |
|     140 | 0xFFFF37B8  |  4294916024 |
|     141 | 0x0034      |          52 |
|     142 | 0x0044      |          68 |
|     143 | 0xFFFE9CEB  |  4294876395 |
|     144 | 0xFFFF1E36  |  4294909494 |
|     145 | 0xFFFE6E21  |  4294864417 |
|     146 | 0xFFFF1A24  |  4294908452 |
|     147 | 0xFFFEF69F  |  4294899359 |
|     148 | 0xFFFE9CC4  |  4294876356 |
|     149 | 0xFFFF1DFD  |  4294909437 |
|     150 | 0xFFFE6DDD  |  4294864349 |
|     151 | 0xFFFF248C  |  4294911116 |
|     152 | 0xFFFEF69B  |  4294899355 |
|     153 | 0xFFFE9C75  |  4294876277 |
|     154 | 0xFFFF1E63  |  4294909539 |
|     155 | 0x08D8      |        2264 |

## Events

### Event 65535

#### Metadata

| Field        | Value   |
|--------------|---------|
| Entrypoint   | 0x0000  |
| Data Size    | 1 bytes |
| Instructions | 1       |

```
      00 01 02 03 04 05 06 07  08 09 0A 0B 0C 0D 0E 0F
      -- -- -- -- -- -- -- --  -- -- -- -- -- -- -- --
0000: 00                                                .               
```

#### Opcodes

```
  0: 0x0000 [0x00] END_REQSTACK()
```

### Event 103

#### Metadata

| Field        | Value   |
|--------------|---------|
| Entrypoint   | 0x0001  |
| Data Size    | 1 bytes |
| Instructions | 1       |

```
      00 01 02 03 04 05 06 07  08 09 0A 0B 0C 0D 0E 0F
      -- -- -- -- -- -- -- --  -- -- -- -- -- -- -- --
0000:    00                                              .              
```

#### Opcodes

```
  0: 0x0001 [0x00] END_REQSTACK()
```

### Event 65535.1

#### Metadata

| Field        | Value    |
|--------------|----------|
| Entrypoint   | 0x0002   |
| Data Size    | 10 bytes |
| Instructions | 2        |

```
      00 01 02 03 04 05 06 07  08 09 0A 0B 0C 0D 0E 0F
      -- -- -- -- -- -- -- --  -- -- -- -- -- -- -- --
0000:       6C F8 FF FF 7F 00  80 00 80 00                l.........    
```

#### Opcodes

```
  0: 0x0002 [0x6C] FADE_ENTITY_COLOR(entity_id=EventEntity, end_alpha=0*, fade_time=0*)
  1: 0x000B [0x00] END_REQSTACK()
```

### Event 65535.2

#### Metadata

| Field        | Value    |
|--------------|----------|
| Entrypoint   | 0x000C   |
| Data Size    | 10 bytes |
| Instructions | 2        |

```
      00 01 02 03 04 05 06 07  08 09 0A 0B 0C 0D 0E 0F
      -- -- -- -- -- -- -- --  -- -- -- -- -- -- -- --
0000:                                      6C F8 FF FF              l...
0010: 7F 01 80 02 80 00                                 ......          
```

#### Opcodes

```
  0: 0x000C [0x6C] FADE_ENTITY_COLOR(entity_id=EventEntity, end_alpha=128*, fade_time=120*)
  1: 0x0015 [0x00] END_REQSTACK()
```

### Event 65535.3

#### Metadata

| Field        | Value    |
|--------------|----------|
| Entrypoint   | 0x0016   |
| Data Size    | 18 bytes |
| Instructions | 6        |

```
      00 01 02 03 04 05 06 07  08 09 0A 0B 0C 0D 0E 0F
      -- -- -- -- -- -- -- --  -- -- -- -- -- -- -- --
0010:                   32 03  80 1F 00 04 80 05 80 06        2.........
0020: 80 1F 01 6F 1C 07 80 00                           ...o....        
```

#### Opcodes

```
  0: 0x0016 [0x32] ExtData[1]->MainSpeed = 40* * 0.1
  1: 0x0019 [0x1F] MOVE_ENTITY: EventEntity moves to X=204.914*, Z=37.371*, Y=-27.678*
  2: 0x0021 [0x1F] MOVE_ENTITY: Update entity position (mode=1)
  3: 0x0023 [0x6F] WAIT_FRAME_DELAY: Yield until WaitTime reaches zero
  4: 0x0024 [0x1C] WAIT(3* ticks)
  5: 0x0027 [0x00] END_REQSTACK()
```

### Event 106

#### Metadata

| Field        | Value   |
|--------------|---------|
| Entrypoint   | 0x0028  |
| Data Size    | 4 bytes |
| Instructions | 2       |

```
      00 01 02 03 04 05 06 07  08 09 0A 0B 0C 0D 0E 0F
      -- -- -- -- -- -- -- --  -- -- -- -- -- -- -- --
0020:                          C0 08 80 00                      ....    
```

#### Opcodes

```
  0: 0x0028 [0xC0] EventEntity->Render.Flags3 |= 0x1000 // Set bit 12 (from 1*)
  1: 0x002B [0x00] END_REQSTACK()
```

### Event 105

#### Metadata

| Field        | Value   |
|--------------|---------|
| Entrypoint   | 0x002C  |
| Data Size    | 1 bytes |
| Instructions | 1       |

```
      00 01 02 03 04 05 06 07  08 09 0A 0B 0C 0D 0E 0F
      -- -- -- -- -- -- -- --  -- -- -- -- -- -- -- --
0020:                                      00                       .   
```

#### Opcodes

```
  0: 0x002C [0x00] END_REQSTACK()
```

### Event 65535.4

#### Metadata

| Field        | Value    |
|--------------|----------|
| Entrypoint   | 0x002D   |
| Data Size    | 15 bytes |
| Instructions | 5        |

```
      00 01 02 03 04 05 06 07  08 09 0A 0B 0C 0D 0E 0F
      -- -- -- -- -- -- -- --  -- -- -- -- -- -- -- --
0020:                                         32 09 80               2..
0030: 1F 00 0A 80 0B 80 0C 80  1F 01 6F 00              ..........o.    
```

#### Opcodes

```
  0: 0x002D [0x32] ExtData[1]->MainSpeed = 13* * 0.1
  1: 0x0030 [0x1F] MOVE_ENTITY: EventEntity moves to X=254.656*, Z=45.184*, Y=-19.598*
  2: 0x0038 [0x1F] MOVE_ENTITY: Update entity position (mode=1)
  3: 0x003A [0x6F] WAIT_FRAME_DELAY: Yield until WaitTime reaches zero
  4: 0x003B [0x00] END_REQSTACK()
```

### Event 65535.5

#### Metadata

| Field        | Value    |
|--------------|----------|
| Entrypoint   | 0x003C   |
| Data Size    | 15 bytes |
| Instructions | 5        |

```
      00 01 02 03 04 05 06 07  08 09 0A 0B 0C 0D 0E 0F
      -- -- -- -- -- -- -- --  -- -- -- -- -- -- -- --
0030:                                      32 09 80 1F              2...
0040: 00 0D 80 0E 80 0F 80 1F  01 6F 00                 .........o.     
```

#### Opcodes

```
  0: 0x003C [0x32] ExtData[1]->MainSpeed = 13* * 0.1
  1: 0x003F [0x1F] MOVE_ENTITY: EventEntity moves to X=263.135*, Z=56.135*, Y=-21.030*
  2: 0x0047 [0x1F] MOVE_ENTITY: Update entity position (mode=1)
  3: 0x0049 [0x6F] WAIT_FRAME_DELAY: Yield until WaitTime reaches zero
  4: 0x004A [0x00] END_REQSTACK()
```

### Event 65535.6

#### Metadata

| Field        | Value    |
|--------------|----------|
| Entrypoint   | 0x004B   |
| Data Size    | 15 bytes |
| Instructions | 5        |

```
      00 01 02 03 04 05 06 07  08 09 0A 0B 0C 0D 0E 0F
      -- -- -- -- -- -- -- --  -- -- -- -- -- -- -- --
0040:                                   32 03 80 1F 00             2....
0050: 10 80 11 80 12 80 1F 01  6F 00                    ........o.      
```

#### Opcodes

```
  0: 0x004B [0x32] ExtData[1]->MainSpeed = 40* * 0.1
  1: 0x004E [0x1F] MOVE_ENTITY: EventEntity moves to X=252.605*, Z=35.620*, Y=-20.000*
  2: 0x0056 [0x1F] MOVE_ENTITY: Update entity position (mode=1)
  3: 0x0058 [0x6F] WAIT_FRAME_DELAY: Yield until WaitTime reaches zero
  4: 0x0059 [0x00] END_REQSTACK()
```

### Event 65535.7

#### Metadata

| Field        | Value    |
|--------------|----------|
| Entrypoint   | 0x005A   |
| Data Size    | 10 bytes |
| Instructions | 2        |

```
      00 01 02 03 04 05 06 07  08 09 0A 0B 0C 0D 0E 0F
      -- -- -- -- -- -- -- --  -- -- -- -- -- -- -- --
0050:                                37 13 80 14 80 15            7.....
0060: 80 16 80 00                                       ....            
```

#### Opcodes

```
  0: 0x005A [0x37] UPDATE_EVENT_POSITION_AND_DIR: x=256.903*, z=42.352*, y=-19.155*, direction=112.0°*
  1: 0x0063 [0x00] END_REQSTACK()
```

### Event 111

#### Metadata

| Field        | Value   |
|--------------|---------|
| Entrypoint   | 0x0064  |
| Data Size    | 1 bytes |
| Instructions | 1       |

```
      00 01 02 03 04 05 06 07  08 09 0A 0B 0C 0D 0E 0F
      -- -- -- -- -- -- -- --  -- -- -- -- -- -- -- --
0060:             00                                        .           
```

#### Opcodes

```
  0: 0x0064 [0x00] END_REQSTACK()
```

### Event 112

#### Metadata

| Field        | Value   |
|--------------|---------|
| Entrypoint   | 0x0065  |
| Data Size    | 1 bytes |
| Instructions | 1       |

```
      00 01 02 03 04 05 06 07  08 09 0A 0B 0C 0D 0E 0F
      -- -- -- -- -- -- -- --  -- -- -- -- -- -- -- --
0060:                00                                      .          
```

#### Opcodes

```
  0: 0x0065 [0x00] END_REQSTACK()
```

### Event 113

#### Metadata

| Field        | Value   |
|--------------|---------|
| Entrypoint   | 0x0066  |
| Data Size    | 1 bytes |
| Instructions | 1       |

```
      00 01 02 03 04 05 06 07  08 09 0A 0B 0C 0D 0E 0F
      -- -- -- -- -- -- -- --  -- -- -- -- -- -- -- --
0060:                   00                                    .         
```

#### Opcodes

```
  0: 0x0066 [0x00] END_REQSTACK()
```

### Event 65535.8

#### Metadata

| Field        | Value    |
|--------------|----------|
| Entrypoint   | 0x0067   |
| Data Size    | 67 bytes |
| Instructions | 10       |

```
      00 01 02 03 04 05 06 07  08 09 0A 0B 0C 0D 0E 0F
      -- -- -- -- -- -- -- --  -- -- -- -- -- -- -- --
0060:                      33  01 3B F8 FF FF 7F 00 00         3.;......
0070: 01 00 02 00 06 05 00 16  04 00 05 00 07 80 07 02  ................
0080: 00 04 00 3A F8 FF FF 7F  03 00 37 00 00 01 00 02  ...:......7.....
0090: 00 03 00 07 05 00 17 80  1C 08 80 01 77 00 02 05  ............w...
00A0: 00 18 80 04 A9 00 06 05  00 00                    ..........      
```

#### Opcodes

```
  0: 0x0067 [0x33] EventEntity->Render.Flags0 |= 0x200000 // Bit 21 (flag=0x01)
  1: 0x0069 [0x3B] GET_ENTITY_POSITION(entity=EventEntity, x_destination=ExtData[1]->WorkLocal[0], y_destination=ExtData[1]->WorkLocal[1], z_destination=ExtData[1]->WorkLocal[2])
  2: 0x0074 [0x06] ExtData[1]->WorkLocal[5] = 0
  3: 0x0077 [0x16] ExtData[1]->WorkLocal[4] = sin(ExtData[1]->WorkLocal[5]) * 3*
  4: 0x007E [0x07] ExtData[1]->WorkLocal[2] += ExtData[1]->WorkLocal[4]
  5: 0x0083 [0x3A] CONVERT_YAW_TO_BYTE(entity=EventEntity, result_destination=ExtData[1]->WorkLocal[3])
  6: 0x008A [0x37] UPDATE_EVENT_POSITION_AND_DIR: x=ExtData[1]->WorkLocal[0], z=ExtData[1]->WorkLocal[1], y=ExtData[1]->WorkLocal[2], direction=ExtData[1]->WorkLocal[3]
  7: 0x0093 [0x07] ExtData[1]->WorkLocal[5] += 64*
  8: 0x0098 [0x1C] WAIT(1* ticks)
  9: 0x009B [0x01] GOTO 0x0077
```

#### Data or dead code:

```
# Dead code (unreachable instructions):
     0x009E [0x02] IF !(ExtData[1]->WorkLocal[5] < 2048*) GOTO 0x00A9
     0x00A6 [0x06] ExtData[1]->WorkLocal[5] = 0
     0x00A9 [0x00] END_REQSTACK()
```

### Event 65535.9

#### Metadata

| Field        | Value   |
|--------------|---------|
| Entrypoint   | 0x00AA  |
| Data Size    | 5 bytes |
| Instructions | 2       |

```
      00 01 02 03 04 05 06 07  08 09 0A 0B 0C 0D 0E 0F
      -- -- -- -- -- -- -- --  -- -- -- -- -- -- -- --
00A0:                                B6 00 19 80 00               ..... 
```

#### Opcodes

```
  0: 0x00AA [0xB6] ENTITY_APPEARANCE_HANDLER(case=Hair style, value=755*)
  1: 0x00AE [0x00] END_REQSTACK()
```

### Event 65535.10

#### Metadata

| Field        | Value   |
|--------------|---------|
| Entrypoint   | 0x00AF  |
| Data Size    | 5 bytes |
| Instructions | 2       |

```
      00 01 02 03 04 05 06 07  08 09 0A 0B 0C 0D 0E 0F
      -- -- -- -- -- -- -- --  -- -- -- -- -- -- -- --
00A0:                                               B6                 .
00B0: 00 1A 80 00                                       ....            
```

#### Opcodes

```
  0: 0x00AF [0xB6] ENTITY_APPEARANCE_HANDLER(case=Hair style, value=1084*)
  1: 0x00B3 [0x00] END_REQSTACK()
```

### Event 65535.11

#### Metadata

| Field        | Value   |
|--------------|---------|
| Entrypoint   | 0x00B4  |
| Data Size    | 5 bytes |
| Instructions | 2       |

```
      00 01 02 03 04 05 06 07  08 09 0A 0B 0C 0D 0E 0F
      -- -- -- -- -- -- -- --  -- -- -- -- -- -- -- --
00B0:             B6 00 1B 80  00                           .....       
```

#### Opcodes

```
  0: 0x00B4 [0xB6] ENTITY_APPEARANCE_HANDLER(case=Hair style, value=2243*)
  1: 0x00B8 [0x00] END_REQSTACK()
```

### Event 65535.12

#### Metadata

| Field        | Value    |
|--------------|----------|
| Entrypoint   | 0x00B9   |
| Data Size    | 21 bytes |
| Instructions | 2        |

```
      00 01 02 03 04 05 06 07  08 09 0A 0B 0C 0D 0E 0F
      -- -- -- -- -- -- -- --  -- -- -- -- -- -- -- --
00B0:                             B6 0B 1C 80 07 80 00           .......
00C0: 80 1D 80 1D 80 1E 80 1E  80 00 80 00 80 00        ..............  
```

#### Opcodes

```
  0: 0x00B9 [0xB6] ENTITY_APPEARANCE_HANDLER(case=Full entity look, race=7*, hair=3*, head=0*, body=94*, hands=94*, legs=14*, feet=14*, main=0*, sub=0*)
  1: 0x00CD [0x00] END_REQSTACK()
```

### Event 65535.13

#### Metadata

| Field        | Value    |
|--------------|----------|
| Entrypoint   | 0x00CE   |
| Data Size    | 21 bytes |
| Instructions | 2        |

```
      00 01 02 03 04 05 06 07  08 09 0A 0B 0C 0D 0E 0F
      -- -- -- -- -- -- -- --  -- -- -- -- -- -- -- --
00C0:                                            B6 0B                ..
00D0: 1C 80 07 80 00 80 1D 80  1D 80 1E 80 1E 80 1F 80  ................
00E0: 00 80 00                                          ...             
```

#### Opcodes

```
  0: 0x00CE [0xB6] ENTITY_APPEARANCE_HANDLER(case=Full entity look, race=7*, hair=3*, head=0*, body=94*, hands=94*, legs=14*, feet=14*, main=110*, sub=0*)
  1: 0x00E2 [0x00] END_REQSTACK()
```

### Event 65535.14

#### Metadata

| Field        | Value   |
|--------------|---------|
| Entrypoint   | 0x00E3  |
| Data Size    | 5 bytes |
| Instructions | 2       |

```
      00 01 02 03 04 05 06 07  08 09 0A 0B 0C 0D 0E 0F
      -- -- -- -- -- -- -- --  -- -- -- -- -- -- -- --
00E0:          B6 00 20 80 00                              .. ..        
```

#### Opcodes

```
  0: 0x00E3 [0xB6] ENTITY_APPEARANCE_HANDLER(case=Hair style, value=791*)
  1: 0x00E7 [0x00] END_REQSTACK()
```

### Event 65535.15

#### Metadata

| Field        | Value    |
|--------------|----------|
| Entrypoint   | 0x00E8   |
| Data Size    | 25 bytes |
| Instructions | 3        |

```
      00 01 02 03 04 05 06 07  08 09 0A 0B 0C 0D 0E 0F
      -- -- -- -- -- -- -- --  -- -- -- -- -- -- -- --
00E0:                          B4 00 06 00 3F 3F 3F 00          ....???.
00F0: 00 00 00 00 00 00 00 00  00 00 00 00 B5 00 06 00  ................
0100: 00                                                .               
```

#### Opcodes

```
  0: 0x00E8 [0xB4] UI_WINDOW_STRING_HANDLER(case=0x00 - Copy string from opcode, work_offset=ExtData[1]->WorkLocal[6], string="???")
  1: 0x00FC [0xB5] SET_EVENT_ENTITY_NAME: Change EventEntity name to ExtData[1]->WorkLocal[6]
  2: 0x0100 [0x00] END_REQSTACK()
```

### Event 65535.16

#### Metadata

| Field        | Value    |
|--------------|----------|
| Entrypoint   | 0x0101   |
| Data Size    | 25 bytes |
| Instructions | 3        |

```
      00 01 02 03 04 05 06 07  08 09 0A 0B 0C 0D 0E 0F
      -- -- -- -- -- -- -- --  -- -- -- -- -- -- -- --
0100:    B4 00 06 00 52 6F 62  65 6C 2D 41 6B 62 65 6C   ....Robel-Akbel
0110: 00 00 00 00 00 B5 00 06  00 00                    ..........      
```

#### Opcodes

```
  0: 0x0101 [0xB4] UI_WINDOW_STRING_HANDLER(case=0x00 - Copy string from opcode, work_offset=ExtData[1]->WorkLocal[6], string="Robel-Akbel")
  1: 0x0115 [0xB5] SET_EVENT_ENTITY_NAME: Change EventEntity name to ExtData[1]->WorkLocal[6]
  2: 0x0119 [0x00] END_REQSTACK()
```

### Event 65535.17

#### Metadata

| Field        | Value    |
|--------------|----------|
| Entrypoint   | 0x011A   |
| Data Size    | 25 bytes |
| Instructions | 3        |

```
      00 01 02 03 04 05 06 07  08 09 0A 0B 0C 0D 0E 0F
      -- -- -- -- -- -- -- --  -- -- -- -- -- -- -- --
0110:                                B4 00 06 00 30 32            ....02
0120: 00 00 00 00 00 00 00 00  00 00 00 00 00 00 B5 00  ................
0130: 06 00 00                                          ...             
```

#### Opcodes

```
  0: 0x011A [0xB4] UI_WINDOW_STRING_HANDLER(case=0x00 - Copy string from opcode, work_offset=ExtData[1]->WorkLocal[6], string="02")
  1: 0x012E [0xB5] SET_EVENT_ENTITY_NAME: Change EventEntity name to ExtData[1]->WorkLocal[6]
  2: 0x0132 [0x00] END_REQSTACK()
```

### Event 65535.18

#### Metadata

| Field        | Value    |
|--------------|----------|
| Entrypoint   | 0x0133   |
| Data Size    | 14 bytes |
| Instructions | 4        |

```
      00 01 02 03 04 05 06 07  08 09 0A 0B 0C 0D 0E 0F
      -- -- -- -- -- -- -- --  -- -- -- -- -- -- -- --
0130:          32 09 80 1F 00  21 80 22 80 23 80 1F 01     2....!.".#...
0140: 00                                                .               
```

#### Opcodes

```
  0: 0x0133 [0x32] ExtData[1]->MainSpeed = 13* * 0.1
  1: 0x0136 [0x1F] MOVE_ENTITY: EventEntity moves to X=-12.396*, Z=-79.115*, Y=-67.999*
  2: 0x013E [0x1F] MOVE_ENTITY: Update entity position (mode=1)
  3: 0x0140 [0x00] END_REQSTACK()
```

### Event 65535.19

#### Metadata

| Field        | Value    |
|--------------|----------|
| Entrypoint   | 0x0141   |
| Data Size    | 14 bytes |
| Instructions | 4        |

```
      00 01 02 03 04 05 06 07  08 09 0A 0B 0C 0D 0E 0F
      -- -- -- -- -- -- -- --  -- -- -- -- -- -- -- --
0140:    32 09 80 1F 00 24 80  25 80 23 80 1F 01 00      2....$.%.#.... 
```

#### Opcodes

```
  0: 0x0141 [0x32] ExtData[1]->MainSpeed = 13* * 0.1
  1: 0x0144 [0x1F] MOVE_ENTITY: EventEntity moves to X=-12.356*, Z=-80.781*, Y=-67.999*
  2: 0x014C [0x1F] MOVE_ENTITY: Update entity position (mode=1)
  3: 0x014E [0x00] END_REQSTACK()
```

### Event 65535.20

#### Metadata

| Field        | Value    |
|--------------|----------|
| Entrypoint   | 0x014F   |
| Data Size    | 22 bytes |
| Instructions | 6        |

```
      00 01 02 03 04 05 06 07  08 09 0A 0B 0C 0D 0E 0F
      -- -- -- -- -- -- -- --  -- -- -- -- -- -- -- --
0140:                                               32                 2
0150: 09 80 5A 00 26 80 27 80  28 80 5A 01 1E F0 FF FF  ..Z.&.'.(.Z.....
0160: 7F 1C 29 80 00                                    ..)..           
```

#### Opcodes

```
  0: 0x014F [0x32] ExtData[1]->MainSpeed = 13* * 0.1
  1: 0x0152 [0x5A] UPDATE_EVENT_POSITION: Set EventEntity MovePosition to X=-467.270*, Z=49.343*, Y=-29.115*
  2: 0x015A [0x5A] UPDATE_EVENT_POSITION: Move EventEntity incrementally towards MovePosition
  3: 0x015C [0x1E] EventEntity looks at LocalPlayer and starts talking
  4: 0x0161 [0x1C] WAIT(30* ticks)
  5: 0x0164 [0x00] END_REQSTACK()
```

### Event 65535.21

#### Metadata

| Field        | Value   |
|--------------|---------|
| Entrypoint   | 0x0165  |
| Data Size    | 5 bytes |
| Instructions | 2       |

```
      00 01 02 03 04 05 06 07  08 09 0A 0B 0C 0D 0E 0F
      -- -- -- -- -- -- -- --  -- -- -- -- -- -- -- --
0160:                B6 00 2A  80 00                         ..*..      
```

#### Opcodes

```
  0: 0x0165 [0xB6] ENTITY_APPEARANCE_HANDLER(case=Hair style, value=589*)
  1: 0x0169 [0x00] END_REQSTACK()
```

### Event 65535.22

#### Metadata

| Field        | Value   |
|--------------|---------|
| Entrypoint   | 0x016A  |
| Data Size    | 5 bytes |
| Instructions | 2       |

```
      00 01 02 03 04 05 06 07  08 09 0A 0B 0C 0D 0E 0F
      -- -- -- -- -- -- -- --  -- -- -- -- -- -- -- --
0160:                                B6 00 1A 80 00               ..... 
```

#### Opcodes

```
  0: 0x016A [0xB6] ENTITY_APPEARANCE_HANDLER(case=Hair style, value=1084*)
  1: 0x016E [0x00] END_REQSTACK()
```

### Event 65535.23

#### Metadata

| Field        | Value   |
|--------------|---------|
| Entrypoint   | 0x016F  |
| Data Size    | 5 bytes |
| Instructions | 2       |

```
      00 01 02 03 04 05 06 07  08 09 0A 0B 0C 0D 0E 0F
      -- -- -- -- -- -- -- --  -- -- -- -- -- -- -- --
0160:                                               B6                 .
0170: 00 1A 80 00                                       ....            
```

#### Opcodes

```
  0: 0x016F [0xB6] ENTITY_APPEARANCE_HANDLER(case=Hair style, value=1084*)
  1: 0x0173 [0x00] END_REQSTACK()
```

### Event 65535.24

#### Metadata

| Field        | Value   |
|--------------|---------|
| Entrypoint   | 0x0174  |
| Data Size    | 5 bytes |
| Instructions | 2       |

```
      00 01 02 03 04 05 06 07  08 09 0A 0B 0C 0D 0E 0F
      -- -- -- -- -- -- -- --  -- -- -- -- -- -- -- --
0170:             B6 00 2B 80  00                           ..+..       
```

#### Opcodes

```
  0: 0x0174 [0xB6] ENTITY_APPEARANCE_HANDLER(case=Hair style, value=2076*)
  1: 0x0178 [0x00] END_REQSTACK()
```

### Event 65535.25

#### Metadata

| Field        | Value   |
|--------------|---------|
| Entrypoint   | 0x0179  |
| Data Size    | 5 bytes |
| Instructions | 2       |

```
      00 01 02 03 04 05 06 07  08 09 0A 0B 0C 0D 0E 0F
      -- -- -- -- -- -- -- --  -- -- -- -- -- -- -- --
0170:                             B6 00 2B 80 00                 ..+..  
```

#### Opcodes

```
  0: 0x0179 [0xB6] ENTITY_APPEARANCE_HANDLER(case=Hair style, value=2076*)
  1: 0x017D [0x00] END_REQSTACK()
```

### Event 65535.26

#### Metadata

| Field        | Value   |
|--------------|---------|
| Entrypoint   | 0x017E  |
| Data Size    | 5 bytes |
| Instructions | 2       |

```
      00 01 02 03 04 05 06 07  08 09 0A 0B 0C 0D 0E 0F
      -- -- -- -- -- -- -- --  -- -- -- -- -- -- -- --
0170:                                            B6 00                ..
0180: 2B 80 00                                          +..             
```

#### Opcodes

```
  0: 0x017E [0xB6] ENTITY_APPEARANCE_HANDLER(case=Hair style, value=2076*)
  1: 0x0182 [0x00] END_REQSTACK()
```

### Event 65535.27

#### Metadata

| Field        | Value   |
|--------------|---------|
| Entrypoint   | 0x0183  |
| Data Size    | 5 bytes |
| Instructions | 2       |

```
      00 01 02 03 04 05 06 07  08 09 0A 0B 0C 0D 0E 0F
      -- -- -- -- -- -- -- --  -- -- -- -- -- -- -- --
0180:          B6 00 2B 80 00                              ..+..        
```

#### Opcodes

```
  0: 0x0183 [0xB6] ENTITY_APPEARANCE_HANDLER(case=Hair style, value=2076*)
  1: 0x0187 [0x00] END_REQSTACK()
```

### Event 65535.28

#### Metadata

| Field        | Value   |
|--------------|---------|
| Entrypoint   | 0x0188  |
| Data Size    | 5 bytes |
| Instructions | 2       |

```
      00 01 02 03 04 05 06 07  08 09 0A 0B 0C 0D 0E 0F
      -- -- -- -- -- -- -- --  -- -- -- -- -- -- -- --
0180:                          B6 00 2B 80 00                   ..+..   
```

#### Opcodes

```
  0: 0x0188 [0xB6] ENTITY_APPEARANCE_HANDLER(case=Hair style, value=2076*)
  1: 0x018C [0x00] END_REQSTACK()
```

### Event 65535.29

#### Metadata

| Field        | Value   |
|--------------|---------|
| Entrypoint   | 0x018D  |
| Data Size    | 5 bytes |
| Instructions | 2       |

```
      00 01 02 03 04 05 06 07  08 09 0A 0B 0C 0D 0E 0F
      -- -- -- -- -- -- -- --  -- -- -- -- -- -- -- --
0180:                                         B6 00 2C               ..,
0190: 80 00                                             ..              
```

#### Opcodes

```
  0: 0x018D [0xB6] ENTITY_APPEARANCE_HANDLER(case=Hair style, value=740*)
  1: 0x0191 [0x00] END_REQSTACK()
```

### Event 65535.30

#### Metadata

| Field        | Value   |
|--------------|---------|
| Entrypoint   | 0x0192  |
| Data Size    | 5 bytes |
| Instructions | 2       |

```
      00 01 02 03 04 05 06 07  08 09 0A 0B 0C 0D 0E 0F
      -- -- -- -- -- -- -- --  -- -- -- -- -- -- -- --
0190:       B6 00 2D 80 00                                ..-..         
```

#### Opcodes

```
  0: 0x0192 [0xB6] ENTITY_APPEARANCE_HANDLER(case=Hair style, value=747*)
  1: 0x0196 [0x00] END_REQSTACK()
```

### Event 65535.31

#### Metadata

| Field        | Value   |
|--------------|---------|
| Entrypoint   | 0x0197  |
| Data Size    | 5 bytes |
| Instructions | 2       |

```
      00 01 02 03 04 05 06 07  08 09 0A 0B 0C 0D 0E 0F
      -- -- -- -- -- -- -- --  -- -- -- -- -- -- -- --
0190:                      B6  00 19 80 00                     .....    
```

#### Opcodes

```
  0: 0x0197 [0xB6] ENTITY_APPEARANCE_HANDLER(case=Hair style, value=755*)
  1: 0x019B [0x00] END_REQSTACK()
```

### Event 65535.32

#### Metadata

| Field        | Value   |
|--------------|---------|
| Entrypoint   | 0x019C  |
| Data Size    | 5 bytes |
| Instructions | 2       |

```
      00 01 02 03 04 05 06 07  08 09 0A 0B 0C 0D 0E 0F
      -- -- -- -- -- -- -- --  -- -- -- -- -- -- -- --
0190:                                      B6 00 2E 80              ....
01A0: 00                                                .               
```

#### Opcodes

```
  0: 0x019C [0xB6] ENTITY_APPEARANCE_HANDLER(case=Hair style, value=752*)
  1: 0x01A0 [0x00] END_REQSTACK()
```

### Event 65535.33

#### Metadata

| Field        | Value   |
|--------------|---------|
| Entrypoint   | 0x01A1  |
| Data Size    | 5 bytes |
| Instructions | 2       |

```
      00 01 02 03 04 05 06 07  08 09 0A 0B 0C 0D 0E 0F
      -- -- -- -- -- -- -- --  -- -- -- -- -- -- -- --
01A0:    B6 00 2C 80 00                                  ..,..          
```

#### Opcodes

```
  0: 0x01A1 [0xB6] ENTITY_APPEARANCE_HANDLER(case=Hair style, value=740*)
  1: 0x01A5 [0x00] END_REQSTACK()
```

### Event 65535.34

#### Metadata

| Field        | Value   |
|--------------|---------|
| Entrypoint   | 0x01A6  |
| Data Size    | 5 bytes |
| Instructions | 2       |

```
      00 01 02 03 04 05 06 07  08 09 0A 0B 0C 0D 0E 0F
      -- -- -- -- -- -- -- --  -- -- -- -- -- -- -- --
01A0:                   B6 00  2D 80 00                       ..-..     
```

#### Opcodes

```
  0: 0x01A6 [0xB6] ENTITY_APPEARANCE_HANDLER(case=Hair style, value=747*)
  1: 0x01AA [0x00] END_REQSTACK()
```

### Event 65535.35

#### Metadata

| Field        | Value   |
|--------------|---------|
| Entrypoint   | 0x01AB  |
| Data Size    | 5 bytes |
| Instructions | 2       |

```
      00 01 02 03 04 05 06 07  08 09 0A 0B 0C 0D 0E 0F
      -- -- -- -- -- -- -- --  -- -- -- -- -- -- -- --
01A0:                                   B6 00 19 80 00             .....
```

#### Opcodes

```
  0: 0x01AB [0xB6] ENTITY_APPEARANCE_HANDLER(case=Hair style, value=755*)
  1: 0x01AF [0x00] END_REQSTACK()
```

### Event 65535.36

#### Metadata

| Field        | Value   |
|--------------|---------|
| Entrypoint   | 0x01B0  |
| Data Size    | 5 bytes |
| Instructions | 2       |

```
      00 01 02 03 04 05 06 07  08 09 0A 0B 0C 0D 0E 0F
      -- -- -- -- -- -- -- --  -- -- -- -- -- -- -- --
01B0: B6 00 2C 80 00                                    ..,..           
```

#### Opcodes

```
  0: 0x01B0 [0xB6] ENTITY_APPEARANCE_HANDLER(case=Hair style, value=740*)
  1: 0x01B4 [0x00] END_REQSTACK()
```

### Event 65535.37

#### Metadata

| Field        | Value   |
|--------------|---------|
| Entrypoint   | 0x01B5  |
| Data Size    | 5 bytes |
| Instructions | 2       |

```
      00 01 02 03 04 05 06 07  08 09 0A 0B 0C 0D 0E 0F
      -- -- -- -- -- -- -- --  -- -- -- -- -- -- -- --
01B0:                B6 00 2F  80 00                         ../..      
```

#### Opcodes

```
  0: 0x01B5 [0xB6] ENTITY_APPEARANCE_HANDLER(case=Hair style, value=264*)
  1: 0x01B9 [0x00] END_REQSTACK()
```

### Event 65535.38

#### Metadata

| Field        | Value   |
|--------------|---------|
| Entrypoint   | 0x01BA  |
| Data Size    | 5 bytes |
| Instructions | 2       |

```
      00 01 02 03 04 05 06 07  08 09 0A 0B 0C 0D 0E 0F
      -- -- -- -- -- -- -- --  -- -- -- -- -- -- -- --
01B0:                                B6 00 2F 80 00               ../.. 
```

#### Opcodes

```
  0: 0x01BA [0xB6] ENTITY_APPEARANCE_HANDLER(case=Hair style, value=264*)
  1: 0x01BE [0x00] END_REQSTACK()
```

### Event 65535.39

#### Metadata

| Field        | Value   |
|--------------|---------|
| Entrypoint   | 0x01BF  |
| Data Size    | 5 bytes |
| Instructions | 2       |

```
      00 01 02 03 04 05 06 07  08 09 0A 0B 0C 0D 0E 0F
      -- -- -- -- -- -- -- --  -- -- -- -- -- -- -- --
01B0:                                               B6                 .
01C0: 00 30 80 00                                       .0..            
```

#### Opcodes

```
  0: 0x01BF [0xB6] ENTITY_APPEARANCE_HANDLER(case=Hair style, value=265*)
  1: 0x01C3 [0x00] END_REQSTACK()
```

### Event 65535.40

#### Metadata

| Field        | Value   |
|--------------|---------|
| Entrypoint   | 0x01C4  |
| Data Size    | 5 bytes |
| Instructions | 2       |

```
      00 01 02 03 04 05 06 07  08 09 0A 0B 0C 0D 0E 0F
      -- -- -- -- -- -- -- --  -- -- -- -- -- -- -- --
01C0:             B6 00 30 80  00                           ..0..       
```

#### Opcodes

```
  0: 0x01C4 [0xB6] ENTITY_APPEARANCE_HANDLER(case=Hair style, value=265*)
  1: 0x01C8 [0x00] END_REQSTACK()
```

### Event 65535.41

#### Metadata

| Field        | Value   |
|--------------|---------|
| Entrypoint   | 0x01C9  |
| Data Size    | 5 bytes |
| Instructions | 2       |

```
      00 01 02 03 04 05 06 07  08 09 0A 0B 0C 0D 0E 0F
      -- -- -- -- -- -- -- --  -- -- -- -- -- -- -- --
01C0:                             B6 00 31 80 00                 ..1..  
```

#### Opcodes

```
  0: 0x01C9 [0xB6] ENTITY_APPEARANCE_HANDLER(case=Hair style, value=961*)
  1: 0x01CD [0x00] END_REQSTACK()
```

### Event 65535.42

#### Metadata

| Field        | Value   |
|--------------|---------|
| Entrypoint   | 0x01CE  |
| Data Size    | 5 bytes |
| Instructions | 2       |

```
      00 01 02 03 04 05 06 07  08 09 0A 0B 0C 0D 0E 0F
      -- -- -- -- -- -- -- --  -- -- -- -- -- -- -- --
01C0:                                            B6 00                ..
01D0: 32 80 00                                          2..             
```

#### Opcodes

```
  0: 0x01CE [0xB6] ENTITY_APPEARANCE_HANDLER(case=Hair style, value=962*)
  1: 0x01D2 [0x00] END_REQSTACK()
```

### Event 65535.43

#### Metadata

| Field        | Value    |
|--------------|----------|
| Entrypoint   | 0x01D3   |
| Data Size    | 18 bytes |
| Instructions | 6        |

```
      00 01 02 03 04 05 06 07  08 09 0A 0B 0C 0D 0E 0F
      -- -- -- -- -- -- -- --  -- -- -- -- -- -- -- --
01D0:          1C 29 80 32 33  80 1F 00 34 80 35 80 36     .).23...4.5.6
01E0: 80 1F 01 6F 00                                    ...o.           
```

#### Opcodes

```
  0: 0x01D3 [0x1C] WAIT(30* ticks)
  1: 0x01D6 [0x32] ExtData[1]->MainSpeed = 11* * 0.1
  2: 0x01D9 [0x1F] MOVE_ENTITY: EventEntity moves to X=148.607*, Z=-1.355*, Y=-43.632*
  3: 0x01E1 [0x1F] MOVE_ENTITY: Update entity position (mode=1)
  4: 0x01E3 [0x6F] WAIT_FRAME_DELAY: Yield until WaitTime reaches zero
  5: 0x01E4 [0x00] END_REQSTACK()
```

### Event 65535.44

#### Metadata

| Field        | Value    |
|--------------|----------|
| Entrypoint   | 0x01E5   |
| Data Size    | 15 bytes |
| Instructions | 5        |

```
      00 01 02 03 04 05 06 07  08 09 0A 0B 0C 0D 0E 0F
      -- -- -- -- -- -- -- --  -- -- -- -- -- -- -- --
01E0:                32 37 80  1F 00 38 80 39 80 3A 80       27...8.9.:.
01F0: 1F 01 6F 00                                       ..o.            
```

#### Opcodes

```
  0: 0x01E5 [0x32] ExtData[1]->MainSpeed = 10* * 0.1
  1: 0x01E8 [0x1F] MOVE_ENTITY: EventEntity moves to X=151.412*, Z=-4.213*, Y=-43.790*
  2: 0x01F0 [0x1F] MOVE_ENTITY: Update entity position (mode=1)
  3: 0x01F2 [0x6F] WAIT_FRAME_DELAY: Yield until WaitTime reaches zero
  4: 0x01F3 [0x00] END_REQSTACK()
```

### Event 65535.45

#### Metadata

| Field        | Value    |
|--------------|----------|
| Entrypoint   | 0x01F4   |
| Data Size    | 18 bytes |
| Instructions | 6        |

```
      00 01 02 03 04 05 06 07  08 09 0A 0B 0C 0D 0E 0F
      -- -- -- -- -- -- -- --  -- -- -- -- -- -- -- --
01F0:             1C 3B 80 32  33 80 1F 00 3C 80 3D 80      .;.23...<.=.
0200: 3E 80 1F 01 6F 00                                 >...o.          
```

#### Opcodes

```
  0: 0x01F4 [0x1C] WAIT(15* ticks)
  1: 0x01F7 [0x32] ExtData[1]->MainSpeed = 11* * 0.1
  2: 0x01FA [0x1F] MOVE_ENTITY: EventEntity moves to X=151.920*, Z=4.222*, Y=-43.816*
  3: 0x0202 [0x1F] MOVE_ENTITY: Update entity position (mode=1)
  4: 0x0204 [0x6F] WAIT_FRAME_DELAY: Yield until WaitTime reaches zero
  5: 0x0205 [0x00] END_REQSTACK()
```

### Event 65535.46

#### Metadata

| Field        | Value    |
|--------------|----------|
| Entrypoint   | 0x0206   |
| Data Size    | 18 bytes |
| Instructions | 6        |

```
      00 01 02 03 04 05 06 07  08 09 0A 0B 0C 0D 0E 0F
      -- -- -- -- -- -- -- --  -- -- -- -- -- -- -- --
0200:                   1C 3F  80 32 09 80 1F 00 40 80        .?.2....@.
0210: 41 80 42 80 1F 01 6F 00                           A.B...o.        
```

#### Opcodes

```
  0: 0x0206 [0x1C] WAIT(5* ticks)
  1: 0x0209 [0x32] ExtData[1]->MainSpeed = 13* * 0.1
  2: 0x020C [0x1F] MOVE_ENTITY: EventEntity moves to X=148.241*, Z=-3.309*, Y=-43.629*
  3: 0x0214 [0x1F] MOVE_ENTITY: Update entity position (mode=1)
  4: 0x0216 [0x6F] WAIT_FRAME_DELAY: Yield until WaitTime reaches zero
  5: 0x0217 [0x00] END_REQSTACK()
```

### Event 65535.47

#### Metadata

| Field        | Value    |
|--------------|----------|
| Entrypoint   | 0x0218   |
| Data Size    | 18 bytes |
| Instructions | 6        |

```
      00 01 02 03 04 05 06 07  08 09 0A 0B 0C 0D 0E 0F
      -- -- -- -- -- -- -- --  -- -- -- -- -- -- -- --
0210:                          1C 43 80 32 44 80 1F 00          .C.2D...
0220: 45 80 46 80 47 80 1F 01  6F 00                    E.F.G...o.      
```

#### Opcodes

```
  0: 0x0218 [0x1C] WAIT(20* ticks)
  1: 0x021B [0x32] ExtData[1]->MainSpeed = 12* * 0.1
  2: 0x021E [0x1F] MOVE_ENTITY: EventEntity moves to X=151.040*, Z=1.874*, Y=-43.753*
  3: 0x0226 [0x1F] MOVE_ENTITY: Update entity position (mode=1)
  4: 0x0228 [0x6F] WAIT_FRAME_DELAY: Yield until WaitTime reaches zero
  5: 0x0229 [0x00] END_REQSTACK()
```

### Event 65535.48

#### Metadata

| Field        | Value    |
|--------------|----------|
| Entrypoint   | 0x022A   |
| Data Size    | 18 bytes |
| Instructions | 6        |

```
      00 01 02 03 04 05 06 07  08 09 0A 0B 0C 0D 0E 0F
      -- -- -- -- -- -- -- --  -- -- -- -- -- -- -- --
0220:                                1C 3B 80 32 48 80            .;.2H.
0230: 1F 00 49 80 4A 80 4B 80  1F 01 6F 00              ..I.J.K...o.    
```

#### Opcodes

```
  0: 0x022A [0x1C] WAIT(15* ticks)
  1: 0x022D [0x32] ExtData[1]->MainSpeed = 9* * 0.1
  2: 0x0230 [0x1F] MOVE_ENTITY: EventEntity moves to X=152.848*, Z=-1.396*, Y=-43.843*
  3: 0x0238 [0x1F] MOVE_ENTITY: Update entity position (mode=1)
  4: 0x023A [0x6F] WAIT_FRAME_DELAY: Yield until WaitTime reaches zero
  5: 0x023B [0x00] END_REQSTACK()
```

### Event 65535.49

#### Metadata

| Field        | Value    |
|--------------|----------|
| Entrypoint   | 0x023C   |
| Data Size    | 18 bytes |
| Instructions | 6        |

```
      00 01 02 03 04 05 06 07  08 09 0A 0B 0C 0D 0E 0F
      -- -- -- -- -- -- -- --  -- -- -- -- -- -- -- --
0230:                                      1C 37 80 32              .7.2
0240: 37 80 1F 00 4C 80 4D 80  4E 80 1F 01 6F 00        7...L.M.N...o.  
```

#### Opcodes

```
  0: 0x023C [0x1C] WAIT(10* ticks)
  1: 0x023F [0x32] ExtData[1]->MainSpeed = 10* * 0.1
  2: 0x0242 [0x1F] MOVE_ENTITY: EventEntity moves to X=155.794*, Z=3.221*, Y=-44.000*
  3: 0x024A [0x1F] MOVE_ENTITY: Update entity position (mode=1)
  4: 0x024C [0x6F] WAIT_FRAME_DELAY: Yield until WaitTime reaches zero
  5: 0x024D [0x00] END_REQSTACK()
```

### Event 65535.50

#### Metadata

| Field        | Value    |
|--------------|----------|
| Entrypoint   | 0x024E   |
| Data Size    | 18 bytes |
| Instructions | 6        |

```
      00 01 02 03 04 05 06 07  08 09 0A 0B 0C 0D 0E 0F
      -- -- -- -- -- -- -- --  -- -- -- -- -- -- -- --
0240:                                            1C 29                .)
0250: 80 32 37 80 1F 00 4F 80  50 80 51 80 1F 01 6F 00  .27...O.P.Q...o.
```

#### Opcodes

```
  0: 0x024E [0x1C] WAIT(30* ticks)
  1: 0x0251 [0x32] ExtData[1]->MainSpeed = 10* * 0.1
  2: 0x0254 [0x1F] MOVE_ENTITY: EventEntity moves to X=154.405*, Z=5.013*, Y=-43.999*
  3: 0x025C [0x1F] MOVE_ENTITY: Update entity position (mode=1)
  4: 0x025E [0x6F] WAIT_FRAME_DELAY: Yield until WaitTime reaches zero
  5: 0x025F [0x00] END_REQSTACK()
```

### Event 65535.51

#### Metadata

| Field        | Value   |
|--------------|---------|
| Entrypoint   | 0x0260  |
| Data Size    | 5 bytes |
| Instructions | 2       |

```
      00 01 02 03 04 05 06 07  08 09 0A 0B 0C 0D 0E 0F
      -- -- -- -- -- -- -- --  -- -- -- -- -- -- -- --
0260: B6 00 52 80 00                                    ..R..           
```

#### Opcodes

```
  0: 0x0260 [0xB6] ENTITY_APPEARANCE_HANDLER(case=Hair style, value=2267*)
  1: 0x0264 [0x00] END_REQSTACK()
```

### Event 65535.52

#### Metadata

| Field        | Value   |
|--------------|---------|
| Entrypoint   | 0x0265  |
| Data Size    | 5 bytes |
| Instructions | 2       |

```
      00 01 02 03 04 05 06 07  08 09 0A 0B 0C 0D 0E 0F
      -- -- -- -- -- -- -- --  -- -- -- -- -- -- -- --
0260:                B6 00 53  80 00                         ..S..      
```

#### Opcodes

```
  0: 0x0265 [0xB6] ENTITY_APPEARANCE_HANDLER(case=Hair style, value=2265*)
  1: 0x0269 [0x00] END_REQSTACK()
```

### Event 65535.53

#### Metadata

| Field        | Value   |
|--------------|---------|
| Entrypoint   | 0x026A  |
| Data Size    | 5 bytes |
| Instructions | 2       |

```
      00 01 02 03 04 05 06 07  08 09 0A 0B 0C 0D 0E 0F
      -- -- -- -- -- -- -- --  -- -- -- -- -- -- -- --
0260:                                B6 00 52 80 00               ..R.. 
```

#### Opcodes

```
  0: 0x026A [0xB6] ENTITY_APPEARANCE_HANDLER(case=Hair style, value=2267*)
  1: 0x026E [0x00] END_REQSTACK()
```

### Event 65535.54

#### Metadata

| Field        | Value   |
|--------------|---------|
| Entrypoint   | 0x026F  |
| Data Size    | 5 bytes |
| Instructions | 2       |

```
      00 01 02 03 04 05 06 07  08 09 0A 0B 0C 0D 0E 0F
      -- -- -- -- -- -- -- --  -- -- -- -- -- -- -- --
0260:                                               B6                 .
0270: 00 54 80 00                                       .T..            
```

#### Opcodes

```
  0: 0x026F [0xB6] ENTITY_APPEARANCE_HANDLER(case=Hair style, value=2268*)
  1: 0x0273 [0x00] END_REQSTACK()
```

### Event 65535.55

#### Metadata

| Field        | Value   |
|--------------|---------|
| Entrypoint   | 0x0274  |
| Data Size    | 5 bytes |
| Instructions | 2       |

```
      00 01 02 03 04 05 06 07  08 09 0A 0B 0C 0D 0E 0F
      -- -- -- -- -- -- -- --  -- -- -- -- -- -- -- --
0270:             B6 00 53 80  00                           ..S..       
```

#### Opcodes

```
  0: 0x0274 [0xB6] ENTITY_APPEARANCE_HANDLER(case=Hair style, value=2265*)
  1: 0x0278 [0x00] END_REQSTACK()
```

### Event 65535.56

#### Metadata

| Field        | Value   |
|--------------|---------|
| Entrypoint   | 0x0279  |
| Data Size    | 5 bytes |
| Instructions | 2       |

```
      00 01 02 03 04 05 06 07  08 09 0A 0B 0C 0D 0E 0F
      -- -- -- -- -- -- -- --  -- -- -- -- -- -- -- --
0270:                             B6 00 54 80 00                 ..T..  
```

#### Opcodes

```
  0: 0x0279 [0xB6] ENTITY_APPEARANCE_HANDLER(case=Hair style, value=2268*)
  1: 0x027D [0x00] END_REQSTACK()
```

### Event 65535.57

#### Metadata

| Field        | Value   |
|--------------|---------|
| Entrypoint   | 0x027E  |
| Data Size    | 5 bytes |
| Instructions | 2       |

```
      00 01 02 03 04 05 06 07  08 09 0A 0B 0C 0D 0E 0F
      -- -- -- -- -- -- -- --  -- -- -- -- -- -- -- --
0270:                                            B6 00                ..
0280: 52 80 00                                          R..             
```

#### Opcodes

```
  0: 0x027E [0xB6] ENTITY_APPEARANCE_HANDLER(case=Hair style, value=2267*)
  1: 0x0282 [0x00] END_REQSTACK()
```

### Event 65535.58

#### Metadata

| Field        | Value    |
|--------------|----------|
| Entrypoint   | 0x0283   |
| Data Size    | 18 bytes |
| Instructions | 6        |

```
      00 01 02 03 04 05 06 07  08 09 0A 0B 0C 0D 0E 0F
      -- -- -- -- -- -- -- --  -- -- -- -- -- -- -- --
0280:          1C 55 80 32 56  80 1F 00 57 80 58 80 59     .U.2V...W.X.Y
0290: 80 1F 01 6F 00                                    ...o.           
```

#### Opcodes

```
  0: 0x0283 [0x1C] WAIT(60* ticks)
  1: 0x0286 [0x32] ExtData[1]->MainSpeed = 38* * 0.1
  2: 0x0289 [0x1F] MOVE_ENTITY: EventEntity moves to X=-36.762*, Z=78.329*, Y=-68.073*
  3: 0x0291 [0x1F] MOVE_ENTITY: Update entity position (mode=1)
  4: 0x0293 [0x6F] WAIT_FRAME_DELAY: Yield until WaitTime reaches zero
  5: 0x0294 [0x00] END_REQSTACK()
```

### Event 65535.59

#### Metadata

| Field        | Value    |
|--------------|----------|
| Entrypoint   | 0x0295   |
| Data Size    | 18 bytes |
| Instructions | 6        |

```
      00 01 02 03 04 05 06 07  08 09 0A 0B 0C 0D 0E 0F
      -- -- -- -- -- -- -- --  -- -- -- -- -- -- -- --
0290:                1C 29 80  32 5A 80 1F 00 5B 80 5C       .).2Z...[.\
02A0: 80 5D 80 1F 01 6F 00                              .]...o.         
```

#### Opcodes

```
  0: 0x0295 [0x1C] WAIT(30* ticks)
  1: 0x0298 [0x32] ExtData[1]->MainSpeed = 39* * 0.1
  2: 0x029B [0x1F] MOVE_ENTITY: EventEntity moves to X=-30.949*, Z=79.134*, Y=-68.054*
  3: 0x02A3 [0x1F] MOVE_ENTITY: Update entity position (mode=1)
  4: 0x02A5 [0x6F] WAIT_FRAME_DELAY: Yield until WaitTime reaches zero
  5: 0x02A6 [0x00] END_REQSTACK()
```

### Event 65535.60

#### Metadata

| Field        | Value    |
|--------------|----------|
| Entrypoint   | 0x02A7   |
| Data Size    | 14 bytes |
| Instructions | 4        |

```
      00 01 02 03 04 05 06 07  08 09 0A 0B 0C 0D 0E 0F
      -- -- -- -- -- -- -- --  -- -- -- -- -- -- -- --
02A0:                      32  5E 80 5A 00 5F 80 60 80         2^.Z._.`.
02B0: 61 80 5A 01 00                                    a.Z..           
```

#### Opcodes

```
  0: 0x02A7 [0x32] ExtData[1]->MainSpeed = 37* * 0.1
  1: 0x02AA [0x5A] UPDATE_EVENT_POSITION: Set EventEntity MovePosition to X=-206.016*, Z=-60.132*, Y=-104.400*
  2: 0x02B2 [0x5A] UPDATE_EVENT_POSITION: Move EventEntity incrementally towards MovePosition
  3: 0x02B4 [0x00] END_REQSTACK()
```

### Event 65535.61

#### Metadata

| Field        | Value    |
|--------------|----------|
| Entrypoint   | 0x02B5   |
| Data Size    | 30 bytes |
| Instructions | 6        |

```
      00 01 02 03 04 05 06 07  08 09 0A 0B 0C 0D 0E 0F
      -- -- -- -- -- -- -- --  -- -- -- -- -- -- -- --
02B0:                32 62 80  1F 00 63 80 64 80 65 80       2b...c.d.e.
02C0: 1F 01 6F 5B 66 80 F8 FF  FF 7F F8 FF FF 7F 73 70  ..o[f.........sp
02D0: 70 30 00                                          p0.             
```

#### Opcodes

```
  0: 0x02B5 [0x32] ExtData[1]->MainSpeed = 18* * 0.1
  1: 0x02B8 [0x1F] MOVE_ENTITY: EventEntity moves to X=-93.448*, Z=-58.006*, Y=-68.249*
  2: 0x02C0 [0x1F] MOVE_ENTITY: Update entity position (mode=1)
  3: 0x02C2 [0x6F] WAIT_FRAME_DELAY: Yield until WaitTime reaches zero
  4: 0x02C3 [0x5B] LOAD_EXT_SCHEDULER: Load scheduler "spp0" with entities [EventEntity, EventEntity], work=2227*
  5: 0x02D2 [0x00] END_REQSTACK()
```

### Event 65535.62

#### Metadata

| Field        | Value    |
|--------------|----------|
| Entrypoint   | 0x02D3   |
| Data Size    | 15 bytes |
| Instructions | 5        |

```
      00 01 02 03 04 05 06 07  08 09 0A 0B 0C 0D 0E 0F
      -- -- -- -- -- -- -- --  -- -- -- -- -- -- -- --
02D0:          32 43 80 1F 00  67 80 68 80 69 80 1F 01     2C...g.h.i...
02E0: 6F 00                                             o.              
```

#### Opcodes

```
  0: 0x02D3 [0x32] ExtData[1]->MainSpeed = 20* * 0.1
  1: 0x02D6 [0x1F] MOVE_ENTITY: EventEntity moves to X=-62.393*, Z=-63.522*, Y=-68.014*
  2: 0x02DE [0x1F] MOVE_ENTITY: Update entity position (mode=1)
  3: 0x02E0 [0x6F] WAIT_FRAME_DELAY: Yield until WaitTime reaches zero
  4: 0x02E1 [0x00] END_REQSTACK()
```

### Event 65535.63

#### Metadata

| Field        | Value    |
|--------------|----------|
| Entrypoint   | 0x02E2   |
| Data Size    | 30 bytes |
| Instructions | 6        |

```
      00 01 02 03 04 05 06 07  08 09 0A 0B 0C 0D 0E 0F
      -- -- -- -- -- -- -- --  -- -- -- -- -- -- -- --
02E0:       32 6A 80 1F 00 6B  80 6C 80 6D 80 1F 01 6F    2j...k.l.m...o
02F0: 5B 66 80 F8 FF FF 7F F8  FF FF 7F 73 70 70 30 00  [f.........spp0.
```

#### Opcodes

```
  0: 0x02E2 [0x32] ExtData[1]->MainSpeed = 17* * 0.1
  1: 0x02E5 [0x1F] MOVE_ENTITY: EventEntity moves to X=-88.906*, Z=-58.078*, Y=-68.000*
  2: 0x02ED [0x1F] MOVE_ENTITY: Update entity position (mode=1)
  3: 0x02EF [0x6F] WAIT_FRAME_DELAY: Yield until WaitTime reaches zero
  4: 0x02F0 [0x5B] LOAD_EXT_SCHEDULER: Load scheduler "spp0" with entities [EventEntity, EventEntity], work=2227*
  5: 0x02FF [0x00] END_REQSTACK()
```

### Event 65535.64

#### Metadata

| Field        | Value    |
|--------------|----------|
| Entrypoint   | 0x0300   |
| Data Size    | 25 bytes |
| Instructions | 7        |

```
      00 01 02 03 04 05 06 07  08 09 0A 0B 0C 0D 0E 0F
      -- -- -- -- -- -- -- --  -- -- -- -- -- -- -- --
0300: 32 62 80 1F 00 6E 80 6F  80 65 80 1F 01 1F 00 70  2b...n.o.e.....p
0310: 80 71 80 6D 80 1F 01 6F  00                       .q.m...o.       
```

#### Opcodes

```
  0: 0x0300 [0x32] ExtData[1]->MainSpeed = 18* * 0.1
  1: 0x0303 [0x1F] MOVE_ENTITY: EventEntity moves to X=-64.793*, Z=-62.395*, Y=-68.249*
  2: 0x030B [0x1F] MOVE_ENTITY: Update entity position (mode=1)
  3: 0x030D [0x1F] MOVE_ENTITY: EventEntity moves to X=-69.110*, Z=-61.473*, Y=-68.000*
  4: 0x0315 [0x1F] MOVE_ENTITY: Update entity position (mode=1)
  5: 0x0317 [0x6F] WAIT_FRAME_DELAY: Yield until WaitTime reaches zero
  6: 0x0318 [0x00] END_REQSTACK()
```

### Event 65535.65

#### Metadata

| Field        | Value    |
|--------------|----------|
| Entrypoint   | 0x0319   |
| Data Size    | 15 bytes |
| Instructions | 5        |

```
      00 01 02 03 04 05 06 07  08 09 0A 0B 0C 0D 0E 0F
      -- -- -- -- -- -- -- --  -- -- -- -- -- -- -- --
0310:                             32 72 80 1F 00 73 80           2r...s.
0320: 74 80 75 80 1F 01 6F 00                           t.u...o.        
```

#### Opcodes

```
  0: 0x0319 [0x32] ExtData[1]->MainSpeed = 19* * 0.1
  1: 0x031C [0x1F] MOVE_ENTITY: EventEntity moves to X=-62.157*, Z=-61.264*, Y=-67.927*
  2: 0x0324 [0x1F] MOVE_ENTITY: Update entity position (mode=1)
  3: 0x0326 [0x6F] WAIT_FRAME_DELAY: Yield until WaitTime reaches zero
  4: 0x0327 [0x00] END_REQSTACK()
```

### Event 65535.66

#### Metadata

| Field        | Value    |
|--------------|----------|
| Entrypoint   | 0x0328   |
| Data Size    | 15 bytes |
| Instructions | 5        |

```
      00 01 02 03 04 05 06 07  08 09 0A 0B 0C 0D 0E 0F
      -- -- -- -- -- -- -- --  -- -- -- -- -- -- -- --
0320:                          32 76 80 1F 00 77 80 78          2v...w.x
0330: 80 79 80 1F 01 6F 00                              .y...o.         
```

#### Opcodes

```
  0: 0x0328 [0x32] ExtData[1]->MainSpeed = 69* * 0.1
  1: 0x032B [0x1F] MOVE_ENTITY: EventEntity moves to X=-89.790*, Z=-57.410*, Y=-68.212*
  2: 0x0333 [0x1F] MOVE_ENTITY: Update entity position (mode=1)
  3: 0x0335 [0x6F] WAIT_FRAME_DELAY: Yield until WaitTime reaches zero
  4: 0x0336 [0x00] END_REQSTACK()
```

### Event 65535.67

#### Metadata

| Field        | Value    |
|--------------|----------|
| Entrypoint   | 0x0337   |
| Data Size    | 25 bytes |
| Instructions | 7        |

```
      00 01 02 03 04 05 06 07  08 09 0A 0B 0C 0D 0E 0F
      -- -- -- -- -- -- -- --  -- -- -- -- -- -- -- --
0330:                      32  7A 80 1F 00 7B 80 7C 80         2z...{.|.
0340: 7D 80 1F 01 1F 00 7E 80  7F 80 7D 80 1F 01 6F 00  }.....~...}...o.
```

#### Opcodes

```
  0: 0x0337 [0x32] ExtData[1]->MainSpeed = 70* * 0.1
  1: 0x033A [0x1F] MOVE_ENTITY: EventEntity moves to X=-101.436*, Z=-59.231*, Y=-69.494*
  2: 0x0342 [0x1F] MOVE_ENTITY: Update entity position (mode=1)
  3: 0x0344 [0x1F] MOVE_ENTITY: EventEntity moves to X=-92.230*, Z=-57.698*, Y=-69.494*
  4: 0x034C [0x1F] MOVE_ENTITY: Update entity position (mode=1)
  5: 0x034E [0x6F] WAIT_FRAME_DELAY: Yield until WaitTime reaches zero
  6: 0x034F [0x00] END_REQSTACK()
```

### Event 65535.68

#### Metadata

| Field        | Value    |
|--------------|----------|
| Entrypoint   | 0x0350   |
| Data Size    | 28 bytes |
| Instructions | 8        |

```
      00 01 02 03 04 05 06 07  08 09 0A 0B 0C 0D 0E 0F
      -- -- -- -- -- -- -- --  -- -- -- -- -- -- -- --
0350: 1C 3B 80 32 03 80 1F 00  80 80 81 80 82 80 1F 01  .;.2............
0360: 1F 00 83 80 84 80 85 80  1F 01 6F 00              ..........o.    
```

#### Opcodes

```
  0: 0x0350 [0x1C] WAIT(15* ticks)
  1: 0x0353 [0x32] ExtData[1]->MainSpeed = 40* * 0.1
  2: 0x0356 [0x1F] MOVE_ENTITY: EventEntity moves to X=132.218*, Z=0.664*, Y=-43.591*
  3: 0x035E [0x1F] MOVE_ENTITY: Update entity position (mode=1)
  4: 0x0360 [0x1F] MOVE_ENTITY: EventEntity moves to X=114.160*, Z=0.371*, Y=-44.235*
  5: 0x0368 [0x1F] MOVE_ENTITY: Update entity position (mode=1)
  6: 0x036A [0x6F] WAIT_FRAME_DELAY: Yield until WaitTime reaches zero
  7: 0x036B [0x00] END_REQSTACK()
```

### Event 65535.69

#### Metadata

| Field        | Value    |
|--------------|----------|
| Entrypoint   | 0x036C   |
| Data Size    | 15 bytes |
| Instructions | 5        |

```
      00 01 02 03 04 05 06 07  08 09 0A 0B 0C 0D 0E 0F
      -- -- -- -- -- -- -- --  -- -- -- -- -- -- -- --
0360:                                      32 86 80 1F              2...
0370: 00 87 80 88 80 89 80 1F  01 6F 00                 .........o.     
```

#### Opcodes

```
  0: 0x036C [0x32] ExtData[1]->MainSpeed = 43* * 0.1
  1: 0x036F [0x1F] MOVE_ENTITY: EventEntity moves to X=112.639*, Z=-0.426*, Y=-44.425*
  2: 0x0377 [0x1F] MOVE_ENTITY: Update entity position (mode=1)
  3: 0x0379 [0x6F] WAIT_FRAME_DELAY: Yield until WaitTime reaches zero
  4: 0x037A [0x00] END_REQSTACK()
```

### Event 65535.70

#### Metadata

| Field        | Value    |
|--------------|----------|
| Entrypoint   | 0x037B   |
| Data Size    | 15 bytes |
| Instructions | 5        |

```
      00 01 02 03 04 05 06 07  08 09 0A 0B 0C 0D 0E 0F
      -- -- -- -- -- -- -- --  -- -- -- -- -- -- -- --
0370:                                   32 03 80 1F 00             2....
0380: 8A 80 8B 80 8C 80 1F 01  6F 00                    ........o.      
```

#### Opcodes

```
  0: 0x037B [0x32] ExtData[1]->MainSpeed = 40* * 0.1
  1: 0x037E [0x1F] MOVE_ENTITY: EventEntity moves to X=94.528*, Z=-12.740*, Y=-51.272*
  2: 0x0386 [0x1F] MOVE_ENTITY: Update entity position (mode=1)
  3: 0x0388 [0x6F] WAIT_FRAME_DELAY: Yield until WaitTime reaches zero
  4: 0x0389 [0x00] END_REQSTACK()
```

### Event 65535.71

#### Metadata

| Field        | Value   |
|--------------|---------|
| Entrypoint   | 0x038A  |
| Data Size    | 5 bytes |
| Instructions | 2       |

```
      00 01 02 03 04 05 06 07  08 09 0A 0B 0C 0D 0E 0F
      -- -- -- -- -- -- -- --  -- -- -- -- -- -- -- --
0380:                                B6 00 8D 80 00               ..... 
```

#### Opcodes

```
  0: 0x038A [0xB6] ENTITY_APPEARANCE_HANDLER(case=Hair style, value=52*)
  1: 0x038E [0x00] END_REQSTACK()
```

### Event 65535.72

#### Metadata

| Field        | Value   |
|--------------|---------|
| Entrypoint   | 0x038F  |
| Data Size    | 5 bytes |
| Instructions | 2       |

```
      00 01 02 03 04 05 06 07  08 09 0A 0B 0C 0D 0E 0F
      -- -- -- -- -- -- -- --  -- -- -- -- -- -- -- --
0380:                                               B6                 .
0390: 00 8D 80 00                                       ....            
```

#### Opcodes

```
  0: 0x038F [0xB6] ENTITY_APPEARANCE_HANDLER(case=Hair style, value=52*)
  1: 0x0393 [0x00] END_REQSTACK()
```

### Event 65535.73

#### Metadata

| Field        | Value   |
|--------------|---------|
| Entrypoint   | 0x0394  |
| Data Size    | 5 bytes |
| Instructions | 2       |

```
      00 01 02 03 04 05 06 07  08 09 0A 0B 0C 0D 0E 0F
      -- -- -- -- -- -- -- --  -- -- -- -- -- -- -- --
0390:             B6 00 8D 80  00                           .....       
```

#### Opcodes

```
  0: 0x0394 [0xB6] ENTITY_APPEARANCE_HANDLER(case=Hair style, value=52*)
  1: 0x0398 [0x00] END_REQSTACK()
```

### Event 65535.74

#### Metadata

| Field        | Value    |
|--------------|----------|
| Entrypoint   | 0x0399   |
| Data Size    | 15 bytes |
| Instructions | 5        |

```
      00 01 02 03 04 05 06 07  08 09 0A 0B 0C 0D 0E 0F
      -- -- -- -- -- -- -- --  -- -- -- -- -- -- -- --
0390:                             32 8E 80 1F 00 8F 80           2......
03A0: 90 80 6D 80 1F 01 6F 00                           ..m...o.        
```

#### Opcodes

```
  0: 0x0399 [0x32] ExtData[1]->MainSpeed = 68* * 0.1
  1: 0x039C [0x1F] MOVE_ENTITY: EventEntity moves to X=-90.901*, Z=-57.802*, Y=-68.000*
  2: 0x03A4 [0x1F] MOVE_ENTITY: Update entity position (mode=1)
  3: 0x03A6 [0x6F] WAIT_FRAME_DELAY: Yield until WaitTime reaches zero
  4: 0x03A7 [0x00] END_REQSTACK()
```

### Event 65535.75

#### Metadata

| Field        | Value    |
|--------------|----------|
| Entrypoint   | 0x03A8   |
| Data Size    | 25 bytes |
| Instructions | 7        |

```
      00 01 02 03 04 05 06 07  08 09 0A 0B 0C 0D 0E 0F
      -- -- -- -- -- -- -- --  -- -- -- -- -- -- -- --
03A0:                          32 7A 80 1F 00 91 80 92          2z......
03B0: 80 93 80 1F 01 1F 00 94  80 95 80 6D 80 1F 01 6F  ...........m...o
03C0: 00                                                .               
```

#### Opcodes

```
  0: 0x03A8 [0x32] ExtData[1]->MainSpeed = 70* * 0.1
  1: 0x03AB [0x1F] MOVE_ENTITY: EventEntity moves to X=-102.879*, Z=-58.844*, Y=-67.937*
  2: 0x03B3 [0x1F] MOVE_ENTITY: Update entity position (mode=1)
  3: 0x03B5 [0x1F] MOVE_ENTITY: EventEntity moves to X=-90.940*, Z=-57.859*, Y=-68.000*
  4: 0x03BD [0x1F] MOVE_ENTITY: Update entity position (mode=1)
  5: 0x03BF [0x6F] WAIT_FRAME_DELAY: Yield until WaitTime reaches zero
  6: 0x03C0 [0x00] END_REQSTACK()
```

### Event 65535.76

#### Metadata

| Field        | Value    |
|--------------|----------|
| Entrypoint   | 0x03C1   |
| Data Size    | 25 bytes |
| Instructions | 7        |

```
      00 01 02 03 04 05 06 07  08 09 0A 0B 0C 0D 0E 0F
      -- -- -- -- -- -- -- --  -- -- -- -- -- -- -- --
03C0:    32 76 80 1F 00 96 80  97 80 98 80 1F 01 1F 00   2v.............
03D0: 99 80 9A 80 6D 80 1F 01  6F 00                    ....m...o.      
```

#### Opcodes

```
  0: 0x03C1 [0x32] ExtData[1]->MainSpeed = 69* * 0.1
  1: 0x03C4 [0x1F] MOVE_ENTITY: EventEntity moves to X=-102.947*, Z=-56.180*, Y=-67.941*
  2: 0x03CC [0x1F] MOVE_ENTITY: Update entity position (mode=1)
  3: 0x03CE [0x1F] MOVE_ENTITY: EventEntity moves to X=-91.019*, Z=-57.757*, Y=-68.000*
  4: 0x03D6 [0x1F] MOVE_ENTITY: Update entity position (mode=1)
  5: 0x03D8 [0x6F] WAIT_FRAME_DELAY: Yield until WaitTime reaches zero
  6: 0x03D9 [0x00] END_REQSTACK()
```

### Event 65535.77

#### Metadata

| Field        | Value   |
|--------------|---------|
| Entrypoint   | 0x03DA  |
| Data Size    | 5 bytes |
| Instructions | 2       |

```
      00 01 02 03 04 05 06 07  08 09 0A 0B 0C 0D 0E 0F
      -- -- -- -- -- -- -- --  -- -- -- -- -- -- -- --
03D0:                                B6 00 9B 80 00               ..... 
```

#### Opcodes

```
  0: 0x03DA [0xB6] ENTITY_APPEARANCE_HANDLER(case=Hair style, value=2264*)
  1: 0x03DE [0x00] END_REQSTACK()
```

### Event 65535.78

#### Metadata

| Field        | Value   |
|--------------|---------|
| Entrypoint   | 0x03DF  |
| Data Size    | 4 bytes |
| Instructions | 2       |

```
      00 01 02 03 04 05 06 07  08 09 0A 0B 0C 0D 0E 0F
      -- -- -- -- -- -- -- --  -- -- -- -- -- -- -- --
03D0:                                               C0                 .
03E0: 08 80 00                                          ...             
```

#### Opcodes

```
  0: 0x03DF [0xC0] EventEntity->Render.Flags3 |= 0x1000 // Set bit 12 (from 1*)
  1: 0x03E2 [0x00] END_REQSTACK()
```
