# 0x7FFFFFF0 - Zone Events

## Common Data

| Field            | Value                           |
|------------------|---------------------------------|
| Zone             | Fort Karugo-Narugo [S] (ID: 96) |
| Block Size       | 2616 bytes                      |
| Total Events     | 36                              |
| References Count | 81                              |

## List of Events

| Event ID                   | Entrypoint   |   Size |   Instructions |
|----------------------------|--------------|--------|----------------|
| [65535](#event-65535)      | 0x0000       |      1 |              1 |
| [65534](#event-65534)      | 0x0001       |      1 |              1 |
| [229](#event-229)          | 0x0002       |    102 |             15 |
| [65535.1](#event-655351)   | 0x0068       |     31 |             11 |
| [65535.2](#event-655352)   | 0x0087       |      7 |              3 |
| [65535.3](#event-655353)   | 0x008E       |      7 |              3 |
| [65535.4](#event-655354)   | 0x0095       |     24 |              6 |
| [65535.5](#event-655355)   | 0x00AD       |     20 |              6 |
| [65535.6](#event-655356)   | 0x00C1       |      6 |              2 |
| [65535.7](#event-655357)   | 0x00C7       |      6 |              2 |
| [264](#event-264)          | 0x00CD       |   1061 |            204 |
| [65535.8](#event-655358)   | 0x04F2       |     37 |              5 |
| [65535.9](#event-655359)   | 0x0517       |     37 |              5 |
| [65535.10](#event-6553510) | 0x053C       |     37 |              5 |
| [65535.11](#event-6553511) | 0x0561       |    185 |             37 |
| [65535.12](#event-6553512) | 0x061A       |     24 |              4 |
| [65535.13](#event-6553513) | 0x0632       |     24 |              4 |
| [65535.14](#event-6553514) | 0x064A       |     38 |              5 |
| [65535.15](#event-6553515) | 0x0670       |     38 |              5 |
| [65535.16](#event-6553516) | 0x0696       |     38 |              5 |
| [65535.17](#event-6553517) | 0x06BC       |     23 |              7 |
| [65535.18](#event-6553518) | 0x06D3       |     15 |              5 |
| [65535.19](#event-6553519) | 0x06E2       |     24 |              4 |
| [65535.20](#event-6553520) | 0x06FA       |     38 |             10 |
| [65535.21](#event-6553521) | 0x0720       |     15 |              5 |
| [65535.22](#event-6553522) | 0x072F       |     43 |              6 |
| [65535.23](#event-6553523) | 0x075A       |      9 |              3 |
| [65535.24](#event-6553524) | 0x0763       |     14 |              4 |
| [65535.25](#event-6553525) | 0x0771       |     35 |              9 |
| [65535.26](#event-6553526) | 0x0794       |     19 |              5 |
| [65535.27](#event-6553527) | 0x07A7       |     16 |              3 |
| [65535.28](#event-6553528) | 0x07B7       |     16 |              3 |
| [65535.29](#event-6553529) | 0x07C7       |     27 |              5 |
| [65535.30](#event-6553530) | 0x07E2       |     38 |              5 |
| [65535.31](#event-6553531) | 0x0808       |     38 |              5 |
| [65535.32](#event-6553532) | 0x082E       |     38 |              5 |

## DAT References (imed_data)

|   Index | Hex Value   |   Dec Value |
|---------|-------------|-------------|
|       0 | 0x1E27      |        7719 |
|       1 | 0x00C8      |         200 |
|       2 | 0x0000      |           0 |
|       3 | 0x0001      |           1 |
|       4 | 0x005A      |          90 |
|       5 | 0x003C      |          60 |
|       6 | 0x00C9      |         201 |
|       7 | 0x0028      |          40 |
|       8 | 0x31074     |      200820 |
|       9 | 0x997C      |       39292 |
|      10 | 0xFFFF92F2  |  4294939378 |
|      11 | 0x001E      |          30 |
|      12 | 0x1EC74     |      126068 |
|      13 | 0xFFFFE77D  |  4294961021 |
|      14 | 0xFFFF3FFE  |  4294918142 |
|      15 | 0x07EE      |        2030 |
|      16 | 0x1EC32     |      126002 |
|      17 | 0x0509      |        1289 |
|      18 | 0x000D      |          13 |
|      19 | 0x1ECDC     |      126172 |
|      20 | 0x0B34      |        2868 |
|      21 | 0x0002      |           2 |
|      22 | 0x0003      |           3 |
|      23 | 0x0013      |          19 |
|      24 | 0x0090      |         144 |
|      25 | 0x00B4      |         180 |
|      26 | 0x0004      |           4 |
|      27 | 0x1D05      |        7429 |
|      28 | 0x1D06      |        7430 |
|      29 | 0x1D08      |        7432 |
|      30 | 0x1D09      |        7433 |
|      31 | 0x1D0A      |        7434 |
|      32 | 0x1D0B      |        7435 |
|      33 | 0x0102      |         258 |
|      34 | 0x0202      |         514 |
|      35 | 0x0156      |         342 |
|      36 | 0x0005      |           5 |
|      37 | 0x000A      |          10 |
|      38 | 0x0009      |           9 |
|      39 | 0x0046      |          70 |
|      40 | 0x008C      |         140 |
|      41 | 0x00D2      |         210 |
|      42 | 0x0008      |           8 |
|      43 | 0x0007      |           7 |
|      44 | 0x0091      |         145 |
|      45 | 0x004F      |          79 |
|      46 | 0x004C      |          76 |
|      47 | 0x0018      |          24 |
|      48 | 0x0020      |          32 |
|      49 | 0x0030      |          48 |
|      50 | 0x0040      |          64 |
|      51 | 0xFFFE5DB0  |  4294860208 |
|      52 | 0x0747      |        1863 |
|      53 | 0xFFFEC7B3  |  4294887347 |
|      54 | 0x0026      |          38 |
|      55 | 0xFFFE016F  |  4294836591 |
|      56 | 0xFFFE7A22  |  4294867490 |
|      57 | 0xFFFED7C0  |  4294891456 |
|      58 | 0x002D      |          45 |
|      59 | 0x0029      |          41 |
|      60 | 0xFFFDCB92  |  4294822802 |
|      61 | 0xFFFE8F8A  |  4294872970 |
|      62 | 0xFFFED720  |  4294891296 |
|      63 | 0xFFFDC369  |  4294820713 |
|      64 | 0xFFFE9575  |  4294874485 |
|      65 | 0xFFFED7EE  |  4294891502 |
|      66 | 0xFFFDA708  |  4294813448 |
|      67 | 0xFFFE94E7  |  4294874343 |
|      68 | 0xFFFED7AC  |  4294891436 |
|      69 | 0xFFFDF3AB  |  4294833067 |
|      70 | 0xFFFE743F  |  4294865983 |
|      71 | 0xFFFED721  |  4294891297 |
|      72 | 0x0078      |         120 |
|      73 | 0xFFFFCA82  |  4294953602 |
|      74 | 0xFFFEC707  |  4294887175 |
|      75 | 0xFFFEF661  |  4294899297 |
|      76 | 0x0023      |          35 |
|      77 | 0xFFF98295  |  4294541973 |
|      78 | 0x54810     |      346128 |
|      79 | 0xFFFF92D9  |  4294939353 |
|      80 | 0x0080      |         128 |

## String References

- **7719**: The order has been given by your party leader to enter [Everbloom Hollow/the Ruhotz Silvermines/Ghoyu's Reverie].

## Events

### Event 65535

#### Metadata

| Field        | Value   |
|--------------|---------|
| Entrypoint   | 0x0000  |
| Data Size    | 1 bytes |
| Instructions | 1       |

```
      00 01 02 03 04 05 06 07  08 09 0A 0B 0C 0D 0E 0F
      -- -- -- -- -- -- -- --  -- -- -- -- -- -- -- --
0000: 00                                                .               
```

#### Opcodes

```
  0: 0x0000 [0x00] END_REQSTACK()
```

### Event 65534

#### Metadata

| Field        | Value   |
|--------------|---------|
| Entrypoint   | 0x0001  |
| Data Size    | 1 bytes |
| Instructions | 1       |

```
      00 01 02 03 04 05 06 07  08 09 0A 0B 0C 0D 0E 0F
      -- -- -- -- -- -- -- --  -- -- -- -- -- -- -- --
0000:    00                                              .              
```

#### Opcodes

```
  0: 0x0001 [0x00] END_REQSTACK()
```

### Event 229

#### Metadata

| Field        | Value     |
|--------------|-----------|
| Entrypoint   | 0x0002    |
| Data Size    | 102 bytes |
| Instructions | 15        |

```
      00 01 02 03 04 05 06 07  08 09 0A 0B 0C 0D 0E 0F
      -- -- -- -- -- -- -- --  -- -- -- -- -- -- -- --
0000:       42 48 00 80 45 01  80 F0 FF FF 7F F0 FF FF    BH..E.........
0010: 7F 66 64 6F 31 02 80 02  03 10 02 80 00 33 00 62  .fdo1........3.b
0020: 03 80 F0 FF FF 7F F0 FF  FF 7F 6D 61 69 6E 02 80  ..........main..
0030: 1C 04 80 1C 05 80 83 1E  17 AA 1E 17 1E 17 1E 17  ................
0040: 1E 17 1E 17 1F 17 1E 17  1E 17 03 00 00 02 80 77  ...............w
0050: 1F 17 00 00 78 45 06 80  F0 FF FF 7F F0 FF FF 7F  ....xE..........
0060: 77 68 69 31 02 80 21 00                           whi1..!.        
```

#### Opcodes

```
  0: 0x0002 [0x42] SET_CLI_EVENT_CANCEL_DATA()
  1: 0x0003 [0x48] [System] [7719*]:
    → "The order has been given by your party leader to enter [Everbloom Hollow/the Ruhotz Silvermines/Ghoyu's Reverie]."
  2: 0x0006 [0x45] LOAD_SCHEDULED_TASK: Load scheduler "fdo1" with entities [LocalPlayer, LocalPlayer], work=[200*, 0*]
  3: 0x0017 [0x02] IF !(Work_Zone[3] == 0*) GOTO 0x0033
  4: 0x001F [0x62] LOAD_EVENT_SCHEDULER: Load scheduler "main" with entities [LocalPlayer, LocalPlayer], work=[1*, 0*]
  5: 0x0030 [0x1C] WAIT(90* ticks)
  6: 0x0033 [0x1C] WAIT(60* ticks)
  7: 0x0036 [0x83] Work_Zone_1700[30] = GetGameTime()
  8: 0x0039 [0xAA] VANA_DIEL_TIMESTAMP_CONVERTER(timestamp=Work_Zone_1700[30], year=Work_Zone_1700[30], month=Work_Zone_1700[30], day=Work_Zone_1700[30], weekday=Work_Zone_1700[30], hour=Work_Zone_1700[31], minute=Work_Zone_1700[30], moon=Work_Zone_1700[30])
  9: 0x004A [0x03] ExtData[1]->WorkLocal[0] = 0*
 10: 0x004F [0x77] SET_EVENT_TIME_WEATHER(hour=Work_Zone_1700[31], weather=ExtData[1]->WorkLocal[0])
 11: 0x0054 [0x78] ENABLE_GAME_TIMER_RESET_WEATHER()
 12: 0x0055 [0x45] LOAD_SCHEDULED_TASK: Load scheduler "whi1" with entities [LocalPlayer, LocalPlayer], work=[201*, 0*]
 13: 0x0066 [0x21] END_EVENT
 14: 0x0067 [0x00] END_REQSTACK()
```

### Event 65535.1

#### Metadata

| Field        | Value    |
|--------------|----------|
| Entrypoint   | 0x0068   |
| Data Size    | 31 bytes |
| Instructions | 11       |

```
      00 01 02 03 04 05 06 07  08 09 0A 0B 0C 0D 0E 0F
      -- -- -- -- -- -- -- --  -- -- -- -- -- -- -- --
0060:                          32 07 80 1F 00 08 80 09          2.......
0070: 80 0A 80 1F 01 6F 1E FB  02 06 01 6F 70 1C 0B 80  .....o.....op...
0080: AB 03 AC 01 03 80 00                              .......         
```

#### Opcodes

```
  0: 0x0068 [0x32] ExtData[1]->MainSpeed = 40* * 0.1
  1: 0x006B [0x1F] MOVE_ENTITY: EventEntity moves to X=200.820*, Z=39.292*, Y=-27.918*
  2: 0x0073 [0x1F] MOVE_ENTITY: Update entity position (mode=1)
  3: 0x0075 [0x6F] WAIT_FRAME_DELAY: Yield until WaitTime reaches zero
  4: 0x0076 [0x1E] EventEntity looks at Unnamed NPC (ID: 17171195/0x010602FB) and starts talking
  5: 0x007B [0x6F] WAIT_FRAME_DELAY: Yield until WaitTime reaches zero
  6: 0x007C [0x70] WAIT_ENTITY_RENDER_FLAG: Wait while EventEntity->Render.Flags3 bit 2 is set (cancel turn if not)
  7: 0x007D [0x1C] WAIT(30* ticks)
  8: 0x0080 [0xAB] EventEntity->Render.Flags0 ^= 0x20000 // Toggle bit 17
  9: 0x0082 [0xAC] EventEntity->StatusEvent = 1*
 10: 0x0086 [0x00] END_REQSTACK()
```

### Event 65535.2

#### Metadata

| Field        | Value   |
|--------------|---------|
| Entrypoint   | 0x0087  |
| Data Size    | 7 bytes |
| Instructions | 3       |

```
      00 01 02 03 04 05 06 07  08 09 0A 0B 0C 0D 0E 0F
      -- -- -- -- -- -- -- --  -- -- -- -- -- -- -- --
0080:                      AB  03 AC 01 03 80 00               .......  
```

#### Opcodes

```
  0: 0x0087 [0xAB] EventEntity->Render.Flags0 ^= 0x20000 // Toggle bit 17
  1: 0x0089 [0xAC] EventEntity->StatusEvent = 1*
  2: 0x008D [0x00] END_REQSTACK()
```

### Event 65535.3

#### Metadata

| Field        | Value   |
|--------------|---------|
| Entrypoint   | 0x008E  |
| Data Size    | 7 bytes |
| Instructions | 3       |

```
      00 01 02 03 04 05 06 07  08 09 0A 0B 0C 0D 0E 0F
      -- -- -- -- -- -- -- --  -- -- -- -- -- -- -- --
0080:                                            AC 01                ..
0090: 02 80 AB 04 00                                    .....           
```

#### Opcodes

```
  0: 0x008E [0xAC] EventEntity->StatusEvent = 0*
  1: 0x0092 [0xAB] EventEntity->Render.Flags0 |= 0x40000 // Set bit 18
  2: 0x0094 [0x00] END_REQSTACK()
```

### Event 65535.4

#### Metadata

| Field        | Value    |
|--------------|----------|
| Entrypoint   | 0x0095   |
| Data Size    | 24 bytes |
| Instructions | 6        |

```
      00 01 02 03 04 05 06 07  08 09 0A 0B 0C 0D 0E 0F
      -- -- -- -- -- -- -- --  -- -- -- -- -- -- -- --
0090:                37 0C 80  0D 80 0E 80 0F 80 32 07       7........2.
00A0: 80 1F 00 10 80 11 80 0E  80 1F 01 6F 00           ...........o.   
```

#### Opcodes

```
  0: 0x0095 [0x37] UPDATE_EVENT_POSITION_AND_DIR: x=126.068*, z=-6.275*, y=-49.154*, direction=178.4°*
  1: 0x009E [0x32] ExtData[1]->MainSpeed = 40* * 0.1
  2: 0x00A1 [0x1F] MOVE_ENTITY: EventEntity moves to X=126.002*, Z=1.289*, Y=-49.154*
  3: 0x00A9 [0x1F] MOVE_ENTITY: Update entity position (mode=1)
  4: 0x00AB [0x6F] WAIT_FRAME_DELAY: Yield until WaitTime reaches zero
  5: 0x00AC [0x00] END_REQSTACK()
```

### Event 65535.5

#### Metadata

| Field        | Value    |
|--------------|----------|
| Entrypoint   | 0x00AD   |
| Data Size    | 20 bytes |
| Instructions | 6        |

```
      00 01 02 03 04 05 06 07  08 09 0A 0B 0C 0D 0E 0F
      -- -- -- -- -- -- -- --  -- -- -- -- -- -- -- --
00A0:                                         32 12 80               2..
00B0: 1F 00 13 80 14 80 0E 80  1F 01 6F 1E F8 02 06 01  ..........o.....
00C0: 00                                                .               
```

#### Opcodes

```
  0: 0x00AD [0x32] ExtData[1]->MainSpeed = 13* * 0.1
  1: 0x00B0 [0x1F] MOVE_ENTITY: EventEntity moves to X=126.172*, Z=2.868*, Y=-49.154*
  2: 0x00B8 [0x1F] MOVE_ENTITY: Update entity position (mode=1)
  3: 0x00BA [0x6F] WAIT_FRAME_DELAY: Yield until WaitTime reaches zero
  4: 0x00BB [0x1E] EventEntity looks at Robel-Akbel (ID: 17171192/0x010602F8) and starts talking
  5: 0x00C0 [0x00] END_REQSTACK()
```

### Event 65535.6

#### Metadata

| Field        | Value   |
|--------------|---------|
| Entrypoint   | 0x00C1  |
| Data Size    | 6 bytes |
| Instructions | 2       |

```
      00 01 02 03 04 05 06 07  08 09 0A 0B 0C 0D 0E 0F
      -- -- -- -- -- -- -- --  -- -- -- -- -- -- -- --
00C0:    03 02 10 07 7F 00                               ......         
```

#### Opcodes

```
  0: 0x00C1 [0x03] Work_Zone[2] = Entity->Race
  1: 0x00C6 [0x00] END_REQSTACK()
```

### Event 65535.7

#### Metadata

| Field        | Value   |
|--------------|---------|
| Entrypoint   | 0x00C7  |
| Data Size    | 6 bytes |
| Instructions | 2       |

```
      00 01 02 03 04 05 06 07  08 09 0A 0B 0C 0D 0E 0F
      -- -- -- -- -- -- -- --  -- -- -- -- -- -- -- --
00C0:                      03  02 10 0B 7F 00                  ......   
```

#### Opcodes

```
  0: 0x00C7 [0x03] Work_Zone[2] = (Entity->Render.Flags01 >> 25) & 1
  1: 0x00CC [0x00] END_REQSTACK()
```

### Event 264

#### Metadata

| Field        | Value      |
|--------------|------------|
| Entrypoint   | 0x00CD     |
| Data Size    | 1061 bytes |
| Instructions | 204        |

```
      00 01 02 03 04 05 06 07  08 09 0A 0B 0C 0D 0E 0F
      -- -- -- -- -- -- -- --  -- -- -- -- -- -- -- --
00C0:                                         42 46 01               BF.
00D0: 3E 04 10 02 80 DF 00 03  01 00 03 80 01 E4 00 03  >...............
00E0: 01 00 02 80 3E 04 10 03  80 F3 00 03 02 00 03 80  ....>...........
00F0: 01 F8 00 03 02 00 02 80  41 15 80 16 80 04 10 03  ........A.......
0100: 00 45 01 80 F8 FF FF 7F  F8 FF FF 7F 66 64 6F 30  .E..........fdo0
0110: 02 80 55 01 80 F8 FF FF  7F F8 FF FF 7F 66 64 6F  ..U..........fdo
0120: 30 BA F0 FF FF 7F 05 10  06 10 07 10 08 10 1A 0E  0...............
0130: 02 1A 6C 02 38 17 80 1A  B1 02 03 05 10 02 10 03  ..l.8...........
0140: 06 10 02 10 03 07 10 02  10 15 05 10 18 80 15 06  ................
0150: 10 05 80 3F 07 10 07 10  05 80 1A D0 04 1A F1 02  ...?............
0160: 45 01 80 F8 FF FF 7F F8  FF FF 7F 66 64 69 31 02  E..........fdi1.
0170: 80 1C 19 80 1A 8A 04 1A  2E 03 1C 05 80 1A 68 03  ..............h.
0180: 02 02 00 02 80 00 91 01  1C 05 80 1A A2 03 01 D3  ................
0190: 01 1C 05 80 1A DC 03 02  03 10 02 80 01 D3 01 03  ................
01A0: 05 10 03 10 03 06 10 03  10 03 07 10 03 10 15 05  ................
01B0: 10 18 80 15 06 10 05 80  3F 07 10 07 10 05 80 1C  ........?.......
01C0: 05 80 02 01 00 02 80 00  D0 01 1A 16 04 01 D3 01  ................
01D0: 1A 50 04 1C 05 80 1A E2  04 45 01 80 F8 FF FF 7F  .P.......E......
01E0: F8 FF FF 7F 66 64 6F 31  02 80 55 01 80 F8 FF FF  ....fdo1..U.....
01F0: 7F F8 FF FF 7F 66 64 6F  31 46 00 45 01 80 F8 FF  .....fdo1F.E....
0200: FF 7F F8 FF FF 7F 66 64  69 32 02 80 21 00 02 03  ......fdi2..!...
0210: 00 03 80 80 2B 02 4E 00  6D 02 06 01 92 01 6D 02  ....+.N.m.....m.
0220: 06 01 4E 00 70 02 06 01  01 65 02 02 03 00 15 80  ..N.p....e......
0230: 80 48 02 4E 00 6E 02 06  01 92 01 6E 02 06 01 4E  .H.N.n.....n...N
0240: 00 71 02 06 01 01 65 02  02 03 00 16 80 80 65 02  .q....e.......e.
0250: 4E 00 6F 02 06 01 92 01  6F 02 06 01 4E 00 72 02  N.o.....o...N.r.
0260: 06 01 01 65 02 4E 00 38  03 06 01 1B 02 03 00 03  ...e.N.8........
0270: 80 80 81 02 80 6D 02 06  01 80 70 02 06 01 01 AB  .....m....p.....
0280: 02 02 03 00 15 80 80 96  02 80 6E 02 06 01 80 71  ..........n....q
0290: 02 06 01 01 AB 02 02 03  00 16 80 80 AB 02 80 6F  ...............o
02A0: 02 06 01 80 72 02 06 01  01 AB 02 80 38 03 06 01  ....r.......8...
02B0: 1B 02 03 00 15 80 80 C6  02 79 00 F0 FF FF 7F 6D  .........y.....m
02C0: 02 06 01 01 F0 02 02 03  00 16 80 80 DB 02 79 00  ..............y.
02D0: F0 FF FF 7F 6E 02 06 01  01 F0 02 02 03 00 1A 80  ....n...........
02E0: 80 F0 02 79 00 F0 FF FF  7F 6F 02 06 01 01 F0 02  ...y.....o......
02F0: 1B 02 03 00 03 80 80 05  03 4A 6D 02 06 01 F0 FF  .........Jm.....
0300: FF 7F 01 2D 03 02 03 00  15 80 80 19 03 4A 6E 02  ...-.........Jn.
0310: 06 01 F0 FF FF 7F 01 2D  03 02 03 00 16 80 80 2D  .......-.......-
0320: 03 4A 6F 02 06 01 F0 FF  FF 7F 01 2D 03 1B 02 03  .Jo........-....
0330: 00 03 80 80 41 03 2B 6D  02 06 01 1B 80 23 01 67  ....A.+m.....#.g
0340: 03 02 03 00 15 80 80 54  03 2B 6E 02 06 01 1B 80  .......T.+n.....
0350: 23 01 67 03 02 03 00 16  80 80 67 03 2B 6F 02 06  #.g.......g.+o..
0360: 01 1B 80 23 01 67 03 1B  02 03 00 03 80 80 7B 03  ...#.g........{.
0370: 2B 6D 02 06 01 1C 80 23  01 A1 03 02 03 00 15 80  +m.....#........
0380: 80 8E 03 2B 6E 02 06 01  1C 80 23 01 A1 03 02 03  ...+n.....#.....
0390: 00 16 80 80 A1 03 2B 6F  02 06 01 1C 80 23 01 A1  ......+o.....#..
03A0: 03 1B 02 03 00 03 80 80  B5 03 2B 6D 02 06 01 1D  ..........+m....
03B0: 80 23 01 DB 03 02 03 00  15 80 80 C8 03 2B 6E 02  .#...........+n.
03C0: 06 01 1D 80 23 01 DB 03  02 03 00 16 80 80 DB 03  ....#...........
03D0: 2B 6F 02 06 01 1D 80 23  01 DB 03 1B 02 03 00 03  +o.....#........
03E0: 80 80 EF 03 2B 6D 02 06  01 1E 80 23 01 15 04 02  ....+m.....#....
03F0: 03 00 15 80 80 02 04 2B  6E 02 06 01 1E 80 23 01  .......+n.....#.
0400: 15 04 02 03 00 16 80 80  15 04 2B 6F 02 06 01 1E  ..........+o....
0410: 80 23 01 15 04 1B 02 03  00 03 80 80 29 04 2B 6D  .#..........).+m
0420: 02 06 01 1F 80 23 01 4F  04 02 03 00 15 80 80 3C  .....#.O.......<
0430: 04 2B 6E 02 06 01 1F 80  23 01 4F 04 02 03 00 16  .+n.....#.O.....
0440: 80 80 4F 04 2B 6F 02 06  01 1F 80 23 01 4F 04 1B  ..O.+o.....#.O..
0450: 02 03 00 03 80 80 63 04  2B 6D 02 06 01 20 80 23  ......c.+m... .#
0460: 01 89 04 02 03 00 15 80  80 76 04 2B 6E 02 06 01  .........v.+n...
0470: 20 80 23 01 89 04 02 03  00 16 80 80 89 04 2B 6F   .#...........+o
0480: 02 06 01 20 80 23 01 89  04 1B 02 03 00 03 80 80  ... .#..........
0490: A1 04 6E 6D 02 06 01 15  80 99 6D 02 06 01 01 CF  ..nm......m.....
04A0: 04 02 03 00 15 80 80 B8  04 6E 6E 02 06 01 21 80  .........nn...!.
04B0: 99 6E 02 06 01 01 CF 04  02 03 00 16 80 80 CF 04  .n..............
04C0: 6E 6F 02 06 01 22 80 99  6F 02 06 01 01 CF 04 1B  no..."..o.......
04D0: 45 23 80 F0 FF FF 7F F0  FF FF 7F 63 30 39 36 02  E#.........c096.
04E0: 80 1B 52 23 80 F0 FF FF  7F F0 FF FF 7F 63 30 39  ..R#.........c09
04F0: 36 1B                                             6.              
```

#### Opcodes

```
  0: 0x00CD [0x42] SET_CLI_EVENT_CANCEL_DATA()
  1: 0x00CE [0x46] CAMERA_CONTROL: Disable user control
  2: 0x00D0 [0x3E] IF !(Work_Zone[4] bit 0*) GOTO 0x00DF
  3: 0x00D7 [0x03] ExtData[1]->WorkLocal[1] = 1*
  4: 0x00DC [0x01] GOTO 0x00E4
  5: 0x00DF [0x03] ExtData[1]->WorkLocal[1] = 0*

SUBROUTINE_00E4:
  6: 0x00E4 [0x3E] IF !(Work_Zone[4] bit 1*) GOTO 0x00F3
  7: 0x00EB [0x03] ExtData[1]->WorkLocal[2] = 1*
  8: 0x00F0 [0x01] GOTO 0x00F8
  9: 0x00F3 [0x03] ExtData[1]->WorkLocal[2] = 0*

SUBROUTINE_00F8:
 10: 0x00F8 [0x41] ExtData[1]->WorkLocal[3] = Work_Zone[4] (bits 2*-3*)
 11: 0x0101 [0x45] LOAD_SCHEDULED_TASK: Load scheduler "fdo0" with entities [EventEntity, EventEntity], work=[200*, 0*]
 12: 0x0112 [0x55] WAIT_LOAD_SCHEDULER: Wait for scheduler "fdo0" with entities [EventEntity, EventEntity], work=200*
 13: 0x0121 [0xBA] SET_ENTITY_POSITION(entity_id=LocalPlayer, pos_x=Work_Zone[5], pos_z=Work_Zone[6], pos_y=Work_Zone[7], direction=Work_Zone[8])
 14: 0x012E [0x1A] CALL_SUBROUTINE(address=0x020E)
 15: 0x0131 [0x1A] CALL_SUBROUTINE(address=0x026C)
 16: 0x0134 [0x38] SET_CLIENT_EVENT_MODE(mode=19*)
 17: 0x0137 [0x1A] CALL_SUBROUTINE(address=0x02B1)
 18: 0x013A [0x03] Work_Zone[5] = Work_Zone[2]
 19: 0x013F [0x03] Work_Zone[6] = Work_Zone[2]
 20: 0x0144 [0x03] Work_Zone[7] = Work_Zone[2]
 21: 0x0149 [0x15] Work_Zone[5] /= 144*
 22: 0x014E [0x15] Work_Zone[6] /= 60*
 23: 0x0153 [0x3F] Work_Zone[7] = Work_Zone[7] % 60*
 24: 0x015A [0x1A] CALL_SUBROUTINE(address=0x04D0)
 25: 0x015D [0x1A] CALL_SUBROUTINE(address=0x02F1)
 26: 0x0160 [0x45] LOAD_SCHEDULED_TASK: Load scheduler "fdi1" with entities [EventEntity, EventEntity], work=[200*, 0*]
 27: 0x0171 [0x1C] WAIT(180* ticks)
 28: 0x0174 [0x1A] CALL_SUBROUTINE(address=0x048A)
 29: 0x0177 [0x1A] CALL_SUBROUTINE(address=0x032E)
 30: 0x017A [0x1C] WAIT(60* ticks)
 31: 0x017D [0x1A] CALL_SUBROUTINE(address=0x0368)
 32: 0x0180 [0x02] IF !(ExtData[1]->WorkLocal[2] == 0*) GOTO 0x0191
 33: 0x0188 [0x1C] WAIT(60* ticks)
 34: 0x018B [0x1A] CALL_SUBROUTINE(address=0x03A2)
 35: 0x018E [0x01] GOTO 0x01D3
 36: 0x0191 [0x1C] WAIT(60* ticks)
 37: 0x0194 [0x1A] CALL_SUBROUTINE(address=0x03DC)
 38: 0x0197 [0x02] IF !(Work_Zone[3] == 0*) GOTO 0x01D3
 39: 0x019F [0x03] Work_Zone[5] = Work_Zone[3]
 40: 0x01A4 [0x03] Work_Zone[6] = Work_Zone[3]
 41: 0x01A9 [0x03] Work_Zone[7] = Work_Zone[3]
 42: 0x01AE [0x15] Work_Zone[5] /= 144*
 43: 0x01B3 [0x15] Work_Zone[6] /= 60*
 44: 0x01B8 [0x3F] Work_Zone[7] = Work_Zone[7] % 60*
 45: 0x01BF [0x1C] WAIT(60* ticks)
 46: 0x01C2 [0x02] IF !(ExtData[1]->WorkLocal[1] == 0*) GOTO 0x01D0
 47: 0x01CA [0x1A] CALL_SUBROUTINE(address=0x0416)
 48: 0x01CD [0x01] GOTO 0x01D3
 49: 0x01D0 [0x1A] CALL_SUBROUTINE(address=0x0450)

SUBROUTINE_01D3:
 50: 0x01D3 [0x1C] WAIT(60* ticks)
 51: 0x01D6 [0x1A] CALL_SUBROUTINE(address=0x04E2)
 52: 0x01D9 [0x45] LOAD_SCHEDULED_TASK: Load scheduler "fdo1" with entities [EventEntity, EventEntity], work=[200*, 0*]
 53: 0x01EA [0x55] WAIT_LOAD_SCHEDULER: Wait for scheduler "fdo1" with entities [EventEntity, EventEntity], work=200*
 54: 0x01F9 [0x46] CAMERA_CONTROL: Restore default settings
 55: 0x01FB [0x45] LOAD_SCHEDULED_TASK: Load scheduler "fdi2" with entities [EventEntity, EventEntity], work=[200*, 0*]
 56: 0x020C [0x21] END_EVENT
 57: 0x020D [0x00] END_REQSTACK()

SUBROUTINE_020E:
 58: 0x020E [0x02] IF !(ExtData[1]->WorkLocal[3] == 1*) GOTO 0x022B
 59: 0x0216 [0x4E] SET_ENTITY_HIDE_FLAG: Show Caulaise, R.K. (ID: 17171053/0x0106026D)
 60: 0x021C [0x92] Caulaise, R.K. (ID: 17171053/0x0106026D)->Render.Flags3 ^= 0x01
 61: 0x0222 [0x4E] SET_ENTITY_HIDE_FLAG: Show Unnamed NPC (ID: 17171056/0x01060270)
 62: 0x0228 [0x01] GOTO 0x0265
 63: 0x022B [0x02] IF !(ExtData[1]->WorkLocal[3] == 2*) GOTO 0x0248
 64: 0x0233 [0x4E] SET_ENTITY_HIDE_FLAG: Show Marianne, I.M. (ID: 17171054/0x0106026E)
 65: 0x0239 [0x92] Marianne, I.M. (ID: 17171054/0x0106026E)->Render.Flags3 ^= 0x01
 66: 0x023F [0x4E] SET_ENTITY_HIDE_FLAG: Show Unnamed NPC (ID: 17171057/0x01060271)
 67: 0x0245 [0x01] GOTO 0x0265
 68: 0x0248 [0x02] IF !(ExtData[1]->WorkLocal[3] == 3*) GOTO 0x0265
 69: 0x0250 [0x4E] SET_ENTITY_HIDE_FLAG: Show Lamurara, C.C. (ID: 17171055/0x0106026F)
 70: 0x0256 [0x92] Lamurara, C.C. (ID: 17171055/0x0106026F)->Render.Flags3 ^= 0x01
 71: 0x025C [0x4E] SET_ENTITY_HIDE_FLAG: Show Unnamed NPC (ID: 17171058/0x01060272)
 72: 0x0262 [0x01] GOTO 0x0265

SUBROUTINE_0265:
 73: 0x0265 [0x4E] SET_ENTITY_HIDE_FLAG: Show Unnamed NPC (ID: 17171256/0x01060338)
 74: 0x026B [0x1B] RETURN

SUBROUTINE_026C:
 75: 0x026C [0x02] IF !(ExtData[1]->WorkLocal[3] == 1*) GOTO 0x0281
 76: 0x0274 [0x80] LOAD_WAIT(entity=Caulaise, R.K. (ID: 17171053/0x0106026D))
 77: 0x0279 [0x80] LOAD_WAIT(entity=Unnamed NPC (ID: 17171056/0x01060270))
 78: 0x027E [0x01] GOTO 0x02AB
 79: 0x0281 [0x02] IF !(ExtData[1]->WorkLocal[3] == 2*) GOTO 0x0296
 80: 0x0289 [0x80] LOAD_WAIT(entity=Marianne, I.M. (ID: 17171054/0x0106026E))
 81: 0x028E [0x80] LOAD_WAIT(entity=Unnamed NPC (ID: 17171057/0x01060271))
 82: 0x0293 [0x01] GOTO 0x02AB
 83: 0x0296 [0x02] IF !(ExtData[1]->WorkLocal[3] == 3*) GOTO 0x02AB
 84: 0x029E [0x80] LOAD_WAIT(entity=Lamurara, C.C. (ID: 17171055/0x0106026F))
 85: 0x02A3 [0x80] LOAD_WAIT(entity=Unnamed NPC (ID: 17171058/0x01060272))
 86: 0x02A8 [0x01] GOTO 0x02AB

SUBROUTINE_02AB:
 87: 0x02AB [0x80] LOAD_WAIT(entity=Unnamed NPC (ID: 17171256/0x01060338))
 88: 0x02B0 [0x1B] RETURN

SUBROUTINE_02B1:
 89: 0x02B1 [0x02] IF !(ExtData[1]->WorkLocal[3] == 2*) GOTO 0x02C6
 90: 0x02B9 [0x79] LocalPlayer looks at Caulaise, R.K. (ID: 17171053/0x0106026D) (Basic look)
 91: 0x02C3 [0x01] GOTO 0x02F0
 92: 0x02C6 [0x02] IF !(ExtData[1]->WorkLocal[3] == 3*) GOTO 0x02DB
 93: 0x02CE [0x79] LocalPlayer looks at Marianne, I.M. (ID: 17171054/0x0106026E) (Basic look)
 94: 0x02D8 [0x01] GOTO 0x02F0
 95: 0x02DB [0x02] IF !(ExtData[1]->WorkLocal[3] == 4*) GOTO 0x02F0
 96: 0x02E3 [0x79] LocalPlayer looks at Lamurara, C.C. (ID: 17171055/0x0106026F) (Basic look)
 97: 0x02ED [0x01] GOTO 0x02F0

SUBROUTINE_02F0:
 98: 0x02F0 [0x1B] RETURN

SUBROUTINE_02F1:
 99: 0x02F1 [0x02] IF !(ExtData[1]->WorkLocal[3] == 1*) GOTO 0x0305
100: 0x02F9 [0x4A] Caulaise, R.K. (ID: 17171053/0x0106026D) looks at LocalPlayer
101: 0x0302 [0x01] GOTO 0x032D
102: 0x0305 [0x02] IF !(ExtData[1]->WorkLocal[3] == 2*) GOTO 0x0319
103: 0x030D [0x4A] Marianne, I.M. (ID: 17171054/0x0106026E) looks at LocalPlayer
104: 0x0316 [0x01] GOTO 0x032D
105: 0x0319 [0x02] IF !(ExtData[1]->WorkLocal[3] == 3*) GOTO 0x032D
106: 0x0321 [0x4A] Lamurara, C.C. (ID: 17171055/0x0106026F) looks at LocalPlayer
107: 0x032A [0x01] GOTO 0x032D

SUBROUTINE_032D:
108: 0x032D [0x1B] RETURN

SUBROUTINE_032E:
109: 0x032E [0x02] IF !(ExtData[1]->WorkLocal[3] == 1*) GOTO 0x0341
110: 0x0336 [0x2B] Caulaise, R.K. (ID: 17171053/0x0106026D) [7429*]:
    → "Ah, you must be <Player>. We've been expecting you."
111: 0x033D [0x23] WAIT_FOR_DIALOG_INTERACTION
112: 0x033E [0x01] GOTO 0x0367
113: 0x0341 [0x02] IF !(ExtData[1]->WorkLocal[3] == 2*) GOTO 0x0354
114: 0x0349 [0x2B] Marianne, I.M. (ID: 17171054/0x0106026E) [7429*]:
    → "Ah, you must be <Player>. We've been expecting you."
115: 0x0350 [0x23] WAIT_FOR_DIALOG_INTERACTION
116: 0x0351 [0x01] GOTO 0x0367
117: 0x0354 [0x02] IF !(ExtData[1]->WorkLocal[3] == 3*) GOTO 0x0367
118: 0x035C [0x2B] Lamurara, C.C. (ID: 17171055/0x0106026F) [7429*]:
    → "Ah, you must be <Player>. We've been expecting you."
119: 0x0363 [0x23] WAIT_FOR_DIALOG_INTERACTION
120: 0x0364 [0x01] GOTO 0x0367

SUBROUTINE_0367:
121: 0x0367 [0x1B] RETURN

SUBROUTINE_0368:
122: 0x0368 [0x02] IF !(ExtData[1]->WorkLocal[3] == 1*) GOTO 0x037B
123: 0x0370 [0x2B] Caulaise, R.K. (ID: 17171053/0x0106026D) [7430*]:
    → "The delivery took you $3 [hour/hours] ($4 [minute/minutes] and $5 [second/seconds] Earth time)."
124: 0x0377 [0x23] WAIT_FOR_DIALOG_INTERACTION
125: 0x0378 [0x01] GOTO 0x03A1
126: 0x037B [0x02] IF !(ExtData[1]->WorkLocal[3] == 2*) GOTO 0x038E
127: 0x0383 [0x2B] Marianne, I.M. (ID: 17171054/0x0106026E) [7430*]:
    → "The delivery took you $3 [hour/hours] ($4 [minute/minutes] and $5 [second/seconds] Earth time)."
128: 0x038A [0x23] WAIT_FOR_DIALOG_INTERACTION
129: 0x038B [0x01] GOTO 0x03A1
130: 0x038E [0x02] IF !(ExtData[1]->WorkLocal[3] == 3*) GOTO 0x03A1
131: 0x0396 [0x2B] Lamurara, C.C. (ID: 17171055/0x0106026F) [7430*]:
    → "The delivery took you $3 [hour/hours] ($4 [minute/minutes] and $5 [second/seconds] Earth time)."
132: 0x039D [0x23] WAIT_FOR_DIALOG_INTERACTION
133: 0x039E [0x01] GOTO 0x03A1

SUBROUTINE_03A1:
134: 0x03A1 [0x1B] RETURN

SUBROUTINE_03A2:
135: 0x03A2 [0x02] IF !(ExtData[1]->WorkLocal[3] == 1*) GOTO 0x03B5
136: 0x03AA [0x2B] Caulaise, R.K. (ID: 17171053/0x0106026D) [7432*]:
    → "While you were dawdling your way here, a separate shipment of construction materials was delivered to us. We shan't be requiring anymore."
137: 0x03B1 [0x23] WAIT_FOR_DIALOG_INTERACTION
138: 0x03B2 [0x01] GOTO 0x03DB
139: 0x03B5 [0x02] IF !(ExtData[1]->WorkLocal[3] == 2*) GOTO 0x03C8
140: 0x03BD [0x2B] Marianne, I.M. (ID: 17171054/0x0106026E) [7432*]:
    → "While you were dawdling your way here, a separate shipment of construction materials was delivered to us. We shan't be requiring anymore."
141: 0x03C4 [0x23] WAIT_FOR_DIALOG_INTERACTION
142: 0x03C5 [0x01] GOTO 0x03DB
143: 0x03C8 [0x02] IF !(ExtData[1]->WorkLocal[3] == 3*) GOTO 0x03DB
144: 0x03D0 [0x2B] Lamurara, C.C. (ID: 17171055/0x0106026F) [7432*]:
    → "While you were dawdling your way here, a separate shipment of construction materials was delivered to us. We shan't be requiring anymore."
145: 0x03D7 [0x23] WAIT_FOR_DIALOG_INTERACTION
146: 0x03D8 [0x01] GOTO 0x03DB

SUBROUTINE_03DB:
147: 0x03DB [0x1B] RETURN

SUBROUTINE_03DC:
148: 0x03DC [0x02] IF !(ExtData[1]->WorkLocal[3] == 1*) GOTO 0x03EF
149: 0x03E4 [0x2B] Caulaise, R.K. (ID: 17171053/0x0106026D) [7433*]:
    → "I commend you on your expeditiousness. Thanks to you, the construction work on our provision storehouse here can proceed as planned."
150: 0x03EB [0x23] WAIT_FOR_DIALOG_INTERACTION
151: 0x03EC [0x01] GOTO 0x0415
152: 0x03EF [0x02] IF !(ExtData[1]->WorkLocal[3] == 2*) GOTO 0x0402
153: 0x03F7 [0x2B] Marianne, I.M. (ID: 17171054/0x0106026E) [7433*]:
    → "I commend you on your expeditiousness. Thanks to you, the construction work on our provision storehouse here can proceed as planned."
154: 0x03FE [0x23] WAIT_FOR_DIALOG_INTERACTION
155: 0x03FF [0x01] GOTO 0x0415
156: 0x0402 [0x02] IF !(ExtData[1]->WorkLocal[3] == 3*) GOTO 0x0415
157: 0x040A [0x2B] Lamurara, C.C. (ID: 17171055/0x0106026F) [7433*]:
    → "I commend you on your expeditiousness. Thanks to you, the construction work on our provision storehouse here can proceed as planned."
158: 0x0411 [0x23] WAIT_FOR_DIALOG_INTERACTION
159: 0x0412 [0x01] GOTO 0x0415

SUBROUTINE_0415:
160: 0x0415 [0x1B] RETURN

SUBROUTINE_0416:
161: 0x0416 [0x02] IF !(ExtData[1]->WorkLocal[3] == 1*) GOTO 0x0429
162: 0x041E [0x2B] Caulaise, R.K. (ID: 17171053/0x0106026D) [7434*]:
    → "So you have something to aspire to, the quickest delivery thus far was made by %0. That indefatigable soldier traversed the same course as you in just $3 [hour/hours] ($4 [minute/minutes] and $5 [second/seconds] Earth time)."
163: 0x0425 [0x23] WAIT_FOR_DIALOG_INTERACTION
164: 0x0426 [0x01] GOTO 0x044F
165: 0x0429 [0x02] IF !(ExtData[1]->WorkLocal[3] == 2*) GOTO 0x043C
166: 0x0431 [0x2B] Marianne, I.M. (ID: 17171054/0x0106026E) [7434*]:
    → "So you have something to aspire to, the quickest delivery thus far was made by %0. That indefatigable soldier traversed the same course as you in just $3 [hour/hours] ($4 [minute/minutes] and $5 [second/seconds] Earth time)."
167: 0x0438 [0x23] WAIT_FOR_DIALOG_INTERACTION
168: 0x0439 [0x01] GOTO 0x044F
169: 0x043C [0x02] IF !(ExtData[1]->WorkLocal[3] == 3*) GOTO 0x044F
170: 0x0444 [0x2B] Lamurara, C.C. (ID: 17171055/0x0106026F) [7434*]:
    → "So you have something to aspire to, the quickest delivery thus far was made by %0. That indefatigable soldier traversed the same course as you in just $3 [hour/hours] ($4 [minute/minutes] and $5 [second/seconds] Earth time)."
171: 0x044B [0x23] WAIT_FOR_DIALOG_INTERACTION
172: 0x044C [0x01] GOTO 0x044F

SUBROUTINE_044F:
173: 0x044F [0x1B] RETURN

SUBROUTINE_0450:
174: 0x0450 [0x02] IF !(ExtData[1]->WorkLocal[3] == 1*) GOTO 0x0463
175: 0x0458 [0x2B] Caulaise, R.K. (ID: 17171053/0x0106026D) [7435*]:
    → "You're the current quickest delivery record holder, with a lightning-fast time of $3 [hour/hours] ($4 [minute/minutes] and $5 [second/seconds] Earth time). But that's no excuse to slack off, you hear?"
176: 0x045F [0x23] WAIT_FOR_DIALOG_INTERACTION
177: 0x0460 [0x01] GOTO 0x0489
178: 0x0463 [0x02] IF !(ExtData[1]->WorkLocal[3] == 2*) GOTO 0x0476
179: 0x046B [0x2B] Marianne, I.M. (ID: 17171054/0x0106026E) [7435*]:
    → "You're the current quickest delivery record holder, with a lightning-fast time of $3 [hour/hours] ($4 [minute/minutes] and $5 [second/seconds] Earth time). But that's no excuse to slack off, you hear?"
180: 0x0472 [0x23] WAIT_FOR_DIALOG_INTERACTION
181: 0x0473 [0x01] GOTO 0x0489
182: 0x0476 [0x02] IF !(ExtData[1]->WorkLocal[3] == 3*) GOTO 0x0489
183: 0x047E [0x2B] Lamurara, C.C. (ID: 17171055/0x0106026F) [7435*]:
    → "You're the current quickest delivery record holder, with a lightning-fast time of $3 [hour/hours] ($4 [minute/minutes] and $5 [second/seconds] Earth time). But that's no excuse to slack off, you hear?"
184: 0x0485 [0x23] WAIT_FOR_DIALOG_INTERACTION
185: 0x0486 [0x01] GOTO 0x0489

SUBROUTINE_0489:
186: 0x0489 [0x1B] RETURN

SUBROUTINE_048A:
187: 0x048A [0x02] IF !(ExtData[1]->WorkLocal[3] == 1*) GOTO 0x04A1
188: 0x0492 [0x6E] Caulaise, R.K. (ID: 17171053/0x0106026D) uses emote 2*
189: 0x0499 [0x99] Wait for Caulaise, R.K. (ID: 17171053/0x0106026D) animation to complete
190: 0x049E [0x01] GOTO 0x04CF
191: 0x04A1 [0x02] IF !(ExtData[1]->WorkLocal[3] == 2*) GOTO 0x04B8
192: 0x04A9 [0x6E] Marianne, I.M. (ID: 17171054/0x0106026E) uses emote 258*
193: 0x04B0 [0x99] Wait for Marianne, I.M. (ID: 17171054/0x0106026E) animation to complete
194: 0x04B5 [0x01] GOTO 0x04CF
195: 0x04B8 [0x02] IF !(ExtData[1]->WorkLocal[3] == 3*) GOTO 0x04CF
196: 0x04C0 [0x6E] Lamurara, C.C. (ID: 17171055/0x0106026F) uses emote 514*
197: 0x04C7 [0x99] Wait for Lamurara, C.C. (ID: 17171055/0x0106026F) animation to complete
198: 0x04CC [0x01] GOTO 0x04CF

SUBROUTINE_04CF:
199: 0x04CF [0x1B] RETURN

SUBROUTINE_04D0:
200: 0x04D0 [0x45] LOAD_SCHEDULED_TASK: Load scheduler "c096" with entities [LocalPlayer, LocalPlayer], work=[342*, 0*]
201: 0x04E1 [0x1B] RETURN

SUBROUTINE_04E2:
202: 0x04E2 [0x52] END_LOAD_SCHEDULER: End scheduler "c096" with entities [LocalPlayer, LocalPlayer], work=342*
203: 0x04F1 [0x1B] RETURN
```

### Event 65535.8

#### Metadata

| Field        | Value    |
|--------------|----------|
| Entrypoint   | 0x04F2   |
| Data Size    | 37 bytes |
| Instructions | 5        |

```
      00 01 02 03 04 05 06 07  08 09 0A 0B 0C 0D 0E 0F
      -- -- -- -- -- -- -- --  -- -- -- -- -- -- -- --
04F0:       03 04 00 07 7F 1A  86 05 66 05 00 F8 FF FF    ........f.....
0500: 7F F8 FF FF 7F 73 69 74  30 53 F8 FF FF 7F F8 FF  .....sit0S......
0510: FF 7F 73 69 74 30 00                              ..sit0.         
```

#### Opcodes

```
  0: 0x04F2 [0x03] ExtData[1]->WorkLocal[4] = Entity->Race
  1: 0x04F7 [0x1A] CALL_SUBROUTINE(address=0x0586)
  2: 0x04FA [0x66] LOAD_EXT_SCHEDULER_MAIN: Load scheduler "sit0" with entities [EventEntity, EventEntity], work=ExtData[1]->WorkLocal[5]
  3: 0x0509 [0x53] WAIT_SCHEDULER_TASK: Wait for scheduler "sit0" with entities [EventEntity, EventEntity]
  4: 0x0516 [0x00] END_REQSTACK()
```

### Event 65535.9

#### Metadata

| Field        | Value    |
|--------------|----------|
| Entrypoint   | 0x0517   |
| Data Size    | 37 bytes |
| Instructions | 5        |

```
      00 01 02 03 04 05 06 07  08 09 0A 0B 0C 0D 0E 0F
      -- -- -- -- -- -- -- --  -- -- -- -- -- -- -- --
0510:                      03  04 00 07 7F 1A 86 05 66         ........f
0520: 05 00 F8 FF FF 7F F8 FF  FF 7F 73 69 74 31 53 F8  ..........sit1S.
0530: FF FF 7F F8 FF FF 7F 73  69 74 31 00              .......sit1.    
```

#### Opcodes

```
  0: 0x0517 [0x03] ExtData[1]->WorkLocal[4] = Entity->Race
  1: 0x051C [0x1A] CALL_SUBROUTINE(address=0x0586)
  2: 0x051F [0x66] LOAD_EXT_SCHEDULER_MAIN: Load scheduler "sit1" with entities [EventEntity, EventEntity], work=ExtData[1]->WorkLocal[5]
  3: 0x052E [0x53] WAIT_SCHEDULER_TASK: Wait for scheduler "sit1" with entities [EventEntity, EventEntity]
  4: 0x053B [0x00] END_REQSTACK()
```

### Event 65535.10

#### Metadata

| Field        | Value    |
|--------------|----------|
| Entrypoint   | 0x053C   |
| Data Size    | 37 bytes |
| Instructions | 5        |

```
      00 01 02 03 04 05 06 07  08 09 0A 0B 0C 0D 0E 0F
      -- -- -- -- -- -- -- --  -- -- -- -- -- -- -- --
0530:                                      03 04 00 07              ....
0540: 7F 1A 86 05 66 05 00 F8  FF FF 7F F8 FF FF 7F 73  ....f..........s
0550: 68 61 30 53 F8 FF FF 7F  F8 FF FF 7F 73 68 61 30  ha0S........sha0
0560: 00                                                .               
```

#### Opcodes

```
  0: 0x053C [0x03] ExtData[1]->WorkLocal[4] = Entity->Race
  1: 0x0541 [0x1A] CALL_SUBROUTINE(address=0x0586)
  2: 0x0544 [0x66] LOAD_EXT_SCHEDULER_MAIN: Load scheduler "sha0" with entities [EventEntity, EventEntity], work=ExtData[1]->WorkLocal[5]
  3: 0x0553 [0x53] WAIT_SCHEDULER_TASK: Wait for scheduler "sha0" with entities [EventEntity, EventEntity]
  4: 0x0560 [0x00] END_REQSTACK()
```

### Event 65535.11

#### Metadata

| Field        | Value     |
|--------------|-----------|
| Entrypoint   | 0x0561    |
| Data Size    | 185 bytes |
| Instructions | 13        |

```
      00 01 02 03 04 05 06 07  08 09 0A 0B 0C 0D 0E 0F
      -- -- -- -- -- -- -- --  -- -- -- -- -- -- -- --
0560:    03 04 00 07 7F 1A 86  05 66 05 00 F8 FF FF 7F   ........f......
0570: F8 FF FF 7F 73 68 61 31  53 F8 FF FF 7F F8 FF FF  ....sha1S.......
0580: 7F 73 68 61 31 00 03 05  00 04 00 02 05 00 24 80  .sha1.........$.
0590: 05 9B 05 08 05 00 03 80  01 A0 05 08 05 00 15 80  ................
05A0: 14 05 00 25 80 07 05 00  26 80 1B 03 05 00 04 00  ...%....&.......
05B0: 02 05 00 24 80 05 C0 05  08 05 00 03 80 01 C5 05  ...$............
05C0: 08 05 00 15 80 14 05 00  25 80 07 05 00 27 80 1B  ........%....'..
05D0: 03 05 00 04 00 02 05 00  24 80 05 E5 05 08 05 00  ........$.......
05E0: 03 80 01 EA 05 08 05 00  15 80 14 05 00 25 80 07  .............%..
05F0: 05 00 28 80 1B 03 05 00  04 00 02 05 00 24 80 05  ..(..........$..
0600: 0A 06 08 05 00 03 80 01  0F 06 08 05 00 15 80 14  ................
0610: 05 00 25 80 07 05 00 29  80 1B                    ..%....)..      
```

#### Opcodes

```
  0: 0x0561 [0x03] ExtData[1]->WorkLocal[4] = Entity->Race
  1: 0x0566 [0x1A] CALL_SUBROUTINE(address=0x0586)
  2: 0x0569 [0x66] LOAD_EXT_SCHEDULER_MAIN: Load scheduler "sha1" with entities [EventEntity, EventEntity], work=ExtData[1]->WorkLocal[5]
  3: 0x0578 [0x53] WAIT_SCHEDULER_TASK: Wait for scheduler "sha1" with entities [EventEntity, EventEntity]
  4: 0x0585 [0x00] END_REQSTACK()

SUBROUTINE_0586:
  5: 0x0586 [0x03] ExtData[1]->WorkLocal[5] = ExtData[1]->WorkLocal[4]
  6: 0x058B [0x02] IF !(ExtData[1]->WorkLocal[5] > 5*) GOTO 0x059B
  7: 0x0593 [0x08] ExtData[1]->WorkLocal[5] -= 1*
  8: 0x0598 [0x01] GOTO 0x05A0
  9: 0x059B [0x08] ExtData[1]->WorkLocal[5] -= 2*

SUBROUTINE_05A0:
 10: 0x05A0 [0x14] ExtData[1]->WorkLocal[5] *= 10*
 11: 0x05A5 [0x07] ExtData[1]->WorkLocal[5] += 9*
 12: 0x05AA [0x1B] RETURN
```

#### Data or dead code:

```
# Dead code (unreachable instructions):
     0x05AB [0x03] ExtData[1]->WorkLocal[5] = ExtData[1]->WorkLocal[4]
     0x05B0 [0x02] IF !(ExtData[1]->WorkLocal[5] > 5*) GOTO 0x05C0
     0x05B8 [0x08] ExtData[1]->WorkLocal[5] -= 1*
     0x05BD [0x01] GOTO 0x05C5
     0x05C0 [0x08] ExtData[1]->WorkLocal[5] -= 2*
     0x05C5 [0x14] ExtData[1]->WorkLocal[5] *= 10*
     0x05CA [0x07] ExtData[1]->WorkLocal[5] += 70*
     0x05CF [0x1B] RETURN
     0x05D0 [0x03] ExtData[1]->WorkLocal[5] = ExtData[1]->WorkLocal[4]
     0x05D5 [0x02] IF !(ExtData[1]->WorkLocal[5] > 5*) GOTO 0x05E5
     0x05DD [0x08] ExtData[1]->WorkLocal[5] -= 1*
     0x05E2 [0x01] GOTO 0x05EA
     0x05E5 [0x08] ExtData[1]->WorkLocal[5] -= 2*
     0x05EA [0x14] ExtData[1]->WorkLocal[5] *= 10*
     0x05EF [0x07] ExtData[1]->WorkLocal[5] += 140*
     0x05F4 [0x1B] RETURN
     0x05F5 [0x03] ExtData[1]->WorkLocal[5] = ExtData[1]->WorkLocal[4]
     0x05FA [0x02] IF !(ExtData[1]->WorkLocal[5] > 5*) GOTO 0x060A
     0x0602 [0x08] ExtData[1]->WorkLocal[5] -= 1*
     0x0607 [0x01] GOTO 0x060F
     0x060A [0x08] ExtData[1]->WorkLocal[5] -= 2*
     0x060F [0x14] ExtData[1]->WorkLocal[5] *= 10*
     0x0614 [0x07] ExtData[1]->WorkLocal[5] += 210*
     0x0619 [0x1B] RETURN
```

### Event 65535.12

#### Metadata

| Field        | Value    |
|--------------|----------|
| Entrypoint   | 0x061A   |
| Data Size    | 24 bytes |
| Instructions | 4        |

```
      00 01 02 03 04 05 06 07  08 09 0A 0B 0C 0D 0E 0F
      -- -- -- -- -- -- -- --  -- -- -- -- -- -- -- --
0610:                                03 04 00 07 7F 1A            ......
0620: 86 05 66 05 00 F8 FF FF  7F F8 FF FF 7F 74 6C 6B  ..f..........tlk
0630: 30 00                                             0.              
```

#### Opcodes

```
  0: 0x061A [0x03] ExtData[1]->WorkLocal[4] = Entity->Race
  1: 0x061F [0x1A] CALL_SUBROUTINE(address=0x0586)
  2: 0x0622 [0x66] LOAD_EXT_SCHEDULER_MAIN: Load scheduler "tlk0" with entities [EventEntity, EventEntity], work=ExtData[1]->WorkLocal[5]
  3: 0x0631 [0x00] END_REQSTACK()
```

### Event 65535.13

#### Metadata

| Field        | Value    |
|--------------|----------|
| Entrypoint   | 0x0632   |
| Data Size    | 24 bytes |
| Instructions | 4        |

```
      00 01 02 03 04 05 06 07  08 09 0A 0B 0C 0D 0E 0F
      -- -- -- -- -- -- -- --  -- -- -- -- -- -- -- --
0630:       03 04 00 07 7F 1A  86 05 66 05 00 F8 FF FF    ........f.....
0640: 7F F8 FF FF 7F 74 6C 6B  31 00                    .....tlk1.      
```

#### Opcodes

```
  0: 0x0632 [0x03] ExtData[1]->WorkLocal[4] = Entity->Race
  1: 0x0637 [0x1A] CALL_SUBROUTINE(address=0x0586)
  2: 0x063A [0x66] LOAD_EXT_SCHEDULER_MAIN: Load scheduler "tlk1" with entities [EventEntity, EventEntity], work=ExtData[1]->WorkLocal[5]
  3: 0x0649 [0x00] END_REQSTACK()
```

### Event 65535.14

#### Metadata

| Field        | Value    |
|--------------|----------|
| Entrypoint   | 0x064A   |
| Data Size    | 38 bytes |
| Instructions | 5        |

```
      00 01 02 03 04 05 06 07  08 09 0A 0B 0C 0D 0E 0F
      -- -- -- -- -- -- -- --  -- -- -- -- -- -- -- --
0640:                                22 00 2F 00 F8 FF            "./...
0650: FF 7F B6 0B 2A 80 2B 80  2C 80 2D 80 2E 80 2E 80  ....*.+.,.-.....
0660: 2E 80 06 80 2F 80 6C F8  FF FF 7F 30 80 03 80 00  ..../.l....0....
```

#### Opcodes

```
  0: 0x064A [0x22] ENTITY_HIDE_FLAG(enabled=0x00)
  1: 0x064C [0x2F] EventEntity->Render.Flags0 &= ~0x80000 // Bit 19
  2: 0x0652 [0xB6] ENTITY_APPEARANCE_HANDLER(case=Full entity look, race=8*, hair=7*, head=145*, body=79*, hands=76*, legs=76*, feet=76*, main=201*, sub=24*)
  3: 0x0666 [0x6C] FADE_ENTITY_COLOR(entity_id=EventEntity, end_alpha=32*, fade_time=1*)
  4: 0x066F [0x00] END_REQSTACK()
```

### Event 65535.15

#### Metadata

| Field        | Value    |
|--------------|----------|
| Entrypoint   | 0x0670   |
| Data Size    | 38 bytes |
| Instructions | 5        |

```
      00 01 02 03 04 05 06 07  08 09 0A 0B 0C 0D 0E 0F
      -- -- -- -- -- -- -- --  -- -- -- -- -- -- -- --
0670: 22 00 2F 00 F8 FF FF 7F  B6 0B 2A 80 2B 80 2C 80  "./.......*.+.,.
0680: 2D 80 2E 80 2E 80 2E 80  06 80 2F 80 6C F8 FF FF  -........./.l...
0690: 7F 31 80 03 80 00                                 .1....          
```

#### Opcodes

```
  0: 0x0670 [0x22] ENTITY_HIDE_FLAG(enabled=0x00)
  1: 0x0672 [0x2F] EventEntity->Render.Flags0 &= ~0x80000 // Bit 19
  2: 0x0678 [0xB6] ENTITY_APPEARANCE_HANDLER(case=Full entity look, race=8*, hair=7*, head=145*, body=79*, hands=76*, legs=76*, feet=76*, main=201*, sub=24*)
  3: 0x068C [0x6C] FADE_ENTITY_COLOR(entity_id=EventEntity, end_alpha=48*, fade_time=1*)
  4: 0x0695 [0x00] END_REQSTACK()
```

### Event 65535.16

#### Metadata

| Field        | Value    |
|--------------|----------|
| Entrypoint   | 0x0696   |
| Data Size    | 38 bytes |
| Instructions | 5        |

```
      00 01 02 03 04 05 06 07  08 09 0A 0B 0C 0D 0E 0F
      -- -- -- -- -- -- -- --  -- -- -- -- -- -- -- --
0690:                   22 00  2F 00 F8 FF FF 7F B6 0B        "./.......
06A0: 2A 80 2B 80 2C 80 2D 80  2E 80 2E 80 2E 80 06 80  *.+.,.-.........
06B0: 2F 80 6C F8 FF FF 7F 32  80 03 80 00              /.l....2....    
```

#### Opcodes

```
  0: 0x0696 [0x22] ENTITY_HIDE_FLAG(enabled=0x00)
  1: 0x0698 [0x2F] EventEntity->Render.Flags0 &= ~0x80000 // Bit 19
  2: 0x069E [0xB6] ENTITY_APPEARANCE_HANDLER(case=Full entity look, race=8*, hair=7*, head=145*, body=79*, hands=76*, legs=76*, feet=76*, main=201*, sub=24*)
  3: 0x06B2 [0x6C] FADE_ENTITY_COLOR(entity_id=EventEntity, end_alpha=64*, fade_time=1*)
  4: 0x06BB [0x00] END_REQSTACK()
```

### Event 65535.17

#### Metadata

| Field        | Value    |
|--------------|----------|
| Entrypoint   | 0x06BC   |
| Data Size    | 23 bytes |
| Instructions | 7        |

```
      00 01 02 03 04 05 06 07  08 09 0A 0B 0C 0D 0E 0F
      -- -- -- -- -- -- -- --  -- -- -- -- -- -- -- --
06B0:                                      1C 04 80 7B              ...{
06C0: F8 FF FF 7F 32 07 80 1F  00 33 80 34 80 35 80 1F  ....2....3.4.5..
06D0: 01 6F 00                                          .o.             
```

#### Opcodes

```
  0: 0x06BC [0x1C] WAIT(90* ticks)
  1: 0x06BF [0x7B] EventEntity stops talking
  2: 0x06C4 [0x32] ExtData[1]->MainSpeed = 40* * 0.1
  3: 0x06C7 [0x1F] MOVE_ENTITY: EventEntity moves to X=-107.088*, Z=1.863*, Y=-79.949*
  4: 0x06CF [0x1F] MOVE_ENTITY: Update entity position (mode=1)
  5: 0x06D1 [0x6F] WAIT_FRAME_DELAY: Yield until WaitTime reaches zero
  6: 0x06D2 [0x00] END_REQSTACK()
```

### Event 65535.18

#### Metadata

| Field        | Value    |
|--------------|----------|
| Entrypoint   | 0x06D3   |
| Data Size    | 15 bytes |
| Instructions | 5        |

```
      00 01 02 03 04 05 06 07  08 09 0A 0B 0C 0D 0E 0F
      -- -- -- -- -- -- -- --  -- -- -- -- -- -- -- --
06D0:          32 36 80 1F 00  37 80 38 80 39 80 1F 01     26...7.8.9...
06E0: 6F 00                                             o.              
```

#### Opcodes

```
  0: 0x06D3 [0x32] ExtData[1]->MainSpeed = 38* * 0.1
  1: 0x06D6 [0x1F] MOVE_ENTITY: EventEntity moves to X=-130.705*, Z=-99.806*, Y=-75.840*
  2: 0x06DE [0x1F] MOVE_ENTITY: Update entity position (mode=1)
  3: 0x06E0 [0x6F] WAIT_FRAME_DELAY: Yield until WaitTime reaches zero
  4: 0x06E1 [0x00] END_REQSTACK()
```

### Event 65535.19

#### Metadata

| Field        | Value    |
|--------------|----------|
| Entrypoint   | 0x06E2   |
| Data Size    | 24 bytes |
| Instructions | 4        |

```
      00 01 02 03 04 05 06 07  08 09 0A 0B 0C 0D 0E 0F
      -- -- -- -- -- -- -- --  -- -- -- -- -- -- -- --
06E0:       03 04 00 07 7F 1A  AB 05 66 05 00 F8 FF FF    ........f.....
06F0: 7F F8 FF FF 7F 65 63 30  30 00                    .....ec00.      
```

#### Opcodes

```
  0: 0x06E2 [0x03] ExtData[1]->WorkLocal[4] = Entity->Race
  1: 0x06E7 [0x1A] CALL_SUBROUTINE(address=0x05AB)
  2: 0x06EA [0x66] LOAD_EXT_SCHEDULER_MAIN: Load scheduler "ec00" with entities [EventEntity, EventEntity], work=ExtData[1]->WorkLocal[5]
  3: 0x06F9 [0x00] END_REQSTACK()
```

### Event 65535.20

#### Metadata

| Field        | Value    |
|--------------|----------|
| Entrypoint   | 0x06FA   |
| Data Size    | 38 bytes |
| Instructions | 10       |

```
      00 01 02 03 04 05 06 07  08 09 0A 0B 0C 0D 0E 0F
      -- -- -- -- -- -- -- --  -- -- -- -- -- -- -- --
06F0:                                1C 3A 80 32 3B 80            .:.2;.
0700: 1F 00 3C 80 3D 80 3E 80  1F 01 1F 00 3F 80 40 80  ..<.=.>.....?.@.
0710: 41 80 1F 01 1F 00 42 80  43 80 44 80 1F 01 6F 00  A.....B.C.D...o.
```

#### Opcodes

```
  0: 0x06FA [0x1C] WAIT(45* ticks)
  1: 0x06FD [0x32] ExtData[1]->MainSpeed = 41* * 0.1
  2: 0x0700 [0x1F] MOVE_ENTITY: EventEntity moves to X=-144.494*, Z=-94.326*, Y=-76.000*
  3: 0x0708 [0x1F] MOVE_ENTITY: Update entity position (mode=1)
  4: 0x070A [0x1F] MOVE_ENTITY: EventEntity moves to X=-146.583*, Z=-92.811*, Y=-75.794*
  5: 0x0712 [0x1F] MOVE_ENTITY: Update entity position (mode=1)
  6: 0x0714 [0x1F] MOVE_ENTITY: EventEntity moves to X=-153.848*, Z=-92.953*, Y=-75.860*
  7: 0x071C [0x1F] MOVE_ENTITY: Update entity position (mode=1)
  8: 0x071E [0x6F] WAIT_FRAME_DELAY: Yield until WaitTime reaches zero
  9: 0x071F [0x00] END_REQSTACK()
```

### Event 65535.21

#### Metadata

| Field        | Value    |
|--------------|----------|
| Entrypoint   | 0x0720   |
| Data Size    | 15 bytes |
| Instructions | 5        |

```
      00 01 02 03 04 05 06 07  08 09 0A 0B 0C 0D 0E 0F
      -- -- -- -- -- -- -- --  -- -- -- -- -- -- -- --
0720: 32 36 80 1F 00 45 80 46  80 47 80 1F 01 6F 00     26...E.F.G...o. 
```

#### Opcodes

```
  0: 0x0720 [0x32] ExtData[1]->MainSpeed = 38* * 0.1
  1: 0x0723 [0x1F] MOVE_ENTITY: EventEntity moves to X=-134.229*, Z=-101.313*, Y=-75.999*
  2: 0x072B [0x1F] MOVE_ENTITY: Update entity position (mode=1)
  3: 0x072D [0x6F] WAIT_FRAME_DELAY: Yield until WaitTime reaches zero
  4: 0x072E [0x00] END_REQSTACK()
```

### Event 65535.22

#### Metadata

| Field        | Value    |
|--------------|----------|
| Entrypoint   | 0x072F   |
| Data Size    | 43 bytes |
| Instructions | 6        |

```
      00 01 02 03 04 05 06 07  08 09 0A 0B 0C 0D 0E 0F
      -- -- -- -- -- -- -- --  -- -- -- -- -- -- -- --
0720:                                               C4                 .
0730: 01 02 80 F0 FF FF 7F EA  02 06 01 1C 3A 80 C4 01  ............:...
0740: 02 80 F0 FF FF 7F EA 02  06 01 1C 0B 80 C4 01 02  ................
0750: 80 F0 FF FF 7F EA 02 06  01 00                    ..........      
```

#### Opcodes

```
  0: 0x072F [0xC4] SCHEDULE_MAGIC_CASTING_ALT (arg=17): LocalPlayer casts magic 0* on 10 (ID: 17171178/0x010602EA)
  1: 0x073B [0x1C] WAIT(45* ticks)
  2: 0x073E [0xC4] SCHEDULE_MAGIC_CASTING_ALT (arg=17): LocalPlayer casts magic 0* on 10 (ID: 17171178/0x010602EA)
  3: 0x074A [0x1C] WAIT(30* ticks)
  4: 0x074D [0xC4] SCHEDULE_MAGIC_CASTING_ALT (arg=17): LocalPlayer casts magic 0* on 10 (ID: 17171178/0x010602EA)
  5: 0x0759 [0x00] END_REQSTACK()
```

### Event 65535.23

#### Metadata

| Field        | Value   |
|--------------|---------|
| Entrypoint   | 0x075A  |
| Data Size    | 9 bytes |
| Instructions | 3       |

```
      00 01 02 03 04 05 06 07  08 09 0A 0B 0C 0D 0E 0F
      -- -- -- -- -- -- -- --  -- -- -- -- -- -- -- --
0750:                                1C 48 80 1E 23 03            .H..#.
0760: 06 01 00                                          ...             
```

#### Opcodes

```
  0: 0x075A [0x1C] WAIT(120* ticks)
  1: 0x075D [0x1E] EventEntity looks at Lehko Habhoka (ID: 17171235/0x01060323) and starts talking
  2: 0x0762 [0x00] END_REQSTACK()
```

### Event 65535.24

#### Metadata

| Field        | Value    |
|--------------|----------|
| Entrypoint   | 0x0763   |
| Data Size    | 14 bytes |
| Instructions | 4        |

```
      00 01 02 03 04 05 06 07  08 09 0A 0B 0C 0D 0E 0F
      -- -- -- -- -- -- -- --  -- -- -- -- -- -- -- --
0760:          32 12 80 1F 00  49 80 4A 80 4B 80 1F 01     2....I.J.K...
0770: 00                                                .               
```

#### Opcodes

```
  0: 0x0763 [0x32] ExtData[1]->MainSpeed = 13* * 0.1
  1: 0x0766 [0x1F] MOVE_ENTITY: EventEntity moves to X=-13.694*, Z=-80.121*, Y=-67.999*
  2: 0x076E [0x1F] MOVE_ENTITY: Update entity position (mode=1)
  3: 0x0770 [0x00] END_REQSTACK()
```

### Event 65535.25

#### Metadata

| Field        | Value    |
|--------------|----------|
| Entrypoint   | 0x0771   |
| Data Size    | 35 bytes |
| Instructions | 9        |

```
      00 01 02 03 04 05 06 07  08 09 0A 0B 0C 0D 0E 0F
      -- -- -- -- -- -- -- --  -- -- -- -- -- -- -- --
0770:    32 3B 80 1F 00 3C 80  3D 80 3E 80 1F 01 1F 00   2;...<.=.>.....
0780: 3F 80 40 80 41 80 1F 01  1F 00 42 80 43 80 44 80  ?.@.A.....B.C.D.
0790: 1F 01 6F 00                                       ..o.            
```

#### Opcodes

```
  0: 0x0771 [0x32] ExtData[1]->MainSpeed = 41* * 0.1
  1: 0x0774 [0x1F] MOVE_ENTITY: EventEntity moves to X=-144.494*, Z=-94.326*, Y=-76.000*
  2: 0x077C [0x1F] MOVE_ENTITY: Update entity position (mode=1)
  3: 0x077E [0x1F] MOVE_ENTITY: EventEntity moves to X=-146.583*, Z=-92.811*, Y=-75.794*
  4: 0x0786 [0x1F] MOVE_ENTITY: Update entity position (mode=1)
  5: 0x0788 [0x1F] MOVE_ENTITY: EventEntity moves to X=-153.848*, Z=-92.953*, Y=-75.860*
  6: 0x0790 [0x1F] MOVE_ENTITY: Update entity position (mode=1)
  7: 0x0792 [0x6F] WAIT_FRAME_DELAY: Yield until WaitTime reaches zero
  8: 0x0793 [0x00] END_REQSTACK()
```

### Event 65535.26

#### Metadata

| Field        | Value    |
|--------------|----------|
| Entrypoint   | 0x0794   |
| Data Size    | 19 bytes |
| Instructions | 5        |

```
      00 01 02 03 04 05 06 07  08 09 0A 0B 0C 0D 0E 0F
      -- -- -- -- -- -- -- --  -- -- -- -- -- -- -- --
0790:             32 4C 80 1F  00 4D 80 4E 80 4F 80 1F      2L...M.N.O..
07A0: 01 1E 5A 03 06 01 00                              ..Z....         
```

#### Opcodes

```
  0: 0x0794 [0x32] ExtData[1]->MainSpeed = 35* * 0.1
  1: 0x0797 [0x1F] MOVE_ENTITY: EventEntity moves to X=-425.323*, Z=346.128*, Y=-27.943*
  2: 0x079F [0x1F] MOVE_ENTITY: Update entity position (mode=1)
  3: 0x07A1 [0x1E] EventEntity looks at Syu Befrathi (ID: 17171290/0x0106035A) and starts talking
  4: 0x07A6 [0x00] END_REQSTACK()
```

### Event 65535.27

#### Metadata

| Field        | Value    |
|--------------|----------|
| Entrypoint   | 0x07A7   |
| Data Size    | 16 bytes |
| Instructions | 3        |

```
      00 01 02 03 04 05 06 07  08 09 0A 0B 0C 0D 0E 0F
      -- -- -- -- -- -- -- --  -- -- -- -- -- -- -- --
07A0:                      6C  F0 FF FF 7F 02 80 03 80         l........
07B0: 92 01 F0 FF FF 7F 00                              .......         
```

#### Opcodes

```
  0: 0x07A7 [0x6C] FADE_ENTITY_COLOR(entity_id=LocalPlayer, end_alpha=0*, fade_time=1*)
  1: 0x07B0 [0x92] LocalPlayer->Render.Flags3 ^= 0x01
  2: 0x07B6 [0x00] END_REQSTACK()
```

### Event 65535.28

#### Metadata

| Field        | Value    |
|--------------|----------|
| Entrypoint   | 0x07B7   |
| Data Size    | 16 bytes |
| Instructions | 3        |

```
      00 01 02 03 04 05 06 07  08 09 0A 0B 0C 0D 0E 0F
      -- -- -- -- -- -- -- --  -- -- -- -- -- -- -- --
07B0:                      6C  F0 FF FF 7F 50 80 03 80         l....P...
07C0: 92 00 F0 FF FF 7F 00                              .......         
```

#### Opcodes

```
  0: 0x07B7 [0x6C] FADE_ENTITY_COLOR(entity_id=LocalPlayer, end_alpha=128*, fade_time=1*)
  1: 0x07C0 [0x92] LocalPlayer->Render.Flags3 = Flags3  // No change (flag=0)
  2: 0x07C6 [0x00] END_REQSTACK()
```

### Event 65535.29

#### Metadata

| Field        | Value    |
|--------------|----------|
| Entrypoint   | 0x07C7   |
| Data Size    | 27 bytes |
| Instructions | 5        |

```
      00 01 02 03 04 05 06 07  08 09 0A 0B 0C 0D 0E 0F
      -- -- -- -- -- -- -- --  -- -- -- -- -- -- -- --
07C0:                      03  04 00 07 7F 1A AB 05 0B         .........
07D0: 05 00 66 05 00 F8 FF FF  7F F8 FF FF 7F 70 61 73  ..f..........pas
07E0: 30 00                                             0.              
```

#### Opcodes

```
  0: 0x07C7 [0x03] ExtData[1]->WorkLocal[4] = Entity->Race
  1: 0x07CC [0x1A] CALL_SUBROUTINE(address=0x05AB)
  2: 0x07CF [0x0B] ExtData[1]->WorkLocal[5]++
  3: 0x07D2 [0x66] LOAD_EXT_SCHEDULER_MAIN: Load scheduler "pas0" with entities [EventEntity, EventEntity], work=ExtData[1]->WorkLocal[5]
  4: 0x07E1 [0x00] END_REQSTACK()
```

### Event 65535.30

#### Metadata

| Field        | Value    |
|--------------|----------|
| Entrypoint   | 0x07E2   |
| Data Size    | 38 bytes |
| Instructions | 5        |

```
      00 01 02 03 04 05 06 07  08 09 0A 0B 0C 0D 0E 0F
      -- -- -- -- -- -- -- --  -- -- -- -- -- -- -- --
07E0:       22 00 2F 00 F8 FF  FF 7F B6 0B 2A 80 02 80    "./.......*...
07F0: 2C 80 2D 80 2E 80 2E 80  2E 80 06 80 2F 80 6C F8  ,.-........./.l.
0800: FF FF 7F 30 80 03 80 00                           ...0....        
```

#### Opcodes

```
  0: 0x07E2 [0x22] ENTITY_HIDE_FLAG(enabled=0x00)
  1: 0x07E4 [0x2F] EventEntity->Render.Flags0 &= ~0x80000 // Bit 19
  2: 0x07EA [0xB6] ENTITY_APPEARANCE_HANDLER(case=Full entity look, race=8*, hair=0*, head=145*, body=79*, hands=76*, legs=76*, feet=76*, main=201*, sub=24*)
  3: 0x07FE [0x6C] FADE_ENTITY_COLOR(entity_id=EventEntity, end_alpha=32*, fade_time=1*)
  4: 0x0807 [0x00] END_REQSTACK()
```

### Event 65535.31

#### Metadata

| Field        | Value    |
|--------------|----------|
| Entrypoint   | 0x0808   |
| Data Size    | 38 bytes |
| Instructions | 5        |

```
      00 01 02 03 04 05 06 07  08 09 0A 0B 0C 0D 0E 0F
      -- -- -- -- -- -- -- --  -- -- -- -- -- -- -- --
0800:                          22 00 2F 00 F8 FF FF 7F          "./.....
0810: B6 0B 2B 80 02 80 2C 80  2D 80 2E 80 2E 80 2E 80  ..+...,.-.......
0820: 06 80 2F 80 6C F8 FF FF  7F 31 80 03 80 00        ../.l....1....  
```

#### Opcodes

```
  0: 0x0808 [0x22] ENTITY_HIDE_FLAG(enabled=0x00)
  1: 0x080A [0x2F] EventEntity->Render.Flags0 &= ~0x80000 // Bit 19
  2: 0x0810 [0xB6] ENTITY_APPEARANCE_HANDLER(case=Full entity look, race=7*, hair=0*, head=145*, body=79*, hands=76*, legs=76*, feet=76*, main=201*, sub=24*)
  3: 0x0824 [0x6C] FADE_ENTITY_COLOR(entity_id=EventEntity, end_alpha=48*, fade_time=1*)
  4: 0x082D [0x00] END_REQSTACK()
```

### Event 65535.32

#### Metadata

| Field        | Value    |
|--------------|----------|
| Entrypoint   | 0x082E   |
| Data Size    | 38 bytes |
| Instructions | 5        |

```
      00 01 02 03 04 05 06 07  08 09 0A 0B 0C 0D 0E 0F
      -- -- -- -- -- -- -- --  -- -- -- -- -- -- -- --
0820:                                            22 00                ".
0830: 2F 00 F8 FF FF 7F B6 0B  24 80 02 80 2C 80 2D 80  /.......$...,.-.
0840: 2E 80 2E 80 2E 80 06 80  2F 80 6C F8 FF FF 7F 32  ......../.l....2
0850: 80 03 80 00                                       ....            
```

#### Opcodes

```
  0: 0x082E [0x22] ENTITY_HIDE_FLAG(enabled=0x00)
  1: 0x0830 [0x2F] EventEntity->Render.Flags0 &= ~0x80000 // Bit 19
  2: 0x0836 [0xB6] ENTITY_APPEARANCE_HANDLER(case=Full entity look, race=5*, hair=0*, head=145*, body=79*, hands=76*, legs=76*, feet=76*, main=201*, sub=24*)
  3: 0x084A [0x6C] FADE_ENTITY_COLOR(entity_id=EventEntity, end_alpha=64*, fade_time=1*)
  4: 0x0853 [0x00] END_REQSTACK()
```
