# 17248886 - Moogle

## Common Data

| Field            | Value                       |
|------------------|-----------------------------|
| Zone             | West Sarutabaruta (ID: 115) |
| Block Size       | 2080 bytes                  |
| Total Events     | 6                           |
| References Count | 71                          |

## List of Events

| Event ID              | Entrypoint   |   Size |   Instructions |
|-----------------------|--------------|--------|----------------|
| [65535](#event-65535) | 0x0000       |      1 |              1 |
| [32707](#event-32707) | 0x0001       |    127 |             42 |
| [32708](#event-32708) | 0x0080       |     77 |             23 |
| [32709](#event-32709) | 0x00CD       |   1527 |            286 |
| [32710](#event-32710) | 0x06C4       |     20 |             10 |
| [81](#event-81)       | 0x06D8       |      1 |              1 |

## DAT References (imed_data)

|   Index | Hex Value   |   Dec Value |
|---------|-------------|-------------|
|       0 | 0x0000      |           0 |
|       1 | 0x1F9D      |        8093 |
|       2 | 0x1F9E      |        8094 |
|       3 | 0x1F9F      |        8095 |
|       4 | 0x0001      |           1 |
|       5 | 0x1FA1      |        8097 |
|       6 | 0x1FA2      |        8098 |
|       7 | 0x1FA3      |        8099 |
|       8 | 0x1FA4      |        8100 |
|       9 | 0x1FA5      |        8101 |
|      10 | 0x1FA6      |        8102 |
|      11 | 0x1FB0      |        8112 |
|      12 | 0x1FB1      |        8113 |
|      13 | 0x1FA0      |        8096 |
|      14 | 0x0004      |           4 |
|      15 | 0x1FD4      |        8148 |
|      16 | 0x1FA7      |        8103 |
|      17 | 0x0002      |           2 |
|      18 | 0x1FA8      |        8104 |
|      19 | 0x1FA9      |        8105 |
|      20 | 0x1FAA      |        8106 |
|      21 | 0x1FAB      |        8107 |
|      22 | 0x0007      |           7 |
|      23 | 0x003C      |          60 |
|      24 | 0x1388      |        5000 |
|      25 | 0x0078      |         120 |
|      26 | 0x1FBB      |        8123 |
|      27 | 0x1FBC      |        8124 |
|      28 | 0x1FBD      |        8125 |
|      29 | 0x1FB9      |        8121 |
|      30 | 0x005A      |          90 |
|      31 | 0x1FB2      |        8114 |
|      32 | 0x1FB3      |        8115 |
|      33 | 0x1FB4      |        8116 |
|      34 | 0x0190      |         400 |
|      35 | 0x1FB5      |        8117 |
|      36 | 0x1FB6      |        8118 |
|      37 | 0x0320      |         800 |
|      38 | 0x1FB7      |        8119 |
|      39 | 0x1FB8      |        8120 |
|      40 | 0x1FBA      |        8122 |
|      41 | 0x0153      |         339 |
|      42 | 0x00B4      |         180 |
|      43 | 0x0003      |           3 |
|      44 | 0x000F      |          15 |
|      45 | 0x1FBE      |        8126 |
|      46 | 0x1FBF      |        8127 |
|      47 | 0x1FC0      |        8128 |
|      48 | 0x001E      |          30 |
|      49 | 0x1FC1      |        8129 |
|      50 | 0x1FC2      |        8130 |
|      51 | 0x1FCA      |        8138 |
|      52 | 0x1FCB      |        8139 |
|      53 | 0x1FCC      |        8140 |
|      54 | 0x1FC3      |        8131 |
|      55 | 0x1FC4      |        8132 |
|      56 | 0x1FC5      |        8133 |
|      57 | 0x1FC6      |        8134 |
|      58 | 0x1FC7      |        8135 |
|      59 | 0x1FC8      |        8136 |
|      60 | 0x1FC9      |        8137 |
|      61 | 0x1FCD      |        8141 |
|      62 | 0x1FCE      |        8142 |
|      63 | 0x0089      |         137 |
|      64 | 0x0005      |           5 |
|      65 | 0x1FCF      |        8143 |
|      66 | 0x1FD0      |        8144 |
|      67 | 0x1FAC      |        8108 |
|      68 | 0x1FAD      |        8109 |
|      69 | 0x1FAE      |        8110 |
|      70 | 0x1FAF      |        8111 |

## String References

- **8093**: There's big trouble, kupo! Our most reliable moogle intelligence reports that an odious one-eyed demon known as a Pyracmon is using the Harvest Festival masquerade as a cover and trying to infiltrate the city even as we speak!
- **8094**: We've been trying to warn people, but the bigwigs and guardsmen won't even give us poor little moogles the time of day. But you believe us...don't you, kind adventurer?
- **8095**: Help a moogle in need? [But of course!/I think I'll pass.]
- **8096**: <Sigh> And here I had a devilishly delightful Harvest Festival costume handmade just for you... Oh well, looks like it's going back in storage until next year, kupo.
- **8097**: Splendid, kupo! The first thing you'll need to do is eliminate the Pyracmon's malevolent minions, the wraith bats!
- **8098**: These dastardly critters attacked us and sucked the moogle magic right out of us, kupo! Without it, even the sharpest steel won't so much as scratch the Pyracmon!
- **8099**: For each bat you banish, we'll recover some of our magical powers, so lay waste to as many flying foes as you can muster!
- **8100**: Report back here after that, and we'll channel that magic and whip up an incantation that will allow you to vanquish the Pyracmon!
- **8101**: In the meantime, I'll use the meager remains of our magic to enchant you with a spell to aid in your battle against the wraith bats, kupo.
- **8102**: There you go! Now have at those winged vermin!
- **8103**: Back to help us rid the land of the vile Pyracmon?
- **8104**: Need help with anything? Just say the word, kupo!
- **8105**: Ask the moogle for help? [I'm fine, thanks./I'm ready to take on the Pyracmon./I give up.]
- **8106**: Wow, looks like you managed to recover oodles of magic from those bats. Oodles, kupo! This should make for a potent incantation indeed!
- **8107**: Mind you, this enchantment won't last forever; if it runs out, you'll need to nab some more magic from the bats again. Now go send that ghastly Pyracmon back to the foul depths whence it came!
- **8108**: Well, I'm sure a mighty adventurer like you has better things to do than help a poor little Moogle, kupo... Still, the Pyracmon won't rest until he's carried out his nefarious deeds, so do come back if you have a change of heart!
- **8109**: Wow, you made mincemeat out of that Pyracmon! Just watching the battle sent chills up my little wings, kupo! You're the savior of the town and of all mooglekind!
- **8110**: Though it may be unworthy of a great hero such as yourself, please accept this as a humble token of our moogle gratitude!
- **8111**: For all we know, the Pyracmon is still lurking, just waiting for another chance to creep into our ranks. Should it return, please lend us your strength again, kupo!
- **8112**: By the by, have you heard that some eerie and enchanting effulgences have emerged around the realm, kupo?
- **8113**: Each one mumbles and mutters like a misanthropic miscreant, but pay them no mind. Well now, may mirth and merriment multiply for you during this celebratory season, kupo!
- **8115**: Yi-yi-yikes! Another pernicious puppet of Pyracmon is poised to pulverize us, kupo!
- **8121**: Ay yai yai! I ardently advise against accepting an appeal as artful as this, kupo! You sobbed sanguineous streams in your quest to procure this potent magic--you shouldn't just give it away!
- **8122**: Bestow the boon upon yon bats? [Verily./Nay.]
- **8129**: Sordid scryers, <Player>! You just parted ways with all the magnificent magic you managed to muster, kupo!
- **8130**: Well...I suppose there's still some enhancing magic left to help you rout those reprobate wraith bats... Let's get back to business before that brutish Pyracmon can ruin the rest of the Harvest Festival, kupo.
- **8136**: What in the wide world was with those bizarre bats, kupo? I assumed they were allies of that apocalyptic abomination Pyracmon, but it seems my intuition was incorrect...
- **8137**: But based on the variety of their vexing vocal vibrations, I'd say there were three theurgists controlling those preternatural parasites. All that's beside the point, I suppose. Now we've got to start over from scratch, kupo...
- **8144**: Whew, for a moment I was positively petrified about your progression on this particular peregrination. Now that that's that, though, let's go pummel Pyracmon, puko! Er, kupo!
- **8148**: Kupopopo!? According to my observations, some occult object has emerged next to that eerie effulgence. Whatever could it be, kupo?

## Events

### Event 65535

#### Metadata

| Field        | Value   |
|--------------|---------|
| Entrypoint   | 0x0000  |
| Data Size    | 1 bytes |
| Instructions | 1       |

```
      00 01 02 03 04 05 06 07  08 09 0A 0B 0C 0D 0E 0F
      -- -- -- -- -- -- -- --  -- -- -- -- -- -- -- --
0000: 00                                                .               
```

#### Opcodes

```
  0: 0x0000 [0x00] END_REQSTACK()
```

### Event 32707

#### Metadata

| Field        | Value     |
|--------------|-----------|
| Entrypoint   | 0x0001    |
| Data Size    | 127 bytes |
| Instructions | 42        |

```
      00 01 02 03 04 05 06 07  08 09 0A 0B 0C 0D 0E 0F
      -- -- -- -- -- -- -- --  -- -- -- -- -- -- -- --
0000:    03 01 10 00 80 1E F0  FF FF 7F 1D 01 80 23 1D   .............#.
0010: 02 80 23 24 03 80 04 80  00 80 25 02 00 10 00 80  ..#$......%.....
0020: 00 6F 00 42 1D 05 80 23  1D 06 80 23 1D 07 80 23  .o.B...#...#...#
0030: 1D 08 80 23 1D 09 80 23  1D 0A 80 23 06 00 00 3E  ...#...#...#...>
0040: 03 10 00 80 50 00 3E 03  10 04 80 50 00 05 00 00  ....P.>....P....
0050: 02 00 00 00 80 00 67 00  1E 77 32 07 01 6F 70 1D  ......g..w2..op.
0060: 0B 80 23 1D 0C 80 23 03  01 10 04 80 01 7E 00 02  ..#...#......~..
0070: 00 10 04 80 00 7E 00 1D  0D 80 23 01 7E 00 21 00  .....~....#.~.!.
```

#### Opcodes

```
  0: 0x0001 [0x03] Work_Zone[1] = 0*
  1: 0x0006 [0x1E] EventEntity looks at LocalPlayer and starts talking
  2: 0x000B [0x1D] PRINT_EVENT_MESSAGE(message_id=8093*)
    → "There's big trouble, kupo! Our most reliable moogle intelligence reports that an odious one-eyed demon known as a Pyracmon is using the Harvest Festival masquerade as a cover and trying to infiltrate the city even as we speak!"
  3: 0x000E [0x23] WAIT_FOR_DIALOG_INTERACTION
  4: 0x000F [0x1D] PRINT_EVENT_MESSAGE(message_id=8094*)
    → "We've been trying to warn people, but the bigwigs and guardsmen won't even give us poor little moogles the time of day. But you believe us...don't you, kind adventurer?"
  5: 0x0012 [0x23] WAIT_FOR_DIALOG_INTERACTION
  6: 0x0013 [0x24] CREATE_DIALOG(message_id=8095*, default_option=1*, option_flags=0*)
    → "Help a moogle in need? [But of course!/I think I'll pass.]"
  7: 0x001A [0x25] WAIT_DIALOG_SELECT()
  8: 0x001B [0x02] IF !(Work_Zone[0] == 0*) GOTO 0x006F
  9: 0x0023 [0x42] SET_CLI_EVENT_CANCEL_DATA()
 10: 0x0024 [0x1D] PRINT_EVENT_MESSAGE(message_id=8097*)
    → "Splendid, kupo! The first thing you'll need to do is eliminate the Pyracmon's malevolent minions, the wraith bats!"
 11: 0x0027 [0x23] WAIT_FOR_DIALOG_INTERACTION
 12: 0x0028 [0x1D] PRINT_EVENT_MESSAGE(message_id=8098*)
    → "These dastardly critters attacked us and sucked the moogle magic right out of us, kupo! Without it, even the sharpest steel won't so much as scratch the Pyracmon!"
 13: 0x002B [0x23] WAIT_FOR_DIALOG_INTERACTION
 14: 0x002C [0x1D] PRINT_EVENT_MESSAGE(message_id=8099*)
    → "For each bat you banish, we'll recover some of our magical powers, so lay waste to as many flying foes as you can muster!"
 15: 0x002F [0x23] WAIT_FOR_DIALOG_INTERACTION
 16: 0x0030 [0x1D] PRINT_EVENT_MESSAGE(message_id=8100*)
    → "Report back here after that, and we'll channel that magic and whip up an incantation that will allow you to vanquish the Pyracmon!"
 17: 0x0033 [0x23] WAIT_FOR_DIALOG_INTERACTION
 18: 0x0034 [0x1D] PRINT_EVENT_MESSAGE(message_id=8101*)
    → "In the meantime, I'll use the meager remains of our magic to enchant you with a spell to aid in your battle against the wraith bats, kupo."
 19: 0x0037 [0x23] WAIT_FOR_DIALOG_INTERACTION
 20: 0x0038 [0x1D] PRINT_EVENT_MESSAGE(message_id=8102*)
    → "There you go! Now have at those winged vermin!"
 21: 0x003B [0x23] WAIT_FOR_DIALOG_INTERACTION
 22: 0x003C [0x06] ExtData[1]->WorkLocal[0] = 0
 23: 0x003F [0x3E] IF !(Work_Zone[3] bit 0*) GOTO 0x0050
 24: 0x0046 [0x3E] IF !(Work_Zone[3] bit 1*) GOTO 0x0050
 25: 0x004D [0x05] ExtData[1]->WorkLocal[0] = 1
 26: 0x0050 [0x02] IF !(ExtData[1]->WorkLocal[0] == 0*) GOTO 0x0067
 27: 0x0058 [0x1E] EventEntity looks at ??? (ID: 17248887/0x01073277) and starts talking
 28: 0x005D [0x6F] WAIT_FRAME_DELAY: Yield until WaitTime reaches zero
 29: 0x005E [0x70] WAIT_ENTITY_RENDER_FLAG: Wait while EventEntity->Render.Flags3 bit 2 is set (cancel turn if not)
 30: 0x005F [0x1D] PRINT_EVENT_MESSAGE(message_id=8112*)
    → "By the by, have you heard that some eerie and enchanting effulgences have emerged around the realm, kupo?"
 31: 0x0062 [0x23] WAIT_FOR_DIALOG_INTERACTION
 32: 0x0063 [0x1D] PRINT_EVENT_MESSAGE(message_id=8113*)
    → "Each one mumbles and mutters like a misanthropic miscreant, but pay them no mind. Well now, may mirth and merriment multiply for you during this celebratory season, kupo!"
 33: 0x0066 [0x23] WAIT_FOR_DIALOG_INTERACTION
 34: 0x0067 [0x03] Work_Zone[1] = 1*
 35: 0x006C [0x01] GOTO 0x007E
 36: 0x006F [0x02] IF !(Work_Zone[0] == 1*) GOTO 0x007E
 37: 0x0077 [0x1D] PRINT_EVENT_MESSAGE(message_id=8096*)
    → "<Sigh> And here I had a devilishly delightful Harvest Festival costume handmade just for you... Oh well, looks like it's going back in storage until next year, kupo."
 38: 0x007A [0x23] WAIT_FOR_DIALOG_INTERACTION
 39: 0x007B [0x01] GOTO 0x007E

SUBROUTINE_007E:
 40: 0x007E [0x21] END_EVENT
 41: 0x007F [0x00] END_REQSTACK()
```

### Event 32708

#### Metadata

| Field        | Value    |
|--------------|----------|
| Entrypoint   | 0x0080   |
| Data Size    | 77 bytes |
| Instructions | 23       |

```
      00 01 02 03 04 05 06 07  08 09 0A 0B 0C 0D 0E 0F
      -- -- -- -- -- -- -- --  -- -- -- -- -- -- -- --
0080: 03 01 10 00 80 3E 03 10  0E 80 96 00 1E 77 32 07  .....>.......w2.
0090: 01 1D 0F 80 23 21 1E F0  FF FF 7F 1D 10 80 23 24  ....#!........#$
00A0: 03 80 04 80 00 80 25 02  00 10 00 80 00 BC 00 42  ......%........B
00B0: 1D 0A 80 23 03 01 10 04  80 01 CB 00 02 00 10 04  ...#............
00C0: 80 00 CB 00 1D 0D 80 23  01 CB 00 21 00           .......#...!.   
```

#### Opcodes

```
  0: 0x0080 [0x03] Work_Zone[1] = 0*
  1: 0x0085 [0x3E] IF !(Work_Zone[3] bit 4*) GOTO 0x0096
  2: 0x008C [0x1E] EventEntity looks at ??? (ID: 17248887/0x01073277) and starts talking
  3: 0x0091 [0x1D] PRINT_EVENT_MESSAGE(message_id=8148*)
    → "Kupopopo!? According to my observations, some occult object has emerged next to that eerie effulgence. Whatever could it be, kupo?"
  4: 0x0094 [0x23] WAIT_FOR_DIALOG_INTERACTION
  5: 0x0095 [0x21] END_EVENT
  6: 0x0096 [0x1E] EventEntity looks at LocalPlayer and starts talking
  7: 0x009B [0x1D] PRINT_EVENT_MESSAGE(message_id=8103*)
    → "Back to help us rid the land of the vile Pyracmon?"
  8: 0x009E [0x23] WAIT_FOR_DIALOG_INTERACTION
  9: 0x009F [0x24] CREATE_DIALOG(message_id=8095*, default_option=1*, option_flags=0*)
    → "Help a moogle in need? [But of course!/I think I'll pass.]"
 10: 0x00A6 [0x25] WAIT_DIALOG_SELECT()
 11: 0x00A7 [0x02] IF !(Work_Zone[0] == 0*) GOTO 0x00BC
 12: 0x00AF [0x42] SET_CLI_EVENT_CANCEL_DATA()
 13: 0x00B0 [0x1D] PRINT_EVENT_MESSAGE(message_id=8102*)
    → "There you go! Now have at those winged vermin!"
 14: 0x00B3 [0x23] WAIT_FOR_DIALOG_INTERACTION
 15: 0x00B4 [0x03] Work_Zone[1] = 1*
 16: 0x00B9 [0x01] GOTO 0x00CB
 17: 0x00BC [0x02] IF !(Work_Zone[0] == 1*) GOTO 0x00CB
 18: 0x00C4 [0x1D] PRINT_EVENT_MESSAGE(message_id=8096*)
    → "<Sigh> And here I had a devilishly delightful Harvest Festival costume handmade just for you... Oh well, looks like it's going back in storage until next year, kupo."
 19: 0x00C7 [0x23] WAIT_FOR_DIALOG_INTERACTION
 20: 0x00C8 [0x01] GOTO 0x00CB

SUBROUTINE_00CB:
 21: 0x00CB [0x21] END_EVENT
 22: 0x00CC [0x00] END_REQSTACK()
```

### Event 32709

#### Metadata

| Field        | Value      |
|--------------|------------|
| Entrypoint   | 0x00CD     |
| Data Size    | 1527 bytes |
| Instructions | 286        |

```
      00 01 02 03 04 05 06 07  08 09 0A 0B 0C 0D 0E 0F
      -- -- -- -- -- -- -- --  -- -- -- -- -- -- -- --
00C0:                                         3E 03 10               >..
00D0: 00 80 DA 00 05 04 00 01  DD 00 06 04 00 3E 03 10  .............>..
00E0: 04 80 EA 00 05 05 00 01  ED 00 06 05 00 3E 03 10  .............>..
00F0: 11 80 FA 00 05 06 00 01  FD 00 06 06 00 03 01 10  ................
0100: 00 80 3E 03 10 0E 80 13  01 1E 77 32 07 01 1D 0F  ..>.......w2....
0110: 80 23 21 1E F0 FF FF 7F  1D 12 80 23 02 02 10 00  .#!........#....
0120: 80 00 2C 01 03 02 10 11  80 01 31 01 03 02 10 00  ..,.......1.....
0130: 80 24 13 80 00 80 02 10  25 02 00 10 00 80 00 44  .$......%......D
0140: 01 01 C2 06 02 00 10 04  80 00 AD 06 42 1D 14 80  ............B...
0150: 23 1D 15 80 23 AD 00 16  80 F8 FF FF 7F F0 FF FF  #...#...........
0160: 7F 1C 17 80 03 01 10 04  80 43 00 43 01 03 02 00  .........C.C....
0170: 04 10 03 00 00 04 00 14  00 00 05 00 02 00 00 00  ................
0180: 80 00 AA 06 2F 00 78 32  07 01 4E 00 78 32 07 01  ..../.x2..N.x2..
0190: 80 78 32 07 01 3B 78 32  07 01 07 00 08 00 09 00  .x2..;x2........
01A0: 3A 78 32 07 01 00 00 08  09 00 18 80 2C 78 32 07  :x2.........,x2.
01B0: 01 78 32 07 01 6B 65 73  75 1C 19 80 BA 78 32 07  .x2..kesu....x2.
01C0: 01 07 00 08 00 09 00 00  00 62 11 80 78 32 07 01  .........b..x2..
01D0: 78 32 07 01 6D 61 69 6E  00 80 A0 11 80 78 32 07  x2..main.....x2.
01E0: 01 78 32 07 01 6D 61 69  6E 4A 78 32 07 01 F0 FF  .x2..mainJx2....
01F0: FF 7F 02 06 00 04 80 00  68 02 13 01 00 11 80 02  ........h.......
0200: 01 00 00 80 80 12 02 2B  78 32 07 01 1A 80 23 01  .......+x2....#.
0210: 3D 02 02 01 00 04 80 80  25 02 2B 78 32 07 01 1B  =.......%.+x2...
0220: 80 23 01 3D 02 02 01 00  11 80 80 3D 02 03 02 10  .#.=.......=....
0230: 02 00 2B 78 32 07 01 1C  80 23 01 3D 02 1E 78 32  ..+x2....#.=..x2
0240: 07 01 6F 70 2C F8 FF FF  7F F8 FF FF 7F 67 61 6B  ..op,........gak
0250: 30 1D 1D 80 23 1C 1E 80  2C F8 FF FF 7F F8 FF FF  0...#...,.......
0260: 7F 67 61 6B 31 01 21 03  06 01 00 2B 78 32 07 01  .gak1.!....+x2..
0270: 1F 80 23 1E 78 32 07 01  6F 70 2C F8 FF FF 7F F8  ..#.x2..op,.....
0280: FF FF 7F 67 61 6B 30 1D  20 80 23 1C 1E 80 2C F8  ...gak0. .#...,.
0290: FF FF 7F F8 FF FF 7F 67  61 6B 31 1C 17 80 4A 78  .......gak1...Jx
02A0: 32 07 01 76 32 07 01 2B  78 32 07 01 21 80 23 3A  2..v2..+x2..!.#:
02B0: 78 32 07 01 08 10 08 08  10 22 80 29 80 78 32 07  x2.......".).x2.
02C0: 01 03 2B 78 32 07 01 23  80 23 4A 78 32 07 01 76  ..+x2..#.#Jx2..v
02D0: 32 07 01 2B 78 32 07 01  24 80 23 07 08 10 25 80  2..+x2..$.#...%.
02E0: 29 80 78 32 07 01 03 2B  78 32 07 01 26 80 23 4A  ).x2...+x2..&.#J
02F0: 78 32 07 01 F0 FF FF 7F  2B 78 32 07 01 27 80 23  x2......+x2..'.#
0300: 2C F8 FF FF 7F F8 FF FF  7F 67 61 6B 30 1D 1D 80  ,........gak0...
0310: 23 1C 1E 80 2C F8 FF FF  7F F8 FF FF 7F 67 61 6B  #...,........gak
0320: 31 24 28 80 04 80 00 80  25 02 00 10 00 80 00 01  1$(.....%.......
0330: 06 C4 02 29 80 78 32 07  01 F0 FF FF 7F 1C 2A 80  ...).x2.......*.
0340: 03 01 10 2B 80 43 00 43  01 03 03 00 05 10 02 04  ...+.C.C........
0350: 00 00 80 00 94 04 02 03  00 2C 80 04 F5 03 02 01  .........,......
0360: 00 00 80 80 71 03 2B 78  32 07 01 2D 80 23 01 97  ....q.+x2..-.#..
0370: 03 02 01 00 04 80 80 84  03 2B 78 32 07 01 2E 80  .........+x2....
0380: 23 01 97 03 02 01 00 11  80 80 97 03 2B 78 32 07  #...........+x2.
0390: 01 2F 80 23 01 97 03 62  04 80 78 32 07 01 78 32  ./.#...b..x2..x2
03A0: 07 01 6D 61 69 6E 00 80  A0 04 80 78 32 07 01 78  ..main.....x2..x
03B0: 32 07 01 6D 61 69 6E 4E  01 78 32 07 01 1C 30 80  2..mainN.x2...0.
03C0: 2C F8 FF FF 7F F8 FF FF  7F 67 61 6B 30 1D 31 80  ,........gak0.1.
03D0: 23 1C 1E 80 2C F8 FF FF  7F F8 FF FF 7F 67 61 6B  #...,........gak
03E0: 31 1C 17 80 1E F0 FF FF  7F 1D 32 80 23 03 01 10  1.........2.#...
03F0: 2B 80 01 91 04 02 01 00  00 80 80 08 04 2B 78 32  +............+x2
0400: 07 01 33 80 23 01 33 04  02 01 00 04 80 80 1B 04  ..3.#.3.........
0410: 2B 78 32 07 01 34 80 23  01 33 04 02 01 00 11 80  +x2..4.#.3......
0420: 80 33 04 03 02 10 03 00  2B 78 32 07 01 35 80 23  .3......+x2..5.#
0430: 01 33 04 1C 30 80 62 04  80 78 32 07 01 78 32 07  .3..0.b..x2..x2.
0440: 01 6D 61 69 6E 00 80 A0  04 80 78 32 07 01 78 32  .main.....x2..x2
0450: 07 01 6D 61 69 6E 4E 01  78 32 07 01 1C 30 80 2C  ..mainN.x2...0.,
0460: F8 FF FF 7F F8 FF FF 7F  67 61 6B 30 1D 31 80 23  ........gak0.1.#
0470: 1C 1E 80 2C F8 FF FF 7F  F8 FF FF 7F 67 61 6B 31  ...,........gak1
0480: 1C 17 80 1E F0 FF FF 7F  1D 32 80 23 03 01 10 0E  .........2.#....
0490: 80 01 FE 05 02 05 00 00  80 00 FE 05 02 03 00 30  ...............0
04A0: 80 04 5F 05 2B 78 32 07  01 36 80 23 3A 78 32 07  .._.+x2..6.#:x2.
04B0: 01 08 10 07 08 10 22 80  29 80 78 32 07 01 03 2B  ......".).x2...+
04C0: 78 32 07 01 37 80 23 4A  78 32 07 01 F0 FF FF 7F  x2..7.#Jx2......
04D0: 2B 78 32 07 01 38 80 23  2B 78 32 07 01 39 80 23  +x2..8.#+x2..9.#
04E0: 08 08 10 25 80 29 80 78  32 07 01 03 2B 78 32 07  ...%.).x2...+x2.
04F0: 01 3A 80 23 4A 78 32 07  01 F0 FF FF 7F 62 04 80  .:.#Jx2......b..
0500: 78 32 07 01 78 32 07 01  6D 61 69 6E 00 80 A0 04  x2..x2..main....
0510: 80 78 32 07 01 78 32 07  01 6D 61 69 6E 4E 01 78  .x2..x2..mainN.x
0520: 32 07 01 1C 30 80 1D 3B  80 23 2C F8 FF FF 7F F8  2...0..;.#,.....
0530: FF FF 7F 67 61 6B 30 1D  3C 80 23 1C 1E 80 2C F8  ...gak0.<.#...,.
0540: FF FF 7F F8 FF FF 7F 67  61 6B 31 1C 17 80 1E F0  .......gak1.....
0550: FF FF 7F 1D 32 80 23 03  01 10 2B 80 01 FB 05 02  ....2.#...+.....
0560: 01 00 00 80 80 72 05 2B  78 32 07 01 33 80 23 01  .....r.+x2..3.#.
0570: 9D 05 02 01 00 04 80 80  85 05 2B 78 32 07 01 34  ..........+x2..4
0580: 80 23 01 9D 05 02 01 00  11 80 80 9D 05 03 02 10  .#..............
0590: 03 00 2B 78 32 07 01 35  80 23 01 9D 05 1C 30 80  ..+x2..5.#....0.
05A0: 62 04 80 78 32 07 01 78  32 07 01 6D 61 69 6E 00  b..x2..x2..main.
05B0: 80 A0 04 80 78 32 07 01  78 32 07 01 6D 61 69 6E  ....x2..x2..main
05C0: 4E 01 78 32 07 01 1C 30  80 2C F8 FF FF 7F F8 FF  N.x2...0.,......
05D0: FF 7F 67 61 6B 30 1D 31  80 23 1C 1E 80 2C F8 FF  ..gak0.1.#...,..
05E0: FF 7F F8 FF FF 7F 67 61  6B 31 1C 17 80 1E F0 FF  ......gak1......
05F0: FF 7F 1D 32 80 23 03 01  10 0E 80 01 FE 05 01 AA  ...2.#..........
0600: 06 02 00 10 04 80 00 AA  06 02 01 00 00 80 80 1C  ................
0610: 06 2B 78 32 07 01 3D 80  23 01 56 06 02 01 00 04  .+x2..=.#.V.....
0620: 80 80 43 06 2B 78 32 07  01 3E 80 23 C4 02 3F 80  ..C.+x2..>.#..?.
0630: 78 32 07 01 F0 FF FF 7F  1C 2A 80 03 01 10 40 80  x2.......*....@.
0640: 01 56 06 02 01 00 11 80  80 56 06 2B 78 32 07 01  .V.......V.+x2..
0650: 41 80 23 01 56 06 62 04  80 78 32 07 01 78 32 07  A.#.V.b..x2..x2.
0660: 01 6D 61 69 6E 00 80 A0  04 80 78 32 07 01 78 32  .main.....x2..x2
0670: 07 01 6D 61 69 6E 4E 01  78 32 07 01 1C 17 80 1E  ..mainN.x2......
0680: F0 FF FF 7F 6F 70 2C F8  FF FF 7F F8 FF FF 7F 74  ....op,........t
0690: 6C 6B 30 1D 42 80 23 2C  F8 FF FF 7F F8 FF FF 7F  lk0.B.#,........
06A0: 74 6C 6B 31 1C 17 80 01  AA 06 01 C2 06 02 00 10  tlk1............
06B0: 11 80 00 C2 06 42 1D 43  80 23 03 01 10 11 80 01  .....B.C.#......
06C0: C2 06 21 00                                       ..!.            
```

#### Opcodes

```
  0: 0x00CD [0x3E] IF !(Work_Zone[3] bit 0*) GOTO 0x00DA
  1: 0x00D4 [0x05] ExtData[1]->WorkLocal[4] = 1
  2: 0x00D7 [0x01] GOTO 0x00DD
  3: 0x00DA [0x06] ExtData[1]->WorkLocal[4] = 0

SUBROUTINE_00DD:
  4: 0x00DD [0x3E] IF !(Work_Zone[3] bit 1*) GOTO 0x00EA
  5: 0x00E4 [0x05] ExtData[1]->WorkLocal[5] = 1
  6: 0x00E7 [0x01] GOTO 0x00ED
  7: 0x00EA [0x06] ExtData[1]->WorkLocal[5] = 0

SUBROUTINE_00ED:
  8: 0x00ED [0x3E] IF !(Work_Zone[3] bit 2*) GOTO 0x00FA
  9: 0x00F4 [0x05] ExtData[1]->WorkLocal[6] = 1
 10: 0x00F7 [0x01] GOTO 0x00FD
 11: 0x00FA [0x06] ExtData[1]->WorkLocal[6] = 0

SUBROUTINE_00FD:
 12: 0x00FD [0x03] Work_Zone[1] = 0*
 13: 0x0102 [0x3E] IF !(Work_Zone[3] bit 4*) GOTO 0x0113
 14: 0x0109 [0x1E] EventEntity looks at ??? (ID: 17248887/0x01073277) and starts talking
 15: 0x010E [0x1D] PRINT_EVENT_MESSAGE(message_id=8148*)
    → "Kupopopo!? According to my observations, some occult object has emerged next to that eerie effulgence. Whatever could it be, kupo?"
 16: 0x0111 [0x23] WAIT_FOR_DIALOG_INTERACTION
 17: 0x0112 [0x21] END_EVENT
 18: 0x0113 [0x1E] EventEntity looks at LocalPlayer and starts talking
 19: 0x0118 [0x1D] PRINT_EVENT_MESSAGE(message_id=8104*)
    → "Need help with anything? Just say the word, kupo!"
 20: 0x011B [0x23] WAIT_FOR_DIALOG_INTERACTION
 21: 0x011C [0x02] IF !(Work_Zone[2] == 0*) GOTO 0x012C
 22: 0x0124 [0x03] Work_Zone[2] = 2*
 23: 0x0129 [0x01] GOTO 0x0131
 24: 0x012C [0x03] Work_Zone[2] = 0*

SUBROUTINE_0131:
 25: 0x0131 [0x24] CREATE_DIALOG(message_id=8105*, default_option=0*, option_flags=Work_Zone[2])
    → "Ask the moogle for help? [I'm fine, thanks./I'm ready to take on the Pyracmon./I give up.]"
 26: 0x0138 [0x25] WAIT_DIALOG_SELECT()
 27: 0x0139 [0x02] IF !(Work_Zone[0] == 0*) GOTO 0x0144
 28: 0x0141 [0x01] GOTO 0x06C2
 29: 0x0144 [0x02] IF !(Work_Zone[0] == 1*) GOTO 0x06AD
 30: 0x014C [0x42] SET_CLI_EVENT_CANCEL_DATA()
 31: 0x014D [0x1D] PRINT_EVENT_MESSAGE(message_id=8106*)
    → "Wow, looks like you managed to recover oodles of magic from those bats. Oodles, kupo! This should make for a potent incantation indeed!"
 32: 0x0150 [0x23] WAIT_FOR_DIALOG_INTERACTION
 33: 0x0151 [0x1D] PRINT_EVENT_MESSAGE(message_id=8107*)
    → "Mind you, this enchantment won't last forever; if it runs out, you'll need to nab some more magic from the bats again. Now go send that ghastly Pyracmon back to the foul depths whence it came!"
 34: 0x0154 [0x23] WAIT_FOR_DIALOG_INTERACTION
 35: 0x0155 [0xAD] DUAL_ENTITY_SCHEDULER_HANDLER: Execute sub-case 0 with entities [EventEntity, LocalPlayer], work=7*
 36: 0x0161 [0x1C] WAIT(60* ticks)
 37: 0x0164 [0x03] Work_Zone[1] = 1*
 38: 0x0169 [0x43] SEND_EVENT_UPDATE: Send pending tag to server (packet 0x005B)
 39: 0x016B [0x43] SEND_EVENT_UPDATE: Check pending flag (skip if not pending)
 40: 0x016D [0x03] ExtData[1]->WorkLocal[2] = Work_Zone[4]
 41: 0x0172 [0x03] ExtData[1]->WorkLocal[0] = ExtData[1]->WorkLocal[4]
 42: 0x0177 [0x14] ExtData[1]->WorkLocal[0] *= ExtData[1]->WorkLocal[5]
 43: 0x017C [0x02] IF !(ExtData[1]->WorkLocal[0] == 0*) GOTO 0x06AA
 44: 0x0184 [0x2F] Magivore Ternion (ID: 17248888/0x01073278)->Render.Flags0 &= ~0x80000 // Bit 19
 45: 0x018A [0x4E] SET_ENTITY_HIDE_FLAG: Show Magivore Ternion (ID: 17248888/0x01073278)
 46: 0x0190 [0x80] LOAD_WAIT(entity=Magivore Ternion (ID: 17248888/0x01073278))
 47: 0x0195 [0x3B] GET_ENTITY_POSITION(entity=Magivore Ternion (ID: 17248888/0x01073278), x_destination=ExtData[1]->WorkLocal[7], y_destination=ExtData[1]->WorkLocal[8], z_destination=ExtData[1]->WorkLocal[9])
 48: 0x01A0 [0x3A] CONVERT_YAW_TO_BYTE(entity=Magivore Ternion (ID: 17248888/0x01073278), result_destination=ExtData[1]->WorkLocal[0])
 49: 0x01A7 [0x08] ExtData[1]->WorkLocal[9] -= 5000*
 50: 0x01AC [0x2C] CREATE_SCHEDULER_TASK: Create scheduler "kesu" with entities [Magivore Ternion (ID: 17248888/0x01073278), Magivore Ternion (ID: 17248888/0x01073278)]
 51: 0x01B9 [0x1C] WAIT(120* ticks)
 52: 0x01BC [0xBA] SET_ENTITY_POSITION(entity_id=Magivore Ternion (ID: 17248888/0x01073278), pos_x=ExtData[1]->WorkLocal[7], pos_z=ExtData[1]->WorkLocal[8], pos_y=ExtData[1]->WorkLocal[9], direction=ExtData[1]->WorkLocal[0])
 53: 0x01C9 [0x62] LOAD_EVENT_SCHEDULER: Load scheduler "main" with entities [Magivore Ternion (ID: 17248888/0x01073278), Magivore Ternion (ID: 17248888/0x01073278)], work=[2*, 0*]
 54: 0x01DA [0xA0] WAIT_LOAD_SCHEDULER_MAIN_ALT2: Wait for scheduler "main" with entities [Magivore Ternion (ID: 17248888/0x01073278), Magivore Ternion (ID: 17248888/0x01073278)], work=2*
 55: 0x01E9 [0x4A] Magivore Ternion (ID: 17248888/0x01073278) looks at LocalPlayer
 56: 0x01F2 [0x02] IF !(ExtData[1]->WorkLocal[6] == 1*) GOTO 0x0268
 57: 0x01FA [0x13] ExtData[1]->WorkLocal[1] = rand() % 2*
 58: 0x01FF [0x02] IF !(ExtData[1]->WorkLocal[1] == 0*) GOTO 0x0212
 59: 0x0207 [0x2B] Magivore Ternion (ID: 17248888/0x01073278) [8123*]:
    → "How thoughtful of you to grace us with your presence--and your magic--yet again."
 60: 0x020E [0x23] WAIT_FOR_DIALOG_INTERACTION
 61: 0x020F [0x01] GOTO 0x023D
 62: 0x0212 [0x02] IF !(ExtData[1]->WorkLocal[1] == 1*) GOTO 0x0225
 63: 0x021A [0x2B] Magivore Ternion (ID: 17248888/0x01073278) [8124*]:
    → "I've never seen anyone go about business as slow as you! Was your mother a tortoise or something? Anyway, hurry up and give us that magic effect before we die of old age!"
 64: 0x0221 [0x23] WAIT_FOR_DIALOG_INTERACTION
 65: 0x0222 [0x01] GOTO 0x023D
 66: 0x0225 [0x02] IF !(ExtData[1]->WorkLocal[1] == 2*) GOTO 0x023D
 67: 0x022D [0x03] Work_Zone[2] = ExtData[1]->WorkLocal[2]
 68: 0x0232 [0x2B] Magivore Ternion (ID: 17248888/0x01073278) [8125*]:
    → "That spell...equivalent to $0 mandragora-power... We must have it."
 69: 0x0239 [0x23] WAIT_FOR_DIALOG_INTERACTION
 70: 0x023A [0x01] GOTO 0x023D

SUBROUTINE_023D:
 71: 0x023D [0x1E] EventEntity looks at Magivore Ternion (ID: 17248888/0x01073278) and starts talking
 72: 0x0242 [0x6F] WAIT_FRAME_DELAY: Yield until WaitTime reaches zero
 73: 0x0243 [0x70] WAIT_ENTITY_RENDER_FLAG: Wait while EventEntity->Render.Flags3 bit 2 is set (cancel turn if not)
 74: 0x0244 [0x2C] CREATE_SCHEDULER_TASK: Create scheduler "gak0" with entities [EventEntity, EventEntity]
 75: 0x0251 [0x1D] PRINT_EVENT_MESSAGE(message_id=8121*)
    → "Ay yai yai! I ardently advise against accepting an appeal as artful as this, kupo! You sobbed sanguineous streams in your quest to procure this potent magic--you shouldn't just give it away!"
 76: 0x0254 [0x23] WAIT_FOR_DIALOG_INTERACTION
 77: 0x0255 [0x1C] WAIT(90* ticks)
 78: 0x0258 [0x2C] CREATE_SCHEDULER_TASK: Create scheduler "gak1" with entities [EventEntity, EventEntity]
 79: 0x0265 [0x01] GOTO 0x0321
 80: 0x0268 [0x06] ExtData[1]->WorkLocal[1] = 0
 81: 0x026B [0x2B] Magivore Ternion (ID: 17248888/0x01073278) [8114*]:
    → "My, my, my... What an intriguing spell you've learned, wayfarer."
 82: 0x0272 [0x23] WAIT_FOR_DIALOG_INTERACTION
 83: 0x0273 [0x1E] EventEntity looks at Magivore Ternion (ID: 17248888/0x01073278) and starts talking
 84: 0x0278 [0x6F] WAIT_FRAME_DELAY: Yield until WaitTime reaches zero
 85: 0x0279 [0x70] WAIT_ENTITY_RENDER_FLAG: Wait while EventEntity->Render.Flags3 bit 2 is set (cancel turn if not)
 86: 0x027A [0x2C] CREATE_SCHEDULER_TASK: Create scheduler "gak0" with entities [EventEntity, EventEntity]
 87: 0x0287 [0x1D] PRINT_EVENT_MESSAGE(message_id=8115*)
    → "Yi-yi-yikes! Another pernicious puppet of Pyracmon is poised to pulverize us, kupo!"
 88: 0x028A [0x23] WAIT_FOR_DIALOG_INTERACTION
 89: 0x028B [0x1C] WAIT(90* ticks)
 90: 0x028E [0x2C] CREATE_SCHEDULER_TASK: Create scheduler "gak1" with entities [EventEntity, EventEntity]
 91: 0x029B [0x1C] WAIT(60* ticks)
 92: 0x029E [0x4A] Magivore Ternion (ID: 17248888/0x01073278) looks at Moogle (ID: 17248886/0x01073276)
 93: 0x02A7 [0x2B] Magivore Ternion (ID: 17248888/0x01073278) [8116*]:
    → "Pyracmon? Hmm, that moniker may be gathering dust in the corner of my mind, but I do still recall it...possibly from some brittle tome written eons ago."
 94: 0x02AE [0x23] WAIT_FOR_DIALOG_INTERACTION
 95: 0x02AF [0x3A] CONVERT_YAW_TO_BYTE(entity=Magivore Ternion (ID: 17248888/0x01073278), result_destination=Work_Zone[8])
 96: 0x02B6 [0x08] Work_Zone[8] -= 400*
 97: 0x02BB [0x29] REQ_SET_WAIT(priority=0x80, entity_id=Magivore Ternion (ID: 17248888/0x01073278), tag_num=0x03)
 98: 0x02C2 [0x2B] Magivore Ternion (ID: 17248888/0x01073278) [8117*]:
    → "It's the exorcist who made a deal with a de--"
 99: 0x02C9 [0x23] WAIT_FOR_DIALOG_INTERACTION
100: 0x02CA [0x4A] Magivore Ternion (ID: 17248888/0x01073278) looks at Moogle (ID: 17248886/0x01073276)
101: 0x02D3 [0x2B] Magivore Ternion (ID: 17248888/0x01073278) [8118*]:
    → "Yes, yes, yes...now I remember. It is the name of a youthful yet promising exorcist who formed a perilous pact with a demon, only to become one himself."
102: 0x02DA [0x23] WAIT_FOR_DIALOG_INTERACTION
103: 0x02DB [0x07] Work_Zone[8] += 800*
104: 0x02E0 [0x29] REQ_SET_WAIT(priority=0x80, entity_id=Magivore Ternion (ID: 17248888/0x01073278), tag_num=0x03)
105: 0x02E7 [0x2B] Magivore Ternion (ID: 17248888/0x01073278) [8119*]:
    → "An exorcist who...hey! Don't put the chocobo before the cart! I don't remember selling my soul to a demon like that ecclesiastical abomination!"
106: 0x02EE [0x23] WAIT_FOR_DIALOG_INTERACTION
107: 0x02EF [0x4A] Magivore Ternion (ID: 17248888/0x01073278) looks at LocalPlayer
108: 0x02F8 [0x2B] Magivore Ternion (ID: 17248888/0x01073278) [8120*]:
    → "Of course, but let us not dwell on trifling details. You there, adventurer. How about bestowing that boon upon us in a deal of your own? We shall certainly make it worth your while."
109: 0x02FF [0x23] WAIT_FOR_DIALOG_INTERACTION
110: 0x0300 [0x2C] CREATE_SCHEDULER_TASK: Create scheduler "gak0" with entities [EventEntity, EventEntity]
111: 0x030D [0x1D] PRINT_EVENT_MESSAGE(message_id=8121*)
    → "Ay yai yai! I ardently advise against accepting an appeal as artful as this, kupo! You sobbed sanguineous streams in your quest to procure this potent magic--you shouldn't just give it away!"
112: 0x0310 [0x23] WAIT_FOR_DIALOG_INTERACTION
113: 0x0311 [0x1C] WAIT(90* ticks)
114: 0x0314 [0x2C] CREATE_SCHEDULER_TASK: Create scheduler "gak1" with entities [EventEntity, EventEntity]

SUBROUTINE_0321:
115: 0x0321 [0x24] CREATE_DIALOG(message_id=8122*, default_option=1*, option_flags=0*)
    → "Bestow the boon upon yon bats? [Verily./Nay.]"
116: 0x0328 [0x25] WAIT_DIALOG_SELECT()
117: 0x0329 [0x02] IF !(Work_Zone[0] == 0*) GOTO 0x0601
118: 0x0331 [0xC4] SCHEDULE_MAGIC_CASTING_ALT (arg=18): Magivore Ternion (ID: 17248888/0x01073278) casts magic 339* on LocalPlayer
119: 0x033D [0x1C] WAIT(180* ticks)
120: 0x0340 [0x03] Work_Zone[1] = 3*
121: 0x0345 [0x43] SEND_EVENT_UPDATE: Send pending tag to server (packet 0x005B)
122: 0x0347 [0x43] SEND_EVENT_UPDATE: Check pending flag (skip if not pending)
123: 0x0349 [0x03] ExtData[1]->WorkLocal[3] = Work_Zone[5]
124: 0x034E [0x02] IF !(ExtData[1]->WorkLocal[4] == 0*) GOTO 0x0494
125: 0x0356 [0x02] IF !(ExtData[1]->WorkLocal[3] < 15*) GOTO 0x03F5
126: 0x035E [0x02] IF !(ExtData[1]->WorkLocal[1] == 0*) GOTO 0x0371
127: 0x0366 [0x2B] Magivore Ternion (ID: 17248888/0x01073278) [8126*]:
    → "What an exhilarating sensation! That last batch of magic was as potent as an Ahriman in rut. Should you chance to find yourself with a sorcerous abundance again, we will always welcome you with spread wings."
128: 0x036D [0x23] WAIT_FOR_DIALOG_INTERACTION
129: 0x036E [0x01] GOTO 0x0397
130: 0x0371 [0x02] IF !(ExtData[1]->WorkLocal[1] == 1*) GOTO 0x0384
131: 0x0379 [0x2B] Magivore Ternion (ID: 17248888/0x01073278) [8127*]:
    → "I just know you're holding out on us, but I'll give you the benefit of the doubt...for now. Next time, try stocking up on more of that magic first."
132: 0x0380 [0x23] WAIT_FOR_DIALOG_INTERACTION
133: 0x0381 [0x01] GOTO 0x0397
134: 0x0384 [0x02] IF !(ExtData[1]->WorkLocal[1] == 2*) GOTO 0x0397
135: 0x038C [0x2B] Magivore Ternion (ID: 17248888/0x01073278) [8128*]:
    → "I knew you'd give us what we needed. Have this in return."
136: 0x0393 [0x23] WAIT_FOR_DIALOG_INTERACTION
137: 0x0394 [0x01] GOTO 0x0397

SUBROUTINE_0397:
138: 0x0397 [0x62] LOAD_EVENT_SCHEDULER: Load scheduler "main" with entities [Magivore Ternion (ID: 17248888/0x01073278), Magivore Ternion (ID: 17248888/0x01073278)], work=[1*, 0*]
139: 0x03A8 [0xA0] WAIT_LOAD_SCHEDULER_MAIN_ALT2: Wait for scheduler "main" with entities [Magivore Ternion (ID: 17248888/0x01073278), Magivore Ternion (ID: 17248888/0x01073278)], work=1*
140: 0x03B7 [0x4E] SET_ENTITY_HIDE_FLAG: Hide Magivore Ternion (ID: 17248888/0x01073278)
141: 0x03BD [0x1C] WAIT(30* ticks)
142: 0x03C0 [0x2C] CREATE_SCHEDULER_TASK: Create scheduler "gak0" with entities [EventEntity, EventEntity]
143: 0x03CD [0x1D] PRINT_EVENT_MESSAGE(message_id=8129*)
    → "Sordid scryers, <Player>! You just parted ways with all the magnificent magic you managed to muster, kupo!"
144: 0x03D0 [0x23] WAIT_FOR_DIALOG_INTERACTION
145: 0x03D1 [0x1C] WAIT(90* ticks)
146: 0x03D4 [0x2C] CREATE_SCHEDULER_TASK: Create scheduler "gak1" with entities [EventEntity, EventEntity]
147: 0x03E1 [0x1C] WAIT(60* ticks)
148: 0x03E4 [0x1E] EventEntity looks at LocalPlayer and starts talking
149: 0x03E9 [0x1D] PRINT_EVENT_MESSAGE(message_id=8130*)
    → "Well...I suppose there's still some enhancing magic left to help you rout those reprobate wraith bats... Let's get back to business before that brutish Pyracmon can ruin the rest of the Harvest Festival, kupo."
150: 0x03EC [0x23] WAIT_FOR_DIALOG_INTERACTION
151: 0x03ED [0x03] Work_Zone[1] = 3*
152: 0x03F2 [0x01] GOTO 0x0491
153: 0x03F5 [0x02] IF !(ExtData[1]->WorkLocal[1] == 0*) GOTO 0x0408
154: 0x03FD [0x2B] Magivore Ternion (ID: 17248888/0x01073278) [8138*]:
    → "This trace amount leaves our thirst for magic unquenched. The pact cannot be completed unless you return with the ordained measure."
155: 0x0404 [0x23] WAIT_FOR_DIALOG_INTERACTION
156: 0x0405 [0x01] GOTO 0x0433
157: 0x0408 [0x02] IF !(ExtData[1]->WorkLocal[1] == 1*) GOTO 0x041B
158: 0x0410 [0x2B] Magivore Ternion (ID: 17248888/0x01073278) [8139*]:
    → "What do you expect us to do with these spectral dregs!? This is nothing! Nothing! Don't come back here again until you've obtained an amount decent enough to study!"
159: 0x0417 [0x23] WAIT_FOR_DIALOG_INTERACTION
160: 0x0418 [0x01] GOTO 0x0433
161: 0x041B [0x02] IF !(ExtData[1]->WorkLocal[1] == 2*) GOTO 0x0433
162: 0x0423 [0x03] Work_Zone[2] = ExtData[1]->WorkLocal[3]
163: 0x0428 [0x2B] Magivore Ternion (ID: 17248888/0x01073278) [8140*]:
    → "Your total...only equivalent to $0 mandragora-power... We require more..."
164: 0x042F [0x23] WAIT_FOR_DIALOG_INTERACTION
165: 0x0430 [0x01] GOTO 0x0433

SUBROUTINE_0433:
166: 0x0433 [0x1C] WAIT(30* ticks)
167: 0x0436 [0x62] LOAD_EVENT_SCHEDULER: Load scheduler "main" with entities [Magivore Ternion (ID: 17248888/0x01073278), Magivore Ternion (ID: 17248888/0x01073278)], work=[1*, 0*]
168: 0x0447 [0xA0] WAIT_LOAD_SCHEDULER_MAIN_ALT2: Wait for scheduler "main" with entities [Magivore Ternion (ID: 17248888/0x01073278), Magivore Ternion (ID: 17248888/0x01073278)], work=1*
169: 0x0456 [0x4E] SET_ENTITY_HIDE_FLAG: Hide Magivore Ternion (ID: 17248888/0x01073278)
170: 0x045C [0x1C] WAIT(30* ticks)
171: 0x045F [0x2C] CREATE_SCHEDULER_TASK: Create scheduler "gak0" with entities [EventEntity, EventEntity]
172: 0x046C [0x1D] PRINT_EVENT_MESSAGE(message_id=8129*)
    → "Sordid scryers, <Player>! You just parted ways with all the magnificent magic you managed to muster, kupo!"
173: 0x046F [0x23] WAIT_FOR_DIALOG_INTERACTION
174: 0x0470 [0x1C] WAIT(90* ticks)
175: 0x0473 [0x2C] CREATE_SCHEDULER_TASK: Create scheduler "gak1" with entities [EventEntity, EventEntity]
176: 0x0480 [0x1C] WAIT(60* ticks)
177: 0x0483 [0x1E] EventEntity looks at LocalPlayer and starts talking
178: 0x0488 [0x1D] PRINT_EVENT_MESSAGE(message_id=8130*)
    → "Well...I suppose there's still some enhancing magic left to help you rout those reprobate wraith bats... Let's get back to business before that brutish Pyracmon can ruin the rest of the Harvest Festival, kupo."
179: 0x048B [0x23] WAIT_FOR_DIALOG_INTERACTION
180: 0x048C [0x03] Work_Zone[1] = 4*

SUBROUTINE_0491:
181: 0x0491 [0x01] GOTO 0x05FE
182: 0x0494 [0x02] IF !(ExtData[1]->WorkLocal[5] == 0*) GOTO 0x05FE
183: 0x049C [0x02] IF !(ExtData[1]->WorkLocal[3] < 30*) GOTO 0x055F
184: 0x04A4 [0x2B] Magivore Ternion (ID: 17248888/0x01073278) [8131*]:
    → "I am literally spellbound, adventurer! Your contributions have surpassed our expectations. Take this as thanks from the bottom of our black hearts."
185: 0x04AB [0x23] WAIT_FOR_DIALOG_INTERACTION
186: 0x04AC [0x3A] CONVERT_YAW_TO_BYTE(entity=Magivore Ternion (ID: 17248888/0x01073278), result_destination=Work_Zone[8])
187: 0x04B3 [0x07] Work_Zone[8] += 400*
188: 0x04B8 [0x29] REQ_SET_WAIT(priority=0x80, entity_id=Magivore Ternion (ID: 17248888/0x01073278), tag_num=0x03)
189: 0x04BF [0x2B] Magivore Ternion (ID: 17248888/0x01073278) [8132*]:
    → "It turns out the energy contained in these so-called "Middle Lands" isn't so middling after all. At least it'll be of use once our preparations are underway."
190: 0x04C6 [0x23] WAIT_FOR_DIALOG_INTERACTION
191: 0x04C7 [0x4A] Magivore Ternion (ID: 17248888/0x01073278) looks at LocalPlayer
192: 0x04D0 [0x2B] Magivore Ternion (ID: 17248888/0x01073278) [8133*]:
    → "Indubitably. While we must bid farewell to this continent, you can always use that headgear to fly over for a reunion."
193: 0x04D7 [0x23] WAIT_FOR_DIALOG_INTERACTION
194: 0x04D8 [0x2B] Magivore Ternion (ID: 17248888/0x01073278) [8134*]:
    → "Hyah, hyah, hyah! How gullible you are! You may be well versed in the arts of magic, but your sense of humor still leaves much to be desired."
195: 0x04DF [0x23] WAIT_FOR_DIALOG_INTERACTION
196: 0x04E0 [0x08] Work_Zone[8] -= 800*
197: 0x04E5 [0x29] REQ_SET_WAIT(priority=0x80, entity_id=Magivore Ternion (ID: 17248888/0x01073278), tag_num=0x03)
198: 0x04EC [0x2B] Magivore Ternion (ID: 17248888/0x01073278) [8135*]:
    → "...Until next time."
199: 0x04F3 [0x23] WAIT_FOR_DIALOG_INTERACTION
200: 0x04F4 [0x4A] Magivore Ternion (ID: 17248888/0x01073278) looks at LocalPlayer
201: 0x04FD [0x62] LOAD_EVENT_SCHEDULER: Load scheduler "main" with entities [Magivore Ternion (ID: 17248888/0x01073278), Magivore Ternion (ID: 17248888/0x01073278)], work=[1*, 0*]
202: 0x050E [0xA0] WAIT_LOAD_SCHEDULER_MAIN_ALT2: Wait for scheduler "main" with entities [Magivore Ternion (ID: 17248888/0x01073278), Magivore Ternion (ID: 17248888/0x01073278)], work=1*
203: 0x051D [0x4E] SET_ENTITY_HIDE_FLAG: Hide Magivore Ternion (ID: 17248888/0x01073278)
204: 0x0523 [0x1C] WAIT(30* ticks)
205: 0x0526 [0x1D] PRINT_EVENT_MESSAGE(message_id=8136*)
    → "What in the wide world was with those bizarre bats, kupo? I assumed they were allies of that apocalyptic abomination Pyracmon, but it seems my intuition was incorrect..."
206: 0x0529 [0x23] WAIT_FOR_DIALOG_INTERACTION
207: 0x052A [0x2C] CREATE_SCHEDULER_TASK: Create scheduler "gak0" with entities [EventEntity, EventEntity]
208: 0x0537 [0x1D] PRINT_EVENT_MESSAGE(message_id=8137*)
    → "But based on the variety of their vexing vocal vibrations, I'd say there were three theurgists controlling those preternatural parasites. All that's beside the point, I suppose. Now we've got to start over from scratch, kupo..."
209: 0x053A [0x23] WAIT_FOR_DIALOG_INTERACTION
210: 0x053B [0x1C] WAIT(90* ticks)
211: 0x053E [0x2C] CREATE_SCHEDULER_TASK: Create scheduler "gak1" with entities [EventEntity, EventEntity]
212: 0x054B [0x1C] WAIT(60* ticks)
213: 0x054E [0x1E] EventEntity looks at LocalPlayer and starts talking
214: 0x0553 [0x1D] PRINT_EVENT_MESSAGE(message_id=8130*)
    → "Well...I suppose there's still some enhancing magic left to help you rout those reprobate wraith bats... Let's get back to business before that brutish Pyracmon can ruin the rest of the Harvest Festival, kupo."
215: 0x0556 [0x23] WAIT_FOR_DIALOG_INTERACTION
216: 0x0557 [0x03] Work_Zone[1] = 3*
217: 0x055C [0x01] GOTO 0x05FB
218: 0x055F [0x02] IF !(ExtData[1]->WorkLocal[1] == 0*) GOTO 0x0572
219: 0x0567 [0x2B] Magivore Ternion (ID: 17248888/0x01073278) [8138*]:
    → "This trace amount leaves our thirst for magic unquenched. The pact cannot be completed unless you return with the ordained measure."
220: 0x056E [0x23] WAIT_FOR_DIALOG_INTERACTION
221: 0x056F [0x01] GOTO 0x059D
222: 0x0572 [0x02] IF !(ExtData[1]->WorkLocal[1] == 1*) GOTO 0x0585
223: 0x057A [0x2B] Magivore Ternion (ID: 17248888/0x01073278) [8139*]:
    → "What do you expect us to do with these spectral dregs!? This is nothing! Nothing! Don't come back here again until you've obtained an amount decent enough to study!"
224: 0x0581 [0x23] WAIT_FOR_DIALOG_INTERACTION
225: 0x0582 [0x01] GOTO 0x059D
226: 0x0585 [0x02] IF !(ExtData[1]->WorkLocal[1] == 2*) GOTO 0x059D
227: 0x058D [0x03] Work_Zone[2] = ExtData[1]->WorkLocal[3]
228: 0x0592 [0x2B] Magivore Ternion (ID: 17248888/0x01073278) [8140*]:
    → "Your total...only equivalent to $0 mandragora-power... We require more..."
229: 0x0599 [0x23] WAIT_FOR_DIALOG_INTERACTION
230: 0x059A [0x01] GOTO 0x059D

SUBROUTINE_059D:
231: 0x059D [0x1C] WAIT(30* ticks)
232: 0x05A0 [0x62] LOAD_EVENT_SCHEDULER: Load scheduler "main" with entities [Magivore Ternion (ID: 17248888/0x01073278), Magivore Ternion (ID: 17248888/0x01073278)], work=[1*, 0*]
233: 0x05B1 [0xA0] WAIT_LOAD_SCHEDULER_MAIN_ALT2: Wait for scheduler "main" with entities [Magivore Ternion (ID: 17248888/0x01073278), Magivore Ternion (ID: 17248888/0x01073278)], work=1*
234: 0x05C0 [0x4E] SET_ENTITY_HIDE_FLAG: Hide Magivore Ternion (ID: 17248888/0x01073278)
235: 0x05C6 [0x1C] WAIT(30* ticks)
236: 0x05C9 [0x2C] CREATE_SCHEDULER_TASK: Create scheduler "gak0" with entities [EventEntity, EventEntity]
237: 0x05D6 [0x1D] PRINT_EVENT_MESSAGE(message_id=8129*)
    → "Sordid scryers, <Player>! You just parted ways with all the magnificent magic you managed to muster, kupo!"
238: 0x05D9 [0x23] WAIT_FOR_DIALOG_INTERACTION
239: 0x05DA [0x1C] WAIT(90* ticks)
240: 0x05DD [0x2C] CREATE_SCHEDULER_TASK: Create scheduler "gak1" with entities [EventEntity, EventEntity]
241: 0x05EA [0x1C] WAIT(60* ticks)
242: 0x05ED [0x1E] EventEntity looks at LocalPlayer and starts talking
243: 0x05F2 [0x1D] PRINT_EVENT_MESSAGE(message_id=8130*)
    → "Well...I suppose there's still some enhancing magic left to help you rout those reprobate wraith bats... Let's get back to business before that brutish Pyracmon can ruin the rest of the Harvest Festival, kupo."
244: 0x05F5 [0x23] WAIT_FOR_DIALOG_INTERACTION
245: 0x05F6 [0x03] Work_Zone[1] = 4*

SUBROUTINE_05FB:
246: 0x05FB [0x01] GOTO 0x05FE

SUBROUTINE_05FE:
247: 0x05FE [0x01] GOTO 0x06AA
248: 0x0601 [0x02] IF !(Work_Zone[0] == 1*) GOTO 0x06AA
249: 0x0609 [0x02] IF !(ExtData[1]->WorkLocal[1] == 0*) GOTO 0x061C
250: 0x0611 [0x2B] Magivore Ternion (ID: 17248888/0x01073278) [8141*]:
    → "How...disappointing. Then I shall take your reply to mean you do not require a certain miraculous artifact we had been saving for you."
251: 0x0618 [0x23] WAIT_FOR_DIALOG_INTERACTION
252: 0x0619 [0x01] GOTO 0x0656
253: 0x061C [0x02] IF !(ExtData[1]->WorkLocal[1] == 1*) GOTO 0x0643
254: 0x0624 [0x2B] Magivore Ternion (ID: 17248888/0x01073278) [8142*]:
    → "...Fine! See if I care! In fact, I care so little that I'm gonna put a curse on you for refusing to help us, so there!"
255: 0x062B [0x23] WAIT_FOR_DIALOG_INTERACTION
256: 0x062C [0xC4] SCHEDULE_MAGIC_CASTING_ALT (arg=18): Magivore Ternion (ID: 17248888/0x01073278) casts magic 137* on LocalPlayer
257: 0x0638 [0x1C] WAIT(180* ticks)
258: 0x063B [0x03] Work_Zone[1] = 5*
259: 0x0640 [0x01] GOTO 0x0656
260: 0x0643 [0x02] IF !(ExtData[1]->WorkLocal[1] == 2*) GOTO 0x0656
261: 0x064B [0x2B] Magivore Ternion (ID: 17248888/0x01073278) [8143*]:
    → "...Of course you won't now...but you will eventually."
262: 0x0652 [0x23] WAIT_FOR_DIALOG_INTERACTION
263: 0x0653 [0x01] GOTO 0x0656

SUBROUTINE_0656:
264: 0x0656 [0x62] LOAD_EVENT_SCHEDULER: Load scheduler "main" with entities [Magivore Ternion (ID: 17248888/0x01073278), Magivore Ternion (ID: 17248888/0x01073278)], work=[1*, 0*]
265: 0x0667 [0xA0] WAIT_LOAD_SCHEDULER_MAIN_ALT2: Wait for scheduler "main" with entities [Magivore Ternion (ID: 17248888/0x01073278), Magivore Ternion (ID: 17248888/0x01073278)], work=1*
266: 0x0676 [0x4E] SET_ENTITY_HIDE_FLAG: Hide Magivore Ternion (ID: 17248888/0x01073278)
267: 0x067C [0x1C] WAIT(60* ticks)
268: 0x067F [0x1E] EventEntity looks at LocalPlayer and starts talking
269: 0x0684 [0x6F] WAIT_FRAME_DELAY: Yield until WaitTime reaches zero
270: 0x0685 [0x70] WAIT_ENTITY_RENDER_FLAG: Wait while EventEntity->Render.Flags3 bit 2 is set (cancel turn if not)
271: 0x0686 [0x2C] CREATE_SCHEDULER_TASK: Create scheduler "tlk0" with entities [EventEntity, EventEntity]
272: 0x0693 [0x1D] PRINT_EVENT_MESSAGE(message_id=8144*)
    → "Whew, for a moment I was positively petrified about your progression on this particular peregrination. Now that that's that, though, let's go pummel Pyracmon, puko! Er, kupo!"
273: 0x0696 [0x23] WAIT_FOR_DIALOG_INTERACTION
274: 0x0697 [0x2C] CREATE_SCHEDULER_TASK: Create scheduler "tlk1" with entities [EventEntity, EventEntity]
275: 0x06A4 [0x1C] WAIT(60* ticks)
276: 0x06A7 [0x01] GOTO 0x06AA

SUBROUTINE_06AA:
277: 0x06AA [0x01] GOTO 0x06C2
278: 0x06AD [0x02] IF !(Work_Zone[0] == 2*) GOTO 0x06C2
279: 0x06B5 [0x42] SET_CLI_EVENT_CANCEL_DATA()
280: 0x06B6 [0x1D] PRINT_EVENT_MESSAGE(message_id=8108*)
    → "Well, I'm sure a mighty adventurer like you has better things to do than help a poor little Moogle, kupo... Still, the Pyracmon won't rest until he's carried out his nefarious deeds, so do come back if you have a change of heart!"
281: 0x06B9 [0x23] WAIT_FOR_DIALOG_INTERACTION
282: 0x06BA [0x03] Work_Zone[1] = 2*
283: 0x06BF [0x01] GOTO 0x06C2

SUBROUTINE_06C2:
284: 0x06C2 [0x21] END_EVENT
285: 0x06C3 [0x00] END_REQSTACK()
```

### Event 32710

#### Metadata

| Field        | Value    |
|--------------|----------|
| Entrypoint   | 0x06C4   |
| Data Size    | 20 bytes |
| Instructions | 10       |

```
      00 01 02 03 04 05 06 07  08 09 0A 0B 0C 0D 0E 0F
      -- -- -- -- -- -- -- --  -- -- -- -- -- -- -- --
06C0:             42 1E F0 FF  FF 7F 1D 44 80 23 1D 45      B......D.#.E
06D0: 80 23 1D 46 80 23 21 00                           .#.F.#!.        
```

#### Opcodes

```
  0: 0x06C4 [0x42] SET_CLI_EVENT_CANCEL_DATA()
  1: 0x06C5 [0x1E] EventEntity looks at LocalPlayer and starts talking
  2: 0x06CA [0x1D] PRINT_EVENT_MESSAGE(message_id=8109*)
    → "Wow, you made mincemeat out of that Pyracmon! Just watching the battle sent chills up my little wings, kupo! You're the savior of the town and of all mooglekind!"
  3: 0x06CD [0x23] WAIT_FOR_DIALOG_INTERACTION
  4: 0x06CE [0x1D] PRINT_EVENT_MESSAGE(message_id=8110*)
    → "Though it may be unworthy of a great hero such as yourself, please accept this as a humble token of our moogle gratitude!"
  5: 0x06D1 [0x23] WAIT_FOR_DIALOG_INTERACTION
  6: 0x06D2 [0x1D] PRINT_EVENT_MESSAGE(message_id=8111*)
    → "For all we know, the Pyracmon is still lurking, just waiting for another chance to creep into our ranks. Should it return, please lend us your strength again, kupo!"
  7: 0x06D5 [0x23] WAIT_FOR_DIALOG_INTERACTION
  8: 0x06D6 [0x21] END_EVENT
  9: 0x06D7 [0x00] END_REQSTACK()
```

### Event 81

#### Metadata

| Field        | Value   |
|--------------|---------|
| Entrypoint   | 0x06D8  |
| Data Size    | 1 bytes |
| Instructions | 1       |

```
      00 01 02 03 04 05 06 07  08 09 0A 0B 0C 0D 0E 0F
      -- -- -- -- -- -- -- --  -- -- -- -- -- -- -- --
06D0:                          00                               .       
```

#### Opcodes

```
  0: 0x06D8 [0x00] END_REQSTACK()
```
