# 17248923

## Common Data

| Field            | Value                       |
|------------------|-----------------------------|
| Zone             | West Sarutabaruta (ID: 115) |
| Block Size       | 15988 bytes                 |
| Total Events     | 3                           |
| References Count | 347                         |

## List of Events

| Event ID              | Entrypoint   |   Size |   Instructions |
|-----------------------|--------------|--------|----------------|
| [65535](#event-65535) | 0x0000       |    658 |             62 |
| [919](#event-919)     | 0x0292       |   8835 |           1050 |
| [920](#event-920)     | 0x2515       |   5078 |            600 |

## DAT References (imed_data)

|   Index | Hex Value   |   Dec Value |
|---------|-------------|-------------|
|       0 | 0x00C8      |         200 |
|       1 | 0x0000      |           0 |
|       2 | 0x00C9      |         201 |
|       3 | 0x0001      |           1 |
|       4 | 0x002D      |          45 |
|       5 | 0x0002      |           2 |
|       6 | 0x001E      |          30 |
|       7 | 0x00D7      |         215 |
|       8 | 0x0093      |         147 |
|       9 | 0x407FF     |      264191 |
|      10 | 0xFFFFF77A  |  4294965114 |
|      11 | 0xFFFFEC83  |  4294962307 |
|      12 | 0x09AB      |        2475 |
|      13 | 0x40D1C     |      265500 |
|      14 | 0xFFFFEFE9  |  4294963177 |
|      15 | 0xFFFFEC75  |  4294962293 |
|      16 | 0x0A68      |        2664 |
|      17 | 0x40F35     |      266037 |
|      18 | 0xFFFFF7A0  |  4294965152 |
|      19 | 0xFFFFED70  |  4294962544 |
|      20 | 0x095F      |        2399 |
|      21 | 0x4122A     |      266794 |
|      22 | 0xFFFFF02A  |  4294963242 |
|      23 | 0xFFFFEC97  |  4294962327 |
|      24 | 0x0937      |        2359 |
|      25 | 0x41819     |      268313 |
|      26 | 0xFFFFEB71  |  4294962033 |
|      27 | 0xFFFFEB3D  |  4294961981 |
|      28 | 0x08E9      |        2281 |
|      29 | 0x41492     |      267410 |
|      30 | 0xFFFFE802  |  4294961154 |
|      31 | 0xFFFFEA7A  |  4294961786 |
|      32 | 0x090D      |        2317 |
|      33 | 0x3B8C2     |      243906 |
|      34 | 0x427C      |       17020 |
|      35 | 0xFFFFECB4  |  4294962356 |
|      36 | 0x0CF3      |        3315 |
|      37 | 0x3BE31     |      245297 |
|      38 | 0x5014      |       20500 |
|      39 | 0xFFFFEB6C  |  4294962028 |
|      40 | 0x04EE      |        1262 |
|      41 | 0x3BC3C     |      244796 |
|      42 | 0x5621      |       22049 |
|      43 | 0xFFFFEB00  |  4294961920 |
|      44 | 0x0444      |        1092 |
|      45 | 0x3C436     |      246838 |
|      46 | 0x5287      |       21127 |
|      47 | 0xFFFFEAEB  |  4294961899 |
|      48 | 0x0546      |        1350 |
|      49 | 0x3906E     |      233582 |
|      50 | 0x1B6C      |        7020 |
|      51 | 0xFFFFEF1B  |  4294962971 |
|      52 | 0x084D      |        2125 |
|      53 | 0x399BD     |      235965 |
|      54 | 0x1FB7      |        8119 |
|      55 | 0xFFFFEFD0  |  4294963152 |
|      56 | 0x083F      |        2111 |
|      57 | 0x398D9     |      235737 |
|      58 | 0x15A5      |        5541 |
|      59 | 0xFFFFF013  |  4294963219 |
|      60 | 0x0854      |        2132 |
|      61 | 0x3BAB8     |      244408 |
|      62 | 0x469D      |       18077 |
|      63 | 0xFFFFEC52  |  4294962258 |
|      64 | 0x052B      |        1323 |
|      65 | 0x3FA94     |      260756 |
|      66 | 0x0879      |        2169 |
|      67 | 0xFFFFEBAC  |  4294962092 |
|      68 | 0x086B      |        2155 |
|      69 | 0x00F0      |         240 |
|      70 | 0x035B      |         859 |
|      71 | 0x00B4      |         180 |
|      72 | 0x0005      |           5 |
|      73 | 0x0006      |           6 |
|      74 | 0x0096      |         150 |
|      75 | 0x0003      |           3 |
|      76 | 0x3E60A     |      255498 |
|      77 | 0x137B      |        4987 |
|      78 | 0xFFFFEEA5  |  4294962853 |
|      79 | 0x0004      |           4 |
|      80 | 0x0008      |           8 |
|      81 | 0xFFFFF099  |  4294963353 |
|      82 | 0x000A      |          10 |
|      83 | 0x0007      |           7 |
|      84 | 0x003C      |          60 |
|      85 | 0x3E327     |      254759 |
|      86 | 0x0820      |        2080 |
|      87 | 0xFFFFEF01  |  4294962945 |
|      88 | 0xFFFFF0F5  |  4294963445 |
|      89 | 0x3E10B     |      254219 |
|      90 | 0x0D98      |        3480 |
|      91 | 0xFFFFEF45  |  4294963013 |
|      92 | 0xFFFFF139  |  4294963513 |
|      93 | 0x005A      |          90 |
|      94 | 0x0064      |         100 |
|      95 | 0x010E      |         270 |
|      96 | 0x0078      |         120 |
|      97 | 0x00A3      |         163 |
|      98 | 0x0055      |          85 |
|      99 | 0x30A5      |       12453 |
|     100 | 0x30A6      |       12454 |
|     101 | 0x30A7      |       12455 |
|     102 | 0x30A8      |       12456 |
|     103 | 0x30A9      |       12457 |
|     104 | 0x0504      |        1284 |
|     105 | 0x30AA      |       12458 |
|     106 | 0x30AB      |       12459 |
|     107 | 0x30AC      |       12460 |
|     108 | 0x30AD      |       12461 |
|     109 | 0x30AE      |       12462 |
|     110 | 0x30AF      |       12463 |
|     111 | 0x30B0      |       12464 |
|     112 | 0x055E      |        1374 |
|     113 | 0x007F      |         127 |
|     114 | 0x30B1      |       12465 |
|     115 | 0x0050      |          80 |
|     116 | 0x30B2      |       12466 |
|     117 | 0x30B3      |       12467 |
|     118 | 0x30B4      |       12468 |
|     119 | 0x30B5      |       12469 |
|     120 | 0x0051      |          81 |
|     121 | 0x30B6      |       12470 |
|     122 | 0x0052      |          82 |
|     123 | 0x30B7      |       12471 |
|     124 | 0x30B8      |       12472 |
|     125 | 0x3FEDC     |      261852 |
|     126 | 0x1433      |        5171 |
|     127 | 0xFFFFEC38  |  4294962232 |
|     128 | 0x01EB      |         491 |
|     129 | 0x403F1     |      263153 |
|     130 | 0x1743      |        5955 |
|     131 | 0xFFFFECBA  |  4294962362 |
|     132 | 0x03BE      |         958 |
|     133 | 0x40915     |      264469 |
|     134 | 0x1498      |        5272 |
|     135 | 0xFFFFECFA  |  4294962426 |
|     136 | 0x06CD      |        1741 |
|     137 | 0x3FDF1     |      261617 |
|     138 | 0x0F95      |        3989 |
|     139 | 0xFFFFEBDF  |  4294962143 |
|     140 | 0x0F50      |        3920 |
|     141 | 0x40936     |      264502 |
|     142 | 0x0E20      |        3616 |
|     143 | 0xFFFFECB0  |  4294962352 |
|     144 | 0x0917      |        2327 |
|     145 | 0x404F1     |      263409 |
|     146 | 0x0A34      |        2612 |
|     147 | 0x0A98      |        2712 |
|     148 | 0x3FF78     |      262008 |
|     149 | 0x09CD      |        2509 |
|     150 | 0xFFFFEBFA  |  4294962170 |
|     151 | 0x0D58      |        3416 |
|     152 | 0x012C      |         300 |
|     153 | 0x0CA0      |        3232 |
|     154 | 0x30B9      |       12473 |
|     155 | 0x30BA      |       12474 |
|     156 | 0x30BB      |       12475 |
|     157 | 0x30BC      |       12476 |
|     158 | 0x30BD      |       12477 |
|     159 | 0x30BE      |       12478 |
|     160 | 0x30BF      |       12479 |
|     161 | 0x30C0      |       12480 |
|     162 | 0x30C1      |       12481 |
|     163 | 0x30C2      |       12482 |
|     164 | 0x30C3      |       12483 |
|     165 | 0x004B      |          75 |
|     166 | 0x30C4      |       12484 |
|     167 | 0x30C5      |       12485 |
|     168 | 0x30C6      |       12486 |
|     169 | 0x30C7      |       12487 |
|     170 | 0x30C8      |       12488 |
|     171 | 0x3CAFC     |      248572 |
|     172 | 0x07C5      |        1989 |
|     173 | 0xFFFFEF41  |  4294963009 |
|     174 | 0x094B      |        2379 |
|     175 | 0x3BB09     |      244489 |
|     176 | 0x21D8      |        8664 |
|     177 | 0xFFFFEF81  |  4294963073 |
|     178 | 0x0916      |        2326 |
|     179 | 0x3BE53     |      245331 |
|     180 | 0x1D89      |        7561 |
|     181 | 0xFFFFEF7C  |  4294963068 |
|     182 | 0x094E      |        2382 |
|     183 | 0x3C284     |      246404 |
|     184 | 0x1BEB      |        7147 |
|     185 | 0xFFFFEF32  |  4294962994 |
|     186 | 0x0923      |        2339 |
|     187 | 0x3BDB3     |      245171 |
|     188 | 0x19F7      |        6647 |
|     189 | 0xFFFFEFC2  |  4294963138 |
|     190 | 0x0908      |        2312 |
|     191 | 0x3C3E6     |      246758 |
|     192 | 0x1886      |        6278 |
|     193 | 0xFFFFEF47  |  4294963015 |
|     194 | 0x08E7      |        2279 |
|     195 | 0x3C963     |      248163 |
|     196 | 0x16AD      |        5805 |
|     197 | 0xFFFFEEE1  |  4294962913 |
|     198 | 0x08D5      |        2261 |
|     199 | 0x0029      |          41 |
|     200 | 0x30C9      |       12489 |
|     201 | 0x30CA      |       12490 |
|     202 | 0x000F      |          15 |
|     203 | 0x30CB      |       12491 |
|     204 | 0x001D      |          29 |
|     205 | 0x0028      |          40 |
|     206 | 0x30CC      |       12492 |
|     207 | 0x30CD      |       12493 |
|     208 | 0x30CE      |       12494 |
|     209 | 0x30CF      |       12495 |
|     210 | 0x30D0      |       12496 |
|     211 | 0x00AA      |         170 |
|     212 | 0x30D1      |       12497 |
|     213 | 0x055D      |        1373 |
|     214 | 0x30D2      |       12498 |
|     215 | 0x0400      |        1024 |
|     216 | 0x30D3      |       12499 |
|     217 | 0x30D4      |       12500 |
|     218 | 0x0930      |        2352 |
|     219 | 0x30D5      |       12501 |
|     220 | 0x0190      |         400 |
|     221 | 0xFFFFFC00  |  4294966272 |
|     222 | 0x014A      |         330 |
|     223 | 0x30D6      |       12502 |
|     224 | 0x30D7      |       12503 |
|     225 | 0x30D8      |       12504 |
|     226 | 0x30D9      |       12505 |
|     227 | 0x30DA      |       12506 |
|     228 | 0x0071      |         113 |
|     229 | 0x38A33     |      231987 |
|     230 | 0x1B8E      |        7054 |
|     231 | 0xFFFFEEA1  |  4294962849 |
|     232 | 0x0FDF      |        4063 |
|     233 | 0x3C8DE     |      248030 |
|     234 | 0x10EA      |        4330 |
|     235 | 0xFFFFEF40  |  4294963008 |
|     236 | 0x08E0      |        2272 |
|     237 | 0x3817E     |      229758 |
|     238 | 0x17B6      |        6070 |
|     239 | 0xFFFFEE0D  |  4294962701 |
|     240 | 0x0FC3      |        4035 |
|     241 | 0x3C0DC     |      245980 |
|     242 | 0x3E3D      |       15933 |
|     243 | 0xFFFFEC9C  |  4294962332 |
|     244 | 0x07D4      |        2004 |
|     245 | 0x3B521     |      242977 |
|     246 | 0x3EF2      |       16114 |
|     247 | 0xFFFFECE7  |  4294962407 |
|     248 | 0x07C1      |        1985 |
|     249 | 0x38658     |      231000 |
|     250 | 0x0F19      |        3865 |
|     251 | 0xFFFFEF26  |  4294962982 |
|     252 | 0x0F69      |        3945 |
|     253 | 0x3C95E     |      248158 |
|     254 | 0x09A4      |        2468 |
|     255 | 0xFFFFEF5B  |  4294963035 |
|     256 | 0x0977      |        2423 |
|     257 | 0x3B191     |      242065 |
|     258 | 0x4611      |       17937 |
|     259 | 0xFFFFEC7B  |  4294962299 |
|     260 | 0x3B376     |      242550 |
|     261 | 0x3ABF      |       15039 |
|     262 | 0xFFFFE770  |  4294961008 |
|     263 | 0x074F      |        1871 |
|     264 | 0x3B0EA     |      241898 |
|     265 | 0x310D      |       12557 |
|     266 | 0xFFFFEE34  |  4294962740 |
|     267 | 0x04CE      |        1230 |
|     268 | 0x349E5     |      215525 |
|     269 | 0x103B      |        4155 |
|     270 | 0xFFFFECAD  |  4294962349 |
|     271 | 0x0FB0      |        4016 |
|     272 | 0x3F88B     |      260235 |
|     273 | 0x032A      |         810 |
|     274 | 0xFFFFEB6E  |  4294962030 |
|     275 | 0x086D      |        2157 |
|     276 | 0x3B364     |      242532 |
|     277 | 0x4A8F      |       19087 |
|     278 | 0xFFFFEC33  |  4294962227 |
|     279 | 0x3B864     |      243812 |
|     280 | 0x3E8C      |       16012 |
|     281 | 0xFFFFEC29  |  4294962217 |
|     282 | 0x0A28      |        2600 |
|     283 | 0x3BB69     |      244585 |
|     284 | 0x3ECD      |       16077 |
|     285 | 0xFFFFE9B1  |  4294961585 |
|     286 | 0x0724      |        1828 |
|     287 | 0x055B      |        1371 |
|     288 | 0x0056      |          86 |
|     289 | 0x0ED8      |        3800 |
|     290 | 0x0320      |         800 |
|     291 | 0x001A      |          26 |
|     292 | 0x3AC8B     |      240779 |
|     293 | 0x2175      |        8565 |
|     294 | 0xFFFFEFAB  |  4294963115 |
|     295 | 0x0CBF      |        3263 |
|     296 | 0x035C      |         860 |
|     297 | 0x0080      |         128 |
|     298 | 0x035E      |         862 |
|     299 | 0x30DF      |       12511 |
|     300 | 0x30E0      |       12512 |
|     301 | 0x30E1      |       12513 |
|     302 | 0x0027      |          39 |
|     303 | 0x30E2      |       12514 |
|     304 | 0x30E3      |       12515 |
|     305 | 0x30E4      |       12516 |
|     306 | 0x006F      |         111 |
|     307 | 0x30E5      |       12517 |
|     308 | 0x30E6      |       12518 |
|     309 | 0x00D2      |         210 |
|     310 | 0x30E7      |       12519 |
|     311 | 0x002A      |          42 |
|     312 | 0x30E8      |       12520 |
|     313 | 0x0367      |         871 |
|     314 | 0x3B3A6     |      242598 |
|     315 | 0x3B7C      |       15228 |
|     316 | 0xFFFFED3A  |  4294962490 |
|     317 | 0x0156      |         342 |
|     318 | 0x30E9      |       12521 |
|     319 | 0x00B6      |         182 |
|     320 | 0x0B71      |        2929 |
|     321 | 0x0168      |         360 |
|     322 | 0x3B41E     |      242718 |
|     323 | 0x3B5B      |       15195 |
|     324 | 0xFFFFD9B5  |  4294957493 |
|     325 | 0x3B62E     |      243246 |
|     326 | 0x3DBE      |       15806 |
|     327 | 0xFFFFD978  |  4294957432 |
|     328 | 0x0EC2      |        3778 |
|     329 | 0x00B9      |         185 |
|     330 | 0x0FF0      |        4080 |
|     331 | 0x0FA0      |        4000 |
|     332 | 0xFFFFED3D  |  4294962493 |
|     333 | 0x03E7      |         999 |
|     334 | 0x05B1      |        1457 |
|     335 | 0xFFFFED05  |  4294962437 |
|     336 | 0x0054      |          84 |
|     337 | 0x30EA      |       12522 |
|     338 | 0x30EB      |       12523 |
|     339 | 0x00FC      |         252 |
|     340 | 0x0019      |          25 |
|     341 | 0x30EC      |       12524 |
|     342 | 0x30ED      |       12525 |
|     343 | 0x0015      |          21 |
|     344 | 0x0016      |          22 |
|     345 | 0x0065      |         101 |
|     346 | 0x0067      |         103 |

## String References

- **12454**: Where are they? [I stopped them!/They left./Who knows?]

## Events

### Event 65535

#### Metadata

| Field        | Value     |
|--------------|-----------|
| Entrypoint   | 0x0000    |
| Data Size    | 658 bytes |
| Instructions | 1         |

```
      00 01 02 03 04 05 06 07  08 09 0A 0B 0C 0D 0E 0F
      -- -- -- -- -- -- -- --  -- -- -- -- -- -- -- --
0000: 00 45 00 80 F0 FF FF 7F  F0 FF FF 7F 66 64 69 30  .E..........fdi0
0010: 01 80 55 00 80 F0 FF FF  7F F0 FF FF 7F 66 64 69  ..U..........fdi
0020: 30 1B 45 00 80 F0 FF FF  7F F0 FF FF 7F 66 64 6F  0.E..........fdo
0030: 30 01 80 55 00 80 F0 FF  FF 7F F0 FF FF 7F 66 64  0..U..........fd
0040: 6F 30 1B 45 00 80 F0 FF  FF 7F F0 FF FF 7F 66 64  o0.E..........fd
0050: 69 31 01 80 55 00 80 F0  FF FF 7F F0 FF FF 7F 66  i1..U..........f
0060: 64 69 31 1B 45 00 80 F0  FF FF 7F F0 FF FF 7F 66  di1.E..........f
0070: 64 6F 31 01 80 55 00 80  F0 FF FF 7F F0 FF FF 7F  do1..U..........
0080: 66 64 6F 31 1B 45 02 80  F0 FF FF 7F F0 FF FF 7F  fdo1.E..........
0090: 77 68 69 31 01 80 55 02  80 F0 FF FF 7F F0 FF FF  whi1..U.........
00A0: 7F 77 68 69 31 1B 45 02  80 F0 FF FF 7F F0 FF FF  .whi1.E.........
00B0: 7F 77 68 6F 31 01 80 55  02 80 F0 FF FF 7F F0 FF  .who1..U........
00C0: FF 7F 77 68 6F 31 1B 45  02 80 F0 FF FF 7F F0 FF  ..who1.E........
00D0: FF 7F 77 68 6F 32 01 80  55 02 80 F0 FF FF 7F F0  ..who2..U.......
00E0: FF FF 7F 77 68 6F 32 1B  45 02 80 F0 FF FF 7F F0  ...who2.E.......
00F0: FF FF 7F 77 68 6F 33 01  80 55 02 80 F0 FF FF 7F  ...who3..U......
0100: F0 FF FF 7F 77 68 6F 33  1B 62 03 80 F0 FF FF 7F  ....who3.b......
0110: F0 FF FF 7F 6D 61 69 6E  01 80 1C 04 80 45 00 80  ....main.....E..
0120: F0 FF FF 7F F0 FF FF 7F  66 64 6F 31 01 80 55 00  ........fdo1..U.
0130: 80 F0 FF FF 7F F0 FF FF  7F 66 64 6F 31 1B 45 00  .........fdo1.E.
0140: 80 F0 FF FF 7F F0 FF FF  7F 66 64 69 31 01 80 62  .........fdi1..b
0150: 05 80 F0 FF FF 7F F0 FF  FF 7F 6D 61 69 6E 01 80  ..........main..
0160: 1C 06 80 55 00 80 F0 FF  FF 7F F0 FF FF 7F 66 64  ...U..........fd
0170: 69 31 1B 45 00 80 F0 FF  FF 7F F0 FF FF 7F 62 6C  i1.E..........bl
0180: 6F 6E 01 80 45 02 80 F0  FF FF 7F F0 FF FF 7F 62  on..E..........b
0190: 6C 6F 6E 01 80 1B 45 02  80 F0 FF FF 7F F0 FF FF  lon...E.........
01A0: 7F 77 68 69 30 01 80 55  02 80 F0 FF FF 7F F0 FF  .whi0..U........
01B0: FF 7F 77 68 69 30 1B 45  02 80 F0 FF FF 7F F0 FF  ..whi0.E........
01C0: FF 7F 77 68 6F 30 01 80  55 02 80 F0 FF FF 7F F0  ..who0..U.......
01D0: FF FF 7F 77 68 6F 30 1B  45 07 80 F0 FF FF 7F F0  ...who0.E.......
01E0: FF FF 7F 65 66 6F 6E 01  80 55 07 80 F0 FF FF 7F  ...efon..U......
01F0: F0 FF FF 7F 65 66 6F 6E  1B 45 00 80 F0 FF FF 7F  ....efon.E......
0200: F0 FF FF 7F 66 64 69 73  01 80 1B 45 00 80 F0 FF  ....fdis...E....
0210: FF 7F F0 FF FF 7F 66 64  6F 73 01 80 55 00 80 F0  ......fdos..U...
0220: FF FF 7F F0 FF FF 7F 66  64 6F 73 1B 45 00 80 F0  .......fdos.E...
0230: FF FF 7F F0 FF FF 7F 66  64 69 66 01 80 1B 45 00  .......fdif...E.
0240: 80 F0 FF FF 7F F0 FF FF  7F 66 64 6F 66 01 80 55  .........fdof..U
0250: 00 80 F0 FF FF 7F F0 FF  FF 7F 66 64 6F 66 1B 45  ..........fdof.E
0260: 00 80 F0 FF FF 7F F0 FF  FF 7F 66 64 69 70 01 80  ..........fdip..
0270: 1B 45 00 80 F0 FF FF 7F  F0 FF FF 7F 66 64 6F 70  .E..........fdop
0280: 01 80 55 00 80 F0 FF FF  7F F0 FF FF 7F 66 64 6F  ..U..........fdo
0290: 70 1B                                             p.              
```

#### Opcodes

```
  0: 0x0000 [0x00] END_REQSTACK()
```

#### Data or dead code:

```
# Dead code (unreachable instructions):
     0x0001 [0x45] LOAD_SCHEDULED_TASK: Load scheduler "fdi0" with entities [LocalPlayer, LocalPlayer], work=[200*, 0*]
     0x0012 [0x55] WAIT_LOAD_SCHEDULER: Wait for scheduler "fdi0" with entities [LocalPlayer, LocalPlayer], work=200*
     0x0021 [0x1B] RETURN
     0x0022 [0x45] LOAD_SCHEDULED_TASK: Load scheduler "fdo0" with entities [LocalPlayer, LocalPlayer], work=[200*, 0*]
     0x0033 [0x55] WAIT_LOAD_SCHEDULER: Wait for scheduler "fdo0" with entities [LocalPlayer, LocalPlayer], work=200*
     0x0042 [0x1B] RETURN
     0x0043 [0x45] LOAD_SCHEDULED_TASK: Load scheduler "fdi1" with entities [LocalPlayer, LocalPlayer], work=[200*, 0*]
     0x0054 [0x55] WAIT_LOAD_SCHEDULER: Wait for scheduler "fdi1" with entities [LocalPlayer, LocalPlayer], work=200*
     0x0063 [0x1B] RETURN
     0x0064 [0x45] LOAD_SCHEDULED_TASK: Load scheduler "fdo1" with entities [LocalPlayer, LocalPlayer], work=[200*, 0*]
     0x0075 [0x55] WAIT_LOAD_SCHEDULER: Wait for scheduler "fdo1" with entities [LocalPlayer, LocalPlayer], work=200*
     0x0084 [0x1B] RETURN
     0x0085 [0x45] LOAD_SCHEDULED_TASK: Load scheduler "whi1" with entities [LocalPlayer, LocalPlayer], work=[201*, 0*]
     0x0096 [0x55] WAIT_LOAD_SCHEDULER: Wait for scheduler "whi1" with entities [LocalPlayer, LocalPlayer], work=201*
     0x00A5 [0x1B] RETURN
     0x00A6 [0x45] LOAD_SCHEDULED_TASK: Load scheduler "who1" with entities [LocalPlayer, LocalPlayer], work=[201*, 0*]
     0x00B7 [0x55] WAIT_LOAD_SCHEDULER: Wait for scheduler "who1" with entities [LocalPlayer, LocalPlayer], work=201*
     0x00C6 [0x1B] RETURN
     0x00C7 [0x45] LOAD_SCHEDULED_TASK: Load scheduler "who2" with entities [LocalPlayer, LocalPlayer], work=[201*, 0*]
     0x00D8 [0x55] WAIT_LOAD_SCHEDULER: Wait for scheduler "who2" with entities [LocalPlayer, LocalPlayer], work=201*
     0x00E7 [0x1B] RETURN
     0x00E8 [0x45] LOAD_SCHEDULED_TASK: Load scheduler "who3" with entities [LocalPlayer, LocalPlayer], work=[201*, 0*]
     0x00F9 [0x55] WAIT_LOAD_SCHEDULER: Wait for scheduler "who3" with entities [LocalPlayer, LocalPlayer], work=201*
     0x0108 [0x1B] RETURN
     0x0109 [0x62] LOAD_EVENT_SCHEDULER: Load scheduler "main" with entities [LocalPlayer, LocalPlayer], work=[1*, 0*]
     0x011A [0x1C] WAIT(45* ticks)
     0x011D [0x45] LOAD_SCHEDULED_TASK: Load scheduler "fdo1" with entities [LocalPlayer, LocalPlayer], work=[200*, 0*]
     0x012E [0x55] WAIT_LOAD_SCHEDULER: Wait for scheduler "fdo1" with entities [LocalPlayer, LocalPlayer], work=200*
     0x013D [0x1B] RETURN
     0x013E [0x45] LOAD_SCHEDULED_TASK: Load scheduler "fdi1" with entities [LocalPlayer, LocalPlayer], work=[200*, 0*]
     0x014F [0x62] LOAD_EVENT_SCHEDULER: Load scheduler "main" with entities [LocalPlayer, LocalPlayer], work=[2*, 0*]
     0x0160 [0x1C] WAIT(30* ticks)
     0x0163 [0x55] WAIT_LOAD_SCHEDULER: Wait for scheduler "fdi1" with entities [LocalPlayer, LocalPlayer], work=200*
     0x0172 [0x1B] RETURN
     0x0173 [0x45] LOAD_SCHEDULED_TASK: Load scheduler "blon" with entities [LocalPlayer, LocalPlayer], work=[200*, 0*]
     0x0184 [0x45] LOAD_SCHEDULED_TASK: Load scheduler "blon" with entities [LocalPlayer, LocalPlayer], work=[201*, 0*]
     0x0195 [0x1B] RETURN
     0x0196 [0x45] LOAD_SCHEDULED_TASK: Load scheduler "whi0" with entities [LocalPlayer, LocalPlayer], work=[201*, 0*]
     0x01A7 [0x55] WAIT_LOAD_SCHEDULER: Wait for scheduler "whi0" with entities [LocalPlayer, LocalPlayer], work=201*
     0x01B6 [0x1B] RETURN
     0x01B7 [0x45] LOAD_SCHEDULED_TASK: Load scheduler "who0" with entities [LocalPlayer, LocalPlayer], work=[201*, 0*]
     0x01C8 [0x55] WAIT_LOAD_SCHEDULER: Wait for scheduler "who0" with entities [LocalPlayer, LocalPlayer], work=201*
     0x01D7 [0x1B] RETURN
     0x01D8 [0x45] LOAD_SCHEDULED_TASK: Load scheduler "efon" with entities [LocalPlayer, LocalPlayer], work=[215*, 0*]
     0x01E9 [0x55] WAIT_LOAD_SCHEDULER: Wait for scheduler "efon" with entities [LocalPlayer, LocalPlayer], work=215*
     0x01F8 [0x1B] RETURN
     0x01F9 [0x45] LOAD_SCHEDULED_TASK: Load scheduler "fdis" with entities [LocalPlayer, LocalPlayer], work=[200*, 0*]
     0x020A [0x1B] RETURN
     0x020B [0x45] LOAD_SCHEDULED_TASK: Load scheduler "fdos" with entities [LocalPlayer, LocalPlayer], work=[200*, 0*]
     0x021C [0x55] WAIT_LOAD_SCHEDULER: Wait for scheduler "fdos" with entities [LocalPlayer, LocalPlayer], work=200*
     0x022B [0x1B] RETURN
     0x022C [0x45] LOAD_SCHEDULED_TASK: Load scheduler "fdif" with entities [LocalPlayer, LocalPlayer], work=[200*, 0*]
     0x023D [0x1B] RETURN
     0x023E [0x45] LOAD_SCHEDULED_TASK: Load scheduler "fdof" with entities [LocalPlayer, LocalPlayer], work=[200*, 0*]
     0x024F [0x55] WAIT_LOAD_SCHEDULER: Wait for scheduler "fdof" with entities [LocalPlayer, LocalPlayer], work=200*
     0x025E [0x1B] RETURN
     0x025F [0x45] LOAD_SCHEDULED_TASK: Load scheduler "fdip" with entities [LocalPlayer, LocalPlayer], work=[200*, 0*]
     0x0270 [0x1B] RETURN
     0x0271 [0x45] LOAD_SCHEDULED_TASK: Load scheduler "fdop" with entities [LocalPlayer, LocalPlayer], work=[200*, 0*]
     0x0282 [0x55] WAIT_LOAD_SCHEDULER: Wait for scheduler "fdop" with entities [LocalPlayer, LocalPlayer], work=200*
     0x0291 [0x1B] RETURN
```

### Event 919

#### Metadata

| Field        | Value      |
|--------------|------------|
| Entrypoint   | 0x0292     |
| Data Size    | 8835 bytes |
| Instructions | 1050       |

```
      00 01 02 03 04 05 06 07  08 09 0A 0B 0C 0D 0E 0F
      -- -- -- -- -- -- -- --  -- -- -- -- -- -- -- --
0290:       42 03 01 00 03 10  03 02 00 04 10 1A 64 00    B...........d.
02A0: 46 01 38 08 80 2F 00 9F  32 07 01 2F 00 A0 32 07  F.8../..2../..2.
02B0: 01 2F 00 A1 32 07 01 2F  00 A2 32 07 01 2F 00 A4  ./..2../..2../..
02C0: 32 07 01 2F 00 A5 32 07  01 2F 00 A6 32 07 01 2F  2../..2../..2../
02D0: 00 A8 32 07 01 2F 00 A9  32 07 01 2F 00 AA 32 07  ..2../..2../..2.
02E0: 01 2F 00 AB 32 07 01 2F  00 AC 32 07 01 2F 00 AD  ./..2../..2../..
02F0: 32 07 01 2F 00 9C 32 07  01 4E 00 9F 32 07 01 4E  2../..2..N..2..N
0300: 00 A0 32 07 01 4E 00 A1  32 07 01 4E 00 A2 32 07  ..2..N..2..N..2.
0310: 01 4E 00 A4 32 07 01 4E  00 A5 32 07 01 4E 00 A6  .N..2..N..2..N..
0320: 32 07 01 4E 00 A8 32 07  01 4E 00 A9 32 07 01 4E  2..N..2..N..2..N
0330: 00 AA 32 07 01 4E 00 AB  32 07 01 4E 00 AC 32 07  ..2..N..2..N..2.
0340: 01 4E 00 AD 32 07 01 4E  00 9C 32 07 01 29 10 9C  .N..2..N..2..)..
0350: 32 07 01 03 59 05 9C 32  07 01 01 94 01 9F 32 07  2...Y..2......2.
0360: 01 94 01 A0 32 07 01 94  01 A1 32 07 01 94 01 A2  ....2.....2.....
0370: 32 07 01 94 01 A4 32 07  01 94 01 A5 32 07 01 94  2.....2.....2...
0380: 01 A6 32 07 01 94 01 A8  32 07 01 94 01 A9 32 07  ..2.....2.....2.
0390: 01 94 01 AA 32 07 01 94  01 AB 32 07 01 94 01 AC  ....2.....2.....
03A0: 32 07 01 94 01 AD 32 07  01 94 01 9C 32 07 01 94  2.....2.....2...
03B0: 01 F0 FF FF 7F BA 9F 32  07 01 09 80 0A 80 0B 80  .......2........
03C0: 0C 80 BA A0 32 07 01 0D  80 0E 80 0F 80 10 80 BA  ....2...........
03D0: A1 32 07 01 11 80 12 80  13 80 14 80 BA A2 32 07  .2............2.
03E0: 01 15 80 16 80 17 80 18  80 BA A4 32 07 01 19 80  ...........2....
03F0: 1A 80 1B 80 1C 80 BA A5  32 07 01 1D 80 1E 80 1F  ........2.......
0400: 80 20 80 BA A6 32 07 01  21 80 22 80 23 80 24 80  . ...2..!.".#.$.
0410: BA A8 32 07 01 25 80 26  80 27 80 28 80 BA A9 32  ..2..%.&.'.(...2
0420: 07 01 29 80 2A 80 2B 80  2C 80 BA AA 32 07 01 2D  ..).*.+.,...2..-
0430: 80 2E 80 2F 80 30 80 BA  AB 32 07 01 31 80 32 80  .../.0...2..1.2.
0440: 33 80 34 80 BA AC 32 07  01 35 80 36 80 37 80 38  3.4...2..5.6.7.8
0450: 80 BA AD 32 07 01 39 80  3A 80 3B 80 3C 80 BA 9C  ...2..9.:.;.<...
0460: 32 07 01 3D 80 3E 80 3F  80 40 80 BA F0 FF FF 7F  2..=.>.?.@......
0470: 41 80 42 80 43 80 44 80  80 9F 32 07 01 80 A0 32  A.B.C.D...2....2
0480: 07 01 80 A1 32 07 01 80  A2 32 07 01 80 A4 32 07  ....2....2....2.
0490: 01 80 A5 32 07 01 80 A6  32 07 01 80 A8 32 07 01  ...2....2....2..
04A0: 80 A9 32 07 01 80 AA 32  07 01 80 AB 32 07 01 80  ..2....2....2...
04B0: AC 32 07 01 80 AD 32 07  01 80 9C 32 07 01 80 F0  .2....2....2....
04C0: FF FF 7F 4A A6 32 07 01  9C 32 07 01 1C 45 80 45  ...J.2...2...E.E
04D0: 46 80 F8 FF FF 7F F8 FF  FF 7F 73 61 30 30 01 80  F.........sa00..
04E0: 1A 43 00 1C 47 80 5C 00  01 80 5C 01 01 80 9A 27  .C..G.\...\....'
04F0: 10 F0 FF FF 7F 14 1C 06  80 52 46 80 F8 FF FF 7F  .........RF.....
0500: F8 FF FF 7F 73 61 30 30  02 87 7F 48 80 80 24 05  ....sa00...H..$.
0510: 45 46 80 F8 FF FF 7F F8  FF FF 7F 73 74 30 30 01  EF.........st00.
0520: 80 01 51 05 02 87 7F 49  80 80 40 05 45 46 80 F8  ..Q....I..@.EF..
0530: FF FF 7F F8 FF FF 7F 73  74 30 30 01 80 01 51 05  .......st00...Q.
0540: 45 46 80 F8 FF FF 7F F8  FF FF 7F 73 30 30 30 01  EF.........s000.
0550: 80 1C 4A 80 33 01 02 87  7F 4B 80 80 68 05 36 4C  ..J.3....K..h.6L
0560: 80 4D 80 4E 80 01 93 05  02 87 7F 4F 80 80 7A 05  .M.N.......O..z.
0570: 36 4C 80 4D 80 4E 80 01  93 05 02 87 7F 50 80 80  6L.M.N.......P..
0580: 8C 05 36 4C 80 4D 80 4E  80 01 93 05 36 4C 80 4D  ..6L.M.N....6L.M
0590: 80 51 80 2A 10 F0 FF FF  7F 1C 52 80 02 87 7F 48  .Q.*......R....H
05A0: 80 80 B6 05 52 46 80 F8  FF FF 7F F8 FF FF 7F 73  ....RF.........s
05B0: 74 30 30 01 DF 05 02 87  7F 49 80 80 D0 05 52 46  t00......I....RF
05C0: 80 F8 FF FF 7F F8 FF FF  7F 73 74 30 30 01 DF 05  .........st00...
05D0: 52 46 80 F8 FF FF 7F F8  FF FF 7F 73 30 30 30 02  RF.........s000.
05E0: 87 7F 05 80 80 FB 05 45  46 80 F8 FF FF 7F F8 FF  .......EF.......
05F0: FF 7F 73 68 30 31 01 80  01 B4 06 02 87 7F 4B 80  ..sh01........K.
0600: 80 17 06 45 46 80 F8 FF  FF 7F F8 FF FF 7F 73 67  ...EF.........sg
0610: 30 31 01 80 01 B4 06 02  87 7F 4F 80 80 33 06 45  01........O..3.E
0620: 46 80 F8 FF FF 7F F8 FF  FF 7F 73 65 30 31 01 80  F.........se01..
0630: 01 B4 06 02 87 7F 48 80  80 4F 06 45 46 80 F8 FF  ......H..O.EF...
0640: FF 7F F8 FF FF 7F 73 74  30 31 01 80 01 B4 06 02  ......st01......
0650: 87 7F 49 80 80 6B 06 45  46 80 F8 FF FF 7F F8 FF  ..I..k.EF.......
0660: FF 7F 73 74 30 31 01 80  01 B4 06 02 87 7F 53 80  ..st01........S.
0670: 80 87 06 45 46 80 F8 FF  FF 7F F8 FF FF 7F 73 6D  ...EF.........sm
0680: 30 31 01 80 01 B4 06 02  87 7F 50 80 80 A3 06 45  01........P....E
0690: 46 80 F8 FF FF 7F F8 FF  FF 7F 73 67 30 31 01 80  F.........sg01..
06A0: 01 B4 06 45 46 80 F8 FF  FF 7F F8 FF FF 7F 73 30  ...EF.........s0
06B0: 30 31 01 80 59 03 F0 FF  FF 7F 00 80 79 00 F0 FF  01..Y.......y...
06C0: FF 7F F8 FF FF 7F 1C 54  80 27 10 AB 32 07 01 02  .......T.'..2...
06D0: 1C 52 80 27 10 AC 32 07  01 02 1C 48 80 27 10 AD  .R.'..2....H.'..
06E0: 32 07 01 02 02 87 7F 4B  80 80 F6 06 36 55 80 56  2......K....6U.V
06F0: 80 57 80 01 21 07 02 87  7F 4F 80 80 08 07 36 55  .W..!....O....6U
0700: 80 56 80 57 80 01 21 07  02 87 7F 50 80 80 1A 07  .V.W..!....P....
0710: 36 55 80 56 80 57 80 01  21 07 36 55 80 56 80 58  6U.V.W..!.6U.V.X
0720: 80 1C 54 80 7B F0 FF FF  7F 02 87 7F 4B 80 80 3B  ..T.{.......K..;
0730: 07 36 59 80 5A 80 5B 80  01 66 07 02 87 7F 4F 80  .6Y.Z.[..f....O.
0740: 80 4D 07 36 59 80 5A 80  5B 80 01 66 07 02 87 7F  .M.6Y.Z.[..f....
0750: 50 80 80 5F 07 36 59 80  5A 80 5B 80 01 66 07 36  P.._.6Y.Z.[..f.6
0760: 59 80 5A 80 5C 80 59 03  F0 FF FF 7F 00 80 79 00  Y.Z.\.Y.......y.
0770: F0 FF FF 7F F8 FF FF 7F  1C 5D 80 59 03 F0 FF FF  .........].Y....
0780: 7F 5E 80 02 87 7F 05 80  80 AE 07 52 46 80 F8 FF  .^.........RF...
0790: FF 7F F8 FF FF 7F 73 68  30 31 45 46 80 F8 FF FF  ......sh01EF....
07A0: 7F F8 FF FF 7F 73 67 30  32 01 80 01 D0 08 02 87  .....sg02.......
07B0: 7F 4B 80 80 D9 07 52 46  80 F8 FF FF 7F F8 FF FF  .K....RF........
07C0: 7F 73 67 30 31 45 46 80  F8 FF FF 7F F8 FF FF 7F  .sg01EF.........
07D0: 73 67 30 32 01 80 01 D0  08 02 87 7F 4F 80 80 04  sg02........O...
07E0: 08 52 46 80 F8 FF FF 7F  F8 FF FF 7F 73 65 30 31  .RF.........se01
07F0: 45 46 80 F8 FF FF 7F F8  FF FF 7F 73 67 30 32 01  EF.........sg02.
0800: 80 01 D0 08 02 87 7F 48  80 80 2F 08 52 46 80 F8  .......H../.RF..
0810: FF FF 7F F8 FF FF 7F 73  74 30 31 45 46 80 F8 FF  .......st01EF...
0820: FF 7F F8 FF FF 7F 73 74  30 32 01 80 01 D0 08 02  ......st02......
0830: 87 7F 49 80 80 5A 08 52  46 80 F8 FF FF 7F F8 FF  ..I..Z.RF.......
0840: FF 7F 73 74 30 31 45 46  80 F8 FF FF 7F F8 FF FF  ..st01EF........
0850: 7F 73 74 30 32 01 80 01  D0 08 02 87 7F 53 80 80  .st02........S..
0860: 85 08 52 46 80 F8 FF FF  7F F8 FF FF 7F 73 74 30  ..RF.........st0
0870: 31 45 46 80 F8 FF FF 7F  F8 FF FF 7F 73 74 30 32  1EF.........st02
0880: 01 80 01 D0 08 02 87 7F  50 80 80 B0 08 52 46 80  ........P....RF.
0890: F8 FF FF 7F F8 FF FF 7F  73 6D 30 31 45 46 80 F8  ........sm01EF..
08A0: FF FF 7F F8 FF FF 7F 73  30 30 32 01 80 01 D0 08  .......s002.....
08B0: 52 46 80 F8 FF FF 7F F8  FF FF 7F 73 30 30 31 45  RF.........s001E
08C0: 46 80 F8 FF FF 7F F8 FF  FF 7F 73 30 30 32 01 80  F.........s002..
08D0: 1C 5F 80 1A 64 00 1C 60  80 5C 00 61 80 5C 01 61  ._..d..`.\.a.\.a
08E0: 80 9A 27 10 9F 32 07 01  03 27 10 A0 32 07 01 03  ..'..2...'..2...
08F0: 27 10 A1 32 07 01 03 27  10 A2 32 07 01 03 27 10  '..2...'..2...'.
0900: A4 32 07 01 03 1C 48 80  27 10 A5 32 07 01 03 1C  .2....H.'..2....
0910: 48 80 02 87 7F 4B 80 80  2C 09 52 46 80 F8 FF FF  H....K..,.RF....
0920: 7F F8 FF FF 7F 73 67 30  32 01 A3 09 02 87 7F 4F  .....sg02......O
0930: 80 80 46 09 52 46 80 F8  FF FF 7F F8 FF FF 7F 73  ..F.RF.........s
0940: 67 30 32 01 A3 09 02 87  7F 48 80 80 60 09 52 46  g02......H..`.RF
0950: 80 F8 FF FF 7F F8 FF FF  7F 73 74 30 32 01 A3 09  .........st02...
0960: 02 87 7F 49 80 80 7A 09  52 46 80 F8 FF FF 7F F8  ...I..z.RF......
0970: FF FF 7F 73 74 30 32 01  A3 09 02 87 7F 50 80 80  ...st02......P..
0980: 94 09 52 46 80 F8 FF FF  7F F8 FF FF 7F 73 67 30  ..RF.........sg0
0990: 32 01 A3 09 52 46 80 F8  FF FF 7F F8 FF FF 7F 73  2...RF.........s
09A0: 30 30 32 45 46 80 F8 FF  FF 7F F8 FF FF 7F 73 30  002EF.........s0
09B0: 30 33 01 80 1A 43 00 1C  06 80 52 46 80 F8 FF FF  03...C....RF....
09C0: 7F F8 FF FF 7F 73 30 30  33 02 87 7F 4B 80 80 E5  .....s003...K...
09D0: 09 45 46 80 F8 FF FF 7F  F8 FF FF 7F 73 67 30 34  .EF.........sg04
09E0: 01 80 01 66 0A 02 87 7F  4F 80 80 01 0A 45 46 80  ...f....O....EF.
09F0: F8 FF FF 7F F8 FF FF 7F  73 67 30 34 01 80 01 66  ........sg04...f
0A00: 0A 02 87 7F 48 80 80 1D  0A 45 46 80 F8 FF FF 7F  ....H....EF.....
0A10: F8 FF FF 7F 73 74 30 34  01 80 01 66 0A 02 87 7F  ....st04...f....
0A20: 49 80 80 39 0A 45 46 80  F8 FF FF 7F F8 FF FF 7F  I..9.EF.........
0A30: 73 74 30 34 01 80 01 66  0A 02 87 7F 50 80 80 55  st04...f....P..U
0A40: 0A 45 46 80 F8 FF FF 7F  F8 FF FF 7F 73 67 30 34  .EF.........sg04
0A50: 01 80 01 66 0A 45 46 80  F8 FF FF 7F F8 FF FF 7F  ...f.EF.........
0A60: 73 30 30 34 01 80 2A 10  9F 32 07 01 5B 62 80 9F  s004..*..2..[b..
0A70: 32 07 01 9F 32 07 01 74  6C 6B 30 2B 9F 32 07 01  2...2..tlk0+.2..
0A80: 63 80 1C 06 80 7B F0 FF  FF 7F 4A F0 FF FF 7F 9F  c....{....J.....
0A90: 32 07 01 1C 60 80 23 5B  62 80 9F 32 07 01 9F 32  2...`.#[b..2...2
0AA0: 07 01 74 6C 6B 65 7A 00  AB 32 07 01 7A 00 AC 32  ..tlkez..2..z..2
0AB0: 07 01 7A 00 AD 32 07 01  4E 01 AB 32 07 01 4E 01  ..z..2..N..2..N.
0AC0: AC 32 07 01 4E 01 AD 32  07 01 6F 76 F0 FF FF 7F  .2..N..2..ov....
0AD0: 24 64 80 01 80 01 80 25  02 00 10 01 80 00 45 0E  $d.....%......E.
0AE0: 29 10 F0 FF FF 7F 13 1C  54 80 02 87 7F 4B 80 80  ).......T....K..
0AF0: 04 0B 52 46 80 F8 FF FF  7F F8 FF FF 7F 73 67 30  ..RF.........sg0
0B00: 34 01 7B 0B 02 87 7F 4F  80 80 1E 0B 52 46 80 F8  4.{....O....RF..
0B10: FF FF 7F F8 FF FF 7F 73  67 30 34 01 7B 0B 02 87  .......sg04.{...
0B20: 7F 48 80 80 38 0B 52 46  80 F8 FF FF 7F F8 FF FF  .H..8.RF........
0B30: 7F 73 74 30 34 01 7B 0B  02 87 7F 49 80 80 52 0B  .st04.{....I..R.
0B40: 52 46 80 F8 FF FF 7F F8  FF FF 7F 73 74 30 34 01  RF.........st04.
0B50: 7B 0B 02 87 7F 50 80 80  6C 0B 52 46 80 F8 FF FF  {....P..l.RF....
0B60: 7F F8 FF FF 7F 73 67 30  34 01 7B 0B 52 46 80 F8  .....sg04.{.RF..
0B70: FF FF 7F F8 FF FF 7F 73  30 30 34 45 46 80 F8 FF  .......s004EF...
0B80: FF 7F F8 FF FF 7F 73 30  30 35 01 80 5B 62 80 A2  ......s005..[b..
0B90: 32 07 01 A2 32 07 01 74  6C 6B 30 2B A2 32 07 01  2...2..tlk0+.2..
0BA0: 65 80 1C 4A 80 23 5B 62  80 A2 32 07 01 A2 32 07  e..J.#[b..2...2.
0BB0: 01 74 6C 6B 65 4A 9F 32  07 01 A2 32 07 01 52 46  .tlkeJ.2...2..RF
0BC0: 80 F8 FF FF 7F F8 FF FF  7F 73 30 30 35 45 46 80  .........s005EF.
0BD0: F8 FF FF 7F F8 FF FF 7F  73 30 30 36 01 80 6F 76  ........s006..ov
0BE0: 9F 32 07 01 5B 62 80 9F  32 07 01 9F 32 07 01 73  .2..[b..2...2..s
0BF0: 75 72 30 2B 9F 32 07 01  66 80 1C 4A 80 23 4A 9F  ur0+.2..f..J.#J.
0C00: 32 07 01 F0 FF FF 7F 52  46 80 F8 FF FF 7F F8 FF  2......RF.......
0C10: FF 7F 73 30 30 36 02 87  7F 4B 80 80 32 0C 45 46  ..s006...K..2.EF
0C20: 80 F8 FF FF 7F F8 FF FF  7F 73 67 30 37 01 80 01  .........sg07...
0C30: B3 0C 02 87 7F 4F 80 80  4E 0C 45 46 80 F8 FF FF  .....O..N.EF....
0C40: 7F F8 FF FF 7F 73 67 30  37 01 80 01 B3 0C 02 87  .....sg07.......
0C50: 7F 48 80 80 6A 0C 45 46  80 F8 FF FF 7F F8 FF FF  .H..j.EF........
0C60: 7F 73 74 30 37 01 80 01  B3 0C 02 87 7F 49 80 80  .st07........I..
0C70: 86 0C 45 46 80 F8 FF FF  7F F8 FF FF 7F 73 74 30  ..EF.........st0
0C80: 37 01 80 01 B3 0C 02 87  7F 50 80 80 A2 0C 45 46  7........P....EF
0C90: 80 F8 FF FF 7F F8 FF FF  7F 73 67 30 37 01 80 01  .........sg07...
0CA0: B3 0C 45 46 80 F8 FF FF  7F F8 FF FF 7F 73 30 30  ..EF.........s00
0CB0: 37 01 80 6F 76 9F 32 07  01 1C 52 80 5B 62 80 9F  7..ov.2...R.[b..
0CC0: 32 07 01 9F 32 07 01 74  6C 6B 31 2B 9F 32 07 01  2...2..tlk1+.2..
0CD0: 67 80 1C 60 80 23 5B 62  80 9F 32 07 01 9F 32 07  g..`.#[b..2...2.
0CE0: 01 74 6C 6B 65 7B A4 32  07 01 5B 68 80 A4 32 07  .tlke{.2..[h..2.
0CF0: 01 A4 32 07 01 6B 75 6E  30 1C 54 80 02 87 7F 4B  ..2..kun0.T....K
0D00: 80 80 16 0D 52 46 80 F8  FF FF 7F F8 FF FF 7F 73  ....RF.........s
0D10: 67 30 37 01 8D 0D 02 87  7F 4F 80 80 30 0D 52 46  g07......O..0.RF
0D20: 80 F8 FF FF 7F F8 FF FF  7F 73 67 30 37 01 8D 0D  .........sg07...
0D30: 02 87 7F 48 80 80 4A 0D  52 46 80 F8 FF FF 7F F8  ...H..J.RF......
0D40: FF FF 7F 73 74 30 37 01  8D 0D 02 87 7F 49 80 80  ...st07......I..
0D50: 64 0D 52 46 80 F8 FF FF  7F F8 FF FF 7F 73 74 30  d.RF.........st0
0D60: 37 01 8D 0D 02 87 7F 50  80 80 7E 0D 52 46 80 F8  7......P..~.RF..
0D70: FF FF 7F F8 FF FF 7F 73  67 30 37 01 8D 0D 52 46  .......sg07...RF
0D80: 80 F8 FF FF 7F F8 FF FF  7F 73 30 30 37 45 46 80  .........s007EF.
0D90: F8 FF FF 7F F8 FF FF 7F  73 30 30 38 01 80 2B A4  ........s008..+.
0DA0: 32 07 01 69 80 1C 4A 80  5B 68 80 A4 32 07 01 A4  2..i..J.[h..2...
0DB0: 32 07 01 6B 75 6E 31 1C  54 80 27 10 A4 32 07 01  2..kun1.T.'..2..
0DC0: 04 1C 52 80 52 46 80 F8  FF FF 7F F8 FF FF 7F 73  ..R.RF.........s
0DD0: 30 30 38 45 46 80 F8 FF  FF 7F F8 FF FF 7F 73 30  008EF.........s0
0DE0: 30 39 01 80 2A 10 A4 32  07 01 4A 9F 32 07 01 A4  09..*..2..J.2...
0DF0: 32 07 01 1C 52 80 4A A0  32 07 01 A4 32 07 01 1C  2...R.J.2...2...
0E00: 48 80 4A A1 32 07 01 A4  32 07 01 1C 52 80 4A A2  H.J.2...2...R.J.
0E10: 32 07 01 A4 32 07 01 1C  48 80 4A A5 32 07 01 A4  2...2...H.J.2...
0E20: 32 07 01 1C 48 80 4A F0  FF FF 7F A4 32 07 01 23  2...H.J.....2..#
0E30: 1C 54 80 52 46 80 F8 FF  FF 7F F8 FF FF 7F 73 30  .T.RF.........s0
0E40: 30 39 01 0E 11 02 00 10  03 80 00 4E 0F 29 10 F0  09.........N.)..
0E50: FF FF 7F 13 1C 54 80 02  87 7F 4B 80 80 71 0E 52  .....T....K..q.R
0E60: 46 80 F8 FF FF 7F F8 FF  FF 7F 73 67 30 34 01 E8  F.........sg04..
0E70: 0E 02 87 7F 4F 80 80 8B  0E 52 46 80 F8 FF FF 7F  ....O....RF.....
0E80: F8 FF FF 7F 73 67 30 34  01 E8 0E 02 87 7F 48 80  ....sg04......H.
0E90: 80 A5 0E 52 46 80 F8 FF  FF 7F F8 FF FF 7F 73 74  ...RF.........st
0EA0: 30 34 01 E8 0E 02 87 7F  49 80 80 BF 0E 52 46 80  04......I....RF.
0EB0: F8 FF FF 7F F8 FF FF 7F  73 74 30 34 01 E8 0E 02  ........st04....
0EC0: 87 7F 50 80 80 D9 0E 52  46 80 F8 FF FF 7F F8 FF  ..P....RF.......
0ED0: FF 7F 73 67 30 34 01 E8  0E 52 46 80 F8 FF FF 7F  ..sg04...RF.....
0EE0: F8 FF FF 7F 73 30 30 34  45 46 80 F8 FF FF 7F F8  ....s004EF......
0EF0: FF FF 7F 73 30 31 30 01  80 5B 62 80 9F 32 07 01  ...s010..[b..2..
0F00: 9F 32 07 01 73 75 72 30  2B 9F 32 07 01 6A 80 1C  .2..sur0+.2..j..
0F10: 60 80 23 5B 62 80 9F 32  07 01 9F 32 07 01 74 6C  `.#[b..2...2..tl
0F20: 6B 31 2B 9F 32 07 01 6B  80 1C 4A 80 23 5B 62 80  k1+.2..k..J.#[b.
0F30: 9F 32 07 01 9F 32 07 01  74 6C 6B 65 52 46 80 F8  .2...2..tlkeRF..
0F40: FF FF 7F F8 FF FF 7F 73  30 31 30 01 0E 11 02 00  .......s010.....
0F50: 10 05 80 00 0E 11 6E F0  FF FF 7F 49 80 99 F0 FF  ......n....I....
0F60: FF 7F 1C 60 80 02 87 7F  4B 80 80 7F 0F 52 46 80  ...`....K....RF.
0F70: F8 FF FF 7F F8 FF FF 7F  73 67 30 34 01 F6 0F 02  ........sg04....
0F80: 87 7F 4F 80 80 99 0F 52  46 80 F8 FF FF 7F F8 FF  ..O....RF.......
0F90: FF 7F 73 67 30 34 01 F6  0F 02 87 7F 48 80 80 B3  ..sg04......H...
0FA0: 0F 52 46 80 F8 FF FF 7F  F8 FF FF 7F 73 74 30 34  .RF.........st04
0FB0: 01 F6 0F 02 87 7F 49 80  80 CD 0F 52 46 80 F8 FF  ......I....RF...
0FC0: FF 7F F8 FF FF 7F 73 74  30 34 01 F6 0F 02 87 7F  ......st04......
0FD0: 50 80 80 E7 0F 52 46 80  F8 FF FF 7F F8 FF FF 7F  P....RF.........
0FE0: 73 67 30 34 01 F6 0F 52  46 80 F8 FF FF 7F F8 FF  sg04...RF.......
0FF0: FF 7F 73 30 30 34 45 46  80 F8 FF FF 7F F8 FF FF  ..s004EF........
1000: 7F 73 30 31 30 01 80 5B  62 80 9F 32 07 01 9F 32  .s010..[b..2...2
1010: 07 01 74 6C 6B 31 2B 9F  32 07 01 6C 80 1C 4A 80  ..tlk1+.2..l..J.
1020: 23 5B 62 80 9F 32 07 01  9F 32 07 01 74 6C 6B 65  #[b..2...2..tlke
1030: 7B A4 32 07 01 5B 68 80  A4 32 07 01 A4 32 07 01  {.2..[h..2...2..
1040: 6B 75 6E 30 1C 54 80 52  46 80 F8 FF FF 7F F8 FF  kun0.T.RF.......
1050: FF 7F 73 30 31 30 45 46  80 F8 FF FF 7F F8 FF FF  ..s010EF........
1060: 7F 73 30 30 38 01 80 2B  A4 32 07 01 6D 80 1C 4A  .s008..+.2..m..J
1070: 80 5B 68 80 A4 32 07 01  A4 32 07 01 6B 75 6E 31  .[h..2...2..kun1
1080: 1C 54 80 27 10 A4 32 07  01 04 1C 52 80 52 46 80  .T.'..2....R.RF.
1090: F8 FF FF 7F F8 FF FF 7F  73 30 30 38 45 46 80 F8  ........s008EF..
10A0: FF FF 7F F8 FF FF 7F 73  30 30 39 01 80 2A 10 A4  .......s009..*..
10B0: 32 07 01 4A 9F 32 07 01  A4 32 07 01 1C 52 80 4A  2..J.2...2...R.J
10C0: A0 32 07 01 A4 32 07 01  1C 48 80 4A A1 32 07 01  .2...2...H.J.2..
10D0: A4 32 07 01 1C 52 80 4A  A2 32 07 01 A4 32 07 01  .2...R.J.2...2..
10E0: 1C 48 80 4A A5 32 07 01  A4 32 07 01 1C 48 80 4A  .H.J.2...2...H.J
10F0: F0 FF FF 7F A4 32 07 01  23 1C 54 80 52 46 80 F8  .....2..#.T.RF..
1100: FF FF 7F F8 FF FF 7F 73  30 30 39 01 0E 11 45 46  .......s009...EF
1110: 80 F8 FF FF 7F F8 FF FF  7F 73 30 31 31 01 80 7B  .........s011..{
1120: A5 32 07 01 27 10 A5 32  07 01 04 2A 10 A5 32 07  .2..'..2...*..2.
1130: 01 5B 68 80 A5 32 07 01  A5 32 07 01 68 69 61 30  .[h..2...2..hia0
1140: 1C 06 80 2B A5 32 07 01  6E 80 1C 5D 80 23 7B A0  ...+.2..n..].#{.
1150: 32 07 01 27 10 A0 32 07  01 04 1C 5D 80 4A 9F 32  2..'..2....].J.2
1160: 07 01 A0 32 07 01 1C 52  80 4A A1 32 07 01 A0 32  ...2...R.J.2...2
1170: 07 01 1C 52 80 4A A2 32  07 01 A0 32 07 01 1C 48  ...R.J.2...2...H
1180: 80 4A A4 32 07 01 A0 32  07 01 1C 48 80 4A F0 FF  .J.2...2...H.J..
1190: FF 7F A0 32 07 01 1C 06  80 6B 69 64 6C 30 A5 32  ...2.....kidl0.2
11A0: 07 01 52 46 80 F8 FF FF  7F F8 FF FF 7F 73 30 31  ..RF.........s01
11B0: 31 45 46 80 F8 FF FF 7F  F8 FF FF 7F 73 30 31 32  1EF.........s012
11C0: 01 80 2A 10 A0 32 07 01  1C 06 80 52 46 80 F8 FF  ..*..2.....RF...
11D0: FF 7F F8 FF FF 7F 73 30  31 32 45 46 80 F8 FF FF  ......s012EF....
11E0: 7F F8 FF FF 7F 73 61 31  32 01 80 5B 62 80 A0 32  .....sa12..[b..2
11F0: 07 01 A0 32 07 01 74 6C  6B 30 2B A0 32 07 01 6F  ...2..tlk0+.2..o
1200: 80 1C 47 80 23 5B 62 80  A0 32 07 01 A0 32 07 01  ..G.#[b..2...2..
1210: 74 6C 6B 65 52 46 80 F8  FF FF 7F F8 FF FF 7F 73  tlkeRF.........s
1220: 61 31 32 45 46 80 F8 FF  FF 7F F8 FF FF 7F 73 30  a12EF.........s0
1230: 31 33 01 80 7B 9F 32 07  01 27 10 9F 32 07 01 04  13..{.2..'..2...
1240: 7B A1 32 07 01 27 10 A1  32 07 01 04 7B A2 32 07  {.2..'..2...{.2.
1250: 01 27 10 A2 32 07 01 04  7B A4 32 07 01 27 10 A4  .'..2...{.2..'..
1260: 32 07 01 05 1C 5D 80 7B  F0 FF FF 7F 27 10 F0 FF  2....].{....'...
1270: FF 7F 15 02 00 10 03 80  00 81 12 1C 60 80 01 84  ............`...
1280: 12 1C 06 80 27 10 A5 32  07 01 05 5D 01 80 45 80  ....'..2...]..E.
1290: 52 46 80 F8 FF FF 7F F8  FF FF 7F 73 30 31 33 45  RF.........s013E
12A0: 46 80 F8 FF FF 7F F8 FF  FF 7F 73 30 31 34 01 80  F.........s014..
12B0: 1C 60 80 5B 70 80 A6 32  07 01 A6 32 07 01 67 61  .`.[p..2...2..ga
12C0: 68 30 1C 45 80 5D 71 80  45 80 1C 60 80 52 46 80  h0.E.]q.E..`.RF.
12D0: F8 FF FF 7F F8 FF FF 7F  73 30 31 34 45 46 80 F8  ........s014EF..
12E0: FF FF 7F F8 FF FF 7F 73  30 31 35 01 80 2A 10 A1  .......s015..*..
12F0: 32 07 01 5B 62 80 A1 32  07 01 A1 32 07 01 74 68  2..[b..2...2..th
1300: 6B 31 2B A1 32 07 01 72  80 1C 4A 80 23 5B 62 80  k1+.2..r..J.#[b.
1310: A1 32 07 01 A1 32 07 01  74 68 6B 32 52 46 80 F8  .2...2..thk2RF..
1320: FF FF 7F F8 FF FF 7F 73  30 31 35 45 46 80 F8 FF  .......s015EF...
1330: FF 7F F8 FF FF 7F 73 30  31 36 01 80 5B 73 80 A4  ......s016..[s..
1340: 32 07 01 A4 32 07 01 74  68 6B 31 2B A4 32 07 01  2...2..thk1+.2..
1350: 74 80 1C 4A 80 23 5B 73  80 A4 32 07 01 A4 32 07  t..J.#[s..2...2.
1360: 01 74 68 6B 32 52 46 80  F8 FF FF 7F F8 FF FF 7F  .thk2RF.........
1370: 73 30 31 36 45 46 80 F8  FF FF 7F F8 FF FF 7F 73  s016EF.........s
1380: 30 31 37 01 80 5B 62 80  A2 32 07 01 A2 32 07 01  017..[b..2...2..
1390: 6B 6F 75 30 2B A2 32 07  01 75 80 1C 4A 80 23 6B  kou0+.2..u..J.#k
13A0: 69 64 6C 30 A2 32 07 01  52 46 80 F8 FF FF 7F F8  idl0.2..RF......
13B0: FF FF 7F 73 30 31 37 45  46 80 F8 FF FF 7F F8 FF  ...s017EF.......
13C0: FF 7F 73 30 31 38 01 80  5B 62 80 A0 32 07 01 A0  ..s018..[b..2...
13D0: 32 07 01 74 68 6B 31 2B  A0 32 07 01 76 80 23 2B  2..thk1+.2..v.#+
13E0: A0 32 07 01 77 80 1C 4A  80 23 5B 62 80 A0 32 07  .2..w..J.#[b..2.
13F0: 01 A0 32 07 01 74 68 6B  32 52 46 80 F8 FF FF 7F  ..2..thk2RF.....
1400: F8 FF FF 7F 73 30 31 38  45 46 80 F8 FF FF 7F F8  ....s018EF......
1410: FF FF 7F 73 30 31 39 01  80 5B 78 80 A5 32 07 01  ...s019..[x..2..
1420: A5 32 07 01 62 69 6B 30  2B A5 32 07 01 79 80 23  .2..bik0+.2..y.#
1430: 1C 06 80 5B 7A 80 A4 32  07 01 A4 32 07 01 69 6B  ...[z..2...2..ik
1440: 72 30 2B A4 32 07 01 7B  80 23 1C 54 80 5B 7A 80  r0+.2..{.#.T.[z.
1450: A4 32 07 01 A4 32 07 01  69 6B 72 31 52 46 80 F8  .2...2..ikr1RF..
1460: FF FF 7F F8 FF FF 7F 73  30 31 39 45 46 80 F8 FF  .......s019EF...
1470: FF 7F F8 FF FF 7F 73 30  32 30 01 80 5B 62 80 9F  ......s020..[b..
1480: 32 07 01 9F 32 07 01 74  6C 6B 31 2B 9F 32 07 01  2...2..tlk1+.2..
1490: 7C 80 1C 47 80 23 5B 62  80 9F 32 07 01 9F 32 07  |..G.#[b..2...2.
14A0: 01 74 6C 6B 65 1A 64 00  6B 69 64 6C 30 A6 32 07  .tlke.d.kidl0.2.
14B0: 01 7B 9F 32 07 01 7B A0  32 07 01 7B A1 32 07 01  .{.2..{.2..{.2..
14C0: 7B A2 32 07 01 7B A4 32  07 01 7B A5 32 07 01 7B  {.2..{.2..{.2..{
14D0: F0 FF FF 7F BA 9F 32 07  01 7D 80 7E 80 7F 80 80  ......2..}.~....
14E0: 80 BA A0 32 07 01 81 80  82 80 83 80 84 80 BA A1  ...2............
14F0: 32 07 01 85 80 86 80 87  80 88 80 BA A2 32 07 01  2............2..
1500: 89 80 8A 80 8B 80 8C 80  BA A4 32 07 01 8D 80 8E  ..........2.....
1510: 80 8F 80 90 80 BA A5 32  07 01 91 80 92 80 3F 80  .......2......?.
1520: 93 80 BA F0 FF FF 7F 94  80 95 80 96 80 97 80 29  ...............)
1530: 10 F0 FF FF 7F 18 1C 98  80 52 46 80 F8 FF FF 7F  .........RF.....
1540: F8 FF FF 7F 73 30 32 30  45 46 80 F8 FF FF 7F F8  ....s020EF......
1550: FF FF 7F 73 30 32 31 01  80 1A 43 00 1C 47 80 52  ...s021...C..G.R
1560: 46 80 F8 FF FF 7F F8 FF  FF 7F 73 30 32 31 45 46  F.........s021EF
1570: 80 F8 FF FF 7F F8 FF FF  7F 73 30 32 32 01 80 5B  .........s022..[
1580: 62 80 A0 32 07 01 A0 32  07 01 74 6C 6B 30 03 04  b..2...2..tlk0..
1590: 10 99 80 2B A0 32 07 01  9A 80 1C 47 80 23 5B 62  ...+.2.....G.#[b
15A0: 80 A0 32 07 01 A0 32 07  01 74 6C 6B 65 52 46 80  ..2...2..tlkeRF.
15B0: F8 FF FF 7F F8 FF FF 7F  73 30 32 32 45 46 80 F8  ........s022EF..
15C0: FF FF 7F F8 FF FF 7F 73  30 32 33 01 80 5B 62 80  .......s023..[b.
15D0: A1 32 07 01 A1 32 07 01  74 68 6B 31 2B A1 32 07  .2...2..thk1+.2.
15E0: 01 9B 80 1C 4A 80 23 5B  62 80 A1 32 07 01 A1 32  ....J.#[b..2...2
15F0: 07 01 74 68 6B 32 52 46  80 F8 FF FF 7F F8 FF FF  ..thk2RF........
1600: 7F 73 30 32 33 45 46 80  F8 FF FF 7F F8 FF FF 7F  .s023EF.........
1610: 73 30 32 34 01 80 5B 62  80 9F 32 07 01 9F 32 07  s024..[b..2...2.
1620: 01 74 68 6B 31 2B 9F 32  07 01 9C 80 1C 4A 80 23  .thk1+.2.....J.#
1630: 5B 62 80 9F 32 07 01 9F  32 07 01 74 68 6B 32 52  [b..2...2..thk2R
1640: 46 80 F8 FF FF 7F F8 FF  FF 7F 73 30 32 34 45 46  F.........s024EF
1650: 80 F8 FF FF 7F F8 FF FF  7F 73 30 32 35 01 80 2B  .........s025..+
1660: A2 32 07 01 9D 80 23 1C  54 80 4A 9F 32 07 01 A2  .2....#.T.J.2...
1670: 32 07 01 52 46 80 F8 FF  FF 7F F8 FF FF 7F 73 30  2..RF.........s0
1680: 32 35 45 46 80 F8 FF FF  7F F8 FF FF 7F 73 30 32  25EF.........s02
1690: 36 01 80 6F 76 9F 32 07  01 5B 62 80 9F 32 07 01  6..ov.2..[b..2..
16A0: 9F 32 07 01 74 6C 6B 30  2B 9F 32 07 01 9E 80 1C  .2..tlk0+.2.....
16B0: 60 80 23 5B 62 80 9F 32  07 01 9F 32 07 01 74 6C  `.#[b..2...2..tl
16C0: 6B 65 52 46 80 F8 FF FF  7F F8 FF FF 7F 73 30 32  keRF.........s02
16D0: 36 45 46 80 F8 FF FF 7F  F8 FF FF 7F 73 30 32 37  6EF.........s027
16E0: 01 80 5B 62 80 A2 32 07  01 A2 32 07 01 6B 6F 77  ..[b..2...2..kow
16F0: 30 2B A2 32 07 01 9F 80  23 2B A2 32 07 01 A0 80  0+.2....#+.2....
1700: 7B 9F 32 07 01 4B 9F 32  07 01 80 80 1C 60 80 23  {.2..K.2.....`.#
1710: 6B 69 64 6C 30 A2 32 07  01 52 46 80 F8 FF FF 7F  kidl0.2..RF.....
1720: F8 FF FF 7F 73 30 32 37  45 46 80 F8 FF FF 7F F8  ....s027EF......
1730: FF FF 7F 73 30 32 38 01  80 6F 76 9F 32 07 01 5B  ...s028..ov.2..[
1740: 62 80 9F 32 07 01 9F 32  07 01 74 68 6B 31 2B 9F  b..2...2..thk1+.
1750: 32 07 01 A1 80 1C 4A 80  23 5B 62 80 9F 32 07 01  2.....J.#[b..2..
1760: 9F 32 07 01 74 68 6B 32  52 46 80 F8 FF FF 7F F8  .2..thk2RF......
1770: FF FF 7F 73 30 32 38 45  46 80 F8 FF FF 7F F8 FF  ...s028EF.......
1780: FF 7F 73 30 32 39 01 80  5B 62 80 A0 32 07 01 A0  ..s029..[b..2...
1790: 32 07 01 74 6C 6B 30 2B  A0 32 07 01 A2 80 1C 45  2..tlk0+.2.....E
17A0: 80 23 5B 62 80 A0 32 07  01 A0 32 07 01 74 6C 6B  .#[b..2...2..tlk
17B0: 65 52 46 80 F8 FF FF 7F  F8 FF FF 7F 73 30 32 39  eRF.........s029
17C0: 45 46 80 F8 FF FF 7F F8  FF FF 7F 73 30 33 30 01  EF.........s030.
17D0: 80 5B 73 80 A5 32 07 01  A5 32 07 01 61 77 77 30  .[s..2...2..aww0
17E0: 2B A5 32 07 01 A3 80 1C  4A 80 23 5B 73 80 A5 32  +.2.....J.#[s..2
17F0: 07 01 A5 32 07 01 61 77  77 31 5C 00 01 80 5C 01  ...2..aww1\...\.
1800: 01 80 9A 52 46 80 F8 FF  FF 7F F8 FF FF 7F 73 30  ...RF.........s0
1810: 33 30 45 46 80 F8 FF FF  7F F8 FF FF 7F 73 61 33  30EF.........sa3
1820: 31 01 80 5B 62 80 9F 32  07 01 9F 32 07 01 74 68  1..[b..2...2..th
1830: 6B 31 1C 45 80 5B 62 80  9F 32 07 01 9F 32 07 01  k1.E.[b..2...2..
1840: 74 68 6B 32 1C 06 80 27  10 9F 32 07 01 05 52 46  thk2...'..2...RF
1850: 80 F8 FF FF 7F F8 FF FF  7F 73 61 33 31 45 46 80  .........sa31EF.
1860: F8 FF FF 7F F8 FF FF 7F  73 30 33 31 01 80 45 46  ........s031..EF
1870: 80 F8 FF FF 7F F8 FF FF  7F 34 30 36 33 01 80 2B  .........4063..+
1880: 9F 32 07 01 A4 80 23 2A  10 9F 32 07 01 1C 52 80  .2....#*..2...R.
1890: 5B 62 80 9F 32 07 01 9F  32 07 01 74 6C 6B 32 1C  [b..2...2..tlk2.
18A0: 5D 80 81 00 9F 32 07 01  81 00 A0 32 07 01 81 00  ]....2.....2....
18B0: A1 32 07 01 81 00 A2 32  07 01 81 00 A5 32 07 01  .2.....2.....2..
18C0: 81 00 A4 32 07 01 52 46  80 F8 FF FF 7F F8 FF FF  ...2..RF........
18D0: 7F 73 30 33 31 45 46 80  F8 FF FF 7F F8 FF FF 7F  .s031EF.........
18E0: 62 6C 6F 6E 01 80 45 46  80 F8 FF FF 7F F8 FF FF  blon..EF........
18F0: 7F 73 30 33 32 01 80 1C  A5 80 5B 62 80 A0 32 07  .s032.....[b..2.
1900: 01 A0 32 07 01 74 6C 6B  32 2B A0 32 07 01 A6 80  ..2..tlk2+.2....
1910: 23 5B 62 80 A1 32 07 01  A1 32 07 01 74 6C 6B 32  #[b..2...2..tlk2
1920: 2B A1 32 07 01 A7 80 23  5B 78 80 A5 32 07 01 A5  +.2....#[x..2...
1930: 32 07 01 68 61 69 30 2B  A5 32 07 01 A8 80 23 5B  2..hai0+.2....#[
1940: 78 80 A4 32 07 01 A4 32  07 01 68 61 69 30 2B A4  x..2...2..hai0+.
1950: 32 07 01 A9 80 23 5B 62  80 A2 32 07 01 A2 32 07  2....#[b..2...2.
1960: 01 74 6C 6B 32 2B A2 32  07 01 AA 80 23 29 10 F0  .tlk2+.2....#)..
1970: FF FF 7F 19 1C 45 80 1A  64 00 45 46 80 F8 FF FF  .....E..d.EF....
1980: 7F F8 FF FF 7F 62 6C 6F  66 01 80 81 01 9F 32 07  .....blof.....2.
1990: 01 81 01 A0 32 07 01 81  01 A1 32 07 01 81 01 A2  ....2.....2.....
19A0: 32 07 01 81 01 A5 32 07  01 81 01 A4 32 07 01 BA  2.....2.....2...
19B0: F0 FF FF 7F AB 80 AC 80  AD 80 AE 80 BA 9F 32 07  ..............2.
19C0: 01 AF 80 B0 80 B1 80 B2  80 BA A1 32 07 01 B3 80  ...........2....
19D0: B4 80 B5 80 B6 80 BA A0  32 07 01 B7 80 B8 80 B9  ........2.......
19E0: 80 BA 80 BA A4 32 07 01  BB 80 BC 80 BD 80 BE 80  .....2..........
19F0: BA A2 32 07 01 BF 80 C0  80 C1 80 C2 80 BA A5 32  ..2............2
1A00: 07 01 C3 80 C4 80 C5 80  C6 80 66 C7 80 A6 32 07  ..........f...2.
1A10: 01 A6 32 07 01 65 68 6E  30 1C 45 80 5C 00 61 80  ..2..ehn0.E.\.a.
1A20: 5C 01 61 80 9A 27 10 9F  32 07 01 06 27 10 A1 32  \.a..'..2...'..2
1A30: 07 01 05 27 10 A0 32 07  01 05 27 10 A4 32 07 01  ...'..2...'..2..
1A40: 06 27 10 A2 32 07 01 05  27 10 A5 32 07 01 06 52  .'..2...'..2...R
1A50: 46 80 F8 FF FF 7F F8 FF  FF 7F 73 30 33 32 45 46  F.........s032EF
1A60: 80 F8 FF FF 7F F8 FF FF  7F 73 30 33 33 01 80 1A  .........s033...
1A70: 43 00 1C 06 80 27 10 F0  FF FF 7F 16 2A 10 A0 32  C....'......*..2
1A80: 07 01 66 C7 80 A6 32 07  01 A6 32 07 01 65 68 6E  ..f...2...2..ehn
1A90: 31 1C 06 80 4A A6 32 07  01 9F 32 07 01 7B A6 32  1...J.2...2..{.2
1AA0: 07 01 1C 52 80 52 46 80  F8 FF FF 7F F8 FF FF 7F  ...R.RF.........
1AB0: 73 30 33 33 45 46 80 F8  FF FF 7F F8 FF FF 7F 73  s033EF.........s
1AC0: 30 33 34 01 80 6F 76 A6  32 07 01 66 C7 80 A6 32  034..ov.2..f...2
1AD0: 07 01 A6 32 07 01 73 68  6B 30 2B A6 32 07 01 C8  ...2..shk0+.2...
1AE0: 80 53 A6 32 07 01 A6 32  07 01 73 68 6B 30 23 52  .S.2...2..shk0#R
1AF0: 46 80 F8 FF FF 7F F8 FF  FF 7F 73 30 33 34 45 46  F.........s034EF
1B00: 80 F8 FF FF 7F F8 FF FF  7F 73 30 33 35 01 80 5B  .........s035..[
1B10: 62 80 9F 32 07 01 9F 32  07 01 65 68 65 30 2B 9F  b..2...2..ehe0+.
1B20: 32 07 01 C9 80 23 53 9F  32 07 01 9F 32 07 01 65  2....#S.2...2..e
1B30: 68 65 30 52 46 80 F8 FF  FF 7F F8 FF FF 7F 73 30  he0RF.........s0
1B40: 33 35 45 46 80 F8 FF FF  7F F8 FF FF 7F 62 6C 6F  35EF.........blo
1B50: 6E 01 80 02 87 7F 4B 80  80 6F 1B 45 46 80 F8 FF  n.....K..o.EF...
1B60: FF 7F F8 FF FF 7F 73 67  33 36 01 80 01 F0 1B 02  ......sg36......
1B70: 87 7F 4F 80 80 8B 1B 45  46 80 F8 FF FF 7F F8 FF  ..O....EF.......
1B80: FF 7F 73 67 33 36 01 80  01 F0 1B 02 87 7F 48 80  ..sg36........H.
1B90: 80 A7 1B 45 46 80 F8 FF  FF 7F F8 FF FF 7F 73 74  ...EF.........st
1BA0: 33 36 01 80 01 F0 1B 02  87 7F 49 80 80 C3 1B 45  36........I....E
1BB0: 46 80 F8 FF FF 7F F8 FF  FF 7F 73 74 33 36 01 80  F.........st36..
1BC0: 01 F0 1B 02 87 7F 50 80  80 DF 1B 45 46 80 F8 FF  ......P....EF...
1BD0: FF 7F F8 FF FF 7F 73 67  33 36 01 80 01 F0 1B 45  ......sg36.....E
1BE0: 46 80 F8 FF FF 7F F8 FF  FF 7F 73 30 33 36 01 80  F.........s036..
1BF0: 5B 62 80 9F 32 07 01 9F  32 07 01 74 6C 6B 32 5B  [b..2...2..tlk2[
1C00: 62 80 A0 32 07 01 A0 32  07 01 74 6C 6B 32 5B 62  b..2...2..tlk2[b
1C10: 80 A1 32 07 01 A1 32 07  01 74 6C 6B 32 5B 78 80  ..2...2..tlk2[x.
1C20: A5 32 07 01 A5 32 07 01  68 61 69 30 5B 78 80 A4  .2...2..hai0[x..
1C30: 32 07 01 A4 32 07 01 68  61 69 30 5B 62 80 A2 32  2...2..hai0[b..2
1C40: 07 01 A2 32 07 01 74 6C  6B 32 45 46 80 F8 FF FF  ...2..tlk2EF....
1C50: 7F F8 FF FF 7F 30 30 32  31 01 80 1C CA 80 2B 9F  .....0021.....+.
1C60: 32 07 01 CB 80 23 1C CA  80 6E F0 FF FF 7F CC 80  2....#...n......
1C70: 99 F0 FF FF 7F 1C 5D 80  02 87 7F 4B 80 80 92 1C  ......]....K....
1C80: 52 46 80 F8 FF FF 7F F8  FF FF 7F 73 67 33 36 01  RF.........sg36.
1C90: 09 1D 02 87 7F 4F 80 80  AC 1C 52 46 80 F8 FF FF  .....O....RF....
1CA0: 7F F8 FF FF 7F 73 67 33  36 01 09 1D 02 87 7F 48  .....sg36......H
1CB0: 80 80 C6 1C 52 46 80 F8  FF FF 7F F8 FF FF 7F 73  ....RF.........s
1CC0: 74 33 36 01 09 1D 02 87  7F 49 80 80 E0 1C 52 46  t36......I....RF
1CD0: 80 F8 FF FF 7F F8 FF FF  7F 73 74 33 36 01 09 1D  .........st36...
1CE0: 02 87 7F 50 80 80 FA 1C  52 46 80 F8 FF FF 7F F8  ...P....RF......
1CF0: FF FF 7F 73 67 33 36 01  09 1D 52 46 80 F8 FF FF  ...sg36...RF....
1D00: 7F F8 FF FF 7F 73 30 33  36 45 46 80 F8 FF FF 7F  .....s036EF.....
1D10: F8 FF FF 7F 62 6C 6F 66  01 80 45 46 80 F8 FF FF  ....blof..EF....
1D20: 7F F8 FF FF 7F 73 30 33  37 01 80 66 CD 80 A6 32  .....s037..f...2
1D30: 07 01 A6 32 07 01 69 72  6F 30 02 01 00 03 80 00  ...2..iro0......
1D40: 4C 1D 2B A6 32 07 01 CE  80 01 53 1D 2B A6 32 07  L.+.2.....S.+.2.
1D50: 01 CF 80 53 A6 32 07 01  A6 32 07 01 69 72 6F 30  ...S.2...2..iro0
1D60: 23 52 46 80 F8 FF FF 7F  F8 FF FF 7F 73 30 33 37  #RF.........s037
1D70: 45 46 80 F8 FF FF 7F F8  FF FF 7F 73 30 33 38 01  EF.........s038.
1D80: 80 5B 62 80 9F 32 07 01  9F 32 07 01 74 6C 6B 31  .[b..2...2..tlk1
1D90: 2B 9F 32 07 01 D0 80 23  2B 9F 32 07 01 D1 80 53  +.2....#+.2....S
1DA0: 9F 32 07 01 9F 32 07 01  74 6C 6B 31 23 5B 62 80  .2...2..tlk1#[b.
1DB0: 9F 32 07 01 9F 32 07 01  74 6C 6B 65 52 46 80 F8  .2...2..tlkeRF..
1DC0: FF FF 7F F8 FF FF 7F 73  30 33 38 45 46 80 F8 FF  .......s038EF...
1DD0: FF 7F F8 FF FF 7F 73 30  33 39 01 80 66 CD 80 A6  ......s039..f...
1DE0: 32 07 01 A6 32 07 01 74  68 6B 31 2B A6 32 07 01  2...2..thk1+.2..
1DF0: D2 80 53 A6 32 07 01 A6  32 07 01 74 68 6B 31 23  ..S.2...2..thk1#
1E00: 66 CD 80 A6 32 07 01 A6  32 07 01 74 68 6B 32 5C  f...2...2..thk2\
1E10: 00 D3 80 5C 01 D3 80 9A  52 46 80 F8 FF FF 7F F8  ...\....RF......
1E20: FF FF 7F 73 30 33 39 45  46 80 F8 FF FF 7F F8 FF  ...s039EF.......
1E30: FF 7F 73 30 34 30 01 80  2B A6 32 07 01 D4 80 53  ..s040..+.2....S
1E40: A6 32 07 01 A6 32 07 01  74 68 6B 32 1C 54 80 23  .2...2..thk2.T.#
1E50: 52 46 80 F8 FF FF 7F F8  FF FF 7F 73 30 34 30 45  RF.........s040E
1E60: 46 80 F8 FF FF 7F F8 FF  FF 7F 73 30 34 31 01 80  F.........s041..
1E70: 5B D5 80 A6 32 07 01 A6  32 07 01 67 75 64 30 2B  [...2...2..gud0+
1E80: A6 32 07 01 D6 80 1C 54  80 79 02 A6 32 07 01 01  .2.....T.y..2...
1E90: 80 D7 80 1C 5D 80 23 52  46 80 F8 FF FF 7F F8 FF  ....].#RF.......
1EA0: FF 7F 73 30 34 31 45 46  80 F8 FF FF 7F F8 FF FF  ..s041EF........
1EB0: 7F 73 30 34 32 01 80 66  06 80 A8 32 07 01 A8 32  .s042..f...2...2
1EC0: 07 01 64 69 73 30 2B A8  32 07 01 D8 80 53 A8 32  ..dis0+.2....S.2
1ED0: 07 01 A8 32 07 01 64 69  73 30 1C 06 80 23 7B A6  ...2..dis0...#{.
1EE0: 32 07 01 27 10 A6 32 07  01 03 52 46 80 F8 FF FF  2..'..2...RF....
1EF0: 7F F8 FF FF 7F 73 30 34  32 45 46 80 F8 FF FF 7F  .....s042EF.....
1F00: F8 FF FF 7F 73 30 34 33  01 80 2B A6 32 07 01 D9  ....s043..+.2...
1F10: 80 1C 06 80 27 10 9C 32  07 01 05 2A 10 A6 32 07  ....'..2...*..2.
1F20: 01 1C 60 80 23 52 46 80  F8 FF FF 7F F8 FF FF 7F  ..`.#RF.........
1F30: 73 30 34 33 45 46 80 F8  FF FF 7F F8 FF FF 7F 73  s043EF.........s
1F40: 30 34 34 01 80 5B DA 80  A8 32 07 01 A8 32 07 01  044..[...2...2..
1F50: 6B 6B 6B 30 2B A8 32 07  01 DB 80 1C 4A 80 23 5B  kkk0+.2.....J.#[
1F60: DA 80 A8 32 07 01 A8 32  07 01 6B 6B 6B 31 1C 54  ...2...2..kkk1.T
1F70: 80 52 46 80 F8 FF FF 7F  F8 FF FF 7F 73 30 34 34  .RF.........s044
1F80: 45 46 80 F8 FF FF 7F F8  FF FF 7F 73 30 34 35 01  EF.........s045.
1F90: 80 59 03 A8 32 07 01 DC  80 79 02 A8 32 07 01 01  .Y..2....y..2...
1FA0: 80 D7 80 1C 54 80 6E A9  32 07 01 A5 80 99 A9 32  ....T.n.2......2
1FB0: 07 01 1C 4A 80 59 03 A8  32 07 01 00 80 7B A8 32  ...J.Y..2....{.2
1FC0: 07 01 1C 06 80 52 46 80  F8 FF FF 7F F8 FF FF 7F  .....RF.........
1FD0: 73 30 34 35 45 46 80 F8  FF FF 7F F8 FF FF 7F 73  s045EF.........s
1FE0: 30 34 36 01 80 59 03 A8  32 07 01 DC 80 79 02 A8  046..Y..2....y..
1FF0: 32 07 01 01 80 DD 80 1C  54 80 6E AA 32 07 01 DE  2.......T.n.2...
2000: 80 99 AA 32 07 01 1C 47  80 4A A6 32 07 01 9F 32  ...2...G.J.2...2
2010: 07 01 7B A6 32 07 01 4A  9C 32 07 01 9F 32 07 01  ..{.2..J.2...2..
2020: 7B 9C 32 07 01 59 03 A8  32 07 01 DC 80 7B A8 32  {.2..Y..2....{.2
2030: 07 01 59 03 A8 32 07 01  DC 80 27 10 A8 32 07 01  ..Y..2....'..2..
2040: 03 59 03 A8 32 07 01 5E  80 52 46 80 F8 FF FF 7F  .Y..2..^.RF.....
2050: F8 FF FF 7F 73 30 34 36  45 46 80 F8 FF FF 7F F8  ....s046EF......
2060: FF FF 7F 73 30 34 37 01  80 79 00 F0 FF FF 7F A8  ...s047..y......
2070: 32 07 01 02 02 00 03 80  00 86 20 2B A8 32 07 01  2......... +.2..
2080: DF 80 23 01 86 20 2A 10  A8 32 07 01 66 06 80 A8  ..#.. *..2..f...
2090: 32 07 01 A8 32 07 01 70  6F 69 30 52 46 80 F8 FF  2...2..poi0RF...
20A0: FF 7F F8 FF FF 7F 73 30  34 37 45 46 80 F8 FF FF  ......s047EF....
20B0: 7F F8 FF FF 7F 73 30 34  38 01 80 2B A8 32 07 01  .....s048..+.2..
20C0: E0 80 23 1C 5D 80 66 06  80 A8 32 07 01 A8 32 07  ..#.].f...2...2.
20D0: 01 70 6F 69 31 52 46 80  F8 FF FF 7F F8 FF FF 7F  .poi1RF.........
20E0: 73 30 34 38 02 87 7F 05  80 80 00 21 45 46 80 F8  s048.......!EF..
20F0: FF FF 7F F8 FF FF 7F 73  68 34 39 01 80 01 B9 21  .......sh49....!
2100: 02 87 7F 4B 80 80 1C 21  45 46 80 F8 FF FF 7F F8  ...K...!EF......
2110: FF FF 7F 73 67 34 39 01  80 01 B9 21 02 87 7F 4F  ...sg49....!...O
2120: 80 80 38 21 45 46 80 F8  FF FF 7F F8 FF FF 7F 73  ..8!EF.........s
2130: 65 34 39 01 80 01 B9 21  02 87 7F 48 80 80 54 21  e49....!...H..T!
2140: 45 46 80 F8 FF FF 7F F8  FF FF 7F 73 74 34 39 01  EF.........st49.
2150: 80 01 B9 21 02 87 7F 49  80 80 70 21 45 46 80 F8  ...!...I..p!EF..
2160: FF FF 7F F8 FF FF 7F 73  74 34 39 01 80 01 B9 21  .......st49....!
2170: 02 87 7F 53 80 80 8C 21  45 46 80 F8 FF FF 7F F8  ...S...!EF......
2180: FF FF 7F 73 6D 34 39 01  80 01 B9 21 02 87 7F 50  ...sm49....!...P
2190: 80 80 A8 21 45 46 80 F8  FF FF 7F F8 FF FF 7F 73  ...!EF.........s
21A0: 67 34 39 01 80 01 B9 21  45 46 80 F8 FF FF 7F F8  g49....!EF......
21B0: FF FF 7F 73 30 34 39 01  80 1C 4A 80 02 87 7F 05  ...s049...J.....
21C0: 80 80 D6 21 52 46 80 F8  FF FF 7F F8 FF FF 7F 73  ...!RF.........s
21D0: 68 34 39 01 67 22 02 87  7F 4B 80 80 F0 21 52 46  h49.g"...K...!RF
21E0: 80 F8 FF FF 7F F8 FF FF  7F 73 67 34 39 01 67 22  .........sg49.g"
21F0: 02 87 7F 4F 80 80 0A 22  52 46 80 F8 FF FF 7F F8  ...O..."RF......
2200: FF FF 7F 73 65 34 39 01  67 22 02 87 7F 48 80 80  ...se49.g"...H..
2210: 24 22 52 46 80 F8 FF FF  7F F8 FF FF 7F 73 74 34  $"RF.........st4
2220: 39 01 67 22 02 87 7F 53  80 80 3E 22 52 46 80 F8  9.g"...S..>"RF..
2230: FF FF 7F F8 FF FF 7F 73  6D 34 39 01 67 22 02 87  .......sm49.g"..
2240: 7F 50 80 80 58 22 52 46  80 F8 FF FF 7F F8 FF FF  .P..X"RF........
2250: 7F 73 67 34 39 01 67 22  52 46 80 F8 FF FF 7F F8  .sg49.g"RF......
2260: FF FF 7F 73 30 34 39 45  46 80 F8 FF FF 7F F8 FF  ...s049EF.......
2270: FF 7F 73 30 35 30 01 80  2B A8 32 07 01 E1 80 23  ..s050..+.2....#
2280: 1C 54 80 5B 62 80 9F 32  07 01 9F 32 07 01 73 75  .T.[b..2...2..su
2290: 72 30 5B 62 80 A1 32 07  01 A1 32 07 01 6B 6F 75  r0[b..2...2..kou
22A0: 30 5B 62 80 A2 32 07 01  A2 32 07 01 6B 6F 77 30  0[b..2...2..kow0
22B0: 5B 73 80 A4 32 07 01 A4  32 07 01 61 77 77 30 1C  [s..2...2..aww0.
22C0: 48 80 5B 62 80 A0 32 07  01 A0 32 07 01 6B 6F 75  H.[b..2...2..kou
22D0: 30 5B 73 80 A5 32 07 01  A5 32 07 01 61 77 77 30  0[s..2...2..aww0
22E0: 1C 5D 80 5B 62 80 9F 32  07 01 9F 32 07 01 62 61  .].[b..2...2..ba
22F0: 6E 30 2B 9F 32 07 01 E2  80 23 1C 54 80 6B 69 64  n0+.2....#.T.kid
2300: 6C 30 A1 32 07 01 6B 69  64 6C 30 A0 32 07 01 6B  l0.2..kidl0.2..k
2310: 69 64 6C 30 A2 32 07 01  6B 69 64 6C 30 A4 32 07  idl0.2..kidl0.2.
2320: 01 6B 69 64 6C 30 A5 32  07 01 52 46 80 F8 FF FF  .kidl0.2..RF....
2330: 7F F8 FF FF 7F 73 30 35  30 45 46 80 F8 FF FF 7F  .....s050EF.....
2340: F8 FF FF 7F 73 30 35 31  01 80 66 C7 80 A6 32 07  ....s051..f...2.
2350: 01 A6 32 07 01 65 68 6E  30 7B F0 FF FF 7F 6E F0  ..2..ehn0{....n.
2360: FF FF 7F CC 80 99 F0 FF  FF 7F 27 10 9F 32 07 01  ..........'..2..
2370: 07 27 10 A0 32 07 01 06  27 10 A1 32 07 01 06 27  .'..2...'..2...'
2380: 10 A2 32 07 01 06 27 10  A4 32 07 01 07 27 10 A5  ..2...'..2...'..
2390: 32 07 01 07 1C 54 80 27  10 A9 32 07 01 03 27 10  2....T.'..2...'.
23A0: AA 32 07 01 03 1C 60 80  29 10 A8 32 07 01 05 45  .2....`.)..2...E
23B0: 46 80 F8 FF FF 7F F8 FF  FF 7F 36 30 36 37 01 80  F.........6067..
23C0: 1C 06 80 52 46 80 F8 FF  FF 7F F8 FF FF 7F 73 30  ...RF.........s0
23D0: 35 31 45 00 80 F8 FF FF  7F F8 FF FF 7F 62 6C 6F  51E..........blo
23E0: 6E 01 80 45 46 80 F8 FF  FF 7F F8 FF FF 7F 73 30  n..EF.........s0
23F0: 35 32 01 80 1C 5D 80 27  10 A8 32 07 01 04 1C 48  52...].'..2....H
2400: 80 52 46 80 F8 FF FF 7F  F8 FF FF 7F 73 30 35 32  .RF.........s052
2410: 45 46 80 F8 FF FF 7F F8  FF FF 7F 73 30 35 33 01  EF.........s053.
2420: 80 1C 06 80 2B A8 32 07  01 E3 80 23 1C 48 80 45  ....+.2....#.H.E
2430: 02 80 F8 FF FF 7F F8 FF  FF 7F 77 68 6F 31 01 80  ..........who1..
2440: 55 02 80 F8 FF FF 7F F8  FF FF 7F 77 68 6F 31 1C  U..........who1.
2450: 47 80 5D 01 80 45 80 45  00 80 F8 FF FF 7F F8 FF  G.]..E.E........
2460: FF 7F 66 64 6F 31 01 80  52 46 80 F8 FF FF 7F F8  ..fdo1..RF......
2470: FF FF 7F 73 30 35 33 45  00 80 F8 FF FF 7F F8 FF  ...s053E........
2480: FF 7F 62 6C 6F 66 01 80  BA A8 32 07 01 01 80 01  ..blof....2.....
2490: 80 01 80 01 80 1C 03 80  29 10 A8 32 07 01 06 6B  ........)..2...k
24A0: 69 64 6C 30 A6 32 07 01  7A 00 9F 32 07 01 7A 00  idl0.2..z..2..z.
24B0: A0 32 07 01 7A 00 A1 32  07 01 7A 00 A2 32 07 01  .2..z..2..z..2..
24C0: 7A 00 A4 32 07 01 7A 00  A5 32 07 01 7A 00 A8 32  z..2..z..2..z..2
24D0: 07 01 7A 00 A9 32 07 01  7A 00 AA 32 07 01 27 10  ..z..2..z..2..'.
24E0: 9C 32 07 01 04 1C CA 80  AB 11 01 80 1C 03 80 5C  .2.............\
24F0: 00 E4 80 5C 01 E4 80 9A  5D 71 80 03 80 46 00 1A  ...\....]q...F..
2500: 85 00 45 00 80 F8 FF FF  7F F8 FF FF 7F 66 64 69  ..E..........fdi
2510: 32 01 80 21 00                                    2..!.           
```

#### Opcodes

```
  0: 0x0292 [0x42] SET_CLI_EVENT_CANCEL_DATA()
  1: 0x0293 [0x03] ExtData[1]->WorkLocal[1] = Work_Zone[3]
  2: 0x0298 [0x03] ExtData[1]->WorkLocal[2] = Work_Zone[4]
  3: 0x029D [0x1A] CALL_SUBROUTINE(address=0x0064)
  4: 0x02A0 [0x46] CAMERA_CONTROL: Disable user control
  5: 0x02A2 [0x38] SET_CLIENT_EVENT_MODE(mode=147*)
  6: 0x02A5 [0x2F] Kohlo-Lakolo (ID: 17248927/0x0107329F)->Render.Flags0 &= ~0x80000 // Bit 19
  7: 0x02AB [0x2F] Papo-Hopo (ID: 17248928/0x010732A0)->Render.Flags0 &= ~0x80000 // Bit 19
  8: 0x02B1 [0x2F] Gomada-Vulmada (ID: 17248929/0x010732A1)->Render.Flags0 &= ~0x80000 // Bit 19
  9: 0x02B7 [0x2F] Pichichi (ID: 17248930/0x010732A2)->Render.Flags0 &= ~0x80000 // Bit 19
 10: 0x02BD [0x2F] Yafa Yaa (ID: 17248932/0x010732A4)->Render.Flags0 &= ~0x80000 // Bit 19
 11: 0x02C3 [0x2F] Pyo Nzon (ID: 17248933/0x010732A5)->Render.Flags0 &= ~0x80000 // Bit 19
 12: 0x02C9 [0x2F] Honoi-Gomoi (ID: 17248934/0x010732A6)->Render.Flags0 &= ~0x80000 // Bit 19
 13: 0x02CF [0x2F] Chepelle (ID: 17248936/0x010732A8)->Render.Flags0 &= ~0x80000 // Bit 19
 14: 0x02D5 [0x2F] Morzivold (ID: 17248937/0x010732A9)->Render.Flags0 &= ~0x80000 // Bit 19
 15: 0x02DB [0x2F] Wassert (ID: 17248938/0x010732AA)->Render.Flags0 &= ~0x80000 // Bit 19
 16: 0x02E1 [0x2F] Yagudo Vicar (ID: 17248939/0x010732AB)->Render.Flags0 &= ~0x80000 // Bit 19
 17: 0x02E7 [0x2F] Yagudo Centurion (ID: 17248940/0x010732AC)->Render.Flags0 &= ~0x80000 // Bit 19
 18: 0x02ED [0x2F] Yagudo Underling (ID: 17248941/0x010732AD)->Render.Flags0 &= ~0x80000 // Bit 19
 19: 0x02F3 [0x2F] Unnamed NPC (ID: 17248924/0x0107329C)->Render.Flags0 &= ~0x80000 // Bit 19
 20: 0x02F9 [0x4E] SET_ENTITY_HIDE_FLAG: Show Kohlo-Lakolo (ID: 17248927/0x0107329F)
 21: 0x02FF [0x4E] SET_ENTITY_HIDE_FLAG: Show Papo-Hopo (ID: 17248928/0x010732A0)
 22: 0x0305 [0x4E] SET_ENTITY_HIDE_FLAG: Show Gomada-Vulmada (ID: 17248929/0x010732A1)
 23: 0x030B [0x4E] SET_ENTITY_HIDE_FLAG: Show Pichichi (ID: 17248930/0x010732A2)
 24: 0x0311 [0x4E] SET_ENTITY_HIDE_FLAG: Show Yafa Yaa (ID: 17248932/0x010732A4)
 25: 0x0317 [0x4E] SET_ENTITY_HIDE_FLAG: Show Pyo Nzon (ID: 17248933/0x010732A5)
 26: 0x031D [0x4E] SET_ENTITY_HIDE_FLAG: Show Honoi-Gomoi (ID: 17248934/0x010732A6)
 27: 0x0323 [0x4E] SET_ENTITY_HIDE_FLAG: Show Chepelle (ID: 17248936/0x010732A8)
 28: 0x0329 [0x4E] SET_ENTITY_HIDE_FLAG: Show Morzivold (ID: 17248937/0x010732A9)
 29: 0x032F [0x4E] SET_ENTITY_HIDE_FLAG: Show Wassert (ID: 17248938/0x010732AA)
 30: 0x0335 [0x4E] SET_ENTITY_HIDE_FLAG: Show Yagudo Vicar (ID: 17248939/0x010732AB)
 31: 0x033B [0x4E] SET_ENTITY_HIDE_FLAG: Show Yagudo Centurion (ID: 17248940/0x010732AC)
 32: 0x0341 [0x4E] SET_ENTITY_HIDE_FLAG: Show Yagudo Underling (ID: 17248941/0x010732AD)
 33: 0x0347 [0x4E] SET_ENTITY_HIDE_FLAG: Show Unnamed NPC (ID: 17248924/0x0107329C)
 34: 0x034D [0x29] REQ_SET_WAIT(priority=0x10, entity_id=Unnamed NPC (ID: 17248924/0x0107329C), tag_num=0x03)
 35: 0x0354 [0x59] UPDATE_ENTITY_DATA: Unnamed NPC (ID: 17248924/0x0107329C)->Render.Flags0 |= 0x200000
 36: 0x035B [0x94] Kohlo-Lakolo (ID: 17248927/0x0107329F)->Render.Flags3 ^= 0x01
 37: 0x0361 [0x94] Papo-Hopo (ID: 17248928/0x010732A0)->Render.Flags3 ^= 0x01
 38: 0x0367 [0x94] Gomada-Vulmada (ID: 17248929/0x010732A1)->Render.Flags3 ^= 0x01
 39: 0x036D [0x94] Pichichi (ID: 17248930/0x010732A2)->Render.Flags3 ^= 0x01
 40: 0x0373 [0x94] Yafa Yaa (ID: 17248932/0x010732A4)->Render.Flags3 ^= 0x01
 41: 0x0379 [0x94] Pyo Nzon (ID: 17248933/0x010732A5)->Render.Flags3 ^= 0x01
 42: 0x037F [0x94] Honoi-Gomoi (ID: 17248934/0x010732A6)->Render.Flags3 ^= 0x01
 43: 0x0385 [0x94] Chepelle (ID: 17248936/0x010732A8)->Render.Flags3 ^= 0x01
 44: 0x038B [0x94] Morzivold (ID: 17248937/0x010732A9)->Render.Flags3 ^= 0x01
 45: 0x0391 [0x94] Wassert (ID: 17248938/0x010732AA)->Render.Flags3 ^= 0x01
 46: 0x0397 [0x94] Yagudo Vicar (ID: 17248939/0x010732AB)->Render.Flags3 ^= 0x01
 47: 0x039D [0x94] Yagudo Centurion (ID: 17248940/0x010732AC)->Render.Flags3 ^= 0x01
 48: 0x03A3 [0x94] Yagudo Underling (ID: 17248941/0x010732AD)->Render.Flags3 ^= 0x01
 49: 0x03A9 [0x94] Unnamed NPC (ID: 17248924/0x0107329C)->Render.Flags3 ^= 0x01
 50: 0x03AF [0x94] LocalPlayer->Render.Flags3 ^= 0x01
 51: 0x03B5 [0xBA] SET_ENTITY_POSITION(entity_id=Kohlo-Lakolo (ID: 17248927/0x0107329F), pos_x=264.191*, pos_z=-2.182*, pos_y=-4.989*, direction=217.5*)
 52: 0x03C2 [0xBA] SET_ENTITY_POSITION(entity_id=Papo-Hopo (ID: 17248928/0x010732A0), pos_x=265.500*, pos_z=-4.119*, pos_y=-5.003*, direction=234.1*)
 53: 0x03CF [0xBA] SET_ENTITY_POSITION(entity_id=Gomada-Vulmada (ID: 17248929/0x010732A1), pos_x=266.037*, pos_z=-2.144*, pos_y=-4.752*, direction=210.8*)
 54: 0x03DC [0xBA] SET_ENTITY_POSITION(entity_id=Pichichi (ID: 17248930/0x010732A2), pos_x=266.794*, pos_z=-4.054*, pos_y=-4.969*, direction=207.3*)
 55: 0x03E9 [0xBA] SET_ENTITY_POSITION(entity_id=Yafa Yaa (ID: 17248932/0x010732A4), pos_x=268.313*, pos_z=-5.263*, pos_y=-5.315*, direction=200.5*)
 56: 0x03F6 [0xBA] SET_ENTITY_POSITION(entity_id=Pyo Nzon (ID: 17248933/0x010732A5), pos_x=267.410*, pos_z=-6.142*, pos_y=-5.510*, direction=203.6*)
 57: 0x0403 [0xBA] SET_ENTITY_POSITION(entity_id=Honoi-Gomoi (ID: 17248934/0x010732A6), pos_x=243.906*, pos_z=17.020*, pos_y=-4.940*, direction=291.3*)
 58: 0x0410 [0xBA] SET_ENTITY_POSITION(entity_id=Chepelle (ID: 17248936/0x010732A8), pos_x=245.297*, pos_z=20.500*, pos_y=-5.268*, direction=110.9*)
 59: 0x041D [0xBA] SET_ENTITY_POSITION(entity_id=Morzivold (ID: 17248937/0x010732A9), pos_x=244.796*, pos_z=22.049*, pos_y=-5.376*, direction=96.0*)
 60: 0x042A [0xBA] SET_ENTITY_POSITION(entity_id=Wassert (ID: 17248938/0x010732AA), pos_x=246.838*, pos_z=21.127*, pos_y=-5.397*, direction=118.6*)
 61: 0x0437 [0xBA] SET_ENTITY_POSITION(entity_id=Yagudo Vicar (ID: 17248939/0x010732AB), pos_x=233.582*, pos_z=7.020*, pos_y=-4.325*, direction=186.8*)
 62: 0x0444 [0xBA] SET_ENTITY_POSITION(entity_id=Yagudo Centurion (ID: 17248940/0x010732AC), pos_x=235.965*, pos_z=8.119*, pos_y=-4.144*, direction=185.5*)
 63: 0x0451 [0xBA] SET_ENTITY_POSITION(entity_id=Yagudo Underling (ID: 17248941/0x010732AD), pos_x=235.737*, pos_z=5.541*, pos_y=-4.077*, direction=187.4*)
 64: 0x045E [0xBA] SET_ENTITY_POSITION(entity_id=Unnamed NPC (ID: 17248924/0x0107329C), pos_x=244.408*, pos_z=18.077*, pos_y=-5.038*, direction=116.3*)
 65: 0x046B [0xBA] SET_ENTITY_POSITION(entity_id=LocalPlayer, pos_x=260.756*, pos_z=2.169*, pos_y=-5.204*, direction=189.4*)
 66: 0x0478 [0x80] LOAD_WAIT(entity=Kohlo-Lakolo (ID: 17248927/0x0107329F))
 67: 0x047D [0x80] LOAD_WAIT(entity=Papo-Hopo (ID: 17248928/0x010732A0))
 68: 0x0482 [0x80] LOAD_WAIT(entity=Gomada-Vulmada (ID: 17248929/0x010732A1))
 69: 0x0487 [0x80] LOAD_WAIT(entity=Pichichi (ID: 17248930/0x010732A2))
 70: 0x048C [0x80] LOAD_WAIT(entity=Yafa Yaa (ID: 17248932/0x010732A4))
 71: 0x0491 [0x80] LOAD_WAIT(entity=Pyo Nzon (ID: 17248933/0x010732A5))
 72: 0x0496 [0x80] LOAD_WAIT(entity=Honoi-Gomoi (ID: 17248934/0x010732A6))
 73: 0x049B [0x80] LOAD_WAIT(entity=Chepelle (ID: 17248936/0x010732A8))
 74: 0x04A0 [0x80] LOAD_WAIT(entity=Morzivold (ID: 17248937/0x010732A9))
 75: 0x04A5 [0x80] LOAD_WAIT(entity=Wassert (ID: 17248938/0x010732AA))
 76: 0x04AA [0x80] LOAD_WAIT(entity=Yagudo Vicar (ID: 17248939/0x010732AB))
 77: 0x04AF [0x80] LOAD_WAIT(entity=Yagudo Centurion (ID: 17248940/0x010732AC))
 78: 0x04B4 [0x80] LOAD_WAIT(entity=Yagudo Underling (ID: 17248941/0x010732AD))
 79: 0x04B9 [0x80] LOAD_WAIT(entity=Unnamed NPC (ID: 17248924/0x0107329C))
 80: 0x04BE [0x80] LOAD_WAIT(entity=LocalPlayer)
 81: 0x04C3 [0x4A] Honoi-Gomoi (ID: 17248934/0x010732A6) looks at Unnamed NPC (ID: 17248924/0x0107329C)
 82: 0x04CC [0x1C] WAIT(240* ticks)
 83: 0x04CF [0x45] LOAD_SCHEDULED_TASK: Load scheduler "sa00" with entities [EventEntity, EventEntity], work=[859*, 0*]
 84: 0x04E0 [0x1A] CALL_SUBROUTINE(address=0x0043)
 85: 0x04E3 [0x1C] WAIT(180* ticks)
 86: 0x04E6 [0x5C] MUSIC_CONTROL: Set Idle (Day) music to song 0*
 87: 0x04EA [0x5C] MUSIC_CONTROL: Set Idle (Night) music to song 0*
 88: 0x04EE [0x9A] WAIT_MUSIC_SERVER()
 89: 0x04EF [0x27] REQ_SET(priority=0x10, entity_id=LocalPlayer, tag_num=0x14)
 90: 0x04F6 [0x1C] WAIT(30* ticks)
 91: 0x04F9 [0x52] END_LOAD_SCHEDULER: End scheduler "sa00" with entities [EventEntity, EventEntity], work=859*
 92: 0x0508 [0x02] IF !(LocalPlayer->Race == 5*) GOTO 0x0524
 93: 0x0510 [0x45] LOAD_SCHEDULED_TASK: Load scheduler "st00" with entities [EventEntity, EventEntity], work=[859*, 0*]
 94: 0x0521 [0x01] GOTO 0x0551
 95: 0x0524 [0x02] IF !(LocalPlayer->Race == 6*) GOTO 0x0540
 96: 0x052C [0x45] LOAD_SCHEDULED_TASK: Load scheduler "st00" with entities [EventEntity, EventEntity], work=[859*, 0*]
 97: 0x053D [0x01] GOTO 0x0551
 98: 0x0540 [0x45] LOAD_SCHEDULED_TASK: Load scheduler "s000" with entities [EventEntity, EventEntity], work=[859*, 0*]

SUBROUTINE_0551:
 99: 0x0551 [0x1C] WAIT(150* ticks)
100: 0x0554 [0x33] EventEntity->Render.Flags0 |= 0x200000 // Bit 21 (flag=0x01)
101: 0x0556 [0x02] IF !(LocalPlayer->Race == 3*) GOTO 0x0568
102: 0x055E [0x36] SET_ENTITY_EVENT_POSITION(pos_x=255.498*, pos_z=4.987*, pos_y=-4.443*)
103: 0x0565 [0x01] GOTO 0x0593
104: 0x0568 [0x02] IF !(LocalPlayer->Race == 4*) GOTO 0x057A
105: 0x0570 [0x36] SET_ENTITY_EVENT_POSITION(pos_x=255.498*, pos_z=4.987*, pos_y=-4.443*)
106: 0x0577 [0x01] GOTO 0x0593
107: 0x057A [0x02] IF !(LocalPlayer->Race == 8*) GOTO 0x058C
108: 0x0582 [0x36] SET_ENTITY_EVENT_POSITION(pos_x=255.498*, pos_z=4.987*, pos_y=-4.443*)
109: 0x0589 [0x01] GOTO 0x0593
110: 0x058C [0x36] SET_ENTITY_EVENT_POSITION(pos_x=255.498*, pos_z=4.987*, pos_y=-3.943*)

SUBROUTINE_0593:
111: 0x0593 [0x2A] GET_REQ_LEVEL(level=16, entity_id=LocalPlayer)
112: 0x0599 [0x1C] WAIT(10* ticks)
113: 0x059C [0x02] IF !(LocalPlayer->Race == 5*) GOTO 0x05B6
114: 0x05A4 [0x52] END_LOAD_SCHEDULER: End scheduler "st00" with entities [EventEntity, EventEntity], work=859*
115: 0x05B3 [0x01] GOTO 0x05DF
116: 0x05B6 [0x02] IF !(LocalPlayer->Race == 6*) GOTO 0x05D0
117: 0x05BE [0x52] END_LOAD_SCHEDULER: End scheduler "st00" with entities [EventEntity, EventEntity], work=859*
118: 0x05CD [0x01] GOTO 0x05DF
119: 0x05D0 [0x52] END_LOAD_SCHEDULER: End scheduler "s000" with entities [EventEntity, EventEntity], work=859*

SUBROUTINE_05DF:
120: 0x05DF [0x02] IF !(LocalPlayer->Race == 2*) GOTO 0x05FB
121: 0x05E7 [0x45] LOAD_SCHEDULED_TASK: Load scheduler "sh01" with entities [EventEntity, EventEntity], work=[859*, 0*]
122: 0x05F8 [0x01] GOTO 0x06B4
123: 0x05FB [0x02] IF !(LocalPlayer->Race == 3*) GOTO 0x0617
124: 0x0603 [0x45] LOAD_SCHEDULED_TASK: Load scheduler "sg01" with entities [EventEntity, EventEntity], work=[859*, 0*]
125: 0x0614 [0x01] GOTO 0x06B4
126: 0x0617 [0x02] IF !(LocalPlayer->Race == 4*) GOTO 0x0633
127: 0x061F [0x45] LOAD_SCHEDULED_TASK: Load scheduler "se01" with entities [EventEntity, EventEntity], work=[859*, 0*]
128: 0x0630 [0x01] GOTO 0x06B4
129: 0x0633 [0x02] IF !(LocalPlayer->Race == 5*) GOTO 0x064F
130: 0x063B [0x45] LOAD_SCHEDULED_TASK: Load scheduler "st01" with entities [EventEntity, EventEntity], work=[859*, 0*]
131: 0x064C [0x01] GOTO 0x06B4
132: 0x064F [0x02] IF !(LocalPlayer->Race == 6*) GOTO 0x066B
133: 0x0657 [0x45] LOAD_SCHEDULED_TASK: Load scheduler "st01" with entities [EventEntity, EventEntity], work=[859*, 0*]
134: 0x0668 [0x01] GOTO 0x06B4
135: 0x066B [0x02] IF !(LocalPlayer->Race == 7*) GOTO 0x0687
136: 0x0673 [0x45] LOAD_SCHEDULED_TASK: Load scheduler "sm01" with entities [EventEntity, EventEntity], work=[859*, 0*]
137: 0x0684 [0x01] GOTO 0x06B4
138: 0x0687 [0x02] IF !(LocalPlayer->Race == 8*) GOTO 0x06A3
139: 0x068F [0x45] LOAD_SCHEDULED_TASK: Load scheduler "sg01" with entities [EventEntity, EventEntity], work=[859*, 0*]
140: 0x06A0 [0x01] GOTO 0x06B4
141: 0x06A3 [0x45] LOAD_SCHEDULED_TASK: Load scheduler "s001" with entities [EventEntity, EventEntity], work=[859*, 0*]

SUBROUTINE_06B4:
142: 0x06B4 [0x59] UPDATE_ENTITY_DATA: Set LocalPlayer turn speed head = 200*
143: 0x06BC [0x79] LocalPlayer looks at EventEntity (Basic look)
144: 0x06C6 [0x1C] WAIT(60* ticks)
145: 0x06C9 [0x27] REQ_SET(priority=0x10, entity_id=Yagudo Vicar (ID: 17248939/0x010732AB), tag_num=0x02)
146: 0x06D0 [0x1C] WAIT(10* ticks)
147: 0x06D3 [0x27] REQ_SET(priority=0x10, entity_id=Yagudo Centurion (ID: 17248940/0x010732AC), tag_num=0x02)
148: 0x06DA [0x1C] WAIT(5* ticks)
149: 0x06DD [0x27] REQ_SET(priority=0x10, entity_id=Yagudo Underling (ID: 17248941/0x010732AD), tag_num=0x02)
150: 0x06E4 [0x02] IF !(LocalPlayer->Race == 3*) GOTO 0x06F6
151: 0x06EC [0x36] SET_ENTITY_EVENT_POSITION(pos_x=254.759*, pos_z=2.080*, pos_y=-4.351*)
152: 0x06F3 [0x01] GOTO 0x0721
153: 0x06F6 [0x02] IF !(LocalPlayer->Race == 4*) GOTO 0x0708
154: 0x06FE [0x36] SET_ENTITY_EVENT_POSITION(pos_x=254.759*, pos_z=2.080*, pos_y=-4.351*)
155: 0x0705 [0x01] GOTO 0x0721
156: 0x0708 [0x02] IF !(LocalPlayer->Race == 8*) GOTO 0x071A
157: 0x0710 [0x36] SET_ENTITY_EVENT_POSITION(pos_x=254.759*, pos_z=2.080*, pos_y=-4.351*)
158: 0x0717 [0x01] GOTO 0x0721
159: 0x071A [0x36] SET_ENTITY_EVENT_POSITION(pos_x=254.759*, pos_z=2.080*, pos_y=-3.851*)

SUBROUTINE_0721:
160: 0x0721 [0x1C] WAIT(60* ticks)
161: 0x0724 [0x7B] LocalPlayer stops talking
162: 0x0729 [0x02] IF !(LocalPlayer->Race == 3*) GOTO 0x073B
163: 0x0731 [0x36] SET_ENTITY_EVENT_POSITION(pos_x=254.219*, pos_z=3.480*, pos_y=-4.283*)
164: 0x0738 [0x01] GOTO 0x0766
165: 0x073B [0x02] IF !(LocalPlayer->Race == 4*) GOTO 0x074D
166: 0x0743 [0x36] SET_ENTITY_EVENT_POSITION(pos_x=254.219*, pos_z=3.480*, pos_y=-4.283*)
167: 0x074A [0x01] GOTO 0x0766
168: 0x074D [0x02] IF !(LocalPlayer->Race == 8*) GOTO 0x075F
169: 0x0755 [0x36] SET_ENTITY_EVENT_POSITION(pos_x=254.219*, pos_z=3.480*, pos_y=-4.283*)
170: 0x075C [0x01] GOTO 0x0766
171: 0x075F [0x36] SET_ENTITY_EVENT_POSITION(pos_x=254.219*, pos_z=3.480*, pos_y=-3.783*)

SUBROUTINE_0766:
172: 0x0766 [0x59] UPDATE_ENTITY_DATA: Set LocalPlayer turn speed head = 200*
173: 0x076E [0x79] LocalPlayer looks at EventEntity (Basic look)
174: 0x0778 [0x1C] WAIT(90* ticks)
175: 0x077B [0x59] UPDATE_ENTITY_DATA: Set LocalPlayer turn speed head = 100*
176: 0x0783 [0x02] IF !(LocalPlayer->Race == 2*) GOTO 0x07AE
177: 0x078B [0x52] END_LOAD_SCHEDULER: End scheduler "sh01" with entities [EventEntity, EventEntity], work=859*
178: 0x079A [0x45] LOAD_SCHEDULED_TASK: Load scheduler "sg02" with entities [EventEntity, EventEntity], work=[859*, 0*]
179: 0x07AB [0x01] GOTO 0x08D0
180: 0x07AE [0x02] IF !(LocalPlayer->Race == 3*) GOTO 0x07D9
181: 0x07B6 [0x52] END_LOAD_SCHEDULER: End scheduler "sg01" with entities [EventEntity, EventEntity], work=859*
182: 0x07C5 [0x45] LOAD_SCHEDULED_TASK: Load scheduler "sg02" with entities [EventEntity, EventEntity], work=[859*, 0*]
183: 0x07D6 [0x01] GOTO 0x08D0
184: 0x07D9 [0x02] IF !(LocalPlayer->Race == 4*) GOTO 0x0804
185: 0x07E1 [0x52] END_LOAD_SCHEDULER: End scheduler "se01" with entities [EventEntity, EventEntity], work=859*
186: 0x07F0 [0x45] LOAD_SCHEDULED_TASK: Load scheduler "sg02" with entities [EventEntity, EventEntity], work=[859*, 0*]
187: 0x0801 [0x01] GOTO 0x08D0
188: 0x0804 [0x02] IF !(LocalPlayer->Race == 5*) GOTO 0x082F
189: 0x080C [0x52] END_LOAD_SCHEDULER: End scheduler "st01" with entities [EventEntity, EventEntity], work=859*
190: 0x081B [0x45] LOAD_SCHEDULED_TASK: Load scheduler "st02" with entities [EventEntity, EventEntity], work=[859*, 0*]
191: 0x082C [0x01] GOTO 0x08D0
192: 0x082F [0x02] IF !(LocalPlayer->Race == 6*) GOTO 0x085A
193: 0x0837 [0x52] END_LOAD_SCHEDULER: End scheduler "st01" with entities [EventEntity, EventEntity], work=859*
194: 0x0846 [0x45] LOAD_SCHEDULED_TASK: Load scheduler "st02" with entities [EventEntity, EventEntity], work=[859*, 0*]
195: 0x0857 [0x01] GOTO 0x08D0
196: 0x085A [0x02] IF !(LocalPlayer->Race == 7*) GOTO 0x0885
197: 0x0862 [0x52] END_LOAD_SCHEDULER: End scheduler "st01" with entities [EventEntity, EventEntity], work=859*
198: 0x0871 [0x45] LOAD_SCHEDULED_TASK: Load scheduler "st02" with entities [EventEntity, EventEntity], work=[859*, 0*]
199: 0x0882 [0x01] GOTO 0x08D0
200: 0x0885 [0x02] IF !(LocalPlayer->Race == 8*) GOTO 0x08B0
201: 0x088D [0x52] END_LOAD_SCHEDULER: End scheduler "sm01" with entities [EventEntity, EventEntity], work=859*
202: 0x089C [0x45] LOAD_SCHEDULED_TASK: Load scheduler "s002" with entities [EventEntity, EventEntity], work=[859*, 0*]
203: 0x08AD [0x01] GOTO 0x08D0
204: 0x08B0 [0x52] END_LOAD_SCHEDULER: End scheduler "s001" with entities [EventEntity, EventEntity], work=859*
205: 0x08BF [0x45] LOAD_SCHEDULED_TASK: Load scheduler "s002" with entities [EventEntity, EventEntity], work=[859*, 0*]

SUBROUTINE_08D0:
206: 0x08D0 [0x1C] WAIT(270* ticks)
207: 0x08D3 [0x1A] CALL_SUBROUTINE(address=0x0064)
208: 0x08D6 [0x1C] WAIT(120* ticks)
209: 0x08D9 [0x5C] MUSIC_CONTROL: Set Idle (Day) music to song 163*
210: 0x08DD [0x5C] MUSIC_CONTROL: Set Idle (Night) music to song 163*
211: 0x08E1 [0x9A] WAIT_MUSIC_SERVER()
212: 0x08E2 [0x27] REQ_SET(priority=0x10, entity_id=Kohlo-Lakolo (ID: 17248927/0x0107329F), tag_num=0x03)
213: 0x08E9 [0x27] REQ_SET(priority=0x10, entity_id=Papo-Hopo (ID: 17248928/0x010732A0), tag_num=0x03)
214: 0x08F0 [0x27] REQ_SET(priority=0x10, entity_id=Gomada-Vulmada (ID: 17248929/0x010732A1), tag_num=0x03)
215: 0x08F7 [0x27] REQ_SET(priority=0x10, entity_id=Pichichi (ID: 17248930/0x010732A2), tag_num=0x03)
216: 0x08FE [0x27] REQ_SET(priority=0x10, entity_id=Yafa Yaa (ID: 17248932/0x010732A4), tag_num=0x03)
217: 0x0905 [0x1C] WAIT(5* ticks)
218: 0x0908 [0x27] REQ_SET(priority=0x10, entity_id=Pyo Nzon (ID: 17248933/0x010732A5), tag_num=0x03)
219: 0x090F [0x1C] WAIT(5* ticks)
220: 0x0912 [0x02] IF !(LocalPlayer->Race == 3*) GOTO 0x092C
221: 0x091A [0x52] END_LOAD_SCHEDULER: End scheduler "sg02" with entities [EventEntity, EventEntity], work=859*
222: 0x0929 [0x01] GOTO 0x09A3
223: 0x092C [0x02] IF !(LocalPlayer->Race == 4*) GOTO 0x0946
224: 0x0934 [0x52] END_LOAD_SCHEDULER: End scheduler "sg02" with entities [EventEntity, EventEntity], work=859*
225: 0x0943 [0x01] GOTO 0x09A3
226: 0x0946 [0x02] IF !(LocalPlayer->Race == 5*) GOTO 0x0960
227: 0x094E [0x52] END_LOAD_SCHEDULER: End scheduler "st02" with entities [EventEntity, EventEntity], work=859*
228: 0x095D [0x01] GOTO 0x09A3
229: 0x0960 [0x02] IF !(LocalPlayer->Race == 6*) GOTO 0x097A
230: 0x0968 [0x52] END_LOAD_SCHEDULER: End scheduler "st02" with entities [EventEntity, EventEntity], work=859*
231: 0x0977 [0x01] GOTO 0x09A3
232: 0x097A [0x02] IF !(LocalPlayer->Race == 8*) GOTO 0x0994
233: 0x0982 [0x52] END_LOAD_SCHEDULER: End scheduler "sg02" with entities [EventEntity, EventEntity], work=859*
234: 0x0991 [0x01] GOTO 0x09A3
235: 0x0994 [0x52] END_LOAD_SCHEDULER: End scheduler "s002" with entities [EventEntity, EventEntity], work=859*

SUBROUTINE_09A3:
236: 0x09A3 [0x45] LOAD_SCHEDULED_TASK: Load scheduler "s003" with entities [EventEntity, EventEntity], work=[859*, 0*]
237: 0x09B4 [0x1A] CALL_SUBROUTINE(address=0x0043)
238: 0x09B7 [0x1C] WAIT(30* ticks)
239: 0x09BA [0x52] END_LOAD_SCHEDULER: End scheduler "s003" with entities [EventEntity, EventEntity], work=859*
240: 0x09C9 [0x02] IF !(LocalPlayer->Race == 3*) GOTO 0x09E5
241: 0x09D1 [0x45] LOAD_SCHEDULED_TASK: Load scheduler "sg04" with entities [EventEntity, EventEntity], work=[859*, 0*]
242: 0x09E2 [0x01] GOTO 0x0A66
243: 0x09E5 [0x02] IF !(LocalPlayer->Race == 4*) GOTO 0x0A01
244: 0x09ED [0x45] LOAD_SCHEDULED_TASK: Load scheduler "sg04" with entities [EventEntity, EventEntity], work=[859*, 0*]
245: 0x09FE [0x01] GOTO 0x0A66
246: 0x0A01 [0x02] IF !(LocalPlayer->Race == 5*) GOTO 0x0A1D
247: 0x0A09 [0x45] LOAD_SCHEDULED_TASK: Load scheduler "st04" with entities [EventEntity, EventEntity], work=[859*, 0*]
248: 0x0A1A [0x01] GOTO 0x0A66
249: 0x0A1D [0x02] IF !(LocalPlayer->Race == 6*) GOTO 0x0A39
250: 0x0A25 [0x45] LOAD_SCHEDULED_TASK: Load scheduler "st04" with entities [EventEntity, EventEntity], work=[859*, 0*]
251: 0x0A36 [0x01] GOTO 0x0A66
252: 0x0A39 [0x02] IF !(LocalPlayer->Race == 8*) GOTO 0x0A55
253: 0x0A41 [0x45] LOAD_SCHEDULED_TASK: Load scheduler "sg04" with entities [EventEntity, EventEntity], work=[859*, 0*]
254: 0x0A52 [0x01] GOTO 0x0A66
255: 0x0A55 [0x45] LOAD_SCHEDULED_TASK: Load scheduler "s004" with entities [EventEntity, EventEntity], work=[859*, 0*]

SUBROUTINE_0A66:
256: 0x0A66 [0x2A] GET_REQ_LEVEL(level=16, entity_id=Kohlo-Lakolo (ID: 17248927/0x0107329F))
257: 0x0A6C [0x5B] LOAD_EXT_SCHEDULER: Load scheduler "tlk0" with entities [Kohlo-Lakolo (ID: 17248927/0x0107329F), Kohlo-Lakolo (ID: 17248927/0x0107329F)], work=85*
258: 0x0A7B [0x2B] Kohlo-Lakolo (ID: 17248927/0x0107329F) [12453*]:
     "Hey...where are the Yagudo?"
259: 0x0A82 [0x1C] WAIT(30* ticks)
260: 0x0A85 [0x7B] LocalPlayer stops talking
261: 0x0A8A [0x4A] LocalPlayer looks at Kohlo-Lakolo (ID: 17248927/0x0107329F)
262: 0x0A93 [0x1C] WAIT(120* ticks)
263: 0x0A96 [0x23] WAIT_FOR_DIALOG_INTERACTION
264: 0x0A97 [0x5B] LOAD_EXT_SCHEDULER: Load scheduler "tlke" with entities [Kohlo-Lakolo (ID: 17248927/0x0107329F), Kohlo-Lakolo (ID: 17248927/0x0107329F)], work=85*
265: 0x0AA6 [0x7A] VM_CONTROL: Reset VM for Yagudo Vicar (ID: 17248939/0x010732AB)
266: 0x0AAC [0x7A] VM_CONTROL: Reset VM for Yagudo Centurion (ID: 17248940/0x010732AC)
267: 0x0AB2 [0x7A] VM_CONTROL: Reset VM for Yagudo Underling (ID: 17248941/0x010732AD)
268: 0x0AB8 [0x4E] SET_ENTITY_HIDE_FLAG: Hide Yagudo Vicar (ID: 17248939/0x010732AB)
269: 0x0ABE [0x4E] SET_ENTITY_HIDE_FLAG: Hide Yagudo Centurion (ID: 17248940/0x010732AC)
270: 0x0AC4 [0x4E] SET_ENTITY_HIDE_FLAG: Hide Yagudo Underling (ID: 17248941/0x010732AD)
271: 0x0ACA [0x6F] WAIT_FRAME_DELAY: Yield until WaitTime reaches zero
272: 0x0ACB [0x76] CHECK_ENTITY_RENDER_FLAGS: Wait until LocalPlayer Render.Flags0 and Render.Flags3 conditions are met
273: 0x0AD0 [0x24] CREATE_DIALOG(message_id=12454*, default_option=0*, option_flags=0*)
     "Where are they? [I stopped them!/They left./Who knows?]"
274: 0x0AD7 [0x25] WAIT_DIALOG_SELECT()
275: 0x0AD8 [0x02] IF !(Work_Zone[0] == 0*) GOTO 0x0E45
276: 0x0AE0 [0x29] REQ_SET_WAIT(priority=0x10, entity_id=LocalPlayer, tag_num=0x13)
277: 0x0AE7 [0x1C] WAIT(60* ticks)
278: 0x0AEA [0x02] IF !(LocalPlayer->Race == 3*) GOTO 0x0B04
279: 0x0AF2 [0x52] END_LOAD_SCHEDULER: End scheduler "sg04" with entities [EventEntity, EventEntity], work=859*
280: 0x0B01 [0x01] GOTO 0x0B7B
281: 0x0B04 [0x02] IF !(LocalPlayer->Race == 4*) GOTO 0x0B1E
282: 0x0B0C [0x52] END_LOAD_SCHEDULER: End scheduler "sg04" with entities [EventEntity, EventEntity], work=859*
283: 0x0B1B [0x01] GOTO 0x0B7B
284: 0x0B1E [0x02] IF !(LocalPlayer->Race == 5*) GOTO 0x0B38
285: 0x0B26 [0x52] END_LOAD_SCHEDULER: End scheduler "st04" with entities [EventEntity, EventEntity], work=859*
286: 0x0B35 [0x01] GOTO 0x0B7B
287: 0x0B38 [0x02] IF !(LocalPlayer->Race == 6*) GOTO 0x0B52
288: 0x0B40 [0x52] END_LOAD_SCHEDULER: End scheduler "st04" with entities [EventEntity, EventEntity], work=859*
289: 0x0B4F [0x01] GOTO 0x0B7B
290: 0x0B52 [0x02] IF !(LocalPlayer->Race == 8*) GOTO 0x0B6C
291: 0x0B5A [0x52] END_LOAD_SCHEDULER: End scheduler "sg04" with entities [EventEntity, EventEntity], work=859*
292: 0x0B69 [0x01] GOTO 0x0B7B
293: 0x0B6C [0x52] END_LOAD_SCHEDULER: End scheduler "s004" with entities [EventEntity, EventEntity], work=859*

SUBROUTINE_0B7B:
294: 0x0B7B [0x45] LOAD_SCHEDULED_TASK: Load scheduler "s005" with entities [EventEntity, EventEntity], work=[859*, 0*]
295: 0x0B8C [0x5B] LOAD_EXT_SCHEDULER: Load scheduler "tlk0" with entities [Pichichi (ID: 17248930/0x010732A2), Pichichi (ID: 17248930/0x010732A2)], work=85*
296: 0x0B9B [0x2B] Pichichi (ID: 17248930/0x010732A2) [12455*]:
     "It'th not very nice to tell lieth!"
297: 0x0BA2 [0x1C] WAIT(150* ticks)
298: 0x0BA5 [0x23] WAIT_FOR_DIALOG_INTERACTION
299: 0x0BA6 [0x5B] LOAD_EXT_SCHEDULER: Load scheduler "tlke" with entities [Pichichi (ID: 17248930/0x010732A2), Pichichi (ID: 17248930/0x010732A2)], work=85*
300: 0x0BB5 [0x4A] Kohlo-Lakolo (ID: 17248927/0x0107329F) looks at Pichichi (ID: 17248930/0x010732A2)
301: 0x0BBE [0x52] END_LOAD_SCHEDULER: End scheduler "s005" with entities [EventEntity, EventEntity], work=859*
302: 0x0BCD [0x45] LOAD_SCHEDULED_TASK: Load scheduler "s006" with entities [EventEntity, EventEntity], work=[859*, 0*]
303: 0x0BDE [0x6F] WAIT_FRAME_DELAY: Yield until WaitTime reaches zero
304: 0x0BDF [0x76] CHECK_ENTITY_RENDER_FLAGS: Wait until Kohlo-Lakolo (ID: 17248927/0x0107329F) Render.Flags0 and Render.Flags3 conditions are met
305: 0x0BE4 [0x5B] LOAD_EXT_SCHEDULER: Load scheduler "sur0" with entities [Kohlo-Lakolo (ID: 17248927/0x0107329F), Kohlo-Lakolo (ID: 17248927/0x0107329F)], work=85*
306: 0x0BF3 [0x2B] Kohlo-Lakolo (ID: 17248927/0x0107329F) [12456*]:
     "No, it isn't."
307: 0x0BFA [0x1C] WAIT(150* ticks)
308: 0x0BFD [0x23] WAIT_FOR_DIALOG_INTERACTION
309: 0x0BFE [0x4A] Kohlo-Lakolo (ID: 17248927/0x0107329F) looks at LocalPlayer
310: 0x0C07 [0x52] END_LOAD_SCHEDULER: End scheduler "s006" with entities [EventEntity, EventEntity], work=859*
311: 0x0C16 [0x02] IF !(LocalPlayer->Race == 3*) GOTO 0x0C32
312: 0x0C1E [0x45] LOAD_SCHEDULED_TASK: Load scheduler "sg07" with entities [EventEntity, EventEntity], work=[859*, 0*]
313: 0x0C2F [0x01] GOTO 0x0CB3
314: 0x0C32 [0x02] IF !(LocalPlayer->Race == 4*) GOTO 0x0C4E
315: 0x0C3A [0x45] LOAD_SCHEDULED_TASK: Load scheduler "sg07" with entities [EventEntity, EventEntity], work=[859*, 0*]
316: 0x0C4B [0x01] GOTO 0x0CB3
317: 0x0C4E [0x02] IF !(LocalPlayer->Race == 5*) GOTO 0x0C6A
318: 0x0C56 [0x45] LOAD_SCHEDULED_TASK: Load scheduler "st07" with entities [EventEntity, EventEntity], work=[859*, 0*]
319: 0x0C67 [0x01] GOTO 0x0CB3
320: 0x0C6A [0x02] IF !(LocalPlayer->Race == 6*) GOTO 0x0C86
321: 0x0C72 [0x45] LOAD_SCHEDULED_TASK: Load scheduler "st07" with entities [EventEntity, EventEntity], work=[859*, 0*]
322: 0x0C83 [0x01] GOTO 0x0CB3
323: 0x0C86 [0x02] IF !(LocalPlayer->Race == 8*) GOTO 0x0CA2
324: 0x0C8E [0x45] LOAD_SCHEDULED_TASK: Load scheduler "sg07" with entities [EventEntity, EventEntity], work=[859*, 0*]
325: 0x0C9F [0x01] GOTO 0x0CB3
326: 0x0CA2 [0x45] LOAD_SCHEDULED_TASK: Load scheduler "s007" with entities [EventEntity, EventEntity], work=[859*, 0*]

SUBROUTINE_0CB3:
327: 0x0CB3 [0x6F] WAIT_FRAME_DELAY: Yield until WaitTime reaches zero
328: 0x0CB4 [0x76] CHECK_ENTITY_RENDER_FLAGS: Wait until Kohlo-Lakolo (ID: 17248927/0x0107329F) Render.Flags0 and Render.Flags3 conditions are met
329: 0x0CB9 [0x1C] WAIT(10* ticks)
330: 0x0CBC [0x5B] LOAD_EXT_SCHEDULER: Load scheduler "tlk1" with entities [Kohlo-Lakolo (ID: 17248927/0x0107329F), Kohlo-Lakolo (ID: 17248927/0x0107329F)], work=85*
331: 0x0CCB [0x2B] Kohlo-Lakolo (ID: 17248927/0x0107329F) [12457*]:
     "Pichichi is right, you know!"
332: 0x0CD2 [0x1C] WAIT(120* ticks)
333: 0x0CD5 [0x23] WAIT_FOR_DIALOG_INTERACTION
334: 0x0CD6 [0x5B] LOAD_EXT_SCHEDULER: Load scheduler "tlke" with entities [Kohlo-Lakolo (ID: 17248927/0x0107329F), Kohlo-Lakolo (ID: 17248927/0x0107329F)], work=85*
335: 0x0CE5 [0x7B] Yafa Yaa (ID: 17248932/0x010732A4) stops talking
336: 0x0CEA [0x5B] LOAD_EXT_SCHEDULER: Load scheduler "kun0" with entities [Yafa Yaa (ID: 17248932/0x010732A4), Yafa Yaa (ID: 17248932/0x010732A4)], work=1284*
337: 0x0CF9 [0x1C] WAIT(60* ticks)
338: 0x0CFC [0x02] IF !(LocalPlayer->Race == 3*) GOTO 0x0D16
339: 0x0D04 [0x52] END_LOAD_SCHEDULER: End scheduler "sg07" with entities [EventEntity, EventEntity], work=859*
340: 0x0D13 [0x01] GOTO 0x0D8D
341: 0x0D16 [0x02] IF !(LocalPlayer->Race == 4*) GOTO 0x0D30
342: 0x0D1E [0x52] END_LOAD_SCHEDULER: End scheduler "sg07" with entities [EventEntity, EventEntity], work=859*
343: 0x0D2D [0x01] GOTO 0x0D8D
344: 0x0D30 [0x02] IF !(LocalPlayer->Race == 5*) GOTO 0x0D4A
345: 0x0D38 [0x52] END_LOAD_SCHEDULER: End scheduler "st07" with entities [EventEntity, EventEntity], work=859*
346: 0x0D47 [0x01] GOTO 0x0D8D
347: 0x0D4A [0x02] IF !(LocalPlayer->Race == 6*) GOTO 0x0D64
348: 0x0D52 [0x52] END_LOAD_SCHEDULER: End scheduler "st07" with entities [EventEntity, EventEntity], work=859*
349: 0x0D61 [0x01] GOTO 0x0D8D
350: 0x0D64 [0x02] IF !(LocalPlayer->Race == 8*) GOTO 0x0D7E
351: 0x0D6C [0x52] END_LOAD_SCHEDULER: End scheduler "sg07" with entities [EventEntity, EventEntity], work=859*
352: 0x0D7B [0x01] GOTO 0x0D8D
353: 0x0D7E [0x52] END_LOAD_SCHEDULER: End scheduler "s007" with entities [EventEntity, EventEntity], work=859*

SUBROUTINE_0D8D:
354: 0x0D8D [0x45] LOAD_SCHEDULED_TASK: Load scheduler "s008" with entities [EventEntity, EventEntity], work=[859*, 0*]
355: 0x0D9E [0x2B] Yafa Yaa (ID: 17248932/0x010732A4) [12458*]:
     "<Sniff, sniff>... I smell Yagudo. They must've just left."
356: 0x0DA5 [0x1C] WAIT(150* ticks)
357: 0x0DA8 [0x5B] LOAD_EXT_SCHEDULER: Load scheduler "kun1" with entities [Yafa Yaa (ID: 17248932/0x010732A4), Yafa Yaa (ID: 17248932/0x010732A4)], work=1284*
358: 0x0DB7 [0x1C] WAIT(60* ticks)
359: 0x0DBA [0x27] REQ_SET(priority=0x10, entity_id=Yafa Yaa (ID: 17248932/0x010732A4), tag_num=0x04)
360: 0x0DC1 [0x1C] WAIT(10* ticks)
361: 0x0DC4 [0x52] END_LOAD_SCHEDULER: End scheduler "s008" with entities [EventEntity, EventEntity], work=859*
362: 0x0DD3 [0x45] LOAD_SCHEDULED_TASK: Load scheduler "s009" with entities [EventEntity, EventEntity], work=[859*, 0*]
363: 0x0DE4 [0x2A] GET_REQ_LEVEL(level=16, entity_id=Yafa Yaa (ID: 17248932/0x010732A4))
364: 0x0DEA [0x4A] Kohlo-Lakolo (ID: 17248927/0x0107329F) looks at Yafa Yaa (ID: 17248932/0x010732A4)
365: 0x0DF3 [0x1C] WAIT(10* ticks)
366: 0x0DF6 [0x4A] Papo-Hopo (ID: 17248928/0x010732A0) looks at Yafa Yaa (ID: 17248932/0x010732A4)
367: 0x0DFF [0x1C] WAIT(5* ticks)
368: 0x0E02 [0x4A] Gomada-Vulmada (ID: 17248929/0x010732A1) looks at Yafa Yaa (ID: 17248932/0x010732A4)
369: 0x0E0B [0x1C] WAIT(10* ticks)
370: 0x0E0E [0x4A] Pichichi (ID: 17248930/0x010732A2) looks at Yafa Yaa (ID: 17248932/0x010732A4)
371: 0x0E17 [0x1C] WAIT(5* ticks)
372: 0x0E1A [0x4A] Pyo Nzon (ID: 17248933/0x010732A5) looks at Yafa Yaa (ID: 17248932/0x010732A4)
373: 0x0E23 [0x1C] WAIT(5* ticks)
374: 0x0E26 [0x4A] LocalPlayer looks at Yafa Yaa (ID: 17248932/0x010732A4)
375: 0x0E2F [0x23] WAIT_FOR_DIALOG_INTERACTION
376: 0x0E30 [0x1C] WAIT(60* ticks)
377: 0x0E33 [0x52] END_LOAD_SCHEDULER: End scheduler "s009" with entities [EventEntity, EventEntity], work=859*
378: 0x0E42 [0x01] GOTO 0x110E
379: 0x0E45 [0x02] IF !(Work_Zone[0] == 1*) GOTO 0x0F4E
380: 0x0E4D [0x29] REQ_SET_WAIT(priority=0x10, entity_id=LocalPlayer, tag_num=0x13)
381: 0x0E54 [0x1C] WAIT(60* ticks)
382: 0x0E57 [0x02] IF !(LocalPlayer->Race == 3*) GOTO 0x0E71
383: 0x0E5F [0x52] END_LOAD_SCHEDULER: End scheduler "sg04" with entities [EventEntity, EventEntity], work=859*
384: 0x0E6E [0x01] GOTO 0x0EE8
385: 0x0E71 [0x02] IF !(LocalPlayer->Race == 4*) GOTO 0x0E8B
386: 0x0E79 [0x52] END_LOAD_SCHEDULER: End scheduler "sg04" with entities [EventEntity, EventEntity], work=859*
387: 0x0E88 [0x01] GOTO 0x0EE8
388: 0x0E8B [0x02] IF !(LocalPlayer->Race == 5*) GOTO 0x0EA5
389: 0x0E93 [0x52] END_LOAD_SCHEDULER: End scheduler "st04" with entities [EventEntity, EventEntity], work=859*
390: 0x0EA2 [0x01] GOTO 0x0EE8
391: 0x0EA5 [0x02] IF !(LocalPlayer->Race == 6*) GOTO 0x0EBF
392: 0x0EAD [0x52] END_LOAD_SCHEDULER: End scheduler "st04" with entities [EventEntity, EventEntity], work=859*
393: 0x0EBC [0x01] GOTO 0x0EE8
394: 0x0EBF [0x02] IF !(LocalPlayer->Race == 8*) GOTO 0x0ED9
395: 0x0EC7 [0x52] END_LOAD_SCHEDULER: End scheduler "sg04" with entities [EventEntity, EventEntity], work=859*
396: 0x0ED6 [0x01] GOTO 0x0EE8
397: 0x0ED9 [0x52] END_LOAD_SCHEDULER: End scheduler "s004" with entities [EventEntity, EventEntity], work=859*

SUBROUTINE_0EE8:
398: 0x0EE8 [0x45] LOAD_SCHEDULED_TASK: Load scheduler "s010" with entities [EventEntity, EventEntity], work=[859*, 0*]
399: 0x0EF9 [0x5B] LOAD_EXT_SCHEDULER: Load scheduler "sur0" with entities [Kohlo-Lakolo (ID: 17248927/0x0107329F), Kohlo-Lakolo (ID: 17248927/0x0107329F)], work=85*
400: 0x0F08 [0x2B] Kohlo-Lakolo (ID: 17248927/0x0107329F) [12459*]:
     "They left!? Why?"
401: 0x0F0F [0x1C] WAIT(120* ticks)
402: 0x0F12 [0x23] WAIT_FOR_DIALOG_INTERACTION
403: 0x0F13 [0x5B] LOAD_EXT_SCHEDULER: Load scheduler "tlk1" with entities [Kohlo-Lakolo (ID: 17248927/0x0107329F), Kohlo-Lakolo (ID: 17248927/0x0107329F)], work=85*
404: 0x0F22 [0x2B] Kohlo-Lakolo (ID: 17248927/0x0107329F) [12460*]:
     "But I'm the one with the special egg..."
405: 0x0F29 [0x1C] WAIT(150* ticks)
406: 0x0F2C [0x23] WAIT_FOR_DIALOG_INTERACTION
407: 0x0F2D [0x5B] LOAD_EXT_SCHEDULER: Load scheduler "tlke" with entities [Kohlo-Lakolo (ID: 17248927/0x0107329F), Kohlo-Lakolo (ID: 17248927/0x0107329F)], work=85*
408: 0x0F3C [0x52] END_LOAD_SCHEDULER: End scheduler "s010" with entities [EventEntity, EventEntity], work=859*
409: 0x0F4B [0x01] GOTO 0x110E
410: 0x0F4E [0x02] IF !(Work_Zone[0] == 2*) GOTO 0x110E
411: 0x0F56 [0x6E] LocalPlayer uses emote 6*
412: 0x0F5D [0x99] Wait for LocalPlayer animation to complete
413: 0x0F62 [0x1C] WAIT(120* ticks)
414: 0x0F65 [0x02] IF !(LocalPlayer->Race == 3*) GOTO 0x0F7F
415: 0x0F6D [0x52] END_LOAD_SCHEDULER: End scheduler "sg04" with entities [EventEntity, EventEntity], work=859*
416: 0x0F7C [0x01] GOTO 0x0FF6
417: 0x0F7F [0x02] IF !(LocalPlayer->Race == 4*) GOTO 0x0F99
418: 0x0F87 [0x52] END_LOAD_SCHEDULER: End scheduler "sg04" with entities [EventEntity, EventEntity], work=859*
419: 0x0F96 [0x01] GOTO 0x0FF6
420: 0x0F99 [0x02] IF !(LocalPlayer->Race == 5*) GOTO 0x0FB3
421: 0x0FA1 [0x52] END_LOAD_SCHEDULER: End scheduler "st04" with entities [EventEntity, EventEntity], work=859*
422: 0x0FB0 [0x01] GOTO 0x0FF6
423: 0x0FB3 [0x02] IF !(LocalPlayer->Race == 6*) GOTO 0x0FCD
424: 0x0FBB [0x52] END_LOAD_SCHEDULER: End scheduler "st04" with entities [EventEntity, EventEntity], work=859*
425: 0x0FCA [0x01] GOTO 0x0FF6
426: 0x0FCD [0x02] IF !(LocalPlayer->Race == 8*) GOTO 0x0FE7
427: 0x0FD5 [0x52] END_LOAD_SCHEDULER: End scheduler "sg04" with entities [EventEntity, EventEntity], work=859*
428: 0x0FE4 [0x01] GOTO 0x0FF6
429: 0x0FE7 [0x52] END_LOAD_SCHEDULER: End scheduler "s004" with entities [EventEntity, EventEntity], work=859*

SUBROUTINE_0FF6:
430: 0x0FF6 [0x45] LOAD_SCHEDULED_TASK: Load scheduler "s010" with entities [EventEntity, EventEntity], work=[859*, 0*]
431: 0x1007 [0x5B] LOAD_EXT_SCHEDULER: Load scheduler "tlk1" with entities [Kohlo-Lakolo (ID: 17248927/0x0107329F), Kohlo-Lakolo (ID: 17248927/0x0107329F)], work=85*
432: 0x1016 [0x2B] Kohlo-Lakolo (ID: 17248927/0x0107329F) [12461*]:
     "You've got to pay more atte`ntion! You can't just go through life in a haze, you know!"
433: 0x101D [0x1C] WAIT(150* ticks)
434: 0x1020 [0x23] WAIT_FOR_DIALOG_INTERACTION
435: 0x1021 [0x5B] LOAD_EXT_SCHEDULER: Load scheduler "tlke" with entities [Kohlo-Lakolo (ID: 17248927/0x0107329F), Kohlo-Lakolo (ID: 17248927/0x0107329F)], work=85*
436: 0x1030 [0x7B] Yafa Yaa (ID: 17248932/0x010732A4) stops talking
437: 0x1035 [0x5B] LOAD_EXT_SCHEDULER: Load scheduler "kun0" with entities [Yafa Yaa (ID: 17248932/0x010732A4), Yafa Yaa (ID: 17248932/0x010732A4)], work=1284*
438: 0x1044 [0x1C] WAIT(60* ticks)
439: 0x1047 [0x52] END_LOAD_SCHEDULER: End scheduler "s010" with entities [EventEntity, EventEntity], work=859*
440: 0x1056 [0x45] LOAD_SCHEDULED_TASK: Load scheduler "s008" with entities [EventEntity, EventEntity], work=[859*, 0*]
441: 0x1067 [0x2B] Yafa Yaa (ID: 17248932/0x010732A4) [12462*]:
     "<Sniff, sniff>... I smell Yagudo. They must've just left."
442: 0x106E [0x1C] WAIT(150* ticks)
443: 0x1071 [0x5B] LOAD_EXT_SCHEDULER: Load scheduler "kun1" with entities [Yafa Yaa (ID: 17248932/0x010732A4), Yafa Yaa (ID: 17248932/0x010732A4)], work=1284*
444: 0x1080 [0x1C] WAIT(60* ticks)
445: 0x1083 [0x27] REQ_SET(priority=0x10, entity_id=Yafa Yaa (ID: 17248932/0x010732A4), tag_num=0x04)
446: 0x108A [0x1C] WAIT(10* ticks)
