# 17248869 - Moogle

## Common Data

| Field            | Value                       |
|------------------|-----------------------------|
| Zone             | West Sarutabaruta (ID: 115) |
| Block Size       | 800 bytes                   |
| Total Events     | 32                          |
| References Count | 35                          |

## List of Events

| Event ID                   | Entrypoint   |   Size |   Instructions |
|----------------------------|--------------|--------|----------------|
| [65535](#event-65535)      | 0x0000       |      1 |              1 |
| [62](#event-62)            | 0x0001       |      1 |              1 |
| [65535.1](#event-655351)   | 0x0002       |     19 |              5 |
| [65535.2](#event-655352)   | 0x0015       |     10 |              2 |
| [65535.3](#event-655353)   | 0x001F       |     10 |              2 |
| [65535.4](#event-655354)   | 0x0029       |     14 |              4 |
| [65535.5](#event-655355)   | 0x0037       |     14 |              4 |
| [65535.6](#event-655356)   | 0x0045       |     19 |              3 |
| [65535.7](#event-655357)   | 0x0058       |     16 |              2 |
| [65535.8](#event-655358)   | 0x0068       |     16 |              2 |
| [65535.9](#event-655359)   | 0x0078       |     16 |              2 |
| [65535.10](#event-6553510) | 0x0088       |     16 |              2 |
| [65535.11](#event-6553511) | 0x0098       |     19 |              3 |
| [65535.12](#event-6553512) | 0x00AB       |     16 |              2 |
| [65535.13](#event-6553513) | 0x00BB       |     16 |              2 |
| [65535.14](#event-6553514) | 0x00CB       |     16 |              2 |
| [65535.15](#event-6553515) | 0x00DB       |     19 |              3 |
| [65535.16](#event-6553516) | 0x00EE       |     19 |              3 |
| [65535.17](#event-6553517) | 0x0101       |     19 |              3 |
| [65535.18](#event-6553518) | 0x0114       |     19 |              3 |
| [65535.19](#event-6553519) | 0x0127       |     19 |              3 |
| [65535.20](#event-6553520) | 0x013A       |     19 |              3 |
| [65535.21](#event-6553521) | 0x014D       |     19 |              3 |
| [65535.22](#event-6553522) | 0x0160       |     19 |              3 |
| [65535.23](#event-6553523) | 0x0173       |     19 |              3 |
| [65535.24](#event-6553524) | 0x0186       |     23 |              5 |
| [65535.25](#event-6553525) | 0x019D       |     27 |              5 |
| [65535.26](#event-6553526) | 0x01B8       |     19 |              3 |
| [63](#event-63)            | 0x01CB       |      1 |              1 |
| [65535.27](#event-6553527) | 0x01CC       |     14 |              4 |
| [65535.28](#event-6553528) | 0x01DA       |     14 |              4 |
| [65535.29](#event-6553529) | 0x01E8       |     27 |              5 |

## DAT References (imed_data)

|   Index | Hex Value   |   Dec Value |
|---------|-------------|-------------|
|       0 | 0x0939      |        2361 |
|       1 | 0x0080      |         128 |
|       2 | 0x0000      |           0 |
|       3 | 0x001E      |          30 |
|       4 | 0x4E200     |      320000 |
|       5 | 0xFFFF92A0  |  4294939296 |
|       6 | 0xFFFFED20  |  4294962464 |
|       7 | 0x0011      |          17 |
|       8 | 0xFFFF5BF0  |  4294925296 |
|       9 | 0xFFFFEF36  |  4294962998 |
|      10 | 0x0AC3      |        2755 |
|      11 | 0x0078      |         120 |
|      12 | 0x0A49      |        2633 |
|      13 | 0x005F      |          95 |
|      14 | 0x0A4A      |        2634 |
|      15 | 0x0A4C      |        2636 |
|      16 | 0x003C      |          60 |
|      17 | 0x0A52      |        2642 |
|      18 | 0x00A0      |         160 |
|      19 | 0x0050      |          80 |
|      20 | 0x0AD0      |        2768 |
|      21 | 0x0074      |         116 |
|      22 | 0x0140      |         320 |
|      23 | 0x008C      |         140 |
|      24 | 0x000F      |          15 |
|      25 | 0xFFFF9110  |  4294938896 |
|      26 | 0xFFFFEE87  |  4294962823 |
|      27 | 0x0C00      |        3072 |
|      28 | 0x24220     |      148000 |
|      29 | 0xFFFB1E00  |  4294647296 |
|      30 | 0xFFFFFCFD  |  4294966525 |
|      31 | 0x26B6A     |      158570 |
|      32 | 0xFFFFFA24  |  4294965796 |
|      33 | 0x243B0     |      148400 |
|      34 | 0x0800      |        2048 |

## Events

### Event 65535

#### Metadata

| Field        | Value   |
|--------------|---------|
| Entrypoint   | 0x0000  |
| Data Size    | 1 bytes |
| Instructions | 1       |

```
      00 01 02 03 04 05 06 07  08 09 0A 0B 0C 0D 0E 0F
      -- -- -- -- -- -- -- --  -- -- -- -- -- -- -- --
0000: 00                                                .               
```

#### Opcodes

```
  0: 0x0000 [0x00] END_REQSTACK()
```

### Event 62

#### Metadata

| Field        | Value   |
|--------------|---------|
| Entrypoint   | 0x0001  |
| Data Size    | 1 bytes |
| Instructions | 1       |

```
      00 01 02 03 04 05 06 07  08 09 0A 0B 0C 0D 0E 0F
      -- -- -- -- -- -- -- --  -- -- -- -- -- -- -- --
0000:    00                                              .              
```

#### Opcodes

```
  0: 0x0001 [0x00] END_REQSTACK()
```

### Event 65535.1

#### Metadata

| Field        | Value    |
|--------------|----------|
| Entrypoint   | 0x0002   |
| Data Size    | 19 bytes |
| Instructions | 5        |

```
      00 01 02 03 04 05 06 07  08 09 0A 0B 0C 0D 0E 0F
      -- -- -- -- -- -- -- --  -- -- -- -- -- -- -- --
0000:       B6 00 00 80 22 00  92 01 F8 FF FF 7F 94 01    ....".........
0010: F8 FF FF 7F 00                                    .....           
```

#### Opcodes

```
  0: 0x0002 [0xB6] ENTITY_APPEARANCE_HANDLER(case=Hair style, value=2361*)
  1: 0x0006 [0x22] ENTITY_HIDE_FLAG(enabled=0x00)
  2: 0x0008 [0x92] EventEntity->Render.Flags3 ^= 0x01
  3: 0x000E [0x94] EventEntity->Render.Flags3 ^= 0x01
  4: 0x0014 [0x00] END_REQSTACK()
```

### Event 65535.2

#### Metadata

| Field        | Value    |
|--------------|----------|
| Entrypoint   | 0x0015   |
| Data Size    | 10 bytes |
| Instructions | 2        |

```
      00 01 02 03 04 05 06 07  08 09 0A 0B 0C 0D 0E 0F
      -- -- -- -- -- -- -- --  -- -- -- -- -- -- -- --
0010:                6C F8 FF  FF 7F 01 80 02 80 00          l......... 
```

#### Opcodes

```
  0: 0x0015 [0x6C] FADE_ENTITY_COLOR(entity_id=EventEntity, end_alpha=128*, fade_time=0*)
  1: 0x001E [0x00] END_REQSTACK()
```

### Event 65535.3

#### Metadata

| Field        | Value    |
|--------------|----------|
| Entrypoint   | 0x001F   |
| Data Size    | 10 bytes |
| Instructions | 2        |

```
      00 01 02 03 04 05 06 07  08 09 0A 0B 0C 0D 0E 0F
      -- -- -- -- -- -- -- --  -- -- -- -- -- -- -- --
0010:                                               6C                 l
0020: F8 FF FF 7F 02 80 02 80  00                       .........       
```

#### Opcodes

```
  0: 0x001F [0x6C] FADE_ENTITY_COLOR(entity_id=EventEntity, end_alpha=0*, fade_time=0*)
  1: 0x0028 [0x00] END_REQSTACK()
```

### Event 65535.4

#### Metadata

| Field        | Value    |
|--------------|----------|
| Entrypoint   | 0x0029   |
| Data Size    | 14 bytes |
| Instructions | 4        |

```
      00 01 02 03 04 05 06 07  08 09 0A 0B 0C 0D 0E 0F
      -- -- -- -- -- -- -- --  -- -- -- -- -- -- -- --
0020:                             32 03 80 1F 00 04 80           2......
0030: 05 80 06 80 1F 01 00                              .......         
```

#### Opcodes

```
  0: 0x0029 [0x32] ExtData[1]->MainSpeed = 30* * 0.1
  1: 0x002C [0x1F] MOVE_ENTITY: EventEntity moves to X=320.000*, Z=-28.000*, Y=-4.832*
  2: 0x0034 [0x1F] MOVE_ENTITY: Update entity position (mode=1)
  3: 0x0036 [0x00] END_REQSTACK()
```

### Event 65535.5

#### Metadata

| Field        | Value    |
|--------------|----------|
| Entrypoint   | 0x0037   |
| Data Size    | 14 bytes |
| Instructions | 4        |

```
      00 01 02 03 04 05 06 07  08 09 0A 0B 0C 0D 0E 0F
      -- -- -- -- -- -- -- --  -- -- -- -- -- -- -- --
0030:                      32  07 80 1F 00 04 80 08 80         2........
0040: 09 80 1F 01 00                                    .....           
```

#### Opcodes

```
  0: 0x0037 [0x32] ExtData[1]->MainSpeed = 17* * 0.1
  1: 0x003A [0x1F] MOVE_ENTITY: EventEntity moves to X=320.000*, Z=-42.000*, Y=-4.298*
  2: 0x0042 [0x1F] MOVE_ENTITY: Update entity position (mode=1)
  3: 0x0044 [0x00] END_REQSTACK()
```

### Event 65535.6

#### Metadata

| Field        | Value    |
|--------------|----------|
| Entrypoint   | 0x0045   |
| Data Size    | 19 bytes |
| Instructions | 3        |

```
      00 01 02 03 04 05 06 07  08 09 0A 0B 0C 0D 0E 0F
      -- -- -- -- -- -- -- --  -- -- -- -- -- -- -- --
0040:                5B 0A 80  F8 FF FF 7F F8 FF FF 7F       [..........
0050: 70 6E 62 30 1C 0B 80 00                           pnb0....        
```

#### Opcodes

```
  0: 0x0045 [0x5B] LOAD_EXT_SCHEDULER: Load scheduler "pnb0" with entities [EventEntity, EventEntity], work=2755*
  1: 0x0054 [0x1C] WAIT(120* ticks)
  2: 0x0057 [0x00] END_REQSTACK()
```

### Event 65535.7

#### Metadata

| Field        | Value    |
|--------------|----------|
| Entrypoint   | 0x0058   |
| Data Size    | 16 bytes |
| Instructions | 2        |

```
      00 01 02 03 04 05 06 07  08 09 0A 0B 0C 0D 0E 0F
      -- -- -- -- -- -- -- --  -- -- -- -- -- -- -- --
0050:                          5B 0C 80 F8 FF FF 7F F8          [.......
0060: FF FF 7F 6C 61 74 6C 00                           ...latl.        
```

#### Opcodes

```
  0: 0x0058 [0x5B] LOAD_EXT_SCHEDULER: Load scheduler "latl" with entities [EventEntity, EventEntity], work=2633*
  1: 0x0067 [0x00] END_REQSTACK()
```

### Event 65535.8

#### Metadata

| Field        | Value    |
|--------------|----------|
| Entrypoint   | 0x0068   |
| Data Size    | 16 bytes |
| Instructions | 2        |

```
      00 01 02 03 04 05 06 07  08 09 0A 0B 0C 0D 0E 0F
      -- -- -- -- -- -- -- --  -- -- -- -- -- -- -- --
0060:                          5B 0C 80 F8 FF FF 7F F8          [.......
0070: FF FF 7F 6C 61 74 31 00                           ...lat1.        
```

#### Opcodes

```
  0: 0x0068 [0x5B] LOAD_EXT_SCHEDULER: Load scheduler "lat1" with entities [EventEntity, EventEntity], work=2633*
  1: 0x0077 [0x00] END_REQSTACK()
```

### Event 65535.9

#### Metadata

| Field        | Value    |
|--------------|----------|
| Entrypoint   | 0x0078   |
| Data Size    | 16 bytes |
| Instructions | 2        |

```
      00 01 02 03 04 05 06 07  08 09 0A 0B 0C 0D 0E 0F
      -- -- -- -- -- -- -- --  -- -- -- -- -- -- -- --
0070:                          5B 0C 80 F8 FF FF 7F F8          [.......
0080: FF FF 7F 6C 61 74 32 00                           ...lat2.        
```

#### Opcodes

```
  0: 0x0078 [0x5B] LOAD_EXT_SCHEDULER: Load scheduler "lat2" with entities [EventEntity, EventEntity], work=2633*
  1: 0x0087 [0x00] END_REQSTACK()
```

### Event 65535.10

#### Metadata

| Field        | Value    |
|--------------|----------|
| Entrypoint   | 0x0088   |
| Data Size    | 16 bytes |
| Instructions | 2        |

```
      00 01 02 03 04 05 06 07  08 09 0A 0B 0C 0D 0E 0F
      -- -- -- -- -- -- -- --  -- -- -- -- -- -- -- --
0080:                          5B 0C 80 F8 FF FF 7F F8          [.......
0090: FF FF 7F 6C 61 74 33 00                           ...lat3.        
```

#### Opcodes

```
  0: 0x0088 [0x5B] LOAD_EXT_SCHEDULER: Load scheduler "lat3" with entities [EventEntity, EventEntity], work=2633*
  1: 0x0097 [0x00] END_REQSTACK()
```

### Event 65535.11

#### Metadata

| Field        | Value    |
|--------------|----------|
| Entrypoint   | 0x0098   |
| Data Size    | 19 bytes |
| Instructions | 3        |

```
      00 01 02 03 04 05 06 07  08 09 0A 0B 0C 0D 0E 0F
      -- -- -- -- -- -- -- --  -- -- -- -- -- -- -- --
0090:                          5B 0C 80 F8 FF FF 7F F8          [.......
00A0: FF FF 7F 6C 61 74 34 1C  0D 80 00                 ...lat4....     
```

#### Opcodes

```
  0: 0x0098 [0x5B] LOAD_EXT_SCHEDULER: Load scheduler "lat4" with entities [EventEntity, EventEntity], work=2633*
  1: 0x00A7 [0x1C] WAIT(95* ticks)
  2: 0x00AA [0x00] END_REQSTACK()
```

### Event 65535.12

#### Metadata

| Field        | Value    |
|--------------|----------|
| Entrypoint   | 0x00AB   |
| Data Size    | 16 bytes |
| Instructions | 2        |

```
      00 01 02 03 04 05 06 07  08 09 0A 0B 0C 0D 0E 0F
      -- -- -- -- -- -- -- --  -- -- -- -- -- -- -- --
00A0:                                   5B 0E 80 F8 FF             [....
00B0: FF 7F F8 FF FF 7F 62 72  75 30 00                 ......bru0.     
```

#### Opcodes

```
  0: 0x00AB [0x5B] LOAD_EXT_SCHEDULER: Load scheduler "bru0" with entities [EventEntity, EventEntity], work=2634*
  1: 0x00BA [0x00] END_REQSTACK()
```

### Event 65535.13

#### Metadata

| Field        | Value    |
|--------------|----------|
| Entrypoint   | 0x00BB   |
| Data Size    | 16 bytes |
| Instructions | 2        |

```
      00 01 02 03 04 05 06 07  08 09 0A 0B 0C 0D 0E 0F
      -- -- -- -- -- -- -- --  -- -- -- -- -- -- -- --
00B0:                                   5B 0F 80 F8 FF             [....
00C0: FF 7F F8 FF FF 7F 74 6C  6B 30 00                 ......tlk0.     
```

#### Opcodes

```
  0: 0x00BB [0x5B] LOAD_EXT_SCHEDULER: Load scheduler "tlk0" with entities [EventEntity, EventEntity], work=2636*
  1: 0x00CA [0x00] END_REQSTACK()
```

### Event 65535.14

#### Metadata

| Field        | Value    |
|--------------|----------|
| Entrypoint   | 0x00CB   |
| Data Size    | 16 bytes |
| Instructions | 2        |

```
      00 01 02 03 04 05 06 07  08 09 0A 0B 0C 0D 0E 0F
      -- -- -- -- -- -- -- --  -- -- -- -- -- -- -- --
00C0:                                   5B 0F 80 F8 FF             [....
00D0: FF 7F F8 FF FF 7F 68 61  70 30 00                 ......hap0.     
```

#### Opcodes

```
  0: 0x00CB [0x5B] LOAD_EXT_SCHEDULER: Load scheduler "hap0" with entities [EventEntity, EventEntity], work=2636*
  1: 0x00DA [0x00] END_REQSTACK()
```

### Event 65535.15

#### Metadata

| Field        | Value    |
|--------------|----------|
| Entrypoint   | 0x00DB   |
| Data Size    | 19 bytes |
| Instructions | 3        |

```
      00 01 02 03 04 05 06 07  08 09 0A 0B 0C 0D 0E 0F
      -- -- -- -- -- -- -- --  -- -- -- -- -- -- -- --
00D0:                                   5B 0F 80 F8 FF             [....
00E0: FF 7F F8 FF FF 7F 73 74  64 30 1C 10 80 00        ......std0....  
```

#### Opcodes

```
  0: 0x00DB [0x5B] LOAD_EXT_SCHEDULER: Load scheduler "std0" with entities [EventEntity, EventEntity], work=2636*
  1: 0x00EA [0x1C] WAIT(60* ticks)
  2: 0x00ED [0x00] END_REQSTACK()
```

### Event 65535.16

#### Metadata

| Field        | Value    |
|--------------|----------|
| Entrypoint   | 0x00EE   |
| Data Size    | 19 bytes |
| Instructions | 3        |

```
      00 01 02 03 04 05 06 07  08 09 0A 0B 0C 0D 0E 0F
      -- -- -- -- -- -- -- --  -- -- -- -- -- -- -- --
00E0:                                            5B 11                [.
00F0: 80 F8 FF FF 7F F8 FF FF  7F 6F 6A 69 30 1C 12 80  .........oji0...
0100: 00                                                .               
```

#### Opcodes

```
  0: 0x00EE [0x5B] LOAD_EXT_SCHEDULER: Load scheduler "oji0" with entities [EventEntity, EventEntity], work=2642*
  1: 0x00FD [0x1C] WAIT(160* ticks)
  2: 0x0100 [0x00] END_REQSTACK()
```

### Event 65535.17

#### Metadata

| Field        | Value    |
|--------------|----------|
| Entrypoint   | 0x0101   |
| Data Size    | 19 bytes |
| Instructions | 3        |

```
      00 01 02 03 04 05 06 07  08 09 0A 0B 0C 0D 0E 0F
      -- -- -- -- -- -- -- --  -- -- -- -- -- -- -- --
0100:    5B 11 80 F8 FF FF 7F  F8 FF FF 7F 6C 64 77 30   [..........ldw0
0110: 1C 13 80 00                                       ....            
```

#### Opcodes

```
  0: 0x0101 [0x5B] LOAD_EXT_SCHEDULER: Load scheduler "ldw0" with entities [EventEntity, EventEntity], work=2642*
  1: 0x0110 [0x1C] WAIT(80* ticks)
  2: 0x0113 [0x00] END_REQSTACK()
```

### Event 65535.18

#### Metadata

| Field        | Value    |
|--------------|----------|
| Entrypoint   | 0x0114   |
| Data Size    | 19 bytes |
| Instructions | 3        |

```
      00 01 02 03 04 05 06 07  08 09 0A 0B 0C 0D 0E 0F
      -- -- -- -- -- -- -- --  -- -- -- -- -- -- -- --
0110:             5B 11 80 F8  FF FF 7F F8 FF FF 7F 6C      [..........l
0120: 64 77 31 1C 13 80 00                              dw1....         
```

#### Opcodes

```
  0: 0x0114 [0x5B] LOAD_EXT_SCHEDULER: Load scheduler "ldw1" with entities [EventEntity, EventEntity], work=2642*
  1: 0x0123 [0x1C] WAIT(80* ticks)
  2: 0x0126 [0x00] END_REQSTACK()
```

### Event 65535.19

#### Metadata

| Field        | Value    |
|--------------|----------|
| Entrypoint   | 0x0127   |
| Data Size    | 19 bytes |
| Instructions | 3        |

```
      00 01 02 03 04 05 06 07  08 09 0A 0B 0C 0D 0E 0F
      -- -- -- -- -- -- -- --  -- -- -- -- -- -- -- --
0120:                      5B  14 80 F8 FF FF 7F F8 FF         [........
0130: FF 7F 62 72 75 30 1C 15  80 00                    ..bru0....      
```

#### Opcodes

```
  0: 0x0127 [0x5B] LOAD_EXT_SCHEDULER: Load scheduler "bru0" with entities [EventEntity, EventEntity], work=2768*
  1: 0x0136 [0x1C] WAIT(116* ticks)
  2: 0x0139 [0x00] END_REQSTACK()
```

### Event 65535.20

#### Metadata

| Field        | Value    |
|--------------|----------|
| Entrypoint   | 0x013A   |
| Data Size    | 19 bytes |
| Instructions | 3        |

```
      00 01 02 03 04 05 06 07  08 09 0A 0B 0C 0D 0E 0F
      -- -- -- -- -- -- -- --  -- -- -- -- -- -- -- --
0130:                                5B 14 80 F8 FF FF            [.....
0140: 7F F8 FF FF 7F 69 6E 6F  30 1C 16 80 00           .....ino0....   
```

#### Opcodes

```
  0: 0x013A [0x5B] LOAD_EXT_SCHEDULER: Load scheduler "ino0" with entities [EventEntity, EventEntity], work=2768*
  1: 0x0149 [0x1C] WAIT(320* ticks)
  2: 0x014C [0x00] END_REQSTACK()
```

### Event 65535.21

#### Metadata

| Field        | Value    |
|--------------|----------|
| Entrypoint   | 0x014D   |
| Data Size    | 19 bytes |
| Instructions | 3        |

```
      00 01 02 03 04 05 06 07  08 09 0A 0B 0C 0D 0E 0F
      -- -- -- -- -- -- -- --  -- -- -- -- -- -- -- --
0140:                                         5B 14 80               [..
0150: F8 FF FF 7F F8 FF FF 7F  69 6E 6F 31 1C 0D 80 00  ........ino1....
```

#### Opcodes

```
  0: 0x014D [0x5B] LOAD_EXT_SCHEDULER: Load scheduler "ino1" with entities [EventEntity, EventEntity], work=2768*
  1: 0x015C [0x1C] WAIT(95* ticks)
  2: 0x015F [0x00] END_REQSTACK()
```

### Event 65535.22

#### Metadata

| Field        | Value    |
|--------------|----------|
| Entrypoint   | 0x0160   |
| Data Size    | 19 bytes |
| Instructions | 3        |

```
      00 01 02 03 04 05 06 07  08 09 0A 0B 0C 0D 0E 0F
      -- -- -- -- -- -- -- --  -- -- -- -- -- -- -- --
0160: 5B 14 80 F8 FF FF 7F F8  FF FF 7F 68 72 6F 30 1C  [..........hro0.
0170: 0B 80 00                                          ...             
```

#### Opcodes

```
  0: 0x0160 [0x5B] LOAD_EXT_SCHEDULER: Load scheduler "hro0" with entities [EventEntity, EventEntity], work=2768*
  1: 0x016F [0x1C] WAIT(120* ticks)
  2: 0x0172 [0x00] END_REQSTACK()
```

### Event 65535.23

#### Metadata

| Field        | Value    |
|--------------|----------|
| Entrypoint   | 0x0173   |
| Data Size    | 19 bytes |
| Instructions | 3        |

```
      00 01 02 03 04 05 06 07  08 09 0A 0B 0C 0D 0E 0F
      -- -- -- -- -- -- -- --  -- -- -- -- -- -- -- --
0170:          5B 14 80 F8 FF  FF 7F F8 FF FF 7F 64 6C     [..........dl
0180: 36 31 1C 17 80 00                                 61....          
```

#### Opcodes

```
  0: 0x0173 [0x5B] LOAD_EXT_SCHEDULER: Load scheduler "dl61" with entities [EventEntity, EventEntity], work=2768*
  1: 0x0182 [0x1C] WAIT(140* ticks)
  2: 0x0185 [0x00] END_REQSTACK()
```

### Event 65535.24

#### Metadata

| Field        | Value    |
|--------------|----------|
| Entrypoint   | 0x0186   |
| Data Size    | 23 bytes |
| Instructions | 5        |

```
      00 01 02 03 04 05 06 07  08 09 0A 0B 0C 0D 0E 0F
      -- -- -- -- -- -- -- --  -- -- -- -- -- -- -- --
0180:                   BA F8  FF FF 7F 02 80 02 80 02        ..........
0190: 80 02 80 80 F8 FF FF 7F  1C 18 80 84 00           .............   
```

#### Opcodes

```
  0: 0x0186 [0xBA] SET_ENTITY_POSITION(entity_id=EventEntity, pos_x=0.000*, pos_z=0.000*, pos_y=0.000*, direction=0.0°*)
  1: 0x0193 [0x80] LOAD_WAIT(entity=EventEntity)
  2: 0x0198 [0x1C] WAIT(15* ticks)
  3: 0x019B [0x84] ADJUST_RENDER_FLAGS3_BIT0()
  4: 0x019C [0x00] END_REQSTACK()
```

### Event 65535.25

#### Metadata

| Field        | Value    |
|--------------|----------|
| Entrypoint   | 0x019D   |
| Data Size    | 27 bytes |
| Instructions | 5        |

```
      00 01 02 03 04 05 06 07  08 09 0A 0B 0C 0D 0E 0F
      -- -- -- -- -- -- -- --  -- -- -- -- -- -- -- --
0190:                                         6C F8 FF               l..
01A0: FF 7F 02 80 02 80 37 04  80 19 80 1A 80 1B 80 80  ......7.........
01B0: F8 FF FF 7F 1C 18 80 00                           ........        
```

#### Opcodes

```
  0: 0x019D [0x6C] FADE_ENTITY_COLOR(entity_id=EventEntity, end_alpha=0*, fade_time=0*)
  1: 0x01A6 [0x37] UPDATE_EVENT_POSITION_AND_DIR: x=320.000*, z=-28.400*, y=-4.473*, direction=270.0°*
  2: 0x01AF [0x80] LOAD_WAIT(entity=EventEntity)
  3: 0x01B4 [0x1C] WAIT(15* ticks)
  4: 0x01B7 [0x00] END_REQSTACK()
```

### Event 65535.26

#### Metadata

| Field        | Value    |
|--------------|----------|
| Entrypoint   | 0x01B8   |
| Data Size    | 19 bytes |
| Instructions | 3        |

```
      00 01 02 03 04 05 06 07  08 09 0A 0B 0C 0D 0E 0F
      -- -- -- -- -- -- -- --  -- -- -- -- -- -- -- --
01B0:                          5B 0F 80 F8 FF FF 7F F8          [.......
01C0: FF FF 7F 70 6E 63 30 1C  12 80 00                 ...pnc0....     
```

#### Opcodes

```
  0: 0x01B8 [0x5B] LOAD_EXT_SCHEDULER: Load scheduler "pnc0" with entities [EventEntity, EventEntity], work=2636*
  1: 0x01C7 [0x1C] WAIT(160* ticks)
  2: 0x01CA [0x00] END_REQSTACK()
```

### Event 63

#### Metadata

| Field        | Value   |
|--------------|---------|
| Entrypoint   | 0x01CB  |
| Data Size    | 1 bytes |
| Instructions | 1       |

```
      00 01 02 03 04 05 06 07  08 09 0A 0B 0C 0D 0E 0F
      -- -- -- -- -- -- -- --  -- -- -- -- -- -- -- --
01C0:                                   00                         .    
```

#### Opcodes

```
  0: 0x01CB [0x00] END_REQSTACK()
```

### Event 65535.27

#### Metadata

| Field        | Value    |
|--------------|----------|
| Entrypoint   | 0x01CC   |
| Data Size    | 14 bytes |
| Instructions | 4        |

```
      00 01 02 03 04 05 06 07  08 09 0A 0B 0C 0D 0E 0F
      -- -- -- -- -- -- -- --  -- -- -- -- -- -- -- --
01C0:                                      32 03 80 1F              2...
01D0: 00 1C 80 1D 80 1E 80 1F  01 00                    ..........      
```

#### Opcodes

```
  0: 0x01CC [0x32] ExtData[1]->MainSpeed = 30* * 0.1
  1: 0x01CF [0x1F] MOVE_ENTITY: EventEntity moves to X=148.000*, Z=-320.000*, Y=-0.771*
  2: 0x01D7 [0x1F] MOVE_ENTITY: Update entity position (mode=1)
  3: 0x01D9 [0x00] END_REQSTACK()
```

### Event 65535.28

#### Metadata

| Field        | Value    |
|--------------|----------|
| Entrypoint   | 0x01DA   |
| Data Size    | 14 bytes |
| Instructions | 4        |

```
      00 01 02 03 04 05 06 07  08 09 0A 0B 0C 0D 0E 0F
      -- -- -- -- -- -- -- --  -- -- -- -- -- -- -- --
01D0:                                32 07 80 1F 00 1F            2.....
01E0: 80 1D 80 20 80 1F 01 00                           ... ....        
```

#### Opcodes

```
  0: 0x01DA [0x32] ExtData[1]->MainSpeed = 17* * 0.1
  1: 0x01DD [0x1F] MOVE_ENTITY: EventEntity moves to X=158.570*, Z=-320.000*, Y=-1.500*
  2: 0x01E5 [0x1F] MOVE_ENTITY: Update entity position (mode=1)
  3: 0x01E7 [0x00] END_REQSTACK()
```

### Event 65535.29

#### Metadata

| Field        | Value    |
|--------------|----------|
| Entrypoint   | 0x01E8   |
| Data Size    | 27 bytes |
| Instructions | 5        |

```
      00 01 02 03 04 05 06 07  08 09 0A 0B 0C 0D 0E 0F
      -- -- -- -- -- -- -- --  -- -- -- -- -- -- -- --
01E0:                          6C F8 FF FF 7F 02 80 02          l.......
01F0: 80 37 21 80 1D 80 1E 80  22 80 80 F8 FF FF 7F 1C  .7!.....".......
0200: 18 80 00                                          ...             
```

#### Opcodes

```
  0: 0x01E8 [0x6C] FADE_ENTITY_COLOR(entity_id=EventEntity, end_alpha=0*, fade_time=0*)
  1: 0x01F1 [0x37] UPDATE_EVENT_POSITION_AND_DIR: x=148.400*, z=-320.000*, y=-0.771*, direction=180.0°*
  2: 0x01FA [0x80] LOAD_WAIT(entity=EventEntity)
  3: 0x01FF [0x1C] WAIT(15* ticks)
  4: 0x0202 [0x00] END_REQSTACK()
```
