# 17248865

## Common Data

| Field            | Value                       |
|------------------|-----------------------------|
| Zone             | West Sarutabaruta (ID: 115) |
| Block Size       | 5772 bytes                  |
| Total Events     | 3                           |
| References Count | 92                          |

## List of Events

| Event ID              | Entrypoint   |   Size |   Instructions |
|-----------------------|--------------|--------|----------------|
| [65535](#event-65535) | 0x0000       |      1 |              1 |
| [62](#event-62)       | 0x0001       |   2579 |            388 |
| [63](#event-63)       | 0x0A14       |   2796 |            395 |

## DAT References (imed_data)

|   Index | Hex Value   |   Dec Value |
|---------|-------------|-------------|
|       0 | 0x0013      |          19 |
|       1 | 0x4E200     |      320000 |
|       2 | 0xFFFF8300  |  4294935296 |
|       3 | 0xFFFFEF36  |  4294962998 |
|       4 | 0x0552      |        1362 |
|       5 | 0xFFFF5BF0  |  4294925296 |
|       6 | 0xFFFE4279  |  4294853241 |
|       7 | 0xFFF80FF8  |  4294447096 |
|       8 | 0xFFFFEFE5  |  4294963173 |
|       9 | 0x0000      |           0 |
|      10 | 0xFFFE519C  |  4294857116 |
|      11 | 0xFFF810C0  |  4294447296 |
|      12 | 0xFFFFEA84  |  4294961796 |
|      13 | 0xFFFE4EF4  |  4294856436 |
|      14 | 0xFFF81890  |  4294449296 |
|      15 | 0xFFFFEBB0  |  4294962096 |
|      16 | 0x000F      |          15 |
|      17 | 0x001E      |          30 |
|      18 | 0x0001      |           1 |
|      19 | 0x0009      |           9 |
|      20 | 0x0002      |           2 |
|      21 | 0x0003      |           3 |
|      22 | 0x0004      |           4 |
|      23 | 0x0005      |           5 |
|      24 | 0x0006      |           6 |
|      25 | 0x0007      |           7 |
|      26 | 0x0008      |           8 |
|      27 | 0x000A      |          10 |
|      28 | 0x00C8      |         200 |
|      29 | 0x2C4C      |       11340 |
|      30 | 0x01D8      |         472 |
|      31 | 0x2C52      |       11346 |
|      32 | 0x0078      |         120 |
|      33 | 0x0050      |          80 |
|      34 | 0x2C4D      |       11341 |
|      35 | 0x2C4E      |       11342 |
|      36 | 0x2C4F      |       11343 |
|      37 | 0xFFFF9110  |  4294938896 |
|      38 | 0xFFFFEE87  |  4294962823 |
|      39 | 0x0400      |        1024 |
|      40 | 0x2C50      |       11344 |
|      41 | 0x01A4      |         420 |
|      42 | 0x00AA      |         170 |
|      43 | 0x2C51      |       11345 |
|      44 | 0x003C      |          60 |
|      45 | 0x0064      |         100 |
|      46 | 0x2C53      |       11347 |
|      47 | 0x2C54      |       11348 |
|      48 | 0x2C55      |       11349 |
|      49 | 0x2C56      |       11350 |
|      50 | 0x2C57      |       11351 |
|      51 | 0x007F      |         127 |
|      52 | 0x0015      |          21 |
|      53 | 0x002D      |          45 |
|      54 | 0x0ADB      |        2779 |
|      55 | 0x0ADC      |        2780 |
|      56 | 0x0ADD      |        2781 |
|      57 | 0x0ADE      |        2782 |
|      58 | 0x2C59      |       11353 |
|      59 | 0x2C5A      |       11354 |
|      60 | 0x2C5B      |       11355 |
|      61 | 0x2C5C      |       11356 |
|      62 | 0x012C      |         300 |
|      63 | 0x2C5D      |       11357 |
|      64 | 0x0082      |         130 |
|      65 | 0x00B4      |         180 |
|      66 | 0x2C5E      |       11358 |
|      67 | 0x2C5F      |       11359 |
|      68 | 0x2C60      |       11360 |
|      69 | 0x00CA      |         202 |
|      70 | 0x2C61      |       11361 |
|      71 | 0x0071      |         113 |
|      72 | 0x2C62      |       11362 |
|      73 | 0x2C63      |       11363 |
|      74 | 0x0032      |          50 |
|      75 | 0x00D2      |         210 |
|      76 | 0x24F90     |      151440 |
|      77 | 0xFFFB1E00  |  4294647296 |
|      78 | 0xFFFFFEE2  |  4294967010 |
|      79 | 0x07E3      |        2019 |
|      80 | 0x26B6A     |      158570 |
|      81 | 0xFFFFFA24  |  4294965796 |
|      82 | 0x00A0      |         160 |
|      83 | 0x00F0      |         240 |
|      84 | 0x004B      |          75 |
|      85 | 0xFFFFFD44  |  4294966596 |
|      86 | 0x005A      |          90 |
|      87 | 0xFFFE4594  |  4294854036 |
|      88 | 0xFFFFEF98  |  4294963096 |
|      89 | 0x0800      |        2048 |
|      90 | 0x00C9      |         201 |
|      91 | 0x00D7      |         215 |

## String References

- **11340**: Master! Waaait!

## Events

### Event 65535

#### Metadata

| Field        | Value   |
|--------------|---------|
| Entrypoint   | 0x0000  |
| Data Size    | 1 bytes |
| Instructions | 1       |

```
      00 01 02 03 04 05 06 07  08 09 0A 0B 0C 0D 0E 0F
      -- -- -- -- -- -- -- --  -- -- -- -- -- -- -- --
0000: 00                                                .               
```

#### Opcodes

```
  0: 0x0000 [0x00] END_REQSTACK()
```

### Event 62

#### Metadata

| Field        | Value      |
|--------------|------------|
| Entrypoint   | 0x0001     |
| Data Size    | 2579 bytes |
| Instructions | 384        |

```
      00 01 02 03 04 05 06 07  08 09 0A 0B 0C 0D 0E 0F
      -- -- -- -- -- -- -- --  -- -- -- -- -- -- -- --
0000:    42 1A 3A 14 46 01 38  00 80 27 10 F0 FF FF 7F   B.:.F.8..'.....
0010: 0E 27 10 64 32 07 01 02  27 10 62 32 07 01 01 27  .'.d2...'.b2...'
0020: 10 63 32 07 01 02 27 10  65 32 07 01 01 27 10 66  .c2...'.e2...'.f
0030: 32 07 01 06 27 10 62 32  07 01 06 27 10 63 32 07  2...'.b2...'.c2.
0040: 01 05 27 10 66 32 07 01  03 59 05 63 32 07 01 01  ..'.f2...Y.c2...
0050: 59 05 65 32 07 01 01 59  05 66 32 07 01 01 BA F0  Y.e2...Y.f2.....
0060: FF FF 7F 01 80 02 80 03  80 04 80 BA 64 32 07 01  ............d2..
0070: 01 80 05 80 03 80 04 80  BA 62 32 07 01 06 80 07  .........b2.....
0080: 80 08 80 09 80 BA 63 32  07 01 06 80 07 80 08 80  ......c2........
0090: 09 80 BA 65 32 07 01 0A  80 0B 80 0C 80 09 80 BA  ...e2...........
00A0: 66 32 07 01 0D 80 0E 80  0F 80 09 80 80 F0 FF FF  f2..............
00B0: 7F 80 64 32 07 01 80 62  32 07 01 80 63 32 07 01  ..d2...b2...c2..
00C0: 80 65 32 07 01 80 66 32  07 01 1C 10 80 4A 64 32  .e2...f2.....Jd2
00D0: 07 01 F0 FF FF 7F 4A 63  32 07 01 F0 FF FF 7F 4A  ......Jc2......J
00E0: 65 32 07 01 F0 FF FF 7F  6F 76 64 32 07 01 6F 76  e2......ovd2..ov
00F0: 65 32 07 01 1C 10 80 7B  65 32 07 01 7B F0 FF FF  e2.....{e2..{...
0100: 7F 7B 64 32 07 01 27 10  65 32 07 01 07 27 10 62  .{d2..'.e2...'.b
0110: 32 07 01 03 27 10 63 32  07 01 07 27 10 65 32 07  2...'.c2...'.e2.
0120: 01 03 27 10 66 32 07 01  04 1C 11 80 03 00 00 12  ..'.f2..........
0130: 80 02 00 00 13 80 05 E6  01 02 09 80 00 00 04 DE  ................
0140: 01 02 00 00 14 80 80 72  01 27 10 F0 FF FF 7F 10  .......r.'......
0150: 1A 19 14 4A F0 FF FF 7F  64 32 07 01 6F 76 F0 FF  ...J....d2..ov..
0160: FF 7F 4E 00 64 32 07 01  27 10 64 32 07 01 05 01  ..N.d2..'.d2....
0170: DE 01 02 00 00 15 80 80  7D 01 01 DE 01 02 00 00  ........}.......
0180: 16 80 80 88 01 01 DE 01  02 00 00 17 80 80 93 01  ................
0190: 01 DE 01 02 00 00 18 80  80 9E 01 01 DE 01 02 00  ................
01A0: 00 19 80 80 A9 01 01 DE  01 02 00 00 1A 80 80 B4  ................
01B0: 01 01 DE 01 02 00 00 13  80 80 BF 01 01 DE 01 02  ................
01C0: 00 00 1B 80 80 DE 01 4B  64 32 07 01 09 80 6F 76  .......Kd2....ov
01D0: 64 32 07 01 27 10 64 32  07 01 06 01 DE 01 07 00  d2..'.d2........
01E0: 00 12 80 01 31 01 03 00  00 12 80 02 00 00 13 80  ....1...........
01F0: 05 06 02 02 09 80 00 00  05 FE 01 1A DF 03 07 00  ................
0200: 00 12 80 01 EB 01 1A 3A  14 1C 11 80 46 00 45 1C  .......:....F.E.
0210: 80 F0 FF FF 7F F0 FF FF  7F 66 64 69 32 09 80 21  .........fdi2..!
0220: 00 02 09 80 12 80 00 2D  02 48 1D 80 23 1B 02 87  .......-.H..#...
0230: 7F 12 80 80 5C 02 45 1E  80 F0 FF FF 7F F0 FF FF  ....\.E.........
0240: 7F 32 33 30 67 09 80 1A  9F 03 52 1E 80 F0 FF FF  .230g.....R.....
0250: 7F F0 FF FF 7F 32 33 30  67 01 9E 03 02 87 7F 14  .....230g.......
0260: 80 80 8A 02 45 1E 80 F0  FF FF 7F F0 FF FF 7F 32  ....E..........2
0270: 34 30 67 09 80 1A 9F 03  52 1E 80 F0 FF FF 7F F0  40g.....R.......
0280: FF FF 7F 32 34 30 67 01  9E 03 02 87 7F 15 80 80  ...240g.........
0290: B8 02 45 1E 80 F0 FF FF  7F F0 FF FF 7F 32 31 30  ..E..........210
02A0: 67 09 80 1A 9F 03 52 1E  80 F0 FF FF 7F F0 FF FF  g.....R.........
02B0: 7F 32 31 30 67 01 9E 03  02 87 7F 16 80 80 E6 02  .210g...........
02C0: 45 1E 80 F0 FF FF 7F F0  FF FF 7F 32 32 30 67 09  E..........220g.
02D0: 80 1A 9F 03 52 1E 80 F0  FF FF 7F F0 FF FF 7F 32  ....R..........2
02E0: 32 30 67 01 9E 03 02 87  7F 17 80 80 14 03 45 1E  20g...........E.
02F0: 80 F0 FF FF 7F F0 FF FF  7F 32 36 30 67 09 80 1A  .........260g...
0300: 9F 03 52 1E 80 F0 FF FF  7F F0 FF FF 7F 32 36 30  ..R..........260
0310: 67 01 9E 03 02 87 7F 18  80 80 42 03 45 1E 80 F0  g.........B.E...
0320: FF FF 7F F0 FF FF 7F 32  36 30 67 09 80 1A 9F 03  .......260g.....
0330: 52 1E 80 F0 FF FF 7F F0  FF FF 7F 32 36 30 67 01  R..........260g.
0340: 9E 03 02 87 7F 19 80 80  70 03 45 1E 80 F0 FF FF  ........p.E.....
0350: 7F F0 FF FF 7F 32 35 30  67 09 80 1A 9F 03 52 1E  .....250g.....R.
0360: 80 F0 FF FF 7F F0 FF FF  7F 32 35 30 67 01 9E 03  .........250g...
0370: 02 87 7F 1A 80 80 9E 03  45 1E 80 F0 FF FF 7F F0  ........E.......
0380: FF FF 7F 32 30 30 67 09  80 1A 9F 03 52 1E 80 F0  ...200g.....R...
0390: FF FF 7F F0 FF FF 7F 32  30 30 67 01 9E 03 1B 27  .......200g....'
03A0: 10 62 32 07 01 02 2B 65  32 07 01 1F 80 23 2A 10  .b2...+e2....#*.
03B0: 65 32 07 01 29 10 65 32  07 01 09 7B 64 32 07 01  e2..).e2...{d2..
03C0: 1C 10 80 79 00 64 32 07  01 65 32 07 01 29 10 65  ...y.d2..e2..).e
03D0: 32 07 01 11 80 64 32 07  01 7B 64 32 07 01 1B 02  2....d2..{d2....
03E0: 00 00 12 80 80 3D 04 45  1E 80 F0 FF FF 7F F0 FF  .....=.E........
03F0: FF 7F 32 30 30 61 09 80  27 10 F0 FF FF 7F 10 1A  ..200a..'.......
0400: 19 14 1C 20 80 2B 64 32  07 01 1D 80 2A 10 F0 FF  ... .+d2....*...
0410: FF 7F 1C 11 80 4A F0 FF  FF 7F 64 32 07 01 6F 76  .....J....d2..ov
0420: F0 FF FF 7F 27 10 64 32  07 01 05 55 1E 80 F0 FF  ....'.d2...U....
0430: FF 7F F0 FF FF 7F 32 30  30 61 01 13 0A 02 00 00  ......200a......
0440: 14 80 80 CC 04 45 1E 80  F0 FF FF 7F F0 FF FF 7F  .....E..........
0450: 32 30 30 62 09 80 2A 10  64 32 07 01 27 10 62 32  200b..*.d2..'.b2
0460: 07 01 04 27 10 63 32 07  01 03 27 10 65 32 07 01  ...'.c2...'.e2..
0470: 05 27 10 66 32 07 01 01  2A 10 62 32 07 01 1C 21  .'.f2...*.b2...!
0480: 80 27 10 64 32 07 01 0F  2B 64 32 07 01 22 80 23  .'.d2...+d2..".#
0490: 2A 10 64 32 07 01 27 10  62 32 07 01 02 29 10 62  *.d2..'.b2...).b
04A0: 32 07 01 09 27 10 62 32  07 01 0A 29 10 64 32 07  2...'.b2...).d2.
04B0: 01 18 2B 64 32 07 01 23  80 23 52 1E 80 F0 FF FF  ..+d2..#.#R.....
04C0: 7F F0 FF FF 7F 32 30 30  62 01 13 0A 02 00 00 15  .....200b.......
04D0: 80 80 07 05 45 1E 80 F0  FF FF 7F F0 FF FF 7F 32  ....E..........2
04E0: 30 30 63 09 80 2B 64 32  07 01 24 80 23 5D 09 80  00c..+d2..$.#]..
04F0: 20 80 1A 3A 14 52 1E 80  F0 FF FF 7F F0 FF FF 7F   ..:.R..........
0500: 32 30 30 63 01 13 0A 02  00 00 16 80 80 0E 06 2A  200c...........*
0510: 10 63 32 07 01 2A 10 65  32 07 01 27 10 62 32 07  .c2..*.e2..'.b2.
0520: 01 07 27 10 62 32 07 01  03 27 10 63 32 07 01 08  ..'.b2...'.c2...
0530: 29 10 64 32 07 01 08 27  10 63 32 07 01 06 BA 62  ).d2...'.c2....b
0540: 32 07 01 01 80 25 80 26  80 27 80 80 62 32 07 01  2....%.&.'..b2..
0550: 1C 10 80 4A 62 32 07 01  F0 FF FF 7F 1C 11 80 45  ...Jb2.........E
0560: 1E 80 F0 FF FF 7F F0 FF  FF 7F 32 30 30 64 09 80  ..........200d..
0570: 1A 19 14 2B 64 32 07 01  28 80 23 1C 11 80 52 1E  ...+d2..(.#...R.
0580: 80 F0 FF FF 7F F0 FF FF  7F 32 30 30 64 27 10 63  .........200d'.c
0590: 32 07 01 11 29 10 64 32  07 01 17 27 10 66 32 07  2...).d2...'.f2.
05A0: 01 02 45 1E 80 F0 FF FF  7F F0 FF FF 7F 32 30 30  ..E..........200
05B0: 65 09 80 79 00 F0 FF FF  7F 65 32 07 01 27 10 65  e..y.....e2..'.e
05C0: 32 07 01 0F 7B 65 32 07  01 1C 29 80 5C 00 2A 80  2...{e2...).\.*.
05D0: 5C 01 2A 80 9A 27 10 65  32 07 01 08 2B 65 32 07  \.*..'.e2...+e2.
05E0: 01 2B 80 23 52 1E 80 F0  FF FF 7F F0 FF FF 7F 32  .+.#R..........2
05F0: 30 30 65 27 10 64 32 07  01 04 27 10 64 32 07 01  00e'.d2...'.d2..
0600: 19 27 10 64 32 07 01 1A  1A 2E 02 01 13 0A 02 00  .'.d2...........
0610: 00 17 80 80 F2 06 27 10  62 32 07 01 03 27 10 64  ......'.b2...'.d
0620: 32 07 01 03 45 1E 80 F0  FF FF 7F F0 FF FF 7F 32  2...E..........2
0630: 30 30 68 09 80 1C 2C 80  27 10 63 32 07 01 12 1C  00h...,.'.c2....
0640: 20 80 5D 09 80 20 80 79  00 64 32 07 01 66 32 07   .].. .y.d2..f2.
0650: 01 1C 2D 80 79 00 F0 FF  FF 7F 64 32 07 01 1C 2D  ..-.y.....d2...-
0660: 80 7B 64 32 07 01 2B 64  32 07 01 2E 80 23 27 10  .{d2..+d2....#'.
0670: 64 32 07 01 0E 2B 64 32  07 01 2F 80 23 2A 10 64  d2...+d2../.#*.d
0680: 32 07 01 27 10 64 32 07  01 10 52 1E 80 F0 FF FF  2..'.d2...R.....
0690: 7F F0 FF FF 7F 32 30 30  68 45 1E 80 F0 FF FF 7F  .....200hE......
06A0: F0 FF FF 7F 32 30 30 69  09 80 2B 64 32 07 01 30  ....200i..+d2..0
06B0: 80 1C 1B 80 27 10 63 32  07 01 04 23 27 10 64 32  ....'.c2...#'.d2
06C0: 07 01 0F 2B 64 32 07 01  31 80 23 2B 64 32 07 01  ...+d2..1.#+d2..
06D0: 32 80 23 2A 10 64 32 07  01 27 10 64 32 07 01 10  2.#*.d2..'.d2...
06E0: 52 1E 80 F0 FF FF 7F F0  FF FF 7F 32 30 30 69 01  R..........200i.
06F0: 13 0A 02 00 00 18 80 80  B3 08 45 1E 80 F0 FF FF  ..........E.....
0700: 7F F0 FF FF 7F 32 30 30  6A 09 80 1C 11 80 5D 33  .....200j.....]3
0710: 80 2C 80 27 10 63 32 07  01 13 79 00 F0 FF FF 7F  .,.'.c2...y.....
0720: 64 32 07 01 6E F0 FF FF  7F 34 80 99 F0 FF FF 7F  d2..n....4......
0730: 27 10 64 32 07 01 1B 1C  35 80 2A 10 64 32 07 01  '.d2....5.*.d2..
0740: 27 10 65 32 07 01 0F 79  00 F0 FF FF 7F 65 32 07  '.e2...y.....e2.
0750: 01 1C 1B 80 79 00 64 32  07 01 65 32 07 01 2A 10  ....y.d2..e2..*.
0760: 65 32 07 01 52 1E 80 F0  FF FF 7F F0 FF FF 7F 32  e2..R..........2
0770: 30 30 6A 45 1E 80 F0 FF  FF 7F F0 FF FF 7F 32 30  00jE..........20
0780: 30 6B 09 80 27 10 65 32  07 01 0A 43 00 43 01 02  0k..'.e2...C.C..
0790: 02 10 09 80 80 9F 07 03  02 10 36 80 01 CF 07 02  ..........6.....
07A0: 02 10 12 80 80 AF 07 03  02 10 37 80 01 CF 07 02  ..........7.....
07B0: 02 10 14 80 80 BF 07 03  02 10 38 80 01 CF 07 02  ..........8.....
07C0: 02 10 15 80 80 CF 07 03  02 10 39 80 01 CF 07 2B  ..........9....+
07D0: 65 32 07 01 3A 80 23 2B  65 32 07 01 3B 80 23 2B  e2..:.#+e2..;.#+
07E0: 65 32 07 01 3C 80 23 2A  10 65 32 07 01 27 10 65  e2..<.#*.e2..'.e
07F0: 32 07 01 0C 2B 65 32 07  01 3D 80 23 2A 10 65 32  2...+e2..=.#*.e2
0800: 07 01 1C 11 80 27 10 65  32 07 01 11 1C 2D 80 7B  .....'.e2....-.{
0810: 64 32 07 01 2A 10 65 32  07 01 27 10 65 32 07 01  d2..*.e2..'.e2..
0820: 0E 52 1E 80 F0 FF FF 7F  F0 FF FF 7F 32 30 30 6B  .R..........200k
0830: 45 1E 80 F0 FF FF 7F F0  FF FF 7F 32 30 30 6C 09  E..........200l.
0840: 80 5D 09 80 3E 80 2B 64  32 07 01 3F 80 23 1C 2C  .]..>.+d2..?.#.,
0850: 80 1C 2C 80 79 00 F0 FF  FF 7F 64 32 07 01 27 10  ..,.y.....d2..'.
0860: 63 32 07 01 12 1C 40 80  79 00 64 32 07 01 66 32  c2....@.y.d2..f2
0870: 07 01 1C 41 80 7B 64 32  07 01 1C 11 80 2B 64 32  ...A.{d2.....+d2
0880: 07 01 42 80 23 27 10 64  32 07 01 0F 2B 64 32 07  ..B.#'.d2...+d2.
0890: 01 43 80 23 2A 10 64 32  07 01 29 10 64 32 07 01  .C.#*.d2..).d2..
08A0: 10 52 1E 80 F0 FF FF 7F  F0 FF FF 7F 32 30 30 6C  .R..........200l
08B0: 01 13 0A 02 00 00 19 80  80 FB 08 45 1E 80 F0 FF  ...........E....
08C0: FF 7F F0 FF FF 7F 32 30  30 6E 09 80 1C 11 80 7B  ......200n.....{
08D0: 64 32 07 01 27 10 64 32  07 01 14 2B 64 32 07 01  d2..'.d2...+d2..
08E0: 44 80 23 2A 10 64 32 07  01 52 1E 80 F0 FF FF 7F  D.#*.d2..R......
08F0: F0 FF FF 7F 32 30 30 6E  01 13 0A 02 00 00 1A 80  ....200n........
0900: 80 BB 09 45 1E 80 F0 FF  FF 7F F0 FF FF 7F 32 30  ...E..........20
0910: 30 6F 09 80 1C 11 80 27  10 64 32 07 01 15 1C 2A  0o.....'.d2....*
0920: 80 C5 45 80 64 32 07 01  64 32 07 01 73 30 30 30  ..E.d2..d2..s000
0930: 09 80 2B 64 32 07 01 46  80 23 2A 10 66 32 07 01  ..+d2..F.#*.f2..
0940: 52 1E 80 F0 FF FF 7F F0  FF FF 7F 32 30 30 6F 45  R..........200oE
0950: 1E 80 F0 FF FF 7F F0 FF  FF 7F 32 30 30 70 09 80  ..........200p..
0960: 1C 10 80 29 10 64 32 07  01 16 5C 00 47 80 5C 01  ...).d2...\.G.\.
0970: 47 80 9A 2B 64 32 07 01  48 80 23 52 1E 80 F0 FF  G..+d2..H.#R....
0980: FF 7F F0 FF FF 7F 32 30  30 70 45 1E 80 F0 FF FF  ......200pE.....
0990: 7F F0 FF FF 7F 32 31 30  70 09 80 2B 64 32 07 01  .....210p..+d2..
09A0: 49 80 29 10 64 32 07 01  11 52 1E 80 F0 FF FF 7F  I.).d2...R......
09B0: F0 FF FF 7F 32 31 30 70  01 13 0A 02 00 00 13 80  ....210p........
09C0: 80 13 0A 1C 11 80 4B 64  32 07 01 27 80 59 01 64  ......Kd2..'.Y.d
09D0: 32 07 01 4A 80 6F 76 64  32 07 01 1C 11 80 7B 64  2..J.ovd2.....{d
09E0: 32 07 01 27 10 64 32 07  01 06 1C 4A 80 45 1E 80  2..'.d2....J.E..
09F0: F0 FF FF 7F F0 FF FF 7F  32 30 30 72 09 80 1C 4B  ........200r...K
0A00: 80 52 1E 80 F0 FF FF 7F  F0 FF FF 7F 32 30 30 72  .R..........200r
0A10: 01 13 0A 1B                                       ....            
```

#### Opcodes

```
  0: 0x0001 [0x42] SET_CLI_EVENT_CANCEL_DATA()
  1: 0x0002 [0x1A] CALL_SUBROUTINE(address=0x143A)
  2: 0x0005 [0x46] CAMERA_CONTROL: Disable user control
  3: 0x0007 [0x38] SET_CLIENT_EVENT_MODE(mode=19*)
  4: 0x000A [0x27] REQ_SET(priority=0x10, entity_id=LocalPlayer, tag_num=0x0E)
  5: 0x0011 [0x27] REQ_SET(priority=0x10, entity_id=Moogle (ID: 17248868/0x01073264), tag_num=0x02)
  6: 0x0018 [0x27] REQ_SET(priority=0x10, entity_id=??? (ID: 17248866/0x01073262), tag_num=0x01)
  7: 0x001F [0x27] REQ_SET(priority=0x10, entity_id=Unnamed NPC (ID: 17248867/0x01073263), tag_num=0x02)
  8: 0x0026 [0x27] REQ_SET(priority=0x10, entity_id=Shantotto (ID: 17248869/0x01073265), tag_num=0x01)
  9: 0x002D [0x27] REQ_SET(priority=0x10, entity_id=1 (ID: 17248870/0x01073266), tag_num=0x06)
 10: 0x0034 [0x27] REQ_SET(priority=0x10, entity_id=??? (ID: 17248866/0x01073262), tag_num=0x06)
 11: 0x003B [0x27] REQ_SET(priority=0x10, entity_id=Unnamed NPC (ID: 17248867/0x01073263), tag_num=0x05)
 12: 0x0042 [0x27] REQ_SET(priority=0x10, entity_id=1 (ID: 17248870/0x01073266), tag_num=0x03)
 13: 0x0049 [0x59] UPDATE_ENTITY_DATA: Unnamed NPC (ID: 17248867/0x01073263)->Render.Flags0 |= 0x200000
 14: 0x0050 [0x59] UPDATE_ENTITY_DATA: Shantotto (ID: 17248869/0x01073265)->Render.Flags0 |= 0x200000
 15: 0x0057 [0x59] UPDATE_ENTITY_DATA: 1 (ID: 17248870/0x01073266)->Render.Flags0 |= 0x200000
 16: 0x005E [0xBA] SET_ENTITY_POSITION(entity_id=LocalPlayer, pos_x=320.000*, pos_z=-32.000*, pos_y=-4.298*, direction=119.7°*)
 17: 0x006B [0xBA] SET_ENTITY_POSITION(entity_id=Moogle (ID: 17248868/0x01073264), pos_x=320.000*, pos_z=-42.000*, pos_y=-4.298*, direction=119.7°*)
 18: 0x0078 [0xBA] SET_ENTITY_POSITION(entity_id=??? (ID: 17248866/0x01073262), pos_x=-114.055*, pos_z=-520.200*, pos_y=-4.123*, direction=0.0°*)
 19: 0x0085 [0xBA] SET_ENTITY_POSITION(entity_id=Unnamed NPC (ID: 17248867/0x01073263), pos_x=-114.055*, pos_z=-520.200*, pos_y=-4.123*, direction=0.0°*)
 20: 0x0092 [0xBA] SET_ENTITY_POSITION(entity_id=Shantotto (ID: 17248869/0x01073265), pos_x=-110.180*, pos_z=-520.000*, pos_y=-5.500*, direction=0.0°*)
 21: 0x009F [0xBA] SET_ENTITY_POSITION(entity_id=1 (ID: 17248870/0x01073266), pos_x=-110.860*, pos_z=-518.000*, pos_y=-5.200*, direction=0.0°*)
 22: 0x00AC [0x80] LOAD_WAIT(entity=LocalPlayer)
 23: 0x00B1 [0x80] LOAD_WAIT(entity=Moogle (ID: 17248868/0x01073264))
 24: 0x00B6 [0x80] LOAD_WAIT(entity=??? (ID: 17248866/0x01073262))
 25: 0x00BB [0x80] LOAD_WAIT(entity=Unnamed NPC (ID: 17248867/0x01073263))
 26: 0x00C0 [0x80] LOAD_WAIT(entity=Shantotto (ID: 17248869/0x01073265))
 27: 0x00C5 [0x80] LOAD_WAIT(entity=1 (ID: 17248870/0x01073266))
 28: 0x00CA [0x1C] WAIT(15* ticks)
 29: 0x00CD [0x4A] Moogle (ID: 17248868/0x01073264) looks at LocalPlayer
 30: 0x00D6 [0x4A] Unnamed NPC (ID: 17248867/0x01073263) looks at LocalPlayer
 31: 0x00DF [0x4A] Shantotto (ID: 17248869/0x01073265) looks at LocalPlayer
 32: 0x00E8 [0x6F] WAIT_FRAME_DELAY: Yield until WaitTime reaches zero
 33: 0x00E9 [0x76] CHECK_ENTITY_RENDER_FLAGS: Wait until Moogle (ID: 17248868/0x01073264) Render.Flags0 and Render.Flags3 conditions are met
 34: 0x00EE [0x6F] WAIT_FRAME_DELAY: Yield until WaitTime reaches zero
 35: 0x00EF [0x76] CHECK_ENTITY_RENDER_FLAGS: Wait until Shantotto (ID: 17248869/0x01073265) Render.Flags0 and Render.Flags3 conditions are met
 36: 0x00F4 [0x1C] WAIT(15* ticks)
 37: 0x00F7 [0x7B] Shantotto (ID: 17248869/0x01073265) stops talking
 38: 0x00FC [0x7B] LocalPlayer stops talking
 39: 0x0101 [0x7B] Moogle (ID: 17248868/0x01073264) stops talking
 40: 0x0106 [0x27] REQ_SET(priority=0x10, entity_id=Shantotto (ID: 17248869/0x01073265), tag_num=0x07)
 41: 0x010D [0x27] REQ_SET(priority=0x10, entity_id=??? (ID: 17248866/0x01073262), tag_num=0x03)
 42: 0x0114 [0x27] REQ_SET(priority=0x10, entity_id=Unnamed NPC (ID: 17248867/0x01073263), tag_num=0x07)
 43: 0x011B [0x27] REQ_SET(priority=0x10, entity_id=Shantotto (ID: 17248869/0x01073265), tag_num=0x03)
 44: 0x0122 [0x27] REQ_SET(priority=0x10, entity_id=1 (ID: 17248870/0x01073266), tag_num=0x04)
 45: 0x0129 [0x1C] WAIT(30* ticks)
 46: 0x012C [0x03] ExtData[1]->WorkLocal[0] = 1*
 47: 0x0131 [0x02] IF !(ExtData[1]->WorkLocal[0] > 9*) GOTO 0x01E6
 48: 0x0139 [0x02] IF !(0* < ExtData[1]->WorkLocal[0]) GOTO 0x01DE
 49: 0x0141 [0x02] IF !(ExtData[1]->WorkLocal[0] == 2*) GOTO 0x0172
 50: 0x0149 [0x27] REQ_SET(priority=0x10, entity_id=LocalPlayer, tag_num=0x10)
 51: 0x0150 [0x1A] CALL_SUBROUTINE(address=0x1419)
 52: 0x0153 [0x4A] LocalPlayer looks at Moogle (ID: 17248868/0x01073264)
 53: 0x015C [0x6F] WAIT_FRAME_DELAY: Yield until WaitTime reaches zero
 54: 0x015D [0x76] CHECK_ENTITY_RENDER_FLAGS: Wait until LocalPlayer Render.Flags0 and Render.Flags3 conditions are met
 55: 0x0162 [0x4E] SET_ENTITY_HIDE_FLAG: Show Moogle (ID: 17248868/0x01073264)
 56: 0x0168 [0x27] REQ_SET(priority=0x10, entity_id=Moogle (ID: 17248868/0x01073264), tag_num=0x05)
 57: 0x016F [0x01] GOTO 0x01DE
 58: 0x0172 [0x02] IF !(ExtData[1]->WorkLocal[0] == 3*) GOTO 0x017D
 59: 0x017A [0x01] GOTO 0x01DE
 60: 0x017D [0x02] IF !(ExtData[1]->WorkLocal[0] == 4*) GOTO 0x0188
 61: 0x0185 [0x01] GOTO 0x01DE
 62: 0x0188 [0x02] IF !(ExtData[1]->WorkLocal[0] == 5*) GOTO 0x0193
 63: 0x0190 [0x01] GOTO 0x01DE
 64: 0x0193 [0x02] IF !(ExtData[1]->WorkLocal[0] == 6*) GOTO 0x019E
 65: 0x019B [0x01] GOTO 0x01DE
 66: 0x019E [0x02] IF !(ExtData[1]->WorkLocal[0] == 7*) GOTO 0x01A9
 67: 0x01A6 [0x01] GOTO 0x01DE
 68: 0x01A9 [0x02] IF !(ExtData[1]->WorkLocal[0] == 8*) GOTO 0x01B4
 69: 0x01B1 [0x01] GOTO 0x01DE
 70: 0x01B4 [0x02] IF !(ExtData[1]->WorkLocal[0] == 9*) GOTO 0x01BF
 71: 0x01BC [0x01] GOTO 0x01DE
 72: 0x01BF [0x02] IF !(ExtData[1]->WorkLocal[0] == 10*) GOTO 0x01DE
 73: 0x01C7 [0x4B] UPDATE_ENTITY_YAW(entity=Moogle (ID: 17248868/0x01073264), yaw=0.0°*)
 74: 0x01CE [0x6F] WAIT_FRAME_DELAY: Yield until WaitTime reaches zero
 75: 0x01CF [0x76] CHECK_ENTITY_RENDER_FLAGS: Wait until Moogle (ID: 17248868/0x01073264) Render.Flags0 and Render.Flags3 conditions are met
 76: 0x01D4 [0x27] REQ_SET(priority=0x10, entity_id=Moogle (ID: 17248868/0x01073264), tag_num=0x06)
 77: 0x01DB [0x01] GOTO 0x01DE

SUBROUTINE_01DE:
 78: 0x01DE [0x07] ExtData[1]->WorkLocal[0] += 1*
 79: 0x01E3 [0x01] GOTO 0x0131
 80: 0x01E6 [0x03] ExtData[1]->WorkLocal[0] = 1*

SUBROUTINE_01EB:
 81: 0x01EB [0x02] IF !(ExtData[1]->WorkLocal[0] > 9*) GOTO 0x0206
 82: 0x01F3 [0x02] IF !(0* > ExtData[1]->WorkLocal[0]) GOTO 0x01FE
 83: 0x01FB [0x1A] CALL_SUBROUTINE(address=0x03DF)
 84: 0x01FE [0x07] ExtData[1]->WorkLocal[0] += 1*
 85: 0x0203 [0x01] GOTO 0x01EB
 86: 0x0206 [0x1A] CALL_SUBROUTINE(address=0x143A)
 87: 0x0209 [0x1C] WAIT(30* ticks)
 88: 0x020C [0x46] CAMERA_CONTROL: Restore default settings
 89: 0x020E [0x45] LOAD_SCHEDULED_TASK: Load scheduler "fdi2" with entities [LocalPlayer, LocalPlayer], work=[200*, 0*]
 90: 0x021F [0x21] END_EVENT
 91: 0x0220 [0x00] END_REQSTACK()

SUBROUTINE_022E:
 92: 0x022E [0x02] IF !(LocalPlayer->Race == 1*) GOTO 0x025C
 93: 0x0236 [0x45] LOAD_SCHEDULED_TASK: Load scheduler "230g" with entities [LocalPlayer, LocalPlayer], work=[472*, 0*]
 94: 0x0247 [0x1A] CALL_SUBROUTINE(address=0x039F)
 95: 0x024A [0x52] END_LOAD_SCHEDULER: End scheduler "230g" with entities [LocalPlayer, LocalPlayer], work=472*
 96: 0x0259 [0x01] GOTO 0x039E
 97: 0x025C [0x02] IF !(LocalPlayer->Race == 2*) GOTO 0x028A
 98: 0x0264 [0x45] LOAD_SCHEDULED_TASK: Load scheduler "240g" with entities [LocalPlayer, LocalPlayer], work=[472*, 0*]
 99: 0x0275 [0x1A] CALL_SUBROUTINE(address=0x039F)
100: 0x0278 [0x52] END_LOAD_SCHEDULER: End scheduler "240g" with entities [LocalPlayer, LocalPlayer], work=472*
101: 0x0287 [0x01] GOTO 0x039E
102: 0x028A [0x02] IF !(LocalPlayer->Race == 3*) GOTO 0x02B8
103: 0x0292 [0x45] LOAD_SCHEDULED_TASK: Load scheduler "210g" with entities [LocalPlayer, LocalPlayer], work=[472*, 0*]
104: 0x02A3 [0x1A] CALL_SUBROUTINE(address=0x039F)
105: 0x02A6 [0x52] END_LOAD_SCHEDULER: End scheduler "210g" with entities [LocalPlayer, LocalPlayer], work=472*
106: 0x02B5 [0x01] GOTO 0x039E
107: 0x02B8 [0x02] IF !(LocalPlayer->Race == 4*) GOTO 0x02E6
108: 0x02C0 [0x45] LOAD_SCHEDULED_TASK: Load scheduler "220g" with entities [LocalPlayer, LocalPlayer], work=[472*, 0*]
109: 0x02D1 [0x1A] CALL_SUBROUTINE(address=0x039F)
110: 0x02D4 [0x52] END_LOAD_SCHEDULER: End scheduler "220g" with entities [LocalPlayer, LocalPlayer], work=472*
111: 0x02E3 [0x01] GOTO 0x039E
112: 0x02E6 [0x02] IF !(LocalPlayer->Race == 5*) GOTO 0x0314
113: 0x02EE [0x45] LOAD_SCHEDULED_TASK: Load scheduler "260g" with entities [LocalPlayer, LocalPlayer], work=[472*, 0*]
114: 0x02FF [0x1A] CALL_SUBROUTINE(address=0x039F)
115: 0x0302 [0x52] END_LOAD_SCHEDULER: End scheduler "260g" with entities [LocalPlayer, LocalPlayer], work=472*
116: 0x0311 [0x01] GOTO 0x039E
117: 0x0314 [0x02] IF !(LocalPlayer->Race == 6*) GOTO 0x0342
118: 0x031C [0x45] LOAD_SCHEDULED_TASK: Load scheduler "260g" with entities [LocalPlayer, LocalPlayer], work=[472*, 0*]
119: 0x032D [0x1A] CALL_SUBROUTINE(address=0x039F)
120: 0x0330 [0x52] END_LOAD_SCHEDULER: End scheduler "260g" with entities [LocalPlayer, LocalPlayer], work=472*
121: 0x033F [0x01] GOTO 0x039E
122: 0x0342 [0x02] IF !(LocalPlayer->Race == 7*) GOTO 0x0370
123: 0x034A [0x45] LOAD_SCHEDULED_TASK: Load scheduler "250g" with entities [LocalPlayer, LocalPlayer], work=[472*, 0*]
124: 0x035B [0x1A] CALL_SUBROUTINE(address=0x039F)
125: 0x035E [0x52] END_LOAD_SCHEDULER: End scheduler "250g" with entities [LocalPlayer, LocalPlayer], work=472*
126: 0x036D [0x01] GOTO 0x039E
127: 0x0370 [0x02] IF !(LocalPlayer->Race == 8*) GOTO 0x039E
128: 0x0378 [0x45] LOAD_SCHEDULED_TASK: Load scheduler "200g" with entities [LocalPlayer, LocalPlayer], work=[472*, 0*]
129: 0x0389 [0x1A] CALL_SUBROUTINE(address=0x039F)
130: 0x038C [0x52] END_LOAD_SCHEDULER: End scheduler "200g" with entities [LocalPlayer, LocalPlayer], work=472*
131: 0x039B [0x01] GOTO 0x039E

SUBROUTINE_039E:
132: 0x039E [0x1B] RETURN

SUBROUTINE_039F:
133: 0x039F [0x27] REQ_SET(priority=0x10, entity_id=??? (ID: 17248866/0x01073262), tag_num=0x02)
134: 0x03A6 [0x2B] Shantotto (ID: 17248869/0x01073265) [11346*]:
    → "All inductees must report to provisional headquarters at Qufim Island's frozen pond; there you shall receive orders."
135: 0x03AD [0x23] WAIT_FOR_DIALOG_INTERACTION
136: 0x03AE [0x2A] GET_REQ_LEVEL(level=16, entity_id=Shantotto (ID: 17248869/0x01073265))
137: 0x03B4 [0x29] REQ_SET_WAIT(priority=0x10, entity_id=Shantotto (ID: 17248869/0x01073265), tag_num=0x09)
138: 0x03BB [0x7B] Moogle (ID: 17248868/0x01073264) stops talking
139: 0x03C0 [0x1C] WAIT(15* ticks)
140: 0x03C3 [0x79] Moogle (ID: 17248868/0x01073264) looks at Shantotto (ID: 17248869/0x01073265) (Basic look)
141: 0x03CD [0x29] REQ_SET_WAIT(priority=0x10, entity_id=Shantotto (ID: 17248869/0x01073265), tag_num=0x11)
142: 0x03D4 [0x80] LOAD_WAIT(entity=Moogle (ID: 17248868/0x01073264))
143: 0x03D9 [0x7B] Moogle (ID: 17248868/0x01073264) stops talking
144: 0x03DE [0x1B] RETURN

SUBROUTINE_03DF:
145: 0x03DF [0x02] IF !(ExtData[1]->WorkLocal[0] == 1*) GOTO 0x043D
146: 0x03E7 [0x45] LOAD_SCHEDULED_TASK: Load scheduler "200a" with entities [LocalPlayer, LocalPlayer], work=[472*, 0*]
147: 0x03F8 [0x27] REQ_SET(priority=0x10, entity_id=LocalPlayer, tag_num=0x10)
148: 0x03FF [0x1A] CALL_SUBROUTINE(address=0x1419)
149: 0x0402 [0x1C] WAIT(120* ticks)
150: 0x0405 [0x2B] Moogle (ID: 17248868/0x01073264) [11340*]:
    → "Master! Waaait!"
151: 0x040C [0x2A] GET_REQ_LEVEL(level=16, entity_id=LocalPlayer)
152: 0x0412 [0x1C] WAIT(30* ticks)
153: 0x0415 [0x4A] LocalPlayer looks at Moogle (ID: 17248868/0x01073264)
154: 0x041E [0x6F] WAIT_FRAME_DELAY: Yield until WaitTime reaches zero
155: 0x041F [0x76] CHECK_ENTITY_RENDER_FLAGS: Wait until LocalPlayer Render.Flags0 and Render.Flags3 conditions are met
156: 0x0424 [0x27] REQ_SET(priority=0x10, entity_id=Moogle (ID: 17248868/0x01073264), tag_num=0x05)
157: 0x042B [0x55] WAIT_LOAD_SCHEDULER: Wait for scheduler "200a" with entities [LocalPlayer, LocalPlayer], work=472*
158: 0x043A [0x01] GOTO 0x0A13
159: 0x043D [0x02] IF !(ExtData[1]->WorkLocal[0] == 2*) GOTO 0x04CC
160: 0x0445 [0x45] LOAD_SCHEDULED_TASK: Load scheduler "200b" with entities [LocalPlayer, LocalPlayer], work=[472*, 0*]
161: 0x0456 [0x2A] GET_REQ_LEVEL(level=16, entity_id=Moogle (ID: 17248868/0x01073264))
162: 0x045C [0x27] REQ_SET(priority=0x10, entity_id=??? (ID: 17248866/0x01073262), tag_num=0x04)
163: 0x0463 [0x27] REQ_SET(priority=0x10, entity_id=Unnamed NPC (ID: 17248867/0x01073263), tag_num=0x03)
164: 0x046A [0x27] REQ_SET(priority=0x10, entity_id=Shantotto (ID: 17248869/0x01073265), tag_num=0x05)
165: 0x0471 [0x27] REQ_SET(priority=0x10, entity_id=1 (ID: 17248870/0x01073266), tag_num=0x01)
166: 0x0478 [0x2A] GET_REQ_LEVEL(level=16, entity_id=??? (ID: 17248866/0x01073262))
167: 0x047E [0x1C] WAIT(80* ticks)
168: 0x0481 [0x27] REQ_SET(priority=0x10, entity_id=Moogle (ID: 17248868/0x01073264), tag_num=0x0F)
169: 0x0488 [0x2B] Moogle (ID: 17248868/0x01073264) [11341*]:
    → "<Huff...puff...> M-Master. A rather unusual letter addressed to you was delivered to the Mog House not a moment ago, kupo."
170: 0x048F [0x23] WAIT_FOR_DIALOG_INTERACTION
171: 0x0490 [0x2A] GET_REQ_LEVEL(level=16, entity_id=Moogle (ID: 17248868/0x01073264))
172: 0x0496 [0x27] REQ_SET(priority=0x10, entity_id=??? (ID: 17248866/0x01073262), tag_num=0x02)
173: 0x049D [0x29] REQ_SET_WAIT(priority=0x10, entity_id=??? (ID: 17248866/0x01073262), tag_num=0x09)
174: 0x04A4 [0x27] REQ_SET(priority=0x10, entity_id=??? (ID: 17248866/0x01073262), tag_num=0x0A)
175: 0x04AB [0x29] REQ_SET_WAIT(priority=0x10, entity_id=Moogle (ID: 17248868/0x01073264), tag_num=0x18)
176: 0x04B2 [0x2B] Moogle (ID: 17248868/0x01073264) [11342*]:
    → "The word "urgent" was stamped on the envelope, so I rushed here as swiftly as my little purple wings could carry me."
177: 0x04B9 [0x23] WAIT_FOR_DIALOG_INTERACTION
178: 0x04BA [0x52] END_LOAD_SCHEDULER: End scheduler "200b" with entities [LocalPlayer, LocalPlayer], work=472*
179: 0x04C9 [0x01] GOTO 0x0A13
180: 0x04CC [0x02] IF !(ExtData[1]->WorkLocal[0] == 3*) GOTO 0x0507
181: 0x04D4 [0x45] LOAD_SCHEDULED_TASK: Load scheduler "200c" with entities [LocalPlayer, LocalPlayer], work=[472*, 0*]
182: 0x04E5 [0x2B] Moogle (ID: 17248868/0x01073264) [11343*]:
    → "If you'll allow me, I'll read out the contents to you this instant, kupo."
183: 0x04EC [0x23] WAIT_FOR_DIALOG_INTERACTION
184: 0x04ED [0x5D] SET_MUSIC_VOLUME(volume=0*, fade_time=120*)
185: 0x04F2 [0x1A] CALL_SUBROUTINE(address=0x143A)
186: 0x04F5 [0x52] END_LOAD_SCHEDULER: End scheduler "200c" with entities [LocalPlayer, LocalPlayer], work=472*
187: 0x0504 [0x01] GOTO 0x0A13
188: 0x0507 [0x02] IF !(ExtData[1]->WorkLocal[0] == 4*) GOTO 0x060E
189: 0x050F [0x2A] GET_REQ_LEVEL(level=16, entity_id=Unnamed NPC (ID: 17248867/0x01073263))
190: 0x0515 [0x2A] GET_REQ_LEVEL(level=16, entity_id=Shantotto (ID: 17248869/0x01073265))
191: 0x051B [0x27] REQ_SET(priority=0x10, entity_id=??? (ID: 17248866/0x01073262), tag_num=0x07)
192: 0x0522 [0x27] REQ_SET(priority=0x10, entity_id=??? (ID: 17248866/0x01073262), tag_num=0x03)
193: 0x0529 [0x27] REQ_SET(priority=0x10, entity_id=Unnamed NPC (ID: 17248867/0x01073263), tag_num=0x08)
194: 0x0530 [0x29] REQ_SET_WAIT(priority=0x10, entity_id=Moogle (ID: 17248868/0x01073264), tag_num=0x08)
195: 0x0537 [0x27] REQ_SET(priority=0x10, entity_id=Unnamed NPC (ID: 17248867/0x01073263), tag_num=0x06)
196: 0x053E [0xBA] SET_ENTITY_POSITION(entity_id=??? (ID: 17248866/0x01073262), pos_x=320.000*, pos_z=-28.400*, pos_y=-4.473*, direction=90.0°*)
197: 0x054B [0x80] LOAD_WAIT(entity=??? (ID: 17248866/0x01073262))
198: 0x0550 [0x1C] WAIT(15* ticks)
199: 0x0553 [0x4A] ??? (ID: 17248866/0x01073262) looks at LocalPlayer
200: 0x055C [0x1C] WAIT(30* ticks)
201: 0x055F [0x45] LOAD_SCHEDULED_TASK: Load scheduler "200d" with entities [LocalPlayer, LocalPlayer], work=[472*, 0*]
202: 0x0570 [0x1A] CALL_SUBROUTINE(address=0x1419)
203: 0x0573 [0x2B] Moogle (ID: 17248868/0x01073264) [11344*]:
    → "Ahem!"
204: 0x057A [0x23] WAIT_FOR_DIALOG_INTERACTION
205: 0x057B [0x1C] WAIT(30* ticks)
206: 0x057E [0x52] END_LOAD_SCHEDULER: End scheduler "200d" with entities [LocalPlayer, LocalPlayer], work=472*
207: 0x058D [0x27] REQ_SET(priority=0x10, entity_id=Unnamed NPC (ID: 17248867/0x01073263), tag_num=0x11)
208: 0x0594 [0x29] REQ_SET_WAIT(priority=0x10, entity_id=Moogle (ID: 17248868/0x01073264), tag_num=0x17)
209: 0x059B [0x27] REQ_SET(priority=0x10, entity_id=1 (ID: 17248870/0x01073266), tag_num=0x02)
210: 0x05A2 [0x45] LOAD_SCHEDULED_TASK: Load scheduler "200e" with entities [LocalPlayer, LocalPlayer], work=[472*, 0*]
211: 0x05B3 [0x79] LocalPlayer looks at Shantotto (ID: 17248869/0x01073265) (Basic look)
212: 0x05BD [0x27] REQ_SET(priority=0x10, entity_id=Shantotto (ID: 17248869/0x01073265), tag_num=0x0F)
213: 0x05C4 [0x7B] Shantotto (ID: 17248869/0x01073265) stops talking
214: 0x05C9 [0x1C] WAIT(420* ticks)
215: 0x05CC [0x5C] MUSIC_CONTROL: Set Idle (Day) music to song 170*
216: 0x05D0 [0x5C] MUSIC_CONTROL: Set Idle (Night) music to song 170*
217: 0x05D4 [0x9A] WAIT_MUSIC_SERVER()
218: 0x05D5 [0x27] REQ_SET(priority=0x10, entity_id=Shantotto (ID: 17248869/0x01073265), tag_num=0x08)
219: 0x05DC [0x2B] Shantotto (ID: 17248869/0x01073265) [11345*]:
    → "You are hereby appointed Special Unit Operative of the Shantotto Empire, immediately effective."
220: 0x05E3 [0x23] WAIT_FOR_DIALOG_INTERACTION
221: 0x05E4 [0x52] END_LOAD_SCHEDULER: End scheduler "200e" with entities [LocalPlayer, LocalPlayer], work=472*
222: 0x05F3 [0x27] REQ_SET(priority=0x10, entity_id=Moogle (ID: 17248868/0x01073264), tag_num=0x04)
223: 0x05FA [0x27] REQ_SET(priority=0x10, entity_id=Moogle (ID: 17248868/0x01073264), tag_num=0x19)
224: 0x0601 [0x27] REQ_SET(priority=0x10, entity_id=Moogle (ID: 17248868/0x01073264), tag_num=0x1A)
225: 0x0608 [0x1A] CALL_SUBROUTINE(address=0x022E)
226: 0x060B [0x01] GOTO 0x0A13
227: 0x060E [0x02] IF !(ExtData[1]->WorkLocal[0] == 5*) GOTO 0x06F2
228: 0x0616 [0x27] REQ_SET(priority=0x10, entity_id=??? (ID: 17248866/0x01073262), tag_num=0x03)
229: 0x061D [0x27] REQ_SET(priority=0x10, entity_id=Moogle (ID: 17248868/0x01073264), tag_num=0x03)
230: 0x0624 [0x45] LOAD_SCHEDULED_TASK: Load scheduler "200h" with entities [LocalPlayer, LocalPlayer], work=[472*, 0*]
231: 0x0635 [0x1C] WAIT(60* ticks)
232: 0x0638 [0x27] REQ_SET(priority=0x10, entity_id=Unnamed NPC (ID: 17248867/0x01073263), tag_num=0x12)
233: 0x063F [0x1C] WAIT(120* ticks)
234: 0x0642 [0x5D] SET_MUSIC_VOLUME(volume=0*, fade_time=120*)
235: 0x0647 [0x79] Moogle (ID: 17248868/0x01073264) looks at 1 (ID: 17248870/0x01073266) (Basic look)
236: 0x0651 [0x1C] WAIT(100* ticks)
237: 0x0654 [0x79] LocalPlayer looks at Moogle (ID: 17248868/0x01073264) (Basic look)
238: 0x065E [0x1C] WAIT(100* ticks)
239: 0x0661 [0x7B] Moogle (ID: 17248868/0x01073264) stops talking
240: 0x0666 [0x2B] Moogle (ID: 17248868/0x01073264) [11347*]:
    → "Special Unit Operative...?"
241: 0x066D [0x23] WAIT_FOR_DIALOG_INTERACTION
242: 0x066E [0x27] REQ_SET(priority=0x10, entity_id=Moogle (ID: 17248868/0x01073264), tag_num=0x0E)
243: 0x0675 [0x2B] Moogle (ID: 17248868/0x01073264) [11348*]:
    → "Master, you never mentioned anything to me about changing your nation of affiliation, kupo."
244: 0x067C [0x23] WAIT_FOR_DIALOG_INTERACTION
245: 0x067D [0x2A] GET_REQ_LEVEL(level=16, entity_id=Moogle (ID: 17248868/0x01073264))
246: 0x0683 [0x27] REQ_SET(priority=0x10, entity_id=Moogle (ID: 17248868/0x01073264), tag_num=0x10)
247: 0x068A [0x52] END_LOAD_SCHEDULER: End scheduler "200h" with entities [LocalPlayer, LocalPlayer], work=472*
248: 0x0699 [0x45] LOAD_SCHEDULED_TASK: Load scheduler "200i" with entities [LocalPlayer, LocalPlayer], work=[472*, 0*]
249: 0x06AA [0x2B] Moogle (ID: 17248868/0x01073264) [11349*]:
    → "But this so-called Shantotto Empire is news to me."
250: 0x06B1 [0x1C] WAIT(10* ticks)
251: 0x06B4 [0x27] REQ_SET(priority=0x10, entity_id=Unnamed NPC (ID: 17248867/0x01073263), tag_num=0x04)
252: 0x06BB [0x23] WAIT_FOR_DIALOG_INTERACTION
253: 0x06BC [0x27] REQ_SET(priority=0x10, entity_id=Moogle (ID: 17248868/0x01073264), tag_num=0x0F)
254: 0x06C3 [0x2B] Moogle (ID: 17248868/0x01073264) [11350*]:
    → "Could that oddball Doctor Shantotto be scheming something unsavory again, kupo?"
255: 0x06CA [0x23] WAIT_FOR_DIALOG_INTERACTION
256: 0x06CB [0x2B] Moogle (ID: 17248868/0x01073264) [11351*]:
    → "A foreboding feeling is flitting furiously about in the pit of my stomach..."
257: 0x06D2 [0x23] WAIT_FOR_DIALOG_INTERACTION
258: 0x06D3 [0x2A] GET_REQ_LEVEL(level=16, entity_id=Moogle (ID: 17248868/0x01073264))
259: 0x06D9 [0x27] REQ_SET(priority=0x10, entity_id=Moogle (ID: 17248868/0x01073264), tag_num=0x10)
260: 0x06E0 [0x52] END_LOAD_SCHEDULER: End scheduler "200i" with entities [LocalPlayer, LocalPlayer], work=472*
261: 0x06EF [0x01] GOTO 0x0A13
262: 0x06F2 [0x02] IF !(ExtData[1]->WorkLocal[0] == 6*) GOTO 0x08B3
263: 0x06FA [0x45] LOAD_SCHEDULED_TASK: Load scheduler "200j" with entities [LocalPlayer, LocalPlayer], work=[472*, 0*]
264: 0x070B [0x1C] WAIT(30* ticks)
265: 0x070E [0x5D] SET_MUSIC_VOLUME(volume=127*, fade_time=60*)
266: 0x0713 [0x27] REQ_SET(priority=0x10, entity_id=Unnamed NPC (ID: 17248867/0x01073263), tag_num=0x13)
267: 0x071A [0x79] LocalPlayer looks at Moogle (ID: 17248868/0x01073264) (Basic look)
268: 0x0724 [0x6E] LocalPlayer uses emote 21*
269: 0x072B [0x99] Wait for LocalPlayer animation to complete
270: 0x0730 [0x27] REQ_SET(priority=0x10, entity_id=Moogle (ID: 17248868/0x01073264), tag_num=0x1B)
271: 0x0737 [0x1C] WAIT(45* ticks)
272: 0x073A [0x2A] GET_REQ_LEVEL(level=16, entity_id=Moogle (ID: 17248868/0x01073264))
273: 0x0740 [0x27] REQ_SET(priority=0x10, entity_id=Shantotto (ID: 17248869/0x01073265), tag_num=0x0F)
274: 0x0747 [0x79] LocalPlayer looks at Shantotto (ID: 17248869/0x01073265) (Basic look)
275: 0x0751 [0x1C] WAIT(10* ticks)
276: 0x0754 [0x79] Moogle (ID: 17248868/0x01073264) looks at Shantotto (ID: 17248869/0x01073265) (Basic look)
277: 0x075E [0x2A] GET_REQ_LEVEL(level=16, entity_id=Shantotto (ID: 17248869/0x01073265))
278: 0x0764 [0x52] END_LOAD_SCHEDULER: End scheduler "200j" with entities [LocalPlayer, LocalPlayer], work=472*
279: 0x0773 [0x45] LOAD_SCHEDULED_TASK: Load scheduler "200k" with entities [LocalPlayer, LocalPlayer], work=[472*, 0*]
280: 0x0784 [0x27] REQ_SET(priority=0x10, entity_id=Shantotto (ID: 17248869/0x01073265), tag_num=0x0A)
281: 0x078B [0x43] SEND_EVENT_UPDATE: Send pending tag to server (packet 0x005B)
282: 0x078D [0x43] SEND_EVENT_UPDATE: Check pending flag (skip if not pending)
283: 0x078F [0x02] IF !(Work_Zone[2] == 0*) GOTO 0x079F
284: 0x0797 [0x03] Work_Zone[2] = 2779*
285: 0x079C [0x01] GOTO 0x07CF
286: 0x079F [0x02] IF !(Work_Zone[2] == 1*) GOTO 0x07AF
287: 0x07A7 [0x03] Work_Zone[2] = 2780*
288: 0x07AC [0x01] GOTO 0x07CF
289: 0x07AF [0x02] IF !(Work_Zone[2] == 2*) GOTO 0x07BF
290: 0x07B7 [0x03] Work_Zone[2] = 2781*
291: 0x07BC [0x01] GOTO 0x07CF
292: 0x07BF [0x02] IF !(Work_Zone[2] == 3*) GOTO 0x07CF
293: 0x07C7 [0x03] Work_Zone[2] = 2782*
294: 0x07CC [0x01] GOTO 0x07CF

SUBROUTINE_07CF:
295: 0x07CF [0x2B] Shantotto (ID: 17248869/0x01073265) [11353*]:
    → "See that you have $0 in your possession before showing up at the aforementioned destination."
296: 0x07D6 [0x23] WAIT_FOR_DIALOG_INTERACTION
297: 0x07D7 [0x2B] Shantotto (ID: 17248869/0x01073265) [11354*]:
    → "To learn more about this object of which I speak, an Orastery employee, a tanner, and an alchemist you should seek."
298: 0x07DE [0x23] WAIT_FOR_DIALOG_INTERACTION
299: 0x07DF [0x2B] Shantotto (ID: 17248869/0x01073265) [11355*]:
    → "Should an accursed, gruesome end be that which you desire,"
300: 0x07E6 [0x23] WAIT_FOR_DIALOG_INTERACTION
301: 0x07E7 [0x2A] GET_REQ_LEVEL(level=16, entity_id=Shantotto (ID: 17248869/0x01073265))
302: 0x07ED [0x27] REQ_SET(priority=0x10, entity_id=Shantotto (ID: 17248869/0x01073265), tag_num=0x0C)
303: 0x07F4 [0x2B] Shantotto (ID: 17248869/0x01073265) [11356*]:
    → "Show up not with extreme haste; we dare you to incur our ire. O`hohohohoho!"
304: 0x07FB [0x23] WAIT_FOR_DIALOG_INTERACTION
305: 0x07FC [0x2A] GET_REQ_LEVEL(level=16, entity_id=Shantotto (ID: 17248869/0x01073265))
306: 0x0802 [0x1C] WAIT(30* ticks)
307: 0x0805 [0x27] REQ_SET(priority=0x10, entity_id=Shantotto (ID: 17248869/0x01073265), tag_num=0x11)
308: 0x080C [0x1C] WAIT(100* ticks)
309: 0x080F [0x7B] Moogle (ID: 17248868/0x01073264) stops talking
310: 0x0814 [0x2A] GET_REQ_LEVEL(level=16, entity_id=Shantotto (ID: 17248869/0x01073265))
311: 0x081A [0x27] REQ_SET(priority=0x10, entity_id=Shantotto (ID: 17248869/0x01073265), tag_num=0x0E)
312: 0x0821 [0x52] END_LOAD_SCHEDULER: End scheduler "200k" with entities [LocalPlayer, LocalPlayer], work=472*
313: 0x0830 [0x45] LOAD_SCHEDULED_TASK: Load scheduler "200l" with entities [LocalPlayer, LocalPlayer], work=[472*, 0*]
314: 0x0841 [0x5D] SET_MUSIC_VOLUME(volume=0*, fade_time=300*)
315: 0x0846 [0x2B] Moogle (ID: 17248868/0x01073264) [11357*]:
    → "......"
316: 0x084D [0x23] WAIT_FOR_DIALOG_INTERACTION
317: 0x084E [0x1C] WAIT(60* ticks)
318: 0x0851 [0x1C] WAIT(60* ticks)
319: 0x0854 [0x79] LocalPlayer looks at Moogle (ID: 17248868/0x01073264) (Basic look)
320: 0x085E [0x27] REQ_SET(priority=0x10, entity_id=Unnamed NPC (ID: 17248867/0x01073263), tag_num=0x12)
321: 0x0865 [0x1C] WAIT(130* ticks)
322: 0x0868 [0x79] Moogle (ID: 17248868/0x01073264) looks at 1 (ID: 17248870/0x01073266) (Basic look)
323: 0x0872 [0x1C] WAIT(180* ticks)
324: 0x0875 [0x7B] Moogle (ID: 17248868/0x01073264) stops talking
325: 0x087A [0x1C] WAIT(30* ticks)
326: 0x087D [0x2B] Moogle (ID: 17248868/0x01073264) [11358*]:
    → "Master. For your own safety, I advise you to drop everything else and make for Qufim Island without delay."
327: 0x0884 [0x23] WAIT_FOR_DIALOG_INTERACTION
328: 0x0885 [0x27] REQ_SET(priority=0x10, entity_id=Moogle (ID: 17248868/0x01073264), tag_num=0x0F)
329: 0x088C [0x2B] Moogle (ID: 17248868/0x01073264) [11359*]:
    → "The content of the letter is dubious beyond doubt, kupo."
330: 0x0893 [0x23] WAIT_FOR_DIALOG_INTERACTION
331: 0x0894 [0x2A] GET_REQ_LEVEL(level=16, entity_id=Moogle (ID: 17248868/0x01073264))
332: 0x089A [0x29] REQ_SET_WAIT(priority=0x10, entity_id=Moogle (ID: 17248868/0x01073264), tag_num=0x10)
333: 0x08A1 [0x52] END_LOAD_SCHEDULER: End scheduler "200l" with entities [LocalPlayer, LocalPlayer], work=472*
334: 0x08B0 [0x01] GOTO 0x0A13
335: 0x08B3 [0x02] IF !(ExtData[1]->WorkLocal[0] == 7*) GOTO 0x08FB
336: 0x08BB [0x45] LOAD_SCHEDULED_TASK: Load scheduler "200n" with entities [LocalPlayer, LocalPlayer], work=[472*, 0*]
337: 0x08CC [0x1C] WAIT(30* ticks)
338: 0x08CF [0x7B] Moogle (ID: 17248868/0x01073264) stops talking
339: 0x08D4 [0x27] REQ_SET(priority=0x10, entity_id=Moogle (ID: 17248868/0x01073264), tag_num=0x14)
340: 0x08DB [0x2B] Moogle (ID: 17248868/0x01073264) [11360*]:
    → "But the last thing you want is an enraged Doctor Shantotto unleashing a barrage of ancient magic spells at you."
341: 0x08E2 [0x23] WAIT_FOR_DIALOG_INTERACTION
342: 0x08E3 [0x2A] GET_REQ_LEVEL(level=16, entity_id=Moogle (ID: 17248868/0x01073264))
343: 0x08E9 [0x52] END_LOAD_SCHEDULER: End scheduler "200n" with entities [LocalPlayer, LocalPlayer], work=472*
344: 0x08F8 [0x01] GOTO 0x0A13
345: 0x08FB [0x02] IF !(ExtData[1]->WorkLocal[0] == 8*) GOTO 0x09BB
346: 0x0903 [0x45] LOAD_SCHEDULED_TASK: Load scheduler "200o" with entities [LocalPlayer, LocalPlayer], work=[472*, 0*]
347: 0x0914 [0x1C] WAIT(30* ticks)
348: 0x0917 [0x27] REQ_SET(priority=0x10, entity_id=Moogle (ID: 17248868/0x01073264), tag_num=0x15)
349: 0x091E [0x1C] WAIT(170* ticks)
350: 0x0921 [0xC5] LOAD_SCHEDULED_TASK_ALT3: Load scheduler 0x80093030 for entities [Moogle (ID: 17248868/0x01073264), Moogle (ID: 17248868/0x01073264)], work=202*, param=12403
351: 0x0932 [0x2B] Moogle (ID: 17248868/0x01073264) [11361*]:
    → "O Merciful Altana! Please protect us Goddess-fearing children from the hands of darkness, kupo!"
352: 0x0939 [0x23] WAIT_FOR_DIALOG_INTERACTION
353: 0x093A [0x2A] GET_REQ_LEVEL(level=16, entity_id=1 (ID: 17248870/0x01073266))
354: 0x0940 [0x52] END_LOAD_SCHEDULER: End scheduler "200o" with entities [LocalPlayer, LocalPlayer], work=472*
355: 0x094F [0x45] LOAD_SCHEDULED_TASK: Load scheduler "200p" with entities [LocalPlayer, LocalPlayer], work=[472*, 0*]
356: 0x0960 [0x1C] WAIT(15* ticks)
357: 0x0963 [0x29] REQ_SET_WAIT(priority=0x10, entity_id=Moogle (ID: 17248868/0x01073264), tag_num=0x16)
358: 0x096A [0x5C] MUSIC_CONTROL: Set Idle (Day) music to song 113*
359: 0x096E [0x5C] MUSIC_CONTROL: Set Idle (Night) music to song 113*
360: 0x0972 [0x9A] WAIT_MUSIC_SERVER()
361: 0x0973 [0x2B] Moogle (ID: 17248868/0x01073264) [11362*]:
    → "I'll be excusing myself now, but Master..."
362: 0x097A [0x23] WAIT_FOR_DIALOG_INTERACTION
363: 0x097B [0x52] END_LOAD_SCHEDULER: End scheduler "200p" with entities [LocalPlayer, LocalPlayer], work=472*
364: 0x098A [0x45] LOAD_SCHEDULED_TASK: Load scheduler "210p" with entities [LocalPlayer, LocalPlayer], work=[472*, 0*]
365: 0x099B [0x2B] Moogle (ID: 17248868/0x01073264) [11363*]:
    → "Be sure to practice a plenitude of precautions, kupo! Go well!"
366: 0x09A2 [0x29] REQ_SET_WAIT(priority=0x10, entity_id=Moogle (ID: 17248868/0x01073264), tag_num=0x11)
367: 0x09A9 [0x52] END_LOAD_SCHEDULER: End scheduler "210p" with entities [LocalPlayer, LocalPlayer], work=472*
368: 0x09B8 [0x01] GOTO 0x0A13
369: 0x09BB [0x02] IF !(ExtData[1]->WorkLocal[0] == 9*) GOTO 0x0A13
370: 0x09C3 [0x1C] WAIT(30* ticks)
371: 0x09C6 [0x4B] UPDATE_ENTITY_YAW(entity=Moogle (ID: 17248868/0x01073264), yaw=5.6°*)
372: 0x09CD [0x59] UPDATE_ENTITY_DATA: Set Moogle (ID: 17248868/0x01073264) turn speed = 50*
373: 0x09D5 [0x6F] WAIT_FRAME_DELAY: Yield until WaitTime reaches zero
374: 0x09D6 [0x76] CHECK_ENTITY_RENDER_FLAGS: Wait until Moogle (ID: 17248868/0x01073264) Render.Flags0 and Render.Flags3 conditions are met
375: 0x09DB [0x1C] WAIT(30* ticks)
376: 0x09DE [0x7B] Moogle (ID: 17248868/0x01073264) stops talking
377: 0x09E3 [0x27] REQ_SET(priority=0x10, entity_id=Moogle (ID: 17248868/0x01073264), tag_num=0x06)
378: 0x09EA [0x1C] WAIT(50* ticks)
379: 0x09ED [0x45] LOAD_SCHEDULED_TASK: Load scheduler "200r" with entities [LocalPlayer, LocalPlayer], work=[472*, 0*]
380: 0x09FE [0x1C] WAIT(210* ticks)
381: 0x0A01 [0x52] END_LOAD_SCHEDULER: End scheduler "200r" with entities [LocalPlayer, LocalPlayer], work=472*
382: 0x0A10 [0x01] GOTO 0x0A13

SUBROUTINE_0A13:
383: 0x0A13 [0x1B] RETURN
```

#### Data or dead code:

```
# Dead code (unreachable instructions):
     0x0221 [0x02] IF !(0* == 1*) GOTO 0x022D
     0x0229 [0x48] [System] [11340*]:
    → "Master! Waaait!"
     0x022C [0x23] WAIT_FOR_DIALOG_INTERACTION
     0x022D [0x1B] RETURN
```

### Event 63

#### Metadata

| Field        | Value      |
|--------------|------------|
| Entrypoint   | 0x0A14     |
| Data Size    | 2796 bytes |
| Instructions | 370        |

```
      00 01 02 03 04 05 06 07  08 09 0A 0B 0C 0D 0E 0F
      -- -- -- -- -- -- -- --  -- -- -- -- -- -- -- --
0A10:             42 1A 3A 14  46 01 38 00 80 27 10 F0      B.:.F.8..'..
0A20: FF FF 7F 0E 27 10 64 32  07 01 02 27 10 62 32 07  ....'.d2...'.b2.
0A30: 01 01 27 10 63 32 07 01  02 27 10 65 32 07 01 01  ..'.c2...'.e2...
0A40: 27 10 66 32 07 01 06 27  10 67 32 07 01 01 27 10  '.f2...'.g2...'.
0A50: 62 32 07 01 06 27 10 63  32 07 01 05 27 10 67 32  b2...'.c2...'.g2
0A60: 07 01 03 59 05 63 32 07  01 01 59 05 65 32 07 01  ...Y.c2...Y.e2..
0A70: 01 59 05 66 32 07 01 01  59 05 67 32 07 01 01 BA  .Y.f2...Y.g2....
0A80: F0 FF FF 7F 4C 80 4D 80  4E 80 4F 80 BA 64 32 07  ....L.M.N.O..d2.
0A90: 01 50 80 4D 80 51 80 09  80 BA 62 32 07 01 06 80  .P.M.Q....b2....
0AA0: 07 80 08 80 09 80 BA 63  32 07 01 06 80 07 80 08  .......c2.......
0AB0: 80 09 80 BA 65 32 07 01  0A 80 0B 80 0C 80 09 80  ....e2..........
0AC0: BA 66 32 07 01 0D 80 0E  80 0F 80 09 80 BA 67 32  .f2...........g2
0AD0: 07 01 0D 80 0E 80 0F 80  09 80 80 F0 FF FF 7F 80  ................
0AE0: 64 32 07 01 80 62 32 07  01 80 63 32 07 01 80 65  d2...b2...c2...e
0AF0: 32 07 01 80 66 32 07 01  80 67 32 07 01 1C 10 80  2...f2...g2.....
0B00: 4A 64 32 07 01 F0 FF FF  7F 4A 63 32 07 01 F0 FF  Jd2......Jc2....
0B10: FF 7F 4A 65 32 07 01 F0  FF FF 7F 6F 76 64 32 07  ..Je2......ovd2.
0B20: 01 6F 76 65 32 07 01 1C  10 80 7B 65 32 07 01 7B  .ove2.....{e2..{
0B30: F0 FF FF 7F 7B 64 32 07  01 27 10 65 32 07 01 07  ....{d2..'.e2...
0B40: 27 10 67 32 07 01 09 27  10 62 32 07 01 03 27 10  '.g2...'.b2...'.
0B50: 63 32 07 01 07 27 10 65  32 07 01 03 27 10 67 32  c2...'.e2...'.g2
0B60: 07 01 04 27 10 65 32 07  01 08 1C 11 80 03 01 00  ...'.e2.........
0B70: 12 80 02 01 00 13 80 05  98 0B 02 09 80 01 00 04  ................
0B80: 90 0B 02 01 00 14 80 80  90 0B 1A 19 14 01 90 0B  ................
0B90: 07 01 00 12 80 01 72 0B  03 01 00 12 80 02 01 00  ......r.........
0BA0: 13 80 05 B8 0B 02 09 80  01 00 05 B0 0B 1A 93 0D  ................
0BB0: 07 01 00 12 80 01 9D 0B  1A 3A 14 1C 11 80 46 00  .........:....F.
0BC0: 45 1C 80 F0 FF FF 7F F0  FF FF 7F 66 64 69 32 09  E..........fdi2.
0BD0: 80 21 00 02 09 80 12 80  00 DF 0B 48 1D 80 23 1B  .!.........H..#.
0BE0: 02 87 7F 12 80 80 0E 0C  45 1E 80 F0 FF FF 7F F0  ........E.......
0BF0: FF FF 7F 32 33 31 37 09  80 1A 51 0D 52 1E 80 F0  ...2317...Q.R...
0C00: FF FF 7F F0 FF FF 7F 32  33 31 37 01 50 0D 02 87  .......2317.P...
0C10: 7F 14 80 80 3C 0C 45 1E  80 F0 FF FF 7F F0 FF FF  ....<.E.........
0C20: 7F 32 34 31 37 09 80 1A  51 0D 52 1E 80 F0 FF FF  .2417...Q.R.....
0C30: 7F F0 FF FF 7F 32 34 31  37 01 50 0D 02 87 7F 15  .....2417.P.....
0C40: 80 80 6A 0C 45 1E 80 F0  FF FF 7F F0 FF FF 7F 32  ..j.E..........2
0C50: 31 31 37 09 80 1A 51 0D  52 1E 80 F0 FF FF 7F F0  117...Q.R.......
0C60: FF FF 7F 32 31 31 37 01  50 0D 02 87 7F 16 80 80  ...2117.P.......
0C70: 98 0C 45 1E 80 F0 FF FF  7F F0 FF FF 7F 32 32 31  ..E..........221
0C80: 37 09 80 1A 51 0D 52 1E  80 F0 FF FF 7F F0 FF FF  7...Q.R.........
0C90: 7F 32 32 31 37 01 50 0D  02 87 7F 17 80 80 C6 0C  .2217.P.........
0CA0: 45 1E 80 F0 FF FF 7F F0  FF FF 7F 32 36 31 37 09  E..........2617.
0CB0: 80 1A 51 0D 52 1E 80 F0  FF FF 7F F0 FF FF 7F 32  ..Q.R..........2
0CC0: 36 31 37 01 50 0D 02 87  7F 18 80 80 F4 0C 45 1E  617.P.........E.
0CD0: 80 F0 FF FF 7F F0 FF FF  7F 32 36 31 37 09 80 1A  .........2617...
0CE0: 51 0D 52 1E 80 F0 FF FF  7F F0 FF FF 7F 32 36 31  Q.R..........261
0CF0: 37 01 50 0D 02 87 7F 19  80 80 22 0D 45 1E 80 F0  7.P.......".E...
0D00: FF FF 7F F0 FF FF 7F 32  35 31 37 09 80 1A 51 0D  .......2517...Q.
0D10: 52 1E 80 F0 FF FF 7F F0  FF FF 7F 32 35 31 37 01  R..........2517.
0D20: 50 0D 02 87 7F 1A 80 80  50 0D 45 1E 80 F0 FF FF  P.......P.E.....
0D30: 7F F0 FF FF 7F 32 30 31  37 09 80 1A 51 0D 52 1E  .....2017...Q.R.
0D40: 80 F0 FF FF 7F F0 FF FF  7F 32 30 31 37 01 50 0D  .........2017.P.
0D50: 1B 27 10 62 32 07 01 02  2B 65 32 07 01 1F 80 23  .'.b2...+e2....#
0D60: 2A 10 65 32 07 01 27 10  64 32 07 01 1F 29 10 65  *.e2..'.d2...).e
0D70: 32 07 01 09 7B 64 32 07  01 1C 10 80 79 00 64 32  2...{d2.....y.d2
0D80: 07 01 65 32 07 01 29 10  65 32 07 01 11 80 64 32  ..e2..).e2....d2
0D90: 07 01 1B 02 01 00 12 80  80 F1 0D 45 1E 80 F0 FF  ...........E....
0DA0: FF 7F F0 FF FF 7F 32 30  31 31 09 80 27 10 F0 FF  ......2011..'...
0DB0: FF 7F 12 1A 19 14 1C 20  80 2B 64 32 07 01 1D 80  ....... .+d2....
0DC0: 2A 10 F0 FF FF 7F 1C 11  80 4A F0 FF FF 7F 64 32  *........J....d2
0DD0: 07 01 6F 76 F0 FF FF 7F  27 10 64 32 07 01 1D 55  ..ov....'.d2...U
0DE0: 1E 80 F0 FF FF 7F F0 FF  FF 7F 32 30 31 31 01 D6  ..........2011..
0DF0: 13 02 01 00 14 80 80 80  0E 45 1E 80 F0 FF FF 7F  .........E......
0E00: F0 FF FF 7F 32 30 31 32  09 80 2A 10 64 32 07 01  ....2012..*.d2..
0E10: 27 10 62 32 07 01 04 27  10 63 32 07 01 03 27 10  '.b2...'.c2...'.
0E20: 65 32 07 01 15 27 10 67  32 07 01 02 2A 10 62 32  e2...'.g2...*.b2
0E30: 07 01 1C 2C 80 27 10 64  32 07 01 0F 2B 64 32 07  ...,.'.d2...+d2.
0E40: 01 22 80 23 2A 10 64 32  07 01 27 10 62 32 07 01  .".#*.d2..'.b2..
0E50: 02 29 10 62 32 07 01 09  27 10 62 32 07 01 0A 29  .).b2...'.b2...)
0E60: 10 64 32 07 01 18 2B 64  32 07 01 23 80 23 52 1E  .d2...+d2..#.#R.
0E70: 80 F0 FF FF 7F F0 FF FF  7F 32 30 31 32 01 D6 13  .........2012...
0E80: 02 01 00 15 80 80 BB 0E  45 1E 80 F0 FF FF 7F F0  ........E.......
0E90: FF FF 7F 32 30 31 33 09  80 2B 64 32 07 01 24 80  ...2013..+d2..$.
0EA0: 23 5D 09 80 20 80 1A 3A  14 52 1E 80 F0 FF FF 7F  #].. ..:.R......
0EB0: F0 FF FF 7F 32 30 31 33  01 D6 13 02 01 00 16 80  ....2013........
0EC0: 80 EA 0F 2A 10 63 32 07  01 2A 10 65 32 07 01 27  ...*.c2..*.e2..'
0ED0: 10 62 32 07 01 07 27 10  62 32 07 01 03 27 10 63  .b2...'.b2...'.c
0EE0: 32 07 01 08 29 10 64 32  07 01 08 27 10 63 32 07  2...).d2...'.c2.
0EF0: 01 06 BA 62 32 07 01 01  80 25 80 26 80 27 80 80  ...b2....%.&.'..
0F00: 62 32 07 01 1C 10 80 4A  62 32 07 01 F0 FF FF 7F  b2.....Jb2......
0F10: 1C 11 80 45 1E 80 F0 FF  FF 7F F0 FF FF 7F 32 30  ...E..........20
0F20: 31 34 09 80 1A 19 14 2B  64 32 07 01 28 80 23 1C  14.....+d2..(.#.
0F30: 11 80 52 1E 80 F0 FF FF  7F F0 FF FF 7F 32 30 31  ..R..........201
0F40: 34 45 1E 80 F0 FF FF 7F  F0 FF FF 7F 32 30 31 35  4E..........2015
0F50: 09 80 27 10 63 32 07 01  11 29 10 64 32 07 01 17  ..'.c2...).d2...
0F60: 1C 52 80 27 10 67 32 07  01 06 55 1E 80 F0 FF FF  .R.'.g2...U.....
0F70: 7F F0 FF FF 7F 32 30 31  35 45 1E 80 F0 FF FF 7F  .....2015E......
0F80: F0 FF FF 7F 32 30 31 36  09 80 27 10 64 32 07 01  ....2016..'.d2..
0F90: 04 27 10 64 32 07 01 19  7B 67 32 07 01 1C 53 80  .'.d2...{g2...S.
0FA0: 79 00 F0 FF FF 7F 65 32  07 01 5C 00 2A 80 5C 01  y.....e2..\.*.\.
0FB0: 2A 80 9A 27 10 67 32 07  01 0A B0 00 65 32 07 01  *..'.g2.....e2..
0FC0: 67 32 07 01 2B 80 23 52  1E 80 F0 FF FF 7F F0 FF  g2..+.#R........
0FD0: FF 7F 32 30 31 36 27 10  67 32 07 01 04 27 10 65  ..2016'.g2...'.e
0FE0: 32 07 01 10 1A E0 0B 01  D6 13 02 01 00 17 80 80  2...............
0FF0: D3 10 27 10 62 32 07 01  03 27 10 64 32 07 01 03  ..'.b2...'.d2...
1000: 45 1E 80 F0 FF FF 7F F0  FF FF 7F 32 30 31 38 09  E..........2018.
1010: 80 1C 2C 80 79 00 F0 FF  FF 7F 64 32 07 01 27 10  ..,.y.....d2..'.
1020: 63 32 07 01 12 1C 11 80  7B 64 32 07 01 1C 54 80  c2......{d2...T.
1030: 79 02 64 32 07 01 55 80  09 80 5D 09 80 20 80 1C  y.d2..U...].. ..
1040: 1C 80 7B 64 32 07 01 2B  64 32 07 01 2E 80 23 27  ..{d2..+d2....#'
1050: 10 64 32 07 01 0E 2B 64  32 07 01 2F 80 23 2A 10  .d2...+d2../.#*.
1060: 64 32 07 01 27 10 64 32  07 01 10 52 1E 80 F0 FF  d2..'.d2...R....
1070: FF 7F F0 FF FF 7F 32 30  31 38 45 1E 80 F0 FF FF  ......2018E.....
1080: 7F F0 FF FF 7F 32 30 31  39 09 80 2B 64 32 07 01  .....2019..+d2..
1090: 30 80 1C 1B 80 27 10 63  32 07 01 16 23 27 10 64  0....'.c2...#'.d
10A0: 32 07 01 0F 2B 64 32 07  01 31 80 23 2B 64 32 07  2...+d2..1.#+d2.
10B0: 01 32 80 23 2A 10 64 32  07 01 27 10 64 32 07 01  .2.#*.d2..'.d2..
10C0: 10 52 1E 80 F0 FF FF 7F  F0 FF FF 7F 32 30 31 39  .R..........2019
10D0: 01 D6 13 02 01 00 18 80  80 64 12 45 1E 80 F0 FF  .........d.E....
10E0: FF 7F F0 FF FF 7F 32 30  31 61 09 80 1C 11 80 5D  ......201a.....]
10F0: 33 80 2C 80 27 10 63 32  07 01 13 6E F0 FF FF 7F  3.,.'.c2...n....
1100: 34 80 99 F0 FF FF 7F 27  10 64 32 07 01 1B 1C 35  4......'.d2....5
1110: 80 2A 10 64 32 07 01 29  10 65 32 07 01 0F 52 1E  .*.d2..).e2...R.
1120: 80 F0 FF FF 7F F0 FF FF  7F 32 30 31 61 45 1E 80  .........201aE..
1130: F0 FF FF 7F F0 FF FF 7F  32 30 31 62 09 80 27 10  ........201b..'.
1140: 65 32 07 01 0A 43 00 43  01 02 02 10 09 80 80 59  e2...C.C.......Y
1150: 11 03 02 10 36 80 01 89  11 02 02 10 12 80 80 69  ....6..........i
1160: 11 03 02 10 37 80 01 89  11 02 02 10 14 80 80 79  ....7..........y
1170: 11 03 02 10 38 80 01 89  11 02 02 10 15 80 80 89  ....8...........
1180: 11 03 02 10 39 80 01 89  11 2B 65 32 07 01 3A 80  ....9....+e2..:.
1190: 23 2B 65 32 07 01 3B 80  23 2B 65 32 07 01 3C 80  #+e2..;.#+e2..<.
11A0: 23 2A 10 65 32 07 01 27  10 65 32 07 01 0C 2B 65  #*.e2..'.e2...+e
11B0: 32 07 01 3D 80 23 2A 10  65 32 07 01 1C 11 80 27  2..=.#*.e2.....'
11C0: 10 65 32 07 01 11 1C 41  80 52 1E 80 F0 FF FF 7F  .e2....A.R......
11D0: F0 FF FF 7F 32 30 31 62  45 1E 80 F0 FF FF 7F F0  ....201bE.......
11E0: FF FF 7F 32 30 31 63 09  80 5D 09 80 3E 80 2B 64  ...201c..]..>.+d
11F0: 32 07 01 3F 80 23 2A 10  65 32 07 01 27 10 65 32  2..?.#*.e2..'.e2
1200: 07 01 0E 1C 2C 80 2A 10  65 32 07 01 52 1E 80 F0  ....,.*.e2..R...
1210: FF FF 7F F0 FF FF 7F 32  30 31 63 1C 2C 80 27 10  .......201c.,.'.
1220: 63 32 07 01 12 1C 56 80  79 02 64 32 07 01 55 80  c2....V.y.d2..U.
1230: 09 80 1C 41 80 7B 64 32  07 01 1C 11 80 2B 64 32  ...A.{d2.....+d2
1240: 07 01 42 80 23 27 10 64  32 07 01 0F 2B 64 32 07  ..B.#'.d2...+d2.
1250: 01 43 80 23 2A 10 64 32  07 01 29 10 64 32 07 01  .C.#*.d2..).d2..
1260: 10 01 D6 13 02 01 00 19  80 80 AC 12 45 1E 80 F0  ............E...
1270: FF FF 7F F0 FF FF 7F 32  30 31 65 09 80 1C 11 80  .......201e.....
1280: 7B 64 32 07 01 27 10 64  32 07 01 14 2B 64 32 07  {d2..'.d2...+d2.
1290: 01 44 80 23 2A 10 64 32  07 01 52 1E 80 F0 FF FF  .D.#*.d2..R.....
12A0: 7F F0 FF FF 7F 32 30 31  65 01 D6 13 02 01 00 1A  .....201e.......
12B0: 80 80 6C 13 45 1E 80 F0  FF FF 7F F0 FF FF 7F 32  ..l.E..........2
12C0: 30 31 66 09 80 1C 11 80  27 10 64 32 07 01 15 1C  01f.....'.d2....
12D0: 2A 80 C5 45 80 64 32 07  01 64 32 07 01 73 30 30  *..E.d2..d2..s00
12E0: 30 09 80 2B 64 32 07 01  46 80 23 2A 10 66 32 07  0..+d2..F.#*.f2.
12F0: 01 52 1E 80 F0 FF FF 7F  F0 FF FF 7F 32 30 31 66  .R..........201f
1300: 45 1E 80 F0 FF FF 7F F0  FF FF 7F 32 30 31 67 09  E..........201g.
1310: 80 1C 10 80 29 10 64 32  07 01 16 5C 00 47 80 5C  ....).d2...\.G.\
1320: 01 47 80 9A 2B 64 32 07  01 48 80 23 52 1E 80 F0  .G..+d2..H.#R...
1330: FF FF 7F F0 FF FF 7F 32  30 31 67 45 1E 80 F0 FF  .......201gE....
1340: FF 7F F0 FF FF 7F 32 31  31 67 09 80 2B 64 32 07  ......211g..+d2.
1350: 01 49 80 29 10 64 32 07  01 11 52 1E 80 F0 FF FF  .I.).d2...R.....
1360: 7F F0 FF FF 7F 32 31 31  67 01 D6 13 02 01 00 13  .....211g.......
1370: 80 80 D6 13 BA 66 32 07  01 57 80 07 80 58 80 59  .....f2..W...X.Y
1380: 80 80 66 32 07 01 1C 11  80 4B 64 32 07 01 09 80  ..f2.....Kd2....
1390: 59 01 64 32 07 01 4A 80  6F 76 64 32 07 01 1C 11  Y.d2..J.ovd2....
13A0: 80 7B 64 32 07 01 27 10  64 32 07 01 1E 1C 4A 80  .{d2..'.d2....J.
13B0: 45 1E 80 F0 FF FF 7F F0  FF FF 7F 32 30 31 69 09  E..........201i.
13C0: 80 1C 41 80 52 1E 80 F0  FF FF 7F F0 FF FF 7F 32  ..A.R..........2
13D0: 30 31 69 01 D6 13 1B 45  1C 80 F0 FF FF 7F F0 FF  01i....E........
13E0: FF 7F 66 64 69 30 09 80  55 1C 80 F0 FF FF 7F F0  ..fdi0..U.......
13F0: FF FF 7F 66 64 69 30 1B  45 1C 80 F0 FF FF 7F F0  ...fdi0.E.......
1400: FF FF 7F 66 64 6F 30 09  80 55 1C 80 F0 FF FF 7F  ...fdo0..U......
1410: F0 FF FF 7F 66 64 6F 30  1B 45 1C 80 F0 FF FF 7F  ....fdo0.E......
1420: F0 FF FF 7F 66 64 69 31  09 80 55 1C 80 F0 FF FF  ....fdi1..U.....
1430: 7F F0 FF FF 7F 66 64 69  31 1B 45 1C 80 F0 FF FF  .....fdi1.E.....
1440: 7F F0 FF FF 7F 66 64 6F  31 09 80 55 1C 80 F0 FF  .....fdo1..U....
1450: FF 7F F0 FF FF 7F 66 64  6F 31 1B 45 5A 80 F0 FF  ......fdo1.EZ...
1460: FF 7F F0 FF FF 7F 77 68  69 31 09 80 55 5A 80 F0  ......whi1..UZ..
1470: FF FF 7F F0 FF FF 7F 77  68 69 31 1B 45 5A 80 F0  .......whi1.EZ..
1480: FF FF 7F F0 FF FF 7F 77  68 6F 31 09 80 55 5A 80  .......who1..UZ.
1490: F0 FF FF 7F F0 FF FF 7F  77 68 6F 31 1B 45 5A 80  ........who1.EZ.
14A0: F0 FF FF 7F F0 FF FF 7F  77 68 69 30 09 80 55 5A  ........whi0..UZ
14B0: 80 F0 FF FF 7F F0 FF FF  7F 77 68 69 30 1B 45 5A  .........whi0.EZ
14C0: 80 F0 FF FF 7F F0 FF FF  7F 77 68 6F 30 09 80 55  .........who0..U
14D0: 5A 80 F0 FF FF 7F F0 FF  FF 7F 77 68 6F 30 1B 45  Z.........who0.E
14E0: 5B 80 F0 FF FF 7F F0 FF  FF 7F 65 66 6F 6E 09 80  [.........efon..
14F0: 55 5B 80 F0 FF FF 7F F0  FF FF 7F 65 66 6F 6E 1B  U[.........efon.
```

#### Opcodes

```
  0: 0x0A14 [0x42] SET_CLI_EVENT_CANCEL_DATA()
  1: 0x0A15 [0x1A] CALL_SUBROUTINE(address=0x143A)
  2: 0x0A18 [0x46] CAMERA_CONTROL: Disable user control
  3: 0x0A1A [0x38] SET_CLIENT_EVENT_MODE(mode=19*)
  4: 0x0A1D [0x27] REQ_SET(priority=0x10, entity_id=LocalPlayer, tag_num=0x0E)
  5: 0x0A24 [0x27] REQ_SET(priority=0x10, entity_id=Moogle (ID: 17248868/0x01073264), tag_num=0x02)
  6: 0x0A2B [0x27] REQ_SET(priority=0x10, entity_id=??? (ID: 17248866/0x01073262), tag_num=0x01)
  7: 0x0A32 [0x27] REQ_SET(priority=0x10, entity_id=Unnamed NPC (ID: 17248867/0x01073263), tag_num=0x02)
  8: 0x0A39 [0x27] REQ_SET(priority=0x10, entity_id=Shantotto (ID: 17248869/0x01073265), tag_num=0x01)
  9: 0x0A40 [0x27] REQ_SET(priority=0x10, entity_id=1 (ID: 17248870/0x01073266), tag_num=0x06)
 10: 0x0A47 [0x27] REQ_SET(priority=0x10, entity_id=2 (ID: 17248871/0x01073267), tag_num=0x01)
 11: 0x0A4E [0x27] REQ_SET(priority=0x10, entity_id=??? (ID: 17248866/0x01073262), tag_num=0x06)
 12: 0x0A55 [0x27] REQ_SET(priority=0x10, entity_id=Unnamed NPC (ID: 17248867/0x01073263), tag_num=0x05)
 13: 0x0A5C [0x27] REQ_SET(priority=0x10, entity_id=2 (ID: 17248871/0x01073267), tag_num=0x03)
 14: 0x0A63 [0x59] UPDATE_ENTITY_DATA: Unnamed NPC (ID: 17248867/0x01073263)->Render.Flags0 |= 0x200000
 15: 0x0A6A [0x59] UPDATE_ENTITY_DATA: Shantotto (ID: 17248869/0x01073265)->Render.Flags0 |= 0x200000
 16: 0x0A71 [0x59] UPDATE_ENTITY_DATA: 1 (ID: 17248870/0x01073266)->Render.Flags0 |= 0x200000
 17: 0x0A78 [0x59] UPDATE_ENTITY_DATA: 2 (ID: 17248871/0x01073267)->Render.Flags0 |= 0x200000
 18: 0x0A7F [0xBA] SET_ENTITY_POSITION(entity_id=LocalPlayer, pos_x=151.440*, pos_z=-320.000*, pos_y=-0.286*, direction=177.4°*)
 19: 0x0A8C [0xBA] SET_ENTITY_POSITION(entity_id=Moogle (ID: 17248868/0x01073264), pos_x=158.570*, pos_z=-320.000*, pos_y=-1.500*, direction=0.0°*)
 20: 0x0A99 [0xBA] SET_ENTITY_POSITION(entity_id=??? (ID: 17248866/0x01073262), pos_x=-114.055*, pos_z=-520.200*, pos_y=-4.123*, direction=0.0°*)
 21: 0x0AA6 [0xBA] SET_ENTITY_POSITION(entity_id=Unnamed NPC (ID: 17248867/0x01073263), pos_x=-114.055*, pos_z=-520.200*, pos_y=-4.123*, direction=0.0°*)
 22: 0x0AB3 [0xBA] SET_ENTITY_POSITION(entity_id=Shantotto (ID: 17248869/0x01073265), pos_x=-110.180*, pos_z=-520.000*, pos_y=-5.500*, direction=0.0°*)
 23: 0x0AC0 [0xBA] SET_ENTITY_POSITION(entity_id=1 (ID: 17248870/0x01073266), pos_x=-110.860*, pos_z=-518.000*, pos_y=-5.200*, direction=0.0°*)
 24: 0x0ACD [0xBA] SET_ENTITY_POSITION(entity_id=2 (ID: 17248871/0x01073267), pos_x=-110.860*, pos_z=-518.000*, pos_y=-5.200*, direction=0.0°*)
 25: 0x0ADA [0x80] LOAD_WAIT(entity=LocalPlayer)
 26: 0x0ADF [0x80] LOAD_WAIT(entity=Moogle (ID: 17248868/0x01073264))
 27: 0x0AE4 [0x80] LOAD_WAIT(entity=??? (ID: 17248866/0x01073262))
 28: 0x0AE9 [0x80] LOAD_WAIT(entity=Unnamed NPC (ID: 17248867/0x01073263))
 29: 0x0AEE [0x80] LOAD_WAIT(entity=Shantotto (ID: 17248869/0x01073265))
 30: 0x0AF3 [0x80] LOAD_WAIT(entity=1 (ID: 17248870/0x01073266))
 31: 0x0AF8 [0x80] LOAD_WAIT(entity=2 (ID: 17248871/0x01073267))
 32: 0x0AFD [0x1C] WAIT(15* ticks)
 33: 0x0B00 [0x4A] Moogle (ID: 17248868/0x01073264) looks at LocalPlayer
 34: 0x0B09 [0x4A] Unnamed NPC (ID: 17248867/0x01073263) looks at LocalPlayer
 35: 0x0B12 [0x4A] Shantotto (ID: 17248869/0x01073265) looks at LocalPlayer
 36: 0x0B1B [0x6F] WAIT_FRAME_DELAY: Yield until WaitTime reaches zero
 37: 0x0B1C [0x76] CHECK_ENTITY_RENDER_FLAGS: Wait until Moogle (ID: 17248868/0x01073264) Render.Flags0 and Render.Flags3 conditions are met
 38: 0x0B21 [0x6F] WAIT_FRAME_DELAY: Yield until WaitTime reaches zero
 39: 0x0B22 [0x76] CHECK_ENTITY_RENDER_FLAGS: Wait until Shantotto (ID: 17248869/0x01073265) Render.Flags0 and Render.Flags3 conditions are met
 40: 0x0B27 [0x1C] WAIT(15* ticks)
 41: 0x0B2A [0x7B] Shantotto (ID: 17248869/0x01073265) stops talking
 42: 0x0B2F [0x7B] LocalPlayer stops talking
 43: 0x0B34 [0x7B] Moogle (ID: 17248868/0x01073264) stops talking
 44: 0x0B39 [0x27] REQ_SET(priority=0x10, entity_id=Shantotto (ID: 17248869/0x01073265), tag_num=0x07)
 45: 0x0B40 [0x27] REQ_SET(priority=0x10, entity_id=2 (ID: 17248871/0x01073267), tag_num=0x09)
 46: 0x0B47 [0x27] REQ_SET(priority=0x10, entity_id=??? (ID: 17248866/0x01073262), tag_num=0x03)
 47: 0x0B4E [0x27] REQ_SET(priority=0x10, entity_id=Unnamed NPC (ID: 17248867/0x01073263), tag_num=0x07)
 48: 0x0B55 [0x27] REQ_SET(priority=0x10, entity_id=Shantotto (ID: 17248869/0x01073265), tag_num=0x03)
 49: 0x0B5C [0x27] REQ_SET(priority=0x10, entity_id=2 (ID: 17248871/0x01073267), tag_num=0x04)
 50: 0x0B63 [0x27] REQ_SET(priority=0x10, entity_id=Shantotto (ID: 17248869/0x01073265), tag_num=0x08)
 51: 0x0B6A [0x1C] WAIT(30* ticks)
 52: 0x0B6D [0x03] ExtData[1]->WorkLocal[1] = 1*
 53: 0x0B72 [0x02] IF !(ExtData[1]->WorkLocal[1] > 9*) GOTO 0x0B98
 54: 0x0B7A [0x02] IF !(0* < ExtData[1]->WorkLocal[1]) GOTO 0x0B90
 55: 0x0B82 [0x02] IF !(ExtData[1]->WorkLocal[1] == 2*) GOTO 0x0B90
 56: 0x0B8A [0x1A] CALL_SUBROUTINE(address=0x1419)
 57: 0x0B8D [0x01] GOTO 0x0B90

SUBROUTINE_0B90:
 58: 0x0B90 [0x07] ExtData[1]->WorkLocal[1] += 1*
 59: 0x0B95 [0x01] GOTO 0x0B72
 60: 0x0B98 [0x03] ExtData[1]->WorkLocal[1] = 1*

SUBROUTINE_0B9D:
 61: 0x0B9D [0x02] IF !(ExtData[1]->WorkLocal[1] > 9*) GOTO 0x0BB8
 62: 0x0BA5 [0x02] IF !(0* > ExtData[1]->WorkLocal[1]) GOTO 0x0BB0
 63: 0x0BAD [0x1A] CALL_SUBROUTINE(address=0x0D93)
 64: 0x0BB0 [0x07] ExtData[1]->WorkLocal[1] += 1*
 65: 0x0BB5 [0x01] GOTO 0x0B9D
 66: 0x0BB8 [0x1A] CALL_SUBROUTINE(address=0x143A)
 67: 0x0BBB [0x1C] WAIT(30* ticks)
 68: 0x0BBE [0x46] CAMERA_CONTROL: Restore default settings
 69: 0x0BC0 [0x45] LOAD_SCHEDULED_TASK: Load scheduler "fdi2" with entities [LocalPlayer, LocalPlayer], work=[200*, 0*]
 70: 0x0BD1 [0x21] END_EVENT
 71: 0x0BD2 [0x00] END_REQSTACK()

SUBROUTINE_0BE0:
 72: 0x0BE0 [0x02] IF !(LocalPlayer->Race == 1*) GOTO 0x0C0E
 73: 0x0BE8 [0x45] LOAD_SCHEDULED_TASK: Load scheduler "2317" with entities [LocalPlayer, LocalPlayer], work=[472*, 0*]
 74: 0x0BF9 [0x1A] CALL_SUBROUTINE(address=0x0D51)
 75: 0x0BFC [0x52] END_LOAD_SCHEDULER: End scheduler "2317" with entities [LocalPlayer, LocalPlayer], work=472*
 76: 0x0C0B [0x01] GOTO 0x0D50
 77: 0x0C0E [0x02] IF !(LocalPlayer->Race == 2*) GOTO 0x0C3C
 78: 0x0C16 [0x45] LOAD_SCHEDULED_TASK: Load scheduler "2417" with entities [LocalPlayer, LocalPlayer], work=[472*, 0*]
 79: 0x0C27 [0x1A] CALL_SUBROUTINE(address=0x0D51)
 80: 0x0C2A [0x52] END_LOAD_SCHEDULER: End scheduler "2417" with entities [LocalPlayer, LocalPlayer], work=472*
 81: 0x0C39 [0x01] GOTO 0x0D50
 82: 0x0C3C [0x02] IF !(LocalPlayer->Race == 3*) GOTO 0x0C6A
 83: 0x0C44 [0x45] LOAD_SCHEDULED_TASK: Load scheduler "2117" with entities [LocalPlayer, LocalPlayer], work=[472*, 0*]
 84: 0x0C55 [0x1A] CALL_SUBROUTINE(address=0x0D51)
 85: 0x0C58 [0x52] END_LOAD_SCHEDULER: End scheduler "2117" with entities [LocalPlayer, LocalPlayer], work=472*
 86: 0x0C67 [0x01] GOTO 0x0D50
 87: 0x0C6A [0x02] IF !(LocalPlayer->Race == 4*) GOTO 0x0C98
 88: 0x0C72 [0x45] LOAD_SCHEDULED_TASK: Load scheduler "2217" with entities [LocalPlayer, LocalPlayer], work=[472*, 0*]
 89: 0x0C83 [0x1A] CALL_SUBROUTINE(address=0x0D51)
 90: 0x0C86 [0x52] END_LOAD_SCHEDULER: End scheduler "2217" with entities [LocalPlayer, LocalPlayer], work=472*
 91: 0x0C95 [0x01] GOTO 0x0D50
 92: 0x0C98 [0x02] IF !(LocalPlayer->Race == 5*) GOTO 0x0CC6
 93: 0x0CA0 [0x45] LOAD_SCHEDULED_TASK: Load scheduler "2617" with entities [LocalPlayer, LocalPlayer], work=[472*, 0*]
 94: 0x0CB1 [0x1A] CALL_SUBROUTINE(address=0x0D51)
 95: 0x0CB4 [0x52] END_LOAD_SCHEDULER: End scheduler "2617" with entities [LocalPlayer, LocalPlayer], work=472*
 96: 0x0CC3 [0x01] GOTO 0x0D50
 97: 0x0CC6 [0x02] IF !(LocalPlayer->Race == 6*) GOTO 0x0CF4
 98: 0x0CCE [0x45] LOAD_SCHEDULED_TASK: Load scheduler "2617" with entities [LocalPlayer, LocalPlayer], work=[472*, 0*]
 99: 0x0CDF [0x1A] CALL_SUBROUTINE(address=0x0D51)
100: 0x0CE2 [0x52] END_LOAD_SCHEDULER: End scheduler "2617" with entities [LocalPlayer, LocalPlayer], work=472*
101: 0x0CF1 [0x01] GOTO 0x0D50
102: 0x0CF4 [0x02] IF !(LocalPlayer->Race == 7*) GOTO 0x0D22
103: 0x0CFC [0x45] LOAD_SCHEDULED_TASK: Load scheduler "2517" with entities [LocalPlayer, LocalPlayer], work=[472*, 0*]
104: 0x0D0D [0x1A] CALL_SUBROUTINE(address=0x0D51)
105: 0x0D10 [0x52] END_LOAD_SCHEDULER: End scheduler "2517" with entities [LocalPlayer, LocalPlayer], work=472*
106: 0x0D1F [0x01] GOTO 0x0D50
107: 0x0D22 [0x02] IF !(LocalPlayer->Race == 8*) GOTO 0x0D50
108: 0x0D2A [0x45] LOAD_SCHEDULED_TASK: Load scheduler "2017" with entities [LocalPlayer, LocalPlayer], work=[472*, 0*]
109: 0x0D3B [0x1A] CALL_SUBROUTINE(address=0x0D51)
110: 0x0D3E [0x52] END_LOAD_SCHEDULER: End scheduler "2017" with entities [LocalPlayer, LocalPlayer], work=472*
111: 0x0D4D [0x01] GOTO 0x0D50

SUBROUTINE_0D50:
112: 0x0D50 [0x1B] RETURN

SUBROUTINE_0D51:
113: 0x0D51 [0x27] REQ_SET(priority=0x10, entity_id=??? (ID: 17248866/0x01073262), tag_num=0x02)
114: 0x0D58 [0x2B] Shantotto (ID: 17248869/0x01073265) [11346*]:
    → "All inductees must report to provisional headquarters at Qufim Island's frozen pond; there you shall receive orders."
115: 0x0D5F [0x23] WAIT_FOR_DIALOG_INTERACTION
116: 0x0D60 [0x2A] GET_REQ_LEVEL(level=16, entity_id=Shantotto (ID: 17248869/0x01073265))
117: 0x0D66 [0x27] REQ_SET(priority=0x10, entity_id=Moogle (ID: 17248868/0x01073264), tag_num=0x1F)
118: 0x0D6D [0x29] REQ_SET_WAIT(priority=0x10, entity_id=Shantotto (ID: 17248869/0x01073265), tag_num=0x09)
119: 0x0D74 [0x7B] Moogle (ID: 17248868/0x01073264) stops talking
120: 0x0D79 [0x1C] WAIT(15* ticks)
121: 0x0D7C [0x79] Moogle (ID: 17248868/0x01073264) looks at Shantotto (ID: 17248869/0x01073265) (Basic look)
122: 0x0D86 [0x29] REQ_SET_WAIT(priority=0x10, entity_id=Shantotto (ID: 17248869/0x01073265), tag_num=0x11)
123: 0x0D8D [0x80] LOAD_WAIT(entity=Moogle (ID: 17248868/0x01073264))
124: 0x0D92 [0x1B] RETURN

SUBROUTINE_0D93:
125: 0x0D93 [0x02] IF !(ExtData[1]->WorkLocal[1] == 1*) GOTO 0x0DF1
126: 0x0D9B [0x45] LOAD_SCHEDULED_TASK: Load scheduler "2011" with entities [LocalPlayer, LocalPlayer], work=[472*, 0*]
127: 0x0DAC [0x27] REQ_SET(priority=0x10, entity_id=LocalPlayer, tag_num=0x12)
128: 0x0DB3 [0x1A] CALL_SUBROUTINE(address=0x1419)
129: 0x0DB6 [0x1C] WAIT(120* ticks)
130: 0x0DB9 [0x2B] Moogle (ID: 17248868/0x01073264) [11340*]:
    → "Master! Waaait!"
131: 0x0DC0 [0x2A] GET_REQ_LEVEL(level=16, entity_id=LocalPlayer)
132: 0x0DC6 [0x1C] WAIT(30* ticks)
133: 0x0DC9 [0x4A] LocalPlayer looks at Moogle (ID: 17248868/0x01073264)
134: 0x0DD2 [0x6F] WAIT_FRAME_DELAY: Yield until WaitTime reaches zero
135: 0x0DD3 [0x76] CHECK_ENTITY_RENDER_FLAGS: Wait until LocalPlayer Render.Flags0 and Render.Flags3 conditions are met
136: 0x0DD8 [0x27] REQ_SET(priority=0x10, entity_id=Moogle (ID: 17248868/0x01073264), tag_num=0x1D)
137: 0x0DDF [0x55] WAIT_LOAD_SCHEDULER: Wait for scheduler "2011" with entities [LocalPlayer, LocalPlayer], work=472*
138: 0x0DEE [0x01] GOTO 0x13D6
139: 0x0DF1 [0x02] IF !(ExtData[1]->WorkLocal[1] == 2*) GOTO 0x0E80
140: 0x0DF9 [0x45] LOAD_SCHEDULED_TASK: Load scheduler "2012" with entities [LocalPlayer, LocalPlayer], work=[472*, 0*]
141: 0x0E0A [0x2A] GET_REQ_LEVEL(level=16, entity_id=Moogle (ID: 17248868/0x01073264))
142: 0x0E10 [0x27] REQ_SET(priority=0x10, entity_id=??? (ID: 17248866/0x01073262), tag_num=0x04)
143: 0x0E17 [0x27] REQ_SET(priority=0x10, entity_id=Unnamed NPC (ID: 17248867/0x01073263), tag_num=0x03)
144: 0x0E1E [0x27] REQ_SET(priority=0x10, entity_id=Shantotto (ID: 17248869/0x01073265), tag_num=0x15)
145: 0x0E25 [0x27] REQ_SET(priority=0x10, entity_id=2 (ID: 17248871/0x01073267), tag_num=0x02)
146: 0x0E2C [0x2A] GET_REQ_LEVEL(level=16, entity_id=??? (ID: 17248866/0x01073262))
147: 0x0E32 [0x1C] WAIT(60* ticks)
148: 0x0E35 [0x27] REQ_SET(priority=0x10, entity_id=Moogle (ID: 17248868/0x01073264), tag_num=0x0F)
149: 0x0E3C [0x2B] Moogle (ID: 17248868/0x01073264) [11341*]:
    → "<Huff...puff...> M-Master. A rather unusual letter addressed to you was delivered to the Mog House not a moment ago, kupo."
150: 0x0E43 [0x23] WAIT_FOR_DIALOG_INTERACTION
151: 0x0E44 [0x2A] GET_REQ_LEVEL(level=16, entity_id=Moogle (ID: 17248868/0x01073264))
152: 0x0E4A [0x27] REQ_SET(priority=0x10, entity_id=??? (ID: 17248866/0x01073262), tag_num=0x02)
153: 0x0E51 [0x29] REQ_SET_WAIT(priority=0x10, entity_id=??? (ID: 17248866/0x01073262), tag_num=0x09)
154: 0x0E58 [0x27] REQ_SET(priority=0x10, entity_id=??? (ID: 17248866/0x01073262), tag_num=0x0A)
155: 0x0E5F [0x29] REQ_SET_WAIT(priority=0x10, entity_id=Moogle (ID: 17248868/0x01073264), tag_num=0x18)
156: 0x0E66 [0x2B] Moogle (ID: 17248868/0x01073264) [11342*]:
    → "The word "urgent" was stamped on the envelope, so I rushed here as swiftly as my little purple wings could carry me."
157: 0x0E6D [0x23] WAIT_FOR_DIALOG_INTERACTION
158: 0x0E6E [0x52] END_LOAD_SCHEDULER: End scheduler "2012" with entities [LocalPlayer, LocalPlayer], work=472*
159: 0x0E7D [0x01] GOTO 0x13D6
160: 0x0E80 [0x02] IF !(ExtData[1]->WorkLocal[1] == 3*) GOTO 0x0EBB
161: 0x0E88 [0x45] LOAD_SCHEDULED_TASK: Load scheduler "2013" with entities [LocalPlayer, LocalPlayer], work=[472*, 0*]
162: 0x0E99 [0x2B] Moogle (ID: 17248868/0x01073264) [11343*]:
    → "If you'll allow me, I'll read out the contents to you this instant, kupo."
163: 0x0EA0 [0x23] WAIT_FOR_DIALOG_INTERACTION
164: 0x0EA1 [0x5D] SET_MUSIC_VOLUME(volume=0*, fade_time=120*)
165: 0x0EA6 [0x1A] CALL_SUBROUTINE(address=0x143A)
166: 0x0EA9 [0x52] END_LOAD_SCHEDULER: End scheduler "2013" with entities [LocalPlayer, LocalPlayer], work=472*
167: 0x0EB8 [0x01] GOTO 0x13D6
168: 0x0EBB [0x02] IF !(ExtData[1]->WorkLocal[1] == 4*) GOTO 0x0FEA
169: 0x0EC3 [0x2A] GET_REQ_LEVEL(level=16, entity_id=Unnamed NPC (ID: 17248867/0x01073263))
170: 0x0EC9 [0x2A] GET_REQ_LEVEL(level=16, entity_id=Shantotto (ID: 17248869/0x01073265))
171: 0x0ECF [0x27] REQ_SET(priority=0x10, entity_id=??? (ID: 17248866/0x01073262), tag_num=0x07)
172: 0x0ED6 [0x27] REQ_SET(priority=0x10, entity_id=??? (ID: 17248866/0x01073262), tag_num=0x03)
173: 0x0EDD [0x27] REQ_SET(priority=0x10, entity_id=Unnamed NPC (ID: 17248867/0x01073263), tag_num=0x08)
174: 0x0EE4 [0x29] REQ_SET_WAIT(priority=0x10, entity_id=Moogle (ID: 17248868/0x01073264), tag_num=0x08)
175: 0x0EEB [0x27] REQ_SET(priority=0x10, entity_id=Unnamed NPC (ID: 17248867/0x01073263), tag_num=0x06)
176: 0x0EF2 [0xBA] SET_ENTITY_POSITION(entity_id=??? (ID: 17248866/0x01073262), pos_x=320.000*, pos_z=-28.400*, pos_y=-4.473*, direction=90.0°*)
177: 0x0EFF [0x80] LOAD_WAIT(entity=??? (ID: 17248866/0x01073262))
178: 0x0F04 [0x1C] WAIT(15* ticks)
179: 0x0F07 [0x4A] ??? (ID: 17248866/0x01073262) looks at LocalPlayer
180: 0x0F10 [0x1C] WAIT(30* ticks)
181: 0x0F13 [0x45] LOAD_SCHEDULED_TASK: Load scheduler "2014" with entities [LocalPlayer, LocalPlayer], work=[472*, 0*]
182: 0x0F24 [0x1A] CALL_SUBROUTINE(address=0x1419)
183: 0x0F27 [0x2B] Moogle (ID: 17248868/0x01073264) [11344*]:
    → "Ahem!"
184: 0x0F2E [0x23] WAIT_FOR_DIALOG_INTERACTION
185: 0x0F2F [0x1C] WAIT(30* ticks)
186: 0x0F32 [0x52] END_LOAD_SCHEDULER: End scheduler "2014" with entities [LocalPlayer, LocalPlayer], work=472*
187: 0x0F41 [0x45] LOAD_SCHEDULED_TASK: Load scheduler "2015" with entities [LocalPlayer, LocalPlayer], work=[472*, 0*]
188: 0x0F52 [0x27] REQ_SET(priority=0x10, entity_id=Unnamed NPC (ID: 17248867/0x01073263), tag_num=0x11)
189: 0x0F59 [0x29] REQ_SET_WAIT(priority=0x10, entity_id=Moogle (ID: 17248868/0x01073264), tag_num=0x17)
190: 0x0F60 [0x1C] WAIT(160* ticks)
191: 0x0F63 [0x27] REQ_SET(priority=0x10, entity_id=2 (ID: 17248871/0x01073267), tag_num=0x06)
192: 0x0F6A [0x55] WAIT_LOAD_SCHEDULER: Wait for scheduler "2015" with entities [LocalPlayer, LocalPlayer], work=472*
193: 0x0F79 [0x45] LOAD_SCHEDULED_TASK: Load scheduler "2016" with entities [LocalPlayer, LocalPlayer], work=[472*, 0*]
194: 0x0F8A [0x27] REQ_SET(priority=0x10, entity_id=Moogle (ID: 17248868/0x01073264), tag_num=0x04)
195: 0x0F91 [0x27] REQ_SET(priority=0x10, entity_id=Moogle (ID: 17248868/0x01073264), tag_num=0x19)
196: 0x0F98 [0x7B] 2 (ID: 17248871/0x01073267) stops talking
197: 0x0F9D [0x1C] WAIT(240* ticks)
198: 0x0FA0 [0x79] LocalPlayer looks at Shantotto (ID: 17248869/0x01073265) (Basic look)
199: 0x0FAA [0x5C] MUSIC_CONTROL: Set Idle (Day) music to song 170*
200: 0x0FAE [0x5C] MUSIC_CONTROL: Set Idle (Night) music to song 170*
201: 0x0FB2 [0x9A] WAIT_MUSIC_SERVER()
202: 0x0FB3 [0x27] REQ_SET(priority=0x10, entity_id=2 (ID: 17248871/0x01073267), tag_num=0x0A)
203: 0x0FBA [0xB0] PRINT_EVENT_MESSAGE(unknown1=0x00, speaker_id=0x01073265, listener_id=0x01073267, message_offset=0x802B)
204: 0x0FC6 [0x23] WAIT_FOR_DIALOG_INTERACTION
205: 0x0FC7 [0x52] END_LOAD_SCHEDULER: End scheduler "2016" with entities [LocalPlayer, LocalPlayer], work=472*
206: 0x0FD6 [0x27] REQ_SET(priority=0x10, entity_id=2 (ID: 17248871/0x01073267), tag_num=0x04)
207: 0x0FDD [0x27] REQ_SET(priority=0x10, entity_id=Shantotto (ID: 17248869/0x01073265), tag_num=0x10)
208: 0x0FE4 [0x1A] CALL_SUBROUTINE(address=0x0BE0)
209: 0x0FE7 [0x01] GOTO 0x13D6
210: 0x0FEA [0x02] IF !(ExtData[1]->WorkLocal[1] == 5*) GOTO 0x10D3
211: 0x0FF2 [0x27] REQ_SET(priority=0x10, entity_id=??? (ID: 17248866/0x01073262), tag_num=0x03)
212: 0x0FF9 [0x27] REQ_SET(priority=0x10, entity_id=Moogle (ID: 17248868/0x01073264), tag_num=0x03)
213: 0x1000 [0x45] LOAD_SCHEDULED_TASK: Load scheduler "2018" with entities [LocalPlayer, LocalPlayer], work=[472*, 0*]
214: 0x1011 [0x1C] WAIT(60* ticks)
215: 0x1014 [0x79] LocalPlayer looks at Moogle (ID: 17248868/0x01073264) (Basic look)
216: 0x101E [0x27] REQ_SET(priority=0x10, entity_id=Unnamed NPC (ID: 17248867/0x01073263), tag_num=0x12)
217: 0x1025 [0x1C] WAIT(30* ticks)
218: 0x1028 [0x7B] Moogle (ID: 17248868/0x01073264) stops talking
219: 0x102D [0x1C] WAIT(75* ticks)
220: 0x1030 [0x79] Moogle (ID: 17248868/0x01073264) looks at Unknown NPC (ID: 2148106325/0x80098055) (Direct axis set)
221: 0x103A [0x5D] SET_MUSIC_VOLUME(volume=0*, fade_time=120*)
222: 0x103F [0x1C] WAIT(200* ticks)
223: 0x1042 [0x7B] Moogle (ID: 17248868/0x01073264) stops talking
224: 0x1047 [0x2B] Moogle (ID: 17248868/0x01073264) [11347*]:
    → "Special Unit Operative...?"
225: 0x104E [0x23] WAIT_FOR_DIALOG_INTERACTION
226: 0x104F [0x27] REQ_SET(priority=0x10, entity_id=Moogle (ID: 17248868/0x01073264), tag_num=0x0E)
227: 0x1056 [0x2B] Moogle (ID: 17248868/0x01073264) [11348*]:
    → "Master, you never mentioned anything to me about changing your nation of affiliation, kupo."
228: 0x105D [0x23] WAIT_FOR_DIALOG_INTERACTION
229: 0x105E [0x2A] GET_REQ_LEVEL(level=16, entity_id=Moogle (ID: 17248868/0x01073264))
230: 0x1064 [0x27] REQ_SET(priority=0x10, entity_id=Moogle (ID: 17248868/0x01073264), tag_num=0x10)
231: 0x106B [0x52] END_LOAD_SCHEDULER: End scheduler "2018" with entities [LocalPlayer, LocalPlayer], work=472*
232: 0x107A [0x45] LOAD_SCHEDULED_TASK: Load scheduler "2019" with entities [LocalPlayer, LocalPlayer], work=[472*, 0*]
233: 0x108B [0x2B] Moogle (ID: 17248868/0x01073264) [11349*]:
    → "But this so-called Shantotto Empire is news to me."
234: 0x1092 [0x1C] WAIT(10* ticks)
235: 0x1095 [0x27] REQ_SET(priority=0x10, entity_id=Unnamed NPC (ID: 17248867/0x01073263), tag_num=0x16)
236: 0x109C [0x23] WAIT_FOR_DIALOG_INTERACTION
237: 0x109D [0x27] REQ_SET(priority=0x10, entity_id=Moogle (ID: 17248868/0x01073264), tag_num=0x0F)
238: 0x10A4 [0x2B] Moogle (ID: 17248868/0x01073264) [11350*]:
    → "Could that oddball Doctor Shantotto be scheming something unsavory again, kupo?"
239: 0x10AB [0x23] WAIT_FOR_DIALOG_INTERACTION
240: 0x10AC [0x2B] Moogle (ID: 17248868/0x01073264) [11351*]:
    → "A foreboding feeling is flitting furiously about in the pit of my stomach..."
241: 0x10B3 [0x23] WAIT_FOR_DIALOG_INTERACTION
242: 0x10B4 [0x2A] GET_REQ_LEVEL(level=16, entity_id=Moogle (ID: 17248868/0x01073264))
243: 0x10BA [0x27] REQ_SET(priority=0x10, entity_id=Moogle (ID: 17248868/0x01073264), tag_num=0x10)
244: 0x10C1 [0x52] END_LOAD_SCHEDULER: End scheduler "2019" with entities [LocalPlayer, LocalPlayer], work=472*
245: 0x10D0 [0x01] GOTO 0x13D6
246: 0x10D3 [0x02] IF !(ExtData[1]->WorkLocal[1] == 6*) GOTO 0x1264
247: 0x10DB [0x45] LOAD_SCHEDULED_TASK: Load scheduler "201a" with entities [LocalPlayer, LocalPlayer], work=[472*, 0*]
248: 0x10EC [0x1C] WAIT(30* ticks)
249: 0x10EF [0x5D] SET_MUSIC_VOLUME(volume=127*, fade_time=60*)
250: 0x10F4 [0x27] REQ_SET(priority=0x10, entity_id=Unnamed NPC (ID: 17248867/0x01073263), tag_num=0x13)
251: 0x10FB [0x6E] LocalPlayer uses emote 21*
252: 0x1102 [0x99] Wait for LocalPlayer animation to complete
253: 0x1107 [0x27] REQ_SET(priority=0x10, entity_id=Moogle (ID: 17248868/0x01073264), tag_num=0x1B)
254: 0x110E [0x1C] WAIT(45* ticks)
255: 0x1111 [0x2A] GET_REQ_LEVEL(level=16, entity_id=Moogle (ID: 17248868/0x01073264))
256: 0x1117 [0x29] REQ_SET_WAIT(priority=0x10, entity_id=Shantotto (ID: 17248869/0x01073265), tag_num=0x0F)
257: 0x111E [0x52] END_LOAD_SCHEDULER: End scheduler "201a" with entities [LocalPlayer, LocalPlayer], work=472*
258: 0x112D [0x45] LOAD_SCHEDULED_TASK: Load scheduler "201b" with entities [LocalPlayer, LocalPlayer], work=[472*, 0*]
259: 0x113E [0x27] REQ_SET(priority=0x10, entity_id=Shantotto (ID: 17248869/0x01073265), tag_num=0x0A)
260: 0x1145 [0x43] SEND_EVENT_UPDATE: Send pending tag to server (packet 0x005B)
261: 0x1147 [0x43] SEND_EVENT_UPDATE: Check pending flag (skip if not pending)
262: 0x1149 [0x02] IF !(Work_Zone[2] == 0*) GOTO 0x1159
263: 0x1151 [0x03] Work_Zone[2] = 2779*
264: 0x1156 [0x01] GOTO 0x1189
265: 0x1159 [0x02] IF !(Work_Zone[2] == 1*) GOTO 0x1169
266: 0x1161 [0x03] Work_Zone[2] = 2780*
267: 0x1166 [0x01] GOTO 0x1189
268: 0x1169 [0x02] IF !(Work_Zone[2] == 2*) GOTO 0x1179
269: 0x1171 [0x03] Work_Zone[2] = 2781*
270: 0x1176 [0x01] GOTO 0x1189
271: 0x1179 [0x02] IF !(Work_Zone[2] == 3*) GOTO 0x1189
272: 0x1181 [0x03] Work_Zone[2] = 2782*
273: 0x1186 [0x01] GOTO 0x1189

SUBROUTINE_1189:
274: 0x1189 [0x2B] Shantotto (ID: 17248869/0x01073265) [11353*]:
    → "See that you have $0 in your possession before showing up at the aforementioned destination."
275: 0x1190 [0x23] WAIT_FOR_DIALOG_INTERACTION
276: 0x1191 [0x2B] Shantotto (ID: 17248869/0x01073265) [11354*]:
    → "To learn more about this object of which I speak, an Orastery employee, a tanner, and an alchemist you should seek."
277: 0x1198 [0x23] WAIT_FOR_DIALOG_INTERACTION
278: 0x1199 [0x2B] Shantotto (ID: 17248869/0x01073265) [11355*]:
    → "Should an accursed, gruesome end be that which you desire,"
279: 0x11A0 [0x23] WAIT_FOR_DIALOG_INTERACTION
280: 0x11A1 [0x2A] GET_REQ_LEVEL(level=16, entity_id=Shantotto (ID: 17248869/0x01073265))
281: 0x11A7 [0x27] REQ_SET(priority=0x10, entity_id=Shantotto (ID: 17248869/0x01073265), tag_num=0x0C)
282: 0x11AE [0x2B] Shantotto (ID: 17248869/0x01073265) [11356*]:
    → "Show up not with extreme haste; we dare you to incur our ire. O`hohohohoho!"
283: 0x11B5 [0x23] WAIT_FOR_DIALOG_INTERACTION
284: 0x11B6 [0x2A] GET_REQ_LEVEL(level=16, entity_id=Shantotto (ID: 17248869/0x01073265))
285: 0x11BC [0x1C] WAIT(30* ticks)
286: 0x11BF [0x27] REQ_SET(priority=0x10, entity_id=Shantotto (ID: 17248869/0x01073265), tag_num=0x11)
287: 0x11C6 [0x1C] WAIT(180* ticks)
288: 0x11C9 [0x52] END_LOAD_SCHEDULER: End scheduler "201b" with entities [LocalPlayer, LocalPlayer], work=472*
289: 0x11D8 [0x45] LOAD_SCHEDULED_TASK: Load scheduler "201c" with entities [LocalPlayer, LocalPlayer], work=[472*, 0*]
290: 0x11E9 [0x5D] SET_MUSIC_VOLUME(volume=0*, fade_time=300*)
291: 0x11EE [0x2B] Moogle (ID: 17248868/0x01073264) [11357*]:
    → "......"
292: 0x11F5 [0x23] WAIT_FOR_DIALOG_INTERACTION
293: 0x11F6 [0x2A] GET_REQ_LEVEL(level=16, entity_id=Shantotto (ID: 17248869/0x01073265))
294: 0x11FC [0x27] REQ_SET(priority=0x10, entity_id=Shantotto (ID: 17248869/0x01073265), tag_num=0x0E)
295: 0x1203 [0x1C] WAIT(60* ticks)
296: 0x1206 [0x2A] GET_REQ_LEVEL(level=16, entity_id=Shantotto (ID: 17248869/0x01073265))
297: 0x120C [0x52] END_LOAD_SCHEDULER: End scheduler "201c" with entities [LocalPlayer, LocalPlayer], work=472*
298: 0x121B [0x1C] WAIT(60* ticks)
299: 0x121E [0x27] REQ_SET(priority=0x10, entity_id=Unnamed NPC (ID: 17248867/0x01073263), tag_num=0x12)
300: 0x1225 [0x1C] WAIT(90* ticks)
301: 0x1228 [0x79] Moogle (ID: 17248868/0x01073264) looks at Unknown NPC (ID: 2148106325/0x80098055) (Direct axis set)
302: 0x1232 [0x1C] WAIT(180* ticks)
303: 0x1235 [0x7B] Moogle (ID: 17248868/0x01073264) stops talking
304: 0x123A [0x1C] WAIT(30* ticks)
305: 0x123D [0x2B] Moogle (ID: 17248868/0x01073264) [11358*]:
    → "Master. For your own safety, I advise you to drop everything else and make for Qufim Island without delay."
306: 0x1244 [0x23] WAIT_FOR_DIALOG_INTERACTION
307: 0x1245 [0x27] REQ_SET(priority=0x10, entity_id=Moogle (ID: 17248868/0x01073264), tag_num=0x0F)
308: 0x124C [0x2B] Moogle (ID: 17248868/0x01073264) [11359*]:
    → "The content of the letter is dubious beyond doubt, kupo."
309: 0x1253 [0x23] WAIT_FOR_DIALOG_INTERACTION
310: 0x1254 [0x2A] GET_REQ_LEVEL(level=16, entity_id=Moogle (ID: 17248868/0x01073264))
311: 0x125A [0x29] REQ_SET_WAIT(priority=0x10, entity_id=Moogle (ID: 17248868/0x01073264), tag_num=0x10)
312: 0x1261 [0x01] GOTO 0x13D6
313: 0x1264 [0x02] IF !(ExtData[1]->WorkLocal[1] == 7*) GOTO 0x12AC
314: 0x126C [0x45] LOAD_SCHEDULED_TASK: Load scheduler "201e" with entities [LocalPlayer, LocalPlayer], work=[472*, 0*]
315: 0x127D [0x1C] WAIT(30* ticks)
316: 0x1280 [0x7B] Moogle (ID: 17248868/0x01073264) stops talking
317: 0x1285 [0x27] REQ_SET(priority=0x10, entity_id=Moogle (ID: 17248868/0x01073264), tag_num=0x14)
318: 0x128C [0x2B] Moogle (ID: 17248868/0x01073264) [11360*]:
    → "But the last thing you want is an enraged Doctor Shantotto unleashing a barrage of ancient magic spells at you."
319: 0x1293 [0x23] WAIT_FOR_DIALOG_INTERACTION
320: 0x1294 [0x2A] GET_REQ_LEVEL(level=16, entity_id=Moogle (ID: 17248868/0x01073264))
321: 0x129A [0x52] END_LOAD_SCHEDULER: End scheduler "201e" with entities [LocalPlayer, LocalPlayer], work=472*
322: 0x12A9 [0x01] GOTO 0x13D6
323: 0x12AC [0x02] IF !(ExtData[1]->WorkLocal[1] == 8*) GOTO 0x136C
324: 0x12B4 [0x45] LOAD_SCHEDULED_TASK: Load scheduler "201f" with entities [LocalPlayer, LocalPlayer], work=[472*, 0*]
325: 0x12C5 [0x1C] WAIT(30* ticks)
326: 0x12C8 [0x27] REQ_SET(priority=0x10, entity_id=Moogle (ID: 17248868/0x01073264), tag_num=0x15)
327: 0x12CF [0x1C] WAIT(170* ticks)
328: 0x12D2 [0xC5] LOAD_SCHEDULED_TASK_ALT3: Load scheduler 0x80093030 for entities [Moogle (ID: 17248868/0x01073264), Moogle (ID: 17248868/0x01073264)], work=202*, param=12403
329: 0x12E3 [0x2B] Moogle (ID: 17248868/0x01073264) [11361*]:
    → "O Merciful Altana! Please protect us Goddess-fearing children from the hands of darkness, kupo!"
330: 0x12EA [0x23] WAIT_FOR_DIALOG_INTERACTION
331: 0x12EB [0x2A] GET_REQ_LEVEL(level=16, entity_id=1 (ID: 17248870/0x01073266))
332: 0x12F1 [0x52] END_LOAD_SCHEDULER: End scheduler "201f" with entities [LocalPlayer, LocalPlayer], work=472*
333: 0x1300 [0x45] LOAD_SCHEDULED_TASK: Load scheduler "201g" with entities [LocalPlayer, LocalPlayer], work=[472*, 0*]
334: 0x1311 [0x1C] WAIT(15* ticks)
335: 0x1314 [0x29] REQ_SET_WAIT(priority=0x10, entity_id=Moogle (ID: 17248868/0x01073264), tag_num=0x16)
336: 0x131B [0x5C] MUSIC_CONTROL: Set Idle (Day) music to song 113*
337: 0x131F [0x5C] MUSIC_CONTROL: Set Idle (Night) music to song 113*
338: 0x1323 [0x9A] WAIT_MUSIC_SERVER()
339: 0x1324 [0x2B] Moogle (ID: 17248868/0x01073264) [11362*]:
    → "I'll be excusing myself now, but Master..."
340: 0x132B [0x23] WAIT_FOR_DIALOG_INTERACTION
341: 0x132C [0x52] END_LOAD_SCHEDULER: End scheduler "201g" with entities [LocalPlayer, LocalPlayer], work=472*
342: 0x133B [0x45] LOAD_SCHEDULED_TASK: Load scheduler "211g" with entities [LocalPlayer, LocalPlayer], work=[472*, 0*]
343: 0x134C [0x2B] Moogle (ID: 17248868/0x01073264) [11363*]:
    → "Be sure to practice a plenitude of precautions, kupo! Go well!"
344: 0x1353 [0x29] REQ_SET_WAIT(priority=0x10, entity_id=Moogle (ID: 17248868/0x01073264), tag_num=0x11)
345: 0x135A [0x52] END_LOAD_SCHEDULER: End scheduler "211g" with entities [LocalPlayer, LocalPlayer], work=472*
346: 0x1369 [0x01] GOTO 0x13D6
347: 0x136C [0x02] IF !(ExtData[1]->WorkLocal[1] == 9*) GOTO 0x13D6
348: 0x1374 [0xBA] SET_ENTITY_POSITION(entity_id=1 (ID: 17248870/0x01073266), pos_x=-113.260*, pos_z=-520.200*, pos_y=-4.200*, direction=180.0°*)
349: 0x1381 [0x80] LOAD_WAIT(entity=1 (ID: 17248870/0x01073266))
350: 0x1386 [0x1C] WAIT(30* ticks)
351: 0x1389 [0x4B] UPDATE_ENTITY_YAW(entity=Moogle (ID: 17248868/0x01073264), yaw=0.0°*)
352: 0x1390 [0x59] UPDATE_ENTITY_DATA: Set Moogle (ID: 17248868/0x01073264) turn speed = 50*
353: 0x1398 [0x6F] WAIT_FRAME_DELAY: Yield until WaitTime reaches zero
354: 0x1399 [0x76] CHECK_ENTITY_RENDER_FLAGS: Wait until Moogle (ID: 17248868/0x01073264) Render.Flags0 and Render.Flags3 conditions are met
355: 0x139E [0x1C] WAIT(30* ticks)
356: 0x13A1 [0x7B] Moogle (ID: 17248868/0x01073264) stops talking
357: 0x13A6 [0x27] REQ_SET(priority=0x10, entity_id=Moogle (ID: 17248868/0x01073264), tag_num=0x1E)
358: 0x13AD [0x1C] WAIT(50* ticks)
359: 0x13B0 [0x45] LOAD_SCHEDULED_TASK: Load scheduler "201i" with entities [LocalPlayer, LocalPlayer], work=[472*, 0*]
360: 0x13C1 [0x1C] WAIT(180* ticks)
361: 0x13C4 [0x52] END_LOAD_SCHEDULER: End scheduler "201i" with entities [LocalPlayer, LocalPlayer], work=472*
362: 0x13D3 [0x01] GOTO 0x13D6

SUBROUTINE_13D6:
363: 0x13D6 [0x1B] RETURN

SUBROUTINE_1419:
364: 0x1419 [0x45] LOAD_SCHEDULED_TASK: Load scheduler "fdi1" with entities [LocalPlayer, LocalPlayer], work=[200*, 0*]
365: 0x142A [0x55] WAIT_LOAD_SCHEDULER: Wait for scheduler "fdi1" with entities [LocalPlayer, LocalPlayer], work=200*
366: 0x1439 [0x1B] RETURN

SUBROUTINE_143A:
367: 0x143A [0x45] LOAD_SCHEDULED_TASK: Load scheduler "fdo1" with entities [LocalPlayer, LocalPlayer], work=[200*, 0*]
368: 0x144B [0x55] WAIT_LOAD_SCHEDULER: Wait for scheduler "fdo1" with entities [LocalPlayer, LocalPlayer], work=200*
369: 0x145A [0x1B] RETURN
```

#### Data or dead code:

```
# Dead code (unreachable instructions):
     0x0BD3 [0x02] IF !(0* == 1*) GOTO 0x0BDF
     0x0BDB [0x48] [System] [11340*]:
    → "Master! Waaait!"
     0x0BDE [0x23] WAIT_FOR_DIALOG_INTERACTION
     0x0BDF [0x1B] RETURN
# Dead code (unreachable instructions):
     0x13D7 [0x45] LOAD_SCHEDULED_TASK: Load scheduler "fdi0" with entities [LocalPlayer, LocalPlayer], work=[200*, 0*]
     0x13E8 [0x55] WAIT_LOAD_SCHEDULER: Wait for scheduler "fdi0" with entities [LocalPlayer, LocalPlayer], work=200*
     0x13F7 [0x1B] RETURN
     0x13F8 [0x45] LOAD_SCHEDULED_TASK: Load scheduler "fdo0" with entities [LocalPlayer, LocalPlayer], work=[200*, 0*]
     0x1409 [0x55] WAIT_LOAD_SCHEDULER: Wait for scheduler "fdo0" with entities [LocalPlayer, LocalPlayer], work=200*
     0x1418 [0x1B] RETURN
# Dead code (unreachable instructions):
     0x145B [0x45] LOAD_SCHEDULED_TASK: Load scheduler "whi1" with entities [LocalPlayer, LocalPlayer], work=[201*, 0*]
     0x146C [0x55] WAIT_LOAD_SCHEDULER: Wait for scheduler "whi1" with entities [LocalPlayer, LocalPlayer], work=201*
     0x147B [0x1B] RETURN
     0x147C [0x45] LOAD_SCHEDULED_TASK: Load scheduler "who1" with entities [LocalPlayer, LocalPlayer], work=[201*, 0*]
     0x148D [0x55] WAIT_LOAD_SCHEDULER: Wait for scheduler "who1" with entities [LocalPlayer, LocalPlayer], work=201*
     0x149C [0x1B] RETURN
     0x149D [0x45] LOAD_SCHEDULED_TASK: Load scheduler "whi0" with entities [LocalPlayer, LocalPlayer], work=[201*, 0*]
     0x14AE [0x55] WAIT_LOAD_SCHEDULER: Wait for scheduler "whi0" with entities [LocalPlayer, LocalPlayer], work=201*
     0x14BD [0x1B] RETURN
     0x14BE [0x45] LOAD_SCHEDULED_TASK: Load scheduler "who0" with entities [LocalPlayer, LocalPlayer], work=[201*, 0*]
     0x14CF [0x55] WAIT_LOAD_SCHEDULER: Wait for scheduler "who0" with entities [LocalPlayer, LocalPlayer], work=201*
     0x14DE [0x1B] RETURN
     0x14DF [0x45] LOAD_SCHEDULED_TASK: Load scheduler "efon" with entities [LocalPlayer, LocalPlayer], work=[215*, 0*]
     0x14F0 [0x55] WAIT_LOAD_SCHEDULER: Wait for scheduler "efon" with entities [LocalPlayer, LocalPlayer], work=215*
     0x14FF [0x1B] RETURN
```
