# 17248931 - Pichichi

## Common Data

| Field            | Value                       |
|------------------|-----------------------------|
| Zone             | West Sarutabaruta (ID: 115) |
| Block Size       | 200 bytes                   |
| Total Events     | 3                           |
| References Count | 22                          |

## List of Events

| Event ID                 | Entrypoint   |   Size |   Instructions |
|--------------------------|--------------|--------|----------------|
| [65535](#event-65535)    | 0x0000       |      1 |              1 |
| [920](#event-920)        | 0x0001       |      7 |              2 |
| [65535.1](#event-655351) | 0x0008       |     74 |             16 |

## DAT References (imed_data)

|   Index | Hex Value   |   Dec Value |
|---------|-------------|-------------|
|       0 | 0x0015      |          21 |
|       1 | 0x3B859     |      243801 |
|       2 | 0x3C97      |       15511 |
|       3 | 0xFFFFED20  |  4294962464 |
|       4 | 0x3B929     |      244009 |
|       5 | 0x3B07      |       15111 |
|       6 | 0xFFFFED43  |  4294962499 |
|       7 | 0x3BA82     |      244354 |
|       8 | 0x33DF      |       13279 |
|       9 | 0xFFFFEDD9  |  4294962649 |
|      10 | 0x3BCB4     |      244916 |
|      11 | 0x29ED      |       10733 |
|      12 | 0xFFFFEEA5  |  4294962853 |
|      13 | 0x3C5FD     |      247293 |
|      14 | 0x1ACA      |        6858 |
|      15 | 0xFFFFEEF0  |  4294962928 |
|      16 | 0x3D7D8     |      251864 |
|      17 | 0x0E27      |        3623 |
|      18 | 0xFFFFEE73  |  4294962803 |
|      19 | 0x40DF2     |      265714 |
|      20 | 0xFFFFF7D4  |  4294965204 |
|      21 | 0xFFFFED48  |  4294962504 |

## Events

### Event 65535

#### Metadata

| Field        | Value   |
|--------------|---------|
| Entrypoint   | 0x0000  |
| Data Size    | 1 bytes |
| Instructions | 1       |

```
      00 01 02 03 04 05 06 07  08 09 0A 0B 0C 0D 0E 0F
      -- -- -- -- -- -- -- --  -- -- -- -- -- -- -- --
0000: 00                                                .               
```

#### Opcodes

```
  0: 0x0000 [0x00] END_REQSTACK()
```

### Event 920

#### Metadata

| Field        | Value   |
|--------------|---------|
| Entrypoint   | 0x0001  |
| Data Size    | 7 bytes |
| Instructions | 2       |

```
      00 01 02 03 04 05 06 07  08 09 0A 0B 0C 0D 0E 0F
      -- -- -- -- -- -- -- --  -- -- -- -- -- -- -- --
0000:    92 01 F8 FF FF 7F 00                            .......        
```

#### Opcodes

```
  0: 0x0001 [0x92] EventEntity->Render.Flags3 ^= 0x01
  1: 0x0007 [0x00] END_REQSTACK()
```

### Event 65535.1

#### Metadata

| Field        | Value    |
|--------------|----------|
| Entrypoint   | 0x0008   |
| Data Size    | 74 bytes |
| Instructions | 16       |

```
      00 01 02 03 04 05 06 07  08 09 0A 0B 0C 0D 0E 0F
      -- -- -- -- -- -- -- --  -- -- -- -- -- -- -- --
0000:                          32 00 80 1F 00 01 80 02          2.......
0010: 80 03 80 1F 01 1F 00 04  80 05 80 06 80 1F 01 1F  ................
0020: 00 07 80 08 80 09 80 1F  01 1F 00 0A 80 0B 80 0C  ................
0030: 80 1F 01 1F 00 0D 80 0E  80 0F 80 1F 01 1F 00 10  ................
0040: 80 11 80 12 80 1F 01 1F  00 13 80 14 80 15 80 1F  ................
0050: 01 00                                             ..              
```

#### Opcodes

```
  0: 0x0008 [0x32] ExtData[1]->MainSpeed = 21* * 0.1
  1: 0x000B [0x1F] MOVE_ENTITY: EventEntity moves to X=243.801*, Z=15.511*, Y=-4.832*
  2: 0x0013 [0x1F] MOVE_ENTITY: Update entity position (mode=1)
  3: 0x0015 [0x1F] MOVE_ENTITY: EventEntity moves to X=244.009*, Z=15.111*, Y=-4.797*
  4: 0x001D [0x1F] MOVE_ENTITY: Update entity position (mode=1)
  5: 0x001F [0x1F] MOVE_ENTITY: EventEntity moves to X=244.354*, Z=13.279*, Y=-4.647*
  6: 0x0027 [0x1F] MOVE_ENTITY: Update entity position (mode=1)
  7: 0x0029 [0x1F] MOVE_ENTITY: EventEntity moves to X=244.916*, Z=10.733*, Y=-4.443*
  8: 0x0031 [0x1F] MOVE_ENTITY: Update entity position (mode=1)
  9: 0x0033 [0x1F] MOVE_ENTITY: EventEntity moves to X=247.293*, Z=6.858*, Y=-4.368*
 10: 0x003B [0x1F] MOVE_ENTITY: Update entity position (mode=1)
 11: 0x003D [0x1F] MOVE_ENTITY: EventEntity moves to X=251.864*, Z=3.623*, Y=-4.493*
 12: 0x0045 [0x1F] MOVE_ENTITY: Update entity position (mode=1)
 13: 0x0047 [0x1F] MOVE_ENTITY: EventEntity moves to X=265.714*, Z=-2.092*, Y=-4.792*
 14: 0x004F [0x1F] MOVE_ENTITY: Update entity position (mode=1)
 15: 0x0051 [0x00] END_REQSTACK()
```
