# 17248913

## Common Data

| Field            | Value                       |
|------------------|-----------------------------|
| Zone             | West Sarutabaruta (ID: 115) |
| Block Size       | 276 bytes                   |
| Total Events     | 9                           |
| References Count | 23                          |

## List of Events

| Event ID                 | Entrypoint   |   Size |   Instructions |
|--------------------------|--------------|--------|----------------|
| [65535](#event-65535)    | 0x0000       |      1 |              1 |
| [65535.1](#event-655351) | 0x0001       |      1 |              1 |
| [65535.2](#event-655352) | 0x0002       |     14 |              4 |
| [65535.3](#event-655353) | 0x0010       |     49 |             15 |
| [65535.4](#event-655354) | 0x0041       |      8 |              3 |
| [65535.5](#event-655355) | 0x0049       |      6 |              3 |
| [65535.6](#event-655356) | 0x004F       |     10 |              2 |
| [65535.7](#event-655357) | 0x0059       |     14 |              4 |
| [65535.8](#event-655358) | 0x0067       |     26 |              6 |

## DAT References (imed_data)

|   Index | Hex Value   |   Dec Value |
|---------|-------------|-------------|
|       0 | 0x0019      |          25 |
|       1 | 0x1DEC      |        7660 |
|       2 | 0x516A      |       20842 |
|       3 | 0xFFFFFC19  |  4294966297 |
|       4 | 0x001E      |          30 |
|       5 | 0x17CB      |        6091 |
|       6 | 0x5F7D      |       24445 |
|       7 | 0xFFFFFC18  |  4294966296 |
|       8 | 0x0150      |         336 |
|       9 | 0x0002      |           2 |
|      10 | 0x012D      |         301 |
|      11 | 0x1789      |        6025 |
|      12 | 0x568F      |       22159 |
|      13 | 0x0ADC      |        2780 |
|      14 | 0x0018      |          24 |
|      15 | 0xFFFFF349  |  4294964041 |
|      16 | 0xAD02      |       44290 |
|      17 | 0x0080      |         128 |
|      18 | 0x0001      |           1 |
|      19 | 0x69528     |      431400 |
|      20 | 0xFFFFC6EE  |  4294952686 |
|      21 | 0xFFFF633E  |  4294927166 |
|      22 | 0x0835      |        2101 |

## Events

### Event 65535

#### Metadata

| Field        | Value   |
|--------------|---------|
| Entrypoint   | 0x0000  |
| Data Size    | 1 bytes |
| Instructions | 1       |

```
      00 01 02 03 04 05 06 07  08 09 0A 0B 0C 0D 0E 0F
      -- -- -- -- -- -- -- --  -- -- -- -- -- -- -- --
0000: 00                                                .               
```

#### Opcodes

```
  0: 0x0000 [0x00] END_REQSTACK()
```

### Event 65535.1

#### Metadata

| Field        | Value   |
|--------------|---------|
| Entrypoint   | 0x0001  |
| Data Size    | 1 bytes |
| Instructions | 1       |

```
      00 01 02 03 04 05 06 07  08 09 0A 0B 0C 0D 0E 0F
      -- -- -- -- -- -- -- --  -- -- -- -- -- -- -- --
0000:    00                                              .              
```

#### Opcodes

```
  0: 0x0001 [0x00] END_REQSTACK()
```

### Event 65535.2

#### Metadata

| Field        | Value    |
|--------------|----------|
| Entrypoint   | 0x0002   |
| Data Size    | 14 bytes |
| Instructions | 4        |

```
      00 01 02 03 04 05 06 07  08 09 0A 0B 0C 0D 0E 0F
      -- -- -- -- -- -- -- --  -- -- -- -- -- -- -- --
0000:       32 00 80 1F 00 01  80 02 80 03 80 1F 01 00    2.............
```

#### Opcodes

```
  0: 0x0002 [0x32] ExtData[1]->MainSpeed = 25* * 0.1
  1: 0x0005 [0x1F] MOVE_ENTITY: EventEntity moves to X=7.660*, Z=20.842*, Y=-0.999*
  2: 0x000D [0x1F] MOVE_ENTITY: Update entity position (mode=1)
  3: 0x000F [0x00] END_REQSTACK()
```

### Event 65535.3

#### Metadata

| Field        | Value    |
|--------------|----------|
| Entrypoint   | 0x0010   |
| Data Size    | 49 bytes |
| Instructions | 15       |

```
      00 01 02 03 04 05 06 07  08 09 0A 0B 0C 0D 0E 0F
      -- -- -- -- -- -- -- --  -- -- -- -- -- -- -- --
0010: 1E 81 32 07 01 6F 70 1C  04 80 1E F0 FF FF 7F 6F  ..2..op........o
0020: 70 1C 04 80 4A 91 32 07  01 8B 32 07 01 6F 76 91  p...J.2...2..ov.
0030: 32 07 01 32 04 80 1F 00  05 80 06 80 07 80 1F 01  2..2............
0040: 00                                                .               
```

#### Opcodes

```
  0: 0x0010 [0x1E] EventEntity looks at Khoto Rokkorah (ID: 17248897/0x01073281) and starts talking
  1: 0x0015 [0x6F] WAIT_FRAME_DELAY: Yield until WaitTime reaches zero
  2: 0x0016 [0x70] WAIT_ENTITY_RENDER_FLAG: Wait while EventEntity->Render.Flags3 bit 2 is set (cancel turn if not)
  3: 0x0017 [0x1C] WAIT(30* ticks)
  4: 0x001A [0x1E] EventEntity looks at LocalPlayer and starts talking
  5: 0x001F [0x6F] WAIT_FRAME_DELAY: Yield until WaitTime reaches zero
  6: 0x0020 [0x70] WAIT_ENTITY_RENDER_FLAG: Wait while EventEntity->Render.Flags3 bit 2 is set (cancel turn if not)
  7: 0x0021 [0x1C] WAIT(30* ticks)
  8: 0x0024 [0x4A] Unnamed NPC (ID: 17248913/0x01073291) looks at Abenzio (ID: 17248907/0x0107328B)
  9: 0x002D [0x6F] WAIT_FRAME_DELAY: Yield until WaitTime reaches zero
 10: 0x002E [0x76] CHECK_ENTITY_RENDER_FLAGS: Wait until Unnamed NPC (ID: 17248913/0x01073291) Render.Flags0 and Render.Flags3 conditions are met
 11: 0x0033 [0x32] ExtData[1]->MainSpeed = 30* * 0.1
 12: 0x0036 [0x1F] MOVE_ENTITY: EventEntity moves to X=6.091*, Z=24.445*, Y=-1.000*
 13: 0x003E [0x1F] MOVE_ENTITY: Update entity position (mode=1)
 14: 0x0040 [0x00] END_REQSTACK()
```

### Event 65535.4

#### Metadata

| Field        | Value   |
|--------------|---------|
| Entrypoint   | 0x0041  |
| Data Size    | 8 bytes |
| Instructions | 3       |

```
      00 01 02 03 04 05 06 07  08 09 0A 0B 0C 0D 0E 0F
      -- -- -- -- -- -- -- --  -- -- -- -- -- -- -- --
0040:    B6 00 08 80 95 09 80  00                        ........       
```

#### Opcodes

```
  0: 0x0041 [0xB6] ENTITY_APPEARANCE_HANDLER(case=Hair style, value=336*)
  1: 0x0045 [0x95] SETUP_EVENT_NPC: Prepare NPC for event (Render.Flags3 = 2*)
  2: 0x0048 [0x00] END_REQSTACK()
```

### Event 65535.5

#### Metadata

| Field        | Value   |
|--------------|---------|
| Entrypoint   | 0x0049  |
| Data Size    | 6 bytes |
| Instructions | 3       |

```
      00 01 02 03 04 05 06 07  08 09 0A 0B 0C 0D 0E 0F
      -- -- -- -- -- -- -- --  -- -- -- -- -- -- -- --
0040:                             B6 00 0A 80 96 00              ...... 
```

#### Opcodes

```
  0: 0x0049 [0xB6] ENTITY_APPEARANCE_HANDLER(case=Hair style, value=301*)
  1: 0x004D [0x96] UNSET_EVENT_NPC: Restore NPC after event (removes event NPC status)
  2: 0x004E [0x00] END_REQSTACK()
```

### Event 65535.6

#### Metadata

| Field        | Value    |
|--------------|----------|
| Entrypoint   | 0x004F   |
| Data Size    | 10 bytes |
| Instructions | 2        |

```
      00 01 02 03 04 05 06 07  08 09 0A 0B 0C 0D 0E 0F
      -- -- -- -- -- -- -- --  -- -- -- -- -- -- -- --
0040:                                               37                 7
0050: 0B 80 0C 80 07 80 0D 80  00                       .........       
```

#### Opcodes

```
  0: 0x004F [0x37] UPDATE_EVENT_POSITION_AND_DIR: x=6.025*, z=22.159*, y=-1.000*, direction=244.3°*
  1: 0x0058 [0x00] END_REQSTACK()
```

### Event 65535.7

#### Metadata

| Field        | Value    |
|--------------|----------|
| Entrypoint   | 0x0059   |
| Data Size    | 14 bytes |
| Instructions | 4        |

```
      00 01 02 03 04 05 06 07  08 09 0A 0B 0C 0D 0E 0F
      -- -- -- -- -- -- -- --  -- -- -- -- -- -- -- --
0050:                             32 0E 80 1F 00 0F 80           2......
0060: 10 80 07 80 1F 01 00                              .......         
```

#### Opcodes

```
  0: 0x0059 [0x32] ExtData[1]->MainSpeed = 24* * 0.1
  1: 0x005C [0x1F] MOVE_ENTITY: EventEntity moves to X=-3.255*, Z=44.290*, Y=-1.000*
  2: 0x0064 [0x1F] MOVE_ENTITY: Update entity position (mode=1)
  3: 0x0066 [0x00] END_REQSTACK()
```

### Event 65535.8

#### Metadata

| Field        | Value    |
|--------------|----------|
| Entrypoint   | 0x0067   |
| Data Size    | 26 bytes |
| Instructions | 6        |

```
      00 01 02 03 04 05 06 07  08 09 0A 0B 0C 0D 0E 0F
      -- -- -- -- -- -- -- --  -- -- -- -- -- -- -- --
0060:                      6C  F8 FF FF 7F 11 80 12 80         l........
0070: 32 0E 80 1F 00 13 80 14  80 15 80 1F 01 39 16 80  2............9..
0080: 00                                                .               
```

#### Opcodes

```
  0: 0x0067 [0x6C] FADE_ENTITY_COLOR(entity_id=EventEntity, end_alpha=128*, fade_time=1*)
  1: 0x0070 [0x32] ExtData[1]->MainSpeed = 24* * 0.1
  2: 0x0073 [0x1F] MOVE_ENTITY: EventEntity moves to X=431.400*, Z=-14.610*, Y=-40.130*
  3: 0x007B [0x1F] MOVE_ENTITY: Update entity position (mode=1)
  4: 0x007D [0x39] SET_ENTITY_DIRECTION(direction=11.5°*)
  5: 0x0080 [0x00] END_REQSTACK()
```
