# 17248924

## Common Data

| Field            | Value                       |
|------------------|-----------------------------|
| Zone             | West Sarutabaruta (ID: 115) |
| Block Size       | 136 bytes                   |
| Total Events     | 5                           |
| References Count | 11                          |

## List of Events

| Event ID                 | Entrypoint   |   Size |   Instructions |
|--------------------------|--------------|--------|----------------|
| [65535](#event-65535)    | 0x0000       |      1 |              1 |
| [920](#event-920)        | 0x0001       |      7 |              2 |
| [65535.1](#event-655351) | 0x0008       |      7 |              3 |
| [65535.2](#event-655352) | 0x000F       |      5 |              2 |
| [65535.3](#event-655353) | 0x0014       |     34 |              8 |

## DAT References (imed_data)

|   Index | Hex Value   |   Dec Value |
|---------|-------------|-------------|
|       0 | 0x0C53      |        3155 |
|       1 | 0x0034      |          52 |
|       2 | 0x0050      |          80 |
|       3 | 0x3B709     |      243465 |
|       4 | 0x3D30      |       15664 |
|       5 | 0xFFFFEBE5  |  4294962149 |
|       6 | 0x3B687     |      243335 |
|       7 | 0x3D3F      |       15679 |
|       8 | 0xFFFFEC7A  |  4294962298 |
|       9 | 0x3DA4      |       15780 |
|      10 | 0xFFFFED02  |  4294962434 |

## Events

### Event 65535

#### Metadata

| Field        | Value   |
|--------------|---------|
| Entrypoint   | 0x0000  |
| Data Size    | 1 bytes |
| Instructions | 1       |

```
      00 01 02 03 04 05 06 07  08 09 0A 0B 0C 0D 0E 0F
      -- -- -- -- -- -- -- --  -- -- -- -- -- -- -- --
0000: 00                                                .               
```

#### Opcodes

```
  0: 0x0000 [0x00] END_REQSTACK()
```

### Event 920

#### Metadata

| Field        | Value   |
|--------------|---------|
| Entrypoint   | 0x0001  |
| Data Size    | 7 bytes |
| Instructions | 2       |

```
      00 01 02 03 04 05 06 07  08 09 0A 0B 0C 0D 0E 0F
      -- -- -- -- -- -- -- --  -- -- -- -- -- -- -- --
0000:    92 01 F8 FF FF 7F 00                            .......        
```

#### Opcodes

```
  0: 0x0001 [0x92] EventEntity->Render.Flags3 ^= 0x01
  1: 0x0007 [0x00] END_REQSTACK()
```

### Event 65535.1

#### Metadata

| Field        | Value   |
|--------------|---------|
| Entrypoint   | 0x0008  |
| Data Size    | 7 bytes |
| Instructions | 3       |

```
      00 01 02 03 04 05 06 07  08 09 0A 0B 0C 0D 0E 0F
      -- -- -- -- -- -- -- --  -- -- -- -- -- -- -- --
0000:                          B6 00 00 80 A4 01 00             ....... 
```

#### Opcodes

```
  0: 0x0008 [0xB6] ENTITY_APPEARANCE_HANDLER(case=Hair style, value=3155*)
  1: 0x000C [0xA4] EventEntity->Flags3.unknown_3_2 = 1
  2: 0x000E [0x00] END_REQSTACK()
```

### Event 65535.2

#### Metadata

| Field        | Value   |
|--------------|---------|
| Entrypoint   | 0x000F  |
| Data Size    | 5 bytes |
| Instructions | 2       |

```
      00 01 02 03 04 05 06 07  08 09 0A 0B 0C 0D 0E 0F
      -- -- -- -- -- -- -- --  -- -- -- -- -- -- -- --
0000:                                               B6                 .
0010: 00 01 80 00                                       ....            
```

#### Opcodes

```
  0: 0x000F [0xB6] ENTITY_APPEARANCE_HANDLER(case=Hair style, value=52*)
  1: 0x0013 [0x00] END_REQSTACK()
```

### Event 65535.3

#### Metadata

| Field        | Value    |
|--------------|----------|
| Entrypoint   | 0x0014   |
| Data Size    | 34 bytes |
| Instructions | 8        |

```
      00 01 02 03 04 05 06 07  08 09 0A 0B 0C 0D 0E 0F
      -- -- -- -- -- -- -- --  -- -- -- -- -- -- -- --
0010:             32 02 80 1F  00 03 80 04 80 05 80 1F      2...........
0020: 01 1F 00 06 80 07 80 08  80 1F 01 1F 00 06 80 09  ................
0030: 80 0A 80 1F 01 00                                 ......          
```

#### Opcodes

```
  0: 0x0014 [0x32] ExtData[1]->MainSpeed = 80* * 0.1
  1: 0x0017 [0x1F] MOVE_ENTITY: EventEntity moves to X=243.465*, Z=15.664*, Y=-5.147*
  2: 0x001F [0x1F] MOVE_ENTITY: Update entity position (mode=1)
  3: 0x0021 [0x1F] MOVE_ENTITY: EventEntity moves to X=243.335*, Z=15.679*, Y=-4.998*
  4: 0x0029 [0x1F] MOVE_ENTITY: Update entity position (mode=1)
  5: 0x002B [0x1F] MOVE_ENTITY: EventEntity moves to X=243.335*, Z=15.780*, Y=-4.862*
  6: 0x0033 [0x1F] MOVE_ENTITY: Update entity position (mode=1)
  7: 0x0035 [0x00] END_REQSTACK()
```
