# 17248794 - DIRECTOR

## Common Data

| Field            | Value                       |
|------------------|-----------------------------|
| Zone             | West Sarutabaruta (ID: 115) |
| Block Size       | 372 bytes                   |
| Total Events     | 5                           |
| References Count | 13                          |

## List of Events

| Event ID                 | Entrypoint   |   Size |   Instructions |
|--------------------------|--------------|--------|----------------|
| [65535](#event-65535)    | 0x0000       |      1 |              1 |
| [1](#event-1)            | 0x0001       |     66 |             14 |
| [65535.1](#event-655351) | 0x0043       |    138 |             26 |
| [65535.2](#event-655352) | 0x00CD       |     51 |             12 |
| [65535.3](#event-655353) | 0x0100       |     28 |              8 |

## DAT References (imed_data)

|   Index | Hex Value   |   Dec Value |
|---------|-------------|-------------|
|       0 | 0x1D0C      |        7436 |
|       1 | 0x0000      |           0 |
|       2 | 0x0001      |           1 |
|       3 | 0x0002      |           2 |
|       4 | 0x1D0B      |        7435 |
|       5 | 0x0003      |           3 |
|       6 | 0x0004      |           4 |
|       7 | 0x0005      |           5 |
|       8 | 0x0006      |           6 |
|       9 | 0x1D0D      |        7437 |
|      10 | 0x000B      |          11 |
|      11 | 0x000C      |          12 |
|      12 | 0x012C      |         300 |

## String References

- **7435**: G1V$3$1[$3vHL6a[H [$3E$3B$3$3_$3X$P11O/$6$27$2$P16@$3/$12VL$o{P/$12VL$o{Q/%F%./$3M$3f$3A$3X$P11O/$P10/$~i [u]
- **7436**: $3605028iB\`h$3U[$3}$3XH [@$3$1[$3v/@$3N$3G$3X$3g/@$3A$3C$3e$3 /@<Player>j$P13x$6750761$o=/@$3N$3G$3X$3gFLAGL]reset/$5200427NE$3t$3$3O$P11S$20reset/@$4$P122$8n/@$4$3A$3b$3\`n]
- **7437**: $5112652$3G$3X$3g$3U[$3}$3XH [me001:C$P156$17L%p$P13G/hi001:$P162L F]

## Events

### Event 65535

#### Metadata

| Field        | Value   |
|--------------|---------|
| Entrypoint   | 0x0000  |
| Data Size    | 1 bytes |
| Instructions | 1       |

```
      00 01 02 03 04 05 06 07  08 09 0A 0B 0C 0D 0E 0F
      -- -- -- -- -- -- -- --  -- -- -- -- -- -- -- --
0000: 00                                                .               
```

#### Opcodes

```
  0: 0x0000 [0x00] END_REQSTACK()
```

### Event 1

#### Metadata

| Field        | Value    |
|--------------|----------|
| Entrypoint   | 0x0001   |
| Data Size    | 66 bytes |
| Instructions | 14       |

```
      00 01 02 03 04 05 06 07  08 09 0A 0B 0C 0D 0E 0F
      -- -- -- -- -- -- -- --  -- -- -- -- -- -- -- --
0000:    24 00 80 01 80 01 80  25 02 00 10 01 80 00 1B   $......%.......
0010: 00 29 0B 1A 32 07 01 02  01 3F 00 02 00 10 02 80  .)..2....?......
0020: 00 2D 00 29 0B 1A 32 07  01 03 01 3F 00 02 00 10  .-.)..2....?....
0030: 03 80 00 3F 00 29 0B 1A  32 07 01 04 01 3F 00 20  ...?.)..2....?. 
0040: 00 21 00                                          .!.             
```

#### Opcodes

```
  0: 0x0001 [0x24] CREATE_DIALOG(message_id=7436*, default_option=0*, option_flags=0*)
    → "$3605028iB`h$3U[$3}$3XH [@$3$1[$3v/@$3N$3G$3X$3g/@$3A$3C$3e$3 /@<Player>j$P13x$6750761$o=/@$3N$3G$3X$3gFLAGL]reset/$5200427NE$3t$3$3O$P11S$20reset/@$4$P122$8n/@$4$3A$3b$3`n]"
  1: 0x0008 [0x25] WAIT_DIALOG_SELECT()
  2: 0x0009 [0x02] IF !(Work_Zone[0] == 0*) GOTO 0x001B
  3: 0x0011 [0x29] REQ_SET_WAIT(priority=0x0B, entity_id=DIRECTOR (ID: 17248794/0x0107321A), tag_num=0x02)
  4: 0x0018 [0x01] GOTO 0x003F
  5: 0x001B [0x02] IF !(Work_Zone[0] == 1*) GOTO 0x002D
  6: 0x0023 [0x29] REQ_SET_WAIT(priority=0x0B, entity_id=DIRECTOR (ID: 17248794/0x0107321A), tag_num=0x03)
  7: 0x002A [0x01] GOTO 0x003F
  8: 0x002D [0x02] IF !(Work_Zone[0] == 2*) GOTO 0x003F
  9: 0x0035 [0x29] REQ_SET_WAIT(priority=0x0B, entity_id=DIRECTOR (ID: 17248794/0x0107321A), tag_num=0x04)
 10: 0x003C [0x01] GOTO 0x003F

SUBROUTINE_003F:
 11: 0x003F [0x20] SET_CLI_EVENT_UC_FLAG: Unlock player control
 12: 0x0041 [0x21] END_EVENT
 13: 0x0042 [0x00] END_REQSTACK()
```

### Event 65535.1

#### Metadata

| Field        | Value     |
|--------------|-----------|
| Entrypoint   | 0x0043    |
| Data Size    | 138 bytes |
| Instructions | 26        |

```
      00 01 02 03 04 05 06 07  08 09 0A 0B 0C 0D 0E 0F
      -- -- -- -- -- -- -- --  -- -- -- -- -- -- -- --
0040:          24 04 80 01 80  01 80 25 02 00 10 01 80     $......%.....
0050: 00 5D 00 29 09 F0 FF FF  7F 04 01 C9 00 02 00 10  .].)............
0060: 02 80 00 6F 00 29 09 F0  FF FF 7F 05 01 C9 00 02  ...o.)..........
0070: 00 10 03 80 00 81 00 29  09 F0 FF FF 7F 06 01 C9  .......)........
0080: 00 02 00 10 05 80 00 93  00 29 09 F0 FF FF 7F 07  .........)......
0090: 01 C9 00 02 00 10 06 80  00 A5 00 29 09 F0 FF FF  ...........)....
00A0: 7F 08 01 C9 00 02 00 10  07 80 00 B7 00 29 09 F0  .............)..
00B0: FF FF 7F 09 01 C9 00 02  00 10 08 80 00 C9 00 29  ...............)
00C0: 09 F0 FF FF 7F 0B 01 C9  00 20 00 21 00           ......... .!.   
```

#### Opcodes

```
  0: 0x0043 [0x24] CREATE_DIALOG(message_id=7435*, default_option=0*, option_flags=0*)
    → "G1V$3$1[$3vHL6a[H [$3E$3B$3$3_$3X$P11O/$6$27$2$P16@$3/$12VL$o{P/$12VL$o{Q/%F%./$3M$3f$3A$3X$P11O/$P10/$~i [u]"
  1: 0x004A [0x25] WAIT_DIALOG_SELECT()
  2: 0x004B [0x02] IF !(Work_Zone[0] == 0*) GOTO 0x005D
  3: 0x0053 [0x29] REQ_SET_WAIT(priority=0x09, entity_id=LocalPlayer, tag_num=0x04)
  4: 0x005A [0x01] GOTO 0x00C9
  5: 0x005D [0x02] IF !(Work_Zone[0] == 1*) GOTO 0x006F
  6: 0x0065 [0x29] REQ_SET_WAIT(priority=0x09, entity_id=LocalPlayer, tag_num=0x05)
  7: 0x006C [0x01] GOTO 0x00C9
  8: 0x006F [0x02] IF !(Work_Zone[0] == 2*) GOTO 0x0081
  9: 0x0077 [0x29] REQ_SET_WAIT(priority=0x09, entity_id=LocalPlayer, tag_num=0x06)
 10: 0x007E [0x01] GOTO 0x00C9
 11: 0x0081 [0x02] IF !(Work_Zone[0] == 3*) GOTO 0x0093
 12: 0x0089 [0x29] REQ_SET_WAIT(priority=0x09, entity_id=LocalPlayer, tag_num=0x07)
 13: 0x0090 [0x01] GOTO 0x00C9
 14: 0x0093 [0x02] IF !(Work_Zone[0] == 4*) GOTO 0x00A5
 15: 0x009B [0x29] REQ_SET_WAIT(priority=0x09, entity_id=LocalPlayer, tag_num=0x08)
 16: 0x00A2 [0x01] GOTO 0x00C9
 17: 0x00A5 [0x02] IF !(Work_Zone[0] == 5*) GOTO 0x00B7
 18: 0x00AD [0x29] REQ_SET_WAIT(priority=0x09, entity_id=LocalPlayer, tag_num=0x09)
 19: 0x00B4 [0x01] GOTO 0x00C9
 20: 0x00B7 [0x02] IF !(Work_Zone[0] == 6*) GOTO 0x00C9
 21: 0x00BF [0x29] REQ_SET_WAIT(priority=0x09, entity_id=LocalPlayer, tag_num=0x0B)
 22: 0x00C6 [0x01] GOTO 0x00C9

SUBROUTINE_00C9:
 23: 0x00C9 [0x20] SET_CLI_EVENT_UC_FLAG: Unlock player control
 24: 0x00CB [0x21] END_EVENT
 25: 0x00CC [0x00] END_REQSTACK()
```

### Event 65535.2

#### Metadata

| Field        | Value    |
|--------------|----------|
| Entrypoint   | 0x00CD   |
| Data Size    | 51 bytes |
| Instructions | 12       |

```
      00 01 02 03 04 05 06 07  08 09 0A 0B 0C 0D 0E 0F
      -- -- -- -- -- -- -- --  -- -- -- -- -- -- -- --
00C0:                                         24 09 80               $..
00D0: 01 80 01 80 25 02 00 10  01 80 00 E5 00 03 01 10  ....%...........
00E0: 0A 80 01 FC 00 02 00 10  02 80 00 FC 00 29 09 F0  .............)..
00F0: FF FF 7F 0B 03 01 10 0B  80 01 FC 00 20 00 21 00  ............ .!.
```

#### Opcodes

```
  0: 0x00CD [0x24] CREATE_DIALOG(message_id=7437*, default_option=0*, option_flags=0*)
    → "$5112652$3G$3X$3g$3U[$3}$3XH [me001:C$P156$17L%p$P13G/hi001:$P162L F]"
  1: 0x00D4 [0x25] WAIT_DIALOG_SELECT()
  2: 0x00D5 [0x02] IF !(Work_Zone[0] == 0*) GOTO 0x00E5
  3: 0x00DD [0x03] Work_Zone[1] = 11*
  4: 0x00E2 [0x01] GOTO 0x00FC
  5: 0x00E5 [0x02] IF !(Work_Zone[0] == 1*) GOTO 0x00FC
  6: 0x00ED [0x29] REQ_SET_WAIT(priority=0x09, entity_id=LocalPlayer, tag_num=0x0B)
  7: 0x00F4 [0x03] Work_Zone[1] = 12*
  8: 0x00F9 [0x01] GOTO 0x00FC

SUBROUTINE_00FC:
  9: 0x00FC [0x20] SET_CLI_EVENT_UC_FLAG: Unlock player control
 10: 0x00FE [0x21] END_EVENT
 11: 0x00FF [0x00] END_REQSTACK()
```

### Event 65535.3

#### Metadata

| Field        | Value    |
|--------------|----------|
| Entrypoint   | 0x0100   |
| Data Size    | 28 bytes |
| Instructions | 8        |

```
      00 01 02 03 04 05 06 07  08 09 0A 0B 0C 0D 0E 0F
      -- -- -- -- -- -- -- --  -- -- -- -- -- -- -- --
0100: 24 09 80 01 80 01 80 25  02 00 10 01 80 00 18 01  $......%........
0110: 03 01 10 0C 80 01 18 01  20 00 21 00              ........ .!.    
```

#### Opcodes

```
  0: 0x0100 [0x24] CREATE_DIALOG(message_id=7437*, default_option=0*, option_flags=0*)
    → "$5112652$3G$3X$3g$3U[$3}$3XH [me001:C$P156$17L%p$P13G/hi001:$P162L F]"
  1: 0x0107 [0x25] WAIT_DIALOG_SELECT()
  2: 0x0108 [0x02] IF !(Work_Zone[0] == 0*) GOTO 0x0118
  3: 0x0110 [0x03] Work_Zone[1] = 300*
  4: 0x0115 [0x01] GOTO 0x0118

SUBROUTINE_0118:
  5: 0x0118 [0x20] SET_CLI_EVENT_UC_FLAG: Unlock player control
  6: 0x011A [0x21] END_EVENT
  7: 0x011B [0x00] END_REQSTACK()
```
