# 17248871 - 2

## Common Data

| Field            | Value                       |
|------------------|-----------------------------|
| Zone             | West Sarutabaruta (ID: 115) |
| Block Size       | 288 bytes                   |
| Total Events     | 11                          |
| References Count | 12                          |

## List of Events

| Event ID                 | Entrypoint   |   Size |   Instructions |
|--------------------------|--------------|--------|----------------|
| [65535](#event-65535)    | 0x0000       |      1 |              1 |
| [65535.1](#event-655351) | 0x0001       |     15 |              4 |
| [65535.2](#event-655352) | 0x0010       |     52 |              8 |
| [65535.3](#event-655353) | 0x0044       |     25 |              3 |
| [65535.4](#event-655354) | 0x005D       |     10 |              2 |
| [65535.5](#event-655355) | 0x0067       |     10 |              2 |
| [65535.6](#event-655356) | 0x0071       |     13 |              3 |
| [65535.7](#event-655357) | 0x007E       |     13 |              3 |
| [63](#event-63)          | 0x008B       |      1 |              1 |
| [65535.8](#event-655358) | 0x008C       |     19 |              3 |
| [65535.9](#event-655359) | 0x009F       |     19 |              3 |

## DAT References (imed_data)

|   Index | Hex Value   |   Dec Value |
|---------|-------------|-------------|
|       0 | 0xFFFFFF2E  |  4294967086 |
|       1 | 0xFFFFFB64  |  4294966116 |
|       2 | 0x0012      |          18 |
|       3 | 0x0006      |           6 |
|       4 | 0x0000      |           0 |
|       5 | 0x00C9      |         201 |
|       6 | 0x0028      |          40 |
|       7 | 0x003C      |          60 |
|       8 | 0x0078      |         120 |
|       9 | 0x0AC8      |        2760 |
|      10 | 0x000F      |          15 |
|      11 | 0x0030      |          48 |

## Events

### Event 65535

#### Metadata

| Field        | Value   |
|--------------|---------|
| Entrypoint   | 0x0000  |
| Data Size    | 1 bytes |
| Instructions | 1       |

```
      00 01 02 03 04 05 06 07  08 09 0A 0B 0C 0D 0E 0F
      -- -- -- -- -- -- -- --  -- -- -- -- -- -- -- --
0000: 00                                                .               
```

#### Opcodes

```
  0: 0x0000 [0x00] END_REQSTACK()
```

### Event 65535.1

#### Metadata

| Field        | Value    |
|--------------|----------|
| Entrypoint   | 0x0001   |
| Data Size    | 15 bytes |
| Instructions | 4        |

```
      00 01 02 03 04 05 06 07  08 09 0A 0B 0C 0D 0E 0F
      -- -- -- -- -- -- -- --  -- -- -- -- -- -- -- --
0000:    22 00 92 01 F8 FF FF  7F 94 01 F8 FF FF 7F 00   "..............
```

#### Opcodes

```
  0: 0x0001 [0x22] ENTITY_HIDE_FLAG(enabled=0x00)
  1: 0x0003 [0x92] EventEntity->Render.Flags3 ^= 0x01
  2: 0x0009 [0x94] EventEntity->Render.Flags3 ^= 0x01
  3: 0x000F [0x00] END_REQSTACK()
```

### Event 65535.2

#### Metadata

| Field        | Value    |
|--------------|----------|
| Entrypoint   | 0x0010   |
| Data Size    | 52 bytes |
| Instructions | 8        |

```
      00 01 02 03 04 05 06 07  08 09 0A 0B 0C 0D 0E 0F
      -- -- -- -- -- -- -- --  -- -- -- -- -- -- -- --
0010: 3B 64 32 07 01 00 00 01  00 02 00 3A 64 32 07 01  ;d2........:d2..
0020: 03 00 07 00 00 00 80 07  02 00 01 80 07 01 00 02  ................
0030: 80 BA F8 FF FF 7F 00 00  01 00 02 00 03 00 80 F8  ................
0040: FF FF 7F 00                                       ....            
```

#### Opcodes

```
  0: 0x0010 [0x3B] GET_ENTITY_POSITION(entity=Moogle (ID: 17248868/0x01073264), x_destination=ExtData[1]->WorkLocal[0], y_destination=ExtData[1]->WorkLocal[1], z_destination=ExtData[1]->WorkLocal[2])
  1: 0x001B [0x3A] CONVERT_YAW_TO_BYTE(entity=Moogle (ID: 17248868/0x01073264), result_destination=ExtData[1]->WorkLocal[3])
  2: 0x0022 [0x07] ExtData[1]->WorkLocal[0] += 4294967086*
  3: 0x0027 [0x07] ExtData[1]->WorkLocal[2] += 4294966116*
  4: 0x002C [0x07] ExtData[1]->WorkLocal[1] += 18*
  5: 0x0031 [0xBA] SET_ENTITY_POSITION(entity_id=EventEntity, pos_x=ExtData[1]->WorkLocal[0], pos_z=ExtData[1]->WorkLocal[1], pos_y=ExtData[1]->WorkLocal[2], direction=ExtData[1]->WorkLocal[3])
  6: 0x003E [0x80] LOAD_WAIT(entity=EventEntity)
  7: 0x0043 [0x00] END_REQSTACK()
```

### Event 65535.3

#### Metadata

| Field        | Value    |
|--------------|----------|
| Entrypoint   | 0x0044   |
| Data Size    | 25 bytes |
| Instructions | 3        |

```
      00 01 02 03 04 05 06 07  08 09 0A 0B 0C 0D 0E 0F
      -- -- -- -- -- -- -- --  -- -- -- -- -- -- -- --
0040:             B6 0B 03 80  03 80 04 80 05 80 05 80      ............
0050: 05 80 05 80 04 80 04 80  B6 0F 06 80 00           .............   
```

#### Opcodes

```
  0: 0x0044 [0xB6] ENTITY_APPEARANCE_HANDLER(case=Full entity look, race=6*, hair=6*, head=0*, body=201*, hands=201*, legs=201*, feet=201*, main=0*, sub=0*)
  1: 0x0058 [0xB6] ENTITY_APPEARANCE_HANDLER(case=Model size, value=40*)
  2: 0x005C [0x00] END_REQSTACK()
```

### Event 65535.4

#### Metadata

| Field        | Value    |
|--------------|----------|
| Entrypoint   | 0x005D   |
| Data Size    | 10 bytes |
| Instructions | 2        |

```
      00 01 02 03 04 05 06 07  08 09 0A 0B 0C 0D 0E 0F
      -- -- -- -- -- -- -- --  -- -- -- -- -- -- -- --
0050:                                         6C F8 FF               l..
0060: FF 7F 04 80 04 80 00                              .......         
```

#### Opcodes

```
  0: 0x005D [0x6C] FADE_ENTITY_COLOR(entity_id=EventEntity, end_alpha=0*, fade_time=0*)
  1: 0x0066 [0x00] END_REQSTACK()
```

### Event 65535.5

#### Metadata

| Field        | Value    |
|--------------|----------|
| Entrypoint   | 0x0067   |
| Data Size    | 10 bytes |
| Instructions | 2        |

```
      00 01 02 03 04 05 06 07  08 09 0A 0B 0C 0D 0E 0F
      -- -- -- -- -- -- -- --  -- -- -- -- -- -- -- --
0060:                      6C  F8 FF FF 7F 07 80 04 80         l........
0070: 00                                                .               
```

#### Opcodes

```
  0: 0x0067 [0x6C] FADE_ENTITY_COLOR(entity_id=EventEntity, end_alpha=60*, fade_time=0*)
  1: 0x0070 [0x00] END_REQSTACK()
```

### Event 65535.6

#### Metadata

| Field        | Value    |
|--------------|----------|
| Entrypoint   | 0x0071   |
| Data Size    | 13 bytes |
| Instructions | 3        |

```
      00 01 02 03 04 05 06 07  08 09 0A 0B 0C 0D 0E 0F
      -- -- -- -- -- -- -- --  -- -- -- -- -- -- -- --
0070:    6C F8 FF FF 7F 07 80  08 80 1C 08 80 00         l............  
```

#### Opcodes

```
  0: 0x0071 [0x6C] FADE_ENTITY_COLOR(entity_id=EventEntity, end_alpha=60*, fade_time=120*)
  1: 0x007A [0x1C] WAIT(120* ticks)
  2: 0x007D [0x00] END_REQSTACK()
```

### Event 65535.7

#### Metadata

| Field        | Value    |
|--------------|----------|
| Entrypoint   | 0x007E   |
| Data Size    | 13 bytes |
| Instructions | 3        |

```
      00 01 02 03 04 05 06 07  08 09 0A 0B 0C 0D 0E 0F
      -- -- -- -- -- -- -- --  -- -- -- -- -- -- -- --
0070:                                            6C F8                l.
0080: FF FF 7F 04 80 08 80 1C  08 80 00                 ...........     
```

#### Opcodes

```
  0: 0x007E [0x6C] FADE_ENTITY_COLOR(entity_id=EventEntity, end_alpha=0*, fade_time=120*)
  1: 0x0087 [0x1C] WAIT(120* ticks)
  2: 0x008A [0x00] END_REQSTACK()
```

### Event 63

#### Metadata

| Field        | Value   |
|--------------|---------|
| Entrypoint   | 0x008B  |
| Data Size    | 1 bytes |
| Instructions | 1       |

```
      00 01 02 03 04 05 06 07  08 09 0A 0B 0C 0D 0E 0F
      -- -- -- -- -- -- -- --  -- -- -- -- -- -- -- --
0080:                                   00                         .    
```

#### Opcodes

```
  0: 0x008B [0x00] END_REQSTACK()
```

### Event 65535.8

#### Metadata

| Field        | Value    |
|--------------|----------|
| Entrypoint   | 0x008C   |
| Data Size    | 19 bytes |
| Instructions | 3        |

```
      00 01 02 03 04 05 06 07  08 09 0A 0B 0C 0D 0E 0F
      -- -- -- -- -- -- -- --  -- -- -- -- -- -- -- --
0080:                                      5B 09 80 F8              [...
0090: FF FF 7F F8 FF FF 7F 64  6F 6C 30 1C 0A 80 00     .......dol0.... 
```

#### Opcodes

```
  0: 0x008C [0x5B] LOAD_EXT_SCHEDULER: Load scheduler "dol0" with entities [EventEntity, EventEntity], work=2760*
  1: 0x009B [0x1C] WAIT(15* ticks)
  2: 0x009E [0x00] END_REQSTACK()
```

### Event 65535.9

#### Metadata

| Field        | Value    |
|--------------|----------|
| Entrypoint   | 0x009F   |
| Data Size    | 19 bytes |
| Instructions | 3        |

```
      00 01 02 03 04 05 06 07  08 09 0A 0B 0C 0D 0E 0F
      -- -- -- -- -- -- -- --  -- -- -- -- -- -- -- --
0090:                                               5B                 [
00A0: 09 80 F8 FF FF 7F F8 FF  FF 7F 74 6C 6B 30 1C 0B  ..........tlk0..
00B0: 80 00                                             ..              
```

#### Opcodes

```
  0: 0x009F [0x5B] LOAD_EXT_SCHEDULER: Load scheduler "tlk0" with entities [EventEntity, EventEntity], work=2760*
  1: 0x00AE [0x1C] WAIT(48* ticks)
  2: 0x00B1 [0x00] END_REQSTACK()
```
