# 17248932 - Pyo Nzon

## Common Data

| Field            | Value                       |
|------------------|-----------------------------|
| Zone             | West Sarutabaruta (ID: 115) |
| Block Size       | 380 bytes                   |
| Total Events     | 10                          |
| References Count | 31                          |

## List of Events

| Event ID                 | Entrypoint   |   Size |   Instructions |
|--------------------------|--------------|--------|----------------|
| [65535](#event-65535)    | 0x0000       |      1 |              1 |
| [919](#event-919)        | 0x0001       |      7 |              2 |
| [920](#event-920)        | 0x0008       |      7 |              2 |
| [65535.1](#event-655351) | 0x000F       |     24 |              8 |
| [65535.2](#event-655352) | 0x0027       |     24 |              8 |
| [65535.3](#event-655353) | 0x003F       |     24 |              8 |
| [65535.4](#event-655354) | 0x0057       |     26 |              8 |
| [65535.5](#event-655355) | 0x0071       |     14 |              4 |
| [65535.6](#event-655356) | 0x007F       |     39 |              9 |
| [65535.7](#event-655357) | 0x00A6       |     34 |              8 |

## DAT References (imed_data)

|   Index | Hex Value   |   Dec Value |
|---------|-------------|-------------|
|       0 | 0x0015      |          21 |
|       1 | 0x3F773     |      259955 |
|       2 | 0xFFFFF793  |  4294965139 |
|       3 | 0xFFFFEB7A  |  4294962042 |
|       4 | 0x000A      |          10 |
|       5 | 0x3E5A9     |      255401 |
|       6 | 0xFFFFFEE2  |  4294967010 |
|       7 | 0xFFFFECBD  |  4294962365 |
|       8 | 0x3E2AD     |      254637 |
|       9 | 0x03B6      |         950 |
|      10 | 0xFFFFED1B  |  4294962459 |
|      11 | 0x3AEA1     |      241313 |
|      12 | 0x2176      |        8566 |
|      13 | 0xFFFFEFAB  |  4294963115 |
|      14 | 0x0D1B      |        3355 |
|      15 | 0x40F28     |      266024 |
|      16 | 0xFFFFEA8B  |  4294961803 |
|      17 | 0xFFFFEBD6  |  4294962134 |
|      18 | 0x3B149     |      241993 |
|      19 | 0x1679      |        5753 |
|      20 | 0xFFFFF029  |  4294963241 |
|      21 | 0x0051      |          81 |
|      22 | 0x3B466     |      242790 |
|      23 | 0x12DF      |        4831 |
|      24 | 0xFFFFF046  |  4294963270 |
|      25 | 0x3B857     |      243799 |
|      26 | 0x0DA5      |        3493 |
|      27 | 0xFFFFF060  |  4294963296 |
|      28 | 0x40AC0     |      264896 |
|      29 | 0xFFFFF220  |  4294963744 |
|      30 | 0xFFFFECD7  |  4294962391 |

## Events

### Event 65535

#### Metadata

| Field        | Value   |
|--------------|---------|
| Entrypoint   | 0x0000  |
| Data Size    | 1 bytes |
| Instructions | 1       |

```
      00 01 02 03 04 05 06 07  08 09 0A 0B 0C 0D 0E 0F
      -- -- -- -- -- -- -- --  -- -- -- -- -- -- -- --
0000: 00                                                .               
```

#### Opcodes

```
  0: 0x0000 [0x00] END_REQSTACK()
```

### Event 919

#### Metadata

| Field        | Value   |
|--------------|---------|
| Entrypoint   | 0x0001  |
| Data Size    | 7 bytes |
| Instructions | 2       |

```
      00 01 02 03 04 05 06 07  08 09 0A 0B 0C 0D 0E 0F
      -- -- -- -- -- -- -- --  -- -- -- -- -- -- -- --
0000:    92 01 F8 FF FF 7F 00                            .......        
```

#### Opcodes

```
  0: 0x0001 [0x92] EventEntity->Render.Flags3 ^= 0x01
  1: 0x0007 [0x00] END_REQSTACK()
```

### Event 920

#### Metadata

| Field        | Value   |
|--------------|---------|
| Entrypoint   | 0x0008  |
| Data Size    | 7 bytes |
| Instructions | 2       |

```
      00 01 02 03 04 05 06 07  08 09 0A 0B 0C 0D 0E 0F
      -- -- -- -- -- -- -- --  -- -- -- -- -- -- -- --
0000:                          92 01 F8 FF FF 7F 00             ....... 
```

#### Opcodes

```
  0: 0x0008 [0x92] EventEntity->Render.Flags3 ^= 0x01
  1: 0x000E [0x00] END_REQSTACK()
```

### Event 65535.1

#### Metadata

| Field        | Value    |
|--------------|----------|
| Entrypoint   | 0x000F   |
| Data Size    | 24 bytes |
| Instructions | 8        |

```
      00 01 02 03 04 05 06 07  08 09 0A 0B 0C 0D 0E 0F
      -- -- -- -- -- -- -- --  -- -- -- -- -- -- -- --
0000:                                               32                 2
0010: 00 80 1F 00 01 80 02 80  03 80 1F 01 1C 04 80 1E  ................
0020: F0 FF FF 7F 6F 70 00                              ....op.         
```

#### Opcodes

```
  0: 0x000F [0x32] ExtData[1]->MainSpeed = 21* * 0.1
  1: 0x0012 [0x1F] MOVE_ENTITY: EventEntity moves to X=259.955*, Z=-2.157*, Y=-5.254*
  2: 0x001A [0x1F] MOVE_ENTITY: Update entity position (mode=1)
  3: 0x001C [0x1C] WAIT(10* ticks)
  4: 0x001F [0x1E] EventEntity looks at LocalPlayer and starts talking
  5: 0x0024 [0x6F] WAIT_FRAME_DELAY: Yield until WaitTime reaches zero
  6: 0x0025 [0x70] WAIT_ENTITY_RENDER_FLAG: Wait while EventEntity->Render.Flags3 bit 2 is set (cancel turn if not)
  7: 0x0026 [0x00] END_REQSTACK()
```

### Event 65535.2

#### Metadata

| Field        | Value    |
|--------------|----------|
| Entrypoint   | 0x0027   |
| Data Size    | 24 bytes |
| Instructions | 8        |

```
      00 01 02 03 04 05 06 07  08 09 0A 0B 0C 0D 0E 0F
      -- -- -- -- -- -- -- --  -- -- -- -- -- -- -- --
0020:                      32  00 80 1F 00 05 80 06 80         2........
0030: 07 80 1F 01 1C 04 80 1E  A5 32 07 01 6F 70 00     .........2..op. 
```

#### Opcodes

```
  0: 0x0027 [0x32] ExtData[1]->MainSpeed = 21* * 0.1
  1: 0x002A [0x1F] MOVE_ENTITY: EventEntity moves to X=255.401*, Z=-0.286*, Y=-4.931*
  2: 0x0032 [0x1F] MOVE_ENTITY: Update entity position (mode=1)
  3: 0x0034 [0x1C] WAIT(10* ticks)
  4: 0x0037 [0x1E] EventEntity looks at Honoi-Gomoi (ID: 17248933/0x010732A5) and starts talking
  5: 0x003C [0x6F] WAIT_FRAME_DELAY: Yield until WaitTime reaches zero
  6: 0x003D [0x70] WAIT_ENTITY_RENDER_FLAG: Wait while EventEntity->Render.Flags3 bit 2 is set (cancel turn if not)
  7: 0x003E [0x00] END_REQSTACK()
```

### Event 65535.3

#### Metadata

| Field        | Value    |
|--------------|----------|
| Entrypoint   | 0x003F   |
| Data Size    | 24 bytes |
| Instructions | 8        |

```
      00 01 02 03 04 05 06 07  08 09 0A 0B 0C 0D 0E 0F
      -- -- -- -- -- -- -- --  -- -- -- -- -- -- -- --
0030:                                               32                 2
0040: 00 80 1F 00 08 80 09 80  0A 80 1F 01 1C 04 80 1E  ................
0050: A5 32 07 01 6F 70 00                              .2..op.         
```

#### Opcodes

```
  0: 0x003F [0x32] ExtData[1]->MainSpeed = 21* * 0.1
  1: 0x0042 [0x1F] MOVE_ENTITY: EventEntity moves to X=254.637*, Z=0.950*, Y=-4.837*
  2: 0x004A [0x1F] MOVE_ENTITY: Update entity position (mode=1)
  3: 0x004C [0x1C] WAIT(10* ticks)
  4: 0x004F [0x1E] EventEntity looks at Honoi-Gomoi (ID: 17248933/0x010732A5) and starts talking
  5: 0x0054 [0x6F] WAIT_FRAME_DELAY: Yield until WaitTime reaches zero
  6: 0x0055 [0x70] WAIT_ENTITY_RENDER_FLAG: Wait while EventEntity->Render.Flags3 bit 2 is set (cancel turn if not)
  7: 0x0056 [0x00] END_REQSTACK()
```

### Event 65535.4

#### Metadata

| Field        | Value    |
|--------------|----------|
| Entrypoint   | 0x0057   |
| Data Size    | 26 bytes |
| Instructions | 8        |

```
      00 01 02 03 04 05 06 07  08 09 0A 0B 0C 0D 0E 0F
      -- -- -- -- -- -- -- --  -- -- -- -- -- -- -- --
0050:                      32  00 80 1F 00 0B 80 0C 80         2........
0060: 0D 80 1F 01 1C 04 80 4B  F8 FF FF 7F 0E 80 6F 70  .......K......op
0070: 00                                                .               
```

#### Opcodes

```
  0: 0x0057 [0x32] ExtData[1]->MainSpeed = 21* * 0.1
  1: 0x005A [0x1F] MOVE_ENTITY: EventEntity moves to X=241.313*, Z=8.566*, Y=-4.181*
  2: 0x0062 [0x1F] MOVE_ENTITY: Update entity position (mode=1)
  3: 0x0064 [0x1C] WAIT(10* ticks)
  4: 0x0067 [0x4B] UPDATE_ENTITY_YAW(entity=EventEntity, yaw=18.4°*)
  5: 0x006E [0x6F] WAIT_FRAME_DELAY: Yield until WaitTime reaches zero
  6: 0x006F [0x70] WAIT_ENTITY_RENDER_FLAG: Wait while EventEntity->Render.Flags3 bit 2 is set (cancel turn if not)
  7: 0x0070 [0x00] END_REQSTACK()
```

### Event 65535.5

#### Metadata

| Field        | Value    |
|--------------|----------|
| Entrypoint   | 0x0071   |
| Data Size    | 14 bytes |
| Instructions | 4        |

```
      00 01 02 03 04 05 06 07  08 09 0A 0B 0C 0D 0E 0F
      -- -- -- -- -- -- -- --  -- -- -- -- -- -- -- --
0070:    32 00 80 1F 00 0F 80  10 80 11 80 1F 01 00      2............. 
```

#### Opcodes

```
  0: 0x0071 [0x32] ExtData[1]->MainSpeed = 21* * 0.1
  1: 0x0074 [0x1F] MOVE_ENTITY: EventEntity moves to X=266.024*, Z=-5.493*, Y=-5.162*
  2: 0x007C [0x1F] MOVE_ENTITY: Update entity position (mode=1)
  3: 0x007E [0x00] END_REQSTACK()
```

### Event 65535.6

#### Metadata

| Field        | Value    |
|--------------|----------|
| Entrypoint   | 0x007F   |
| Data Size    | 39 bytes |
| Instructions | 9        |

```
      00 01 02 03 04 05 06 07  08 09 0A 0B 0C 0D 0E 0F
      -- -- -- -- -- -- -- --  -- -- -- -- -- -- -- --
0070:                                               32                 2
0080: 00 80 1F 00 12 80 13 80  14 80 1F 01 1C 04 80 1E  ................
0090: A7 32 07 01 6F 70 5B 15  80 F8 FF FF 7F F8 FF FF  .2..op[.........
00A0: 7F 61 6E 67 30 00                                 .ang0.          
```

#### Opcodes

```
  0: 0x007F [0x32] ExtData[1]->MainSpeed = 21* * 0.1
  1: 0x0082 [0x1F] MOVE_ENTITY: EventEntity moves to X=241.993*, Z=5.753*, Y=-4.055*
  2: 0x008A [0x1F] MOVE_ENTITY: Update entity position (mode=1)
  3: 0x008C [0x1C] WAIT(10* ticks)
  4: 0x008F [0x1E] EventEntity looks at Chepelle (ID: 17248935/0x010732A7) and starts talking
  5: 0x0094 [0x6F] WAIT_FRAME_DELAY: Yield until WaitTime reaches zero
  6: 0x0095 [0x70] WAIT_ENTITY_RENDER_FLAG: Wait while EventEntity->Render.Flags3 bit 2 is set (cancel turn if not)
  7: 0x0096 [0x5B] LOAD_EXT_SCHEDULER: Load scheduler "ang0" with entities [EventEntity, EventEntity], work=81*
  8: 0x00A5 [0x00] END_REQSTACK()
```

### Event 65535.7

#### Metadata

| Field        | Value    |
|--------------|----------|
| Entrypoint   | 0x00A6   |
| Data Size    | 34 bytes |
| Instructions | 8        |

```
      00 01 02 03 04 05 06 07  08 09 0A 0B 0C 0D 0E 0F
      -- -- -- -- -- -- -- --  -- -- -- -- -- -- -- --
00A0:                   32 00  80 1F 00 16 80 17 80 18        2.........
00B0: 80 1F 01 1F 00 19 80 1A  80 1B 80 1F 01 1F 00 1C  ................
00C0: 80 1D 80 1E 80 1F 01 00                           ........        
```

#### Opcodes

```
  0: 0x00A6 [0x32] ExtData[1]->MainSpeed = 21* * 0.1
  1: 0x00A9 [0x1F] MOVE_ENTITY: EventEntity moves to X=242.790*, Z=4.831*, Y=-4.026*
  2: 0x00B1 [0x1F] MOVE_ENTITY: Update entity position (mode=1)
  3: 0x00B3 [0x1F] MOVE_ENTITY: EventEntity moves to X=243.799*, Z=3.493*, Y=-4.000*
  4: 0x00BB [0x1F] MOVE_ENTITY: Update entity position (mode=1)
  5: 0x00BD [0x1F] MOVE_ENTITY: EventEntity moves to X=264.896*, Z=-3.552*, Y=-4.905*
  6: 0x00C5 [0x1F] MOVE_ENTITY: Update entity position (mode=1)
  7: 0x00C7 [0x00] END_REQSTACK()
```
