# 0x7FFFFFF0 - Zone Events

## Common Data

| Field            | Value                       |
|------------------|-----------------------------|
| Zone             | West Sarutabaruta (ID: 115) |
| Block Size       | 1160 bytes                  |
| Total Events     | 27                          |
| References Count | 87                          |

## List of Events

| Event ID                   | Entrypoint   |   Size |   Instructions |
|----------------------------|--------------|--------|----------------|
| [65535](#event-65535)      | 0x0000       |      1 |              1 |
| [65534](#event-65534)      | 0x0001       |      1 |              1 |
| [1](#event-1)              | 0x0002       |      1 |              1 |
| [31](#event-31)            | 0x0003       |      1 |              1 |
| [65535.1](#event-655351)   | 0x0004       |     13 |              3 |
| [65535.2](#event-655352)   | 0x0011       |     13 |              3 |
| [65535.3](#event-655353)   | 0x001E       |     13 |              3 |
| [65535.4](#event-655354)   | 0x002B       |     13 |              3 |
| [65535.5](#event-655355)   | 0x0038       |     13 |              3 |
| [65535.6](#event-655356)   | 0x0045       |     13 |              3 |
| [65535.7](#event-655357)   | 0x0052       |     13 |              3 |
| [65535.8](#event-655358)   | 0x005F       |     13 |              3 |
| [65535.9](#event-655359)   | 0x006C       |     16 |              3 |
| [65535.10](#event-6553510) | 0x007C       |     41 |              5 |
| [65535.11](#event-6553511) | 0x00A5       |     11 |              4 |
| [62](#event-62)            | 0x00B0       |      1 |              1 |
| [65535.12](#event-6553512) | 0x00B1       |     14 |              4 |
| [63](#event-63)            | 0x00BF       |      1 |              1 |
| [65535.13](#event-6553513) | 0x00C0       |     14 |              4 |
| [65535.14](#event-6553514) | 0x00CE       |    353 |             41 |
| [65535.15](#event-6553515) | 0x022F       |     14 |              4 |
| [65535.16](#event-6553516) | 0x023D       |     33 |             11 |
| [65535.17](#event-6553517) | 0x025E       |     26 |              8 |
| [65535.18](#event-6553518) | 0x0278       |     34 |              8 |
| [65535.19](#event-6553519) | 0x029A       |      7 |              3 |
| [65535.20](#event-6553520) | 0x02A1       |      7 |              3 |
| [65535.21](#event-6553521) | 0x02A8       |      7 |              3 |

## DAT References (imed_data)

|   Index | Hex Value   |   Dec Value |
|---------|-------------|-------------|
|       0 | 0x25E3E     |      155198 |
|       1 | 0xFFFB1F49  |  4294647625 |
|       2 | 0xFFFFFFCD  |  4294967245 |
|       3 | 0x081D      |        2077 |
|       4 | 0x3E93D     |      256317 |
|       5 | 0x9E1E      |       40478 |
|       6 | 0xFFFFEA85  |  4294961797 |
|       7 | 0x0822      |        2082 |
|       8 | 0x4DF6D     |      319341 |
|       9 | 0xFFFF69B4  |  4294928820 |
|      10 | 0xFFFFF060  |  4294963296 |
|      11 | 0x0BAE      |        2990 |
|      12 | 0x79201     |      496129 |
|      13 | 0x21B34     |      138036 |
|      14 | 0xFFFFDA17  |  4294957591 |
|      15 | 0x0B46      |        2886 |
|      16 | 0xFFFFC627  |  4294952487 |
|      17 | 0x4FF23     |      327459 |
|      18 | 0xFFFFCE0F  |  4294954511 |
|      19 | 0x092A      |        2346 |
|      20 | 0xFFFA6459  |  4294599769 |
|      21 | 0x119C7     |       72135 |
|      22 | 0xFFFFAEAC  |  4294946476 |
|      23 | 0x0DBE      |        3518 |
|      24 | 0xFFFAD75D  |  4294629213 |
|      25 | 0xFFFA42F1  |  4294591217 |
|      26 | 0x0ABE      |        2750 |
|      27 | 0x0BDB      |        3035 |
|      28 | 0x25AEA     |      154346 |
|      29 | 0x517C2     |      333762 |
|      30 | 0xFFFF626D  |  4294926957 |
|      31 | 0x0FD8      |        4056 |
|      32 | 0x0173      |         371 |
|      33 | 0xFFFD79DC  |  4294801884 |
|      34 | 0xFFFFFFA7  |  4294967207 |
|      35 | 0x0A0C      |        2572 |
|      36 | 0x0093      |         147 |
|      37 | 0x0000      |           0 |
|      38 | 0x00F0      |         240 |
|      39 | 0x00C8      |         200 |
|      40 | 0x003C      |          60 |
|      41 | 0x000A      |          10 |
|      42 | 0x4E200     |      320000 |
|      43 | 0xFFFF9A70  |  4294941296 |
|      44 | 0xFFFFED20  |  4294962464 |
|      45 | 0x23A50     |      146000 |
|      46 | 0xFFFB1E00  |  4294647296 |
|      47 | 0xFFFFFCFD  |  4294966525 |
|      48 | 0x0001      |           1 |
|      49 | 0x0095      |         149 |
|      50 | 0x0078      |         120 |
|      51 | 0x0002      |           2 |
|      52 | 0x009F      |         159 |
|      53 | 0x0003      |           3 |
|      54 | 0x00A9      |         169 |
|      55 | 0x0004      |           4 |
|      56 | 0x00B3      |         179 |
|      57 | 0x0005      |           5 |
|      58 | 0x00BD      |         189 |
|      59 | 0x0006      |           6 |
|      60 | 0x0007      |           7 |
|      61 | 0x00C7      |         199 |
|      62 | 0x0008      |           8 |
|      63 | 0x00D1      |         209 |
|      64 | 0x000D      |          13 |
|      65 | 0x3EDEA     |      257514 |
|      66 | 0x0C35      |        3125 |
|      67 | 0xFFFFEC18  |  4294962200 |
|      68 | 0x08BF      |        2239 |
|      69 | 0x3E47F     |      255103 |
|      70 | 0x0FD9      |        4057 |
|      71 | 0xFFFFECE2  |  4294962402 |
|      72 | 0x0028      |          40 |
|      73 | 0x3A91A     |      239898 |
|      74 | 0x1C94      |        7316 |
|      75 | 0xFFFFEFF8  |  4294963192 |
|      76 | 0x0D1B      |        3355 |
|      77 | 0x3BC25     |      244773 |
|      78 | 0x1AAB      |        6827 |
|      79 | 0xFFFFEFD6  |  4294963158 |
|      80 | 0x3C9AA     |      248234 |
|      81 | 0x11C3      |        4547 |
|      82 | 0xFFFFEF1F  |  4294962975 |
|      83 | 0x40D22     |      265506 |
|      84 | 0xFFFFF3A4  |  4294964132 |
|      85 | 0xFFFFED2E  |  4294962478 |
|      86 | 0x002F      |          47 |

## Events

### Event 65535

#### Metadata

| Field        | Value   |
|--------------|---------|
| Entrypoint   | 0x0000  |
| Data Size    | 1 bytes |
| Instructions | 1       |

```
      00 01 02 03 04 05 06 07  08 09 0A 0B 0C 0D 0E 0F
      -- -- -- -- -- -- -- --  -- -- -- -- -- -- -- --
0000: 00                                                .               
```

#### Opcodes

```
  0: 0x0000 [0x00] END_REQSTACK()
```

### Event 65534

#### Metadata

| Field        | Value   |
|--------------|---------|
| Entrypoint   | 0x0001  |
| Data Size    | 1 bytes |
| Instructions | 1       |

```
      00 01 02 03 04 05 06 07  08 09 0A 0B 0C 0D 0E 0F
      -- -- -- -- -- -- -- --  -- -- -- -- -- -- -- --
0000:    00                                              .              
```

#### Opcodes

```
  0: 0x0001 [0x00] END_REQSTACK()
```

### Event 1

#### Metadata

| Field        | Value   |
|--------------|---------|
| Entrypoint   | 0x0002  |
| Data Size    | 1 bytes |
| Instructions | 1       |

```
      00 01 02 03 04 05 06 07  08 09 0A 0B 0C 0D 0E 0F
      -- -- -- -- -- -- -- --  -- -- -- -- -- -- -- --
0000:       00                                            .             
```

#### Opcodes

```
  0: 0x0002 [0x00] END_REQSTACK()
```

### Event 31

#### Metadata

| Field        | Value   |
|--------------|---------|
| Entrypoint   | 0x0003  |
| Data Size    | 1 bytes |
| Instructions | 1       |

```
      00 01 02 03 04 05 06 07  08 09 0A 0B 0C 0D 0E 0F
      -- -- -- -- -- -- -- --  -- -- -- -- -- -- -- --
0000:          00                                          .            
```

#### Opcodes

```
  0: 0x0003 [0x00] END_REQSTACK()
```

### Event 65535.1

#### Metadata

| Field        | Value    |
|--------------|----------|
| Entrypoint   | 0x0004   |
| Data Size    | 13 bytes |
| Instructions | 3        |

```
      00 01 02 03 04 05 06 07  08 09 0A 0B 0C 0D 0E 0F
      -- -- -- -- -- -- -- --  -- -- -- -- -- -- -- --
0000:             47 00 00 80  01 80 02 80 03 80 47 01      G.........G.
0010: 00                                                .               
```

#### Opcodes

```
  0: 0x0004 [0x47] UPDATE_PLAYER_POS(155.198*, -319.671*, -0.051*, yaw=182.5°*)
  1: 0x000E [0x47] WAIT_PLAYER_POS_UPDATE
  2: 0x0010 [0x00] END_REQSTACK()
```

### Event 65535.2

#### Metadata

| Field        | Value    |
|--------------|----------|
| Entrypoint   | 0x0011   |
| Data Size    | 13 bytes |
| Instructions | 3        |

```
      00 01 02 03 04 05 06 07  08 09 0A 0B 0C 0D 0E 0F
      -- -- -- -- -- -- -- --  -- -- -- -- -- -- -- --
0010:    47 00 04 80 05 80 06  80 07 80 47 01 00         G.........G..  
```

#### Opcodes

```
  0: 0x0011 [0x47] UPDATE_PLAYER_POS(256.317*, 40.478*, -5.499*, yaw=183.0°*)
  1: 0x001B [0x47] WAIT_PLAYER_POS_UPDATE
  2: 0x001D [0x00] END_REQSTACK()
```

### Event 65535.3

#### Metadata

| Field        | Value    |
|--------------|----------|
| Entrypoint   | 0x001E   |
| Data Size    | 13 bytes |
| Instructions | 3        |

```
      00 01 02 03 04 05 06 07  08 09 0A 0B 0C 0D 0E 0F
      -- -- -- -- -- -- -- --  -- -- -- -- -- -- -- --
0010:                                            47 00                G.
0020: 08 80 09 80 0A 80 0B 80  47 01 00                 ........G..     
```

#### Opcodes

```
  0: 0x001E [0x47] UPDATE_PLAYER_POS(319.341*, -38.476*, -4.000*, yaw=262.8°*)
  1: 0x0028 [0x47] WAIT_PLAYER_POS_UPDATE
  2: 0x002A [0x00] END_REQSTACK()
```

### Event 65535.4

#### Metadata

| Field        | Value    |
|--------------|----------|
| Entrypoint   | 0x002B   |
| Data Size    | 13 bytes |
| Instructions | 3        |

```
      00 01 02 03 04 05 06 07  08 09 0A 0B 0C 0D 0E 0F
      -- -- -- -- -- -- -- --  -- -- -- -- -- -- -- --
0020:                                   47 00 0C 80 0D             G....
0030: 80 0E 80 0F 80 47 01 00                           .....G..        
```

#### Opcodes

```
  0: 0x002B [0x47] UPDATE_PLAYER_POS(496.129*, 138.036*, -9.705*, yaw=253.6°*)
  1: 0x0035 [0x47] WAIT_PLAYER_POS_UPDATE
  2: 0x0037 [0x00] END_REQSTACK()
```

### Event 65535.5

#### Metadata

| Field        | Value    |
|--------------|----------|
| Entrypoint   | 0x0038   |
| Data Size    | 13 bytes |
| Instructions | 3        |

```
      00 01 02 03 04 05 06 07  08 09 0A 0B 0C 0D 0E 0F
      -- -- -- -- -- -- -- --  -- -- -- -- -- -- -- --
0030:                          47 00 10 80 11 80 12 80          G.......
0040: 13 80 47 01 00                                    ..G..           
```

#### Opcodes

```
  0: 0x0038 [0x47] UPDATE_PLAYER_POS(-14.809*, 327.459*, -12.785*, yaw=206.2°*)
  1: 0x0042 [0x47] WAIT_PLAYER_POS_UPDATE
  2: 0x0044 [0x00] END_REQSTACK()
```

### Event 65535.6

#### Metadata

| Field        | Value    |
|--------------|----------|
| Entrypoint   | 0x0045   |
| Data Size    | 13 bytes |
| Instructions | 3        |

```
      00 01 02 03 04 05 06 07  08 09 0A 0B 0C 0D 0E 0F
      -- -- -- -- -- -- -- --  -- -- -- -- -- -- -- --
0040:                47 00 14  80 15 80 16 80 17 80 47       G.........G
0050: 01 00                                             ..              
```

#### Opcodes

```
  0: 0x0045 [0x47] UPDATE_PLAYER_POS(-367.527*, 72.135*, -20.820*, yaw=309.2°*)
  1: 0x004F [0x47] WAIT_PLAYER_POS_UPDATE
  2: 0x0051 [0x00] END_REQSTACK()
```

### Event 65535.7

#### Metadata

| Field        | Value    |
|--------------|----------|
| Entrypoint   | 0x0052   |
| Data Size    | 13 bytes |
| Instructions | 3        |

```
      00 01 02 03 04 05 06 07  08 09 0A 0B 0C 0D 0E 0F
      -- -- -- -- -- -- -- --  -- -- -- -- -- -- -- --
0050:       47 00 18 80 19 80  1A 80 1B 80 47 01 00       G.........G.. 
```

#### Opcodes

```
  0: 0x0052 [0x47] UPDATE_PLAYER_POS(-338.083*, -376.079*, 2.750*, yaw=266.7°*)
  1: 0x005C [0x47] WAIT_PLAYER_POS_UPDATE
  2: 0x005E [0x00] END_REQSTACK()
```

### Event 65535.8

#### Metadata

| Field        | Value    |
|--------------|----------|
| Entrypoint   | 0x005F   |
| Data Size    | 13 bytes |
| Instructions | 3        |

```
      00 01 02 03 04 05 06 07  08 09 0A 0B 0C 0D 0E 0F
      -- -- -- -- -- -- -- --  -- -- -- -- -- -- -- --
0050:                                               47                 G
0060: 00 1C 80 1D 80 1E 80 1F  80 47 01 00              .........G..    
```

#### Opcodes

```
  0: 0x005F [0x47] UPDATE_PLAYER_POS(154.346*, 333.762*, -40.339*, yaw=356.5°*)
  1: 0x0069 [0x47] WAIT_PLAYER_POS_UPDATE
  2: 0x006B [0x00] END_REQSTACK()
```

### Event 65535.9

#### Metadata

| Field        | Value    |
|--------------|----------|
| Entrypoint   | 0x006C   |
| Data Size    | 16 bytes |
| Instructions | 3        |

```
      00 01 02 03 04 05 06 07  08 09 0A 0B 0C 0D 0E 0F
      -- -- -- -- -- -- -- --  -- -- -- -- -- -- -- --
0060:                                      92 01 F0 FF              ....
0070: FF 7F 37 20 80 21 80 22  80 23 80 00              ..7 .!.".#..    
```

#### Opcodes

```
  0: 0x006C [0x92] LocalPlayer->Render.Flags3 ^= 0x01
  1: 0x0072 [0x37] UPDATE_EVENT_POSITION_AND_DIR: x=0.371*, z=-165.412*, y=-0.089*, direction=226.0°*
  2: 0x007B [0x00] END_REQSTACK()
```

### Event 65535.10

#### Metadata

| Field        | Value    |
|--------------|----------|
| Entrypoint   | 0x007C   |
| Data Size    | 41 bytes |
| Instructions | 5        |

```
      00 01 02 03 04 05 06 07  08 09 0A 0B 0C 0D 0E 0F
      -- -- -- -- -- -- -- --  -- -- -- -- -- -- -- --
0070:                                      BB 24 80 F0              .$..
0080: FF FF 7F 58 32 07 01 6D  61 69 6E 25 80 1C 26 80  ...X2..main%..&.
0090: 45 27 80 F0 FF FF 7F F0  FF FF 7F 66 64 6F 31 25  E'.........fdo1%
00A0: 80 1C 28 80 00                                    ..(..           
```

#### Opcodes

```
  0: 0x007C [0xBB] LOAD_EVENT_SCHEDULER_ALT: Load scheduler "main" with entities [LocalPlayer, Cavernous Maw (ID: 17248856/0x01073258)], work=[147*, 0*]
  1: 0x008D [0x1C] WAIT(240* ticks)
  2: 0x0090 [0x45] LOAD_SCHEDULED_TASK: Load scheduler "fdo1" with entities [LocalPlayer, LocalPlayer], work=[200*, 0*]
  3: 0x00A1 [0x1C] WAIT(60* ticks)
  4: 0x00A4 [0x00] END_REQSTACK()
```

### Event 65535.11

#### Metadata

| Field        | Value    |
|--------------|----------|
| Entrypoint   | 0x00A5   |
| Data Size    | 11 bytes |
| Instructions | 4        |

```
      00 01 02 03 04 05 06 07  08 09 0A 0B 0C 0D 0E 0F
      -- -- -- -- -- -- -- --  -- -- -- -- -- -- -- --
00A0:                22 00 94  01 F8 FF FF 7F A4 01 00       "..........
```

#### Opcodes

```
  0: 0x00A5 [0x22] ENTITY_HIDE_FLAG(enabled=0x00)
  1: 0x00A7 [0x94] EventEntity->Render.Flags3 ^= 0x01
  2: 0x00AD [0xA4] EventEntity->Flags3.unknown_3_2 = 1
  3: 0x00AF [0x00] END_REQSTACK()
```

### Event 62

#### Metadata

| Field        | Value   |
|--------------|---------|
| Entrypoint   | 0x00B0  |
| Data Size    | 1 bytes |
| Instructions | 1       |

```
      00 01 02 03 04 05 06 07  08 09 0A 0B 0C 0D 0E 0F
      -- -- -- -- -- -- -- --  -- -- -- -- -- -- -- --
00B0: 00                                                .               
```

#### Opcodes

```
  0: 0x00B0 [0x00] END_REQSTACK()
```

### Event 65535.12

#### Metadata

| Field        | Value    |
|--------------|----------|
| Entrypoint   | 0x00B1   |
| Data Size    | 14 bytes |
| Instructions | 4        |

```
      00 01 02 03 04 05 06 07  08 09 0A 0B 0C 0D 0E 0F
      -- -- -- -- -- -- -- --  -- -- -- -- -- -- -- --
00B0:    32 29 80 1F 00 2A 80  2B 80 2C 80 1F 01 00      2)...*.+.,.... 
```

#### Opcodes

```
  0: 0x00B1 [0x32] ExtData[1]->MainSpeed = 10* * 0.1
  1: 0x00B4 [0x1F] MOVE_ENTITY: EventEntity moves to X=320.000*, Z=-26.000*, Y=-4.832*
  2: 0x00BC [0x1F] MOVE_ENTITY: Update entity position (mode=1)
  3: 0x00BE [0x00] END_REQSTACK()
```

### Event 63

#### Metadata

| Field        | Value   |
|--------------|---------|
| Entrypoint   | 0x00BF  |
| Data Size    | 1 bytes |
| Instructions | 1       |

```
      00 01 02 03 04 05 06 07  08 09 0A 0B 0C 0D 0E 0F
      -- -- -- -- -- -- -- --  -- -- -- -- -- -- -- --
00B0:                                               00                 .
```

#### Opcodes

```
  0: 0x00BF [0x00] END_REQSTACK()
```

### Event 65535.13

#### Metadata

| Field        | Value    |
|--------------|----------|
| Entrypoint   | 0x00C0   |
| Data Size    | 14 bytes |
| Instructions | 4        |

```
      00 01 02 03 04 05 06 07  08 09 0A 0B 0C 0D 0E 0F
      -- -- -- -- -- -- -- --  -- -- -- -- -- -- -- --
00C0: 32 29 80 1F 00 2D 80 2E  80 2F 80 1F 01 00        2)...-.../....  
```

#### Opcodes

```
  0: 0x00C0 [0x32] ExtData[1]->MainSpeed = 10* * 0.1
  1: 0x00C3 [0x1F] MOVE_ENTITY: EventEntity moves to X=146.000*, Z=-320.000*, Y=-0.771*
  2: 0x00CB [0x1F] MOVE_ENTITY: Update entity position (mode=1)
  3: 0x00CD [0x00] END_REQSTACK()
```

### Event 65535.14

#### Metadata

| Field        | Value     |
|--------------|-----------|
| Entrypoint   | 0x00CE    |
| Data Size    | 353 bytes |
| Instructions | 41        |

```
      00 01 02 03 04 05 06 07  08 09 0A 0B 0C 0D 0E 0F
      -- -- -- -- -- -- -- --  -- -- -- -- -- -- -- --
00C0:                                            02 07                ..
00D0: 7F 30 80 80 FA 00 66 31  80 F8 FF FF 7F F8 FF FF  .0....f1........
00E0: 7F 74 6C 6B 30 1C 32 80  66 31 80 F8 FF FF 7F F8  .tlk0.2.f1......
00F0: FF FF 7F 74 6C 6B 31 01  2E 02 02 07 7F 33 80 80  ...tlk1......3..
0100: 26 01 66 34 80 F8 FF FF  7F F8 FF FF 7F 74 6C 6B  &.f4.........tlk
0110: 30 1C 32 80 66 34 80 F8  FF FF 7F F8 FF FF 7F 74  0.2.f4.........t
0120: 6C 6B 31 01 2E 02 02 07  7F 35 80 80 52 01 66 36  lk1......5..R.f6
0130: 80 F8 FF FF 7F F8 FF FF  7F 74 6C 6B 30 1C 32 80  .........tlk0.2.
0140: 66 36 80 F8 FF FF 7F F8  FF FF 7F 74 6C 6B 31 01  f6.........tlk1.
0150: 2E 02 02 07 7F 37 80 80  7E 01 66 38 80 F8 FF FF  .....7..~.f8....
0160: 7F F8 FF FF 7F 74 6C 6B  30 1C 32 80 66 38 80 F8  .....tlk0.2.f8..
0170: FF FF 7F F8 FF FF 7F 74  6C 6B 31 01 2E 02 02 07  .......tlk1.....
0180: 7F 39 80 80 AA 01 66 3A  80 F8 FF FF 7F F8 FF FF  .9....f:........
0190: 7F 74 6C 6B 30 1C 32 80  66 3A 80 F8 FF FF 7F F8  .tlk0.2.f:......
01A0: FF FF 7F 74 6C 6B 31 01  2E 02 02 07 7F 3B 80 80  ...tlk1......;..
01B0: D6 01 66 3A 80 F8 FF FF  7F F8 FF FF 7F 74 6C 6B  ..f:.........tlk
01C0: 30 1C 32 80 66 3A 80 F8  FF FF 7F F8 FF FF 7F 74  0.2.f:.........t
01D0: 6C 6B 31 01 2E 02 02 07  7F 3C 80 80 02 02 66 3D  lk1......<....f=
01E0: 80 F8 FF FF 7F F8 FF FF  7F 74 6C 6B 30 1C 32 80  .........tlk0.2.
01F0: 66 3D 80 F8 FF FF 7F F8  FF FF 7F 74 6C 6B 31 01  f=.........tlk1.
0200: 2E 02 02 07 7F 3E 80 80  2E 02 66 3F 80 F8 FF FF  .....>....f?....
0210: 7F F8 FF FF 7F 74 6C 6B  30 1C 32 80 66 3F 80 F8  .....tlk0.2.f?..
0220: FF FF 7F F8 FF FF 7F 74  6C 6B 31 01 2E 02 00     .......tlk1.... 
```

#### Opcodes

```
  0: 0x00CE [0x02] IF !(Entity->Race == 1*) GOTO 0x00FA
  1: 0x00D6 [0x66] LOAD_EXT_SCHEDULER_MAIN: Load scheduler "tlk0" with entities [EventEntity, EventEntity], work=149*
  2: 0x00E5 [0x1C] WAIT(120* ticks)
  3: 0x00E8 [0x66] LOAD_EXT_SCHEDULER_MAIN: Load scheduler "tlk1" with entities [EventEntity, EventEntity], work=149*
  4: 0x00F7 [0x01] GOTO 0x022E
  5: 0x00FA [0x02] IF !(Entity->Race == 2*) GOTO 0x0126
  6: 0x0102 [0x66] LOAD_EXT_SCHEDULER_MAIN: Load scheduler "tlk0" with entities [EventEntity, EventEntity], work=159*
  7: 0x0111 [0x1C] WAIT(120* ticks)
  8: 0x0114 [0x66] LOAD_EXT_SCHEDULER_MAIN: Load scheduler "tlk1" with entities [EventEntity, EventEntity], work=159*
  9: 0x0123 [0x01] GOTO 0x022E
 10: 0x0126 [0x02] IF !(Entity->Race == 3*) GOTO 0x0152
 11: 0x012E [0x66] LOAD_EXT_SCHEDULER_MAIN: Load scheduler "tlk0" with entities [EventEntity, EventEntity], work=169*
 12: 0x013D [0x1C] WAIT(120* ticks)
 13: 0x0140 [0x66] LOAD_EXT_SCHEDULER_MAIN: Load scheduler "tlk1" with entities [EventEntity, EventEntity], work=169*
 14: 0x014F [0x01] GOTO 0x022E
 15: 0x0152 [0x02] IF !(Entity->Race == 4*) GOTO 0x017E
 16: 0x015A [0x66] LOAD_EXT_SCHEDULER_MAIN: Load scheduler "tlk0" with entities [EventEntity, EventEntity], work=179*
 17: 0x0169 [0x1C] WAIT(120* ticks)
 18: 0x016C [0x66] LOAD_EXT_SCHEDULER_MAIN: Load scheduler "tlk1" with entities [EventEntity, EventEntity], work=179*
 19: 0x017B [0x01] GOTO 0x022E
 20: 0x017E [0x02] IF !(Entity->Race == 5*) GOTO 0x01AA
 21: 0x0186 [0x66] LOAD_EXT_SCHEDULER_MAIN: Load scheduler "tlk0" with entities [EventEntity, EventEntity], work=189*
 22: 0x0195 [0x1C] WAIT(120* ticks)
 23: 0x0198 [0x66] LOAD_EXT_SCHEDULER_MAIN: Load scheduler "tlk1" with entities [EventEntity, EventEntity], work=189*
 24: 0x01A7 [0x01] GOTO 0x022E
 25: 0x01AA [0x02] IF !(Entity->Race == 6*) GOTO 0x01D6
 26: 0x01B2 [0x66] LOAD_EXT_SCHEDULER_MAIN: Load scheduler "tlk0" with entities [EventEntity, EventEntity], work=189*
 27: 0x01C1 [0x1C] WAIT(120* ticks)
 28: 0x01C4 [0x66] LOAD_EXT_SCHEDULER_MAIN: Load scheduler "tlk1" with entities [EventEntity, EventEntity], work=189*
 29: 0x01D3 [0x01] GOTO 0x022E
 30: 0x01D6 [0x02] IF !(Entity->Race == 7*) GOTO 0x0202
 31: 0x01DE [0x66] LOAD_EXT_SCHEDULER_MAIN: Load scheduler "tlk0" with entities [EventEntity, EventEntity], work=199*
 32: 0x01ED [0x1C] WAIT(120* ticks)
 33: 0x01F0 [0x66] LOAD_EXT_SCHEDULER_MAIN: Load scheduler "tlk1" with entities [EventEntity, EventEntity], work=199*
 34: 0x01FF [0x01] GOTO 0x022E
 35: 0x0202 [0x02] IF !(Entity->Race == 8*) GOTO 0x022E
 36: 0x020A [0x66] LOAD_EXT_SCHEDULER_MAIN: Load scheduler "tlk0" with entities [EventEntity, EventEntity], work=209*
 37: 0x0219 [0x1C] WAIT(120* ticks)
 38: 0x021C [0x66] LOAD_EXT_SCHEDULER_MAIN: Load scheduler "tlk1" with entities [EventEntity, EventEntity], work=209*
 39: 0x022B [0x01] GOTO 0x022E

SUBROUTINE_022E:
 40: 0x022E [0x00] END_REQSTACK()
```

### Event 65535.15

#### Metadata

| Field        | Value    |
|--------------|----------|
| Entrypoint   | 0x022F   |
| Data Size    | 14 bytes |
| Instructions | 4        |

```
      00 01 02 03 04 05 06 07  08 09 0A 0B 0C 0D 0E 0F
      -- -- -- -- -- -- -- --  -- -- -- -- -- -- -- --
0220:                                               32                 2
0230: 40 80 1F 00 41 80 42 80  43 80 1F 01 00           @...A.B.C....   
```

#### Opcodes

```
  0: 0x022F [0x32] ExtData[1]->MainSpeed = 13* * 0.1
  1: 0x0232 [0x1F] MOVE_ENTITY: EventEntity moves to X=257.514*, Z=3.125*, Y=-5.096*
  2: 0x023A [0x1F] MOVE_ENTITY: Update entity position (mode=1)
  3: 0x023C [0x00] END_REQSTACK()
```

### Event 65535.16

#### Metadata

| Field        | Value    |
|--------------|----------|
| Entrypoint   | 0x023D   |
| Data Size    | 33 bytes |
| Instructions | 11       |

```
      00 01 02 03 04 05 06 07  08 09 0A 0B 0C 0D 0E 0F
      -- -- -- -- -- -- -- --  -- -- -- -- -- -- -- --
0230:                                         4B F8 FF               K..
0240: FF 7F 44 80 6F 70 32 40  80 1F 00 45 80 46 80 47  ..D.op2@...E.F.G
0250: 80 1F 01 1C 29 80 1E A5  32 07 01 6F 70 00        ....)...2..op.  
```

#### Opcodes

```
  0: 0x023D [0x4B] UPDATE_ENTITY_YAW(entity=EventEntity, yaw=12.3°*)
  1: 0x0244 [0x6F] WAIT_FRAME_DELAY: Yield until WaitTime reaches zero
  2: 0x0245 [0x70] WAIT_ENTITY_RENDER_FLAG: Wait while EventEntity->Render.Flags3 bit 2 is set (cancel turn if not)
  3: 0x0246 [0x32] ExtData[1]->MainSpeed = 13* * 0.1
  4: 0x0249 [0x1F] MOVE_ENTITY: EventEntity moves to X=255.103*, Z=4.057*, Y=-4.894*
  5: 0x0251 [0x1F] MOVE_ENTITY: Update entity position (mode=1)
  6: 0x0253 [0x1C] WAIT(10* ticks)
  7: 0x0256 [0x1E] EventEntity looks at Honoi-Gomoi (ID: 17248933/0x010732A5) and starts talking
  8: 0x025B [0x6F] WAIT_FRAME_DELAY: Yield until WaitTime reaches zero
  9: 0x025C [0x70] WAIT_ENTITY_RENDER_FLAG: Wait while EventEntity->Render.Flags3 bit 2 is set (cancel turn if not)
 10: 0x025D [0x00] END_REQSTACK()
```

### Event 65535.17

#### Metadata

| Field        | Value    |
|--------------|----------|
| Entrypoint   | 0x025E   |
| Data Size    | 26 bytes |
| Instructions | 8        |

```
      00 01 02 03 04 05 06 07  08 09 0A 0B 0C 0D 0E 0F
      -- -- -- -- -- -- -- --  -- -- -- -- -- -- -- --
0250:                                            32 48                2H
0260: 80 1F 00 49 80 4A 80 4B  80 1F 01 1C 29 80 4B F8  ...I.J.K....).K.
0270: FF FF 7F 4C 80 6F 70 00                           ...L.op.        
```

#### Opcodes

```
  0: 0x025E [0x32] ExtData[1]->MainSpeed = 40* * 0.1
  1: 0x0261 [0x1F] MOVE_ENTITY: EventEntity moves to X=239.898*, Z=7.316*, Y=-4.104*
  2: 0x0269 [0x1F] MOVE_ENTITY: Update entity position (mode=1)
  3: 0x026B [0x1C] WAIT(10* ticks)
  4: 0x026E [0x4B] UPDATE_ENTITY_YAW(entity=EventEntity, yaw=18.4°*)
  5: 0x0275 [0x6F] WAIT_FRAME_DELAY: Yield until WaitTime reaches zero
  6: 0x0276 [0x70] WAIT_ENTITY_RENDER_FLAG: Wait while EventEntity->Render.Flags3 bit 2 is set (cancel turn if not)
  7: 0x0277 [0x00] END_REQSTACK()
```

### Event 65535.18

#### Metadata

| Field        | Value    |
|--------------|----------|
| Entrypoint   | 0x0278   |
| Data Size    | 34 bytes |
| Instructions | 8        |

```
      00 01 02 03 04 05 06 07  08 09 0A 0B 0C 0D 0E 0F
      -- -- -- -- -- -- -- --  -- -- -- -- -- -- -- --
0270:                          32 48 80 1F 00 4D 80 4E          2H...M.N
0280: 80 4F 80 1F 01 1F 00 50  80 51 80 52 80 1F 01 1F  .O.....P.Q.R....
0290: 00 53 80 54 80 55 80 1F  01 00                    .S.T.U....      
```

#### Opcodes

```
  0: 0x0278 [0x32] ExtData[1]->MainSpeed = 40* * 0.1
  1: 0x027B [0x1F] MOVE_ENTITY: EventEntity moves to X=244.773*, Z=6.827*, Y=-4.138*
  2: 0x0283 [0x1F] MOVE_ENTITY: Update entity position (mode=1)
  3: 0x0285 [0x1F] MOVE_ENTITY: EventEntity moves to X=248.234*, Z=4.547*, Y=-4.321*
  4: 0x028D [0x1F] MOVE_ENTITY: Update entity position (mode=1)
  5: 0x028F [0x1F] MOVE_ENTITY: EventEntity moves to X=265.506*, Z=-3.164*, Y=-4.818*
  6: 0x0297 [0x1F] MOVE_ENTITY: Update entity position (mode=1)
  7: 0x0299 [0x00] END_REQSTACK()
```

### Event 65535.19

#### Metadata

| Field        | Value   |
|--------------|---------|
| Entrypoint   | 0x029A  |
| Data Size    | 7 bytes |
| Instructions | 3       |

```
      00 01 02 03 04 05 06 07  08 09 0A 0B 0C 0D 0E 0F
      -- -- -- -- -- -- -- --  -- -- -- -- -- -- -- --
0290:                                AB 03 AC 01 56 80            ....V.
02A0: 00                                                .               
```

#### Opcodes

```
  0: 0x029A [0xAB] EventEntity->Render.Flags0 ^= 0x20000 // Toggle bit 17
  1: 0x029C [0xAC] EventEntity->StatusEvent = 47*
  2: 0x02A0 [0x00] END_REQSTACK()
```

### Event 65535.20

#### Metadata

| Field        | Value   |
|--------------|---------|
| Entrypoint   | 0x02A1  |
| Data Size    | 7 bytes |
| Instructions | 3       |

```
      00 01 02 03 04 05 06 07  08 09 0A 0B 0C 0D 0E 0F
      -- -- -- -- -- -- -- --  -- -- -- -- -- -- -- --
02A0:    AC 01 25 80 AB 04 00                            ..%....        
```

#### Opcodes

```
  0: 0x02A1 [0xAC] EventEntity->StatusEvent = 0*
  1: 0x02A5 [0xAB] EventEntity->Render.Flags0 |= 0x40000 // Set bit 18
  2: 0x02A7 [0x00] END_REQSTACK()
```

### Event 65535.21

#### Metadata

| Field        | Value   |
|--------------|---------|
| Entrypoint   | 0x02A8  |
| Data Size    | 7 bytes |
| Instructions | 3       |

```
      00 01 02 03 04 05 06 07  08 09 0A 0B 0C 0D 0E 0F
      -- -- -- -- -- -- -- --  -- -- -- -- -- -- -- --
02A0:                          AB 03 AC 01 30 80 00             ....0.. 
```

#### Opcodes

```
  0: 0x02A8 [0xAB] EventEntity->Render.Flags0 ^= 0x20000 // Toggle bit 17
  1: 0x02AA [0xAC] EventEntity->StatusEvent = 1*
  2: 0x02AE [0x00] END_REQSTACK()
```
