# Event 365

## Metadata

| Field           | Value    |
|-----------------|----------|
| Event Index     | 11/11    |
| Offset          | 0x0139   |
| Data Size       | 22 bytes |
| Calculated Size | 22 bytes |
| Instructions    | 9        |

```
      00 01 02 03 04 05 06 07  08 09 0A 0B 0C 0D 0E 0F
      -- -- -- -- -- -- -- --  -- -- -- -- -- -- -- --
0130:                             02 02 10 0E 80 00 42           ......B
0140: 01 42 1E F0 FF FF 7F 6F  70 1D 0F 80 23 21 00     .B.....op...#!. 
```

## Opcodes

```
  0: 0x0139 [0x02] IF !(Work_Zone[2] == 5*) GOTO 0x0142
  1: 0x0141 [0x42] SET_CLI_EVENT_CANCEL_DATA()
  2: 0x0142 [0x1E] EventEntity looks at LocalPlayer and starts talking
  3: 0x0147 [0x6F] WAIT_FRAME_DELAY: Yield until WaitTime reaches zero
  4: 0x0148 [0x70] WAIT_ENTITY_RENDER_FLAG: Wait while EventEntity->Render.Flags3 bit 2 is set (cancel turn if not)
  5: 0x0149 [0x1D] PRINT_EVENT_MESSAGE(message_id=7992*)
    → "Oh, friend... How can I ever rrrepay you?\u0007Thanks to your kindness, my daughter is back on her feet again.\u0007You have our eternal grrratitude...\u007F1\u0000\u0007"
  6: 0x014C [0x23] WAIT_FOR_DIALOG_INTERACTION
  7: 0x014D [0x21] END_EVENT
  8: 0x014E [0x00] END_REQSTACK()
```
