# Event 65535

## Metadata

| Field           | Value    |
|-----------------|----------|
| Event Index     | 10/11    |
| Offset          | 0x008B   |
| Data Size       | 70 bytes |
| Calculated Size | 70 bytes |
| Instructions    | 8        |

```
      00 01 02 03 04 05 06 07  08 09 0A 0B 0C 0D 0E 0F
      -- -- -- -- -- -- -- --  -- -- -- -- -- -- -- --
0080:                                   66 16 80 EB 92             f....
0090: 08 01 EB 92 08 01 67 61  74 30 1C 17 80 66 16 80  ......gat0...f..
00A0: EC 92 08 01 EC 92 08 01  67 61 74 30 1C 07 80 66  ........gat0...f
00B0: 16 80 EB 92 08 01 EB 92  08 01 67 61 74 31 1C 17  ..........gat1..
00C0: 80 66 16 80 EC 92 08 01  EC 92 08 01 67 61 74 31  .f..........gat1
00D0: 00                                                .               
```

## Opcodes

```
  0: 0x008B [0x66] LOAD_EXT_SCHEDULER_MAIN: Load scheduler "gat0" with entities [kisi02 (ID: 17339115/0x010892EB), kisi02 (ID: 17339115/0x010892EB)], work=136*
  1: 0x009A [0x1C] WAIT(10* ticks)
  2: 0x009D [0x66] LOAD_EXT_SCHEDULER_MAIN: Load scheduler "gat0" with entities [kisi03 (ID: 17339116/0x010892EC), kisi03 (ID: 17339116/0x010892EC)], work=136*
  3: 0x00AC [0x1C] WAIT(100* ticks)
  4: 0x00AF [0x66] LOAD_EXT_SCHEDULER_MAIN: Load scheduler "gat1" with entities [kisi02 (ID: 17339115/0x010892EB), kisi02 (ID: 17339115/0x010892EB)], work=136*
  5: 0x00BE [0x1C] WAIT(10* ticks)
  6: 0x00C1 [0x66] LOAD_EXT_SCHEDULER_MAIN: Load scheduler "gat1" with entities [kisi03 (ID: 17339116/0x010892EC), kisi03 (ID: 17339116/0x010892EC)], work=136*
  7: 0x00D0 [0x00] END_REQSTACK()
```
