# Event 148

## Metadata

| Field           | Value    |
|-----------------|----------|
| Event Index     | 10/17    |
| Offset          | 0x0098   |
| Data Size       | 33 bytes |
| Calculated Size | 33 bytes |
| Instructions    | 12       |

```
      00 01 02 03 04 05 06 07  08 09 0A 0B 0C 0D 0E 0F
      -- -- -- -- -- -- -- --  -- -- -- -- -- -- -- --
0090:                          1E F0 FF FF 7F 6F 70 29          .....op)
00A0: 08 2F 20 0F 01 01 1D 06  80 23 1D 07 80 23 29 08  ./ ......#...#).
00B0: 2F 20 0F 01 02 20 00 21  00                       / ... .!.       
```

## Opcodes

```
  0: 0x0098 [0x1E] EventEntity looks at LocalPlayer and starts talking
  1: 0x009D [0x6F] WAIT_FRAME_DELAY: Yield until WaitTime reaches zero
  2: 0x009E [0x70] WAIT_ENTITY_RENDER_FLAG: Wait while EventEntity->Render.Flags3 bit 2 is set (cancel turn if not)
  3: 0x009F [0x29] REQ_SET_WAIT(priority=0x08, entity_id=Utsuitsui (ID: 17768495/0x010F202F), tag_num=0x01)
  4: 0x00A6 [0x1D] PRINT_EVENT_MESSAGE(message_id=296*)
    → "Th-th-th-this is the Vestal Vestibule for the Star Sibyl's ladies-in-waiting. I-I-I guess you could call it the second floor of Heavens T-T-T-Tower. <Cower>\u007F1\u0000\u0007"
  5: 0x00A9 [0x23] WAIT_FOR_DIALOG_INTERACTION
  6: 0x00AA [0x1D] PRINT_EVENT_MESSAGE(message_id=297*)
    → "I-I-I see you made it back from the ruins in one piece. H-h-h-have you already reported to the head lady-in-waiting. <Fainting>\u007F1\u0000\u0007"
  7: 0x00AD [0x23] WAIT_FOR_DIALOG_INTERACTION
  8: 0x00AE [0x29] REQ_SET_WAIT(priority=0x08, entity_id=Utsuitsui (ID: 17768495/0x010F202F), tag_num=0x02)
  9: 0x00B5 [0x20] SET_CLI_EVENT_UC_FLAG: Unlock player control
 10: 0x00B7 [0x21] END_EVENT
 11: 0x00B8 [0x00] END_REQSTACK()
```
