# Event 65535

## Metadata

| Field           | Value    |
|-----------------|----------|
| Event Index     | 14/122   |
| Offset          | 0x00A8   |
| Data Size       | 59 bytes |
| Calculated Size | 59 bytes |
| Instructions    | 7        |

```
      00 01 02 03 04 05 06 07  08 09 0A 0B 0C 0D 0E 0F
      -- -- -- -- -- -- -- --  -- -- -- -- -- -- -- --
00A0:                          45 14 80 F8 FF FF 7F F8          E.......
00B0: FF FF 7F 77 61 74 30 15  80 55 14 80 F8 FF FF 7F  ...wat0..U......
00C0: F8 FF FF 7F 77 61 74 30  5B 16 80 0A 02 05 01 0A  ....wat0[.......
00D0: 02 05 01 62 69 6B 30 7B  0A 02 05 01 6F 76 0A 02  ...bik0{....ov..
00E0: 05 01 00                                          ...             
```

## Opcodes

```
  0: 0x00A8 [0x45] LOAD_SCHEDULED_TASK: Load scheduler "wat0" with entities [EventEntity, EventEntity], work=[356*, 0*]
  1: 0x00B9 [0x55] WAIT_LOAD_SCHEDULER: Wait for scheduler "wat0" with entities [EventEntity, EventEntity], work=356*
  2: 0x00C8 [0x5B] LOAD_EXT_SCHEDULER: Load scheduler "bik0" with entities [Excenmille (ID: 17105418/0x0105020A), Excenmille (ID: 17105418/0x0105020A)], work=1437*
  3: 0x00D7 [0x7B] Excenmille (ID: 17105418/0x0105020A) stops talking
  4: 0x00DC [0x6F] WAIT_FRAME_DELAY: Yield until WaitTime reaches zero
  5: 0x00DD [0x76] CHECK_ENTITY_RENDER_FLAGS: Wait until Excenmille (ID: 17105418/0x0105020A) Render.Flags0 and Render.Flags3 conditions are met
  6: 0x00E2 [0x00] END_REQSTACK()
```
