# Event 65535

## Metadata

| Field           | Value    |
|-----------------|----------|
| Event Index     | 57/104   |
| Offset          | 0x03DD   |
| Data Size       | 37 bytes |
| Calculated Size | 37 bytes |
| Instructions    | 9        |

```
      00 01 02 03 04 05 06 07  08 09 0A 0B 0C 0D 0E 0F
      -- -- -- -- -- -- -- --  -- -- -- -- -- -- -- --
03D0:                                         29 08 E2               )..
03E0: 00 0C 01 01 1D 4A 80 23  29 08 E2 00 0C 01 02 29  .....J.#)......)
03F0: 08 E2 00 0C 01 03 1D 4B  80 23 29 08 E2 00 0C 01  .......K.#).....
0400: 04 00                                             ..              
```

## Opcodes

```
  0: 0x03DD [0x29] REQ_SET_WAIT(priority=0x08, entity_id=Ajido-Marujido (ID: 17563874/0x010C00E2), tag_num=0x01)
  1: 0x03E4 [0x1D] PRINT_EVENT_MESSAGE(message_id=7266*)
    → "Yes, and what about her...?\u0007What was the reason she forbade the very magic I seek? If they could have controlled that magic properly, then we wouldn't have had to buddy-buddy with the beastmen in the first place!\u007F1\u0000\u0007"
  2: 0x03E7 [0x23] WAIT_FOR_DIALOG_INTERACTION
  3: 0x03E8 [0x29] REQ_SET_WAIT(priority=0x08, entity_id=Ajido-Marujido (ID: 17563874/0x010C00E2), tag_num=0x02)
  4: 0x03EF [0x29] REQ_SET_WAIT(priority=0x08, entity_id=Ajido-Marujido (ID: 17563874/0x010C00E2), tag_num=0x03)
  5: 0x03F6 [0x1D] PRINT_EVENT_MESSAGE(message_id=7267*)
    → "Sure, the spell-weaver died, but the magic itself was a great success...\u007F1\u0000\u0007"
  6: 0x03F9 [0x23] WAIT_FOR_DIALOG_INTERACTION
  7: 0x03FA [0x29] REQ_SET_WAIT(priority=0x08, entity_id=Ajido-Marujido (ID: 17563874/0x010C00E2), tag_num=0x04)
  8: 0x0401 [0x00] END_REQSTACK()
```
