# Event 65535

## Metadata

| Field           | Value    |
|-----------------|----------|
| Event Index     | 53/104   |
| Offset          | 0x0359   |
| Data Size       | 51 bytes |
| Calculated Size | 51 bytes |
| Instructions    | 11       |

```
      00 01 02 03 04 05 06 07  08 09 0A 0B 0C 0D 0E 0F
      -- -- -- -- -- -- -- --  -- -- -- -- -- -- -- --
0350:                             1F 00 3A 80 3B 80 22           ..:.;."
0360: 80 1F 01 1F 00 3C 80 3D  80 22 80 1F 01 1F 00 3E  .....<.=.".....>
0370: 80 3F 80 22 80 1F 01 1F  00 40 80 41 80 22 80 1F  .?.".....@.A."..
0380: 01 1F 00 42 80 43 80 22  80 1F 01 00              ...B.C."....    
```

## Opcodes

```
  0: 0x0359 [0x1F] MOVE_ENTITY: EventEntity moves to X=422.907*, Z=-65.334*, Y=0.800*
  1: 0x0361 [0x1F] MOVE_ENTITY: Update entity position (mode=1)
  2: 0x0363 [0x1F] MOVE_ENTITY: EventEntity moves to X=424.942*, Z=-63.085*, Y=0.800*
  3: 0x036B [0x1F] MOVE_ENTITY: Update entity position (mode=1)
  4: 0x036D [0x1F] MOVE_ENTITY: EventEntity moves to X=426.084*, Z=-60.053*, Y=0.800*
  5: 0x0375 [0x1F] MOVE_ENTITY: Update entity position (mode=1)
  6: 0x0377 [0x1F] MOVE_ENTITY: EventEntity moves to X=425.221*, Z=-56.934*, Y=0.800*
  7: 0x037F [0x1F] MOVE_ENTITY: Update entity position (mode=1)
  8: 0x0381 [0x1F] MOVE_ENTITY: EventEntity moves to X=421.716*, Z=-54.078*, Y=0.800*
  9: 0x0389 [0x1F] MOVE_ENTITY: Update entity position (mode=1)
 10: 0x038B [0x00] END_REQSTACK()
```
