# Event 67

## Metadata

| Field           | Value    |
|-----------------|----------|
| Event Index     | 40/104   |
| Offset          | 0x0247   |
| Data Size       | 64 bytes |
| Calculated Size | 64 bytes |
| Instructions    | 10       |

```
      00 01 02 03 04 05 06 07  08 09 0A 0B 0C 0D 0E 0F
      -- -- -- -- -- -- -- --  -- -- -- -- -- -- -- --
0240:                      37  07 80 08 80 09 80 0A 80         7........
0250: 32 0B 80 1F 00 0C 80 0D  80 09 80 1F 01 32 0E 80  2............2..
0260: 1F 00 0F 80 10 80 09 80  1F 01 5B 01 80 F8 FF FF  ..........[.....
0270: 7F F8 FF FF 7F 74 68 6B  31 53 F8 FF FF 7F F8 FF  .....thk1S......
0280: FF 7F 74 68 6B 31 00                              ..thk1.         
```

## Opcodes

```
  0: 0x0247 [0x37] UPDATE_EVENT_POSITION_AND_DIR: x=-261.448*, z=21.771*, y=0.000*, direction=230.4°*
  1: 0x0250 [0x32] ExtData[1]->MainSpeed = 40* * 0.1
  2: 0x0253 [0x1F] MOVE_ENTITY: EventEntity moves to X=-264.094*, Z=24.907*, Y=0.000*
  3: 0x025B [0x1F] MOVE_ENTITY: Update entity position (mode=1)
  4: 0x025D [0x32] ExtData[1]->MainSpeed = 13* * 0.1
  5: 0x0260 [0x1F] MOVE_ENTITY: EventEntity moves to X=-265.263*, Z=25.991*, Y=0.000*
  6: 0x0268 [0x1F] MOVE_ENTITY: Update entity position (mode=1)
  7: 0x026A [0x5B] LOAD_EXT_SCHEDULER(work_offset=337*, entity1=EventEntity, entity2=EventEntity, action="thk1")
  8: 0x0279 [0x53] WAIT_SCHEDULER_TASK(entity1=EventEntity, entity2=EventEntity, action_id="thk1")
  9: 0x0286 [0x00] END_REQSTACK()
```
