# Event 291

## Metadata

| Field           | Value    |
|-----------------|----------|
| Event Index     | 8/19     |
| Offset          | 0x0065   |
| Data Size       | 50 bytes |
| Calculated Size | 50 bytes |
| Instructions    | 13       |

```
      00 01 02 03 04 05 06 07  08 09 0A 0B 0C 0D 0E 0F
      -- -- -- -- -- -- -- --  -- -- -- -- -- -- -- --
0060:                1E F0 FF  FF 7F 6F 70 29 0B 5E 00       .....op).^.
0070: 0F 01 08 29 0B 5F 00 0F  01 06 4A 5E 00 0F 01 5F  ...)._....J^..._
0080: 00 0F 01 6F 76 5E 00 0F  01 1C 04 80 29 0B 5E 00  ...ov^......).^.
0090: 0F 01 09 20 00 21 00                              ... .!.         
```

## Opcodes

```
  0: 0x0065 [0x1E] EventEntity looks at LocalPlayer and starts talking
  1: 0x006A [0x6F] WAIT_FRAME_DELAY: Yield until WaitTime reaches zero
  2: 0x006B [0x70] WAIT_ENTITY_RENDER_FLAG: Wait while EventEntity->Render.Flags3 bit 2 is set (cancel turn if not)
  3: 0x006C [0x29] REQ_SET_WAIT(priority=0x0B, entity_id=Paytah (ID: 17760350/0x010F005E), tag_num=0x08)
  4: 0x0073 [0x29] REQ_SET_WAIT(priority=0x0B, entity_id=Odilia (ID: 17760351/0x010F005F), tag_num=0x06)
  5: 0x007A [0x4A] Paytah (ID: 17760350/0x010F005E) looks at Odilia (ID: 17760351/0x010F005F)
  6: 0x0083 [0x6F] WAIT_FRAME_DELAY: Yield until WaitTime reaches zero
  7: 0x0084 [0x76] CHECK_ENTITY_RENDER_FLAGS: Wait until Paytah (ID: 17760350/0x010F005E) Render.Flags0 and Render.Flags3 conditions are met
  8: 0x0089 [0x1C] WAIT(15* ticks)
  9: 0x008C [0x29] REQ_SET_WAIT(priority=0x0B, entity_id=Paytah (ID: 17760350/0x010F005E), tag_num=0x09)
 10: 0x0093 [0x20] SET_CLI_EVENT_UC_FLAG: Unlock player control
 11: 0x0095 [0x21] END_EVENT
 12: 0x0096 [0x00] END_REQSTACK()
```
