# Event 298

## Metadata

| Field           | Value    |
|-----------------|----------|
| Event Index     | 17/19    |
| Offset          | 0x01BC   |
| Data Size       | 68 bytes |
| Calculated Size | 68 bytes |
| Instructions    | 13       |

```
      00 01 02 03 04 05 06 07  08 09 0A 0B 0C 0D 0E 0F
      -- -- -- -- -- -- -- --  -- -- -- -- -- -- -- --
01B0:                                      1E F0 FF FF              ....
01C0: 7F 6F 70 4A 5F 00 0F 01  F0 FF FF 7F 29 0B 5E 00  .opJ_.......).^.
01D0: 0F 01 11 4A 5F 00 0F 01  5E 00 0F 01 4A 5E 00 0F  ...J_...^...J^..
01E0: 01 5F 00 0F 01 29 0B 5F  00 0F 01 0A 4A 5E 00 0F  ._...)._....J^..
01F0: 01 F0 FF FF 7F 29 0B 5E  00 0F 01 12 20 00 21 00  .....).^.... .!.
```

## Opcodes

```
  0: 0x01BC [0x1E] EventEntity looks at LocalPlayer and starts talking
  1: 0x01C1 [0x6F] WAIT_FRAME_DELAY: Yield until WaitTime reaches zero
  2: 0x01C2 [0x70] WAIT_ENTITY_RENDER_FLAG: Wait while EventEntity->Render.Flags3 bit 2 is set (cancel turn if not)
  3: 0x01C3 [0x4A] Odilia (ID: 17760351/0x010F005F) looks at LocalPlayer
  4: 0x01CC [0x29] REQ_SET_WAIT(priority=0x0B, entity_id=Paytah (ID: 17760350/0x010F005E), tag_num=0x11)
  5: 0x01D3 [0x4A] Odilia (ID: 17760351/0x010F005F) looks at Paytah (ID: 17760350/0x010F005E)
  6: 0x01DC [0x4A] Paytah (ID: 17760350/0x010F005E) looks at Odilia (ID: 17760351/0x010F005F)
  7: 0x01E5 [0x29] REQ_SET_WAIT(priority=0x0B, entity_id=Odilia (ID: 17760351/0x010F005F), tag_num=0x0A)
  8: 0x01EC [0x4A] Paytah (ID: 17760350/0x010F005E) looks at LocalPlayer
  9: 0x01F5 [0x29] REQ_SET_WAIT(priority=0x0B, entity_id=Paytah (ID: 17760350/0x010F005E), tag_num=0x12)
 10: 0x01FC [0x20] SET_CLI_EVENT_UC_FLAG: Unlock player control
 11: 0x01FE [0x21] END_EVENT
 12: 0x01FF [0x00] END_REQSTACK()
```
