# Event 65535

## Metadata

| Field           | Value    |
|-----------------|----------|
| Event Index     | 9/19     |
| Offset          | 0x0097   |
| Data Size       | 44 bytes |
| Calculated Size | 44 bytes |
| Instructions    | 10       |

```
      00 01 02 03 04 05 06 07  08 09 0A 0B 0C 0D 0E 0F
      -- -- -- -- -- -- -- --  -- -- -- -- -- -- -- --
0090:                      29  08 5E 00 0F 01 01 1D 05         ).^......
00A0: 80 23 29 08 5E 00 0F 01  05 29 08 5E 00 0F 01 02  .#).^....).^....
00B0: 1D 06 80 23 29 08 5E 00  0F 01 03 29 08 5E 00 0F  ...#).^....).^..
00C0: 01 04 00                                          ...             
```

## Opcodes

```
  0: 0x0097 [0x29] REQ_SET_WAIT(priority=0x08, entity_id=Paytah (ID: 17760350/0x010F005E), tag_num=0x01)
  1: 0x009E [0x1D] PRINT_EVENT_MESSAGE(message_id=3821*)
    → "I'm in big trouble! The wind blew my daddy's hat into the sea.\u007F1\u0000\u0007"
  2: 0x00A1 [0x23] WAIT_FOR_DIALOG_INTERACTION
  3: 0x00A2 [0x29] REQ_SET_WAIT(priority=0x08, entity_id=Paytah (ID: 17760350/0x010F005E), tag_num=0x05)
  4: 0x00A9 [0x29] REQ_SET_WAIT(priority=0x08, entity_id=Paytah (ID: 17760350/0x010F005E), tag_num=0x02)
  5: 0x00B0 [0x1D] PRINT_EVENT_MESSAGE(message_id=3822*)
    → "Daddy's gonna be so angry!\u0007I'm gonna get a walloping!\u0007<sniff> <sniff> Waaaaaah!\u007F1\u0000\u0007"
  6: 0x00B3 [0x23] WAIT_FOR_DIALOG_INTERACTION
  7: 0x00B4 [0x29] REQ_SET_WAIT(priority=0x08, entity_id=Paytah (ID: 17760350/0x010F005E), tag_num=0x03)
  8: 0x00BB [0x29] REQ_SET_WAIT(priority=0x08, entity_id=Paytah (ID: 17760350/0x010F005E), tag_num=0x04)
  9: 0x00C2 [0x00] END_REQSTACK()
```
