# Event 65535

## Metadata

| Field           | Value    |
|-----------------|----------|
| Event Index     | 12/19    |
| Offset          | 0x00F9   |
| Data Size       | 44 bytes |
| Calculated Size | 44 bytes |
| Instructions    | 10       |

```
      00 01 02 03 04 05 06 07  08 09 0A 0B 0C 0D 0E 0F
      -- -- -- -- -- -- -- --  -- -- -- -- -- -- -- --
00F0:                             29 08 5E 00 0F 01 01           ).^....
0100: 1D 08 80 23 29 08 5E 00  0F 01 05 29 08 5E 00 0F  ...#).^....).^..
0110: 01 02 1D 09 80 23 29 08  5E 00 0F 01 03 29 08 5E  .....#).^....).^
0120: 00 0F 01 04 00                                    .....           
```

## Opcodes

```
  0: 0x00F9 [0x29] REQ_SET_WAIT(priority=0x08, entity_id=Paytah (ID: 17760350/0x010F005E), tag_num=0x01)
  1: 0x0100 [0x1D] PRINT_EVENT_MESSAGE(message_id=3825*)
    → "Thank you \u000C\u0000[Miss/Mister]!\u0007But... Oh, no... It's...it's...all tattered and torn...!? Uh-uh...\u007F1\u0000\u0007"
  2: 0x0103 [0x23] WAIT_FOR_DIALOG_INTERACTION
  3: 0x0104 [0x29] REQ_SET_WAIT(priority=0x08, entity_id=Paytah (ID: 17760350/0x010F005E), tag_num=0x05)
  4: 0x010B [0x29] REQ_SET_WAIT(priority=0x08, entity_id=Paytah (ID: 17760350/0x010F005E), tag_num=0x02)
  5: 0x0112 [0x1D] PRINT_EVENT_MESSAGE(message_id=3826*)
    → "Waaaaa\u0001`aah!!!\u007F1\u0000\u0007"
  6: 0x0115 [0x23] WAIT_FOR_DIALOG_INTERACTION
  7: 0x0116 [0x29] REQ_SET_WAIT(priority=0x08, entity_id=Paytah (ID: 17760350/0x010F005E), tag_num=0x03)
  8: 0x011D [0x29] REQ_SET_WAIT(priority=0x08, entity_id=Paytah (ID: 17760350/0x010F005E), tag_num=0x04)
  9: 0x0124 [0x00] END_REQSTACK()
```
