# 17343164 - Ukai05

## Common Data

| Field            | Value                              |
|------------------|------------------------------------|
| Zone             | Castle Zvahl Baileys [S] (ID: 138) |
| Block Size       | 324 bytes                          |
| Total Events     | 13                                 |
| References Count | 23                                 |

## List of Events

| Event ID                   | Entrypoint   |   Size |   Instructions |
|----------------------------|--------------|--------|----------------|
| [65535](#event-65535)      | 0x0000       |      1 |              1 |
| [1](#event-1)              | 0x0001       |      1 |              1 |
| [65535.1](#event-655351)   | 0x0002       |     14 |              4 |
| [65535.2](#event-655352)   | 0x0010       |     10 |              2 |
| [65535.3](#event-655353)   | 0x001A       |     10 |              2 |
| [65535.4](#event-655354)   | 0x0024       |     17 |              5 |
| [65535.5](#event-655355)   | 0x0035       |     21 |              2 |
| [65535.6](#event-655356)   | 0x004A       |     21 |              2 |
| [65535.7](#event-655357)   | 0x005F       |     21 |              2 |
| [65535.8](#event-655358)   | 0x0074       |      5 |              2 |
| [65535.9](#event-655359)   | 0x0079       |      5 |              2 |
| [65535.10](#event-6553510) | 0x007E       |     19 |              3 |
| [65535.11](#event-6553511) | 0x0091       |     16 |              2 |

## DAT References (imed_data)

|   Index | Hex Value   |   Dec Value |
|---------|-------------|-------------|
|       0 | 0x000D      |          13 |
|       1 | 0xFFFA42D7  |  4294591191 |
|       2 | 0xFFFF8912  |  4294936850 |
|       3 | 0xFFFFEE04  |  4294962692 |
|       4 | 0x0000      |           0 |
|       5 | 0x0001      |           1 |
|       6 | 0x0080      |         128 |
|       7 | 0x0028      |          40 |
|       8 | 0x0096      |         150 |
|       9 | 0x33FFE     |      212990 |
|      10 | 0xD1B0      |       53680 |
|      11 | 0xFFFFA0E9  |  4294942953 |
|      12 | 0x0003      |           3 |
|      13 | 0x0004      |           4 |
|      14 | 0x00DD      |         221 |
|      15 | 0x00FB      |         251 |
|      16 | 0x001B      |          27 |
|      17 | 0x0008      |           8 |
|      18 | 0x00FA      |         250 |
|      19 | 0x0036      |          54 |
|      20 | 0x00B4      |         180 |
|      21 | 0x0BD5      |        3029 |
|      22 | 0x0018      |          24 |

## Events

### Event 65535

#### Metadata

| Field        | Value   |
|--------------|---------|
| Entrypoint   | 0x0000  |
| Data Size    | 1 bytes |
| Instructions | 1       |

```
      00 01 02 03 04 05 06 07  08 09 0A 0B 0C 0D 0E 0F
      -- -- -- -- -- -- -- --  -- -- -- -- -- -- -- --
0000: 00                                                .               
```

#### Opcodes

```
  0: 0x0000 [0x00] END_REQSTACK()
```

### Event 1

#### Metadata

| Field        | Value   |
|--------------|---------|
| Entrypoint   | 0x0001  |
| Data Size    | 1 bytes |
| Instructions | 1       |

```
      00 01 02 03 04 05 06 07  08 09 0A 0B 0C 0D 0E 0F
      -- -- -- -- -- -- -- --  -- -- -- -- -- -- -- --
0000:    00                                              .              
```

#### Opcodes

```
  0: 0x0001 [0x00] END_REQSTACK()
```

### Event 65535.1

#### Metadata

| Field        | Value    |
|--------------|----------|
| Entrypoint   | 0x0002   |
| Data Size    | 14 bytes |
| Instructions | 4        |

```
      00 01 02 03 04 05 06 07  08 09 0A 0B 0C 0D 0E 0F
      -- -- -- -- -- -- -- --  -- -- -- -- -- -- -- --
0000:       32 00 80 1F 00 01  80 02 80 03 80 1F 01 00    2.............
```

#### Opcodes

```
  0: 0x0002 [0x32] ExtData[1]->MainSpeed = 13* * 0.1
  1: 0x0005 [0x1F] MOVE_ENTITY: EventEntity moves to X=-376.105*, Z=-30.446*, Y=-4.604*
  2: 0x000D [0x1F] MOVE_ENTITY: Update entity position (mode=1)
  3: 0x000F [0x00] END_REQSTACK()
```

### Event 65535.2

#### Metadata

| Field        | Value    |
|--------------|----------|
| Entrypoint   | 0x0010   |
| Data Size    | 10 bytes |
| Instructions | 2        |

```
      00 01 02 03 04 05 06 07  08 09 0A 0B 0C 0D 0E 0F
      -- -- -- -- -- -- -- --  -- -- -- -- -- -- -- --
0010: 6C BC A2 08 01 04 80 05  80 00                    l.........      
```

#### Opcodes

```
  0: 0x0010 [0x6C] FADE_ENTITY_COLOR(entity_id=Ukai05 (ID: 17343164/0x0108A2BC), end_alpha=0*, fade_time=1*)
  1: 0x0019 [0x00] END_REQSTACK()
```

### Event 65535.3

#### Metadata

| Field        | Value    |
|--------------|----------|
| Entrypoint   | 0x001A   |
| Data Size    | 10 bytes |
| Instructions | 2        |

```
      00 01 02 03 04 05 06 07  08 09 0A 0B 0C 0D 0E 0F
      -- -- -- -- -- -- -- --  -- -- -- -- -- -- -- --
0010:                                6C BC A2 08 01 06            l.....
0020: 80 05 80 00                                       ....            
```

#### Opcodes

```
  0: 0x001A [0x6C] FADE_ENTITY_COLOR(entity_id=Ukai05 (ID: 17343164/0x0108A2BC), end_alpha=128*, fade_time=1*)
  1: 0x0023 [0x00] END_REQSTACK()
```

### Event 65535.4

#### Metadata

| Field        | Value    |
|--------------|----------|
| Entrypoint   | 0x0024   |
| Data Size    | 17 bytes |
| Instructions | 5        |

```
      00 01 02 03 04 05 06 07  08 09 0A 0B 0C 0D 0E 0F
      -- -- -- -- -- -- -- --  -- -- -- -- -- -- -- --
0020:             32 07 80 1C  08 80 1F 00 09 80 0A 80      2...........
0030: 0B 80 1F 01 00                                    .....           
```

#### Opcodes

```
  0: 0x0024 [0x32] ExtData[1]->MainSpeed = 40* * 0.1
  1: 0x0027 [0x1C] WAIT(150* ticks)
  2: 0x002A [0x1F] MOVE_ENTITY: EventEntity moves to X=212.990*, Z=53.680*, Y=-24.343*
  3: 0x0032 [0x1F] MOVE_ENTITY: Update entity position (mode=1)
  4: 0x0034 [0x00] END_REQSTACK()
```

### Event 65535.5

#### Metadata

| Field        | Value    |
|--------------|----------|
| Entrypoint   | 0x0035   |
| Data Size    | 21 bytes |
| Instructions | 2        |

```
      00 01 02 03 04 05 06 07  08 09 0A 0B 0C 0D 0E 0F
      -- -- -- -- -- -- -- --  -- -- -- -- -- -- -- --
0030:                B6 0B 0C  80 0D 80 04 80 0E 80 0E       ...........
0040: 80 0E 80 0E 80 0F 80 10  80 00                    ..........      
```

#### Opcodes

```
  0: 0x0035 [0xB6] ENTITY_APPEARANCE_HANDLER(case=Full entity look, race=3*, hair=4*, head=0*, body=221*, hands=221*, legs=221*, feet=221*, main=251*, sub=27*)
  1: 0x0049 [0x00] END_REQSTACK()
```

### Event 65535.6

#### Metadata

| Field        | Value    |
|--------------|----------|
| Entrypoint   | 0x004A   |
| Data Size    | 21 bytes |
| Instructions | 2        |

```
      00 01 02 03 04 05 06 07  08 09 0A 0B 0C 0D 0E 0F
      -- -- -- -- -- -- -- --  -- -- -- -- -- -- -- --
0040:                                B6 0B 0C 80 11 80            ......
0050: 04 80 0E 80 0E 80 0E 80  0E 80 0F 80 10 80 00     ............... 
```

#### Opcodes

```
  0: 0x004A [0xB6] ENTITY_APPEARANCE_HANDLER(case=Full entity look, race=3*, hair=8*, head=0*, body=221*, hands=221*, legs=221*, feet=221*, main=251*, sub=27*)
  1: 0x005E [0x00] END_REQSTACK()
```

### Event 65535.7

#### Metadata

| Field        | Value    |
|--------------|----------|
| Entrypoint   | 0x005F   |
| Data Size    | 21 bytes |
| Instructions | 2        |

```
      00 01 02 03 04 05 06 07  08 09 0A 0B 0C 0D 0E 0F
      -- -- -- -- -- -- -- --  -- -- -- -- -- -- -- --
0050:                                               B6                 .
0060: 0B 0C 80 0C 80 0E 80 0E  80 0E 80 0E 80 0E 80 12  ................
0070: 80 10 80 00                                       ....            
```

#### Opcodes

```
  0: 0x005F [0xB6] ENTITY_APPEARANCE_HANDLER(case=Full entity look, race=3*, hair=3*, head=221*, body=221*, hands=221*, legs=221*, feet=221*, main=250*, sub=27*)
  1: 0x0073 [0x00] END_REQSTACK()
```

### Event 65535.8

#### Metadata

| Field        | Value   |
|--------------|---------|
| Entrypoint   | 0x0074  |
| Data Size    | 5 bytes |
| Instructions | 2       |

```
      00 01 02 03 04 05 06 07  08 09 0A 0B 0C 0D 0E 0F
      -- -- -- -- -- -- -- --  -- -- -- -- -- -- -- --
0070:             B6 0A 13 80  00                           .....       
```

#### Opcodes

```
  0: 0x0074 [0xB6] ENTITY_APPEARANCE_HANDLER(case=Ranged, value=54*)
  1: 0x0078 [0x00] END_REQSTACK()
```

### Event 65535.9

#### Metadata

| Field        | Value   |
|--------------|---------|
| Entrypoint   | 0x0079  |
| Data Size    | 5 bytes |
| Instructions | 2       |

```
      00 01 02 03 04 05 06 07  08 09 0A 0B 0C 0D 0E 0F
      -- -- -- -- -- -- -- --  -- -- -- -- -- -- -- --
0070:                             B6 0A 04 80 00                 .....  
```

#### Opcodes

```
  0: 0x0079 [0xB6] ENTITY_APPEARANCE_HANDLER(case=Ranged, value=0*)
  1: 0x007D [0x00] END_REQSTACK()
```

### Event 65535.10

#### Metadata

| Field        | Value    |
|--------------|----------|
| Entrypoint   | 0x007E   |
| Data Size    | 19 bytes |
| Instructions | 3        |

```
      00 01 02 03 04 05 06 07  08 09 0A 0B 0C 0D 0E 0F
      -- -- -- -- -- -- -- --  -- -- -- -- -- -- -- --
0070:                                            1C 14                ..
0080: 80 5B 15 80 BC A2 08 01  BC A2 08 01 62 67 6E 31  .[..........bgn1
0090: 00                                                .               
```

#### Opcodes

```
  0: 0x007E [0x1C] WAIT(180* ticks)
  1: 0x0081 [0x5B] LOAD_EXT_SCHEDULER: Load scheduler "bgn1" with entities [Ukai05 (ID: 17343164/0x0108A2BC), Ukai05 (ID: 17343164/0x0108A2BC)], work=3029*
  2: 0x0090 [0x00] END_REQSTACK()
```

### Event 65535.11

#### Metadata

| Field        | Value    |
|--------------|----------|
| Entrypoint   | 0x0091   |
| Data Size    | 16 bytes |
| Instructions | 2        |

```
      00 01 02 03 04 05 06 07  08 09 0A 0B 0C 0D 0E 0F
      -- -- -- -- -- -- -- --  -- -- -- -- -- -- -- --
0090:    66 16 80 BC A2 08 01  BC A2 08 01 6B 6E 30 30   f..........kn00
00A0: 00                                                .               
```

#### Opcodes

```
  0: 0x0091 [0x66] LOAD_EXT_SCHEDULER_MAIN: Load scheduler "kn00" with entities [Ukai05 (ID: 17343164/0x0108A2BC), Ukai05 (ID: 17343164/0x0108A2BC)], work=24*
  1: 0x00A0 [0x00] END_REQSTACK()
```
