# 17343202 - Tetu01

## Common Data

| Field            | Value                              |
|------------------|------------------------------------|
| Zone             | Castle Zvahl Baileys [S] (ID: 138) |
| Block Size       | 204 bytes                          |
| Total Events     | 7                                  |
| References Count | 15                                 |

## List of Events

| Event ID                 | Entrypoint   |   Size |   Instructions |
|--------------------------|--------------|--------|----------------|
| [65535](#event-65535)    | 0x0000       |      1 |              1 |
| [14](#event-14)          | 0x0001       |      1 |              1 |
| [65535.1](#event-655351) | 0x0002       |     21 |              2 |
| [65535.2](#event-655352) | 0x0017       |     21 |              2 |
| [65535.3](#event-655353) | 0x002C       |     21 |              2 |
| [65535.4](#event-655354) | 0x0041       |     16 |              2 |
| [65535.5](#event-655355) | 0x0051       |     16 |              2 |

## DAT References (imed_data)

|   Index | Hex Value   |   Dec Value |
|---------|-------------|-------------|
|       0 | 0x0001      |           1 |
|       1 | 0x0007      |           7 |
|       2 | 0x0000      |           0 |
|       3 | 0x0035      |          53 |
|       4 | 0x010F      |         271 |
|       5 | 0x0097      |         151 |
|       6 | 0x0003      |           3 |
|       7 | 0x0004      |           4 |
|       8 | 0x000D      |          13 |
|       9 | 0x00DD      |         221 |
|      10 | 0x000C      |          12 |
|      11 | 0x00FB      |         251 |
|      12 | 0x001B      |          27 |
|      13 | 0x004F      |          79 |
|      14 | 0x09B8      |        2488 |

## Events

### Event 65535

#### Metadata

| Field        | Value   |
|--------------|---------|
| Entrypoint   | 0x0000  |
| Data Size    | 1 bytes |
| Instructions | 1       |

```
      00 01 02 03 04 05 06 07  08 09 0A 0B 0C 0D 0E 0F
      -- -- -- -- -- -- -- --  -- -- -- -- -- -- -- --
0000: 00                                                .               
```

#### Opcodes

```
  0: 0x0000 [0x00] END_REQSTACK()
```

### Event 14

#### Metadata

| Field        | Value   |
|--------------|---------|
| Entrypoint   | 0x0001  |
| Data Size    | 1 bytes |
| Instructions | 1       |

```
      00 01 02 03 04 05 06 07  08 09 0A 0B 0C 0D 0E 0F
      -- -- -- -- -- -- -- --  -- -- -- -- -- -- -- --
0000:    00                                              .              
```

#### Opcodes

```
  0: 0x0001 [0x00] END_REQSTACK()
```

### Event 65535.1

#### Metadata

| Field        | Value    |
|--------------|----------|
| Entrypoint   | 0x0002   |
| Data Size    | 21 bytes |
| Instructions | 2        |

```
      00 01 02 03 04 05 06 07  08 09 0A 0B 0C 0D 0E 0F
      -- -- -- -- -- -- -- --  -- -- -- -- -- -- -- --
0000:       B6 0B 00 80 01 80  02 80 03 80 03 80 03 80    ..............
0010: 03 80 04 80 02 80 00                              .......         
```

#### Opcodes

```
  0: 0x0002 [0xB6] ENTITY_APPEARANCE_HANDLER(case=Full entity look, race=1*, hair=7*, head=0*, body=53*, hands=53*, legs=53*, feet=53*, main=271*, sub=0*)
  1: 0x0016 [0x00] END_REQSTACK()
```

### Event 65535.2

#### Metadata

| Field        | Value    |
|--------------|----------|
| Entrypoint   | 0x0017   |
| Data Size    | 21 bytes |
| Instructions | 2        |

```
      00 01 02 03 04 05 06 07  08 09 0A 0B 0C 0D 0E 0F
      -- -- -- -- -- -- -- --  -- -- -- -- -- -- -- --
0010:                      B6  0B 00 80 01 80 05 80 05         .........
0020: 80 05 80 05 80 05 80 04  80 02 80 00              ............    
```

#### Opcodes

```
  0: 0x0017 [0xB6] ENTITY_APPEARANCE_HANDLER(case=Full entity look, race=1*, hair=7*, head=151*, body=151*, hands=151*, legs=151*, feet=151*, main=271*, sub=0*)
  1: 0x002B [0x00] END_REQSTACK()
```

### Event 65535.3

#### Metadata

| Field        | Value    |
|--------------|----------|
| Entrypoint   | 0x002C   |
| Data Size    | 21 bytes |
| Instructions | 2        |

```
      00 01 02 03 04 05 06 07  08 09 0A 0B 0C 0D 0E 0F
      -- -- -- -- -- -- -- --  -- -- -- -- -- -- -- --
0020:                                      B6 0B 06 80              ....
0030: 07 80 08 80 09 80 08 80  0A 80 09 80 0B 80 0C 80  ................
0040: 00                                                .               
```

#### Opcodes

```
  0: 0x002C [0xB6] ENTITY_APPEARANCE_HANDLER(case=Full entity look, race=3*, hair=4*, head=13*, body=221*, hands=13*, legs=12*, feet=221*, main=251*, sub=27*)
  1: 0x0040 [0x00] END_REQSTACK()
```

### Event 65535.4

#### Metadata

| Field        | Value    |
|--------------|----------|
| Entrypoint   | 0x0041   |
| Data Size    | 16 bytes |
| Instructions | 2        |

```
      00 01 02 03 04 05 06 07  08 09 0A 0B 0C 0D 0E 0F
      -- -- -- -- -- -- -- --  -- -- -- -- -- -- -- --
0040:    66 0D 80 E2 A2 08 01  E2 A2 08 01 66 6B 69 62   f..........fkib
0050: 00                                                .               
```

#### Opcodes

```
  0: 0x0041 [0x66] LOAD_EXT_SCHEDULER_MAIN: Load scheduler "fkib" with entities [Tetu01 (ID: 17343202/0x0108A2E2), Tetu01 (ID: 17343202/0x0108A2E2)], work=79*
  1: 0x0050 [0x00] END_REQSTACK()
```

### Event 65535.5

#### Metadata

| Field        | Value    |
|--------------|----------|
| Entrypoint   | 0x0051   |
| Data Size    | 16 bytes |
| Instructions | 2        |

```
      00 01 02 03 04 05 06 07  08 09 0A 0B 0C 0D 0E 0F
      -- -- -- -- -- -- -- --  -- -- -- -- -- -- -- --
0050:    5B 0E 80 E2 A2 08 01  E2 A2 08 01 6B 6C 61 30   [..........kla0
0060: 00                                                .               
```

#### Opcodes

```
  0: 0x0051 [0x5B] LOAD_EXT_SCHEDULER: Load scheduler "kla0" with entities [Tetu01 (ID: 17343202/0x0108A2E2), Tetu01 (ID: 17343202/0x0108A2E2)], work=2488*
  1: 0x0060 [0x00] END_REQSTACK()
```
