# 17343208 - Tetu07

## Common Data

| Field            | Value                              |
|------------------|------------------------------------|
| Zone             | Castle Zvahl Baileys [S] (ID: 138) |
| Block Size       | 300 bytes                          |
| Total Events     | 9                                  |
| References Count | 26                                 |

## List of Events

| Event ID                 | Entrypoint   |   Size |   Instructions |
|--------------------------|--------------|--------|----------------|
| [65535](#event-65535)    | 0x0000       |      1 |              1 |
| [14](#event-14)          | 0x0001       |      1 |              1 |
| [65535.1](#event-655351) | 0x0002       |     21 |              2 |
| [65535.2](#event-655352) | 0x0017       |     21 |              2 |
| [65535.3](#event-655353) | 0x002C       |     21 |              2 |
| [65535.4](#event-655354) | 0x0041       |     16 |              2 |
| [65535.5](#event-655355) | 0x0051       |     31 |              7 |
| [65535.6](#event-655356) | 0x0070       |     16 |              2 |
| [65535.7](#event-655357) | 0x0080       |     16 |              2 |

## DAT References (imed_data)

|   Index | Hex Value   |   Dec Value |
|---------|-------------|-------------|
|       0 | 0x0007      |           7 |
|       1 | 0x000C      |          12 |
|       2 | 0x0000      |           0 |
|       3 | 0x0064      |         100 |
|       4 | 0x006E      |         110 |
|       5 | 0x010A      |         266 |
|       6 | 0x0002      |           2 |
|       7 | 0x0089      |         137 |
|       8 | 0x0003      |           3 |
|       9 | 0x0001      |           1 |
|      10 | 0x000D      |          13 |
|      11 | 0x00DD      |         221 |
|      12 | 0x00FB      |         251 |
|      13 | 0x001B      |          27 |
|      14 | 0x05F9      |        1529 |
|      15 | 0xFFFC0019  |  4294705177 |
|      16 | 0x53DB      |       21467 |
|      17 | 0xFFFFBB88  |  4294949768 |
|      18 | 0xFFFBF814  |  4294703124 |
|      19 | 0x4353      |       17235 |
|      20 | 0xFFFFBD98  |  4294950296 |
|      21 | 0xFFFC026A  |  4294705770 |
|      22 | 0x36F2      |       14066 |
|      23 | 0xFFFFBE19  |  4294950425 |
|      24 | 0x0062      |          98 |
|      25 | 0x0081      |         129 |

## Events

### Event 65535

#### Metadata

| Field        | Value   |
|--------------|---------|
| Entrypoint   | 0x0000  |
| Data Size    | 1 bytes |
| Instructions | 1       |

```
      00 01 02 03 04 05 06 07  08 09 0A 0B 0C 0D 0E 0F
      -- -- -- -- -- -- -- --  -- -- -- -- -- -- -- --
0000: 00                                                .               
```

#### Opcodes

```
  0: 0x0000 [0x00] END_REQSTACK()
```

### Event 14

#### Metadata

| Field        | Value   |
|--------------|---------|
| Entrypoint   | 0x0001  |
| Data Size    | 1 bytes |
| Instructions | 1       |

```
      00 01 02 03 04 05 06 07  08 09 0A 0B 0C 0D 0E 0F
      -- -- -- -- -- -- -- --  -- -- -- -- -- -- -- --
0000:    00                                              .              
```

#### Opcodes

```
  0: 0x0001 [0x00] END_REQSTACK()
```

### Event 65535.1

#### Metadata

| Field        | Value    |
|--------------|----------|
| Entrypoint   | 0x0002   |
| Data Size    | 21 bytes |
| Instructions | 2        |

```
      00 01 02 03 04 05 06 07  08 09 0A 0B 0C 0D 0E 0F
      -- -- -- -- -- -- -- --  -- -- -- -- -- -- -- --
0000:       B6 0B 00 80 01 80  02 80 03 80 03 80 03 80    ..............
0010: 04 80 05 80 02 80 00                              .......         
```

#### Opcodes

```
  0: 0x0002 [0xB6] ENTITY_APPEARANCE_HANDLER(case=Full entity look, race=7*, hair=12*, head=0*, body=100*, hands=100*, legs=100*, feet=110*, main=266*, sub=0*)
  1: 0x0016 [0x00] END_REQSTACK()
```

### Event 65535.2

#### Metadata

| Field        | Value    |
|--------------|----------|
| Entrypoint   | 0x0017   |
| Data Size    | 21 bytes |
| Instructions | 2        |

```
      00 01 02 03 04 05 06 07  08 09 0A 0B 0C 0D 0E 0F
      -- -- -- -- -- -- -- --  -- -- -- -- -- -- -- --
0010:                      B6  0B 00 80 06 80 07 80 07         .........
0020: 80 07 80 07 80 03 80 05  80 02 80 00              ............    
```

#### Opcodes

```
  0: 0x0017 [0xB6] ENTITY_APPEARANCE_HANDLER(case=Full entity look, race=7*, hair=2*, head=137*, body=137*, hands=137*, legs=137*, feet=100*, main=266*, sub=0*)
  1: 0x002B [0x00] END_REQSTACK()
```

### Event 65535.3

#### Metadata

| Field        | Value    |
|--------------|----------|
| Entrypoint   | 0x002C   |
| Data Size    | 21 bytes |
| Instructions | 2        |

```
      00 01 02 03 04 05 06 07  08 09 0A 0B 0C 0D 0E 0F
      -- -- -- -- -- -- -- --  -- -- -- -- -- -- -- --
0020:                                      B6 0B 08 80              ....
0030: 09 80 0A 80 0B 80 0A 80  01 80 0B 80 0C 80 0D 80  ................
0040: 00                                                .               
```

#### Opcodes

```
  0: 0x002C [0xB6] ENTITY_APPEARANCE_HANDLER(case=Full entity look, race=3*, hair=1*, head=13*, body=221*, hands=13*, legs=12*, feet=221*, main=251*, sub=27*)
  1: 0x0040 [0x00] END_REQSTACK()
```

### Event 65535.4

#### Metadata

| Field        | Value    |
|--------------|----------|
| Entrypoint   | 0x0041   |
| Data Size    | 16 bytes |
| Instructions | 2        |

```
      00 01 02 03 04 05 06 07  08 09 0A 0B 0C 0D 0E 0F
      -- -- -- -- -- -- -- --  -- -- -- -- -- -- -- --
0040:    5B 0E 80 E8 A2 08 01  E8 A2 08 01 73 64 6F 6E   [..........sdon
0050: 00                                                .               
```

#### Opcodes

```
  0: 0x0041 [0x5B] LOAD_EXT_SCHEDULER: Load scheduler "sdon" with entities [Tetu07 (ID: 17343208/0x0108A2E8), Tetu07 (ID: 17343208/0x0108A2E8)], work=1529*
  1: 0x0050 [0x00] END_REQSTACK()
```

### Event 65535.5

#### Metadata

| Field        | Value    |
|--------------|----------|
| Entrypoint   | 0x0051   |
| Data Size    | 31 bytes |
| Instructions | 7        |

```
      00 01 02 03 04 05 06 07  08 09 0A 0B 0C 0D 0E 0F
      -- -- -- -- -- -- -- --  -- -- -- -- -- -- -- --
0050:    1F 00 0F 80 10 80 11  80 1F 01 1F 00 12 80 13   ...............
0060: 80 14 80 1F 01 1F 00 15  80 16 80 17 80 1F 01 00  ................
```

#### Opcodes

```
  0: 0x0051 [0x1F] MOVE_ENTITY: EventEntity moves to X=-262.119*, Z=21.467*, Y=-17.528*
  1: 0x0059 [0x1F] MOVE_ENTITY: Update entity position (mode=1)
  2: 0x005B [0x1F] MOVE_ENTITY: EventEntity moves to X=-264.172*, Z=17.235*, Y=-17.000*
  3: 0x0063 [0x1F] MOVE_ENTITY: Update entity position (mode=1)
  4: 0x0065 [0x1F] MOVE_ENTITY: EventEntity moves to X=-261.526*, Z=14.066*, Y=-16.871*
  5: 0x006D [0x1F] MOVE_ENTITY: Update entity position (mode=1)
  6: 0x006F [0x00] END_REQSTACK()
```

### Event 65535.6

#### Metadata

| Field        | Value    |
|--------------|----------|
| Entrypoint   | 0x0070   |
| Data Size    | 16 bytes |
| Instructions | 2        |

```
      00 01 02 03 04 05 06 07  08 09 0A 0B 0C 0D 0E 0F
      -- -- -- -- -- -- -- --  -- -- -- -- -- -- -- --
0070: 66 18 80 E8 A2 08 01 E8  A2 08 01 66 6B 69 61 00  f..........fkia.
```

#### Opcodes

```
  0: 0x0070 [0x66] LOAD_EXT_SCHEDULER_MAIN: Load scheduler "fkia" with entities [Tetu07 (ID: 17343208/0x0108A2E8), Tetu07 (ID: 17343208/0x0108A2E8)], work=98*
  1: 0x007F [0x00] END_REQSTACK()
```

### Event 65535.7

#### Metadata

| Field        | Value    |
|--------------|----------|
| Entrypoint   | 0x0080   |
| Data Size    | 16 bytes |
| Instructions | 2        |

```
      00 01 02 03 04 05 06 07  08 09 0A 0B 0C 0D 0E 0F
      -- -- -- -- -- -- -- --  -- -- -- -- -- -- -- --
0080: 66 19 80 E8 A2 08 01 E8  A2 08 01 62 6F 6D 62 00  f..........bomb.
```

#### Opcodes

```
  0: 0x0080 [0x66] LOAD_EXT_SCHEDULER_MAIN: Load scheduler "bomb" with entities [Tetu07 (ID: 17343208/0x0108A2E8), Tetu07 (ID: 17343208/0x0108A2E8)], work=129*
  1: 0x008F [0x00] END_REQSTACK()
```
