# 17343154 - Vestillet

## Common Data

| Field            | Value                              |
|------------------|------------------------------------|
| Zone             | Castle Zvahl Baileys [S] (ID: 138) |
| Block Size       | 688 bytes                          |
| Total Events     | 22                                 |
| References Count | 58                                 |

## List of Events

| Event ID                   | Entrypoint   |   Size |   Instructions |
|----------------------------|--------------|--------|----------------|
| [65535](#event-65535)      | 0x0000       |      1 |              1 |
| [1](#event-1)              | 0x0001       |      1 |              1 |
| [2](#event-2)              | 0x0002       |      1 |              1 |
| [14](#event-14)            | 0x0003       |      1 |              1 |
| [15](#event-15)            | 0x0004       |      1 |              1 |
| [65535.1](#event-655351)   | 0x0005       |     10 |              2 |
| [65535.2](#event-655352)   | 0x000F       |     10 |              2 |
| [65535.3](#event-655353)   | 0x0019       |     11 |              3 |
| [65535.4](#event-655354)   | 0x0024       |     14 |              4 |
| [65535.5](#event-655355)   | 0x0032       |     21 |              2 |
| [65535.6](#event-655356)   | 0x0047       |     21 |              2 |
| [65535.7](#event-655357)   | 0x005C       |     21 |              2 |
| [65535.8](#event-655358)   | 0x0071       |      5 |              2 |
| [65535.9](#event-655359)   | 0x0076       |      5 |              2 |
| [65535.10](#event-6553510) | 0x007B       |     19 |              3 |
| [65535.11](#event-6553511) | 0x008E       |     21 |              2 |
| [65535.12](#event-6553512) | 0x00A3       |     21 |              2 |
| [65535.13](#event-6553513) | 0x00B8       |     16 |              2 |
| [65535.14](#event-6553514) | 0x00C8       |     16 |              2 |
| [65535.15](#event-6553515) | 0x00D8       |     16 |              2 |
| [65535.16](#event-6553516) | 0x00E8       |     14 |              4 |
| [65535.17](#event-6553517) | 0x00F6       |    105 |             19 |

## DAT References (imed_data)

|   Index | Hex Value   |   Dec Value |
|---------|-------------|-------------|
|       0 | 0x0000      |           0 |
|       1 | 0x0001      |           1 |
|       2 | 0x0080      |         128 |
|       3 | 0x33FFE     |      212990 |
|       4 | 0xD1B0      |       53680 |
|       5 | 0xFFFFA0E9  |  4294942953 |
|       6 | 0x000D      |          13 |
|       7 | 0xFFFA4603  |  4294592003 |
|       8 | 0xFFFFA625  |  4294944293 |
|       9 | 0xFFFFECC1  |  4294962369 |
|      10 | 0x0003      |           3 |
|      11 | 0x0008      |           8 |
|      12 | 0x00DD      |         221 |
|      13 | 0x001B      |          27 |
|      14 | 0x00D3      |         211 |
|      15 | 0x0002      |           2 |
|      16 | 0x00D9      |         217 |
|      17 | 0x000C      |          12 |
|      18 | 0x00FA      |         250 |
|      19 | 0x0036      |          54 |
|      20 | 0x001E      |          30 |
|      21 | 0x0BD5      |        3029 |
|      22 | 0x00FB      |         251 |
|      23 | 0x0018      |          24 |
|      24 | 0x0063      |          99 |
|      25 | 0x0062      |          98 |
|      26 | 0x0028      |          40 |
|      27 | 0xFFFBBA54  |  4294687316 |
|      28 | 0x9368      |       37736 |
|      29 | 0xFFFFB1E1  |  4294947297 |
|      30 | 0x003C      |          60 |
|      31 | 0xFFFBCD6E  |  4294692206 |
|      32 | 0x8879      |       34937 |
|      33 | 0xFFFFB2B4  |  4294947508 |
|      34 | 0xFFFBD4D1  |  4294694097 |
|      35 | 0x7C12      |       31762 |
|      36 | 0xFFFFB4C5  |  4294948037 |
|      37 | 0xFFFBF73F  |  4294702911 |
|      38 | 0xC4BB      |       50363 |
|      39 | 0xFFFFB7D3  |  4294948819 |
|      40 | 0x037F      |         895 |
|      41 | 0x002D      |          45 |
|      42 | 0xFFFBFDCC  |  4294704588 |
|      43 | 0xA890      |       43152 |
|      44 | 0xFFFFB48F  |  4294947983 |
|      45 | 0xFFFC10AE  |  4294709422 |
|      46 | 0x8281      |       33409 |
|      47 | 0xFFFFB42E  |  4294947886 |
|      48 | 0xFFFBDBF6  |  4294695926 |
|      49 | 0xB261      |       45665 |
|      50 | 0xFFFFB582  |  4294948226 |
|      51 | 0x0380      |         896 |
|      52 | 0xFFFBF7E5  |  4294703077 |
|      53 | 0x778A      |       30602 |
|      54 | 0xFFFFB7F1  |  4294948849 |
|      55 | 0xFFFBC3E4  |  4294689764 |
|      56 | 0x97F8      |       38904 |
|      57 | 0xFFFFB1E0  |  4294947296 |

## Events

### Event 65535

#### Metadata

| Field        | Value   |
|--------------|---------|
| Entrypoint   | 0x0000  |
| Data Size    | 1 bytes |
| Instructions | 1       |

```
      00 01 02 03 04 05 06 07  08 09 0A 0B 0C 0D 0E 0F
      -- -- -- -- -- -- -- --  -- -- -- -- -- -- -- --
0000: 00                                                .               
```

#### Opcodes

```
  0: 0x0000 [0x00] END_REQSTACK()
```

### Event 1

#### Metadata

| Field        | Value   |
|--------------|---------|
| Entrypoint   | 0x0001  |
| Data Size    | 1 bytes |
| Instructions | 1       |

```
      00 01 02 03 04 05 06 07  08 09 0A 0B 0C 0D 0E 0F
      -- -- -- -- -- -- -- --  -- -- -- -- -- -- -- --
0000:    00                                              .              
```

#### Opcodes

```
  0: 0x0001 [0x00] END_REQSTACK()
```

### Event 2

#### Metadata

| Field        | Value   |
|--------------|---------|
| Entrypoint   | 0x0002  |
| Data Size    | 1 bytes |
| Instructions | 1       |

```
      00 01 02 03 04 05 06 07  08 09 0A 0B 0C 0D 0E 0F
      -- -- -- -- -- -- -- --  -- -- -- -- -- -- -- --
0000:       00                                            .             
```

#### Opcodes

```
  0: 0x0002 [0x00] END_REQSTACK()
```

### Event 14

#### Metadata

| Field        | Value   |
|--------------|---------|
| Entrypoint   | 0x0003  |
| Data Size    | 1 bytes |
| Instructions | 1       |

```
      00 01 02 03 04 05 06 07  08 09 0A 0B 0C 0D 0E 0F
      -- -- -- -- -- -- -- --  -- -- -- -- -- -- -- --
0000:          00                                          .            
```

#### Opcodes

```
  0: 0x0003 [0x00] END_REQSTACK()
```

### Event 15

#### Metadata

| Field        | Value   |
|--------------|---------|
| Entrypoint   | 0x0004  |
| Data Size    | 1 bytes |
| Instructions | 1       |

```
      00 01 02 03 04 05 06 07  08 09 0A 0B 0C 0D 0E 0F
      -- -- -- -- -- -- -- --  -- -- -- -- -- -- -- --
0000:             00                                        .           
```

#### Opcodes

```
  0: 0x0004 [0x00] END_REQSTACK()
```

### Event 65535.1

#### Metadata

| Field        | Value    |
|--------------|----------|
| Entrypoint   | 0x0005   |
| Data Size    | 10 bytes |
| Instructions | 2        |

```
      00 01 02 03 04 05 06 07  08 09 0A 0B 0C 0D 0E 0F
      -- -- -- -- -- -- -- --  -- -- -- -- -- -- -- --
0000:                6C B2 A2  08 01 00 80 01 80 00          l......... 
```

#### Opcodes

```
  0: 0x0005 [0x6C] FADE_ENTITY_COLOR(entity_id=Vestillet (ID: 17343154/0x0108A2B2), end_alpha=0*, fade_time=1*)
  1: 0x000E [0x00] END_REQSTACK()
```

### Event 65535.2

#### Metadata

| Field        | Value    |
|--------------|----------|
| Entrypoint   | 0x000F   |
| Data Size    | 10 bytes |
| Instructions | 2        |

```
      00 01 02 03 04 05 06 07  08 09 0A 0B 0C 0D 0E 0F
      -- -- -- -- -- -- -- --  -- -- -- -- -- -- -- --
0000:                                               6C                 l
0010: B2 A2 08 01 02 80 01 80  00                       .........       
```

#### Opcodes

```
  0: 0x000F [0x6C] FADE_ENTITY_COLOR(entity_id=Vestillet (ID: 17343154/0x0108A2B2), end_alpha=128*, fade_time=1*)
  1: 0x0018 [0x00] END_REQSTACK()
```

### Event 65535.3

#### Metadata

| Field        | Value    |
|--------------|----------|
| Entrypoint   | 0x0019   |
| Data Size    | 11 bytes |
| Instructions | 3        |

```
      00 01 02 03 04 05 06 07  08 09 0A 0B 0C 0D 0E 0F
      -- -- -- -- -- -- -- --  -- -- -- -- -- -- -- --
0010:                             1F 00 03 80 04 80 05           .......
0020: 80 1F 01 00                                       ....            
```

#### Opcodes

```
  0: 0x0019 [0x1F] MOVE_ENTITY: EventEntity moves to X=212.990*, Z=53.680*, Y=-24.343*
  1: 0x0021 [0x1F] MOVE_ENTITY: Update entity position (mode=1)
  2: 0x0023 [0x00] END_REQSTACK()
```

### Event 65535.4

#### Metadata

| Field        | Value    |
|--------------|----------|
| Entrypoint   | 0x0024   |
| Data Size    | 14 bytes |
| Instructions | 4        |

```
      00 01 02 03 04 05 06 07  08 09 0A 0B 0C 0D 0E 0F
      -- -- -- -- -- -- -- --  -- -- -- -- -- -- -- --
0020:             32 06 80 1F  00 07 80 08 80 09 80 1F      2...........
0030: 01 00                                             ..              
```

#### Opcodes

```
  0: 0x0024 [0x32] ExtData[1]->MainSpeed = 13* * 0.1
  1: 0x0027 [0x1F] MOVE_ENTITY: EventEntity moves to X=-375.293*, Z=-23.003*, Y=-4.927*
  2: 0x002F [0x1F] MOVE_ENTITY: Update entity position (mode=1)
  3: 0x0031 [0x00] END_REQSTACK()
```

### Event 65535.5

#### Metadata

| Field        | Value    |
|--------------|----------|
| Entrypoint   | 0x0032   |
| Data Size    | 21 bytes |
| Instructions | 2        |

```
      00 01 02 03 04 05 06 07  08 09 0A 0B 0C 0D 0E 0F
      -- -- -- -- -- -- -- --  -- -- -- -- -- -- -- --
0030:       B6 0B 0A 80 0B 80  0C 80 0C 80 0C 80 0C 80    ..............
0040: 0C 80 0D 80 00 80 00                              .......         
```

#### Opcodes

```
  0: 0x0032 [0xB6] ENTITY_APPEARANCE_HANDLER(case=Full entity look, race=3*, hair=8*, head=221*, body=221*, hands=221*, legs=221*, feet=221*, main=27*, sub=0*)
  1: 0x0046 [0x00] END_REQSTACK()
```

### Event 65535.6

#### Metadata

| Field        | Value    |
|--------------|----------|
| Entrypoint   | 0x0047   |
| Data Size    | 21 bytes |
| Instructions | 2        |

```
      00 01 02 03 04 05 06 07  08 09 0A 0B 0C 0D 0E 0F
      -- -- -- -- -- -- -- --  -- -- -- -- -- -- -- --
0040:                      B6  0B 0A 80 0B 80 0C 80 0C         .........
0050: 80 0C 80 0C 80 0C 80 0E  80 00 80 00              ............    
```

#### Opcodes

```
  0: 0x0047 [0xB6] ENTITY_APPEARANCE_HANDLER(case=Full entity look, race=3*, hair=8*, head=221*, body=221*, hands=221*, legs=221*, feet=221*, main=211*, sub=0*)
  1: 0x005B [0x00] END_REQSTACK()
```

### Event 65535.7

#### Metadata

| Field        | Value    |
|--------------|----------|
| Entrypoint   | 0x005C   |
| Data Size    | 21 bytes |
| Instructions | 2        |

```
      00 01 02 03 04 05 06 07  08 09 0A 0B 0C 0D 0E 0F
      -- -- -- -- -- -- -- --  -- -- -- -- -- -- -- --
0050:                                      B6 0B 0A 80              ....
0060: 0F 80 00 80 10 80 06 80  11 80 0C 80 12 80 0D 80  ................
0070: 00                                                .               
```

#### Opcodes

```
  0: 0x005C [0xB6] ENTITY_APPEARANCE_HANDLER(case=Full entity look, race=3*, hair=2*, head=0*, body=217*, hands=13*, legs=12*, feet=221*, main=250*, sub=27*)
  1: 0x0070 [0x00] END_REQSTACK()
```

### Event 65535.8

#### Metadata

| Field        | Value   |
|--------------|---------|
| Entrypoint   | 0x0071  |
| Data Size    | 5 bytes |
| Instructions | 2       |

```
      00 01 02 03 04 05 06 07  08 09 0A 0B 0C 0D 0E 0F
      -- -- -- -- -- -- -- --  -- -- -- -- -- -- -- --
0070:    B6 0A 13 80 00                                  .....          
```

#### Opcodes

```
  0: 0x0071 [0xB6] ENTITY_APPEARANCE_HANDLER(case=Ranged, value=54*)
  1: 0x0075 [0x00] END_REQSTACK()
```

### Event 65535.9

#### Metadata

| Field        | Value   |
|--------------|---------|
| Entrypoint   | 0x0076  |
| Data Size    | 5 bytes |
| Instructions | 2       |

```
      00 01 02 03 04 05 06 07  08 09 0A 0B 0C 0D 0E 0F
      -- -- -- -- -- -- -- --  -- -- -- -- -- -- -- --
0070:                   B6 0A  00 80 00                       .....     
```

#### Opcodes

```
  0: 0x0076 [0xB6] ENTITY_APPEARANCE_HANDLER(case=Ranged, value=0*)
  1: 0x007A [0x00] END_REQSTACK()
```

### Event 65535.10

#### Metadata

| Field        | Value    |
|--------------|----------|
| Entrypoint   | 0x007B   |
| Data Size    | 19 bytes |
| Instructions | 3        |

```
      00 01 02 03 04 05 06 07  08 09 0A 0B 0C 0D 0E 0F
      -- -- -- -- -- -- -- --  -- -- -- -- -- -- -- --
0070:                                   1C 14 80 5B 15             ...[.
0080: 80 B2 A2 08 01 B2 A2 08  01 62 67 6E 31 00        .........bgn1.  
```

#### Opcodes

```
  0: 0x007B [0x1C] WAIT(30* ticks)
  1: 0x007E [0x5B] LOAD_EXT_SCHEDULER: Load scheduler "bgn1" with entities [Vestillet (ID: 17343154/0x0108A2B2), Vestillet (ID: 17343154/0x0108A2B2)], work=3029*
  2: 0x008D [0x00] END_REQSTACK()
```

### Event 65535.11

#### Metadata

| Field        | Value    |
|--------------|----------|
| Entrypoint   | 0x008E   |
| Data Size    | 21 bytes |
| Instructions | 2        |

```
      00 01 02 03 04 05 06 07  08 09 0A 0B 0C 0D 0E 0F
      -- -- -- -- -- -- -- --  -- -- -- -- -- -- -- --
0080:                                            B6 0B                ..
0090: 0A 80 11 80 00 80 0C 80  0C 80 0C 80 0C 80 0D 80  ................
00A0: 00 80 00                                          ...             
```

#### Opcodes

```
  0: 0x008E [0xB6] ENTITY_APPEARANCE_HANDLER(case=Full entity look, race=3*, hair=12*, head=0*, body=221*, hands=221*, legs=221*, feet=221*, main=27*, sub=0*)
  1: 0x00A2 [0x00] END_REQSTACK()
```

### Event 65535.12

#### Metadata

| Field        | Value    |
|--------------|----------|
| Entrypoint   | 0x00A3   |
| Data Size    | 21 bytes |
| Instructions | 2        |

```
      00 01 02 03 04 05 06 07  08 09 0A 0B 0C 0D 0E 0F
      -- -- -- -- -- -- -- --  -- -- -- -- -- -- -- --
00A0:          B6 0B 0A 80 0A  80 06 80 0C 80 06 80 11     .............
00B0: 80 0C 80 16 80 0D 80 00                           ........        
```

#### Opcodes

```
  0: 0x00A3 [0xB6] ENTITY_APPEARANCE_HANDLER(case=Full entity look, race=3*, hair=3*, head=13*, body=221*, hands=13*, legs=12*, feet=221*, main=251*, sub=27*)
  1: 0x00B7 [0x00] END_REQSTACK()
```

### Event 65535.13

#### Metadata

| Field        | Value    |
|--------------|----------|
| Entrypoint   | 0x00B8   |
| Data Size    | 16 bytes |
| Instructions | 2        |

```
      00 01 02 03 04 05 06 07  08 09 0A 0B 0C 0D 0E 0F
      -- -- -- -- -- -- -- --  -- -- -- -- -- -- -- --
00B0:                          66 17 80 B2 A2 08 01 B2          f.......
00C0: A2 08 01 31 72 64 79 00                           ...1rdy.        
```

#### Opcodes

```
  0: 0x00B8 [0x66] LOAD_EXT_SCHEDULER_MAIN: Load scheduler "1rdy" with entities [Vestillet (ID: 17343154/0x0108A2B2), Vestillet (ID: 17343154/0x0108A2B2)], work=24*
  1: 0x00C7 [0x00] END_REQSTACK()
```

### Event 65535.14

#### Metadata

| Field        | Value    |
|--------------|----------|
| Entrypoint   | 0x00C8   |
| Data Size    | 16 bytes |
| Instructions | 2        |

```
      00 01 02 03 04 05 06 07  08 09 0A 0B 0C 0D 0E 0F
      -- -- -- -- -- -- -- --  -- -- -- -- -- -- -- --
00C0:                          66 18 80 B2 A2 08 01 B2          f.......
00D0: A2 08 01 66 73 68 30 00                           ...fsh0.        
```

#### Opcodes

```
  0: 0x00C8 [0x66] LOAD_EXT_SCHEDULER_MAIN: Load scheduler "fsh0" with entities [Vestillet (ID: 17343154/0x0108A2B2), Vestillet (ID: 17343154/0x0108A2B2)], work=99*
  1: 0x00D7 [0x00] END_REQSTACK()
```

### Event 65535.15

#### Metadata

| Field        | Value    |
|--------------|----------|
| Entrypoint   | 0x00D8   |
| Data Size    | 16 bytes |
| Instructions | 2        |

```
      00 01 02 03 04 05 06 07  08 09 0A 0B 0C 0D 0E 0F
      -- -- -- -- -- -- -- --  -- -- -- -- -- -- -- --
00D0:                          66 19 80 B2 A2 08 01 B2          f.......
00E0: A2 08 01 66 6B 69 62 00                           ...fkib.        
```

#### Opcodes

```
  0: 0x00D8 [0x66] LOAD_EXT_SCHEDULER_MAIN: Load scheduler "fkib" with entities [Vestillet (ID: 17343154/0x0108A2B2), Vestillet (ID: 17343154/0x0108A2B2)], work=98*
  1: 0x00E7 [0x00] END_REQSTACK()
```

### Event 65535.16

#### Metadata

| Field        | Value    |
|--------------|----------|
| Entrypoint   | 0x00E8   |
| Data Size    | 14 bytes |
| Instructions | 4        |

```
      00 01 02 03 04 05 06 07  08 09 0A 0B 0C 0D 0E 0F
      -- -- -- -- -- -- -- --  -- -- -- -- -- -- -- --
00E0:                          32 1A 80 1F 00 1B 80 1C          2.......
00F0: 80 1D 80 1F 01 00                                 ......          
```

#### Opcodes

```
  0: 0x00E8 [0x32] ExtData[1]->MainSpeed = 40* * 0.1
  1: 0x00EB [0x1F] MOVE_ENTITY: EventEntity moves to X=-279.980*, Z=37.736*, Y=-19.999*
  2: 0x00F3 [0x1F] MOVE_ENTITY: Update entity position (mode=1)
  3: 0x00F5 [0x00] END_REQSTACK()
```

### Event 65535.17

#### Metadata

| Field        | Value     |
|--------------|-----------|
| Entrypoint   | 0x00F6    |
| Data Size    | 105 bytes |
| Instructions | 18        |

```
      00 01 02 03 04 05 06 07  08 09 0A 0B 0C 0D 0E 0F
      -- -- -- -- -- -- -- --  -- -- -- -- -- -- -- --
00F0:                   1C 1E  80 32 1A 80 1F 00 1F 80        ...2......
0100: 20 80 21 80 1F 01 1F 00  22 80 23 80 24 80 1F 01   .!.....".#.$...
0110: BA B2 A2 08 01 25 80 26  80 27 80 28 80 32 29 80  .....%.&.'.(.2).
0120: 1F 00 2A 80 2B 80 2C 80  1F 01 1F 00 2D 80 2E 80  ..*.+.,.....-...
0130: 2F 80 1F 01 BA B2 A2 08  01 30 80 31 80 32 80 33  /........0.1.2.3
0140: 80 32 1A 80 1F 00 34 80  35 80 36 80 1F 01 BA B2  .2....4.5.6.....
0150: A2 08 01 37 80 38 80 39  80 28 80 01 F6 00 00     ...7.8.9.(..... 
```

#### Opcodes

```
  0: 0x00F6 [0x1C] WAIT(60* ticks)
  1: 0x00F9 [0x32] ExtData[1]->MainSpeed = 40* * 0.1
  2: 0x00FC [0x1F] MOVE_ENTITY: EventEntity moves to X=-275.090*, Z=34.937*, Y=-19.788*
  3: 0x0104 [0x1F] MOVE_ENTITY: Update entity position (mode=1)
  4: 0x0106 [0x1F] MOVE_ENTITY: EventEntity moves to X=-273.199*, Z=31.762*, Y=-19.259*
  5: 0x010E [0x1F] MOVE_ENTITY: Update entity position (mode=1)
  6: 0x0110 [0xBA] SET_ENTITY_POSITION(entity_id=Vestillet (ID: 17343154/0x0108A2B2), pos_x=-264.385*, pos_z=50.363*, pos_y=-18.477*, direction=78.7°*)
  7: 0x011D [0x32] ExtData[1]->MainSpeed = 45* * 0.1
  8: 0x0120 [0x1F] MOVE_ENTITY: EventEntity moves to X=-262.708*, Z=43.152*, Y=-19.313*
  9: 0x0128 [0x1F] MOVE_ENTITY: Update entity position (mode=1)
 10: 0x012A [0x1F] MOVE_ENTITY: EventEntity moves to X=-257.874*, Z=33.409*, Y=-19.410*
 11: 0x0132 [0x1F] MOVE_ENTITY: Update entity position (mode=1)
 12: 0x0134 [0xBA] SET_ENTITY_POSITION(entity_id=Vestillet (ID: 17343154/0x0108A2B2), pos_x=-271.370*, pos_z=45.665*, pos_y=-19.070*, direction=78.7°*)
 13: 0x0141 [0x32] ExtData[1]->MainSpeed = 40* * 0.1
 14: 0x0144 [0x1F] MOVE_ENTITY: EventEntity moves to X=-264.219*, Z=30.602*, Y=-18.447*
 15: 0x014C [0x1F] MOVE_ENTITY: Update entity position (mode=1)
 16: 0x014E [0xBA] SET_ENTITY_POSITION(entity_id=Vestillet (ID: 17343154/0x0108A2B2), pos_x=-277.532*, pos_z=38.904*, pos_y=-20.000*, direction=78.7°*)
 17: 0x015B [0x01] GOTO 0x00F6
```

#### Data or dead code:

```
# Dead code (unreachable instructions):
     0x015E [0x00] END_REQSTACK()
```
