# 17343207 - Tetu06

## Common Data

| Field            | Value                              |
|------------------|------------------------------------|
| Zone             | Castle Zvahl Baileys [S] (ID: 138) |
| Block Size       | 312 bytes                          |
| Total Events     | 9                                  |
| References Count | 28                                 |

## List of Events

| Event ID                 | Entrypoint   |   Size |   Instructions |
|--------------------------|--------------|--------|----------------|
| [65535](#event-65535)    | 0x0000       |      1 |              1 |
| [14](#event-14)          | 0x0001       |      1 |              1 |
| [65535.1](#event-655351) | 0x0002       |     21 |              2 |
| [65535.2](#event-655352) | 0x0017       |     21 |              2 |
| [65535.3](#event-655353) | 0x002C       |     21 |              2 |
| [65535.4](#event-655354) | 0x0041       |     16 |              2 |
| [65535.5](#event-655355) | 0x0051       |     16 |              2 |
| [65535.6](#event-655356) | 0x0061       |     16 |              2 |
| [65535.7](#event-655357) | 0x0071       |     34 |              8 |

## DAT References (imed_data)

|   Index | Hex Value   |   Dec Value |
|---------|-------------|-------------|
|       0 | 0x0005      |           5 |
|       1 | 0x0007      |           7 |
|       2 | 0x0081      |         129 |
|       3 | 0x0065      |         101 |
|       4 | 0x0131      |         305 |
|       5 | 0x0000      |           0 |
|       6 | 0x0045      |          69 |
|       7 | 0x0044      |          68 |
|       8 | 0x0167      |         359 |
|       9 | 0x0003      |           3 |
|      10 | 0x000D      |          13 |
|      11 | 0x00DD      |         221 |
|      12 | 0x000C      |          12 |
|      13 | 0x00FB      |         251 |
|      14 | 0x001B      |          27 |
|      15 | 0x0808      |        2056 |
|      16 | 0x0077      |         119 |
|      17 | 0x006E      |         110 |
|      18 | 0x0032      |          50 |
|      19 | 0xFFFB2721  |  4294649633 |
|      20 | 0x88FC      |       35068 |
|      21 | 0xFFFF92CE  |  4294939342 |
|      22 | 0xFFFB2822  |  4294649890 |
|      23 | 0x99F6      |       39414 |
|      24 | 0xFFFF92A0  |  4294939296 |
|      25 | 0xFFFB31C1  |  4294652353 |
|      26 | 0xBDC3      |       48579 |
|      27 | 0xFFFF931F  |  4294939423 |

## Events

### Event 65535

#### Metadata

| Field        | Value   |
|--------------|---------|
| Entrypoint   | 0x0000  |
| Data Size    | 1 bytes |
| Instructions | 1       |

```
      00 01 02 03 04 05 06 07  08 09 0A 0B 0C 0D 0E 0F
      -- -- -- -- -- -- -- --  -- -- -- -- -- -- -- --
0000: 00                                                .               
```

#### Opcodes

```
  0: 0x0000 [0x00] END_REQSTACK()
```

### Event 14

#### Metadata

| Field        | Value   |
|--------------|---------|
| Entrypoint   | 0x0001  |
| Data Size    | 1 bytes |
| Instructions | 1       |

```
      00 01 02 03 04 05 06 07  08 09 0A 0B 0C 0D 0E 0F
      -- -- -- -- -- -- -- --  -- -- -- -- -- -- -- --
0000:    00                                              .              
```

#### Opcodes

```
  0: 0x0001 [0x00] END_REQSTACK()
```

### Event 65535.1

#### Metadata

| Field        | Value    |
|--------------|----------|
| Entrypoint   | 0x0002   |
| Data Size    | 21 bytes |
| Instructions | 2        |

```
      00 01 02 03 04 05 06 07  08 09 0A 0B 0C 0D 0E 0F
      -- -- -- -- -- -- -- --  -- -- -- -- -- -- -- --
0000:       B6 0B 00 80 01 80  02 80 03 80 03 80 03 80    ..............
0010: 03 80 04 80 05 80 00                              .......         
```

#### Opcodes

```
  0: 0x0002 [0xB6] ENTITY_APPEARANCE_HANDLER(case=Full entity look, race=5*, hair=7*, head=129*, body=101*, hands=101*, legs=101*, feet=101*, main=305*, sub=0*)
  1: 0x0016 [0x00] END_REQSTACK()
```

### Event 65535.2

#### Metadata

| Field        | Value    |
|--------------|----------|
| Entrypoint   | 0x0017   |
| Data Size    | 21 bytes |
| Instructions | 2        |

```
      00 01 02 03 04 05 06 07  08 09 0A 0B 0C 0D 0E 0F
      -- -- -- -- -- -- -- --  -- -- -- -- -- -- -- --
0010:                      B6  0B 00 80 01 80 06 80 07         .........
0020: 80 07 80 07 80 07 80 08  80 05 80 00              ............    
```

#### Opcodes

```
  0: 0x0017 [0xB6] ENTITY_APPEARANCE_HANDLER(case=Full entity look, race=5*, hair=7*, head=69*, body=68*, hands=68*, legs=68*, feet=68*, main=359*, sub=0*)
  1: 0x002B [0x00] END_REQSTACK()
```

### Event 65535.3

#### Metadata

| Field        | Value    |
|--------------|----------|
| Entrypoint   | 0x002C   |
| Data Size    | 21 bytes |
| Instructions | 2        |

```
      00 01 02 03 04 05 06 07  08 09 0A 0B 0C 0D 0E 0F
      -- -- -- -- -- -- -- --  -- -- -- -- -- -- -- --
0020:                                      B6 0B 09 80              ....
0030: 09 80 0A 80 0B 80 0A 80  0C 80 0B 80 0D 80 0E 80  ................
0040: 00                                                .               
```

#### Opcodes

```
  0: 0x002C [0xB6] ENTITY_APPEARANCE_HANDLER(case=Full entity look, race=3*, hair=3*, head=13*, body=221*, hands=13*, legs=12*, feet=221*, main=251*, sub=27*)
  1: 0x0040 [0x00] END_REQSTACK()
```

### Event 65535.4

#### Metadata

| Field        | Value    |
|--------------|----------|
| Entrypoint   | 0x0041   |
| Data Size    | 16 bytes |
| Instructions | 2        |

```
      00 01 02 03 04 05 06 07  08 09 0A 0B 0C 0D 0E 0F
      -- -- -- -- -- -- -- --  -- -- -- -- -- -- -- --
0040:    5B 0F 80 E7 A2 08 01  E7 A2 08 01 6B 72 61 31   [..........kra1
0050: 00                                                .               
```

#### Opcodes

```
  0: 0x0041 [0x5B] LOAD_EXT_SCHEDULER: Load scheduler "kra1" with entities [Tetu06 (ID: 17343207/0x0108A2E7), Tetu06 (ID: 17343207/0x0108A2E7)], work=2056*
  1: 0x0050 [0x00] END_REQSTACK()
```

### Event 65535.5

#### Metadata

| Field        | Value    |
|--------------|----------|
| Entrypoint   | 0x0051   |
| Data Size    | 16 bytes |
| Instructions | 2        |

```
      00 01 02 03 04 05 06 07  08 09 0A 0B 0C 0D 0E 0F
      -- -- -- -- -- -- -- --  -- -- -- -- -- -- -- --
0050:    66 10 80 E7 A2 08 01  E7 A2 08 01 66 6B 69 62   f..........fkib
0060: 00                                                .               
```

#### Opcodes

```
  0: 0x0051 [0x66] LOAD_EXT_SCHEDULER_MAIN: Load scheduler "fkib" with entities [Tetu06 (ID: 17343207/0x0108A2E7), Tetu06 (ID: 17343207/0x0108A2E7)], work=119*
  1: 0x0060 [0x00] END_REQSTACK()
```

### Event 65535.6

#### Metadata

| Field        | Value    |
|--------------|----------|
| Entrypoint   | 0x0061   |
| Data Size    | 16 bytes |
| Instructions | 2        |

```
      00 01 02 03 04 05 06 07  08 09 0A 0B 0C 0D 0E 0F
      -- -- -- -- -- -- -- --  -- -- -- -- -- -- -- --
0060:    66 11 80 E7 A2 08 01  E7 A2 08 01 61 74 70 31   f..........atp1
0070: 00                                                .               
```

#### Opcodes

```
  0: 0x0061 [0x66] LOAD_EXT_SCHEDULER_MAIN: Load scheduler "atp1" with entities [Tetu06 (ID: 17343207/0x0108A2E7), Tetu06 (ID: 17343207/0x0108A2E7)], work=110*
  1: 0x0070 [0x00] END_REQSTACK()
```

### Event 65535.7

#### Metadata

| Field        | Value    |
|--------------|----------|
| Entrypoint   | 0x0071   |
| Data Size    | 34 bytes |
| Instructions | 8        |

```
      00 01 02 03 04 05 06 07  08 09 0A 0B 0C 0D 0E 0F
      -- -- -- -- -- -- -- --  -- -- -- -- -- -- -- --
0070:    32 12 80 1F 00 13 80  14 80 15 80 1F 01 1F 00   2..............
0080: 16 80 17 80 18 80 1F 01  1F 00 19 80 1A 80 1B 80  ................
0090: 1F 01 00                                          ...             
```

#### Opcodes

```
  0: 0x0071 [0x32] ExtData[1]->MainSpeed = 50* * 0.1
  1: 0x0074 [0x1F] MOVE_ENTITY: EventEntity moves to X=-317.663*, Z=35.068*, Y=-27.954*
  2: 0x007C [0x1F] MOVE_ENTITY: Update entity position (mode=1)
  3: 0x007E [0x1F] MOVE_ENTITY: EventEntity moves to X=-317.406*, Z=39.414*, Y=-28.000*
  4: 0x0086 [0x1F] MOVE_ENTITY: Update entity position (mode=1)
  5: 0x0088 [0x1F] MOVE_ENTITY: EventEntity moves to X=-314.943*, Z=48.579*, Y=-27.873*
  6: 0x0090 [0x1F] MOVE_ENTITY: Update entity position (mode=1)
  7: 0x0092 [0x00] END_REQSTACK()
```
