# 17343218 - Bukadaemon4

## Common Data

| Field            | Value                              |
|------------------|------------------------------------|
| Zone             | Castle Zvahl Baileys [S] (ID: 138) |
| Block Size       | 396 bytes                          |
| Total Events     | 14                                 |
| References Count | 39                                 |

## List of Events

| Event ID                   | Entrypoint   |   Size |   Instructions |
|----------------------------|--------------|--------|----------------|
| [65535](#event-65535)      | 0x0000       |      1 |              1 |
| [1](#event-1)              | 0x0001       |      1 |              1 |
| [14](#event-14)            | 0x0002       |      1 |              1 |
| [3](#event-3)              | 0x0003       |      1 |              1 |
| [65535.1](#event-655351)   | 0x0004       |     10 |              2 |
| [65535.2](#event-655352)   | 0x000E       |     10 |              2 |
| [65535.3](#event-655353)   | 0x0018       |     14 |              4 |
| [65535.4](#event-655354)   | 0x0026       |     44 |             10 |
| [65535.5](#event-655355)   | 0x0052       |      5 |              2 |
| [65535.6](#event-655356)   | 0x0057       |     10 |              3 |
| [65535.7](#event-655357)   | 0x0061       |     14 |              4 |
| [65535.8](#event-655358)   | 0x006F       |     24 |              6 |
| [65535.9](#event-655359)   | 0x0087       |     14 |              4 |
| [65535.10](#event-6553510) | 0x0095       |     17 |              5 |

## DAT References (imed_data)

|   Index | Hex Value   |   Dec Value |
|---------|-------------|-------------|
|       0 | 0x0000      |           0 |
|       1 | 0x0001      |           1 |
|       2 | 0x0080      |         128 |
|       3 | 0x0044      |          68 |
|       4 | 0xFFFA2D6E  |  4294585710 |
|       5 | 0x4972      |       18802 |
|       6 | 0xFFFF64C3  |  4294927555 |
|       7 | 0xFFFA7488  |  4294603912 |
|       8 | 0x47FA      |       18426 |
|       9 | 0xFFFF753A  |  4294931770 |
|      10 | 0xFFFA7DA7  |  4294606247 |
|      11 | 0x48C1      |       18625 |
|      12 | 0xFFFF7703  |  4294932227 |
|      13 | 0xFFFAA011  |  4294615057 |
|      14 | 0x4A8C      |       19084 |
|      15 | 0xFFFF76F8  |  4294932216 |
|      16 | 0xFFFAABD0  |  4294618064 |
|      17 | 0x4A9B      |       19099 |
|      18 | 0xFFFF79E7  |  4294932967 |
|      19 | 0x0108      |         264 |
|      20 | 0x02F0      |         752 |
|      21 | 0x0028      |          40 |
|      22 | 0x1545      |        5445 |
|      23 | 0x203F      |        8255 |
|      24 | 0xFFFFD8F0  |  4294957296 |
|      25 | 0x2258      |        8792 |
|      26 | 0x2D8A      |       11658 |
|      27 | 0xFFFFD7DD  |  4294957021 |
|      28 | 0x4401      |       17409 |
|      29 | 0x41CB      |       16843 |
|      30 | 0xFFFFD474  |  4294956148 |
|      31 | 0x0032      |          50 |
|      32 | 0x19A0E     |      104974 |
|      33 | 0x4836      |       18486 |
|      34 | 0xFFFFA240  |  4294943296 |
|      35 | 0x0096      |         150 |
|      36 | 0x21394     |      136084 |
|      37 | 0x41B1      |       16817 |
|      38 | 0xFFFFA22F  |  4294943279 |

## Events

### Event 65535

#### Metadata

| Field        | Value   |
|--------------|---------|
| Entrypoint   | 0x0000  |
| Data Size    | 1 bytes |
| Instructions | 1       |

```
      00 01 02 03 04 05 06 07  08 09 0A 0B 0C 0D 0E 0F
      -- -- -- -- -- -- -- --  -- -- -- -- -- -- -- --
0000: 00                                                .               
```

#### Opcodes

```
  0: 0x0000 [0x00] END_REQSTACK()
```

### Event 1

#### Metadata

| Field        | Value   |
|--------------|---------|
| Entrypoint   | 0x0001  |
| Data Size    | 1 bytes |
| Instructions | 1       |

```
      00 01 02 03 04 05 06 07  08 09 0A 0B 0C 0D 0E 0F
      -- -- -- -- -- -- -- --  -- -- -- -- -- -- -- --
0000:    00                                              .              
```

#### Opcodes

```
  0: 0x0001 [0x00] END_REQSTACK()
```

### Event 14

#### Metadata

| Field        | Value   |
|--------------|---------|
| Entrypoint   | 0x0002  |
| Data Size    | 1 bytes |
| Instructions | 1       |

```
      00 01 02 03 04 05 06 07  08 09 0A 0B 0C 0D 0E 0F
      -- -- -- -- -- -- -- --  -- -- -- -- -- -- -- --
0000:       00                                            .             
```

#### Opcodes

```
  0: 0x0002 [0x00] END_REQSTACK()
```

### Event 3

#### Metadata

| Field        | Value   |
|--------------|---------|
| Entrypoint   | 0x0003  |
| Data Size    | 1 bytes |
| Instructions | 1       |

```
      00 01 02 03 04 05 06 07  08 09 0A 0B 0C 0D 0E 0F
      -- -- -- -- -- -- -- --  -- -- -- -- -- -- -- --
0000:          00                                          .            
```

#### Opcodes

```
  0: 0x0003 [0x00] END_REQSTACK()
```

### Event 65535.1

#### Metadata

| Field        | Value    |
|--------------|----------|
| Entrypoint   | 0x0004   |
| Data Size    | 10 bytes |
| Instructions | 2        |

```
      00 01 02 03 04 05 06 07  08 09 0A 0B 0C 0D 0E 0F
      -- -- -- -- -- -- -- --  -- -- -- -- -- -- -- --
0000:             6C F2 A2 08  01 00 80 01 80 00            l.........  
```

#### Opcodes

```
  0: 0x0004 [0x6C] FADE_ENTITY_COLOR(entity_id=Bukadaemon4 (ID: 17343218/0x0108A2F2), end_alpha=0*, fade_time=1*)
  1: 0x000D [0x00] END_REQSTACK()
```

### Event 65535.2

#### Metadata

| Field        | Value    |
|--------------|----------|
| Entrypoint   | 0x000E   |
| Data Size    | 10 bytes |
| Instructions | 2        |

```
      00 01 02 03 04 05 06 07  08 09 0A 0B 0C 0D 0E 0F
      -- -- -- -- -- -- -- --  -- -- -- -- -- -- -- --
0000:                                            6C F2                l.
0010: A2 08 01 02 80 01 80 00                           ........        
```

#### Opcodes

```
  0: 0x000E [0x6C] FADE_ENTITY_COLOR(entity_id=Bukadaemon4 (ID: 17343218/0x0108A2F2), end_alpha=128*, fade_time=1*)
  1: 0x0017 [0x00] END_REQSTACK()
```

### Event 65535.3

#### Metadata

| Field        | Value    |
|--------------|----------|
| Entrypoint   | 0x0018   |
| Data Size    | 14 bytes |
| Instructions | 4        |

```
      00 01 02 03 04 05 06 07  08 09 0A 0B 0C 0D 0E 0F
      -- -- -- -- -- -- -- --  -- -- -- -- -- -- -- --
0010:                          32 03 80 1F 00 04 80 05          2.......
0020: 80 06 80 1F 01 00                                 ......          
```

#### Opcodes

```
  0: 0x0018 [0x32] ExtData[1]->MainSpeed = 68* * 0.1
  1: 0x001B [0x1F] MOVE_ENTITY: EventEntity moves to X=-381.586*, Z=18.802*, Y=-39.741*
  2: 0x0023 [0x1F] MOVE_ENTITY: Update entity position (mode=1)
  3: 0x0025 [0x00] END_REQSTACK()
```

### Event 65535.4

#### Metadata

| Field        | Value    |
|--------------|----------|
| Entrypoint   | 0x0026   |
| Data Size    | 44 bytes |
| Instructions | 10       |

```
      00 01 02 03 04 05 06 07  08 09 0A 0B 0C 0D 0E 0F
      -- -- -- -- -- -- -- --  -- -- -- -- -- -- -- --
0020:                   32 03  80 1F 00 07 80 08 80 09        2.........
0030: 80 1F 01 1F 00 0A 80 0B  80 0C 80 1F 01 1F 00 0D  ................
0040: 80 0E 80 0F 80 1F 01 1F  00 10 80 11 80 12 80 1F  ................
0050: 01 00                                             ..              
```

#### Opcodes

```
  0: 0x0026 [0x32] ExtData[1]->MainSpeed = 68* * 0.1
  1: 0x0029 [0x1F] MOVE_ENTITY: EventEntity moves to X=-363.384*, Z=18.426*, Y=-35.526*
  2: 0x0031 [0x1F] MOVE_ENTITY: Update entity position (mode=1)
  3: 0x0033 [0x1F] MOVE_ENTITY: EventEntity moves to X=-361.049*, Z=18.625*, Y=-35.069*
  4: 0x003B [0x1F] MOVE_ENTITY: Update entity position (mode=1)
  5: 0x003D [0x1F] MOVE_ENTITY: EventEntity moves to X=-352.239*, Z=19.084*, Y=-35.080*
  6: 0x0045 [0x1F] MOVE_ENTITY: Update entity position (mode=1)
  7: 0x0047 [0x1F] MOVE_ENTITY: EventEntity moves to X=-349.232*, Z=19.099*, Y=-34.329*
  8: 0x004F [0x1F] MOVE_ENTITY: Update entity position (mode=1)
  9: 0x0051 [0x00] END_REQSTACK()
```

### Event 65535.5

#### Metadata

| Field        | Value   |
|--------------|---------|
| Entrypoint   | 0x0052  |
| Data Size    | 5 bytes |
| Instructions | 2       |

```
      00 01 02 03 04 05 06 07  08 09 0A 0B 0C 0D 0E 0F
      -- -- -- -- -- -- -- --  -- -- -- -- -- -- -- --
0050:       B6 00 13 80 00                                .....         
```

#### Opcodes

```
  0: 0x0052 [0xB6] ENTITY_APPEARANCE_HANDLER(case=Hair style, value=264*)
  1: 0x0056 [0x00] END_REQSTACK()
```

### Event 65535.6

#### Metadata

| Field        | Value    |
|--------------|----------|
| Entrypoint   | 0x0057   |
| Data Size    | 10 bytes |
| Instructions | 3        |

```
      00 01 02 03 04 05 06 07  08 09 0A 0B 0C 0D 0E 0F
      -- -- -- -- -- -- -- --  -- -- -- -- -- -- -- --
0050:                      B6  00 14 80 80 F2 A2 08 01         .........
0060: 00                                                .               
```

#### Opcodes

```
  0: 0x0057 [0xB6] ENTITY_APPEARANCE_HANDLER(case=Hair style, value=752*)
  1: 0x005B [0x80] LOAD_WAIT(entity=Bukadaemon4 (ID: 17343218/0x0108A2F2))
  2: 0x0060 [0x00] END_REQSTACK()
```

### Event 65535.7

#### Metadata

| Field        | Value    |
|--------------|----------|
| Entrypoint   | 0x0061   |
| Data Size    | 14 bytes |
| Instructions | 4        |

```
      00 01 02 03 04 05 06 07  08 09 0A 0B 0C 0D 0E 0F
      -- -- -- -- -- -- -- --  -- -- -- -- -- -- -- --
0060:    32 15 80 1F 00 16 80  17 80 18 80 1F 01 00      2............. 
```

#### Opcodes

```
  0: 0x0061 [0x32] ExtData[1]->MainSpeed = 40* * 0.1
  1: 0x0064 [0x1F] MOVE_ENTITY: EventEntity moves to X=5.445*, Z=8.255*, Y=-10.000*
  2: 0x006C [0x1F] MOVE_ENTITY: Update entity position (mode=1)
  3: 0x006E [0x00] END_REQSTACK()
```

### Event 65535.8

#### Metadata

| Field        | Value    |
|--------------|----------|
| Entrypoint   | 0x006F   |
| Data Size    | 24 bytes |
| Instructions | 6        |

```
      00 01 02 03 04 05 06 07  08 09 0A 0B 0C 0D 0E 0F
      -- -- -- -- -- -- -- --  -- -- -- -- -- -- -- --
0060:                                               32                 2
0070: 03 80 1F 00 19 80 1A 80  1B 80 1F 01 1F 00 1C 80  ................
0080: 1D 80 1E 80 1F 01 00                              .......         
```

#### Opcodes

```
  0: 0x006F [0x32] ExtData[1]->MainSpeed = 68* * 0.1
  1: 0x0072 [0x1F] MOVE_ENTITY: EventEntity moves to X=8.792*, Z=11.658*, Y=-10.275*
  2: 0x007A [0x1F] MOVE_ENTITY: Update entity position (mode=1)
  3: 0x007C [0x1F] MOVE_ENTITY: EventEntity moves to X=17.409*, Z=16.843*, Y=-11.148*
  4: 0x0084 [0x1F] MOVE_ENTITY: Update entity position (mode=1)
  5: 0x0086 [0x00] END_REQSTACK()
```

### Event 65535.9

#### Metadata

| Field        | Value    |
|--------------|----------|
| Entrypoint   | 0x0087   |
| Data Size    | 14 bytes |
| Instructions | 4        |

```
      00 01 02 03 04 05 06 07  08 09 0A 0B 0C 0D 0E 0F
      -- -- -- -- -- -- -- --  -- -- -- -- -- -- -- --
0080:                      32  1F 80 1F 00 20 80 21 80         2.... .!.
0090: 22 80 1F 01 00                                    "....           
```

#### Opcodes

```
  0: 0x0087 [0x32] ExtData[1]->MainSpeed = 50* * 0.1
  1: 0x008A [0x1F] MOVE_ENTITY: EventEntity moves to X=104.974*, Z=18.486*, Y=-24.000*
  2: 0x0092 [0x1F] MOVE_ENTITY: Update entity position (mode=1)
  3: 0x0094 [0x00] END_REQSTACK()
```

### Event 65535.10

#### Metadata

| Field        | Value    |
|--------------|----------|
| Entrypoint   | 0x0095   |
| Data Size    | 17 bytes |
| Instructions | 5        |

```
      00 01 02 03 04 05 06 07  08 09 0A 0B 0C 0D 0E 0F
      -- -- -- -- -- -- -- --  -- -- -- -- -- -- -- --
0090:                1C 23 80  32 03 80 1F 00 24 80 25       .#.2....$.%
00A0: 80 26 80 1F 01 00                                 .&....          
```

#### Opcodes

```
  0: 0x0095 [0x1C] WAIT(150* ticks)
  1: 0x0098 [0x32] ExtData[1]->MainSpeed = 68* * 0.1
  2: 0x009B [0x1F] MOVE_ENTITY: EventEntity moves to X=136.084*, Z=16.817*, Y=-24.017*
  3: 0x00A3 [0x1F] MOVE_ENTITY: Update entity position (mode=1)
  4: 0x00A5 [0x00] END_REQSTACK()
```
