# 17343210 - Tetu09

## Common Data

| Field            | Value                              |
|------------------|------------------------------------|
| Zone             | Castle Zvahl Baileys [S] (ID: 138) |
| Block Size       | 344 bytes                          |
| Total Events     | 9                                  |
| References Count | 32                                 |

## List of Events

| Event ID                 | Entrypoint   |   Size |   Instructions |
|--------------------------|--------------|--------|----------------|
| [65535](#event-65535)    | 0x0000       |      1 |              1 |
| [14](#event-14)          | 0x0001       |      1 |              1 |
| [65535.1](#event-655351) | 0x0002       |     21 |              2 |
| [65535.2](#event-655352) | 0x0017       |     21 |              2 |
| [65535.3](#event-655353) | 0x002C       |     16 |              2 |
| [65535.4](#event-655354) | 0x003C       |     16 |              2 |
| [65535.5](#event-655355) | 0x004C       |     11 |              3 |
| [65535.6](#event-655356) | 0x0057       |     60 |             12 |
| [65535.7](#event-655357) | 0x0093       |     16 |              2 |

## DAT References (imed_data)

|   Index | Hex Value   |   Dec Value |
|---------|-------------|-------------|
|       0 | 0x0003      |           3 |
|       1 | 0x0004      |           4 |
|       2 | 0x0000      |           0 |
|       3 | 0x00DD      |         221 |
|       4 | 0x001B      |          27 |
|       5 | 0x000D      |          13 |
|       6 | 0x000C      |          12 |
|       7 | 0x00FB      |         251 |
|       8 | 0x0BD6      |        3030 |
|       9 | 0x0A9F      |        2719 |
|      10 | 0xFFFBC9BE  |  4294691262 |
|      11 | 0x5AB2      |       23218 |
|      12 | 0xFFFFB51A  |  4294948122 |
|      13 | 0xFFFBD59B  |  4294694299 |
|      14 | 0x6135      |       24885 |
|      15 | 0xFFFFB52D  |  4294948141 |
|      16 | 0xFFFBE5EE  |  4294698478 |
|      17 | 0x7316      |       29462 |
|      18 | 0xFFFFB89B  |  4294949019 |
|      19 | 0xFFFBFBA4  |  4294704036 |
|      20 | 0x7434      |       29748 |
|      21 | 0xFFFFB836  |  4294948918 |
|      22 | 0xFFFC04FC  |  4294706428 |
|      23 | 0x69FE      |       27134 |
|      24 | 0xFFFFB50E  |  4294948110 |
|      25 | 0xFFFBF814  |  4294703124 |
|      26 | 0x4353      |       17235 |
|      27 | 0xFFFFBD98  |  4294950296 |
|      28 | 0xFFFC026A  |  4294705770 |
|      29 | 0x36F2      |       14066 |
|      30 | 0xFFFFBE19  |  4294950425 |
|      31 | 0x0062      |          98 |

## Events

### Event 65535

#### Metadata

| Field        | Value   |
|--------------|---------|
| Entrypoint   | 0x0000  |
| Data Size    | 1 bytes |
| Instructions | 1       |

```
      00 01 02 03 04 05 06 07  08 09 0A 0B 0C 0D 0E 0F
      -- -- -- -- -- -- -- --  -- -- -- -- -- -- -- --
0000: 00                                                .               
```

#### Opcodes

```
  0: 0x0000 [0x00] END_REQSTACK()
```

### Event 14

#### Metadata

| Field        | Value   |
|--------------|---------|
| Entrypoint   | 0x0001  |
| Data Size    | 1 bytes |
| Instructions | 1       |

```
      00 01 02 03 04 05 06 07  08 09 0A 0B 0C 0D 0E 0F
      -- -- -- -- -- -- -- --  -- -- -- -- -- -- -- --
0000:    00                                              .              
```

#### Opcodes

```
  0: 0x0001 [0x00] END_REQSTACK()
```

### Event 65535.1

#### Metadata

| Field        | Value    |
|--------------|----------|
| Entrypoint   | 0x0002   |
| Data Size    | 21 bytes |
| Instructions | 2        |

```
      00 01 02 03 04 05 06 07  08 09 0A 0B 0C 0D 0E 0F
      -- -- -- -- -- -- -- --  -- -- -- -- -- -- -- --
0000:       B6 0B 00 80 01 80  02 80 03 80 03 80 03 80    ..............
0010: 03 80 04 80 02 80 00                              .......         
```

#### Opcodes

```
  0: 0x0002 [0xB6] ENTITY_APPEARANCE_HANDLER(case=Full entity look, race=3*, hair=4*, head=0*, body=221*, hands=221*, legs=221*, feet=221*, main=27*, sub=0*)
  1: 0x0016 [0x00] END_REQSTACK()
```

### Event 65535.2

#### Metadata

| Field        | Value    |
|--------------|----------|
| Entrypoint   | 0x0017   |
| Data Size    | 21 bytes |
| Instructions | 2        |

```
      00 01 02 03 04 05 06 07  08 09 0A 0B 0C 0D 0E 0F
      -- -- -- -- -- -- -- --  -- -- -- -- -- -- -- --
0010:                      B6  0B 00 80 01 80 05 80 03         .........
0020: 80 05 80 06 80 03 80 07  80 04 80 00              ............    
```

#### Opcodes

```
  0: 0x0017 [0xB6] ENTITY_APPEARANCE_HANDLER(case=Full entity look, race=3*, hair=4*, head=13*, body=221*, hands=13*, legs=12*, feet=221*, main=251*, sub=27*)
  1: 0x002B [0x00] END_REQSTACK()
```

### Event 65535.3

#### Metadata

| Field        | Value    |
|--------------|----------|
| Entrypoint   | 0x002C   |
| Data Size    | 16 bytes |
| Instructions | 2        |

```
      00 01 02 03 04 05 06 07  08 09 0A 0B 0C 0D 0E 0F
      -- -- -- -- -- -- -- --  -- -- -- -- -- -- -- --
0020:                                      5B 08 80 EA              [...
0030: A2 08 01 EA A2 08 01 62  61 74 6C 00              .......batl.    
```

#### Opcodes

```
  0: 0x002C [0x5B] LOAD_EXT_SCHEDULER: Load scheduler "batl" with entities [Tetu09 (ID: 17343210/0x0108A2EA), Tetu09 (ID: 17343210/0x0108A2EA)], work=3030*
  1: 0x003B [0x00] END_REQSTACK()
```

### Event 65535.4

#### Metadata

| Field        | Value    |
|--------------|----------|
| Entrypoint   | 0x003C   |
| Data Size    | 16 bytes |
| Instructions | 2        |

```
      00 01 02 03 04 05 06 07  08 09 0A 0B 0C 0D 0E 0F
      -- -- -- -- -- -- -- --  -- -- -- -- -- -- -- --
0030:                                      5B 09 80 EA              [...
0040: A2 08 01 EA A2 08 01 6B  6F 65 62 00              .......koeb.    
```

#### Opcodes

```
  0: 0x003C [0x5B] LOAD_EXT_SCHEDULER: Load scheduler "koeb" with entities [Tetu09 (ID: 17343210/0x0108A2EA), Tetu09 (ID: 17343210/0x0108A2EA)], work=2719*
  1: 0x004B [0x00] END_REQSTACK()
```

### Event 65535.5

#### Metadata

| Field        | Value    |
|--------------|----------|
| Entrypoint   | 0x004C   |
| Data Size    | 11 bytes |
| Instructions | 3        |

```
      00 01 02 03 04 05 06 07  08 09 0A 0B 0C 0D 0E 0F
      -- -- -- -- -- -- -- --  -- -- -- -- -- -- -- --
0040:                                      1F 00 0A 80              ....
0050: 0B 80 0C 80 1F 01 00                              .......         
```

#### Opcodes

```
  0: 0x004C [0x1F] MOVE_ENTITY: EventEntity moves to X=-276.034*, Z=23.218*, Y=-19.174*
  1: 0x0054 [0x1F] MOVE_ENTITY: Update entity position (mode=1)
  2: 0x0056 [0x00] END_REQSTACK()
```

### Event 65535.6

#### Metadata

| Field        | Value    |
|--------------|----------|
| Entrypoint   | 0x0057   |
| Data Size    | 60 bytes |
| Instructions | 12       |

```
      00 01 02 03 04 05 06 07  08 09 0A 0B 0C 0D 0E 0F
      -- -- -- -- -- -- -- --  -- -- -- -- -- -- -- --
0050:                      1F  00 0D 80 0E 80 0F 80 1F         .........
0060: 01 1F 00 10 80 11 80 12  80 1F 01 1F 00 13 80 14  ................
0070: 80 15 80 1F 01 1F 00 16  80 17 80 18 80 1F 01 1F  ................
0080: 00 19 80 1A 80 1B 80 1F  01 1F 00 1C 80 1D 80 1E  ................
0090: 80 1F 01                                          ...             
```

#### Opcodes

```
  0: 0x0057 [0x1F] MOVE_ENTITY: EventEntity moves to X=-272.997*, Z=24.885*, Y=-19.155*
  1: 0x005F [0x1F] MOVE_ENTITY: Update entity position (mode=1)
  2: 0x0061 [0x1F] MOVE_ENTITY: EventEntity moves to X=-268.818*, Z=29.462*, Y=-18.277*
  3: 0x0069 [0x1F] MOVE_ENTITY: Update entity position (mode=1)
  4: 0x006B [0x1F] MOVE_ENTITY: EventEntity moves to X=-263.260*, Z=29.748*, Y=-18.378*
  5: 0x0073 [0x1F] MOVE_ENTITY: Update entity position (mode=1)
  6: 0x0075 [0x1F] MOVE_ENTITY: EventEntity moves to X=-260.868*, Z=27.134*, Y=-19.186*
  7: 0x007D [0x1F] MOVE_ENTITY: Update entity position (mode=1)
  8: 0x007F [0x1F] MOVE_ENTITY: EventEntity moves to X=-264.172*, Z=17.235*, Y=-17.000*
  9: 0x0087 [0x1F] MOVE_ENTITY: Update entity position (mode=1)
 10: 0x0089 [0x1F] MOVE_ENTITY: EventEntity moves to X=-261.526*, Z=14.066*, Y=-16.871*
 11: 0x0091 [0x1F] MOVE_ENTITY: Update entity position (mode=1)
```

### Event 65535.7

#### Metadata

| Field        | Value    |
|--------------|----------|
| Entrypoint   | 0x0093   |
| Data Size    | 16 bytes |
| Instructions | 2        |

```
      00 01 02 03 04 05 06 07  08 09 0A 0B 0C 0D 0E 0F
      -- -- -- -- -- -- -- --  -- -- -- -- -- -- -- --
0090:          66 1F 80 EA A2  08 01 EA A2 08 01 66 6B     f..........fk
00A0: 69 61 00                                          ia.             
```

#### Opcodes

```
  0: 0x0093 [0x66] LOAD_EXT_SCHEDULER_MAIN: Load scheduler "fkia" with entities [Tetu09 (ID: 17343210/0x0108A2EA), Tetu09 (ID: 17343210/0x0108A2EA)], work=98*
  1: 0x00A2 [0x00] END_REQSTACK()
```
