# 17343187

## Common Data

| Field            | Value                              |
|------------------|------------------------------------|
| Zone             | Castle Zvahl Baileys [S] (ID: 138) |
| Block Size       | 240 bytes                          |
| Total Events     | 6                                  |
| References Count | 22                                 |

## List of Events

| Event ID                 | Entrypoint   |   Size |   Instructions |
|--------------------------|--------------|--------|----------------|
| [65535](#event-65535)    | 0x0000       |      1 |              1 |
| [12](#event-12)          | 0x0001       |      7 |              2 |
| [13](#event-13)          | 0x0008       |      7 |              2 |
| [65535.1](#event-655351) | 0x000F       |     32 |              8 |
| [65535.2](#event-655352) | 0x002F       |     16 |              4 |
| [65535.3](#event-655353) | 0x003F       |     47 |             11 |

## DAT References (imed_data)

|   Index | Hex Value   |   Dec Value |
|---------|-------------|-------------|
|       0 | 0x000F      |          15 |
|       1 | 0x0000      |           0 |
|       2 | 0x0078      |         120 |
|       3 | 0x000D      |          13 |
|       4 | 0x4E9A5     |      321957 |
|       5 | 0xFFFFA734  |  4294944564 |
|       6 | 0xFFFFC171  |  4294951281 |
|       7 | 0x0001      |           1 |
|       8 | 0x001E      |          30 |
|       9 | 0x0028      |          40 |
|      10 | 0x4A926     |      305446 |
|      11 | 0xFFFFB226  |  4294947366 |
|      12 | 0xFFFFC168  |  4294951272 |
|      13 | 0x49C6A     |      302186 |
|      14 | 0xFFFFB7E9  |  4294948841 |
|      15 | 0xFFFFC180  |  4294951296 |
|      16 | 0x49586     |      300422 |
|      17 | 0xFFFFC5DE  |  4294952414 |
|      18 | 0xFFFFC165  |  4294951269 |
|      19 | 0x492B3     |      299699 |
|      20 | 0x1009      |        4105 |
|      21 | 0xFFFFC17E  |  4294951294 |

## Events

### Event 65535

#### Metadata

| Field        | Value   |
|--------------|---------|
| Entrypoint   | 0x0000  |
| Data Size    | 1 bytes |
| Instructions | 1       |

```
      00 01 02 03 04 05 06 07  08 09 0A 0B 0C 0D 0E 0F
      -- -- -- -- -- -- -- --  -- -- -- -- -- -- -- --
0000: 00                                                .               
```

#### Opcodes

```
  0: 0x0000 [0x00] END_REQSTACK()
```

### Event 12

#### Metadata

| Field        | Value   |
|--------------|---------|
| Entrypoint   | 0x0001  |
| Data Size    | 7 bytes |
| Instructions | 2       |

```
      00 01 02 03 04 05 06 07  08 09 0A 0B 0C 0D 0E 0F
      -- -- -- -- -- -- -- --  -- -- -- -- -- -- -- --
0000:    92 01 F8 FF FF 7F 00                            .......        
```

#### Opcodes

```
  0: 0x0001 [0x92] EventEntity->Render.Flags3 ^= 0x01
  1: 0x0007 [0x00] END_REQSTACK()
```

### Event 13

#### Metadata

| Field        | Value   |
|--------------|---------|
| Entrypoint   | 0x0008  |
| Data Size    | 7 bytes |
| Instructions | 2       |

```
      00 01 02 03 04 05 06 07  08 09 0A 0B 0C 0D 0E 0F
      -- -- -- -- -- -- -- --  -- -- -- -- -- -- -- --
0000:                          92 01 F8 FF FF 7F 00             ....... 
```

#### Opcodes

```
  0: 0x0008 [0x92] EventEntity->Render.Flags3 ^= 0x01
  1: 0x000E [0x00] END_REQSTACK()
```

### Event 65535.1

#### Metadata

| Field        | Value    |
|--------------|----------|
| Entrypoint   | 0x000F   |
| Data Size    | 32 bytes |
| Instructions | 8        |

```
      00 01 02 03 04 05 06 07  08 09 0A 0B 0C 0D 0E 0F
      -- -- -- -- -- -- -- --  -- -- -- -- -- -- -- --
0000:                                               1C                 .
0010: 00 80 4B D3 A2 08 01 01  80 1C 02 80 32 03 80 1F  ..K.........2...
0020: 00 04 80 05 80 06 80 1F  01 1E CA A2 08 01 00     ............... 
```

#### Opcodes

```
  0: 0x000F [0x1C] WAIT(15* ticks)
  1: 0x0012 [0x4B] UPDATE_ENTITY_YAW(entity=Unnamed NPC (ID: 17343187/0x0108A2D3), yaw=0.0°*)
  2: 0x0019 [0x1C] WAIT(120* ticks)
  3: 0x001C [0x32] ExtData[1]->MainSpeed = 13* * 0.1
  4: 0x001F [0x1F] MOVE_ENTITY: EventEntity moves to X=321.957*, Z=-22.732*, Y=-16.015*
  5: 0x0027 [0x1F] MOVE_ENTITY: Update entity position (mode=1)
  6: 0x0029 [0x1E] EventEntity looks at Volker (ID: 17343178/0x0108A2CA) and starts talking
  7: 0x002E [0x00] END_REQSTACK()
```

### Event 65535.2

#### Metadata

| Field        | Value    |
|--------------|----------|
| Entrypoint   | 0x002F   |
| Data Size    | 16 bytes |
| Instructions | 4        |

```
      00 01 02 03 04 05 06 07  08 09 0A 0B 0C 0D 0E 0F
      -- -- -- -- -- -- -- --  -- -- -- -- -- -- -- --
0020:                                               1C                 .
0030: 00 80 6E D3 A2 08 01 07  80 99 D3 A2 08 01 00     ..n............ 
```

#### Opcodes

```
  0: 0x002F [0x1C] WAIT(15* ticks)
  1: 0x0032 [0x6E] Unnamed NPC (ID: 17343187/0x0108A2D3) uses emote 1*
  2: 0x0039 [0x99] Wait for Unnamed NPC (ID: 17343187/0x0108A2D3) animation to complete
  3: 0x003E [0x00] END_REQSTACK()
```

### Event 65535.3

#### Metadata

| Field        | Value    |
|--------------|----------|
| Entrypoint   | 0x003F   |
| Data Size    | 47 bytes |
| Instructions | 11       |

```
      00 01 02 03 04 05 06 07  08 09 0A 0B 0C 0D 0E 0F
      -- -- -- -- -- -- -- --  -- -- -- -- -- -- -- --
0030:                                               1C                 .
0040: 08 80 32 09 80 1F 00 0A  80 0B 80 0C 80 1F 01 1F  ..2.............
0050: 00 0D 80 0E 80 0F 80 1F  01 1F 00 10 80 11 80 12  ................
0060: 80 1F 01 1F 00 13 80 14  80 15 80 1F 01 00        ..............  
```

#### Opcodes

```
  0: 0x003F [0x1C] WAIT(30* ticks)
  1: 0x0042 [0x32] ExtData[1]->MainSpeed = 40* * 0.1
  2: 0x0045 [0x1F] MOVE_ENTITY: EventEntity moves to X=305.446*, Z=-19.930*, Y=-16.024*
  3: 0x004D [0x1F] MOVE_ENTITY: Update entity position (mode=1)
  4: 0x004F [0x1F] MOVE_ENTITY: EventEntity moves to X=302.186*, Z=-18.455*, Y=-16.000*
  5: 0x0057 [0x1F] MOVE_ENTITY: Update entity position (mode=1)
  6: 0x0059 [0x1F] MOVE_ENTITY: EventEntity moves to X=300.422*, Z=-14.882*, Y=-16.027*
  7: 0x0061 [0x1F] MOVE_ENTITY: Update entity position (mode=1)
  8: 0x0063 [0x1F] MOVE_ENTITY: EventEntity moves to X=299.699*, Z=4.105*, Y=-16.002*
  9: 0x006B [0x1F] MOVE_ENTITY: Update entity position (mode=1)
 10: 0x006D [0x00] END_REQSTACK()
```
