# 17343162 - Ukai03

## Common Data

| Field            | Value                              |
|------------------|------------------------------------|
| Zone             | Castle Zvahl Baileys [S] (ID: 138) |
| Block Size       | 396 bytes                          |
| Total Events     | 13                                 |
| References Count | 33                                 |

## List of Events

| Event ID                   | Entrypoint   |   Size |   Instructions |
|----------------------------|--------------|--------|----------------|
| [65535](#event-65535)      | 0x0000       |      1 |              1 |
| [1](#event-1)              | 0x0001       |      1 |              1 |
| [65535.1](#event-655351)   | 0x0002       |     14 |              4 |
| [65535.2](#event-655352)   | 0x0010       |     14 |              4 |
| [65535.3](#event-655353)   | 0x001E       |     52 |             10 |
| [65535.4](#event-655354)   | 0x0052       |     10 |              2 |
| [65535.5](#event-655355)   | 0x005C       |     10 |              2 |
| [65535.6](#event-655356)   | 0x0066       |     21 |              2 |
| [65535.7](#event-655357)   | 0x007B       |     21 |              2 |
| [65535.8](#event-655358)   | 0x0090       |     21 |              2 |
| [65535.9](#event-655359)   | 0x00A5       |      5 |              2 |
| [65535.10](#event-6553510) | 0x00AA       |      5 |              2 |
| [65535.11](#event-6553511) | 0x00AF       |     19 |              3 |

## DAT References (imed_data)

|   Index | Hex Value   |   Dec Value |
|---------|-------------|-------------|
|       0 | 0x000C      |          12 |
|       1 | 0xFFFA5271  |  4294595185 |
|       2 | 0xFFFF9B7E  |  4294941566 |
|       3 | 0xFFFFE969  |  4294961513 |
|       4 | 0x0028      |          40 |
|       5 | 0x40F25     |      266021 |
|       6 | 0xEE6E      |       61038 |
|       7 | 0xFFFFAEF3  |  4294946547 |
|       8 | 0x003C      |          60 |
|       9 | 0x3B7E6     |      243686 |
|      10 | 0xF8D6      |       63702 |
|      11 | 0xFFFFA240  |  4294943296 |
|      12 | 0x3A2FD     |      238333 |
|      13 | 0xFE1C      |       65052 |
|      14 | 0xFFFFA231  |  4294943281 |
|      15 | 0x076C      |        1900 |
|      16 | 0x001E      |          30 |
|      17 | 0x001D      |          29 |
|      18 | 0x0000      |           0 |
|      19 | 0x0001      |           1 |
|      20 | 0x0080      |         128 |
|      21 | 0x0003      |           3 |
|      22 | 0x00DD      |         221 |
|      23 | 0x00FB      |         251 |
|      24 | 0x001B      |          27 |
|      25 | 0x0008      |           8 |
|      26 | 0x0096      |         150 |
|      27 | 0x0151      |         337 |
|      28 | 0x0009      |           9 |
|      29 | 0x000D      |          13 |
|      30 | 0x0036      |          54 |
|      31 | 0x0078      |         120 |
|      32 | 0x0BD5      |        3029 |

## Events

### Event 65535

#### Metadata

| Field        | Value   |
|--------------|---------|
| Entrypoint   | 0x0000  |
| Data Size    | 1 bytes |
| Instructions | 1       |

```
      00 01 02 03 04 05 06 07  08 09 0A 0B 0C 0D 0E 0F
      -- -- -- -- -- -- -- --  -- -- -- -- -- -- -- --
0000: 00                                                .               
```

#### Opcodes

```
  0: 0x0000 [0x00] END_REQSTACK()
```

### Event 1

#### Metadata

| Field        | Value   |
|--------------|---------|
| Entrypoint   | 0x0001  |
| Data Size    | 1 bytes |
| Instructions | 1       |

```
      00 01 02 03 04 05 06 07  08 09 0A 0B 0C 0D 0E 0F
      -- -- -- -- -- -- -- --  -- -- -- -- -- -- -- --
0000:    00                                              .              
```

#### Opcodes

```
  0: 0x0001 [0x00] END_REQSTACK()
```

### Event 65535.1

#### Metadata

| Field        | Value    |
|--------------|----------|
| Entrypoint   | 0x0002   |
| Data Size    | 14 bytes |
| Instructions | 4        |

```
      00 01 02 03 04 05 06 07  08 09 0A 0B 0C 0D 0E 0F
      -- -- -- -- -- -- -- --  -- -- -- -- -- -- -- --
0000:       32 00 80 1F 00 01  80 02 80 03 80 1F 01 00    2.............
```

#### Opcodes

```
  0: 0x0002 [0x32] ExtData[1]->MainSpeed = 12* * 0.1
  1: 0x0005 [0x1F] MOVE_ENTITY: EventEntity moves to X=-372.111*, Z=-25.730*, Y=-5.783*
  2: 0x000D [0x1F] MOVE_ENTITY: Update entity position (mode=1)
  3: 0x000F [0x00] END_REQSTACK()
```

### Event 65535.2

#### Metadata

| Field        | Value    |
|--------------|----------|
| Entrypoint   | 0x0010   |
| Data Size    | 14 bytes |
| Instructions | 4        |

```
      00 01 02 03 04 05 06 07  08 09 0A 0B 0C 0D 0E 0F
      -- -- -- -- -- -- -- --  -- -- -- -- -- -- -- --
0010: 32 04 80 1F 00 05 80 06  80 07 80 1F 01 00        2.............  
```

#### Opcodes

```
  0: 0x0010 [0x32] ExtData[1]->MainSpeed = 40* * 0.1
  1: 0x0013 [0x1F] MOVE_ENTITY: EventEntity moves to X=266.021*, Z=61.038*, Y=-20.749*
  2: 0x001B [0x1F] MOVE_ENTITY: Update entity position (mode=1)
  3: 0x001D [0x00] END_REQSTACK()
```

### Event 65535.3

#### Metadata

| Field        | Value    |
|--------------|----------|
| Entrypoint   | 0x001E   |
| Data Size    | 52 bytes |
| Instructions | 10       |

```
      00 01 02 03 04 05 06 07  08 09 0A 0B 0C 0D 0E 0F
      -- -- -- -- -- -- -- --  -- -- -- -- -- -- -- --
0010:                                            32 04                2.
0020: 80 1C 08 80 1F 00 09 80  0A 80 0B 80 1F 01 1F 00  ................
0030: 0C 80 0D 80 0E 80 1F 01  4B BA A2 08 01 0F 80 1C  ........K.......
0040: 10 80 66 11 80 BA A2 08  01 BA A2 08 01 73 68 61  ..f..........sha
0050: 30 00                                             0.              
```

#### Opcodes

```
  0: 0x001E [0x32] ExtData[1]->MainSpeed = 40* * 0.1
  1: 0x0021 [0x1C] WAIT(60* ticks)
  2: 0x0024 [0x1F] MOVE_ENTITY: EventEntity moves to X=243.686*, Z=63.702*, Y=-24.000*
  3: 0x002C [0x1F] MOVE_ENTITY: Update entity position (mode=1)
  4: 0x002E [0x1F] MOVE_ENTITY: EventEntity moves to X=238.333*, Z=65.052*, Y=-24.015*
  5: 0x0036 [0x1F] MOVE_ENTITY: Update entity position (mode=1)
  6: 0x0038 [0x4B] UPDATE_ENTITY_YAW(entity=Ukai03 (ID: 17343162/0x0108A2BA), yaw=10.4°*)
  7: 0x003F [0x1C] WAIT(30* ticks)
  8: 0x0042 [0x66] LOAD_EXT_SCHEDULER_MAIN: Load scheduler "sha0" with entities [Ukai03 (ID: 17343162/0x0108A2BA), Ukai03 (ID: 17343162/0x0108A2BA)], work=29*
  9: 0x0051 [0x00] END_REQSTACK()
```

### Event 65535.4

#### Metadata

| Field        | Value    |
|--------------|----------|
| Entrypoint   | 0x0052   |
| Data Size    | 10 bytes |
| Instructions | 2        |

```
      00 01 02 03 04 05 06 07  08 09 0A 0B 0C 0D 0E 0F
      -- -- -- -- -- -- -- --  -- -- -- -- -- -- -- --
0050:       6C BA A2 08 01 12  80 13 80 00                l.........    
```

#### Opcodes

```
  0: 0x0052 [0x6C] FADE_ENTITY_COLOR(entity_id=Ukai03 (ID: 17343162/0x0108A2BA), end_alpha=0*, fade_time=1*)
  1: 0x005B [0x00] END_REQSTACK()
```

### Event 65535.5

#### Metadata

| Field        | Value    |
|--------------|----------|
| Entrypoint   | 0x005C   |
| Data Size    | 10 bytes |
| Instructions | 2        |

```
      00 01 02 03 04 05 06 07  08 09 0A 0B 0C 0D 0E 0F
      -- -- -- -- -- -- -- --  -- -- -- -- -- -- -- --
0050:                                      6C BA A2 08              l...
0060: 01 14 80 13 80 00                                 ......          
```

#### Opcodes

```
  0: 0x005C [0x6C] FADE_ENTITY_COLOR(entity_id=Ukai03 (ID: 17343162/0x0108A2BA), end_alpha=128*, fade_time=1*)
  1: 0x0065 [0x00] END_REQSTACK()
```

### Event 65535.6

#### Metadata

| Field        | Value    |
|--------------|----------|
| Entrypoint   | 0x0066   |
| Data Size    | 21 bytes |
| Instructions | 2        |

```
      00 01 02 03 04 05 06 07  08 09 0A 0B 0C 0D 0E 0F
      -- -- -- -- -- -- -- --  -- -- -- -- -- -- -- --
0060:                   B6 0B  15 80 13 80 16 80 16 80        ..........
0070: 16 80 16 80 16 80 17 80  18 80 00                 ...........     
```

#### Opcodes

```
  0: 0x0066 [0xB6] ENTITY_APPEARANCE_HANDLER(case=Full entity look, race=3*, hair=1*, head=221*, body=221*, hands=221*, legs=221*, feet=221*, main=251*, sub=27*)
  1: 0x007A [0x00] END_REQSTACK()
```

### Event 65535.7

#### Metadata

| Field        | Value    |
|--------------|----------|
| Entrypoint   | 0x007B   |
| Data Size    | 21 bytes |
| Instructions | 2        |

```
      00 01 02 03 04 05 06 07  08 09 0A 0B 0C 0D 0E 0F
      -- -- -- -- -- -- -- --  -- -- -- -- -- -- -- --
0070:                                   B6 0B 15 80 19             .....
0080: 80 1A 80 16 80 16 80 16  80 16 80 1B 80 12 80 00  ................
```

#### Opcodes

```
  0: 0x007B [0xB6] ENTITY_APPEARANCE_HANDLER(case=Full entity look, race=3*, hair=8*, head=150*, body=221*, hands=221*, legs=221*, feet=221*, main=337*, sub=0*)
  1: 0x008F [0x00] END_REQSTACK()
```

### Event 65535.8

#### Metadata

| Field        | Value    |
|--------------|----------|
| Entrypoint   | 0x0090   |
| Data Size    | 21 bytes |
| Instructions | 2        |

```
      00 01 02 03 04 05 06 07  08 09 0A 0B 0C 0D 0E 0F
      -- -- -- -- -- -- -- --  -- -- -- -- -- -- -- --
0090: B6 0B 15 80 1C 80 18 80  1D 80 16 80 1D 80 00 80  ................
00A0: 17 80 12 80 00                                    .....           
```

#### Opcodes

```
  0: 0x0090 [0xB6] ENTITY_APPEARANCE_HANDLER(case=Full entity look, race=3*, hair=9*, head=27*, body=13*, hands=221*, legs=13*, feet=12*, main=251*, sub=0*)
  1: 0x00A4 [0x00] END_REQSTACK()
```

### Event 65535.9

#### Metadata

| Field        | Value   |
|--------------|---------|
| Entrypoint   | 0x00A5  |
| Data Size    | 5 bytes |
| Instructions | 2       |

```
      00 01 02 03 04 05 06 07  08 09 0A 0B 0C 0D 0E 0F
      -- -- -- -- -- -- -- --  -- -- -- -- -- -- -- --
00A0:                B6 0A 1E  80 00                         .....      
```

#### Opcodes

```
  0: 0x00A5 [0xB6] ENTITY_APPEARANCE_HANDLER(case=Ranged, value=54*)
  1: 0x00A9 [0x00] END_REQSTACK()
```

### Event 65535.10

#### Metadata

| Field        | Value   |
|--------------|---------|
| Entrypoint   | 0x00AA  |
| Data Size    | 5 bytes |
| Instructions | 2       |

```
      00 01 02 03 04 05 06 07  08 09 0A 0B 0C 0D 0E 0F
      -- -- -- -- -- -- -- --  -- -- -- -- -- -- -- --
00A0:                                B6 0A 12 80 00               ..... 
```

#### Opcodes

```
  0: 0x00AA [0xB6] ENTITY_APPEARANCE_HANDLER(case=Ranged, value=0*)
  1: 0x00AE [0x00] END_REQSTACK()
```

### Event 65535.11

#### Metadata

| Field        | Value    |
|--------------|----------|
| Entrypoint   | 0x00AF   |
| Data Size    | 19 bytes |
| Instructions | 3        |

```
      00 01 02 03 04 05 06 07  08 09 0A 0B 0C 0D 0E 0F
      -- -- -- -- -- -- -- --  -- -- -- -- -- -- -- --
00A0:                                               1C                 .
00B0: 1F 80 5B 20 80 BA A2 08  01 BA A2 08 01 62 67 6E  ..[ .........bgn
00C0: 31 00                                             1.              
```

#### Opcodes

```
  0: 0x00AF [0x1C] WAIT(120* ticks)
  1: 0x00B2 [0x5B] LOAD_EXT_SCHEDULER: Load scheduler "bgn1" with entities [Ukai03 (ID: 17343162/0x0108A2BA), Ukai03 (ID: 17343162/0x0108A2BA)], work=3029*
  2: 0x00C1 [0x00] END_REQSTACK()
```
