# 17343176

## Common Data

| Field            | Value                              |
|------------------|------------------------------------|
| Zone             | Castle Zvahl Baileys [S] (ID: 138) |
| Block Size       | 16084 bytes                        |
| Total Events     | 5                                  |
| References Count | 647                                |

## List of Events

| Event ID              | Entrypoint   |   Size |   Instructions |
|-----------------------|--------------|--------|----------------|
| [65535](#event-65535) | 0x0000       |      1 |              1 |
| [2](#event-2)         | 0x0001       |   2927 |            353 |
| [14](#event-14)       | 0x0B70       |   7424 |            773 |
| [15](#event-15)       | 0x2870       |   2342 |            257 |
| [11](#event-11)       | 0x3196       |    764 |             83 |

## DAT References (imed_data)

|   Index | Hex Value   |   Dec Value |
|---------|-------------|-------------|
|       0 | 0x0013      |          19 |
|       1 | 0x0000      |           0 |
|       2 | 0x1F7CC     |      128972 |
|       3 | 0x18A1E     |      100894 |
|       4 | 0xFFFFA1F3  |  4294943219 |
|       5 | 0x07F2      |        2034 |
|       6 | 0x1EAF6     |      125686 |
|       7 | 0x1832F     |       99119 |
|       8 | 0xFFFFA1D5  |  4294943189 |
|       9 | 0x1A215     |      107029 |
|      10 | 0x185AB     |       99755 |
|      11 | 0xFFFFA1D0  |  4294943184 |
|      12 | 0x0811      |        2065 |
|      13 | 0x1EA67     |      125543 |
|      14 | 0x17ADE     |       96990 |
|      15 | 0xFFFFA0D8  |  4294942936 |
|      16 | 0x081B      |        2075 |
|      17 | 0x222BF     |      139967 |
|      18 | 0xE161      |       57697 |
|      19 | 0xFFFFA219  |  4294943257 |
|      20 | 0x0C08      |        3080 |
|      21 | 0x19021     |      102433 |
|      22 | 0x18556     |       99670 |
|      23 | 0xFFFFA240  |  4294943296 |
|      24 | 0x0FA3      |        4003 |
|      25 | 0x1ED4E     |      126286 |
|      26 | 0x18A3D     |      100925 |
|      27 | 0xFFFFA1AF  |  4294943151 |
|      28 | 0x002F      |          47 |
|      29 | 0x1E2E6     |      123622 |
|      30 | 0x18332     |       99122 |
|      31 | 0xFFFFA221  |  4294943265 |
|      32 | 0x223B7     |      140215 |
|      33 | 0xEBF7      |       60407 |
|      34 | 0xFFFF6B90  |  4294929296 |
|      35 | 0x0078      |         120 |
|      36 | 0x000C      |          12 |
|      37 | 0x0BD6      |        3030 |
|      38 | 0x0B18      |        2840 |
|      39 | 0x003C      |          60 |
|      40 | 0x01FB      |         507 |
|      41 | 0x002A      |          42 |
|      42 | 0x005A      |          90 |
|      43 | 0x1DD2      |        7634 |
|      44 | 0x00B4      |         180 |
|      45 | 0x1DD3      |        7635 |
|      46 | 0x001E      |          30 |
|      47 | 0x0096      |         150 |
|      48 | 0x06B8      |        1720 |
|      49 | 0x1DD4      |        7636 |
|      50 | 0x1E71C     |      124700 |
|      51 | 0x179C5     |       96709 |
|      52 | 0xFFFFA0B1  |  4294942897 |
|      53 | 0x0400      |        1024 |
|      54 | 0x0857      |        2135 |
|      55 | 0x0BB6      |        2998 |
|      56 | 0x1DD5      |        7637 |
|      57 | 0x0028      |          40 |
|      58 | 0x0016      |          22 |
|      59 | 0x0082      |         130 |
|      60 | 0x1DD6      |        7638 |
|      61 | 0x0BD8      |        3032 |
|      62 | 0x1DD7      |        7639 |
|      63 | 0x2204F     |      139343 |
|      64 | 0x16146     |       90438 |
|      65 | 0xFFFFA159  |  4294943065 |
|      66 | 0x2268A     |      140938 |
|      67 | 0x149E9     |       84457 |
|      68 | 0xFFFFA12F  |  4294943023 |
|      69 | 0x22321     |      140065 |
|      70 | 0x13F38     |       81720 |
|      71 | 0xFFFFA1CA  |  4294943178 |
|      72 | 0x22276     |      139894 |
|      73 | 0xD22E      |       53806 |
|      74 | 0xFFFFA1C6  |  4294943174 |
|      75 | 0x09C4      |        2500 |
|      76 | 0x000E      |          14 |
|      77 | 0x0AF7      |        2807 |
|      78 | 0x0ABB      |        2747 |
|      79 | 0x1DB8      |        7608 |
|      80 | 0x0005      |           5 |
|      81 | 0x0258      |         600 |
|      82 | 0x1DD8      |        7640 |
|      83 | 0x000F      |          15 |
|      84 | 0x1DD9      |        7641 |
|      85 | 0x0008      |           8 |
|      86 | 0x2216B     |      139627 |
|      87 | 0x11982     |       72066 |
|      88 | 0xFFFFA18E  |  4294943118 |
|      89 | 0x0325      |         805 |
|      90 | 0x1DDA      |        7642 |
|      91 | 0x1DDB      |        7643 |
|      92 | 0x00D9      |         217 |
|      93 | 0x1DDC      |        7644 |
|      94 | 0x2231E     |      140062 |
|      95 | 0x10466     |       66662 |
|      96 | 0xFFFFA23F  |  4294943295 |
|      97 | 0x0401      |        1025 |
|      98 | 0x002D      |          45 |
|      99 | 0x0C13      |        3091 |
|     100 | 0x0856      |        2134 |
|     101 | 0x1DDD      |        7645 |
|     102 | 0x1DDE      |        7646 |
|     103 | 0x0BD7      |        3031 |
|     104 | 0x0046      |          70 |
|     105 | 0x1DDF      |        7647 |
|     106 | 0x223D5     |      140245 |
|     107 | 0xF728      |       63272 |
|     108 | 0xFFFFA22E  |  4294943278 |
|     109 | 0x1DE0      |        7648 |
|     110 | 0x1DE1      |        7649 |
|     111 | 0x1DE2      |        7650 |
|     112 | 0x1DE3      |        7651 |
|     113 | 0x22F2A     |      143146 |
|     114 | 0x112FF     |       70399 |
|     115 | 0xFFFFA0C2  |  4294942914 |
|     116 | 0x03FC      |        1020 |
|     117 | 0x09E4      |        2532 |
|     118 | 0x00DC      |         220 |
|     119 | 0x1DE4      |        7652 |
|     120 | 0x007F      |         127 |
|     121 | 0x1DE5      |        7653 |
|     122 | 0x1DE6      |        7654 |
|     123 | 0x00C8      |         200 |
|     124 | 0x0089      |         137 |
|     125 | 0x00FF      |         255 |
|     126 | 0x0001      |           1 |
|     127 | 0xFFFB093F  |  4294641983 |
|     128 | 0xFFFFFAEB  |  4294965995 |
|     129 | 0xFFFFA6BF  |  4294944447 |
|     130 | 0x0FF7      |        4087 |
|     131 | 0xFFFB1341  |  4294644545 |
|     132 | 0xFFFFF8B5  |  4294965429 |
|     133 | 0xFFFF92A0  |  4294939296 |
|     134 | 0x0380      |         896 |
|     135 | 0xFFFBD823  |  4294694947 |
|     136 | 0x91FF      |       37375 |
|     137 | 0xFFFFB55F  |  4294948191 |
|     138 | 0x0830      |        2096 |
|     139 | 0xFFFB34AC  |  4294653100 |
|     140 | 0x1407A     |       82042 |
|     141 | 0xFFFF9451  |  4294939729 |
|     142 | 0xFFFB7450  |  4294669392 |
|     143 | 0x11C6E     |       72814 |
|     144 | 0xFFFF9512  |  4294939922 |
|     145 | 0xFFFFFC9D  |  4294966429 |
|     146 | 0xFFFF92A1  |  4294939297 |
|     147 | 0xFFFB70D0  |  4294668496 |
|     148 | 0x14EFC     |       85756 |
|     149 | 0xFFFF94A5  |  4294939813 |
|     150 | 0xFFFB6B4D  |  4294667085 |
|     151 | 0x12F6E     |       77678 |
|     152 | 0xFFFF94A0  |  4294939808 |
|     153 | 0x0FF8      |        4088 |
|     154 | 0xFFFB1DDB  |  4294647259 |
|     155 | 0xFFFFE171  |  4294959473 |
|     156 | 0xFFFF935E  |  4294939486 |
|     157 | 0x0A2F      |        2607 |
|     158 | 0xFFFB4F93  |  4294659987 |
|     159 | 0x139BD     |       80317 |
|     160 | 0xFFFF98AD  |  4294940845 |
|     161 | 0xFFFB185A  |  4294645850 |
|     162 | 0xFFFFCD6F  |  4294954351 |
|     163 | 0xFFFF90A4  |  4294938788 |
|     164 | 0x0B96      |        2966 |
|     165 | 0xFFFB4FA8  |  4294660008 |
|     166 | 0x123B3     |       74675 |
|     167 | 0xFFFF98AB  |  4294940843 |
|     168 | 0xFFFB2EB4  |  4294651572 |
|     169 | 0x0D2F      |        3375 |
|     170 | 0xFFFF8E60  |  4294938208 |
|     171 | 0x04E7      |        1255 |
|     172 | 0xFFFB4768  |  4294657896 |
|     173 | 0x11859     |       71769 |
|     174 | 0xFFFF9809  |  4294940681 |
|     175 | 0xFFFB15F7  |  4294645239 |
|     176 | 0x17F2      |        6130 |
|     177 | 0xFFFF930A  |  4294939402 |
|     178 | 0x0349      |         841 |
|     179 | 0xFFFB694E  |  4294666574 |
|     180 | 0x150B3     |       86195 |
|     181 | 0xFFFF9634  |  4294940212 |
|     182 | 0xFFFB69E8  |  4294666728 |
|     183 | 0x137F9     |       79865 |
|     184 | 0xFFFF94FA  |  4294939898 |
|     185 | 0xFFFB4530  |  4294657328 |
|     186 | 0x13766     |       79718 |
|     187 | 0xFFFF97B3  |  4294940595 |
|     188 | 0xFFFB4577  |  4294657399 |
|     189 | 0x11E05     |       73221 |
|     190 | 0xFFFF97BE  |  4294940606 |
|     191 | 0xFFFB6979  |  4294666617 |
|     192 | 0x145E4     |       83428 |
|     193 | 0xFFFF9526  |  4294939942 |
|     194 | 0x0516      |        1302 |
|     195 | 0x006F      |         111 |
|     196 | 0x0531      |        1329 |
|     197 | 0x0079      |         121 |
|     198 | 0x05C8      |        1480 |
|     199 | 0x08B1      |        2225 |
|     200 | 0x0BD5      |        3029 |
|     201 | 0x0981      |        2433 |
|     202 | 0x0A3A      |        2618 |
|     203 | 0x0C0A      |        3082 |
|     204 | 0x00FE      |         254 |
|     205 | 0x0011      |          17 |
|     206 | 0x0012      |          18 |
|     207 | 0x05D6      |        1494 |
|     208 | 0x0090      |         144 |
|     209 | 0x009D      |         157 |
|     210 | 0xFFFF7FAF  |  4294934447 |
|     211 | 0xFFFF9143  |  4294938947 |
|     212 | 0xFFFB0EC5  |  4294643397 |
|     213 | 0xFFFFF288  |  4294963848 |
|     214 | 0x037F      |         895 |
|     215 | 0xFFFB1C8D  |  4294646925 |
|     216 | 0xFFFFFB5E  |  4294966110 |
|     217 | 0xFFFB1071  |  4294643825 |
|     218 | 0x04A0      |        1184 |
|     219 | 0xFFFB30F1  |  4294652145 |
|     220 | 0xFFFFD227  |  4294955559 |
|     221 | 0xFFFF93E2  |  4294939618 |
|     222 | 0x08DE      |        2270 |
|     223 | 0xFFFB1156  |  4294644054 |
|     224 | 0x2AFC      |       11004 |
|     225 | 0xFFFF93FD  |  4294939645 |
|     226 | 0x052F      |        1327 |
|     227 | 0xFFFBCE6B  |  4294692459 |
|     228 | 0x8AAF      |       35503 |
|     229 | 0xFFFFB2F1  |  4294947569 |
|     230 | 0xFFFBD904  |  4294695172 |
|     231 | 0x8AEE      |       35566 |
|     232 | 0xFFFFB596  |  4294948246 |
|     233 | 0x06A4      |        1700 |
|     234 | 0x000A      |          10 |
|     235 | 0xFFFB95AD  |  4294677933 |
|     236 | 0x3084      |       12420 |
|     237 | 0xFFFFAFB7  |  4294946743 |
|     238 | 0x07E9      |        2025 |
|     239 | 0xFFFB5E56  |  4294663766 |
|     240 | 0xFFFF46A6  |  4294919846 |
|     241 | 0xFFFF9783  |  4294940547 |
|     242 | 0x0AD7      |        2775 |
|     243 | 0xFFFB1CAB  |  4294646955 |
|     244 | 0x394D      |       14669 |
|     245 | 0xFFFF9539  |  4294939961 |
|     246 | 0xFFFB5FF1  |  4294664177 |
|     247 | 0xFFFF4CC2  |  4294921410 |
|     248 | 0xFFFF96A6  |  4294940326 |
|     249 | 0x0B05      |        2821 |
|     250 | 0xFFFB1C15  |  4294646805 |
|     251 | 0x10EAA     |       69290 |
|     252 | 0xFFFF93EE  |  4294939630 |
|     253 | 0xFFFB8078  |  4294672504 |
|     254 | 0xDA4F      |       55887 |
|     255 | 0xFFFFA090  |  4294942864 |
|     256 | 0x0433      |        1075 |
|     257 | 0xFFFB32B0  |  4294652592 |
|     258 | 0x8B25      |       35621 |
|     259 | 0xFFFF914A  |  4294938954 |
|     260 | 0xFFFB9047  |  4294676551 |
|     261 | 0x63C5      |       25541 |
|     262 | 0xFFFFAE47  |  4294946375 |
|     263 | 0x0B5C      |        2908 |
|     264 | 0xFFFB850D  |  4294673677 |
|     265 | 0xB081      |       45185 |
|     266 | 0xFFFFA69E  |  4294944414 |
|     267 | 0x080E      |        2062 |
|     268 | 0xFFFB264A  |  4294649418 |
|     269 | 0x534C      |       21324 |
|     270 | 0xFFFF9646  |  4294940230 |
|     271 | 0x00F3      |         243 |
|     272 | 0xFFFB2A22  |  4294650402 |
|     273 | 0x7321      |       29473 |
|     274 | 0xFFFF93E5  |  4294939621 |
|     275 | 0x0CEB      |        3307 |
|     276 | 0x0018      |          24 |
|     277 | 0x09B8      |        2488 |
|     278 | 0x008A      |         138 |
|     279 | 0x08E5      |        2277 |
|     280 | 0x0809      |        2057 |
|     281 | 0x05F9      |        1529 |
|     282 | 0x0077      |         119 |
|     283 | 0xFFFB4687  |  4294657671 |
|     284 | 0xFFFF6964  |  4294928740 |
|     285 | 0xFFFF97E7  |  4294940647 |
|     286 | 0x0AE3      |        2787 |
|     287 | 0x00D2      |         210 |
|     288 | 0xFFFB8FF0  |  4294676464 |
|     289 | 0x85AF      |       34223 |
|     290 | 0xFFFFAB21  |  4294945569 |
|     291 | 0x07FE      |        2046 |
|     292 | 0xFFFB77E6  |  4294670310 |
|     293 | 0xFE5C      |       65116 |
|     294 | 0xFFFF9883  |  4294940803 |
|     295 | 0xFFFB7FA7  |  4294672295 |
|     296 | 0xC31A      |       49946 |
|     297 | 0xFFFFA3E0  |  4294943712 |
|     298 | 0x0588      |        1416 |
|     299 | 0xFFFB81CD  |  4294672845 |
|     300 | 0x10570     |       66928 |
|     301 | 0xFFFF96F1  |  4294940401 |
|     302 | 0x05C1      |        1473 |
|     303 | 0xFFFB6AD7  |  4294666967 |
|     304 | 0x1162D     |       71213 |
|     305 | 0xFFFF971E  |  4294940446 |
|     306 | 0x0405      |        1029 |
|     307 | 0xFFFB9734  |  4294678324 |
|     308 | 0x5CCD      |       23757 |
|     309 | 0xFFFFB078  |  4294946936 |
|     310 | 0x07F7      |        2039 |
|     311 | 0xFFFB9E20  |  4294680096 |
|     312 | 0xAB77      |       43895 |
|     313 | 0xFFFFAEAE  |  4294946478 |
|     314 | 0x0519      |        1305 |
|     315 | 0xFFFB8980  |  4294674816 |
|     316 | 0x9B1A      |       39706 |
|     317 | 0xFFFFA7B7  |  4294944695 |
|     318 | 0x036C      |         876 |
|     319 | 0xFFFB65EA  |  4294665706 |
|     320 | 0xFB1B      |       64283 |
|     321 | 0xFFFF9A36  |  4294941238 |
|     322 | 0x0FA7      |        4007 |
|     323 | 0xFFFB7EAC  |  4294672044 |
|     324 | 0x8631      |       34353 |
|     325 | 0xFFFFA677  |  4294944375 |
|     326 | 0x07E2      |        2018 |
|     327 | 0xFFFB9CF8  |  4294679800 |
|     328 | 0x8A57      |       35415 |
|     329 | 0xFFFFAE81  |  4294946433 |
|     330 | 0x0BB0      |        2992 |
|     331 | 0xFFFB7492  |  4294669458 |
|     332 | 0xC046      |       49222 |
|     333 | 0xFFFFA21B  |  4294943259 |
|     334 | 0x008C      |         140 |
|     335 | 0xFFFB2900  |  4294650112 |
|     336 | 0xFFFF6B6D  |  4294929261 |
|     337 | 0x0B78      |        2936 |
|     338 | 0xFFFB235B  |  4294648667 |
|     339 | 0xFFFF99B3  |  4294941107 |
|     340 | 0xFFFF94E2  |  4294939874 |
|     341 | 0x0B5D      |        2909 |
|     342 | 0xFFFB39DF  |  4294654431 |
|     343 | 0xFFFFB00A  |  4294946826 |
|     344 | 0xFFFF965D  |  4294940253 |
|     345 | 0x08C8      |        2248 |
|     346 | 0xFFFB3E2F  |  4294655535 |
|     347 | 0xFFFF4A82  |  4294920834 |
|     348 | 0xFFFF955E  |  4294939998 |
|     349 | 0x0389      |         905 |
|     350 | 0xFFFB5267  |  4294660711 |
|     351 | 0xFFFF8222  |  4294935074 |
|     352 | 0xFFFF9849  |  4294940745 |
|     353 | 0x0EE8      |        3816 |
|     354 | 0xFFFB59B8  |  4294662584 |
|     355 | 0xFFFF564E  |  4294923854 |
|     356 | 0xFFFF986F  |  4294940783 |
|     357 | 0x03DF      |         991 |
|     358 | 0xFFFB40E9  |  4294656233 |
|     359 | 0xFFFF7483  |  4294931587 |
|     360 | 0xFFFF970D  |  4294940429 |
|     361 | 0x023B      |         571 |
|     362 | 0xFFFB2265  |  4294648421 |
|     363 | 0xFFFFA4EB  |  4294943979 |
|     364 | 0xFFFF95E3  |  4294940131 |
|     365 | 0x02D9      |         729 |
|     366 | 0xFFFB1C8C  |  4294646924 |
|     367 | 0xFFFF6747  |  4294928199 |
|     368 | 0x0F00      |        3840 |
|     369 | 0xFFFB270D  |  4294649613 |
|     370 | 0x103DD     |       66525 |
|     371 | 0xFFFF94C0  |  4294939840 |
|     372 | 0xFFFB3B74  |  4294654836 |
|     373 | 0x23B4      |        9140 |
|     374 | 0xFFFF90B2  |  4294938802 |
|     375 | 0x0617      |        1559 |
|     376 | 0xFFFB9B89  |  4294679433 |
|     377 | 0x0974      |        2420 |
|     378 | 0xFFFFABCF  |  4294945743 |
|     379 | 0x0B50      |        2896 |
|     380 | 0xFFFB0616  |  4294641174 |
|     381 | 0xFFFF93F7  |  4294939639 |
|     382 | 0xFFFF91E7  |  4294939111 |
|     383 | 0x0B82      |        2946 |
|     384 | 0xFFFB3451  |  4294653009 |
|     385 | 0x7480      |       29824 |
|     386 | 0xFFFF927F  |  4294939263 |
|     387 | 0x04B7      |        1207 |
|     388 | 0xFFFB246B  |  4294648939 |
|     389 | 0x604D      |       24653 |
|     390 | 0xFFFF957C  |  4294940028 |
|     391 | 0x04C2      |        1218 |
|     392 | 0xFFFB30D7  |  4294652119 |
|     393 | 0x4F31      |       20273 |
|     394 | 0xFFFF9602  |  4294940162 |
|     395 | 0x0595      |        1429 |
|     396 | 0xFFFB3ABB  |  4294654651 |
|     397 | 0x149F      |        5279 |
|     398 | 0xFFFF8F9F  |  4294938527 |
|     399 | 0x0DB1      |        3505 |
|     400 | 0xFFFB2644  |  4294649412 |
|     401 | 0x2E03      |       11779 |
|     402 | 0xFFFF9420  |  4294939680 |
|     403 | 0x0CC6      |        3270 |
|     404 | 0xFFFB1356  |  4294644566 |
|     405 | 0xFFFF9CF8  |  4294941944 |
|     406 | 0xFFFF9536  |  4294939958 |
|     407 | 0x0BB2      |        2994 |
|     408 | 0x0014      |          20 |
|     409 | 0xFFFB2257  |  4294648407 |
|     410 | 0xFFFF6B54  |  4294929236 |
|     411 | 0x0B51      |        2897 |
|     412 | 0xFFFB2E5D  |  4294651485 |
|     413 | 0xFFFF72F3  |  4294931187 |
|     414 | 0xFFFF929E  |  4294939294 |
|     415 | 0x01A4      |         420 |
|     416 | 0xFFFB7677  |  4294669943 |
|     417 | 0xFFFFCFA1  |  4294954913 |
|     418 | 0xFFFF9DE1  |  4294942177 |
|     419 | 0x08C4      |        2244 |
|     420 | 0xFFFB8638  |  4294673976 |
|     421 | 0xFFFF8F0A  |  4294938378 |
|     422 | 0xFFFF9506  |  4294939910 |
|     423 | 0x008D      |         141 |
|     424 | 0xFFFB113C  |  4294644028 |
|     425 | 0xFFFF6D96  |  4294929814 |
|     426 | 0x02FE      |         766 |
|     427 | 0xFFFB03F9  |  4294640633 |
|     428 | 0xFFFF5E49  |  4294925897 |
|     429 | 0xFFFF9057  |  4294938711 |
|     430 | 0x0B6E      |        2926 |
|     431 | 0x0B93      |        2963 |
|     432 | 0xFFFB1134  |  4294644020 |
|     433 | 0x12D5      |        4821 |
|     434 | 0xFFFF92C9  |  4294939337 |
|     435 | 0xFFFB2C63  |  4294650979 |
|     436 | 0xFFFFF6B8  |  4294964920 |
|     437 | 0x0064      |         100 |
|     438 | 0xFFFB20FD  |  4294648061 |
|     439 | 0xFFFFD508  |  4294956296 |
|     440 | 0xFFFF938E  |  4294939534 |
|     441 | 0x0B16      |        2838 |
|     442 | 0xFFFB27D4  |  4294649812 |
|     443 | 0xFFFFDC91  |  4294958225 |
|     444 | 0xFFFF939C  |  4294939548 |
|     445 | 0x0A04      |        2564 |
|     446 | 0xFFFB2411  |  4294648849 |
|     447 | 0x05AD      |        1453 |
|     448 | 0x06D0      |        1744 |
|     449 | 0x006E      |         110 |
|     450 | 0x0050      |          80 |
|     451 | 0xFFFB20D8  |  4294648024 |
|     452 | 0xFFFFC65F  |  4294952543 |
|     453 | 0xFFFF9541  |  4294939969 |
|     454 | 0x0B11      |        2833 |
|     455 | 0xFFFB2B0C  |  4294650636 |
|     456 | 0xFFFFD525  |  4294956325 |
|     457 | 0xFFFF93FB  |  4294939643 |
|     458 | 0x0966      |        2406 |
|     459 | 0xFFFB307E  |  4294652030 |
|     460 | 0xFFFF9D92  |  4294942098 |
|     461 | 0xFFFF956A  |  4294940010 |
|     462 | 0x0834      |        2100 |
|     463 | 0xFFFB16B3  |  4294645427 |
|     464 | 0xFFFFE66C  |  4294960748 |
|     465 | 0xFFFF931F  |  4294939423 |
|     466 | 0x0C3D      |        3133 |
|     467 | 0xFFFB2737  |  4294649655 |
|     468 | 0xFFFF9D58  |  4294942040 |
|     469 | 0xFFFF9540  |  4294939968 |
|     470 | 0x0BBD      |        3005 |
|     471 | 0x0511      |        1297 |
|     472 | 0xFFFFDDB7  |  4294958519 |
|     473 | 0xFFFB3EC0  |  4294655680 |
|     474 | 0xFFFF7665  |  4294932069 |
|     475 | 0xFFFF96BB  |  4294940347 |
|     476 | 0xFFFB45AB  |  4294657451 |
|     477 | 0xFFFF4687  |  4294919815 |
|     478 | 0xFFFF9793  |  4294940563 |
|     479 | 0x0B32      |        2866 |
|     480 | 0x00AA      |         170 |
|     481 | 0xFFFBA9FA  |  4294683130 |
|     482 | 0x23E5      |        9189 |
|     483 | 0xFFFFB2AB  |  4294947499 |
|     484 | 0x05EC      |        1516 |
|     485 | 0xFFFB1A5C  |  4294646364 |
|     486 | 0xFFFF6D24  |  4294929700 |
|     487 | 0x0374      |         884 |
|     488 | 0x090E      |        2318 |
|     489 | 0x0A9F      |        2719 |
|     490 | 0xFFFB0CD3  |  4294642899 |
|     491 | 0x0653      |        1619 |
|     492 | 0xFFFF922B  |  4294939179 |
|     493 | 0xFFFFEF83  |  4294963075 |
|     494 | 0x1DE7      |        7655 |
|     495 | 0xFFFBA00E  |  4294680590 |
|     496 | 0xBA97      |       47767 |
|     497 | 0xFFFFAF59  |  4294946649 |
|     498 | 0x047E      |        1150 |
|     499 | 0xFFFBA469  |  4294681705 |
|     500 | 0xFD86      |       64902 |
|     501 | 0xFFFFB3EA  |  4294947818 |
|     502 | 0xFFFB20EA  |  4294648042 |
|     503 | 0x0395      |         917 |
|     504 | 0xFFFBA5D5  |  4294682069 |
|     505 | 0x114B2     |       70834 |
|     506 | 0xFFFFB29B  |  4294947483 |
|     507 | 0x037E      |         894 |
|     508 | 0xFFFB7909  |  4294670601 |
|     509 | 0xBA3B      |       47675 |
|     510 | 0xFFFFA415  |  4294943765 |
|     511 | 0xFFFB268D  |  4294649485 |
|     512 | 0x702C      |       28716 |
|     513 | 0xFFFF940A  |  4294939658 |
|     514 | 0x0C2B      |        3115 |
|     515 | 0xFFFB20AA  |  4294647978 |
|     516 | 0x70B6      |       28854 |
|     517 | 0xFFFF9404  |  4294939652 |
|     518 | 0xFFFB1028  |  4294643752 |
|     519 | 0x0180      |         384 |
|     520 | 0xFFFBB244  |  4294685252 |
|     521 | 0x10DB9     |       69049 |
|     522 | 0xFFFFB33A  |  4294947642 |
|     523 | 0xFFFB9DBF  |  4294679999 |
|     524 | 0xEEEA      |       61162 |
|     525 | 0xFFFFB34C  |  4294947660 |
|     526 | 0x03BF      |         959 |
|     527 | 0xFFFB972B  |  4294678315 |
|     528 | 0xC6D8      |       50904 |
|     529 | 0xFFFFADC8  |  4294946248 |
|     530 | 0x0369      |         873 |
|     531 | 0x04B0      |        1200 |
|     532 | 0xFFFBA4D8  |  4294681816 |
|     533 | 0x4850      |       18512 |
|     534 | 0xFFFFB4A5  |  4294948005 |
|     535 | 0xFFFBAAD9  |  4294683353 |
|     536 | 0x82C5      |       33477 |
|     537 | 0xFFFFB25D  |  4294947421 |
|     538 | 0xFFFBBD7B  |  4294688123 |
|     539 | 0x2124      |        8484 |
|     540 | 0xFFFFB2BF  |  4294947519 |
|     541 | 0xFFFBDBF6  |  4294695926 |
|     542 | 0xB261      |       45665 |
|     543 | 0xFFFFB582  |  4294948226 |
|     544 | 0xFFFBF73F  |  4294702911 |
|     545 | 0xC4BB      |       50363 |
|     546 | 0xFFFFB7D3  |  4294948819 |
|     547 | 0xFFFBC3E4  |  4294689764 |
|     548 | 0x97F8      |       38904 |
|     549 | 0xFFFFB1E0  |  4294947296 |
|     550 | 0x1DE8      |        7656 |
|     551 | 0x0C0D      |        3085 |
|     552 | 0xFFFCBDD8  |  4294753752 |
|     553 | 0x6B90      |       27536 |
|     554 | 0xFFFFE6F6  |  4294960886 |
|     555 | 0x0A23      |        2595 |
|     556 | 0x0827      |        2087 |
|     557 | 0x004F      |          79 |
|     558 | 0xFFFBE2EF  |  4294697711 |
|     559 | 0xB596      |       46486 |
|     560 | 0xFFFFB73A  |  4294948666 |
|     561 | 0x0A24      |        2596 |
|     562 | 0xFFFC04FC  |  4294706428 |
|     563 | 0x69FE      |       27134 |
|     564 | 0xFFFFB50E  |  4294948110 |
|     565 | 0xFFFC110F  |  4294709519 |
|     566 | 0x9576      |       38262 |
|     567 | 0xFFFFB2E3  |  4294947555 |
|     568 | 0xFFFC1F9D  |  4294713245 |
|     569 | 0x71F6      |       29174 |
|     570 | 0xFFFFB422  |  4294947874 |
|     571 | 0x06C4      |        1732 |
|     572 | 0x0062      |          98 |
|     573 | 0xFFFBF5F2  |  4294702578 |
|     574 | 0x91AD      |       37293 |
|     575 | 0xFFFFB72A  |  4294948650 |
|     576 | 0xFFFC0D78  |  4294708600 |
|     577 | 0xA327      |       41767 |
|     578 | 0xFFFFB32F  |  4294947631 |
|     579 | 0x0093      |         147 |
|     580 | 0xFFFC1729  |  4294711081 |
|     581 | 0x8966      |       35174 |
|     582 | 0xFFFFB310  |  4294947600 |
|     583 | 0x0C8E      |        3214 |
|     584 | 0xFFFB5279  |  4294660729 |
|     585 | 0x26D2      |        9938 |
|     586 | 0xFFFF8EFC  |  4294938364 |
|     587 | 0x0C0B      |        3083 |
|     588 | 0x1DEA      |        7658 |
|     589 | 0x1DEB      |        7659 |
|     590 | 0x012C      |         300 |
|     591 | 0x00F0      |         240 |
|     592 | 0x22023     |      139299 |
|     593 | 0x11928     |       71976 |
|     594 | 0xFFFFA145  |  4294943045 |
|     595 | 0x03B6      |         950 |
|     596 | 0x223EA     |      140266 |
|     597 | 0x113D6     |       70614 |
|     598 | 0xFFFFA177  |  4294943095 |
|     599 | 0x2232F     |      140079 |
|     600 | 0xFC78      |       64632 |
|     601 | 0xFFFFA236  |  4294943286 |
|     602 | 0x03FF      |        1023 |
|     603 | 0x0C03      |        3075 |
|     604 | 0xFFFF4C50  |  4294921296 |
|     605 | 0x0002      |           2 |
|     606 | 0x0003      |           3 |
|     607 | 0x085F      |        2143 |
|     608 | 0x1DEC      |        7660 |
|     609 | 0x1DED      |        7661 |
|     610 | 0x0BDD      |        3037 |
|     611 | 0x1DEE      |        7662 |
|     612 | 0x1DEF      |        7663 |
|     613 | 0x1DF0      |        7664 |
|     614 | 0x1DF1      |        7665 |
|     615 | 0x1DF2      |        7666 |
|     616 | 0x1DF3      |        7667 |
|     617 | 0x0015      |          21 |
|     618 | 0x1DF4      |        7668 |
|     619 | 0x0BB1      |        2993 |
|     620 | 0x1DF5      |        7669 |
|     621 | 0x1DF6      |        7670 |
|     622 | 0x1DF7      |        7671 |
|     623 | 0x1DF8      |        7672 |
|     624 | 0x0ABE      |        2750 |
|     625 | 0x1DFA      |        7674 |
|     626 | 0x0055      |          85 |
|     627 | 0x0AF8      |        2808 |
|     628 | 0x1DFB      |        7675 |
|     629 | 0x1DFC      |        7676 |
|     630 | 0x1DFD      |        7677 |
|     631 | 0x00A0      |         160 |
|     632 | 0x1DFE      |        7678 |
|     633 | 0x1DFF      |        7679 |
|     634 | 0x1E00      |        7680 |
|     635 | 0x1E01      |        7681 |
|     636 | 0x04D7      |        1239 |
|     637 | 0x1E02      |        7682 |
|     638 | 0x1E03      |        7683 |
|     639 | 0x2B6AA     |      177834 |
|     640 | 0x18F37     |      102199 |
|     641 | 0xFFFF9DAB  |  4294942123 |
|     642 | 0x060D      |        1549 |
|     643 | 0x1E04      |        7684 |
|     644 | 0x1E05      |        7685 |
|     645 | 0x00C9      |         201 |
|     646 | 0x00D7      |         215 |

## String References

- **7608**: @@
- **7684**: 6 has been left here.
- **7685**: Obtain the $3? [Yes./No.]

## Events

### Event 65535

#### Metadata

| Field        | Value   |
|--------------|---------|
| Entrypoint   | 0x0000  |
| Data Size    | 1 bytes |
| Instructions | 1       |

```
      00 01 02 03 04 05 06 07  08 09 0A 0B 0C 0D 0E 0F
      -- -- -- -- -- -- -- --  -- -- -- -- -- -- -- --
0000: 00                                                .               
```

#### Opcodes

```
  0: 0x0000 [0x00] END_REQSTACK()
```

### Event 2

#### Metadata

| Field        | Value      |
|--------------|------------|
| Entrypoint   | 0x0001     |
| Data Size    | 2927 bytes |
| Instructions | 353        |

```
      00 01 02 03 04 05 06 07  08 09 0A 0B 0C 0D 0E 0F
      -- -- -- -- -- -- -- --  -- -- -- -- -- -- -- --
0000:    42 1A 64 32 46 01 38  00 80 03 00 00 09 10 5C   B.d2F.8.......\
0010: 00 01 80 5C 01 01 80 5C  02 01 80 5C 03 01 80 9A  ...\...\...\....
0020: 27 10 AF A2 08 01 04 2F  00 B0 A2 08 01 2F 00 B1  '....../...../..
0030: A2 08 01 2F 00 B2 A2 08  01 2F 00 C0 A2 08 01 2F  .../...../...../
0040: 00 EF A2 08 01 2F 00 F0  A2 08 01 2F 00 F1 A2 08  ...../...../....
0050: 01 2F 00 F5 A2 08 01 4E  00 B0 A2 08 01 4E 00 B1  ./.....N.....N..
0060: A2 08 01 4E 00 B2 A2 08  01 4E 00 C0 A2 08 01 4E  ...N.....N.....N
0070: 00 EF A2 08 01 4E 00 F0  A2 08 01 4E 00 F1 A2 08  .....N.....N....
0080: 01 4E 00 F5 A2 08 01 92  01 AF A2 08 01 92 01 B0  .N..............
0090: A2 08 01 92 01 B1 A2 08  01 92 01 B2 A2 08 01 92  ................
00A0: 01 C0 A2 08 01 92 01 EF  A2 08 01 92 01 F0 A2 08  ................
00B0: 01 92 01 F1 A2 08 01 92  01 F5 A2 08 01 94 01 F0  ................
00C0: FF FF 7F 94 01 AF A2 08  01 94 01 B0 A2 08 01 94  ................
00D0: 01 B1 A2 08 01 94 01 B2  A2 08 01 94 01 C0 A2 08  ................
00E0: 01 94 01 EF A2 08 01 94  01 F0 A2 08 01 94 01 F1  ................
00F0: A2 08 01 94 01 F5 A2 08  01 59 05 F5 A2 08 01 01  .........Y......
0100: BA F0 FF FF 7F 02 80 03  80 04 80 05 80 BA AF A2  ................
0110: 08 01 06 80 07 80 08 80  05 80 BA B0 A2 08 01 09  ................
0120: 80 0A 80 0B 80 0C 80 BA  B1 A2 08 01 0D 80 0E 80  ................
0130: 0F 80 10 80 BA C0 A2 08  01 11 80 12 80 13 80 14  ................
0140: 80 BA EF A2 08 01 15 80  16 80 17 80 18 80 BA F0  ................
0150: A2 08 01 19 80 1A 80 1B  80 1C 80 BA F1 A2 08 01  ................
0160: 1D 80 1E 80 1F 80 1C 80  BA F5 A2 08 01 20 80 21  ............. .!
0170: 80 22 80 01 80 80 F0 FF  FF 7F 80 AF A2 08 01 80  ."..............
0180: B0 A2 08 01 80 B1 A2 08  01 80 C0 A2 08 01 80 EF  ................
0190: A2 08 01 27 10 B1 A2 08  01 0D 27 10 C0 A2 08 01  ...'......'.....
01A0: 06 1C 23 80 CD 24 80 F0  FF FF 7F F0 FF FF 7F 73  ..#..$.........s
01B0: 30 30 30 01 80 5B 25 80  B0 A2 08 01 B0 A2 08 01  000..[%.........
01C0: 62 61 74 6C 5B 26 80 AF  A2 08 01 AF A2 08 01 62  batl[&.........b
01D0: 61 74 6C 29 10 F0 FF FF  7F 0A 1C 27 80 81 00 AF  atl).......'....
01E0: A2 08 01 7C 00 B0 A2 08  01 45 28 80 F0 FF FF 7F  ...|.....E(.....
01F0: F0 FF FF 7F 30 34 30 30  01 80 1A 43 32 2C EF A2  ....0400...C2,..
0200: 08 01 EF A2 08 01 64 65  61 64 1C 23 80 5C 00 29  ......dead.#.\.)
0210: 80 5C 01 29 80 5C 02 29  80 5C 03 29 80 9A 52 28  .\.).\.).\.)..R(
0220: 80 F0 FF FF 7F F0 FF FF  7F 30 34 30 30 45 28 80  .........0400E(.
0230: F0 FF FF 7F F0 FF FF 7F  30 34 30 31 01 80 1C 2A  ........0401...*
0240: 80 5B 25 80 B0 A2 08 01  B0 A2 08 01 6B 79 6F 30  .[%.........kyo0
0250: 1C 27 80 2B B0 A2 08 01  2B 80 1C 2C 80 7C 01 B0  .'.+....+..,.|..
0260: A2 08 01 2B B0 A2 08 01  2D 80 1C 2A 80 52 28 80  ...+....-..*.R(.
0270: F0 FF FF 7F F0 FF FF 7F  30 34 30 31 45 28 80 F0  ........0401E(..
0280: FF FF 7F F0 FF FF 7F 30  34 30 33 01 80 1C 23 80  .......0403...#.
0290: 52 28 80 F0 FF FF 7F F0  FF FF 7F 30 34 30 33 45  R(.........0403E
02A0: 28 80 F0 FF FF 7F F0 FF  FF 7F 30 34 30 32 01 80  (.........0402..
02B0: 1C 23 80 23 52 28 80 F0  FF FF 7F F0 FF FF 7F 30  .#.#R(.........0
02C0: 34 30 32 45 28 80 F0 FF  FF 7F F0 FF FF 7F 30 34  402E(.........04
02D0: 30 34 01 80 1C 2E 80 6B  69 64 6C 30 B0 A2 08 01  04.....kidl0....
02E0: 2C F1 A2 08 01 F1 A2 08  01 64 65 61 64 1C 2E 80  ,........dead...
02F0: 2C F0 A2 08 01 F0 A2 08  01 64 65 61 64 1C 27 80  ,........dead.'.
0300: 27 10 F0 FF FF 7F 0B 1C  27 80 52 28 80 F0 FF FF  '.......'.R(....
0310: 7F F0 FF FF 7F 30 34 30  34 45 28 80 F0 FF FF 7F  .....0404E(.....
0320: F0 FF FF 7F 30 34 30 36  01 80 1C 27 80 5B 26 80  ....0406...'.[&.
0330: AF A2 08 01 AF A2 08 01  62 61 74 31 1C 2F 80 81  ........bat1./..
0340: 01 AF A2 08 01 79 00 AF  A2 08 01 B1 A2 08 01 4B  .....y.........K
0350: AF A2 08 01 30 80 2B AF  A2 08 01 31 80 1C 27 80  ....0.+....1..'.
0360: 52 28 80 F0 FF FF 7F F0  FF FF 7F 30 34 30 36 45  R(.........0406E
0370: 28 80 F0 FF FF 7F F0 FF  FF 7F 30 34 33 30 01 80  (.........0430..
0380: 1C 23 80 CD 24 80 F0 FF  FF 7F F0 FF FF 7F 73 30  .#..$.........s0
0390: 30 31 01 80 1C 2A 80 23  52 28 80 F0 FF FF 7F F0  01...*.#R(......
03A0: FF FF 7F 30 34 33 30 45  28 80 F0 FF FF 7F F0 FF  ...0430E(.......
03B0: FF 7F 30 34 30 35 01 80  27 10 AF A2 08 01 17 7B  ..0405..'......{
03C0: AF A2 08 01 79 00 F0 FF  FF 7F AF A2 08 01 1C 2A  ....y..........*
03D0: 80 7A 00 AF A2 08 01 1C  2E 80 81 00 AF A2 08 01  .z..............
03E0: 7C 00 AF A2 08 01 59 05  AF A2 08 01 01 BA AF A2  |.....Y.........
03F0: 08 01 32 80 33 80 34 80  35 80 5B 36 80 AF A2 08  ..2.3.4.5.[6....
0400: 01 AF A2 08 01 66 63 30  31 5B 37 80 AF A2 08 01  .....fc01[7.....
0410: AF A2 08 01 6B 62 65 30  1C 2E 80 52 28 80 F0 FF  ....kbe0...R(...
0420: FF 7F F0 FF FF 7F 30 34  30 35 45 28 80 F0 FF FF  ......0405E(....
0430: 7F F0 FF FF 7F 30 34 30  37 01 80 4A F0 FF FF 7F  .....0407..J....
0440: AF A2 08 01 2B AF A2 08  01 38 80 1C 39 80 23 5B  ....+....8..9.#[
0450: 36 80 AF A2 08 01 AF A2  08 01 66 63 30 30 6E F0  6.........fc00n.
0460: FF FF 7F 3A 80 99 F0 FF  FF 7F 1C 2A 80 52 28 80  ...:.......*.R(.
0470: F0 FF FF 7F F0 FF FF 7F  30 34 30 37 45 28 80 F0  ........0407E(..
0480: FF FF 7F F0 FF FF 7F 30  34 32 77 01 80 1C 2E 80  .......042w.....
0490: CD 24 80 F0 FF FF 7F F0  FF FF 7F 73 30 30 31 01  .$.........s001.
04A0: 80 1C 23 80 52 28 80 F0  FF FF 7F F0 FF FF 7F 30  ..#.R(.........0
04B0: 34 32 77 45 28 80 F0 FF  FF 7F F0 FF FF 7F 30 34  42wE(.........04
04C0: 30 38 01 80 1C 2E 80 5B  36 80 AF A2 08 01 AF A2  08.....[6.......
04D0: 08 01 66 63 30 31 5B 37  80 AF A2 08 01 AF A2 08  ..fc01[7........
04E0: 01 6B 62 65 31 03 02 10  3B 80 27 10 C6 A2 08 01  .kbe1...;.'.....
04F0: 01 2B AF A2 08 01 3C 80  23 2A 10 C6 A2 08 01 5B  .+....<.#*.....[
0500: 36 80 AF A2 08 01 AF A2  08 01 66 63 30 30 5B 3D  6.........fc00[=
0510: 80 B0 A2 08 01 B0 A2 08  01 66 72 69 30 1C 2E 80  .........fri0...
0520: 52 28 80 F0 FF FF 7F F0  FF FF 7F 30 34 30 38 45  R(.........0408E
0530: 28 80 F0 FF FF 7F F0 FF  FF 7F 30 34 32 78 01 80  (.........042x..
0540: 1C 27 80 7C 00 B0 A2 08  01 2B B0 A2 08 01 3E 80  .'.|.....+....>.
0550: 23 7C 01 B0 A2 08 01 1A  64 32 BA F0 FF FF 7F 3F  #|......d2.....?
0560: 80 40 80 41 80 35 80 59  05 AF A2 08 01 00 BA AF  .@.A.5.Y........
0570: A2 08 01 42 80 43 80 44  80 35 80 BA B0 A2 08 01  ...B.C.D.5......
0580: 45 80 46 80 47 80 35 80  BA B1 A2 08 01 48 80 49  E.F.G.5......H.I
0590: 80 4A 80 4B 80 BA C0 A2  08 01 11 80 12 80 13 80  .J.K............
05A0: 14 80 7B F0 FF FF 7F 7B  AF A2 08 01 7B B0 A2 08  ..{....{....{...
05B0: 01 6B 69 64 6C 30 AF A2  08 01 6B 69 64 6C 30 B0  .kidl0....kidl0.
05C0: A2 08 01 27 10 B1 A2 08  01 0E 81 00 B1 A2 08 01  ...'............
05D0: CD 4C 80 B1 A2 08 01 B1  A2 08 01 73 74 30 31 01  .L.........st01.
05E0: 80 5B 4D 80 B1 A2 08 01  B1 A2 08 01 75 74 75 30  .[M.........utu0
05F0: 5B 4E 80 C0 A2 08 01 C0  A2 08 01 74 6F 75 30 1C  [N.........tou0.
0600: 2E 80 48 4F 80 23 27 10  F0 FF FF 7F 20 27 10 AF  ..HO.#'..... '..
0610: A2 08 01 12 27 10 B0 A2  08 01 18 1C 50 80 52 28  ....'.......P.R(
0620: 80 F0 FF FF 7F F0 FF FF  7F 30 34 32 78 45 28 80  .........042xE(.
0630: F0 FF FF 7F F0 FF FF 7F  30 34 30 39 01 80 1A 43  ........0409...C
0640: 32 1C 2F 80 52 28 80 F0  FF FF 7F F0 FF FF 7F 30  2./.R(.........0
0650: 34 30 39 45 28 80 F0 FF  FF 7F F0 FF FF 7F 30 34  409E(.........04
0660: 30 61 01 80 1C 27 80 5D  01 80 51 80 7A 00 B0 A2  0a...'.]..Q.z...
0670: 08 01 27 10 B0 A2 08 01  19 2B B0 A2 08 01 52 80  ..'......+....R.
0680: 1C 53 80 7A 00 AF A2 08  01 27 10 AF A2 08 01 13  .S.z.....'......
0690: 1C 50 80 7A 00 F0 FF FF  7F 27 10 F0 FF FF 7F 21  .P.z.....'.....!
06A0: 23 2A 10 B0 A2 08 01 52  28 80 F0 FF FF 7F F0 FF  #*.....R(.......
06B0: FF 7F 30 34 30 61 45 28  80 F0 FF FF 7F F0 FF FF  ..040aE(........
06C0: 7F 30 34 30 62 01 80 5B  4D 80 B1 A2 08 01 B1 A2  .040b..[M.......
06D0: 08 01 75 74 75 31 1C 2C  80 52 28 80 F0 FF FF 7F  ..utu1.,.R(.....
06E0: F0 FF FF 7F 30 34 30 62  45 28 80 F0 FF FF 7F F0  ....040bE(......
06F0: FF FF 7F 30 34 32 6E 01  80 2B B1 A2 08 01 54 80  ...042n..+....T.
0700: 1C 2A 80 23 52 28 80 F0  FF FF 7F F0 FF FF 7F 30  .*.#R(.........0
0710: 34 32 6E 45 28 80 F0 FF  FF 7F F0 FF FF 7F 30 34  42nE(.........04
0720: 30 63 01 80 29 10 F0 FF  FF 7F 08 02 02 10 55 80  0c..).........U.
0730: 00 40 07 BA F0 FF FF 7F  56 80 57 80 58 80 59 80  .@......V.W.X.Y.
0740: 2B B1 A2 08 01 5A 80 23  52 28 80 F0 FF FF 7F F0  +....Z.#R(......
0750: FF FF 7F 30 34 30 63 45  28 80 F0 FF FF 7F F0 FF  ...040cE(.......
0760: FF 7F 30 34 30 64 01 80  5B 25 80 B0 A2 08 01 B0  ..040d..[%......
0770: A2 08 01 63 77 6B 30 2B  B0 A2 08 01 5B 80 1C 2F  ...cwk0+....[../
0780: 80 5C 00 5C 80 5C 01 5C  80 5C 02 5C 80 5C 03 5C  .\.\.\.\.\.\.\.\
0790: 80 9A 52 28 80 F0 FF FF  7F F0 FF FF 7F 30 34 30  ..R(.........040
07A0: 64 45 28 80 F0 FF FF 7F  F0 FF FF 7F 30 34 30 68  dE(.........040h
07B0: 01 80 2B C0 A2 08 01 5D  80 1C 23 80 BA B0 A2 08  ..+....]..#.....
07C0: 01 5E 80 5F 80 60 80 61  80 6B 69 64 6C 30 B0 A2  .^._.`.a.kidl0..
07D0: 08 01 CD 53 80 C0 A2 08  01 C0 A2 08 01 73 30 30  ...S.........s00
07E0: 30 01 80 1C 2A 80 5B 4E  80 C0 A2 08 01 C0 A2 08  0...*.[N........
07F0: 01 74 6F 75 31 1C 62 80  52 28 80 F0 FF FF 7F F0  .tou1.b.R(......
0800: FF FF 7F 30 34 30 68 45  28 80 F0 FF FF 7F F0 FF  ...040hE(.......
0810: FF 7F 30 34 30 65 01 80  5B 63 80 B0 A2 08 01 B0  ..040e..[c......
0820: A2 08 01 6B 65 69 30 5B  64 80 AF A2 08 01 AF A2  ...kei0[d.......
0830: 08 01 6F 64 6F 30 27 10  F0 FF FF 7F 23 1C 62 80  ..odo0'.....#.b.
0840: 52 28 80 F0 FF FF 7F F0  FF FF 7F 30 34 30 65 45  R(.........040eE
0850: 28 80 F0 FF FF 7F F0 FF  FF 7F 30 34 30 66 01 80  (.........040f..
0860: 1C 23 80 23 27 10 F0 FF  FF 7F 0A 5B 26 80 AF A2  .#.#'......[&...
0870: 08 01 AF A2 08 01 62 61  74 30 5B 25 80 B0 A2 08  ......bat0[%....
0880: 01 B0 A2 08 01 62 61 74  30 52 28 80 F0 FF FF 7F  .....bat0R(.....
0890: F0 FF FF 7F 30 34 30 66  45 28 80 F0 FF FF 7F F0  ....040fE(......
08A0: FF FF 7F 30 34 30 67 01  80 1C 2E 80 2B B0 A2 08  ...040g.....+...
08B0: 01 65 80 CD 53 80 C0 A2  08 01 C0 A2 08 01 6B 69  .e..S.........ki
08C0: 6C 6C 01 80 1C 23 80 23  52 28 80 F0 FF FF 7F F0  ll...#.#R(......
08D0: FF FF 7F 30 34 30 67 45  28 80 F0 FF FF 7F F0 FF  ...040gE(.......
08E0: FF 7F 30 34 32 79 01 80  1C 2A 80 2B B0 A2 08 01  ..042y...*.+....
08F0: 66 80 23 5B 67 80 B0 A2  08 01 B0 A2 08 01 73 74  f.#[g.........st
0900: 70 30 1C 50 80 52 28 80  F0 FF FF 7F F0 FF FF 7F  p0.P.R(.........
0910: 30 34 32 79 45 28 80 F0  FF FF 7F F0 FF FF 7F 30  042yE(.........0
0920: 34 32 69 01 80 1C 62 80  27 10 F0 FF FF 7F 1F 5D  42i...b.'......]
0930: 68 80 27 80 52 28 80 F0  FF FF 7F F0 FF FF 7F 30  h.'.R(.........0
0940: 34 32 69 45 28 80 F0 FF  FF 7F F0 FF FF 7F 30 34  42iE(.........04
0950: 30 69 01 80 2B B0 A2 08  01 69 80 23 52 28 80 F0  0i..+....i.#R(..
0960: FF FF 7F F0 FF FF 7F 30  34 30 69 45 28 80 F0 FF  .......040iE(...
0970: FF 7F F0 FF FF 7F 30 34  30 6A 01 80 5B 4E 80 C0  ......040j..[N..
0980: A2 08 01 C0 A2 08 01 74  6C 61 30 BA B0 A2 08 01  .......tla0.....
0990: 6A 80 6B 80 6C 80 61 80  5B 25 80 B0 A2 08 01 B0  j.k.l.a.[%......
09A0: A2 08 01 62 61 74 6C 2B  C0 A2 08 01 6D 80 1C 23  ...batl+....m..#
09B0: 80 23 52 28 80 F0 FF FF  7F F0 FF FF 7F 30 34 30  .#R(.........040
09C0: 6A 45 28 80 F0 FF FF 7F  F0 FF FF 7F 30 34 30 6B  jE(.........040k
09D0: 01 80 5B 4E 80 C0 A2 08  01 C0 A2 08 01 74 6C 61  ..[N.........tla
09E0: 31 2B B2 A2 08 01 6E 80  23 2B B2 A2 08 01 6F 80  1+....n.#+....o.
09F0: 23 52 28 80 F0 FF FF 7F  F0 FF FF 7F 30 34 30 6B  #R(.........040k
0A00: 45 28 80 F0 FF FF 7F F0  FF FF 7F 30 34 30 6C 01  E(.........040l.
0A10: 80 7C 00 B0 A2 08 01 2B  B0 A2 08 01 70 80 23 BA  .|.....+....p.#.
0A20: AF A2 08 01 71 80 72 80  73 80 74 80 5B 36 80 AF  ....q.r.s.t.[6..
0A30: A2 08 01 AF A2 08 01 66  63 30 31 5B 75 80 AF A2  .......fc01[u...
0A40: 08 01 AF A2 08 01 6E 64  61 61 03 02 10 76 80 27  ......ndaa...v.'
0A50: 10 C6 A2 08 01 01 1C 2E  80 52 28 80 F0 FF FF 7F  .........R(.....
0A60: F0 FF FF 7F 30 34 30 6C  45 28 80 F0 FF FF 7F F0  ....040lE(......
0A70: FF FF 7F 30 34 30 6D 01  80 2B AF A2 08 01 77 80  ...040m..+....w.
0A80: 23 2A 10 C6 A2 08 01 5B  36 80 AF A2 08 01 AF A2  #*.....[6.......
0A90: 08 01 66 63 30 30 52 28  80 F0 FF FF 7F F0 FF FF  ..fc00R(........
0AA0: 7F 30 34 30 6D 45 28 80  F0 FF FF 7F F0 FF FF 7F  .040mE(.........
0AB0: 30 34 30 6E 01 80 7C 01  B0 A2 08 01 5D 78 80 27  040n..|.....]x.'
0AC0: 80 2B B0 A2 08 01 79 80  23 52 28 80 F0 FF FF 7F  .+....y.#R(.....
0AD0: F0 FF FF 7F 30 34 30 6E  45 28 80 F0 FF FF 7F F0  ....040nE(......
0AE0: FF FF 7F 30 34 30 6F 01  80 2B B0 A2 08 01 7A 80  ...040o..+....z.
0AF0: 5D 01 80 23 80 1C 2A 80  1A 64 32 7A 00 F0 FF FF  ]..#..*..d2z....
0B00: 7F 1C 2E 80 29 10 F0 FF  FF 7F 0B CD 4C 80 B1 A2  ....).......L...
0B10: 08 01 B1 A2 08 01 6B 69  6C 61 01 80 1C 27 80 52  ......kila...'.R
0B20: 28 80 F0 FF FF 7F F0 FF  FF 7F 30 34 30 6F 45 28  (.........040oE(
0B30: 80 F0 FF FF 7F F0 FF FF  7F 62 6C 6F 66 01 80 02  .........blof...
0B40: 00 00 01 80 00 5B 0B 5C  00 01 80 5C 01 01 80 5C  .....[.\...\...\
0B50: 02 01 80 5C 03 01 80 9A  30 21 00 46 00 45 7B 80  ...\....0!.F.E{.
0B60: F0 FF FF 7F F0 FF FF 7F  66 64 69 32 01 80 21 00  ........fdi2..!.
```

#### Opcodes

```
  0: 0x0001 [0x42] SET_CLI_EVENT_CANCEL_DATA()
  1: 0x0002 [0x1A] CALL_SUBROUTINE(address=0x3264)
  2: 0x0005 [0x46] CAMERA_CONTROL: Disable user control
  3: 0x0007 [0x38] SET_CLIENT_EVENT_MODE(mode=19*)
  4: 0x000A [0x03] ExtData[1]->WorkLocal[0] = Work_Zone[9]
  5: 0x000F [0x5C] MUSIC_CONTROL: Set Idle (Day) music to song 0*
  6: 0x0013 [0x5C] MUSIC_CONTROL: Set Idle (Night) music to song 0*
  7: 0x0017 [0x5C] MUSIC_CONTROL: Set Combat (Solo) music to song 0*
  8: 0x001B [0x5C] MUSIC_CONTROL: Set Combat (Party) music to song 0*
  9: 0x001F [0x9A] WAIT_MUSIC_SERVER()
 10: 0x0020 [0x27] REQ_SET(priority=0x10, entity_id=Lilisette (ID: 17343151/0x0108A2AF), tag_num=0x04)
 11: 0x0027 [0x2F] Ragelise (ID: 17343152/0x0108A2B0)->Render.Flags0 &= ~0x80000 // Bit 19
 12: 0x002D [0x2F] Portia (ID: 17343153/0x0108A2B1)->Render.Flags0 &= ~0x80000 // Bit 19
 13: 0x0033 [0x2F] Vestillet (ID: 17343154/0x0108A2B2)->Render.Flags0 &= ~0x80000 // Bit 19
 14: 0x0039 [0x2F] Count Bifrons (ID: 17343168/0x0108A2C0)->Render.Flags0 &= ~0x80000 // Bit 19
 15: 0x003F [0x2F] Bukadaemon1 (ID: 17343215/0x0108A2EF)->Render.Flags0 &= ~0x80000 // Bit 19
 16: 0x0045 [0x2F] Demon Suppressor (ID: 17343216/0x0108A2F0)->Render.Flags0 &= ~0x80000 // Bit 19
 17: 0x004B [0x2F] Demon Befouler (ID: 17343217/0x0108A2F1)->Render.Flags0 &= ~0x80000 // Bit 19
 18: 0x0051 [0x2F] ??? (ID: 17343221/0x0108A2F5)->Render.Flags0 &= ~0x80000 // Bit 19
 19: 0x0057 [0x4E] SET_ENTITY_HIDE_FLAG: Show Ragelise (ID: 17343152/0x0108A2B0)
 20: 0x005D [0x4E] SET_ENTITY_HIDE_FLAG: Show Portia (ID: 17343153/0x0108A2B1)
 21: 0x0063 [0x4E] SET_ENTITY_HIDE_FLAG: Show Vestillet (ID: 17343154/0x0108A2B2)
 22: 0x0069 [0x4E] SET_ENTITY_HIDE_FLAG: Show Count Bifrons (ID: 17343168/0x0108A2C0)
 23: 0x006F [0x4E] SET_ENTITY_HIDE_FLAG: Show Bukadaemon1 (ID: 17343215/0x0108A2EF)
 24: 0x0075 [0x4E] SET_ENTITY_HIDE_FLAG: Show Demon Suppressor (ID: 17343216/0x0108A2F0)
 25: 0x007B [0x4E] SET_ENTITY_HIDE_FLAG: Show Demon Befouler (ID: 17343217/0x0108A2F1)
 26: 0x0081 [0x4E] SET_ENTITY_HIDE_FLAG: Show ??? (ID: 17343221/0x0108A2F5)
 27: 0x0087 [0x92] Lilisette (ID: 17343151/0x0108A2AF)->Render.Flags3 ^= 0x01
 28: 0x008D [0x92] Ragelise (ID: 17343152/0x0108A2B0)->Render.Flags3 ^= 0x01
 29: 0x0093 [0x92] Portia (ID: 17343153/0x0108A2B1)->Render.Flags3 ^= 0x01
 30: 0x0099 [0x92] Vestillet (ID: 17343154/0x0108A2B2)->Render.Flags3 ^= 0x01
 31: 0x009F [0x92] Count Bifrons (ID: 17343168/0x0108A2C0)->Render.Flags3 ^= 0x01
 32: 0x00A5 [0x92] Bukadaemon1 (ID: 17343215/0x0108A2EF)->Render.Flags3 ^= 0x01
 33: 0x00AB [0x92] Demon Suppressor (ID: 17343216/0x0108A2F0)->Render.Flags3 ^= 0x01
 34: 0x00B1 [0x92] Demon Befouler (ID: 17343217/0x0108A2F1)->Render.Flags3 ^= 0x01
 35: 0x00B7 [0x92] ??? (ID: 17343221/0x0108A2F5)->Render.Flags3 ^= 0x01
 36: 0x00BD [0x94] LocalPlayer->Render.Flags3 ^= 0x01
 37: 0x00C3 [0x94] Lilisette (ID: 17343151/0x0108A2AF)->Render.Flags3 ^= 0x01
 38: 0x00C9 [0x94] Ragelise (ID: 17343152/0x0108A2B0)->Render.Flags3 ^= 0x01
 39: 0x00CF [0x94] Portia (ID: 17343153/0x0108A2B1)->Render.Flags3 ^= 0x01
 40: 0x00D5 [0x94] Vestillet (ID: 17343154/0x0108A2B2)->Render.Flags3 ^= 0x01
 41: 0x00DB [0x94] Count Bifrons (ID: 17343168/0x0108A2C0)->Render.Flags3 ^= 0x01
 42: 0x00E1 [0x94] Bukadaemon1 (ID: 17343215/0x0108A2EF)->Render.Flags3 ^= 0x01
 43: 0x00E7 [0x94] Demon Suppressor (ID: 17343216/0x0108A2F0)->Render.Flags3 ^= 0x01
 44: 0x00ED [0x94] Demon Befouler (ID: 17343217/0x0108A2F1)->Render.Flags3 ^= 0x01
 45: 0x00F3 [0x94] ??? (ID: 17343221/0x0108A2F5)->Render.Flags3 ^= 0x01
 46: 0x00F9 [0x59] UPDATE_ENTITY_DATA: ??? (ID: 17343221/0x0108A2F5)->Render.Flags0 |= 0x200000
 47: 0x0100 [0xBA] SET_ENTITY_POSITION(entity_id=LocalPlayer, pos_x=128.972*, pos_z=100.894*, pos_y=-24.077*, direction=178.8°*)
 48: 0x010D [0xBA] SET_ENTITY_POSITION(entity_id=Lilisette (ID: 17343151/0x0108A2AF), pos_x=125.686*, pos_z=99.119*, pos_y=-24.107*, direction=178.8°*)
 49: 0x011A [0xBA] SET_ENTITY_POSITION(entity_id=Ragelise (ID: 17343152/0x0108A2B0), pos_x=107.029*, pos_z=99.755*, pos_y=-24.112*, direction=181.5°*)
 50: 0x0127 [0xBA] SET_ENTITY_POSITION(entity_id=Portia (ID: 17343153/0x0108A2B1), pos_x=125.543*, pos_z=96.990*, pos_y=-24.360*, direction=182.4°*)
 51: 0x0134 [0xBA] SET_ENTITY_POSITION(entity_id=Count Bifrons (ID: 17343168/0x0108A2C0), pos_x=139.967*, pos_z=57.697*, pos_y=-24.039*, direction=270.7°*)
 52: 0x0141 [0xBA] SET_ENTITY_POSITION(entity_id=Bukadaemon1 (ID: 17343215/0x0108A2EF), pos_x=102.433*, pos_z=99.670*, pos_y=-24.000*, direction=351.8°*)
 53: 0x014E [0xBA] SET_ENTITY_POSITION(entity_id=Demon Suppressor (ID: 17343216/0x0108A2F0), pos_x=126.286*, pos_z=100.925*, pos_y=-24.145*, direction=4.1°*)
 54: 0x015B [0xBA] SET_ENTITY_POSITION(entity_id=Demon Befouler (ID: 17343217/0x0108A2F1), pos_x=123.622*, pos_z=99.122*, pos_y=-24.031*, direction=4.1°*)
 55: 0x0168 [0xBA] SET_ENTITY_POSITION(entity_id=??? (ID: 17343221/0x0108A2F5), pos_x=140.215*, pos_z=60.407*, pos_y=-38.000*, direction=0.0°*)
 56: 0x0175 [0x80] LOAD_WAIT(entity=LocalPlayer)
 57: 0x017A [0x80] LOAD_WAIT(entity=Lilisette (ID: 17343151/0x0108A2AF))
 58: 0x017F [0x80] LOAD_WAIT(entity=Ragelise (ID: 17343152/0x0108A2B0))
 59: 0x0184 [0x80] LOAD_WAIT(entity=Portia (ID: 17343153/0x0108A2B1))
 60: 0x0189 [0x80] LOAD_WAIT(entity=Count Bifrons (ID: 17343168/0x0108A2C0))
 61: 0x018E [0x80] LOAD_WAIT(entity=Bukadaemon1 (ID: 17343215/0x0108A2EF))
 62: 0x0193 [0x27] REQ_SET(priority=0x10, entity_id=Portia (ID: 17343153/0x0108A2B1), tag_num=0x0D)
 63: 0x019A [0x27] REQ_SET(priority=0x10, entity_id=Count Bifrons (ID: 17343168/0x0108A2C0), tag_num=0x06)
 64: 0x01A1 [0x1C] WAIT(120* ticks)
 65: 0x01A4 [0xCD] LOAD_SCHEDULED_TASK_ALT4: Load scheduler "s000" with entities [LocalPlayer, LocalPlayer], work=[12*, 0*]
 66: 0x01B5 [0x5B] LOAD_EXT_SCHEDULER: Load scheduler "batl" with entities [Ragelise (ID: 17343152/0x0108A2B0), Ragelise (ID: 17343152/0x0108A2B0)], work=3030*
 67: 0x01C4 [0x5B] LOAD_EXT_SCHEDULER: Load scheduler "batl" with entities [Lilisette (ID: 17343151/0x0108A2AF), Lilisette (ID: 17343151/0x0108A2AF)], work=2840*
 68: 0x01D3 [0x29] REQ_SET_WAIT(priority=0x10, entity_id=LocalPlayer, tag_num=0x0A)
 69: 0x01DA [0x1C] WAIT(60* ticks)
 70: 0x01DD [0x81] SET_ENTITY_BLINKING(blink_flag=0x00, entity=Lilisette (ID: 17343151/0x0108A2AF))
 71: 0x01E3 [0x7C] Ragelise (ID: 17343152/0x0108A2B0)->Render.Flags2 |= 0x00
 72: 0x01E9 [0x45] LOAD_SCHEDULED_TASK: Load scheduler "0400" with entities [LocalPlayer, LocalPlayer], work=[507*, 0*]
 73: 0x01FA [0x1A] CALL_SUBROUTINE(address=0x3243)
 74: 0x01FD [0x2C] CREATE_SCHEDULER_TASK: Create scheduler "dead" with entities [Bukadaemon1 (ID: 17343215/0x0108A2EF), Bukadaemon1 (ID: 17343215/0x0108A2EF)]
 75: 0x020A [0x1C] WAIT(120* ticks)
 76: 0x020D [0x5C] MUSIC_CONTROL: Set Idle (Day) music to song 42*
 77: 0x0211 [0x5C] MUSIC_CONTROL: Set Idle (Night) music to song 42*
 78: 0x0215 [0x5C] MUSIC_CONTROL: Set Combat (Solo) music to song 42*
 79: 0x0219 [0x5C] MUSIC_CONTROL: Set Combat (Party) music to song 42*
 80: 0x021D [0x9A] WAIT_MUSIC_SERVER()
 81: 0x021E [0x52] END_LOAD_SCHEDULER: End scheduler "0400" with entities [LocalPlayer, LocalPlayer], work=507*
 82: 0x022D [0x45] LOAD_SCHEDULED_TASK: Load scheduler "0401" with entities [LocalPlayer, LocalPlayer], work=[507*, 0*]
 83: 0x023E [0x1C] WAIT(90* ticks)
 84: 0x0241 [0x5B] LOAD_EXT_SCHEDULER: Load scheduler "kyo0" with entities [Ragelise (ID: 17343152/0x0108A2B0), Ragelise (ID: 17343152/0x0108A2B0)], work=3030*
 85: 0x0250 [0x1C] WAIT(60* ticks)
 86: 0x0253 [0x2B] Ragelise (ID: 17343152/0x0108A2B0) [7634*]:
    → "Something's amiss."
 87: 0x025A [0x1C] WAIT(180* ticks)
 88: 0x025D [0x7C] Ragelise (ID: 17343152/0x0108A2B0)->Render.Flags2 |= 0x01
 89: 0x0263 [0x2B] Ragelise (ID: 17343152/0x0108A2B0) [7635*]:
    → "Even with the diversion, too few enemies defend the keep. I like this not one bit..."
 90: 0x026A [0x1C] WAIT(90* ticks)
 91: 0x026D [0x52] END_LOAD_SCHEDULER: End scheduler "0401" with entities [LocalPlayer, LocalPlayer], work=507*
 92: 0x027C [0x45] LOAD_SCHEDULED_TASK: Load scheduler "0403" with entities [LocalPlayer, LocalPlayer], work=[507*, 0*]
 93: 0x028D [0x1C] WAIT(120* ticks)
 94: 0x0290 [0x52] END_LOAD_SCHEDULER: End scheduler "0403" with entities [LocalPlayer, LocalPlayer], work=507*
 95: 0x029F [0x45] LOAD_SCHEDULED_TASK: Load scheduler "0402" with entities [LocalPlayer, LocalPlayer], work=[507*, 0*]
 96: 0x02B0 [0x1C] WAIT(120* ticks)
 97: 0x02B3 [0x23] WAIT_FOR_DIALOG_INTERACTION
 98: 0x02B4 [0x52] END_LOAD_SCHEDULER: End scheduler "0402" with entities [LocalPlayer, LocalPlayer], work=507*
 99: 0x02C3 [0x45] LOAD_SCHEDULED_TASK: Load scheduler "0404" with entities [LocalPlayer, LocalPlayer], work=[507*, 0*]
100: 0x02D4 [0x1C] WAIT(30* ticks)
101: 0x02D7 [0x6B] STOP_AND_IDLE: Ragelise (ID: 17343152/0x0108A2B0) stops current action and resets to idle (animation="idl0")
102: 0x02E0 [0x2C] CREATE_SCHEDULER_TASK: Create scheduler "dead" with entities [Demon Befouler (ID: 17343217/0x0108A2F1), Demon Befouler (ID: 17343217/0x0108A2F1)]
103: 0x02ED [0x1C] WAIT(30* ticks)
104: 0x02F0 [0x2C] CREATE_SCHEDULER_TASK: Create scheduler "dead" with entities [Demon Suppressor (ID: 17343216/0x0108A2F0), Demon Suppressor (ID: 17343216/0x0108A2F0)]
105: 0x02FD [0x1C] WAIT(60* ticks)
106: 0x0300 [0x27] REQ_SET(priority=0x10, entity_id=LocalPlayer, tag_num=0x0B)
107: 0x0307 [0x1C] WAIT(60* ticks)
108: 0x030A [0x52] END_LOAD_SCHEDULER: End scheduler "0404" with entities [LocalPlayer, LocalPlayer], work=507*
109: 0x0319 [0x45] LOAD_SCHEDULED_TASK: Load scheduler "0406" with entities [LocalPlayer, LocalPlayer], work=[507*, 0*]
110: 0x032A [0x1C] WAIT(60* ticks)
111: 0x032D [0x5B] LOAD_EXT_SCHEDULER: Load scheduler "bat1" with entities [Lilisette (ID: 17343151/0x0108A2AF), Lilisette (ID: 17343151/0x0108A2AF)], work=2840*
112: 0x033C [0x1C] WAIT(150* ticks)
113: 0x033F [0x81] SET_ENTITY_BLINKING(blink_flag=0x01, entity=Lilisette (ID: 17343151/0x0108A2AF))
114: 0x0345 [0x79] Lilisette (ID: 17343151/0x0108A2AF) looks at Portia (ID: 17343153/0x0108A2B1) (Basic look)
115: 0x034F [0x4B] UPDATE_ENTITY_YAW(entity=Lilisette (ID: 17343151/0x0108A2AF), yaw=9.4°*)
116: 0x0356 [0x2B] Lilisette (ID: 17343151/0x0108A2AF) [7636*]:
    → "Hm? What's this?"
117: 0x035D [0x1C] WAIT(60* ticks)
118: 0x0360 [0x52] END_LOAD_SCHEDULER: End scheduler "0406" with entities [LocalPlayer, LocalPlayer], work=507*
119: 0x036F [0x45] LOAD_SCHEDULED_TASK: Load scheduler "0430" with entities [LocalPlayer, LocalPlayer], work=[507*, 0*]
120: 0x0380 [0x1C] WAIT(120* ticks)
121: 0x0383 [0xCD] LOAD_SCHEDULED_TASK_ALT4: Load scheduler "s001" with entities [LocalPlayer, LocalPlayer], work=[12*, 0*]
122: 0x0394 [0x1C] WAIT(90* ticks)
123: 0x0397 [0x23] WAIT_FOR_DIALOG_INTERACTION
124: 0x0398 [0x52] END_LOAD_SCHEDULER: End scheduler "0430" with entities [LocalPlayer, LocalPlayer], work=507*
125: 0x03A7 [0x45] LOAD_SCHEDULED_TASK: Load scheduler "0405" with entities [LocalPlayer, LocalPlayer], work=[507*, 0*]
126: 0x03B8 [0x27] REQ_SET(priority=0x10, entity_id=Lilisette (ID: 17343151/0x0108A2AF), tag_num=0x17)
127: 0x03BF [0x7B] Lilisette (ID: 17343151/0x0108A2AF) stops talking
128: 0x03C4 [0x79] LocalPlayer looks at Lilisette (ID: 17343151/0x0108A2AF) (Basic look)
129: 0x03CE [0x1C] WAIT(90* ticks)
130: 0x03D1 [0x7A] VM_CONTROL: Reset VM for Lilisette (ID: 17343151/0x0108A2AF)
131: 0x03D7 [0x1C] WAIT(30* ticks)
132: 0x03DA [0x81] SET_ENTITY_BLINKING(blink_flag=0x00, entity=Lilisette (ID: 17343151/0x0108A2AF))
133: 0x03E0 [0x7C] Lilisette (ID: 17343151/0x0108A2AF)->Render.Flags2 |= 0x00
134: 0x03E6 [0x59] UPDATE_ENTITY_DATA: Lilisette (ID: 17343151/0x0108A2AF)->Render.Flags0 |= 0x200000
135: 0x03ED [0xBA] SET_ENTITY_POSITION(entity_id=Lilisette (ID: 17343151/0x0108A2AF), pos_x=124.700*, pos_z=96.709*, pos_y=-24.399*, direction=90.0°*)
136: 0x03FA [0x5B] LOAD_EXT_SCHEDULER: Load scheduler "fc01" with entities [Lilisette (ID: 17343151/0x0108A2AF), Lilisette (ID: 17343151/0x0108A2AF)], work=2135*
137: 0x0409 [0x5B] LOAD_EXT_SCHEDULER: Load scheduler "kbe0" with entities [Lilisette (ID: 17343151/0x0108A2AF), Lilisette (ID: 17343151/0x0108A2AF)], work=2998*
138: 0x0418 [0x1C] WAIT(30* ticks)
139: 0x041B [0x52] END_LOAD_SCHEDULER: End scheduler "0405" with entities [LocalPlayer, LocalPlayer], work=507*
140: 0x042A [0x45] LOAD_SCHEDULED_TASK: Load scheduler "0407" with entities [LocalPlayer, LocalPlayer], work=[507*, 0*]
141: 0x043B [0x4A] LocalPlayer looks at Lilisette (ID: 17343151/0x0108A2AF)
142: 0x0444 [0x2B] Lilisette (ID: 17343151/0x0108A2AF) [7637*]:
    → "<Player>. Could this here be the cell?"
143: 0x044B [0x1C] WAIT(40* ticks)
144: 0x044E [0x23] WAIT_FOR_DIALOG_INTERACTION
145: 0x044F [0x5B] LOAD_EXT_SCHEDULER: Load scheduler "fc00" with entities [Lilisette (ID: 17343151/0x0108A2AF), Lilisette (ID: 17343151/0x0108A2AF)], work=2135*
146: 0x045E [0x6E] LocalPlayer uses emote 22*
147: 0x0465 [0x99] Wait for LocalPlayer animation to complete
148: 0x046A [0x1C] WAIT(90* ticks)
149: 0x046D [0x52] END_LOAD_SCHEDULER: End scheduler "0407" with entities [LocalPlayer, LocalPlayer], work=507*
150: 0x047C [0x45] LOAD_SCHEDULED_TASK: Load scheduler "042w" with entities [LocalPlayer, LocalPlayer], work=[507*, 0*]
151: 0x048D [0x1C] WAIT(30* ticks)
152: 0x0490 [0xCD] LOAD_SCHEDULED_TASK_ALT4: Load scheduler "s001" with entities [LocalPlayer, LocalPlayer], work=[12*, 0*]
153: 0x04A1 [0x1C] WAIT(120* ticks)
154: 0x04A4 [0x52] END_LOAD_SCHEDULER: End scheduler "042w" with entities [LocalPlayer, LocalPlayer], work=507*
155: 0x04B3 [0x45] LOAD_SCHEDULED_TASK: Load scheduler "0408" with entities [LocalPlayer, LocalPlayer], work=[507*, 0*]
156: 0x04C4 [0x1C] WAIT(30* ticks)
157: 0x04C7 [0x5B] LOAD_EXT_SCHEDULER: Load scheduler "fc01" with entities [Lilisette (ID: 17343151/0x0108A2AF), Lilisette (ID: 17343151/0x0108A2AF)], work=2135*
158: 0x04D6 [0x5B] LOAD_EXT_SCHEDULER: Load scheduler "kbe1" with entities [Lilisette (ID: 17343151/0x0108A2AF), Lilisette (ID: 17343151/0x0108A2AF)], work=2998*
159: 0x04E5 [0x03] Work_Zone[2] = 130*
160: 0x04EA [0x27] REQ_SET(priority=0x10, entity_id=??? (ID: 17343174/0x0108A2C6), tag_num=0x01)
161: 0x04F1 [0x2B] Lilisette (ID: 17343151/0x0108A2AF) [7638*]:
    → "Sir Ragelise! There's something you should see!"
162: 0x04F8 [0x23] WAIT_FOR_DIALOG_INTERACTION
163: 0x04F9 [0x2A] GET_REQ_LEVEL(level=16, entity_id=??? (ID: 17343174/0x0108A2C6))
164: 0x04FF [0x5B] LOAD_EXT_SCHEDULER: Load scheduler "fc00" with entities [Lilisette (ID: 17343151/0x0108A2AF), Lilisette (ID: 17343151/0x0108A2AF)], work=2135*
165: 0x050E [0x5B] LOAD_EXT_SCHEDULER: Load scheduler "fri0" with entities [Ragelise (ID: 17343152/0x0108A2B0), Ragelise (ID: 17343152/0x0108A2B0)], work=3032*
166: 0x051D [0x1C] WAIT(30* ticks)
167: 0x0520 [0x52] END_LOAD_SCHEDULER: End scheduler "0408" with entities [LocalPlayer, LocalPlayer], work=507*
168: 0x052F [0x45] LOAD_SCHEDULED_TASK: Load scheduler "042x" with entities [LocalPlayer, LocalPlayer], work=[507*, 0*]
169: 0x0540 [0x1C] WAIT(60* ticks)
170: 0x0543 [0x7C] Ragelise (ID: 17343152/0x0108A2B0)->Render.Flags2 |= 0x00
171: 0x0549 [0x2B] Ragelise (ID: 17343152/0x0108A2B0) [7639*]:
    → "...?"
172: 0x0550 [0x23] WAIT_FOR_DIALOG_INTERACTION
173: 0x0551 [0x7C] Ragelise (ID: 17343152/0x0108A2B0)->Render.Flags2 |= 0x01
174: 0x0557 [0x1A] CALL_SUBROUTINE(address=0x3264)
175: 0x055A [0xBA] SET_ENTITY_POSITION(entity_id=LocalPlayer, pos_x=139.343*, pos_z=90.438*, pos_y=-24.231*, direction=90.0°*)
176: 0x0567 [0x59] UPDATE_ENTITY_DATA: Lilisette (ID: 17343151/0x0108A2AF)->Render.Flags0 &= ~0x200000
177: 0x056E [0xBA] SET_ENTITY_POSITION(entity_id=Lilisette (ID: 17343151/0x0108A2AF), pos_x=140.938*, pos_z=84.457*, pos_y=-24.273*, direction=90.0°*)
178: 0x057B [0xBA] SET_ENTITY_POSITION(entity_id=Ragelise (ID: 17343152/0x0108A2B0), pos_x=140.065*, pos_z=81.720*, pos_y=-24.118*, direction=90.0°*)
179: 0x0588 [0xBA] SET_ENTITY_POSITION(entity_id=Portia (ID: 17343153/0x0108A2B1), pos_x=139.894*, pos_z=53.806*, pos_y=-24.122*, direction=219.7°*)
180: 0x0595 [0xBA] SET_ENTITY_POSITION(entity_id=Count Bifrons (ID: 17343168/0x0108A2C0), pos_x=139.967*, pos_z=57.697*, pos_y=-24.039*, direction=270.7°*)
181: 0x05A2 [0x7B] LocalPlayer stops talking
182: 0x05A7 [0x7B] Lilisette (ID: 17343151/0x0108A2AF) stops talking
183: 0x05AC [0x7B] Ragelise (ID: 17343152/0x0108A2B0) stops talking
184: 0x05B1 [0x6B] STOP_AND_IDLE: Lilisette (ID: 17343151/0x0108A2AF) stops current action and resets to idle (animation="idl0")
185: 0x05BA [0x6B] STOP_AND_IDLE: Ragelise (ID: 17343152/0x0108A2B0) stops current action and resets to idle (animation="idl0")
186: 0x05C3 [0x27] REQ_SET(priority=0x10, entity_id=Portia (ID: 17343153/0x0108A2B1), tag_num=0x0E)
187: 0x05CA [0x81] SET_ENTITY_BLINKING(blink_flag=0x00, entity=Portia (ID: 17343153/0x0108A2B1))
188: 0x05D0 [0xCD] LOAD_SCHEDULED_TASK_ALT4: Load scheduler "st01" with entities [Portia (ID: 17343153/0x0108A2B1), Portia (ID: 17343153/0x0108A2B1)], work=[14*, 0*]
189: 0x05E1 [0x5B] LOAD_EXT_SCHEDULER: Load scheduler "utu0" with entities [Portia (ID: 17343153/0x0108A2B1), Portia (ID: 17343153/0x0108A2B1)], work=2807*
190: 0x05F0 [0x5B] LOAD_EXT_SCHEDULER: Load scheduler "tou0" with entities [Count Bifrons (ID: 17343168/0x0108A2C0), Count Bifrons (ID: 17343168/0x0108A2C0)], work=2747*
191: 0x05FF [0x1C] WAIT(30* ticks)
192: 0x0602 [0x48] [System] [7608*]:
    → "@@"
193: 0x0605 [0x23] WAIT_FOR_DIALOG_INTERACTION
194: 0x0606 [0x27] REQ_SET(priority=0x10, entity_id=LocalPlayer, tag_num=0x20)
195: 0x060D [0x27] REQ_SET(priority=0x10, entity_id=Lilisette (ID: 17343151/0x0108A2AF), tag_num=0x12)
196: 0x0614 [0x27] REQ_SET(priority=0x10, entity_id=Ragelise (ID: 17343152/0x0108A2B0), tag_num=0x18)
197: 0x061B [0x1C] WAIT(5* ticks)
198: 0x061E [0x52] END_LOAD_SCHEDULER: End scheduler "042x" with entities [LocalPlayer, LocalPlayer], work=507*
199: 0x062D [0x45] LOAD_SCHEDULED_TASK: Load scheduler "0409" with entities [LocalPlayer, LocalPlayer], work=[507*, 0*]
200: 0x063E [0x1A] CALL_SUBROUTINE(address=0x3243)
201: 0x0641 [0x1C] WAIT(150* ticks)
202: 0x0644 [0x52] END_LOAD_SCHEDULER: End scheduler "0409" with entities [LocalPlayer, LocalPlayer], work=507*
203: 0x0653 [0x45] LOAD_SCHEDULED_TASK: Load scheduler "040a" with entities [LocalPlayer, LocalPlayer], work=[507*, 0*]
204: 0x0664 [0x1C] WAIT(60* ticks)
205: 0x0667 [0x5D] SET_MUSIC_VOLUME(volume=0*, fade_time=600*)
206: 0x066C [0x7A] VM_CONTROL: Reset VM for Ragelise (ID: 17343152/0x0108A2B0)
207: 0x0672 [0x27] REQ_SET(priority=0x10, entity_id=Ragelise (ID: 17343152/0x0108A2B0), tag_num=0x19)
208: 0x0679 [0x2B] Ragelise (ID: 17343152/0x0108A2B0) [7640*]:
    → "Portia!"
209: 0x0680 [0x1C] WAIT(15* ticks)
210: 0x0683 [0x7A] VM_CONTROL: Reset VM for Lilisette (ID: 17343151/0x0108A2AF)
211: 0x0689 [0x27] REQ_SET(priority=0x10, entity_id=Lilisette (ID: 17343151/0x0108A2AF), tag_num=0x13)
212: 0x0690 [0x1C] WAIT(5* ticks)
213: 0x0693 [0x7A] VM_CONTROL: Reset VM for LocalPlayer
214: 0x0699 [0x27] REQ_SET(priority=0x10, entity_id=LocalPlayer, tag_num=0x21)
215: 0x06A0 [0x23] WAIT_FOR_DIALOG_INTERACTION
216: 0x06A1 [0x2A] GET_REQ_LEVEL(level=16, entity_id=Ragelise (ID: 17343152/0x0108A2B0))
217: 0x06A7 [0x52] END_LOAD_SCHEDULER: End scheduler "040a" with entities [LocalPlayer, LocalPlayer], work=507*
218: 0x06B6 [0x45] LOAD_SCHEDULED_TASK: Load scheduler "040b" with entities [LocalPlayer, LocalPlayer], work=[507*, 0*]
219: 0x06C7 [0x5B] LOAD_EXT_SCHEDULER: Load scheduler "utu1" with entities [Portia (ID: 17343153/0x0108A2B1), Portia (ID: 17343153/0x0108A2B1)], work=2807*
220: 0x06D6 [0x1C] WAIT(180* ticks)
221: 0x06D9 [0x52] END_LOAD_SCHEDULER: End scheduler "040b" with entities [LocalPlayer, LocalPlayer], work=507*
222: 0x06E8 [0x45] LOAD_SCHEDULED_TASK: Load scheduler "042n" with entities [LocalPlayer, LocalPlayer], work=[507*, 0*]
223: 0x06F9 [0x2B] Portia (ID: 17343153/0x0108A2B1) [7641*]:
    → "S-Sir Ragelise?"
224: 0x0700 [0x1C] WAIT(90* ticks)
225: 0x0703 [0x23] WAIT_FOR_DIALOG_INTERACTION
226: 0x0704 [0x52] END_LOAD_SCHEDULER: End scheduler "042n" with entities [LocalPlayer, LocalPlayer], work=507*
227: 0x0713 [0x45] LOAD_SCHEDULED_TASK: Load scheduler "040c" with entities [LocalPlayer, LocalPlayer], work=[507*, 0*]
228: 0x0724 [0x29] REQ_SET_WAIT(priority=0x10, entity_id=LocalPlayer, tag_num=0x08)
229: 0x072B [0x02] IF !(Work_Zone[2] == 8*) GOTO 0x0740
230: 0x0733 [0xBA] SET_ENTITY_POSITION(entity_id=LocalPlayer, pos_x=139.627*, pos_z=72.066*, pos_y=-24.178*, direction=70.7°*)
231: 0x0740 [0x2B] Portia (ID: 17343153/0x0108A2B1) [7642*]:
    → "But...why?"
232: 0x0747 [0x23] WAIT_FOR_DIALOG_INTERACTION
233: 0x0748 [0x52] END_LOAD_SCHEDULER: End scheduler "040c" with entities [LocalPlayer, LocalPlayer], work=507*
234: 0x0757 [0x45] LOAD_SCHEDULED_TASK: Load scheduler "040d" with entities [LocalPlayer, LocalPlayer], work=[507*, 0*]
235: 0x0768 [0x5B] LOAD_EXT_SCHEDULER: Load scheduler "cwk0" with entities [Ragelise (ID: 17343152/0x0108A2B0), Ragelise (ID: 17343152/0x0108A2B0)], work=3030*
236: 0x0777 [0x2B] Ragelise (ID: 17343152/0x0108A2B0) [7643*]:
    → "Come now, is that the best you can say to your knight in shining armor? "I knew you would come, milord" is more what I had in mind."
237: 0x077E [0x1C] WAIT(150* ticks)
238: 0x0781 [0x5C] MUSIC_CONTROL: Set Idle (Day) music to song 217*
239: 0x0785 [0x5C] MUSIC_CONTROL: Set Idle (Night) music to song 217*
240: 0x0789 [0x5C] MUSIC_CONTROL: Set Combat (Solo) music to song 217*
241: 0x078D [0x5C] MUSIC_CONTROL: Set Combat (Party) music to song 217*
242: 0x0791 [0x9A] WAIT_MUSIC_SERVER()
243: 0x0792 [0x52] END_LOAD_SCHEDULER: End scheduler "040d" with entities [LocalPlayer, LocalPlayer], work=507*
244: 0x07A1 [0x45] LOAD_SCHEDULED_TASK: Load scheduler "040h" with entities [LocalPlayer, LocalPlayer], work=[507*, 0*]
245: 0x07B2 [0x2B] Count Bifrons (ID: 17343168/0x0108A2C0) [7644*]:
    → "What business have you with my charge?"
246: 0x07B9 [0x1C] WAIT(120* ticks)
247: 0x07BC [0xBA] SET_ENTITY_POSITION(entity_id=Ragelise (ID: 17343152/0x0108A2B0), pos_x=140.062*, pos_z=66.662*, pos_y=-24.001*, direction=90.1°*)
248: 0x07C9 [0x6B] STOP_AND_IDLE: Ragelise (ID: 17343152/0x0108A2B0) stops current action and resets to idle (animation="idl0")
249: 0x07D2 [0xCD] LOAD_SCHEDULED_TASK_ALT4: Load scheduler "s000" with entities [Count Bifrons (ID: 17343168/0x0108A2C0), Count Bifrons (ID: 17343168/0x0108A2C0)], work=[15*, 0*]
250: 0x07E3 [0x1C] WAIT(90* ticks)
251: 0x07E6 [0x5B] LOAD_EXT_SCHEDULER: Load scheduler "tou1" with entities [Count Bifrons (ID: 17343168/0x0108A2C0), Count Bifrons (ID: 17343168/0x0108A2C0)], work=2747*
252: 0x07F5 [0x1C] WAIT(45* ticks)
253: 0x07F8 [0x52] END_LOAD_SCHEDULER: End scheduler "040h" with entities [LocalPlayer, LocalPlayer], work=507*
254: 0x0807 [0x45] LOAD_SCHEDULED_TASK: Load scheduler "040e" with entities [LocalPlayer, LocalPlayer], work=[507*, 0*]
255: 0x0818 [0x5B] LOAD_EXT_SCHEDULER: Load scheduler "kei0" with entities [Ragelise (ID: 17343152/0x0108A2B0), Ragelise (ID: 17343152/0x0108A2B0)], work=3091*
256: 0x0827 [0x5B] LOAD_EXT_SCHEDULER: Load scheduler "odo0" with entities [Lilisette (ID: 17343151/0x0108A2AF), Lilisette (ID: 17343151/0x0108A2AF)], work=2134*
257: 0x0836 [0x27] REQ_SET(priority=0x10, entity_id=LocalPlayer, tag_num=0x23)
258: 0x083D [0x1C] WAIT(45* ticks)
259: 0x0840 [0x52] END_LOAD_SCHEDULER: End scheduler "040e" with entities [LocalPlayer, LocalPlayer], work=507*
260: 0x084F [0x45] LOAD_SCHEDULED_TASK: Load scheduler "040f" with entities [LocalPlayer, LocalPlayer], work=[507*, 0*]
261: 0x0860 [0x1C] WAIT(120* ticks)
262: 0x0863 [0x23] WAIT_FOR_DIALOG_INTERACTION
263: 0x0864 [0x27] REQ_SET(priority=0x10, entity_id=LocalPlayer, tag_num=0x0A)
264: 0x086B [0x5B] LOAD_EXT_SCHEDULER: Load scheduler "bat0" with entities [Lilisette (ID: 17343151/0x0108A2AF), Lilisette (ID: 17343151/0x0108A2AF)], work=2840*
265: 0x087A [0x5B] LOAD_EXT_SCHEDULER: Load scheduler "bat0" with entities [Ragelise (ID: 17343152/0x0108A2B0), Ragelise (ID: 17343152/0x0108A2B0)], work=3030*
266: 0x0889 [0x52] END_LOAD_SCHEDULER: End scheduler "040f" with entities [LocalPlayer, LocalPlayer], work=507*
267: 0x0898 [0x45] LOAD_SCHEDULED_TASK: Load scheduler "040g" with entities [LocalPlayer, LocalPlayer], work=[507*, 0*]
268: 0x08A9 [0x1C] WAIT(30* ticks)
269: 0x08AC [0x2B] Ragelise (ID: 17343152/0x0108A2B0) [7645*]:
    → "A demon smitten with a Hume maiden...how rich. Come straight out of an avant-garde romance novel, have we?"
270: 0x08B3 [0xCD] LOAD_SCHEDULED_TASK_ALT4: Load scheduler "kill" with entities [Count Bifrons (ID: 17343168/0x0108A2C0), Count Bifrons (ID: 17343168/0x0108A2C0)], work=[15*, 0*]
271: 0x08C4 [0x1C] WAIT(120* ticks)
272: 0x08C7 [0x23] WAIT_FOR_DIALOG_INTERACTION
273: 0x08C8 [0x52] END_LOAD_SCHEDULER: End scheduler "040g" with entities [LocalPlayer, LocalPlayer], work=507*
274: 0x08D7 [0x45] LOAD_SCHEDULED_TASK: Load scheduler "042y" with entities [LocalPlayer, LocalPlayer], work=[507*, 0*]
275: 0x08E8 [0x1C] WAIT(90* ticks)
276: 0x08EB [0x2B] Ragelise (ID: 17343152/0x0108A2B0) [7646*]:
    → "I've come to reclaim my woman, demon. If you've a grievance, you may take it up with my blade."
277: 0x08F2 [0x23] WAIT_FOR_DIALOG_INTERACTION
278: 0x08F3 [0x5B] LOAD_EXT_SCHEDULER: Load scheduler "stp0" with entities [Ragelise (ID: 17343152/0x0108A2B0), Ragelise (ID: 17343152/0x0108A2B0)], work=3031*
279: 0x0902 [0x1C] WAIT(5* ticks)
280: 0x0905 [0x52] END_LOAD_SCHEDULER: End scheduler "042y" with entities [LocalPlayer, LocalPlayer], work=507*
281: 0x0914 [0x45] LOAD_SCHEDULED_TASK: Load scheduler "042i" with entities [LocalPlayer, LocalPlayer], work=[507*, 0*]
282: 0x0925 [0x1C] WAIT(45* ticks)
283: 0x0928 [0x27] REQ_SET(priority=0x10, entity_id=LocalPlayer, tag_num=0x1F)
284: 0x092F [0x5D] SET_MUSIC_VOLUME(volume=70*, fade_time=60*)
285: 0x0934 [0x52] END_LOAD_SCHEDULER: End scheduler "042i" with entities [LocalPlayer, LocalPlayer], work=507*
286: 0x0943 [0x45] LOAD_SCHEDULED_TASK: Load scheduler "040i" with entities [LocalPlayer, LocalPlayer], work=[507*, 0*]
287: 0x0954 [0x2B] Ragelise (ID: 17343152/0x0108A2B0) [7647*]:
    → "...!?"
288: 0x095B [0x23] WAIT_FOR_DIALOG_INTERACTION
289: 0x095C [0x52] END_LOAD_SCHEDULER: End scheduler "040i" with entities [LocalPlayer, LocalPlayer], work=507*
290: 0x096B [0x45] LOAD_SCHEDULED_TASK: Load scheduler "040j" with entities [LocalPlayer, LocalPlayer], work=[507*, 0*]
291: 0x097C [0x5B] LOAD_EXT_SCHEDULER: Load scheduler "tla0" with entities [Count Bifrons (ID: 17343168/0x0108A2C0), Count Bifrons (ID: 17343168/0x0108A2C0)], work=2747*
292: 0x098B [0xBA] SET_ENTITY_POSITION(entity_id=Ragelise (ID: 17343152/0x0108A2B0), pos_x=140.245*, pos_z=63.272*, pos_y=-24.018*, direction=90.1°*)
293: 0x0998 [0x5B] LOAD_EXT_SCHEDULER: Load scheduler "batl" with entities [Ragelise (ID: 17343152/0x0108A2B0), Ragelise (ID: 17343152/0x0108A2B0)], work=3030*
294: 0x09A7 [0x2B] Count Bifrons (ID: 17343168/0x0108A2C0) [7648*]:
    → "Are you still oblivious to your position? Foolish Elvaan!"
295: 0x09AE [0x1C] WAIT(120* ticks)
296: 0x09B1 [0x23] WAIT_FOR_DIALOG_INTERACTION
297: 0x09B2 [0x52] END_LOAD_SCHEDULER: End scheduler "040j" with entities [LocalPlayer, LocalPlayer], work=507*
298: 0x09C1 [0x45] LOAD_SCHEDULED_TASK: Load scheduler "040k" with entities [LocalPlayer, LocalPlayer], work=[507*, 0*]
299: 0x09D2 [0x5B] LOAD_EXT_SCHEDULER: Load scheduler "tla1" with entities [Count Bifrons (ID: 17343168/0x0108A2C0), Count Bifrons (ID: 17343168/0x0108A2C0)], work=2747*
300: 0x09E1 [0x2B] Vestillet (ID: 17343154/0x0108A2B2) [7649*]:
    → "Ragelise! We've conducted a full sweep of the keep, but the place is utterly devoid of enemies."
301: 0x09E8 [0x23] WAIT_FOR_DIALOG_INTERACTION
302: 0x09E9 [0x2B] Vestillet (ID: 17343154/0x0108A2B2) [7650*]:
    → "There's not a trace of the Shadow Lord."
303: 0x09F0 [0x23] WAIT_FOR_DIALOG_INTERACTION
304: 0x09F1 [0x52] END_LOAD_SCHEDULER: End scheduler "040k" with entities [LocalPlayer, LocalPlayer], work=507*
305: 0x0A00 [0x45] LOAD_SCHEDULED_TASK: Load scheduler "040l" with entities [LocalPlayer, LocalPlayer], work=[507*, 0*]
306: 0x0A11 [0x7C] Ragelise (ID: 17343152/0x0108A2B0)->Render.Flags2 |= 0x00
307: 0x0A17 [0x2B] Ragelise (ID: 17343152/0x0108A2B0) [7651*]:
    → "!?"
308: 0x0A1E [0x23] WAIT_FOR_DIALOG_INTERACTION
309: 0x0A1F [0xBA] SET_ENTITY_POSITION(entity_id=Lilisette (ID: 17343151/0x0108A2AF), pos_x=143.146*, pos_z=70.399*, pos_y=-24.382*, direction=89.6°*)
310: 0x0A2C [0x5B] LOAD_EXT_SCHEDULER: Load scheduler "fc01" with entities [Lilisette (ID: 17343151/0x0108A2AF), Lilisette (ID: 17343151/0x0108A2AF)], work=2135*
311: 0x0A3B [0x5B] LOAD_EXT_SCHEDULER: Load scheduler "ndaa" with entities [Lilisette (ID: 17343151/0x0108A2AF), Lilisette (ID: 17343151/0x0108A2AF)], work=2532*
312: 0x0A4A [0x03] Work_Zone[2] = 220*
313: 0x0A4F [0x27] REQ_SET(priority=0x10, entity_id=??? (ID: 17343174/0x0108A2C6), tag_num=0x01)
314: 0x0A56 [0x1C] WAIT(30* ticks)
315: 0x0A59 [0x52] END_LOAD_SCHEDULER: End scheduler "040l" with entities [LocalPlayer, LocalPlayer], work=507*
316: 0x0A68 [0x45] LOAD_SCHEDULED_TASK: Load scheduler "040m" with entities [LocalPlayer, LocalPlayer], work=[507*, 0*]
317: 0x0A79 [0x2B] Lilisette (ID: 17343151/0x0108A2AF) [7652*]:
    → "Wh-what was that?"
318: 0x0A80 [0x23] WAIT_FOR_DIALOG_INTERACTION
319: 0x0A81 [0x2A] GET_REQ_LEVEL(level=16, entity_id=??? (ID: 17343174/0x0108A2C6))
320: 0x0A87 [0x5B] LOAD_EXT_SCHEDULER: Load scheduler "fc00" with entities [Lilisette (ID: 17343151/0x0108A2AF), Lilisette (ID: 17343151/0x0108A2AF)], work=2135*
321: 0x0A96 [0x52] END_LOAD_SCHEDULER: End scheduler "040m" with entities [LocalPlayer, LocalPlayer], work=507*
322: 0x0AA5 [0x45] LOAD_SCHEDULED_TASK: Load scheduler "040n" with entities [LocalPlayer, LocalPlayer], work=[507*, 0*]
323: 0x0AB6 [0x7C] Ragelise (ID: 17343152/0x0108A2B0)->Render.Flags2 |= 0x01
324: 0x0ABC [0x5D] SET_MUSIC_VOLUME(volume=127*, fade_time=60*)
325: 0x0AC1 [0x2B] Ragelise (ID: 17343152/0x0108A2B0) [7653*]:
    → "It couldn't be..."
326: 0x0AC8 [0x23] WAIT_FOR_DIALOG_INTERACTION
327: 0x0AC9 [0x52] END_LOAD_SCHEDULER: End scheduler "040n" with entities [LocalPlayer, LocalPlayer], work=507*
328: 0x0AD8 [0x45] LOAD_SCHEDULED_TASK: Load scheduler "040o" with entities [LocalPlayer, LocalPlayer], work=[507*, 0*]
329: 0x0AE9 [0x2B] Ragelise (ID: 17343152/0x0108A2B0) [7654*]:
    → "From the front!?"
330: 0x0AF0 [0x5D] SET_MUSIC_VOLUME(volume=0*, fade_time=120*)
331: 0x0AF5 [0x1C] WAIT(90* ticks)
332: 0x0AF8 [0x1A] CALL_SUBROUTINE(address=0x3264)
333: 0x0AFB [0x7A] VM_CONTROL: Reset VM for LocalPlayer
334: 0x0B01 [0x1C] WAIT(30* ticks)
335: 0x0B04 [0x29] REQ_SET_WAIT(priority=0x10, entity_id=LocalPlayer, tag_num=0x0B)
336: 0x0B0B [0xCD] LOAD_SCHEDULED_TASK_ALT4: Load scheduler "kila" with entities [Portia (ID: 17343153/0x0108A2B1), Portia (ID: 17343153/0x0108A2B1)], work=[14*, 0*]
337: 0x0B1C [0x1C] WAIT(60* ticks)
338: 0x0B1F [0x52] END_LOAD_SCHEDULER: End scheduler "040o" with entities [LocalPlayer, LocalPlayer], work=507*
339: 0x0B2E [0x45] LOAD_SCHEDULED_TASK: Load scheduler "blof" with entities [LocalPlayer, LocalPlayer], work=[507*, 0*]
340: 0x0B3F [0x02] IF !(ExtData[1]->WorkLocal[0] == 0*) GOTO 0x0B5B
341: 0x0B47 [0x5C] MUSIC_CONTROL: Set Idle (Day) music to song 0*
342: 0x0B4B [0x5C] MUSIC_CONTROL: Set Idle (Night) music to song 0*
343: 0x0B4F [0x5C] MUSIC_CONTROL: Set Combat (Solo) music to song 0*
344: 0x0B53 [0x5C] MUSIC_CONTROL: Set Combat (Party) music to song 0*
345: 0x0B57 [0x9A] WAIT_MUSIC_SERVER()
346: 0x0B58 [0x30] SET_UCOFF_CONTINUE_ZERO()
347: 0x0B59 [0x21] END_EVENT
348: 0x0B5A [0x00] END_REQSTACK()
349: 0x0B5B [0x46] CAMERA_CONTROL: Restore default settings
350: 0x0B5D [0x45] LOAD_SCHEDULED_TASK: Load scheduler "fdi2" with entities [LocalPlayer, LocalPlayer], work=[200*, 0*]
351: 0x0B6E [0x21] END_EVENT
352: 0x0B6F [0x00] END_REQSTACK()
```

### Event 14

#### Metadata

| Field        | Value      |
|--------------|------------|
| Entrypoint   | 0x0B70     |
| Data Size    | 7424 bytes |
| Instructions | 773        |

```
      00 01 02 03 04 05 06 07  08 09 0A 0B 0C 0D 0E 0F
      -- -- -- -- -- -- -- --  -- -- -- -- -- -- -- --
0B70: 42 1A 64 32 46 01 38 00  80 4E 00 F0 FF FF 7F 03  B.d2F.8..N......
0B80: 01 10 50 80 43 00 43 01  03 00 00 09 10 5D 01 80  ..P.C.C......]..
0B90: 23 80 34 7C 80 77 7D 80  24 80 1C 7E 80 AB 09 27  #.4|.w}.$..~...'
0BA0: 10 B0 A2 08 01 04 2F 00  B2 A2 08 01 2F 00 C1 A2  ....../...../...
0BB0: 08 01 2F 00 E2 A2 08 01  2F 00 E3 A2 08 01 2F 00  ../...../...../.
0BC0: E4 A2 08 01 2F 00 E5 A2  08 01 2F 00 E6 A2 08 01  ..../...../.....
0BD0: 2F 00 E7 A2 08 01 2F 00  E8 A2 08 01 2F 00 E9 A2  /...../...../...
0BE0: 08 01 2F 00 EA A2 08 01  2F 00 EB A2 08 01 2F 00  ../...../...../.
0BF0: EF A2 08 01 2F 00 F0 A2  08 01 2F 00 F1 A2 08 01  ..../...../.....
0C00: 2F 00 F2 A2 08 01 2F 00  F3 A2 08 01 2F 00 F4 A2  /...../...../...
0C10: 08 01 2F 00 BE A2 08 01  2F 00 F5 A2 08 01 2F 00  ../...../...../.
0C20: F6 A2 08 01 2F 00 F7 A2  08 01 2F 00 07 A3 08 01  ..../...../.....
0C30: 2F 00 08 A3 08 01 4E 00  B2 A2 08 01 4E 00 C1 A2  /.....N.....N...
0C40: 08 01 4E 00 E2 A2 08 01  4E 00 E3 A2 08 01 4E 00  ..N.....N.....N.
0C50: E4 A2 08 01 4E 00 E5 A2  08 01 4E 00 E6 A2 08 01  ....N.....N.....
0C60: 4E 00 E7 A2 08 01 4E 00  E8 A2 08 01 4E 00 E9 A2  N.....N.....N...
0C70: 08 01 4E 00 EA A2 08 01  4E 00 EB A2 08 01 4E 00  ..N.....N.....N.
0C80: EF A2 08 01 4E 00 F0 A2  08 01 4E 00 F1 A2 08 01  ....N.....N.....
0C90: 4E 00 F2 A2 08 01 4E 00  F3 A2 08 01 4E 00 F4 A2  N.....N.....N...
0CA0: 08 01 4E 00 BE A2 08 01  4E 00 F5 A2 08 01 4E 00  ..N.....N.....N.
0CB0: F6 A2 08 01 4E 00 F7 A2  08 01 4E 00 07 A3 08 01  ....N.....N.....
0CC0: 4E 00 08 A3 08 01 92 01  F0 FF FF 7F 6C F0 FF FF  N...........l...
0CD0: 7F 01 80 7E 80 92 01 C1  A2 08 01 92 01 B0 A2 08  ...~............
0CE0: 01 92 01 B2 A2 08 01 92  01 E2 A2 08 01 92 01 E3  ................
0CF0: A2 08 01 92 01 E4 A2 08  01 92 01 E5 A2 08 01 92  ................
0D00: 01 E6 A2 08 01 92 01 E7  A2 08 01 92 01 E8 A2 08  ................
0D10: 01 92 01 E9 A2 08 01 92  01 EA A2 08 01 92 01 EB  ................
0D20: A2 08 01 92 01 EF A2 08  01 92 01 F0 A2 08 01 92  ................
0D30: 01 F1 A2 08 01 92 01 F2  A2 08 01 92 01 F3 A2 08  ................
0D40: 01 92 01 F4 A2 08 01 92  01 BE A2 08 01 92 01 F5  ................
0D50: A2 08 01 92 01 F6 A2 08  01 92 01 F7 A2 08 01 92  ................
0D60: 01 07 A3 08 01 92 01 08  A3 08 01 94 01 B0 A2 08  ................
0D70: 01 94 01 B2 A2 08 01 94  01 C1 A2 08 01 94 01 E2  ................
0D80: A2 08 01 94 01 E3 A2 08  01 94 01 E4 A2 08 01 94  ................
0D90: 01 E5 A2 08 01 94 01 E6  A2 08 01 94 01 E7 A2 08  ................
0DA0: 01 94 01 E8 A2 08 01 94  01 E9 A2 08 01 94 01 EA  ................
0DB0: A2 08 01 94 01 EB A2 08  01 94 01 EF A2 08 01 94  ................
0DC0: 01 F0 A2 08 01 94 01 F1  A2 08 01 94 01 F2 A2 08  ................
0DD0: 01 94 01 F3 A2 08 01 94  01 F4 A2 08 01 94 01 BE  ................
0DE0: A2 08 01 94 01 F5 A2 08  01 94 01 F6 A2 08 01 94  ................
0DF0: 01 F7 A2 08 01 94 01 07  A3 08 01 94 01 08 A3 08  ................
0E00: 01 59 05 C1 A2 08 01 01  59 05 E3 A2 08 01 01 59  .Y......Y......Y
0E10: 05 E5 A2 08 01 01 59 05  E7 A2 08 01 01 59 05 E9  ......Y......Y..
0E20: A2 08 01 01 BA C1 A2 08  01 7F 80 80 80 81 80 82  ................
0E30: 80 BA E3 A2 08 01 83 80  84 80 85 80 86 80 BA BE  ................
0E40: A2 08 01 87 80 88 80 89  80 8A 80 BA 07 A3 08 01  ................
0E50: 87 80 88 80 89 80 8A 80  BA F5 A2 08 01 8B 80 8C  ................
0E60: 80 8D 80 01 80 BA F6 A2  08 01 8E 80 8F 80 90 80  ................
0E70: 01 80 BA F7 A2 08 01 83  80 91 80 92 80 86 80 BA  ................
0E80: E2 A2 08 01 93 80 94 80  95 80 82 80 BA E4 A2 08  ................
0E90: 01 96 80 97 80 98 80 99  80 BA E5 A2 08 01 9A 80  ................
0EA0: 9B 80 9C 80 9D 80 BA E6  A2 08 01 9E 80 9F 80 A0  ................
0EB0: 80 82 80 BA E7 A2 08 01  A1 80 A2 80 A3 80 A4 80  ................
0EC0: BA E8 A2 08 01 A5 80 A6  80 A7 80 82 80 BA E9 A2  ................
0ED0: 08 01 A8 80 A9 80 AA 80  AB 80 BA EA A2 08 01 AC  ................
0EE0: 80 AD 80 AE 80 99 80 BA  EB A2 08 01 AF 80 B0 80  ................
0EF0: B1 80 B2 80 BA F0 A2 08  01 B3 80 B4 80 B5 80 82  ................
0F00: 80 BA F1 A2 08 01 B6 80  B7 80 B8 80 82 80 BA F2  ................
0F10: A2 08 01 B9 80 BA 80 BB  80 82 80 BA F3 A2 08 01  ................
0F20: BC 80 BD 80 BE 80 99 80  BA F4 A2 08 01 BF 80 C0  ................
0F30: 80 C1 80 82 80 80 F0 FF  FF 7F 80 C1 A2 08 01 80  ................
0F40: BE A2 08 01 80 07 A3 08  01 80 08 A3 08 01 80 F6  ................
0F50: A2 08 01 80 F7 A2 08 01  1C 2E 80 27 10 B0 A2 08  ...........'....
0F60: 01 1A 27 10 B2 A2 08 01  0F 27 10 E2 A2 08 01 02  ..'......'......
0F70: 27 10 E4 A2 08 01 02 27  10 E5 A2 08 01 02 27 10  '......'......'.
0F80: E7 A2 08 01 02 27 10 E8  A2 08 01 02 27 10 E9 A2  .....'......'...
0F90: 08 01 02 29 10 EB A2 08  01 02 80 E2 A2 08 01 80  ...)............
0FA0: E3 A2 08 01 80 E4 A2 08  01 80 E5 A2 08 01 80 E6  ................
0FB0: A2 08 01 80 E7 A2 08 01  80 E8 A2 08 01 80 E9 A2  ................
0FC0: 08 01 80 EA A2 08 01 80  EB A2 08 01 80 EF A2 08  ................
0FD0: 01 80 F0 A2 08 01 80 F1  A2 08 01 80 F2 A2 08 01  ................
0FE0: 80 F3 A2 08 01 80 F4 A2  08 01 1C 2E 80 27 10 BE  .............'..
0FF0: A2 08 01 08 27 10 07 A3  08 01 04 27 10 08 A3 08  ....'......'....
1000: 01 04 4A E2 A2 08 01 F0  A2 08 01 4A E4 A2 08 01  ..J........J....
1010: F1 A2 08 01 4A E6 A2 08  01 F2 A2 08 01 4A E8 A2  ....J........J..
1020: 08 01 F3 A2 08 01 4A EA  A2 08 01 F3 A2 08 01 4A  ......J........J
1030: F0 A2 08 01 E2 A2 08 01  4A F1 A2 08 01 E4 A2 08  ........J.......
1040: 01 4A F2 A2 08 01 E6 A2  08 01 4A F3 A2 08 01 E8  .J........J.....
1050: A2 08 01 7B E2 A2 08 01  7B E4 A2 08 01 7B E6 A2  ...{....{....{..
1060: 08 01 7B E8 A2 08 01 7B  EA A2 08 01 7B F0 A2 08  ..{....{....{...
1070: 01 7B F1 A2 08 01 7B F2  A2 08 01 7B F3 A2 08 01  .{....{....{....
1080: 1C 2E 80 2C F4 A2 08 01  F4 A2 08 01 64 65 61 64  ...,........dead
1090: 66 7C 80 E4 A2 08 01 E4  A2 08 01 6C 61 74 62 5B  f|.........latb[
10A0: C2 80 E6 A2 08 01 E6 A2  08 01 6C 62 74 30 66 C3  ..........lbt0f.
10B0: 80 E7 A2 08 01 E7 A2 08  01 6C 6C 7A 30 5B C4 80  .........llz0[..
10C0: E8 A2 08 01 E8 A2 08 01  6C 62 74 30 66 C5 80 E9  ........lbt0f...
10D0: A2 08 01 E9 A2 08 01 6C  6C 7A 30 5B C2 80 EA A2  .......llz0[....
10E0: 08 01 EA A2 08 01 6C 62  74 30 5B C6 80 E2 A2 08  ......lbt0[.....
10F0: 01 E2 A2 08 01 6B 65 6E  30 5B C7 80 F3 A2 08 01  .....ken0[......
1100: F3 A2 08 01 6B 6D 61 30  5B C7 80 F0 A2 08 01 F0  ....kma0[.......
1110: A2 08 01 6B 65 6E 30 5B  C7 80 F1 A2 08 01 F1 A2  ...ken0[........
1120: 08 01 6B 65 6E 30 5B C7  80 F2 A2 08 01 F2 A2 08  ..ken0[.........
1130: 01 6B 6D 61 30 5B C8 80  BE A2 08 01 BE A2 08 01  .kma0[..........
1140: 61 7A 6E 30 5B C9 80 07  A3 08 01 07 A3 08 01 61  azn0[..........a
1150: 7A 6E 30 5B CA 80 E3 A2  08 01 E3 A2 08 01 65 64  zn0[..........ed
1160: 30 31 5B CB 80 C1 A2 08  01 C1 A2 08 01 61 63 74  01[..........act
1170: 30 81 00 C1 A2 08 01 7C  00 C1 A2 08 01 C5 CC 80  0......|........
1180: C1 A2 08 01 C1 A2 08 01  00 FE FE FE 01 80 CD CD  ................
1190: 80 C1 A2 08 01 C1 A2 08  01 00 FE FE FE 01 80 CD  ................
11A0: CE 80 C1 A2 08 01 C1 A2  08 01 00 FE FE FE 01 80  ................
11B0: CD 2E 80 E3 A2 08 01 E3  A2 08 01 00 FE FE FE 01  ................
11C0: 80 5B CF 80 EA A2 08 01  EA A2 08 01 76 73 64 6D  .[..........vsdm
11D0: C5 D0 80 F4 A2 08 01 F4  A2 08 01 73 30 30 31 01  ...........s001.
11E0: 80 45 28 80 F0 FF FF 7F  F0 FF FF 7F 30 34 31 62  .E(.........041b
11F0: 01 80 1A 43 32 1C 2E 80  C5 D1 80 F5 A2 08 01 F5  ...C2...........
1200: A2 08 01 73 30 30 30 01  80 1C 2E 80 C5 D1 80 F6  ...s000.........
1210: A2 08 01 F6 A2 08 01 73  30 30 30 01 80 2C F0 A2  .......s000..,..
1220: 08 01 F0 A2 08 01 64 65  61 64 1C 27 80 2C F2 A2  ......dead.'.,..
1230: 08 01 F2 A2 08 01 64 65  61 64 BA C1 A2 08 01 7F  ......dead......
1240: 80 80 80 D2 80 82 80 1C  27 80 52 28 80 F0 FF FF  ........'.R(....
1250: 7F F0 FF FF 7F 30 34 31  62 45 28 80 F0 FF FF 7F  .....041bE(.....
1260: F0 FF FF 7F 30 34 31 63  01 80 45 28 80 F0 FF FF  ....041c..E(....
1270: 7F F0 FF FF 7F 73 65 30  33 01 80 5B CB 80 C1 A2  .....se03..[....
1280: 08 01 C1 A2 08 01 61 63  74 31 C5 D0 80 F4 A2 08  ......act1......
1290: 01 F4 A2 08 01 73 74 30  31 01 80 1C 2A 80 52 28  .....st01...*.R(
12A0: 80 F0 FF FF 7F F0 FF FF  7F 30 34 31 63 45 28 80  .........041cE(.
12B0: F0 FF FF 7F F0 FF FF 7F  30 34 31 64 01 80 5B CB  ........041d..[.
12C0: 80 C1 A2 08 01 C1 A2 08  01 61 63 74 32 1C 50 80  .........act2.P.
12D0: BA C1 A2 08 01 7F 80 80  80 D3 80 82 80 BA F5 A2  ................
12E0: 08 01 D4 80 D5 80 92 80  D6 80 BA F6 A2 08 01 D7  ................
12F0: 80 D8 80 92 80 86 80 BA  F7 A2 08 01 D9 80 DA 80  ................
1300: 92 80 D6 80 BA F0 A2 08  01 DB 80 DC 80 DD 80 DE  ................
1310: 80 BA F2 A2 08 01 DF 80  E0 80 E1 80 E2 80 BA EA  ................
1320: A2 08 01 E3 80 E4 80 E5  80 51 80 BA EB A2 08 01  .........Q......
1330: E6 80 E7 80 E8 80 E9 80  1C 2E 80 52 28 80 F0 FF  ...........R(...
1340: FF 7F F0 FF FF 7F 30 34  31 64 45 28 80 F0 FF FF  ......041dE(....
1350: 7F F0 FF FF 7F 30 34 31  65 01 80 5B CB 80 C1 A2  .....041e..[....
1360: 08 01 C1 A2 08 01 61 63  74 33 27 10 EA A2 08 01  ......act3'.....
1370: 05 27 10 EB A2 08 01 06  1C EA 80 27 10 E5 A2 08  .'.........'....
1380: 01 05 C5 D1 80 F5 A2 08  01 F5 A2 08 01 73 30 30  .............s00
1390: 30 01 80 C5 D1 80 F6 A2  08 01 F6 A2 08 01 73 30  0.............s0
13A0: 30 30 01 80 C5 D1 80 F7  A2 08 01 F7 A2 08 01 73  00.............s
13B0: 30 30 30 01 80 52 28 80  F0 FF FF 7F F0 FF FF 7F  000..R(.........
13C0: 30 34 31 65 45 28 80 F0  FF FF 7F F0 FF FF 7F 30  041eE(.........0
13D0: 34 31 66 01 80 5B CF 80  EA A2 08 01 EA A2 08 01  41f..[..........
13E0: 6B 6B 64 6D 1C 2A 80 52  28 80 F0 FF FF 7F F0 FF  kkdm.*.R(.......
13F0: FF 7F 30 34 31 66 45 28  80 F0 FF FF 7F F0 FF FF  ..041fE(........
1400: 7F 30 34 31 70 01 80 1C  EA 80 27 10 E6 A2 08 01  .041p.....'.....
1410: 02 27 10 E8 A2 08 01 04  BA E2 A2 08 01 EB 80 EC  .'..............
1420: 80 ED 80 EE 80 BA E4 A2  08 01 EF 80 F0 80 F1 80  ................
1430: F2 80 BA E5 A2 08 01 F3  80 F4 80 F5 80 86 80 BA  ................
1440: E6 A2 08 01 F6 80 F7 80  F8 80 F9 80 BA E7 A2 08  ................
1450: 01 FA 80 FB 80 FC 80 86  80 BA E8 A2 08 01 FD 80  ................
1460: FE 80 FF 80 00 81 BA E9  A2 08 01 01 81 02 81 03  ................
1470: 81 86 80 BA F0 A2 08 01  B3 80 B4 80 B5 80 82 80  ................
1480: BA F1 A2 08 01 04 81 05  81 06 81 07 81 BA F2 A2  ................
1490: 08 01 08 81 09 81 0A 81  0B 81 BA F3 A2 08 01 0C  ................
14A0: 81 0D 81 0E 81 0F 81 BA  F4 A2 08 01 10 81 11 81  ................
14B0: 12 81 13 81 1C 2F 80 52  28 80 F0 FF FF 7F F0 FF  ...../.R(.......
14C0: FF 7F 30 34 31 70 45 28  80 F0 FF FF 7F F0 FF FF  ..041pE(........
14D0: 7F 30 34 31 71 01 80 2C  E3 A2 08 01 E3 A2 08 01  .041q..,........
14E0: 63 6F 72 70 2C EF A2 08  01 EF A2 08 01 63 6F 72  corp,........cor
14F0: 70 2C F1 A2 08 01 F1 A2  08 01 63 6F 72 70 2C F3  p,........corp,.
1500: A2 08 01 F3 A2 08 01 63  6F 72 70 2C F4 A2 08 01  .......corp,....
1510: F4 A2 08 01 63 6F 72 70  5B 25 80 B0 A2 08 01 B0  ....corp[%......
1520: A2 08 01 62 61 74 6C 66  14 81 B2 A2 08 01 B2 A2  ...batlf........
1530: 08 01 31 72 64 79 5B 15  81 E2 A2 08 01 E2 A2 08  ..1rdy[.........
1540: 01 6B 6C 61 30 66 16 81  E4 A2 08 01 E4 A2 08 01  .kla0f..........
1550: 6B 6F 6E 61 5B 17 81 E5  A2 08 01 E5 A2 08 01 6B  kona[..........k
1560: 65 6E 30 5B 18 81 E6 A2  08 01 E6 A2 08 01 64 75  en0[..........du
1570: 70 6C 5B 18 81 E7 A2 08  01 E7 A2 08 01 64 75 70  pl[..........dup
1580: 6C 66 14 81 E8 A2 08 01  E8 A2 08 01 31 72 64 79  lf..........1rdy
1590: 5B 19 81 E9 A2 08 01 E9  A2 08 01 73 64 6F 6E C5  [..........sdon.
15A0: D0 80 F5 A2 08 01 F5 A2  08 01 73 30 30 31 01 80  ..........s001..
15B0: C5 D0 80 F6 A2 08 01 F6  A2 08 01 73 30 30 31 01  ...........s001.
15C0: 80 C5 D0 80 F7 A2 08 01  F7 A2 08 01 73 30 30 31  ............s001
15D0: 01 80 1C 23 80 5C 00 1A  81 5C 01 1A 81 5C 02 1A  ...#.\...\...\..
15E0: 81 5C 03 1A 81 9A 52 28  80 F0 FF FF 7F F0 FF FF  .\....R(........
15F0: 7F 30 34 31 71 45 28 80  F0 FF FF 7F F0 FF FF 7F  .041qE(.........
1600: 30 34 31 67 01 80 27 10  EA A2 08 01 02 BA EA A2  041g..'.........
1610: 08 01 1B 81 1C 81 1D 81  1E 81 1C 27 80 5B CB 80  ...........'.[..
1620: C1 A2 08 01 C1 A2 08 01  61 63 74 34 52 28 80 F0  ........act4R(..
1630: FF FF 7F F0 FF FF 7F 30  34 31 67 45 28 80 F0 FF  .......041gE(...
1640: FF 7F F0 FF FF 7F 30 34  31 68 01 80 45 28 80 C1  ......041h..E(..
1650: A2 08 01 C1 A2 08 01 73  65 30 34 01 80 1C 2A 80  .......se04...*.
1660: 5B 25 80 EA A2 08 01 EA  A2 08 01 62 61 74 6C 66  [%.........batlf
1670: 14 81 EB A2 08 01 EB A2  08 01 31 72 64 79 1C 1F  ..........1rdy..
1680: 81 52 28 80 F0 FF FF 7F  F0 FF FF 7F 30 34 31 69  .R(.........041i
1690: 45 28 80 F0 FF FF 7F F0  FF FF 7F 30 34 31 72 01  E(.........041r.
16A0: 80 1C 2F 80 52 28 80 F0  FF FF 7F F0 FF FF 7F 30  ../.R(.........0
16B0: 34 31 72 45 28 80 F0 FF  FF 7F F0 FF FF 7F 30 34  41rE(.........04
16C0: 31 6A 01 80 1C EA 80 BA  E4 A2 08 01 20 81 21 81  1j.......... .!.
16D0: 22 81 23 81 BA E5 A2 08  01 24 81 25 81 26 81 35  ".#......$.%.&.5
16E0: 80 BA E6 A2 08 01 27 81  28 81 29 81 2A 81 BA E7  ......'.(.).*...
16F0: A2 08 01 2B 81 2C 81 2D  81 2E 81 BA E9 A2 08 01  ...+.,.-........
1700: 2F 81 30 81 31 81 32 81  BA EA A2 08 01 33 81 34  /.0.1.2......3.4
1710: 81 35 81 36 81 BA EB A2  08 01 37 81 38 81 39 81  .5.6......7.8.9.
1720: 3A 81 BA EF A2 08 01 3B  81 3C 81 3D 81 3E 81 BA  :......;.<.=.>..
1730: F0 A2 08 01 3F 81 40 81  41 81 42 81 BA F1 A2 08  ....?.@.A.B.....
1740: 01 04 81 05 81 06 81 07  81 BA F2 A2 08 01 43 81  ..............C.
1750: 44 81 45 81 46 81 BA F3  A2 08 01 47 81 48 81 49  D.E.F......G.H.I
1760: 81 4A 81 BA F4 A2 08 01  4B 81 4C 81 4D 81 7E 80  .J......K.L.M.~.
1770: 1C 4E 81 52 28 80 F0 FF  FF 7F F0 FF FF 7F 30 34  .N.R(.........04
1780: 31 6A 45 28 80 F0 FF FF  7F F0 FF FF 7F 30 34 31  1jE(.........041
1790: 73 01 80 1C 2A 80 52 28  80 F0 FF FF 7F F0 FF FF  s...*.R(........
17A0: 7F 30 34 31 73 45 28 80  F0 FF FF 7F F0 FF FF 7F  .041sE(.........
17B0: 30 34 31 6B 01 80 1C EA  80 27 10 E8 A2 08 01 03  041k.....'......
17C0: 27 10 EA A2 08 01 04 BA  E2 A2 08 01 4F 81 50 81  '...........O.P.
17D0: 92 80 51 81 BA E5 A2 08  01 52 81 53 81 54 81 55  ..Q......R.S.T.U
17E0: 81 BA E9 A2 08 01 56 81  57 81 58 81 59 81 BA EF  ......V.W.X.Y...
17F0: A2 08 01 5A 81 5B 81 5C  81 5D 81 BA F0 A2 08 01  ...Z.[.\.]......
1800: 5E 81 5F 81 60 81 61 81  BA F1 A2 08 01 62 81 63  ^._.`.a......b.c
1810: 81 64 81 65 81 BA F2 A2  08 01 66 81 67 81 68 81  .d.e......f.g.h.
1820: 69 81 BA F3 A2 08 01 6A  81 6B 81 6C 81 6D 81 BA  i......j.k.l.m..
1830: F4 A2 08 01 6E 81 6F 81  92 80 70 81 BA B2 A2 08  ....n.o...p.....
1840: 01 EF 80 F0 80 F1 80 F2  80 BA B0 A2 08 01 F6 80  ................
1850: F7 80 F8 80 F9 80 BA E7  A2 08 01 FA 80 FB 80 FC  ................
1860: 80 86 80 BA EA A2 08 01  1B 81 1C 81 1D 81 1E 81  ................
1870: BA EB A2 08 01 71 81 72  81 73 81 D6 80 1C 4E 81  .....q.r.s....N.
1880: 52 28 80 F0 FF FF 7F F0  FF FF 7F 30 34 31 6B 45  R(.........041kE
1890: 28 80 F0 FF FF 7F F0 FF  FF 7F 30 34 31 74 01 80  (.........041t..
18A0: 27 10 E6 A2 08 01 03 27  10 E8 A2 08 01 03 27 10  '......'......'.
18B0: E9 A2 08 01 04 1C 2E 80  BA E2 A2 08 01 74 81 75  .............t.u
18C0: 81 76 81 77 81 BA E3 A2  08 01 78 81 79 81 7A 81  .v.w......x.y.z.
18D0: 7B 81 BA E4 A2 08 01 7C  81 7D 81 7E 81 7F 81 BA  {......|.}.~....
18E0: E5 A2 08 01 F3 80 F4 80  F5 80 86 80 BA E6 A2 08  ................
18F0: 01 80 81 81 81 82 81 83  81 BA E8 A2 08 01 01 81  ................
1900: 02 81 03 81 86 80 BA E9  A2 08 01 84 81 85 81 86  ................
1910: 81 87 81 BA EA A2 08 01  88 81 89 81 8A 81 8B 81  ................
1920: BA F0 A2 08 01 B3 80 B4  80 B5 80 82 80 BA F1 A2  ................
1930: 08 01 8C 81 8D 81 8E 81  8F 81 BA F2 A2 08 01 90  ................
1940: 81 91 81 92 81 93 81 BA  F3 A2 08 01 0C 81 0D 81  ................
1950: 0E 81 0F 81 BA F4 A2 08  01 10 81 11 81 12 81 13  ................
1960: 81 C5 D0 80 F5 A2 08 01  F5 A2 08 01 6B 6C 30 31  ............kl01
1970: 01 80 C5 D0 80 F6 A2 08  01 F6 A2 08 01 6B 6C 30  .............kl0
1980: 31 01 80 C5 D0 80 F7 A2  08 01 F7 A2 08 01 6B 6C  1.............kl
1990: 30 31 01 80 1C 2A 80 52  28 80 F0 FF FF 7F F0 FF  01...*.R(.......
19A0: FF 7F 30 34 31 74 45 28  80 F0 FF FF 7F F0 FF FF  ..041tE(........
19B0: 7F 30 34 31 6C 01 80 1C  EA 80 BA E7 A2 08 01 FA  .041l...........
19C0: 80 FB 80 FC 80 86 80 BA  EB A2 08 01 94 81 95 81  ................
19D0: 96 81 97 81 27 10 E4 A2  08 01 05 27 10 E6 A2 08  ....'......'....
19E0: 01 05 27 10 E8 A2 08 01  05 27 10 E9 A2 08 01 05  ..'......'......
19F0: 27 10 EA A2 08 01 04 1C  4E 81 52 28 80 F0 FF FF  '.......N.R(....
1A00: 7F F0 FF FF 7F 30 34 31  6C 45 28 80 F0 FF FF 7F  .....041lE(.....
1A10: F0 FF FF 7F 30 34 31 75  01 80 1C 23 80 52 28 80  ....041u...#.R(.
1A20: F0 FF FF 7F F0 FF FF 7F  30 34 31 75 45 28 80 F0  ........041uE(..
1A30: FF FF 7F F0 FF FF 7F 30  34 31 6D 01 80 1C EA 80  .......041m.....
1A40: 27 10 E2 A2 08 01 03 27  10 E4 A2 08 01 03 27 10  '......'......'.
1A50: E5 A2 08 01 03 27 10 E9  A2 08 01 03 27 10 EA A2  .....'......'...
1A60: 08 01 03 27 10 EB A2 08  01 03 1C 7B 80 C5 CC 80  ...'.......{....
1A70: C1 A2 08 01 C1 A2 08 01  73 74 30 31 01 80 5B CB  ........st01..[.
1A80: 80 C1 A2 08 01 C1 A2 08  01 61 63 73 35 1C 98 81  .........acs5...
1A90: 52 28 80 F0 FF FF 7F F0  FF FF 7F 30 34 31 6D 45  R(.........041mE
1AA0: 28 80 F0 FF FF 7F F0 FF  FF 7F 30 34 31 6E 01 80  (.........041n..
1AB0: 1C 2F 80 52 28 80 F0 FF  FF 7F F0 FF FF 7F 30 34  ./.R(.........04
1AC0: 31 6E 45 28 80 F0 FF FF  7F F0 FF FF 7F 30 34 31  1nE(.........041
1AD0: 6F 01 80 BA B0 A2 08 01  99 81 9A 81 92 80 9B 81  o...............
1AE0: BA E4 A2 08 01 9C 81 9D  81 9E 81 9F 81 BA E5 A2  ................
1AF0: 08 01 A0 81 A1 81 A2 81  A3 81 BA E7 A2 08 01 A4  ................
1B00: 81 A5 81 A6 81 A7 81 BA  E8 A2 08 01 A8 81 A9 81  ................
1B10: 85 80 AA 81 BA EA A2 08  01 AB 81 AC 81 AD 81 AE  ................
1B20: 81 1C 23 80 C5 CC 80 C1  A2 08 01 C1 A2 08 01 73  ..#............s
1B30: 74 30 32 01 80 5B CB 80  C1 A2 08 01 C1 A2 08 01  t02..[..........
1B40: 61 63 73 36 5B AF 81 E9  A2 08 01 E9 A2 08 01 62  acs6[..........b
1B50: 72 6F 62 1C 39 80 52 28  80 F0 FF FF 7F F0 FF FF  rob.9.R(........
1B60: 7F 30 34 31 6F 45 28 80  F0 FF FF 7F F0 FF FF 7F  .041oE(.........
1B70: 30 34 31 76 01 80 BA B2  A2 08 01 B0 81 B1 81 B2  041v............
1B80: 81 D6 80 BA E2 A2 08 01  B3 81 B4 81 9E 81 B5 81  ................
1B90: BA E6 A2 08 01 B6 81 B7  81 B8 81 B9 81 BA E9 A2  ................
1BA0: 08 01 BA 81 BB 81 BC 81  BD 81 BA EB A2 08 01 BE  ................
1BB0: 81 BF 81 92 80 C0 81 BA  F7 A2 08 01 78 81 79 81  ............x.y.
1BC0: 7A 81 7B 81 27 10 E7 A2  08 01 07 27 10 E3 A2 08  z.{.'......'....
1BD0: 01 05 27 10 E5 A2 08 01  08 1C 2E 80 27 10 E6 A2  ..'.........'...
1BE0: 08 01 07 27 10 E9 A2 08  01 07 27 10 B2 A2 08 01  ...'......'.....
1BF0: 13 27 10 E2 A2 08 01 05  27 10 EB A2 08 01 05 52  .'......'......R
1C00: 28 80 F0 FF FF 7F F0 FF  FF 7F 30 34 31 76 45 28  (.........041vE(
1C10: 80 F0 FF FF 7F F0 FF FF  7F 30 34 31 77 01 80 CD  .........041w...
1C20: 2E 80 F7 A2 08 01 F7 A2  08 01 73 74 30 31 01 80  ..........st01..
1C30: 1C C1 81 52 28 80 F0 FF  FF 7F F0 FF FF 7F 30 34  ...R(.........04
1C40: 31 77 45 28 80 F0 FF FF  7F F0 FF FF 7F 30 34 31  1wE(.........041
1C50: 78 01 80 1C EA 80 7A 00  B2 A2 08 01 7A 00 E2 A2  x.....z.....z...
1C60: 08 01 7A 00 E6 A2 08 01  7A 00 E9 A2 08 01 7A 00  ..z.....z.....z.
1C70: EB A2 08 01 6B 69 64 6C  30 B2 A2 08 01 6B 69 64  ....kidl0....kid
1C80: 6C 30 E2 A2 08 01 6B 69  64 6C 30 E6 A2 08 01 6B  l0....kidl0....k
1C90: 69 64 6C 30 E9 A2 08 01  6B 69 64 6C 30 EB A2 08  idl0....kidl0...
1CA0: 01 2C B0 A2 08 01 B0 A2  08 01 64 65 61 64 2C E4  .,........dead,.
1CB0: A2 08 01 E4 A2 08 01 64  65 61 64 2C E8 A2 08 01  .......dead,....
1CC0: E8 A2 08 01 64 65 61 64  2C EA A2 08 01 EA A2 08  ....dead,.......
1CD0: 01 64 65 61 64 2C E6 A2  08 01 E6 A2 08 01 64 65  .dead,........de
1CE0: 61 64 5B AB 80 EB A2 08  01 EB A2 08 01 67 61 6B  ad[..........gak
1CF0: 75 C5 D0 80 B0 A2 08 01  B0 A2 08 01 73 30 30 31  u...........s001
1D00: 01 80 C5 D0 80 F5 A2 08  01 F5 A2 08 01 73 30 30  .............s00
1D10: 31 01 80 C5 D0 80 F6 A2  08 01 F6 A2 08 01 73 30  1.............s0
1D20: 30 31 01 80 1C C2 81 1A  A6 32 1C 2E 80 BA F5 A2  01.......2......
1D30: 08 01 C3 81 C4 81 C5 81  C6 81 BA F6 A2 08 01 C7  ................
1D40: 81 C8 81 C9 81 CA 81 BA  B2 A2 08 01 B0 81 B1 81  ................
1D50: B2 81 D6 80 BA E2 A2 08  01 CB 81 CC 81 CD 81 D6  ................
1D60: 80 BA E5 A2 08 01 BE 81  BF 81 92 80 C0 81 BA E7  ................
1D70: A2 08 01 B3 81 B4 81 9E  81 CE 81 BA E9 A2 08 01  ................
1D80: CF 81 D0 81 D1 81 D2 81  BA E6 A2 08 01 C7 81 C8  ................
1D90: 81 C9 81 CA 81 BA EB A2  08 01 D3 81 D4 81 D5 81  ................
1DA0: D6 81 2C E7 A2 08 01 E7  A2 08 01 64 65 61 64 27  ..,........dead'
1DB0: 10 E3 A2 08 01 03 27 10  B2 A2 08 01 12 27 10 E5  ......'......'..
1DC0: A2 08 01 07 27 10 E9 A2  08 01 06 1C 53 80 CD 2E  ....'.......S...
1DD0: 80 F7 A2 08 01 F7 A2 08  01 6B 69 6C 61 01 80 C5  .........kila...
1DE0: CC 80 C1 A2 08 01 C1 A2  08 01 6B 69 6C 6C 01 80  ..........kill..
1DF0: 52 28 80 F0 FF FF 7F F0  FF FF 7F 30 34 31 78 45  R(.........041xE
1E00: 28 80 F0 FF FF 7F F0 FF  FF 7F 30 34 32 31 01 80  (.........0421..
1E10: 1A 85 32 1C C1 81 5B D7  81 E2 A2 08 01 E2 A2 08  ..2...[.........
1E20: 01 62 73 30 30 1C 27 80  52 28 80 F0 FF FF 7F F0  .bs00.'.R(......
1E30: FF FF 7F 30 34 32 31 45  28 80 F0 FF FF 7F F0 FF  ...0421E(.......
1E40: FF 7F 30 34 32 6A 01 80  BA B0 A2 08 01 B6 81 D8  ..042j..........
1E50: 81 B8 81 B9 81 BA E4 A2  08 01 C3 81 C4 81 C5 81  ................
1E60: C6 81 BA E8 A2 08 01 D9  81 DA 81 DB 81 D6 80 BA  ................
1E70: EA A2 08 01 DC 81 DD 81  DE 81 DF 81 1C 2C 80 52  .............,.R
1E80: 28 80 F0 FF FF 7F F0 FF  FF 7F 30 34 32 6A 45 28  (.........042jE(
1E90: 80 F0 FF FF 7F F0 FF FF  7F 30 34 32 6B 01 80 1C  .........042k...
1EA0: EA 80 C5 D0 80 B0 A2 08  01 B0 A2 08 01 6B 6C 30  .............kl0
1EB0: 31 01 80 C5 D0 80 F5 A2  08 01 F5 A2 08 01 6B 6C  1.............kl
1EC0: 30 31 01 80 C5 D0 80 F6  A2 08 01 F6 A2 08 01 6B  01.............k
1ED0: 6C 30 31 01 80 27 10 E4  A2 08 01 04 27 10 EA A2  l01..'......'...
1EE0: 08 01 05 1C E0 81 52 28  80 F0 FF FF 7F F0 FF FF  ......R(........
1EF0: 7F 30 34 32 6B 45 28 80  F0 FF FF 7F F0 FF FF 7F  .042kE(.........
1F00: 30 34 31 79 01 80 CD CD  80 C1 A2 08 01 C1 A2 08  041y............
1F10: 01 73 30 30 30 01 80 5B  CB 80 C1 A2 08 01 C1 A2  .s000..[........
1F20: 08 01 61 63 73 37 1C EA  80 BA BE A2 08 01 87 80  ..acs7..........
1F30: 88 80 89 80 8A 80 BA 07  A3 08 01 87 80 88 80 89  ................
1F40: 80 8A 80 BA 08 A3 08 01  E1 81 E2 81 E3 81 E4 81  ................
1F50: BA E3 A2 08 01 E1 81 E2  81 E3 81 E4 81 BA E4 A2  ................
1F60: 08 01 9C 81 9D 81 9E 81  9F 81 BA E6 A2 08 01 E5  ................
1F70: 81 E6 81 92 80 E7 81 BA  E8 A2 08 01 A8 81 A9 81  ................
1F80: 85 80 AA 81 BA EA A2 08  01 AB 81 AC 81 AD 81 AE  ................
1F90: 81 5B E8 81 08 A3 08 01  08 A3 08 01 6C 6B 61 30  .[..........lka0
1FA0: 5B E9 81 E3 A2 08 01 E3  A2 08 01 6C 6B 61 30 1C  [..........lka0.
1FB0: 7B 80 52 28 80 F0 FF FF  7F F0 FF FF 7F 30 34 31  {.R(.........041
1FC0: 79 45 28 80 F0 FF FF 7F  F0 FF FF 7F 30 34 32 7A  yE(.........042z
1FD0: 01 80 1C 2E 80 CD CD 80  C1 A2 08 01 C1 A2 08 01  ................
1FE0: 73 30 30 31 01 80 5B CB  80 C1 A2 08 01 C1 A2 08  s001..[.........
1FF0: 01 61 63 73 38 BA B2 A2  08 01 EA 81 EB 81 EC 81  .acs8...........
2000: D6 80 BA E9 A2 08 01 CF  81 ED 81 92 80 D2 81 1C  ................
2010: B5 81 52 28 80 F0 FF FF  7F F0 FF FF 7F 30 34 32  ..R(.........042
2020: 7A 45 28 80 F0 FF FF 7F  F0 FF FF 7F 30 34 31 7A  zE(.........041z
2030: 01 80 1C 27 80 27 10 E9  A2 08 01 07 27 10 B0 A2  ...'.'......'...
2040: 08 01 1D 27 10 B2 A2 08  01 13 27 10 E7 A2 08 01  ...'......'.....
2050: 06 27 10 E5 A2 08 01 05  1C 50 80 52 28 80 F0 FF  .'.......P.R(...
2060: FF 7F F0 FF FF 7F 30 34  31 7A 45 28 80 F0 FF FF  ......041zE(....
2070: 7F F0 FF FF 7F 30 34 32  30 01 80 1C 27 80 52 28  .....0420...'.R(
2080: 80 F0 FF FF 7F F0 FF FF  7F 30 34 32 30 45 28 80  .........0420E(.
2090: F0 FF FF 7F F0 FF FF 7F  30 34 33 32 01 80 1C 2F  ........0432.../
20A0: 80 52 28 80 F0 FF FF 7F  F0 FF FF 7F 30 34 33 32  .R(.........0432
20B0: 45 28 80 F0 FF FF 7F F0  FF FF 7F 30 34 32 71 01  E(.........042q.
20C0: 80 2B BE A2 08 01 EE 81  1C EA 80 CD CD 80 C1 A2  .+..............
20D0: 08 01 C1 A2 08 01 6B 69  6C 6C 01 80 6B 69 64 6C  ......kill..kidl
20E0: 30 B0 A2 08 01 6B 69 64  6C 30 B2 A2 08 01 6B 69  0....kidl0....ki
20F0: 64 6C 30 E2 A2 08 01 6B  69 64 6C 30 E5 A2 08 01  dl0....kidl0....
2100: 6B 69 64 6C 30 E6 A2 08  01 6B 69 64 6C 30 E7 A2  kidl0....kidl0..
2110: 08 01 6B 69 64 6C 30 E9  A2 08 01 6B 69 64 6C 30  ..kidl0....kidl0
2120: EB A2 08 01 1C 98 81 BA  B0 A2 08 01 EF 81 F0 81  ................
2130: F1 81 F2 81 BA B2 A2 08  01 F3 81 F4 81 F5 81 86  ................
2140: 80 BA E2 A2 08 01 F6 81  F7 81 92 80 82 80 BA E5  ................
2150: A2 08 01 F8 81 F9 81 FA  81 FB 81 BA E6 A2 08 01  ................
2160: FC 81 FD 81 FE 81 86 80  BA E7 A2 08 01 FF 81 00  ................
2170: 82 01 82 02 82 BA E9 A2  08 01 03 82 04 82 05 82  ................
2180: 02 82 BA EB A2 08 01 06  82 07 82 92 80 82 80 BA  ................
2190: F0 A2 08 01 08 82 09 82  0A 82 82 80 BA F1 A2 08  ................
21A0: 01 0B 82 0C 82 0D 82 0E  82 BA F2 A2 08 01 0F 82  ................
21B0: 10 82 11 82 12 82 5B AB  80 B0 A2 08 01 B0 A2 08  ......[.........
21C0: 01 67 61 6B 75 1C EA 80  23 52 28 80 F0 FF FF 7F  .gaku...#R(.....
21D0: F0 FF FF 7F 30 34 32 71  45 28 80 F0 FF FF 7F F0  ....042qE(......
21E0: FF FF 7F 30 34 32 73 01  80 27 10 B2 A2 08 01 14  ...042s..'......
21F0: 27 10 E5 A2 08 01 09 27  10 E6 A2 08 01 08 1C EA  '......'........
2200: 80 BA BE A2 08 01 87 80  88 80 89 80 13 82 BA 07  ................
2210: A3 08 01 87 80 88 80 89  80 13 82 1C 4E 81 5B C8  ............N.[.
2220: 80 BE A2 08 01 BE A2 08  01 73 69 6B 30 5B C9 80  .........sik0[..
2230: 07 A3 08 01 07 A3 08 01  73 69 6B 30 1C 7E 80 52  ........sik0.~.R
