# 17343163 - Ukai04

## Common Data

| Field            | Value                              |
|------------------|------------------------------------|
| Zone             | Castle Zvahl Baileys [S] (ID: 138) |
| Block Size       | 336 bytes                          |
| Total Events     | 13                                 |
| References Count | 27                                 |

## List of Events

| Event ID                   | Entrypoint   |   Size |   Instructions |
|----------------------------|--------------|--------|----------------|
| [65535](#event-65535)      | 0x0000       |      1 |              1 |
| [1](#event-1)              | 0x0001       |      1 |              1 |
| [65535.1](#event-655351)   | 0x0002       |     14 |              4 |
| [65535.2](#event-655352)   | 0x0010       |     14 |              4 |
| [65535.3](#event-655353)   | 0x001E       |     17 |              5 |
| [65535.4](#event-655354)   | 0x002F       |     10 |              2 |
| [65535.5](#event-655355)   | 0x0039       |     10 |              2 |
| [65535.6](#event-655356)   | 0x0043       |     21 |              2 |
| [65535.7](#event-655357)   | 0x0058       |     21 |              2 |
| [65535.8](#event-655358)   | 0x006D       |     21 |              2 |
| [65535.9](#event-655359)   | 0x0082       |      5 |              2 |
| [65535.10](#event-6553510) | 0x0087       |      5 |              2 |
| [65535.11](#event-6553511) | 0x008C       |     19 |              3 |

## DAT References (imed_data)

|   Index | Hex Value   |   Dec Value |
|---------|-------------|-------------|
|       0 | 0x000B      |          11 |
|       1 | 0xFFFA4931  |  4294592817 |
|       2 | 0xFFFF89E8  |  4294937064 |
|       3 | 0xFFFFEB7B  |  4294962043 |
|       4 | 0x0028      |          40 |
|       5 | 0x4133C     |      267068 |
|       6 | 0xE509      |       58633 |
|       7 | 0xFFFFAFED  |  4294946797 |
|       8 | 0x0078      |         120 |
|       9 | 0x35113     |      217363 |
|      10 | 0xEF57      |       61271 |
|      11 | 0xFFFFA1FB  |  4294943227 |
|      12 | 0x0000      |           0 |
|      13 | 0x0001      |           1 |
|      14 | 0x0080      |         128 |
|      15 | 0x0003      |           3 |
|      16 | 0x000A      |          10 |
|      17 | 0x00DD      |         221 |
|      18 | 0x00D3      |         211 |
|      19 | 0x0096      |         150 |
|      20 | 0x0040      |          64 |
|      21 | 0x000C      |          12 |
|      22 | 0x000D      |          13 |
|      23 | 0x00FB      |         251 |
|      24 | 0x001B      |          27 |
|      25 | 0x0036      |          54 |
|      26 | 0x0BD5      |        3029 |

## Events

### Event 65535

#### Metadata

| Field        | Value   |
|--------------|---------|
| Entrypoint   | 0x0000  |
| Data Size    | 1 bytes |
| Instructions | 1       |

```
      00 01 02 03 04 05 06 07  08 09 0A 0B 0C 0D 0E 0F
      -- -- -- -- -- -- -- --  -- -- -- -- -- -- -- --
0000: 00                                                .               
```

#### Opcodes

```
  0: 0x0000 [0x00] END_REQSTACK()
```

### Event 1

#### Metadata

| Field        | Value   |
|--------------|---------|
| Entrypoint   | 0x0001  |
| Data Size    | 1 bytes |
| Instructions | 1       |

```
      00 01 02 03 04 05 06 07  08 09 0A 0B 0C 0D 0E 0F
      -- -- -- -- -- -- -- --  -- -- -- -- -- -- -- --
0000:    00                                              .              
```

#### Opcodes

```
  0: 0x0001 [0x00] END_REQSTACK()
```

### Event 65535.1

#### Metadata

| Field        | Value    |
|--------------|----------|
| Entrypoint   | 0x0002   |
| Data Size    | 14 bytes |
| Instructions | 4        |

```
      00 01 02 03 04 05 06 07  08 09 0A 0B 0C 0D 0E 0F
      -- -- -- -- -- -- -- --  -- -- -- -- -- -- -- --
0000:       32 00 80 1F 00 01  80 02 80 03 80 1F 01 00    2.............
```

#### Opcodes

```
  0: 0x0002 [0x32] ExtData[1]->MainSpeed = 11* * 0.1
  1: 0x0005 [0x1F] MOVE_ENTITY: EventEntity moves to X=-374.479*, Z=-30.232*, Y=-5.253*
  2: 0x000D [0x1F] MOVE_ENTITY: Update entity position (mode=1)
  3: 0x000F [0x00] END_REQSTACK()
```

### Event 65535.2

#### Metadata

| Field        | Value    |
|--------------|----------|
| Entrypoint   | 0x0010   |
| Data Size    | 14 bytes |
| Instructions | 4        |

```
      00 01 02 03 04 05 06 07  08 09 0A 0B 0C 0D 0E 0F
      -- -- -- -- -- -- -- --  -- -- -- -- -- -- -- --
0010: 32 04 80 1F 00 05 80 06  80 07 80 1F 01 00        2.............  
```

#### Opcodes

```
  0: 0x0010 [0x32] ExtData[1]->MainSpeed = 40* * 0.1
  1: 0x0013 [0x1F] MOVE_ENTITY: EventEntity moves to X=267.068*, Z=58.633*, Y=-20.499*
  2: 0x001B [0x1F] MOVE_ENTITY: Update entity position (mode=1)
  3: 0x001D [0x00] END_REQSTACK()
```

### Event 65535.3

#### Metadata

| Field        | Value    |
|--------------|----------|
| Entrypoint   | 0x001E   |
| Data Size    | 17 bytes |
| Instructions | 5        |

```
      00 01 02 03 04 05 06 07  08 09 0A 0B 0C 0D 0E 0F
      -- -- -- -- -- -- -- --  -- -- -- -- -- -- -- --
0010:                                            32 04                2.
0020: 80 1C 08 80 1F 00 09 80  0A 80 0B 80 1F 01 00     ............... 
```

#### Opcodes

```
  0: 0x001E [0x32] ExtData[1]->MainSpeed = 40* * 0.1
  1: 0x0021 [0x1C] WAIT(120* ticks)
  2: 0x0024 [0x1F] MOVE_ENTITY: EventEntity moves to X=217.363*, Z=61.271*, Y=-24.069*
  3: 0x002C [0x1F] MOVE_ENTITY: Update entity position (mode=1)
  4: 0x002E [0x00] END_REQSTACK()
```

### Event 65535.4

#### Metadata

| Field        | Value    |
|--------------|----------|
| Entrypoint   | 0x002F   |
| Data Size    | 10 bytes |
| Instructions | 2        |

```
      00 01 02 03 04 05 06 07  08 09 0A 0B 0C 0D 0E 0F
      -- -- -- -- -- -- -- --  -- -- -- -- -- -- -- --
0020:                                               6C                 l
0030: BB A2 08 01 0C 80 0D 80  00                       .........       
```

#### Opcodes

```
  0: 0x002F [0x6C] FADE_ENTITY_COLOR(entity_id=Ukai04 (ID: 17343163/0x0108A2BB), end_alpha=0*, fade_time=1*)
  1: 0x0038 [0x00] END_REQSTACK()
```

### Event 65535.5

#### Metadata

| Field        | Value    |
|--------------|----------|
| Entrypoint   | 0x0039   |
| Data Size    | 10 bytes |
| Instructions | 2        |

```
      00 01 02 03 04 05 06 07  08 09 0A 0B 0C 0D 0E 0F
      -- -- -- -- -- -- -- --  -- -- -- -- -- -- -- --
0030:                             6C BB A2 08 01 0E 80           l......
0040: 0D 80 00                                          ...             
```

#### Opcodes

```
  0: 0x0039 [0x6C] FADE_ENTITY_COLOR(entity_id=Ukai04 (ID: 17343163/0x0108A2BB), end_alpha=128*, fade_time=1*)
  1: 0x0042 [0x00] END_REQSTACK()
```

### Event 65535.6

#### Metadata

| Field        | Value    |
|--------------|----------|
| Entrypoint   | 0x0043   |
| Data Size    | 21 bytes |
| Instructions | 2        |

```
      00 01 02 03 04 05 06 07  08 09 0A 0B 0C 0D 0E 0F
      -- -- -- -- -- -- -- --  -- -- -- -- -- -- -- --
0040:          B6 0B 0F 80 10  80 11 80 11 80 11 80 11     .............
0050: 80 11 80 12 80 0C 80 00                           ........        
```

#### Opcodes

```
  0: 0x0043 [0xB6] ENTITY_APPEARANCE_HANDLER(case=Full entity look, race=3*, hair=10*, head=221*, body=221*, hands=221*, legs=221*, feet=221*, main=211*, sub=0*)
  1: 0x0057 [0x00] END_REQSTACK()
```

### Event 65535.7

#### Metadata

| Field        | Value    |
|--------------|----------|
| Entrypoint   | 0x0058   |
| Data Size    | 21 bytes |
| Instructions | 2        |

```
      00 01 02 03 04 05 06 07  08 09 0A 0B 0C 0D 0E 0F
      -- -- -- -- -- -- -- --  -- -- -- -- -- -- -- --
0050:                          B6 0B 0F 80 0F 80 13 80          ........
0060: 11 80 11 80 11 80 11 80  14 80 0C 80 00           .............   
```

#### Opcodes

```
  0: 0x0058 [0xB6] ENTITY_APPEARANCE_HANDLER(case=Full entity look, race=3*, hair=3*, head=150*, body=221*, hands=221*, legs=221*, feet=221*, main=64*, sub=0*)
  1: 0x006C [0x00] END_REQSTACK()
```

### Event 65535.8

#### Metadata

| Field        | Value    |
|--------------|----------|
| Entrypoint   | 0x006D   |
| Data Size    | 21 bytes |
| Instructions | 2        |

```
      00 01 02 03 04 05 06 07  08 09 0A 0B 0C 0D 0E 0F
      -- -- -- -- -- -- -- --  -- -- -- -- -- -- -- --
0060:                                         B6 0B 0F               ...
0070: 80 0C 80 15 80 16 80 15  80 11 80 11 80 17 80 18  ................
0080: 80 00                                             ..              
```

#### Opcodes

```
  0: 0x006D [0xB6] ENTITY_APPEARANCE_HANDLER(case=Full entity look, race=3*, hair=0*, head=12*, body=13*, hands=12*, legs=221*, feet=221*, main=251*, sub=27*)
  1: 0x0081 [0x00] END_REQSTACK()
```

### Event 65535.9

#### Metadata

| Field        | Value   |
|--------------|---------|
| Entrypoint   | 0x0082  |
| Data Size    | 5 bytes |
| Instructions | 2       |

```
      00 01 02 03 04 05 06 07  08 09 0A 0B 0C 0D 0E 0F
      -- -- -- -- -- -- -- --  -- -- -- -- -- -- -- --
0080:       B6 0A 19 80 00                                .....         
```

#### Opcodes

```
  0: 0x0082 [0xB6] ENTITY_APPEARANCE_HANDLER(case=Ranged, value=54*)
  1: 0x0086 [0x00] END_REQSTACK()
```

### Event 65535.10

#### Metadata

| Field        | Value   |
|--------------|---------|
| Entrypoint   | 0x0087  |
| Data Size    | 5 bytes |
| Instructions | 2       |

```
      00 01 02 03 04 05 06 07  08 09 0A 0B 0C 0D 0E 0F
      -- -- -- -- -- -- -- --  -- -- -- -- -- -- -- --
0080:                      B6  0A 0C 80 00                     .....    
```

#### Opcodes

```
  0: 0x0087 [0xB6] ENTITY_APPEARANCE_HANDLER(case=Ranged, value=0*)
  1: 0x008B [0x00] END_REQSTACK()
```

### Event 65535.11

#### Metadata

| Field        | Value    |
|--------------|----------|
| Entrypoint   | 0x008C   |
| Data Size    | 19 bytes |
| Instructions | 3        |

```
      00 01 02 03 04 05 06 07  08 09 0A 0B 0C 0D 0E 0F
      -- -- -- -- -- -- -- --  -- -- -- -- -- -- -- --
0080:                                      1C 13 80 5B              ...[
0090: 1A 80 BB A2 08 01 BB A2  08 01 62 67 6E 31 00     ..........bgn1. 
```

#### Opcodes

```
  0: 0x008C [0x1C] WAIT(150* ticks)
  1: 0x008F [0x5B] LOAD_EXT_SCHEDULER: Load scheduler "bgn1" with entities [Ukai04 (ID: 17343163/0x0108A2BB), Ukai04 (ID: 17343163/0x0108A2BB)], work=3029*
  2: 0x009E [0x00] END_REQSTACK()
```
