# 17343152 - Ragelise

## Common Data

| Field            | Value                              |
|------------------|------------------------------------|
| Zone             | Castle Zvahl Baileys [S] (ID: 138) |
| Block Size       | 580 bytes                          |
| Total Events     | 30                                 |
| References Count | 28                                 |

## List of Events

| Event ID                   | Entrypoint   |   Size |   Instructions |
|----------------------------|--------------|--------|----------------|
| [65535](#event-65535)      | 0x0000       |      1 |              1 |
| [65535.1](#event-655351)   | 0x0001       |      1 |              1 |
| [65535.2](#event-655352)   | 0x0002       |     18 |              4 |
| [65535.3](#event-655353)   | 0x0014       |     10 |              2 |
| [65535.4](#event-655354)   | 0x001E       |      9 |              3 |
| [65535.5](#event-655355)   | 0x0027       |      9 |              3 |
| [65535.6](#event-655356)   | 0x0030       |     10 |              2 |
| [65535.7](#event-655357)   | 0x003A       |     10 |              2 |
| [1](#event-1)              | 0x0044       |      1 |              1 |
| [2](#event-2)              | 0x0045       |      1 |              1 |
| [14](#event-14)            | 0x0046       |      1 |              1 |
| [15](#event-15)            | 0x0047       |      1 |              1 |
| [3](#event-3)              | 0x0048       |      1 |              1 |
| [4](#event-4)              | 0x0049       |     21 |              2 |
| [65535.8](#event-655358)   | 0x005E       |     10 |              2 |
| [65535.9](#event-655359)   | 0x0068       |     10 |              2 |
| [65535.10](#event-6553510) | 0x0072       |     14 |              4 |
| [65535.11](#event-6553511) | 0x0080       |     11 |              3 |
| [65535.12](#event-6553512) | 0x008B       |     21 |              2 |
| [65535.13](#event-6553513) | 0x00A0       |     21 |              2 |
| [65535.14](#event-6553514) | 0x00B5       |     21 |              2 |
| [65535.15](#event-6553515) | 0x00CA       |      5 |              2 |
| [65535.16](#event-6553516) | 0x00CF       |      5 |              2 |
| [65535.17](#event-6553517) | 0x00D4       |     16 |              2 |
| [65535.18](#event-6553518) | 0x00E4       |     14 |              4 |
| [65535.19](#event-6553519) | 0x00F2       |     15 |              5 |
| [65535.20](#event-6553520) | 0x0101       |     21 |              2 |
| [65535.21](#event-6553521) | 0x0116       |     21 |              2 |
| [65535.22](#event-6553522) | 0x012B       |     16 |              2 |
| [65535.23](#event-6553523) | 0x013B       |     16 |              2 |

## DAT References (imed_data)

|   Index | Hex Value   |   Dec Value |
|---------|-------------|-------------|
|       0 | 0x0000      |           0 |
|       1 | 0x0001      |           1 |
|       2 | 0x0080      |         128 |
|       3 | 0x0003      |           3 |
|       4 | 0x000B      |          11 |
|       5 | 0x001B      |          27 |
|       6 | 0x00D9      |         217 |
|       7 | 0x000D      |          13 |
|       8 | 0x2DDE8     |      187880 |
|       9 | 0x4DFD      |       19965 |
|      10 | 0xFFFFA21B  |  4294943259 |
|      11 | 0x2C6AF     |      181935 |
|      12 | 0x75B8      |       30136 |
|      13 | 0xFFFFA19B  |  4294943131 |
|      14 | 0x000A      |          10 |
|      15 | 0x00DD      |         221 |
|      16 | 0x00FB      |         251 |
|      17 | 0x00FA      |         250 |
|      18 | 0x0036      |          54 |
|      19 | 0x0BD5      |        3029 |
|      20 | 0x222DB     |      139995 |
|      21 | 0x10C49     |       68681 |
|      22 | 0xFFFFA204  |  4294943236 |
|      23 | 0x002A      |          42 |
|      24 | 0x0008      |           8 |
|      25 | 0x000C      |          12 |
|      26 | 0x0BD6      |        3030 |
|      27 | 0x0062      |          98 |

## Events

### Event 65535

#### Metadata

| Field        | Value   |
|--------------|---------|
| Entrypoint   | 0x0000  |
| Data Size    | 1 bytes |
| Instructions | 1       |

```
      00 01 02 03 04 05 06 07  08 09 0A 0B 0C 0D 0E 0F
      -- -- -- -- -- -- -- --  -- -- -- -- -- -- -- --
0000: 00                                                .               
```

#### Opcodes

```
  0: 0x0000 [0x00] END_REQSTACK()
```

### Event 65535.1

#### Metadata

| Field        | Value   |
|--------------|---------|
| Entrypoint   | 0x0001  |
| Data Size    | 1 bytes |
| Instructions | 1       |

```
      00 01 02 03 04 05 06 07  08 09 0A 0B 0C 0D 0E 0F
      -- -- -- -- -- -- -- --  -- -- -- -- -- -- -- --
0000:    00                                              .              
```

#### Opcodes

```
  0: 0x0001 [0x00] END_REQSTACK()
```

### Event 65535.2

#### Metadata

| Field        | Value    |
|--------------|----------|
| Entrypoint   | 0x0002   |
| Data Size    | 18 bytes |
| Instructions | 4        |

```
      00 01 02 03 04 05 06 07  08 09 0A 0B 0C 0D 0E 0F
      -- -- -- -- -- -- -- --  -- -- -- -- -- -- -- --
0000:       22 00 2F 00 F8 FF  FF 7F 6C F8 FF FF 7F 00    "./.....l.....
0010: 80 01 80 00                                       ....            
```

#### Opcodes

```
  0: 0x0002 [0x22] ENTITY_HIDE_FLAG(enabled=0x00)
  1: 0x0004 [0x2F] EventEntity->Render.Flags0 &= ~0x80000 // Bit 19
  2: 0x000A [0x6C] FADE_ENTITY_COLOR(entity_id=EventEntity, end_alpha=0*, fade_time=1*)
  3: 0x0013 [0x00] END_REQSTACK()
```

### Event 65535.3

#### Metadata

| Field        | Value    |
|--------------|----------|
| Entrypoint   | 0x0014   |
| Data Size    | 10 bytes |
| Instructions | 2        |

```
      00 01 02 03 04 05 06 07  08 09 0A 0B 0C 0D 0E 0F
      -- -- -- -- -- -- -- --  -- -- -- -- -- -- -- --
0010:             6C F8 FF FF  7F 02 80 01 80 00            l.........  
```

#### Opcodes

```
  0: 0x0014 [0x6C] FADE_ENTITY_COLOR(entity_id=EventEntity, end_alpha=128*, fade_time=1*)
  1: 0x001D [0x00] END_REQSTACK()
```

### Event 65535.4

#### Metadata

| Field        | Value   |
|--------------|---------|
| Entrypoint   | 0x001E  |
| Data Size    | 9 bytes |
| Instructions | 3       |

```
      00 01 02 03 04 05 06 07  08 09 0A 0B 0C 0D 0E 0F
      -- -- -- -- -- -- -- --  -- -- -- -- -- -- -- --
0010:                                            22 00                ".
0020: 2F 00 F8 FF FF 7F 00                              /......         
```

#### Opcodes

```
  0: 0x001E [0x22] ENTITY_HIDE_FLAG(enabled=0x00)
  1: 0x0020 [0x2F] EventEntity->Render.Flags0 &= ~0x80000 // Bit 19
  2: 0x0026 [0x00] END_REQSTACK()
```

### Event 65535.5

#### Metadata

| Field        | Value   |
|--------------|---------|
| Entrypoint   | 0x0027  |
| Data Size    | 9 bytes |
| Instructions | 3       |

```
      00 01 02 03 04 05 06 07  08 09 0A 0B 0C 0D 0E 0F
      -- -- -- -- -- -- -- --  -- -- -- -- -- -- -- --
0020:                      22  01 2F 01 F8 FF FF 7F 00         "./......
```

#### Opcodes

```
  0: 0x0027 [0x22] ENTITY_HIDE_FLAG(enabled=0x01)
  1: 0x0029 [0x2F] EventEntity->Render.Flags0 |= 0x80000 // Bit 19
  2: 0x002F [0x00] END_REQSTACK()
```

### Event 65535.6

#### Metadata

| Field        | Value    |
|--------------|----------|
| Entrypoint   | 0x0030   |
| Data Size    | 10 bytes |
| Instructions | 2        |

```
      00 01 02 03 04 05 06 07  08 09 0A 0B 0C 0D 0E 0F
      -- -- -- -- -- -- -- --  -- -- -- -- -- -- -- --
0030: 6C F8 FF FF 7F 00 80 01  80 00                    l.........      
```

#### Opcodes

```
  0: 0x0030 [0x6C] FADE_ENTITY_COLOR(entity_id=EventEntity, end_alpha=0*, fade_time=1*)
  1: 0x0039 [0x00] END_REQSTACK()
```

### Event 65535.7

#### Metadata

| Field        | Value    |
|--------------|----------|
| Entrypoint   | 0x003A   |
| Data Size    | 10 bytes |
| Instructions | 2        |

```
      00 01 02 03 04 05 06 07  08 09 0A 0B 0C 0D 0E 0F
      -- -- -- -- -- -- -- --  -- -- -- -- -- -- -- --
0030:                                6C F8 FF FF 7F 02            l.....
0040: 80 01 80 00                                       ....            
```

#### Opcodes

```
  0: 0x003A [0x6C] FADE_ENTITY_COLOR(entity_id=EventEntity, end_alpha=128*, fade_time=1*)
  1: 0x0043 [0x00] END_REQSTACK()
```

### Event 1

#### Metadata

| Field        | Value   |
|--------------|---------|
| Entrypoint   | 0x0044  |
| Data Size    | 1 bytes |
| Instructions | 1       |

```
      00 01 02 03 04 05 06 07  08 09 0A 0B 0C 0D 0E 0F
      -- -- -- -- -- -- -- --  -- -- -- -- -- -- -- --
0040:             00                                        .           
```

#### Opcodes

```
  0: 0x0044 [0x00] END_REQSTACK()
```

### Event 2

#### Metadata

| Field        | Value   |
|--------------|---------|
| Entrypoint   | 0x0045  |
| Data Size    | 1 bytes |
| Instructions | 1       |

```
      00 01 02 03 04 05 06 07  08 09 0A 0B 0C 0D 0E 0F
      -- -- -- -- -- -- -- --  -- -- -- -- -- -- -- --
0040:                00                                      .          
```

#### Opcodes

```
  0: 0x0045 [0x00] END_REQSTACK()
```

### Event 14

#### Metadata

| Field        | Value   |
|--------------|---------|
| Entrypoint   | 0x0046  |
| Data Size    | 1 bytes |
| Instructions | 1       |

```
      00 01 02 03 04 05 06 07  08 09 0A 0B 0C 0D 0E 0F
      -- -- -- -- -- -- -- --  -- -- -- -- -- -- -- --
0040:                   00                                    .         
```

#### Opcodes

```
  0: 0x0046 [0x00] END_REQSTACK()
```

### Event 15

#### Metadata

| Field        | Value   |
|--------------|---------|
| Entrypoint   | 0x0047  |
| Data Size    | 1 bytes |
| Instructions | 1       |

```
      00 01 02 03 04 05 06 07  08 09 0A 0B 0C 0D 0E 0F
      -- -- -- -- -- -- -- --  -- -- -- -- -- -- -- --
0040:                      00                                  .        
```

#### Opcodes

```
  0: 0x0047 [0x00] END_REQSTACK()
```

### Event 3

#### Metadata

| Field        | Value   |
|--------------|---------|
| Entrypoint   | 0x0048  |
| Data Size    | 1 bytes |
| Instructions | 1       |

```
      00 01 02 03 04 05 06 07  08 09 0A 0B 0C 0D 0E 0F
      -- -- -- -- -- -- -- --  -- -- -- -- -- -- -- --
0040:                          00                               .       
```

#### Opcodes

```
  0: 0x0048 [0x00] END_REQSTACK()
```

### Event 4

#### Metadata

| Field        | Value    |
|--------------|----------|
| Entrypoint   | 0x0049   |
| Data Size    | 21 bytes |
| Instructions | 2        |

```
      00 01 02 03 04 05 06 07  08 09 0A 0B 0C 0D 0E 0F
      -- -- -- -- -- -- -- --  -- -- -- -- -- -- -- --
0040:                             B6 0B 03 80 04 80 05           .......
0050: 80 06 80 06 80 06 80 06  80 00 80 00 80 00        ..............  
```

#### Opcodes

```
  0: 0x0049 [0xB6] ENTITY_APPEARANCE_HANDLER(case=Full entity look, race=3*, hair=11*, head=27*, body=217*, hands=217*, legs=217*, feet=217*, main=0*, sub=0*)
  1: 0x005D [0x00] END_REQSTACK()
```

### Event 65535.8

#### Metadata

| Field        | Value    |
|--------------|----------|
| Entrypoint   | 0x005E   |
| Data Size    | 10 bytes |
| Instructions | 2        |

```
      00 01 02 03 04 05 06 07  08 09 0A 0B 0C 0D 0E 0F
      -- -- -- -- -- -- -- --  -- -- -- -- -- -- -- --
0050:                                            6C B0                l.
0060: A2 08 01 00 80 01 80 00                           ........        
```

#### Opcodes

```
  0: 0x005E [0x6C] FADE_ENTITY_COLOR(entity_id=Ragelise (ID: 17343152/0x0108A2B0), end_alpha=0*, fade_time=1*)
  1: 0x0067 [0x00] END_REQSTACK()
```

### Event 65535.9

#### Metadata

| Field        | Value    |
|--------------|----------|
| Entrypoint   | 0x0068   |
| Data Size    | 10 bytes |
| Instructions | 2        |

```
      00 01 02 03 04 05 06 07  08 09 0A 0B 0C 0D 0E 0F
      -- -- -- -- -- -- -- --  -- -- -- -- -- -- -- --
0060:                          6C B0 A2 08 01 02 80 01          l.......
0070: 80 00                                             ..              
```

#### Opcodes

```
  0: 0x0068 [0x6C] FADE_ENTITY_COLOR(entity_id=Ragelise (ID: 17343152/0x0108A2B0), end_alpha=128*, fade_time=1*)
  1: 0x0071 [0x00] END_REQSTACK()
```

### Event 65535.10

#### Metadata

| Field        | Value    |
|--------------|----------|
| Entrypoint   | 0x0072   |
| Data Size    | 14 bytes |
| Instructions | 4        |

```
      00 01 02 03 04 05 06 07  08 09 0A 0B 0C 0D 0E 0F
      -- -- -- -- -- -- -- --  -- -- -- -- -- -- -- --
0070:       32 07 80 1F 00 08  80 09 80 0A 80 1F 01 00    2.............
```

#### Opcodes

```
  0: 0x0072 [0x32] ExtData[1]->MainSpeed = 13* * 0.1
  1: 0x0075 [0x1F] MOVE_ENTITY: EventEntity moves to X=187.880*, Z=19.965*, Y=-24.037*
  2: 0x007D [0x1F] MOVE_ENTITY: Update entity position (mode=1)
  3: 0x007F [0x00] END_REQSTACK()
```

### Event 65535.11

#### Metadata

| Field        | Value    |
|--------------|----------|
| Entrypoint   | 0x0080   |
| Data Size    | 11 bytes |
| Instructions | 3        |

```
      00 01 02 03 04 05 06 07  08 09 0A 0B 0C 0D 0E 0F
      -- -- -- -- -- -- -- --  -- -- -- -- -- -- -- --
0080: 1F 00 0B 80 0C 80 0D 80  1F 01 00                 ...........     
```

#### Opcodes

```
  0: 0x0080 [0x1F] MOVE_ENTITY: EventEntity moves to X=181.935*, Z=30.136*, Y=-24.165*
  1: 0x0088 [0x1F] MOVE_ENTITY: Update entity position (mode=1)
  2: 0x008A [0x00] END_REQSTACK()
```

### Event 65535.12

#### Metadata

| Field        | Value    |
|--------------|----------|
| Entrypoint   | 0x008B   |
| Data Size    | 21 bytes |
| Instructions | 2        |

```
      00 01 02 03 04 05 06 07  08 09 0A 0B 0C 0D 0E 0F
      -- -- -- -- -- -- -- --  -- -- -- -- -- -- -- --
0080:                                   B6 0B 03 80 0E             .....
0090: 80 00 80 0F 80 0F 80 0F  80 0F 80 05 80 00 80 00  ................
```

#### Opcodes

```
  0: 0x008B [0xB6] ENTITY_APPEARANCE_HANDLER(case=Full entity look, race=3*, hair=10*, head=0*, body=221*, hands=221*, legs=221*, feet=221*, main=27*, sub=0*)
  1: 0x009F [0x00] END_REQSTACK()
```

### Event 65535.13

#### Metadata

| Field        | Value    |
|--------------|----------|
| Entrypoint   | 0x00A0   |
| Data Size    | 21 bytes |
| Instructions | 2        |

```
      00 01 02 03 04 05 06 07  08 09 0A 0B 0C 0D 0E 0F
      -- -- -- -- -- -- -- --  -- -- -- -- -- -- -- --
00A0: B6 0B 03 80 0E 80 0F 80  0F 80 0F 80 0F 80 0F 80  ................
00B0: 10 80 05 80 00                                    .....           
```

#### Opcodes

```
  0: 0x00A0 [0xB6] ENTITY_APPEARANCE_HANDLER(case=Full entity look, race=3*, hair=10*, head=221*, body=221*, hands=221*, legs=221*, feet=221*, main=251*, sub=27*)
  1: 0x00B4 [0x00] END_REQSTACK()
```

### Event 65535.14

#### Metadata

| Field        | Value    |
|--------------|----------|
| Entrypoint   | 0x00B5   |
| Data Size    | 21 bytes |
| Instructions | 2        |

```
      00 01 02 03 04 05 06 07  08 09 0A 0B 0C 0D 0E 0F
      -- -- -- -- -- -- -- --  -- -- -- -- -- -- -- --
00B0:                B6 0B 03  80 04 80 05 80 06 80 06       ...........
00C0: 80 06 80 06 80 11 80 05  80 00                    ..........      
```

#### Opcodes

```
  0: 0x00B5 [0xB6] ENTITY_APPEARANCE_HANDLER(case=Full entity look, race=3*, hair=11*, head=27*, body=217*, hands=217*, legs=217*, feet=217*, main=250*, sub=27*)
  1: 0x00C9 [0x00] END_REQSTACK()
```

### Event 65535.15

#### Metadata

| Field        | Value   |
|--------------|---------|
| Entrypoint   | 0x00CA  |
| Data Size    | 5 bytes |
| Instructions | 2       |

```
      00 01 02 03 04 05 06 07  08 09 0A 0B 0C 0D 0E 0F
      -- -- -- -- -- -- -- --  -- -- -- -- -- -- -- --
00C0:                                B6 0A 12 80 00               ..... 
```

#### Opcodes

```
  0: 0x00CA [0xB6] ENTITY_APPEARANCE_HANDLER(case=Ranged, value=54*)
  1: 0x00CE [0x00] END_REQSTACK()
```

### Event 65535.16

#### Metadata

| Field        | Value   |
|--------------|---------|
| Entrypoint   | 0x00CF  |
| Data Size    | 5 bytes |
| Instructions | 2       |

```
      00 01 02 03 04 05 06 07  08 09 0A 0B 0C 0D 0E 0F
      -- -- -- -- -- -- -- --  -- -- -- -- -- -- -- --
00C0:                                               B6                 .
00D0: 0A 00 80 00                                       ....            
```

#### Opcodes

```
  0: 0x00CF [0xB6] ENTITY_APPEARANCE_HANDLER(case=Ranged, value=0*)
  1: 0x00D3 [0x00] END_REQSTACK()
```

### Event 65535.17

#### Metadata

| Field        | Value    |
|--------------|----------|
| Entrypoint   | 0x00D4   |
| Data Size    | 16 bytes |
| Instructions | 2        |

```
      00 01 02 03 04 05 06 07  08 09 0A 0B 0C 0D 0E 0F
      -- -- -- -- -- -- -- --  -- -- -- -- -- -- -- --
00D0:             5B 13 80 B0  A2 08 01 B0 A2 08 01 62      [..........b
00E0: 67 6E 31 00                                       gn1.            
```

#### Opcodes

```
  0: 0x00D4 [0x5B] LOAD_EXT_SCHEDULER: Load scheduler "bgn1" with entities [Ragelise (ID: 17343152/0x0108A2B0), Ragelise (ID: 17343152/0x0108A2B0)], work=3029*
  1: 0x00E3 [0x00] END_REQSTACK()
```

### Event 65535.18

#### Metadata

| Field        | Value    |
|--------------|----------|
| Entrypoint   | 0x00E4   |
| Data Size    | 14 bytes |
| Instructions | 4        |

```
      00 01 02 03 04 05 06 07  08 09 0A 0B 0C 0D 0E 0F
      -- -- -- -- -- -- -- --  -- -- -- -- -- -- -- --
00E0:             32 07 80 1F  00 14 80 15 80 16 80 1F      2...........
00F0: 01 00                                             ..              
```

#### Opcodes

```
  0: 0x00E4 [0x32] ExtData[1]->MainSpeed = 13* * 0.1
  1: 0x00E7 [0x1F] MOVE_ENTITY: EventEntity moves to X=139.995*, Z=68.681*, Y=-24.060*
  2: 0x00EF [0x1F] MOVE_ENTITY: Update entity position (mode=1)
  3: 0x00F1 [0x00] END_REQSTACK()
```

### Event 65535.19

#### Metadata

| Field        | Value    |
|--------------|----------|
| Entrypoint   | 0x00F2   |
| Data Size    | 15 bytes |
| Instructions | 5        |

```
      00 01 02 03 04 05 06 07  08 09 0A 0B 0C 0D 0E 0F
      -- -- -- -- -- -- -- --  -- -- -- -- -- -- -- --
00F0:       32 17 80 1F 00 14  80 15 80 16 80 1F 01 6F    2............o
0100: 00                                                .               
```

#### Opcodes

```
  0: 0x00F2 [0x32] ExtData[1]->MainSpeed = 42* * 0.1
  1: 0x00F5 [0x1F] MOVE_ENTITY: EventEntity moves to X=139.995*, Z=68.681*, Y=-24.060*
  2: 0x00FD [0x1F] MOVE_ENTITY: Update entity position (mode=1)
  3: 0x00FF [0x6F] WAIT_FRAME_DELAY: Yield until WaitTime reaches zero
  4: 0x0100 [0x00] END_REQSTACK()
```

### Event 65535.20

#### Metadata

| Field        | Value    |
|--------------|----------|
| Entrypoint   | 0x0101   |
| Data Size    | 21 bytes |
| Instructions | 2        |

```
      00 01 02 03 04 05 06 07  08 09 0A 0B 0C 0D 0E 0F
      -- -- -- -- -- -- -- --  -- -- -- -- -- -- -- --
0100:    B6 0B 03 80 01 80 00  80 0F 80 0F 80 0F 80 0F   ...............
0110: 80 05 80 00 80 00                                 ......          
```

#### Opcodes

```
  0: 0x0101 [0xB6] ENTITY_APPEARANCE_HANDLER(case=Full entity look, race=3*, hair=1*, head=0*, body=221*, hands=221*, legs=221*, feet=221*, main=27*, sub=0*)
  1: 0x0115 [0x00] END_REQSTACK()
```

### Event 65535.21

#### Metadata

| Field        | Value    |
|--------------|----------|
| Entrypoint   | 0x0116   |
| Data Size    | 21 bytes |
| Instructions | 2        |

```
      00 01 02 03 04 05 06 07  08 09 0A 0B 0C 0D 0E 0F
      -- -- -- -- -- -- -- --  -- -- -- -- -- -- -- --
0110:                   B6 0B  03 80 18 80 07 80 0F 80        ..........
0120: 07 80 19 80 0F 80 10 80  05 80 00                 ...........     
```

#### Opcodes

```
  0: 0x0116 [0xB6] ENTITY_APPEARANCE_HANDLER(case=Full entity look, race=3*, hair=8*, head=13*, body=221*, hands=13*, legs=12*, feet=221*, main=251*, sub=27*)
  1: 0x012A [0x00] END_REQSTACK()
```

### Event 65535.22

#### Metadata

| Field        | Value    |
|--------------|----------|
| Entrypoint   | 0x012B   |
| Data Size    | 16 bytes |
| Instructions | 2        |

```
      00 01 02 03 04 05 06 07  08 09 0A 0B 0C 0D 0E 0F
      -- -- -- -- -- -- -- --  -- -- -- -- -- -- -- --
0120:                                   5B 1A 80 B0 A2             [....
0130: 08 01 B0 A2 08 01 62 61  74 6C 00                 ......batl.     
```

#### Opcodes

```
  0: 0x012B [0x5B] LOAD_EXT_SCHEDULER: Load scheduler "batl" with entities [Ragelise (ID: 17343152/0x0108A2B0), Ragelise (ID: 17343152/0x0108A2B0)], work=3030*
  1: 0x013A [0x00] END_REQSTACK()
```

### Event 65535.23

#### Metadata

| Field        | Value    |
|--------------|----------|
| Entrypoint   | 0x013B   |
| Data Size    | 16 bytes |
| Instructions | 2        |

```
      00 01 02 03 04 05 06 07  08 09 0A 0B 0C 0D 0E 0F
      -- -- -- -- -- -- -- --  -- -- -- -- -- -- -- --
0130:                                   66 1B 80 B0 A2             f....
0140: 08 01 B0 A2 08 01 66 6B  69 62 00                 ......fkib.     
```

#### Opcodes

```
  0: 0x013B [0x66] LOAD_EXT_SCHEDULER_MAIN: Load scheduler "fkib" with entities [Ragelise (ID: 17343152/0x0108A2B0), Ragelise (ID: 17343152/0x0108A2B0)], work=98*
  1: 0x014A [0x00] END_REQSTACK()
```
