# 17343211 - Tetu10

## Common Data

| Field            | Value                              |
|------------------|------------------------------------|
| Zone             | Castle Zvahl Baileys [S] (ID: 138) |
| Block Size       | 240 bytes                          |
| Total Events     | 8                                  |
| References Count | 19                                 |

## List of Events

| Event ID                 | Entrypoint   |   Size |   Instructions |
|--------------------------|--------------|--------|----------------|
| [65535](#event-65535)    | 0x0000       |      1 |              1 |
| [14](#event-14)          | 0x0001       |      1 |              1 |
| [65535.1](#event-655351) | 0x0002       |     21 |              2 |
| [65535.2](#event-655352) | 0x0017       |     21 |              2 |
| [65535.3](#event-655353) | 0x002C       |     16 |              2 |
| [65535.4](#event-655354) | 0x003C       |     16 |              2 |
| [65535.5](#event-655355) | 0x004C       |     16 |              2 |
| [65535.6](#event-655356) | 0x005C       |     24 |              6 |

## DAT References (imed_data)

|   Index | Hex Value   |   Dec Value |
|---------|-------------|-------------|
|       0 | 0x0003      |           3 |
|       1 | 0x0008      |           8 |
|       2 | 0x0000      |           0 |
|       3 | 0x00DD      |         221 |
|       4 | 0x001B      |          27 |
|       5 | 0x0006      |           6 |
|       6 | 0x000D      |          13 |
|       7 | 0x000C      |          12 |
|       8 | 0x00FB      |         251 |
|       9 | 0x0018      |          24 |
|      10 | 0x0062      |          98 |
|      11 | 0x0A9F      |        2719 |
|      12 | 0x0028      |          40 |
|      13 | 0xFFFB2C79  |  4294651001 |
|      14 | 0xFFFFEB7B  |  4294962043 |
|      15 | 0xFFFF92DE  |  4294939358 |
|      16 | 0xFFFB3756  |  4294653782 |
|      17 | 0xFFFFDE88  |  4294958728 |
|      18 | 0xFFFF9253  |  4294939219 |

## Events

### Event 65535

#### Metadata

| Field        | Value   |
|--------------|---------|
| Entrypoint   | 0x0000  |
| Data Size    | 1 bytes |
| Instructions | 1       |

```
      00 01 02 03 04 05 06 07  08 09 0A 0B 0C 0D 0E 0F
      -- -- -- -- -- -- -- --  -- -- -- -- -- -- -- --
0000: 00                                                .               
```

#### Opcodes

```
  0: 0x0000 [0x00] END_REQSTACK()
```

### Event 14

#### Metadata

| Field        | Value   |
|--------------|---------|
| Entrypoint   | 0x0001  |
| Data Size    | 1 bytes |
| Instructions | 1       |

```
      00 01 02 03 04 05 06 07  08 09 0A 0B 0C 0D 0E 0F
      -- -- -- -- -- -- -- --  -- -- -- -- -- -- -- --
0000:    00                                              .              
```

#### Opcodes

```
  0: 0x0001 [0x00] END_REQSTACK()
```

### Event 65535.1

#### Metadata

| Field        | Value    |
|--------------|----------|
| Entrypoint   | 0x0002   |
| Data Size    | 21 bytes |
| Instructions | 2        |

```
      00 01 02 03 04 05 06 07  08 09 0A 0B 0C 0D 0E 0F
      -- -- -- -- -- -- -- --  -- -- -- -- -- -- -- --
0000:       B6 0B 00 80 01 80  02 80 03 80 03 80 03 80    ..............
0010: 03 80 04 80 02 80 00                              .......         
```

#### Opcodes

```
  0: 0x0002 [0xB6] ENTITY_APPEARANCE_HANDLER(case=Full entity look, race=3*, hair=8*, head=0*, body=221*, hands=221*, legs=221*, feet=221*, main=27*, sub=0*)
  1: 0x0016 [0x00] END_REQSTACK()
```

### Event 65535.2

#### Metadata

| Field        | Value    |
|--------------|----------|
| Entrypoint   | 0x0017   |
| Data Size    | 21 bytes |
| Instructions | 2        |

```
      00 01 02 03 04 05 06 07  08 09 0A 0B 0C 0D 0E 0F
      -- -- -- -- -- -- -- --  -- -- -- -- -- -- -- --
0010:                      B6  0B 00 80 05 80 06 80 03         .........
0020: 80 06 80 07 80 03 80 08  80 04 80 00              ............    
```

#### Opcodes

```
  0: 0x0017 [0xB6] ENTITY_APPEARANCE_HANDLER(case=Full entity look, race=3*, hair=6*, head=13*, body=221*, hands=13*, legs=12*, feet=221*, main=251*, sub=27*)
  1: 0x002B [0x00] END_REQSTACK()
```

### Event 65535.3

#### Metadata

| Field        | Value    |
|--------------|----------|
| Entrypoint   | 0x002C   |
| Data Size    | 16 bytes |
| Instructions | 2        |

```
      00 01 02 03 04 05 06 07  08 09 0A 0B 0C 0D 0E 0F
      -- -- -- -- -- -- -- --  -- -- -- -- -- -- -- --
0020:                                      66 09 80 EB              f...
0030: A2 08 01 EB A2 08 01 31  72 64 79 00              .......1rdy.    
```

#### Opcodes

```
  0: 0x002C [0x66] LOAD_EXT_SCHEDULER_MAIN: Load scheduler "1rdy" with entities [Tetu10 (ID: 17343211/0x0108A2EB), Tetu10 (ID: 17343211/0x0108A2EB)], work=24*
  1: 0x003B [0x00] END_REQSTACK()
```

### Event 65535.4

#### Metadata

| Field        | Value    |
|--------------|----------|
| Entrypoint   | 0x003C   |
| Data Size    | 16 bytes |
| Instructions | 2        |

```
      00 01 02 03 04 05 06 07  08 09 0A 0B 0C 0D 0E 0F
      -- -- -- -- -- -- -- --  -- -- -- -- -- -- -- --
0030:                                      66 0A 80 EB              f...
0040: A2 08 01 EB A2 08 01 66  6B 69 62 00              .......fkib.    
```

#### Opcodes

```
  0: 0x003C [0x66] LOAD_EXT_SCHEDULER_MAIN: Load scheduler "fkib" with entities [Tetu10 (ID: 17343211/0x0108A2EB), Tetu10 (ID: 17343211/0x0108A2EB)], work=98*
  1: 0x004B [0x00] END_REQSTACK()
```

### Event 65535.5

#### Metadata

| Field        | Value    |
|--------------|----------|
| Entrypoint   | 0x004C   |
| Data Size    | 16 bytes |
| Instructions | 2        |

```
      00 01 02 03 04 05 06 07  08 09 0A 0B 0C 0D 0E 0F
      -- -- -- -- -- -- -- --  -- -- -- -- -- -- -- --
0040:                                      5B 0B 80 EB              [...
0050: A2 08 01 EB A2 08 01 6B  6F 65 61 00              .......koea.    
```

#### Opcodes

```
  0: 0x004C [0x5B] LOAD_EXT_SCHEDULER: Load scheduler "koea" with entities [Tetu10 (ID: 17343211/0x0108A2EB), Tetu10 (ID: 17343211/0x0108A2EB)], work=2719*
  1: 0x005B [0x00] END_REQSTACK()
```

### Event 65535.6

#### Metadata

| Field        | Value    |
|--------------|----------|
| Entrypoint   | 0x005C   |
| Data Size    | 24 bytes |
| Instructions | 6        |

```
      00 01 02 03 04 05 06 07  08 09 0A 0B 0C 0D 0E 0F
      -- -- -- -- -- -- -- --  -- -- -- -- -- -- -- --
0050:                                      32 0C 80 1F              2...
0060: 00 0D 80 0E 80 0F 80 1F  01 1F 00 10 80 11 80 12  ................
0070: 80 1F 01 00                                       ....            
```

#### Opcodes

```
  0: 0x005C [0x32] ExtData[1]->MainSpeed = 40* * 0.1
  1: 0x005F [0x1F] MOVE_ENTITY: EventEntity moves to X=-316.295*, Z=-5.253*, Y=-27.938*
  2: 0x0067 [0x1F] MOVE_ENTITY: Update entity position (mode=1)
  3: 0x0069 [0x1F] MOVE_ENTITY: EventEntity moves to X=-313.514*, Z=-8.568*, Y=-28.077*
  4: 0x0071 [0x1F] MOVE_ENTITY: Update entity position (mode=1)
  5: 0x0073 [0x00] END_REQSTACK()
```
