# 17343203 - Tetu02

## Common Data

| Field            | Value                              |
|------------------|------------------------------------|
| Zone             | Castle Zvahl Baileys [S] (ID: 138) |
| Block Size       | 300 bytes                          |
| Total Events     | 8                                  |
| References Count | 25                                 |

## List of Events

| Event ID                 | Entrypoint   |   Size |   Instructions |
|--------------------------|--------------|--------|----------------|
| [65535](#event-65535)    | 0x0000       |      1 |              1 |
| [14](#event-14)          | 0x0001       |      1 |              1 |
| [65535.1](#event-655351) | 0x0002       |     21 |              2 |
| [65535.2](#event-655352) | 0x0017       |     21 |              2 |
| [65535.3](#event-655353) | 0x002C       |     21 |              2 |
| [65535.4](#event-655354) | 0x0041       |     16 |              2 |
| [65535.5](#event-655355) | 0x0051       |     26 |              4 |
| [65535.6](#event-655356) | 0x006B       |     44 |             10 |

## DAT References (imed_data)

|   Index | Hex Value   |   Dec Value |
|---------|-------------|-------------|
|       0 | 0x0001      |           1 |
|       1 | 0x000C      |          12 |
|       2 | 0x0000      |           0 |
|       3 | 0x0005      |           5 |
|       4 | 0x001B      |          27 |
|       5 | 0x0003      |           3 |
|       6 | 0x0006      |           6 |
|       7 | 0x00DD      |         221 |
|       8 | 0x0008      |           8 |
|       9 | 0x000D      |          13 |
|      10 | 0x00FB      |         251 |
|      11 | 0x005B      |          91 |
|      12 | 0x0050      |          80 |
|      13 | 0xFFFBF1E8  |  4294701544 |
|      14 | 0x9E37      |       40503 |
|      15 | 0xFFFFB7A4  |  4294948772 |
|      16 | 0xFFFBFA28  |  4294703656 |
|      17 | 0x8A0C      |       35340 |
|      18 | 0xFFFFB6D9  |  4294948569 |
|      19 | 0xFFFC04A9  |  4294706345 |
|      20 | 0x78D9      |       30937 |
|      21 | 0xFFFFB6C0  |  4294948544 |
|      22 | 0xFFFC090E  |  4294707470 |
|      23 | 0x6B67      |       27495 |
|      24 | 0xFFFFB899  |  4294949017 |

## Events

### Event 65535

#### Metadata

| Field        | Value   |
|--------------|---------|
| Entrypoint   | 0x0000  |
| Data Size    | 1 bytes |
| Instructions | 1       |

```
      00 01 02 03 04 05 06 07  08 09 0A 0B 0C 0D 0E 0F
      -- -- -- -- -- -- -- --  -- -- -- -- -- -- -- --
0000: 00                                                .               
```

#### Opcodes

```
  0: 0x0000 [0x00] END_REQSTACK()
```

### Event 14

#### Metadata

| Field        | Value   |
|--------------|---------|
| Entrypoint   | 0x0001  |
| Data Size    | 1 bytes |
| Instructions | 1       |

```
      00 01 02 03 04 05 06 07  08 09 0A 0B 0C 0D 0E 0F
      -- -- -- -- -- -- -- --  -- -- -- -- -- -- -- --
0000:    00                                              .              
```

#### Opcodes

```
  0: 0x0001 [0x00] END_REQSTACK()
```

### Event 65535.1

#### Metadata

| Field        | Value    |
|--------------|----------|
| Entrypoint   | 0x0002   |
| Data Size    | 21 bytes |
| Instructions | 2        |

```
      00 01 02 03 04 05 06 07  08 09 0A 0B 0C 0D 0E 0F
      -- -- -- -- -- -- -- --  -- -- -- -- -- -- -- --
0000:       B6 0B 00 80 01 80  02 80 03 80 03 80 03 80    ..............
0010: 03 80 04 80 02 80 00                              .......         
```

#### Opcodes

```
  0: 0x0002 [0xB6] ENTITY_APPEARANCE_HANDLER(case=Full entity look, race=1*, hair=12*, head=0*, body=5*, hands=5*, legs=5*, feet=5*, main=27*, sub=0*)
  1: 0x0016 [0x00] END_REQSTACK()
```

### Event 65535.2

#### Metadata

| Field        | Value    |
|--------------|----------|
| Entrypoint   | 0x0017   |
| Data Size    | 21 bytes |
| Instructions | 2        |

```
      00 01 02 03 04 05 06 07  08 09 0A 0B 0C 0D 0E 0F
      -- -- -- -- -- -- -- --  -- -- -- -- -- -- -- --
0010:                      B6  0B 05 80 06 80 02 80 07         .........
0020: 80 07 80 07 80 07 80 04  80 02 80 00              ............    
```

#### Opcodes

```
  0: 0x0017 [0xB6] ENTITY_APPEARANCE_HANDLER(case=Full entity look, race=3*, hair=6*, head=0*, body=221*, hands=221*, legs=221*, feet=221*, main=27*, sub=0*)
  1: 0x002B [0x00] END_REQSTACK()
```

### Event 65535.3

#### Metadata

| Field        | Value    |
|--------------|----------|
| Entrypoint   | 0x002C   |
| Data Size    | 21 bytes |
| Instructions | 2        |

```
      00 01 02 03 04 05 06 07  08 09 0A 0B 0C 0D 0E 0F
      -- -- -- -- -- -- -- --  -- -- -- -- -- -- -- --
0020:                                      B6 0B 05 80              ....
0030: 08 80 09 80 07 80 09 80  01 80 07 80 0A 80 04 80  ................
0040: 00                                                .               
```

#### Opcodes

```
  0: 0x002C [0xB6] ENTITY_APPEARANCE_HANDLER(case=Full entity look, race=3*, hair=8*, head=13*, body=221*, hands=13*, legs=12*, feet=221*, main=251*, sub=27*)
  1: 0x0040 [0x00] END_REQSTACK()
```

### Event 65535.4

#### Metadata

| Field        | Value    |
|--------------|----------|
| Entrypoint   | 0x0041   |
| Data Size    | 16 bytes |
| Instructions | 2        |

```
      00 01 02 03 04 05 06 07  08 09 0A 0B 0C 0D 0E 0F
      -- -- -- -- -- -- -- --  -- -- -- -- -- -- -- --
0040:    66 0B 80 E3 A2 08 01  E3 A2 08 01 6C 6C 7A 30   f..........llz0
0050: 00                                                .               
```

#### Opcodes

```
  0: 0x0041 [0x66] LOAD_EXT_SCHEDULER_MAIN: Load scheduler "llz0" with entities [Tetu02 (ID: 17343203/0x0108A2E3), Tetu02 (ID: 17343203/0x0108A2E3)], work=91*
  1: 0x0050 [0x00] END_REQSTACK()
```

### Event 65535.5

#### Metadata

| Field        | Value    |
|--------------|----------|
| Entrypoint   | 0x0051   |
| Data Size    | 26 bytes |
| Instructions | 3        |

```
      00 01 02 03 04 05 06 07  08 09 0A 0B 0C 0D 0E 0F
      -- -- -- -- -- -- -- --  -- -- -- -- -- -- -- --
0050:    7E 06 F8 FF FF 7F 00  80 02 80 00 80 00 80 00   ~..............
0060: 80 00 80 7E 04 F8 FF FF  7F 00 00                 ...~.......     
```

#### Opcodes

```
  0: 0x0051 [0x7E] CHOCOBO_MOUNT: Mode 6 (custom mount) on EventEntity
  1: 0x0063 [0x7E] CHOCOBO_MOUNT: Mode 4 on EventEntity
  2: 0x0069 [0x00] END_REQSTACK()
```

#### Data or dead code:

```
# Dead code (unreachable instructions):
     0x006A [0x00] END_REQSTACK()
```

### Event 65535.6

#### Metadata

| Field        | Value    |
|--------------|----------|
| Entrypoint   | 0x006B   |
| Data Size    | 44 bytes |
| Instructions | 10       |

```
      00 01 02 03 04 05 06 07  08 09 0A 0B 0C 0D 0E 0F
      -- -- -- -- -- -- -- --  -- -- -- -- -- -- -- --
0060:                                   32 0C 80 1F 00             2....
0070: 0D 80 0E 80 0F 80 1F 01  1F 00 10 80 11 80 12 80  ................
0080: 1F 01 1F 00 13 80 14 80  15 80 1F 01 1F 00 16 80  ................
0090: 17 80 18 80 1F 01 00                              .......         
```

#### Opcodes

```
  0: 0x006B [0x32] ExtData[1]->MainSpeed = 80* * 0.1
  1: 0x006E [0x1F] MOVE_ENTITY: EventEntity moves to X=-265.752*, Z=40.503*, Y=-18.524*
  2: 0x0076 [0x1F] MOVE_ENTITY: Update entity position (mode=1)
  3: 0x0078 [0x1F] MOVE_ENTITY: EventEntity moves to X=-263.640*, Z=35.340*, Y=-18.727*
  4: 0x0080 [0x1F] MOVE_ENTITY: Update entity position (mode=1)
  5: 0x0082 [0x1F] MOVE_ENTITY: EventEntity moves to X=-260.951*, Z=30.937*, Y=-18.752*
  6: 0x008A [0x1F] MOVE_ENTITY: Update entity position (mode=1)
  7: 0x008C [0x1F] MOVE_ENTITY: EventEntity moves to X=-259.826*, Z=27.495*, Y=-18.279*
  8: 0x0094 [0x1F] MOVE_ENTITY: Update entity position (mode=1)
  9: 0x0096 [0x00] END_REQSTACK()
```
