# 17343201

## Common Data

| Field            | Value                              |
|------------------|------------------------------------|
| Zone             | Castle Zvahl Baileys [S] (ID: 138) |
| Block Size       | 19304 bytes                        |
| Total Events     | 3                                  |
| References Count | 623                                |

## List of Events

| Event ID              | Entrypoint   |   Size |   Instructions |
|-----------------------|--------------|--------|----------------|
| [65535](#event-65535) | 0x0000       |      1 |              1 |
| [1](#event-1)         | 0x0001       |   8024 |            922 |
| [3](#event-3)         | 0x1F59       |   8757 |            896 |

## DAT References (imed_data)

|   Index | Hex Value   |   Dec Value |
|---------|-------------|-------------|
|       0 | 0x0013      |          19 |
|       1 | 0xFFFA3C0E  |  4294589454 |
|       2 | 0xFFFFBE53  |  4294950483 |
|       3 | 0xFFFFEE48  |  4294962760 |
|       4 | 0x0B76      |        2934 |
|       5 | 0xFFFA45EA  |  4294591978 |
|       6 | 0xFFFFBEAC  |  4294950572 |
|       7 | 0xFFFFEA4F  |  4294961743 |
|       8 | 0x0A99      |        2713 |
|       9 | 0xFFFA3EE1  |  4294590177 |
|      10 | 0xFFFFCCA3  |  4294954147 |
|      11 | 0xFFFFEA41  |  4294961729 |
|      12 | 0x09C7      |        2503 |
|      13 | 0xFFFA4D8A  |  4294593930 |
|      14 | 0xFFFF832D  |  4294935341 |
|      15 | 0xFFFFEA6C  |  4294961772 |
|      16 | 0xFFFA510B  |  4294594827 |
|      17 | 0xFFFF7954  |  4294932820 |
|      18 | 0xFFFFE92A  |  4294961450 |
|      19 | 0xFFFA49EC  |  4294593004 |
|      20 | 0xFFFF6C20  |  4294929440 |
|      21 | 0xFFFFE982  |  4294961538 |
|      22 | 0x0B75      |        2933 |
|      23 | 0xFFFA57AB  |  4294596523 |
|      24 | 0xFFFF7D8C  |  4294933900 |
|      25 | 0xFFFFE911  |  4294961425 |
|      26 | 0xFFFA515B  |  4294594907 |
|      27 | 0xFFFF60BE  |  4294926526 |
|      28 | 0xFFFFE8D7  |  4294961367 |
|      29 | 0xFFFA4763  |  4294592355 |
|      30 | 0xFFFF693A  |  4294928698 |
|      31 | 0xFFFFE9AE  |  4294961582 |
|      32 | 0xFFFA38AA  |  4294588586 |
|      33 | 0xFFFFCE1D  |  4294954525 |
|      34 | 0xFFFFDE5C  |  4294958684 |
|      35 | 0xFFFDD203  |  4294824451 |
|      36 | 0x8F02      |       36610 |
|      37 | 0xFFFF7524  |  4294931748 |
|      38 | 0x07CD      |        1997 |
|      39 | 0xFFFDEF7D  |  4294831997 |
|      40 | 0x9677      |       38519 |
|      41 | 0xFFFF716D  |  4294930797 |
|      42 | 0x07EA      |        2026 |
|      43 | 0x0089      |         137 |
|      44 | 0x00FF      |         255 |
|      45 | 0x000C      |          12 |
|      46 | 0x001E      |          30 |
|      47 | 0x0300      |         768 |
|      48 | 0x0100      |         256 |
|      49 | 0x004E      |          78 |
|      50 | 0x0857      |        2135 |
|      51 | 0x0000      |           0 |
|      52 | 0x0078      |         120 |
|      53 | 0x002A      |          42 |
|      54 | 0x01FB      |         507 |
|      55 | 0x00B4      |         180 |
|      56 | 0x012C      |         300 |
|      57 | 0x00F0      |         240 |
|      58 | 0x1DB9      |        7609 |
|      59 | 0x003C      |          60 |
|      60 | 0x0B63      |        2915 |
|      61 | 0x1DBA      |        7610 |
|      62 | 0x1DBB      |        7611 |
|      63 | 0x1DBC      |        7612 |
|      64 | 0x0096      |         150 |
|      65 | 0x1DBD      |        7613 |
|      66 | 0x1DBE      |        7614 |
|      67 | 0x005A      |          90 |
|      68 | 0x1DBF      |        7615 |
|      69 | 0x1DC0      |        7616 |
|      70 | 0xFFFB547D  |  4294661245 |
|      71 | 0x04F3      |        1267 |
|      72 | 0xFFFFAFEC  |  4294946796 |
|      73 | 0xFFFB5E24  |  4294663716 |
|      74 | 0x42DC      |       17116 |
|      75 | 0xFFFB4FC1  |  4294660033 |
|      76 | 0x9152      |       37202 |
|      77 | 0xFFFAEA87  |  4294634119 |
|      78 | 0xE62A      |       58922 |
|      79 | 0xFFFFA36C  |  4294943596 |
|      80 | 0xFFFAE32D  |  4294632237 |
|      81 | 0x12773     |       75635 |
|      82 | 0xFFFAE270  |  4294632048 |
|      83 | 0x16831     |       92209 |
|      84 | 0xFFFB5650  |  4294661712 |
|      85 | 0x24DE      |        9438 |
|      86 | 0xFFFB5007  |  4294660103 |
|      87 | 0x6A4E      |       27214 |
|      88 | 0xFFFAE594  |  4294632852 |
|      89 | 0x975D      |       38749 |
|      90 | 0xFFFAE87B  |  4294633595 |
|      91 | 0xBD30      |       48432 |
|      92 | 0xFFFADE28  |  4294630952 |
|      93 | 0x10644     |       67140 |
|      94 | 0x0A8C      |        2700 |
|      95 | 0x1DC1      |        7617 |
|      96 | 0x0AF5      |        2805 |
|      97 | 0x000B      |          11 |
|      98 | 0x00DC      |         220 |
|      99 | 0x1DC2      |        7618 |
|     100 | 0x0050      |          80 |
|     101 | 0x007F      |         127 |
|     102 | 0x009D      |         157 |
|     103 | 0x00F9      |         249 |
|     104 | 0x0081      |         129 |
|     105 | 0x0001      |           1 |
|     106 | 0x000F      |          15 |
|     107 | 0xFFFFBF63  |  4294950755 |
|     108 | 0xFFFF9AAB  |  4294941355 |
|     109 | 0xFFFFD998  |  4294957464 |
|     110 | 0xFFFFA5E3  |  4294944227 |
|     111 | 0xFFFFBDD6  |  4294950358 |
|     112 | 0xFFFFD88A  |  4294957194 |
|     113 | 0xFFFFCCF3  |  4294954227 |
|     114 | 0x106A      |        4202 |
|     115 | 0x0FE9      |        4073 |
|     116 | 0xFFFFD8B4  |  4294957236 |
|     117 | 0x06F8      |        1784 |
|     118 | 0x0395      |         917 |
|     119 | 0xFFFFEA67  |  4294961767 |
|     120 | 0xFFFFD8F0  |  4294957296 |
|     121 | 0xFFFFCA96  |  4294953622 |
|     122 | 0xFFFFC650  |  4294952528 |
|     123 | 0xFFFFD68C  |  4294956684 |
|     124 | 0x293E      |       10558 |
|     125 | 0xFFFFFE30  |  4294966832 |
|     126 | 0xFFFFDA41  |  4294957633 |
|     127 | 0x0007      |           7 |
|     128 | 0x0ABC      |        2748 |
|     129 | 0x2360      |        9056 |
|     130 | 0x00FE      |         254 |
|     131 | 0xFFFFDAE4  |  4294957796 |
|     132 | 0x0E14      |        3604 |
|     133 | 0x0960      |        2400 |
|     134 | 0x06A4      |        1700 |
|     135 | 0xFFFFED7E  |  4294962558 |
|     136 | 0xFFFFF884  |  4294965380 |
|     137 | 0xFFFFD832  |  4294957106 |
|     138 | 0xFFFFEF44  |  4294963012 |
|     139 | 0xFFFFD1AF  |  4294955439 |
|     140 | 0xFFFFD7E7  |  4294957031 |
|     141 | 0x4432      |       17458 |
|     142 | 0x42F6      |       17142 |
|     143 | 0xFFFFD4C7  |  4294956231 |
|     144 | 0x0FB5      |        4021 |
|     145 | 0xFFFFEB7C  |  4294962044 |
|     146 | 0xFFFFD7F4  |  4294957044 |
|     147 | 0x08B5      |        2229 |
|     148 | 0x043B      |        1083 |
|     149 | 0x0ABA      |        2746 |
|     150 | 0xFFFFDD40  |  4294958400 |
|     151 | 0xFFFFDA9E  |  4294957726 |
|     152 | 0xFFFFD8F1  |  4294957297 |
|     153 | 0x000A      |          10 |
|     154 | 0xFFFFF194  |  4294963604 |
|     155 | 0xFFFFDB12  |  4294957842 |
|     156 | 0xFFFFD93D  |  4294957373 |
|     157 | 0x030F      |         783 |
|     158 | 0x0014      |          20 |
|     159 | 0x00AA      |         170 |
|     160 | 0x338B      |       13195 |
|     161 | 0x2505      |        9477 |
|     162 | 0xFFFFD86A  |  4294957162 |
|     163 | 0x0E10      |        3600 |
|     164 | 0x0D71      |        3441 |
|     165 | 0x2B09      |       11017 |
|     166 | 0x172B      |        5931 |
|     167 | 0x194C      |        6476 |
|     168 | 0x0032      |          50 |
|     169 | 0x004C      |          76 |
|     170 | 0x008A      |         138 |
|     171 | 0x12FC3     |       77763 |
|     172 | 0x4D18      |       19736 |
|     173 | 0xFFFFA23A  |  4294943290 |
|     174 | 0x0BB8      |        3000 |
|     175 | 0x11D03     |       72963 |
|     176 | 0x45D2      |       17874 |
|     177 | 0x14C69     |       85097 |
|     178 | 0x5586      |       21894 |
|     179 | 0xFFFFA240  |  4294943296 |
|     180 | 0x131FC     |       78332 |
|     181 | 0x4533      |       17715 |
|     182 | 0xFFFFA228  |  4294943272 |
|     183 | 0x1E501     |      124161 |
|     184 | 0x4FB2      |       20402 |
|     185 | 0xFFFFA232  |  4294943282 |
|     186 | 0x1DC4      |        7620 |
|     187 | 0x1E47D     |      124029 |
|     188 | 0x46C1      |       18113 |
|     189 | 0x1E1F5     |      123381 |
|     190 | 0x4CA2      |       19618 |
|     191 | 0xFFFFA231  |  4294943281 |
|     192 | 0x0FF6      |        4086 |
|     193 | 0x1E21A     |      123418 |
|     194 | 0x5015      |       20501 |
|     195 | 0xFFFFA233  |  4294943283 |
|     196 | 0x1E4B4     |      124084 |
|     197 | 0x41B1      |       16817 |
|     198 | 0xFFFFA22F  |  4294943279 |
|     199 | 0xFFFD21D6  |  4294779350 |
|     200 | 0x5D63      |       23907 |
|     201 | 0xFFFFF2B9  |  4294963897 |
|     202 | 0x0803      |        2051 |
|     203 | 0xFFFD21F6  |  4294779382 |
|     204 | 0x62F1      |       25329 |
|     205 | 0xFFFFF2BF  |  4294963903 |
|     206 | 0xFFFD2209  |  4294779401 |
|     207 | 0x6826      |       26662 |
|     208 | 0xFFFFF2BD  |  4294963901 |
|     209 | 0xFFFD221C  |  4294779420 |
|     210 | 0x6E0C      |       28172 |
|     211 | 0xFFFFF2BA  |  4294963898 |
|     212 | 0x084A      |        2122 |
|     213 | 0xFFFD43BB  |  4294788027 |
|     214 | 0x65DE      |       26078 |
|     215 | 0xFFFFF62A  |  4294964778 |
|     216 | 0xFFFD3C92  |  4294786194 |
|     217 | 0x6D60      |       28000 |
|     218 | 0xFFFFF629  |  4294964777 |
|     219 | 0xFFFD2F46  |  4294782790 |
|     220 | 0x7F09      |       32521 |
|     221 | 0xFFFFF3A0  |  4294964128 |
|     222 | 0xFFFD5EC0  |  4294794944 |
|     223 | 0x64CC      |       25804 |
|     224 | 0xFFFFC595  |  4294952341 |
|     225 | 0xFFFD1F88  |  4294778760 |
|     226 | 0x5231      |       21041 |
|     227 | 0xFFFFF2F4  |  4294963956 |
|     228 | 0x0802      |        2050 |
|     229 | 0xFFF9D70F  |  4294563599 |
|     230 | 0x4DE6      |       19942 |
|     231 | 0xFFFF5785  |  4294924165 |
|     232 | 0x0FF7      |        4087 |
|     233 | 0xFFF9FF48  |  4294573896 |
|     234 | 0x5789      |       22409 |
|     235 | 0xFFFF5A4C  |  4294924876 |
|     236 | 0xFFF9E921  |  4294568225 |
|     237 | 0x4665      |       18021 |
|     238 | 0xFFFF5775  |  4294924149 |
|     239 | 0xFFF9EDA7  |  4294569383 |
|     240 | 0x5561      |       21857 |
|     241 | 0xFFFF5770  |  4294924144 |
|     242 | 0xFFFB7B6E  |  4294671214 |
|     243 | 0x8213      |       33299 |
|     244 | 0xFFFF94FE  |  4294939902 |
|     245 | 0x0827      |        2087 |
|     246 | 0xFFFA91CA  |  4294611402 |
|     247 | 0x5A29      |       23081 |
|     248 | 0xFFFF76AE  |  4294932142 |
|     249 | 0xFFFA954A  |  4294612298 |
|     250 | 0x4201      |       16897 |
|     251 | 0xFFFF76DE  |  4294932190 |
|     252 | 0xFFFA9D25  |  4294614309 |
|     253 | 0x60D1      |       24785 |
|     254 | 0xFFFF7ACC  |  4294933196 |
|     255 | 0x001D      |          29 |
|     256 | 0x0AA4      |        2724 |
|     257 | 0x0BD6      |        3030 |
|     258 | 0x0A9E      |        2718 |
|     259 | 0x08B0      |        2224 |
|     260 | 0x008C      |         140 |
|     261 | 0x1DC5      |        7621 |
|     262 | 0xFFFA8E71  |  4294610545 |
|     263 | 0x52FA      |       21242 |
|     264 | 0xFFFF770A  |  4294932234 |
|     265 | 0xFFFAAE89  |  4294618761 |
|     266 | 0x473C      |       18236 |
|     267 | 0xFFFF7A96  |  4294933142 |
|     268 | 0xFFFAA9AF  |  4294617519 |
|     269 | 0x273C      |       10044 |
|     270 | 0xFFFF795D  |  4294932829 |
|     271 | 0xFFFA6955  |  4294601045 |
|     272 | 0x47B1      |       18353 |
|     273 | 0xFFFF7301  |  4294931201 |
|     274 | 0xFFFA87FC  |  4294608892 |
|     275 | 0x40AA      |       16554 |
|     276 | 0xFFFF769C  |  4294932124 |
|     277 | 0xFFFA8055  |  4294606933 |
|     278 | 0x5E6C      |       24172 |
|     279 | 0xFFFF766D  |  4294932077 |
|     280 | 0x1DC6      |        7622 |
|     281 | 0x0018      |          24 |
|     282 | 0xFFFD5C4C  |  4294794316 |
|     283 | 0x5FFC      |       24572 |
|     284 | 0xFFFFC669  |  4294952553 |
|     285 | 0xFFFD626F  |  4294795887 |
|     286 | 0x6C18      |       27672 |
|     287 | 0xFFFFC44E  |  4294952014 |
|     288 | 0x00D7      |         215 |
|     289 | 0x0028      |          40 |
|     290 | 0x1DC7      |        7623 |
|     291 | 0x0BD5      |        3029 |
|     292 | 0x0090      |         144 |
|     293 | 0x000D      |          13 |
|     294 | 0x1DC8      |        7624 |
|     295 | 0x08B3      |        2227 |
|     296 | 0xFFFBB457  |  4294685783 |
|     297 | 0xFFFF8BD0  |  4294937552 |
|     298 | 0xFFFFB317  |  4294947607 |
|     299 | 0xFFFBBAF8  |  4294687480 |
|     300 | 0xFFFF874E  |  4294936398 |
|     301 | 0xFFFFB2ED  |  4294947565 |
|     302 | 0xFFFBC0E4  |  4294688996 |
|     303 | 0xFFFF906E  |  4294938734 |
|     304 | 0xFFFFB352  |  4294947666 |
|     305 | 0x00B0      |         176 |
|     306 | 0x0B5D      |        2909 |
|     307 | 0x0064      |         100 |
|     308 | 0x0005      |           5 |
|     309 | 0xFFFBE5AF  |  4294698415 |
|     310 | 0xA3FF      |       41983 |
|     311 | 0xFFFFB7F4  |  4294948852 |
|     312 | 0x0BC7      |        3015 |
|     313 | 0xFFFBCEC2  |  4294692546 |
|     314 | 0x9BD8      |       39896 |
|     315 | 0xFFFFB306  |  4294947590 |
|     316 | 0xFFFBDC6A  |  4294696042 |
|     317 | 0xA658      |       42584 |
|     318 | 0xFFFFB632  |  4294948402 |
|     319 | 0xFFFBCA59  |  4294691417 |
|     320 | 0xA27D      |       41597 |
|     321 | 0xFFFFB1E1  |  4294947297 |
|     322 | 0x0FF4      |        4084 |
|     323 | 0xFFFBD7F0  |  4294694896 |
|     324 | 0x9847      |       38983 |
|     325 | 0xFFFFB552  |  4294948178 |
|     326 | 0xFFFBD43F  |  4294693951 |
|     327 | 0x82F9      |       33529 |
|     328 | 0xFFFFB462  |  4294947938 |
|     329 | 0xFFFBD7A6  |  4294694822 |
|     330 | 0x7524      |       29988 |
|     331 | 0xFFFFB55E  |  4294948190 |
|     332 | 0x0FF8      |        4088 |
|     333 | 0xFFFBE569  |  4294698345 |
|     334 | 0xACE6      |       44262 |
|     335 | 0xFFFFB887  |  4294948999 |
|     336 | 0xFFFBC7FC  |  4294690812 |
|     337 | 0x9C69      |       40041 |
|     338 | 0xFFFFB1E0  |  4294947296 |
|     339 | 0xFFFBD620  |  4294694432 |
|     340 | 0x8CE8      |       36072 |
|     341 | 0xFFFFB4DB  |  4294948059 |
|     342 | 0x058F      |        1423 |
|     343 | 0xFFFBD349  |  4294693705 |
|     344 | 0x72F1      |       29425 |
|     345 | 0xFFFFB47E  |  4294947966 |
|     346 | 0x0516      |        1302 |
|     347 | 0x0B60      |        2912 |
|     348 | 0x08B1      |        2225 |
|     349 | 0x05D6      |        1494 |
|     350 | 0x3639D     |      222109 |
|     351 | 0x67D9      |       26585 |
|     352 | 0xFFFFA203  |  4294943235 |
|     353 | 0x0B23      |        2851 |
|     354 | 0x36242     |      221762 |
|     355 | 0x66AF      |       26287 |
|     356 | 0xFFFFA1F9  |  4294943225 |
|     357 | 0x0B22      |        2850 |
|     358 | 0x2EC86     |      191622 |
|     359 | 0x4D90      |       19856 |
|     360 | 0xFFFFA234  |  4294943284 |
|     361 | 0x080C      |        2060 |
|     362 | 0x426CF     |      272079 |
|     363 | 0xE979      |       59769 |
|     364 | 0xFFFFB1D4  |  4294947284 |
|     365 | 0x2F637     |      194103 |
|     366 | 0x443E      |       17470 |
|     367 | 0xFFFFA22B  |  4294943275 |
|     368 | 0x30477     |      197751 |
|     369 | 0x35A8      |       13736 |
|     370 | 0xFFFFA1F8  |  4294943224 |
|     371 | 0x080D      |        2061 |
|     372 | 0x44873     |      280691 |
|     373 | 0xEE5E      |       61022 |
|     374 | 0x46531     |      288049 |
|     375 | 0xE4F1      |       58609 |
|     376 | 0xFFFFB1D3  |  4294947283 |
|     377 | 0x3E6EE     |      255726 |
|     378 | 0xD1FB      |       53755 |
|     379 | 0xFFFFA52F  |  4294944047 |
|     380 | 0x080A      |        2058 |
|     381 | 0xDF48      |       57160 |
|     382 | 0x4A1D      |       18973 |
|     383 | 0xFFFF5915  |  4294924565 |
|     384 | 0x0FF0      |        4080 |
|     385 | 0xE155      |       57685 |
|     386 | 0x408A      |       16522 |
|     387 | 0xFFFF55FF  |  4294923775 |
|     388 | 0x5394      |       21396 |
|     389 | 0xFFFF540B  |  4294923275 |
|     390 | 0x1075E     |       67422 |
|     391 | 0x52BD      |       21181 |
|     392 | 0xFFFF520F  |  4294922767 |
|     393 | 0x10359     |       66393 |
|     394 | 0x4204      |       16900 |
|     395 | 0xFFFF57EF  |  4294924271 |
|     396 | 0xF95C      |       63836 |
|     397 | 0x4F8A      |       20362 |
|     398 | 0xFFFFA20A  |  4294943242 |
|     399 | 0x08A8      |        2216 |
|     400 | 0x0ABB      |        2747 |
|     401 | 0x1DC9      |        7625 |
|     402 | 0x1DCA      |        7626 |
|     403 | 0x3BC0D     |      244749 |
|     404 | 0xDE96      |       56982 |
|     405 | 0xFFFFA224  |  4294943268 |
|     406 | 0x3CF58     |      249688 |
|     407 | 0xD26A      |       53866 |
|     408 | 0xFFFFA1C1  |  4294943169 |
|     409 | 0x3CA68     |      248424 |
|     410 | 0xF995      |       63893 |
|     411 | 0xFFFFA1F0  |  4294943216 |
|     412 | 0x3CC45     |      248901 |
|     413 | 0xEE02      |       60930 |
|     414 | 0xFFFFA239  |  4294943289 |
|     415 | 0x1DCB      |        7627 |
|     416 | 0x002B      |          43 |
|     417 | 0x1DCC      |        7628 |
|     418 | 0x1DCD      |        7629 |
|     419 | 0x0945      |        2373 |
|     420 | 0x08B4      |        2228 |
|     421 | 0x0ABE      |        2750 |
|     422 | 0x1DCE      |        7630 |
|     423 | 0x1DCF      |        7631 |
|     424 | 0x00C8      |         200 |
|     425 | 0x22023     |      139299 |
|     426 | 0x11928     |       71976 |
|     427 | 0xFFFFA145  |  4294943045 |
|     428 | 0x03B6      |         950 |
|     429 | 0x223EA     |      140266 |
|     430 | 0x113D6     |       70614 |
|     431 | 0xFFFFA177  |  4294943095 |
|     432 | 0x0400      |        1024 |
|     433 | 0x22517     |      140567 |
|     434 | 0xE161      |       57697 |
|     435 | 0xFFFFA219  |  4294943257 |
|     436 | 0x03FF      |        1023 |
|     437 | 0x2214A     |      139594 |
|     438 | 0xD22E      |       53806 |
|     439 | 0xFFFFA1C6  |  4294943174 |
|     440 | 0x238C7     |      145607 |
|     441 | 0xD9E8      |       55784 |
|     442 | 0xFFFFA23E  |  4294943294 |
|     443 | 0x07E7      |        2023 |
|     444 | 0x21F47     |      139079 |
|     445 | 0xFC78      |       64632 |
|     446 | 0xFFFFA236  |  4294943286 |
|     447 | 0x0C08      |        3080 |
|     448 | 0x24B73     |      150387 |
|     449 | 0xDEF7      |       57079 |
|     450 | 0xFFFF84FE  |  4294935806 |
|     451 | 0x23B4D     |      146253 |
|     452 | 0xD9AD      |       55725 |
|     453 | 0xFFFF7B1E  |  4294933278 |
|     454 | 0x0898      |        2200 |
|     455 | 0xFFFFA1CA  |  4294943178 |
|     456 | 0x22997     |      141719 |
|     457 | 0xE022      |       57378 |
|     458 | 0xFFFFA207  |  4294943239 |
|     459 | 0x22210     |      139792 |
|     460 | 0x11D65     |       73061 |
|     461 | 0xFFFFA1B0  |  4294943152 |
|     462 | 0x03FE      |        1022 |
|     463 | 0x223B7     |      140215 |
|     464 | 0xEBF7      |       60407 |
|     465 | 0xFFFF5808  |  4294924296 |
|     466 | 0x222A4     |      139940 |
|     467 | 0xEB37      |       60215 |
|     468 | 0xFFFFA1FB  |  4294943227 |
|     469 | 0x0BD7      |        3031 |
|     470 | 0x085F      |        2143 |
|     471 | 0x0B4F      |        2895 |
|     472 | 0x09BC      |        2492 |
|     473 | 0x0AF8      |        2808 |
|     474 | 0x00D9      |         217 |
|     475 | 0x0015      |          21 |
|     476 | 0x01FC      |         508 |
|     477 | 0x2232F     |      140079 |
|     478 | 0x1E08      |        7688 |
|     479 | 0x0046      |          70 |
|     480 | 0x1E09      |        7689 |
|     481 | 0x1E0A      |        7690 |
|     482 | 0x1E0B      |        7691 |
|     483 | 0x0BDA      |        3034 |
|     484 | 0x1E0C      |        7692 |
|     485 | 0x1E0D      |        7693 |
|     486 | 0x0002      |           2 |
|     487 | 0x0003      |           3 |
|     488 | 0x0004      |           4 |
|     489 | 0x0006      |           6 |
|     490 | 0x0008      |           8 |
|     491 | 0x22276     |      139894 |
|     492 | 0x1E0E      |        7694 |
|     493 | 0x00DF      |         223 |
|     494 | 0x1E0F      |        7695 |
|     495 | 0x1E10      |        7696 |
|     496 | 0x234AA     |      144554 |
|     497 | 0xF6E0      |       63200 |
|     498 | 0xFFFFA222  |  4294943266 |
|     499 | 0x002D      |          45 |
|     500 | 0x1E11      |        7697 |
|     501 | 0x1E12      |        7698 |
|     502 | 0x23884     |      145540 |
|     503 | 0xCFF2      |       53234 |
|     504 | 0xFFFFA210  |  4294943248 |
|     505 | 0x07E8      |        2024 |
|     506 | 0x2259C     |      140700 |
|     507 | 0xEA60      |       60000 |
|     508 | 0xFFFFA213  |  4294943251 |
|     509 | 0x1E13      |        7699 |
|     510 | 0x1E14      |        7700 |
|     511 | 0x1E15      |        7701 |
|     512 | 0x1E16      |        7702 |
|     513 | 0x1E17      |        7703 |
|     514 | 0x223B2     |      140210 |
|     515 | 0xDE1A      |       56858 |
|     516 | 0xFFFFA202  |  4294943234 |
|     517 | 0x0BF9      |        3065 |
|     518 | 0x0016      |          22 |
|     519 | 0x006E      |         110 |
|     520 | 0x1E18      |        7704 |
|     521 | 0x221B4     |      139700 |
|     522 | 0xDFD4      |       57300 |
|     523 | 0xFFFFA20C  |  4294943244 |
|     524 | 0x0AF9      |        2809 |
|     525 | 0x1E19      |        7705 |
|     526 | 0x0899      |        2201 |
|     527 | 0x1E1A      |        7706 |
|     528 | 0x1E1B      |        7707 |
|     529 | 0x1E1C      |        7708 |
|     530 | 0x1E1D      |        7709 |
|     531 | 0x1E1E      |        7710 |
|     532 | 0x0BB1      |        2993 |
|     533 | 0x1E1F      |        7711 |
|     534 | 0x1E20      |        7712 |
|     535 | 0x21F0C     |      139020 |
|     536 | 0xE046      |       57414 |
|     537 | 0x22024     |      139300 |
|     538 | 0xEC54      |       60500 |
|     539 | 0x1E21      |        7713 |
|     540 | 0x1E22      |        7714 |
|     541 | 0x1E23      |        7715 |
|     542 | 0x1E24      |        7716 |
|     543 | 0x1E25      |        7717 |
|     544 | 0x0AFA      |        2810 |
|     545 | 0x0065      |         101 |
|     546 | 0x1E26      |        7718 |
|     547 | 0x1E28      |        7720 |
|     548 | 0x1E27      |        7719 |
|     549 | 0x1E2A      |        7722 |
|     550 | 0x0019      |          25 |
|     551 | 0x1E2B      |        7723 |
|     552 | 0x2308C     |      143500 |
|     553 | 0xE0EA      |       57578 |
|     554 | 0x1E29      |        7721 |
|     555 | 0x004B      |          75 |
|     556 | 0x1E2C      |        7724 |
|     557 | 0x001B      |          27 |
|     558 | 0x001A      |          26 |
|     559 | 0x0969      |        2409 |
|     560 | 0x1E2D      |        7725 |
|     561 | 0x22DF5     |      142837 |
|     562 | 0x1E2E      |        7726 |
|     563 | 0x08C1      |        2241 |
|     564 | 0x1E2F      |        7727 |
|     565 | 0x2355C     |      144732 |
|     566 | 0xE052      |       57426 |
|     567 | 0xFFFFA221  |  4294943265 |
|     568 | 0x226E5     |      141029 |
|     569 | 0xFCC3      |       64707 |
|     570 | 0xFFFFA23B  |  4294943291 |
|     571 | 0x087D      |        2173 |
|     572 | 0x221D5     |      139733 |
|     573 | 0xE083      |       57475 |
|     574 | 0xFFFFA218  |  4294943256 |
|     575 | 0x1E30      |        7728 |
|     576 | 0x0AA5      |        2725 |
|     577 | 0x1E31      |        7729 |
|     578 | 0x221D6     |      139734 |
|     579 | 0xE967      |       59751 |
|     580 | 0xFFFFA206  |  4294943238 |
|     581 | 0x0401      |        1025 |
|     582 | 0x1E32      |        7730 |
|     583 | 0x20E45     |      134725 |
|     584 | 0xE226      |       57894 |
|     585 | 0xFFFFA21C  |  4294943260 |
|     586 | 0x1E33      |        7731 |
|     587 | 0x221DF     |      139743 |
|     588 | 0xEC6E      |       60526 |
|     589 | 0xD616      |       54806 |
|     590 | 0x0A14      |        2580 |
|     591 | 0x0B18      |        2840 |
|     592 | 0x0AF4      |        2804 |
|     593 | 0x1E34      |        7732 |
|     594 | 0x1E35      |        7733 |
|     595 | 0x1E36      |        7734 |
|     596 | 0x04E2      |        1250 |
|     597 | 0x1E37      |        7735 |
|     598 | 0x2208A     |      139402 |
|     599 | 0x11B68     |       72552 |
|     600 | 0xFFFFA18C  |  4294943116 |
|     601 | 0x0C03      |        3075 |
|     602 | 0x21DF6     |      138742 |
|     603 | 0x1716B     |       94571 |
|     604 | 0xFFFFA04D  |  4294942797 |
|     605 | 0x225B9     |      140729 |
|     606 | 0xFFFFA15A  |  4294943066 |
|     607 | 0x1E38      |        7736 |
|     608 | 0x0055      |          85 |
|     609 | 0x0B4E      |        2894 |
|     610 | 0x2153F     |      136511 |
|     611 | 0xF678      |       63096 |
|     612 | 0x0CB2      |        3250 |
|     613 | 0x1E39      |        7737 |
|     614 | 0x1E3A      |        7738 |
|     615 | 0x0168      |         360 |
|     616 | 0x1E3B      |        7739 |
|     617 | 0x1E3D      |        7741 |
|     618 | 0x1E3E      |        7742 |
|     619 | 0x1E3F      |        7743 |
|     620 | 0x1E40      |        7744 |
|     621 | 0x1E41      |        7745 |
|     622 | 0x00C9      |         201 |

## String References

- **7624**: Grrroooaaarghhh!!!

## Events

### Event 65535

#### Metadata

| Field        | Value   |
|--------------|---------|
| Entrypoint   | 0x0000  |
| Data Size    | 1 bytes |
| Instructions | 1       |

```
      00 01 02 03 04 05 06 07  08 09 0A 0B 0C 0D 0E 0F
      -- -- -- -- -- -- -- --  -- -- -- -- -- -- -- --
0000: 00                                                .               
```

#### Opcodes

```
  0: 0x0000 [0x00] END_REQSTACK()
```

### Event 1

#### Metadata

| Field        | Value      |
|--------------|------------|
| Entrypoint   | 0x0001     |
| Data Size    | 8024 bytes |
| Instructions | 922        |

```
      00 01 02 03 04 05 06 07  08 09 0A 0B 0C 0D 0E 0F
      -- -- -- -- -- -- -- --  -- -- -- -- -- -- -- --
0000:    42 1A 60 3F 46 01 38  00 80 4E 00 F0 FF FF 7F   B.`?F.8..N.....
0010: 27 10 AF A2 08 01 04 2F  00 B0 A2 08 01 2F 00 B2  '....../...../..
0020: A2 08 01 2F 00 B8 A2 08  01 2F 00 B9 A2 08 01 2F  .../...../...../
0030: 00 BA A2 08 01 2F 00 BB  A2 08 01 2F 00 BC A2 08  ...../...../....
0040: 01 2F 00 EF A2 08 01 2F  00 F0 A2 08 01 2F 00 F1  ./...../...../..
0050: A2 08 01 2F 00 F2 A2 08  01 2F 00 F3 A2 08 01 2F  .../...../...../
0060: 00 F4 A2 08 01 2F 00 B6  A2 08 01 2F 00 B7 A2 08  ...../...../....
0070: 01 4E 00 B0 A2 08 01 4E  00 B2 A2 08 01 4E 00 B8  .N.....N.....N..
0080: A2 08 01 4E 00 B9 A2 08  01 4E 00 BA A2 08 01 4E  ...N.....N.....N
0090: 00 BB A2 08 01 4E 00 BC  A2 08 01 4E 00 EF A2 08  .....N.....N....
00A0: 01 4E 00 F0 A2 08 01 4E  00 F1 A2 08 01 4E 00 F2  .N.....N.....N..
00B0: A2 08 01 4E 00 F3 A2 08  01 4E 00 F4 A2 08 01 4E  ...N.....N.....N
00C0: 00 B6 A2 08 01 4E 00 B7  A2 08 01 92 01 AF A2 08  .....N..........
00D0: 01 92 01 B0 A2 08 01 92  01 B2 A2 08 01 92 01 B8  ................
00E0: A2 08 01 92 01 B9 A2 08  01 92 01 BA A2 08 01 92  ................
00F0: 01 BB A2 08 01 92 01 BC  A2 08 01 92 01 EF A2 08  ................
0100: 01 92 01 F0 A2 08 01 92  01 F1 A2 08 01 92 01 F2  ................
0110: A2 08 01 92 01 F3 A2 08  01 92 01 F4 A2 08 01 92  ................
0120: 01 B6 A2 08 01 92 01 B7  A2 08 01 94 01 F0 FF FF  ................
0130: 7F 94 01 AF A2 08 01 94  01 B0 A2 08 01 94 01 B2  ................
0140: A2 08 01 94 01 B8 A2 08  01 94 01 B9 A2 08 01 94  ................
0150: 01 BA A2 08 01 94 01 BB  A2 08 01 94 01 BC A2 08  ................
0160: 01 94 01 EF A2 08 01 94  01 F0 A2 08 01 94 01 F1  ................
0170: A2 08 01 94 01 F2 A2 08  01 94 01 F3 A2 08 01 94  ................
0180: 01 F4 A2 08 01 94 01 B6  A2 08 01 94 01 B7 A2 08  ................
0190: 01 59 05 EF A2 08 01 01  59 05 B6 A2 08 01 01 59  .Y......Y......Y
01A0: 05 B7 A2 08 01 01 BA F0  FF FF 7F 01 80 02 80 03  ................
01B0: 80 04 80 BA AF A2 08 01  05 80 06 80 07 80 08 80  ................
01C0: BA B0 A2 08 01 09 80 0A  80 0B 80 0C 80 BA B2 A2  ................
01D0: 08 01 0D 80 0E 80 0F 80  04 80 BA B8 A2 08 01 10  ................
01E0: 80 11 80 12 80 04 80 BA  B9 A2 08 01 13 80 14 80  ................
01F0: 15 80 16 80 BA BA A2 08  01 17 80 18 80 19 80 04  ................
0200: 80 BA BB A2 08 01 1A 80  1B 80 1C 80 04 80 BA BC  ................
0210: A2 08 01 1D 80 1E 80 1F  80 04 80 BA EF A2 08 01  ................
0220: 20 80 21 80 22 80 16 80  BA B6 A2 08 01 23 80 24   .!."........#.$
0230: 80 25 80 26 80 BA B7 A2  08 01 27 80 28 80 29 80  .%.&......'.(.).
0240: 2A 80 80 F0 FF FF 7F 80  AF A2 08 01 80 B0 A2 08  *...............
0250: 01 80 B2 A2 08 01 80 B6  A2 08 01 80 B7 A2 08 01  ................
0260: 34 2B 80 77 2C 80 2D 80  1C 2E 80 AB 09 1C 2E 80  4+.w,.-.........
0270: 27 10 EF A2 08 01 0B 27  10 B2 A2 08 01 05 27 10  '......'......'.
0280: B8 A2 08 01 06 27 10 B9  A2 08 01 05 27 10 BA A2  .....'......'...
0290: 08 01 05 27 10 BB A2 08  01 05 27 10 BC A2 08 01  ...'......'.....
02A0: 03 79 00 AF A2 08 01 EF  A2 08 01 79 00 B0 A2 08  .y.........y....
02B0: 01 EF A2 08 01 79 00 B7  A2 08 01 B6 A2 08 01 79  .....y.........y
02C0: 02 F0 FF FF 7F 2F 80 30  80 66 31 80 B6 A2 08 01  ...../.0.f1.....
02D0: B6 A2 08 01 6C 73 30 30  5B 32 80 AF A2 08 01 AF  ....ls00[2......
02E0: A2 08 01 66 68 30 31 5D  33 80 34 80 5C 00 35 80  ...fh01]3.4.\.5.
02F0: 5C 01 35 80 5C 02 35 80  5C 03 35 80 9A 45 36 80  \.5.\.5.\.5..E6.
0300: F0 FF FF 7F F0 FF FF 7F  30 33 30 30 33 80 1A 3F  ........03003..?
0310: 3F 1C 37 80 52 36 80 F0  FF FF 7F F0 FF FF 7F 30  ?.7.R6.........0
0320: 33 30 30 45 36 80 F0 FF  FF 7F F0 FF FF 7F 30 33  300E6.........03
0330: 30 31 33 80 1C 38 80 52  36 80 F0 FF FF 7F F0 FF  013..8.R6.......
0340: FF 7F 30 33 30 31 45 36  80 F0 FF FF 7F F0 FF FF  ..0301E6........
0350: 7F 30 33 30 32 33 80 1C  39 80 52 36 80 F0 FF FF  .03023..9.R6....
0360: 7F F0 FF FF 7F 30 33 30  32 45 36 80 F0 FF FF 7F  .....0302E6.....
0370: F0 FF FF 7F 30 33 30 33  33 80 2B AF A2 08 01 3A  ....03033.+....:
0380: 80 1C 34 80 52 36 80 F0  FF FF 7F F0 FF FF 7F 30  ..4.R6.........0
0390: 33 30 33 45 36 80 F0 FF  FF 7F F0 FF FF 7F 30 33  303E6.........03
03A0: 30 61 33 80 1C 34 80 23  52 36 80 F0 FF FF 7F F0  0a3..4.#R6......
03B0: FF FF 7F 30 33 30 61 45  36 80 F0 FF FF 7F F0 FF  ...030aE6.......
03C0: FF 7F 30 33 30 39 33 80  1C 2E 80 7B B0 A2 08 01  ..03093....{....
03D0: 1C 3B 80 7B AF A2 08 01  1C 2E 80 7B F0 FF FF 7F  .;.{.......{....
03E0: 52 36 80 F0 FF FF 7F F0  FF FF 7F 30 33 30 39 45  R6.........0309E
03F0: 36 80 F0 FF FF 7F F0 FF  FF 7F 30 33 30 62 33 80  6.........030b3.
0400: 1C 2E 80 27 10 B2 A2 08  01 06 27 10 B8 A2 08 01  ...'......'.....
0410: 07 27 10 B9 A2 08 01 06  27 10 BA A2 08 01 06 27  .'......'......'
0420: 10 BB A2 08 01 06 27 10  BC A2 08 01 04 5B 3C 80  ......'......[<.
0430: B0 A2 08 01 B0 A2 08 01  6C 70 30 30 1C 3B 80 2B  ........lp00.;.+
0440: B0 A2 08 01 3D 80 23 52  36 80 F0 FF FF 7F F0 FF  ....=.#R6.......
0450: FF 7F 30 33 30 62 45 36  80 F0 FF FF 7F F0 FF FF  ..030bE6........
0460: 7F 30 33 30 63 33 80 2B  B6 A2 08 01 3E 80 23 52  .030c3.+....>.#R
0470: 36 80 F0 FF FF 7F F0 FF  FF 7F 30 33 30 63 45 36  6.........030cE6
0480: 80 F0 FF FF 7F F0 FF FF  7F 30 33 30 64 33 80 27  .........030d3.'
0490: 10 B2 A2 08 01 08 27 10  B8 A2 08 01 02 27 10 B9  ......'......'..
04A0: A2 08 01 02 27 10 BA A2  08 01 02 27 10 BB A2 08  ....'......'....
04B0: 01 02 27 10 BC A2 08 01  02 2B B0 A2 08 01 3F 80  ..'......+....?.
04C0: 1C 40 80 52 36 80 F0 FF  FF 7F F0 FF FF 7F 30 33  .@.R6.........03
04D0: 30 64 45 36 80 F0 FF FF  7F F0 FF FF 7F 30 33 30  0dE6.........030
04E0: 65 33 80 1C 40 80 23 52  36 80 F0 FF FF 7F F0 FF  e3..@.#R6.......
04F0: FF 7F 30 33 30 65 45 36  80 F0 FF FF 7F F0 FF FF  ..030eE6........
0500: 7F 30 33 30 66 33 80 2B  B0 A2 08 01 41 80 23 52  .030f3.+....A.#R
0510: 36 80 F0 FF FF 7F F0 FF  FF 7F 30 33 30 66 45 36  6.........030fE6
0520: 80 F0 FF FF 7F F0 FF FF  7F 30 33 30 34 33 80 66  .........03043.f
0530: 31 80 B6 A2 08 01 B6 A2  08 01 6C 73 30 32 2B B6  1.........ls02+.
0540: A2 08 01 42 80 1C 43 80  23 66 31 80 B6 A2 08 01  ...B..C.#f1.....
0550: B6 A2 08 01 6C 73 30 31  1C 43 80 52 36 80 F0 FF  ....ls01.C.R6...
0560: FF 7F F0 FF FF 7F 30 33  30 34 45 36 80 F0 FF FF  ......0304E6....
0570: 7F F0 FF FF 7F 30 33 30  35 33 80 4A B6 A2 08 01  .....03053.J....
0580: B7 A2 08 01 2B B6 A2 08  01 44 80 1C 40 80 52 36  ....+....D..@.R6
0590: 80 F0 FF FF 7F F0 FF FF  7F 30 33 30 35 45 36 80  .........0305E6.
05A0: F0 FF FF 7F F0 FF FF 7F  30 33 30 36 33 80 23 6E  ........03063.#n
05B0: B7 A2 08 01 2D 80 99 B7  A2 08 01 2B B7 A2 08 01  ....-......+....
05C0: 45 80 1C 3B 80 52 36 80  F0 FF FF 7F F0 FF FF 7F  E..;.R6.........
05D0: 30 33 30 36 45 36 80 F0  FF FF 7F F0 FF FF 7F 30  0306E6.........0
05E0: 33 30 37 33 80 1C 34 80  23 59 05 B8 A2 08 01 01  3073..4.#Y......
05F0: 59 05 B9 A2 08 01 01 59  05 BA A2 08 01 01 59 05  Y......Y......Y.
0600: BB A2 08 01 01 59 05 BC  A2 08 01 01 59 05 F0 A2  .....Y......Y...
0610: 08 01 01 59 05 F1 A2 08  01 01 59 05 F2 A2 08 01  ...Y......Y.....
0620: 01 59 05 F3 A2 08 01 01  59 05 F4 A2 08 01 01 BA  .Y......Y.......
0630: B8 A2 08 01 46 80 47 80  48 80 16 80 BA B9 A2 08  ....F.G.H.......
0640: 01 49 80 4A 80 48 80 04  80 BA BA A2 08 01 4B 80  .I.J.H........K.
0650: 4C 80 48 80 04 80 BA BB  A2 08 01 4D 80 4E 80 4F  L.H........M.N.O
0660: 80 04 80 BA BC A2 08 01  50 80 51 80 4F 80 04 80  ........P.Q.O...
0670: BA EF A2 08 01 52 80 53  80 4F 80 04 80 BA F0 A2  .....R.S.O......
0680: 08 01 54 80 55 80 48 80  16 80 BA F1 A2 08 01 56  ..T.U.H........V
0690: 80 57 80 48 80 16 80 BA  F2 A2 08 01 58 80 59 80  .W.H........X.Y.
06A0: 4F 80 16 80 BA F3 A2 08  01 5A 80 5B 80 4F 80 16  O........Z.[.O..
06B0: 80 BA F4 A2 08 01 5C 80  5D 80 4F 80 04 80 52 36  ......\.].O...R6
06C0: 80 F0 FF FF 7F F0 FF FF  7F 30 33 30 37 45 36 80  .........0307E6.
06D0: F0 FF FF 7F F0 FF FF 7F  30 33 31 33 33 80 4B B7  ........03133.K.
06E0: A2 08 01 5E 80 7B B7 A2  08 01 2B B7 A2 08 01 5F  ...^.{....+...._
06F0: 80 1C 43 80 5B 60 80 B7  A2 08 01 B7 A2 08 01 73  ..C.[`.........s
0700: 77 74 30 CD 61 80 B7 A2  08 01 B7 A2 08 01 73 74  wt0.a.........st
0710: 30 31 33 80 1C 39 80 23  5B 60 80 B7 A2 08 01 B7  013..9.#[`......
0720: A2 08 01 73 77 74 31 CD  61 80 B7 A2 08 01 B7 A2  ...swt1.a.......
0730: 08 01 73 74 30 32 33 80  52 36 80 F0 FF FF 7F F0  ..st023.R6......
0740: FF FF 7F 30 33 31 33 45  36 80 F0 FF FF 7F F0 FF  ...0313E6.......
0750: FF 7F 30 33 31 34 33 80  1C 62 80 2B B7 A2 08 01  ..03143..b.+....
0760: 63 80 52 36 80 F0 FF FF  7F F0 FF FF 7F 30 33 31  c.R6.........031
0770: 34 45 36 80 F0 FF FF 7F  F0 FF FF 7F 30 33 31 35  4E6.........0315
0780: 33 80 5D 33 80 34 80 1C  64 80 52 36 80 F0 FF FF  3.]3.4..d.R6....
0790: 7F F0 FF FF 7F 30 33 31  35 45 36 80 F0 FF FF 7F  .....0315E6.....
07A0: F0 FF FF 7F 30 33 31 65  33 80 1C 37 80 9F 65 80  ....031e3..7..e.
07B0: F8 FF FF 7F F8 FF FF 7F  73 74 72 30 33 80 C5 66  ........str03..f
07C0: 80 B8 A2 08 01 B8 A2 08  01 73 30 30 30 33 80 C5  .........s0003..
07D0: 66 80 B9 A2 08 01 B9 A2  08 01 73 30 30 30 33 80  f.........s0003.
07E0: C5 66 80 BA A2 08 01 BA  A2 08 01 73 30 30 30 33  .f.........s0003
07F0: 80 C5 66 80 BB A2 08 01  BB A2 08 01 73 30 30 30  ..f.........s000
0800: 33 80 C5 66 80 BC A2 08  01 BC A2 08 01 73 30 30  3..f.........s00
0810: 30 33 80 C5 66 80 EF A2  08 01 EF A2 08 01 73 30  03..f.........s0
0820: 30 30 33 80 C5 66 80 F2  A2 08 01 F2 A2 08 01 73  003..f.........s
0830: 30 30 30 33 80 1C 37 80  1A A2 3F 9F 65 80 F8 FF  0003..7...?.e...
0840: FF 7F F8 FF FF 7F 6B 69  6C 6C 33 80 59 05 B6 A2  ......kill3.Y...
0850: 08 01 00 59 05 B7 A2 08  01 00 59 05 EF A2 08 01  ...Y......Y.....
0860: 00 59 05 F0 A2 08 01 00  59 05 F1 A2 08 01 00 59  .Y......Y......Y
0870: 05 F2 A2 08 01 00 59 05  F3 A2 08 01 00 59 05 F4  ......Y......Y..
0880: A2 08 01 00 59 05 B8 A2  08 01 00 59 05 B9 A2 08  ....Y......Y....
0890: 01 00 59 05 BA A2 08 01  00 59 05 BB A2 08 01 00  ..Y......Y......
08A0: 59 05 BC A2 08 01 00 27  10 EF A2 08 01 0C 4E 01  Y......'......N.
08B0: B6 A2 08 01 4E 01 B7 A2  08 01 5C 00 67 80 5C 01  ....N.....\.g.\.
08C0: 67 80 5C 02 67 80 5C 03  67 80 9A 1C 2E 80 34 68  g.\.g.\.g.....4h
08D0: 80 77 2C 80 69 80 1C 6A  80 AB 09 1C 2E 80 4E 00  .w,.i..j......N.
08E0: FF A2 08 01 4E 00 00 A3  08 01 4E 00 01 A3 08 01  ....N.....N.....
08F0: 4E 00 02 A3 08 01 4E 00  03 A3 08 01 4E 00 05 A3  N.....N.....N...
0900: 08 01 4E 00 06 A3 08 01  92 01 FF A2 08 01 92 01  ..N.............
0910: 00 A3 08 01 92 01 01 A3  08 01 92 01 02 A3 08 01  ................
0920: 92 01 03 A3 08 01 92 01  05 A3 08 01 92 01 06 A3  ................
0930: 08 01 94 01 FF A2 08 01  94 01 00 A3 08 01 94 01  ................
0940: 01 A3 08 01 94 01 02 A3  08 01 94 01 03 A3 08 01  ................
0950: 94 01 05 A3 08 01 94 01  06 A3 08 01 BA FF A2 08  ................
0960: 01 6B 80 6C 80 6D 80 33  80 BA 00 A3 08 01 6E 80  .k.l.m.3......n.
0970: 6F 80 70 80 33 80 BA 01  A3 08 01 6B 80 6C 80 6D  o.p.3......k.l.m
0980: 80 33 80 BA 02 A3 08 01  71 80 6F 80 70 80 33 80  .3......q.o.p.3.
0990: BA EF A2 08 01 72 80 73  80 74 80 75 80 BA F1 A2  .....r.s.t.u....
09A0: 08 01 76 80 77 80 78 80  75 80 BA F3 A2 08 01 79  ..v.w.x.u......y
09B0: 80 7A 80 7B 80 33 80 BA  F4 A2 08 01 7C 80 7D 80  .z.{.3......|.}.
09C0: 7E 80 75 80 80 F0 FF FF  7F 80 EF A2 08 01 80 F0  ~.u.............
09D0: A2 08 01 80 F1 A2 08 01  80 F2 A2 08 01 80 F3 A2  ................
09E0: 08 01 80 F4 A2 08 01 1C  3B 80 2C FF A2 08 01 FF  ........;.,.....
09F0: A2 08 01 70 6F 70 30 1C  43 80 27 10 02 A3 08 01  ...pop0.C.'.....
0A00: 03 27 10 EF A2 08 01 05  27 10 F1 A2 08 01 07 27  .'......'......'
0A10: 10 F4 A2 08 01 04 45 36  80 F3 A2 08 01 F3 A2 08  ......E6........
0A20: 01 73 65 30 30 33 80 52  36 80 F0 FF FF 7F F0 FF  .se003.R6.......
0A30: FF 7F 30 33 31 35 45 36  80 F0 FF FF 7F F0 FF FF  ..0315E6........
0A40: 7F 30 33 30 38 33 80 1A  3F 3F 1A 81 3F 1C 43 80  .03083..??..?.C.
0A50: CD 7F 80 F8 FF FF 7F F8  FF FF 7F 73 30 30 33 33  ...........s0033
0A60: 80 1C 34 80 52 36 80 F0  FF FF 7F F0 FF FF 7F 30  ..4.R6.........0
0A70: 33 30 38 45 36 80 F0 FF  FF 7F F0 FF FF 7F 30 33  308E6.........03
0A80: 30 67 33 80 5B 80 80 F3  A2 08 01 F3 A2 08 01 6B  0g3.[..........k
0A90: 79 6F 30 1C 3B 80 BA F4  A2 08 01 81 80 82 80 83  yo0.;...........
0AA0: 80 84 80 4B F1 A2 08 01  85 80 1C 43 80 52 36 80  ...K.......C.R6.
0AB0: F0 FF FF 7F F0 FF FF 7F  30 33 30 67 45 36 80 F0  ........030gE6..
0AC0: FF FF 7F F0 FF FF 7F 30  33 31 6A 33 80 4B F1 A2  .......031j3.K..
0AD0: 08 01 86 80 BA 00 A3 08  01 71 80 6F 80 70 80 33  .........q.o.p.3
0AE0: 80 BA F2 A2 08 01 87 80  88 80 89 80 84 80 BA 03  ................
0AF0: A3 08 01 8A 80 8B 80 8C  80 33 80 BA 05 A3 08 01  .........3......
0B00: 8D 80 8E 80 8F 80 33 80  BA 06 A3 08 01 90 80 91  ......3.........
0B10: 80 92 80 33 80 1C 34 80  52 36 80 F0 FF FF 7F F0  ...3..4.R6......
0B20: FF FF 7F 30 33 31 6A 45  36 80 F0 FF FF 7F F0 FF  ...031jE6.......
0B30: FF 7F 30 33 31 6B 33 80  2C FF A2 08 01 FF A2 08  ..031k3.,.......
0B40: 01 73 68 6F 74 1C 3B 80  52 36 80 F0 FF FF 7F F0  .shot.;.R6......
0B50: FF FF 7F 30 33 31 6B 45  36 80 F0 FF FF 7F F0 FF  ...031kE6.......
0B60: FF 7F 30 33 31 6C 33 80  2C 01 A3 08 01 01 A3 08  ..031l3.,.......
0B70: 01 62 6F 6D 31 4A F1 A2  08 01 01 A3 08 01 5B 93  .bom1J........[.
0B80: 80 F1 A2 08 01 F1 A2 08  01 6B 69 61 30 5B 93 80  .........kia0[..
0B90: F3 A2 08 01 F3 A2 08 01  62 6F 75 30 4B F3 A2 08  ........bou0K...
0BA0: 01 94 80 2C 00 A3 08 01  00 A3 08 01 73 68 6F 74  ...,........shot
0BB0: 1C 3B 80 5B 95 80 F3 A2  08 01 F3 A2 08 01 66 6B  .;.[..........fk
0BC0: 69 62 27 10 02 A3 08 01  04 2C 02 A3 08 01 02 A3  ib'......,......
0BD0: 08 01 62 6F 6D 31 4A F1  A2 08 01 F3 A2 08 01 1C  ..bom1J.........
0BE0: 43 80 52 36 80 F0 FF FF  7F F0 FF FF 7F 30 33 30  C.R6.........030
0BF0: 6C 45 36 80 F0 FF FF 7F  F0 FF FF 7F 30 33 30 68  lE6.........030h
0C00: 33 80 BA EF A2 08 01 96  80 97 80 98 80 84 80 27  3..............'
0C10: 10 EF A2 08 01 06 27 10  F2 A2 08 01 0A 27 10 F4  ......'......'..
0C20: A2 08 01 05 1C 99 80 BA  F1 A2 08 01 9A 80 9B 80  ................
0C30: 9C 80 9D 80 1C 9E 80 5B  95 80 F1 A2 08 01 F1 A2  .......[........
0C40: 08 01 66 6B 69 62 2C 03  A3 08 01 03 A3 08 01 62  ..fkib,........b
0C50: 6F 6D 31 1C 9F 80 52 36  80 F0 FF FF 7F F0 FF FF  om1...R6........
0C60: 7F 30 33 30 68 45 36 80  F0 FF FF 7F F0 FF FF 7F  .030hE6.........
0C70: 30 33 31 63 33 80 7A 00  EF A2 08 01 7A 00 F2 A2  031c3.z.....z...
0C80: 08 01 BA F4 A2 08 01 A0  80 A1 80 A2 80 A3 80 BA  ................
0C90: F2 A2 08 01 A4 80 A5 80  78 80 84 80 27 10 F2 A2  ........x...'...
0CA0: 08 01 0B 27 10 F4 A2 08  01 05 5B 95 80 EF A2 08  ...'......[.....
0CB0: 01 EF A2 08 01 64 73 68  30 1C 34 80 BA EF A2 08  .....dsh0.4.....
0CC0: 01 A6 80 A7 80 78 80 84  80 2C 05 A3 08 01 05 A3  .....x...,......
0CD0: 08 01 62 6F 6D 31 1C A8  80 5B 95 80 EF A2 08 01  ..bom1...[......
0CE0: EF A2 08 01 64 73 68 31  1C 99 80 52 36 80 F0 FF  ....dsh1...R6...
0CF0: FF 7F F0 FF FF 7F 30 33  31 63 45 36 80 F0 FF FF  ......031cE6....
0D00: 7F F0 FF FF 7F 30 33 31  64 33 80 1C 43 80 52 36  .....031d3..C.R6
0D10: 80 F0 FF FF 7F F0 FF FF  7F 30 33 31 64 45 36 80  .........031dE6.
0D20: F0 FF FF 7F F0 FF FF 7F  30 33 30 69 33 80 2C 06  ........030i3.,.
0D30: A3 08 01 06 A3 08 01 62  6F 6D 31 C5 A9 80 06 A3  .......bom1.....
0D40: 08 01 06 A3 08 01 68 69  74 30 33 80 1C 39 80 1A  ......hit03..9..
0D50: 60 3F 45 36 80 F3 A2 08  01 F3 A2 08 01 6B 65 30  `?E6.........ke0
0D60: 30 33 80 7A 00 F4 A2 08  01 7A 00 F2 A2 08 01 4E  03.z.....z.....N
0D70: 01 FF A2 08 01 4E 01 00  A3 08 01 4E 01 01 A3 08  .....N.....N....
0D80: 01 4E 01 02 A3 08 01 4E  01 03 A3 08 01 4E 01 04  .N.....N.....N..
0D90: A3 08 01 4E 01 05 A3 08  01 4E 01 06 A3 08 01 1C  ...N.....N......
0DA0: 2E 80 34 AA 80 77 2C 80  2D 80 1C 2E 80 AB 09 1C  ..4..w,.-.......
0DB0: 2E 80 BA EF A2 08 01 AB  80 AC 80 AD 80 AE 80 BA  ................
0DC0: F0 A2 08 01 AF 80 B0 80  AD 80 33 80 BA F1 A2 08  ..........3.....
0DD0: 01 B1 80 B2 80 B3 80 33  80 BA F2 A2 08 01 B4 80  .......3........
0DE0: B5 80 B6 80 33 80 BA F3  A2 08 01 B7 80 B8 80 B9  ....3...........
0DF0: 80 33 80 1C 3B 80 80 EF  A2 08 01 80 F0 A2 08 01  .3..;...........
0E00: 80 F1 A2 08 01 80 F2 A2  08 01 80 F3 A2 08 01 1C  ................
0E10: 3B 80 27 10 F0 A2 08 01  0A 27 10 EF A2 08 01 09  ;.'......'......
0E20: 45 36 80 F1 A2 08 01 F1  A2 08 01 73 65 30 30 33  E6.........se003
0E30: 80 52 36 80 F0 FF FF 7F  F0 FF FF 7F 30 33 30 6A  .R6.........030j
0E40: 45 36 80 F0 FF FF 7F F0  FF FF 7F 30 33 30 6B 33  E6.........030k3
0E50: 80 27 10 F0 FF FF 7F 1F  1A 3F 3F 7C 01 B0 A2 08  .'.......??|....
0E60: 01 27 10 F2 A2 08 01 0C  5B 80 80 F1 A2 08 01 F1  .'......[.......
0E70: A2 08 01 6B 79 6F 30 2B  F1 A2 08 01 BA 80 23 52  ...kyo0+......#R
0E80: 36 80 F0 FF FF 7F F0 FF  FF 7F 30 33 30 6B 45 36  6.........030kE6
0E90: 80 F0 FF FF 7F F0 FF FF  7F 30 33 31 66 33 80 7A  .........031f3.z
0EA0: 00 F0 A2 08 01 7A 00 EF  A2 08 01 7A 00 F2 A2 08  .....z.....z....
0EB0: 01 BA EF A2 08 01 BB 80  BC 80 B6 80 33 80 BA F0  ............3...
0EC0: A2 08 01 BD 80 BE 80 BF  80 C0 80 BA F1 A2 08 01  ................
0ED0: C1 80 C2 80 C3 80 33 80  BA F2 A2 08 01 C4 80 C5  ......3.........
0EE0: 80 C6 80 33 80 BA F3 A2  08 01 B7 80 B8 80 B9 80  ...3............
0EF0: 33 80 27 10 EF A2 08 01  0A 27 10 F0 A2 08 01 0B  3.'......'......
0F00: 27 10 F1 A2 08 01 09 27  10 F2 A2 08 01 0D 27 10  '......'......'.
0F10: F3 A2 08 01 08 1C 37 80  1A 60 3F 45 36 80 F1 A2  ......7..`?E6...
0F20: 08 01 F1 A2 08 01 6B 65  30 30 33 80 7A 00 F0 FF  ......ke003.z...
0F30: FF 7F 7A 00 EF A2 08 01  7A 00 F0 A2 08 01 7A 00  ..z.....z.....z.
0F40: F1 A2 08 01 7A 00 F2 A2  08 01 7A 00 F3 A2 08 01  ....z.....z.....
0F50: 1C 2E 80 34 2B 80 77 2C  80 2D 80 1C 2E 80 AB 09  ...4+.w,.-......
0F60: 2F 00 BE A2 08 01 2F 00  BF A2 08 01 2F 00 F5 A2  /...../...../...
0F70: 08 01 2F 00 F6 A2 08 01  2F 00 F7 A2 08 01 2F 00  ../...../...../.
0F80: F8 A2 08 01 4E 00 BE A2  08 01 4E 00 BF A2 08 01  ....N.....N.....
0F90: 4E 00 F5 A2 08 01 4E 00  F6 A2 08 01 4E 00 F7 A2  N.....N.....N...
0FA0: 08 01 4E 00 F8 A2 08 01  92 01 BE A2 08 01 92 01  ..N.............
0FB0: BF A2 08 01 92 01 F5 A2  08 01 92 01 F6 A2 08 01  ................
0FC0: 92 01 F7 A2 08 01 92 01  F8 A2 08 01 94 01 BE A2  ................
0FD0: 08 01 94 01 BF A2 08 01  94 01 F5 A2 08 01 94 01  ................
0FE0: F6 A2 08 01 94 01 F7 A2  08 01 94 01 F8 A2 08 01  ................
0FF0: 59 05 F5 A2 08 01 01 59  05 F6 A2 08 01 01 59 05  Y......Y......Y.
1000: F7 A2 08 01 01 59 05 F8  A2 08 01 01 BA B0 A2 08  .....Y..........
1010: 01 C7 80 C8 80 C9 80 CA  80 BA B2 A2 08 01 CB 80  ................
1020: CC 80 CD 80 CA 80 BA B8  A2 08 01 CE 80 CF 80 D0  ................
1030: 80 CA 80 BA B9 A2 08 01  D1 80 D2 80 D3 80 D4 80  ................
1040: BA BA A2 08 01 D5 80 D6  80 D7 80 CA 80 BA BB A2  ................
1050: 08 01 D8 80 D9 80 DA 80  CA 80 BA BC A2 08 01 DB  ................
1060: 80 DC 80 DD 80 CA 80 BA  BE A2 08 01 DE 80 DF 80  ................
1070: E0 80 CA 80 BA BF A2 08  01 E1 80 E2 80 E3 80 E4  ................
1080: 80 BA EF A2 08 01 E5 80  E6 80 E7 80 E8 80 BA F0  ................
1090: A2 08 01 E9 80 EA 80 EB  80 E8 80 BA F2 A2 08 01  ................
10A0: EC 80 ED 80 EE 80 E8 80  BA F4 A2 08 01 EF 80 F0  ................
10B0: 80 F1 80 E8 80 BA F5 A2  08 01 F2 80 F3 80 F4 80  ................
10C0: F5 80 BA F6 A2 08 01 F6  80 F7 80 F8 80 E8 80 BA  ................
10D0: F7 A2 08 01 F9 80 FA 80  FB 80 E8 80 BA F8 A2 08  ................
10E0: 01 FC 80 FD 80 FE 80 E8  80 80 B0 A2 08 01 80 B2  ................
10F0: A2 08 01 80 B8 A2 08 01  80 B9 A2 08 01 80 BA A2  ................
1100: 08 01 80 BB A2 08 01 80  BC A2 08 01 80 BF A2 08  ................
1110: 01 80 EF A2 08 01 80 F0  A2 08 01 80 F1 A2 08 01  ................
1120: 80 F2 A2 08 01 80 F3 A2  08 01 80 F4 A2 08 01 1C  ................
1130: 2E 80 27 10 BE A2 08 01  09 27 10 B0 A2 08 01 12  ..'......'......
1140: 27 10 B2 A2 08 01 09 27  10 B8 A2 08 01 08 27 10  '......'......'.
1150: B9 A2 08 01 07 27 10 BA  A2 08 01 07 27 10 BB A2  .....'......'...
1160: 08 01 07 29 10 BC A2 08  01 06 27 10 B0 A2 08 01  ...)......'.....
1170: 15 27 10 B2 A2 08 01 0C  27 10 B8 A2 08 01 0B 29  .'......'......)
1180: 10 B9 A2 08 01 0A 27 10  F4 A2 08 01 08 1C 34 80  ......'.......4.
1190: 66 FF 80 BA A2 08 01 BA  A2 08 01 73 68 61 30 5B  f..........sha0[
11A0: 00 81 BB A2 08 01 BB A2  08 01 79 62 74 30 5B 01  ..........ybt0[.
11B0: 81 BC A2 08 01 BC A2 08  01 6B 65 69 6C 1C 3B 80  .........keil.;.
11C0: 45 36 80 F0 FF FF 7F F0  FF FF 7F 30 33 30 6C 33  E6.........030l3
11D0: 80 1A 3F 3F 27 10 EF A2  08 01 07 5B 02 81 B0 A2  ..??'......[....
11E0: 08 01 B0 A2 08 01 62 67  6E 30 5B 02 81 B2 A2 08  ......bgn0[.....
11F0: 01 B2 A2 08 01 62 67 6E  30 5B 02 81 B8 A2 08 01  .....bgn0[......
1200: B8 A2 08 01 62 67 6E 30  5B 02 81 B9 A2 08 01 B9  ....bgn0[.......
1210: A2 08 01 62 67 6E 30 5B  03 81 F2 A2 08 01 F2 A2  ...bgn0[........
1220: 08 01 72 61 76 32 1C 40  80 52 36 80 F0 FF FF 7F  ..rav2.@.R6.....
1230: F0 FF FF 7F 30 33 30 6C  45 36 80 F0 FF FF 7F F0  ....030lE6......
1240: FF FF 7F 30 33 31 36 33  80 1C 2E 80 5B 93 80 F0  ...03163....[...
1250: A2 08 01 F0 A2 08 01 6B  69 61 30 1C 2E 80 5B 03  .......kia0...[.
1260: 81 F4 A2 08 01 F4 A2 08  01 72 61 76 30 27 10 F4  .........rav0'..
1270: A2 08 01 09 1C 04 81 5D  A8 80 34 80 1C 99 80 52  .......]..4....R
1280: 36 80 F0 FF FF 7F F0 FF  FF 7F 30 33 31 36 45 36  6.........0316E6
1290: 80 F0 FF FF 7F F0 FF FF  7F 30 33 30 6D 33 80 6B  .........030m3.k
12A0: 69 64 6C 30 F2 A2 08 01  1C 43 80 2B BF A2 08 01  idl0.....C.+....
12B0: 05 81 23 BA EF A2 08 01  06 81 07 81 08 81 E8 80  ..#.............
12C0: BA F0 A2 08 01 09 81 0A  81 0B 81 E8 80 BA F1 A2  ................
12D0: 08 01 0C 81 0D 81 0E 81  E8 80 BA F2 A2 08 01 0F  ................
12E0: 81 10 81 11 81 E8 80 BA  F3 A2 08 01 12 81 13 81  ................
12F0: 14 81 E8 80 BA F4 A2 08  01 15 81 16 81 17 81 E8  ................
1300: 80 52 36 80 F0 FF FF 7F  F0 FF FF 7F 30 33 30 6D  .R6.........030m
1310: 45 36 80 F0 FF FF 7F F0  FF FF 7F 30 33 30 6E 33  E6.........030n3
1320: 80 2B BF A2 08 01 18 81  27 10 B0 A2 08 01 17 27  .+......'......'
1330: 10 B2 A2 08 01 0E 27 10  B8 A2 08 01 0D 27 10 B9  ......'......'..
1340: A2 08 01 0C 1C 39 80 52  36 80 F0 FF FF 7F F0 FF  .....9.R6.......
1350: FF 7F 30 33 30 6E 45 36  80 F0 FF FF 7F F0 FF FF  ..030nE6........
1360: 7F 30 33 31 31 33 80 66  FF 80 BA A2 08 01 BA A2  .03113.f........
1370: 08 01 73 68 61 31 5B 00  81 BB A2 08 01 BB A2 08  ..sha1[.........
1380: 01 79 62 74 31 1C 3B 80  66 19 81 BA A2 08 01 BA  .ybt1.;.f.......
1390: A2 08 01 31 72 64 79 1C  43 80 5B 01 81 BC A2 08  ...1rdy.C.[.....
13A0: 01 BC A2 08 01 62 61 74  30 5D 33 80 34 80 1C 2E  .....bat0]3.4...
13B0: 80 52 36 80 F0 FF FF 7F  F0 FF FF 7F 30 33 31 31  .R6.........0311
13C0: 45 36 80 F0 FF FF 7F F0  FF FF 7F 30 33 31 32 33  E6.........03123
13D0: 80 BA BA A2 08 01 1A 81  1B 81 1C 81 CA 80 BA BB  ................
13E0: A2 08 01 1D 81 1E 81 1F  81 CA 80 27 10 BA A2 08  ...........'....
13F0: 01 08 29 10 BB A2 08 01  08 80 BB A2 08 01 1C 40  ..)............@
1400: 80 52 36 80 F0 FF FF 7F  F0 FF FF 7F 30 33 31 32  .R6.........0312
1410: 45 36 80 F0 FF FF 7F F0  FF FF 7F 30 33 31 30 33  E6.........03103
1420: 80 1C 38 80 5C 00 20 81  5C 01 20 81 5C 02 20 81  ..8.\. .\. .\. .
1430: 5C 03 20 81 9A 5B 3C 80  BF A2 08 01 BF A2 08 01  \. ..[<.........
1440: 73 6A 69 30 1C 99 80 52  36 80 F0 FF FF 7F F0 FF  sji0...R6.......
1450: FF 7F 30 33 31 30 45 36  80 F0 FF FF 7F F0 FF FF  ..0310E6........
1460: 7F 30 33 30 79 33 80 1C  21 81 2B BF A2 08 01 22  .030y3..!.+...."
1470: 81 23 52 36 80 F0 FF FF  7F F0 FF FF 7F 30 33 30  .#R6.........030
1480: 79 45 36 80 F0 FF FF 7F  F0 FF FF 7F 30 33 31 6E  yE6.........031n
1490: 33 80 1C 2E 80 5B 23 81  B9 A2 08 01 B9 A2 08 01  3....[#.........
14A0: 62 67 6E 32 C5 24 81 EF  A2 08 01 EF A2 08 01 73  bgn2.$.........s
14B0: 30 30 31 33 80 1C 2E 80  52 36 80 F0 FF FF 7F F0  0013....R6......
14C0: FF FF 7F 30 33 31 6E 45  36 80 F0 FF FF 7F F0 FF  ...031nE6.......
14D0: FF 7F 30 33 31 6F 33 80  5B 23 81 B2 A2 08 01 B2  ..031o3.[#......
14E0: A2 08 01 62 67 6E 32 1C  2E 80 5B 23 81 B8 A2 08  ...bgn2...[#....
14F0: 01 B8 A2 08 01 62 67 6E  32 1C 2E 80 52 36 80 F0  .....bgn2...R6..
1500: FF FF 7F F0 FF FF 7F 30  33 31 6F 45 36 80 F0 FF  .......031oE6...
1510: FF 7F F0 FF FF 7F 30 33  31 38 33 80 5B 23 81 B0  ......03183.[#..
1520: A2 08 01 B0 A2 08 01 62  67 6E 32 5B 23 81 B2 A2  .......bgn2[#...
1530: 08 01 B2 A2 08 01 62 67  6E 32 CD 25 81 B0 A2 08  ......bgn2.%....
1540: 01 B0 A2 08 01 73 30 30  30 33 80 45 36 80 F0 FF  .....s0003.E6...
1550: FF 7F F0 FF FF 7F 73 65  30 31 33 80 1C 43 80 52  ......se013..C.R
1560: 36 80 F0 FF FF 7F F0 FF  FF 7F 30 33 31 38 45 36  6.........0318E6
1570: 80 F0 FF FF 7F F0 FF FF  7F 30 33 31 70 33 80 CD  .........031p3..
1580: 25 81 F5 A2 08 01 F5 A2  08 01 73 30 30 30 33 80  %.........s0003.
1590: 45 36 80 F0 FF FF 7F F0  FF FF 7F 73 65 30 32 33  E6.........se023
15A0: 80 1C 34 80 52 36 80 F0  FF FF 7F F0 FF FF 7F 30  ..4.R6.........0
15B0: 33 31 70 45 36 80 F0 FF  FF 7F F0 FF FF 7F 30 33  31pE6.........03
15C0: 30 78 33 80 48 26 81 27  10 F2 A2 08 01 07 27 10  0x3.H&.'......'.
15D0: F4 A2 08 01 07 5B 27 81  F3 A2 08 01 F3 A2 08 01  .....['.........
15E0: 65 69 30 30 CD 25 81 F7  A2 08 01 F7 A2 08 01 73  ei00.%.........s
15F0: 30 30 31 33 80 BA B8 A2  08 01 28 81 29 81 2A 81  0013......(.).*.
1600: E8 80 BA B9 A2 08 01 2B  81 2C 81 2D 81 E8 80 BA  .......+.,.-....
1610: BC A2 08 01 2E 81 2F 81  30 81 F5 80 27 10 B0 A2  ....../.0...'...
1620: 08 01 13 27 10 B2 A2 08  01 0A 27 10 B8 A2 08 01  ...'......'.....
1630: 09 27 10 B9 A2 08 01 08  27 10 BA A2 08 01 07 27  .'......'......'
1640: 10 BB A2 08 01 07 27 10  BC A2 08 01 07 1C 2E 80  ......'.........
1650: 5B 93 80 EF A2 08 01 EF  A2 08 01 62 6F 75 30 CD  [..........bou0.
1660: 25 81 F6 A2 08 01 F6 A2  08 01 73 30 30 31 33 80  %.........s0013.
1670: 1C 40 80 C5 31 81 F1 A2  08 01 F1 A2 08 01 73 30  .@..1.........s0
1680: 30 30 33 80 1C 2E 80 52  36 80 F0 FF FF 7F F0 FF  003....R6.......
1690: FF 7F 30 33 30 78 45 36  80 F0 FF FF 7F F0 FF FF  ..030xE6........
16A0: 7F 30 33 30 7A 33 80 5B  32 81 B8 A2 08 01 B8 A2  .030z3.[2.......
16B0: 08 01 62 61 74 6C 5B 32  81 B9 A2 08 01 B9 A2 08  ..batl[2........
16C0: 01 62 61 74 6C 1C 33 81  27 10 BC A2 08 01 0C 1C  .batl.3.'.......
16D0: 34 81 27 10 B8 A2 08 01  0E 1C 6A 80 27 10 B9 A2  4.'.......j.'...
16E0: 08 01 0D 52 36 80 F0 FF  FF 7F F0 FF FF 7F 30 33  ...R6.........03
16F0: 30 7A 45 36 80 F0 FF FF  7F F0 FF FF 7F 30 33 31  0zE6.........031
1700: 39 33 80 1C 3B 80 1A B3  40 52 36 80 F0 FF FF 7F  93..;...@R6.....
1710: F0 FF FF 7F 30 33 31 39  27 10 B0 A2 08 01 16 27  ....0319'......'
1720: 10 B2 A2 08 01 0D 27 10  B8 A2 08 01 0C 29 10 B9  ......'......)..
1730: A2 08 01 0B BA B0 A2 08  01 35 81 36 81 37 81 38  .........5.6.7.8
1740: 81 BA B2 A2 08 01 39 81  3A 81 3B 81 E8 80 BA B8  ......9.:.;.....
1750: A2 08 01 3C 81 3D 81 3E  81 E8 80 BA B9 A2 08 01  ...<.=.>........
1760: 3F 81 40 81 41 81 42 81  BA BA A2 08 01 43 81 44  ?.@.A.B......C.D
1770: 81 45 81 E8 80 BA BB A2  08 01 46 81 47 81 48 81  .E........F.G.H.
1780: E8 80 BA BC A2 08 01 49  81 4A 81 4B 81 4C 81 BA  .......I.J.K.L..
1790: EF A2 08 01 4D 81 4E 81  4F 81 C0 80 BA F0 A2 08  ....M.N.O.......
17A0: 01 50 81 51 81 52 81 4C  81 BA F1 A2 08 01 53 81  .P.Q.R.L......S.
17B0: 54 81 55 81 56 81 BA F2  A2 08 01 57 81 58 81 59  T.U.V......W.X.Y
17C0: 81 E8 80 1C 3B 80 4A B0  A2 08 01 EF A2 08 01 4A  ....;.J........J
17D0: B2 A2 08 01 F0 A2 08 01  4A B8 A2 08 01 EF A2 08  ........J.......
17E0: 01 4A B9 A2 08 01 F0 A2  08 01 4A BA A2 08 01 F1  .J........J.....
17F0: A2 08 01 4A BB A2 08 01  F1 A2 08 01 4A BC A2 08  ...J........J...
1800: 01 F2 A2 08 01 4A EF A2  08 01 B0 A2 08 01 4A F0  .....J........J.
1810: A2 08 01 B2 A2 08 01 4A  F1 A2 08 01 BA A2 08 01  .......J........
1820: 4A F2 A2 08 01 BC A2 08  01 1C 3B 80 5B 5A 81 B0  J.........;.[Z..
1830: A2 08 01 B0 A2 08 01 6C  62 74 30 5B 5B 81 B2 A2  .......lbt0[[...
1840: 08 01 B2 A2 08 01 79 62  74 6C 1C 99 80 5B 5C 81  ......ybtl...[\.
1850: EF A2 08 01 EF A2 08 01  6B 65 6E 30 5B 5A 81 B8  ........ken0[Z..
1860: A2 08 01 B8 A2 08 01 6C  62 74 30 1C 99 80 5B 5A  .......lbt0...[Z
1870: 81 B9 A2 08 01 B9 A2 08  01 6C 62 74 30 5B 5C 81  .........lbt0[\.
1880: F0 A2 08 01 F0 A2 08 01  6B 65 6E 30 1C 99 80 5B  ........ken0...[
1890: 5A 81 BA A2 08 01 BA A2  08 01 6C 62 74 30 5B 5B  Z.........lbt0[[
18A0: 81 BB A2 08 01 BB A2 08  01 79 62 74 6C 1C 99 80  .........ybtl...
18B0: 5B 5C 81 F1 A2 08 01 F1  A2 08 01 6B 6D 61 30 5B  [\.........kma0[
18C0: 5A 81 BC A2 08 01 BC A2  08 01 6C 62 74 30 1C 99  Z.........lbt0..
18D0: 80 5B 5C 81 F2 A2 08 01  F2 A2 08 01 6B 6D 61 30  .[\.........kma0
18E0: 1C 99 80 5B 5D 81 BC A2  08 01 BC A2 08 01 76 73  ...[].........vs
18F0: 64 6D C5 24 81 F1 A2 08  01 F1 A2 08 01 73 30 30  dm.$.........s00
1900: 31 33 80 C5 24 81 F2 A2  08 01 F2 A2 08 01 73 30  13..$.........s0
1910: 30 31 33 80 45 36 80 F0  FF FF 7F F0 FF FF 7F 30  013.E6.........0
1920: 33 31 68 33 80 1A 81 3F  1C 38 80 52 36 80 F0 FF  31h3...?.8.R6...
1930: FF 7F F0 FF FF 7F 30 33  31 68 45 36 80 F0 FF FF  ......031hE6....
1940: 7F F0 FF FF 7F 30 33 31  69 33 80 1C 37 80 2C F0  .....031i3..7.,.
1950: A2 08 01 F0 A2 08 01 64  65 61 64 1C 43 80 2C F1  .......dead.C.,.
1960: A2 08 01 F1 A2 08 01 64  65 61 64 1C 2E 80 52 36  .......dead...R6
1970: 80 F0 FF FF 7F F0 FF FF  7F 30 33 31 69 45 36 80  .........031iE6.
1980: F0 FF FF 7F F0 FF FF 7F  30 33 31 6D 33 80 5B 5D  ........031m3.[]
1990: 81 BC A2 08 01 BC A2 08  01 6B 6B 64 6D 1C 37 80  .........kkdm.7.
19A0: 1A 60 3F 59 05 F2 A2 08  01 00 59 05 F5 A2 08 01  .`?Y......Y.....
19B0: 00 52 36 80 F0 FF FF 7F  F0 FF FF 7F 30 33 31 6D  .R6.........031m
19C0: 1C 3B 80 27 10 B0 A2 08  01 14 27 10 B2 A2 08 01  .;.'......'.....
19D0: 0B 27 10 B8 A2 08 01 0A  27 10 B9 A2 08 01 09 27  .'......'......'
19E0: 10 BA A2 08 01 09 27 10  BB A2 08 01 09 29 10 BC  ......'......)..
19F0: A2 08 01 08 80 BC A2 08  01 1C 3B 80 34 AA 80 78  ..........;.4..x
1A00: 1C 2E 80 AB 09 2F 00 C0  A2 08 01 4E 00 C0 A2 08  ...../.....N....
1A10: 01 92 01 C0 A2 08 01 94  01 C0 A2 08 01 59 05 EF  .............Y..
1A20: A2 08 01 01 59 05 F0 A2  08 01 01 59 05 F1 A2 08  ....Y......Y....
1A30: 01 01 59 05 F2 A2 08 01  01 59 05 F3 A2 08 01 01  ..Y......Y......
1A40: 59 05 F4 A2 08 01 01 BA  F0 FF FF 7F 5E 81 5F 81  Y...........^._.
1A50: 60 81 61 81 BA AF A2 08  01 62 81 63 81 64 81 65  `.a......b.c.d.e
1A60: 81 BA B0 A2 08 01 66 81  67 81 68 81 69 81 BA B2  ......f.g.h.i...
1A70: A2 08 01 6A 81 6B 81 6C  81 CA 80 BA B8 A2 08 01  ...j.k.l........
1A80: 6D 81 6E 81 6F 81 69 81  BA B9 A2 08 01 70 81 71  m.n.o.i......p.q
1A90: 81 72 81 73 81 BA BA A2  08 01 74 81 75 81 52 81  .r.s......t.u.R.
1AA0: 61 81 BA BB A2 08 01 76  81 77 81 78 81 61 81 BA  a......v.w.x.a..
1AB0: BC A2 08 01 79 81 7A 81  7B 81 7C 81 BA C0 A2 08  ....y.z.{.|.....
1AC0: 01 7D 81 7E 81 7F 81 80  81 BA EF A2 08 01 81 81  .}.~............
1AD0: 82 81 83 81 01 81 BA F0  A2 08 01 81 81 84 81 85  ................
1AE0: 81 01 81 BA F1 A2 08 01  86 81 87 81 88 81 33 80  ..............3.
1AF0: BA F2 A2 08 01 89 81 8A  81 8B 81 33 80 BA F3 A2  ...........3....
1B00: 08 01 89 81 8A 81 8B 81  33 80 BA F4 A2 08 01 8C  ........3.......
1B10: 81 8D 81 8E 81 33 80 27  10 F2 A2 08 01 08 80 AF  .....3.'........
1B20: A2 08 01 80 B0 A2 08 01  80 B2 A2 08 01 80 B8 A2  ................
1B30: 08 01 80 B9 A2 08 01 80  BA A2 08 01 80 BB A2 08  ................
1B40: 01 80 BC A2 08 01 80 C0  A2 08 01 80 EF A2 08 01  ................
1B50: 80 F0 A2 08 01 80 F1 A2  08 01 80 F2 A2 08 01 80  ................
1B60: F3 A2 08 01 80 F4 A2 08  01 1C 3B 80 5B 8F 81 B2  ..........;.[...
1B70: A2 08 01 B2 A2 08 01 70  61 70 30 5B 90 81 C0 A2  .......pap0[....
1B80: 08 01 C0 A2 08 01 73 74  64 62 27 10 EF A2 08 01  ......stdb'.....
1B90: 0B 27 10 F0 A2 08 01 05  27 10 F1 A2 08 01 05 27  .'......'......'
1BA0: 10 F2 A2 08 01 04 27 10  F3 A2 08 01 06 27 10 F4  ......'......'..
1BB0: A2 08 01 08 1C 43 80 52  36 80 F0 FF FF 7F F0 FF  .....C.R6.......
1BC0: FF 7F 30 33 30 6E 45 36  80 F0 FF FF 7F F0 FF FF  ..030nE6........
1BD0: 7F 30 33 30 6F 33 80 27  10 B0 A2 08 01 10 1A 3F  .030o3.'.......?
1BE0: 3F 2A 10 B0 A2 08 01 1C  3B 80 27 10 B8 A2 08 01  ?*......;.'.....
1BF0: 03 27 10 B9 A2 08 01 03  2B B0 A2 08 01 91 81 23  .'......+......#
1C00: 52 36 80 F0 FF FF 7F F0  FF FF 7F 30 33 30 6F 45  R6.........030oE
1C10: 36 80 F0 FF FF 7F F0 FF  FF 7F 30 33 30 70 33 80  6.........030p3.
1C20: 2B B2 A2 08 01 92 81 5B  8F 81 B2 A2 08 01 B2 A2  +......[........
1C30: 08 01 70 61 70 31 1C 2E  80 27 10 BA A2 08 01 03  ..pap1...'......
1C40: 27 10 BB A2 08 01 03 7A  00 B8 A2 08 01 7A 00 B9  '......z.....z..
1C50: A2 08 01 BA B8 A2 08 01  93 81 94 81 95 81 73 81  ..............s.
1C60: BA B9 A2 08 01 96 81 97  81 98 81 73 81 23 52 36  ...........s.#R6
1C70: 80 F0 FF FF 7F F0 FF FF  7F 30 33 30 70 45 36 80  .........030pE6.
1C80: F0 FF FF 7F F0 FF FF 7F  30 33 30 71 33 80 7A 00  ........030q3.z.
1C90: BA A2 08 01 7A 00 BB A2  08 01 BA BA A2 08 01 99  ....z...........
1CA0: 81 9A 81 9B 81 73 81 BA  BB A2 08 01 9C 81 9D 81  .....s..........
1CB0: 9E 81 73 81 27 10 B8 A2  08 01 04 27 10 B9 A2 08  ..s.'......'....
1CC0: 01 04 27 10 BA A2 08 01  04 27 10 BB A2 08 01 04  ..'......'......
1CD0: 2B B0 A2 08 01 9F 81 23  52 36 80 F0 FF FF 7F F0  +......#R6......
1CE0: FF FF 7F 30 33 30 71 45  36 80 F0 FF FF 7F F0 FF  ...030qE6.......
1CF0: FF 7F 30 33 30 72 33 80  5D 33 80 34 80 1C 37 80  ..030r3.]3.4..7.
1D00: 27 10 F0 FF FF 7F 1C 1C  37 80 52 36 80 F0 FF FF  '.......7.R6....
1D10: 7F F0 FF FF 7F 30 33 30  72 45 36 80 F0 FF FF 7F  .....030rE6.....
1D20: F0 FF FF 7F 30 33 30 73  33 80 1C 34 80 5C 00 A0  ....030s3..4.\..
1D30: 81 5C 01 A0 81 5C 02 A0  81 5C 03 A0 81 1C 39 80  .\...\...\....9.
1D40: 2B C0 A2 08 01 A1 81 23  52 36 80 F0 FF FF 7F F0  +......#R6......
1D50: FF FF 7F 30 33 30 73 45  36 80 F0 FF FF 7F F0 FF  ...030sE6.......
1D60: FF 7F 30 33 30 74 33 80  27 10 F0 FF FF 7F 1E 27  ..030t3.'......'
1D70: 10 AF A2 08 01 11 27 10  EF A2 08 01 0C 27 10 F0  ......'......'..
1D80: A2 08 01 06 27 10 F1 A2  08 01 06 27 10 F2 A2 08  ....'......'....
1D90: 01 05 27 10 F3 A2 08 01  07 27 10 F4 A2 08 01 09  ..'......'......
1DA0: 1C 37 80 2B C0 A2 08 01  A2 81 52 36 80 F0 FF FF  .7.+......R6....
1DB0: 7F F0 FF FF 7F 30 33 30  74 45 36 80 F0 FF FF 7F  .....030tE6.....
1DC0: F0 FF FF 7F 30 33 30 75  33 80 5B 93 80 EF A2 08  ....030u3.[.....
1DD0: 01 EF A2 08 01 77 61 6C  31 5B 93 80 F0 A2 08 01  .....wal1[......
1DE0: F0 A2 08 01 77 61 6C 30  5B A3 81 F2 A2 08 01 F2  ....wal0[.......
1DF0: A2 08 01 63 72 67 30 5B  A4 81 F1 A2 08 01 F1 A2  ...crg0[........
1E00: 08 01 63 72 67 30 5B A4  81 F3 A2 08 01 F3 A2 08  ..crg0[.........
1E10: 01 63 72 67 30 23 52 36  80 F0 FF FF 7F F0 FF FF  .crg0#R6........
1E20: 7F 30 33 30 75 45 36 80  F0 FF FF 7F F0 FF FF 7F  .030uE6.........
1E30: 30 33 30 76 33 80 5B A5  81 C0 A2 08 01 C0 A2 08  030v3.[.........
1E40: 01 6D 69 72 30 1C 2E 80  2B C0 A2 08 01 A6 81 23  .mir0...+......#
1E50: 52 36 80 F0 FF FF 7F F0  FF FF 7F 30 33 30 76 45  R6.........030vE
1E60: 36 80 F0 FF FF 7F F0 FF  FF 7F 30 33 30 77 33 80  6.........030w3.
1E70: 27 10 F0 A2 08 01 09 2B  C0 A2 08 01 A7 81 1C 34  '......+.......4
1E80: 80 23 5B A3 81 F2 A2 08  01 F2 A2 08 01 63 72 67  .#[..........crg
1E90: 31 5B A4 81 F3 A2 08 01  F3 A2 08 01 63 72 67 31  1[..........crg1
1EA0: 1C 6A 80 5B A4 81 F1 A2  08 01 F1 A2 08 01 63 72  .j.[..........cr
1EB0: 67 31 1C 21 81 52 36 80  F0 FF FF 7F F0 FF FF 7F  g1.!.R6.........
1EC0: 30 33 30 77 45 36 80 F0  FF FF 7F F0 FF FF 7F 30  030wE6.........0
1ED0: 33 31 37 33 80 5B 93 80  EF A2 08 01 EF A2 08 01  3173.[..........
1EE0: 77 61 6C 32 1C 43 80 1A  60 3F 27 10 F2 A2 08 01  wal2.C..`?'.....
1EF0: 09 7A 00 F0 A2 08 01 59  05 EF A2 08 01 00 59 05  .z.....Y......Y.
1F00: F0 A2 08 01 00 59 05 F1  A2 08 01 00 59 05 F2 A2  .....Y......Y...
1F10: 08 01 00 59 05 F3 A2 08  01 00 59 05 F4 A2 08 01  ...Y......Y.....
1F20: 00 1C 2E 80 52 36 80 F0  FF FF 7F F0 FF FF 7F 30  ....R6.........0
1F30: 33 31 37 45 36 80 F0 FF  FF 7F F0 FF FF 7F 62 6C  317E6.........bl
1F40: 6F 66 33 80 46 00 45 A8  81 F0 FF FF 7F F0 FF FF  of3.F.E.........
1F50: 7F 66 64 69 32 33 80 21  00                       .fdi23.!.       
```

#### Opcodes

```
  0: 0x0001 [0x42] SET_CLI_EVENT_CANCEL_DATA()
  1: 0x0002 [0x1A] CALL_SUBROUTINE(address=0x3F60)
  2: 0x0005 [0x46] CAMERA_CONTROL: Disable user control
  3: 0x0007 [0x38] SET_CLIENT_EVENT_MODE(mode=19*)
  4: 0x000A [0x4E] SET_ENTITY_HIDE_FLAG: Show LocalPlayer
  5: 0x0010 [0x27] REQ_SET(priority=0x10, entity_id=Lilisette (ID: 17343151/0x0108A2AF), tag_num=0x04)
  6: 0x0017 [0x2F] Ragelise (ID: 17343152/0x0108A2B0)->Render.Flags0 &= ~0x80000 // Bit 19
  7: 0x001D [0x2F] Vestillet (ID: 17343154/0x0108A2B2)->Render.Flags0 &= ~0x80000 // Bit 19
  8: 0x0023 [0x2F] Ukai01 (ID: 17343160/0x0108A2B8)->Render.Flags0 &= ~0x80000 // Bit 19
  9: 0x0029 [0x2F] Ukai02 (ID: 17343161/0x0108A2B9)->Render.Flags0 &= ~0x80000 // Bit 19
 10: 0x002F [0x2F] Ukai03 (ID: 17343162/0x0108A2BA)->Render.Flags0 &= ~0x80000 // Bit 19
 11: 0x0035 [0x2F] Ukai04 (ID: 17343163/0x0108A2BB)->Render.Flags0 &= ~0x80000 // Bit 19
 12: 0x003B [0x2F] Ukai05 (ID: 17343164/0x0108A2BC)->Render.Flags0 &= ~0x80000 // Bit 19
 13: 0x0041 [0x2F] Bukadaemon1 (ID: 17343215/0x0108A2EF)->Render.Flags0 &= ~0x80000 // Bit 19
 14: 0x0047 [0x2F] Demon Suppressor (ID: 17343216/0x0108A2F0)->Render.Flags0 &= ~0x80000 // Bit 19
 15: 0x004D [0x2F] Demon Befouler (ID: 17343217/0x0108A2F1)->Render.Flags0 &= ~0x80000 // Bit 19
 16: 0x0053 [0x2F] Bukadaemon4 (ID: 17343218/0x0108A2F2)->Render.Flags0 &= ~0x80000 // Bit 19
 17: 0x0059 [0x2F] Bukadaemon5 (ID: 17343219/0x0108A2F3)->Render.Flags0 &= ~0x80000 // Bit 19
 18: 0x005F [0x2F] Bukadaemon6 (ID: 17343220/0x0108A2F4)->Render.Flags0 &= ~0x80000 // Bit 19
 19: 0x0065 [0x2F] Bartholomaus (ID: 17343158/0x0108A2B6)->Render.Flags0 &= ~0x80000 // Bit 19
 20: 0x006B [0x2F] Adelheid (ID: 17343159/0x0108A2B7)->Render.Flags0 &= ~0x80000 // Bit 19
 21: 0x0071 [0x4E] SET_ENTITY_HIDE_FLAG: Show Ragelise (ID: 17343152/0x0108A2B0)
 22: 0x0077 [0x4E] SET_ENTITY_HIDE_FLAG: Show Vestillet (ID: 17343154/0x0108A2B2)
 23: 0x007D [0x4E] SET_ENTITY_HIDE_FLAG: Show Ukai01 (ID: 17343160/0x0108A2B8)
 24: 0x0083 [0x4E] SET_ENTITY_HIDE_FLAG: Show Ukai02 (ID: 17343161/0x0108A2B9)
 25: 0x0089 [0x4E] SET_ENTITY_HIDE_FLAG: Show Ukai03 (ID: 17343162/0x0108A2BA)
 26: 0x008F [0x4E] SET_ENTITY_HIDE_FLAG: Show Ukai04 (ID: 17343163/0x0108A2BB)
 27: 0x0095 [0x4E] SET_ENTITY_HIDE_FLAG: Show Ukai05 (ID: 17343164/0x0108A2BC)
 28: 0x009B [0x4E] SET_ENTITY_HIDE_FLAG: Show Bukadaemon1 (ID: 17343215/0x0108A2EF)
 29: 0x00A1 [0x4E] SET_ENTITY_HIDE_FLAG: Show Demon Suppressor (ID: 17343216/0x0108A2F0)
 30: 0x00A7 [0x4E] SET_ENTITY_HIDE_FLAG: Show Demon Befouler (ID: 17343217/0x0108A2F1)
 31: 0x00AD [0x4E] SET_ENTITY_HIDE_FLAG: Show Bukadaemon4 (ID: 17343218/0x0108A2F2)
 32: 0x00B3 [0x4E] SET_ENTITY_HIDE_FLAG: Show Bukadaemon5 (ID: 17343219/0x0108A2F3)
 33: 0x00B9 [0x4E] SET_ENTITY_HIDE_FLAG: Show Bukadaemon6 (ID: 17343220/0x0108A2F4)
 34: 0x00BF [0x4E] SET_ENTITY_HIDE_FLAG: Show Bartholomaus (ID: 17343158/0x0108A2B6)
 35: 0x00C5 [0x4E] SET_ENTITY_HIDE_FLAG: Show Adelheid (ID: 17343159/0x0108A2B7)
 36: 0x00CB [0x92] Lilisette (ID: 17343151/0x0108A2AF)->Render.Flags3 ^= 0x01
 37: 0x00D1 [0x92] Ragelise (ID: 17343152/0x0108A2B0)->Render.Flags3 ^= 0x01
 38: 0x00D7 [0x92] Vestillet (ID: 17343154/0x0108A2B2)->Render.Flags3 ^= 0x01
 39: 0x00DD [0x92] Ukai01 (ID: 17343160/0x0108A2B8)->Render.Flags3 ^= 0x01
 40: 0x00E3 [0x92] Ukai02 (ID: 17343161/0x0108A2B9)->Render.Flags3 ^= 0x01
 41: 0x00E9 [0x92] Ukai03 (ID: 17343162/0x0108A2BA)->Render.Flags3 ^= 0x01
 42: 0x00EF [0x92] Ukai04 (ID: 17343163/0x0108A2BB)->Render.Flags3 ^= 0x01
 43: 0x00F5 [0x92] Ukai05 (ID: 17343164/0x0108A2BC)->Render.Flags3 ^= 0x01
 44: 0x00FB [0x92] Bukadaemon1 (ID: 17343215/0x0108A2EF)->Render.Flags3 ^= 0x01
 45: 0x0101 [0x92] Demon Suppressor (ID: 17343216/0x0108A2F0)->Render.Flags3 ^= 0x01
 46: 0x0107 [0x92] Demon Befouler (ID: 17343217/0x0108A2F1)->Render.Flags3 ^= 0x01
 47: 0x010D [0x92] Bukadaemon4 (ID: 17343218/0x0108A2F2)->Render.Flags3 ^= 0x01
 48: 0x0113 [0x92] Bukadaemon5 (ID: 17343219/0x0108A2F3)->Render.Flags3 ^= 0x01
 49: 0x0119 [0x92] Bukadaemon6 (ID: 17343220/0x0108A2F4)->Render.Flags3 ^= 0x01
 50: 0x011F [0x92] Bartholomaus (ID: 17343158/0x0108A2B6)->Render.Flags3 ^= 0x01
 51: 0x0125 [0x92] Adelheid (ID: 17343159/0x0108A2B7)->Render.Flags3 ^= 0x01
 52: 0x012B [0x94] LocalPlayer->Render.Flags3 ^= 0x01
 53: 0x0131 [0x94] Lilisette (ID: 17343151/0x0108A2AF)->Render.Flags3 ^= 0x01
 54: 0x0137 [0x94] Ragelise (ID: 17343152/0x0108A2B0)->Render.Flags3 ^= 0x01
 55: 0x013D [0x94] Vestillet (ID: 17343154/0x0108A2B2)->Render.Flags3 ^= 0x01
 56: 0x0143 [0x94] Ukai01 (ID: 17343160/0x0108A2B8)->Render.Flags3 ^= 0x01
 57: 0x0149 [0x94] Ukai02 (ID: 17343161/0x0108A2B9)->Render.Flags3 ^= 0x01
 58: 0x014F [0x94] Ukai03 (ID: 17343162/0x0108A2BA)->Render.Flags3 ^= 0x01
 59: 0x0155 [0x94] Ukai04 (ID: 17343163/0x0108A2BB)->Render.Flags3 ^= 0x01
 60: 0x015B [0x94] Ukai05 (ID: 17343164/0x0108A2BC)->Render.Flags3 ^= 0x01
 61: 0x0161 [0x94] Bukadaemon1 (ID: 17343215/0x0108A2EF)->Render.Flags3 ^= 0x01
 62: 0x0167 [0x94] Demon Suppressor (ID: 17343216/0x0108A2F0)->Render.Flags3 ^= 0x01
 63: 0x016D [0x94] Demon Befouler (ID: 17343217/0x0108A2F1)->Render.Flags3 ^= 0x01
 64: 0x0173 [0x94] Bukadaemon4 (ID: 17343218/0x0108A2F2)->Render.Flags3 ^= 0x01
 65: 0x0179 [0x94] Bukadaemon5 (ID: 17343219/0x0108A2F3)->Render.Flags3 ^= 0x01
 66: 0x017F [0x94] Bukadaemon6 (ID: 17343220/0x0108A2F4)->Render.Flags3 ^= 0x01
 67: 0x0185 [0x94] Bartholomaus (ID: 17343158/0x0108A2B6)->Render.Flags3 ^= 0x01
 68: 0x018B [0x94] Adelheid (ID: 17343159/0x0108A2B7)->Render.Flags3 ^= 0x01
 69: 0x0191 [0x59] UPDATE_ENTITY_DATA: Bukadaemon1 (ID: 17343215/0x0108A2EF)->Render.Flags0 |= 0x200000
 70: 0x0198 [0x59] UPDATE_ENTITY_DATA: Bartholomaus (ID: 17343158/0x0108A2B6)->Render.Flags0 |= 0x200000
 71: 0x019F [0x59] UPDATE_ENTITY_DATA: Adelheid (ID: 17343159/0x0108A2B7)->Render.Flags0 |= 0x200000
 72: 0x01A6 [0xBA] SET_ENTITY_POSITION(entity_id=LocalPlayer, pos_x=-377.842*, pos_z=-16.813*, pos_y=-4.536*, direction=257.9*)
 73: 0x01B3 [0xBA] SET_ENTITY_POSITION(entity_id=Lilisette (ID: 17343151/0x0108A2AF), pos_x=-375.318*, pos_z=-16.724*, pos_y=-5.553*, direction=238.4*)
 74: 0x01C0 [0xBA] SET_ENTITY_POSITION(entity_id=Ragelise (ID: 17343152/0x0108A2B0), pos_x=-377.119*, pos_z=-13.149*, pos_y=-5.567*, direction=220.0*)
 75: 0x01CD [0xBA] SET_ENTITY_POSITION(entity_id=Vestillet (ID: 17343154/0x0108A2B2), pos_x=-373.366*, pos_z=-31.955*, pos_y=-5.524*, direction=257.9*)
 76: 0x01DA [0xBA] SET_ENTITY_POSITION(entity_id=Ukai01 (ID: 17343160/0x0108A2B8), pos_x=-372.469*, pos_z=-34.476*, pos_y=-5.846*, direction=257.9*)
 77: 0x01E7 [0xBA] SET_ENTITY_POSITION(entity_id=Ukai02 (ID: 17343161/0x0108A2B9), pos_x=-374.292*, pos_z=-37.856*, pos_y=-5.758*, direction=257.8*)
 78: 0x01F4 [0xBA] SET_ENTITY_POSITION(entity_id=Ukai03 (ID: 17343162/0x0108A2BA), pos_x=-370.773*, pos_z=-33.396*, pos_y=-5.871*, direction=257.9*)
 79: 0x0201 [0xBA] SET_ENTITY_POSITION(entity_id=Ukai04 (ID: 17343163/0x0108A2BB), pos_x=-372.389*, pos_z=-40.770*, pos_y=-5.929*, direction=257.9*)
 80: 0x020E [0xBA] SET_ENTITY_POSITION(entity_id=Ukai05 (ID: 17343164/0x0108A2BC), pos_x=-374.941*, pos_z=-38.598*, pos_y=-5.714*, direction=257.9*)
 81: 0x021B [0xBA] SET_ENTITY_POSITION(entity_id=Bukadaemon1 (ID: 17343215/0x0108A2EF), pos_x=-378.710*, pos_z=-12.771*, pos_y=-8.612*, direction=257.8*)
 82: 0x0228 [0xBA] SET_ENTITY_POSITION(entity_id=Bartholomaus (ID: 17343158/0x0108A2B6), pos_x=-142.845*, pos_z=36.610*, pos_y=-35.548*, direction=175.5*)
 83: 0x0235 [0xBA] SET_ENTITY_POSITION(entity_id=Adelheid (ID: 17343159/0x0108A2B7), pos_x=-135.299*, pos_z=38.519*, pos_y=-36.499*, direction=178.1*)
 84: 0x0242 [0x80] LOAD_WAIT(entity=LocalPlayer)
 85: 0x0247 [0x80] LOAD_WAIT(entity=Lilisette (ID: 17343151/0x0108A2AF))
 86: 0x024C [0x80] LOAD_WAIT(entity=Ragelise (ID: 17343152/0x0108A2B0))
 87: 0x0251 [0x80] LOAD_WAIT(entity=Vestillet (ID: 17343154/0x0108A2B2))
 88: 0x0256 [0x80] LOAD_WAIT(entity=Bartholomaus (ID: 17343158/0x0108A2B6))
 89: 0x025B [0x80] LOAD_WAIT(entity=Adelheid (ID: 17343159/0x0108A2B7))
 90: 0x0260 [0x34] LOAD_UNLOAD_ZONE(zone_id=137*)
 91: 0x0263 [0x77] SET_EVENT_TIME_WEATHER(hour=255*, weather=12*)
 92: 0x0268 [0x1C] WAIT(30* ticks)
 93: 0x026B [0xAB] EventEntity->UnknownFlag = 1 // Enable unknown flag
 94: 0x026D [0x1C] WAIT(30* ticks)
 95: 0x0270 [0x27] REQ_SET(priority=0x10, entity_id=Bukadaemon1 (ID: 17343215/0x0108A2EF), tag_num=0x0B)
 96: 0x0277 [0x27] REQ_SET(priority=0x10, entity_id=Vestillet (ID: 17343154/0x0108A2B2), tag_num=0x05)
 97: 0x027E [0x27] REQ_SET(priority=0x10, entity_id=Ukai01 (ID: 17343160/0x0108A2B8), tag_num=0x06)
 98: 0x0285 [0x27] REQ_SET(priority=0x10, entity_id=Ukai02 (ID: 17343161/0x0108A2B9), tag_num=0x05)
 99: 0x028C [0x27] REQ_SET(priority=0x10, entity_id=Ukai03 (ID: 17343162/0x0108A2BA), tag_num=0x05)
100: 0x0293 [0x27] REQ_SET(priority=0x10, entity_id=Ukai04 (ID: 17343163/0x0108A2BB), tag_num=0x05)
101: 0x029A [0x27] REQ_SET(priority=0x10, entity_id=Ukai05 (ID: 17343164/0x0108A2BC), tag_num=0x03)
102: 0x02A1 [0x79] Lilisette (ID: 17343151/0x0108A2AF) looks at Bukadaemon1 (ID: 17343215/0x0108A2EF) (Basic look)
103: 0x02AB [0x79] Ragelise (ID: 17343152/0x0108A2B0) looks at Bukadaemon1 (ID: 17343215/0x0108A2EF) (Basic look)
104: 0x02B5 [0x79] Adelheid (ID: 17343159/0x0108A2B7) looks at Bartholomaus (ID: 17343158/0x0108A2B6) (Basic look)
105: 0x02BF [0x79] LocalPlayer looks at Unknown NPC (ID: 2150662191/0x8030802F) (Direct axis set)
106: 0x02C9 [0x66] LOAD_EXT_SCHEDULER_MAIN: Load scheduler "ls00" with entities [Bartholomaus (ID: 17343158/0x0108A2B6), Bartholomaus (ID: 17343158/0x0108A2B6)], work=78*
107: 0x02D8 [0x5B] LOAD_EXT_SCHEDULER: Load scheduler "fh01" with entities [Lilisette (ID: 17343151/0x0108A2AF), Lilisette (ID: 17343151/0x0108A2AF)], work=2135*
108: 0x02E7 [0x5D] SET_MUSIC_VOLUME(volume=0*, fade_time=120*)
109: 0x02EC [0x5C] MUSIC_CONTROL: Set Idle (Day) music to song 42*
110: 0x02F0 [0x5C] MUSIC_CONTROL: Set Idle (Night) music to song 42*
111: 0x02F4 [0x5C] MUSIC_CONTROL: Set Combat (Solo) music to song 42*
112: 0x02F8 [0x5C] MUSIC_CONTROL: Set Combat (Party) music to song 42*
113: 0x02FC [0x9A] WAIT_MUSIC_SERVER()
114: 0x02FD [0x45] LOAD_SCHEDULED_TASK: Load scheduler "0300" with entities [LocalPlayer, LocalPlayer], work=[507*, 0*]
115: 0x030E [0x1A] CALL_SUBROUTINE(address=0x3F3F)
116: 0x0311 [0x1C] WAIT(180* ticks)
117: 0x0314 [0x52] END_LOAD_SCHEDULER: End scheduler "0300" with entities [LocalPlayer, LocalPlayer], work=507*
118: 0x0323 [0x45] LOAD_SCHEDULED_TASK: Load scheduler "0301" with entities [LocalPlayer, LocalPlayer], work=[507*, 0*]
119: 0x0334 [0x1C] WAIT(300* ticks)
120: 0x0337 [0x52] END_LOAD_SCHEDULER: End scheduler "0301" with entities [LocalPlayer, LocalPlayer], work=507*
121: 0x0346 [0x45] LOAD_SCHEDULED_TASK: Load scheduler "0302" with entities [LocalPlayer, LocalPlayer], work=[507*, 0*]
122: 0x0357 [0x1C] WAIT(240* ticks)
123: 0x035A [0x52] END_LOAD_SCHEDULER: End scheduler "0302" with entities [LocalPlayer, LocalPlayer], work=507*
124: 0x0369 [0x45] LOAD_SCHEDULED_TASK: Load scheduler "0303" with entities [LocalPlayer, LocalPlayer], work=[507*, 0*]
125: 0x037A [0x2B] Lilisette (ID: 17343151/0x0108A2AF) [7609*]:
     "So we finally come face to face with the infamous Castle Zvahl... Just staring at it from here is enough to set my hairs on end."
126: 0x0381 [0x1C] WAIT(120* ticks)
127: 0x0384 [0x52] END_LOAD_SCHEDULER: End scheduler "0303" with entities [LocalPlayer, LocalPlayer], work=507*
128: 0x0393 [0x45] LOAD_SCHEDULED_TASK: Load scheduler "030a" with entities [LocalPlayer, LocalPlayer], work=[507*, 0*]
129: 0x03A4 [0x1C] WAIT(120* ticks)
130: 0x03A7 [0x23] WAIT_FOR_DIALOG_INTERACTION
131: 0x03A8 [0x52] END_LOAD_SCHEDULER: End scheduler "030a" with entities [LocalPlayer, LocalPlayer], work=507*
132: 0x03B7 [0x45] LOAD_SCHEDULED_TASK: Load scheduler "0309" with entities [LocalPlayer, LocalPlayer], work=[507*, 0*]
133: 0x03C8 [0x1C] WAIT(30* ticks)
134: 0x03CB [0x7B] Ragelise (ID: 17343152/0x0108A2B0) stops talking
135: 0x03D0 [0x1C] WAIT(60* ticks)
136: 0x03D3 [0x7B] Lilisette (ID: 17343151/0x0108A2AF) stops talking
137: 0x03D8 [0x1C] WAIT(30* ticks)
138: 0x03DB [0x7B] LocalPlayer stops talking
139: 0x03E0 [0x52] END_LOAD_SCHEDULER: End scheduler "0309" with entities [LocalPlayer, LocalPlayer], work=507*
140: 0x03EF [0x45] LOAD_SCHEDULED_TASK: Load scheduler "030b" with entities [LocalPlayer, LocalPlayer], work=[507*, 0*]
141: 0x0400 [0x1C] WAIT(30* ticks)
142: 0x0403 [0x27] REQ_SET(priority=0x10, entity_id=Vestillet (ID: 17343154/0x0108A2B2), tag_num=0x06)
143: 0x040A [0x27] REQ_SET(priority=0x10, entity_id=Ukai01 (ID: 17343160/0x0108A2B8), tag_num=0x07)
144: 0x0411 [0x27] REQ_SET(priority=0x10, entity_id=Ukai02 (ID: 17343161/0x0108A2B9), tag_num=0x06)
145: 0x0418 [0x27] REQ_SET(priority=0x10, entity_id=Ukai03 (ID: 17343162/0x0108A2BA), tag_num=0x06)
146: 0x041F [0x27] REQ_SET(priority=0x10, entity_id=Ukai04 (ID: 17343163/0x0108A2BB), tag_num=0x06)
147: 0x0426 [0x27] REQ_SET(priority=0x10, entity_id=Ukai05 (ID: 17343164/0x0108A2BC), tag_num=0x04)
148: 0x042D [0x5B] LOAD_EXT_SCHEDULER: Load scheduler "lp00" with entities [Ragelise (ID: 17343152/0x0108A2B0), Ragelise (ID: 17343152/0x0108A2B0)], work=2915*
149: 0x043C [0x1C] WAIT(60* ticks)
150: 0x043F [0x2B] Ragelise (ID: 17343152/0x0108A2B0) [7610*]:
     "This is the strike force. Do you copy?"
151: 0x0446 [0x23] WAIT_FOR_DIALOG_INTERACTION
152: 0x0447 [0x52] END_LOAD_SCHEDULER: End scheduler "030b" with entities [LocalPlayer, LocalPlayer], work=507*
153: 0x0456 [0x45] LOAD_SCHEDULED_TASK: Load scheduler "030c" with entities [LocalPlayer, LocalPlayer], work=[507*, 0*]
154: 0x0467 [0x2B] Bartholomaus (ID: 17343158/0x0108A2B6) [7611*]:
     "Why, Sir Ragelise! I had been under the impression you were partaking in the diversion."
155: 0x046E [0x23] WAIT_FOR_DIALOG_INTERACTION
156: 0x046F [0x52] END_LOAD_SCHEDULER: End scheduler "030c" with entities [LocalPlayer, LocalPlayer], work=507*
157: 0x047E [0x45] LOAD_SCHEDULED_TASK: Load scheduler "030d" with entities [LocalPlayer, LocalPlayer], work=[507*, 0*]
158: 0x048F [0x27] REQ_SET(priority=0x10, entity_id=Vestillet (ID: 17343154/0x0108A2B2), tag_num=0x08)
159: 0x0496 [0x27] REQ_SET(priority=0x10, entity_id=Ukai01 (ID: 17343160/0x0108A2B8), tag_num=0x02)
160: 0x049D [0x27] REQ_SET(priority=0x10, entity_id=Ukai02 (ID: 17343161/0x0108A2B9), tag_num=0x02)
161: 0x04A4 [0x27] REQ_SET(priority=0x10, entity_id=Ukai03 (ID: 17343162/0x0108A2BA), tag_num=0x02)
162: 0x04AB [0x27] REQ_SET(priority=0x10, entity_id=Ukai04 (ID: 17343163/0x0108A2BB), tag_num=0x02)
163: 0x04B2 [0x27] REQ_SET(priority=0x10, entity_id=Ukai05 (ID: 17343164/0x0108A2BC), tag_num=0x02)
164: 0x04B9 [0x2B] Ragelise (ID: 17343152/0x0108A2B0) [7612*]:
     "There have been...minor changes. The strike force stands at the ready, awaiting the detonation."
165: 0x04C0 [0x1C] WAIT(150* ticks)
166: 0x04C3 [0x52] END_LOAD_SCHEDULER: End scheduler "030d" with entities [LocalPlayer, LocalPlayer], work=507*
167: 0x04D2 [0x45] LOAD_SCHEDULED_TASK: Load scheduler "030e" with entities [LocalPlayer, LocalPlayer], work=[507*, 0*]
168: 0x04E3 [0x1C] WAIT(150* ticks)
169: 0x04E6 [0x23] WAIT_FOR_DIALOG_INTERACTION
170: 0x04E7 [0x52] END_LOAD_SCHEDULER: End scheduler "030e" with entities [LocalPlayer, LocalPlayer], work=507*
171: 0x04F6 [0x45] LOAD_SCHEDULED_TASK: Load scheduler "030f" with entities [LocalPlayer, LocalPlayer], work=[507*, 0*]
172: 0x0507 [0x2B] Ragelise (ID: 17343152/0x0108A2B0) [7613*]:
     "Make it so."
173: 0x050E [0x23] WAIT_FOR_DIALOG_INTERACTION
174: 0x050F [0x52] END_LOAD_SCHEDULER: End scheduler "030f" with entities [LocalPlayer, LocalPlayer], work=507*
175: 0x051E [0x45] LOAD_SCHEDULED_TASK: Load scheduler "0304" with entities [LocalPlayer, LocalPlayer], work=[507*, 0*]
176: 0x052F [0x66] LOAD_EXT_SCHEDULER_MAIN: Load scheduler "ls02" with entities [Bartholomaus (ID: 17343158/0x0108A2B6), Bartholomaus (ID: 17343158/0x0108A2B6)], work=78*
177: 0x053E [0x2B] Bartholomaus (ID: 17343158/0x0108A2B6) [7614*]:
     "Understood."
178: 0x0545 [0x1C] WAIT(90* ticks)
179: 0x0548 [0x23] WAIT_FOR_DIALOG_INTERACTION
180: 0x0549 [0x66] LOAD_EXT_SCHEDULER_MAIN: Load scheduler "ls01" with entities [Bartholomaus (ID: 17343158/0x0108A2B6), Bartholomaus (ID: 17343158/0x0108A2B6)], work=78*
181: 0x0558 [0x1C] WAIT(90* ticks)
182: 0x055B [0x52] END_LOAD_SCHEDULER: End scheduler "0304" with entities [LocalPlayer, LocalPlayer], work=507*
183: 0x056A [0x45] LOAD_SCHEDULED_TASK: Load scheduler "0305" with entities [LocalPlayer, LocalPlayer], work=[507*, 0*]
184: 0x057B [0x4A] Bartholomaus (ID: 17343158/0x0108A2B6) looks at Adelheid (ID: 17343159/0x0108A2B7)
185: 0x0584 [0x2B] Bartholomaus (ID: 17343158/0x0108A2B6) [7615*]:
     "We have the order! Do it!"
186: 0x058B [0x1C] WAIT(150* ticks)
187: 0x058E [0x52] END_LOAD_SCHEDULER: End scheduler "0305" with entities [LocalPlayer, LocalPlayer], work=507*
188: 0x059D [0x45] LOAD_SCHEDULED_TASK: Load scheduler "0306" with entities [LocalPlayer, LocalPlayer], work=[507*, 0*]
189: 0x05AE [0x23] WAIT_FOR_DIALOG_INTERACTION
190: 0x05AF [0x6E] Adelheid (ID: 17343159/0x0108A2B7) uses emote 12*
191: 0x05B6 [0x99] Wait for Adelheid (ID: 17343159/0x0108A2B7) animation to complete
192: 0x05BB [0x2B] Adelheid (ID: 17343159/0x0108A2B7) [7616*]:
     "Right away, sir! You may want to cover your ears!"
193: 0x05C2 [0x1C] WAIT(60* ticks)
194: 0x05C5 [0x52] END_LOAD_SCHEDULER: End scheduler "0306" with entities [LocalPlayer, LocalPlayer], work=507*
195: 0x05D4 [0x45] LOAD_SCHEDULED_TASK: Load scheduler "0307" with entities [LocalPlayer, LocalPlayer], work=[507*, 0*]
196: 0x05E5 [0x1C] WAIT(120* ticks)
197: 0x05E8 [0x23] WAIT_FOR_DIALOG_INTERACTION
198: 0x05E9 [0x59] UPDATE_ENTITY_DATA: Ukai01 (ID: 17343160/0x0108A2B8)->Render.Flags0 |= 0x200000
199: 0x05F0 [0x59] UPDATE_ENTITY_DATA: Ukai02 (ID: 17343161/0x0108A2B9)->Render.Flags0 |= 0x200000
200: 0x05F7 [0x59] UPDATE_ENTITY_DATA: Ukai03 (ID: 17343162/0x0108A2BA)->Render.Flags0 |= 0x200000
201: 0x05FE [0x59] UPDATE_ENTITY_DATA: Ukai04 (ID: 17343163/0x0108A2BB)->Render.Flags0 |= 0x200000
202: 0x0605 [0x59] UPDATE_ENTITY_DATA: Ukai05 (ID: 17343164/0x0108A2BC)->Render.Flags0 |= 0x200000
203: 0x060C [0x59] UPDATE_ENTITY_DATA: Demon Suppressor (ID: 17343216/0x0108A2F0)->Render.Flags0 |= 0x200000
204: 0x0613 [0x59] UPDATE_ENTITY_DATA: Demon Befouler (ID: 17343217/0x0108A2F1)->Render.Flags0 |= 0x200000
205: 0x061A [0x59] UPDATE_ENTITY_DATA: Bukadaemon4 (ID: 17343218/0x0108A2F2)->Render.Flags0 |= 0x200000
206: 0x0621 [0x59] UPDATE_ENTITY_DATA: Bukadaemon5 (ID: 17343219/0x0108A2F3)->Render.Flags0 |= 0x200000
207: 0x0628 [0x59] UPDATE_ENTITY_DATA: Bukadaemon6 (ID: 17343220/0x0108A2F4)->Render.Flags0 |= 0x200000
208: 0x062F [0xBA] SET_ENTITY_POSITION(entity_id=Ukai01 (ID: 17343160/0x0108A2B8), pos_x=-306.051*, pos_z=1.267*, pos_y=-20.500*, direction=257.8*)
209: 0x063C [0xBA] SET_ENTITY_POSITION(entity_id=Ukai02 (ID: 17343161/0x0108A2B9), pos_x=-303.580*, pos_z=17.116*, pos_y=-20.500*, direction=257.9*)
210: 0x0649 [0xBA] SET_ENTITY_POSITION(entity_id=Ukai03 (ID: 17343162/0x0108A2BA), pos_x=-307.263*, pos_z=37.202*, pos_y=-20.500*, direction=257.9*)
211: 0x0656 [0xBA] SET_ENTITY_POSITION(entity_id=Ukai04 (ID: 17343163/0x0108A2BB), pos_x=-333.177*, pos_z=58.922*, pos_y=-23.700*, direction=257.9*)
212: 0x0663 [0xBA] SET_ENTITY_POSITION(entity_id=Ukai05 (ID: 17343164/0x0108A2BC), pos_x=-335.059*, pos_z=75.635*, pos_y=-23.700*, direction=257.9*)
213: 0x0670 [0xBA] SET_ENTITY_POSITION(entity_id=Bukadaemon1 (ID: 17343215/0x0108A2EF), pos_x=-335.248*, pos_z=92.209*, pos_y=-23.700*, direction=257.9*)
214: 0x067D [0xBA] SET_ENTITY_POSITION(entity_id=Demon Suppressor (ID: 17343216/0x0108A2F0), pos_x=-305.584*, pos_z=9.438*, pos_y=-20.500*, direction=257.8*)
215: 0x068A [0xBA] SET_ENTITY_POSITION(entity_id=Demon Befouler (ID: 17343217/0x0108A2F1), pos_x=-307.193*, pos_z=27.214*, pos_y=-20.500*, direction=257.8*)
216: 0x0697 [0xBA] SET_ENTITY_POSITION(entity_id=Bukadaemon4 (ID: 17343218/0x0108A2F2), pos_x=-334.444*, pos_z=38.749*, pos_y=-23.700*, direction=257.8*)
217: 0x06A4 [0xBA] SET_ENTITY_POSITION(entity_id=Bukadaemon5 (ID: 17343219/0x0108A2F3), pos_x=-333.701*, pos_z=48.432*, pos_y=-23.700*, direction=257.8*)
218: 0x06B1 [0xBA] SET_ENTITY_POSITION(entity_id=Bukadaemon6 (ID: 17343220/0x0108A2F4), pos_x=-336.344*, pos_z=67.140*, pos_y=-23.700*, direction=257.9*)
219: 0x06BE [0x52] END_LOAD_SCHEDULER: End scheduler "0307" with entities [LocalPlayer, LocalPlayer], work=507*
220: 0x06CD [0x45] LOAD_SCHEDULED_TASK: Load scheduler "0313" with entities [LocalPlayer, LocalPlayer], work=[507*, 0*]
221: 0x06DE [0x4B] UPDATE_ENTITY_YAW(entity=Adelheid (ID: 17343159/0x0108A2B7), yaw=14.8*)
222: 0x06E5 [0x7B] Adelheid (ID: 17343159/0x0108A2B7) stops talking
223: 0x06EA [0x2B] Adelheid (ID: 17343159/0x0108A2B7) [7617*]:
     "Xarcabard is about to undergo some major landscaping!"
224: 0x06F1 [0x1C] WAIT(90* ticks)
225: 0x06F4 [0x5B] LOAD_EXT_SCHEDULER: Load scheduler "swt0" with entities [Adelheid (ID: 17343159/0x0108A2B7), Adelheid (ID: 17343159/0x0108A2B7)], work=2805*
226: 0x0703 [0xCD] LOAD_SCHEDULED_TASK_ALT4: Load scheduler "st01" with entities [Adelheid (ID: 17343159/0x0108A2B7), Adelheid (ID: 17343159/0x0108A2B7)], work=[11*, 0*]
227: 0x0714 [0x1C] WAIT(240* ticks)
228: 0x0717 [0x23] WAIT_FOR_DIALOG_INTERACTION
229: 0x0718 [0x5B] LOAD_EXT_SCHEDULER: Load scheduler "swt1" with entities [Adelheid (ID: 17343159/0x0108A2B7), Adelheid (ID: 17343159/0x0108A2B7)], work=2805*
230: 0x0727 [0xCD] LOAD_SCHEDULED_TASK_ALT4: Load scheduler "st02" with entities [Adelheid (ID: 17343159/0x0108A2B7), Adelheid (ID: 17343159/0x0108A2B7)], work=[11*, 0*]
231: 0x0738 [0x52] END_LOAD_SCHEDULER: End scheduler "0313" with entities [LocalPlayer, LocalPlayer], work=507*
232: 0x0747 [0x45] LOAD_SCHEDULED_TASK: Load scheduler "0314" with entities [LocalPlayer, LocalPlayer], work=[507*, 0*]
233: 0x0758 [0x1C] WAIT(220* ticks)
234: 0x075B [0x2B] Adelheid (ID: 17343159/0x0108A2B7) [7618*]:
     "Hiyah!"
235: 0x0762 [0x52] END_LOAD_SCHEDULER: End scheduler "0314" with entities [LocalPlayer, LocalPlayer], work=507*
236: 0x0771 [0x45] LOAD_SCHEDULED_TASK: Load scheduler "0315" with entities [LocalPlayer, LocalPlayer], work=[507*, 0*]
237: 0x0782 [0x5D] SET_MUSIC_VOLUME(volume=0*, fade_time=120*)
238: 0x0787 [0x1C] WAIT(80* ticks)
239: 0x078A [0x52] END_LOAD_SCHEDULER: End scheduler "0315" with entities [LocalPlayer, LocalPlayer], work=507*
240: 0x0799 [0x45] LOAD_SCHEDULED_TASK: Load scheduler "031e" with entities [LocalPlayer, LocalPlayer], work=[507*, 0*]
241: 0x07AA [0x1C] WAIT(180* ticks)
242: 0x07AD [0x9F] LOAD_SCHEDULED_TASK_ALT: Load scheduler "str0" with entities [EventEntity, EventEntity], work=[127*, 0*]
243: 0x07BE [0xC5] LOAD_SCHEDULED_TASK_ALT3: Load scheduler 0x80333030 for entities [Ukai01 (ID: 17343160/0x0108A2B8), Ukai01 (ID: 17343160/0x0108A2B8)], work=157*, param=12403
244: 0x07CF [0xC5] LOAD_SCHEDULED_TASK_ALT3: Load scheduler 0x80333030 for entities [Ukai02 (ID: 17343161/0x0108A2B9), Ukai02 (ID: 17343161/0x0108A2B9)], work=157*, param=12403
245: 0x07E0 [0xC5] LOAD_SCHEDULED_TASK_ALT3: Load scheduler 0x80333030 for entities [Ukai03 (ID: 17343162/0x0108A2BA), Ukai03 (ID: 17343162/0x0108A2BA)], work=157*, param=12403
246: 0x07F1 [0xC5] LOAD_SCHEDULED_TASK_ALT3: Load scheduler 0x80333030 for entities [Ukai04 (ID: 17343163/0x0108A2BB), Ukai04 (ID: 17343163/0x0108A2BB)], work=157*, param=12403
247: 0x0802 [0xC5] LOAD_SCHEDULED_TASK_ALT3: Load scheduler 0x80333030 for entities [Ukai05 (ID: 17343164/0x0108A2BC), Ukai05 (ID: 17343164/0x0108A2BC)], work=157*, param=12403
248: 0x0813 [0xC5] LOAD_SCHEDULED_TASK_ALT3: Load scheduler 0x80333030 for entities [Bukadaemon1 (ID: 17343215/0x0108A2EF), Bukadaemon1 (ID: 17343215/0x0108A2EF)], work=157*, param=12403
249: 0x0824 [0xC5] LOAD_SCHEDULED_TASK_ALT3: Load scheduler 0x80333030 for entities [Bukadaemon4 (ID: 17343218/0x0108A2F2), Bukadaemon4 (ID: 17343218/0x0108A2F2)], work=157*, param=12403
250: 0x0835 [0x1C] WAIT(180* ticks)
251: 0x0838 [0x1A] CALL_SUBROUTINE(address=0x3FA2)
252: 0x083B [0x9F] LOAD_SCHEDULED_TASK_ALT: Load scheduler "kill" with entities [EventEntity, EventEntity], work=[127*, 0*]
253: 0x084C [0x59] UPDATE_ENTITY_DATA: Bartholomaus (ID: 17343158/0x0108A2B6)->Render.Flags0 &= ~0x200000
254: 0x0853 [0x59] UPDATE_ENTITY_DATA: Adelheid (ID: 17343159/0x0108A2B7)->Render.Flags0 &= ~0x200000
255: 0x085A [0x59] UPDATE_ENTITY_DATA: Bukadaemon1 (ID: 17343215/0x0108A2EF)->Render.Flags0 &= ~0x200000
256: 0x0861 [0x59] UPDATE_ENTITY_DATA: Demon Suppressor (ID: 17343216/0x0108A2F0)->Render.Flags0 &= ~0x200000
257: 0x0868 [0x59] UPDATE_ENTITY_DATA: Demon Befouler (ID: 17343217/0x0108A2F1)->Render.Flags0 &= ~0x200000
258: 0x086F [0x59] UPDATE_ENTITY_DATA: Bukadaemon4 (ID: 17343218/0x0108A2F2)->Render.Flags0 &= ~0x200000
259: 0x0876 [0x59] UPDATE_ENTITY_DATA: Bukadaemon5 (ID: 17343219/0x0108A2F3)->Render.Flags0 &= ~0x200000
260: 0x087D [0x59] UPDATE_ENTITY_DATA: Bukadaemon6 (ID: 17343220/0x0108A2F4)->Render.Flags0 &= ~0x200000
261: 0x0884 [0x59] UPDATE_ENTITY_DATA: Ukai01 (ID: 17343160/0x0108A2B8)->Render.Flags0 &= ~0x200000
262: 0x088B [0x59] UPDATE_ENTITY_DATA: Ukai02 (ID: 17343161/0x0108A2B9)->Render.Flags0 &= ~0x200000
263: 0x0892 [0x59] UPDATE_ENTITY_DATA: Ukai03 (ID: 17343162/0x0108A2BA)->Render.Flags0 &= ~0x200000
264: 0x0899 [0x59] UPDATE_ENTITY_DATA: Ukai04 (ID: 17343163/0x0108A2BB)->Render.Flags0 &= ~0x200000
265: 0x08A0 [0x59] UPDATE_ENTITY_DATA: Ukai05 (ID: 17343164/0x0108A2BC)->Render.Flags0 &= ~0x200000
266: 0x08A7 [0x27] REQ_SET(priority=0x10, entity_id=Bukadaemon1 (ID: 17343215/0x0108A2EF), tag_num=0x0C)
267: 0x08AE [0x4E] SET_ENTITY_HIDE_FLAG: Hide Bartholomaus (ID: 17343158/0x0108A2B6)
268: 0x08B4 [0x4E] SET_ENTITY_HIDE_FLAG: Hide Adelheid (ID: 17343159/0x0108A2B7)
269: 0x08BA [0x5C] MUSIC_CONTROL: Set Idle (Day) music to song 249*
270: 0x08BE [0x5C] MUSIC_CONTROL: Set Idle (Night) music to song 249*
271: 0x08C2 [0x5C] MUSIC_CONTROL: Set Combat (Solo) music to song 249*
272: 0x08C6 [0x5C] MUSIC_CONTROL: Set Combat (Party) music to song 249*
273: 0x08CA [0x9A] WAIT_MUSIC_SERVER()
274: 0x08CB [0x1C] WAIT(30* ticks)
275: 0x08CE [0x34] LOAD_UNLOAD_ZONE(zone_id=129*)
276: 0x08D1 [0x77] SET_EVENT_TIME_WEATHER(hour=255*, weather=1*)
277: 0x08D6 [0x1C] WAIT(15* ticks)
278: 0x08D9 [0xAB] EventEntity->UnknownFlag = 1 // Enable unknown flag
279: 0x08DB [0x1C] WAIT(30* ticks)
280: 0x08DE [0x4E] SET_ENTITY_HIDE_FLAG: Show thubu01 (ID: 17343231/0x0108A2FF)
281: 0x08E4 [0x4E] SET_ENTITY_HIDE_FLAG: Show thubu02 (ID: 17343232/0x0108A300)
282: 0x08EA [0x4E] SET_ENTITY_HIDE_FLAG: Show baku01 (ID: 17343233/0x0108A301)
283: 0x08F0 [0x4E] SET_ENTITY_HIDE_FLAG: Show baku02 (ID: 17343234/0x0108A302)
284: 0x08F6 [0x4E] SET_ENTITY_HIDE_FLAG: Show baku03 (ID: 17343235/0x0108A303)
285: 0x08FC [0x4E] SET_ENTITY_HIDE_FLAG: Show baku05 (ID: 17343237/0x0108A305)
286: 0x0902 [0x4E] SET_ENTITY_HIDE_FLAG: Show baku06 (ID: 17343238/0x0108A306)
287: 0x0908 [0x92] thubu01 (ID: 17343231/0x0108A2FF)->Render.Flags3 ^= 0x01
288: 0x090E [0x92] thubu02 (ID: 17343232/0x0108A300)->Render.Flags3 ^= 0x01
289: 0x0914 [0x92] baku01 (ID: 17343233/0x0108A301)->Render.Flags3 ^= 0x01
290: 0x091A [0x92] baku02 (ID: 17343234/0x0108A302)->Render.Flags3 ^= 0x01
291: 0x0920 [0x92] baku03 (ID: 17343235/0x0108A303)->Render.Flags3 ^= 0x01
292: 0x0926 [0x92] baku05 (ID: 17343237/0x0108A305)->Render.Flags3 ^= 0x01
293: 0x092C [0x92] baku06 (ID: 17343238/0x0108A306)->Render.Flags3 ^= 0x01
294: 0x0932 [0x94] thubu01 (ID: 17343231/0x0108A2FF)->Render.Flags3 ^= 0x01
295: 0x0938 [0x94] thubu02 (ID: 17343232/0x0108A300)->Render.Flags3 ^= 0x01
296: 0x093E [0x94] baku01 (ID: 17343233/0x0108A301)->Render.Flags3 ^= 0x01
297: 0x0944 [0x94] baku02 (ID: 17343234/0x0108A302)->Render.Flags3 ^= 0x01
298: 0x094A [0x94] baku03 (ID: 17343235/0x0108A303)->Render.Flags3 ^= 0x01
299: 0x0950 [0x94] baku05 (ID: 17343237/0x0108A305)->Render.Flags3 ^= 0x01
300: 0x0956 [0x94] baku06 (ID: 17343238/0x0108A306)->Render.Flags3 ^= 0x01
301: 0x095C [0xBA] SET_ENTITY_POSITION(entity_id=thubu01 (ID: 17343231/0x0108A2FF), pos_x=-16.541*, pos_z=-25.941*, pos_y=-9.832*, direction=0.0*)
302: 0x0969 [0xBA] SET_ENTITY_POSITION(entity_id=thubu02 (ID: 17343232/0x0108A300), pos_x=-23.069*, pos_z=-16.938*, pos_y=-10.102*, direction=0.0*)
303: 0x0976 [0xBA] SET_ENTITY_POSITION(entity_id=baku01 (ID: 17343233/0x0108A301), pos_x=-16.541*, pos_z=-25.941*, pos_y=-9.832*, direction=0.0*)
304: 0x0983 [0xBA] SET_ENTITY_POSITION(entity_id=baku02 (ID: 17343234/0x0108A302), pos_x=-13.069*, pos_z=-16.938*, pos_y=-10.102*, direction=0.0*)
305: 0x0990 [0xBA] SET_ENTITY_POSITION(entity_id=Bukadaemon1 (ID: 17343215/0x0108A2EF), pos_x=4.202*, pos_z=4.073*, pos_y=-10.060*, direction=156.8*)
306: 0x099D [0xBA] SET_ENTITY_POSITION(entity_id=Demon Befouler (ID: 17343217/0x0108A2F1), pos_x=0.917*, pos_z=-5.529*, pos_y=-10.000*, direction=156.8*)
307: 0x09AA [0xBA] SET_ENTITY_POSITION(entity_id=Bukadaemon5 (ID: 17343219/0x0108A2F3), pos_x=-13.674*, pos_z=-14.768*, pos_y=-10.612*, direction=0.0*)
308: 0x09B7 [0xBA] SET_ENTITY_POSITION(entity_id=Bukadaemon6 (ID: 17343220/0x0108A2F4), pos_x=10.558*, pos_z=-0.464*, pos_y=-9.663*, direction=156.8*)
309: 0x09C4 [0x80] LOAD_WAIT(entity=LocalPlayer)
310: 0x09C9 [0x80] LOAD_WAIT(entity=Bukadaemon1 (ID: 17343215/0x0108A2EF))
311: 0x09CE [0x80] LOAD_WAIT(entity=Demon Suppressor (ID: 17343216/0x0108A2F0))
312: 0x09D3 [0x80] LOAD_WAIT(entity=Demon Befouler (ID: 17343217/0x0108A2F1))
313: 0x09D8 [0x80] LOAD_WAIT(entity=Bukadaemon4 (ID: 17343218/0x0108A2F2))
314: 0x09DD [0x80] LOAD_WAIT(entity=Bukadaemon5 (ID: 17343219/0x0108A2F3))
315: 0x09E2 [0x80] LOAD_WAIT(entity=Bukadaemon6 (ID: 17343220/0x0108A2F4))
316: 0x09E7 [0x1C] WAIT(60* ticks)
317: 0x09EA [0x2C] CREATE_SCHEDULER_TASK: Create scheduler "pop0" with entities [thubu01 (ID: 17343231/0x0108A2FF), thubu01 (ID: 17343231/0x0108A2FF)]
318: 0x09F7 [0x1C] WAIT(90* ticks)
319: 0x09FA [0x27] REQ_SET(priority=0x10, entity_id=baku02 (ID: 17343234/0x0108A302), tag_num=0x03)
320: 0x0A01 [0x27] REQ_SET(priority=0x10, entity_id=Bukadaemon1 (ID: 17343215/0x0108A2EF), tag_num=0x05)
321: 0x0A08 [0x27] REQ_SET(priority=0x10, entity_id=Demon Befouler (ID: 17343217/0x0108A2F1), tag_num=0x07)
322: 0x0A0F [0x27] REQ_SET(priority=0x10, entity_id=Bukadaemon6 (ID: 17343220/0x0108A2F4), tag_num=0x04)
323: 0x0A16 [0x45] LOAD_SCHEDULED_TASK: Load scheduler "se00" with entities [Bukadaemon5 (ID: 17343219/0x0108A2F3), Bukadaemon5 (ID: 17343219/0x0108A2F3)], work=[507*, 0*]
324: 0x0A27 [0x52] END_LOAD_SCHEDULER: End scheduler "0315" with entities [LocalPlayer, LocalPlayer], work=507*
325: 0x0A36 [0x45] LOAD_SCHEDULED_TASK: Load scheduler "0308" with entities [LocalPlayer, LocalPlayer], work=[507*, 0*]
326: 0x0A47 [0x1A] CALL_SUBROUTINE(address=0x3F3F)
327: 0x0A4A [0x1A] CALL_SUBROUTINE(address=0x3F81)
328: 0x0A4D [0x1C] WAIT(90* ticks)
329: 0x0A50 [0xCD] LOAD_SCHEDULED_TASK_ALT4: Load scheduler "s003" with entities [EventEntity, EventEntity], work=[7*, 0*]
330: 0x0A61 [0x1C] WAIT(120* ticks)
331: 0x0A64 [0x52] END_LOAD_SCHEDULER: End scheduler "0308" with entities [LocalPlayer, LocalPlayer], work=507*
332: 0x0A73 [0x45] LOAD_SCHEDULED_TASK: Load scheduler "030g" with entities [LocalPlayer, LocalPlayer], work=[507*, 0*]
333: 0x0A84 [0x5B] LOAD_EXT_SCHEDULER: Load scheduler "kyo0" with entities [Bukadaemon5 (ID: 17343219/0x0108A2F3), Bukadaemon5 (ID: 17343219/0x0108A2F3)], work=2748*
334: 0x0A93 [0x1C] WAIT(60* ticks)
335: 0x0A96 [0xBA] SET_ENTITY_POSITION(entity_id=Bukadaemon6 (ID: 17343220/0x0108A2F4), pos_x=9.056*, pos_z=0.254*, pos_y=-9.500*, direction=316.7*)
336: 0x0AA3 [0x4B] UPDATE_ENTITY_YAW(entity=Demon Befouler (ID: 17343217/0x0108A2F1), yaw=13.2*)
337: 0x0AAA [0x1C] WAIT(90* ticks)
338: 0x0AAD [0x52] END_LOAD_SCHEDULER: End scheduler "030g" with entities [LocalPlayer, LocalPlayer], work=507*
339: 0x0ABC [0x45] LOAD_SCHEDULED_TASK: Load scheduler "031j" with entities [LocalPlayer, LocalPlayer], work=[507*, 0*]
340: 0x0ACD [0x4B] UPDATE_ENTITY_YAW(entity=Demon Befouler (ID: 17343217/0x0108A2F1), yaw=9.3*)
341: 0x0AD4 [0xBA] SET_ENTITY_POSITION(entity_id=thubu02 (ID: 17343232/0x0108A300), pos_x=-13.069*, pos_z=-16.938*, pos_y=-10.102*, direction=0.0*)
342: 0x0AE1 [0xBA] SET_ENTITY_POSITION(entity_id=Bukadaemon4 (ID: 17343218/0x0108A2F2), pos_x=-4.738*, pos_z=-1.916*, pos_y=-10.190*, direction=316.7*)
343: 0x0AEE [0xBA] SET_ENTITY_POSITION(entity_id=baku03 (ID: 17343235/0x0108A303), pos_x=-4.284*, pos_z=-11.857*, pos_y=-10.265*, direction=0.0*)
344: 0x0AFB [0xBA] SET_ENTITY_POSITION(entity_id=baku05 (ID: 17343237/0x0108A305), pos_x=17.458*, pos_z=17.142*, pos_y=-11.065*, direction=0.0*)
345: 0x0B08 [0xBA] SET_ENTITY_POSITION(entity_id=baku06 (ID: 17343238/0x0108A306), pos_x=4.021*, pos_z=-5.252*, pos_y=-10.252*, direction=0.0*)
346: 0x0B15 [0x1C] WAIT(120* ticks)
347: 0x0B18 [0x52] END_LOAD_SCHEDULER: End scheduler "031j" with entities [LocalPlayer, LocalPlayer], work=507*
348: 0x0B27 [0x45] LOAD_SCHEDULED_TASK: Load scheduler "031k" with entities [LocalPlayer, LocalPlayer], work=[507*, 0*]
349: 0x0B38 [0x2C] CREATE_SCHEDULER_TASK: Create scheduler "shot" with entities [thubu01 (ID: 17343231/0x0108A2FF), thubu01 (ID: 17343231/0x0108A2FF)]
350: 0x0B45 [0x1C] WAIT(60* ticks)
351: 0x0B48 [0x52] END_LOAD_SCHEDULER: End scheduler "031k" with entities [LocalPlayer, LocalPlayer], work=507*
352: 0x0B57 [0x45] LOAD_SCHEDULED_TASK: Load scheduler "031l" with entities [LocalPlayer, LocalPlayer], work=[507*, 0*]
353: 0x0B68 [0x2C] CREATE_SCHEDULER_TASK: Create scheduler "bom1" with entities [baku01 (ID: 17343233/0x0108A301), baku01 (ID: 17343233/0x0108A301)]
354: 0x0B75 [0x4A] Demon Befouler (ID: 17343217/0x0108A2F1) looks at baku01 (ID: 17343233/0x0108A301)
355: 0x0B7E [0x5B] LOAD_EXT_SCHEDULER: Load scheduler "kia0" with entities [Demon Befouler (ID: 17343217/0x0108A2F1), Demon Befouler (ID: 17343217/0x0108A2F1)], work=2229*
356: 0x0B8D [0x5B] LOAD_EXT_SCHEDULER: Load scheduler "bou0" with entities [Bukadaemon5 (ID: 17343219/0x0108A2F3), Bukadaemon5 (ID: 17343219/0x0108A2F3)], work=2229*
357: 0x0B9C [0x4B] UPDATE_ENTITY_YAW(entity=Bukadaemon5 (ID: 17343219/0x0108A2F3), yaw=5.9*)
358: 0x0BA3 [0x2C] CREATE_SCHEDULER_TASK: Create scheduler "shot" with entities [thubu02 (ID: 17343232/0x0108A300), thubu02 (ID: 17343232/0x0108A300)]
359: 0x0BB0 [0x1C] WAIT(60* ticks)
360: 0x0BB3 [0x5B] LOAD_EXT_SCHEDULER: Load scheduler "fkib" with entities [Bukadaemon5 (ID: 17343219/0x0108A2F3), Bukadaemon5 (ID: 17343219/0x0108A2F3)], work=2746*
361: 0x0BC2 [0x27] REQ_SET(priority=0x10, entity_id=baku02 (ID: 17343234/0x0108A302), tag_num=0x04)
362: 0x0BC9 [0x2C] CREATE_SCHEDULER_TASK: Create scheduler "bom1" with entities [baku02 (ID: 17343234/0x0108A302), baku02 (ID: 17343234/0x0108A302)]
363: 0x0BD6 [0x4A] Demon Befouler (ID: 17343217/0x0108A2F1) looks at Bukadaemon5 (ID: 17343219/0x0108A2F3)
364: 0x0BDF [0x1C] WAIT(90* ticks)
365: 0x0BE2 [0x52] END_LOAD_SCHEDULER: End scheduler "030l" with entities [LocalPlayer, LocalPlayer], work=507*
366: 0x0BF1 [0x45] LOAD_SCHEDULED_TASK: Load scheduler "030h" with entities [LocalPlayer, LocalPlayer], work=[507*, 0*]
367: 0x0C02 [0xBA] SET_ENTITY_POSITION(entity_id=Bukadaemon1 (ID: 17343215/0x0108A2EF), pos_x=-8.896*, pos_z=-9.570*, pos_y=-9.999*, direction=316.7*)
368: 0x0C0F [0x27] REQ_SET(priority=0x10, entity_id=Bukadaemon1 (ID: 17343215/0x0108A2EF), tag_num=0x06)
369: 0x0C16 [0x27] REQ_SET(priority=0x10, entity_id=Bukadaemon4 (ID: 17343218/0x0108A2F2), tag_num=0x0A)
370: 0x0C1D [0x27] REQ_SET(priority=0x10, entity_id=Bukadaemon6 (ID: 17343220/0x0108A2F4), tag_num=0x05)
371: 0x0C24 [0x1C] WAIT(10* ticks)
372: 0x0C27 [0xBA] SET_ENTITY_POSITION(entity_id=Demon Befouler (ID: 17343217/0x0108A2F1), pos_x=-3.692*, pos_z=-9.454*, pos_y=-9.923*, direction=68.8*)
373: 0x0C34 [0x1C] WAIT(20* ticks)
374: 0x0C37 [0x5B] LOAD_EXT_SCHEDULER: Load scheduler "fkib" with entities [Demon Befouler (ID: 17343217/0x0108A2F1), Demon Befouler (ID: 17343217/0x0108A2F1)], work=2746*
375: 0x0C46 [0x2C] CREATE_SCHEDULER_TASK: Create scheduler "bom1" with entities [baku03 (ID: 17343235/0x0108A303), baku03 (ID: 17343235/0x0108A303)]
376: 0x0C53 [0x1C] WAIT(170* ticks)
377: 0x0C56 [0x52] END_LOAD_SCHEDULER: End scheduler "030h" with entities [LocalPlayer, LocalPlayer], work=507*
378: 0x0C65 [0x45] LOAD_SCHEDULED_TASK: Load scheduler "031c" with entities [LocalPlayer, LocalPlayer], work=[507*, 0*]
379: 0x0C76 [0x7A] VM_CONTROL: Reset VM for Bukadaemon1 (ID: 17343215/0x0108A2EF)
380: 0x0C7C [0x7A] VM_CONTROL: Reset VM for Bukadaemon4 (ID: 17343218/0x0108A2F2)
