# 17343178 - Volker

## Common Data

| Field            | Value                              |
|------------------|------------------------------------|
| Zone             | Castle Zvahl Baileys [S] (ID: 138) |
| Block Size       | 352 bytes                          |
| Total Events     | 12                                 |
| References Count | 29                                 |

## List of Events

| Event ID                 | Entrypoint   |   Size |   Instructions |
|--------------------------|--------------|--------|----------------|
| [65535](#event-65535)    | 0x0000       |      1 |              1 |
| [12](#event-12)          | 0x0001       |      7 |              2 |
| [13](#event-13)          | 0x0008       |      7 |              2 |
| [65535.1](#event-655351) | 0x000F       |     10 |              2 |
| [65535.2](#event-655352) | 0x0019       |     10 |              2 |
| [65535.3](#event-655353) | 0x0023       |     14 |              4 |
| [65535.4](#event-655354) | 0x0031       |     20 |              6 |
| [65535.5](#event-655355) | 0x0045       |     20 |              6 |
| [65535.6](#event-655356) | 0x0059       |     16 |              2 |
| [65535.7](#event-655357) | 0x0069       |     11 |              3 |
| [65535.8](#event-655358) | 0x0074       |     16 |              4 |
| [65535.9](#event-655359) | 0x0084       |     37 |              9 |

## DAT References (imed_data)

|   Index | Hex Value   |   Dec Value |
|---------|-------------|-------------|
|       0 | 0x0000      |           0 |
|       1 | 0x0001      |           1 |
|       2 | 0x0080      |         128 |
|       3 | 0x0028      |          40 |
|       4 | 0xFFFE909A  |  4294873242 |
|       5 | 0x47DC      |       18396 |
|       6 | 0xFFFFA1EC  |  4294943212 |
|       7 | 0x000D      |          13 |
|       8 | 0x5809E     |      360606 |
|       9 | 0xFFFFB3F5  |  4294947829 |
|      10 | 0xFFFFD116  |  4294955286 |
|      11 | 0x4FDD8     |      327128 |
|      12 | 0xFFFFB222  |  4294947362 |
|      13 | 0xFFFFC173  |  4294951283 |
|      14 | 0x0574      |        1396 |
|      15 | 0x49C30     |      302128 |
|      16 | 0x4A949     |      305481 |
|      17 | 0xFFFFB857  |  4294948951 |
|      18 | 0xFFFFC180  |  4294951296 |
|      19 | 0x002D      |          45 |
|      20 | 0x49EE0     |      302816 |
|      21 | 0xFFFFBE91  |  4294950545 |
|      22 | 0xFFFFC16A  |  4294951274 |
|      23 | 0x49762     |      300898 |
|      24 | 0xFFFFD838  |  4294957112 |
|      25 | 0xFFFFC17D  |  4294951293 |
|      26 | 0x492B3     |      299699 |
|      27 | 0x1009      |        4105 |
|      28 | 0xFFFFC17E  |  4294951294 |

## Events

### Event 65535

#### Metadata

| Field        | Value   |
|--------------|---------|
| Entrypoint   | 0x0000  |
| Data Size    | 1 bytes |
| Instructions | 1       |

```
      00 01 02 03 04 05 06 07  08 09 0A 0B 0C 0D 0E 0F
      -- -- -- -- -- -- -- --  -- -- -- -- -- -- -- --
0000: 00                                                .               
```

#### Opcodes

```
  0: 0x0000 [0x00] END_REQSTACK()
```

### Event 12

#### Metadata

| Field        | Value   |
|--------------|---------|
| Entrypoint   | 0x0001  |
| Data Size    | 7 bytes |
| Instructions | 2       |

```
      00 01 02 03 04 05 06 07  08 09 0A 0B 0C 0D 0E 0F
      -- -- -- -- -- -- -- --  -- -- -- -- -- -- -- --
0000:    92 01 F8 FF FF 7F 00                            .......        
```

#### Opcodes

```
  0: 0x0001 [0x92] EventEntity->Render.Flags3 ^= 0x01
  1: 0x0007 [0x00] END_REQSTACK()
```

### Event 13

#### Metadata

| Field        | Value   |
|--------------|---------|
| Entrypoint   | 0x0008  |
| Data Size    | 7 bytes |
| Instructions | 2       |

```
      00 01 02 03 04 05 06 07  08 09 0A 0B 0C 0D 0E 0F
      -- -- -- -- -- -- -- --  -- -- -- -- -- -- -- --
0000:                          92 01 F8 FF FF 7F 00             ....... 
```

#### Opcodes

```
  0: 0x0008 [0x92] EventEntity->Render.Flags3 ^= 0x01
  1: 0x000E [0x00] END_REQSTACK()
```

### Event 65535.1

#### Metadata

| Field        | Value    |
|--------------|----------|
| Entrypoint   | 0x000F   |
| Data Size    | 10 bytes |
| Instructions | 2        |

```
      00 01 02 03 04 05 06 07  08 09 0A 0B 0C 0D 0E 0F
      -- -- -- -- -- -- -- --  -- -- -- -- -- -- -- --
0000:                                               6C                 l
0010: F8 FF FF 7F 00 80 01 80  00                       .........       
```

#### Opcodes

```
  0: 0x000F [0x6C] FADE_ENTITY_COLOR(entity_id=EventEntity, end_alpha=0*, fade_time=1*)
  1: 0x0018 [0x00] END_REQSTACK()
```

### Event 65535.2

#### Metadata

| Field        | Value    |
|--------------|----------|
| Entrypoint   | 0x0019   |
| Data Size    | 10 bytes |
| Instructions | 2        |

```
      00 01 02 03 04 05 06 07  08 09 0A 0B 0C 0D 0E 0F
      -- -- -- -- -- -- -- --  -- -- -- -- -- -- -- --
0010:                             6C F8 FF FF 7F 02 80           l......
0020: 01 80 00                                          ...             
```

#### Opcodes

```
  0: 0x0019 [0x6C] FADE_ENTITY_COLOR(entity_id=EventEntity, end_alpha=128*, fade_time=1*)
  1: 0x0022 [0x00] END_REQSTACK()
```

### Event 65535.3

#### Metadata

| Field        | Value    |
|--------------|----------|
| Entrypoint   | 0x0023   |
| Data Size    | 14 bytes |
| Instructions | 4        |

```
      00 01 02 03 04 05 06 07  08 09 0A 0B 0C 0D 0E 0F
      -- -- -- -- -- -- -- --  -- -- -- -- -- -- -- --
0020:          32 03 80 1F 00  04 80 05 80 06 80 1F 01     2............
0030: 00                                                .               
```

#### Opcodes

```
  0: 0x0023 [0x32] ExtData[1]->MainSpeed = 40* * 0.1
  1: 0x0026 [0x1F] MOVE_ENTITY: EventEntity moves to X=-94.054*, Z=18.396*, Y=-24.084*
  2: 0x002E [0x1F] MOVE_ENTITY: Update entity position (mode=1)
  3: 0x0030 [0x00] END_REQSTACK()
```

### Event 65535.4

#### Metadata

| Field        | Value    |
|--------------|----------|
| Entrypoint   | 0x0031   |
| Data Size    | 20 bytes |
| Instructions | 6        |

```
      00 01 02 03 04 05 06 07  08 09 0A 0B 0C 0D 0E 0F
      -- -- -- -- -- -- -- --  -- -- -- -- -- -- -- --
0030:    32 07 80 1F 00 08 80  09 80 0A 80 1F 01 6F 1E   2............o.
0040: F0 FF FF 7F 00                                    .....           
```

#### Opcodes

```
  0: 0x0031 [0x32] ExtData[1]->MainSpeed = 13* * 0.1
  1: 0x0034 [0x1F] MOVE_ENTITY: EventEntity moves to X=360.606*, Z=-19.467*, Y=-12.010*
  2: 0x003C [0x1F] MOVE_ENTITY: Update entity position (mode=1)
  3: 0x003E [0x6F] WAIT_FRAME_DELAY: Yield until WaitTime reaches zero
  4: 0x003F [0x1E] EventEntity looks at LocalPlayer and starts talking
  5: 0x0044 [0x00] END_REQSTACK()
```

### Event 65535.5

#### Metadata

| Field        | Value    |
|--------------|----------|
| Entrypoint   | 0x0045   |
| Data Size    | 20 bytes |
| Instructions | 6        |

```
      00 01 02 03 04 05 06 07  08 09 0A 0B 0C 0D 0E 0F
      -- -- -- -- -- -- -- --  -- -- -- -- -- -- -- --
0040:                32 07 80  1F 00 0B 80 0C 80 0D 80       2..........
0050: 1F 01 6F 1E D1 A2 08 01  00                       ..o......       
```

#### Opcodes

```
  0: 0x0045 [0x32] ExtData[1]->MainSpeed = 13* * 0.1
  1: 0x0048 [0x1F] MOVE_ENTITY: EventEntity moves to X=327.128*, Z=-19.934*, Y=-16.013*
  2: 0x0050 [0x1F] MOVE_ENTITY: Update entity position (mode=1)
  3: 0x0052 [0x6F] WAIT_FRAME_DELAY: Yield until WaitTime reaches zero
  4: 0x0053 [0x1E] EventEntity looks at Allenberge (ID: 17343185/0x0108A2D1) and starts talking
  5: 0x0058 [0x00] END_REQSTACK()
```

### Event 65535.6

#### Metadata

| Field        | Value    |
|--------------|----------|
| Entrypoint   | 0x0059   |
| Data Size    | 16 bytes |
| Instructions | 2        |

```
      00 01 02 03 04 05 06 07  08 09 0A 0B 0C 0D 0E 0F
      -- -- -- -- -- -- -- --  -- -- -- -- -- -- -- --
0050:                             5B 0E 80 CA A2 08 01           [......
0060: CA A2 08 01 6B 65 69 30  00                       ....kei0.       
```

#### Opcodes

```
  0: 0x0059 [0x5B] LOAD_EXT_SCHEDULER: Load scheduler "kei0" with entities [Volker (ID: 17343178/0x0108A2CA), Volker (ID: 17343178/0x0108A2CA)], work=1396*
  1: 0x0068 [0x00] END_REQSTACK()
```

### Event 65535.7

#### Metadata

| Field        | Value    |
|--------------|----------|
| Entrypoint   | 0x0069   |
| Data Size    | 11 bytes |
| Instructions | 3        |

```
      00 01 02 03 04 05 06 07  08 09 0A 0B 0C 0D 0E 0F
      -- -- -- -- -- -- -- --  -- -- -- -- -- -- -- --
0060:                             1F 00 0F 80 0C 80 0D           .......
0070: 80 1F 01 00                                       ....            
```

#### Opcodes

```
  0: 0x0069 [0x1F] MOVE_ENTITY: EventEntity moves to X=302.128*, Z=-19.934*, Y=-16.013*
  1: 0x0071 [0x1F] MOVE_ENTITY: Update entity position (mode=1)
  2: 0x0073 [0x00] END_REQSTACK()
```

### Event 65535.8

#### Metadata

| Field        | Value    |
|--------------|----------|
| Entrypoint   | 0x0074   |
| Data Size    | 16 bytes |
| Instructions | 4        |

```
      00 01 02 03 04 05 06 07  08 09 0A 0B 0C 0D 0E 0F
      -- -- -- -- -- -- -- --  -- -- -- -- -- -- -- --
0070:             1F 00 10 80  11 80 12 80 1F 01 1E D4      ............
0080: A2 08 01 00                                       ....            
```

#### Opcodes

```
  0: 0x0074 [0x1F] MOVE_ENTITY: EventEntity moves to X=305.481*, Z=-18.345*, Y=-16.000*
  1: 0x007C [0x1F] MOVE_ENTITY: Update entity position (mode=1)
  2: 0x007E [0x1E] EventEntity looks at Flap (ID: 17343188/0x0108A2D4) and starts talking
  3: 0x0083 [0x00] END_REQSTACK()
```

### Event 65535.9

#### Metadata

| Field        | Value    |
|--------------|----------|
| Entrypoint   | 0x0084   |
| Data Size    | 37 bytes |
| Instructions | 9        |

```
      00 01 02 03 04 05 06 07  08 09 0A 0B 0C 0D 0E 0F
      -- -- -- -- -- -- -- --  -- -- -- -- -- -- -- --
0080:             1C 13 80 32  03 80 1F 00 14 80 15 80      ...2........
0090: 16 80 1F 01 1F 00 17 80  18 80 19 80 1F 01 1F 00  ................
00A0: 1A 80 1B 80 1C 80 1F 01  00                       .........       
```

#### Opcodes

```
  0: 0x0084 [0x1C] WAIT(45* ticks)
  1: 0x0087 [0x32] ExtData[1]->MainSpeed = 40* * 0.1
  2: 0x008A [0x1F] MOVE_ENTITY: EventEntity moves to X=302.816*, Z=-16.751*, Y=-16.022*
  3: 0x0092 [0x1F] MOVE_ENTITY: Update entity position (mode=1)
  4: 0x0094 [0x1F] MOVE_ENTITY: EventEntity moves to X=300.898*, Z=-10.184*, Y=-16.003*
  5: 0x009C [0x1F] MOVE_ENTITY: Update entity position (mode=1)
  6: 0x009E [0x1F] MOVE_ENTITY: EventEntity moves to X=299.699*, Z=4.105*, Y=-16.002*
  7: 0x00A6 [0x1F] MOVE_ENTITY: Update entity position (mode=1)
  8: 0x00A8 [0x00] END_REQSTACK()
```
