# 17343161 - Ukai02

## Common Data

| Field            | Value                              |
|------------------|------------------------------------|
| Zone             | Castle Zvahl Baileys [S] (ID: 138) |
| Block Size       | 348 bytes                          |
| Total Events     | 14                                 |
| References Count | 26                                 |

## List of Events

| Event ID                   | Entrypoint   |   Size |   Instructions |
|----------------------------|--------------|--------|----------------|
| [65535](#event-65535)      | 0x0000       |      1 |              1 |
| [1](#event-1)              | 0x0001       |      1 |              1 |
| [65535.1](#event-655351)   | 0x0002       |     14 |              4 |
| [65535.2](#event-655352)   | 0x0010       |     14 |              4 |
| [65535.3](#event-655353)   | 0x001E       |     14 |              4 |
| [65535.4](#event-655354)   | 0x002C       |     10 |              2 |
| [65535.5](#event-655355)   | 0x0036       |     10 |              2 |
| [65535.6](#event-655356)   | 0x0040       |     21 |              2 |
| [65535.7](#event-655357)   | 0x0055       |     21 |              2 |
| [65535.8](#event-655358)   | 0x006A       |     21 |              2 |
| [65535.9](#event-655359)   | 0x007F       |      5 |              2 |
| [65535.10](#event-6553510) | 0x0084       |      5 |              2 |
| [65535.11](#event-6553511) | 0x0089       |     19 |              3 |
| [65535.12](#event-6553512) | 0x009C       |     16 |              2 |

## DAT References (imed_data)

|   Index | Hex Value   |   Dec Value |
|---------|-------------|-------------|
|       0 | 0x000D      |          13 |
|       1 | 0xFFFA42C1  |  4294591169 |
|       2 | 0xFFFF96C8  |  4294940360 |
|       3 | 0xFFFFEFBF  |  4294963135 |
|       4 | 0x0028      |          40 |
|       5 | 0x2A37F     |      172927 |
|       6 | 0x369C      |       13980 |
|       7 | 0xFFFFA0E4  |  4294942948 |
|       8 | 0x3480C     |      215052 |
|       9 | 0xD2E9      |       53993 |
|      10 | 0xFFFFA1DE  |  4294943198 |
|      11 | 0x0000      |           0 |
|      12 | 0x0001      |           1 |
|      13 | 0x0080      |         128 |
|      14 | 0x0003      |           3 |
|      15 | 0x0006      |           6 |
|      16 | 0x00DD      |         221 |
|      17 | 0x001B      |          27 |
|      18 | 0x00FB      |         251 |
|      19 | 0x000C      |          12 |
|      20 | 0x0015      |          21 |
|      21 | 0x00D3      |         211 |
|      22 | 0x0036      |          54 |
|      23 | 0x005A      |          90 |
|      24 | 0x0BD5      |        3029 |
|      25 | 0x0B5D      |        2909 |

## Events

### Event 65535

#### Metadata

| Field        | Value   |
|--------------|---------|
| Entrypoint   | 0x0000  |
| Data Size    | 1 bytes |
| Instructions | 1       |

```
      00 01 02 03 04 05 06 07  08 09 0A 0B 0C 0D 0E 0F
      -- -- -- -- -- -- -- --  -- -- -- -- -- -- -- --
0000: 00                                                .               
```

#### Opcodes

```
  0: 0x0000 [0x00] END_REQSTACK()
```

### Event 1

#### Metadata

| Field        | Value   |
|--------------|---------|
| Entrypoint   | 0x0001  |
| Data Size    | 1 bytes |
| Instructions | 1       |

```
      00 01 02 03 04 05 06 07  08 09 0A 0B 0C 0D 0E 0F
      -- -- -- -- -- -- -- --  -- -- -- -- -- -- -- --
0000:    00                                              .              
```

#### Opcodes

```
  0: 0x0001 [0x00] END_REQSTACK()
```

### Event 65535.1

#### Metadata

| Field        | Value    |
|--------------|----------|
| Entrypoint   | 0x0002   |
| Data Size    | 14 bytes |
| Instructions | 4        |

```
      00 01 02 03 04 05 06 07  08 09 0A 0B 0C 0D 0E 0F
      -- -- -- -- -- -- -- --  -- -- -- -- -- -- -- --
0000:       32 00 80 1F 00 01  80 02 80 03 80 1F 01 00    2.............
```

#### Opcodes

```
  0: 0x0002 [0x32] ExtData[1]->MainSpeed = 13* * 0.1
  1: 0x0005 [0x1F] MOVE_ENTITY: EventEntity moves to X=-376.127*, Z=-26.936*, Y=-4.161*
  2: 0x000D [0x1F] MOVE_ENTITY: Update entity position (mode=1)
  3: 0x000F [0x00] END_REQSTACK()
```

### Event 65535.2

#### Metadata

| Field        | Value    |
|--------------|----------|
| Entrypoint   | 0x0010   |
| Data Size    | 14 bytes |
| Instructions | 4        |

```
      00 01 02 03 04 05 06 07  08 09 0A 0B 0C 0D 0E 0F
      -- -- -- -- -- -- -- --  -- -- -- -- -- -- -- --
0010: 32 04 80 1F 00 05 80 06  80 07 80 1F 01 00        2.............  
```

#### Opcodes

```
  0: 0x0010 [0x32] ExtData[1]->MainSpeed = 40* * 0.1
  1: 0x0013 [0x1F] MOVE_ENTITY: EventEntity moves to X=172.927*, Z=13.980*, Y=-24.348*
  2: 0x001B [0x1F] MOVE_ENTITY: Update entity position (mode=1)
  3: 0x001D [0x00] END_REQSTACK()
```

### Event 65535.3

#### Metadata

| Field        | Value    |
|--------------|----------|
| Entrypoint   | 0x001E   |
| Data Size    | 14 bytes |
| Instructions | 4        |

```
      00 01 02 03 04 05 06 07  08 09 0A 0B 0C 0D 0E 0F
      -- -- -- -- -- -- -- --  -- -- -- -- -- -- -- --
0010:                                            32 04                2.
0020: 80 1F 00 08 80 09 80 0A  80 1F 01 00              ............    
```

#### Opcodes

```
  0: 0x001E [0x32] ExtData[1]->MainSpeed = 40* * 0.1
  1: 0x0021 [0x1F] MOVE_ENTITY: EventEntity moves to X=215.052*, Z=53.993*, Y=-24.098*
  2: 0x0029 [0x1F] MOVE_ENTITY: Update entity position (mode=1)
  3: 0x002B [0x00] END_REQSTACK()
```

### Event 65535.4

#### Metadata

| Field        | Value    |
|--------------|----------|
| Entrypoint   | 0x002C   |
| Data Size    | 10 bytes |
| Instructions | 2        |

```
      00 01 02 03 04 05 06 07  08 09 0A 0B 0C 0D 0E 0F
      -- -- -- -- -- -- -- --  -- -- -- -- -- -- -- --
0020:                                      6C B9 A2 08              l...
0030: 01 0B 80 0C 80 00                                 ......          
```

#### Opcodes

```
  0: 0x002C [0x6C] FADE_ENTITY_COLOR(entity_id=Ukai02 (ID: 17343161/0x0108A2B9), end_alpha=0*, fade_time=1*)
  1: 0x0035 [0x00] END_REQSTACK()
```

### Event 65535.5

#### Metadata

| Field        | Value    |
|--------------|----------|
| Entrypoint   | 0x0036   |
| Data Size    | 10 bytes |
| Instructions | 2        |

```
      00 01 02 03 04 05 06 07  08 09 0A 0B 0C 0D 0E 0F
      -- -- -- -- -- -- -- --  -- -- -- -- -- -- -- --
0030:                   6C B9  A2 08 01 0D 80 0C 80 00        l.........
```

#### Opcodes

```
  0: 0x0036 [0x6C] FADE_ENTITY_COLOR(entity_id=Ukai02 (ID: 17343161/0x0108A2B9), end_alpha=128*, fade_time=1*)
  1: 0x003F [0x00] END_REQSTACK()
```

### Event 65535.6

#### Metadata

| Field        | Value    |
|--------------|----------|
| Entrypoint   | 0x0040   |
| Data Size    | 21 bytes |
| Instructions | 2        |

```
      00 01 02 03 04 05 06 07  08 09 0A 0B 0C 0D 0E 0F
      -- -- -- -- -- -- -- --  -- -- -- -- -- -- -- --
0040: B6 0B 0E 80 0F 80 0B 80  10 80 10 80 10 80 10 80  ................
0050: 11 80 0B 80 00                                    .....           
```

#### Opcodes

```
  0: 0x0040 [0xB6] ENTITY_APPEARANCE_HANDLER(case=Full entity look, race=3*, hair=6*, head=0*, body=221*, hands=221*, legs=221*, feet=221*, main=27*, sub=0*)
  1: 0x0054 [0x00] END_REQSTACK()
```

### Event 65535.7

#### Metadata

| Field        | Value    |
|--------------|----------|
| Entrypoint   | 0x0055   |
| Data Size    | 21 bytes |
| Instructions | 2        |

```
      00 01 02 03 04 05 06 07  08 09 0A 0B 0C 0D 0E 0F
      -- -- -- -- -- -- -- --  -- -- -- -- -- -- -- --
0050:                B6 0B 0E  80 0B 80 0B 80 10 80 10       ...........
0060: 80 10 80 10 80 12 80 11  80 00                    ..........      
```

#### Opcodes

```
  0: 0x0055 [0xB6] ENTITY_APPEARANCE_HANDLER(case=Full entity look, race=3*, hair=0*, head=0*, body=221*, hands=221*, legs=221*, feet=221*, main=251*, sub=27*)
  1: 0x0069 [0x00] END_REQSTACK()
```

### Event 65535.8

#### Metadata

| Field        | Value    |
|--------------|----------|
| Entrypoint   | 0x006A   |
| Data Size    | 21 bytes |
| Instructions | 2        |

```
      00 01 02 03 04 05 06 07  08 09 0A 0B 0C 0D 0E 0F
      -- -- -- -- -- -- -- --  -- -- -- -- -- -- -- --
0060:                                B6 0B 0E 80 13 80            ......
0070: 14 80 00 80 10 80 10 80  10 80 15 80 0B 80 00     ............... 
```

#### Opcodes

```
  0: 0x006A [0xB6] ENTITY_APPEARANCE_HANDLER(case=Full entity look, race=3*, hair=12*, head=21*, body=13*, hands=221*, legs=221*, feet=221*, main=211*, sub=0*)
  1: 0x007E [0x00] END_REQSTACK()
```

### Event 65535.9

#### Metadata

| Field        | Value   |
|--------------|---------|
| Entrypoint   | 0x007F  |
| Data Size    | 5 bytes |
| Instructions | 2       |

```
      00 01 02 03 04 05 06 07  08 09 0A 0B 0C 0D 0E 0F
      -- -- -- -- -- -- -- --  -- -- -- -- -- -- -- --
0070:                                               B6                 .
0080: 0A 16 80 00                                       ....            
```

#### Opcodes

```
  0: 0x007F [0xB6] ENTITY_APPEARANCE_HANDLER(case=Ranged, value=54*)
  1: 0x0083 [0x00] END_REQSTACK()
```

### Event 65535.10

#### Metadata

| Field        | Value   |
|--------------|---------|
| Entrypoint   | 0x0084  |
| Data Size    | 5 bytes |
| Instructions | 2       |

```
      00 01 02 03 04 05 06 07  08 09 0A 0B 0C 0D 0E 0F
      -- -- -- -- -- -- -- --  -- -- -- -- -- -- -- --
0080:             B6 0A 0B 80  00                           .....       
```

#### Opcodes

```
  0: 0x0084 [0xB6] ENTITY_APPEARANCE_HANDLER(case=Ranged, value=0*)
  1: 0x0088 [0x00] END_REQSTACK()
```

### Event 65535.11

#### Metadata

| Field        | Value    |
|--------------|----------|
| Entrypoint   | 0x0089   |
| Data Size    | 19 bytes |
| Instructions | 3        |

```
      00 01 02 03 04 05 06 07  08 09 0A 0B 0C 0D 0E 0F
      -- -- -- -- -- -- -- --  -- -- -- -- -- -- -- --
0080:                             1C 17 80 5B 18 80 B9           ...[...
0090: A2 08 01 B9 A2 08 01 62  67 6E 31 00              .......bgn1.    
```

#### Opcodes

```
  0: 0x0089 [0x1C] WAIT(90* ticks)
  1: 0x008C [0x5B] LOAD_EXT_SCHEDULER: Load scheduler "bgn1" with entities [Ukai02 (ID: 17343161/0x0108A2B9), Ukai02 (ID: 17343161/0x0108A2B9)], work=3029*
  2: 0x009B [0x00] END_REQSTACK()
```

### Event 65535.12

#### Metadata

| Field        | Value    |
|--------------|----------|
| Entrypoint   | 0x009C   |
| Data Size    | 16 bytes |
| Instructions | 2        |

```
      00 01 02 03 04 05 06 07  08 09 0A 0B 0C 0D 0E 0F
      -- -- -- -- -- -- -- --  -- -- -- -- -- -- -- --
0090:                                      5B 19 80 B9              [...
00A0: A2 08 01 B9 A2 08 01 64  73 68 30 00              .......dsh0.    
```

#### Opcodes

```
  0: 0x009C [0x5B] LOAD_EXT_SCHEDULER: Load scheduler "dsh0" with entities [Ukai02 (ID: 17343161/0x0108A2B9), Ukai02 (ID: 17343161/0x0108A2B9)], work=2909*
  1: 0x00AB [0x00] END_REQSTACK()
```
