# 17343165 - Ukai06

## Common Data

| Field            | Value                              |
|------------------|------------------------------------|
| Zone             | Castle Zvahl Baileys [S] (ID: 138) |
| Block Size       | 184 bytes                          |
| Total Events     | 8                                  |
| References Count | 13                                 |

## List of Events

| Event ID                 | Entrypoint   |   Size |   Instructions |
|--------------------------|--------------|--------|----------------|
| [65535](#event-65535)    | 0x0000       |      1 |              1 |
| [1](#event-1)            | 0x0001       |      1 |              1 |
| [65535.1](#event-655351) | 0x0002       |     11 |              3 |
| [65535.2](#event-655352) | 0x000D       |     21 |              2 |
| [65535.3](#event-655353) | 0x0022       |     21 |              2 |
| [65535.4](#event-655354) | 0x0037       |      5 |              2 |
| [65535.5](#event-655355) | 0x003C       |      5 |              2 |
| [65535.6](#event-655356) | 0x0041       |     19 |              3 |

## DAT References (imed_data)

|   Index | Hex Value   |   Dec Value |
|---------|-------------|-------------|
|       0 | 0x33FFE     |      212990 |
|       1 | 0xD1B0      |       53680 |
|       2 | 0xFFFFA0E9  |  4294942953 |
|       3 | 0x0003      |           3 |
|       4 | 0x000C      |          12 |
|       5 | 0x0000      |           0 |
|       6 | 0x00DD      |         221 |
|       7 | 0x00FB      |         251 |
|       8 | 0x001B      |          27 |
|       9 | 0x00FA      |         250 |
|      10 | 0x0036      |          54 |
|      11 | 0x00D2      |         210 |
|      12 | 0x0BD5      |        3029 |

## Events

### Event 65535

#### Metadata

| Field        | Value   |
|--------------|---------|
| Entrypoint   | 0x0000  |
| Data Size    | 1 bytes |
| Instructions | 1       |

```
      00 01 02 03 04 05 06 07  08 09 0A 0B 0C 0D 0E 0F
      -- -- -- -- -- -- -- --  -- -- -- -- -- -- -- --
0000: 00                                                .               
```

#### Opcodes

```
  0: 0x0000 [0x00] END_REQSTACK()
```

### Event 1

#### Metadata

| Field        | Value   |
|--------------|---------|
| Entrypoint   | 0x0001  |
| Data Size    | 1 bytes |
| Instructions | 1       |

```
      00 01 02 03 04 05 06 07  08 09 0A 0B 0C 0D 0E 0F
      -- -- -- -- -- -- -- --  -- -- -- -- -- -- -- --
0000:    00                                              .              
```

#### Opcodes

```
  0: 0x0001 [0x00] END_REQSTACK()
```

### Event 65535.1

#### Metadata

| Field        | Value    |
|--------------|----------|
| Entrypoint   | 0x0002   |
| Data Size    | 11 bytes |
| Instructions | 3        |

```
      00 01 02 03 04 05 06 07  08 09 0A 0B 0C 0D 0E 0F
      -- -- -- -- -- -- -- --  -- -- -- -- -- -- -- --
0000:       1F 00 00 80 01 80  02 80 1F 01 00             ...........   
```

#### Opcodes

```
  0: 0x0002 [0x1F] MOVE_ENTITY: EventEntity moves to X=212.990*, Z=53.680*, Y=-24.343*
  1: 0x000A [0x1F] MOVE_ENTITY: Update entity position (mode=1)
  2: 0x000C [0x00] END_REQSTACK()
```

### Event 65535.2

#### Metadata

| Field        | Value    |
|--------------|----------|
| Entrypoint   | 0x000D   |
| Data Size    | 21 bytes |
| Instructions | 2        |

```
      00 01 02 03 04 05 06 07  08 09 0A 0B 0C 0D 0E 0F
      -- -- -- -- -- -- -- --  -- -- -- -- -- -- -- --
0000:                                         B6 0B 03               ...
0010: 80 04 80 05 80 06 80 06  80 06 80 06 80 07 80 08  ................
0020: 80 00                                             ..              
```

#### Opcodes

```
  0: 0x000D [0xB6] ENTITY_APPEARANCE_HANDLER(case=Full entity look, race=3*, hair=12*, head=0*, body=221*, hands=221*, legs=221*, feet=221*, main=251*, sub=27*)
  1: 0x0021 [0x00] END_REQSTACK()
```

### Event 65535.3

#### Metadata

| Field        | Value    |
|--------------|----------|
| Entrypoint   | 0x0022   |
| Data Size    | 21 bytes |
| Instructions | 2        |

```
      00 01 02 03 04 05 06 07  08 09 0A 0B 0C 0D 0E 0F
      -- -- -- -- -- -- -- --  -- -- -- -- -- -- -- --
0020:       B6 0B 03 80 03 80  06 80 06 80 06 80 06 80    ..............
0030: 06 80 09 80 08 80 00                              .......         
```

#### Opcodes

```
  0: 0x0022 [0xB6] ENTITY_APPEARANCE_HANDLER(case=Full entity look, race=3*, hair=3*, head=221*, body=221*, hands=221*, legs=221*, feet=221*, main=250*, sub=27*)
  1: 0x0036 [0x00] END_REQSTACK()
```

### Event 65535.4

#### Metadata

| Field        | Value   |
|--------------|---------|
| Entrypoint   | 0x0037  |
| Data Size    | 5 bytes |
| Instructions | 2       |

```
      00 01 02 03 04 05 06 07  08 09 0A 0B 0C 0D 0E 0F
      -- -- -- -- -- -- -- --  -- -- -- -- -- -- -- --
0030:                      B6  0A 0A 80 00                     .....    
```

#### Opcodes

```
  0: 0x0037 [0xB6] ENTITY_APPEARANCE_HANDLER(case=Ranged, value=54*)
  1: 0x003B [0x00] END_REQSTACK()
```

### Event 65535.5

#### Metadata

| Field        | Value   |
|--------------|---------|
| Entrypoint   | 0x003C  |
| Data Size    | 5 bytes |
| Instructions | 2       |

```
      00 01 02 03 04 05 06 07  08 09 0A 0B 0C 0D 0E 0F
      -- -- -- -- -- -- -- --  -- -- -- -- -- -- -- --
0030:                                      B6 0A 05 80              ....
0040: 00                                                .               
```

#### Opcodes

```
  0: 0x003C [0xB6] ENTITY_APPEARANCE_HANDLER(case=Ranged, value=0*)
  1: 0x0040 [0x00] END_REQSTACK()
```

### Event 65535.6

#### Metadata

| Field        | Value    |
|--------------|----------|
| Entrypoint   | 0x0041   |
| Data Size    | 19 bytes |
| Instructions | 3        |

```
      00 01 02 03 04 05 06 07  08 09 0A 0B 0C 0D 0E 0F
      -- -- -- -- -- -- -- --  -- -- -- -- -- -- -- --
0040:    1C 0B 80 5B 0C 80 BD  A2 08 01 BD A2 08 01 62   ...[..........b
0050: 67 6E 31 00                                       gn1.            
```

#### Opcodes

```
  0: 0x0041 [0x1C] WAIT(210* ticks)
  1: 0x0044 [0x5B] LOAD_EXT_SCHEDULER: Load scheduler "bgn1" with entities [Ukai06 (ID: 17343165/0x0108A2BD), Ukai06 (ID: 17343165/0x0108A2BD)], work=3029*
  2: 0x0053 [0x00] END_REQSTACK()
```
