# 17343205 - Tetu04

## Common Data

| Field            | Value                              |
|------------------|------------------------------------|
| Zone             | Castle Zvahl Baileys [S] (ID: 138) |
| Block Size       | 720 bytes                          |
| Total Events     | 11                                 |
| References Count | 78                                 |

## List of Events

| Event ID                 | Entrypoint   |   Size |   Instructions |
|--------------------------|--------------|--------|----------------|
| [65535](#event-65535)    | 0x0000       |      1 |              1 |
| [14](#event-14)          | 0x0001       |      1 |              1 |
| [65535.1](#event-655351) | 0x0002       |     21 |              2 |
| [65535.2](#event-655352) | 0x0017       |     21 |              2 |
| [65535.3](#event-655353) | 0x002C       |     21 |              2 |
| [65535.4](#event-655354) | 0x0041       |     16 |              2 |
| [65535.5](#event-655355) | 0x0051       |     16 |              2 |
| [65535.6](#event-655356) | 0x0061       |     16 |              2 |
| [65535.7](#event-655357) | 0x0071       |     16 |              2 |
| [65535.8](#event-655358) | 0x0081       |     14 |              4 |
| [65535.9](#event-655359) | 0x008F       |    205 |             39 |

## DAT References (imed_data)

|   Index | Hex Value   |   Dec Value |
|---------|-------------|-------------|
|       0 | 0x0008      |           8 |
|       1 | 0x0000      |           0 |
|       2 | 0x0035      |          53 |
|       3 | 0x001B      |          27 |
|       4 | 0x003A      |          58 |
|       5 | 0x0003      |           3 |
|       6 | 0x0001      |           1 |
|       7 | 0x000D      |          13 |
|       8 | 0x00DD      |         221 |
|       9 | 0x000C      |          12 |
|      10 | 0x00FB      |         251 |
|      11 | 0x08E7      |        2279 |
|      12 | 0x08E5      |        2277 |
|      13 | 0x089C      |        2204 |
|      14 | 0x0083      |         131 |
|      15 | 0x002D      |          45 |
|      16 | 0xFFFBBCB9  |  4294687929 |
|      17 | 0x93E4      |       37860 |
|      18 | 0xFFFFB1E1  |  4294947297 |
|      19 | 0x001E      |          30 |
|      20 | 0xFFFBF7E5  |  4294703077 |
|      21 | 0x778A      |       30602 |
|      22 | 0xFFFFB7F1  |  4294948849 |
|      23 | 0xFFFBF73F  |  4294702911 |
|      24 | 0xC4BB      |       50363 |
|      25 | 0xFFFFB7D3  |  4294948819 |
|      26 | 0x037F      |         895 |
|      27 | 0x0028      |          40 |
|      28 | 0xFFFBFA3A  |  4294703674 |
|      29 | 0xBC27      |       48167 |
|      30 | 0xFFFFB708  |  4294948616 |
|      31 | 0xFFFBFC11  |  4294704145 |
|      32 | 0xB2AD      |       45741 |
|      33 | 0xFFFFB5F8  |  4294948344 |
|      34 | 0xFFFBFD07  |  4294704391 |
|      35 | 0xAEBB      |       44731 |
|      36 | 0xFFFFB575  |  4294948213 |
|      37 | 0xFFFBFEDA  |  4294704858 |
|      38 | 0xA96A      |       43370 |
|      39 | 0xFFFFB44E  |  4294947918 |
|      40 | 0xFFFC011A  |  4294705434 |
|      41 | 0xA42E      |       42030 |
|      42 | 0xFFFFB4B9  |  4294948025 |
|      43 | 0xFFFC052F  |  4294706479 |
|      44 | 0x9AA0      |       39584 |
|      45 | 0xFFFFB46C  |  4294947948 |
|      46 | 0xFFFC080A  |  4294707210 |
|      47 | 0x8D21      |       36129 |
|      48 | 0xFFFFB3BE  |  4294947774 |
|      49 | 0xFFFC10AE  |  4294709422 |
|      50 | 0x8281      |       33409 |
|      51 | 0xFFFFB42E  |  4294947886 |
|      52 | 0xFFFBC3E4  |  4294689764 |
|      53 | 0x97F8      |       38904 |
|      54 | 0xFFFFB1E0  |  4294947296 |
|      55 | 0x0029      |          41 |
|      56 | 0xFFFBC5E2  |  4294690274 |
|      57 | 0x8AC3      |       35523 |
|      58 | 0xFFFFB1F8  |  4294947320 |
|      59 | 0xFFFBC7C1  |  4294690753 |
|      60 | 0x85E8      |       34280 |
|      61 | 0xFFFFB235  |  4294947381 |
|      62 | 0xFFFBC941  |  4294691137 |
|      63 | 0x8206      |       33286 |
|      64 | 0xFFFFB23D  |  4294947389 |
|      65 | 0xFFFBCB0F  |  4294691599 |
|      66 | 0x7D29      |       32041 |
|      67 | 0xFFFFB2A5  |  4294947493 |
|      68 | 0xFFFBCD67  |  4294692199 |
|      69 | 0x76D6      |       30422 |
|      70 | 0xFFFFB378  |  4294947704 |
|      71 | 0xFFFBD4D1  |  4294694097 |
|      72 | 0x7C12      |       31762 |
|      73 | 0xFFFFB4C5  |  4294948037 |
|      74 | 0xFFFBDBF6  |  4294695926 |
|      75 | 0xB261      |       45665 |
|      76 | 0xFFFFB582  |  4294948226 |
|      77 | 0x0380      |         896 |

## Events

### Event 65535

#### Metadata

| Field        | Value   |
|--------------|---------|
| Entrypoint   | 0x0000  |
| Data Size    | 1 bytes |
| Instructions | 1       |

```
      00 01 02 03 04 05 06 07  08 09 0A 0B 0C 0D 0E 0F
      -- -- -- -- -- -- -- --  -- -- -- -- -- -- -- --
0000: 00                                                .               
```

#### Opcodes

```
  0: 0x0000 [0x00] END_REQSTACK()
```

### Event 14

#### Metadata

| Field        | Value   |
|--------------|---------|
| Entrypoint   | 0x0001  |
| Data Size    | 1 bytes |
| Instructions | 1       |

```
      00 01 02 03 04 05 06 07  08 09 0A 0B 0C 0D 0E 0F
      -- -- -- -- -- -- -- --  -- -- -- -- -- -- -- --
0000:    00                                              .              
```

#### Opcodes

```
  0: 0x0001 [0x00] END_REQSTACK()
```

### Event 65535.1

#### Metadata

| Field        | Value    |
|--------------|----------|
| Entrypoint   | 0x0002   |
| Data Size    | 21 bytes |
| Instructions | 2        |

```
      00 01 02 03 04 05 06 07  08 09 0A 0B 0C 0D 0E 0F
      -- -- -- -- -- -- -- --  -- -- -- -- -- -- -- --
0000:       B6 0B 00 80 01 80  01 80 02 80 02 80 02 80    ..............
0010: 02 80 03 80 01 80 00                              .......         
```

#### Opcodes

```
  0: 0x0002 [0xB6] ENTITY_APPEARANCE_HANDLER(case=Full entity look, race=8*, hair=0*, head=0*, body=53*, hands=53*, legs=53*, feet=53*, main=27*, sub=0*)
  1: 0x0016 [0x00] END_REQSTACK()
```

### Event 65535.2

#### Metadata

| Field        | Value    |
|--------------|----------|
| Entrypoint   | 0x0017   |
| Data Size    | 21 bytes |
| Instructions | 2        |

```
      00 01 02 03 04 05 06 07  08 09 0A 0B 0C 0D 0E 0F
      -- -- -- -- -- -- -- --  -- -- -- -- -- -- -- --
0010:                      B6  0B 00 80 01 80 04 80 04         .........
0020: 80 04 80 04 80 04 80 03  80 01 80 00              ............    
```

#### Opcodes

```
  0: 0x0017 [0xB6] ENTITY_APPEARANCE_HANDLER(case=Full entity look, race=8*, hair=0*, head=58*, body=58*, hands=58*, legs=58*, feet=58*, main=27*, sub=0*)
  1: 0x002B [0x00] END_REQSTACK()
```

### Event 65535.3

#### Metadata

| Field        | Value    |
|--------------|----------|
| Entrypoint   | 0x002C   |
| Data Size    | 21 bytes |
| Instructions | 2        |

```
      00 01 02 03 04 05 06 07  08 09 0A 0B 0C 0D 0E 0F
      -- -- -- -- -- -- -- --  -- -- -- -- -- -- -- --
0020:                                      B6 0B 05 80              ....
0030: 06 80 07 80 08 80 07 80  09 80 08 80 0A 80 03 80  ................
0040: 00                                                .               
```

#### Opcodes

```
  0: 0x002C [0xB6] ENTITY_APPEARANCE_HANDLER(case=Full entity look, race=3*, hair=1*, head=13*, body=221*, hands=13*, legs=12*, feet=221*, main=251*, sub=27*)
  1: 0x0040 [0x00] END_REQSTACK()
```

### Event 65535.4

#### Metadata

| Field        | Value    |
|--------------|----------|
| Entrypoint   | 0x0041   |
| Data Size    | 16 bytes |
| Instructions | 2        |

```
      00 01 02 03 04 05 06 07  08 09 0A 0B 0C 0D 0E 0F
      -- -- -- -- -- -- -- --  -- -- -- -- -- -- -- --
0040:    5B 0B 80 E5 A2 08 01  E5 A2 08 01 64 72 62 31   [..........drb1
0050: 00                                                .               
```

#### Opcodes

```
  0: 0x0041 [0x5B] LOAD_EXT_SCHEDULER: Load scheduler "drb1" with entities [Tetu04 (ID: 17343205/0x0108A2E5), Tetu04 (ID: 17343205/0x0108A2E5)], work=2279*
  1: 0x0050 [0x00] END_REQSTACK()
```

### Event 65535.5

#### Metadata

| Field        | Value    |
|--------------|----------|
| Entrypoint   | 0x0051   |
| Data Size    | 16 bytes |
| Instructions | 2        |

```
      00 01 02 03 04 05 06 07  08 09 0A 0B 0C 0D 0E 0F
      -- -- -- -- -- -- -- --  -- -- -- -- -- -- -- --
0050:    5B 0C 80 E5 A2 08 01  E5 A2 08 01 6B 65 6E 30   [..........ken0
0060: 00                                                .               
```

#### Opcodes

```
  0: 0x0051 [0x5B] LOAD_EXT_SCHEDULER: Load scheduler "ken0" with entities [Tetu04 (ID: 17343205/0x0108A2E5), Tetu04 (ID: 17343205/0x0108A2E5)], work=2277*
  1: 0x0060 [0x00] END_REQSTACK()
```

### Event 65535.6

#### Metadata

| Field        | Value    |
|--------------|----------|
| Entrypoint   | 0x0061   |
| Data Size    | 16 bytes |
| Instructions | 2        |

```
      00 01 02 03 04 05 06 07  08 09 0A 0B 0C 0D 0E 0F
      -- -- -- -- -- -- -- --  -- -- -- -- -- -- -- --
0060:    5B 0D 80 E5 A2 08 01  E5 A2 08 01 74 6F 6E 32   [..........ton2
0070: 00                                                .               
```

#### Opcodes

```
  0: 0x0061 [0x5B] LOAD_EXT_SCHEDULER: Load scheduler "ton2" with entities [Tetu04 (ID: 17343205/0x0108A2E5), Tetu04 (ID: 17343205/0x0108A2E5)], work=2204*
  1: 0x0070 [0x00] END_REQSTACK()
```

### Event 65535.7

#### Metadata

| Field        | Value    |
|--------------|----------|
| Entrypoint   | 0x0071   |
| Data Size    | 16 bytes |
| Instructions | 2        |

```
      00 01 02 03 04 05 06 07  08 09 0A 0B 0C 0D 0E 0F
      -- -- -- -- -- -- -- --  -- -- -- -- -- -- -- --
0070:    66 0E 80 E5 A2 08 01  E5 A2 08 01 6C 6C 7A 30   f..........llz0
0080: 00                                                .               
```

#### Opcodes

```
  0: 0x0071 [0x66] LOAD_EXT_SCHEDULER_MAIN: Load scheduler "llz0" with entities [Tetu04 (ID: 17343205/0x0108A2E5), Tetu04 (ID: 17343205/0x0108A2E5)], work=131*
  1: 0x0080 [0x00] END_REQSTACK()
```

### Event 65535.8

#### Metadata

| Field        | Value    |
|--------------|----------|
| Entrypoint   | 0x0081   |
| Data Size    | 14 bytes |
| Instructions | 4        |

```
      00 01 02 03 04 05 06 07  08 09 0A 0B 0C 0D 0E 0F
      -- -- -- -- -- -- -- --  -- -- -- -- -- -- -- --
0080:    32 0F 80 1F 00 10 80  11 80 12 80 1F 01 00      2............. 
```

#### Opcodes

```
  0: 0x0081 [0x32] ExtData[1]->MainSpeed = 45* * 0.1
  1: 0x0084 [0x1F] MOVE_ENTITY: EventEntity moves to X=-279.367*, Z=37.860*, Y=-19.999*
  2: 0x008C [0x1F] MOVE_ENTITY: Update entity position (mode=1)
  3: 0x008E [0x00] END_REQSTACK()
```

### Event 65535.9

#### Metadata

| Field        | Value     |
|--------------|-----------|
| Entrypoint   | 0x008F    |
| Data Size    | 205 bytes |
| Instructions | 38        |

```
      00 01 02 03 04 05 06 07  08 09 0A 0B 0C 0D 0E 0F
      -- -- -- -- -- -- -- --  -- -- -- -- -- -- -- --
0080:                                               1C                 .
0090: 13 80 32 0F 80 1F 00 14  80 15 80 16 80 1F 01 BA  ..2.............
00A0: E5 A2 08 01 17 80 18 80  19 80 1A 80 32 1B 80 1F  ............2...
00B0: 00 1C 80 1D 80 1E 80 1F  01 1F 00 1F 80 20 80 21  ............. .!
00C0: 80 1F 01 1F 00 22 80 23  80 24 80 1F 01 1F 00 25  .....".#.$.....%
00D0: 80 26 80 27 80 1F 01 1F  00 28 80 29 80 2A 80 1F  .&.'.....(.).*..
00E0: 01 1F 00 2B 80 2C 80 2D  80 1F 01 1F 00 2E 80 2F  ...+.,.-......./
00F0: 80 30 80 1F 01 1F 00 31  80 32 80 33 80 1F 01 BA  .0.....1.2.3....
0100: E5 A2 08 01 34 80 35 80  36 80 1A 80 32 37 80 1F  ....4.5.6...27..
0110: 00 38 80 39 80 3A 80 1F  01 1F 00 3B 80 3C 80 3D  .8.9.:.....;.<.=
0120: 80 1F 01 1F 00 3E 80 3F  80 40 80 1F 01 1F 00 41  .....>.?.@.....A
0130: 80 42 80 43 80 1F 01 1F  00 44 80 45 80 46 80 1F  .B.C.....D.E.F..
0140: 01 1F 00 47 80 48 80 49  80 1F 01 BA E5 A2 08 01  ...G.H.I........
0150: 4A 80 4B 80 4C 80 4D 80  01 8F 00 00              J.K.L.M.....    
```

#### Opcodes

```
  0: 0x008F [0x1C] WAIT(30* ticks)
  1: 0x0092 [0x32] ExtData[1]->MainSpeed = 45* * 0.1
  2: 0x0095 [0x1F] MOVE_ENTITY: EventEntity moves to X=-264.219*, Z=30.602*, Y=-18.447*
  3: 0x009D [0x1F] MOVE_ENTITY: Update entity position (mode=1)
  4: 0x009F [0xBA] SET_ENTITY_POSITION(entity_id=Tetu04 (ID: 17343205/0x0108A2E5), pos_x=-264.385*, pos_z=50.363*, pos_y=-18.477*, direction=78.7°*)
  5: 0x00AC [0x32] ExtData[1]->MainSpeed = 40* * 0.1
  6: 0x00AF [0x1F] MOVE_ENTITY: EventEntity moves to X=-263.622*, Z=48.167*, Y=-18.680*
  7: 0x00B7 [0x1F] MOVE_ENTITY: Update entity position (mode=1)
  8: 0x00B9 [0x1F] MOVE_ENTITY: EventEntity moves to X=-263.151*, Z=45.741*, Y=-18.952*
  9: 0x00C1 [0x1F] MOVE_ENTITY: Update entity position (mode=1)
 10: 0x00C3 [0x1F] MOVE_ENTITY: EventEntity moves to X=-262.905*, Z=44.731*, Y=-19.083*
 11: 0x00CB [0x1F] MOVE_ENTITY: Update entity position (mode=1)
 12: 0x00CD [0x1F] MOVE_ENTITY: EventEntity moves to X=-262.438*, Z=43.370*, Y=-19.378*
 13: 0x00D5 [0x1F] MOVE_ENTITY: Update entity position (mode=1)
 14: 0x00D7 [0x1F] MOVE_ENTITY: EventEntity moves to X=-261.862*, Z=42.030*, Y=-19.271*
 15: 0x00DF [0x1F] MOVE_ENTITY: Update entity position (mode=1)
 16: 0x00E1 [0x1F] MOVE_ENTITY: EventEntity moves to X=-260.817*, Z=39.584*, Y=-19.348*
 17: 0x00E9 [0x1F] MOVE_ENTITY: Update entity position (mode=1)
 18: 0x00EB [0x1F] MOVE_ENTITY: EventEntity moves to X=-260.086*, Z=36.129*, Y=-19.522*
 19: 0x00F3 [0x1F] MOVE_ENTITY: Update entity position (mode=1)
 20: 0x00F5 [0x1F] MOVE_ENTITY: EventEntity moves to X=-257.874*, Z=33.409*, Y=-19.410*
 21: 0x00FD [0x1F] MOVE_ENTITY: Update entity position (mode=1)
 22: 0x00FF [0xBA] SET_ENTITY_POSITION(entity_id=Tetu04 (ID: 17343205/0x0108A2E5), pos_x=-277.532*, pos_z=38.904*, pos_y=-20.000*, direction=78.7°*)
 23: 0x010C [0x32] ExtData[1]->MainSpeed = 41* * 0.1
 24: 0x010F [0x1F] MOVE_ENTITY: EventEntity moves to X=-277.022*, Z=35.523*, Y=-19.976*
 25: 0x0117 [0x1F] MOVE_ENTITY: Update entity position (mode=1)
 26: 0x0119 [0x1F] MOVE_ENTITY: EventEntity moves to X=-276.543*, Z=34.280*, Y=-19.915*
 27: 0x0121 [0x1F] MOVE_ENTITY: Update entity position (mode=1)
 28: 0x0123 [0x1F] MOVE_ENTITY: EventEntity moves to X=-276.159*, Z=33.286*, Y=-19.907*
 29: 0x012B [0x1F] MOVE_ENTITY: Update entity position (mode=1)
 30: 0x012D [0x1F] MOVE_ENTITY: EventEntity moves to X=-275.697*, Z=32.041*, Y=-19.803*
 31: 0x0135 [0x1F] MOVE_ENTITY: Update entity position (mode=1)
 32: 0x0137 [0x1F] MOVE_ENTITY: EventEntity moves to X=-275.097*, Z=30.422*, Y=-19.592*
 33: 0x013F [0x1F] MOVE_ENTITY: Update entity position (mode=1)
 34: 0x0141 [0x1F] MOVE_ENTITY: EventEntity moves to X=-273.199*, Z=31.762*, Y=-19.259*
 35: 0x0149 [0x1F] MOVE_ENTITY: Update entity position (mode=1)
 36: 0x014B [0xBA] SET_ENTITY_POSITION(entity_id=Tetu04 (ID: 17343205/0x0108A2E5), pos_x=-271.370*, pos_z=45.665*, pos_y=-19.070*, direction=78.7°*)
 37: 0x0158 [0x01] GOTO 0x008F
```

#### Data or dead code:

```
# Dead code (unreachable instructions):
     0x015B [0x00] END_REQSTACK()
```
