# 17343160 - Ukai01

## Common Data

| Field            | Value                              |
|------------------|------------------------------------|
| Zone             | Castle Zvahl Baileys [S] (ID: 138) |
| Block Size       | 440 bytes                          |
| Total Events     | 15                                 |
| References Count | 33                                 |

## List of Events

| Event ID                   | Entrypoint   |   Size |   Instructions |
|----------------------------|--------------|--------|----------------|
| [65535](#event-65535)      | 0x0000       |      1 |              1 |
| [1](#event-1)              | 0x0001       |      1 |              1 |
| [65535.1](#event-655351)   | 0x0002       |     14 |              4 |
| [65535.2](#event-655352)   | 0x0010       |     14 |              4 |
| [65535.3](#event-655353)   | 0x001E       |     61 |             11 |
| [65535.4](#event-655354)   | 0x005B       |     11 |              3 |
| [65535.5](#event-655355)   | 0x0066       |     10 |              2 |
| [65535.6](#event-655356)   | 0x0070       |     10 |              2 |
| [65535.7](#event-655357)   | 0x007A       |     21 |              2 |
| [65535.8](#event-655358)   | 0x008F       |     21 |              2 |
| [65535.9](#event-655359)   | 0x00A4       |     21 |              2 |
| [65535.10](#event-6553510) | 0x00B9       |      5 |              2 |
| [65535.11](#event-6553511) | 0x00BE       |      5 |              2 |
| [65535.12](#event-6553512) | 0x00C3       |     19 |              3 |
| [65535.13](#event-6553513) | 0x00D6       |     16 |              2 |

## DAT References (imed_data)

|   Index | Hex Value   |   Dec Value |
|---------|-------------|-------------|
|       0 | 0x000E      |          14 |
|       1 | 0xFFFA4BD2  |  4294593490 |
|       2 | 0xFFFF9342  |  4294939458 |
|       3 | 0xFFFFEC13  |  4294962195 |
|       4 | 0x0028      |          40 |
|       5 | 0x29AEE     |      170734 |
|       6 | 0x451D      |       17693 |
|       7 | 0xFFFFA1A5  |  4294943141 |
|       8 | 0x3A460     |      238688 |
|       9 | 0xDEF6      |       57078 |
|      10 | 0xFFFFA222  |  4294943266 |
|      11 | 0x001D      |          29 |
|      12 | 0x0096      |         150 |
|      13 | 0x003C      |          60 |
|      14 | 0x35D93     |      220563 |
|      15 | 0xE033      |       57395 |
|      16 | 0xFFFFA240  |  4294943296 |
|      17 | 0xFFFBC32B  |  4294689579 |
|      18 | 0x3AC0      |       15040 |
|      19 | 0xFFFFB49D  |  4294947997 |
|      20 | 0x0000      |           0 |
|      21 | 0x0001      |           1 |
|      22 | 0x0080      |         128 |
|      23 | 0x0003      |           3 |
|      24 | 0x0004      |           4 |
|      25 | 0x00DD      |         221 |
|      26 | 0x001B      |          27 |
|      27 | 0x00FB      |         251 |
|      28 | 0x000D      |          13 |
|      29 | 0x000C      |          12 |
|      30 | 0x0036      |          54 |
|      31 | 0x0BD5      |        3029 |
|      32 | 0x0B5D      |        2909 |

## Events

### Event 65535

#### Metadata

| Field        | Value   |
|--------------|---------|
| Entrypoint   | 0x0000  |
| Data Size    | 1 bytes |
| Instructions | 1       |

```
      00 01 02 03 04 05 06 07  08 09 0A 0B 0C 0D 0E 0F
      -- -- -- -- -- -- -- --  -- -- -- -- -- -- -- --
0000: 00                                                .               
```

#### Opcodes

```
  0: 0x0000 [0x00] END_REQSTACK()
```

### Event 1

#### Metadata

| Field        | Value   |
|--------------|---------|
| Entrypoint   | 0x0001  |
| Data Size    | 1 bytes |
| Instructions | 1       |

```
      00 01 02 03 04 05 06 07  08 09 0A 0B 0C 0D 0E 0F
      -- -- -- -- -- -- -- --  -- -- -- -- -- -- -- --
0000:    00                                              .              
```

#### Opcodes

```
  0: 0x0001 [0x00] END_REQSTACK()
```

### Event 65535.1

#### Metadata

| Field        | Value    |
|--------------|----------|
| Entrypoint   | 0x0002   |
| Data Size    | 14 bytes |
| Instructions | 4        |

```
      00 01 02 03 04 05 06 07  08 09 0A 0B 0C 0D 0E 0F
      -- -- -- -- -- -- -- --  -- -- -- -- -- -- -- --
0000:       32 00 80 1F 00 01  80 02 80 03 80 1F 01 00    2.............
```

#### Opcodes

```
  0: 0x0002 [0x32] ExtData[1]->MainSpeed = 14* * 0.1
  1: 0x0005 [0x1F] MOVE_ENTITY: EventEntity moves to X=-373.806*, Z=-27.838*, Y=-5.101*
  2: 0x000D [0x1F] MOVE_ENTITY: Update entity position (mode=1)
  3: 0x000F [0x00] END_REQSTACK()
```

### Event 65535.2

#### Metadata

| Field        | Value    |
|--------------|----------|
| Entrypoint   | 0x0010   |
| Data Size    | 14 bytes |
| Instructions | 4        |

```
      00 01 02 03 04 05 06 07  08 09 0A 0B 0C 0D 0E 0F
      -- -- -- -- -- -- -- --  -- -- -- -- -- -- -- --
0010: 32 04 80 1F 00 05 80 06  80 07 80 1F 01 00        2.............  
```

#### Opcodes

```
  0: 0x0010 [0x32] ExtData[1]->MainSpeed = 40* * 0.1
  1: 0x0013 [0x1F] MOVE_ENTITY: EventEntity moves to X=170.734*, Z=17.693*, Y=-24.155*
  2: 0x001B [0x1F] MOVE_ENTITY: Update entity position (mode=1)
  3: 0x001D [0x00] END_REQSTACK()
```

### Event 65535.3

#### Metadata

| Field        | Value    |
|--------------|----------|
| Entrypoint   | 0x001E   |
| Data Size    | 61 bytes |
| Instructions | 11       |

```
      00 01 02 03 04 05 06 07  08 09 0A 0B 0C 0D 0E 0F
      -- -- -- -- -- -- -- --  -- -- -- -- -- -- -- --
0010:                                            32 04                2.
0020: 80 1F 00 08 80 09 80 0A  80 1F 01 6F 66 0B 80 B8  ...........of...
0030: A2 08 01 B8 A2 08 01 73  68 61 30 1C 0C 80 66 0B  .......sha0...f.
0040: 80 B8 A2 08 01 B8 A2 08  01 73 68 61 31 1C 0D 80  .........sha1...
0050: 1F 00 0E 80 0F 80 10 80  1F 01 00                 ...........     
```

#### Opcodes

```
  0: 0x001E [0x32] ExtData[1]->MainSpeed = 40* * 0.1
  1: 0x0021 [0x1F] MOVE_ENTITY: EventEntity moves to X=238.688*, Z=57.078*, Y=-24.030*
  2: 0x0029 [0x1F] MOVE_ENTITY: Update entity position (mode=1)
  3: 0x002B [0x6F] WAIT_FRAME_DELAY: Yield until WaitTime reaches zero
  4: 0x002C [0x66] LOAD_EXT_SCHEDULER_MAIN: Load scheduler "sha0" with entities [Ukai01 (ID: 17343160/0x0108A2B8), Ukai01 (ID: 17343160/0x0108A2B8)], work=29*
  5: 0x003B [0x1C] WAIT(150* ticks)
  6: 0x003E [0x66] LOAD_EXT_SCHEDULER_MAIN: Load scheduler "sha1" with entities [Ukai01 (ID: 17343160/0x0108A2B8), Ukai01 (ID: 17343160/0x0108A2B8)], work=29*
  7: 0x004D [0x1C] WAIT(60* ticks)
  8: 0x0050 [0x1F] MOVE_ENTITY: EventEntity moves to X=220.563*, Z=57.395*, Y=-24.000*
  9: 0x0058 [0x1F] MOVE_ENTITY: Update entity position (mode=1)
 10: 0x005A [0x00] END_REQSTACK()
```

### Event 65535.4

#### Metadata

| Field        | Value    |
|--------------|----------|
| Entrypoint   | 0x005B   |
| Data Size    | 11 bytes |
| Instructions | 3        |

```
      00 01 02 03 04 05 06 07  08 09 0A 0B 0C 0D 0E 0F
      -- -- -- -- -- -- -- --  -- -- -- -- -- -- -- --
0050:                                   1F 00 11 80 12             .....
0060: 80 13 80 1F 01 00                                 ......          
```

#### Opcodes

```
  0: 0x005B [0x1F] MOVE_ENTITY: EventEntity moves to X=-277.717*, Z=15.040*, Y=-19.299*
  1: 0x0063 [0x1F] MOVE_ENTITY: Update entity position (mode=1)
  2: 0x0065 [0x00] END_REQSTACK()
```

### Event 65535.5

#### Metadata

| Field        | Value    |
|--------------|----------|
| Entrypoint   | 0x0066   |
| Data Size    | 10 bytes |
| Instructions | 2        |

```
      00 01 02 03 04 05 06 07  08 09 0A 0B 0C 0D 0E 0F
      -- -- -- -- -- -- -- --  -- -- -- -- -- -- -- --
0060:                   6C B8  A2 08 01 14 80 15 80 00        l.........
```

#### Opcodes

```
  0: 0x0066 [0x6C] FADE_ENTITY_COLOR(entity_id=Ukai01 (ID: 17343160/0x0108A2B8), end_alpha=0*, fade_time=1*)
  1: 0x006F [0x00] END_REQSTACK()
```

### Event 65535.6

#### Metadata

| Field        | Value    |
|--------------|----------|
| Entrypoint   | 0x0070   |
| Data Size    | 10 bytes |
| Instructions | 2        |

```
      00 01 02 03 04 05 06 07  08 09 0A 0B 0C 0D 0E 0F
      -- -- -- -- -- -- -- --  -- -- -- -- -- -- -- --
0070: 6C B8 A2 08 01 16 80 15  80 00                    l.........      
```

#### Opcodes

```
  0: 0x0070 [0x6C] FADE_ENTITY_COLOR(entity_id=Ukai01 (ID: 17343160/0x0108A2B8), end_alpha=128*, fade_time=1*)
  1: 0x0079 [0x00] END_REQSTACK()
```

### Event 65535.7

#### Metadata

| Field        | Value    |
|--------------|----------|
| Entrypoint   | 0x007A   |
| Data Size    | 21 bytes |
| Instructions | 2        |

```
      00 01 02 03 04 05 06 07  08 09 0A 0B 0C 0D 0E 0F
      -- -- -- -- -- -- -- --  -- -- -- -- -- -- -- --
0070:                                B6 0B 17 80 18 80            ......
0080: 14 80 19 80 19 80 19 80  19 80 1A 80 14 80 00     ............... 
```

#### Opcodes

```
  0: 0x007A [0xB6] ENTITY_APPEARANCE_HANDLER(case=Full entity look, race=3*, hair=4*, head=0*, body=221*, hands=221*, legs=221*, feet=221*, main=27*, sub=0*)
  1: 0x008E [0x00] END_REQSTACK()
```

### Event 65535.8

#### Metadata

| Field        | Value    |
|--------------|----------|
| Entrypoint   | 0x008F   |
| Data Size    | 21 bytes |
| Instructions | 2        |

```
      00 01 02 03 04 05 06 07  08 09 0A 0B 0C 0D 0E 0F
      -- -- -- -- -- -- -- --  -- -- -- -- -- -- -- --
0080:                                               B6                 .
0090: 0B 17 80 18 80 14 80 19  80 19 80 19 80 19 80 1B  ................
00A0: 80 1A 80 00                                       ....            
```

#### Opcodes

```
  0: 0x008F [0xB6] ENTITY_APPEARANCE_HANDLER(case=Full entity look, race=3*, hair=4*, head=0*, body=221*, hands=221*, legs=221*, feet=221*, main=251*, sub=27*)
  1: 0x00A3 [0x00] END_REQSTACK()
```

### Event 65535.9

#### Metadata

| Field        | Value    |
|--------------|----------|
| Entrypoint   | 0x00A4   |
| Data Size    | 21 bytes |
| Instructions | 2        |

```
      00 01 02 03 04 05 06 07  08 09 0A 0B 0C 0D 0E 0F
      -- -- -- -- -- -- -- --  -- -- -- -- -- -- -- --
00A0:             B6 0B 17 80  18 80 1C 80 19 80 1C 80      ............
00B0: 1D 80 19 80 1B 80 1A 80  00                       .........       
```

#### Opcodes

```
  0: 0x00A4 [0xB6] ENTITY_APPEARANCE_HANDLER(case=Full entity look, race=3*, hair=4*, head=13*, body=221*, hands=13*, legs=12*, feet=221*, main=251*, sub=27*)
  1: 0x00B8 [0x00] END_REQSTACK()
```

### Event 65535.10

#### Metadata

| Field        | Value   |
|--------------|---------|
| Entrypoint   | 0x00B9  |
| Data Size    | 5 bytes |
| Instructions | 2       |

```
      00 01 02 03 04 05 06 07  08 09 0A 0B 0C 0D 0E 0F
      -- -- -- -- -- -- -- --  -- -- -- -- -- -- -- --
00B0:                             B6 0A 1E 80 00                 .....  
```

#### Opcodes

```
  0: 0x00B9 [0xB6] ENTITY_APPEARANCE_HANDLER(case=Ranged, value=54*)
  1: 0x00BD [0x00] END_REQSTACK()
```

### Event 65535.11

#### Metadata

| Field        | Value   |
|--------------|---------|
| Entrypoint   | 0x00BE  |
| Data Size    | 5 bytes |
| Instructions | 2       |

```
      00 01 02 03 04 05 06 07  08 09 0A 0B 0C 0D 0E 0F
      -- -- -- -- -- -- -- --  -- -- -- -- -- -- -- --
00B0:                                            B6 0A                ..
00C0: 14 80 00                                          ...             
```

#### Opcodes

```
  0: 0x00BE [0xB6] ENTITY_APPEARANCE_HANDLER(case=Ranged, value=0*)
  1: 0x00C2 [0x00] END_REQSTACK()
```

### Event 65535.12

#### Metadata

| Field        | Value    |
|--------------|----------|
| Entrypoint   | 0x00C3   |
| Data Size    | 19 bytes |
| Instructions | 3        |

```
      00 01 02 03 04 05 06 07  08 09 0A 0B 0C 0D 0E 0F
      -- -- -- -- -- -- -- --  -- -- -- -- -- -- -- --
00C0:          1C 0D 80 5B 1F  80 B8 A2 08 01 B8 A2 08     ...[.........
00D0: 01 62 67 6E 31 00                                 .bgn1.          
```

#### Opcodes

```
  0: 0x00C3 [0x1C] WAIT(60* ticks)
  1: 0x00C6 [0x5B] LOAD_EXT_SCHEDULER: Load scheduler "bgn1" with entities [Ukai01 (ID: 17343160/0x0108A2B8), Ukai01 (ID: 17343160/0x0108A2B8)], work=3029*
  2: 0x00D5 [0x00] END_REQSTACK()
```

### Event 65535.13

#### Metadata

| Field        | Value    |
|--------------|----------|
| Entrypoint   | 0x00D6   |
| Data Size    | 16 bytes |
| Instructions | 2        |

```
      00 01 02 03 04 05 06 07  08 09 0A 0B 0C 0D 0E 0F
      -- -- -- -- -- -- -- --  -- -- -- -- -- -- -- --
00D0:                   5B 20  80 B8 A2 08 01 B8 A2 08        [ ........
00E0: 01 64 73 68 30 00                                 .dsh0.          
```

#### Opcodes

```
  0: 0x00D6 [0x5B] LOAD_EXT_SCHEDULER: Load scheduler "dsh0" with entities [Ukai01 (ID: 17343160/0x0108A2B8), Ukai01 (ID: 17343160/0x0108A2B8)], work=2909*
  1: 0x00E5 [0x00] END_REQSTACK()
```
