# 17343177

## Common Data

| Field            | Value                              |
|------------------|------------------------------------|
| Zone             | Castle Zvahl Baileys [S] (ID: 138) |
| Block Size       | 18504 bytes                        |
| Total Events     | 3                                  |
| References Count | 503                                |

## List of Events

| Event ID              | Entrypoint   |   Size |   Instructions |
|-----------------------|--------------|--------|----------------|
| [65535](#event-65535) | 0x0000       |      1 |              1 |
| [12](#event-12)       | 0x0001       |   4616 |            540 |
| [13](#event-13)       | 0x1209       |  11846 |           1201 |

## DAT References (imed_data)

|   Index | Hex Value   |   Dec Value |
|---------|-------------|-------------|
|       0 | 0x001B      |          27 |
|       1 | 0x5EE95     |      388757 |
|       2 | 0xFFFFB1EA  |  4294947306 |
|       3 | 0xFFFFD120  |  4294955296 |
|       4 | 0x07F8      |        2040 |
|       5 | 0x5B366     |      373606 |
|       6 | 0xFFFFB3F5  |  4294947829 |
|       7 | 0xFFFFD116  |  4294955286 |
|       8 | 0x0807      |        2055 |
|       9 | 0x5B161     |      373089 |
|      10 | 0xFFFFA92F  |  4294945071 |
|      11 | 0xFFFFD113  |  4294955283 |
|      12 | 0x5AAD6     |      371414 |
|      13 | 0xFFFFB8C6  |  4294949062 |
|      14 | 0xFFFFD11F  |  4294955295 |
|      15 | 0x5A914     |      370964 |
|      16 | 0xFFFFAE8E  |  4294946446 |
|      17 | 0xFFFFD10D  |  4294955277 |
|      18 | 0x4E51B     |      320795 |
|      19 | 0xFFFFAAD9  |  4294945497 |
|      20 | 0xFFFFC180  |  4294951296 |
|      21 | 0x0BF9      |        3065 |
|      22 | 0x4F154     |      323924 |
|      23 | 0xFFFFA6D1  |  4294944465 |
|      24 | 0xFFFFC16C  |  4294951276 |
|      25 | 0x08A1      |        2209 |
|      26 | 0x4FC4B     |      326731 |
|      27 | 0xFFFFAA72  |  4294945394 |
|      28 | 0xFFFFC162  |  4294951266 |
|      29 | 0x07F6      |        2038 |
|      30 | 0x4E5F8     |      321016 |
|      31 | 0xFFFFB0E4  |  4294947044 |
|      32 | 0x4FB9D     |      326557 |
|      33 | 0xFFFFA61C  |  4294944284 |
|      34 | 0x0809      |        2057 |
|      35 | 0x4934C     |      299852 |
|      36 | 0xFFFFE4CD  |  4294960333 |
|      37 | 0xFFFFC172  |  4294951282 |
|      38 | 0x4DA30     |      318000 |
|      39 | 0xFFFFB0AA  |  4294946986 |
|      40 | 0x0000      |           0 |
|      41 | 0x4DC81     |      318593 |
|      42 | 0xFFFFB8D6  |  4294949078 |
|      43 | 0x08D8      |        2264 |
|      44 | 0x4D6B4     |      317108 |
|      45 | 0xFFFFACC3  |  4294945987 |
|      46 | 0x04DF      |        1247 |
|      47 | 0x003C      |          60 |
|      48 | 0x05F9      |        1529 |
|      49 | 0x0018      |          24 |
|      50 | 0x00B4      |         180 |
|      51 | 0x01FE      |         510 |
|      52 | 0x005A      |          90 |
|      53 | 0x0078      |         120 |
|      54 | 0x0008      |           8 |
|      55 | 0x0096      |         150 |
|      56 | 0x1E5E      |        7774 |
|      57 | 0x001E      |          30 |
|      58 | 0x0007      |           7 |
|      59 | 0x57670     |      358000 |
|      60 | 0x1E5F      |        7775 |
|      61 | 0x03FC      |        1020 |
|      62 | 0x0003      |           3 |
|      63 | 0x0013      |          19 |
|      64 | 0x4B09C     |      307356 |
|      65 | 0xFFFFB9B7  |  4294949303 |
|      66 | 0x0080      |         128 |
|      67 | 0xFFFFA434  |  4294943796 |
|      68 | 0x1E60      |        7776 |
|      69 | 0x1E61      |        7777 |
|      70 | 0x1E62      |        7778 |
|      71 | 0x1E63      |        7779 |
|      72 | 0x002B      |          43 |
|      73 | 0x1E64      |        7780 |
|      74 | 0x003B      |          59 |
|      75 | 0x54E2F     |      347695 |
|      76 | 0xFFFFB452  |  4294947922 |
|      77 | 0xFFFFD0D6  |  4294955222 |
|      78 | 0x53564     |      341348 |
|      79 | 0xFFFFB2DE  |  4294947550 |
|      80 | 0xFFFFCB45  |  4294953797 |
|      81 | 0x54053     |      344147 |
|      82 | 0xFFFFA90B  |  4294945035 |
|      83 | 0xFFFFCD38  |  4294954296 |
|      84 | 0x54115     |      344341 |
|      85 | 0xFFFFB7E7  |  4294948839 |
|      86 | 0xFFFFCE33  |  4294954547 |
|      87 | 0x54EB2     |      347826 |
|      88 | 0xFFFFAE60  |  4294946400 |
|      89 | 0xFFFFD0DF  |  4294955231 |
|      90 | 0x012C      |         300 |
|      91 | 0x00E1      |         225 |
|      92 | 0x0102      |         258 |
|      93 | 0x1E65      |        7781 |
|      94 | 0x1E66      |        7782 |
|      95 | 0x00C8      |         200 |
|      96 | 0x1E67      |        7783 |
|      97 | 0x1E68      |        7784 |
|      98 | 0x001D      |          29 |
|      99 | 0x1E69      |        7785 |
|     100 | 0x1E6A      |        7786 |
|     101 | 0x1E6B      |        7787 |
|     102 | 0x0575      |        1397 |
|     103 | 0x1E6C      |        7788 |
|     104 | 0x1E6D      |        7789 |
|     105 | 0x1E6E      |        7790 |
|     106 | 0x49A3D     |      301629 |
|     107 | 0xFFFFDBC1  |  4294958017 |
|     108 | 0xFFFFC17C  |  4294951292 |
|     109 | 0x078B      |        1931 |
|     110 | 0x00F0      |         240 |
|     111 | 0x1E6F      |        7791 |
|     112 | 0x1E70      |        7792 |
|     113 | 0x1E71      |        7793 |
|     114 | 0x0002      |           2 |
|     115 | 0x1E72      |        7794 |
|     116 | 0x4ACCD     |      306381 |
|     117 | 0xFFFFB33C  |  4294947644 |
|     118 | 0xFFFFC163  |  4294951267 |
|     119 | 0x0BE7      |        3047 |
|     120 | 0x4A949     |      305481 |
|     121 | 0xFFFFB857  |  4294948951 |
|     122 | 0x0F6E      |        3950 |
|     123 | 0x4A183     |      303491 |
|     124 | 0xFFFFB35F  |  4294947679 |
|     125 | 0x0E74      |        3700 |
|     126 | 0x4A9C4     |      305604 |
|     127 | 0xFFFFBE34  |  4294950452 |
|     128 | 0xFFFFC165  |  4294951269 |
|     129 | 0x01F4      |         500 |
|     130 | 0x4A1A5     |      303525 |
|     131 | 0xFFFFBC01  |  4294949889 |
|     132 | 0xFFFFC176  |  4294951286 |
|     133 | 0x0064      |         100 |
|     134 | 0x0011      |          17 |
|     135 | 0x1E73      |        7795 |
|     136 | 0x1E74      |        7796 |
|     137 | 0x1E75      |        7797 |
|     138 | 0x1E76      |        7798 |
|     139 | 0x1E77      |        7799 |
|     140 | 0x0404      |        1028 |
|     141 | 0x1E78      |        7800 |
|     142 | 0x1E79      |        7801 |
|     143 | 0x0088      |         136 |
|     144 | 0x1E7A      |        7802 |
|     145 | 0x1E7B      |        7803 |
|     146 | 0x0406      |        1030 |
|     147 | 0x1E7C      |        7804 |
|     148 | 0x1E7D      |        7805 |
|     149 | 0x013B      |         315 |
|     150 | 0x1E7E      |        7806 |
|     151 | 0x1E7F      |        7807 |
|     152 | 0x1E80      |        7808 |
|     153 | 0x1E81      |        7809 |
|     154 | 0x1E82      |        7810 |
|     155 | 0x1E83      |        7811 |
|     156 | 0x008A      |         138 |
|     157 | 0x1E84      |        7812 |
|     158 | 0x1E85      |        7813 |
|     159 | 0x1E86      |        7814 |
|     160 | 0x1E87      |        7815 |
|     161 | 0x00EB      |         235 |
|     162 | 0xFFFEB440  |  4294882368 |
|     163 | 0x4A30      |       18992 |
|     164 | 0xFFFFA223  |  4294943267 |
|     165 | 0x08FD      |        2301 |
|     166 | 0xFFFEBC60  |  4294884448 |
|     167 | 0x5382      |       21378 |
|     168 | 0xFFFFA240  |  4294943296 |
|     169 | 0x07A6      |        1958 |
|     170 | 0xFFFE79CC  |  4294867404 |
|     171 | 0x4D85      |       19845 |
|     172 | 0x000B      |          11 |
|     173 | 0xFFFEC4A6  |  4294886566 |
|     174 | 0x4FC5      |       20421 |
|     175 | 0x0EEC      |        3820 |
|     176 | 0x00F4      |         244 |
|     177 | 0x020F      |         527 |
|     178 | 0x000F      |          15 |
|     179 | 0x1E88      |        7816 |
|     180 | 0x1E89      |        7817 |
|     181 | 0x005D      |          93 |
|     182 | 0x00FF      |         255 |
|     183 | 0x0001      |           1 |
|     184 | 0x1D417     |      119831 |
|     185 | 0x27FE9     |      163817 |
|     186 | 0x03E7      |         999 |
|     187 | 0x0EBD      |        3773 |
|     188 | 0x1E5A2     |      124322 |
|     189 | 0x287AF     |      165807 |
|     190 | 0x02D5      |         725 |
|     191 | 0x1F067     |      127079 |
|     192 | 0x2893F     |      166207 |
|     193 | 0x07FD      |        2045 |
|     194 | 0x1EF1A     |      126746 |
|     195 | 0x28F01     |      167681 |
|     196 | 0x0473      |        1139 |
|     197 | 0x1F83A     |      129082 |
|     198 | 0x28001     |      163841 |
|     199 | 0x043D      |        1085 |
|     200 | 0x087E      |        2174 |
|     201 | 0x1F0D2     |      127186 |
|     202 | 0x27937     |      162103 |
|     203 | 0x097D      |        2429 |
|     204 | 0x1EA08     |      125448 |
|     205 | 0x29514     |      169236 |
|     206 | 0x03F2      |        1010 |
|     207 | 0x067C      |        1660 |
|     208 | 0x1BD89     |      114057 |
|     209 | 0x26E5A     |      159322 |
|     210 | 0x04E1      |        1249 |
|     211 | 0x0E13      |        3603 |
|     212 | 0x1B948     |      112968 |
|     213 | 0x273BD     |      160701 |
|     214 | 0x0F60      |        3936 |
|     215 | 0x1C9A8     |      117160 |
|     216 | 0x28827     |      165927 |
|     217 | 0x0419      |        1049 |
|     218 | 0x0E12      |        3602 |
|     219 | 0x1CA08     |      117256 |
|     220 | 0x27C01     |      162817 |
|     221 | 0x043E      |        1086 |
|     222 | 0x02C9      |         713 |
|     223 | 0x1C60F     |      116239 |
|     224 | 0x282CB     |      164555 |
|     225 | 0x0488      |        1160 |
|     226 | 0x0E4A      |        3658 |
|     227 | 0x002D      |          45 |
|     228 | 0x0AB7      |        2743 |
|     229 | 0x007A      |         122 |
|     230 | 0x0084      |         132 |
|     231 | 0x055C      |        1372 |
|     232 | 0x0063      |          99 |
|     233 | 0x0BD6      |        3030 |
|     234 | 0x0028      |          40 |
|     235 | 0x0210      |         528 |
|     236 | 0x00D7      |         215 |
|     237 | 0x1E8A      |        7818 |
|     238 | 0x00C9      |         201 |
|     239 | 0x1D4F0     |      120048 |
|     240 | 0x280CE     |      164046 |
|     241 | 0x05DC      |        1500 |
|     242 | 0x1CD30     |      118064 |
|     243 | 0x27F96     |      163734 |
|     244 | 0x03DC      |         988 |
|     245 | 0x0535      |        1333 |
|     246 | 0x1ECDD     |      126173 |
|     247 | 0x2886E     |      165998 |
|     248 | 0x0382      |         898 |
|     249 | 0x0DF5      |        3573 |
|     250 | 0x1B4C3     |      111811 |
|     251 | 0x25860     |      153696 |
|     252 | 0x0502      |        1282 |
|     253 | 0x0DFB      |        3579 |
|     254 | 0x1F655     |      128597 |
|     255 | 0x29CB7     |      171191 |
|     256 | 0x047D      |        1149 |
|     257 | 0x0E40      |        3648 |
|     258 | 0x2024C     |      131660 |
|     259 | 0x2A0DB     |      172251 |
|     260 | 0x03DB      |         987 |
|     261 | 0x0D65      |        3429 |
|     262 | 0x2071D     |      132893 |
|     263 | 0x2A631     |      173617 |
|     264 | 0x0356      |         854 |
|     265 | 0x20577     |      132471 |
|     266 | 0x299D6     |      170454 |
|     267 | 0x0201      |         513 |
|     268 | 0x1F8E2     |      129250 |
|     269 | 0x2951A     |      169242 |
|     270 | 0x047B      |        1147 |
|     271 | 0x06B4      |        1716 |
|     272 | 0x0B67      |        2919 |
|     273 | 0x0C16      |        3094 |
|     274 | 0x0ABD      |        2749 |
|     275 | 0x0082      |         130 |
|     276 | 0x0050      |          80 |
|     277 | 0x006E      |         110 |
|     278 | 0x05DD      |        1501 |
|     279 | 0x0051      |          81 |
|     280 | 0x1E8B      |        7819 |
|     281 | 0x0023      |          35 |
|     282 | 0x0AB8      |        2744 |
|     283 | 0x0019      |          25 |
|     284 | 0x0014      |          20 |
|     285 | 0x1E8C      |        7820 |
|     286 | 0x004B      |          75 |
|     287 | 0xFFFEAA25  |  4294879781 |
|     288 | 0x4A6C      |       19052 |
|     289 | 0xFFFFA1F0  |  4294943216 |
|     290 | 0x1E8D      |        7821 |
|     291 | 0x1E8E      |        7822 |
|     292 | 0x1E8F      |        7823 |
|     293 | 0x1E90      |        7824 |
|     294 | 0x1E91      |        7825 |
|     295 | 0x1E92      |        7826 |
|     296 | 0x1E93      |        7827 |
|     297 | 0x1E94      |        7828 |
|     298 | 0x1E95      |        7829 |
|     299 | 0x1E96      |        7830 |
|     300 | 0x1E97      |        7831 |
|     301 | 0x1E98      |        7832 |
|     302 | 0x1E99      |        7833 |
|     303 | 0x0004      |           4 |
|     304 | 0x0005      |           5 |
|     305 | 0x0006      |           6 |
|     306 | 0x1E9A      |        7834 |
|     307 | 0x1E9B      |        7835 |
|     308 | 0x00F3      |         243 |
|     309 | 0x1E9C      |        7836 |
|     310 | 0x1E9D      |        7837 |
|     311 | 0x1E9E      |        7838 |
|     312 | 0x1E9F      |        7839 |
|     313 | 0x000C      |          12 |
|     314 | 0xFFFBC6DF  |  4294690527 |
|     315 | 0xFFFB56B8  |  4294661816 |
|     316 | 0xFFFF2928  |  4294912296 |
|     317 | 0xFFFBC589  |  4294690185 |
|     318 | 0xFFFB699C  |  4294666652 |
|     319 | 0x0607      |        1543 |
|     320 | 0xFFFBD1FD  |  4294693373 |
|     321 | 0xFFFB633D  |  4294665021 |
|     322 | 0x0B6D      |        2925 |
|     323 | 0xFFFBBDD8  |  4294688216 |
|     324 | 0xFFFB5D30  |  4294663472 |
|     325 | 0x0DCA      |        3530 |
|     326 | 0xFFFBBB91  |  4294687633 |
|     327 | 0xFFFB5EE0  |  4294663904 |
|     328 | 0x065D      |        1629 |
|     329 | 0xFFFF8E0F  |  4294938127 |
|     330 | 0xFFFF3CB0  |  4294917296 |
|     331 | 0x00D5      |         213 |
|     332 | 0x0918      |        2328 |
|     333 | 0x04F6      |        1270 |
|     334 | 0x1EA0      |        7840 |
|     335 | 0x1EA1      |        7841 |
|     336 | 0x00F6      |         246 |
|     337 | 0xFFFB9E7B  |  4294680187 |
|     338 | 0xFFFB5857  |  4294662231 |
|     339 | 0x1EA2      |        7842 |
|     340 | 0x010E      |         270 |
|     341 | 0x1EA3      |        7843 |
|     342 | 0x1EA4      |        7844 |
|     343 | 0xFFFBE92D  |  4294699309 |
|     344 | 0xFFFB0E6B  |  4294643307 |
|     345 | 0xFFFF654D  |  4294927693 |
|     346 | 0x0928      |        2344 |
|     347 | 0xFFFBD152  |  4294693202 |
|     348 | 0xFFFB1E6C  |  4294647404 |
|     349 | 0xFFFF641E  |  4294927390 |
|     350 | 0x00E5      |         229 |
|     351 | 0xFFFBDBA9  |  4294695849 |
|     352 | 0xFFFB2292  |  4294648466 |
|     353 | 0xFFFF64A2  |  4294927522 |
|     354 | 0x04BD      |        1213 |
|     355 | 0xFFFBD7E3  |  4294694883 |
|     356 | 0xFFFB1E4F  |  4294647375 |
|     357 | 0xFFFF6168  |  4294926696 |
|     358 | 0x07C6      |        1990 |
|     359 | 0xFFFBC8F6  |  4294691062 |
|     360 | 0xFFFB24B2  |  4294649010 |
|     361 | 0xFFFF63B4  |  4294927284 |
|     362 | 0x0150      |         336 |
|     363 | 0xFFFBD917  |  4294695191 |
|     364 | 0xFFFB2E6E  |  4294651502 |
|     365 | 0xFFFF6482  |  4294927490 |
|     366 | 0x0329      |         809 |
|     367 | 0xFFFBD944  |  4294695236 |
|     368 | 0xFFFB1AEF  |  4294646511 |
|     369 | 0xFFFF6484  |  4294927492 |
|     370 | 0x098C      |        2444 |
|     371 | 0xFFFC489B  |  4294723739 |
|     372 | 0xFFFAEFCB  |  4294635467 |
|     373 | 0xFFFF653A  |  4294927674 |
|     374 | 0xFFFC4B46  |  4294724422 |
|     375 | 0xFFFAFBC4  |  4294638532 |
|     376 | 0xFFFF642F  |  4294927407 |
|     377 | 0x0ABB      |        2747 |
|     378 | 0x0B68      |        2920 |
|     379 | 0x0009      |           9 |
|     380 | 0x1EA5      |        7845 |
|     381 | 0x007F      |         127 |
|     382 | 0x00A0      |         160 |
|     383 | 0x0079      |         121 |
|     384 | 0x1EA6      |        7846 |
|     385 | 0x1EA7      |        7847 |
|     386 | 0x1EA8      |        7848 |
|     387 | 0x1EA9      |        7849 |
|     388 | 0x1EAA      |        7850 |
|     389 | 0x1EAB      |        7851 |
|     390 | 0x1EAC      |        7852 |
|     391 | 0x1EAD      |        7853 |
|     392 | 0x1EAE      |        7854 |
|     393 | 0x0543      |        1347 |
|     394 | 0x1EAF      |        7855 |
|     395 | 0x0ABE      |        2750 |
|     396 | 0x1EB0      |        7856 |
|     397 | 0x1EB1      |        7857 |
|     398 | 0x1EB2      |        7858 |
|     399 | 0x1EB3      |        7859 |
|     400 | 0x0544      |        1348 |
|     401 | 0x1EB4      |        7860 |
|     402 | 0x1EB5      |        7861 |
|     403 | 0x1EB6      |        7862 |
|     404 | 0x0AB6      |        2742 |
|     405 | 0x1EB7      |        7863 |
|     406 | 0x1EB8      |        7864 |
|     407 | 0x1EB9      |        7865 |
|     408 | 0x1EBA      |        7866 |
|     409 | 0xFFFBDA2B  |  4294695467 |
|     410 | 0xFFFB332C  |  4294652716 |
|     411 | 0xFFFF6488  |  4294927496 |
|     412 | 0x1EBB      |        7867 |
|     413 | 0x0B69      |        2921 |
|     414 | 0x0AB9      |        2745 |
|     415 | 0x1EBC      |        7868 |
|     416 | 0x1EBD      |        7869 |
|     417 | 0x1EBE      |        7870 |
|     418 | 0x1EBF      |        7871 |
|     419 | 0x1EC0      |        7872 |
|     420 | 0xFFFBDBED  |  4294695917 |
|     421 | 0xFFFB1BE8  |  4294646760 |
|     422 | 0xFFFF61CC  |  4294926796 |
|     423 | 0x1EC1      |        7873 |
|     424 | 0x0B6A      |        2922 |
|     425 | 0x1EC2      |        7874 |
|     426 | 0x0041      |          65 |
|     427 | 0xFFFBDEC0  |  4294696640 |
|     428 | 0xFFFB1ED0  |  4294647504 |
|     429 | 0xFFFF64CA  |  4294927562 |
|     430 | 0x0749      |        1865 |
|     431 | 0xFFFBE5C8  |  4294698440 |
|     432 | 0xFFFB3118  |  4294652184 |
|     433 | 0xFFFF6524  |  4294927652 |
|     434 | 0x05DB      |        1499 |
|     435 | 0x1EC3      |        7875 |
|     436 | 0x1EC4      |        7876 |
|     437 | 0x000A      |          10 |
|     438 | 0x0C27      |        3111 |
|     439 | 0x1EC5      |        7877 |
|     440 | 0x1EC6      |        7878 |
|     441 | 0x1EC7      |        7879 |
|     442 | 0x1EC8      |        7880 |
|     443 | 0x0B6B      |        2923 |
|     444 | 0xFFFBE3C8  |  4294697928 |
|     445 | 0xFFFB2D29  |  4294651177 |
|     446 | 0xFFFF650A  |  4294927626 |
|     447 | 0x005F      |          95 |
|     448 | 0x0C3B      |        3131 |
|     449 | 0x1EC9      |        7881 |
|     450 | 0x0032      |          50 |
|     451 | 0x0C28      |        3112 |
|     452 | 0xFFFBE81D  |  4294699037 |
|     453 | 0xFFFB0D49  |  4294643017 |
|     454 | 0xFFFF5F65  |  4294926181 |
|     455 | 0x09B8      |        2488 |
|     456 | 0x0C29      |        3113 |
|     457 | 0x0042      |          66 |
|     458 | 0x0048      |          72 |
|     459 | 0x0031      |          49 |
|     460 | 0x1ECB      |        7883 |
|     461 | 0xFFFF64A6  |  4294927526 |
|     462 | 0xFFFBEAFD  |  4294699773 |
|     463 | 0xFFFB326D  |  4294652525 |
|     464 | 0xFFFF658E  |  4294927758 |
|     465 | 0x097A      |        2426 |
|     466 | 0x0046      |          70 |
|     467 | 0x1ECC      |        7884 |
|     468 | 0x0055      |          85 |
|     469 | 0xFFFBE3A8  |  4294697896 |
|     470 | 0xFFFB2CD8  |  4294651096 |
|     471 | 0x0B6C      |        2924 |
|     472 | 0x0C2A      |        3114 |
|     473 | 0x1ECD      |        7885 |
|     474 | 0xFFFBDA85  |  4294695557 |
|     475 | 0xFFFB234A  |  4294648650 |
|     476 | 0xFFFF6494  |  4294927508 |
|     477 | 0x0D61      |        3425 |
|     478 | 0x1ECE      |        7886 |
|     479 | 0xFFFBE096  |  4294697110 |
|     480 | 0xFFFB2AEA  |  4294650602 |
|     481 | 0xFFFF64E1  |  4294927585 |
|     482 | 0x05A0      |        1440 |
|     483 | 0x0073      |         115 |
|     484 | 0x0542      |        1346 |
|     485 | 0x1ECF      |        7887 |
|     486 | 0x1ED0      |        7888 |
|     487 | 0x1ED1      |        7889 |
|     488 | 0x1ED2      |        7890 |
|     489 | 0x1ED3      |        7891 |
|     490 | 0x1ED4      |        7892 |
|     491 | 0xFFFEAD2E  |  4294880558 |
|     492 | 0x5378      |       21368 |
|     493 | 0xFFFFA1EC  |  4294943212 |
|     494 | 0x0ED3      |        3795 |
|     495 | 0x1ED5      |        7893 |
|     496 | 0x1ED6      |        7894 |
|     497 | 0x1ED7      |        7895 |
|     498 | 0x1ED8      |        7896 |
|     499 | 0x1ED9      |        7897 |
|     500 | 0x1EDA      |        7898 |
|     501 | 0x1EDB      |        7899 |
|     502 | 0x008C      |         140 |

## String References

- **7834**: Why do you fight for us? [To help those in need./To discover the truth./To end this accursed war.]
- **7855**: Leave him be, fiend!

## Events

### Event 65535

#### Metadata

| Field        | Value   |
|--------------|---------|
| Entrypoint   | 0x0000  |
| Data Size    | 1 bytes |
| Instructions | 1       |

```
      00 01 02 03 04 05 06 07  08 09 0A 0B 0C 0D 0E 0F
      -- -- -- -- -- -- -- --  -- -- -- -- -- -- -- --
0000: 00                                                .               
```

#### Opcodes

```
  0: 0x0000 [0x00] END_REQSTACK()
```

### Event 12

#### Metadata

| Field        | Value      |
|--------------|------------|
| Entrypoint   | 0x0001     |
| Data Size    | 4616 bytes |
| Instructions | 540        |

```
      00 01 02 03 04 05 06 07  08 09 0A 0B 0C 0D 0E 0F
      -- -- -- -- -- -- -- --  -- -- -- -- -- -- -- --
0000:    42 1A 21 3E 46 01 38  00 80 4E 00 F0 FF FF 7F   B.!>F.8..N.....
0010: 2F 00 CA A2 08 01 2F 00  CB A2 08 01 2F 00 CC A2  /...../...../...
0020: 08 01 2F 00 CD A2 08 01  2F 00 CE A2 08 01 2F 00  ../...../...../.
0030: CF A2 08 01 2F 00 D0 A2  08 01 2F 00 D1 A2 08 01  ..../...../.....
0040: 2F 00 D2 A2 08 01 2F 00  D3 A2 08 01 2F 00 D4 A2  /...../...../...
0050: 08 01 2F 00 D5 A2 08 01  2F 00 D6 A2 08 01 2F 00  ../...../...../.
0060: D7 A2 08 01 4E 00 CA A2  08 01 4E 00 CB A2 08 01  ....N.....N.....
0070: 4E 00 CC A2 08 01 4E 00  CD A2 08 01 4E 00 CE A2  N.....N.....N...
0080: 08 01 4E 00 CF A2 08 01  4E 00 D0 A2 08 01 4E 00  ..N.....N.....N.
0090: D1 A2 08 01 4E 00 D2 A2  08 01 4E 00 D3 A2 08 01  ....N.....N.....
00A0: 4E 00 D4 A2 08 01 4E 00  D5 A2 08 01 4E 00 D6 A2  N.....N.....N...
00B0: 08 01 4E 00 D7 A2 08 01  94 01 CA A2 08 01 94 01  ..N.............
00C0: CB A2 08 01 94 01 CC A2  08 01 94 01 CD A2 08 01  ................
00D0: 94 01 CE A2 08 01 94 01  CF A2 08 01 94 01 D0 A2  ................
00E0: 08 01 94 01 D1 A2 08 01  94 01 D2 A2 08 01 94 01  ................
00F0: D3 A2 08 01 94 01 D4 A2  08 01 94 01 D5 A2 08 01  ................
0100: 94 01 D6 A2 08 01 94 01  D7 A2 08 01 BA F0 FF FF  ................
0110: 7F 01 80 02 80 03 80 04  80 BA CA A2 08 01 05 80  ................
0120: 06 80 07 80 08 80 BA CB  A2 08 01 09 80 0A 80 0B  ................
0130: 80 08 80 BA CC A2 08 01  0C 80 0D 80 0E 80 08 80  ................
0140: BA CD A2 08 01 0F 80 10  80 11 80 08 80 BA CE A2  ................
0150: 08 01 12 80 13 80 14 80  15 80 BA CF A2 08 01 16  ................
0160: 80 17 80 18 80 19 80 BA  D0 A2 08 01 1A 80 1B 80  ................
0170: 1C 80 1D 80 BA D1 A2 08  01 1E 80 1F 80 14 80 19  ................
0180: 80 BA D3 A2 08 01 20 80  21 80 18 80 22 80 BA D4  ...... .!..."...
0190: A2 08 01 23 80 24 80 25  80 19 80 BA D5 A2 08 01  ...#.$.%........
01A0: 26 80 27 80 14 80 28 80  BA D6 A2 08 01 29 80 2A  &.'...(......).*
01B0: 80 14 80 2B 80 BA D7 A2  08 01 2C 80 2D 80 14 80  ...+......,.-...
01C0: 2E 80 80 CA A2 08 01 80  CB A2 08 01 80 CC A2 08  ................
01D0: 01 80 CD A2 08 01 80 F0  FF FF 7F 80 CE A2 08 01  ................
01E0: 80 CF A2 08 01 80 D0 A2  08 01 80 D1 A2 08 01 80  ................
01F0: D2 A2 08 01 80 D3 A2 08  01 80 D4 A2 08 01 80 D5  ................
0200: A2 08 01 80 D6 A2 08 01  80 D7 A2 08 01 1C 2F 80  ............../.
0210: 5B 30 80 CE A2 08 01 CE  A2 08 01 73 64 6F 6E 66  [0.........sdonf
0220: 31 80 D1 A2 08 01 D1 A2  08 01 31 72 64 79 2C D6  1.........1rdy,.
0230: A2 08 01 D6 A2 08 01 64  65 61 64 2C D7 A2 08 01  .......dead,....
0240: D7 A2 08 01 64 65 61 64  1C 32 80 45 33 80 F0 FF  ....dead.2.E3...
0250: FF 7F F0 FF FF 7F 30 32  30 31 28 80 1A 00 3E 1C  ......0201(...>.
0260: 2F 80 27 10 98 A2 08 01  03 1C 2F 80 27 10 CB A2  /.'......./.'...
0270: 08 01 07 27 10 CC A2 08  01 02 27 10 CD A2 08 01  ...'......'.....
0280: 02 27 10 CA A2 08 01 06  1C 34 80 27 10 F0 FF FF  .'.......4.'....
0290: 7F 24 1C 35 80 52 33 80  F0 FF FF 7F F0 FF FF 7F  .$.5.R3.........
02A0: 30 32 30 31 45 33 80 F0  FF FF 7F F0 FF FF 7F 30  0201E3.........0
02B0: 32 30 30 28 80 27 10 98  A2 08 01 04 1C 2F 80 7A  200(.'......./.z
02C0: 00 F0 FF FF 7F 1C 34 80  6E F0 FF FF 7F 36 80 99  ......4.n....6..
02D0: F0 FF FF 7F 1C 34 80 1C  34 80 27 10 F0 FF FF 7F  .....4..4.'.....
02E0: 24 52 33 80 F0 FF FF 7F  F0 FF FF 7F 30 32 30 30  $R3.........0200
02F0: 45 33 80 F0 FF FF 7F F0  FF FF 7F 30 32 30 32 28  E3.........0202(
0300: 80 2A 10 CA A2 08 01 1C  37 80 2B CA A2 08 01 38  .*......7.+....8
0310: 80 23 2A 10 F0 FF FF 7F  1C 39 80 6E F0 FF FF 7F  .#*......9.n....
0320: 3A 80 99 F0 FF FF 7F 1C  34 80 52 33 80 F0 FF FF  :.......4.R3....
0330: 7F F0 FF FF 7F 30 32 30  32 45 33 80 F0 FF FF 7F  .....0202E3.....
0340: F0 FF FF 7F 30 32 30 33  28 80 BA CC A2 08 01 3B  ....0203(......;
0350: 80 0D 80 0E 80 08 80 4A  F0 FF FF 7F CC A2 08 01  .......J........
0360: 4A CA A2 08 01 CC A2 08  01 2B CC A2 08 01 3C 80  J........+....<.
0370: 1C 39 80 4B CC A2 08 01  3D 80 79 00 CC A2 08 01  .9.K....=.y.....
0380: CA A2 08 01 1C 35 80 23  52 33 80 F0 FF FF 7F F0  .....5.#R3......
0390: FF FF 7F 30 32 30 33 45  33 80 F0 FF FF 7F F0 FF  ...0203E3.......
03A0: FF 7F 30 32 30 34 28 80  7B F0 FF FF 7F 4A F0 FF  ..0204(.{....J..
03B0: FF 7F D1 A2 08 01 4A CA  A2 08 01 D1 A2 08 01 79  ......J........y
03C0: 00 CC A2 08 01 D3 A2 08  01 1C 37 80 52 33 80 F0  ..........7.R3..
03D0: FF FF 7F F0 FF FF 7F 30  32 30 34 45 33 80 F0 FF  .......0204E3...
03E0: FF 7F F0 FF FF 7F 30 32  30 35 28 80 73 3E 80 D3  ......0205(.s>..
03F0: A2 08 01 D1 A2 08 01 1C  2F 80 66 31 80 D1 A2 08  ......../.f1....
0400: 01 D1 A2 08 01 31 73 6C  68 1C 39 80 27 10 D6 A2  .....1slh.9.'...
0410: 08 01 05 1C 39 80 2C D5  A2 08 01 D5 A2 08 01 64  ....9.,........d
0420: 65 61 64 1C 2F 80 27 10  D7 A2 08 01 05 1C 39 80  ead./.'.......9.
0430: 66 31 80 D1 A2 08 01 D1  A2 08 01 31 72 74 6E 1C  f1.........1rtn.
0440: 39 80 5B 30 80 CE A2 08  01 CE A2 08 01 73 64 6F  9.[0.........sdo
0450: 66 66 3F 80 D3 A2 08 01  D3 A2 08 01 73 68 61 30  ff?.........sha0
0460: 1C 2F 80 52 33 80 F0 FF  FF 7F F0 FF FF 7F 30 32  ./.R3.........02
0470: 30 35 45 33 80 F0 FF FF  7F F0 FF FF 7F 30 32 30  05E3.........020
0480: 36 28 80 BA D4 A2 08 01  40 80 41 80 14 80 42 80  6(......@.A...B.
0490: BA CF A2 08 01 16 80 43  80 18 80 19 80 2B CA A2  .......C.....+..
04A0: 08 01 44 80 23 52 33 80  F0 FF FF 7F F0 FF FF 7F  ..D.#R3.........
04B0: 30 32 30 36 45 33 80 F0  FF FF 7F F0 FF FF 7F 30  0206E3.........0
04C0: 32 30 37 28 80 7B F0 FF  FF 7F 27 10 D4 A2 08 01  207(.{....'.....
04D0: 08 1C 2F 80 4A CE A2 08  01 D4 A2 08 01 1C 2F 80  ../.J........./.
04E0: 52 33 80 F0 FF FF 7F F0  FF FF 7F 30 32 30 37 45  R3.........0207E
04F0: 33 80 F0 FF FF 7F F0 FF  FF 7F 30 32 30 38 28 80  3.........0208(.
0500: 7A 00 D4 A2 08 01 5B 30  80 CE A2 08 01 CE A2 08  z.....[0........
0510: 01 73 64 6F 6E 2B CE A2  08 01 45 80 23 52 33 80  .sdon+....E.#R3.
0520: F0 FF FF 7F F0 FF FF 7F  30 32 30 38 45 33 80 F0  ........0208E3..
0530: FF FF 7F F0 FF FF 7F 30  32 30 39 28 80 2B D1 A2  .......0209(.+..
0540: 08 01 46 80 23 53 CE A2  08 01 CE A2 08 01 73 64  ..F.#S........sd
0550: 6F 6E 52 33 80 F0 FF FF  7F F0 FF FF 7F 30 32 30  onR3.........020
0560: 39 45 33 80 F0 FF FF 7F  F0 FF FF 7F 30 32 30 61  9E3.........020a
0570: 28 80 5B 30 80 CE A2 08  01 CE A2 08 01 73 64 6F  (.[0.........sdo
0580: 66 2B CE A2 08 01 47 80  1C 34 80 66 3F 80 D3 A2  f+....G..4.f?...
0590: 08 01 D3 A2 08 01 73 68  61 31 1C 34 80 23 52 33  ......sha1.4.#R3
05A0: 80 F0 FF FF 7F F0 FF FF  7F 30 32 30 61 45 33 80  .........020aE3.
05B0: F0 FF FF 7F F0 FF FF 7F  30 32 30 62 28 80 81 00  ........020b(...
05C0: D0 A2 08 01 66 48 80 D0  A2 08 01 D0 A2 08 01 63  ....fH.........c
05D0: 61 62 6B 6E D3 A2 08 01  3A 80 99 D3 A2 08 01 4A  abkn....:......J
05E0: CE A2 08 01 D4 A2 08 01  7B CE A2 08 01 2B D0 A2  ........{....+..
05F0: 08 01 49 80 1C 35 80 73  4A 80 D3 A2 08 01 D2 A2  ..I..5.sJ.......
0600: 08 01 1C 34 80 52 33 80  F0 FF FF 7F F0 FF FF 7F  ...4.R3.........
0610: 30 32 30 62 45 33 80 F0  FF FF 7F F0 FF FF 7F 30  020bE3.........0
0620: 32 30 63 28 80 BA F0 FF  FF 7F 4B 80 4C 80 4D 80  20c(......K.L.M.
0630: 04 80 BA CA A2 08 01 4E  80 4F 80 50 80 08 80 BA  .......N.O.P....
0640: CB A2 08 01 51 80 52 80  53 80 08 80 BA CC A2 08  ....Q.R.S.......
0650: 01 54 80 55 80 56 80 08  80 BA CF A2 08 01 16 80  .T.U.V..........
0660: 17 80 18 80 19 80 BA CD  A2 08 01 57 80 58 80 59  ...........W.X.Y
0670: 80 08 80 27 10 D4 A2 08  01 08 73 4A 80 D2 A2 08  ...'......sJ....
0680: 01 D4 A2 08 01 1C 5A 80  52 33 80 F0 FF FF 7F F0  ......Z.R3......
0690: FF FF 7F 30 32 30 63 45  33 80 F0 FF FF 7F F0 FF  ...020cE3.......
06A0: FF 7F 30 32 30 64 28 80  7B F0 FF FF 7F 7B CA A2  ..020d(.{....{..
06B0: 08 01 7B CB A2 08 01 7B  CC A2 08 01 7B CD A2 08  ..{....{....{...
06C0: 01 27 10 F0 FF FF 7F 25  27 10 CA A2 08 01 07 27  .'.....%'......'
06D0: 10 CB A2 08 01 08 27 10  CC A2 08 01 03 27 10 CD  ......'......'..
06E0: A2 08 01 03 1C 2F 80 BB  5B 80 D4 A2 08 01 D4 A2  ...../..[.......
06F0: 08 01 73 74 61 74 28 80  27 10 D4 A2 08 01 09 81  ..stat(.'.......
0700: 01 D0 A2 08 01 66 48 80  D0 A2 08 01 D0 A2 08 01  .....fH.........
0710: 73 68 62 6B 73 5C 80 D2  A2 08 01 D4 A2 08 01 1C  shbks\..........
0720: 5A 80 52 33 80 F0 FF FF  7F F0 FF FF 7F 30 32 30  Z.R3.........020
0730: 64 45 33 80 F0 FF FF 7F  F0 FF FF 7F 30 32 30 65  dE3.........020e
0740: 28 80 27 10 D5 A2 08 01  05 27 10 CE A2 08 01 03  (.'......'......
0750: 27 10 CF A2 08 01 03 27  10 D0 A2 08 01 03 27 10  '......'......'.
0760: D3 A2 08 01 03 29 10 D1  A2 08 01 03 2B D1 A2 08  .....)......+...
0770: 01 5D 80 23 2A 10 CD A2  08 01 52 33 80 F0 FF FF  .].#*.....R3....
0780: 7F F0 FF FF 7F 30 32 30  65 45 33 80 F0 FF FF 7F  .....020eE3.....
0790: F0 FF FF 7F 30 32 30 66  28 80 BB 5B 80 D4 A2 08  ....020f(..[....
07A0: 01 D4 A2 08 01 73 74 6F  70 28 80 27 10 F0 FF FF  .....stop(.'....
07B0: 7F 26 27 10 CC A2 08 01  04 27 10 CD A2 08 01 04  .&'......'......
07C0: 27 10 CA A2 08 01 08 2B  CA A2 08 01 5E 80 1C 35  '......+....^..5
07D0: 80 23 5B 5F 80 CA A2 08  01 CA A2 08 01 74 73 61  .#[_.........tsa
07E0: 30 2B CA A2 08 01 60 80  1C 34 80 23 52 33 80 F0  0+....`..4.#R3..
07F0: FF FF 7F F0 FF FF 7F 30  32 30 66 45 33 80 F0 FF  .......020fE3...
0800: FF 7F F0 FF FF 7F 30 32  30 67 28 80 2B CA A2 08  ......020g(.+...
0810: 01 61 80 23 52 33 80 F0  FF FF 7F F0 FF FF 7F 30  .a.#R3.........0
0820: 32 30 67 45 33 80 F0 FF  FF 7F F0 FF FF 7F 30 32  20gE3.........02
0830: 30 68 28 80 5B 5F 80 CA  A2 08 01 CA A2 08 01 74  0h(.[_.........t
0840: 73 61 31 27 10 CE A2 08  01 04 27 10 CF A2 08 01  sa1'......'.....
0850: 04 27 10 D0 A2 08 01 04  27 10 D3 A2 08 01 04 66  .'......'......f
0860: 62 80 D1 A2 08 01 D1 A2  08 01 74 6C 6B 30 2B D1  b.........tlk0+.
0870: A2 08 01 63 80 1C 32 80  23 52 33 80 F0 FF FF 7F  ...c..2.#R3.....
0880: F0 FF FF 7F 30 32 30 68  45 33 80 F0 FF FF 7F F0  ....020hE3......
0890: FF FF 7F 30 32 30 69 28  80 4A D1 A2 08 01 D3 A2  ...020i(.J......
08A0: 08 01 4A CE A2 08 01 D1  A2 08 01 4A CF A2 08 01  ..J........J....
08B0: D1 A2 08 01 4A D0 A2 08  01 D1 A2 08 01 4A D3 A2  ....J........J..
08C0: 08 01 D1 A2 08 01 66 62  80 D1 A2 08 01 D1 A2 08  ......fb........
08D0: 01 74 6C 6B 31 2B D1 A2  08 01 64 80 1C 34 80 23  .tlk1+....d..4.#
08E0: 66 4A 80 CE A2 08 01 CE  A2 08 01 74 68 6B 31 2B  fJ.........thk1+
08F0: CE A2 08 01 65 80 1C 34  80 23 52 33 80 F0 FF FF  ....e..4.#R3....
0900: 7F F0 FF FF 7F 30 32 30  69 45 33 80 F0 FF FF 7F  .....020iE3.....
0910: F0 FF FF 7F 30 32 30 6A  28 80 66 4A 80 CE A2 08  ....020j(.fJ....
0920: 01 CE A2 08 01 74 68 6B  32 5B 66 80 CA A2 08 01  .....thk2[f.....
0930: CA A2 08 01 74 73 6B 31  4A D1 A2 08 01 CA A2 08  ....tsk1J.......
0940: 01 2B CA A2 08 01 67 80  1C 34 80 23 5B 66 80 CA  .+....g..4.#[f..
0950: A2 08 01 CA A2 08 01 74  68 6B 32 66 62 80 D1 A2  .......thk2fb...
0960: 08 01 D1 A2 08 01 74 6C  6B 30 2B D1 A2 08 01 68  ......tlk0+....h
0970: 80 1C 34 80 23 52 33 80  F0 FF FF 7F F0 FF FF 7F  ..4.#R3.........
0980: 30 32 30 6A 45 33 80 F0  FF FF 7F F0 FF FF 7F 30  020jE3.........0
0990: 32 30 6B 28 80 66 62 80  D1 A2 08 01 D1 A2 08 01  20k(.fb.........
09A0: 74 6C 6B 31 BB 5B 80 D4  A2 08 01 D4 A2 08 01 73  tlk1.[.........s
09B0: 74 61 74 28 80 2B D1 A2  08 01 69 80 4A D1 A2 08  tat(.+....i.J...
09C0: 01 D4 A2 08 01 1C 37 80  52 33 80 F0 FF FF 7F F0  ......7.R3......
09D0: FF FF 7F 30 32 30 6B 45  33 80 F0 FF FF 7F F0 FF  ...020kE3.......
09E0: FF 7F 30 32 30 6C 28 80  BA D2 A2 08 01 6A 80 6B  ..020l(......j.k
09F0: 80 6C 80 6D 80 1C 2F 80  23 27 10 D2 A2 08 01 03  .l.m../.#'......
0A00: 45 33 80 F0 FF FF 7F F0  FF FF 7F 30 32 30 6E 28  E3.........020n(
0A10: 80 1C 6E 80 52 33 80 F0  FF FF 7F F0 FF FF 7F 30  ..n.R3.........0
0A20: 32 30 6E 45 33 80 F0 FF  FF 7F F0 FF FF 7F 30 32  20nE3.........02
0A30: 30 6D 28 80 BB 5B 80 D4  A2 08 01 D4 A2 08 01 73  0m(..[.........s
0A40: 74 6F 70 28 80 4A D1 A2  08 01 D2 A2 08 01 4A CE  top(.J........J.
0A50: A2 08 01 D2 A2 08 01 4A  CF A2 08 01 D2 A2 08 01  .......J........
0A60: 4A D0 A2 08 01 D2 A2 08  01 4A D3 A2 08 01 D2 A2  J........J......
0A70: 08 01 2B D2 A2 08 01 6F  80 23 2A 10 D2 A2 08 01  ..+....o.#*.....
0A80: 27 10 D1 A2 08 01 04 2B  D1 A2 08 01 70 80 23 2A  '......+....p.#*
0A90: 10 D1 A2 08 01 52 33 80  F0 FF FF 7F F0 FF FF 7F  .....R3.........
0AA0: 30 32 30 6D 45 33 80 F0  FF FF 7F F0 FF FF 7F 30  020mE3.........0
0AB0: 32 30 6F 28 80 2B D1 A2  08 01 71 80 23 6E D2 A2  20o(.+....q.#n..
0AC0: 08 01 72 80 99 D2 A2 08  01 1C 34 80 52 33 80 F0  ..r.......4.R3..
0AD0: FF FF 7F F0 FF FF 7F 30  32 30 6F 45 33 80 F0 FF  .......020oE3...
0AE0: FF 7F F0 FF FF 7F 30 32  30 70 28 80 1C 2F 80 7B  ......020p(../.{
0AF0: D1 A2 08 01 27 10 CE A2  08 01 05 27 10 CF A2 08  ....'......'....
0B00: 01 05 27 10 D0 A2 08 01  05 27 10 D3 A2 08 01 05  ..'......'......
0B10: 27 10 D2 A2 08 01 04 1C  39 80 4A D1 A2 08 01 CA  '.......9.J.....
0B20: A2 08 01 1C 37 80 52 33  80 F0 FF FF 7F F0 FF FF  ....7.R3........
0B30: 7F 30 32 30 70 45 33 80  F0 FF FF 7F F0 FF FF 7F  .020pE3.........
0B40: 30 32 30 71 28 80 1C 39  80 2B D1 A2 08 01 73 80  020q(..9.+....s.
0B50: 6E D1 A2 08 01 72 80 99  D1 A2 08 01 1C 32 80 27  n....r.......2.'
0B60: 10 D1 A2 08 01 05 1C 35  80 52 33 80 F0 FF FF 7F  .......5.R3.....
0B70: F0 FF FF 7F 30 32 30 71  45 33 80 F0 FF FF 7F F0  ....020qE3......
0B80: FF FF 7F 30 32 30 72 28  80 1C 32 80 7B CB A2 08  ...020r(..2.{...
0B90: 01 27 10 F0 FF FF 7F 27  27 10 CC A2 08 01 05 27  .'.....''......'
0BA0: 10 CD A2 08 01 05 27 10  CA A2 08 01 09 27 10 CB  ......'......'..
0BB0: A2 08 01 09 1C 35 80 79  00 F0 FF FF 7F D4 A2 08  .....5.y........
0BC0: 01 79 00 CC A2 08 01 D4  A2 08 01 79 00 CD A2 08  .y.........y....
0BD0: 01 D4 A2 08 01 79 00 CA  A2 08 01 D4 A2 08 01 1C  .....y..........
0BE0: 34 80 1A 21 3E 52 33 80  F0 FF FF 7F F0 FF FF 7F  4..!>R3.........
0BF0: 30 32 30 72 45 33 80 F0  FF FF 7F F0 FF FF 7F 30  020rE3.........0
0C00: 32 30 73 28 80 7A 00 F0  FF FF 7F 7A 00 CA A2 08  20s(.z.....z....
0C10: 01 7A 00 CB A2 08 01 7A  00 CC A2 08 01 7A 00 CD  .z.....z.....z..
0C20: A2 08 01 BA F0 FF FF 7F  74 80 75 80 76 80 77 80  ........t.u.v.w.
0C30: BA CA A2 08 01 78 80 79  80 14 80 7A 80 BA CB A2  .....x.y...z....
0C40: 08 01 7B 80 7C 80 14 80  7D 80 BA CC A2 08 01 7E  ..{.|...}......~
0C50: 80 7F 80 80 80 81 80 BA  CD A2 08 01 82 80 83 80  ................
0C60: 84 80 85 80 4A F0 FF FF  7F D4 A2 08 01 4A CA A2  ....J........J..
0C70: 08 01 D4 A2 08 01 4A CB  A2 08 01 D4 A2 08 01 4A  ......J........J
0C80: CC A2 08 01 D4 A2 08 01  4A CD A2 08 01 D4 A2 08  ........J.......
0C90: 01 1C 35 80 1A 00 3E 73  86 80 CC A2 08 01 D4 A2  ..5...>s........
0CA0: 08 01 2B CC A2 08 01 87  80 23 52 33 80 F0 FF FF  ..+......#R3....
0CB0: 7F F0 FF FF 7F 30 32 30  73 45 33 80 F0 FF FF 7F  .....020sE3.....
0CC0: F0 FF FF 7F 30 32 30 74  28 80 1C 34 80 2B D4 A2  ....020t(..4.+..
0CD0: 08 01 88 80 1C 37 80 23  52 33 80 F0 FF FF 7F F0  .....7.#R3......
0CE0: FF FF 7F 30 32 30 74 45  33 80 F0 FF FF 7F F0 FF  ...020tE3.......
0CF0: FF 7F 30 32 30 75 28 80  2B CC A2 08 01 89 80 23  ..020u(.+......#
0D00: 52 33 80 F0 FF FF 7F F0  FF FF 7F 30 32 30 75 45  R3.........020uE
0D10: 33 80 F0 FF FF 7F F0 FF  FF 7F 30 32 30 76 28 80  3.........020v(.
0D20: 2B D4 A2 08 01 8A 80 23  2B CA A2 08 01 8B 80 23  +......#+......#
0D30: 52 33 80 F0 FF FF 7F F0  FF FF 7F 30 32 30 76 45  R3.........020vE
0D40: 33 80 F0 FF FF 7F F0 FF  FF 7F 30 32 30 77 28 80  3.........020w(.
0D50: 5B 8C 80 D4 A2 08 01 D4  A2 08 01 6B 75 73 30 2B  [..........kus0+
0D60: D4 A2 08 01 8D 80 23 53  D4 A2 08 01 D4 A2 08 01  ......#S........
0D70: 6B 75 73 30 52 33 80 F0  FF FF 7F F0 FF FF 7F 30  kus0R3.........0
0D80: 32 30 77 45 33 80 F0 FF  FF 7F F0 FF FF 7F 30 32  20wE3.........02
0D90: 30 78 28 80 2B CC A2 08  01 8E 80 1C 34 80 79 00  0x(.+.......4.y.
0DA0: CC A2 08 01 CA A2 08 01  1C 34 80 23 52 33 80 F0  .........4.#R3..
0DB0: FF FF 7F F0 FF FF 7F 30  32 30 78 45 33 80 F0 FF  .......020xE3...
0DC0: FF 7F F0 FF FF 7F 30 32  30 79 28 80 66 8F 80 CD  ......020y(.f...
0DD0: A2 08 01 CD A2 08 01 67  61 74 30 79 00 CC A2 08  .......gat0y....
0DE0: 01 D4 A2 08 01 2B CD A2  08 01 90 80 23 53 CD A2  .....+......#S..
0DF0: 08 01 CD A2 08 01 67 61  74 30 52 33 80 F0 FF FF  ......gat0R3....
0E00: 7F F0 FF FF 7F 30 32 30  79 45 33 80 F0 FF FF 7F  .....020yE3.....
0E10: F0 FF FF 7F 30 32 30 7A  28 80 2B D4 A2 08 01 91  ....020z(.+.....
0E20: 80 5B 92 80 D4 A2 08 01  D4 A2 08 01 67 79 6F 30  .[..........gyo0
0E30: 1C 35 80 23 52 33 80 F0  FF FF 7F F0 FF FF 7F 30  .5.#R3.........0
0E40: 32 30 7A 45 33 80 F0 FF  FF 7F F0 FF FF 7F 62 6C  20zE3.........bl
0E50: 6F 66 28 80 45 33 80 F0  FF FF 7F F0 FF FF 7F 30  of(.E3.........0
0E60: 32 31 30 28 80 2B CA A2  08 01 93 80 23 52 33 80  210(.+......#R3.
0E70: F0 FF FF 7F F0 FF FF 7F  30 32 31 30 45 33 80 F0  ........0210E3..
0E80: FF FF 7F F0 FF FF 7F 30  32 31 31 28 80 2B D4 A2  .......0211(.+..
0E90: 08 01 94 80 23 52 33 80  F0 FF FF 7F F0 FF FF 7F  ....#R3.........
0EA0: 30 32 31 31 45 33 80 F0  FF FF 7F F0 FF FF 7F 30  0211E3.........0
0EB0: 32 31 32 28 80 66 8F 80  CD A2 08 01 CD A2 08 01  212(.f..........
0EC0: 67 61 74 31 1C 95 80 52  33 80 F0 FF FF 7F F0 FF  gat1...R3.......
0ED0: FF 7F 30 32 31 32 45 33  80 F0 FF FF 7F F0 FF FF  ..0212E3........
0EE0: 7F 30 32 31 33 28 80 5B  92 80 D4 A2 08 01 D4 A2  .0213(.[........
0EF0: 08 01 67 79 6F 30 2B D4  A2 08 01 96 80 6B 69 64  ..gyo0+......kid
0F00: 6C 30 CD A2 08 01 1C 35  80 52 33 80 F0 FF FF 7F  l0.....5.R3.....
0F10: F0 FF FF 7F 30 32 31 33  45 33 80 F0 FF FF 7F F0  ....0213E3......
0F20: FF FF 7F 62 6C 6F 66 28  80 45 33 80 F0 FF FF 7F  ...blof(.E3.....
0F30: F0 FF FF 7F 30 32 31 34  28 80 2B CC A2 08 01 97  ....0214(.+.....
0F40: 80 23 52 33 80 F0 FF FF  7F F0 FF FF 7F 30 32 31  .#R3.........021
0F50: 34 45 33 80 F0 FF FF 7F  F0 FF FF 7F 30 32 31 35  4E3.........0215
0F60: 28 80 4A CA A2 08 01 CD  A2 08 01 7B CA A2 08 01  (.J........{....
0F70: 4A F0 FF FF 7F CA A2 08  01 4A CC A2 08 01 CA A2  J........J......
0F80: 08 01 4A CB A2 08 01 CA  A2 08 01 4A CD A2 08 01  ..J........J....
0F90: CA A2 08 01 2B CA A2 08  01 98 80 1C 34 80 23 2B  ....+.......4.#+
0FA0: CA A2 08 01 99 80 23 52  33 80 F0 FF FF 7F F0 FF  ......#R3.......
0FB0: FF 7F 30 32 31 35 45 33  80 F0 FF FF 7F F0 FF FF  ..0215E3........
0FC0: 7F 30 32 31 36 28 80 27  10 F0 FF FF 7F 29 27 10  .0216(.'.....)'.
0FD0: CA A2 08 01 0B 27 10 CB  A2 08 01 0B 27 10 CC A2  .....'......'...
0FE0: 08 01 07 27 10 CD A2 08  01 07 2B D4 A2 08 01 9A  ...'......+.....
0FF0: 80 2A 10 CC A2 08 01 1C  2F 80 23 2B CC A2 08 01  .*....../.#+....
1000: 9B 80 23 73 9C 80 CC A2  08 01 D4 A2 08 01 1C 35  ..#s...........5
1010: 80 52 33 80 F0 FF FF 7F  F0 FF FF 7F 30 32 31 36  .R3.........0216
1020: 45 33 80 F0 FF FF 7F F0  FF FF 7F 30 32 31 37 28  E3.........0217(
1030: 80 1C 35 80 27 10 CC A2  08 01 08 1C 2F 80 27 10  ..5.'......./.'.
1040: D4 A2 08 01 0A 2B D4 A2  08 01 9D 80 23 2B D4 A2  .....+......#+..
1050: 08 01 9E 80 2A 10 D4 A2  08 01 1C 2F 80 23 5B 8C  ....*....../.#[.
1060: 80 D4 A2 08 01 D4 A2 08  01 6B 75 73 30 1C 37 80  .........kus0.7.
1070: 52 33 80 F0 FF FF 7F F0  FF FF 7F 30 32 31 37 45  R3.........0217E
1080: 33 80 F0 FF FF 7F F0 FF  FF 7F 30 32 31 38 28 80  3.........0218(.
1090: 7A 00 F0 FF FF 7F 7A 00  CA A2 08 01 7A 00 CB A2  z.....z.....z...
10A0: 08 01 7A 00 CC A2 08 01  7A 00 CD A2 08 01 BA F0  ..z.....z.......
10B0: FF FF 7F 28 80 28 80 28  80 28 80 BA CA A2 08 01  ...(.(.(.(......
10C0: 28 80 28 80 28 80 28 80  BA CB A2 08 01 28 80 28  (.(.(.(......(.(
10D0: 80 28 80 28 80 BA CC A2  08 01 28 80 28 80 28 80  .(.(......(.(.(.
10E0: 28 80 BA CD A2 08 01 28  80 28 80 28 80 28 80 BA  (......(.(.(.(..
10F0: CE A2 08 01 28 80 28 80  28 80 28 80 BA CF A2 08  ....(.(.(.(.....
1100: 01 28 80 28 80 28 80 28  80 BA D0 A2 08 01 28 80  .(.(.(.(......(.
1110: 28 80 28 80 28 80 BA D1  A2 08 01 28 80 28 80 28  (.(.(......(.(.(
1120: 80 28 80 BA D2 A2 08 01  28 80 28 80 28 80 28 80  .(......(.(.(.(.
1130: BA D3 A2 08 01 28 80 28  80 28 80 28 80 29 10 D4  .....(.(.(.(.)..
1140: A2 08 01 0B 2B D4 A2 08  01 9F 80 1C 34 80 23 52  ....+.......4.#R
1150: 33 80 F0 FF FF 7F F0 FF  FF 7F 30 32 31 38 45 33  3.........0218E3
1160: 80 F0 FF FF 7F F0 FF FF  7F 30 32 31 61 28 80 5B  .........021a(.[
1170: 92 80 D4 A2 08 01 D4 A2  08 01 67 79 6F 30 2B D4  ..........gyo0+.
1180: A2 08 01 A0 80 1C 35 80  23 2C D4 A2 08 01 D4 A2  ......5.#,......
1190: 08 01 64 65 61 64 1C 2F  80 52 33 80 F0 FF FF 7F  ..dead./.R3.....
11A0: F0 FF FF 7F 30 32 31 61  45 33 80 F0 FF FF 7F F0  ....021aE3......
11B0: FF FF 7F 30 32 31 39 28  80 53 D4 A2 08 01 D4 A2  ...0219(.S......
11C0: 08 01 64 65 61 64 1C 2F  80 9F A1 80 D4 A2 08 01  ..dead./........
11D0: D4 A2 08 01 73 74 72 30  28 80 1C 35 80 1A 21 3E  ....str0(..5..!>
11E0: 9F A1 80 D4 A2 08 01 D4  A2 08 01 73 74 6F 70 28  ...........stop(
11F0: 80 46 00 1C 2F 80 45 5F  80 F0 FF FF 7F F0 FF FF  .F../.E_........
1200: 7F 66 64 69 31 28 80 21  00                       .fdi1(.!.       
```

#### Opcodes

```
  0: 0x0001 [0x42] SET_CLI_EVENT_CANCEL_DATA()
  1: 0x0002 [0x1A] CALL_SUBROUTINE(address=0x3E21)
  2: 0x0005 [0x46] CAMERA_CONTROL: Disable user control
  3: 0x0007 [0x38] SET_CLIENT_EVENT_MODE(mode=27*)
  4: 0x000A [0x4E] SET_ENTITY_HIDE_FLAG: Show LocalPlayer
  5: 0x0010 [0x2F] Volker (ID: 17343178/0x0108A2CA)->Render.Flags0 &= ~0x80000 // Bit 19
  6: 0x0016 [0x2F] Zeid (ID: 17343179/0x0108A2CB)->Render.Flags0 &= ~0x80000 // Bit 19
  7: 0x001C [0x2F] Nicolaus (ID: 17343180/0x0108A2CC)->Render.Flags0 &= ~0x80000 // Bit 19
  8: 0x0022 [0x2F] Five Moons (ID: 17343181/0x0108A2CD)->Render.Flags0 &= ~0x80000 // Bit 19
  9: 0x0028 [0x2F] Leki Shameene (ID: 17343182/0x0108A2CE)->Render.Flags0 &= ~0x80000 // Bit 19
 10: 0x002E [0x2F] Unnamed NPC (ID: 17343183/0x0108A2CF)->Render.Flags0 &= ~0x80000 // Bit 19
 11: 0x0034 [0x2F] Premas-Lamas (ID: 17343184/0x0108A2D0)->Render.Flags0 &= ~0x80000 // Bit 19
 12: 0x003A [0x2F] Allenberge (ID: 17343185/0x0108A2D1)->Render.Flags0 &= ~0x80000 // Bit 19
 13: 0x0040 [0x2F] Hippolite (ID: 17343186/0x0108A2D2)->Render.Flags0 &= ~0x80000 // Bit 19
 14: 0x0046 [0x2F] Unnamed NPC (ID: 17343187/0x0108A2D3)->Render.Flags0 &= ~0x80000 // Bit 19
 15: 0x004C [0x2F] Flap (ID: 17343188/0x0108A2D4)->Render.Flags0 &= ~0x80000 // Bit 19
 16: 0x0052 [0x2F] Unnamed NPC (ID: 17343189/0x0108A2D5)->Render.Flags0 &= ~0x80000 // Bit 19
 17: 0x0058 [0x2F] Unnamed NPC (ID: 17343190/0x0108A2D6)->Render.Flags0 &= ~0x80000 // Bit 19
 18: 0x005E [0x2F] Unnamed NPC (ID: 17343191/0x0108A2D7)->Render.Flags0 &= ~0x80000 // Bit 19
 19: 0x0064 [0x4E] SET_ENTITY_HIDE_FLAG: Show Volker (ID: 17343178/0x0108A2CA)
 20: 0x006A [0x4E] SET_ENTITY_HIDE_FLAG: Show Zeid (ID: 17343179/0x0108A2CB)
 21: 0x0070 [0x4E] SET_ENTITY_HIDE_FLAG: Show Nicolaus (ID: 17343180/0x0108A2CC)
 22: 0x0076 [0x4E] SET_ENTITY_HIDE_FLAG: Show Five Moons (ID: 17343181/0x0108A2CD)
 23: 0x007C [0x4E] SET_ENTITY_HIDE_FLAG: Show Leki Shameene (ID: 17343182/0x0108A2CE)
 24: 0x0082 [0x4E] SET_ENTITY_HIDE_FLAG: Show Unnamed NPC (ID: 17343183/0x0108A2CF)
 25: 0x0088 [0x4E] SET_ENTITY_HIDE_FLAG: Show Premas-Lamas (ID: 17343184/0x0108A2D0)
 26: 0x008E [0x4E] SET_ENTITY_HIDE_FLAG: Show Allenberge (ID: 17343185/0x0108A2D1)
 27: 0x0094 [0x4E] SET_ENTITY_HIDE_FLAG: Show Hippolite (ID: 17343186/0x0108A2D2)
 28: 0x009A [0x4E] SET_ENTITY_HIDE_FLAG: Show Unnamed NPC (ID: 17343187/0x0108A2D3)
 29: 0x00A0 [0x4E] SET_ENTITY_HIDE_FLAG: Show Flap (ID: 17343188/0x0108A2D4)
 30: 0x00A6 [0x4E] SET_ENTITY_HIDE_FLAG: Show Unnamed NPC (ID: 17343189/0x0108A2D5)
 31: 0x00AC [0x4E] SET_ENTITY_HIDE_FLAG: Show Unnamed NPC (ID: 17343190/0x0108A2D6)
 32: 0x00B2 [0x4E] SET_ENTITY_HIDE_FLAG: Show Unnamed NPC (ID: 17343191/0x0108A2D7)
 33: 0x00B8 [0x94] Volker (ID: 17343178/0x0108A2CA)->Render.Flags3 ^= 0x01
 34: 0x00BE [0x94] Zeid (ID: 17343179/0x0108A2CB)->Render.Flags3 ^= 0x01
 35: 0x00C4 [0x94] Nicolaus (ID: 17343180/0x0108A2CC)->Render.Flags3 ^= 0x01
 36: 0x00CA [0x94] Five Moons (ID: 17343181/0x0108A2CD)->Render.Flags3 ^= 0x01
 37: 0x00D0 [0x94] Leki Shameene (ID: 17343182/0x0108A2CE)->Render.Flags3 ^= 0x01
 38: 0x00D6 [0x94] Unnamed NPC (ID: 17343183/0x0108A2CF)->Render.Flags3 ^= 0x01
 39: 0x00DC [0x94] Premas-Lamas (ID: 17343184/0x0108A2D0)->Render.Flags3 ^= 0x01
 40: 0x00E2 [0x94] Allenberge (ID: 17343185/0x0108A2D1)->Render.Flags3 ^= 0x01
 41: 0x00E8 [0x94] Hippolite (ID: 17343186/0x0108A2D2)->Render.Flags3 ^= 0x01
 42: 0x00EE [0x94] Unnamed NPC (ID: 17343187/0x0108A2D3)->Render.Flags3 ^= 0x01
 43: 0x00F4 [0x94] Flap (ID: 17343188/0x0108A2D4)->Render.Flags3 ^= 0x01
 44: 0x00FA [0x94] Unnamed NPC (ID: 17343189/0x0108A2D5)->Render.Flags3 ^= 0x01
 45: 0x0100 [0x94] Unnamed NPC (ID: 17343190/0x0108A2D6)->Render.Flags3 ^= 0x01
 46: 0x0106 [0x94] Unnamed NPC (ID: 17343191/0x0108A2D7)->Render.Flags3 ^= 0x01
 47: 0x010C [0xBA] SET_ENTITY_POSITION(entity_id=LocalPlayer, pos_x=388.757*, pos_z=-19.990*, pos_y=-12.000*, direction=179.3°*)
 48: 0x0119 [0xBA] SET_ENTITY_POSITION(entity_id=Volker (ID: 17343178/0x0108A2CA), pos_x=373.606*, pos_z=-19.467*, pos_y=-12.010*, direction=180.6°*)
 49: 0x0126 [0xBA] SET_ENTITY_POSITION(entity_id=Zeid (ID: 17343179/0x0108A2CB), pos_x=373.089*, pos_z=-22.225*, pos_y=-12.013*, direction=180.6°*)
 50: 0x0133 [0xBA] SET_ENTITY_POSITION(entity_id=Nicolaus (ID: 17343180/0x0108A2CC), pos_x=371.414*, pos_z=-18.234*, pos_y=-12.001*, direction=180.6°*)
 51: 0x0140 [0xBA] SET_ENTITY_POSITION(entity_id=Five Moons (ID: 17343181/0x0108A2CD), pos_x=370.964*, pos_z=-20.850*, pos_y=-12.019*, direction=180.6°*)
 52: 0x014D [0xBA] SET_ENTITY_POSITION(entity_id=Leki Shameene (ID: 17343182/0x0108A2CE), pos_x=320.795*, pos_z=-21.799*, pos_y=-16.000*, direction=269.4°*)
 53: 0x015A [0xBA] SET_ENTITY_POSITION(entity_id=Unnamed NPC (ID: 17343183/0x0108A2CF), pos_x=323.924*, pos_z=-22.831*, pos_y=-16.020*, direction=194.1°*)
 54: 0x0167 [0xBA] SET_ENTITY_POSITION(entity_id=Premas-Lamas (ID: 17343184/0x0108A2D0), pos_x=326.731*, pos_z=-21.902*, pos_y=-16.030*, direction=179.1°*)
 55: 0x0174 [0xBA] SET_ENTITY_POSITION(entity_id=Allenberge (ID: 17343185/0x0108A2D1), pos_x=321.016*, pos_z=-20.252*, pos_y=-16.000*, direction=194.1°*)
 56: 0x0181 [0xBA] SET_ENTITY_POSITION(entity_id=Unnamed NPC (ID: 17343187/0x0108A2D3), pos_x=326.557*, pos_z=-23.012*, pos_y=-16.020*, direction=180.8°*)
 57: 0x018E [0xBA] SET_ENTITY_POSITION(entity_id=Flap (ID: 17343188/0x0108A2D4), pos_x=299.852*, pos_z=-6.963*, pos_y=-16.014*, direction=194.1°*)
 58: 0x019B [0xBA] SET_ENTITY_POSITION(entity_id=Unnamed NPC (ID: 17343189/0x0108A2D5), pos_x=318.000*, pos_z=-20.310*, pos_y=-16.000*, direction=0.0°*)
 59: 0x01A8 [0xBA] SET_ENTITY_POSITION(entity_id=Unnamed NPC (ID: 17343190/0x0108A2D6), pos_x=318.593*, pos_z=-18.218*, pos_y=-16.000*, direction=199.0°*)
 60: 0x01B5 [0xBA] SET_ENTITY_POSITION(entity_id=Unnamed NPC (ID: 17343191/0x0108A2D7), pos_x=317.108*, pos_z=-21.309*, pos_y=-16.000*, direction=109.6°*)
 61: 0x01C2 [0x80] LOAD_WAIT(entity=Volker (ID: 17343178/0x0108A2CA))
 62: 0x01C7 [0x80] LOAD_WAIT(entity=Zeid (ID: 17343179/0x0108A2CB))
 63: 0x01CC [0x80] LOAD_WAIT(entity=Nicolaus (ID: 17343180/0x0108A2CC))
 64: 0x01D1 [0x80] LOAD_WAIT(entity=Five Moons (ID: 17343181/0x0108A2CD))
 65: 0x01D6 [0x80] LOAD_WAIT(entity=LocalPlayer)
 66: 0x01DB [0x80] LOAD_WAIT(entity=Leki Shameene (ID: 17343182/0x0108A2CE))
 67: 0x01E0 [0x80] LOAD_WAIT(entity=Unnamed NPC (ID: 17343183/0x0108A2CF))
 68: 0x01E5 [0x80] LOAD_WAIT(entity=Premas-Lamas (ID: 17343184/0x0108A2D0))
 69: 0x01EA [0x80] LOAD_WAIT(entity=Allenberge (ID: 17343185/0x0108A2D1))
 70: 0x01EF [0x80] LOAD_WAIT(entity=Hippolite (ID: 17343186/0x0108A2D2))
 71: 0x01F4 [0x80] LOAD_WAIT(entity=Unnamed NPC (ID: 17343187/0x0108A2D3))
 72: 0x01F9 [0x80] LOAD_WAIT(entity=Flap (ID: 17343188/0x0108A2D4))
 73: 0x01FE [0x80] LOAD_WAIT(entity=Unnamed NPC (ID: 17343189/0x0108A2D5))
 74: 0x0203 [0x80] LOAD_WAIT(entity=Unnamed NPC (ID: 17343190/0x0108A2D6))
 75: 0x0208 [0x80] LOAD_WAIT(entity=Unnamed NPC (ID: 17343191/0x0108A2D7))
 76: 0x020D [0x1C] WAIT(60* ticks)
 77: 0x0210 [0x5B] LOAD_EXT_SCHEDULER: Load scheduler "sdon" with entities [Leki Shameene (ID: 17343182/0x0108A2CE), Leki Shameene (ID: 17343182/0x0108A2CE)], work=1529*
 78: 0x021F [0x66] LOAD_EXT_SCHEDULER_MAIN: Load scheduler "1rdy" with entities [Allenberge (ID: 17343185/0x0108A2D1), Allenberge (ID: 17343185/0x0108A2D1)], work=24*
 79: 0x022E [0x2C] CREATE_SCHEDULER_TASK: Create scheduler "dead" with entities [Unnamed NPC (ID: 17343190/0x0108A2D6), Unnamed NPC (ID: 17343190/0x0108A2D6)]
 80: 0x023B [0x2C] CREATE_SCHEDULER_TASK: Create scheduler "dead" with entities [Unnamed NPC (ID: 17343191/0x0108A2D7), Unnamed NPC (ID: 17343191/0x0108A2D7)]
 81: 0x0248 [0x1C] WAIT(180* ticks)
 82: 0x024B [0x45] LOAD_SCHEDULED_TASK: Load scheduler "0201" with entities [LocalPlayer, LocalPlayer], work=[510*, 0*]
 83: 0x025C [0x1A] CALL_SUBROUTINE(address=0x3E00)
 84: 0x025F [0x1C] WAIT(60* ticks)
 85: 0x0262 [0x27] REQ_SET(priority=0x10, entity_id=Iron Bar Gate (ID: 17343128/0x0108A298), tag_num=0x03)
 86: 0x0269 [0x1C] WAIT(60* ticks)
 87: 0x026C [0x27] REQ_SET(priority=0x10, entity_id=Zeid (ID: 17343179/0x0108A2CB), tag_num=0x07)
 88: 0x0273 [0x27] REQ_SET(priority=0x10, entity_id=Nicolaus (ID: 17343180/0x0108A2CC), tag_num=0x02)
 89: 0x027A [0x27] REQ_SET(priority=0x10, entity_id=Five Moons (ID: 17343181/0x0108A2CD), tag_num=0x02)
 90: 0x0281 [0x27] REQ_SET(priority=0x10, entity_id=Volker (ID: 17343178/0x0108A2CA), tag_num=0x06)
 91: 0x0288 [0x1C] WAIT(90* ticks)
 92: 0x028B [0x27] REQ_SET(priority=0x10, entity_id=LocalPlayer, tag_num=0x24)
 93: 0x0292 [0x1C] WAIT(120* ticks)
 94: 0x0295 [0x52] END_LOAD_SCHEDULER: End scheduler "0201" with entities [LocalPlayer, LocalPlayer], work=510*
 95: 0x02A4 [0x45] LOAD_SCHEDULED_TASK: Load scheduler "0200" with entities [LocalPlayer, LocalPlayer], work=[510*, 0*]
 96: 0x02B5 [0x27] REQ_SET(priority=0x10, entity_id=Iron Bar Gate (ID: 17343128/0x0108A298), tag_num=0x04)
 97: 0x02BC [0x1C] WAIT(60* ticks)
 98: 0x02BF [0x7A] VM_CONTROL: Reset VM for LocalPlayer
 99: 0x02C5 [0x1C] WAIT(90* ticks)
100: 0x02C8 [0x6E] LocalPlayer uses emote 8*
101: 0x02CF [0x99] Wait for LocalPlayer animation to complete
102: 0x02D4 [0x1C] WAIT(90* ticks)
103: 0x02D7 [0x1C] WAIT(90* ticks)
104: 0x02DA [0x27] REQ_SET(priority=0x10, entity_id=LocalPlayer, tag_num=0x24)
105: 0x02E1 [0x52] END_LOAD_SCHEDULER: End scheduler "0200" with entities [LocalPlayer, LocalPlayer], work=510*
106: 0x02F0 [0x45] LOAD_SCHEDULED_TASK: Load scheduler "0202" with entities [LocalPlayer, LocalPlayer], work=[510*, 0*]
107: 0x0301 [0x2A] GET_REQ_LEVEL(level=16, entity_id=Volker (ID: 17343178/0x0108A2CA))
108: 0x0307 [0x1C] WAIT(150* ticks)
109: 0x030A [0x2B] Volker (ID: 17343178/0x0108A2CA) [7774*]:
    → "Ah, there you are, <Player>. I was starting to get worried about you."
110: 0x0311 [0x23] WAIT_FOR_DIALOG_INTERACTION
111: 0x0312 [0x2A] GET_REQ_LEVEL(level=16, entity_id=LocalPlayer)
112: 0x0318 [0x1C] WAIT(30* ticks)
113: 0x031B [0x6E] LocalPlayer uses emote 7*
114: 0x0322 [0x99] Wait for LocalPlayer animation to complete
115: 0x0327 [0x1C] WAIT(90* ticks)
116: 0x032A [0x52] END_LOAD_SCHEDULER: End scheduler "0202" with entities [LocalPlayer, LocalPlayer], work=510*
117: 0x0339 [0x45] LOAD_SCHEDULED_TASK: Load scheduler "0203" with entities [LocalPlayer, LocalPlayer], work=[510*, 0*]
118: 0x034A [0xBA] SET_ENTITY_POSITION(entity_id=Nicolaus (ID: 17343180/0x0108A2CC), pos_x=358.000*, pos_z=-18.234*, pos_y=-12.001*, direction=180.6°*)
119: 0x0357 [0x4A] LocalPlayer looks at Nicolaus (ID: 17343180/0x0108A2CC)
120: 0x0360 [0x4A] Volker (ID: 17343178/0x0108A2CA) looks at Nicolaus (ID: 17343180/0x0108A2CC)
121: 0x0369 [0x2B] Nicolaus (ID: 17343180/0x0108A2CC) [7775*]:
    → "What's this...? Volker, look over there!"
122: 0x0370 [0x1C] WAIT(30* ticks)
123: 0x0373 [0x4B] UPDATE_ENTITY_YAW(entity=Nicolaus (ID: 17343180/0x0108A2CC), yaw=5.6°*)
124: 0x037A [0x79] Nicolaus (ID: 17343180/0x0108A2CC) looks at Volker (ID: 17343178/0x0108A2CA) (Basic look)
125: 0x0384 [0x1C] WAIT(120* ticks)
126: 0x0387 [0x23] WAIT_FOR_DIALOG_INTERACTION
127: 0x0388 [0x52] END_LOAD_SCHEDULER: End scheduler "0203" with entities [LocalPlayer, LocalPlayer], work=510*
128: 0x0397 [0x45] LOAD_SCHEDULED_TASK: Load scheduler "0204" with entities [LocalPlayer, LocalPlayer], work=[510*, 0*]
129: 0x03A8 [0x7B] LocalPlayer stops talking
130: 0x03AD [0x4A] LocalPlayer looks at Allenberge (ID: 17343185/0x0108A2D1)
131: 0x03B6 [0x4A] Volker (ID: 17343178/0x0108A2CA) looks at Allenberge (ID: 17343185/0x0108A2D1)
132: 0x03BF [0x79] Nicolaus (ID: 17343180/0x0108A2CC) looks at Unnamed NPC (ID: 17343187/0x0108A2D3) (Basic look)
133: 0x03C9 [0x1C] WAIT(150* ticks)
134: 0x03CC [0x52] END_LOAD_SCHEDULER: End scheduler "0204" with entities [LocalPlayer, LocalPlayer], work=510*
135: 0x03DB [0x45] LOAD_SCHEDULED_TASK: Load scheduler "0205" with entities [LocalPlayer, LocalPlayer], work=[510*, 0*]
136: 0x03EC [0x73] Unnamed NPC (ID: 17343187/0x0108A2D3) casts magic 3* on Allenberge (ID: 17343185/0x0108A2D1)
137: 0x03F7 [0x1C] WAIT(60* ticks)
138: 0x03FA [0x66] LOAD_EXT_SCHEDULER_MAIN: Load scheduler "1slh" with entities [Allenberge (ID: 17343185/0x0108A2D1), Allenberge (ID: 17343185/0x0108A2D1)], work=24*
139: 0x0409 [0x1C] WAIT(30* ticks)
140: 0x040C [0x27] REQ_SET(priority=0x10, entity_id=Unnamed NPC (ID: 17343190/0x0108A2D6), tag_num=0x05)
141: 0x0413 [0x1C] WAIT(30* ticks)
142: 0x0416 [0x2C] CREATE_SCHEDULER_TASK: Create scheduler "dead" with entities [Unnamed NPC (ID: 17343189/0x0108A2D5), Unnamed NPC (ID: 17343189/0x0108A2D5)]
143: 0x0423 [0x1C] WAIT(60* ticks)
144: 0x0426 [0x27] REQ_SET(priority=0x10, entity_id=Unnamed NPC (ID: 17343191/0x0108A2D7), tag_num=0x05)
145: 0x042D [0x1C] WAIT(30* ticks)
146: 0x0430 [0x66] LOAD_EXT_SCHEDULER_MAIN: Load scheduler "1rtn" with entities [Allenberge (ID: 17343185/0x0108A2D1), Allenberge (ID: 17343185/0x0108A2D1)], work=24*
147: 0x043F [0x1C] WAIT(30* ticks)
148: 0x0442 [0x5B] LOAD_EXT_SCHEDULER: Load scheduler "sdof" with entities [Leki Shameene (ID: 17343182/0x0108A2CE), Leki Shameene (ID: 17343182/0x0108A2CE)], work=1529*
149: 0x0451 [0x66] LOAD_EXT_SCHEDULER_MAIN: Load scheduler "sha0" with entities [Unnamed NPC (ID: 17343187/0x0108A2D3), Unnamed NPC (ID: 17343187/0x0108A2D3)], work=19*
150: 0x0460 [0x1C] WAIT(60* ticks)
151: 0x0463 [0x52] END_LOAD_SCHEDULER: End scheduler "0205" with entities [LocalPlayer, LocalPlayer], work=510*
152: 0x0472 [0x45] LOAD_SCHEDULED_TASK: Load scheduler "0206" with entities [LocalPlayer, LocalPlayer], work=[510*, 0*]
153: 0x0483 [0xBA] SET_ENTITY_POSITION(entity_id=Flap (ID: 17343188/0x0108A2D4), pos_x=307.356*, pos_z=-17.993*, pos_y=-16.000*, direction=11.2°*)
154: 0x0490 [0xBA] SET_ENTITY_POSITION(entity_id=Unnamed NPC (ID: 17343183/0x0108A2CF), pos_x=323.924*, pos_z=-23.500*, pos_y=-16.020*, direction=194.1°*)
155: 0x049D [0x2B] Volker (ID: 17343178/0x0108A2CA) [7776*]:
    → "Seems we're not the only cloak-and-dagger outfit in these parts. Perhaps they have some information to share."
156: 0x04A4 [0x23] WAIT_FOR_DIALOG_INTERACTION
157: 0x04A5 [0x52] END_LOAD_SCHEDULER: End scheduler "0206" with entities [LocalPlayer, LocalPlayer], work=510*
158: 0x04B4 [0x45] LOAD_SCHEDULED_TASK: Load scheduler "0207" with entities [LocalPlayer, LocalPlayer], work=[510*, 0*]
159: 0x04C5 [0x7B] LocalPlayer stops talking
160: 0x04CA [0x27] REQ_SET(priority=0x10, entity_id=Flap (ID: 17343188/0x0108A2D4), tag_num=0x08)
161: 0x04D1 [0x1C] WAIT(60* ticks)
162: 0x04D4 [0x4A] Leki Shameene (ID: 17343182/0x0108A2CE) looks at Flap (ID: 17343188/0x0108A2D4)
163: 0x04DD [0x1C] WAIT(60* ticks)
164: 0x04E0 [0x52] END_LOAD_SCHEDULER: End scheduler "0207" with entities [LocalPlayer, LocalPlayer], work=510*
165: 0x04EF [0x45] LOAD_SCHEDULED_TASK: Load scheduler "0208" with entities [LocalPlayer, LocalPlayer], work=[510*, 0*]
166: 0x0500 [0x7A] VM_CONTROL: Reset VM for Flap (ID: 17343188/0x0108A2D4)
167: 0x0506 [0x5B] LOAD_EXT_SCHEDULER: Load scheduler "sdon" with entities [Leki Shameene (ID: 17343182/0x0108A2CE), Leki Shameene (ID: 17343182/0x0108A2CE)], work=1529*
168: 0x0515 [0x2B] Leki Shameene (ID: 17343182/0x0108A2CE) [7777*]:
    → "Grrrrrr... I swear, no sooner ya kill one o' these fiends than one o' their buddies slitherrrs in t' take its place."
169: 0x051C [0x23] WAIT_FOR_DIALOG_INTERACTION
170: 0x051D [0x52] END_LOAD_SCHEDULER: End scheduler "0208" with entities [LocalPlayer, LocalPlayer], work=510*
171: 0x052C [0x45] LOAD_SCHEDULED_TASK: Load scheduler "0209" with entities [LocalPlayer, LocalPlayer], work=[510*, 0*]
172: 0x053D [0x2B] Allenberge (ID: 17343185/0x0108A2D1) [7778*]:
    → "We can ill afford to engage the grunts one by one. Incapacitate them quickly and falter not in your advance!"
173: 0x0544 [0x23] WAIT_FOR_DIALOG_INTERACTION
174: 0x0545 [0x53] WAIT_SCHEDULER_TASK: Wait for scheduler "sdon" with entities [Leki Shameene (ID: 17343182/0x0108A2CE), Leki Shameene (ID: 17343182/0x0108A2CE)]
175: 0x0552 [0x52] END_LOAD_SCHEDULER: End scheduler "0209" with entities [LocalPlayer, LocalPlayer], work=510*
176: 0x0561 [0x45] LOAD_SCHEDULED_TASK: Load scheduler "020a" with entities [LocalPlayer, LocalPlayer], work=[510*, 0*]
177: 0x0572 [0x5B] LOAD_EXT_SCHEDULER: Load scheduler "sdof" with entities [Leki Shameene (ID: 17343182/0x0108A2CE), Leki Shameene (ID: 17343182/0x0108A2CE)], work=1529*
178: 0x0581 [0x2B] Leki Shameene (ID: 17343182/0x0108A2CE) [7779*]:
    → "Got it! Ya hearrr that back there? The boss said less twiddlin' yer thumbs, and more tongue-tyin' and leg-clampin'!"
179: 0x0588 [0x1C] WAIT(90* ticks)
180: 0x058B [0x66] LOAD_EXT_SCHEDULER_MAIN: Load scheduler "sha1" with entities [Unnamed NPC (ID: 17343187/0x0108A2D3), Unnamed NPC (ID: 17343187/0x0108A2D3)], work=19*
181: 0x059A [0x1C] WAIT(90* ticks)
182: 0x059D [0x23] WAIT_FOR_DIALOG_INTERACTION
183: 0x059E [0x52] END_LOAD_SCHEDULER: End scheduler "020a" with entities [LocalPlayer, LocalPlayer], work=510*
184: 0x05AD [0x45] LOAD_SCHEDULED_TASK: Load scheduler "020b" with entities [LocalPlayer, LocalPlayer], work=[510*, 0*]
185: 0x05BE [0x81] SET_ENTITY_BLINKING(blink_flag=0x00, entity=Premas-Lamas (ID: 17343184/0x0108A2D0))
186: 0x05C4 [0x66] LOAD_EXT_SCHEDULER_MAIN: Load scheduler "cabk" with entities [Premas-Lamas (ID: 17343184/0x0108A2D0), Premas-Lamas (ID: 17343184/0x0108A2D0)], work=43*
187: 0x05D3 [0x6E] Unnamed NPC (ID: 17343187/0x0108A2D3) uses emote 7*
188: 0x05DA [0x99] Wait for Unnamed NPC (ID: 17343187/0x0108A2D3) animation to complete
189: 0x05DF [0x4A] Leki Shameene (ID: 17343182/0x0108A2CE) looks at Flap (ID: 17343188/0x0108A2D4)
190: 0x05E8 [0x7B] Leki Shameene (ID: 17343182/0x0108A2CE) stops talking
191: 0x05ED [0x2B] Premas-Lamas (ID: 17343184/0x0108A2D0) [7780*]:
    → "That's a roger-woger, ma'am! How about one of these?"
192: 0x05F4 [0x1C] WAIT(120* ticks)
193: 0x05F7 [0x73] Unnamed NPC (ID: 17343187/0x0108A2D3) casts magic 59* on Hippolite (ID: 17343186/0x0108A2D2)
194: 0x0602 [0x1C] WAIT(90* ticks)
195: 0x0605 [0x52] END_LOAD_SCHEDULER: End scheduler "020b" with entities [LocalPlayer, LocalPlayer], work=510*
196: 0x0614 [0x45] LOAD_SCHEDULED_TASK: Load scheduler "020c" with entities [LocalPlayer, LocalPlayer], work=[510*, 0*]
197: 0x0625 [0xBA] SET_ENTITY_POSITION(entity_id=LocalPlayer, pos_x=347.695*, pos_z=-19.374*, pos_y=-12.074*, direction=179.3°*)
198: 0x0632 [0xBA] SET_ENTITY_POSITION(entity_id=Volker (ID: 17343178/0x0108A2CA), pos_x=341.348*, pos_z=-19.746*, pos_y=-13.499*, direction=180.6°*)
199: 0x063F [0xBA] SET_ENTITY_POSITION(entity_id=Zeid (ID: 17343179/0x0108A2CB), pos_x=344.147*, pos_z=-22.261*, pos_y=-13.000*, direction=180.6°*)
200: 0x064C [0xBA] SET_ENTITY_POSITION(entity_id=Nicolaus (ID: 17343180/0x0108A2CC), pos_x=344.341*, pos_z=-18.457*, pos_y=-12.749*, direction=180.6°*)
201: 0x0659 [0xBA] SET_ENTITY_POSITION(entity_id=Unnamed NPC (ID: 17343183/0x0108A2CF), pos_x=323.924*, pos_z=-22.831*, pos_y=-16.020*, direction=194.1°*)
202: 0x0666 [0xBA] SET_ENTITY_POSITION(entity_id=Five Moons (ID: 17343181/0x0108A2CD), pos_x=347.826*, pos_z=-20.896*, pos_y=-12.065*, direction=180.6°*)
203: 0x0673 [0x27] REQ_SET(priority=0x10, entity_id=Flap (ID: 17343188/0x0108A2D4), tag_num=0x08)
204: 0x067A [0x73] Hippolite (ID: 17343186/0x0108A2D2) casts magic 59* on Flap (ID: 17343188/0x0108A2D4)
205: 0x0685 [0x1C] WAIT(300* ticks)
206: 0x0688 [0x52] END_LOAD_SCHEDULER: End scheduler "020c" with entities [LocalPlayer, LocalPlayer], work=510*
207: 0x0697 [0x45] LOAD_SCHEDULED_TASK: Load scheduler "020d" with entities [LocalPlayer, LocalPlayer], work=[510*, 0*]
208: 0x06A8 [0x7B] LocalPlayer stops talking
209: 0x06AD [0x7B] Volker (ID: 17343178/0x0108A2CA) stops talking
210: 0x06B2 [0x7B] Zeid (ID: 17343179/0x0108A2CB) stops talking
211: 0x06B7 [0x7B] Nicolaus (ID: 17343180/0x0108A2CC) stops talking
212: 0x06BC [0x7B] Five Moons (ID: 17343181/0x0108A2CD) stops talking
213: 0x06C1 [0x27] REQ_SET(priority=0x10, entity_id=LocalPlayer, tag_num=0x25)
214: 0x06C8 [0x27] REQ_SET(priority=0x10, entity_id=Volker (ID: 17343178/0x0108A2CA), tag_num=0x07)
215: 0x06CF [0x27] REQ_SET(priority=0x10, entity_id=Zeid (ID: 17343179/0x0108A2CB), tag_num=0x08)
216: 0x06D6 [0x27] REQ_SET(priority=0x10, entity_id=Nicolaus (ID: 17343180/0x0108A2CC), tag_num=0x03)
217: 0x06DD [0x27] REQ_SET(priority=0x10, entity_id=Five Moons (ID: 17343181/0x0108A2CD), tag_num=0x03)
218: 0x06E4 [0x1C] WAIT(60* ticks)
219: 0x06E7 [0xBB] LOAD_EVENT_SCHEDULER_ALT: Load scheduler "stat" with entities [Flap (ID: 17343188/0x0108A2D4), Flap (ID: 17343188/0x0108A2D4)], work=[225*, 0*]
220: 0x06F8 [0x27] REQ_SET(priority=0x10, entity_id=Flap (ID: 17343188/0x0108A2D4), tag_num=0x09)
221: 0x06FF [0x81] SET_ENTITY_BLINKING(blink_flag=0x01, entity=Premas-Lamas (ID: 17343184/0x0108A2D0))
222: 0x0705 [0x66] LOAD_EXT_SCHEDULER_MAIN: Load scheduler "shbk" with entities [Premas-Lamas (ID: 17343184/0x0108A2D0), Premas-Lamas (ID: 17343184/0x0108A2D0)], work=43*
223: 0x0714 [0x73] Hippolite (ID: 17343186/0x0108A2D2) casts magic 258* on Flap (ID: 17343188/0x0108A2D4)
224: 0x071F [0x1C] WAIT(300* ticks)
225: 0x0722 [0x52] END_LOAD_SCHEDULER: End scheduler "020d" with entities [LocalPlayer, LocalPlayer], work=510*
226: 0x0731 [0x45] LOAD_SCHEDULED_TASK: Load scheduler "020e" with entities [LocalPlayer, LocalPlayer], work=[510*, 0*]
227: 0x0742 [0x27] REQ_SET(priority=0x10, entity_id=Unnamed NPC (ID: 17343189/0x0108A2D5), tag_num=0x05)
228: 0x0749 [0x27] REQ_SET(priority=0x10, entity_id=Leki Shameene (ID: 17343182/0x0108A2CE), tag_num=0x03)
229: 0x0750 [0x27] REQ_SET(priority=0x10, entity_id=Unnamed NPC (ID: 17343183/0x0108A2CF), tag_num=0x03)
230: 0x0757 [0x27] REQ_SET(priority=0x10, entity_id=Premas-Lamas (ID: 17343184/0x0108A2D0), tag_num=0x03)
231: 0x075E [0x27] REQ_SET(priority=0x10, entity_id=Unnamed NPC (ID: 17343187/0x0108A2D3), tag_num=0x03)
232: 0x0765 [0x29] REQ_SET_WAIT(priority=0x10, entity_id=Allenberge (ID: 17343185/0x0108A2D1), tag_num=0x03)
233: 0x076C [0x2B] Allenberge (ID: 17343185/0x0108A2D1) [7781*]:
    → "Stay your advance, foul--! Wait...you are not foes. Who are you, and what brings you to these disagreeable environs?"
234: 0x0773 [0x23] WAIT_FOR_DIALOG_INTERACTION
235: 0x0774 [0x2A] GET_REQ_LEVEL(level=16, entity_id=Five Moons (ID: 17343181/0x0108A2CD))
236: 0x077A [0x52] END_LOAD_SCHEDULER: End scheduler "020e" with entities [LocalPlayer, LocalPlayer], work=510*
237: 0x0789 [0x45] LOAD_SCHEDULED_TASK: Load scheduler "020f" with entities [LocalPlayer, LocalPlayer], work=[510*, 0*]
238: 0x079A [0xBB] LOAD_EVENT_SCHEDULER_ALT: Load scheduler "stop" with entities [Flap (ID: 17343188/0x0108A2D4), Flap (ID: 17343188/0x0108A2D4)], work=[225*, 0*]
239: 0x07AB [0x27] REQ_SET(priority=0x10, entity_id=LocalPlayer, tag_num=0x26)
240: 0x07B2 [0x27] REQ_SET(priority=0x10, entity_id=Nicolaus (ID: 17343180/0x0108A2CC), tag_num=0x04)
241: 0x07B9 [0x27] REQ_SET(priority=0x10, entity_id=Five Moons (ID: 17343181/0x0108A2CD), tag_num=0x04)
242: 0x07C0 [0x27] REQ_SET(priority=0x10, entity_id=Volker (ID: 17343178/0x0108A2CA), tag_num=0x08)
243: 0x07C7 [0x2B] Volker (ID: 17343178/0x0108A2CA) [7782*]:
    → "I am Volker, of the Republican Army. These are my companions."
244: 0x07CE [0x1C] WAIT(120* ticks)
245: 0x07D1 [0x23] WAIT_FOR_DIALOG_INTERACTION
246: 0x07D2 [0x5B] LOAD_EXT_SCHEDULER: Load scheduler "tsa0" with entities [Volker (ID: 17343178/0x0108A2CA), Volker (ID: 17343178/0x0108A2CA)], work=200*
247: 0x07E1 [0x2B] Volker (ID: 17343178/0x0108A2CA) [7783*]:
    → "If I could ask but a moment of your time, Captain, have you by chance seen a Hume woman in these parts?"
248: 0x07E8 [0x1C] WAIT(90* ticks)
249: 0x07EB [0x23] WAIT_FOR_DIALOG_INTERACTION
250: 0x07EC [0x52] END_LOAD_SCHEDULER: End scheduler "020f" with entities [LocalPlayer, LocalPlayer], work=510*
251: 0x07FB [0x45] LOAD_SCHEDULED_TASK: Load scheduler "020g" with entities [LocalPlayer, LocalPlayer], work=[510*, 0*]
252: 0x080C [0x2B] Volker (ID: 17343178/0x0108A2CA) [7784*]:
    → "Tall, with auburn hair...and imposingly armed when last we saw her."
253: 0x0813 [0x23] WAIT_FOR_DIALOG_INTERACTION
254: 0x0814 [0x52] END_LOAD_SCHEDULER: End scheduler "020g" with entities [LocalPlayer, LocalPlayer], work=510*
255: 0x0823 [0x45] LOAD_SCHEDULED_TASK: Load scheduler "020h" with entities [LocalPlayer, LocalPlayer], work=[510*, 0*]
256: 0x0834 [0x5B] LOAD_EXT_SCHEDULER: Load scheduler "tsa1" with entities [Volker (ID: 17343178/0x0108A2CA), Volker (ID: 17343178/0x0108A2CA)], work=200*
257: 0x0843 [0x27] REQ_SET(priority=0x10, entity_id=Leki Shameene (ID: 17343182/0x0108A2CE), tag_num=0x04)
258: 0x084A [0x27] REQ_SET(priority=0x10, entity_id=Unnamed NPC (ID: 17343183/0x0108A2CF), tag_num=0x04)
259: 0x0851 [0x27] REQ_SET(priority=0x10, entity_id=Premas-Lamas (ID: 17343184/0x0108A2D0), tag_num=0x04)
260: 0x0858 [0x27] REQ_SET(priority=0x10, entity_id=Unnamed NPC (ID: 17343187/0x0108A2D3), tag_num=0x04)
261: 0x085F [0x66] LOAD_EXT_SCHEDULER_MAIN: Load scheduler "tlk0" with entities [Allenberge (ID: 17343185/0x0108A2D1), Allenberge (ID: 17343185/0x0108A2D1)], work=29*
262: 0x086E [0x2B] Allenberge (ID: 17343185/0x0108A2D1) [7785*]:
    → "Volker, is it? Allenberge of the Hydra Corps. I must say, this is an inauspicious time and venue to be conducting a search..."
263: 0x0875 [0x1C] WAIT(180* ticks)
264: 0x0878 [0x23] WAIT_FOR_DIALOG_INTERACTION
265: 0x0879 [0x52] END_LOAD_SCHEDULER: End scheduler "020h" with entities [LocalPlayer, LocalPlayer], work=510*
266: 0x0888 [0x45] LOAD_SCHEDULED_TASK: Load scheduler "020i" with entities [LocalPlayer, LocalPlayer], work=[510*, 0*]
267: 0x0899 [0x4A] Allenberge (ID: 17343185/0x0108A2D1) looks at Unnamed NPC (ID: 17343187/0x0108A2D3)
268: 0x08A2 [0x4A] Leki Shameene (ID: 17343182/0x0108A2CE) looks at Allenberge (ID: 17343185/0x0108A2D1)
269: 0x08AB [0x4A] Unnamed NPC (ID: 17343183/0x0108A2CF) looks at Allenberge (ID: 17343185/0x0108A2D1)
270: 0x08B4 [0x4A] Premas-Lamas (ID: 17343184/0x0108A2D0) looks at Allenberge (ID: 17343185/0x0108A2D1)
271: 0x08BD [0x4A] Unnamed NPC (ID: 17343187/0x0108A2D3) looks at Allenberge (ID: 17343185/0x0108A2D1)
272: 0x08C6 [0x66] LOAD_EXT_SCHEDULER_MAIN: Load scheduler "tlk1" with entities [Allenberge (ID: 17343185/0x0108A2D1), Allenberge (ID: 17343185/0x0108A2D1)], work=29*
273: 0x08D5 [0x2B] Allenberge (ID: 17343185/0x0108A2D1) [7786*]:
    → "I fear I've seen naught in these halls but foul creatures and ample colonies of mold, but perhaps my subordinates have encountered your quarry."
274: 0x08DC [0x1C] WAIT(90* ticks)
275: 0x08DF [0x23] WAIT_FOR_DIALOG_INTERACTION
276: 0x08E0 [0x66] LOAD_EXT_SCHEDULER_MAIN: Load scheduler "thk1" with entities [Leki Shameene (ID: 17343182/0x0108A2CE), Leki Shameene (ID: 17343182/0x0108A2CE)], work=59*
277: 0x08EF [0x2B] Leki Shameene (ID: 17343182/0x0108A2CE) [7787*]:
    → "A warrior lass drrressed t' impress, y'say? 'Fraid the only one 'round here who fits that description is yours trrruly, here."
278: 0x08F6 [0x1C] WAIT(90* ticks)
279: 0x08F9 [0x23] WAIT_FOR_DIALOG_INTERACTION
280: 0x08FA [0x52] END_LOAD_SCHEDULER: End scheduler "020i" with entities [LocalPlayer, LocalPlayer], work=510*
281: 0x0909 [0x45] LOAD_SCHEDULED_TASK: Load scheduler "020j" with entities [LocalPlayer, LocalPlayer], work=[510*, 0*]
282: 0x091A [0x66] LOAD_EXT_SCHEDULER_MAIN: Load scheduler "thk2" with entities [Leki Shameene (ID: 17343182/0x0108A2CE), Leki Shameene (ID: 17343182/0x0108A2CE)], work=59*
283: 0x0929 [0x5B] LOAD_EXT_SCHEDULER: Load scheduler "tsk1" with entities [Volker (ID: 17343178/0x0108A2CA), Volker (ID: 17343178/0x0108A2CA)], work=1397*
284: 0x0938 [0x4A] Allenberge (ID: 17343185/0x0108A2D1) looks at Volker (ID: 17343178/0x0108A2CA)
285: 0x0941 [0x2B] Volker (ID: 17343178/0x0108A2CA) [7788*]:
    → "...I see."
286: 0x0948 [0x1C] WAIT(90* ticks)
287: 0x094B [0x23] WAIT_FOR_DIALOG_INTERACTION
288: 0x094C [0x5B] LOAD_EXT_SCHEDULER: Load scheduler "thk2" with entities [Volker (ID: 17343178/0x0108A2CA), Volker (ID: 17343178/0x0108A2CA)], work=1397*
289: 0x095B [0x66] LOAD_EXT_SCHEDULER_MAIN: Load scheduler "tlk0" with entities [Allenberge (ID: 17343185/0x0108A2D1), Allenberge (ID: 17343185/0x0108A2D1)], work=29*
290: 0x096A [0x2B] Allenberge (ID: 17343185/0x0108A2D1) [7789*]:
    → "My apologies, friend, but it seems you will have to find your clues elsewhere. Now, if you'll excuse us, we must--"
291: 0x0971 [0x1C] WAIT(90* ticks)
292: 0x0974 [0x23] WAIT_FOR_DIALOG_INTERACTION
293: 0x0975 [0x52] END_LOAD_SCHEDULER: End scheduler "020j" with entities [LocalPlayer, LocalPlayer], work=510*
294: 0x0984 [0x45] LOAD_SCHEDULED_TASK: Load scheduler "020k" with entities [LocalPlayer, LocalPlayer], work=[510*, 0*]
295: 0x0995 [0x66] LOAD_EXT_SCHEDULER_MAIN: Load scheduler "tlk1" with entities [Allenberge (ID: 17343185/0x0108A2D1), Allenberge (ID: 17343185/0x0108A2D1)], work=29*
296: 0x09A4 [0xBB] LOAD_EVENT_SCHEDULER_ALT: Load scheduler "stat" with entities [Flap (ID: 17343188/0x0108A2D4), Flap (ID: 17343188/0x0108A2D4)], work=[225*, 0*]
297: 0x09B5 [0x2B] Allenberge (ID: 17343185/0x0108A2D1) [7790*]:
    → "Wait. 'Tis a stab in the dark, but perchance that imp might be hoarding a secret or two. I'd sooner skewer it than trust a word off its vile tongue, but in desperate times..."
298: 0x09BC [0x4A] Allenberge (ID: 17343185/0x0108A2D1) looks at Flap (ID: 17343188/0x0108A2D4)
299: 0x09C5 [0x1C] WAIT(150* ticks)
300: 0x09C8 [0x52] END_LOAD_SCHEDULER: End scheduler "020k" with entities [LocalPlayer, LocalPlayer], work=510*
301: 0x09D7 [0x45] LOAD_SCHEDULED_TASK: Load scheduler "020l" with entities [LocalPlayer, LocalPlayer], work=[510*, 0*]
302: 0x09E8 [0xBA] SET_ENTITY_POSITION(entity_id=Hippolite (ID: 17343186/0x0108A2D2), pos_x=301.629*, pos_z=-9.279*, pos_y=-16.004*, direction=169.7°*)
303: 0x09F5 [0x1C] WAIT(60* ticks)
304: 0x09F8 [0x23] WAIT_FOR_DIALOG_INTERACTION
305: 0x09F9 [0x27] REQ_SET(priority=0x10, entity_id=Hippolite (ID: 17343186/0x0108A2D2), tag_num=0x03)
306: 0x0A00 [0x45] LOAD_SCHEDULED_TASK: Load scheduler "020n" with entities [LocalPlayer, LocalPlayer], work=[510*, 0*]
307: 0x0A11 [0x1C] WAIT(240* ticks)
308: 0x0A14 [0x52] END_LOAD_SCHEDULER: End scheduler "020n" with entities [LocalPlayer, LocalPlayer], work=510*
309: 0x0A23 [0x45] LOAD_SCHEDULED_TASK: Load scheduler "020m" with entities [LocalPlayer, LocalPlayer], work=[510*, 0*]
310: 0x0A34 [0xBB] LOAD_EVENT_SCHEDULER_ALT: Load scheduler "stop" with entities [Flap (ID: 17343188/0x0108A2D4), Flap (ID: 17343188/0x0108A2D4)], work=[225*, 0*]
311: 0x0A45 [0x4A] Allenberge (ID: 17343185/0x0108A2D1) looks at Hippolite (ID: 17343186/0x0108A2D2)
312: 0x0A4E [0x4A] Leki Shameene (ID: 17343182/0x0108A2CE) looks at Hippolite (ID: 17343186/0x0108A2D2)
313: 0x0A57 [0x4A] Unnamed NPC (ID: 17343183/0x0108A2CF) looks at Hippolite (ID: 17343186/0x0108A2D2)
314: 0x0A60 [0x4A] Premas-Lamas (ID: 17343184/0x0108A2D0) looks at Hippolite (ID: 17343186/0x0108A2D2)
315: 0x0A69 [0x4A] Unnamed NPC (ID: 17343187/0x0108A2D3) looks at Hippolite (ID: 17343186/0x0108A2D2)
316: 0x0A72 [0x2B] Hippolite (ID: 17343186/0x0108A2D2) [7791*]:
    → "Captain Allenberge, sir! We've come upon a hidden passage above! Behind the stone structure in the northeast chamber!"
317: 0x0A79 [0x23] WAIT_FOR_DIALOG_INTERACTION
318: 0x0A7A [0x2A] GET_REQ_LEVEL(level=16, entity_id=Hippolite (ID: 17343186/0x0108A2D2))
319: 0x0A80 [0x27] REQ_SET(priority=0x10, entity_id=Allenberge (ID: 17343185/0x0108A2D1), tag_num=0x04)
320: 0x0A87 [0x2B] Allenberge (ID: 17343185/0x0108A2D1) [7792*]:
    → "A passage, you say?"
321: 0x0A8E [0x23] WAIT_FOR_DIALOG_INTERACTION
322: 0x0A8F [0x2A] GET_REQ_LEVEL(level=16, entity_id=Allenberge (ID: 17343185/0x0108A2D1))
323: 0x0A95 [0x52] END_LOAD_SCHEDULER: End scheduler "020m" with entities [LocalPlayer, LocalPlayer], work=510*
324: 0x0AA4 [0x45] LOAD_SCHEDULED_TASK: Load scheduler "020o" with entities [LocalPlayer, LocalPlayer], work=[510*, 0*]
325: 0x0AB5 [0x2B] Allenberge (ID: 17343185/0x0108A2D1) [7793*]:
    → "Is this the entrance we seek, or merely a snare laid by our foe? The game is afoot..."
326: 0x0ABC [0x23] WAIT_FOR_DIALOG_INTERACTION
327: 0x0ABD [0x6E] Hippolite (ID: 17343186/0x0108A2D2) uses emote 2*
328: 0x0AC4 [0x99] Wait for Hippolite (ID: 17343186/0x0108A2D2) animation to complete
329: 0x0AC9 [0x1C] WAIT(90* ticks)
330: 0x0ACC [0x52] END_LOAD_SCHEDULER: End scheduler "020o" with entities [LocalPlayer, LocalPlayer], work=510*
331: 0x0ADB [0x45] LOAD_SCHEDULED_TASK: Load scheduler "020p" with entities [LocalPlayer, LocalPlayer], work=[510*, 0*]
332: 0x0AEC [0x1C] WAIT(60* ticks)
333: 0x0AEF [0x7B] Allenberge (ID: 17343185/0x0108A2D1) stops talking
334: 0x0AF4 [0x27] REQ_SET(priority=0x10, entity_id=Leki Shameene (ID: 17343182/0x0108A2CE), tag_num=0x05)
335: 0x0AFB [0x27] REQ_SET(priority=0x10, entity_id=Unnamed NPC (ID: 17343183/0x0108A2CF), tag_num=0x05)
336: 0x0B02 [0x27] REQ_SET(priority=0x10, entity_id=Premas-Lamas (ID: 17343184/0x0108A2D0), tag_num=0x05)
337: 0x0B09 [0x27] REQ_SET(priority=0x10, entity_id=Unnamed NPC (ID: 17343187/0x0108A2D3), tag_num=0x05)
338: 0x0B10 [0x27] REQ_SET(priority=0x10, entity_id=Hippolite (ID: 17343186/0x0108A2D2), tag_num=0x04)
339: 0x0B17 [0x1C] WAIT(30* ticks)
340: 0x0B1A [0x4A] Allenberge (ID: 17343185/0x0108A2D1) looks at Volker (ID: 17343178/0x0108A2CA)
341: 0x0B23 [0x1C] WAIT(150* ticks)
342: 0x0B26 [0x52] END_LOAD_SCHEDULER: End scheduler "020p" with entities [LocalPlayer, LocalPlayer], work=510*
343: 0x0B35 [0x45] LOAD_SCHEDULED_TASK: Load scheduler "020q" with entities [LocalPlayer, LocalPlayer], work=[510*, 0*]
344: 0x0B46 [0x1C] WAIT(30* ticks)
345: 0x0B49 [0x2B] Allenberge (ID: 17343185/0x0108A2D1) [7794*]:
    → "We must be off, friend. May your search bear fruit."
346: 0x0B50 [0x6E] Allenberge (ID: 17343185/0x0108A2D1) uses emote 2*
347: 0x0B57 [0x99] Wait for Allenberge (ID: 17343185/0x0108A2D1) animation to complete
348: 0x0B5C [0x1C] WAIT(180* ticks)
349: 0x0B5F [0x27] REQ_SET(priority=0x10, entity_id=Allenberge (ID: 17343185/0x0108A2D1), tag_num=0x05)
350: 0x0B66 [0x1C] WAIT(120* ticks)
351: 0x0B69 [0x52] END_LOAD_SCHEDULER: End scheduler "020q" with entities [LocalPlayer, LocalPlayer], work=510*
352: 0x0B78 [0x45] LOAD_SCHEDULED_TASK: Load scheduler "020r" with entities [LocalPlayer, LocalPlayer], work=[510*, 0*]
353: 0x0B89 [0x1C] WAIT(180* ticks)
354: 0x0B8C [0x7B] Zeid (ID: 17343179/0x0108A2CB) stops talking
355: 0x0B91 [0x27] REQ_SET(priority=0x10, entity_id=LocalPlayer, tag_num=0x27)
356: 0x0B98 [0x27] REQ_SET(priority=0x10, entity_id=Nicolaus (ID: 17343180/0x0108A2CC), tag_num=0x05)
357: 0x0B9F [0x27] REQ_SET(priority=0x10, entity_id=Five Moons (ID: 17343181/0x0108A2CD), tag_num=0x05)
358: 0x0BA6 [0x27] REQ_SET(priority=0x10, entity_id=Volker (ID: 17343178/0x0108A2CA), tag_num=0x09)
359: 0x0BAD [0x27] REQ_SET(priority=0x10, entity_id=Zeid (ID: 17343179/0x0108A2CB), tag_num=0x09)
360: 0x0BB4 [0x1C] WAIT(120* ticks)
361: 0x0BB7 [0x79] LocalPlayer looks at Flap (ID: 17343188/0x0108A2D4) (Basic look)
362: 0x0BC1 [0x79] Nicolaus (ID: 17343180/0x0108A2CC) looks at Flap (ID: 17343188/0x0108A2D4) (Basic look)
363: 0x0BCB [0x79] Five Moons (ID: 17343181/0x0108A2CD) looks at Flap (ID: 17343188/0x0108A2D4) (Basic look)
364: 0x0BD5 [0x79] Volker (ID: 17343178/0x0108A2CA) looks at Flap (ID: 17343188/0x0108A2D4) (Basic look)
365: 0x0BDF [0x1C] WAIT(90* ticks)
366: 0x0BE2 [0x1A] CALL_SUBROUTINE(address=0x3E21)
367: 0x0BE5 [0x52] END_LOAD_SCHEDULER: End scheduler "020r" with entities [LocalPlayer, LocalPlayer], work=510*
368: 0x0BF4 [0x45] LOAD_SCHEDULED_TASK: Load scheduler "020s" with entities [LocalPlayer, LocalPlayer], work=[510*, 0*]
369: 0x0C05 [0x7A] VM_CONTROL: Reset VM for LocalPlayer
370: 0x0C0B [0x7A] VM_CONTROL: Reset VM for Volker (ID: 17343178/0x0108A2CA)
371: 0x0C11 [0x7A] VM_CONTROL: Reset VM for Zeid (ID: 17343179/0x0108A2CB)
372: 0x0C17 [0x7A] VM_CONTROL: Reset VM for Nicolaus (ID: 17343180/0x0108A2CC)
373: 0x0C1D [0x7A] VM_CONTROL: Reset VM for Five Moons (ID: 17343181/0x0108A2CD)
374: 0x0C23 [0xBA] SET_ENTITY_POSITION(entity_id=LocalPlayer, pos_x=306.381*, pos_z=-19.652*, pos_y=-16.029*, direction=267.8°*)
375: 0x0C30 [0xBA] SET_ENTITY_POSITION(entity_id=Volker (ID: 17343178/0x0108A2CA), pos_x=305.481*, pos_z=-18.345*, pos_y=-16.000*, direction=347.2°*)
376: 0x0C3D [0xBA] SET_ENTITY_POSITION(entity_id=Zeid (ID: 17343179/0x0108A2CB), pos_x=303.491*, pos_z=-19.617*, pos_y=-16.000*, direction=325.2°*)
377: 0x0C4A [0xBA] SET_ENTITY_POSITION(entity_id=Nicolaus (ID: 17343180/0x0108A2CC), pos_x=305.604*, pos_z=-16.844*, pos_y=-16.027*, direction=43.9°*)
378: 0x0C57 [0xBA] SET_ENTITY_POSITION(entity_id=Five Moons (ID: 17343181/0x0108A2CD), pos_x=303.525*, pos_z=-17.407*, pos_y=-16.010*, direction=8.8°*)
379: 0x0C64 [0x4A] LocalPlayer looks at Flap (ID: 17343188/0x0108A2D4)
380: 0x0C6D [0x4A] Volker (ID: 17343178/0x0108A2CA) looks at Flap (ID: 17343188/0x0108A2D4)
381: 0x0C76 [0x4A] Zeid (ID: 17343179/0x0108A2CB) looks at Flap (ID: 17343188/0x0108A2D4)
382: 0x0C7F [0x4A] Nicolaus (ID: 17343180/0x0108A2CC) looks at Flap (ID: 17343188/0x0108A2D4)
383: 0x0C88 [0x4A] Five Moons (ID: 17343181/0x0108A2CD) looks at Flap (ID: 17343188/0x0108A2D4)
384: 0x0C91 [0x1C] WAIT(120* ticks)
385: 0x0C94 [0x1A] CALL_SUBROUTINE(address=0x3E00)
386: 0x0C97 [0x73] Nicolaus (ID: 17343180/0x0108A2CC) casts magic 17* on Flap (ID: 17343188/0x0108A2D4)
387: 0x0CA2 [0x2B] Nicolaus (ID: 17343180/0x0108A2CC) [7795*]:
    → "Very well, then. Let us see what the shifty little devil knows."
388: 0x0CA9 [0x23] WAIT_FOR_DIALOG_INTERACTION
389: 0x0CAA [0x52] END_LOAD_SCHEDULER: End scheduler "020s" with entities [LocalPlayer, LocalPlayer], work=510*
390: 0x0CB9 [0x45] LOAD_SCHEDULED_TASK: Load scheduler "020t" with entities [LocalPlayer, LocalPlayer], work=[510*, 0*]
391: 0x0CCA [0x1C] WAIT(90* ticks)
392: 0x0CCD [0x2B] Flap (ID: 17343188/0x0108A2D4) [7796*]:
    → "Thanks, buddy! Not to be all greedy or nuttin', but mebbe ya could unbind me too while yer at it?"
393: 0x0CD4 [0x1C] WAIT(150* ticks)
394: 0x0CD7 [0x23] WAIT_FOR_DIALOG_INTERACTION
395: 0x0CD8 [0x52] END_LOAD_SCHEDULER: End scheduler "020t" with entities [LocalPlayer, LocalPlayer], work=510*
396: 0x0CE7 [0x45] LOAD_SCHEDULED_TASK: Load scheduler "020u" with entities [LocalPlayer, LocalPlayer], work=[510*, 0*]
397: 0x0CF8 [0x2B] Nicolaus (ID: 17343180/0x0108A2CC) [7797*]:
    → "Why, it would be my pleasure, my vertically challenged friend... Right after you tell us what we need to know, that is."
398: 0x0CFF [0x23] WAIT_FOR_DIALOG_INTERACTION
399: 0x0D00 [0x52] END_LOAD_SCHEDULER: End scheduler "020u" with entities [LocalPlayer, LocalPlayer], work=510*
400: 0x0D0F [0x45] LOAD_SCHEDULED_TASK: Load scheduler "020v" with entities [LocalPlayer, LocalPlayer], work=[510*, 0*]
401: 0x0D20 [0x2B] Flap (ID: 17343188/0x0108A2D4) [7798*]:
    → "Oh, so we gots ourselves a wise guy, eh? Well, I ain't seen no red-headed Hume broad. So if you ain't gonna unbind me, why don't you just make like a treant and leave?"
402: 0x0D27 [0x23] WAIT_FOR_DIALOG_INTERACTION
403: 0x0D28 [0x2B] Volker (ID: 17343178/0x0108A2CA) [7799*]:
    → "<Ahem> I'll warn you but once: concealing information from us may prove hazardous to your health."
404: 0x0D2F [0x23] WAIT_FOR_DIALOG_INTERACTION
405: 0x0D30 [0x52] END_LOAD_SCHEDULER: End scheduler "020v" with entities [LocalPlayer, LocalPlayer], work=510*
406: 0x0D3F [0x45] LOAD_SCHEDULED_TASK: Load scheduler "020w" with entities [LocalPlayer, LocalPlayer], work=[510*, 0*]
407: 0x0D50 [0x5B] LOAD_EXT_SCHEDULER: Load scheduler "kus0" with entities [Flap (ID: 17343188/0x0108A2D4), Flap (ID: 17343188/0x0108A2D4)], work=1028*
408: 0x0D5F [0x2B] Flap (ID: 17343188/0x0108A2D4) [7800*]:
    → "Wh-whoa there, Mister Bandana Man! Flap can't talk about what Flap ain't seen, y'know?"
409: 0x0D66 [0x23] WAIT_FOR_DIALOG_INTERACTION
410: 0x0D67 [0x53] WAIT_SCHEDULER_TASK: Wait for scheduler "kus0" with entities [Flap (ID: 17343188/0x0108A2D4), Flap (ID: 17343188/0x0108A2D4)]
411: 0x0D74 [0x52] END_LOAD_SCHEDULER: End scheduler "020w" with entities [LocalPlayer, LocalPlayer], work=510*
412: 0x0D83 [0x45] LOAD_SCHEDULED_TASK: Load scheduler "020x" with entities [LocalPlayer, LocalPlayer], work=[510*, 0*]
413: 0x0D94 [0x2B] Nicolaus (ID: 17343180/0x0108A2CC) [7801*]:
    → "You disappoint me, friend. And here I thought you were a more...cooperative sort."
414: 0x0D9B [0x1C] WAIT(90* ticks)
415: 0x0D9E [0x79] Nicolaus (ID: 17343180/0x0108A2CC) looks at Volker (ID: 17343178/0x0108A2CA) (Basic look)
416: 0x0DA8 [0x1C] WAIT(90* ticks)
417: 0x0DAB [0x23] WAIT_FOR_DIALOG_INTERACTION
418: 0x0DAC [0x52] END_LOAD_SCHEDULER: End scheduler "020x" with entities [LocalPlayer, LocalPlayer], work=510*
419: 0x0DBB [0x45] LOAD_SCHEDULED_TASK: Load scheduler "020y" with entities [LocalPlayer, LocalPlayer], work=[510*, 0*]
420: 0x0DCC [0x66] LOAD_EXT_SCHEDULER_MAIN: Load scheduler "gat0" with entities [Five Moons (ID: 17343181/0x0108A2CD), Five Moons (ID: 17343181/0x0108A2CD)], work=136*
421: 0x0DDB [0x79] Nicolaus (ID: 17343180/0x0108A2CC) looks at Flap (ID: 17343188/0x0108A2D4) (Basic look)
422: 0x0DE5 [0x2B] Five Moons (ID: 17343181/0x0108A2CD) [7802*]:
    → "Let's not write him off so quickly, Nicolaus. I'm sure he just needs the proper...encouragement."
423: 0x0DEC [0x23] WAIT_FOR_DIALOG_INTERACTION
424: 0x0DED [0x53] WAIT_SCHEDULER_TASK: Wait for scheduler "gat0" with entities [Five Moons (ID: 17343181/0x0108A2CD), Five Moons (ID: 17343181/0x0108A2CD)]
425: 0x0DFA [0x52] END_LOAD_SCHEDULER: End scheduler "020y" with entities [LocalPlayer, LocalPlayer], work=510*
426: 0x0E09 [0x45] LOAD_SCHEDULED_TASK: Load scheduler "020z" with entities [LocalPlayer, LocalPlayer], work=[510*, 0*]
427: 0x0E1A [0x2B] Flap (ID: 17343188/0x0108A2D4) [7803*]:
    → "Yeee-ikes! And I thought you were supposed to be the good guys! Alright, already...I'll talk. Or rather, my buddies will."
428: 0x0E21 [0x5B] LOAD_EXT_SCHEDULER: Load scheduler "gyo0" with entities [Flap (ID: 17343188/0x0108A2D4), Flap (ID: 17343188/0x0108A2D4)], work=1030*
429: 0x0E30 [0x1C] WAIT(120* ticks)
430: 0x0E33 [0x23] WAIT_FOR_DIALOG_INTERACTION
431: 0x0E34 [0x52] END_LOAD_SCHEDULER: End scheduler "020z" with entities [LocalPlayer, LocalPlayer], work=510*
432: 0x0E43 [0x45] LOAD_SCHEDULED_TASK: Load scheduler "blof" with entities [LocalPlayer, LocalPlayer], work=[510*, 0*]
433: 0x0E54 [0x45] LOAD_SCHEDULED_TASK: Load scheduler "0210" with entities [LocalPlayer, LocalPlayer], work=[510*, 0*]
434: 0x0E65 [0x2B] Volker (ID: 17343178/0x0108A2CA) [7804*]:
    → "What's this? There are others of your ilk here?"
435: 0x0E6C [0x23] WAIT_FOR_DIALOG_INTERACTION
436: 0x0E6D [0x52] END_LOAD_SCHEDULER: End scheduler "0210" with entities [LocalPlayer, LocalPlayer], work=510*
437: 0x0E7C [0x45] LOAD_SCHEDULED_TASK: Load scheduler "0211" with entities [LocalPlayer, LocalPlayer], work=[510*, 0*]
438: 0x0E8D [0x2B] Flap (ID: 17343188/0x0108A2D4) [7805*]:
    → "Yeah, that's right. Maybe ya've seen 'em around? Like me, only a bit more pallid and sickly-like. The boss don't let 'em outside much, ya see..."
439: 0x0E94 [0x23] WAIT_FOR_DIALOG_INTERACTION
440: 0x0E95 [0x52] END_LOAD_SCHEDULER: End scheduler "0211" with entities [LocalPlayer, LocalPlayer], work=510*
441: 0x0EA4 [0x45] LOAD_SCHEDULED_TASK: Load scheduler "0212" with entities [LocalPlayer, LocalPlayer], work=[510*, 0*]
442: 0x0EB5 [0x66] LOAD_EXT_SCHEDULER_MAIN: Load scheduler "gat1" with entities [Five Moons (ID: 17343181/0x0108A2CD), Five Moons (ID: 17343181/0x0108A2CD)], work=136*
443: 0x0EC4 [0x1C] WAIT(315* ticks)
444: 0x0EC7 [0x52] END_LOAD_SCHEDULER: End scheduler "0212" with entities [LocalPlayer, LocalPlayer], work=510*
445: 0x0ED6 [0x45] LOAD_SCHEDULED_TASK: Load scheduler "0213" with entities [LocalPlayer, LocalPlayer], work=[510*, 0*]
446: 0x0EE7 [0x5B] LOAD_EXT_SCHEDULER: Load scheduler "gyo0" with entities [Flap (ID: 17343188/0x0108A2D4), Flap (ID: 17343188/0x0108A2D4)], work=1030*
447: 0x0EF6 [0x2B] Flap (ID: 17343188/0x0108A2D4) [7806*]:
    → "Eeep! I-I swear, I ain't got nothin' more for ya!"
448: 0x0EFD [0x6B] STOP_AND_IDLE: Five Moons (ID: 17343181/0x0108A2CD) stops current action and resets to idle (animation="idl0")
449: 0x0F06 [0x1C] WAIT(120* ticks)
450: 0x0F09 [0x52] END_LOAD_SCHEDULER: End scheduler "0213" with entities [LocalPlayer, LocalPlayer], work=510*
451: 0x0F18 [0x45] LOAD_SCHEDULED_TASK: Load scheduler "blof" with entities [LocalPlayer, LocalPlayer], work=[510*, 0*]
452: 0x0F29 [0x45] LOAD_SCHEDULED_TASK: Load scheduler "0214" with entities [LocalPlayer, LocalPlayer], work=[510*, 0*]
453: 0x0F3A [0x2B] Nicolaus (ID: 17343180/0x0108A2CC) [7807*]:
    → "I suspect he's telling the truth...for once. It seems we've no recourse but to seek out his cronies."
454: 0x0F41 [0x23] WAIT_FOR_DIALOG_INTERACTION
455: 0x0F42 [0x52] END_LOAD_SCHEDULER: End scheduler "0214" with entities [LocalPlayer, LocalPlayer], work=510*
456: 0x0F51 [0x45] LOAD_SCHEDULED_TASK: Load scheduler "0215" with entities [LocalPlayer, LocalPlayer], work=[510*, 0*]
457: 0x0F62 [0x4A] Volker (ID: 17343178/0x0108A2CA) looks at Five Moons (ID: 17343181/0x0108A2CD)
458: 0x0F6B [0x7B] Volker (ID: 17343178/0x0108A2CA) stops talking
459: 0x0F70 [0x4A] LocalPlayer looks at Volker (ID: 17343178/0x0108A2CA)
460: 0x0F79 [0x4A] Nicolaus (ID: 17343180/0x0108A2CC) looks at Volker (ID: 17343178/0x0108A2CA)
461: 0x0F82 [0x4A] Zeid (ID: 17343179/0x0108A2CB) looks at Volker (ID: 17343178/0x0108A2CA)
462: 0x0F8B [0x4A] Five Moons (ID: 17343181/0x0108A2CD) looks at Volker (ID: 17343178/0x0108A2CA)
463: 0x0F94 [0x2B] Volker (ID: 17343178/0x0108A2CA) [7808*]:
    → "Very well. Let's split up and see what we can uncover."
464: 0x0F9B [0x1C] WAIT(90* ticks)
465: 0x0F9E [0x23] WAIT_FOR_DIALOG_INTERACTION
466: 0x0F9F [0x2B] Volker (ID: 17343178/0x0108A2CA) [7809*]:
    → "The castle keep is fraught with dangers. Should you find the opposition to be more than you can handle, return to the baileys and regroup."
467: 0x0FA6 [0x23] WAIT_FOR_DIALOG_INTERACTION
468: 0x0FA7 [0x52] END_LOAD_SCHEDULER: End scheduler "0215" with entities [LocalPlayer, LocalPlayer], work=510*
469: 0x0FB6 [0x45] LOAD_SCHEDULED_TASK: Load scheduler "0216" with entities [LocalPlayer, LocalPlayer], work=[510*, 0*]
470: 0x0FC7 [0x27] REQ_SET(priority=0x10, entity_id=LocalPlayer, tag_num=0x29)
471: 0x0FCE [0x27] REQ_SET(priority=0x10, entity_id=Volker (ID: 17343178/0x0108A2CA), tag_num=0x0B)
472: 0x0FD5 [0x27] REQ_SET(priority=0x10, entity_id=Zeid (ID: 17343179/0x0108A2CB), tag_num=0x0B)
473: 0x0FDC [0x27] REQ_SET(priority=0x10, entity_id=Nicolaus (ID: 17343180/0x0108A2CC), tag_num=0x07)
474: 0x0FE3 [0x27] REQ_SET(priority=0x10, entity_id=Five Moons (ID: 17343181/0x0108A2CD), tag_num=0x07)
475: 0x0FEA [0x2B] Flap (ID: 17343188/0x0108A2D4) [7810*]:
    → "Now wait one lousy second here, Mister I-eat-bookworms-for-breakfast! I thought we had a deal!"
476: 0x0FF1 [0x2A] GET_REQ_LEVEL(level=16, entity_id=Nicolaus (ID: 17343180/0x0108A2CC))
477: 0x0FF7 [0x1C] WAIT(60* ticks)
478: 0x0FFA [0x23] WAIT_FOR_DIALOG_INTERACTION
479: 0x0FFB [0x2B] Nicolaus (ID: 17343180/0x0108A2CC) [7811*]:
    → "Ah, right you are. Here, I've just the spell for you."
480: 0x1002 [0x23] WAIT_FOR_DIALOG_INTERACTION
481: 0x1003 [0x73] Nicolaus (ID: 17343180/0x0108A2CC) casts magic 138* on Flap (ID: 17343188/0x0108A2D4)
482: 0x100E [0x1C] WAIT(120* ticks)
483: 0x1011 [0x52] END_LOAD_SCHEDULER: End scheduler "0216" with entities [LocalPlayer, LocalPlayer], work=510*
484: 0x1020 [0x45] LOAD_SCHEDULED_TASK: Load scheduler "0217" with entities [LocalPlayer, LocalPlayer], work=[510*, 0*]
485: 0x1031 [0x1C] WAIT(120* ticks)
486: 0x1034 [0x27] REQ_SET(priority=0x10, entity_id=Nicolaus (ID: 17343180/0x0108A2CC), tag_num=0x08)
487: 0x103B [0x1C] WAIT(60* ticks)
488: 0x103E [0x27] REQ_SET(priority=0x10, entity_id=Flap (ID: 17343188/0x0108A2D4), tag_num=0x0A)
489: 0x1045 [0x2B] Flap (ID: 17343188/0x0108A2D4) [7812*]:
    → "Now ya done did it, Flap. Sold out yer buddies without even a single lousy beastcoin t' show fer it."
490: 0x104C [0x23] WAIT_FOR_DIALOG_INTERACTION
491: 0x104D [0x2B] Flap (ID: 17343188/0x0108A2D4) [7813*]:
    → "Good thing those three have a coupl'a tricks up their sleeves. They'll be sure t' tell those meddlers everythin'... Everythin' but the truth, that is."
492: 0x1054 [0x2A] GET_REQ_LEVEL(level=16, entity_id=Flap (ID: 17343188/0x0108A2D4))
493: 0x105A [0x1C] WAIT(60* ticks)
494: 0x105D [0x23] WAIT_FOR_DIALOG_INTERACTION
495: 0x105E [0x5B] LOAD_EXT_SCHEDULER: Load scheduler "kus0" with entities [Flap (ID: 17343188/0x0108A2D4), Flap (ID: 17343188/0x0108A2D4)], work=1028*
496: 0x106D [0x1C] WAIT(150* ticks)
497: 0x1070 [0x52] END_LOAD_SCHEDULER: End scheduler "0217" with entities [LocalPlayer, LocalPlayer], work=510*
498: 0x107F [0x45] LOAD_SCHEDULED_TASK: Load scheduler "0218" with entities [LocalPlayer, LocalPlayer], work=[510*, 0*]
499: 0x1090 [0x7A] VM_CONTROL: Reset VM for LocalPlayer
500: 0x1096 [0x7A] VM_CONTROL: Reset VM for Volker (ID: 17343178/0x0108A2CA)
501: 0x109C [0x7A] VM_CONTROL: Reset VM for Zeid (ID: 17343179/0x0108A2CB)
502: 0x10A2 [0x7A] VM_CONTROL: Reset VM for Nicolaus (ID: 17343180/0x0108A2CC)
503: 0x10A8 [0x7A] VM_CONTROL: Reset VM for Five Moons (ID: 17343181/0x0108A2CD)
504: 0x10AE [0xBA] SET_ENTITY_POSITION(entity_id=LocalPlayer, pos_x=0.000*, pos_z=0.000*, pos_y=0.000*, direction=0.0°*)
505: 0x10BB [0xBA] SET_ENTITY_POSITION(entity_id=Volker (ID: 17343178/0x0108A2CA), pos_x=0.000*, pos_z=0.000*, pos_y=0.000*, direction=0.0°*)
506: 0x10C8 [0xBA] SET_ENTITY_POSITION(entity_id=Zeid (ID: 17343179/0x0108A2CB), pos_x=0.000*, pos_z=0.000*, pos_y=0.000*, direction=0.0°*)
507: 0x10D5 [0xBA] SET_ENTITY_POSITION(entity_id=Nicolaus (ID: 17343180/0x0108A2CC), pos_x=0.000*, pos_z=0.000*, pos_y=0.000*, direction=0.0°*)
508: 0x10E2 [0xBA] SET_ENTITY_POSITION(entity_id=Five Moons (ID: 17343181/0x0108A2CD), pos_x=0.000*, pos_z=0.000*, pos_y=0.000*, direction=0.0°*)
509: 0x10EF [0xBA] SET_ENTITY_POSITION(entity_id=Leki Shameene (ID: 17343182/0x0108A2CE), pos_x=0.000*, pos_z=0.000*, pos_y=0.000*, direction=0.0°*)
510: 0x10FC [0xBA] SET_ENTITY_POSITION(entity_id=Unnamed NPC (ID: 17343183/0x0108A2CF), pos_x=0.000*, pos_z=0.000*, pos_y=0.000*, direction=0.0°*)
511: 0x1109 [0xBA] SET_ENTITY_POSITION(entity_id=Premas-Lamas (ID: 17343184/0x0108A2D0), pos_x=0.000*, pos_z=0.000*, pos_y=0.000*, direction=0.0°*)
512: 0x1116 [0xBA] SET_ENTITY_POSITION(entity_id=Allenberge (ID: 17343185/0x0108A2D1), pos_x=0.000*, pos_z=0.000*, pos_y=0.000*, direction=0.0°*)
513: 0x1123 [0xBA] SET_ENTITY_POSITION(entity_id=Hippolite (ID: 17343186/0x0108A2D2), pos_x=0.000*, pos_z=0.000*, pos_y=0.000*, direction=0.0°*)
514: 0x1130 [0xBA] SET_ENTITY_POSITION(entity_id=Unnamed NPC (ID: 17343187/0x0108A2D3), pos_x=0.000*, pos_z=0.000*, pos_y=0.000*, direction=0.0°*)
515: 0x113D [0x29] REQ_SET_WAIT(priority=0x10, entity_id=Flap (ID: 17343188/0x0108A2D4), tag_num=0x0B)
516: 0x1144 [0x2B] Flap (ID: 17343188/0x0108A2D4) [7814*]:
    → "Now to go give the boss the dope on our intruders. Maybe he'll even give me a...<yawn>...raise..."
517: 0x114B [0x1C] WAIT(90* ticks)
518: 0x114E [0x23] WAIT_FOR_DIALOG_INTERACTION
519: 0x114F [0x52] END_LOAD_SCHEDULER: End scheduler "0218" with entities [LocalPlayer, LocalPlayer], work=510*
520: 0x115E [0x45] LOAD_SCHEDULED_TASK: Load scheduler "021a" with entities [LocalPlayer, LocalPlayer], work=[510*, 0*]
521: 0x116F [0x5B] LOAD_EXT_SCHEDULER: Load scheduler "gyo0" with entities [Flap (ID: 17343188/0x0108A2D4), Flap (ID: 17343188/0x0108A2D4)], work=1030*
522: 0x117E [0x2B] Flap (ID: 17343188/0x0108A2D4) [7815*]:
    → "That's strange. I already...<yawn>...got my...beauty rest for the day... Wait...he didn't...wh-why I oughta...!"
523: 0x1185 [0x1C] WAIT(120* ticks)
524: 0x1188 [0x23] WAIT_FOR_DIALOG_INTERACTION
525: 0x1189 [0x2C] CREATE_SCHEDULER_TASK: Create scheduler "dead" with entities [Flap (ID: 17343188/0x0108A2D4), Flap (ID: 17343188/0x0108A2D4)]
526: 0x1196 [0x1C] WAIT(60* ticks)
527: 0x1199 [0x52] END_LOAD_SCHEDULER: End scheduler "021a" with entities [LocalPlayer, LocalPlayer], work=510*
528: 0x11A8 [0x45] LOAD_SCHEDULED_TASK: Load scheduler "0219" with entities [LocalPlayer, LocalPlayer], work=[510*, 0*]
529: 0x11B9 [0x53] WAIT_SCHEDULER_TASK: Wait for scheduler "dead" with entities [Flap (ID: 17343188/0x0108A2D4), Flap (ID: 17343188/0x0108A2D4)]
530: 0x11C6 [0x1C] WAIT(60* ticks)
531: 0x11C9 [0x9F] LOAD_SCHEDULED_TASK_ALT: Load scheduler "str0" with entities [Flap (ID: 17343188/0x0108A2D4), Flap (ID: 17343188/0x0108A2D4)], work=[235*, 0*]
532: 0x11DA [0x1C] WAIT(120* ticks)
533: 0x11DD [0x1A] CALL_SUBROUTINE(address=0x3E21)
534: 0x11E0 [0x9F] LOAD_SCHEDULED_TASK_ALT: Load scheduler "stop" with entities [Flap (ID: 17343188/0x0108A2D4), Flap (ID: 17343188/0x0108A2D4)], work=[235*, 0*]
535: 0x11F1 [0x46] CAMERA_CONTROL: Restore default settings
536: 0x11F3 [0x1C] WAIT(60* ticks)
537: 0x11F6 [0x45] LOAD_SCHEDULED_TASK: Load scheduler "fdi1" with entities [LocalPlayer, LocalPlayer], work=[200*, 0*]
538: 0x1207 [0x21] END_EVENT
539: 0x1208 [0x00] END_REQSTACK()
```

### Event 13

#### Metadata

| Field        | Value       |
|--------------|-------------|
| Entrypoint   | 0x1209      |
| Data Size    | 11846 bytes |
| Instructions | 1140        |

```
      00 01 02 03 04 05 06 07  08 09 0A 0B 0C 0D 0E 0F
      -- -- -- -- -- -- -- --  -- -- -- -- -- -- -- --
1200:                             42 5D 28 80 35 80 45           B](.5.E
1210: 5F 80 F8 FF FF 7F F8 FF  FF 7F 66 64 6F 31 28 80  _.........fdo1(.
1220: 55 5F 80 F8 FF FF 7F F8  FF FF 7F 66 64 6F 31 46  U_.........fdo1F
1230: 01 38 00 80 4E 00 F0 FF  FF 7F 2F 00 CA A2 08 01  .8..N...../.....
1240: 2F 00 CB A2 08 01 4E 00  CA A2 08 01 4E 00 CB A2  /.....N.....N...
1250: 08 01 22 00 94 01 CA A2  08 01 94 01 CB A2 08 01  ..".............
1260: 94 01 F0 FF FF 7F BA CA  A2 08 01 A2 80 A3 80 A4  ................
1270: 80 A5 80 BA CB A2 08 01  A6 80 A7 80 A8 80 A9 80  ................
1280: BA F0 FF FF 7F AA 80 AB  80 A8 80 AC 80 37 AD 80  .............7..
1290: AE 80 A8 80 AF 80 80 CA  A2 08 01 80 CB A2 08 01  ................
12A0: 80 F0 FF FF 7F 80 F8 FF  FF 7F 4A CA A2 08 01 CB  ..........J.....
12B0: A2 08 01 5B B0 80 CB A2  08 01 CB A2 08 01 75 64  ...[..........ud
12C0: 65 30 27 05 9D A2 08 01  02 45 B1 80 F8 FF FF 7F  e0'......E......
12D0: F8 FF FF 7F 73 30 33 30  28 80 1C B2 80 45 5F 80  ....s030(....E_.
12E0: F8 FF FF 7F F8 FF FF 7F  66 64 69 31 28 80 27 05  ........fdi1(.'.
12F0: F0 FF FF 7F 14 1C 35 80  52 B1 80 F8 FF FF 7F F8  ......5.R.......
1300: FF FF 7F 73 30 33 30 45  B1 80 F8 FF FF 7F F8 FF  ...s030E........
1310: FF 7F 73 30 33 31 28 80  4A CA A2 08 01 F0 FF FF  ..s031(.J.......
1320: 7F 79 00 CB A2 08 01 F0  FF FF 7F 1C 39 80 27 05  .y..........9.'.
1330: 9D A2 08 01 03 2B CA A2  08 01 B3 80 23 2A 05 F0  .....+......#*..
1340: FF FF 7F 5B 5F 80 CA A2  08 01 CA A2 08 01 74 73  ...[_.........ts
1350: 61 30 52 B1 80 F8 FF FF  7F F8 FF FF 7F 73 30 33  a0R..........s03
1360: 31 45 B1 80 F8 FF FF 7F  F8 FF FF 7F 73 30 33 32  1E..........s032
1370: 28 80 2B CA A2 08 01 B4  80 23 45 5F 80 F8 FF FF  (.+......#E_....
1380: 7F F8 FF FF 7F 66 64 6F  31 28 80 55 5F 80 F8 FF  .....fdo1(.U_...
1390: FF 7F F8 FF FF 7F 66 64  6F 31 52 B1 80 F8 FF FF  ......fdo1R.....
13A0: 7F F8 FF FF 7F 73 30 33  32 7B CA A2 08 01 6B 69  .....s032{....ki
13B0: 64 6C 30 CA A2 08 01 6B  69 64 6C 30 CB A2 08 01  dl0....kidl0....
13C0: 34 B5 80 77 B6 80 28 80  1C B7 80 2F 00 D9 A2 08  4..w..(..../....
13D0: 01 2F 00 D1 A2 08 01 2F  00 D2 A2 08 01 2F 00 CF  ./...../...../..
13E0: A2 08 01 2F 00 CE A2 08  01 2F 00 D0 A2 08 01 2F  .../...../...../
13F0: 00 D3 A2 08 01 2F 00 DA  A2 08 01 2F 00 D4 A2 08  ...../...../....
1400: 01 2F 00 D5 A2 08 01 4E  00 D9 A2 08 01 4E 00 D1  ./.....N.....N..
1410: A2 08 01 4E 00 D2 A2 08  01 4E 00 CF A2 08 01 4E  ...N.....N.....N
1420: 00 CE A2 08 01 4E 00 D0  A2 08 01 4E 00 D3 A2 08  .....N.....N....
1430: 01 4E 00 DA A2 08 01 4E  00 D4 A2 08 01 4E 00 D5  .N.....N.....N..
1440: A2 08 01 4E 01 F0 FF FF  7F 27 05 D9 A2 08 01 02  ...N.....'......
1450: 27 05 CB A2 08 01 03 BA  D9 A2 08 01 B8 80 B9 80  '...............
1460: BA 80 BB 80 BA D1 A2 08  01 BC 80 BD 80 BE 80 6D  ...............m
1470: 80 BA D2 A2 08 01 BF 80  C0 80 3D 80 C1 80 BA D3  ..........=.....
1480: A2 08 01 C2 80 C3 80 C4  80 6D 80 BA CE A2 08 01  .........m......
1490: C5 80 C6 80 C7 80 C8 80  BA D0 A2 08 01 C9 80 CA  ................
14A0: 80 BA 80 CB 80 BA CF A2  08 01 CC 80 CD 80 CE 80  ................
14B0: CF 80 BA CB A2 08 01 D0  80 D1 80 D2 80 D3 80 BA  ................
14C0: CA A2 08 01 D4 80 D5 80  D2 80 D6 80 BA D4 A2 08  ................
14D0: 01 D7 80 D8 80 D9 80 DA  80 BA D5 A2 08 01 DB 80  ................
14E0: DC 80 DD 80 DE 80 BA F0  FF FF 7F DF 80 E0 80 E1  ................
14F0: 80 E2 80 80 D9 A2 08 01  80 D9 A2 08 01 80 D1 A2  ................
