# 0x7FFFFFF0 - Zone Events

## Common Data

| Field            | Value                              |
|------------------|------------------------------------|
| Zone             | Castle Zvahl Baileys [S] (ID: 138) |
| Block Size       | 2136 bytes                         |
| Total Events     | 45                                 |
| References Count | 104                                |

## List of Events

| Event ID                   | Entrypoint   |   Size |   Instructions |
|----------------------------|--------------|--------|----------------|
| [65535](#event-65535)      | 0x0000       |      1 |              1 |
| [65534](#event-65534)      | 0x0001       |      1 |              1 |
| [7](#event-7)              | 0x0002       |     59 |             11 |
| [8](#event-8)              | 0x003D       |     59 |             11 |
| [9](#event-9)              | 0x0078       |     59 |             11 |
| [10](#event-10)            | 0x00B3       |     59 |             11 |
| [65535.1](#event-655351)   | 0x00EE       |     37 |              5 |
| [65535.2](#event-655352)   | 0x0113       |    185 |             37 |
| [65535.3](#event-655353)   | 0x01CC       |      6 |              2 |
| [65535.4](#event-655354)   | 0x01D2       |      6 |              2 |
| [65535.5](#event-655355)   | 0x01D8       |      7 |              3 |
| [65535.6](#event-655356)   | 0x01DF       |      7 |              3 |
| [65535.7](#event-655357)   | 0x01E6       |     24 |              4 |
| [65535.8](#event-655358)   | 0x01FE       |     24 |              4 |
| [65535.9](#event-655359)   | 0x0216       |     38 |              5 |
| [65535.10](#event-6553510) | 0x023C       |     38 |              5 |
| [65535.11](#event-6553511) | 0x0262       |     38 |              5 |
| [65535.12](#event-6553512) | 0x0288       |     37 |              5 |
| [65535.13](#event-6553513) | 0x02AD       |     37 |              5 |
| [65535.14](#event-6553514) | 0x02D2       |     42 |              6 |
| [65535.15](#event-6553515) | 0x02FC       |     22 |              6 |
| [65535.16](#event-6553516) | 0x0312       |     14 |              4 |
| [65535.17](#event-6553517) | 0x0320       |     27 |              5 |
| [65535.18](#event-6553518) | 0x033B       |     16 |              3 |
| [65535.19](#event-6553519) | 0x034B       |     16 |              3 |
| [65535.20](#event-6553520) | 0x035B       |     38 |              5 |
| [65535.21](#event-6553521) | 0x0381       |     38 |              5 |
| [65535.22](#event-6553522) | 0x03A7       |     38 |              5 |
| [65535.23](#event-6553523) | 0x03CD       |      6 |              2 |
| [65535.24](#event-6553524) | 0x03D3       |     14 |              4 |
| [65535.25](#event-6553525) | 0x03E1       |     54 |             12 |
| [65535.26](#event-6553526) | 0x0417       |    152 |             14 |
| [65535.27](#event-6553527) | 0x04AF       |     14 |              4 |
| [65535.28](#event-6553528) | 0x04BD       |     14 |              4 |
| [65535.29](#event-6553529) | 0x04CB       |     14 |              4 |
| [65535.30](#event-6553530) | 0x04D9       |     13 |              3 |
| [65535.31](#event-6553531) | 0x04E6       |     24 |              5 |
| [65535.32](#event-6553532) | 0x04FE       |     19 |              5 |
| [65535.33](#event-6553533) | 0x0511       |     16 |              4 |
| [65535.34](#event-6553534) | 0x0521       |     14 |              4 |
| [65535.35](#event-6553535) | 0x052F       |     14 |              4 |
| [65535.36](#event-6553536) | 0x053D       |     42 |             10 |
| [65535.37](#event-6553537) | 0x0567       |     19 |              5 |
| [65535.38](#event-6553538) | 0x057A       |     14 |              4 |
| [5](#event-5)              | 0x0588       |    107 |             16 |

## DAT References (imed_data)

|   Index | Hex Value   |   Dec Value |
|---------|-------------|-------------|
|       0 | 0x0001      |           1 |
|       1 | 0x0000      |           0 |
|       2 | 0x00B4      |         180 |
|       3 | 0x13AA7     |       80551 |
|       4 | 0x26F9D     |      159645 |
|       5 | 0xFFFFE0C0  |  4294959296 |
|       6 | 0x0B1B      |        2843 |
|       7 | 0x0002      |           2 |
|       8 | 0x13D30     |       81200 |
|       9 | 0xFFFE2FB3  |  4294848435 |
|      10 | 0xFFFFD305  |  4294955781 |
|      11 | 0x0C6B      |        3179 |
|      12 | 0xFFFCF30E  |  4294767374 |
|      13 | 0xFFFE2C2B  |  4294847531 |
|      14 | 0x0C0A      |        3082 |
|      15 | 0xFFFCF7B1  |  4294768561 |
|      16 | 0x274F0     |      161008 |
|      17 | 0x0BB2      |        2994 |
|      18 | 0x0005      |           5 |
|      19 | 0x000A      |          10 |
|      20 | 0x0009      |           9 |
|      21 | 0x0046      |          70 |
|      22 | 0x008C      |         140 |
|      23 | 0x00D2      |         210 |
|      24 | 0x0008      |           8 |
|      25 | 0x0007      |           7 |
|      26 | 0x0091      |         145 |
|      27 | 0x004F      |          79 |
|      28 | 0x004C      |          76 |
|      29 | 0x00C9      |         201 |
|      30 | 0x0018      |          24 |
|      31 | 0x0020      |          32 |
|      32 | 0x0030      |          48 |
|      33 | 0x0040      |          64 |
|      34 | 0x003C      |          60 |
|      35 | 0x0028      |          40 |
|      36 | 0xFFFEA50C  |  4294878476 |
|      37 | 0x50F6      |       20726 |
|      38 | 0xFFFFA1D4  |  4294943188 |
|      39 | 0x001E      |          30 |
|      40 | 0xFFFE89BE  |  4294871486 |
|      41 | 0x4DD3      |       19923 |
|      42 | 0xFFFFA238  |  4294943288 |
|      43 | 0x012C      |         300 |
|      44 | 0x0080      |         128 |
|      45 | 0x0106      |         262 |
|      46 | 0x0004      |           4 |
|      47 | 0x0050      |          80 |
|      48 | 0x0060      |          96 |
|      49 | 0x0078      |         120 |
|      50 | 0x000D      |          13 |
|      51 | 0x42803     |      272387 |
|      52 | 0xED1B      |       60699 |
|      53 | 0xFFFFB1C7  |  4294947271 |
|      54 | 0x361A4     |      221604 |
|      55 | 0x59B3      |       22963 |
|      56 | 0xFFFFA236  |  4294943286 |
|      57 | 0x35C04     |      220164 |
|      58 | 0x5336      |       21302 |
|      59 | 0xFFFFA240  |  4294943296 |
|      60 | 0x354F9     |      218361 |
|      61 | 0x4E09      |       19977 |
|      62 | 0x34BA9     |      215977 |
|      63 | 0x4B48      |       19272 |
|      64 | 0x2ECDE     |      191710 |
|      65 | 0x49F2      |       18930 |
|      66 | 0xFFFFA23A  |  4294943290 |
|      67 | 0x01FB      |         507 |
|      68 | 0x014A      |         330 |
|      69 | 0x010E      |         270 |
|      70 | 0x0186      |         390 |
|      71 | 0x22023     |      139299 |
|      72 | 0x11928     |       71976 |
|      73 | 0xFFFFA145  |  4294943045 |
|      74 | 0x0015      |          21 |
|      75 | 0x58C4E     |      363598 |
|      76 | 0xFFFFB34A  |  4294947658 |
|      77 | 0xFFFFD121  |  4294955297 |
|      78 | 0x506E8     |      329448 |
|      79 | 0xFFFFB518  |  4294948120 |
|      80 | 0xFFFFC173  |  4294951283 |
|      81 | 0x002D      |          45 |
|      82 | 0x4A540     |      304448 |
|      83 | 0x4ACCD     |      306381 |
|      84 | 0xFFFFB33C  |  4294947644 |
|      85 | 0xFFFFC163  |  4294951267 |
|      86 | 0x49DEB     |      302571 |
|      87 | 0xFFFFBE38  |  4294950456 |
|      88 | 0xFFFFC16C  |  4294951276 |
|      89 | 0x49762     |      300898 |
|      90 | 0xFFFFD838  |  4294957112 |
|      91 | 0xFFFFC17D  |  4294951293 |
|      92 | 0x492B3     |      299699 |
|      93 | 0x1009      |        4105 |
|      94 | 0xFFFFC17E  |  4294951294 |
|      95 | 0x5B884     |      374916 |
|      96 | 0xFFFFB9D6  |  4294949334 |
|      97 | 0xFFFFD0E9  |  4294955241 |
|      98 | 0x57DF8     |      359928 |
|      99 | 0xFFFFB92C  |  4294949164 |
|     100 | 0xFFFFD120  |  4294955296 |
|     101 | 0x1EE9      |        7913 |
|     102 | 0x00C8      |         200 |
|     103 | 0x005A      |          90 |

## String References

- **7913**: The order has been given by your party leader to enter [Everbloom Hollow/the Ruhotz Silvermines/Ghoyu's Reverie].

## Events

### Event 65535

#### Metadata

| Field        | Value   |
|--------------|---------|
| Entrypoint   | 0x0000  |
| Data Size    | 1 bytes |
| Instructions | 1       |

```
      00 01 02 03 04 05 06 07  08 09 0A 0B 0C 0D 0E 0F
      -- -- -- -- -- -- -- --  -- -- -- -- -- -- -- --
0000: 00                                                .               
```

#### Opcodes

```
  0: 0x0000 [0x00] END_REQSTACK()
```

### Event 65534

#### Metadata

| Field        | Value   |
|--------------|---------|
| Entrypoint   | 0x0001  |
| Data Size    | 1 bytes |
| Instructions | 1       |

```
      00 01 02 03 04 05 06 07  08 09 0A 0B 0C 0D 0E 0F
      -- -- -- -- -- -- -- --  -- -- -- -- -- -- -- --
0000:    00                                              .              
```

#### Opcodes

```
  0: 0x0001 [0x00] END_REQSTACK()
```

### Event 7

#### Metadata

| Field        | Value    |
|--------------|----------|
| Entrypoint   | 0x0002   |
| Data Size    | 59 bytes |
| Instructions | 11       |

```
      00 01 02 03 04 05 06 07  08 09 0A 0B 0C 0D 0E 0F
      -- -- -- -- -- -- -- --  -- -- -- -- -- -- -- --
0000:       20 01 42 62 00 80  F8 FF FF 7F F8 FF FF 7F     .Bb..........
0010: 6D 61 69 6E 01 80 1C 02  80 47 00 03 80 04 80 05  main.....G......
0020: 80 06 80 47 01 62 07 80  F8 FF FF 7F F8 FF FF 7F  ...G.b..........
0030: 6D 61 69 6E 01 80 1C 02  80 20 00 21 00           main..... .!.   
```

#### Opcodes

```
  0: 0x0002 [0x20] SET_CLI_EVENT_UC_FLAG: Lock player control
  1: 0x0004 [0x42] SET_CLI_EVENT_CANCEL_DATA()
  2: 0x0005 [0x62] LOAD_EVENT_SCHEDULER: Load scheduler "main" with entities [EventEntity, EventEntity], work=[1*, 0*]
  3: 0x0016 [0x1C] WAIT(180* ticks)
  4: 0x0019 [0x47] UPDATE_PLAYER_POS(80.551*, 159.645*, -8.000*, yaw=249.9°*)
  5: 0x0023 [0x47] WAIT_PLAYER_POS_UPDATE
  6: 0x0025 [0x62] LOAD_EVENT_SCHEDULER: Load scheduler "main" with entities [EventEntity, EventEntity], work=[2*, 0*]
  7: 0x0036 [0x1C] WAIT(180* ticks)
  8: 0x0039 [0x20] SET_CLI_EVENT_UC_FLAG: Unlock player control
  9: 0x003B [0x21] END_EVENT
 10: 0x003C [0x00] END_REQSTACK()
```

### Event 8

#### Metadata

| Field        | Value    |
|--------------|----------|
| Entrypoint   | 0x003D   |
| Data Size    | 59 bytes |
| Instructions | 11       |

```
      00 01 02 03 04 05 06 07  08 09 0A 0B 0C 0D 0E 0F
      -- -- -- -- -- -- -- --  -- -- -- -- -- -- -- --
0030:                                         20 01 42                .B
0040: 62 00 80 F8 FF FF 7F F8  FF FF 7F 6D 61 69 6E 01  b..........main.
0050: 80 1C 02 80 47 00 08 80  09 80 0A 80 0B 80 47 01  ....G.........G.
0060: 62 07 80 F8 FF FF 7F F8  FF FF 7F 6D 61 69 6E 01  b..........main.
0070: 80 1C 02 80 20 00 21 00                           .... .!.        
```

#### Opcodes

```
  0: 0x003D [0x20] SET_CLI_EVENT_UC_FLAG: Lock player control
  1: 0x003F [0x42] SET_CLI_EVENT_CANCEL_DATA()
  2: 0x0040 [0x62] LOAD_EVENT_SCHEDULER: Load scheduler "main" with entities [EventEntity, EventEntity], work=[1*, 0*]
  3: 0x0051 [0x1C] WAIT(180* ticks)
  4: 0x0054 [0x47] UPDATE_PLAYER_POS(81.200*, -118.861*, -11.515*, yaw=279.4°*)
  5: 0x005E [0x47] WAIT_PLAYER_POS_UPDATE
  6: 0x0060 [0x62] LOAD_EVENT_SCHEDULER: Load scheduler "main" with entities [EventEntity, EventEntity], work=[2*, 0*]
  7: 0x0071 [0x1C] WAIT(180* ticks)
  8: 0x0074 [0x20] SET_CLI_EVENT_UC_FLAG: Unlock player control
  9: 0x0076 [0x21] END_EVENT
 10: 0x0077 [0x00] END_REQSTACK()
```

### Event 9

#### Metadata

| Field        | Value    |
|--------------|----------|
| Entrypoint   | 0x0078   |
| Data Size    | 59 bytes |
| Instructions | 11       |

```
      00 01 02 03 04 05 06 07  08 09 0A 0B 0C 0D 0E 0F
      -- -- -- -- -- -- -- --  -- -- -- -- -- -- -- --
0070:                          20 01 42 62 00 80 F8 FF           .Bb....
0080: FF 7F F8 FF FF 7F 6D 61  69 6E 01 80 1C 02 80 47  ......main.....G
0090: 00 0C 80 0D 80 05 80 0E  80 47 01 62 07 80 F8 FF  .........G.b....
00A0: FF 7F F8 FF FF 7F 6D 61  69 6E 01 80 1C 02 80 20  ......main..... 
00B0: 00 21 00                                          .!.             
```

#### Opcodes

```
  0: 0x0078 [0x20] SET_CLI_EVENT_UC_FLAG: Lock player control
  1: 0x007A [0x42] SET_CLI_EVENT_CANCEL_DATA()
  2: 0x007B [0x62] LOAD_EVENT_SCHEDULER: Load scheduler "main" with entities [EventEntity, EventEntity], work=[1*, 0*]
  3: 0x008C [0x1C] WAIT(180* ticks)
  4: 0x008F [0x47] UPDATE_PLAYER_POS(-199.922*, -119.765*, -8.000*, yaw=270.9°*)
  5: 0x0099 [0x47] WAIT_PLAYER_POS_UPDATE
  6: 0x009B [0x62] LOAD_EVENT_SCHEDULER: Load scheduler "main" with entities [EventEntity, EventEntity], work=[2*, 0*]
  7: 0x00AC [0x1C] WAIT(180* ticks)
  8: 0x00AF [0x20] SET_CLI_EVENT_UC_FLAG: Unlock player control
  9: 0x00B1 [0x21] END_EVENT
 10: 0x00B2 [0x00] END_REQSTACK()
```

### Event 10

#### Metadata

| Field        | Value    |
|--------------|----------|
| Entrypoint   | 0x00B3   |
| Data Size    | 59 bytes |
| Instructions | 11       |

```
      00 01 02 03 04 05 06 07  08 09 0A 0B 0C 0D 0E 0F
      -- -- -- -- -- -- -- --  -- -- -- -- -- -- -- --
00B0:          20 01 42 62 00  80 F8 FF FF 7F F8 FF FF      .Bb.........
00C0: 7F 6D 61 69 6E 01 80 1C  02 80 47 00 0F 80 10 80  .main.....G.....
00D0: 0A 80 11 80 47 01 62 07  80 F8 FF FF 7F F8 FF FF  ....G.b.........
00E0: 7F 6D 61 69 6E 01 80 1C  02 80 20 00 21 00        .main..... .!.  
```

#### Opcodes

```
  0: 0x00B3 [0x20] SET_CLI_EVENT_UC_FLAG: Lock player control
  1: 0x00B5 [0x42] SET_CLI_EVENT_CANCEL_DATA()
  2: 0x00B6 [0x62] LOAD_EVENT_SCHEDULER: Load scheduler "main" with entities [EventEntity, EventEntity], work=[1*, 0*]
  3: 0x00C7 [0x1C] WAIT(180* ticks)
  4: 0x00CA [0x47] UPDATE_PLAYER_POS(-198.735*, 161.008*, -11.515*, yaw=263.1°*)
  5: 0x00D4 [0x47] WAIT_PLAYER_POS_UPDATE
  6: 0x00D6 [0x62] LOAD_EVENT_SCHEDULER: Load scheduler "main" with entities [EventEntity, EventEntity], work=[2*, 0*]
  7: 0x00E7 [0x1C] WAIT(180* ticks)
  8: 0x00EA [0x20] SET_CLI_EVENT_UC_FLAG: Unlock player control
  9: 0x00EC [0x21] END_EVENT
 10: 0x00ED [0x00] END_REQSTACK()
```

### Event 65535.1

#### Metadata

| Field        | Value    |
|--------------|----------|
| Entrypoint   | 0x00EE   |
| Data Size    | 37 bytes |
| Instructions | 5        |

```
      00 01 02 03 04 05 06 07  08 09 0A 0B 0C 0D 0E 0F
      -- -- -- -- -- -- -- --  -- -- -- -- -- -- -- --
00E0:                                            03 00                ..
00F0: 00 07 7F 1A 38 01 66 01  00 F8 FF FF 7F F8 FF FF  ....8.f.........
0100: 7F 73 68 61 30 53 F8 FF  FF 7F F8 FF FF 7F 73 68  .sha0S........sh
0110: 61 30 00                                          a0.             
```

#### Opcodes

```
  0: 0x00EE [0x03] ExtData[1]->WorkLocal[0] = Entity->Race
  1: 0x00F3 [0x1A] CALL_SUBROUTINE(address=0x0138)
  2: 0x00F6 [0x66] LOAD_EXT_SCHEDULER_MAIN: Load scheduler "sha0" with entities [EventEntity, EventEntity], work=ExtData[1]->WorkLocal[1]
  3: 0x0105 [0x53] WAIT_SCHEDULER_TASK: Wait for scheduler "sha0" with entities [EventEntity, EventEntity]
  4: 0x0112 [0x00] END_REQSTACK()
```

### Event 65535.2

#### Metadata

| Field        | Value     |
|--------------|-----------|
| Entrypoint   | 0x0113    |
| Data Size    | 185 bytes |
| Instructions | 13        |

```
      00 01 02 03 04 05 06 07  08 09 0A 0B 0C 0D 0E 0F
      -- -- -- -- -- -- -- --  -- -- -- -- -- -- -- --
0110:          03 00 00 07 7F  1A 38 01 66 01 00 F8 FF     ......8.f....
0120: FF 7F F8 FF FF 7F 73 68  61 31 53 F8 FF FF 7F F8  ......sha1S.....
0130: FF FF 7F 73 68 61 31 00  03 01 00 00 00 02 01 00  ...sha1.........
0140: 12 80 05 4D 01 08 01 00  00 80 01 52 01 08 01 00  ...M.......R....
0150: 07 80 14 01 00 13 80 07  01 00 14 80 1B 03 01 00  ................
0160: 00 00 02 01 00 12 80 05  72 01 08 01 00 00 80 01  ........r.......
0170: 77 01 08 01 00 07 80 14  01 00 13 80 07 01 00 15  w...............
0180: 80 1B 03 01 00 00 00 02  01 00 12 80 05 97 01 08  ................
0190: 01 00 00 80 01 9C 01 08  01 00 07 80 14 01 00 13  ................
01A0: 80 07 01 00 16 80 1B 03  01 00 00 00 02 01 00 12  ................
01B0: 80 05 BC 01 08 01 00 00  80 01 C1 01 08 01 00 07  ................
01C0: 80 14 01 00 13 80 07 01  00 17 80 1B              ............    
```

#### Opcodes

```
  0: 0x0113 [0x03] ExtData[1]->WorkLocal[0] = Entity->Race
  1: 0x0118 [0x1A] CALL_SUBROUTINE(address=0x0138)
  2: 0x011B [0x66] LOAD_EXT_SCHEDULER_MAIN: Load scheduler "sha1" with entities [EventEntity, EventEntity], work=ExtData[1]->WorkLocal[1]
  3: 0x012A [0x53] WAIT_SCHEDULER_TASK: Wait for scheduler "sha1" with entities [EventEntity, EventEntity]
  4: 0x0137 [0x00] END_REQSTACK()

SUBROUTINE_0138:
  5: 0x0138 [0x03] ExtData[1]->WorkLocal[1] = ExtData[1]->WorkLocal[0]
  6: 0x013D [0x02] IF !(ExtData[1]->WorkLocal[1] > 5*) GOTO 0x014D
  7: 0x0145 [0x08] ExtData[1]->WorkLocal[1] -= 1*
  8: 0x014A [0x01] GOTO 0x0152
  9: 0x014D [0x08] ExtData[1]->WorkLocal[1] -= 2*

SUBROUTINE_0152:
 10: 0x0152 [0x14] ExtData[1]->WorkLocal[1] *= 10*
 11: 0x0157 [0x07] ExtData[1]->WorkLocal[1] += 9*
 12: 0x015C [0x1B] RETURN
```

#### Data or dead code:

```
# Dead code (unreachable instructions):
     0x015D [0x03] ExtData[1]->WorkLocal[1] = ExtData[1]->WorkLocal[0]
     0x0162 [0x02] IF !(ExtData[1]->WorkLocal[1] > 5*) GOTO 0x0172
     0x016A [0x08] ExtData[1]->WorkLocal[1] -= 1*
     0x016F [0x01] GOTO 0x0177
     0x0172 [0x08] ExtData[1]->WorkLocal[1] -= 2*
     0x0177 [0x14] ExtData[1]->WorkLocal[1] *= 10*
     0x017C [0x07] ExtData[1]->WorkLocal[1] += 70*
     0x0181 [0x1B] RETURN
     0x0182 [0x03] ExtData[1]->WorkLocal[1] = ExtData[1]->WorkLocal[0]
     0x0187 [0x02] IF !(ExtData[1]->WorkLocal[1] > 5*) GOTO 0x0197
     0x018F [0x08] ExtData[1]->WorkLocal[1] -= 1*
     0x0194 [0x01] GOTO 0x019C
     0x0197 [0x08] ExtData[1]->WorkLocal[1] -= 2*
     0x019C [0x14] ExtData[1]->WorkLocal[1] *= 10*
     0x01A1 [0x07] ExtData[1]->WorkLocal[1] += 140*
     0x01A6 [0x1B] RETURN
     0x01A7 [0x03] ExtData[1]->WorkLocal[1] = ExtData[1]->WorkLocal[0]
     0x01AC [0x02] IF !(ExtData[1]->WorkLocal[1] > 5*) GOTO 0x01BC
     0x01B4 [0x08] ExtData[1]->WorkLocal[1] -= 1*
     0x01B9 [0x01] GOTO 0x01C1
     0x01BC [0x08] ExtData[1]->WorkLocal[1] -= 2*
     0x01C1 [0x14] ExtData[1]->WorkLocal[1] *= 10*
     0x01C6 [0x07] ExtData[1]->WorkLocal[1] += 210*
     0x01CB [0x1B] RETURN
```

### Event 65535.3

#### Metadata

| Field        | Value   |
|--------------|---------|
| Entrypoint   | 0x01CC  |
| Data Size    | 6 bytes |
| Instructions | 2       |

```
      00 01 02 03 04 05 06 07  08 09 0A 0B 0C 0D 0E 0F
      -- -- -- -- -- -- -- --  -- -- -- -- -- -- -- --
01C0:                                      03 02 10 07              ....
01D0: 7F 00                                             ..              
```

#### Opcodes

```
  0: 0x01CC [0x03] Work_Zone[2] = Entity->Race
  1: 0x01D1 [0x00] END_REQSTACK()
```

### Event 65535.4

#### Metadata

| Field        | Value   |
|--------------|---------|
| Entrypoint   | 0x01D2  |
| Data Size    | 6 bytes |
| Instructions | 2       |

```
      00 01 02 03 04 05 06 07  08 09 0A 0B 0C 0D 0E 0F
      -- -- -- -- -- -- -- --  -- -- -- -- -- -- -- --
01D0:       03 02 10 0B 7F 00                             ......        
```

#### Opcodes

```
  0: 0x01D2 [0x03] Work_Zone[2] = (Entity->Render.Flags01 >> 25) & 1
  1: 0x01D7 [0x00] END_REQSTACK()
```

### Event 65535.5

#### Metadata

| Field        | Value   |
|--------------|---------|
| Entrypoint   | 0x01D8  |
| Data Size    | 7 bytes |
| Instructions | 3       |

```
      00 01 02 03 04 05 06 07  08 09 0A 0B 0C 0D 0E 0F
      -- -- -- -- -- -- -- --  -- -- -- -- -- -- -- --
01D0:                          AB 03 AC 01 00 80 00             ....... 
```

#### Opcodes

```
  0: 0x01D8 [0xAB] EventEntity->Render.Flags0 ^= 0x20000 // Toggle bit 17
  1: 0x01DA [0xAC] EventEntity->StatusEvent = 1*
  2: 0x01DE [0x00] END_REQSTACK()
```

### Event 65535.6

#### Metadata

| Field        | Value   |
|--------------|---------|
| Entrypoint   | 0x01DF  |
| Data Size    | 7 bytes |
| Instructions | 3       |

```
      00 01 02 03 04 05 06 07  08 09 0A 0B 0C 0D 0E 0F
      -- -- -- -- -- -- -- --  -- -- -- -- -- -- -- --
01D0:                                               AC                 .
01E0: 01 01 80 AB 04 00                                 ......          
```

#### Opcodes

```
  0: 0x01DF [0xAC] EventEntity->StatusEvent = 0*
  1: 0x01E3 [0xAB] EventEntity->Render.Flags0 |= 0x40000 // Set bit 18
  2: 0x01E5 [0x00] END_REQSTACK()
```

### Event 65535.7

#### Metadata

| Field        | Value    |
|--------------|----------|
| Entrypoint   | 0x01E6   |
| Data Size    | 24 bytes |
| Instructions | 4        |

```
      00 01 02 03 04 05 06 07  08 09 0A 0B 0C 0D 0E 0F
      -- -- -- -- -- -- -- --  -- -- -- -- -- -- -- --
01E0:                   03 00  00 07 7F 1A 38 01 66 01        ......8.f.
01F0: 00 F8 FF FF 7F F8 FF FF  7F 74 6C 6B 30 00        .........tlk0.  
```

#### Opcodes

```
  0: 0x01E6 [0x03] ExtData[1]->WorkLocal[0] = Entity->Race
  1: 0x01EB [0x1A] CALL_SUBROUTINE(address=0x0138)
  2: 0x01EE [0x66] LOAD_EXT_SCHEDULER_MAIN: Load scheduler "tlk0" with entities [EventEntity, EventEntity], work=ExtData[1]->WorkLocal[1]
  3: 0x01FD [0x00] END_REQSTACK()
```

### Event 65535.8

#### Metadata

| Field        | Value    |
|--------------|----------|
| Entrypoint   | 0x01FE   |
| Data Size    | 24 bytes |
| Instructions | 4        |

```
      00 01 02 03 04 05 06 07  08 09 0A 0B 0C 0D 0E 0F
      -- -- -- -- -- -- -- --  -- -- -- -- -- -- -- --
01F0:                                            03 00                ..
0200: 00 07 7F 1A 38 01 66 01  00 F8 FF FF 7F F8 FF FF  ....8.f.........
0210: 7F 74 6C 6B 31 00                                 .tlk1.          
```

#### Opcodes

```
  0: 0x01FE [0x03] ExtData[1]->WorkLocal[0] = Entity->Race
  1: 0x0203 [0x1A] CALL_SUBROUTINE(address=0x0138)
  2: 0x0206 [0x66] LOAD_EXT_SCHEDULER_MAIN: Load scheduler "tlk1" with entities [EventEntity, EventEntity], work=ExtData[1]->WorkLocal[1]
  3: 0x0215 [0x00] END_REQSTACK()
```

### Event 65535.9

#### Metadata

| Field        | Value    |
|--------------|----------|
| Entrypoint   | 0x0216   |
| Data Size    | 38 bytes |
| Instructions | 5        |

```
      00 01 02 03 04 05 06 07  08 09 0A 0B 0C 0D 0E 0F
      -- -- -- -- -- -- -- --  -- -- -- -- -- -- -- --
0210:                   22 00  2F 00 F8 FF FF 7F B6 0B        "./.......
0220: 18 80 19 80 1A 80 1B 80  1C 80 1C 80 1C 80 1D 80  ................
0230: 1E 80 6C F8 FF FF 7F 1F  80 00 80 00              ..l.........    
```

#### Opcodes

```
  0: 0x0216 [0x22] ENTITY_HIDE_FLAG(enabled=0x00)
  1: 0x0218 [0x2F] EventEntity->Render.Flags0 &= ~0x80000 // Bit 19
  2: 0x021E [0xB6] ENTITY_APPEARANCE_HANDLER(case=Full entity look, race=8*, hair=7*, head=145*, body=79*, hands=76*, legs=76*, feet=76*, main=201*, sub=24*)
  3: 0x0232 [0x6C] FADE_ENTITY_COLOR(entity_id=EventEntity, end_alpha=32*, fade_time=1*)
  4: 0x023B [0x00] END_REQSTACK()
```

### Event 65535.10

#### Metadata

| Field        | Value    |
|--------------|----------|
| Entrypoint   | 0x023C   |
| Data Size    | 38 bytes |
| Instructions | 5        |

```
      00 01 02 03 04 05 06 07  08 09 0A 0B 0C 0D 0E 0F
      -- -- -- -- -- -- -- --  -- -- -- -- -- -- -- --
0230:                                      22 00 2F 00              "./.
0240: F8 FF FF 7F B6 0B 19 80  19 80 1A 80 1B 80 1C 80  ................
0250: 1C 80 1C 80 1D 80 1E 80  6C F8 FF FF 7F 20 80 00  ........l.... ..
0260: 80 00                                             ..              
```

#### Opcodes

```
  0: 0x023C [0x22] ENTITY_HIDE_FLAG(enabled=0x00)
  1: 0x023E [0x2F] EventEntity->Render.Flags0 &= ~0x80000 // Bit 19
  2: 0x0244 [0xB6] ENTITY_APPEARANCE_HANDLER(case=Full entity look, race=7*, hair=7*, head=145*, body=79*, hands=76*, legs=76*, feet=76*, main=201*, sub=24*)
  3: 0x0258 [0x6C] FADE_ENTITY_COLOR(entity_id=EventEntity, end_alpha=48*, fade_time=1*)
  4: 0x0261 [0x00] END_REQSTACK()
```

### Event 65535.11

#### Metadata

| Field        | Value    |
|--------------|----------|
| Entrypoint   | 0x0262   |
| Data Size    | 38 bytes |
| Instructions | 5        |

```
      00 01 02 03 04 05 06 07  08 09 0A 0B 0C 0D 0E 0F
      -- -- -- -- -- -- -- --  -- -- -- -- -- -- -- --
0260:       22 00 2F 00 F8 FF  FF 7F B6 0B 12 80 19 80    "./...........
0270: 1A 80 1B 80 1C 80 1C 80  1C 80 1D 80 1E 80 6C F8  ..............l.
0280: FF FF 7F 21 80 00 80 00                           ...!....        
```

#### Opcodes

```
  0: 0x0262 [0x22] ENTITY_HIDE_FLAG(enabled=0x00)
  1: 0x0264 [0x2F] EventEntity->Render.Flags0 &= ~0x80000 // Bit 19
  2: 0x026A [0xB6] ENTITY_APPEARANCE_HANDLER(case=Full entity look, race=5*, hair=7*, head=145*, body=79*, hands=76*, legs=76*, feet=76*, main=201*, sub=24*)
  3: 0x027E [0x6C] FADE_ENTITY_COLOR(entity_id=EventEntity, end_alpha=64*, fade_time=1*)
  4: 0x0287 [0x00] END_REQSTACK()
```

### Event 65535.12

#### Metadata

| Field        | Value    |
|--------------|----------|
| Entrypoint   | 0x0288   |
| Data Size    | 37 bytes |
| Instructions | 5        |

```
      00 01 02 03 04 05 06 07  08 09 0A 0B 0C 0D 0E 0F
      -- -- -- -- -- -- -- --  -- -- -- -- -- -- -- --
0280:                          03 00 00 07 7F 1A 38 01          ......8.
0290: 66 01 00 F8 FF FF 7F F8  FF FF 7F 73 69 74 30 53  f..........sit0S
02A0: F8 FF FF 7F F8 FF FF 7F  73 69 74 30 00           ........sit0.   
```

#### Opcodes

```
  0: 0x0288 [0x03] ExtData[1]->WorkLocal[0] = Entity->Race
  1: 0x028D [0x1A] CALL_SUBROUTINE(address=0x0138)
  2: 0x0290 [0x66] LOAD_EXT_SCHEDULER_MAIN: Load scheduler "sit0" with entities [EventEntity, EventEntity], work=ExtData[1]->WorkLocal[1]
  3: 0x029F [0x53] WAIT_SCHEDULER_TASK: Wait for scheduler "sit0" with entities [EventEntity, EventEntity]
  4: 0x02AC [0x00] END_REQSTACK()
```

### Event 65535.13

#### Metadata

| Field        | Value    |
|--------------|----------|
| Entrypoint   | 0x02AD   |
| Data Size    | 37 bytes |
| Instructions | 5        |

```
      00 01 02 03 04 05 06 07  08 09 0A 0B 0C 0D 0E 0F
      -- -- -- -- -- -- -- --  -- -- -- -- -- -- -- --
02A0:                                         03 00 00               ...
02B0: 07 7F 1A 38 01 66 01 00  F8 FF FF 7F F8 FF FF 7F  ...8.f..........
02C0: 73 69 74 31 53 F8 FF FF  7F F8 FF FF 7F 73 69 74  sit1S........sit
02D0: 31 00                                             1.              
```

#### Opcodes

```
  0: 0x02AD [0x03] ExtData[1]->WorkLocal[0] = Entity->Race
  1: 0x02B2 [0x1A] CALL_SUBROUTINE(address=0x0138)
  2: 0x02B5 [0x66] LOAD_EXT_SCHEDULER_MAIN: Load scheduler "sit1" with entities [EventEntity, EventEntity], work=ExtData[1]->WorkLocal[1]
  3: 0x02C4 [0x53] WAIT_SCHEDULER_TASK: Wait for scheduler "sit1" with entities [EventEntity, EventEntity]
  4: 0x02D1 [0x00] END_REQSTACK()
```

### Event 65535.14

#### Metadata

| Field        | Value    |
|--------------|----------|
| Entrypoint   | 0x02D2   |
| Data Size    | 42 bytes |
| Instructions | 6        |

```
      00 01 02 03 04 05 06 07  08 09 0A 0B 0C 0D 0E 0F
      -- -- -- -- -- -- -- --  -- -- -- -- -- -- -- --
02D0:       03 00 00 07 7F 1A  38 01 66 01 00 F8 FF FF    ......8.f.....
02E0: 7F F8 FF FF 7F 74 6C 6B  30 1C 22 80 66 01 00 F8  .....tlk0.".f...
02F0: FF FF 7F F8 FF FF 7F 74  6C 6B 31 00              .......tlk1.    
```

#### Opcodes

```
  0: 0x02D2 [0x03] ExtData[1]->WorkLocal[0] = Entity->Race
  1: 0x02D7 [0x1A] CALL_SUBROUTINE(address=0x0138)
  2: 0x02DA [0x66] LOAD_EXT_SCHEDULER_MAIN: Load scheduler "tlk0" with entities [EventEntity, EventEntity], work=ExtData[1]->WorkLocal[1]
  3: 0x02E9 [0x1C] WAIT(60* ticks)
  4: 0x02EC [0x66] LOAD_EXT_SCHEDULER_MAIN: Load scheduler "tlk1" with entities [EventEntity, EventEntity], work=ExtData[1]->WorkLocal[1]
  5: 0x02FB [0x00] END_REQSTACK()
```

### Event 65535.15

#### Metadata

| Field        | Value    |
|--------------|----------|
| Entrypoint   | 0x02FC   |
| Data Size    | 22 bytes |
| Instructions | 6        |

```
      00 01 02 03 04 05 06 07  08 09 0A 0B 0C 0D 0E 0F
      -- -- -- -- -- -- -- --  -- -- -- -- -- -- -- --
02F0:                                      32 23 80 1F              2#..
0300: 00 24 80 25 80 26 80 1F  01 1E CA A2 08 01 1C 27  .$.%.&.........'
0310: 80 00                                             ..              
```

#### Opcodes

```
  0: 0x02FC [0x32] ExtData[1]->MainSpeed = 40* * 0.1
  1: 0x02FF [0x1F] MOVE_ENTITY: EventEntity moves to X=-88.820*, Z=20.726*, Y=-24.108*
  2: 0x0307 [0x1F] MOVE_ENTITY: Update entity position (mode=1)
  3: 0x0309 [0x1E] EventEntity looks at Volker (ID: 17343178/0x0108A2CA) and starts talking
  4: 0x030E [0x1C] WAIT(30* ticks)
  5: 0x0311 [0x00] END_REQSTACK()
```

### Event 65535.16

#### Metadata

| Field        | Value    |
|--------------|----------|
| Entrypoint   | 0x0312   |
| Data Size    | 14 bytes |
| Instructions | 4        |

```
      00 01 02 03 04 05 06 07  08 09 0A 0B 0C 0D 0E 0F
      -- -- -- -- -- -- -- --  -- -- -- -- -- -- -- --
0310:       32 23 80 1F 00 28  80 29 80 2A 80 1F 01 00    2#...(.).*....
```

#### Opcodes

```
  0: 0x0312 [0x32] ExtData[1]->MainSpeed = 40* * 0.1
  1: 0x0315 [0x1F] MOVE_ENTITY: EventEntity moves to X=-95.810*, Z=19.923*, Y=-24.008*
  2: 0x031D [0x1F] MOVE_ENTITY: Update entity position (mode=1)
  3: 0x031F [0x00] END_REQSTACK()
```

### Event 65535.17

#### Metadata

| Field        | Value    |
|--------------|----------|
| Entrypoint   | 0x0320   |
| Data Size    | 27 bytes |
| Instructions | 5        |

```
      00 01 02 03 04 05 06 07  08 09 0A 0B 0C 0D 0E 0F
      -- -- -- -- -- -- -- --  -- -- -- -- -- -- -- --
0320: 03 00 00 07 7F 1A 5D 01  66 01 00 F8 FF FF 7F F8  ......].f.......
0330: FF FF 7F 61 74 70 31 1C  2B 80 00                 ...atp1.+..     
```

#### Opcodes

```
  0: 0x0320 [0x03] ExtData[1]->WorkLocal[0] = Entity->Race
  1: 0x0325 [0x1A] CALL_SUBROUTINE(address=0x015D)
  2: 0x0328 [0x66] LOAD_EXT_SCHEDULER_MAIN: Load scheduler "atp1" with entities [EventEntity, EventEntity], work=ExtData[1]->WorkLocal[1]
  3: 0x0337 [0x1C] WAIT(300* ticks)
  4: 0x033A [0x00] END_REQSTACK()
```

### Event 65535.18

#### Metadata

| Field        | Value    |
|--------------|----------|
| Entrypoint   | 0x033B   |
| Data Size    | 16 bytes |
| Instructions | 3        |

```
      00 01 02 03 04 05 06 07  08 09 0A 0B 0C 0D 0E 0F
      -- -- -- -- -- -- -- --  -- -- -- -- -- -- -- --
0330:                                   6C F0 FF FF 7F             l....
0340: 01 80 00 80 92 01 F0 FF  FF 7F 00                 ...........     
```

#### Opcodes

```
  0: 0x033B [0x6C] FADE_ENTITY_COLOR(entity_id=LocalPlayer, end_alpha=0*, fade_time=1*)
  1: 0x0344 [0x92] LocalPlayer->Render.Flags3 ^= 0x01
  2: 0x034A [0x00] END_REQSTACK()
```

### Event 65535.19

#### Metadata

| Field        | Value    |
|--------------|----------|
| Entrypoint   | 0x034B   |
| Data Size    | 16 bytes |
| Instructions | 3        |

```
      00 01 02 03 04 05 06 07  08 09 0A 0B 0C 0D 0E 0F
      -- -- -- -- -- -- -- --  -- -- -- -- -- -- -- --
0340:                                   6C F0 FF FF 7F             l....
0350: 2C 80 00 80 92 00 F0 FF  FF 7F 00                 ,..........     
```

#### Opcodes

```
  0: 0x034B [0x6C] FADE_ENTITY_COLOR(entity_id=LocalPlayer, end_alpha=128*, fade_time=1*)
  1: 0x0354 [0x92] LocalPlayer->Render.Flags3 = Flags3  // No change (flag=0)
  2: 0x035A [0x00] END_REQSTACK()
```

### Event 65535.20

#### Metadata

| Field        | Value    |
|--------------|----------|
| Entrypoint   | 0x035B   |
| Data Size    | 38 bytes |
| Instructions | 5        |

```
      00 01 02 03 04 05 06 07  08 09 0A 0B 0C 0D 0E 0F
      -- -- -- -- -- -- -- --  -- -- -- -- -- -- -- --
0350:                                   22 00 2F 00 F8             "./..
0360: FF FF 7F B6 0B 18 80 01  80 1A 80 1B 80 1C 80 1C  ................
0370: 80 1C 80 1D 80 2D 80 6C  F8 FF FF 7F 21 80 00 80  .....-.l....!...
0380: 00                                                .               
```

#### Opcodes

```
  0: 0x035B [0x22] ENTITY_HIDE_FLAG(enabled=0x00)
  1: 0x035D [0x2F] EventEntity->Render.Flags0 &= ~0x80000 // Bit 19
  2: 0x0363 [0xB6] ENTITY_APPEARANCE_HANDLER(case=Full entity look, race=8*, hair=0*, head=145*, body=79*, hands=76*, legs=76*, feet=76*, main=201*, sub=262*)
  3: 0x0377 [0x6C] FADE_ENTITY_COLOR(entity_id=EventEntity, end_alpha=64*, fade_time=1*)
  4: 0x0380 [0x00] END_REQSTACK()
```

### Event 65535.21

#### Metadata

| Field        | Value    |
|--------------|----------|
| Entrypoint   | 0x0381   |
| Data Size    | 38 bytes |
| Instructions | 5        |

```
      00 01 02 03 04 05 06 07  08 09 0A 0B 0C 0D 0E 0F
      -- -- -- -- -- -- -- --  -- -- -- -- -- -- -- --
0380:    22 00 2F 00 F8 FF FF  7F B6 0B 2E 80 01 80 1A   "./............
0390: 80 1B 80 1C 80 1C 80 1C  80 1D 80 1E 80 6C F8 FF  .............l..
03A0: FF 7F 2F 80 00 80 00                              ../....         
```

#### Opcodes

```
  0: 0x0381 [0x22] ENTITY_HIDE_FLAG(enabled=0x00)
  1: 0x0383 [0x2F] EventEntity->Render.Flags0 &= ~0x80000 // Bit 19
  2: 0x0389 [0xB6] ENTITY_APPEARANCE_HANDLER(case=Full entity look, race=4*, hair=0*, head=145*, body=79*, hands=76*, legs=76*, feet=76*, main=201*, sub=24*)
  3: 0x039D [0x6C] FADE_ENTITY_COLOR(entity_id=EventEntity, end_alpha=80*, fade_time=1*)
  4: 0x03A6 [0x00] END_REQSTACK()
```

### Event 65535.22

#### Metadata

| Field        | Value    |
|--------------|----------|
| Entrypoint   | 0x03A7   |
| Data Size    | 38 bytes |
| Instructions | 5        |

```
      00 01 02 03 04 05 06 07  08 09 0A 0B 0C 0D 0E 0F
      -- -- -- -- -- -- -- --  -- -- -- -- -- -- -- --
03A0:                      22  00 2F 00 F8 FF FF 7F B6         "./......
03B0: 0B 12 80 01 80 1A 80 1B  80 1C 80 1C 80 1C 80 1D  ................
03C0: 80 1E 80 6C F8 FF FF 7F  30 80 00 80 00           ...l....0....   
```

#### Opcodes

```
  0: 0x03A7 [0x22] ENTITY_HIDE_FLAG(enabled=0x00)
  1: 0x03A9 [0x2F] EventEntity->Render.Flags0 &= ~0x80000 // Bit 19
  2: 0x03AF [0xB6] ENTITY_APPEARANCE_HANDLER(case=Full entity look, race=5*, hair=0*, head=145*, body=79*, hands=76*, legs=76*, feet=76*, main=201*, sub=24*)
  3: 0x03C3 [0x6C] FADE_ENTITY_COLOR(entity_id=EventEntity, end_alpha=96*, fade_time=1*)
  4: 0x03CC [0x00] END_REQSTACK()
```

### Event 65535.23

#### Metadata

| Field        | Value   |
|--------------|---------|
| Entrypoint   | 0x03CD  |
| Data Size    | 6 bytes |
| Instructions | 2       |

```
      00 01 02 03 04 05 06 07  08 09 0A 0B 0C 0D 0E 0F
      -- -- -- -- -- -- -- --  -- -- -- -- -- -- -- --
03C0:                                         5D 01 80               ]..
03D0: 31 80 00                                          1..             
```

#### Opcodes

```
  0: 0x03CD [0x5D] SET_MUSIC_VOLUME(volume=0*, fade_time=120*)
  1: 0x03D2 [0x00] END_REQSTACK()
```

### Event 65535.24

#### Metadata

| Field        | Value    |
|--------------|----------|
| Entrypoint   | 0x03D3   |
| Data Size    | 14 bytes |
| Instructions | 4        |

```
      00 01 02 03 04 05 06 07  08 09 0A 0B 0C 0D 0E 0F
      -- -- -- -- -- -- -- --  -- -- -- -- -- -- -- --
03D0:          32 32 80 1F 00  33 80 34 80 35 80 1F 01     22...3.4.5...
03E0: 00                                                .               
```

#### Opcodes

```
  0: 0x03D3 [0x32] ExtData[1]->MainSpeed = 13* * 0.1
  1: 0x03D6 [0x1F] MOVE_ENTITY: EventEntity moves to X=272.387*, Z=60.699*, Y=-20.025*
  2: 0x03DE [0x1F] MOVE_ENTITY: Update entity position (mode=1)
  3: 0x03E0 [0x00] END_REQSTACK()
```

### Event 65535.25

#### Metadata

| Field        | Value    |
|--------------|----------|
| Entrypoint   | 0x03E1   |
| Data Size    | 54 bytes |
| Instructions | 12       |

```
      00 01 02 03 04 05 06 07  08 09 0A 0B 0C 0D 0E 0F
      -- -- -- -- -- -- -- --  -- -- -- -- -- -- -- --
03E0:    1C 13 80 1F 00 36 80  37 80 38 80 1F 01 1F 00   .....6.7.8.....
03F0: 39 80 3A 80 3B 80 1F 01  1F 00 3C 80 3D 80 3B 80  9.:.;.....<.=.;.
0400: 1F 01 1F 00 3E 80 3F 80  3B 80 1F 01 1F 00 40 80  ....>.?.;.....@.
0410: 41 80 42 80 1F 01 00                              A.B....         
```

#### Opcodes

```
  0: 0x03E1 [0x1C] WAIT(10* ticks)
  1: 0x03E4 [0x1F] MOVE_ENTITY: EventEntity moves to X=221.604*, Z=22.963*, Y=-24.010*
  2: 0x03EC [0x1F] MOVE_ENTITY: Update entity position (mode=1)
  3: 0x03EE [0x1F] MOVE_ENTITY: EventEntity moves to X=220.164*, Z=21.302*, Y=-24.000*
  4: 0x03F6 [0x1F] MOVE_ENTITY: Update entity position (mode=1)
  5: 0x03F8 [0x1F] MOVE_ENTITY: EventEntity moves to X=218.361*, Z=19.977*, Y=-24.000*
  6: 0x0400 [0x1F] MOVE_ENTITY: Update entity position (mode=1)
  7: 0x0402 [0x1F] MOVE_ENTITY: EventEntity moves to X=215.977*, Z=19.272*, Y=-24.000*
  8: 0x040A [0x1F] MOVE_ENTITY: Update entity position (mode=1)
  9: 0x040C [0x1F] MOVE_ENTITY: EventEntity moves to X=191.710*, Z=18.930*, Y=-24.006*
 10: 0x0414 [0x1F] MOVE_ENTITY: Update entity position (mode=1)
 11: 0x0416 [0x00] END_REQSTACK()
```

### Event 65535.26

#### Metadata

| Field        | Value     |
|--------------|-----------|
| Entrypoint   | 0x0417    |
| Data Size    | 152 bytes |
| Instructions | 13        |

```
      00 01 02 03 04 05 06 07  08 09 0A 0B 0C 0D 0E 0F
      -- -- -- -- -- -- -- --  -- -- -- -- -- -- -- --
0410:                      45  43 80 F0 FF FF 7F F0 FF         EC.......
0420: FF 7F 79 72 65 30 01 80  CD 19 80 F8 FF FF 7F F8  ..yre0..........
0430: FF FF 7F 73 30 30 30 01  80 1C 44 80 45 43 80 F0  ...s000...D.EC..
0440: FF FF 7F F0 FF FF 7F 79  72 65 30 01 80 CD 19 80  .......yre0.....
0450: F8 FF FF 7F F8 FF FF 7F  73 30 30 30 01 80 1C 45  ........s000...E
0460: 80 45 43 80 F0 FF FF 7F  F0 FF FF 7F 79 72 65 30  .EC.........yre0
0470: 01 80 CD 19 80 F8 FF FF  7F F8 FF FF 7F 73 30 30  .............s00
0480: 30 01 80 1C 46 80 45 43  80 F0 FF FF 7F F0 FF FF  0...F.EC........
0490: 7F 79 72 65 30 01 80 CD  19 80 F8 FF FF 7F F8 FF  .yre0...........
04A0: FF 7F 73 30 30 30 01 80  1C 45 80 01 17 04 00     ..s000...E..... 
```

#### Opcodes

```
  0: 0x0417 [0x45] LOAD_SCHEDULED_TASK: Load scheduler "yre0" with entities [LocalPlayer, LocalPlayer], work=[507*, 0*]
  1: 0x0428 [0xCD] LOAD_SCHEDULED_TASK_ALT4: Load scheduler "s000" with entities [EventEntity, EventEntity], work=[7*, 0*]
  2: 0x0439 [0x1C] WAIT(330* ticks)
  3: 0x043C [0x45] LOAD_SCHEDULED_TASK: Load scheduler "yre0" with entities [LocalPlayer, LocalPlayer], work=[507*, 0*]
  4: 0x044D [0xCD] LOAD_SCHEDULED_TASK_ALT4: Load scheduler "s000" with entities [EventEntity, EventEntity], work=[7*, 0*]
  5: 0x045E [0x1C] WAIT(270* ticks)
  6: 0x0461 [0x45] LOAD_SCHEDULED_TASK: Load scheduler "yre0" with entities [LocalPlayer, LocalPlayer], work=[507*, 0*]
  7: 0x0472 [0xCD] LOAD_SCHEDULED_TASK_ALT4: Load scheduler "s000" with entities [EventEntity, EventEntity], work=[7*, 0*]
  8: 0x0483 [0x1C] WAIT(390* ticks)
  9: 0x0486 [0x45] LOAD_SCHEDULED_TASK: Load scheduler "yre0" with entities [LocalPlayer, LocalPlayer], work=[507*, 0*]
 10: 0x0497 [0xCD] LOAD_SCHEDULED_TASK_ALT4: Load scheduler "s000" with entities [EventEntity, EventEntity], work=[7*, 0*]
 11: 0x04A8 [0x1C] WAIT(270* ticks)
 12: 0x04AB [0x01] GOTO 0x0417
```

#### Data or dead code:

```
# Dead code (unreachable instructions):
     0x04AE [0x00] END_REQSTACK()
```

### Event 65535.27

#### Metadata

| Field        | Value    |
|--------------|----------|
| Entrypoint   | 0x04AF   |
| Data Size    | 14 bytes |
| Instructions | 4        |

```
      00 01 02 03 04 05 06 07  08 09 0A 0B 0C 0D 0E 0F
      -- -- -- -- -- -- -- --  -- -- -- -- -- -- -- --
04A0:                                               32                 2
04B0: 32 80 1F 00 47 80 48 80  49 80 1F 01 00           2...G.H.I....   
```

#### Opcodes

```
  0: 0x04AF [0x32] ExtData[1]->MainSpeed = 13* * 0.1
  1: 0x04B2 [0x1F] MOVE_ENTITY: EventEntity moves to X=139.299*, Z=71.976*, Y=-24.251*
  2: 0x04BA [0x1F] MOVE_ENTITY: Update entity position (mode=1)
  3: 0x04BC [0x00] END_REQSTACK()
```

### Event 65535.28

#### Metadata

| Field        | Value    |
|--------------|----------|
| Entrypoint   | 0x04BD   |
| Data Size    | 14 bytes |
| Instructions | 4        |

```
      00 01 02 03 04 05 06 07  08 09 0A 0B 0C 0D 0E 0F
      -- -- -- -- -- -- -- --  -- -- -- -- -- -- -- --
04B0:                                         32 23 80               2#.
04C0: 1F 00 47 80 48 80 49 80  1F 01 00                 ..G.H.I....     
```

#### Opcodes

```
  0: 0x04BD [0x32] ExtData[1]->MainSpeed = 40* * 0.1
  1: 0x04C0 [0x1F] MOVE_ENTITY: EventEntity moves to X=139.299*, Z=71.976*, Y=-24.251*
  2: 0x04C8 [0x1F] MOVE_ENTITY: Update entity position (mode=1)
  3: 0x04CA [0x00] END_REQSTACK()
```

### Event 65535.29

#### Metadata

| Field        | Value    |
|--------------|----------|
| Entrypoint   | 0x04CB   |
| Data Size    | 14 bytes |
| Instructions | 4        |

```
      00 01 02 03 04 05 06 07  08 09 0A 0B 0C 0D 0E 0F
      -- -- -- -- -- -- -- --  -- -- -- -- -- -- -- --
04C0:                                   32 32 80 1F 00             22...
04D0: 47 80 48 80 49 80 1F 01  00                       G.H.I....       
```

#### Opcodes

```
  0: 0x04CB [0x32] ExtData[1]->MainSpeed = 13* * 0.1
  1: 0x04CE [0x1F] MOVE_ENTITY: EventEntity moves to X=139.299*, Z=71.976*, Y=-24.251*
  2: 0x04D6 [0x1F] MOVE_ENTITY: Update entity position (mode=1)
  3: 0x04D8 [0x00] END_REQSTACK()
```

### Event 65535.30

#### Metadata

| Field        | Value    |
|--------------|----------|
| Entrypoint   | 0x04D9   |
| Data Size    | 13 bytes |
| Instructions | 3        |

```
      00 01 02 03 04 05 06 07  08 09 0A 0B 0C 0D 0E 0F
      -- -- -- -- -- -- -- --  -- -- -- -- -- -- -- --
04D0:                             6E F0 FF FF 7F 4A 80           n....J.
04E0: 99 F0 FF FF 7F 00                                 ......          
```

#### Opcodes

```
  0: 0x04D9 [0x6E] LocalPlayer uses emote 21*
  1: 0x04E0 [0x99] Wait for LocalPlayer animation to complete
  2: 0x04E5 [0x00] END_REQSTACK()
```

### Event 65535.31

#### Metadata

| Field        | Value    |
|--------------|----------|
| Entrypoint   | 0x04E6   |
| Data Size    | 24 bytes |
| Instructions | 5        |

```
      00 01 02 03 04 05 06 07  08 09 0A 0B 0C 0D 0E 0F
      -- -- -- -- -- -- -- --  -- -- -- -- -- -- -- --
04E0:                   32 23  80 1F 00 4B 80 4C 80 4D        2#...K.L.M
04F0: 80 1F 01 79 00 F0 FF FF  7F CA A2 08 01 00        ...y..........  
```

#### Opcodes

```
  0: 0x04E6 [0x32] ExtData[1]->MainSpeed = 40* * 0.1
  1: 0x04E9 [0x1F] MOVE_ENTITY: EventEntity moves to X=363.598*, Z=-19.638*, Y=-11.999*
  2: 0x04F1 [0x1F] MOVE_ENTITY: Update entity position (mode=1)
  3: 0x04F3 [0x79] LocalPlayer looks at Volker (ID: 17343178/0x0108A2CA) (Basic look)
  4: 0x04FD [0x00] END_REQSTACK()
```

### Event 65535.32

#### Metadata

| Field        | Value    |
|--------------|----------|
| Entrypoint   | 0x04FE   |
| Data Size    | 19 bytes |
| Instructions | 5        |

```
      00 01 02 03 04 05 06 07  08 09 0A 0B 0C 0D 0E 0F
      -- -- -- -- -- -- -- --  -- -- -- -- -- -- -- --
04F0:                                            32 32                22
0500: 80 1F 00 4E 80 4F 80 50  80 1F 01 1E D1 A2 08 01  ...N.O.P........
0510: 00                                                .               
```

#### Opcodes

```
  0: 0x04FE [0x32] ExtData[1]->MainSpeed = 13* * 0.1
  1: 0x0501 [0x1F] MOVE_ENTITY: EventEntity moves to X=329.448*, Z=-19.176*, Y=-16.013*
  2: 0x0509 [0x1F] MOVE_ENTITY: Update entity position (mode=1)
  3: 0x050B [0x1E] EventEntity looks at Allenberge (ID: 17343185/0x0108A2D1) and starts talking
  4: 0x0510 [0x00] END_REQSTACK()
```

### Event 65535.33

#### Metadata

| Field        | Value    |
|--------------|----------|
| Entrypoint   | 0x0511   |
| Data Size    | 16 bytes |
| Instructions | 4        |

```
      00 01 02 03 04 05 06 07  08 09 0A 0B 0C 0D 0E 0F
      -- -- -- -- -- -- -- --  -- -- -- -- -- -- -- --
0510:    1C 27 80 6E F0 FF FF  7F 00 80 99 F0 FF FF 7F   .'.n...........
0520: 00                                                .               
```

#### Opcodes

```
  0: 0x0511 [0x1C] WAIT(30* ticks)
  1: 0x0514 [0x6E] LocalPlayer uses emote 1*
  2: 0x051B [0x99] Wait for LocalPlayer animation to complete
  3: 0x0520 [0x00] END_REQSTACK()
```

### Event 65535.34

#### Metadata

| Field        | Value    |
|--------------|----------|
| Entrypoint   | 0x0521   |
| Data Size    | 14 bytes |
| Instructions | 4        |

```
      00 01 02 03 04 05 06 07  08 09 0A 0B 0C 0D 0E 0F
      -- -- -- -- -- -- -- --  -- -- -- -- -- -- -- --
0520:    1C 51 80 1F 00 52 80  4F 80 50 80 1F 01 00      .Q...R.O.P.... 
```

#### Opcodes

```
  0: 0x0521 [0x1C] WAIT(45* ticks)
  1: 0x0524 [0x1F] MOVE_ENTITY: EventEntity moves to X=304.448*, Z=-19.176*, Y=-16.013*
  2: 0x052C [0x1F] MOVE_ENTITY: Update entity position (mode=1)
  3: 0x052E [0x00] END_REQSTACK()
```

### Event 65535.35

#### Metadata

| Field        | Value    |
|--------------|----------|
| Entrypoint   | 0x052F   |
| Data Size    | 14 bytes |
| Instructions | 4        |

```
      00 01 02 03 04 05 06 07  08 09 0A 0B 0C 0D 0E 0F
      -- -- -- -- -- -- -- --  -- -- -- -- -- -- -- --
0520:                                               1C                 .
0530: 51 80 1F 00 53 80 54 80  55 80 1F 01 00           Q...S.T.U....   
```

#### Opcodes

```
  0: 0x052F [0x1C] WAIT(45* ticks)
  1: 0x0532 [0x1F] MOVE_ENTITY: EventEntity moves to X=306.381*, Z=-19.652*, Y=-16.029*
  2: 0x053A [0x1F] MOVE_ENTITY: Update entity position (mode=1)
  3: 0x053C [0x00] END_REQSTACK()
```

### Event 65535.36

#### Metadata

| Field        | Value    |
|--------------|----------|
| Entrypoint   | 0x053D   |
| Data Size    | 42 bytes |
| Instructions | 10       |

```
      00 01 02 03 04 05 06 07  08 09 0A 0B 0C 0D 0E 0F
      -- -- -- -- -- -- -- --  -- -- -- -- -- -- -- --
0530:                                         7B F0 FF               {..
0540: FF 7F 1C 22 80 32 23 80  1F 00 56 80 57 80 58 80  ...".2#...V.W.X.
0550: 1F 01 1F 00 59 80 5A 80  5B 80 1F 01 1F 00 5C 80  ....Y.Z.[.....\.
0560: 5D 80 5E 80 1F 01 00                              ].^....         
```

#### Opcodes

```
  0: 0x053D [0x7B] LocalPlayer stops talking
  1: 0x0542 [0x1C] WAIT(60* ticks)
  2: 0x0545 [0x32] ExtData[1]->MainSpeed = 40* * 0.1
  3: 0x0548 [0x1F] MOVE_ENTITY: EventEntity moves to X=302.571*, Z=-16.840*, Y=-16.020*
  4: 0x0550 [0x1F] MOVE_ENTITY: Update entity position (mode=1)
  5: 0x0552 [0x1F] MOVE_ENTITY: EventEntity moves to X=300.898*, Z=-10.184*, Y=-16.003*
  6: 0x055A [0x1F] MOVE_ENTITY: Update entity position (mode=1)
  7: 0x055C [0x1F] MOVE_ENTITY: EventEntity moves to X=299.699*, Z=4.105*, Y=-16.002*
  8: 0x0564 [0x1F] MOVE_ENTITY: Update entity position (mode=1)
  9: 0x0566 [0x00] END_REQSTACK()
```

### Event 65535.37

#### Metadata

| Field        | Value    |
|--------------|----------|
| Entrypoint   | 0x0567   |
| Data Size    | 19 bytes |
| Instructions | 5        |

```
      00 01 02 03 04 05 06 07  08 09 0A 0B 0C 0D 0E 0F
      -- -- -- -- -- -- -- --  -- -- -- -- -- -- -- --
0560:                      32  23 80 1F 00 5F 80 60 80         2#..._.`.
0570: 61 80 1F 01 1E AF A2 08  01 00                    a.........      
```

#### Opcodes

```
  0: 0x0567 [0x32] ExtData[1]->MainSpeed = 40* * 0.1
  1: 0x056A [0x1F] MOVE_ENTITY: EventEntity moves to X=374.916*, Z=-17.962*, Y=-12.055*
  2: 0x0572 [0x1F] MOVE_ENTITY: Update entity position (mode=1)
  3: 0x0574 [0x1E] EventEntity looks at Lilisette (ID: 17343151/0x0108A2AF) and starts talking
  4: 0x0579 [0x00] END_REQSTACK()
```

### Event 65535.38

#### Metadata

| Field        | Value    |
|--------------|----------|
| Entrypoint   | 0x057A   |
| Data Size    | 14 bytes |
| Instructions | 4        |

```
      00 01 02 03 04 05 06 07  08 09 0A 0B 0C 0D 0E 0F
      -- -- -- -- -- -- -- --  -- -- -- -- -- -- -- --
0570:                                32 23 80 1F 00 62            2#...b
0580: 80 63 80 64 80 1F 01 00                           .c.d....        
```

#### Opcodes

```
  0: 0x057A [0x32] ExtData[1]->MainSpeed = 40* * 0.1
  1: 0x057D [0x1F] MOVE_ENTITY: EventEntity moves to X=359.928*, Z=-18.132*, Y=-12.000*
  2: 0x0585 [0x1F] MOVE_ENTITY: Update entity position (mode=1)
  3: 0x0587 [0x00] END_REQSTACK()
```

### Event 5

#### Metadata

| Field        | Value     |
|--------------|-----------|
| Entrypoint   | 0x0588    |
| Data Size    | 107 bytes |
| Instructions | 16        |

```
      00 01 02 03 04 05 06 07  08 09 0A 0B 0C 0D 0E 0F
      -- -- -- -- -- -- -- --  -- -- -- -- -- -- -- --
0580:                          42 48 65 80 45 66 80 F0          BHe.Ef..
0590: FF FF 7F F0 FF FF 7F 66  64 6F 31 01 80 02 03 10  .......fdo1.....
05A0: 01 80 00 B9 05 62 00 80  F0 FF FF 7F F0 FF FF 7F  .....b..........
05B0: 6D 61 69 6E 01 80 1C 67  80 1C 22 80 83 1E 17 AA  main...g..".....
05C0: 1E 17 1E 17 1E 17 1E 17  1E 17 1F 17 1E 17 1E 17  ................
05D0: 03 02 00 01 80 03 02 00  07 80 77 1F 17 02 00 78  ..........w....x
05E0: 45 1D 80 F0 FF FF 7F F0  FF FF 7F 77 68 69 31 01  E..........whi1.
05F0: 80 21 00                                          .!.             
```

#### Opcodes

```
  0: 0x0588 [0x42] SET_CLI_EVENT_CANCEL_DATA()
  1: 0x0589 [0x48] [System] [7913*]:
    → "The order has been given by your party leader to enter [Everbloom Hollow/the Ruhotz Silvermines/Ghoyu's Reverie]."
  2: 0x058C [0x45] LOAD_SCHEDULED_TASK: Load scheduler "fdo1" with entities [LocalPlayer, LocalPlayer], work=[200*, 0*]
  3: 0x059D [0x02] IF !(Work_Zone[3] == 0*) GOTO 0x05B9
  4: 0x05A5 [0x62] LOAD_EVENT_SCHEDULER: Load scheduler "main" with entities [LocalPlayer, LocalPlayer], work=[1*, 0*]
  5: 0x05B6 [0x1C] WAIT(90* ticks)
  6: 0x05B9 [0x1C] WAIT(60* ticks)
  7: 0x05BC [0x83] Work_Zone_1700[30] = GetGameTime()
  8: 0x05BF [0xAA] VANA_DIEL_TIMESTAMP_CONVERTER(timestamp=Work_Zone_1700[30], year=Work_Zone_1700[30], month=Work_Zone_1700[30], day=Work_Zone_1700[30], weekday=Work_Zone_1700[30], hour=Work_Zone_1700[31], minute=Work_Zone_1700[30], moon=Work_Zone_1700[30])
  9: 0x05D0 [0x03] ExtData[1]->WorkLocal[2] = 0*
 10: 0x05D5 [0x03] ExtData[1]->WorkLocal[2] = 2*
 11: 0x05DA [0x77] SET_EVENT_TIME_WEATHER(hour=Work_Zone_1700[31], weather=ExtData[1]->WorkLocal[2])
 12: 0x05DF [0x78] ENABLE_GAME_TIMER_RESET_WEATHER()
 13: 0x05E0 [0x45] LOAD_SCHEDULED_TASK: Load scheduler "whi1" with entities [LocalPlayer, LocalPlayer], work=[201*, 0*]
 14: 0x05F1 [0x21] END_EVENT
 15: 0x05F2 [0x00] END_REQSTACK()
```
