# Event 735

## Metadata

| Field           | Value    |
|-----------------|----------|
| Event Index     | 13/36    |
| Offset          | 0x0497   |
| Data Size       | 60 bytes |
| Calculated Size | 60 bytes |
| Instructions    | 10       |

```
      00 01 02 03 04 05 06 07  08 09 0A 0B 0C 0D 0E 0F
      -- -- -- -- -- -- -- --  -- -- -- -- -- -- -- --
0490:                      1E  F0 FF FF 7F 6F 70 66 00         .....opf.
04A0: 80 1E 21 03 01 1E 21 03  01 74 6C 63 30 2B 1E 21  ..!...!..tlc0+.!
04B0: 03 01 1F 80 23 66 00 80  1E 21 03 01 1E 21 03 01  ....#f...!...!..
04C0: 74 6C 63 31 53 1E 21 03  01 1E 21 03 01 74 6C 63  tlc1S.!...!..tlc
04D0: 30 21 00                                          0!.             
```

## Opcodes

```
  0: 0x0497 [0x1E] EventEntity looks at LocalPlayer and starts talking
  1: 0x049C [0x6F] WAIT_FRAME_DELAY: Yield until WaitTime reaches zero
  2: 0x049D [0x70] WAIT_ENTITY_RENDER_FLAG: Wait while EventEntity->Render.Flags3 bit 2 is set (cancel turn if not)
  3: 0x049E [0x66] LOAD_EXT_SCHEDULER_MAIN: Load scheduler "tlc0" with entities [Lathuya (ID: 16982302/0x0103211E), Lathuya (ID: 16982302/0x0103211E)], work=32*
  4: 0x04AD [0x2B] Lathuya (ID: 16982302/0x0103211E) [8986*]:
    → "The completion of your order will take some time...\u0007Would you mind returning to our store a little later?\u0007A thousand pardons...\u007F1\u0000\u0007"
  5: 0x04B4 [0x23] WAIT_FOR_DIALOG_INTERACTION
  6: 0x04B5 [0x66] LOAD_EXT_SCHEDULER_MAIN: Load scheduler "tlc1" with entities [Lathuya (ID: 16982302/0x0103211E), Lathuya (ID: 16982302/0x0103211E)], work=32*
  7: 0x04C4 [0x53] WAIT_SCHEDULER_TASK: Wait for scheduler "tlc0" with entities [Lathuya (ID: 16982302/0x0103211E), Lathuya (ID: 16982302/0x0103211E)]
  8: 0x04D1 [0x21] END_EVENT
  9: 0x04D2 [0x00] END_REQSTACK()
```
