# Event 743

## Metadata

| Field           | Value    |
|-----------------|----------|
| Event Index     | 21/36    |
| Offset          | 0x085C   |
| Data Size       | 60 bytes |
| Calculated Size | 60 bytes |
| Instructions    | 10       |

```
      00 01 02 03 04 05 06 07  08 09 0A 0B 0C 0D 0E 0F
      -- -- -- -- -- -- -- --  -- -- -- -- -- -- -- --
0850:                                      1E F0 FF FF              ....
0860: 7F 6F 70 66 00 80 1E 21  03 01 1E 21 03 01 74 6C  .opf...!...!..tl
0870: 63 30 2B 1E 21 03 01 1F  80 23 66 00 80 1E 21 03  c0+.!....#f...!.
0880: 01 1E 21 03 01 74 6C 63  31 53 1E 21 03 01 1E 21  ..!..tlc1S.!...!
0890: 03 01 74 6C 63 30 21 00                           ..tlc0!.        
```

## Opcodes

```
  0: 0x085C [0x1E] EventEntity looks at LocalPlayer and starts talking
  1: 0x0861 [0x6F] WAIT_FRAME_DELAY: Yield until WaitTime reaches zero
  2: 0x0862 [0x70] WAIT_ENTITY_RENDER_FLAG: Wait while EventEntity->Render.Flags3 bit 2 is set (cancel turn if not)
  3: 0x0863 [0x66] LOAD_EXT_SCHEDULER_MAIN(work_offset=32*, entity1=Lathuya (ID: 16982302/0x0103211E), entity2=Lathuya (ID: 16982302/0x0103211E), action="tlc0")
  4: 0x0872 [0x2B] Lathuya (ID: 16982302/0x0103211E) [8986*]:
    → "The completion of your order will take some time...\u0007Would you mind returning to our store a little later?\u0007A thousand pardons...\u007F1\u0000\u0007"
  5: 0x0879 [0x23] WAIT_FOR_DIALOG_INTERACTION
  6: 0x087A [0x66] LOAD_EXT_SCHEDULER_MAIN(work_offset=32*, entity1=Lathuya (ID: 16982302/0x0103211E), entity2=Lathuya (ID: 16982302/0x0103211E), action="tlc1")
  7: 0x0889 [0x53] WAIT_SCHEDULER_TASK(entity1=Lathuya (ID: 16982302/0x0103211E), entity2=Lathuya (ID: 16982302/0x0103211E), action_id="tlc0")
  8: 0x0896 [0x21] END_EVENT
  9: 0x0897 [0x00] END_REQSTACK()
```
