# Event 753

## Metadata

| Field           | Value    |
|-----------------|----------|
| Event Index     | 31/36    |
| Offset          | 0x0C5E   |
| Data Size       | 60 bytes |
| Calculated Size | 60 bytes |
| Instructions    | 10       |

```
      00 01 02 03 04 05 06 07  08 09 0A 0B 0C 0D 0E 0F
      -- -- -- -- -- -- -- --  -- -- -- -- -- -- -- --
0C50:                                            1E F0                ..
0C60: FF FF 7F 6F 70 66 08 80  1E 21 03 01 1E 21 03 01  ...opf...!...!..
0C70: 74 68 6B 31 2B 1E 21 03  01 21 80 23 66 08 80 1E  thk1+.!..!.#f...
0C80: 21 03 01 1E 21 03 01 74  68 6B 32 53 1E 21 03 01  !...!..thk2S.!..
0C90: 1E 21 03 01 74 68 6B 32  21 00                    .!..thk2!.      
```

## Opcodes

```
  0: 0x0C5E [0x1E] EventEntity looks at LocalPlayer and starts talking
  1: 0x0C63 [0x6F] WAIT_FRAME_DELAY: Yield until WaitTime reaches zero
  2: 0x0C64 [0x70] WAIT_ENTITY_RENDER_FLAG: Wait while EventEntity->Render.Flags3 bit 2 is set (cancel turn if not)
  3: 0x0C65 [0x66] LOAD_EXT_SCHEDULER_MAIN: Load scheduler "thk1" with entities [Lathuya (ID: 16982302/0x0103211E), Lathuya (ID: 16982302/0x0103211E)], work=30*
  4: 0x0C74 [0x2B] Lathuya (ID: 16982302/0x0103211E) [9024*]:
    → "I honestly have no idea what the boss was talking about.\u0007I still have a long way to go...\u007F1\u0000\u0007"
  5: 0x0C7B [0x23] WAIT_FOR_DIALOG_INTERACTION
  6: 0x0C7C [0x66] LOAD_EXT_SCHEDULER_MAIN: Load scheduler "thk2" with entities [Lathuya (ID: 16982302/0x0103211E), Lathuya (ID: 16982302/0x0103211E)], work=30*
  7: 0x0C8B [0x53] WAIT_SCHEDULER_TASK: Wait for scheduler "thk2" with entities [Lathuya (ID: 16982302/0x0103211E), Lathuya (ID: 16982302/0x0103211E)]
  8: 0x0C98 [0x21] END_EVENT
  9: 0x0C99 [0x00] END_REQSTACK()
```
