# Event 17

## Metadata

| Field           | Value    |
|-----------------|----------|
| Event Index     | 3/3      |
| Offset          | 0x0032   |
| Data Size       | 49 bytes |
| Calculated Size | 49 bytes |
| Instructions    | 14       |

```
      00 01 02 03 04 05 06 07  08 09 0A 0B 0C 0D 0E 0F
      -- -- -- -- -- -- -- --  -- -- -- -- -- -- -- --
0030:       48 05 80 23 24 06  80 02 80 02 80 25 02 00    H..#$......%..
0040: 10 02 80 00 4F 00 42 03  01 10 03 80 01 5F 00 02  ....O.B......_..
0050: 00 10 03 80 00 5F 00 03  01 10 04 80 01 5F 00 20  ....._......._. 
0060: 00 21 00                                          .!.             
```

## Opcodes

```
  0: 0x0032 [0x48] [System] [7673*]:
    → "This is the most blessed spot on the tree.\u007F1\u0000\u0007"
  1: 0x0035 [0x23] WAIT_FOR_DIALOG_INTERACTION
  2: 0x0036 [0x24] CREATE_DIALOG(message_id=7674*, default_option=0*, option_flags=0*)
    → "Cut off a piece of wood?\u0007\u000BYes.\u0007No.\u007F1\u0000\u0007"
  3: 0x003D [0x25] WAIT_DIALOG_SELECT()
  4: 0x003E [0x02] IF !(Work_Zone[0] == 0*) GOTO 0x004F
  5: 0x0046 [0x42] SET_CLI_EVENT_CANCEL_DATA()
  6: 0x0047 [0x03] Work_Zone[1] = 1*
  7: 0x004C [0x01] GOTO 0x005F

SUBROUTINE_004F:
  8: 0x004F [0x02] IF !(Work_Zone[0] == 1*) GOTO 0x005F
  9: 0x0057 [0x03] Work_Zone[1] = 2*
 10: 0x005C [0x01] GOTO 0x005F

SUBROUTINE_005F:
 11: 0x005F [0x20] SET_CLI_EVENT_UC_FLAG: Unlock player control
 12: 0x0061 [0x21] END_EVENT
 13: 0x0062 [0x00] END_REQSTACK()
```
