# Event 65535

## Metadata

| Field           | Value    |
|-----------------|----------|
| Event Index     | 43/48    |
| Offset          | 0x0891   |
| Data Size       | 53 bytes |
| Calculated Size | 53 bytes |
| Instructions    | 13       |

```
      00 01 02 03 04 05 06 07  08 09 0A 0B 0C 0D 0E 0F
      -- -- -- -- -- -- -- --  -- -- -- -- -- -- -- --
0890:    32 33 80 5A 00 52 80  53 80 54 80 5A 01 5A 00   23.Z.R.S.T.Z.Z.
08A0: 55 80 56 80 57 80 5A 01  1F 00 58 80 59 80 5A 80  U.V.W.Z...X.Y.Z.
08B0: 1F 01 32 5B 80 1F 00 5C  80 5D 80 5E 80 1F 01 6F  ..2[...\.].^...o
08C0: 1E 45 13 06 01 00                                 .E....          
```

## Opcodes

```
  0: 0x0891 [0x32] ExtData[1]->MainSpeed = 40* * 0.1
  1: 0x0894 [0x5A] UPDATE_EVENT_POSITION: Set EventEntity MovePosition to X=-95.547*, Z=55.615*, Y=-63.019*
  2: 0x089C [0x5A] UPDATE_EVENT_POSITION: Move EventEntity incrementally towards MovePosition
  3: 0x089E [0x5A] UPDATE_EVENT_POSITION: Set EventEntity MovePosition to X=-87.876*, Z=46.882*, Y=-61.338*
  4: 0x08A6 [0x5A] UPDATE_EVENT_POSITION: Move EventEntity incrementally towards MovePosition
  5: 0x08A8 [0x1F] MOVE_ENTITY: EventEntity moves to X=-85.050*, Z=44.223*, Y=-60.704*
  6: 0x08B0 [0x1F] MOVE_ENTITY: Update entity position (mode=1)
  7: 0x08B2 [0x32] ExtData[1]->MainSpeed = 14* * 0.1
  8: 0x08B5 [0x1F] MOVE_ENTITY: EventEntity moves to X=-81.893*, Z=42.042*, Y=-60.573*
  9: 0x08BD [0x1F] MOVE_ENTITY: Update entity position (mode=1)
 10: 0x08BF [0x6F] WAIT_FRAME_DELAY: Yield until WaitTime reaches zero
 11: 0x08C0 [0x1E] EventEntity looks at Syu Befrathi (ID: 17175365/0x01061345) and starts talking
 12: 0x08C5 [0x00] END_REQSTACK()
```
