# Event 65535

## Metadata

| Field           | Value    |
|-----------------|----------|
| Event Index     | 82/87    |
| Offset          | 0x057C   |
| Data Size       | 39 bytes |
| Calculated Size | 39 bytes |
| Instructions    | 7        |

```
      00 01 02 03 04 05 06 07  08 09 0A 0B 0C 0D 0E 0F
      -- -- -- -- -- -- -- --  -- -- -- -- -- -- -- --
0570:                                      5B 03 80 F8              [...
0580: FF FF 7F F8 FF FF 7F 6F  6B 69 72 53 F8 FF FF 7F  .......okirS....
0590: F8 FF FF 7F 6F 6B 69 72  1C 01 80 1E B0 30 0F 01  ....okir.....0..
05A0: 6F 70 00                                          op.             
```

## Opcodes

```
  0: 0x057C [0x5B] LOAD_EXT_SCHEDULER: Load scheduler "okir" with entities [EventEntity, EventEntity], work=430*
  1: 0x058B [0x53] WAIT_SCHEDULER_TASK: Wait for scheduler "okir" with entities [EventEntity, EventEntity]
  2: 0x0598 [0x1C] WAIT(30* ticks)
  3: 0x059B [0x1E] EventEntity looks at Taillegeas (ID: 17772720/0x010F30B0) and starts talking
  4: 0x05A0 [0x6F] WAIT_FRAME_DELAY: Yield until WaitTime reaches zero
  5: 0x05A1 [0x70] WAIT_ENTITY_RENDER_FLAG: Wait while EventEntity->Render.Flags3 bit 2 is set (cancel turn if not)
  6: 0x05A2 [0x00] END_REQSTACK()
```
