# Event 65535

## Metadata

| Field           | Value    |
|-----------------|----------|
| Event Index     | 83/87    |
| Offset          | 0x05A3   |
| Data Size       | 50 bytes |
| Calculated Size | 50 bytes |
| Instructions    | 12       |

```
      00 01 02 03 04 05 06 07  08 09 0A 0B 0C 0D 0E 0F
      -- -- -- -- -- -- -- --  -- -- -- -- -- -- -- --
05A0:          32 14 80 1F 00  1E 80 1F 80 20 80 1F 01     2........ ...
05B0: 1F 00 21 80 22 80 20 80  1F 01 1F 00 23 80 24 80  ..!.". .....#.$.
05C0: 1B 80 1F 01 4B F8 FF FF  7F 25 80 6F 76 F8 FF FF  ....K....%.ov...
05D0: 7F 1C 01 80 00                                    .....           
```

## Opcodes

```
  0: 0x05A3 [0x32] ExtData[1]->MainSpeed = 40* * 0.1
  1: 0x05A6 [0x1F] MOVE_ENTITY: EventEntity moves to X=30.442*, Z=61.864*, Y=1.991*
  2: 0x05AE [0x1F] MOVE_ENTITY: Update entity position (mode=1)
  3: 0x05B0 [0x1F] MOVE_ENTITY: EventEntity moves to X=34.638*, Z=61.980*, Y=1.991*
  4: 0x05B8 [0x1F] MOVE_ENTITY: Update entity position (mode=1)
  5: 0x05BA [0x1F] MOVE_ENTITY: EventEntity moves to X=35.022*, Z=60.542*, Y=1.995*
  6: 0x05C2 [0x1F] MOVE_ENTITY: Update entity position (mode=1)
  7: 0x05C4 [0x4B] UPDATE_ENTITY_YAW(entity=EventEntity, yaw=11.2°*)
  8: 0x05CB [0x6F] WAIT_FRAME_DELAY: Yield until WaitTime reaches zero
  9: 0x05CC [0x76] CHECK_ENTITY_RENDER_FLAGS: Wait until EventEntity Render.Flags0 and Render.Flags3 conditions are met
 10: 0x05D1 [0x1C] WAIT(30* ticks)
 11: 0x05D4 [0x00] END_REQSTACK()
```
