# Event 65535

## Metadata

| Field           | Value    |
|-----------------|----------|
| Event Index     | 81/87    |
| Offset          | 0x0537   |
| Data Size       | 69 bytes |
| Calculated Size | 69 bytes |
| Instructions    | 9        |

```
      00 01 02 03 04 05 06 07  08 09 0A 0B 0C 0D 0E 0F
      -- -- -- -- -- -- -- --  -- -- -- -- -- -- -- --
0530:                      32  14 80 1F 00 1C 80 1D 80         2........
0540: 1B 80 1F 01 1C 01 80 2C  F8 FF FF 7F F8 FF FF 7F  .......,........
0550: 64 65 61 64 53 F8 FF FF  7F F8 FF FF 7F 64 65 61  deadS........dea
0560: 64 2C F8 FF FF 7F F8 FF  FF 7F 63 6F 72 70 53 F8  d,........corpS.
0570: FF FF 7F F8 FF FF 7F 63  6F 72 70 00              .......corp.    
```

## Opcodes

```
  0: 0x0537 [0x32] ExtData[1]->MainSpeed = 40* * 0.1
  1: 0x053A [0x1F] MOVE_ENTITY: EventEntity moves to X=27.158*, Z=64.014*, Y=1.995*
  2: 0x0542 [0x1F] MOVE_ENTITY: Update entity position (mode=1)
  3: 0x0544 [0x1C] WAIT(30* ticks)
  4: 0x0547 [0x2C] CREATE_SCHEDULER_TASK: Create scheduler "dead" with entities [EventEntity, EventEntity]
  5: 0x0554 [0x53] WAIT_SCHEDULER_TASK: Wait for scheduler "dead" with entities [EventEntity, EventEntity]
  6: 0x0561 [0x2C] CREATE_SCHEDULER_TASK: Create scheduler "corp" with entities [EventEntity, EventEntity]
  7: 0x056E [0x53] WAIT_SCHEDULER_TASK: Wait for scheduler "corp" with entities [EventEntity, EventEntity]
  8: 0x057B [0x00] END_REQSTACK()
```
