# Event 65535

## Metadata

| Field           | Value    |
|-----------------|----------|
| Event Index     | 20/20    |
| Offset          | 0x01A4   |
| Data Size       | 58 bytes |
| Calculated Size | 58 bytes |
| Instructions    | 10       |

```
      00 01 02 03 04 05 06 07  08 09 0A 0B 0C 0D 0E 0F
      -- -- -- -- -- -- -- --  -- -- -- -- -- -- -- --
01A0:             66 09 80 F8  FF FF 7F F8 FF FF 7F 61      f..........a
01B0: 6B 62 30 53 F8 FF FF 7F  F8 FF FF 7F 61 6B 62 30  kb0S........akb0
01C0: 1C 08 80 32 04 80 1F 00  10 80 11 80 02 80 1F 01  ...2............
01D0: 6F 4B F8 FF FF 7F 0B 80  7B F8 FF FF 7F 00        oK......{.....  
```

## Opcodes

```
  0: 0x01A4 [0x66] LOAD_EXT_SCHEDULER_MAIN(work_offset=5*, entity1=EventEntity, entity2=EventEntity, action="akb0")
  1: 0x01B3 [0x53] WAIT_SCHEDULER_TASK(entity1=EventEntity, entity2=EventEntity, action_id="akb0")
  2: 0x01C0 [0x1C] WAIT(60* ticks)
  3: 0x01C3 [0x32] ExtData[1]->MainSpeed = 13* * 0.1
  4: 0x01C6 [0x1F] MOVE_ENTITY: EventEntity moves to X=-147.198*, Z=-3.121*, Y=1.800*
  5: 0x01CE [0x1F] MOVE_ENTITY: Update entity position (mode=1)
  6: 0x01D0 [0x6F] WAIT_FRAME_DELAY: Yield until WaitTime reaches zero
  7: 0x01D1 [0x4B] UPDATE_ENTITY_YAW(entity=EventEntity, yaw=0.00°*)
  8: 0x01D8 [0x7B] EventEntity stops talking
  9: 0x01DD [0x00] END_REQSTACK()
```
