# Event 65535

## Metadata

| Field           | Value    |
|-----------------|----------|
| Event Index     | 13/20    |
| Offset          | 0x010F   |
| Data Size       | 61 bytes |
| Calculated Size | 61 bytes |
| Instructions    | 11       |

```
      00 01 02 03 04 05 06 07  08 09 0A 0B 0C 0D 0E 0F
      -- -- -- -- -- -- -- --  -- -- -- -- -- -- -- --
0100:                                               1C                 .
0110: 08 80 66 09 80 F8 FF FF  7F F8 FF FF 7F 61 6B 62  ..f..........akb
0120: 30 53 F8 FF FF 7F F8 FF  FF 7F 61 6B 62 30 1C 0C  0S........akb0..
0130: 80 32 0F 80 1F 00 10 80  11 80 02 80 1F 01 6F 4B  .2............oK
0140: F8 FF FF 7F 0B 80 7B F8  FF FF 7F 00              ......{.....    
```

## Opcodes

```
  0: 0x010F [0x1C] WAIT(60* ticks)
  1: 0x0112 [0x66] LOAD_EXT_SCHEDULER_MAIN: Load scheduler "akb0" with entities [EventEntity, EventEntity], work=5*
  2: 0x0121 [0x53] WAIT_SCHEDULER_TASK: Wait for scheduler "akb0" with entities [EventEntity, EventEntity]
  3: 0x012E [0x1C] WAIT(120* ticks)
  4: 0x0131 [0x32] ExtData[1]->MainSpeed = 16* * 0.1
  5: 0x0134 [0x1F] MOVE_ENTITY: EventEntity moves to X=-147.198*, Z=-3.121*, Y=1.800*
  6: 0x013C [0x1F] MOVE_ENTITY: Update entity position (mode=1)
  7: 0x013E [0x6F] WAIT_FRAME_DELAY: Yield until WaitTime reaches zero
  8: 0x013F [0x4B] UPDATE_ENTITY_YAW(entity=EventEntity, yaw=0.00°*)
  9: 0x0146 [0x7B] EventEntity stops talking
 10: 0x014B [0x00] END_REQSTACK()
```
