# Event 72

## Metadata

| Field           | Value    |
|-----------------|----------|
| Event Index     | 5/10     |
| Offset          | 0x09AA   |
| Data Size       | 70 bytes |
| Calculated Size | 70 bytes |
| Instructions    | 10       |

```
      00 01 02 03 04 05 06 07  08 09 0A 0B 0C 0D 0E 0F
      -- -- -- -- -- -- -- --  -- -- -- -- -- -- -- --
09A0:                                1E F0 FF FF 7F 1C            ......
09B0: 00 80 5B 04 80 F8 FF FF  7F F8 FF FF 7F 74 6C 6B  ..[..........tlk
09C0: 30 1D 4D 80 23 53 F8 FF  FF 7F F8 FF FF 7F 74 6C  0.M.#S........tl
09D0: 6B 30 5B 04 80 F8 FF FF  7F F8 FF FF 7F 74 6C 6B  k0[..........tlk
09E0: 65 53 F8 FF FF 7F F8 FF  FF 7F 74 6C 6B 65 21 00  eS........tlke!.
```

## Opcodes

```
  0: 0x09AA [0x1E] EventEntity looks at LocalPlayer and starts talking
  1: 0x09AF [0x1C] WAIT(1* ticks)
  2: 0x09B2 [0x5B] LOAD_EXT_SCHEDULER: Load scheduler "tlk0" with entities [EventEntity, EventEntity], work=215*
  3: 0x09C1 [0x1D] PRINT_EVENT_MESSAGE(message_id=8043*)
    → "Hm?\u0007Oh, hello.\u0007And...goodbye.\u007F1\u0000\u0007"
  4: 0x09C4 [0x23] WAIT_FOR_DIALOG_INTERACTION
  5: 0x09C5 [0x53] WAIT_SCHEDULER_TASK: Wait for scheduler "tlk0" with entities [EventEntity, EventEntity]
  6: 0x09D2 [0x5B] LOAD_EXT_SCHEDULER: Load scheduler "tlke" with entities [EventEntity, EventEntity], work=215*
  7: 0x09E1 [0x53] WAIT_SCHEDULER_TASK: Wait for scheduler "tlke" with entities [EventEntity, EventEntity]
  8: 0x09EE [0x21] END_EVENT
  9: 0x09EF [0x00] END_REQSTACK()
```
