# Event 73

## Metadata

| Field           | Value    |
|-----------------|----------|
| Event Index     | 6/10     |
| Offset          | 0x09F0   |
| Data Size       | 70 bytes |
| Calculated Size | 70 bytes |
| Instructions    | 10       |

```
      00 01 02 03 04 05 06 07  08 09 0A 0B 0C 0D 0E 0F
      -- -- -- -- -- -- -- --  -- -- -- -- -- -- -- --
09F0: 1E F0 FF FF 7F 1C 00 80  5B 04 80 F8 FF FF 7F F8  ........[.......
0A00: FF FF 7F 74 6C 6B 31 1D  42 80 23 53 F8 FF FF 7F  ...tlk1.B.#S....
0A10: F8 FF FF 7F 74 6C 6B 31  5B 04 80 F8 FF FF 7F F8  ....tlk1[.......
0A20: FF FF 7F 74 6C 6B 65 53  F8 FF FF 7F F8 FF FF 7F  ...tlkeS........
0A30: 74 6C 6B 65 21 00                                 tlke!.          
```

## Opcodes

```
  0: 0x09F0 [0x1E] EventEntity looks at LocalPlayer and starts talking
  1: 0x09F5 [0x1C] WAIT(1* ticks)
  2: 0x09F8 [0x5B] LOAD_EXT_SCHEDULER: Load scheduler "tlk1" with entities [EventEntity, EventEntity], work=215*
  3: 0x0A07 [0x1D] PRINT_EVENT_MESSAGE(message_id=8067*)
    → "Need a refresher? The diaphanous transposer is in Kamihr Drifts (F-6).\u007F1\u0000\u0007"
  4: 0x0A0A [0x23] WAIT_FOR_DIALOG_INTERACTION
  5: 0x0A0B [0x53] WAIT_SCHEDULER_TASK: Wait for scheduler "tlk1" with entities [EventEntity, EventEntity]
  6: 0x0A18 [0x5B] LOAD_EXT_SCHEDULER: Load scheduler "tlke" with entities [EventEntity, EventEntity], work=215*
  7: 0x0A27 [0x53] WAIT_SCHEDULER_TASK: Wait for scheduler "tlke" with entities [EventEntity, EventEntity]
  8: 0x0A34 [0x21] END_EVENT
  9: 0x0A35 [0x00] END_REQSTACK()
```
