# Event 74

## Metadata

| Field           | Value    |
|-----------------|----------|
| Event Index     | 7/10     |
| Offset          | 0x0A36   |
| Data Size       | 70 bytes |
| Calculated Size | 70 bytes |
| Instructions    | 10       |

```
      00 01 02 03 04 05 06 07  08 09 0A 0B 0C 0D 0E 0F
      -- -- -- -- -- -- -- --  -- -- -- -- -- -- -- --
0A30:                   1E F0  FF FF 7F 1C 00 80 5B 04        ........[.
0A40: 80 F8 FF FF 7F F8 FF FF  7F 74 6C 6B 31 1D 4E 80  .........tlk1.N.
0A50: 23 53 F8 FF FF 7F F8 FF  FF 7F 74 6C 6B 31 5B 04  #S........tlk1[.
0A60: 80 F8 FF FF 7F F8 FF FF  7F 74 6C 6B 65 53 F8 FF  .........tlkeS..
0A70: FF 7F F8 FF FF 7F 74 6C  6B 65 21 00              ......tlke!.    
```

## Opcodes

```
  0: 0x0A36 [0x1E] EventEntity looks at LocalPlayer and starts talking
  1: 0x0A3B [0x1C] WAIT(1* ticks)
  2: 0x0A3E [0x5B] LOAD_EXT_SCHEDULER(work_offset=215*, entity1=EventEntity, entity2=EventEntity, action="tlk1")
  3: 0x0A4D [0x1D] PRINT_EVENT_MESSAGE(message_id=8084*)
    → "It'll take a little while to reforge your \u0001\u0005#\u0002\u0000\u0000\u0000. Jeuno wasn't built in a day...but this armor will be, so come back tomorrow.\u007F1\u0000\u0007"
  4: 0x0A50 [0x23] WAIT_FOR_DIALOG_INTERACTION
  5: 0x0A51 [0x53] WAIT_SCHEDULER_TASK(entity1=EventEntity, entity2=EventEntity, action_id="tlk1")
  6: 0x0A5E [0x5B] LOAD_EXT_SCHEDULER(work_offset=215*, entity1=EventEntity, entity2=EventEntity, action="tlke")
  7: 0x0A6D [0x53] WAIT_SCHEDULER_TASK(entity1=EventEntity, entity2=EventEntity, action_id="tlke")
  8: 0x0A7A [0x21] END_EVENT
  9: 0x0A7B [0x00] END_REQSTACK()
```
