# Event 75

## Metadata

| Field           | Value    |
|-----------------|----------|
| Event Index     | 8/10     |
| Offset          | 0x0A7C   |
| Data Size       | 70 bytes |
| Calculated Size | 70 bytes |
| Instructions    | 10       |

```
      00 01 02 03 04 05 06 07  08 09 0A 0B 0C 0D 0E 0F
      -- -- -- -- -- -- -- --  -- -- -- -- -- -- -- --
0A70:                                      1E F0 FF FF              ....
0A80: 7F 1C 00 80 5B 04 80 F8  FF FF 7F F8 FF FF 7F 74  ....[..........t
0A90: 6C 6B 31 1D 4F 80 23 53  F8 FF FF 7F F8 FF FF 7F  lk1.O.#S........
0AA0: 74 6C 6B 31 5B 04 80 F8  FF FF 7F F8 FF FF 7F 74  tlk1[..........t
0AB0: 6C 6B 65 53 F8 FF FF 7F  F8 FF FF 7F 74 6C 6B 65  lkeS........tlke
0AC0: 21 00                                             !.              
```

## Opcodes

```
  0: 0x0A7C [0x1E] EventEntity looks at LocalPlayer and starts talking
  1: 0x0A81 [0x1C] WAIT(1* ticks)
  2: 0x0A84 [0x5B] LOAD_EXT_SCHEDULER(work_offset=215*, entity1=EventEntity, entity2=EventEntity, action="tlk1")
  3: 0x0A93 [0x1D] PRINT_EVENT_MESSAGE(message_id=8086*)
    → "The equipment you ordered is ready! Here you are!\u007F1\u0000\u0007"
  4: 0x0A96 [0x23] WAIT_FOR_DIALOG_INTERACTION
  5: 0x0A97 [0x53] WAIT_SCHEDULER_TASK(entity1=EventEntity, entity2=EventEntity, action_id="tlk1")
  6: 0x0AA4 [0x5B] LOAD_EXT_SCHEDULER(work_offset=215*, entity1=EventEntity, entity2=EventEntity, action="tlke")
  7: 0x0AB3 [0x53] WAIT_SCHEDULER_TASK(entity1=EventEntity, entity2=EventEntity, action_id="tlke")
  8: 0x0AC0 [0x21] END_EVENT
  9: 0x0AC1 [0x00] END_REQSTACK()
```
