# Event 76

## Metadata

| Field           | Value    |
|-----------------|----------|
| Event Index     | 9/10     |
| Offset          | 0x0AC2   |
| Data Size       | 70 bytes |
| Calculated Size | 70 bytes |
| Instructions    | 10       |

```
      00 01 02 03 04 05 06 07  08 09 0A 0B 0C 0D 0E 0F
      -- -- -- -- -- -- -- --  -- -- -- -- -- -- -- --
0AC0:       1E F0 FF FF 7F 1C  00 80 5B 04 80 F8 FF FF    ........[.....
0AD0: 7F F8 FF FF 7F 74 6C 6B  31 1D 50 80 23 53 F8 FF  .....tlk1.P.#S..
0AE0: FF 7F F8 FF FF 7F 74 6C  6B 31 5B 04 80 F8 FF FF  ......tlk1[.....
0AF0: 7F F8 FF FF 7F 74 6C 6B  65 53 F8 FF FF 7F F8 FF  .....tlkeS......
0B00: FF 7F 74 6C 6B 65 21 00                           ..tlke!.        
```

## Opcodes

```
  0: 0x0AC2 [0x1E] EventEntity looks at LocalPlayer and starts talking
  1: 0x0AC7 [0x1C] WAIT(1* ticks)
  2: 0x0ACA [0x5B] LOAD_EXT_SCHEDULER: Load scheduler "tlk1" with entities [EventEntity, EventEntity], work=215*
  3: 0x0AD9 [0x1D] PRINT_EVENT_MESSAGE(message_id=8085*)
    → "My contact is hard at work. You'll need to come back a little bit later.\u007F1\u0000\u0007"
  4: 0x0ADC [0x23] WAIT_FOR_DIALOG_INTERACTION
  5: 0x0ADD [0x53] WAIT_SCHEDULER_TASK: Wait for scheduler "tlk1" with entities [EventEntity, EventEntity]
  6: 0x0AEA [0x5B] LOAD_EXT_SCHEDULER: Load scheduler "tlke" with entities [EventEntity, EventEntity], work=215*
  7: 0x0AF9 [0x53] WAIT_SCHEDULER_TASK: Wait for scheduler "tlke" with entities [EventEntity, EventEntity]
  8: 0x0B06 [0x21] END_EVENT
  9: 0x0B07 [0x00] END_REQSTACK()
```
