# Event 65535

## Metadata

| Field           | Value    |
|-----------------|----------|
| Event Index     | 4/9      |
| Offset          | 0x0038   |
| Data Size       | 67 bytes |
| Calculated Size | 67 bytes |
| Instructions    | 11       |

```
      00 01 02 03 04 05 06 07  08 09 0A 0B 0C 0D 0E 0F
      -- -- -- -- -- -- -- --  -- -- -- -- -- -- -- --
0030:                          1F 00 08 80 09 80 03 80          ........
0040: 1F 01 4A F0 FF FF 7F 06  40 0F 01 4A 01 40 0F 01  ..J.....@..J.@..
0050: 06 40 0F 01 1F 00 0A 80  0B 80 03 80 1F 01 6F 4A  .@............oJ
0060: F0 FF FF 7F 06 40 0F 01  4A 01 40 0F 01 06 40 0F  .....@..J.@...@.
0070: 01 4A 06 40 0F 01 05 40  0F 01 00                 .J.@...@...     
```

## Opcodes

```
  0: 0x0038 [0x1F] MOVE_ENTITY: EventEntity moves to X=-60.334*, Z=-6.720*, Y=-0.500*
  1: 0x0040 [0x1F] MOVE_ENTITY: Update entity position (mode=1)
  2: 0x0042 [0x4A] LocalPlayer looks at Panta-Putta (ID: 17776646/0x010F4006)
  3: 0x004B [0x4A] Monberaux (ID: 17776641/0x010F4001) looks at Panta-Putta (ID: 17776646/0x010F4006)
  4: 0x0054 [0x1F] MOVE_ENTITY: EventEntity moves to X=-61.109*, Z=-6.870*, Y=-0.500*
  5: 0x005C [0x1F] MOVE_ENTITY: Update entity position (mode=1)
  6: 0x005E [0x6F] WAIT_FRAME_DELAY: Yield until WaitTime reaches zero
  7: 0x005F [0x4A] LocalPlayer looks at Panta-Putta (ID: 17776646/0x010F4006)
  8: 0x0068 [0x4A] Monberaux (ID: 17776641/0x010F4001) looks at Panta-Putta (ID: 17776646/0x010F4006)
  9: 0x0071 [0x4A] Panta-Putta (ID: 17776646/0x010F4006) looks at Two of Swords (ID: 17776645/0x010F4005)
 10: 0x007A [0x00] END_REQSTACK()
```
