# Event 20

## Metadata

| Field           | Value     |
|-----------------|-----------|
| Event Index     | 34/60     |
| Offset          | 0x0530    |
| Data Size       | 158 bytes |
| Calculated Size | 158 bytes |
| Instructions    | 4         |

```
      00 01 02 03 04 05 06 07  08 09 0A 0B 0C 0D 0E 0F
      -- -- -- -- -- -- -- --  -- -- -- -- -- -- -- --
0530: 42 29 01 F0 FF FF 7F 02  21 00 03 02 00 01 00 02  B)......!.......
0540: 02 00 3D 80 05 4F 05 08  02 00 00 80 01 54 05 08  ..=..O.......T..
0550: 02 00 05 80 14 02 00 3E  80 07 02 00 3F 80 1B 03  .......>....?...
0560: 02 00 01 00 02 02 00 3D  80 05 74 05 08 02 00 00  .......=..t.....
0570: 80 01 79 05 08 02 00 05  80 14 02 00 3E 80 07 02  ..y.........>...
0580: 00 40 80 1B 03 02 00 01  00 02 02 00 3D 80 05 99  .@..........=...
0590: 05 08 02 00 00 80 01 9E  05 08 02 00 05 80 14 02  ................
05A0: 00 3E 80 07 02 00 02 80  1B 03 02 00 01 00 02 02  .>..............
05B0: 00 3D 80 05 BE 05 08 02  00 00 80 01 C3 05 08 02  .=..............
05C0: 00 05 80 14 02 00 3E 80  07 02 00 41 80 1B        ......>....A..  
```

## Opcodes

```
  0: 0x0530 [0x42] SET_CLI_EVENT_CANCEL_DATA()
  1: 0x0531 [0x29] REQ_SET_WAIT(priority=0x01, entity_id=LocalPlayer, tag_num=0x02)
  2: 0x0538 [0x21] END_EVENT
  3: 0x0539 [0x00] END_REQSTACK()
```

## Data or dead code:

```
# Dead code (unreachable instructions):
     0x053A [0x03] ExtData[1]->WorkLocal[2] = ExtData[1]->WorkLocal[1]
     0x053F [0x02] IF !(ExtData[1]->WorkLocal[2] > 5*) GOTO 0x054F
     0x0547 [0x08] ExtData[1]->WorkLocal[2] -= 1*
     0x054C [0x01] GOTO 0x0554
     0x054F [0x08] ExtData[1]->WorkLocal[2] -= 2*
     0x0554 [0x14] ExtData[1]->WorkLocal[2] *= 10*
     0x0559 [0x07] ExtData[1]->WorkLocal[2] += 9*
     0x055E [0x1B] RETURN
     0x055F [0x03] ExtData[1]->WorkLocal[2] = ExtData[1]->WorkLocal[1]
     0x0564 [0x02] IF !(ExtData[1]->WorkLocal[2] > 5*) GOTO 0x0574
     0x056C [0x08] ExtData[1]->WorkLocal[2] -= 1*
     0x0571 [0x01] GOTO 0x0579
     0x0574 [0x08] ExtData[1]->WorkLocal[2] -= 2*
     0x0579 [0x14] ExtData[1]->WorkLocal[2] *= 10*
     0x057E [0x07] ExtData[1]->WorkLocal[2] += 70*
     0x0583 [0x1B] RETURN
     0x0584 [0x03] ExtData[1]->WorkLocal[2] = ExtData[1]->WorkLocal[1]
     0x0589 [0x02] IF !(ExtData[1]->WorkLocal[2] > 5*) GOTO 0x0599
     0x0591 [0x08] ExtData[1]->WorkLocal[2] -= 1*
     0x0596 [0x01] GOTO 0x059E
     0x0599 [0x08] ExtData[1]->WorkLocal[2] -= 2*
     0x059E [0x14] ExtData[1]->WorkLocal[2] *= 10*
     0x05A3 [0x07] ExtData[1]->WorkLocal[2] += 140*
     0x05A8 [0x1B] RETURN
     0x05A9 [0x03] ExtData[1]->WorkLocal[2] = ExtData[1]->WorkLocal[1]
     0x05AE [0x02] IF !(ExtData[1]->WorkLocal[2] > 5*) GOTO 0x05BE
     0x05B6 [0x08] ExtData[1]->WorkLocal[2] -= 1*
     0x05BB [0x01] GOTO 0x05C3
     0x05BE [0x08] ExtData[1]->WorkLocal[2] -= 2*
     0x05C3 [0x14] ExtData[1]->WorkLocal[2] *= 10*
     0x05C8 [0x07] ExtData[1]->WorkLocal[2] += 210*
     0x05CD [0x1B] RETURN
```