# Event 20

## Metadata

| Field           | Value     |
|-----------------|-----------|
| Event Index     | 34/60     |
| Offset          | 0x0530    |
| Data Size       | 158 bytes |
| Calculated Size | 158 bytes |
| Instructions    | 5         |

```
      00 01 02 03 04 05 06 07  08 09 0A 0B 0C 0D 0E 0F
      -- -- -- -- -- -- -- --  -- -- -- -- -- -- -- --
0530: 42 29 01 F0 FF FF 7F 02  21 00 03 02 00 01 00 02  B)......!.......
0540: 02 00 3D 80 05 4F 05 08  02 00 00 80 01 54 05 08  ..=..O.......T..
0550: 02 00 05 80 14 02 00 3E  80 07 02 00 3F 80 1B 03  .......>....?...
0560: 02 00 01 00 02 02 00 3D  80 05 74 05 08 02 00 00  .......=..t.....
0570: 80 01 79 05 08 02 00 05  80 14 02 00 3E 80 07 02  ..y.........>...
0580: 00 40 80 1B 03 02 00 01  00 02 02 00 3D 80 05 99  .@..........=...
0590: 05 08 02 00 00 80 01 9E  05 08 02 00 05 80 14 02  ................
05A0: 00 3E 80 07 02 00 02 80  1B 03 02 00 01 00 02 02  .>..............
05B0: 00 3D 80 05 BE 05 08 02  00 00 80 01 C3 05 08 02  .=..............
05C0: 00 05 80 14 02 00 3E 80  07 02 00 41 80 1B        ......>....A..  
```

## Opcodes

```
  0: 0x0530 [0x42] SET_CLI_EVENT_CANCEL_DATA()
  1: 0x0531 [0x29] REQ_SET_WAIT(priority=0x01, entity_id=LocalPlayer, tag_num=0x02)
  2: 0x0538 [0x21] END_EVENT
  3: 0x0539 [0x00] END_REQSTACK()
```

## Data or dead code:

```
# Data Section: 0x053A (148 bytes)
     0x053A: 03 02 00 01 00 02 02 00 3D 80 05 4F 05 08 02 00
     0x054A: 00 80 01 54 05 08 02 00 05 80 14 02 00 3E 80 07
     0x055A: 02 00 3F 80 1B 03 02 00 01 00 02 02 00 3D 80 05
     0x056A: 74 05 08 02 00 00 80 01 79 05 08 02 00 05 80 14
     0x057A: 02 00 3E 80 07 02 00 40 80 1B 03 02 00 01 00 02
     0x058A: 02 00 3D 80 05 99 05 08 02 00 00 80 01 9E 05 08
     0x059A: 02 00 05 80 14 02 00 3E 80 07 02 00 02 80 1B 03
     0x05AA: 02 00 01 00 02 02 00 3D 80 05 BE 05 08 02 00 00
     0x05BA: 80 01 C3 05 08 02 00 05 80 14 02 00 3E 80 07 02
     0x05CA: 00 41 80 1B
```