# Event 65535

## Metadata

| Field           | Value    |
|-----------------|----------|
| Event Index     | 13/21    |
| Offset          | 0x0141   |
| Data Size       | 85 bytes |
| Calculated Size | 85 bytes |
| Instructions    | 9        |

```
      00 01 02 03 04 05 06 07  08 09 0A 0B 0C 0D 0E 0F
      -- -- -- -- -- -- -- --  -- -- -- -- -- -- -- --
0140:    5B 08 80 06 23 06 01  06 23 06 01 73 64 6F 6E   [...#...#..sdon
0150: 5B 07 80 00 23 06 01 00  23 06 01 72 62 74 6C 1C  [...#...#..rbtl.
0160: 00 80 5B 07 80 07 23 06  01 07 23 06 01 6E 79 61  ..[...#...#..nya
0170: 30 1C 03 80 5B 07 80 F8  22 06 01 F8 22 06 01 6E  0...[..."..."..n
0180: 79 61 30 1C 04 80 5B 07  80 F9 22 06 01 F9 22 06  ya0...[..."...".
0190: 01 73 74 64 61 00                                 .stda.          
```

## Opcodes

```
  0: 0x0141 [0x5B] LOAD_EXT_SCHEDULER(work_offset=1529*, entity1=01 (ID: 17179398/0x01062306), entity2=01 (ID: 17179398/0x01062306), action="sdon")
  1: 0x0150 [0x5B] LOAD_EXT_SCHEDULER(work_offset=1326*, entity1=Romaa Mihgo (ID: 17179392/0x01062300), entity2=Romaa Mihgo (ID: 17179392/0x01062300), action="rbtl")
  2: 0x015F [0x1C] WAIT(2* ticks)
  3: 0x0162 [0x5B] LOAD_EXT_SCHEDULER(work_offset=1326*, entity1=02 (ID: 17179399/0x01062307), entity2=02 (ID: 17179399/0x01062307), action="nya0")
  4: 0x0171 [0x1C] WAIT(3* ticks)
  5: 0x0174 [0x5B] LOAD_EXT_SCHEDULER(work_offset=1326*, entity1=Tihl Midurhi (ID: 17179384/0x010622F8), entity2=Tihl Midurhi (ID: 17179384/0x010622F8), action="nya0")
  6: 0x0183 [0x1C] WAIT(4* ticks)
  7: 0x0186 [0x5B] LOAD_EXT_SCHEDULER(work_offset=1326*, entity1=Mihl Pakorhma (ID: 17179385/0x010622F9), entity2=Mihl Pakorhma (ID: 17179385/0x010622F9), action="stda")
  8: 0x0195 [0x00] END_REQSTACK()
```
