# Event 65535

## Metadata

| Field           | Value    |
|-----------------|----------|
| Event Index     | 12/21    |
| Offset          | 0x010A   |
| Data Size       | 55 bytes |
| Calculated Size | 55 bytes |
| Instructions    | 5        |

```
      00 01 02 03 04 05 06 07  08 09 0A 0B 0C 0D 0E 0F
      -- -- -- -- -- -- -- --  -- -- -- -- -- -- -- --
0100:                                5B 07 80 00 23 06            [...#.
0110: 01 00 23 06 01 72 62 74  6C 5B 07 80 06 23 06 01  ..#..rbtl[...#..
0120: 06 23 06 01 6E 79 61 30  5B 07 80 08 23 06 01 08  .#..nya0[...#...
0130: 23 06 01 73 74 64 62 6B  69 64 6C 30 F9 22 06 01  #..stdbkidl0."..
0140: 00                                                .               
```

## Opcodes

```
  0: 0x010A [0x5B] LOAD_EXT_SCHEDULER: Load scheduler "rbtl" with entities [Romaa Mihgo (ID: 17179392/0x01062300), Romaa Mihgo (ID: 17179392/0x01062300)], work=1326*
  1: 0x0119 [0x5B] LOAD_EXT_SCHEDULER: Load scheduler "nya0" with entities [01 (ID: 17179398/0x01062306), 01 (ID: 17179398/0x01062306)], work=1326*
  2: 0x0128 [0x5B] LOAD_EXT_SCHEDULER: Load scheduler "stdb" with entities [03 (ID: 17179400/0x01062308), 03 (ID: 17179400/0x01062308)], work=1326*
  3: 0x0137 [0x6B] STOP_AND_IDLE: Mihl Pakorhma (ID: 17179385/0x010622F9) stops current action and resets to idle (animation="idl0")
  4: 0x0140 [0x00] END_REQSTACK()
```
