# Event 65535

## Metadata

| Field           | Value    |
|-----------------|----------|
| Event Index     | 14/21    |
| Offset          | 0x0196   |
| Data Size       | 70 bytes |
| Calculated Size | 70 bytes |
| Instructions    | 8        |

```
      00 01 02 03 04 05 06 07  08 09 0A 0B 0C 0D 0E 0F
      -- -- -- -- -- -- -- --  -- -- -- -- -- -- -- --
0190:                   5B 09  80 0E 23 06 01 0E 23 06        [...#...#.
01A0: 01 67 72 64 30 1C 00 80  5B 05 80 13 23 06 01 13  .grd0...[...#...
01B0: 23 06 01 6B 61 6D 30 1C  03 80 5B 05 80 12 23 06  #..kam0...[...#.
01C0: 01 12 23 06 01 6B 61 6D  30 1C 02 80 5B 05 80 11  ..#..kam0...[...
01D0: 23 06 01 11 23 06 01 6B  61 6D 30 00              #...#..kam0.    
```

## Opcodes

```
  0: 0x0196 [0x5B] LOAD_EXT_SCHEDULER: Load scheduler "grd0" with entities [kame03 (ID: 17179406/0x0106230E), kame03 (ID: 17179406/0x0106230E)], work=1319*
  1: 0x01A5 [0x1C] WAIT(2* ticks)
  2: 0x01A8 [0x5B] LOAD_EXT_SCHEDULER: Load scheduler "kam0" with entities [gian03 (ID: 17179411/0x01062313), gian03 (ID: 17179411/0x01062313)], work=2333*
  3: 0x01B7 [0x1C] WAIT(3* ticks)
  4: 0x01BA [0x5B] LOAD_EXT_SCHEDULER: Load scheduler "kam0" with entities [gian02 (ID: 17179410/0x01062312), gian02 (ID: 17179410/0x01062312)], work=2333*
  5: 0x01C9 [0x1C] WAIT(1* ticks)
  6: 0x01CC [0x5B] LOAD_EXT_SCHEDULER: Load scheduler "kam0" with entities [gian01 (ID: 17179409/0x01062311), gian01 (ID: 17179409/0x01062311)], work=2333*
  7: 0x01DB [0x00] END_REQSTACK()
```
