# Event 65535

## Metadata

| Field           | Value    |
|-----------------|----------|
| Event Index     | 14/17    |
| Offset          | 0x00A9   |
| Data Size       | 46 bytes |
| Calculated Size | 46 bytes |
| Instructions    | 10       |

```
      00 01 02 03 04 05 06 07  08 09 0A 0B 0C 0D 0E 0F
      -- -- -- -- -- -- -- --  -- -- -- -- -- -- -- --
00A0:                             1C 1A 80 6C F8 FF FF           ...l...
00B0: 7F 02 80 01 80 32 1B 80  1F 00 1C 80 1D 80 1E 80  .....2..........
00C0: 1F 01 1F 00 1C 80 1D 80  1E 80 1F 01 1F 00 1F 80  ................
00D0: 20 80 1E 80 1F 01 00                               ......         
```

## Opcodes

```
  0: 0x00A9 [0x1C] WAIT(300* ticks)
  1: 0x00AC [0x6C] FADE_ENTITY_COLOR(entity_id=EventEntity, end_alpha=128*, fade_time=1*)
  2: 0x00B5 [0x32] ExtData[1]->MainSpeed = 80* * 0.1
  3: 0x00B8 [0x1F] MOVE_ENTITY: EventEntity moves to X=-306.826*, Z=-20.320*, Y=-47.999*
  4: 0x00C0 [0x1F] MOVE_ENTITY: Update entity position (mode=1)
  5: 0x00C2 [0x1F] MOVE_ENTITY: EventEntity moves to X=-306.826*, Z=-20.320*, Y=-47.999*
  6: 0x00CA [0x1F] MOVE_ENTITY: Update entity position (mode=1)
  7: 0x00CC [0x1F] MOVE_ENTITY: EventEntity moves to X=-302.961*, Z=-28.232*, Y=-47.999*
  8: 0x00D4 [0x1F] MOVE_ENTITY: Update entity position (mode=1)
  9: 0x00D6 [0x00] END_REQSTACK()
```
