# Event 42

## Metadata

| Field           | Value    |
|-----------------|----------|
| Event Index     | 3/6      |
| Offset          | 0x004E   |
| Data Size       | 43 bytes |
| Calculated Size | 43 bytes |
| Instructions    | 9        |

```
      00 01 02 03 04 05 06 07  08 09 0A 0B 0C 0D 0E 0F
      -- -- -- -- -- -- -- --  -- -- -- -- -- -- -- --
0040:                                            1E F0                ..
0050: FF FF 7F 6F 70 5B 00 80  F8 FF FF 7F F8 FF FF 7F  ...op[..........
0060: 74 6C 62 30 1D 03 80 23  5B 00 80 F8 FF FF 7F F8  tlb0...#[.......
0070: FF FF 7F 74 6C 62 31 21  00                       ...tlb1!.       
```

## Opcodes

```
  0: 0x004E [0x1E] EventEntity looks at LocalPlayer and starts talking
  1: 0x0053 [0x6F] WAIT_FRAME_DELAY: Yield until WaitTime reaches zero
  2: 0x0054 [0x70] WAIT_ENTITY_RENDER_FLAG: Wait while EventEntity->Render.Flags3 bit 2 is set (cancel turn if not)
  3: 0x0055 [0x5B] LOAD_EXT_SCHEDULER: Load scheduler "tlb0" with entities [EventEntity, EventEntity], work=90*
  4: 0x0064 [0x1D] PRINT_EVENT_MESSAGE(message_id=8114*)
    → "Informathion on the Owder of Haverton? Gee \u007F\u0005[mithter/mith], you'll have to go the Scouths' Coalithion for that!\u007F1\u0000\u0007"
  5: 0x0067 [0x23] WAIT_FOR_DIALOG_INTERACTION
  6: 0x0068 [0x5B] LOAD_EXT_SCHEDULER: Load scheduler "tlb1" with entities [EventEntity, EventEntity], work=90*
  7: 0x0077 [0x21] END_EVENT
  8: 0x0078 [0x00] END_REQSTACK()
```
