# Event 216

## Metadata

| Field           | Value    |
|-----------------|----------|
| Event Index     | 7/21     |
| Offset          | 0x00B2   |
| Data Size       | 61 bytes |
| Calculated Size | 61 bytes |
| Instructions    | 12       |

```
      00 01 02 03 04 05 06 07  08 09 0A 0B 0C 0D 0E 0F
      -- -- -- -- -- -- -- --  -- -- -- -- -- -- -- --
00B0:       42 20 01 1E F0 FF  FF 7F 6F 70 66 0B 80 F8    B ......opf...
00C0: FF FF 7F F8 FF FF 7F 70  61 73 30 1D 16 80 23 53  .......pas0...#S
00D0: F8 FF FF 7F F8 FF FF 7F  70 61 73 30 45 17 80 F0  ........pas0E...
00E0: FF FF 7F F0 FF FF 7F 71  73 74 63 18 80 21 00     .......qstc..!. 
```

## Opcodes

```
  0: 0x00B2 [0x42] SET_CLI_EVENT_CANCEL_DATA()
  1: 0x00B3 [0x20] SET_CLI_EVENT_UC_FLAG: Lock player control
  2: 0x00B5 [0x1E] EventEntity looks at LocalPlayer and starts talking
  3: 0x00BA [0x6F] WAIT_FRAME_DELAY: Yield until WaitTime reaches zero
  4: 0x00BB [0x70] WAIT_ENTITY_RENDER_FLAG: Wait while EventEntity->Render.Flags3 bit 2 is set (cancel turn if not)
  5: 0x00BC [0x66] LOAD_EXT_SCHEDULER_MAIN(work_offset=30*, entity1=EventEntity, entity2=EventEntity, action="pas0")
  6: 0x00CB [0x1D] PRINT_EVENT_MESSAGE(message_id=7594*)
    → "Thank you! With this, I can finally complete my customer's order.\u0007Here, this is for you. Thank you again.\u007F1\u0000\u0007"
  7: 0x00CE [0x23] WAIT_FOR_DIALOG_INTERACTION
  8: 0x00CF [0x53] WAIT_SCHEDULER_TASK(entity1=EventEntity, entity2=EventEntity, action_id="pas0")
  9: 0x00DC [0x45] LOAD_SCHEDULED_TASK(work_offset1=201*, entity1=LocalPlayer, entity2=LocalPlayer, scheduler_id="qstc", work_offset2=0*)
 10: 0x00ED [0x21] END_EVENT
 11: 0x00EE [0x00] END_REQSTACK()
```
