# Event 315

## Metadata

| Field           | Value    |
|-----------------|----------|
| Event Index     | 11/21    |
| Offset          | 0x0162   |
| Data Size       | 44 bytes |
| Calculated Size | 44 bytes |
| Instructions    | 12       |

```
      00 01 02 03 04 05 06 07  08 09 0A 0B 0C 0D 0E 0F
      -- -- -- -- -- -- -- --  -- -- -- -- -- -- -- --
0160:       1E F0 FF FF 7F 03  09 10 1F 80 1D 20 80 23    ........... .#
0170: 66 0B 80 F8 FF FF 7F F8  FF FF 7F 74 6C 6B 30 1D  f..........tlk0.
0180: 21 80 23 5E 69 64 6C 30  1D 22 80 23 21 00        !.#^idl0.".#!.  
```

## Opcodes

```
  0: 0x0162 [0x1E] EventEntity looks at LocalPlayer and starts talking
  1: 0x0167 [0x03] Work_Zone[9] = 653*
  2: 0x016C [0x1D] PRINT_EVENT_MESSAGE(message_id=7704*)
    → "Yes? You have an order for an Elvaan goldsmith?\u0007Why, I'm the only Elvaan goldsmith in this town...\u007F1\u0000\u0007"
  3: 0x016F [0x23] WAIT_FOR_DIALOG_INTERACTION
  4: 0x0170 [0x66] LOAD_EXT_SCHEDULER_MAIN: Load scheduler "tlk0" with entities [EventEntity, EventEntity], work=30*
  5: 0x017F [0x1D] PRINT_EVENT_MESSAGE(message_id=7705*)
    → "Ah, of course, it's from Aunt Femitte.\u0007Only she could be so oblique.\u007F1\u0000\u0007"
  6: 0x0182 [0x23] WAIT_FOR_DIALOG_INTERACTION
  7: 0x0183 [0x5E] EventEntity goes idle (kills current action) (animation: "idl0")
  8: 0x0188 [0x1D] PRINT_EVENT_MESSAGE(message_id=7706*)
    → "All right, I'll do it.\u0007But I'm missing the key material.\u0007Do you have \u0001\u0001\u0001 \u0001\u0005$\u0002\u0007\u0000\u0000?\u0007I'll need one to make this.\u007F1\u0000\u0007"
  9: 0x018B [0x23] WAIT_FOR_DIALOG_INTERACTION
 10: 0x018C [0x21] END_EVENT
 11: 0x018D [0x00] END_REQSTACK()
```
