# Event 319

## Metadata

| Field           | Value    |
|-----------------|----------|
| Event Index     | 16/21    |
| Offset          | 0x01C2   |
| Data Size       | 39 bytes |
| Calculated Size | 39 bytes |
| Instructions    | 11       |

```
      00 01 02 03 04 05 06 07  08 09 0A 0B 0C 0D 0E 0F
      -- -- -- -- -- -- -- --  -- -- -- -- -- -- -- --
01C0:       1E F0 FF FF 7F 1D  26 80 23 66 0B 80 F8 FF    ......&.#f....
01D0: FF 7F F8 FF FF 7F 74 6C  6B 30 1D 27 80 23 5E 69  ......tlk0.'.#^i
01E0: 64 6C 30 1D 28 80 23 21  00                       dl0.(.#!.       
```

## Opcodes

```
  0: 0x01C2 [0x1E] EventEntity looks at LocalPlayer and starts talking
  1: 0x01C7 [0x1D] PRINT_EVENT_MESSAGE(message_id=7710*)
    → "Rouva said that?\u0007Yes...I suppose I can talk about it now.\u0007I was, of course, devastated that my relatives would reject me.\u007F1\u0000\u0007"
  2: 0x01CA [0x23] WAIT_FOR_DIALOG_INTERACTION
  3: 0x01CB [0x66] LOAD_EXT_SCHEDULER_MAIN: Load scheduler "tlk0" with entities [EventEntity, EventEntity], work=30*
  4: 0x01DA [0x1D] PRINT_EVENT_MESSAGE(message_id=7711*)
    → "But Aunt Femitte told me then that even if everyone else didn't want me back, I would always be welcome in her home. That meant a lot to me.\u007F1\u0000\u0007"
  5: 0x01DD [0x23] WAIT_FOR_DIALOG_INTERACTION
  6: 0x01DE [0x5E] EventEntity goes idle (kills current action) (animation: "idl0")
  7: 0x01E3 [0x1D] PRINT_EVENT_MESSAGE(message_id=7712*)
    → "But I can't leave yet.\u0007First, I've got to try to make a name for myself here.\u0007Imagine an Elvaan girl becoming famous in Bastok!\u0007That is my goal and my dream.\u007F1\u0000\u0007"
  8: 0x01E6 [0x23] WAIT_FOR_DIALOG_INTERACTION
  9: 0x01E7 [0x21] END_EVENT
 10: 0x01E8 [0x00] END_REQSTACK()
```
