# Event 49

## Metadata

| Field           | Value    |
|-----------------|----------|
| Event Index     | 125/137  |
| Offset          | 0x078A   |
| Data Size       | 47 bytes |
| Calculated Size | 47 bytes |
| Instructions    | 11       |

```
      00 01 02 03 04 05 06 07  08 09 0A 0B 0C 0D 0E 0F
      -- -- -- -- -- -- -- --  -- -- -- -- -- -- -- --
0780:                                1E F0 FF FF 7F 6F            .....o
0790: 70 66 07 80 F8 FF FF 7F  F8 FF FF 7F 74 6C 6B 30  pf..........tlk0
07A0: 1D 2E 80 23 1D 2F 80 23  66 07 80 F8 FF FF 7F F8  ...#./.#f.......
07B0: FF FF 7F 74 6C 6B 31 21  00                       ...tlk1!.       
```

## Opcodes

```
  0: 0x078A [0x1E] EventEntity looks at LocalPlayer and starts talking
  1: 0x078F [0x6F] WAIT_FRAME_DELAY: Yield until WaitTime reaches zero
  2: 0x0790 [0x70] WAIT_ENTITY_RENDER_FLAG: Wait while EventEntity->Render.Flags3 bit 2 is set (cancel turn if not)
  3: 0x0791 [0x66] LOAD_EXT_SCHEDULER_MAIN: Load scheduler "tlk0" with entities [EventEntity, EventEntity], work=159*
  4: 0x07A0 [0x1D] PRINT_EVENT_MESSAGE(message_id=9930*)
    → "My father's a geomancer just like us, \u0008, and can teach you how to destroy nature for the good of mankind.\u007F1\u0000\u0007"
  5: 0x07A3 [0x23] WAIT_FOR_DIALOG_INTERACTION
  6: 0x07A4 [0x1D] PRINT_EVENT_MESSAGE(message_id=9931*)
    → "Remember, the first bivouac in Morimar Basalt Fields. Ask for Hostenn and I'm sure you'll find him!\u007F1\u0000\u0007"
  7: 0x07A7 [0x23] WAIT_FOR_DIALOG_INTERACTION
  8: 0x07A8 [0x66] LOAD_EXT_SCHEDULER_MAIN: Load scheduler "tlk1" with entities [EventEntity, EventEntity], work=159*
  9: 0x07B7 [0x21] END_EVENT
 10: 0x07B8 [0x00] END_REQSTACK()
```
