# Event 50

## Metadata

| Field           | Value    |
|-----------------|----------|
| Event Index     | 126/137  |
| Offset          | 0x07B9   |
| Data Size       | 47 bytes |
| Calculated Size | 47 bytes |
| Instructions    | 11       |

```
      00 01 02 03 04 05 06 07  08 09 0A 0B 0C 0D 0E 0F
      -- -- -- -- -- -- -- --  -- -- -- -- -- -- -- --
07B0:                             1E F0 FF FF 7F 6F 70           .....op
07C0: 66 07 80 F8 FF FF 7F F8  FF FF 7F 74 6C 6B 30 1D  f..........tlk0.
07D0: 30 80 23 1D 31 80 23 66  07 80 F8 FF FF 7F F8 FF  0.#.1.#f........
07E0: FF 7F 74 6C 6B 31 21 00                           ..tlk1!.        
```

## Opcodes

```
  0: 0x07B9 [0x1E] EventEntity looks at LocalPlayer and starts talking
  1: 0x07BE [0x6F] WAIT_FRAME_DELAY: Yield until WaitTime reaches zero
  2: 0x07BF [0x70] WAIT_ENTITY_RENDER_FLAG: Wait while EventEntity->Render.Flags3 bit 2 is set (cancel turn if not)
  3: 0x07C0 [0x66] LOAD_EXT_SCHEDULER_MAIN(work_offset=159*, entity1=EventEntity, entity2=EventEntity, action="tlk0")
  4: 0x07CF [0x1D] PRINT_EVENT_MESSAGE(message_id=9932*)
    → "\u0008! My father was so pleased to see how hard you were working, both as a geomancer and as a pioneer!\u007F1\u0000\u0007"
  5: 0x07D2 [0x23] WAIT_FOR_DIALOG_INTERACTION
  6: 0x07D3 [0x1D] PRINT_EVENT_MESSAGE(message_id=9933*)
    → "He said that the lifestream was strong with you. Best of luck, and don't forget to come see me sometime!\u007F\u0005[ I mean as a friend, not a--well...you know!/]\u007F1\u0000\u0007"
  7: 0x07D6 [0x23] WAIT_FOR_DIALOG_INTERACTION
  8: 0x07D7 [0x66] LOAD_EXT_SCHEDULER_MAIN(work_offset=159*, entity1=EventEntity, entity2=EventEntity, action="tlk1")
  9: 0x07E6 [0x21] END_EVENT
 10: 0x07E7 [0x00] END_REQSTACK()
```
