# Event 55

## Metadata

| Field           | Value    |
|-----------------|----------|
| Event Index     | 129/137  |
| Offset          | 0x085A   |
| Data Size       | 47 bytes |
| Calculated Size | 47 bytes |
| Instructions    | 11       |

```
      00 01 02 03 04 05 06 07  08 09 0A 0B 0C 0D 0E 0F
      -- -- -- -- -- -- -- --  -- -- -- -- -- -- -- --
0850:                                1E F0 FF FF 7F 6F            .....o
0860: 70 66 07 80 F8 FF FF 7F  F8 FF FF 7F 74 6C 6B 30  pf..........tlk0
0870: 1D 37 80 23 1D 38 80 23  66 07 80 F8 FF FF 7F F8  .7.#.8.#f.......
0880: FF FF 7F 74 6C 6B 31 21  00                       ...tlk1!.       
```

## Opcodes

```
  0: 0x085A [0x1E] EventEntity looks at LocalPlayer and starts talking
  1: 0x085F [0x6F] WAIT_FRAME_DELAY: Yield until WaitTime reaches zero
  2: 0x0860 [0x70] WAIT_ENTITY_RENDER_FLAG: Wait while EventEntity->Render.Flags3 bit 2 is set (cancel turn if not)
  3: 0x0861 [0x66] LOAD_EXT_SCHEDULER_MAIN: Load scheduler "tlk0" with entities [EventEntity, EventEntity], work=159*
  4: 0x0870 [0x1D] PRINT_EVENT_MESSAGE(message_id=9972*)
    → "It's up to me to return Daddy's spirit back to nature.\u007F1\u0000\u0007"
  5: 0x0873 [0x23] WAIT_FOR_DIALOG_INTERACTION
  6: 0x0874 [0x1D] PRINT_EVENT_MESSAGE(message_id=9973*)
    → "And now that I think about it, his body, too. As a descendant of Zacariah, it's my familial duty.\u007F1\u0000\u0007"
  7: 0x0877 [0x23] WAIT_FOR_DIALOG_INTERACTION
  8: 0x0878 [0x66] LOAD_EXT_SCHEDULER_MAIN: Load scheduler "tlk1" with entities [EventEntity, EventEntity], work=159*
  9: 0x0887 [0x21] END_EVENT
 10: 0x0888 [0x00] END_REQSTACK()
```
