# Event 60

## Metadata

| Field           | Value    |
|-----------------|----------|
| Event Index     | 133/137  |
| Offset          | 0x0977   |
| Data Size       | 47 bytes |
| Calculated Size | 47 bytes |
| Instructions    | 11       |

```
      00 01 02 03 04 05 06 07  08 09 0A 0B 0C 0D 0E 0F
      -- -- -- -- -- -- -- --  -- -- -- -- -- -- -- --
0970:                      1E  F0 FF FF 7F 6F 70 66 07         .....opf.
0980: 80 F8 FF FF 7F F8 FF FF  7F 74 6C 6B 30 1D 45 80  .........tlk0.E.
0990: 23 1D 46 80 23 66 07 80  F8 FF FF 7F F8 FF FF 7F  #.F.#f..........
09A0: 74 6C 6B 31 21 00                                 tlk1!.          
```

## Opcodes

```
  0: 0x0977 [0x1E] EventEntity looks at LocalPlayer and starts talking
  1: 0x097C [0x6F] WAIT_FRAME_DELAY: Yield until WaitTime reaches zero
  2: 0x097D [0x70] WAIT_ENTITY_RENDER_FLAG: Wait while EventEntity->Render.Flags3 bit 2 is set (cancel turn if not)
  3: 0x097E [0x66] LOAD_EXT_SCHEDULER_MAIN(work_offset=159*, entity1=EventEntity, entity2=EventEntity, action="tlk0")
  4: 0x098D [0x1D] PRINT_EVENT_MESSAGE(message_id=10002*)
    → "\u0008, have you had a chance to visit the Order of Renaye in Eastern Adoulin yet?\u007F1\u0000\u0007"
  5: 0x0990 [0x23] WAIT_FOR_DIALOG_INTERACTION
  6: 0x0991 [0x1D] PRINT_EVENT_MESSAGE(message_id=10003*)
    → "Lhaiso told me to have you go see her. What do you think she wants? Think she'll give you some kind of medal? That would be wondabular!\u007F1\u0000\u0007"
  7: 0x0994 [0x23] WAIT_FOR_DIALOG_INTERACTION
  8: 0x0995 [0x66] LOAD_EXT_SCHEDULER_MAIN(work_offset=159*, entity1=EventEntity, entity2=EventEntity, action="tlk1")
  9: 0x09A4 [0x21] END_EVENT
 10: 0x09A5 [0x00] END_REQSTACK()
```
