# Event 64

## Metadata

| Field           | Value    |
|-----------------|----------|
| Event Index     | 136/137  |
| Offset          | 0x0A11   |
| Data Size       | 47 bytes |
| Calculated Size | 47 bytes |
| Instructions    | 11       |

```
      00 01 02 03 04 05 06 07  08 09 0A 0B 0C 0D 0E 0F
      -- -- -- -- -- -- -- --  -- -- -- -- -- -- -- --
0A10:    1E F0 FF FF 7F 6F 70  66 07 80 F8 FF FF 7F F8   .....opf.......
0A20: FF FF 7F 74 6C 6B 30 1D  4E 80 23 1D 4F 80 23 66  ...tlk0.N.#.O.#f
0A30: 07 80 F8 FF FF 7F F8 FF  FF 7F 74 6C 6B 31 21 00  ..........tlk1!.
```

## Opcodes

```
  0: 0x0A11 [0x1E] EventEntity looks at LocalPlayer and starts talking
  1: 0x0A16 [0x6F] WAIT_FRAME_DELAY: Yield until WaitTime reaches zero
  2: 0x0A17 [0x70] WAIT_ENTITY_RENDER_FLAG: Wait while EventEntity->Render.Flags3 bit 2 is set (cancel turn if not)
  3: 0x0A18 [0x66] LOAD_EXT_SCHEDULER_MAIN(work_offset=159*, entity1=EventEntity, entity2=EventEntity, action="tlk0")
  4: 0x0A27 [0x1D] PRINT_EVENT_MESSAGE(message_id=10017*)
    → "We've got to head to Cirdas Caverns to talk with the higher power!\u007F1\u0000\u0007"
  5: 0x0A2A [0x23] WAIT_FOR_DIALOG_INTERACTION
  6: 0x0A2B [0x1D] PRINT_EVENT_MESSAGE(message_id=10018*)
    → "I'll meet you by the green tombstone in the eastern part of the caverns, just like before. I hope nothing bad happens when we're there...but we'd better go prepared!\u007F1\u0000\u0007"
  7: 0x0A2E [0x23] WAIT_FOR_DIALOG_INTERACTION
  8: 0x0A2F [0x66] LOAD_EXT_SCHEDULER_MAIN(work_offset=159*, entity1=EventEntity, entity2=EventEntity, action="tlk1")
  9: 0x0A3E [0x21] END_EVENT
 10: 0x0A3F [0x00] END_REQSTACK()
```
