# 17805313

## Common Data

| Field            | Value                      |
|------------------|----------------------------|
| Zone             | Hall of the Gods (ID: 251) |
| Block Size       | 4208 bytes                 |
| Total Events     | 7                          |
| References Count | 81                         |

## List of Events

| Event ID              | Entrypoint   |   Size |   Instructions |
|-----------------------|--------------|--------|----------------|
| [65535](#event-65535) | 0x0000       |      1 |              1 |
| [1](#event-1)         | 0x0001       |     85 |             17 |
| [2](#event-2)         | 0x0056       |    345 |             49 |
| [4](#event-4)         | 0x01AF       |    592 |             73 |
| [3](#event-3)         | 0x03FF       |   1618 |            198 |
| [10](#event-10)       | 0x0A51       |     24 |              7 |
| [11](#event-11)       | 0x0A69       |   1172 |            139 |

## DAT References (imed_data)

|   Index | Hex Value   |   Dec Value |
|---------|-------------|-------------|
|       0 | 0x0013      |          19 |
|       1 | 0x0097      |         151 |
|       2 | 0x0000      |           0 |
|       3 | 0x002D      |          45 |
|       4 | 0x1C1F      |        7199 |
|       5 | 0x000F      |          15 |
|       6 | 0x00C8      |         200 |
|       7 | 0x01C4      |         452 |
|       8 | 0x1CCC      |        7372 |
|       9 | 0x1CCD      |        7373 |
|      10 | 0x0001      |           1 |
|      11 | 0x40000000  |  1073741824 |
|      12 | 0xC4A3      |       50339 |
|      13 | 0x03B1      |         945 |
|      14 | 0x0096      |         150 |
|      15 | 0xBB87      |       48007 |
|      16 | 0xFFFFCFF4  |  4294954996 |
|      17 | 0x0400      |        1024 |
|      18 | 0xCAE1      |       51937 |
|      19 | 0x0C00      |        3072 |
|      20 | 0x00B9      |         185 |
|      21 | 0x00F4      |         244 |
|      22 | 0x1C00      |        7168 |
|      23 | 0x1C01      |        7169 |
|      24 | 0x1C02      |        7170 |
|      25 | 0x0007      |           7 |
|      26 | 0x003C      |          60 |
|      27 | 0x03A2      |         930 |
|      28 | 0x1C03      |        7171 |
|      29 | 0x023B      |         571 |
|      30 | 0x023C      |         572 |
|      31 | 0x0041      |          65 |
|      32 | 0x003E      |          62 |
|      33 | 0x00CE      |         206 |
|      34 | 0x0003      |           3 |
|      35 | 0x1C04      |        7172 |
|      36 | 0x1C05      |        7173 |
|      37 | 0x1C06      |        7174 |
|      38 | 0x1C07      |        7175 |
|      39 | 0x1C08      |        7176 |
|      40 | 0x1C09      |        7177 |
|      41 | 0x1C0A      |        7178 |
|      42 | 0x1C0B      |        7179 |
|      43 | 0x1C0C      |        7180 |
|      44 | 0x1C0D      |        7181 |
|      45 | 0x1C0E      |        7182 |
|      46 | 0x1C0F      |        7183 |
|      47 | 0x005A      |          90 |
|      48 | 0x1C10      |        7184 |
|      49 | 0x1C11      |        7185 |
|      50 | 0x1C12      |        7186 |
|      51 | 0x1C13      |        7187 |
|      52 | 0x1C14      |        7188 |
|      53 | 0x1C15      |        7189 |
|      54 | 0x1C16      |        7190 |
|      55 | 0x1C17      |        7191 |
|      56 | 0x1C18      |        7192 |
|      57 | 0x1C1C      |        7196 |
|      58 | 0x1C19      |        7193 |
|      59 | 0x1C1A      |        7194 |
|      60 | 0x1C1B      |        7195 |
|      61 | 0x1C1E      |        7198 |
|      62 | 0x003F      |          63 |
|      63 | 0x1C1D      |        7197 |
|      64 | 0x0057      |          87 |
|      65 | 0x3D344     |      250692 |
|      66 | 0x006D      |         109 |
|      67 | 0x0C01      |        3073 |
|      68 | 0x0209      |         521 |
|      69 | 0x002B      |          43 |
|      70 | 0x0080      |         128 |
|      71 | 0x00D5      |         213 |
|      72 | 0x1C2B      |        7211 |
|      73 | 0x001E      |          30 |
|      74 | 0x0044      |          68 |
|      75 | 0x2472F     |      149295 |
|      76 | 0xFFFFAF2B  |  4294946603 |
|      77 | 0x0208      |         520 |
|      78 | 0x00C9      |         201 |
|      79 | 0x0002      |           2 |
|      80 | 0x00D7      |         215 |

## String References

- **7193**: But as one bright star shines through the clouds at night...
- **7194**: And as one song rings clear above the roar of beasts...
- **7195**: We hold to one hope in these darkest of times.
- **7197**: And someday, that hope will become our dreams...our prayers...
- **7198**: 
- **7199**: There is an oddly shaped depression in the center of the grate. The grate does not seem to be a door, as it is one with the walls around it.
- **7211**: Use the transporting device? [Yes./Not yet.]
- **7372**: The $3 begins to glow.
- **7373**: Insert the $3? [Yes./No.]

## Events

### Event 65535

#### Metadata

| Field        | Value   |
|--------------|---------|
| Entrypoint   | 0x0000  |
| Data Size    | 1 bytes |
| Instructions | 1       |

```
      00 01 02 03 04 05 06 07  08 09 0A 0B 0C 0D 0E 0F
      -- -- -- -- -- -- -- --  -- -- -- -- -- -- -- --
0000: 00                                                .               
```

#### Opcodes

```
  0: 0x0000 [0x00] END_REQSTACK()
```

### Event 1

#### Metadata

| Field        | Value    |
|--------------|----------|
| Entrypoint   | 0x0001   |
| Data Size    | 85 bytes |
| Instructions | 17       |

```
      00 01 02 03 04 05 06 07  08 09 0A 0B 0C 0D 0E 0F
      -- -- -- -- -- -- -- --  -- -- -- -- -- -- -- --
0000:    42 1A 8D 0C 46 01 38  00 80 29 10 F0 FF FF 7F   B...F.8..).....
0010: 02 45 01 80 F0 FF FF 7F  F0 FF FF 7F 7A 65 30 31  .E..........ze01
0020: 02 80 1A 6C 0C 1C 03 80  48 04 80 23 1A 8D 0C 1C  ...l....H..#....
0030: 05 80 52 01 80 F0 FF FF  7F F0 FF FF 7F 7A 65 30  ..R..........ze0
0040: 31 46 00 45 06 80 F0 FF  FF 7F F0 FF FF 7F 66 64  1F.E..........fd
0050: 69 32 02 80 21 00                                 i2..!.          
```

#### Opcodes

```
  0: 0x0001 [0x42] SET_CLI_EVENT_CANCEL_DATA()
  1: 0x0002 [0x1A] CALL_SUBROUTINE(address=0x0C8D)
  2: 0x0005 [0x46] CAMERA_CONTROL: Disable user control
  3: 0x0007 [0x38] SET_CLIENT_EVENT_MODE(mode=19*)
  4: 0x000A [0x29] REQ_SET_WAIT(priority=0x10, entity_id=LocalPlayer, tag_num=0x02)
  5: 0x0011 [0x45] LOAD_SCHEDULED_TASK: Load scheduler "ze01" with entities [LocalPlayer, LocalPlayer], work=[151*, 0*]
  6: 0x0022 [0x1A] CALL_SUBROUTINE(address=0x0C6C)
  7: 0x0025 [0x1C] WAIT(45* ticks)
  8: 0x0028 [0x48] [System] [7199*]:
    → "There is an oddly shaped depression in the center of the grate. The grate does not seem to be a door, as it is one with the walls around it."
  9: 0x002B [0x23] WAIT_FOR_DIALOG_INTERACTION
 10: 0x002C [0x1A] CALL_SUBROUTINE(address=0x0C8D)
 11: 0x002F [0x1C] WAIT(15* ticks)
 12: 0x0032 [0x52] END_LOAD_SCHEDULER: End scheduler "ze01" with entities [LocalPlayer, LocalPlayer], work=151*
 13: 0x0041 [0x46] CAMERA_CONTROL: Restore default settings
 14: 0x0043 [0x45] LOAD_SCHEDULED_TASK: Load scheduler "fdi2" with entities [LocalPlayer, LocalPlayer], work=[200*, 0*]
 15: 0x0054 [0x21] END_EVENT
 16: 0x0055 [0x00] END_REQSTACK()
```

### Event 2

#### Metadata

| Field        | Value     |
|--------------|-----------|
| Entrypoint   | 0x0056    |
| Data Size    | 345 bytes |
| Instructions | 48        |

```
      00 01 02 03 04 05 06 07  08 09 0A 0B 0C 0D 0E 0F
      -- -- -- -- -- -- -- --  -- -- -- -- -- -- -- --
0050:                   03 02  10 07 80 48 08 80 23 24        .....H..#$
0060: 09 80 0A 80 02 80 25 02  00 10 0A 80 00 7A 00 03  ......%......z..
0070: 01 10 0B 80 01 AD 01 01  7A 00 42 1A 8D 0C 46 01  ........z.B...F.
0080: 38 00 80 3B F0 FF FF 7F  00 00 01 00 02 00 02 01  8..;............
0090: 00 0C 80 02 B1 00 29 10  F0 FF FF 7F 03 45 01 80  ......)......E..
00A0: F0 FF FF 7F F0 FF FF 7F  64 72 6F 31 02 80 01 C9  ........dro1....
00B0: 00 29 10 F0 FF FF 7F 02  45 01 80 F0 FF FF 7F F0  .)......E.......
00C0: FF FF 7F 64 72 69 31 02  80 1A 6C 0C 27 10 06 B0  ...dri1...l.'...
00D0: 0F 01 05 2D 06 B0 0F 01  06 B0 0F 01 64 72 6F 70  ...-........drop
00E0: 1C 0D 80 02 01 00 0C 80  02 15 01 52 01 80 F0 FF  ...........R....
00F0: FF 7F F0 FF FF 7F 64 72  30 31 45 01 80 F0 FF FF  ......dr01E.....
0100: 7F F0 FF FF 7F 64 72 6F  32 02 80 29 10 F0 FF FF  .....dro2..)....
0110: 7F 05 01 3C 01 52 01 80  F0 FF FF 7F F0 FF FF 7F  ...<.R..........
0120: 64 72 69 31 45 01 80 F0  FF FF 7F F0 FF FF 7F 64  dri1E..........d
0130: 72 69 33 02 80 29 10 F0  FF FF 7F 04 2D 06 B0 0F  ri3..)......-...
0140: 01 06 B0 0F 01 64 72 63  6C 1C 0E 80 27 10 06 B0  .....drcl...'...
0150: 0F 01 06 1A 8D 0C 1C 05  80 02 01 00 0C 80 02 7F  ................
0160: 01 52 01 80 F0 FF FF 7F  F0 FF FF 7F 64 72 6F 32  .R..........dro2
0170: 47 00 02 80 0F 80 10 80  11 80 47 01 01 9A 01 52  G.........G....R
0180: 01 80 F0 FF FF 7F F0 FF  FF 7F 64 72 69 33 47 00  ..........dri3G.
0190: 02 80 12 80 10 80 13 80  47 01 46 00 45 06 80 F0  ........G.F.E...
01A0: FF FF 7F F0 FF FF 7F 66  64 69 32 02 80 21 00     .......fdi2..!. 
```

#### Opcodes

```
  0: 0x0056 [0x03] Work_Zone[2] = 452*
  1: 0x005B [0x48] [System] [7372*]:
    → "The $3 begins to glow."
  2: 0x005E [0x23] WAIT_FOR_DIALOG_INTERACTION
  3: 0x005F [0x24] CREATE_DIALOG(message_id=7373*, default_option=1*, option_flags=0*)
    → "Insert the $3? [Yes./No.]"
  4: 0x0066 [0x25] WAIT_DIALOG_SELECT()
  5: 0x0067 [0x02] IF !(Work_Zone[0] == 1*) GOTO 0x007A
  6: 0x006F [0x03] Work_Zone[1] = 1073741824*
  7: 0x0074 [0x01] GOTO 0x01AD

SUBROUTINE_007A:
  8: 0x007A [0x42] SET_CLI_EVENT_CANCEL_DATA()
  9: 0x007B [0x1A] CALL_SUBROUTINE(address=0x0C8D)
 10: 0x007E [0x46] CAMERA_CONTROL: Disable user control
 11: 0x0080 [0x38] SET_CLIENT_EVENT_MODE(mode=19*)
 12: 0x0083 [0x3B] GET_ENTITY_POSITION(entity=LocalPlayer, x_destination=ExtData[1]->WorkLocal[0], y_destination=ExtData[1]->WorkLocal[1], z_destination=ExtData[1]->WorkLocal[2])
 13: 0x008E [0x02] IF !(ExtData[1]->WorkLocal[1] <= 50339*) GOTO 0x00B1
 14: 0x0096 [0x29] REQ_SET_WAIT(priority=0x10, entity_id=LocalPlayer, tag_num=0x03)
 15: 0x009D [0x45] LOAD_SCHEDULED_TASK: Load scheduler "dro1" with entities [LocalPlayer, LocalPlayer], work=[151*, 0*]
 16: 0x00AE [0x01] GOTO 0x00C9
 17: 0x00B1 [0x29] REQ_SET_WAIT(priority=0x10, entity_id=LocalPlayer, tag_num=0x02)
 18: 0x00B8 [0x45] LOAD_SCHEDULED_TASK: Load scheduler "dri1" with entities [LocalPlayer, LocalPlayer], work=[151*, 0*]

SUBROUTINE_00C9:
 19: 0x00C9 [0x1A] CALL_SUBROUTINE(address=0x0C6C)
 20: 0x00CC [0x27] REQ_SET(priority=0x10, entity_id=Cermet Grate (ID: 17805318/0x010FB006), tag_num=0x05)
 21: 0x00D3 [0x2D] CREATE_ZONE_SCHEDULER_TASK: Create scheduler "drop" with entities [Cermet Grate (ID: 17805318/0x010FB006), Cermet Grate (ID: 17805318/0x010FB006)]
 22: 0x00E0 [0x1C] WAIT(945* ticks)
 23: 0x00E3 [0x02] IF !(ExtData[1]->WorkLocal[1] <= 50339*) GOTO 0x0115
 24: 0x00EB [0x52] END_LOAD_SCHEDULER: End scheduler "dr01" with entities [LocalPlayer, LocalPlayer], work=151*
 25: 0x00FA [0x45] LOAD_SCHEDULED_TASK: Load scheduler "dro2" with entities [LocalPlayer, LocalPlayer], work=[151*, 0*]
 26: 0x010B [0x29] REQ_SET_WAIT(priority=0x10, entity_id=LocalPlayer, tag_num=0x05)
 27: 0x0112 [0x01] GOTO 0x013C
 28: 0x0115 [0x52] END_LOAD_SCHEDULER: End scheduler "dri1" with entities [LocalPlayer, LocalPlayer], work=151*
 29: 0x0124 [0x45] LOAD_SCHEDULED_TASK: Load scheduler "dri3" with entities [LocalPlayer, LocalPlayer], work=[151*, 0*]
 30: 0x0135 [0x29] REQ_SET_WAIT(priority=0x10, entity_id=LocalPlayer, tag_num=0x04)

SUBROUTINE_013C:
 31: 0x013C [0x2D] CREATE_ZONE_SCHEDULER_TASK: Create scheduler "drcl" with entities [Cermet Grate (ID: 17805318/0x010FB006), Cermet Grate (ID: 17805318/0x010FB006)]
 32: 0x0149 [0x1C] WAIT(150* ticks)
 33: 0x014C [0x27] REQ_SET(priority=0x10, entity_id=Cermet Grate (ID: 17805318/0x010FB006), tag_num=0x06)
 34: 0x0153 [0x1A] CALL_SUBROUTINE(address=0x0C8D)
 35: 0x0156 [0x1C] WAIT(15* ticks)
 36: 0x0159 [0x02] IF !(ExtData[1]->WorkLocal[1] <= 50339*) GOTO 0x017F
 37: 0x0161 [0x52] END_LOAD_SCHEDULER: End scheduler "dro2" with entities [LocalPlayer, LocalPlayer], work=151*
 38: 0x0170 [0x47] UPDATE_PLAYER_POS(0.000*, 48.007*, -12.300*, yaw=90.0°*)
 39: 0x017A [0x47] WAIT_PLAYER_POS_UPDATE
 40: 0x017C [0x01] GOTO 0x019A
 41: 0x017F [0x52] END_LOAD_SCHEDULER: End scheduler "dri3" with entities [LocalPlayer, LocalPlayer], work=151*
 42: 0x018E [0x47] UPDATE_PLAYER_POS(0.000*, 51.937*, -12.300*, yaw=270.0°*)
 43: 0x0198 [0x47] WAIT_PLAYER_POS_UPDATE

SUBROUTINE_019A:
 44: 0x019A [0x46] CAMERA_CONTROL: Restore default settings
 45: 0x019C [0x45] LOAD_SCHEDULED_TASK: Load scheduler "fdi2" with entities [LocalPlayer, LocalPlayer], work=[200*, 0*]

SUBROUTINE_01AD:
 46: 0x01AD [0x21] END_EVENT
 47: 0x01AE [0x00] END_REQSTACK()
```

#### Data or dead code:

```
# Dead code (unreachable instructions):
     0x0077 [0x01] GOTO 0x007A
```

### Event 4

#### Metadata

| Field        | Value     |
|--------------|-----------|
| Entrypoint   | 0x01AF    |
| Data Size    | 592 bytes |
| Instructions | 73        |

```
      00 01 02 03 04 05 06 07  08 09 0A 0B 0C 0D 0E 0F
      -- -- -- -- -- -- -- --  -- -- -- -- -- -- -- --
01A0:                                               42                 B
01B0: 1A 8D 0C 46 01 38 00 80  03 02 10 07 80 29 10 04  ...F.8.......)..
01C0: B0 0F 01 04 29 10 05 B0  0F 01 04 5B 14 80 05 B0  ....)......[....
01D0: 0F 01 05 B0 0F 01 00 FE  FE FE 5B 15 80 04 B0 0F  ..........[.....
01E0: 01 04 B0 0F 01 00 FE FE  FE 27 10 04 B0 0F 01 0A  .........'......
01F0: 27 10 05 B0 0F 01 0A 29  10 F0 FF FF 7F 02 45 01  '......)......E.
0200: 80 F0 FF FF 7F F0 FF FF  7F 7A 65 30 31 02 80 1A  .........ze01...
0210: AE 0C 55 01 80 F0 FF FF  7F F0 FF FF 7F 7A 65 30  ..U..........ze0
0220: 31 45 01 80 F0 FF FF 7F  F0 FF FF 7F 7A 65 30 32  1E..........ze02
0230: 02 80 2B 05 B0 0F 01 16  80 23 1A 8D 0C 4B F0 FF  ..+......#...K..
0240: FF 7F 11 80 27 10 05 B0  0F 01 0B 27 10 04 B0 0F  ....'......'....
0250: 01 0B 45 01 80 F0 FF FF  7F F0 FF FF 7F 7A 65 30  ..E..........ze0
0260: 33 02 80 1A AE 0C 2B 05  B0 0F 01 17 80 23 2A 10  3.....+......#*.
0270: 04 B0 0F 01 55 01 80 F0  FF FF 7F F0 FF FF 7F 7A  ....U..........z
0280: 65 30 33 45 01 80 F0 FF  FF 7F F0 FF FF 7F 7A 65  e03E..........ze
0290: 30 35 02 80 5B 15 80 04  B0 0F 01 04 B0 0F 01 74  05..[..........t
02A0: 6B 62 32 2B 04 B0 0F 01  18 80 23 53 04 B0 0F 01  kb2+......#S....
02B0: 04 B0 0F 01 74 6B 62 32  5B 14 80 05 B0 0F 01 05  ....tkb2[.......
02C0: B0 0F 01 6B 6F 73 30 45  01 80 F0 FF FF 7F F0 FF  ...kos0E........
02D0: FF 7F 7A 65 30 37 02 80  6E F0 FF FF 7F 19 80 99  ..ze07..n.......
02E0: F0 FF FF 7F 99 F0 FF FF  7F 1C 1A 80 4B F0 FF FF  ............K...
02F0: 7F 13 80 6F 76 F0 FF FF  7F 5B 15 80 04 B0 0F 01  ...ov....[......
0300: 04 B0 0F 01 75 64 65 30  52 01 80 F0 FF FF 7F F0  ....ude0R.......
0310: FF FF 7F 7A 65 30 37 45  06 80 F0 FF FF 7F F0 FF  ...ze07E........
0320: FF 7F 6F 76 6C 31 02 80  45 01 80 F0 FF FF 7F F0  ..ovl1..E.......
0330: FF FF 7F 64 72 69 31 02  80 27 10 06 B0 0F 01 05  ...dri1..'......
0340: 2D 06 B0 0F 01 06 B0 0F  01 64 72 6F 70 1C 1B 80  -........drop...
0350: 5B 15 80 04 B0 0F 01 04  B0 0F 01 75 64 65 31 1C  [..........ude1.
0360: 05 80 45 01 80 F0 FF FF  7F F0 FF FF 7F 7A 65 30  ..E..........ze0
0370: 36 02 80 5B 14 80 05 B0  0F 01 05 B0 0F 01 6B 6F  6..[..........ko
0380: 73 31 1C 05 80 2B 05 B0  0F 01 1C 80 23 27 10 05  s1...+......#'..
0390: B0 0F 01 0C 27 10 04 B0  0F 01 0C 27 10 F0 FF FF  ....'......'....
03A0: 7F 04 45 01 80 F0 FF FF  7F F0 FF FF 7F 64 72 69  ..E..........dri
03B0: 33 02 80 2A 10 04 B0 0F  01 2D 06 B0 0F 01 06 B0  3..*.....-......
03C0: 0F 01 64 72 63 6C 1C 0E  80 1A CF 0C 1C 05 80 27  ..drcl.........'
03D0: 10 06 B0 0F 01 06 02 08  10 0A 80 01 EA 03 47 00  ..............G.
03E0: 02 80 12 80 10 80 13 80  47 01 46 00 45 06 80 F0  ........G.F.E...
03F0: FF FF 7F F0 FF FF 7F 66  64 69 32 02 80 21 00     .......fdi2..!. 
```

#### Opcodes

```
  0: 0x01AF [0x42] SET_CLI_EVENT_CANCEL_DATA()
  1: 0x01B0 [0x1A] CALL_SUBROUTINE(address=0x0C8D)
  2: 0x01B3 [0x46] CAMERA_CONTROL: Disable user control
  3: 0x01B5 [0x38] SET_CLIENT_EVENT_MODE(mode=19*)
  4: 0x01B8 [0x03] Work_Zone[2] = 452*
  5: 0x01BD [0x29] REQ_SET_WAIT(priority=0x10, entity_id=Zeid (ID: 17805316/0x010FB004), tag_num=0x04)
  6: 0x01C4 [0x29] REQ_SET_WAIT(priority=0x10, entity_id=Aldo (ID: 17805317/0x010FB005), tag_num=0x04)
  7: 0x01CB [0x5B] LOAD_EXT_SCHEDULER: Load scheduler 0xFEFEFE00 with entities [Aldo (ID: 17805317/0x010FB005), Aldo (ID: 17805317/0x010FB005)], work=185*
  8: 0x01DA [0x5B] LOAD_EXT_SCHEDULER: Load scheduler 0xFEFEFE00 with entities [Zeid (ID: 17805316/0x010FB004), Zeid (ID: 17805316/0x010FB004)], work=244*
  9: 0x01E9 [0x27] REQ_SET(priority=0x10, entity_id=Zeid (ID: 17805316/0x010FB004), tag_num=0x0A)
 10: 0x01F0 [0x27] REQ_SET(priority=0x10, entity_id=Aldo (ID: 17805317/0x010FB005), tag_num=0x0A)
 11: 0x01F7 [0x29] REQ_SET_WAIT(priority=0x10, entity_id=LocalPlayer, tag_num=0x02)
 12: 0x01FE [0x45] LOAD_SCHEDULED_TASK: Load scheduler "ze01" with entities [LocalPlayer, LocalPlayer], work=[151*, 0*]
 13: 0x020F [0x1A] CALL_SUBROUTINE(address=0x0CAE)
 14: 0x0212 [0x55] WAIT_LOAD_SCHEDULER: Wait for scheduler "ze01" with entities [LocalPlayer, LocalPlayer], work=151*
 15: 0x0221 [0x45] LOAD_SCHEDULED_TASK: Load scheduler "ze02" with entities [LocalPlayer, LocalPlayer], work=[151*, 0*]
 16: 0x0232 [0x2B] Aldo (ID: 17805317/0x010FB005) [7168*]:
    → "We've been waiting for you, <Player>."
 17: 0x0239 [0x23] WAIT_FOR_DIALOG_INTERACTION
 18: 0x023A [0x1A] CALL_SUBROUTINE(address=0x0C8D)
 19: 0x023D [0x4B] UPDATE_ENTITY_YAW(entity=LocalPlayer, yaw=5.6°*)
 20: 0x0244 [0x27] REQ_SET(priority=0x10, entity_id=Aldo (ID: 17805317/0x010FB005), tag_num=0x0B)
 21: 0x024B [0x27] REQ_SET(priority=0x10, entity_id=Zeid (ID: 17805316/0x010FB004), tag_num=0x0B)
 22: 0x0252 [0x45] LOAD_SCHEDULED_TASK: Load scheduler "ze03" with entities [LocalPlayer, LocalPlayer], work=[151*, 0*]
 23: 0x0263 [0x1A] CALL_SUBROUTINE(address=0x0CAE)
 24: 0x0266 [0x2B] Aldo (ID: 17805317/0x010FB005) [7169*]:
    → "I've got a score to settle with Eald'narche. It's time to put an end to that midget's plan!"
 25: 0x026D [0x23] WAIT_FOR_DIALOG_INTERACTION
 26: 0x026E [0x2A] GET_REQ_LEVEL(level=16, entity_id=Zeid (ID: 17805316/0x010FB004))
 27: 0x0274 [0x55] WAIT_LOAD_SCHEDULER: Wait for scheduler "ze03" with entities [LocalPlayer, LocalPlayer], work=151*
 28: 0x0283 [0x45] LOAD_SCHEDULED_TASK: Load scheduler "ze05" with entities [LocalPlayer, LocalPlayer], work=[151*, 0*]
 29: 0x0294 [0x5B] LOAD_EXT_SCHEDULER: Load scheduler "tkb2" with entities [Zeid (ID: 17805316/0x010FB004), Zeid (ID: 17805316/0x010FB004)], work=244*
 30: 0x02A3 [0x2B] Zeid (ID: 17805316/0x010FB004) [7170*]:
    → "I am not certain about what he meant by being "blessed by the light," but I do know that we need that $3 you hold to find out."
 31: 0x02AA [0x23] WAIT_FOR_DIALOG_INTERACTION
 32: 0x02AB [0x53] WAIT_SCHEDULER_TASK: Wait for scheduler "tkb2" with entities [Zeid (ID: 17805316/0x010FB004), Zeid (ID: 17805316/0x010FB004)]
 33: 0x02B8 [0x5B] LOAD_EXT_SCHEDULER: Load scheduler "kos0" with entities [Aldo (ID: 17805317/0x010FB005), Aldo (ID: 17805317/0x010FB005)], work=185*
 34: 0x02C7 [0x45] LOAD_SCHEDULED_TASK: Load scheduler "ze07" with entities [LocalPlayer, LocalPlayer], work=[151*, 0*]
 35: 0x02D8 [0x6E] LocalPlayer uses emote 7*
 36: 0x02DF [0x99] Wait for LocalPlayer animation to complete
 37: 0x02E4 [0x99] Wait for LocalPlayer animation to complete
 38: 0x02E9 [0x1C] WAIT(60* ticks)
 39: 0x02EC [0x4B] UPDATE_ENTITY_YAW(entity=LocalPlayer, yaw=16.9°*)
 40: 0x02F3 [0x6F] WAIT_FRAME_DELAY: Yield until WaitTime reaches zero
 41: 0x02F4 [0x76] CHECK_ENTITY_RENDER_FLAGS: Wait until LocalPlayer Render.Flags0 and Render.Flags3 conditions are met
 42: 0x02F9 [0x5B] LOAD_EXT_SCHEDULER: Load scheduler "ude0" with entities [Zeid (ID: 17805316/0x010FB004), Zeid (ID: 17805316/0x010FB004)], work=244*
 43: 0x0308 [0x52] END_LOAD_SCHEDULER: End scheduler "ze07" with entities [LocalPlayer, LocalPlayer], work=151*
 44: 0x0317 [0x45] LOAD_SCHEDULED_TASK: Load scheduler "ovl1" with entities [LocalPlayer, LocalPlayer], work=[200*, 0*]
 45: 0x0328 [0x45] LOAD_SCHEDULED_TASK: Load scheduler "dri1" with entities [LocalPlayer, LocalPlayer], work=[151*, 0*]
 46: 0x0339 [0x27] REQ_SET(priority=0x10, entity_id=Cermet Grate (ID: 17805318/0x010FB006), tag_num=0x05)
 47: 0x0340 [0x2D] CREATE_ZONE_SCHEDULER_TASK: Create scheduler "drop" with entities [Cermet Grate (ID: 17805318/0x010FB006), Cermet Grate (ID: 17805318/0x010FB006)]
 48: 0x034D [0x1C] WAIT(930* ticks)
 49: 0x0350 [0x5B] LOAD_EXT_SCHEDULER: Load scheduler "ude1" with entities [Zeid (ID: 17805316/0x010FB004), Zeid (ID: 17805316/0x010FB004)], work=244*
 50: 0x035F [0x1C] WAIT(15* ticks)
 51: 0x0362 [0x45] LOAD_SCHEDULED_TASK: Load scheduler "ze06" with entities [LocalPlayer, LocalPlayer], work=[151*, 0*]
 52: 0x0373 [0x5B] LOAD_EXT_SCHEDULER: Load scheduler "kos1" with entities [Aldo (ID: 17805317/0x010FB005), Aldo (ID: 17805317/0x010FB005)], work=185*
 53: 0x0382 [0x1C] WAIT(15* ticks)
 54: 0x0385 [0x2B] Aldo (ID: 17805317/0x010FB005) [7171*]:
    → "So that's how it works... Well, there's no turning back now. Let's go, Zeid. You too, <Player>."
 55: 0x038C [0x23] WAIT_FOR_DIALOG_INTERACTION
 56: 0x038D [0x27] REQ_SET(priority=0x10, entity_id=Aldo (ID: 17805317/0x010FB005), tag_num=0x0C)
 57: 0x0394 [0x27] REQ_SET(priority=0x10, entity_id=Zeid (ID: 17805316/0x010FB004), tag_num=0x0C)
 58: 0x039B [0x27] REQ_SET(priority=0x10, entity_id=LocalPlayer, tag_num=0x04)
 59: 0x03A2 [0x45] LOAD_SCHEDULED_TASK: Load scheduler "dri3" with entities [LocalPlayer, LocalPlayer], work=[151*, 0*]
 60: 0x03B3 [0x2A] GET_REQ_LEVEL(level=16, entity_id=Zeid (ID: 17805316/0x010FB004))
 61: 0x03B9 [0x2D] CREATE_ZONE_SCHEDULER_TASK: Create scheduler "drcl" with entities [Cermet Grate (ID: 17805318/0x010FB006), Cermet Grate (ID: 17805318/0x010FB006)]
 62: 0x03C6 [0x1C] WAIT(150* ticks)
 63: 0x03C9 [0x1A] CALL_SUBROUTINE(address=0x0CCF)
 64: 0x03CC [0x1C] WAIT(15* ticks)
 65: 0x03CF [0x27] REQ_SET(priority=0x10, entity_id=Cermet Grate (ID: 17805318/0x010FB006), tag_num=0x06)
 66: 0x03D6 [0x02] IF !(Work_Zone[8] == 1*) GOTO 0x03EA
 67: 0x03DE [0x47] UPDATE_PLAYER_POS(0.000*, 51.937*, -12.300*, yaw=270.0°*)
 68: 0x03E8 [0x47] WAIT_PLAYER_POS_UPDATE
 69: 0x03EA [0x46] CAMERA_CONTROL: Restore default settings
 70: 0x03EC [0x45] LOAD_SCHEDULED_TASK: Load scheduler "fdi2" with entities [LocalPlayer, LocalPlayer], work=[200*, 0*]
 71: 0x03FD [0x21] END_EVENT
 72: 0x03FE [0x00] END_REQSTACK()
```

### Event 3

#### Metadata

| Field        | Value      |
|--------------|------------|
| Entrypoint   | 0x03FF     |
| Data Size    | 1618 bytes |
| Instructions | 198        |

```
      00 01 02 03 04 05 06 07  08 09 0A 0B 0C 0D 0E 0F
      -- -- -- -- -- -- -- --  -- -- -- -- -- -- -- --
03F0:                                               42                 B
0400: 1A 8D 0C 46 01 38 00 80  79 00 F0 FF FF 7F F0 FF  ...F.8..y.......
0410: FF 7F 27 10 02 B0 0F 01  05 29 10 04 B0 0F 01 04  ..'......)......
0420: 29 10 05 B0 0F 01 04 29  10 03 B0 0F 01 02 5B 14  )......)......[.
0430: 80 05 B0 0F 01 05 B0 0F  01 00 FE FE FE 5B 15 80  .............[..
0440: 04 B0 0F 01 04 B0 0F 01  00 FE FE FE 5B 1D 80 03  ............[...
0450: B0 0F 01 03 B0 0F 01 00  FE FE FE 5B 1E 80 03 B0  ...........[....
0460: 0F 01 03 B0 0F 01 00 FE  FE FE 62 1F 80 03 B0 0F  ..........b.....
0470: 01 03 B0 0F 01 00 FE FE  FE 02 80 62 20 80 02 B0  ...........b ...
0480: 0F 01 02 B0 0F 01 00 FE  FE FE 02 80 27 10 04 B0  ............'...
0490: 0F 01 0D 27 10 05 B0 0F  01 0D 29 10 F0 FF FF 7F  ...'......).....
04A0: 06 5C 00 21 80 5C 01 21  80 5C 02 21 80 5C 03 21  .\.!.\.!.\.!.\.!
04B0: 80 9A 1C 22 80 27 10 F0  FF FF 7F 07 45 01 80 F0  ...".'......E...
04C0: FF FF 7F F0 FF FF 7F 7A  65 30 38 02 80 1A AE 0C  .......ze08.....
04D0: 29 10 04 B0 0F 01 0E 1C  05 80 79 00 F0 FF FF 7F  ).........y.....
04E0: 04 B0 0F 01 5B 15 80 04  B0 0F 01 04 B0 0F 01 74  ....[..........t
04F0: 6B 62 32 2B 04 B0 0F 01  23 80 23 5B 14 80 05 B0  kb2+....#.#[....
0500: 0F 01 05 B0 0F 01 6B 6F  73 30 52 01 80 F0 FF FF  ......kos0R.....
0510: 7F F0 FF FF 7F 7A 65 30  38 45 01 80 F0 FF FF 7F  .....ze08E......
0520: F0 FF FF 7F 7A 65 30 39  02 80 79 00 04 B0 0F 01  ....ze09..y.....
0530: 05 B0 0F 01 79 00 F0 FF  FF 7F 05 B0 0F 01 2B 05  ....y.........+.
0540: B0 0F 01 24 80 23 1C 03  80 2B 03 B0 0F 01 25 80  ...$.#...+....%.
0550: 23 52 01 80 F0 FF FF 7F  F0 FF FF 7F 7A 65 30 39  #R..........ze09
0560: 45 01 80 F0 FF FF 7F F0  FF FF 7F 7A 65 31 30 02  E..........ze10.
0570: 80 79 00 F0 FF FF 7F 03  B0 0F 01 27 10 04 B0 0F  .y.........'....
0580: 01 0F 27 10 05 B0 0F 01  0E 1C 05 80 27 10 03 B0  ..'.........'...
0590: 0F 01 09 55 01 80 F0 FF  FF 7F F0 FF FF 7F 7A 65  ...U..........ze
05A0: 31 30 2B 03 B0 0F 01 26  80 23 2B 03 B0 0F 01 27  10+....&.#+....'
05B0: 80 23 2B 03 B0 0F 01 28  80 23 45 01 80 F0 FF FF  .#+....(.#E.....
05C0: 7F F0 FF FF 7F 7A 65 31  33 02 80 2B 03 B0 0F 01  .....ze13..+....
05D0: 29 80 23 2B 03 B0 0F 01  2A 80 23 52 01 80 F0 FF  ).#+....*.#R....
05E0: FF 7F F0 FF FF 7F 7A 65  31 33 45 06 80 F0 FF FF  ......ze13E.....
05F0: 7F F0 FF FF 7F 6F 76 6C  31 02 80 45 01 80 F0 FF  .....ovl1..E....
0600: FF 7F F0 FF FF 7F 7A 65  31 34 02 80 62 20 80 02  ......ze14..b ..
0610: B0 0F 01 02 B0 0F 01 73  72 30 31 02 80 55 01 80  .......sr01..U..
0620: F0 FF FF 7F F0 FF FF 7F  7A 65 31 34 5B 1D 80 03  ........ze14[...
0630: B0 0F 01 03 B0 0F 01 74  6C 6B 30 2B 03 B0 0F 01  .......tlk0+....
0640: 2B 80 23 2B 03 B0 0F 01  2C 80 23 52 01 80 F0 FF  +.#+....,.#R....
0650: FF 7F F0 FF FF 7F 7A 65  31 34 45 01 80 F0 FF FF  ......ze14E.....
0660: 7F F0 FF FF 7F 7A 65 31  35 02 80 2B 03 B0 0F 01  .....ze15..+....
0670: 2D 80 23 2B 03 B0 0F 01  2E 80 23 52 01 80 F0 FF  -.#+......#R....
0680: FF 7F F0 FF FF 7F 7A 65  31 35 27 10 02 B0 0F 01  ......ze15'.....
0690: 06 45 01 80 F0 FF FF 7F  F0 FF FF 7F 7A 65 31 36  .E..........ze16
06A0: 02 80 5B 1D 80 03 B0 0F  01 03 B0 0F 01 74 6C 6B  ..[..........tlk
06B0: 31 53 03 B0 0F 01 03 B0  0F 01 74 6C 6B 31 1C 2F  1S........tlk1./
06C0: 80 5B 1D 80 03 B0 0F 01  03 B0 0F 01 75 74 75 30  .[..........utu0
06D0: 2B 03 B0 0F 01 30 80 23  52 01 80 F0 FF FF 7F F0  +....0.#R.......
06E0: FF FF 7F 7A 65 31 36 45  01 80 F0 FF FF 7F F0 FF  ...ze16E........
06F0: FF 7F 7A 65 31 37 02 80  2B 03 B0 0F 01 31 80 23  ..ze17..+....1.#
0700: 2B 03 B0 0F 01 32 80 23  52 01 80 F0 FF FF 7F F0  +....2.#R.......
0710: FF FF 7F 7A 65 31 37 45  01 80 F0 FF FF 7F F0 FF  ...ze17E........
0720: FF 7F 7A 65 31 38 02 80  2B 03 B0 0F 01 33 80 23  ..ze18..+....3.#
0730: 2B 03 B0 0F 01 34 80 23  52 01 80 F0 FF FF 7F F0  +....4.#R.......
0740: FF FF 7F 7A 65 31 38 45  01 80 F0 FF FF 7F F0 FF  ...ze18E........
0750: FF 7F 7A 65 31 39 02 80  5B 1D 80 03 B0 0F 01 03  ..ze19..[.......
0760: B0 0F 01 75 74 75 31 53  03 B0 0F 01 03 B0 0F 01  ...utu1S........
0770: 75 74 75 31 2B 03 B0 0F  01 35 80 23 2B 03 B0 0F  utu1+....5.#+...
0780: 01 36 80 23 52 01 80 F0  FF FF 7F F0 FF FF 7F 7A  .6.#R..........z
0790: 65 31 39 45 01 80 F0 FF  FF 7F F0 FF FF 7F 7A 65  e19E..........ze
07A0: 32 30 02 80 81 00 03 B0  0F 01 5B 1E 80 03 B0 0F  20........[.....
07B0: 01 03 B0 0F 01 74 70 73  30 53 03 B0 0F 01 03 B0  .....tps0S......
07C0: 0F 01 74 70 73 30 55 01  80 F0 FF FF 7F F0 FF FF  ..tps0U.........
07D0: 7F 7A 65 32 30 45 01 80  F0 FF FF 7F F0 FF FF 7F  .ze20E..........
07E0: 7A 65 32 31 02 80 2D 07  B0 0F 01 07 B0 0F 01 6F  ze21..-........o
07F0: 70 65 6E 27 10 04 B0 0F  01 10 27 10 05 B0 0F 01  pen'......'.....
0800: 0F 55 01 80 F0 FF FF 7F  F0 FF FF 7F 7A 65 32 31  .U..........ze21
0810: 1A CF 0C 81 01 03 B0 0F  01 5B 1D 80 03 B0 0F 01  .........[......
0820: 03 B0 0F 01 74 6E 67 30  6B 69 64 31 30 03 B0 0F  ....tng0kid10...
0830: 01 1C 05 80 79 00 04 B0  0F 01 03 B0 0F 01 79 00  ....y.........y.
0840: 05 B0 0F 01 03 B0 0F 01  45 01 80 F0 FF FF 7F F0  ........E.......
0850: FF FF 7F 7A 65 32 34 02  80 1A AE 0C 2B 03 B0 0F  ...ze24.....+...
0860: 01 37 80 23 81 01 03 B0  0F 01 52 01 80 F0 FF FF  .7.#......R.....
0870: 7F F0 FF FF 7F 7A 65 32  34 5B 1E 80 03 B0 0F 01  .....ze24[......
0880: 03 B0 0F 01 65 73 6B 30  45 01 80 F0 FF FF 7F F0  ....esk0E.......
0890: FF FF 7F 7A 65 32 35 02  80 2B 03 B0 0F 01 38 80  ...ze25..+....8.
08A0: 23 2B 03 B0 0F 01 39 80  23 53 03 B0 0F 01 03 B0  #+....9.#S......
08B0: 0F 01 65 73 6B 30 27 10  03 B0 0F 01 0B 62 1F 80  ..esk0'......b..
08C0: 03 B0 0F 01 03 B0 0F 01  73 67 30 31 02 80 2A 10  ........sg01..*.
08D0: 03 B0 0F 01 1A 8D 0C 48  3A 80 23 48 3B 80 23 48  .......H:.#H;.#H
08E0: 3C 80 23 48 3D 80 23 27  10 04 B0 0F 01 11 27 10  <.#H=.#'......'.
08F0: 05 B0 0F 01 10 29 10 F0  FF FF 7F 08 92 01 F0 FF  .....)..........
0900: FF 7F 52 01 80 F0 FF FF  7F F0 FF FF 7F 7A 65 32  ..R..........ze2
0910: 35 45 01 80 F0 FF FF 7F  F0 FF FF 7F 7A 65 32 36  5E..........ze26
0920: 02 80 1A AE 0C 55 01 80  F0 FF FF 7F F0 FF FF 7F  .....U..........
0930: 7A 65 32 36 45 01 80 F0  FF FF 7F F0 FF FF 7F 7A  ze26E..........z
0940: 65 32 37 02 80 6E F0 FF  FF 7F 22 80 99 F0 FF FF  e27..n....".....
0950: 7F 99 F0 FF FF 7F 62 3E  80 F0 FF FF 7F F0 FF FF  ......b>........
0960: 7F 6D 61 69 6E 02 80 1C  03 80 27 10 02 B0 0F 01  .main.....'.....
0970: 07 55 01 80 F0 FF FF 7F  F0 FF FF 7F 7A 65 32 37  .U..........ze27
0980: 1A CF 0C 1C 03 80 48 3F  80 23 48 3D 80 23 2D 07  ......H?.#H=.#-.
0990: B0 0F 01 07 B0 0F 01 65  6E 64 73 54 07 B0 0F 01  .......endsT....
09A0: 07 B0 0F 01 65 6E 64 73  02 08 10 0A 80 01 23 0A  ....ends......#.
09B0: 29 10 F0 FF FF 7F 09 47  00 40 80 41 80 42 80 43  )......G.@.A.B.C
09C0: 80 47 01 92 00 F0 FF FF  7F 75 00 44 80 75 01 1C  .G.......u.D.u..
09D0: 05 80 45 01 80 F0 FF FF  7F F0 FF FF 7F 7A 65 32  ..E..........ze2
09E0: 39 02 80 45 06 80 F0 FF  FF 7F F0 FF FF 7F 66 64  9..E..........fd
09F0: 69 32 02 80 1C 1A 80 62  45 80 F0 FF FF 7F F0 FF  i2.....bE.......
0A00: FF 7F 6D 61 69 6E 02 80  6C F0 FF FF 7F 46 80 2F  ..main..l....F./
0A10: 80 55 01 80 F0 FF FF 7F  F0 FF FF 7F 7A 65 32 39  .U..........ze29
0A20: 01 3D 0A 6C F0 FF FF 7F  46 80 0A 80 45 06 80 F0  .=.l....F...E...
0A30: FF FF 7F F0 FF FF 7F 66  64 69 32 02 80 5C 00 47  .......fdi2..\.G
0A40: 80 5C 01 47 80 5C 02 47  80 5C 03 47 80 46 00 21  .\.G.\.G.\.G.F.!
0A50: 00                                                .               
```

#### Opcodes

```
  0: 0x03FF [0x42] SET_CLI_EVENT_CANCEL_DATA()
  1: 0x0400 [0x1A] CALL_SUBROUTINE(address=0x0C8D)
  2: 0x0403 [0x46] CAMERA_CONTROL: Disable user control
  3: 0x0405 [0x38] SET_CLIENT_EVENT_MODE(mode=19*)
  4: 0x0408 [0x79] LocalPlayer looks at LocalPlayer (Basic look)
  5: 0x0412 [0x27] REQ_SET(priority=0x10, entity_id=Unnamed NPC (ID: 17805314/0x010FB002), tag_num=0x05)
  6: 0x0419 [0x29] REQ_SET_WAIT(priority=0x10, entity_id=Zeid (ID: 17805316/0x010FB004), tag_num=0x04)
  7: 0x0420 [0x29] REQ_SET_WAIT(priority=0x10, entity_id=Aldo (ID: 17805317/0x010FB005), tag_num=0x04)
  8: 0x0427 [0x29] REQ_SET_WAIT(priority=0x10, entity_id=Yve'noile (ID: 17805315/0x010FB003), tag_num=0x02)
  9: 0x042E [0x5B] LOAD_EXT_SCHEDULER: Load scheduler 0xFEFEFE00 with entities [Aldo (ID: 17805317/0x010FB005), Aldo (ID: 17805317/0x010FB005)], work=185*
 10: 0x043D [0x5B] LOAD_EXT_SCHEDULER: Load scheduler 0xFEFEFE00 with entities [Zeid (ID: 17805316/0x010FB004), Zeid (ID: 17805316/0x010FB004)], work=244*
 11: 0x044C [0x5B] LOAD_EXT_SCHEDULER: Load scheduler 0xFEFEFE00 with entities [Yve'noile (ID: 17805315/0x010FB003), Yve'noile (ID: 17805315/0x010FB003)], work=571*
 12: 0x045B [0x5B] LOAD_EXT_SCHEDULER: Load scheduler 0xFEFEFE00 with entities [Yve'noile (ID: 17805315/0x010FB003), Yve'noile (ID: 17805315/0x010FB003)], work=572*
 13: 0x046A [0x62] LOAD_EVENT_SCHEDULER: Load scheduler 0xFEFEFE00 with entities [Yve'noile (ID: 17805315/0x010FB003), Yve'noile (ID: 17805315/0x010FB003)], work=[65*, 0*]
 14: 0x047B [0x62] LOAD_EVENT_SCHEDULER: Load scheduler 0xFEFEFE00 with entities [Unnamed NPC (ID: 17805314/0x010FB002), Unnamed NPC (ID: 17805314/0x010FB002)], work=[62*, 0*]
 15: 0x048C [0x27] REQ_SET(priority=0x10, entity_id=Zeid (ID: 17805316/0x010FB004), tag_num=0x0D)
 16: 0x0493 [0x27] REQ_SET(priority=0x10, entity_id=Aldo (ID: 17805317/0x010FB005), tag_num=0x0D)
 17: 0x049A [0x29] REQ_SET_WAIT(priority=0x10, entity_id=LocalPlayer, tag_num=0x06)
 18: 0x04A1 [0x5C] MUSIC_CONTROL: Set Idle (Day) music to song 206*
 19: 0x04A5 [0x5C] MUSIC_CONTROL: Set Idle (Night) music to song 206*
 20: 0x04A9 [0x5C] MUSIC_CONTROL: Set Combat (Solo) music to song 206*
 21: 0x04AD [0x5C] MUSIC_CONTROL: Set Combat (Party) music to song 206*
 22: 0x04B1 [0x9A] WAIT_MUSIC_SERVER()
 23: 0x04B2 [0x1C] WAIT(3* ticks)
 24: 0x04B5 [0x27] REQ_SET(priority=0x10, entity_id=LocalPlayer, tag_num=0x07)
 25: 0x04BC [0x45] LOAD_SCHEDULED_TASK: Load scheduler "ze08" with entities [LocalPlayer, LocalPlayer], work=[151*, 0*]
 26: 0x04CD [0x1A] CALL_SUBROUTINE(address=0x0CAE)
 27: 0x04D0 [0x29] REQ_SET_WAIT(priority=0x10, entity_id=Zeid (ID: 17805316/0x010FB004), tag_num=0x0E)
 28: 0x04D7 [0x1C] WAIT(15* ticks)
 29: 0x04DA [0x79] LocalPlayer looks at Zeid (ID: 17805316/0x010FB004) (Basic look)
 30: 0x04E4 [0x5B] LOAD_EXT_SCHEDULER: Load scheduler "tkb2" with entities [Zeid (ID: 17805316/0x010FB004), Zeid (ID: 17805316/0x010FB004)], work=244*
 31: 0x04F3 [0x2B] Zeid (ID: 17805316/0x010FB004) [7172*]:
    → "It seems as if we cannot continue on any further."
 32: 0x04FA [0x23] WAIT_FOR_DIALOG_INTERACTION
 33: 0x04FB [0x5B] LOAD_EXT_SCHEDULER: Load scheduler "kos0" with entities [Aldo (ID: 17805317/0x010FB005), Aldo (ID: 17805317/0x010FB005)], work=185*
 34: 0x050A [0x52] END_LOAD_SCHEDULER: End scheduler "ze08" with entities [LocalPlayer, LocalPlayer], work=151*
 35: 0x0519 [0x45] LOAD_SCHEDULED_TASK: Load scheduler "ze09" with entities [LocalPlayer, LocalPlayer], work=[151*, 0*]
 36: 0x052A [0x79] Zeid (ID: 17805316/0x010FB004) looks at Aldo (ID: 17805317/0x010FB005) (Basic look)
 37: 0x0534 [0x79] LocalPlayer looks at Aldo (ID: 17805317/0x010FB005) (Basic look)
 38: 0x053E [0x2B] Aldo (ID: 17805317/0x010FB005) [7173*]:
    → "What's going on? Does this mean our power was not accepted by the crystal?"
 39: 0x0545 [0x23] WAIT_FOR_DIALOG_INTERACTION
 40: 0x0546 [0x1C] WAIT(45* ticks)
 41: 0x0549 [0x2B] Yve'noile (ID: 17805315/0x010FB003) [7174*]:
    → "Long have I awaited thine arrival..."
 42: 0x0550 [0x23] WAIT_FOR_DIALOG_INTERACTION
 43: 0x0551 [0x52] END_LOAD_SCHEDULER: End scheduler "ze09" with entities [LocalPlayer, LocalPlayer], work=151*
 44: 0x0560 [0x45] LOAD_SCHEDULED_TASK: Load scheduler "ze10" with entities [LocalPlayer, LocalPlayer], work=[151*, 0*]
 45: 0x0571 [0x79] LocalPlayer looks at Yve'noile (ID: 17805315/0x010FB003) (Basic look)
 46: 0x057B [0x27] REQ_SET(priority=0x10, entity_id=Zeid (ID: 17805316/0x010FB004), tag_num=0x0F)
 47: 0x0582 [0x27] REQ_SET(priority=0x10, entity_id=Aldo (ID: 17805317/0x010FB005), tag_num=0x0E)
 48: 0x0589 [0x1C] WAIT(15* ticks)
 49: 0x058C [0x27] REQ_SET(priority=0x10, entity_id=Yve'noile (ID: 17805315/0x010FB003), tag_num=0x09)
 50: 0x0593 [0x55] WAIT_LOAD_SCHEDULER: Wait for scheduler "ze10" with entities [LocalPlayer, LocalPlayer], work=151*
 51: 0x05A2 [0x2B] Yve'noile (ID: 17805315/0x010FB003) [7175*]:
    → "Welcome, mortals, to the Temple of Altana. Eons ago, this temple was destroyed. However, its appearance doth not hinder its function."
 52: 0x05A9 [0x23] WAIT_FOR_DIALOG_INTERACTION
 53: 0x05AA [0x2B] Yve'noile (ID: 17805315/0x010FB003) [7176*]:
    → "Thou hast come here to try and stop Eald'narche--to keep him from opening the Gate of the Gods..."
 54: 0x05B1 [0x23] WAIT_FOR_DIALOG_INTERACTION
 55: 0x05B2 [0x2B] Yve'noile (ID: 17805315/0x010FB003) [7177*]:
    → "I am Yve'noile, a servant of the Dawn Goddess. I watch over the path leading to the gate."
 56: 0x05B9 [0x23] WAIT_FOR_DIALOG_INTERACTION
 57: 0x05BA [0x45] LOAD_SCHEDULED_TASK: Load scheduler "ze13" with entities [LocalPlayer, LocalPlayer], work=[151*, 0*]
 58: 0x05CB [0x2B] Yve'noile (ID: 17805315/0x010FB003) [7178*]:
    → "All the Zilart, including Eald'narche, are still bound by our cursed past."
 59: 0x05D2 [0x23] WAIT_FOR_DIALOG_INTERACTION
 60: 0x05D3 [0x2B] Yve'noile (ID: 17805315/0x010FB003) [7179*]:
    → "As thou already know, his plan began ten thousand years ago when he came into contact with the five crystals that rest beneath the surface of Vana'diel. The true crystals..."
 61: 0x05DA [0x23] WAIT_FOR_DIALOG_INTERACTION
 62: 0x05DB [0x52] END_LOAD_SCHEDULER: End scheduler "ze13" with entities [LocalPlayer, LocalPlayer], work=151*
 63: 0x05EA [0x45] LOAD_SCHEDULED_TASK: Load scheduler "ovl1" with entities [LocalPlayer, LocalPlayer], work=[200*, 0*]
 64: 0x05FB [0x45] LOAD_SCHEDULED_TASK: Load scheduler "ze14" with entities [LocalPlayer, LocalPlayer], work=[151*, 0*]
 65: 0x060C [0x62] LOAD_EVENT_SCHEDULER: Load scheduler "sr01" with entities [Unnamed NPC (ID: 17805314/0x010FB002), Unnamed NPC (ID: 17805314/0x010FB002)], work=[62*, 0*]
 66: 0x061D [0x55] WAIT_LOAD_SCHEDULER: Wait for scheduler "ze14" with entities [LocalPlayer, LocalPlayer], work=151*
 67: 0x062C [0x5B] LOAD_EXT_SCHEDULER: Load scheduler "tlk0" with entities [Yve'noile (ID: 17805315/0x010FB003), Yve'noile (ID: 17805315/0x010FB003)], work=571*
 68: 0x063B [0x2B] Yve'noile (ID: 17805315/0x010FB003) [7180*]:
    → "The crystals that exist above the earth now are nothing but mere replicas, lacking true power."
 69: 0x0642 [0x23] WAIT_FOR_DIALOG_INTERACTION
 70: 0x0643 [0x2B] Yve'noile (ID: 17805315/0x010FB003) [7181*]:
    → "We Zilart harnessed the five true crystals' power, divided it elementally, and succeeded in containing it in a smaller form."
 71: 0x064A [0x23] WAIT_FOR_DIALOG_INTERACTION
 72: 0x064B [0x52] END_LOAD_SCHEDULER: End scheduler "ze14" with entities [LocalPlayer, LocalPlayer], work=151*
 73: 0x065A [0x45] LOAD_SCHEDULED_TASK: Load scheduler "ze15" with entities [LocalPlayer, LocalPlayer], work=[151*, 0*]
 74: 0x066B [0x2B] Yve'noile (ID: 17805315/0x010FB003) [7182*]:
    → "However, during the Meltdown, the energy of these smaller crystals was simultaneously released and spread to the far reaches of Vana'diel."
 75: 0x0672 [0x23] WAIT_FOR_DIALOG_INTERACTION
 76: 0x0673 [0x2B] Yve'noile (ID: 17805315/0x010FB003) [7183*]:
    → "Over centuries, that energy accumulated inside the bodies of the living beings on this planet, causing them to crystallize. Thus, they took the form of the crystals that are found throughout Vana'diel."
 77: 0x067A [0x23] WAIT_FOR_DIALOG_INTERACTION
 78: 0x067B [0x52] END_LOAD_SCHEDULER: End scheduler "ze15" with entities [LocalPlayer, LocalPlayer], work=151*
 79: 0x068A [0x27] REQ_SET(priority=0x10, entity_id=Unnamed NPC (ID: 17805314/0x010FB002), tag_num=0x06)
 80: 0x0691 [0x45] LOAD_SCHEDULED_TASK: Load scheduler "ze16" with entities [LocalPlayer, LocalPlayer], work=[151*, 0*]
 81: 0x06A2 [0x5B] LOAD_EXT_SCHEDULER: Load scheduler "tlk1" with entities [Yve'noile (ID: 17805315/0x010FB003), Yve'noile (ID: 17805315/0x010FB003)], work=571*
 82: 0x06B1 [0x53] WAIT_SCHEDULER_TASK: Wait for scheduler "tlk1" with entities [Yve'noile (ID: 17805315/0x010FB003), Yve'noile (ID: 17805315/0x010FB003)]
 83: 0x06BE [0x1C] WAIT(90* ticks)
 84: 0x06C1 [0x5B] LOAD_EXT_SCHEDULER: Load scheduler "utu0" with entities [Yve'noile (ID: 17805315/0x010FB003), Yve'noile (ID: 17805315/0x010FB003)], work=571*
 85: 0x06D0 [0x2B] Yve'noile (ID: 17805315/0x010FB003) [7184*]:
    → "Mortals are an incomplete species. When Eald'narche's quest for Paradise was thwarted, life on this planet lost its perfection."
 86: 0x06D7 [0x23] WAIT_FOR_DIALOG_INTERACTION
 87: 0x06D8 [0x52] END_LOAD_SCHEDULER: End scheduler "ze16" with entities [LocalPlayer, LocalPlayer], work=151*
 88: 0x06E7 [0x45] LOAD_SCHEDULED_TASK: Load scheduler "ze17" with entities [LocalPlayer, LocalPlayer], work=[151*, 0*]
 89: 0x06F8 [0x2B] Yve'noile (ID: 17805315/0x010FB003) [7185*]:
    → "Particularly, thine inability to communicate with the others of thy race casts a shadow over thy development."
 90: 0x06FF [0x23] WAIT_FOR_DIALOG_INTERACTION
 91: 0x0700 [0x2B] Yve'noile (ID: 17805315/0x010FB003) [7186*]:
    → "This inability became increasingly evident after the Meltdown divided thee into the five races."
 92: 0x0707 [0x23] WAIT_FOR_DIALOG_INTERACTION
 93: 0x0708 [0x52] END_LOAD_SCHEDULER: End scheduler "ze17" with entities [LocalPlayer, LocalPlayer], work=151*
 94: 0x0717 [0x45] LOAD_SCHEDULED_TASK: Load scheduler "ze18" with entities [LocalPlayer, LocalPlayer], work=[151*, 0*]
 95: 0x0728 [0x2B] Yve'noile (ID: 17805315/0x010FB003) [7187*]:
    → "The arrogance of the Elvaan, the envy of the Mithra, the cowardice of the Tarutaru, the apathy of the Humes, the rage of the Galka... These are the traits thou must carry with thee as thou make thy journeys through life."
 96: 0x072F [0x23] WAIT_FOR_DIALOG_INTERACTION
 97: 0x0730 [0x2B] Yve'noile (ID: 17805315/0x010FB003) [7188*]:
    → "However, unlike the tales thy legends tell, these traits are not some ancient curse. They are merely an aftereffect of the energy released during the Meltdown."
 98: 0x0737 [0x23] WAIT_FOR_DIALOG_INTERACTION
 99: 0x0738 [0x52] END_LOAD_SCHEDULER: End scheduler "ze18" with entities [LocalPlayer, LocalPlayer], work=151*
100: 0x0747 [0x45] LOAD_SCHEDULED_TASK: Load scheduler "ze19" with entities [LocalPlayer, LocalPlayer], work=[151*, 0*]
101: 0x0758 [0x5B] LOAD_EXT_SCHEDULER: Load scheduler "utu1" with entities [Yve'noile (ID: 17805315/0x010FB003), Yve'noile (ID: 17805315/0x010FB003)], work=571*
102: 0x0767 [0x53] WAIT_SCHEDULER_TASK: Wait for scheduler "utu1" with entities [Yve'noile (ID: 17805315/0x010FB003), Yve'noile (ID: 17805315/0x010FB003)]
103: 0x0774 [0x2B] Yve'noile (ID: 17805315/0x010FB003) [7189*]:
    → "One can understand why Eald'narche would aspire for perfection..."
104: 0x077B [0x23] WAIT_FOR_DIALOG_INTERACTION
105: 0x077C [0x2B] Yve'noile (ID: 17805315/0x010FB003) [7190*]:
    → "However, one can see why others would acknowledge the benefits of imperfection."
106: 0x0783 [0x23] WAIT_FOR_DIALOG_INTERACTION
107: 0x0784 [0x52] END_LOAD_SCHEDULER: End scheduler "ze19" with entities [LocalPlayer, LocalPlayer], work=151*
108: 0x0793 [0x45] LOAD_SCHEDULED_TASK: Load scheduler "ze20" with entities [LocalPlayer, LocalPlayer], work=[151*, 0*]
109: 0x07A4 [0x81] SET_ENTITY_BLINKING(blink_flag=0x00, entity=Yve'noile (ID: 17805315/0x010FB003))
110: 0x07AA [0x5B] LOAD_EXT_SCHEDULER: Load scheduler "tps0" with entities [Yve'noile (ID: 17805315/0x010FB003), Yve'noile (ID: 17805315/0x010FB003)], work=572*
111: 0x07B9 [0x53] WAIT_SCHEDULER_TASK: Wait for scheduler "tps0" with entities [Yve'noile (ID: 17805315/0x010FB003), Yve'noile (ID: 17805315/0x010FB003)]
112: 0x07C6 [0x55] WAIT_LOAD_SCHEDULER: Wait for scheduler "ze20" with entities [LocalPlayer, LocalPlayer], work=151*
113: 0x07D5 [0x45] LOAD_SCHEDULED_TASK: Load scheduler "ze21" with entities [LocalPlayer, LocalPlayer], work=[151*, 0*]
114: 0x07E6 [0x2D] CREATE_ZONE_SCHEDULER_TASK: Create scheduler "open" with entities [Shimmering Circle (ID: 17805319/0x010FB007), Shimmering Circle (ID: 17805319/0x010FB007)]
115: 0x07F3 [0x27] REQ_SET(priority=0x10, entity_id=Zeid (ID: 17805316/0x010FB004), tag_num=0x10)
116: 0x07FA [0x27] REQ_SET(priority=0x10, entity_id=Aldo (ID: 17805317/0x010FB005), tag_num=0x0F)
117: 0x0801 [0x55] WAIT_LOAD_SCHEDULER: Wait for scheduler "ze21" with entities [LocalPlayer, LocalPlayer], work=151*
118: 0x0810 [0x1A] CALL_SUBROUTINE(address=0x0CCF)
119: 0x0813 [0x81] SET_ENTITY_BLINKING(blink_flag=0x01, entity=Yve'noile (ID: 17805315/0x010FB003))
120: 0x0819 [0x5B] LOAD_EXT_SCHEDULER: Load scheduler "tng0" with entities [Yve'noile (ID: 17805315/0x010FB003), Yve'noile (ID: 17805315/0x010FB003)], work=571*
121: 0x0828 [0x6B] STOP_AND_IDLE: Yve'noile (ID: 17805315/0x010FB003) stops current action and resets to idle (animation="id10")
122: 0x0831 [0x1C] WAIT(15* ticks)
123: 0x0834 [0x79] Zeid (ID: 17805316/0x010FB004) looks at Yve'noile (ID: 17805315/0x010FB003) (Basic look)
124: 0x083E [0x79] Aldo (ID: 17805317/0x010FB005) looks at Yve'noile (ID: 17805315/0x010FB003) (Basic look)
125: 0x0848 [0x45] LOAD_SCHEDULED_TASK: Load scheduler "ze24" with entities [LocalPlayer, LocalPlayer], work=[151*, 0*]
126: 0x0859 [0x1A] CALL_SUBROUTINE(address=0x0CAE)
127: 0x085C [0x2B] Yve'noile (ID: 17805315/0x010FB003) [7191*]:
    → "On the other side of this gate lies the Gate of the Gods, Tu'Lia."
128: 0x0863 [0x23] WAIT_FOR_DIALOG_INTERACTION
129: 0x0864 [0x81] SET_ENTITY_BLINKING(blink_flag=0x01, entity=Yve'noile (ID: 17805315/0x010FB003))
130: 0x086A [0x52] END_LOAD_SCHEDULER: End scheduler "ze24" with entities [LocalPlayer, LocalPlayer], work=151*
131: 0x0879 [0x5B] LOAD_EXT_SCHEDULER: Load scheduler "esk0" with entities [Yve'noile (ID: 17805315/0x010FB003), Yve'noile (ID: 17805315/0x010FB003)], work=572*
132: 0x0888 [0x45] LOAD_SCHEDULED_TASK: Load scheduler "ze25" with entities [LocalPlayer, LocalPlayer], work=[151*, 0*]
133: 0x0899 [0x2B] Yve'noile (ID: 17805315/0x010FB003) [7192*]:
    → "I beg of thee. Release Eald'narche, and what remains of the Zilart consciousness, from the crystal's binds. I pray for thy safe journey."
134: 0x08A0 [0x23] WAIT_FOR_DIALOG_INTERACTION
135: 0x08A1 [0x2B] Yve'noile (ID: 17805315/0x010FB003) [7196*]:
    → "May the Goddess of the Dawn protect thee in Her mercy..."
136: 0x08A8 [0x23] WAIT_FOR_DIALOG_INTERACTION
137: 0x08A9 [0x53] WAIT_SCHEDULER_TASK: Wait for scheduler "esk0" with entities [Yve'noile (ID: 17805315/0x010FB003), Yve'noile (ID: 17805315/0x010FB003)]
138: 0x08B6 [0x27] REQ_SET(priority=0x10, entity_id=Yve'noile (ID: 17805315/0x010FB003), tag_num=0x0B)
139: 0x08BD [0x62] LOAD_EVENT_SCHEDULER: Load scheduler "sg01" with entities [Yve'noile (ID: 17805315/0x010FB003), Yve'noile (ID: 17805315/0x010FB003)], work=[65*, 0*]
140: 0x08CE [0x2A] GET_REQ_LEVEL(level=16, entity_id=Yve'noile (ID: 17805315/0x010FB003))
141: 0x08D4 [0x1A] CALL_SUBROUTINE(address=0x0C8D)
142: 0x08D7 [0x48] [System] [7193*]:
    → "But as one bright star shines through the clouds at night..."
143: 0x08DA [0x23] WAIT_FOR_DIALOG_INTERACTION
144: 0x08DB [0x48] [System] [7194*]:
    → "And as one song rings clear above the roar of beasts..."
145: 0x08DE [0x23] WAIT_FOR_DIALOG_INTERACTION
146: 0x08DF [0x48] [System] [7195*]:
    → "We hold to one hope in these darkest of times."
147: 0x08E2 [0x23] WAIT_FOR_DIALOG_INTERACTION
148: 0x08E3 [0x48] [System] [7198*]:
    → ""
149: 0x08E6 [0x23] WAIT_FOR_DIALOG_INTERACTION
150: 0x08E7 [0x27] REQ_SET(priority=0x10, entity_id=Zeid (ID: 17805316/0x010FB004), tag_num=0x11)
151: 0x08EE [0x27] REQ_SET(priority=0x10, entity_id=Aldo (ID: 17805317/0x010FB005), tag_num=0x10)
152: 0x08F5 [0x29] REQ_SET_WAIT(priority=0x10, entity_id=LocalPlayer, tag_num=0x08)
153: 0x08FC [0x92] LocalPlayer->Render.Flags3 ^= 0x01
154: 0x0902 [0x52] END_LOAD_SCHEDULER: End scheduler "ze25" with entities [LocalPlayer, LocalPlayer], work=151*
155: 0x0911 [0x45] LOAD_SCHEDULED_TASK: Load scheduler "ze26" with entities [LocalPlayer, LocalPlayer], work=[151*, 0*]
156: 0x0922 [0x1A] CALL_SUBROUTINE(address=0x0CAE)
157: 0x0925 [0x55] WAIT_LOAD_SCHEDULER: Wait for scheduler "ze26" with entities [LocalPlayer, LocalPlayer], work=151*
158: 0x0934 [0x45] LOAD_SCHEDULED_TASK: Load scheduler "ze27" with entities [LocalPlayer, LocalPlayer], work=[151*, 0*]
159: 0x0945 [0x6E] LocalPlayer uses emote 3*
160: 0x094C [0x99] Wait for LocalPlayer animation to complete
161: 0x0951 [0x99] Wait for LocalPlayer animation to complete
162: 0x0956 [0x62] LOAD_EVENT_SCHEDULER: Load scheduler "main" with entities [LocalPlayer, LocalPlayer], work=[63*, 0*]
163: 0x0967 [0x1C] WAIT(45* ticks)
164: 0x096A [0x27] REQ_SET(priority=0x10, entity_id=Unnamed NPC (ID: 17805314/0x010FB002), tag_num=0x07)
165: 0x0971 [0x55] WAIT_LOAD_SCHEDULER: Wait for scheduler "ze27" with entities [LocalPlayer, LocalPlayer], work=151*
166: 0x0980 [0x1A] CALL_SUBROUTINE(address=0x0CCF)
167: 0x0983 [0x1C] WAIT(45* ticks)
168: 0x0986 [0x48] [System] [7197*]:
    → "And someday, that hope will become our dreams...our prayers..."
169: 0x0989 [0x23] WAIT_FOR_DIALOG_INTERACTION
170: 0x098A [0x48] [System] [7198*]:
    → ""
171: 0x098D [0x23] WAIT_FOR_DIALOG_INTERACTION
172: 0x098E [0x2D] CREATE_ZONE_SCHEDULER_TASK: Create scheduler "ends" with entities [Shimmering Circle (ID: 17805319/0x010FB007), Shimmering Circle (ID: 17805319/0x010FB007)]
173: 0x099B [0x54] WAIT_MAP_SCHEDULER: Wait for scheduler "ends" with entities [Shimmering Circle (ID: 17805319/0x010FB007), Shimmering Circle (ID: 17805319/0x010FB007)]
174: 0x09A8 [0x02] IF !(Work_Zone[8] == 1*) GOTO 0x0A23
175: 0x09B0 [0x29] REQ_SET_WAIT(priority=0x10, entity_id=LocalPlayer, tag_num=0x09)
176: 0x09B7 [0x47] UPDATE_PLAYER_POS(0.087*, 250.692*, 0.109*, yaw=270.1°*)
177: 0x09C1 [0x47] WAIT_PLAYER_POS_UPDATE
178: 0x09C3 [0x92] LocalPlayer->Render.Flags3 = Flags3  // No change (flag=0)
179: 0x09C9 [0x75] LOAD_ROOM(Load indoor room, room=521*)
180: 0x09CD [0x75] LOAD_ROOM(No action)
181: 0x09CF [0x1C] WAIT(15* ticks)
182: 0x09D2 [0x45] LOAD_SCHEDULED_TASK: Load scheduler "ze29" with entities [LocalPlayer, LocalPlayer], work=[151*, 0*]
183: 0x09E3 [0x45] LOAD_SCHEDULED_TASK: Load scheduler "fdi2" with entities [LocalPlayer, LocalPlayer], work=[200*, 0*]
184: 0x09F4 [0x1C] WAIT(60* ticks)
185: 0x09F7 [0x62] LOAD_EVENT_SCHEDULER: Load scheduler "main" with entities [LocalPlayer, LocalPlayer], work=[43*, 0*]
186: 0x0A08 [0x6C] FADE_ENTITY_COLOR(entity_id=LocalPlayer, end_alpha=128*, fade_time=90*)
187: 0x0A11 [0x55] WAIT_LOAD_SCHEDULER: Wait for scheduler "ze29" with entities [LocalPlayer, LocalPlayer], work=151*
188: 0x0A20 [0x01] GOTO 0x0A3D
189: 0x0A23 [0x6C] FADE_ENTITY_COLOR(entity_id=LocalPlayer, end_alpha=128*, fade_time=1*)
190: 0x0A2C [0x45] LOAD_SCHEDULED_TASK: Load scheduler "fdi2" with entities [LocalPlayer, LocalPlayer], work=[200*, 0*]

SUBROUTINE_0A3D:
191: 0x0A3D [0x5C] MUSIC_CONTROL: Set Idle (Day) music to song 213*
192: 0x0A41 [0x5C] MUSIC_CONTROL: Set Idle (Night) music to song 213*
193: 0x0A45 [0x5C] MUSIC_CONTROL: Set Combat (Solo) music to song 213*
194: 0x0A49 [0x5C] MUSIC_CONTROL: Set Combat (Party) music to song 213*
195: 0x0A4D [0x46] CAMERA_CONTROL: Restore default settings
196: 0x0A4F [0x21] END_EVENT
197: 0x0A50 [0x00] END_REQSTACK()
```

### Event 10

#### Metadata

| Field        | Value    |
|--------------|----------|
| Entrypoint   | 0x0A51   |
| Data Size    | 24 bytes |
| Instructions | 7        |

```
      00 01 02 03 04 05 06 07  08 09 0A 0B 0C 0D 0E 0F
      -- -- -- -- -- -- -- --  -- -- -- -- -- -- -- --
0A50:    24 48 80 0A 80 02 80  25 02 00 10 02 80 00 67   $H.....%......g
0A60: 0A 1A 81 0A 01 67 0A 21  00                       .....g.!.       
```

#### Opcodes

```
  0: 0x0A51 [0x24] CREATE_DIALOG(message_id=7211*, default_option=1*, option_flags=0*)
    → "Use the transporting device? [Yes./Not yet.]"
  1: 0x0A58 [0x25] WAIT_DIALOG_SELECT()
  2: 0x0A59 [0x02] IF !(Work_Zone[0] == 0*) GOTO 0x0A67
  3: 0x0A61 [0x1A] CALL_SUBROUTINE(address=0x0A81)
  4: 0x0A64 [0x01] GOTO 0x0A67

SUBROUTINE_0A67:
  5: 0x0A67 [0x21] END_EVENT
  6: 0x0A68 [0x00] END_REQSTACK()
```

### Event 11

#### Metadata

| Field        | Value      |
|--------------|------------|
| Entrypoint   | 0x0A69     |
| Data Size    | 1172 bytes |
| Instructions | 44         |

```
      00 01 02 03 04 05 06 07  08 09 0A 0B 0C 0D 0E 0F
      -- -- -- -- -- -- -- --  -- -- -- -- -- -- -- --
0A60:                             24 48 80 0A 80 02 80           $H.....
0A70: 25 02 00 10 02 80 00 7F  0A 1A A6 0B 01 7F 0A 21  %..............!
0A80: 00 42 43 00 43 01 1A 8D  0C 46 01 38 00 80 79 00  .BC.C....F.8..y.
0A90: F0 FF FF 7F F0 FF FF 7F  29 10 F0 FF FF 7F 08 92  ........).......
0AA0: 01 F0 FF FF 7F 45 01 80  F0 FF FF 7F F0 FF FF 7F  .....E..........
0AB0: 67 74 75 30 02 80 2D 07  B0 0F 01 07 B0 0F 01 6F  gtu0..-........o
0AC0: 70 65 6E 1A 6C 0C 55 01  80 F0 FF FF 7F F0 FF FF  pen.l.U.........
0AD0: 7F 67 74 75 30 45 01 80  F0 FF FF 7F F0 FF FF 7F  .gtu0E..........
0AE0: 7A 65 32 37 02 80 6E F0  FF FF 7F 22 80 99 F0 FF  ze27..n...."....
0AF0: FF 7F 99 F0 FF FF 7F 62  3E 80 F0 FF FF 7F F0 FF  .......b>.......
0B00: FF 7F 6D 61 69 6E 02 80  1C 03 80 27 10 02 B0 0F  ..main.....'....
0B10: 01 07 55 01 80 F0 FF FF  7F F0 FF FF 7F 7A 65 32  ..U..........ze2
0B20: 37 1A CF 0C 1C 49 80 2D  07 B0 0F 01 07 B0 0F 01  7....I.-........
0B30: 65 6E 64 73 54 07 B0 0F  01 07 B0 0F 01 65 6E 64  endsT........end
0B40: 73 29 10 F0 FF FF 7F 09  47 00 40 80 41 80 42 80  s)......G.@.A.B.
0B50: 43 80 47 01 92 00 F0 FF  FF 7F 75 00 44 80 75 01  C.G.......u.D.u.
0B60: 1C 05 80 45 01 80 F0 FF  FF 7F F0 FF FF 7F 7A 65  ...E..........ze
0B70: 32 39 02 80 1A AE 0C 1C  1A 80 62 45 80 F0 FF FF  29........bE....
0B80: 7F F0 FF FF 7F 6D 61 69  6E 02 80 6C F0 FF FF 7F  .....main..l....
0B90: 46 80 2F 80 55 01 80 F0  FF FF 7F F0 FF FF 7F 7A  F./.U..........z
0BA0: 65 32 39 46 00 1B 42 43  00 43 01 1A 8D 0C 46 01  e29F..BC.C....F.
0BB0: 38 00 80 79 00 F0 FF FF  7F F0 FF FF 7F 29 10 F0  8..y.........)..
0BC0: FF FF 7F 09 92 01 F0 FF  FF 7F 45 01 80 F0 FF FF  ..........E.....
0BD0: 7F F0 FF FF 7F 67 67 64  31 02 80 1A AE 0C 1C 2F  .....ggd1....../
0BE0: 80 6E F0 FF FF 7F 22 80  99 F0 FF FF 7F 62 45 80  .n...."......bE.
0BF0: F0 FF FF 7F F0 FF FF 7F  6D 61 69 6E 02 80 1C 49  ........main...I
0C00: 80 1A 8D 0C 55 01 80 F0  FF FF 7F F0 FF FF 7F 67  ....U..........g
0C10: 67 64 31 29 10 F0 FF FF  7F 08 47 00 4A 80 4B 80  gd1)......G.J.K.
0C20: 4C 80 11 80 47 01 92 00  F0 FF FF 7F 75 00 4D 80  L...G.......u.M.
0C30: 75 01 1C 05 80 45 01 80  F0 FF FF 7F F0 FF FF 7F  u....E..........
0C40: 67 67 64 33 02 80 62 45  80 F0 FF FF 7F F0 FF FF  ggd3..bE........
0C50: 7F 6D 61 69 6E 02 80 1A  AE 0C 55 01 80 F0 FF FF  .main.....U.....
0C60: 7F F0 FF FF 7F 67 67 64  33 46 00 1B 45 06 80 F0  .....ggd3F..E...
0C70: FF FF 7F F0 FF FF 7F 66  64 69 30 02 80 55 06 80  .......fdi0..U..
0C80: F0 FF FF 7F F0 FF FF 7F  66 64 69 30 1B 45 06 80  ........fdi0.E..
0C90: F0 FF FF 7F F0 FF FF 7F  66 64 6F 30 02 80 55 06  ........fdo0..U.
0CA0: 80 F0 FF FF 7F F0 FF FF  7F 66 64 6F 30 1B 45 06  .........fdo0.E.
0CB0: 80 F0 FF FF 7F F0 FF FF  7F 66 64 69 31 02 80 55  .........fdi1..U
0CC0: 06 80 F0 FF FF 7F F0 FF  FF 7F 66 64 69 31 1B 45  ..........fdi1.E
0CD0: 06 80 F0 FF FF 7F F0 FF  FF 7F 66 64 6F 31 02 80  ..........fdo1..
0CE0: 55 06 80 F0 FF FF 7F F0  FF FF 7F 66 64 6F 31 1B  U..........fdo1.
0CF0: 45 4E 80 F0 FF FF 7F F0  FF FF 7F 77 68 69 31 02  EN.........whi1.
0D00: 80 55 4E 80 F0 FF FF 7F  F0 FF FF 7F 77 68 69 31  .UN.........whi1
0D10: 1B 45 4E 80 F0 FF FF 7F  F0 FF FF 7F 77 68 6F 31  .EN.........who1
0D20: 02 80 55 4E 80 F0 FF FF  7F F0 FF FF 7F 77 68 6F  ..UN.........who
0D30: 31 1B 45 4E 80 F0 FF FF  7F F0 FF FF 7F 77 68 6F  1.EN.........who
0D40: 32 02 80 55 4E 80 F0 FF  FF 7F F0 FF FF 7F 77 68  2..UN.........wh
0D50: 6F 32 1B 45 4E 80 F0 FF  FF 7F F0 FF FF 7F 77 68  o2.EN.........wh
0D60: 6F 33 02 80 55 4E 80 F0  FF FF 7F F0 FF FF 7F 77  o3..UN.........w
0D70: 68 6F 33 1B 62 0A 80 F0  FF FF 7F F0 FF FF 7F 6D  ho3.b..........m
0D80: 61 69 6E 02 80 1C 03 80  45 06 80 F0 FF FF 7F F0  ain.....E.......
0D90: FF FF 7F 66 64 6F 31 02  80 55 06 80 F0 FF FF 7F  ...fdo1..U......
0DA0: F0 FF FF 7F 66 64 6F 31  1B 45 06 80 F0 FF FF 7F  ....fdo1.E......
0DB0: F0 FF FF 7F 66 64 69 31  02 80 62 4F 80 F0 FF FF  ....fdi1..bO....
0DC0: 7F F0 FF FF 7F 6D 61 69  6E 02 80 1C 49 80 55 06  .....main...I.U.
0DD0: 80 F0 FF FF 7F F0 FF FF  7F 66 64 69 31 1B 45 06  .........fdi1.E.
0DE0: 80 F0 FF FF 7F F0 FF FF  7F 62 6C 6F 6E 02 80 45  .........blon..E
0DF0: 4E 80 F0 FF FF 7F F0 FF  FF 7F 62 6C 6F 6E 02 80  N.........blon..
0E00: 1B 45 4E 80 F0 FF FF 7F  F0 FF FF 7F 77 68 69 30  .EN.........whi0
0E10: 02 80 55 4E 80 F0 FF FF  7F F0 FF FF 7F 77 68 69  ..UN.........whi
0E20: 30 1B 45 4E 80 F0 FF FF  7F F0 FF FF 7F 77 68 6F  0.EN.........who
0E30: 30 02 80 55 4E 80 F0 FF  FF 7F F0 FF FF 7F 77 68  0..UN.........wh
0E40: 6F 30 1B 45 50 80 F0 FF  FF 7F F0 FF FF 7F 65 66  o0.EP.........ef
0E50: 6F 6E 02 80 55 50 80 F0  FF FF 7F F0 FF FF 7F 65  on..UP.........e
0E60: 66 6F 6E 1B 45 06 80 F0  FF FF 7F F0 FF FF 7F 66  fon.E..........f
0E70: 64 69 73 02 80 1B 45 06  80 F0 FF FF 7F F0 FF FF  dis...E.........
0E80: 7F 66 64 6F 73 02 80 55  06 80 F0 FF FF 7F F0 FF  .fdos..U........
0E90: FF 7F 66 64 6F 73 1B 45  06 80 F0 FF FF 7F F0 FF  ..fdos.E........
0EA0: FF 7F 66 64 69 66 02 80  1B 45 06 80 F0 FF FF 7F  ..fdif...E......
0EB0: F0 FF FF 7F 66 64 6F 66  02 80 55 06 80 F0 FF FF  ....fdof..U.....
0EC0: 7F F0 FF FF 7F 66 64 6F  66 1B 45 06 80 F0 FF FF  .....fdof.E.....
0ED0: 7F F0 FF FF 7F 66 64 69  70 02 80 1B 45 06 80 F0  .....fdip...E...
0EE0: FF FF 7F F0 FF FF 7F 66  64 6F 70 02 80 55 06 80  .......fdop..U..
0EF0: F0 FF FF 7F F0 FF FF 7F  66 64 6F 70 1B           ........fdop.   
```

#### Opcodes

```
  0: 0x0A69 [0x24] CREATE_DIALOG(message_id=7211*, default_option=1*, option_flags=0*)
    → "Use the transporting device? [Yes./Not yet.]"
  1: 0x0A70 [0x25] WAIT_DIALOG_SELECT()
  2: 0x0A71 [0x02] IF !(Work_Zone[0] == 0*) GOTO 0x0A7F
  3: 0x0A79 [0x1A] CALL_SUBROUTINE(address=0x0BA6)
  4: 0x0A7C [0x01] GOTO 0x0A7F

SUBROUTINE_0A7F:
  5: 0x0A7F [0x21] END_EVENT
  6: 0x0A80 [0x00] END_REQSTACK()

SUBROUTINE_0BA6:
  7: 0x0BA6 [0x42] SET_CLI_EVENT_CANCEL_DATA()
  8: 0x0BA7 [0x43] SEND_EVENT_UPDATE: Send pending tag to server (packet 0x005B)
  9: 0x0BA9 [0x43] SEND_EVENT_UPDATE: Check pending flag (skip if not pending)
 10: 0x0BAB [0x1A] CALL_SUBROUTINE(address=0x0C8D)
 11: 0x0BAE [0x46] CAMERA_CONTROL: Disable user control
 12: 0x0BB0 [0x38] SET_CLIENT_EVENT_MODE(mode=19*)
 13: 0x0BB3 [0x79] LocalPlayer looks at LocalPlayer (Basic look)
 14: 0x0BBD [0x29] REQ_SET_WAIT(priority=0x10, entity_id=LocalPlayer, tag_num=0x09)
 15: 0x0BC4 [0x92] LocalPlayer->Render.Flags3 ^= 0x01
 16: 0x0BCA [0x45] LOAD_SCHEDULED_TASK: Load scheduler "ggd1" with entities [LocalPlayer, LocalPlayer], work=[151*, 0*]
 17: 0x0BDB [0x1A] CALL_SUBROUTINE(address=0x0CAE)
 18: 0x0BDE [0x1C] WAIT(90* ticks)
 19: 0x0BE1 [0x6E] LocalPlayer uses emote 3*
 20: 0x0BE8 [0x99] Wait for LocalPlayer animation to complete
 21: 0x0BED [0x62] LOAD_EVENT_SCHEDULER: Load scheduler "main" with entities [LocalPlayer, LocalPlayer], work=[43*, 0*]
 22: 0x0BFE [0x1C] WAIT(30* ticks)
 23: 0x0C01 [0x1A] CALL_SUBROUTINE(address=0x0C8D)
 24: 0x0C04 [0x55] WAIT_LOAD_SCHEDULER: Wait for scheduler "ggd1" with entities [LocalPlayer, LocalPlayer], work=151*
 25: 0x0C13 [0x29] REQ_SET_WAIT(priority=0x10, entity_id=LocalPlayer, tag_num=0x08)
 26: 0x0C1A [0x47] UPDATE_PLAYER_POS(0.068*, 149.295*, -20.693*, yaw=90.0°*)
 27: 0x0C24 [0x47] WAIT_PLAYER_POS_UPDATE
 28: 0x0C26 [0x92] LocalPlayer->Render.Flags3 = Flags3  // No change (flag=0)
 29: 0x0C2C [0x75] LOAD_ROOM(Load indoor room, room=520*)
 30: 0x0C30 [0x75] LOAD_ROOM(No action)
 31: 0x0C32 [0x1C] WAIT(15* ticks)
 32: 0x0C35 [0x45] LOAD_SCHEDULED_TASK: Load scheduler "ggd3" with entities [LocalPlayer, LocalPlayer], work=[151*, 0*]
 33: 0x0C46 [0x62] LOAD_EVENT_SCHEDULER: Load scheduler "main" with entities [LocalPlayer, LocalPlayer], work=[43*, 0*]
 34: 0x0C57 [0x1A] CALL_SUBROUTINE(address=0x0CAE)
 35: 0x0C5A [0x55] WAIT_LOAD_SCHEDULER: Wait for scheduler "ggd3" with entities [LocalPlayer, LocalPlayer], work=151*
 36: 0x0C69 [0x46] CAMERA_CONTROL: Restore default settings
 37: 0x0C6B [0x1B] RETURN

SUBROUTINE_0C8D:
 38: 0x0C8D [0x45] LOAD_SCHEDULED_TASK: Load scheduler "fdo0" with entities [LocalPlayer, LocalPlayer], work=[200*, 0*]
 39: 0x0C9E [0x55] WAIT_LOAD_SCHEDULER: Wait for scheduler "fdo0" with entities [LocalPlayer, LocalPlayer], work=200*
 40: 0x0CAD [0x1B] RETURN

SUBROUTINE_0CAE:
 41: 0x0CAE [0x45] LOAD_SCHEDULED_TASK: Load scheduler "fdi1" with entities [LocalPlayer, LocalPlayer], work=[200*, 0*]
 42: 0x0CBF [0x55] WAIT_LOAD_SCHEDULER: Wait for scheduler "fdi1" with entities [LocalPlayer, LocalPlayer], work=200*
 43: 0x0CCE [0x1B] RETURN
```

#### Data or dead code:

```
# Dead code (unreachable instructions):
     0x0A81 [0x42] SET_CLI_EVENT_CANCEL_DATA()
     0x0A82 [0x43] SEND_EVENT_UPDATE: Send pending tag to server (packet 0x005B)
     0x0A84 [0x43] SEND_EVENT_UPDATE: Check pending flag (skip if not pending)
     0x0A86 [0x1A] CALL_SUBROUTINE(address=0x0C8D)
     0x0A89 [0x46] CAMERA_CONTROL: Disable user control
     0x0A8B [0x38] SET_CLIENT_EVENT_MODE(mode=19*)
     0x0A8E [0x79] LocalPlayer looks at LocalPlayer (Basic look)
     0x0A98 [0x29] REQ_SET_WAIT(priority=0x10, entity_id=LocalPlayer, tag_num=0x08)
     0x0A9F [0x92] LocalPlayer->Render.Flags3 ^= 0x01
     0x0AA5 [0x45] LOAD_SCHEDULED_TASK: Load scheduler "gtu0" with entities [LocalPlayer, LocalPlayer], work=[151*, 0*]
     0x0AB6 [0x2D] CREATE_ZONE_SCHEDULER_TASK: Create scheduler "open" with entities [Shimmering Circle (ID: 17805319/0x010FB007), Shimmering Circle (ID: 17805319/0x010FB007)]
     0x0AC3 [0x1A] CALL_SUBROUTINE(address=0x0C6C)
     0x0AC6 [0x55] WAIT_LOAD_SCHEDULER: Wait for scheduler "gtu0" with entities [LocalPlayer, LocalPlayer], work=151*
     0x0AD5 [0x45] LOAD_SCHEDULED_TASK: Load scheduler "ze27" with entities [LocalPlayer, LocalPlayer], work=[151*, 0*]
     0x0AE6 [0x6E] LocalPlayer uses emote 3*
     0x0AED [0x99] Wait for LocalPlayer animation to complete
     0x0AF2 [0x99] Wait for LocalPlayer animation to complete
     0x0AF7 [0x62] LOAD_EVENT_SCHEDULER: Load scheduler "main" with entities [LocalPlayer, LocalPlayer], work=[63*, 0*]
     0x0B08 [0x1C] WAIT(45* ticks)
     0x0B0B [0x27] REQ_SET(priority=0x10, entity_id=Unnamed NPC (ID: 17805314/0x010FB002), tag_num=0x07)
     0x0B12 [0x55] WAIT_LOAD_SCHEDULER: Wait for scheduler "ze27" with entities [LocalPlayer, LocalPlayer], work=151*
     0x0B21 [0x1A] CALL_SUBROUTINE(address=0x0CCF)
     0x0B24 [0x1C] WAIT(30* ticks)
     0x0B27 [0x2D] CREATE_ZONE_SCHEDULER_TASK: Create scheduler "ends" with entities [Shimmering Circle (ID: 17805319/0x010FB007), Shimmering Circle (ID: 17805319/0x010FB007)]
     0x0B34 [0x54] WAIT_MAP_SCHEDULER: Wait for scheduler "ends" with entities [Shimmering Circle (ID: 17805319/0x010FB007), Shimmering Circle (ID: 17805319/0x010FB007)]
     0x0B41 [0x29] REQ_SET_WAIT(priority=0x10, entity_id=LocalPlayer, tag_num=0x09)
     0x0B48 [0x47] UPDATE_PLAYER_POS(0.087*, 250.692*, 0.109*, yaw=270.1°*)
     0x0B52 [0x47] WAIT_PLAYER_POS_UPDATE
     0x0B54 [0x92] LocalPlayer->Render.Flags3 = Flags3  // No change (flag=0)
     0x0B5A [0x75] LOAD_ROOM(Load indoor room, room=521*)
     0x0B5E [0x75] LOAD_ROOM(No action)
     0x0B60 [0x1C] WAIT(15* ticks)
     0x0B63 [0x45] LOAD_SCHEDULED_TASK: Load scheduler "ze29" with entities [LocalPlayer, LocalPlayer], work=[151*, 0*]
     0x0B74 [0x1A] CALL_SUBROUTINE(address=0x0CAE)
     0x0B77 [0x1C] WAIT(60* ticks)
     0x0B7A [0x62] LOAD_EVENT_SCHEDULER: Load scheduler "main" with entities [LocalPlayer, LocalPlayer], work=[43*, 0*]
     0x0B8B [0x6C] FADE_ENTITY_COLOR(entity_id=LocalPlayer, end_alpha=128*, fade_time=90*)
     0x0B94 [0x55] WAIT_LOAD_SCHEDULER: Wait for scheduler "ze29" with entities [LocalPlayer, LocalPlayer], work=151*
     0x0BA3 [0x46] CAMERA_CONTROL: Restore default settings
     0x0BA5 [0x1B] RETURN
# Dead code (unreachable instructions):
     0x0C6C [0x45] LOAD_SCHEDULED_TASK: Load scheduler "fdi0" with entities [LocalPlayer, LocalPlayer], work=[200*, 0*]
     0x0C7D [0x55] WAIT_LOAD_SCHEDULER: Wait for scheduler "fdi0" with entities [LocalPlayer, LocalPlayer], work=200*
     0x0C8C [0x1B] RETURN
# Dead code (unreachable instructions):
     0x0CCF [0x45] LOAD_SCHEDULED_TASK: Load scheduler "fdo1" with entities [LocalPlayer, LocalPlayer], work=[200*, 0*]
     0x0CE0 [0x55] WAIT_LOAD_SCHEDULER: Wait for scheduler "fdo1" with entities [LocalPlayer, LocalPlayer], work=200*
     0x0CEF [0x1B] RETURN
     0x0CF0 [0x45] LOAD_SCHEDULED_TASK: Load scheduler "whi1" with entities [LocalPlayer, LocalPlayer], work=[201*, 0*]
     0x0D01 [0x55] WAIT_LOAD_SCHEDULER: Wait for scheduler "whi1" with entities [LocalPlayer, LocalPlayer], work=201*
     0x0D10 [0x1B] RETURN
     0x0D11 [0x45] LOAD_SCHEDULED_TASK: Load scheduler "who1" with entities [LocalPlayer, LocalPlayer], work=[201*, 0*]
     0x0D22 [0x55] WAIT_LOAD_SCHEDULER: Wait for scheduler "who1" with entities [LocalPlayer, LocalPlayer], work=201*
     0x0D31 [0x1B] RETURN
     0x0D32 [0x45] LOAD_SCHEDULED_TASK: Load scheduler "who2" with entities [LocalPlayer, LocalPlayer], work=[201*, 0*]
     0x0D43 [0x55] WAIT_LOAD_SCHEDULER: Wait for scheduler "who2" with entities [LocalPlayer, LocalPlayer], work=201*
     0x0D52 [0x1B] RETURN
     0x0D53 [0x45] LOAD_SCHEDULED_TASK: Load scheduler "who3" with entities [LocalPlayer, LocalPlayer], work=[201*, 0*]
     0x0D64 [0x55] WAIT_LOAD_SCHEDULER: Wait for scheduler "who3" with entities [LocalPlayer, LocalPlayer], work=201*
     0x0D73 [0x1B] RETURN
     0x0D74 [0x62] LOAD_EVENT_SCHEDULER: Load scheduler "main" with entities [LocalPlayer, LocalPlayer], work=[1*, 0*]
     0x0D85 [0x1C] WAIT(45* ticks)
     0x0D88 [0x45] LOAD_SCHEDULED_TASK: Load scheduler "fdo1" with entities [LocalPlayer, LocalPlayer], work=[200*, 0*]
     0x0D99 [0x55] WAIT_LOAD_SCHEDULER: Wait for scheduler "fdo1" with entities [LocalPlayer, LocalPlayer], work=200*
     0x0DA8 [0x1B] RETURN
     0x0DA9 [0x45] LOAD_SCHEDULED_TASK: Load scheduler "fdi1" with entities [LocalPlayer, LocalPlayer], work=[200*, 0*]
     0x0DBA [0x62] LOAD_EVENT_SCHEDULER: Load scheduler "main" with entities [LocalPlayer, LocalPlayer], work=[2*, 0*]
     0x0DCB [0x1C] WAIT(30* ticks)
     0x0DCE [0x55] WAIT_LOAD_SCHEDULER: Wait for scheduler "fdi1" with entities [LocalPlayer, LocalPlayer], work=200*
     0x0DDD [0x1B] RETURN
     0x0DDE [0x45] LOAD_SCHEDULED_TASK: Load scheduler "blon" with entities [LocalPlayer, LocalPlayer], work=[200*, 0*]
     0x0DEF [0x45] LOAD_SCHEDULED_TASK: Load scheduler "blon" with entities [LocalPlayer, LocalPlayer], work=[201*, 0*]
     0x0E00 [0x1B] RETURN
     0x0E01 [0x45] LOAD_SCHEDULED_TASK: Load scheduler "whi0" with entities [LocalPlayer, LocalPlayer], work=[201*, 0*]
     0x0E12 [0x55] WAIT_LOAD_SCHEDULER: Wait for scheduler "whi0" with entities [LocalPlayer, LocalPlayer], work=201*
     0x0E21 [0x1B] RETURN
     0x0E22 [0x45] LOAD_SCHEDULED_TASK: Load scheduler "who0" with entities [LocalPlayer, LocalPlayer], work=[201*, 0*]
     0x0E33 [0x55] WAIT_LOAD_SCHEDULER: Wait for scheduler "who0" with entities [LocalPlayer, LocalPlayer], work=201*
     0x0E42 [0x1B] RETURN
     0x0E43 [0x45] LOAD_SCHEDULED_TASK: Load scheduler "efon" with entities [LocalPlayer, LocalPlayer], work=[215*, 0*]
     0x0E54 [0x55] WAIT_LOAD_SCHEDULER: Wait for scheduler "efon" with entities [LocalPlayer, LocalPlayer], work=215*
     0x0E63 [0x1B] RETURN
     0x0E64 [0x45] LOAD_SCHEDULED_TASK: Load scheduler "fdis" with entities [LocalPlayer, LocalPlayer], work=[200*, 0*]
     0x0E75 [0x1B] RETURN
     0x0E76 [0x45] LOAD_SCHEDULED_TASK: Load scheduler "fdos" with entities [LocalPlayer, LocalPlayer], work=[200*, 0*]
     0x0E87 [0x55] WAIT_LOAD_SCHEDULER: Wait for scheduler "fdos" with entities [LocalPlayer, LocalPlayer], work=200*
     0x0E96 [0x1B] RETURN
     0x0E97 [0x45] LOAD_SCHEDULED_TASK: Load scheduler "fdif" with entities [LocalPlayer, LocalPlayer], work=[200*, 0*]
     0x0EA8 [0x1B] RETURN
     0x0EA9 [0x45] LOAD_SCHEDULED_TASK: Load scheduler "fdof" with entities [LocalPlayer, LocalPlayer], work=[200*, 0*]
     0x0EBA [0x55] WAIT_LOAD_SCHEDULER: Wait for scheduler "fdof" with entities [LocalPlayer, LocalPlayer], work=200*
     0x0EC9 [0x1B] RETURN
     0x0ECA [0x45] LOAD_SCHEDULED_TASK: Load scheduler "fdip" with entities [LocalPlayer, LocalPlayer], work=[200*, 0*]
     0x0EDB [0x1B] RETURN
     0x0EDC [0x45] LOAD_SCHEDULED_TASK: Load scheduler "fdop" with entities [LocalPlayer, LocalPlayer], work=[200*, 0*]
     0x0EED [0x55] WAIT_LOAD_SCHEDULER: Wait for scheduler "fdop" with entities [LocalPlayer, LocalPlayer], work=200*
     0x0EFC [0x1B] RETURN
```
