# 17805343

## Common Data

| Field            | Value                      |
|------------------|----------------------------|
| Zone             | Hall of the Gods (ID: 251) |
| Block Size       | 192 bytes                  |
| Total Events     | 8                          |
| References Count | 5                          |

## List of Events

| Event ID                 | Entrypoint   |   Size |   Instructions |
|--------------------------|--------------|--------|----------------|
| [65535](#event-65535)    | 0x0000       |      1 |              1 |
| [6](#event-6)            | 0x0001       |      1 |              1 |
| [7](#event-7)            | 0x0002       |      1 |              1 |
| [8](#event-8)            | 0x0003       |      1 |              1 |
| [9](#event-9)            | 0x0004       |      1 |              1 |
| [65535.1](#event-655351) | 0x0005       |     10 |              2 |
| [65535.2](#event-655352) | 0x000F       |     41 |              9 |
| [65535.3](#event-655353) | 0x0038       |     65 |             13 |

## DAT References (imed_data)

|   Index | Hex Value   |   Dec Value |
|---------|-------------|-------------|
|       0 | 0x0000      |           0 |
|       1 | 0x0078      |         120 |
|       2 | 0x005A      |          90 |
|       3 | 0x001E      |          30 |
|       4 | 0x0096      |         150 |

## Events

### Event 65535

#### Metadata

| Field        | Value   |
|--------------|---------|
| Entrypoint   | 0x0000  |
| Data Size    | 1 bytes |
| Instructions | 1       |

```
      00 01 02 03 04 05 06 07  08 09 0A 0B 0C 0D 0E 0F
      -- -- -- -- -- -- -- --  -- -- -- -- -- -- -- --
0000: 00                                                .               
```

#### Opcodes

```
  0: 0x0000 [0x00] END_REQSTACK()
```

### Event 6

#### Metadata

| Field        | Value   |
|--------------|---------|
| Entrypoint   | 0x0001  |
| Data Size    | 1 bytes |
| Instructions | 1       |

```
      00 01 02 03 04 05 06 07  08 09 0A 0B 0C 0D 0E 0F
      -- -- -- -- -- -- -- --  -- -- -- -- -- -- -- --
0000:    00                                              .              
```

#### Opcodes

```
  0: 0x0001 [0x00] END_REQSTACK()
```

### Event 7

#### Metadata

| Field        | Value   |
|--------------|---------|
| Entrypoint   | 0x0002  |
| Data Size    | 1 bytes |
| Instructions | 1       |

```
      00 01 02 03 04 05 06 07  08 09 0A 0B 0C 0D 0E 0F
      -- -- -- -- -- -- -- --  -- -- -- -- -- -- -- --
0000:       00                                            .             
```

#### Opcodes

```
  0: 0x0002 [0x00] END_REQSTACK()
```

### Event 8

#### Metadata

| Field        | Value   |
|--------------|---------|
| Entrypoint   | 0x0003  |
| Data Size    | 1 bytes |
| Instructions | 1       |

```
      00 01 02 03 04 05 06 07  08 09 0A 0B 0C 0D 0E 0F
      -- -- -- -- -- -- -- --  -- -- -- -- -- -- -- --
0000:          00                                          .            
```

#### Opcodes

```
  0: 0x0003 [0x00] END_REQSTACK()
```

### Event 9

#### Metadata

| Field        | Value   |
|--------------|---------|
| Entrypoint   | 0x0004  |
| Data Size    | 1 bytes |
| Instructions | 1       |

```
      00 01 02 03 04 05 06 07  08 09 0A 0B 0C 0D 0E 0F
      -- -- -- -- -- -- -- --  -- -- -- -- -- -- -- --
0000:             00                                        .           
```

#### Opcodes

```
  0: 0x0004 [0x00] END_REQSTACK()
```

### Event 65535.1

#### Metadata

| Field        | Value    |
|--------------|----------|
| Entrypoint   | 0x0005   |
| Data Size    | 10 bytes |
| Instructions | 2        |

```
      00 01 02 03 04 05 06 07  08 09 0A 0B 0C 0D 0E 0F
      -- -- -- -- -- -- -- --  -- -- -- -- -- -- -- --
0000:                6C 1D B0  0F 01 00 80 01 80 00          l......... 
```

#### Opcodes

```
  0: 0x0005 [0x6C] FADE_ENTITY_COLOR(entity_id=Unnamed NPC (ID: 17805341/0x010FB01D), end_alpha=0*, fade_time=120*)
  1: 0x000E [0x00] END_REQSTACK()
```

### Event 65535.2

#### Metadata

| Field        | Value    |
|--------------|----------|
| Entrypoint   | 0x000F   |
| Data Size    | 41 bytes |
| Instructions | 9        |

```
      00 01 02 03 04 05 06 07  08 09 0A 0B 0C 0D 0E 0F
      -- -- -- -- -- -- -- --  -- -- -- -- -- -- -- --
0000:                                               27                 '
0010: 10 20 B0 0F 01 0A 1C 02  80 27 10 21 B0 0F 01 0A  . .......'.!....
0020: 1C 02 80 27 10 22 B0 0F  01 0A 1C 02 80 27 10 23  ...'.".......'.#
0030: B0 0F 01 0A 1C 02 80 00                           ........        
```

#### Opcodes

```
  0: 0x000F [0x27] REQ_SET(priority=0x10, entity_id=Unnamed NPC (ID: 17805344/0x010FB020), tag_num=0x0A)
  1: 0x0016 [0x1C] WAIT(90* ticks)
  2: 0x0019 [0x27] REQ_SET(priority=0x10, entity_id=Unnamed NPC (ID: 17805345/0x010FB021), tag_num=0x0A)
  3: 0x0020 [0x1C] WAIT(90* ticks)
  4: 0x0023 [0x27] REQ_SET(priority=0x10, entity_id=Unnamed NPC (ID: 17805346/0x010FB022), tag_num=0x0A)
  5: 0x002A [0x1C] WAIT(90* ticks)
  6: 0x002D [0x27] REQ_SET(priority=0x10, entity_id=Unnamed NPC (ID: 17805347/0x010FB023), tag_num=0x0A)
  7: 0x0034 [0x1C] WAIT(90* ticks)
  8: 0x0037 [0x00] END_REQSTACK()
```

### Event 65535.3

#### Metadata

| Field        | Value    |
|--------------|----------|
| Entrypoint   | 0x0038   |
| Data Size    | 65 bytes |
| Instructions | 13       |

```
      00 01 02 03 04 05 06 07  08 09 0A 0B 0C 0D 0E 0F
      -- -- -- -- -- -- -- --  -- -- -- -- -- -- -- --
0030:                          27 10 20 B0 0F 01 0B 1C          '. .....
0040: 03 80 27 10 21 B0 0F 01  0B 1C 03 80 27 10 22 B0  ..'.!.......'.".
0050: 0F 01 0B 1C 03 80 27 10  23 B0 0F 01 0B 1C 04 80  ......'.#.......
0060: 4E 01 20 B0 0F 01 4E 01  21 B0 0F 01 4E 01 22 B0  N. ...N.!...N.".
0070: 0F 01 4E 01 23 B0 0F 01  00                       ..N.#....       
```

#### Opcodes

```
  0: 0x0038 [0x27] REQ_SET(priority=0x10, entity_id=Unnamed NPC (ID: 17805344/0x010FB020), tag_num=0x0B)
  1: 0x003F [0x1C] WAIT(30* ticks)
  2: 0x0042 [0x27] REQ_SET(priority=0x10, entity_id=Unnamed NPC (ID: 17805345/0x010FB021), tag_num=0x0B)
  3: 0x0049 [0x1C] WAIT(30* ticks)
  4: 0x004C [0x27] REQ_SET(priority=0x10, entity_id=Unnamed NPC (ID: 17805346/0x010FB022), tag_num=0x0B)
  5: 0x0053 [0x1C] WAIT(30* ticks)
  6: 0x0056 [0x27] REQ_SET(priority=0x10, entity_id=Unnamed NPC (ID: 17805347/0x010FB023), tag_num=0x0B)
  7: 0x005D [0x1C] WAIT(150* ticks)
  8: 0x0060 [0x4E] SET_ENTITY_HIDE_FLAG: Hide Unnamed NPC (ID: 17805344/0x010FB020)
  9: 0x0066 [0x4E] SET_ENTITY_HIDE_FLAG: Hide Unnamed NPC (ID: 17805345/0x010FB021)
 10: 0x006C [0x4E] SET_ENTITY_HIDE_FLAG: Hide Unnamed NPC (ID: 17805346/0x010FB022)
 11: 0x0072 [0x4E] SET_ENTITY_HIDE_FLAG: Hide Unnamed NPC (ID: 17805347/0x010FB023)
 12: 0x0078 [0x00] END_REQSTACK()
```
