# 17805316 - Zeid

## Common Data

| Field            | Value                      |
|------------------|----------------------------|
| Zone             | Hall of the Gods (ID: 251) |
| Block Size       | 388 bytes                  |
| Total Events     | 18                         |
| References Count | 26                         |

## List of Events

| Event ID                   | Entrypoint   |   Size |   Instructions |
|----------------------------|--------------|--------|----------------|
| [65535](#event-65535)      | 0x0000       |      1 |              1 |
| [0](#event-0)              | 0x0001       |      1 |              1 |
| [65535.1](#event-655351)   | 0x0002       |     18 |              4 |
| [65535.2](#event-655352)   | 0x0014       |     10 |              2 |
| [65535.3](#event-655353)   | 0x001E       |      9 |              3 |
| [65535.4](#event-655354)   | 0x0027       |      9 |              3 |
| [65535.5](#event-655355)   | 0x0030       |     10 |              2 |
| [65535.6](#event-655356)   | 0x003A       |     10 |              2 |
| [4](#event-4)              | 0x0044       |      1 |              1 |
| [3](#event-3)              | 0x0045       |      1 |              1 |
| [65535.7](#event-655357)   | 0x0046       |     16 |              3 |
| [65535.8](#event-655358)   | 0x0056       |     18 |              6 |
| [65535.9](#event-655359)   | 0x0068       |     18 |              6 |
| [65535.10](#event-6553510) | 0x007A       |     16 |              3 |
| [65535.11](#event-6553511) | 0x008A       |     18 |              6 |
| [65535.12](#event-6553512) | 0x009C       |      6 |              2 |
| [65535.13](#event-6553513) | 0x00A2       |      6 |              2 |
| [65535.14](#event-6553514) | 0x00A8       |     25 |              3 |

## DAT References (imed_data)

|   Index | Hex Value   |   Dec Value |
|---------|-------------|-------------|
|       0 | 0x0000      |           0 |
|       1 | 0x0001      |           1 |
|       2 | 0x0080      |         128 |
|       3 | 0xFFFFFCED  |  4294966509 |
|       4 | 0xA39D      |       41885 |
|       5 | 0xFFFFCFF4  |  4294954996 |
|       6 | 0x0C0B      |        3083 |
|       7 | 0x0002      |           2 |
|       8 | 0x000A      |          10 |
|       9 | 0xFFFFFD35  |  4294966581 |
|      10 | 0xB2EA      |       45802 |
|      11 | 0x0003      |           3 |
|      12 | 0x000C      |          12 |
|      13 | 0xFFFFFC36  |  4294966326 |
|      14 | 0xC914      |       51476 |
|      15 | 0xFFFFEEC2  |  4294962882 |
|      16 | 0x24BAC     |      150444 |
|      17 | 0xFFFFAF2B  |  4294946603 |
|      18 | 0x01C8      |         456 |
|      19 | 0x000B      |          11 |
|      20 | 0xFFFFF7D3  |  4294965203 |
|      21 | 0x242F1     |      148209 |
|      22 | 0xFFFFFC7F  |  4294966399 |
|      23 | 0x23571     |      144753 |
|      24 | 0x0E23      |        3619 |
|      25 | 0x00F4      |         244 |

## Events

### Event 65535

#### Metadata

| Field        | Value   |
|--------------|---------|
| Entrypoint   | 0x0000  |
| Data Size    | 1 bytes |
| Instructions | 1       |

```
      00 01 02 03 04 05 06 07  08 09 0A 0B 0C 0D 0E 0F
      -- -- -- -- -- -- -- --  -- -- -- -- -- -- -- --
0000: 00                                                .               
```

#### Opcodes

```
  0: 0x0000 [0x00] END_REQSTACK()
```

### Event 0

#### Metadata

| Field        | Value   |
|--------------|---------|
| Entrypoint   | 0x0001  |
| Data Size    | 1 bytes |
| Instructions | 1       |

```
      00 01 02 03 04 05 06 07  08 09 0A 0B 0C 0D 0E 0F
      -- -- -- -- -- -- -- --  -- -- -- -- -- -- -- --
0000:    00                                              .              
```

#### Opcodes

```
  0: 0x0001 [0x00] END_REQSTACK()
```

### Event 65535.1

#### Metadata

| Field        | Value    |
|--------------|----------|
| Entrypoint   | 0x0002   |
| Data Size    | 18 bytes |
| Instructions | 4        |

```
      00 01 02 03 04 05 06 07  08 09 0A 0B 0C 0D 0E 0F
      -- -- -- -- -- -- -- --  -- -- -- -- -- -- -- --
0000:       22 00 2F 00 F8 FF  FF 7F 6C F8 FF FF 7F 00    "./.....l.....
0010: 80 01 80 00                                       ....            
```

#### Opcodes

```
  0: 0x0002 [0x22] ENTITY_HIDE_FLAG(enabled=0x00)
  1: 0x0004 [0x2F] EventEntity->Render.Flags0 &= ~0x80000 // Bit 19
  2: 0x000A [0x6C] FADE_ENTITY_COLOR(entity_id=EventEntity, end_alpha=0*, fade_time=1*)
  3: 0x0013 [0x00] END_REQSTACK()
```

### Event 65535.2

#### Metadata

| Field        | Value    |
|--------------|----------|
| Entrypoint   | 0x0014   |
| Data Size    | 10 bytes |
| Instructions | 2        |

```
      00 01 02 03 04 05 06 07  08 09 0A 0B 0C 0D 0E 0F
      -- -- -- -- -- -- -- --  -- -- -- -- -- -- -- --
0010:             6C F8 FF FF  7F 02 80 01 80 00            l.........  
```

#### Opcodes

```
  0: 0x0014 [0x6C] FADE_ENTITY_COLOR(entity_id=EventEntity, end_alpha=128*, fade_time=1*)
  1: 0x001D [0x00] END_REQSTACK()
```

### Event 65535.3

#### Metadata

| Field        | Value   |
|--------------|---------|
| Entrypoint   | 0x001E  |
| Data Size    | 9 bytes |
| Instructions | 3       |

```
      00 01 02 03 04 05 06 07  08 09 0A 0B 0C 0D 0E 0F
      -- -- -- -- -- -- -- --  -- -- -- -- -- -- -- --
0010:                                            22 00                ".
0020: 2F 00 F8 FF FF 7F 00                              /......         
```

#### Opcodes

```
  0: 0x001E [0x22] ENTITY_HIDE_FLAG(enabled=0x00)
  1: 0x0020 [0x2F] EventEntity->Render.Flags0 &= ~0x80000 // Bit 19
  2: 0x0026 [0x00] END_REQSTACK()
```

### Event 65535.4

#### Metadata

| Field        | Value   |
|--------------|---------|
| Entrypoint   | 0x0027  |
| Data Size    | 9 bytes |
| Instructions | 3       |

```
      00 01 02 03 04 05 06 07  08 09 0A 0B 0C 0D 0E 0F
      -- -- -- -- -- -- -- --  -- -- -- -- -- -- -- --
0020:                      22  01 2F 01 F8 FF FF 7F 00         "./......
```

#### Opcodes

```
  0: 0x0027 [0x22] ENTITY_HIDE_FLAG(enabled=0x01)
  1: 0x0029 [0x2F] EventEntity->Render.Flags0 |= 0x80000 // Bit 19
  2: 0x002F [0x00] END_REQSTACK()
```

### Event 65535.5

#### Metadata

| Field        | Value    |
|--------------|----------|
| Entrypoint   | 0x0030   |
| Data Size    | 10 bytes |
| Instructions | 2        |

```
      00 01 02 03 04 05 06 07  08 09 0A 0B 0C 0D 0E 0F
      -- -- -- -- -- -- -- --  -- -- -- -- -- -- -- --
0030: 6C F8 FF FF 7F 00 80 01  80 00                    l.........      
```

#### Opcodes

```
  0: 0x0030 [0x6C] FADE_ENTITY_COLOR(entity_id=EventEntity, end_alpha=0*, fade_time=1*)
  1: 0x0039 [0x00] END_REQSTACK()
```

### Event 65535.6

#### Metadata

| Field        | Value    |
|--------------|----------|
| Entrypoint   | 0x003A   |
| Data Size    | 10 bytes |
| Instructions | 2        |

```
      00 01 02 03 04 05 06 07  08 09 0A 0B 0C 0D 0E 0F
      -- -- -- -- -- -- -- --  -- -- -- -- -- -- -- --
0030:                                6C F8 FF FF 7F 02            l.....
0040: 80 01 80 00                                       ....            
```

#### Opcodes

```
  0: 0x003A [0x6C] FADE_ENTITY_COLOR(entity_id=EventEntity, end_alpha=128*, fade_time=1*)
  1: 0x0043 [0x00] END_REQSTACK()
```

### Event 4

#### Metadata

| Field        | Value   |
|--------------|---------|
| Entrypoint   | 0x0044  |
| Data Size    | 1 bytes |
| Instructions | 1       |

```
      00 01 02 03 04 05 06 07  08 09 0A 0B 0C 0D 0E 0F
      -- -- -- -- -- -- -- --  -- -- -- -- -- -- -- --
0040:             00                                        .           
```

#### Opcodes

```
  0: 0x0044 [0x00] END_REQSTACK()
```

### Event 3

#### Metadata

| Field        | Value   |
|--------------|---------|
| Entrypoint   | 0x0045  |
| Data Size    | 1 bytes |
| Instructions | 1       |

```
      00 01 02 03 04 05 06 07  08 09 0A 0B 0C 0D 0E 0F
      -- -- -- -- -- -- -- --  -- -- -- -- -- -- -- --
0040:                00                                      .          
```

#### Opcodes

```
  0: 0x0045 [0x00] END_REQSTACK()
```

### Event 65535.7

#### Metadata

| Field        | Value    |
|--------------|----------|
| Entrypoint   | 0x0046   |
| Data Size    | 16 bytes |
| Instructions | 3        |

```
      00 01 02 03 04 05 06 07  08 09 0A 0B 0C 0D 0E 0F
      -- -- -- -- -- -- -- --  -- -- -- -- -- -- -- --
0040:                   92 01  04 B0 0F 01 37 03 80 04        ......7...
0050: 80 05 80 06 80 00                                 ......          
```

#### Opcodes

```
  0: 0x0046 [0x92] Zeid (ID: 17805316/0x010FB004)->Render.Flags3 ^= 0x01
  1: 0x004C [0x37] UPDATE_EVENT_POSITION_AND_DIR: x=-0.787*, z=41.885*, y=-12.300*, direction=271.0°*
  2: 0x0055 [0x00] END_REQSTACK()
```

### Event 65535.8

#### Metadata

| Field        | Value    |
|--------------|----------|
| Entrypoint   | 0x0056   |
| Data Size    | 18 bytes |
| Instructions | 6        |

```
      00 01 02 03 04 05 06 07  08 09 0A 0B 0C 0D 0E 0F
      -- -- -- -- -- -- -- --  -- -- -- -- -- -- -- --
0050:                   1C 07  80 32 08 80 1F 00 09 80        ...2......
0060: 0A 80 05 80 1F 01 6F 00                           ......o.        
```

#### Opcodes

```
  0: 0x0056 [0x1C] WAIT(2* ticks)
  1: 0x0059 [0x32] ExtData[1]->MainSpeed = 10* * 0.1
  2: 0x005C [0x1F] MOVE_ENTITY: EventEntity moves to X=-0.715*, Z=45.802*, Y=-12.300*
  3: 0x0064 [0x1F] MOVE_ENTITY: Update entity position (mode=1)
  4: 0x0066 [0x6F] WAIT_FRAME_DELAY: Yield until WaitTime reaches zero
  5: 0x0067 [0x00] END_REQSTACK()
```

### Event 65535.9

#### Metadata

| Field        | Value    |
|--------------|----------|
| Entrypoint   | 0x0068   |
| Data Size    | 18 bytes |
| Instructions | 6        |

```
      00 01 02 03 04 05 06 07  08 09 0A 0B 0C 0D 0E 0F
      -- -- -- -- -- -- -- --  -- -- -- -- -- -- -- --
0060:                          1C 0B 80 32 0C 80 1F 00          ...2....
0070: 0D 80 0E 80 05 80 1F 01  6F 00                    ........o.      
```

#### Opcodes

```
  0: 0x0068 [0x1C] WAIT(3* ticks)
  1: 0x006B [0x32] ExtData[1]->MainSpeed = 12* * 0.1
  2: 0x006E [0x1F] MOVE_ENTITY: EventEntity moves to X=-0.970*, Z=51.476*, Y=-12.300*
  3: 0x0076 [0x1F] MOVE_ENTITY: Update entity position (mode=1)
  4: 0x0078 [0x6F] WAIT_FRAME_DELAY: Yield until WaitTime reaches zero
  5: 0x0079 [0x00] END_REQSTACK()
```

### Event 65535.10

#### Metadata

| Field        | Value    |
|--------------|----------|
| Entrypoint   | 0x007A   |
| Data Size    | 16 bytes |
| Instructions | 3        |

```
      00 01 02 03 04 05 06 07  08 09 0A 0B 0C 0D 0E 0F
      -- -- -- -- -- -- -- --  -- -- -- -- -- -- -- --
0070:                                92 01 04 B0 0F 01            ......
0080: 37 0F 80 10 80 11 80 12  80 00                    7.........      
```

#### Opcodes

```
  0: 0x007A [0x92] Zeid (ID: 17805316/0x010FB004)->Render.Flags3 ^= 0x01
  1: 0x0080 [0x37] UPDATE_EVENT_POSITION_AND_DIR: x=-4.414*, z=150.444*, y=-20.693*, direction=40.1°*
  2: 0x0089 [0x00] END_REQSTACK()
```

### Event 65535.11

#### Metadata

| Field        | Value    |
|--------------|----------|
| Entrypoint   | 0x008A   |
| Data Size    | 18 bytes |
| Instructions | 6        |

```
      00 01 02 03 04 05 06 07  08 09 0A 0B 0C 0D 0E 0F
      -- -- -- -- -- -- -- --  -- -- -- -- -- -- -- --
0080:                                1C 07 80 32 13 80            ...2..
0090: 1F 00 14 80 15 80 11 80  1F 01 6F 00              ..........o.    
```

#### Opcodes

```
  0: 0x008A [0x1C] WAIT(2* ticks)
  1: 0x008D [0x32] ExtData[1]->MainSpeed = 11* * 0.1
  2: 0x0090 [0x1F] MOVE_ENTITY: EventEntity moves to X=-2.093*, Z=148.209*, Y=-20.693*
  3: 0x0098 [0x1F] MOVE_ENTITY: Update entity position (mode=1)
  4: 0x009A [0x6F] WAIT_FRAME_DELAY: Yield until WaitTime reaches zero
  5: 0x009B [0x00] END_REQSTACK()
```

### Event 65535.12

#### Metadata

| Field        | Value   |
|--------------|---------|
| Entrypoint   | 0x009C  |
| Data Size    | 6 bytes |
| Instructions | 2       |

```
      00 01 02 03 04 05 06 07  08 09 0A 0B 0C 0D 0E 0F
      -- -- -- -- -- -- -- --  -- -- -- -- -- -- -- --
0090:                                      1E 03 B0 0F              ....
00A0: 01 00                                             ..              
```

#### Opcodes

```
  0: 0x009C [0x1E] EventEntity looks at Yve'noile (ID: 17805315/0x010FB003) and starts talking
  1: 0x00A1 [0x00] END_REQSTACK()
```

### Event 65535.13

#### Metadata

| Field        | Value   |
|--------------|---------|
| Entrypoint   | 0x00A2  |
| Data Size    | 6 bytes |
| Instructions | 2       |

```
      00 01 02 03 04 05 06 07  08 09 0A 0B 0C 0D 0E 0F
      -- -- -- -- -- -- -- --  -- -- -- -- -- -- -- --
00A0:       1E 07 B0 0F 01 00                             ......        
```

#### Opcodes

```
  0: 0x00A2 [0x1E] EventEntity looks at Shimmering Circle (ID: 17805319/0x010FB007) and starts talking
  1: 0x00A7 [0x00] END_REQSTACK()
```

### Event 65535.14

#### Metadata

| Field        | Value    |
|--------------|----------|
| Entrypoint   | 0x00A8   |
| Data Size    | 25 bytes |
| Instructions | 3        |

```
      00 01 02 03 04 05 06 07  08 09 0A 0B 0C 0D 0E 0F
      -- -- -- -- -- -- -- --  -- -- -- -- -- -- -- --
00A0:                          37 16 80 17 80 11 80 18          7.......
00B0: 80 5B 19 80 04 B0 0F 01  04 B0 0F 01 75 64 65 30  .[..........ude0
00C0: 00                                                .               
```

#### Opcodes

```
  0: 0x00A8 [0x37] UPDATE_EVENT_POSITION_AND_DIR: x=-0.897*, z=144.753*, y=-20.693*, direction=318.1°*
  1: 0x00B1 [0x5B] LOAD_EXT_SCHEDULER: Load scheduler "ude0" with entities [Zeid (ID: 17805316/0x010FB004), Zeid (ID: 17805316/0x010FB004)], work=244*
  2: 0x00C0 [0x00] END_REQSTACK()
```
