# 17805334 - Mathilde

## Common Data

| Field            | Value                      |
|------------------|----------------------------|
| Zone             | Hall of the Gods (ID: 251) |
| Block Size       | 196 bytes                  |
| Total Events     | 9                          |
| References Count | 6                          |

## List of Events

| Event ID                 | Entrypoint   |   Size |   Instructions |
|--------------------------|--------------|--------|----------------|
| [65535](#event-65535)    | 0x0000       |      1 |              1 |
| [5](#event-5)            | 0x0001       |      4 |              2 |
| [65535.1](#event-655351) | 0x0005       |     16 |              2 |
| [65535.2](#event-655352) | 0x0015       |     16 |              2 |
| [65535.3](#event-655353) | 0x0025       |     16 |              2 |
| [65535.4](#event-655354) | 0x0035       |     16 |              2 |
| [65535.5](#event-655355) | 0x0045       |     16 |              2 |
| [65535.6](#event-655356) | 0x0055       |     16 |              2 |
| [65535.7](#event-655357) | 0x0065       |     16 |              2 |

## DAT References (imed_data)

|   Index | Hex Value   |   Dec Value |
|---------|-------------|-------------|
|       0 | 0x0001      |           1 |
|       1 | 0x000C      |          12 |
|       2 | 0x0A14      |        2580 |
|       3 | 0x0A15      |        2581 |
|       4 | 0x0A39      |        2617 |
|       5 | 0x0A19      |        2585 |

## Events

### Event 65535

#### Metadata

| Field        | Value   |
|--------------|---------|
| Entrypoint   | 0x0000  |
| Data Size    | 1 bytes |
| Instructions | 1       |

```
      00 01 02 03 04 05 06 07  08 09 0A 0B 0C 0D 0E 0F
      -- -- -- -- -- -- -- --  -- -- -- -- -- -- -- --
0000: 00                                                .               
```

#### Opcodes

```
  0: 0x0000 [0x00] END_REQSTACK()
```

### Event 5

#### Metadata

| Field        | Value   |
|--------------|---------|
| Entrypoint   | 0x0001  |
| Data Size    | 4 bytes |
| Instructions | 2       |

```
      00 01 02 03 04 05 06 07  08 09 0A 0B 0C 0D 0E 0F
      -- -- -- -- -- -- -- --  -- -- -- -- -- -- -- --
0000:    C0 00 80 00                                     ....           
```

#### Opcodes

```
  0: 0x0001 [0xC0] EventEntity->Render.Flags3 |= 0x1000 // Set bit 12 (from 1*)
  1: 0x0004 [0x00] END_REQSTACK()
```

### Event 65535.1

#### Metadata

| Field        | Value    |
|--------------|----------|
| Entrypoint   | 0x0005   |
| Data Size    | 16 bytes |
| Instructions | 2        |

```
      00 01 02 03 04 05 06 07  08 09 0A 0B 0C 0D 0E 0F
      -- -- -- -- -- -- -- --  -- -- -- -- -- -- -- --
0000:                66 01 80  16 B0 0F 01 16 B0 0F 01       f..........
0010: 6B 6B 61 30 00                                    kka0.           
```

#### Opcodes

```
  0: 0x0005 [0x66] LOAD_EXT_SCHEDULER_MAIN: Load scheduler "kka0" with entities [Mathilde (ID: 17805334/0x010FB016), Mathilde (ID: 17805334/0x010FB016)], work=12*
  1: 0x0014 [0x00] END_REQSTACK()
```

### Event 65535.2

#### Metadata

| Field        | Value    |
|--------------|----------|
| Entrypoint   | 0x0015   |
| Data Size    | 16 bytes |
| Instructions | 2        |

```
      00 01 02 03 04 05 06 07  08 09 0A 0B 0C 0D 0E 0F
      -- -- -- -- -- -- -- --  -- -- -- -- -- -- -- --
0010:                5B 02 80  16 B0 0F 01 16 B0 0F 01       [..........
0020: 75 74 61 30 00                                    uta0.           
```

#### Opcodes

```
  0: 0x0015 [0x5B] LOAD_EXT_SCHEDULER: Load scheduler "uta0" with entities [Mathilde (ID: 17805334/0x010FB016), Mathilde (ID: 17805334/0x010FB016)], work=2580*
  1: 0x0024 [0x00] END_REQSTACK()
```

### Event 65535.3

#### Metadata

| Field        | Value    |
|--------------|----------|
| Entrypoint   | 0x0025   |
| Data Size    | 16 bytes |
| Instructions | 2        |

```
      00 01 02 03 04 05 06 07  08 09 0A 0B 0C 0D 0E 0F
      -- -- -- -- -- -- -- --  -- -- -- -- -- -- -- --
0020:                5B 02 80  16 B0 0F 01 16 B0 0F 01       [..........
0030: 75 74 61 31 00                                    uta1.           
```

#### Opcodes

```
  0: 0x0025 [0x5B] LOAD_EXT_SCHEDULER: Load scheduler "uta1" with entities [Mathilde (ID: 17805334/0x010FB016), Mathilde (ID: 17805334/0x010FB016)], work=2580*
  1: 0x0034 [0x00] END_REQSTACK()
```

### Event 65535.4

#### Metadata

| Field        | Value    |
|--------------|----------|
| Entrypoint   | 0x0035   |
| Data Size    | 16 bytes |
| Instructions | 2        |

```
      00 01 02 03 04 05 06 07  08 09 0A 0B 0C 0D 0E 0F
      -- -- -- -- -- -- -- --  -- -- -- -- -- -- -- --
0030:                5B 03 80  16 B0 0F 01 16 B0 0F 01       [..........
0040: 75 74 61 32 00                                    uta2.           
```

#### Opcodes

```
  0: 0x0035 [0x5B] LOAD_EXT_SCHEDULER: Load scheduler "uta2" with entities [Mathilde (ID: 17805334/0x010FB016), Mathilde (ID: 17805334/0x010FB016)], work=2581*
  1: 0x0044 [0x00] END_REQSTACK()
```

### Event 65535.5

#### Metadata

| Field        | Value    |
|--------------|----------|
| Entrypoint   | 0x0045   |
| Data Size    | 16 bytes |
| Instructions | 2        |

```
      00 01 02 03 04 05 06 07  08 09 0A 0B 0C 0D 0E 0F
      -- -- -- -- -- -- -- --  -- -- -- -- -- -- -- --
0040:                5B 03 80  16 B0 0F 01 16 B0 0F 01       [..........
0050: 75 74 61 33 00                                    uta3.           
```

#### Opcodes

```
  0: 0x0045 [0x5B] LOAD_EXT_SCHEDULER: Load scheduler "uta3" with entities [Mathilde (ID: 17805334/0x010FB016), Mathilde (ID: 17805334/0x010FB016)], work=2581*
  1: 0x0054 [0x00] END_REQSTACK()
```

### Event 65535.6

#### Metadata

| Field        | Value    |
|--------------|----------|
| Entrypoint   | 0x0055   |
| Data Size    | 16 bytes |
| Instructions | 2        |

```
      00 01 02 03 04 05 06 07  08 09 0A 0B 0C 0D 0E 0F
      -- -- -- -- -- -- -- --  -- -- -- -- -- -- -- --
0050:                5B 04 80  16 B0 0F 01 16 B0 0F 01       [..........
0060: 65 6D 65 30 00                                    eme0.           
```

#### Opcodes

```
  0: 0x0055 [0x5B] LOAD_EXT_SCHEDULER: Load scheduler "eme0" with entities [Mathilde (ID: 17805334/0x010FB016), Mathilde (ID: 17805334/0x010FB016)], work=2617*
  1: 0x0064 [0x00] END_REQSTACK()
```

### Event 65535.7

#### Metadata

| Field        | Value    |
|--------------|----------|
| Entrypoint   | 0x0065   |
| Data Size    | 16 bytes |
| Instructions | 2        |

```
      00 01 02 03 04 05 06 07  08 09 0A 0B 0C 0D 0E 0F
      -- -- -- -- -- -- -- --  -- -- -- -- -- -- -- --
0060:                5B 05 80  16 B0 0F 01 16 B0 0F 01       [..........
0070: 62 73 61 30 00                                    bsa0.           
```

#### Opcodes

```
  0: 0x0065 [0x5B] LOAD_EXT_SCHEDULER: Load scheduler "bsa0" with entities [Mathilde (ID: 17805334/0x010FB016), Mathilde (ID: 17805334/0x010FB016)], work=2585*
  1: 0x0074 [0x00] END_REQSTACK()
```
