# 17805353

## Common Data

| Field            | Value                      |
|------------------|----------------------------|
| Zone             | Hall of the Gods (ID: 251) |
| Block Size       | 148 bytes                  |
| Total Events     | 3                          |
| References Count | 4                          |

## List of Events

| Event ID                 | Entrypoint   |   Size |   Instructions |
|--------------------------|--------------|--------|----------------|
| [65535](#event-65535)    | 0x0000       |      1 |              1 |
| [15](#event-15)          | 0x0001       |      1 |              1 |
| [65535.1](#event-655351) | 0x0002       |    101 |             11 |

## DAT References (imed_data)

|   Index | Hex Value   |   Dec Value |
|---------|-------------|-------------|
|       0 | 0x003C      |          60 |
|       1 | 0x0000      |           0 |
|       2 | 0x001E      |          30 |
|       3 | 0x012C      |         300 |

## Events

### Event 65535

#### Metadata

| Field        | Value   |
|--------------|---------|
| Entrypoint   | 0x0000  |
| Data Size    | 1 bytes |
| Instructions | 1       |

```
      00 01 02 03 04 05 06 07  08 09 0A 0B 0C 0D 0E 0F
      -- -- -- -- -- -- -- --  -- -- -- -- -- -- -- --
0000: 00                                                .               
```

#### Opcodes

```
  0: 0x0000 [0x00] END_REQSTACK()
```

### Event 15

#### Metadata

| Field        | Value   |
|--------------|---------|
| Entrypoint   | 0x0001  |
| Data Size    | 1 bytes |
| Instructions | 1       |

```
      00 01 02 03 04 05 06 07  08 09 0A 0B 0C 0D 0E 0F
      -- -- -- -- -- -- -- --  -- -- -- -- -- -- -- --
0000:    00                                              .              
```

#### Opcodes

```
  0: 0x0001 [0x00] END_REQSTACK()
```

### Event 65535.1

#### Metadata

| Field        | Value     |
|--------------|-----------|
| Entrypoint   | 0x0002    |
| Data Size    | 101 bytes |
| Instructions | 11        |

```
      00 01 02 03 04 05 06 07  08 09 0A 0B 0C 0D 0E 0F
      -- -- -- -- -- -- -- --  -- -- -- -- -- -- -- --
0000:       62 00 80 2B B0 0F  01 2B B0 0F 01 73 6D 30    b..+...+...sm0
0010: 34 01 80 1C 02 80 62 00  80 2C B0 0F 01 2C B0 0F  4.....b..,...,..
0020: 01 73 6D 30 34 01 80 1C  02 80 62 00 80 2D B0 0F  .sm04.....b..-..
0030: 01 2D B0 0F 01 73 6D 30  34 01 80 1C 02 80 62 00  .-...sm04.....b.
0040: 80 2E B0 0F 01 2E B0 0F  01 73 6D 30 34 01 80 1C  .........sm04...
0050: 02 80 62 00 80 2F B0 0F  01 2F B0 0F 01 73 6D 30  ..b../.../...sm0
0060: 34 01 80 1C 03 80 00                              4......         
```

#### Opcodes

```
  0: 0x0002 [0x62] LOAD_EVENT_SCHEDULER: Load scheduler "sm04" with entities [Unnamed NPC (ID: 17805355/0x010FB02B), Unnamed NPC (ID: 17805355/0x010FB02B)], work=[60*, 0*]
  1: 0x0013 [0x1C] WAIT(30* ticks)
  2: 0x0016 [0x62] LOAD_EVENT_SCHEDULER: Load scheduler "sm04" with entities [Unnamed NPC (ID: 17805356/0x010FB02C), Unnamed NPC (ID: 17805356/0x010FB02C)], work=[60*, 0*]
  3: 0x0027 [0x1C] WAIT(30* ticks)
  4: 0x002A [0x62] LOAD_EVENT_SCHEDULER: Load scheduler "sm04" with entities [Unnamed NPC (ID: 17805357/0x010FB02D), Unnamed NPC (ID: 17805357/0x010FB02D)], work=[60*, 0*]
  5: 0x003B [0x1C] WAIT(30* ticks)
  6: 0x003E [0x62] LOAD_EVENT_SCHEDULER: Load scheduler "sm04" with entities [Unnamed NPC (ID: 17805358/0x010FB02E), Unnamed NPC (ID: 17805358/0x010FB02E)], work=[60*, 0*]
  7: 0x004F [0x1C] WAIT(30* ticks)
  8: 0x0052 [0x62] LOAD_EVENT_SCHEDULER: Load scheduler "sm04" with entities [Unnamed NPC (ID: 17805359/0x010FB02F), Unnamed NPC (ID: 17805359/0x010FB02F)], work=[60*, 0*]
  9: 0x0063 [0x1C] WAIT(300* ticks)
 10: 0x0066 [0x00] END_REQSTACK()
```
