# 17805335 - Aldo

## Common Data

| Field            | Value                      |
|------------------|----------------------------|
| Zone             | Hall of the Gods (ID: 251) |
| Block Size       | 1012 bytes                 |
| Total Events     | 37                         |
| References Count | 56                         |

## List of Events

| Event ID                   | Entrypoint   |   Size |   Instructions |
|----------------------------|--------------|--------|----------------|
| [65535](#event-65535)      | 0x0000       |      1 |              1 |
| [5](#event-5)              | 0x0001       |      4 |              2 |
| [65535.1](#event-655351)   | 0x0005       |     20 |              5 |
| [65535.2](#event-655352)   | 0x0019       |     20 |              5 |
| [65535.3](#event-655353)   | 0x002D       |     20 |              5 |
| [65535.4](#event-655354)   | 0x0041       |     15 |              3 |
| [65535.5](#event-655355)   | 0x0050       |     20 |              5 |
| [65535.6](#event-655356)   | 0x0064       |     15 |              3 |
| [65535.7](#event-655357)   | 0x0073       |     20 |              5 |
| [65535.8](#event-655358)   | 0x0087       |     20 |              5 |
| [65535.9](#event-655359)   | 0x009B       |     15 |              3 |
| [65535.10](#event-6553510) | 0x00AA       |     15 |              3 |
| [65535.11](#event-6553511) | 0x00B9       |     16 |              2 |
| [65535.12](#event-6553512) | 0x00C9       |     16 |              2 |
| [65535.13](#event-6553513) | 0x00D9       |     16 |              2 |
| [65535.14](#event-6553514) | 0x00E9       |     16 |              2 |
| [65535.15](#event-6553515) | 0x00F9       |     16 |              2 |
| [65535.16](#event-6553516) | 0x0109       |     16 |              2 |
| [65535.17](#event-6553517) | 0x0119       |     20 |              5 |
| [65535.18](#event-6553518) | 0x012D       |     15 |              3 |
| [65535.19](#event-6553519) | 0x013C       |     16 |              2 |
| [65535.20](#event-6553520) | 0x014C       |     16 |              2 |
| [65535.21](#event-6553521) | 0x015C       |     16 |              2 |
| [65535.22](#event-6553522) | 0x016C       |     16 |              2 |
| [65535.23](#event-6553523) | 0x017C       |     16 |              2 |
| [65535.24](#event-6553524) | 0x018C       |     16 |              2 |
| [65535.25](#event-6553525) | 0x019C       |     16 |              2 |
| [65535.26](#event-6553526) | 0x01AC       |     16 |              2 |
| [65535.27](#event-6553527) | 0x01BC       |     16 |              2 |
| [65535.28](#event-6553528) | 0x01CC       |     33 |              5 |
| [65535.29](#event-6553529) | 0x01ED       |     20 |              4 |
| [65535.30](#event-6553530) | 0x0201       |     16 |              2 |
| [65535.31](#event-6553531) | 0x0211       |     21 |              3 |
| [65535.32](#event-6553532) | 0x0226       |     21 |              3 |
| [65535.33](#event-6553533) | 0x023B       |     21 |              3 |
| [65535.34](#event-6553534) | 0x0250       |     21 |              3 |
| [65535.35](#event-6553535) | 0x0265       |     11 |              3 |

## DAT References (imed_data)

|   Index | Hex Value   |   Dec Value |
|---------|-------------|-------------|
|       0 | 0x0001      |           1 |
|       1 | 0x0028      |          40 |
|       2 | 0x0273      |         627 |
|       3 | 0xFFFE80D6  |  4294869206 |
|       4 | 0xFFFFDC85  |  4294958213 |
|       5 | 0xFFFFF807  |  4294965255 |
|       6 | 0xFFFFED97  |  4294962583 |
|       7 | 0xFFFFCD39  |  4294954297 |
|       8 | 0x0388      |         904 |
|       9 | 0xFFFF8241  |  4294935105 |
|      10 | 0xFFFFCFF4  |  4294954996 |
|      11 | 0x052E      |        1326 |
|      12 | 0xFFFFA17A  |  4294943098 |
|      13 | 0xFFFFD508  |  4294956296 |
|      14 | 0x0BF4      |        3060 |
|      15 | 0x0F15      |        3861 |
|      16 | 0xFFFFD7BA  |  4294956986 |
|      17 | 0xFFFFC914  |  4294953236 |
|      18 | 0x083D      |        2109 |
|      19 | 0xFFFFE61E  |  4294960670 |
|      20 | 0x0B1E      |        2846 |
|      21 | 0x000D      |          13 |
|      22 | 0x0DCF      |        3535 |
|      23 | 0xFFFFDB4C  |  4294957900 |
|      24 | 0xFFFFCCFC  |  4294954236 |
|      25 | 0x0469      |        1129 |
|      26 | 0xFFFFF7D0  |  4294965200 |
|      27 | 0xFFFFC84C  |  4294953036 |
|      28 | 0x0870      |        2160 |
|      29 | 0xFFFFED8F  |  4294962575 |
|      30 | 0xFFFFCAB8  |  4294953656 |
|      31 | 0x0B66      |        2918 |
|      32 | 0x0A62      |        2658 |
|      33 | 0x021D      |         541 |
|      34 | 0x021F      |         543 |
|      35 | 0x04DA      |        1242 |
|      36 | 0xFFFFF029  |  4294963241 |
|      37 | 0xFFFFCD38  |  4294954296 |
|      38 | 0x05A2      |        1442 |
|      39 | 0xFFFFEE99  |  4294962841 |
|      40 | 0x04B3      |        1203 |
|      41 | 0x00B9      |         185 |
|      42 | 0x0A38      |        2616 |
|      43 | 0x0AF3      |        2803 |
|      44 | 0xFFFFE5AF  |  4294960559 |
|      45 | 0x0B35      |        2869 |
|      46 | 0x003C      |          60 |
|      47 | 0x0A2F      |        2607 |
|      48 | 0xFFFFFFD8  |  4294967256 |
|      49 | 0xFFFFFFCA  |  4294967242 |
|      50 | 0x0320      |         800 |
|      51 | 0x0A3E      |        2622 |
|      52 | 0x0A3F      |        2623 |
|      53 | 0xFFFFFEDE  |  4294967006 |
|      54 | 0x0365      |         869 |
|      55 | 0x03DB      |         987 |

## Events

### Event 65535

#### Metadata

| Field        | Value   |
|--------------|---------|
| Entrypoint   | 0x0000  |
| Data Size    | 1 bytes |
| Instructions | 1       |

```
      00 01 02 03 04 05 06 07  08 09 0A 0B 0C 0D 0E 0F
      -- -- -- -- -- -- -- --  -- -- -- -- -- -- -- --
0000: 00                                                .               
```

#### Opcodes

```
  0: 0x0000 [0x00] END_REQSTACK()
```

### Event 5

#### Metadata

| Field        | Value   |
|--------------|---------|
| Entrypoint   | 0x0001  |
| Data Size    | 4 bytes |
| Instructions | 2       |

```
      00 01 02 03 04 05 06 07  08 09 0A 0B 0C 0D 0E 0F
      -- -- -- -- -- -- -- --  -- -- -- -- -- -- -- --
0000:    C0 00 80 00                                     ....           
```

#### Opcodes

```
  0: 0x0001 [0xC0] EventEntity->Render.Flags3 |= 0x1000 // Set bit 12 (from 1*)
  1: 0x0004 [0x00] END_REQSTACK()
```

### Event 65535.1

#### Metadata

| Field        | Value    |
|--------------|----------|
| Entrypoint   | 0x0005   |
| Data Size    | 20 bytes |
| Instructions | 5        |

```
      00 01 02 03 04 05 06 07  08 09 0A 0B 0C 0D 0E 0F
      -- -- -- -- -- -- -- --  -- -- -- -- -- -- -- --
0000:                59 04 17  B0 0F 01 01 80 1F 00 02       Y..........
0010: 80 03 80 04 80 1F 01 6F  00                       .......o.       
```

#### Opcodes

```
  0: 0x0005 [0x59] UPDATE_ENTITY_DATA: Set Aldo (ID: 17805335/0x010FB017) main speed = 40* * 0.1
  1: 0x000D [0x1F] MOVE_ENTITY: EventEntity moves to X=0.627*, Z=-98.090*, Y=-9.083*
  2: 0x0015 [0x1F] MOVE_ENTITY: Update entity position (mode=1)
  3: 0x0017 [0x6F] WAIT_FRAME_DELAY: Yield until WaitTime reaches zero
  4: 0x0018 [0x00] END_REQSTACK()
```

### Event 65535.2

#### Metadata

| Field        | Value    |
|--------------|----------|
| Entrypoint   | 0x0019   |
| Data Size    | 20 bytes |
| Instructions | 5        |

```
      00 01 02 03 04 05 06 07  08 09 0A 0B 0C 0D 0E 0F
      -- -- -- -- -- -- -- --  -- -- -- -- -- -- -- --
0010:                             59 04 17 B0 0F 01 01           Y......
0020: 80 1F 00 05 80 06 80 07  80 1F 01 6F 00           ...........o.   
```

#### Opcodes

```
  0: 0x0019 [0x59] UPDATE_ENTITY_DATA: Set Aldo (ID: 17805335/0x010FB017) main speed = 40* * 0.1
  1: 0x0021 [0x1F] MOVE_ENTITY: EventEntity moves to X=-2.041*, Z=-4.713*, Y=-12.999*
  2: 0x0029 [0x1F] MOVE_ENTITY: Update entity position (mode=1)
  3: 0x002B [0x6F] WAIT_FRAME_DELAY: Yield until WaitTime reaches zero
  4: 0x002C [0x00] END_REQSTACK()
```

### Event 65535.3

#### Metadata

| Field        | Value    |
|--------------|----------|
| Entrypoint   | 0x002D   |
| Data Size    | 20 bytes |
| Instructions | 5        |

```
      00 01 02 03 04 05 06 07  08 09 0A 0B 0C 0D 0E 0F
      -- -- -- -- -- -- -- --  -- -- -- -- -- -- -- --
0020:                                         59 04 17               Y..
0030: B0 0F 01 01 80 1F 00 08  80 09 80 0A 80 1F 01 6F  ...............o
0040: 00                                                .               
```

#### Opcodes

```
  0: 0x002D [0x59] UPDATE_ENTITY_DATA: Set Aldo (ID: 17805335/0x010FB017) main speed = 40* * 0.1
  1: 0x0035 [0x1F] MOVE_ENTITY: EventEntity moves to X=0.904*, Z=-32.191*, Y=-12.300*
  2: 0x003D [0x1F] MOVE_ENTITY: Update entity position (mode=1)
  3: 0x003F [0x6F] WAIT_FRAME_DELAY: Yield until WaitTime reaches zero
  4: 0x0040 [0x00] END_REQSTACK()
```

### Event 65535.4

#### Metadata

| Field        | Value    |
|--------------|----------|
| Entrypoint   | 0x0041   |
| Data Size    | 15 bytes |
| Instructions | 3        |

```
      00 01 02 03 04 05 06 07  08 09 0A 0B 0C 0D 0E 0F
      -- -- -- -- -- -- -- --  -- -- -- -- -- -- -- --
0040:    84 BA 17 B0 0F 01 0B  80 0C 80 0D 80 0E 80 00   ...............
```

#### Opcodes

```
  0: 0x0041 [0x84] ADJUST_RENDER_FLAGS3_BIT0()
  1: 0x0042 [0xBA] SET_ENTITY_POSITION(entity_id=Aldo (ID: 17805335/0x010FB017), pos_x=1.326*, pos_z=-24.198*, pos_y=-11.000*, direction=268.9°*)
  2: 0x004F [0x00] END_REQSTACK()
```

### Event 65535.5

#### Metadata

| Field        | Value    |
|--------------|----------|
| Entrypoint   | 0x0050   |
| Data Size    | 20 bytes |
| Instructions | 5        |

```
      00 01 02 03 04 05 06 07  08 09 0A 0B 0C 0D 0E 0F
      -- -- -- -- -- -- -- --  -- -- -- -- -- -- -- --
0050: 59 04 17 B0 0F 01 01 80  1F 00 0F 80 10 80 11 80  Y...............
0060: 1F 01 6F 00                                       ..o.            
```

#### Opcodes

```
  0: 0x0050 [0x59] UPDATE_ENTITY_DATA: Set Aldo (ID: 17805335/0x010FB017) main speed = 40* * 0.1
  1: 0x0058 [0x1F] MOVE_ENTITY: EventEntity moves to X=3.861*, Z=-10.310*, Y=-14.060*
  2: 0x0060 [0x1F] MOVE_ENTITY: Update entity position (mode=1)
  3: 0x0062 [0x6F] WAIT_FRAME_DELAY: Yield until WaitTime reaches zero
  4: 0x0063 [0x00] END_REQSTACK()
```

### Event 65535.6

#### Metadata

| Field        | Value    |
|--------------|----------|
| Entrypoint   | 0x0064   |
| Data Size    | 15 bytes |
| Instructions | 3        |

```
      00 01 02 03 04 05 06 07  08 09 0A 0B 0C 0D 0E 0F
      -- -- -- -- -- -- -- --  -- -- -- -- -- -- -- --
0060:             84 BA 17 B0  0F 01 12 80 13 80 07 80      ............
0070: 14 80 00                                          ...             
```

#### Opcodes

```
  0: 0x0064 [0x84] ADJUST_RENDER_FLAGS3_BIT0()
  1: 0x0065 [0xBA] SET_ENTITY_POSITION(entity_id=Aldo (ID: 17805335/0x010FB017), pos_x=2.109*, pos_z=-6.626*, pos_y=-12.999*, direction=250.1°*)
  2: 0x0072 [0x00] END_REQSTACK()
```

### Event 65535.7

#### Metadata

| Field        | Value    |
|--------------|----------|
| Entrypoint   | 0x0073   |
| Data Size    | 20 bytes |
| Instructions | 5        |

```
      00 01 02 03 04 05 06 07  08 09 0A 0B 0C 0D 0E 0F
      -- -- -- -- -- -- -- --  -- -- -- -- -- -- -- --
0070:          59 04 17 B0 0F  01 15 80 1F 00 16 80 17     Y............
0080: 80 18 80 1F 01 6F 00                              .....o.         
```

#### Opcodes

```
  0: 0x0073 [0x59] UPDATE_ENTITY_DATA: Set Aldo (ID: 17805335/0x010FB017) main speed = 13* * 0.1
  1: 0x007B [0x1F] MOVE_ENTITY: EventEntity moves to X=3.535*, Z=-9.396*, Y=-13.060*
  2: 0x0083 [0x1F] MOVE_ENTITY: Update entity position (mode=1)
  3: 0x0085 [0x6F] WAIT_FRAME_DELAY: Yield until WaitTime reaches zero
  4: 0x0086 [0x00] END_REQSTACK()
```

### Event 65535.8

#### Metadata

| Field        | Value    |
|--------------|----------|
| Entrypoint   | 0x0087   |
| Data Size    | 20 bytes |
| Instructions | 5        |

```
      00 01 02 03 04 05 06 07  08 09 0A 0B 0C 0D 0E 0F
      -- -- -- -- -- -- -- --  -- -- -- -- -- -- -- --
0080:                      59  04 17 B0 0F 01 01 80 1F         Y........
0090: 00 19 80 1A 80 1B 80 1F  01 6F 00                 .........o.     
```

#### Opcodes

```
  0: 0x0087 [0x59] UPDATE_ENTITY_DATA: Set Aldo (ID: 17805335/0x010FB017) main speed = 40* * 0.1
  1: 0x008F [0x1F] MOVE_ENTITY: EventEntity moves to X=1.129*, Z=-2.096*, Y=-14.260*
  2: 0x0097 [0x1F] MOVE_ENTITY: Update entity position (mode=1)
  3: 0x0099 [0x6F] WAIT_FRAME_DELAY: Yield until WaitTime reaches zero
  4: 0x009A [0x00] END_REQSTACK()
```

### Event 65535.9

#### Metadata

| Field        | Value    |
|--------------|----------|
| Entrypoint   | 0x009B   |
| Data Size    | 15 bytes |
| Instructions | 3        |

```
      00 01 02 03 04 05 06 07  08 09 0A 0B 0C 0D 0E 0F
      -- -- -- -- -- -- -- --  -- -- -- -- -- -- -- --
0090:                                   84 BA 17 B0 0F             .....
00A0: 01 1C 80 1D 80 1E 80 1F  80 00                    ..........      
```

#### Opcodes

```
  0: 0x009B [0x84] ADJUST_RENDER_FLAGS3_BIT0()
  1: 0x009C [0xBA] SET_ENTITY_POSITION(entity_id=Aldo (ID: 17805335/0x010FB017), pos_x=2.160*, pos_z=-4.721*, pos_y=-13.640*, direction=256.5°*)
  2: 0x00A9 [0x00] END_REQSTACK()
```

### Event 65535.10

#### Metadata

| Field        | Value    |
|--------------|----------|
| Entrypoint   | 0x00AA   |
| Data Size    | 15 bytes |
| Instructions | 3        |

```
      00 01 02 03 04 05 06 07  08 09 0A 0B 0C 0D 0E 0F
      -- -- -- -- -- -- -- --  -- -- -- -- -- -- -- --
00A0:                                84 BA 17 B0 0F 01            ......
00B0: 19 80 1A 80 1B 80 20 80  00                       ...... ..       
```

#### Opcodes

```
  0: 0x00AA [0x84] ADJUST_RENDER_FLAGS3_BIT0()
  1: 0x00AB [0xBA] SET_ENTITY_POSITION(entity_id=Aldo (ID: 17805335/0x010FB017), pos_x=1.129*, pos_z=-2.096*, pos_y=-14.260*, direction=233.6°*)
  2: 0x00B8 [0x00] END_REQSTACK()
```

### Event 65535.11

#### Metadata

| Field        | Value    |
|--------------|----------|
| Entrypoint   | 0x00B9   |
| Data Size    | 16 bytes |
| Instructions | 2        |

```
      00 01 02 03 04 05 06 07  08 09 0A 0B 0C 0D 0E 0F
      -- -- -- -- -- -- -- --  -- -- -- -- -- -- -- --
00B0:                             5B 21 80 17 B0 0F 01           [!.....
00C0: 17 B0 0F 01 64 6C 30 32  00                       ....dl02.       
```

#### Opcodes

```
  0: 0x00B9 [0x5B] LOAD_EXT_SCHEDULER: Load scheduler "dl02" with entities [Aldo (ID: 17805335/0x010FB017), Aldo (ID: 17805335/0x010FB017)], work=541*
  1: 0x00C8 [0x00] END_REQSTACK()
```

### Event 65535.12

#### Metadata

| Field        | Value    |
|--------------|----------|
| Entrypoint   | 0x00C9   |
| Data Size    | 16 bytes |
| Instructions | 2        |

```
      00 01 02 03 04 05 06 07  08 09 0A 0B 0C 0D 0E 0F
      -- -- -- -- -- -- -- --  -- -- -- -- -- -- -- --
00C0:                             5B 21 80 17 B0 0F 01           [!.....
00D0: 17 B0 0F 01 64 6C 30 33  00                       ....dl03.       
```

#### Opcodes

```
  0: 0x00C9 [0x5B] LOAD_EXT_SCHEDULER: Load scheduler "dl03" with entities [Aldo (ID: 17805335/0x010FB017), Aldo (ID: 17805335/0x010FB017)], work=541*
  1: 0x00D8 [0x00] END_REQSTACK()
```

### Event 65535.13

#### Metadata

| Field        | Value    |
|--------------|----------|
| Entrypoint   | 0x00D9   |
| Data Size    | 16 bytes |
| Instructions | 2        |

```
      00 01 02 03 04 05 06 07  08 09 0A 0B 0C 0D 0E 0F
      -- -- -- -- -- -- -- --  -- -- -- -- -- -- -- --
00D0:                             5B 22 80 17 B0 0F 01           [".....
00E0: 17 B0 0F 01 6A 69 6B 35  00                       ....jik5.       
```

#### Opcodes

```
  0: 0x00D9 [0x5B] LOAD_EXT_SCHEDULER: Load scheduler "jik5" with entities [Aldo (ID: 17805335/0x010FB017), Aldo (ID: 17805335/0x010FB017)], work=543*
  1: 0x00E8 [0x00] END_REQSTACK()
```

### Event 65535.14

#### Metadata

| Field        | Value    |
|--------------|----------|
| Entrypoint   | 0x00E9   |
| Data Size    | 16 bytes |
| Instructions | 2        |

```
      00 01 02 03 04 05 06 07  08 09 0A 0B 0C 0D 0E 0F
      -- -- -- -- -- -- -- --  -- -- -- -- -- -- -- --
00E0:                             5B 22 80 17 B0 0F 01           [".....
00F0: 17 B0 0F 01 6A 69 6B 33  00                       ....jik3.       
```

#### Opcodes

```
  0: 0x00E9 [0x5B] LOAD_EXT_SCHEDULER: Load scheduler "jik3" with entities [Aldo (ID: 17805335/0x010FB017), Aldo (ID: 17805335/0x010FB017)], work=543*
  1: 0x00F8 [0x00] END_REQSTACK()
```

### Event 65535.15

#### Metadata

| Field        | Value    |
|--------------|----------|
| Entrypoint   | 0x00F9   |
| Data Size    | 16 bytes |
| Instructions | 2        |

```
      00 01 02 03 04 05 06 07  08 09 0A 0B 0C 0D 0E 0F
      -- -- -- -- -- -- -- --  -- -- -- -- -- -- -- --
00F0:                             5B 21 80 17 B0 0F 01           [!.....
0100: 17 B0 0F 01 64 6C 30 30  00                       ....dl00.       
```

#### Opcodes

```
  0: 0x00F9 [0x5B] LOAD_EXT_SCHEDULER: Load scheduler "dl00" with entities [Aldo (ID: 17805335/0x010FB017), Aldo (ID: 17805335/0x010FB017)], work=541*
  1: 0x0108 [0x00] END_REQSTACK()
```

### Event 65535.16

#### Metadata

| Field        | Value    |
|--------------|----------|
| Entrypoint   | 0x0109   |
| Data Size    | 16 bytes |
| Instructions | 2        |

```
      00 01 02 03 04 05 06 07  08 09 0A 0B 0C 0D 0E 0F
      -- -- -- -- -- -- -- --  -- -- -- -- -- -- -- --
0100:                             5B 21 80 17 B0 0F 01           [!.....
0110: 17 B0 0F 01 64 6C 30 31  00                       ....dl01.       
```

#### Opcodes

```
  0: 0x0109 [0x5B] LOAD_EXT_SCHEDULER: Load scheduler "dl01" with entities [Aldo (ID: 17805335/0x010FB017), Aldo (ID: 17805335/0x010FB017)], work=541*
  1: 0x0118 [0x00] END_REQSTACK()
```

### Event 65535.17

#### Metadata

| Field        | Value    |
|--------------|----------|
| Entrypoint   | 0x0119   |
| Data Size    | 20 bytes |
| Instructions | 5        |

```
      00 01 02 03 04 05 06 07  08 09 0A 0B 0C 0D 0E 0F
      -- -- -- -- -- -- -- --  -- -- -- -- -- -- -- --
0110:                             59 04 17 B0 0F 01 01           Y......
0120: 80 1F 00 23 80 24 80 25  80 1F 01 6F 00           ...#.$.%...o.   
```

#### Opcodes

```
  0: 0x0119 [0x59] UPDATE_ENTITY_DATA: Set Aldo (ID: 17805335/0x010FB017) main speed = 40* * 0.1
  1: 0x0121 [0x1F] MOVE_ENTITY: EventEntity moves to X=1.242*, Z=-4.055*, Y=-13.000*
  2: 0x0129 [0x1F] MOVE_ENTITY: Update entity position (mode=1)
  3: 0x012B [0x6F] WAIT_FRAME_DELAY: Yield until WaitTime reaches zero
  4: 0x012C [0x00] END_REQSTACK()
```

### Event 65535.18

#### Metadata

| Field        | Value    |
|--------------|----------|
| Entrypoint   | 0x012D   |
| Data Size    | 15 bytes |
| Instructions | 3        |

```
      00 01 02 03 04 05 06 07  08 09 0A 0B 0C 0D 0E 0F
      -- -- -- -- -- -- -- --  -- -- -- -- -- -- -- --
0120:                                         84 BA 17               ...
0130: B0 0F 01 26 80 27 80 25  80 28 80 00              ...&.'.%.(..    
```

#### Opcodes

```
  0: 0x012D [0x84] ADJUST_RENDER_FLAGS3_BIT0()
  1: 0x012E [0xBA] SET_ENTITY_POSITION(entity_id=Aldo (ID: 17805335/0x010FB017), pos_x=1.442*, pos_z=-4.455*, pos_y=-13.000*, direction=105.7°*)
  2: 0x013B [0x00] END_REQSTACK()
```

### Event 65535.19

#### Metadata

| Field        | Value    |
|--------------|----------|
| Entrypoint   | 0x013C   |
| Data Size    | 16 bytes |
| Instructions | 2        |

```
      00 01 02 03 04 05 06 07  08 09 0A 0B 0C 0D 0E 0F
      -- -- -- -- -- -- -- --  -- -- -- -- -- -- -- --
0130:                                      5B 22 80 17              ["..
0140: B0 0F 01 17 B0 0F 01 6A  69 6B 31 00              .......jik1.    
```

#### Opcodes

```
  0: 0x013C [0x5B] LOAD_EXT_SCHEDULER: Load scheduler "jik1" with entities [Aldo (ID: 17805335/0x010FB017), Aldo (ID: 17805335/0x010FB017)], work=543*
  1: 0x014B [0x00] END_REQSTACK()
```

### Event 65535.20

#### Metadata

| Field        | Value    |
|--------------|----------|
| Entrypoint   | 0x014C   |
| Data Size    | 16 bytes |
| Instructions | 2        |

```
      00 01 02 03 04 05 06 07  08 09 0A 0B 0C 0D 0E 0F
      -- -- -- -- -- -- -- --  -- -- -- -- -- -- -- --
0140:                                      5B 22 80 17              ["..
0150: B0 0F 01 17 B0 0F 01 6A  69 6B 30 00              .......jik0.    
```

#### Opcodes

```
  0: 0x014C [0x5B] LOAD_EXT_SCHEDULER: Load scheduler "jik0" with entities [Aldo (ID: 17805335/0x010FB017), Aldo (ID: 17805335/0x010FB017)], work=543*
  1: 0x015B [0x00] END_REQSTACK()
```

### Event 65535.21

#### Metadata

| Field        | Value    |
|--------------|----------|
| Entrypoint   | 0x015C   |
| Data Size    | 16 bytes |
| Instructions | 2        |

```
      00 01 02 03 04 05 06 07  08 09 0A 0B 0C 0D 0E 0F
      -- -- -- -- -- -- -- --  -- -- -- -- -- -- -- --
0150:                                      5B 22 80 17              ["..
0160: B0 0F 01 17 B0 0F 01 6A  69 6B 34 00              .......jik4.    
```

#### Opcodes

```
  0: 0x015C [0x5B] LOAD_EXT_SCHEDULER: Load scheduler "jik4" with entities [Aldo (ID: 17805335/0x010FB017), Aldo (ID: 17805335/0x010FB017)], work=543*
  1: 0x016B [0x00] END_REQSTACK()
```

### Event 65535.22

#### Metadata

| Field        | Value    |
|--------------|----------|
| Entrypoint   | 0x016C   |
| Data Size    | 16 bytes |
| Instructions | 2        |

```
      00 01 02 03 04 05 06 07  08 09 0A 0B 0C 0D 0E 0F
      -- -- -- -- -- -- -- --  -- -- -- -- -- -- -- --
0160:                                      5B 29 80 17              [)..
0170: B0 0F 01 17 B0 0F 01 75  64 65 30 00              .......ude0.    
```

#### Opcodes

```
  0: 0x016C [0x5B] LOAD_EXT_SCHEDULER: Load scheduler "ude0" with entities [Aldo (ID: 17805335/0x010FB017), Aldo (ID: 17805335/0x010FB017)], work=185*
  1: 0x017B [0x00] END_REQSTACK()
```

### Event 65535.23

#### Metadata

| Field        | Value    |
|--------------|----------|
| Entrypoint   | 0x017C   |
| Data Size    | 16 bytes |
| Instructions | 2        |

```
      00 01 02 03 04 05 06 07  08 09 0A 0B 0C 0D 0E 0F
      -- -- -- -- -- -- -- --  -- -- -- -- -- -- -- --
0170:                                      5B 29 80 17              [)..
0180: B0 0F 01 17 B0 0F 01 75  64 65 31 00              .......ude1.    
```

#### Opcodes

```
  0: 0x017C [0x5B] LOAD_EXT_SCHEDULER: Load scheduler "ude1" with entities [Aldo (ID: 17805335/0x010FB017), Aldo (ID: 17805335/0x010FB017)], work=185*
  1: 0x018B [0x00] END_REQSTACK()
```

### Event 65535.24

#### Metadata

| Field        | Value    |
|--------------|----------|
| Entrypoint   | 0x018C   |
| Data Size    | 16 bytes |
| Instructions | 2        |

```
      00 01 02 03 04 05 06 07  08 09 0A 0B 0C 0D 0E 0F
      -- -- -- -- -- -- -- --  -- -- -- -- -- -- -- --
0180:                                      5B 29 80 17              [)..
0190: B0 0F 01 17 B0 0F 01 74  68 6B 31 00              .......thk1.    
```

#### Opcodes

```
  0: 0x018C [0x5B] LOAD_EXT_SCHEDULER: Load scheduler "thk1" with entities [Aldo (ID: 17805335/0x010FB017), Aldo (ID: 17805335/0x010FB017)], work=185*
  1: 0x019B [0x00] END_REQSTACK()
```

### Event 65535.25

#### Metadata

| Field        | Value    |
|--------------|----------|
| Entrypoint   | 0x019C   |
| Data Size    | 16 bytes |
| Instructions | 2        |

```
      00 01 02 03 04 05 06 07  08 09 0A 0B 0C 0D 0E 0F
      -- -- -- -- -- -- -- --  -- -- -- -- -- -- -- --
0190:                                      5B 29 80 17              [)..
01A0: B0 0F 01 17 B0 0F 01 74  68 6B 32 00              .......thk2.    
```

#### Opcodes

```
  0: 0x019C [0x5B] LOAD_EXT_SCHEDULER: Load scheduler "thk2" with entities [Aldo (ID: 17805335/0x010FB017), Aldo (ID: 17805335/0x010FB017)], work=185*
  1: 0x01AB [0x00] END_REQSTACK()
```

### Event 65535.26

#### Metadata

| Field        | Value    |
|--------------|----------|
| Entrypoint   | 0x01AC   |
| Data Size    | 16 bytes |
| Instructions | 2        |

```
      00 01 02 03 04 05 06 07  08 09 0A 0B 0C 0D 0E 0F
      -- -- -- -- -- -- -- --  -- -- -- -- -- -- -- --
01A0:                                      5B 2A 80 17              [*..
01B0: B0 0F 01 17 B0 0F 01 65  6D 65 30 00              .......eme0.    
```

#### Opcodes

```
  0: 0x01AC [0x5B] LOAD_EXT_SCHEDULER: Load scheduler "eme0" with entities [Aldo (ID: 17805335/0x010FB017), Aldo (ID: 17805335/0x010FB017)], work=2616*
  1: 0x01BB [0x00] END_REQSTACK()
```

### Event 65535.27

#### Metadata

| Field        | Value    |
|--------------|----------|
| Entrypoint   | 0x01BC   |
| Data Size    | 16 bytes |
| Instructions | 2        |

```
      00 01 02 03 04 05 06 07  08 09 0A 0B 0C 0D 0E 0F
      -- -- -- -- -- -- -- --  -- -- -- -- -- -- -- --
01B0:                                      5B 2A 80 17              [*..
01C0: B0 0F 01 17 B0 0F 01 65  6D 65 31 00              .......eme1.    
```

#### Opcodes

```
  0: 0x01BC [0x5B] LOAD_EXT_SCHEDULER: Load scheduler "eme1" with entities [Aldo (ID: 17805335/0x010FB017), Aldo (ID: 17805335/0x010FB017)], work=2616*
  1: 0x01CB [0x00] END_REQSTACK()
```

### Event 65535.28

#### Metadata

| Field        | Value    |
|--------------|----------|
| Entrypoint   | 0x01CC   |
| Data Size    | 33 bytes |
| Instructions | 5        |

```
      00 01 02 03 04 05 06 07  08 09 0A 0B 0C 0D 0E 0F
      -- -- -- -- -- -- -- --  -- -- -- -- -- -- -- --
01C0:                                      84 BA 17 B0              ....
01D0: 0F 01 2B 80 2C 80 07 80  2D 80 1C 2E 80 5B 2F 80  ..+.,...-....[/.
01E0: 17 B0 0F 01 17 B0 0F 01  64 73 68 30 00           ........dsh0.   
```

#### Opcodes

```
  0: 0x01CC [0x84] ADJUST_RENDER_FLAGS3_BIT0()
  1: 0x01CD [0xBA] SET_ENTITY_POSITION(entity_id=Aldo (ID: 17805335/0x010FB017), pos_x=2.803*, pos_z=-6.737*, pos_y=-12.999*, direction=252.2°*)
  2: 0x01DA [0x1C] WAIT(60* ticks)
  3: 0x01DD [0x5B] LOAD_EXT_SCHEDULER: Load scheduler "dsh0" with entities [Aldo (ID: 17805335/0x010FB017), Aldo (ID: 17805335/0x010FB017)], work=2607*
  4: 0x01EC [0x00] END_REQSTACK()
```

### Event 65535.29

#### Metadata

| Field        | Value    |
|--------------|----------|
| Entrypoint   | 0x01ED   |
| Data Size    | 20 bytes |
| Instructions | 4        |

```
      00 01 02 03 04 05 06 07  08 09 0A 0B 0C 0D 0E 0F
      -- -- -- -- -- -- -- --  -- -- -- -- -- -- -- --
01E0:                                         84 BA 17               ...
01F0: B0 0F 01 30 80 31 80 07  80 32 80 7B 17 B0 0F 01  ...0.1...2.{....
0200: 00                                                .               
```

#### Opcodes

```
  0: 0x01ED [0x84] ADJUST_RENDER_FLAGS3_BIT0()
  1: 0x01EE [0xBA] SET_ENTITY_POSITION(entity_id=Aldo (ID: 17805335/0x010FB017), pos_x=-0.040*, pos_z=-0.054*, pos_y=-12.999*, direction=70.3°*)
  2: 0x01FB [0x7B] Aldo (ID: 17805335/0x010FB017) stops talking
  3: 0x0200 [0x00] END_REQSTACK()
```

### Event 65535.30

#### Metadata

| Field        | Value    |
|--------------|----------|
| Entrypoint   | 0x0201   |
| Data Size    | 16 bytes |
| Instructions | 2        |

```
      00 01 02 03 04 05 06 07  08 09 0A 0B 0C 0D 0E 0F
      -- -- -- -- -- -- -- --  -- -- -- -- -- -- -- --
0200:    5B 21 80 17 B0 0F 01  17 B0 0F 01 64 6C 30 61   [!.........dl0a
0210: 00                                                .               
```

#### Opcodes

```
  0: 0x0201 [0x5B] LOAD_EXT_SCHEDULER: Load scheduler "dl0a" with entities [Aldo (ID: 17805335/0x010FB017), Aldo (ID: 17805335/0x010FB017)], work=541*
  1: 0x0210 [0x00] END_REQSTACK()
```

### Event 65535.31

#### Metadata

| Field        | Value    |
|--------------|----------|
| Entrypoint   | 0x0211   |
| Data Size    | 21 bytes |
| Instructions | 3        |

```
      00 01 02 03 04 05 06 07  08 09 0A 0B 0C 0D 0E 0F
      -- -- -- -- -- -- -- --  -- -- -- -- -- -- -- --
0210:    7B 17 B0 0F 01 5B 33  80 17 B0 0F 01 17 B0 0F   {....[3........
0220: 01 65 64 30 30 00                                 .ed00.          
```

#### Opcodes

```
  0: 0x0211 [0x7B] Aldo (ID: 17805335/0x010FB017) stops talking
  1: 0x0216 [0x5B] LOAD_EXT_SCHEDULER: Load scheduler "ed00" with entities [Aldo (ID: 17805335/0x010FB017), Aldo (ID: 17805335/0x010FB017)], work=2622*
  2: 0x0225 [0x00] END_REQSTACK()
```

### Event 65535.32

#### Metadata

| Field        | Value    |
|--------------|----------|
| Entrypoint   | 0x0226   |
| Data Size    | 21 bytes |
| Instructions | 3        |

```
      00 01 02 03 04 05 06 07  08 09 0A 0B 0C 0D 0E 0F
      -- -- -- -- -- -- -- --  -- -- -- -- -- -- -- --
0220:                   7B 17  B0 0F 01 5B 33 80 17 B0        {....[3...
0230: 0F 01 17 B0 0F 01 65 64  30 31 00                 ......ed01.     
```

#### Opcodes

```
  0: 0x0226 [0x7B] Aldo (ID: 17805335/0x010FB017) stops talking
  1: 0x022B [0x5B] LOAD_EXT_SCHEDULER: Load scheduler "ed01" with entities [Aldo (ID: 17805335/0x010FB017), Aldo (ID: 17805335/0x010FB017)], work=2622*
  2: 0x023A [0x00] END_REQSTACK()
```

### Event 65535.33

#### Metadata

| Field        | Value    |
|--------------|----------|
| Entrypoint   | 0x023B   |
| Data Size    | 21 bytes |
| Instructions | 3        |

```
      00 01 02 03 04 05 06 07  08 09 0A 0B 0C 0D 0E 0F
      -- -- -- -- -- -- -- --  -- -- -- -- -- -- -- --
0230:                                   7B 17 B0 0F 01             {....
0240: 5B 34 80 17 B0 0F 01 17  B0 0F 01 65 64 73 30 00  [4.........eds0.
```

#### Opcodes

```
  0: 0x023B [0x7B] Aldo (ID: 17805335/0x010FB017) stops talking
  1: 0x0240 [0x5B] LOAD_EXT_SCHEDULER: Load scheduler "eds0" with entities [Aldo (ID: 17805335/0x010FB017), Aldo (ID: 17805335/0x010FB017)], work=2623*
  2: 0x024F [0x00] END_REQSTACK()
```

### Event 65535.34

#### Metadata

| Field        | Value    |
|--------------|----------|
| Entrypoint   | 0x0250   |
| Data Size    | 21 bytes |
| Instructions | 3        |

```
      00 01 02 03 04 05 06 07  08 09 0A 0B 0C 0D 0E 0F
      -- -- -- -- -- -- -- --  -- -- -- -- -- -- -- --
0250: 7B 17 B0 0F 01 5B 34 80  17 B0 0F 01 17 B0 0F 01  {....[4.........
0260: 65 64 73 31 00                                    eds1.           
```

#### Opcodes

```
  0: 0x0250 [0x7B] Aldo (ID: 17805335/0x010FB017) stops talking
  1: 0x0255 [0x5B] LOAD_EXT_SCHEDULER: Load scheduler "eds1" with entities [Aldo (ID: 17805335/0x010FB017), Aldo (ID: 17805335/0x010FB017)], work=2623*
  2: 0x0264 [0x00] END_REQSTACK()
```

### Event 65535.35

#### Metadata

| Field        | Value    |
|--------------|----------|
| Entrypoint   | 0x0265   |
| Data Size    | 11 bytes |
| Instructions | 3        |

```
      00 01 02 03 04 05 06 07  08 09 0A 0B 0C 0D 0E 0F
      -- -- -- -- -- -- -- --  -- -- -- -- -- -- -- --
0260:                84 37 35  80 36 80 07 80 37 80 00       .75.6...7..
```

#### Opcodes

```
  0: 0x0265 [0x84] ADJUST_RENDER_FLAGS3_BIT0()
  1: 0x0266 [0x37] UPDATE_EVENT_POSITION_AND_DIR: x=-0.290*, z=0.869*, y=-12.999*, direction=86.7°*
  2: 0x026F [0x00] END_REQSTACK()
```
