# 17805351

## Common Data

| Field            | Value                      |
|------------------|----------------------------|
| Zone             | Hall of the Gods (ID: 251) |
| Block Size       | 8992 bytes                 |
| Total Events     | 6                          |
| References Count | 226                        |

## List of Events

| Event ID              | Entrypoint   |   Size |   Instructions |
|-----------------------|--------------|--------|----------------|
| [65535](#event-65535) | 0x0000       |      1 |              1 |
| [17](#event-17)       | 0x0001       |     23 |              5 |
| [14](#event-14)       | 0x0018       |   1419 |            172 |
| [15](#event-15)       | 0x05A3       |   5029 |            605 |
| [18](#event-18)       | 0x1948       |      6 |              4 |
| [16](#event-16)       | 0x194E       |   1570 |            174 |

## DAT References (imed_data)

|   Index | Hex Value   |   Dec Value |
|---------|-------------|-------------|
|       0 | 0x00C8      |         200 |
|       1 | 0x0000      |           0 |
|       2 | 0x0001      |           1 |
|       3 | 0x001B      |          27 |
|       4 | 0x0B91      |        2961 |
|       5 | 0xFFFFE88B  |  4294961291 |
|       6 | 0xFFFFCD38  |  4294954296 |
|       7 | 0x0B34      |        2868 |
|       8 | 0xFFFFFBFF  |  4294966271 |
|       9 | 0x024E      |         590 |
|      10 | 0xFFFFCD39  |  4294954297 |
|      11 | 0x0C7C      |        3196 |
|      12 | 0x001E      |          30 |
|      13 | 0x0302      |         770 |
|      14 | 0x000F      |          15 |
|      15 | 0x0078      |         120 |
|      16 | 0x00B4      |         180 |
|      17 | 0x1DBA      |        7610 |
|      18 | 0x1DBB      |        7611 |
|      19 | 0x01BD      |         445 |
|      20 | 0x1DBC      |        7612 |
|      21 | 0x1DBD      |        7613 |
|      22 | 0x1DBE      |        7614 |
|      23 | 0x1DB7      |        7607 |
|      24 | 0x1DB8      |        7608 |
|      25 | 0x0002      |           2 |
|      26 | 0x1DB9      |        7609 |
|      27 | 0x1DBF      |        7615 |
|      28 | 0x0006      |           6 |
|      29 | 0x005A      |          90 |
|      30 | 0x1DC1      |        7617 |
|      31 | 0x1DC2      |        7618 |
|      32 | 0x1DC3      |        7619 |
|      33 | 0x1DC0      |        7616 |
|      34 | 0x0050      |          80 |
|      35 | 0x003C      |          60 |
|      36 | 0x1C1E      |        7198 |
|      37 | 0x1DC4      |        7620 |
|      38 | 0x1DC5      |        7621 |
|      39 | 0x0096      |         150 |
|      40 | 0x1DC6      |        7622 |
|      41 | 0x1DC7      |        7623 |
|      42 | 0x04E0      |        1248 |
|      43 | 0x9940      |       39232 |
|      44 | 0xFFFFCFF4  |  4294954996 |
|      45 | 0x0C1B      |        3099 |
|      46 | 0xFFFFF9E4  |  4294965732 |
|      47 | 0x99AC      |       39340 |
|      48 | 0x0BE2      |        3042 |
|      49 | 0x1DC8      |        7624 |
|      50 | 0x1DCA      |        7626 |
|      51 | 0x0005      |           5 |
|      52 | 0x01C4      |         452 |
|      53 | 0x1DC9      |        7625 |
|      54 | 0x0007      |           7 |
|      55 | 0x0008      |           8 |
|      56 | 0x03B0      |         944 |
|      57 | 0xB2E4      |       45796 |
|      58 | 0xFFFFFC74  |  4294966388 |
|      59 | 0xA8CA      |       43210 |
|      60 | 0x031A      |         794 |
|      61 | 0x01EA      |         490 |
|      62 | 0x01A4      |         420 |
|      63 | 0x0014      |          20 |
|      64 | 0x0064      |         100 |
|      65 | 0x246EA     |      149226 |
|      66 | 0xFFFFAF2B  |  4294946603 |
|      67 | 0x03C7      |         967 |
|      68 | 0x006E      |         110 |
|      69 | 0x21CBC     |      138428 |
|      70 | 0xFFFFB630  |  4294948400 |
|      71 | 0x0BE4      |        3044 |
|      72 | 0x0056      |          86 |
|      73 | 0x213C6     |      136134 |
|      74 | 0x0BED      |        3053 |
|      75 | 0x0480      |        1152 |
|      76 | 0x23A42     |      145986 |
|      77 | 0x0AF0      |        2800 |
|      78 | 0x0003      |           3 |
|      79 | 0x04E4      |        1252 |
|      80 | 0x239EC     |      145900 |
|      81 | 0xFFFFAA7B  |  4294945403 |
|      82 | 0x0004      |           4 |
|      83 | 0xFFFFADFF  |  4294946303 |
|      84 | 0xFFFFABA7  |  4294945703 |
|      85 | 0xFFFFAB43  |  4294945603 |
|      86 | 0x0F26      |        3878 |
|      87 | 0x1DCB      |        7627 |
|      88 | 0x1DCC      |        7628 |
|      89 | 0x1DCD      |        7629 |
|      90 | 0x1DCE      |        7630 |
|      91 | 0x01C1      |         449 |
|      92 | 0x1DCF      |        7631 |
|      93 | 0x008C      |         140 |
|      94 | 0x1DD0      |        7632 |
|      95 | 0x023B      |         571 |
|      96 | 0x1DD1      |        7633 |
|      97 | 0x1DD2      |        7634 |
|      98 | 0x00F0      |         240 |
|      99 | 0xFFFF658E  |  4294927758 |
|     100 | 0x85C74     |      547956 |
|     101 | 0xFFFB4CE0  |  4294659296 |
|     102 | 0x0B22      |        2850 |
|     103 | 0xFFFF663F  |  4294927935 |
|     104 | 0x86C3D     |      551997 |
|     105 | 0xFFFF7360  |  4294931296 |
|     106 | 0x854D0     |      546000 |
|     107 | 0xFFFF7643  |  4294932035 |
|     108 | 0x86DB3     |      552371 |
|     109 | 0xFFFF7B78  |  4294933368 |
|     110 | 0x8621A     |      549402 |
|     111 | 0x00A0      |         160 |
|     112 | 0x0066      |         102 |
|     113 | 0x1DD3      |        7635 |
|     114 | 0x1DD4      |        7636 |
|     115 | 0x1DD5      |        7637 |
|     116 | 0x1DD6      |        7638 |
|     117 | 0x1DD7      |        7639 |
|     118 | 0x1DD8      |        7640 |
|     119 | 0x1DD9      |        7641 |
|     120 | 0x1DDA      |        7642 |
|     121 | 0x1DDB      |        7643 |
|     122 | 0x1DDC      |        7644 |
|     123 | 0x1DDD      |        7645 |
|     124 | 0x002D      |          45 |
|     125 | 0x1DDE      |        7646 |
|     126 | 0x0067      |         103 |
|     127 | 0x13A5      |        5029 |
|     128 | 0x2456B     |      148843 |
|     129 | 0xFFFCC9BC  |  4294756796 |
|     130 | 0x06C7      |        1735 |
|     131 | 0x15B8      |        5560 |
|     132 | 0x240FF     |      147711 |
|     133 | 0x0FE2      |        4066 |
|     134 | 0x23C29     |      146473 |
|     135 | 0x077A      |        1914 |
|     136 | 0x0DAE      |        3502 |
|     137 | 0x22D3A     |      142650 |
|     138 | 0x0992      |        2450 |
|     139 | 0x0C76      |        3190 |
|     140 | 0x2323C     |      143932 |
|     141 | 0x093B      |        2363 |
|     142 | 0x06C3      |        1731 |
|     143 | 0x2396D     |      145773 |
|     144 | 0xFFFCCBB0  |  4294757296 |
|     145 | 0x086E      |        2158 |
|     146 | 0xFFFFF52C  |  4294964524 |
|     147 | 0x23A64     |      146020 |
|     148 | 0xFFFCCF98  |  4294758296 |
|     149 | 0x006D      |         109 |
|     150 | 0xFFFFF5B2  |  4294964658 |
|     151 | 0x23ED5     |      147157 |
|     152 | 0x00A1      |         161 |
|     153 | 0x00E8      |         232 |
|     154 | 0x1DDF      |        7647 |
|     155 | 0x003E      |          62 |
|     156 | 0x252D4     |      152276 |
|     157 | 0xFFFFFC8F  |  4294966415 |
|     158 | 0x23A1E     |      145950 |
|     159 | 0x0C38      |        3128 |
|     160 | 0x004A      |          74 |
|     161 | 0x007F      |         127 |
|     162 | 0x0016      |          22 |
|     163 | 0x1DE0      |        7648 |
|     164 | 0x1DE1      |        7649 |
|     165 | 0x001D      |          29 |
|     166 | 0x023F      |         575 |
|     167 | 0x00F5      |         245 |
|     168 | 0x0077      |         119 |
|     169 | 0xFFFFFB11  |  4294966033 |
|     170 | 0x23C2A     |      146474 |
|     171 | 0x0C45      |        3141 |
|     172 | 0x1DE2      |        7650 |
|     173 | 0x00F6      |         246 |
|     174 | 0xFFFFFA22  |  4294965794 |
|     175 | 0x234AE     |      144558 |
|     176 | 0x0BB8      |        3000 |
|     177 | 0x000A      |          10 |
|     178 | 0x00DF      |         223 |
|     179 | 0x1DE3      |        7651 |
|     180 | 0x0F39      |        3897 |
|     181 | 0x1DE4      |        7652 |
|     182 | 0x00DC      |         220 |
|     183 | 0x0700      |        1792 |
|     184 | 0x2364A     |      144970 |
|     185 | 0x06BE      |        1726 |
|     186 | 0x1DE5      |        7653 |
|     187 | 0x1DE6      |        7654 |
|     188 | 0x1DE7      |        7655 |
|     189 | 0x1DE8      |        7656 |
|     190 | 0x1DE9      |        7657 |
|     191 | 0x1DEA      |        7658 |
|     192 | 0x1DEB      |        7659 |
|     193 | 0x1DEC      |        7660 |
|     194 | 0x1DED      |        7661 |
|     195 | 0x00D5      |         213 |
|     196 | 0xFFFFFF5F  |  4294967135 |
|     197 | 0x1A97A     |      108922 |
|     198 | 0xFFFFB0B6  |  4294946998 |
|     199 | 0x0C32      |        3122 |
|     200 | 0xFFFFFF87  |  4294967175 |
|     201 | 0x21583     |      136579 |
|     202 | 0x0D68      |        3432 |
|     203 | 0x0303      |         771 |
|     204 | 0x1DEE      |        7662 |
|     205 | 0xFFFFFFA2  |  4294967202 |
|     206 | 0x1F82F     |      129071 |
|     207 | 0x0BFB      |        3067 |
|     208 | 0xFFFFFFD6  |  4294967254 |
|     209 | 0x2019D     |      131485 |
|     210 | 0x03F8      |        1016 |
|     211 | 0x1DEF      |        7663 |
|     212 | 0x1DF0      |        7664 |
|     213 | 0x1DF1      |        7665 |
|     214 | 0x1DF2      |        7666 |
|     215 | 0x0028      |          40 |
|     216 | 0x1DF3      |        7667 |
|     217 | 0x1DF4      |        7668 |
|     218 | 0x1DF5      |        7669 |
|     219 | 0x1DF6      |        7670 |
|     220 | 0x1DF7      |        7671 |
|     221 | 0x1DF8      |        7672 |
|     222 | 0x1DF9      |        7673 |
|     223 | 0x1DFA      |        7674 |
|     224 | 0x00C9      |         201 |
|     225 | 0x00D7      |         215 |

## String References

- **7198**: 

## Events

### Event 65535

#### Metadata

| Field        | Value   |
|--------------|---------|
| Entrypoint   | 0x0000  |
| Data Size    | 1 bytes |
| Instructions | 1       |

```
      00 01 02 03 04 05 06 07  08 09 0A 0B 0C 0D 0E 0F
      -- -- -- -- -- -- -- --  -- -- -- -- -- -- -- --
0000: 00                                                .               
```

#### Opcodes

```
  0: 0x0000 [0x00] END_REQSTACK()
```

### Event 17

#### Metadata

| Field        | Value    |
|--------------|----------|
| Entrypoint   | 0x0001   |
| Data Size    | 23 bytes |
| Instructions | 5        |

```
      00 01 02 03 04 05 06 07  08 09 0A 0B 0C 0D 0E 0F
      -- -- -- -- -- -- -- --  -- -- -- -- -- -- -- --
0000:    42 1A 27 00 45 00 80  F0 FF FF 7F F0 FF FF 7F   B.'.E..........
0010: 66 64 69 32 01 80 21 00                           fdi2..!.        
```

#### Opcodes

```
  0: 0x0001 [0x42] SET_CLI_EVENT_CANCEL_DATA()
  1: 0x0002 [0x1A] CALL_SUBROUTINE(address=0x0027)
  2: 0x0005 [0x45] LOAD_SCHEDULED_TASK: Load scheduler "fdi2" with entities [LocalPlayer, LocalPlayer], work=[200*, 0*]
  3: 0x0016 [0x21] END_EVENT
  4: 0x0017 [0x00] END_REQSTACK()
```

### Event 14

#### Metadata

| Field        | Value      |
|--------------|------------|
| Entrypoint   | 0x0018     |
| Data Size    | 1419 bytes |
| Instructions | 172        |

```
      00 01 02 03 04 05 06 07  08 09 0A 0B 0C 0D 0E 0F
      -- -- -- -- -- -- -- --  -- -- -- -- -- -- -- --
0010:                          42 03 01 10 02 80 43 00          B.....C.
0020: 43 01 1A 27 00 21 00 03  00 00 02 10 03 01 00 03  C..'.!..........
0030: 10 45 00 80 F0 FF FF 7F  F0 FF FF 7F 66 64 6F 31  .E..........fdo1
0040: 01 80 55 00 80 F0 FF FF  7F F0 FF FF 7F 66 64 6F  ..U..........fdo
0050: 31 46 01 38 03 80 2F 00  28 B0 0F 01 4E 00 28 B0  1F.8../.(...N.(.
0060: 0F 01 4E 00 F0 FF FF 7F  92 01 28 B0 0F 01 94 01  ..N.......(.....
0070: 28 B0 0F 01 94 01 F0 FF  FF 7F BA 28 B0 0F 01 04  (..........(....
0080: 80 05 80 06 80 07 80 BA  F0 FF FF 7F 08 80 09 80  ................
0090: 0A 80 0B 80 80 28 B0 0F  01 80 F0 FF FF 7F 1C 0C  .....(..........
00A0: 80 45 0D 80 F8 FF FF 7F  F8 FF FF 7F 73 31 35 37  .E..........s157
00B0: 01 80 1C 0E 80 45 00 80  F0 FF FF 7F F0 FF FF 7F  .....E..........
00C0: 66 64 69 31 01 80 1C 0F  80 45 00 80 F0 FF FF 7F  fdi1.....E......
00D0: F0 FF FF 7F 6F 76 6C 31  01 80 52 0D 80 F8 FF FF  ....ovl1..R.....
00E0: 7F F8 FF FF 7F 73 31 35  37 45 0D 80 F8 FF FF 7F  .....s157E......
00F0: F8 FF FF 7F 73 31 35 38  01 80 1C 0F 80 52 0D 80  ....s158.....R..
0100: F8 FF FF 7F F8 FF FF 7F  73 31 35 38 45 0D 80 F8  ........s158E...
0110: FF FF 7F F8 FF FF 7F 73  30 35 30 01 80 1C 0C 80  .......s050.....
0120: 27 05 28 B0 0F 01 03 1C  10 80 4A F0 FF FF 7F 28  '.(.......J....(
0130: B0 0F 01 52 0D 80 F8 FF  FF 7F F8 FF FF 7F 73 30  ...R..........s0
0140: 35 30 45 0D 80 F8 FF FF  7F F8 FF FF 7F 73 30 35  50E..........s05
0150: 31 01 80 02 00 00 01 80  00 EA 01 2B 28 B0 0F 01  1..........+(...
0160: 11 80 23 2A 05 28 B0 0F  01 52 0D 80 F8 FF FF 7F  ..#*.(...R......
0170: F8 FF FF 7F 73 30 35 31  45 0D 80 F8 FF FF 7F F8  ....s051E.......
0180: FF FF 7F 73 30 35 33 01  80 2B 28 B0 0F 01 12 80  ...s053..+(.....
0190: 23 52 0D 80 F8 FF FF 7F  F8 FF FF 7F 73 30 35 33  #R..........s053
01A0: 45 0D 80 F8 FF FF 7F F8  FF FF 7F 73 30 35 34 01  E..........s054.
01B0: 80 5B 13 80 28 B0 0F 01  28 B0 0F 01 74 6C 6B 30  .[..(...(...tlk0
01C0: 2B 28 B0 0F 01 14 80 23  2B 28 B0 0F 01 15 80 23  +(.....#+(.....#
01D0: 2B 28 B0 0F 01 16 80 23  52 0D 80 F8 FF FF 7F F8  +(.....#R.......
01E0: FF FF 7F 73 30 35 34 01  4E 02 2B 28 B0 0F 01 17  ...s054.N.+(....
01F0: 80 23 2A 05 28 B0 0F 01  52 0D 80 F8 FF FF 7F F8  .#*.(...R.......
0200: FF FF 7F 73 30 35 31 45  0D 80 F8 FF FF 7F F8 FF  ...s051E........
0210: FF 7F 73 30 35 32 01 80  5B 13 80 28 B0 0F 01 28  ..s052..[..(...(
0220: B0 0F 01 74 6C 6B 30 2B  28 B0 0F 01 18 80 23 02  ...tlk0+(.....#.
0230: 00 00 19 80 00 3F 02 2B  28 B0 0F 01 1A 80 23 52  .....?.+(.....#R
0240: 0D 80 F8 FF FF 7F F8 FF  FF 7F 73 30 35 32 45 0D  ..........s052E.
0250: 80 F8 FF FF 7F F8 FF FF  7F 73 30 39 30 01 80 5B  .........s090..[
0260: 13 80 28 B0 0F 01 28 B0  0F 01 74 6C 6B 31 2B 28  ..(...(...tlk1+(
0270: B0 0F 01 1B 80 23 6E F0  FF FF 7F 1C 80 99 F0 FF  .....#n.........
0280: FF 7F 1C 1D 80 52 0D 80  F8 FF FF 7F F8 FF FF 7F  .....R..........
0290: 73 30 39 30 45 0D 80 F8  FF FF 7F F8 FF FF 7F 73  s090E..........s
02A0: 30 39 31 01 80 5B 13 80  28 B0 0F 01 28 B0 0F 01  091..[..(...(...
02B0: 74 6C 6B 30 02 00 00 01  80 00 D7 02 2B 28 B0 0F  tlk0........+(..
02C0: 01 1E 80 23 2B 28 B0 0F  01 1F 80 23 2B 28 B0 0F  ...#+(.....#+(..
02D0: 01 20 80 23 01 DF 02 2B  28 B0 0F 01 21 80 23 5B  . .#...+(...!.#[
02E0: 13 80 28 B0 0F 01 28 B0  0F 01 74 6C 6B 31 52 0D  ..(...(...tlk1R.
02F0: 80 F8 FF FF 7F F8 FF FF  7F 73 30 39 31 45 0D 80  .........s091E..
0300: F8 FF FF 7F F8 FF FF 7F  73 30 39 32 01 80 27 05  ........s092..'.
0310: F0 FF FF 7F 18 1C 22 80  45 00 80 F0 FF FF 7F F0  ......".E.......
0320: FF FF 7F 66 64 6F 31 01  80 55 00 80 F0 FF FF 7F  ...fdo1..U......
0330: F0 FF FF 7F 66 64 6F 31  52 0D 80 F8 FF FF 7F F8  ....fdo1R.......
0340: FF FF 7F 73 30 39 32 27  05 F0 FF FF 7F 19 7B 28  ...s092'......{(
0350: B0 0F 01 1C 23 80 48 24  80 1C 23 80 45 0D 80 F8  ....#.H$..#.E...
0360: FF FF 7F F8 FF FF 7F 73  30 39 33 01 80 1C 0E 80  .......s093.....
0370: 45 00 80 F0 FF FF 7F F0  FF FF 7F 66 64 69 31 01  E..........fdi1.
0380: 80 5B 13 80 28 B0 0F 01  28 B0 0F 01 74 68 6B 30  .[..(...(...thk0
0390: 2B 28 B0 0F 01 25 80 23  2B 28 B0 0F 01 26 80 23  +(...%.#+(...&.#
03A0: 5F 05 13 80 28 B0 0F 01  28 B0 0F 01 74 68 6B 31  _...(...(...thk1
03B0: 27 80 52 0D 80 F8 FF FF  7F F8 FF FF 7F 73 30 39  '.R..........s09
03C0: 33 45 0D 80 F8 FF FF 7F  F8 FF FF 7F 73 30 39 34  3E..........s094
03D0: 01 80 2B 28 B0 0F 01 28  80 23 2B 28 B0 0F 01 29  ..+(...(.#+(...)
03E0: 80 23 5F 07 28 B0 0F 01  28 B0 0F 01 74 68 6B 31  .#_.(...(...thk1
03F0: 52 0D 80 F8 FF FF 7F F8  FF FF 7F 73 30 39 34 45  R..........s094E
0400: 0D 80 F8 FF FF 7F F8 FF  FF 7F 73 30 39 35 01 80  ..........s095..
0410: 27 05 28 B0 0F 01 04 1C  00 80 1A 42 1D 1C 0C 80  '.(........B....
0420: 7A 00 28 B0 0F 01 52 0D  80 F8 FF FF 7F F8 FF FF  z.(...R.........
0430: 7F 73 30 39 35 BA 28 B0  0F 01 2A 80 2B 80 2C 80  .s095.(...*.+.,.
0440: 2D 80 BA F0 FF FF 7F 2E  80 2F 80 2C 80 30 80 1C  -......../.,.0..
0450: 0C 80 48 24 80 23 27 05  28 B0 0F 01 05 45 0D 80  ..H$.#'.(....E..
0460: F8 FF FF 7F F8 FF FF 7F  73 30 39 36 01 80 1A 21  ........s096...!
0470: 1D 7B F0 FF FF 7F 1C 0F  80 27 05 F0 FF FF 7F 21  .{.......'.....!
0480: 2B 28 B0 0F 01 31 80 23  2A 05 F0 FF FF 7F 2A 05  +(...1.#*.....*.
0490: 28 B0 0F 01 52 0D 80 F8  FF FF 7F F8 FF FF 7F 73  (...R..........s
04A0: 30 39 36 02 01 00 01 80  00 C7 04 45 0D 80 F8 FF  096........E....
04B0: FF 7F F8 FF FF 7F 73 30  39 39 01 80 2B 28 B0 0F  ......s099..+(..
04C0: 01 32 80 23 01 62 05 02  87 7F 33 80 80 E3 04 45  .2.#.b....3....E
04D0: 0D 80 F8 FF FF 7F F8 FF  FF 7F 73 30 39 38 01 80  ..........s098..
04E0: 01 10 05 02 87 7F 1C 80  80 FF 04 45 0D 80 F8 FF  ...........E....
04F0: FF 7F F8 FF FF 7F 73 30  39 38 01 80 01 10 05 45  ......s098.....E
0500: 0D 80 F8 FF FF 7F F8 FF  FF 7F 73 30 39 37 01 80  ..........s097..
0510: 27 05 F0 FF FF 7F 22 1C  0F 80 4A 28 B0 0F 01 F0  '....."...J(....
0520: FF FF 7F 1C 0F 80 52 0D  80 F8 FF FF 7F F8 FF FF  ......R.........
0530: 7F 73 30 39 37 52 0D 80  F8 FF FF 7F F8 FF FF 7F  .s097R..........
0540: 73 30 39 38 45 0D 80 F8  FF FF 7F F8 FF FF 7F 73  s098E..........s
0550: 31 30 30 01 80 03 03 10  34 80 2B 28 B0 0F 01 35  100.....4.+(...5
0560: 80 23 45 00 80 F0 FF FF  7F F0 FF FF 7F 66 64 6F  .#E..........fdo
0570: 31 01 80 55 00 80 F0 FF  FF 7F F0 FF FF 7F 66 64  1..U..........fd
0580: 6F 31 52 0D 80 F8 FF FF  7F F8 FF FF 7F 73 30 39  o1R..........s09
0590: 39 52 0D 80 F8 FF FF 7F  F8 FF FF 7F 73 31 30 30  9R..........s100
05A0: 46 00 1B                                          F..             
```

#### Opcodes

```
  0: 0x0018 [0x42] SET_CLI_EVENT_CANCEL_DATA()
  1: 0x0019 [0x03] Work_Zone[1] = 1*
  2: 0x001E [0x43] SEND_EVENT_UPDATE: Send pending tag to server (packet 0x005B)
  3: 0x0020 [0x43] SEND_EVENT_UPDATE: Check pending flag (skip if not pending)
  4: 0x0022 [0x1A] CALL_SUBROUTINE(address=0x0027)
  5: 0x0025 [0x21] END_EVENT
  6: 0x0026 [0x00] END_REQSTACK()

SUBROUTINE_0027:
  7: 0x0027 [0x03] ExtData[1]->WorkLocal[0] = Work_Zone[2]
  8: 0x002C [0x03] ExtData[1]->WorkLocal[1] = Work_Zone[3]
  9: 0x0031 [0x45] LOAD_SCHEDULED_TASK: Load scheduler "fdo1" with entities [LocalPlayer, LocalPlayer], work=[200*, 0*]
 10: 0x0042 [0x55] WAIT_LOAD_SCHEDULER: Wait for scheduler "fdo1" with entities [LocalPlayer, LocalPlayer], work=200*
 11: 0x0051 [0x46] CAMERA_CONTROL: Disable user control
 12: 0x0053 [0x38] SET_CLIENT_EVENT_MODE(mode=27*)
 13: 0x0056 [0x2F] Esha'ntarl (ID: 17805352/0x010FB028)->Render.Flags0 &= ~0x80000 // Bit 19
 14: 0x005C [0x4E] SET_ENTITY_HIDE_FLAG: Show Esha'ntarl (ID: 17805352/0x010FB028)
 15: 0x0062 [0x4E] SET_ENTITY_HIDE_FLAG: Show LocalPlayer
 16: 0x0068 [0x92] Esha'ntarl (ID: 17805352/0x010FB028)->Render.Flags3 ^= 0x01
 17: 0x006E [0x94] Esha'ntarl (ID: 17805352/0x010FB028)->Render.Flags3 ^= 0x01
 18: 0x0074 [0x94] LocalPlayer->Render.Flags3 ^= 0x01
 19: 0x007A [0xBA] SET_ENTITY_POSITION(entity_id=Esha'ntarl (ID: 17805352/0x010FB028), pos_x=2.961*, pos_z=-6.005*, pos_y=-13.000*, direction=252.1°*)
 20: 0x0087 [0xBA] SET_ENTITY_POSITION(entity_id=LocalPlayer, pos_x=-1.025*, pos_z=0.590*, pos_y=-12.999*, direction=280.9°*)
 21: 0x0094 [0x80] LOAD_WAIT(entity=Esha'ntarl (ID: 17805352/0x010FB028))
 22: 0x0099 [0x80] LOAD_WAIT(entity=LocalPlayer)
 23: 0x009E [0x1C] WAIT(30* ticks)
 24: 0x00A1 [0x45] LOAD_SCHEDULED_TASK: Load scheduler "s157" with entities [EventEntity, EventEntity], work=[770*, 0*]
 25: 0x00B2 [0x1C] WAIT(15* ticks)
 26: 0x00B5 [0x45] LOAD_SCHEDULED_TASK: Load scheduler "fdi1" with entities [LocalPlayer, LocalPlayer], work=[200*, 0*]
 27: 0x00C6 [0x1C] WAIT(120* ticks)
 28: 0x00C9 [0x45] LOAD_SCHEDULED_TASK: Load scheduler "ovl1" with entities [LocalPlayer, LocalPlayer], work=[200*, 0*]
 29: 0x00DA [0x52] END_LOAD_SCHEDULER: End scheduler "s157" with entities [EventEntity, EventEntity], work=770*
 30: 0x00E9 [0x45] LOAD_SCHEDULED_TASK: Load scheduler "s158" with entities [EventEntity, EventEntity], work=[770*, 0*]
 31: 0x00FA [0x1C] WAIT(120* ticks)
 32: 0x00FD [0x52] END_LOAD_SCHEDULER: End scheduler "s158" with entities [EventEntity, EventEntity], work=770*
 33: 0x010C [0x45] LOAD_SCHEDULED_TASK: Load scheduler "s050" with entities [EventEntity, EventEntity], work=[770*, 0*]
 34: 0x011D [0x1C] WAIT(30* ticks)
 35: 0x0120 [0x27] REQ_SET(priority=0x05, entity_id=Esha'ntarl (ID: 17805352/0x010FB028), tag_num=0x03)
 36: 0x0127 [0x1C] WAIT(180* ticks)
 37: 0x012A [0x4A] LocalPlayer looks at Esha'ntarl (ID: 17805352/0x010FB028)
 38: 0x0133 [0x52] END_LOAD_SCHEDULER: End scheduler "s050" with entities [EventEntity, EventEntity], work=770*
 39: 0x0142 [0x45] LOAD_SCHEDULED_TASK: Load scheduler "s051" with entities [EventEntity, EventEntity], work=[770*, 0*]
 40: 0x0153 [0x02] IF !(ExtData[1]->WorkLocal[0] == 0*) GOTO 0x01EA
 41: 0x015B [0x2B] Esha'ntarl (ID: 17805352/0x010FB028) [7610*]:
    → "You are <Player>, correct?"
 42: 0x0162 [0x23] WAIT_FOR_DIALOG_INTERACTION
 43: 0x0163 [0x2A] GET_REQ_LEVEL(level=5, entity_id=Esha'ntarl (ID: 17805352/0x010FB028))
 44: 0x0169 [0x52] END_LOAD_SCHEDULER: End scheduler "s051" with entities [EventEntity, EventEntity], work=770*
 45: 0x0178 [0x45] LOAD_SCHEDULED_TASK: Load scheduler "s053" with entities [EventEntity, EventEntity], work=[770*, 0*]
 46: 0x0189 [0x2B] Esha'ntarl (ID: 17805352/0x010FB028) [7611*]:
    → "Permit me to introduce myself. I am Esha'ntarl, representative of Archduke Kam'lanaut of the Grand Duchy of Jeuno."
 47: 0x0190 [0x23] WAIT_FOR_DIALOG_INTERACTION
 48: 0x0191 [0x52] END_LOAD_SCHEDULER: End scheduler "s053" with entities [EventEntity, EventEntity], work=770*
 49: 0x01A0 [0x45] LOAD_SCHEDULED_TASK: Load scheduler "s054" with entities [EventEntity, EventEntity], work=[770*, 0*]
 50: 0x01B1 [0x5B] LOAD_EXT_SCHEDULER: Load scheduler "tlk0" with entities [Esha'ntarl (ID: 17805352/0x010FB028), Esha'ntarl (ID: 17805352/0x010FB028)], work=445*
 51: 0x01C0 [0x2B] Esha'ntarl (ID: 17805352/0x010FB028) [7612*]:
    → "Ah, but your face belies your surprise at seeing one such as me here. Despite my position, I am given free reign to go where I please."
 52: 0x01C7 [0x23] WAIT_FOR_DIALOG_INTERACTION
 53: 0x01C8 [0x2B] Esha'ntarl (ID: 17805352/0x010FB028) [7613*]:
    → "I heard tell of a young woman struggling to save the world from oblivion together with her master...an adventurer. You."
 54: 0x01CF [0x23] WAIT_FOR_DIALOG_INTERACTION
 55: 0x01D0 [0x2B] Esha'ntarl (ID: 17805352/0x010FB028) [7614*]:
    → "I desired but to lay my own two eyes on [his/her] visage."
 56: 0x01D7 [0x23] WAIT_FOR_DIALOG_INTERACTION
 57: 0x01D8 [0x52] END_LOAD_SCHEDULER: End scheduler "s054" with entities [EventEntity, EventEntity], work=770*
 58: 0x01E7 [0x01] GOTO 0x024E
 59: 0x01EA [0x2B] Esha'ntarl (ID: 17805352/0x010FB028) [7607*]:
    → "I had an inkling you would be here."
 60: 0x01F1 [0x23] WAIT_FOR_DIALOG_INTERACTION
 61: 0x01F2 [0x2A] GET_REQ_LEVEL(level=5, entity_id=Esha'ntarl (ID: 17805352/0x010FB028))
 62: 0x01F8 [0x52] END_LOAD_SCHEDULER: End scheduler "s051" with entities [EventEntity, EventEntity], work=770*
 63: 0x0207 [0x45] LOAD_SCHEDULED_TASK: Load scheduler "s052" with entities [EventEntity, EventEntity], work=[770*, 0*]
 64: 0x0218 [0x5B] LOAD_EXT_SCHEDULER: Load scheduler "tlk0" with entities [Esha'ntarl (ID: 17805352/0x010FB028), Esha'ntarl (ID: 17805352/0x010FB028)], work=445*
 65: 0x0227 [0x2B] Esha'ntarl (ID: 17805352/0x010FB028) [7608*]:
    → "You must be taken aback to be reunited with me here, of all places."
 66: 0x022E [0x23] WAIT_FOR_DIALOG_INTERACTION
 67: 0x022F [0x02] IF !(ExtData[1]->WorkLocal[0] == 2*) GOTO 0x023F
 68: 0x0237 [0x2B] Esha'ntarl (ID: 17805352/0x010FB028) [7609*]:
    → "To think we had prevented the world from ending one way, only to find out it would end another..."
 69: 0x023E [0x23] WAIT_FOR_DIALOG_INTERACTION
 70: 0x023F [0x52] END_LOAD_SCHEDULER: End scheduler "s052" with entities [EventEntity, EventEntity], work=770*

SUBROUTINE_024E:
 71: 0x024E [0x45] LOAD_SCHEDULED_TASK: Load scheduler "s090" with entities [EventEntity, EventEntity], work=[770*, 0*]
 72: 0x025F [0x5B] LOAD_EXT_SCHEDULER: Load scheduler "tlk1" with entities [Esha'ntarl (ID: 17805352/0x010FB028), Esha'ntarl (ID: 17805352/0x010FB028)], work=445*
 73: 0x026E [0x2B] Esha'ntarl (ID: 17805352/0x010FB028) [7615*]:
    → "And Iroha? Is she not with you?"
 74: 0x0275 [0x23] WAIT_FOR_DIALOG_INTERACTION
 75: 0x0276 [0x6E] LocalPlayer uses emote 6*
 76: 0x027D [0x99] Wait for LocalPlayer animation to complete
 77: 0x0282 [0x1C] WAIT(90* ticks)
 78: 0x0285 [0x52] END_LOAD_SCHEDULER: End scheduler "s090" with entities [EventEntity, EventEntity], work=770*
 79: 0x0294 [0x45] LOAD_SCHEDULED_TASK: Load scheduler "s091" with entities [EventEntity, EventEntity], work=[770*, 0*]
 80: 0x02A5 [0x5B] LOAD_EXT_SCHEDULER: Load scheduler "tlk0" with entities [Esha'ntarl (ID: 17805352/0x010FB028), Esha'ntarl (ID: 17805352/0x010FB028)], work=445*
 81: 0x02B4 [0x02] IF !(ExtData[1]->WorkLocal[0] == 0*) GOTO 0x02D7
 82: 0x02BC [0x2B] Esha'ntarl (ID: 17805352/0x010FB028) [7617*]:
    → "I understand you have no reason to place your trust in me, but know this--I wish only to shelter this world from harm."
 83: 0x02C3 [0x23] WAIT_FOR_DIALOG_INTERACTION
 84: 0x02C4 [0x2B] Esha'ntarl (ID: 17805352/0x010FB028) [7618*]:
    → "Surely you can sense that my words ring true."
 85: 0x02CB [0x23] WAIT_FOR_DIALOG_INTERACTION
 86: 0x02CC [0x2B] Esha'ntarl (ID: 17805352/0x010FB028) [7619*]:
    → "Please. Apprise me of what you have learned thus far."
 87: 0x02D3 [0x23] WAIT_FOR_DIALOG_INTERACTION
 88: 0x02D4 [0x01] GOTO 0x02DF
 89: 0x02D7 [0x2B] Esha'ntarl (ID: 17805352/0x010FB028) [7616*]:
    → "Please. Apprise me of what you have learned thus far."
 90: 0x02DE [0x23] WAIT_FOR_DIALOG_INTERACTION

SUBROUTINE_02DF:
 91: 0x02DF [0x5B] LOAD_EXT_SCHEDULER: Load scheduler "tlk1" with entities [Esha'ntarl (ID: 17805352/0x010FB028), Esha'ntarl (ID: 17805352/0x010FB028)], work=445*
 92: 0x02EE [0x52] END_LOAD_SCHEDULER: End scheduler "s091" with entities [EventEntity, EventEntity], work=770*
 93: 0x02FD [0x45] LOAD_SCHEDULED_TASK: Load scheduler "s092" with entities [EventEntity, EventEntity], work=[770*, 0*]
 94: 0x030E [0x27] REQ_SET(priority=0x05, entity_id=LocalPlayer, tag_num=0x18)
 95: 0x0315 [0x1C] WAIT(80* ticks)
 96: 0x0318 [0x45] LOAD_SCHEDULED_TASK: Load scheduler "fdo1" with entities [LocalPlayer, LocalPlayer], work=[200*, 0*]
 97: 0x0329 [0x55] WAIT_LOAD_SCHEDULER: Wait for scheduler "fdo1" with entities [LocalPlayer, LocalPlayer], work=200*
 98: 0x0338 [0x52] END_LOAD_SCHEDULER: End scheduler "s092" with entities [EventEntity, EventEntity], work=770*
 99: 0x0347 [0x27] REQ_SET(priority=0x05, entity_id=LocalPlayer, tag_num=0x19)
100: 0x034E [0x7B] Esha'ntarl (ID: 17805352/0x010FB028) stops talking
101: 0x0353 [0x1C] WAIT(60* ticks)
102: 0x0356 [0x48] [System] [7198*]:
    → ""
103: 0x0359 [0x1C] WAIT(60* ticks)
104: 0x035C [0x45] LOAD_SCHEDULED_TASK: Load scheduler "s093" with entities [EventEntity, EventEntity], work=[770*, 0*]
105: 0x036D [0x1C] WAIT(15* ticks)
106: 0x0370 [0x45] LOAD_SCHEDULED_TASK: Load scheduler "fdi1" with entities [LocalPlayer, LocalPlayer], work=[200*, 0*]
107: 0x0381 [0x5B] LOAD_EXT_SCHEDULER: Load scheduler "thk0" with entities [Esha'ntarl (ID: 17805352/0x010FB028), Esha'ntarl (ID: 17805352/0x010FB028)], work=445*
108: 0x0390 [0x2B] Esha'ntarl (ID: 17805352/0x010FB028) [7620*]:
    → "So Iroha expired and has yet to return to this mortal coil."
109: 0x0397 [0x23] WAIT_FOR_DIALOG_INTERACTION
110: 0x0398 [0x2B] Esha'ntarl (ID: 17805352/0x010FB028) [7621*]:
    → "Revival is in the realm of the gods, and if she has not yet returned, it may be because they do not permit it."
111: 0x039F [0x23] WAIT_FOR_DIALOG_INTERACTION
112: 0x03A0 [0x5F] MULTI_HANDLER_COMPLEX(mode=0x05 - Load ext scheduler with flag (OpCode 0x5B mode 0, flag 1), ref=445*, entity1=Esha'ntarl (ID: 17805352/0x010FB028), entity2=Esha'ntarl (ID: 17805352/0x010FB028), string="thk1", extra=150*)
113: 0x03B2 [0x52] END_LOAD_SCHEDULER: End scheduler "s093" with entities [EventEntity, EventEntity], work=770*
114: 0x03C1 [0x45] LOAD_SCHEDULED_TASK: Load scheduler "s094" with entities [EventEntity, EventEntity], work=[770*, 0*]
115: 0x03D2 [0x2B] Esha'ntarl (ID: 17805352/0x010FB028) [7622*]:
    → "Should she be struggling in earnest against this void...this "Cloud of Darkness," then it is but a matter of time before they see fit to bring her here once more."
116: 0x03D9 [0x23] WAIT_FOR_DIALOG_INTERACTION
117: 0x03DA [0x2B] Esha'ntarl (ID: 17805352/0x010FB028) [7623*]:
    → "Unless... Unless their own powers have begun to wane and they have little time left."
118: 0x03E1 [0x23] WAIT_FOR_DIALOG_INTERACTION
119: 0x03E2 [0x5F] MULTI_HANDLER_COMPLEX(mode=0x07 - Wait scheduler task (OpCode 0x53))
120: 0x03F0 [0x52] END_LOAD_SCHEDULER: End scheduler "s094" with entities [EventEntity, EventEntity], work=770*
121: 0x03FF [0x45] LOAD_SCHEDULED_TASK: Load scheduler "s095" with entities [EventEntity, EventEntity], work=[770*, 0*]
122: 0x0410 [0x27] REQ_SET(priority=0x05, entity_id=Esha'ntarl (ID: 17805352/0x010FB028), tag_num=0x04)
123: 0x0417 [0x1C] WAIT(200* ticks)
124: 0x041A [0x1A] CALL_SUBROUTINE(address=0x1D42)
125: 0x041D [0x1C] WAIT(30* ticks)
126: 0x0420 [0x7A] VM_CONTROL: Reset VM for Esha'ntarl (ID: 17805352/0x010FB028)
127: 0x0426 [0x52] END_LOAD_SCHEDULER: End scheduler "s095" with entities [EventEntity, EventEntity], work=770*
128: 0x0435 [0xBA] SET_ENTITY_POSITION(entity_id=Esha'ntarl (ID: 17805352/0x010FB028), pos_x=1.248*, pos_z=39.232*, pos_y=-12.300*, direction=272.4°*)
129: 0x0442 [0xBA] SET_ENTITY_POSITION(entity_id=LocalPlayer, pos_x=-1.564*, pos_z=39.340*, pos_y=-12.300*, direction=267.4°*)
130: 0x044F [0x1C] WAIT(30* ticks)
131: 0x0452 [0x48] [System] [7198*]:
    → ""
132: 0x0455 [0x23] WAIT_FOR_DIALOG_INTERACTION
133: 0x0456 [0x27] REQ_SET(priority=0x05, entity_id=Esha'ntarl (ID: 17805352/0x010FB028), tag_num=0x05)
134: 0x045D [0x45] LOAD_SCHEDULED_TASK: Load scheduler "s096" with entities [EventEntity, EventEntity], work=[770*, 0*]
135: 0x046E [0x1A] CALL_SUBROUTINE(address=0x1D21)
136: 0x0471 [0x7B] LocalPlayer stops talking
137: 0x0476 [0x1C] WAIT(120* ticks)
138: 0x0479 [0x27] REQ_SET(priority=0x05, entity_id=LocalPlayer, tag_num=0x21)
139: 0x0480 [0x2B] Esha'ntarl (ID: 17805352/0x010FB028) [7624*]:
    → "Only the ancients--the Zilart--possess the means by which to open these gates."
140: 0x0487 [0x23] WAIT_FOR_DIALOG_INTERACTION
141: 0x0488 [0x2A] GET_REQ_LEVEL(level=5, entity_id=LocalPlayer)
142: 0x048E [0x2A] GET_REQ_LEVEL(level=5, entity_id=Esha'ntarl (ID: 17805352/0x010FB028))
143: 0x0494 [0x52] END_LOAD_SCHEDULER: End scheduler "s096" with entities [EventEntity, EventEntity], work=770*
144: 0x04A3 [0x02] IF !(ExtData[1]->WorkLocal[1] == 0*) GOTO 0x04C7
145: 0x04AB [0x45] LOAD_SCHEDULED_TASK: Load scheduler "s099" with entities [EventEntity, EventEntity], work=[770*, 0*]
146: 0x04BC [0x2B] Esha'ntarl (ID: 17805352/0x010FB028) [7626*]:
    → "I shall unbar the way."
147: 0x04C3 [0x23] WAIT_FOR_DIALOG_INTERACTION
148: 0x04C4 [0x01] GOTO 0x0562
149: 0x04C7 [0x02] IF !(LocalPlayer->Race == 5*) GOTO 0x04E3
150: 0x04CF [0x45] LOAD_SCHEDULED_TASK: Load scheduler "s098" with entities [EventEntity, EventEntity], work=[770*, 0*]
151: 0x04E0 [0x01] GOTO 0x0510
152: 0x04E3 [0x02] IF !(LocalPlayer->Race == 6*) GOTO 0x04FF
153: 0x04EB [0x45] LOAD_SCHEDULED_TASK: Load scheduler "s098" with entities [EventEntity, EventEntity], work=[770*, 0*]
154: 0x04FC [0x01] GOTO 0x0510
155: 0x04FF [0x45] LOAD_SCHEDULED_TASK: Load scheduler "s097" with entities [EventEntity, EventEntity], work=[770*, 0*]

SUBROUTINE_0510:
156: 0x0510 [0x27] REQ_SET(priority=0x05, entity_id=LocalPlayer, tag_num=0x22)
157: 0x0517 [0x1C] WAIT(120* ticks)
158: 0x051A [0x4A] Esha'ntarl (ID: 17805352/0x010FB028) looks at LocalPlayer
159: 0x0523 [0x1C] WAIT(120* ticks)
160: 0x0526 [0x52] END_LOAD_SCHEDULER: End scheduler "s097" with entities [EventEntity, EventEntity], work=770*
161: 0x0535 [0x52] END_LOAD_SCHEDULER: End scheduler "s098" with entities [EventEntity, EventEntity], work=770*
162: 0x0544 [0x45] LOAD_SCHEDULED_TASK: Load scheduler "s100" with entities [EventEntity, EventEntity], work=[770*, 0*]
163: 0x0555 [0x03] Work_Zone[3] = 452*
164: 0x055A [0x2B] Esha'ntarl (ID: 17805352/0x010FB028) [7625*]:
    → "Ah, but you are already in possession of $6. I should have expected no less."
165: 0x0561 [0x23] WAIT_FOR_DIALOG_INTERACTION

SUBROUTINE_0562:
166: 0x0562 [0x45] LOAD_SCHEDULED_TASK: Load scheduler "fdo1" with entities [LocalPlayer, LocalPlayer], work=[200*, 0*]
167: 0x0573 [0x55] WAIT_LOAD_SCHEDULER: Wait for scheduler "fdo1" with entities [LocalPlayer, LocalPlayer], work=200*
168: 0x0582 [0x52] END_LOAD_SCHEDULER: End scheduler "s099" with entities [EventEntity, EventEntity], work=770*
169: 0x0591 [0x52] END_LOAD_SCHEDULER: End scheduler "s100" with entities [EventEntity, EventEntity], work=770*
170: 0x05A0 [0x46] CAMERA_CONTROL: Restore default settings
171: 0x05A2 [0x1B] RETURN
```

### Event 15

#### Metadata

| Field        | Value      |
|--------------|------------|
| Entrypoint   | 0x05A3     |
| Data Size    | 5029 bytes |
| Instructions | 605        |

```
      00 01 02 03 04 05 06 07  08 09 0A 0B 0C 0D 0E 0F
      -- -- -- -- -- -- -- --  -- -- -- -- -- -- -- --
05A0:          42 03 00 00 02  10 03 02 00 03 10 1A 42     B...........B
05B0: 1D 46 01 38 03 80 2F 00  28 B0 0F 01 4E 00 28 B0  .F.8../.(...N.(.
05C0: 0F 01 4E 00 F0 FF FF 7F  92 01 28 B0 0F 01 94 01  ..N.......(.....
05D0: 28 B0 0F 01 94 01 F0 FF  FF 7F 02 87 7F 33 80 80  (............3..
05E0: EC 05 27 05 F0 FF FF 7F  23 01 29 06 02 87 7F 1C  ..'.....#.).....
05F0: 80 80 FE 05 27 05 F0 FF  FF 7F 23 01 29 06 02 87  ....'.....#.)...
0600: 7F 36 80 80 10 06 27 05  F0 FF FF 7F 24 01 29 06  .6....'.....$.).
0610: 02 87 7F 37 80 80 22 06  27 05 F0 FF FF 7F 25 01  ...7..".'.....%.
0620: 29 06 27 05 F0 FF FF 7F  26 BA 28 B0 0F 01 38 80  ).'.....&.(...8.
0630: 39 80 2C 80 2D 80 BA F0  FF FF 7F 3A 80 3B 80 2C  9.,.-......:.;.,
0640: 80 2D 80 80 28 B0 0F 01  80 F0 FF FF 7F 45 3C 80  .-..(........E<.
0650: F8 FF FF 7F F8 FF FF 7F  73 31 30 31 01 80 27 05  ........s101..'.
0660: 06 B0 0F 01 05 2D 06 B0  0F 01 06 B0 0F 01 64 72  .....-........dr
0670: 6F 70 1A 21 1D 1C 3D 80  52 3C 80 F8 FF FF 7F F8  op.!..=.R<......
0680: FF FF 7F 73 31 30 31 45  3C 80 F8 FF FF 7F F8 FF  ...s101E<.......
0690: FF 7F 73 31 30 33 01 80  1C 3E 80 52 3C 80 F8 FF  ..s103...>.R<...
06A0: FF 7F F8 FF FF 7F 73 31  30 33 45 3C 80 F8 FF FF  ......s103E<....
06B0: 7F F8 FF FF 7F 73 31 30  32 01 80 27 05 28 B0 0F  .....s102..'.(..
06C0: 01 07 1C 3F 80 27 05 F0  FF FF 7F 27 1C 40 80 1A  ...?.'.....'.@..
06D0: 42 1D 1C 0C 80 52 3C 80  F8 FF FF 7F F8 FF FF 7F  B....R<.........
06E0: 73 31 30 32 2D 06 B0 0F  01 06 B0 0F 01 64 72 63  s102-........drc
06F0: 6C 27 10 06 B0 0F 01 06  7A 00 28 B0 0F 01 7A 00  l'......z.(...z.
0700: F0 FF FF 7F 2F 00 03 B0  0F 01 2F 00 29 B0 0F 01  ..../...../.)...
0710: 2F 00 2A B0 0F 01 4E 00  03 B0 0F 01 4E 00 29 B0  /.*...N.....N.).
0720: 0F 01 4E 00 2A B0 0F 01  92 01 03 B0 0F 01 92 01  ..N.*...........
0730: 29 B0 0F 01 94 01 03 B0  0F 01 94 01 29 B0 0F 01  )...........)...
0740: 94 01 2A B0 0F 01 59 05  2A B0 0F 01 01 BA 03 B0  ..*...Y.*.......
0750: 0F 01 01 80 41 80 42 80  43 80 BA 28 B0 0F 01 44  ....A.B.C..(...D
0760: 80 45 80 46 80 47 80 BA  F0 FF FF 7F 48 80 49 80  .E.F.G......H.I.
0770: 46 80 4A 80 BA 29 B0 0F  01 4B 80 4C 80 42 80 4D  F.J..)...K.L.B.M
0780: 80 02 87 7F 4E 80 80 99  07 BA 2A B0 0F 01 4F 80  ....N.....*...O.
0790: 50 80 51 80 4D 80 01 1E  08 02 87 7F 52 80 80 B1  P.Q.M.......R...
07A0: 07 BA 2A B0 0F 01 4F 80  50 80 51 80 4D 80 01 1E  ..*...O.P.Q.M...
07B0: 08 02 87 7F 33 80 80 C9  07 BA 2A B0 0F 01 4F 80  ....3.....*...O.
07C0: 50 80 53 80 4D 80 01 1E  08 02 87 7F 1C 80 80 E1  P.S.M...........
07D0: 07 BA 2A B0 0F 01 4F 80  50 80 53 80 4D 80 01 1E  ..*...O.P.S.M...
07E0: 08 02 87 7F 36 80 80 F9  07 BA 2A B0 0F 01 4F 80  ....6.....*...O.
07F0: 50 80 54 80 4D 80 01 1E  08 02 87 7F 37 80 80 11  P.T.M.......7...
0800: 08 BA 2A B0 0F 01 4F 80  50 80 51 80 4D 80 01 1E  ..*...O.P.Q.M...
0810: 08 BA 2A B0 0F 01 4F 80  50 80 55 80 4D 80 80 03  ..*...O.P.U.M...
0820: B0 0F 01 80 28 B0 0F 01  80 F0 FF FF 7F 48 24 80  ....(........H$.
0830: 23 27 05 28 B0 0F 01 08  1C 33 80 27 05 F0 FF FF  #'.(.....3.'....
0840: 7F 28 1C 0C 80 02 87 7F  02 80 80 60 08 5F 03 56  .(.........`._.V
0850: 80 29 B0 0F 01 29 B0 0F  01 68 6D 6D 6C 01 1D 09  .)...)...hmml...
0860: 02 87 7F 19 80 80 7B 08  5F 03 56 80 29 B0 0F 01  ......{._.V.)...
0870: 29 B0 0F 01 68 66 6D 6C  01 1D 09 02 87 7F 4E 80  )...hfml......N.
0880: 80 96 08 5F 03 56 80 29  B0 0F 01 29 B0 0F 01 65  ..._.V.)...)...e
0890: 6D 6D 6C 01 1D 09 02 87  7F 52 80 80 B1 08 5F 03  mml......R...._.
08A0: 56 80 29 B0 0F 01 29 B0  0F 01 65 66 6D 6C 01 1D  V.)...)...efml..
08B0: 09 02 87 7F 33 80 80 CC  08 5F 03 56 80 29 B0 0F  ....3...._.V.)..
08C0: 01 29 B0 0F 01 74 6D 61  6C 01 1D 09 02 87 7F 1C  .)...tmal.......
08D0: 80 80 E7 08 5F 03 56 80  29 B0 0F 01 29 B0 0F 01  ...._.V.)...)...
08E0: 74 6D 61 6C 01 1D 09 02  87 7F 36 80 80 02 09 5F  tmal......6...._
08F0: 03 56 80 29 B0 0F 01 29  B0 0F 01 6D 6D 61 6C 01  .V.)...)...mmal.
0900: 1D 09 02 87 7F 37 80 80  1D 09 5F 03 56 80 29 B0  .....7...._.V.).
0910: 0F 01 29 B0 0F 01 67 6D  61 6C 01 1D 09 45 3C 80  ..)...gmal...E<.
0920: F8 FF FF 7F F8 FF FF 7F  73 31 30 37 01 80 1A 21  ........s107...!
0930: 1D 1C 10 80 52 3C 80 F8  FF FF 7F F8 FF FF 7F 73  ....R<.........s
0940: 31 30 37 45 3C 80 F8 FF  FF 7F F8 FF FF 7F 73 31  107E<.........s1
0950: 30 38 01 80 2B 29 B0 0F  01 57 80 1C 0F 80 23 52  08..+)...W....#R
0960: 3C 80 F8 FF FF 7F F8 FF  FF 7F 73 31 30 38 45 3C  <.........s108E<
0970: 80 F8 FF FF 7F F8 FF FF  7F 73 31 30 39 01 80 27  .........s109..'
0980: 10 03 B0 0F 01 0A 1C 10  80 52 3C 80 F8 FF FF 7F  .........R<.....
0990: F8 FF FF 7F 73 31 30 39  45 3C 80 F8 FF FF 7F F8  ....s109E<......
09A0: FF FF 7F 73 31 31 30 01  80 2B 03 B0 0F 01 58 80  ...s110..+....X.
09B0: 1C 1D 80 23 52 3C 80 F8  FF FF 7F F8 FF FF 7F 73  ...#R<.........s
09C0: 31 31 30 45 3C 80 F8 FF  FF 7F F8 FF FF 7F 73 31  110E<.........s1
09D0: 31 31 01 80 79 00 28 B0  0F 01 F0 FF FF 7F 5B 13  11..y.(.......[.
09E0: 80 28 B0 0F 01 28 B0 0F  01 74 6C 6B 30 2B 28 B0  .(...(...tlk0+(.
09F0: 0F 01 59 80 1C 1D 80 23  5B 13 80 28 B0 0F 01 28  ..Y....#[..(...(
0A00: B0 0F 01 74 6C 6B 31 52  3C 80 F8 FF FF 7F F8 FF  ...tlk1R<.......
0A10: FF 7F 73 31 31 31 45 3C  80 F8 FF FF 7F F8 FF FF  ..s111E<........
0A20: 7F 73 31 31 32 01 80 79  00 28 B0 0F 01 03 B0 0F  .s112..y.(......
0A30: 01 1C 0E 80 79 00 03 B0  0F 01 28 B0 0F 01 2B 03  ....y.....(...+.
0A40: B0 0F 01 5A 80 1C 1D 80  23 5B 5B 80 28 B0 0F 01  ...Z....#[[.(...
0A50: 28 B0 0F 01 79 65 73 30  2B 28 B0 0F 01 5C 80 1C  (...yes0+(...\..
0A60: 5D 80 23 52 3C 80 F8 FF  FF 7F F8 FF FF 7F 73 31  ].#R<.........s1
0A70: 31 32 45 3C 80 F8 FF FF  7F F8 FF FF 7F 73 31 31  12E<.........s11
0A80: 33 01 80 2B 28 B0 0F 01  5E 80 1C 0F 80 23 52 3C  3..+(...^....#R<
0A90: 80 F8 FF FF 7F F8 FF FF  7F 73 31 31 33 45 3C 80  .........s113E<.
0AA0: F8 FF FF 7F F8 FF FF 7F  73 31 31 34 01 80 7B 03  ........s114..{.
0AB0: B0 0F 01 5B 5F 80 03 B0  0F 01 03 B0 0F 01 75 74  ...[_.........ut
0AC0: 75 30 2B 03 B0 0F 01 60  80 1C 23 80 23 2B 03 B0  u0+....`..#.#+..
0AD0: 0F 01 61 80 23 1C 1D 80  23 5C A0 01 80 0F 80 5C  ..a.#...#\.....\
0AE0: A1 01 80 62 80 1A 42 1D  1C 0C 80 52 3C 80 F8 FF  ...b..B....R<...
0AF0: FF 7F F8 FF FF 7F 73 31  31 34 6B 69 64 6C 30 03  ......s114kidl0.
0B00: B0 0F 01 2F 00 2B B0 0F  01 2F 00 2C B0 0F 01 2F  .../.+.../.,.../
0B10: 00 2D B0 0F 01 2F 00 2E  B0 0F 01 2F 00 2F B0 0F  .-.../....././..
0B20: 01 4E 00 2B B0 0F 01 4E  00 2C B0 0F 01 4E 00 2D  .N.+...N.,...N.-
0B30: B0 0F 01 4E 00 2E B0 0F  01 4E 00 2F B0 0F 01 94  ...N.....N./....
0B40: 01 2B B0 0F 01 94 01 2C  B0 0F 01 94 01 2D B0 0F  .+.....,.....-..
0B50: 01 94 01 2E B0 0F 01 94  01 2F B0 0F 01 59 05 2B  ........./...Y.+
0B60: B0 0F 01 01 59 05 2C B0  0F 01 01 59 05 2D B0 0F  ....Y.,....Y.-..
0B70: 01 01 59 05 2E B0 0F 01  01 59 05 2F B0 0F 01 01  ..Y......Y./....
0B80: BA 2B B0 0F 01 63 80 64  80 65 80 66 80 BA 2C B0  .+...c.d.e.f..,.
0B90: 0F 01 67 80 68 80 65 80  66 80 BA 2D B0 0F 01 69  ..g.h.e.f..-...i
0BA0: 80 6A 80 65 80 66 80 BA  2E B0 0F 01 6B 80 6C 80  .j.e.f......k.l.
0BB0: 65 80 66 80 BA 2F B0 0F  01 6D 80 6E 80 65 80 66  e.f../...m.n.e.f
0BC0: 80 80 2B B0 0F 01 80 2C  B0 0F 01 80 2D B0 0F 01  ..+....,....-...
0BD0: 80 2E B0 0F 01 80 2F B0  0F 01 1C 0C 80 5C 00 6F  ....../......\.o
0BE0: 80 5C 01 6F 80 5C 02 6F  80 5C 03 6F 80 9A D0 70  .\.o.\.o.\.o...p
0BF0: 80 2D B0 0F 01 2D B0 0F  01 6B 79 75 30 01 80 62  .-...-...kyu0..b
0C00: 23 80 2B B0 0F 01 2B B0  0F 01 73 6D 30 32 01 80  #.+...+...sm02..
0C10: 62 23 80 2C B0 0F 01 2C  B0 0F 01 73 6D 30 32 01  b#.,...,...sm02.
0C20: 80 62 23 80 2D B0 0F 01  2D B0 0F 01 73 6D 30 32  .b#.-...-...sm02
0C30: 01 80 62 23 80 2E B0 0F  01 2E B0 0F 01 73 6D 30  ..b#.........sm0
0C40: 32 01 80 62 23 80 2F B0  0F 01 2F B0 0F 01 73 6D  2..b#./.../...sm
0C50: 30 32 01 80 1C 0C 80 27  05 29 B0 0F 01 02 45 3C  02.....'.)....E<
0C60: 80 F8 FF FF 7F F8 FF FF  7F 73 31 31 35 01 80 1A  .........s115...
0C70: 21 1D 2B 03 B0 0F 01 71  80 23 2B 03 B0 0F 01 72  !.+....q.#+....r
0C80: 80 23 2B 03 B0 0F 01 73  80 23 2A 05 29 B0 0F 01  .#+....s.#*.)...
0C90: 1A 42 1D 1C 0C 80 52 3C  80 F8 FF FF 7F F8 FF FF  .B....R<........
0CA0: 7F 73 31 31 35 D0 70 80  2D B0 0F 01 2D B0 0F 01  .s115.p.-...-...
0CB0: 6B 6C 6B 79 01 80 27 05  2B B0 0F 01 02 27 05 2C  klky..'.+....'.,
0CC0: B0 0F 01 02 27 05 2D B0  0F 01 02 27 05 2E B0 0F  ....'.-....'....
0CD0: 01 02 27 05 2F B0 0F 01  02 48 24 80 23 45 3C 80  ..'./....H$.#E<.
0CE0: F8 FF FF 7F F8 FF FF 7F  73 31 32 33 01 80 1A 21  ........s123...!
0CF0: 1D 1C 0F 80 52 3C 80 F8  FF FF 7F F8 FF FF 7F 73  ....R<.........s
0D00: 31 32 33 45 3C 80 F8 FF  FF 7F F8 FF FF 7F 73 31  123E<.........s1
0D10: 31 36 01 80 5B 5F 80 03  B0 0F 01 03 B0 0F 01 74  16..[_.........t
0D20: 6C 6B 30 2B 03 B0 0F 01  74 80 1C 1D 80 23 5B 5F  lk0+....t....#[_
0D30: 80 03 B0 0F 01 03 B0 0F  01 74 6C 6B 31 5B 13 80  .........tlk1[..
0D40: 28 B0 0F 01 28 B0 0F 01  74 6C 6B 30 2B 28 B0 0F  (...(...tlk0+(..
0D50: 01 75 80 1C 1D 80 23 5B  13 80 28 B0 0F 01 28 B0  .u....#[..(...(.
0D60: 0F 01 74 6C 6B 31 52 3C  80 F8 FF FF 7F F8 FF FF  ..tlk1R<........
0D70: 7F 73 31 31 36 45 3C 80  F8 FF FF 7F F8 FF FF 7F  .s116E<.........
0D80: 73 31 31 37 01 80 1C 23  80 48 24 80 23 2B 03 B0  s117...#.H$.#+..
0D90: 0F 01 76 80 1C 1D 80 23  52 3C 80 F8 FF FF 7F F8  ..v....#R<......
0DA0: FF FF 7F 73 31 31 37 45  3C 80 F8 FF FF 7F F8 FF  ...s117E<.......
0DB0: FF 7F 73 31 31 38 01 80  1C 0C 80 2B 03 B0 0F 01  ..s118.....+....
0DC0: 77 80 1C 1D 80 23 52 3C  80 F8 FF FF 7F F8 FF FF  w....#R<........
0DD0: 7F 73 31 31 38 02 87 7F  33 80 80 F1 0D 45 3C 80  .s118...3....E<.
0DE0: F8 FF FF 7F F8 FF FF 7F  73 31 32 30 01 80 01 1E  ........s120....
0DF0: 0E 02 87 7F 1C 80 80 0D  0E 45 3C 80 F8 FF FF 7F  .........E<.....
0E00: F8 FF FF 7F 73 31 32 30  01 80 01 1E 0E 45 3C 80  ....s120.....E<.
0E10: F8 FF FF 7F F8 FF FF 7F  73 31 31 39 01 80 2B 28  ........s119..+(
0E20: B0 0F 01 78 80 1C 23 80  23 2B 28 B0 0F 01 79 80  ...x..#.#+(...y.
0E30: 1C 0F 80 23 52 3C 80 F8  FF FF 7F F8 FF FF 7F 73  ...#R<.........s
0E40: 31 31 39 52 3C 80 F8 FF  FF 7F F8 FF FF 7F 73 31  119R<.........s1
0E50: 32 30 45 3C 80 F8 FF FF  7F F8 FF FF 7F 73 31 32  20E<.........s12
0E60: 31 01 80 5B 13 80 28 B0  0F 01 28 B0 0F 01 74 68  1..[..(...(...th
0E70: 6B 30 2B 28 B0 0F 01 7A  80 1C 0F 80 23 52 3C 80  k0+(...z....#R<.
0E80: F8 FF FF 7F F8 FF FF 7F  73 31 32 31 45 3C 80 F8  ........s121E<..
0E90: FF FF 7F F8 FF FF 7F 73  31 32 32 01 80 2B 03 B0  .......s122..+..
0EA0: 0F 01 7B 80 1C 1D 80 23  5B 13 80 28 B0 0F 01 28  ..{....#[..(...(
0EB0: B0 0F 01 74 68 6B 31 52  3C 80 F8 FF FF 7F F8 FF  ...thk1R<.......
0EC0: FF 7F 73 31 32 32 45 3C  80 F8 FF FF 7F F8 FF FF  ..s122E<........
0ED0: 7F 73 31 32 35 01 80 79  00 03 B0 0F 01 F0 FF FF  .s125..y........
0EE0: 7F 1C 7C 80 2B 03 B0 0F  01 7D 80 1C 0F 80 23 52  ..|.+....}....#R
0EF0: 3C 80 F8 FF FF 7F F8 FF  FF 7F 73 31 32 35 02 87  <.........s125..
0F00: 7F 4E 80 80 1A 0F 45 3C  80 F8 FF FF 7F F8 FF FF  .N....E<........
0F10: 7F 73 31 32 37 01 80 01  9B 0F 02 87 7F 52 80 80  .s127........R..
0F20: 36 0F 45 3C 80 F8 FF FF  7F F8 FF FF 7F 73 31 32  6.E<.........s12
0F30: 37 01 80 01 9B 0F 02 87  7F 33 80 80 52 0F 45 3C  7........3..R.E<
0F40: 80 F8 FF FF 7F F8 FF FF  7F 73 31 32 38 01 80 01  .........s128...
0F50: 9B 0F 02 87 7F 1C 80 80  6E 0F 45 3C 80 F8 FF FF  ........n.E<....
0F60: 7F F8 FF FF 7F 73 31 32  38 01 80 01 9B 0F 02 87  .....s128.......
0F70: 7F 37 80 80 8A 0F 45 3C  80 F8 FF FF 7F F8 FF FF  .7....E<........
0F80: 7F 73 31 32 39 01 80 01  9B 0F 45 3C 80 F8 FF FF  .s129.....E<....
0F90: 7F F8 FF FF 7F 73 31 32  36 01 80 D0 7E 80 2A B0  .....s126...~.*.
0FA0: 0F 01 2A B0 0F 01 73 74  61 31 01 80 7B F0 FF FF  ..*...sta1..{...
0FB0: 7F 1C 0F 80 D0 7E 80 2A  B0 0F 01 2A B0 0F 01 6B  .....~.*...*...k
0FC0: 69 6C 32 01 80 52 3C 80  F8 FF FF 7F F8 FF FF 7F  il2..R<.........
0FD0: 73 31 32 36 52 3C 80 F8  FF FF 7F F8 FF FF 7F 73  s126R<.........s
0FE0: 31 32 37 52 3C 80 F8 FF  FF 7F F8 FF FF 7F 73 31  127R<.........s1
0FF0: 32 38 52 3C 80 F8 FF FF  7F F8 FF FF 7F 73 31 32  28R<.........s12
1000: 39 02 87 7F 33 80 80 1D  10 45 3C 80 F8 FF FF 7F  9...3....E<.....
1010: F8 FF FF 7F 73 31 33 30  01 80 01 4A 10 02 87 7F  ....s130...J....
1020: 1C 80 80 39 10 45 3C 80  F8 FF FF 7F F8 FF FF 7F  ...9.E<.........
1030: 73 31 33 30 01 80 01 4A  10 45 3C 80 F8 FF FF 7F  s130...J.E<.....
1040: F8 FF FF 7F 73 31 33 31  01 80 27 05 F0 FF FF 7F  ....s131..'.....
1050: 29 1C 10 80 D0 27 80 29  B0 0F 01 29 B0 0F 01 6D  )....'.)...)...m
1060: 61 78 30 01 80 1C 22 80  5D 01 80 0F 80 1A 84 1D  ax0...".].......
1070: 1C 0C 80 52 3C 80 F8 FF  FF 7F F8 FF FF 7F 73 31  ...R<.........s1
1080: 33 31 52 3C 80 F8 FF FF  7F F8 FF FF 7F 73 31 33  31R<.........s13
1090: 30 4E 01 F0 FF FF 7F 4E  01 29 B0 0F 01 7B 28 B0  0N.....N.)...{(.
10A0: 0F 01 2F 00 30 B0 0F 01  4E 00 30 B0 0F 01 03 03  ../.0...N.0.....
10B0: 10 02 00 29 05 30 B0 0F  01 02 92 01 30 B0 0F 01  ...).0......0...
10C0: 94 01 30 B0 0F 01 59 05  28 B0 0F 01 01 59 05 03  ..0...Y.(....Y..
10D0: B0 0F 01 01 BA 2B B0 0F  01 7F 80 80 80 81 80 82  .....+..........
10E0: 80 BA 2C B0 0F 01 83 80  84 80 81 80 82 80 BA 2D  ..,............-
10F0: B0 0F 01 85 80 86 80 81  80 87 80 BA 2E B0 0F 01  ................
1100: 88 80 89 80 81 80 8A 80  BA 2F B0 0F 01 8B 80 8C  ........./......
1110: 80 81 80 8D 80 BA 30 B0  0F 01 8E 80 8F 80 90 80  ......0.........
1120: 91 80 BA 28 B0 0F 01 92  80 93 80 94 80 95 80 BA  ...(............
1130: 03 B0 0F 01 96 80 97 80  94 80 95 80 80 30 B0 0F  .............0..
1140: 01 80 28 B0 0F 01 80 2B  B0 0F 01 80 2C B0 0F 01  ..(....+....,...
1150: 80 2D B0 0F 01 80 2E B0  0F 01 80 2F B0 0F 01 80  .-........./....
1160: 03 B0 0F 01 1C 0C 80 27  10 28 B0 0F 01 0F D0 98  .......'.(......
1170: 80 30 B0 0F 01 30 B0 0F  01 6D 61 69 6E 01 80 D0  .0...0...main...
1180: 99 80 F8 FF FF 7F F8 FF  FF 7F 73 74 72 30 01 80  ..........str0..
1190: 1C 0C 80 45 3C 80 F8 FF  FF 7F F8 FF FF 7F 73 31  ...E<.........s1
11A0: 33 33 01 80 1A 63 1D 1C  1D 80 52 3C 80 F8 FF FF  33...c....R<....
11B0: 7F F8 FF FF 7F 73 31 33  33 45 3C 80 F8 FF FF 7F  .....s133E<.....
11C0: F8 FF FF 7F 73 31 33 34  01 80 1C 1D 80 52 3C 80  ....s134.....R<.
11D0: F8 FF FF 7F F8 FF FF 7F  73 31 33 34 45 3C 80 F8  ........s134E<..
11E0: FF FF 7F F8 FF FF 7F 73  31 33 32 01 80 1C 10 80  .......s132.....
11F0: 5B 5B 80 28 B0 0F 01 28  B0 0F 01 6B 61 6D 30 52  [[.(...(...kam0R
1200: 3C 80 F8 FF FF 7F F8 FF  FF 7F 73 31 33 32 45 3C  <.........s132E<
1210: 80 F8 FF FF 7F F8 FF FF  7F 73 31 35 39 01 80 2B  .........s159..+
1220: 28 B0 0F 01 9A 80 1C 0F  80 1A 84 1D 1C 0C 80 27  (..............'
1230: 10 28 B0 0F 01 0E 52 3C  80 F8 FF FF 7F F8 FF FF  .(....R<........
1240: 7F 73 31 35 39 D0 98 80  30 B0 0F 01 30 B0 0F 01  .s159...0...0...
1250: 6B 6C 61 6C 01 80 D0 99  80 F8 FF FF 7F F8 FF FF  klal............
1260: 7F 6B 69 6C 6C 01 80 29  05 30 B0 0F 01 03 80 30  .kill..).0.....0
1270: B0 0F 01 4E 01 2B B0 0F  01 4E 01 2C B0 0F 01 4E  ...N.+...N.,...N
1280: 01 2D B0 0F 01 4E 01 2E  B0 0F 01 4E 01 2F B0 0F  .-...N.....N./..
1290: 01 6C 30 B0 0F 01 01 80  02 80 6B 69 64 6C 30 F0  .l0.......kidl0.
12A0: FF FF 7F 6B 69 64 6C 30  28 B0 0F 01 4E 00 F0 FF  ...kidl0(...N...
12B0: FF 7F BA 30 B0 0F 01 9B  80 9C 80 42 80 43 80 BA  ...0.......B.C..
12C0: 28 B0 0F 01 9D 80 9E 80  42 80 9F 80 BA 03 B0 0F  (.......B.......
12D0: 01 01 80 41 80 42 80 43  80 BA 2A B0 0F 01 9B 80  ...A.B.C..*.....
12E0: 9C 80 42 80 43 80 80 28  B0 0F 01 80 F0 FF FF 7F  ..B.C..(........
12F0: 80 2A B0 0F 01 80 03 B0  0F 01 4A 28 B0 0F 01 03  .*........J(....
1300: B0 0F 01 6F 76 28 B0 0F  01 7B 28 B0 0F 01 1C 0C  ...ov(...{(.....
1310: 80 5B 5B 80 28 B0 0F 01  28 B0 0F 01 6B 61 6B 30  .[[.(...(...kak0
1320: 66 A0 80 30 B0 0F 01 30  B0 0F 01 70 6F 73 30 5D  f..0...0...pos0]
1330: A1 80 0F 80 48 24 80 23  45 3C 80 F8 FF FF 7F F8  ....H$.#E<......
1340: FF FF 7F 73 31 36 30 01  80 1A 63 1D 1C 0C 80 5B  ...s160...c....[
1350: 5B 80 28 B0 0F 01 28 B0  0F 01 6B 61 6B 31 1C 27  [.(...(...kak1.'
1360: 80 52 3C 80 F8 FF FF 7F  F8 FF FF 7F 73 31 36 30  .R<.........s160
1370: 02 87 7F 33 80 80 8C 13  45 3C 80 F8 FF FF 7F F8  ...3....E<......
1380: FF FF 7F 73 31 33 36 01  80 01 B9 13 02 87 7F 1C  ...s136.........
1390: 80 80 A8 13 45 3C 80 F8  FF FF 7F F8 FF FF 7F 73  ....E<.........s
13A0: 31 33 36 01 80 01 B9 13  45 3C 80 F8 FF FF 7F F8  136.....E<......
13B0: FF FF 7F 73 31 33 35 01  80 6E F0 FF FF 7F A2 80  ...s135..n......
13C0: 99 F0 FF FF 7F 1C 0F 80  52 3C 80 F8 FF FF 7F F8  ........R<......
13D0: FF FF 7F 73 31 33 35 52  3C 80 F8 FF FF 7F F8 FF  ...s135R<.......
13E0: FF 7F 73 31 33 36 45 3C  80 F8 FF FF 7F F8 FF FF  ..s136E<........
13F0: 7F 73 31 33 37 01 80 2B  03 B0 0F 01 A3 80 23 5D  .s137..+......#]
1400: 01 80 0F 80 52 3C 80 F8  FF FF 7F F8 FF FF 7F 73  ....R<.........s
1410: 31 33 37 45 3C 80 F8 FF  FF 7F F8 FF FF 7F 73 31  137E<.........s1
1420: 33 38 01 80 1C 0F 80 6B  69 64 6C 30 28 B0 0F 01  38.....kidl0(...
1430: 2B 30 B0 0F 01 A4 80 1C  23 80 23 5C 00 22 80 5C  +0......#.#\.".\
1440: 01 22 80 5C 02 22 80 5C  03 22 80 9A 52 3C 80 F8  .".\.".\."..R<..
1450: FF FF 7F F8 FF FF 7F 73  31 33 38 45 3C 80 F8 FF  .......s138E<...
1460: FF 7F F8 FF FF 7F 73 31  33 39 01 80 6E F0 FF FF  ......s139..n...
1470: 7F A5 80 99 F0 FF FF 7F  7B 03 B0 0F 01 1C 0F 80  ........{.......
1480: 81 00 03 B0 0F 01 52 3C  80 F8 FF FF 7F F8 FF FF  ......R<........
1490: 7F 73 31 33 39 45 3C 80  F8 FF FF 7F F8 FF FF 7F  .s139E<.........
14A0: 73 31 34 30 01 80 5B A6  80 03 B0 0F 01 03 B0 0F  s140..[.........
14B0: 01 64 6D 67 30 D0 A7 80  03 B0 0F 01 03 B0 0F 01  .dmg0...........
14C0: 73 74 70 30 01 80 1C 1D  80 52 3C 80 F8 FF FF 7F  stp0.....R<.....
14D0: F8 FF FF 7F 73 31 34 30  45 3C 80 F8 FF FF 7F F8  ....s140E<......
14E0: FF FF 7F 73 31 34 31 01  80 D5 52 80 03 B0 0F 01  ...s141...R.....
14F0: 03 B0 0F 01 73 30 30 30  01 80 5B 5B 80 28 B0 0F  ....s000..[[.(..
1500: 01 28 B0 0F 01 6B 61 6D  30 1C 1D 80 D0 A8 80 30  .(...kam0......0
1510: B0 0F 01 30 B0 0F 01 6B  30 30 30 01 80 6C 30 B0  ...0...k000..l0.
1520: 0F 01 A1 80 02 80 1C 23  80 52 3C 80 F8 FF FF 7F  .......#.R<.....
1530: F8 FF FF 7F 73 31 34 31  45 3C 80 F8 FF FF 7F F8  ....s141E<......
1540: FF FF 7F 73 31 34 32 01  80 1C 23 80 BA 28 B0 0F  ...s142...#..(..
1550: 01 A9 80 AA 80 42 80 AB  80 1C 23 80 5B 5B 80 28  .....B....#.[[.(
1560: B0 0F 01 28 B0 0F 01 6B  61 6D 30 1C 33 80 52 3C  ...(...kam0.3.R<
1570: 80 F8 FF FF 7F F8 FF FF  7F 73 31 34 32 45 3C 80  .........s142E<.
1580: F8 FF FF 7F F8 FF FF 7F  73 31 34 33 01 80 2B 28  ........s143..+(
1590: B0 0F 01 AC 80 27 05 F0  FF FF 7F 0C 1C 1D 80 52  .....'.........R
15A0: 3C 80 F8 FF FF 7F F8 FF  FF 7F 73 31 34 33 45 3C  <.........s143E<
15B0: 80 F8 FF FF 7F F8 FF FF  7F 73 31 34 34 01 80 D0  .........s144...
15C0: AD 80 30 B0 0F 01 30 B0  0F 01 73 6E 30 31 01 80  ..0...0...sn01..
15D0: 1C 0E 80 D0 A8 80 30 B0  0F 01 30 B0 0F 01 6B 6F  ......0...0...ko
15E0: 66 30 01 80 1C 7C 80 BA  30 B0 0F 01 AE 80 AF 80  f0...|..0.......
15F0: 42 80 B0 80 1C 0C 80 52  3C 80 F8 FF FF 7F F8 FF  B......R<.......
1600: FF 7F 73 31 34 34 45 3C  80 F8 FF FF 7F F8 FF FF  ..s144E<........
1610: 7F 73 31 34 35 01 80 1C  0C 80 27 10 2A B0 0F 01  .s145.....'.*...
1620: 02 D0 A8 80 30 B0 0F 01  30 B0 0F 01 6B 30 30 30  ....0...0...k000
1630: 01 80 5B 5B 80 28 B0 0F  01 28 B0 0F 01 6B 61 6D  ..[[.(...(...kam
1640: 31 1C B1 80 52 3C 80 F8  FF FF 7F F8 FF FF 7F 73  1...R<.........s
1650: 31 34 35 45 3C 80 F8 FF  FF 7F F8 FF FF 7F 73 31  145E<.........s1
1660: 34 36 01 80 1C 23 80 4A  F0 FF FF 7F 30 B0 0F 01  46...#.J....0...
1670: 52 3C 80 F8 FF FF 7F F8  FF FF 7F 73 31 34 36 45  R<.........s146E
1680: 3C 80 F8 FF FF 7F F8 FF  FF 7F 73 31 34 37 01 80  <.........s147..
1690: BB B2 80 28 B0 0F 01 28  B0 0F 01 69 6E 30 30 01  ...(...(...in00.
16A0: 80 1C 0F 80 52 3C 80 F8  FF FF 7F F8 FF FF 7F 73  ....R<.........s
16B0: 31 34 37 45 3C 80 F8 FF  FF 7F F8 FF FF 7F 73 31  147E<.........s1
16C0: 34 38 01 80 1C 0C 80 2B  30 B0 0F 01 B3 80 1C 0F  48.....+0.......
16D0: 80 23 52 3C 80 F8 FF FF  7F F8 FF FF 7F 73 31 34  .#R<.........s14
16E0: 38 45 3C 80 F8 FF FF 7F  F8 FF FF 7F 73 31 34 39  8E<.........s149
16F0: 01 80 5B B4 80 30 B0 0F  01 30 B0 0F 01 70 6F 73  ..[..0...0...pos
1700: 31 2B 30 B0 0F 01 B5 80  1C B6 80 BA F0 FF FF 7F  1+0.............
1710: B7 80 B8 80 42 80 B9 80  1C 10 80 23 52 3C 80 F8  ....B......#R<..
1720: FF FF 7F F8 FF FF 7F 73  31 34 39 45 3C 80 F8 FF  .......s149E<...
1730: FF 7F F8 FF FF 7F 73 31  35 30 01 80 2B 30 B0 0F  ......s150..+0..
1740: 01 BA 80 1C 0C 80 D0 A8  80 30 B0 0F 01 30 B0 0F  .........0...0..
1750: 01 6B 6F 66 30 01 80 1C  23 80 23 2B 30 B0 0F 01  .kof0...#.#+0...
1760: BB 80 1C 1D 80 23 52 3C  80 F8 FF FF 7F F8 FF FF  .....#R<........
1770: 7F 73 31 35 30 45 3C 80  F8 FF FF 7F F8 FF FF 7F  .s150E<.........
1780: 73 61 30 31 01 80 1C 0C  80 2B 30 B0 0F 01 BC 80  sa01.....+0.....
1790: 1C 1D 80 23 52 3C 80 F8  FF FF 7F F8 FF FF 7F 73  ...#R<.........s
17A0: 61 30 31 45 3C 80 F8 FF  FF 7F F8 FF FF 7F 73 61  a01E<.........sa
17B0: 30 32 01 80 5B B4 80 30  B0 0F 01 30 B0 0F 01 70  02..[..0...0...p
17C0: 6F 73 32 2B 30 B0 0F 01  BD 80 1C 0F 80 23 52 3C  os2+0........#R<
17D0: 80 F8 FF FF 7F F8 FF FF  7F 73 61 30 32 45 3C 80  .........sa02E<.
17E0: F8 FF FF 7F F8 FF FF 7F  73 31 35 31 01 80 1C 0C  ........s151....
17F0: 80 1A 84 1D 1C 0C 80 52  3C 80 F8 FF FF 7F F8 FF  .......R<.......
1800: FF 7F 73 31 35 31 27 05  F0 FF FF 7F 0D D0 99 80  ..s151'.........
1810: F8 FF FF 7F F8 FF FF 7F  73 74 72 30 01 80 48 24  ........str0..H$
1820: 80 23 45 3C 80 F8 FF FF  7F F8 FF FF 7F 73 31 35  .#E<.........s15
1830: 35 01 80 1A 63 1D 2B 30  B0 0F 01 BE 80 1C 1D 80  5...c.+0........
1840: 23 52 3C 80 F8 FF FF 7F  F8 FF FF 7F 73 31 35 35  #R<.........s155
1850: 45 3C 80 F8 FF FF 7F F8  FF FF 7F 73 31 35 33 01  E<.........s153.
1860: 80 2B 30 B0 0F 01 BF 80  1C 1D 80 23 52 3C 80 F8  .+0........#R<..
1870: FF FF 7F F8 FF FF 7F 73  31 35 33 45 3C 80 F8 FF  .......s153E<...
1880: FF 7F F8 FF FF 7F 73 31  35 34 01 80 2B 30 B0 0F  ......s154..+0..
1890: 01 C0 80 1C 1D 80 23 52  3C 80 F8 FF FF 7F F8 FF  ......#R<.......
18A0: FF 7F 73 31 35 34 45 3C  80 F8 FF FF 7F F8 FF FF  ..s154E<........
18B0: 7F 73 31 35 32 01 80 2B  30 B0 0F 01 C1 80 1C 1D  .s152..+0.......
18C0: 80 23 5C A0 01 80 0F 80  5C A1 01 80 62 80 1A 84  .#\.....\...b...
18D0: 1D 1C 10 80 D0 99 80 F8  FF FF 7F F8 FF FF 7F 6B  ...............k
18E0: 69 6C 6C 01 80 52 3C 80  F8 FF FF 7F F8 FF FF 7F  ill..R<.........
18F0: 73 31 35 32 45 3C 80 F8  FF FF 7F F8 FF FF 7F 30  s152E<.........0
1900: 62 6C 66 01 80 1A 42 1D  1A 63 1D 48 24 80 23 2B  blf...B..c.H$.#+
1910: 30 B0 0F 01 C2 80 1C 0F  80 23 5C 00 C3 80 5C 01  0........#\...\.
1920: C3 80 5C 02 C3 80 5C 03  C3 80 9A 46 00 02 00 00  ..\...\....F....
1930: 02 80 00 46 19 45 00 80  F0 FF FF 7F F0 FF FF 7F  ...F.E..........
1940: 66 64 69 32 01 80 21 00                           fdi2..!.        
```

#### Opcodes

```
  0: 0x05A3 [0x42] SET_CLI_EVENT_CANCEL_DATA()
  1: 0x05A4 [0x03] ExtData[1]->WorkLocal[0] = Work_Zone[2]
  2: 0x05A9 [0x03] ExtData[1]->WorkLocal[2] = Work_Zone[3]
  3: 0x05AE [0x1A] CALL_SUBROUTINE(address=0x1D42)
  4: 0x05B1 [0x46] CAMERA_CONTROL: Disable user control
  5: 0x05B3 [0x38] SET_CLIENT_EVENT_MODE(mode=27*)
  6: 0x05B6 [0x2F] Esha'ntarl (ID: 17805352/0x010FB028)->Render.Flags0 &= ~0x80000 // Bit 19
  7: 0x05BC [0x4E] SET_ENTITY_HIDE_FLAG: Show Esha'ntarl (ID: 17805352/0x010FB028)
  8: 0x05C2 [0x4E] SET_ENTITY_HIDE_FLAG: Show LocalPlayer
  9: 0x05C8 [0x92] Esha'ntarl (ID: 17805352/0x010FB028)->Render.Flags3 ^= 0x01
 10: 0x05CE [0x94] Esha'ntarl (ID: 17805352/0x010FB028)->Render.Flags3 ^= 0x01
 11: 0x05D4 [0x94] LocalPlayer->Render.Flags3 ^= 0x01
 12: 0x05DA [0x02] IF !(LocalPlayer->Race == 5*) GOTO 0x05EC
 13: 0x05E2 [0x27] REQ_SET(priority=0x05, entity_id=LocalPlayer, tag_num=0x23)
 14: 0x05E9 [0x01] GOTO 0x0629
 15: 0x05EC [0x02] IF !(LocalPlayer->Race == 6*) GOTO 0x05FE
 16: 0x05F4 [0x27] REQ_SET(priority=0x05, entity_id=LocalPlayer, tag_num=0x23)
 17: 0x05FB [0x01] GOTO 0x0629
 18: 0x05FE [0x02] IF !(LocalPlayer->Race == 7*) GOTO 0x0610
 19: 0x0606 [0x27] REQ_SET(priority=0x05, entity_id=LocalPlayer, tag_num=0x24)
 20: 0x060D [0x01] GOTO 0x0629
 21: 0x0610 [0x02] IF !(LocalPlayer->Race == 8*) GOTO 0x0622
 22: 0x0618 [0x27] REQ_SET(priority=0x05, entity_id=LocalPlayer, tag_num=0x25)
 23: 0x061F [0x01] GOTO 0x0629
 24: 0x0622 [0x27] REQ_SET(priority=0x05, entity_id=LocalPlayer, tag_num=0x26)

SUBROUTINE_0629:
 25: 0x0629 [0xBA] SET_ENTITY_POSITION(entity_id=Esha'ntarl (ID: 17805352/0x010FB028), pos_x=0.944*, pos_z=45.796*, pos_y=-12.300*, direction=272.4°*)
 26: 0x0636 [0xBA] SET_ENTITY_POSITION(entity_id=LocalPlayer, pos_x=-0.908*, pos_z=43.210*, pos_y=-12.300*, direction=272.4°*)
 27: 0x0643 [0x80] LOAD_WAIT(entity=Esha'ntarl (ID: 17805352/0x010FB028))
 28: 0x0648 [0x80] LOAD_WAIT(entity=LocalPlayer)
 29: 0x064D [0x45] LOAD_SCHEDULED_TASK: Load scheduler "s101" with entities [EventEntity, EventEntity], work=[794*, 0*]
 30: 0x065E [0x27] REQ_SET(priority=0x05, entity_id=Cermet Grate (ID: 17805318/0x010FB006), tag_num=0x05)
 31: 0x0665 [0x2D] CREATE_ZONE_SCHEDULER_TASK: Create scheduler "drop" with entities [Cermet Grate (ID: 17805318/0x010FB006), Cermet Grate (ID: 17805318/0x010FB006)]
 32: 0x0672 [0x1A] CALL_SUBROUTINE(address=0x1D21)
 33: 0x0675 [0x1C] WAIT(490* ticks)
 34: 0x0678 [0x52] END_LOAD_SCHEDULER: End scheduler "s101" with entities [EventEntity, EventEntity], work=794*
 35: 0x0687 [0x45] LOAD_SCHEDULED_TASK: Load scheduler "s103" with entities [EventEntity, EventEntity], work=[794*, 0*]
 36: 0x0698 [0x1C] WAIT(420* ticks)
 37: 0x069B [0x52] END_LOAD_SCHEDULER: End scheduler "s103" with entities [EventEntity, EventEntity], work=794*
 38: 0x06AA [0x45] LOAD_SCHEDULED_TASK: Load scheduler "s102" with entities [EventEntity, EventEntity], work=[794*, 0*]
 39: 0x06BB [0x27] REQ_SET(priority=0x05, entity_id=Esha'ntarl (ID: 17805352/0x010FB028), tag_num=0x07)
 40: 0x06C2 [0x1C] WAIT(20* ticks)
 41: 0x06C5 [0x27] REQ_SET(priority=0x05, entity_id=LocalPlayer, tag_num=0x27)
 42: 0x06CC [0x1C] WAIT(100* ticks)
 43: 0x06CF [0x1A] CALL_SUBROUTINE(address=0x1D42)
 44: 0x06D2 [0x1C] WAIT(30* ticks)
 45: 0x06D5 [0x52] END_LOAD_SCHEDULER: End scheduler "s102" with entities [EventEntity, EventEntity], work=794*
 46: 0x06E4 [0x2D] CREATE_ZONE_SCHEDULER_TASK: Create scheduler "drcl" with entities [Cermet Grate (ID: 17805318/0x010FB006), Cermet Grate (ID: 17805318/0x010FB006)]
 47: 0x06F1 [0x27] REQ_SET(priority=0x10, entity_id=Cermet Grate (ID: 17805318/0x010FB006), tag_num=0x06)
 48: 0x06F8 [0x7A] VM_CONTROL: Reset VM for Esha'ntarl (ID: 17805352/0x010FB028)
 49: 0x06FE [0x7A] VM_CONTROL: Reset VM for LocalPlayer
 50: 0x0704 [0x2F] Yve'noile (ID: 17805315/0x010FB003)->Render.Flags0 &= ~0x80000 // Bit 19
 51: 0x070A [0x2F] ??? (ID: 17805353/0x010FB029)->Render.Flags0 &= ~0x80000 // Bit 19
 52: 0x0710 [0x2F] Unnamed NPC (ID: 17805354/0x010FB02A)->Render.Flags0 &= ~0x80000 // Bit 19
 53: 0x0716 [0x4E] SET_ENTITY_HIDE_FLAG: Show Yve'noile (ID: 17805315/0x010FB003)
 54: 0x071C [0x4E] SET_ENTITY_HIDE_FLAG: Show ??? (ID: 17805353/0x010FB029)
 55: 0x0722 [0x4E] SET_ENTITY_HIDE_FLAG: Show Unnamed NPC (ID: 17805354/0x010FB02A)
 56: 0x0728 [0x92] Yve'noile (ID: 17805315/0x010FB003)->Render.Flags3 ^= 0x01
 57: 0x072E [0x92] ??? (ID: 17805353/0x010FB029)->Render.Flags3 ^= 0x01
 58: 0x0734 [0x94] Yve'noile (ID: 17805315/0x010FB003)->Render.Flags3 ^= 0x01
 59: 0x073A [0x94] ??? (ID: 17805353/0x010FB029)->Render.Flags3 ^= 0x01
 60: 0x0740 [0x94] Unnamed NPC (ID: 17805354/0x010FB02A)->Render.Flags3 ^= 0x01
 61: 0x0746 [0x59] UPDATE_ENTITY_DATA: Unnamed NPC (ID: 17805354/0x010FB02A)->Render.Flags0 |= 0x200000
 62: 0x074D [0xBA] SET_ENTITY_POSITION(entity_id=Yve'noile (ID: 17805315/0x010FB003), pos_x=0.000*, pos_z=149.226*, pos_y=-20.693*, direction=85.0°*)
 63: 0x075A [0xBA] SET_ENTITY_POSITION(entity_id=Esha'ntarl (ID: 17805352/0x010FB028), pos_x=0.110*, pos_z=138.428*, pos_y=-18.896*, direction=267.5°*)
 64: 0x0767 [0xBA] SET_ENTITY_POSITION(entity_id=LocalPlayer, pos_x=0.086*, pos_z=136.134*, pos_y=-18.896*, direction=268.3°*)
 65: 0x0774 [0xBA] SET_ENTITY_POSITION(entity_id=??? (ID: 17805353/0x010FB029), pos_x=1.152*, pos_z=145.986*, pos_y=-20.693*, direction=246.1°*)
 66: 0x0781 [0x02] IF !(LocalPlayer->Race == 3*) GOTO 0x0799
 67: 0x0789 [0xBA] SET_ENTITY_POSITION(entity_id=Unnamed NPC (ID: 17805354/0x010FB02A), pos_x=1.252*, pos_z=145.900*, pos_y=-21.893*, direction=246.1°*)
 68: 0x0796 [0x01] GOTO 0x081E
 69: 0x0799 [0x02] IF !(LocalPlayer->Race == 4*) GOTO 0x07B1
 70: 0x07A1 [0xBA] SET_ENTITY_POSITION(entity_id=Unnamed NPC (ID: 17805354/0x010FB02A), pos_x=1.252*, pos_z=145.900*, pos_y=-21.893*, direction=246.1°*)
 71: 0x07AE [0x01] GOTO 0x081E
 72: 0x07B1 [0x02] IF !(LocalPlayer->Race == 5*) GOTO 0x07C9
 73: 0x07B9 [0xBA] SET_ENTITY_POSITION(entity_id=Unnamed NPC (ID: 17805354/0x010FB02A), pos_x=1.252*, pos_z=145.900*, pos_y=-20.993*, direction=246.1°*)
 74: 0x07C6 [0x01] GOTO 0x081E
 75: 0x07C9 [0x02] IF !(LocalPlayer->Race == 6*) GOTO 0x07E1
 76: 0x07D1 [0xBA] SET_ENTITY_POSITION(entity_id=Unnamed NPC (ID: 17805354/0x010FB02A), pos_x=1.252*, pos_z=145.900*, pos_y=-20.993*, direction=246.1°*)
 77: 0x07DE [0x01] GOTO 0x081E
 78: 0x07E1 [0x02] IF !(LocalPlayer->Race == 7*) GOTO 0x07F9
 79: 0x07E9 [0xBA] SET_ENTITY_POSITION(entity_id=Unnamed NPC (ID: 17805354/0x010FB02A), pos_x=1.252*, pos_z=145.900*, pos_y=-21.593*, direction=246.1°*)
 80: 0x07F6 [0x01] GOTO 0x081E
 81: 0x07F9 [0x02] IF !(LocalPlayer->Race == 8*) GOTO 0x0811
 82: 0x0801 [0xBA] SET_ENTITY_POSITION(entity_id=Unnamed NPC (ID: 17805354/0x010FB02A), pos_x=1.252*, pos_z=145.900*, pos_y=-21.893*, direction=246.1°*)
 83: 0x080E [0x01] GOTO 0x081E
 84: 0x0811 [0xBA] SET_ENTITY_POSITION(entity_id=Unnamed NPC (ID: 17805354/0x010FB02A), pos_x=1.252*, pos_z=145.900*, pos_y=-21.693*, direction=246.1°*)

SUBROUTINE_081E:
 85: 0x081E [0x80] LOAD_WAIT(entity=Yve'noile (ID: 17805315/0x010FB003))
 86: 0x0823 [0x80] LOAD_WAIT(entity=Esha'ntarl (ID: 17805352/0x010FB028))
 87: 0x0828 [0x80] LOAD_WAIT(entity=LocalPlayer)
 88: 0x082D [0x48] [System] [7198*]:
    → ""
 89: 0x0830 [0x23] WAIT_FOR_DIALOG_INTERACTION
 90: 0x0831 [0x27] REQ_SET(priority=0x05, entity_id=Esha'ntarl (ID: 17805352/0x010FB028), tag_num=0x08)
 91: 0x0838 [0x1C] WAIT(5* ticks)
 92: 0x083B [0x27] REQ_SET(priority=0x05, entity_id=LocalPlayer, tag_num=0x28)
 93: 0x0842 [0x1C] WAIT(30* ticks)
 94: 0x0845 [0x02] IF !(LocalPlayer->Race == 1*) GOTO 0x0860
 95: 0x084D [0x5F] MULTI_HANDLER_COMPLEX(mode=0x03 - Load ext scheduler (OpCode 0x5B mode 0), ref=3878*, entity1=??? (ID: 17805353/0x010FB029), entity2=??? (ID: 17805353/0x010FB029), string="hmml")
 96: 0x085D [0x01] GOTO 0x091D
 97: 0x0860 [0x02] IF !(LocalPlayer->Race == 2*) GOTO 0x087B
 98: 0x0868 [0x5F] MULTI_HANDLER_COMPLEX(mode=0x03 - Load ext scheduler (OpCode 0x5B mode 0), ref=3878*, entity1=??? (ID: 17805353/0x010FB029), entity2=??? (ID: 17805353/0x010FB029), string="hfml")
 99: 0x0878 [0x01] GOTO 0x091D
100: 0x087B [0x02] IF !(LocalPlayer->Race == 3*) GOTO 0x0896
101: 0x0883 [0x5F] MULTI_HANDLER_COMPLEX(mode=0x03 - Load ext scheduler (OpCode 0x5B mode 0), ref=3878*, entity1=??? (ID: 17805353/0x010FB029), entity2=??? (ID: 17805353/0x010FB029), string="emml")
102: 0x0893 [0x01] GOTO 0x091D
103: 0x0896 [0x02] IF !(LocalPlayer->Race == 4*) GOTO 0x08B1
104: 0x089E [0x5F] MULTI_HANDLER_COMPLEX(mode=0x03 - Load ext scheduler (OpCode 0x5B mode 0), ref=3878*, entity1=??? (ID: 17805353/0x010FB029), entity2=??? (ID: 17805353/0x010FB029), string="efml")
105: 0x08AE [0x01] GOTO 0x091D
106: 0x08B1 [0x02] IF !(LocalPlayer->Race == 5*) GOTO 0x08CC
107: 0x08B9 [0x5F] MULTI_HANDLER_COMPLEX(mode=0x03 - Load ext scheduler (OpCode 0x5B mode 0), ref=3878*, entity1=??? (ID: 17805353/0x010FB029), entity2=??? (ID: 17805353/0x010FB029), string="tmal")
108: 0x08C9 [0x01] GOTO 0x091D
109: 0x08CC [0x02] IF !(LocalPlayer->Race == 6*) GOTO 0x08E7
110: 0x08D4 [0x5F] MULTI_HANDLER_COMPLEX(mode=0x03 - Load ext scheduler (OpCode 0x5B mode 0), ref=3878*, entity1=??? (ID: 17805353/0x010FB029), entity2=??? (ID: 17805353/0x010FB029), string="tmal")
111: 0x08E4 [0x01] GOTO 0x091D
112: 0x08E7 [0x02] IF !(LocalPlayer->Race == 7*) GOTO 0x0902
113: 0x08EF [0x5F] MULTI_HANDLER_COMPLEX(mode=0x03 - Load ext scheduler (OpCode 0x5B mode 0), ref=3878*, entity1=??? (ID: 17805353/0x010FB029), entity2=??? (ID: 17805353/0x010FB029), string="mmal")
114: 0x08FF [0x01] GOTO 0x091D
115: 0x0902 [0x02] IF !(LocalPlayer->Race == 8*) GOTO 0x091D
116: 0x090A [0x5F] MULTI_HANDLER_COMPLEX(mode=0x03 - Load ext scheduler (OpCode 0x5B mode 0), ref=3878*, entity1=??? (ID: 17805353/0x010FB029), entity2=??? (ID: 17805353/0x010FB029), string="gmal")
117: 0x091A [0x01] GOTO 0x091D

SUBROUTINE_091D:
118: 0x091D [0x45] LOAD_SCHEDULED_TASK: Load scheduler "s107" with entities [EventEntity, EventEntity], work=[794*, 0*]
119: 0x092E [0x1A] CALL_SUBROUTINE(address=0x1D21)
120: 0x0931 [0x1C] WAIT(180* ticks)
121: 0x0934 [0x52] END_LOAD_SCHEDULER: End scheduler "s107" with entities [EventEntity, EventEntity], work=794*
122: 0x0943 [0x45] LOAD_SCHEDULED_TASK: Load scheduler "s108" with entities [EventEntity, EventEntity], work=[794*, 0*]
123: 0x0954 [0x2B] ??? (ID: 17805353/0x010FB029) [7627*]:
    → "Long have I awaited thine arrival..."
124: 0x095B [0x1C] WAIT(120* ticks)
125: 0x095E [0x23] WAIT_FOR_DIALOG_INTERACTION
126: 0x095F [0x52] END_LOAD_SCHEDULER: End scheduler "s108" with entities [EventEntity, EventEntity], work=794*
127: 0x096E [0x45] LOAD_SCHEDULED_TASK: Load scheduler "s109" with entities [EventEntity, EventEntity], work=[794*, 0*]
128: 0x097F [0x27] REQ_SET(priority=0x10, entity_id=Yve'noile (ID: 17805315/0x010FB003), tag_num=0x0A)
129: 0x0986 [0x1C] WAIT(180* ticks)
130: 0x0989 [0x52] END_LOAD_SCHEDULER: End scheduler "s109" with entities [EventEntity, EventEntity], work=794*
131: 0x0998 [0x45] LOAD_SCHEDULED_TASK: Load scheduler "s110" with entities [EventEntity, EventEntity], work=[794*, 0*]
132: 0x09A9 [0x2B] Yve'noile (ID: 17805315/0x010FB003) [7628*]:
    → "Welcome, warriors of light, to the Temple of Altana, a place where knowledge comes to be lost."
133: 0x09B0 [0x1C] WAIT(90* ticks)
134: 0x09B3 [0x23] WAIT_FOR_DIALOG_INTERACTION
135: 0x09B4 [0x52] END_LOAD_SCHEDULER: End scheduler "s110" with entities [EventEntity, EventEntity], work=794*
136: 0x09C3 [0x45] LOAD_SCHEDULED_TASK: Load scheduler "s111" with entities [EventEntity, EventEntity], work=[794*, 0*]
137: 0x09D4 [0x79] Esha'ntarl (ID: 17805352/0x010FB028) looks at LocalPlayer (Basic look)
138: 0x09DE [0x5B] LOAD_EXT_SCHEDULER: Load scheduler "tlk0" with entities [Esha'ntarl (ID: 17805352/0x010FB028), Esha'ntarl (ID: 17805352/0x010FB028)], work=445*
139: 0x09ED [0x2B] Esha'ntarl (ID: 17805352/0x010FB028) [7629*]:
    → "Lady Yve'noile serves the Goddess of the Dawn in all her incarnations and is the custodian of the Gate by which she can be reached."
140: 0x09F4 [0x1C] WAIT(90* ticks)
141: 0x09F7 [0x23] WAIT_FOR_DIALOG_INTERACTION
142: 0x09F8 [0x5B] LOAD_EXT_SCHEDULER: Load scheduler "tlk1" with entities [Esha'ntarl (ID: 17805352/0x010FB028), Esha'ntarl (ID: 17805352/0x010FB028)], work=445*
143: 0x0A07 [0x52] END_LOAD_SCHEDULER: End scheduler "s111" with entities [EventEntity, EventEntity], work=794*
144: 0x0A16 [0x45] LOAD_SCHEDULED_TASK: Load scheduler "s112" with entities [EventEntity, EventEntity], work=[794*, 0*]
145: 0x0A27 [0x79] Esha'ntarl (ID: 17805352/0x010FB028) looks at Yve'noile (ID: 17805315/0x010FB003) (Basic look)
146: 0x0A31 [0x1C] WAIT(15* ticks)
147: 0x0A34 [0x79] Yve'noile (ID: 17805315/0x010FB003) looks at Esha'ntarl (ID: 17805352/0x010FB028) (Basic look)
148: 0x0A3E [0x2B] Yve'noile (ID: 17805315/0x010FB003) [7630*]:
    → "Lady Esha'ntarl, thy presence doth come as a surprise. To think one such as thyself would come posing questions for me."
149: 0x0A45 [0x1C] WAIT(90* ticks)
150: 0x0A48 [0x23] WAIT_FOR_DIALOG_INTERACTION
151: 0x0A49 [0x5B] LOAD_EXT_SCHEDULER: Load scheduler "yes0" with entities [Esha'ntarl (ID: 17805352/0x010FB028), Esha'ntarl (ID: 17805352/0x010FB028)], work=449*
152: 0x0A58 [0x2B] Esha'ntarl (ID: 17805352/0x010FB028) [7631*]:
    → "A young woman has traversed time itself to speak with <Player>."
153: 0x0A5F [0x1C] WAIT(140* ticks)
154: 0x0A62 [0x23] WAIT_FOR_DIALOG_INTERACTION
155: 0x0A63 [0x52] END_LOAD_SCHEDULER: End scheduler "s112" with entities [EventEntity, EventEntity], work=794*
156: 0x0A72 [0x45] LOAD_SCHEDULED_TASK: Load scheduler "s113" with entities [EventEntity, EventEntity], work=[794*, 0*]
157: 0x0A83 [0x2B] Esha'ntarl (ID: 17805352/0x010FB028) [7632*]:
    → "She claimed that an existence which some call the Void--and others call the Cloud of Darkness--has come to claim Vana'diel."
158: 0x0A8A [0x1C] WAIT(120* ticks)
159: 0x0A8D [0x23] WAIT_FOR_DIALOG_INTERACTION
160: 0x0A8E [0x52] END_LOAD_SCHEDULER: End scheduler "s113" with entities [EventEntity, EventEntity], work=794*
161: 0x0A9D [0x45] LOAD_SCHEDULED_TASK: Load scheduler "s114" with entities [EventEntity, EventEntity], work=[794*, 0*]
162: 0x0AAE [0x7B] Yve'noile (ID: 17805315/0x010FB003) stops talking
163: 0x0AB3 [0x5B] LOAD_EXT_SCHEDULER: Load scheduler "utu0" with entities [Yve'noile (ID: 17805315/0x010FB003), Yve'noile (ID: 17805315/0x010FB003)], work=571*
164: 0x0AC2 [0x2B] Yve'noile (ID: 17805315/0x010FB003) [7633*]:
    → "The Cloud of Darkness, you say..."
165: 0x0AC9 [0x1C] WAIT(60* ticks)
166: 0x0ACC [0x23] WAIT_FOR_DIALOG_INTERACTION
167: 0x0ACD [0x2B] Yve'noile (ID: 17805315/0x010FB003) [7634*]:
    → "Alas, I can confess to hearing that name only once before in my lifetime."
168: 0x0AD4 [0x23] WAIT_FOR_DIALOG_INTERACTION
169: 0x0AD5 [0x1C] WAIT(90* ticks)
170: 0x0AD8 [0x23] WAIT_FOR_DIALOG_INTERACTION
171: 0x0AD9 [0x5C] MUSIC_CONTROL: Set music volume to song 0*, fade_time=120*
172: 0x0ADF [0x5C] MUSIC_CONTROL: Adjust music volume to song 0*, fade_time=240*
173: 0x0AE5 [0x1A] CALL_SUBROUTINE(address=0x1D42)
174: 0x0AE8 [0x1C] WAIT(30* ticks)
175: 0x0AEB [0x52] END_LOAD_SCHEDULER: End scheduler "s114" with entities [EventEntity, EventEntity], work=794*
176: 0x0AFA [0x6B] STOP_AND_IDLE: Yve'noile (ID: 17805315/0x010FB003) stops current action and resets to idle (animation="idl0")
177: 0x0B03 [0x2F] Unnamed NPC (ID: 17805355/0x010FB02B)->Render.Flags0 &= ~0x80000 // Bit 19
178: 0x0B09 [0x2F] Unnamed NPC (ID: 17805356/0x010FB02C)->Render.Flags0 &= ~0x80000 // Bit 19
179: 0x0B0F [0x2F] Unnamed NPC (ID: 17805357/0x010FB02D)->Render.Flags0 &= ~0x80000 // Bit 19
180: 0x0B15 [0x2F] Unnamed NPC (ID: 17805358/0x010FB02E)->Render.Flags0 &= ~0x80000 // Bit 19
181: 0x0B1B [0x2F] Unnamed NPC (ID: 17805359/0x010FB02F)->Render.Flags0 &= ~0x80000 // Bit 19
182: 0x0B21 [0x4E] SET_ENTITY_HIDE_FLAG: Show Unnamed NPC (ID: 17805355/0x010FB02B)
183: 0x0B27 [0x4E] SET_ENTITY_HIDE_FLAG: Show Unnamed NPC (ID: 17805356/0x010FB02C)
184: 0x0B2D [0x4E] SET_ENTITY_HIDE_FLAG: Show Unnamed NPC (ID: 17805357/0x010FB02D)
185: 0x0B33 [0x4E] SET_ENTITY_HIDE_FLAG: Show Unnamed NPC (ID: 17805358/0x010FB02E)
186: 0x0B39 [0x4E] SET_ENTITY_HIDE_FLAG: Show Unnamed NPC (ID: 17805359/0x010FB02F)
187: 0x0B3F [0x94] Unnamed NPC (ID: 17805355/0x010FB02B)->Render.Flags3 ^= 0x01
188: 0x0B45 [0x94] Unnamed NPC (ID: 17805356/0x010FB02C)->Render.Flags3 ^= 0x01
189: 0x0B4B [0x94] Unnamed NPC (ID: 17805357/0x010FB02D)->Render.Flags3 ^= 0x01
190: 0x0B51 [0x94] Unnamed NPC (ID: 17805358/0x010FB02E)->Render.Flags3 ^= 0x01
191: 0x0B57 [0x94] Unnamed NPC (ID: 17805359/0x010FB02F)->Render.Flags3 ^= 0x01
192: 0x0B5D [0x59] UPDATE_ENTITY_DATA: Unnamed NPC (ID: 17805355/0x010FB02B)->Render.Flags0 |= 0x200000
193: 0x0B64 [0x59] UPDATE_ENTITY_DATA: Unnamed NPC (ID: 17805356/0x010FB02C)->Render.Flags0 |= 0x200000
194: 0x0B6B [0x59] UPDATE_ENTITY_DATA: Unnamed NPC (ID: 17805357/0x010FB02D)->Render.Flags0 |= 0x200000
195: 0x0B72 [0x59] UPDATE_ENTITY_DATA: Unnamed NPC (ID: 17805358/0x010FB02E)->Render.Flags0 |= 0x200000
196: 0x0B79 [0x59] UPDATE_ENTITY_DATA: Unnamed NPC (ID: 17805359/0x010FB02F)->Render.Flags0 |= 0x200000
197: 0x0B80 [0xBA] SET_ENTITY_POSITION(entity_id=Unnamed NPC (ID: 17805355/0x010FB02B), pos_x=-39.538*, pos_z=547.956*, pos_y=-308.000*, direction=250.5°*)
198: 0x0B8D [0xBA] SET_ENTITY_POSITION(entity_id=Unnamed NPC (ID: 17805356/0x010FB02C), pos_x=-39.361*, pos_z=551.997*, pos_y=-308.000*, direction=250.5°*)
199: 0x0B9A [0xBA] SET_ENTITY_POSITION(entity_id=Unnamed NPC (ID: 17805357/0x010FB02D), pos_x=-36.000*, pos_z=546.000*, pos_y=-308.000*, direction=250.5°*)
200: 0x0BA7 [0xBA] SET_ENTITY_POSITION(entity_id=Unnamed NPC (ID: 17805358/0x010FB02E), pos_x=-35.261*, pos_z=552.371*, pos_y=-308.000*, direction=250.5°*)
201: 0x0BB4 [0xBA] SET_ENTITY_POSITION(entity_id=Unnamed NPC (ID: 17805359/0x010FB02F), pos_x=-33.928*, pos_z=549.402*, pos_y=-308.000*, direction=250.5°*)
202: 0x0BC1 [0x80] LOAD_WAIT(entity=Unnamed NPC (ID: 17805355/0x010FB02B))
203: 0x0BC6 [0x80] LOAD_WAIT(entity=Unnamed NPC (ID: 17805356/0x010FB02C))
204: 0x0BCB [0x80] LOAD_WAIT(entity=Unnamed NPC (ID: 17805357/0x010FB02D))
205: 0x0BD0 [0x80] LOAD_WAIT(entity=Unnamed NPC (ID: 17805358/0x010FB02E))
206: 0x0BD5 [0x80] LOAD_WAIT(entity=Unnamed NPC (ID: 17805359/0x010FB02F))
207: 0x0BDA [0x1C] WAIT(30* ticks)
208: 0x0BDD [0x5C] MUSIC_CONTROL: Set Idle (Day) music to song 160*
209: 0x0BE1 [0x5C] MUSIC_CONTROL: Set Idle (Night) music to song 160*
210: 0x0BE5 [0x5C] MUSIC_CONTROL: Set Combat (Solo) music to song 160*
211: 0x0BE9 [0x5C] MUSIC_CONTROL: Set Combat (Party) music to song 160*
212: 0x0BED [0x9A] WAIT_MUSIC_SERVER()
213: 0x0BEE [0xD0] LOAD_SCHEDULED_TASK_ALT5: Load scheduler "kyu0" with entities [Unnamed NPC (ID: 17805357/0x010FB02D), Unnamed NPC (ID: 17805357/0x010FB02D)], work=[102*, 0*]
214: 0x0BFF [0x62] LOAD_EVENT_SCHEDULER: Load scheduler "sm02" with entities [Unnamed NPC (ID: 17805355/0x010FB02B), Unnamed NPC (ID: 17805355/0x010FB02B)], work=[60*, 0*]
215: 0x0C10 [0x62] LOAD_EVENT_SCHEDULER: Load scheduler "sm02" with entities [Unnamed NPC (ID: 17805356/0x010FB02C), Unnamed NPC (ID: 17805356/0x010FB02C)], work=[60*, 0*]
216: 0x0C21 [0x62] LOAD_EVENT_SCHEDULER: Load scheduler "sm02" with entities [Unnamed NPC (ID: 17805357/0x010FB02D), Unnamed NPC (ID: 17805357/0x010FB02D)], work=[60*, 0*]
217: 0x0C32 [0x62] LOAD_EVENT_SCHEDULER: Load scheduler "sm02" with entities [Unnamed NPC (ID: 17805358/0x010FB02E), Unnamed NPC (ID: 17805358/0x010FB02E)], work=[60*, 0*]
218: 0x0C43 [0x62] LOAD_EVENT_SCHEDULER: Load scheduler "sm02" with entities [Unnamed NPC (ID: 17805359/0x010FB02F), Unnamed NPC (ID: 17805359/0x010FB02F)], work=[60*, 0*]
219: 0x0C54 [0x1C] WAIT(30* ticks)
220: 0x0C57 [0x27] REQ_SET(priority=0x05, entity_id=??? (ID: 17805353/0x010FB029), tag_num=0x02)
221: 0x0C5E [0x45] LOAD_SCHEDULED_TASK: Load scheduler "s115" with entities [EventEntity, EventEntity], work=[794*, 0*]
222: 0x0C6F [0x1A] CALL_SUBROUTINE(address=0x1D21)
223: 0x0C72 [0x2B] Yve'noile (ID: 17805315/0x010FB003) [7635*]:
    → "The prophecies say that the Cloud of Darkness is fated to descend upon this land once the five pieces of the mothercrystal have turned to dust."
224: 0x0C79 [0x23] WAIT_FOR_DIALOG_INTERACTION
225: 0x0C7A [0x2B] Yve'noile (ID: 17805315/0x010FB003) [7636*]:
    → "Were the pieces to be made whole once more, it is perhaps possible to avoid this most gloomy of futures."
226: 0x0C81 [0x23] WAIT_FOR_DIALOG_INTERACTION
227: 0x0C82 [0x2B] Yve'noile (ID: 17805315/0x010FB003) [7637*]:
    → "But that day itself will signal the end of Vana'diel."
228: 0x0C89 [0x23] WAIT_FOR_DIALOG_INTERACTION
229: 0x0C8A [0x2A] GET_REQ_LEVEL(level=5, entity_id=??? (ID: 17805353/0x010FB029))
230: 0x0C90 [0x1A] CALL_SUBROUTINE(address=0x1D42)
231: 0x0C93 [0x1C] WAIT(30* ticks)
232: 0x0C96 [0x52] END_LOAD_SCHEDULER: End scheduler "s115" with entities [EventEntity, EventEntity], work=794*
233: 0x0CA5 [0xD0] LOAD_SCHEDULED_TASK_ALT5: Load scheduler "klky" with entities [Unnamed NPC (ID: 17805357/0x010FB02D), Unnamed NPC (ID: 17805357/0x010FB02D)], work=[102*, 0*]
234: 0x0CB6 [0x27] REQ_SET(priority=0x05, entity_id=Unnamed NPC (ID: 17805355/0x010FB02B), tag_num=0x02)
235: 0x0CBD [0x27] REQ_SET(priority=0x05, entity_id=Unnamed NPC (ID: 17805356/0x010FB02C), tag_num=0x02)
236: 0x0CC4 [0x27] REQ_SET(priority=0x05, entity_id=Unnamed NPC (ID: 17805357/0x010FB02D), tag_num=0x02)
237: 0x0CCB [0x27] REQ_SET(priority=0x05, entity_id=Unnamed NPC (ID: 17805358/0x010FB02E), tag_num=0x02)
238: 0x0CD2 [0x27] REQ_SET(priority=0x05, entity_id=Unnamed NPC (ID: 17805359/0x010FB02F), tag_num=0x02)
239: 0x0CD9 [0x48] [System] [7198*]:
    → ""
240: 0x0CDC [0x23] WAIT_FOR_DIALOG_INTERACTION
241: 0x0CDD [0x45] LOAD_SCHEDULED_TASK: Load scheduler "s123" with entities [EventEntity, EventEntity], work=[794*, 0*]
242: 0x0CEE [0x1A] CALL_SUBROUTINE(address=0x1D21)
243: 0x0CF1 [0x1C] WAIT(120* ticks)
244: 0x0CF4 [0x52] END_LOAD_SCHEDULER: End scheduler "s123" with entities [EventEntity, EventEntity], work=794*
245: 0x0D03 [0x45] LOAD_SCHEDULED_TASK: Load scheduler "s116" with entities [EventEntity, EventEntity], work=[794*, 0*]
246: 0x0D14 [0x5B] LOAD_EXT_SCHEDULER: Load scheduler "tlk0" with entities [Yve'noile (ID: 17805315/0x010FB003), Yve'noile (ID: 17805315/0x010FB003)], work=571*
247: 0x0D23 [0x2B] Yve'noile (ID: 17805315/0x010FB003) [7638*]:
    → "Yet even the struggles of the vaunted warriors of light would mean naught against the coming purge."
248: 0x0D2A [0x1C] WAIT(90* ticks)
249: 0x0D2D [0x23] WAIT_FOR_DIALOG_INTERACTION
250: 0x0D2E [0x5B] LOAD_EXT_SCHEDULER: Load scheduler "tlk1" with entities [Yve'noile (ID: 17805315/0x010FB003), Yve'noile (ID: 17805315/0x010FB003)], work=571*
251: 0x0D3D [0x5B] LOAD_EXT_SCHEDULER: Load scheduler "tlk0" with entities [Esha'ntarl (ID: 17805352/0x010FB028), Esha'ntarl (ID: 17805352/0x010FB028)], work=445*
252: 0x0D4C [0x2B] Esha'ntarl (ID: 17805352/0x010FB028) [7639*]:
    → "Then pray tell--is there aught we can do?"
253: 0x0D53 [0x1C] WAIT(90* ticks)
254: 0x0D56 [0x23] WAIT_FOR_DIALOG_INTERACTION
255: 0x0D57 [0x5B] LOAD_EXT_SCHEDULER: Load scheduler "tlk1" with entities [Esha'ntarl (ID: 17805352/0x010FB028), Esha'ntarl (ID: 17805352/0x010FB028)], work=445*
256: 0x0D66 [0x52] END_LOAD_SCHEDULER: End scheduler "s116" with entities [EventEntity, EventEntity], work=794*
257: 0x0D75 [0x45] LOAD_SCHEDULED_TASK: Load scheduler "s117" with entities [EventEntity, EventEntity], work=[794*, 0*]
258: 0x0D86 [0x1C] WAIT(60* ticks)
259: 0x0D89 [0x48] [System] [7198*]:
    → ""
260: 0x0D8C [0x23] WAIT_FOR_DIALOG_INTERACTION
261: 0x0D8D [0x2B] Yve'noile (ID: 17805315/0x010FB003) [7640*]:
    → "If we cannot stop it while mortal..."
262: 0x0D94 [0x1C] WAIT(90* ticks)
263: 0x0D97 [0x23] WAIT_FOR_DIALOG_INTERACTION
264: 0x0D98 [0x52] END_LOAD_SCHEDULER: End scheduler "s117" with entities [EventEntity, EventEntity], work=794*
265: 0x0DA7 [0x45] LOAD_SCHEDULED_TASK: Load scheduler "s118" with entities [EventEntity, EventEntity], work=[794*, 0*]
266: 0x0DB8 [0x1C] WAIT(30* ticks)
267: 0x0DBB [0x2B] Yve'noile (ID: 17805315/0x010FB003) [7641*]:
    → "...then we must walk the path of the gods."
268: 0x0DC2 [0x1C] WAIT(90* ticks)
269: 0x0DC5 [0x23] WAIT_FOR_DIALOG_INTERACTION
270: 0x0DC6 [0x52] END_LOAD_SCHEDULER: End scheduler "s118" with entities [EventEntity, EventEntity], work=794*
271: 0x0DD5 [0x02] IF !(LocalPlayer->Race == 5*) GOTO 0x0DF1
272: 0x0DDD [0x45] LOAD_SCHEDULED_TASK: Load scheduler "s120" with entities [EventEntity, EventEntity], work=[794*, 0*]
273: 0x0DEE [0x01] GOTO 0x0E1E
274: 0x0DF1 [0x02] IF !(LocalPlayer->Race == 6*) GOTO 0x0E0D
275: 0x0DF9 [0x45] LOAD_SCHEDULED_TASK: Load scheduler "s120" with entities [EventEntity, EventEntity], work=[794*, 0*]
276: 0x0E0A [0x01] GOTO 0x0E1E
277: 0x0E0D [0x45] LOAD_SCHEDULED_TASK: Load scheduler "s119" with entities [EventEntity, EventEntity], work=[794*, 0*]

SUBROUTINE_0E1E:
278: 0x0E1E [0x2B] Esha'ntarl (ID: 17805352/0x010FB028) [7642*]:
    → "You would have <Player> become a god?"
279: 0x0E25 [0x1C] WAIT(60* ticks)
280: 0x0E28 [0x23] WAIT_FOR_DIALOG_INTERACTION
281: 0x0E29 [0x2B] Esha'ntarl (ID: 17805352/0x010FB028) [7643*]:
    → "You mean [he/she] must cast off the bonds of the Emptiness that shackle all who are born and destined to die?"
282: 0x0E30 [0x1C] WAIT(120* ticks)
283: 0x0E33 [0x23] WAIT_FOR_DIALOG_INTERACTION
284: 0x0E34 [0x52] END_LOAD_SCHEDULER: End scheduler "s119" with entities [EventEntity, EventEntity], work=794*
285: 0x0E43 [0x52] END_LOAD_SCHEDULER: End scheduler "s120" with entities [EventEntity, EventEntity], work=794*
286: 0x0E52 [0x45] LOAD_SCHEDULED_TASK: Load scheduler "s121" with entities [EventEntity, EventEntity], work=[794*, 0*]
287: 0x0E63 [0x5B] LOAD_EXT_SCHEDULER: Load scheduler "thk0" with entities [Esha'ntarl (ID: 17805352/0x010FB028), Esha'ntarl (ID: 17805352/0x010FB028)], work=445*
288: 0x0E72 [0x2B] Esha'ntarl (ID: 17805352/0x010FB028) [7644*]:
    → "Some would say you speak madness, but I cannot deny that if such a ritual succeeded..."
289: 0x0E79 [0x1C] WAIT(120* ticks)
290: 0x0E7C [0x23] WAIT_FOR_DIALOG_INTERACTION
291: 0x0E7D [0x52] END_LOAD_SCHEDULER: End scheduler "s121" with entities [EventEntity, EventEntity], work=794*
292: 0x0E8C [0x45] LOAD_SCHEDULED_TASK: Load scheduler "s122" with entities [EventEntity, EventEntity], work=[794*, 0*]
293: 0x0E9D [0x2B] Yve'noile (ID: 17805315/0x010FB003) [7645*]:
    → "I shall not lade my words with honey. The idea is so dangerous that failure can end only in death."
294: 0x0EA4 [0x1C] WAIT(90* ticks)
295: 0x0EA7 [0x23] WAIT_FOR_DIALOG_INTERACTION
296: 0x0EA8 [0x5B] LOAD_EXT_SCHEDULER: Load scheduler "thk1" with entities [Esha'ntarl (ID: 17805352/0x010FB028), Esha'ntarl (ID: 17805352/0x010FB028)], work=445*
297: 0x0EB7 [0x52] END_LOAD_SCHEDULER: End scheduler "s122" with entities [EventEntity, EventEntity], work=794*
298: 0x0EC6 [0x45] LOAD_SCHEDULED_TASK: Load scheduler "s125" with entities [EventEntity, EventEntity], work=[794*, 0*]
299: 0x0ED7 [0x79] Yve'noile (ID: 17805315/0x010FB003) looks at LocalPlayer (Basic look)
300: 0x0EE1 [0x1C] WAIT(45* ticks)
301: 0x0EE4 [0x2B] Yve'noile (ID: 17805315/0x010FB003) [7646*]:
    → "Yet shouldst thou choose to walk the path of thorns, I shall help clear the way. For only one such as thou can make the journey."
302: 0x0EEB [0x1C] WAIT(120* ticks)
303: 0x0EEE [0x23] WAIT_FOR_DIALOG_INTERACTION
304: 0x0EEF [0x52] END_LOAD_SCHEDULER: End scheduler "s125" with entities [EventEntity, EventEntity], work=794*
305: 0x0EFE [0x02] IF !(LocalPlayer->Race == 3*) GOTO 0x0F1A
306: 0x0F06 [0x45] LOAD_SCHEDULED_TASK: Load scheduler "s127" with entities [EventEntity, EventEntity], work=[794*, 0*]
307: 0x0F17 [0x01] GOTO 0x0F9B
308: 0x0F1A [0x02] IF !(LocalPlayer->Race == 4*) GOTO 0x0F36
309: 0x0F22 [0x45] LOAD_SCHEDULED_TASK: Load scheduler "s127" with entities [EventEntity, EventEntity], work=[794*, 0*]
310: 0x0F33 [0x01] GOTO 0x0F9B
311: 0x0F36 [0x02] IF !(LocalPlayer->Race == 5*) GOTO 0x0F52
312: 0x0F3E [0x45] LOAD_SCHEDULED_TASK: Load scheduler "s128" with entities [EventEntity, EventEntity], work=[794*, 0*]
313: 0x0F4F [0x01] GOTO 0x0F9B
314: 0x0F52 [0x02] IF !(LocalPlayer->Race == 6*) GOTO 0x0F6E
315: 0x0F5A [0x45] LOAD_SCHEDULED_TASK: Load scheduler "s128" with entities [EventEntity, EventEntity], work=[794*, 0*]
316: 0x0F6B [0x01] GOTO 0x0F9B
317: 0x0F6E [0x02] IF !(LocalPlayer->Race == 8*) GOTO 0x0F8A
318: 0x0F76 [0x45] LOAD_SCHEDULED_TASK: Load scheduler "s129" with entities [EventEntity, EventEntity], work=[794*, 0*]
319: 0x0F87 [0x01] GOTO 0x0F9B
320: 0x0F8A [0x45] LOAD_SCHEDULED_TASK: Load scheduler "s126" with entities [EventEntity, EventEntity], work=[794*, 0*]

SUBROUTINE_0F9B:
321: 0x0F9B [0xD0] LOAD_SCHEDULED_TASK_ALT5: Load scheduler "sta1" with entities [Unnamed NPC (ID: 17805354/0x010FB02A), Unnamed NPC (ID: 17805354/0x010FB02A)], work=[103*, 0*]
322: 0x0FAC [0x7B] LocalPlayer stops talking
323: 0x0FB1 [0x1C] WAIT(120* ticks)
324: 0x0FB4 [0xD0] LOAD_SCHEDULED_TASK_ALT5: Load scheduler "kil2" with entities [Unnamed NPC (ID: 17805354/0x010FB02A), Unnamed NPC (ID: 17805354/0x010FB02A)], work=[103*, 0*]
325: 0x0FC5 [0x52] END_LOAD_SCHEDULER: End scheduler "s126" with entities [EventEntity, EventEntity], work=794*
326: 0x0FD4 [0x52] END_LOAD_SCHEDULER: End scheduler "s127" with entities [EventEntity, EventEntity], work=794*
327: 0x0FE3 [0x52] END_LOAD_SCHEDULER: End scheduler "s128" with entities [EventEntity, EventEntity], work=794*
328: 0x0FF2 [0x52] END_LOAD_SCHEDULER: End scheduler "s129" with entities [EventEntity, EventEntity], work=794*
329: 0x1001 [0x02] IF !(LocalPlayer->Race == 5*) GOTO 0x101D
330: 0x1009 [0x45] LOAD_SCHEDULED_TASK: Load scheduler "s130" with entities [EventEntity, EventEntity], work=[794*, 0*]
331: 0x101A [0x01] GOTO 0x104A
332: 0x101D [0x02] IF !(LocalPlayer->Race == 6*) GOTO 0x1039
333: 0x1025 [0x45] LOAD_SCHEDULED_TASK: Load scheduler "s130" with entities [EventEntity, EventEntity], work=[794*, 0*]
334: 0x1036 [0x01] GOTO 0x104A
335: 0x1039 [0x45] LOAD_SCHEDULED_TASK: Load scheduler "s131" with entities [EventEntity, EventEntity], work=[794*, 0*]

SUBROUTINE_104A:
336: 0x104A [0x27] REQ_SET(priority=0x05, entity_id=LocalPlayer, tag_num=0x29)
337: 0x1051 [0x1C] WAIT(180* ticks)
338: 0x1054 [0xD0] LOAD_SCHEDULED_TASK_ALT5: Load scheduler "max0" with entities [??? (ID: 17805353/0x010FB029), ??? (ID: 17805353/0x010FB029)], work=[150*, 0*]
339: 0x1065 [0x1C] WAIT(80* ticks)
340: 0x1068 [0x5D] SET_MUSIC_VOLUME(volume=0*, fade_time=120*)
341: 0x106D [0x1A] CALL_SUBROUTINE(address=0x1D84)
342: 0x1070 [0x1C] WAIT(30* ticks)
343: 0x1073 [0x52] END_LOAD_SCHEDULER: End scheduler "s131" with entities [EventEntity, EventEntity], work=794*
344: 0x1082 [0x52] END_LOAD_SCHEDULER: End scheduler "s130" with entities [EventEntity, EventEntity], work=794*
345: 0x1091 [0x4E] SET_ENTITY_HIDE_FLAG: Hide LocalPlayer
346: 0x1097 [0x4E] SET_ENTITY_HIDE_FLAG: Hide ??? (ID: 17805353/0x010FB029)
347: 0x109D [0x7B] Esha'ntarl (ID: 17805352/0x010FB028) stops talking
348: 0x10A2 [0x2F] Disjoined One (ID: 17805360/0x010FB030)->Render.Flags0 &= ~0x80000 // Bit 19
349: 0x10A8 [0x4E] SET_ENTITY_HIDE_FLAG: Show Disjoined One (ID: 17805360/0x010FB030)
350: 0x10AE [0x03] Work_Zone[3] = ExtData[1]->WorkLocal[2]
351: 0x10B3 [0x29] REQ_SET_WAIT(priority=0x05, entity_id=Disjoined One (ID: 17805360/0x010FB030), tag_num=0x02)
352: 0x10BA [0x92] Disjoined One (ID: 17805360/0x010FB030)->Render.Flags3 ^= 0x01
353: 0x10C0 [0x94] Disjoined One (ID: 17805360/0x010FB030)->Render.Flags3 ^= 0x01
354: 0x10C6 [0x59] UPDATE_ENTITY_DATA: Esha'ntarl (ID: 17805352/0x010FB028)->Render.Flags0 |= 0x200000
355: 0x10CD [0x59] UPDATE_ENTITY_DATA: Yve'noile (ID: 17805315/0x010FB003)->Render.Flags0 |= 0x200000
356: 0x10D4 [0xBA] SET_ENTITY_POSITION(entity_id=Unnamed NPC (ID: 17805355/0x010FB02B), pos_x=5.029*, pos_z=148.843*, pos_y=-210.500*, direction=152.5°*)
357: 0x10E1 [0xBA] SET_ENTITY_POSITION(entity_id=Unnamed NPC (ID: 17805356/0x010FB02C), pos_x=5.560*, pos_z=147.711*, pos_y=-210.500*, direction=152.5°*)
358: 0x10EE [0xBA] SET_ENTITY_POSITION(entity_id=Unnamed NPC (ID: 17805357/0x010FB02D), pos_x=4.066*, pos_z=146.473*, pos_y=-210.500*, direction=168.2°*)
359: 0x10FB [0xBA] SET_ENTITY_POSITION(entity_id=Unnamed NPC (ID: 17805358/0x010FB02E), pos_x=3.502*, pos_z=142.650*, pos_y=-210.500*, direction=215.3°*)
360: 0x1108 [0xBA] SET_ENTITY_POSITION(entity_id=Unnamed NPC (ID: 17805359/0x010FB02F), pos_x=3.190*, pos_z=143.932*, pos_y=-210.500*, direction=207.7°*)
361: 0x1115 [0xBA] SET_ENTITY_POSITION(entity_id=Disjoined One (ID: 17805360/0x010FB030), pos_x=1.731*, pos_z=145.773*, pos_y=-210.000*, direction=189.7°*)
362: 0x1122 [0xBA] SET_ENTITY_POSITION(entity_id=Esha'ntarl (ID: 17805352/0x010FB028), pos_x=-2.772*, pos_z=146.020*, pos_y=-209.000*, direction=9.6°*)
363: 0x112F [0xBA] SET_ENTITY_POSITION(entity_id=Yve'noile (ID: 17805315/0x010FB003), pos_x=-2.638*, pos_z=147.157*, pos_y=-209.000*, direction=9.6°*)
364: 0x113C [0x80] LOAD_WAIT(entity=Disjoined One (ID: 17805360/0x010FB030))
365: 0x1141 [0x80] LOAD_WAIT(entity=Esha'ntarl (ID: 17805352/0x010FB028))
366: 0x1146 [0x80] LOAD_WAIT(entity=Unnamed NPC (ID: 17805355/0x010FB02B))
367: 0x114B [0x80] LOAD_WAIT(entity=Unnamed NPC (ID: 17805356/0x010FB02C))
368: 0x1150 [0x80] LOAD_WAIT(entity=Unnamed NPC (ID: 17805357/0x010FB02D))
369: 0x1155 [0x80] LOAD_WAIT(entity=Unnamed NPC (ID: 17805358/0x010FB02E))
370: 0x115A [0x80] LOAD_WAIT(entity=Unnamed NPC (ID: 17805359/0x010FB02F))
371: 0x115F [0x80] LOAD_WAIT(entity=Yve'noile (ID: 17805315/0x010FB003))
372: 0x1164 [0x1C] WAIT(30* ticks)
373: 0x1167 [0x27] REQ_SET(priority=0x10, entity_id=Esha'ntarl (ID: 17805352/0x010FB028), tag_num=0x0F)
374: 0x116E [0xD0] LOAD_SCHEDULED_TASK_ALT5: Load scheduler "main" with entities [Disjoined One (ID: 17805360/0x010FB030), Disjoined One (ID: 17805360/0x010FB030)], work=[161*, 0*]
375: 0x117F [0xD0] LOAD_SCHEDULED_TASK_ALT5: Load scheduler "str0" with entities [EventEntity, EventEntity], work=[232*, 0*]
376: 0x1190 [0x1C] WAIT(30* ticks)
377: 0x1193 [0x45] LOAD_SCHEDULED_TASK: Load scheduler "s133" with entities [EventEntity, EventEntity], work=[794*, 0*]
378: 0x11A4 [0x1A] CALL_SUBROUTINE(address=0x1D63)
379: 0x11A7 [0x1C] WAIT(90* ticks)
380: 0x11AA [0x52] END_LOAD_SCHEDULER: End scheduler "s133" with entities [EventEntity, EventEntity], work=794*
381: 0x11B9 [0x45] LOAD_SCHEDULED_TASK: Load scheduler "s134" with entities [EventEntity, EventEntity], work=[794*, 0*]
382: 0x11CA [0x1C] WAIT(90* ticks)
383: 0x11CD [0x52] END_LOAD_SCHEDULER: End scheduler "s134" with entities [EventEntity, EventEntity], work=794*
384: 0x11DC [0x45] LOAD_SCHEDULED_TASK: Load scheduler "s132" with entities [EventEntity, EventEntity], work=[794*, 0*]
385: 0x11ED [0x1C] WAIT(180* ticks)
386: 0x11F0 [0x5B] LOAD_EXT_SCHEDULER: Load scheduler "kam0" with entities [Esha'ntarl (ID: 17805352/0x010FB028), Esha'ntarl (ID: 17805352/0x010FB028)], work=449*
387: 0x11FF [0x52] END_LOAD_SCHEDULER: End scheduler "s132" with entities [EventEntity, EventEntity], work=794*
388: 0x120E [0x45] LOAD_SCHEDULED_TASK: Load scheduler "s159" with entities [EventEntity, EventEntity], work=[794*, 0*]
389: 0x121F [0x2B] Esha'ntarl (ID: 17805352/0x010FB028) [7647*]:
    → "Warriors of the Crystal!"
390: 0x1226 [0x1C] WAIT(120* ticks)
391: 0x1229 [0x1A] CALL_SUBROUTINE(address=0x1D84)
392: 0x122C [0x1C] WAIT(30* ticks)
393: 0x122F [0x27] REQ_SET(priority=0x10, entity_id=Esha'ntarl (ID: 17805352/0x010FB028), tag_num=0x0E)
394: 0x1236 [0x52] END_LOAD_SCHEDULER: End scheduler "s159" with entities [EventEntity, EventEntity], work=794*
395: 0x1245 [0xD0] LOAD_SCHEDULED_TASK_ALT5: Load scheduler "klal" with entities [Disjoined One (ID: 17805360/0x010FB030), Disjoined One (ID: 17805360/0x010FB030)], work=[161*, 0*]
396: 0x1256 [0xD0] LOAD_SCHEDULED_TASK_ALT5: Load scheduler "kill" with entities [EventEntity, EventEntity], work=[232*, 0*]
397: 0x1267 [0x29] REQ_SET_WAIT(priority=0x05, entity_id=Disjoined One (ID: 17805360/0x010FB030), tag_num=0x03)
398: 0x126E [0x80] LOAD_WAIT(entity=Disjoined One (ID: 17805360/0x010FB030))
399: 0x1273 [0x4E] SET_ENTITY_HIDE_FLAG: Hide Unnamed NPC (ID: 17805355/0x010FB02B)
400: 0x1279 [0x4E] SET_ENTITY_HIDE_FLAG: Hide Unnamed NPC (ID: 17805356/0x010FB02C)
401: 0x127F [0x4E] SET_ENTITY_HIDE_FLAG: Hide Unnamed NPC (ID: 17805357/0x010FB02D)
402: 0x1285 [0x4E] SET_ENTITY_HIDE_FLAG: Hide Unnamed NPC (ID: 17805358/0x010FB02E)
403: 0x128B [0x4E] SET_ENTITY_HIDE_FLAG: Hide Unnamed NPC (ID: 17805359/0x010FB02F)
404: 0x1291 [0x6C] FADE_ENTITY_COLOR(entity_id=Disjoined One (ID: 17805360/0x010FB030), end_alpha=0*, fade_time=1*)
405: 0x129A [0x6B] STOP_AND_IDLE: LocalPlayer stops current action and resets to idle (animation="idl0")
406: 0x12A3 [0x6B] STOP_AND_IDLE: Esha'ntarl (ID: 17805352/0x010FB028) stops current action and resets to idle (animation="idl0")
407: 0x12AC [0x4E] SET_ENTITY_HIDE_FLAG: Show LocalPlayer
408: 0x12B2 [0xBA] SET_ENTITY_POSITION(entity_id=Disjoined One (ID: 17805360/0x010FB030), pos_x=0.062*, pos_z=152.276*, pos_y=-20.693*, direction=85.0°*)
409: 0x12BF [0xBA] SET_ENTITY_POSITION(entity_id=Esha'ntarl (ID: 17805352/0x010FB028), pos_x=-0.881*, pos_z=145.950*, pos_y=-20.693*, direction=274.9°*)
410: 0x12CC [0xBA] SET_ENTITY_POSITION(entity_id=Yve'noile (ID: 17805315/0x010FB003), pos_x=0.000*, pos_z=149.226*, pos_y=-20.693*, direction=85.0°*)
411: 0x12D9 [0xBA] SET_ENTITY_POSITION(entity_id=Unnamed NPC (ID: 17805354/0x010FB02A), pos_x=0.062*, pos_z=152.276*, pos_y=-20.693*, direction=85.0°*)
412: 0x12E6 [0x80] LOAD_WAIT(entity=Esha'ntarl (ID: 17805352/0x010FB028))
413: 0x12EB [0x80] LOAD_WAIT(entity=LocalPlayer)
414: 0x12F0 [0x80] LOAD_WAIT(entity=Unnamed NPC (ID: 17805354/0x010FB02A))
415: 0x12F5 [0x80] LOAD_WAIT(entity=Yve'noile (ID: 17805315/0x010FB003))
416: 0x12FA [0x4A] Esha'ntarl (ID: 17805352/0x010FB028) looks at Yve'noile (ID: 17805315/0x010FB003)
417: 0x1303 [0x6F] WAIT_FRAME_DELAY: Yield until WaitTime reaches zero
418: 0x1304 [0x76] CHECK_ENTITY_RENDER_FLAGS: Wait until Esha'ntarl (ID: 17805352/0x010FB028) Render.Flags0 and Render.Flags3 conditions are met
419: 0x1309 [0x7B] Esha'ntarl (ID: 17805352/0x010FB028) stops talking
420: 0x130E [0x1C] WAIT(30* ticks)
421: 0x1311 [0x5B] LOAD_EXT_SCHEDULER: Load scheduler "kak0" with entities [Esha'ntarl (ID: 17805352/0x010FB028), Esha'ntarl (ID: 17805352/0x010FB028)], work=449*
422: 0x1320 [0x66] LOAD_EXT_SCHEDULER_MAIN: Load scheduler "pos0" with entities [Disjoined One (ID: 17805360/0x010FB030), Disjoined One (ID: 17805360/0x010FB030)], work=74*
423: 0x132F [0x5D] SET_MUSIC_VOLUME(volume=127*, fade_time=120*)
424: 0x1334 [0x48] [System] [7198*]:
    → ""
425: 0x1337 [0x23] WAIT_FOR_DIALOG_INTERACTION
426: 0x1338 [0x45] LOAD_SCHEDULED_TASK: Load scheduler "s160" with entities [EventEntity, EventEntity], work=[794*, 0*]
427: 0x1349 [0x1A] CALL_SUBROUTINE(address=0x1D63)
428: 0x134C [0x1C] WAIT(30* ticks)
429: 0x134F [0x5B] LOAD_EXT_SCHEDULER: Load scheduler "kak1" with entities [Esha'ntarl (ID: 17805352/0x010FB028), Esha'ntarl (ID: 17805352/0x010FB028)], work=449*
430: 0x135E [0x1C] WAIT(150* ticks)
431: 0x1361 [0x52] END_LOAD_SCHEDULER: End scheduler "s160" with entities [EventEntity, EventEntity], work=794*
432: 0x1370 [0x02] IF !(LocalPlayer->Race == 5*) GOTO 0x138C
433: 0x1378 [0x45] LOAD_SCHEDULED_TASK: Load scheduler "s136" with entities [EventEntity, EventEntity], work=[794*, 0*]
434: 0x1389 [0x01] GOTO 0x13B9
435: 0x138C [0x02] IF !(LocalPlayer->Race == 6*) GOTO 0x13A8
436: 0x1394 [0x45] LOAD_SCHEDULED_TASK: Load scheduler "s136" with entities [EventEntity, EventEntity], work=[794*, 0*]
437: 0x13A5 [0x01] GOTO 0x13B9
438: 0x13A8 [0x45] LOAD_SCHEDULED_TASK: Load scheduler "s135" with entities [EventEntity, EventEntity], work=[794*, 0*]

SUBROUTINE_13B9:
439: 0x13B9 [0x6E] LocalPlayer uses emote 22*
440: 0x13C0 [0x99] Wait for LocalPlayer animation to complete
441: 0x13C5 [0x1C] WAIT(120* ticks)
442: 0x13C8 [0x52] END_LOAD_SCHEDULER: End scheduler "s135" with entities [EventEntity, EventEntity], work=794*
443: 0x13D7 [0x52] END_LOAD_SCHEDULER: End scheduler "s136" with entities [EventEntity, EventEntity], work=794*
444: 0x13E6 [0x45] LOAD_SCHEDULED_TASK: Load scheduler "s137" with entities [EventEntity, EventEntity], work=[794*, 0*]
445: 0x13F7 [0x2B] Yve'noile (ID: 17805315/0x010FB003) [7648*]:
    → "You, and you alone, have the potential to guide them."
446: 0x13FE [0x23] WAIT_FOR_DIALOG_INTERACTION
447: 0x13FF [0x5D] SET_MUSIC_VOLUME(volume=0*, fade_time=120*)
448: 0x1404 [0x52] END_LOAD_SCHEDULER: End scheduler "s137" with entities [EventEntity, EventEntity], work=794*
449: 0x1413 [0x45] LOAD_SCHEDULED_TASK: Load scheduler "s138" with entities [EventEntity, EventEntity], work=[794*, 0*]
450: 0x1424 [0x1C] WAIT(120* ticks)
451: 0x1427 [0x6B] STOP_AND_IDLE: Esha'ntarl (ID: 17805352/0x010FB028) stops current action and resets to idle (animation="idl0")
452: 0x1430 [0x2B] Disjoined One (ID: 17805360/0x010FB030) [7649*]:
    → "But <Player>... If [he/she] wants to become a [god/goddess] of light... Then I shall intervene."
453: 0x1437 [0x1C] WAIT(60* ticks)
454: 0x143A [0x23] WAIT_FOR_DIALOG_INTERACTION
455: 0x143B [0x5C] MUSIC_CONTROL: Set Idle (Day) music to song 80*
456: 0x143F [0x5C] MUSIC_CONTROL: Set Idle (Night) music to song 80*
457: 0x1443 [0x5C] MUSIC_CONTROL: Set Combat (Solo) music to song 80*
458: 0x1447 [0x5C] MUSIC_CONTROL: Set Combat (Party) music to song 80*
459: 0x144B [0x9A] WAIT_MUSIC_SERVER()
460: 0x144C [0x52] END_LOAD_SCHEDULER: End scheduler "s138" with entities [EventEntity, EventEntity], work=794*
461: 0x145B [0x45] LOAD_SCHEDULED_TASK: Load scheduler "s139" with entities [EventEntity, EventEntity], work=[794*, 0*]
462: 0x146C [0x6E] LocalPlayer uses emote 29*
463: 0x1473 [0x99] Wait for LocalPlayer animation to complete
464: 0x1478 [0x7B] Yve'noile (ID: 17805315/0x010FB003) stops talking
465: 0x147D [0x1C] WAIT(120* ticks)
466: 0x1480 [0x81] SET_ENTITY_BLINKING(blink_flag=0x00, entity=Yve'noile (ID: 17805315/0x010FB003))
467: 0x1486 [0x52] END_LOAD_SCHEDULER: End scheduler "s139" with entities [EventEntity, EventEntity], work=794*
468: 0x1495 [0x45] LOAD_SCHEDULED_TASK: Load scheduler "s140" with entities [EventEntity, EventEntity], work=[794*, 0*]
469: 0x14A6 [0x5B] LOAD_EXT_SCHEDULER: Load scheduler "dmg0" with entities [Yve'noile (ID: 17805315/0x010FB003), Yve'noile (ID: 17805315/0x010FB003)], work=575*
470: 0x14B5 [0xD0] LOAD_SCHEDULED_TASK_ALT5: Load scheduler "stp0" with entities [Yve'noile (ID: 17805315/0x010FB003), Yve'noile (ID: 17805315/0x010FB003)], work=[245*, 0*]
471: 0x14C6 [0x1C] WAIT(90* ticks)
472: 0x14C9 [0x52] END_LOAD_SCHEDULER: End scheduler "s140" with entities [EventEntity, EventEntity], work=794*
473: 0x14D8 [0x45] LOAD_SCHEDULED_TASK: Load scheduler "s141" with entities [EventEntity, EventEntity], work=[794*, 0*]
