# 17805333

## Common Data

| Field            | Value                      |
|------------------|----------------------------|
| Zone             | Hall of the Gods (ID: 251) |
| Block Size       | 4804 bytes                 |
| Total Events     | 2                          |
| References Count | 104                        |

## List of Events

| Event ID              | Entrypoint   |   Size |   Instructions |
|-----------------------|--------------|--------|----------------|
| [65535](#event-65535) | 0x0000       |      1 |              1 |
| [5](#event-5)         | 0x0001       |   4363 |            508 |

## DAT References (imed_data)

|   Index | Hex Value   |   Dec Value |
|---------|-------------|-------------|
|       0 | 0x0013      |          19 |
|       1 | 0xFFFFFC6C  |  4294966380 |
|       2 | 0xFFFF39A3  |  4294916515 |
|       3 | 0xFFFFCFF4  |  4294954996 |
|       4 | 0x0C01      |        3073 |
|       5 | 0x0388      |         904 |
|       6 | 0xFFFF4F79  |  4294922105 |
|       7 | 0x0C18      |        3096 |
|       8 | 0xFFFFFFD8  |  4294967256 |
|       9 | 0xFFFFFFCA  |  4294967242 |
|      10 | 0xFFFFCD39  |  4294954297 |
|      11 | 0x0400      |        1024 |
|      12 | 0xFFFFFFE7  |  4294967271 |
|      13 | 0xFFFFE763  |  4294960995 |
|      14 | 0xFFFFCCB8  |  4294954168 |
|      15 | 0x0C00      |        3072 |
|      16 | 0x0320      |         800 |
|      17 | 0x0304      |         772 |
|      18 | 0xFFFF591A  |  4294924570 |
|      19 | 0x0BDE      |        3038 |
|      20 | 0x000F      |          15 |
|      21 | 0x0000      |           0 |
|      22 | 0x0001      |           1 |
|      23 | 0x0A38      |        2616 |
|      24 | 0x00D5      |         213 |
|      25 | 0x01CC      |         460 |
|      26 | 0x0078      |         120 |
|      27 | 0x00B4      |         180 |
|      28 | 0x0A2F      |        2607 |
|      29 | 0x00F0      |         240 |
|      30 | 0x001E      |          30 |
|      31 | 0x005A      |          90 |
|      32 | 0x012C      |         300 |
|      33 | 0x0014      |          20 |
|      34 | 0x00C5      |         197 |
|      35 | 0x0053      |          83 |
|      36 | 0x002D      |          45 |
|      37 | 0x0064      |         100 |
|      38 | 0x0054      |          84 |
|      39 | 0x0096      |         150 |
|      40 | 0x0332      |         818 |
|      41 | 0x1CDF      |        7391 |
|      42 | 0x003C      |          60 |
|      43 | 0x1CE0      |        7392 |
|      44 | 0x0032      |          50 |
|      45 | 0x1CE1      |        7393 |
|      46 | 0x1582      |        5506 |
|      47 | 0x03E9      |        1001 |
|      48 | 0xFFFFC4BE  |  4294952126 |
|      49 | 0x073D      |        1853 |
|      50 | 0x1CE2      |        7394 |
|      51 | 0x1CE3      |        7395 |
|      52 | 0x1CE4      |        7396 |
|      53 | 0x0046      |          70 |
|      54 | 0x0080      |         128 |
|      55 | 0xFFFFFEF6  |  4294967030 |
|      56 | 0x0245      |         581 |
|      57 | 0x0549      |        1353 |
|      58 | 0x1CE5      |        7397 |
|      59 | 0x0258      |         600 |
|      60 | 0xFFFFF9C4  |  4294965700 |
|      61 | 0xFFFFF629  |  4294964777 |
|      62 | 0x0CFB      |        3323 |
|      63 | 0x1C1E      |        7198 |
|      64 | 0x1CE6      |        7398 |
|      65 | 0x1CE7      |        7399 |
|      66 | 0x00C8      |         200 |
|      67 | 0x1CE8      |        7400 |
|      68 | 0xBCC0      |       48320 |
|      69 | 0xFFFFBD27  |  4294950183 |
|      70 | 0xFFFF4381  |  4294919041 |
|      71 | 0x07D0      |        2000 |
|      72 | 0x0A0E      |        2574 |
|      73 | 0xFFFF4575  |  4294919541 |
|      74 | 0x0FD0      |        4048 |
|      75 | 0x0A39      |        2617 |
|      76 | 0x00CE      |         206 |
|      77 | 0x1CE9      |        7401 |
|      78 | 0x1CEA      |        7402 |
|      79 | 0x1CEB      |        7403 |
|      80 | 0x1CEC      |        7404 |
|      81 | 0x1CED      |        7405 |
|      82 | 0x0A2D      |        2605 |
|      83 | 0x1CEE      |        7406 |
|      84 | 0x0B63      |        2915 |
|      85 | 0x1CEF      |        7407 |
|      86 | 0x0002      |           2 |
|      87 | 0x0003      |           3 |
|      88 | 0x0004      |           4 |
|      89 | 0x0005      |           5 |
|      90 | 0x0006      |           6 |
|      91 | 0x0007      |           7 |
|      92 | 0x0008      |           8 |
|      93 | 0x1CF0      |        7408 |
|      94 | 0x1CF1      |        7409 |
|      95 | 0x1CF2      |        7410 |
|      96 | 0x00FA      |         250 |
|      97 | 0x1CF3      |        7411 |
|      98 | 0xFFFFC824  |  4294952996 |
|      99 | 0x1CF4      |        7412 |
|     100 | 0x1CF5      |        7413 |
|     101 | 0x1CF6      |        7414 |
|     102 | 0x00C9      |         201 |
|     103 | 0x00D7      |         215 |

## String References

- **7198**: 

## Events

### Event 65535

#### Metadata

| Field        | Value   |
|--------------|---------|
| Entrypoint   | 0x0000  |
| Data Size    | 1 bytes |
| Instructions | 1       |

```
      00 01 02 03 04 05 06 07  08 09 0A 0B 0C 0D 0E 0F
      -- -- -- -- -- -- -- --  -- -- -- -- -- -- -- --
0000: 00                                                .               
```

#### Opcodes

```
  0: 0x0000 [0x00] END_REQSTACK()
```

### Event 5

#### Metadata

| Field        | Value      |
|--------------|------------|
| Entrypoint   | 0x0001     |
| Data Size    | 4363 bytes |
| Instructions | 487        |

```
      00 01 02 03 04 05 06 07  08 09 0A 0B 0C 0D 0E 0F
      -- -- -- -- -- -- -- --  -- -- -- -- -- -- -- --
0000:    42 1A 46 10 46 01 38  00 80 4E 00 F0 FF FF 7F   B.F.F.8..N.....
0010: 4E 00 17 B0 0F 01 4E 00  18 B0 0F 01 4E 00 16 B0  N.....N.....N...
0020: 0F 01 4E 00 19 B0 0F 01  4E 00 1A B0 0F 01 27 10  ..N.....N.....'.
0030: 19 B0 0F 01 03 92 01 17  B0 0F 01 92 01 18 B0 0F  ................
0040: 01 92 01 16 B0 0F 01 92  01 19 B0 0F 01 92 01 1A  ................
0050: B0 0F 01 94 01 F0 FF FF  7F 94 01 17 B0 0F 01 94  ................
0060: 01 18 B0 0F 01 94 01 16  B0 0F 01 94 01 19 B0 0F  ................
0070: 01 94 01 1A B0 0F 01 BA  F0 FF FF 7F 01 80 02 80  ................
0080: 03 80 04 80 BA 17 B0 0F  01 05 80 06 80 03 80 07  ................
0090: 80 BA 16 B0 0F 01 08 80  09 80 0A 80 0B 80 BA 18  ................
00A0: B0 0F 01 0C 80 0D 80 0E  80 0F 80 BA 19 B0 0F 01  ................
00B0: 08 80 09 80 0A 80 10 80  59 05 1A B0 0F 01 01 BA  ........Y.......
00C0: 1A B0 0F 01 11 80 12 80  03 80 13 80 80 F0 FF FF  ................
00D0: 7F 80 17 B0 0F 01 80 18  B0 0F 01 80 16 B0 0F 01  ................
00E0: 80 19 B0 0F 01 1C 14 80  6C 19 B0 0F 01 15 80 16  ........l.......
00F0: 80 6C 18 B0 0F 01 15 80  16 80 5B 17 80 19 B0 0F  .l........[.....
0100: 01 19 B0 0F 01 65 6D 6C  31 27 10 18 B0 0F 01 02  .....eml1'......
0110: 27 10 16 B0 0F 01 03 81  00 16 B0 0F 01 5C 00 18  '............\..
0120: 80 5C 01 18 80 9A 45 19  80 F0 FF FF 7F F0 FF FF  .\....E.........
0130: 7F 31 37 30 32 15 80 1A  25 10 1C 1A 80 52 19 80  .1702...%....R..
0140: F0 FF FF 7F F0 FF FF 7F  31 37 30 32 45 19 80 F0  ........1702E...
0150: FF FF 7F F0 FF FF 7F 31  37 32 32 15 80 1C 1A 80  .......1722.....
0160: 52 19 80 F0 FF FF 7F F0  FF FF 7F 31 37 32 32 45  R..........1722E
0170: 19 80 F0 FF FF 7F F0 FF  FF 7F 31 37 33 32 15 80  ..........1732..
0180: 1C 1B 80 52 19 80 F0 FF  FF 7F F0 FF FF 7F 31 37  ...R..........17
0190: 33 32 45 19 80 F0 FF FF  7F F0 FF FF 7F 31 37 30  32E..........170
01A0: 35 15 80 1C 1A 80 52 19  80 F0 FF FF 7F F0 FF FF  5.....R.........
01B0: 7F 31 37 30 35 45 19 80  F0 FF FF 7F F0 FF FF 7F  .1705E..........
01C0: 31 37 30 36 15 80 1C 1A  80 52 19 80 F0 FF FF 7F  1706.....R......
01D0: F0 FF FF 7F 31 37 30 36  45 19 80 F0 FF FF 7F F0  ....1706E.......
01E0: FF FF 7F 31 37 30 63 15  80 5B 1C 80 17 B0 0F 01  ...170c..[......
01F0: 17 B0 0F 01 64 73 68 30  03 02 10 1D 80 27 10 1A  ....dsh0.....'..
0200: B0 0F 01 02 1C 1E 80 27  10 F0 FF FF 7F 0F 1C 1F  .......'........
0210: 80 52 19 80 F0 FF FF 7F  F0 FF FF 7F 31 37 30 63  .R..........170c
0220: 45 19 80 F0 FF FF 7F F0  FF FF 7F 31 37 35 30 15  E..........1750.
0230: 80 5D 15 80 20 80 2A 10  1A B0 0F 01 27 10 17 B0  .].. .*.....'...
0240: 0F 01 04 1C 21 80 27 10  F0 FF FF 7F 10 52 19 80  ....!.'......R..
0250: F0 FF FF 7F F0 FF FF 7F  31 37 35 30 45 19 80 F0  ........1750E...
0260: FF FF 7F F0 FF FF 7F 31  37 35 31 15 80 1C 1F 80  .......1751.....
0270: 1A 46 10 1C 1E 80 52 19  80 F0 FF FF 7F F0 FF FF  .F....R.........
0280: 7F 31 37 35 31 7A 00 F0  FF FF 7F 7A 00 17 B0 0F  .1751z.....z....
0290: 01 1C 14 80 27 10 F0 FF  FF 7F 11 27 10 17 B0 0F  ....'......'....
02A0: 01 07 1C 14 80 5C 00 22  80 5C 01 22 80 9A 45 19  .....\.".\."..E.
02B0: 80 F0 FF FF 7F F0 FF FF  7F 31 37 30 38 15 80 1A  .........1708...
02C0: 25 10 27 10 16 B0 0F 01  04 C5 23 80 16 B0 0F 01  %.'.......#.....
02D0: 16 B0 0F 01 73 30 30 30  15 80 45 19 80 16 B0 0F  ....s000..E.....
02E0: 01 16 B0 0F 01 73 68 30  30 15 80 1C 1F 80 52 19  .....sh00.....R.
02F0: 80 F0 FF FF 7F F0 FF FF  7F 31 37 30 38 45 19 80  .........1708E..
0300: F0 FF FF 7F F0 FF FF 7F  73 67 30 30 15 80 1C 1A  ........sg00....
0310: 80 52 19 80 F0 FF FF 7F  F0 FF FF 7F 73 67 30 30  .R..........sg00
0320: 45 19 80 F0 FF FF 7F F0  FF FF 7F 73 67 30 31 15  E..........sg01.
0330: 80 1C 24 80 5B 1C 80 17  B0 0F 01 17 B0 0F 01 64  ..$.[..........d
0340: 73 68 30 1C 24 80 27 10  F0 FF FF 7F 12 52 19 80  sh0.$.'......R..
0350: F0 FF FF 7F F0 FF FF 7F  73 67 30 31 45 19 80 F0  ........sg01E...
0360: FF FF 7F F0 FF FF 7F 31  37 30 65 15 80 1C 25 80  .......170e...%.
0370: 27 10 16 B0 0F 01 04 1C  21 80 52 19 80 F0 FF FF  '.......!.R.....
0380: 7F F0 FF FF 7F 31 37 30  65 45 19 80 F0 FF FF 7F  .....170eE......
0390: F0 FF FF 7F 73 67 30 32  15 80 1C 1E 80 C5 23 80  ....sg02......#.
03A0: 16 B0 0F 01 16 B0 0F 01  73 30 30 31 15 80 1C 1F  ........s001....
03B0: 80 52 19 80 F0 FF FF 7F  F0 FF FF 7F 73 67 30 32  .R..........sg02
03C0: 45 19 80 F0 FF FF 7F F0  FF FF 7F 31 37 30 39 15  E..........1709.
03D0: 80 C5 26 80 F0 FF FF 7F  F0 FF FF 7F 73 30 30 30  ..&.........s000
03E0: 15 80 1C 1B 80 52 19 80  F0 FF FF 7F F0 FF FF 7F  .....R..........
03F0: 31 37 30 39 45 19 80 F0  FF FF 7F F0 FF FF 7F 31  1709E..........1
0400: 37 30 30 15 80 C5 26 80  F0 FF FF 7F F0 FF FF 7F  700...&.........
0410: 73 30 30 31 15 80 1C 1D  80 52 19 80 F0 FF FF 7F  s001.....R......
0420: F0 FF FF 7F 31 37 30 30  45 19 80 F0 FF FF 7F F0  ....1700E.......
0430: FF FF 7F 31 37 30 61 15  80 C5 26 80 F0 FF FF 7F  ...170a...&.....
0440: F0 FF FF 7F 73 30 30 32  15 80 1C 1D 80 55 19 80  ....s002.....U..
0450: F0 FF FF 7F F0 FF FF 7F  31 37 30 61 45 19 80 F0  ........170aE...
0460: FF FF 7F F0 FF FF 7F 31  37 30 66 15 80 1C 1A 80  .......170f.....
0470: 52 19 80 F0 FF FF 7F F0  FF FF 7F 31 37 30 66 45  R..........170fE
0480: 19 80 F0 FF FF 7F F0 FF  FF 7F 31 37 30 67 15 80  ..........170g..
0490: 1C 1B 80 52 19 80 F0 FF  FF 7F F0 FF FF 7F 31 37  ...R..........17
04A0: 30 67 45 19 80 F0 FF FF  7F F0 FF FF 7F 73 67 31  0gE..........sg1
04B0: 32 15 80 1C 27 80 5B 1C  80 17 B0 0F 01 17 B0 0F  2...'.[.........
04C0: 01 64 6C 30 30 52 19 80  F0 FF FF 7F F0 FF FF 7F  .dl00R..........
04D0: 73 67 31 32 45 19 80 F0  FF FF 7F F0 FF FF 7F 31  sg12E..........1
04E0: 37 30 69 15 80 1C 14 80  BA 16 B0 0F 01 08 80 09  70i.............
04F0: 80 0A 80 28 80 2B 17 B0  0F 01 29 80 23 52 19 80  ...(.+....).#R..
0500: F0 FF FF 7F F0 FF FF 7F  31 37 30 69 45 19 80 F0  ........170iE...
0510: FF FF 7F F0 FF FF 7F 31  37 30 6A 15 80 27 10 16  .......170j..'..
0520: B0 0F 01 05 1C 2A 80 7C  00 16 B0 0F 01 2B 16 B0  .....*.|.....+..
0530: 0F 01 2B 80 1C 2C 80 52  19 80 F0 FF FF 7F F0 FF  ..+..,.R........
0540: FF 7F 31 37 30 6A 45 19  80 F0 FF FF 7F F0 FF FF  ..170jE.........
0550: 7F 73 67 31 30 15 80 1C  1E 80 C5 26 80 F0 FF FF  .sg10......&....
0560: 7F F0 FF FF 7F 73 74 70  31 15 80 1C 1A 80 52 19  .....stp1.....R.
0570: 80 F0 FF FF 7F F0 FF FF  7F 73 67 31 30 45 19 80  .........sg10E..
0580: F0 FF FF 7F F0 FF FF 7F  73 67 31 31 15 80 1C 1E  ........sg11....
0590: 80 C5 26 80 F0 FF FF 7F  F0 FF FF 7F 73 74 70 32  ..&.........stp2
05A0: 15 80 1C 1A 80 52 19 80  F0 FF FF 7F F0 FF FF 7F  .....R..........
05B0: 73 67 31 31 45 19 80 F0  FF FF 7F F0 FF FF 7F 31  sg11E..........1
05C0: 37 30 6C 15 80 C5 23 80  16 B0 0F 01 16 B0 0F 01  70l...#.........
05D0: 73 30 30 32 15 80 45 19  80 16 B0 0F 01 16 B0 0F  s002..E.........
05E0: 01 73 68 6B 30 15 80 5D  15 80 20 80 1C 2A 80 C5  .shk0..].. ..*..
05F0: 26 80 F0 FF FF 7F F0 FF  FF 7F 73 74 70 30 15 80  &.........stp0..
0600: 1C 1D 80 52 19 80 F0 FF  FF 7F F0 FF FF 7F 31 37  ...R..........17
0610: 30 6C 45 19 80 F0 FF FF  7F F0 FF FF 7F 31 37 30  0lE..........170
0620: 6D 15 80 1C 1E 80 7C 01  16 B0 0F 01 2B 16 B0 0F  m.....|.....+...
0630: 01 2D 80 23 52 19 80 F0  FF FF 7F F0 FF FF 7F 31  .-.#R..........1
0640: 37 30 6D 45 19 80 F0 FF  FF 7F F0 FF FF 7F 31 37  70mE..........17
0650: 30 6E 15 80 BA 1A B0 0F  01 2E 80 2F 80 30 80 31  0n........./.0.1
0660: 80 1C 1B 80 52 19 80 F0  FF FF 7F F0 FF FF 7F 31  ....R..........1
0670: 37 30 6E 45 19 80 F0 FF  FF 7F F0 FF FF 7F 31 37  70nE..........17
0680: 30 6F 15 80 1C 24 80 5B  1C 80 17 B0 0F 01 17 B0  0o...$.[........
0690: 0F 01 64 6C 30 31 1C 14  80 2B 17 B0 0F 01 32 80  ..dl01...+....2.
06A0: 23 52 19 80 F0 FF FF 7F  F0 FF FF 7F 31 37 30 6F  #R..........170o
06B0: 45 19 80 F0 FF FF 7F F0  FF FF 7F 31 37 30 70 15  E..........170p.
06C0: 80 27 10 19 B0 0F 01 0A  1C 2A 80 2B 16 B0 0F 01  .'.......*.+....
06D0: 33 80 23 52 19 80 F0 FF  FF 7F F0 FF FF 7F 31 37  3.#R..........17
06E0: 30 70 45 19 80 F0 FF FF  7F F0 FF FF 7F 31 37 30  0pE..........170
06F0: 71 15 80 2B 17 B0 0F 01  34 80 27 10 17 B0 0F 01  q..+....4.'.....
0700: 1B 1C 35 80 6C 17 B0 0F  01 15 80 16 80 6C 19 B0  ..5.l........l..
0710: 0F 01 36 80 16 80 BA 17  B0 0F 01 37 80 38 80 0A  ..6........7.8..
0720: 80 39 80 27 10 17 B0 0F  01 14 52 19 80 F0 FF FF  .9.'......R.....
0730: 7F F0 FF FF 7F 31 37 30  71 45 19 80 F0 FF FF 7F  .....170qE......
0740: F0 FF FF 7F 31 37 30 72  15 80 27 10 16 B0 0F 01  ....170r..'.....
0750: 06 1C 1E 80 2B 16 B0 0F  01 3A 80 1C 1F 80 52 19  ....+....:....R.
0760: 80 F0 FF FF 7F F0 FF FF  7F 31 37 30 72 45 19 80  .........170rE..
0770: F0 FF FF 7F F0 FF FF 7F  31 37 30 73 15 80 27 10  ........170s..'.
0780: 16 B0 0F 01 07 5B 17 80  19 B0 0F 01 19 B0 0F 01  .....[..........
0790: 65 6D 65 31 03 02 10 3B  80 27 10 1A B0 0F 01 02  eme1...;.'......
07A0: 27 10 19 B0 0F 01 0B 1C  1B 80 27 10 19 B0 0F 01  '.........'.....
07B0: 0C 2A 10 1A B0 0F 01 1C  1A 80 1A 46 10 1C 1E 80  .*.........F....
07C0: 52 19 80 F0 FF FF 7F F0  FF FF 7F 31 37 30 73 6C  R..........170sl
07D0: 17 B0 0F 01 36 80 16 80  6C 19 B0 0F 01 15 80 16  ....6...l.......
07E0: 80 27 10 19 B0 0F 01 04  80 19 B0 0F 01 BA F0 FF  .'..............
07F0: FF 7F 3C 80 3D 80 0A 80  3E 80 BA 1A B0 0F 01 2E  ..<.=...>.......
0800: 80 2F 80 30 80 31 80 79  00 F0 FF FF 7F 17 B0 0F  ./.0.1.y........
0810: 01 7B 17 B0 0F 01 1C 1E  80 48 3F 80 23 45 19 80  .{.......H?.#E..
0820: F0 FF FF 7F F0 FF FF 7F  31 37 30 74 15 80 1A 25  ........170t...%
0830: 10 1C 1A 80 52 19 80 F0  FF FF 7F F0 FF FF 7F 31  ....R..........1
0840: 37 30 74 45 19 80 F0 FF  FF 7F F0 FF FF 7F 61 67  70tE..........ag
0850: 30 31 15 80 27 10 17 B0  0F 01 0E 1C 2A 80 7C 00  01..'.......*.|.
0860: 17 B0 0F 01 2B 17 B0 0F  01 40 80 23 7B F0 FF FF  ....+....@.#{...
0870: 7F 2B 19 B0 0F 01 41 80  23 59 03 F0 FF FF 7F 42  .+....A.#Y.....B
0880: 80 4A F0 FF FF 7F 18 B0  0F 01 52 19 80 F0 FF FF  .J........R.....
0890: 7F F0 FF FF 7F 61 67 30  31 45 19 80 F0 FF FF 7F  .....ag01E......
08A0: F0 FF FF 7F 61 67 31 31  15 80 1C 1E 80 27 10 19  ....ag11.....'..
08B0: B0 0F 01 0D 45 19 80 18  B0 0F 01 18 B0 0F 01 64  ....E..........d
08C0: 65 30 30 15 80 1C 1A 80  27 10 17 B0 0F 01 0F 27  e00.....'......'
08D0: 10 18 B0 0F 01 03 1C 1D  80 52 19 80 F0 FF FF 7F  .........R......
08E0: F0 FF FF 7F 61 67 31 31  45 19 80 F0 FF FF 7F F0  ....ag11E.......
08F0: FF FF 7F 61 67 30 32 15  80 27 10 18 B0 0F 01 04  ...ag02..'......
0900: 1C 1A 80 2B 18 B0 0F 01  43 80 23 1A 46 10 1C 1E  ...+....C.#.F...
0910: 80 27 10 19 B0 0F 01 05  59 05 19 B0 0F 01 01 BA  .'......Y.......
0920: 19 B0 0F 01 44 80 45 80  46 80 47 80 80 19 B0 0F  ....D.E.F.G.....
0930: 01 1C 14 80 81 00 19 B0  0F 01 5B 48 80 19 B0 0F  ..........[H....
0940: 01 19 B0 0F 01 68 79 6C  32 6C 19 B0 0F 01 2C 80  .....hyl2l....,.
0950: 16 80 59 05 18 B0 0F 01  01 BA 18 B0 0F 01 44 80  ..Y...........D.
0960: 45 80 46 80 47 80 6C 18  B0 0F 01 15 80 16 80 6C  E.F.G.l........l
0970: 16 B0 0F 01 2C 80 16 80  59 05 16 B0 0F 01 01 BA  ....,...Y.......
0980: 16 B0 0F 01 44 80 45 80  49 80 4A 80 5B 4B 80 16  ....D.E.I.J.[K..
0990: B0 0F 01 16 B0 0F 01 7A  7A 7A 30 81 00 18 B0 0F  .......zzz0.....
09A0: 01 81 00 16 B0 0F 01 7C  00 18 B0 0F 01 1C 1E 80  .......|........
09B0: 5C 00 4C 80 5C 01 4C 80  9A 48 3F 80 23 52 19 80  \.L.\.L..H?.#R..
09C0: F0 FF FF 7F F0 FF FF 7F  61 67 30 32 45 19 80 F0  ........ag02E...
09D0: FF FF 7F F0 FF FF 7F 61  67 30 33 15 80 1A 25 10  .......ag03...%.
09E0: 1C 1B 80 2B 18 B0 0F 01  4D 80 23 52 19 80 F0 FF  ...+....M.#R....
09F0: FF 7F F0 FF FF 7F 61 67  30 33 45 19 80 F0 FF FF  ......ag03E.....
0A00: 7F F0 FF FF 7F 61 67 30  38 15 80 6C 16 B0 0F 01  .....ag08..l....
0A10: 15 80 16 80 27 10 19 B0  0F 01 0F 27 10 18 B0 0F  ....'......'....
0A20: 01 13 7B 18 B0 0F 01 27  10 18 B0 0F 01 06 1C 1B  ..{....'........
0A30: 80 27 10 18 B0 0F 01 07  81 01 18 B0 0F 01 1C 2A  .'.............*
0A40: 80 2B 18 B0 0F 01 4E 80  23 1A 46 10 1C 1E 80 52  .+....N.#.F....R
0A50: 19 80 F0 FF FF 7F F0 FF  FF 7F 61 67 30 38 59 05  ..........ag08Y.
0A60: 18 B0 0F 01 00 BA 18 B0  0F 01 0C 80 0D 80 0E 80  ................
0A70: 0F 80 7B 18 B0 0F 01 6C  18 B0 0F 01 36 80 16 80  ..{....l....6...
0A80: 6C 16 B0 0F 01 2C 80 16  80 27 10 18 B0 0F 01 04  l....,...'......
0A90: 27 10 17 B0 0F 01 0E 27  10 19 B0 0F 01 03 BA 19  '......'........
0AA0: B0 0F 01 37 80 38 80 0A  80 39 80 80 19 B0 0F 01  ...7.8...9......
0AB0: 1C 14 80 81 01 19 B0 0F  01 27 10 19 B0 0F 01 08  .........'......
0AC0: 6C 19 B0 0F 01 15 80 16  80 1C 1E 80 45 19 80 F0  l...........E...
0AD0: FF FF 7F F0 FF FF 7F 61  67 30 39 15 80 1A 25 10  .......ag09...%.
0AE0: 1C 1A 80 7C 01 18 B0 0F  01 2B 18 B0 0F 01 4F 80  ...|.....+....O.
0AF0: 23 52 19 80 F0 FF FF 7F  F0 FF FF 7F 61 67 30 39  #R..........ag09
0B00: 45 19 80 F0 FF FF 7F F0  FF FF 7F 61 67 31 39 15  E..........ag19.
0B10: 80 1C 1A 80 2B 18 B0 0F  01 50 80 23 52 19 80 F0  ....+....P.#R...
0B20: FF FF 7F F0 FF FF 7F 61  67 31 39 45 19 80 F0 FF  .......ag19E....
0B30: FF 7F F0 FF FF 7F 61 67  30 30 15 80 5D 15 80 3B  ......ag00..]..;
0B40: 80 1C 27 80 27 10 18 B0  0F 01 08 1C 2A 80 2B 18  ..'.'.......*.+.
0B50: B0 0F 01 51 80 23 52 19  80 F0 FF FF 7F F0 FF FF  ...Q.#R.........
0B60: 7F 61 67 30 30 45 19 80  F0 FF FF 7F F0 FF FF 7F  .ag00E..........
0B70: 61 67 30 61 15 80 1C 24  80 29 10 17 B0 0F 01 24  ag0a...$.).....$
0B80: 80 17 B0 0F 01 1C 14 80  5B 52 80 17 B0 0F 01 17  ........[R......
0B90: B0 0F 01 64 66 61 30 2B  18 B0 0F 01 53 80 23 5B  ...dfa0+....S.#[
0BA0: 52 80 17 B0 0F 01 17 B0  0F 01 64 66 61 31 1C 21  R.........dfa1.!
0BB0: 80 52 19 80 F0 FF FF 7F  F0 FF FF 7F 61 67 30 61  .R..........ag0a
0BC0: 45 19 80 F0 FF FF 7F F0  FF FF 7F 61 67 30 62 15  E..........ag0b.
0BD0: 80 1C 1F 80 BA 18 B0 0F  01 0C 80 0D 80 0E 80 54  ...............T
0BE0: 80 1C 1E 80 52 19 80 F0  FF FF 7F F0 FF FF 7F 61  ....R..........a
0BF0: 67 30 62 45 19 80 F0 FF  FF 7F F0 FF FF 7F 61 67  g0bE..........ag
0C00: 30 63 15 80 1C 2A 80 27  10 17 B0 0F 01 1F 4A F0  0c...*.'......J.
0C10: FF FF 7F 18 B0 0F 01 2B  18 B0 0F 01 55 80 23 52  .......+....U.#R
0C20: 19 80 F0 FF FF 7F F0 FF  FF 7F 61 67 30 63 29 10  ..........ag0c).
0C30: F0 FF FF 7F 16 02 02 10  16 80 80 51 0C 45 19 80  ...........Q.E..
0C40: F0 FF FF 7F F0 FF FF 7F  61 67 68 6D 15 80 01 15  ........aghm....
0C50: 0D 02 02 10 56 80 80 6D  0C 45 19 80 F0 FF FF 7F  ....V..m.E......
0C60: F0 FF FF 7F 61 67 68 66  15 80 01 15 0D 02 02 10  ....aghf........
0C70: 57 80 80 89 0C 45 19 80  F0 FF FF 7F F0 FF FF 7F  W....E..........
0C80: 61 67 65 6D 15 80 01 15  0D 02 02 10 58 80 80 A5  agem........X...
0C90: 0C 45 19 80 F0 FF FF 7F  F0 FF FF 7F 61 67 65 66  .E..........agef
0CA0: 15 80 01 15 0D 02 02 10  59 80 80 C1 0C 45 19 80  ........Y....E..
0CB0: F0 FF FF 7F F0 FF FF 7F  61 67 31 64 15 80 01 15  ........ag1d....
0CC0: 0D 02 02 10 5A 80 80 DD  0C 45 19 80 F0 FF FF 7F  ....Z....E......
0CD0: F0 FF FF 7F 61 67 31 64  15 80 01 15 0D 02 02 10  ....ag1d........
0CE0: 5B 80 80 F9 0C 45 19 80  F0 FF FF 7F F0 FF FF 7F  [....E..........
0CF0: 61 67 32 64 15 80 01 15  0D 02 02 10 5C 80 80 15  ag2d........\...
0D00: 0D 45 19 80 F0 FF FF 7F  F0 FF FF 7F 61 67 33 64  .E..........ag3d
0D10: 15 80 01 15 0D 1C 2A 80  2B 18 B0 0F 01 5D 80 23  ......*.+....].#
0D20: 5C 00 42 80 5C 01 42 80  9A 52 19 80 F0 FF FF 7F  \.B.\.B..R......
0D30: F0 FF FF 7F 61 67 68 6D  52 19 80 F0 FF FF 7F F0  ....aghmR.......
0D40: FF FF 7F 61 67 68 66 52  19 80 F0 FF FF 7F F0 FF  ...aghfR........
0D50: FF 7F 61 67 65 6D 52 19  80 F0 FF FF 7F F0 FF FF  ..agemR.........
0D60: 7F 61 67 65 66 52 19 80  F0 FF FF 7F F0 FF FF 7F  .agefR..........
0D70: 61 67 31 64 52 19 80 F0  FF FF 7F F0 FF FF 7F 61  ag1dR..........a
0D80: 67 32 64 52 19 80 F0 FF  FF 7F F0 FF FF 7F 61 67  g2dR..........ag
0D90: 33 64 45 19 80 F0 FF FF  7F F0 FF FF 7F 61 67 30  3dE..........ag0
0DA0: 65 15 80 1C 1F 80 27 10  18 B0 0F 01 0C 1C 2A 80  e.....'.......*.
0DB0: 52 19 80 F0 FF FF 7F F0  FF FF 7F 61 67 30 65 45  R..........ag0eE
0DC0: 19 80 F0 FF FF 7F F0 FF  FF 7F 61 67 31 65 15 80  ..........ag1e..
0DD0: 1C 1E 80 2B 18 B0 0F 01  5E 80 23 52 19 80 F0 FF  ...+....^.#R....
0DE0: FF 7F F0 FF FF 7F 61 67  31 65 45 19 80 F0 FF FF  ......ag1eE.....
0DF0: 7F F0 FF FF 7F 61 67 30  66 15 80 1C 1A 80 6B 69  .....ag0f.....ki
0E00: 64 6C 30 18 B0 0F 01 2B  18 B0 0F 01 5F 80 23 81  dl0....+...._.#.
0E10: 00 18 B0 0F 01 27 10 18  B0 0F 01 0E 03 02 10 60  .....'.........`
0E20: 80 27 10 1A B0 0F 01 02  1C 1E 80 52 19 80 F0 FF  .'.........R....
0E30: FF 7F F0 FF FF 7F 61 67  30 66 45 19 80 F0 FF FF  ......ag0fE.....
0E40: 7F F0 FF FF 7F 61 67 30  67 15 80 1C 1A 80 2B 18  .....ag0g.....+.
0E50: B0 0F 01 61 80 23 2A 10  1A B0 0F 01 52 19 80 F0  ...a.#*.....R...
0E60: FF FF 7F F0 FF FF 7F 61  67 30 67 45 19 80 F0 FF  .......ag0gE....
0E70: FF 7F F0 FF FF 7F 61 67  30 68 15 80 1C 2A 80 27  ......ag0h...*.'
0E80: 10 19 B0 0F 01 0E 45 19  80 18 B0 0F 01 18 B0 0F  ......E.........
0E90: 01 6B 69 65 30 15 80 1C  2A 80 27 10 17 B0 0F 01  .kie0...*.'.....
0EA0: 11 1C 1A 80 59 05 18 B0  0F 01 01 BA 18 B0 0F 01  ....Y...........
0EB0: 0C 80 0D 80 62 80 0F 80  27 10 18 B0 0F 01 02 1C  ....b...'.......
0EC0: 1E 80 52 19 80 F0 FF FF  7F F0 FF FF 7F 61 67 30  ..R..........ag0
0ED0: 68 45 19 80 F0 FF FF 7F  F0 FF FF 7F 61 67 30 6C  hE..........ag0l
0EE0: 15 80 1C 2A 80 6C 18 B0  0F 01 36 80 16 80 2B 18  ...*.l....6...+.
0EF0: B0 0F 01 63 80 23 79 00  17 B0 0F 01 18 B0 0F 01  ...c.#y.........
0F00: 1C 1E 80 52 19 80 F0 FF  FF 7F F0 FF FF 7F 61 67  ...R..........ag
0F10: 30 6C 45 19 80 F0 FF FF  7F F0 FF FF 7F 61 67 30  0lE..........ag0
0F20: 6E 15 80 1C 1A 80 27 10  19 B0 0F 01 0E 45 19 80  n.....'......E..
0F30: 18 B0 0F 01 18 B0 0F 01  6B 69 65 30 15 80 5D 15  ........kie0..].
0F40: 80 20 80 1C 2A 80 2B 18  B0 0F 01 64 80 23 52 19  . ..*.+....d.#R.
0F50: 80 F0 FF FF 7F F0 FF FF  7F 61 67 30 6E 45 19 80  .........ag0nE..
0F60: F0 FF FF 7F F0 FF FF 7F  61 67 30 6F 15 80 1C 2A  ........ag0o...*
0F70: 80 7C 00 17 B0 0F 01 2B  17 B0 0F 01 65 80 1C 1D  .|.....+....e...
0F80: 80 1A 46 10 1C 1E 80 52  19 80 F0 FF FF 7F F0 FF  ..F....R........
0F90: FF 7F 61 67 30 6F 45 19  80 F0 FF FF 7F F0 FF FF  ..ag0oE.........
0FA0: 7F 30 30 62 66 15 80 4E  01 18 B0 0F 01 4E 01 17  .00bf..N.....N..
0FB0: B0 0F 01 4E 01 16 B0 0F  01 4E 01 19 B0 0F 01 4E  ...N.....N.....N
0FC0: 01 1A B0 0F 01 5C 00 18  80 5C 01 18 80 9A 46 00  .....\...\....F.
0FD0: 45 42 80 F0 FF FF 7F F0  FF FF 7F 66 64 69 32 15  EB.........fdi2.
0FE0: 80 21 00 45 42 80 F0 FF  FF 7F F0 FF FF 7F 66 64  .!.EB.........fd
0FF0: 69 30 15 80 55 42 80 F0  FF FF 7F F0 FF FF 7F 66  i0..UB.........f
1000: 64 69 30 1B 45 42 80 F0  FF FF 7F F0 FF FF 7F 66  di0.EB.........f
1010: 64 6F 30 15 80 55 42 80  F0 FF FF 7F F0 FF FF 7F  do0..UB.........
1020: 66 64 6F 30 1B 45 42 80  F0 FF FF 7F F0 FF FF 7F  fdo0.EB.........
1030: 66 64 69 31 15 80 55 42  80 F0 FF FF 7F F0 FF FF  fdi1..UB........
1040: 7F 66 64 69 31 1B 45 42  80 F0 FF FF 7F F0 FF FF  .fdi1.EB........
1050: 7F 66 64 6F 31 15 80 55  42 80 F0 FF FF 7F F0 FF  .fdo1..UB.......
1060: FF 7F 66 64 6F 31 1B 45  66 80 F0 FF FF 7F F0 FF  ..fdo1.Ef.......
1070: FF 7F 77 68 69 31 15 80  55 66 80 F0 FF FF 7F F0  ..whi1..Uf......
1080: FF FF 7F 77 68 69 31 1B  45 66 80 F0 FF FF 7F F0  ...whi1.Ef......
1090: FF FF 7F 77 68 6F 31 15  80 55 66 80 F0 FF FF 7F  ...who1..Uf.....
10A0: F0 FF FF 7F 77 68 6F 31  1B 45 66 80 F0 FF FF 7F  ....who1.Ef.....
10B0: F0 FF FF 7F 77 68 69 30  15 80 55 66 80 F0 FF FF  ....whi0..Uf....
10C0: 7F F0 FF FF 7F 77 68 69  30 1B 45 66 80 F0 FF FF  .....whi0.Ef....
10D0: 7F F0 FF FF 7F 77 68 6F  30 15 80 55 66 80 F0 FF  .....who0..Uf...
10E0: FF 7F F0 FF FF 7F 77 68  6F 30 1B 45 67 80 F0 FF  ......who0.Eg...
10F0: FF 7F F0 FF FF 7F 65 66  6F 6E 15 80 55 67 80 F0  ......efon..Ug..
1100: FF FF 7F F0 FF FF 7F 65  66 6F 6E 1B              .......efon.    
```

#### Opcodes

```
  0: 0x0001 [0x42] SET_CLI_EVENT_CANCEL_DATA()
  1: 0x0002 [0x1A] CALL_SUBROUTINE(address=0x1046)
  2: 0x0005 [0x46] CAMERA_CONTROL: Disable user control
  3: 0x0007 [0x38] SET_CLIENT_EVENT_MODE(mode=19*)
  4: 0x000A [0x4E] SET_ENTITY_HIDE_FLAG: Show LocalPlayer
  5: 0x0010 [0x4E] SET_ENTITY_HIDE_FLAG: Show Aldo (ID: 17805335/0x010FB017)
  6: 0x0016 [0x4E] SET_ENTITY_HIDE_FLAG: Show Young Aldo (ID: 17805336/0x010FB018)
  7: 0x001C [0x4E] SET_ENTITY_HIDE_FLAG: Show Mathilde (ID: 17805334/0x010FB016)
  8: 0x0022 [0x4E] SET_ENTITY_HIDE_FLAG: Show ??? (ID: 17805337/0x010FB019)
  9: 0x0028 [0x4E] SET_ENTITY_HIDE_FLAG: Show Unnamed NPC (ID: 17805338/0x010FB01A)
 10: 0x002E [0x27] REQ_SET(priority=0x10, entity_id=??? (ID: 17805337/0x010FB019), tag_num=0x03)
 11: 0x0035 [0x92] Aldo (ID: 17805335/0x010FB017)->Render.Flags3 ^= 0x01
 12: 0x003B [0x92] Young Aldo (ID: 17805336/0x010FB018)->Render.Flags3 ^= 0x01
 13: 0x0041 [0x92] Mathilde (ID: 17805334/0x010FB016)->Render.Flags3 ^= 0x01
 14: 0x0047 [0x92] ??? (ID: 17805337/0x010FB019)->Render.Flags3 ^= 0x01
 15: 0x004D [0x92] Unnamed NPC (ID: 17805338/0x010FB01A)->Render.Flags3 ^= 0x01
 16: 0x0053 [0x94] LocalPlayer->Render.Flags3 ^= 0x01
 17: 0x0059 [0x94] Aldo (ID: 17805335/0x010FB017)->Render.Flags3 ^= 0x01
 18: 0x005F [0x94] Young Aldo (ID: 17805336/0x010FB018)->Render.Flags3 ^= 0x01
 19: 0x0065 [0x94] Mathilde (ID: 17805334/0x010FB016)->Render.Flags3 ^= 0x01
 20: 0x006B [0x94] ??? (ID: 17805337/0x010FB019)->Render.Flags3 ^= 0x01
 21: 0x0071 [0x94] Unnamed NPC (ID: 17805338/0x010FB01A)->Render.Flags3 ^= 0x01
 22: 0x0077 [0xBA] SET_ENTITY_POSITION(entity_id=LocalPlayer, pos_x=-0.916*, pos_z=-50.781*, pos_y=-12.300*, direction=270.1°*)
 23: 0x0084 [0xBA] SET_ENTITY_POSITION(entity_id=Aldo (ID: 17805335/0x010FB017), pos_x=0.904*, pos_z=-45.191*, pos_y=-12.300*, direction=272.1°*)
 24: 0x0091 [0xBA] SET_ENTITY_POSITION(entity_id=Mathilde (ID: 17805334/0x010FB016), pos_x=-0.040*, pos_z=-0.054*, pos_y=-12.999*, direction=90.0°*)
 25: 0x009E [0xBA] SET_ENTITY_POSITION(entity_id=Young Aldo (ID: 17805336/0x010FB018), pos_x=-0.025*, pos_z=-6.301*, pos_y=-13.128*, direction=270.0°*)
 26: 0x00AB [0xBA] SET_ENTITY_POSITION(entity_id=??? (ID: 17805337/0x010FB019), pos_x=-0.040*, pos_z=-0.054*, pos_y=-12.999*, direction=70.3°*)
 27: 0x00B8 [0x59] UPDATE_ENTITY_DATA: Unnamed NPC (ID: 17805338/0x010FB01A)->Render.Flags0 |= 0x200000
 28: 0x00BF [0xBA] SET_ENTITY_POSITION(entity_id=Unnamed NPC (ID: 17805338/0x010FB01A), pos_x=0.772*, pos_z=-42.726*, pos_y=-12.300*, direction=267.0°*)
 29: 0x00CC [0x80] LOAD_WAIT(entity=LocalPlayer)
 30: 0x00D1 [0x80] LOAD_WAIT(entity=Aldo (ID: 17805335/0x010FB017))
 31: 0x00D6 [0x80] LOAD_WAIT(entity=Young Aldo (ID: 17805336/0x010FB018))
 32: 0x00DB [0x80] LOAD_WAIT(entity=Mathilde (ID: 17805334/0x010FB016))
 33: 0x00E0 [0x80] LOAD_WAIT(entity=??? (ID: 17805337/0x010FB019))
 34: 0x00E5 [0x1C] WAIT(15* ticks)
 35: 0x00E8 [0x6C] FADE_ENTITY_COLOR(entity_id=??? (ID: 17805337/0x010FB019), end_alpha=0*, fade_time=1*)
 36: 0x00F1 [0x6C] FADE_ENTITY_COLOR(entity_id=Young Aldo (ID: 17805336/0x010FB018), end_alpha=0*, fade_time=1*)
 37: 0x00FA [0x5B] LOAD_EXT_SCHEDULER: Load scheduler "eml1" with entities [??? (ID: 17805337/0x010FB019), ??? (ID: 17805337/0x010FB019)], work=2616*
 38: 0x0109 [0x27] REQ_SET(priority=0x10, entity_id=Young Aldo (ID: 17805336/0x010FB018), tag_num=0x02)
 39: 0x0110 [0x27] REQ_SET(priority=0x10, entity_id=Mathilde (ID: 17805334/0x010FB016), tag_num=0x03)
 40: 0x0117 [0x81] SET_ENTITY_BLINKING(blink_flag=0x00, entity=Mathilde (ID: 17805334/0x010FB016))
 41: 0x011D [0x5C] MUSIC_CONTROL: Set Idle (Day) music to song 213*
 42: 0x0121 [0x5C] MUSIC_CONTROL: Set Idle (Night) music to song 213*
 43: 0x0125 [0x9A] WAIT_MUSIC_SERVER()
 44: 0x0126 [0x45] LOAD_SCHEDULED_TASK: Load scheduler "1702" with entities [LocalPlayer, LocalPlayer], work=[460*, 0*]
 45: 0x0137 [0x1A] CALL_SUBROUTINE(address=0x1025)
 46: 0x013A [0x1C] WAIT(120* ticks)
 47: 0x013D [0x52] END_LOAD_SCHEDULER: End scheduler "1702" with entities [LocalPlayer, LocalPlayer], work=460*
 48: 0x014C [0x45] LOAD_SCHEDULED_TASK: Load scheduler "1722" with entities [LocalPlayer, LocalPlayer], work=[460*, 0*]
 49: 0x015D [0x1C] WAIT(120* ticks)
 50: 0x0160 [0x52] END_LOAD_SCHEDULER: End scheduler "1722" with entities [LocalPlayer, LocalPlayer], work=460*
 51: 0x016F [0x45] LOAD_SCHEDULED_TASK: Load scheduler "1732" with entities [LocalPlayer, LocalPlayer], work=[460*, 0*]
 52: 0x0180 [0x1C] WAIT(180* ticks)
 53: 0x0183 [0x52] END_LOAD_SCHEDULER: End scheduler "1732" with entities [LocalPlayer, LocalPlayer], work=460*
 54: 0x0192 [0x45] LOAD_SCHEDULED_TASK: Load scheduler "1705" with entities [LocalPlayer, LocalPlayer], work=[460*, 0*]
 55: 0x01A3 [0x1C] WAIT(120* ticks)
 56: 0x01A6 [0x52] END_LOAD_SCHEDULER: End scheduler "1705" with entities [LocalPlayer, LocalPlayer], work=460*
 57: 0x01B5 [0x45] LOAD_SCHEDULED_TASK: Load scheduler "1706" with entities [LocalPlayer, LocalPlayer], work=[460*, 0*]
 58: 0x01C6 [0x1C] WAIT(120* ticks)
 59: 0x01C9 [0x52] END_LOAD_SCHEDULER: End scheduler "1706" with entities [LocalPlayer, LocalPlayer], work=460*
 60: 0x01D8 [0x45] LOAD_SCHEDULED_TASK: Load scheduler "170c" with entities [LocalPlayer, LocalPlayer], work=[460*, 0*]
 61: 0x01E9 [0x5B] LOAD_EXT_SCHEDULER: Load scheduler "dsh0" with entities [Aldo (ID: 17805335/0x010FB017), Aldo (ID: 17805335/0x010FB017)], work=2607*
 62: 0x01F8 [0x03] Work_Zone[2] = 240*
 63: 0x01FD [0x27] REQ_SET(priority=0x10, entity_id=Unnamed NPC (ID: 17805338/0x010FB01A), tag_num=0x02)
 64: 0x0204 [0x1C] WAIT(30* ticks)
 65: 0x0207 [0x27] REQ_SET(priority=0x10, entity_id=LocalPlayer, tag_num=0x0F)
 66: 0x020E [0x1C] WAIT(90* ticks)
 67: 0x0211 [0x52] END_LOAD_SCHEDULER: End scheduler "170c" with entities [LocalPlayer, LocalPlayer], work=460*
 68: 0x0220 [0x45] LOAD_SCHEDULED_TASK: Load scheduler "1750" with entities [LocalPlayer, LocalPlayer], work=[460*, 0*]
 69: 0x0231 [0x5D] SET_MUSIC_VOLUME(volume=0*, fade_time=300*)
 70: 0x0236 [0x2A] GET_REQ_LEVEL(level=16, entity_id=Unnamed NPC (ID: 17805338/0x010FB01A))
 71: 0x023C [0x27] REQ_SET(priority=0x10, entity_id=Aldo (ID: 17805335/0x010FB017), tag_num=0x04)
 72: 0x0243 [0x1C] WAIT(20* ticks)
 73: 0x0246 [0x27] REQ_SET(priority=0x10, entity_id=LocalPlayer, tag_num=0x10)
 74: 0x024D [0x52] END_LOAD_SCHEDULER: End scheduler "1750" with entities [LocalPlayer, LocalPlayer], work=460*
 75: 0x025C [0x45] LOAD_SCHEDULED_TASK: Load scheduler "1751" with entities [LocalPlayer, LocalPlayer], work=[460*, 0*]
 76: 0x026D [0x1C] WAIT(90* ticks)
 77: 0x0270 [0x1A] CALL_SUBROUTINE(address=0x1046)
 78: 0x0273 [0x1C] WAIT(30* ticks)
 79: 0x0276 [0x52] END_LOAD_SCHEDULER: End scheduler "1751" with entities [LocalPlayer, LocalPlayer], work=460*
 80: 0x0285 [0x7A] VM_CONTROL: Reset VM for LocalPlayer
 81: 0x028B [0x7A] VM_CONTROL: Reset VM for Aldo (ID: 17805335/0x010FB017)
 82: 0x0291 [0x1C] WAIT(15* ticks)
 83: 0x0294 [0x27] REQ_SET(priority=0x10, entity_id=LocalPlayer, tag_num=0x11)
 84: 0x029B [0x27] REQ_SET(priority=0x10, entity_id=Aldo (ID: 17805335/0x010FB017), tag_num=0x07)
 85: 0x02A2 [0x1C] WAIT(15* ticks)
 86: 0x02A5 [0x5C] MUSIC_CONTROL: Set Idle (Day) music to song 197*
 87: 0x02A9 [0x5C] MUSIC_CONTROL: Set Idle (Night) music to song 197*
 88: 0x02AD [0x9A] WAIT_MUSIC_SERVER()
 89: 0x02AE [0x45] LOAD_SCHEDULED_TASK: Load scheduler "1708" with entities [LocalPlayer, LocalPlayer], work=[460*, 0*]
 90: 0x02BF [0x1A] CALL_SUBROUTINE(address=0x1025)
 91: 0x02C2 [0x27] REQ_SET(priority=0x10, entity_id=Mathilde (ID: 17805334/0x010FB016), tag_num=0x04)
 92: 0x02C9 [0xC5] LOAD_SCHEDULED_TASK_ALT3: Load scheduler 0x80153030 for entities [Mathilde (ID: 17805334/0x010FB016), Mathilde (ID: 17805334/0x010FB016)], work=83*, param=12403
 93: 0x02DA [0x45] LOAD_SCHEDULED_TASK: Load scheduler "sh00" with entities [Mathilde (ID: 17805334/0x010FB016), Mathilde (ID: 17805334/0x010FB016)], work=[460*, 0*]
 94: 0x02EB [0x1C] WAIT(90* ticks)
 95: 0x02EE [0x52] END_LOAD_SCHEDULER: End scheduler "1708" with entities [LocalPlayer, LocalPlayer], work=460*
 96: 0x02FD [0x45] LOAD_SCHEDULED_TASK: Load scheduler "sg00" with entities [LocalPlayer, LocalPlayer], work=[460*, 0*]
 97: 0x030E [0x1C] WAIT(120* ticks)
 98: 0x0311 [0x52] END_LOAD_SCHEDULER: End scheduler "sg00" with entities [LocalPlayer, LocalPlayer], work=460*
 99: 0x0320 [0x45] LOAD_SCHEDULED_TASK: Load scheduler "sg01" with entities [LocalPlayer, LocalPlayer], work=[460*, 0*]
100: 0x0331 [0x1C] WAIT(45* ticks)
101: 0x0334 [0x5B] LOAD_EXT_SCHEDULER: Load scheduler "dsh0" with entities [Aldo (ID: 17805335/0x010FB017), Aldo (ID: 17805335/0x010FB017)], work=2607*
102: 0x0343 [0x1C] WAIT(45* ticks)
103: 0x0346 [0x27] REQ_SET(priority=0x10, entity_id=LocalPlayer, tag_num=0x12)
104: 0x034D [0x52] END_LOAD_SCHEDULER: End scheduler "sg01" with entities [LocalPlayer, LocalPlayer], work=460*
105: 0x035C [0x45] LOAD_SCHEDULED_TASK: Load scheduler "170e" with entities [LocalPlayer, LocalPlayer], work=[460*, 0*]
106: 0x036D [0x1C] WAIT(100* ticks)
107: 0x0370 [0x27] REQ_SET(priority=0x10, entity_id=Mathilde (ID: 17805334/0x010FB016), tag_num=0x04)
108: 0x0377 [0x1C] WAIT(20* ticks)
109: 0x037A [0x52] END_LOAD_SCHEDULER: End scheduler "170e" with entities [LocalPlayer, LocalPlayer], work=460*
110: 0x0389 [0x45] LOAD_SCHEDULED_TASK: Load scheduler "sg02" with entities [LocalPlayer, LocalPlayer], work=[460*, 0*]
111: 0x039A [0x1C] WAIT(30* ticks)
112: 0x039D [0xC5] LOAD_SCHEDULED_TASK_ALT3: Load scheduler 0x80153130 for entities [Mathilde (ID: 17805334/0x010FB016), Mathilde (ID: 17805334/0x010FB016)], work=83*, param=12403
113: 0x03AE [0x1C] WAIT(90* ticks)
114: 0x03B1 [0x52] END_LOAD_SCHEDULER: End scheduler "sg02" with entities [LocalPlayer, LocalPlayer], work=460*
115: 0x03C0 [0x45] LOAD_SCHEDULED_TASK: Load scheduler "1709" with entities [LocalPlayer, LocalPlayer], work=[460*, 0*]
116: 0x03D1 [0xC5] LOAD_SCHEDULED_TASK_ALT3: Load scheduler 0x80153030 for entities [LocalPlayer, LocalPlayer], work=84*, param=12403
117: 0x03E2 [0x1C] WAIT(180* ticks)
118: 0x03E5 [0x52] END_LOAD_SCHEDULER: End scheduler "1709" with entities [LocalPlayer, LocalPlayer], work=460*
119: 0x03F4 [0x45] LOAD_SCHEDULED_TASK: Load scheduler "1700" with entities [LocalPlayer, LocalPlayer], work=[460*, 0*]
120: 0x0405 [0xC5] LOAD_SCHEDULED_TASK_ALT3: Load scheduler 0x80153130 for entities [LocalPlayer, LocalPlayer], work=84*, param=12403
121: 0x0416 [0x1C] WAIT(240* ticks)
122: 0x0419 [0x52] END_LOAD_SCHEDULER: End scheduler "1700" with entities [LocalPlayer, LocalPlayer], work=460*
123: 0x0428 [0x45] LOAD_SCHEDULED_TASK: Load scheduler "170a" with entities [LocalPlayer, LocalPlayer], work=[460*, 0*]
124: 0x0439 [0xC5] LOAD_SCHEDULED_TASK_ALT3: Load scheduler 0x80153230 for entities [LocalPlayer, LocalPlayer], work=84*, param=12403
125: 0x044A [0x1C] WAIT(240* ticks)
126: 0x044D [0x55] WAIT_LOAD_SCHEDULER: Wait for scheduler "170a" with entities [LocalPlayer, LocalPlayer], work=460*
127: 0x045C [0x45] LOAD_SCHEDULED_TASK: Load scheduler "170f" with entities [LocalPlayer, LocalPlayer], work=[460*, 0*]
128: 0x046D [0x1C] WAIT(120* ticks)
129: 0x0470 [0x52] END_LOAD_SCHEDULER: End scheduler "170f" with entities [LocalPlayer, LocalPlayer], work=460*
130: 0x047F [0x45] LOAD_SCHEDULED_TASK: Load scheduler "170g" with entities [LocalPlayer, LocalPlayer], work=[460*, 0*]
131: 0x0490 [0x1C] WAIT(180* ticks)
132: 0x0493 [0x52] END_LOAD_SCHEDULER: End scheduler "170g" with entities [LocalPlayer, LocalPlayer], work=460*
133: 0x04A2 [0x45] LOAD_SCHEDULED_TASK: Load scheduler "sg12" with entities [LocalPlayer, LocalPlayer], work=[460*, 0*]
134: 0x04B3 [0x1C] WAIT(150* ticks)
135: 0x04B6 [0x5B] LOAD_EXT_SCHEDULER: Load scheduler "dl00" with entities [Aldo (ID: 17805335/0x010FB017), Aldo (ID: 17805335/0x010FB017)], work=2607*
136: 0x04C5 [0x52] END_LOAD_SCHEDULER: End scheduler "sg12" with entities [LocalPlayer, LocalPlayer], work=460*
137: 0x04D4 [0x45] LOAD_SCHEDULED_TASK: Load scheduler "170i" with entities [LocalPlayer, LocalPlayer], work=[460*, 0*]
138: 0x04E5 [0x1C] WAIT(15* ticks)
139: 0x04E8 [0xBA] SET_ENTITY_POSITION(entity_id=Mathilde (ID: 17805334/0x010FB016), pos_x=-0.040*, pos_z=-0.054*, pos_y=-12.999*, direction=71.9°*)
140: 0x04F5 [0x2B] Aldo (ID: 17805335/0x010FB017) [7391*]:
    → "Emeline! Can you hear me!?"
141: 0x04FC [0x23] WAIT_FOR_DIALOG_INTERACTION
142: 0x04FD [0x52] END_LOAD_SCHEDULER: End scheduler "170i" with entities [LocalPlayer, LocalPlayer], work=460*
143: 0x050C [0x45] LOAD_SCHEDULED_TASK: Load scheduler "170j" with entities [LocalPlayer, LocalPlayer], work=[460*, 0*]
144: 0x051D [0x27] REQ_SET(priority=0x10, entity_id=Mathilde (ID: 17805334/0x010FB016), tag_num=0x05)
145: 0x0524 [0x1C] WAIT(60* ticks)
146: 0x0527 [0x7C] Mathilde (ID: 17805334/0x010FB016)->Render.Flags2 |= 0x00
147: 0x052D [0x2B] Mathilde (ID: 17805334/0x010FB016) [7392*]:
    → "What--? Where... Where am I...?"
148: 0x0534 [0x1C] WAIT(50* ticks)
149: 0x0537 [0x52] END_LOAD_SCHEDULER: End scheduler "170j" with entities [LocalPlayer, LocalPlayer], work=460*
150: 0x0546 [0x45] LOAD_SCHEDULED_TASK: Load scheduler "sg10" with entities [LocalPlayer, LocalPlayer], work=[460*, 0*]
151: 0x0557 [0x1C] WAIT(30* ticks)
152: 0x055A [0xC5] LOAD_SCHEDULED_TASK_ALT3: Load scheduler 0x80153170 for entities [LocalPlayer, LocalPlayer], work=84*, param=29811
153: 0x056B [0x1C] WAIT(120* ticks)
154: 0x056E [0x52] END_LOAD_SCHEDULER: End scheduler "sg10" with entities [LocalPlayer, LocalPlayer], work=460*
155: 0x057D [0x45] LOAD_SCHEDULED_TASK: Load scheduler "sg11" with entities [LocalPlayer, LocalPlayer], work=[460*, 0*]
156: 0x058E [0x1C] WAIT(30* ticks)
157: 0x0591 [0xC5] LOAD_SCHEDULED_TASK_ALT3: Load scheduler 0x80153270 for entities [LocalPlayer, LocalPlayer], work=84*, param=29811
158: 0x05A2 [0x1C] WAIT(120* ticks)
159: 0x05A5 [0x52] END_LOAD_SCHEDULER: End scheduler "sg11" with entities [LocalPlayer, LocalPlayer], work=460*
160: 0x05B4 [0x45] LOAD_SCHEDULED_TASK: Load scheduler "170l" with entities [LocalPlayer, LocalPlayer], work=[460*, 0*]
161: 0x05C5 [0xC5] LOAD_SCHEDULED_TASK_ALT3: Load scheduler 0x80153230 for entities [Mathilde (ID: 17805334/0x010FB016), Mathilde (ID: 17805334/0x010FB016)], work=83*, param=12403
162: 0x05D6 [0x45] LOAD_SCHEDULED_TASK: Load scheduler "shk0" with entities [Mathilde (ID: 17805334/0x010FB016), Mathilde (ID: 17805334/0x010FB016)], work=[460*, 0*]
163: 0x05E7 [0x5D] SET_MUSIC_VOLUME(volume=0*, fade_time=300*)
164: 0x05EC [0x1C] WAIT(60* ticks)
165: 0x05EF [0xC5] LOAD_SCHEDULED_TASK_ALT3: Load scheduler 0x80153070 for entities [LocalPlayer, LocalPlayer], work=84*, param=29811
166: 0x0600 [0x1C] WAIT(240* ticks)
167: 0x0603 [0x52] END_LOAD_SCHEDULER: End scheduler "170l" with entities [LocalPlayer, LocalPlayer], work=460*
168: 0x0612 [0x45] LOAD_SCHEDULED_TASK: Load scheduler "170m" with entities [LocalPlayer, LocalPlayer], work=[460*, 0*]
169: 0x0623 [0x1C] WAIT(30* ticks)
170: 0x0626 [0x7C] Mathilde (ID: 17805334/0x010FB016)->Render.Flags2 |= 0x01
171: 0x062C [0x2B] Mathilde (ID: 17805334/0x010FB016) [7393*]:
    → "Aldo...? Is that you...?"
172: 0x0633 [0x23] WAIT_FOR_DIALOG_INTERACTION
173: 0x0634 [0x52] END_LOAD_SCHEDULER: End scheduler "170m" with entities [LocalPlayer, LocalPlayer], work=460*
174: 0x0643 [0x45] LOAD_SCHEDULED_TASK: Load scheduler "170n" with entities [LocalPlayer, LocalPlayer], work=[460*, 0*]
175: 0x0654 [0xBA] SET_ENTITY_POSITION(entity_id=Unnamed NPC (ID: 17805338/0x010FB01A), pos_x=5.506*, pos_z=1.001*, pos_y=-15.170*, direction=162.9°*)
176: 0x0661 [0x1C] WAIT(180* ticks)
177: 0x0664 [0x52] END_LOAD_SCHEDULER: End scheduler "170n" with entities [LocalPlayer, LocalPlayer], work=460*
178: 0x0673 [0x45] LOAD_SCHEDULED_TASK: Load scheduler "170o" with entities [LocalPlayer, LocalPlayer], work=[460*, 0*]
179: 0x0684 [0x1C] WAIT(45* ticks)
180: 0x0687 [0x5B] LOAD_EXT_SCHEDULER: Load scheduler "dl01" with entities [Aldo (ID: 17805335/0x010FB017), Aldo (ID: 17805335/0x010FB017)], work=2607*
181: 0x0696 [0x1C] WAIT(15* ticks)
182: 0x0699 [0x2B] Aldo (ID: 17805335/0x010FB017) [7394*]:
    → "Emeline...could it truly be? After all these years..."
183: 0x06A0 [0x23] WAIT_FOR_DIALOG_INTERACTION
184: 0x06A1 [0x52] END_LOAD_SCHEDULER: End scheduler "170o" with entities [LocalPlayer, LocalPlayer], work=460*
185: 0x06B0 [0x45] LOAD_SCHEDULED_TASK: Load scheduler "170p" with entities [LocalPlayer, LocalPlayer], work=[460*, 0*]
186: 0x06C1 [0x27] REQ_SET(priority=0x10, entity_id=??? (ID: 17805337/0x010FB019), tag_num=0x0A)
187: 0x06C8 [0x1C] WAIT(60* ticks)
188: 0x06CB [0x2B] Mathilde (ID: 17805334/0x010FB016) [7395*]:
    → "Aldo... My...brother..."
189: 0x06D2 [0x23] WAIT_FOR_DIALOG_INTERACTION
190: 0x06D3 [0x52] END_LOAD_SCHEDULER: End scheduler "170p" with entities [LocalPlayer, LocalPlayer], work=460*
191: 0x06E2 [0x45] LOAD_SCHEDULED_TASK: Load scheduler "170q" with entities [LocalPlayer, LocalPlayer], work=[460*, 0*]
192: 0x06F3 [0x2B] Aldo (ID: 17805335/0x010FB017) [7396*]:
    → "No! Emeline!!!"
193: 0x06FA [0x27] REQ_SET(priority=0x10, entity_id=Aldo (ID: 17805335/0x010FB017), tag_num=0x1B)
194: 0x0701 [0x1C] WAIT(70* ticks)
195: 0x0704 [0x6C] FADE_ENTITY_COLOR(entity_id=Aldo (ID: 17805335/0x010FB017), end_alpha=0*, fade_time=1*)
196: 0x070D [0x6C] FADE_ENTITY_COLOR(entity_id=??? (ID: 17805337/0x010FB019), end_alpha=128*, fade_time=1*)
197: 0x0716 [0xBA] SET_ENTITY_POSITION(entity_id=Aldo (ID: 17805335/0x010FB017), pos_x=-0.266*, pos_z=0.581*, pos_y=-12.999*, direction=118.9°*)
198: 0x0723 [0x27] REQ_SET(priority=0x10, entity_id=Aldo (ID: 17805335/0x010FB017), tag_num=0x14)
199: 0x072A [0x52] END_LOAD_SCHEDULER: End scheduler "170q" with entities [LocalPlayer, LocalPlayer], work=460*
200: 0x0739 [0x45] LOAD_SCHEDULED_TASK: Load scheduler "170r" with entities [LocalPlayer, LocalPlayer], work=[460*, 0*]
201: 0x074A [0x27] REQ_SET(priority=0x10, entity_id=Mathilde (ID: 17805334/0x010FB016), tag_num=0x06)
202: 0x0751 [0x1C] WAIT(30* ticks)
203: 0x0754 [0x2B] Mathilde (ID: 17805334/0x010FB016) [7397*]:
    → "No...! Where are they taking me!? Aldo, help me!"
204: 0x075B [0x1C] WAIT(90* ticks)
205: 0x075E [0x52] END_LOAD_SCHEDULER: End scheduler "170r" with entities [LocalPlayer, LocalPlayer], work=460*
206: 0x076D [0x45] LOAD_SCHEDULED_TASK: Load scheduler "170s" with entities [LocalPlayer, LocalPlayer], work=[460*, 0*]
207: 0x077E [0x27] REQ_SET(priority=0x10, entity_id=Mathilde (ID: 17805334/0x010FB016), tag_num=0x07)
208: 0x0785 [0x5B] LOAD_EXT_SCHEDULER: Load scheduler "eme1" with entities [??? (ID: 17805337/0x010FB019), ??? (ID: 17805337/0x010FB019)], work=2616*
209: 0x0794 [0x03] Work_Zone[2] = 600*
210: 0x0799 [0x27] REQ_SET(priority=0x10, entity_id=Unnamed NPC (ID: 17805338/0x010FB01A), tag_num=0x02)
211: 0x07A0 [0x27] REQ_SET(priority=0x10, entity_id=??? (ID: 17805337/0x010FB019), tag_num=0x0B)
212: 0x07A7 [0x1C] WAIT(180* ticks)
213: 0x07AA [0x27] REQ_SET(priority=0x10, entity_id=??? (ID: 17805337/0x010FB019), tag_num=0x0C)
214: 0x07B1 [0x2A] GET_REQ_LEVEL(level=16, entity_id=Unnamed NPC (ID: 17805338/0x010FB01A))
215: 0x07B7 [0x1C] WAIT(120* ticks)
216: 0x07BA [0x1A] CALL_SUBROUTINE(address=0x1046)
217: 0x07BD [0x1C] WAIT(30* ticks)
218: 0x07C0 [0x52] END_LOAD_SCHEDULER: End scheduler "170s" with entities [LocalPlayer, LocalPlayer], work=460*
219: 0x07CF [0x6C] FADE_ENTITY_COLOR(entity_id=Aldo (ID: 17805335/0x010FB017), end_alpha=128*, fade_time=1*)
220: 0x07D8 [0x6C] FADE_ENTITY_COLOR(entity_id=??? (ID: 17805337/0x010FB019), end_alpha=0*, fade_time=1*)
221: 0x07E1 [0x27] REQ_SET(priority=0x10, entity_id=??? (ID: 17805337/0x010FB019), tag_num=0x04)
222: 0x07E8 [0x80] LOAD_WAIT(entity=??? (ID: 17805337/0x010FB019))
223: 0x07ED [0xBA] SET_ENTITY_POSITION(entity_id=LocalPlayer, pos_x=-1.596*, pos_z=-2.519*, pos_y=-12.999*, direction=292.1°*)
224: 0x07FA [0xBA] SET_ENTITY_POSITION(entity_id=Unnamed NPC (ID: 17805338/0x010FB01A), pos_x=5.506*, pos_z=1.001*, pos_y=-15.170*, direction=162.9°*)
225: 0x0807 [0x79] LocalPlayer looks at Aldo (ID: 17805335/0x010FB017) (Basic look)
226: 0x0811 [0x7B] Aldo (ID: 17805335/0x010FB017) stops talking
227: 0x0816 [0x1C] WAIT(30* ticks)
228: 0x0819 [0x48] [System] [7198*]:
    → ""
229: 0x081C [0x23] WAIT_FOR_DIALOG_INTERACTION
230: 0x081D [0x45] LOAD_SCHEDULED_TASK: Load scheduler "170t" with entities [LocalPlayer, LocalPlayer], work=[460*, 0*]
231: 0x082E [0x1A] CALL_SUBROUTINE(address=0x1025)
232: 0x0831 [0x1C] WAIT(120* ticks)
233: 0x0834 [0x52] END_LOAD_SCHEDULER: End scheduler "170t" with entities [LocalPlayer, LocalPlayer], work=460*
234: 0x0843 [0x45] LOAD_SCHEDULED_TASK: Load scheduler "ag01" with entities [LocalPlayer, LocalPlayer], work=[460*, 0*]
235: 0x0854 [0x27] REQ_SET(priority=0x10, entity_id=Aldo (ID: 17805335/0x010FB017), tag_num=0x0E)
236: 0x085B [0x1C] WAIT(60* ticks)
237: 0x085E [0x7C] Aldo (ID: 17805335/0x010FB017)->Render.Flags2 |= 0x00
238: 0x0864 [0x2B] Aldo (ID: 17805335/0x010FB017) [7398*]:
    → "(Curses! No...I won't let them take you from me again!)"
239: 0x086B [0x23] WAIT_FOR_DIALOG_INTERACTION
240: 0x086C [0x7B] LocalPlayer stops talking
241: 0x0871 [0x2B] ??? (ID: 17805337/0x010FB019) [7399*]:
    → "It's no use, Uncle...where she is now, no words can reach her. Mother's dreaming, you see."
242: 0x0878 [0x23] WAIT_FOR_DIALOG_INTERACTION
243: 0x0879 [0x59] UPDATE_ENTITY_DATA: Set LocalPlayer turn speed head = 200*
244: 0x0881 [0x4A] LocalPlayer looks at Young Aldo (ID: 17805336/0x010FB018)
245: 0x088A [0x52] END_LOAD_SCHEDULER: End scheduler "ag01" with entities [LocalPlayer, LocalPlayer], work=460*
246: 0x0899 [0x45] LOAD_SCHEDULED_TASK: Load scheduler "ag11" with entities [LocalPlayer, LocalPlayer], work=[460*, 0*]
247: 0x08AA [0x1C] WAIT(30* ticks)
248: 0x08AD [0x27] REQ_SET(priority=0x10, entity_id=??? (ID: 17805337/0x010FB019), tag_num=0x0D)
249: 0x08B4 [0x45] LOAD_SCHEDULED_TASK: Load scheduler "de00" with entities [Young Aldo (ID: 17805336/0x010FB018), Young Aldo (ID: 17805336/0x010FB018)], work=[460*, 0*]
250: 0x08C5 [0x1C] WAIT(120* ticks)
251: 0x08C8 [0x27] REQ_SET(priority=0x10, entity_id=Aldo (ID: 17805335/0x010FB017), tag_num=0x0F)
252: 0x08CF [0x27] REQ_SET(priority=0x10, entity_id=Young Aldo (ID: 17805336/0x010FB018), tag_num=0x03)
253: 0x08D6 [0x1C] WAIT(240* ticks)
254: 0x08D9 [0x52] END_LOAD_SCHEDULER: End scheduler "ag11" with entities [LocalPlayer, LocalPlayer], work=460*
255: 0x08E8 [0x45] LOAD_SCHEDULED_TASK: Load scheduler "ag02" with entities [LocalPlayer, LocalPlayer], work=[460*, 0*]
256: 0x08F9 [0x27] REQ_SET(priority=0x10, entity_id=Young Aldo (ID: 17805336/0x010FB018), tag_num=0x04)
257: 0x0900 [0x1C] WAIT(120* ticks)
258: 0x0903 [0x2B] Young Aldo (ID: 17805336/0x010FB018) [7400*]:
    → "Lost in a waking dream...just like me."
259: 0x090A [0x23] WAIT_FOR_DIALOG_INTERACTION
260: 0x090B [0x1A] CALL_SUBROUTINE(address=0x1046)
261: 0x090E [0x1C] WAIT(30* ticks)
262: 0x0911 [0x27] REQ_SET(priority=0x10, entity_id=??? (ID: 17805337/0x010FB019), tag_num=0x05)
263: 0x0918 [0x59] UPDATE_ENTITY_DATA: ??? (ID: 17805337/0x010FB019)->Render.Flags0 |= 0x200000
264: 0x091F [0xBA] SET_ENTITY_POSITION(entity_id=??? (ID: 17805337/0x010FB019), pos_x=48.320*, pos_z=-17.113*, pos_y=-48.255*, direction=175.8°*)
265: 0x092C [0x80] LOAD_WAIT(entity=??? (ID: 17805337/0x010FB019))
266: 0x0931 [0x1C] WAIT(15* ticks)
267: 0x0934 [0x81] SET_ENTITY_BLINKING(blink_flag=0x00, entity=??? (ID: 17805337/0x010FB019))
268: 0x093A [0x5B] LOAD_EXT_SCHEDULER: Load scheduler "hyl2" with entities [??? (ID: 17805337/0x010FB019), ??? (ID: 17805337/0x010FB019)], work=2574*
269: 0x0949 [0x6C] FADE_ENTITY_COLOR(entity_id=??? (ID: 17805337/0x010FB019), end_alpha=50*, fade_time=1*)
270: 0x0952 [0x59] UPDATE_ENTITY_DATA: Young Aldo (ID: 17805336/0x010FB018)->Render.Flags0 |= 0x200000
271: 0x0959 [0xBA] SET_ENTITY_POSITION(entity_id=Young Aldo (ID: 17805336/0x010FB018), pos_x=48.320*, pos_z=-17.113*, pos_y=-48.255*, direction=175.8°*)
272: 0x0966 [0x6C] FADE_ENTITY_COLOR(entity_id=Young Aldo (ID: 17805336/0x010FB018), end_alpha=0*, fade_time=1*)
273: 0x096F [0x6C] FADE_ENTITY_COLOR(entity_id=Mathilde (ID: 17805334/0x010FB016), end_alpha=50*, fade_time=1*)
274: 0x0978 [0x59] UPDATE_ENTITY_DATA: Mathilde (ID: 17805334/0x010FB016)->Render.Flags0 |= 0x200000
275: 0x097F [0xBA] SET_ENTITY_POSITION(entity_id=Mathilde (ID: 17805334/0x010FB016), pos_x=48.320*, pos_z=-17.113*, pos_y=-47.755*, direction=355.8°*)
276: 0x098C [0x5B] LOAD_EXT_SCHEDULER: Load scheduler "zzz0" with entities [Mathilde (ID: 17805334/0x010FB016), Mathilde (ID: 17805334/0x010FB016)], work=2617*
277: 0x099B [0x81] SET_ENTITY_BLINKING(blink_flag=0x00, entity=Young Aldo (ID: 17805336/0x010FB018))
278: 0x09A1 [0x81] SET_ENTITY_BLINKING(blink_flag=0x00, entity=Mathilde (ID: 17805334/0x010FB016))
279: 0x09A7 [0x7C] Young Aldo (ID: 17805336/0x010FB018)->Render.Flags2 |= 0x00
280: 0x09AD [0x1C] WAIT(30* ticks)
281: 0x09B0 [0x5C] MUSIC_CONTROL: Set Idle (Day) music to song 206*
282: 0x09B4 [0x5C] MUSIC_CONTROL: Set Idle (Night) music to song 206*
283: 0x09B8 [0x9A] WAIT_MUSIC_SERVER()
284: 0x09B9 [0x48] [System] [7198*]:
    → ""
285: 0x09BC [0x23] WAIT_FOR_DIALOG_INTERACTION
286: 0x09BD [0x52] END_LOAD_SCHEDULER: End scheduler "ag02" with entities [LocalPlayer, LocalPlayer], work=460*
287: 0x09CC [0x45] LOAD_SCHEDULED_TASK: Load scheduler "ag03" with entities [LocalPlayer, LocalPlayer], work=[460*, 0*]
288: 0x09DD [0x1A] CALL_SUBROUTINE(address=0x1025)
289: 0x09E0 [0x1C] WAIT(180* ticks)
290: 0x09E3 [0x2B] Young Aldo (ID: 17805336/0x010FB018) [7401*]:
    → "Deep in slumber, freed from the restraints of my physical body... It is here that the voice of the Seed Crystal speaks to me."
291: 0x09EA [0x23] WAIT_FOR_DIALOG_INTERACTION
292: 0x09EB [0x52] END_LOAD_SCHEDULER: End scheduler "ag03" with entities [LocalPlayer, LocalPlayer], work=460*
293: 0x09FA [0x45] LOAD_SCHEDULED_TASK: Load scheduler "ag08" with entities [LocalPlayer, LocalPlayer], work=[460*, 0*]
294: 0x0A0B [0x6C] FADE_ENTITY_COLOR(entity_id=Mathilde (ID: 17805334/0x010FB016), end_alpha=0*, fade_time=1*)
295: 0x0A14 [0x27] REQ_SET(priority=0x10, entity_id=??? (ID: 17805337/0x010FB019), tag_num=0x0F)
296: 0x0A1B [0x27] REQ_SET(priority=0x10, entity_id=Young Aldo (ID: 17805336/0x010FB018), tag_num=0x13)
297: 0x0A22 [0x7B] Young Aldo (ID: 17805336/0x010FB018) stops talking
298: 0x0A27 [0x27] REQ_SET(priority=0x10, entity_id=Young Aldo (ID: 17805336/0x010FB018), tag_num=0x06)
299: 0x0A2E [0x1C] WAIT(180* ticks)
300: 0x0A31 [0x27] REQ_SET(priority=0x10, entity_id=Young Aldo (ID: 17805336/0x010FB018), tag_num=0x07)
301: 0x0A38 [0x81] SET_ENTITY_BLINKING(blink_flag=0x01, entity=Young Aldo (ID: 17805336/0x010FB018))
302: 0x0A3E [0x1C] WAIT(60* ticks)
303: 0x0A41 [0x2B] Young Aldo (ID: 17805336/0x010FB018) [7402*]:
    → "I awaken, only to remember nothing."
304: 0x0A48 [0x23] WAIT_FOR_DIALOG_INTERACTION
305: 0x0A49 [0x1A] CALL_SUBROUTINE(address=0x1046)
306: 0x0A4C [0x1C] WAIT(30* ticks)
307: 0x0A4F [0x52] END_LOAD_SCHEDULER: End scheduler "ag08" with entities [LocalPlayer, LocalPlayer], work=460*
308: 0x0A5E [0x59] UPDATE_ENTITY_DATA: Young Aldo (ID: 17805336/0x010FB018)->Render.Flags0 &= ~0x200000
309: 0x0A65 [0xBA] SET_ENTITY_POSITION(entity_id=Young Aldo (ID: 17805336/0x010FB018), pos_x=-0.025*, pos_z=-6.301*, pos_y=-13.128*, direction=270.0°*)
310: 0x0A72 [0x7B] Young Aldo (ID: 17805336/0x010FB018) stops talking
311: 0x0A77 [0x6C] FADE_ENTITY_COLOR(entity_id=Young Aldo (ID: 17805336/0x010FB018), end_alpha=128*, fade_time=1*)
312: 0x0A80 [0x6C] FADE_ENTITY_COLOR(entity_id=Mathilde (ID: 17805334/0x010FB016), end_alpha=50*, fade_time=1*)
313: 0x0A89 [0x27] REQ_SET(priority=0x10, entity_id=Young Aldo (ID: 17805336/0x010FB018), tag_num=0x04)
314: 0x0A90 [0x27] REQ_SET(priority=0x10, entity_id=Aldo (ID: 17805335/0x010FB017), tag_num=0x0E)
315: 0x0A97 [0x27] REQ_SET(priority=0x10, entity_id=??? (ID: 17805337/0x010FB019), tag_num=0x03)
316: 0x0A9E [0xBA] SET_ENTITY_POSITION(entity_id=??? (ID: 17805337/0x010FB019), pos_x=-0.266*, pos_z=0.581*, pos_y=-12.999*, direction=118.9°*)
317: 0x0AAB [0x80] LOAD_WAIT(entity=??? (ID: 17805337/0x010FB019))
318: 0x0AB0 [0x1C] WAIT(15* ticks)
319: 0x0AB3 [0x81] SET_ENTITY_BLINKING(blink_flag=0x01, entity=??? (ID: 17805337/0x010FB019))
320: 0x0AB9 [0x27] REQ_SET(priority=0x10, entity_id=??? (ID: 17805337/0x010FB019), tag_num=0x08)
321: 0x0AC0 [0x6C] FADE_ENTITY_COLOR(entity_id=??? (ID: 17805337/0x010FB019), end_alpha=0*, fade_time=1*)
322: 0x0AC9 [0x1C] WAIT(30* ticks)
323: 0x0ACC [0x45] LOAD_SCHEDULED_TASK: Load scheduler "ag09" with entities [LocalPlayer, LocalPlayer], work=[460*, 0*]
324: 0x0ADD [0x1A] CALL_SUBROUTINE(address=0x1025)
325: 0x0AE0 [0x1C] WAIT(120* ticks)
326: 0x0AE3 [0x7C] Young Aldo (ID: 17805336/0x010FB018)->Render.Flags2 |= 0x01
327: 0x0AE9 [0x2B] Young Aldo (ID: 17805336/0x010FB018) [7403*]:
    → "It's the same for mother, you see. Only in her dreams does she remember a past too frightening, too painful to face with waking eyes."
328: 0x0AF0 [0x23] WAIT_FOR_DIALOG_INTERACTION
329: 0x0AF1 [0x52] END_LOAD_SCHEDULER: End scheduler "ag09" with entities [LocalPlayer, LocalPlayer], work=460*
330: 0x0B00 [0x45] LOAD_SCHEDULED_TASK: Load scheduler "ag19" with entities [LocalPlayer, LocalPlayer], work=[460*, 0*]
331: 0x0B11 [0x1C] WAIT(120* ticks)
332: 0x0B14 [0x2B] Young Aldo (ID: 17805336/0x010FB018) [7404*]:
    → "Only in her dreams does she remember you, Uncle Aldo."
333: 0x0B1B [0x23] WAIT_FOR_DIALOG_INTERACTION
334: 0x0B1C [0x52] END_LOAD_SCHEDULER: End scheduler "ag19" with entities [LocalPlayer, LocalPlayer], work=460*
335: 0x0B2B [0x45] LOAD_SCHEDULED_TASK: Load scheduler "ag00" with entities [LocalPlayer, LocalPlayer], work=[460*, 0*]
336: 0x0B3C [0x5D] SET_MUSIC_VOLUME(volume=0*, fade_time=600*)
337: 0x0B41 [0x1C] WAIT(150* ticks)
338: 0x0B44 [0x27] REQ_SET(priority=0x10, entity_id=Young Aldo (ID: 17805336/0x010FB018), tag_num=0x08)
339: 0x0B4B [0x1C] WAIT(60* ticks)
340: 0x0B4E [0x2B] Young Aldo (ID: 17805336/0x010FB018) [7405*]:
    → "Knowing this, would you open her eyes to the light of the world once more?"
341: 0x0B55 [0x23] WAIT_FOR_DIALOG_INTERACTION
342: 0x0B56 [0x52] END_LOAD_SCHEDULER: End scheduler "ag00" with entities [LocalPlayer, LocalPlayer], work=460*
343: 0x0B65 [0x45] LOAD_SCHEDULED_TASK: Load scheduler "ag0a" with entities [LocalPlayer, LocalPlayer], work=[460*, 0*]
344: 0x0B76 [0x1C] WAIT(45* ticks)
345: 0x0B79 [0x29] REQ_SET_WAIT(priority=0x10, entity_id=Aldo (ID: 17805335/0x010FB017), tag_num=0x24)
346: 0x0B80 [0x80] LOAD_WAIT(entity=Aldo (ID: 17805335/0x010FB017))
347: 0x0B85 [0x1C] WAIT(15* ticks)
348: 0x0B88 [0x5B] LOAD_EXT_SCHEDULER: Load scheduler "dfa0" with entities [Aldo (ID: 17805335/0x010FB017), Aldo (ID: 17805335/0x010FB017)], work=2605*
349: 0x0B97 [0x2B] Young Aldo (ID: 17805336/0x010FB018) [7406*]:
    → "The choice belongs to you alone, Uncle."
350: 0x0B9E [0x23] WAIT_FOR_DIALOG_INTERACTION
351: 0x0B9F [0x5B] LOAD_EXT_SCHEDULER: Load scheduler "dfa1" with entities [Aldo (ID: 17805335/0x010FB017), Aldo (ID: 17805335/0x010FB017)], work=2605*
352: 0x0BAE [0x1C] WAIT(20* ticks)
353: 0x0BB1 [0x52] END_LOAD_SCHEDULER: End scheduler "ag0a" with entities [LocalPlayer, LocalPlayer], work=460*
354: 0x0BC0 [0x45] LOAD_SCHEDULED_TASK: Load scheduler "ag0b" with entities [LocalPlayer, LocalPlayer], work=[460*, 0*]
355: 0x0BD1 [0x1C] WAIT(90* ticks)
356: 0x0BD4 [0xBA] SET_ENTITY_POSITION(entity_id=Young Aldo (ID: 17805336/0x010FB018), pos_x=-0.025*, pos_z=-6.301*, pos_y=-13.128*, direction=256.2°*)
357: 0x0BE1 [0x1C] WAIT(30* ticks)
358: 0x0BE4 [0x52] END_LOAD_SCHEDULER: End scheduler "ag0b" with entities [LocalPlayer, LocalPlayer], work=460*
359: 0x0BF3 [0x45] LOAD_SCHEDULED_TASK: Load scheduler "ag0c" with entities [LocalPlayer, LocalPlayer], work=[460*, 0*]
360: 0x0C04 [0x1C] WAIT(60* ticks)
361: 0x0C07 [0x27] REQ_SET(priority=0x10, entity_id=Aldo (ID: 17805335/0x010FB017), tag_num=0x1F)
362: 0x0C0E [0x4A] LocalPlayer looks at Young Aldo (ID: 17805336/0x010FB018)
363: 0x0C17 [0x2B] Young Aldo (ID: 17805336/0x010FB018) [7407*]:
    → "And the power to save this world from destruction is yours, <Player>."
364: 0x0C1E [0x23] WAIT_FOR_DIALOG_INTERACTION
365: 0x0C1F [0x52] END_LOAD_SCHEDULER: End scheduler "ag0c" with entities [LocalPlayer, LocalPlayer], work=460*
366: 0x0C2E [0x29] REQ_SET_WAIT(priority=0x10, entity_id=LocalPlayer, tag_num=0x16)
367: 0x0C35 [0x02] IF !(Work_Zone[2] == 1*) GOTO 0x0C51
368: 0x0C3D [0x45] LOAD_SCHEDULED_TASK: Load scheduler "aghm" with entities [LocalPlayer, LocalPlayer], work=[460*, 0*]
369: 0x0C4E [0x01] GOTO 0x0D15
370: 0x0C51 [0x02] IF !(Work_Zone[2] == 2*) GOTO 0x0C6D
371: 0x0C59 [0x45] LOAD_SCHEDULED_TASK: Load scheduler "aghf" with entities [LocalPlayer, LocalPlayer], work=[460*, 0*]
372: 0x0C6A [0x01] GOTO 0x0D15
373: 0x0C6D [0x02] IF !(Work_Zone[2] == 3*) GOTO 0x0C89
374: 0x0C75 [0x45] LOAD_SCHEDULED_TASK: Load scheduler "agem" with entities [LocalPlayer, LocalPlayer], work=[460*, 0*]
375: 0x0C86 [0x01] GOTO 0x0D15
376: 0x0C89 [0x02] IF !(Work_Zone[2] == 4*) GOTO 0x0CA5
377: 0x0C91 [0x45] LOAD_SCHEDULED_TASK: Load scheduler "agef" with entities [LocalPlayer, LocalPlayer], work=[460*, 0*]
378: 0x0CA2 [0x01] GOTO 0x0D15
379: 0x0CA5 [0x02] IF !(Work_Zone[2] == 5*) GOTO 0x0CC1
380: 0x0CAD [0x45] LOAD_SCHEDULED_TASK: Load scheduler "ag1d" with entities [LocalPlayer, LocalPlayer], work=[460*, 0*]
381: 0x0CBE [0x01] GOTO 0x0D15
382: 0x0CC1 [0x02] IF !(Work_Zone[2] == 6*) GOTO 0x0CDD
383: 0x0CC9 [0x45] LOAD_SCHEDULED_TASK: Load scheduler "ag1d" with entities [LocalPlayer, LocalPlayer], work=[460*, 0*]
384: 0x0CDA [0x01] GOTO 0x0D15
385: 0x0CDD [0x02] IF !(Work_Zone[2] == 7*) GOTO 0x0CF9
386: 0x0CE5 [0x45] LOAD_SCHEDULED_TASK: Load scheduler "ag2d" with entities [LocalPlayer, LocalPlayer], work=[460*, 0*]
387: 0x0CF6 [0x01] GOTO 0x0D15
388: 0x0CF9 [0x02] IF !(Work_Zone[2] == 8*) GOTO 0x0D15
389: 0x0D01 [0x45] LOAD_SCHEDULED_TASK: Load scheduler "ag3d" with entities [LocalPlayer, LocalPlayer], work=[460*, 0*]
390: 0x0D12 [0x01] GOTO 0x0D15

SUBROUTINE_0D15:
391: 0x0D15 [0x1C] WAIT(60* ticks)
392: 0x0D18 [0x2B] Young Aldo (ID: 17805336/0x010FB018) [7408*]:
    → "You, and all living beings on Vana'diel. It is your will to live--your deep love for the world you call home--that is the key. Only you can instill the antiphon with the strength to counteract the echo..."
393: 0x0D1F [0x23] WAIT_FOR_DIALOG_INTERACTION
394: 0x0D20 [0x5C] MUSIC_CONTROL: Set Idle (Day) music to song 200*
395: 0x0D24 [0x5C] MUSIC_CONTROL: Set Idle (Night) music to song 200*
396: 0x0D28 [0x9A] WAIT_MUSIC_SERVER()
397: 0x0D29 [0x52] END_LOAD_SCHEDULER: End scheduler "aghm" with entities [LocalPlayer, LocalPlayer], work=460*
398: 0x0D38 [0x52] END_LOAD_SCHEDULER: End scheduler "aghf" with entities [LocalPlayer, LocalPlayer], work=460*
399: 0x0D47 [0x52] END_LOAD_SCHEDULER: End scheduler "agem" with entities [LocalPlayer, LocalPlayer], work=460*
400: 0x0D56 [0x52] END_LOAD_SCHEDULER: End scheduler "agef" with entities [LocalPlayer, LocalPlayer], work=460*
401: 0x0D65 [0x52] END_LOAD_SCHEDULER: End scheduler "ag1d" with entities [LocalPlayer, LocalPlayer], work=460*
402: 0x0D74 [0x52] END_LOAD_SCHEDULER: End scheduler "ag2d" with entities [LocalPlayer, LocalPlayer], work=460*
403: 0x0D83 [0x52] END_LOAD_SCHEDULER: End scheduler "ag3d" with entities [LocalPlayer, LocalPlayer], work=460*
404: 0x0D92 [0x45] LOAD_SCHEDULED_TASK: Load scheduler "ag0e" with entities [LocalPlayer, LocalPlayer], work=[460*, 0*]
405: 0x0DA3 [0x1C] WAIT(90* ticks)
406: 0x0DA6 [0x27] REQ_SET(priority=0x10, entity_id=Young Aldo (ID: 17805336/0x010FB018), tag_num=0x0C)
407: 0x0DAD [0x1C] WAIT(60* ticks)
408: 0x0DB0 [0x52] END_LOAD_SCHEDULER: End scheduler "ag0e" with entities [LocalPlayer, LocalPlayer], work=460*
409: 0x0DBF [0x45] LOAD_SCHEDULED_TASK: Load scheduler "ag1e" with entities [LocalPlayer, LocalPlayer], work=[460*, 0*]
410: 0x0DD0 [0x1C] WAIT(30* ticks)
411: 0x0DD3 [0x2B] Young Aldo (ID: 17805336/0x010FB018) [7409*]:
    → "So what will your choice be, Uncle Aldo? <Player>?"
412: 0x0DDA [0x23] WAIT_FOR_DIALOG_INTERACTION
413: 0x0DDB [0x52] END_LOAD_SCHEDULER: End scheduler "ag1e" with entities [LocalPlayer, LocalPlayer], work=460*
414: 0x0DEA [0x45] LOAD_SCHEDULED_TASK: Load scheduler "ag0f" with entities [LocalPlayer, LocalPlayer], work=[460*, 0*]
415: 0x0DFB [0x1C] WAIT(120* ticks)
416: 0x0DFE [0x6B] STOP_AND_IDLE: Young Aldo (ID: 17805336/0x010FB018) stops current action and resets to idle (animation="idl0")
417: 0x0E07 [0x2B] Young Aldo (ID: 17805336/0x010FB018) [7410*]:
    → "Will you silence the echo to save this world from destruction? Even knowing it would mean death for the sister you knew, will you do what must be done?"
418: 0x0E0E [0x23] WAIT_FOR_DIALOG_INTERACTION
419: 0x0E0F [0x81] SET_ENTITY_BLINKING(blink_flag=0x00, entity=Young Aldo (ID: 17805336/0x010FB018))
420: 0x0E15 [0x27] REQ_SET(priority=0x10, entity_id=Young Aldo (ID: 17805336/0x010FB018), tag_num=0x0E)
421: 0x0E1C [0x03] Work_Zone[2] = 250*
422: 0x0E21 [0x27] REQ_SET(priority=0x10, entity_id=Unnamed NPC (ID: 17805338/0x010FB01A), tag_num=0x02)
423: 0x0E28 [0x1C] WAIT(30* ticks)
424: 0x0E2B [0x52] END_LOAD_SCHEDULER: End scheduler "ag0f" with entities [LocalPlayer, LocalPlayer], work=460*
425: 0x0E3A [0x45] LOAD_SCHEDULED_TASK: Load scheduler "ag0g" with entities [LocalPlayer, LocalPlayer], work=[460*, 0*]
426: 0x0E4B [0x1C] WAIT(120* ticks)
427: 0x0E4E [0x2B] Young Aldo (ID: 17805336/0x010FB018) [7411*]:
    → "If you have the courage to answer, make way for the Stellar Fulcrum at the peak of Delkfutt's Tower."
428: 0x0E55 [0x23] WAIT_FOR_DIALOG_INTERACTION
429: 0x0E56 [0x2A] GET_REQ_LEVEL(level=16, entity_id=Unnamed NPC (ID: 17805338/0x010FB01A))
430: 0x0E5C [0x52] END_LOAD_SCHEDULER: End scheduler "ag0g" with entities [LocalPlayer, LocalPlayer], work=460*
431: 0x0E6B [0x45] LOAD_SCHEDULED_TASK: Load scheduler "ag0h" with entities [LocalPlayer, LocalPlayer], work=[460*, 0*]
432: 0x0E7C [0x1C] WAIT(60* ticks)
433: 0x0E7F [0x27] REQ_SET(priority=0x10, entity_id=??? (ID: 17805337/0x010FB019), tag_num=0x0E)
434: 0x0E86 [0x45] LOAD_SCHEDULED_TASK: Load scheduler "kie0" with entities [Young Aldo (ID: 17805336/0x010FB018), Young Aldo (ID: 17805336/0x010FB018)], work=[460*, 0*]
435: 0x0E97 [0x1C] WAIT(60* ticks)
436: 0x0E9A [0x27] REQ_SET(priority=0x10, entity_id=Aldo (ID: 17805335/0x010FB017), tag_num=0x11)
437: 0x0EA1 [0x1C] WAIT(120* ticks)
438: 0x0EA4 [0x59] UPDATE_ENTITY_DATA: Young Aldo (ID: 17805336/0x010FB018)->Render.Flags0 |= 0x200000
439: 0x0EAB [0xBA] SET_ENTITY_POSITION(entity_id=Young Aldo (ID: 17805336/0x010FB018), pos_x=-0.025*, pos_z=-6.301*, pos_y=-14.300*, direction=270.0°*)
440: 0x0EB8 [0x27] REQ_SET(priority=0x10, entity_id=Young Aldo (ID: 17805336/0x010FB018), tag_num=0x02)
441: 0x0EBF [0x1C] WAIT(30* ticks)
442: 0x0EC2 [0x52] END_LOAD_SCHEDULER: End scheduler "ag0h" with entities [LocalPlayer, LocalPlayer], work=460*
443: 0x0ED1 [0x45] LOAD_SCHEDULED_TASK: Load scheduler "ag0l" with entities [LocalPlayer, LocalPlayer], work=[460*, 0*]
444: 0x0EE2 [0x1C] WAIT(60* ticks)
445: 0x0EE5 [0x6C] FADE_ENTITY_COLOR(entity_id=Young Aldo (ID: 17805336/0x010FB018), end_alpha=128*, fade_time=1*)
446: 0x0EEE [0x2B] Young Aldo (ID: 17805336/0x010FB018) [7412*]:
    → "We'll be waiting for you there."
447: 0x0EF5 [0x23] WAIT_FOR_DIALOG_INTERACTION
448: 0x0EF6 [0x79] Aldo (ID: 17805335/0x010FB017) looks at Young Aldo (ID: 17805336/0x010FB018) (Basic look)
449: 0x0F00 [0x1C] WAIT(30* ticks)
450: 0x0F03 [0x52] END_LOAD_SCHEDULER: End scheduler "ag0l" with entities [LocalPlayer, LocalPlayer], work=460*
451: 0x0F12 [0x45] LOAD_SCHEDULED_TASK: Load scheduler "ag0n" with entities [LocalPlayer, LocalPlayer], work=[460*, 0*]
452: 0x0F23 [0x1C] WAIT(120* ticks)
453: 0x0F26 [0x27] REQ_SET(priority=0x10, entity_id=??? (ID: 17805337/0x010FB019), tag_num=0x0E)
454: 0x0F2D [0x45] LOAD_SCHEDULED_TASK: Load scheduler "kie0" with entities [Young Aldo (ID: 17805336/0x010FB018), Young Aldo (ID: 17805336/0x010FB018)], work=[460*, 0*]
455: 0x0F3E [0x5D] SET_MUSIC_VOLUME(volume=0*, fade_time=300*)
456: 0x0F43 [0x1C] WAIT(60* ticks)
457: 0x0F46 [0x2B] Young Aldo (ID: 17805336/0x010FB018) [7413*]:
    → "Perhaps...we're all just living inside the crystal's dream."
458: 0x0F4D [0x23] WAIT_FOR_DIALOG_INTERACTION
459: 0x0F4E [0x52] END_LOAD_SCHEDULER: End scheduler "ag0n" with entities [LocalPlayer, LocalPlayer], work=460*
460: 0x0F5D [0x45] LOAD_SCHEDULED_TASK: Load scheduler "ag0o" with entities [LocalPlayer, LocalPlayer], work=[460*, 0*]
461: 0x0F6E [0x1C] WAIT(60* ticks)
462: 0x0F71 [0x7C] Aldo (ID: 17805335/0x010FB017)->Render.Flags2 |= 0x00
463: 0x0F77 [0x2B] Aldo (ID: 17805335/0x010FB017) [7414*]:
    → "(Emeline...)"
464: 0x0F7E [0x1C] WAIT(240* ticks)
465: 0x0F81 [0x1A] CALL_SUBROUTINE(address=0x1046)
466: 0x0F84 [0x1C] WAIT(30* ticks)
467: 0x0F87 [0x52] END_LOAD_SCHEDULER: End scheduler "ag0o" with entities [LocalPlayer, LocalPlayer], work=460*
468: 0x0F96 [0x45] LOAD_SCHEDULED_TASK: Load scheduler "00bf" with entities [LocalPlayer, LocalPlayer], work=[460*, 0*]
469: 0x0FA7 [0x4E] SET_ENTITY_HIDE_FLAG: Hide Young Aldo (ID: 17805336/0x010FB018)
470: 0x0FAD [0x4E] SET_ENTITY_HIDE_FLAG: Hide Aldo (ID: 17805335/0x010FB017)
471: 0x0FB3 [0x4E] SET_ENTITY_HIDE_FLAG: Hide Mathilde (ID: 17805334/0x010FB016)
472: 0x0FB9 [0x4E] SET_ENTITY_HIDE_FLAG: Hide ??? (ID: 17805337/0x010FB019)
473: 0x0FBF [0x4E] SET_ENTITY_HIDE_FLAG: Hide Unnamed NPC (ID: 17805338/0x010FB01A)
474: 0x0FC5 [0x5C] MUSIC_CONTROL: Set Idle (Day) music to song 213*
475: 0x0FC9 [0x5C] MUSIC_CONTROL: Set Idle (Night) music to song 213*
476: 0x0FCD [0x9A] WAIT_MUSIC_SERVER()
477: 0x0FCE [0x46] CAMERA_CONTROL: Restore default settings
478: 0x0FD0 [0x45] LOAD_SCHEDULED_TASK: Load scheduler "fdi2" with entities [LocalPlayer, LocalPlayer], work=[200*, 0*]
479: 0x0FE1 [0x21] END_EVENT
480: 0x0FE2 [0x00] END_REQSTACK()

SUBROUTINE_1025:
481: 0x1025 [0x45] LOAD_SCHEDULED_TASK: Load scheduler "fdi1" with entities [LocalPlayer, LocalPlayer], work=[200*, 0*]
482: 0x1036 [0x55] WAIT_LOAD_SCHEDULER: Wait for scheduler "fdi1" with entities [LocalPlayer, LocalPlayer], work=200*
483: 0x1045 [0x1B] RETURN

SUBROUTINE_1046:
484: 0x1046 [0x45] LOAD_SCHEDULED_TASK: Load scheduler "fdo1" with entities [LocalPlayer, LocalPlayer], work=[200*, 0*]
485: 0x1057 [0x55] WAIT_LOAD_SCHEDULER: Wait for scheduler "fdo1" with entities [LocalPlayer, LocalPlayer], work=200*
486: 0x1066 [0x1B] RETURN
```

#### Data or dead code:

```
# Dead code (unreachable instructions):
     0x0FE3 [0x45] LOAD_SCHEDULED_TASK: Load scheduler "fdi0" with entities [LocalPlayer, LocalPlayer], work=[200*, 0*]
     0x0FF4 [0x55] WAIT_LOAD_SCHEDULER: Wait for scheduler "fdi0" with entities [LocalPlayer, LocalPlayer], work=200*
     0x1003 [0x1B] RETURN
     0x1004 [0x45] LOAD_SCHEDULED_TASK: Load scheduler "fdo0" with entities [LocalPlayer, LocalPlayer], work=[200*, 0*]
     0x1015 [0x55] WAIT_LOAD_SCHEDULER: Wait for scheduler "fdo0" with entities [LocalPlayer, LocalPlayer], work=200*
     0x1024 [0x1B] RETURN
# Dead code (unreachable instructions):
     0x1067 [0x45] LOAD_SCHEDULED_TASK: Load scheduler "whi1" with entities [LocalPlayer, LocalPlayer], work=[201*, 0*]
     0x1078 [0x55] WAIT_LOAD_SCHEDULER: Wait for scheduler "whi1" with entities [LocalPlayer, LocalPlayer], work=201*
     0x1087 [0x1B] RETURN
     0x1088 [0x45] LOAD_SCHEDULED_TASK: Load scheduler "who1" with entities [LocalPlayer, LocalPlayer], work=[201*, 0*]
     0x1099 [0x55] WAIT_LOAD_SCHEDULER: Wait for scheduler "who1" with entities [LocalPlayer, LocalPlayer], work=201*
     0x10A8 [0x1B] RETURN
     0x10A9 [0x45] LOAD_SCHEDULED_TASK: Load scheduler "whi0" with entities [LocalPlayer, LocalPlayer], work=[201*, 0*]
     0x10BA [0x55] WAIT_LOAD_SCHEDULER: Wait for scheduler "whi0" with entities [LocalPlayer, LocalPlayer], work=201*
     0x10C9 [0x1B] RETURN
     0x10CA [0x45] LOAD_SCHEDULED_TASK: Load scheduler "who0" with entities [LocalPlayer, LocalPlayer], work=[201*, 0*]
     0x10DB [0x55] WAIT_LOAD_SCHEDULER: Wait for scheduler "who0" with entities [LocalPlayer, LocalPlayer], work=201*
     0x10EA [0x1B] RETURN
     0x10EB [0x45] LOAD_SCHEDULED_TASK: Load scheduler "efon" with entities [LocalPlayer, LocalPlayer], work=[215*, 0*]
     0x10FC [0x55] WAIT_LOAD_SCHEDULER: Wait for scheduler "efon" with entities [LocalPlayer, LocalPlayer], work=215*
     0x110B [0x1B] RETURN
```
